BI00B32CA    PTA32063       202203177289-3342-30             HOUSING FEMALE ASS'Y     CCN000062400000024000FY00002400020220601000000000NNED0420220409131030    1N0N  00000240000000686400000901432CA    YPYPY   005500360039
BI00B32CA    PTA32061       202203177289-3342                HOUSING FEMALE ASS'Y     CCN000045600000021600FY00002160020220601000000000NNE00020220409131059    1N0N  00000240000000686400000901432CA    YPYPY   005500360039
BI00B32CA    PTA32061       202203177289-3342-30             HOUSING FEMALE ASS'Y     CCN000062400000048000FY00004800020220601000000000NNE00020220409131118    1N0N  00000240000000686400000901432CA    YPYPY   005500360039
BI00B32CA    PTA32063       202204117289-3342-30             HOUSING FEMALE ASS'Y     CCN000038400000038400FN00000000020220601000038400NNED0420220409131030    1N0N  00000240000000686400000901432CA    YPYPY   005500360039
BI00B32CA    PTA32061       202204117289-3342                HOUSING FEMALE ASS'Y     CCN000024000000024000FN00000000020220601000024000NNE00020220409131059    1N0N  00000240000000686400000901432CA    YPYPY   005500360039
BI00B32CA    PTA32061       202204117289-3342-30             HOUSING FEMALE ASS'Y     CCN000014400000014400FN00000000020220601000014400NNE00020220409131118    1N0N  00000240000000686400000901432CA    YPYPY   005500360039
BI00B32H2    TIJ2025        202204127289-3342-30             HOUSING FEMALE ASS'Y     CCN000120000000084000FN00004800020220201000036000NNM00020220409130933    1N0N  00000240000000686400000901432H2    HVYHV   005500360039
BI00B32H2    TIJ2043        202204227289-3342-30             HOUSING FEMALE ASS'Y     CCN000048000000048000FN00000000020220401000048000NNM00020220409153023    1N0N  00000240000000686400000901432H2    HVYHV   005500360039
BI00B32H7    #FS22061DMW    202205117172-5630-40             RUBBER STOPPER           CCN000400000000400000FN00000000020220601000400000NNMD0420220409115803    2H0H  00002000000000044000000095132H7    FYFSY   004300270014
BI00B32H7    #FS22062DMW    202205187172-5630-40             RUBBER STOPPER           CCN000300000000300000FN00000000020220601000300000NNMD0420220409115803    2H0H  00002000000000044000000095132H7    FYFSY   004300270014
BI00B32M1    TCV2034        202203247289-3342                HOUSING FEMALE ASS'Y     CCN000117600000076800FY00007680020220301000000000NNMD0420220409131209    1N0N  00000240000000686400000901432M1    VNYEV   005500360039
BI00B32M1    TCV2034        202204217289-3342                HOUSING FEMALE ASS'Y     CCN000040800000040800FN00000000020220301000040800NNMD0420220409131209    1N0N  00000240000000686400000901432M1    VNYEV   005500360039
BI00B32U5    #DI2006        202204207172-5630-40             RUBBER STOPPER           CCN000380000000380000FN00000000020220301000380000NNMD0420220409130858U5  2H0H  00002000000000044000000095132U5    AMAMSD  004300270014
BI00B32U5    #DI2004B       202204207172-5630-40             RUBBER STOPPER           CCN000160000000160000FN00000000020220301000160000NNED0420220409131447U5  2H0H  00002000000000044000000095132U5    AMAMSD  004300270014
BI00B32U5    DI2008A        202204207289-3342-30             HOUSING FEMALE ASS'Y     CCN000043200000043200FN00000000020220401000043200NNED0420220409154729U5  1N0N  00000240000000686400000901432U5    AMAMSD  005500360039
BI00B32U5    DI2014         202204207289-3342                HOUSING FEMALE ASS'Y     CCN000024000000024000FN00000000020220501000024000NNM00020220409153240U5  1N0N  00000240000000686400000901432U5    AMAMSD  005500360039
BI00B32X5    TIB1046        202204207289-3342                HOUSING FEMALE ASS'Y     CCN000012000000024000FN00000000020220101000024000NNM00020220409153350X5  1N0N  00000240000000686400000901432X5    EPYNA-E 005500360039
BI00B32X5    #TIB2006       202204207172-5630-40             RUBBER STOPPER           CCN000240000000240000FN00000000020220301000240000NNMD0420220409131250X5  2H0H  00002000000000044000000095132X5    EPYNA-E 004300270014
