BI00A1200    @40AR001-RE    20211224181AD2016ZZ              CIVUSAS-S 0.22X2 B       PCN000000500000000500FN00000000020211001000000500NNE30 20211221090106    1W    0000005000000136080000000001200    YCYC    000000000000RP11C001
BI00B32CH    SJ2201BDMW     202112231801W004090              IVSSH 0.75F L            CCN000003900000003900FN00000000020220101000003900NNE   20211221145357    1W    00000130000000882000000000032CH    SJSAMIJF000000000000QT21C001
BI00B32DE    TT202C         20220127180D0203935              AVSSH 0.5F B/R           CCN000001500000001500FN00000000020220201000001500NNE   20211221162826    1W    00000150000000689000000000032DE    TVYEV-TV000000000000VU221003
BI00B32DE    TT202C         20220127180D0203937              AVSSH 0.5F B/Y           CCN000001500000001500FN00000000020220201000001500NNE   20211221162826    1W    00000150000000689000000000032DE    TVYEV-TV000000000000VU221004
BI00B32DE    TT202C         20220127180D0204153              AVSSH 1.25F R/B          CCN000001600000001600FN00000000020220201000001600NNE   20211221162826    1W    00000080000001458000000000032DE    TVYEV-TV000000000000VU221005
BI00B32DE    @TT202C        20220127181F21002ZZ              AVSSHCS-S 0.5FX1 B       CCN000001200000001200FN00000000020220201000001200NNE   20211221162826    1W    00000040000001847000000000032DE    TVYEV-TV000000000000VU221001
BI00B32DE    @TT202C        20220127181F21013ZZ              AVSSHCS-S 0.5FX2 B/Y     CCN000001500000001500FN00000000020220201000001500NNE   20211221162826    1W    00000030000002505800000000032DE    TVYEV-TV000000000000VU221002
BI00B32D1    DFTW2211       2022012018000004534              AV 8 B/W                 CCN000004800000004800FN00000000020220301000004800NNE   20211221152058    1W    00000010000009148000000000032D1    TOYOT-K 000000000000KO121039
BI00B32D1    DFTW2211       2022012018000004535              AV 8 B/R                 CCN000006700000006700FN00000000020220301000006700NNE   20211221152058    1W    00000010000009148000000000032D1    TOYOT-K 000000000000KO121038
BI00B32D1    DFTW2211       2022012018000004540              AV 8 W                   CCN000004100000004100FN00000000020220301000004100NNE   20211221152058    1W    00000010000009148000000000032D1    TOYOT-K 000000000000KO121041
BI00B32D1    DFTW2211       2022012018000004543              AV 8 W/B                 CCN000004700000004700FN00000000020220301000004700NNE   20211221152058    1W    00000010000009148000000000032D1    TOYOT-K 000000000000KO121042
BI00B32D1    DFTW2211       2022012018000004550              AV 8 R                   CCN000002100000002100FN00000000020220301000002100NNE   20211221152058    1W    00000010000009148000000000032D1    TOYOT-K 000000000000KO121040
BI00B32D1    @DFTW2211      20220120181AD2002ZZ              CIVUSAS-S 0.35X2 B       CCN000010350000010350FN00000000020220301000010350NNE   20211221152053    1W    00000045000001714000000000032D1    TOYOT-K 000000000000KO121011
BI00B32D1    @DFTW2211      20220120181AD2003ZZ              CIVUSAS-S 0.35X3 B       CCN000004550000004550FN00000000020220301000004550NNE   20211221152053    1W    00000035000002209700000000032D1    TOYOT-K 000000000000KO121012
BI00B32D1    @DFTW2211      20220120181AD2004ZZ              CIVUSAS-S 0.35X4 B       CCN000006900000006900FN00000000020220301000006900NNE   20211221152053    1W    00000030000002784000000000032D1    TOYOT-K 000000000000KO121013
BI00B32D1    @DFTW2211      20220120181E48031ZZ              CAVSAS-S 0.3X2 GY        CCN000007350000007350FN00000000020220301000007350NNE   20211221152053    1W    00000035000001998600000000032D1    TOYOT-K 000000000000KO121014
BI00B32D1    @DFTW2211      20220120181E48037ZZ              CAVSAS-S 0.3X4 GY        CCN000008500000008500FN00000000020220301000008500NNE   20211221152053    1W    00000025000003340000000000032D1    TOYOT-K 000000000000KO121016
BI00B32D1    @DFTW2211      20220120181E48041ZZ              CAVSAS-S 0.3X2 GY/R      CCN000009450000009450FN00000000020220301000009450NNE   20211221152053    1W    00000035000001998600000000032D1    TOYOT-K 000000000000KO121015
BI00B32D1    @DFTW2211      20220120181E50002ZZ              AVSSCS-S 0.3FX2 DGY/G    CCN000012950000012950FN00000000020220301000012950NNE   20211221152053    1W    00000035000001997000000000032D1    TOYOT-K 000000000000KO121022
BI00B32D1    @DFTW2211      20220120181E50004ZZ              AVSSCS-S 0.5FX1 DGY      CCN000010800000010800FN00000000020220301000010800NNE   20211221152053    1W    00000040000001817000000000032D1    TOYOT-K 000000000000KO121017
BI00B32D1    @DFTW2211      20220120181E50005ZZ              AVSSCS-S 0.5FX1 DGY/W    CCN000003200000003200FN00000000020220301000003200NNE   20211221152053    1W    00000040000001817000000000032D1    TOYOT-K 000000000000KO121020
BI00B32D1    @DFTW2211      20220120181E50007ZZ              AVSSCS-S 0.5FX1 DGY/L    CCN000005200000005200FN00000000020220301000005200NNE   20211221152053    1W    00000040000001817000000000032D1    TOYOT-K 000000000000KO121018
BI00B32D1    @DFTW2211      20220120181E50014ZZ              AVSSCS-S 0.5FX1 DGY/R    CCN000001200000001200FN00000000020220301000001200NNE   20211221152053    1W    00000040000001817000000000032D1    TOYOT-K 000000000000KO121019
BI00B32D1    @DFTW2211      20220120181E50020ZZ              AVSSCS-S 0.3FX2 DGY/R    CCN000005600000005600FN00000000020220301000005600NNE   20211221152053    1W    00000035000001997000000000032D1    TOYOT-K 000000000000KO121024
BI00B32D1    @DFTW2211      20220120181E50021ZZ              AVSSCS-S 0.3FX2 DGY/P    CCN000007350000007350FN00000000020220301000007350NNE   20211221152053    1W    00000035000001997000000000032D1    TOYOT-K 000000000000KO121023
BI00B32D1    @DFTW2211      20220120181E50036ZZ              AVSSCS-S 0.3FX2 DGY      CCN000006300000006300FN00000000020220301000006300NNE   20211221152053    1W    00000035000001997000000000032D1    TOYOT-K 000000000000KO121021
BI00B32D2    DGTW2211       2022012018000004530              AV 8 B                   CCN000039800000039800FN00000000020220301000039800NNE   20211221153753    1W    00000010000009148000000000032D2    TGYOT-G 000000000000KR121035
BI00B32D2    DGTW2211       2022012018000004540              AV 8 W                   CCN000016100000016100FN00000000020220301000016100NNE   20211221153753    1W    00000010000009148000000000032D2    TGYOT-G 000000000000KR121037
BI00B32D2    DGTW2211       2022012018000004543              AV 8 W/B                 CCN000001000000001000FN00000000020220301000001000NNE   20211221153753    1W    00000010000009148000000000032D2    TGYOT-G 000000000000KR121038
BI00B32D2    DGTW2211       2022012018000004590              AV 8 L                   CCN000009100000009100FN00000000020220301000009100NNE   20211221153753    1W    00000010000009148000000000032D2    TGYOT-G 000000000000KR121036
BI00B32D2    @DGTW2211      20220120181AD2002ZZ              CIVUSAS-S 0.35X2 B       CCN000000450000000450FN00000000020220301000000450NNE   20211221153752    1W    00000045000001714000000000032D2    TGYOT-G 000000000000KR121011
BI00B32D2    @DGTW2211      20220120181AD2003ZZ              CIVUSAS-S 0.35X3 B       CCN000002800000002800FN00000000020220301000002800NNE   20211221153752    1W    00000035000002209700000000032D2    TGYOT-G 000000000000KR121012
BI00B32D2    @DGTW2211      20220120181AD2004ZZ              CIVUSAS-S 0.35X4 B       CCN000002100000002100FN00000000020220301000002100NNE   20211221153752    1W    00000030000002784000000000032D2    TGYOT-G 000000000000KR121013
BI00B32D2    @DGTW2211      20220120181E48037ZZ              CAVSAS-S 0.3X4 GY        CCN000006000000006000FN00000000020220301000006000NNE   20211221153752    1W    00000025000003340000000000032D2    TGYOT-G 000000000000KR121014
BI00B32D2    @DGTW2211      20220120181E50004ZZ              AVSSCS-S 0.5FX1 DGY      CCN000018400000018400FN00000000020220301000018400NNE   20211221153752    1W    00000040000001817000000000032D2    TGYOT-G 000000000000KR121015
BI00B32D2    @DGTW2211      20220120181E50005ZZ              AVSSCS-S 0.5FX1 DGY/W    CCN000014800000014800FN00000000020220301000014800NNE   20211221153752    1W    00000040000001817000000000032D2    TGYOT-G 000000000000KR121017
BI00B32D2    @DGTW2211      20220120181E50007ZZ              AVSSCS-S 0.5FX1 DGY/L    CCN000002800000002800FN00000000020220301000002800NNE   20211221153752    1W    00000040000001817000000000032D2    TGYOT-G 000000000000KR121016
BI00B32D2    @DGTW2211      20220120181E50016ZZ              AVSSCS-S 0.5FX2 DGY/R    CCN000002700000002700FN00000000020220301000002700NNE   20211221153752    1W    00000030000002072000000000032D2    TGYOT-G 000000000000KR121018
BI00B32D2    @DGTW2211      20220120181E50036ZZ              AVSSCS-S 0.3FX2 DGY      CCN000003850000003850FN00000000020220301000003850NNE   20211221153752    1W    00000035000001997000000000032D2    TGYOT-G 000000000000KR121019
BI00B32D2    @DGTW2211      20220120181F21014ZZ              AVSSHCS-S 0.5FX2 B/L     CCN000005100000005100FN00000000020220301000005100NNE   20211221153752    1W    00000030000002505800000000032D2    TGYOT-G 000000000000KR121021
BI00B32D2    @DGTW2211      20220120181F21016ZZ              AVSSHCS-S 0.5FX2 B/BR    CCN000002400000002400FN00000000020220301000002400NNE   20211221153752    1W    00000030000002505800000000032D2    TGYOT-G 000000000000KR121020
BI00B32D2    @DGTW2211      20220120181F21031ZZ              AVSSHCS-S 1.25FX2 B/P    CCN000002800000002800FN00000000020220301000002800NNE   20211221153752    1W    00000020000004262000000000032D2    TGYOT-G 000000000000KR121022
BI00B32G7    JW2202A MW     2022011318007703930              AVSS 0.5F B              CCN000001500000001500FN00000000020220201000001500NNE   20211221092633    1W    00000150000000674000000000032G7    JIJAI   000000000000JR41C002
BI00B32G7    JW2202A MW     2022011318007703960              AVSS 0.5F G              CCN000001500000001500FN00000000020220201000001500NNE   20211221092633    1W    00000150000000674000000000032G7    JIJAI   000000000000JR41C003
BI00B32G7    JW2202A MW     2022011318007703970              AVSS 0.5F Y              CCN000001500000001500FN00000000020220201000001500NNE   20211221092633    1W    00000150000000674000000000032G7    JIJAI   000000000000JR41C005
BI00B32G7    JW2202A MW     2022011318007703991              AVSS 0.5F SB             CCN000001500000001500FN00000000020220201000001500NNE   20211221092633    1W    00000150000000674000000000032G7    JIJAI   000000000000JR41C004
BI00B32G7    @JW2202ALMW    20220113181AD2022ZZ              CIVUSAS-S 0.35X2 B(R,G)  CCN000000450000000450FN00000000020220201000000450NNE   20211221092632    1W    00000045000001714000000000032G7    JIJAI   000000000000JU41C001
BI00B32G7    JW2202AMMW     202201131801W003950              IVSSH 0.5F R             CCN000001800000001800FN00000000020220201000001800NNE   20211221092634    1W    00000180000000625000000000032G7    JIJAI   000000000000JT41C004
BI00B32G7    JW2202AMMW     202201131801W003960              IVSSH 0.5F G             CCN000001800000001800FN00000000020220201000001800NNE   20211221092634    1W    00000180000000625000000000032G7    JIJAI   000000000000JT41C002
BI00B32G7    JW2202AMMW     202201131801W003990              IVSSH 0.5F L             CCN000005400000005400FN00000000020220201000005400NNE   20211221092634    1W    00000180000000625000000000032G7    JIJAI   000000000000JT41C003
BI00B32G7    JW2202AMMW     202201131801W004030              IVSSH 0.75F B            CCN000001300000001300FN00000000020220201000001300NNE   20211221092634    1W    00000130000000882000000000032G7    JIJAI   000000000000JT41C005
BI00B32G7    JW2202AMMW     202201131801W004050              IVSSH 0.75F R            CCN000001300000001300FN00000000020220201000001300NNE   20211221092634    1W    00000130000000882000000000032G7    JIJAI   000000000000JT41C006
BI00B32G7    JW2202AMMW     202201131801W004070              IVSSH 0.75F Y            CCN000001300000001300FN00000000020220201000001300NNE   20211221092634    1W    00000130000000882000000000032G7    JIJAI   000000000000JT41C007
BI00B32G7    JW2202AMMW     202201131801W006940              IVSSH 0.35F W            CCN000002500000002500FN00000000020220201000002500NNE   20211221092634    1W    00000250000000452000000000032G7    JIJAI   000000000000JT41C010
BI00B32G7    JW2202AMMW     202201131801W006960              IVSSH 0.35F G            CCN000002500000002500FN00000000020220201000002500NNE   20211221092634    1W    00000250000000452000000000032G7    JIJAI   000000000000JT41C008
BI00B32G7    JW2202AMMW     202201131801W006970              IVSSH 0.35F Y            CCN000005000000005000FN00000000020220201000005000NNE   20211221092634    1W    00000250000000452000000000032G7    JIJAI   000000000000JT41C011
BI00B32G7    JW2202AMMW     202201131801W006992              IVSSH 0.35F V            CCN000002500000002500FN00000000020220201000002500NNE   20211221092634    1W    00000250000000452000000000032G7    JIJAI   000000000000JT41C009
BI00B32G7    JW2202BMMW     202201201801W004030              IVSSH 0.75F B            CCN000001300000001300FN00000000020220201000001300NNE   20211221092635    1W    00000130000000882000000000032G7    JIJAI   000000000000JE121002
BI00B32G7    JW2202BMMW     202201201801W004050              IVSSH 0.75F R            CCN000001300000001300FN00000000020220201000001300NNE   20211221092635    1W    00000130000000882000000000032G7    JIJAI   000000000000JE121003
BI00B32G7    JW2202BMMW     202201201801W006940              IVSSH 0.35F W            CCN000002500000002500FN00000000020220201000002500NNE   20211221092635    1W    00000250000000452000000000032G7    JIJAI   000000000000JE121006
BI00B32G7    JW2202BMMW     202201201801W006943              IVSSH 0.35F W/B          CCN000002500000002500FN00000000020220201000002500NNE   20211221092635    1W    00000250000000452000000000032G7    JIJAI   000000000000JE121007
BI00B32G7    JW2202BMMW     202201201801W006960              IVSSH 0.35F G            CCN000002500000002500FN00000000020220201000002500NNE   20211221092635    1W    00000250000000452000000000032G7    JIJAI   000000000000JE121004
BI00B32G7    JW2202BMMW     202201201801W006991              IVSSH 0.35F SB           CCN000002500000002500FN00000000020220201000002500NNE   20211221092635    1W    00000250000000452000000000032G7    JIJAI   000000000000JE121005
BI00B32G7    JW2202CMMW     202201131801W006990              IVSSH 0.35F L            CCN000007500000007500FN00000000020220201000007500NNE   20211221092636    1W    00000250000000452000000000032G7    JIJAI   000000000000JV41C001
BI00B32H2    @TAW1111       20211015181AD2004ZZ              CIVUSAS-S 0.35X4 B       CCN000085200000008100FN00000000020211101000008100NNM00 20211221100209    1W    00000030000002784000000000032H2    HVYHV   000000000000UJ519006
BI00A32H2    @TAW1111       20211224181AD2004ZZ              CIVUSAS-S 0.35X4 B       PCN000015000000015000FN00000000020211101000015000NNM25 20211221100209    1W    00000030000002784000000000032H2    HVYHV   000000000000UJ519006
BI00A32Q8    EW21111 MW     2021100818009604443              AVS 5 W/B                PCN000000600000000600FY00000060020211101000000000NNM21 20211221092607    1W    00000020000005941000000000032Q8    EMEMI   000000000000MI11B062
BI00A32Q8    EW21111 MW     20220107180D0203950              AVSSH 0.5F R             PCN000015000000015000FN00000000020211101000015000NNM22 20211221110617    1W    00000150000000689000000000032Q8    EMEMI   000000000000MI11B020
BI00A32Q8    EW21111 MW     202110081801R70415U              CIVUS 1.25 BE            PCN000001000000001000FY00000100020211101000000000NNM21 20211221092607    1W    00000100000001228000000000032Q8    EMEMI   000000000000MI11B064
BI00B32Q8    EW2201C MW     20211229180D0203950              AVSSH 0.5F R             CCN000033000000033000FN00000000020220101000033000NNE20 20211221150928    1W    00000150000000689000000000032Q8    EMEMI   000000000000MV41C010
BI00B32W2    @HN2201CWMW    20211228181B32116Z5              AVSSCS 0.3FX2 DGY/L      CCN000000350000000350FN00000000020220101000000350NNE   20211221164807    1W    00000035000002241000000000032W2    HNHNY   000000000000HE21C001
BI00B32W4    @4500181432    20211123181B32116S1              AVSSCS 0.3FX2 DGY        CCN000000700000000700FN00000000020211101000000700NNE21 20211221102907W4K81W    00000035000002241000000000032W4K8  HJYHK-J 000000000000OG21B001
BI00B32W4    @4500181432    20211123181B32116Z6              AVSSCS 0.3FX2 DGY/V      CCN000008400000008400FN00000000020211101000008400NNE21 20211221102907W4K81W    00000035000002241000000000032W4K8  HJYHK-J 000000000000OG21B002
BI00A32W4    @4500183851    20211229181D6910239              AVSSHCS 0.5FX2 B/L       CCN000033900000033900FN00000000020211201000033900NNE20 20211221103346W4A21W    00000030000002792600000000032W4A2  HJYHK-J 000000000000OL21C001
BI00B32W4    4500186216     2022021518007704260              AVSS 2F G                CCN000001500000001500FN00000000020220201000001500NNE   20211221164548W41 1W    00000050000002126400000000032W41   HJYHK-J 000000000000OC122003
BI00B32W4    4500186216     2022021518007704270              AVSS 2F Y                CCN000001500000001500FN00000000020220201000001500NNE   20211221164548W41 1W    00000050000002126400000000032W41   HJYHK-J 000000000000OC122005
BI00B32W4    4500186216     2022021518007704230              AVSS 2F B                CCN000009000000009000FN00000000020220201000009000NNE   20211221164548W41 1W    00000050000002126400000000032W41   HJYHK-J 000000000000OC122002
BI00B32W4    4500186216     2022021518007704250              AVSS 2F R                CCN000005000000005000FN00000000020220201000005000NNE   20211221164548W41 1W    00000050000002126400000000032W41   HJYHK-J 000000000000OC122004
BI00B32W4    4500186216     2022021518018403791              CAVS 0.3 SB              CCN000010000000010000FN00000000020220201000010000NNE   20211221164548W41 1W    00000200000000471000000000032W41   HJYHK-J 000000000000OC122013
BI00B32W4    4500186216     2022021518018403740              CAVS 0.3 W               CCN000032000000032000FN00000000020220201000032000NNE   20211221164548W41 1W    00000200000000471000000000032W41   HJYHK-J 000000000000OC122015
BI00B32W4    4500186216     2022021518018403730              CAVS 0.3 B               CCN000030000000030000FN00000000020220201000030000NNE   20211221164548W41 1W    00000200000000471000000000032W41   HJYHK-J 000000000000OC122006
BI00B32W4    4500186216     2022021518018403750              CAVS 0.3 R               CCN000002000000002000FN00000000020220201000002000NNE   20211221164548W41 1W    00000200000000471000000000032W41   HJYHK-J 000000000000OC122012
BI00B32W4    4500186216     2022021518018403752              CAVS 0.3 P               CCN000016000000016000FN00000000020220201000016000NNE   20211221164548W41 1W    00000200000000471000000000032W41   HJYHK-J 000000000000OC122011
BI00B32W4    4500186216     2022021518018403760              CAVS 0.3 G               CCN000050000000050000FN00000000020220201000050000NNE   20211221164548W41 1W    00000200000000471000000000032W41   HJYHK-J 000000000000OC122008
BI00B32W4    4500186216     2022021518018403770              CAVS 0.3 Y               CCN000012000000012000FN00000000020220201000012000NNE   20211221164548W41 1W    00000200000000471000000000032W41   HJYHK-J 000000000000OC122016
BI00B32W4    4500186216     2022021518018403780              CAVS 0.3 BR              CCN000030000000030000FN00000000020220201000030000NNE   20211221164548W41 1W    00000200000000471000000000032W41   HJYHK-J 000000000000OC122007
BI00B32W4    4500186216     2022021518018403790              CAVS 0.3 L               CCN000028000000028000FN00000000020220201000028000NNE   20211221164548W41 1W    00000200000000471000000000032W41   HJYHK-J 000000000000OC122009
BI00B32W4    4500186216     2022021518018403792              CAVS 0.3 V               CCN000034000000034000FN00000000020220201000034000NNE   20211221164548W41 1W    00000200000000471000000000032W41   HJYHK-J 000000000000OC122014
BI00B32W4    4500186216     2022021518018403761              CAVS 0.3 LG              CCN000004000000004000FN00000000020220201000004000NNE   20211221164548W41 1W    00000200000000471000000000032W41   HJYHK-J 000000000000OC122010
BI00B32W4    4500186216     2022021518018403930              CAVS 0.5 B               CCN000034500000034500FN00000000020220201000034500NNE   20211221164548W41 1W    00000150000000677000000000032W41   HJYHK-J 000000000000OC122017
BI00B32W4    4500186216     2022021518018403940              CAVS 0.5 W               CCN000012000000012000FN00000000020220201000012000NNE   20211221164548W41 1W    00000150000000677000000000032W41   HJYHK-J 000000000000OC122030
BI00B32W4    4500186216     2022021518018403941              CAVS 0.5 GY              CCN000030000000030000FN00000000020220201000030000NNE   20211221164548W41 1W    00000150000000677000000000032W41   HJYHK-J 000000000000OC122020
BI00B32W4    4500186216     2022021518018403950              CAVS 0.5 R               CCN000015000000015000FN00000000020220201000015000NNE   20211221164548W41 1W    00000150000000677000000000032W41   HJYHK-J 000000000000OC122025
BI00B32W4    4500186216     2022021518018403951              CAVS 0.5 O               CCN000043500000043500FN00000000020220201000043500NNE   20211221164548W41 1W    00000150000000677000000000032W41   HJYHK-J 000000000000OC122023
BI00B32W4    4500186216     2022021518018403952              CAVS 0.5 P               CCN000099000000099000FN00000000020220201000099000NNE   20211221164548W41 1W    00000150000000677000000000032W41   HJYHK-J 000000000000OC122024
BI00B32W4    4500186216     2022021518018403960              CAVS 0.5 G               CCN000013500000013500FN00000000020220201000013500NNE   20211221164548W41 1W    00000150000000677000000000032W41   HJYHK-J 000000000000OC122019
BI00B32W4    4500186216     2022021518018403961              CAVS 0.5 LG              CCN000013500000013500FN00000000020220201000013500NNE   20211221164548W41 1W    00000150000000677000000000032W41   HJYHK-J 000000000000OC122022
BI00B32W4    4500186216     2022021518018403970              CAVS 0.5 Y               CCN000069000000069000FN00000000020220201000069000NNE   20211221164548W41 1W    00000150000000677000000000032W41   HJYHK-J 000000000000OC122031
BI00B32W4    4500186216     2022021518018403980              CAVS 0.5 BR              CCN000027000000027000FN00000000020220201000027000NNE   20211221164548W41 1W    00000150000000677000000000032W41   HJYHK-J 000000000000OC122018
BI00B32W4    4500186216     2022021518018403990              CAVS 0.5 L               CCN000111000000111000FN00000000020220201000111000NNE   20211221164548W41 1W    00000150000000677000000000032W41   HJYHK-J 000000000000OC122021
BI00B32W4    4500186216     2022021518018403991              CAVS 0.5 SB              CCN000022500000022500FN00000000020220201000022500NNE   20211221164548W41 1W    00000150000000677000000000032W41   HJYHK-J 000000000000OC122028
BI00B32W4    4500186216     2022021518018403992              CAVS 0.5 V               CCN000016500000016500FN00000000020220201000016500NNE   20211221164548W41 1W    00000150000000677000000000032W41   HJYHK-J 000000000000OC122029
BI00B32W4    4500186216     2022021518018404030              CAVS 0.85 B              CCN000086000000086000FN00000000020220201000086000NNE   20211221164548W41 1W    00000100000000965000000000032W41   HJYHK-J 000000000000OC122032
BI00B32W4    4500186216     2022021518018404040              CAVS 0.85 W              CCN000058000000058000FN00000000020220201000058000NNE   20211221164548W41 1W    00000100000000965000000000032W41   HJYHK-J 000000000000OC122043
BI00B32W4    4500186216     2022021518018404041              CAVS 0.85 GY             CCN000113000000113000FN00000000020220201000113000NNE   20211221164548W41 1W    00000100000000965000000000032W41   HJYHK-J 000000000000OC122035
BI00B32W4    4500186216     2022021518018404050              CAVS 0.85 R              CCN000138000000138000FN00000000020220201000138000NNE   20211221164548W41 1W    00000100000000965000000000032W41   HJYHK-J 000000000000OC122040
BI00B32W4    4500186216     2022021518018404051              CAVS 0.85 O              CCN000047000000047000FN00000000020220201000047000NNE   20211221164548W41 1W    00000100000000965000000000032W41   HJYHK-J 000000000000OC122038
BI00B32W4    4500186216     2022021518018404052              CAVS 0.85 P              CCN000041000000041000FN00000000020220201000041000NNE   20211221164548W41 1W    00000100000000965000000000032W41   HJYHK-J 000000000000OC122039
BI00B32W4    4500186216     2022021518018404060              CAVS 0.85 G              CCN000060000000060000FN00000000020220201000060000NNE   20211221164548W41 1W    00000100000000965000000000032W41   HJYHK-J 000000000000OC122034
BI00B32W4    4500186216     2022021518018404061              CAVS 0.85 LG             CCN000006000000006000FN00000000020220201000006000NNE   20211221164548W41 1W    00000100000000965000000000032W41   HJYHK-J 000000000000OC122037
BI00B32W4    4500186216     2022021518018404070              CAVS 0.85 Y              CCN000087000000087000FN00000000020220201000087000NNE   20211221164548W41 1W    00000100000000965000000000032W41   HJYHK-J 000000000000OC122044
BI00B32W4    4500186216     2022021518018404080              CAVS 0.85 BR             CCN000039000000039000FN00000000020220201000039000NNE   20211221164548W41 1W    00000100000000965000000000032W41   HJYHK-J 000000000000OC122033
BI00B32W4    4500186216     2022021518018404090              CAVS 0.85 L              CCN000010000000010000FN00000000020220201000010000NNE   20211221164548W41 1W    00000100000000965000000000032W41   HJYHK-J 000000000000OC122036
BI00B32W4    4500186216     2022021518018404091              CAVS 0.85 SB             CCN000071000000071000FN00000000020220201000071000NNE   20211221164548W41 1W    00000100000000965000000000032W41   HJYHK-J 000000000000OC122041
BI00B32W4    4500186216     2022021518018404092              CAVS 0.85 V              CCN000026000000026000FN00000000020220201000026000NNE   20211221164548W41 1W    00000100000000965000000000032W41   HJYHK-J 000000000000OC122042
BI00B32W4    4500186216     2022021518018404140              CAVS 1.25 W              CCN000004800000004800FN00000000020220201000004800NNE   20211221164548W41 1W    00000080000001378000000000032W41   HJYHK-J 000000000000OC122050
BI00B32W4    4500186216     2022021518018404170              CAVS 1.25 Y              CCN000008800000008800FN00000000020220201000008800NNE   20211221164548W41 1W    00000080000001378000000000032W41   HJYHK-J 000000000000OC122051
BI00B32W4    4500186216     2022021518018404130              CAVS 1.25 B              CCN000004000000004000FN00000000020220201000004000NNE   20211221164548W41 1W    00000080000001378000000000032W41   HJYHK-J 000000000000OC122045
BI00B32W4    4500186216     2022021518018404141              CAVS 1.25 GY             CCN000001600000001600FN00000000020220201000001600NNE   20211221164548W41 1W    00000080000001378000000000032W41   HJYHK-J 000000000000OC122046
BI00B32W4    4500186216     2022021518018404151              CAVS 1.25 O              CCN000001600000001600FN00000000020220201000001600NNE   20211221164548W41 1W    00000080000001378000000000032W41   HJYHK-J 000000000000OC122047
BI00B32W4    4500186216     2022021518018404152              CAVS 1.25 P              CCN000000800000000800FN00000000020220201000000800NNE   20211221164548W41 1W    00000080000001378000000000032W41   HJYHK-J 000000000000OC122048
BI00B32W4    4500186216     2022021518018404150              CAVS 1.25 R              CCN000001600000001600FN00000000020220201000001600NNE   20211221164548W41 1W    00000080000001378000000000032W41   HJYHK-J 000000000000OC122049
BI00B32W4    4500186216     2022021518018403953              CAVS 0.5 R/B             CCN000001500000001500FN00000000020220201000001500NNE   20211221164548W41 1W    00000150000000677000000000032W41   HJYHK-J 000000000000OC122026
BI00B32W4    4500186216     2022021518018403955              CAVS 0.5 R/LG            CCN000003000000003000FN00000000020220201000003000NNE   20211221164548W41 1W    00000150000000677000000000032W41   HJYHK-J 000000000000OC122027
BI00B32W4    @4500186216    20220215181B32116Z6              AVSSCS 0.3FX2 DGY/V      CCN000003150000003150FN00000000020220201000003150NNE   20211221164547W41 1W    00000035000002241000000000032W41   HJYHK-J 000000000000OC122001
BI00B32W4    4500186224     20220215180D0203930              AVSSH 0.5F B             CCN000006000000006000FN00000000020220201000006000NNE   20211221164549W41 1W    00000150000000689000000000032W41   HJYHK-J 000000000000OD122001
BI00B32W4    4500186224     20220215180D0203940              AVSSH 0.5F W             CCN000007500000007500FN00000000020220201000007500NNE   20211221164549W41 1W    00000150000000689000000000032W41   HJYHK-J 000000000000OD122003
BI00B32W4    4500186224     20220215180D0203960              AVSSH 0.5F G             CCN000007500000007500FN00000000020220201000007500NNE   20211221164549W41 1W    00000150000000689000000000032W41   HJYHK-J 000000000000OD122002
BI00B32W4    4500186224     20220215180D0203970              AVSSH 0.5F Y             CCN000006000000006000FN00000000020220201000006000NNE   20211221164549W41 1W    00000150000000689000000000032W41   HJYHK-J 000000000000OD122004
BI00B32W4    4500186229     2022021518018403740              CAVS 0.3 W               CCN000016000000016000FN00000000020220201000016000NNE   20211221164550W41 1W    00000200000000471000000000032W41   HJYHK-J 000000000000OE122014
BI00B32W4    4500186229     2022021518018403730              CAVS 0.3 B               CCN000054000000054000FN00000000020220201000054000NNE   20211221164550W41 1W    00000200000000471000000000032W41   HJYHK-J 000000000000OE122008
BI00B32W4    4500186229     2022021518018403760              CAVS 0.3 G               CCN000002000000002000FN00000000020220201000002000NNE   20211221164550W41 1W    00000200000000471000000000032W41   HJYHK-J 000000000000OE122010
BI00B32W4    4500186229     2022021518018403780              CAVS 0.3 BR              CCN000006000000006000FN00000000020220201000006000NNE   20211221164550W41 1W    00000200000000471000000000032W41   HJYHK-J 000000000000OE122009
BI00B32W4    4500186229     2022021518018403792              CAVS 0.3 V               CCN000036000000036000FN00000000020220201000036000NNE   20211221164550W41 1W    00000200000000471000000000032W41   HJYHK-J 000000000000OE122013
BI00B32W4    4500186229     2022021518018403793              CAVS 0.3 L/B             CCN000002000000002000FN00000000020220201000002000NNE   20211221164550W41 1W    00000200000000471000000000032W41   HJYHK-J 000000000000OE122011
BI00B32W4    4500186229     2022021518018403795              CAVS 0.3 L/R             CCN000006000000006000FN00000000020220201000006000NNE   20211221164550W41 1W    00000200000000471000000000032W41   HJYHK-J 000000000000OE122012
BI00B32W4    4500186229     2022021518018403749              CAVS 0.3 W/L             CCN000024000000024000FN00000000020220201000024000NNE   20211221164550W41 1W    00000200000000471000000000032W41   HJYHK-J 000000000000OE122015
BI00B32W4    4500186229     2022021518018403937              CAVS 0.5 B/Y             CCN000001500000001500FN00000000020220201000001500NNE   20211221164550W41 1W    00000150000000677000000000032W41   HJYHK-J 000000000000OE122017
BI00B32W4    4500186229     2022021518018403930              CAVS 0.5 B               CCN000010500000010500FN00000000020220201000010500NNE   20211221164550W41 1W    00000150000000677000000000032W41   HJYHK-J 000000000000OE122016
BI00B32W4    4500186229     2022021518018403950              CAVS 0.5 R               CCN000006000000006000FN00000000020220201000006000NNE   20211221164550W41 1W    00000150000000677000000000032W41   HJYHK-J 000000000000OE122021
BI00B32W4    4500186229     2022021518018403951              CAVS 0.5 O               CCN000001500000001500FN00000000020220201000001500NNE   20211221164550W41 1W    00000150000000677000000000032W41   HJYHK-J 000000000000OE122019
BI00B32W4    4500186229     2022021518018403952              CAVS 0.5 P               CCN000003000000003000FN00000000020220201000003000NNE   20211221164550W41 1W    00000150000000677000000000032W41   HJYHK-J 000000000000OE122020
BI00B32W4    4500186229     2022021518018403990              CAVS 0.5 L               CCN000003000000003000FN00000000020220201000003000NNE   20211221164550W41 1W    00000150000000677000000000032W41   HJYHK-J 000000000000OE122018
BI00B32W4    4500186229     2022021518018404130              CAVS 1.25 B              CCN000003200000003200FN00000000020220201000003200NNE   20211221164550W41 1W    00000080000001378000000000032W41   HJYHK-J 000000000000OE122022
BI00B32W4    4500186229     2022021518018404141              CAVS 1.25 GY             CCN000001600000001600FN00000000020220201000001600NNE   20211221164550W41 1W    00000080000001378000000000032W41   HJYHK-J 000000000000OE122023
BI00B32W4    4500186229     2022021518018404157              CAVS 1.25 R/Y            CCN000003200000003200FN00000000020220201000003200NNE   20211221164550W41 1W    00000080000001378000000000032W41   HJYHK-J 000000000000OE122025
BI00B32W4    4500186229     2022021518018404194              CAVS 1.25 L/W            CCN000003200000003200FN00000000020220201000003200NNE   20211221164550W41 1W    00000080000001378000000000032W41   HJYHK-J 000000000000OE122024
BI00B32W4    4500186229     202202151801R706940              CIVUS 0.35 W             CCN000006000000006000FN00000000020220201000006000NNE   20211221164550W41 1W    00000300000000386000000000032W41   HJYHK-J 000000000000OE122006
BI00B32W4    4500186229     202202151801R706930              CIVUS 0.35 B             CCN000009000000009000FN00000000020220201000009000NNE   20211221164550W41 1W    00000300000000386000000000032W41   HJYHK-J 000000000000OE122003
BI00B32W4    4500186229     202202151801R706970              CIVUS 0.35 Y             CCN000009000000009000FN00000000020220201000009000NNE   20211221164550W41 1W    00000300000000386000000000032W41   HJYHK-J 000000000000OE122007
BI00B32W4    4500186229     202202151801R706990              CIVUS 0.35 L             CCN000006000000006000FN00000000020220201000006000NNE   20211221164550W41 1W    00000300000000386000000000032W41   HJYHK-J 000000000000OE122005
BI00B32W4    4500186229     202202151801R706941              CIVUS 0.35 GY            CCN000003000000003000FN00000000020220201000003000NNE   20211221164550W41 1W    00000300000000386000000000032W41   HJYHK-J 000000000000OE122004
BI00B32W4    @4500186229    20220215181B0911611              CAVSAS 0.3X2 GY/L        CCN000007000000007000FN00000000020220201000007000NNE   20211221164548W41 1W    00000035000002133000000000032W41   HJYHK-J 000000000000OE122002
BI00B32W4    @4500186229    20220215181AD2002ZZ              CIVUSAS-S 0.35X2 B       CCN000001350000001350FN00000000020220201000001350NNE   20211221164548W41 1W    00000045000001714000000000032W41   HJYHK-J 000000000000OE122001
BI00B32W4    4500186268     2022011118007703940              AVSS 0.5F W              CCN000001500000001500FN00000000020220101000001500NNE   20211221164341W42 1W    00000150000000674000000000032W42   HJYHK-J 000000000000OL41C001
BI00B32W4    4500186268     2022011118007704240              AVSS 2F W                CCN000001000000001000FN00000000020220101000001000NNE   20211221164341W42 1W    00000050000002126400000000032W42   HJYHK-J 000000000000OL41C002
BI00B32W4    4500186268     2022011118009603954              AVS 0.5 R/W              CCN000001000000001000FN00000000020220101000001000NNE   20211221164341W42 1W    00000100000000850000000000032W42   HJYHK-J 000000000000OL41C006
BI00B32W4    4500186268     2022011118009603957              AVS 0.5 R/Y              CCN000003000000003000FN00000000020220101000003000NNE   20211221164341W42 1W    00000100000000850000000000032W42   HJYHK-J 000000000000OL41C007
BI00B32W4    4500186268     2022011118009603961              AVS 0.5 LG               CCN000002000000002000FN00000000020220101000002000NNE   20211221164341W42 1W    00000100000000850000000000032W42   HJYHK-J 000000000000OL41C005
BI00B32W4    4500186268     2022011118009603965              AVS 0.5 G/R              CCN000003000000003000FN00000000020220101000003000NNE   20211221164341W42 1W    00000100000000850000000000032W42   HJYHK-J 000000000000OL41C003
BI00B32W4    4500186268     2022011118009603997              AVS 0.5 L/Y              CCN000001000000001000FN00000000020220101000001000NNE   20211221164341W42 1W    00000100000000850000000000032W42   HJYHK-J 000000000000OL41C004
BI00B32W4    4500186268     2022011118009604030              AVS 0.85 B               CCN000005000000005000FN00000000020220101000005000NNE   20211221164341W42 1W    00000100000001148000000000032W42   HJYHK-J 000000000000OL41C008
BI00B32W4    4500186268     2022011118009604059              AVS 0.85 R/L             CCN000003000000003000FN00000000020220101000003000NNE   20211221164341W42 1W    00000100000001148000000000032W42   HJYHK-J 000000000000OL41C010
BI00B32W4    4500186268     2022011118009604090              AVS 0.85 L               CCN000001000000001000FN00000000020220101000001000NNE   20211221164341W42 1W    00000100000001148000000000032W42   HJYHK-J 000000000000OL41C009
BI00B32W4    4500186268     2022011118009604130              AVS 1.25 B               CCN000000800000000800FN00000000020220101000000800NNE   20211221164341W42 1W    00000080000001620000000000032W42   HJYHK-J 000000000000OL41C011
BI00B32W4    4500186268     2022011118009604140              AVS 1.25 W               CCN000000800000000800FN00000000020220101000000800NNE   20211221164341W42 1W    00000080000001620000000000032W42   HJYHK-J 000000000000OL41C014
BI00B32W4    4500186268     2022011118009604153              AVS 1.25 R/B             CCN000002400000002400FN00000000020220101000002400NNE   20211221164341W42 1W    00000080000001620000000000032W42   HJYHK-J 000000000000OL41C013
BI00B32W4    4500186268     2022011118009604160              AVS 1.25 G               CCN000003200000003200FN00000000020220101000003200NNE   20211221164341W42 1W    00000080000001620000000000032W42   HJYHK-J 000000000000OL41C012
BI00B32W4    4500186268     2022011118009604240              AVS 2 W                  CCN000000500000000500FN00000000020220101000000500NNE   20211221164341W42 1W    00000050000002447000000000032W42   HJYHK-J 000000000000OL41C016
BI00B32W4    4500186268     2022011118009604250              AVS 2 R                  CCN000000500000000500FN00000000020220101000000500NNE   20211221164341W42 1W    00000050000002447000000000032W42   HJYHK-J 000000000000OL41C015
BI00B32W4    4500186268     2022011118009604330              AVS 3 B                  CCN000002400000002400FN00000000020220101000002400NNE   20211221164341W42 1W    00000040000003777500000000032W42   HJYHK-J 000000000000OL41C017
BI00B32W4    4500186268     2022011118018403736              CAVS 0.3 B/G             CCN000002000000002000FN00000000020220101000002000NNE   20211221164341W42 1W    00000200000000471000000000032W42   HJYHK-J 000000000000OL41C018
BI00B32W4    4500186268     2022011118018403775              CAVS 0.3 Y/R             CCN000004000000004000FN00000000020220101000004000NNE   20211221164341W42 1W    00000200000000471000000000032W42   HJYHK-J 000000000000OL41C020
BI00B32W4    4500186268     2022011118018403776              CAVS 0.3 Y/G             CCN000002000000002000FN00000000020220101000002000NNE   20211221164341W42 1W    00000200000000471000000000032W42   HJYHK-J 000000000000OL41C019
BI00B32W4    4500186268     2022011118018403930              CAVS 0.5 B               CCN000004500000004500FN00000000020220101000004500NNE   20211221164341W42 1W    00000150000000677000000000032W42   HJYHK-J 000000000000OL41C021
BI00B32W4    4500186268     2022011118018403939              CAVS 0.5 B/L             CCN000003000000003000FN00000000020220101000003000NNE   20211221164341W42 1W    00000150000000677000000000032W42   HJYHK-J 000000000000OL41C022
BI00B32W4    4500186268     2022011118018403940              CAVS 0.5 W               CCN000001500000001500FN00000000020220101000001500NNE   20211221164341W42 1W    00000150000000677000000000032W42   HJYHK-J 000000000000OL41C027
BI00B32W4    4500186268     2022011118018403950              CAVS 0.5 R               CCN000003000000003000FN00000000020220101000003000NNE   20211221164341W42 1W    00000150000000677000000000032W42   HJYHK-J 000000000000OL41C026
BI00B32W4    4500186268     2022011118018403951              CAVS 0.5 O               CCN000001500000001500FN00000000020220101000001500NNE   20211221164341W42 1W    00000150000000677000000000032W42   HJYHK-J 000000000000OL41C024
BI00B32W4    4500186268     2022011118018403952              CAVS 0.5 P               CCN000001500000001500FN00000000020220101000001500NNE   20211221164341W42 1W    00000150000000677000000000032W42   HJYHK-J 000000000000OL41C025
BI00B32W4    4500186268     2022011118018403997              CAVS 0.5 L/Y             CCN000001500000001500FN00000000020220101000001500NNE   20211221164341W42 1W    00000150000000677000000000032W42   HJYHK-J 000000000000OL41C023
BI00B32W4    4500186268     2022011118018404040              CAVS 0.85 W              CCN000002000000002000FN00000000020220101000002000NNE   20211221164341W42 1W    00000100000000965000000000032W42   HJYHK-J 000000000000OL41C029
BI00B32W4    4500186268     2022011118018404053              CAVS 0.85 R/B            CCN000001000000001000FN00000000020220101000001000NNE   20211221164341W42 1W    00000100000000965000000000032W42   HJYHK-J 000000000000OL41C028
BI00B32W4    4500186268     2022011118018404070              CAVS 0.85 Y              CCN000002000000002000FN00000000020220101000002000NNE   20211221164341W42 1W    00000100000000965000000000032W42   HJYHK-J 000000000000OL41C030
BI00B32W4    4500186268     2022011118018404130              CAVS 1.25 B              CCN000002400000002400FN00000000020220101000002400NNE   20211221164341W42 1W    00000080000001378000000000032W42   HJYHK-J 000000000000OL41C031
BI00B32W4    4500186268     2022011118018404140              CAVS 1.25 W              CCN000000800000000800FN00000000020220101000000800NNE   20211221164341W42 1W    00000080000001378000000000032W42   HJYHK-J 000000000000OL41C034
BI00B32W4    4500186268     2022011118018404159              CAVS 1.25 R/L            CCN000001600000001600FN00000000020220101000001600NNE   20211221164341W42 1W    00000080000001378000000000032W42   HJYHK-J 000000000000OL41C033
BI00B32W4    4500186268     2022011118018404160              CAVS 1.25 G              CCN000000800000000800FN00000000020220101000000800NNE   20211221164341W42 1W    00000080000001378000000000032W42   HJYHK-J 000000000000OL41C032
