BI00A1200    2399T51921     202112307289-5979-30             HOUSING FEMALE ASS'Y     PCN000011592000000000FY00000000020211101000000000NNMD0220211221201847    1N0N  0000002520000085470000106471200    YCYC    005400370024
BI00A1200    2399T51923     202201147289-5979-30             HOUSING FEMALE ASS'Y     PCN000011592000004032FN00000000020211101000004032NNMD0220211221192741    1N0N  0000002520000085470000106471200    YCYC    005400370024
BI00B1200    #2399T51920    202201067289-4200-30             HOUSING FEMALE ASS'Y     CCN000042000000042000FN00000000020211101000042000NNMD0420211221163421    2N0N  0000020000000092600000102101200    YCYC    005400370024
BI00A1200    7360T51A01     202112217289-3342-30             HOUSING FEMALE ASS'Y     CCN000043200000021600FY00002160020211201000000000NNMQ0420211221162150    1N0N  0000024000000068640000090141200    YCYC    005500360039
BI00B1200    7360T51A02     202203107289-3342-30             HOUSING FEMALE ASS'Y     CCN000040800000009600FN00000000020211201000009600NNMQ0420211221122317    1N0N  0000024000000068640000090141200    YCYC    005500360039
BI00A1200    7360T51B03     202112297289-3342-30             HOUSING FEMALE ASS'Y     CCN000009600000009600FN00000000020220101000009600NNMD0020211221162038    1N0N  0000024000000068640000090141200    YCYC    005500360039
BI00B1200    2399T51B21     202201067289-9553-30             SEALED ASSY FEMALE       CCN000002940000002940FN00000000020220101000002940NNMD0420211221163457    4N0N  0000029400000110900000152151200    YCYC    005500360039
BI00B1200    2399T51B21     202201067289-9553-50             SEALED ASSY FEMALE       CCN000020580000020580FN00000000020220101000020580NNMD0420211221163457    4N0N  0000029400000110810000152061200    YCYC    005500360039
BI00A1200    2399T51920     202112287289-5979-30             HOUSING FEMALE ASS'Y     PCN000001512000001512FN00000000020211101000001512NNM00020211221195419    1N0N  0000002520000085470000106471200    YCYC    005400370024
BI00A1200    2399T51921     202112227289-5979-30             HOUSING FEMALE ASS'Y     PCN000011844000005544FN00000000020211101000005544NNMD0220211221201433    1N0N  0000002520000085470000106471200    YCYC    005400370024
BI00A1200    2399T51921     202112287289-5979-30             HOUSING FEMALE ASS'Y     PCN000000252000010584FN00000000020211101000010584NNMD0220211221201847    1N0N  0000002520000085470000106471200    YCYC    005400370024
BI00A1200    2399T51C31     202201057298-2853-30             HOUSING FEMALE ASS'Y     CCN000000480000000480FN00000000020220101000000480NNED0720211221132622    4N0N  0000002400000109490000136091200    YCYC    005500360039
BI00A1200    2399T51C32     202201057298-2853-30             HOUSING FEMALE ASS'Y     CCN000000480000000480FN00000000020220101000000480NNED0720211221132622    4N0N  0000002400000109490000136091200    YCYC    005500360039
BI00A1200    2399T51C33     202201127298-2853-30             HOUSING FEMALE ASS'Y     CCN000000480000000480FN00000000020220101000000480NNED0720211221122317    4N0N  0000002400000109490000136091200    YCYC    005500360039
BI00A1200    2399T51C34     202201127298-2853-30             HOUSING FEMALE ASS'Y     CCN000000480000000480FN00000000020220101000000480NNED0720211221122317    4N0N  0000002400000109490000136091200    YCYC    005500360039
BI00A1200    7360T51A02     202112217289-3342-30             HOUSING FEMALE ASS'Y     CCN000009600000009600FY00000960020211201000000000NNMQ0420211221162150    1N0N  0000024000000068640000090141200    YCYC    005500360039
BI00A1200    MKH2021-230    202201197298-5993-30             SEALED ASSY FEMALE       CCN000002184000002184FN00000000020220101000002184NNE   20211221152025    4N0N  0000021840000098150000129001200    YCYC    005500360039
BI00B32A7    ZZ22011LMW     202112237289-3342-30             HOUSING FEMALE ASS'Y     CCN000002400000002400FN00000000020220101000002400NNM00020211221163949    1N0N  00000240000000686400000901432A7    ZZZZY   005500360039
BI00B32A7    ZZ22012LMW     202112237289-3342-30             HOUSING FEMALE ASS'Y     CCN000002400000002400FN00000000020220101000002400NNM00020211221164015    1N0N  00000240000000686400000901432A7    ZZZZY   005500360039
BI00A32CH    #SJ22022 MW    202112227158-3003-90             RUBBER STOPPER           CCN000060000000060000FN00000000020220201000060000NNMM0020211221122317    2C0C  00002000000000250000000306032CH    SJSAMIJF002700430014
BI00B32CH    SJ2202A MW     202201137017-1181-02             TERMINAL                 CCN000063000000063000FN00000000020220201000063000NNE   20211221135627    4P0P  00006300000001089900001266832CH    SJSAMIJF005100280028
BI00B32CH    SJ2202A MW     202201137283-1114-40             CONNECTOR                CCN000004000000004000FN00000000020220201000004000NNE   20211221135627    4N0N  00000200000000624000000929332CH    SJSAMIJF005600390040
BI00B32CH    SJ2202A MW     202201137327-6832-60             MAIN FUSE                CCN000001800000001800FN00000000020220201000001800NNE   20211221135627    4N0N  00000060000000729200000930732CH    SJSAMIJF005400370024
BI00B32CH    #SJ2202A MW    202201137158-3003-90             RUBBER STOPPER           CCN000040000000040000FN00000000020220201000040000NNE   20211221135620    2C0C  00002000000000250000000306032CH    SJSAMIJF002700430014
BI00B32CH    SJ2202ADMW     202201137283-6120                CONNECTOR HOUSING        CCN000004500000004500FN00000000020220201000004500NNE   20211221135646    1N0N  00000150000000914000001143032CH    SJSAMIJF005600390040
BI00B32CH    SJ2202AHMW     202201137C89-6868-30             SEALED ASSY FEMALE       CCN000005040000005040FN00000000020220201000005040NNE   20211221135713    4N0N  00000252000000839200001119232CH    SJSAMIJF005500360039
BI00B32CH    SJ2202AHMW     202201137327-6870-30             MULTI FUSE               CCN000000576000000576FN00000000020220201000000576NNE   20211221135713    4N0N  00000028800001015200001181132CH    SJSAMIJF005400370024
BI00B32CH    SJ2202AHMW     202201137327-6872-30             MULTI FUSE               CCN000000864000000864FN00000000020220201000000864NNE   20211221135713    4N0N  00000028800000984500001150432CH    SJSAMIJF005400370024
BI00B32CH    SJ2202AHMW     202201137327-6878-30             MULTI FUSE               CCN000000576000000576FN00000000020220201000000576NNE   20211221135713    4N0N  00000028800000989700001155632CH    SJSAMIJF005400370024
BI00B32CH    SJ2202AHMW     202201137327-6882-30             MULTI FUSE               CCN000001152000001152FN00000000020220201000001152NNE   20211221135713    4N0N  00000028800001015900001181832CH    SJSAMIJF005400370024
BI00B32CH    SJ2202AHMW     202201137327-6884-30             MULTI FUSE               CCN000013248000013248FN00000000020220201000013248NNE   20211221135713    4N0N  00000028800000988900001154832CH    SJSAMIJF005400370024
BI00B32CH    #SJ2202AHMW    202201137198-2458                HOUSING FEMALE           CCN000001760000001760FN00000000020220201000001760NNE   20211221135709    2F0F  00000176000000869100001160532CH    SJSAMIJF005400370024
BI00B32CH    #SJ2202AHMW    202201137298-2459-60             LIF FEMALE ASSEMBLY      CCN000000840000000840FN00000000020220201000000840NNE   20211221135709    2N0N  00000016800000534000000729632CH    SJSAMIJF005400370024
BI00B32DE    TCT1123        202112307289-3342-30             HOUSING FEMALE ASS'Y     CCN000038400000038400FN00000000020211201000038400NNM00020211221160511    1N0N  00000240000000686400000901432DE    TVYEV-TV005500360039
BI00A32DG    #QA-21-C122    202112227282-5845                HOUSING MALE ASS'Y       PNN000008000000008000FN00000000020211201000008000NNED0720211221122317    2N0N  00000400000001068000001178032DG    BFSAIBF 005400370024
BI00B32DG    #RL2021A       202201137035-5731                GROMMET                  CCN000003500000003500FN00000000020220201000003500NNE   20211221144854    2H0H  00000050000000808000000918032DG    BFSAIBF 005600390040
BI00B32DG    #RL2021A       202201137282-5845-30             HOUSING MALE ASS'Y       CCN000004000000004000FN00000000020220201000004000NNE   20211221144854    2N0N  00000400000001068000001178032DG    BFSAIBF 005400370024
BI00B32DG    #RL2021A       202201137183-1616                CONNECTOR HOUSING        CCN000002400000002400FN00000000020220201000002400NNE   20211221144854    2F0F  00000240000000557500000823332DG    BFSAIBF 005500360039
BI00B32DG    RP2021A        202201137017-1181-02             TERMINAL                 CCN000063000000063000FN00000000020220201000063000NNE   20211221145017    4P0P  00006300000001089900001266832DG    BFSAIBF 005100280028
BI00B32DG    RP2021A        202201137116-4032                TERMINAL                 CCN000006000000006000FN00000000020220201000006000NNE   20211221145017    4P0P  00000600000000532800000818032DG    BFSAIBF 006400630015
BI00B32DG    RP2021A        202201137114-5096-02             TERMINAL                 CCN000030000000030000FN00000000020220201000030000NNE   20211221145017    4P0P  00003000000000498000000792232DG    BFSAIBF 006400630015
BI00B32DG    RP2021A        202201137287-1917                CONNECTOR FEMALE         CCN000002400000002400FN00000000020220201000002400NNE   20211221145017    4N0N  00000240000001060800001312532DG    BFSAIBF 005500360039
BI00B32DG    RP2021A        202201137116-4114-02             TERMINAL                 CCN000010500000010500FN00000000020220201000010500NNE   20211221145017    4P0P  00001050000000693000000981232DG    BFSAIBF 006400630015
BI00B32DG    RP2021A        202201137126-8853-02             TERMINAL                 CCN000007500000007500FN00000000020220201000007500NNE   20211221145017    4P0P  00000750000000562500000847732DG    BFSAIBF 006400630015
BI00B32DG    RP2021A        202201137126-8854-02             TERMINAL                 CCN000007500000007500FN00000000020220201000007500NNE   20211221145017    4P0P  00000750000000604500000889732DG    BFSAIBF 006400630015
BI00B32DG    RP2021A        202201137126-8855-02             TERMINAL                 CCN000012000000012000FN00000000020220201000012000NNE   20211221145017    4P0P  00000600000000510600000795832DG    BFSAIBF 006400630015
BI00B32D1    DFTC2211       202202247288-6547                CONNECTOR MALE ASS'Y     CCN000006750000006750FN00000000020220301000006750NNMD0420211221122317    4N0N  00000075000001205300001340332D1    TOYOT-K 005400370024
BI00B32D1    DFTC2211       202202247289-3342                HOUSING FEMALE ASS'Y     CCN000009600000009600FN00000000020220301000009600NNMD0420211221122317    1N0N  00000240000000686400000901432D1    TOYOT-K 005500360039
BI00B32D1    DFTC2211       202204217289-3342-30             HOUSING FEMALE ASS'Y     CCN000067200000067200FN00000000020220301000067200NNMD0420211221122317    1N0N  00000240000000686400000901432D1    TOYOT-K 005500360039
BI00B32D1    DFTC2211       202202247289-3342-40             HOUSING FEMALE ASS'Y     CCN000004800000004800FN00000000020220301000004800NNMD0420211221122317    1N0N  00000240000000686400000901432D1    TOYOT-K 005500360039
BI00B32D1    DFTC2211       202203037289-3342-90             HOUSING FEMALE ASS'Y     CCN000002400000002400FN00000000020220301000002400NNMD0420211221122317    1N0N  00000240000000686400000901432D1    TOYOT-K 005500360039
BI00B32D2    DGTC2211       202201277289-6547                HOUSING FEMALE ASS'Y     CCN000009600000009600FN00000000020220301000009600NNMD0420211221170238    1N0N  00000240000001152000001362032D2    TGYOT-G 005500360039
BI00B32D9    I21003         202202037017-1180-02             TERMINAL                 CCN000078000000144000FN00000000020220301000144000NNM   20211221122317    4P0P  00007200000001065600001229032D9    UEHESTO 005100280028
BI00B32D9    I21103         202202107017-1180-02             TERMINAL                 CCN000078000000144000FN00000000020220301000144000NNM   20211221122317    4P0P  00007200000001065600001229032D9    UEHESTO 005100280028
BI00B32D9    I21003         202202037114-4624-02             TERMINAL                 CCN000024000000024000FN00000000020220301000024000NNM   20211221122317    4P0P  00002400000000895200001188832D9    UEHESTO 006400630015
BI00B32D9    I21203         202202177114-4624-02             TERMINAL                 CCN000024000000024000FN00000000020220301000024000NNM   20211221122317    4P0P  00002400000000895200001188832D9    UEHESTO 006400630015
BI00B32D9    I21003         202202037114-6041                TERMINAL                 CCN000007200000007200FN00000000020220301000007200NNM   20211221122317    4P0P  00000360000000580700000824232D9    UEHESTO 006400630015
BI00B32D9    I21103         202202107114-6041                TERMINAL                 CCN000003600000003600FN00000000020220301000003600NNM   20211221122317    4P0P  00000360000000580700000824232D9    UEHESTO 006400630015
BI00B32D9    I21203         202202177114-6041                TERMINAL                 CCN000003600000003600FN00000000020220301000003600NNM   20211221122317    4P0P  00000360000000580700000824232D9    UEHESTO 006400630015
BI00B32D9    I21304         202202247114-6041                TERMINAL                 CCN000003600000003600FN00000000020220301000003600NNM   20211221122317    4P0P  00000360000000580700000824232D9    UEHESTO 006400630015
BI00B32D9    I21003         202202037116-1180                TERMINAL                 CCN000019500000019500FN00000000020220301000019500NNM   20211221122317    1P0P  00001950000000618200000903432D9    UEHESTO 006400630015
BI00B32D9    I21304         202202247116-4037                TERMINAL                 CCN000006600000012000FN00000000020220301000012000NNM   20211221122317    4P0P  00000600000000600000000894232D9    UEHESTO 006400630015
BI00B32D9    I21003         202202037116-4102-02             TERMINAL                 CCN000012000000012000FN00000000020220301000012000NNM   20211221122317    4P0P  00001200000000553200000841432D9    UEHESTO 006400630015
BI00B32D9    I21103         202202107116-4102-02             TERMINAL                 CCN000012000000012000FN00000000020220301000012000NNM   20211221122317    4P0P  00001200000000553200000841432D9    UEHESTO 006400630015
BI00B32D9    I21203         202202177116-4102-02             TERMINAL                 CCN000012000000012000FN00000000020220301000012000NNM   20211221122317    4P0P  00001200000000553200000841432D9    UEHESTO 006400630015
BI00B32D9    I21304         202202247116-4102-02             TERMINAL                 CCN000012000000012000FN00000000020220301000012000NNM   20211221122317    4P0P  00001200000000553200000841432D9    UEHESTO 006400630015
BI00B32D9    I21203         202202177116-5045-02             TERMINAL                 CCN000048000000048000FN00000000020220301000048000NNM   20211221122317    4P0P  00001600000000678400001007132D9    UEHESTO 006400630017
BI00B32D9    I21003         202202037116-5046-02             TERMINAL                 CCN000036000000036000FN00000000020220301000036000NNM   20211221122317    4P0P  00001200000000544800000873532D9    UEHESTO 006400630017
BI00B32D9    I21103         202202107116-5046-02             TERMINAL                 CCN000036000000036000FN00000000020220301000036000NNM   20211221122317    4P0P  00001200000000544800000873532D9    UEHESTO 006400630017
BI00B32D9    I21203         202202177116-5046-02             TERMINAL                 CCN000036000000036000FN00000000020220301000036000NNM   20211221122317    4P0P  00001200000000544800000873532D9    UEHESTO 006400630017
BI00B32D9    I21304         202202247116-5046-02             TERMINAL                 CCN000036000000036000FN00000000020220301000036000NNM   20211221122317    4P0P  00001200000000544800000873532D9    UEHESTO 006400630017
BI00B32D9    I21003         202202037116-6041                TERMINAL                 CCN000018000000018000FN00000000020220301000018000NNM   20211221122317    4P0P  00000450000000716000001009632D9    UEHESTO 006400630015
BI00B32D9    I21103         202202107116-6041                TERMINAL                 CCN000018000000018000FN00000000020220301000018000NNM   20211221122317    4P0P  00000450000000716000001009632D9    UEHESTO 006400630015
BI00B32D9    I21203         202202177116-6041                TERMINAL                 CCN000018000000018000FN00000000020220301000018000NNM   20211221122317    4P0P  00000450000000716000001009632D9    UEHESTO 006400630015
BI00B32D9    I21304         202202247116-6041                TERMINAL                 CCN000018000000018000FN00000000020220301000018000NNM   20211221122317    4P0P  00000450000000716000001009632D9    UEHESTO 006400630015
BI00B32D9    I21003         202202037116-6042                TERMINAL                 CCN000006000000006000FN00000000020220301000006000NNM   20211221122317    4P0P  00000300000000523800000856132D9    UEHESTO 006400630015
BI00B32D9    I21103         202202107116-6042                TERMINAL                 CCN000003000000003000FN00000000020220301000003000NNM   20211221122317    4P0P  00000300000000523800000856132D9    UEHESTO 006400630015
BI00B32D9    I21203         202202177116-6042                TERMINAL                 CCN000006000000006000FN00000000020220301000006000NNM   20211221122317    4P0P  00000300000000523800000856132D9    UEHESTO 006400630015
BI00B32D9    I21304         202202247116-6042                TERMINAL                 CCN000006000000006000FN00000000020220301000006000NNM   20211221122317    4P0P  00000300000000523800000856132D9    UEHESTO 006400630015
BI00B32D9    I21103         202202107140-1977-30             UPPER COVER              CCN000000300000000300FN00000000020220301000000300NNM   20211221122317    1F0F  00000001000000099500000249532D9    UEHESTO 005600390040
BI00B32D9    I21304         202202247140-1977-30             UPPER COVER              CCN000000300000000300FN00000000020220301000000300NNM   20211221122317    1F0F  00000001000000099500000249532D9    UEHESTO 005600390040
BI00B32D9    I21003         202202037158-3006-90             RUBBER STOPPER           CCN000200000000200000FN00000000020220301000200000NNM   20211221122317    1C0C  00002000000000330600000386032D9    UEHESTO 002700430014
BI00B32D9    I21103         202202107158-3006-90             RUBBER STOPPER           CCN000200000000200000FN00000000020220301000200000NNM   20211221122317    1C0C  00002000000000330600000386032D9    UEHESTO 002700430014
BI00B32D9    I21203         202202177158-3006-90             RUBBER STOPPER           CCN000200000000200000FN00000000020220301000200000NNM   20211221122317    1C0C  00002000000000330600000386032D9    UEHESTO 002700430014
BI00B32D9    I21304         202202247158-3006-90             RUBBER STOPPER           CCN000200000000200000FN00000000020220301000200000NNM   20211221122317    1C0C  00002000000000330600000386032D9    UEHESTO 002700430014
BI00B32D9    I21304         202202247158-3022-80             RUBBER STOPPER           CCN000005000000005000FN00000000020220301000005000NNM   20211221122317    1C0C  00000500000000467500000524032D9    UEHESTO 002700430014
BI00B32D9    I21003         202202037158-3070-80             RUBBER STOPPER           CCN000040000000040000FN00000000020220301000040000NNM   20211221122317    1C0C  00004000000000276000000333332D9    UEHESTO 002700430014
BI00B32D9    I21103         202202107158-3070-80             RUBBER STOPPER           CCN000040000000040000FN00000000020220301000040000NNM   20211221122317    1C0C  00004000000000276000000333332D9    UEHESTO 002700430014
BI00B32D9    I21203         202202177158-3070-80             RUBBER STOPPER           CCN000040000000040000FN00000000020220301000040000NNM   20211221122317    1C0C  00004000000000276000000333332D9    UEHESTO 002700430014
BI00B32D9    I21304         202202247158-3167-80             WIRE SEAL                CCN000020000000020000FN00000000020220301000020000NNM   20211221122317    1C0C  00002000000000048000000109032D9    UEHESTO 002700430014
BI00B32D9    I21103         202202107183-2417                CONNECTOR HOUSING        CCN000002400000002400FN00000000020220301000002400NNM   20211221122317    4F0F  00000240000001137400001297732D9    UEHESTO 005500360039
BI00B32D9    I21203         202202177183-2417                CONNECTOR HOUSING        CCN000002400000002400FN00000000020220301000002400NNM   20211221122317    4F0F  00000240000001137400001297732D9    UEHESTO 005500360039
BI00B32D9    I21304         202202247183-2417                CONNECTOR HOUSING        CCN000002400000002400FN00000000020220301000002400NNM   20211221122317    4F0F  00000240000001137400001297732D9    UEHESTO 005500360039
BI00B32D9    I21304         202202247196-0396-02             TERMINAL                 CCN000015000000015000FN00000000020220301000015000NNM   20211221122317    4P0P  00001500000000949500001112932D9    UEHESTO 002800510028
BI00B32D9    I21103         202202107196-0510-02             TERMINAL                 CCN000024000000024000FN00000000020220301000024000NNM   20211221122317    4P0P  00002400000000871200001034632D9    UEHESTO 002800510028
BI00B32D9    I21203         202202177196-0510-02             TERMINAL                 CCN000072000000072000FN00000000020220301000072000NNM   20211221122317    4P0P  00002400000000871200001034632D9    UEHESTO 002800510028
BI00B32D9    I21304         202202247196-0510-02             TERMINAL                 CCN000024000000024000FN00000000020220301000024000NNM   20211221122317    4P0P  00002400000000871200001034632D9    UEHESTO 002800510028
BI00B32D9    I21003         202202037196-0511-02             TERMINAL                 CCN000024000000024000FN00000000020220301000024000NNM   20211221122317    4P0P  00002400000000916800001080232D9    UEHESTO 002800510028
BI00B32D9    I21003         202202037196-1102-02             TERMINAL                 CCN000021000000022500FN00000000020220301000022500NNM   20211221122317    4P0P  00002250000000405000000690232D9    UEHESTO 006400630015
BI00B32D9    I21003         202202037196-1103-02             TERMINAL                 CCN000021000000022500FN00000000020220301000022500NNM   20211221122317    4P0P  00002250000000429800000715032D9    UEHESTO 006400630015
BI00B32D9    I21103         202202107196-1103-02             TERMINAL                 CCN000021000000022500FN00000000020220301000022500NNM   20211221122317    4P0P  00002250000000429800000715032D9    UEHESTO 006400630015
BI00B32D9    I21203         202202177196-1103-02             TERMINAL                 CCN000021000000022500FN00000000020220301000022500NNM   20211221122317    4P0P  00002250000000429800000715032D9    UEHESTO 006400630015
BI00B32D9    I21003         202202037196-1104-02             TERMINAL                 CCN000021000000022500FN00000000020220301000022500NNM   20211221122317    4P0P  00002250000000441000000726232D9    UEHESTO 006400630015
BI00B32D9    I21103         202202107196-1104-02             TERMINAL                 CCN000021000000022500FN00000000020220301000022500NNM   20211221122317    4P0P  00002250000000441000000726232D9    UEHESTO 006400630015
BI00B32D9    I21003         202202037196-1325-02             TERMINAL FEMALE          CCN000060000000060000FN00000000020220301000060000NNM   20211221122317    4P0P  00006000000000450000000778732D9    UEHESTO 006400630017
BI00B32D9    I21103         202202107196-1325-02             TERMINAL FEMALE          CCN000060000000060000FN00000000020220301000060000NNM   20211221122317    4P0P  00006000000000450000000778732D9    UEHESTO 006400630017
BI00B32D9    I21203         202202177196-1325-02             TERMINAL FEMALE          CCN000060000000060000FN00000000020220301000060000NNM   20211221122317    4P0P  00006000000000450000000778732D9    UEHESTO 006400630017
BI00B32D9    I21003         202202037196-1326-02             TERMINAL FEMALE          CCN000060000000060000FN00000000020220301000060000NNM   20211221122317    4P0P  00006000000000456000000784732D9    UEHESTO 006400630017
BI00B32D9    I21103         202202107196-1326-02             TERMINAL FEMALE          CCN000060000000060000FN00000000020220301000060000NNM   20211221122317    4P0P  00006000000000456000000784732D9    UEHESTO 006400630017
BI00B32D9    I21203         202202177196-1326-02             TERMINAL FEMALE          CCN000060000000060000FN00000000020220301000060000NNM   20211221122317    4P0P  00006000000000456000000784732D9    UEHESTO 006400630017
BI00B32D9    I21304         202202247196-1326-02             TERMINAL FEMALE          CCN000060000000060000FN00000000020220301000060000NNM   20211221122317    4P0P  00006000000000456000000784732D9    UEHESTO 006400630017
BI00B32D9    I21203         202202177235-8662                DOOR GROMMET             CCN000000160000000160FN00000000020220301000000160NNM   20211221122317    4N0N  00000016000000844000001010032D9    UEHESTO 005500360039
BI00B32D9    I21304         202202247235-8662                DOOR GROMMET             CCN000000160000000160FN00000000020220301000000160NNM   20211221122317    4N0N  00000016000000844000001010032D9    UEHESTO 005500360039
BI00B32D9    I21003         202202037283-1156                CONNECTOR                CCN000003200000003200FN00000000020220301000003200NNM   20211221122317    4N0N  00000080000000877600001078032D9    UEHESTO 005600390040
BI00B32D9    I21103         202202107283-1156                CONNECTOR                CCN000001600000001600FN00000000020220301000001600NNM   20211221122317    4N0N  00000080000000877600001078032D9    UEHESTO 005600390040
BI00B32D9    I21203         202202177283-1156                CONNECTOR                CCN000003200000003200FN00000000020220301000003200NNM   20211221122317    4N0N  00000080000000877600001078032D9    UEHESTO 005600390040
BI00B32D9    I21304         202202247283-1156                CONNECTOR                CCN000001600000001600FN00000000020220301000001600NNM   20211221122317    4N0N  00000080000000877600001078032D9    UEHESTO 005600390040
BI00B32D9    I21003         202202037283-1288-40             CONNECTOR HOUSING        CCN000001200000001200FN00000000020220301000001200NNM   20211221122317    4N0N  00000120000001382000001640732D9    UEHESTO 005600390040
BI00B32D9    I21203         202202177283-1288-40             CONNECTOR HOUSING        CCN000001200000001200FN00000000020220301000001200NNM   20211221122317    4N0N  00000120000001382000001640732D9    UEHESTO 005600390040
BI00B32D9    I21304         202202247283-1288-40             CONNECTOR HOUSING        CCN000001200000001200FN00000000020220301000001200NNM   20211221122317    4N0N  00000120000001382000001640732D9    UEHESTO 005600390040
BI00B32D9    I21304         202202247283-1928-80             CONNECTOR                CCN000002000000002000FN00000000020220301000002000NNM   20211221122317    4N0N  00000200000001180000001358332D9    UEHESTO 005500360039
BI00B32D9    I21203         202202177283-5830                CONNECTOR                CCN000006000000006000FN00000000020220301000006000NNM   20211221122317    1N47  00000600000000954000001104032D9    UEHESTO 005500360039
BI00B32D9    I21003         202202037283-5830-30             CONNECTOR                CCN000006000000006000FN00000000020220301000006000NNM   20211221122317    1N0N  00000600000000954000001104032D9    UEHESTO 005500360039
BI00B32D9    I21203         202202177283-5830-30             CONNECTOR                CCN000006000000006000FN00000000020220301000006000NNM   20211221122317    1N0N  00000600000000954000001104032D9    UEHESTO 005500360039
BI00B32D9    I21304         202202247283-5830-30             CONNECTOR                CCN000006000000006000FN00000000020220301000006000NNM   20211221122317    1N0N  00000600000000954000001104032D9    UEHESTO 005500360039
BI00B32D9    I21003         202202037283-5845-40             CONNECTOR HOUSING        CCN000006000000006000FN00000000020220301000006000NNM   20211221122317    1N0N  00000600000000444000000606332D9    UEHESTO 005400370024
BI00B32D9    I21003         202202037284-2665-3W             PROTECTOR                CCN000000100000000100FN00000000020220301000000100NNM   20211221122317    4N0N  00000010000000580000000754732D9    UEHESTO 005600390040
BI00B32D9    I21103         202202107284-2665-3W             PROTECTOR                CCN000000100000000100FN00000000020220301000000100NNM   20211221122317    4N0N  00000010000000580000000754732D9    UEHESTO 005600390040
BI00B32D9    I21203         202202177284-2665-3W             PROTECTOR                CCN000000100000000100FN00000000020220301000000100NNM   20211221122317    4N0N  00000010000000580000000754732D9    UEHESTO 005600390040
BI00B32D9    I21304         202202247284-2665-3W             PROTECTOR                CCN000000100000000100FN00000000020220301000000100NNM   20211221122317    4N0N  00000010000000580000000754732D9    UEHESTO 005600390040
BI00B32D9    I21003         202202037286-3970                CONNECTOR HOUSING        CCN000000330000000330FN00000000020220301000000330NNM   20211221122317    1N0N  00000011000000977300001164032D9    UEHESTO 005500360039
BI00B32D9    I21103         202202107286-3970                CONNECTOR HOUSING        CCN000000220000000220FN00000000020220301000000220NNM   20211221122317    1N0N  00000011000000977300001164032D9    UEHESTO 005500360039
BI00B32D9    I21203         202202177286-3970                CONNECTOR HOUSING        CCN000000110000000110FN00000000020220301000000110NNM   20211221122317    1N0N  00000011000000977300001164032D9    UEHESTO 005500360039
BI00B32D9    I21304         202202247286-3970                CONNECTOR HOUSING        CCN000000220000000220FN00000000020220301000000220NNM   20211221122317    1N0N  00000011000000977300001164032D9    UEHESTO 005500360039
BI00B32D9    I21003         202202037287-1915-90             CONNECTOR ASS'Y          CCN000002400000002400FN00000000020220301000002400NNM   20211221122317    4N0N  00000240000000666500000923132D9    UEHESTO 005500360039
BI00B32D9    I21003         202202037287-9323                UNSEALED HOUSING SUB     CCN000002400000002400FN00000000020220301000002400NNM   20211221122317    1N0N  00000240000000537600000690032D9    UEHESTO 005600390023
BI00B32D9    I21103         202202107287-9323                UNSEALED HOUSING SUB     CCN000002400000002400FN00000000020220301000002400NNM   20211221122317    1N0N  00000240000000537600000690032D9    UEHESTO 005600390023
BI00B32D9    I21203         202202177287-9323                UNSEALED HOUSING SUB     CCN000002400000002400FN00000000020220301000002400NNM   20211221122317    1N0N  00000240000000537600000690032D9    UEHESTO 005600390023
BI00B32D9    I21003         202202037288-3206                HOUSING MALE ASS'Y       CCN000007140000007140FN00000000020220301000007140NNM   20211221122317    1N0N  00000102000000387600000787632D9    UEHESTO 005500360039
BI00B32D9    I21103         202202107288-3206                HOUSING MALE ASS'Y       CCN000005100000005100FN00000000020220301000005100NNM   20211221122317    1N0N  00000102000000387600000787632D9    UEHESTO 005500360039
BI00B32D9    I21203         202202177288-3206                HOUSING MALE ASS'Y       CCN000006120000006120FN00000000020220301000006120NNM   20211221122317    1N0N  00000102000000387600000787632D9    UEHESTO 005500360039
BI00B32D9    I21304         202202247288-3206                HOUSING MALE ASS'Y       CCN000005100000005100FN00000000020220301000005100NNM   20211221122317    1N0N  00000102000000387600000787632D9    UEHESTO 005500360039
BI00B32D9    I21003         202202037288-6547                CONNECTOR MALE ASS'Y     CCN000000750000000750FN00000000020220301000000750NNM   20211221122317    4N0N  00000075000001205300001340332D9    UEHESTO 005400370024
BI00B32D9    I21203         202202177288-6547                CONNECTOR MALE ASS'Y     CCN000000750000000750FN00000000020220301000000750NNM   20211221122317    4N0N  00000075000001205300001340332D9    UEHESTO 005400370024
BI00B32D9    I21003         202202037289-3342                HOUSING FEMALE ASS'Y     CCN000012000000012000FN00000000020220301000012000NNM   20211221122317    1N0N  00000240000000686400000901432D9    UEHESTO 005500360039
BI00B32D9    I21103         202202107289-3342                HOUSING FEMALE ASS'Y     CCN000016800000016800FN00000000020220301000016800NNM   20211221122317    1N0N  00000240000000686400000901432D9    UEHESTO 005500360039
BI00B32D9    I21203         202202177289-3342                HOUSING FEMALE ASS'Y     CCN000021600000021600FN00000000020220301000021600NNM   20211221122317    1N0N  00000240000000686400000901432D9    UEHESTO 005500360039
BI00B32D9    I21304         202202247289-3342                HOUSING FEMALE ASS'Y     CCN000016800000016800FN00000000020220301000016800NNM   20211221122317    1N0N  00000240000000686400000901432D9    UEHESTO 005500360039
BI00B32D9    I21003         202202037289-3342-30             HOUSING FEMALE ASS'Y     CCN000021600000021600FN00000000020220301000021600NNM   20211221122317    1N0N  00000240000000686400000901432D9    UEHESTO 005500360039
BI00B32D9    I21103         202202107289-3342-30             HOUSING FEMALE ASS'Y     CCN000036000000036000FN00000000020220301000036000NNM   20211221122317    1N0N  00000240000000686400000901432D9    UEHESTO 005500360039
BI00B32D9    I21203         202202177289-3342-30             HOUSING FEMALE ASS'Y     CCN000028800000028800FN00000000020220301000028800NNM   20211221122317    1N0N  00000240000000686400000901432D9    UEHESTO 005500360039
BI00B32D9    I21304         202202247289-3342-30             HOUSING FEMALE ASS'Y     CCN000036000000036000FN00000000020220301000036000NNM   20211221122317    1N0N  00000240000000686400000901432D9    UEHESTO 005500360039
BI00B32D9    I21003         202202037289-3342-90             HOUSING FEMALE ASS'Y     CCN000014400000014400FN00000000020220301000014400NNM   20211221122317    1N0N  00000240000000686400000901432D9    UEHESTO 005500360039
BI00B32D9    I21103         202202107289-3342-90             HOUSING FEMALE ASS'Y     CCN000019200000019200FN00000000020220301000019200NNM   20211221122317    1N0N  00000240000000686400000901432D9    UEHESTO 005500360039
BI00B32D9    I21203         202202177289-3342-90             HOUSING FEMALE ASS'Y     CCN000004800000004800FN00000000020220301000004800NNM   20211221122317    1N0N  00000240000000686400000901432D9    UEHESTO 005500360039
BI00B32D9    I21304         202202247289-3342-90             HOUSING FEMALE ASS'Y     CCN000007200000007200FN00000000020220301000007200NNM   20211221122317    1N0N  00000240000000686400000901432D9    UEHESTO 005500360039
BI00B32D9    I21203         202202177289-6547                HOUSING FEMALE ASS'Y     CCN000002400000002400FN00000000020220301000002400NNM   20211221122317    1N0N  00000240000001152000001362032D9    UEHESTO 005500360039
BI00B32D9    I21003         202202037327-6627-3W             BATTERY FUSE             CCN000000080000000096FN00000000020220301000000096NNM   20211221122317    4N0N  00000009600001332300001534632D9    UEHESTO 005500360039
BI00B32D9    I21103         202202107327-6627-3W             BATTERY FUSE             CCN000000040000000096FN00000000020220301000000096NNM   20211221122317    4N0N  00000009600001332300001534632D9    UEHESTO 005500360039
BI00B32D9    I21203         202202177327-6627-3W             BATTERY FUSE             CCN000000080000000096FN00000000020220301000000096NNM   20211221122317    4N0N  00000009600001332300001534632D9    UEHESTO 005500360039
BI00B32D9    I21304         202202247327-6627-3W             BATTERY FUSE             CCN000000040000000096FN00000000020220301000000096NNM   20211221122317    4N0N  00000009600001332300001534632D9    UEHESTO 005500360039
BI00B32D9    I21003         202202037327-6731-3W             BATTERY FUSE             CCN000000576000000576FN00000000020220301000000576NNM   20211221122317    4N0N  00000006400000697600000843032D9    UEHESTO 005400370024
BI00B32D9    I21103         202202107327-6731-3W             BATTERY FUSE             CCN000000576000000576FN00000000020220301000000576NNM   20211221122317    4N0N  00000006400000697600000843032D9    UEHESTO 005400370024
BI00B32D9    I21203         202202177327-6731-3W             BATTERY FUSE             CCN000000576000000576FN00000000020220301000000576NNM   20211221122317    4N0N  00000006400000697600000843032D9    UEHESTO 005400370024
BI00B32D9    I21304         202202247327-6731-3W             BATTERY FUSE             CCN000000576000000576FN00000000020220301000000576NNM   20211221122317    4N0N  00000006400000697600000843032D9    UEHESTO 005400370024
BI00B32D9    I21304         202202247370-0309                J/B ASS'Y                CCN000000480000000480FN00000000020220301000000480NNM   20211221122317    1J0J  00000001600000870400001260032D9    UEHESTO 005500360039
BI00B32D9    I21103         202202107370-0310                J/B ASS'Y                CCN000000300000000300FN00000000020220301000000300NNM   20211221122317    1J0J  00000001000000559000000809032D9    UEHESTO 005500360039
BI00B32D9    I21203         202202177370-0310                J/B ASS'Y                CCN000000300000000300FN00000000020220301000000300NNM   20211221122317    1J0J  00000001000000559000000809032D9    UEHESTO 005500360039
BI00B32D9    I21304         202202247370-0310                J/B ASS'Y                CCN000000300000000300FN00000000020220301000000300NNM   20211221122317    1J0J  00000001000000559000000809032D9    UEHESTO 005500360039
BI00B32D9    I21003         202202037388-0313-30             CONNECTOR ASS'Y          CCN000003600000003600FN00000000020220301000003600NNM   20211221122317    4N0N  00000120000000995000001125032D9    UEHESTO 005400370024
BI00B32D9    I21103         202202107388-0313-30             CONNECTOR ASS'Y          CCN000002400000002400FN00000000020220301000002400NNM   20211221122317    4N0N  00000120000000995000001125032D9    UEHESTO 005400370024
BI00B32D9    I21203         202202177388-0313-30             CONNECTOR ASS'Y          CCN000003600000003600FN00000000020220301000003600NNM   20211221122317    4N0N  00000120000000995000001125032D9    UEHESTO 005400370024
BI00B32D9    I21304         202202247388-0313-30             CONNECTOR ASS'Y          CCN000002400000002400FN00000000020220301000002400NNM   20211221122317    4N0N  00000120000000995000001125032D9    UEHESTO 005400370024
BI00B32D9    I21003         202202037388-2978-30             HOUSING MALE ASS'Y       CCN000001440000001440FN00000000020220301000001440NNM   20211221122317    1N0N  00000048000000742000001122032D9    UEHESTO 005500360039
BI00B32D9    I21103         202202107388-2978-30             HOUSING MALE ASS'Y       CCN000000960000000960FN00000000020220301000000960NNM   20211221122317    1N0N  00000048000000742000001122032D9    UEHESTO 005500360039
BI00B32D9    I21203         202202177388-2978-30             HOUSING MALE ASS'Y       CCN000001440000001440FN00000000020220301000001440NNM   20211221122317    1N0N  00000048000000742000001122032D9    UEHESTO 005500360039
BI00B32D9    I21304         202202247388-2978-30             HOUSING MALE ASS'Y       CCN000000960000000960FN00000000020220301000000960NNM   20211221122317    1N0N  00000048000000742000001122032D9    UEHESTO 005500360039
BI00B32D9    #I21103        202202107140-1978-30             LOWER COVER              CCN000000240000000240FN00000000020220301000000240NNM   20211221122317    2F0F  00000000800000207100000395132D9    UEHESTO 005500360039
BI00B32D9    #I21304        202202247140-1978-30             LOWER COVER              CCN000000240000000240FN00000000020220301000000240NNM   20211221122317    2F0F  00000000800000207100000395132D9    UEHESTO 005500360039
BI00B32D9    #I21003        202202037154-5597-30             CASSETTE R/B             CCN000008800000008800FN00000000020220301000008800NNM   20211221122317    2F0F  00000080000000736000000952032D9    UEHESTO 005500360039
BI00B32D9    #I21103        202202107154-5597-30             CASSETTE R/B             CCN000005600000005600FN00000000020220301000005600NNM   20211221122317    2F0F  00000080000000736000000952032D9    UEHESTO 005500360039
BI00B32D9    #I21203        202202177154-5597-30             CASSETTE R/B             CCN000006400000006400FN00000000020220301000006400NNM   20211221122317    2F0F  00000080000000736000000952032D9    UEHESTO 005500360039
BI00B32D9    #I21304        202202247154-5597-30             CASSETTE R/B             CCN000004800000004800FN00000000020220301000004800NNM   20211221122317    2F0F  00000080000000736000000952032D9    UEHESTO 005500360039
BI00B32D9    #I21003        202202037158-3003-90             RUBBER STOPPER           CCN000040000000040000FN00000000020220301000040000NNM   20211221122317    2C0C  00002000000000250000000306032D9    UEHESTO 002700430014
BI00B32D9    #I21103        202202107158-3003-90             RUBBER STOPPER           CCN000040000000040000FN00000000020220301000040000NNM   20211221122317    2C0C  00002000000000250000000306032D9    UEHESTO 002700430014
BI00B32D9    #I21203        202202177158-3003-90             RUBBER STOPPER           CCN000040000000040000FN00000000020220301000040000NNM   20211221122317    2C0C  00002000000000250000000306032D9    UEHESTO 002700430014
BI00B32D9    #I21304        202202247158-3003-90             RUBBER STOPPER           CCN000040000000040000FN00000000020220301000040000NNM   20211221122317    2C0C  00002000000000250000000306032D9    UEHESTO 002700430014
BI00B32D9    #I21003        202202037158-3004-40             RUBBER STOPPER           CCN000040000000040000FN00000000020220301000040000NNM   20211221122317    2C0C  00002000000000234000000306332D9    UEHESTO 002700430014
BI00B32D9    #I21003        202202037158-3005-80             RUBBER STOPPER           CCN000040000000040000FN00000000020220301000040000NNM   20211221122317    2H0H  00002000000000210000000268732D9    UEHESTO 002700430014
BI00B32D9    #I21003        202202037158-3007-10             RUBBER STOPPER           CCN000020000000020000FN00000000020220301000020000NNM   20211221122317    2H0H  00002000000000308000000362732D9    UEHESTO 002700430014
BI00B32D9    #I21103        202202107158-3007-10             RUBBER STOPPER           CCN000020000000020000FN00000000020220301000020000NNM   20211221122317    2H0H  00002000000000308000000362732D9    UEHESTO 002700430014
BI00B32D9    #I21203        202202177158-3007-10             RUBBER STOPPER           CCN000040000000040000FN00000000020220301000040000NNM   20211221122317    2H0H  00002000000000308000000362732D9    UEHESTO 002700430014
BI00B32D9    #I21304        202202247158-3007-10             RUBBER STOPPER           CCN000040000000040000FN00000000020220301000040000NNM   20211221122317    2H0H  00002000000000308000000362732D9    UEHESTO 002700430014
BI00B32D9    #I21003        202202037158-3008-80             RUBBER STOPPER           CCN000020000000020000FN00000000020220301000020000NNM   20211221122317    2C0C  00002000000000288000000343032D9    UEHESTO 004300270014
BI00B32D9    #I21103        202202107158-3008-80             RUBBER STOPPER           CCN000040000000040000FN00000000020220301000040000NNM   20211221122317    2C0C  00002000000000288000000343032D9    UEHESTO 004300270014
BI00B32D9    #I21203        202202177158-3008-80             RUBBER STOPPER           CCN000060000000060000FN00000000020220301000060000NNM   20211221122317    2C0C  00002000000000288000000343032D9    UEHESTO 004300270014
BI00B32D9    #I21304        202202247158-3008-80             RUBBER STOPPER           CCN000060000000060000FN00000000020220301000060000NNM   20211221122317    2C0C  00002000000000288000000343032D9    UEHESTO 004300270014
BI00B32D9    #I21003        202202037158-3015-10             RUBBER STOPPER           CCN000010000000010000FN00000000020220301000010000NNM   20211221122317    2C0C  00001000000000419500000474032D9    UEHESTO 002700430014
BI00B32D9    #I21304        202202247158-3017                RUBBER STOPPER           CCN000010000000010000FN00000000020220301000010000NNM   20211221122317    2C0C  00001000000000375500000435032D9    UEHESTO 002700430014
BI00B32D9    #I21304        202202247158-7586-30             BLOCK LIF                CCN000000800000000800FN00000000020220301000000800NNM   20211221122317    2F0F  00000080000000617400000844232D9    UEHESTO 005500360039
BI00B32D9    #I21003        202202037171-6291                HOUSING MALE             CCN000000768000000768FN00000000020220301000000768NNM   20211221122317    2F0F  00000019200001339100001489132D9    UEHESTO 005500360039
BI00B32D9    #I21103        202202107171-6291                HOUSING MALE             CCN000000576000000576FN00000000020220301000000576NNM   20211221122317    2F0F  00000019200001339100001489132D9    UEHESTO 005500360039
BI00B32D9    #I21203        202202177171-6291                HOUSING MALE             CCN000000768000000768FN00000000020220301000000768NNM   20211221122317    2F0F  00000019200001339100001489132D9    UEHESTO 005500360039
BI00B32D9    #I21304        202202247171-6291                HOUSING MALE             CCN000000576000000576FN00000000020220301000000576NNM   20211221122317    2F0F  00000019200001339100001489132D9    UEHESTO 005500360039
BI00B32D9    #I21003        202202037171-6292                HOUSING                  CCN000000720000000720FN00000000020220301000000720NNM   20211221122317    2F0F  00000018000000762100000980332D9    UEHESTO 005400370024
BI00B32D9    #I21103        202202107171-6292                HOUSING                  CCN000000720000000720FN00000000020220301000000720NNM   20211221122317    2F0F  00000018000000762100000980332D9    UEHESTO 005400370024
BI00B32D9    #I21203        202202177171-6292                HOUSING                  CCN000000720000000720FN00000000020220301000000720NNM   20211221122317    2F0F  00000018000000762100000980332D9    UEHESTO 005400370024
BI00B32D9    #I21304        202202247171-6292                HOUSING                  CCN000000720000000720FN00000000020220301000000720NNM   20211221122317    2F0F  00000018000000762100000980332D9    UEHESTO 005400370024
BI00B32D9    #I21003        202202037172-5629-80             RUBBER STOPPER           CCN000020000000020000FN00000000020220301000020000NNM   20211221122317    2H0H  00002000000000060000000111132D9    UEHESTO 004300270014
BI00B32D9    #I21203        202202177172-5629-80             RUBBER STOPPER           CCN000020000000020000FN00000000020220301000020000NNM   20211221122317    2H0H  00002000000000060000000111132D9    UEHESTO 004300270014
BI00B32D9    #I21003        202202037172-5630-40             RUBBER STOPPER           CCN000020000000020000FN00000000020220301000020000NNM   20211221122317    2H0H  00002000000000044000000095132D9    UEHESTO 004300270014
BI00B32D9    #I21203        202202177172-5630-40             RUBBER STOPPER           CCN000020000000020000FN00000000020220301000020000NNM   20211221122317    2H0H  00002000000000044000000095132D9    UEHESTO 004300270014
BI00B32D9    #I21003        202202037172-5631-60             RUBBER STOPPER           CCN000020000000020000FN00000000020220301000020000NNM   20211221122317    2H0H  00002000000000042000000093132D9    UEHESTO 004300270014
BI00B32D9    #I21203        202202177172-5631-60             RUBBER STOPPER           CCN000020000000020000FN00000000020220301000020000NNM   20211221122317    2H0H  00002000000000042000000093132D9    UEHESTO 004300270014
BI00B32D9    #I21003        202202037172-5632-10             DUMMY PLUG               CCN000020000000020000FN00000000020220301000020000NNM   20211221122317    2H0H  00002000000000080400000131832D9    UEHESTO 004300270014
BI00B32D9    #I21003        202202037173-1070                CONNECTOR BRACKET        CCN000001200000001200FN00000000020220301000001200NNM   20211221122317    2F0F  00000120000000592400000968332D9    UEHESTO 005500360039
BI00B32D9    #I21203        202202177173-1070                CONNECTOR BRACKET        CCN000001200000001200FN00000000020220301000001200NNM   20211221122317    2F0F  00000120000000592400000968332D9    UEHESTO 005500360039
BI00B32D9    #I21003        202202037173-1071                BRACKET                  CCN000001200000001200FN00000000020220301000001200NNM   20211221122317    2F0F  00000120000001156800001388232D9    UEHESTO 005600390040
BI00B32D9    #I21103        202202107173-1071                BRACKET                  CCN000001200000001200FN00000000020220301000001200NNM   20211221122317    2F0F  00000120000001156800001388232D9    UEHESTO 005600390040
BI00B32D9    #I21203        202202177173-1071                BRACKET                  CCN000001200000001200FN00000000020220301000001200NNM   20211221122317    2F0F  00000120000001156800001388232D9    UEHESTO 005600390040
BI00B32D9    #I21304        202202247173-1071                BRACKET                  CCN000001200000001200FN00000000020220301000001200NNM   20211221122317    2F0F  00000120000001156800001388232D9    UEHESTO 005600390040
BI00B32D9    #I21003        202202037173-1516                SIDE BRACKET             CCN000000600000000600FN00000000020220301000000600NNM   20211221122317    2F0F  00000060000000960000001090032D9    UEHESTO 005500360039
BI00B32D9    #I21304        202202247173-1516                SIDE BRACKET             CCN000000600000000600FN00000000020220301000000600NNM   20211221122317    2F0F  00000060000000960000001090032D9    UEHESTO 005500360039
BI00B32D9    #I21003        202202037173-4057                LIF LEVER                CCN000000720000000720FN00000000020220301000000720NNM   20211221122317    2F0F  00000036000000689600000839632D9    UEHESTO 005400370024
BI00B32D9    #I21103        202202107173-4057                LIF LEVER                CCN000000720000000720FN00000000020220301000000720NNM   20211221122317    2F0F  00000036000000689600000839632D9    UEHESTO 005400370024
BI00B32D9    #I21203        202202177173-4057                LIF LEVER                CCN000000720000000720FN00000000020220301000000720NNM   20211221122317    2F0F  00000036000000689600000839632D9    UEHESTO 005400370024
BI00B32D9    #I21304        202202247173-4057                LIF LEVER                CCN000000720000000720FN00000000020220301000000720NNM   20211221122317    2F0F  00000036000000689600000839632D9    UEHESTO 005400370024
BI00B32D9    #I21103        202202107174-0152                CONNECTOR                CCN000000350000000350FN00000000020220301000000350NNM   20211221122317    2F0F  00000035000000746400000918632D9    UEHESTO 005500360039
BI00B32D9    #I21304        202202247174-0152                CONNECTOR                CCN000000350000000350FN00000000020220301000000350NNM   20211221122317    2F0F  00000035000000746400000918632D9    UEHESTO 005500360039
BI00B32D9    #I21003        202202037174-1749                COVER                    CCN000000588000000588FN00000000020220301000000588NNM   20211221122317    2F0F  00000029400000689600000834632D9    UEHESTO 005500360039
BI00B32D9    #I21103        202202107174-1749                COVER                    CCN000000588000000588FN00000000020220301000000588NNM   20211221122317    2F0F  00000029400000689600000834632D9    UEHESTO 005500360039
BI00B32D9    #I21203        202202177174-1749                COVER                    CCN000000588000000588FN00000000020220301000000588NNM   20211221122317    2F0F  00000029400000689600000834632D9    UEHESTO 005500360039
BI00B32D9    #I21304        202202247174-1749                COVER                    CCN000000588000000588FN00000000020220301000000588NNM   20211221122317    2F0F  00000029400000689600000834632D9    UEHESTO 005500360039
BI00B32D9    #I21003        202202037182-2411-40             CONNECTOR HOUSING        CCN000001200000001200FN00000000020220301000001200NNM   20211221122317    2F0F  00000120000001278800001568632D9    UEHESTO 005500360039
BI00B32D9    #I21003        202202037182-4941                DOUBLE SIDED             CCN000001000000001000FN00000000020220301000001000NNM   20211221122317    2F0F  00000100000001282000001477032D9    UEHESTO 005600390040
BI00B32D9    #I21103        202202107182-4941                DOUBLE SIDED             CCN000002000000002000FN00000000020220301000002000NNM   20211221122317    2F0F  00000100000001282000001477032D9    UEHESTO 005600390040
BI00B32D9    #I21203        202202177182-4941                DOUBLE SIDED             CCN000001000000001000FN00000000020220301000001000NNM   20211221122317    2F0F  00000100000001282000001477032D9    UEHESTO 005600390040
BI00B32D9    #I21304        202202247182-4941                DOUBLE SIDED             CCN000002000000002000FN00000000020220301000002000NNM   20211221122317    2F0F  00000100000001282000001477032D9    UEHESTO 005600390040
BI00B32D9    #I21003        202202037183-1616                CONNECTOR HOUSING        CCN000002400000002400FN00000000020220301000002400NNM   20211221122317    2F0F  00000240000000557500000823332D9    UEHESTO 005500360039
BI00B32D9    #I21103        202202107183-1616                CONNECTOR HOUSING        CCN000002400000002400FN00000000020220301000002400NNM   20211221122317    2F0F  00000240000000557500000823332D9    UEHESTO 005500360039
BI00B32D9    #I21203        202202177183-1616                CONNECTOR HOUSING        CCN000002400000002400FN00000000020220301000002400NNM   20211221122317    2F0F  00000240000000557500000823332D9    UEHESTO 005500360039
BI00B32D9    #I21304        202202247183-1616                CONNECTOR HOUSING        CCN000002400000002400FN00000000020220301000002400NNM   20211221122317    2F0F  00000240000000557500000823332D9    UEHESTO 005500360039
BI00B32D9    #I21003        202202037183-2413                CONNECTOR HOUSING        CCN000009600000009600FN00000000020220301000009600NNM   20211221122317    2F0F  00000480000000478100000760032D9    UEHESTO 005500360039
BI00B32D9    #I21103        202202107183-2413                CONNECTOR HOUSING        CCN000009600000009600FN00000000020220301000009600NNM   20211221122317    2F0F  00000480000000478100000760032D9    UEHESTO 005500360039
BI00B32D9    #I21203        202202177183-2413                CONNECTOR HOUSING        CCN000009600000009600FN00000000020220301000009600NNM   20211221122317    2F0F  00000480000000478100000760032D9    UEHESTO 005500360039
BI00B32D9    #I21304        202202247183-2413                CONNECTOR HOUSING        CCN000004800000004800FN00000000020220301000004800NNM   20211221122317    2F0F  00000480000000478100000760032D9    UEHESTO 005500360039
BI00B32D9    #I21203        202202177183-2414                CONNECTOR HOUSING        CCN000004800000004800FN00000000020220301000004800NNM   20211221122317    2F0F  00000480000000779200001061032D9    UEHESTO 005500360039
BI00B32D9    #I21003        202202037183-2414-30             CONNECTOR HOUSING        CCN000004800000004800FN00000000020220301000004800NNM   20211221122317    2F0F  00000480000000779500001061532D9    UEHESTO 005500360039
BI00B32D9    #I21103        202202107183-2414-30             CONNECTOR HOUSING        CCN000004800000004800FN00000000020220301000004800NNM   20211221122317    2F0F  00000480000000779500001061532D9    UEHESTO 005500360039
BI00B32D9    #I21003        202202037186-3971                CONNECTOR HOUSING        CCN000002400000002400FN00000000020220301000002400NNM   20211221122317    2F0F  00000240000001002200001191432D9    UEHESTO 005500360039
BI00B32D9    #I21304        202202247186-3971                CONNECTOR HOUSING        CCN000002400000002400FN00000000020220301000002400NNM   20211221122317    2F0F  00000240000001002200001191432D9    UEHESTO 005500360039
BI00B32D9    #I21003        202202037186-3976-60             CONNECTOR HOUSING        CCN000002400000002400FN00000000020220301000002400NNM   20211221122317    2F0F  00000240000001065100001236332D9    UEHESTO 005500360039
BI00B32D9    #I21304        202202247186-3977-90             CONNECTOR HOUSING        CCN000002400000002400FN00000000020220301000002400NNM   20211221122317    2F0F  00000240000001068200001239432D9    UEHESTO 005500360039
BI00B32D9    #I21003        202202037187-3356                JOINT CONNECTOR          CCN000002400000002400FN00000000020220301000002400NNM   20211221122317    2F0F  00000120000000759600001024432D9    UEHESTO 005600390040
BI00B32D9    #I21103        202202107187-3356                JOINT CONNECTOR          CCN000001200000001200FN00000000020220301000001200NNM   20211221122317    2F0F  00000120000000759600001024432D9    UEHESTO 005600390040
BI00B32D9    #I21203        202202177187-3356                JOINT CONNECTOR          CCN000002400000002400FN00000000020220301000002400NNM   20211221122317    2F0F  00000120000000759600001024432D9    UEHESTO 005600390040
BI00B32D9    #I21304        202202247187-3356                JOINT CONNECTOR          CCN000001200000001200FN00000000020220301000001200NNM   20211221122317    2F0F  00000120000000759600001024432D9    UEHESTO 005600390040
BI00B32D9    #I21304        202202247187-3358-30             JOINT CONNECTOR          CCN000001200000001200FN00000000020220301000001200NNM   20211221122317    2F0F  00000120000000673200000940432D9    UEHESTO 005600390040
BI00B32D9    #I21003        202202037187-3359-60             JOINT CONNECTOR          CCN000002400000002400FN00000000020220301000002400NNM   20211221122317    2F0F  00000120000000763200001030432D9    UEHESTO 005600390040
BI00B32D9    #I21103        202202107187-3359-60             JOINT CONNECTOR          CCN000001200000001200FN00000000020220301000001200NNM   20211221122317    2F0F  00000120000000763200001030432D9    UEHESTO 005600390040
BI00B32D9    #I21203        202202177187-3359-60             JOINT CONNECTOR          CCN000002400000002400FN00000000020220301000002400NNM   20211221122317    2F0F  00000120000000763200001030432D9    UEHESTO 005600390040
BI00B32D9    #I21304        202202247187-3359-60             JOINT CONNECTOR          CCN000001200000001200FN00000000020220301000001200NNM   20211221122317    2F0F  00000120000000763200001030432D9    UEHESTO 005600390040
BI00B32D9    #I21003        202202037187-3360                JOINT CONNECTOR          CCN000001200000001200FN00000000020220301000001200NNM   20211221122317    2F0F  00000120000000759600001026832D9    UEHESTO 005600390040
BI00B32D9    #I21103        202202107187-3360                JOINT CONNECTOR          CCN000001200000001200FN00000000020220301000001200NNM   20211221122317    2F0F  00000120000000759600001026832D9    UEHESTO 005600390040
BI00B32D9    #I21203        202202177187-3360                JOINT CONNECTOR          CCN000001200000001200FN00000000020220301000001200NNM   20211221122317    2F0F  00000120000000759600001026832D9    UEHESTO 005600390040
BI00B32D9    #I21103        202202107187-3970                CONNECTOR FLAME          CCN000000368000000368FN00000000020220301000000368NNM   20211221122317    2F0F  00000036800001414000001737332D9    UEHESTO 005600390040
BI00B32D9    #I21203        202202177187-3970                CONNECTOR FLAME          CCN000000368000000368FN00000000020220301000000368NNM   20211221122317    2F0F  00000036800001414000001737332D9    UEHESTO 005600390040
BI00B32D9    #I21003        202202037187-3975-80             CONNECTOR HOUSING        CCN000002400000002400FN00000000020220301000002400NNM   20211221122317    2F0F  00000240000000915800001087032D9    UEHESTO 005500360039
BI00B32D9    #I21203        202202177188-3035                HOUSING MALE             CCN000002400000002400FN00000000020220301000002400NNM   20211221122317    2F0F  00000240000000693600000913632D9    UEHESTO 005500360039
BI00B32D9    #I21003        202202037188-9509                HLC HOUSING MALE         CCN000002000000002000FN00000000020220301000002000NNM   20211221122317    2F0F  00000200000000626200000771232D9    UEHESTO 005400370024
BI00B32D9    #I21003        202202037188-9510-30             HLC HOUSING MALE         CCN000002000000002000FN00000000020220301000002000NNM   20211221122317    2F0F  00000200000000631000000776032D9    UEHESTO 005400370024
BI00B32D9    #I21003        202202037188-9511-80             HLC HOUSING MALE         CCN000002000000002000FN00000000020220301000002000NNM   20211221122317    2F0F  00000200000000627200000772232D9    UEHESTO 005400370024
BI00B32D9    #I21003        202202037188-9512-10             HLC HOUSING MALE         CCN000002000000002000FN00000000020220301000002000NNM   20211221122317    2F0F  00000200000000628200000773232D9    UEHESTO 005400370024
BI00B32D9    #I21003        202202037188-9513                HLC HOUSING MALE         CCN000002000000002000FN00000000020220301000002000NNM   20211221122317    2F0F  00000200000000771400000916432D9    UEHESTO 005400370024
BI00B32D9    #I21003        202202037188-9514-90             HLC HOUSING MALE         CCN000002000000002000FN00000000020220301000002000NNM   20211221122317    2F0F  00000200000000778600000923632D9    UEHESTO 005400370024
BI00B32D9    #I21103        202202107189-3032                HOUSING FEMALE           CCN000001600000001600FN00000000020220301000001600NNM   20211221122317    2F0F  00000160000000788400001018432D9    UEHESTO 005500360039
BI00B32D9    #I21203        202202177189-3032                HOUSING FEMALE           CCN000001600000001600FN00000000020220301000001600NNM   20211221122317    2F0F  00000160000000788400001018432D9    UEHESTO 005500360039
BI00B32D9    #I21304        202202247189-3032                HOUSING FEMALE           CCN000001600000001600FN00000000020220301000001600NNM   20211221122317    2F0F  00000160000000788400001018432D9    UEHESTO 005500360039
BI00B32D9    #I21003        202202037189-3032-30             HOUSING FEMALE           CCN000003200000003200FN00000000020220301000003200NNM   20211221122317    2F0F  00000160000000801600001021632D9    UEHESTO 005500360039
BI00B32D9    #I21103        202202107189-3032-30             HOUSING FEMALE           CCN000001600000001600FN00000000020220301000001600NNM   20211221122317    2F0F  00000160000000801600001021632D9    UEHESTO 005500360039
BI00B32D9    #I21203        202202177189-3032-30             HOUSING FEMALE           CCN000003200000003200FN00000000020220301000003200NNM   20211221122317    2F0F  00000160000000801600001021632D9    UEHESTO 005500360039
BI00B32D9    #I21304        202202247189-3032-30             HOUSING FEMALE           CCN000001600000001600FN00000000020220301000001600NNM   20211221122317    2F0F  00000160000000801600001021632D9    UEHESTO 005500360039
BI00B32D9    #I21003        202202037189-3033                HOUSING FEMALE           CCN000001600000001600FN00000000020220301000001600NNM   20211221122317    2F0F  00000160000001211200001431232D9    UEHESTO 005500360039
BI00B32D9    #I21103        202202107189-3033                HOUSING FEMALE           CCN000001600000001600FN00000000020220301000001600NNM   20211221122317    2F0F  00000160000001211200001431232D9    UEHESTO 005500360039
BI00B32D9    #I21203        202202177189-3033                HOUSING FEMALE           CCN000001600000001600FN00000000020220301000001600NNM   20211221122317    2F0F  00000160000001211200001431232D9    UEHESTO 005500360039
BI00B32D9    #I21304        202202247189-3033                HOUSING FEMALE           CCN000001600000001600FN00000000020220301000001600NNM   20211221122317    2F0F  00000160000001211200001431232D9    UEHESTO 005500360039
BI00B32D9    #I21003        202202037189-3034-30             HOUSING FEMALE           CCN000001600000001600FN00000000020220301000001600NNM   20211221122317    2F0F  00000160000000972800001192832D9    UEHESTO 005500360039
BI00B32D9    #I21203        202202177189-3034-30             HOUSING FEMALE           CCN000001600000001600FN00000000020220301000001600NNM   20211221122317    2F0F  00000160000000972800001192832D9    UEHESTO 005500360039
BI00B32D9    #I21103        202202107189-3036                HOUSING FEMALE           CCN000001600000001600FN00000000020220301000001600NNM   20211221122317    2F0F  00000160000000921600001141632D9    UEHESTO 005500360039
BI00B32D9    #I21003        202202037189-9516-40             HOUSING                  CCN000002000000002000FN00000000020220301000002000NNM   20211221122317    2F0F  00000200000000578800000685832D9    UEHESTO 005400370024
BI00B32D9    #I21003        202202037189-9517                HOUSING                  CCN000002000000002000FN00000000020220301000002000NNM   20211221122317    2F0F  00000200000000576600000683632D9    UEHESTO 005400370024
BI00B32D9    #I21003        202202037189-9518-30             HOUSING                  CCN000002000000002000FN00000000020220301000002000NNM   20211221122317    2F0F  00000200000000583600000690632D9    UEHESTO 005400370024
BI00B32D9    #I21003        202202037189-9519-80             HOUSING                  CCN000002000000002000FN00000000020220301000002000NNM   20211221122317    2F0F  00000200000000579400000686432D9    UEHESTO 005400370024
BI00B32D9    #I21003        202202037189-9520-10             HOUSING                  CCN000002000000002000FN00000000020220301000002000NNM   20211221122317    2F0F  00000200000000578400000685432D9    UEHESTO 005400370024
BI00B32D9    #I21003        202202037189-9521                HOUSING                  CCN000002000000002000FN00000000020220301000002000NNM   20211221122317    2F0F  00000200000000754400000861432D9    UEHESTO 005400370024
BI00B32D9    #I21304        202202247189-9521                HOUSING                  CCN000002000000002000FN00000000020220301000002000NNM   20211221122317    2F0F  00000200000000754400000861432D9    UEHESTO 005400370024
BI00B32D9    #I21003        202202037189-9522-90             HOUSING                  CCN000002000000002000FN00000000020220301000002000NNM   20211221122317    2F0F  00000200000000753200000860232D9    UEHESTO 005400370024
BI00B32D9    #I21003        202202037283-1065                CONNECTOR                CCN000002500000002500FN00000000020220301000002500NNM   20211221122317    2N0N  00000250000001152500001310432D9    UEHESTO 005500360039
BI00B32D9    #I21003        202202037283-1485                CONNECTOR                CCN000002000000002000FN00000000020220301000002000NNM   20211221122317    2N0N  00000200000001160000001340732D9    UEHESTO 005500360039
BI00B32D9    #I21103        202202107283-1485                CONNECTOR                CCN000002000000002000FN00000000020220301000002000NNM   20211221122317    2N0N  00000200000001160000001340732D9    UEHESTO 005500360039
BI00B32D9    #I21203        202202177283-1485                CONNECTOR                CCN000002000000002000FN00000000020220301000002000NNM   20211221122317    2N0N  00000200000001160000001340732D9    UEHESTO 005500360039
BI00B32D9    #I21304        202202247283-1485                CONNECTOR                CCN000002000000002000FN00000000020220301000002000NNM   20211221122317    2N0N  00000200000001160000001340732D9    UEHESTO 005500360039
BI00B32D9    #I21103        202202107283-8123                CONNECTOR HOUSING        CCN000004000000004000FN00000000020220301000004000NNM   20211221122317    2N0N  00000400000000380000000531732D9    UEHESTO 005600390023
BI00B32D9    #I21003        202202037283-8226-30             CONNECTOR                CCN000002000000002000FN00000000020220301000002000NNM   20211221122317    2N0N  00000200000000820000001008032D9    UEHESTO 005400370024
BI00B32D9    #I21003        202202037287-7859                HYBRID FEMALE ASS'Y      CCN000002050000002400FN00000000020220301000002400NNM   20211221122317    2N0N  00000120000000461600000671632D9    UEHESTO 005500360039
BI00B32D9    #I21103        202202107287-7859                HYBRID FEMALE ASS'Y      CCN000000800000001200FN00000000020220301000001200NNM   20211221122317    2N0N  00000120000000461600000671632D9    UEHESTO 005500360039
BI00B32D9    #I21203        202202177287-7859                HYBRID FEMALE ASS'Y      CCN000000900000001200FN00000000020220301000001200NNM   20211221122317    2N0N  00000120000000461600000671632D9    UEHESTO 005500360039
BI00B32D9    #I21304        202202247287-7859                HYBRID FEMALE ASS'Y      CCN000000700000001200FN00000000020220301000001200NNM   20211221122317    2N0N  00000120000000461600000671632D9    UEHESTO 005500360039
BI00B32D9    #I21003        202202037287-7860                HYBRID FEMALE ASS'Y      CCN000001100000001200FN00000000020220301000001200NNM   20211221122317    2N0N  00000120000000644000000650432D9    UEHESTO 005500360039
BI00B32D9    #I21103        202202107287-7860                HYBRID FEMALE ASS'Y      CCN000000800000001200FN00000000020220301000001200NNM   20211221122317    2N0N  00000120000000644000000650432D9    UEHESTO 005500360039
BI00B32D9    #I21203        202202177287-7860                HYBRID FEMALE ASS'Y      CCN000000900000001200FN00000000020220301000001200NNM   20211221122317    2N0N  00000120000000644000000650432D9    UEHESTO 005500360039
BI00B32D9    #I21304        202202247287-7860                HYBRID FEMALE ASS'Y      CCN000000700000001200FN00000000020220301000001200NNM   20211221122317    2N0N  00000120000000644000000650432D9    UEHESTO 005500360039
BI00B32D9    #I21103        202202107289-2912-30             HOUSING FEMALE ASS'Y     CCN000002000000002000FN00000000020220301000002000NNM   20211221122317    2N0N  00000200000000804000000929032D9    UEHESTO 005400370024
BI00B32D9    #I21304        202202247289-2912-30             HOUSING FEMALE ASS'Y     CCN000002000000002000FN00000000020220301000002000NNM   20211221122317    2N0N  00000200000000804000000929032D9    UEHESTO 005400370024
BI00B32D9    #I21003        202202037289-2912-40             HOUSING FEMALE ASS'Y     CCN000002000000002000FN00000000020220301000002000NNM   20211221122317    2N0N  00000200000000804000000931032D9    UEHESTO 005400370024
BI00B32D9    #I21003        202202037289-2914                HOUSING FEMALE ASS'Y     CCN000001500000001500FN00000000020220301000001500NNM   20211221122317    2N0N  00000150000000906000001033032D9    UEHESTO 005400370024
BI00B32D9    #I21103        202202107289-2914                HOUSING FEMALE ASS'Y     CCN000001500000001500FN00000000020220301000001500NNM   20211221122317    2N0N  00000150000000906000001033032D9    UEHESTO 005400370024
BI00B32D9    #I21304        202202247289-2914                HOUSING FEMALE ASS'Y     CCN000001500000001500FN00000000020220301000001500NNM   20211221122317    2N0N  00000150000000906000001033032D9    UEHESTO 005400370024
BI00B32D9    #I21003        202202037289-2915-30             HOUSING FEMALE ASS'Y     CCN000001500000001500FN00000000020220301000001500NNM   20211221122317    2N0N  00000150000000964500001091532D9    UEHESTO 005400360024
BI00B32D9    #I21103        202202107289-2915-30             HOUSING FEMALE ASS'Y     CCN000001500000001500FN00000000020220301000001500NNM   20211221122317    2N0N  00000150000000964500001091532D9    UEHESTO 005400360024
BI00B32D9    #I21203        202202177289-2915-30             HOUSING FEMALE ASS'Y     CCN000001500000001500FN00000000020220301000001500NNM   20211221122317    2N0N  00000150000000964500001091532D9    UEHESTO 005400360024
BI00B32D9    #I21304        202202247289-2915-30             HOUSING FEMALE ASS'Y     CCN000001500000001500FN00000000020220301000001500NNM   20211221122317    2N0N  00000150000000964500001091532D9    UEHESTO 005400360024
BI00B32D9    #I21103        202202107289-2916-30             HOUSING FEMALE ASS'Y     CCN000002000000002000FN00000000020220301000002000NNM   20211221122317    2N0N  00000100000000857000001084032D9    UEHESTO 005400360024
BI00B32D9    #I21203        202202177289-2916-30             HOUSING FEMALE ASS'Y     CCN000002000000002000FN00000000020220301000002000NNM   20211221122317    2N0N  00000100000000857000001084032D9    UEHESTO 005400360024
BI00B32D9    #I21304        202202247289-2916-30             HOUSING FEMALE ASS'Y     CCN000002000000002000FN00000000020220301000002000NNM   20211221122317    2N0N  00000100000000857000001084032D9    UEHESTO 005400360024
BI00B32D9    #I21003        202202037289-2918-40             HOUSING FEMALE ASS'Y     CCN000002000000002000FN00000000020220301000002000NNM   20211221122317    2N0N  00000100000001020000001147032D9    UEHESTO 005400360024
BI00B32D9    #I21103        202202107289-2918-40             HOUSING FEMALE ASS'Y     CCN000002000000002000FN00000000020220301000002000NNM   20211221122317    2N0N  00000100000001020000001147032D9    UEHESTO 005400360024
BI00B32D9    #I21203        202202177289-2918-40             HOUSING FEMALE ASS'Y     CCN000002000000002000FN00000000020220301000002000NNM   20211221122317    2N0N  00000100000001020000001147032D9    UEHESTO 005400360024
BI00B32D9    #I21304        202202247289-2918-40             HOUSING FEMALE ASS'Y     CCN000004000000004000FN00000000020220301000004000NNM   20211221122317    2N0N  00000100000001020000001147032D9    UEHESTO 005400360024
BI00B32D9    #I21203        202202177289-3622-30             HOUSING FEMALE ASS'Y     CCN000000432000000432FN00000000020220301000000432NNM   20211221122317    2N0N  00000043200000839400001038432D9    UEHESTO 005400370024
BI00B32D9    #I21304        202202247289-3622-30             HOUSING FEMALE ASS'Y     CCN000000432000000432FN00000000020220301000000432NNM   20211221122317    2N0N  00000043200000839400001038432D9    UEHESTO 005400370024
BI00B32D9    @I21003        202202037287-4098                CONNECTOR FEMALE         CCN000002400000002400FN00000000020220301000002400NNM   20211221122317    3N0N  00000240000000668600000908032D9    UEHESTO 005500360039
BI00B32D9    @I21003        202202037287-6634                HOUSING FEMALE ASS'Y     CCN000002400000002400FN00000000020220301000002400NNM   20211221122317    3N0N  00000240000001088400001337032D9    UEHESTO 005500360039
BI00B32EJ    4500186233     202202037283-5843                CONNECTOR                CCN000015000000004500FN00000000020220201000004500NNED0420211221170325EJ  1N0N  00000150000000889000001132032EJ    EJYKBO  005600390040
BI00B32EJ    4500186233     202202107283-5843                CONNECTOR                CCN000010500000010500FN00000000020220201000010500NNED0420211221170331EJ  1N0N  00000150000000889000001132032EJ    EJYKBO  005600390040
BI00B32G2    SA21124 MW     202112237289-3342-30             HOUSING FEMALE ASS'Y     CCN000021600000021600FN00000000020211201000021600NNM00020211221165150    1N0N  00000240000000686400000901432G2    AISUAI  005500360039
BI00B32G2    SA22011 MW     202112237289-3342-30             HOUSING FEMALE ASS'Y     CCN000144000000144000FN00000000020220101000144000NNM00020211221165217    1N0N  00000240000000686400000901432G2    AISUAI  005500360039
BI00B32H0    TT22012VMW     202112247327-6731-3W             BATTERY FUSE             CCN000003264000003264FN00000000020220101000003264NNMD0020211221152544    4N0N  00000006400000697600000843032H0    TTTJY   005400370024
BI00B32H0    TT2112CVMW     202112247288-6547                CONNECTOR MALE ASS'Y     CCN000000750000000750FN00000000020211201000000750NNED0420211221152444    4N0N  00000075000001205300001340332H0    TTTJY   005400370024
BI00B32H0    TT2202CVMW     202202157283-4855                CONNECTOR HOUSING        CCN000002400000002400FN00000000020220201000002400NNED0220211221122317    4N0N  00000240000001188400001400032H0    TTTJY   005500360039
BI00B32H2    TIJ202E        202201147289-3342-30             HOUSING FEMALE ASS'Y     CCN000007200000007200FN00000000020220201000007200NNED0420211221122317    1N0N  00000240000000686400000901432H2    HVYHV   005500360039
BI00B32H8    #TY22012 MW    202112247157-7812                SEAL RUBBER              CCN000300000000300000FN00000000020220101000300000NNMM0020211221140732    2C0C  00001000000000137000000202032H8    TYTYC   002700430014
BI00B32M3    SM22012MMW     202112237283-1288-10             CONNECTOR HOUSING        CCN000002400000002400FN00000000020220101000002400NNM00020211221122317    4N0N  00000120000001381000001637032M3    SASAMI  005600390040
BI00B32M3    SM22013MMW     202112237283-1288-10             CONNECTOR HOUSING        CCN000002400000002400FN00000000020220101000002400NNMD0720211221122317    4N0N  00000120000001381000001637032M3    SASAMI  005600390040
BI00B32M4    #TL2021A       202201137189-3037-40             HOUSING FEMALE           CCN000004800000004800FN00000000020220201000004800NNE   20211221144914    2F0F  00000480000000901600001061632M4    SISAI   005500360039
BI00B32M4    TP2021B        202201137116-4020                TERMINAL                 CCN000013500000013500FN00000000020220201000013500NNE   20211221145029    4P0P  00001350000000513000000798232M4    SISAI   006400630015
BI00B32M4    TP2021B        202201137116-4231-02             TERMINAL                 CCN000026000000026000FN00000000020220201000026000NNE   20211221145029    4P0P  00002600000000683800001012532M4    SISAI   006400630017
BI00B32M4    TP2021B        202201137116-5041-02             TERMINAL                 CCN000015000000015000FN00000000020220201000015000NNE   20211221145029    4P0P  00001500000000583500000868732M4    SISAI   006400630015
BI00B32M4    TP2021B        202201137116-5042-02             TERMINAL                 CCN000013500000013500FN00000000020220201000013500NNE   20211221145029    4P0P  00001350000000560300000845532M4    SISAI   006400630015
BI00B32M4    TP2021B        202201137158-3006-90             RUBBER STOPPER           CCN000100000000100000FN00000000020220201000100000NNE   20211221145029    1C0C  00002000000000330600000386032M4    SISAI   002700430014
BI00B32M4    TP2021B        202201137282-4576                HOUSING MALE ASS'Y       CCN000002400000002400FN00000000020220201000002400NNE   20211221145029    4N0N  00000240000000808800001028832M4    SISAI   005500360039
BI00B32M4    TP2021B        202201137116-4415-02             TERMINAL                 CCN000038000000038000FN00000000020220201000038000NNE   20211221145029    4P0P  00003800000000596600000925732M4    SISAI   006400630017
BI00B32M4    TP2021B        202201137116-5043-02             TERMINAL FEMALE          CCN000024000000024000FN00000000020220201000024000NNE   20211221145029    4P0P  00001200000000559200000844432M4    SISAI   006400630015
BI00B32N1    NST2114GCU     202201067283-5845                CONNECTOR HOUSING        CCN000012000000012000FN00000000020220101000012000NNED0420211221122317    1N0N  00000600000000444000000606332N1    TAYIPL  005400370024
BI00A32N1    #QA-21-C122    202112237282-5845                HOUSING MALE ASS'Y       PNN000004000000000000FY00000000020211201000000000NNE00020211221183807    2N0N  00000400000001068000001178032N1    TAYIPL  005400370024
BI00A32P8    TAPI-2022      202112237116-5046-02             TERMINAL                 CCN000072000000072000FN00000000020220201000072000NNMM0020211221143920    4P0P  00001200000000544800000873532P8    YIYTM   006400630017
BI00B32P8    TAPI-2023      202201197116-5046-02             TERMINAL                 CCN000072000000048000FN00000000020220201000048000NNMQ0020211221142928    4P0P  00001200000000544800000873532P8    YIYTM   006400630017
BI00A32P8    TAPI-2022      202112237116-5751-02             TERMINAL                 CCN000024000000024000FN00000000020220201000024000NNMM0020211221143920    4P0P  00001200000000379200000664432P8    YIYTM   006400630015
BI00A32P8    TAPI-2023      202112237116-5751-02             TERMINAL                 CCN000024000000024000FN00000000020220201000024000NNMM0020211221143022    4P0P  00001200000000379200000664432P8    YIYTM   006400630015
BI00B32P8    TAPI-2031      202202237283-4855                CONNECTOR HOUSING        CCN000002400000002400FN00000000020220301000002400NNMD0220211221122317    4N0N  00000240000001188400001400032P8    YIYTM   005500360039
BI00B32P8    TAPI-2032      202202237283-4855                CONNECTOR HOUSING        CCN000002400000002400FN00000000020220301000002400NNMD0220211221122317    4N0N  00000240000001188400001400032P8    YIYTM   005500360039
BI00B32P8    TAPI-2033      202203027283-4855                CONNECTOR HOUSING        CCN000002400000002400FN00000000020220301000002400NNMD0220211221122317    4N0N  00000240000001188400001400032P8    YIYTM   005500360039
BI00B32P8    TAPI-2034      202203097283-4855                CONNECTOR HOUSING        CCN000002400000002400FN00000000020220301000002400NNMD0220211221122317    4N0N  00000240000001188400001400032P8    YIYTM   005500360039
BI00B32P8    TAPI-2031      202202097289-3342-30             HOUSING FEMALE ASS'Y     CCN000004800000004800FN00000000020220301000004800NNMD0420211221122317    1N0N  00000240000000686400000901432P8    YIYTM   005500360039
BI00B32P8    TAPI-2032      202202237289-3342-30             HOUSING FEMALE ASS'Y     CCN000002400000002400FN00000000020220301000002400NNMD0420211221122317    1N0N  00000240000000686400000901432P8    YIYTM   005500360039
BI00B32P8    TAPI-2034      202202237289-3342-30             HOUSING FEMALE ASS'Y     CCN000002400000002400FN00000000020220301000002400NNMD0420211221122317    1N0N  00000240000000686400000901432P8    YIYTM   005500360039
BI00A32P8    TAPI-2023      202112237116-5046-02             TERMINAL                 CCN000024000000024000FN00000000020220201000024000NNMM0020211221142935    4P0P  00001200000000544800000873532P8    YIYTM   006400630017
BI00B32R7    R-TAP210620    202202107298-1186-40             SQUIB SUB ASS'Y          CCN000040000000040000FN00000000020220201000040000NNED0220211221122317    4N0N  00001000000000650000000774532R7    IVYCIC  005400370024
BI00B32R7    R-TAP210623    202201137158-3006-90             RUBBER STOPPER           CCN000800000000800000FN00000000020220101000800000NNED0720211221122317    1C0C  00002000000000330600000386032R7    IVYCIC  002700430014
BI00B32R7    R-TAP210624    202201137114-1301                TERMINAL                 CCN000019500000019500FN00000000020220101000019500NNED0720211221122317    4P0P  00001950000000614300000907932R7    IVYCIC  006400630015
BI00B32R7    R-TAP210624    202201137116-1471                TERMINAL                 CCN000120000000120000FN00000000020220101000120000NNED0720211221122317    4P0P  00001500000000579000000867232R7    IVYCIC  006400630015
BI00B32R7    R-TAP210624    202201137116-1473                TERMINAL                 CCN000040500000040500FN00000000020220101000040500NNED0720211221122317    4P0P  00001350000000523800000809032R7    IVYCIC  006400630015
BI00B32R7    R-TAP210624    202201137116-1685-02             TERMINAL                 CCN000024000000024000FN00000000020220101000024000NNED0720211221122317    4P0P  00002400000000897600001065232R7    IVYCIC  005100280028
BI00B32R7    R-TAP210624    202201137116-4037                TERMINAL                 CCN000006000000006000FN00000000020220101000006000NNED0720211221122317    4P0P  00000600000000600000000894232R7    IVYCIC  006400630015
BI00B32R7    R-TAP210624    202201137126-8851-02             TERMINAL                 CCN000045000000045000FN00000000020220101000045000NNED0720211221122317    1P0P  00000900000000739800001025032R7    IVYCIC  006400630015
BI00B32R7    R-TAP210624    202201137126-8852-02             TERMINAL                 CCN000007500000007500FN00000000020220101000007500NNED0720211221122317    1P0P  00000750000000648000000933232R7    IVYCIC  006400630015
BI00B32R7    R-TAP210625    202201207116-1486-02             TERMINAL                 CCN000016500000016500FN00000000020220201000016500NNE   20211221122317    4P0P  00001650000000655100000940332R7    IVYCIC  006400630015
BI00B32R7    R-TAP210625    202201207116-1685-02             TERMINAL                 CCN000024000000024000FN00000000020220201000024000NNE   20211221122317    4P0P  00002400000000897600001065232R7    IVYCIC  005100280028
BI00B32R7    R-TAP210625    202201207116-1686-02             TERMINAL                 CCN000021000000021000FN00000000020220201000021000NNE   20211221122317    4P0P  00002100000000869400001021632R7    IVYCIC  005100280028
BI00B32R7    R-TAP210625    202201207283-1968-30             CONNECTOR                CCN000004500000004500FN00000000020220201000004500NNE   20211221122317    1N0N  00000090000001140000001318332R7    IVYCIC  005600390040
BI00B32R7    R-TAP210626    202201137158-3006-90             RUBBER STOPPER           CCN000260000000260000FN00000000020220101000260000NNED0720211221122317    1C0C  00002000000000330600000386032R7    IVYCIC  002700430014
BI00B32U5    DI1048         202112297289-3342-30             HOUSING FEMALE ASS'Y     CCN000024000000024000FN00000000020220101000024000NNM00020211221153506U5  1N0N  00000240000000686400000901432U5    AMAMSD  005500360039
BI00B32U5    DI1045A        202112297289-3342-30             HOUSING FEMALE ASS'Y     CCN000019200000019200FN00000000020211201000019200NNED0420211221153435U5  1N0N  00000240000000686400000901432U5    AMAMSD  005500360039
BI00B32U5    DI1049         202112297289-3342-30             HOUSING FEMALE ASS'Y     CCN000007200000007200FN00000000020220101000007200NNM00020211221153534U5  1N0N  00000240000000686400000901432U5    AMAMSD  005500360039
BI00B32U5    DI1051         202112297289-3342-30             HOUSING FEMALE ASS'Y     CCN000024000000024000FN00000000020220201000024000NNMD0420211221153557U5  1N0N  00000240000000686400000901432U5    AMAMSD  005500360039
BI00B32U5    DI2002         202112207158-3167-80             WIRE SEAL                CCN000020000000020000FY00002000020220201000000000NNM00020211221131758U5  1C0C  00002000000000048000000109032U5    AMAMSD  002700430014
BI00B32U5    DI2002         202112207158-3168-80             SEALED                   CCN000020000000020000FY00002000020220201000000000NNM00020211221131804U5  1C0C  00002000000000044000000092132U5    AMAMSD  004300260014
BI00B32U5    DI2002         202112207B72-5540-80             SEALED WIRE SEAL         CCN000020000000020000FY00002000020220201000000000NNM00020211221131751U5  1C0C  00002000000000186000000234432U5    AMAMSD  004300270014
BI00B32U9    TPA203         202112207116-4060-02             TERMINAL                 CCN000024000000024000FY00002400020220101000000000NNM00020211221131840U9  1P0P  00002400000000511200000984232U9    YNYNA-E 006400630017
BI00B32U9    TPA203         202112207158-3165-90             WIRE SEAL                CCN000360000000360000FY00036000020220101000000000NNM00020211221131848U9  1C0C  00004000000000124000000172432U9    YNYNA-E 004300270014
BI00B32U9    TPA203         202112207158-3167-80             WIRE SEAL                CCN000160000000160000FY00016000020220101000000000NNM00020211221131856U9  1C0C  00002000000000048000000109032U9    YNYNA-E 002700430014
BI00B32U9    TPA203         202112207158-3168-80             SEALED                   CCN000200000000200000FY00020000020220101000000000NNM00020211221131907U9  1C0C  00002000000000044000000092132U9    YNYNA-E 004300260014
BI00B32U9    TPA203         202112207158-3169-40             SEALING PLUG             CCN000280000000280000FY00028000020220101000000000NNM00020211221131915U9  1C0C  00004000000000156000000204132U9    YNYNA-E 004300260014
BI00B32U9    TPA203         202112207172-5540-80             SEALED WIRE SEAL         CCN000080000000080000FY00008000020220101000000000NNM00020211221131925U9  1C0C  00002000000000186000000234432U9    YNYNA-E 004300270014
BI00B32U9    TPA203         202112207283-5623-60             CONNECTOR                CCN000004800000004800FY00000480020220101000000000NNM00020211221131937U9  1N0N  00000160000001546000001846332U9    YNYNA-E 005600390040
BI00B32U9    TPA203         202112207B58-3070-80             RUBBER STOPPER           CCN000120000000120000FY00012000020220101000000000NNM00020211221131831U9  1C0C  00004000000000276000000333032U9    YNYNA-E 004300270014
BI00B32W4    4500181857     202112207116-2893-02             TERMINAL                 CCN000120000000120000FY00012000020220101000000000NNED0020211221131541W4N64P0P  00001200000000895200001058632W4N6  HJYHK-J 005100280028
BI00B32W4    4500182195     202112207116-2893-02             TERMINAL                 CCN000156000000156000FY00015600020220101000000000NNED0020211221131604W4N64P0P  00001200000000895200001058632W4N6  HJYHK-J 005100280028
BI00B32W4    4500186244     202201137289-9553-30             SEALED ASSY FEMALE       CCN000002940000002940FN00000000020220101000002940NNE   20211221122317W4D44N0N  00000294000001109000001521532W4D4  HJYHK-J 005500360039
BI00A32W4    4500186245     202202107158-3167-80             WIRE SEAL                CCN000040000000040000FN00000000020220201000040000NNE   20211221122317W4M61C0C  00002000000000048000000109032W4M6  HJYHK-J 002700430014
BI00B32W4    4500186255     202201247114-6041                TERMINAL                 CCN000025200000025200FN00000000020220101000025200NNE   20211221122317W4324P0P  00000360000000580700000824232W432  HJYHK   006400630015
BI00B32W4    4500186255     202201247116-6041                TERMINAL                 CCN000040500000040500FN00000000020220101000040500NNE   20211221122317W4324P0P  00000450000000716000001009632W432  HJYHK   006400630015
BI00B32W4    4500186255     202201247116-6042                TERMINAL                 CCN000006000000006000FN00000000020220101000006000NNE   20211221122317W4324P0P  00000300000000523800000856132W432  HJYHK   006400630015
BI00B32W4    @4500186255    202201247283-3030                HOUSING FEMALE ASS'Y     CCN000009600000009600FN00000000020220101000009600NNE   20211221122317W4323N0N  00000160000001056300001303032W432  HJYHK   005500360039
BI00A32W4    4500186256     202202087158-3167-80             WIRE SEAL                CCN000040000000040000FN00000000020220201000040000NNE   20211221122317W9151C0C  00002000000000048000000109032W915  HJYHK   002700430014
BI00A32W4    4500186260     202201047116-4111-02             TERMINAL                 CCN000007500000007500FN00000000020211201000007500NNED0720211221140742W4D44P0P  00000750000000529500000817732W4D4  HJYHK-J 006400630015
BI00B32W4    4500186265     202201067116-4100-02             TERMINAL                 CCN000015000000015000FN00000000020220101000015000NNE   20211221122317W45 4P0P  00001500000000696000000990232W45   HJYHK   006400630015
BI00B32W4    #4500186269    202201117157-7811-80             SEAL RUBBER              CCN000040000000040000FN00000000020220101000040000NNE   20211221122317W42 2C0C  00001000000000105000000182732W42   HJYHK   002700430014
BI00B32W4    4500186298     202204217288-9556-30             SEALED ASSY MALE         CCN000151200000151200FN00000000020220401000151200NNE   20211221122317W4O14N0N  00000072000000537900000786332W4O1  HJYHK-J 005500360039
BI00B32W4    4500186304     202202177116-4120-02             TERMINAL                 CCN000006000000006000FN00000000020220201000006000NNE   20211221122317W48 4P0P  00000600000000780000001073632W48   HJYHK   006400630015
BI00B32W4    4500186304     202202177116-4025                TERMINAL                 CCN000016000000016000FN00000000020220201000016000NNE   20211221122317W48 4P0P  00001600000000644800000975132W48   HJYHK   006400630017
BI00B32W4    4500186304     202202177116-4121-02             TERMINAL                 CCN000013500000013500FN00000000020220201000013500NNE   20211221122317W48 4P0P  00000450000000618800000912432W48   HJYHK   006400630015
BI00B32W4    4500186304     202202177158-3165-90             WIRE SEAL                CCN000040000000040000FN00000000020220201000040000NNE   20211221122317W48 1C0C  00004000000000124000000172432W48   HJYHK   004300270014
BI00B32W4    4500186304     202202177158-3006-90             RUBBER STOPPER           CCN000020000000020000FN00000000020220201000020000NNE   20211221122317W48 1C0C  00002000000000330600000386032W48   HJYHK   002700430014
BI00B32W4    4500186304     202202177158-3166-60             WIRE SEAL                CCN000040000000040000FN00000000020220201000040000NNE   20211221122317W48 1C0C  00004000000000104000000152432W48   HJYHK   002700430014
BI00B32W4    #4500186304    202202177158-3121-80             WIRE SEAL                CCN000040000000040000FN00000000020220201000040000NNE   20211221122317W48 2C0C  00002000000000118000000187332W48   HJYHK   002700430014
BI00B32W4    #4500186304    202202177123-6423-30             CONNECTOR                CCN000004000000004000FN00000000020220201000004000NNE   20211221122317W48 2F0F  00000200000001002000001167632W48   HJYHK   005600390023
BI00B32W4    4500186305     202202107116-4122-02             TERMINAL                 CCN000004500000004500FN00000000020220201000004500NNE   20211221122317W48 4P0P  00000450000000656600000950232W48   HJYHK   006400630015
BI00B32W4    4500186305     202202107158-3165-90             WIRE SEAL                CCN000040000000040000FN00000000020220201000040000NNE   20211221122317W48 1C0C  00004000000000124000000172432W48   HJYHK   004300270014
BI00B32W4    4500186305     202202107222-6244-40             CONNECTOR                CCN000001600000001600FN00000000020220201000001600NNE   20211221122317W48 4N0N  00000080000001239200001422032W48   HJYHK   005600390040
BI00B32W4    4500186305     202202107289-7615-30             HOUSING FEMALE ASS'Y     CCN000001920000001920FN00000000020220201000001920NNE   20211221122317W48 4N0N  00000032000000738000000948032W48   HJYHK   005400370024
BI00B32W4    4500186305     202202107172-1372-10             FRONT HOLDER             CCN000003900000003900FN00000000020220201000003900NNE   20211221122317W48 4F0F  00000390000000655200000955232W48   HJYHK   005500360039
BI00B32W4    @4500186305    202202107123-4312-80             HOUSING                  CCN000004800000004800FN00000000020220201000004800NNE   20211221122317W48 3F0F  00000080000000644200000794032W48   HJYHK   005500360039
BI00B32W4    4500186306     202202037158-3165-90             WIRE SEAL                CCN000040000000040000FN00000000020220201000040000NNE   20211221122317W48 1C0C  00004000000000124000000172432W48   HJYHK   004300270014
BI00B32W4    4500186307     202201207158-3165-90             WIRE SEAL                CCN000040000000040000FN00000000020220101000040000NNE   20211221122317W48 1C0C  00004000000000124000000172432W48   HJYHK   004300270014
BI00B32W4    #4500186307    202201207158-3003-90             RUBBER STOPPER           CCN000020000000020000FN00000000020220101000020000NNE   20211221122317W48 2C0C  00002000000000250000000306032W48   HJYHK   002700430014
BI00B32W4    4500186308     202201067158-3165-90             WIRE SEAL                CCN000040000000040000FN00000000020220101000040000NNE   20211221122317W48 1C0C  00004000000000124000000172432W48   HJYHK   004300270014
BI00A32W6    SW21123QMW     202112217327-6880-30             MULTI FUSE               PCN000006624000005184FY00000518420211201000000000NNMM0020211221181204    4N0N  00000028800001012600001178532W6    SYSYA-WJ005400370024
BI00B32W6    SW2202BQMW     202201267C89-6868-30             SEALED ASSY FEMALE       CCN000025200000025200FN00000000020220201000025200NNE   20211221135824    4N0N  00000252000000839200001119232W6    SYSYA-WJ005500360039
BI00B32W6    SW2202BQMW     202201267114-4032                TERMINAL                 CCN000030000000030000FN00000000020220201000030000NNE   20211221135824    4P0P  00000750000000735000001063632W6    SYSYA-WJ006400630017
BI00B32W6    SW2202BQMW     202201267114-4728-08             TERMINAL                 CCN000120000000120000FN00000000020220201000120000NNE   20211221135824    4P0P  00003000000000507000000801232W6    SYSYA-WJ006400630015
BI00B32W6    SW2202BQMW     202201267114-5748-02             TERMINAL                 CCN000036000000036000FN00000000020220201000036000NNE   20211221135824    4P0P  00001200000000444000000737632W6    SYSYA-WJ006400630015
BI00B32W6    SW2202BQMW     202201267116-1685-02             TERMINAL                 CCN000096000000096000FN00000000020220201000096000NNE   20211221135824    4P0P  00002400000000897600001065232W6    SYSYA-WJ005100280028
BI00B32W6    SW2202BQMW     202201267116-1686-02             TERMINAL                 CCN000042000000042000FN00000000020220201000042000NNE   20211221135824    4P0P  00002100000000869400001021632W6    SYSYA-WJ005100280028
BI00B32W6    SW2202BQMW     202201267116-3153-08             TERMINAL                 CCN000135000000135000FN00000000020220201000135000NNE   20211221135824    4P0P  00002700000000461700000746932W6    SYSYA-WJ006400630015
BI00B32W6    SW2202BQMW     202201267116-3154-08             TERMINAL                 CCN000027000000027000FN00000000020220201000027000NNE   20211221135824    4P0P  00002700000000475200000760432W6    SYSYA-WJ006400630015
BI00B32W6    SW2202BQMW     202201267116-4032                TERMINAL                 CCN000012000000012000FN00000000020220201000012000NNE   20211221135824    4P0P  00000600000000532800000818032W6    SYSYA-WJ006400630015
BI00B32W6    SW2202BQMW     202201267116-4037                TERMINAL                 CCN000018000000018000FN00000000020220201000018000NNE   20211221135824    4P0P  00000600000000600000000894232W6    SYSYA-WJ006400630015
BI00B32W6    SW2202BQMW     202201267116-4415-02             TERMINAL                 CCN000228000000228000FN00000000020220201000228000NNE   20211221135824    4P0P  00003800000000596600000925732W6    SYSYA-WJ006400630017
BI00B32W6    SW2202BQMW     202201267116-4416-02             TERMINAL                 CCN000096000000096000FN00000000020220201000096000NNE   20211221135824    4P0P  00003200000000518400000847132W6    SYSYA-WJ006400630017
BI00B32W6    SW2202BQMW     202201267116-4486-02             TERMINAL                 CCN000028000000028000FN00000000020220201000028000NNE   20211221135824    4P0P  00002800000000666400000995132W6    SYSYA-WJ006400630017
BI00B32W6    SW2202BQMW     202201267116-5042-02             TERMINAL                 CCN000027000000027000FN00000000020220201000027000NNE   20211221135824    4P0P  00001350000000560300000845532W6    SYSYA-WJ006400630015
BI00B32W6    SW2202BQMW     202201267116-5045-02             TERMINAL                 CCN000048000000048000FN00000000020220201000048000NNE   20211221135824    4P0P  00001600000000678400001007132W6    SYSYA-WJ006400630017
BI00B32W6    SW2202BQMW     202201267126-8853-02             TERMINAL                 CCN000075000000075000FN00000000020220201000075000NNE   20211221135824    4P0P  00000750000000562500000847732W6    SYSYA-WJ006400630015
BI00B32W6    SW2202BQMW     202201267158-3006-90             RUBBER STOPPER           CCN000020000000020000FN00000000020220201000020000NNE   20211221135824    1C0C  00002000000000330600000386032W6    SYSYA-WJ002700430014
BI00B32W6    SW2202BQMW     202201267158-3009-60             RUBBER STOPPER           CCN000060000000060000FN00000000020220201000060000NNE   20211221135824    1C0C  00002000000000338000000386232W6    SYSYA-WJ002700430014
BI00B32W6    SW2202BQMW     202201267158-3070-80             RUBBER STOPPER           CCN000080000000080000FN00000000020220201000080000NNE   20211221135824    1C0C  00004000000000276000000333332W6    SYSYA-WJ002700430014
BI00B32W6    SW2202BQMW     202201267158-3165-90             WIRE SEAL                CCN000080000000080000FN00000000020220201000080000NNE   20211221135824    1C0C  00004000000000124000000172432W6    SYSYA-WJ004300270014
BI00B32W6    SW2202BQMW     202201267158-3167-80             WIRE SEAL                CCN000020000000020000FN00000000020220201000020000NNE   20211221135824    1C0C  00002000000000048000000109032W6    SYSYA-WJ002700430014
BI00B32W6    SW2202BQMW     202201267327-6533-3W             BATTERY FUSE             CCN000003600000003600FN00000000020220201000003600NNE   20211221135824    4N0N  00000007200001230100001422632W6    SYSYA-WJ005500360039
BI00B32W6    SW2202BQMW     202201267386-9155                CONNECTOR MALE ASS'Y     CCN000004800000004800FN00000000020220201000004800NNE   20211221135824    4N0N  00000060000001244400001369932W6    SYSYA-WJ005400370024
BI00B32W6    #SW2202BQMW    202201267158-3007-10             RUBBER STOPPER           CCN000040000000040000FN00000000020220201000040000NNE   20211221135821    2H0H  00002000000000308000000362732W6    SYSYA-WJ002700430014
