BI00A1200    2399T51730     202201117289-6547                HOUSING FEMALE ASS'Y     CCN000240000000088800FN00000000020210901000088800NNMD0420211218092907    1N0N  0000024000000115200000136201200    YCYC    005500360039
BI00A1200    2399T51727     202112207289-6547                HOUSING FEMALE ASS'Y     PCN000120000000189600FN00000000020210901000189600NNMD0420211218091200    1N0N  0000024000000115200000136201200    YCYC    005500360039
BI00A1200    2399T51728     202112247289-6547                HOUSING FEMALE ASS'Y     PCN000100800000136800FN00000000020210901000136800NNMD0420211218091858    1N0N  0000024000000115200000136201200    YCYC    005500360039
BI00A1200    2399T51729     202201047289-6547                HOUSING FEMALE ASS'Y     CCN000139200000136800FN00000000020210901000136800NNMD0420211218092725    1N0N  0000024000000115200000136201200    YCYC    005500360039
BI00B1200    2399T51730     202201067289-6547                HOUSING FEMALE ASS'Y     CCN000139200000151200FN00000000020210901000151200NNMD0420211218092907    1N0N  0000024000000115200000136201200    YCYC    005500360039
BI00A1200    2399T51819     202201117289-6547                HOUSING FEMALE ASS'Y     CCN000060000000048000FN00000000020211001000048000NNMD0420211218093004    1N0N  0000024000000115200000136201200    YCYC    005500360039
BI00B1200    2399T51820     202201137289-6547                HOUSING FEMALE ASS'Y     CCN000060000000060000FN00000000020211001000060000NNMD0420211218093021    1N0N  0000024000000115200000136201200    YCYC    005500360039
BI00B1200    2399T51821     202201137289-6547                HOUSING FEMALE ASS'Y     CCN000060000000060000FN00000000020211001000060000NNMD0420211218093036    1N0N  0000024000000115200000136201200    YCYC    005500360039
BI00B1200    2399T51822     202201137289-6547                HOUSING FEMALE ASS'Y     CCN000057600000019200FN00000000020211001000019200NNMD0420211218093155    1N0N  0000024000000115200000136201200    YCYC    005500360039
BI00A1200    2399T51824     202201187289-6547                HOUSING FEMALE ASS'Y     CCN000057600000057600FN00000000020211101000057600NNMD0420211218093224    1N0N  0000024000000115200000136201200    YCYC    005500360039
BI00A1200    2399T51922     202201187289-6547                HOUSING FEMALE ASS'Y     CCN000184800000040800FN00000000020211101000040800NNM00020211218093332    1N0N  0000024000000115200000136201200    YCYC    005500360039
BI00B1200    2399T51923     202201207289-6547                HOUSING FEMALE ASS'Y     CCN000184800000048000FN00000000020211101000048000NNM00020211218093433    1N0N  0000024000000115200000136201200    YCYC    005500360039
BI00B1200    2399T51A21     202201277289-6547                HOUSING FEMALE ASS'Y     CCN000300000000151200FN00000000020211201000151200NNMD0420211218093616    1N0N  0000024000000115200000136201200    YCYC    005500360039
BI00B1200    2399T51A22     202202037289-6547                HOUSING FEMALE ASS'Y     CCN000300000000139200FN00000000020211201000139200NNMD0420211218093823    1N0N  0000024000000115200000136201200    YCYC    005500360039
BI00B1200    2399T51A23     202202107289-6547                HOUSING FEMALE ASS'Y     CCN000300000000127200FN00000000020211201000127200NNMD0420211218093931    1N0N  0000024000000115200000136201200    YCYC    005500360039
BI00B1200    2399T51A24     202202177289-6547                HOUSING FEMALE ASS'Y     CCN000300000000175200FN00000000020211201000175200NNMD0420211218094016    1N0N  0000024000000115200000136201200    YCYC    005500360039
BI00A1200    2399T51A21     202202017289-6547                HOUSING FEMALE ASS'Y     CCN000098400000096000FN00000000020211201000096000NNMD0420211218093616    1N0N  0000024000000115200000136201200    YCYC    005500360039
BI00B1200    2399T51A21     202202037289-6547                HOUSING FEMALE ASS'Y     CCN000103200000052800FN00000000020211201000052800NNMD0420211218093624    1N0N  0000024000000115200000136201200    YCYC    005500360039
BI00A1200    2399T51A22     202202077289-6547                HOUSING FEMALE ASS'Y     CCN000168000000096000FN00000000020211201000096000NNMD0420211218093754    1N0N  0000024000000115200000136201200    YCYC    005500360039
BI00A1200    2399T51A23     202202147289-6547                HOUSING FEMALE ASS'Y     CCN000151200000096000FN00000000020211201000096000NNMD0420211218093931    1N0N  0000024000000115200000136201200    YCYC    005500360039
BI00B1200    2399T51A24     202202247289-6547                HOUSING FEMALE ASS'Y     CCN000151200000124800FN00000000020211201000124800NNMD0420211218094016    1N0N  0000024000000115200000136201200    YCYC    005500360039
BI00B1200    2399T51B20     202112237289-6597-70             HOUSING FEMALE ASS'Y     CCN000015120000015120FN00000000020220101000015120NNM00020211218181938    4N0N  0000021600000128950000153951200    YCYC    005500360039
BI00B1200    2399T51B20     202112237289-9553-30             SEALED ASSY FEMALE       CCN000005880000005880FN00000000020220101000005880NNM00020211218181938    4N0N  0000029400000110900000152151200    YCYC    005500360039
BI00A1200    2399T51B20     202112237289-9553-50             SEALED ASSY FEMALE       CCN000020580000020580FN00000000020220101000020580NNM00020211218181938    4N0N  0000029400000110810000152061200    YCYC    005500360039
BI00B1200    2399T51B20     202112237289-9612-30             HOUSING FEMALE ASS'Y     CCN000001920000001920FN00000000020220101000001920NNM00020211218181938    4N0N  0000002400000134880000166881200    YCYC    005500360039
BI00B1200    2399T51B20     202112177298-1145-4W             SQUIB SUB ASS'Y          CCN000050000000010000FY00001000020220101000000000NNM00020211218181955    4N0N  0000100000000078790000094491200    YCYC    005400370024
BI00B1200    2399T51C20     202202247289-6547                HOUSING FEMALE ASS'Y     CCN000172800000127200FN00000000020220101000127200NNMD0420211218094107    1N0N  0000024000000115200000136201200    YCYC    005500360039
BI00B1200    2399T51C21     202203037289-6547                HOUSING FEMALE ASS'Y     CCN000172800000172800FN00000000020220101000172800NNMD0420211218094150    1N0N  0000024000000115200000136201200    YCYC    005500360039
BI00B1200    2399T51C22     202203037289-6547                HOUSING FEMALE ASS'Y     CCN000172800000033600FN00000000020220101000033600NNMD0420211218094229    1N0N  0000024000000115200000136201200    YCYC    005500360039
BI00B1200    2399T51C23     202203177289-6547                HOUSING FEMALE ASS'Y     CCN000172800000172800FN00000000020220101000172800NNMD0420211218094308    1N0N  0000024000000115200000136201200    YCYC    005500360039
BI00B1200    2399T51C25     202203247289-6547                HOUSING FEMALE ASS'Y     CCN000170400000170400FN00000000020220201000170400NNMD0420211218094455    1N0N  0000024000000115200000136201200    YCYC    005500360039
BI00B1200    2399T51C20     202203037289-6547                HOUSING FEMALE ASS'Y     CCN000086400000045600FN00000000020220101000045600NNMD0420211218094107    1N0N  0000024000000115200000136201200    YCYC    005500360039
BI00B1200    2399T51C21     202201277289-6547                HOUSING FEMALE ASS'Y     CCN000076800000000000FY00000000020220101000000000NNMD0420211218094150    1N0N  0000024000000115200000136201200    YCYC    005500360039
BI00B1200    2399T51C22     202203107289-6547                HOUSING FEMALE ASS'Y     CCN000086400000139200FN00000000020220101000139200NNMD0420211218094229    1N0N  0000024000000115200000136201200    YCYC    005500360039
BI00B1200    2399T51C23     202202247289-6547                HOUSING FEMALE ASS'Y     CCN000086400000000000FY00000000020220101000000000NNMD0420211218094308    1N0N  0000024000000115200000136201200    YCYC    005500360039
BI00B1200    2399T51C25     202203107289-6547                HOUSING FEMALE ASS'Y     CCN000084000000000000FY00000000020220201000000000NNMD0420211218094455    1N0N  0000024000000115200000136201200    YCYC    005500360039
BI00B1200    2399T51819     202201137289-6547                HOUSING FEMALE ASS'Y     CCN000012000000012000FN00000000020211001000012000NNMD0420211218093004    1N0N  0000024000000115200000136201200    YCYC    005500360039
BI00A1200    2399T51822     202201187289-6547                HOUSING FEMALE ASS'Y     CCN000038400000038400FN00000000020211001000038400NNMD0420211218093155    1N0N  0000024000000115200000136201200    YCYC    005500360039
BI00B1200    2399T51922     202201207289-6547                HOUSING FEMALE ASS'Y     CCN000144000000144000FN00000000020211101000144000NNM00020211218093332    1N0N  0000024000000115200000136201200    YCYC    005500360039
BI00A1200    2399T51923     202201257289-6547                HOUSING FEMALE ASS'Y     CCN000096000000096000FN00000000020211101000096000NNM00020211218093433    1N0N  0000024000000115200000136201200    YCYC    005500360039
BI00B1200    2399T51923     202201277289-6547                HOUSING FEMALE ASS'Y     CCN000040800000040800FN00000000020211101000040800NNM00020211218093442    1N0N  0000024000000115200000136201200    YCYC    005500360039
BI00B1200    2399T51A22     202202107289-6547                HOUSING FEMALE ASS'Y     CCN000064800000064800FN00000000020211201000064800NNMD0420211218093823    1N0N  0000024000000115200000136201200    YCYC    005500360039
BI00B1200    2399T51A23     202202177289-6547                HOUSING FEMALE ASS'Y     CCN000076800000076800FN00000000020211201000076800NNMD0420211218093931    1N0N  0000024000000115200000136201200    YCYC    005500360039
BI00B1200    2399T51B20     202112237298-1145-4W             SQUIB SUB ASS'Y          CCN000040000000040000FN00000000020220101000040000NNM00020211218181955    4N0N  0000100000000078790000094491200    YCYC    005400370024
BI00B32CH    SJ21114HMW     202111137327-6870-30             MULTI FUSE               CCN000008352000001728FY00000172820211101000000000NNM00020211218141436    4N0N  00000028800001015200001181132CH    SJSAMIJF005400370024
BI00A32CH    SJ21114HMW     202201127327-6872-30             MULTI FUSE               PCN000003168000003168FN00000000020211101000003168NNM00020211218141522    4N0N  00000028800000984500001150432CH    SJSAMIJF005400370024
BI00B32CH    SJ21114HMW     202111137327-6874-30             MULTI FUSE               CCN000008064000005760FY00000576020211101000000000NNM00020211218141500    4N0N  00000028800000991400001157332CH    SJSAMIJF005400370024
BI00A32CH    SJ21123HMW     202201187327-6870-30             MULTI FUSE               PCN000006912000006912FN00000000020211201000006912NNM00020211218142118    4N0N  00000028800001015200001181132CH    SJSAMIJF005400370024
BI00A32CH    SJ21123HMW     202201187327-6874-30             MULTI FUSE               PCN000004608000004608FN00000000020211201000004608NNM00020211218142118    4N0N  00000028800000991400001157332CH    SJSAMIJF005400370024
BI00A32CH    SJ21123HMW     202201187327-6880-30             MULTI FUSE               PCN000007488000007488FN00000000020211201000007488NNM00020211218142118    4N0N  00000028800001012600001178532CH    SJSAMIJF005400370024
BI00A32CH    SJ21123HMW     202201187327-6884-30             MULTI FUSE               PCN000008640000008640FN00000000020211201000008640NNM00020211218142118    4N0N  00000028800000988900001154832CH    SJSAMIJF005400370024
BI00A32CH    SJ21114HMW     202201127327-6870-30             MULTI FUSE               PCN000006624000006624FN00000000020211101000006624NNM00020211218141436    4N0N  00000028800001015200001181132CH    SJSAMIJF005400370024
BI00A32CH    SJ21114HMW     202201127327-6874-30             MULTI FUSE               PCN000002304000002304FN00000000020211101000002304NNM00020211218141500    4N0N  00000028800000991400001157332CH    SJSAMIJF005400370024
BI00A32CJ    #JQN2011       202201057172-5629-80             RUBBER STOPPER           PCN000200000000200000FN00000000020220101000200000NNM00020211218132337    2H0H  00002000000000060000000111132CJ    QNYHVQN 004300270014
BI00A32CJ    #JQN2012       202201107172-5629-80             RUBBER STOPPER           PCN000140000000140000FN00000000020220101000140000NNMM0020211218132411    2H0H  00002000000000060000000111132CJ    QNYHVQN 004300270014
BI00A32D2    #DGTC2204      202112277172-5629-80             RUBBER STOPPER           PCN000320000000320000FN00000000020220101000320000NNM00020211218132446    2H0H  00002000000000060000000111132D2    TGYOT-G 004300270014
BI00A32D2    #DGTC2204      202112277172-5630-40             RUBBER STOPPER           PCN000260000000260000FN00000000020220101000260000NNM00020211218132446    2H0H  00002000000000044000000095132D2    TGYOT-G 004300270014
BI00A32G2    #SA22011 MW    202112277158-3007-10             RUBBER STOPPER           PCN000080000000080000FN00000000020220101000080000NNM00020211218132609    2H0H  00002000000000308000000362732G2    AISUAI  002700430014
BI00A32G7    #JJ21123MMW    202112287172-5629-80             RUBBER STOPPER           PCN000280000000280000FN00000000020211201000280000NNM00020211218132813    2H0H  00002000000000060000000111132G7    JIJAI   004300270014
BI00A32H2    #TIJ1124       202112207172-5629-80             RUBBER STOPPER           PCN000240000000240000FN00000000020211201000240000NNM00020211218150411    2H0H  00002000000000060000000111132H2    HVYHV   004300270014
BI00A32H7    #FS22012DMW    202201047158-3007-10             RUBBER STOPPER           PCN000080000000080000FN00000000020220101000080000NNMM0020211218132840    2H0H  00002000000000308000000362732H7    FYFSY   002700430014
BI00A32H7    #FS22012DMW    202112227172-5630-40             RUBBER STOPPER           PCN000240000000240000FN00000000020220101000240000NNMM0020211218133015    2H0H  00002000000000044000000095132H7    FYFSY   004300270014
BI00A32H7    #FS22012DMW    202112227289-4200-30             HOUSING FEMALE ASS'Y     PCN000012000000012000FN00000000020220101000012000NNMM0020211218133106    2N0N  00000200000000926000001021032H7    FYFSY   005400370024
BI00A32P8    #TAPI-2011     202112247172-5629-80             RUBBER STOPPER           PCN000280000000280000FN00000000020220101000280000NNMM0020211218133244    2H0H  00002000000000060000000111132P8    YIYTM   004300270014
BI00A32Q8    #EU21122TMW    202201077172-5630-40             RUBBER STOPPER           PCN001340000001340000FN00000000020211201001340000NNMD0420211218104958    2H0H  00002000000000044000000095132Q8    EMEMI   004300270014
BI00A32Q8    #EU21123TMW    202201127172-5630-40             RUBBER STOPPER           PCN002440000001220000FN00000000020211201001220000NNMD0420211218105023    2H0H  00002000000000044000000095132Q8    EMEMI   004300270014
BI00A32Q8    #EU21124TMW    202201197172-5630-40             RUBBER STOPPER           PCN002480000001240000FN00000000020211201001240000NNMD0420211218105206    2H0H  00002000000000044000000095132Q8    EMEMI   004300270014
BI00A32Q8    #EU21125TMW    202201257172-5630-40             RUBBER STOPPER           PCN001780000000890000FN00000000020211201000890000NNMD0420211218105310    2H0H  00002000000000044000000095132Q8    EMEMI   004300270014
BI00A32Q8    #EU21123TMW    202112177289-4200-30             HOUSING FEMALE ASS'Y     CCN000058000000010000FY00001000020211201000000000NNMD0420211218144433    2N0N  00000200000000926000001021032Q8    EMEMI   005400370024
BI00A32Q8    #EU21123TMW    202201177172-5630-40             RUBBER STOPPER           PCN001220000001220000FN00000000020211201001220000NNMD0420211218105146    2H0H  00002000000000044000000095132Q8    EMEMI   004300270014
BI00A32Q8    #EU21124TMW    202201217172-5630-40             RUBBER STOPPER           PCN001240000001240000FN00000000020211201001240000NNMD0420211218105206    2H0H  00002000000000044000000095132Q8    EMEMI   004300270014
BI00A32Q8    #EU21125TMW    202201277172-5630-40             RUBBER STOPPER           PCN000890000000890000FN00000000020211201000890000NNMD0420211218105310    2H0H  00002000000000044000000095132Q8    EMEMI   004300270014
BI00A32Q8    #EU22012TMW    202112167172-5630-40             RUBBER STOPPER           PCN001340000000400000FY00040000020220101000000000NNM00020211218104619    2H0H  00002000000000044000000095132Q8    EMEMI   004300270014
BI00A32Q8    #EU22013TMW    202112227172-5630-40             RUBBER STOPPER           PCN001620000001620000FN00000000020220101001620000NNM00020211218104721    2H0H  00002000000000044000000095132Q8    EMEMI   004300270014
BI00A32Q8    #EU22012TMW    202112277172-5630-40             RUBBER STOPPER           PCN000940000000940000FN00000000020220101000940000NNM00020211218104619    2H0H  00002000000000044000000095132Q8    EMEMI   004300270014
BI00A32Q8    #EU21123TMW    202112247289-4200-30             HOUSING FEMALE ASS'Y     PCN000048000000048000FN00000000020211201000048000NNMD0420211218144433    2N0N  00000200000000926000001021032Q8    EMEMI   005400370024
BI00A32U5    #DI2005        202112207289-4200-30             HOUSING FEMALE ASS'Y     CCN000004000000004000FN00000000020220301000004000NNMM0020211218144652U5  2N0N  00000200000000926000001021032U5    AMAMSD  005400370024
BI00A32W6    SW21114QMW     202112277327-6870-30             MULTI FUSE               PCN000008352000008352FN00000000020211101000008352NNM00020211218163225    4N0N  00000028800001015200001181132W6    SYSYA-WJ005400370024
BI00A32W6    SW21114QMW     202112277327-6874-30             MULTI FUSE               PCN000008352000008352FN00000000020211101000008352NNM00020211218163225    4N0N  00000028800000991400001157332W6    SYSYA-WJ005400370024
BI00A32W6    SW21114QMW     202112277327-6880-30             MULTI FUSE               PCN000008640000008640FN00000000020211101000008640NNM00020211218163225    4N0N  00000028800001012600001178532W6    SYSYA-WJ005400370024
BI00A32W6    SW21114QMW     202112277327-6884-30             MULTI FUSE               PCN000008640000008640FN00000000020211101000008640NNM00020211218163225    4N0N  00000028800000988900001154832W6    SYSYA-WJ005400370024
BI00A32W6    #SW22011QMW    202112277298-2459-60             LIF FEMALE ASSEMBLY      PCN000017136000017136FN00000000020220101000017136NNMM0020211218134625    2N0N  00000016800000534000000729632W6    SYSYA-WJ005400370024
BI00A32W6    #SW22012QMW    202201057298-2459-60             LIF FEMALE ASSEMBLY      PCN000009576000009576FN00000000020220101000009576NNMM0020211218134850    2N0N  00000016800000534000000729632W6    SYSYA-WJ005400370024
BI00B32W9    4500174314     202111177289-6868-30             SEALED ASSY FEMALE       CCN000015120000012600FY00001260020210701000000000NNE00020211218131154W9  4N0N  00000252000000839200001119232W9    HKYHK   005500360039
BI00B32W9    4500174314     202112087289-6868-30             SEALED ASSY FEMALE       CCN000015120000012600FY00001260020210701000000000NNE00020211218131213W9  4N0N  00000252000000839200001119232W9    HKYHK   005500360039
BI00B32W9    4500174314     202112217289-6868-30             SEALED ASSY FEMALE       CCN000015120000015120FN00000000020210701000015120NNE00020211218131610W9  4N0N  00000252000000839200001119232W9    HKYHK   005500360039
BI00B32W9    4500174314     202201047289-6868-30             SEALED ASSY FEMALE       CCN000012600000012600FN00000000020210701000012600NNE00020211218131621W9  4N0N  00000252000000839200001119232W9    HKYHK   005500360039
BI00A32X5    TIB1045A       202112247172-5403-30             SEALED PACKING           PCN000024000000024000FN00000000020211201000024000NNE00020211218141751X5  1C0C  00000400000000653600000701732X5    EPYNA-E 004300270014
BI00A32X5    TIB1049        202201057172-5403-30             SEALED PACKING           PCN000020000000020000FN00000000020220101000020000NNM00020211218141810X5  1C0C  00000400000000653600000701732X5    EPYNA-E 004300270014
