BI00B32J1    @389547        20220110181AD2003ZZ              CIVUSAS-S 0.35X3 B       CCN000013310000013650FN00000000020220101000013650NNE   20211218174556    1W    00000035000002209700000000032J1    UKYEL-BL000000000000KE41C001
BI00B32J1    @389547        20220110181E48013ZZ              CAVSAS-S 0.3X3 GY        CCN000000250000000250FN00000000020220101000000250NNE   20211218174556    1W    00000025000002685000000000032J1    UKYEL-BL000000000000KE41C002
BI00B32Q8    EW22021TMW     202112221801W003990              IVSSH 0.5F L             CCN000154800000145800FN00000000020220201000145800NNM00 20211218075043    1W    00000180000000625000000000032Q8    EMEMI   000000000000MT11C017
BI00B32Q8    EW22021TMW     202112031801W003990              IVSSH 0.5F L             CCN000009000000009000FN00000000020220201000009000NNM20 20211218075043    1W    00000180000000625000000000032Q8    EMEMI   000000000000MT11C017
BI00B32W4    4500185492     2022012518018403952              CAVS 0.5 P               CCN000010500000010500FN00000000020220101000010500NNE   20211218184614W41 1W    00000150000000677000000000032W41   HJYHK-J 000000000000OT221002
BI00B32W4    4500185492     2022012518018403970              CAVS 0.5 Y               CCN000007500000007500FN00000000020220101000007500NNE   20211218184614W41 1W    00000150000000677000000000032W41   HJYHK-J 000000000000OT221003
BI00B32W4    4500185492     2022012518018403990              CAVS 0.5 L               CCN000010500000010500FN00000000020220101000010500NNE   20211218184614W41 1W    00000150000000677000000000032W41   HJYHK-J 000000000000OT221001
BI00B32W4    4500185492     2022012518018404030              CAVS 0.85 B              CCN000015000000015000FN00000000020220101000015000NNE   20211218184614W41 1W    00000100000000965000000000032W41   HJYHK-J 000000000000OT221004
BI00B32W4    4500185492     2022012518018404050              CAVS 0.85 R              CCN000008000000008000FN00000000020220101000008000NNE   20211218184614W41 1W    00000100000000965000000000032W41   HJYHK-J 000000000000OT221006
BI00B32W4    4500185492     2022012518018404060              CAVS 0.85 G              CCN000003000000003000FN00000000020220101000003000NNE   20211218184614W41 1W    00000100000000965000000000032W41   HJYHK-J 000000000000OT221005
BI00B32W4    4500185492     2022012518018404070              CAVS 0.85 Y              CCN000002000000002000FN00000000020220101000002000NNE   20211218184614W41 1W    00000100000000965000000000032W41   HJYHK-J 000000000000OT221007
BI00A32W4    @4500185528    20220127181D6910239              AVSSHCS 0.5FX2 B/L       CCN000030000000030000FN00000000020220101000030000NNE   20211218184613W4A21W    00000030000002792600000000032W4A2  HJYHK-J 000000000000OU221001
BI00B32W4    4500185695     2022011118018403930              CAVS 0.5 B               CCN000003000000003000FN00000000020220101000003000NNE   20211218184615W41 1W    00000150000000677000000000032W41   HJYHK-J 000000000000OR41C004
BI00B32W4    4500185695     2022011118018403951              CAVS 0.5 O               CCN000009000000009000FN00000000020220101000009000NNE   20211218184615W41 1W    00000150000000677000000000032W41   HJYHK-J 000000000000OR41C005
BI00B32W4    @4500185695    20220111181B32116Z6              AVSSCS 0.3FX2 DGY/V      CCN000002800000002800FN00000000020220101000002800NNE   20211218184614W41 1W    00000035000002241000000000032W41   HJYHK-J 000000000000OR41C003
BI00B32W4    @4500185663    20220222181B32037Y5              AVSSCS 0.3FX1 DGY/W      CCN000002000000002000FN00000000020220201000002000NNE   20211218184616W4171W    00000050000001780000000000032W417  HJYHK-J 000000000000OF222001
BI00B32W4    @4500185663    20220222181B32116S1              AVSSCS 0.3FX2 DGY        CCN000003500000003500FN00000000020220201000003500NNE   20211218184616W4171W    00000035000002241000000000032W417  HJYHK-J 000000000000OF222002
BI00B32W4    4500185902     202201111801R706930              CIVUS 0.35 B             CCN000003000000003000FN00000000020211201000003000NNE   20211218184612W41 1W    00000300000000386000000000032W41   HJYHK-J 000000000000OP41C001
BI00B32W4    4500185902     202201111801R706970              CIVUS 0.35 Y             CCN000003000000003000FN00000000020211201000003000NNE   20211218184612W41 1W    00000300000000386000000000032W41   HJYHK-J 000000000000OP41C003
BI00B32W4    4500185902     202201111801R706990              CIVUS 0.35 L             CCN000003000000003000FN00000000020211201000003000NNE   20211218184612W41 1W    00000300000000386000000000032W41   HJYHK-J 000000000000OP41C002
BI00B32W4    4500185904     2022011118018404157              CAVS 1.25 R/Y            CCN000004000000004000FN00000000020220101000004000NNE   20211218184615W41 1W    00000080000001378000000000032W41   HJYHK-J 000000000000OO41C003
BI00B32W4    4500185904     2022011118018404194              CAVS 1.25 L/W            CCN000002400000002400FN00000000020220101000002400NNE   20211218184615W41 1W    00000080000001378000000000032W41   HJYHK-J 000000000000OO41C002
BI00B32W4    4500185904     202201111801R706940              CIVUS 0.35 W             CCN000003000000003000FN00000000020220101000003000NNE   20211218184615W41 1W    00000300000000386000000000032W41   HJYHK-J 000000000000OO41C001
BI00B32W4    4500185905     2022020118018403730              CAVS 0.3 B               CCN000014000000014000FN00000000020220201000014000NNE   20211218184619W41 1W    00000200000000471000000000032W41   HJYHK-J 000000000000ON321002
BI00B32W4    4500185905     2022020118018403795              CAVS 0.3 L/R             CCN000002000000002000FN00000000020220201000002000NNE   20211218184619W41 1W    00000200000000471000000000032W41   HJYHK-J 000000000000ON321003
BI00B32W4    4500185905     2022020118018403749              CAVS 0.3 W/L             CCN000004000000004000FN00000000020220201000004000NNE   20211218184619W41 1W    00000200000000471000000000032W41   HJYHK-J 000000000000ON321004
BI00B32W4    4500185905     2022020118018403970              CAVS 0.5 Y               CCN000001500000001500FN00000000020220201000001500NNE   20211218184619W41 1W    00000150000000677000000000032W41   HJYHK-J 000000000000ON321005
BI00B32W4    @4500185905    20220201181B0911611              CAVSAS 0.3X2 GY/L        CCN000001400000001400FN00000000020220201000001400NNE   20211218184617W41 1W    00000035000002133000000000032W41   HJYHK-J 000000000000ON321001
BI00A32W4    @4500185967    20220203181D6910239              AVSSHCS 0.5FX2 B/L       CCN000024300000024300FN00000000020220201000024300NNE   20211218184618W4A21W    00000030000002792600000000032W4A2  HJYHK-J 000000000000OJ321001
BI00A32W4    @4500186038    20220224181D6910239              AVSSHCS 0.5FX2 B/L       CCN000001200000001200FN00000000020220201000001200NNE   20211218184618W4421W    00000030000002792600000000032W442  HJYHK-J 000000000000OG222001
BI00B32W4    4500186110     2022012518018403970              CAVS 0.5 Y               CCN000007500000007500FN00000000020220101000007500NNE   20211218184616W41 1W    00000150000000677000000000032W41   HJYHK-J 000000000000OV221002
BI00B32W4    4500186110     2022012518018403990              CAVS 0.5 L               CCN000007500000007500FN00000000020220101000007500NNE   20211218184616W41 1W    00000150000000677000000000032W41   HJYHK-J 000000000000OV221001
BI00B32W4    4500186145     2022020118018404090              CAVS 0.85 L              CCN000003000000003000FN00000000020220201000003000NNE   20211218184620W41 1W    00000100000000965000000000032W41   HJYHK-J 000000000000OI321001
BI00B32W4    @4500186105    20220301181B32037Y5              AVSSCS 0.3FX1 DGY/W      CCN000002000000002000FN00000000020220301000002000NNE   20211218184621W4171W    00000050000001780000000000032W417  HJYHK-J 000000000000OK322001
BI00B32W4    @4500186105    20220301181B32116S1              AVSSCS 0.3FX2 DGY        CCN000000350000000350FN00000000020220301000000350NNE   20211218184621W4171W    00000035000002241000000000032W417  HJYHK-J 000000000000OK322002
BI00B32W9    4500185062     2022011818000004545              AV 8 W/R                 CCN000000100000000100FN00000000020211201000000100NNE21 20211218193941W93 1W    00000010000009148000000000032W93   HKYHK   000000000000ZD21C009
BI00B32W9    4500185062     2022011818001403964              AV 0.5F G/W              CCN000002000000002000FN00000000020211201000002000NNE21 20211218193941W93 1W    00000100000000921000000000032W93   HKYHK   000000000000ZD21C011
BI00B32W9    4500185062     2022011818009604430              AVS 5 B                  CCN000001400000001400FN00000000020211201000001400NNE21 20211218193941W93 1W    00000020000005941000000000032W93   HKYHK   000000000000ZD21C039
BI00B32W9    4500185062     2022011818009604453              AVS 5 R/B                CCN000000400000000400FN00000000020211201000000400NNE21 20211218193941W93 1W    00000020000005941000000000032W93   HKYHK   000000000000ZD21C041
BI00B32W9    4500185062     2022011818007704254              AVSS 2F R/W              CCN000001500000001500FN00000000020211201000001500NNE21 20211218193941W93 1W    00000050000002126400000000032W93   HKYHK   000000000000ZD21C017
BI00B32W9    4500185364     2022012518018403780              CAVS 0.3 BR              CCN000002000000002000FN00000000020220101000002000NNE   20211218183925W93 1W    00000200000000471000000000032W93   HKYHK   000000000000ZD221001
BI00B32W9    4500185561     2022011818000004554              AV 8 R/W                 CCN000000100000000100FN00000000020220101000000100NNE   20211218183926W93 1W    00000010000009148000000000032W93   HKYHK   000000000000ZC121001
BI00B32W9    4500185561     2022011818009604453              AVS 5 R/B                CCN000000200000000200FN00000000020220101000000200NNE   20211218183926W93 1W    00000020000005941000000000032W93   HKYHK   000000000000ZC121002
BI00B32W9    4500185366     2022020118000004553              AV 8 R/B                 CCN000000100000000100FN00000000020220201000000100NNE   20211218183927W93 1W    00000010000009148000000000032W93   HKYHK   000000000000ZG321001
BI00B32W9    4500185366     2022020118000004554              AV 8 R/W                 CCN000000100000000100FN00000000020220201000000100NNE   20211218183927W93 1W    00000010000009148000000000032W93   HKYHK   000000000000ZG321002
BI00B32W9    4500185366     2022020118009604459              AVS 5 R/L                CCN000000400000000400FN00000000020220201000000400NNE   20211218183927W93 1W    00000020000005941000000000032W93   HKYHK   000000000000ZG321007
BI00B32W9    4500185366     2022020118009604453              AVS 5 R/B                CCN000000200000000200FN00000000020220201000000200NNE   20211218183927W93 1W    00000020000005941000000000032W93   HKYHK   000000000000ZG321008
BI00B32W9    4500185366     2022020118007703973              AVSS 0.5F Y/B            CCN000001500000001500FN00000000020220201000001500NNE   20211218183927W93 1W    00000150000000674000000000032W93   HKYHK   000000000000ZG321003
BI00B32W9    4500185366     2022020118007704280              AVSS 2F BR               CCN000000500000000500FN00000000020220201000000500NNE   20211218183927W93 1W    00000050000002126400000000032W93   HKYHK   000000000000ZG321005
BI00B32W9    4500185366     2022020118007704240              AVSS 2F W                CCN000000500000000500FN00000000020220201000000500NNE   20211218183927W93 1W    00000050000002126400000000032W93   HKYHK   000000000000ZG321006
BI00B32W9    4500185366     2022020118007704235              AVSS 2F B/R              CCN000000500000000500FN00000000020220201000000500NNE   20211218183927W93 1W    00000050000002126400000000032W93   HKYHK   000000000000ZG321004
BI00B32W9    4500185366     2022020118018403790              CAVS 0.3 L               CCN000002000000002000FN00000000020220201000002000NNE   20211218183927W93 1W    00000200000000471000000000032W93   HKYHK   000000000000ZG321009
BI00B32W9    4500185366     2022020118018404135              CAVS 1.25 B/R            CCN000001600000001600FN00000000020220201000001600NNE   20211218183927W93 1W    00000080000001378000000000032W93   HKYHK   000000000000ZG321011
BI00B32W9    4500185366     2022020118018404039              CAVS 0.85 B/L            CCN000002000000002000FN00000000020220201000002000NNE   20211218183927W93 1W    00000100000000965000000000032W93   HKYHK   000000000000ZG321010
