BI00A1200    #7960T52402    202205277172-5630-40             RUBBER STOPPER           CCN000040000000040000FN00000000020220601000040000NNE   20220418120555    2H0H  0000200000000004400000009511200    YCYC    004300270014
BI00B1200    #H322G50027    202206237282-8395-40             CONNECTOR                CCN000003000000003000FN00000000020220701000003000NNE   20220418120555    2N0N  0000010000000100900000118801200    YCYC    005500360039
BI00B1200    2399T52430     202207217116-4100-02             TERMINAL                 CCN000360000000360000FN00000000020220801000360000NNE   20220418120555    4P0P  0000150000000069600000099021200    YCYC    006400630015
BI00B1200    OHM-202204-01  20220421REEL 150-36              ALUMINUM REEL            PNN000000042000000042FN00000000020220501000000042NNE   20220418120555    4N0N  0000000030000000000000000001200    YCYC    000000000000
BI00B1200    OHM-202204-01  20220421REEL 275-42              ALUMINUM REEL            PNN000000068000000068FN00000000020220501000000068NNE   20220418120555    4N0N  0000000020000000000000000001200    YCYC    000000000000
BI00A32AF    JTB205A        202206067289-3342                HOUSING FEMALE ASS'Y     CCN000036000000012000FN00000000020220501000012000NNED0020220418120555    1N0N  00000240000000686400000901432AF    HBYHVTB 005500360039
BI00A32AF    JTB205A        202206137289-3342                HOUSING FEMALE ASS'Y     CCN000004800000016800FN00000000020220501000016800NNED0020220418120555    1N0N  00000240000000686400000901432AF    HBYHVTB 005500360039
BI00A32AF    JTB205A        202206207289-3342                HOUSING FEMALE ASS'Y     CCN000004800000007200FN00000000020220501000007200NNED0020220418120555    1N0N  00000240000000686400000901432AF    HBYHVTB 005500360039
BI00A32AF    JTB205A        202206277289-3342                HOUSING FEMALE ASS'Y     CCN000004800000000000FY00000000020220501000000000NNED0420220418112659    1N0N  00000240000000686400000901432AF    HBYHVTB 005500360039
BI00A32AF    JTB205A        202207047289-3342                HOUSING FEMALE ASS'Y     CCN000004800000000000FY00000000020220501000000000NNED0420220418112659    1N0N  00000240000000686400000901432AF    HBYHVTB 005500360039
BI00A32AF    JTB205A        202207117289-3342                HOUSING FEMALE ASS'Y     CCN000004800000000000FY00000000020220501000000000NNED0420220418112712    1N0N  00000240000000686400000901432AF    HBYHVTB 005500360039
BI00A32AF    JTB205A        202207187289-3342                HOUSING FEMALE ASS'Y     CCN000007200000000000FY00000000020220501000000000NNED0420220418112712    1N0N  00000240000000686400000901432AF    HBYHVTB 005500360039
BI00A32AF    JTB204B        202206027283-4855                CONNECTOR HOUSING        CCN000004800000004800FN00000000020220401000004800NNED0020220418120555    4N0N  00000240000001188400001400032AF    HBYHVTB 005500360039
BI00A32AF    JTB204B        202206107289-3342-30             HOUSING FEMALE ASS'Y     CCN000024000000024000FN00000000020220401000024000NNED0020220418120555    1N0N  00000240000000686400000901432AF    HBYHVTB 005500360039
BI00A32AF    JTB204B        202206027289-3342-40             HOUSING FEMALE ASS'Y     CCN000004800000004800FN00000000020220401000004800NNED0020220418120555    1N0N  00000240000000686400000901432AF    HBYHVTB 005500360039
BI00A32AF    JTB204B        202206067289-3342-90             HOUSING FEMALE ASS'Y     CCN000009600000004800FN00000000020220401000004800NNED0020220418120555    1N0N  00000240000000686400000901432AF    HBYHVTB 005500360039
BI00A32AF    JTB204B        202206137289-3342-90             HOUSING FEMALE ASS'Y     CCN000004800000004800FN00000000020220401000004800NNED0020220418120555    1N0N  00000240000000686400000901432AF    HBYHVTB 005500360039
BI00B32AG    #XG22064CMW    202205067157-3821                RUBBER STOPPER           CCN000020000000020000FN00000000020220601000020000NNMD0020220418145555    2C0C  00002000000000176000000238032AG    XGXGY   002700430014
BI00B32AG    XG2205AGMW     202205067327-6840-3W             BATTERY FUSE             CCN000000072000000072FN00000000020220501000000072NNED0720220418120555    4N0N  00000007200001140900001355932AG    XGXGY   005500360039
BI00A32B1    A2201B         202204207158-3166-60             WIRE SEAL                CCN000040000000040000FN00000000020220401000040000NNE   20220418134326B1  1C0C  00004000000000104000000152432B1    AXARNE-M002700430014
BI00A32B1    A2201B         202204207158-3168-80             SEALED                   CCN000080000000080000FN00000000020220401000080000NNE   20220418134326B1  1C0C  00002000000000044000000092132B1    AXARNE-M004300260014
BI00A32B1    A2201B         202204207282-6448-40             CONNECTOR                CCN000028000000028000FN00000000020220401000028000NNE   20220418134414B1  4N0N  00000080000000887000001152732B1    AXARNE-M005600390040
BI00B32B1    A22027         202206027282-5553-30             CONNECTOR                CCN000001000000001000FN00000000020220801000001000NNM   20220418120555B1  4N0N  00000100000001010000001187332B1    AXARNE-M005500360039
BI00B32B1    A22027         202206027282-5574-10             CONNECTOR                CCN000000800000000800FN00000000020220801000000800NNM   20220418120555B1  4N0N  00000080000001235000001423032B1    AXARNE-M005600390040
BI00B32B1    #A22027        202206027157-3891                RUBBER STOPPER           CCN000010000000010000FN00000000020220801000010000NNM   20220418120555B1  2H0H  00001000000000145000000241732B1    AXARNE-M004300270014
BI00B32B1    #A22027        202206027158-3376-50             CONNECTOR WIRE SEAL      CCN000120000000120000FN00000000020220801000120000NNM   20220418120555B1  2C0C  00002000000000184000000240732B1    AXARNE-M002700430014
BI00B32B1    #A22027        202206027282-6446-40             CONNECTOR                CCN000001500000001500FN00000000020220801000001500NNM   20220418120555B1  2N0N  00000150000001185000001368032B1    AXARNE-M005500360039
BI00B32B1    #A22027        202206027283-8226-30             CONNECTOR                CCN000006000000006000FN00000000020220801000006000NNM   20220418120555B1  2N0N  00000200000000820000001008032B1    AXARNE-M005400370024
BI00B32B6    A72027         202206027017-1180-02             TERMINAL                 CCN000072000000072000FN00000000020220801000072000NNM   20220418120555B6  4P0P  00007200000001065600001229032B6    AXARNE-M005100280028
BI00B32B6    A72027         202206027017-1183-02             TERMINAL                 CCN000027000000027000FN00000000020220801000027000NNM   20220418120555B6  4P0P  00002700000001139400001307432B6    AXARNE-M005100280028
BI00B32B6    A72027         202206027116-5045-02             TERMINAL                 CCN000032000000032000FN00000000020220801000032000NNM   20220418120555B6  4P0P  00001600000000678400001007132B6    AXARNE-M006400630017
BI00B32B6    A72027         202206027158-3166-60             WIRE SEAL                CCN000160000000160000FN00000000020220801000160000NNM   20220418120555B6  1C0C  00004000000000104000000152432B6    AXARNE-M002700430014
BI00B32B6    A72027         202206027158-3167-80             WIRE SEAL                CCN000160000000160000FN00000000020220801000160000NNM   20220418120555B6  1C0C  00002000000000048000000109032B6    AXARNE-M002700430014
BI00B32B6    A72027         202206027287-0192-40             SEALED HOUSING ASS'Y     CCN000001440000001440FN00000000020220801000001440NNM   20220418120555B6  4N0N  00000048000001092000001322032B6    AXARNE-M005600390040
BI00B32B6    A72027         202206027288-3339-30             HOUSING MALE             CCN000001500000001500FN00000000020220801000001500NNM   20220418120555B6  4N0N  00000150000000867000001012032B6    AXARNE-M005400370024
BI00B32B6    A72027         202206027289-3342-30             HOUSING FEMALE ASS'Y     CCN000002400000002400FN00000000020220801000002400NNM   20220418120555B6  1N0N  00000240000000686400000901432B6    AXARNE-M005500360039
BI00B32B6    #A72027        202206027158-3017                RUBBER STOPPER           CCN000010000000010000FN00000000020220801000010000NNM   20220418120555B6  2C0C  00001000000000375500000435032B6    AXARNE-M002700430014
BI00B32B6    #A72027        202206027158-3015-10             RUBBER STOPPER           CCN000010000000010000FN00000000020220801000010000NNM   20220418120555B6  2C0C  00001000000000419500000474032B6    AXARNE-M002700430014
BI00B32B7    A82027         202206027158-3166-60             WIRE SEAL                CCN000080000000080000FN00000000020220901000080000NNM   20220418120555B7  1C0C  00004000000000104000000152432B7    AXARNE-M002700430014
BI00B32B7    A82027         202206027158-3167-80             WIRE SEAL                CCN000140000000140000FN00000000020220901000140000NNM   20220418120555B7  1C0C  00002000000000048000000109032B7    AXARNE-M002700430014
BI00B32B7    A82027         202206027282-6448-40             CONNECTOR                CCN000015200000015200FN00000000020220901000015200NNM   20220418120555B7  4N0N  00000080000000887000001152732B7    AXARNE-M005600390040
BI00B32B7    #A82027        202206027158-3376-50             CONNECTOR WIRE SEAL      CCN000060000000060000FN00000000020220901000060000NNM   20220418120555B7  2C0C  00002000000000184000000240732B7    AXARNE-M002700430014
BI00B32CA    PTA32104       202206307114-5096-02             TERMINAL                 CCN000416000000420000FN00000000020221001000420000NNE   20220418120555    4P0P  00003000000000498000000792232CA    YPYPY   006400630015
BI00B32CA    PTA32104       202206307114-5096-08             TERMINAL                 CCN000128000000150000FN00000000020221001000150000NNE   20220418120555    4P0P  00003000000000498000000792232CA    YPYPY   006400630015
BI00B32CA    PTA32104       202206307116-3153-02             TERMINAL FEMALE          CCN000462000000486000FN00000000020221001000486000NNE   20220418120555    4P0P  00002700000000459000000744232CA    YPYPY   006400630015
BI00B32CA    PTA32104       202206307116-3154-02             TERMINAL FEMALE          CCN000132000000135000FN00000000020221001000135000NNE   20220418120555    4P0P  00002700000000469800000755032CA    YPYPY   006400630015
BI00B32CA    PTA32104       202206307116-4486-02             TERMINAL                 CCN000312000000336000FN00000000020221001000336000NNE   20220418120555    4P0P  00002800000000666400000995132CA    YPYPY   006400630017
BI00B32CA    PTA32104       202206307196-0510-02             TERMINAL                 CCN000024000000024000FN00000000020221001000024000NNE   20220418120555    4P0P  00002400000000871200001034632CA    YPYPY   002800510028
BI00B32CA    #PTA32104      202206307183-2414-30             CONNECTOR HOUSING        CCN000003750000004800FN00000000020221001000004800NNE   20220418120555    2F0F  00000480000000779500001061532CA    YPYPY   005500360039
BI00B32CA    #PTA32104      202206307189-3033                HOUSING FEMALE           CCN000001600000001600FN00000000020221001000001600NNE   20220418120555    2F0F  00000160000001211200001431232CA    YPYPY   005500360039
BI00B32CA    #PTA32104      202206307189-3034-30             HOUSING FEMALE           CCN000003200000003200FN00000000020221001000003200NNE   20220418120555    2F0F  00000160000000972800001192832CA    YPYPY   005500360039
BI00B32CC    CTA32081       202205057283-4855                CONNECTOR HOUSING        CCN000009600000009600FN00000000020220801000009600NNE   20220418150850    4N0N  00000240000001188400001400032CC    BIYABCBU005500360039
BI00B32CC    CTA32081       202205057289-3342-30             HOUSING FEMALE ASS'Y     CCN000012000000012000FN00000000020220801000012000NNE   20220418150352    1N0N  00000240000000686400000901432CC    BIYABCBU005500360039
BI00B32CC    CTA32081       202205057289-6868-30             SEALED ASSY FEMALE       CCN000015120000015120FN00000000020220801000015120NNE   20220418150850    4N0N  00000252000000839200001119232CC    BIYABCBU005500360039
BI00B32CC    #CTA32081      202205057283-8226-30             CONNECTOR                CCN000026000000026000FN00000000020220801000026000NNE   20220418150254    2N0N  00000200000000820000001008032CC    BIYABCBU005400370024
BI00B32CC    #CTA32081      202205057157-7812                SEAL RUBBER              CCN000010000000010000FN00000000020220801000010000NNE   20220418150254    2C0C  00001000000000137000000202032CC    BIYABCBU002700430014
BI00B32CC    #CTA32081      202205057183-7725-40             HOUSING                  CCN000006000000006000FN00000000020220801000006000NNE   20220418150254    2F0F  00000600000000840000001040032CC    BIYABCBU005600390040
BI00B32CC    #CTA32081      202205057282-6446-40             CONNECTOR                CCN000001500000001500FN00000000020220801000001500NNE   20220418150254    2N0N  00000150000001185000001368032CC    BIYABCBU005500360039
BI00B32CC    #CTA32081      202205057282-6457-40             CONNECTOR                CCN000000800000000800FN00000000020220801000000800NNE   20220418150254    2N0N  00000080000001137000001421332CC    BIYABCBU005600390040
BI00B32CC    CTA32082       202205057158-3167-80             WIRE SEAL                CCN000100000000100000FN00000000020220801000100000NNE   20220418120555    1C0C  00002000000000048000000109032CC    BIYABCBU002700430014
BI00B32CH    SJ2206A MW     202205057114-4021                TERMINAL                 CCN000015000000015000FN00000000020220601000015000NNE   20220418120555    4P0P  00001500000000670500000964132CH    SJSAMIJF006400630015
BI00B32CH    SJ2206A MW     202205057114-5753-02             TERMINAL                 CCN000027000000027000FN00000000020220601000027000NNE   20220418120555    4P0P  00002700000000847800001141432CH    SJSAMIJF006400630015
BI00B32CH    SJ2206A MW     202205057283-4576                HOUSING FEMALE ASS'Y     CCN000004800000004800FN00000000020220601000004800NNE   20220418120555    4N0N  00000480000000651300000871332CH    SJSAMIJF005500360039
BI00B32CH    SJ2206ADMW     202205057286-4097                CONNECTOR MALE ASS'Y     CCN000001600000001600FN00000000020220601000001600NNE   20220418120555    1N0N  00000160000000768000000978032CH    SJSAMIJF005500360039
BI00B32CH    #SJ2206ADMW    202205057183-6320                HOUSING                  CCN000004800000004800FN00000000020220601000004800NNE   20220418120555    2F0F  00000480000000820800001103632CH    SJSAMIJF005500360039
BI00B32CH    SJ2206AMMW     202205057116-4115-02             TERMINAL                 CCN000008400000008400FN00000000020220601000008400NNE   20220418120555    4P0P  00000840000000593000000881232CH    SJSAMIJF006400630015
BI00B32CJ    JQN2051        202205277327-6987-3W             BATTERY FUSE             CCN000002088000000144FN00000000020220501000000144NNMD0420220418120555    4N0N  00000007200000511300000711532CJ    QNYHVQN 005500360039
BI00B32CJ    JQN2053        202205277327-6987-3W             BATTERY FUSE             CCN000001080000000720FN00000000020220501000000720NNMD0420220418120555    4N0N  00000007200000511300000711532CJ    QNYHVQN 005500360039
BI00B32CJ    JQN2054        202205277327-6987-3W             BATTERY FUSE             CCN000001008000001008FN00000000020220501000001008NNMD0420220418120555    4N0N  00000007200000511300000711532CJ    QNYHVQN 005500360039
BI00B32CJ    JQN2055        202205277327-6987-3W             BATTERY FUSE             CCN000001152000001152FN00000000020220501000001152NNMD0420220418120555    4N0N  00000007200000511300000711532CJ    QNYHVQN 005500360039
BI00B32CJ    JQN205C        202204297116-1180                TERMINAL                 CCN000019500000019500FN00000000020220501000019500NNED0020220418130418    1P0P  00001950000000618200000903432CJ    QNYHVQN 006400630015
BI00B32CJ    JQN205C        202204297116-2641                TERMINAL                 CCN000018000000018000FN00000000020220501000018000NNED0020220418130418    4P0P  00001800000001161000001344632CJ    QNYHVQN 005100280028
BI00B32CJ    JQN205C        202204297116-4031                TERMINAL                 CCN000022500000022500FN00000000020220501000022500NNED0020220418130418    4P0P  00000750000000619500000904732CJ    QNYHVQN 006400630015
BI00B32CJ    JQN205C        202204297116-4486-02             TERMINAL                 CCN000056000000056000FN00000000020220501000056000NNED0020220418130418    4P0P  00002800000000666400000995132CJ    QNYHVQN 006400630017
BI00B32CJ    JQN205C        202204297116-5042-02             TERMINAL                 CCN000040500000040500FN00000000020220501000040500NNED0020220418130418    4P0P  00001350000000560300000845532CJ    QNYHVQN 006400630015
BI00B32CJ    #JQN205C       202205067157-3992-90             CONNECTOR SEALED         CCN000040000000040000FN00000000020220501000040000NNE   20220418120555    2C0C  00004000000000300000000363332CJ    QNYHVQN 002700430014
BI00B32CJ    #JQN205C       202205067287-1671                HOUSING FEMALE ASS'Y     CCN000004000000004000FN00000000020220501000004000NNE   20220418120555    2N0N  00000200000000782600000974632CJ    QNYHVQN 005400370024
BI00A32DJ    GHT2205B 2     202204207116-5751-02             TERMINAL                 CCN000036000000036000FN00000000020220501000036000NNMM0020220418132436    4P0P  00001200000000379200000664432DJ    RBYIPLRB006400630015
BI00B32D1    DFTC2228B      202205197196-1481-02             TERMINAL FEMALE          CCN000024000000024000FN00000000020220601000024000NNE   20220418120555    4P0P  00002400000000422400000707632D1    TOYOT-K 006400630015
BI00B32D1    DFTC2228B      202205197289-5979-30             HOUSING FEMALE ASS'Y     CCN000000252000000252FN00000000020220601000000252NNE   20220418120555    1N0N  00000025200000854700001064732D1    TOYOT-K 005400370024
BI00B32D1    #DFTC2228B     202205197173-3225-10             LIF LEVER                CCN000000800000000800FN00000000020220601000000800NNE   20220418120555    2F0F  00000080000000592000000712032D1    TOYOT-K 005500360039
BI00B32D1    #DFTC2228B     202205197198-4980-30             HOUSING FEMALE           CCN000001200000001200FN00000000020220601000001200NNE   20220418120555    2F0F  00000120000000840000000921032D1    TOYOT-K 005400370024
BI00B32D1    #DFTC2228B     202205197289-2913-40             HOUSING FEMALE ASS'Y     CCN000001500000001500FN00000000020220601000001500NNE   20220418120555    2N0N  00000150000000910500001037532D1    TOYOT-K 005400370024
BI00B32D1    #DFTC2228B     202205197289-2914-40             HOUSING FEMALE ASS'Y     CCN000001500000001500FN00000000020220601000001500NNE   20220418120555    2N0N  00000150000000904500001031532D1    TOYOT-K 005400370024
BI00B32D1    DFTC2228       202205197114-4032                TERMINAL                 CCN000007500000007500FN00000000020220701000007500NNM   20220418120555    4P0P  00000750000000735000001063632D1    TOYOT-K 006400630017
BI00B32D1    DFTC2228       202205197114-4231-02             TERMINAL                 CCN000018000000018000FN00000000020220701000018000NNM   20220418120555    4P0P  00001800000000554400000848032D1    TOYOT-K 006400630015
BI00B32D1    DFTC2228       202205197114-5748-02             TERMINAL                 CCN000036000000036000FN00000000020220701000036000NNM   20220418120555    4P0P  00001200000000444000000737632D1    TOYOT-K 006400630015
BI00B32D1    DFTC2228       202205197114-5753-02             TERMINAL                 CCN000081000000081000FN00000000020220701000081000NNM   20220418120555    4P0P  00002700000000847800001141432D1    TOYOT-K 006400630015
BI00B32D1    DFTC2228       202205197116-1685-02             TERMINAL                 CCN000024000000024000FN00000000020220701000024000NNM   20220418120555    4P0P  00002400000000897600001065232D1    TOYOT-K 005100280028
BI00B32D1    DFTC2228       202205197116-2891-02             TERMINAL                 CCN000045000000045000FN00000000020220701000045000NNM   20220418120555    4P0P  00001500000000982500001145932D1    TOYOT-K 005100280028
BI00B32D1    DFTC2228       202205197116-4110-02             TERMINAL                 CCN000018000000018000FN00000000020220701000018000NNM   20220418120555    4P0P  00000900000000594000000882232D1    TOYOT-K 006400630015
BI00B32D1    DFTC2228       202205197116-4112-02             TERMINAL                 CCN000018000000018000FN00000000020220701000018000NNM   20220418120555    4P0P  00000600000000450000000738232D1    TOYOT-K 006400630015
BI00B32D1    DFTC2228       202205197116-4486-02             TERMINAL                 CCN000056000000056000FN00000000020220701000056000NNM   20220418120555    4P0P  00002800000000666400000995132D1    TOYOT-K 006400630017
BI00B32D1    DFTC2228       202205197116-5045-02             TERMINAL                 CCN000048000000048000FN00000000020220701000048000NNM   20220418120555    4P0P  00001600000000678400001007132D1    TOYOT-K 006400630017
BI00B32D1    DFTC2228       202205197126-8853-02             TERMINAL                 CCN000037500000037500FN00000000020220701000037500NNM   20220418120555    4P0P  00000750000000562500000847732D1    TOYOT-K 006400630015
BI00B32D1    DFTC2228       202205197126-8854-02             TERMINAL                 CCN000045000000045000FN00000000020220701000045000NNM   20220418120555    4P0P  00000750000000604500000889732D1    TOYOT-K 006400630015
BI00B32D1    DFTC2228       202205197126-8855-02             TERMINAL                 CCN000024000000024000FN00000000020220701000024000NNM   20220418120555    4P0P  00000600000000510600000795832D1    TOYOT-K 006400630015
BI00B32D1    DFTC2228       202205197158-3070-80             RUBBER STOPPER           CCN000040000000040000FN00000000020220701000040000NNM   20220418120555    1C0C  00004000000000276000000333332D1    TOYOT-K 002700430014
BI00B32D1    DFTC2228       202205197158-3166-60             WIRE SEAL                CCN000040000000040000FN00000000020220701000040000NNM   20220418120555    1C0C  00004000000000104000000152432D1    TOYOT-K 002700430014
BI00B32D1    DFTC2228       202205197196-0396-02             TERMINAL                 CCN000015000000015000FN00000000020220701000015000NNM   20220418120555    4P0P  00001500000000949500001112932D1    TOYOT-K 002800510028
BI00B32D1    DFTC2228       202205197196-0510-02             TERMINAL                 CCN000024000000024000FN00000000020220701000024000NNM   20220418120555    4P0P  00002400000000871200001034632D1    TOYOT-K 002800510028
BI00B32D1    DFTC2228       202205197282-4576                HOUSING MALE ASS'Y       CCN000002400000002400FN00000000020220701000002400NNM   20220418120555    4N0N  00000240000000808800001028832D1    TOYOT-K 005500360039
BI00B32D1    DFTC2228       202205197283-1156                CONNECTOR                CCN000002400000002400FN00000000020220701000002400NNM   20220418120555    4N0N  00000080000000877600001078032D1    TOYOT-K 005600390040
BI00B32D1    DFTC2228       202205197288-6547                CONNECTOR MALE ASS'Y     CCN000004500000004500FN00000000020220701000004500NNM   20220418120555    4N0N  00000075000001205300001340332D1    TOYOT-K 005400370024
BI00B32D1    DFTC2228       202205197289-3342                HOUSING FEMALE ASS'Y     CCN000014400000014400FN00000000020220701000014400NNM   20220418120555    1N0N  00000240000000686400000901432D1    TOYOT-K 005500360039
BI00B32D1    DFTC2228       202205197289-3342-30             HOUSING FEMALE ASS'Y     CCN000036000000036000FN00000000020220701000036000NNM   20220418120555    1N0N  00000240000000686400000901432D1    TOYOT-K 005500360039
BI00B32D1    DFTC2228       202205197289-3342-40             HOUSING FEMALE ASS'Y     CCN000004800000004800FN00000000020220701000004800NNM   20220418120555    1N0N  00000240000000686400000901432D1    TOYOT-K 005500360039
BI00B32D1    DFTC2228       202205197289-3342-90             HOUSING FEMALE ASS'Y     CCN000012000000012000FN00000000020220701000012000NNM   20220418120555    1N0N  00000240000000686400000901432D1    TOYOT-K 005500360039
BI00B32D1    DFTC2228       202205197289-6547                HOUSING FEMALE ASS'Y     CCN000004800000004800FN00000000020220701000004800NNM   20220418120555    1N0N  00000240000001152000001362032D1    TOYOT-K 005500360039
BI00B32D1    DFTC2228       202205197296-0784-02             TERMINAL ALUMINIUM       CCN000024000000024000FN00000000020220701000024000NNM   20220418120555    4P0P  00002400000000480000000765232D1    TOYOT-K 006400630015
BI00B32D1    DFTC2228       202205197296-1025-02             TERMINAL ALUMINIUM       CCN000018000000018000FN00000000020220701000018000NNM   20220418120555    4P0P  00001800000000635400000920632D1    TOYOT-K 006400630015
BI00B32D1    DFTC2228       202205197327-6731-3W             BATTERY FUSE             CCN000001280000001280FN00000000020220701000001280NNM   20220418120555    4N0N  00000006400000697600000843032D1    TOYOT-K 005400370024
BI00B32D1    DFTC2228       202205197388-2978-30             HOUSING MALE ASS'Y       CCN000006240000006240FN00000000020220701000006240NNM   20220418120555    1N0N  00000048000000742000001122032D1    TOYOT-K 005500360039
BI00B32D1    #DFTC2228      202205197158-3003-90             RUBBER STOPPER           CCN000060000000060000FN00000000020220701000060000NNM   20220418120555    2C0C  00002000000000250000000306032D1    TOYOT-K 002700430014
BI00B32D1    #DFTC2228      202205197158-3005-80             RUBBER STOPPER           CCN000040000000040000FN00000000020220701000040000NNM   20220418120555    2H0H  00002000000000210000000268732D1    TOYOT-K 002700430014
BI00B32D1    #DFTC2228      202205197158-3008-80             RUBBER STOPPER           CCN000020000000020000FN00000000020220701000020000NNM   20220418120555    2C0C  00002000000000288000000343032D1    TOYOT-K 004300270014
BI00B32D1    #DFTC2228      202205197158-3015-10             RUBBER STOPPER           CCN000020000000020000FN00000000020220701000020000NNM   20220418120555    2C0C  00001000000000419500000474032D1    TOYOT-K 002700430014
BI00B32D1    #DFTC2228      202205197158-3017                RUBBER STOPPER           CCN000010000000010000FN00000000020220701000010000NNM   20220418120555    2C0C  00001000000000375500000435032D1    TOYOT-K 002700430014
BI00B32D1    #DFTC2228      202205197172-5629-80             RUBBER STOPPER           CCN000140000000140000FN00000000020220701000140000NNM   20220418120555    2H0H  00002000000000060000000111132D1    TOYOT-K 004300270014
BI00B32D1    #DFTC2228      202205197172-5630-40             RUBBER STOPPER           CCN000040000000040000FN00000000020220701000040000NNM   20220418120555    2H0H  00002000000000044000000095132D1    TOYOT-K 004300270014
BI00B32D1    #DFTC2228      202205197172-5631-60             RUBBER STOPPER           CCN000020000000020000FN00000000020220701000020000NNM   20220418120555    2H0H  00002000000000042000000093132D1    TOYOT-K 004300270014
BI00B32D1    #DFTC2228      202205197172-5632-10             DUMMY PLUG               CCN000040000000040000FN00000000020220701000040000NNM   20220418120555    2H0H  00002000000000080400000131832D1    TOYOT-K 004300270014
BI00B32D1    #DFTC2228      202205197183-2418-30             CONNECTOR HOUSING        CCN000004800000004800FN00000000020220701000004800NNM   20220418120555    2F0F  00000480000000917000001235332D1    TOYOT-K 005500360039
BI00B32D1    #DFTC2228      202205197189-2978-30             HOUSING FEMALE           CCN000006000000006000FN00000000020220701000006000NNM   20220418120555    2F0F  00000150000000966900001096932D1    TOYOT-K 005400370024
BI00B32D1    #DFTC2228      202205197189-3033                HOUSING FEMALE           CCN000004800000004800FN00000000020220701000004800NNM   20220418120555    2F0F  00000160000001211200001431232D1    TOYOT-K 005500360039
BI00B32D1    #DFTC2228      202205197189-3036                HOUSING FEMALE           CCN000001600000001600FN00000000020220701000001600NNM   20220418120555    2F0F  00000160000000921600001141632D1    TOYOT-K 005500360039
BI00B32D1    #DFTC2228      202205197282-1641                CONNECTOR                CCN000006000000006000FN00000000020220701000006000NNM   20220418120555    2N0N  00000200000000813000000986032D1    TOYOT-K 005500360039
BI00B32D1    #DFTC2228      202205197289-3622-30             HOUSING FEMALE ASS'Y     CCN000001728000001728FN00000000020220701000001728NNM   20220418120555    2N0N  00000043200000839400001038432D1    TOYOT-K 005400370024
BI00A32EJ    T220405P01     202204207158-3168-80             SEALED                   CCN000060000000060000FN00000000020220501000060000NNEM0020220418164944EJ  1C0C  00002000000000044000000092132EJ    EJYKBO  004300260014
BI00B32EJ    T220413P01     202205127116-4037                TERMINAL                 CCN000006000000006000FN00000000020220501000006000NNE   20220418131255EJ  4P0P  00000600000000600000000894232EJ    EJYKBO  006400630015
BI00B32EJ    T220413P01     202205127116-4025                TERMINAL                 CCN000016000000016000FN00000000020220501000016000NNE   20220418131255EJ  4P0P  00001600000000644800000975132EJ    EJYKBO  006400630017
BI00B32EJ    T220413P01     202205127158-3006-90             RUBBER STOPPER           CCN000020000000020000FN00000000020220501000020000NNE   20220418131255EJ  1C0C  00002000000000330600000386032EJ    EJYKBO  002700430014
BI00B32EJ    T220413P01     202205127283-1968-30             CONNECTOR                CCN000001800000001800FN00000000020220501000001800NNE   20220418131255EJ  1N0N  00000090000001140000001318332EJ    EJYKBO  005600390040
BI00B32EJ    T220413P01     202205127298-1869-30             HOUSING FEMALE ASS'Y     CCN000001200000001200FN00000000020220501000001200NNE   20220418131255EJ  4N0N  00000120000000737000000939832EJ    EJYKBO  005500360039
BI00B32EJ    T220413P01     202205127116-4124-02             TERMINAL                 CCN000003000000003000FN00000000020220501000003000NNE   20220418131255EJ  4P0P  00000300000000459900000753532EJ    EJYKBO  006400630015
BI00B32EJ    T220413P01     202205127196-1461-06             TERMINAL FEMALE          CCN000048000000048000FN00000000020220501000048000NNE   20220418131255EJ  4P0P  00002400000000386400000692932EJ    EJYKBO  006400630015
BI00B32EJ    T220413P01     202205127116-4120-02             TERMINAL                 CCN000012000000012000FN00000000020220501000012000NNE   20220418131255EJ  4P0P  00000600000000780000001073632EJ    EJYKBO  006400630015
BI00B32EJ    T220413P01     202205127116-4122-02             TERMINAL                 CCN000022500000022500FN00000000020220501000022500NNE   20220418131255EJ  4P0P  00000450000000656600000950232EJ    EJYKBO  006400630015
BI00B32EJ    T220413P01     202205127126-8854-02             TERMINAL                 CCN000007500000007500FN00000000020220501000007500NNE   20220418131255EJ  4P0P  00000750000000604500000889732EJ    EJYKBO  006400630015
BI00B32EJ    T220413P01     202205127116-4022                TERMINAL                 CCN000013500000013500FN00000000020220501000013500NNE   20220418131255EJ  4P0P  00001350000000618300000903532EJ    EJYKBO  006400630015
BI00B32EJ    T220413P01     202205127158-3166-60             WIRE SEAL                CCN000240000000240000FN00000000020220501000240000NNE   20220418131255EJ  1C0C  00004000000000104000000152432EJ    EJYKBO  002700430014
BI00B32EJ    T220413P01     202205127158-3167-80             WIRE SEAL                CCN000320000000320000FN00000000020220501000320000NNE   20220418131255EJ  1C0C  00002000000000048000000109032EJ    EJYKBO  002700430014
BI00B32EJ    T220413P01     202205127158-3168-80             SEALED                   CCN000060000000060000FN00000000020220501000060000NNE   20220418131255EJ  1C0C  00002000000000044000000092132EJ    EJYKBO  004300260014
BI00B32EJ    T220413P01     202205127158-3167-61             WIRE SEAL                CCN000060000000060000FN00000000020220501000060000NNE   20220418131255EJ  1C0C  00002000000000048000000096432EJ    EJYKBO  004300270014
BI00B32EJ    #T220413P01    202205127158-3120-90             CONNECTOR WIRE SEAL      CCN000080000000080000FN00000000020220501000080000NNE   20220418131244EJ  2C0C  00002000000000136000000194032EJ    EJYKBO  002700430014
BI00B32EJ    #T220413P01    202205127157-3992-90             CONNECTOR SEALED         CCN000040000000040000FN00000000020220501000040000NNE   20220418131244EJ  2C0C  00004000000000300000000363332EJ    EJYKBO  002700430014
BI00B32EJ    #T220413P01    202205127282-6458-40             CONNECTOR                CCN000002000000002000FN00000000020220501000002000NNE   20220418131244EJ  2N0N  00000100000001206000001350532EJ    EJYKBO  005500360039
BI00B32EJ    @T220413P01    202205127123-4312-80             HOUSING                  CCN000001600000001600FN00000000020220501000001600NNE   20220418131250EJ  3F0F  00000080000000644200000794032EJ    EJYKBO  005500360039
BI00B32EJ    T220415P01     202205267116-4022                TERMINAL                 CCN000135000000135000FN00000000020220501000135000NNE   20220418131333EJ  4P0P  00001350000000618300000903532EJ    EJYKBO  006400630015
BI00B32EJ    T220415P01     202205267116-4102-02             TERMINAL                 CCN000060000000060000FN00000000020220501000060000NNE   20220418131333EJ  4P0P  00001200000000553200000841432EJ    EJYKBO  006400630015
BI00B32EJ    T220415P01     202205267116-4104-02             TERMINAL                 CCN000036000000036000FN00000000020220501000036000NNE   20220418131333EJ  4P0P  00001200000000580800000972432EJ    EJYKBO  006400630015
BI00B32EJ    T220415P01     202205267116-4120-02             TERMINAL                 CCN000018000000018000FN00000000020220501000018000NNE   20220418131333EJ  4P0P  00000600000000780000001073632EJ    EJYKBO  006400630015
BI00B32EJ    T220415P01     202205267116-4122-02             TERMINAL                 CCN000036000000036000FN00000000020220501000036000NNE   20220418131333EJ  4P0P  00000450000000656600000950232EJ    EJYKBO  006400630015
BI00B32EJ    T220415P01     202205267116-4231-02             TERMINAL                 CCN000026000000026000FN00000000020220501000026000NNE   20220418131333EJ  4P0P  00002600000000683800001012532EJ    EJYKBO  006400630017
BI00B32EJ    T220415P01     202205267116-5045-02             TERMINAL                 CCN000032000000032000FN00000000020220501000032000NNE   20220418131333EJ  4P0P  00001600000000678400001007132EJ    EJYKBO  006400630017
BI00B32EJ    T220415P01     202205267116-5751-02             TERMINAL                 CCN000048000000048000FN00000000020220501000048000NNE   20220418131333EJ  4P0P  00001200000000379200000664432EJ    EJYKBO  006400630015
BI00B32EJ    T220415P01     202205267158-3070-80             RUBBER STOPPER           CCN000200000000200000FN00000000020220501000200000NNE   20220418131333EJ  1C0C  00004000000000276000000333332EJ    EJYKBO  002700430014
BI00B32EJ    T220415P01     202205267283-7028-30             CONNECTOR                CCN000009000000009000FN00000000020220501000009000NNE   20220418131333EJ  4N0N  00000300000001452000001681332EJ    EJYKBO  005600390040
BI00B32EJ    #T220415P01    202205267123-6423-30             CONNECTOR                CCN000024000000024000FN00000000020220501000024000NNE   20220418131327EJ  2F0F  00000200000001002000001167632EJ    EJYKBO  005600390023
BI00B32EJ    #T220415P01    202205267157-3821                RUBBER STOPPER           CCN000040000000040000FN00000000020220501000040000NNE   20220418131327EJ  2C0C  00002000000000176000000238032EJ    EJYKBO  002700430014
BI00B32EJ    #T220415P01    202205267158-3120-90             CONNECTOR WIRE SEAL      CCN000060000000060000FN00000000020220501000060000NNE   20220418131327EJ  2C0C  00002000000000136000000194032EJ    EJYKBO  002700430014
BI00B32EJ    #T220415P01    202205267283-8398-40             CONNECTOR                CCN000027720000027720FN00000000020220501000027720NNE   20220418131327EJ  2N0N  00000154000001007000001171332EJ    EJYKBO  005600390023
BI00B32EJ    T220415P02     202205267283-5843                CONNECTOR                CCN000015000000015000FN00000000020220501000015000NNE   20220418131349EJ  1N0N  00000150000000889000001132032EJ    EJYKBO  005600390040
BI00B32G7    JJ2206B MW     202205197114-4021                TERMINAL                 CCN000015000000015000FN00000000020220601000015000NNE   20220418134639    4P0P  00001500000000670500000964132G7    JIJAI   006400630015
BI00B32G7    JJ2206B MW     202205197116-5044-02             TERMINAL                 CCN000048000000048000FN00000000020220601000048000NNE   20220418134639    4P0P  00001600000000641600000986332G7    JIJAI   006400630017
BI00B32G7    JJ2206B MW     202205197116-5045-02             TERMINAL                 CCN000016000000016000FN00000000020220601000016000NNE   20220418134639    4P0P  00001600000000678400001007132G7    JIJAI   006400630017
BI00B32G7    JJ2206B MW     202205197116-5751-02             TERMINAL                 CCN000036000000036000FN00000000020220601000036000NNE   20220418134639    4P0P  00001200000000379200000664432G7    JIJAI   006400630015
BI00B32G7    JJ2206B MW     202205197116-6041                TERMINAL                 CCN000004500000004500FN00000000020220601000004500NNE   20220418134639    4P0P  00000450000000716000001009632G7    JIJAI   006400630015
BI00B32G7    JJ2206B MW     202205197158-3009-60             RUBBER STOPPER           CCN000040000000040000FN00000000020220601000040000NNE   20220418134639    1C0C  00002000000000338000000386232G7    JIJAI   002700430014
BI00B32G7    JJ2206B MW     202205197288-3331-30             HOUSING MALE             CCN000001500000001500FN00000000020220601000001500NNE   20220418134639    4N0N  00000150000000866000001010932G7    JIJAI   005400370024
BI00B32G7    JJ2206BMMW     202205197196-0396-02             TERMINAL                 CCN000030000000030000FN00000000020220601000030000NNE   20220418134655    4P0P  00001500000000949500001112932G7    JIJAI   002800510028
BI00B32H0    TT2206AVMW     202205037114-4032                TERMINAL                 CCN000007500000000000FY00000000020220601000000000NNEQ0820220418153221    4P0P  00000750000000735000001063632H0    TTTJY   006400630017
BI00B32H0    TT2206AVMW     202205037158-3022-80             RUBBER STOPPER           CCN000005000000000000FY00000000020220601000000000NNEQ0820220418153221    1C0C  00000500000000467500000524032H0    TTTJY   002700430014
BI00B32H0    TT2206AVMW     202205037173-3291-40             LIF LEVER                CCN000002400000000000FY00000000020220601000000000NNEQ0820220418153221    1F0F  00000240000000867800001067832H0    TTTJY   005500360039
BI00B32H0    TT2206AVMW     202205037196-1325-02             TERMINAL FEMALE          CCN000060000000000000FY00000000020220601000000000NNEQ0820220418153221    4P0P  00006000000000450000000778732H0    TTTJY   006400630017
BI00B32H0    TT2206AVMW     202205037196-1326-02             TERMINAL FEMALE          CCN000060000000000000FY00000000020220601000000000NNEQ0820220418153221    4P0P  00006000000000456000000784732H0    TTTJY   006400630017
BI00B32H0    TT2206AVMW     202205037289-6518-30             HOUSING FEMALE ASS'Y     CCN000002400000000000FY00000000020220601000000000NNEQ0820220418153221    1N0N  00000120000000829200001049232H0    TTTJY   005500360039
BI00B32H0    TT2206AVMW     202205037327-6809                MULTI FUSE               CCN000000560000000000FY00000000020220601000000000NNEQ0820220418153221    4N0N  00000056000000849300001061732H0    TTTJY   005400370024
BI00B32H0    TT2206AVMW     202205037327-6949-30             MULTI FUSE               CCN000000288000000000FY00000000020220601000000000NNEQ0820220418153221    4N00  00000028800000886700001052632H0    TTTJY   005400370024
BI00B32H0    TT2206AVMW     202205037327-6950-30             MULTI FUSE               CCN000000576000000000FY00000000020220601000000000NNEQ0820220418153221    4N00  00000028800000888700001054632H0    TTTJY   005400370024
BI00B32H0    TT2206AVMW     202205037327-6952-30             MULTI FUSE               CCN000000560000000000FY00000000020220601000000000NNEQ0820220418153221    4N0N  00000056000000848500001031532H0    TTTJY   005400370024
BI00B32H0    TT2206AVMW     202205037327-6954-30             MULTI FUSE               CCN000000600000000000FY00000000020220601000000000NNEQ0820220418153221    4N00  00000060000000751600000954332H0    TTTJY   005400370024
BI00B32H2    TIJ2061        202205137289-3342                HOUSING FEMALE ASS'Y     CCN000009600000009600FN00000000020220601000009600NNMD0420220418161037    1N0N  00000240000000686400000901432H2    HVYHV   005500360039
BI00B32H2    TIJ2062        202205207289-3342                HOUSING FEMALE ASS'Y     CCN000012000000012000FN00000000020220601000012000NNMD0420220418161112    1N0N  00000240000000686400000901432H2    HVYHV   005500360039
BI00B32H2    TIJ2063        202205277289-3342                HOUSING FEMALE ASS'Y     CCN000016800000016800FN00000000020220601000016800NNMD0420220418161142    1N0N  00000240000000686400000901432H2    HVYHV   005500360039
BI00B32H2    TIJ2064        202206027289-3342                HOUSING FEMALE ASS'Y     CCN000016800000016800FN00000000020220601000016800NNMD0420220418161221    1N0N  00000240000000686400000901432H2    HVYHV   005500360039
BI00B32H2    TIJ2061        202205137289-3342-90             HOUSING FEMALE ASS'Y     CCN000012000000012000FN00000000020220601000012000NNMD0420220418161037    1N0N  00000240000000686400000901432H2    HVYHV   005500360039
BI00B32H2    TIJ2063        202205277289-3342-90             HOUSING FEMALE ASS'Y     CCN000012000000012000FN00000000020220601000012000NNMD0420220418161142    1N0N  00000240000000686400000901432H2    HVYHV   005500360039
BI00A32H7    #FS22053DMW    202204227172-5630-40             RUBBER STOPPER           PCN000380000000380000FN00000000020220501000380000NNM00020220418134816    2H0H  00002000000000044000000095132H7    FYFSY   004300270014
BI00B32H7    FS2206ADMW     202205047158-3022-80             RUBBER STOPPER           CCN000005000000005000FN00000000020220601000005000NNE   20220418134738    1C0C  00000500000000467500000524032H7    FYFSY   002700430014
BI00B32H7    FS2206ADMW     202205047289-6597-70             HOUSING FEMALE ASS'Y     CCN000004320000004320FN00000000020220601000004320NNE   20220418134738    4N0N  00000216000001289500001539532H7    FYFSY   005500360039
BI00B32H7    FS2206ADMW     202205047297-3482                JOINT CONNECTOR          CCN000003200000003200FN00000000020220601000003200NNE   20220418134738    4N0N  00000080000000621000000730532H7    FYFSY   005400370024
BI00B32H7    FS2206ADMW     202205047327-6950-30             MULTI FUSE               CCN000001440000001440FN00000000020220601000001440NNE   20220418134738    4N00  00000028800000888700001054632H7    FYFSY   005400370024
BI00B32H7    FS2206ADMW     202205047327-6952-30             MULTI FUSE               CCN000001120000001120FN00000000020220601000001120NNE   20220418134738    4N0N  00000056000000848500001031532H7    FYFSY   005400370024
BI00B32H7    FS2206ADMW     202205047327-6954-30             MULTI FUSE               CCN000001200000001200FN00000000020220601000001200NNE   20220418134738    4N00  00000060000000751600000954332H7    FYFSY   005400370024
BI00B32H7    #FS2206ADMW    202205047154-5597-30             CASSETTE R/B             CCN000000800000000800FN00000000020220601000000800NNE   20220418134734    2F0F  00000080000000736000000952032H7    FYFSY   005500360039
BI00B32H7    #FS2206ADMW    202205047172-5625-90             RUBBER STOPPER           CCN000100000000100000FN00000000020220601000100000NNE   20220418134734    2H0H  00002000000000082400000133832H7    FYFSY   004300270014
BI00B32H7    #FS2206ADMW    202205047172-5628-80             DUMMY PLUG               CCN000120000000120000FN00000000020220601000120000NNE   20220418134734    2H0H  00002000000000110600000162032H7    FYFSY   004300270014
BI00B32H7    #FS2206ADMW    202205047172-5629-80             RUBBER STOPPER           CCN000260000000260000FN00000000020220601000260000NNE   20220418134734    2H0H  00002000000000060000000111132H7    FYFSY   004300270014
BI00B32H7    #FS2206ADMW    202205047172-5632-10             DUMMY PLUG               CCN000160000000160000FN00000000020220601000160000NNE   20220418134734    2H0H  00002000000000080400000131832H7    FYFSY   004300270014
BI00B32H8    #TY2206A MW    202205067183-2416                HOUSING                  CCN000002400000002400FN00000000020220601000002400NNE   20220418134803    2F0F  00000240000001495200001771032H8    TYTYC   005500360039
BI00B32H8    #TY2206A MW    202205067183-2511                HOUSING                  CCN000001600000001600FN00000000020220601000001600NNE   20220418134803    2F0F  00000160000000972200001242132H8    TYTYC   005500360039
BI00B32H8    #TY2206AIMW    202205067282-1150-30             CONNECTOR MALE ASS'Y     CCN000001800000001800FN00000000020220601000001800NNE   20220418134905    2N0N  00000060000000688800000800032H8    TYTYC   005400370024
BI00B32J1    393732         202205307114-4032                TERMINAL                 CCN000007500000007500FN00000000020220501000007500NNE   20220418120555    4P0P  00000750000000735000001063632J1    UKYEL-BL006400630017
BI00B32J1    393732         202205307283-1968-30             CONNECTOR                CCN000000900000000900FN00000000020220501000000900NNE   20220418120555    1N0N  00000090000001140000001318332J1    UKYEL-BL005600390040
BI00B32J1    393732         202205307283-7023-10             CONNECTOR                CCN000002500000002500FN00000000020220501000002500NNE   20220418120555    4N0N  00000250000001360000001550032J1    UKYEL-BL005500360039
BI00B32J1    #393732        202205307158-3003-90             RUBBER STOPPER           CCN000020000000020000FN00000000020220501000020000NNE   20220418120555    2C0C  00002000000000250000000306032J1    UKYEL-BL002700430014
BI00B32J1    #393732        202205307158-3004-40             RUBBER STOPPER           CCN000020000000020000FN00000000020220501000020000NNE   20220418120555    2C0C  00002000000000234000000306332J1    UKYEL-BL002700430014
BI00B32J1    #393732        202205307183-7725-40             HOUSING                  CCN000018000000018000FN00000000020220501000018000NNE   20220418120555    2F0F  00000600000000840000001040032J1    UKYEL-BL005600390040
BI00B32J1    393705         202205097114-1475                TERMINAL                 CCN000027000000027000FN00000000020220501000027000NNM   20220418120555    4P0P  00001350000000480600000774232J1    UKYEL-BL006400630015
BI00B32J1    393705         202205097114-1670-02             TERMINAL                 CCN000024000000024000FN00000000020220501000024000NNM   20220418120555    1P0P  00002400000000357600000645832J1    UKYEL-BL006400630015
BI00B32J1    393705         202205097116-4020                TERMINAL                 CCN000027000000027000FN00000000020220501000027000NNM   20220418120555    4P0P  00001350000000513000000798232J1    UKYEL-BL006400630015
BI00B32J1    393705         202205097116-6042                TERMINAL                 CCN000009000000009000FN00000000020220501000009000NNM   20220418120555    4P0P  00000300000000523800000856132J1    UKYEL-BL006400630015
BI00B32J1    393705         202205097158-3070-80             RUBBER STOPPER           CCN000040000000040000FN00000000020220501000040000NNM   20220418120555    1C0C  00004000000000276000000333332J1    UKYEL-BL002700430014
BI00B32J1    393705         202205097158-3166-60             WIRE SEAL                CCN002160000002160000FN00000000020220501002160000NNM   20220418120555    1C0C  00004000000000104000000152432J1    UKYEL-BL002700430014
BI00B32J1    393705         202205097158-3167-61             WIRE SEAL                CCN000580000000580000FN00000000020220501000580000NNM   20220418120555    1C0C  00002000000000048000000096432J1    UKYEL-BL004300270014
BI00B32J1    393705         202205097158-3167-80             WIRE SEAL                CCN002640000002640000FN00000000020220501002640000NNM   20220418120555    1C0C  00002000000000048000000109032J1    UKYEL-BL002700430014
BI00B32J1    393705         202205097158-3168-80             SEALED                   CCN000300000000300000FN00000000020220501000300000NNM   20220418120555    1C0C  00002000000000044000000092132J1    UKYEL-BL004300260014
BI00B32J1    393705         202205097196-0104-02             TERMINAL                 CCN000038000000038000FN00000000020220501000038000NNM   20220418120555    4P0P  00003800000000570000000956432J1    UKYEL-BL006400630017
BI00B32J1    393705         202205097196-1461-06             TERMINAL FEMALE          CCN000456000000456000FN00000000020220501000456000NNM   20220418120555    4P0P  00002400000000386400000692932J1    UKYEL-BL006400630015
BI00B32J1    393705         202205097282-5574-10             CONNECTOR                CCN000008000000008000FN00000000020220501000008000NNM   20220418120555    4N0N  00000080000001235000001423032J1    UKYEL-BL005600390040
BI00B32J1    393705         202205097282-6448-40             CONNECTOR                CCN000004800000004800FN00000000020220501000004800NNM   20220418120555    4N0N  00000080000000887000001152732J1    UKYEL-BL005600390040
BI00B32J1    393705         202205097283-6388-40             CONNECTOR                CCN000004000000004000FN00000000020220501000004000NNM   20220418120555    4N0N  00000200000001029000001173532J1    UKYEL-BL005500360039
BI00B32J1    393705         202205097283-6448-40             CONNECTOR                CCN000001500000001500FN00000000020220501000001500NNM   20220418120555    4N0N  00000150000001087000001329032J1    UKYEL-BL005600390040
BI00B32J1    393705         202205097288-7969                HYBRID MALE ASS'Y        CCN000013120000013120FN00000000020220501000013120NNM   20220418120555    1N0N  00000032000000876200001101732J1    UKYEL-BL005400370024
BI00B32J1    393705         202205097289-5000                HOUSING FEMALE ASS'Y     CCN000001216000001216FN00000000020220501000001216NNM   20220418120555    1N0N  00000030400000549000000759032J1    UKYEL-BL005400370024
BI00B32J1    #393705        202205097047-5344                RETAINER                 CCN000040000000040000FN00000000020220501000040000NNM   20220418120555    2F0F  00001000000000870000001016032J1    UKYEL-BL005600390023
BI00B32J1    #393705        202205097158-3120-90             CONNECTOR WIRE SEAL      CCN000120000000120000FN00000000020220501000120000NNM   20220418120555    2C0C  00002000000000136000000194032J1    UKYEL-BL002700430014
BI00B32J1    #393705        202205097174-1515                FRONT DOOR COVER         CCN000012000000012000FN00000000020220501000012000NNM   20220418120555    2F0F  00000060000000490200000610232J1    UKYEL-BL005500360039
BI00B32J1    #393705        202205097282-4192-40             CONNECTOR                CCN000004080000004080FN00000000020220501000004080NNM   20220418120555    2N0N  00000024000000801000001083732J1    UKYEL-BL005600390040
BI00B32J1    #393705        202205097282-6446-30             CONNECTOR                CCN000003000000003000FN00000000020220501000003000NNM   20220418120555    2N0N  00000150000001185000001335032J1    UKYEL-BL005500360039
BI00B32J1    #393705        202205097282-6446-40             CONNECTOR                CCN000007500000007500FN00000000020220501000007500NNM   20220418120555    2N0N  00000150000001185000001368032J1    UKYEL-BL005500360039
BI00B32J1    #393705        202205097283-4192-40             CONNECTOR                CCN000007680000007680FN00000000020220501000007680NNM   20220418120555    2N0N  00000024000000846000000986032J1    UKYEL-BL005600390040
BI00B32J1    #393705        202205097283-8397-40             CONNECTOR                CCN000001540000001540FN00000000020220501000001540NNM   20220418120555    2N0N  00000154000001007000001222732J1    UKYEL-BL005600390023
BI00B32K8    #K3220012373   202204297114-8527-02             PDB BUSBAR               CCN000000112000000112FN00000000020220501000000112NNE   20220418120555    2F0F  00000011200000432500000566932K8    ELELCOM 005500360039
BI00B32K8    #K1220010797   202205207137-2200                CONNECTOR PACKING        CCN000005000000005000FN00000000020220701000005000NNM   20220418134722    2C0C  00000500000000136000000211332K8    ELELCOM 004300270014
BI00B32K8    #K1220010797   202205207137-2718-50             SEALED CONNECTOR         CCN000003000000003000FN00000000020220701000003000NNM   20220418134722    2C0C  00000100000000118300000236632K8    ELELCOM 002700430014
BI00B32M1    TCV205A        202204287114-5747-02             TERMINAL                 CCN000054000000054000FN00000000020220501000054000NNE   20220418134949    4P0P  00001800000000626400000920032M1    VNYEV   006400630015
BI00B32M1    TCV205A        202204287116-4031                TERMINAL                 CCN000045000000045000FN00000000020220501000045000NNE   20220418134949    4P0P  00000750000000619500000904732M1    VNYEV   006400630015
BI00B32M1    TCV205A        202204287116-5752-02             TERMINAL                 CCN000126000000126000FN00000000020220501000126000NNE   20220418134949    4P0P  00002100000000571200000856432M1    VNYEV   006400630015
BI00B32M1    TCV205A        202205057282-4854-40             HOUSING MALE ASS'Y       CCN000006000000006000FN00000000020220501000006000NNED0720220418135008    4N0N  00000120000000698900000908832M1    VNYEV   005500360039
BI00B32M1    #TCVL205B      202205057183-0521                HOUSING                  CCN000009600000009600FN00000000020220501000009600NNED0720220418140948    2F0F  00000480000001367500001585032M1    VNYEV   005500360039
BI00B32M1    #TCVL205B      202205057183-0522                HOUSING                  CCN000007200000007200FN00000000020220501000007200NNED0720220418140948    2F0F  00000240000000951000001230032M1    VNYEV   005500360039
BI00A32P8    TAPI-204B      202204207327-6890-3W             BATTERY FUSE             CCN000000144000000144FN00000000020220401000000144NNE   20220418165145    4N0N  00000007200001140800001355632P8    YIYTM   005500360039
BI00B32Q8    EU2206ETMW     202205187196-1064-02             TERMINAL FEMALE          CCN000006000000006000FN00000000020220601000006000NNE   20220418135050    4P0P  00000600000000570000000855232Q8    EMEMI   006400630015
BI00B32Q8    EU2206ETMW     202205187196-1326-02             TERMINAL FEMALE          CCN000015000000060000FN00000000020220601000060000NNE   20220418135050    4P0P  00006000000000456000000784732Q8    EMEMI   006400630017
BI00B32Q8    EU2206ETMW     202205187327-6952-30             MULTI FUSE               CCN000000560000000560FN00000000020220601000000560NNE   20220418135050    4N0N  00000056000000848500001031532Q8    EMEMI   005400370024
BI00B32Q8    #EU2206ETMW    202205187172-5625-90             RUBBER STOPPER           CCN000020000000020000FN00000000020220601000020000NNE   20220418135047    2H0H  00002000000000082400000133832Q8    EMEMI   004300270014
BI00B32Q8    EU2206G MW     202205187116-4102-02             TERMINAL                 CCN000012000000012000FN00000000020220601000012000NNE   20220418135127    4P0P  00001200000000553200000841432Q8    EMEMI   006400630015
BI00B32Q8    #EU2206G MW    202205187123-6423-30             CONNECTOR                CCN000002000000002000FN00000000020220601000002000NNE   20220418135124    2F0F  00000200000001002000001167632Q8    EMEMI   005600390023
BI00B32Q8    #EU2206G MW    202205187283-8123                CONNECTOR HOUSING        CCN000004000000004000FN00000000020220601000004000NNE   20220418135124    2N0N  00000400000000380000000531732Q8    EMEMI   005600390023
BI00B32Q8    EU22073 MW     202206157017-1180-02             TERMINAL                 CCN000216000000216000FN00000000020220701000216000NNM   20220418135220    4P0P  00007200000001065600001229032Q8    EMEMI   005100280028
BI00B32Q8    EU22074 MW     202206227017-1180-02             TERMINAL                 CCN000216000000216000FN00000000020220701000216000NNM   20220418135220    4P0P  00007200000001065600001229032Q8    EMEMI   005100280028
BI00B32Q8    EU22074 MW     202206227017-1181-02             TERMINAL                 CCN000189000000189000FN00000000020220701000189000NNM   20220418135220    4P0P  00006300000001089900001266832Q8    EMEMI   005100280028
BI00B32Q8    EU22073 MW     202206157017-1182-02             TERMINAL                 CCN000135000000135000FN00000000020220701000135000NNM   20220418135220    4P0P  00004500000001165500001318632Q8    EMEMI   005100280028
BI00B32Q8    EU22074 MW     202206227017-1182-02             TERMINAL                 CCN000090000000090000FN00000000020220701000090000NNM   20220418135220    4P0P  00004500000001165500001318632Q8    EMEMI   005100280028
BI00B32Q8    EU22072 MW     202206087017-1183-02             TERMINAL                 CCN000027000000027000FN00000000020220701000027000NNM   20220418135220    4P0P  00002700000001139400001307432Q8    EMEMI   005100280028
BI00B32Q8    EU22073 MW     202206157017-1183-02             TERMINAL                 CCN000027000000027000FN00000000020220701000027000NNM   20220418135220    4P0P  00002700000001139400001307432Q8    EMEMI   005100280028
BI00B32Q8    EU22073 MW     202206157114-4021                TERMINAL                 CCN000045000000045000FN00000000020220701000045000NNM   20220418135220    4P0P  00001500000000670500000964132Q8    EMEMI   006400630015
BI00B32Q8    EU22074 MW     202206227114-4021                TERMINAL                 CCN000045000000045000FN00000000020220701000045000NNM   20220418135220    4P0P  00001500000000670500000964132Q8    EMEMI   006400630015
BI00B32Q8    EU22073 MW     202206157114-4031                TERMINAL                 CCN000010500000010500FN00000000020220701000010500NNM   20220418135220    4P0P  00001050000000966000001294632Q8    EMEMI   006400630017
BI00B32Q8    EU22072 MW     202206087114-4100-02             TERMINAL                 CCN000036000000036000FN00000000020220701000036000NNM   20220418135220    4P0P  00001800000000748800001077432Q8    EMEMI   006400630017
BI00B32Q8    EU22073 MW     202206157114-4100-02             TERMINAL                 CCN000072000000072000FN00000000020220701000072000NNM   20220418135220    4P0P  00001800000000748800001077432Q8    EMEMI   006400630017
BI00B32Q8    EU22074 MW     202206227114-4100-02             TERMINAL                 CCN000054000000054000FN00000000020220701000054000NNM   20220418135220    4P0P  00001800000000748800001077432Q8    EMEMI   006400630017
BI00B32Q8    EU22071 MW     202206017114-4110-02             TERMINAL                 CCN000015000000015000FN00000000020220701000015000NNM   20220418135220    4P0P  00001500000000901500001230132Q8    EMEMI   006400630017
BI00B32Q8    EU22073 MW     202206157114-4110-02             TERMINAL                 CCN000015000000015000FN00000000020220701000015000NNM   20220418135220    4P0P  00001500000000901500001230132Q8    EMEMI   006400630017
BI00B32Q8    EU22074 MW     202206227114-4110-02             TERMINAL                 CCN000015000000015000FN00000000020220701000015000NNM   20220418135220    4P0P  00001500000000901500001230132Q8    EMEMI   006400630017
BI00B32Q8    EU22072 MW     202206087114-4111-02             TERMINAL                 CCN000024000000024000FN00000000020220701000024000NNM   20220418135220    4P0P  00001200000000758400001087032Q8    EMEMI   006400630017
BI00B32Q8    EU22073 MW     202206157114-4111-02             TERMINAL                 CCN000036000000036000FN00000000020220701000036000NNM   20220418135220    4P0P  00001200000000758400001087032Q8    EMEMI   006400630017
BI00B32Q8    EU22074 MW     202206227114-4111-02             TERMINAL                 CCN000024000000024000FN00000000020220701000024000NNM   20220418135220    4P0P  00001200000000758400001087032Q8    EMEMI   006400630017
BI00B32Q8    EU22072 MW     202206087114-4112-02             TERMINAL                 CCN000018000000018000FN00000000020220701000018000NNM   20220418135220    4P0P  00000900000000598500000927132Q8    EMEMI   006400630017
BI00B32Q8    EU22073 MW     202206157114-4112-02             TERMINAL                 CCN000018000000018000FN00000000020220701000018000NNM   20220418135220    4P0P  00000900000000598500000927132Q8    EMEMI   006400630017
BI00B32Q8    EU22074 MW     202206227114-4112-02             TERMINAL                 CCN000018000000018000FN00000000020220701000018000NNM   20220418135220    4P0P  00000900000000598500000927132Q8    EMEMI   006400630017
BI00B32Q8    EU22073 MW     202206157114-4415-02             TERMINAL MALE            CCN000054000000054000FN00000000020220701000054000NNM   20220418135220    4P0P  00002700000000429300000717532Q8    EMEMI   006400630015
BI00B32Q8    EU22072 MW     202206087114-4729-02             TERMINAL                 CCN000120000000120000FN00000000020220701000120000NNM   20220418135220    4P0P  00003000000000516000000810232Q8    EMEMI   006400630015
BI00B32Q8    EU22073 MW     202206157114-4729-02             TERMINAL                 CCN000150000000150000FN00000000020220701000150000NNM   20220418135220    4P0P  00003000000000516000000810232Q8    EMEMI   006400630015
BI00B32Q8    EU22074 MW     202206227114-4729-02             TERMINAL                 CCN000150000000150000FN00000000020220701000150000NNM   20220418135220    4P0P  00003000000000516000000810232Q8    EMEMI   006400630015
BI00B32Q8    EU22073 MW     202206157114-5747-02             TERMINAL                 CCN000018000000018000FN00000000020220701000018000NNM   20220418135220    4P0P  00001800000000626400000920032Q8    EMEMI   006400630015
BI00B32Q8    EU22074 MW     202206227114-5747-02             TERMINAL                 CCN000054000000054000FN00000000020220701000054000NNM   20220418135220    4P0P  00001800000000626400000920032Q8    EMEMI   006400630015
BI00B32Q8    EU22073 MW     202206157114-5748-02             TERMINAL                 CCN000048000000048000FN00000000020220701000048000NNM   20220418135220    4P0P  00001200000000444000000737632Q8    EMEMI   006400630015
BI00B32Q8    EU22074 MW     202206227114-5748-02             TERMINAL                 CCN000048000000048000FN00000000020220701000048000NNM   20220418135220    4P0P  00001200000000444000000737632Q8    EMEMI   006400630015
BI00B32Q8    EU22073 MW     202206157114-6041                TERMINAL                 CCN000003600000003600FN00000000020220701000003600NNM   20220418135220    4P0P  00000360000000580700000824232Q8    EMEMI   006400630015
BI00B32Q8    EU22074 MW     202206227114-6041                TERMINAL                 CCN000003600000003600FN00000000020220701000003600NNM   20220418135220    4P0P  00000360000000580700000824232Q8    EMEMI   006400630015
BI00B32Q8    EU22074 MW     202206227116-1685-02             TERMINAL                 CCN000024000000024000FN00000000020220701000024000NNM   20220418135220    4P0P  00002400000000897600001065232Q8    EMEMI   005100280028
BI00B32Q8    EU22074 MW     202206227116-1686-02             TERMINAL                 CCN000021000000021000FN00000000020220701000021000NNM   20220418135220    4P0P  00002100000000869400001021632Q8    EMEMI   005100280028
BI00B32Q8    EU22072 MW     202206087116-2891-02             TERMINAL                 CCN000045000000045000FN00000000020220701000045000NNM   20220418135220    4P0P  00001500000000982500001145932Q8    EMEMI   005100280028
BI00B32Q8    EU22073 MW     202206157116-2891-02             TERMINAL                 CCN000060000000060000FN00000000020220701000060000NNM   20220418135220    4P0P  00001500000000982500001145932Q8    EMEMI   005100280028
BI00B32Q8    EU22074 MW     202206227116-2891-02             TERMINAL                 CCN000060000000060000FN00000000020220701000060000NNM   20220418135220    4P0P  00001500000000982500001145932Q8    EMEMI   005100280028
BI00B32Q8    EU22074 MW     202206227116-2892-02             TERMINAL                 CCN000036000000036000FN00000000020220701000036000NNM   20220418135220    4P0P  00001200000000818400000981832Q8    EMEMI   005100280028
BI00B32Q8    EU22073 MW     202206157116-2893-02             TERMINAL                 CCN000072000000072000FN00000000020220701000072000NNM   20220418135220    4P0P  00001200000000895200001058632Q8    EMEMI   005100280028
BI00B32Q8    EU22074 MW     202206227116-2893-02             TERMINAL                 CCN000132000000132000FN00000000020220701000132000NNM   20220418135220    4P0P  00001200000000895200001058632Q8    EMEMI   005100280028
BI00B32Q8    EU22072 MW     202206087116-3154-08             TERMINAL                 CCN000027000000027000FN00000000020220701000027000NNM   20220418135220    4P0P  00002700000000475200000760432Q8    EMEMI   006400630015
BI00B32Q8    EU22073 MW     202206157116-3154-08             TERMINAL                 CCN000027000000027000FN00000000020220701000027000NNM   20220418135220    4P0P  00002700000000475200000760432Q8    EMEMI   006400630015
BI00B32Q8    EU22074 MW     202206227116-3154-08             TERMINAL                 CCN000027000000027000FN00000000020220701000027000NNM   20220418135220    4P0P  00002700000000475200000760432Q8    EMEMI   006400630015
BI00B32Q8    EU22074 MW     202206227116-4025                TERMINAL                 CCN000048000000048000FN00000000020220701000048000NNM   20220418135220    4P0P  00001600000000644800000975132Q8    EMEMI   006400630017
BI00B32Q8    EU22074 MW     202206227116-4026                TERMINAL                 CCN000016000000016000FN00000000020220701000016000NNM   20220418135220    4P0P  00001600000000664000000994332Q8    EMEMI   006400630017
BI00B32Q8    EU22073 MW     202206157116-4028-08             TERMINAL FEMALE          CCN000288000000288000FN00000000020220701000288000NNM   20220418135220    4P0P  00001600000000652800000981532Q8    EMEMI   006400630017
BI00B32Q8    EU22074 MW     202206227116-4028-08             TERMINAL FEMALE          CCN000208000000208000FN00000000020220701000208000NNM   20220418135220    4P0P  00001600000000652800000981532Q8    EMEMI   006400630017
BI00B32Q8    EU22073 MW     202206157116-4032                TERMINAL                 CCN000018000000018000FN00000000020220701000018000NNM   20220418135220    4P0P  00000600000000532800000818032Q8    EMEMI   006400630015
BI00B32Q8    EU22074 MW     202206227116-4032                TERMINAL                 CCN000042000000042000FN00000000020220701000042000NNM   20220418135220    4P0P  00000600000000532800000818032Q8    EMEMI   006400630015
BI00B32Q8    EU22071 MW     202206017116-4102-02             TERMINAL                 CCN000012000000012000FN00000000020220701000012000NNM   20220418135220    4P0P  00001200000000553200000841432Q8    EMEMI   006400630015
BI00B32Q8    EU22072 MW     202206087116-4102-02             TERMINAL                 CCN000024000000024000FN00000000020220701000024000NNM   20220418135220    4P0P  00001200000000553200000841432Q8    EMEMI   006400630015
BI00B32Q8    EU22073 MW     202206157116-4102-02             TERMINAL                 CCN000024000000024000FN00000000020220701000024000NNM   20220418135220    4P0P  00001200000000553200000841432Q8    EMEMI   006400630015
BI00B32Q8    EU22074 MW     202206227116-4102-02             TERMINAL                 CCN000024000000024000FN00000000020220701000024000NNM   20220418135220    4P0P  00001200000000553200000841432Q8    EMEMI   006400630015
BI00B32Q8    EU22071 MW     202206017116-4121-02             TERMINAL                 CCN000027000000027000FN00000000020220701000027000NNM   20220418135220    4P0P  00000450000000618800000912432Q8    EMEMI   006400630015
BI00B32Q8    EU22072 MW     202206087116-4121-02             TERMINAL                 CCN000022500000022500FN00000000020220701000022500NNM   20220418135220    4P0P  00000450000000618800000912432Q8    EMEMI   006400630015
BI00B32Q8    EU22073 MW     202206157116-4121-02             TERMINAL                 CCN000027000000027000FN00000000020220701000027000NNM   20220418135220    4P0P  00000450000000618800000912432Q8    EMEMI   006400630015
BI00B32Q8    EU22074 MW     202206227116-4121-02             TERMINAL                 CCN000022500000022500FN00000000020220701000022500NNM   20220418135220    4P0P  00000450000000618800000912432Q8    EMEMI   006400630015
BI00B32Q8    EU22071 MW     202206017116-4122-02             TERMINAL                 CCN000013500000013500FN00000000020220701000013500NNM   20220418135220    4P0P  00000450000000656600000950232Q8    EMEMI   006400630015
BI00B32Q8    EU22072 MW     202206087116-4122-02             TERMINAL                 CCN000009000000009000FN00000000020220701000009000NNM   20220418135220    4P0P  00000450000000656600000950232Q8    EMEMI   006400630015
BI00B32Q8    EU22073 MW     202206157116-4122-02             TERMINAL                 CCN000009000000009000FN00000000020220701000009000NNM   20220418135220    4P0P  00000450000000656600000950232Q8    EMEMI   006400630015
BI00B32Q8    EU22074 MW     202206227116-4122-02             TERMINAL                 CCN000004500000004500FN00000000020220701000004500NNM   20220418135220    4P0P  00000450000000656600000950232Q8    EMEMI   006400630015
BI00B32Q8    EU22071 MW     202206017116-4231-02             TERMINAL                 CCN000026000000026000FN00000000020220701000026000NNM   20220418135220    4P0P  00002600000000683800001012532Q8    EMEMI   006400630017
BI00B32Q8    EU22072 MW     202206087116-4231-02             TERMINAL                 CCN000078000000078000FN00000000020220701000078000NNM   20220418135220    4P0P  00002600000000683800001012532Q8    EMEMI   006400630017
BI00B32Q8    EU22073 MW     202206157116-4231-02             TERMINAL                 CCN000078000000078000FN00000000020220701000078000NNM   20220418135220    4P0P  00002600000000683800001012532Q8    EMEMI   006400630017
BI00B32Q8    EU22074 MW     202206227116-4231-02             TERMINAL                 CCN000078000000078000FN00000000020220701000078000NNM   20220418135220    4P0P  00002600000000683800001012532Q8    EMEMI   006400630017
BI00B32Q8    EU22072 MW     202206087116-4415-02             TERMINAL                 CCN000038000000038000FN00000000020220701000038000NNM   20220418135220    4P0P  00003800000000596600000925732Q8    EMEMI   006400630017
BI00B32Q8    EU22073 MW     202206157116-4415-02             TERMINAL                 CCN000266000000266000FN00000000020220701000266000NNM   20220418135220    4P0P  00003800000000596600000925732Q8    EMEMI   006400630017
BI00B32Q8    EU22074 MW     202206227116-4415-02             TERMINAL                 CCN000228000000228000FN00000000020220701000228000NNM   20220418135220    4P0P  00003800000000596600000925732Q8    EMEMI   006400630017
BI00B32Q8    EU22074 MW     202206227116-4416-02             TERMINAL                 CCN000160000000160000FN00000000020220701000160000NNM   20220418135220    4P0P  00003200000000518400000847132Q8    EMEMI   006400630017
BI00B32Q8    EU22073 MW     202206157116-5045-02             TERMINAL                 CCN000080000000080000FN00000000020220701000080000NNM   20220418135220    4P0P  00001600000000678400001007132Q8    EMEMI   006400630017
BI00B32Q8    EU22074 MW     202206227116-5045-02             TERMINAL                 CCN000464000000464000FN00000000020220701000464000NNM   20220418135220    4P0P  00001600000000678400001007132Q8    EMEMI   006400630017
BI00B32Q8    EU22073 MW     202206157116-5751-02             TERMINAL                 CCN000156000000156000FN00000000020220701000156000NNM   20220418135220    4P0P  00001200000000379200000664432Q8    EMEMI   006400630015
BI00B32Q8    EU22074 MW     202206227116-5751-02             TERMINAL                 CCN000216000000216000FN00000000020220701000216000NNM   20220418135220    4P0P  00001200000000379200000664432Q8    EMEMI   006400630015
BI00B32Q8    EU22071 MW     202206017116-6041                TERMINAL                 CCN000009000000009000FN00000000020220701000009000NNM   20220418135220    4P0P  00000450000000716000001009632Q8    EMEMI   006400630015
BI00B32Q8    EU22072 MW     202206087116-6041                TERMINAL                 CCN000013500000013500FN00000000020220701000013500NNM   20220418135220    4P0P  00000450000000716000001009632Q8    EMEMI   006400630015
BI00B32Q8    EU22073 MW     202206157116-6041                TERMINAL                 CCN000013500000013500FN00000000020220701000013500NNM   20220418135220    4P0P  00000450000000716000001009632Q8    EMEMI   006400630015
BI00B32Q8    EU22074 MW     202206227116-6041                TERMINAL                 CCN000013500000013500FN00000000020220701000013500NNM   20220418135220    4P0P  00000450000000716000001009632Q8    EMEMI   006400630015
BI00B32Q8    EU22073 MW     202206157116-6042                TERMINAL                 CCN000051000000051000FN00000000020220701000051000NNM   20220418135220    4P0P  00000300000000523800000856132Q8    EMEMI   006400630015
BI00B32Q8    EU22074 MW     202206227116-6042                TERMINAL                 CCN000054000000054000FN00000000020220701000054000NNM   20220418135220    4P0P  00000300000000523800000856132Q8    EMEMI   006400630015
BI00B32Q8    EU22074 MW     202206227126-8853-02             TERMINAL                 CCN000105000000105000FN00000000020220701000105000NNM   20220418135220    4P0P  00000750000000562500000847732Q8    EMEMI   006400630015
BI00B32Q8    EU22073 MW     202206157126-8854-02             TERMINAL                 CCN000067500000067500FN00000000020220701000067500NNM   20220418135220    4P0P  00000750000000604500000889732Q8    EMEMI   006400630015
BI00B32Q8    EU22074 MW     202206227126-8854-02             TERMINAL                 CCN000090000000090000FN00000000020220701000090000NNM   20220418135220    4P0P  00000750000000604500000889732Q8    EMEMI   006400630015
BI00B32Q8    EU22074 MW     202206227126-8855-02             TERMINAL                 CCN000036000000036000FN00000000020220701000036000NNM   20220418135220    4P0P  00000600000000510600000795832Q8    EMEMI   006400630015
BI00B32Q8    EU22074 MW     202206227158-3006-90             RUBBER STOPPER           CCN000380000000380000FN00000000020220701000380000NNM   20220418135220    1C0C  00002000000000330600000386032Q8    EMEMI   002700430014
BI00B32Q8    EU22073 MW     202206157158-3009-60             RUBBER STOPPER           CCN000320000000320000FN00000000020220701000320000NNM   20220418135220    1C0C  00002000000000338000000386232Q8    EMEMI   002700430014
BI00B32Q8    EU22074 MW     202206227158-3009-60             RUBBER STOPPER           CCN000580000000580000FN00000000020220701000580000NNM   20220418135220    1C0C  00002000000000338000000386232Q8    EMEMI   002700430014
BI00B32Q8    EU22072 MW     202206087158-3022-80             RUBBER STOPPER           CCN000005000000005000FN00000000020220701000005000NNM   20220418135220    1C0C  00000500000000467500000524032Q8    EMEMI   002700430014
BI00B32Q8    EU22073 MW     202206157158-3022-80             RUBBER STOPPER           CCN000010000000010000FN00000000020220701000010000NNM   20220418135220    1C0C  00000500000000467500000524032Q8    EMEMI   002700430014
BI00B32Q8    EU22074 MW     202206227158-3022-80             RUBBER STOPPER           CCN000005000000005000FN00000000020220701000005000NNM   20220418135220    1C0C  00000500000000467500000524032Q8    EMEMI   002700430014
BI00B32Q8    EU22072 MW     202206087158-3166-60             WIRE SEAL                CCN000960000000960000FN00000000020220701000960000NNM   20220418135220    1C0C  00004000000000104000000152432Q8    EMEMI   002700430014
BI00B32Q8    EU22073 MW     202206157158-3166-60             WIRE SEAL                CCN001800000001800000FN00000000020220701001800000NNM   20220418135220    1C0C  00004000000000104000000152432Q8    EMEMI   002700430014
BI00B32Q8    EU22074 MW     202206227158-3166-60             WIRE SEAL                CCN001480000001480000FN00000000020220701001480000NNM   20220418135220    1C0C  00004000000000104000000152432Q8    EMEMI   002700430014
BI00B32Q8    EU22073 MW     202206157158-3167-80             WIRE SEAL                CCN000380000000380000FN00000000020220701000380000NNM   20220418135220    1C0C  00002000000000048000000109032Q8    EMEMI   002700430014
BI00B32Q8    EU22074 MW     202206227158-3167-80             WIRE SEAL                CCN000520000000520000FN00000000020220701000520000NNM   20220418135220    1C0C  00002000000000048000000109032Q8    EMEMI   002700430014
BI00B32Q8    EU22072 MW     202206087158-3168-80             SEALED                   CCN000040000000040000FN00000000020220701000040000NNM   20220418135220    1C0C  00002000000000044000000092132Q8    EMEMI   004300260014
BI00B32Q8    EU22073 MW     202206157158-3168-80             SEALED                   CCN000040000000040000FN00000000020220701000040000NNM   20220418135220    1C0C  00002000000000044000000092132Q8    EMEMI   004300260014
BI00B32Q8    EU22074 MW     202206227158-3168-80             SEALED                   CCN000040000000040000FN00000000020220701000040000NNM   20220418135220    1C0C  00002000000000044000000092132Q8    EMEMI   004300260014
BI00B32Q8    EU22073 MW     202206157158-3169-40             SEALING PLUG             CCN000200000000200000FN00000000020220701000200000NNM   20220418135220    1C0C  00004000000000156000000204132Q8    EMEMI   004300260014
BI00B32Q8    EU22074 MW     202206227158-3169-40             SEALING PLUG             CCN000280000000280000FN00000000020220701000280000NNM   20220418135220    1C0C  00004000000000156000000204132Q8    EMEMI   004300260014
BI00B32Q8    EU22072 MW     202206087196-0805-02             TERMINAL FEMALE          CCN000022500000022500FN00000000020220701000022500NNM   20220418135220    4P0P  00002250000000558000000843232Q8    EMEMI   006400630015
BI00B32Q8    EU22073 MW     202206157196-0805-02             TERMINAL FEMALE          CCN000022500000022500FN00000000020220701000022500NNM   20220418135220    4P0P  00002250000000558000000843232Q8    EMEMI   006400630015
BI00B32Q8    EU22074 MW     202206227196-0805-02             TERMINAL FEMALE          CCN000022500000022500FN00000000020220701000022500NNM   20220418135220    4P0P  00002250000000558000000843232Q8    EMEMI   006400630015
BI00B32Q8    EU22073 MW     202206157282-1065                CONNECTOR                CCN000001500000001500FN00000000020220701000001500NNM   20220418135220    1N0N  00000150000000795000001012032Q8    EMEMI   005600390040
BI00B32Q8    EU22074 MW     202206227282-1065                CONNECTOR                CCN000001500000001500FN00000000020220701000001500NNM   20220418135220    1N0N  00000150000000795000001012032Q8    EMEMI   005600390040
BI00B32Q8    EU22071 MW     202206017283-1020                CONNECTOR                CCN000006000000006000FN00000000020220701000006000NNM   20220418135220    4N0N  00000600000000840000001049332Q8    EMEMI   005600390040
BI00B32Q8    EU22074 MW     202206227283-5843                CONNECTOR                CCN000001500000001500FN00000000020220701000001500NNM   20220418135220    1N0N  00000150000000889000001132032Q8    EMEMI   005600390040
BI00B32Q8    EU22072 MW     202206087283-7526-30             CONNECTOR HOUSING        CCN000001960000001960FN00000000020220701000001960NNM   20220418135220    4N0N  00000196000000989800001248632Q8    EMEMI   005500360039
BI00B32Q8    EU22073 MW     202206157283-7526-30             CONNECTOR HOUSING        CCN000001960000001960FN00000000020220701000001960NNM   20220418135220    4N0N  00000196000000989800001248632Q8    EMEMI   005500360039
BI00B32Q8    EU22074 MW     202206227283-7526-30             CONNECTOR HOUSING        CCN000003920000003920FN00000000020220701000003920NNM   20220418135220    4N0N  00000196000000989800001248632Q8    EMEMI   005500360039
BI00B32Q8    #EU22072 MW    202206087114-4022                TERMINAL                 CCN000045000000045000FN00000000020220701000045000NNM   20220418135207    2F0P  00001500000000708000001120632Q8    EMEMI   006400630015
BI00B32Q8    #EU22073 MW    202206157114-4022                TERMINAL                 CCN000060000000060000FN00000000020220701000060000NNM   20220418135207    2F0P  00001500000000708000001120632Q8    EMEMI   006400630015
BI00B32Q8    #EU22074 MW    202206227114-4022                TERMINAL                 CCN000060000000060000FN00000000020220701000060000NNM   20220418135207    2F0P  00001500000000708000001120632Q8    EMEMI   006400630015
BI00B32Q8    #EU22071 MW    202206017123-6423-30             CONNECTOR                CCN000014000000014000FN00000000020220701000014000NNM   20220418135207    2F0F  00000200000001002000001167632Q8    EMEMI   005600390023
BI00B32Q8    #EU22072 MW    202206087123-6423-30             CONNECTOR                CCN000012000000012000FN00000000020220701000012000NNM   20220418135207    2F0F  00000200000001002000001167632Q8    EMEMI   005600390023
BI00B32Q8    #EU22073 MW    202206157123-6423-30             CONNECTOR                CCN000014000000014000FN00000000020220701000014000NNM   20220418135207    2F0F  00000200000001002000001167632Q8    EMEMI   005600390023
BI00B32Q8    #EU22074 MW    202206227123-6423-30             CONNECTOR                CCN000010000000010000FN00000000020220701000010000NNM   20220418135207    2F0F  00000200000001002000001167632Q8    EMEMI   005600390023
BI00B32Q8    #EU22073 MW    202206157157-3950-80             SEAL RUBBER              CCN000040000000040000FN00000000020220701000040000NNM   20220418135207    2C0C  00004000000000154000000440332Q8    EMEMI   002700430014
BI00B32Q8    #EU22074 MW    202206227157-3950-80             SEAL RUBBER              CCN000040000000040000FN00000000020220701000040000NNM   20220418135207    2C0C  00004000000000154000000440332Q8    EMEMI   002700430014
BI00B32Q8    #EU22073 MW    202206157157-3952-80             RUBBER STOPPER           CCN000010000000010000FN00000000020220701000010000NNM   20220418135207    2C0C  00001000000000117000000175032Q8    EMEMI   002700430014
BI00B32Q8    #EU22074 MW    202206227157-3952-80             RUBBER STOPPER           CCN000020000000020000FN00000000020220701000020000NNM   20220418135207    2C0C  00001000000000117000000175032Q8    EMEMI   002700430014
BI00B32Q8    #EU22073 MW    202206157157-6826-80             REAR HOLDER              CCN000015000000015000FN00000000020220701000015000NNM   20220418135207    2F0F  00001500000001234500001394132Q8    EMEMI   005600390040
BI00B32Q8    #EU22073 MW    202206157157-7897-60             SEAL RUBBER              CCN000010000000010000FN00000000020220701000010000NNM   20220418135207    2C0C  00001000000000132000000214732Q8    EMEMI   002700430014
BI00B32Q8    #EU22074 MW    202206227157-7897-60             SEAL RUBBER              CCN000020000000020000FN00000000020220701000020000NNM   20220418135207    2C0C  00001000000000132000000214732Q8    EMEMI   002700430014
BI00B32Q8    #EU22072 MW    202206087158-3003-90             RUBBER STOPPER           CCN000020000000020000FN00000000020220701000020000NNM   20220418135207    2C0C  00002000000000250000000306032Q8    EMEMI   002700430014
BI00B32Q8    #EU22073 MW    202206157158-3003-90             RUBBER STOPPER           CCN000580000000580000FN00000000020220701000580000NNM   20220418135207    2C0C  00002000000000250000000306032Q8    EMEMI   002700430014
BI00B32Q8    #EU22074 MW    202206227158-3003-90             RUBBER STOPPER           CCN000480000000480000FN00000000020220701000480000NNM   20220418135207    2C0C  00002000000000250000000306032Q8    EMEMI   002700430014
BI00B32Q8    #EU22074 MW    202206227158-3005-80             RUBBER STOPPER           CCN000060000000060000FN00000000020220701000060000NNM   20220418135207    2H0H  00002000000000210000000268732Q8    EMEMI   002700430014
BI00B32Q8    #EU22074 MW    202206227158-3007-10             RUBBER STOPPER           CCN000180000000180000FN00000000020220701000180000NNM   20220418135207    2H0H  00002000000000308000000362732Q8    EMEMI   002700430014
BI00B32Q8    #EU22073 MW    202206157158-3008-80             RUBBER STOPPER           CCN000140000000140000FN00000000020220701000140000NNM   20220418135207    2C0C  00002000000000288000000343032Q8    EMEMI   004300270014
BI00B32Q8    #EU22074 MW    202206227158-3008-80             RUBBER STOPPER           CCN000260000000260000FN00000000020220701000260000NNM   20220418135207    2C0C  00002000000000288000000343032Q8    EMEMI   004300270014
BI00B32Q8    #EU22074 MW    202206227158-3017                RUBBER STOPPER           CCN000030000000030000FN00000000020220701000030000NNM   20220418135207    2C0C  00001000000000375500000435032Q8    EMEMI   002700430014
BI00B32Q8    #EU22072 MW    202206087158-3120-90             CONNECTOR WIRE SEAL      CCN000040000000040000FN00000000020220701000040000NNM   20220418135207    2C0C  00002000000000136000000194032Q8    EMEMI   002700430014
BI00B32Q8    #EU22073 MW    202206157158-3120-90             CONNECTOR WIRE SEAL      CCN000160000000160000FN00000000020220701000160000NNM   20220418135207    2C0C  00002000000000136000000194032Q8    EMEMI   002700430014
BI00B32Q8    #EU22074 MW    202206227158-3120-90             CONNECTOR WIRE SEAL      CCN000140000000140000FN00000000020220701000140000NNM   20220418135207    2C0C  00002000000000136000000194032Q8    EMEMI   002700430014
BI00B32Q8    #EU22073 MW    202206157158-3121-80             WIRE SEAL                CCN000020000000020000FN00000000020220701000020000NNM   20220418135207    2C0C  00002000000000118000000187332Q8    EMEMI   002700430014
BI00B32Q8    #EU22074 MW    202206227158-3121-80             WIRE SEAL                CCN000020000000020000FN00000000020220701000020000NNM   20220418135207    2C0C  00002000000000118000000187332Q8    EMEMI   002700430014
BI00B32Q8    #EU22071 MW    202206017183-2412                HOUSING                  CCN000003200000003200FN00000000020220701000003200NNM   20220418135207    2F0F  00000160000001059200001245632Q8    EMEMI   005500360039
BI00B32Q8    #EU22072 MW    202206087183-2412                HOUSING                  CCN000003200000003200FN00000000020220701000003200NNM   20220418135207    2F0F  00000160000001059200001245632Q8    EMEMI   005500360039
BI00B32Q8    #EU22073 MW    202206157183-2412                HOUSING                  CCN000004800000004800FN00000000020220701000004800NNM   20220418135207    2F0F  00000160000001059200001245632Q8    EMEMI   005500360039
BI00B32Q8    #EU22074 MW    202206227183-2412                HOUSING                  CCN000004800000004800FN00000000020220701000004800NNM   20220418135207    2F0F  00000160000001059200001245632Q8    EMEMI   005500360039
BI00B32Q8    #EU22073 MW    202206157183-2412-30             HOUSING                  CCN000003200000003200FN00000000020220701000003200NNM   20220418135207    2F0F  00000160000001059700001059732Q8    EMEMI   005500360039
BI00B32Q8    #EU22074 MW    202206227183-2412-30             HOUSING                  CCN000001600000001600FN00000000020220701000001600NNM   20220418135207    2F0F  00000160000001059700001059732Q8    EMEMI   005500360039
BI00B32Q8    #EU22073 MW    202206157183-6320                HOUSING                  CCN000004800000004800FN00000000020220701000004800NNM   20220418135207    2F0F  00000480000000820800001103632Q8    EMEMI   005500360039
BI00B32Q8    #EU22074 MW    202206227183-6320                HOUSING                  CCN000004800000004800FN00000000020220701000004800NNM   20220418135207    2F0F  00000480000000820800001103632Q8    EMEMI   005500360039
BI00B32Q8    #EU22074 MW    202206227283-1065                CONNECTOR                CCN000002500000002500FN00000000020220701000002500NNM   20220418135207    2N0N  00000250000001152500001310432Q8    EMEMI   005500360039
BI00B32Q8    #EU22074 MW    202206227283-1161                CONNECTOR FEMALE         CCN000002000000002000FN00000000020220701000002000NNM   20220418135207    2N0N  00000100000000602000000711032Q8    EMEMI   005400370024
BI00B32Q8    #EU22072 MW    202206087283-5834-30             CONNECTOR ASS'Y          CCN000006480000006480FN00000000020220701000006480NNM   20220418135207    2N0N  00000324000001296000001853432Q8    EMEMI   005600390040
BI00B32Q8    #EU22073 MW    202206157283-5834-30             CONNECTOR ASS'Y          CCN000003240000003240FN00000000020220701000003240NNM   20220418135207    2N0N  00000324000001296000001853432Q8    EMEMI   005600390040
BI00B32Q8    #EU22074 MW    202206227283-5834-30             CONNECTOR ASS'Y          CCN000003240000003240FN00000000020220701000003240NNM   20220418135207    2N0N  00000324000001296000001853432Q8    EMEMI   005600390040
BI00B32Q8    #EU22073 MW    202206157283-8123                CONNECTOR HOUSING        CCN000008000000008000FN00000000020220701000008000NNM   20220418135207    2N0N  00000400000000380000000531732Q8    EMEMI   005600390023
BI00B32Q8    @EU22074 MW    202206227283-1223-30             HOUSING SUB ASSEMBLY     CCN000009600000009600FN00000000020220701000009600NNM   20220418135218    3N0N  00000480000000749300000998032Q8    EMEMI   005500360039
BI00B32Q8    EU22072DMW     202206087B72-5540-80             SEALED WIRE SEAL         CCN000020000000020000FN00000000020220701000020000NNM   20220418135240    1C0C  00002000000000186000000234432Q8    EMEMI   004300270014
BI00B32Q8    EU22073DMW     202206157B72-5540-80             SEALED WIRE SEAL         CCN000020000000020000FN00000000020220701000020000NNM   20220418135240    1C0C  00002000000000186000000234432Q8    EMEMI   004300270014
BI00B32Q8    EU22074DMW     202206227B72-5540-80             SEALED WIRE SEAL         CCN000020000000020000FN00000000020220701000020000NNM   20220418135240    1C0C  00002000000000186000000234432Q8    EMEMI   004300270014
BI00B32Q8    EU22072DMW     202206087B74-1849-70             COVER                    CCN000025000000025000FN00000000020220701000025000NNM   20220418135240    1F0F  00002500000000622500000761932Q8    EMEMI   005400370024
BI00B32Q8    EU22074DMW     202206227B74-1849-70             COVER                    CCN000025000000025000FN00000000020220701000025000NNM   20220418135240    1F0F  00002500000000622500000761932Q8    EMEMI   005400370024
BI00B32Q8    EU22072DMW     202206087B96-0805-02             TERMINAL FEMALE          CCN000045000000045000FN00000000020220701000045000NNM   20220418135240    4P0P  00002250000000558000000843232Q8    EMEMI   006400630015
BI00B32Q8    EU22073DMW     202206157B96-0805-02             TERMINAL FEMALE          CCN000022500000022500FN00000000020220701000022500NNM   20220418135240    4P0P  00002250000000558000000843232Q8    EMEMI   006400630015
BI00B32Q8    EU22072DMW     202206087C89-6868-30             SEALED ASSY FEMALE       CCN000012600000012600FN00000000020220701000012600NNM   20220418135240    4N0N  00000252000000839200001119232Q8    EMEMI   005500360039
BI00B32Q8    EU22073DMW     202206157C89-6868-30             SEALED ASSY FEMALE       CCN000015120000015120FN00000000020220701000015120NNM   20220418135240    4N0N  00000252000000839200001119232Q8    EMEMI   005500360039
BI00B32Q8    EU22074DMW     202206227C89-6868-30             SEALED ASSY FEMALE       CCN000005040000005040FN00000000020220701000005040NNM   20220418135240    4N0N  00000252000000839200001119232Q8    EMEMI   005500360039
BI00B32Q8    EU22071DMW     202206017C98-1145-4W             SQUIB SUB ASS'Y          CCN000010000000010000FN00000000020220701000010000NNM   20220418135240    4N0N  00001000000000787900000944932Q8    EMEMI   005400370024
BI00B32Q8    EU22072DMW     202206087C98-1145-4W             SQUIB SUB ASS'Y          CCN000010000000010000FN00000000020220701000010000NNM   20220418135240    4N0N  00001000000000787900000944932Q8    EMEMI   005400370024
BI00B32Q8    EU22073DMW     202206157C98-1145-4W             SQUIB SUB ASS'Y          CCN000020000000020000FN00000000020220701000020000NNM   20220418135240    4N0N  00001000000000787900000944932Q8    EMEMI   005400370024
BI00B32Q8    EU22074DMW     202206227C98-1145-4W             SQUIB SUB ASS'Y          CCN000010000000010000FN00000000020220701000010000NNM   20220418135240    4N0N  00001000000000787900000944932Q8    EMEMI   005400370024
BI00B32Q8    #EU22073DMW    202206157186-8851                HOUSING MALE             CCN000001000000001000FN00000000020220701000001000NNM   20220418135238    2F0F  00000100000000782200000906232Q8    EMEMI   005400370024
BI00B32Q8    #EU22072DMW    202206087287-8860                HOUSING FEMALE ASS'Y     CCN000003200000003200FN00000000020220701000003200NNM   20220418135238    2N0N  00000160000000693400000853432Q8    EMEMI   005400370024
BI00B32Q8    #EU22073DMW    202206157287-8860                HOUSING FEMALE ASS'Y     CCN000003200000003200FN00000000020220701000003200NNM   20220418135238    2N0N  00000160000000693400000853432Q8    EMEMI   005400370024
BI00B32Q8    #EU22074DMW    202206227287-8860                HOUSING FEMALE ASS'Y     CCN000003200000003200FN00000000020220701000003200NNM   20220418135238    2N0N  00000160000000693400000853432Q8    EMEMI   005400370024
BI00B32Q8    EU22074NMW     202206227158-3166-10             WIRE SEAL                CCN000040000000040000FN00000000020220701000040000NNM   20220418135303    1C0C  00004000000000096000000144432Q8    EMEMI   004300270014
BI00B32Q8    EU22073NMW     202206157158-3167-61             WIRE SEAL                CCN000040000000040000FN00000000020220701000040000NNM   20220418135303    1C0C  00002000000000048000000096432Q8    EMEMI   004300270014
BI00B32Q8    EU22074NMW     202206227158-3167-61             WIRE SEAL                CCN000100000000100000FN00000000020220701000100000NNM   20220418135303    1C0C  00002000000000048000000096432Q8    EMEMI   004300270014
BI00B32Q8    EU22072NMW     202206087196-1461-02             TERMINAL FEMALE          CCN001344000001344000FN00000000020220701001344000NNM   20220418135303    4P0P  00002400000000386400000671632Q8    EMEMI   006400630015
BI00B32Q8    EU22073NMW     202206157196-1461-02             TERMINAL FEMALE          CCN003336000003336000FN00000000020220701003336000NNM   20220418135303    4P0P  00002400000000386400000671632Q8    EMEMI   006400630015
BI00B32Q8    EU22074NMW     202206227196-1461-02             TERMINAL FEMALE          CCN002664000002664000FN00000000020220701002664000NNM   20220418135303    4P0P  00002400000000386400000671632Q8    EMEMI   006400630015
BI00B32Q8    EU22073NMW     202206157196-1461-06             TERMINAL FEMALE          CCN000144000000144000FN00000000020220701000144000NNM   20220418135303    4P0P  00002400000000386400000692932Q8    EMEMI   006400630015
BI00B32Q8    EU22074NMW     202206227196-1461-06             TERMINAL FEMALE          CCN000144000000144000FN00000000020220701000144000NNM   20220418135303    4P0P  00002400000000386400000692932Q8    EMEMI   006400630015
BI00B32Q8    EU22074NMW     202206227196-1462-02             TERMINAL FEMALE          CCN000084000000084000FN00000000020220701000084000NNM   20220418135303    4P0P  00002100000000352800000638032Q8    EMEMI   006400630015
BI00B32Q8    EU22073NMW     202206157289-4696-30             HOUSING FEMALE ASS'Y     CCN000008000000008000FN00000000020220701000008000NNM   20220418135303    4N0N  00000200000000913400001055432Q8    EMEMI   005400370024
BI00B32Q8    EU22074NMW     202206227289-4696-30             HOUSING FEMALE ASS'Y     CCN000026000000026000FN00000000020220701000026000NNM   20220418135303    4N0N  00000200000000913400001055432Q8    EMEMI   005400370024
BI00B32Q8    EU22073NMW     202206157289-7615-30             HOUSING FEMALE ASS'Y     CCN000003520000003520FN00000000020220701000003520NNM   20220418135303    4N0N  00000032000000738000000948032Q8    EMEMI   005400370024
BI00B32Q8    EU22074NMW     202206227289-7615-30             HOUSING FEMALE ASS'Y     CCN000008000000008000FN00000000020220701000008000NNM   20220418135303    4N0N  00000032000000738000000948032Q8    EMEMI   005400370024
BI00B32Q8    EU22071NMW     202206017298-1865-30             HOUSING FEMALE ASS'Y     CCN000014400000014400FN00000000020220701000014400NNM   20220418135303    4N0N  00000240000001003200001204532Q8    EMEMI   005500360039
BI00B32Q8    EU22072NMW     202206087298-1865-30             HOUSING FEMALE ASS'Y     CCN000019200000019200FN00000000020220701000019200NNM   20220418135303    4N0N  00000240000001003200001204532Q8    EMEMI   005500360039
BI00B32Q8    EU22073NMW     202206157298-1865-30             HOUSING FEMALE ASS'Y     CCN000021600000021600FN00000000020220701000021600NNM   20220418135303    4N0N  00000240000001003200001204532Q8    EMEMI   005500360039
BI00B32Q8    EU22074NMW     202206227298-1865-30             HOUSING FEMALE ASS'Y     CCN000019200000019200FN00000000020220701000019200NNM   20220418135303    4N0N  00000240000001003200001204532Q8    EMEMI   005500360039
BI00B32Q8    EU22072NMW     202206087298-2278-30             HOUSING FEMALE ASS'Y     CCN000036000000036000FN00000000020220701000036000NNM   20220418135303    4N0N  00000240000001091700001295432Q8    EMEMI   005500360039
BI00B32Q8    EU22073NMW     202206157298-2278-30             HOUSING FEMALE ASS'Y     CCN000088800000088800FN00000000020220701000088800NNM   20220418135303    4N0N  00000240000001091700001295432Q8    EMEMI   005500360039
BI00B32Q8    EU22074NMW     202206227298-2278-30             HOUSING FEMALE ASS'Y     CCN000072000000072000FN00000000020220701000072000NNM   20220418135303    4N0N  00000240000001091700001295432Q8    EMEMI   005500360039
BI00B32Q8    #EU22071NMW    202206017157-3992-90             CONNECTOR SEALED         CCN000040000000040000FN00000000020220701000040000NNM   20220418135259    2C0C  00004000000000300000000363332Q8    EMEMI   002700430014
BI00B32Q8    #EU22071NMW    202206017158-3654-80             WIRE TUBE                CCN000080000000080000FN00000000020220701000080000NNM   20220418135259    2H0H  00004000000000104000000152232Q8    EMEMI   004300270014
BI00B32Q8    #EU22072NMW    202206087158-3654-80             WIRE TUBE                CCN000200000000200000FN00000000020220701000200000NNM   20220418135259    2H0H  00004000000000104000000152232Q8    EMEMI   004300270014
BI00B32Q8    #EU22073NMW    202206157158-3654-80             WIRE TUBE                CCN000240000000240000FN00000000020220701000240000NNM   20220418135259    2H0H  00004000000000104000000152232Q8    EMEMI   004300270014
BI00B32Q8    #EU22074NMW    202206227158-3654-80             WIRE TUBE                CCN000200000000200000FN00000000020220701000200000NNM   20220418135259    2H0H  00004000000000104000000152232Q8    EMEMI   004300270014
BI00B32Q8    #EU22071NMW    202206017182-9631-40             JOINT CONNECTOR          CCN000006000000006000FN00000000020220701000006000NNM   20220418135259    2F0F  00000300000001182000001307432Q8    EMEMI   005400370024
BI00B32Q8    #EU22072NMW    202206087182-9631-40             JOINT CONNECTOR          CCN000006000000006000FN00000000020220701000006000NNM   20220418135259    2F0F  00000300000001182000001307432Q8    EMEMI   005400370024
BI00B32Q8    #EU22073NMW    202206157182-9631-40             JOINT CONNECTOR          CCN000006000000006000FN00000000020220701000006000NNM   20220418135259    2F0F  00000300000001182000001307432Q8    EMEMI   005400370024
BI00B32Q8    #EU22074NMW    202206227182-9631-40             JOINT CONNECTOR          CCN000006000000006000FN00000000020220701000006000NNM   20220418135259    2F0F  00000300000001182000001307432Q8    EMEMI   005400370024
BI00B32Q8    #EU22073NMW    202206157182-9632-30             JOINT CONNECTOR          CCN000045000000045000FN00000000020220701000045000NNM   20220418135259    2F0F  00000300000001320000001445532Q8    EMEMI   005400370024
BI00B32Q8    #EU22074NMW    202206227182-9632-30             JOINT CONNECTOR          CCN000048000000048000FN00000000020220701000048000NNM   20220418135259    2F0F  00000300000001320000001445532Q8    EMEMI   005400370024
BI00B32Q8    #EU22071NMW    202206017182-9633-40             JOINT CONNECTOR          CCN000024000000024000FN00000000020220701000024000NNM   20220418135259    2F0F  00000300000001335000001460532Q8    EMEMI   005400370024
