BI00B1200    2399T51815     202111257289-5979-30             HOUSING FEMALE ASS'Y     CCN000014616000008820FN00000000020211001000008820NNM00020211124150506    1N0N  0000002520000085470000106471200    YCYC    005400370024
BI00A1200    7242T51907     202112027289-3342-40             HOUSING FEMALE ASS'Y     CCN000024000000009600FN00000000020211001000009600NNE00020211124175127    1N0N  0000024000000068640000090141200    YCYC    005500360039
BI00A1200    2399T51815     202111237289-5979-30             HOUSING FEMALE ASS'Y     PCN000008820000002520FY00000252020211001000000000NNMM0020211124150506    1N0N  0000002520000085470000106471200    YCYC    005400370024
BI00A1200    2399T51815     202111267289-5979-30             HOUSING FEMALE ASS'Y     PCN000002520000002772FN00000000020211001000002772NNMM0020211124150506    1N0N  0000002520000085470000106471200    YCYC    005400370024
BI00A1200    2399T51813     202111267289-5979-30             HOUSING FEMALE ASS'Y     PCN000007560000001260FN00000000020211001000001260NNMD0220211124150620    1N0N  0000002520000085470000106471200    YCYC    005400370024
BI00B1200    7360T51C05     202112237288-3331-30             HOUSING MALE             CCN000022500000022500FN00000000020220101000022500NNE   20211124122808    4N0N  0000015000000086600000101091200    YCYC    005400370024
BI00B1200    7360T51C05     202112237288-3333-30             HOUSING MALE             CCN000003000000003000FN00000000020220101000003000NNE   20211124122808    4N0N  0000015000000086700000101201200    YCYC    005400370024
BI00B1200    7360T51C05     202112237388-2978-30             HOUSING MALE ASS'Y       CCN000001440000001440FN00000000020220101000001440NNE   20211124122808    1N0N  0000004800000074200000112201200    YCYC    005500360039
BI00B1200    #7360T51C05    202112237172-5625-90             RUBBER STOPPER           CCN000020000000020000FN00000000020220101000020000NNE   20211124122808    2H0H  0000200000000008240000013381200    YCYC    004300270014
BI00B1200    #7360T51C05    202112237172-5632-10             DUMMY PLUG               CCN000100000000100000FN00000000020220101000100000NNE   20211124122808    2H0H  0000200000000008040000013181200    YCYC    004300270014
BI00B1200    #7360T51C05    202112237188-3035                HOUSING MALE             CCN000002400000002400FN00000000020220101000002400NNE   20211124122808    2F0F  0000024000000069360000091361200    YCYC    005500360039
BI00B1200    #7360T51C05    202112237189-3036                HOUSING FEMALE           CCN000001600000001600FN00000000020220101000001600NNE   20211124122808    2F0F  0000016000000092160000114161200    YCYC    005500360039
BI00B1200    2399T51C05     202112237116-4100-02             TERMINAL                 CCN000030000000030000FN00000000020220101000030000NNM   20211124122808    4P0P  0000150000000069600000099021200    YCYC    006400630015
BI00B1200    2399T51C06     202201067116-4100-02             TERMINAL                 CCN000030000000030000FN00000000020220101000030000NNM   20211124122808    4P0P  0000150000000069600000099021200    YCYC    006400630015
BI00B1200    2399T51C07     202201137116-4100-02             TERMINAL                 CCN000030000000030000FN00000000020220101000030000NNM   20211124122808    4P0P  0000150000000069600000099021200    YCYC    006400630015
BI00B1200    2399T51C05     202112237116-4111-02             TERMINAL                 CCN000067500000067500FN00000000020220101000067500NNM   20211124122808    4P0P  0000075000000052950000081771200    YCYC    006400630015
BI00B1200    2399T51C06     202201067116-4111-02             TERMINAL                 CCN000060000000060000FN00000000020220101000060000NNM   20211124122808    4P0P  0000075000000052950000081771200    YCYC    006400630015
BI00B1200    2399T51C07     202201137116-4111-02             TERMINAL                 CCN000060000000060000FN00000000020220101000060000NNM   20211124122808    4P0P  0000075000000052950000081771200    YCYC    006400630015
BI00B1200    2399T51C05     202112237137-3047-30             UNIT PACKING             CCN000004000000004000FN00000000020220101000004000NNM   20211124122808    1C0C  0000010000000017050000021891200    YCYC    002700430014
BI00B1200    2399T51C06     202201067137-3047-30             UNIT PACKING             CCN000004000000004000FN00000000020220101000004000NNM   20211124122808    1C0C  0000010000000017050000021891200    YCYC    002700430014
BI00B1200    2399T51C07     202201137137-3047-30             UNIT PACKING             CCN000004000000004000FN00000000020220101000004000NNM   20211124122808    1C0C  0000010000000017050000021891200    YCYC    002700430014
BI00B1200    2399T51C05     202112237158-3022-80             RUBBER STOPPER           CCN000010000000010000FN00000000020220101000010000NNM   20211124122808    1C0C  0000050000000046750000052401200    YCYC    002700430014
BI00B1200    2399T51C06     202201067158-3022-80             RUBBER STOPPER           CCN000010000000010000FN00000000020220101000010000NNM   20211124122808    1C0C  0000050000000046750000052401200    YCYC    002700430014
BI00B1200    2399T51C07     202201137158-3022-80             RUBBER STOPPER           CCN000005000000005000FN00000000020220101000005000NNM   20211124122808    1C0C  0000050000000046750000052401200    YCYC    002700430014
BI00B1200    2399T51C05     202112237172-5402-30             SEAL RUBBER              CCN000016000000016000FN00000000020220101000016000NNM   20211124122808    1C0C  0000080000000045760000050601200    YCYC    004300270014
BI00B1200    2399T51C06     202201067172-5402-30             SEAL RUBBER              CCN000008000000008000FN00000000020220101000008000NNM   20211124122808    1C0C  0000080000000045760000050601200    YCYC    004300270014
BI00B1200    2399T51C07     202201137172-5402-30             SEAL RUBBER              CCN000008000000008000FN00000000020220101000008000NNM   20211124122808    1C0C  0000080000000045760000050601200    YCYC    004300270014
BI00B1200    2399T51C05     202112237172-5403-30             SEALED PACKING           CCN000016000000016000FN00000000020220101000016000NNM   20211124122808    1C0C  0000040000000065360000070171200    YCYC    004300270014
BI00B1200    2399T51C06     202201067172-5403-30             SEALED PACKING           CCN000012000000012000FN00000000020220101000012000NNM   20211124122808    1C0C  0000040000000065360000070171200    YCYC    004300270014
BI00B1200    2399T51C07     202201137172-5403-30             SEALED PACKING           CCN000012000000012000FN00000000020220101000012000NNM   20211124122808    1C0C  0000040000000065360000070171200    YCYC    004300270014
BI00B1200    2399T51C05     202112237172-5540-80             SEALED WIRE SEAL         CCN000040000000040000FN00000000020220101000040000NNM   20211124122808    1C0C  0000200000000018600000023441200    YCYC    004300270014
BI00B1200    2399T51C06     202201067172-5540-80             SEALED WIRE SEAL         CCN000040000000040000FN00000000020220101000040000NNM   20211124122808    1C0C  0000200000000018600000023441200    YCYC    004300270014
BI00B1200    2399T51C07     202201137172-5540-80             SEALED WIRE SEAL         CCN000040000000040000FN00000000020220101000040000NNM   20211124122808    1C0C  0000200000000018600000023441200    YCYC    004300270014
BI00B1200    2399T51C05     202112237173-3291-40             LIF LEVER                CCN000009600000009600FN00000000020220101000009600NNM   20211124122808    1F0F  0000024000000086780000106781200    YCYC    005500360039
BI00B1200    2399T51C06     202201067173-3291-40             LIF LEVER                CCN000009600000009600FN00000000020220101000009600NNM   20211124122808    1F0F  0000024000000086780000106781200    YCYC    005500360039
BI00B1200    2399T51C07     202201137173-3291-40             LIF LEVER                CCN000009600000009600FN00000000020220101000009600NNM   20211124122808    1F0F  0000024000000086780000106781200    YCYC    005500360039
BI00B1200    #2399T51C05    202112237124-1026-30             PROTECTOR                CCN000003000000003000FN00000000020220101000003000NNM   20211124122808    2F0F  0000030000000082800000098601200    YCYC    005500360039
BI00B1200    #2399T51C05    202112237154-5328-30             RELAY BLOCK              CCN000001000000001000FN00000000020220101000001000NNM   20211124122808    2F0F  0000010000000121200000136191200    YCYC    005600390040
BI00B1200    #2399T51C05    202112237154-5597-30             CASSETTE R/B             CCN000096800000096800FN00000000020220101000096800NNM   20211124122808    2F0F  0000008000000073600000095201200    YCYC    005500360039
BI00B1200    #2399T51C06    202201067154-5597-30             CASSETTE R/B             CCN000096800000096800FN00000000020220101000096800NNM   20211124122808    2F0F  0000008000000073600000095201200    YCYC    005500360039
BI00B1200    #2399T51C07    202201137154-5597-30             CASSETTE R/B             CCN000096800000096800FN00000000020220101000096800NNM   20211124122808    2F0F  0000008000000073600000095201200    YCYC    005500360039
BI00B1200    #2399T51C05    202112237154-7040                RELAY BLOCK              CCN000003000000003000FN00000000020220101000003000NNM   20211124122808    2F0F  0000030000000060300000074491200    YCYC    005500360039
BI00B1200    #2399T51C05    202112237154-8273                RELAY BLOCK              CCN000001000000001000FN00000000020220101000001000NNM   20211124122808    2F0F  0000010000000052300000067251200    YCYC    005500360039
BI00B1200    #2399T51C05    202201137173-3225-10             LIF LEVER                CCN000042400000042400FN00000000020220101000042400NNMD0420211124161314    2F0F  0000008000000059200000071201200    YCYC    005500360039
BI00B1200    #2399T51C06    202201207173-3225-10             LIF LEVER                CCN000042400000022400FN00000000020220101000022400NNMD0420211124161356    2F0F  0000008000000059200000071201200    YCYC    005500360039
BI00B1200    #2399T51C07    202202107173-3225-10             LIF LEVER                CCN000042400000042400FN00000000020220101000042400NNMD0420211124161428    2F0F  0000008000000059200000071201200    YCYC    005500360039
BI00B1200    #2399T51C05    202112237174-1270-30             SEALED COVER             CCN000000800000000800FN00000000020220101000000800NNM   20211124122808    2F0F  0000008000000056070000067911200    YCYC    005500360039
BI00B1200    #2399T51C06    202201067174-1270-30             SEALED COVER             CCN000000800000000800FN00000000020220101000000800NNM   20211124122808    2F0F  0000008000000056070000067911200    YCYC    005500360039
BI00B1200    #2399T51C07    202201137174-1270-30             SEALED COVER             CCN000000800000000800FN00000000020220101000000800NNM   20211124122808    2F0F  0000008000000056070000067911200    YCYC    005500360039
BI00B1200    #2399T51C05    202112237174-1271-30             SEALED COVER             CCN000000320000000320FN00000000020220101000000320NNM   20211124122808    2F0F  0000003200000038370000050211200    YCYC    005500360039
BI00B1200    #2399T51C06    202201067174-1271-30             SEALED COVER             CCN000000320000000320FN00000000020220101000000320NNM   20211124122808    2F0F  0000003200000038370000050211200    YCYC    005500360039
BI00B1200    #2399T51C07    202201137174-1271-30             SEALED COVER             CCN000000320000000320FN00000000020220101000000320NNM   20211124122808    2F0F  0000003200000038370000050211200    YCYC    005500360039
BI00B1200    #2399T51C05    202112237174-1314-30             SEALED COVER             CCN000006400000006400FN00000000020220101000006400NNM   20211124122808    2F0F  0000008000000076930000088931200    YCYC    005500360039
BI00B1200    #2399T51C06    202201067174-1314-30             SEALED COVER             CCN000005600000005600FN00000000020220101000005600NNM   20211124122808    2F0F  0000008000000076930000088931200    YCYC    005500360039
BI00B1200    #2399T51C07    202201137174-1314-30             SEALED COVER             CCN000005600000005600FN00000000020220101000005600NNM   20211124122808    2F0F  0000008000000076930000088931200    YCYC    005500360039
BI00B1200    #2399T51C05    202112237174-1315-30             SEALED COVER             CCN000013600000013600FN00000000020220101000013600NNM   20211124122808    2F0F  0000008000000078200000090201200    YCYC    005500360039
BI00B1200    #2399T51C06    202201067174-1315-30             SEALED COVER             CCN000012800000012800FN00000000020220101000012800NNM   20211124122808    2F0F  0000008000000078200000090201200    YCYC    005500360039
BI00B1200    #2399T51C07    202201137174-1315-30             SEALED COVER             CCN000012800000012800FN00000000020220101000012800NNM   20211124122808    2F0F  0000008000000078200000090201200    YCYC    005500360039
BI00B1200    2399T51C10     202112237174-1849-70             COVER                    CCN000050000000050000FN00000000020220101000050000NNM   20211124122808    1F0F  0000250000000062250000076191200    YCYC    005400370024
BI00B1200    2399T51C11     202201067174-1849-70             COVER                    CCN000050000000050000FN00000000020220101000050000NNM   20211124122808    1F0F  0000250000000062250000076191200    YCYC    005400370024
BI00B1200    2399T51C12     202201137174-1849-70             COVER                    CCN000050000000050000FN00000000020220101000050000NNM   20211124122808    1F0F  0000250000000062250000076191200    YCYC    005400370024
BI00B1200    2399T51C10     202112237195-0546-02             TERMINAL ALUMINIUM       CCN000025500000025500FN00000000020220101000025500NNM   20211124122808    4P0P  0000255000000040920000074491200    YCYC    006400630015
BI00B1200    2399T51C11     202201067195-0546-02             TERMINAL ALUMINIUM       CCN000025500000025500FN00000000020220101000025500NNM   20211124122808    4P0P  0000255000000040920000074491200    YCYC    006400630015
BI00B1200    2399T51C10     202112237195-0783-08             TERMINAL                 CCN000090000000090000FN00000000020220101000090000NNM   20211124122808    4P0P  0000300000000050700000080121200    YCYC    006400630015
BI00B1200    2399T51C11     202201067195-0783-08             TERMINAL                 CCN000090000000090000FN00000000020220101000090000NNM   20211124122808    4P0P  0000300000000050700000080121200    YCYC    006400630015
BI00B1200    2399T51C12     202201137195-0783-08             TERMINAL                 CCN000060000000060000FN00000000020220101000060000NNM   20211124122808    4P0P  0000300000000050700000080121200    YCYC    006400630015
BI00B1200    2399T51C10     202112237196-0104-02             TERMINAL                 CCN000038000000038000FN00000000020220101000038000NNM   20211124122808    4P0P  0000380000000057000000095641200    YCYC    006400630017
BI00B1200    2399T51C10     202112237196-0549-02             TERMINAL ALUMINIUM       CCN000038000000038000FN00000000020220101000038000NNM   20211124122808    4P0P  0000380000000059280000097921200    YCYC    006400630017
BI00B1200    2399T51C11     202201067196-0549-02             TERMINAL ALUMINIUM       CCN000038000000038000FN00000000020220101000038000NNM   20211124122808    4P0P  0000380000000059280000097921200    YCYC    006400630017
BI00B1200    2399T51C12     202201137196-0549-02             TERMINAL ALUMINIUM       CCN000038000000038000FN00000000020220101000038000NNM   20211124122808    4P0P  0000380000000059280000097921200    YCYC    006400630017
BI00B1200    2399T51C10     202112237196-0550-02             TERMINAL ALUMINIUM       CCN000032000000032000FN00000000020220101000032000NNM   20211124122808    4P0P  0000320000000051520000090161200    YCYC    006400630017
BI00B1200    2399T51C11     202201067196-0550-02             TERMINAL ALUMINIUM       CCN000032000000032000FN00000000020220101000032000NNM   20211124122808    4P0P  0000320000000051520000090161200    YCYC    006400630017
BI00B1200    2399T51C10     202112237196-0648-02             TERMINAL                 CCN000060000000060000FN00000000020220101000060000NNM   20211124122808    4P0P  0000150000000035550000068971200    YCYC    006400630015
BI00B1200    2399T51C11     202201067196-0648-02             TERMINAL                 CCN000045000000045000FN00000000020220101000045000NNM   20211124122808    4P0P  0000150000000035550000068971200    YCYC    006400630015
BI00B1200    2399T51C12     202201137196-0648-02             TERMINAL                 CCN000045000000045000FN00000000020220101000045000NNM   20211124122808    4P0P  0000150000000035550000068971200    YCYC    006400630015
BI00B1200    2399T51C10     202112237196-0805-02             TERMINAL FEMALE          CCN000090000000090000FN00000000020220101000090000NNM   20211124122808    4P0P  0000225000000055800000084321200    YCYC    006400630015
BI00B1200    2399T51C11     202201067196-0805-02             TERMINAL FEMALE          CCN000067500000067500FN00000000020220101000067500NNM   20211124122808    4P0P  0000225000000055800000084321200    YCYC    006400630015
BI00B1200    2399T51C12     202201137196-0805-02             TERMINAL FEMALE          CCN000067500000067500FN00000000020220101000067500NNM   20211124122808    4P0P  0000225000000055800000084321200    YCYC    006400630015
BI00B1200    #2399T51C10    202112237174-1515                FRONT DOOR COVER         CCN000008400000008400FN00000000020220101000008400NNM   20211124122808    2F0F  0000006000000049020000061021200    YCYC    005500360039
BI00B1200    #2399T51C11    202201067174-1515                FRONT DOOR COVER         CCN000008400000008400FN00000000020220101000008400NNM   20211124122808    2F0F  0000006000000049020000061021200    YCYC    005500360039
BI00B1200    #2399T51C12    202201137174-1515                FRONT DOOR COVER         CCN000007800000007800FN00000000020220101000007800NNM   20211124122808    2F0F  0000006000000049020000061021200    YCYC    005500360039
BI00B1200    #2399T51C10    202112237183-9954                CONNECTOR HOUSING        CCN000002500000002500FN00000000020220101000002500NNM   20211124122808    2F0F  0000025000000130400000147801200    YCYC    005500360039
BI00B1200    #2399T51C11    202201067183-9954                CONNECTOR HOUSING        CCN000002500000002500FN00000000020220101000002500NNM   20211124122808    2F0F  0000025000000130400000147801200    YCYC    005500360039
BI00B1200    #2399T51C10    202112237189-3033                HOUSING FEMALE           CCN000014400000014400FN00000000020220101000014400NNM   20211124122808    2F0F  0000016000000121120000143121200    YCYC    005500360039
BI00B1200    #2399T51C11    202201067189-3033                HOUSING FEMALE           CCN000012800000012800FN00000000020220101000012800NNM   20211124122808    2F0F  0000016000000121120000143121200    YCYC    005500360039
BI00B1200    #2399T51C12    202201137189-3033                HOUSING FEMALE           CCN000012800000012800FN00000000020220101000012800NNM   20211124122808    2F0F  0000016000000121120000143121200    YCYC    005500360039
BI00B1200    #2399T51C10    202112237189-3034-30             HOUSING FEMALE           CCN000011200000011200FN00000000020220101000011200NNM   20211124122808    2F0F  0000016000000097280000119281200    YCYC    005500360039
BI00B1200    #2399T51C11    202201067189-3034-30             HOUSING FEMALE           CCN000009600000009600FN00000000020220101000009600NNM   20211124122808    2F0F  0000016000000097280000119281200    YCYC    005500360039
BI00B1200    #2399T51C12    202201137189-3034-30             HOUSING FEMALE           CCN000009600000009600FN00000000020220101000009600NNM   20211124122808    2F0F  0000016000000097280000119281200    YCYC    005500360039
BI00B1200    #2399T51C10    202112237189-3036                HOUSING FEMALE           CCN000012800000012800FN00000000020220101000012800NNM   20211124122808    2F0F  0000016000000092160000114161200    YCYC    005500360039
BI00B1200    #2399T51C11    202201067189-3036                HOUSING FEMALE           CCN000012800000012800FN00000000020220101000012800NNM   20211124122808    2F0F  0000016000000092160000114161200    YCYC    005500360039
BI00B1200    #2399T51C12    202201137189-3036                HOUSING FEMALE           CCN000011200000011200FN00000000020220101000011200NNM   20211124122808    2F0F  0000016000000092160000114161200    YCYC    005500360039
BI00B1200    #2399T51C10    202112237198-1373-60             HOUSING FEMALE           CCN000008000000008000FN00000000020220101000008000NNM   20211124122808    2F0F  0000020000000081940000094741200    YCYC    005400370024
BI00B1200    #2399T51C11    202201067198-1373-60             HOUSING FEMALE           CCN000008000000008000FN00000000020220101000008000NNM   20211124122808    2F0F  0000020000000081940000094741200    YCYC    005400370024
BI00B1200    #2399T51C12    202201137198-1373-60             HOUSING FEMALE           CCN000008000000008000FN00000000020220101000008000NNM   20211124122808    2F0F  0000020000000081940000094741200    YCYC    005400370024
BI00B1200    2399T51C15     202112237287-9323                UNSEALED HOUSING SUB     CCN000009600000009600FN00000000020220101000009600NNM   20211124122808    1N0N  0000024000000053760000069001200    YCYC    005600390023
BI00B1200    2399T51C16     202201067287-9323                UNSEALED HOUSING SUB     CCN000007200000007200FN00000000020220101000007200NNM   20211124122808    1N0N  0000024000000053760000069001200    YCYC    005600390023
BI00B1200    2399T51C17     202201137287-9323                UNSEALED HOUSING SUB     CCN000007200000007200FN00000000020220101000007200NNM   20211124122808    1N0N  0000024000000053760000069001200    YCYC    005600390023
BI00B1200    2399T51C15     202112237287-9323-30             UNSEALED HOUSING SUB     CCN000002400000002400FN00000000020220101000002400NNM   20211124122808    1N0N  0000024000000053760000069001200    YCYC    005600390023
BI00B1200    2399T51C16     202201067287-9323-30             UNSEALED HOUSING SUB     CCN000002400000002400FN00000000020220101000002400NNM   20211124122808    1N0N  0000024000000053760000069001200    YCYC    005600390023
BI00B1200    2399T51C17     202201137287-9323-30             UNSEALED HOUSING SUB     CCN000002400000002400FN00000000020220101000002400NNM   20211124122808    1N0N  0000024000000053760000069001200    YCYC    005600390023
BI00B1200    2399T51C15     202112237288-3330-30             HOUSING MALE             CCN000001500000001500FN00000000020220101000001500NNM   20211124122808    4N0N  0000015000000086630000101121200    YCYC    005400370024
BI00B1200    2399T51C16     202201067288-3330-30             HOUSING MALE             CCN000001500000001500FN00000000020220101000001500NNM   20211124122808    4N0N  0000015000000086630000101121200    YCYC    005400370024
BI00B1200    2399T51C15     202112237288-3334-30             HOUSING MALE             CCN000001500000001500FN00000000020220101000001500NNM   20211124122808    4N0N  0000015000000086700000101201200    YCYC    005400370024
BI00B1200    2399T51C16     202201067288-3334-30             HOUSING MALE             CCN000001500000001500FN00000000020220101000001500NNM   20211124122808    4N0N  0000015000000086700000101201200    YCYC    005400370024
BI00B1200    2399T51C17     202201137288-3334-30             HOUSING MALE             CCN000001500000001500FN00000000020220101000001500NNM   20211124122808    4N0N  0000015000000086700000101201200    YCYC    005400370024
BI00B1200    2399T51C15     202112237288-3339-30             HOUSING MALE             CCN000004500000004500FN00000000020220101000004500NNM   20211124122808    4N0N  0000015000000086700000101201200    YCYC    005400370024
BI00B1200    2399T51C16     202201067288-3339-30             HOUSING MALE             CCN000004500000004500FN00000000020220101000004500NNM   20211124122808    4N0N  0000015000000086700000101201200    YCYC    005400370024
BI00B1200    2399T51C17     202201137288-3339-30             HOUSING MALE             CCN000004500000004500FN00000000020220101000004500NNM   20211124122808    4N0N  0000015000000086700000101201200    YCYC    005400370024
BI00B1200    2399T51C15     202112237288-6547                CONNECTOR MALE ASS'Y     CCN000240000000240000FN00000000020220101000240000NNM   20211124122808    4N0N  0000007500000120530000134031200    YCYC    005400370024
BI00B1200    2399T51C16     202201067288-6547                CONNECTOR MALE ASS'Y     CCN000240000000240000FN00000000020220101000240000NNM   20211124122808    4N0N  0000007500000120530000134031200    YCYC    005400370024
BI00B1200    2399T51C17     202201137288-6547                CONNECTOR MALE ASS'Y     CCN000240000000240000FN00000000020220101000240000NNM   20211124122808    4N0N  0000007500000120530000134031200    YCYC    005400370024
BI00B1200    2399T51C15     202112237288-6598-70             HOUSING MALE ASS'Y       CCN000017280000017280FN00000000020220101000017280NNM   20211124122808    4N0N  0000014400000107420000142921200    YCYC    005500360039
BI00B1200    2399T51C16     202201067288-6598-70             HOUSING MALE ASS'Y       CCN000015840000015840FN00000000020220101000015840NNM   20211124122808    4N0N  0000014400000107420000142921200    YCYC    005500360039
BI00B1200    2399T51C17     202201137288-6598-70             HOUSING MALE ASS'Y       CCN000015840000015840FN00000000020220101000015840NNM   20211124122808    4N0N  0000014400000107420000142921200    YCYC    005500360039
BI00B1200    2399T51C15     202112237288-7969                HYBRID MALE ASS'Y        CCN000000320000000320FN00000000020220101000000320NNM   20211124122808    1N0N  0000003200000087620000110171200    YCYC    005400370024
BI00B1200    2399T51C16     202201067288-7969                HYBRID MALE ASS'Y        CCN000000320000000320FN00000000020220101000000320NNM   20211124122808    1N0N  0000003200000087620000110171200    YCYC    005400370024
BI00B1200    2399T51C17     202201137288-7969                HYBRID MALE ASS'Y        CCN000000320000000320FN00000000020220101000000320NNM   20211124122808    1N0N  0000003200000087620000110171200    YCYC    005400370024
BI00B1200    2399T51C15     202112237289-0269                HOUSING SUB ASSEMBLY     CCN000016000000016000FN00000000020220101000016000NNM   20211124122808    1N0N  0000016000000100210000123451200    YCYC    005500360039
BI00B1200    2399T51C16     202201067289-0269                HOUSING SUB ASSEMBLY     CCN000016000000016000FN00000000020220101000016000NNM   20211124122808    1N0N  0000016000000100210000123451200    YCYC    005500360039
BI00B1200    2399T51C17     202201137289-0269                HOUSING SUB ASSEMBLY     CCN000014400000014400FN00000000020220101000014400NNM   20211124122808    1N0N  0000016000000100210000123451200    YCYC    005500360039
BI00B1200    2399T51C15     202112237289-3342                HOUSING FEMALE ASS'Y     CCN000002400000002400FN00000000020220101000002400NNM   20211124122808    1N0N  0000024000000068640000090141200    YCYC    005500360039
BI00B1200    2399T51C16     202201067289-3342                HOUSING FEMALE ASS'Y     CCN000002400000002400FN00000000020220101000002400NNM   20211124122808    1N0N  0000024000000068640000090141200    YCYC    005500360039
BI00B1200    2399T51C17     202201137289-3342                HOUSING FEMALE ASS'Y     CCN000002400000002400FN00000000020220101000002400NNM   20211124122808    1N0N  0000024000000068640000090141200    YCYC    005500360039
BI00B1200    2399T51C15     202112237289-3342-30             HOUSING FEMALE ASS'Y     CCN000007200000007200FN00000000020220101000007200NNM   20211124122808    1N0N  0000024000000068640000090141200    YCYC    005500360039
BI00B1200    2399T51C16     202201067289-3342-30             HOUSING FEMALE ASS'Y     CCN000007200000007200FN00000000020220101000007200NNM   20211124122808    1N0N  0000024000000068640000090141200    YCYC    005500360039
BI00B1200    2399T51C17     202201137289-3342-30             HOUSING FEMALE ASS'Y     CCN000007200000007200FN00000000020220101000007200NNM   20211124122808    1N0N  0000024000000068640000090141200    YCYC    005500360039
BI00B1200    2399T51C15     202112237289-4212-80             SEALED HOUSING ASS'Y     CCN000018000000018000FN00000000020220101000018000NNM   20211124122808    4N0N  0000020000000084860000097861200    YCYC    005400370024
BI00B1200    2399T51C16     202201067289-4212-80             SEALED HOUSING ASS'Y     CCN000018000000018000FN00000000020220101000018000NNM   20211124122808    4N0N  0000020000000084860000097861200    YCYC    005400370024
BI00B1200    2399T51C17     202201137289-4212-80             SEALED HOUSING ASS'Y     CCN000016000000016000FN00000000020220101000016000NNM   20211124122808    4N0N  0000020000000084860000097861200    YCYC    005400370024
BI00B1200    2399T51C15     202112237289-5979-30             HOUSING FEMALE ASS'Y     CCN000024192000024192FN00000000020220101000024192NNM   20211124122808    1N0N  0000002520000085470000106471200    YCYC    005400370024
BI00B1200    2399T51C16     202201067289-5979-30             HOUSING FEMALE ASS'Y     CCN000024192000024192FN00000000020220101000024192NNM   20211124122808    1N0N  0000002520000085470000106471200    YCYC    005400370024
BI00B1200    2399T51C17     202201137289-5979-30             HOUSING FEMALE ASS'Y     CCN000023940000023940FN00000000020220101000023940NNM   20211124122808    1N0N  0000002520000085470000106471200    YCYC    005400370024
BI00B1200    2399T51C15     202112237289-6159-30             HOUSING FEMALE ASS'Y     CCN000000480000000480FN00000000020220101000000480NNM   20211124122808    4N0N  0000002400000109500000137501200    YCYC    005500360039
BI00B1200    2399T51C16     202201067289-6159-30             HOUSING FEMALE ASS'Y     CCN000000480000000480FN00000000020220101000000480NNM   20211124122808    4N0N  0000002400000109500000137501200    YCYC    005500360039
BI00B1200    2399T51C17     202201137289-6159-30             HOUSING FEMALE ASS'Y     CCN000000480000000480FN00000000020220101000000480NNM   20211124122808    4N0N  0000002400000109500000137501200    YCYC    005500360039
BI00B1200    2399T51C15     202112237289-6160-30             HOUSING FEMALE ASS'Y     CCN000000480000000480FN00000000020220101000000480NNM   20211124122808    4N0N  0000001600000103740000132041200    YCYC    005500360039
BI00B1200    2399T51C16     202201067289-6160-30             HOUSING FEMALE ASS'Y     CCN000000480000000480FN00000000020220101000000480NNM   20211124122808    4N0N  0000001600000103740000132041200    YCYC    005500360039
BI00B1200    2399T51C17     202201137289-6160-30             HOUSING FEMALE ASS'Y     CCN000000480000000480FN00000000020220101000000480NNM   20211124122808    4N0N  0000001600000103740000132041200    YCYC    005500360039
BI00B1200    2399T51C15     202112237289-6518-30             HOUSING FEMALE ASS'Y     CCN000008400000008400FN00000000020220101000008400NNM   20211124122808    1N0N  0000012000000082920000104921200    YCYC    005500360039
BI00B1200    2399T51C16     202201067289-6518-30             HOUSING FEMALE ASS'Y     CCN000008400000008400FN00000000020220101000008400NNM   20211124122808    1N0N  0000012000000082920000104921200    YCYC    005500360039
BI00B1200    2399T51C17     202201137289-6518-30             HOUSING FEMALE ASS'Y     CCN000008400000008400FN00000000020220101000008400NNM   20211124122808    1N0N  0000012000000082920000104921200    YCYC    005500360039
BI00B1200    2399T51C15     202112237289-6523-30             HOUSING FEMALE ASS'Y     CCN000001680000001680FN00000000020220101000001680NNM   20211124122808    4N0N  0000002400000129050000162051200    YCYC    005500360039
BI00B1200    2399T51C16     202201067289-6523-30             HOUSING FEMALE ASS'Y     CCN000001680000001680FN00000000020220101000001680NNM   20211124122808    4N0N  0000002400000129050000162051200    YCYC    005500360039
BI00B1200    2399T51C17     202201137289-6523-30             HOUSING FEMALE ASS'Y     CCN000001680000001680FN00000000020220101000001680NNM   20211124122808    4N0N  0000002400000129050000162051200    YCYC    005500360039
BI00B1200    #2399T51C15    202112237289-2912-40             HOUSING FEMALE ASS'Y     CCN000012000000012000FN00000000020220101000012000NNM   20211124122808    2N0N  0000020000000080400000093101200    YCYC    005400370024
BI00B1200    #2399T51C16    202201067289-2912-40             HOUSING FEMALE ASS'Y     CCN000010000000010000FN00000000020220101000010000NNM   20211124122808    2N0N  0000020000000080400000093101200    YCYC    005400370024
BI00B1200    #2399T51C17    202201137289-2912-40             HOUSING FEMALE ASS'Y     CCN000010000000010000FN00000000020220101000010000NNM   20211124122808    2N0N  0000020000000080400000093101200    YCYC    005400370024
BI00B1200    #2399T51C15    202112237289-2913-30             HOUSING FEMALE ASS'Y     CCN000003000000003000FN00000000020220101000003000NNM   20211124122808    2N0N  0000015000000090750000103451200    YCYC    005400360024
BI00B1200    #2399T51C16    202201067289-2913-30             HOUSING FEMALE ASS'Y     CCN000003000000003000FN00000000020220101000003000NNM   20211124122808    2N0N  0000015000000090750000103451200    YCYC    005400360024
BI00B1200    #2399T51C17    202201137289-2913-30             HOUSING FEMALE ASS'Y     CCN000003000000003000FN00000000020220101000003000NNM   20211124122808    2N0N  0000015000000090750000103451200    YCYC    005400360024
BI00B1200    #2399T51C15    202112237289-3622-30             HOUSING FEMALE ASS'Y     CCN000000864000000864FN00000000020220101000000864NNM   20211124122808    2N0N  0000004320000083940000103841200    YCYC    005400370024
BI00B1200    #2399T51C16    202201067289-3622-30             HOUSING FEMALE ASS'Y     CCN000000864000000864FN00000000020220101000000864NNM   20211124122808    2N0N  0000004320000083940000103841200    YCYC    005400370024
BI00B1200    #2399T51C17    202201137289-3622-30             HOUSING FEMALE ASS'Y     CCN000000864000000864FN00000000020220101000000864NNM   20211124122808    2N0N  0000004320000083940000103841200    YCYC    005400370024
BI00B1200    #2399T51C15    202112237289-4200-30             HOUSING FEMALE ASS'Y     CCN000050000000050000FN00000000020220101000050000NNM   20211124122808    2N0N  0000020000000092600000102101200    YCYC    005400370024
BI00B1200    #2399T51C16    202201067289-4200-30             HOUSING FEMALE ASS'Y     CCN000050000000050000FN00000000020220101000050000NNM   20211124122808    2N0N  0000020000000092600000102101200    YCYC    005400370024
BI00B1200    #2399T51C17    202201137289-4200-30             HOUSING FEMALE ASS'Y     CCN000050000000050000FN00000000020220101000050000NNM   20211124122808    2N0N  0000020000000092600000102101200    YCYC    005400370024
BI00B1200    2399T51C20     202112237289-6524-30             HOUSING FEMALE ASS'Y     CCN000003120000003120FN00000000020220101000003120NNM   20211124122808    4N0N  0000002400000135120000166621200    YCYC    005500360039
BI00B1200    2399T51C21     202201067289-6524-30             HOUSING FEMALE ASS'Y     CCN000003120000003120FN00000000020220101000003120NNM   20211124122808    4N0N  0000002400000135120000166621200    YCYC    005500360039
BI00B1200    2399T51C22     202201137289-6524-30             HOUSING FEMALE ASS'Y     CCN000003120000003120FN00000000020220101000003120NNM   20211124122808    4N0N  0000002400000135120000166621200    YCYC    005500360039
BI00B1200    2399T51C23     202201207289-6524-30             HOUSING FEMALE ASS'Y     CCN000003120000003120FN00000000020220101000003120NNM   20211124122808    4N0N  0000002400000135120000166621200    YCYC    005500360039
BI00B1200    2399T51C20     202112237289-6547                HOUSING FEMALE ASS'Y     CCN000172800000172800FN00000000020220101000172800NNM   20211124122808    1N0N  0000024000000115200000136201200    YCYC    005500360039
BI00B1200    2399T51C21     202201067289-6547                HOUSING FEMALE ASS'Y     CCN000172800000172800FN00000000020220101000172800NNM   20211124122808    1N0N  0000024000000115200000136201200    YCYC    005500360039
BI00B1200    2399T51C22     202201137289-6547                HOUSING FEMALE ASS'Y     CCN000172800000172800FN00000000020220101000172800NNM   20211124122808    1N0N  0000024000000115200000136201200    YCYC    005500360039
BI00B1200    2399T51C23     202201207289-6547                HOUSING FEMALE ASS'Y     CCN000172800000172800FN00000000020220101000172800NNM   20211124122808    1N0N  0000024000000115200000136201200    YCYC    005500360039
BI00B1200    2399T51C20     202112237289-6597-70             HOUSING FEMALE ASS'Y     CCN000010800000010800FN00000000020220101000010800NNM   20211124122808    4N0N  0000021600000128950000153951200    YCYC    005500360039
BI00B1200    2399T51C21     202201067289-6597-70             HOUSING FEMALE ASS'Y     CCN000010800000010800FN00000000020220101000010800NNM   20211124122808    4N0N  0000021600000128950000153951200    YCYC    005500360039
BI00B1200    2399T51C22     202201137289-6597-70             HOUSING FEMALE ASS'Y     CCN000008640000008640FN00000000020220101000008640NNM   20211124122808    4N0N  0000021600000128950000153951200    YCYC    005500360039
BI00B1200    2399T51C23     202201207289-6597-70             HOUSING FEMALE ASS'Y     CCN000008640000008640FN00000000020220101000008640NNM   20211124122808    4N0N  0000021600000128950000153951200    YCYC    005500360039
BI00B1200    2399T51C20     202112237289-6868-30             SEALED ASSY FEMALE       CCN000017640000017640FN00000000020220101000017640NNM   20211124122808    4N0N  0000025200000083920000111921200    YCYC    005500360039
BI00B1200    2399T51C21     202201067289-6868-30             SEALED ASSY FEMALE       CCN000015120000015120FN00000000020220101000015120NNM   20211124122808    4N0N  0000025200000083920000111921200    YCYC    005500360039
BI00B1200    2399T51C22     202201137289-6868-30             SEALED ASSY FEMALE       CCN000015120000015120FN00000000020220101000015120NNM   20211124122808    4N0N  0000025200000083920000111921200    YCYC    005500360039
BI00B1200    2399T51C23     202201207289-6868-30             SEALED ASSY FEMALE       CCN000015120000015120FN00000000020220101000015120NNM   20211124122808    4N0N  0000025200000083920000111921200    YCYC    005500360039
BI00B1200    2399T51C20     202112237289-7212-30             HOUSING FEMALE ASS'Y     CCN000008160000008160FN00000000020220101000008160NNM   20211124122808    4N0N  0000002400000138840000159341200    YCYC    005500360039
BI00B1200    2399T51C21     202201067289-7212-30             HOUSING FEMALE ASS'Y     CCN000008160000008160FN00000000020220101000008160NNM   20211124122808    4N0N  0000002400000138840000159341200    YCYC    005500360039
BI00B1200    2399T51C22     202201137289-7212-30             HOUSING FEMALE ASS'Y     CCN000008160000008160FN00000000020220101000008160NNM   20211124122808    4N0N  0000002400000138840000159341200    YCYC    005500360039
BI00B1200    2399T51C23     202201207289-7212-30             HOUSING FEMALE ASS'Y     CCN000008160000008160FN00000000020220101000008160NNM   20211124122808    4N0N  0000002400000138840000159341200    YCYC    005500360039
BI00B1200    2399T51C20     202112237289-7970                HYBRID FEMALE ASS'Y      CCN000005120000005120FN00000000020220101000005120NNM   20211124122808    1N0N  0000003200000073820000096471200    YCYC    005400370024
BI00B1200    2399T51C21     202201067289-7970                HYBRID FEMALE ASS'Y      CCN000005120000005120FN00000000020220101000005120NNM   20211124122808    1N0N  0000003200000073820000096471200    YCYC    005400370024
BI00B1200    2399T51C22     202201137289-7970                HYBRID FEMALE ASS'Y      CCN000005120000005120FN00000000020220101000005120NNM   20211124122808    1N0N  0000003200000073820000096471200    YCYC    005400370024
BI00B1200    2399T51C23     202201207289-7970                HYBRID FEMALE ASS'Y      CCN000005120000005120FN00000000020220101000005120NNM   20211124122808    1N0N  0000003200000073820000096471200    YCYC    005400370024
BI00B1200    2399T51C20     202112237289-9553-30             SEALED ASSY FEMALE       CCN000005880000005880FN00000000020220101000005880NNM   20211124122808    4N0N  0000029400000110900000152151200    YCYC    005500360039
BI00B1200    2399T51C21     202201067289-9553-30             SEALED ASSY FEMALE       CCN000005880000005880FN00000000020220101000005880NNM   20211124122808    4N0N  0000029400000110900000152151200    YCYC    005500360039
BI00B1200    2399T51C22     202201137289-9553-30             SEALED ASSY FEMALE       CCN000005880000005880FN00000000020220101000005880NNM   20211124122808    4N0N  0000029400000110900000152151200    YCYC    005500360039
BI00B1200    2399T51C23     202201207289-9553-30             SEALED ASSY FEMALE       CCN000005880000005880FN00000000020220101000005880NNM   20211124122808    4N0N  0000029400000110900000152151200    YCYC    005500360039
BI00B1200    2399T51C20     202112237289-9553-50             SEALED ASSY FEMALE       CCN000017640000017640FN00000000020220101000017640NNM   20211124122808    4N0N  0000029400000110810000152061200    YCYC    005500360039
BI00B1200    2399T51C21     202201067289-9553-50             SEALED ASSY FEMALE       CCN000017640000017640FN00000000020220101000017640NNM   20211124122808    4N0N  0000029400000110810000152061200    YCYC    005500360039
BI00B1200    2399T51C22     202201137289-9553-50             SEALED ASSY FEMALE       CCN000017640000017640FN00000000020220101000017640NNM   20211124122808    4N0N  0000029400000110810000152061200    YCYC    005500360039
BI00B1200    2399T51C23     202201207289-9553-50             SEALED ASSY FEMALE       CCN000014700000014700FN00000000020220101000014700NNM   20211124122808    4N0N  0000029400000110810000152061200    YCYC    005500360039
BI00B1200    2399T51C20     202112237289-9612-30             HOUSING FEMALE ASS'Y     CCN000000720000000720FN00000000020220101000000720NNM   20211124122808    4N0N  0000002400000134880000166881200    YCYC    005500360039
BI00B1200    2399T51C21     202201067289-9612-30             HOUSING FEMALE ASS'Y     CCN000000720000000720FN00000000020220101000000720NNM   20211124122808    4N0N  0000002400000134880000166881200    YCYC    005500360039
BI00B1200    2399T51C22     202201137289-9612-30             HOUSING FEMALE ASS'Y     CCN000000720000000720FN00000000020220101000000720NNM   20211124122808    4N0N  0000002400000134880000166881200    YCYC    005500360039
BI00B1200    2399T51C23     202201207289-9612-30             HOUSING FEMALE ASS'Y     CCN000000480000000480FN00000000020220101000000480NNM   20211124122808    4N0N  0000002400000134880000166881200    YCYC    005500360039
BI00B1200    2399T51C20     202112237289-9613-30             HOUSING FEMALE ASS'Y     CCN000000480000000480FN00000000020220101000000480NNM   20211124122808    4N0N  0000002400000126990000154371200    YCYC    005500360039
BI00B1200    2399T51C21     202201067289-9613-30             HOUSING FEMALE ASS'Y     CCN000000240000000240FN00000000020220101000000240NNM   20211124122808    4N0N  0000002400000126990000154371200    YCYC    005500360039
BI00B1200    2399T51C22     202201137289-9613-30             HOUSING FEMALE ASS'Y     CCN000000240000000240FN00000000020220101000000240NNM   20211124122808    4N0N  0000002400000126990000154371200    YCYC    005500360039
BI00B1200    2399T51C23     202201207289-9613-30             HOUSING FEMALE ASS'Y     CCN000000240000000240FN00000000020220101000000240NNM   20211124122808    4N0N  0000002400000126990000154371200    YCYC    005500360039
BI00B1200    2399T51C20     202112237298-1145-4W             SQUIB SUB ASS'Y          CCN000050000000050000FN00000000020220101000050000NNM   20211124122808    4N0N  0000100000000078790000094491200    YCYC    005400370024
BI00B1200    2399T51C21     202201067298-1145-4W             SQUIB SUB ASS'Y          CCN000050000000050000FN00000000020220101000050000NNM   20211124122808    4N0N  0000100000000078790000094491200    YCYC    005400370024
BI00B1200    2399T51C22     202201137298-1145-4W             SQUIB SUB ASS'Y          CCN000040000000040000FN00000000020220101000040000NNM   20211124122808    4N0N  0000100000000078790000094491200    YCYC    005400370024
BI00B1200    2399T51C23     202201207298-1145-4W             SQUIB SUB ASS'Y          CCN000040000000040000FN00000000020220101000040000NNM   20211124122808    4N0N  0000100000000078790000094491200    YCYC    005400370024
BI00B1200    2399T51C20     202112237298-2853-30             HOUSING FEMALE ASS'Y     CCN000000480000000480FN00000000020220101000000480NNM   20211124122808    4N0N  0000002400000109490000136091200    YCYC    005500360039
BI00B1200    2399T51C21     202201067298-2853-30             HOUSING FEMALE ASS'Y     CCN000000480000000480FN00000000020220101000000480NNM   20211124122808    4N0N  0000002400000109490000136091200    YCYC    005500360039
BI00B1200    2399T51C22     202201137298-2853-30             HOUSING FEMALE ASS'Y     CCN000000480000000480FN00000000020220101000000480NNM   20211124122808    4N0N  0000002400000109490000136091200    YCYC    005500360039
BI00B1200    2399T51C23     202201207298-2853-30             HOUSING FEMALE ASS'Y     CCN000000240000000240FN00000000020220101000000240NNM   20211124122808    4N0N  0000002400000109490000136091200    YCYC    005500360039
BI00B1200    2399T51C20     202112237298-3990-30             HOUSING FEMALE ASS'Y     CCN000001440000001440FN00000000020220101000001440NNM   20211124122808    4NON  0000002400000120890000157391200    YCYC    005500360039
BI00B1200    2399T51C21     202201067298-3990-30             HOUSING FEMALE ASS'Y     CCN000001440000001440FN00000000020220101000001440NNM   20211124122808    4NON  0000002400000120890000157391200    YCYC    005500360039
BI00B1200    2399T51C22     202201137298-3990-30             HOUSING FEMALE ASS'Y     CCN000001440000001440FN00000000020220101000001440NNM   20211124122808    4NON  0000002400000120890000157391200    YCYC    005500360039
BI00B1200    2399T51C23     202201207298-3990-30             HOUSING FEMALE ASS'Y     CCN000001200000001200FN00000000020220101000001200NNM   20211124122808    4NON  0000002400000120890000157391200    YCYC    005500360039
BI00B1200    2399T51C20     202112237298-4094-10             HOUSING FEMALE ASS'Y     CCN000020280000020280FN00000000020220101000020280NNM   20211124122808    4N0N  0000033800000109740000135871200    YCYC    005400370024
BI00B1200    2399T51C21     202201067298-4094-10             HOUSING FEMALE ASS'Y     CCN000020280000020280FN00000000020220101000020280NNM   20211124122808    4N0N  0000033800000109740000135871200    YCYC    005400370024
BI00B1200    2399T51C22     202201137298-4094-10             HOUSING FEMALE ASS'Y     CCN000016900000016900FN00000000020220101000016900NNM   20211124122808    4N0N  0000033800000109740000135871200    YCYC    005400370024
BI00B1200    2399T51C23     202201207298-4094-10             HOUSING FEMALE ASS'Y     CCN000016900000016900FN00000000020220101000016900NNM   20211124122808    4N0N  0000033800000109740000135871200    YCYC    005400370024
BI00B1200    2399T51C23     202201207289-6523-30             HOUSING FEMALE ASS'Y     CCN000001680000001680FN00000000020220101000001680NNM   20211124122808    4N0N  0000002400000129050000162051200    YCYC    005500360039
BI00B1200    2399T51C24     202201277289-6523-30             HOUSING FEMALE ASS'Y     CCN000001680000001680FN00000000020220101000001680NNM   20211124122808    4N0N  0000002400000129050000162051200    YCYC    005500360039
BI00B1200    #7242T51C05    202112237172-5632-10             DUMMY PLUG               CCN000040000000040000FN00000000020220101000040000NNM   20211124122808    2H0H  0000200000000008040000013181200    YCYC    004300270014
BI00B1200    7360T51C01     202112237195-0783-08             TERMINAL                 CCN000030000000030000FN00000000020220101000030000NNM   20211124122808    4P0P  0000300000000050700000080121200    YCYC    006400630015
BI00B1200    7360T51C02     202201067195-0783-08             TERMINAL                 CCN000030000000030000FN00000000020220101000030000NNM   20211124122808    4P0P  0000300000000050700000080121200    YCYC    006400630015
BI00B1200    7360T51C03     202201137195-0783-08             TERMINAL                 CCN000030000000030000FN00000000020220101000030000NNM   20211124122808    4P0P  0000300000000050700000080121200    YCYC    006400630015
BI00B1200    7360T51C01     202112237288-3330-30             HOUSING MALE             CCN000003000000003000FN00000000020220101000003000NNM   20211124122808    4N0N  0000015000000086630000101121200    YCYC    005400370024
BI00B1200    7360T51C02     202201067288-3330-30             HOUSING MALE             CCN000001500000001500FN00000000020220101000001500NNM   20211124122808    4N0N  0000015000000086630000101121200    YCYC    005400370024
BI00B1200    7360T51C01     202112237288-3331-30             HOUSING MALE             CCN000010500000010500FN00000000020220101000010500NNM   20211124122808    4N0N  0000015000000086600000101091200    YCYC    005400370024
BI00B1200    7360T51C02     202201067288-3331-30             HOUSING MALE             CCN000009000000009000FN00000000020220101000009000NNM   20211124122808    4N0N  0000015000000086600000101091200    YCYC    005400370024
BI00B1200    7360T51C03     202201137288-3331-30             HOUSING MALE             CCN000009000000009000FN00000000020220101000009000NNM   20211124122808    4N0N  0000015000000086600000101091200    YCYC    005400370024
BI00B1200    7360T51C01     202112237288-3333-30             HOUSING MALE             CCN000010500000010500FN00000000020220101000010500NNM   20211124122808    4N0N  0000015000000086700000101201200    YCYC    005400370024
BI00B1200    7360T51C02     202201067288-3333-30             HOUSING MALE             CCN000009000000009000FN00000000020220101000009000NNM   20211124122808    4N0N  0000015000000086700000101201200    YCYC    005400370024
BI00B1200    7360T51C03     202201137288-3333-30             HOUSING MALE             CCN000009000000009000FN00000000020220101000009000NNM   20211124122808    4N0N  0000015000000086700000101201200    YCYC    005400370024
BI00B1200    7360T51C01     202112237288-3334-30             HOUSING MALE             CCN000003000000003000FN00000000020220101000003000NNM   20211124122808    4N0N  0000015000000086700000101201200    YCYC    005400370024
BI00B1200    7360T51C02     202201067288-3334-30             HOUSING MALE             CCN000003000000003000FN00000000020220101000003000NNM   20211124122808    4N0N  0000015000000086700000101201200    YCYC    005400370024
BI00B1200    7360T51C03     202201137288-3334-30             HOUSING MALE             CCN000003000000003000FN00000000020220101000003000NNM   20211124122808    4N0N  0000015000000086700000101201200    YCYC    005400370024
BI00B1200    7360T51C01     202112237288-3338-30             HOUSING MALE             CCN000006000000006000FN00000000020220101000006000NNM   20211124122808    4N0N  0000015000000086610000101201200    YCYC    005400370024
BI00B1200    7360T51C02     202201067288-3338-30             HOUSING MALE             CCN000003000000003000FN00000000020220101000003000NNM   20211124122808    4N0N  0000015000000086610000101201200    YCYC    005400370024
BI00B1200    7360T51C03     202201137288-3338-30             HOUSING MALE             CCN000003000000003000FN00000000020220101000003000NNM   20211124122808    4N0N  0000015000000086610000101201200    YCYC    005400370024
BI00B1200    7360T51C01     202112237288-3340-30             HOUSING MALE             CCN000007500000007500FN00000000020220101000007500NNM   20211124122808    4N0N  0000015000000086150000100641200    YCYC    005400370024
BI00B1200    7360T51C02     202201067288-3340-30             HOUSING MALE             CCN000006000000006000FN00000000020220101000006000NNM   20211124122808    4N0N  0000015000000086150000100641200    YCYC    005400370024
BI00B1200    7360T51C03     202201137288-3340-30             HOUSING MALE             CCN000006000000006000FN00000000020220101000006000NNM   20211124122808    4N0N  0000015000000086150000100641200    YCYC    005400370024
BI00B1200    7360T51C01     202112237288-6598-70             HOUSING MALE ASS'Y       CCN000004320000004320FN00000000020220101000004320NNM   20211124122808    4N0N  0000014400000107420000142921200    YCYC    005500360039
BI00B1200    7360T51C02     202201067288-6598-70             HOUSING MALE ASS'Y       CCN000002880000002880FN00000000020220101000002880NNM   20211124122808    4N0N  0000014400000107420000142921200    YCYC    005500360039
BI00B1200    7360T51C03     202201137288-6598-70             HOUSING MALE ASS'Y       CCN000002880000002880FN00000000020220101000002880NNM   20211124122808    4N0N  0000014400000107420000142921200    YCYC    005500360039
BI00B1200    7360T51C01     202112237289-3342-30             HOUSING FEMALE ASS'Y     CCN000021600000021600FN00000000020220101000021600NNM   20211124122808    1N0N  0000024000000068640000090141200    YCYC    005500360039
BI00B1200    7360T51C02     202201067289-3342-30             HOUSING FEMALE ASS'Y     CCN000021600000021600FN00000000020220101000021600NNM   20211124122808    1N0N  0000024000000068640000090141200    YCYC    005500360039
BI00B1200    7360T51C03     202201137289-3342-30             HOUSING FEMALE ASS'Y     CCN000021600000021600FN00000000020220101000021600NNM   20211124122808    1N0N  0000024000000068640000090141200    YCYC    005500360039
BI00B1200    7360T51C01     202112237388-2978-30             HOUSING MALE ASS'Y       CCN000002400000002400FN00000000020220101000002400NNM   20211124122808    1N0N  0000004800000074200000112201200    YCYC    005500360039
BI00B1200    7360T51C02     202201067388-2978-30             HOUSING MALE ASS'Y       CCN000001440000001440FN00000000020220101000001440NNM   20211124122808    1N0N  0000004800000074200000112201200    YCYC    005500360039
BI00B1200    7360T51C03     202201137388-2978-30             HOUSING MALE ASS'Y       CCN000001440000001440FN00000000020220101000001440NNM   20211124122808    1N0N  0000004800000074200000112201200    YCYC    005500360039
BI00B1200    #7360T51C01    202112237172-5625-90             RUBBER STOPPER           CCN000020000000020000FN00000000020220101000020000NNM   20211124122808    2H0H  0000200000000008240000013381200    YCYC    004300270014
BI00B1200    #7360T51C01    202112237172-5627-60             RUBBER STOPPER           CCN000020000000020000FN00000000020220101000020000NNM   20211124122808    2H0H  0000200000000007040000012181200    YCYC    004300270014
BI00B1200    #7360T51C02    202201067172-5627-60             RUBBER STOPPER           CCN000020000000020000FN00000000020220101000020000NNM   20211124122808    2H0H  0000200000000007040000012181200    YCYC    004300270014
BI00B1200    #7360T51C01    202112237172-5629-80             RUBBER STOPPER           CCN000080000000080000FN00000000020220101000080000NNM   20211124122808    2H0H  0000200000000006000000011111200    YCYC    004300270014
BI00B1200    #7360T51C02    202201067172-5629-80             RUBBER STOPPER           CCN000080000000080000FN00000000020220101000080000NNM   20211124122808    2H0H  0000200000000006000000011111200    YCYC    004300270014
BI00B1200    #7360T51C03    202201137172-5629-80             RUBBER STOPPER           CCN000080000000080000FN00000000020220101000080000NNM   20211124122808    2H0H  0000200000000006000000011111200    YCYC    004300270014
BI00B1200    #7360T51C01    202112237172-5632-10             DUMMY PLUG               CCN000260000000260000FN00000000020220101000260000NNM   20211124122808    2H0H  0000200000000008040000013181200    YCYC    004300270014
BI00B1200    #7360T51C02    202201067172-5632-10             DUMMY PLUG               CCN000240000000240000FN00000000020220101000240000NNM   20211124122808    2H0H  0000200000000008040000013181200    YCYC    004300270014
BI00B1200    #7360T51C03    202201137172-5632-10             DUMMY PLUG               CCN000240000000240000FN00000000020220101000240000NNM   20211124122808    2H0H  0000200000000008040000013181200    YCYC    004300270014
BI00B1200    #7360T51C01    202112237188-3035                HOUSING MALE             CCN000002400000002400FN00000000020220101000002400NNM   20211124122808    2F0F  0000024000000069360000091361200    YCYC    005500360039
BI00B1200    #7360T51C02    202201067188-3035                HOUSING MALE             CCN000002400000002400FN00000000020220101000002400NNM   20211124122808    2F0F  0000024000000069360000091361200    YCYC    005500360039
BI00B1200    #7360T51C01    202112237189-3031                HOUSING FEMALE           CCN000002400000002400FN00000000020220101000002400NNM   20211124122808    2F0F  0000024000000092880000136581200    YCYC    005500360039
BI00B1200    #7360T51C01    202112237189-3032                HOUSING FEMALE           CCN000001600000001600FN00000000020220101000001600NNM   20211124122808    2F0F  0000016000000078840000101841200    YCYC    005500360039
BI00B1200    #7360T51C02    202201067189-3032                HOUSING FEMALE           CCN000001600000001600FN00000000020220101000001600NNM   20211124122808    2F0F  0000016000000078840000101841200    YCYC    005500360039
BI00B1200    #7360T51C01    202112237189-3032-30             HOUSING FEMALE           CCN000001600000001600FN00000000020220101000001600NNM   20211124122808    2F0F  0000016000000080160000102161200    YCYC    005500360039
BI00B1200    #7360T51C01    202112237189-3033                HOUSING FEMALE           CCN000006400000006400FN00000000020220101000006400NNM   20211124122808    2F0F  0000016000000121120000143121200    YCYC    005500360039
BI00B1200    #7360T51C02    202201067189-3033                HOUSING FEMALE           CCN000003200000003200FN00000000020220101000003200NNM   20211124122808    2F0F  0000016000000121120000143121200    YCYC    005500360039
BI00B1200    #7360T51C03    202201137189-3033                HOUSING FEMALE           CCN000003200000003200FN00000000020220101000003200NNM   20211124122808    2F0F  0000016000000121120000143121200    YCYC    005500360039
BI00B1200    #7360T51C01    202112237189-3036                HOUSING FEMALE           CCN000004800000004800FN00000000020220101000004800NNM   20211124122808    2F0F  0000016000000092160000114161200    YCYC    005500360039
BI00B1200    #7360T51C02    202201067189-3036                HOUSING FEMALE           CCN000003200000003200FN00000000020220101000003200NNM   20211124122808    2F0F  0000016000000092160000114161200    YCYC    005500360039
BI00B1200    #7360T51C03    202201137189-3036                HOUSING FEMALE           CCN000003200000003200FN00000000020220101000003200NNM   20211124122808    2F0F  0000016000000092160000114161200    YCYC    005500360039
BI00B1200    #7360T51C01    202112237289-2913-30             HOUSING FEMALE ASS'Y     CCN000001500000001500FN00000000020220101000001500NNM   20211124122808    2N0N  0000015000000090750000103451200    YCYC    005400360024
BI00B1200    #7360T51C01    202112237289-2914                HOUSING FEMALE ASS'Y     CCN000001500000001500FN00000000020220101000001500NNM   20211124122808    2N0N  0000015000000090600000103301200    YCYC    005400370024
BI00B1200    #7360T51C02    202201067289-2914                HOUSING FEMALE ASS'Y     CCN000001500000001500FN00000000020220101000001500NNM   20211124122808    2N0N  0000015000000090600000103301200    YCYC    005400370024
BI00B1200    #7360T51C01    202112237289-2914-40             HOUSING FEMALE ASS'Y     CCN000001500000001500FN00000000020220101000001500NNM   20211124122808    2N0N  0000015000000090450000103151200    YCYC    005400370024
BI00B1200    #7360T51C02    202201067289-2914-40             HOUSING FEMALE ASS'Y     CCN000001500000001500FN00000000020220101000001500NNM   20211124122808    2N0N  0000015000000090450000103151200    YCYC    005400370024
BI00B1200    #7360T51C03    202201137289-2914-40             HOUSING FEMALE ASS'Y     CCN000001500000001500FN00000000020220101000001500NNM   20211124122808    2N0N  0000015000000090450000103151200    YCYC    005400370024
BI00B1200    #7360T51C01    202112237289-2915-30             HOUSING FEMALE ASS'Y     CCN000001500000001500FN00000000020220101000001500NNM   20211124122808    2N0N  0000015000000096450000109151200    YCYC    005400360024
BI00B1200    #7360T51C02    202201067289-2915-30             HOUSING FEMALE ASS'Y     CCN000001500000001500FN00000000020220101000001500NNM   20211124122808    2N0N  0000015000000096450000109151200    YCYC    005400360024
BI00B1200    #7360T51C01    202112237289-2916-30             HOUSING FEMALE ASS'Y     CCN000001000000001000FN00000000020220101000001000NNM   20211124122808    2N0N  0000010000000085700000108401200    YCYC    005400360024
BI00B1200    #7360T51C01    202112237289-2917-30             HOUSING FEMALE ASS'Y     CCN000001000000001000FN00000000020220101000001000NNM   20211124122808    2N0N  0000010000000096400000109101200    YCYC    005400370024
BI00B1200    #7360T51C01    202112237289-2918-30             HOUSING FEMALE ASS'Y     CCN000001000000001000FN00000000020220101000001000NNM   20211124122808    2N0N  0000010000000101800000114501200    YCYC    005400360024
BI00B1200    #7360T51C01    202112237289-2918-40             HOUSING FEMALE ASS'Y     CCN000001000000001000FN00000000020220101000001000NNM   20211124122808    2N0N  0000010000000102000000114701200    YCYC    005400360024
BI00B1200    #7360T51C01    202112237289-2919-30             HOUSING FEMALE ASS'Y     CCN000003000000003000FN00000000020220101000003000NNM   20211124122808    2N0N  0000015000000090750000103451200    YCYC    005400360024
BI00B1200    7860T51C02     202112237158-3022-80             RUBBER STOPPER           CCN000015000000015000FN00000000020220101000015000NNM   20211124122808    1C0C  0000050000000046750000052401200    YCYC    002700430014
BI00B1200    #7860T51C01    202112237189-3031                HOUSING FEMALE           CCN000002400000002400FN00000000020220101000002400NNM   20211124122808    2F0F  0000024000000092880000136581200    YCYC    005500360039
BI00B1200    #7860T51C02    202112237189-3031                HOUSING FEMALE           CCN000004800000004800FN00000000020220101000004800NNM   20211124122808    2F0F  0000024000000092880000136581200    YCYC    005500360039
BI00B1200    #7860T51C03    202201067189-3031                HOUSING FEMALE           CCN000004800000004800FN00000000020220101000004800NNM   20211124122808    2F0F  0000024000000092880000136581200    YCYC    005500360039
BI00B1200    #7860T51C04    202201137189-3031                HOUSING FEMALE           CCN000002400000002400FN00000000020220101000002400NNM   20211124122808    2F0F  0000024000000092880000136581200    YCYC    005500360039
BI00B1200    #7860T51C05    202201277189-3031                HOUSING FEMALE           CCN000007200000007200FN00000000020220101000007200NNM   20211124122808    2F0F  0000024000000092880000136581200    YCYC    005500360039
BI00B1200    #7860T51C02    202112237172-5632-10             DUMMY PLUG               CCN000040000000040000FN00000000020220101000040000NNM   20211124122808    2H0H  0000200000000008040000013181200    YCYC    004300270014
BI00B1200    #7860T51C03    202201067172-5632-10             DUMMY PLUG               CCN000040000000040000FN00000000020220101000040000NNM   20211124122808    2H0H  0000200000000008040000013181200    YCYC    004300270014
BI00B1200    #7860T51C04    202201137172-5632-10             DUMMY PLUG               CCN000040000000040000FN00000000020220101000040000NNM   20211124122808    2H0H  0000200000000008040000013181200    YCYC    004300270014
BI00B1200    #7860T51C05    202201277172-5632-10             DUMMY PLUG               CCN000020000000020000FN00000000020220101000020000NNM   20211124122808    2H0H  0000200000000008040000013181200    YCYC    004300270014
BI00B1200    8100T51C01     202112237289-9553-30             SEALED ASSY FEMALE       CCN000002940000002940FN00000000020220101000002940NNM   20211124122808    4N0N  0000029400000110900000152151200    YCYC    005500360039
BI00B1200    8100T51C01     202112237289-9553-50             SEALED ASSY FEMALE       CCN000002940000002940FN00000000020220101000002940NNM   20211124122808    4N0N  0000029400000110810000152061200    YCYC    005500360039
BI00B1200    #8100T51C03    202112237174-1760-50             CAP                      CCN000006000000006000FN00000000020220101000006000NNM   20211124122808    2F0F  0000030000000081360000092261200    YCYC    005400370024
BI00B1200    #8100T51C06    202112237154-5597-30             CASSETTE R/B             CCN000001600000001600FN00000000020220101000001600NNM   20211124122808    2F0F  0000008000000073600000095201200    YCYC    005500360039
BI00B1200    #8100T51C07    202201067154-5597-30             CASSETTE R/B             CCN000001600000001600FN00000000020220101000001600NNM   20211124122808    2F0F  0000008000000073600000095201200    YCYC    005500360039
BI00B1200    #8100T51C08    202201137154-5597-30             CASSETTE R/B             CCN000001600000001600FN00000000020220101000001600NNM   20211124122808    2F0F  0000008000000073600000095201200    YCYC    005500360039
BI00B1200    O022B50029     202201067174-1849-70             COVER                    CCN000025000000025000FN00000000020220201000025000NNE   20211124122808    1F0F  0000250000000062250000076191200    YCYC    005400370024
BI00B1200    O022B50030     202201067298-1145-4W             SQUIB SUB ASS'Y          CCN000010000000010000FN00000000020220201000010000NNE   20211124122808    4N0N  0000100000000078790000094491200    YCYC    005400370024
BI00B1200    2399T51C08     202201207116-4100-02             TERMINAL                 CCN000030000000030000FN00000000020220201000030000NNM   20211124122808    4P0P  0000150000000069600000099021200    YCYC    006400630015
BI00B1200    2399T51C09     202201277116-4100-02             TERMINAL                 CCN000030000000030000FN00000000020220201000030000NNM   20211124122808    4P0P  0000150000000069600000099021200    YCYC    006400630015
BI00B1200    2399T51C08     202201207116-4111-02             TERMINAL                 CCN000060000000060000FN00000000020220201000060000NNM   20211124122808    4P0P  0000075000000052950000081771200    YCYC    006400630015
BI00B1200    2399T51C09     202201277116-4111-02             TERMINAL                 CCN000060000000060000FN00000000020220201000060000NNM   20211124122808    4P0P  0000075000000052950000081771200    YCYC    006400630015
BI00B1200    2399T51C08     202201207137-3047-30             UNIT PACKING             CCN000004000000004000FN00000000020220201000004000NNM   20211124122808    1C0C  0000010000000017050000021891200    YCYC    002700430014
BI00B1200    2399T51C09     202201277137-3047-30             UNIT PACKING             CCN000003000000003000FN00000000020220201000003000NNM   20211124122808    1C0C  0000010000000017050000021891200    YCYC    002700430014
BI00B1200    2399T51C08     202201207158-3022-80             RUBBER STOPPER           CCN000005000000005000FN00000000020220201000005000NNM   20211124122808    1C0C  0000050000000046750000052401200    YCYC    002700430014
BI00B1200    2399T51C09     202201277158-3022-80             RUBBER STOPPER           CCN000005000000005000FN00000000020220201000005000NNM   20211124122808    1C0C  0000050000000046750000052401200    YCYC    002700430014
BI00B1200    2399T51C08     202201207172-5402-30             SEAL RUBBER              CCN000008000000008000FN00000000020220201000008000NNM   20211124122808    1C0C  0000080000000045760000050601200    YCYC    004300270014
BI00B1200    2399T51C09     202201277172-5402-30             SEAL RUBBER              CCN000008000000008000FN00000000020220201000008000NNM   20211124122808    1C0C  0000080000000045760000050601200    YCYC    004300270014
BI00B1200    2399T51C08     202201207172-5403-30             SEALED PACKING           CCN000012000000012000FN00000000020220201000012000NNM   20211124122808    1C0C  0000040000000065360000070171200    YCYC    004300270014
BI00B1200    2399T51C09     202201277172-5403-30             SEALED PACKING           CCN000012000000012000FN00000000020220201000012000NNM   20211124122808    1C0C  0000040000000065360000070171200    YCYC    004300270014
BI00B1200    2399T51C08     202201207172-5540-80             SEALED WIRE SEAL         CCN000040000000040000FN00000000020220201000040000NNM   20211124122808    1C0C  0000200000000018600000023441200    YCYC    004300270014
BI00B1200    2399T51C09     202201277172-5540-80             SEALED WIRE SEAL         CCN000040000000040000FN00000000020220201000040000NNM   20211124122808    1C0C  0000200000000018600000023441200    YCYC    004300270014
BI00B1200    2399T51C08     202201207173-3291-40             LIF LEVER                CCN000009600000009600FN00000000020220201000009600NNM   20211124122808    1F0F  0000024000000086780000106781200    YCYC    005500360039
BI00B1200    2399T51C09     202201277173-3291-40             LIF LEVER                CCN000007200000007200FN00000000020220201000007200NNM   20211124122808    1F0F  0000024000000086780000106781200    YCYC    005500360039
BI00B1200    #2399T51C08    202201207154-5597-30             CASSETTE R/B             CCN000096800000096800FN00000000020220201000096800NNM   20211124122808    2F0F  0000008000000073600000095201200    YCYC    005500360039
BI00B1200    #2399T51C09    202201277154-5597-30             CASSETTE R/B             CCN000096000000096000FN00000000020220201000096000NNM   20211124122808    2F0F  0000008000000073600000095201200    YCYC    005500360039
BI00B1200    #2399T51C08    202202177173-3225-10             LIF LEVER                CCN000042400000022400FN00000000020220201000022400NNMD0420211124161504    2F0F  0000008000000059200000071201200    YCYC    005500360039
BI00B1200    #2399T51C09    202203107173-3225-10             LIF LEVER                CCN000042400000042400FN00000000020220201000042400NNMD0420211124161529    2F0F  0000008000000059200000071201200    YCYC    005500360039
BI00B1200    #2399T51C08    202201207174-1270-30             SEALED COVER             CCN000000800000000800FN00000000020220201000000800NNM   20211124122808    2F0F  0000008000000056070000067911200    YCYC    005500360039
BI00B1200    #2399T51C08    202201207174-1271-30             SEALED COVER             CCN000000320000000320FN00000000020220201000000320NNM   20211124122808    2F0F  0000003200000038370000050211200    YCYC    005500360039
BI00B1200    #2399T51C09    202201277174-1271-30             SEALED COVER             CCN000000320000000320FN00000000020220201000000320NNM   20211124122808    2F0F  0000003200000038370000050211200    YCYC    005500360039
BI00B1200    #2399T51C08    202201207174-1314-30             SEALED COVER             CCN000005600000005600FN00000000020220201000005600NNM   20211124122808    2F0F  0000008000000076930000088931200    YCYC    005500360039
BI00B1200    #2399T51C09    202201277174-1314-30             SEALED COVER             CCN000005600000005600FN00000000020220201000005600NNM   20211124122808    2F0F  0000008000000076930000088931200    YCYC    005500360039
BI00B1200    #2399T51C08    202201207174-1315-30             SEALED COVER             CCN000012800000012800FN00000000020220201000012800NNM   20211124122808    2F0F  0000008000000078200000090201200    YCYC    005500360039
BI00B1200    #2399T51C09    202201277174-1315-30             SEALED COVER             CCN000012800000012800FN00000000020220201000012800NNM   20211124122808    2F0F  0000008000000078200000090201200    YCYC    005500360039
BI00B1200    2399T51C13     202201207174-1849-70             COVER                    CCN000050000000050000FN00000000020220201000050000NNM   20211124122808    1F0F  0000250000000062250000076191200    YCYC    005400370024
BI00B1200    2399T51C14     202201277174-1849-70             COVER                    CCN000025000000025000FN00000000020220201000025000NNM   20211124122808    1F0F  0000250000000062250000076191200    YCYC    005400370024
BI00B1200    2399T51C13     202201207195-0783-08             TERMINAL                 CCN000060000000060000FN00000000020220201000060000NNM   20211124122808    4P0P  0000300000000050700000080121200    YCYC    006400630015
BI00B1200    2399T51C14     202201277195-0783-08             TERMINAL                 CCN000060000000060000FN00000000020220201000060000NNM   20211124122808    4P0P  0000300000000050700000080121200    YCYC    006400630015
BI00B1200    2399T51C13     202201207196-0549-02             TERMINAL ALUMINIUM       CCN000038000000038000FN00000000020220201000038000NNM   20211124122808    4P0P  0000380000000059280000097921200    YCYC    006400630017
BI00B1200    2399T51C13     202201207196-0648-02             TERMINAL                 CCN000045000000045000FN00000000020220201000045000NNM   20211124122808    4P0P  0000150000000035550000068971200    YCYC    006400630015
BI00B1200    2399T51C14     202201277196-0648-02             TERMINAL                 CCN000045000000045000FN00000000020220201000045000NNM   20211124122808    4P0P  0000150000000035550000068971200    YCYC    006400630015
BI00B1200    2399T51C13     202201207196-0805-02             TERMINAL FEMALE          CCN000067500000067500FN00000000020220201000067500NNM   20211124122808    4P0P  0000225000000055800000084321200    YCYC    006400630015
BI00B1200    2399T51C14     202201277196-0805-02             TERMINAL FEMALE          CCN000067500000067500FN00000000020220201000067500NNM   20211124122808    4P0P  0000225000000055800000084321200    YCYC    006400630015
BI00B1200    #2399T51C13    202201207174-1515                FRONT DOOR COVER         CCN000007800000007800FN00000000020220201000007800NNM   20211124122808    2F0F  0000006000000049020000061021200    YCYC    005500360039
BI00B1200    #2399T51C14    202201277174-1515                FRONT DOOR COVER         CCN000007800000007800FN00000000020220201000007800NNM   20211124122808    2F0F  0000006000000049020000061021200    YCYC    005500360039
BI00B1200    #2399T51C13    202201207189-3033                HOUSING FEMALE           CCN000012800000012800FN00000000020220201000012800NNM   20211124122808    2F0F  0000016000000121120000143121200    YCYC    005500360039
BI00B1200    #2399T51C14    202201277189-3033                HOUSING FEMALE           CCN000012800000012800FN00000000020220201000012800NNM   20211124122808    2F0F  0000016000000121120000143121200    YCYC    005500360039
BI00B1200    #2399T51C13    202201207189-3034-30             HOUSING FEMALE           CCN000009600000009600FN00000000020220201000009600NNM   20211124122808    2F0F  0000016000000097280000119281200    YCYC    005500360039
BI00B1200    #2399T51C14    202201277189-3034-30             HOUSING FEMALE           CCN000009600000009600FN00000000020220201000009600NNM   20211124122808    2F0F  0000016000000097280000119281200    YCYC    005500360039
BI00B1200    #2399T51C13    202201207189-3036                HOUSING FEMALE           CCN000011200000011200FN00000000020220201000011200NNM   20211124122808    2F0F  0000016000000092160000114161200    YCYC    005500360039
BI00B1200    #2399T51C14    202201277189-3036                HOUSING FEMALE           CCN000011200000011200FN00000000020220201000011200NNM   20211124122808    2F0F  0000016000000092160000114161200    YCYC    005500360039
BI00B1200    #2399T51C13    202201207198-1373-60             HOUSING FEMALE           CCN000008000000008000FN00000000020220201000008000NNM   20211124122808    2F0F  0000020000000081940000094741200    YCYC    005400370024
BI00B1200    #2399T51C14    202201277198-1373-60             HOUSING FEMALE           CCN000008000000008000FN00000000020220201000008000NNM   20211124122808    2F0F  0000020000000081940000094741200    YCYC    005400370024
BI00B1200    2399T51C18     202201207287-9323                UNSEALED HOUSING SUB     CCN000007200000007200FN00000000020220201000007200NNM   20211124122808    1N0N  0000024000000053760000069001200    YCYC    005600390023
BI00B1200    2399T51C19     202201277287-9323                UNSEALED HOUSING SUB     CCN000007200000007200FN00000000020220201000007200NNM   20211124122808    1N0N  0000024000000053760000069001200    YCYC    005600390023
BI00B1200    2399T51C18     202201207287-9323-30             UNSEALED HOUSING SUB     CCN000002400000002400FN00000000020220201000002400NNM   20211124122808    1N0N  0000024000000053760000069001200    YCYC    005600390023
BI00B1200    2399T51C19     202201277287-9323-30             UNSEALED HOUSING SUB     CCN000002400000002400FN00000000020220201000002400NNM   20211124122808    1N0N  0000024000000053760000069001200    YCYC    005600390023
BI00B1200    2399T51C18     202201207288-3334-30             HOUSING MALE             CCN000001500000001500FN00000000020220201000001500NNM   20211124122808    4N0N  0000015000000086700000101201200    YCYC    005400370024
BI00B1200    2399T51C19     202201277288-3334-30             HOUSING MALE             CCN000001500000001500FN00000000020220201000001500NNM   20211124122808    4N0N  0000015000000086700000101201200    YCYC    005400370024
BI00B1200    2399T51C18     202201207288-3339-30             HOUSING MALE             CCN000003000000003000FN00000000020220201000003000NNM   20211124122808    4N0N  0000015000000086700000101201200    YCYC    005400370024
BI00B1200    2399T51C19     202201277288-3339-30             HOUSING MALE             CCN000003000000003000FN00000000020220201000003000NNM   20211124122808    4N0N  0000015000000086700000101201200    YCYC    005400370024
BI00B1200    2399T51C18     202201207288-6547                CONNECTOR MALE ASS'Y     CCN000240000000240000FN00000000020220201000240000NNM   20211124122808    4N0N  0000007500000120530000134031200    YCYC    005400370024
BI00B1200    2399T51C19     202201277288-6547                CONNECTOR MALE ASS'Y     CCN000240000000240000FN00000000020220201000240000NNM   20211124122808    4N0N  0000007500000120530000134031200    YCYC    005400370024
BI00B1200    2399T51C18     202201207288-6598-70             HOUSING MALE ASS'Y       CCN000015840000015840FN00000000020220201000015840NNM   20211124122808    4N0N  0000014400000107420000142921200    YCYC    005500360039
BI00B1200    2399T51C19     202201277288-6598-70             HOUSING MALE ASS'Y       CCN000015840000015840FN00000000020220201000015840NNM   20211124122808    4N0N  0000014400000107420000142921200    YCYC    005500360039
BI00B1200    2399T51C18     202201207289-0269                HOUSING SUB ASSEMBLY     CCN000014400000014400FN00000000020220201000014400NNM   20211124122808    1N0N  0000016000000100210000123451200    YCYC    005500360039
BI00B1200    2399T51C19     202201277289-0269                HOUSING SUB ASSEMBLY     CCN000014400000014400FN00000000020220201000014400NNM   20211124122808    1N0N  0000016000000100210000123451200    YCYC    005500360039
BI00B1200    2399T51C18     202201207289-3342-30             HOUSING FEMALE ASS'Y     CCN000004800000004800FN00000000020220201000004800NNM   20211124122808    1N0N  0000024000000068640000090141200    YCYC    005500360039
BI00B1200    2399T51C19     202201277289-3342-30             HOUSING FEMALE ASS'Y     CCN000004800000004800FN00000000020220201000004800NNM   20211124122808    1N0N  0000024000000068640000090141200    YCYC    005500360039
BI00B1200    2399T51C18     202201207289-4212-80             SEALED HOUSING ASS'Y     CCN000016000000016000FN00000000020220201000016000NNM   20211124122808    4N0N  0000020000000084860000097861200    YCYC    005400370024
BI00B1200    2399T51C19     202201277289-4212-80             SEALED HOUSING ASS'Y     CCN000016000000016000FN00000000020220201000016000NNM   20211124122808    4N0N  0000020000000084860000097861200    YCYC    005400370024
BI00B1200    2399T51C18     202201207289-5979-30             HOUSING FEMALE ASS'Y     CCN000023940000023940FN00000000020220201000023940NNM   20211124122808    1N0N  0000002520000085470000106471200    YCYC    005400370024
BI00B1200    2399T51C19     202201277289-5979-30             HOUSING FEMALE ASS'Y     CCN000023940000023940FN00000000020220201000023940NNM   20211124122808    1N0N  0000002520000085470000106471200    YCYC    005400370024
BI00B1200    2399T51C18     202201207289-6159-30             HOUSING FEMALE ASS'Y     CCN000000240000000240FN00000000020220201000000240NNM   20211124122808    4N0N  0000002400000109500000137501200    YCYC    005500360039
BI00B1200    2399T51C19     202201277289-6159-30             HOUSING FEMALE ASS'Y     CCN000000240000000240FN00000000020220201000000240NNM   20211124122808    4N0N  0000002400000109500000137501200    YCYC    005500360039
BI00B1200    2399T51C18     202201207289-6160-30             HOUSING FEMALE ASS'Y     CCN000000320000000320FN00000000020220201000000320NNM   20211124122808    4N0N  0000001600000103740000132041200    YCYC    005500360039
BI00B1200    2399T51C19     202201277289-6160-30             HOUSING FEMALE ASS'Y     CCN000000320000000320FN00000000020220201000000320NNM   20211124122808    4N0N  0000001600000103740000132041200    YCYC    005500360039
BI00B1200    2399T51C18     202201207289-6518-30             HOUSING FEMALE ASS'Y     CCN000007200000007200FN00000000020220201000007200NNM   20211124122808    1N0N  0000012000000082920000104921200    YCYC    005500360039
BI00B1200    2399T51C19     202201277289-6518-30             HOUSING FEMALE ASS'Y     CCN000007200000007200FN00000000020220201000007200NNM   20211124122808    1N0N  0000012000000082920000104921200    YCYC    005500360039
BI00B1200    #2399T51C18    202201207289-2912-40             HOUSING FEMALE ASS'Y     CCN000010000000010000FN00000000020220201000010000NNM   20211124122808    2N0N  0000020000000080400000093101200    YCYC    005400370024
BI00B1200    #2399T51C19    202201277289-2912-40             HOUSING FEMALE ASS'Y     CCN000010000000010000FN00000000020220201000010000NNM   20211124122808    2N0N  0000020000000080400000093101200    YCYC    005400370024
BI00B1200    #2399T51C18    202201207289-2913-30             HOUSING FEMALE ASS'Y     CCN000003000000003000FN00000000020220201000003000NNM   20211124122808    2N0N  0000015000000090750000103451200    YCYC    005400360024
BI00B1200    #2399T51C19    202201277289-2913-30             HOUSING FEMALE ASS'Y     CCN000003000000003000FN00000000020220201000003000NNM   20211124122808    2N0N  0000015000000090750000103451200    YCYC    005400360024
BI00B1200    #2399T51C18    202201207289-3622-30             HOUSING FEMALE ASS'Y     CCN000000432000000432FN00000000020220201000000432NNM   20211124122808    2N0N  0000004320000083940000103841200    YCYC    005400370024
BI00B1200    #2399T51C19    202201277289-3622-30             HOUSING FEMALE ASS'Y     CCN000000432000000432FN00000000020220201000000432NNM   20211124122808    2N0N  0000004320000083940000103841200    YCYC    005400370024
BI00B1200    #2399T51C18    202201207289-4200-30             HOUSING FEMALE ASS'Y     CCN000050000000050000FN00000000020220201000050000NNM   20211124122808    2N0N  0000020000000092600000102101200    YCYC    005400370024
BI00B1200    #2399T51C19    202201277289-4200-30             HOUSING FEMALE ASS'Y     CCN000050000000050000FN00000000020220201000050000NNM   20211124122808    2N0N  0000020000000092600000102101200    YCYC    005400370024
BI00B1200    2399T51C25     202201277289-6524-30             HOUSING FEMALE ASS'Y     CCN000002880000002880FN00000000020220201000002880NNM   20211124122808    4N0N  0000002400000135120000166621200    YCYC    005500360039
BI00B1200    2399T51C25     202201277289-6547                HOUSING FEMALE ASS'Y     CCN000170400000170400FN00000000020220201000170400NNM   20211124122808    1N0N  0000024000000115200000136201200    YCYC    005500360039
BI00B1200    2399T51C25     202201277289-6597-70             HOUSING FEMALE ASS'Y     CCN000008640000008640FN00000000020220201000008640NNM   20211124122808    4N0N  0000021600000128950000153951200    YCYC    005500360039
BI00B1200    2399T51C25     202201277289-6868-30             SEALED ASSY FEMALE       CCN000015120000015120FN00000000020220201000015120NNM   20211124122808    4N0N  0000025200000083920000111921200    YCYC    005500360039
BI00B1200    2399T51C25     202201277289-7212-30             HOUSING FEMALE ASS'Y     CCN000007920000007920FN00000000020220201000007920NNM   20211124122808    4N0N  0000002400000138840000159341200    YCYC    005500360039
BI00B1200    2399T51C25     202201277289-7970                HYBRID FEMALE ASS'Y      CCN000005120000005120FN00000000020220201000005120NNM   20211124122808    1N0N  0000003200000073820000096471200    YCYC    005400370024
BI00B1200    2399T51C25     202201277289-9553-30             SEALED ASSY FEMALE       CCN000005880000005880FN00000000020220201000005880NNM   20211124122808    4N0N  0000029400000110900000152151200    YCYC    005500360039
BI00B1200    2399T51C25     202201277289-9553-50             SEALED ASSY FEMALE       CCN000014700000014700FN00000000020220201000014700NNM   20211124122808    4N0N  0000029400000110810000152061200    YCYC    005500360039
BI00B1200    2399T51C25     202201277289-9612-30             HOUSING FEMALE ASS'Y     CCN000000480000000480FN00000000020220201000000480NNM   20211124122808    4N0N  0000002400000134880000166881200    YCYC    005500360039
BI00B1200    2399T51C25     202201277289-9613-30             HOUSING FEMALE ASS'Y     CCN000000240000000240FN00000000020220201000000240NNM   20211124122808    4N0N  0000002400000126990000154371200    YCYC    005500360039
BI00B1200    2399T51C25     202201277298-1145-4W             SQUIB SUB ASS'Y          CCN000040000000040000FN00000000020220201000040000NNM   20211124122808    4N0N  0000100000000078790000094491200    YCYC    005400370024
BI00B1200    2399T51C25     202201277298-2853-30             HOUSING FEMALE ASS'Y     CCN000000240000000240FN00000000020220201000000240NNM   20211124122808    4N0N  0000002400000109490000136091200    YCYC    005500360039
BI00B1200    2399T51C25     202201277298-3990-30             HOUSING FEMALE ASS'Y     CCN000001200000001200FN00000000020220201000001200NNM   20211124122808    4NON  0000002400000120890000157391200    YCYC    005500360039
BI00B1200    2399T51C25     202201277298-4094-10             HOUSING FEMALE ASS'Y     CCN000016900000016900FN00000000020220201000016900NNM   20211124122808    4N0N  0000033800000109740000135871200    YCYC    005400370024
BI00B1200    7242T51C01     202201067289-4696-30             HOUSING FEMALE ASS'Y     CCN000002000000002000FN00000000020220201000002000NNM   20211124122808    4N0N  0000020000000091340000105541200    YCYC    005400370024
BI00B1200    7242T51C03     202201207158-3022-80             RUBBER STOPPER           CCN000005000000005000FN00000000020220201000005000NNM   20211124122808    1C0C  0000050000000046750000052401200    YCYC    002700430014
BI00B1200    #7242T51C01    202201067172-5632-10             DUMMY PLUG               CCN000040000000040000FN00000000020220201000040000NNM   20211124122808    2H0H  0000200000000008040000013181200    YCYC    004300270014
BI00B1200    #7242T51C02    202201137187-3359-60             JOINT CONNECTOR          CCN000001200000001200FN00000000020220201000001200NNM   20211124122808    2F0F  0000012000000076320000103041200    YCYC    005600390040
BI00B1200    #7242T51C04    202201277187-3359-60             JOINT CONNECTOR          CCN000004800000004800FN00000000020220201000004800NNM   20211124122808    2F0F  0000012000000076320000103041200    YCYC    005600390040
BI00B1200    #7242T51C03    202201207187-3360                JOINT CONNECTOR          CCN000002400000002400FN00000000020220201000002400NNM   20211124122808    2F0F  0000012000000075960000102681200    YCYC    005600390040
BI00B1200    #7242T51C03    202201207187-3361-40             JOINT CONNECTOR          CCN000002400000002400FN00000000020220201000002400NNM   20211124122808    2F0F  0000012000000067680000094401200    YCYC    005600390040
BI00B1200    #7242T51C04    202201277187-3356                JOINT CONNECTOR          CCN000006000000006000FN00000000020220201000006000NNM   20211124122808    2F0F  0000012000000075960000102441200    YCYC    005600390040
BI00B1200    #7242T51C04    202201277187-3357-40             JOINT CONNECTOR          CCN000001200000001200FN00000000020220201000001200NNM   20211124122808    2F0F  0000012000000076200000102921200    YCYC    005600390040
BI00B1200    #7242T51C04    202201277187-3358-30             JOINT CONNECTOR          CCN000003600000003600FN00000000020220201000003600NNM   20211124122808    2F0F  0000012000000067320000094041200    YCYC    005600390040
BI00B1200    7860T51C06     202201207288-3332-30             HOUSING MALE             CCN000001500000001500FN00000000020220201000001500NNM   20211124122808    4N0N  0000015000000086070000100571200    YCYC    005400370024
BI00B1200    7860T51C06     202201207288-3338-30             HOUSING MALE             CCN000001500000001500FN00000000020220201000001500NNM   20211124122808    4N0N  0000015000000086610000101201200    YCYC    005400370024
BI00B1200    7860T51C06     202201207289-3342-30             HOUSING FEMALE ASS'Y     CCN000002400000002400FN00000000020220201000002400NNM   20211124122808    1N0N  0000024000000068640000090141200    YCYC    005500360039
BI00B1200    8100T51C02     202201137289-9553-30             SEALED ASSY FEMALE       CCN000002940000002940FN00000000020220201000002940NNM   20211124122808    4N0N  0000029400000110900000152151200    YCYC    005500360039
BI00B1200    8100T51C02     202201137289-9553-50             SEALED ASSY FEMALE       CCN000002940000002940FN00000000020220201000002940NNM   20211124122808    4N0N  0000029400000110810000152061200    YCYC    005500360039
BI00B1200    #8100T51C04    202201067174-1760-50             CAP                      CCN000006000000006000FN00000000020220201000006000NNM   20211124122808    2F0F  0000030000000081360000092261200    YCYC    005400370024
BI00B1200    #8100T51C05    202201137174-1760-50             CAP                      CCN000006000000006000FN00000000020220201000006000NNM   20211124122808    2F0F  0000030000000081360000092261200    YCYC    005400370024
BI00A1200    2399T51813     202111297289-5979-30             HOUSING FEMALE ASS'Y     PCN000006300000004032FN00000000020211001000004032NNMD0220211124150845    1N0N  0000002520000085470000106471200    YCYC    005400370024
BI00A1200    2399T51813     202111307289-5979-30             HOUSING FEMALE ASS'Y     PCN000002268000002268FN00000000020211001000002268NNMD0220211124150845    1N0N  0000002520000085470000106471200    YCYC    005400370024
BI00B1200    #2399T51C06    202202037173-3225-10             LIF LEVER                CCN000020000000020000FN00000000020220101000020000NNMD0420211124161401    2F0F  0000008000000059200000071201200    YCYC    005500360039
BI00B1200    #2399T51C08    202203037173-3225-10             LIF LEVER                CCN000020000000020000FN00000000020220201000020000NNMD0420211124161509    2F0F  0000008000000059200000071201200    YCYC    005500360039
BI00A32B1    #A22006        202111297157-3891                RUBBER STOPPER           CCN000020000000020000FN00000000020220301000020000NNMM0020211124170506B1  2H0H  00001000000000145000000241732B1    AXARNE-M004300270014
BI00A32B6    A72002         202111297158-3166-60             WIRE SEAL                CCN000360000000360000FN00000000020220301000360000NNMM0020211124132034B6  1C0C  00004000000000104000000152432B6    AXARNE-M002700430014
BI00A32CJ    JQN1114        202111267289-3342-30             HOUSING FEMALE ASS'Y     PCN000002400000002400FY00000240020211101000000000NNM00020211124154832    1N0N  00000240000000686400000901432CJ    QNYHVQN 005500360039
BI00B32D1    DFTC2202       202111237017-1180-02             TERMINAL                 CCN000072000000072000FY00007200020220101000000000NNM00020211124194635    4P0P  00007200000001065600001229032D1    TOYOT-K 005100280028
BI00B32D1    DFTC2202       202111237114-4032                TERMINAL                 CCN000015000000015000FY00001500020220101000000000NNM00020211124194635    4P0P  00000750000000735000001063632D1    TOYOT-K 006400630017
BI00B32D1    DFTC2202       202111237114-4231-02             TERMINAL                 CCN000018000000018000FY00001800020220101000000000NNM00020211124194635    4P0P  00001800000000554400000848032D1    TOYOT-K 006400630015
BI00B32D1    DFTC2202       202111237114-4624-02             TERMINAL                 CCN000024000000024000FY00002400020220101000000000NNM00020211124194635    4P0P  00002400000000895200001188832D1    TOYOT-K 006400630015
BI00B32D1    DFTC2202       202111237114-5753-02             TERMINAL                 CCN000540000000540000FY00054000020220101000000000NNM00020211124194750    4P0P  00002700000000847800001141432D1    TOYOT-K 006400630015
BI00B32D1    DFTC2202       202111237116-1685-02             TERMINAL                 CCN000096000000096000FY00009600020220101000000000NNM00020211124194750    4P0P  00002400000000897600001065232D1    TOYOT-K 005100280028
BI00B32D1    DFTC2202       202111237116-2891-02             TERMINAL                 CCN000210000000210000FY00021000020220101000000000NNM00020211124194750    4P0P  00001500000000982500001145932D1    TOYOT-K 005100280028
BI00B32D1    DFTC2202       202111237116-4101-02             TERMINAL                 CCN000012000000012000FY00001200020220101000000000NNM00020211124194750    4P0P  00001200000000582000000876232D1    TOYOT-K 006400630015
BI00B32D1    DFTC2202       202111237116-4112-02             TERMINAL                 CCN000024000000024000FY00002400020220101000000000NNM00020211124194750    4P0P  00000600000000450000000738232D1    TOYOT-K 006400630015
BI00A32D9    #I219A         202111257283-8226-30             CONNECTOR                CCN000002000000002000FN00000000020211101000002000NNED0020211124122808    2N0N  00000200000000820000001008032D9    UEHESTO 005400370024
BI00A32EJ    4500174060     202112077288-6547                CONNECTOR MALE ASS'Y     CCN000011250000011250FN00000000020210701000011250NNED0420211124155132EJ  4N0N  00000075000001205300001340332EJ    EJYKBO  005400370024
BI00A32EJ    4500174060     202112137288-6547                CONNECTOR MALE ASS'Y     CCN000007500000000000FY00000000020210701000000000NNED0420211124155132EJ  4N0N  00000075000001205300001340332EJ    EJYKBO  005400370024
BI00B32EJ    4500184477     202112167283-5574-10             CONNECTOR                CCN000005600000005600FN00000000020211201000005600NNED0720211124131604EJ  4N0N  00000080000001235000001435232EJ    EJYKBO  005500360039
BI00B32EJ    4500184478     202112167283-5574-10             CONNECTOR                CCN000005600000005600FN00000000020211201000005600NNED0720211124131626EJ  4N0N  00000080000001235000001435232EJ    EJYKBO  005500360039
BI00B32EJ    4500184478     202112167283-7449-40             HOUSING FEMALE ASS'Y     CCN000002400000002400FN00000000020211201000002400NNED0720211124131626EJ  4N0N  00000240000001200000001410032EJ    EJYKBO  005500360039
BI00A32G7    JJ2111CMMW     202112027173-3291-40             LIF LEVER                CCN000002400000002400FN00000000020211101000002400NNED0720211124132039    1F0F  00000240000000867800001067832G7    JIJAI   005500360039
BI00A32G7    JJ2111CMMW     202112027196-0805-02             TERMINAL FEMALE          CCN000022500000022500FN00000000020211101000022500NNED0720211124132039    4P0P  00002250000000558000000843232G7    JIJAI   006400630015
BI00A32G7    JJ2111CMMW     202112027287-1915-30             CONNECTOR ASS'Y          CCN000002400000002400FN00000000020211101000002400NNED0720211124132039    4N0N  00000240000000666500000923132G7    JIJAI   005500360039
BI00A32G7    JJ2111CMMW     202112027289-6518-30             HOUSING FEMALE ASS'Y     CCN000001200000001200FN00000000020211101000001200NNED0720211124132039    1N0N  00000120000000829200001049232G7    JIJAI   005500360039
BI00A32G7    JJ2111CMMW     202112137298-3484-30             HOUSING FEMALE ASS'Y     CCN000002700000002700FN00000000020211101000002700NNED0720211124182750    4N0N  00000270000000000000000000032G7    JIJAI   000000000000
BI00A32G7    JJ2111CMMW     202112137298-4899-70             SEALED HOUSING ASS'Y     CCN000002310000002310FN00000000020211101000002310NNED0720211124182750    4N0N  00000231000000000000000000032G7    JIJAI   000000000000
BI00A32G7    #JJ2111CMMW    202112027183-2415-90             CONNECTOR HOUSING        CCN000004800000004800FN00000000020211101000004800NNED0720211124132049    2F0F  00000480000000798200001091432G7    JIJAI   005500360039
BI00A32G7    JJ2111E MW     202112027114-4030                TERMINAL                 CCN000010500000010500FN00000000020211101000010500NNED0720211124132133    4P0P  00001050000000926100001254732G7    JIJAI   006400630017
BI00A32G7    JJ2111E MW     202112027283-7526-30             CONNECTOR HOUSING        CCN000001960000001960FN00000000020211101000001960NNED0720211124132133    4N0N  00000196000000989800001248632G7    JIJAI   005500360039
BI00A32H2    #QA-21-C122    202111257282-5845-30             HOUSING MALE ASS'Y       PNY000008400000008400FN00000000020211201000008400NNE   20211124163356    2N0N  00000400000001068000001178032H2    HVYHV   005400370024
BI00A32H2    #QA-21-C122    202111267282-5845-30             HOUSING MALE ASS'Y       PNY000008400000008400FN00000000020211101000008400NNE   20211124165604    2N0N  00000400000001068000001178032H2    HVYHV   005400370024
BI00A32H7    FS2112CDMW     202112097297-3482                JOINT CONNECTOR          CCN000001500000001600FN00000000020211201000001600NNED0720211124152019    4N0N  00000080000000621000000730532H7    FYFSY   005400370024
BI00A32H7    FS2112CDMW     202112097327-6950-30             MULTI FUSE               CCN000000288000000288FN00000000020211201000000288NNED0720211124152019    4N00  00000028800000888700001054632H7    FYFSY   005400370024
BI00A32H7    FS2112CDMW     202112097327-6952-30             MULTI FUSE               CCN000000560000000560FN00000000020211201000000560NNED0720211124152019    4N0N  00000056000000848500001031532H7    FYFSY   005400370024
BI00A32H7    FS2112CDMW     202112097327-6954-30             MULTI FUSE               CCN000000600000000600FN00000000020211201000000600NNED0720211124152019    4N00  00000060000000751600000954332H7    FYFSY   005400370024
BI00B32M8    PM2112B MW     202112087114-4020                TERMINAL                 CCN000021000000021000FN00000000020211201000021000NNED0720211124152538    4P0P  00002100000000875700001169332M8    PMPEMI  006400630015
BI00B32M8    PM2112B MW     202112087114-4031                TERMINAL                 CCN000010500000010500FN00000000020211201000010500NNED0720211124152538    4P0P  00001050000000966000001294632M8    PMPEMI  006400630017
BI00B32M8    PM2112B MW     202112087114-4231-02             TERMINAL                 CCN000018000000018000FN00000000020211201000018000NNED0720211124152538    4P0P  00001800000000554400000848032M8    PMPEMI  006400630015
BI00B32M8    PM2112B MW     202112087116-1473                TERMINAL                 CCN000027000000027000FN00000000020211201000027000NNED0720211124152538    4P0P  00001350000000523800000809032M8    PMPEMI  006400630015
BI00B32M8    PM2112B MW     202112087116-2640                TERMINAL                 CCN000018000000018000FN00000000020211201000018000NNED0720211124152538    4P0P  00001800000001018800001196632M8    PMPEMI  005100280028
BI00B32M8    PM2112B MW     202112087116-2641                TERMINAL                 CCN000018000000018000FN00000000020211201000018000NNED0720211124152538    4P0P  00001800000001161000001344632M8    PMPEMI  005100280028
BI00B32M8    PM2112B MW     202112087116-3154-02             TERMINAL FEMALE          CCN000063000000081000FN00000000020211201000081000NNED0720211124152538    4P0P  00002700000000469800000755032M8    PMPEMI  006400630015
