BI00A32H7    FS2205FDMW     202205171801R706980              CIVUS 0.35 BR            CCN000096000000048000FN00000000020220501000048000NNE00 20220504120441    1W    00000300000000386000000000032H7    FYFSY   000000000000FF125060
BI00A32H7    FS2205FDMW     202205171801R706960              CIVUS 0.35 G             CCN000453000000153000FN00000000020220501000153000NNE00 20220504120441    1W    00000300000000386000000000032H7    FYFSY   000000000000FF125061
BI00A32H7    FS2205FDMW     202205171801R706990              CIVUS 0.35 L             CCN000480000000162000FN00000000020220501000162000NNE00 20220504120441    1W    00000300000000386000000000032H7    FYFSY   000000000000FF125063
BI00A32H7    FS2205FDMW     202205171801R706961              CIVUS 0.35 LG            CCN000381000000129000FN00000000020220501000129000NNE00 20220504120441    1W    00000300000000386000000000032H7    FYFSY   000000000000FF125064
BI00A32H7    FS2205FDMW     202205171801R706952              CIVUS 0.35 P             CCN000300000000102000FN00000000020220501000102000NNE00 20220504120441    1W    00000300000000386000000000032H7    FYFSY   000000000000FF125065
BI00A32H7    FS2205FDMW     202205171801R706950              CIVUS 0.35 R             CCN000603000000201000FN00000000020220501000201000NNE00 20220504120441    1W    00000300000000386000000000032H7    FYFSY   000000000000FF125066
BI00A32H7    FS2205FDMW     202205171801R706991              CIVUS 0.35 SB            CCN000138000000048000FN00000000020220501000048000NNE00 20220504120441    1W    00000300000000386000000000032H7    FYFSY   000000000000FF125067
BI00A32H7    FS2205FDMW     202205171801R706992              CIVUS 0.35 V             CCN000210000000072000FN00000000020220501000072000NNE00 20220504120441    1W    00000300000000386000000000032H7    FYFSY   000000000000FF125068
BI00A32H7    FS2205FDMW     202205171801R706970              CIVUS 0.35 Y             CCN000117000000039000FN00000000020220501000039000NNE00 20220504120441    1W    00000300000000386000000000032H7    FYFSY   000000000000FF125071
BI00A32H7    FS2205FDMW     202205171801R706973              CIVUS 0.35 Y/B           CCN000051000000027000FN00000000020220501000027000NNE00 20220504120441    1W    00000300000000386000000000032H7    FYFSY   000000000000FF125072
BI00A32H7    FS2205FDMW     202205181801R706980              CIVUS 0.35 BR            CCN000048000000048000FN00000000020220501000048000NNE20 20220504120441    1W    00000300000000386000000000032H7    FYFSY   000000000000FF125060
BI00A32H7    FS2205FDMW     202205181801R706960              CIVUS 0.35 G             CCN000150000000150000FN00000000020220501000150000NNE20 20220504120441    1W    00000300000000386000000000032H7    FYFSY   000000000000FF125061
BI00A32H7    FS2205FDMW     202205191801R706960              CIVUS 0.35 G             CCN000150000000150000FN00000000020220501000150000NNE22 20220504120441    1W    00000300000000386000000000032H7    FYFSY   000000000000FF125061
BI00A32H7    FS2205FDMW     202205181801R706990              CIVUS 0.35 L             CCN000159000000159000FN00000000020220501000159000NNE20 20220504120441    1W    00000300000000386000000000032H7    FYFSY   000000000000FF125063
BI00A32H7    FS2205FDMW     202205191801R706990              CIVUS 0.35 L             CCN000159000000159000FN00000000020220501000159000NNE22 20220504120441    1W    00000300000000386000000000032H7    FYFSY   000000000000FF125063
BI00A32H7    FS2205FDMW     202205181801R706961              CIVUS 0.35 LG            CCN000126000000126000FN00000000020220501000126000NNE20 20220504120441    1W    00000300000000386000000000032H7    FYFSY   000000000000FF125064
BI00A32H7    FS2205FDMW     202205191801R706961              CIVUS 0.35 LG            CCN000126000000126000FN00000000020220501000126000NNE22 20220504120441    1W    00000300000000386000000000032H7    FYFSY   000000000000FF125064
BI00A32H7    FS2205FDMW     202205181801R706952              CIVUS 0.35 P             CCN000099000000099000FN00000000020220501000099000NNE20 20220504120441    1W    00000300000000386000000000032H7    FYFSY   000000000000FF125065
BI00A32H7    FS2205FDMW     202205191801R706952              CIVUS 0.35 P             CCN000099000000099000FN00000000020220501000099000NNE22 20220504120441    1W    00000300000000386000000000032H7    FYFSY   000000000000FF125065
BI00A32H7    FS2205FDMW     202205181801R706950              CIVUS 0.35 R             CCN000201000000201000FN00000000020220501000201000NNE20 20220504120441    1W    00000300000000386000000000032H7    FYFSY   000000000000FF125066
BI00A32H7    FS2205FDMW     202205191801R706950              CIVUS 0.35 R             CCN000201000000201000FN00000000020220501000201000NNE22 20220504120441    1W    00000300000000386000000000032H7    FYFSY   000000000000FF125066
BI00A32H7    FS2205FDMW     202205181801R706991              CIVUS 0.35 SB            CCN000045000000045000FN00000000020220501000045000NNE20 20220504120441    1W    00000300000000386000000000032H7    FYFSY   000000000000FF125067
BI00A32H7    FS2205FDMW     202205191801R706991              CIVUS 0.35 SB            CCN000045000000045000FN00000000020220501000045000NNE22 20220504120441    1W    00000300000000386000000000032H7    FYFSY   000000000000FF125067
BI00A32H7    FS2205FDMW     202205181801R706992              CIVUS 0.35 V             CCN000069000000069000FN00000000020220501000069000NNE20 20220504120441    1W    00000300000000386000000000032H7    FYFSY   000000000000FF125068
BI00A32H7    FS2205FDMW     202205191801R706992              CIVUS 0.35 V             CCN000069000000069000FN00000000020220501000069000NNE22 20220504120441    1W    00000300000000386000000000032H7    FYFSY   000000000000FF125068
BI00A32H7    FS2205FDMW     202205181801R706970              CIVUS 0.35 Y             CCN000039000000039000FN00000000020220501000039000NNE20 20220504120441    1W    00000300000000386000000000032H7    FYFSY   000000000000FF125071
BI00A32H7    FS2205FDMW     202205191801R706970              CIVUS 0.35 Y             CCN000039000000039000FN00000000020220501000039000NNE22 20220504120441    1W    00000300000000386000000000032H7    FYFSY   000000000000FF125071
BI00A32H7    FS2205FDMW     202205181801R706973              CIVUS 0.35 Y/B           CCN000024000000024000FN00000000020220501000024000NNE20 20220504120441    1W    00000300000000386000000000032H7    FYFSY   000000000000FF125072
