BI00A32AF    JTB204B        202205037289-3342-40             HOUSING FEMALE ASS'Y     CCN000004800000002400FY00000240020220401000000000NNED0020220504114105    1N0N  00000240000000686400000901432AF    HBYHVTB 005500360039
BI00A32AF    JTB204B        202205037289-3342-90             HOUSING FEMALE ASS'Y     CCN000004800000002400FY00000240020220401000000000NNED0020220504114105    1N0N  00000240000000686400000901432AF    HBYHVTB 005500360039
BI00A32AF    JTB204B        202205037289-3342-30             HOUSING FEMALE ASS'Y     CCN000007200000007200FY00000720020220401000000000NNE00020220504114105    1N0N  00000240000000686400000901432AF    HBYHVTB 005500360039
BI00A32AF    JTB204B        202205037283-4855                CONNECTOR HOUSING        CCN000002400000002400FY00000240020220401000000000NNE00020220504114124    4N0N  00000240000001188400001400032AF    HBYHVTB 005500360039
BI00B32AG    XG2206BKMW     202205277289-0269                HOUSING SUB ASSEMBLY     CCN000003200000001600FN00000000020220601000001600NNEQ0820220504122823    1N0N  00000160000001002100001234532AG    XGXGY   005500360039
BI00B32CC    CTA32093       202206167283-4855                CONNECTOR HOUSING        CCN000009600000009600FN00000000020220901000009600NNE   20220504122823    4N0N  00000240000001188400001400032CC    BIYABCBU005500360039
BI00B32CC    CTA32093       202206167289-3342                HOUSING FEMALE ASS'Y     CCN000009600000009600FN00000000020220901000009600NNE   20220504122823    1N0N  00000240000000686400000901432CC    BIYABCBU005500360039
BI00B32CC    CTA32093       202206167289-3342-30             HOUSING FEMALE ASS'Y     CCN000004800000004800FN00000000020220901000004800NNE   20220504122823    1N0N  00000240000000686400000901432CC    BIYABCBU005500360039
BI00B32CC    CTA32093       202206167289-6868-30             SEALED ASSY FEMALE       CCN000020160000020160FN00000000020220901000020160NNE   20220504122823    4N0N  00000252000000839200001119232CC    BIYABCBU005500360039
BI00B32DA    SBT2207        202206027114-4020                TERMINAL                 CCN000021000000021000FN00000000020220701000021000NNM   20220504122823    4P0P  00002100000000875700001169332DA    GBYIPLGB006400630015
BI00B32DA    SBT2207A       202206097114-4020                TERMINAL                 CCN000021000000021000FN00000000020220701000021000NNM   20220504122823    4P0P  00002100000000875700001169332DA    GBYIPLGB006400630015
BI00B32DA    SBT2207        202206027114-4021                TERMINAL                 CCN000022500000030000FN00000000020220701000030000NNM   20220504122823    4P0P  00001500000000670500000964132DA    GBYIPLGB006400630015
BI00B32DA    SBT2207A       202206097114-4021                TERMINAL                 CCN000022500000030000FN00000000020220701000030000NNM   20220504122823    4P0P  00001500000000670500000964132DA    GBYIPLGB006400630015
BI00B32DA    SBT2207        202206027114-4032                TERMINAL                 CCN000003750000007500FN00000000020220701000007500NNM   20220504122823    4P0P  00000750000000735000001063632DA    GBYIPLGB006400630017
BI00B32DA    SBT2207A       202206097114-4032                TERMINAL                 CCN000003750000007500FN00000000020220701000007500NNM   20220504122823    4P0P  00000750000000735000001063632DA    GBYIPLGB006400630017
BI00B32DA    SBT2207        202206027116-1301                TERMINAL                 CCN000007500000015000FN00000000020220701000015000NNM   20220504122823    4P0P  00001500000000487500000772732DA    GBYIPLGB006400630015
BI00B32DA    SBT2207A       202206097116-1301                TERMINAL                 CCN000007500000015000FN00000000020220701000015000NNM   20220504122823    4P0P  00001500000000487500000772732DA    GBYIPLGB006400630015
BI00B32DA    SBT2207        202206027116-4020                TERMINAL                 CCN000006750000013500FN00000000020220701000013500NNM   20220504122823    4P0P  00001350000000513000000798232DA    GBYIPLGB006400630015
BI00B32DA    SBT2207A       202206097116-4020                TERMINAL                 CCN000006750000013500FN00000000020220701000013500NNM   20220504122823    4P0P  00001350000000513000000798232DA    GBYIPLGB006400630015
BI00B32DA    SBT2207        202206027116-4022                TERMINAL                 CCN000013500000013500FN00000000020220701000013500NNM   20220504122823    4P0P  00001350000000618300000903532DA    GBYIPLGB006400630015
BI00B32DA    SBT2207A       202206097116-4022                TERMINAL                 CCN000013500000013500FN00000000020220701000013500NNM   20220504122823    4P0P  00001350000000618300000903532DA    GBYIPLGB006400630015
BI00B32DA    SBT2207        202206027116-4025                TERMINAL                 CCN000112000000112000FN00000000020220701000112000NNM   20220504122823    4P0P  00001600000000644800000975132DA    GBYIPLGB006400630017
BI00B32DA    SBT2207A       202206097116-4025                TERMINAL                 CCN000112000000112000FN00000000020220701000112000NNM   20220504122823    4P0P  00001600000000644800000975132DA    GBYIPLGB006400630017
BI00B32DA    SBT2207        202206027116-4026                TERMINAL                 CCN000008000000016000FN00000000020220701000016000NNM   20220504122823    4P0P  00001600000000664000000994332DA    GBYIPLGB006400630017
BI00B32DA    SBT2207A       202206097116-4026                TERMINAL                 CCN000008000000016000FN00000000020220701000016000NNM   20220504122823    4P0P  00001600000000664000000994332DA    GBYIPLGB006400630017
BI00B32DA    SBT2207        202206027116-4032                TERMINAL                 CCN000024000000024000FN00000000020220701000024000NNM   20220504122823    4P0P  00000600000000532800000818032DA    GBYIPLGB006400630015
BI00B32DA    SBT2207A       202206097116-4032                TERMINAL                 CCN000024000000024000FN00000000020220701000024000NNM   20220504122823    4P0P  00000600000000532800000818032DA    GBYIPLGB006400630015
BI00B32DA    SBT2207        202206027116-4037                TERMINAL                 CCN000018000000018000FN00000000020220701000018000NNM   20220504122823    4P0P  00000600000000600000000894232DA    GBYIPLGB006400630015
BI00B32DA    SBT2207A       202206097116-4037                TERMINAL                 CCN000018000000018000FN00000000020220701000018000NNM   20220504122823    4P0P  00000600000000600000000894232DA    GBYIPLGB006400630015
BI00B32DA    SBT2207        202206027116-6042                TERMINAL                 CCN000004500000006000FN00000000020220701000006000NNM   20220504122823    4P0P  00000300000000523800000856132DA    GBYIPLGB006400630015
BI00B32DA    SBT2207A       202206097116-6042                TERMINAL                 CCN000004500000006000FN00000000020220701000006000NNM   20220504122823    4P0P  00000300000000523800000856132DA    GBYIPLGB006400630015
BI00B32DA    SBT2207        202206027283-5830                CONNECTOR                CCN000006000000006000FN00000000020220701000006000NNM   20220504122823    1N47  00000600000000954000001104032DA    GBYIPLGB005500360039
BI00B32DA    SBT2207A       202206097283-5830                CONNECTOR                CCN000006000000006000FN00000000020220701000006000NNM   20220504122823    1N47  00000600000000954000001104032DA    GBYIPLGB005500360039
BI00B32DA    SBT2207        202206027283-5845                CONNECTOR HOUSING        CCN000015000000018000FN00000000020220701000018000NNM   20220504122823    1N0N  00000600000000444000000606332DA    GBYIPLGB005400370024
BI00B32DA    SBT2207A       202206097283-5845                CONNECTOR HOUSING        CCN000015000000018000FN00000000020220701000018000NNM   20220504122823    1N0N  00000600000000444000000606332DA    GBYIPLGB005400370024
BI00B32DA    SBT2207        202206027287-9234                JOINT CONNECTOR          CCN000038400000038400FN00000000020220701000038400NNM   20220504122823    4N0N  00000960000000893800001184832DA    GBYIPLGB005500360039
BI00B32DA    SBT2207A       202206097287-9234                JOINT CONNECTOR          CCN000038400000038400FN00000000020220701000038400NNM   20220504122823    4N0N  00000960000000893800001184832DA    GBYIPLGB005500360039
BI00B32DA    SBT2207        202206027017-1180-02             TERMINAL                 CCN000072000000072000FN00000000020220701000072000NNM   20220504122823    4P0P  00007200000001065600001229032DA    GBYIPLGB005100280028
BI00B32DA    SBT2207A       202206097017-1180-02             TERMINAL                 CCN000072000000072000FN00000000020220701000072000NNM   20220504122823    4P0P  00007200000001065600001229032DA    GBYIPLGB005100280028
BI00B32DA    SBT2207        202206027017-1182-02             TERMINAL                 CCN000022500000045000FN00000000020220701000045000NNM   20220504122823    4P0P  00004500000001165500001318632DA    GBYIPLGB005100280028
BI00B32DA    SBT2207A       202206097017-1182-02             TERMINAL                 CCN000022500000045000FN00000000020220701000045000NNM   20220504122823    4P0P  00004500000001165500001318632DA    GBYIPLGB005100280028
BI00B32DA    SBT2207        202206027114-4624-02             TERMINAL                 CCN000024000000024000FN00000000020220701000024000NNM   20220504122823    4P0P  00002400000000895200001188832DA    GBYIPLGB006400630015
BI00B32DA    SBT2207A       202206097114-4624-02             TERMINAL                 CCN000024000000024000FN00000000020220701000024000NNM   20220504122823    4P0P  00002400000000895200001188832DA    GBYIPLGB006400630015
BI00B32DA    SBT2207        202206027114-4728-02             TERMINAL                 CCN000135000000150000FN00000000020220701000150000NNM   20220504122823    4P0P  00003000000000510000000804232DA    GBYIPLGB006400630015
BI00B32DA    SBT2207A       202206097114-4728-02             TERMINAL                 CCN000135000000150000FN00000000020220701000150000NNM   20220504122823    4P0P  00003000000000510000000804232DA    GBYIPLGB006400630015
BI00B32DA    SBT2207        202206027114-4729-02             TERMINAL                 CCN000105000000120000FN00000000020220701000120000NNM   20220504122823    4P0P  00003000000000516000000810232DA    GBYIPLGB006400630015
BI00B32DA    SBT2207A       202206097114-4729-02             TERMINAL                 CCN000105000000120000FN00000000020220701000120000NNM   20220504122823    4P0P  00003000000000516000000810232DA    GBYIPLGB006400630015
BI00B32DA    SBT2207        202206027114-5746-02             TERMINAL                 CCN000042000000042000FN00000000020220701000042000NNM   20220504122823    4P0P  00002100000000695100000988732DA    GBYIPLGB006400630015
BI00B32DA    SBT2207A       202206097114-5746-02             TERMINAL                 CCN000042000000042000FN00000000020220701000042000NNM   20220504122823    4P0P  00002100000000695100000988732DA    GBYIPLGB006400630015
BI00B32DA    SBT2207        202206027114-5747-02             TERMINAL                 CCN000045000000054000FN00000000020220701000054000NNM   20220504122823    4P0P  00001800000000626400000920032DA    GBYIPLGB006400630015
BI00B32DA    SBT2207A       202206097114-5747-02             TERMINAL                 CCN000045000000054000FN00000000020220701000054000NNM   20220504122823    4P0P  00001800000000626400000920032DA    GBYIPLGB006400630015
BI00B32DA    SBT2207        202206027114-5748-02             TERMINAL                 CCN000102000000108000FN00000000020220701000108000NNM   20220504122823    4P0P  00001200000000444000000737632DA    GBYIPLGB006400630015
BI00B32DA    SBT2207A       202206097114-5748-02             TERMINAL                 CCN000102000000108000FN00000000020220701000108000NNM   20220504122823    4P0P  00001200000000444000000737632DA    GBYIPLGB006400630015
BI00B32DA    SBT2207        202206027114-5753-02             TERMINAL                 CCN000013500000027000FN00000000020220701000027000NNM   20220504122823    4P0P  00002700000000847800001141432DA    GBYIPLGB006400630015
BI00B32DA    SBT2207A       202206097114-5753-02             TERMINAL                 CCN000013500000027000FN00000000020220701000027000NNM   20220504122823    4P0P  00002700000000847800001141432DA    GBYIPLGB006400630015
BI00B32DA    SBT2207        202206027116-1257-02             TERMINAL                 CCN000024000000024000FN00000000020220701000024000NNM   20220504122823    1P0P  00002400000000518400000847132DA    GBYIPLGB006400630017
BI00B32DA    SBT2207A       202206097116-1257-02             TERMINAL                 CCN000024000000024000FN00000000020220701000024000NNM   20220504122823    1P0P  00002400000000518400000847132DA    GBYIPLGB006400630017
BI00B32DA    SBT2207        202206027116-4231-02             TERMINAL                 CCN000013000000026000FN00000000020220701000026000NNM   20220504122823    4P0P  00002600000000683800001012532DA    GBYIPLGB006400630017
BI00B32DA    SBT2207A       202206097116-4231-02             TERMINAL                 CCN000013000000026000FN00000000020220701000026000NNM   20220504122823    4P0P  00002600000000683800001012532DA    GBYIPLGB006400630017
BI00B32DA    SBT2207        202206027116-4415-02             TERMINAL                 CCN000076000000076000FN00000000020220701000076000NNM   20220504122823    4P0P  00003800000000596600000925732DA    GBYIPLGB006400630017
BI00B32DA    SBT2207A       202206097116-4415-02             TERMINAL                 CCN000076000000076000FN00000000020220701000076000NNM   20220504122823    4P0P  00003800000000596600000925732DA    GBYIPLGB006400630017
BI00B32DA    SBT2207        202206027116-4486-02             TERMINAL                 CCN000112000000112000FN00000000020220701000112000NNM   20220504122823    4P0P  00002800000000666400000995132DA    GBYIPLGB006400630017
BI00B32DA    SBT2207A       202206097116-4486-02             TERMINAL                 CCN000112000000112000FN00000000020220701000112000NNM   20220504122823    4P0P  00002800000000666400000995132DA    GBYIPLGB006400630017
BI00B32DA    SBT2207        202206027116-5045-02             TERMINAL                 CCN000016000000016000FN00000000020220701000016000NNM   20220504122823    4P0P  00001600000000678400001007132DA    GBYIPLGB006400630017
BI00B32DA    SBT2207A       202206097116-5045-02             TERMINAL                 CCN000016000000016000FN00000000020220701000016000NNM   20220504122823    4P0P  00001600000000678400001007132DA    GBYIPLGB006400630017
BI00B32DA    SBT2207        202206027116-5750-02             TERMINAL                 CCN000202500000210000FN00000000020220701000210000NNM   20220504122823    4P0P  00001500000000457500000742732DA    GBYIPLGB006400630015
BI00B32DA    SBT2207A       202206097116-5750-02             TERMINAL                 CCN000202500000210000FN00000000020220701000210000NNM   20220504122823    4P0P  00001500000000457500000742732DA    GBYIPLGB006400630015
BI00B32DA    SBT2207        202206027116-5751-02             TERMINAL                 CCN000024000000024000FN00000000020220701000024000NNM   20220504122823    4P0P  00001200000000379200000664432DA    GBYIPLGB006400630015
BI00B32DA    SBT2207A       202206097116-5751-02             TERMINAL                 CCN000024000000024000FN00000000020220701000024000NNM   20220504122823    4P0P  00001200000000379200000664432DA    GBYIPLGB006400630015
BI00B32DA    SBT2207        202206027116-5752-02             TERMINAL                 CCN000157500000168000FN00000000020220701000168000NNM   20220504122823    4P0P  00002100000000571200000856432DA    GBYIPLGB006400630015
BI00B32DA    SBT2207A       202206097116-5752-02             TERMINAL                 CCN000157500000168000FN00000000020220701000168000NNM   20220504122823    4P0P  00002100000000571200000856432DA    GBYIPLGB006400630015
BI00B32DA    SBT2207        202206027158-3006-90             RUBBER STOPPER           CCN000080000000080000FN00000000020220701000080000NNM   20220504122823    1C0C  00002000000000330600000386032DA    GBYIPLGB002700430014
BI00B32DA    SBT2207A       202206097158-3006-90             RUBBER STOPPER           CCN000080000000080000FN00000000020220701000080000NNM   20220504122823    1C0C  00002000000000330600000386032DA    GBYIPLGB002700430014
BI00B32DA    SBT2207        202206027158-3009-60             RUBBER STOPPER           CCN000040000000040000FN00000000020220701000040000NNM   20220504122823    1C0C  00002000000000338000000386232DA    GBYIPLGB002700430014
BI00B32DA    SBT2207A       202206097158-3009-60             RUBBER STOPPER           CCN000040000000040000FN00000000020220701000040000NNM   20220504122823    1C0C  00002000000000338000000386232DA    GBYIPLGB002700430014
BI00B32DA    SBT2207        202206027158-3166-60             WIRE SEAL                CCN000100000000120000FN00000000020220701000120000NNM   20220504122823    1C0C  00004000000000104000000152432DA    GBYIPLGB002700430014
BI00B32DA    SBT2207A       202206097158-3166-60             WIRE SEAL                CCN000100000000120000FN00000000020220701000120000NNM   20220504122823    1C0C  00004000000000104000000152432DA    GBYIPLGB002700430014
BI00B32DA    SBT2207        202206027158-3167-80             WIRE SEAL                CCN000010000000020000FN00000000020220701000020000NNM   20220504122823    1C0C  00002000000000048000000109032DA    GBYIPLGB002700430014
BI00B32DA    SBT2207A       202206097158-3167-80             WIRE SEAL                CCN000010000000020000FN00000000020220701000020000NNM   20220504122823    1C0C  00002000000000048000000109032DA    GBYIPLGB002700430014
BI00B32DA    SBT2207        202206027172-5540-80             SEALED WIRE SEAL         CCN000010000000020000FN00000000020220701000020000NNM   20220504122823    1C0C  00002000000000186000000234432DA    GBYIPLGB004300270014
BI00B32DA    SBT2207A       202206097172-5540-80             SEALED WIRE SEAL         CCN000010000000020000FN00000000020220701000020000NNM   20220504122823    1C0C  00002000000000186000000234432DA    GBYIPLGB004300270014
BI00B32DA    SBT2207        202206027196-0805-02             TERMINAL FEMALE          CCN000011250000022500FN00000000020220701000022500NNM   20220504122823    4P0P  00002250000000558000000843232DA    GBYIPLGB006400630015
BI00B32DA    SBT2207A       202206097196-0805-02             TERMINAL FEMALE          CCN000011250000022500FN00000000020220701000022500NNM   20220504122823    4P0P  00002250000000558000000843232DA    GBYIPLGB006400630015
BI00B32DA    SBT2207        202206027283-5830-30             CONNECTOR                CCN000009000000012000FN00000000020220701000012000NNM   20220504122823    1N0N  00000600000000954000001104032DA    GBYIPLGB005500360039
BI00B32DA    SBT2207A       202206097283-5830-30             CONNECTOR                CCN000009000000012000FN00000000020220701000012000NNM   20220504122823    1N0N  00000600000000954000001104032DA    GBYIPLGB005500360039
BI00B32DA    SBT2207        202206027288-3329-30             HOUSING MALE             CCN000013500000013500FN00000000020220701000013500NNM   20220504122823    4N0N  00000150000000866100001011132DA    GBYIPLGB005400370024
BI00B32DA    SBT2207A       202206097288-3329-30             HOUSING MALE             CCN000013500000013500FN00000000020220701000013500NNM   20220504122823    4N0N  00000150000000866100001011132DA    GBYIPLGB005400370024
BI00B32DA    SBT2207        202206027288-3331-30             HOUSING MALE             CCN000013500000013500FN00000000020220701000013500NNM   20220504122823    4N0N  00000150000000866000001010932DA    GBYIPLGB005400370024
BI00B32DA    SBT2207A       202206097288-3331-30             HOUSING MALE             CCN000013500000013500FN00000000020220701000013500NNM   20220504122823    4N0N  00000150000000866000001010932DA    GBYIPLGB005400370024
BI00B32DA    SBT2207        202206027288-3336-30             HOUSING MALE             CCN000013500000013500FN00000000020220701000013500NNM   20220504122823    4N0N  00000150000000867000001012032DA    GBYIPLGB005400370024
BI00B32DA    SBT2207A       202206097288-3336-30             HOUSING MALE             CCN000013500000013500FN00000000020220701000013500NNM   20220504122823    4N0N  00000150000000867000001012032DA    GBYIPLGB005400370024
BI00B32DA    SBT2207        202206027288-3337-30             HOUSING MALE             CCN000013500000013500FN00000000020220701000013500NNM   20220504122823    4N0N  00000150000000867000001012032DA    GBYIPLGB005400370024
BI00B32DA    SBT2207A       202206097288-3337-30             HOUSING MALE             CCN000013500000013500FN00000000020220701000013500NNM   20220504122823    4N0N  00000150000000867000001012032DA    GBYIPLGB005400370024
BI00B32DA    SBT2207        202206027289-3342-30             HOUSING FEMALE ASS'Y     CCN000057600000057600FN00000000020220701000057600NNM   20220504122823    1N0N  00000240000000686400000901432DA    GBYIPLGB005500360039
BI00B32DA    SBT2207A       202206097289-3342-30             HOUSING FEMALE ASS'Y     CCN000057600000057600FN00000000020220701000057600NNM   20220504122823    1N0N  00000240000000686400000901432DA    GBYIPLGB005500360039
BI00B32DA    SBT2207        202206027286-3885-40             CONNECTOR MALE ASS'Y     CCN000030000000030000FN00000000020220701000030000NNM   20220504122823    1N0N  00000120000000910600001130632DA    GBYIPLGB005500360039
BI00B32DA    SBT2207A       202206097286-3885-40             CONNECTOR MALE ASS'Y     CCN000030000000030000FN00000000020220701000030000NNM   20220504122823    1N0N  00000120000000910600001130632DA    GBYIPLGB005500360039
BI00B32DA    SBT2207        202206027287-3885-40             HYBRID FEMALE ASS'Y      CCN000009600000009600FN00000000020220701000009600NNM   20220504122823    1N0N  00000240000001029600001249632DA    GBYIPLGB005500360039
BI00B32DA    SBT2207A       202206097287-3885-40             HYBRID FEMALE ASS'Y      CCN000009600000009600FN00000000020220701000009600NNM   20220504122823    1N0N  00000240000001029600001249632DA    GBYIPLGB005500360039
BI00B32DA    SBT2207        202206027114-4415-02             TERMINAL MALE            CCN000013500000027000FN00000000020220701000027000NNM   20220504122823    4P0P  00002700000000429300000717532DA    GBYIPLGB006400630015
BI00B32DA    SBT2207A       202206097114-4415-02             TERMINAL MALE            CCN000013500000027000FN00000000020220701000027000NNM   20220504122823    4P0P  00002700000000429300000717532DA    GBYIPLGB006400630015
BI00B32DA    SBT2207        202206027114-4416-02             TERMINAL MALE            CCN000013500000027000FN00000000020220701000027000NNM   20220504122823    4P0P  00002700000000442800000731032DA    GBYIPLGB006400630015
BI00B32DA    SBT2207A       202206097114-4416-02             TERMINAL MALE            CCN000013500000027000FN00000000020220701000027000NNM   20220504122823    4P0P  00002700000000442800000731032DA    GBYIPLGB006400630015
BI00B32DA    SBT2207        202206027158-3169-40             SEALING PLUG             CCN000020000000040000FN00000000020220701000040000NNM   20220504122823    1C0C  00004000000000156000000204132DA    GBYIPLGB004300260014
BI00B32DA    SBT2207A       202206097158-3169-40             SEALING PLUG             CCN000020000000040000FN00000000020220701000040000NNM   20220504122823    1C0C  00004000000000156000000204132DA    GBYIPLGB004300260014
BI00B32DA    #SBT2207       202206027114-4022                TERMINAL                 CCN000022500000030000FN00000000020220701000030000NNM   20220504122823    2F0P  00001500000000708000001120632DA    GBYIPLGB006400630015
BI00B32DA    #SBT2207A      202206097114-4022                TERMINAL                 CCN000022500000030000FN00000000020220701000030000NNM   20220504122823    2F0P  00001500000000708000001120632DA    GBYIPLGB006400630015
BI00B32DA    #SBT2207       202206027116-4021                TERMINAL                 CCN000020250000027000FN00000000020220701000027000NNM   20220504122823    2F0P  00001350000000534600000868832DA    GBYIPLGB006400630015
BI00B32DA    #SBT2207A      202206097116-4021                TERMINAL                 CCN000020250000027000FN00000000020220701000027000NNM   20220504122823    2F0P  00001350000000534600000868832DA    GBYIPLGB006400630015
BI00B32DA    #SBT2207       202206027183-2414                CONNECTOR HOUSING        CCN000004800000004800FN00000000020220701000004800NNM   20220504122823    2F0F  00000480000000779200001061032DA    GBYIPLGB005500360039
BI00B32DA    #SBT2207A      202206097183-2414                CONNECTOR HOUSING        CCN000004800000004800FN00000000020220701000004800NNM   20220504122823    2F0F  00000480000000779200001061032DA    GBYIPLGB005500360039
BI00B32DA    #SBT2207       202206027189-3037                HOUSING FEMALE           CCN000002400000004800FN00000000020220701000004800NNM   20220504122823    2F0F  00000480000000806400001066432DA    GBYIPLGB005500360039
BI00B32DA    #SBT2207A      202206097189-3037                HOUSING FEMALE           CCN000002400000004800FN00000000020220701000004800NNM   20220504122823    2F0F  00000480000000806400001066432DA    GBYIPLGB005500360039
BI00B32DA    #SBT2207       202206027157-6826-80             REAR HOLDER              CCN000007500000015000FN00000000020220701000015000NNM   20220504122823    2F0F  00001500000001234500001394132DA    GBYIPLGB005600390040
BI00B32DA    #SBT2207A      202206097157-6826-80             REAR HOLDER              CCN000007500000015000FN00000000020220701000015000NNM   20220504122823    2F0F  00001500000001234500001394132DA    GBYIPLGB005600390040
BI00B32DA    #SBT2207       202206027158-3015-10             RUBBER STOPPER           CCN000005000000010000FN00000000020220701000010000NNM   20220504122823    2C0C  00001000000000419500000474032DA    GBYIPLGB002700430014
BI00B32DA    #SBT2207A      202206097158-3015-10             RUBBER STOPPER           CCN000005000000010000FN00000000020220701000010000NNM   20220504122823    2C0C  00001000000000419500000474032DA    GBYIPLGB002700430014
BI00B32DA    #SBT2207       202206027183-1616-30             CONNECTOR HOUSING        CCN000003600000004800FN00000000020220701000004800NNM   20220504122823    2F0F  00000240000000557500000837132DA    GBYIPLGB005500360039
BI00B32DA    #SBT2207A      202206097183-1616-30             CONNECTOR HOUSING        CCN000003600000004800FN00000000020220701000004800NNM   20220504122823    2F0F  00000240000000557500000837132DA    GBYIPLGB005500360039
BI00B32DA    #SBT2207       202206027183-2414-40             CONNECTOR HOUSING        CCN000002400000004800FN00000000020220701000004800NNM   20220504122823    2F0F  00000480000000777600000963632DA    GBYIPLGB005500360039
BI00B32DA    #SBT2207A      202206097183-2414-40             CONNECTOR HOUSING        CCN000002400000004800FN00000000020220701000004800NNM   20220504122823    2F0F  00000480000000777600000963632DA    GBYIPLGB005500360039
BI00B32DA    #SBT2207       202206027183-7725-40             HOUSING                  CCN000012000000012000FN00000000020220701000012000NNM   20220504122823    2F0F  00000600000000840000001040032DA    GBYIPLGB005600390040
BI00B32DA    #SBT2207A      202206097183-7725-40             HOUSING                  CCN000012000000012000FN00000000020220701000012000NNM   20220504122823    2F0F  00000600000000840000001040032DA    GBYIPLGB005600390040
BI00B32DJ    GHT2206B 1     202205037116-1257-02             TERMINAL                 CCN000024000000024000FY00002400020220601000000000NNM00020220504113939    1P0P  00002400000000518400000847132DJ    RBYIPLRB006400630017
BI00B32DJ    GHT2206B 1     202205037158-3006-90             RUBBER STOPPER           CCN000040000000040000FY00004000020220601000000000NNM00020220504113951    1C0C  00002000000000330600000386032DJ    RBYIPLRB002700430014
BI00A32DJ    GHT2206B 2     202205057196-0805-02             TERMINAL FEMALE          CCN000045000000045000FN00000000020220601000045000NNMM0020220504143719    4P0P  00002250000000558000000843232DJ    RBYIPLRB006400630015
BI00B32DJ    GHT2206B 1     202205037289-3342-30             HOUSING FEMALE ASS'Y     CCN000004800000004800FY00000480020220601000000000NNM00020220504114003    1N0N  00000240000000686400000901432DJ    RBYIPLRB005500360039
BI00B32D9    I21805         202205057289-3342                HOUSING FEMALE ASS'Y     CCN000021600000021600FN00000000020220501000021600NNM00020220504154354    1N0N  00000240000000686400000901432D9    UEHESTO 005500360039
BI00B32D9    I22707         202206097114-4030                TERMINAL                 CCN000010500000010500FN00000000020220701000010500NNM   20220504122823    4P0P  00001050000000926100001254732D9    UEHESTO 006400630017
BI00B32D9    I22807         202206167114-4030                TERMINAL                 CCN000010500000010500FN00000000020220701000010500NNM   20220504122823    4P0P  00001050000000926100001254732D9    UEHESTO 006400630017
BI00B32D9    I22707         202206097114-4231-02             TERMINAL                 CCN000018000000018000FN00000000020220701000018000NNM   20220504122823    4P0P  00001800000000554400000848032D9    UEHESTO 006400630015
BI00B32D9    I22807         202206167114-4231-02             TERMINAL                 CCN000018000000018000FN00000000020220701000018000NNM   20220504122823    4P0P  00001800000000554400000848032D9    UEHESTO 006400630015
BI00B32D9    I22908         202206237114-4231-02             TERMINAL                 CCN000018000000018000FN00000000020220701000018000NNM   20220504122823    4P0P  00001800000000554400000848032D9    UEHESTO 006400630015
BI00B32D9    I23008         202206307114-4231-02             TERMINAL                 CCN000018000000018000FN00000000020220701000018000NNM   20220504122823    4P0P  00001800000000554400000848032D9    UEHESTO 006400630015
BI00B32D9    I22707         202206097116-1180                TERMINAL                 CCN000019500000019500FN00000000020220701000019500NNM   20220504122823    1P0P  00001950000000618200000903432D9    UEHESTO 006400630015
BI00B32D9    I22908         202206237116-4101-02             TERMINAL                 CCN000012000000012000FN00000000020220701000012000NNM   20220504122823    4P0P  00001200000000582000000876232D9    UEHESTO 006400630015
BI00B32D9    I22807         202206167116-4102-02             TERMINAL                 CCN000036000000036000FN00000000020220701000036000NNM   20220504122823    4P0P  00001200000000553200000841432D9    UEHESTO 006400630015
BI00B32D9    I22908         202206237116-4102-02             TERMINAL                 CCN000024000000024000FN00000000020220701000024000NNM   20220504122823    4P0P  00001200000000553200000841432D9    UEHESTO 006400630015
BI00B32D9    I23008         202206307116-4121-02             TERMINAL                 CCN000004500000004500FN00000000020220701000004500NNM   20220504122823    4P0P  00000450000000618800000912432D9    UEHESTO 006400630015
BI00B32D9    I22707         202206097116-4122-02             TERMINAL                 CCN000018000000018000FN00000000020220701000018000NNM   20220504122823    4P0P  00000450000000656600000950232D9    UEHESTO 006400630015
BI00B32D9    I22807         202206167116-4122-02             TERMINAL                 CCN000018000000018000FN00000000020220701000018000NNM   20220504122823    4P0P  00000450000000656600000950232D9    UEHESTO 006400630015
BI00B32D9    I22908         202206237116-4122-02             TERMINAL                 CCN000018000000018000FN00000000020220701000018000NNM   20220504122823    4P0P  00000450000000656600000950232D9    UEHESTO 006400630015
BI00B32D9    I23008         202206307116-4122-02             TERMINAL                 CCN000018000000018000FN00000000020220701000018000NNM   20220504122823    4P0P  00000450000000656600000950232D9    UEHESTO 006400630015
BI00B32D9    I22707         202206097116-4124-02             TERMINAL                 CCN000003000000003000FN00000000020220701000003000NNM   20220504122823    4P0P  00000300000000459900000753532D9    UEHESTO 006400630015
BI00B32D9    I22807         202206167116-4124-02             TERMINAL                 CCN000003000000003000FN00000000020220701000003000NNM   20220504122823    4P0P  00000300000000459900000753532D9    UEHESTO 006400630015
BI00B32D9    I22908         202206237116-4124-02             TERMINAL                 CCN000003000000003000FN00000000020220701000003000NNM   20220504122823    4P0P  00000300000000459900000753532D9    UEHESTO 006400630015
BI00B32D9    I22707         202206097140-1977-30             UPPER COVER              CCN000000600000000600FN00000000020220701000000600NNM   20220504122823    1F0F  00000001000000099500000249532D9    UEHESTO 005600390040
BI00B32D9    I22807         202206167140-1977-30             UPPER COVER              CCN000000600000000600FN00000000020220701000000600NNM   20220504122823    1F0F  00000001000000099500000249532D9    UEHESTO 005600390040
BI00B32D9    I22908         202206237140-1977-30             UPPER COVER              CCN000000600000000600FN00000000020220701000000600NNM   20220504122823    1F0F  00000001000000099500000249532D9    UEHESTO 005600390040
BI00B32D9    I23008         202206307140-1977-30             UPPER COVER              CCN000000600000000600FN00000000020220701000000600NNM   20220504122823    1F0F  00000001000000099500000249532D9    UEHESTO 005600390040
BI00B32D9    I22707         202206097158-3167-80             WIRE SEAL                CCN000040000000040000FN00000000020220701000040000NNM   20220504122823    1C0C  00002000000000048000000109032D9    UEHESTO 002700430014
BI00B32D9    I22707         202206097235-8662                DOOR GROMMET             CCN000000480000000480FN00000000020220701000000480NNM   20220504122823    4N0N  00000016000000844000001010032D9    UEHESTO 005500360039
BI00B32D9    I22807         202206167235-8662                DOOR GROMMET             CCN000000480000000480FN00000000020220701000000480NNM   20220504122823    4N0N  00000016000000844000001010032D9    UEHESTO 005500360039
BI00B32D9    I22908         202206237235-8662                DOOR GROMMET             CCN000000480000000480FN00000000020220701000000480NNM   20220504122823    4N0N  00000016000000844000001010032D9    UEHESTO 005500360039
BI00B32D9    I23008         202206307235-8662                DOOR GROMMET             CCN000000480000000480FN00000000020220701000000480NNM   20220504122823    4N0N  00000016000000844000001010032D9    UEHESTO 005500360039
BI00B32D9    I22707         202206097282-5574-10             CONNECTOR                CCN000001600000001600FN00000000020220701000001600NNM   20220504122823    4N0N  00000080000001235000001423032D9    UEHESTO 005600390040
BI00B32D9    I22807         202206167282-5574-10             CONNECTOR                CCN000001600000001600FN00000000020220701000001600NNM   20220504122823    4N0N  00000080000001235000001423032D9    UEHESTO 005600390040
BI00B32D9    I22908         202206237282-5574-10             CONNECTOR                CCN000001600000001600FN00000000020220701000001600NNM   20220504122823    4N0N  00000080000001235000001423032D9    UEHESTO 005600390040
BI00B32D9    I23008         202206307282-5574-10             CONNECTOR                CCN000000800000000800FN00000000020220701000000800NNM   20220504122823    4N0N  00000080000001235000001423032D9    UEHESTO 005600390040
BI00B32D9    I22807         202206167283-1968-30             CONNECTOR                CCN000000900000000900FN00000000020220701000000900NNM   20220504122823    1N0N  00000090000001140000001318332D9    UEHESTO 005600390040
BI00B32D9    I22908         202206237283-7028-30             CONNECTOR                CCN000003000000003000FN00000000020220701000003000NNM   20220504122823    4N0N  00000300000001452000001681332D9    UEHESTO 005600390040
BI00B32D9    I23008         202206307283-8228-40             CONNECTOR                CCN000003000000003000FN00000000020220701000003000NNM   20220504122823    4N0N  00000300000001215000001361032D9    UEHESTO 005600390040
BI00B32D9    I22707         202206097284-2665-3W             PROTECTOR                CCN000000200000000200FN00000000020220701000000200NNM   20220504122823    4N0N  00000010000000580000000754732D9    UEHESTO 005600390040
BI00B32D9    I22807         202206167284-2665-3W             PROTECTOR                CCN000000200000000200FN00000000020220701000000200NNM   20220504122823    4N0N  00000010000000580000000754732D9    UEHESTO 005600390040
BI00B32D9    I22908         202206237284-2665-3W             PROTECTOR                CCN000000200000000200FN00000000020220701000000200NNM   20220504122823    4N0N  00000010000000580000000754732D9    UEHESTO 005600390040
BI00B32D9    I23008         202206307284-2665-3W             PROTECTOR                CCN000000200000000200FN00000000020220701000000200NNM   20220504122823    4N0N  00000010000000580000000754732D9    UEHESTO 005600390040
BI00B32D9    I22707         202206097286-3970                CONNECTOR HOUSING        CCN000000440000000440FN00000000020220701000000440NNM   20220504122823    1N0N  00000011000000977300001164032D9    UEHESTO 005500360039
BI00B32D9    I22807         202206167286-3970                CONNECTOR HOUSING        CCN000000330000000330FN00000000020220701000000330NNM   20220504122823    1N0N  00000011000000977300001164032D9    UEHESTO 005500360039
BI00B32D9    I22908         202206237286-3970                CONNECTOR HOUSING        CCN000000330000000330FN00000000020220701000000330NNM   20220504122823    1N0N  00000011000000977300001164032D9    UEHESTO 005500360039
BI00B32D9    I23008         202206307286-3970                CONNECTOR HOUSING        CCN000000330000000330FN00000000020220701000000330NNM   20220504122823    1N0N  00000011000000977300001164032D9    UEHESTO 005500360039
BI00B32D9    I22707         202206097370-0309                J/B ASS'Y                CCN000000480000000480FN00000000020220701000000480NNM   20220504122823    1J0J  00000001600000870400001260032D9    UEHESTO 005500360039
BI00B32D9    I22908         202206237370-0309                J/B ASS'Y                CCN000000480000000480FN00000000020220701000000480NNM   20220504122823    1J0J  00000001600000870400001260032D9    UEHESTO 005500360039
BI00B32D9    I22707         202206097370-0310                J/B ASS'Y                CCN000000600000000600FN00000000020220701000000600NNM   20220504122823    1J0J  00000001000000559000000809032D9    UEHESTO 005500360039
BI00B32D9    I22807         202206167370-0310                J/B ASS'Y                CCN000000300000000300FN00000000020220701000000300NNM   20220504122823    1J0J  00000001000000559000000809032D9    UEHESTO 005500360039
BI00B32D9    I22908         202206237370-0310                J/B ASS'Y                CCN000000300000000300FN00000000020220701000000300NNM   20220504122823    1J0J  00000001000000559000000809032D9    UEHESTO 005500360039
BI00B32D9    I23008         202206307370-0310                J/B ASS'Y                CCN000000300000000300FN00000000020220701000000300NNM   20220504122823    1J0J  00000001000000559000000809032D9    UEHESTO 005500360039
BI00B32D9    I22707         202206097388-0313-30             CONNECTOR ASS'Y          CCN000002400000002400FN00000000020220701000002400NNM   20220504122823    4N0N  00000120000000995000001125032D9    UEHESTO 005400370024
BI00B32D9    I22807         202206167388-0313-30             CONNECTOR ASS'Y          CCN000001200000001200FN00000000020220701000001200NNM   20220504122823    4N0N  00000120000000995000001125032D9    UEHESTO 005400370024
BI00B32D9    I22908         202206237388-0313-30             CONNECTOR ASS'Y          CCN000002400000002400FN00000000020220701000002400NNM   20220504122823    4N0N  00000120000000995000001125032D9    UEHESTO 005400370024
BI00B32D9    I23008         202206307388-0313-30             CONNECTOR ASS'Y          CCN000001200000001200FN00000000020220701000001200NNM   20220504122823    4N0N  00000120000000995000001125032D9    UEHESTO 005400370024
BI00B32D9    #I22707        202206097125-3236-30             HEAD LAMP CONNECTOR      CCN000002800000002800FN00000000020220701000002800NNM   20220504122823    2F0F  00000280000000945000001085932D9    UEHESTO 005500360039
BI00B32D9    #I22707        202206097140-1978-30             LOWER COVER              CCN000000480000000480FN00000000020220701000000480NNM   20220504122823    2F0F  00000000800000207100000395132D9    UEHESTO 005500360039
BI00B32D9    #I22807        202206167140-1978-30             LOWER COVER              CCN000000480000000480FN00000000020220701000000480NNM   20220504122823    2F0F  00000000800000207100000395132D9    UEHESTO 005500360039
BI00B32D9    #I22908        202206237140-1978-30             LOWER COVER              CCN000000480000000480FN00000000020220701000000480NNM   20220504122823    2F0F  00000000800000207100000395132D9    UEHESTO 005500360039
BI00B32D9    #I23008        202206307140-1978-30             LOWER COVER              CCN000000480000000480FN00000000020220701000000480NNM   20220504122823    2F0F  00000000800000207100000395132D9    UEHESTO 005500360039
BI00B32D9    #I22707        202206097158-3005-80             RUBBER STOPPER           CCN000020000000020000FN00000000020220701000020000NNM   20220504122823    2H0H  00002000000000210000000268732D9    UEHESTO 002700430014
BI00B32D9    #I23008        202206307158-3005-80             RUBBER STOPPER           CCN000020000000020000FN00000000020220701000020000NNM   20220504122823    2H0H  00002000000000210000000268732D9    UEHESTO 002700430014
BI00B32D9    #I22707        202206097158-7585-30             BLOCK LIF                CCN000000800000000800FN00000000020220701000000800NNM   20220504122823    2F0F  00000080000000617400000771532D9    UEHESTO 005500360039
BI00B32D9    #I22807        202206167158-7585-30             BLOCK LIF                CCN000000800000000800FN00000000020220701000000800NNM   20220504122823    2F0F  00000080000000617400000771532D9    UEHESTO 005500360039
BI00B32D9    #I22908        202206237158-7585-30             BLOCK LIF                CCN000000800000000800FN00000000020220701000000800NNM   20220504122823    2F0F  00000080000000617400000771532D9    UEHESTO 005500360039
BI00B32D9    #I22707        202206097158-7586-30             BLOCK LIF                CCN000000800000000800FN00000000020220701000000800NNM   20220504122823    2F0F  00000080000000617400000844232D9    UEHESTO 005500360039
BI00B32D9    #I22908        202206237158-7586-30             BLOCK LIF                CCN000000800000000800FN00000000020220701000000800NNM   20220504122823    2F0F  00000080000000617400000844232D9    UEHESTO 005500360039
BI00B32D9    #I23008        202206307158-7586-30             BLOCK LIF                CCN000000800000000800FN00000000020220701000000800NNM   20220504122823    2F0F  00000080000000617400000844232D9    UEHESTO 005500360039
BI00B32D9    #I22707        202206097171-6291                HOUSING MALE             CCN000000768000000768FN00000000020220701000000768NNM   20220504122823    2F0F  00000019200001339100001489132D9    UEHESTO 005500360039
BI00B32D9    #I22807        202206167171-6291                HOUSING MALE             CCN000000768000000768FN00000000020220701000000768NNM   20220504122823    2F0F  00000019200001339100001489132D9    UEHESTO 005500360039
BI00B32D9    #I22908        202206237171-6291                HOUSING MALE             CCN000000768000000768FN00000000020220701000000768NNM   20220504122823    2F0F  00000019200001339100001489132D9    UEHESTO 005500360039
BI00B32D9    #I23008        202206307171-6291                HOUSING MALE             CCN000000768000000768FN00000000020220701000000768NNM   20220504122823    2F0F  00000019200001339100001489132D9    UEHESTO 005500360039
BI00B32D9    #I22707        202206097171-6292                HOUSING                  CCN000000360000000360FN00000000020220701000000360NNM   20220504122823    2F0F  00000018000000762100000980332D9    UEHESTO 005400370024
BI00B32D9    #I22807        202206167171-6292                HOUSING                  CCN000000360000000360FN00000000020220701000000360NNM   20220504122823    2F0F  00000018000000762100000980332D9    UEHESTO 005400370024
BI00B32D9    #I22908        202206237171-6292                HOUSING                  CCN000000360000000360FN00000000020220701000000360NNM   20220504122823    2F0F  00000018000000762100000980332D9    UEHESTO 005400370024
BI00B32D9    #I23008        202206307171-6292                HOUSING                  CCN000000360000000360FN00000000020220701000000360NNM   20220504122823    2F0F  00000018000000762100000980332D9    UEHESTO 005400370024
BI00B32D9    #I22707        202206097173-1070                CONNECTOR BRACKET        CCN000001200000001200FN00000000020220701000001200NNM   20220504122823    2F0F  00000120000000592400000968332D9    UEHESTO 005500360039
BI00B32D9    #I23008        202206307173-1070                CONNECTOR BRACKET        CCN000001200000001200FN00000000020220701000001200NNM   20220504122823    2F0F  00000120000000592400000968332D9    UEHESTO 005500360039
BI00B32D9    #I22707        202206097173-1071                BRACKET                  CCN000001200000001200FN00000000020220701000001200NNM   20220504122823    2F0F  00000120000001156800001388232D9    UEHESTO 005600390040
BI00B32D9    #I22807        202206167173-1071                BRACKET                  CCN000001200000001200FN00000000020220701000001200NNM   20220504122823    2F0F  00000120000001156800001388232D9    UEHESTO 005600390040
BI00B32D9    #I23008        202206307173-1071                BRACKET                  CCN000001200000001200FN00000000020220701000001200NNM   20220504122823    2F0F  00000120000001156800001388232D9    UEHESTO 005600390040
BI00B32D9    #I22707        202206097173-4057                LIF LEVER                CCN000000720000000720FN00000000020220701000000720NNM   20220504122823    2F0F  00000036000000689600000839632D9    UEHESTO 005400370024
BI00B32D9    #I22807        202206167173-4057                LIF LEVER                CCN000000360000000360FN00000000020220701000000360NNM   20220504122823    2F0F  00000036000000689600000839632D9    UEHESTO 005400370024
BI00B32D9    #I22908        202206237173-4057                LIF LEVER                CCN000000720000000720FN00000000020220701000000720NNM   20220504122823    2F0F  00000036000000689600000839632D9    UEHESTO 005400370024
BI00B32D9    #I23008        202206307173-4057                LIF LEVER                CCN000000360000000360FN00000000020220701000000360NNM   20220504122823    2F0F  00000036000000689600000839632D9    UEHESTO 005400370024
BI00B32D9    #I22707        202206097174-0152                CONNECTOR                CCN000000350000000350FN00000000020220701000000350NNM   20220504122823    2F0F  00000035000000746400000918632D9    UEHESTO 005500360039
BI00B32D9    #I22807        202206167174-0152                CONNECTOR                CCN000000350000000350FN00000000020220701000000350NNM   20220504122823    2F0F  00000035000000746400000918632D9    UEHESTO 005500360039
BI00B32D9    #I23008        202206307174-0152                CONNECTOR                CCN000000350000000350FN00000000020220701000000350NNM   20220504122823    2F0F  00000035000000746400000918632D9    UEHESTO 005500360039
BI00B32D9    #I22707        202206097174-1749                COVER                    CCN000000882000000882FN00000000020220701000000882NNM   20220504122823    2F0F  00000029400000689600000834632D9    UEHESTO 005500360039
BI00B32D9    #I22807        202206167174-1749                COVER                    CCN000000882000000882FN00000000020220701000000882NNM   20220504122823    2F0F  00000029400000689600000834632D9    UEHESTO 005500360039
BI00B32D9    #I22908        202206237174-1749                COVER                    CCN000000882000000882FN00000000020220701000000882NNM   20220504122823    2F0F  00000029400000689600000834632D9    UEHESTO 005500360039
BI00B32D9    #I23008        202206307174-1749                COVER                    CCN000000882000000882FN00000000020220701000000882NNM   20220504122823    2F0F  00000029400000689600000834632D9    UEHESTO 005500360039
BI00B32D9    #I22707        202206097182-2411-40             CONNECTOR HOUSING        CCN000001200000001200FN00000000020220701000001200NNM   20220504122823    2F0F  00000120000001278800001568632D9    UEHESTO 005500360039
BI00B32D9    #I22707        202206097183-2412                HOUSING                  CCN000001600000001600FN00000000020220701000001600NNM   20220504122823    2F0F  00000160000001059200001245632D9    UEHESTO 005500360039
BI00B32D9    #I22707        202206097186-3971                CONNECTOR HOUSING        CCN000002400000002400FN00000000020220701000002400NNM   20220504122823    2F0F  00000240000001002200001191432D9    UEHESTO 005500360039
BI00B32D9    #I23008        202206307186-3971                CONNECTOR HOUSING        CCN000000882000002400FN00000000020220701000002400NNM   20220504122823    2F0F  00000240000001002200001191432D9    UEHESTO 005500360039
BI00B32D9    #I22707        202206097186-3974-30             CONNECTOR HOUSING        CCN000002400000002400FN00000000020220701000002400NNM   20220504122823    2F0F  00000240000001062200001233432D9    UEHESTO 005500360039
BI00B32D9    #I22707        202206097187-3356                JOINT CONNECTOR          CCN000003600000003600FN00000000020220701000003600NNM   20220504122823    2F0F  00000120000000759600001024432D9    UEHESTO 005600390040
BI00B32D9    #I22807        202206167187-3356                JOINT CONNECTOR          CCN000002400000002400FN00000000020220701000002400NNM   20220504122823    2F0F  00000120000000759600001024432D9    UEHESTO 005600390040
BI00B32D9    #I22908        202206237187-3356                JOINT CONNECTOR          CCN000002400000002400FN00000000020220701000002400NNM   20220504122823    2F0F  00000120000000759600001024432D9    UEHESTO 005600390040
BI00B32D9    #I23008        202206307187-3356                JOINT CONNECTOR          CCN000002400000002400FN00000000020220701000002400NNM   20220504122823    2F0F  00000120000000759600001024432D9    UEHESTO 005600390040
BI00B32D9    #I22707        202206097187-3358-30             JOINT CONNECTOR          CCN000001200000001200FN00000000020220701000001200NNM   20220504122823    2F0F  00000120000000673200000940432D9    UEHESTO 005600390040
BI00B32D9    #I22707        202206097187-3359-60             JOINT CONNECTOR          CCN000001200000001200FN00000000020220701000001200NNM   20220504122823    2F0F  00000120000000763200001030432D9    UEHESTO 005600390040
BI00B32D9    #I22807        202206167187-3359-60             JOINT CONNECTOR          CCN000001200000001200FN00000000020220701000001200NNM   20220504122823    2F0F  00000120000000763200001030432D9    UEHESTO 005600390040
BI00B32D9    #I22908        202206237187-3359-60             JOINT CONNECTOR          CCN000001200000001200FN00000000020220701000001200NNM   20220504122823    2F0F  00000120000000763200001030432D9    UEHESTO 005600390040
BI00B32D9    #I22707        202206097187-3360                JOINT CONNECTOR          CCN000001200000001200FN00000000020220701000001200NNM   20220504122823    2F0F  00000120000000759600001026832D9    UEHESTO 005600390040
BI00B32D9    #I22807        202206167187-3360                JOINT CONNECTOR          CCN000001200000001200FN00000000020220701000001200NNM   20220504122823    2F0F  00000120000000759600001026832D9    UEHESTO 005600390040
BI00B32D9    #I22908        202206237187-3360                JOINT CONNECTOR          CCN000001200000001200FN00000000020220701000001200NNM   20220504122823    2F0F  00000120000000759600001026832D9    UEHESTO 005600390040
BI00B32D9    #I23008        202206307187-3360                JOINT CONNECTOR          CCN000002400000002400FN00000000020220701000002400NNM   20220504122823    2F0F  00000120000000759600001026832D9    UEHESTO 005600390040
BI00B32D9    #I22707        202206097187-3970                CONNECTOR FLAME          CCN000000368000000368FN00000000020220701000000368NNM   20220504122823    2F0F  00000036800001414000001737332D9    UEHESTO 005600390040
BI00B32D9    #I22807        202206167187-3970                CONNECTOR FLAME          CCN000000368000000368FN00000000020220701000000368NNM   20220504122823    2F0F  00000036800001414000001737332D9    UEHESTO 005600390040
BI00B32D9    #I22908        202206237187-3970                CONNECTOR FLAME          CCN000000368000000368FN00000000020220701000000368NNM   20220504122823    2F0F  00000036800001414000001737332D9    UEHESTO 005600390040
BI00B32D9    #I23008        202206307187-3970                CONNECTOR FLAME          CCN000000368000000368FN00000000020220701000000368NNM   20220504122823    2F0F  00000036800001414000001737332D9    UEHESTO 005600390040
BI00B32D9    #I22707        202206097187-3971                CONNECTOR HOUSING        CCN000002400000002400FN00000000020220701000002400NNM   20220504122823    2F0F  00000240000000928300001099532D9    UEHESTO 005500360039
BI00B32D9    #I22707        202206097187-3973                CONNECTOR HOUSING        CCN000002400000002400FN00000000020220701000002400NNM   20220504122823    2F0F  00000240000000901900001073132D9    UEHESTO 005500360039
BI00B32D9    #I22707        202206097187-3974-30             CONNECTOR HOUSING        CCN000002400000002400FN00000000020220701000002400NNM   20220504122823    2F0F  00000240000000907400001078632D9    UEHESTO 005500360039
BI00B32D9    #I22908        202206237187-3976-60             CONNECTOR HOUSING        CCN000002400000002400FN00000000020220701000002400NNM   20220504122823    2F0F  00000240000000902200001073332D9    UEHESTO 005500360039
BI00B32D9    #I22707        202206097187-3977-90             CONNECTOR HOUSING        CCN000002400000002400FN00000000020220701000002400NNM   20220504122823    2F0F  00000240000000905000001076232D9    UEHESTO 005500360039
BI00B32D9    #I22707        202206097188-9508-40             HLC HOUSING MALE         CCN000002000000002000FN00000000020220701000002000NNM   20220504122823    2F0F  00000200000000637000000782032D9    UEHESTO 005400370024
BI00B32D9    #I22807        202206167188-9508-40             HLC HOUSING MALE         CCN000000200000002000FN00000000020220701000002000NNM   20220504122823    2F0F  00000200000000637000000782032D9    UEHESTO 005400370024
BI00B32D9    #I22707        202206097188-9509                HLC HOUSING MALE         CCN000002000000002000FN00000000020220701000002000NNM   20220504122823    2F0F  00000200000000626200000771232D9    UEHESTO 005400370024
BI00B32D9    #I22707        202206097188-9510-30             HLC HOUSING MALE         CCN000002000000002000FN00000000020220701000002000NNM   20220504122823    2F0F  00000200000000631000000776032D9    UEHESTO 005400370024
BI00B32D9    #I22707        202206097188-9511-80             HLC HOUSING MALE         CCN000002000000002000FN00000000020220701000002000NNM   20220504122823    2F0F  00000200000000627200000772232D9    UEHESTO 005400370024
BI00B32D9    #I22707        202206097188-9512-10             HLC HOUSING MALE         CCN000002000000002000FN00000000020220701000002000NNM   20220504122823    2F0F  00000200000000628200000773232D9    UEHESTO 005400370024
BI00B32D9    #I22707        202206097188-9513                HLC HOUSING MALE         CCN000002000000002000FN00000000020220701000002000NNM   20220504122823    2F0F  00000200000000771400000916432D9    UEHESTO 005400370024
BI00B32D9    #I22707        202206097188-9514-90             HLC HOUSING MALE         CCN000002000000002000FN00000000020220701000002000NNM   20220504122823    2F0F  00000200000000778600000923632D9    UEHESTO 005400370024
BI00B32D9    #I22807        202206167188-9514-90             HLC HOUSING MALE         CCN000002000000002000FN00000000020220701000002000NNM   20220504122823    2F0F  00000200000000778600000923632D9    UEHESTO 005400370024
BI00B32D9    #I22707        202206097189-9516-40             HOUSING                  CCN000002000000002000FN00000000020220701000002000NNM   20220504122823    2F0F  00000200000000578800000685832D9    UEHESTO 005400370024
BI00B32D9    #I22707        202206097189-9517                HOUSING                  CCN000002000000002000FN00000000020220701000002000NNM   20220504122823    2F0F  00000200000000576600000683632D9    UEHESTO 005400370024
BI00B32D9    #I22707        202206097189-9518-30             HOUSING                  CCN000002000000002000FN00000000020220701000002000NNM   20220504122823    2F0F  00000200000000583600000690632D9    UEHESTO 005400370024
BI00B32D9    #I22707        202206097189-9519-80             HOUSING                  CCN000002000000002000FN00000000020220701000002000NNM   20220504122823    2F0F  00000200000000579400000686432D9    UEHESTO 005400370024
BI00B32D9    #I22707        202206097189-9520-10             HOUSING                  CCN000002000000002000FN00000000020220701000002000NNM   20220504122823    2F0F  00000200000000578400000685432D9    UEHESTO 005400370024
BI00B32D9    #I22707        202206097189-9522-90             HOUSING                  CCN000002000000002000FN00000000020220701000002000NNM   20220504122823    2F0F  00000200000000753200000860232D9    UEHESTO 005400370024
BI00B32D9    #I22707        202206097283-1065                CONNECTOR                CCN000002500000002500FN00000000020220701000002500NNM   20220504122823    2N0N  00000250000001152500001310432D9    UEHESTO 005500360039
BI00B32D9    #I22707        202206097283-5831                CONNECTOR                CCN000003000000003000FN00000000020220701000003000NNM   20220504122823    2N0N  00000300000000750000000880032D9    UEHESTO 005400370024
BI00B32D9    #I22707        202206097283-5834                CONNECTOR ASS'Y          CCN000003240000003240FN00000000020220701000003240NNM   20220504122823    2N0N  00000324000001296000001849732D9    UEHESTO 005600390040
BI00B32D9    #I23008        202206307283-5834                CONNECTOR ASS'Y          CCN000003240000003240FN00000000020220701000003240NNM   20220504122823    2N0N  00000324000001296000001849732D9    UEHESTO 005600390040
BI00B32EJ    T220429P01     202207147283-5843                CONNECTOR                CCN000030000000015000FN00000000020220601000015000NNED0220220504165802EJ  1N0N  00000150000000889000001132032EJ    EJYKBO  005600390040
BI00B32EJ    T220503P01     202206097116-4102-02             TERMINAL                 CCN000012000000012000FN00000000020220601000012000NNE   20220504122823EJ  4P0P  00001200000000553200000841432EJ    EJYKBO  006400630015
BI00B32EJ    T220503P01     202206097283-1968-30             CONNECTOR                CCN000000900000000900FN00000000020220601000000900NNE   20220504122823EJ  1N0N  00000090000001140000001318332EJ    EJYKBO  005600390040
BI00B32EJ    T220503P01     202206097116-4124-02             TERMINAL                 CCN000012000000012000FN00000000020220601000012000NNE   20220504122823EJ  4P0P  00000300000000459900000753532EJ    EJYKBO  006400630015
BI00B32EJ    T220503P01     202206097196-1461-06             TERMINAL FEMALE          CCN000024000000024000FN00000000020220601000024000NNE   20220504122823EJ  4P0P  00002400000000386400000692932EJ    EJYKBO  006400630015
BI00B32EJ    T220503P01     202206097116-4122-02             TERMINAL                 CCN000027000000027000FN00000000020220601000027000NNE   20220504122823EJ  4P0P  00000450000000656600000950232EJ    EJYKBO  006400630015
BI00B32EJ    T220503P01     202206097116-4121-02             TERMINAL                 CCN000009000000009000FN00000000020220601000009000NNE   20220504122823EJ  4P0P  00000450000000618800000912432EJ    EJYKBO  006400630015
BI00B32EJ    T220503P01     202206097116-4111-02             TERMINAL                 CCN000007500000007500FN00000000020220601000007500NNE   20220504122823EJ  4P0P  00000750000000529500000817732EJ    EJYKBO  006400630015
BI00B32EJ    T220503P01     202206097158-3166-60             WIRE SEAL                CCN000240000000240000FN00000000020220601000240000NNE   20220504122823EJ  1C0C  00004000000000104000000152432EJ    EJYKBO  002700430014
BI00B32EJ    T220503P01     202206097158-3167-80             WIRE SEAL                CCN000260000000260000FN00000000020220601000260000NNE   20220504122823EJ  1C0C  00002000000000048000000109032EJ    EJYKBO  002700430014
BI00B32EJ    T220503P01     202206097158-3167-61             WIRE SEAL                CCN000020000000020000FN00000000020220601000020000NNE   20220504122823EJ  1C0C  00002000000000048000000096432EJ    EJYKBO  004300270014
BI00B32EJ    #T220503P01    202206097157-3992-90             CONNECTOR SEALED         CCN000040000000040000FN00000000020220601000040000NNE   20220504122823EJ  2C0C  00004000000000300000000363332EJ    EJYKBO  002700430014
BI00B32EJ    #T220503P01    202206097158-3374-90             CONNECTOR WIRE SEAL      CCN000020000000020000FN00000000020220601000020000NNE   20220504122823EJ  2H0H  00002000000000172000000229332EJ    EJYKBO  002700430014
BI00B32EJ    #T220503P01    202206097123-6423-30             CONNECTOR                CCN000004000000004000FN00000000020220601000004000NNE   20220504122823EJ  2F0F  00000200000001002000001167632EJ    EJYKBO  005600390023
BI00B32EJ    #T220503P01    202206097282-6458-40             CONNECTOR                CCN000003000000003000FN00000000020220601000003000NNE   20220504122823EJ  2N0N  00000100000001206000001350532EJ    EJYKBO  005500360039
BI00B32EJ    #T220503P01    202206097158-3003-90             RUBBER STOPPER           CCN000020000000020000FN00000000020220601000020000NNE   20220504122823EJ  2C0C  00002000000000250000000306032EJ    EJYKBO  002700430014
BI00B32EJ    #T220503P02    202206097282-3020                CONNECTOR                CCN000005000000005000FN00000000020220601000005000NNE   20220504122823EJ  2N0N  00000100000000984000001145432EJ    EJYKBO  005500360039
BI00B32EJ    T220429P01     202207217283-5843                CONNECTOR                CCN000015000000015000FN00000000020220601000015000NNED0220220504165853EJ  1N0N  00000150000000889000001132032EJ    EJYKBO  005600390040
BI00B32G2    SA22054 MW     202205057289-3342                HOUSING FEMALE ASS'Y     CCN000028800000014400FN00000000020220501000014400NNM00020220504135159    1N0N  00000240000000686400000901432G2    AISUAI  005500360039
BI00B32G2    SA22054 MW     202205057289-3342-30             HOUSING FEMALE ASS'Y     CCN000069600000069600FN00000000020220501000069600NNM00020220504135159    1N0N  00000240000000686400000901432G2    AISUAI  005500360039
BI00B32G2    SA2204E MW     202205057254-5840-30             ENG R/B SUB ASS'Y        CCN000000120000000120FN00000000020220401000000120NNE00020220504135109    4J0J  00000002400000732000000952032G2    AISUAI  005600390040
BI00B32H2    TIJ2064        202206027282-4578                HOUSING MALE ASS'Y       CCN000013200000010800FN00000000020220601000010800NNMQ0820220504122823    4N0N  00000120000000782600000992632H2    HVYHV   005500360039
BI00B32H2    TIJ2064        202206027283-4576                HOUSING FEMALE ASS'Y     CCN000057600000009600FN00000000020220601000009600NNMQ0820220504122823    4N0N  00000480000000651300000871332H2    HVYHV   005500360039
BI00B32H2    TIJ2063        202205277283-4576-30             HOUSING FEMALE ASS'Y     CCN000009600000004800FN00000000020220601000004800NNMQ0820220504122823    4N0N  00000480000000651300000871332H2    HVYHV   005500360039
BI00B32H2    TIJ2064        202206027283-5845-30             CONNECTOR HOUSING        CCN000006000000000000FY00000000020220601000000000NNMQ0820220504083617    1N0N  00000600000000444000000606332H2    HVYHV   005400370024
BI00B32H2    TIJ2064        202206027386-9155                CONNECTOR MALE ASS'Y     CCN000000600000000000FY00000000020220601000000000NNMQ0820220504093215    4N0N  00000060000001244400001369932H2    HVYHV   005400370024
BI00B32H2    #TIJ2064       202206027183-2413                CONNECTOR HOUSING        CCN000033600000014400FN00000000020220601000014400NNMQ0820220504122823    2F0F  00000480000000478100000760032H2    HVYHV   005500360039
BI00B32H2    #TIJ2064       202206027183-2415-40             CONNECTOR HOUSING        CCN000004800000000000FY00000000020220601000000000NNMQ0820220504152643    2F0F  00000480000000798200001091432H2    HVYHV   005500360039
BI00B32H2    #TIJ2064       202206027183-2418-30             CONNECTOR HOUSING        CCN000004800000000000FY00000000020220601000000000NNMQ0820220504152725    2F0F  00000480000000917000001235332H2    HVYHV   005500360039
BI00B32H2    #TIJ2063       202205277282-1641                CONNECTOR                CCN000016000000000000FY00000000020220601000000000NNMQ0820220504153039    2N0N  00000200000000813000000986032H2    HVYHV   005500360039
BI00B32H2    #TIJ2064       202206027282-1641                CONNECTOR                CCN000012000000000000FY00000000020220601000000000NNMQ0820220504153115    2N0N  00000200000000813000000986032H2    HVYHV   005500360039
BI00B32H2    #TIJ2063       202205277283-8123-40             CONNECTOR HOUSING        CCN000004000000000000FY00000000020220601000000000NNMQ0820220504153450    2N0N  00000400000000380000000530032H2    HVYHV   005600390023
BI00B32H2    #TIJ2064       202206027283-8123-40             CONNECTOR HOUSING        CCN000004000000000000FY00000000020220601000000000NNMQ0820220504153511    2N0N  00000400000000380000000530032H2    HVYHV   005600390023
BI00B32H2    #TIJ2062       202205207287-7859                HYBRID FEMALE ASS'Y      CCN000002400000001200FN00000000020220601000001200NNMQ0820220504153610    2N0N  00000120000000461600000671632H2    HVYHV   005500360039
BI00B32H2    #TIJ2062       202205207287-7860                HYBRID FEMALE ASS'Y      CCN000002400000000000FY00000000020220601000000000NNMQ0820220504153635    2N0N  00000120000000644000000650432H2    HVYHV   005500360039
BI00B32H2    #TIJ2063       202205277287-7860                HYBRID FEMALE ASS'Y      CCN000006000000003600FN00000000020220601000003600NNMQ0820220504153659    2N0N  00000120000000644000000650432H2    HVYHV   005500360039
BI00B32H2    #TIJ206B       202205207287-7859                HYBRID FEMALE ASS'Y      CCN000003600000000000FY00000000020220601000000000NNEQ0820220504153553    2N0N  00000120000000461600000671632H2    HVYHV   005500360039
BI00B32H2    TIJ2071        202206107282-4576                HOUSING MALE ASS'Y       CCN000007200000002400FN00000000020220701000002400NNMQ0820220504122823    4N0N  00000240000000808800001028832H2    HVYHV   005500360039
BI00B32H2    TIJ2072        202206177386-9155                CONNECTOR MALE ASS'Y     CCN000000600000000000FY00000000020220701000000000NNMQ0820220504093231    4N0N  00000060000001244400001369932H2    HVYHV   005400370024
BI00B32H2    #TIJ2072       202206177189-3036                HOUSING FEMALE           CCN000001600000000000FY00000000020220701000000000NNMQ0820220504152833    2F0F  00000160000000921600001141632H2    HVYHV   005500360039
BI00B32H2    #TIJ2073       202206247189-3036                HOUSING FEMALE           CCN000001600000000000FY00000000020220701000000000NNMQ0820220504152857    2F0F  00000160000000921600001141632H2    HVYHV   005500360039
BI00B32H2    #TIJ2072       202206177198-4980-30             HOUSING FEMALE           CCN000001200000000000FY00000000020220701000000000NNMQ0820220504152923    2F0F  00000120000000840000000921032H2    HVYHV   005400370024
BI00B32H2    #TIJ2073       202206247198-4980-30             HOUSING FEMALE           CCN000001200000000000FY00000000020220701000000000NNMQ0820220504153017    2F0F  00000120000000840000000921032H2    HVYHV   005400370024
BI00B32H2    #TIJ2074       202207017198-5394                HOUSING FEMALE           CCN000033600000024000FN00000000020220701000024000NNMQ0820220504122823    2F0F  00000480000000489700000688832H2    HVYHV   005500360039
BI00B32H2    #TIJ2073       202206247282-3020                CONNECTOR                CCN000003000000000000FY00000000020220701000000000NNMQ0820220504153139    2N0N  00000100000000984000001145432H2    HVYHV   005500360039
BI00B32H2    #TIJ2074       202207017282-3020                CONNECTOR                CCN000003000000000000FY00000000020220701000000000NNMQ0820220504153200    2N0N  00000100000000984000001145432H2    HVYHV   005500360039
BI00B32H2    #TIJ2075       202207087282-3020                CONNECTOR                CCN000004000000003000FN00000000020220701000003000NNMQ0820220504153228    2N0N  00000100000000984000001145432H2    HVYHV   005500360039
BI00B32H2    #TIJ2072       202206177283-8123                CONNECTOR HOUSING        CCN000008000000000000FY00000000020220701000000000NNMQ0820220504153254    2N0N  00000400000000380000000531732H2    HVYHV   005600390023
BI00B32H2    #TIJ2073       202206247283-8123                CONNECTOR HOUSING        CCN000012000000008000FN00000000020220701000008000NNMQ0820220504153401    2N0N  00000400000000380000000531732H2    HVYHV   005600390023
BI00B32H2    #TIJ2075       202207087283-8123-40             CONNECTOR HOUSING        CCN000004000000000000FY00000000020220701000000000NNMQ0820220504153528    2N0N  00000400000000380000000530032H2    HVYHV   005600390023
BI00B32H7    FS22054DMW     202205067283-4855                CONNECTOR HOUSING        CCN000012000000012000FN00000000020220501000012000NNM00020220504135044    4N0N  00000240000001188400001400032H7    FYFSY   005500360039
BI00B32H7    FS22053DMW     202205067288-6547                CONNECTOR MALE ASS'Y     CCN000006750000006750FN00000000020220501000006750NNM00020220504135017    4N0N  00000075000001205300001340332H7    FYFSY   005400370024
BI00B32J1    394203         202206137283-5553-10             CONNECTOR                CCN000001000000001000FN00000000020220601000001000NNE   20220504122823    4N0N  00000100000001374000001658032J1    UKYEL-BL005600390040
BI00B32M1    TCV2054        202205127289-3342-40             HOUSING FEMALE ASS'Y     CCN000048000000048000FN00000000020220501000048000NNMD0420220504122823    1N0N  00000240000000686400000901432M1    VNYEV   005500360039
BI00B32M1    TCV2054        202205127289-3342-90             HOUSING FEMALE ASS'Y     CCN000024000000024000FN00000000020220501000024000NNMD0420220504122823    1N0N  00000240000000686400000901432M1    VNYEV   005500360039
BI00B32N1    NST2118ECU     202206097158-3167-80             WIRE SEAL                CCN000780000000780000FN00000000020220401000780000NNED0320220504122823    1C0C  00002000000000048000000109032N1    TAYIPL  002700430014
BI00B32N1    NST2118ICU     202206167158-3167-80             WIRE SEAL                CCN000800000000800000FN00000000020220501000800000NNED0320220504122823    1C0C  00002000000000048000000109032N1    TAYIPL  002700430014
BI00B32N1    NST2118ICU     202206237158-3167-80             WIRE SEAL                CCN000800000000800000FN00000000020220501000800000NNED0320220504122823    1C0C  00002000000000048000000109032N1    TAYIPL  002700430014
BI00B32N1    NST2120ECU     202205267114-1301                TERMINAL                 CCN000019500000019500FN00000000020220701000019500NNE   20220504122823    4P0P  00001950000000614300000907932N1    TAYIPL  006400630015
BI00B32N1    NST2120ECU     202205267114-4020                TERMINAL                 CCN000357000000357000FN00000000020220701000357000NNE   20220504122823    4P0P  00002100000000875700001169332N1    TAYIPL  006400630015
BI00B32N1    NST2120ECU     202205267114-6041                TERMINAL                 CCN000012800000014400FN00000000020220701000014400NNE   20220504122823    4P0P  00000360000000580700000824232N1    TAYIPL  006400630015
BI00B32N1    NST2120ECU     202205267116-1473                TERMINAL                 CCN000040500000040500FN00000000020220701000040500NNE   20220504122823    4P0P  00001350000000523800000809032N1    TAYIPL  006400630015
BI00B32N1    NST2120ECU     202205267116-4020                TERMINAL                 CCN000027000000027000FN00000000020220701000027000NNE   20220504122823    4P0P  00001350000000513000000798232N1    TAYIPL  006400630015
BI00B32N1    NST2120ECU     202205267116-4025                TERMINAL                 CCN000208000000208000FN00000000020220701000208000NNE   20220504122823    4P0P  00001600000000644800000975132N1    TAYIPL  006400630017
BI00B32N1    NST2120ECU     202205267158-3023                RUBBER STOPPER           CCN000010000000010000FN00000000020220701000010000NNE   20220504122823    1C0C  00000500000000443500000502032N1    TAYIPL  002700430014
BI00B32N1    NST2120ECU     202205267114-4416-02             TERMINAL MALE            CCN000952000000972000FN00000000020220701000972000NNE   20220504122823    4P0P  00002700000000442800000731032N1    TAYIPL  006400630015
BI00B32N1    NST2120ECU     202205267114-4729-02             TERMINAL                 CCN000048000000060000FN00000000020220701000060000NNE   20220504122823    4P0P  00003000000000516000000810232N1    TAYIPL  006400630015
BI00B32N1    NST2120ECU     202205267116-1685-02             TERMINAL                 CCN000216000000216000FN00000000020220701000216000NNE   20220504122823    4P0P  00002400000000897600001065232N1    TAYIPL  005100280028
BI00B32N1    NST2120ECU     202205267116-2892-02             TERMINAL                 CCN000108000000108000FN00000000020220701000108000NNE   20220504122823    4P0P  00001200000000818400000981832N1    TAYIPL  005100280028
BI00B32N1    NST2120ECU     202205267116-4111-02             TERMINAL                 CCN000015000000015000FN00000000020220701000015000NNE   20220504122823    4P0P  00000750000000529500000817732N1    TAYIPL  006400630015
BI00B32N1    NST2120ECU     202205267116-4122-02             TERMINAL                 CCN000016500000018000FN00000000020220701000018000NNE   20220504122823    4P0P  00000450000000656600000950232N1    TAYIPL  006400630015
BI00B32N1    NST2120ECU     202205267157-6287-70             SPACER                   CCN000036000000070000FN00000000020220701000070000NNE   20220504122823    1F0F  00007000000000700000000963032N1    TAYIPL  005500360039
BI00B32N1    NST2120ECU     202205267158-3070-80             RUBBER STOPPER           CCN000932000000960000FN00000000020220701000960000NNE   20220504122823    1C0C  00004000000000276000000333332N1    TAYIPL  002700430014
BI00B32N1    NST2120ECU     202205267158-3166-60             WIRE SEAL                CCN001640000001640000FN00000000020220701001640000NNE   20220504122823    1C0C  00004000000000104000000152432N1    TAYIPL  002700430014
BI00B32N1    NST2120ECU     202205267158-3167-80             WIRE SEAL                CCN000020000000020000FN00000000020220701000020000NNE   20220504122823    1C0C  00002000000000048000000109032N1    TAYIPL  002700430014
BI00B32N1    NST2120ECU     202205267158-3168-80             SEALED                   CCN000140000000140000FN00000000020220701000140000NNE   20220504122823    1C0C  00002000000000044000000092132N1    TAYIPL  004300260014
BI00B32N1    NST2120ECU     202205267172-5540-80             SEALED WIRE SEAL         CCN000080000000080000FN00000000020220701000080000NNE   20220504122823    1C0C  00002000000000186000000234432N1    TAYIPL  004300270014
BI00B32N1    NST2120ECU     202205267196-0805-02             TERMINAL FEMALE          CCN000067500000067500FN00000000020220701000067500NNE   20220504122823    4P0P  00002250000000558000000843232N1    TAYIPL  006400630015
BI00B32N1    NST2120ECU     202205267282-7028-30             CONNECTOR                CCN000009000000010000FN00000000020220701000010000NNE   20220504122823    1N0N  00000200000001124000001212532N1    TAYIPL  005600390040
BI00B32N1    NST2120ECU     202205267289-4212-80             SEALED HOUSING ASS'Y     CCN000004000000004000FN00000000020220701000004000NNE   20220504122823    4N0N  00000200000000848600000978632N1    TAYIPL  005400370024
BI00B32N1    #NST2120ECU    202205267157-7812                SEAL RUBBER              CCN000040000000040000FN00000000020220701000040000NNE   20220504122823    2C0C  00001000000000137000000202032N1    TAYIPL  002700430014
BI00B32N1    #NST2120ECU    202205267157-3950-80             SEAL RUBBER              CCN000440000000440000FN00000000020220701000440000NNE   20220504122823    2C0C  00004000000000154000000440332N1    TAYIPL  002700430014
BI00B32N1    #NST2120ECU    202205267157-3952-80             RUBBER STOPPER           CCN000062000000070000FN00000000020220701000070000NNE   20220504122823    2C0C  00001000000000117000000175032N1    TAYIPL  002700430014
BI00B32N1    #NST2120ECU    202205267158-3003-90             RUBBER STOPPER           CCN000060000000060000FN00000000020220701000060000NNE   20220504122823    2C0C  00002000000000250000000306032N1    TAYIPL  002700430014
BI00B32N1    #NST2120ECU    202205267158-3008-80             RUBBER STOPPER           CCN000140000000140000FN00000000020220701000140000NNE   20220504122823    2C0C  00002000000000288000000343032N1    TAYIPL  004300270014
BI00B32N1    #NST2120ECU    202205267158-3121-80             WIRE SEAL                CCN000420000000420000FN00000000020220701000420000NNE   20220504122823    2C0C  00002000000000118000000187332N1    TAYIPL  002700430014
BI00B32N1    #NST2120ECU    202205267289-2912-30             HOUSING FEMALE ASS'Y     CCN000020000000020000FN00000000020220701000020000NNE   20220504122823    2N0N  00000200000000804000000929032N1    TAYIPL  005400370024
BI00B32N2    2152103926     202205057283-5846                HOUSING                  CCN000003000000003000FN00000000020220601000003000NNM00020220504134714    1N0N  00000150000000885000001102032N2    YWYIPLTC005600390040
BI00B32N2    2152103926     202205057286-3970                CONNECTOR HOUSING        CCN000000110000000110FN00000000020220601000000110NNM00020220504134714    1N0N  00000011000000977300001164032N2    YWYIPLTC005500360039
BI00B32N2    2152103926     202205057370-0309                J/B ASS'Y                CCN000000768000000768FN00000000020220601000000768NNM00020220504134714    1J0J  00000001600000870400001260032N2    YWYIPLTC005500360039
BI00B32N2    2152103926     202205057370-0310                J/B ASS'Y                CCN000000700000000700FN00000000020220601000000700NNM00020220504134714    1J0J  00000001000000559000000809032N2    YWYIPLTC005500360039
BI00B32N2    2152103926     202205057140-1977-30             UPPER COVER              CCN000000750000000750FN00000000020220601000000750NNM00020220504134714    1F0F  00000001000000099500000249532N2    YWYIPLTC005600390040
BI00B32N2    2152103926     202205057158-3006-90             RUBBER STOPPER           CCN000020000000020000FN00000000020220601000020000NNM00020220504134714    1C0C  00002000000000330600000386032N2    YWYIPLTC002700430014
BI00B32N3    NBT206 A4      202205197470-5940                J/B COMPLETE ASS'Y       CCN000002880000001400FN00000000020220601000001400NNMD0220220504122823    4J0J  00000001000000494000000661032N3    ABYIPL-B005400370024
BI00B32N3    NBT206 A4      202205267470-5940                J/B COMPLETE ASS'Y       CCN000001480000001480FN00000000020220601000001480NNMD0220220504122823    4J0J  00000001000000494000000661032N3    ABYIPL-B005400370024
BI00B32Q8    EU2203BTMW     202205057288-6547                CONNECTOR MALE ASS'Y     CCN000001500000001500FN00000000020220301000001500NNE00020220504134044    4N0N  00000075000001205300001340332Q8    EMEMI   005400370024
BI00B32Q8    EU22044TMW     202205057289-3342                HOUSING FEMALE ASS'Y     CCN000024000000024000FN00000000020220401000024000NNM00020220504154934    1N0N  00000240000000686400000901432Q8    EMEMI   005500360039
BI00B32Q8    EU2203FTMW     202204287289-3342                HOUSING FEMALE ASS'Y     CCN000098400000050400FY00005040020220301000000000NNE00020220504154959    1N0N  00000240000000686400000901432Q8    EMEMI   005500360039
BI00B32Q8    EU2203GTMW     202205057289-3342                HOUSING FEMALE ASS'Y     CCN000081600000081600FN00000000020220301000081600NNED0420220504134111    1N0N  00000240000000686400000901432Q8    EMEMI   005500360039
BI00B32Q8    EU22054 MW     202205057158-3022-80             RUBBER STOPPER           CCN000005000000005000FN00000000020220501000005000NNMD0620220504134130    1C0C  00000500000000467500000524032Q8    EMEMI   002700430014
BI00B32Q8    EU2204ETMW     202205057288-3335-30             HOUSING MALE             CCN000001500000001500FN00000000020220401000001500NNE00020220504134156    4N0N  00000150000000867000001012032Q8    EMEMI   005400370024
BI00B32Q8    EU2204ETMW     202205057288-3338-30             HOUSING MALE             CCN000001500000001500FN00000000020220401000001500NNE00020220504134156    4N0N  00000150000000866100001012032Q8    EMEMI   005400370024
BI00B32Q8    EU2203FTMW     202205057289-3342                HOUSING FEMALE ASS'Y     CCN000048000000048000FN00000000020220301000048000NNE00020220504154959    1N0N  00000240000000686400000901432Q8    EMEMI   005500360039
BI00B32W4    4500185279     202205057158-3168-80             SEALED                   CCN000520000000520000FN00000000020220401000520000NNE00020220504133307W4561C0C  00002000000000044000000092132W456  HJYHK   004300260014
BI00B32W4    4500188075     202205057158-3169-40             SEALING PLUG             CCN000400000000400000FN00000000020220401000400000NNE00020220504133342W4561C0C  00004000000000156000000204132W456  HJYHK   004300260014
BI00B32W4    4500189583     202205207289-9553-50             SEALED ASSY FEMALE       CCN000070560000070560FN00000000020220401000070560NNE00020220504132704W4D44N0N  00000294000001108100001520632W4D4  HJYHK-J 005500360039
BI00B32W4    4500190781     202205207196-0805-02             TERMINAL FEMALE          CCN000022500000022500FN00000000020220501000022500NNE00020220504132748W4D44P0P  00002250000000558000000843232W4D4  HJYHK-J 006400630015
BI00B32W4    4500190781     202205207289-6868-30             SEALED ASSY FEMALE       CCN000012600000012600FN00000000020220501000012600NNE00020220504132748W4D44N0N  00000252000000839200001119232W4D4  HJYHK-J 005500360039
BI00A32W4    #4500191114    202205057283-8226-30             CONNECTOR                CCN000006000000006000FN00000000020220501000006000NNE00020220504133404W4422N0N  00000200000000820000001008032W442  HJYHK   005400370024
BI00B32W4    4500192326     202205207196-0549-08             TERMINAL ALUMINIUM       CCN000038000000038000FN00000000020220401000038000NNE00020220504132805W4D44P0P  00003800000000600400000929132W4D4  HJYHK-J 006400630017
BI00B32W4    4500192477     202205207196-1461-02             TERMINAL FEMALE          CCN000024000000024000FN00000000020220401000024000NNE00020220504132818W4D44P0P  00002400000000386400000671632W4D4  HJYHK-J 006400630015
BI00A32W4    4500193027     202206277158-3167-80             WIRE SEAL                CCN000020000000020000FN00000000020220601000020000NNE   20220504122823W4O21C0C  00002000000000048000000109032W4O2  HJYHK-J 002700430014
BI00A32W4    4500193027     202206277158-3169-40             SEALING PLUG             CCN000040000000040000FN00000000020220601000040000NNE   20220504122823W4O21C0C  00004000000000156000000204132W4O2  HJYHK-J 004300260014
BI00A32W4    4500193028     202207047283-7028-30             CONNECTOR                CCN000006000000006000FN00000000020220701000006000NNE   20220504122823W4O24N0N  00000300000001452000001681332W4O2  HJYHK-J 005600390040
BI00A32W4    4500193028     202207047158-3167-80             WIRE SEAL                CCN000020000000020000FN00000000020220701000020000NNE   20220504122823W4O21C0C  00002000000000048000000109032W4O2  HJYHK-J 002700430014
BI00A32W4    4500193033     202206207116-4102-02             TERMINAL                 CCN000012000000012000FN00000000020220601000012000NNE   20220504122823W4G34P0P  00001200000000553200000841432W4G3  HJYHK-J 006400630015
BI00A32W4    4500193036     202206277283-7028-30             CONNECTOR                CCN000003000000003000FN00000000020220601000003000NNE   20220504122823W4M54N0N  00000300000001452000001681332W4M5  HJYHK-J 005600390040
BI00A32W4    4500193037     202207047283-7028-30             CONNECTOR                CCN000003000000003000FN00000000020220701000003000NNE   20220504122823W4M54N0N  00000300000001452000001681332W4M5  HJYHK-J 005600390040
BI00A32W4    4500193037     202207047158-3166-60             WIRE SEAL                CCN000040000000040000FN00000000020220701000040000NNE   20220504122823W4M51C0C  00004000000000104000000152432W4M5  HJYHK-J 002700430014
BI00A32W4    4500193044     202206277158-3167-80             WIRE SEAL                CCN000080000000080000FN00000000020220601000080000NNE   20220504122823W4G91C0C  00002000000000048000000109032W4G9  HJYHK-J 002700430014
BI00A32W4    4500193044     202206277158-3168-80             SEALED                   CCN000040000000040000FN00000000020220601000040000NNE   20220504122823W4G91C0C  00002000000000044000000092132W4G9  HJYHK-J 004300260014
BI00A32W4    4500193060     202205257116-4231-02             TERMINAL                 CCN000026000000026000FN00000000020220501000026000NNE   20220504122823W4334P0P  00002600000000683800001012532W433  HJYHK   006400630017
BI00A32W4    4500193060     202205257116-4112-02             TERMINAL                 CCN000006000000006000FN00000000020220501000006000NNE   20220504122823W4334P0P  00000600000000450000000738232W433  HJYHK   006400630015
BI00A32W4    4500193060     202205257114-4100-02             TERMINAL                 CCN000018000000018000FN00000000020220501000018000NNE   20220504122823W4334P0P  00001800000000748800001077432W433  HJYHK   006400630017
BI00A32W4    4500193069     202206097116-4112-02             TERMINAL                 CCN000006000000006000FN00000000020220601000006000NNE   20220504122823W4334P0P  00000600000000450000000738232W433  HJYHK   006400630015
BI00B32W4    4500193075     202206237114-4101-02             TERMINAL                 CCN000015000000015000FN00000000020220601000015000NNE   20220504122823W4664P0P  00001500000000675000001003632W466  HJYHK   006400630017
BI00B32W4    4500193082     202207077114-4101-02             TERMINAL                 CCN000045000000045000FN00000000020220701000045000NNE   20220504122823W4664P0P  00001500000000675000001003632W466  HJYHK   006400630017
BI00B32W4    4500193082     202207077116-4104-02             TERMINAL                 CCN000024000000024000FN00000000020220701000024000NNE   20220504122823W4664P0P  00001200000000580800000972432W466  HJYHK   006400630015
BI00B32W4    #4500193082    202207077283-4190-30             CONNECTOR                CCN000002160000002160FN00000000020220701000002160NNE   20220504122823W4662N0N  00000024000000846000001115532W466  HJYHK   005600390040
BI00A32W4    4500193087     202206277158-3167-80             WIRE SEAL                CCN000040000000040000FN00000000020220601000040000NNE   20220504122823W4P61C0C  00002000000000048000000109032W4P6  HJYHK-J 002700430014
BI00A32W4    4500193087     202206277158-3168-80             SEALED                   CCN000040000000040000FN00000000020220601000040000NNE   20220504122823W4P61C0C  00002000000000044000000092132W4P6  HJYHK-J 004300260014
BI00A32W4    4500193089     202206277116-4100-02             TERMINAL                 CCN000015000000015000FN00000000020220601000015000NNE   20220504122823W4194P0P  00001500000000696000000990232W419  HJYHK   006400630015
BI00A32W4    4500193089     202206277116-4112-02             TERMINAL                 CCN000006000000006000FN00000000020220601000006000NNE   20220504122823W4194P0P  00000600000000450000000738232W419  HJYHK   006400630015
BI00A32W4    4500193089     202206277116-4104-02             TERMINAL                 CCN000012000000012000FN00000000020220601000012000NNE   20220504122823W4194P0P  00001200000000580800000972432W419  HJYHK   006400630015
BI00A32W4    4500193089     202206277116-4103-02             TERMINAL                 CCN000012000000012000FN00000000020220601000012000NNE   20220504122823W4194P0P  00001200000000571200000859432W419  HJYHK   006400630015
BI00A32W4    4500193104     202207047116-4100-02             TERMINAL                 CCN000015000000015000FN00000000020220701000015000NNE   20220504122823W4194P0P  00001500000000696000000990232W419  HJYHK   006400630015
BI00A32W4    4500193104     202207047116-4111-02             TERMINAL                 CCN000007500000007500FN00000000020220701000007500NNE   20220504122823W4194P0P  00000750000000529500000817732W419  HJYHK   006400630015
BI00A32W4    4500193104     202207047116-4112-02             TERMINAL                 CCN000012000000012000FN00000000020220701000012000NNE   20220504122823W4194P0P  00000600000000450000000738232W419  HJYHK   006400630015
BI00A32W4    4500193104     202207047116-4101-02             TERMINAL                 CCN000012000000012000FN00000000020220701000012000NNE   20220504122823W4194P0P  00001200000000582000000876232W419  HJYHK   006400630015
BI00A32W4    4500193104     202207047283-6568-40             CONNECTOR                CCN000002000000002000FN00000000020220701000002000NNE   20220504122823W4194N0N  00000200000001090000001263032W419  HJYHK   005500360039
BI00A32W4    @4500193104    202207047183-8049                CONNECTOR HOUSING        CCN000008000000008000FN00000000020220701000008000NNE   20220504122823W4193F0F  00000400000000583600000740032W419  HJYHK   005400370024
BI00A32W4    4500193106     202209197283-6568-40             CONNECTOR                CCN000002000000002000FN00000000020220901000002000NNE   20220504122823W4194N0N  00000200000001090000001263032W419  HJYHK   005500360039
BI00B32W4    4500193110     202206307126-8853-02             TERMINAL                 CCN000007500000007500FN00000000020220601000007500NNE   20220504122823W4164P0P  00000750000000562500000847732W416  HJYHK   006400630015
BI00B32W4    4500193110     202206307126-8854-02             TERMINAL                 CCN000007500000007500FN00000000020220601000007500NNE   20220504122823W4164P0P  00000750000000604500000889732W416  HJYHK   006400630015
BI00B32W4    4500193111     202207077116-4101-02             TERMINAL                 CCN000036000000036000FN00000000020220701000036000NNE   20220504122823W4164P0P  00001200000000582000000876232W416  HJYHK   006400630015
BI00B32W4    4500193111     202207077116-4104-02             TERMINAL                 CCN000024000000024000FN00000000020220701000024000NNE   20220504122823W4164P0P  00001200000000580800000972432W416  HJYHK   006400630015
BI00B32W4    4500193111     202207077283-1030                CONNECTOR                CCN000006000000006000FN00000000020220701000006000NNE   20220504122823W4164N0N  00000600000000988000001172032W416  HJYHK   005500360039
BI00B32W4    4500193111     202207077288-6547                CONNECTOR MALE ASS'Y     CCN000013500000013500FN00000000020220701000013500NNE   20220504122823W4164N0N  00000075000001205300001340332W416  HJYHK   005400370024
BI00B32W4    4500193111     202207077289-6547                HOUSING FEMALE ASS'Y     CCN000014400000014400FN00000000020220701000014400NNE   20220504122823W4161N0N  00000240000001152000001362032W416  HJYHK   005500360039
BI00B32W4    4500193111     202207077283-1156                CONNECTOR                CCN000004000000004000FN00000000020220701000004000NNE   20220504122823W4164N0N  00000080000000877600001078032W416  HJYHK   005600390040
BI00B32W4    4500193111     202207077114-4032                TERMINAL                 CCN000007500000007500FN00000000020220701000007500NNE   20220504122823W4164P0P  00000750000000735000001063632W416  HJYHK   006400630017
BI00B32W4    #4500193111    202207077283-4190-30             CONNECTOR                CCN000001200000001200FN00000000020220701000001200NNE   20220504122823W4162N0N  00000024000000846000001115532W416  HJYHK   005600390040
BI00B32W4    #4500193111    202207077187-1616                HOUSING FEMALE           CCN000004000000004000FN00000000020220701000004000NNE   20220504122823W4162F0F  00000400000001152000001262032W416  HJYHK   005500360039
BI00B32W4    @4500193111    202207077287-6634                HOUSING FEMALE ASS'Y     CCN000002400000002400FN00000000020220701000002400NNE   20220504122823W4163N0N  00000240000001088400001337032W416  HJYHK   005500360039
BI00B32W4    4500193112     202206307116-4100-02             TERMINAL                 CCN000030000000030000FN00000000020220601000030000NNE   20220504122823W4464P0P  00001500000000696000000990232W446  HJYHK   006400630015
BI00B32W4    4500193112     202206307114-4112-02             TERMINAL                 CCN000045000000045000FN00000000020220601000045000NNE   20220504122823W4464P0P  00000900000000598500000927132W446  HJYHK   006400630017
BI00B32W4    4500193112     202206307116-4102-02             TERMINAL                 CCN000024000000024000FN00000000020220601000024000NNE   20220504122823W4464P0P  00001200000000553200000841432W446  HJYHK   006400630015
BI00B32W4    4500193112     202206307114-4100-02             TERMINAL                 CCN000054000000054000FN00000000020220601000054000NNE   20220504122823W4464P0P  00001800000000748800001077432W446  HJYHK   006400630017
BI00B32W4    4500193112     202206307158-3166-60             WIRE SEAL                CCN000040000000040000FN00000000020220601000040000NNE   20220504122823W4461C0C  00004000000000104000000152432W446  HJYHK   002700430014
BI00B32W4    4500193112     202206307116-4101-02             TERMINAL                 CCN000036000000036000FN00000000020220601000036000NNE   20220504122823W4464P0P  00001200000000582000000876232W446  HJYHK   006400630015
BI00B32W4    4500193112     202206307158-3169-40             SEALING PLUG             CCN000040000000040000FN00000000020220601000040000NNE   20220504122823W4461C0C  00004000000000156000000204132W446  HJYHK   004300260014
BI00B32W4    #4500193112    202206307283-8123-40             CONNECTOR HOUSING        CCN000008000000008000FN00000000020220601000008000NNE   20220504122823W4462N0N  00000400000000380000000530032W446  HJYHK   005600390023
BI00B32W4    4500193115     202207077116-4100-02             TERMINAL                 CCN000030000000030000FN00000000020220701000030000NNE   20220504122823W4464P0P  00001500000000696000000990232W446  HJYHK   006400630015
BI00B32W4    4500193115     202207077114-4112-02             TERMINAL                 CCN000036000000036000FN00000000020220701000036000NNE   20220504122823W4464P0P  00000900000000598500000927132W446  HJYHK   006400630017
BI00B32W4    4500193115     202207077116-4111-02             TERMINAL                 CCN000007500000007500FN00000000020220701000007500NNE   20220504122823W4464P0P  00000750000000529500000817732W446  HJYHK   006400630015
BI00B32W4    4500193115     202207077116-4112-02             TERMINAL                 CCN000024000000024000FN00000000020220701000024000NNE   20220504122823W4464P0P  00000600000000450000000738232W446  HJYHK   006400630015
BI00B32W4    4500193115     202207077116-4102-02             TERMINAL                 CCN000084000000084000FN00000000020220701000084000NNE   20220504122823W4464P0P  00001200000000553200000841432W446  HJYHK   006400630015
BI00B32W4    4500193115     202207077114-4100-02             TERMINAL                 CCN000036000000036000FN00000000020220701000036000NNE   20220504122823W4464P0P  00001800000000748800001077432W446  HJYHK   006400630017
BI00B32W4    4500193115     202207077158-3167-80             WIRE SEAL                CCN000020000000020000FN00000000020220701000020000NNE   20220504122823W4461C0C  00002000000000048000000109032W446  HJYHK   002700430014
BI00B32W4    4500193115     202207077283-5548-30             CONNECTOR                CCN000001500000001500FN00000000020220701000001500NNE   20220504122823W4464N0N  00000150000001109000001302032W446  HJYHK   005600390040
BI00B32W4    4500193115     202207077116-4101-02             TERMINAL                 CCN000060000000060000FN00000000020220701000060000NNE   20220504122823W4464P0P  00001200000000582000000876232W446  HJYHK   006400630015
BI00B32W4    4500193115     202207077114-4101-02             TERMINAL                 CCN000015000000015000FN00000000020220701000015000NNE   20220504122823W4464P0P  00001500000000675000001003632W446  HJYHK   006400630017
BI00B32W4    4500193115     202207077114-4110-02             TERMINAL                 CCN000015000000015000FN00000000020220701000015000NNE   20220504122823W4464P0P  00001500000000901500001230132W446  HJYHK   006400630017
BI00B32W4    4500193115     202207077116-4103-02             TERMINAL                 CCN000024000000024000FN00000000020220701000024000NNE   20220504122823W4464P0P  00001200000000571200000859432W446  HJYHK   006400630015
BI00B32W4    4500193115     202207077114-1475                TERMINAL                 CCN000013500000013500FN00000000020220701000013500NNE   20220504122823W4464P0P  00001350000000480600000774232W446  HJYHK   006400630015
BI00B32W4    #4500193115    202207077282-3243-40             CONNECTOR                CCN000001600000001600FN00000000020220701000001600NNE   20220504122823W4462N0N  00000080000001006000001282332W446  HJYHK   005600390040
BI00B32W4    #4500193115    202207077283-8123-40             CONNECTOR HOUSING        CCN000004000000004000FN00000000020220701000004000NNE   20220504122823W4462N0N  00000400000000380000000530032W446  HJYHK   005600390023
BI00B32W4    #4500193115    202207077047-5344                RETAINER                 CCN000010000000010000FN00000000020220701000010000NNE   20220504122823W4462F0F  00001000000000870000001016032W446  HJYHK   005600390023
BI00B32W4    4500193123     202210207283-5574-10             CONNECTOR                CCN000000800000000800FN00000000020221001000000800NNE   20220504122823W4464N0N  00000080000001235000001435232W446  HJYHK   005500360039
BI00B32W4    4500193129     202207077114-4100-02             TERMINAL                 CCN000018000000018000FN00000000020220701000018000NNE   20220504122823W4654P0P  00001800000000748800001077432W465  HJYHK   006400630017
BI00B32W4    4500193129     202207077114-4111-02             TERMINAL                 CCN000024000000024000FN00000000020220701000024000NNE   20220504122823W4654P0P  00001200000000758400001087032W465  HJYHK   006400630017
BI00B32W4    4500193141     202206027116-1685-02             TERMINAL                 CCN000240000000240000FN00000000020220601000240000NNE   20220504122823W4D44P0P  00002400000000897600001065232W4D4  HJYHK-J 005100280028
BI00B32W4    4500193141     202206027388-2978-30             HOUSING MALE ASS'Y       CCN000001920000001920FN00000000020220601000001920NNE   20220504122823W4D41N0N  00000048000000742000001122032W4D4  HJYHK-J 005500360039
BI00B32W4    4500193141     202206027388-0313-30             CONNECTOR ASS'Y          CCN000002400000002400FN00000000020220601000002400NNE   20220504122823W4D44N0N  00000120000000995000001125032W4D4  HJYHK-J 005400370024
BI00B32W4    4500193141     202206027327-6581-3W             BATTERY FUSE             CCN000000072000000072FN00000000020220601000000072NNE   20220504122823W4D44N0N  00000007200001230000001422532W4D4  HJYHK-J 005500360039
BI00B32W4    4500193141     202206027287-9323                UNSEALED HOUSING SUB     CCN000002400000002400FN00000000020220601000002400NNE   20220504122823W4D41N0N  00000240000000537600000690032W4D4  HJYHK-J 005600390023
BI00B32W4    4500193141     202206027289-3342-90             HOUSING FEMALE ASS'Y     CCN000004800000004800FN00000000020220601000004800NNE   20220504122823W4D41N0N  00000240000000686400000901432W4D4  HJYHK-J 005500360039
BI00B32W4    4500193141     202206027286-4097                CONNECTOR MALE ASS'Y     CCN000006400000006400FN00000000020220601000006400NNE   20220504122823W4D41N0N  00000160000000768000000978032W4D4  HJYHK-J 005500360039
BI00B32W4    4500193141     202206027289-6868-30             SEALED ASSY FEMALE       CCN000012600000012600FN00000000020220601000012600NNE   20220504122823W4D44N0N  00000252000000839200001119232W4D4  HJYHK-J 005500360039
BI00B32W4    4500193141     202206027298-4094-10             HOUSING FEMALE ASS'Y     CCN000027040000027040FN00000000020220601000027040NNE   20220504122823W4D44N0N  00000338000001097400001358732W4D4  HJYHK-J 005400370024
