BI00B32E2    @WY2081        20220511181B09116K3              CAVSAS 0.3X2 GY/P        CCN000002100000002100FN00000000020220701000002100NNM   20220416195143    1W    00000035000002254000000000032E2    SPYSE   000000000000KZ424001
BI00B32E2    @WY2083        20220518181B09116K3              CAVSAS 0.3X2 GY/P        CCN000001400000001400FN00000000020220701000001400NNM   20220416195143    1W    00000035000002254000000000032E2    SPYSE   000000000000KZ125001
BI00B32E2    @WY2084        20220525181B09116K3              CAVSAS 0.3X2 GY/P        CCN000001400000001400FN00000000020220701000001400NNM   20220416195143    1W    00000035000002254000000000032E2    SPYSE   000000000000KZ225001
BI00B32E2    @WY2081        20220511181F21009ZZ              AVSSHCS-S 0.5FX2 B       CCN000000300000000300FN00000000020220701000000300NNM   20220416195143    1W    00000030000002531400000000032E2    SPYSE   000000000000KZ424002
BI00B32G7    JW2206AMMW     202205191801W006930              IVSSH 0.35F B            CCN000002500000002500FN00000000020220601000002500NNE   20220416195748    1W    00000250000000452000000000032G7    JIJAI   000000000000JC125018
BI00B32G7    JW2206AMMW     202205191801W006952              IVSSH 0.35F P            CCN000002500000002500FN00000000020220601000002500NNE   20220416195748    1W    00000250000000452000000000032G7    JIJAI   000000000000JC125021
BI00B32G7    JW2206AMMW     202205191801W006960              IVSSH 0.35F G            CCN000002500000002500FN00000000020220601000002500NNE   20220416195748    1W    00000250000000452000000000032G7    JIJAI   000000000000JC125019
BI00B32G7    JW2206AMMW     202205191801W006990              IVSSH 0.35F L            CCN000005000000005000FN00000000020220601000005000NNE   20220416195748    1W    00000250000000452000000000032G7    JIJAI   000000000000JC125020
BI00B32G7    JW2206AMMW     202205191801W006992              IVSSH 0.35F V            CCN000002500000002500FN00000000020220601000002500NNE   20220416195748    1W    00000250000000452000000000032G7    JIJAI   000000000000JC125022
BI00B32G7    @JW2206B MW    20220519181E48060ZZ              CAVSAS-S 0.5X2 GY/V      CCN000000300000000300FN00000000020220601000000300NNE   20220416195745    1W    00000030000002561000000000032G7    JIJAI   000000000000JB125001
BI00B32G7    JW2206BMMW     202205191801W004050              IVSSH 0.75F R            CCN000001300000001300FN00000000020220601000001300NNE   20220416195749    1W    00000130000000882000000000032G7    JIJAI   000000000000JD125006
BI00B32G7    JW2206BMMW     202205191801W006940              IVSSH 0.35F W            CCN000010000000010000FN00000000020220601000010000NNE   20220416195749    1W    00000250000000452000000000032G7    JIJAI   000000000000JD125008
BI00B32G7    JW2206BMMW     202205191801W006952              IVSSH 0.35F P            CCN000005000000005000FN00000000020220601000005000NNE   20220416195749    1W    00000250000000452000000000032G7    JIJAI   000000000000JD125007
BI00B32H8    2206A MW       2022050618007704060              AVSS 0.75F G             CCN000002000000002000FN00000000020220601000002000NNE   20220416201530    1W    00000100000000943000000000032H8    TYTYC   000000000000LD324001
BI00B32H8    2206AKMW       20220506180D0204093              AVSSH 0.75F L/B          CCN000001000000001000FN00000000020220601000001000NNE   20220416201531    1W    00000100000000933600000000032H8    TYTYC   000000000000LE324001
BI00B32H8    2206AKMW       20220506180D0204130              AVSSH 1.25F B            CCN000000800000000800FN00000000020220601000000800NNE   20220416201531    1W    00000080000001458000000000032H8    TYTYC   000000000000LE324002
BI00B32J1    @393708        20220509181E48012ZZ              CAVSAS-S 0.3X1 GY        CCN000001000000001000FN00000000020220501000001000NNM   20220416201741    1W    00000050000001529500000000032J1    UKYEL-BL000000000000KG424001
BI00B32J1    @393708        20220509181E48015ZZ              CAVSAS-S 0.5X1 GY        CCN000000400000000400FN00000000020220501000000400NNM   20220416201741    1W    00000040000001900600000000032J1    UKYEL-BL000000000000KG424002
BI00B32J1    @393708        20220509181E48018ZZ              CAVSAS-S 0.5X2 GY/SB     CCN000000300000000300FN00000000020220501000000300NNM   20220416201741    1W    00000030000002561000000000032J1    UKYEL-BL000000000000KG424004
BI00B32J1    @393708        20220509181E48027ZZ              CAVSAS-S 0.5X2 GY/P      CCN000000300000000300FN00000000020220501000000300NNM   20220416201741    1W    00000030000002561000000000032J1    UKYEL-BL000000000000KG424003
BI00B32J1    @393708        20220509181E48029ZZ              CAVSAS-S 0.5X4 GY        CCN000000200000000200FN00000000020220501000000200NNM   20220416201741    1W    00000020000003995000000000032J1    UKYEL-BL000000000000KG424006
BI00B32J1    @393708        20220509181E48031ZZ              CAVSAS-S 0.3X2 GY        CCN000001050000001050FN00000000020220501000001050NNM   20220416201741    1W    00000035000002008700000000032J1    UKYEL-BL000000000000KG424008
BI00B32J1    @393708        20220509181E48033ZZ              CAVSAS-S 0.5X3 GY/B      CCN000000400000000400FN00000000020220501000000400NNM   20220416201741    1W    00000020000003795300000000032J1    UKYEL-BL000000000000KG424005
BI00B32J1    @393708        20220509181E48065ZZ              CAVSAS-S 0.5X4 GY/W      CCN000000200000000200FN00000000020220501000000200NNM   20220416201741    1W    00000020000003995000000000032J1    UKYEL-BL000000000000KG424007
BI00B32Q8    EW2206D MW     2022051118009604440              AVS 5 W                  CCN000013400000013400FN00000000020220601000013400NNE   20220416200745    1W    00000020000005981000000000032Q8    EMEMI   000000000000MV424003
BI00B32Q8    EW2206D MW     2022051118007703750              AVSS 0.3F R              CCN000028000000028000FN00000000020220601000028000NNE   20220416200745    1W    00000200000000496000000000032Q8    EMEMI   000000000000MV424002
BI00B32Q8    EW2206D MW     202205111801R704192              CIVUS 1.25 V             CCN000016000000016000FN00000000020220601000016000NNE   20220416200745    1W    00000100000001228000000000032Q8    EMEMI   000000000000MV424004
BI00B32Q8    @EW2206D MW    20220511181E48037ZZ              CAVSAS-S 0.3X4 GY        CCN000000250000000250FN00000000020220601000000250NNE   20220416200744    1W    00000025000003262000000000032Q8    EMEMI   000000000000MV424001
BI00B32Q8    EW2206E MW     2022051118009604440              AVS 5 W                  CCN000001400000001400FN00000000020220601000001400NNE   20220416200747    1W    00000020000005981000000000032Q8    EMEMI   000000000000MY424015
BI00B32Q8    EW2206E MW     2022051118007703750              AVSS 0.3F R              CCN000012000000012000FN00000000020220601000012000NNE   20220416200747    1W    00000200000000496000000000032Q8    EMEMI   000000000000MY424014
BI00B32W4    4500192448     20220503180D0203930              AVSSH 0.5F B             CCN000006000000006000FN00000000020220401000006000NNE   20220416202113W41 1W    00000150000000689000000000032W41   HJYHK-J 000000000000OM324001
BI00B32W4    4500192448     20220503180D0203940              AVSSH 0.5F W             CCN000006000000006000FN00000000020220401000006000NNE   20220416202113W41 1W    00000150000000689000000000032W41   HJYHK-J 000000000000OM324003
BI00B32W4    4500192448     20220503180D0203960              AVSSH 0.5F G             CCN000006000000006000FN00000000020220401000006000NNE   20220416202113W41 1W    00000150000000689000000000032W41   HJYHK-J 000000000000OM324002
BI00B32W4    4500192448     20220503180D0203970              AVSSH 0.5F Y             CCN000006000000006000FN00000000020220401000006000NNE   20220416202113W41 1W    00000150000000689000000000032W41   HJYHK-J 000000000000OM324004
BI00A32W4    @4500192425    20220627181B09116K3              CAVSAS 0.3X2 GY/P        CCN000001750000001750FN00000000020220601000001750NNE   20220416202115W4N21W    00000035000002254000000000032W4N2  HJYHK-J 000000000000OK326001
BI00A32W4    @4500192432    20220620181D6910239              AVSSHCS 0.5FX2 B/L       CCN000001200000001200FN00000000020220601000001200NNE   20220416202116W4421W    00000030000002385000000000032W442  HJYHK-J 000000000000OH226001
BI00B32W4    4500192465     2022062818007703930              AVSS 0.5F B              CCN000006000000006000FN00000000020220601000006000NNE   20220416202122W4K81W    00000150000000674000000000032W4K8  HJYHK-J 000000000000OO326005
BI00B32W4    4500192465     2022062818007703951              AVSS 0.5F O              CCN000003000000003000FN00000000020220601000003000NNE   20220416202122W4K81W    00000150000000674000000000032W4K8  HJYHK-J 000000000000OO326010
BI00B32W4    4500192465     2022062818007703956              AVSS 0.5F R/G            CCN000001500000001500FN00000000020220601000001500NNE   20220416202122W4K81W    00000150000000674000000000032W4K8  HJYHK-J 000000000000OO326011
BI00B32W4    4500192465     2022062818007703963              AVSS 0.5F G/B            CCN000004500000004500FN00000000020220601000004500NNE   20220416202122W4K81W    00000150000000674000000000032W4K8  HJYHK-J 000000000000OO326006
BI00B32W4    4500192465     2022062818007703964              AVSS 0.5F G/W            CCN000003000000003000FN00000000020220601000003000NNE   20220416202122W4K81W    00000150000000674000000000032W4K8  HJYHK-J 000000000000OO326008
BI00B32W4    4500192465     2022062818007703965              AVSS 0.5F G/R            CCN000001500000001500FN00000000020220601000001500NNE   20220416202122W4K81W    00000150000000674000000000032W4K8  HJYHK-J 000000000000OO326007
BI00B32W4    4500192465     2022062818007703967              AVSS 0.5F G/Y            CCN000003000000003000FN00000000020220601000003000NNE   20220416202122W4K81W    00000150000000674000000000032W4K8  HJYHK-J 000000000000OO326009
BI00B32W4    4500192465     2022062818007704187              AVSS 1.25F BR/Y          CCN000001600000001600FN00000000020220601000001600NNE   20220416202122W4K81W    00000080000001389000000000032W4K8  HJYHK-J 000000000000OO326012
BI00B32W4    4500192465     2022062818007704194              AVSS 1.25F L/W           CCN000003200000003200FN00000000020220601000003200NNE   20220416202122W4K81W    00000080000001389000000000032W4K8  HJYHK-J 000000000000OO326014
BI00B32W4    4500192465     2022062818007704195              AVSS 1.25F L/R           CCN000004800000004800FN00000000020220601000004800NNE   20220416202122W4K81W    00000080000001389000000000032W4K8  HJYHK-J 000000000000OO326013
BI00B32W4    4500192465     2022062818007704230              AVSS 2F B                CCN000003000000003000FN00000000020220601000003000NNE   20220416202122W4K81W    00000050000002126400000000032W4K8  HJYHK-J 000000000000OO326015
BI00B32W4    4500192465     2022062818007704287              AVSS 2F BR/Y             CCN000001500000001500FN00000000020220601000001500NNE   20220416202122W4K81W    00000050000002126400000000032W4K8  HJYHK-J 000000000000OO326016
BI00B32W4    4500192465     2022062818018403707              CAVS 0.3 P/B             CCN000006000000006000FN00000000020220601000006000NNE   20220416202122W4K81W    00000200000000471000000000032W4K8  HJYHK-J 000000000000OO326068
BI00B32W4    4500192465     2022062818018403730              CAVS 0.3 B               CCN000010000000010000FN00000000020220601000010000NNE   20220416202122W4K81W    00000200000000471000000000032W4K8  HJYHK-J 000000000000OO326063
BI00B32W4    4500192465     2022062818018403734              CAVS 0.3 B/W             CCN000006000000006000FN00000000020220601000006000NNE   20220416202122W4K81W    00000200000000471000000000032W4K8  HJYHK-J 000000000000OO326064
BI00B32W4    4500192465     2022062818018403740              CAVS 0.3 W               CCN000018000000018000FN00000000020220601000018000NNE   20220416202122W4K81W    00000200000000471000000000032W4K8  HJYHK-J 000000000000OO326072
BI00B32W4    4500192465     2022062818018403741              CAVS 0.3 GY              CCN000012000000012000FN00000000020220601000012000NNE   20220416202122W4K81W    00000200000000471000000000032W4K8  HJYHK-J 000000000000OO326066
BI00B32W4    4500192465     2022062818018403743              CAVS 0.3 W/B             CCN000004000000004000FN00000000020220601000004000NNE   20220416202122W4K81W    00000200000000471000000000032W4K8  HJYHK-J 000000000000OO326073
BI00B32W4    4500192465     2022062818018403749              CAVS 0.3 W/L             CCN000008000000008000FN00000000020220601000008000NNE   20220416202122W4K81W    00000200000000471000000000032W4K8  HJYHK-J 000000000000OO326074
BI00B32W4    4500192465     2022062818018403750              CAVS 0.3 R               CCN000016000000016000FN00000000020220601000016000NNE   20220416202122W4K81W    00000200000000471000000000032W4K8  HJYHK-J 000000000000OO326070
BI00B32W4    4500192465     2022062818018403760              CAVS 0.3 G               CCN000016000000016000FN00000000020220601000016000NNE   20220416202122W4K81W    00000200000000471000000000032W4K8  HJYHK-J 000000000000OO326065
BI00B32W4    4500192465     2022062818018403790              CAVS 0.3 L               CCN000026000000026000FN00000000020220601000026000NNE   20220416202122W4K81W    00000200000000471000000000032W4K8  HJYHK-J 000000000000OO326067
BI00B32W4    4500192465     2022062818018403792              CAVS 0.3 V               CCN000018000000018000FN00000000020220601000018000NNE   20220416202122W4K81W    00000200000000471000000000032W4K8  HJYHK-J 000000000000OO326071
BI00B32W4    4500192465     2022062818018403930              CAVS 0.5 B               CCN000042000000042000FN00000000020220601000042000NNE   20220416202122W4K81W    00000150000000677000000000032W4K8  HJYHK-J 000000000000OO326075
BI00B32W4    4500192465     2022062818018403934              CAVS 0.5 B/W             CCN000022500000022500FN00000000020220601000022500NNE   20220416202122W4K81W    00000150000000677000000000032W4K8  HJYHK-J 000000000000OO326076
BI00B32W4    4500192465     2022062818018403940              CAVS 0.5 W               CCN000051000000051000FN00000000020220601000051000NNE   20220416202122W4K81W    00000150000000677000000000032W4K8  HJYHK-J 000000000000OO326089
BI00B32W4    4500192465     2022062818018403941              CAVS 0.5 GY              CCN000043500000043500FN00000000020220601000043500NNE   20220416202122W4K81W    00000150000000677000000000032W4K8  HJYHK-J 000000000000OO326080
BI00B32W4    4500192465     2022062818018403943              CAVS 0.5 W/B             CCN000048000000048000FN00000000020220601000048000NNE   20220416202122W4K81W    00000150000000677000000000032W4K8  HJYHK-J 000000000000OO326090
BI00B32W4    4500192465     2022062818018403950              CAVS 0.5 R               CCN000024000000024000FN00000000020220601000024000NNE   20220416202122W4K81W    00000150000000677000000000032W4K8  HJYHK-J 000000000000OO326085
BI00B32W4    4500192465     2022062818018403952              CAVS 0.5 P               CCN000058500000058500FN00000000020220601000058500NNE   20220416202122W4K81W    00000150000000677000000000032W4K8  HJYHK-J 000000000000OO326084
BI00B32W4    4500192465     2022062818018403954              CAVS 0.5 R/W             CCN000027000000027000FN00000000020220601000027000NNE   20220416202122W4K81W    00000150000000677000000000032W4K8  HJYHK-J 000000000000OO326086
BI00B32W4    4500192465     2022062818018403960              CAVS 0.5 G               CCN000063000000063000FN00000000020220601000063000NNE   20220416202122W4K81W    00000150000000677000000000032W4K8  HJYHK-J 000000000000OO326078
BI00B32W4    4500192465     2022062818018403961              CAVS 0.5 LG              CCN000051000000051000FN00000000020220601000051000NNE   20220416202122W4K81W    00000150000000677000000000032W4K8  HJYHK-J 000000000000OO326083
BI00B32W4    4500192465     2022062818018403964              CAVS 0.5 G/W             CCN000015000000015000FN00000000020220601000015000NNE   20220416202122W4K81W    00000150000000677000000000032W4K8  HJYHK-J 000000000000OO326079
BI00B32W4    4500192465     2022062818018403970              CAVS 0.5 Y               CCN000019500000019500FN00000000020220601000019500NNE   20220416202122W4K81W    00000150000000677000000000032W4K8  HJYHK-J 000000000000OO326091
BI00B32W4    4500192465     2022062818018403980              CAVS 0.5 BR              CCN000016500000016500FN00000000020220601000016500NNE   20220416202122W4K81W    00000150000000677000000000032W4K8  HJYHK-J 000000000000OO326077
BI00B32W4    4500192465     2022062818018403990              CAVS 0.5 L               CCN000036000000036000FN00000000020220601000036000NNE   20220416202122W4K81W    00000150000000677000000000032W4K8  HJYHK-J 000000000000OO326081
BI00B32W4    4500192465     2022062818018403991              CAVS 0.5 SB              CCN000042000000042000FN00000000020220601000042000NNE   20220416202122W4K81W    00000150000000677000000000032W4K8  HJYHK-J 000000000000OO326087
BI00B32W4    4500192465     2022062818018403992              CAVS 0.5 V               CCN000022500000022500FN00000000020220601000022500NNE   20220416202122W4K81W    00000150000000677000000000032W4K8  HJYHK-J 000000000000OO326088
BI00B32W4    4500192465     2022062818018403995              CAVS 0.5 L/R             CCN000012000000012000FN00000000020220601000012000NNE   20220416202122W4K81W    00000150000000677000000000032W4K8  HJYHK-J 000000000000OO326082
BI00B32W4    4500192465     2022062818018404043              CAVS 0.85 W/B            CCN000006000000006000FN00000000020220601000006000NNE   20220416202122W4K81W    00000100000000965000000000032W4K8  HJYHK-J 000000000000OO326096
BI00B32W4    4500192465     2022062818018404052              CAVS 0.85 P              CCN000005000000005000FN00000000020220601000005000NNE   20220416202122W4K81W    00000100000000965000000000032W4K8  HJYHK-J 000000000000OO326094
BI00B32W4    4500192465     2022062818018404061              CAVS 0.85 LG             CCN000002000000002000FN00000000020220601000002000NNE   20220416202122W4K81W    00000100000000965000000000032W4K8  HJYHK-J 000000000000OO326093
BI00B32W4    4500192465     2022062818018404090              CAVS 0.85 L              CCN000013000000013000FN00000000020220601000013000NNE   20220416202122W4K81W    00000100000000965000000000032W4K8  HJYHK-J 000000000000OO326092
BI00B32W4    4500192465     2022062818018404092              CAVS 0.85 V              CCN000005000000005000FN00000000020220601000005000NNE   20220416202122W4K81W    00000100000000965000000000032W4K8  HJYHK-J 000000000000OO326095
BI00B32W4    4500192465     2022062818018404130              CAVS 1.25 B              CCN000045600000045600FN00000000020220601000045600NNE   20220416202122W4K81W    00000080000001378000000000032W4K8  HJYHK-J 000000000000OO326097
BI00B32W4    4500192465     2022062818018404140              CAVS 1.25 W              CCN000008800000008800FN00000000020220601000008800NNE   20220416202122W4K81W    00000080000001378000000000032W4K8  HJYHK-J 000000000000OO326105
BI00B32W4    4500192465     2022062818018404141              CAVS 1.25 GY             CCN000037600000037600FN00000000020220601000037600NNE   20220416202122W4K81W    00000080000001378000000000032W4K8  HJYHK-J 000000000000OO326099
BI00B32W4    4500192465     2022062818018404143              CAVS 1.25 W/B            CCN000025600000025600FN00000000020220601000025600NNE   20220416202122W4K81W    00000080000001378000000000032W4K8  HJYHK-J 000000000000OO326106
BI00B32W4    4500192465     2022062818018404145              CAVS 1.25 W/R            CCN000028000000028000FN00000000020220601000028000NNE   20220416202122W4K81W    00000080000001378000000000032W4K8  HJYHK-J 000000000000OO326108
BI00B32W4    4500192465     2022062818018404146              CAVS 1.25 W/G            CCN000031200000031200FN00000000020220601000031200NNE   20220416202122W4K81W    00000080000001378000000000032W4K8  HJYHK-J 000000000000OO326107
BI00B32W4    4500192465     2022062818018404150              CAVS 1.25 R              CCN000013600000013600FN00000000020220601000013600NNE   20220416202122W4K81W    00000080000001378000000000032W4K8  HJYHK-J 000000000000OO326103
BI00B32W4    4500192465     2022062818018404152              CAVS 1.25 P              CCN000022400000022400FN00000000020220601000022400NNE   20220416202122W4K81W    00000080000001378000000000032W4K8  HJYHK-J 000000000000OO326102
BI00B32W4    4500192465     2022062818018404160              CAVS 1.25 G              CCN000022400000022400FN00000000020220601000022400NNE   20220416202122W4K81W    00000080000001378000000000032W4K8  HJYHK-J 000000000000OO326098
BI00B32W4    4500192465     2022062818018404161              CAVS 1.25 LG             CCN000006400000006400FN00000000020220601000006400NNE   20220416202122W4K81W    00000080000001378000000000032W4K8  HJYHK-J 000000000000OO326101
BI00B32W4    4500192465     2022062818018404192              CAVS 1.25 V              CCN000020000000020000FN00000000020220601000020000NNE   20220416202122W4K81W    00000080000001378000000000032W4K8  HJYHK-J 000000000000OO326104
BI00B32W4    4500192465     2022062818018404193              CAVS 1.25 L/B            CCN000000800000000800FN00000000020220601000000800NNE   20220416202122W4K81W    00000080000001378000000000032W4K8  HJYHK-J 000000000000OO326100
BI00B32W4    4500192465     20220628180184037H2              CAVS 0.3 P/G             CCN000010000000010000FN00000000020220601000010000NNE   20220416202122W4K81W    00000200000000471000000000032W4K8  HJYHK-J 000000000000OO326069
BI00B32W4    4500192465     20220628180T8403970              ACCAVS 0.5 Y             CCN000009000000009000FN00000000020220601000009000NNE   20220416202122W4K81W    00000150000000674300000000032W4K8  HJYHK-J 000000000000OO326003
BI00B32W4    4500192465     20220628180T8403973              ACCAVS 0.5 Y/B           CCN000009000000009000FN00000000020220601000009000NNE   20220416202122W4K81W    00000150000000674300000000032W4K8  HJYHK-J 000000000000OO326004
BI00B32W4    4500192465     202206281801R703940              CIVUS 0.5 W              CCN000055000000055000FN00000000020220601000055000NNE   20220416202122W4K81W    00000220000000525000000000032W4K8  HJYHK-J 000000000000OO326031
BI00B32W4    4500192465     202206281801R703991              CIVUS 0.5 SB             CCN000048400000048400FN00000000020220601000048400NNE   20220416202122W4K81W    00000220000000525000000000032W4K8  HJYHK-J 000000000000OO326029
BI00B32W4    4500192465     202206281801R706940              CIVUS 0.35 W             CCN000081000000081000FN00000000020220601000081000NNE   20220416202122W4K81W    00000300000000386000000000032W4K8  HJYHK-J 000000000000OO326059
BI00B32W4    4500192465     202206281801R706943              CIVUS 0.35 W/B           CCN000033000000033000FN00000000020220601000033000NNE   20220416202122W4K81W    00000300000000386000000000032W4K8  HJYHK-J 000000000000OO326060
BI00B32W4    4500192465     202206281801R706930              CIVUS 0.35 B             CCN000057000000057000FN00000000020220601000057000NNE   20220416202122W4K81W    00000300000000386000000000032W4K8  HJYHK-J 000000000000OO326048
BI00B32W4    4500192465     202206281801R70695U              CIVUS 0.35 BE            CCN000030000000030000FN00000000020220601000030000NNE   20220416202122W4K81W    00000300000000386000000000032W4K8  HJYHK-J 000000000000OO326049
BI00B32W4    4500192465     202206281801R706980              CIVUS 0.35 BR            CCN000069000000069000FN00000000020220601000069000NNE   20220416202122W4K81W    00000300000000386000000000032W4K8  HJYHK-J 000000000000OO326050
BI00B32W4    4500192465     202206281801R706960              CIVUS 0.35 G             CCN000045000000045000FN00000000020220601000045000NNE   20220416202122W4K81W    00000300000000386000000000032W4K8  HJYHK-J 000000000000OO326051
BI00B32W4    4500192465     202206281801R706941              CIVUS 0.35 GY            CCN000063000000063000FN00000000020220601000063000NNE   20220416202122W4K81W    00000300000000386000000000032W4K8  HJYHK-J 000000000000OO326052
BI00B32W4    4500192465     202206281801R706990              CIVUS 0.35 L             CCN000066000000066000FN00000000020220601000066000NNE   20220416202122W4K81W    00000300000000386000000000032W4K8  HJYHK-J 000000000000OO326053
BI00B32W4    4500192465     202206281801R706952              CIVUS 0.35 P             CCN000030000000030000FN00000000020220601000030000NNE   20220416202122W4K81W    00000300000000386000000000032W4K8  HJYHK-J 000000000000OO326055
BI00B32W4    4500192465     202206281801R706991              CIVUS 0.35 SB            CCN000060000000060000FN00000000020220601000060000NNE   20220416202122W4K81W    00000300000000386000000000032W4K8  HJYHK-J 000000000000OO326057
BI00B32W4    4500192465     202206281801R706992              CIVUS 0.35 V             CCN000030000000030000FN00000000020220601000030000NNE   20220416202122W4K81W    00000300000000386000000000032W4K8  HJYHK-J 000000000000OO326058
BI00B32W4    4500192465     202206281801R703952              CIVUS 0.5 P              CCN000037400000037400FN00000000020220601000037400NNE   20220416202122W4K81W    00000220000000525000000000032W4K8  HJYHK-J 000000000000OO326027
BI00B32W4    4500192465     202206281801R70395U              CIVUS 0.5 BE             CCN000019800000019800FN00000000020220601000019800NNE   20220416202122W4K81W    00000220000000525000000000032W4K8  HJYHK-J 000000000000OO326021
BI00B32W4    4500192465     202206281801R704052              CIVUS 0.75 P             CCN000001500000001500FN00000000020220601000001500NNE   20220416202122W4K81W    00000150000000765000000000032W4K8  HJYHK-J 000000000000OO326036
BI00B32W4    4500192465     202206281801R704080              CIVUS 0.75 BR            CCN000001500000001500FN00000000020220601000001500NNE   20220416202122W4K81W    00000150000000765000000000032W4K8  HJYHK-J 000000000000OO326034
BI00B32W4    4500192465     202206281801R704140              CIVUS 1.25 W             CCN000010000000010000FN00000000020220601000010000NNE   20220416202122W4K81W    00000100000001228000000000032W4K8  HJYHK-J 000000000000OO326046
BI00B32W4    4500192465     202206281801R704143              CIVUS 1.25 W/B           CCN000028000000028000FN00000000020220601000028000NNE   20220416202122W4K81W    00000100000001228000000000032W4K8  HJYHK-J 000000000000OO326047
BI00B32W4    4500192465     202206281801R704190              CIVUS 1.25 L             CCN000009000000009000FN00000000020220601000009000NNE   20220416202122W4K81W    00000100000001228000000000032W4K8  HJYHK-J 000000000000OO326040
BI00B32W4    4500192465     202206281801R704192              CIVUS 1.25 V             CCN000012000000012000FN00000000020220601000012000NNE   20220416202122W4K81W    00000100000001228000000000032W4K8  HJYHK-J 000000000000OO326045
BI00B32W4    4500192465     202206281801R70415U              CIVUS 1.25 BE            CCN000008000000008000FN00000000020220601000008000NNE   20220416202122W4K81W    00000100000001228000000000032W4K8  HJYHK-J 000000000000OO326038
BI00B32W4    4500192465     202206281801R704161              CIVUS 1.25 LG            CCN000018000000018000FN00000000020220601000018000NNE   20220416202122W4K81W    00000100000001228000000000032W4K8  HJYHK-J 000000000000OO326041
BI00B32W4    4500192465     202206281801R704150              CIVUS 1.25 R             CCN000011000000011000FN00000000020220601000011000NNE   20220416202122W4K81W    00000100000001228000000000032W4K8  HJYHK-J 000000000000OO326043
BI00B32W4    4500192465     202206281801R704191              CIVUS 1.25 SB            CCN000011000000011000FN00000000020220601000011000NNE   20220416202122W4K81W    00000100000001228000000000032W4K8  HJYHK-J 000000000000OO326044
BI00B32W4    4500192465     202206281801R706961              CIVUS 0.35 LG            CCN000057000000057000FN00000000020220601000057000NNE   20220416202122W4K81W    00000300000000386000000000032W4K8  HJYHK-J 000000000000OO326054
BI00B32W4    4500192465     202206281801R703980              CIVUS 0.5 BR             CCN000068200000068200FN00000000020220601000068200NNE   20220416202122W4K81W    00000220000000525000000000032W4K8  HJYHK-J 000000000000OO326022
BI00B32W4    4500192465     202206281801R704152              CIVUS 1.25 P             CCN000006000000006000FN00000000020220601000006000NNE   20220416202122W4K81W    00000100000001228000000000032W4K8  HJYHK-J 000000000000OO326042
BI00B32W4    4500192465     202206281801R703960              CIVUS 0.5 G              CCN000013200000013200FN00000000020220601000013200NNE   20220416202122W4K81W    00000220000000525000000000032W4K8  HJYHK-J 000000000000OO326023
BI00B32W4    4500192465     202206281801R704180              CIVUS 1.25 BR            CCN000019000000019000FN00000000020220601000019000NNE   20220416202122W4K81W    00000100000001228000000000032W4K8  HJYHK-J 000000000000OO326039
BI00B32W4    4500192465     202206281801R706950              CIVUS 0.35 R             CCN000072000000072000FN00000000020220601000072000NNE   20220416202122W4K81W    00000300000000386000000000032W4K8  HJYHK-J 000000000000OO326056
BI00B32W4    4500192465     202206281801R706970              CIVUS 0.35 Y             CCN000150000000150000FN00000000020220601000150000NNE   20220416202122W4K81W    00000300000000386000000000032W4K8  HJYHK-J 000000000000OO326061
BI00B32W4    4500192465     202206281801R706973              CIVUS 0.35 Y/B           CCN000081000000081000FN00000000020220601000081000NNE   20220416202122W4K81W    00000300000000386000000000032W4K8  HJYHK-J 000000000000OO326062
BI00B32W4    4500192465     202206281801R703930              CIVUS 0.5 B              CCN000008800000008800FN00000000020220601000008800NNE   20220416202122W4K81W    00000220000000525000000000032W4K8  HJYHK-J 000000000000OO326020
BI00B32W4    4500192465     202206281801R703941              CIVUS 0.5 GY             CCN000048400000048400FN00000000020220601000048400NNE   20220416202122W4K81W    00000220000000525000000000032W4K8  HJYHK-J 000000000000OO326024
BI00B32W4    4500192465     202206281801R703990              CIVUS 0.5 L              CCN000022000000022000FN00000000020220601000022000NNE   20220416202122W4K81W    00000220000000525000000000032W4K8  HJYHK-J 000000000000OO326025
BI00B32W4    4500192465     202206281801R703961              CIVUS 0.5 LG             CCN000068200000068200FN00000000020220601000068200NNE   20220416202122W4K81W    00000220000000525000000000032W4K8  HJYHK-J 000000000000OO326026
BI00B32W4    4500192465     202206281801R703992              CIVUS 0.5 V              CCN000015400000015400FN00000000020220601000015400NNE   20220416202122W4K81W    00000220000000525000000000032W4K8  HJYHK-J 000000000000OO326030
BI00B32W4    4500192465     202206281801R703943              CIVUS 0.5 W/B            CCN000160600000160600FN00000000020220601000160600NNE   20220416202122W4K81W    00000220000000525000000000032W4K8  HJYHK-J 000000000000OO326032
BI00B32W4    4500192465     202206281801R703950              CIVUS 0.5 R              CCN000002200000002200FN00000000020220601000002200NNE   20220416202122W4K81W    00000220000000525000000000032W4K8  HJYHK-J 000000000000OO326028
BI00B32W4    4500192465     202206281801R704030              CIVUS 0.75 B             CCN000004500000004500FN00000000020220601000004500NNE   20220416202122W4K81W    00000150000000765000000000032W4K8  HJYHK-J 000000000000OO326033
BI00B32W4    4500192465     202206281801R704130              CIVUS 1.25 B             CCN000026000000026000FN00000000020220601000026000NNE   20220416202122W4K81W    00000100000001228000000000032W4K8  HJYHK-J 000000000000OO326037
BI00B32W4    4500192465     2022062818007704260              AVSS 2F G                CCN000001500000001500FN00000000020220601000001500NNE   20220416202122W4K81W    00000050000002126400000000032W4K8  HJYHK-J 000000000000OO326017
BI00B32W4    4500192465     2022062818007704240              AVSS 2F W                CCN000001000000001000FN00000000020220601000001000NNE   20220416202122W4K81W    00000050000002126400000000032W4K8  HJYHK-J 000000000000OO326019
BI00B32W4    4500192465     2022062818007704290              AVSS 2F L                CCN000001500000001500FN00000000020220601000001500NNE   20220416202122W4K81W    00000050000002126400000000032W4K8  HJYHK-J 000000000000OO326018
BI00B32W4    4500192465     202206281801R704061              CIVUS 0.75 LG            CCN000019500000019500FN00000000020220601000019500NNE   20220416202122W4K81W    00000150000000765000000000032W4K8  HJYHK-J 000000000000OO326035
BI00B32W4    @4500192465    20220628181B32116S1              AVSSCS 0.3FX2 DGY        CCN000000350000000350FN00000000020220601000000350NNE   20220416202121W4K81W    00000035000002276000000000032W4K8  HJYHK-J 000000000000OO326001
BI00B32W4    @4500192465    20220628181B32116Z6              AVSSCS 0.3FX2 DGY/V      CCN000015400000015400FN00000000020220601000015400NNE   20220416202121W4K81W    00000035000002276000000000032W4K8  HJYHK-J 000000000000OO326002
