BI00B32A7    ZZ2205DLMW     202205187158-3168-80             SEALED                   CCN000040000000040000FN00000000020220501000040000NNE   20220505122117    1C0C  00002000000000044000000092132A7    ZZZZY   004300260014
BI00B32A7    ZZ2205DLMW     202205187172-5402-30             SEAL RUBBER              CCN000040000000040000FN00000000020220501000040000NNE   20220505122117    1C0C  00000800000000457600000506032A7    ZZZZY   004300270014
BI00B32A7    ZZ2205DLMW     202205187172-5403-30             SEALED PACKING           CCN000040000000040000FN00000000020220501000040000NNE   20220505122117    1C0C  00000400000000653600000701732A7    ZZZZY   004300270014
BI00B32A7    ZZ2205DLMW     202205187283-8630                CONNECTOR ASS'Y          CCN000018000000018000FN00000000020220501000018000NNE   20220505122117    4N0N  00000600000000540000000701332A7    ZZZZY   005400370024
BI00B32A7    ZZ2205DLMW     202205187289-3342-30             HOUSING FEMALE ASS'Y     CCN000002400000002400FN00000000020220501000002400NNE   20220505122117    1N0N  00000240000000686400000901432A7    ZZZZY   005500360039
BI00B32A7    ZZ2205DLMW     202205187289-4696-30             HOUSING FEMALE ASS'Y     CCN000020000000020000FN00000000020220501000020000NNE   20220505122117    4N0N  00000200000000913400001055432A7    ZZZZY   005400370024
BI00B32A7    #ZZ2205DLMW    202205187158-3007-10             RUBBER STOPPER           CCN000040000000040000FN00000000020220501000040000NNE   20220505122117    2H0H  00002000000000308000000362732A7    ZZZZY   002700430014
BI00B32A7    #ZZ2205DLMW    202205187182-9632-30             JOINT CONNECTOR          CCN000006000000006000FN00000000020220501000006000NNE   20220505122117    2F0F  00000300000001320000001445532A7    ZZZZY   005400370024
BI00B32A7    @ZZ2205DLMW    202205187123-2825                HOUSING                  CCN000006000000006000FN00000000020220501000006000NNE   20220505122117    3F0F  00000600000000958800001136432A7    ZZZZY   005500360039
BI00B32DA    SBT2204        202205127289-3342-30             HOUSING FEMALE ASS'Y     CCN000043200000043200FN00000000020220401000043200NNMS0020220505122117    1N0N  00000240000000686400000901432DA    GBYIPLGB005500360039
BI00B32DA    SBT2204C       202205127289-3342-30             HOUSING FEMALE ASS'Y     CCN000021600000021600FN00000000020220401000021600NNMD0420220505122117    1N0N  00000240000000686400000901432DA    GBYIPLGB005500360039
BI00B32DA    SBT2204C       202205127286-3885-40             CONNECTOR MALE ASS'Y     CCN000007200000007200FN00000000020220401000007200NNM00020220505160552    1N0N  00000120000000910600001130632DA    GBYIPLGB005500360039
BI00B32DA    SBT2205        202205197289-3342-30             HOUSING FEMALE ASS'Y     CCN000114000000028800FN00000000020220501000028800NNMD0420220505122117    1N0N  00000240000000686400000901432DA    GBYIPLGB005500360039
BI00B32DA    SBT2205A       202205197289-3342-30             HOUSING FEMALE ASS'Y     CCN000114000000028800FN00000000020220501000028800NNMD0420220505122117    1N0N  00000240000000686400000901432DA    GBYIPLGB005500360039
BI00B32DA    SBT2205        202205267289-3342-30             HOUSING FEMALE ASS'Y     CCN000028800000086400FN00000000020220501000086400NNMD0420220505122117    1N0N  00000240000000686400000901432DA    GBYIPLGB005500360039
BI00B32DA    SBT2205        202208187289-3342-30             HOUSING FEMALE ASS'Y     CCN000028800000000000FY00000000020220501000000000NNMD0420220505112930    1N0N  00000240000000686400000901432DA    GBYIPLGB005500360039
BI00B32DA    SBT2205        202208257289-3342-30             HOUSING FEMALE ASS'Y     CCN000028800000000000FY00000000020220501000000000NNMD0420220505112930    1N0N  00000240000000686400000901432DA    GBYIPLGB005500360039
BI00B32DA    SBT2205A       202206027289-3342-30             HOUSING FEMALE ASS'Y     CCN000028800000086400FN00000000020220501000086400NNMD0420220505122117    1N0N  00000240000000686400000901432DA    GBYIPLGB005500360039
BI00B32DA    SBT2205A       202209157289-3342-30             HOUSING FEMALE ASS'Y     CCN000028800000000000FY00000000020220501000000000NNMD0420220505113040    1N0N  00000240000000686400000901432DA    GBYIPLGB005500360039
BI00B32DA    SBT2205A       202209227289-3342-30             HOUSING FEMALE ASS'Y     CCN000028800000000000FY00000000020220501000000000NNMD0420220505113040    1N0N  00000240000000686400000901432DA    GBYIPLGB005500360039
BI00B32DA    SBT2207        202208047286-3885-40             CONNECTOR MALE ASS'Y     CCN000030000000014400FN00000000020220701000014400NNMD0420220505163109    1N0N  00000120000000910600001130632DA    GBYIPLGB005500360039
BI00B32DA    SBT2207A       202208187286-3885-40             CONNECTOR MALE ASS'Y     CCN000030000000014400FN00000000020220701000014400NNMD0420220505163200    1N0N  00000120000000910600001130632DA    GBYIPLGB005500360039
BI00B32DA    SBT2207        202208117286-3885-40             CONNECTOR MALE ASS'Y     CCN000015600000015600FN00000000020220701000015600NNMD0420220505163139    1N0N  00000120000000910600001130632DA    GBYIPLGB005500360039
BI00B32DA    SBT2207A       202208257286-3885-40             CONNECTOR MALE ASS'Y     CCN000015600000015600FN00000000020220701000015600NNMD0420220505163215    1N0N  00000120000000910600001130632DA    GBYIPLGB005500360039
BI00B32DE    TCT2062        202205197289-3342-30             HOUSING FEMALE ASS'Y     CCN000036000000036000FN00000000020220601000036000NNMD0420220505141756    1N0N  00000240000000686400000901432DE    TVYEV-TV005500360039
BI00B32DE    TCT2063        202205267289-3342-30             HOUSING FEMALE ASS'Y     CCN000036000000036000FN00000000020220601000036000NNMD0420220505141847    1N0N  00000240000000686400000901432DE    TVYEV-TV005500360039
BI00B32DE    TCT2064        202206027289-3342-30             HOUSING FEMALE ASS'Y     CCN000048000000048000FN00000000020220601000048000NNMD0420220505142032    1N0N  00000240000000686400000901432DE    TVYEV-TV005500360039
BI00B32DE    #TCTL2072      202206237114-4022                TERMINAL                 CCN000090000000090000FN00000000020220701000090000NNM   20220505122117    2F0P  00001500000000708000001120632DE    TVYEV-TV006400630015
BI00B32DE    #TCTL2072      202206237154-5597-30             CASSETTE R/B             CCN000008000000008000FN00000000020220701000008000NNM   20220505122117    2F0F  00000080000000736000000952032DE    TVYEV-TV005500360039
BI00B32DE    #TCTL2072      202206237157-8991-80             RUBBER STOPPER           CCN000080000000080000FN00000000020220701000080000NNM   20220505122117    2C0C  00002000000000214000000271032DE    TVYEV-TV002700430014
BI00B32DE    #TCTL2072      202206237158-3003-90             RUBBER STOPPER           CCN000260000000260000FN00000000020220701000260000NNM   20220505122117    2C0C  00002000000000250000000306032DE    TVYEV-TV002700430014
BI00B32DE    #TCTL2071      202206097158-3004-40             RUBBER STOPPER           CCN000060000000060000FN00000000020220701000060000NNM   20220505122117    2C0C  00002000000000234000000306332DE    TVYEV-TV002700430014
BI00B32DE    #TCTL2072      202206237158-3004-40             RUBBER STOPPER           CCN000060000000060000FN00000000020220701000060000NNM   20220505122117    2C0C  00002000000000234000000306332DE    TVYEV-TV002700430014
BI00B32DE    #TCTL2072      202206237158-3005-80             RUBBER STOPPER           CCN000020000000020000FN00000000020220701000020000NNM   20220505122117    2H0H  00002000000000210000000268732DE    TVYEV-TV002700430014
BI00B32DE    #TCTL2071      202206097158-3007-10             RUBBER STOPPER           CCN000100000000100000FN00000000020220701000100000NNM   20220505122117    2H0H  00002000000000308000000362732DE    TVYEV-TV002700430014
BI00B32DE    #TCTL2072      202206237158-3007-10             RUBBER STOPPER           CCN000080000000080000FN00000000020220701000080000NNM   20220505122117    2H0H  00002000000000308000000362732DE    TVYEV-TV002700430014
BI00B32DE    #TCTL2071      202206097158-3008-80             RUBBER STOPPER           CCN000040000000040000FN00000000020220701000040000NNM   20220505122117    2C0C  00002000000000288000000343032DE    TVYEV-TV004300270014
BI00B32DE    #TCTL2072      202206237158-3008-80             RUBBER STOPPER           CCN000040000000040000FN00000000020220701000040000NNM   20220505122117    2C0C  00002000000000288000000343032DE    TVYEV-TV004300270014
BI00B32DE    #TCTL2072      202206237158-3015-10             RUBBER STOPPER           CCN000040000000040000FN00000000020220701000040000NNM   20220505122117    2C0C  00001000000000419500000474032DE    TVYEV-TV002700430014
BI00B32DE    #TCTL2071      202206097158-3017                RUBBER STOPPER           CCN000040000000040000FN00000000020220701000040000NNM   20220505122117    2C0C  00001000000000375500000435032DE    TVYEV-TV002700430014
BI00B32DE    #TCTL2072      202206237158-3017                RUBBER STOPPER           CCN000040000000040000FN00000000020220701000040000NNM   20220505122117    2C0C  00001000000000375500000435032DE    TVYEV-TV002700430014
BI00B32DE    #TCTL2072      202206237158-3120-90             CONNECTOR WIRE SEAL      CCN000080000000080000FN00000000020220701000080000NNM   20220505122117    2C0C  00002000000000136000000194032DE    TVYEV-TV002700430014
BI00B32DE    #TCTL2071      202206097158-3121-80             WIRE SEAL                CCN000020000000020000FN00000000020220701000020000NNM   20220505122117    2C0C  00002000000000118000000187332DE    TVYEV-TV002700430014
BI00B32DE    #TCTL2071      202206097158-7584-30             BLOCK LIF                CCN000000800000000800FN00000000020220701000000800NNM   20220505122117    2F0F  00000080000000534500000688532DE    TVYEV-TV005500360039
BI00B32DE    #TCTL2072      202206237158-7584-30             BLOCK LIF                CCN000000800000000800FN00000000020220701000000800NNM   20220505122117    2F0F  00000080000000534500000688532DE    TVYEV-TV005500360039
BI00B32DE    #TCTL2071      202206097158-7586-30             BLOCK LIF                CCN000004800000004800FN00000000020220701000004800NNM   20220505122117    2F0F  00000080000000617400000844232DE    TVYEV-TV005500360039
BI00B32DE    #TCTL2072      202206237158-7586-30             BLOCK LIF                CCN000004000000004000FN00000000020220701000004000NNM   20220505122117    2F0F  00000080000000617400000844232DE    TVYEV-TV005500360039
BI00B32DE    #TCTL2071      202206097182-2410                CONNECTOR HOUSING        CCN000001200000001200FN00000000020220701000001200NNM   20220505122117    2F0F  00000120000000959800001245632DE    TVYEV-TV005500360039
BI00B32DE    #TCTL2071      202206097183-0521                HOUSING                  CCN000004800000004800FN00000000020220701000004800NNM   20220505122117    2F0F  00000480000001367500001585032DE    TVYEV-TV005500360039
BI00B32DE    #TCTL2071      202206097183-1616-30             CONNECTOR HOUSING        CCN000002400000002400FN00000000020220701000002400NNM   20220505122117    2F0F  00000240000000557500000837132DE    TVYEV-TV005500360039
BI00B32DE    #TCTL2072      202206237183-1616-30             CONNECTOR HOUSING        CCN000002400000002400FN00000000020220701000002400NNM   20220505122117    2F0F  00000240000000557500000837132DE    TVYEV-TV005500360039
BI00B32DE    #TCTL2072      202206237183-2412                HOUSING                  CCN000001600000001600FN00000000020220701000001600NNM   20220505122117    2F0F  00000160000001059200001245632DE    TVYEV-TV005500360039
BI00B32DE    #TCTL2071      202206097183-2416-90             HOUSING                  CCN000007200000007200FN00000000020220701000007200NNM   20220505122117    2F0F  00000240000001489700001765832DE    TVYEV-TV005500360039
BI00B32DE    #TCTL2072      202206237183-2416-90             HOUSING                  CCN000009600000009600FN00000000020220701000009600NNM   20220505122117    2F0F  00000240000001489700001765832DE    TVYEV-TV005500360039
BI00B32DE    #TCTL2072      202206237183-7725-40             HOUSING                  CCN000006000000006000FN00000000020220701000006000NNM   20220505122117    2F0F  00000600000000840000001040032DE    TVYEV-TV005600390040
BI00B32DE    #TCTL2071      202206097187-8856                HOUSING FEMALE           CCN000002000000002000FN00000000020220701000002000NNM   20220505122117    2F0F  00000200000000820000000931532DE    TVYEV-TV005400370024
BI00B32DE    #TCTL2072      202206237187-8856                HOUSING FEMALE           CCN000008000000008000FN00000000020220701000008000NNM   20220505122117    2F0F  00000200000000820000000931532DE    TVYEV-TV005400370024
BI00B32DE    #TCTL2072      202206237188-0149                HLC HOUSING MALE         CCN000017100000017100FN00000000020220701000017100NNM   20220505122117    2F0F  00000090000000809100000923832DE    TVYEV-TV005400370024
BI00B32DE    #TCTL2071      202206097189-0149                HLC HOUSING FEMALE       CCN000004000000004000FN00000000020220701000004000NNM   20220505122117    2F0F  00000200000000970000001078532DE    TVYEV-TV005400370024
BI00B32DE    #TCTL2072      202206237189-0149                HLC HOUSING FEMALE       CCN000020000000020000FN00000000020220701000020000NNM   20220505122117    2F0F  00000200000000970000001078532DE    TVYEV-TV005400370024
BI00B32DE    #TCTL2071      202206097189-3031-30             HOUSING FEMALE           CCN000002400000002400FN00000000020220701000002400NNM   20220505122117    2F0F  00000240000000928800001365832DE    TVYEV-TV005500360039
BI00B32DE    #TCTL2072      202206237189-3031-30             HOUSING FEMALE           CCN000002400000002400FN00000000020220701000002400NNM   20220505122117    2F0F  00000240000000928800001365832DE    TVYEV-TV005500360039
BI00B32DE    #TCTL2072      202206237282-7040-40             HOUSING MALE ASS'Y       CCN000001200000001200FN00000000020220701000001200NNM   20220505122117    2N0N  00000120000000620400000731932DE    TVYEV-TV005400370024
BI00B32DE    #TCTL2072      202206237283-1065                CONNECTOR                CCN000010000000010000FN00000000020220701000010000NNM   20220505122117    2N0N  00000250000001152500001310432DE    TVYEV-TV005500360039
BI00B32DE    #TCTL2072      202206237283-5831                CONNECTOR                CCN000003000000003000FN00000000020220701000003000NNM   20220505122117    2N0N  00000300000000750000000880032DE    TVYEV-TV005400370024
BI00B32DE    #TCTL2071      202206097283-5834                CONNECTOR ASS'Y          CCN000003240000003240FN00000000020220701000003240NNM   20220505122117    2N0N  00000324000001296000001849732DE    TVYEV-TV005600390040
BI00B32DE    #TCTL2072      202206237283-5834                CONNECTOR ASS'Y          CCN000003240000003240FN00000000020220701000003240NNM   20220505122117    2N0N  00000324000001296000001849732DE    TVYEV-TV005600390040
BI00B32DE    #TCTL2071      202206097283-5834-30             CONNECTOR ASS'Y          CCN000006480000006480FN00000000020220701000006480NNM   20220505122117    2N0N  00000324000001296000001853432DE    TVYEV-TV005600390040
BI00B32DE    #TCTL2072      202206237283-5834-30             CONNECTOR ASS'Y          CCN000009720000009720FN00000000020220701000009720NNM   20220505122117    2N0N  00000324000001296000001853432DE    TVYEV-TV005600390040
BI00B32DE    #TCTL2072      202206237283-5834-40             CONNECTOR ASS'Y          CCN000003240000003240FN00000000020220701000003240NNM   20220505122117    2N0N  00000324000001296000001854332DE    TVYEV-TV005600390040
BI00B32DE    #TCTL2072      202206237289-2914                HOUSING FEMALE ASS'Y     CCN000001500000001500FN00000000020220701000001500NNM   20220505122117    2N0N  00000150000000906000001033032DE    TVYEV-TV005400370024
BI00B32DE    #TCTL2071      202206097289-2915-30             HOUSING FEMALE ASS'Y     CCN000001500000001500FN00000000020220701000001500NNM   20220505122117    2N0N  00000150000000964500001091532DE    TVYEV-TV005400370024
BI00B32DE    #TCTL2072      202206237289-2915-30             HOUSING FEMALE ASS'Y     CCN000003000000003000FN00000000020220701000003000NNM   20220505122117    2N0N  00000150000000964500001091532DE    TVYEV-TV005400370024
BI00B32DE    #TCTL2071      202206097289-2916-30             HOUSING FEMALE ASS'Y     CCN000001000000001000FN00000000020220701000001000NNM   20220505122117    2N0N  00000100000000857000001084032DE    TVYEV-TV005400370024
BI00B32DE    #TCTL2072      202206237289-2916-30             HOUSING FEMALE ASS'Y     CCN000002000000002000FN00000000020220701000002000NNM   20220505122117    2N0N  00000100000000857000001084032DE    TVYEV-TV005400370024
BI00B32DE    TCT2073        202206237017-1180-02             TERMINAL                 CCN000072000000072000FN00000000020220701000072000NNM   20220505122117    4P0P  00007200000001065600001229032DE    TVYEV-TV005100280028
BI00B32DE    TCT2075        202207077017-1180-02             TERMINAL                 CCN000072000000072000FN00000000020220701000072000NNM   20220505122117    4P0P  00007200000001065600001229032DE    TVYEV-TV005100280028
BI00B32DE    TCT2074        202206307017-1181-02             TERMINAL                 CCN000063000000063000FN00000000020220701000063000NNM   20220505122117    4P0P  00006300000001089900001266832DE    TVYEV-TV005100280028
BI00B32DE    TCT2072        202206167114-4020                TERMINAL                 CCN000021000000021000FN00000000020220701000021000NNM   20220505122117    4P0P  00002100000000875700001169332DE    TVYEV-TV006400630015
BI00B32DE    TCT2073        202206237114-4020                TERMINAL                 CCN000042000000042000FN00000000020220701000042000NNM   20220505122117    4P0P  00002100000000875700001169332DE    TVYEV-TV006400630015
BI00B32DE    TCT2074        202206307114-4020                TERMINAL                 CCN000042000000042000FN00000000020220701000042000NNM   20220505122117    4P0P  00002100000000875700001169332DE    TVYEV-TV006400630015
BI00B32DE    TCT2075        202207077114-4020                TERMINAL                 CCN000063000000063000FN00000000020220701000063000NNM   20220505122117    4P0P  00002100000000875700001169332DE    TVYEV-TV006400630015
BI00B32DE    TCT2071        202206097114-4021                TERMINAL                 CCN000060000000060000FN00000000020220701000060000NNM   20220505122117    4P0P  00001500000000670500000964132DE    TVYEV-TV006400630015
BI00B32DE    TCT2072        202206167114-4021                TERMINAL                 CCN000060000000060000FN00000000020220701000060000NNM   20220505122117    4P0P  00001500000000670500000964132DE    TVYEV-TV006400630015
BI00B32DE    TCT2073        202206237114-4021                TERMINAL                 CCN000045000000045000FN00000000020220701000045000NNM   20220505122117    4P0P  00001500000000670500000964132DE    TVYEV-TV006400630015
BI00B32DE    TCT2074        202206307114-4021                TERMINAL                 CCN000030000000030000FN00000000020220701000030000NNM   20220505122117    4P0P  00001500000000670500000964132DE    TVYEV-TV006400630015
BI00B32DE    TCT2075        202207077114-4021                TERMINAL                 CCN000060000000060000FN00000000020220701000060000NNM   20220505122117    4P0P  00001500000000670500000964132DE    TVYEV-TV006400630015
BI00B32DE    TCT2071        202206097114-4032                TERMINAL                 CCN000007500000007500FN00000000020220701000007500NNM   20220505122117    4P0P  00000750000000735000001063632DE    TVYEV-TV006400630017
BI00B32DE    TCT2072        202206167114-4032                TERMINAL                 CCN000007500000007500FN00000000020220701000007500NNM   20220505122117    4P0P  00000750000000735000001063632DE    TVYEV-TV006400630017
BI00B32DE    TCT2073        202206237114-4032                TERMINAL                 CCN000007500000007500FN00000000020220701000007500NNM   20220505122117    4P0P  00000750000000735000001063632DE    TVYEV-TV006400630017
BI00B32DE    TCT2075        202207077114-4032                TERMINAL                 CCN000007500000007500FN00000000020220701000007500NNM   20220505122117    4P0P  00000750000000735000001063632DE    TVYEV-TV006400630017
BI00B32DE    TCT2074        202206307114-4110-02             TERMINAL                 CCN000015000000015000FN00000000020220701000015000NNM   20220505122117    4P0P  00001500000000901500001230132DE    TVYEV-TV006400630017
BI00B32DE    TCT2072        202206167114-4112-02             TERMINAL                 CCN000009000000009000FN00000000020220701000009000NNM   20220505122117    4P0P  00000900000000598500000927132DE    TVYEV-TV006400630017
BI00B32DE    TCT2073        202206237114-4112-02             TERMINAL                 CCN000009000000009000FN00000000020220701000009000NNM   20220505122117    4P0P  00000900000000598500000927132DE    TVYEV-TV006400630017
BI00B32DE    TCT2075        202207077114-4112-02             TERMINAL                 CCN000009000000009000FN00000000020220701000009000NNM   20220505122117    4P0P  00000900000000598500000927132DE    TVYEV-TV006400630017
BI00B32DE    TCT2073        202206237114-4231-02             TERMINAL                 CCN000036000000036000FN00000000020220701000036000NNM   20220505122117    4P0P  00001800000000554400000848032DE    TVYEV-TV006400630015
BI00B32DE    TCT2074        202206307114-4231-02             TERMINAL                 CCN000018000000018000FN00000000020220701000018000NNM   20220505122117    4P0P  00001800000000554400000848032DE    TVYEV-TV006400630015
BI00B32DE    TCT2075        202207077114-4231-02             TERMINAL                 CCN000036000000036000FN00000000020220701000036000NNM   20220505122117    4P0P  00001800000000554400000848032DE    TVYEV-TV006400630015
BI00B32DE    TCT2074        202206307114-4624-02             TERMINAL                 CCN000024000000024000FN00000000020220701000024000NNM   20220505122117    4P0P  00002400000000895200001188832DE    TVYEV-TV006400630015
BI00B32DE    TCT2075        202207077114-4624-02             TERMINAL                 CCN000024000000024000FN00000000020220701000024000NNM   20220505122117    4P0P  00002400000000895200001188832DE    TVYEV-TV006400630015
BI00B32DE    TCT2074        202206307114-4728-02             TERMINAL                 CCN000090000000090000FN00000000020220701000090000NNM   20220505122117    4P0P  00003000000000510000000804232DE    TVYEV-TV006400630015
BI00B32DE    TCT2071        202206097114-4729-02             TERMINAL                 CCN000180000000180000FN00000000020220701000180000NNM   20220505122117    4P0P  00003000000000516000000810232DE    TVYEV-TV006400630015
BI00B32DE    TCT2072        202206167114-4729-02             TERMINAL                 CCN000180000000180000FN00000000020220701000180000NNM   20220505122117    4P0P  00003000000000516000000810232DE    TVYEV-TV006400630015
BI00B32DE    TCT2073        202206237114-4729-02             TERMINAL                 CCN000150000000150000FN00000000020220701000150000NNM   20220505122117    4P0P  00003000000000516000000810232DE    TVYEV-TV006400630015
BI00B32DE    TCT2074        202206307114-4729-02             TERMINAL                 CCN000120000000120000FN00000000020220701000120000NNM   20220505122117    4P0P  00003000000000516000000810232DE    TVYEV-TV006400630015
BI00B32DE    TCT2075        202207077114-4729-02             TERMINAL                 CCN000210000000210000FN00000000020220701000210000NNM   20220505122117    4P0P  00003000000000516000000810232DE    TVYEV-TV006400630015
BI00B32DE    TCT2071        202206097114-5746-02             TERMINAL                 CCN000063000000063000FN00000000020220701000063000NNM   20220505122117    4P0P  00002100000000695100000988732DE    TVYEV-TV006400630015
BI00B32DE    TCT2072        202206167114-5746-02             TERMINAL                 CCN000084000000084000FN00000000020220701000084000NNM   20220505122117    4P0P  00002100000000695100000988732DE    TVYEV-TV006400630015
BI00B32DE    TCT2073        202206237114-5746-02             TERMINAL                 CCN000084000000084000FN00000000020220701000084000NNM   20220505122117    4P0P  00002100000000695100000988732DE    TVYEV-TV006400630015
BI00B32DE    TCT2074        202206307114-5746-02             TERMINAL                 CCN000063000000063000FN00000000020220701000063000NNM   20220505122117    4P0P  00002100000000695100000988732DE    TVYEV-TV006400630015
BI00B32DE    TCT2075        202207077114-5746-02             TERMINAL                 CCN000084000000084000FN00000000020220701000084000NNM   20220505122117    4P0P  00002100000000695100000988732DE    TVYEV-TV006400630015
BI00B32DE    TCT2074        202206307114-5747-02             TERMINAL                 CCN000018000000018000FN00000000020220701000018000NNM   20220505122117    4P0P  00001800000000626400000920032DE    TVYEV-TV006400630015
BI00B32DE    TCT2075        202207077114-5747-02             TERMINAL                 CCN000018000000018000FN00000000020220701000018000NNM   20220505122117    4P0P  00001800000000626400000920032DE    TVYEV-TV006400630015
BI00B32DE    TCT2074        202206307114-5748-02             TERMINAL                 CCN000012000000012000FN00000000020220701000012000NNM   20220505122117    4P0P  00001200000000444000000737632DE    TVYEV-TV006400630015
BI00B32DE    TCT2075        202207077114-5748-02             TERMINAL                 CCN000012000000012000FN00000000020220701000012000NNM   20220505122117    4P0P  00001200000000444000000737632DE    TVYEV-TV006400630015
BI00B32DE    TCT2072        202206167114-5753-02             TERMINAL                 CCN000027000000027000FN00000000020220701000027000NNM   20220505122117    4P0P  00002700000000847800001141432DE    TVYEV-TV006400630015
BI00B32DE    TCT2073        202206237114-5753-02             TERMINAL                 CCN000054000000054000FN00000000020220701000054000NNM   20220505122117    4P0P  00002700000000847800001141432DE    TVYEV-TV006400630015
BI00B32DE    TCT2074        202206307114-5753-02             TERMINAL                 CCN000027000000027000FN00000000020220701000027000NNM   20220505122117    4P0P  00002700000000847800001141432DE    TVYEV-TV006400630015
BI00B32DE    TCT2075        202207077114-5753-02             TERMINAL                 CCN000054000000054000FN00000000020220701000054000NNM   20220505122117    4P0P  00002700000000847800001141432DE    TVYEV-TV006400630015
BI00B32DE    TCT2072        202206167116-1685-02             TERMINAL                 CCN000312000000312000FN00000000020220701000312000NNM   20220505122117    4P0P  00002400000000897600001065232DE    TVYEV-TV005100280028
BI00B32DE    TCT2073        202206237116-1685-02             TERMINAL                 CCN000480000000480000FN00000000020220701000480000NNM   20220505122117    4P0P  00002400000000897600001065232DE    TVYEV-TV005100280028
BI00B32DE    TCT2074        202206307116-1685-02             TERMINAL                 CCN000384000000384000FN00000000020220701000384000NNM   20220505122117    4P0P  00002400000000897600001065232DE    TVYEV-TV005100280028
BI00B32DE    TCT2075        202207077116-1685-02             TERMINAL                 CCN000792000000792000FN00000000020220701000792000NNM   20220505122117    4P0P  00002400000000897600001065232DE    TVYEV-TV005100280028
BI00B32DE    TCT2072        202206167116-1686-02             TERMINAL                 CCN000021000000021000FN00000000020220701000021000NNM   20220505122117    4P0P  00002100000000869400001021632DE    TVYEV-TV005100280028
BI00B32DE    TCT2073        202206237116-1686-02             TERMINAL                 CCN000063000000063000FN00000000020220701000063000NNM   20220505122117    4P0P  00002100000000869400001021632DE    TVYEV-TV005100280028
BI00B32DE    TCT2074        202206307116-1686-02             TERMINAL                 CCN000042000000042000FN00000000020220701000042000NNM   20220505122117    4P0P  00002100000000869400001021632DE    TVYEV-TV005100280028
BI00B32DE    TCT2075        202207077116-1686-02             TERMINAL                 CCN000084000000084000FN00000000020220701000084000NNM   20220505122117    4P0P  00002100000000869400001021632DE    TVYEV-TV005100280028
BI00B32DE    TCT2074        202206307116-1688-02             TERMINAL FEMALE          CCN000021000000021000FN00000000020220701000021000NNM   20220505122117    4P0P  00002100000000299600000898832DE    TVYEV-TV005100280028
BI00B32DE    TCT2075        202207077116-1688-02             TERMINAL FEMALE          CCN000021000000021000FN00000000020220701000021000NNM   20220505122117    4P0P  00002100000000299600000898832DE    TVYEV-TV005100280028
BI00B32DE    TCT2072        202206167116-2640                TERMINAL                 CCN000018000000018000FN00000000020220701000018000NNM   20220505122117    4P0P  00001800000001018800001196632DE    TVYEV-TV005100280028
BI00B32DE    TCT2073        202206237116-2640                TERMINAL                 CCN000036000000036000FN00000000020220701000036000NNM   20220505122117    4P0P  00001800000001018800001196632DE    TVYEV-TV005100280028
BI00B32DE    TCT2074        202206307116-2640                TERMINAL                 CCN000018000000018000FN00000000020220701000018000NNM   20220505122117    4P0P  00001800000001018800001196632DE    TVYEV-TV005100280028
BI00B32DE    TCT2075        202207077116-2640                TERMINAL                 CCN000036000000036000FN00000000020220701000036000NNM   20220505122117    4P0P  00001800000001018800001196632DE    TVYEV-TV005100280028
BI00B32DE    TCT2072        202206167116-2641                TERMINAL                 CCN000018000000018000FN00000000020220701000018000NNM   20220505122117    4P0P  00001800000001161000001344632DE    TVYEV-TV005100280028
BI00B32DE    TCT2073        202206237116-2641                TERMINAL                 CCN000036000000036000FN00000000020220701000036000NNM   20220505122117    4P0P  00001800000001161000001344632DE    TVYEV-TV005100280028
BI00B32DE    TCT2074        202206307116-2641                TERMINAL                 CCN000018000000018000FN00000000020220701000018000NNM   20220505122117    4P0P  00001800000001161000001344632DE    TVYEV-TV005100280028
BI00B32DE    TCT2075        202207077116-2641                TERMINAL                 CCN000054000000054000FN00000000020220701000054000NNM   20220505122117    4P0P  00001800000001161000001344632DE    TVYEV-TV005100280028
BI00B32DE    TCT2072        202206167116-2891-02             TERMINAL                 CCN000195000000195000FN00000000020220701000195000NNM   20220505122117    4P0P  00001500000000982500001145932DE    TVYEV-TV005100280028
BI00B32DE    TCT2073        202206237116-2891-02             TERMINAL                 CCN000165000000165000FN00000000020220701000165000NNM   20220505122117    4P0P  00001500000000982500001145932DE    TVYEV-TV005100280028
BI00B32DE    TCT2074        202206307116-2891-02             TERMINAL                 CCN000135000000135000FN00000000020220701000135000NNM   20220505122117    4P0P  00001500000000982500001145932DE    TVYEV-TV005100280028
BI00B32DE    TCT2075        202207077116-2891-02             TERMINAL                 CCN000285000000285000FN00000000020220701000285000NNM   20220505122117    4P0P  00001500000000982500001145932DE    TVYEV-TV005100280028
BI00B32DE    TCT2072        202206167116-2892-02             TERMINAL                 CCN000072000000072000FN00000000020220701000072000NNM   20220505122117    4P0P  00001200000000818400000981832DE    TVYEV-TV005100280028
BI00B32DE    TCT2073        202206237116-2892-02             TERMINAL                 CCN000144000000144000FN00000000020220701000144000NNM   20220505122117    4P0P  00001200000000818400000981832DE    TVYEV-TV005100280028
BI00B32DE    TCT2074        202206307116-2892-02             TERMINAL                 CCN000120000000120000FN00000000020220701000120000NNM   20220505122117    4P0P  00001200000000818400000981832DE    TVYEV-TV005100280028
BI00B32DE    TCT2075        202207077116-2892-02             TERMINAL                 CCN000252000000252000FN00000000020220701000252000NNM   20220505122117    4P0P  00001200000000818400000981832DE    TVYEV-TV005100280028
BI00B32DE    TCT2072        202206167116-2893-02             TERMINAL                 CCN000132000000132000FN00000000020220701000132000NNM   20220505122117    4P0P  00001200000000895200001058632DE    TVYEV-TV005100280028
BI00B32DE    TCT2073        202206237116-2893-02             TERMINAL                 CCN000276000000276000FN00000000020220701000276000NNM   20220505122117    4P0P  00001200000000895200001058632DE    TVYEV-TV005100280028
BI00B32DE    TCT2074        202206307116-2893-02             TERMINAL                 CCN000228000000228000FN00000000020220701000228000NNM   20220505122117    4P0P  00001200000000895200001058632DE    TVYEV-TV005100280028
BI00B32DE    TCT2075        202207077116-2893-02             TERMINAL                 CCN000456000000456000FN00000000020220701000456000NNM   20220505122117    4P0P  00001200000000895200001058632DE    TVYEV-TV005100280028
BI00B32DE    TCT2075        202207077116-3154-08             TERMINAL                 CCN000027000000027000FN00000000020220701000027000NNM   20220505122117    4P0P  00002700000000475200000760432DE    TVYEV-TV006400630015
BI00B32DE    TCT2072        202206167116-4025                TERMINAL                 CCN000080000000080000FN00000000020220701000080000NNM   20220505122117    4P0P  00001600000000644800000975132DE    TVYEV-TV006400630017
BI00B32DE    TCT2073        202206237116-4025                TERMINAL                 CCN000112000000112000FN00000000020220701000112000NNM   20220505122117    4P0P  00001600000000644800000975132DE    TVYEV-TV006400630017
BI00B32DE    TCT2074        202206307116-4025                TERMINAL                 CCN000080000000080000FN00000000020220701000080000NNM   20220505122117    4P0P  00001600000000644800000975132DE    TVYEV-TV006400630017
BI00B32DE    TCT2075        202207077116-4025                TERMINAL                 CCN000176000000176000FN00000000020220701000176000NNM   20220505122117    4P0P  00001600000000644800000975132DE    TVYEV-TV006400630017
BI00B32DE    TCT2071        202206097116-4026                TERMINAL                 CCN000032000000032000FN00000000020220701000032000NNM   20220505122117    4P0P  00001600000000664000000994332DE    TVYEV-TV006400630017
BI00B32DE    TCT2072        202206167116-4026                TERMINAL                 CCN000112000000112000FN00000000020220701000112000NNM   20220505122117    4P0P  00001600000000664000000994332DE    TVYEV-TV006400630017
BI00B32DE    TCT2073        202206237116-4026                TERMINAL                 CCN000080000000080000FN00000000020220701000080000NNM   20220505122117    4P0P  00001600000000664000000994332DE    TVYEV-TV006400630017
BI00B32DE    TCT2074        202206307116-4026                TERMINAL                 CCN000064000000064000FN00000000020220701000064000NNM   20220505122117    4P0P  00001600000000664000000994332DE    TVYEV-TV006400630017
BI00B32DE    TCT2075        202207077116-4026                TERMINAL                 CCN000144000000144000FN00000000020220701000144000NNM   20220505122117    4P0P  00001600000000664000000994332DE    TVYEV-TV006400630017
BI00B32DE    TCT2072        202206167116-4028-08             TERMINAL FEMALE          CCN000128000000128000FN00000000020220701000128000NNM   20220505122117    4P0P  00001600000000652800000981532DE    TVYEV-TV006400630017
BI00B32DE    TCT2073        202206237116-4028-08             TERMINAL FEMALE          CCN000144000000144000FN00000000020220701000144000NNM   20220505122117    4P0P  00001600000000652800000981532DE    TVYEV-TV006400630017
BI00B32DE    TCT2074        202206307116-4028-08             TERMINAL FEMALE          CCN000112000000112000FN00000000020220701000112000NNM   20220505122117    4P0P  00001600000000652800000981532DE    TVYEV-TV006400630017
BI00B32DE    TCT2075        202207077116-4028-08             TERMINAL FEMALE          CCN000176000000176000FN00000000020220701000176000NNM   20220505122117    4P0P  00001600000000652800000981532DE    TVYEV-TV006400630017
BI00B32DE    TCT2072        202206167116-4031                TERMINAL                 CCN000007500000007500FN00000000020220701000007500NNM   20220505122117    4P0P  00000750000000619500000904732DE    TVYEV-TV006400630015
BI00B32DE    TCT2073        202206237116-4031                TERMINAL                 CCN000007500000007500FN00000000020220701000007500NNM   20220505122117    4P0P  00000750000000619500000904732DE    TVYEV-TV006400630015
BI00B32DE    TCT2075        202207077116-4031                TERMINAL                 CCN000015000000015000FN00000000020220701000015000NNM   20220505122117    4P0P  00000750000000619500000904732DE    TVYEV-TV006400630015
BI00B32DE    TCT2071        202206097116-4032                TERMINAL                 CCN000024000000024000FN00000000020220701000024000NNM   20220505122117    4P0P  00000600000000532800000818032DE    TVYEV-TV006400630015
BI00B32DE    TCT2072        202206167116-4032                TERMINAL                 CCN000048000000048000FN00000000020220701000048000NNM   20220505122117    4P0P  00000600000000532800000818032DE    TVYEV-TV006400630015
BI00B32DE    TCT2073        202206237116-4032                TERMINAL                 CCN000042000000042000FN00000000020220701000042000NNM   20220505122117    4P0P  00000600000000532800000818032DE    TVYEV-TV006400630015
BI00B32DE    TCT2074        202206307116-4032                TERMINAL                 CCN000030000000030000FN00000000020220701000030000NNM   20220505122117    4P0P  00000600000000532800000818032DE    TVYEV-TV006400630015
BI00B32DE    TCT2075        202207077116-4032                TERMINAL                 CCN000036000000036000FN00000000020220701000036000NNM   20220505122117    4P0P  00000600000000532800000818032DE    TVYEV-TV006400630015
BI00B32DE    TCT2072        202206167116-4037                TERMINAL                 CCN000018000000018000FN00000000020220701000018000NNM   20220505122117    4P0P  00000600000000600000000894232DE    TVYEV-TV006400630015
BI00B32DE    TCT2073        202206237116-4037                TERMINAL                 CCN000036000000036000FN00000000020220701000036000NNM   20220505122117    4P0P  00000600000000600000000894232DE    TVYEV-TV006400630015
BI00B32DE    TCT2074        202206307116-4037                TERMINAL                 CCN000030000000030000FN00000000020220701000030000NNM   20220505122117    4P0P  00000600000000600000000894232DE    TVYEV-TV006400630015
BI00B32DE    TCT2075        202207077116-4037                TERMINAL                 CCN000060000000060000FN00000000020220701000060000NNM   20220505122117    4P0P  00000600000000600000000894232DE    TVYEV-TV006400630015
BI00B32DE    TCT2071        202206097116-4102-02             TERMINAL                 CCN000012000000012000FN00000000020220701000012000NNM   20220505122117    4P0P  00001200000000553200000841432DE    TVYEV-TV006400630015
BI00B32DE    TCT2072        202206167116-4102-02             TERMINAL                 CCN000024000000024000FN00000000020220701000024000NNM   20220505122117    4P0P  00001200000000553200000841432DE    TVYEV-TV006400630015
BI00B32DE    TCT2074        202206307116-4102-02             TERMINAL                 CCN000012000000012000FN00000000020220701000012000NNM   20220505122117    4P0P  00001200000000553200000841432DE    TVYEV-TV006400630015
BI00B32DE    TCT2075        202207077116-4102-02             TERMINAL                 CCN000024000000024000FN00000000020220701000024000NNM   20220505122117    4P0P  00001200000000553200000841432DE    TVYEV-TV006400630015
BI00B32DE    TCT2072        202206167116-4103-02             TERMINAL                 CCN000012000000012000FN00000000020220701000012000NNM   20220505122117    4P0P  00001200000000571200000859432DE    TVYEV-TV006400630015
BI00B32DE    TCT2072        202206167116-4114-02             TERMINAL                 CCN000021000000021000FN00000000020220701000021000NNM   20220505122117    4P0P  00001050000000693000000981232DE    TVYEV-TV006400630015
BI00B32DE    TCT2073        202206237116-4114-02             TERMINAL                 CCN000010500000010500FN00000000020220701000010500NNM   20220505122117    4P0P  00001050000000693000000981232DE    TVYEV-TV006400630015
BI00B32DE    TCT2074        202206307116-4114-02             TERMINAL                 CCN000010500000010500FN00000000020220701000010500NNM   20220505122117    4P0P  00001050000000693000000981232DE    TVYEV-TV006400630015
BI00B32DE    TCT2075        202207077116-4114-02             TERMINAL                 CCN000031500000031500FN00000000020220701000031500NNM   20220505122117    4P0P  00001050000000693000000981232DE    TVYEV-TV006400630015
BI00B32DE    TCT2073        202206237116-4115-02             TERMINAL                 CCN000008400000008400FN00000000020220701000008400NNM   20220505122117    4P0P  00000840000000593000000881232DE    TVYEV-TV006400630015
BI00B32DE    TCT2074        202206307116-4115-02             TERMINAL                 CCN000008400000008400FN00000000020220701000008400NNM   20220505122117    4P0P  00000840000000593000000881232DE    TVYEV-TV006400630015
BI00B32DE    TCT2075        202207077116-4115-02             TERMINAL                 CCN000008400000008400FN00000000020220701000008400NNM   20220505122117    4P0P  00000840000000593000000881232DE    TVYEV-TV006400630015
BI00B32DE    TCT2072        202206167116-4116-02             TERMINAL                 CCN000013800000013800FN00000000020220701000013800NNM   20220505122117    4P0P  00000690000000517500000805732DE    TVYEV-TV006400630015
BI00B32DE    TCT2073        202206237116-4116-02             TERMINAL                 CCN000013800000013800FN00000000020220701000013800NNM   20220505122117    4P0P  00000690000000517500000805732DE    TVYEV-TV006400630015
BI00B32DE    TCT2074        202206307116-4116-02             TERMINAL                 CCN000006900000006900FN00000000020220701000006900NNM   20220505122117    4P0P  00000690000000517500000805732DE    TVYEV-TV006400630015
BI00B32DE    TCT2075        202207077116-4116-02             TERMINAL                 CCN000027600000027600FN00000000020220701000027600NNM   20220505122117    4P0P  00000690000000517500000805732DE    TVYEV-TV006400630015
BI00B32DE    TCT2071        202206097116-4231-02             TERMINAL                 CCN000182000000182000FN00000000020220701000182000NNM   20220505122117    4P0P  00002600000000683800001012532DE    TVYEV-TV006400630017
BI00B32DE    TCT2072        202206167116-4231-02             TERMINAL                 CCN000234000000234000FN00000000020220701000234000NNM   20220505122117    4P0P  00002600000000683800001012532DE    TVYEV-TV006400630017
BI00B32DE    TCT2073        202206237116-4231-02             TERMINAL                 CCN000182000000182000FN00000000020220701000182000NNM   20220505122117    4P0P  00002600000000683800001012532DE    TVYEV-TV006400630017
BI00B32DE    TCT2074        202206307116-4231-02             TERMINAL                 CCN000156000000156000FN00000000020220701000156000NNM   20220505122117    4P0P  00002600000000683800001012532DE    TVYEV-TV006400630017
BI00B32DE    TCT2075        202207077116-4231-02             TERMINAL                 CCN000260000000260000FN00000000020220701000260000NNM   20220505122117    4P0P  00002600000000683800001012532DE    TVYEV-TV006400630017
BI00B32DE    TCT2072        202206167116-4415-02             TERMINAL                 CCN000038000000038000FN00000000020220701000038000NNM   20220505122117    4P0P  00003800000000596600000925732DE    TVYEV-TV006400630017
BI00B32DE    TCT2073        202206237116-4415-02             TERMINAL                 CCN000152000000152000FN00000000020220701000152000NNM   20220505122117    4P0P  00003800000000596600000925732DE    TVYEV-TV006400630017
BI00B32DE    TCT2074        202206307116-4415-02             TERMINAL                 CCN000114000000114000FN00000000020220701000114000NNM   20220505122117    4P0P  00003800000000596600000925732DE    TVYEV-TV006400630017
BI00B32DE    TCT2075        202207077116-4415-02             TERMINAL                 CCN000190000000190000FN00000000020220701000190000NNM   20220505122117    4P0P  00003800000000596600000925732DE    TVYEV-TV006400630017
BI00B32DE    TCT2072        202206167116-4416-02             TERMINAL                 CCN000064000000064000FN00000000020220701000064000NNM   20220505122117    4P0P  00003200000000518400000847132DE    TVYEV-TV006400630017
BI00B32DE    TCT2073        202206237116-4416-02             TERMINAL                 CCN000032000000032000FN00000000020220701000032000NNM   20220505122117    4P0P  00003200000000518400000847132DE    TVYEV-TV006400630017
BI00B32DE    TCT2074        202206307116-4416-02             TERMINAL                 CCN000032000000032000FN00000000020220701000032000NNM   20220505122117    4P0P  00003200000000518400000847132DE    TVYEV-TV006400630017
BI00B32DE    TCT2075        202207077116-4416-02             TERMINAL                 CCN000064000000064000FN00000000020220701000064000NNM   20220505122117    4P0P  00003200000000518400000847132DE    TVYEV-TV006400630017
BI00B32DE    TCT2073        202206237116-4486-02             TERMINAL                 CCN000056000000056000FN00000000020220701000056000NNM   20220505122117    4P0P  00002800000000666400000995132DE    TVYEV-TV006400630017
BI00B32DE    TCT2074        202206307116-4486-02             TERMINAL                 CCN000056000000056000FN00000000020220701000056000NNM   20220505122117    4P0P  00002800000000666400000995132DE    TVYEV-TV006400630017
BI00B32DE    TCT2075        202207077116-4486-02             TERMINAL                 CCN000112000000112000FN00000000020220701000112000NNM   20220505122117    4P0P  00002800000000666400000995132DE    TVYEV-TV006400630017
BI00B32DE    TCT2072        202206167116-5035-02             TERMINAL                 CCN000075000000075000FN00000000020220701000075000NNM   20220505122117    4P0P  00001500000000543000000828232DE    TVYEV-TV006400630015
BI00B32DE    TCT2073        202206237116-5035-02             TERMINAL                 CCN000090000000090000FN00000000020220701000090000NNM   20220505122117    4P0P  00001500000000543000000828232DE    TVYEV-TV006400630015
BI00B32DE    TCT2074        202206307116-5035-02             TERMINAL                 CCN000075000000075000FN00000000020220701000075000NNM   20220505122117    4P0P  00001500000000543000000828232DE    TVYEV-TV006400630015
BI00B32DE    TCT2075        202207077116-5035-02             TERMINAL                 CCN000120000000120000FN00000000020220701000120000NNM   20220505122117    4P0P  00001500000000543000000828232DE    TVYEV-TV006400630015
BI00B32DE    TCT2071        202206097116-5041-02             TERMINAL                 CCN000090000000090000FN00000000020220701000090000NNM   20220505122117    4P0P  00001500000000583500000868732DE    TVYEV-TV006400630015
BI00B32DE    TCT2072        202206167116-5041-02             TERMINAL                 CCN000270000000270000FN00000000020220701000270000NNM   20220505122117    4P0P  00001500000000583500000868732DE    TVYEV-TV006400630015
BI00B32DE    TCT2073        202206237116-5041-02             TERMINAL                 CCN000240000000240000FN00000000020220701000240000NNM   20220505122117    4P0P  00001500000000583500000868732DE    TVYEV-TV006400630015
BI00B32DE    TCT2074        202206307116-5041-02             TERMINAL                 CCN000180000000180000FN00000000020220701000180000NNM   20220505122117    4P0P  00001500000000583500000868732DE    TVYEV-TV006400630015
BI00B32DE    TCT2075        202207077116-5041-02             TERMINAL                 CCN000240000000240000FN00000000020220701000240000NNM   20220505122117    4P0P  00001500000000583500000868732DE    TVYEV-TV006400630015
BI00B32DE    TCT2071        202206097116-5042-02             TERMINAL                 CCN000094500000094500FN00000000020220701000094500NNM   20220505122117    4P0P  00001350000000560300000845532DE    TVYEV-TV006400630015
BI00B32DE    TCT2072        202206167116-5042-02             TERMINAL                 CCN000135000000135000FN00000000020220701000135000NNM   20220505122117    4P0P  00001350000000560300000845532DE    TVYEV-TV006400630015
BI00B32DE    TCT2073        202206237116-5042-02             TERMINAL                 CCN000108000000108000FN00000000020220701000108000NNM   20220505122117    4P0P  00001350000000560300000845532DE    TVYEV-TV006400630015
BI00B32DE    TCT2074        202206307116-5042-02             TERMINAL                 CCN000081000000081000FN00000000020220701000081000NNM   20220505122117    4P0P  00001350000000560300000845532DE    TVYEV-TV006400630015
BI00B32DE    TCT2075        202207077116-5042-02             TERMINAL                 CCN000135000000135000FN00000000020220701000135000NNM   20220505122117    4P0P  00001350000000560300000845532DE    TVYEV-TV006400630015
BI00B32DE    TCT2072        202206167116-5043-02             TERMINAL FEMALE          CCN000036000000036000FN00000000020220701000036000NNM   20220505122117    4P0P  00001200000000559200000844432DE    TVYEV-TV006400630015
BI00B32DE    TCT2073        202206237116-5043-02             TERMINAL FEMALE          CCN000108000000108000FN00000000020220701000108000NNM   20220505122117    4P0P  00001200000000559200000844432DE    TVYEV-TV006400630015
BI00B32DE    TCT2074        202206307116-5043-02             TERMINAL FEMALE          CCN000084000000084000FN00000000020220701000084000NNM   20220505122117    4P0P  00001200000000559200000844432DE    TVYEV-TV006400630015
BI00B32DE    TCT2075        202207077116-5043-02             TERMINAL FEMALE          CCN000132000000132000FN00000000020220701000132000NNM   20220505122117    4P0P  00001200000000559200000844432DE    TVYEV-TV006400630015
BI00B32DE    TCT2071        202206097116-5044-02             TERMINAL                 CCN000144000000144000FN00000000020220701000144000NNM   20220505122117    4P0P  00001600000000641600000986332DE    TVYEV-TV006400630017
BI00B32DE    TCT2072        202206167116-5044-02             TERMINAL                 CCN000304000000304000FN00000000020220701000304000NNM   20220505122117    4P0P  00001600000000641600000986332DE    TVYEV-TV006400630017
BI00B32DE    TCT2073        202206237116-5044-02             TERMINAL                 CCN000272000000272000FN00000000020220701000272000NNM   20220505122117    4P0P  00001600000000641600000986332DE    TVYEV-TV006400630017
BI00B32DE    TCT2074        202206307116-5044-02             TERMINAL                 CCN000192000000192000FN00000000020220701000192000NNM   20220505122117    4P0P  00001600000000641600000986332DE    TVYEV-TV006400630017
BI00B32DE    TCT2075        202207077116-5044-02             TERMINAL                 CCN000256000000256000FN00000000020220701000256000NNM   20220505122117    4P0P  00001600000000641600000986332DE    TVYEV-TV006400630017
BI00B32DE    TCT2072        202206167116-5045-02             TERMINAL                 CCN000096000000096000FN00000000020220701000096000NNM   20220505122117    4P0P  00001600000000678400001007132DE    TVYEV-TV006400630017
BI00B32DE    TCT2073        202206237116-5045-02             TERMINAL                 CCN000160000000160000FN00000000020220701000160000NNM   20220505122117    4P0P  00001600000000678400001007132DE    TVYEV-TV006400630017
BI00B32DE    TCT2074        202206307116-5045-02             TERMINAL                 CCN000128000000128000FN00000000020220701000128000NNM   20220505122117    4P0P  00001600000000678400001007132DE    TVYEV-TV006400630017
BI00B32DE    TCT2075        202207077116-5045-02             TERMINAL                 CCN000208000000208000FN00000000020220701000208000NNM   20220505122117    4P0P  00001600000000678400001007132DE    TVYEV-TV006400630017
BI00B32DE    TCT2072        202206167116-5046-02             TERMINAL                 CCN000036000000036000FN00000000020220701000036000NNM   20220505122117    4P0P  00001200000000544800000873532DE    TVYEV-TV006400630017
BI00B32DE    TCT2073        202206237116-5046-02             TERMINAL                 CCN000036000000036000FN00000000020220701000036000NNM   20220505122117    4P0P  00001200000000544800000873532DE    TVYEV-TV006400630017
BI00B32DE    TCT2074        202206307116-5046-02             TERMINAL                 CCN000036000000036000FN00000000020220701000036000NNM   20220505122117    4P0P  00001200000000544800000873532DE    TVYEV-TV006400630017
BI00B32DE    TCT2075        202207077116-5046-02             TERMINAL                 CCN000048000000048000FN00000000020220701000048000NNM   20220505122117    4P0P  00001200000000544800000873532DE    TVYEV-TV006400630017
BI00B32DE    TCT2074        202206307116-5750-02             TERMINAL                 CCN000015000000015000FN00000000020220701000015000NNM   20220505122117    4P0P  00001500000000457500000742732DE    TVYEV-TV006400630015
BI00B32DE    TCT2075        202207077116-5750-02             TERMINAL                 CCN000015000000015000FN00000000020220701000015000NNM   20220505122117    4P0P  00001500000000457500000742732DE    TVYEV-TV006400630015
BI00B32DE    TCT2071        202206097116-5751-02             TERMINAL                 CCN000012000000012000FN00000000020220701000012000NNM   20220505122117    4P0P  00001200000000379200000664432DE    TVYEV-TV006400630015
BI00B32DE    TCT2072        202206167116-5751-02             TERMINAL                 CCN000024000000024000FN00000000020220701000024000NNM   20220505122117    4P0P  00001200000000379200000664432DE    TVYEV-TV006400630015
BI00B32DE    TCT2073        202206237116-5751-02             TERMINAL                 CCN000012000000012000FN00000000020220701000012000NNM   20220505122117    4P0P  00001200000000379200000664432DE    TVYEV-TV006400630015
BI00B32DE    TCT2074        202206307116-5751-02             TERMINAL                 CCN000012000000012000FN00000000020220701000012000NNM   20220505122117    4P0P  00001200000000379200000664432DE    TVYEV-TV006400630015
BI00B32DE    TCT2075        202207077116-5751-02             TERMINAL                 CCN000024000000024000FN00000000020220701000024000NNM   20220505122117    4P0P  00001200000000379200000664432DE    TVYEV-TV006400630015
BI00B32DE    TCT2072        202206167116-6041                TERMINAL                 CCN000009000000009000FN00000000020220701000009000NNM   20220505122117    4P0P  00000450000000716000001009632DE    TVYEV-TV006400630015
BI00B32DE    TCT2073        202206237116-6041                TERMINAL                 CCN000004500000004500FN00000000020220701000004500NNM   20220505122117    4P0P  00000450000000716000001009632DE    TVYEV-TV006400630015
BI00B32DE    TCT2074        202206307116-6041                TERMINAL                 CCN000004500000004500FN00000000020220701000004500NNM   20220505122117    4P0P  00000450000000716000001009632DE    TVYEV-TV006400630015
BI00B32DE    TCT2075        202207077116-6041                TERMINAL                 CCN000013500000013500FN00000000020220701000013500NNM   20220505122117    4P0P  00000450000000716000001009632DE    TVYEV-TV006400630015
BI00B32DE    TCT2073        202206237116-6042                TERMINAL                 CCN000006000000006000FN00000000020220701000006000NNM   20220505122117    4P0P  00000300000000523800000856132DE    TVYEV-TV006400630015
BI00B32DE    TCT2074        202206307116-6042                TERMINAL                 CCN000009000000009000FN00000000020220701000009000NNM   20220505122117    4P0P  00000300000000523800000856132DE    TVYEV-TV006400630015
BI00B32DE    TCT2075        202207077116-6042                TERMINAL                 CCN000018000000018000FN00000000020220701000018000NNM   20220505122117    4P0P  00000300000000523800000856132DE    TVYEV-TV006400630015
BI00B32DE    TCT2072        202206167126-8853-02             TERMINAL                 CCN000180000000180000FN00000000020220701000180000NNM   20220505122117    4P0P  00000750000000562500000847732DE    TVYEV-TV006400630015
BI00B32DE    TCT2073        202206237126-8853-02             TERMINAL                 CCN000180000000180000FN00000000020220701000180000NNM   20220505122117    4P0P  00000750000000562500000847732DE    TVYEV-TV006400630015
BI00B32DE    TCT2074        202206307126-8853-02             TERMINAL                 CCN000135000000135000FN00000000020220701000135000NNM   20220505122117    4P0P  00000750000000562500000847732DE    TVYEV-TV006400630015
BI00B32DE    TCT2075        202207077126-8853-02             TERMINAL                 CCN000165000000165000FN00000000020220701000165000NNM   20220505122117    4P0P  00000750000000562500000847732DE    TVYEV-TV006400630015
BI00B32DE    TCT2072        202206167126-8854-02             TERMINAL                 CCN000262500000262500FN00000000020220701000262500NNM   20220505122117    4P0P  00000750000000604500000889732DE    TVYEV-TV006400630015
BI00B32DE    TCT2073        202206237126-8854-02             TERMINAL                 CCN000202500000202500FN00000000020220701000202500NNM   20220505122117    4P0P  00000750000000604500000889732DE    TVYEV-TV006400630015
BI00B32DE    TCT2074        202206307126-8854-02             TERMINAL                 CCN000165000000165000FN00000000020220701000165000NNM   20220505122117    4P0P  00000750000000604500000889732DE    TVYEV-TV006400630015
BI00B32DE    TCT2075        202207077126-8854-02             TERMINAL                 CCN000210000000210000FN00000000020220701000210000NNM   20220505122117    4P0P  00000750000000604500000889732DE    TVYEV-TV006400630015
BI00B32DE    TCT2072        202206167126-8855-02             TERMINAL                 CCN000144000000144000FN00000000020220701000144000NNM   20220505122117    4P0P  00000600000000510600000795832DE    TVYEV-TV006400630015
BI00B32DE    TCT2073        202206237126-8855-02             TERMINAL                 CCN000222000000222000FN00000000020220701000222000NNM   20220505122117    4P0P  00000600000000510600000795832DE    TVYEV-TV006400630015
BI00B32DE    TCT2074        202206307126-8855-02             TERMINAL                 CCN000180000000180000FN00000000020220701000180000NNM   20220505122117    4P0P  00000600000000510600000795832DE    TVYEV-TV006400630015
BI00B32DE    TCT2075        202207077126-8855-02             TERMINAL                 CCN000354000000354000FN00000000020220701000354000NNM   20220505122117    4P0P  00000600000000510600000795832DE    TVYEV-TV006400630015
BI00B32DE    TCT2072        202206167158-3006-90             RUBBER STOPPER           CCN000600000000600000FN00000000020220701000600000NNM   20220505122117    1C0C  00002000000000330600000386032DE    TVYEV-TV002700430014
BI00B32DE    TCT2073        202206237158-3006-90             RUBBER STOPPER           CCN000520000000520000FN00000000020220701000520000NNM   20220505122117    1C0C  00002000000000330600000386032DE    TVYEV-TV002700430014
BI00B32DE    TCT2074        202206307158-3006-90             RUBBER STOPPER           CCN000420000000420000FN00000000020220701000420000NNM   20220505122117    1C0C  00002000000000330600000386032DE    TVYEV-TV002700430014
BI00B32DE    TCT2075        202207077158-3006-90             RUBBER STOPPER           CCN000720000000720000FN00000000020220701000720000NNM   20220505122117    1C0C  00002000000000330600000386032DE    TVYEV-TV002700430014
BI00B32DE    TCT2071        202206097158-3022-80             RUBBER STOPPER           CCN000005000000005000FN00000000020220701000005000NNM   20220505122117    1C0C  00000500000000467500000524032DE    TVYEV-TV002700430014
BI00B32DE    TCT2075        202207077158-3022-80             RUBBER STOPPER           CCN000005000000005000FN00000000020220701000005000NNM   20220505122117    1C0C  00000500000000467500000524032DE    TVYEV-TV002700430014
BI00B32DE    TCT2073        202206237158-3070-80             RUBBER STOPPER           CCN000040000000040000FN00000000020220701000040000NNM   20220505122117    1C0C  00004000000000276000000333332DE    TVYEV-TV002700430014
BI00B32DE    TCT2074        202206307158-3070-80             RUBBER STOPPER           CCN000040000000040000FN00000000020220701000040000NNM   20220505122117    1C0C  00004000000000276000000333332DE    TVYEV-TV002700430014
BI00B32DE    TCT2075        202207077158-3070-80             RUBBER STOPPER           CCN000080000000080000FN00000000020220701000080000NNM   20220505122117    1C0C  00004000000000276000000333332DE    TVYEV-TV002700430014
BI00B32DE    TCT2072        202206167158-3165-90             WIRE SEAL                CCN000040000000040000FN00000000020220701000040000NNM   20220505122117    1C0C  00004000000000124000000172432DE    TVYEV-TV004300270014
BI00B32DE    TCT2073        202206237158-3165-90             WIRE SEAL                CCN000080000000080000FN00000000020220701000080000NNM   20220505122117    1C0C  00004000000000124000000172432DE    TVYEV-TV004300270014
BI00B32DE    TCT2074        202206307158-3165-90             WIRE SEAL                CCN000080000000080000FN00000000020220701000080000NNM   20220505122117    1C0C  00004000000000124000000172432DE    TVYEV-TV004300270014
BI00B32DE    TCT2075        202207077158-3165-90             WIRE SEAL                CCN000120000000120000FN00000000020220701000120000NNM   20220505122117    1C0C  00004000000000124000000172432DE    TVYEV-TV004300270014
BI00B32DE    TCT2072        202206167158-3166-60             WIRE SEAL                CCN000040000000040000FN00000000020220701000040000NNM   20220505122117    1C0C  00004000000000104000000152432DE    TVYEV-TV002700430014
BI00B32DE    TCT2073        202206237158-3166-60             WIRE SEAL                CCN000080000000080000FN00000000020220701000080000NNM   20220505122117    1C0C  00004000000000104000000152432DE    TVYEV-TV002700430014
BI00B32DE    TCT2074        202206307158-3166-60             WIRE SEAL                CCN000040000000040000FN00000000020220701000040000NNM   20220505122117    1C0C  00004000000000104000000152432DE    TVYEV-TV002700430014
BI00B32DE    TCT2075        202207077158-3166-60             WIRE SEAL                CCN000120000000120000FN00000000020220701000120000NNM   20220505122117    1C0C  00004000000000104000000152432DE    TVYEV-TV002700430014
BI00B32DE    TCT2072        202206167158-3167-80             WIRE SEAL                CCN000060000000060000FN00000000020220701000060000NNM   20220505122117    1C0C  00002000000000048000000109032DE    TVYEV-TV002700430014
BI00B32DE    TCT2073        202206237158-3167-80             WIRE SEAL                CCN000040000000040000FN00000000020220701000040000NNM   20220505122117    1C0C  00002000000000048000000109032DE    TVYEV-TV002700430014
BI00B32DE    TCT2074        202206307158-3167-80             WIRE SEAL                CCN000020000000020000FN00000000020220701000020000NNM   20220505122117    1C0C  00002000000000048000000109032DE    TVYEV-TV002700430014
BI00B32DE    TCT2075        202207077158-3167-80             WIRE SEAL                CCN000060000000060000FN00000000020220701000060000NNM   20220505122117    1C0C  00002000000000048000000109032DE    TVYEV-TV002700430014
BI00B32DE    TCT2075        202207077195-1480-02             TERMINAL MALE            CCN000024000000024000FN00000000020220701000024000NNM   20220505122117    4P0P  00002400000000422400000716632DE    TVYEV-TV006400630015
BI00B32DE    TCT2073        202206237196-0510-02             TERMINAL                 CCN000024000000024000FN00000000020220701000024000NNM   20220505122117    4P0P  00002400000000871200001034632DE    TVYEV-TV002800510028
BI00B32DE    TCT2074        202206307196-0510-02             TERMINAL                 CCN000048000000048000FN00000000020220701000048000NNM   20220505122117    4P0P  00002400000000871200001034632DE    TVYEV-TV002800510028
BI00B32DE    TCT2075        202207077196-0510-02             TERMINAL                 CCN000072000000072000FN00000000020220701000072000NNM   20220505122117    4P0P  00002400000000871200001034632DE    TVYEV-TV002800510028
BI00B32DE    TCT2074        202206307196-0511-02             TERMINAL                 CCN000024000000024000FN00000000020220701000024000NNM   20220505122117    4P0P  00002400000000916800001080232DE    TVYEV-TV002800510028
BI00B32DE    TCT2073        202206237196-0550-02             TERMINAL ALUMINIUM       CCN000032000000032000FN00000000020220701000032000NNM   20220505122117    4P0P  00003200000000515200000901632DE    TVYEV-TV006400630017
BI00B32DE    TCT2075        202207077196-1103-02             TERMINAL                 CCN000022500000022500FN00000000020220701000022500NNM   20220505122117    4P0P  00002250000000429800000715032DE    TVYEV-TV006400630015
BI00B32DE    TCT2075        202207077196-1934-02             TERMINAL FEMALE          CCN000019500000019500FN00000000020220701000019500NNM   20220505122117    4P0P  00001950000000561600000846832DE    TVYEV-TV006400630015
BI00B32DE    TCT2075        202207077196-1939-02             TERMINAL FEMALE          CCN000015000000015000FN00000000020220701000015000NNM   20220505122117    4P0P  00001500000000574500000862732DE    TVYEV-TV006400630015
BI00B32DE    TCT2075        202207077196-1943-02             TERMINAL FEMALE          CCN000012000000012000FN00000000020220701000012000NNM   20220505122117    4P0P  00001200000000492000000777232DE    TVYEV-TV006400630015
BI00B32DE    TCT2075        202207077282-4576                HOUSING MALE ASS'Y       CCN000002400000002400FN00000000020220701000002400NNM   20220505122117    4N0N  00000240000000808800001028832DE    TVYEV-TV005500360039
BI00B32DE    TCT2072        202206167283-1020-30             CONNECTOR                CCN000006000000006000FN00000000020220701000006000NNM   20220505122117    4N0N  00000600000000840000001064032DE    TVYEV-TV005600390040
BI00B32DE    TCT2072        202206167283-1057-30             CONNECTOR HOUSING        CCN000000960000000960FN00000000020220701000000960NNM   20220505122117    4N0N  00000096000000925400001075432DE    TVYEV-TV005500360039
BI00B32DE    TCT2073        202206237283-1057-30             CONNECTOR HOUSING        CCN000000960000000960FN00000000020220701000000960NNM   20220505122117    4N0N  00000096000000925400001075432DE    TVYEV-TV005500360039
BI00B32DE    TCT2075        202207077283-1057-30             CONNECTOR HOUSING        CCN000000960000000960FN00000000020220701000000960NNM   20220505122117    4N0N  00000096000000925400001075432DE    TVYEV-TV005500360039
BI00B32DE    TCT2072        202206167283-1222-40             CONNECTOR HOUSING        CCN000002400000002400FN00000000020220701000002400NNM   20220505122117    4N0N  00000120000000858000001032732DE    TVYEV-TV005500360039
BI00B32DE    TCT2073        202206237283-1222-40             CONNECTOR HOUSING        CCN000002400000002400FN00000000020220701000002400NNM   20220505122117    4N0N  00000120000000858000001032732DE    TVYEV-TV005500360039
BI00B32DE    TCT2074        202206307283-1222-40             CONNECTOR HOUSING        CCN000001200000001200FN00000000020220701000001200NNM   20220505122117    4N0N  00000120000000858000001032732DE    TVYEV-TV005500360039
BI00B32DE    TCT2075        202207077283-1222-40             CONNECTOR HOUSING        CCN000003600000003600FN00000000020220701000003600NNM   20220505122117    4N0N  00000120000000858000001032732DE    TVYEV-TV005500360039
BI00B32DE    TCT2072        202206167283-1288-10             CONNECTOR HOUSING        CCN000004800000004800FN00000000020220701000004800NNM   20220505122117    1N0N  00000120000001381000001637032DE    TVYEV-TV005600390040
BI00B32DE    TCT2073        202206237283-1288-10             CONNECTOR HOUSING        CCN000009600000009600FN00000000020220701000009600NNM   20220505122117    1N0N  00000120000001381000001637032DE    TVYEV-TV005600390040
BI00B32DE    TCT2074        202206307283-1288-10             CONNECTOR HOUSING        CCN000012000000012000FN00000000020220701000012000NNM   20220505122117    1N0N  00000120000001381000001637032DE    TVYEV-TV005600390040
BI00B32DE    TCT2075        202207077283-1288-10             CONNECTOR HOUSING        CCN000012000000012000FN00000000020220701000012000NNM   20220505122117    1N0N  00000120000001381000001637032DE    TVYEV-TV005600390040
BI00B32DE    TCT2072        202206167283-1288-40             CONNECTOR HOUSING        CCN000003600000003600FN00000000020220701000003600NNM   20220505122117    1N0N  00000120000001382000001640732DE    TVYEV-TV005600390040
BI00B32DE    TCT2073        202206237283-1288-40             CONNECTOR HOUSING        CCN000002400000002400FN00000000020220701000002400NNM   20220505122117    1N0N  00000120000001382000001640732DE    TVYEV-TV005600390040
BI00B32DE    TCT2074        202206307283-1288-40             CONNECTOR HOUSING        CCN000001200000001200FN00000000020220701000001200NNM   20220505122117    1N0N  00000120000001382000001640732DE    TVYEV-TV005600390040
BI00B32DE    TCT2075        202207077283-1288-40             CONNECTOR HOUSING        CCN000003600000003600FN00000000020220701000003600NNM   20220505122117    1N0N  00000120000001382000001640732DE    TVYEV-TV005600390040
BI00B32DE    TCT2072        202206167283-1289-30             CONNECTOR HOUSING        CCN000000600000000600FN00000000020220701000000600NNM   20220505122117    1N0N  00000060000000675600000820632DE    TVYEV-TV005400370024
BI00B32DE    TCT2073        202206237283-1289-30             CONNECTOR HOUSING        CCN000001200000001200FN00000000020220701000001200NNM   20220505122117    1N0N  00000060000000675600000820632DE    TVYEV-TV005400370024
BI00B32DE    TCT2074        202206307283-1289-30             CONNECTOR HOUSING        CCN000000600000000600FN00000000020220701000000600NNM   20220505122117    1N0N  00000060000000675600000820632DE    TVYEV-TV005400370024
BI00B32DE    TCT2075        202207077283-1289-30             CONNECTOR HOUSING        CCN000001200000001200FN00000000020220701000001200NNM   20220505122117    1N0N  00000060000000675600000820632DE    TVYEV-TV005400370024
BI00B32DE    TCT2071        202206097283-1289-40             CONNECTOR HOUSING        CCN000003600000003600FN00000000020220701000003600NNM   20220505122117    1N0N  00000060000000679800000824832DE    TVYEV-TV005400370024
BI00B32DE    TCT2072        202206167283-1289-40             CONNECTOR HOUSING        CCN000004800000004800FN00000000020220701000004800NNM   20220505122117    1N0N  00000060000000679800000824832DE    TVYEV-TV005400370024
BI00B32DE    TCT2073        202206237283-1289-40             CONNECTOR HOUSING        CCN000004200000004200FN00000000020220701000004200NNM   20220505122117    1N0N  00000060000000679800000824832DE    TVYEV-TV005400370024
BI00B32DE    TCT2074        202206307283-1289-40             CONNECTOR HOUSING        CCN000003000000003000FN00000000020220701000003000NNM   20220505122117    1N0N  00000060000000679800000824832DE    TVYEV-TV005400370024
BI00B32DE    TCT2075        202207077283-1289-40             CONNECTOR HOUSING        CCN000005400000005400FN00000000020220701000005400NNM   20220505122117    1N0N  00000060000000679800000824832DE    TVYEV-TV005400370024
BI00B32DE    TCT2071        202206097283-3013-30             CONNECTOR                CCN000002000000002000FN00000000020220701000002000NNM   20220505122117    4N0N  00000200000001138000001284032DE    TVYEV-TV005600390040
BI00B32DE    TCT2072        202206167283-3013-30             CONNECTOR                CCN000002000000002000FN00000000020220701000002000NNM   20220505122117    4N0N  00000200000001138000001284032DE    TVYEV-TV005600390040
BI00B32DE    TCT2074        202206307283-3013-30             CONNECTOR                CCN000002000000002000FN00000000020220701000002000NNM   20220505122117    4N0N  00000200000001138000001284032DE    TVYEV-TV005600390040
BI00B32DE    TCT2072        202206167283-4576-30             HOUSING FEMALE ASS'Y     CCN000004800000004800FN00000000020220701000004800NNM   20220505122117    4N0N  00000480000000651300000871332DE    TVYEV-TV005500360039
BI00B32DE    TCT2073        202206237283-4576-30             HOUSING FEMALE ASS'Y     CCN000004800000004800FN00000000020220701000004800NNM   20220505122117    4N0N  00000480000000651300000871332DE    TVYEV-TV005500360039
BI00B32DE    TCT2075        202207077283-4576-30             HOUSING FEMALE ASS'Y     CCN000004800000004800FN00000000020220701000004800NNM   20220505122117    4N0N  00000480000000651300000871332DE    TVYEV-TV005500360039
BI00B32DE    TCT2075        202207077283-4576-40             HOUSING FEMALE ASS'Y     CCN000004800000004800FN00000000020220701000004800NNM   20220505122117    4N0N  00000480000000651300000871332DE    TVYEV-TV005500360039
BI00B32DE    TCT2072        202206167283-4576-90             HOUSING FEMALE ASS'Y     CCN000004800000004800FN00000000020220701000004800NNM   20220505122117    4N0N  00000480000000651300000871332DE    TVYEV-TV005500360039
BI00B32DE    TCT2075        202207077283-4576-90             HOUSING FEMALE ASS'Y     CCN000004800000004800FN00000000020220701000004800NNM   20220505122117    4N0N  00000480000000651300000871332DE    TVYEV-TV005500360039
BI00B32DE    TCT2075        202207077283-4577                CONNECTOR HOUSING        CCN000004800000004800FN00000000020220701000004800NNM   20220505122117    4N0N  00000480000000916800001136832DE    TVYEV-TV005500360039
BI00B32DE    TCT2073        202206237283-4577-40             CONNECTOR HOUSING        CCN000004800000004800FN00000000020220701000004800NNM   20220505122117    4N0N  00000480000000916800001136832DE    TVYEV-TV005500360039
BI00B32DE    TCT2072        202206167283-4855-40             CONNECTOR HOUSING        CCN000004800000004800FN00000000020220701000004800NNM   20220505122117    4N0N  00000240000001188400001400032DE    TVYEV-TV005600360039
BI00B32DE    TCT2073        202206237283-4855-40             CONNECTOR HOUSING        CCN000004800000004800FN00000000020220701000004800NNM   20220505122117    4N0N  00000240000001188400001400032DE    TVYEV-TV005600360039
BI00B32DE    TCT2074        202206307283-4855-40             CONNECTOR HOUSING        CCN000004800000004800FN00000000020220701000004800NNM   20220505122117    4N0N  00000240000001188400001400032DE    TVYEV-TV005600360039
BI00B32DE    TCT2075        202207077283-4855-40             CONNECTOR HOUSING        CCN000002400000002400FN00000000020220701000002400NNM   20220505122117    4N0N  00000240000001188400001400032DE    TVYEV-TV005600360039
BI00B32DE    TCT2073        202206237283-5830                CONNECTOR                CCN000006000000006000FN00000000020220701000006000NNM   20220505122117    1N47  00000600000000954000001104032DE    TVYEV-TV005500360039
BI00B32DE    TCT2075        202207077283-5830-30             CONNECTOR                CCN000006000000006000FN00000000020220701000006000NNM   20220505122117    1N0N  00000600000000954000001104032DE    TVYEV-TV005500360039
BI00B32DE    TCT2074        202206307283-5832                CONNECTOR HOUSING        CCN000002400000002400FN00000000020220701000002400NNM   20220505122117    1N47  00000240000000723800000873832DE    TVYEV-TV005500360039
BI00B32DE    TCT2075        202207077283-5843                CONNECTOR                CCN000001500000001500FN00000000020220701000001500NNM   20220505122117    1N0N  00000150000000889000001132032DE    TVYEV-TV005600390040
BI00B32DE    TCT2071        202206097283-5846                HOUSING                  CCN000001500000001500FN00000000020220701000001500NNM   20220505122117    1N0N  00000150000000885000001102032DE    TVYEV-TV005600390040
BI00B32DE    TCT2075        202207077283-5846                HOUSING                  CCN000001500000001500FN00000000020220701000001500NNM   20220505122117    1N0N  00000150000000885000001102032DE    TVYEV-TV005600390040
BI00B32DE    TCT2071        202206097283-5846-40             HOUSING                  CCN000001500000001500FN00000000020220701000001500NNM   20220505122117    1N0N  00000150000000885000001102032DE    TVYEV-TV005600390040
BI00B32DE    TCT2072        202206167283-6120                CONNECTOR HOUSING        CCN000004500000004500FN00000000020220701000004500NNM   20220505122117    1N0N  00000150000000914000001143032DE    TVYEV-TV005600390040
BI00B32DE    TCT2073        202206237283-6120                CONNECTOR HOUSING        CCN000006000000006000FN00000000020220701000006000NNM   20220505122117    1N0N  00000150000000914000001143032DE    TVYEV-TV005600390040
BI00B32DE    TCT2074        202206307283-6120                CONNECTOR HOUSING        CCN000004500000004500FN00000000020220701000004500NNM   20220505122117    1N0N  00000150000000914000001143032DE    TVYEV-TV005600390040
BI00B32DE    TCT2075        202207077283-6120                CONNECTOR HOUSING        CCN000006000000006000FN00000000020220701000006000NNM   20220505122117    1N0N  00000150000000914000001143032DE    TVYEV-TV005600390040
BI00B32DE    TCT2071        202206097283-7023-30             CONNECTOR                CCN000002500000002500FN00000000020220701000002500NNM   20220505122117    4N0N  00000250000001358000001556032DE    TVYEV-TV005500360039
BI00B32DE    TCT2072        202206167283-7449-30             HOUSING FEMALE ASS'Y     CCN000002400000002400FN00000000020220701000002400NNM   20220505122117    4N0N  00000240000001200000001410032DE    TVYEV-TV005500360039
BI00B32DE    TCT2073        202206237283-7449-30             HOUSING FEMALE ASS'Y     CCN000007200000007200FN00000000020220701000007200NNM   20220505122117    4N0N  00000240000001200000001410032DE    TVYEV-TV005500360039
BI00B32DE    TCT2074        202206307283-7449-30             HOUSING FEMALE ASS'Y     CCN000007200000007200FN00000000020220701000007200NNM   20220505122117    4N0N  00000240000001200000001410032DE    TVYEV-TV005500360039
BI00B32DE    TCT2075        202207077283-7449-30             HOUSING FEMALE ASS'Y     CCN000012000000012000FN00000000020220701000012000NNM   20220505122117    4N0N  00000240000001200000001410032DE    TVYEV-TV005500360039
BI00B32DE    TCT2073        202206237283-7449-40             HOUSING FEMALE ASS'Y     CCN000007200000007200FN00000000020220701000007200NNM   20220505122117    4N0N  00000240000001200000001410032DE    TVYEV-TV005500360039
BI00B32DE    TCT2074        202206307283-7449-40             HOUSING FEMALE ASS'Y     CCN000002400000002400FN00000000020220701000002400NNM   20220505122117    4N0N  00000240000001200000001410032DE    TVYEV-TV005500360039
BI00B32DE    TCT2075        202207077283-7449-40             HOUSING FEMALE ASS'Y     CCN000009600000009600FN00000000020220701000009600NNM   20220505122117    4N0N  00000240000001200000001410032DE    TVYEV-TV005500360039
BI00B32DE    TCT2072        202206167283-7526-30             CONNECTOR HOUSING        CCN000005880000005880FN00000000020220701000005880NNM   20220505122117    4N0N  00000196000000989800001248632DE    TVYEV-TV005500360039
BI00B32DE    TCT2073        202206237283-7526-30             CONNECTOR HOUSING        CCN000001960000001960FN00000000020220701000001960NNM   20220505122117    4N0N  00000196000000989800001248632DE    TVYEV-TV005500360039
BI00B32DE    TCT2074        202206307283-7526-30             CONNECTOR HOUSING        CCN000003920000003920FN00000000020220701000003920NNM   20220505122117    4N0N  00000196000000989800001248632DE    TVYEV-TV005500360039
BI00B32DE    TCT2075        202207077283-7526-30             CONNECTOR HOUSING        CCN000003920000003920FN00000000020220701000003920NNM   20220505122117    4N0N  00000196000000989800001248632DE    TVYEV-TV005500360039
BI00B32DE    TCT2071        202206097283-7526-40             CONNECTOR HOUSING        CCN000001960000001960FN00000000020220701000001960NNM   20220505122117    4N0N  00000196000000989800001248632DE    TVYEV-TV005500360039
BI00B32DE    TCT2072        202206167283-7526-40             CONNECTOR HOUSING        CCN000001960000001960FN00000000020220701000001960NNM   20220505122117    4N0N  00000196000000989800001248632DE    TVYEV-TV005500360039
BI00B32DE    TCT2073        202206237283-7526-40             CONNECTOR HOUSING        CCN000001960000001960FN00000000020220701000001960NNM   20220505122117    4N0N  00000196000000989800001248632DE    TVYEV-TV005500360039
BI00B32DE    TCT2074        202206307283-7526-40             CONNECTOR HOUSING        CCN000001960000001960FN00000000020220701000001960NNM   20220505122117    4N0N  00000196000000989800001248632DE    TVYEV-TV005500360039
BI00B32DE    TCT2075        202207077283-7526-40             CONNECTOR HOUSING        CCN000003920000003920FN00000000020220701000003920NNM   20220505122117    4N0N  00000196000000989800001248632DE    TVYEV-TV005500360039
BI00B32DE    TCT2072        202206167283-8228-40             CONNECTOR                CCN000003000000003000FN00000000020220701000003000NNM   20220505122117    4N0N  00000300000001215000001361032DE    TVYEV-TV005600390040
BI00B32DE    TCT2074        202206307283-8228-40             CONNECTOR                CCN000003000000003000FN00000000020220701000003000NNM   20220505122117    4N0N  00000300000001215000001361032DE    TVYEV-TV005600390040
BI00B32DE    TCT2075        202207077287-1915-90             CONNECTOR ASS'Y          CCN000007200000007200FN00000000020220701000007200NNM   20220505122117    4N0N  00000240000000666500000923132DE    TVYEV-TV005500360039
BI00B32DE    TCT2072        202206167287-7599-10             HOUSING FEMALE ASS'Y     CCN000001600000001600FN00000000020220701000001600NNM   20220505122117    4N0N  00000160000001233600001445632DE    TVYEV-TV005500360039
BI00B32DE    TCT2073        202206237287-7599-10             HOUSING FEMALE ASS'Y     CCN000003200000003200FN00000000020220701000003200NNM   20220505122117    4N0N  00000160000001233600001445632DE    TVYEV-TV005500360039
BI00B32DE    TCT2074        202206307287-7599-10             HOUSING FEMALE ASS'Y     CCN000001600000001600FN00000000020220701000001600NNM   20220505122117    4N0N  00000160000001233600001445632DE    TVYEV-TV005500360039
BI00B32DE    TCT2075        202207077287-7599-10             HOUSING FEMALE ASS'Y     CCN000001600000001600FN00000000020220701000001600NNM   20220505122117    4N0N  00000160000001233600001445632DE    TVYEV-TV005500360039
BI00B32DE    TCT2072        202206167287-9234                JOINT CONNECTOR          CCN000028800000028800FN00000000020220701000028800NNM   20220505122117    4N0N  00000960000000893800001184832DE    TVYEV-TV005500360039
BI00B32DE    TCT2073        202206237287-9234                JOINT CONNECTOR          CCN000057600000057600FN00000000020220701000057600NNM   20220505122117    4N0N  00000960000000893800001184832DE    TVYEV-TV005500360039
BI00B32DE    TCT2074        202206307287-9234                JOINT CONNECTOR          CCN000048000000048000FN00000000020220701000048000NNM   20220505122117    4N0N  00000960000000893800001184832DE    TVYEV-TV005500360039
BI00B32DE    TCT2075        202207077287-9234                JOINT CONNECTOR          CCN000076800000076800FN00000000020220701000076800NNM   20220505122117    4N0N  00000960000000893800001184832DE    TVYEV-TV005500360039
BI00B32DE    TCT2072        202206167288-3335-30             HOUSING MALE             CCN000003000000003000FN00000000020220701000003000NNM   20220505122117    4N0N  00000150000000867000001012032DE    TVYEV-TV005400370024
BI00B32DE    TCT2073        202206237288-3335-30             HOUSING MALE             CCN000003000000003000FN00000000020220701000003000NNM   20220505122117    4N0N  00000150000000867000001012032DE    TVYEV-TV005400370024
BI00B32DE    TCT2074        202206307288-3335-30             HOUSING MALE             CCN000004500000004500FN00000000020220701000004500NNM   20220505122117    4N0N  00000150000000867000001012032DE    TVYEV-TV005400370024
BI00B32DE    TCT2075        202207077288-3335-30             HOUSING MALE             CCN000006000000006000FN00000000020220701000006000NNM   20220505122117    4N0N  00000150000000867000001012032DE    TVYEV-TV005400370024
BI00B32DE    TCT2075        202207077288-6547                CONNECTOR MALE ASS'Y     CCN000001500000001500FN00000000020220701000001500NNM   20220505122117    4N0N  00000075000001205300001340332DE    TVYEV-TV005400370024
BI00B32DE    TCT2074        202206307289-3342-30             HOUSING FEMALE ASS'Y     CCN000048000000048000FN00000000020220701000048000NNM   20220505122117    1N0N  00000240000000686400000901432DE    TVYEV-TV005500360039
BI00B32DE    TCT2075        202207077289-3342-30             HOUSING FEMALE ASS'Y     CCN000045600000045600FN00000000020220701000045600NNM   20220505122117    1N0N  00000240000000686400000901432DE    TVYEV-TV005500360039
BI00B32DE    TCT2073        202206237289-4696-30             HOUSING FEMALE ASS'Y     CCN000002000000002000FN00000000020220701000002000NNM   20220505122117    4N0N  00000200000000913400001055432DE    TVYEV-TV005400370024
BI00B32DE    TCT2075        202207077289-4696-30             HOUSING FEMALE ASS'Y     CCN000002000000002000FN00000000020220701000002000NNM   20220505122117    4N0N  00000200000000913400001055432DE    TVYEV-TV005400370024
BI00B32DE    TCT2075        202207077289-6547                HOUSING FEMALE ASS'Y     CCN000002400000002400FN00000000020220701000002400NNM   20220505122117    1N0N  00000240000001152000001362032DE    TVYEV-TV005500360039
BI00B32DE    TCT2071        202206097382-1481-10             CONNECTOR                CCN000004000000004000FN00000000020220701000004000NNM   20220505122117    4N0N  00000080000001025000001183032DE    TVYEV-TV005600390040
BI00B32DE    TCT2072        202206167382-1481-10             CONNECTOR                CCN000017600000017600FN00000000020220701000017600NNM   20220505122117    4N0N  00000080000001025000001183032DE    TVYEV-TV005600390040
BI00B32DE    TCT2073        202206237382-1481-10             CONNECTOR                CCN000011200000011200FN00000000020220701000011200NNM   20220505122117    4N0N  00000080000001025000001183032DE    TVYEV-TV005600390040
BI00B32DE    TCT2074        202206307382-1481-10             CONNECTOR                CCN000009600000009600FN00000000020220701000009600NNM   20220505122117    4N0N  00000080000001025000001183032DE    TVYEV-TV005600390040
BI00B32DE    TCT2075        202207077382-1481-10             CONNECTOR                CCN000020000000020000FN00000000020220701000020000NNM   20220505122117    4N0N  00000080000001025000001183032DE    TVYEV-TV005600390040
BI00T32DE    @ICT2061       202206067183-2510                HOUSING                  CCN000009000000009000FN00000000020220601000009000NNM   20220505122117    3F0F  00000300000001063500001159032DE    TVYEV-TV005400370024
BI00T32DE    @ICT2061       202206067183-3190                JOINT CONNECTOR          CCN000036000000036000FN00000000020220601000036000NNM   20220505122117    3F0F  00000360000000457600000667832DE    TVYEV-TV005500360039
BI00T32DE    @ICT2061       202206067183-8049                CONNECTOR HOUSING        CCN000004000000004000FN00000000020220601000004000NNM   20220505122117    3F0F  00000400000000583600000740032DE    TVYEV-TV005400370024
BI00T32DE    @ICT2061       202206067283-1223-30             HOUSING SUB ASSEMBLY     CCN000009600000009600FN00000000020220601000009600NNM   20220505122117    3N0N  00000480000000749300000998032DE    TVYEV-TV005500360039
BI00B32DG    RP2061         202205197289-3342-30             HOUSING FEMALE ASS'Y     CCN000009600000009600FN00000000020220601000009600NNMD0420220505143625    1N0N  00000240000000686400000901432DG    BFSAIBF 005500360039
BI00B32DG    RP2062         202205267289-3342-30             HOUSING FEMALE ASS'Y     CCN000004800000004800FN00000000020220601000004800NNMD0420220505143616    1N0N  00000240000000686400000901432DG    BFSAIBF 005500360039
BI00B32DG    RP2063         202206027289-3342-30             HOUSING FEMALE ASS'Y     CCN000004800000004800FN00000000020220601000004800NNMD0420220505143607    1N0N  00000240000000686400000901432DG    BFSAIBF 005500360039
BI00B32DJ    GHT2201B 2     202205127289-3342-30             HOUSING FEMALE ASS'Y     CCN000012000000012000FN00000000020220101000012000NNMD0420220505122117    1N0N  00000240000000686400000901432DJ    RBYIPLRB005500360039
BI00B32DJ    GHT2201B 1     202205127289-3342-30             HOUSING FEMALE ASS'Y     CCN000004800000052800FN00000000020220101000052800NNM00020220505122117    1N0N  00000240000000686400000901432DJ    RBYIPLRB005500360039
BI00B32DJ    GHT2201B 1     202205137289-3342-30             HOUSING FEMALE ASS'Y     CCN000004800000000000FY00000000020220101000000000NNM00020220505114646    1N0N  00000240000000686400000901432DJ    RBYIPLRB005500360039
BI00B32DJ    GHT2201B 1     202205147289-3342-30             HOUSING FEMALE ASS'Y     CCN000004800000000000FY00000000020220101000000000NNMD0420220505114646    1N0N  00000240000000686400000901432DJ    RBYIPLRB005500360039
BI00B32DJ    GHT2201B 1     202205197289-3342-30             HOUSING FEMALE ASS'Y     CCN000004800000000000FY00000000020220101000000000NNMD0420220505114646    1N0N  00000240000000686400000901432DJ    RBYIPLRB005500360039
BI00B32DJ    GHT2201B 1     202205267289-3342-30             HOUSING FEMALE ASS'Y     CCN000004800000000000FY00000000020220101000000000NNMD0420220505114646    1N0N  00000240000000686400000901432DJ    RBYIPLRB005500360039
BI00B32DJ    GHT2201B 1     202206027289-3342-30             HOUSING FEMALE ASS'Y     CCN000004800000000000FY00000000020220101000000000NNMD0420220505114646    1N0N  00000240000000686400000901432DJ    RBYIPLRB005500360039
BI00B32DJ    GHT2201B 1     202206097289-3342-30             HOUSING FEMALE ASS'Y     CCN000004800000000000FY00000000020220101000000000NNMD0420220505114646    1N0N  00000240000000686400000901432DJ    RBYIPLRB005500360039
BI00B32DJ    GHT2201B 1     202206167289-3342-30             HOUSING FEMALE ASS'Y     CCN000004800000000000FY00000000020220101000000000NNMD0420220505114646    1N0N  00000240000000686400000901432DJ    RBYIPLRB005500360039
BI00B32DJ    GHT2201B 1     202206237289-3342-30             HOUSING FEMALE ASS'Y     CCN000004800000000000FY00000000020220101000000000NNMD0420220505114646    1N0N  00000240000000686400000901432DJ    RBYIPLRB005500360039
BI00B32DJ    GHT2201B 1     202206307289-3342-30             HOUSING FEMALE ASS'Y     CCN000004800000000000FY00000000020220101000000000NNMD0420220505114646    1N0N  00000240000000686400000901432DJ    RBYIPLRB005500360039
BI00B32DJ    GHT2201B 1     202207077289-3342-30             HOUSING FEMALE ASS'Y     CCN000004800000000000FY00000000020220101000000000NNMD0420220505114646    1N0N  00000240000000686400000901432DJ    RBYIPLRB005500360039
BI00B32DJ    GHT2201B 2     202207217289-3342-30             HOUSING FEMALE ASS'Y     CCN000004800000000000FY00000000020220101000000000NNMD0420220505113839    1N0N  00000240000000686400000901432DJ    RBYIPLRB005500360039
BI00B32DJ    GHT2204B 1     202205197289-3342-30             HOUSING FEMALE ASS'Y     CCN000050400000050400FN00000000020220401000050400NNMD0420220505122117    1N0N  00000240000000686400000901432DJ    RBYIPLRB005500360039
BI00B32DJ    GHT2204B 2     202205197289-3342-30             HOUSING FEMALE ASS'Y     CCN000004800000004800FN00000000020220401000004800NNMD0420220505122117    1N0N  00000240000000686400000901432DJ    RBYIPLRB005500360039
BI00B32DJ    GHT2204B 3     202205197289-3342-30             HOUSING FEMALE ASS'Y     CCN000004800000004800FN00000000020220401000004800NNMD0420220505122117    1N0N  00000240000000686400000901432DJ    RBYIPLRB005500360039
BI00B32DJ    GHT2204B 4     202205197289-3342-30             HOUSING FEMALE ASS'Y     CCN000004800000004800FN00000000020220401000004800NNMD0420220505122117    1N0N  00000240000000686400000901432DJ    RBYIPLRB005500360039
BI00B32DJ    GHT2204B 1     202208047289-3342-30             HOUSING FEMALE ASS'Y     CCN000004800000000000FY00000000020220401000000000NNMD0420220505115459    1N0N  00000240000000686400000901432DJ    RBYIPLRB005500360039
BI00B32DJ    GHT2204B 1     202208117289-3342-30             HOUSING FEMALE ASS'Y     CCN000004800000000000FY00000000020220401000000000NNMD0420220505115459    1N0N  00000240000000686400000901432DJ    RBYIPLRB005500360039
BI00B32DJ    GHT2204B 1     202208187289-3342-30             HOUSING FEMALE ASS'Y     CCN000004800000000000FY00000000020220401000000000NNMD0420220505115459    1N0N  00000240000000686400000901432DJ    RBYIPLRB005500360039
BI00B32DJ    GHT2204B 1     202208257289-3342-30             HOUSING FEMALE ASS'Y     CCN000004800000000000FY00000000020220401000000000NNMD0420220505115459    1N0N  00000240000000686400000901432DJ    RBYIPLRB005500360039
BI00B32DJ    GHT2204B 1     202209017289-3342-30             HOUSING FEMALE ASS'Y     CCN000004800000000000FY00000000020220401000000000NNMD0420220505115459    1N0N  00000240000000686400000901432DJ    RBYIPLRB005500360039
BI00B32DJ    GHT2204B 1     202209087289-3342-30             HOUSING FEMALE ASS'Y     CCN000004800000000000FY00000000020220401000000000NNMD0420220505115459    1N0N  00000240000000686400000901432DJ    RBYIPLRB005500360039
BI00B32DJ    GHT2204B 1     202209157289-3342-30             HOUSING FEMALE ASS'Y     CCN000004800000000000FY00000000020220401000000000NNMD0420220505115459    1N0N  00000240000000686400000901432DJ    RBYIPLRB005500360039
BI00B32DJ    GHT2204B 1     202209227289-3342-30             HOUSING FEMALE ASS'Y     CCN000004800000000000FY00000000020220401000000000NNMD0420220505115459    1N0N  00000240000000686400000901432DJ    RBYIPLRB005500360039
BI00B32DJ    GHT2204B 1     202209297289-3342-30             HOUSING FEMALE ASS'Y     CCN000004800000000000FY00000000020220401000000000NNMD0420220505115459    1N0N  00000240000000686400000901432DJ    RBYIPLRB005500360039
BI00B32D1    DFTC2222       202205107289-3342-30             HOUSING FEMALE ASS'Y     CCN000036000000036000FN00000000020220601000036000NNM00020220505155529    1N0N  00000240000000686400000901432D1    TOYOT-K 005500360039
BI00B32D1    #DFTC2227      202205097183-2415-90             CONNECTOR HOUSING        CCN000004800000004800FN00000000020220701000004800NNM00020220505155727    2F0F  00000480000000798200001091432D1    TOYOT-K 005500360039
BI00B32D2    DGTC2216       202205107288-6547                CONNECTOR MALE ASS'Y     CCN000009000000009000FN00000000020220401000009000NNM00020220505155815    4N0N  00000075000001205300001340332D2    TGYOT-G 005400370024
BI00B32D2    DGTC2216       202205107289-3342                HOUSING FEMALE ASS'Y     CCN000057600000024000FN00000000020220401000024000NNM00020220505155804    1N0N  00000240000000686400000901432D2    TGYOT-G 005500360039
BI00B32D2    DGTC2231       202206097017-1180-02             TERMINAL                 CCN000072000000072000FN00000000020220801000072000NNM   20220505122117    4P0P  00007200000001065600001229032D2    TGYOT-G 005100280028
BI00B32D2    DGTC2231       202206097114-4032                TERMINAL                 CCN000007500000007500FN00000000020220801000007500NNM   20220505122117    4P0P  00000750000000735000001063632D2    TGYOT-G 006400630017
BI00B32D2    DGTC2231       202206097114-5748-02             TERMINAL                 CCN000024000000024000FN00000000020220801000024000NNM   20220505122117    4P0P  00001200000000444000000737632D2    TGYOT-G 006400630015
BI00B32D2    DGTC2231       202206097114-5753-02             TERMINAL                 CCN000054000000054000FN00000000020220801000054000NNM   20220505122117    4P0P  00002700000000847800001141432D2    TGYOT-G 006400630015
BI00B32D2    DGTC2231       202206097116-2891-02             TERMINAL                 CCN000015000000015000FN00000000020220801000015000NNM   20220505122117    4P0P  00001500000000982500001145932D2    TGYOT-G 005100280028
BI00B32D2    DGTC2231       202206097116-4486-02             TERMINAL                 CCN000056000000056000FN00000000020220801000056000NNM   20220505122117    4P0P  00002800000000666400000995132D2    TGYOT-G 006400630017
BI00B32D2    DGTC2231       202206097116-5045-02             TERMINAL                 CCN000016000000016000FN00000000020220801000016000NNM   20220505122117    4P0P  00001600000000678400001007132D2    TGYOT-G 006400630017
BI00B32D2    DGTC2231       202206097116-5046-02             TERMINAL                 CCN000048000000048000FN00000000020220801000048000NNM   20220505122117    4P0P  00001200000000544800000873532D2    TGYOT-G 006400630017
BI00B32D2    DGTC2231       202206097116-6042                TERMINAL                 CCN000036000000036000FN00000000020220801000036000NNM   20220505122117    4P0P  00000300000000523800000856132D2    TGYOT-G 006400630015
BI00B32D2    DGTC2231       202206097126-8853-02             TERMINAL                 CCN000045000000045000FN00000000020220801000045000NNM   20220505122117    4P0P  00000750000000562500000847732D2    TGYOT-G 006400630015
BI00B32D2    DGTC2231       202206097126-8854-02             TERMINAL                 CCN000045000000045000FN00000000020220801000045000NNM   20220505122117    4P0P  00000750000000604500000889732D2    TGYOT-G 006400630015
BI00B32D2    DGTC2231       202206097126-8855-02             TERMINAL                 CCN000066000000066000FN00000000020220801000066000NNM   20220505122117    4P0P  00000600000000510600000795832D2    TGYOT-G 006400630015
BI00B32D2    DGTC2231       202206097158-3070-80             RUBBER STOPPER           CCN000040000000040000FN00000000020220801000040000NNM   20220505122117    1C0C  00004000000000276000000333332D2    TGYOT-G 002700430014
BI00B32D2    DGTC2231       202206097158-3167-80             WIRE SEAL                CCN000020000000020000FN00000000020220801000020000NNM   20220505122117    1C0C  00002000000000048000000109032D2    TGYOT-G 002700430014
BI00B32D2    DGTC2231       202206097173-3291-40             LIF LEVER                CCN000004800000004800FN00000000020220801000004800NNM   20220505122117    1F0F  00000240000000867800001067832D2    TGYOT-G 005500360039
BI00B32D2    DGTC2231       202206097196-1325-02             TERMINAL FEMALE          CCN000180000000180000FN00000000020220801000180000NNM   20220505122117    4P0P  00006000000000450000000778732D2    TGYOT-G 006400630017
BI00B32D2    DGTC2231       202206097196-1326-02             TERMINAL FEMALE          CCN000360000000360000FN00000000020220801000360000NNM   20220505122117    4P0P  00006000000000456000000784732D2    TGYOT-G 006400630017
BI00B32D2    DGTC2231       202206097196-1327-02             TERMINAL FEMALE          CCN000052000000052000FN00000000020220801000052000NNM   20220505122117    4P0P  00005200000000336000000739532D2    TGYOT-G 006400630017
BI00B32D2    DGTC2231       202206097288-6547                CONNECTOR MALE ASS'Y     CCN000001500000001500FN00000000020220801000001500NNM   20220505122117    4N0N  00000075000001205300001340332D2    TGYOT-G 005400370024
BI00B32D2    DGTC2231       202206097289-3342                HOUSING FEMALE ASS'Y     CCN000028800000028800FN00000000020220801000028800NNM   20220505122117    1N0N  00000240000000686400000901432D2    TGYOT-G 005500360039
BI00B32D2    DGTC2231       202206097289-3342-30             HOUSING FEMALE ASS'Y     CCN000016800000016800FN00000000020220801000016800NNM   20220505122117    1N0N  00000240000000686400000901432D2    TGYOT-G 005500360039
BI00B32D2    DGTC2231       202206097289-3342-40             HOUSING FEMALE ASS'Y     CCN000007200000007200FN00000000020220801000007200NNM   20220505122117    1N0N  00000240000000686400000901432D2    TGYOT-G 005500360039
BI00B32D2    DGTC2231       202206097289-3342-90             HOUSING FEMALE ASS'Y     CCN000009600000009600FN00000000020220801000009600NNM   20220505122117    1N0N  00000240000000686400000901432D2    TGYOT-G 005500360039
BI00B32D2    DGTC2231       202206097289-6518-30             HOUSING FEMALE ASS'Y     CCN000006000000006000FN00000000020220801000006000NNM   20220505122117    1N0N  00000120000000829200001049232D2    TGYOT-G 005500360039
BI00B32D2    DGTC2231       202206097289-6547                HOUSING FEMALE ASS'Y     CCN000004800000004800FN00000000020220801000004800NNM   20220505122117    1N0N  00000240000001152000001362032D2    TGYOT-G 005500360039
