BI00A32H7    FS2205DDMW     202204261801R706930              CIVUS 0.35 B             CCN001134000000420000FN00000000020220501000420000NNE22 20220420193335    1W    00000300000000386000000000032H7    FYFSY   000000000000FH224041
BI00A32H7    FS2205DDMW     202204261801R70695U              CIVUS 0.35 BE            CCN000321000000090000FN00000000020220501000090000NNE22 20220420193747    1W    00000300000000386000000000032H7    FYFSY   000000000000FH224042
BI00A32H7    FS2205DDMW     202204281801R706980              CIVUS 0.35 BR            CCN000207000000072000FN00000000020220501000072000NNE23 20220420194337    1W    00000300000000386000000000032H7    FYFSY   000000000000FH224043
BI00A32H7    FS2205DDMW     202204261801R706960              CIVUS 0.35 G             CCN000849000000300000FN00000000020220501000300000NNE22 20220420194118    1W    00000300000000386000000000032H7    FYFSY   000000000000FH224044
BI00A32H7    FS2205DDMW     202204261801R706941              CIVUS 0.35 GY            CCN000660000000270000FN00000000020220501000270000NNE22 20220420193618    1W    00000300000000386000000000032H7    FYFSY   000000000000FH224045
BI00A32H7    FS2205DDMW     202204261801R706990              CIVUS 0.35 L             CCN001002000000300000FN00000000020220501000300000NNE22 20220420194434    1W    00000300000000386000000000032H7    FYFSY   000000000000FH224046
BI00A32H7    FS2205DDMW     202204261801R706961              CIVUS 0.35 LG            CCN000819000000240000FN00000000020220501000240000NNE22 20220420194211    1W    00000300000000386000000000032H7    FYFSY   000000000000FH224047
BI00A32H7    FS2205DDMW     202204261801R706952              CIVUS 0.35 P             CCN000564000000150000FN00000000020220501000150000NNE22 20220420194039    1W    00000300000000386000000000032H7    FYFSY   000000000000FH224048
BI00A32H7    FS2205DDMW     202204261801R706950              CIVUS 0.35 R             CCN001149000000300000FN00000000020220501000300000NNE22 20220420193909    1W    00000300000000386000000000032H7    FYFSY   000000000000FH224049
BI00A32H7    FS2205DDMW     202204261801R706991              CIVUS 0.35 SB            CCN000384000000090000FN00000000020220501000090000NNE22 20220420194507    1W    00000300000000386000000000032H7    FYFSY   000000000000FH224050
BI00A32H7    FS2205DDMW     202204261801R706992              CIVUS 0.35 V             CCN000729000000240000FN00000000020220501000240000NNE22 20220420194538    1W    00000300000000386000000000032H7    FYFSY   000000000000FH224051
BI00A32H7    FS2205DDMW     202204261801R706940              CIVUS 0.35 W             CCN001203000000480000FN00000000020220501000480000NNE22 20220420193521    1W    00000300000000386000000000032H7    FYFSY   000000000000FH224052
BI00A32H7    FS2205DDMW     202204261801R706943              CIVUS 0.35 W/B           CCN001092000000450000FN00000000020220501000450000NNE22 20220420193703    1W    00000300000000386000000000032H7    FYFSY   000000000000FH224053
BI00A32H7    FS2205DDMW     202204261801R706970              CIVUS 0.35 Y             CCN000372000000168000FN00000000020220501000168000NNE22 20220420194254    1W    00000300000000386000000000032H7    FYFSY   000000000000FH224054
BI00A32H7    FS2205DDMW     202204261801R706973              CIVUS 0.35 Y/B           CCN000117000000117000FN00000000020220501000117000NNE22 20220420194739    1W    00000300000000386000000000032H7    FYFSY   000000000000FH224055
BI00A32H7    FS2205DDMW     202204261801R706976              CIVUS 0.35 Y/G           CCN000021000000021000FN00000000020220501000021000NNE22 20220420194739    1W    00000300000000386000000000032H7    FYFSY   000000000000FH224056
BI00A32H7    FS2205DDMW     202204261801R706975              CIVUS 0.35 Y/R           CCN000033000000033000FN00000000020220501000033000NNE22 20220420194739    1W    00000300000000386000000000032H7    FYFSY   000000000000FH224057
BI00A32H7    FS2205DDMW     202204261801R703930              CIVUS 0.5 B              CCN000464200000365200FN00000000020220501000365200NNE00 20220420181806    1W    00000220000000525000000000032H7    FYFSY   000000000000FH224001
BI00A32H7    FS2205DDMW     202204201801R70395U              CIVUS 0.5 BE             CCN000035200000035200FY00003520020220501000000000NNE20 20220420163402    1W    00000220000000525000000000032H7    FYFSY   000000000000FH224002
BI00A32H7    FS2205DDMW     202204221801R703980              CIVUS 0.5 BR             CCN000055000000024200FN00000000020220501000024200NNE21 20220420181806    1W    00000220000000525000000000032H7    FYFSY   000000000000FH224003
BI00A32H7    FS2205DDMW     202204261801R703960              CIVUS 0.5 G              CCN000389400000290400FN00000000020220501000290400NNE00 20220420181806    1W    00000220000000525000000000032H7    FYFSY   000000000000FH224004
BI00A32H7    FS2205DDMW     202204221801R703941              CIVUS 0.5 GY             CCN000101200000070400FN00000000020220501000070400NNE21 20220420181806    1W    00000220000000525000000000032H7    FYFSY   000000000000FH224005
BI00A32H7    FS2205DDMW     202204261801R703990              CIVUS 0.5 L              CCN000297000000198000FN00000000020220501000198000NNE00 20220420181806    1W    00000220000000525000000000032H7    FYFSY   000000000000FH224006
BI00A32H7    FS2205DDMW     202204261801R703961              CIVUS 0.5 LG             CCN000112200000022000FN00000000020220501000022000NNE00 20220420181806    1W    00000220000000525000000000032H7    FYFSY   000000000000FH224007
BI00A32H7    FS2205DDMW     202204261801R703952              CIVUS 0.5 P              CCN000217800000118800FN00000000020220501000118800NNE00 20220420181806    1W    00000220000000525000000000032H7    FYFSY   000000000000FH224008
BI00A32H7    FS2205DDMW     202204261801R703950              CIVUS 0.5 R              CCN000341000000242000FN00000000020220501000242000NNE00 20220420181806    1W    00000220000000525000000000032H7    FYFSY   000000000000FH224009
BI00A32H7    FS2205DDMW     202204221801R703991              CIVUS 0.5 SB             CCN000079200000048400FN00000000020220501000048400NNE21 20220420181806    1W    00000220000000525000000000032H7    FYFSY   000000000000FH224010
BI00A32H7    FS2205DDMW     202204261801R703992              CIVUS 0.5 V              CCN000250800000052800FN00000000020220501000052800NNE00 20220420181806    1W    00000220000000525000000000032H7    FYFSY   000000000000FH224011
BI00A32H7    FS2205DDMW     202204261801R703940              CIVUS 0.5 W              CCN000222200000123200FN00000000020220501000123200NNE00 20220420181806    1W    00000220000000525000000000032H7    FYFSY   000000000000FH224012
BI00A32H7    FS2205DDMW     202204261801R703943              CIVUS 0.5 W/B            CCN000411400000411400FN00000000020220501000411400NNE   20220420181806    1W    00000220000000525000000000032H7    FYFSY   000000000000FH224013
BI00A32H7    FS2205DDMW     202204201801R703970              CIVUS 0.5 Y              CCN000015400000015400FY00001540020220501000000000NNE20 20220420163402    1W    00000220000000525000000000032H7    FYFSY   000000000000FH224014
BI00A32H7    FS2205DDMW     202204221801R704030              CIVUS 0.75 B             CCN000055500000033000FN00000000020220501000033000NNE21 20220420181806    1W    00000150000000765000000000032H7    FYFSY   000000000000FH224015
BI00A32H7    FS2205DDMW     202204201801R704080              CIVUS 0.75 BR            CCN000009000000009000FY00000900020220501000000000NNE20 20220420163402    1W    00000150000000765000000000032H7    FYFSY   000000000000FH224016
BI00A32H7    FS2205DDMW     202204221801R704060              CIVUS 0.75 G             CCN000033000000016500FN00000000020220501000016500NNE21 20220420181806    1W    00000150000000765000000000032H7    FYFSY   000000000000FH224017
BI00A32H7    FS2205DDMW     202204221801R704041              CIVUS 0.75 GY            CCN000012000000006000FN00000000020220501000006000NNE21 20220420181806    1W    00000150000000765000000000032H7    FYFSY   000000000000FH224018
BI00A32H7    FS2205DDMW     202204221801R704090              CIVUS 0.75 L             CCN000091500000058500FN00000000020220501000058500NNE21 20220420181806    1W    00000150000000765000000000032H7    FYFSY   000000000000FH224019
BI00A32H7    FS2205DDMW     202204201801R704061              CIVUS 0.75 LG            CCN000006000000006000FY00000600020220501000000000NNE20 20220420163402    1W    00000150000000765000000000032H7    FYFSY   000000000000FH224020
BI00A32H7    FS2205DDMW     202204221801R704052              CIVUS 0.75 P             CCN000027000000019500FN00000000020220501000019500NNE21 20220420181806    1W    00000150000000765000000000032H7    FYFSY   000000000000FH224021
BI00A32H7    FS2205DDMW     202204221801R704050              CIVUS 0.75 R             CCN000040500000028500FN00000000020220501000028500NNE21 20220420181806    1W    00000150000000765000000000032H7    FYFSY   000000000000FH224022
BI00A32H7    FS2205DDMW     202204221801R704091              CIVUS 0.75 SB            CCN000019500000010500FN00000000020220501000010500NNE21 20220420181806    1W    00000150000000765000000000032H7    FYFSY   000000000000FH224023
BI00A32H7    FS2205DDMW     202204221801R704092              CIVUS 0.75 V             CCN000019500000010500FN00000000020220501000010500NNE21 20220420181806    1W    00000150000000765000000000032H7    FYFSY   000000000000FH224024
BI00A32H7    FS2205DDMW     202204221801R704040              CIVUS 0.75 W             CCN000066000000036000FN00000000020220501000036000NNE21 20220420181806    1W    00000150000000765000000000032H7    FYFSY   000000000000FH224025
BI00A32H7    FS2205DDMW     202204261801R704043              CIVUS 0.75 W/B           CCN000094500000072000FN00000000020220501000072000NNE00 20220420181806    1W    00000150000000765000000000032H7    FYFSY   000000000000FH224026
BI00A32H7    FS2205DDMW     202204261801R704130              CIVUS 1.25 B             CCN000132000000042000FN00000000020220501000042000NNE00 20220420181806    1W    00000100000001228000000000032H7    FYFSY   000000000000FH224027
BI00A32H7    FS2205DDMW     202204201801R70415U              CIVUS 1.25 BE            CCN000004000000004000FY00000400020220501000000000NNE20 20220420163402    1W    00000100000001228000000000032H7    FYFSY   000000000000FH224028
BI00A32H7    FS2205DDMW     202204261801R704180              CIVUS 1.25 BR            CCN000035000000025000FN00000000020220501000025000NNE00 20220420181806    1W    00000100000001228000000000032H7    FYFSY   000000000000FH224029
BI00A32H7    FS2205DDMW     202204221801R704160              CIVUS 1.25 G             CCN000048000000031000FN00000000020220501000031000NNE21 20220420181806    1W    00000100000001228000000000032H7    FYFSY   000000000000FH224030
BI00A32H7    FS2205DDMW     202204261801R704141              CIVUS 1.25 GY            CCN000017000000011000FN00000000020220501000011000NNE00 20220420181806    1W    00000100000001228000000000032H7    FYFSY   000000000000FH224031
BI00A32H7    FS2205DDMW     202204221801R704190              CIVUS 1.25 L             CCN000033000000020000FN00000000020220501000020000NNE21 20220420181806    1W    00000100000001228000000000032H7    FYFSY   000000000000FH224032
BI00A32H7    FS2205DDMW     202204221801R704161              CIVUS 1.25 LG            CCN000017000000009000FN00000000020220501000009000NNE21 20220420181806    1W    00000100000001228000000000032H7    FYFSY   000000000000FH224033
BI00A32H7    FS2205DDMW     202204261801R704152              CIVUS 1.25 P             CCN000051000000021000FN00000000020220501000021000NNE00 20220420181806    1W    00000100000001228000000000032H7    FYFSY   000000000000FH224034
BI00A32H7    FS2205DDMW     202204261801R704150              CIVUS 1.25 R             CCN000111000000070000FN00000000020220501000070000NNE00 20220420181806    1W    00000100000001228000000000032H7    FYFSY   000000000000FH224035
BI00A32H7    FS2205DDMW     202204261801R704191              CIVUS 1.25 SB            CCN000028000000004000FN00000000020220501000004000NNE00 20220420181806    1W    00000100000001228000000000032H7    FYFSY   000000000000FH224036
BI00A32H7    FS2205DDMW     202204261801R704192              CIVUS 1.25 V             CCN000019000000019000FN00000000020220501000019000NNE   20220420181806    1W    00000100000001228000000000032H7    FYFSY   000000000000FH224037
BI00A32H7    FS2205DDMW     202204261801R704140              CIVUS 1.25 W             CCN000088000000063000FN00000000020220501000063000NNE00 20220420181806    1W    00000100000001228000000000032H7    FYFSY   000000000000FH224038
BI00A32H7    FS2205DDMW     202204261801R704143              CIVUS 1.25 W/B           CCN000152000000122000FN00000000020220501000122000NNE00 20220420181806    1W    00000100000001228000000000032H7    FYFSY   000000000000FH224039
BI00A32H7    FS2205DDMW     202204261801R704170              CIVUS 1.25 Y             CCN000053000000043000FN00000000020220501000043000NNE00 20220420181806    1W    00000100000001228000000000032H7    FYFSY   000000000000FH224040
BI00A32H7    FS2205DDMW     202204201801R703930              CIVUS 0.5 B              CCN000066000000066000FY00006600020220501000000000NNE20 20220420163402    1W    00000220000000525000000000032H7    FYFSY   000000000000FH224001
BI00A32H7    FS2205DDMW     202204201801R703940              CIVUS 0.5 W              CCN000030800000030800FY00003080020220501000000000NNE20 20220420163402    1W    00000220000000525000000000032H7    FYFSY   000000000000FH224012
BI00A32H7    FS2205DDMW     202204201801R703941              CIVUS 0.5 GY             CCN000030800000030800FY00003080020220501000000000NNE20 20220420163402    1W    00000220000000525000000000032H7    FYFSY   000000000000FH224005
BI00A32H7    FS2205DDMW     202204201801R703950              CIVUS 0.5 R              CCN000039600000039600FY00003960020220501000000000NNE20 20220420163402    1W    00000220000000525000000000032H7    FYFSY   000000000000FH224009
BI00A32H7    FS2205DDMW     202204201801R703952              CIVUS 0.5 P              CCN000030800000030800FY00003080020220501000000000NNE20 20220420163402    1W    00000220000000525000000000032H7    FYFSY   000000000000FH224008
BI00A32H7    FS2205DDMW     202204201801R703960              CIVUS 0.5 G              CCN000037400000037400FY00003740020220501000000000NNE20 20220420163402    1W    00000220000000525000000000032H7    FYFSY   000000000000FH224004
BI00A32H7    FS2205DDMW     202204201801R703980              CIVUS 0.5 BR             CCN000030800000030800FY00003080020220501000000000NNE20 20220420163402    1W    00000220000000525000000000032H7    FYFSY   000000000000FH224003
BI00A32H7    FS2205DDMW     202204201801R703990              CIVUS 0.5 L              CCN000033000000033000FY00003300020220501000000000NNE20 20220420163402    1W    00000220000000525000000000032H7    FYFSY   000000000000FH224006
BI00A32H7    FS2205DDMW     202204201801R703961              CIVUS 0.5 LG             CCN000030800000030800FY00003080020220501000000000NNE20 20220420163402    1W    00000220000000525000000000032H7    FYFSY   000000000000FH224007
BI00A32H7    FS2205DDMW     202204201801R703991              CIVUS 0.5 SB             CCN000030800000030800FY00003080020220501000000000NNE20 20220420163402    1W    00000220000000525000000000032H7    FYFSY   000000000000FH224010
BI00A32H7    FS2205DDMW     202204201801R703992              CIVUS 0.5 V              CCN000030800000030800FY00003080020220501000000000NNE20 20220420163402    1W    00000220000000525000000000032H7    FYFSY   000000000000FH224011
BI00A32H7    FS2205DDMW     202204201801R704030              CIVUS 0.75 B             CCN000022500000022500FY00002250020220501000000000NNE20 20220420163402    1W    00000150000000765000000000032H7    FYFSY   000000000000FH224015
BI00A32H7    FS2205DDMW     202204201801R704040              CIVUS 0.75 W             CCN000022500000030000FY00003000020220501000000000NNE20 20220420163402    1W    00000150000000765000000000032H7    FYFSY   000000000000FH224025
BI00A32H7    FS2205DDMW     202204201801R704041              CIVUS 0.75 GY            CCN000006000000006000FY00000600020220501000000000NNE20 20220420163402    1W    00000150000000765000000000032H7    FYFSY   000000000000FH224018
BI00A32H7    FS2205DDMW     202204201801R704043              CIVUS 0.75 W/B           CCN000030000000022500FY00002250020220501000000000NNE20 20220420163402    1W    00000150000000765000000000032H7    FYFSY   000000000000FH224026
BI00A32H7    FS2205DDMW     202204201801R704050              CIVUS 0.75 R             CCN000012000000012000FY00001200020220501000000000NNE20 20220420163402    1W    00000150000000765000000000032H7    FYFSY   000000000000FH224022
BI00A32H7    FS2205DDMW     202204201801R704052              CIVUS 0.75 P             CCN000007500000007500FY00000750020220501000000000NNE20 20220420163402    1W    00000150000000765000000000032H7    FYFSY   000000000000FH224021
BI00A32H7    FS2205DDMW     202204201801R704060              CIVUS 0.75 G             CCN000016500000016500FY00001650020220501000000000NNE20 20220420163402    1W    00000150000000765000000000032H7    FYFSY   000000000000FH224017
BI00A32H7    FS2205DDMW     202204201801R704090              CIVUS 0.75 L             CCN000033000000033000FY00003300020220501000000000NNE20 20220420163402    1W    00000150000000765000000000032H7    FYFSY   000000000000FH224019
BI00A32H7    FS2205DDMW     202204201801R704091              CIVUS 0.75 SB            CCN000009000000009000FY00000900020220501000000000NNE20 20220420163402    1W    00000150000000765000000000032H7    FYFSY   000000000000FH224023
BI00A32H7    FS2205DDMW     202204201801R704092              CIVUS 0.75 V             CCN000009000000009000FY00000900020220501000000000NNE20 20220420163402    1W    00000150000000765000000000032H7    FYFSY   000000000000FH224024
BI00A32H7    FS2205DDMW     202204201801R704130              CIVUS 1.25 B             CCN000020000000020000FY00002000020220501000000000NNE20 20220420163402    1W    00000100000001228000000000032H7    FYFSY   000000000000FH224027
BI00A32H7    FS2205DDMW     202204201801R704140              CIVUS 1.25 W             CCN000025000000025000FY00002500020220501000000000NNE20 20220420163402    1W    00000100000001228000000000032H7    FYFSY   000000000000FH224038
BI00A32H7    FS2205DDMW     202204201801R704141              CIVUS 1.25 GY            CCN000006000000006000FY00000600020220501000000000NNE20 20220420163402    1W    00000100000001228000000000032H7    FYFSY   000000000000FH224031
BI00A32H7    FS2205DDMW     202204201801R704143              CIVUS 1.25 W/B           CCN000030000000030000FY00003000020220501000000000NNE20 20220420163402    1W    00000100000001228000000000032H7    FYFSY   000000000000FH224039
BI00A32H7    FS2205DDMW     202204201801R704150              CIVUS 1.25 R             CCN000025000000025000FY00002500020220501000000000NNE20 20220420163402    1W    00000100000001228000000000032H7    FYFSY   000000000000FH224035
BI00A32H7    FS2205DDMW     202204201801R704152              CIVUS 1.25 P             CCN000014000000014000FY00001400020220501000000000NNE20 20220420163402    1W    00000100000001228000000000032H7    FYFSY   000000000000FH224034
BI00A32H7    FS2205DDMW     202204201801R704160              CIVUS 1.25 G             CCN000001700000017000FY00001700020220501000000000NNE20 20220420163402    1W    00000100000001228000000000032H7    FYFSY   000000000000FH224030
BI00A32H7    FS2205DDMW     202204201801R704161              CIVUS 1.25 LG            CCN000008000000008000FY00000800020220501000000000NNE20 20220420163402    1W    00000100000001228000000000032H7    FYFSY   000000000000FH224033
BI00A32H7    FS2205DDMW     202204201801R704170              CIVUS 1.25 Y             CCN000010000000010000FY00001000020220501000000000NNE20 20220420163402    1W    00000100000001228000000000032H7    FYFSY   000000000000FH224040
BI00A32H7    FS2205DDMW     202204201801R704180              CIVUS 1.25 BR            CCN000010000000010000FY00001000020220501000000000NNE20 20220420163402    1W    00000100000001228000000000032H7    FYFSY   000000000000FH224029
BI00A32H7    FS2205DDMW     202204201801R704190              CIVUS 1.25 L             CCN000013000000013000FY00001300020220501000000000NNE20 20220420163402    1W    00000100000001228000000000032H7    FYFSY   000000000000FH224032
BI00A32H7    FS2205DDMW     202204201801R704191              CIVUS 1.25 SB            CCN000009000000009000FY00000900020220501000000000NNE20 20220420163402    1W    00000100000001228000000000032H7    FYFSY   000000000000FH224036
BI00A32H7    FS2205DDMW     202204201801R706930              CIVUS 0.35 B             CCN000090000000090000FY00009000020220501000000000NNE20 20220420163402    1W    00000300000000386000000000032H7    FYFSY   000000000000FH224041
BI00A32H7    FS2205DDMW     202204201801R706940              CIVUS 0.35 W             CCN000060000000060000FY00006000020220501000000000NNE20 20220420163402    1W    00000300000000386000000000032H7    FYFSY   000000000000FH224052
BI00A32H7    FS2205DDMW     202204201801R706941              CIVUS 0.35 GY            CCN000075000000075000FY00007500020220501000000000NNE20 20220420163402    1W    00000300000000386000000000032H7    FYFSY   000000000000FH224045
BI00A32H7    FS2205DDMW     202204201801R706950              CIVUS 0.35 R             CCN000090000000090000FY00009000020220501000000000NNE20 20220420163402    1W    00000300000000386000000000032H7    FYFSY   000000000000FH224049
BI00A32H7    FS2205DDMW     202204201801R706952              CIVUS 0.35 P             CCN000075000000075000FY00007500020220501000000000NNE20 20220420163402    1W    00000300000000386000000000032H7    FYFSY   000000000000FH224048
BI00A32H7    FS2205DDMW     202204201801R706960              CIVUS 0.35 G             CCN000075000000075000FY00007500020220501000000000NNE20 20220420163402    1W    00000300000000386000000000032H7    FYFSY   000000000000FH224044
BI00A32H7    FS2205DDMW     202204201801R706961              CIVUS 0.35 LG            CCN000090000000090000FY00009000020220501000000000NNE20 20220420163402    1W    00000300000000386000000000032H7    FYFSY   000000000000FH224047
BI00A32H7    FS2205DDMW     202204201801R706970              CIVUS 0.35 Y             CCN000048000000048000FY00004800020220501000000000NNE20 20220420163402    1W    00000300000000386000000000032H7    FYFSY   000000000000FH224054
BI00A32H7    FS2205DDMW     202204201801R706980              CIVUS 0.35 BR            CCN000075000000075000FY00007500020220501000000000NNE20 20220420163402    1W    00000300000000386000000000032H7    FYFSY   000000000000FH224043
BI00A32H7    FS2205DDMW     202204201801R706990              CIVUS 0.35 L             CCN000090000000090000FY00009000020220501000000000NNE20 20220420163402    1W    00000300000000386000000000032H7    FYFSY   000000000000FH224046
BI00A32H7    FS2205DDMW     202204201801R706991              CIVUS 0.35 SB            CCN000060000000060000FY00006000020220501000000000NNE20 20220420163402    1W    00000300000000386000000000032H7    FYFSY   000000000000FH224050
BI00A32H7    FS2205DDMW     202204201801R706992              CIVUS 0.35 V             CCN000060000000060000FY00006000020220501000000000NNE20 20220420163402    1W    00000300000000386000000000032H7    FYFSY   000000000000FH224051
BI00A32H7    FS2205EDMW     2022042718007703730              AVSS 0.3F B              CCN000016000000016000FN00000000020220501000016000NNE   20220420181806    1W    00000200000000496000000000032H7    FYFSY   000000000000FE324001
BI00A32H7    FS2205EDMW     2022042718007703760              AVSS 0.3F G              CCN000010000000010000FN00000000020220501000010000NNE   20220420181806    1W    00000200000000496000000000032H7    FYFSY   000000000000FE324002
BI00A32H7    FS2205EDMW     2022042718007703752              AVSS 0.3F P              CCN000010000000010000FN00000000020220501000010000NNE   20220420181806    1W    00000200000000496000000000032H7    FYFSY   000000000000FE324003
BI00A32H7    FS2205EDMW     2022042718007703750              AVSS 0.3F R              CCN000012000000012000FN00000000020220501000012000NNE   20220420181806    1W    00000200000000496000000000032H7    FYFSY   000000000000FE324004
BI00A32H7    FS2205EDMW     2022042718007703792              AVSS 0.3F V              CCN000024000000024000FN00000000020220501000024000NNE   20220420181806    1W    00000200000000496000000000032H7    FYFSY   000000000000FE324005
BI00A32H7    FS2205EDMW     2022042718007703930              AVSS 0.5F B              CCN000007500000007500FN00000000020220501000007500NNE   20220420181806    1W    00000150000000674000000000032H7    FYFSY   000000000000FE324006
BI00A32H7    FS2205EDMW     2022042718007703941              AVSS 0.5F GY             CCN000016500000016500FN00000000020220501000016500NNE   20220420181806    1W    00000150000000674000000000032H7    FYFSY   000000000000FE324007
BI00A32H7    FS2205EDMW     2022042718007703990              AVSS 0.5F L              CCN000006000000006000FN00000000020220501000006000NNE   20220420181806    1W    00000150000000674000000000032H7    FYFSY   000000000000FE324008
BI00A32H7    FS2205EDMW     2022042718007704030              AVSS 0.75F B             CCN000030000000030000FN00000000020220501000030000NNE   20220420181806    1W    00000100000000943000000000032H7    FYFSY   000000000000FE324009
BI00A32H7    FS2205EDMW     2022042718007704060              AVSS 0.75F G             CCN000007000000007000FN00000000020220501000007000NNE   20220420181806    1W    00000100000000943000000000032H7    FYFSY   000000000000FE324010
BI00A32H7    FS2205EDMW     2022042718007704180              AVSS 1.25F BR            CCN000020000000020000FN00000000020220501000020000NNE   20220420181806    1W    00000080000001389000000000032H7    FYFSY   000000000000FE324011
BI00A32H7    FS2205EDMW     2022042718007704160              AVSS 1.25F G             CCN000022400000022400FN00000000020220501000022400NNE   20220420181806    1W    00000080000001389000000000032H7    FYFSY   000000000000FE324012
BI00A32H7    FS2205EDMW     2022042718007704190              AVSS 1.25F L             CCN000022400000022400FN00000000020220501000022400NNE   20220420181806    1W    00000080000001389000000000032H7    FYFSY   000000000000FE324013
BI00A32H7    FS2205EDMW     2022042718007704152              AVSS 1.25F P             CCN000022400000022400FN00000000020220501000022400NNE   20220420181806    1W    00000080000001389000000000032H7    FYFSY   000000000000FE324014
BI00A32H7    FS2205EDMW     2022042718007704150              AVSS 1.25F R             CCN000022400000022400FN00000000020220501000022400NNE   20220420181806    1W    00000080000001389000000000032H7    FYFSY   000000000000FE324015
BI00A32H7    FS2205EDMW     2022042718007704192              AVSS 1.25F V             CCN000022400000022400FN00000000020220501000022400NNE   20220420181806    1W    00000080000001389000000000032H7    FYFSY   000000000000FE324016
BI00A32H7    FS2205EDMW     2022042718007704140              AVSS 1.25F W             CCN000043200000043200FN00000000020220501000043200NNE   20220420181806    1W    00000080000001389000000000032H7    FYFSY   000000000000FE324017
BI00A32H7    FS2205DDMW     202204221801R703930              CIVUS 0.5 B              CCN000033000000033000FN00000000020220501000033000NNE21 20220420181806    1W    00000220000000525000000000032H7    FYFSY   000000000000FH224001
BI00A32H7    FS2205DDMW     202204221801R703940              CIVUS 0.5 W              CCN000068200000068200FN00000000020220501000068200NNE21 20220420181806    1W    00000220000000525000000000032H7    FYFSY   000000000000FH224012
BI00A32H7    FS2205DDMW     202204221801R703950              CIVUS 0.5 R              CCN000059400000059400FN00000000020220501000059400NNE21 20220420181806    1W    00000220000000525000000000032H7    FYFSY   000000000000FH224009
BI00A32H7    FS2205DDMW     202204221801R703952              CIVUS 0.5 P              CCN000068200000068200FN00000000020220501000068200NNE21 20220420181806    1W    00000220000000525000000000032H7    FYFSY   000000000000FH224008
BI00A32H7    FS2205DDMW     202204221801R703960              CIVUS 0.5 G              CCN000061600000061600FN00000000020220501000061600NNE21 20220420181806    1W    00000220000000525000000000032H7    FYFSY   000000000000FH224004
BI00A32H7    FS2205DDMW     202204221801R703961              CIVUS 0.5 LG             CCN000059400000059400FN00000000020220501000059400NNE21 20220420181806    1W    00000220000000525000000000032H7    FYFSY   000000000000FH224007
BI00A32H7    FS2205DDMW     202204221801R703990              CIVUS 0.5 L              CCN000066000000066000FN00000000020220501000066000NNE21 20220420181806    1W    00000220000000525000000000032H7    FYFSY   000000000000FH224006
BI00A32H7    FS2205DDMW     202204221801R703992              CIVUS 0.5 V              CCN000167200000167200FN00000000020220501000167200NNE21 20220420181806    1W    00000220000000525000000000032H7    FYFSY   000000000000FH224011
BI00A32H7    FS2205DDMW     202204221801R704130              CIVUS 1.25 B             CCN000070000000070000FN00000000020220501000070000NNE21 20220420181806    1W    00000100000001228000000000032H7    FYFSY   000000000000FH224027
BI00A32H7    FS2205DDMW     202204221801R704150              CIVUS 1.25 R             CCN000016000000016000FN00000000020220501000016000NNE21 20220420181806    1W    00000100000001228000000000032H7    FYFSY   000000000000FH224035
BI00A32H7    FS2205DDMW     202204221801R704152              CIVUS 1.25 P             CCN000016000000016000FN00000000020220501000016000NNE21 20220420181806    1W    00000100000001228000000000032H7    FYFSY   000000000000FH224034
BI00A32H7    FS2205DDMW     202204221801R704191              CIVUS 1.25 SB            CCN000015000000015000FN00000000020220501000015000NNE21 20220420181806    1W    00000100000001228000000000032H7    FYFSY   000000000000FH224036
BI00A32H7    FS2205DDMW     202204221801R706980              CIVUS 0.35 BR            CCN000060000000060000FN00000000020220501000060000NNE21 20220420181806    1W    00000300000000386000000000032H7    FYFSY   000000000000FH224043
BI00A32H7    FS2205DDMW     202204221801R706960              CIVUS 0.35 G             CCN000060000000060000FN00000000020220501000060000NNE21 20220420181806    1W    00000300000000386000000000032H7    FYFSY   000000000000FH224044
BI00A32H7    FS2205DDMW     202204221801R706952              CIVUS 0.35 P             CCN000060000000060000FN00000000020220501000060000NNE21 20220420181806    1W    00000300000000386000000000032H7    FYFSY   000000000000FH224048
BI00A32H7    FS2205DDMW     202204221801R706950              CIVUS 0.35 R             CCN000045000000045000FN00000000020220501000045000NNE21 20220420181806    1W    00000300000000386000000000032H7    FYFSY   000000000000FH224049
BI00A32H7    FS2205DDMW     202204281801R706930              CIVUS 0.35 B             CCN000624000000624000FN00000000020220501000624000NNE23 20220420193335    1W    00000300000000386000000000032H7    FYFSY   000000000000FH224041
BI00A32H7    FS2205DDMW     202204281801R706940              CIVUS 0.35 W             CCN000663000000663000FN00000000020220501000663000NNE23 20220420193521    1W    00000300000000386000000000032H7    FYFSY   000000000000FH224052
BI00A32H7    FS2205DDMW     202204281801R706941              CIVUS 0.35 GY            CCN000315000000315000FN00000000020220501000315000NNE23 20220420193618    1W    00000300000000386000000000032H7    FYFSY   000000000000FH224045
BI00A32H7    FS2205DDMW     202204281801R706943              CIVUS 0.35 W/B           CCN000642000000642000FN00000000020220501000642000NNE23 20220420193703    1W    00000300000000386000000000032H7    FYFSY   000000000000FH224053
BI00A32H7    FS2205DDMW     202204281801R70695U              CIVUS 0.35 BE            CCN000231000000231000FN00000000020220501000231000NNE23 20220420193747    1W    00000300000000386000000000032H7    FYFSY   000000000000FH224042
BI00A32H7    FS2205DDMW     202204281801R706950              CIVUS 0.35 R             CCN000714000000714000FN00000000020220501000714000NNE23 20220420193909    1W    00000300000000386000000000032H7    FYFSY   000000000000FH224049
BI00A32H7    FS2205DDMW     202204281801R706952              CIVUS 0.35 P             CCN000279000000279000FN00000000020220501000279000NNE23 20220420194039    1W    00000300000000386000000000032H7    FYFSY   000000000000FH224048
BI00A32H7    FS2205DDMW     202204281801R706960              CIVUS 0.35 G             CCN000414000000414000FN00000000020220501000414000NNE23 20220420194118    1W    00000300000000386000000000032H7    FYFSY   000000000000FH224044
BI00A32H7    FS2205DDMW     202204281801R706961              CIVUS 0.35 LG            CCN000489000000489000FN00000000020220501000489000NNE23 20220420194211    1W    00000300000000386000000000032H7    FYFSY   000000000000FH224047
BI00A32H7    FS2205DDMW     202204281801R706970              CIVUS 0.35 Y             CCN000156000000156000FN00000000020220501000156000NNE23 20220420194254    1W    00000300000000386000000000032H7    FYFSY   000000000000FH224054
BI00A32H7    FS2205DDMW     202204281801R706990              CIVUS 0.35 L             CCN000612000000612000FN00000000020220501000612000NNE23 20220420194434    1W    00000300000000386000000000032H7    FYFSY   000000000000FH224046
BI00A32H7    FS2205DDMW     202204281801R706991              CIVUS 0.35 SB            CCN000234000000234000FN00000000020220501000234000NNE23 20220420194507    1W    00000300000000386000000000032H7    FYFSY   000000000000FH224050
BI00A32H7    FS2205DDMW     202204281801R706992              CIVUS 0.35 V             CCN000429000000429000FN00000000020220501000429000NNE23 20220420194538    1W    00000300000000386000000000032H7    FYFSY   000000000000FH224051
BI00B32N1    @NBT2118C      20220512181D6910239              AVSSHCS 0.5FX2 B/L       CCN000021000000021000FN00000000020220401000021000NNE   20220420181806    1W    00000030000002385000000000032N1    TAYIPL  000000000000XO124001
