BI00B1200    7360T52409     202204287195-1933-02             TERMINAL MALE            CCN000024000000024000FN00000000020220501000024000NNED0720220420121541    4P0P  0000240000000067080000000001200    YCYC    006400630015
BI00B1200    #Y022G50044    202206237154-5597-30             CASSETTE R/B             CCN000004800000004800FN00000000020220701000004800NNE   20220420121541    2F0F  0000008000000073600000095201200    YCYC    005500360039
BI00B1200    #Y022G50045    202206237289-2912-40             HOUSING FEMALE ASS'Y     CCN000002000000002000FN00000000020220701000002000NNE   20220420121541    2N0N  0000020000000080400000093101200    YCYC    005400370024
BI00B1200    H322G50030     202206307116-4112-02             TERMINAL                 CCN000024000000024000FN00000000020220701000024000NNE   20220420121541    4P0P  0000060000000045000000073821200    YCYC    006400630015
BI00B1200    #O022F50381    202205197282-6458-40             CONNECTOR                CCN000001000000001000FN00000000020220601000001000NNE   20220420121541    2N0N  0000010000000120600000135051200    YCYC    005500360039
BI00B1200    #O022F50425    202205267282-6458-40             CONNECTOR                CCN000010000000010000FN00000000020220601000010000NNE   20220420121541    2N0N  0000010000000120600000135051200    YCYC    005500360039
BI00B1200    #O022F50426    202205267282-6458-40             CONNECTOR                CCN000010000000010000FN00000000020220601000010000NNE   20220420121541    2N0N  0000010000000120600000135051200    YCYC    005500360039
BI00B1200    #O022F50427    202205267282-6458-40             CONNECTOR                CCN000010000000010000FN00000000020220601000010000NNE   20220420121541    2N0N  0000010000000120600000135051200    YCYC    005500360039
BI00B1200    O022H50024     202207077116-4100-02             TERMINAL                 CCN000015000000015000FN00000000020220801000015000NNE   20220420121541    4P0P  0000150000000069600000099021200    YCYC    006400630015
BI00B1200    Y022H50019     202207217288-9556-30             SEALED ASSY MALE         CCN000002160000002160FN00000000020220801000002160NNM   20220420121541    4N0N  0000007200000053790000078631200    YCYC    005500360039
BI00A1200    #30EF-100      202205067124-1026-30             PROTECTOR                CCN000003000000003000FN00000000020220501000003000NNE   20220420150513    2F0F  0000030000000082800000098601200    YCYC    005500360039
BI00A32AF    JTB205A        202205037289-3342                HOUSING FEMALE ASS'Y     CCN000036000000004800FN00000000020220501000004800NNED0020220420121541    1N0N  00000240000000686400000901432AF    HBYHVTB 005500360039
BI00A32AF    JTB205A        202205067289-3342                HOUSING FEMALE ASS'Y     CCN000004800000007200FN00000000020220501000007200NNED0020220420121541    1N0N  00000240000000686400000901432AF    HBYHVTB 005500360039
BI00A32AF    JTB205A        202205137289-3342                HOUSING FEMALE ASS'Y     CCN000004800000007200FN00000000020220501000007200NNED0020220420121541    1N0N  00000240000000686400000901432AF    HBYHVTB 005500360039
BI00A32AF    JTB205A        202205187289-3342                HOUSING FEMALE ASS'Y     CCN000004800000009600FN00000000020220501000009600NNED0020220420121541    1N0N  00000240000000686400000901432AF    HBYHVTB 005500360039
BI00A32AF    JTB205A        202205237289-3342                HOUSING FEMALE ASS'Y     CCN000004800000007200FN00000000020220501000007200NNED0020220420121541    1N0N  00000240000000686400000901432AF    HBYHVTB 005500360039
BI00A32AF    JTB204B        202204217283-4855                CONNECTOR HOUSING        CCN000004800000002400FN00000000020220401000002400NNED0020220420121541    4N0N  00000240000001188400001400032AF    HBYHVTB 005500360039
BI00A32AF    JTB204B        202204217289-3342-30             HOUSING FEMALE ASS'Y     CCN000024000000016800FN00000000020220401000016800NNED0020220420121541    1N0N  00000240000000686400000901432AF    HBYHVTB 005500360039
BI00A32AF    JTB204B        202205037289-3342-40             HOUSING FEMALE ASS'Y     CCN000004800000002400FN00000000020220401000002400NNED0020220420121541    1N0N  00000240000000686400000901432AF    HBYHVTB 005500360039
BI00A32AF    JTB204B        202204217289-3342-90             HOUSING FEMALE ASS'Y     CCN000009600000004800FN00000000020220401000004800NNED0020220420121541    1N0N  00000240000000686400000901432AF    HBYHVTB 005500360039
BI00A32AF    JTB204B        202205037289-3342-90             HOUSING FEMALE ASS'Y     CCN000004800000002400FN00000000020220401000002400NNED0020220420121541    1N0N  00000240000000686400000901432AF    HBYHVTB 005500360039
BI00A32AF    JTB204B        202205107289-3342-90             HOUSING FEMALE ASS'Y     CCN000002400000002400FN00000000020220401000002400NNED0020220420121541    1N0N  00000240000000686400000901432AF    HBYHVTB 005500360039
BI00A32AF    JTB204B        202205037289-3342-30             HOUSING FEMALE ASS'Y     CCN000007200000007200FN00000000020220401000007200NNED0020220420121541    1N0N  00000240000000686400000901432AF    HBYHVTB 005500360039
BI00A32AF    JTB204B        202205107289-3342-40             HOUSING FEMALE ASS'Y     CCN000002400000002400FN00000000020220401000002400NNED0020220420121541    1N0N  00000240000000686400000901432AF    HBYHVTB 005500360039
BI00A32AF    JTB204B        202205037283-4855                CONNECTOR HOUSING        CCN000002400000002400FN00000000020220401000002400NNED0020220420121541    4N0N  00000240000001188400001400032AF    HBYHVTB 005500360039
BI00B32AG    #XG22071IMW    202206027189-3031-30             HOUSING FEMALE           CCN000002400000000000FY00000000020220701000000000NNMQ0820220420101315    2F0F  00000240000000928800001365832AG    XGXGY   005500360039
BI00B32AG    #XG22073LMW    202206177157-3992-90             CONNECTOR SEALED         CCN000040000000000000FY00000000020220701000000000NNMQ0820220420150025    2C0C  00004000000000300000000363332AG    XGXGY   002700430014
BI00B32CA    PTA32105       202206307114-5096-02             TERMINAL                 CCN000424000000450000FN00000000020221001000450000NNE   20220420152953    4P0P  00003000000000498000000792232CA    YPYPY   006400630015
BI00B32CA    PTA32105       202206307114-5096-08             TERMINAL                 CCN000136000000150000FN00000000020221001000150000NNE   20220420152953    4P0P  00003000000000498000000792232CA    YPYPY   006400630015
BI00B32CA    PTA32105       202206307116-4486-02             TERMINAL                 CCN000305500000308000FN00000000020221001000308000NNE   20220420152953    4P0P  00002800000000666400000995132CA    YPYPY   006400630017
BI00B32D1    DFTC2229       202206097114-5748-02             TERMINAL                 CCN000036000000036000FN00000000020220701000036000NNM   20220420153102    4P0P  00001200000000444000000737632D1    TOYOT-K 006400630015
BI00B32D1    DFTC2229       202206097114-5753-02             TERMINAL                 CCN000108000000108000FN00000000020220701000108000NNM   20220420153102    4P0P  00002700000000847800001141432D1    TOYOT-K 006400630015
BI00B32D1    DFTC2229       202206097116-1685-02             TERMINAL                 CCN000024000000024000FN00000000020220701000024000NNM   20220420153102    4P0P  00002400000000897600001065232D1    TOYOT-K 005100280028
BI00B32D1    DFTC2229       202206097116-2891-02             TERMINAL                 CCN000060000000060000FN00000000020220701000060000NNM   20220420153102    4P0P  00001500000000982500001145932D1    TOYOT-K 005100280028
BI00B32D1    DFTC2229       202206097116-4100-02             TERMINAL                 CCN000015000000015000FN00000000020220701000015000NNM   20220420153102    4P0P  00001500000000696000000990232D1    TOYOT-K 006400630015
BI00B32D1    DFTC2229       202206097116-4101-02             TERMINAL                 CCN000012000000012000FN00000000020220701000012000NNM   20220420153102    4P0P  00001200000000582000000876232D1    TOYOT-K 006400630015
BI00B32D1    DFTC2229       202206097116-4110-02             TERMINAL                 CCN000018000000018000FN00000000020220701000018000NNM   20220420153102    4P0P  00000900000000594000000882232D1    TOYOT-K 006400630015
BI00B32D1    DFTC2229       202206097116-4111-02             TERMINAL                 CCN000015000000015000FN00000000020220701000015000NNM   20220420153102    4P0P  00000750000000529500000817732D1    TOYOT-K 006400630015
BI00B32D1    DFTC2229       202206097116-4112-02             TERMINAL                 CCN000036000000036000FN00000000020220701000036000NNM   20220420153102    4P0P  00000600000000450000000738232D1    TOYOT-K 006400630015
BI00B32D1    DFTC2229       202206097116-4486-02             TERMINAL                 CCN000084000000084000FN00000000020220701000084000NNM   20220420153102    4P0P  00002800000000666400000995132D1    TOYOT-K 006400630017
BI00B32D1    DFTC2229       202206097116-5045-02             TERMINAL                 CCN000048000000048000FN00000000020220701000048000NNM   20220420153102    4P0P  00001600000000678400001007132D1    TOYOT-K 006400630017
BI00B32D1    DFTC2229       202206097126-8853-02             TERMINAL                 CCN000045000000045000FN00000000020220701000045000NNM   20220420153102    4P0P  00000750000000562500000847732D1    TOYOT-K 006400630015
BI00B32D1    DFTC2229       202206097126-8854-02             TERMINAL                 CCN000045000000045000FN00000000020220701000045000NNM   20220420153102    4P0P  00000750000000604500000889732D1    TOYOT-K 006400630015
BI00B32D1    DFTC2229       202206097126-8855-02             TERMINAL                 CCN000036000000036000FN00000000020220701000036000NNM   20220420153102    4P0P  00000600000000510600000795832D1    TOYOT-K 006400630015
BI00B32D1    DFTC2229       202206097158-3070-80             RUBBER STOPPER           CCN000040000000040000FN00000000020220701000040000NNM   20220420153102    1C0C  00004000000000276000000333332D1    TOYOT-K 002700430014
BI00B32D1    DFTC2229       202206097196-0510-02             TERMINAL                 CCN000024000000024000FN00000000020220701000024000NNM   20220420153102    4P0P  00002400000000871200001034632D1    TOYOT-K 002800510028
BI00B32D1    DFTC2229       202206097282-4576                HOUSING MALE ASS'Y       CCN000004800000004800FN00000000020220701000004800NNM   20220420153102    4N0N  00000240000000808800001028832D1    TOYOT-K 005500360039
BI00B32D1    DFTC2229       202206097283-1156                CONNECTOR                CCN000001600000001600FN00000000020220701000001600NNM   20220420153102    4N0N  00000080000000877600001078032D1    TOYOT-K 005600390040
BI00B32D1    DFTC2229       202206097288-6547                CONNECTOR MALE ASS'Y     CCN000004500000004500FN00000000020220701000004500NNM   20220420153102    4N0N  00000075000001205300001340332D1    TOYOT-K 005400370024
BI00B32D1    DFTC2229       202206097289-3342                HOUSING FEMALE ASS'Y     CCN000021600000021600FN00000000020220701000021600NNM   20220420153102    1N0N  00000240000000686400000901432D1    TOYOT-K 005500360039
BI00B32D1    DFTC2229       202206097289-3342-30             HOUSING FEMALE ASS'Y     CCN000033600000033600FN00000000020220701000033600NNM   20220420153102    1N0N  00000240000000686400000901432D1    TOYOT-K 005500360039
BI00B32D1    DFTC2229       202206097289-3342-40             HOUSING FEMALE ASS'Y     CCN000007200000007200FN00000000020220701000007200NNM   20220420153102    1N0N  00000240000000686400000901432D1    TOYOT-K 005500360039
BI00B32D1    DFTC2229       202206097289-3342-90             HOUSING FEMALE ASS'Y     CCN000002400000002400FN00000000020220701000002400NNM   20220420153102    1N0N  00000240000000686400000901432D1    TOYOT-K 005500360039
BI00B32D1    DFTC2229       202206097289-6547                HOUSING FEMALE ASS'Y     CCN000004800000004800FN00000000020220701000004800NNM   20220420153102    1N0N  00000240000001152000001362032D1    TOYOT-K 005500360039
BI00B32D1    DFTC2229       202206097295-0785-02             TERMINAL ALUMINIUM       CCN000025500000025500FN00000000020220701000025500NNM   20220420153102    4P0P  00002550000000510000000803632D1    TOYOT-K 006400630015
BI00B32D1    DFTC2229       202206097296-0784-02             TERMINAL ALUMINIUM       CCN000024000000024000FN00000000020220701000024000NNM   20220420153102    4P0P  00002400000000480000000765232D1    TOYOT-K 006400630015
BI00B32D1    DFTC2229       202206097327-6731-3W             BATTERY FUSE             CCN000000640000000640FN00000000020220701000000640NNM   20220420153102    4N0N  00000006400000697600000843032D1    TOYOT-K 005400370024
BI00B32D1    DFTC2229       202206097388-2978-30             HOUSING MALE ASS'Y       CCN000003360000003360FN00000000020220701000003360NNM   20220420153102    1N0N  00000048000000742000001122032D1    TOYOT-K 005500360039
BI00B32D1    #DFTC2229      202206097047-5344                RETAINER                 CCN000010000000010000FN00000000020220701000010000NNM   20220420153100    2F0F  00001000000000870000001016032D1    TOYOT-K 005600390023
BI00B32D1    #DFTC2229      202206097158-3003-90             RUBBER STOPPER           CCN000060000000060000FN00000000020220701000060000NNM   20220420153100    2C0C  00002000000000250000000306032D1    TOYOT-K 002700430014
BI00B32D1    #DFTC2229      202206097158-3005-80             RUBBER STOPPER           CCN000020000000020000FN00000000020220701000020000NNM   20220420153100    2H0H  00002000000000210000000268732D1    TOYOT-K 002700430014
BI00B32D1    #DFTC2229      202206097158-3008-80             RUBBER STOPPER           CCN000040000000040000FN00000000020220701000040000NNM   20220420153100    2C0C  00002000000000288000000343032D1    TOYOT-K 004300270014
BI00B32D1    #DFTC2229      202206097158-3015-10             RUBBER STOPPER           CCN000020000000020000FN00000000020220701000020000NNM   20220420153100    2C0C  00001000000000419500000474032D1    TOYOT-K 002700430014
BI00B32D1    #DFTC2229      202206097158-3017                RUBBER STOPPER           CCN000010000000010000FN00000000020220701000010000NNM   20220420153100    2C0C  00001000000000375500000435032D1    TOYOT-K 002700430014
BI00B32D1    #DFTC2229      202206097172-5627-60             RUBBER STOPPER           CCN000020000000020000FN00000000020220701000020000NNM   20220420153100    2H0H  00002000000000070400000121832D1    TOYOT-K 004300270014
BI00B32D1    #DFTC2229      202206097172-5629-80             RUBBER STOPPER           CCN000080000000080000FN00000000020220701000080000NNM   20220420153100    2H0H  00002000000000060000000111132D1    TOYOT-K 004300270014
BI00B32D1    #DFTC2229      202206097172-5630-40             RUBBER STOPPER           CCN000020000000020000FN00000000020220701000020000NNM   20220420153100    2H0H  00002000000000044000000095132D1    TOYOT-K 004300270014
BI00B32D1    #DFTC2229      202206097172-5631-60             RUBBER STOPPER           CCN000040000000040000FN00000000020220701000040000NNM   20220420153100    2H0H  00002000000000042000000093132D1    TOYOT-K 004300270014
BI00B32D1    #DFTC2229      202206097172-5632-10             DUMMY PLUG               CCN000040000000040000FN00000000020220701000040000NNM   20220420153100    2H0H  00002000000000080400000131832D1    TOYOT-K 004300270014
BI00B32D1    #DFTC2229      202206097183-2415-90             CONNECTOR HOUSING        CCN000004800000004800FN00000000020220701000004800NNM   20220420153100    2F0F  00000480000000798200001091432D1    TOYOT-K 005500360039
BI00B32D1    #DFTC2229      202206097189-2978-30             HOUSING FEMALE           CCN000006000000006000FN00000000020220701000006000NNM   20220420153100    2F0F  00000150000000966900001096932D1    TOYOT-K 005400370024
BI00B32D1    #DFTC2229      202206097189-3033                HOUSING FEMALE           CCN000003200000003200FN00000000020220701000003200NNM   20220420153100    2F0F  00000160000001211200001431232D1    TOYOT-K 005500360039
BI00B32D1    #DFTC2229      202206097189-3036                HOUSING FEMALE           CCN000001600000001600FN00000000020220701000001600NNM   20220420153100    2F0F  00000160000000921600001141632D1    TOYOT-K 005500360039
BI00B32D1    #DFTC2229      202206097282-1641                CONNECTOR                CCN000004000000004000FN00000000020220701000004000NNM   20220420153100    2N0N  00000200000000813000000986032D1    TOYOT-K 005500360039
BI00B32D1    #DFTC2229      202206097289-2912-40             HOUSING FEMALE ASS'Y     CCN000002000000002000FN00000000020220701000002000NNM   20220420153100    2N0N  00000200000000804000000931032D1    TOYOT-K 005400370024
BI00B32D1    #DFTC2229      202206097289-3622-30             HOUSING FEMALE ASS'Y     CCN000001296000001296FN00000000020220701000001296NNM   20220420153100    2N0N  00000043200000839400001038432D1    TOYOT-K 005400370024
BI00B32D1    #DFTC2229      202206097289-4200-30             HOUSING FEMALE ASS'Y     CCN000002000000002000FN00000000020220701000002000NNM   20220420153100    2N0N  00000200000000926000001021032D1    TOYOT-K 005400370024
BI00B32EJ    T220419P01     202205267116-4100-02             TERMINAL                 CCN000015000000015000FN00000000020220501000015000NNE   20220420121541EJ  4P0P  00001500000000696000000990232EJ    EJYKBO  006400630015
BI00B32EJ    T220419P01     202205267158-3006-90             RUBBER STOPPER           CCN000020000000020000FN00000000020220501000020000NNE   20220420121541EJ  1C0C  00002000000000330600000386032EJ    EJYKBO  002700430014
BI00B32EJ    T220419P01     202205267116-4022                TERMINAL                 CCN000040500000040500FN00000000020220501000040500NNE   20220420121541EJ  4P0P  00001350000000618300000903532EJ    EJYKBO  006400630015
BI00B32EJ    T220419P01     202205267158-3070-80             RUBBER STOPPER           CCN000040000000040000FN00000000020220501000040000NNE   20220420121541EJ  1C0C  00004000000000276000000333332EJ    EJYKBO  002700430014
BI00B32EJ    #T220419P01    202205267158-3374-90             CONNECTOR WIRE SEAL      CCN000020000000020000FN00000000020220501000020000NNE   20220420121541EJ  2H0H  00002000000000172000000229332EJ    EJYKBO  002700430014
BI00B32EJ    #T220419P02    202205267158-3120-90             CONNECTOR WIRE SEAL      CCN000020000000020000FN00000000020220501000020000NNE   20220420121541EJ  2C0C  00002000000000136000000194032EJ    EJYKBO  002700430014
BI00A32EJ    @T220420X01    202204217183-7770-40             HOUSING                  CCN000012000000012000FN00000000020220401000012000NNE00020220420121541EJ  3F0F  00000600000001011000001161032EJ    EJYKBO  005400370024
BI00A32EJ    @T220420X02    202204217183-7770-40             HOUSING                  CCN000006000000006000FN00000000020220401000006000NNE00020220420121541EJ  3F0F  00000600000001011000001161032EJ    EJYKBO  005400370024
BI00A32EJ    @T220420X03    202204217183-7770-40             HOUSING                  CCN000018000000018000FN00000000020220401000018000NNE00020220420121541EJ  3F0F  00000600000001011000001161032EJ    EJYKBO  005400370024
BI00B32G0    TZ2205BEMW     202205037116-1686-02             TERMINAL                 CCN000021000000021000FN00000000020220501000021000NNE   20220420153514    4P0P  00002100000000869400001021632G0    TTTJY   005100280028
BI00B32G0    TZ2205BEMW     202205037126-8853-02             TERMINAL                 CCN000045000000045000FN00000000020220501000045000NNE   20220420153514    4P0P  00000750000000562500000847732G0    TTTJY   006400630015
BI00B32G0    TZ2205BEMW     202205037283-1289-40             CONNECTOR HOUSING        CCN000025200000025200FN00000000020220501000025200NNE   20220420153514    1N0N  00000060000000679800000824832G0    TTTJY   005400370024
BI00B32G0    #TZ2205BEMW    202205037154-5597-30             CASSETTE R/B             CCN000012800000012800FN00000000020220501000012800NNE   20220420153506    2F0F  00000080000000736000000952032G0    TTTJY   005500360039
BI00B32G7    JJ22061 MW     202205197289-3342-30             HOUSING FEMALE ASS'Y     CCN000028800000028800FN00000000020220601000028800NNMD0420220420121541    1N0N  00000240000000686400000901432G7    JIJAI   005500360039
BI00B32G7    JJ22062 MW     202205267289-3342-30             HOUSING FEMALE ASS'Y     CCN000026400000026400FN00000000020220601000026400NNMD0420220420121541    1N0N  00000240000000686400000901432G7    JIJAI   005500360039
BI00B32G7    JJ22063 MW     202206027289-3342-30             HOUSING FEMALE ASS'Y     CCN000028800000028800FN00000000020220601000028800NNMD0420220420121541    1N0N  00000240000000686400000901432G7    JIJAI   005500360039
BI00B32G7    JJ22064 MW     202206097289-3342-30             HOUSING FEMALE ASS'Y     CCN000028800000028800FN00000000020220601000028800NNMD0420220420121541    1N0N  00000240000000686400000901432G7    JIJAI   005500360039
BI00B32H2    TIJ2043        202205277289-3342-30             HOUSING FEMALE ASS'Y     CCN000048000000048000FN00000000020220401000048000NNM00020220420175759    1N0N  00000240000000686400000901432H2    HVYHV   005500360039
BI00B32H2    TIJ2044        202205137289-3342-30             HOUSING FEMALE ASS'Y     CCN000120000000120000FN00000000020220401000120000NNM00020220420175814    1N0N  00000240000000686400000901432H2    HVYHV   005500360039
BI00B32H2    TIJ2054        202205067282-9391                HOUSING MALE ASS'Y       CCN000002400000001200FN00000000020220501000001200NNMQ0820220420121541    4N0N  00000120000001017600001237632H2    HVYHV   005500360039
BI00B32H2    TIJ2054        202205067283-7029-40             CONNECTOR                CCN000012000000006000FN00000000020220501000006000NNMQ0820220420121541    1N0N  00000600000001026000001200032H2    HVYHV   005600390023
BI00B32H2    #TIJ2054       202205067283-8123-40             CONNECTOR HOUSING        CCN000012000000008000FN00000000020220501000008000NNMQ0820220420121541    2N0N  00000400000000380000000530032H2    HVYHV   005600390023
BI00B32H2    TIJ2064        202206027282-1024                HOUSING MALE             CCN000002000000000000FY00000000020220601000000000NNMQ0820220420083606    1N0N  00000100000000458000000580532H2    HVYHV   005400370024
BI00B32H2    TIJ2063        202205277282-4576                HOUSING MALE ASS'Y       CCN000007200000000000FY00000000020220601000000000NNMQ0820220420083427    4N0N  00000240000000808800001028832H2    HVYHV   005500360039
BI00B32H2    TIJ2064        202206027282-4576                HOUSING MALE ASS'Y       CCN000007200000000000FY00000000020220601000000000NNMQ0820220420083443    4N0N  00000240000000808800001028832H2    HVYHV   005500360039
BI00B32H2    TIJ2062        202206107289-3342-30             HOUSING FEMALE ASS'Y     CCN000012000000012000FN00000000020220601000012000NNMD0020220420175831    1N0N  00000240000000686400000901432H2    HVYHV   005500360039
BI00B32H2    TIJ2063        202206107289-3342-30             HOUSING FEMALE ASS'Y     CCN000009600000009600FN00000000020220601000009600NNMD0020220420175905    1N0N  00000240000000686400000901432H2    HVYHV   005500360039
BI00B32H2    TIJ2062        202205207386-9155                CONNECTOR MALE ASS'Y     CCN000000600000000000FY00000000020220601000000000NNMQ0820220420083625    4N0N  00000060000001244400001369932H2    HVYHV   005400370024
BI00B32H2    #TIJ2064       202206027183-2415                CONNECTOR HOUSING        CCN000014400000009600FN00000000020220601000009600NNMQ0820220420121541    2F0F  00000480000000798200001091432H2    HVYHV   005500360039
BI00B32H2    #TIJ2064       202206027189-3032                HOUSING FEMALE           CCN000001600000000000FY00000000020220601000000000NNMQ0820220420101510    2F0F  00000160000000788400001018432H2    HVYHV   005500360039
BI00B32H2    #TIJ2064       202206027282-5845-30             HOUSING MALE ASS'Y       CCN000004000000000000FY00000000020220601000000000NNMQ0820220420132149    2N0N  00000400000001068000001178032H2    HVYHV   005400370024
BI00B32H2    #TIJ2064       202206027287-7022                CONNECTOR FEMALE         CCN000001200000000000FY00000000020220601000000000NNMQ0820220420132213    2NON  00000120000000742800000853032H2    HVYHV   005400370024
BI00A32H2    TIJ2034        202204227289-3342-30             HOUSING FEMALE ASS'Y     PCN000060000000057600FN00000000020220301000057600NNM00020220420180055    1N0N  00000240000000686400000901432H2    HVYHV   005500360039
BI00B32H2    TIJ206C        202206107289-3342-30             HOUSING FEMALE ASS'Y     CCN000012000000012000FN00000000020220601000012000NNED0020220420175843    1N0N  00000240000000686400000901432H2    HVYHV   005500360039
BI00B32J1    390044         202205037114-4100-02             TERMINAL                 CCN002160000002160000FN00000000020220401002160000NNED0420220420121541    4P0P  00001800000000748800001077432J1    UKYEL-BL006400630017
BI00B32M1    TCV2042        202204017289-3342                HOUSING FEMALE ASS'Y     CCN000086400000086400FN00000000020220401000086400NNM00020220420132549    1N0N  00000240000000686400000901432M1    VNYEV   005500360039
BI00B32M1    TCV2044        202204017289-3342                HOUSING FEMALE ASS'Y     CCN000132000000132000FN00000000020220401000132000NNM00020220420132549    1N0N  00000240000000686400000901432M1    VNYEV   005500360039
BI00B32M1    TCV2034        202204227289-3342                HOUSING FEMALE ASS'Y     CCN000040800000040800FN00000000020220301000040800NNM00020220420132549    1N0N  00000240000000686400000901432M1    VNYEV   005500360039
BI00B32M1    TCV205B        202204287114-4032                TERMINAL                 CNN000022500000022500FN00000000020220501000022500NNE   20220420121541    4P0P  00000750000000735000001063632M1    VNYEV   006400630017
BI00B32M1    TCV205B        202204287114-5746-02             TERMINAL                 CNN000042000000042000FN00000000020220501000042000NNE   20220420121541    4P0P  00002100000000695100000988732M1    VNYEV   006400630015
BI00B32M1    TCV205B        202204287196-1104-02             TERMINAL                 CNN000022500000022500FN00000000020220501000022500NNE   20220420121541    4P0P  00002250000000441000000726232M1    VNYEV   006400630015
BI00B32P8    TAPI-206B1     202206087283-4855-40             CONNECTOR HOUSING        CCN000002000000002400FN00000000020220601000002400NNMD0420220420135527    4N0N  00000240000001188400001400032P8    YIYTM   005600360039
BI00B32R7    R-TAP220186    202205057298-1186-40             SQUIB SUB ASS'Y          CCN000100000000100000FN00000000020220501000100000NNE   20220420121541    4N0N  00001000000000650000000774532R7    IVYCIC  005400370024
BI00B32R7    R-TAP220188    202205057158-3006-90             RUBBER STOPPER           CCN000020000000020000FN00000000020220501000020000NNE   20220420121541    1C0C  00002000000000330600000386032R7    IVYCIC  002700430014
BI00A32U5    DI2016D        202204297116-5046-02             TERMINAL                 CCN000060000000060000FN00000000020220401000060000NNED0720220420135435U5  4P0P  00001200000000544800000873532U5    AMAMSD  006400630017
BI00A32U5    #DI2016D       202204297189-3032                HOUSING FEMALE           CCN000006400000006400FN00000000020220401000006400NNED0720220420135332U5  2F0F  00000160000000788400001018432U5    AMAMSD  005500360039
BI00A32U5    #DI2016D       202204297158-3007-10             RUBBER STOPPER           CCN000100000000100000FN00000000020220401000100000NNED0720220420135332U5  2H0H  00002000000000308000000362732U5    AMAMSD  002700430014
BI00A32U5    #DI2016D       202204297158-3008-80             RUBBER STOPPER           CCN000060000000060000FN00000000020220401000060000NNED0720220420135332U5  2C0C  00002000000000288000000343032U5    AMAMSD  004300270014
BI00A32U5    #DI2016D       202204297289-4200-30             HOUSING FEMALE ASS'Y     CCN000020000000020000FN00000000020220401000020000NNED0720220420135332U5  2N0N  00000200000000926000001021032U5    AMAMSD  005400370024
BI00B32U9    TP0396S        202206027222-6244-40             CONNECTOR                CCN000008000000008000FN00000000020220601000008000NNED0620220420121541U9  4N0N  00000080000001239200001422032U9    YNYNA-E 005600390040
BI00B32U9    TP0396S        202207077222-4220-30             CONNECTOR                CCN000002250000002250FN00000000020220601000002250NNED0620220420121541U9  4N0N  00000075000001219000001384032U9    YNYNA-E 005600390040
BI00B32U9    TPA224         202205197222-4220-30             CONNECTOR                CCN000004500000004500FN00000000020220601000004500NNMD0620220420121541U9  4N0N  00000075000001219000001384032U9    YNYNA-E 005600390040
BI00A32U9    TP0010E        202204297298-2509-30             HOUSING FEMALE ASS'Y     CCN000001000000001200FN00000000020220401000001200NNED0720220420153201U9  4N0N  00000120000000857500001062532U9    YNYNA-E 005500360039
BI00B32W4    4500188080     202206027158-3167-80             WIRE SEAL                CCN000380000000380000FN00000000020220501000380000NNED0320220420131143W4561C0C  00002000000000048000000109032W456  HJYHK   002700430014
BI00B32W4    4500189007     202205267158-3167-80             WIRE SEAL                CCN000320000000320000FN00000000020220401000320000NNED0320220420131021W4N61C0C  00002000000000048000000109032W4N6  HJYHK-J 002700430014
BI00B32W4    4500189010     202206027158-3167-80             WIRE SEAL                CCN000400000000400000FN00000000020220401000400000NNED0320220420131047W4N61C0C  00002000000000048000000109032W4N6  HJYHK-J 002700430014
BI00B32W4    4500189090     202205267158-3167-80             WIRE SEAL                CCN002420000002420000FN00000000020220301002420000NNED0320220420142933W4B71C0C  00002000000000048000000109032W4B7  HJYHK-J 002700430014
BI00A32W4    4500189808     202204257283-1030                CONNECTOR                CCN000006000000006000FN00000000020220401000006000NNEM0020220420135133W4654N0N  00000600000000988000001172032W465  HJYHK   005500360039
BI00B32W4    4500191045     202206027158-3167-80             WIRE SEAL                CCN000480000000480000FN00000000020220501000480000NNED0320220420131116W4N61C0C  00002000000000048000000109032W4N6  HJYHK-J 002700430014
BI00B32W4    4500192290     202208047283-1020                CONNECTOR                CCN000492000000132000FN00000000020220401000132000NNED0220220420121541W4514N0N  00000600000000840000001049332W451  HJ32W9  005600390040
BI00B32W4    4500192290     202208117283-1020                CONNECTOR                CCN000120000000120000FN00000000020220401000120000NNED0220220420121541W4514N0N  00000600000000840000001049332W451  HJ32W9  005600390040
BI00B32W4    4500192290     202208187283-1020                CONNECTOR                CCN000120000000120000FN00000000020220401000120000NNED0220220420121541W4514N0N  00000600000000840000001049332W451  HJ32W9  005600390040
BI00B32W4    4500192290     202208257283-1020                CONNECTOR                CCN000120000000120000FN00000000020220401000120000NNED0220220420121541W4514N0N  00000600000000840000001049332W451  HJ32W9  005600390040
BI00B32W9    4500192243     202205177283-7028-30             CONNECTOR                CCN000201000000060000FN00000000020220401000060000NNED0220220420121541W9  4N0N  00000300000001452000001681332W9    HKYHK   005600390040
BI00B32W9    4500192243     202206077283-7028-30             CONNECTOR                CCN000060000000060000FN00000000020220401000060000NNED0220220420121541W9  4N0N  00000300000001452000001681332W9    HKYHK   005600390040
BI00B32W9    4500192243     202206217283-7028-30             CONNECTOR                CCN000060000000060000FN00000000020220401000060000NNED0220220420121541W9  4N0N  00000300000001452000001681332W9    HKYHK   005600390040
BI00B32W9    4500192243     202207057283-7028-30             CONNECTOR                CCN000021000000021000FN00000000020220401000021000NNED0220220420121541W9  4N0N  00000300000001452000001681332W9    HKYHK   005600390040
BI00A32X5    TIB2016C       202204297116-5046-02             TERMINAL                 CCN000084000000084000FN00000000020220401000084000NNED0720220420145306X5  4P0P  00001200000000544800000873532X5    EPYNA-E 006400630017
BI00A32X5    #TIB2016C      202204297158-3007-10             RUBBER STOPPER           CCN000100000000100000FN00000000020220401000100000NNED0720220420135232X5  2H0H  00002000000000308000000362732X5    EPYNA-E 002700430014
BI00A32X5    #TIB2016C      202204297158-3008-80             RUBBER STOPPER           CCN000200000000200000FN00000000020220401000200000NNED0720220420135232X5  2C0C  00002000000000288000000343032X5    EPYNA-E 004300270014
BI00B32Y2    TAU1181        202204277289-3342-30             HOUSING FEMALE ASS'Y     CCN000069600000069600FN00000000020220701000069600NNM00020220420132024    1N0N  00000240000000686400000901432Y2    YUYUY   005500360039
BI00B32Y2    TAU1191        202204277116-4032                TERMINAL                 CCN000006000000006000FN00000000020220801000006000NNM00020220420131934    4P0P  00000600000000532800000818032Y2    YUYUY   006400630015
BI00B32Y2    TAU1191        202204277158-3070-80             RUBBER STOPPER           CCN000040000000040000FN00000000020220801000040000NNM00020220420131939    1C0C  00004000000000276000000333332Y2    YUYUY   002700430014
BI00B32Y2    TAU1191        202204277196-0510-02             TERMINAL                 CCN000072000000072000FN00000000020220801000072000NNM00020220420131943    4P0P  00002400000000871200001034632Y2    YUYUY   002800510028
BI00B32Y2    TAU1191        202204277282-4855                HOUSING MALE ASS'Y       CCN000000050000001200FN00000000020220801000001200NNM00020220420131947    4N0N  00000120000001063200001283232Y2    YUYUY   005500360039
BI00B32Y2    TAU1191        202204277288-3206                HOUSING MALE ASS'Y       CCN000035700000009180FN00000000020220801000009180NNM00020220420131958    1N0N  00000102000000387600000787632Y2    YUYUY   005500360039
