BI00A1200    CE22-MN-0017   202203027327-6994-3W             BATTERY FUSE             CCN000000072000000072FN00000000020220101000000072NNED0720220225134525    4N0N  0000000720000121510000143011200    YCYC    005500360039
BI00A1200    7360T52206     202203157288-3338-30             HOUSING MALE             CCN000012000000012000FN00000000020220301000012000NNE00020220225151553    4N0N  0000015000000086610000101201200    YCYC    005400370024
BI00A1200    7360T52206     202204127288-3340-30             HOUSING MALE             CCN000007500000007500FN00000000020220301000007500NNE00020220225151928    4N0N  0000015000000086150000100641200    YCYC    005400370024
BI00B1200    2399T52233     202203317289-4696-30             HOUSING FEMALE ASS'Y     CCN000002000000002000FN00000000020220501000002000NNED0020220225122114    4N0N  0000020000000091340000105541200    YCYC    005400370024
BI00B1200    8670T52302     202204287137-3047-30             UNIT PACKING             CCN000002000000002000FN00000000020220501000002000NNE   20220225122114    1C0C  0000010000000017050000021891200    YCYC    002700430014
BI00B1200    #8670T52302    202204287289-2919-30             HOUSING FEMALE ASS'Y     CCN000001500000001500FN00000000020220501000001500NNE   20220225122114    2N0N  0000015000000090750000103451200    YCYC    005400370024
BI00B1200    8670T52303     202205057137-3047-30             UNIT PACKING             CCN000002000000002000FN00000000020220601000002000NNE   20220225122114    1C0C  0000010000000017050000021891200    YCYC    002700430014
BI00B1200    8670T52303     202205057172-5402-30             SEAL RUBBER              CCN000008000000008000FN00000000020220601000008000NNE   20220225122114    1C0C  0000080000000045760000050601200    YCYC    004300270014
BI00B1200    8670T52303     202205057172-5403-30             SEALED PACKING           CCN000008000000008000FN00000000020220601000008000NNE   20220225122114    1C0C  0000040000000065360000070171200    YCYC    004300270014
BI00B1200    8670T52304     202205127137-3047-30             UNIT PACKING             CCN000003000000003000FN00000000020220601000003000NNE   20220225122114    1C0C  0000010000000017050000021891200    YCYC    002700430014
BI00B1200    8670T52304     202205127172-5402-30             SEAL RUBBER              CCN000008000000008000FN00000000020220601000008000NNE   20220225122114    1C0C  0000080000000045760000050601200    YCYC    004300270014
BI00B1200    8670T52304     202205127172-5403-30             SEALED PACKING           CCN000008000000008000FN00000000020220601000008000NNE   20220225122114    1C0C  0000040000000065360000070171200    YCYC    004300270014
BI00B1200    8670T52304     202205127196-1103-02             TERMINAL                 CCN000022500000022500FN00000000020220601000022500NNE   20220225122114    4P0P  0000225000000042980000071501200    YCYC    006400630015
BI00B1200    8670T52304     202205127196-1104-02             TERMINAL                 CCN000022500000022500FN00000000020220601000022500NNE   20220225122114    4P0P  0000225000000044100000072621200    YCYC    006400630015
BI00B1200    #8670T52304    202205127172-5629-80             RUBBER STOPPER           CCN000020000000020000FN00000000020220601000020000NNE   20220225122114    2H0H  0000200000000006000000011111200    YCYC    004300270014
BI00B1200    #8670T52304    202205127172-5630-40             RUBBER STOPPER           CCN000020000000020000FN00000000020220601000020000NNE   20220225122114    2H0H  0000200000000004400000009511200    YCYC    004300270014
BI00B1200    8670T52305     202205197137-3047-30             UNIT PACKING             CCN000003000000003000FN00000000020220601000003000NNE   20220225122114    1C0C  0000010000000017050000021891200    YCYC    002700430014
BI00B1200    8670T52305     202205197172-5402-30             SEAL RUBBER              CCN000008000000008000FN00000000020220601000008000NNE   20220225122114    1C0C  0000080000000045760000050601200    YCYC    004300270014
BI00B1200    8670T52305     202205197172-5403-30             SEALED PACKING           CCN000008000000008000FN00000000020220601000008000NNE   20220225122114    1C0C  0000040000000065360000070171200    YCYC    004300270014
BI00B1200    8670T52305     202205197196-1103-02             TERMINAL                 CCN000022500000022500FN00000000020220601000022500NNE   20220225122114    4P0P  0000225000000042980000071501200    YCYC    006400630015
BI00B1200    #8670T52305    202205197172-5629-80             RUBBER STOPPER           CCN000020000000020000FN00000000020220601000020000NNE   20220225122114    2H0H  0000200000000006000000011111200    YCYC    004300270014
BI00B1200    #H322F50004    202205057174-1760-50             CAP                      CCN000024000000024000FN00000000020220501000024000NNE   20220225122114    2F0F  0000030000000081360000092261200    YCYC    005400370024
BI00B1200    O022F50033     202205197116-4100-02             TERMINAL                 CCN000045000000045000FN00000000020220601000045000NNE   20220225122114    4P0P  0000150000000069600000099021200    YCYC    006400630015
BI00B1200    Y022E50043     202204287116-4112-02             TERMINAL                 CCN000600000000600000FN00000000020220501000600000NNE   20220225122114    4P0P  0000060000000045000000073821200    YCYC    006400630015
BI00B32A7    ZZ22041LMW     202203027017-1180-02             TERMINAL                 CCN000144000000144000FN00000000020220401000144000NNM00020220225122114    4P0P  00007200000001065600001229032A7    ZZZZY   005100280028
BI00B32A7    ZZ22041LMW     202203027017-1182-02             TERMINAL                 CCN000135000000135000FN00000000020220401000135000NNM00020220225122114    4P0P  00004500000001165500001318632A7    ZZZZY   005100280028
BI00B32A7    ZZ22041LMW     202203027017-1183-02             TERMINAL                 CCN000027000000027000FN00000000020220401000027000NNM00020220225122114    4P0P  00002700000001139400001307432A7    ZZZZY   005100280028
BI00B32A7    ZZ22041LMW     202203027116-1685-02             TERMINAL                 CCN000024000000024000FN00000000020220401000024000NNM00020220225122114    4P0P  00002400000000897600001065232A7    ZZZZY   005100280028
BI00B32BF    TT22061KMW     202204197017-1180-02             TERMINAL                 CCN000072000000072000FN00000000020220601000072000NNM   20220225122114    4P0P  00007200000001065600001229032BF    TTTJYCD 005100280028
BI00B32BF    TT22061KMW     202204197017-1182-02             TERMINAL                 CCN000048000000090000FN00000000020220601000090000NNM   20220225122114    4P0P  00004500000001165500001318632BF    TTTJYCD 005100280028
BI00B32BF    TT22061KMW     202204197017-1183-02             TERMINAL                 CCN000060000000081000FN00000000020220601000081000NNM   20220225122114    4P0P  00002700000001139400001307432BF    TTTJYCD 005100280028
BI00B32BF    TT22061KMW     202204197114-1301                TERMINAL                 CCN000039000000039000FN00000000020220601000039000NNM   20220225122114    4P0P  00001950000000614300000907932BF    TTTJYCD 006400630015
BI00B32BF    TT22062KMW     202204267114-1301                TERMINAL                 CCN000039000000039000FN00000000020220601000039000NNM   20220225122114    4P0P  00001950000000614300000907932BF    TTTJYCD 006400630015
BI00B32BF    TT22061KMW     202204197114-4031                TERMINAL                 CCN000010500000010500FN00000000020220601000010500NNM   20220225122114    4P0P  00001050000000966000001294632BF    TTTJYCD 006400630017
BI00B32BF    TT22061KMW     202204197116-1471                TERMINAL                 CCN000045000000045000FN00000000020220601000045000NNM   20220225122114    4P0P  00001500000000579000000867232BF    TTTJYCD 006400630015
BI00B32BF    TT22062KMW     202204267116-1471                TERMINAL                 CCN000015000000015000FN00000000020220601000015000NNM   20220225122114    4P0P  00001500000000579000000867232BF    TTTJYCD 006400630015
BI00B32BF    TT22063KMW     202205037116-1471                TERMINAL                 CCN000015000000015000FN00000000020220601000015000NNM   20220225122114    4P0P  00001500000000579000000867232BF    TTTJYCD 006400630015
BI00B32BF    TT22061KMW     202204197116-4025                TERMINAL                 CCN000048000000048000FN00000000020220601000048000NNM   20220225122114    4P0P  00001600000000644800000975132BF    TTTJYCD 006400630017
BI00B32BF    TT22062KMW     202204267116-4025                TERMINAL                 CCN000032000000032000FN00000000020220601000032000NNM   20220225122114    4P0P  00001600000000644800000975132BF    TTTJYCD 006400630017
BI00B32BF    TT22063KMW     202205037116-4025                TERMINAL                 CCN000016000000016000FN00000000020220601000016000NNM   20220225122114    4P0P  00001600000000644800000975132BF    TTTJYCD 006400630017
BI00B32BF    TT22061KMW     202204197116-6041                TERMINAL                 CCN000004500000004500FN00000000020220601000004500NNM   20220225122114    4P0P  00000450000000716000001009632BF    TTTJYCD 006400630015
BI00B32BF    TT22061KMW     202204197116-6042                TERMINAL                 CCN000003000000003000FN00000000020220601000003000NNM   20220225122114    4P0P  00000300000000523800000856132BF    TTTJYCD 006400630015
BI00B32BF    TT22061KMW     202204197157-7915-80             REAR HOLDER              CCN000010000000010000FN00000000020220601000010000NNM   20220225122114    1F0F  00001000000001110000001364032BF    TTTJYCD 005500360039
BI00B32BF    TT22061KMW     202204197158-3006-90             RUBBER STOPPER           CCN000060000000060000FN00000000020220601000060000NNM   20220225122114    1C0C  00002000000000330600000386032BF    TTTJYCD 002700430014
BI00B32BF    TT22062KMW     202204267158-3006-90             RUBBER STOPPER           CCN000020000000020000FN00000000020220601000020000NNM   20220225122114    1C0C  00002000000000330600000386032BF    TTTJYCD 002700430014
BI00B32BF    TT22063KMW     202205037158-3006-90             RUBBER STOPPER           CCN000020000000020000FN00000000020220601000020000NNM   20220225122114    1C0C  00002000000000330600000386032BF    TTTJYCD 002700430014
BI00B32BF    TT22061KMW     202204197283-1140                CONNECTOR HOUSING        CCN000001500000001500FN00000000020220601000001500NNM   20220225122114    4N0N  00000150000000669000000932732BF    TTTJYCD 005600390040
BI00B32BF    TT22061KMW     202204197283-6036                CONNECTOR HOUSING        CCN000001600000001600FN00000000020220601000001600NNM   20220225122114    1N0N  00000160000000678200000945332BF    TTTJYCD 005600390040
BI00B32BF    TT22061KMW     202204197283-6038                CONNECTOR                CCN000004000000004000FN00000000020220601000004000NNM   20220225122114    1N0N  00000400000001005000001158032BF    TTTJYCD 005400370024
BI00B32BF    #TT22061KMW    202204197119-3130                HOUSING                  CCN000003000000003000FN00000000020220601000003000NNM   20220225122114    2F0F  00000300000001758000001868032BF    TTTJYCD 005500360039
BI00B32BF    #TT22061KMW    202204197123-1424-40             CONNECTOR HOUSING        CCN000004200000004200FN00000000020220601000004200NNM   20220225122114    2F0F  00000420000000987000001112032BF    TTTJYCD 005400370024
BI00B32BF    #TT22061KMW    202204197157-3790-90             WIRE SEAL                CCN000020000000020000FN00000000020220601000020000NNM   20220225122114    2C0C  00002000000000176000000232732BF    TTTJYCD 002700430014
BI00B32BF    #TT22061KMW    202204197157-7916-80             REAR HOLDER              CCN000008000000008000FN00000000020220601000008000NNM   20220225122114    2F0F  00000800000001100800001263032BF    TTTJYCD 003600540039
BI00B32BF    #TT22061KMW    202204197158-7173-30             CONNECTOR                CCN000001600000001600FN00000000020220601000001600NNM   20220225122114    2F0F  00000160000001235200001444632BF    TTTJYCD 005600390040
BI00B32BF    #TT22061KMW    202204197183-1616                CONNECTOR HOUSING        CCN000002400000002400FN00000000020220601000002400NNM   20220225122114    2F0F  00000240000000557500000823332BF    TTTJYCD 005500360039
BI00B32BF    @TT22061KMW    202204197283-1100-60             CONNECTOR ASS'Y          CCN000003200000003200FN00000000020220601000003200NNM   20220225122114    3N0N  00000160000000567500000801432BF    TTTJYCD 005500360039
BI00B32BF    @TT22062KMW    202204267283-1100-60             CONNECTOR ASS'Y          CCN000001600000001600FN00000000020220601000001600NNM   20220225122114    3N0N  00000160000000567500000801432BF    TTTJYCD 005500360039
BI00B32BF    @TT22061KMW    202204197283-1100-90             CONNECTOR ASS'Y          CCN000001600000001600FN00000000020220601000001600NNM   20220225122114    3N0N  00000160000000564800000806832BF    TTTJYCD 005500360039
BI00A32CH    SJ22022HMW     202203017327-6884-30             MULTI FUSE               CCN000002304000002304FN00000000020220201000002304NNM00020220225155336    4N0N  00000028800000988900001154832CH    SJSAMIJF005400370024
BI00B32CH    SJ22034HMW     202203037327-6870-30             MULTI FUSE               CCN000015552000015552FN00000000020220301000015552NNM00020220225154324    4N0N  00000028800001015200001181132CH    SJSAMIJF005400370024
BI00A32CH    SJ22033HMW     202203017327-6884-30             MULTI FUSE               CCN000018432000018432FN00000000020220301000018432NNM00020220225155422    4N0N  00000028800000988900001154832CH    SJSAMIJF005400370024
BI00A32CH    SJ22034HMW     202203017327-6884-30             MULTI FUSE               CCN000020448000005472FN00000000020220301000005472NNM00020220225155503    4N0N  00000028800000988900001154832CH    SJSAMIJF005400370024
BI00B32CH    SJ22044 MW     202203317158-3009-60             RUBBER STOPPER           CCN000200000000200000FN00000000020220401000200000NNMD0020220225122114    1C0C  00002000000000338000000386232CH    SJSAMIJF002700430014
BI00B32CH    SJ22044HMW     202203317B72-5540-80             SEALED WIRE SEAL         CCN000020000000020000FN00000000020220401000020000NNMD0020220225122114    1C0C  00002000000000186000000234432CH    SJSAMIJF004300270014
BI00B32CH    SJ2204AHMW     202204077327-6937-30             MULTI FUSE               CCN000000576000000576FN00000000020220401000000576NNED0420220225122114    4N0N  00000028800001013600001179532CH    SJSAMIJF005400370024
BI00A32CH    SJ22033HMW     202203017327-6870-30             MULTI FUSE               CCN000005184000005184FN00000000020220301000005184NNM00020220225155409    4N0N  00000028800001015200001181132CH    SJSAMIJF005400370024
BI00A32CH    SJ22034HMW     202203017327-6880-30             MULTI FUSE               CCN000012096000012096FN00000000020220301000012096NNM00020220225155448    4N0N  00000028800001012600001178532CH    SJSAMIJF005400370024
BI00A32D1    DFTC2216       202202287289-3342-40             HOUSING FEMALE ASS'Y     CCN000012000000012000FN00000000020220401000012000NNM00020220225144155    1N0N  00000240000000686400000901432D1    TOYOT-K 005500360039
BI00A32D1    DFTC2216       202202287289-6547                HOUSING FEMALE ASS'Y     CCN000012000000012000FN00000000020220401000012000NNM00020220225144147    1N0N  00000240000001152000001362032D1    TOYOT-K 005500360039
BI00B32D1    #DFTC2216      202203037158-3008-80             RUBBER STOPPER           CCN000060000000060000FN00000000020220401000060000NNMD0020220225122114    2C0C  00002000000000288000000343032D1    TOYOT-K 004300270014
BI00B32D1    #DFTC2216      202203037158-3017                RUBBER STOPPER           CCN000040000000040000FN00000000020220401000040000NNMD0020220225122114    2C0C  00001000000000375500000435032D1    TOYOT-K 002700430014
BI00A32D1    DFTC2217       202202287289-6547                HOUSING FEMALE ASS'Y     CCN000002400000002400FN00000000020220401000002400NNM00020220225144129    1N0N  00000240000001152000001362032D1    TOYOT-K 005500360039
BI00B32D1    DFTC2220       202203247289-3342                HOUSING FEMALE ASS'Y     CCN000002400000002400FN00000000020220501000002400NNMD0020220225150436    1N0N  00000240000000686400000901432D1    TOYOT-K 005500360039
BI00B32D1    DFTC2220       202203247289-3342-30             HOUSING FEMALE ASS'Y     CCN000009600000009600FN00000000020220501000009600NNMD0020220225150436    1N0N  00000240000000686400000901432D1    TOYOT-K 005500360039
BI00B32D1    DFTC2220       202203247289-3342-40             HOUSING FEMALE ASS'Y     CCN000002400000002400FN00000000020220501000002400NNMD0020220225150436    1N0N  00000240000000686400000901432D1    TOYOT-K 005500360039
BI00B32D1    DFTC2220       202203247289-3342-90             HOUSING FEMALE ASS'Y     CCN000002400000002400FN00000000020220501000002400NNMD0020220225150436    1N0N  00000240000000686400000901432D1    TOYOT-K 005500360039
BI00A32D2    #DGTC2212      202203047172-5629-80             RUBBER STOPPER           PCN000920000000460000FN00000000020220301000460000NNM00020220225133638    2H0H  00002000000000060000000111132D2    TGYOT-G 004300270014
BI00A32D2    DGTC2218       202202287158-3070-80             RUBBER STOPPER           CCN000080000000080000FY00008000020220501000000000NNM00020220225155051    1C0C  00004000000000276000000333332D2    TGYOT-G 002700430014
BI00A32D2    DGTC2218       202202287289-3342-40             HOUSING FEMALE ASS'Y     CCN000014400000014400FN00000000020220501000014400NNM00020220225144214    1N0N  00000240000000686400000901432D2    TGYOT-G 005500360039
BI00A32D2    DGTC2219       202202287158-3070-80             RUBBER STOPPER           CCN000040000000040000FY00004000020220501000000000NNM00020220225155051    1C0C  00004000000000276000000333332D2    TGYOT-G 002700430014
BI00A32D2    DGTC2219       202202287195-1479-02             TERMINAL MALE            CCN000024000000024000FY00002400020220501000000000NNM00020220225155051    4P0P  00002400000000420000000714232D2    TGYOT-G 006400630015
BI00B32D2    DGTC2221       202203317114-4032                TERMINAL                 CCN000030000000030000FN00000000020220501000030000NNM   20220225122114    4P0P  00000750000000735000001063632D2    TGYOT-G 006400630017
BI00B32D2    DGTC2221       202203317114-5748-02             TERMINAL                 CCN000060000000060000FN00000000020220501000060000NNM   20220225122114    4P0P  00001200000000444000000737632D2    TGYOT-G 006400630015
BI00B32D2    DGTC2221       202203317114-5753-02             TERMINAL                 CCN000162000000162000FN00000000020220501000162000NNM   20220225122114    4P0P  00002700000000847800001141432D2    TGYOT-G 006400630015
BI00B32D2    DGTC2221       202203317114-7842-02             TERMINAL MALE            CCN000012000000012000FN00000000020220501000012000NNM   20220225122114    4P0P  00001200000000460800000754432D2    TGYOT-G 006400630015
BI00B32D2    DGTC2221       202203317116-2891-02             TERMINAL                 CCN000015000000015000FN00000000020220501000015000NNM   20220225122114    4P0P  00001500000000982500001145932D2    TGYOT-G 005100280028
BI00B32D2    DGTC2221       202203317116-4486-02             TERMINAL                 CCN000112000000112000FN00000000020220501000112000NNM   20220225122114    4P0P  00002800000000666400000995132D2    TGYOT-G 006400630017
BI00B32D2    DGTC2221       202203317116-5045-02             TERMINAL                 CCN000032000000032000FN00000000020220501000032000NNM   20220225122114    4P0P  00001600000000678400001007132D2    TGYOT-G 006400630017
BI00B32D2    DGTC2221       202203317116-5046-02             TERMINAL                 CCN000048000000048000FN00000000020220501000048000NNM   20220225122114    4P0P  00001200000000544800000873532D2    TGYOT-G 006400630017
BI00B32D2    DGTC2221       202203317116-6042                TERMINAL                 CCN000063000000063000FN00000000020220501000063000NNM   20220225122114    4P0P  00000300000000523800000856132D2    TGYOT-G 006400630015
BI00B32D2    DGTC2221       202203317126-8853-02             TERMINAL                 CCN000030000000030000FN00000000020220501000030000NNM   20220225122114    4P0P  00000750000000562500000847732D2    TGYOT-G 006400630015
BI00B32D2    DGTC2221       202203317126-8854-02             TERMINAL                 CCN000075000000075000FN00000000020220501000075000NNM   20220225122114    4P0P  00000750000000604500000889732D2    TGYOT-G 006400630015
BI00B32D2    DGTC2221       202203317126-8855-02             TERMINAL                 CCN000096000000096000FN00000000020220501000096000NNM   20220225122114    4P0P  00000600000000510600000795832D2    TGYOT-G 006400630015
BI00B32D2    DGTC2221       202203317158-3070-80             RUBBER STOPPER           CCN000040000000040000FN00000000020220501000040000NNM   20220225122114    1C0C  00004000000000276000000333332D2    TGYOT-G 002700430014
BI00B32D2    DGTC2221       202203317173-3291-40             LIF LEVER                CCN000016800000016800FN00000000020220501000016800NNM   20220225122114    1F0F  00000240000000867800001067832D2    TGYOT-G 005500360039
BI00B32D2    DGTC2221       202203317196-1325-02             TERMINAL FEMALE          CCN000480000000480000FN00000000020220501000480000NNM   20220225122114    4P0P  00006000000000450000000778732D2    TGYOT-G 006400630017
BI00B32D2    DGTC2221       202203317196-1326-02             TERMINAL FEMALE          CCN000780000000780000FN00000000020220501000780000NNM   20220225122114    4P0P  00006000000000456000000784732D2    TGYOT-G 006400630017
BI00B32D2    DGTC2221       202203317196-1327-02             TERMINAL FEMALE          CCN000052000000052000FN00000000020220501000052000NNM   20220225122114    4P0P  00005200000000336000000739532D2    TGYOT-G 006400630017
BI00B32D2    DGTC2221       202203317283-6388-40             CONNECTOR                CCN000002000000002000FN00000000020220501000002000NNM   20220225122114    4N0N  00000200000001029000001173532D2    TGYOT-G 005500360039
BI00B32D2    DGTC2221       202203317289-3342                HOUSING FEMALE ASS'Y     CCN000009600000009600FN00000000020220501000009600NNM   20220225122114    1N0N  00000240000000686400000901432D2    TGYOT-G 005500360039
BI00B32D2    DGTC2221       202203317289-6518-30             HOUSING FEMALE ASS'Y     CCN000015600000015600FN00000000020220501000015600NNM   20220225122114    1N0N  00000120000000829200001049232D2    TGYOT-G 005500360039
BI00B32D2    DGTC2221       202203317296-0784-02             TERMINAL ALUMINIUM       CCN000024000000024000FN00000000020220501000024000NNM   20220225122114    4P0P  00002400000000480000000765232D2    TGYOT-G 006400630015
BI00B32D2    DGTC2221       202203317296-1020-02             TERMINAL ALUMINIUM       CCN000022500000022500FN00000000020220501000022500NNM   20220225122114    4P0P  00002250000000699800000985032D2    TGYOT-G 006400630015
BI00B32D2    DGTC2221       202203317296-1024-02             TERMINAL ALUMINIUM       CCN000018000000018000FN00000000020220501000018000NNM   20220225122114    4P0P  00001800000000698400000983632D2    TGYOT-G 006400630015
BI00B32D2    DGTC2221       202203317327-6801-3W             BATTERY FUSE             CCN000002688000002688FN00000000020220501000002688NNM   20220225122114    4N0N  00000009600000928400001143432D2    TGYOT-G 005500360039
BI00B32D2    DGTC2221       202203317327-6803                MULTI FUSE               CCN000000560000000560FN00000000020220501000000560NNM   20220225122114    4N0N  00000056000000854600001067032D2    TGYOT-G 005400370024
BI00B32D2    DGTC2221       202203317327-6806                MULTI FUSE               CCN000002800000002800FN00000000020220501000002800NNM   20220225122114    4N0N  00000056000000851500001063932D2    TGYOT-G 005400370024
BI00B32D2    DGTC2221       202203317327-6809                MULTI FUSE               CCN000006160000006160FN00000000020220501000006160NNM   20220225122114    4N0N  00000056000000849300001061732D2    TGYOT-G 005400370024
BI00B32D2    DGTC2221       202203317327-6930                MULTI FUSE               CCN000002800000002800FN00000000020220501000002800NNM   20220225122114    4N0N  00000056000000848900001031932D2    TGYOT-G 005400370024
BI00B32D2    DGTC2221       202203317388-2978-30             HOUSING MALE ASS'Y       CCN000020160000020160FN00000000020220501000020160NNM   20220225122114    1N0N  00000048000000742000001122032D2    TGYOT-G 005500360039
BI00B32D2    #DGTC2221      202203317158-3003-90             RUBBER STOPPER           CCN000140000000140000FN00000000020220501000140000NNM   20220225122114    2C0C  00002000000000250000000306032D2    TGYOT-G 002700430014
BI00B32D2    #DGTC2221      202203317158-3008-80             RUBBER STOPPER           CCN000080000000080000FN00000000020220501000080000NNM   20220225122114    2C0C  00002000000000288000000343032D2    TGYOT-G 004300270014
BI00B32D2    #DGTC2221      202203317158-3017                RUBBER STOPPER           CCN000010000000010000FN00000000020220501000010000NNM   20220225122114    2C0C  00001000000000375500000435032D2    TGYOT-G 002700430014
BI00B32D2    #DGTC2221      202203317158-3374-90             CONNECTOR WIRE SEAL      CCN000020000000020000FN00000000020220501000020000NNM   20220225122114    2H0H  00002000000000172000000229332D2    TGYOT-G 002700430014
BI00B32D2    #DGTC2221      202203317172-5629-80             RUBBER STOPPER           CCN000200000000200000FN00000000020220501000200000NNM   20220225122114    2H0H  00002000000000060000000111132D2    TGYOT-G 004300270014
BI00B32D2    #DGTC2221      202203317172-5630-40             RUBBER STOPPER           CCN000480000000480000FN00000000020220501000480000NNM   20220225122114    2H0H  00002000000000044000000095132D2    TGYOT-G 004300270014
BI00B32D2    #DGTC2221      202203317172-5631-60             RUBBER STOPPER           CCN000060000000060000FN00000000020220501000060000NNM   20220225122114    2H0H  00002000000000042000000093132D2    TGYOT-G 004300270014
BI00B32D2    #DGTC2221      202203317172-5632-10             DUMMY PLUG               CCN000180000000180000FN00000000020220501000180000NNM   20220225122114    2H0H  00002000000000080400000131832D2    TGYOT-G 004300270014
BI00B32D2    #DGTC2221      202203317189-2978-30             HOUSING FEMALE           CCN000021000000021000FN00000000020220501000021000NNM   20220225122114    2F0F  00000150000000966900001096932D2    TGYOT-G 005400370024
BI00B32D2    #DGTC2221      202203317189-3036                HOUSING FEMALE           CCN000001600000001600FN00000000020220501000001600NNM   20220225122114    2F0F  00000160000000921600001141632D2    TGYOT-G 005500360039
BI00B32D2    #DGTC2221      202203317189-3037-40             HOUSING FEMALE           CCN000009600000009600FN00000000020220501000009600NNM   20220225122114    2F0F  00000480000000901600001061632D2    TGYOT-G 005500360039
BI00A32D9    #I229A         202203077187-3359-60             JOINT CONNECTOR          CCN000001200000001200FN00000000020220201000001200NNED0720220225161826    2F0F  00000120000000763200001030432D9    UEHESTO 005600390040
BI00A32D9    #I229A         202203077189-9521                HOUSING                  CCN000002000000002000FN00000000020220201000002000NNED0720220225161826    2F0F  00000200000000754400000861432D9    UEHESTO 005400370024
BI00A32D9    #I229A         202203077189-9522-90             HOUSING                  CCN000002000000002000FN00000000020220201000002000NNED0720220225161826    2F0F  00000200000000753200000860232D9    UEHESTO 005400370024
BI00A32EJ    T220128P02     202202247283-7028-30             CONNECTOR                CCN000003000000003000FY00000300020220301000000000NNE00020220225114155EJ  4N0N  00000300000001452000001681332EJ    EJYKBO  005600390040
BI00B32G0    @TZ2203BEMW    202203087286-4098                CONNECTOR MALE ASS'Y     CCN000000300000001600FN00000000020220301000001600NNED0720220225145112    3N0N  00000160000000949100001163032G0    TTTJY   005500360039
BI00B32G0    TZ2204AEMW     202203087283-1928-80             CONNECTOR                CCN000010000000010000FN00000000020220401000010000NNE   20220225145233    4N0N  00000200000001180000001358332G0    TTTJY   005500360039
BI00B32G0    #TZ2204AEMW    202203087158-3007-10             RUBBER STOPPER           CCN000040000000040000FN00000000020220401000040000NNE   20220225145228    2H0H  00002000000000308000000362732G0    TTTJY   002700430014
BI00B32G0    #TZ2204AEMW    202203087158-3015-10             RUBBER STOPPER           CCN000020000000020000FN00000000020220401000020000NNE   20220225145228    2C0C  00001000000000419500000474032G0    TTTJY   002700430014
BI00B32G0    #TZ2204AEMW    202203087189-3033                HOUSING FEMALE           CCN000003200000003200FN00000000020220401000003200NNE   20220225145228    2F0F  00000160000001211200001431232G0    TTTJY   005500360039
BI00B32G0    #TZ2204AEMW    202203087189-3036                HOUSING FEMALE           CCN000001600000001600FN00000000020220401000001600NNE   20220225145228    2F0F  00000160000000921600001141632G0    TTTJY   005500360039
BI00B32G0    TZ22061EMW     202204197114-4728-08             TERMINAL                 CCN000030000000030000FN00000000020220601000030000NNM   20220225145536    4P0P  00003000000000507000000801232G0    TTTJY   006400630015
BI00B32G0    TZ22061EMW     202204197114-5096-08             TERMINAL                 CCN000030000000030000FN00000000020220601000030000NNM   20220225145536    4P0P  00003000000000498000000792232G0    TTTJY   006400630015
BI00B32G0    TZ22061EMW     202204197114-5748-02             TERMINAL                 CCN000036000000036000FN00000000020220601000036000NNM   20220225145536    4P0P  00001200000000444000000737632G0    TTTJY   006400630015
BI00B32G0    TZ22062EMW     202204267114-5748-02             TERMINAL                 CCN000024000000024000FN00000000020220601000024000NNM   20220225145536    4P0P  00001200000000444000000737632G0    TTTJY   006400630015
BI00B32G0    TZ22063EMW     202205037114-6041                TERMINAL                 CCN000007200000007200FN00000000020220601000007200NNM   20220225145536    4P0P  00000360000000580700000824232G0    TTTJY   006400630015
BI00B32G0    TZ22061EMW     202204197116-1685-02             TERMINAL                 CCN000024000000024000FN00000000020220601000024000NNM   20220225145536    4P0P  00002400000000897600001065232G0    TTTJY   005100280028
BI00B32G0    TZ22062EMW     202204267116-1685-02             TERMINAL                 CCN000024000000024000FN00000000020220601000024000NNM   20220225145536    4P0P  00002400000000897600001065232G0    TTTJY   005100280028
BI00B32G0    TZ22061EMW     202204197116-3153-08             TERMINAL                 CCN000108000000108000FN00000000020220601000108000NNM   20220225145536    4P0P  00002700000000461700000746932G0    TTTJY   006400630015
BI00B32G0    TZ22062EMW     202204267116-3153-08             TERMINAL                 CCN000108000000108000FN00000000020220601000108000NNM   20220225145536    4P0P  00002700000000461700000746932G0    TTTJY   006400630015
BI00B32G0    TZ22063EMW     202205037116-3153-08             TERMINAL                 CCN000081000000081000FN00000000020220601000081000NNM   20220225145536    4P0P  00002700000000461700000746932G0    TTTJY   006400630015
BI00B32G0    TZ22061EMW     202204197116-5045-02             TERMINAL                 CCN000112000000112000FN00000000020220601000112000NNM   20220225145536    4P0P  00001600000000678400001007132G0    TTTJY   006400630017
BI00B32G0    TZ22062EMW     202204267116-5045-02             TERMINAL                 CCN000112000000112000FN00000000020220601000112000NNM   20220225145536    4P0P  00001600000000678400001007132G0    TTTJY   006400630017
BI00B32G0    TZ22063EMW     202205037116-5045-02             TERMINAL                 CCN000064000000064000FN00000000020220601000064000NNM   20220225145536    4P0P  00001600000000678400001007132G0    TTTJY   006400630017
BI00B32G0    TZ22061EMW     202204197116-5046-02             TERMINAL                 CCN000036000000036000FN00000000020220601000036000NNM   20220225145536    4P0P  00001200000000544800000873532G0    TTTJY   006400630017
BI00B32G0    TZ22062EMW     202204267116-5046-02             TERMINAL                 CCN000024000000024000FN00000000020220601000024000NNM   20220225145536    4P0P  00001200000000544800000873532G0    TTTJY   006400630017
BI00B32G0    TZ22063EMW     202205037116-5046-02             TERMINAL                 CCN000024000000024000FN00000000020220601000024000NNM   20220225145536    4P0P  00001200000000544800000873532G0    TTTJY   006400630017
BI00B32G0    TZ22061EMW     202204197116-6041                TERMINAL                 CCN000027000000027000FN00000000020220601000027000NNM   20220225145536    4P0P  00000450000000716000001009632G0    TTTJY   006400630015
BI00B32G0    TZ22062EMW     202204267116-6041                TERMINAL                 CCN000013500000013500FN00000000020220601000013500NNM   20220225145536    4P0P  00000450000000716000001009632G0    TTTJY   006400630015
BI00B32G0    TZ22063EMW     202205037116-6041                TERMINAL                 CCN000013500000013500FN00000000020220601000013500NNM   20220225145536    4P0P  00000450000000716000001009632G0    TTTJY   006400630015
BI00B32G0    TZ22061EMW     202204197116-6042                TERMINAL                 CCN000036000000036000FN00000000020220601000036000NNM   20220225145536    4P0P  00000300000000523800000856132G0    TTTJY   006400630015
BI00B32G0    TZ22062EMW     202204267116-6042                TERMINAL                 CCN000030000000030000FN00000000020220601000030000NNM   20220225145536    4P0P  00000300000000523800000856132G0    TTTJY   006400630015
BI00B32G0    TZ22063EMW     202205037116-6042                TERMINAL                 CCN000030000000030000FN00000000020220601000030000NNM   20220225145536    4P0P  00000300000000523800000856132G0    TTTJY   006400630015
BI00B32G0    TZ22061EMW     202204197126-8853-02             TERMINAL                 CCN000030000000030000FN00000000020220601000030000NNM   20220225145536    4P0P  00000750000000562500000847732G0    TTTJY   006400630015
BI00B32G0    TZ22062EMW     202204267126-8853-02             TERMINAL                 CCN000030000000030000FN00000000020220601000030000NNM   20220225145536    4P0P  00000750000000562500000847732G0    TTTJY   006400630015
BI00B32G0    TZ22063EMW     202205037126-8853-02             TERMINAL                 CCN000022500000022500FN00000000020220601000022500NNM   20220225145536    4P0P  00000750000000562500000847732G0    TTTJY   006400630015
BI00B32G0    TZ22061EMW     202204197158-3006-90             RUBBER STOPPER           CCN000080000000080000FN00000000020220601000080000NNM   20220225145536    1C0C  00002000000000330600000386032G0    TTTJY   002700430014
BI00B32G0    TZ22062EMW     202204267158-3006-90             RUBBER STOPPER           CCN000080000000080000FN00000000020220601000080000NNM   20220225145536    1C0C  00002000000000330600000386032G0    TTTJY   002700430014
BI00B32G0    TZ22061EMW     202204197158-3070-80             RUBBER STOPPER           CCN000040000000040000FN00000000020220601000040000NNM   20220225145536    1C0C  00004000000000276000000333332G0    TTTJY   002700430014
BI00B32G0    TZ22062EMW     202204267158-3070-80             RUBBER STOPPER           CCN000040000000040000FN00000000020220601000040000NNM   20220225145536    1C0C  00004000000000276000000333332G0    TTTJY   002700430014
BI00B32G0    TZ22061EMW     202204197158-3167-80             WIRE SEAL                CCN000040000000040000FN00000000020220601000040000NNM   20220225145536    1C0C  00002000000000048000000109032G0    TTTJY   002700430014
BI00B32G0    TZ22061EMW     202204197195-0783-08             TERMINAL                 CCN000030000000030000FN00000000020220601000030000NNM   20220225145536    4P0P  00003000000000507000000801232G0    TTTJY   006400630015
BI00B32G0    TZ22061EMW     202204197196-0396-02             TERMINAL                 CCN000015000000015000FN00000000020220601000015000NNM   20220225145536    4P0P  00001500000000949500001112932G0    TTTJY   002800510028
BI00B32G0    TZ22061EMW     202204197196-0510-02             TERMINAL                 CCN000048000000048000FN00000000020220601000048000NNM   20220225145536    4P0P  00002400000000871200001034632G0    TTTJY   002800510028
BI00B32G0    TZ22062EMW     202204267196-0510-02             TERMINAL                 CCN000048000000048000FN00000000020220601000048000NNM   20220225145536    4P0P  00002400000000871200001034632G0    TTTJY   002800510028
BI00B32G0    TZ22061EMW     202204197196-0805-02             TERMINAL FEMALE          CCN000022500000022500FN00000000020220601000022500NNM   20220225145536    4P0P  00002250000000558000000843232G0    TTTJY   006400630015
BI00B32G0    TZ22061EMW     202204197196-1325-02             TERMINAL FEMALE          CCN000060000000060000FN00000000020220601000060000NNM   20220225145536    4P0P  00006000000000450000000778732G0    TTTJY   006400630017
BI00B32G0    TZ22061EMW     202204197196-1326-02             TERMINAL FEMALE          CCN000060000000060000FN00000000020220601000060000NNM   20220225145536    4P0P  00006000000000456000000784732G0    TTTJY   006400630017
BI00B32G0    TZ22063EMW     202205037270-8994                6P MODULE ASSEMBLY       CCN000001000000001000FN00000000020220601000001000NNM   20220225145536    4J0J  00000010000001098600001298632G0    TTTJY   005400370024
BI00B32G0    TZ22061EMW     202204197283-1156                CONNECTOR                CCN000002400000002400FN00000000020220601000002400NNM   20220225145536    4N0N  00000080000000877600001078032G0    TTTJY   005600390040
BI00B32G0    TZ22062EMW     202204267283-1156                CONNECTOR                CCN000001600000001600FN00000000020220601000001600NNM   20220225145536    4N0N  00000080000000877600001078032G0    TTTJY   005600390040
BI00B32G0    TZ22063EMW     202205037283-1156                CONNECTOR                CCN000001600000001600FN00000000020220601000001600NNM   20220225145536    4N0N  00000080000000877600001078032G0    TTTJY   005600390040
BI00B32G0    TZ22063EMW     202205037283-1289-40             CONNECTOR HOUSING        CCN000001200000001200FN00000000020220601000001200NNM   20220225145536    1N0N  00000060000000679800000824832G0    TTTJY   005400370024
BI00B32G0    TZ22061EMW     202204197283-1928-80             CONNECTOR                CCN000004000000004000FN00000000020220601000004000NNM   20220225145536    4N0N  00000200000001180000001358332G0    TTTJY   005500360039
BI00B32G0    TZ22061EMW     202204197283-4855                CONNECTOR HOUSING        CCN000016800000016800FN00000000020220601000016800NNM   20220225145536    4N0N  00000240000001188400001400032G0    TTTJY   005500360039
BI00B32G0    TZ22062EMW     202204267283-4855                CONNECTOR HOUSING        CCN000014400000014400FN00000000020220601000014400NNM   20220225145536    4N0N  00000240000001188400001400032G0    TTTJY   005500360039
BI00B32G0    TZ22061EMW     202204197287-9323-40             UNSEALED HOUSING SUB     CCN000002400000002400FN00000000020220601000002400NNM   20220225145536    1N0N  00000240000000537600000690032G0    TTTJY   005600390023
BI00B32G0    TZ22061EMW     202204197288-6547                CONNECTOR MALE ASS'Y     CCN000017250000017250FN00000000020220601000017250NNM   20220225145536    4N0N  00000075000001205300001340332G0    TTTJY   005400370024
BI00B32G0    TZ22062EMW     202204267288-6547                CONNECTOR MALE ASS'Y     CCN000016500000016500FN00000000020220601000016500NNM   20220225145536    4N0N  00000075000001205300001340332G0    TTTJY   005400370024
BI00B32G0    TZ22061EMW     202204197288-6598-70             HOUSING MALE ASS'Y       CCN000001440000001440FN00000000020220601000001440NNM   20220225145536    4N0N  00000144000001074200001429232G0    TTTJY   005500360039
BI00B32G0    TZ22061EMW     202204197289-6547                HOUSING FEMALE ASS'Y     CCN000019200000019200FN00000000020220601000019200NNM   20220225145536    1N0N  00000240000001152000001362032G0    TTTJY   005500360039
BI00B32G0    TZ22062EMW     202204267289-6547                HOUSING FEMALE ASS'Y     CCN000014400000014400FN00000000020220601000014400NNM   20220225145536    1N0N  00000240000001152000001362032G0    TTTJY   005500360039
BI00B32G0    TZ22063EMW     202205037289-6547                HOUSING FEMALE ASS'Y     CCN000009600000009600FN00000000020220601000009600NNM   20220225145536    1N0N  00000240000001152000001362032G0    TTTJY   005500360039
BI00B32G0    TZ22061EMW     202204197289-6597-70             HOUSING FEMALE ASS'Y     CCN000021600000021600FN00000000020220601000021600NNM   20220225145536    4N0N  00000216000001289500001539532G0    TTTJY   005500360039
BI00B32G0    TZ22062EMW     202204267289-6597-70             HOUSING FEMALE ASS'Y     CCN000010800000010800FN00000000020220601000010800NNM   20220225145536    4N0N  00000216000001289500001539532G0    TTTJY   005500360039
BI00B32G0    TZ22063EMW     202205037289-6597-70             HOUSING FEMALE ASS'Y     CCN000008640000008640FN00000000020220601000008640NNM   20220225145536    4N0N  00000216000001289500001539532G0    TTTJY   005500360039
BI00B32G0    TZ22061EMW     202204197295-0785-02             TERMINAL ALUMINIUM       CCN000025500000025500FN00000000020220601000025500NNM   20220225145536    4P0P  00002550000000510000000803632G0    TTTJY   006400630015
BI00B32G0    TZ22061EMW     202204197296-0784-02             TERMINAL ALUMINIUM       CCN000048000000048000FN00000000020220601000048000NNM   20220225145536    4P0P  00002400000000480000000765232G0    TTTJY   006400630015
BI00B32G0    TZ22062EMW     202204267296-0784-02             TERMINAL ALUMINIUM       CCN000024000000024000FN00000000020220601000024000NNM   20220225145536    4P0P  00002400000000480000000765232G0    TTTJY   006400630015
BI00B32G0    TZ22061EMW     202204197327-6731-3W             BATTERY FUSE             CCN000002752000002752FN00000000020220601000002752NNM   20220225145536    4N0N  00000006400000697600000843032G0    TTTJY   005400370024
BI00B32G0    TZ22062EMW     202204267327-6731-3W             BATTERY FUSE             CCN000001152000001152FN00000000020220601000001152NNM   20220225145536    4N0N  00000006400000697600000843032G0    TTTJY   005400370024
BI00B32G0    TZ22063EMW     202205037327-6731-3W             BATTERY FUSE             CCN000001152000001152FN00000000020220601000001152NNM   20220225145536    4N0N  00000006400000697600000843032G0    TTTJY   005400370024
BI00B32G0    TZ22061EMW     202204197388-2978-30             HOUSING MALE ASS'Y       CCN000004800000004800FN00000000020220601000004800NNM   20220225145536    1N0N  00000048000000742000001122032G0    TTTJY   005500360039
BI00B32G0    TZ22062EMW     202204267388-2978-30             HOUSING MALE ASS'Y       CCN000004800000004800FN00000000020220601000004800NNM   20220225145536    1N0N  00000048000000742000001122032G0    TTTJY   005500360039
BI00B32G0    TZ22063EMW     202205037388-2978-30             HOUSING MALE ASS'Y       CCN000004320000004320FN00000000020220601000004320NNM   20220225145536    1N0N  00000048000000742000001122032G0    TTTJY   005500360039
BI00B32G0    #TZ22063EMW    202205037125-3236                HEAD LAMP CONNECTOR      CCN000002800000002800FN00000000020220601000002800NNM   20220225145525    2F0F  00000280000000935200001075432G0    TTTJY   005500360039
BI00B32G0    #TZ22061EMW    202204197157-6826-80             REAR HOLDER              CCN000015000000015000FN00000000020220601000015000NNM   20220225145525    2F0F  00001500000001234500001394132G0    TTTJY   005600390040
BI00B32G0    #TZ22061EMW    202204197158-3003-90             RUBBER STOPPER           CCN000060000000060000FN00000000020220601000060000NNM   20220225145525    2C0C  00002000000000250000000306032G0    TTTJY   002700430014
BI00B32G0    #TZ22062EMW    202204267158-3003-90             RUBBER STOPPER           CCN000040000000040000FN00000000020220601000040000NNM   20220225145525    2C0C  00002000000000250000000306032G0    TTTJY   002700430014
BI00B32G0    #TZ22063EMW    202205037158-3003-90             RUBBER STOPPER           CCN000040000000040000FN00000000020220601000040000NNM   20220225145525    2C0C  00002000000000250000000306032G0    TTTJY   002700430014
BI00B32G0    #TZ22061EMW    202204197158-3004-40             RUBBER STOPPER           CCN000100000000100000FN00000000020220601000100000NNM   20220225145525    2C0C  00002000000000234000000306332G0    TTTJY   002700430014
BI00B32G0    #TZ22062EMW    202204267158-3004-40             RUBBER STOPPER           CCN000080000000080000FN00000000020220601000080000NNM   20220225145525    2C0C  00002000000000234000000306332G0    TTTJY   002700430014
BI00B32G0    #TZ22061EMW    202204197158-3005-80             RUBBER STOPPER           CCN000020000000020000FN00000000020220601000020000NNM   20220225145525    2H0H  00002000000000210000000268732G0    TTTJY   002700430014
BI00B32G0    #TZ22062EMW    202204267158-3005-80             RUBBER STOPPER           CCN000020000000020000FN00000000020220601000020000NNM   20220225145525    2H0H  00002000000000210000000268732G0    TTTJY   002700430014
BI00B32G0    #TZ22061EMW    202204197158-3007-10             RUBBER STOPPER           CCN000120000000120000FN00000000020220601000120000NNM   20220225145525    2H0H  00002000000000308000000362732G0    TTTJY   002700430014
BI00B32G0    #TZ22062EMW    202204267158-3007-10             RUBBER STOPPER           CCN000100000000100000FN00000000020220601000100000NNM   20220225145525    2H0H  00002000000000308000000362732G0    TTTJY   002700430014
BI00B32G0    #TZ22061EMW    202204197158-3008-80             RUBBER STOPPER           CCN000040000000040000FN00000000020220601000040000NNM   20220225145525    2C0C  00002000000000288000000343032G0    TTTJY   004300270014
BI00B32G0    #TZ22062EMW    202204267158-3008-80             RUBBER STOPPER           CCN000040000000040000FN00000000020220601000040000NNM   20220225145525    2C0C  00002000000000288000000343032G0    TTTJY   004300270014
BI00B32G0    #TZ22063EMW    202205037158-3008-80             RUBBER STOPPER           CCN000040000000040000FN00000000020220601000040000NNM   20220225145525    2C0C  00002000000000288000000343032G0    TTTJY   004300270014
BI00B32G0    #TZ22061EMW    202204197158-3015-10             RUBBER STOPPER           CCN000010000000010000FN00000000020220601000010000NNM   20220225145525    2C0C  00001000000000419500000474032G0    TTTJY   002700430014
BI00B32G0    #TZ22062EMW    202204267158-3015-10             RUBBER STOPPER           CCN000010000000010000FN00000000020220601000010000NNM   20220225145525    2C0C  00001000000000419500000474032G0    TTTJY   002700430014
BI00B32G0    #TZ22061EMW    202204197158-3017                RUBBER STOPPER           CCN000020000000020000FN00000000020220601000020000NNM   20220225145525    2C0C  00001000000000375500000435032G0    TTTJY   002700430014
BI00B32G0    #TZ22062EMW    202204267158-3017                RUBBER STOPPER           CCN000020000000020000FN00000000020220601000020000NNM   20220225145525    2C0C  00001000000000375500000435032G0    TTTJY   002700430014
BI00B32G0    #TZ22063EMW    202205037158-3017                RUBBER STOPPER           CCN000020000000020000FN00000000020220601000020000NNM   20220225145525    2C0C  00001000000000375500000435032G0    TTTJY   002700430014
BI00B32G0    #TZ22061EMW    202204197172-5626-90             RUBBER STOPPER           CCN000080000000080000FN00000000020220601000080000NNM   20220225145525    2H0H  00002000000000076400000127832G0    TTTJY   004300270014
BI00B32G0    #TZ22062EMW    202204267172-5626-90             RUBBER STOPPER           CCN000080000000080000FN00000000020220601000080000NNM   20220225145525    2H0H  00002000000000076400000127832G0    TTTJY   004300270014
BI00B32G0    #TZ22061EMW    202204197172-5627-60             RUBBER STOPPER           CCN000020000000020000FN00000000020220601000020000NNM   20220225145525    2H0H  00002000000000070400000121832G0    TTTJY   004300270014
BI00B32G0    #TZ22061EMW    202204197172-5628-80             DUMMY PLUG               CCN000020000000020000FN00000000020220601000020000NNM   20220225145525    2H0H  00002000000000110600000162032G0    TTTJY   004300270014
BI00B32G0    #TZ22061EMW    202204197172-5629-80             RUBBER STOPPER           CCN000300000000300000FN00000000020220601000300000NNM   20220225145525    2H0H  00002000000000060000000111132G0    TTTJY   004300270014
BI00B32G0    #TZ22062EMW    202204267172-5629-80             RUBBER STOPPER           CCN000160000000160000FN00000000020220601000160000NNM   20220225145525    2H0H  00002000000000060000000111132G0    TTTJY   004300270014
BI00B32G0    #TZ22061EMW    202204197172-5630-40             RUBBER STOPPER           CCN000300000000300000FN00000000020220601000300000NNM   20220225145525    2H0H  00002000000000044000000095132G0    TTTJY   004300270014
BI00B32G0    #TZ22062EMW    202204267172-5630-40             RUBBER STOPPER           CCN000180000000180000FN00000000020220601000180000NNM   20220225145525    2H0H  00002000000000044000000095132G0    TTTJY   004300270014
BI00B32G0    #TZ22061EMW    202204197172-5631-60             RUBBER STOPPER           CCN000060000000060000FN00000000020220601000060000NNM   20220225145525    2H0H  00002000000000042000000093132G0    TTTJY   004300270014
BI00B32G0    #TZ22062EMW    202204267172-5631-60             RUBBER STOPPER           CCN000040000000040000FN00000000020220601000040000NNM   20220225145525    2H0H  00002000000000042000000093132G0    TTTJY   004300270014
BI00B32G0    #TZ22061EMW    202204197172-5632-10             DUMMY PLUG               CCN000120000000120000FN00000000020220601000120000NNM   20220225145525    2H0H  00002000000000080400000131832G0    TTTJY   004300270014
BI00B32G0    #TZ22062EMW    202204267172-5632-10             DUMMY PLUG               CCN000120000000120000FN00000000020220601000120000NNM   20220225145525    2H0H  00002000000000080400000131832G0    TTTJY   004300270014
BI00B32G0    #TZ22063EMW    202205037172-5632-10             DUMMY PLUG               CCN000100000000100000FN00000000020220601000100000NNM   20220225145525    2H0H  00002000000000080400000131832G0    TTTJY   004300270014
BI00B32G0    #TZ22061EMW    202204197183-1616                CONNECTOR HOUSING        CCN000002400000002400FN00000000020220601000002400NNM   20220225145525    2F0F  00000240000000557500000823332G0    TTTJY   005500360039
BI00B32G0    #TZ22062EMW    202204267183-1616                CONNECTOR HOUSING        CCN000002400000002400FN00000000020220601000002400NNM   20220225145525    2F0F  00000240000000557500000823332G0    TTTJY   005500360039
BI00B32G0    #TZ22061EMW    202204197183-2415-40             CONNECTOR HOUSING        CCN000004800000004800FN00000000020220601000004800NNM   20220225145525    2F0F  00000480000000798200001091432G0    TTTJY   005500360039
BI00B32G0    #TZ22061EMW    202204197189-2978-30             HOUSING FEMALE           CCN000007500000007500FN00000000020220601000007500NNM   20220225145525    2F0F  00000150000000966900001096932G0    TTTJY   005400370024
BI00B32G0    #TZ22062EMW    202204267189-2978-30             HOUSING FEMALE           CCN000007500000007500FN00000000020220601000007500NNM   20220225145525    2F0F  00000150000000966900001096932G0    TTTJY   005400370024
BI00B32G0    #TZ22063EMW    202205037189-2978-30             HOUSING FEMALE           CCN000006000000006000FN00000000020220601000006000NNM   20220225145525    2F0F  00000150000000966900001096932G0    TTTJY   005400370024
BI00B32G0    #TZ22061EMW    202204197189-3032-30             HOUSING FEMALE           CCN000004800000004800FN00000000020220601000004800NNM   20220225145525    2F0F  00000160000000801600001021632G0    TTTJY   005500360039
BI00B32G0    #TZ22062EMW    202204267189-3032-30             HOUSING FEMALE           CCN000003200000003200FN00000000020220601000003200NNM   20220225145525    2F0F  00000160000000801600001021632G0    TTTJY   005500360039
BI00B32G0    #TZ22061EMW    202204197189-3033                HOUSING FEMALE           CCN000003200000003200FN00000000020220601000003200NNM   20220225145525    2F0F  00000160000001211200001431232G0    TTTJY   005500360039
BI00B32G0    #TZ22062EMW    202204267189-3033                HOUSING FEMALE           CCN000003200000003200FN00000000020220601000003200NNM   20220225145525    2F0F  00000160000001211200001431232G0    TTTJY   005500360039
BI00B32G0    #TZ22061EMW    202204197189-3036                HOUSING FEMALE           CCN000003200000003200FN00000000020220601000003200NNM   20220225145525    2F0F  00000160000000921600001141632G0    TTTJY   005500360039
BI00B32G0    #TZ22062EMW    202204267189-3036                HOUSING FEMALE           CCN000001600000001600FN00000000020220601000001600NNM   20220225145525    2F0F  00000160000000921600001141632G0    TTTJY   005500360039
BI00B32G0    #TZ22061EMW    202204197198-4979-30             HOUSING FEMALE           CCN000004000000004000FN00000000020220601000004000NNM   20220225145525    2F0F  00000400000000707200000876032G0    TTTJY   005400370024
BI00B32G0    #TZ22062EMW    202204267198-4979-30             HOUSING FEMALE           CCN000004000000004000FN00000000020220601000004000NNM   20220225145525    2F0F  00000400000000707200000876032G0    TTTJY   005400370024
BI00B32G0    #TZ22061EMW    202204197289-3622-30             HOUSING FEMALE ASS'Y     CCN000000432000000432FN00000000020220601000000432NNM   20220225145525    2N0N  00000043200000839400001038432G0    TTTJY   005400370024
BI00B32G0    #TZ22061EMW    202204197289-4200-30             HOUSING FEMALE ASS'Y     CCN000002000000002000FN00000000020220601000002000NNM   20220225145525    2N0N  00000200000000926000001021032G0    TTTJY   005400370024
BI00B32G0    @TZ22061EMW    202204197286-4098                CONNECTOR MALE ASS'Y     CCN000003500000004800FN00000000020220601000004800NNM   20220225145533    3N0N  00000160000000949100001163032G0    TTTJY   005500360039
BI00B32G0    @TZ22061EMW    202204197287-4098-40             CONNECTOR FEMALE         CCN000002400000002400FN00000000020220601000002400NNM   20220225145533    3N0N  00000240000000672500000908032G0    TTTJY   005500360039
BI00B32G0    @TZ22061EMW    202204197287-6634                HOUSING FEMALE ASS'Y     CCN000002400000002400FN00000000020220601000002400NNM   20220225145533    3N0N  00000240000001088400001337032G0    TTTJY   005500360039
BI00B32G0    @TZ22062EMW    202204267287-6634                HOUSING FEMALE ASS'Y     CCN000002400000002400FN00000000020220601000002400NNM   20220225145533    3N0N  00000240000001088400001337032G0    TTTJY   005500360039
BI00B32G7    JJ2204CMMW     202203317297-3482                JOINT CONNECTOR          CCN000001600000001600FN00000000020220401000001600NNED0420220225122114    4N0N  00000080000000621000000730532G7    JIJAI   005400370024
BI00B32H2    #TIJ2033       202202287158-3008-80             RUBBER STOPPER           CCN000100000000100000FN00000000020220301000100000NNM00020220225122114    2C0C  00002000000000288000000343032H2    HVYHV   004300270014
BI00B32H2    #TIJ203J       202202287183-2511                HOUSING                  CCN000001600000001600FN00000000020220301000001600NNE00020220225154357    2F0F  00000160000000972200001242132H2    HVYHV   005500360039
BI00B32H7    FS22034DMW     202203027158-3006-90             RUBBER STOPPER           CCN000220000000220000FN00000000020220301000220000NNMD0620220225122114    1C0C  00002000000000330600000386032H7    FYFSY   002700430014
BI00B32H7    FS22034DMW     202203027283-4855                CONNECTOR HOUSING        CCN000012000000012000FN00000000020220301000012000NNM00020220225122114    4N0N  00000240000001188400001400032H7    FYFSY   005500360039
BI00B32H7    FS22034DMW     202203027288-6598-70             HOUSING MALE ASS'Y       CCN000002880000002880FN00000000020220301000002880NNM00020220225122114    4N0N  00000144000001074200001429232H7    FYFSY   005500360039
BI00B32H7    FS22041DMW     202203027158-3006-90             RUBBER STOPPER           CCN000220000000220000FN00000000020220401000220000NNM00020220225122114    1C0C  00002000000000330600000386032H7    FYFSY   002700430014
BI00B32H7    FS22041DMW     202203027287-9323-40             UNSEALED HOUSING SUB     CCN000002400000002400FN00000000020220401000002400NNM00020220225122114    1N0N  00000240000000537600000690032H7    FYFSY   005600390023
BI00B32H7    FS22041DMW     202203027386-9155                CONNECTOR MALE ASS'Y     CCN000004200000004200FN00000000020220401000004200NNM00020220225122114    4N0N  00000060000001244400001369932H7    FYFSY   005400370024
BI00B32H7    @FS22041DMW    202203027286-4098                CONNECTOR MALE ASS'Y     CCN000003200000003200FN00000000020220401000003200NNM00020220225122114    3N0N  00000160000000949100001163032H7    FYFSY   005500360039
BI00B32J1    391908         202203217114-4231-02             TERMINAL                 CCN000018000000018000FN00000000020220301000018000NNM   20220225122114    4P0P  00001800000000554400000848032J1    UKYEL-BL006400630015
BI00B32J1    391908         202203217116-4020                TERMINAL                 CCN000202500000202500FN00000000020220301000202500NNM   20220225122114    4P0P  00001350000000513000000798232J1    UKYEL-BL006400630015
BI00B32J1    391908         202203217116-5045-02             TERMINAL                 CCN000032000000032000FN00000000020220301000032000NNM   20220225122114    4P0P  00001600000000678400001007132J1    UKYEL-BL006400630017
BI00B32J1    391908         202203217126-8850-02             TERMINAL                 CCN000009000000009000FN00000000020220301000009000NNM   20220225122114    1P0P  00000900000000672300000957532J1    UKYEL-BL006400630015
BI00B32J1    391908         202203217126-8851-02             TERMINAL                 CCN000009000000009000FN00000000020220301000009000NNM   20220225122114    1P0P  00000900000000739800001025032J1    UKYEL-BL006400630015
BI00B32J1    391908         202203217158-3070-80             RUBBER STOPPER           CCN000040000000040000FN00000000020220301000040000NNM   20220225122114    1C0C  00004000000000276000000333332J1    UKYEL-BL002700430014
BI00B32J1    391908         202203217158-3165-90             WIRE SEAL                CCN000120000000120000FN00000000020220301000120000NNM   20220225122114    1C0C  00004000000000124000000172432J1    UKYEL-BL004300270014
BI00B32J1    391908         202203217158-3166-60             WIRE SEAL                CCN002160000002160000FN00000000020220301002160000NNM   20220225122114    1C0C  00004000000000104000000152432J1    UKYEL-BL002700430014
BI00B32J1    391908         202203217158-3167-80             WIRE SEAL                CCN002640000002640000FN00000000020220301002640000NNM   20220225122114    1C0C  00002000000000048000000109032J1    UKYEL-BL002700430014
BI00B32J1    391908         202203217158-3168-80             SEALED                   CCN001240000001240000FN00000000020220301001240000NNM   20220225122114    1C0C  00002000000000044000000092132J1    UKYEL-BL004300260014
BI00B32J1    391908         202203217282-5574-10             CONNECTOR                CCN000009600000009600FN00000000020220301000009600NNM   20220225122114    4N0N  00000080000001235000001423032J1    UKYEL-BL005600390040
BI00B32J1    391908         202203217282-5684-10             CONNECTOR                CCN000006000000006000FN00000000020220301000006000NNM   20220225122114    4N0N  00000120000001477000001656032J1    UKYEL-BL005600390040
BI00B32J1    391908         202203217282-6448-40             CONNECTOR                CCN000003200000003200FN00000000020220301000003200NNM   20220225122114    4N0N  00000080000000887000001152732J1    UKYEL-BL005600390040
BI00B32J1    391908         202203217283-1040                CONNECTOR                CCN000008000000008000FN00000000020220301000008000NNM   20220225122114    4N0N  00000200000000396000000670032J1    UKYEL-BL005600390040
BI00B32J1    391908         202203217283-5545-10             CONNECTOR                CCN000003000000003000FN00000000020220301000003000NNM   20220225122114    4N0N  00000060000001279000001409232J1    UKYEL-BL005600390040
BI00B32J1    391908         202203217283-6388-40             CONNECTOR                CCN000006000000006000FN00000000020220301000006000NNM   20220225122114    4N0N  00000200000001029000001173532J1    UKYEL-BL005500360039
BI00B32J1    391908         202203217283-6448-40             CONNECTOR                CCN000004500000004500FN00000000020220301000004500NNM   20220225122114    4N0N  00000150000001087000001329032J1    UKYEL-BL005600390040
BI00B32J1    391908         202203217289-5000                HOUSING FEMALE ASS'Y     CCN000001520000001520FN00000000020220301000001520NNM   20220225122114    1N0N  00000030400000549000000759032J1    UKYEL-BL005400370024
BI00B32J1    391908         202203217298-1869-30             HOUSING FEMALE ASS'Y     CCN000019200000019200FN00000000020220301000019200NNM   20220225122114    4N0N  00000120000000737000000939832J1    UKYEL-BL005500360039
BI00B32J1    391908         202203217298-2508-30             HOUSING FEMALE ASS'Y     CCN000001200000001200FN00000000020220301000001200NNM   20220225122114    4N0N  00000120000000822000001005032J1    UKYEL-BL005500360039
BI00B32J1    391908         202203217298-2509-30             HOUSING FEMALE ASS'Y     CCN000007200000007200FN00000000020220301000007200NNM   20220225122114    4N0N  00000120000000857500001062532J1    UKYEL-BL005500360039
BI00B32J1    391908         202203217327-6654-3W             BATTERY FUSE             CCN000000096000000096FN00000000020220301000000096NNM   20220225122114    4N0N  00000009600001132300001312432J1    UKYEL-BL005500360039
BI00B32J1    391908         202203217327-6840-3W             BATTERY FUSE             CCN000001152000001152FN00000000020220301000001152NNM   20220225122114    4N0N  00000007200001140900001355932J1    UKYEL-BL005500360039
BI00B32J1    #391908        202203217147-8717-30             CLIP                     CCN000010000000010000FN00000000020220301000010000NNM   20220225122114    2F0F  00000500000000660000000875032J1    UKYEL-BL005600390040
BI00B32J1    #391908        202203217157-3646                RUBBER STOPPER           CCN000040000000040000FN00000000020220301000040000NNM   20220225122114    2H0H  00002000000000184000000255232J1    UKYEL-BL002700430014
BI00B32J1    #391908        202203217158-3003-90             RUBBER STOPPER           CCN000060000000060000FN00000000020220301000060000NNM   20220225122114    2C0C  00002000000000250000000306032J1    UKYEL-BL002700430014
BI00B32J1    #391908        202203217158-3004-40             RUBBER STOPPER           CCN000040000000040000FN00000000020220301000040000NNM   20220225122114    2C0C  00002000000000234000000306332J1    UKYEL-BL002700430014
BI00B32J1    #391908        202203217158-3120-90             CONNECTOR WIRE SEAL      CCN000060000000060000FN00000000020220301000060000NNM   20220225122114    2C0C  00002000000000136000000194032J1    UKYEL-BL002700430014
BI00B32J1    #391908        202203217158-3376-50             CONNECTOR WIRE SEAL      CCN000020000000020000FN00000000020220301000020000NNM   20220225122114    2C0C  00002000000000184000000240732J1    UKYEL-BL002700430014
BI00B32J1    #391908        202203217282-4192-40             CONNECTOR                CCN000001680000001680FN00000000020220301000001680NNM   20220225122114    2N0N  00000024000000801000001083732J1    UKYEL-BL005600390040
BI00B32J1    #391908        202203217282-6446-40             CONNECTOR                CCN000013500000013500FN00000000020220301000013500NNM   20220225122114    2N0N  00000150000001185000001368032J1    UKYEL-BL005500360039
BI00B32J1    #391908        202203217282-6457-40             CONNECTOR                CCN000004000000004000FN00000000020220301000004000NNM   20220225122114    2N0N  00000080000001137000001421332J1    UKYEL-BL005600390040
BI00B32J1    #391908        202203217283-4192-40             CONNECTOR                CCN000004560000004560FN00000000020220301000004560NNM   20220225122114    2N0N  00000024000000846000000986032J1    UKYEL-BL005600390040
BI00B32J1    #391908        202203217283-8397-40             CONNECTOR                CCN000004620000004620FN00000000020220301000004620NNM   20220225122114    2N0N  00000154000001007000001222732J1    UKYEL-BL005600390023
BI00A32J1    #391980        202203077187-3357-40             JOINT CONNECTOR          CCN000001200000001200FN00000000020220201000001200NNED0720220225132337    2F0F  00000120000000762000001029232J1    UKYEL-BL005600390040
BI00B32J1    391982         202204047116-4060-02             TERMINAL                 CCN000024000000024000FN00000000020220401000024000NNE   20220225122114    1P0P  00002400000000511200000984232J1    UKYEL-BL006400630017
BI00B32J1    391982         202204047283-5545-10             CONNECTOR                CCN000000600000000600FN00000000020220401000000600NNE   20220225122114    4N0N  00000060000001279000001409232J1    UKYEL-BL005600390040
BI00B32M1    #TCVL203A      202203107172-5631-60             RUBBER STOPPER           CCN000020000000020000FN00000000020220301000020000NNE   20220225122114    2H0H  00002000000000042000000093132M1    VNYEV   004300270014
BI00B32M3    #SM22043 MW    202203177157-3821                RUBBER STOPPER           CCN000020000000000000FY00000000020220401000000000NNMQ0820220225143510    2C0C  00002000000000176000000238032M3    SASAMI  002700430014
BI00B32M3    #SM22042HMW    202203107188-0149                HLC HOUSING MALE         CCN000002700000000000FY00000000020220401000000000NNMQ0820220225104028    2F0F  00000090000000809100000923832M3    SASAMI  005400370024
BI00B32M3    SM2204A MW     202203177114-4624-02             TERMINAL                 CCN000024000000024000FN00000000020220401000024000NNE   20220225153540    4P0P  00002400000000895200001188832M3    SASAMI  006400630015
BI00B32M3    SM2204ADMW     202203177283-4855                CONNECTOR HOUSING        CCN000002400000002400FN00000000020220401000002400NNE   20220225153558    4N0N  00000240000001188400001400032M3    SASAMI  005500360039
BI00B32M3    SM2204ADMW     202203177283-5832-30             CONNECTOR HOUSING        CCN000002400000002400FN00000000020220401000002400NNE   20220225153558    1N0N  00000240000000723800000873832M3    SASAMI  005500360039
BI00B32M3    SM2204ADMW     202203177286-1899                HOUSING SUB ASSEMBLY     CCN000000672000000672FN00000000020220401000000672NNE   20220225153558    4N0N  00000033600000814800001010832M3    SASAMI  005400370024
BI00B32M4    TP2034         202203107158-3006-90             RUBBER STOPPER           CCN000280000000280000FN00000000020220301000280000NNMD0620220225122114    1C0C  00002000000000330600000386032M4    SISAI   002700430014
BI00B32M4    TP2042         202203247158-3006-90             RUBBER STOPPER           CCN000160000000160000FN00000000020220401000160000NNMD0620220225122114    1C0C  00002000000000330600000386032M4    SISAI   002700430014
BI00B32M4    TP2043         202203317158-3009-60             RUBBER STOPPER           CCN000300000000300000FN00000000020220401000300000NNMD0620220225122114    1C0C  00002000000000338000000386232M4    SISAI   002700430014
BI00B32M4    TP2043A        202204077327-6983-30             MAIN FUSE                CCN000000600000000600FN00000000020220401000000600NNED0420220225122114    4N0N  00000060000000748800000951532M4    SISAI   005400370024
BI00B32N1    #NST2116G      202203107282-8395-40             CONNECTOR                CCN000007000000007000FN00000000020220401000007000NNMD0020220225133740    2N0N  00000100000001009000001188032N1    TAYIPL  005500360039
BI00B32N1    NST2116C-2     202203107017-1180-02             TERMINAL                 CCN000072000000072000FN00000000020220401000072000NNM   20220225143211    4P0P  00007200000001065600001229032N1    TAYIPL  005100280028
BI00B32N1    NST2116C-2     202203107114-4020                TERMINAL                 CCN000063000000063000FN00000000020220401000063000NNM   20220225143211    4P0P  00002100000000875700001169332N1    TAYIPL  006400630015
BI00B32N1    NST2116C-2     202203107114-4021                TERMINAL                 CCN000015000000015000FN00000000020220401000015000NNM   20220225143211    4P0P  00001500000000670500000964132N1    TAYIPL  006400630015
BI00B32N1    NST2116C-2     202203107114-4032                TERMINAL                 CCN000007500000007500FN00000000020220401000007500NNM   20220225143211    4P0P  00000750000000735000001063632N1    TAYIPL  006400630017
BI00B32N1    NST2116C-2     202203107114-4729-02             TERMINAL                 CCN000043470000060000FN00000000020220401000060000NNM   20220225143211    4P0P  00003000000000516000000810232N1    TAYIPL  006400630015
BI00B32N1    NST2116C-2     202203107114-5747-02             TERMINAL                 CCN000018000000018000FN00000000020220401000018000NNM   20220225143211    4P0P  00001800000000626400000920032N1    TAYIPL  006400630015
BI00B32N1    NST2116C-2     202203107114-6041                TERMINAL                 CCN000003600000003600FN00000000020220401000003600NNM   20220225143211    4P0P  00000360000000580700000824232N1    TAYIPL  006400630015
BI00B32N1    NST2116C-2     202203107116-1180                TERMINAL                 CCN000780000000780000FN00000000020220401000780000NNM   20220225143211    1P0P  00001950000000618200000903432N1    TAYIPL  006400630015
BI00B32N1    NST2116C-2     202203107116-1685-02             TERMINAL                 CCN000072000000072000FN00000000020220401000072000NNM   20220225143211    4P0P  00002400000000897600001065232N1    TAYIPL  005100280028
BI00B32N1    NST2116C-2     202203107116-1686-02             TERMINAL                 CCN000126000000126000FN00000000020220401000126000NNM   20220225143211    4P0P  00002100000000869400001021632N1    TAYIPL  005100280028
BI00B32N1    NST2116C-2     202203107116-2891-02             TERMINAL                 CCN000045000000045000FN00000000020220401000045000NNM   20220225143211    4P0P  00001500000000982500001145932N1    TAYIPL  005100280028
BI00B32N1    NST2116C-2     202203107116-2892-02             TERMINAL                 CCN000060000000060000FN00000000020220401000060000NNM   20220225143211    4P0P  00001200000000818400000981832N1    TAYIPL  005100280028
BI00B32N1    NST2116C-2     202203107116-2893-02             TERMINAL                 CCN000072000000072000FN00000000020220401000072000NNM   20220225143211    4P0P  00001200000000895200001058632N1    TAYIPL  005100280028
BI00B32N1    NST2116C-2     202203107116-4020                TERMINAL                 CCN000108000000108000FN00000000020220401000108000NNM   20220225143211    4P0P  00001350000000513000000798232N1    TAYIPL  006400630015
BI00B32N1    NST2116C-2     202203107116-4032                TERMINAL                 CCN000006000000006000FN00000000020220401000006000NNM   20220225143211    4P0P  00000600000000532800000818032N1    TAYIPL  006400630015
BI00B32N1    NST2116C-2     202203107116-4037                TERMINAL                 CCN000012000000012000FN00000000020220401000012000NNM   20220225143211    4P0P  00000600000000600000000894232N1    TAYIPL  006400630015
BI00B32N1    NST2116C-2     202203107116-4231-02             TERMINAL                 CCN000026000000026000FN00000000020220401000026000NNM   20220225143211    4P0P  00002600000000683800001012532N1    TAYIPL  006400630017
BI00B32N1    NST2116C-2     202203107116-4415-02             TERMINAL                 CCN000038000000038000FN00000000020220401000038000NNM   20220225143211    4P0P  00003800000000596600000925732N1    TAYIPL  006400630017
BI00B32N1    NST2116C-2     202203107126-8850-02             TERMINAL                 CCN000063000000063000FN00000000020220401000063000NNM   20220225143211    1P0P  00000900000000672300000957532N1    TAYIPL  006400630015
BI00B32N1    NST2116C-2     202203107126-8851-02             TERMINAL                 CCN000108000000108000FN00000000020220401000108000NNM   20220225143211    1P0P  00000900000000739800001025032N1    TAYIPL  006400630015
BI00B32N1    NST2116C-2     202203107126-8854-02             TERMINAL                 CCN000021700000022500FN00000000020220401000022500NNM   20220225143211    4P0P  00000750000000604500000889732N1    TAYIPL  006400630015
BI00B32N1    NST2116C-2     202203107126-8855-02             TERMINAL                 CCN000009320000012000FN00000000020220401000012000NNM   20220225143211    4P0P  00000600000000510600000795832N1    TAYIPL  006400630015
BI00B32N1    NST2116C-2     202203107158-3006-90             RUBBER STOPPER           CCN000020000000020000FN00000000020220401000020000NNM   20220225143211    1C0C  00002000000000330600000386032N1    TAYIPL  002700430014
BI00B32N1    NST2116C-2     202203107116-1301                TERMINAL                 CCN000075000000075000FN00000000020220401000075000NNM   20220225143211    4P0P  00001500000000487500000772732N1    TAYIPL  006400630015
BI00B32N1    NST2116C-2     202203107282-1248                HOUSING SUB ASSEMBLY     CCN000002400000002400FN00000000020220401000002400NNM   20220225143211    1N0N  00000060000001167000001372032N1    TAYIPL  005500360039
BI00B32N1    NST2116C-2     202203107126-8852-02             TERMINAL                 CCN000045000000045000FN00000000020220401000045000NNM   20220225143211    1P0P  00000750000000648000000933232N1    TAYIPL  006400630015
BI00B32N1    NST2116C-2     202203107283-1144-30             CONNECTOR                CCN000014400000014400FN00000000020220401000014400NNM   20220225143211    4N0N  00000240000000602200000866132N1    TAYIPL  005500360039
BI00B32N1    NST2116C-2     202203107282-1248-30             HOUSING SUB ASSEMBLY     CCN000004200000004200FN00000000020220401000004200NNM   20220225143211    1N0N  00000060000001167000001372032N1    TAYIPL  005500360039
BI00B32N1    NST2116C-2     202203107183-7665-30             HOUSING                  CCN000002400000002400FN00000000020220401000002400NNM   20220225143211    1F0F  00000120000001103300001247832N1    TAYIPL  005500360039
BI00B32N1    NST2116C-2     202203107114-4100-02             TERMINAL                 CCN000090000000090000FN00000000020220401000090000NNM   20220225143211    4P0P  00001800000000748800001077432N1    TAYIPL  006400630017
BI00B32N1    NST2116C-2     202203107114-4111-02             TERMINAL                 CCN000012000000012000FN00000000020220401000012000NNM   20220225143211    4P0P  00001200000000758400001087032N1    TAYIPL  006400630017
BI00B32N1    NST2116C-2     202203107114-4112-02             TERMINAL                 CCN000009000000009000FN00000000020220401000009000NNM   20220225143211    4P0P  00000900000000598500000927132N1    TAYIPL  006400630017
BI00B32N1    NST2116C-2     202203107116-4110-02             TERMINAL                 CCN000009000000009000FN00000000020220401000009000NNM   20220225143211    4P0P  00000900000000594000000882232N1    TAYIPL  006400630015
BI00B32N1    NST2116C-2     202203107116-4121-02             TERMINAL                 CCN000013500000013500FN00000000020220401000013500NNM   20220225143211    4P0P  00000450000000618800000912432N1    TAYIPL  006400630015
BI00B32N1    NST2116C-2     202203107283-6388-40             CONNECTOR                CCN000002000000002000FN00000000020220401000002000NNM   20220225143211    4N0N  00000200000001029000001173532N1    TAYIPL  005500360039
BI00B32N1    NST2116C-2     202203107196-0396-02             TERMINAL                 CCN000030000000030000FN00000000020220401000030000NNM   20220225143211    4P0P  00001500000000949500001112932N1    TAYIPL  002800510028
BI00B32N1    NST2116C-2     202203107116-4100-02             TERMINAL                 CCN000030000000030000FN00000000020220401000030000NNM   20220225143211    4P0P  00001500000000696000000990232N1    TAYIPL  006400630015
BI00B32N1    NST2116C-2     202203107116-4101-02             TERMINAL                 CCN000012000000012000FN00000000020220401000012000NNM   20220225143211    4P0P  00001200000000582000000876232N1    TAYIPL  006400630015
BI00B32N1    NST2116C-2     202203107116-4102-02             TERMINAL                 CCN000012000000012000FN00000000020220401000012000NNM   20220225143211    4P0P  00001200000000553200000841432N1    TAYIPL  006400630015
BI00B32N1    NST2116C-2     202203107116-4103-02             TERMINAL                 CCN000012000000012000FN00000000020220401000012000NNM   20220225143211    4P0P  00001200000000571200000859432N1    TAYIPL  006400630015
BI00B32N1    NST2116C-2     202203107116-4112-02             TERMINAL                 CCN000012000000012000FN00000000020220401000012000NNM   20220225143211    4P0P  00000600000000450000000738232N1    TAYIPL  006400630015
BI00B32N1    #NST2116C-2    202203107116-4021                TERMINAL                 CCN000067500000067500FN00000000020220401000067500NNM   20220225143155    2F0P  00001350000000534600000868832N1    TAYIPL  006400630015
BI00B32N1    #NST2116C-2    202203107157-3821                RUBBER STOPPER           CCN000380000000380000FN00000000020220401000380000NNM   20220225143155    2C0C  00002000000000176000000238032N1    TAYIPL  002700430014
BI00B32N1    #NST2116C-2    202203107158-3008-80             RUBBER STOPPER           CCN000020000000020000FN00000000020220401000020000NNM   20220225143155    2C0C  00002000000000288000000343032N1    TAYIPL  004300270014
BI00B32N1    #NST2116C-2    202203107157-3950-80             SEAL RUBBER              CCN000160000000160000FN00000000020220401000160000NNM   20220225143155    2C0C  00004000000000154000000440332N1    TAYIPL  002700430014
BI00B32N1    #NST2116C-2    202203107157-3952-80             RUBBER STOPPER           CCN000020000000020000FN00000000020220401000020000NNM   20220225143155    2C0C  00001000000000117000000175032N1    TAYIPL  002700430014
BI00B32N1    #NST2116C-2    202203107158-3120-90             CONNECTOR WIRE SEAL      CCN000020000000020000FN00000000020220401000020000NNM   20220225143155    2C0C  00002000000000136000000194032N1    TAYIPL  002700430014
BI00B32N1    #NST2116C-2    202203107157-3646                RUBBER STOPPER           CCN000180000000180000FN00000000020220401000180000NNM   20220225143155    2H0H  00002000000000184000000255232N1    TAYIPL  002700430014
BI00B32N1    #NST2116C-2    202203107157-3790-90             WIRE SEAL                CCN000040000000040000FN00000000020220401000040000NNM   20220225143155    2C0C  00002000000000176000000232732N1    TAYIPL  002700430014
BI00B32N1    #NST2116C-2    202203107283-5831                CONNECTOR                CCN000000600000003000FN00000000020220401000003000NNM   20220225143155    2N0N  00000300000000750000000880032N1    TAYIPL  005400370024
BI00B32N1    #NST2116C-2    202203107282-6458-40             CONNECTOR                CCN000001000000001000FN00000000020220401000001000NNM   20220225143155    2N0N  00000100000001206000001350532N1    TAYIPL  005500360039
BI00B32Q8    EU2205ATMW     202204207327-6950-30             MULTI FUSE               CCN000001152000001152FN00000000020220501000001152NNED0420220225122114    4N00  00000028800000888700001054632Q8    EMEMI   005400370024
BI00B32Q8    EU2205ATMW     202204207327-6954-30             MULTI FUSE               CCN000001800000001800FN00000000020220501000001800NNED0420220225122114    4N00  00000060000000751600000954332Q8    EMEMI   005400370024
BI00B32Q8    EU2205BTMW     202204207327-6950-30             MULTI FUSE               CCN000001440000001440FN00000000020220501000001440NNED0420220225122114    4N00  00000028800000888700001054632Q8    EMEMI   005400370024
BI00B32Q8    EU2205BTMW     202204207327-6952-30             MULTI FUSE               CCN000001680000001680FN00000000020220501000001680NNED0420220225122114    4N0N  00000056000000848500001031532Q8    EMEMI   005400370024
BI00B32Q8    EU2205BTMW     202204207327-6954-30             MULTI FUSE               CCN000001800000001800FN00000000020220501000001800NNED0420220225122114    4N00  00000060000000751600000954332Q8    EMEMI   005400370024
BI00B32Q8    EU2205CTMW     202205047327-6950-30             MULTI FUSE               CCN000001728000001728FN00000000020220501000001728NNED0420220225122114    4N00  00000028800000888700001054632Q8    EMEMI   005400370024
BI00B32Q8    EU2205CTMW     202205047327-6952-30             MULTI FUSE               CCN000001680000001680FN00000000020220501000001680NNED0420220225122114    4N0N  00000056000000848500001031532Q8    EMEMI   005400370024
BI00B32Q8    EU2205CTMW     202205047327-6954-30             MULTI FUSE               CCN000001200000001200FN00000000020220501000001200NNED0420220225122114    4N00  00000060000000751600000954332Q8    EMEMI   005400370024
BI00B32Q8    EU2204ETMW     202204067327-6949-30             MULTI FUSE               CCN000000288000000288FN00000000020220401000000288NNED0420220225122114    4N00  00000028800000886700001052632Q8    EMEMI   005400370024
BI00B32R7    R-TAP220066    202204217298-1186-40             SQUIB SUB ASS'Y          CCN000170000000090000FN00000000020220301000090000NNED0220220225154351    4N0N  00001000000000650000000774532R7    IVYCIC  005400370024
BI00B32R7    R-TAP220089    202203177116-1257-02             TERMINAL                 CCN000072000000072000FN00000000020220401000072000NNE   20220225122114    1P0P  00002400000000518400000847132R7    IVYCIC  006400630017
BI00B32R7    R-TAP220090    202204077298-1186-40             SQUIB SUB ASS'Y          CCN000030000000030000FN00000000020220401000030000NNE   20220225122114    4N0N  00001000000000650000000774532R7    IVYCIC  005400370024
BI00B32R7    R-TAP220091    202203107195-1480-02             TERMINAL MALE            CCN000120000000120000FN00000000020220301000120000NNE   20220225122114    4P0P  00002400000000422400000716632R7    IVYCIC  006400630015
BI00B32R7    R-TAP220066    202204077298-1186-40             SQUIB SUB ASS'Y          CCN000080000000080000FN00000000020220301000080000NNED0020220225154359    4N0N  00001000000000650000000774532R7    IVYCIC  005400370024
BI00B32U5    DI2004         202202157289-3342-30             HOUSING FEMALE ASS'Y     CCN000019200000002400FY00000240020220301000000000NNM00020220225135839U5  1N0N  00000240000000686400000901432U5    AMAMSD  005500360039
BI00A32U5    DI2007         202203187289-3342-30             HOUSING FEMALE ASS'Y     PCN000028800000028800FN00000000020220401000028800NNM00020220225135918U5  1N0N  00000240000000686400000901432U5    AMAMSD  005500360039
BI00A32U5    DI2004         202203017289-3342-30             HOUSING FEMALE ASS'Y     PCN000016800000016800FN00000000020220301000016800NNM00020220225135839U5  1N0N  00000240000000686400000901432U5    AMAMSD  005500360039
BI00A32U9    #TPA213        202202247047-1611-30             CLIP                     CCN000002000000002000FY00000200020220401000000000NNM00020220225153305U9  2F0F  00000200000001600000001739032U9    YNYNA-E 005600390040
BI00A32U9    #TPA213        202202247282-6446-40             CONNECTOR                CCN000006000000006000FY00000600020220401000000000NNM00020220225153240U9  2N0N  00000150000001185000001368032U9    YNYNA-E 005500360039
BI00A32U9    #TPA213        202202217157-3646                RUBBER STOPPER           CCN000020000000020000FY00002000020220401000000000NNM00020220225153256U9  2H0H  00002000000000184000000255232U9    YNYNA-E 002700430014
BI00B32W2    HN2203BNMW     202203017116-4026                TERMINAL                 CCN000016000000016000FN00000000020220301000016000NNE   20220225161600    4P0P  00001600000000664000000994332W2    HNHNY   006400630017
BI00B32W2    HN2203BNMW     202203017116-6041                TERMINAL                 CCN000013500000013500FN00000000020220301000013500NNE   20220225161600    4P0P  00000450000000716000001009632W2    HNHNY   006400630015
BI00B32W2    HN2203BWMW     202203087B96-0805-02             TERMINAL FEMALE          CCN000022500000022500FN00000000020220301000022500NNE   20220225161718    4P0P  00002250000000558000000843232W2    HNHNY   006400630015
BI00B32W2    HN2203BWMW     202203087C89-6868-30             SEALED ASSY FEMALE       CCN000002520000002520FN00000000020220301000002520NNE   20220225161718    4N0N  00000252000000839200001119232W2    HNHNY   005500360039
BI00B32W2    HN2203BWMW     202203087116-4026                TERMINAL                 CCN000016000000016000FN00000000020220301000016000NNE   20220225161718    4P0P  00001600000000664000000994332W2    HNHNY   006400630017
BI00B32W2    HN2203BWMW     202203087116-4037                TERMINAL                 CCN000012000000012000FN00000000020220301000012000NNE   20220225161718    4P0P  00000600000000600000000894232W2    HNHNY   006400630015
BI00B32W2    HN2203BWMW     202203087158-3070-80             RUBBER STOPPER           CCN000040000000040000FN00000000020220301000040000NNE   20220225161718    1C0C  00004000000000276000000333332W2    HNHNY   002700430014
BI00B32W2    HN2203BWMW     202203087158-3167-80             WIRE SEAL                CCN000020000000020000FN00000000020220301000020000NNE   20220225161718    1C0C  00002000000000048000000109032W2    HNHNY   002700430014
BI00B32W2    HN2203BWMW     202203087327-6870-30             MULTI FUSE               CCN000000576000000576FN00000000020220301000000576NNE   20220225161718    4N0N  00000028800001015200001181132W2    HNHNY   005400370024
BI00B32W2    HN2203BWMW     202203087327-6908                MAIN FUSE                CCN000000600000000600FN00000000020220301000000600NNE   20220225161718    4N0N  00000060000000730400000915432W2    HNHNY   005400370024
BI00B32W2    #HN2203BWMW    202203087188-0149                HLC HOUSING MALE         CCN000000900000000900FN00000000020220301000000900NNE   20220225162207    2F0F  00000090000000809100000923832W2    HNHNY   005400370024
BI00B32W2    #HN2203BWMW    202203087298-2457-90             LIF FEMALE ASSEMBLY      CCN000000168000000168FN00000000020220301000000168NNE   20220225162207    2N0N  00000016800000533300000728932W2    HNHNY   005400370024
BI00B32W2    #HN2203BWMW    202203087298-2459-60             LIF FEMALE ASSEMBLY      CCN000000168000000168FN00000000020220301000000168NNE   20220225162207    2N0N  00000016800000534000000729632W2    HNHNY   005400370024
BI00A32W4    4500188269     202202287116-2951-02             TERMINAL                 CCN000010800000010800FN00000000020220301000010800NNEM0020220225122114W46 4P0P  00000540000000817600001111832W46   HJYHK   006400630015
BI00A32W4    4500188761     202202287116-2951-02             TERMINAL                 CCN000010800000010800FN00000000020220301000010800NNEM0020220225122114W46 4P0P  00000540000000817600001111832W46   HJYHK   006400630015
BI00B32W4    @4500189534    202203247282-1060                HOUSING SUB ASSEMBLY     CCN000054400000036800FN00000000020220301000036800NNEQ0020220225122114W4513N0N  00000160000000955500001169032W451  HJ32W9  005500360039
BI00B32W4    4500189564     202204287289-6868-30             SEALED ASSY FEMALE       CCN000010080000010080FN00000000020220401000010080NNED0420220225122114W4D44N0N  00000252000000839200001119232W4D4  HJYHK-J 005500360039
BI00B32W4    4500189583     202205057289-9553-50             SEALED ASSY FEMALE       CCN000070560000070560FN00000000020220401000070560NNED0420220225122114W4D44N0N  00000294000001108100001520632W4D4  HJYHK-J 005500360039
BI00B32W4    4500189679     202205057222-6244-40             CONNECTOR                CCN000001600000001600FN00000000020220401000001600NNED0220220225122114W48 4N0N  00000080000001239200001422032W48   HJYHK   005600390040
BI00A32W4    4500189866     202204217116-4120-02             TERMINAL                 CCN000006000000006000FN00000000020220401000006000NNE   20220225122114W4804P0P  00000600000000780000001073632W480  HJYHK-J 006400630015
BI00A32W4    4500189867     202204077116-4122-02             TERMINAL                 CCN000018000000018000FN00000000020220401000018000NNE   20220225122114W4804P0P  00000450000000656600000950232W480  HJYHK-J 006400630015
BI00A32W4    #4500189867    202204077047-5344                RETAINER                 CCN000010000000010000FN00000000020220401000010000NNE   20220225122114W4802F0F  00001000000000870000001016032W480  HJYHK-J 005600390023
BI00A32W4    #4500189869    202203317123-6347                CONNECTOR HOUSING        CCN000004800000004800FN00000000020220301000004800NNE   20220225122114W4802F0F  00000160000000647000000904832W480  HJYHK-J 005500360039
BI00B32W4    #4500189870    202203317157-3646                RUBBER STOPPER           CCN000020000000020000FN00000000020220301000020000NNE   20220225122114W4372H0H  00002000000000184000000255232W437  HJYHK   002700430014
BI00A32W4    #4500189871    202203107123-7484-40             CONNECTOR                CCN000002000000002000FN00000000020220301000002000NNE   20220225132427W4242F0F  00000200000001393800001541032W424  HJYHK   005500360039
BI00B32W4    4500189883     202204077116-2951-02             TERMINAL                 CCN000010800000010800FN00000000020220401000010800NNE   20220225122114W4284P0P  00000540000000817600001111832W428  HJYHK   006400630015
BI00B32W4    #4500189883    202204077283-8397-40             CONNECTOR                CCN000016940000016940FN00000000020220401000016940NNE   20220225122114W4282N0N  00000154000001007000001222732W428  HJYHK   005600390023
BI00B32W4    #4500189883    202204077158-3374-90             CONNECTOR WIRE SEAL      CCN000080000000080000FN00000000020220401000080000NNE   20220225122114W4282H0H  00002000000000172000000229332W428  HJYHK   002700430014
BI00B32W4    @4500189884    202204217283-1223-30             HOUSING SUB ASSEMBLY     CCN000004800000004800FN00000000020220401000004800NNE   20220225122114W4283N0N  00000480000000749300000998032W428  HJYHK   005500360039
BI00B32W4    4500189896     202206097289-4696-30             HOUSING FEMALE ASS'Y     CCN000020000000020000FN00000000020220601000020000NNE   20220225122114W4284N0N  00000200000000913400001055432W428  HJYHK   005400370024
BI00B32W4    4500189897     202207077289-4696-30             HOUSING FEMALE ASS'Y     CCN000026000000026000FN00000000020220701000026000NNE   20220225122114W4284N0N  00000200000000913400001055432W428  HJYHK   005400370024
BI00A32W4    4500189914     202203217158-3167-80             WIRE SEAL                CCN000040000000040000FN00000000020220301000040000NNE   20220225122114W4G31C0C  00002000000000048000000109032W4G3  HJYHK-J 002700430014
BI00B32W4    4500189922     202203247116-4022                TERMINAL                 CCN000175500000175500FN00000000020220301000175500NNE   20220225122114W4514P0P  00001350000000618300000903532W451  HJ32W9  006400630015
BI00B32W4    4500189922     202203247116-4026                TERMINAL                 CCN000016000000016000FN00000000020220301000016000NNE   20220225122114W4514P0P  00001600000000664000000994332W451  HJ32W9  006400630017
BI00B32W4    4500189922     202203247116-4231-02             TERMINAL                 CCN001404000001404000FN00000000020220301001404000NNE   20220225122114W4514P0P  00002600000000683800001012532W451  HJ32W9  006400630017
BI00B32W4    4500189922     202203247283-1020                CONNECTOR                CCN000204000000204000FN00000000020220301000204000NNE   20220225122114W4514N0N  00000600000000840000001049332W451  HJ32W9  005600390040
BI00B32W4    4500189922     202203247283-7028-30             CONNECTOR                CCN000012000000012000FN00000000020220301000012000NNE   20220225122114W4514N0N  00000300000001452000001681332W451  HJ32W9  005600390040
BI00B32W4    4500189922     202203247287-1917                CONNECTOR FEMALE         CCN000014400000014400FN00000000020220301000014400NNE   20220225122114W4514N0N  00000240000001060800001312532W451  HJ32W9  005500360039
BI00B32W4    4500189922     202203247287-7975-4W             SQUIB SUB ASS'Y          CCN000020000000020000FN00000000020220301000020000NNE   20220225122114W4514N0N  00001000000000837000001017032W451  HJ32W9  005400370024
BI00B32W4    #4500189922    202203247282-8395-40             CONNECTOR                CCN000002000000002000FN00000000020220301000002000NNE   20220225122114W4512N0N  00000100000001009000001188032W451  HJ32W9  005500360039
BI00B32W4    #4500189922    202203247183-2415-40             CONNECTOR HOUSING        CCN000014400000014400FN00000000020220301000014400NNE   20220225122114W4512F0F  00000480000000798200001091432W451  HJ32W9  005500360039
BI00B32W4    #4500189922    202203247186-8845                HOUSING MALE             CCN000009000000009000FN00000000020220301000009000NNE   20220225122114W4512F0F  00000300000000690000000801532W451  HJ32W9  005400370024
BI00B32W4    #4500189922    202203247283-8397-40             CONNECTOR                CCN000001540000001540FN00000000020220301000001540NNE   20220225122114W4512N0N  00000154000001007000001222732W451  HJ32W9  005600390023
BI00B32W4    #4500189922    202203247282-4190-30             CONNECTOR                CCN000002400000002400FN00000000020220301000002400NNE   20220225122114W4512N0N  00000024000000801000001071332W451  HJ32W9  005600390040
BI00B32W4    @4500189922    202203247183-8049                CONNECTOR HOUSING        CCN000008000000008000FN00000000020220301000008000NNE   20220225122114W4513F0F  00000400000000583600000740032W451  HJ32W9  005400370024
BI00B32W4    4500189925     202204287116-4121-02             TERMINAL                 CCN000004500000004500FN00000000020220401000004500NNE   20220225122114W4174P0P  00000450000000618800000912432W417  HJYHK   006400630015
BI00B32W4    4500189925     202204287283-5843                CONNECTOR                CCN000003000000003000FN00000000020220401000003000NNE   20220225122114W4171N0N  00000150000000889000001132032W417  HJYHK   005600390040
BI00B32W4    4500189925     202204287114-6041                TERMINAL                 CCN000003600000003600FN00000000020220401000003600NNE   20220225122114W4174P0P  00000360000000580700000824232W417  HJYHK   006400630015
BI00B32W4    4500189925     202204287283-5832                CONNECTOR HOUSING        CCN000002400000002400FN00000000020220401000002400NNE   20220225122114W4171N47  00000240000000723800000873832W417  HJYHK   005500360039
BI00B32W4    #4500189925    202204287183-8927                HOUSING                  CCN000012000000012000FN00000000020220401000012000NNE   20220225122114W4172F0F  00000400000000714000000912732W417  HJYHK   005500360039
BI00B32W4    #4500189925    202204287282-3020                CONNECTOR                CCN000011000000011000FN00000000020220401000011000NNE   20220225122114W4172N0N  00000100000000984000001145432W417  HJYHK   005500360039
BI00B32W4    #4500189927    202205127147-3642-30             CLIP                     CCN000132000000132000FN00000000020220501000132000NNE   20220225122114W4172F0F  00000300000000542000000721332W417  HJYHK   005600390040
BI00B32W4    4500189934     202204267116-1180                TERMINAL                 CCN000019500000019500FN00000000020220401000019500NNE   20220225122114W41 1P0P  00001950000000618200000903432W41   HJYHK   006400630015
BI00B32W4    4500189947     202204267158-3166-60             WIRE SEAL                CCN000280000000280000FN00000000020220401000280000NNE   20220225122114W41 1C0C  00004000000000104000000152432W41   HJYHK   002700430014
BI00B32W4    #4500189947    202204267172-5938-80             SEALED                   CCN000030000000030000FN00000000020220401000030000NNE   20220225122114W41 2H0H  00000500000000442500000490732W41   HJYHK   004300270014
BI00A32W4    4500189952     202204227158-3167-80             WIRE SEAL                CCN000040000000040000FN00000000020220401000040000NNE   20220225122114W9151C0C  00002000000000048000000109032W915  HJYHK   002700430014
BI00A32W4    4500189960     202204117158-3167-80             WIRE SEAL                CCN000080000000080000FN00000000020220401000080000NNE   20220225122114W4A21C0C  00002000000000048000000109032W4A2  HJYHK-J 002700430014
BI00A32W4    4500189960     202204117283-1020                CONNECTOR                CCN000006000000006000FN00000000020220401000006000NNE   20220225122114W4A24N0N  00000600000000840000001049332W4A2  HJYHK-J 005600390040
BI00A32W4    4500189960     202204117116-4111-02             TERMINAL                 CCN000015000000015000FN00000000020220401000015000NNE   20220225122114W4A24P0P  00000750000000529500000817732W4A2  HJYHK-J 006400630015
BI00A32W4    #4500189960    202204117283-4190-30             CONNECTOR                CCN000002400000002400FN00000000020220401000002400NNE   20220225122114W4A22N0N  00000024000000846000001115532W4A2  HJYHK-J 005600390040
BI00A32W4    4500189961     202204187116-4104-02             TERMINAL                 CCN000012000000012000FN00000000020220401000012000NNE   20220225122114W4A24P0P  00001200000000580800000972432W4A2  HJYHK-J 006400630015
BI00A32W4    #4500189961    202204187283-8226-30             CONNECTOR                CCN000004000000004000FN00000000020220401000004000NNE   20220225122114W4A22N0N  00000200000000820000001008032W4A2  HJYHK-J 005400370024
BI00A32W4    4500189962     202204257116-4103-02             TERMINAL                 CCN000012000000012000FN00000000020220401000012000NNE   20220225122114W4A24P0P  00001200000000571200000859432W4A2  HJYHK-J 006400630015
BI00A32W4    4500189962     202204257116-4102-02             TERMINAL                 CCN000012000000012000FN00000000020220401000012000NNE   20220225122114W4A24P0P  00001200000000553200000841432W4A2  HJYHK-J 006400630015
BI00A32W4    4500189962     202204257116-4031                TERMINAL                 CCN000007500000007500FN00000000020220401000007500NNE   20220225122114W4A24P0P  00000750000000619500000904732W4A2  HJYHK-J 006400630015
BI00A32W4    4500189962     202204257116-4110-02             TERMINAL                 CCN000009000000009000FN00000000020220401000009000NNE   20220225122114W4A24P0P  00000900000000594000000882232W4A2  HJYHK-J 006400630015
BI00A32W4    4500189962     202204257116-4112-02             TERMINAL                 CCN000006000000006000FN00000000020220401000006000NNE   20220225122114W4A24P0P  00000600000000450000000738232W4A2  HJYHK-J 006400630015
BI00A32W4    #4500189962    202204257183-7725-40             HOUSING                  CCN000006000000006000FN00000000020220401000006000NNE   20220225122114W4A22F0F  00000600000000840000001040032W4A2  HJYHK-J 005600390040
BI00A32W4    4500189856     202204187114-4101-02             TERMINAL                 CCN000015000000015000FN00000000020220401000015000NNE   20220225122114W4N24P0P  00001500000000675000001003632W4N2  HJYHK-J 006400630017
BI00A32W4    4500189857     202204257283-7028-30             CONNECTOR                CCN000003000000003000FN00000000020220401000003000NNE   20220225122114W4N24N0N  00000300000001452000001681332W4N2  HJYHK-J 005600390040
BI00A32W4    @4500189534    202203037282-1060                HOUSING SUB ASSEMBLY     CCN000017600000017600FN00000000020220301000017600NNEM0020220225122114W4513N0N  00000160000000955500001169032W451  HJ32W9  005500360039
BI00B32W6    SW22044QMW     202203307B72-5540-80             SEALED WIRE SEAL         CCN000020000000020000FN00000000020220401000020000NNMD0620220225165246    1C0C  00002000000000186000000234432W6    SYSYA-WJ004300270014
BI00B32W9    4500189920     202205037283-1030                CONNECTOR                CCN000102000000102000FN00000000020220501000102000NNE   20220225122114W9  4N0N  00000600000000988000001172032W9    HKYHK   005500360039
BI00B32X5    TIB1049        202203047289-3342-30             HOUSING FEMALE ASS'Y     CCN000086400000086400FN00000000020220101000086400NNM00020220225153431X5  1N0N  00000240000000686400000901432X5    EPYNA-E 005500360039
BI00B32X5    TIB2002        202203047289-3342-30             HOUSING FEMALE ASS'Y     CCN000067200000067200FN00000000020220201000067200NNM00020220225153454X5  1N0N  00000240000000686400000901432X5    EPYNA-E 005500360039
