BI00B32AF    TTB1111        2022030418007704140              AVSS 1.25F W             CCN000001600000001600FN00000000020211101000001600NNM29 20220225085821    1W    00000080000001389000000000032AF    HBYHVTB 000000000000UY519051
BI00B32DE    TT2041         2022030318007704130              AVSS 1.25F B             CCN000000800000000800FN00000000020220401000000800NNM20 20220225163918    1W    00000080000001389000000000032DE    TVYEV-TV000000000000VT422008
BI00B32D1    DFTW2221       2022033118000004534              AV 8 B/W                 CCN000004200000004200FN00000000020220501000004200NNE   20220225143006    1W    00000010000010466200000000032D1    TOYOT-K 000000000000KO323053
BI00B32D1    DFTW2221       2022033118000004535              AV 8 B/R                 CCN000002900000002900FN00000000020220501000002900NNE   20220225143006    1W    00000010000010466200000000032D1    TOYOT-K 000000000000KO323052
BI00B32D1    DFTW2221       2022033118000004540              AV 8 W                   CCN000009000000009000FN00000000020220501000009000NNE   20220225143006    1W    00000010000010466200000000032D1    TOYOT-K 000000000000KO323055
BI00B32D1    DFTW2221       2022033118000004543              AV 8 W/B                 CCN000009500000009500FN00000000020220501000009500NNE   20220225143006    1W    00000010000010466200000000032D1    TOYOT-K 000000000000KO323056
BI00B32D1    DFTW2221       2022033118000004550              AV 8 R                   CCN000002100000002100FN00000000020220501000002100NNE   20220225143006    1W    00000010000010466200000000032D1    TOYOT-K 000000000000KO323054
BI00B32D1    @DFTW2221      20220331181AD2002ZZ              CIVUSAS-S 0.35X2 B       CCN000009900000009900FN00000000020220501000009900NNE   20220225143004    1W    00000045000001713700000000032D1    TOYOT-K 000000000000KO323025
BI00B32D1    @DFTW2221      20220331181AD2003ZZ              CIVUSAS-S 0.35X3 B       CCN000003500000003500FN00000000020220501000003500NNE   20220225143004    1W    00000035000002172100000000032D1    TOYOT-K 000000000000KO323026
BI00B32D1    @DFTW2221      20220331181AD2004ZZ              CIVUSAS-S 0.35X4 B       CCN000020100000020100FN00000000020220501000020100NNE   20220225143004    1W    00000030000002799900000000032D1    TOYOT-K 000000000000KO323027
BI00B32D1    @DFTW2221      20220331181E48031ZZ              CAVSAS-S 0.3X2 GY        CCN000005950000005950FN00000000020220501000005950NNE   20220225143004    1W    00000035000002008700000000032D1    TOYOT-K 000000000000KO323028
BI00B32D1    @DFTW2221      20220331181E48037ZZ              CAVSAS-S 0.3X4 GY        CCN000006250000006250FN00000000020220501000006250NNE   20220225143004    1W    00000025000003262000000000032D1    TOYOT-K 000000000000KO323030
BI00B32D1    @DFTW2221      20220331181E48041ZZ              CAVSAS-S 0.3X2 GY/R      CCN000006650000006650FN00000000020220501000006650NNE   20220225143004    1W    00000035000002008700000000032D1    TOYOT-K 000000000000KO323029
BI00B32D1    @DFTW2221      20220331181E50002ZZ              AVSSCS-S 0.3FX2 DGY/G    CCN000008050000008050FN00000000020220501000008050NNE   20220225143004    1W    00000035000002165000000000032D1    TOYOT-K 000000000000KO323036
BI00B32D1    @DFTW2221      20220331181E50004ZZ              AVSSCS-S 0.5FX1 DGY      CCN000008000000008000FN00000000020220501000008000NNE   20220225143004    1W    00000040000001909700000000032D1    TOYOT-K 000000000000KO323031
BI00B32D1    @DFTW2221      20220331181E50005ZZ              AVSSCS-S 0.5FX1 DGY/W    CCN000002800000002800FN00000000020220501000002800NNE   20220225143004    1W    00000040000001909700000000032D1    TOYOT-K 000000000000KO323034
BI00B32D1    @DFTW2221      20220331181E50007ZZ              AVSSCS-S 0.5FX1 DGY/L    CCN000003600000003600FN00000000020220501000003600NNE   20220225143004    1W    00000040000001909700000000032D1    TOYOT-K 000000000000KO323032
BI00B32D1    @DFTW2221      20220331181E50014ZZ              AVSSCS-S 0.5FX1 DGY/R    CCN000000400000000400FN00000000020220501000000400NNE   20220225143004    1W    00000040000001909700000000032D1    TOYOT-K 000000000000KO323033
BI00B32D1    @DFTW2221      20220331181E50020ZZ              AVSSCS-S 0.3FX2 DGY/R    CCN000004900000004900FN00000000020220501000004900NNE   20220225143004    1W    00000035000002165000000000032D1    TOYOT-K 000000000000KO323038
BI00B32D1    @DFTW2221      20220331181E50021ZZ              AVSSCS-S 0.3FX2 DGY/P    CCN000005250000005250FN00000000020220501000005250NNE   20220225143004    1W    00000035000002165000000000032D1    TOYOT-K 000000000000KO323037
BI00B32D1    @DFTW2221      20220331181E50036ZZ              AVSSCS-S 0.3FX2 DGY      CCN000005600000005600FN00000000020220501000005600NNE   20220225143004    1W    00000035000002165000000000032D1    TOYOT-K 000000000000KO323035
BI00B32D2    DGTW2221       2022033118000004530              AV 8 B                   CCN000041300000041300FN00000000020220501000041300NNE   20220225144514    1W    00000010000010466200000000032D2    TGYOT-G 000000000000KR323041
BI00B32D2    DGTW2221       2022033118000004540              AV 8 W                   CCN000012700000012700FN00000000020220501000012700NNE   20220225144514    1W    00000010000010466200000000032D2    TGYOT-G 000000000000KR323043
BI00B32D2    DGTW2221       2022033118000004543              AV 8 W/B                 CCN000000300000000300FN00000000020220501000000300NNE   20220225144514    1W    00000010000010466200000000032D2    TGYOT-G 000000000000KR323044
BI00B32D2    DGTW2221       2022033118000004590              AV 8 L                   CCN000006500000006500FN00000000020220501000006500NNE   20220225144514    1W    00000010000010466200000000032D2    TGYOT-G 000000000000KR323042
BI00B32D2    @DGTW2221      20220331181AD2002ZZ              CIVUSAS-S 0.35X2 B       CCN000032400000032400FN00000000020220501000032400NNE   20220225144512    1W    00000045000001713700000000032D2    TGYOT-G 000000000000KR323022
BI00B32D2    @DGTW2221      20220331181AD2003ZZ              CIVUSAS-S 0.35X3 B       CCN000007350000007350FN00000000020220501000007350NNE   20220225144512    1W    00000035000002172100000000032D2    TGYOT-G 000000000000KR323023
BI00B32D2    @DGTW2221      20220331181AD2004ZZ              CIVUSAS-S 0.35X4 B       CCN000018600000018600FN00000000020220501000018600NNE   20220225144512    1W    00000030000002799900000000032D2    TGYOT-G 000000000000KR323024
BI00B32D2    @DGTW2221      20220331181E48037ZZ              CAVSAS-S 0.3X4 GY        CCN000000250000000250FN00000000020220501000000250NNE   20220225144512    1W    00000025000003262000000000032D2    TGYOT-G 000000000000KR323025
BI00B32D2    @DGTW2221      20220331181E50005ZZ              AVSSCS-S 0.5FX1 DGY/W    CCN000005600000005600FN00000000020220501000005600NNE   20220225144512    1W    00000040000001909700000000032D2    TGYOT-G 000000000000KR323026
BI00B32D2    @DGTW2221      20220331181E50036ZZ              AVSSCS-S 0.3FX2 DGY      CCN000001050000001050FN00000000020220501000001050NNE   20220225144512    1W    00000035000002165000000000032D2    TGYOT-G 000000000000KR323027
BI00B32E2    @WY204C        20220323181B09116K3              CAVSAS 0.3X2 GY/P        CCN000001750000001750FN00000000020220501000001750NNE   20220225104117    1W    00000035000002254000000000032E2    SPYSE   000000000000KY223001
BI00B32E2    @WY204C        20220323181E50016ZZ              AVSSCS-S 0.5FX2 DGY/R    CCN000001500000001500FN00000000020220501000001500NNE   20220225104117    1W    00000030000003096000000000032E2    SPYSE   000000000000KY223002
BI00B32E2    @WY204C        20220323181F21015ZZ              AVSSHCS-S 0.5FX2 B/P     CCN000001800000001800FN00000000020220501000001800NNE   20220225104117    1W    00000030000002531400000000032E2    SPYSE   000000000000KY223003
BI00B32G7    JW2204DMMW     202203311801W003930              IVSSH 0.5F B             CCN000001800000001800FN00000000020220401000001800NNE   20220225160903    1W    00000180000000625000000000032G7    JIJAI   000000000000JN323001
BI00B32G7    JW2204DMMW     202203311801W004030              IVSSH 0.75F B            CCN000001300000001300FN00000000020220401000001300NNE   20220225160903    1W    00000130000000882000000000032G7    JIJAI   000000000000JN323002
BI00B32G7    JW2204DMMW     202203311801W004050              IVSSH 0.75F R            CCN000001300000001300FN00000000020220401000001300NNE   20220225160903    1W    00000130000000882000000000032G7    JIJAI   000000000000JN323003
BI00B32H2    TAW2043        2022032518000004530              AV 8 B                   CCN000004000000000000FY00000000020220401000000000NNM10 20220225145424    1W    00000010000010466200000000032H2    HVYHV   000000000000UH223046
BI00B32H2    TAW2044        2022040118000004530              AV 8 B                   CCN000005000000000000FY00000000020220401000000000NNM10 20220225145624    1W    00000010000010466200000000032H2    HVYHV   000000000000UH323043
BI00B32H2    TAW2044        2022040118000004540              AV 8 W                   CCN000002500000000000FY00000000020220401000000000NNM10 20220225145624    1W    00000010000010466200000000032H2    HVYHV   000000000000UH323044
BI00B32H2    TAW2043        2022032518007704130              AVSS 1.25F B             CCN000000800000000000FY00000000020220401000000000NNM10 20220225145927    1W    00000080000001389000000000032H2    HVYHV   000000000000UH223047
BI00B32H2    TAW2043        2022032518007704150              AVSS 1.25F R             CCN000001600000000000FY00000000020220401000000000NNM10 20220225145927    1W    00000080000001389000000000032H2    HVYHV   000000000000UH223048
BI00B32H2    TAW2044        2022040118007704150              AVSS 1.25F R             CCN000001600000000000FY00000000020220401000000000NNM10 20220225150741    1W    00000080000001389000000000032H2    HVYHV   000000000000UH323045
BI00B32H2    TAW2043        2022032518007704140              AVSS 1.25F W             CCN000002400000000000FY00000000020220401000000000NNM10 20220225145927    1W    00000080000001389000000000032H2    HVYHV   000000000000UH223049
BI00B32H2    TAW2044        2022040118007704140              AVSS 1.25F W             CCN000002400000000000FY00000000020220401000000000NNM10 20220225150741    1W    00000080000001389000000000032H2    HVYHV   000000000000UH323046
BI00B32H2    TAW2043        2022032518007704143              AVSS 1.25F W/B           CCN000000800000000000FY00000000020220401000000000NNM10 20220225145927    1W    00000080000001389000000000032H2    HVYHV   000000000000UH223050
BI00B32H2    @TAW2043       20220325181B32102S1              AVSSCS 0.5FX2 DGY        CCN000012000000012000FN00000000020220401000012000NNM00 20220225150028    1W    00000030000002903000000000032H2    HVYHV   000000000000UH223035
BI00B32H2    @TAW2044       20220401181B32102S1              AVSSCS 0.5FX2 DGY        CCN000006000000000000FY00000000020220401000000000NNM10 20220225150353    1W    00000030000002903000000000032H2    HVYHV   000000000000UH323033
BI00B32H2    @TAW2044       20220401181E50014ZZ              AVSSCS-S 0.5FX1 DGY/R    CCN000001200000000000FY00000000020220401000000000NNM10 20220225150424    1W    00000040000001909700000000032H2    HVYHV   000000000000UH323040
BI00B32H2    @TAW2044       20220401181E48015ZZ              CAVSAS-S 0.5X1 GY        CCN000001600000000000FY00000000020220401000000000NNM10 20220225150440    1W    00000040000001900600000000032H2    HVYHV   000000000000UH323035
BI00B32H2    @TAW2044       20220401181AD2002ZZ              CIVUSAS-S 0.35X2 B       CCN000013500000000000FY00000000020220401000000000NNM10 20220225150501    1W    00000045000001713700000000032H2    HVYHV   000000000000UH323030
BI00B32H2    @TAW2044       20220401181AD2003ZZ              CIVUSAS-S 0.35X3 B       CCN000042000000000000FY00000000020220401000000000NNM10 20220225150501    1W    00000035000002172100000000032H2    HVYHV   000000000000UH323031
BI00B32H2    @TAW2044       20220401181AD2004ZZ              CIVUSAS-S 0.35X4 B       CCN000066000000000000FY00000000020220401000000000NNM10 20220225150501    1W    00000030000002799900000000032H2    HVYHV   000000000000UH323032
BI00A32H2    @TAW203J       20220228181E48018ZZ              CAVSAS-S 0.5X2 GY/SB     CCN000001500000001500FN00000000020220201000001500NNE   20220225154547    1W    00000030000002561000000000032H2    HVYHV   000000000000UF322002
BI00A32H2    @TAW203J       20220228181E48022ZZ              CAVSAS-S 0.5X2 GY        CCN000001800000001800FN00000000020220201000001800NNE   20220225154547    1W    00000030000002561000000000032H2    HVYHV   000000000000UF322001
BI00B32J1    @391910        20220321181E48012ZZ              CAVSAS-S 0.3X1 GY        CCN000001500000001500FN00000000020220301000001500NNE   20220225104634    1W    00000050000001529500000000032J1    UKYEL-BL000000000000KG223001
BI00B32J1    @391910        20220321181E48015ZZ              CAVSAS-S 0.5X1 GY        CCN000000400000000400FN00000000020220301000000400NNE   20220225104634    1W    00000040000001900600000000032J1    UKYEL-BL000000000000KG223002
BI00B32J1    @391910        20220321181E48018ZZ              CAVSAS-S 0.5X2 GY/SB     CCN000003000000003000FN00000000020220301000003000NNE   20220225104634    1W    00000030000002561000000000032J1    UKYEL-BL000000000000KG223004
BI00B32J1    @391910        20220321181E48027ZZ              CAVSAS-S 0.5X2 GY/P      CCN000001200000001200FN00000000020220301000001200NNE   20220225104634    1W    00000030000002561000000000032J1    UKYEL-BL000000000000KG223003
BI00B32J1    @391910        20220321181E48029ZZ              CAVSAS-S 0.5X4 GY        CCN000001000000001000FN00000000020220301000001000NNE   20220225104634    1W    00000020000003995000000000032J1    UKYEL-BL000000000000KG223007
BI00B32J1    @391910        20220321181E48031ZZ              CAVSAS-S 0.3X2 GY        CCN000001400000001400FN00000000020220301000001400NNE   20220225104634    1W    00000035000002008700000000032J1    UKYEL-BL000000000000KG223009
BI00B32J1    @391910        20220321181E48033ZZ              CAVSAS-S 0.5X3 GY/B      CCN000001000000001000FN00000000020220301000001000NNE   20220225104634    1W    00000020000003795300000000032J1    UKYEL-BL000000000000KG223006
BI00B32J1    @391910        20220321181E48035ZZ              CAVSAS-S 0.5X3 GY        CCN000002400000002400FN00000000020220301000002400NNE   20220225104634    1W    00000020000003795300000000032J1    UKYEL-BL000000000000KG223005
BI00B32J1    @391910        20220321181E48065ZZ              CAVSAS-S 0.5X4 GY/W      CCN000001000000001000FN00000000020220301000001000NNE   20220225104634    1W    00000020000003995000000000032J1    UKYEL-BL000000000000KG223008
BI00A32W4    @4500189713    20220425181D6910239              AVSSHCS 0.5FX2 B/L       CCN000001200000001200FN00000000020220401000001200NNE   20220225131603W4421W    00000030000002385000000000032W442  HJYHK-J 000000000000OI224001
BI00A32W4    @4500189771    20220503181B09037K5              CAVSAS 0.3X1 GY/BR       CCN000002000000002000FN00000000020220501000002000NNE   20220225131607W4N21W    00000050000001704000000000032W4N2  HJYHK-J 000000000000OO324001
BI00B32W4    4500189933     2022042618007704250              AVSS 2F R                CCN000001000000001000FN00000000020220401000001000NNE   20220225131606W41 1W    00000050000002126400000000032W41   HJYHK-J 000000000000OJ224001
BI00B32W4    4500189933     2022042618018403951              CAVS 0.5 O               CCN000009000000009000FN00000000020220401000009000NNE   20220225131606W41 1W    00000150000000677000000000032W41   HJYHK-J 000000000000OJ224003
BI00B32W4    4500189933     2022042618018403952              CAVS 0.5 P               CCN000006000000006000FN00000000020220401000006000NNE   20220225131606W41 1W    00000150000000677000000000032W41   HJYHK-J 000000000000OJ224004
BI00B32W4    4500189933     2022042618018403990              CAVS 0.5 L               CCN000010500000010500FN00000000020220401000010500NNE   20220225131606W41 1W    00000150000000677000000000032W41   HJYHK-J 000000000000OJ224002
BI00B32W4    4500189933     2022042618018404030              CAVS 0.85 B              CCN000002000000002000FN00000000020220401000002000NNE   20220225131606W41 1W    00000100000000965000000000032W41   HJYHK-J 000000000000OJ224005
BI00B32W4    4500189933     2022042618018404040              CAVS 0.85 W              CCN000007000000007000FN00000000020220401000007000NNE   20220225131606W41 1W    00000100000000965000000000032W41   HJYHK-J 000000000000OJ224012
BI00B32W4    4500189933     2022042618018404041              CAVS 0.85 GY             CCN000014000000014000FN00000000020220401000014000NNE   20220225131606W41 1W    00000100000000965000000000032W41   HJYHK-J 000000000000OJ224007
BI00B32W4    4500189933     2022042618018404050              CAVS 0.85 R              CCN000002000000002000FN00000000020220401000002000NNE   20220225131606W41 1W    00000100000000965000000000032W41   HJYHK-J 000000000000OJ224011
BI00B32W4    4500189933     2022042618018404051              CAVS 0.85 O              CCN000003000000003000FN00000000020220401000003000NNE   20220225131606W41 1W    00000100000000965000000000032W41   HJYHK-J 000000000000OJ224009
BI00B32W4    4500189933     2022042618018404052              CAVS 0.85 P              CCN000002000000002000FN00000000020220401000002000NNE   20220225131606W41 1W    00000100000000965000000000032W41   HJYHK-J 000000000000OJ224010
BI00B32W4    4500189933     2022042618018404061              CAVS 0.85 LG             CCN000003000000003000FN00000000020220401000003000NNE   20220225131606W41 1W    00000100000000965000000000032W41   HJYHK-J 000000000000OJ224008
BI00B32W4    4500189933     2022042618018404070              CAVS 0.85 Y              CCN000002000000002000FN00000000020220401000002000NNE   20220225131606W41 1W    00000100000000965000000000032W41   HJYHK-J 000000000000OJ224013
BI00B32W4    4500189933     2022042618018404080              CAVS 0.85 BR             CCN000008000000008000FN00000000020220401000008000NNE   20220225131606W41 1W    00000100000000965000000000032W41   HJYHK-J 000000000000OJ224006
BI00B32W4    4500189951     202204261801840375U              CAVS 0.3 BE              CCN000002000000002000FN00000000020220401000002000NNE   20220225131607W41 1W    00000200000000471000000000032W41   HJYHK-J 000000000000OK224002
BI00B32W4    @4500189951    20220426181B09116K2              CAVSAS 0.3X2 GY/V        CCN000003500000003500FN00000000020220401000003500NNE   20220225131605W41 1W    00000035000002254000000000032W41   HJYHK-J 000000000000OK224001
BI00A32W4    @4500189959    20220411181D6910239              AVSSHCS 0.5FX2 B/L       CCN000007800000007800FN00000000020220401000007800NNE   20220225131605W4A21W    00000030000002385000000000032W4A2  HJYHK-J 000000000000OY523001
BI00B32W4    @4500189926    20220510181B32037Y5              AVSSCS 0.3FX1 DGY/W      CCN000010000000010000FN00000000020220501000010000NNE   20220225131608W4171W    00000050000001780000000000032W417  HJYHK-J 000000000000OT424001
BI00B32W4    @4500189926    20220510181B32116S1              AVSSCS 0.3FX2 DGY        CCN000001400000001400FN00000000020220501000001400NNE   20220225131608W4171W    00000035000002276000000000032W417  HJYHK-J 000000000000OT424002
BI00B32W9    4500189764     2022030818009604356              AVS 3 R/G                CCN000000400000000400FN00000000020220301000000400NNE   20220225133416W93 1W    00000040000003831600000000032W93   HKYHK   000000000000ZN422001
