BI00B32AF    QA-22-P07      202205067114-4032                TERMINAL                 PNY000002500000002500FN00000000020220501000002500NNED0020220503122126    4P0P  00000750000000735000001063632AF    HBYHVTB 006400630017
BI00B32AG    XG22063NMW     202205207116-4415-02             TERMINAL                 CCN000570000000000000FY00000000020220601000000000NNMQ0820220503112700    4P0P  00003800000000596600000925732AG    XGXGY   006400630017
BI00B32AG    XG22064NMW     202205277158-3165-90             WIRE SEAL                CCN000200000000000000FY00000000020220601000000000NNMQ0820220503113030    1C0C  00004000000000124000000172432AG    XGXGY   004300270014
BI00B32AG    XG22081KMW     202207017196-0104-02             TERMINAL                 CCN000038000000000000FY00000000020220801000000000NNMQ0820220503112816    4P0P  00003800000000570000000956432AG    XGXGY   006400630017
BI00B32AG    @XG22083KMW    202207227283-1223-30             HOUSING SUB ASSEMBLY     CCN000004800000000000FY00000000020220801000000000NNMQ0820220503113346    3N0N  00000480000000749300000998032AG    XGXGY   005500360039
BI00B32CJ    JQN2014        202204297288-6547                CONNECTOR MALE ASS'Y     CCN000000750000000750FY00000075020220101000000000NNMD0420220503152137    4N0N  00000075000001205300001340332CJ    QNYHVQN 005400370024
BI00B32CJ    JQN2041        202209237289-3342-30             HOUSING FEMALE ASS'Y     CCN000024000000000000FY00000000020220401000000000NNMQ0820220503165602    1N0N  00000240000000686400000901432CJ    QNYHVQN 005500360039
BI00B32CJ    JQN2042        202209307289-3342-30             HOUSING FEMALE ASS'Y     CCN000021600000000000FY00000000020220401000000000NNMQ0820220503165626    1N0N  00000240000000686400000901432CJ    QNYHVQN 005500360039
BI00B32DJ    GHT2207B 2     202206167114-6041                TERMINAL                 CCN000003600000003600FN00000000020220701000003600NNM   20220503153529    4P0P  00000360000000580700000824232DJ    RBYIPLRB006400630015
BI00B32DJ    GHT2207B 2     202206167116-1180                TERMINAL                 CCN000078000000078000FN00000000020220701000078000NNM   20220503153529    1P0P  00001950000000618200000903432DJ    RBYIPLRB006400630015
BI00B32DJ    GHT2207B 2     202206167116-4020                TERMINAL                 CCN000027000000027000FN00000000020220701000027000NNM   20220503153529    4P0P  00001350000000513000000798232DJ    RBYIPLRB006400630015
BI00B32DJ    GHT2207B 1     202206027116-4032                TERMINAL                 CCN000060000000060000FN00000000020220701000060000NNM   20220503153529    4P0P  00000600000000532800000818032DJ    RBYIPLRB006400630015
BI00B32DJ    GHT2207B 2     202206167116-4032                TERMINAL                 CCN000066000000066000FN00000000020220701000066000NNM   20220503153529    4P0P  00000600000000532800000818032DJ    RBYIPLRB006400630015
BI00B32DJ    GHT2207B 2     202206167283-1144                CONNECTOR                CCN000002400000002400FN00000000020220701000002400NNM   20220503153529    4N0N  00000240000000602200000866132DJ    RBYIPLRB005500360039
BI00B32DJ    GHT2207B 2     202206167287-9234                JOINT CONNECTOR          CCN000009600000009600FN00000000020220701000009600NNM   20220503153529    4N0N  00000960000000893800001184832DJ    RBYIPLRB005500360039
BI00B32DJ    GHT2207B 2     202206167114-4415-02             TERMINAL MALE            CCN000081000000081000FN00000000020220701000081000NNM   20220503153529    4P0P  00002700000000429300000717532DJ    RBYIPLRB006400630015
BI00B32DJ    GHT2207B 2     202206167114-4728-02             TERMINAL                 CCN000090000000090000FN00000000020220701000090000NNM   20220503153529    4P0P  00003000000000510000000804232DJ    RBYIPLRB006400630015
BI00B32DJ    GHT2207B 1     202206027116-4486-02             TERMINAL                 CCN000112000000112000FN00000000020220701000112000NNM   20220503153529    4P0P  00002800000000666400000995132DJ    RBYIPLRB006400630017
BI00B32DJ    GHT2207B 2     202206167116-4486-02             TERMINAL                 CCN000028000000028000FN00000000020220701000028000NNM   20220503153529    4P0P  00002800000000666400000995132DJ    RBYIPLRB006400630017
BI00B32DJ    GHT2207B 1     202206027116-5042-02             TERMINAL                 CCN000013500000013500FN00000000020220701000013500NNM   20220503153529    4P0P  00001350000000560300000845532DJ    RBYIPLRB006400630015
BI00B32DJ    GHT2207B 2     202206167116-5042-02             TERMINAL                 CCN000013500000013500FN00000000020220701000013500NNM   20220503153529    4P0P  00001350000000560300000845532DJ    RBYIPLRB006400630015
BI00B32DJ    GHT2207B 2     202206167116-5750-02             TERMINAL                 CCN000075000000075000FN00000000020220701000075000NNM   20220503153529    4P0P  00001500000000457500000742732DJ    RBYIPLRB006400630015
BI00B32DJ    GHT2207B 2     202206167158-3165-90             WIRE SEAL                CCN000040000000040000FN00000000020220701000040000NNM   20220503153529    1C0C  00004000000000124000000172432DJ    RBYIPLRB004300270014
BI00B32DJ    GHT2207B 1     202206027158-3168-80             SEALED                   CCN000080000000080000FN00000000020220701000080000NNM   20220503153529    1C0C  00002000000000044000000092132DJ    RBYIPLRB004300260014
BI00B32DJ    GHT2207B 2     202206167158-3168-80             SEALED                   CCN000140000000140000FN00000000020220701000140000NNM   20220503153529    1C0C  00002000000000044000000092132DJ    RBYIPLRB004300260014
BI00B32DJ    GHT2207B 2     202206167283-5830-30             CONNECTOR                CCN000006000000006000FN00000000020220701000006000NNM   20220503153529    1N0N  00000600000000954000001104032DJ    RBYIPLRB005500360039
BI00B32DJ    GHT2207B 1     202206027288-3337-30             HOUSING MALE             CCN000001500000001500FN00000000020220701000001500NNM   20220503153529    4N0N  00000150000000867000001012032DJ    RBYIPLRB005400370024
BI00B32DJ    GHT2207B 1     202206027289-3342-30             HOUSING FEMALE ASS'Y     CCN000016800000016800FN00000000020220701000016800NNM   20220503153529    1N0N  00000240000000686400000901432DJ    RBYIPLRB005500360039
BI00B32DJ    GHT2207B 2     202206167289-3342-30             HOUSING FEMALE ASS'Y     CCN000007200000007200FN00000000020220701000007200NNM   20220503153529    1N0N  00000240000000686400000901432DJ    RBYIPLRB005500360039
BI00B32DJ    #GHT2207B 1    202206027183-1616                CONNECTOR HOUSING        CCN000009600000009600FN00000000020220701000009600NNM   20220503153525    2F0F  00000240000000557500000823332DJ    RBYIPLRB005500360039
BI00B32DJ    #GHT2207B 2    202206167183-1616                CONNECTOR HOUSING        CCN000004800000004800FN00000000020220701000004800NNM   20220503153525    2F0F  00000240000000557500000823332DJ    RBYIPLRB005500360039
BI00B32DJ    #GHT2207B 2    202206167183-2414                CONNECTOR HOUSING        CCN000014400000014400FN00000000020220701000014400NNM   20220503153525    2F0F  00000480000000779200001061032DJ    RBYIPLRB005500360039
BI00B32DJ    GHT2207C 1     202206027116-4022                TERMINAL                 CCN000013500000013500FN00000000020220701000013500NNM   20220503154608    4P0P  00001350000000618300000903532DJ    RBYIPLRB006400630015
BI00B32DJ    #GHT2207C 2    202206167116-4021                TERMINAL                 CCN000054000000054000FN00000000020220701000054000NNM   20220503154549    2F0P  00001350000000534600000868832DJ    RBYIPLRB006400630015
BI00B32DJ    #GHT2207C 2    202206167158-3015-10             RUBBER STOPPER           CCN000030000000030000FN00000000020220701000030000NNM   20220503154549    2C0C  00001000000000419500000474032DJ    RBYIPLRB002700430014
BI00B32D1    DFTC2231       202206097114-4032                TERMINAL                 CCN000007500000007500FN00000000020220801000007500NNM   20220503161446    4P0P  00000750000000735000001063632D1    TOYOT-K 006400630017
BI00B32D1    DFTC2231       202206097114-5748-02             TERMINAL                 CCN000048000000048000FN00000000020220801000048000NNM   20220503161446    4P0P  00001200000000444000000737632D1    TOYOT-K 006400630015
BI00B32D1    DFTC2231       202206097114-5753-02             TERMINAL                 CCN000108000000108000FN00000000020220801000108000NNM   20220503161446    4P0P  00002700000000847800001141432D1    TOYOT-K 006400630015
BI00B32D1    DFTC2231       202206097116-1685-02             TERMINAL                 CCN000048000000048000FN00000000020220801000048000NNM   20220503161446    4P0P  00002400000000897600001065232D1    TOYOT-K 005100280028
BI00B32D1    DFTC2231       202206097116-2891-02             TERMINAL                 CCN000045000000045000FN00000000020220801000045000NNM   20220503161446    4P0P  00001500000000982500001145932D1    TOYOT-K 005100280028
BI00B32D1    DFTC2231       202206097116-4101-02             TERMINAL                 CCN000012000000012000FN00000000020220801000012000NNM   20220503161446    4P0P  00001200000000582000000876232D1    TOYOT-K 006400630015
BI00B32D1    DFTC2231       202206097116-4110-02             TERMINAL                 CCN000018000000018000FN00000000020220801000018000NNM   20220503161446    4P0P  00000900000000594000000882232D1    TOYOT-K 006400630015
BI00B32D1    DFTC2231       202206097116-4111-02             TERMINAL                 CCN000015000000015000FN00000000020220801000015000NNM   20220503161446    4P0P  00000750000000529500000817732D1    TOYOT-K 006400630015
BI00B32D1    DFTC2231       202206097116-4112-02             TERMINAL                 CCN000042000000042000FN00000000020220801000042000NNM   20220503161446    4P0P  00000600000000450000000738232D1    TOYOT-K 006400630015
BI00B32D1    DFTC2231       202206097116-4486-02             TERMINAL                 CCN000084000000084000FN00000000020220801000084000NNM   20220503161446    4P0P  00002800000000666400000995132D1    TOYOT-K 006400630017
BI00B32D1    DFTC2231       202206097116-5045-02             TERMINAL                 CCN000048000000048000FN00000000020220801000048000NNM   20220503161446    4P0P  00001600000000678400001007132D1    TOYOT-K 006400630017
BI00B32D1    DFTC2231       202206097126-8853-02             TERMINAL                 CCN000037500000037500FN00000000020220801000037500NNM   20220503161446    4P0P  00000750000000562500000847732D1    TOYOT-K 006400630015
BI00B32D1    DFTC2231       202206097126-8854-02             TERMINAL                 CCN000037500000037500FN00000000020220801000037500NNM   20220503161446    4P0P  00000750000000604500000889732D1    TOYOT-K 006400630015
BI00B32D1    DFTC2231       202206097126-8855-02             TERMINAL                 CCN000036000000036000FN00000000020220801000036000NNM   20220503161446    4P0P  00000600000000510600000795832D1    TOYOT-K 006400630015
BI00B32D1    DFTC2231       202206097158-3070-80             RUBBER STOPPER           CCN000040000000040000FN00000000020220801000040000NNM   20220503161446    1C0C  00004000000000276000000333332D1    TOYOT-K 002700430014
BI00B32D1    DFTC2231       202206097196-0396-02             TERMINAL                 CCN000015000000015000FN00000000020220801000015000NNM   20220503161446    4P0P  00001500000000949500001112932D1    TOYOT-K 002800510028
BI00B32D1    DFTC2231       202206097196-0510-02             TERMINAL                 CCN000048000000048000FN00000000020220801000048000NNM   20220503161446    4P0P  00002400000000871200001034632D1    TOYOT-K 002800510028
BI00B32D1    DFTC2231       202206097282-4576                HOUSING MALE ASS'Y       CCN000002400000002400FN00000000020220801000002400NNM   20220503161446    4N0N  00000240000000808800001028832D1    TOYOT-K 005500360039
BI00B32D1    DFTC2231       202206097283-1156                CONNECTOR                CCN000002400000002400FN00000000020220801000002400NNM   20220503161446    4N0N  00000080000000877600001078032D1    TOYOT-K 005600390040
BI00B32D1    DFTC2231       202206097288-6547                CONNECTOR MALE ASS'Y     CCN000006750000006750FN00000000020220801000006750NNM   20220503161446    4N0N  00000075000001205300001340332D1    TOYOT-K 005400370024
BI00B32D1    DFTC2231       202206097289-3342                HOUSING FEMALE ASS'Y     CCN000016800000016800FN00000000020220801000016800NNM   20220503161446    1N0N  00000240000000686400000901432D1    TOYOT-K 005500360039
BI00B32D1    DFTC2231       202206097289-3342-30             HOUSING FEMALE ASS'Y     CCN000057600000057600FN00000000020220801000057600NNM   20220503161446    1N0N  00000240000000686400000901432D1    TOYOT-K 005500360039
BI00B32D1    DFTC2231       202206097289-3342-40             HOUSING FEMALE ASS'Y     CCN000004800000004800FN00000000020220801000004800NNM   20220503161446    1N0N  00000240000000686400000901432D1    TOYOT-K 005500360039
BI00B32D1    DFTC2231       202206097289-3342-90             HOUSING FEMALE ASS'Y     CCN000002400000002400FN00000000020220801000002400NNM   20220503161446    1N0N  00000240000000686400000901432D1    TOYOT-K 005500360039
BI00B32D1    DFTC2231       202206097289-6547                HOUSING FEMALE ASS'Y     CCN000004800000004800FN00000000020220801000004800NNM   20220503161446    1N0N  00000240000001152000001362032D1    TOYOT-K 005500360039
BI00B32D1    DFTC2231       202206097296-0784-02             TERMINAL ALUMINIUM       CCN000024000000024000FN00000000020220801000024000NNM   20220503161446    4P0P  00002400000000480000000765232D1    TOYOT-K 006400630015
BI00B32D1    DFTC2231       202206097296-1025-02             TERMINAL ALUMINIUM       CCN000018000000018000FN00000000020220801000018000NNM   20220503161446    4P0P  00001800000000635400000920632D1    TOYOT-K 006400630015
BI00B32D1    DFTC2231       202206097327-6731-3W             BATTERY FUSE             CCN000000896000000896FN00000000020220801000000896NNM   20220503161446    4N0N  00000006400000697600000843032D1    TOYOT-K 005400370024
BI00B32D1    DFTC2231       202206097388-2978-30             HOUSING MALE ASS'Y       CCN000005760000005760FN00000000020220801000005760NNM   20220503161446    1N0N  00000048000000742000001122032D1    TOYOT-K 005500360039
BI00B32D1    #DFTC2231      202206097158-3003-90             RUBBER STOPPER           CCN000060000000060000FN00000000020220801000060000NNM   20220503161441    2C0C  00002000000000250000000306032D1    TOYOT-K 002700430014
BI00B32D1    #DFTC2231      202206097158-3005-80             RUBBER STOPPER           CCN000020000000020000FN00000000020220801000020000NNM   20220503161441    2H0H  00002000000000210000000268732D1    TOYOT-K 002700430014
BI00B32D1    #DFTC2231      202206097158-3008-80             RUBBER STOPPER           CCN000020000000020000FN00000000020220801000020000NNM   20220503161441    2C0C  00002000000000288000000343032D1    TOYOT-K 004300270014
BI00B32D1    #DFTC2231      202206097158-3015-10             RUBBER STOPPER           CCN000010000000010000FN00000000020220801000010000NNM   20220503161441    2C0C  00001000000000419500000474032D1    TOYOT-K 002700430014
BI00B32D1    #DFTC2231      202206097158-3017                RUBBER STOPPER           CCN000020000000020000FN00000000020220801000020000NNM   20220503161441    2C0C  00001000000000375500000435032D1    TOYOT-K 002700430014
BI00B32D1    #DFTC2231      202206097172-5629-80             RUBBER STOPPER           CCN000100000000100000FN00000000020220801000100000NNM   20220503161441    2H0H  00002000000000060000000111132D1    TOYOT-K 004300270014
BI00B32D1    #DFTC2231      202206097172-5630-40             RUBBER STOPPER           CCN000020000000020000FN00000000020220801000020000NNM   20220503161441    2H0H  00002000000000044000000095132D1    TOYOT-K 004300270014
BI00B32D1    #DFTC2231      202206097172-5631-60             RUBBER STOPPER           CCN000020000000020000FN00000000020220801000020000NNM   20220503161441    2H0H  00002000000000042000000093132D1    TOYOT-K 004300270014
BI00B32D1    #DFTC2231      202206097172-5632-10             DUMMY PLUG               CCN000040000000040000FN00000000020220801000040000NNM   20220503161441    2H0H  00002000000000080400000131832D1    TOYOT-K 004300270014
BI00B32D1    #DFTC2231      202206097183-2418-30             CONNECTOR HOUSING        CCN000004800000004800FN00000000020220801000004800NNM   20220503161441    2F0F  00000480000000917000001235332D1    TOYOT-K 005500360039
BI00B32D1    #DFTC2231      202206097189-2978-30             HOUSING FEMALE           CCN000004500000004500FN00000000020220801000004500NNM   20220503161441    2F0F  00000150000000966900001096932D1    TOYOT-K 005400370024
BI00B32D1    #DFTC2231      202206097189-3033                HOUSING FEMALE           CCN000003200000003200FN00000000020220801000003200NNM   20220503161441    2F0F  00000160000001211200001431232D1    TOYOT-K 005500360039
BI00B32D1    #DFTC2231      202206097189-3036                HOUSING FEMALE           CCN000001600000001600FN00000000020220801000001600NNM   20220503161441    2F0F  00000160000000921600001141632D1    TOYOT-K 005500360039
BI00B32D1    #DFTC2231      202206097282-1641                CONNECTOR                CCN000006000000006000FN00000000020220801000006000NNM   20220503161441    2N0N  00000200000000813000000986032D1    TOYOT-K 005500360039
BI00B32D1    #DFTC2231      202206097289-2912-40             HOUSING FEMALE ASS'Y     CCN000002000000002000FN00000000020220801000002000NNM   20220503161441    2N0N  00000200000000804000000931032D1    TOYOT-K 005400370024
BI00B32D1    #DFTC2231      202206097289-3622-30             HOUSING FEMALE ASS'Y     CCN000001728000001728FN00000000020220801000001728NNM   20220503161441    2N0N  00000043200000839400001038432D1    TOYOT-K 005400370024
BI00B32D1    #DFTC2231      202206097289-4200-30             HOUSING FEMALE ASS'Y     CCN000002000000002000FN00000000020220801000002000NNM   20220503161441    2N0N  00000200000000926000001021032D1    TOYOT-K 005400370024
BI00B32EJ    T220429P01     202206097116-4022                TERMINAL                 CCN000040500000040500FN00000000020220601000040500NNE   20220503122126EJ  4P0P  00001350000000618300000903532EJ    EJYKBO  006400630015
BI00B32EJ    T220429P01     202206097283-5843                CONNECTOR                CCN000030000000030000FN00000000020220601000030000NNE   20220503122126EJ  1N0N  00000150000000889000001132032EJ    EJYKBO  005600390040
BI00B32EJ    T220429P01     202206097289-9553-30             SEALED ASSY FEMALE       CCN000002940000002940FN00000000020220601000002940NNE   20220503122126EJ  4N0N  00000294000001109000001521532EJ    EJYKBO  005500360039
BI00B32EJ    #T220429P01    202206097282-2090-30             CONNECTOR MALE ASS'Y     CCN000002400000002400FN00000000020220601000002400NNE   20220503122126EJ  2N0N  00000240000000794000001073032EJ    EJYKBO  005500360039
BI00B32EJ    T220502P01     202206097282-8120-40             CONNECTOR HOUSING        CCN000006000000006000FN00000000020220601000006000NNE   20220503122126EJ  1N0N  00000300000001356000001520032EJ    EJYKBO  005500360039
BI00B32EJ    T220502P03     202206097114-4100-02             TERMINAL                 CCN000108000000108000FN00000000020220601000108000NNE   20220503122126EJ  4P0P  00001800000000748800001077432EJ    EJYKBO  006400630017
BI00B32EJ    T220502P05     202206237114-4100-02             TERMINAL                 CCN000108000000108000FN00000000020220601000108000NNE   20220503122126EJ  4P0P  00001800000000748800001077432EJ    EJYKBO  006400630017
BI00B32EJ    T220502P06     202206097116-4101-02             TERMINAL                 CCN000012000000012000FN00000000020220601000012000NNE   20220503122126EJ  4P0P  00001200000000582000000876232EJ    EJYKBO  006400630015
BI00B32EJ    T220429P02     202207217116-2951-02             TERMINAL                 CCN000016200000016200FN00000000020220701000016200NNE   20220503122126EJ  4P0P  00000540000000817600001111832EJ    EJYKBO  006400630015
BI00B32EJ    T220429P02     202207217283-7028-30             CONNECTOR                CCN000003000000003000FN00000000020220701000003000NNE   20220503122126EJ  4N0N  00000300000001452000001681332EJ    EJYKBO  005600390040
BI00B32EJ    #T220429P02    202207217123-6423-30             CONNECTOR                CCN000014000000014000FN00000000020220701000014000NNE   20220503122126EJ  2F0F  00000200000001002000001167632EJ    EJYKBO  005600390023
BI00B32EJ    T220502P02     202207147116-4022                TERMINAL                 CCN000013500000013500FN00000000020220701000013500NNE   20220503122126EJ  4P0P  00001350000000618300000903532EJ    EJYKBO  006400630015
BI00B32EJ    #T220502P02    202207147157-3992-90             CONNECTOR SEALED         CCN000040000000040000FN00000000020220701000040000NNE   20220503122126EJ  2C0C  00004000000000300000000363332EJ    EJYKBO  002700430014
BI00B32EJ    #T220502P02    202207147158-3121-80             WIRE SEAL                CCN000060000000060000FN00000000020220701000060000NNE   20220503122126EJ  2C0C  00002000000000118000000187332EJ    EJYKBO  002700430014
BI00B32EJ    #T220502P02    202207147283-8397-40             CONNECTOR                CCN000001540000001540FN00000000020220701000001540NNE   20220503122126EJ  2N0N  00000154000001007000001222732EJ    EJYKBO  005600390023
BI00B32EJ    T220502P04     202207077114-4100-02             TERMINAL                 CCN000108000000108000FN00000000020220701000108000NNE   20220503122126EJ  4P0P  00001800000000748800001077432EJ    EJYKBO  006400630017
BI00B32G0    TZ2206AEMW     202205317116-1685-02             TERMINAL                 CCN000024000000024000FN00000000020220601000024000NNED0720220503122126    4P0P  00002400000000897600001065232G0    TTTJY   005100280028
BI00B32G0    TZ2206AEMW     202205317126-8853-02             TERMINAL                 CCN000007500000007500FN00000000020220601000007500NNED0720220503122126    4P0P  00000750000000562500000847732G0    TTTJY   006400630015
BI00B32G0    TZ2206AEMW     202205317158-3070-80             RUBBER STOPPER           CCN000120000000120000FN00000000020220601000120000NNED0720220503122126    1C0C  00004000000000276000000333332G0    TTTJY   002700430014
BI00B32G0    TZ2206AEMW     202205317270-8994                6P MODULE ASSEMBLY       CCN000002000000002000FN00000000020220601000002000NNED0720220503122126    4J0J  00000010000001098600001298632G0    TTTJY   005400370024
BI00B32G0    TZ2206AEMW     202205317283-1928-80             CONNECTOR                CCN000012000000012000FN00000000020220601000012000NNED0720220503122126    4N0N  00000200000001180000001358332G0    TTTJY   005500360039
BI00B32G0    TZ2206AEMW     202205317287-9323-40             UNSEALED HOUSING SUB     CCN000002400000002400FN00000000020220601000002400NNED0720220503122126    1N0N  00000240000000537600000690032G0    TTTJY   005600390023
BI00B32G0    TZ2206AEMW     202205317388-2978-30             HOUSING MALE ASS'Y       CCN000004800000004800FN00000000020220601000004800NNED0720220503122126    1N0N  00000048000000742000001122032G0    TTTJY   005500360039
BI00B32G0    #TZ2206AEMW    202205317158-3003-90             RUBBER STOPPER           CCN000020000000020000FN00000000020220601000020000NNED0720220503122126    2C0C  00002000000000250000000306032G0    TTTJY   002700430014
BI00B32G0    #TZ2206AEMW    202205317158-3005-80             RUBBER STOPPER           CCN000020000000020000FN00000000020220601000020000NNED0720220503122126    2H0H  00002000000000210000000268732G0    TTTJY   002700430014
BI00B32G0    #TZ2206AEMW    202205317189-2978-30             HOUSING FEMALE           CCN000006000000006000FN00000000020220601000006000NNED0720220503122126    2F0F  00000150000000966900001096932G0    TTTJY   005400370024
BI00B32G0    #TZ2206AEMW    202205317189-3033                HOUSING FEMALE           CCN000003200000003200FN00000000020220601000003200NNED0720220503122126    2F0F  00000160000001211200001431232G0    TTTJY   005500360039
BI00B32G0    #TZ2206AEMW    202205317189-3036                HOUSING FEMALE           CCN000004800000004800FN00000000020220601000004800NNED0720220503122126    2F0F  00000160000000921600001141632G0    TTTJY   005500360039
BI00B32G0    @TZ2206AEMW    202205317287-4098-40             CONNECTOR FEMALE         CCN000002400000002400FN00000000020220601000002400NNED0720220503122126    3N0N  00000240000000672500000908032G0    TTTJY   005500360039
BI00B32G0    TZ22083EMW     202207057017-1180-02             TERMINAL                 CCN000072000000072000FN00000000020220801000072000NNM   20220503122126    4P0P  00007200000001065600001229032G0    TTTJY   005100280028
BI00B32G0    TZ22082EMW     202206287017-1181-02             TERMINAL                 CCN000063000000063000FN00000000020220801000063000NNM   20220503122126    4P0P  00006300000001089900001266832G0    TTTJY   005100280028
BI00B32G0    TZ22083EMW     202207057114-4032                TERMINAL                 CCN000007500000007500FN00000000020220801000007500NNM   20220503122126    4P0P  00000750000000735000001063632G0    TTTJY   006400630017
BI00B32G0    TZ22081EMW     202206217114-4624-02             TERMINAL                 CCN000024000000024000FN00000000020220801000024000NNM   20220503122126    4P0P  00002400000000895200001188832G0    TTTJY   006400630015
BI00B32G0    TZ22083EMW     202207057114-4728-08             TERMINAL                 CCN000030000000030000FN00000000020220801000030000NNM   20220503122126    4P0P  00003000000000507000000801232G0    TTTJY   006400630015
BI00B32G0    TZ22082EMW     202206287114-5096-08             TERMINAL                 CCN000030000000030000FN00000000020220801000030000NNM   20220503122126    4P0P  00003000000000498000000792232G0    TTTJY   006400630015
BI00B32G0    TZ22081EMW     202206217114-5748-02             TERMINAL                 CCN000108000000108000FN00000000020220801000108000NNM   20220503122126    4P0P  00001200000000444000000737632G0    TTTJY   006400630015
BI00B32G0    TZ22082EMW     202206287114-5748-02             TERMINAL                 CCN000072000000072000FN00000000020220801000072000NNM   20220503122126    4P0P  00001200000000444000000737632G0    TTTJY   006400630015
BI00B32G0    TZ22081EMW     202206217116-1685-02             TERMINAL                 CCN000072000000072000FN00000000020220801000072000NNM   20220503122126    4P0P  00002400000000897600001065232G0    TTTJY   005100280028
BI00B32G0    TZ22082EMW     202206287116-1685-02             TERMINAL                 CCN000024000000024000FN00000000020220801000024000NNM   20220503122126    4P0P  00002400000000897600001065232G0    TTTJY   005100280028
BI00B32G0    TZ22083EMW     202207057116-1686-02             TERMINAL                 CCN000021000000021000FN00000000020220801000021000NNM   20220503122126    4P0P  00002100000000869400001021632G0    TTTJY   005100280028
BI00B32G0    TZ22083EMW     202207057116-3153-08             TERMINAL                 CCN000054000000054000FN00000000020220801000054000NNM   20220503122126    4P0P  00002700000000461700000746932G0    TTTJY   006400630015
BI00B32G0    TZ22081EMW     202206217116-3154-08             TERMINAL                 CCN000027000000027000FN00000000020220801000027000NNM   20220503122126    4P0P  00002700000000475200000760432G0    TTTJY   006400630015
BI00B32G0    TZ22082EMW     202206287116-5045-02             TERMINAL                 CCN000176000000176000FN00000000020220801000176000NNM   20220503122126    4P0P  00001600000000678400001007132G0    TTTJY   006400630017
BI00B32G0    TZ22081EMW     202206217116-5046-02             TERMINAL                 CCN000084000000084000FN00000000020220801000084000NNM   20220503122126    4P0P  00001200000000544800000873532G0    TTTJY   006400630017
BI00B32G0    TZ22082EMW     202206287116-5046-02             TERMINAL                 CCN000072000000072000FN00000000020220801000072000NNM   20220503122126    4P0P  00001200000000544800000873532G0    TTTJY   006400630017
BI00B32G0    TZ22081EMW     202206217116-6041                TERMINAL                 CCN000022500000022500FN00000000020220801000022500NNM   20220503122126    4P0P  00000450000000716000001009632G0    TTTJY   006400630015
BI00B32G0    TZ22082EMW     202206287116-6041                TERMINAL                 CCN000013500000013500FN00000000020220801000013500NNM   20220503122126    4P0P  00000450000000716000001009632G0    TTTJY   006400630015
BI00B32G0    TZ22081EMW     202206217126-8853-02             TERMINAL                 CCN000097500000097500FN00000000020220801000097500NNM   20220503122126    4P0P  00000750000000562500000847732G0    TTTJY   006400630015
BI00B32G0    TZ22082EMW     202206287126-8853-02             TERMINAL                 CCN000090000000090000FN00000000020220801000090000NNM   20220503122126    4P0P  00000750000000562500000847732G0    TTTJY   006400630015
BI00B32G0    TZ22081EMW     202206217158-3006-90             RUBBER STOPPER           CCN000080000000080000FN00000000020220801000080000NNM   20220503122126    1C0C  00002000000000330600000386032G0    TTTJY   002700430014
BI00B32G0    TZ22082EMW     202206287158-3006-90             RUBBER STOPPER           CCN000060000000060000FN00000000020220801000060000NNM   20220503122126    1C0C  00002000000000330600000386032G0    TTTJY   002700430014
BI00B32G0    TZ22083EMW     202207057158-3006-90             RUBBER STOPPER           CCN000060000000060000FN00000000020220801000060000NNM   20220503122126    1C0C  00002000000000330600000386032G0    TTTJY   002700430014
BI00B32G0    TZ22081EMW     202206217158-3022-80             RUBBER STOPPER           CCN000005000000005000FN00000000020220801000005000NNM   20220503122126    1C0C  00000500000000467500000524032G0    TTTJY   002700430014
BI00B32G0    TZ22081EMW     202206217158-3070-80             RUBBER STOPPER           CCN000120000000120000FN00000000020220801000120000NNM   20220503122126    1C0C  00004000000000276000000333332G0    TTTJY   002700430014
BI00B32G0    TZ22081EMW     202206217158-3165-90             WIRE SEAL                CCN000040000000040000FN00000000020220801000040000NNM   20220503122126    1C0C  00004000000000124000000172432G0    TTTJY   004300270014
BI00B32G0    TZ22081EMW     202206217158-3166-60             WIRE SEAL                CCN000040000000040000FN00000000020220801000040000NNM   20220503122126    1C0C  00004000000000104000000152432G0    TTTJY   002700430014
BI00B32G0    TZ22081EMW     202206217158-3167-80             WIRE SEAL                CCN000040000000040000FN00000000020220801000040000NNM   20220503122126    1C0C  00002000000000048000000109032G0    TTTJY   002700430014
BI00B32G0    TZ22083EMW     202207057173-3291-40             LIF LEVER                CCN000002400000002400FN00000000020220801000002400NNM   20220503122126    1F0F  00000240000000867800001067832G0    TTTJY   005500360039
BI00B32G0    TZ22082EMW     202206287195-0783-08             TERMINAL                 CCN000030000000030000FN00000000020220801000030000NNM   20220503122126    4P0P  00003000000000507000000801232G0    TTTJY   006400630015
BI00B32G0    TZ22082EMW     202206287196-0396-02             TERMINAL                 CCN000015000000015000FN00000000020220801000015000NNM   20220503122126    4P0P  00001500000000949500001112932G0    TTTJY   002800510028
BI00B32G0    TZ22083EMW     202207057196-0510-02             TERMINAL                 CCN000048000000048000FN00000000020220801000048000NNM   20220503122126    4P0P  00002400000000871200001034632G0    TTTJY   002800510028
BI00B32G0    TZ22081EMW     202206217196-0805-02             TERMINAL FEMALE          CCN000022500000022500FN00000000020220801000022500NNM   20220503122126    4P0P  00002250000000558000000843232G0    TTTJY   006400630015
BI00B32G0    TZ22083EMW     202207057196-0805-02             TERMINAL FEMALE          CCN000022500000022500FN00000000020220801000022500NNM   20220503122126    4P0P  00002250000000558000000843232G0    TTTJY   006400630015
BI00B32G0    TZ22083EMW     202207057196-1325-02             TERMINAL FEMALE          CCN000060000000060000FN00000000020220801000060000NNM   20220503122126    4P0P  00006000000000450000000778732G0    TTTJY   006400630017
BI00B32G0    TZ22082EMW     202206287196-1326-02             TERMINAL FEMALE          CCN000120000000120000FN00000000020220801000120000NNM   20220503122126    4P0P  00006000000000456000000784732G0    TTTJY   006400630017
BI00B32G0    TZ22083EMW     202207057196-1326-02             TERMINAL FEMALE          CCN000120000000120000FN00000000020220801000120000NNM   20220503122126    4P0P  00006000000000456000000784732G0    TTTJY   006400630017
BI00B32G0    TZ22081EMW     202206217270-8994                6P MODULE ASSEMBLY       CCN000003300000003300FN00000000020220801000003300NNM   20220503122126    4J0J  00000010000001098600001298632G0    TTTJY   005400370024
BI00B32G0    TZ22082EMW     202206287270-8994                6P MODULE ASSEMBLY       CCN000001600000001600FN00000000020220801000001600NNM   20220503122126    4J0J  00000010000001098600001298632G0    TTTJY   005400370024
BI00B32G0    TZ22083EMW     202207057270-8994                6P MODULE ASSEMBLY       CCN000001500000001500FN00000000020220801000001500NNM   20220503122126    4J0J  00000010000001098600001298632G0    TTTJY   005400370024
BI00B32G0    TZ22081EMW     202206217283-1928-80             CONNECTOR                CCN000010000000010000FN00000000020220801000010000NNM   20220503122126    4N0N  00000200000001180000001358332G0    TTTJY   005500360039
BI00B32G0    TZ22083EMW     202207057283-4855                CONNECTOR HOUSING        CCN000014400000014400FN00000000020220801000014400NNM   20220503122126    4N0N  00000240000001188400001400032G0    TTTJY   005500360039
BI00B32G0    TZ22081EMW     202206217287-8999                HOUSING FEMALE ASS'Y     CCN000004800000004800FN00000000020220801000004800NNM   20220503122126    1N0N  00000480000001228800001448832G0    TTTJY   005500360039
BI00B32G0    TZ22081EMW     202206217287-9323-40             UNSEALED HOUSING SUB     CCN000004800000004800FN00000000020220801000004800NNM   20220503122126    1N0N  00000240000000537600000690032G0    TTTJY   005600390023
BI00B32G0    TZ22082EMW     202206287287-9323-40             UNSEALED HOUSING SUB     CCN000002400000002400FN00000000020220801000002400NNM   20220503122126    1N0N  00000240000000537600000690032G0    TTTJY   005600390023
BI00B32G0    TZ22081EMW     202206217288-6547                CONNECTOR MALE ASS'Y     CCN000018000000018000FN00000000020220801000018000NNM   20220503122126    4N0N  00000075000001205300001340332G0    TTTJY   005400370024
BI00B32G0    TZ22082EMW     202206287288-6547                CONNECTOR MALE ASS'Y     CCN000016500000016500FN00000000020220801000016500NNM   20220503122126    4N0N  00000075000001205300001340332G0    TTTJY   005400370024
BI00B32G0    TZ22081EMW     202206217288-6598-70             HOUSING MALE ASS'Y       CCN000001440000001440FN00000000020220801000001440NNM   20220503122126    4N0N  00000144000001074200001429232G0    TTTJY   005500360039
BI00B32G0    TZ22082EMW     202206287288-6598-70             HOUSING MALE ASS'Y       CCN000001440000001440FN00000000020220801000001440NNM   20220503122126    4N0N  00000144000001074200001429232G0    TTTJY   005500360039
BI00B32G0    TZ22083EMW     202207057288-6598-70             HOUSING MALE ASS'Y       CCN000001440000001440FN00000000020220801000001440NNM   20220503122126    4N0N  00000144000001074200001429232G0    TTTJY   005500360039
BI00B32G0    TZ22081EMW     202206217289-6518-30             HOUSING FEMALE ASS'Y     CCN000001200000001200FN00000000020220801000001200NNM   20220503122126    1N0N  00000120000000829200001049232G0    TTTJY   005500360039
BI00B32G0    TZ22081EMW     202206217289-6547                HOUSING FEMALE ASS'Y     CCN000014400000014400FN00000000020220801000014400NNM   20220503122126    1N0N  00000240000001152000001362032G0    TTTJY   005500360039
BI00B32G0    TZ22082EMW     202206287289-6547                HOUSING FEMALE ASS'Y     CCN000009600000009600FN00000000020220801000009600NNM   20220503122126    1N0N  00000240000001152000001362032G0    TTTJY   005500360039
BI00B32G0    TZ22081EMW     202206217327-6731-3W             BATTERY FUSE             CCN000004736000004736FN00000000020220801000004736NNM   20220503122126    4N0N  00000006400000697600000843032G0    TTTJY   005400370024
BI00B32G0    TZ22082EMW     202206287327-6731-3W             BATTERY FUSE             CCN000002560000002560FN00000000020220801000002560NNM   20220503122126    4N0N  00000006400000697600000843032G0    TTTJY   005400370024
BI00B32G0    TZ22081EMW     202206217386-2747                CONNECTOR ASS'Y          CCN000002000000002000FN00000000020220801000002000NNM   20220503122126    4N0N  00000200000001162000001284532G0    TTTJY   005400370024
BI00B32G0    TZ22083EMW     202207057386-9155                CONNECTOR MALE ASS'Y     CCN000001200000001200FN00000000020220801000001200NNM   20220503122126    4N0N  00000060000001244400001369932G0    TTTJY   005400370024
BI00B32G0    TZ22081EMW     202206217388-2978-30             HOUSING MALE ASS'Y       CCN000013920000013920FN00000000020220801000013920NNM   20220503122126    1N0N  00000048000000742000001122032G0    TTTJY   005500360039
BI00B32G0    TZ22082EMW     202206287388-2978-30             HOUSING MALE ASS'Y       CCN000010080000010080FN00000000020220801000010080NNM   20220503122126    1N0N  00000048000000742000001122032G0    TTTJY   005500360039
BI00B32G0    TZ22083EMW     202207057388-2978-30             HOUSING MALE ASS'Y       CCN000004800000004800FN00000000020220801000004800NNM   20220503122126    1N0N  00000048000000742000001122032G0    TTTJY   005500360039
BI00B32G0    #TZ22081EMW    202206217125-3236                HEAD LAMP CONNECTOR      CCN000005600000005600FN00000000020220801000005600NNM   20220503122126    2F0F  00000280000000935200001075432G0    TTTJY   005500360039
BI00B32G0    #TZ22082EMW    202206287125-3236                HEAD LAMP CONNECTOR      CCN000002800000002800FN00000000020220801000002800NNM   20220503122126    2F0F  00000280000000935200001075432G0    TTTJY   005500360039
BI00B32G0    #TZ22081EMW    202206217157-6826-80             REAR HOLDER              CCN000015000000015000FN00000000020220801000015000NNM   20220503122126    2F0F  00001500000001234500001394132G0    TTTJY   005600390040
BI00B32G0    #TZ22081EMW    202206217158-3003-90             RUBBER STOPPER           CCN000100000000100000FN00000000020220801000100000NNM   20220503122126    2C0C  00002000000000250000000306032G0    TTTJY   002700430014
BI00B32G0    #TZ22082EMW    202206287158-3003-90             RUBBER STOPPER           CCN000100000000100000FN00000000020220801000100000NNM   20220503122126    2C0C  00002000000000250000000306032G0    TTTJY   002700430014
BI00B32G0    #TZ22081EMW    202206217158-3005-80             RUBBER STOPPER           CCN000060000000060000FN00000000020220801000060000NNM   20220503122126    2H0H  00002000000000210000000268732G0    TTTJY   002700430014
BI00B32G0    #TZ22082EMW    202206287158-3005-80             RUBBER STOPPER           CCN000020000000020000FN00000000020220801000020000NNM   20220503122126    2H0H  00002000000000210000000268732G0    TTTJY   002700430014
BI00B32G0    #TZ22081EMW    202206217158-3008-80             RUBBER STOPPER           CCN000040000000040000FN00000000020220801000040000NNM   20220503122126    2C0C  00002000000000288000000343032G0    TTTJY   004300270014
BI00B32G0    #TZ22082EMW    202206287158-3008-80             RUBBER STOPPER           CCN000020000000020000FN00000000020220801000020000NNM   20220503122126    2C0C  00002000000000288000000343032G0    TTTJY   004300270014
BI00B32G0    #TZ22083EMW    202207057158-3015-10             RUBBER STOPPER           CCN000010000000010000FN00000000020220801000010000NNM   20220503122126    2C0C  00001000000000419500000474032G0    TTTJY   002700430014
BI00B32G0    #TZ22083EMW    202207057158-3017                RUBBER STOPPER           CCN000030000000030000FN00000000020220801000030000NNM   20220503122126    2C0C  00001000000000375500000435032G0    TTTJY   002700430014
BI00B32G0    #TZ22081EMW    202206217172-5625-90             RUBBER STOPPER           CCN000060000000060000FN00000000020220801000060000NNM   20220503122126    2H0H  00002000000000082400000133832G0    TTTJY   004300270014
BI00B32G0    #TZ22082EMW    202206287172-5626-90             RUBBER STOPPER           CCN000120000000120000FN00000000020220801000120000NNM   20220503122126    2H0H  00002000000000076400000127832G0    TTTJY   004300270014
BI00B32G0    #TZ22083EMW    202207057172-5626-90             RUBBER STOPPER           CCN000100000000100000FN00000000020220801000100000NNM   20220503122126    2H0H  00002000000000076400000127832G0    TTTJY   004300270014
BI00B32G0    #TZ22081EMW    202206217172-5627-60             RUBBER STOPPER           CCN000020000000020000FN00000000020220801000020000NNM   20220503122126    2H0H  00002000000000070400000121832G0    TTTJY   004300270014
BI00B32G0    #TZ22082EMW    202206287172-5628-80             DUMMY PLUG               CCN000020000000020000FN00000000020220801000020000NNM   20220503122126    2H0H  00002000000000110600000162032G0    TTTJY   004300270014
BI00B32G0    #TZ22083EMW    202207057172-5629-80             RUBBER STOPPER           CCN000260000000260000FN00000000020220801000260000NNM   20220503122126    2H0H  00002000000000060000000111132G0    TTTJY   004300270014
BI00B32G0    #TZ22083EMW    202207057172-5630-40             RUBBER STOPPER           CCN000280000000280000FN00000000020220801000280000NNM   20220503122126    2H0H  00002000000000044000000095132G0    TTTJY   004300270014
BI00B32G0    #TZ22082EMW    202206287172-5631-60             RUBBER STOPPER           CCN000060000000060000FN00000000020220801000060000NNM   20220503122126    2H0H  00002000000000042000000093132G0    TTTJY   004300270014
BI00B32G0    #TZ22082EMW    202206287172-5632-10             DUMMY PLUG               CCN000080000000080000FN00000000020220801000080000NNM   20220503122126    2H0H  00002000000000080400000131832G0    TTTJY   004300270014
BI00B32G0    #TZ22081EMW    202206217183-1616                CONNECTOR HOUSING        CCN000002400000002400FN00000000020220801000002400NNM   20220503122126    2F0F  00000240000000557500000823332G0    TTTJY   005500360039
BI00B32G0    #TZ22081EMW    202206217183-2415-30             CONNECTOR HOUSING        CCN000004800000004800FN00000000020220801000004800NNM   20220503122126    2F0F  00000480000000798200001091432G0    TTTJY   005500360039
BI00B32G0    #TZ22081EMW    202206217189-2978-30             HOUSING FEMALE           CCN000015000000015000FN00000000020220801000015000NNM   20220503122126    2F0F  00000150000000966900001096932G0    TTTJY   005400370024
BI00B32G0    #TZ22082EMW    202206287189-2978-30             HOUSING FEMALE           CCN000013500000013500FN00000000020220801000013500NNM   20220503122126    2F0F  00000150000000966900001096932G0    TTTJY   005400370024
BI00B32G0    #TZ22081EMW    202206217189-3033                HOUSING FEMALE           CCN000006400000006400FN00000000020220801000006400NNM   20220503122126    2F0F  00000160000001211200001431232G0    TTTJY   005500360039
BI00B32G0    #TZ22082EMW    202206287189-3033                HOUSING FEMALE           CCN000001600000001600FN00000000020220801000001600NNM   20220503122126    2F0F  00000160000001211200001431232G0    TTTJY   005500360039
BI00B32G0    #TZ22081EMW    202206217189-3034-30             HOUSING FEMALE           CCN000001600000001600FN00000000020220801000001600NNM   20220503122126    2F0F  00000160000000972800001192832G0    TTTJY   005500360039
BI00B32G0    #TZ22081EMW    202206217189-3036                HOUSING FEMALE           CCN000004800000004800FN00000000020220801000004800NNM   20220503122126    2F0F  00000160000000921600001141632G0    TTTJY   005500360039
BI00B32G0    #TZ22081EMW    202206217189-3038                HOUSING FEMALE           CCN000001600000001600FN00000000020220801000001600NNM   20220503122126    2F0F  00000160000000817600000850132G0    TTTJY   005500360039
BI00B32G0    #TZ22081EMW    202206217198-4979-30             HOUSING FEMALE           CCN000004000000004000FN00000000020220801000004000NNM   20220503122126    2F0F  00000400000000707200000876032G0    TTTJY   005400370024
BI00B32G0    #TZ22082EMW    202206287198-4979-30             HOUSING FEMALE           CCN000004000000004000FN00000000020220801000004000NNM   20220503122126    2F0F  00000400000000707200000876032G0    TTTJY   005400370024
BI00B32G0    #TZ22083EMW    202207057198-4979-30             HOUSING FEMALE           CCN000004000000004000FN00000000020220801000004000NNM   20220503122126    2F0F  00000400000000707200000876032G0    TTTJY   005400370024
BI00B32G0    #TZ22081EMW    202206217198-4980-30             HOUSING FEMALE           CCN000001200000001200FN00000000020220801000001200NNM   20220503122126    2F0F  00000120000000840000000921032G0    TTTJY   005400370024
BI00B32G0    #TZ22083EMW    202207057287-9155                HOUSING FEMALE ASS'Y     CCN000000960000000960FN00000000020220801000000960NNM   20220503122126    2N0N  00000096000000853700001045232G0    TTTJY   005400370024
BI00B32G0    #TZ22081EMW    202206217289-3622-30             HOUSING FEMALE ASS'Y     CCN000000432000000432FN00000000020220801000000432NNM   20220503122126    2N0N  00000043200000839400001038432G0    TTTJY   005400370024
BI00B32G0    #TZ22082EMW    202206287289-3622-30             HOUSING FEMALE ASS'Y     CCN000000432000000432FN00000000020220801000000432NNM   20220503122126    2N0N  00000043200000839400001038432G0    TTTJY   005400370024
BI00B32G0    @TZ22083EMW    202207057183-2510                HOUSING                  CCN000003000000003000FN00000000020220801000003000NNM   20220503122126    3F0F  00000300000001063500001159032G0    TTTJY   005400370024
BI00B32G0    @TZ22083EMW    202207057286-4098                CONNECTOR MALE ASS'Y     CCN000009600000009600FN00000000020220801000009600NNM   20220503122126    3N0N  00000160000000949100001163032G0    TTTJY   005500360039
BI00B32G0    @TZ22081EMW    202206217287-4098-40             CONNECTOR FEMALE         CCN000004800000004800FN00000000020220801000004800NNM   20220503122126    3N0N  00000240000000672500000908032G0    TTTJY   005500360039
BI00B32G8    PATA2071       202206087017-1181-02             TERMINAL                 CCN000189000000189000FN00000000020220601000189000NNMD0020220503122126    4P0P  00006300000001089900001266832G8    PSPASI  005100280028
BI00B32G8    PATA2071       202206087273-3570-0W             CASSETTE BRACKET         CCN000003000000003000FN00000000020220601000003000NNMD0020220503122126    4N0N  00000010000000144100000196632G8    PSPASI  004300270014
BI00B32G8    PATA2071       202206087273-3573-0W             CASSETTE BRACKET         CCN000012000000012000FN00000000020220601000012000NNMD0020220503122126    4N0N  00000010000000087700000140232G8    PSPASI  004300270014
BI00B32G8    PATA2071       202206087273-3571-0W             CASSETTE BRACKET         CCN000006000000006000FN00000000020220601000006000NNMD0020220503122126    4N0N  00000010000000134600000187132G8    PSPASI  004300270014
BI00B32G8    PATA2071       202206087470-5302                J/B COMPLETE ASS'Y       CCN000000600000000600FN00000000020220601000000600NNMD0020220503122126    4J0J  00000001000000494000000661032G8    PSPASI  005400370024
BI00B32G8    PATA2071       202206087470-5945                J/B COMPLETE ASS'Y       CCN000003830000003830FN00000000020220601000003830NNMD0020220503122126    4J0J  00000001000000494000000661032G8    PSPASI  005400370024
BI00B32G8    PATA2071       202206087470-5938                J/B COMPLETE ASS'Y       CCN000000050000000050FN00000000020220601000000050NNMD0020220503122126    4J0J  00000001000000494000000661032G8    PSPASI  005400370024
BI00B32G8    PATA2071       202206087470-5946                J/B COMPLETE ASS'Y       CCN000000420000000420FN00000000020220601000000420NNMD0020220503122126    4J0J  00000001000000494000000661032G8    PSPASI  005400370024
BI00B32G8    PATA2071       202206087470-5939                J/B COMPLETE ASS'Y       CCN000000140000000140FN00000000020220601000000140NNMD0020220503122126    4J0J  00000001000000494000000661032G8    PSPASI  005400370024
BI00B32G8    PATA2071       202206087470-6156                J/B COMPLETE ASS'Y       CCN000000080000000080FN00000000020220601000000080NNMD0020220503122126    4J00  00000001000000494000000661032G8    PSPASI  005400370024
BI00B32H0    TT2207AVMW     202205247196-0396-02             TERMINAL                 CCN000045000000045000FN00000000020220701000045000NNE   20220503141725    4P0P  00001500000000949500001112932H0    TTTJY   002800510028
BI00B32H0    TT2207AVMW     202205247327-6731-3W             BATTERY FUSE             CCN000008896000008896FN00000000020220701000008896NNE   20220503141725    4N0N  00000006400000697600000843032H0    TTTJY   005400370024
BI00B32H0    TT22081VMW     202206217114-4624-02             TERMINAL                 CCN000024000000024000FN00000000020220801000024000NNM   20220503141839    4P0P  00002400000000895200001188832H0    TTTJY   006400630015
BI00B32H0    TT22081VMW     202206217114-4728-08             TERMINAL                 CCN000030000000030000FN00000000020220801000030000NNM   20220503141839    4P0P  00003000000000507000000801232H0    TTTJY   006400630015
BI00B32H0    TT22081VMW     202206217114-5096-08             TERMINAL                 CCN000030000000030000FN00000000020220801000030000NNM   20220503141839    4P0P  00003000000000498000000792232H0    TTTJY   006400630015
BI00B32H0    TT22081VMW     202206217116-3153-08             TERMINAL                 CCN000054000000054000FN00000000020220801000054000NNM   20220503141839    4P0P  00002700000000461700000746932H0    TTTJY   006400630015
BI00B32H0    TT22082VMW     202206287116-3153-08             TERMINAL                 CCN000027000000027000FN00000000020220801000027000NNM   20220503141839    4P0P  00002700000000461700000746932H0    TTTJY   006400630015
BI00B32H0    TT22081VMW     202206217116-5045-02             TERMINAL                 CCN000048000000048000FN00000000020220801000048000NNM   20220503141839    4P0P  00001600000000678400001007132H0    TTTJY   006400630017
BI00B32H0    TT22082VMW     202206287116-5045-02             TERMINAL                 CCN000048000000048000FN00000000020220801000048000NNM   20220503141839    4P0P  00001600000000678400001007132H0    TTTJY   006400630017
BI00B32H0    TT22083VMW     202207057116-5045-02             TERMINAL                 CCN000032000000032000FN00000000020220801000032000NNM   20220503141839    4P0P  00001600000000678400001007132H0    TTTJY   006400630017
BI00B32H0    TT22081VMW     202206217116-5046-02             TERMINAL                 CCN000048000000048000FN00000000020220801000048000NNM   20220503141839    4P0P  00001200000000544800000873532H0    TTTJY   006400630017
BI00B32H0    TT22082VMW     202206287116-5046-02             TERMINAL                 CCN000048000000048000FN00000000020220801000048000NNM   20220503141839    4P0P  00001200000000544800000873532H0    TTTJY   006400630017
BI00B32H0    TT22081VMW     202206217116-6041                TERMINAL                 CCN000040500000040500FN00000000020220801000040500NNM   20220503141839    4P0P  00000450000000716000001009632H0    TTTJY   006400630015
BI00B32H0    TT22082VMW     202206287116-6041                TERMINAL                 CCN000031500000031500FN00000000020220801000031500NNM   20220503141839    4P0P  00000450000000716000001009632H0    TTTJY   006400630015
BI00B32H0    TT22083VMW     202207057116-6041                TERMINAL                 CCN000027000000027000FN00000000020220801000027000NNM   20220503141839    4P0P  00000450000000716000001009632H0    TTTJY   006400630015
BI00B32H0    TT22081VMW     202206217116-6042                TERMINAL                 CCN000012000000012000FN00000000020220801000012000NNM   20220503141839    4P0P  00000300000000523800000856132H0    TTTJY   006400630015
BI00B32H0    TT22082VMW     202206287116-6042                TERMINAL                 CCN000009000000009000FN00000000020220801000009000NNM   20220503141839    4P0P  00000300000000523800000856132H0    TTTJY   006400630015
BI00B32H0    TT22081VMW     202206217126-8853-02             TERMINAL                 CCN000150000000150000FN00000000020220801000150000NNM   20220503141839    4P0P  00000750000000562500000847732H0    TTTJY   006400630015
BI00B32H0    TT22082VMW     202206287126-8853-02             TERMINAL                 CCN000082500000082500FN00000000020220801000082500NNM   20220503141839    4P0P  00000750000000562500000847732H0    TTTJY   006400630015
BI00B32H0    TT22083VMW     202207057126-8853-02             TERMINAL                 CCN000067500000067500FN00000000020220801000067500NNM   20220503141839    4P0P  00000750000000562500000847732H0    TTTJY   006400630015
BI00B32H0    TT22081VMW     202206217158-3006-90             RUBBER STOPPER           CCN000100000000100000FN00000000020220801000100000NNM   20220503141839    1C0C  00002000000000330600000386032H0    TTTJY   002700430014
BI00B32H0    TT22082VMW     202206287158-3006-90             RUBBER STOPPER           CCN000040000000040000FN00000000020220801000040000NNM   20220503141839    1C0C  00002000000000330600000386032H0    TTTJY   002700430014
BI00B32H0    TT22083VMW     202207057158-3006-90             RUBBER STOPPER           CCN000040000000040000FN00000000020220801000040000NNM   20220503141839    1C0C  00002000000000330600000386032H0    TTTJY   002700430014
BI00B32H0    TT22081VMW     202206217196-0396-02             TERMINAL                 CCN000090000000090000FN00000000020220801000090000NNM   20220503141839    4P0P  00001500000000949500001112932H0    TTTJY   002800510028
BI00B32H0    TT22082VMW     202206287196-0396-02             TERMINAL                 CCN000030000000030000FN00000000020220801000030000NNM   20220503141839    4P0P  00001500000000949500001112932H0    TTTJY   002800510028
BI00B32H0    TT22083VMW     202207057196-0396-02             TERMINAL                 CCN000015000000015000FN00000000020220801000015000NNM   20220503141839    4P0P  00001500000000949500001112932H0    TTTJY   002800510028
BI00B32H0    TT22081VMW     202206217270-8994                6P MODULE ASSEMBLY       CCN000008400000008400FN00000000020220801000008400NNM   20220503141839    4J0J  00000010000001098600001298632H0    TTTJY   005400370024
BI00B32H0    TT22082VMW     202206287270-8994                6P MODULE ASSEMBLY       CCN000007300000007300FN00000000020220801000007300NNM   20220503141839    4J0J  00000010000001098600001298632H0    TTTJY   005400370024
BI00B32H0    TT22083VMW     202207057270-8994                6P MODULE ASSEMBLY       CCN000007200000007200FN00000000020220801000007200NNM   20220503141839    4J0J  00000010000001098600001298632H0    TTTJY   005400370024
BI00B32H0    TT22081VMW     202206217283-1928-80             CONNECTOR                CCN000016000000016000FN00000000020220801000016000NNM   20220503141839    4N0N  00000200000001180000001358332H0    TTTJY   005500360039
BI00B32H0    TT22082VMW     202206287283-1928-80             CONNECTOR                CCN000006000000006000FN00000000020220801000006000NNM   20220503141839    4N0N  00000200000001180000001358332H0    TTTJY   005500360039
BI00B32H0    TT22083VMW     202207057283-1928-80             CONNECTOR                CCN000006000000006000FN00000000020220801000006000NNM   20220503141839    4N0N  00000200000001180000001358332H0    TTTJY   005500360039
BI00B32H0    TT22081VMW     202206217327-6731-3W             BATTERY FUSE             CCN000014016000014016FN00000000020220801000014016NNM   20220503141839    4N0N  00000006400000697600000843032H0    TTTJY   005400370024
BI00B32H0    TT22082VMW     202206287327-6731-3W             BATTERY FUSE             CCN000004288000004288FN00000000020220801000004288NNM   20220503141839    4N0N  00000006400000697600000843032H0    TTTJY   005400370024
BI00B32H0    TT22083VMW     202207057327-6731-3W             BATTERY FUSE             CCN000004096000004096FN00000000020220801000004096NNM   20220503141839    4N0N  00000006400000697600000843032H0    TTTJY   005400370024
BI00B32H0    TT22081VMW     202206217388-2978-30             HOUSING MALE ASS'Y       CCN000002400000002400FN00000000020220801000002400NNM   20220503141839    1N0N  00000048000000742000001122032H0    TTTJY   005500360039
BI00B32H0    TT22082VMW     202206287388-2978-30             HOUSING MALE ASS'Y       CCN000002400000002400FN00000000020220801000002400NNM   20220503141839    1N0N  00000048000000742000001122032H0    TTTJY   005500360039
BI00B32H0    #TT22081VMW    202206217157-6826-80             REAR HOLDER              CCN000030000000030000FN00000000020220801000030000NNM   20220503141835    2F0F  00001500000001234500001394132H0    TTTJY   005600390040
BI00B32H0    #TT22081VMW    202206217158-3003-90             RUBBER STOPPER           CCN000040000000040000FN00000000020220801000040000NNM   20220503141835    2C0C  00002000000000250000000306032H0    TTTJY   002700430014
BI00B32H0    #TT22082VMW    202206287158-3003-90             RUBBER STOPPER           CCN000040000000040000FN00000000020220801000040000NNM   20220503141835    2C0C  00002000000000250000000306032H0    TTTJY   002700430014
BI00B32H0    #TT22083VMW    202207057158-3003-90             RUBBER STOPPER           CCN000040000000040000FN00000000020220801000040000NNM   20220503141835    2C0C  00002000000000250000000306032H0    TTTJY   002700430014
BI00B32H0    #TT22081VMW    202206217158-3008-80             RUBBER STOPPER           CCN000020000000020000FN00000000020220801000020000NNM   20220503141835    2C0C  00002000000000288000000343032H0    TTTJY   004300270014
BI00B32H0    #TT22081VMW    202206217158-3015-10             RUBBER STOPPER           CCN000020000000020000FN00000000020220801000020000NNM   20220503141835    2C0C  00001000000000419500000474032H0    TTTJY   002700430014
BI00B32H0    #TT22081VMW    202206217158-3017                RUBBER STOPPER           CCN000020000000020000FN00000000020220801000020000NNM   20220503141835    2C0C  00001000000000375500000435032H0    TTTJY   002700430014
BI00B32H0    #TT22081VMW    202206217172-5626-90             RUBBER STOPPER           CCN000020000000020000FN00000000020220801000020000NNM   20220503141835    2H0H  00002000000000076400000127832H0    TTTJY   004300270014
BI00B32H0    #TT22081VMW    202206217172-5627-60             RUBBER STOPPER           CCN000020000000020000FN00000000020220801000020000NNM   20220503141835    2H0H  00002000000000070400000121832H0    TTTJY   004300270014
BI00B32H0    #TT22081VMW    202206217172-5631-60             RUBBER STOPPER           CCN000020000000020000FN00000000020220801000020000NNM   20220503141835    2H0H  00002000000000042000000093132H0    TTTJY   004300270014
BI00B32H0    #TT22081VMW    202206217189-2978-30             HOUSING FEMALE           CCN000006000000006000FN00000000020220801000006000NNM   20220503141835    2F0F  00000150000000966900001096932H0    TTTJY   005400370024
BI00B32H0    #TT22082VMW    202206287189-2978-30             HOUSING FEMALE           CCN000004500000004500FN00000000020220801000004500NNM   20220503141835    2F0F  00000150000000966900001096932H0    TTTJY   005400370024
BI00B32H0    #TT22081VMW    202206217189-3033                HOUSING FEMALE           CCN000003200000003200FN00000000020220801000003200NNM   20220503141835    2F0F  00000160000001211200001431232H0    TTTJY   005500360039
BI00B32H0    #TT22082VMW    202206287189-3033                HOUSING FEMALE           CCN000003200000003200FN00000000020220801000003200NNM   20220503141835    2F0F  00000160000001211200001431232H0    TTTJY   005500360039
BI00B32H0    #TT22083VMW    202207057189-3033                HOUSING FEMALE           CCN000003200000003200FN00000000020220801000003200NNM   20220503141835    2F0F  00000160000001211200001431232H0    TTTJY   005500360039
BI00B32H0    #TT22081VMW    202206217289-3622-30             HOUSING FEMALE ASS'Y     CCN000000864000000864FN00000000020220801000000864NNM   20220503141835    2N0N  00000043200000839400001038432H0    TTTJY   005400370024
BI00B32H0    #TT22082VMW    202206287289-3622-30             HOUSING FEMALE ASS'Y     CCN000000432000000432FN00000000020220801000000432NNM   20220503141835    2N0N  00000043200000839400001038432H0    TTTJY   005400370024
BI00B32H2    #TIJ207B       202206177286-7860                HOUSING MALE ASS'Y       CCN000020800000000000FY00000000020220701000000000NNEQ0820220503095435    2N0N  00000080000000951700001139832H2    HVYHV   005400370024
BI00B32H2    #TIJ207C       202206247286-7860                HOUSING MALE ASS'Y       CCN000004000000000000FY00000000020220701000000000NNEQ0820220503095451    2N0N  00000080000000951700001139832H2    HVYHV   005400370024
BI00B32H2    #TIJ207D       202207017286-7860                HOUSING MALE ASS'Y       CCN000008000000000000FY00000000020220701000000000NNEQ0820220503095515    2N0N  00000080000000951700001139832H2    HVYHV   005400370024
BI00B32H2    #TIJ207E       202207087286-7860                HOUSING MALE ASS'Y       CCN000012800000000000FY00000000020220701000000000NNEQ0820220503095711    2N0N  00000080000000951700001139832H2    HVYHV   005400370024
BI00T32H2    @TIJ206J-I     202206307282-1064                CONNECTOR ASS'Y          CCN000004800000004800FN00000000020220601000004800NNE   20220503143829    3N0N  00000080000000907200001132432H2    HVYHV   005500360039
BI00T32H2    @TIJ207A-I     202207077282-1064                CONNECTOR ASS'Y          CCN000003200000003200FN00000000020220601000003200NNE   20220503143829    3N0N  00000080000000907200001132432H2    HVYHV   005500360039
BI00T32H2    @TIJ206H-I     202206237282-1148                CONNECTOR ASS'Y          CCN000004000000004000FN00000000020220601000004000NNE   20220503143829    3N0N  00000080000001165300001404032H2    HVYHV   005500360039
BI00T32H2    @TIJ206H-I     202206237282-1148-40             CONNECTOR ASS'Y          CCN000004800000004800FN00000000020220601000004800NNE   20220503143829    3N0N  00000080000001171200001402032H2    HVYHV   005500360039
BI00B32H7    #FS2206CDMW    202205257172-5630-40             RUBBER STOPPER           CCN000100000000100000FN00000000020220601000100000NNE   20220503122126    2H0H  00002000000000044000000095132H7    FYFSY   004300270014
BI00B32H7    FS22072DMW     202206087017-1180-02             TERMINAL                 CCN000072000000072000FN00000000020220701000072000NNM   20220503122126    4P0P  00007200000001065600001229032H7    FYFSY   005100280028
BI00B32H7    FS22074DMW     202206227017-1180-02             TERMINAL                 CCN000072000000072000FN00000000020220701000072000NNM   20220503122126    4P0P  00007200000001065600001229032H7    FYFSY   005100280028
BI00B32H7    FS22071DMW     202206017114-4624-02             TERMINAL                 CCN000144000000144000FN00000000020220701000144000NNM   20220503122126    4P0P  00002400000000895200001188832H7    FYFSY   006400630015
BI00B32H7    FS22072DMW     202206087114-4624-02             TERMINAL                 CCN000096000000096000FN00000000020220701000096000NNM   20220503122126    4P0P  00002400000000895200001188832H7    FYFSY   006400630015
BI00B32H7    FS22073DMW     202206157114-4624-02             TERMINAL                 CCN000168000000168000FN00000000020220701000168000NNM   20220503122126    4P0P  00002400000000895200001188832H7    FYFSY   006400630015
BI00B32H7    FS22074DMW     202206227114-4624-02             TERMINAL                 CCN000096000000096000FN00000000020220701000096000NNM   20220503122126    4P0P  00002400000000895200001188832H7    FYFSY   006400630015
BI00B32H7    FS22071DMW     202206017114-4728-08             TERMINAL                 CCN000060000000060000FN00000000020220701000060000NNM   20220503122126    4P0P  00003000000000507000000801232H7    FYFSY   006400630015
BI00B32H7    FS22072DMW     202206087114-4728-08             TERMINAL                 CCN000060000000060000FN00000000020220701000060000NNM   20220503122126    4P0P  00003000000000507000000801232H7    FYFSY   006400630015
BI00B32H7    FS22073DMW     202206157114-4728-08             TERMINAL                 CCN000060000000060000FN00000000020220701000060000NNM   20220503122126    4P0P  00003000000000507000000801232H7    FYFSY   006400630015
BI00B32H7    FS22074DMW     202206227114-4728-08             TERMINAL                 CCN000030000000030000FN00000000020220701000030000NNM   20220503122126    4P0P  00003000000000507000000801232H7    FYFSY   006400630015
BI00B32H7    FS22071DMW     202206017114-5748-02             TERMINAL                 CCN000060000000060000FN00000000020220701000060000NNM   20220503122126    4P0P  00001200000000444000000737632H7    FYFSY   006400630015
BI00B32H7    FS22072DMW     202206087114-5748-02             TERMINAL                 CCN000060000000060000FN00000000020220701000060000NNM   20220503122126    4P0P  00001200000000444000000737632H7    FYFSY   006400630015
BI00B32H7    FS22073DMW     202206157114-5748-02             TERMINAL                 CCN000120000000120000FN00000000020220701000120000NNM   20220503122126    4P0P  00001200000000444000000737632H7    FYFSY   006400630015
BI00B32H7    FS22074DMW     202206227114-5748-02             TERMINAL                 CCN000060000000060000FN00000000020220701000060000NNM   20220503122126    4P0P  00001200000000444000000737632H7    FYFSY   006400630015
BI00B32H7    FS22072DMW     202206087116-1685-02             TERMINAL                 CCN000024000000024000FN00000000020220701000024000NNM   20220503122126    4P0P  00002400000000897600001065232H7    FYFSY   005100280028
BI00B32H7    FS22073DMW     202206157116-1685-02             TERMINAL                 CCN000024000000024000FN00000000020220701000024000NNM   20220503122126    4P0P  00002400000000897600001065232H7    FYFSY   005100280028
BI00B32H7    FS22074DMW     202206227116-1685-02             TERMINAL                 CCN000024000000024000FN00000000020220701000024000NNM   20220503122126    4P0P  00002400000000897600001065232H7    FYFSY   005100280028
BI00B32H7    FS22071DMW     202206017116-1686-02             TERMINAL                 CCN000021000000021000FN00000000020220701000021000NNM   20220503122126    4P0P  00002100000000869400001021632H7    FYFSY   005100280028
BI00B32H7    FS22073DMW     202206157116-1686-02             TERMINAL                 CCN000021000000021000FN00000000020220701000021000NNM   20220503122126    4P0P  00002100000000869400001021632H7    FYFSY   005100280028
BI00B32H7    FS22071DMW     202206017116-3153-08             TERMINAL                 CCN000108000000108000FN00000000020220701000108000NNM   20220503122126    4P0P  00002700000000461700000746932H7    FYFSY   006400630015
BI00B32H7    FS22072DMW     202206087116-3153-08             TERMINAL                 CCN000135000000135000FN00000000020220701000135000NNM   20220503122126    4P0P  00002700000000461700000746932H7    FYFSY   006400630015
BI00B32H7    FS22073DMW     202206157116-3153-08             TERMINAL                 CCN000189000000189000FN00000000020220701000189000NNM   20220503122126    4P0P  00002700000000461700000746932H7    FYFSY   006400630015
BI00B32H7    FS22074DMW     202206227116-3153-08             TERMINAL                 CCN000108000000108000FN00000000020220701000108000NNM   20220503122126    4P0P  00002700000000461700000746932H7    FYFSY   006400630015
BI00B32H7    FS22071DMW     202206017116-4028-08             TERMINAL FEMALE          CCN000048000000048000FN00000000020220701000048000NNM   20220503122126    4P0P  00001600000000652800000981532H7    FYFSY   006400630017
BI00B32H7    FS22072DMW     202206087116-4028-08             TERMINAL FEMALE          CCN000048000000048000FN00000000020220701000048000NNM   20220503122126    4P0P  00001600000000652800000981532H7    FYFSY   006400630017
BI00B32H7    FS22073DMW     202206157116-4028-08             TERMINAL FEMALE          CCN000064000000064000FN00000000020220701000064000NNM   20220503122126    4P0P  00001600000000652800000981532H7    FYFSY   006400630017
BI00B32H7    FS22074DMW     202206227116-4028-08             TERMINAL FEMALE          CCN000064000000064000FN00000000020220701000064000NNM   20220503122126    4P0P  00001600000000652800000981532H7    FYFSY   006400630017
BI00B32H7    FS22071DMW     202206017116-4032                TERMINAL                 CCN000030000000030000FN00000000020220701000030000NNM   20220503122126    4P0P  00000600000000532800000818032H7    FYFSY   006400630015
BI00B32H7    FS22072DMW     202206087116-4032                TERMINAL                 CCN000042000000042000FN00000000020220701000042000NNM   20220503122126    4P0P  00000600000000532800000818032H7    FYFSY   006400630015
BI00B32H7    FS22073DMW     202206157116-4032                TERMINAL                 CCN000036000000036000FN00000000020220701000036000NNM   20220503122126    4P0P  00000600000000532800000818032H7    FYFSY   006400630015
BI00B32H7    FS22074DMW     202206227116-4032                TERMINAL                 CCN000036000000036000FN00000000020220701000036000NNM   20220503122126    4P0P  00000600000000532800000818032H7    FYFSY   006400630015
BI00B32H7    FS22071DMW     202206017116-4037                TERMINAL                 CCN000066000000066000FN00000000020220701000066000NNM   20220503122126    4P0P  00000600000000600000000894232H7    FYFSY   006400630015
BI00B32H7    FS22072DMW     202206087116-4037                TERMINAL                 CCN000066000000066000FN00000000020220701000066000NNM   20220503122126    4P0P  00000600000000600000000894232H7    FYFSY   006400630015
BI00B32H7    FS22073DMW     202206157116-4037                TERMINAL                 CCN000090000000090000FN00000000020220701000090000NNM   20220503122126    4P0P  00000600000000600000000894232H7    FYFSY   006400630015
BI00B32H7    FS22074DMW     202206227116-4037                TERMINAL                 CCN000066000000066000FN00000000020220701000066000NNM   20220503122126    4P0P  00000600000000600000000894232H7    FYFSY   006400630015
BI00B32H7    FS22071DMW     202206017116-5045-02             TERMINAL                 CCN000208000000208000FN00000000020220701000208000NNM   20220503122126    4P0P  00001600000000678400001007132H7    FYFSY   006400630017
BI00B32H7    FS22072DMW     202206087116-5045-02             TERMINAL                 CCN000256000000256000FN00000000020220701000256000NNM   20220503122126    4P0P  00001600000000678400001007132H7    FYFSY   006400630017
BI00B32H7    FS22073DMW     202206157116-5045-02             TERMINAL                 CCN000384000000384000FN00000000020220701000384000NNM   20220503122126    4P0P  00001600000000678400001007132H7    FYFSY   006400630017
BI00B32H7    FS22074DMW     202206227116-5045-02             TERMINAL                 CCN000256000000256000FN00000000020220701000256000NNM   20220503122126    4P0P  00001600000000678400001007132H7    FYFSY   006400630017
BI00B32H7    FS22071DMW     202206017116-5046-02             TERMINAL                 CCN000156000000156000FN00000000020220701000156000NNM   20220503122126    4P0P  00001200000000544800000873532H7    FYFSY   006400630017
BI00B32H7    FS22072DMW     202206087116-5046-02             TERMINAL                 CCN000180000000180000FN00000000020220701000180000NNM   20220503122126    4P0P  00001200000000544800000873532H7    FYFSY   006400630017
BI00B32H7    FS22073DMW     202206157116-5046-02             TERMINAL                 CCN000240000000240000FN00000000020220701000240000NNM   20220503122126    4P0P  00001200000000544800000873532H7    FYFSY   006400630017
BI00B32H7    FS22074DMW     202206227116-5046-02             TERMINAL                 CCN000180000000180000FN00000000020220701000180000NNM   20220503122126    4P0P  00001200000000544800000873532H7    FYFSY   006400630017
BI00B32H7    FS22072DMW     202206087116-6041                TERMINAL                 CCN000045000000045000FN00000000020220701000045000NNM   20220503122126    4P0P  00000450000000716000001009632H7    FYFSY   006400630015
BI00B32H7    FS22073DMW     202206157116-6041                TERMINAL                 CCN000045000000045000FN00000000020220701000045000NNM   20220503122126    4P0P  00000450000000716000001009632H7    FYFSY   006400630015
BI00B32H7    FS22074DMW     202206227116-6041                TERMINAL                 CCN000045000000045000FN00000000020220701000045000NNM   20220503122126    4P0P  00000450000000716000001009632H7    FYFSY   006400630015
BI00B32H7    FS22071DMW     202206017116-6042                TERMINAL                 CCN000042000000042000FN00000000020220701000042000NNM   20220503122126    4P0P  00000300000000523800000856132H7    FYFSY   006400630015
BI00B32H7    FS22072DMW     202206087116-6042                TERMINAL                 CCN000045000000045000FN00000000020220701000045000NNM   20220503122126    4P0P  00000300000000523800000856132H7    FYFSY   006400630015
BI00B32H7    FS22073DMW     202206157116-6042                TERMINAL                 CCN000057000000057000FN00000000020220701000057000NNM   20220503122126    4P0P  00000300000000523800000856132H7    FYFSY   006400630015
BI00B32H7    FS22074DMW     202206227116-6042                TERMINAL                 CCN000042000000042000FN00000000020220701000042000NNM   20220503122126    4P0P  00000300000000523800000856132H7    FYFSY   006400630015
BI00B32H7    FS22072DMW     202206087126-8853-02             TERMINAL                 CCN000120000000120000FN00000000020220701000120000NNM   20220503122126    4P0P  00000750000000562500000847732H7    FYFSY   006400630015
BI00B32H7    FS22073DMW     202206157126-8853-02             TERMINAL                 CCN000150000000150000FN00000000020220701000150000NNM   20220503122126    4P0P  00000750000000562500000847732H7    FYFSY   006400630015
BI00B32H7    FS22074DMW     202206227126-8853-02             TERMINAL                 CCN000142500000142500FN00000000020220701000142500NNM   20220503122126    4P0P  00000750000000562500000847732H7    FYFSY   006400630015
BI00B32H7    FS22071DMW     202206017158-3006-90             RUBBER STOPPER           CCN000220000000220000FN00000000020220701000220000NNM   20220503122126    1C0C  00002000000000330600000386032H7    FYFSY   002700430014
BI00B32H7    FS22072DMW     202206087158-3006-90             RUBBER STOPPER           CCN000220000000220000FN00000000020220701000220000NNM   20220503122126    1C0C  00002000000000330600000386032H7    FYFSY   002700430014
BI00B32H7    FS22073DMW     202206157158-3006-90             RUBBER STOPPER           CCN000220000000220000FN00000000020220701000220000NNM   20220503122126    1C0C  00002000000000330600000386032H7    FYFSY   002700430014
BI00B32H7    FS22074DMW     202206227158-3006-90             RUBBER STOPPER           CCN000240000000240000FN00000000020220701000240000NNM   20220503122126    1C0C  00002000000000330600000386032H7    FYFSY   002700430014
BI00B32H7    FS22071DMW     202206017158-3009-60             RUBBER STOPPER           CCN000200000000200000FN00000000020220701000200000NNM   20220503122126    1C0C  00002000000000338000000386232H7    FYFSY   002700430014
BI00B32H7    FS22072DMW     202206087158-3009-60             RUBBER STOPPER           CCN000360000000360000FN00000000020220701000360000NNM   20220503122126    1C0C  00002000000000338000000386232H7    FYFSY   002700430014
BI00B32H7    FS22073DMW     202206157158-3009-60             RUBBER STOPPER           CCN000480000000480000FN00000000020220701000480000NNM   20220503122126    1C0C  00002000000000338000000386232H7    FYFSY   002700430014
BI00B32H7    FS22074DMW     202206227158-3009-60             RUBBER STOPPER           CCN000360000000360000FN00000000020220701000360000NNM   20220503122126    1C0C  00002000000000338000000386232H7    FYFSY   002700430014
BI00B32H7    FS22072DMW     202206087158-3022-80             RUBBER STOPPER           CCN000010000000010000FN00000000020220701000010000NNM   20220503122126    1C0C  00000500000000467500000524032H7    FYFSY   002700430014
BI00B32H7    FS22071DMW     202206017158-3070-80             RUBBER STOPPER           CCN000040000000040000FN00000000020220701000040000NNM   20220503122126    1C0C  00004000000000276000000333332H7    FYFSY   002700430014
BI00B32H7    FS22072DMW     202206087158-3070-80             RUBBER STOPPER           CCN000040000000040000FN00000000020220701000040000NNM   20220503122126    1C0C  00004000000000276000000333332H7    FYFSY   002700430014
BI00B32H7    FS22073DMW     202206157158-3070-80             RUBBER STOPPER           CCN000080000000080000FN00000000020220701000080000NNM   20220503122126    1C0C  00004000000000276000000333332H7    FYFSY   002700430014
BI00B32H7    FS22074DMW     202206227158-3070-80             RUBBER STOPPER           CCN000080000000080000FN00000000020220701000080000NNM   20220503122126    1C0C  00004000000000276000000333332H7    FYFSY   002700430014
BI00B32H7    FS22071DMW     202206017173-3291-40             LIF LEVER                CCN000002400000002400FN00000000020220701000002400NNM   20220503122126    1F0F  00000240000000867800001067832H7    FYFSY   005500360039
BI00B32H7    FS22072DMW     202206087173-3291-40             LIF LEVER                CCN000002400000002400FN00000000020220701000002400NNM   20220503122126    1F0F  00000240000000867800001067832H7    FYFSY   005500360039
BI00B32H7    FS22073DMW     202206157173-3291-40             LIF LEVER                CCN000002400000002400FN00000000020220701000002400NNM   20220503122126    1F0F  00000240000000867800001067832H7    FYFSY   005500360039
BI00B32H7    FS22074DMW     202206227173-3291-40             LIF LEVER                CCN000002400000002400FN00000000020220701000002400NNM   20220503122126    1F0F  00000240000000867800001067832H7    FYFSY   005500360039
BI00B32H7    FS22071DMW     202206017195-0783-08             TERMINAL                 CCN000030000000030000FN00000000020220701000030000NNM   20220503122126    4P0P  00003000000000507000000801232H7    FYFSY   006400630015
BI00B32H7    FS22073DMW     202206157195-0783-08             TERMINAL                 CCN000030000000030000FN00000000020220701000030000NNM   20220503122126    4P0P  00003000000000507000000801232H7    FYFSY   006400630015
BI00B32H7    FS22071DMW     202206017196-0396-02             TERMINAL                 CCN000030000000030000FN00000000020220701000030000NNM   20220503122126    4P0P  00001500000000949500001112932H7    FYFSY   002800510028
BI00B32H7    FS22072DMW     202206087196-0396-02             TERMINAL                 CCN000030000000030000FN00000000020220701000030000NNM   20220503122126    4P0P  00001500000000949500001112932H7    FYFSY   002800510028
BI00B32H7    FS22073DMW     202206157196-0396-02             TERMINAL                 CCN000030000000030000FN00000000020220701000030000NNM   20220503122126    4P0P  00001500000000949500001112932H7    FYFSY   002800510028
BI00B32H7    FS22071DMW     202206017196-0510-02             TERMINAL                 CCN000072000000072000FN00000000020220701000072000NNM   20220503122126    4P0P  00002400000000871200001034632H7    FYFSY   002800510028
BI00B32H7    FS22072DMW     202206087196-0510-02             TERMINAL                 CCN000072000000072000FN00000000020220701000072000NNM   20220503122126    4P0P  00002400000000871200001034632H7    FYFSY   002800510028
BI00B32H7    FS22073DMW     202206157196-0510-02             TERMINAL                 CCN000048000000048000FN00000000020220701000048000NNM   20220503122126    4P0P  00002400000000871200001034632H7    FYFSY   002800510028
BI00B32H7    FS22074DMW     202206227196-0510-02             TERMINAL                 CCN000024000000024000FN00000000020220701000024000NNM   20220503122126    4P0P  00002400000000871200001034632H7    FYFSY   002800510028
BI00B32H7    FS22071DMW     202206017196-0511-02             TERMINAL                 CCN000024000000024000FN00000000020220701000024000NNM   20220503122126    4P0P  00002400000000916800001080232H7    FYFSY   002800510028
BI00B32H7    FS22072DMW     202206087196-0805-02             TERMINAL FEMALE          CCN000022500000022500FN00000000020220701000022500NNM   20220503122126    4P0P  00002250000000558000000843232H7    FYFSY   006400630015
BI00B32H7    FS22074DMW     202206227196-0805-02             TERMINAL FEMALE          CCN000022500000022500FN00000000020220701000022500NNM   20220503122126    4P0P  00002250000000558000000843232H7    FYFSY   006400630015
BI00B32H7    FS22071DMW     202206017196-1064-02             TERMINAL FEMALE          CCN000006000000006000FN00000000020220701000006000NNM   20220503122126    4P0P  00000600000000570000000855232H7    FYFSY   006400630015
BI00B32H7    FS22071DMW     202206017196-1325-02             TERMINAL FEMALE          CCN000240000000240000FN00000000020220701000240000NNM   20220503122126    4P0P  00006000000000450000000778732H7    FYFSY   006400630017
BI00B32H7    FS22072DMW     202206087196-1325-02             TERMINAL FEMALE          CCN000120000000120000FN00000000020220701000120000NNM   20220503122126    4P0P  00006000000000450000000778732H7    FYFSY   006400630017
BI00B32H7    FS22073DMW     202206157196-1325-02             TERMINAL FEMALE          CCN000180000000180000FN00000000020220701000180000NNM   20220503122126    4P0P  00006000000000450000000778732H7    FYFSY   006400630017
BI00B32H7    FS22074DMW     202206227196-1325-02             TERMINAL FEMALE          CCN000120000000120000FN00000000020220701000120000NNM   20220503122126    4P0P  00006000000000450000000778732H7    FYFSY   006400630017
BI00B32H7    FS22071DMW     202206017196-1326-02             TERMINAL FEMALE          CCN000300000000300000FN00000000020220701000300000NNM   20220503122126    4P0P  00006000000000456000000784732H7    FYFSY   006400630017
BI00B32H7    FS22072DMW     202206087196-1326-02             TERMINAL FEMALE          CCN000240000000240000FN00000000020220701000240000NNM   20220503122126    4P0P  00006000000000456000000784732H7    FYFSY   006400630017
BI00B32H7    FS22073DMW     202206157196-1326-02             TERMINAL FEMALE          CCN000240000000240000FN00000000020220701000240000NNM   20220503122126    4P0P  00006000000000456000000784732H7    FYFSY   006400630017
BI00B32H7    FS22074DMW     202206227196-1326-02             TERMINAL FEMALE          CCN000240000000240000FN00000000020220701000240000NNM   20220503122126    4P0P  00006000000000456000000784732H7    FYFSY   006400630017
BI00B32H7    FS22071DMW     202206017196-1327-02             TERMINAL FEMALE          CCN000052000000052000FN00000000020220701000052000NNM   20220503122126    4P0P  00005200000000336000000739532H7    FYFSY   006400630017
BI00B32H7    FS22072DMW     202206087196-1947-02             TERMINAL FEMALE          CCN000009000000009000FN00000000020220701000009000NNM   20220503122126    4POP  00000900000000407700000692932H7    FYFSY   006400630015
BI00B32H7    FS22074DMW     202206227196-1947-02             TERMINAL FEMALE          CCN000009000000009000FN00000000020220701000009000NNM   20220503122126    4POP  00000900000000407700000692932H7    FYFSY   006400630015
BI00B32H7    FS22072DMW     202206087270-8994                6P MODULE ASSEMBLY       CCN000003200000003200FN00000000020220701000003200NNM   20220503122126    4J0J  00000010000001098600001298632H7    FYFSY   005400370024
BI00B32H7    FS22073DMW     202206157270-8994                6P MODULE ASSEMBLY       CCN000009600000009600FN00000000020220701000009600NNM   20220503122126    4J0J  00000010000001098600001298632H7    FYFSY   005400370024
BI00B32H7    FS22074DMW     202206227270-8994                6P MODULE ASSEMBLY       CCN000004700000004700FN00000000020220701000004700NNM   20220503122126    4J0J  00000010000001098600001298632H7    FYFSY   005400370024
BI00B32H7    FS22071DMW     202206017283-1156                CONNECTOR                CCN000003200000003200FN00000000020220701000003200NNM   20220503122126    4N0N  00000080000000877600001078032H7    FYFSY   005600390040
BI00B32H7    FS22072DMW     202206087283-1156                CONNECTOR                CCN000001600000001600FN00000000020220701000001600NNM   20220503122126    4N0N  00000080000000877600001078032H7    FYFSY   005600390040
BI00B32H7    FS22073DMW     202206157283-1156                CONNECTOR                CCN000001600000001600FN00000000020220701000001600NNM   20220503122126    4N0N  00000080000000877600001078032H7    FYFSY   005600390040
BI00B32H7    FS22074DMW     202206227283-1156                CONNECTOR                CCN000001600000001600FN00000000020220701000001600NNM   20220503122126    4N0N  00000080000000877600001078032H7    FYFSY   005600390040
BI00B32H7    FS22071DMW     202206017283-1289-40             CONNECTOR HOUSING        CCN000003600000003600FN00000000020220701000003600NNM   20220503122126    1N0N  00000060000000679800000824832H7    FYFSY   005400370024
BI00B32H7    FS22072DMW     202206087283-1289-40             CONNECTOR HOUSING        CCN000004200000004200FN00000000020220701000004200NNM   20220503122126    1N0N  00000060000000679800000824832H7    FYFSY   005400370024
BI00B32H7    FS22073DMW     202206157283-1289-40             CONNECTOR HOUSING        CCN000006600000006600FN00000000020220701000006600NNM   20220503122126    1N0N  00000060000000679800000824832H7    FYFSY   005400370024
BI00B32H7    FS22074DMW     202206227283-1289-40             CONNECTOR HOUSING        CCN000003600000003600FN00000000020220701000003600NNM   20220503122126    1N0N  00000060000000679800000824832H7    FYFSY   005400370024
BI00B32H7    FS22071DMW     202206017283-4855                CONNECTOR HOUSING        CCN000012000000012000FN00000000020220701000012000NNM   20220503122126    4N0N  00000240000001188400001400032H7    FYFSY   005500360039
BI00B32H7    FS22072DMW     202206087283-4855                CONNECTOR HOUSING        CCN000014400000014400FN00000000020220701000014400NNM   20220503122126    4N0N  00000240000001188400001400032H7    FYFSY   005500360039
BI00B32H7    FS22073DMW     202206157283-4855                CONNECTOR HOUSING        CCN000016800000016800FN00000000020220701000016800NNM   20220503122126    4N0N  00000240000001188400001400032H7    FYFSY   005500360039
BI00B32H7    FS22074DMW     202206227283-4855                CONNECTOR HOUSING        CCN000014400000014400FN00000000020220701000014400NNM   20220503122126    4N0N  00000240000001188400001400032H7    FYFSY   005500360039
BI00B32H7    FS22071DMW     202206017286-3885                CONNECTOR MALE ASS'Y     CCN000003000000003600FN00000000020220701000003600NNM   20220503122126    1N0N  00000120000000910600001130632H7    FYFSY   005500360039
BI00B32H7    FS22072DMW     202206087286-3885                CONNECTOR MALE ASS'Y     CCN000006500000007200FN00000000020220701000007200NNM   20220503122126    1N0N  00000120000000910600001130632H7    FYFSY   005500360039
BI00B32H7    FS22073DMW     202206157286-3885                CONNECTOR MALE ASS'Y     CCN000006000000006000FN00000000020220701000006000NNM   20220503122126    1N0N  00000120000000910600001130632H7    FYFSY   005500360039
BI00B32H7    FS22074DMW     202206227286-3885                CONNECTOR MALE ASS'Y     CCN000005000000006000FN00000000020220701000006000NNM   20220503122126    1N0N  00000120000000910600001130632H7    FYFSY   005500360039
BI00B32H7    FS22074DMW     202206227286-3885-40             CONNECTOR MALE ASS'Y     CCN000001000000001200FN00000000020220701000001200NNM   20220503122126    1N0N  00000120000000910600001130632H7    FYFSY   005500360039
BI00B32H7    FS22071DMW     202206017287-3885                HYBRID FEMALE ASS'Y      CCN000002400000002400FN00000000020220701000002400NNM   20220503122126    1N0N  00000240000001029600001249632H7    FYFSY   005500360039
BI00B32H7    FS22073DMW     202206157287-3885                HYBRID FEMALE ASS'Y      CCN000002400000002400FN00000000020220701000002400NNM   20220503122126    1N0N  00000240000001029600001249632H7    FYFSY   005500360039
BI00B32H7    FS22074DMW     202206227287-3885                HYBRID FEMALE ASS'Y      CCN000002400000002400FN00000000020220701000002400NNM   20220503122126    1N0N  00000240000001029600001249632H7    FYFSY   005500360039
BI00B32H7    FS22071DMW     202206017287-9323-40             UNSEALED HOUSING SUB     CCN000002400000002400FN00000000020220701000002400NNM   20220503122126    1N0N  00000240000000537600000690032H7    FYFSY   005600390023
BI00B32H7    FS22073DMW     202206157287-9323-40             UNSEALED HOUSING SUB     CCN000002400000002400FN00000000020220701000002400NNM   20220503122126    1N0N  00000240000000537600000690032H7    FYFSY   005600390023
BI00B32H7    FS22074DMW     202206227287-9323-40             UNSEALED HOUSING SUB     CCN000002400000002400FN00000000020220701000002400NNM   20220503122126    1N0N  00000240000000537600000690032H7    FYFSY   005600390023
BI00B32H7    FS22071DMW     202206017288-6547                CONNECTOR MALE ASS'Y     CCN000015000000015000FN00000000020220701000015000NNM   20220503122126    4N0N  00000075000001205300001340332H7    FYFSY   005400370024
BI00B32H7    FS22072DMW     202206087288-6547                CONNECTOR MALE ASS'Y     CCN000015000000015000FN00000000020220701000015000NNM   20220503122126    4N0N  00000075000001205300001340332H7    FYFSY   005400370024
BI00B32H7    FS22073DMW     202206157288-6547                CONNECTOR MALE ASS'Y     CCN000007500000007500FN00000000020220701000007500NNM   20220503122126    4N0N  00000075000001205300001340332H7    FYFSY   005400370024
BI00B32H7    FS22071DMW     202206017288-6598-70             HOUSING MALE ASS'Y       CCN000002880000002880FN00000000020220701000002880NNM   20220503122126    4N0N  00000144000001074200001429232H7    FYFSY   005500360039
BI00B32H7    FS22072DMW     202206087288-6598-70             HOUSING MALE ASS'Y       CCN000004320000004320FN00000000020220701000004320NNM   20220503122126    4N0N  00000144000001074200001429232H7    FYFSY   005500360039
BI00B32H7    FS22073DMW     202206157288-6598-70             HOUSING MALE ASS'Y       CCN000004320000004320FN00000000020220701000004320NNM   20220503122126    4N0N  00000144000001074200001429232H7    FYFSY   005500360039
BI00B32H7    FS22074DMW     202206227288-6598-70             HOUSING MALE ASS'Y       CCN000002880000002880FN00000000020220701000002880NNM   20220503122126    4N0N  00000144000001074200001429232H7    FYFSY   005500360039
BI00B32H7    FS22071DMW     202206017289-6518-30             HOUSING FEMALE ASS'Y     CCN000004800000004800FN00000000020220701000004800NNM   20220503122126    1N0N  00000120000000829200001049232H7    FYFSY   005500360039
BI00B32H7    FS22072DMW     202206087289-6518-30             HOUSING FEMALE ASS'Y     CCN000002400000002400FN00000000020220701000002400NNM   20220503122126    1N0N  00000120000000829200001049232H7    FYFSY   005500360039
BI00B32H7    FS22073DMW     202206157289-6518-30             HOUSING FEMALE ASS'Y     CCN000003600000003600FN00000000020220701000003600NNM   20220503122126    1N0N  00000120000000829200001049232H7    FYFSY   005500360039
BI00B32H7    FS22074DMW     202206227289-6518-30             HOUSING FEMALE ASS'Y     CCN000002400000002400FN00000000020220701000002400NNM   20220503122126    1N0N  00000120000000829200001049232H7    FYFSY   005500360039
BI00B32H7    FS22071DMW     202206017289-6547                HOUSING FEMALE ASS'Y     CCN000007200000007200FN00000000020220701000007200NNM   20220503122126    1N0N  00000240000001152000001362032H7    FYFSY   005500360039
BI00B32H7    FS22072DMW     202206087289-6547                HOUSING FEMALE ASS'Y     CCN000007200000007200FN00000000020220701000007200NNM   20220503122126    1N0N  00000240000001152000001362032H7    FYFSY   005500360039
BI00B32H7    FS22073DMW     202206157289-6547                HOUSING FEMALE ASS'Y     CCN000009600000009600FN00000000020220701000009600NNM   20220503122126    1N0N  00000240000001152000001362032H7    FYFSY   005500360039
BI00B32H7    FS22074DMW     202206227289-6547                HOUSING FEMALE ASS'Y     CCN000007200000007200FN00000000020220701000007200NNM   20220503122126    1N0N  00000240000001152000001362032H7    FYFSY   005500360039
BI00B32H7    FS22072DMW     202206087289-6597-70             HOUSING FEMALE ASS'Y     CCN000002160000002160FN00000000020220701000002160NNM   20220503122126    4N0N  00000216000001289500001539532H7    FYFSY   005500360039
BI00B32H7    FS22073DMW     202206157289-6597-70             HOUSING FEMALE ASS'Y     CCN000006480000006480FN00000000020220701000006480NNM   20220503122126    4N0N  00000216000001289500001539532H7    FYFSY   005500360039
BI00B32H7    FS22074DMW     202206227289-6597-70             HOUSING FEMALE ASS'Y     CCN000004320000004320FN00000000020220701000004320NNM   20220503122126    4N0N  00000216000001289500001539532H7    FYFSY   005500360039
BI00B32H7    FS22071DMW     202206017295-0785-02             TERMINAL ALUMINIUM       CCN000025500000025500FN00000000020220701000025500NNM   20220503122126    4P0P  00002550000000510000000803632H7    FYFSY   006400630015
BI00B32H7    FS22072DMW     202206087295-0785-02             TERMINAL ALUMINIUM       CCN000051000000051000FN00000000020220701000051000NNM   20220503122126    4P0P  00002550000000510000000803632H7    FYFSY   006400630015
BI00B32H7    FS22073DMW     202206157295-0785-02             TERMINAL ALUMINIUM       CCN000051000000051000FN00000000020220701000051000NNM   20220503122126    4P0P  00002550000000510000000803632H7    FYFSY   006400630015
BI00B32H7    FS22074DMW     202206227295-0785-02             TERMINAL ALUMINIUM       CCN000025500000025500FN00000000020220701000025500NNM   20220503122126    4P0P  00002550000000510000000803632H7    FYFSY   006400630015
BI00B32H7    FS22071DMW     202206017296-0784-02             TERMINAL ALUMINIUM       CCN000096000000096000FN00000000020220701000096000NNM   20220503122126    4P0P  00002400000000480000000765232H7    FYFSY   006400630015
BI00B32H7    FS22072DMW     202206087296-0784-02             TERMINAL ALUMINIUM       CCN000072000000072000FN00000000020220701000072000NNM   20220503122126    4P0P  00002400000000480000000765232H7    FYFSY   006400630015
BI00B32H7    FS22073DMW     202206157296-0784-02             TERMINAL ALUMINIUM       CCN000144000000144000FN00000000020220701000144000NNM   20220503122126    4P0P  00002400000000480000000765232H7    FYFSY   006400630015
BI00B32H7    FS22074DMW     202206227296-0784-02             TERMINAL ALUMINIUM       CCN000096000000096000FN00000000020220701000096000NNM   20220503122126    4P0P  00002400000000480000000765232H7    FYFSY   006400630015
BI00B32H7    FS22071DMW     202206017296-1018-02             TERMINAL ALUMINIUM       CCN000048000000048000FN00000000020220701000048000NNM   20220503122126    4P0P  00001200000000595200000880432H7    FYFSY   006400630015
BI00B32H7    FS22072DMW     202206087296-1018-02             TERMINAL ALUMINIUM       CCN000060000000060000FN00000000020220701000060000NNM   20220503122126    4P0P  00001200000000595200000880432H7    FYFSY   006400630015
BI00B32H7    FS22073DMW     202206157296-1018-02             TERMINAL ALUMINIUM       CCN000072000000072000FN00000000020220701000072000NNM   20220503122126    4P0P  00001200000000595200000880432H7    FYFSY   006400630015
BI00B32H7    FS22074DMW     202206227296-1018-02             TERMINAL ALUMINIUM       CCN000036000000036000FN00000000020220701000036000NNM   20220503122126    4P0P  00001200000000595200000880432H7    FYFSY   006400630015
BI00B32H7    FS22071DMW     202206017296-1024-02             TERMINAL ALUMINIUM       CCN000018000000018000FN00000000020220701000018000NNM   20220503122126    4P0P  00001800000000698400000983632H7    FYFSY   006400630015
BI00B32H7    FS22072DMW     202206087296-1024-02             TERMINAL ALUMINIUM       CCN000036000000036000FN00000000020220701000036000NNM   20220503122126    4P0P  00001800000000698400000983632H7    FYFSY   006400630015
BI00B32H7    FS22073DMW     202206157296-1024-02             TERMINAL ALUMINIUM       CCN000036000000036000FN00000000020220701000036000NNM   20220503122126    4P0P  00001800000000698400000983632H7    FYFSY   006400630015
BI00B32H7    FS22074DMW     202206227296-1024-02             TERMINAL ALUMINIUM       CCN000018000000018000FN00000000020220701000018000NNM   20220503122126    4P0P  00001800000000698400000983632H7    FYFSY   006400630015
BI00B32H7    FS22073DMW     202206157297-3482                JOINT CONNECTOR          CCN000003200000003200FN00000000020220701000003200NNM   20220503122126    4N0N  00000080000000621000000730532H7    FYFSY   005400370024
BI00B32H7    FS22074DMW     202206227297-3482                JOINT CONNECTOR          CCN000003200000003200FN00000000020220701000003200NNM   20220503122126    4N0N  00000080000000621000000730532H7    FYFSY   005400370024
BI00B32H7    FS22072DMW     202206087298-3484                HOUSING FEMALE ASS'Y     CCN000002700000002700FN00000000020220701000002700NNM   20220503122126    4N0N  00000270000000742500001028732H7    FYFSY   005400370024
BI00B32H7    FS22074DMW     202206227298-3484                HOUSING FEMALE ASS'Y     CCN000002700000002700FN00000000020220701000002700NNM   20220503122126    4N0N  00000270000000742500001028732H7    FYFSY   005400370024
BI00B32H7    FS22072DMW     202206087327-6627-3W             BATTERY FUSE             CCN000000864000000864FN00000000020220701000000864NNM   20220503122126    4N0N  00000009600001332300001534632H7    FYFSY   005500360039
BI00B32H7    FS22073DMW     202206157327-6627-3W             BATTERY FUSE             CCN000002208000002208FN00000000020220701000002208NNM   20220503122126    4N0N  00000009600001332300001534632H7    FYFSY   005500360039
BI00B32H7    FS22074DMW     202206227327-6627-3W             BATTERY FUSE             CCN000001248000001248FN00000000020220701000001248NNM   20220503122126    4N0N  00000009600001332300001534632H7    FYFSY   005500360039
BI00B32H7    FS22072DMW     202206087327-6731-3W             BATTERY FUSE             CCN000002304000002304FN00000000020220701000002304NNM   20220503122126    4N0N  00000006400000697600000843032H7    FYFSY   005400370024
BI00B32H7    FS22073DMW     202206157327-6731-3W             BATTERY FUSE             CCN000009216000009216FN00000000020220701000009216NNM   20220503122126    4N0N  00000006400000697600000843032H7    FYFSY   005400370024
BI00B32H7    FS22074DMW     202206227327-6731-3W             BATTERY FUSE             CCN000005312000005312FN00000000020220701000005312NNM   20220503122126    4N0N  00000006400000697600000843032H7    FYFSY   005400370024
BI00B32H7    FS22074DMW     202206227327-6949-30             MULTI FUSE               CCN000000288000000288FN00000000020220701000000288NNM   20220503122126    4N00  00000028800000886700001052632H7    FYFSY   005400370024
BI00B32H7    FS22072DMW     202206087327-6950-30             MULTI FUSE               CCN000000576000000576FN00000000020220701000000576NNM   20220503122126    4N00  00000028800000888700001054632H7    FYFSY   005400370024
BI00B32H7    FS22073DMW     202206157327-6950-30             MULTI FUSE               CCN000000576000000576FN00000000020220701000000576NNM   20220503122126    4N00  00000028800000888700001054632H7    FYFSY   005400370024
BI00B32H7    FS22074DMW     202206227327-6950-30             MULTI FUSE               CCN000000864000000864FN00000000020220701000000864NNM   20220503122126    4N00  00000028800000888700001054632H7    FYFSY   005400370024
BI00B32H7    FS22072DMW     202206087327-6952-30             MULTI FUSE               CCN000000560000000560FN00000000020220701000000560NNM   20220503122126    4N0N  00000056000000848500001031532H7    FYFSY   005400370024
BI00B32H7    FS22073DMW     202206157327-6952-30             MULTI FUSE               CCN000001120000001120FN00000000020220701000001120NNM   20220503122126    4N0N  00000056000000848500001031532H7    FYFSY   005400370024
