BI00B32AG    @XG2206ALMW    20220513181E48022ZZ              CAVSAS-S 0.5X2 GY        CCN000000600000000600FN00000000020220601000000600NNE   20220411111548    1W    00000030000002561000000000032AG    XGXGY   000000000000XT424001
BI00B32AG    XG22071CMW     2022060218000004590              AV 8 L                   CCN000000600000000600FN00000000020220701000000600NNM   20220411111552    1W    00000010000010466200000000032AG    XGXGY   000000000000XV325001
BI00B32AG    XG22073CMW     2022061718000004590              AV 8 L                   CCN000000300000000300FN00000000020220701000000300NNM   20220411111552    1W    00000010000010466200000000032AG    XGXGY   000000000000XV126001
BI00B32AG    XG22074CMW     2022062418000004590              AV 8 L                   CCN000000600000000600FN00000000020220701000000600NNM   20220411111552    1W    00000010000010466200000000032AG    XGXGY   000000000000XV226001
BI00B32AG    @XG22071LMW    20220602181E48031ZZ              CAVSAS-S 0.3X2 GY        CCN000008750000008750FN00000000020220701000008750NNM   20220411111551    1W    00000035000002008700000000032AG    XGXGY   000000000000XY325002
BI00B32AG    @XG22072LMW    20220610181E48031ZZ              CAVSAS-S 0.3X2 GY        CCN000004200000004200FN00000000020220701000004200NNM   20220411111551    1W    00000035000002008700000000032AG    XGXGY   000000000000XY425002
BI00B32AG    @XG22073LMW    20220617181E48031ZZ              CAVSAS-S 0.3X2 GY        CCN000003850000003850FN00000000020220701000003850NNM   20220411111551    1W    00000035000002008700000000032AG    XGXGY   000000000000XY126002
BI00B32AG    @XG22074LMW    20220624181E48031ZZ              CAVSAS-S 0.3X2 GY        CCN000004900000004900FN00000000020220701000004900NNM   20220411111551    1W    00000035000002008700000000032AG    XGXGY   000000000000XY226002
BI00B32AG    @XG22071LMW    20220602181E48022ZZ              CAVSAS-S 0.5X2 GY        CCN000000300000000300FN00000000020220701000000300NNM   20220411111551    1W    00000030000002561000000000032AG    XGXGY   000000000000XY325001
BI00B32AG    @XG22072LMW    20220610181E48022ZZ              CAVSAS-S 0.5X2 GY        CCN000000300000000300FN00000000020220701000000300NNM   20220411111551    1W    00000030000002561000000000032AG    XGXGY   000000000000XY425001
BI00B32AG    @XG22073LMW    20220617181E48022ZZ              CAVSAS-S 0.5X2 GY        CCN000000300000000300FN00000000020220701000000300NNM   20220411111551    1W    00000030000002561000000000032AG    XGXGY   000000000000XY126001
BI00B32AG    @XG22074LMW    20220624181E48022ZZ              CAVSAS-S 0.5X2 GY        CCN000000300000000300FN00000000020220701000000300NNM   20220411111551    1W    00000030000002561000000000032AG    XGXGY   000000000000XY226001
BI00B32B6    W72025         202205201801W003930              IVSSH 0.5F B             CCN000021600000021600FN00000000020220801000021600NNM   20220411132433B6  1W    00000180000000625000000000032B6    AXARNE-M000000000000AW125008
BI00B32B6    W72025         202205201801W003940              IVSSH 0.5F W             CCN000014400000014400FN00000000020220801000014400NNM   20220411132433B6  1W    00000180000000625000000000032B6    AXARNE-M000000000000AW125019
BI00B32B6    W72025         202205201801W003941              IVSSH 0.5F GY            CCN000014400000014400FN00000000020220801000014400NNM   20220411132433B6  1W    00000180000000625000000000032B6    AXARNE-M000000000000AW125012
BI00B32B6    W72025         202205201801W003950              IVSSH 0.5F R             CCN000012600000012600FN00000000020220801000012600NNM   20220411132433B6  1W    00000180000000625000000000032B6    AXARNE-M000000000000AW125016
BI00B32B6    W72025         202205201801W003952              IVSSH 0.5F P             CCN000012600000012600FN00000000020220801000012600NNM   20220411132433B6  1W    00000180000000625000000000032B6    AXARNE-M000000000000AW125015
BI00B32B6    W72025         202205201801W00395U              IVSSH 0.5F BE            CCN000019800000019800FN00000000020220801000019800NNM   20220411132433B6  1W    00000180000000625000000000032B6    AXARNE-M000000000000AW125009
BI00B32B6    W72025         202205201801W003960              IVSSH 0.5F G             CCN000014400000014400FN00000000020220801000014400NNM   20220411132433B6  1W    00000180000000625000000000032B6    AXARNE-M000000000000AW125011
BI00B32B6    W72025         202205201801W003961              IVSSH 0.5F LG            CCN000012600000012600FN00000000020220801000012600NNM   20220411132433B6  1W    00000180000000625000000000032B6    AXARNE-M000000000000AW125014
BI00B32B6    W72025         202205201801W003970              IVSSH 0.5F Y             CCN000005400000005400FN00000000020220801000005400NNM   20220411132433B6  1W    00000180000000625000000000032B6    AXARNE-M000000000000AW125020
BI00B32B6    W72025         202205201801W003980              IVSSH 0.5F BR            CCN000010800000010800FN00000000020220801000010800NNM   20220411132433B6  1W    00000180000000625000000000032B6    AXARNE-M000000000000AW125010
BI00B32B6    W72025         202205201801W003990              IVSSH 0.5F L             CCN000018000000018000FN00000000020220801000018000NNM   20220411132433B6  1W    00000180000000625000000000032B6    AXARNE-M000000000000AW125013
BI00B32B6    W72025         202205201801W003991              IVSSH 0.5F SB            CCN000014400000014400FN00000000020220801000014400NNM   20220411132433B6  1W    00000180000000625000000000032B6    AXARNE-M000000000000AW125017
BI00B32B6    W72025         202205201801W003992              IVSSH 0.5F V             CCN000009000000009000FN00000000020220801000009000NNM   20220411132433B6  1W    00000180000000625000000000032B6    AXARNE-M000000000000AW125018
BI00B32B6    W72025         202205201801W004030              IVSSH 0.75F B            CCN000002600000002600FN00000000020220801000002600NNM   20220411132433B6  1W    00000130000000882000000000032B6    AXARNE-M000000000000AW125021
BI00B32B6    W72025         202205201801W004040              IVSSH 0.75F W            CCN000001300000001300FN00000000020220801000001300NNM   20220411132433B6  1W    00000130000000882000000000032B6    AXARNE-M000000000000AW125027
BI00B32B6    W72025         202205201801W004052              IVSSH 0.75F P            CCN000001300000001300FN00000000020220801000001300NNM   20220411132433B6  1W    00000130000000882000000000032B6    AXARNE-M000000000000AW125026
BI00B32B6    W72025         202205201801W00405U              IVSSH 0.75F BE           CCN000001300000001300FN00000000020220801000001300NNM   20220411132433B6  1W    00000130000000882000000000032B6    AXARNE-M000000000000AW125022
BI00B32B6    W72025         202205201801W004060              IVSSH 0.75F G            CCN000002600000002600FN00000000020220801000002600NNM   20220411132433B6  1W    00000130000000882000000000032B6    AXARNE-M000000000000AW125023
BI00B32B6    W72025         202205201801W004061              IVSSH 0.75F LG           CCN000001300000001300FN00000000020220801000001300NNM   20220411132433B6  1W    00000130000000882000000000032B6    AXARNE-M000000000000AW125025
BI00B32B6    W72025         202205201801W004090              IVSSH 0.75F L            CCN000002600000002600FN00000000020220801000002600NNM   20220411132433B6  1W    00000130000000882000000000032B6    AXARNE-M000000000000AW125024
BI00B32D1    DFTW2227       2022051218000004534              AV 8 B/W                 CCN000004400000004400FN00000000020220701000004400NNM   20220411153354    1W    00000010000010466200000000032D1    TOYOT-K 000000000000KO424052
BI00B32D1    DFTW2227       2022051218000004535              AV 8 B/R                 CCN000002100000002100FN00000000020220701000002100NNM   20220411153354    1W    00000010000010466200000000032D1    TOYOT-K 000000000000KO424051
BI00B32D1    DFTW2227       2022051218000004540              AV 8 W                   CCN000012300000012300FN00000000020220701000012300NNM   20220411153354    1W    00000010000010466200000000032D1    TOYOT-K 000000000000KO424054
BI00B32D1    DFTW2227       2022051218000004543              AV 8 W/B                 CCN000007600000007600FN00000000020220701000007600NNM   20220411153354    1W    00000010000010466200000000032D1    TOYOT-K 000000000000KO424055
BI00B32D1    DFTW2227       2022051218000004550              AV 8 R                   CCN000001400000001400FN00000000020220701000001400NNM   20220411153354    1W    00000010000010466200000000032D1    TOYOT-K 000000000000KO424053
BI00B32D1    @DFTW2227      20220512181AD2002ZZ              CIVUSAS-S 0.35X2 B       CCN000018900000018900FN00000000020220701000018900NNM   20220411153353    1W    00000045000001713700000000032D1    TOYOT-K 000000000000KO424024
BI00B32D1    @DFTW2227      20220512181AD2003ZZ              CIVUSAS-S 0.35X3 B       CCN000003500000003500FN00000000020220701000003500NNM   20220411153353    1W    00000035000002172100000000032D1    TOYOT-K 000000000000KO424025
BI00B32D1    @DFTW2227      20220512181AD2004ZZ              CIVUSAS-S 0.35X4 B       CCN000018000000018000FN00000000020220701000018000NNM   20220411153353    1W    00000030000002799900000000032D1    TOYOT-K 000000000000KO424026
BI00B32D1    @DFTW2227      20220512181E48031ZZ              CAVSAS-S 0.3X2 GY        CCN000004200000004200FN00000000020220701000004200NNM   20220411153353    1W    00000035000002008700000000032D1    TOYOT-K 000000000000KO424027
BI00B32D1    @DFTW2227      20220512181E48037ZZ              CAVSAS-S 0.3X4 GY        CCN000005250000005250FN00000000020220701000005250NNM   20220411153353    1W    00000025000003262000000000032D1    TOYOT-K 000000000000KO424029
BI00B32D1    @DFTW2227      20220512181E48041ZZ              CAVSAS-S 0.3X2 GY/R      CCN000005250000005250FN00000000020220701000005250NNM   20220411153353    1W    00000035000002008700000000032D1    TOYOT-K 000000000000KO424028
BI00B32D1    @DFTW2227      20220512181E50002ZZ              AVSSCS-S 0.3FX2 DGY/G    CCN000003500000003500FN00000000020220701000003500NNM   20220411153353    1W    00000035000002165000000000032D1    TOYOT-K 000000000000KO424035
BI00B32D1    @DFTW2227      20220512181E50004ZZ              AVSSCS-S 0.5FX1 DGY      CCN000006400000006400FN00000000020220701000006400NNM   20220411153353    1W    00000040000001909700000000032D1    TOYOT-K 000000000000KO424030
BI00B32D1    @DFTW2227      20220512181E50005ZZ              AVSSCS-S 0.5FX1 DGY/W    CCN000001600000001600FN00000000020220701000001600NNM   20220411153353    1W    00000040000001909700000000032D1    TOYOT-K 000000000000KO424033
BI00B32D1    @DFTW2227      20220512181E50007ZZ              AVSSCS-S 0.5FX1 DGY/L    CCN000002800000002800FN00000000020220701000002800NNM   20220411153353    1W    00000040000001909700000000032D1    TOYOT-K 000000000000KO424031
BI00B32D1    @DFTW2227      20220512181E50014ZZ              AVSSCS-S 0.5FX1 DGY/R    CCN000000800000000800FN00000000020220701000000800NNM   20220411153353    1W    00000040000001909700000000032D1    TOYOT-K 000000000000KO424032
BI00B32D1    @DFTW2227      20220512181E50020ZZ              AVSSCS-S 0.3FX2 DGY/R    CCN000001750000001750FN00000000020220701000001750NNM   20220411153353    1W    00000035000002165000000000032D1    TOYOT-K 000000000000KO424037
BI00B32D1    @DFTW2227      20220512181E50021ZZ              AVSSCS-S 0.3FX2 DGY/P    CCN000002100000002100FN00000000020220701000002100NNM   20220411153353    1W    00000035000002165000000000032D1    TOYOT-K 000000000000KO424036
BI00B32D1    @DFTW2227      20220512181E50036ZZ              AVSSCS-S 0.3FX2 DGY      CCN000002100000002100FN00000000020220701000002100NNM   20220411153353    1W    00000035000002165000000000032D1    TOYOT-K 000000000000KO424034
BI00B32D2    DGTW2227       2022051218000004530              AV 8 B                   CCN000034100000034100FN00000000020220701000034100NNM   20220411152036    1W    00000010000010466200000000032D2    TGYOT-G 000000000000KR424027
BI00B32D2    DGTW2227       2022051218000004540              AV 8 W                   CCN000001000000001000FN00000000020220701000001000NNM   20220411152036    1W    00000010000010466200000000032D2    TGYOT-G 000000000000KR424029
BI00B32D2    DGTW2227       2022051218000004543              AV 8 W/B                 CCN000005900000005900FN00000000020220701000005900NNM   20220411152036    1W    00000010000010466200000000032D2    TGYOT-G 000000000000KR424030
BI00B32D2    DGTW2227       2022051218000004590              AV 8 L                   CCN000001100000001100FN00000000020220701000001100NNM   20220411152036    1W    00000010000010466200000000032D2    TGYOT-G 000000000000KR424028
BI00B32D2    @DGTW2227      20220512181AD2002ZZ              CIVUSAS-S 0.35X2 B       CCN000027000000027000FN00000000020220701000027000NNM   20220411152035    1W    00000045000001713700000000032D2    TGYOT-G 000000000000KR424001
BI00B32D2    @DGTW2227      20220512181AD2003ZZ              CIVUSAS-S 0.35X3 B       CCN000010500000010500FN00000000020220701000010500NNM   20220411152035    1W    00000035000002172100000000032D2    TGYOT-G 000000000000KR424002
BI00B32D2    @DGTW2227      20220512181AD2004ZZ              CIVUSAS-S 0.35X4 B       CCN000005700000005700FN00000000020220701000005700NNM   20220411152035    1W    00000030000002799900000000032D2    TGYOT-G 000000000000KR424003
BI00B32D2    @DGTW2227      20220512181E48037ZZ              CAVSAS-S 0.3X4 GY        CCN000006000000006000FN00000000020220701000006000NNM   20220411152035    1W    00000025000003262000000000032D2    TGYOT-G 000000000000KR424004
BI00B32D2    @DGTW2227      20220512181E50004ZZ              AVSSCS-S 0.5FX1 DGY      CCN000010000000010000FN00000000020220701000010000NNM   20220411152035    1W    00000040000001909700000000032D2    TGYOT-G 000000000000KR424005
BI00B32D2    @DGTW2227      20220512181E50005ZZ              AVSSCS-S 0.5FX1 DGY/W    CCN000004800000004800FN00000000020220701000004800NNM   20220411152035    1W    00000040000001909700000000032D2    TGYOT-G 000000000000KR424007
BI00B32D2    @DGTW2227      20220512181E50006ZZ              AVSSCS-S 0.5FX1 DGY/Y    CCN000002000000002000FN00000000020220701000002000NNM   20220411152035    1W    00000040000001909700000000032D2    TGYOT-G 000000000000KR424008
BI00B32D2    @DGTW2227      20220512181E50007ZZ              AVSSCS-S 0.5FX1 DGY/L    CCN000004000000004000FN00000000020220701000004000NNM   20220411152035    1W    00000040000001909700000000032D2    TGYOT-G 000000000000KR424006
BI00B32D2    @DGTW2227      20220512181E50016ZZ              AVSSCS-S 0.5FX2 DGY/R    CCN000003600000003600FN00000000020220701000003600NNM   20220411152035    1W    00000030000003096000000000032D2    TGYOT-G 000000000000KR424009
BI00B32D2    @DGTW2227      20220512181E50036ZZ              AVSSCS-S 0.3FX2 DGY      CCN000002450000002450FN00000000020220701000002450NNM   20220411152035    1W    00000035000002165000000000032D2    TGYOT-G 000000000000KR424010
BI00B32D2    @DGTW2227      20220512181F21014ZZ              AVSSHCS-S 0.5FX2 B/L     CCN000005100000005100FN00000000020220701000005100NNM   20220411152035    1W    00000030000002531400000000032D2    TGYOT-G 000000000000KR424012
BI00B32D2    @DGTW2227      20220512181F21016ZZ              AVSSHCS-S 0.5FX2 B/BR    CCN000002400000002400FN00000000020220701000002400NNM   20220411152035    1W    00000030000002531400000000032D2    TGYOT-G 000000000000KR424011
BI00B32D2    @DGTW2227      20220512181F21031ZZ              AVSSHCS-S 1.25FX2 B/P    CCN000002800000002800FN00000000020220701000002800NNM   20220411152035    1W    00000020000004267300000000032D2    TGYOT-G 000000000000KR424013
BI00B32N2    2152103810     2022042018007703929              AVSS 0.5F LG/W           CCN000003000000003000FN00000000020220401000003000NNE   20220411141604    1W    00000150000000674000000000032N2    YWYIPLTC000000000000KU124006
BI00B32N2    2152103810     2022042018007703941              AVSS 0.5F GY             CCN000003000000003000FN00000000020220401000003000NNE   20220411141604    1W    00000150000000674000000000032N2    YWYIPLTC000000000000KU124004
BI00B32N2    2152103810     2022042018007703943              AVSS 0.5F W/B            CCN000001500000001500FN00000000020220401000001500NNE   20220411141604    1W    00000150000000674000000000032N2    YWYIPLTC000000000000KU124007
BI00B32N2    2152103810     2022042018007703965              AVSS 0.5F G/R            CCN000003000000003000FN00000000020220401000003000NNE   20220411141604    1W    00000150000000674000000000032N2    YWYIPLTC000000000000KU124003
BI00B32N2    2152103810     2022042018007703984              AVSS 0.5F BR/W           CCN000003000000003000FN00000000020220401000003000NNE   20220411141604    1W    00000150000000674000000000032N2    YWYIPLTC000000000000KU124002
BI00B32N2    2152103810     2022042018007703990              AVSS 0.5F L              CCN000003000000003000FN00000000020220401000003000NNE   20220411141604    1W    00000150000000674000000000032N2    YWYIPLTC000000000000KU124005
BI00B32N2    2152103810     2022042018007704183              AVSS 1.25F BR/B          CCN000001600000001600FN00000000020220401000001600NNE   20220411141604    1W    00000080000001389000000000032N2    YWYIPLTC000000000000KU124008
BI00B32N2    2152103810     2022042018007704185              AVSS 1.25F BR/R          CCN000001600000001600FN00000000020220401000001600NNE   20220411141604    1W    00000080000001389000000000032N2    YWYIPLTC000000000000KU124009
BI00B32N2    2152103810     20220420180D0204097              AVSSH 0.75F L/Y          CCN000001000000001000FN00000000020220401000001000NNE   20220411141604    1W    00000100000000933600000000032N2    YWYIPLTC000000000000KU124001
BI00A32P8    TAPAW-2063     20220412180D0203959              AVSSH 0.5F R/L           CCN000001500000001500FN00000000020220601000001500NNM20 20220411134202    1W    00000150000000689000000000032P8    YIYTM   000000000000YT125035
BI00B32R7    R-TAP220158    2022042118018403730              CAVS 0.3 B               CCN000002000000002000FN00000000020220401000002000NNE   20220411093355    1W    00000200000000471000000000032R7    IVYCIC  000000000000SI124001
BI00B32R7    R-TAP220158    2022042118018403750              CAVS 0.3 R               CCN000006000000006000FN00000000020220401000006000NNE   20220411093355    1W    00000200000000471000000000032R7    IVYCIC  000000000000SI124002
BI00B32U5    DW2025         202205201801W003940              IVSSH 0.5F W             CCN000052200000052200FN00000000020220801000052200NNM   20220411125759U5  1W    00000180000000625000000000032U5    ASAMSD  000000000000AM125031
BI00B32U5    DW2025         202205201801W003941              IVSSH 0.5F GY            CCN000005400000005400FN00000000020220801000005400NNM   20220411125759U5  1W    00000180000000625000000000032U5    ASAMSD  000000000000AM125026
BI00B32U5    DW2025         202205201801W003943              IVSSH 0.5F W/B           CCN000009000000009000FN00000000020220801000009000NNM   20220411125759U5  1W    00000180000000625000000000032U5    ASAMSD  000000000000AM125032
BI00B32U5    DW2025         202205201801W003950              IVSSH 0.5F R             CCN000117000000117000FN00000000020220801000117000NNM   20220411125759U5  1W    00000180000000625000000000032U5    ASAMSD  000000000000AM125029
BI00B32U5    DW2025         202205201801W003952              IVSSH 0.5F P             CCN000034200000034200FN00000000020220801000034200NNM   20220411125759U5  1W    00000180000000625000000000032U5    ASAMSD  000000000000AM125028
BI00B32U5    DW2025         202205201801W003960              IVSSH 0.5F G             CCN000086400000086400FN00000000020220801000086400NNM   20220411125759U5  1W    00000180000000625000000000032U5    ASAMSD  000000000000AM125025
BI00B32U5    DW2025         202205201801W003980              IVSSH 0.5F BR            CCN000005400000005400FN00000000020220801000005400NNM   20220411125759U5  1W    00000180000000625000000000032U5    ASAMSD  000000000000AM125024
BI00B32U5    DW2025         202205201801W003990              IVSSH 0.5F L             CCN000117000000117000FN00000000020220801000117000NNM   20220411125759U5  1W    00000180000000625000000000032U5    ASAMSD  000000000000AM125027
BI00B32U5    DW2025         202205201801W003992              IVSSH 0.5F V             CCN000003600000003600FN00000000020220801000003600NNM   20220411125759U5  1W    00000180000000625000000000032U5    ASAMSD  000000000000AM125030
BI00B32U5    DW2025         202205201801W004050              IVSSH 0.75F R            CCN000002600000002600FN00000000020220801000002600NNM   20220411125759U5  1W    00000130000000882000000000032U5    ASAMSD  000000000000AM125033
BI00B32U5    DW2025         202205201801W006930              IVSSH 0.35F B            CCN000135000000135000FN00000000020220801000135000NNM   20220411125759U5  1W    00000250000000452000000000032U5    ASAMSD  000000000000AM125034
BI00B32U5    DW2025         202205201801W006940              IVSSH 0.35F W            CCN000092500000092500FN00000000020220801000092500NNM   20220411125759U5  1W    00000250000000452000000000032U5    ASAMSD  000000000000AM125044
BI00B32U5    DW2025         202205201801W006941              IVSSH 0.35F GY           CCN000010000000010000FN00000000020220801000010000NNM   20220411125759U5  1W    00000250000000452000000000032U5    ASAMSD  000000000000AM125038
BI00B32U5    DW2025         202205201801W006952              IVSSH 0.35F P            CCN000055000000055000FN00000000020220801000055000NNM   20220411125759U5  1W    00000250000000452000000000032U5    ASAMSD  000000000000AM125041
BI00B32U5    DW2025         202205201801W00695U              IVSSH 0.35F BE           CCN000002500000002500FN00000000020220801000002500NNM   20220411125759U5  1W    00000250000000452000000000032U5    ASAMSD  000000000000AM125035
BI00B32U5    DW2025         202205201801W006960              IVSSH 0.35F G            CCN000087500000087500FN00000000020220801000087500NNM   20220411125759U5  1W    00000250000000452000000000032U5    ASAMSD  000000000000AM125037
BI00B32U5    DW2025         202205201801W006961              IVSSH 0.35F LG           CCN000017500000017500FN00000000020220801000017500NNM   20220411125759U5  1W    00000250000000452000000000032U5    ASAMSD  000000000000AM125040
BI00B32U5    DW2025         202205201801W006970              IVSSH 0.35F Y            CCN000010000000010000FN00000000020220801000010000NNM   20220411125759U5  1W    00000250000000452000000000032U5    ASAMSD  000000000000AM125045
BI00B32U5    DW2025         202205201801W006980              IVSSH 0.35F BR           CCN000037500000037500FN00000000020220801000037500NNM   20220411125759U5  1W    00000250000000452000000000032U5    ASAMSD  000000000000AM125036
BI00B32U5    DW2025         202205201801W006990              IVSSH 0.35F L            CCN000125000000125000FN00000000020220801000125000NNM   20220411125759U5  1W    00000250000000452000000000032U5    ASAMSD  000000000000AM125039
BI00B32U5    DW2025         202205201801W006991              IVSSH 0.35F SB           CCN000017500000017500FN00000000020220801000017500NNM   20220411125759U5  1W    00000250000000452000000000032U5    ASAMSD  000000000000AM125042
BI00B32U5    DW2025         202205201801W006992              IVSSH 0.35F V            CCN000022500000022500FN00000000020220801000022500NNM   20220411125759U5  1W    00000250000000452000000000032U5    ASAMSD  000000000000AM125043
BI00B32U5    @DW2025        20220520181F21027ZZ              AVSSHCS-S 1.25FX2 B      CCN000008200000008200FN00000000020220801000008200NNM   20220411125758U5  1W    00000020000004267300000000032U5    ASAMSD  000000000000AM125023
BI00B32W4    @4500191760    20220614181B32037Y5              AVSSCS 0.3FX1 DGY/W      CCN000007000000007000FN00000000020220601000007000NNE20 20220411084950W4171W    00000050000001780000000000032W417  HJYHK-J 000000000000OA126001
BI00B32W4    @4500191760    20220614181B32116S1              AVSSCS 0.3FX2 DGY        CCN000002450000002450FN00000000020220601000002450NNE20 20220411084950W4171W    00000035000002276000000000032W417  HJYHK-J 000000000000OA126002
BI00B32X5    TWB2025        202205201801W006930              IVSSH 0.35F B            CCN000032500000032500FN00000000020220801000032500NNM   20220411135356X5  1W    00000250000000452000000000032X5    EPYNA-E 000000000000AE125007
BI00B32X5    TWB2025        202205201801W006940              IVSSH 0.35F W            CCN000020000000020000FN00000000020220801000020000NNM   20220411135356X5  1W    00000250000000452000000000032X5    EPYNA-E 000000000000AE125011
BI00B32X5    TWB2025        202205201801W006943              IVSSH 0.35F W/B          CCN000007500000007500FN00000000020220801000007500NNM   20220411135356X5  1W    00000250000000452000000000032X5    EPYNA-E 000000000000AE125012
BI00B32X5    TWB2025        202205201801W006950              IVSSH 0.35F R            CCN000025000000025000FN00000000020220801000025000NNM   20220411135356X5  1W    00000250000000452000000000032X5    EPYNA-E 000000000000AE125009
BI00B32X5    TWB2025        202205201801W006960              IVSSH 0.35F G            CCN000007500000007500FN00000000020220801000007500NNM   20220411135356X5  1W    00000250000000452000000000032X5    EPYNA-E 000000000000AE125008
BI00B32X5    TWB2025        202205201801W006970              IVSSH 0.35F Y            CCN000010000000010000FN00000000020220801000010000NNM   20220411135356X5  1W    00000250000000452000000000032X5    EPYNA-E 000000000000AE125013
BI00B32X5    TWB2025        202205201801W006992              IVSSH 0.35F V            CCN000002500000002500FN00000000020220801000002500NNM   20220411135356X5  1W    00000250000000452000000000032X5    EPYNA-E 000000000000AE125010
