BI00A1200    2399T52220     202204127288-7969                HYBRID MALE ASS'Y        CCN000016640000016640FN00000000020220401000016640NNMM0020220411132836    1N0N  0000003200000087620000110171200    YCYC    005400370024
BI00B1200    8640T52201     202205267289-3342-30             HOUSING FEMALE ASS'Y     CCN000002400000002400FN00000000020220501000002400NNED0420220411121421    1N0N  0000024000000068640000090141200    YCYC    005500360039
BI00B1200    8640T52202     202206097289-3342-30             HOUSING FEMALE ASS'Y     CCN000002400000002400FN00000000020220501000002400NNED0420220411121421    1N0N  0000024000000068640000090141200    YCYC    005500360039
BI00A1200    2399T52316     202204187288-7969                HYBRID MALE ASS'Y        CCN000039040000019520FN00000000020220501000019520NNMM0020220411133008    1N0N  0000003200000087620000110171200    YCYC    005400370024
BI00B1200    2399T52317     202205127289-3342-30             HOUSING FEMALE ASS'Y     CCN000019200000019200FN00000000020220501000019200NNMD0420220411121421    1N0N  0000024000000068640000090141200    YCYC    005500360039
BI00B1200    2399T52319     202205197289-3342-30             HOUSING FEMALE ASS'Y     CCN000019200000019200FN00000000020220501000019200NNMD0420220411121421    1N0N  0000024000000068640000090141200    YCYC    005500360039
BI00B1200    2399T52319     202205057289-7212-30             HOUSING FEMALE ASS'Y     CCN000008880000008880FN00000000020220501000008880NNMQ0020220411132143    4N0N  0000002400000138840000159341200    YCYC    005500360039
BI00B1200    2399T52319     202205057298-3990-30             HOUSING FEMALE ASS'Y     CCN000006720000006720FN00000000020220501000006720NNMQ0020220411131950    4NON  0000002400000120890000157391200    YCYC    005500360039
BI00B1200    7860T52301     202204287289-3342-30             HOUSING FEMALE ASS'Y     CCN000002400000002400FN00000000020220501000002400NNMD0420220411121421    1N0N  0000024000000068640000090141200    YCYC    005500360039
BI00B1200    7860T52302     202205267289-3342-30             HOUSING FEMALE ASS'Y     CCN000002400000002400FN00000000020220501000002400NNMD0420220411121421    1N0N  0000024000000068640000090141200    YCYC    005500360039
BI00B1200    7504T220323    202204217340-9446                J/B ASS'Y                CCN000000016000000000FY00000000020220401000000000NNEQ0820220411133543    4J0J  0000000080000072500000088701200    YCYC    005400370024
BI00B1200    2399T52422     202205057289-7212-30             HOUSING FEMALE ASS'Y     CCN000002880000000000FY00000000020220601000000000NNMQ0820220411132220    4N0N  0000002400000138840000159341200    YCYC    005500360039
BI00B1200    2399T52422     202205127298-3990-30             HOUSING FEMALE ASS'Y     CCN000006960000006960FN00000000020220601000006960NNMQ0020220411131817    4NON  0000002400000120890000157391200    YCYC    005500360039
BI00B1200    2399T52423     202205197298-3990-30             HOUSING FEMALE ASS'Y     CCN000006960000006960FN00000000020220601000006960NNMQ0020220411131838    4NON  0000002400000120890000157391200    YCYC    005500360039
BI00B1200    2399T52424     202205267298-3990-30             HOUSING FEMALE ASS'Y     CCN000006960000006960FN00000000020220601000006960NNMQ0020220411131909    4NON  0000002400000120890000157391200    YCYC    005500360039
BI00B1200    2399T52425     202205267298-3990-30             HOUSING FEMALE ASS'Y     CCN000006720000006720FN00000000020220601000006720NNMQ0020220411132037    4NON  0000002400000120890000157391200    YCYC    005500360039
BI00B1200    2399T52426     202205057289-6524-30             HOUSING FEMALE ASS'Y     CCN000004080000004080FN00000000020220601000004080NNE   20220411121421    4N0N  0000002400000135120000166621200    YCYC    005500360039
BI00B1200    2399T52427     202205127289-6524-30             HOUSING FEMALE ASS'Y     CCN000003600000003600FN00000000020220601000003600NNE   20220411121421    4N0N  0000002400000135120000166621200    YCYC    005500360039
BI00B1200    2399T52428     202205197289-6524-30             HOUSING FEMALE ASS'Y     CCN000003600000003600FN00000000020220601000003600NNE   20220411121421    4N0N  0000002400000135120000166621200    YCYC    005500360039
BI00B1200    2399T52429     202205267289-6524-30             HOUSING FEMALE ASS'Y     CCN000003600000003600FN00000000020220601000003600NNE   20220411121421    4N0N  0000002400000135120000166621200    YCYC    005500360039
BI00B1200    H322G50023     202206167116-4112-02             TERMINAL                 CCN000018000000018000FN00000000020220701000018000NNE   20220411143655    4P0P  0000060000000045000000073821200    YCYC    006400630015
BI00B1200    H722G50009     202206167297-1861-30             HOUSING MALE ASS'Y       CCN000009000000009000FN00000000020220701000009000NNE   20220411144604    4N0N  0000015000000070220000082731200    YCYC    005400370024
BI00B1200    H722G50010     202206167289-9553-30             SEALED ASSY FEMALE       CCN000017640000017640FN00000000020220701000017640NNE   20220411144618    4N0N  0000029400000110900000152151200    YCYC    005500360039
BI00B1200    O022H50014     202207077116-4100-02             TERMINAL                 CCN000105000000105000FN00000000020220801000105000NNE   20220411144633    4P0P  0000150000000069600000099021200    YCYC    006400630015
BI00B1200    O022H50015     202207077116-4100-02             TERMINAL                 CCN000015000000015000FN00000000020220801000015000NNE   20220411144648    4P0P  0000150000000069600000099021200    YCYC    006400630015
BI00B1200    7504T52401     202207287154-7140-30             LOWER COVER              CCN000005400000005400FN00000000020220801000005400NNM   20220411144717    4F0F  0000000600000019900000041001200    YCYC    005600390040
BI00B1200    7504T52401     202207287254-5840-30             ENG R/B SUB ASS'Y        CCN000006600000006600FN00000000020220801000006600NNM   20220411144717    4J0J  0000000240000073200000095201200    YCYC    005600390040
BI00A1200    MKH2022-063    202204207327-6998-30             MULTI FUSE               CCY000000288000000288FN00000000020220401000000288NNE   20220411145352    4N0N  0000002880000088600000105191200    YCYC    005400370024
BI00A32BG    YY2204ACMW     202203277114-4728-02             TERMINAL                 CCN000090000000000000FY00000000020220401000000000NNEQ0820220411090000    4P0P  00003000000000510000000804232BG    YGYYA   006400630015
BI00A32BG    YY2204ACMW     202203277114-4729-02             TERMINAL                 CCN000150000000000000FY00000000020220401000000000NNEQ0820220411090000    4P0P  00003000000000516000000810232BG    YGYYA   006400630015
BI00A32BG    YY2204ACMW     202203277116-5042-02             TERMINAL                 CCN000054000000000000FY00000000020220401000000000NNEQ0820220411090000    4P0P  00001350000000560300000845532BG    YGYYA   006400630015
BI00A32BG    YY2204ACMW     202203277116-5751-02             TERMINAL                 CCN000033600000000000FY00000000020220401000000000NNEQ0820220411090000    4P0P  00001200000000379200000664432BG    YGYYA   006400630015
BI00B32BG    YY2205BCMW     202204287158-3070-80             RUBBER STOPPER           CCN000160000000160000FN00000000020220501000160000NNE   20220411145604    1C0C  00004000000000276000000333332BG    YGYYA   002700430014
BI00B32BG    YY22071CMW     202205197116-3153-08             TERMINAL                 CCN000081000000081000FN00000000020220701000081000NNM   20220411145731    4P0P  00002700000000461700000746932BG    YGYYA   006400630015
BI00B32BG    YY22072CMW     202205267116-3153-08             TERMINAL                 CCN000081000000081000FN00000000020220701000081000NNM   20220411145731    4P0P  00002700000000461700000746932BG    YGYYA   006400630015
BI00B32BG    YY22073CMW     202206027116-3153-08             TERMINAL                 CCN000054000000054000FN00000000020220701000054000NNM   20220411145731    4P0P  00002700000000461700000746932BG    YGYYA   006400630015
BI00B32BG    YY22074CMW     202206097116-3153-08             TERMINAL                 CCN000054000000054000FN00000000020220701000054000NNM   20220411145731    4P0P  00002700000000461700000746932BG    YGYYA   006400630015
BI00B32BG    YY22071CMW     202205197116-6041                TERMINAL                 CCN000013500000013500FN00000000020220701000013500NNM   20220411145731    4P0P  00000450000000716000001009632BG    YGYYA   006400630015
BI00B32BG    YY22072CMW     202205267116-6041                TERMINAL                 CCN000013500000013500FN00000000020220701000013500NNM   20220411145731    4P0P  00000450000000716000001009632BG    YGYYA   006400630015
BI00B32BG    YY22073CMW     202206027116-6041                TERMINAL                 CCN000013500000013500FN00000000020220701000013500NNM   20220411145731    4P0P  00000450000000716000001009632BG    YGYYA   006400630015
BI00B32BG    YY22074CMW     202206097116-6041                TERMINAL                 CCN000013500000013500FN00000000020220701000013500NNM   20220411145731    4P0P  00000450000000716000001009632BG    YGYYA   006400630015
BI00B32BG    YY22071CMW     202205197158-3070-80             RUBBER STOPPER           CCN000160000000160000FN00000000020220701000160000NNM   20220411145731    1C0C  00004000000000276000000333332BG    YGYYA   002700430014
BI00B32BG    YY22072CMW     202205267158-3070-80             RUBBER STOPPER           CCN000080000000080000FN00000000020220701000080000NNM   20220411145731    1C0C  00004000000000276000000333332BG    YGYYA   002700430014
BI00B32BG    YY22073CMW     202206027158-3070-80             RUBBER STOPPER           CCN000080000000080000FN00000000020220701000080000NNM   20220411145731    1C0C  00004000000000276000000333332BG    YGYYA   002700430014
BI00B32BG    YY22074CMW     202206097158-3070-80             RUBBER STOPPER           CCN000080000000080000FN00000000020220701000080000NNM   20220411145731    1C0C  00004000000000276000000333332BG    YGYYA   002700430014
BI00B32BG    YY22071CMW     202205197296-1025-02             TERMINAL ALUMINIUM       CCN000072000000072000FN00000000020220701000072000NNM   20220411145731    4P0P  00001800000000635400000920632BG    YGYYA   006400630015
BI00B32BG    YY22072CMW     202205267296-1025-02             TERMINAL ALUMINIUM       CCN000072000000072000FN00000000020220701000072000NNM   20220411145731    4P0P  00001800000000635400000920632BG    YGYYA   006400630015
BI00B32BG    YY22073CMW     202206027296-1025-02             TERMINAL ALUMINIUM       CCN000036000000036000FN00000000020220701000036000NNM   20220411145731    4P0P  00001800000000635400000920632BG    YGYYA   006400630015
BI00B32BG    YY22074CMW     202206097296-1025-02             TERMINAL ALUMINIUM       CCN000036000000036000FN00000000020220701000036000NNM   20220411145731    4P0P  00001800000000635400000920632BG    YGYYA   006400630015
BI00B32BG    #YY22073CMW    202206027172-5630-40             RUBBER STOPPER           CCN000040000000040000FN00000000020220701000040000NNM   20220411145728    2H0H  00002000000000044000000095132BG    YGYYA   004300270014
BI00B32BG    #YY22071CMW    202205197189-3033                HOUSING FEMALE           CCN000003200000003200FN00000000020220701000003200NNM   20220411145728    2F0F  00000160000001211200001431232BG    YGYYA   005500360039
BI00B32BG    #YY22072CMW    202205267189-3033                HOUSING FEMALE           CCN000003200000003200FN00000000020220701000003200NNM   20220411145728    2F0F  00000160000001211200001431232BG    YGYYA   005500360039
BI00B32BG    #YY22073CMW    202206027189-3033                HOUSING FEMALE           CCN000003200000003200FN00000000020220701000003200NNM   20220411145728    2F0F  00000160000001211200001431232BG    YGYYA   005500360039
BI00B32BG    #YY22074CMW    202206097189-3033                HOUSING FEMALE           CCN000003200000003200FN00000000020220701000003200NNM   20220411145728    2F0F  00000160000001211200001431232BG    YGYYA   005500360039
BI00B32BG    #YY22071CMW    202205197189-3036                HOUSING FEMALE           CCN000003200000003200FN00000000020220701000003200NNM   20220411145728    2F0F  00000160000000921600001141632BG    YGYYA   005500360039
BI00B32BG    #YY22072CMW    202205267189-3036                HOUSING FEMALE           CCN000003200000003200FN00000000020220701000003200NNM   20220411145728    2F0F  00000160000000921600001141632BG    YGYYA   005500360039
BI00B32BG    #YY22073CMW    202206027189-3036                HOUSING FEMALE           CCN000003200000003200FN00000000020220701000003200NNM   20220411145728    2F0F  00000160000000921600001141632BG    YGYYA   005500360039
BI00B32BG    #YY22074CMW    202206097189-3036                HOUSING FEMALE           CCN000003200000003200FN00000000020220701000003200NNM   20220411145728    2F0F  00000160000000921600001141632BG    YGYYA   005500360039
BI00B32BG    #YY2205AGMW    202204287158-3376-50             CONNECTOR WIRE SEAL      CCN000040000000040000FN00000000020220501000040000NNE   20220411155629    2C0C  00002000000000184000000240732BG    YGYYA   002700430014
BI00B32BG    YY22071GMW     202205197114-4110-02             TERMINAL                 CCN000045000000045000FN00000000020220701000045000NNM   20220411155646    4P0P  00001500000000901500001230132BG    YGYYA   006400630017
BI00B32BG    YY22072GMW     202205267114-4110-02             TERMINAL                 CCN000045000000045000FN00000000020220701000045000NNM   20220411155646    4P0P  00001500000000901500001230132BG    YGYYA   006400630017
BI00B32BG    YY22071GMW     202205197114-4111-02             TERMINAL                 CCN000036000000036000FN00000000020220701000036000NNM   20220411155646    4P0P  00001200000000758400001087032BG    YGYYA   006400630017
BI00B32BG    YY22072GMW     202205267114-4111-02             TERMINAL                 CCN000036000000036000FN00000000020220701000036000NNM   20220411155646    4P0P  00001200000000758400001087032BG    YGYYA   006400630017
BI00B32BG    YY22071GMW     202205197114-4112-02             TERMINAL                 CCN000036000000036000FN00000000020220701000036000NNM   20220411155646    4P0P  00000900000000598500000927132BG    YGYYA   006400630017
BI00B32BG    YY22072GMW     202205267114-4112-02             TERMINAL                 CCN000036000000036000FN00000000020220701000036000NNM   20220411155646    4P0P  00000900000000598500000927132BG    YGYYA   006400630017
BI00B32BG    YY22073GMW     202206027114-4112-02             TERMINAL                 CCN000036000000036000FN00000000020220701000036000NNM   20220411155646    4P0P  00000900000000598500000927132BG    YGYYA   006400630017
BI00B32BG    YY22074GMW     202206097114-4112-02             TERMINAL                 CCN000036000000036000FN00000000020220701000036000NNM   20220411155646    4P0P  00000900000000598500000927132BG    YGYYA   006400630017
BI00B32BG    YY22071GMW     202205197116-4102-02             TERMINAL                 CCN000024000000024000FN00000000020220701000024000NNM   20220411155646    4P0P  00001200000000553200000841432BG    YGYYA   006400630015
BI00B32BG    YY22072GMW     202205267116-4102-02             TERMINAL                 CCN000024000000024000FN00000000020220701000024000NNM   20220411155646    4P0P  00001200000000553200000841432BG    YGYYA   006400630015
BI00B32BG    YY22073GMW     202206027116-4102-02             TERMINAL                 CCN000024000000024000FN00000000020220701000024000NNM   20220411155646    4P0P  00001200000000553200000841432BG    YGYYA   006400630015
BI00B32BG    YY22074GMW     202206097116-4103-02             TERMINAL                 CCN000012000000012000FN00000000020220701000012000NNM   20220411155646    4P0P  00001200000000571200000859432BG    YGYYA   006400630015
BI00B32BG    YY22071GMW     202205197116-4104-02             TERMINAL                 CCN000024000000024000FN00000000020220701000024000NNM   20220411155646    4P0P  00001200000000580800000972432BG    YGYYA   006400630015
BI00B32BG    YY22072GMW     202205267116-4104-02             TERMINAL                 CCN000024000000024000FN00000000020220701000024000NNM   20220411155646    4P0P  00001200000000580800000972432BG    YGYYA   006400630015
BI00B32BG    YY22072GMW     202205267116-4120-02             TERMINAL                 CCN000012000000012000FN00000000020220701000012000NNM   20220411155646    4P0P  00000600000000780000001073632BG    YGYYA   006400630015
BI00B32BG    YY22071GMW     202205197116-4121-02             TERMINAL                 CCN000045000000045000FN00000000020220701000045000NNM   20220411155646    4P0P  00000450000000618800000912432BG    YGYYA   006400630015
BI00B32BG    YY22074GMW     202206097116-4121-02             TERMINAL                 CCN000045000000045000FN00000000020220701000045000NNM   20220411155646    4P0P  00000450000000618800000912432BG    YGYYA   006400630015
BI00B32BG    YY22072GMW     202205267116-4122-02             TERMINAL                 CCN000045000000045000FN00000000020220701000045000NNM   20220411155646    4P0P  00000450000000656600000950232BG    YGYYA   006400630015
BI00B32BG    #YY22074GMW    202206097158-3008-80             RUBBER STOPPER           CCN000020000000020000FN00000000020220701000020000NNM   20220411155645    2C0C  00002000000000288000000343032BG    YGYYA   004300270014
BI00B32BG    #YY22071GMW    202205197158-3374-90             CONNECTOR WIRE SEAL      CCN000020000000020000FN00000000020220701000020000NNM   20220411155645    2H0H  00002000000000172000000229332BG    YGYYA   002700430014
BI00B32BG    #YY22072GMW    202205267158-3374-90             CONNECTOR WIRE SEAL      CCN000020000000020000FN00000000020220701000020000NNM   20220411155645    2H0H  00002000000000172000000229332BG    YGYYA   002700430014
BI00B32BG    #YY22071GMW    202205197158-3376-50             CONNECTOR WIRE SEAL      CCN000020000000020000FN00000000020220701000020000NNM   20220411155645    2C0C  00002000000000184000000240732BG    YGYYA   002700430014
BI00B32BG    #YY22072GMW    202205267158-3376-50             CONNECTOR WIRE SEAL      CCN000020000000020000FN00000000020220701000020000NNM   20220411155645    2C0C  00002000000000184000000240732BG    YGYYA   002700430014
BI00B32BG    #YY22071GMW    202205197283-8398-40             CONNECTOR                CCN000001540000001540FN00000000020220701000001540NNM   20220411155645    2N0N  00000154000001007000001171332BG    YGYYA   005600390023
BI00B32BG    #YY22072GMW    202205267283-8398-40             CONNECTOR                CCN000001540000001540FN00000000020220701000001540NNM   20220411155645    2N0N  00000154000001007000001171332BG    YGYYA   005600390023
BI00B32BG    #YY22073GMW    202206027283-8398-40             CONNECTOR                CCN000001540000001540FN00000000020220701000001540NNM   20220411155645    2N0N  00000154000001007000001171332BG    YGYYA   005600390023
BI00B32BG    YY22072NMW     202205267116-4121-02             TERMINAL                 CCN000004500000004500FN00000000020220701000004500NNM   20220411155658    4P0P  00000450000000618800000912432BG    YGYYA   006400630015
BI00B32BG    YY22072NMW     202205267158-3165-90             WIRE SEAL                CCN000040000000040000FN00000000020220701000040000NNM   20220411155658    1C0C  00004000000000124000000172432BG    YGYYA   004300270014
BI00B32BG    YY22073NMW     202206027158-3165-90             WIRE SEAL                CCN000040000000040000FN00000000020220701000040000NNM   20220411155658    1C0C  00004000000000124000000172432BG    YGYYA   004300270014
BI00B32BG    YY22073NMW     202206027158-3166-60             WIRE SEAL                CCN000020000000040000FN00000000020220701000040000NNM   20220411155658    1C0C  00004000000000104000000152432BG    YGYYA   002700430014
BI00B32BG    YY22072NMW     202205267158-3169-40             SEALING PLUG             CCN000040000000040000FN00000000020220701000040000NNM   20220411155658    1C0C  00004000000000156000000204132BG    YGYYA   004300260014
BI00B32BG    YY22072NMW     202205267289-4696-30             HOUSING FEMALE ASS'Y     CCN000002000000002000FN00000000020220701000002000NNM   20220411155658    4N0N  00000200000000913400001055432BG    YGYYA   005400370024
BI00B32BG    #YY22071NMW    202205197158-3007-10             RUBBER STOPPER           CCN000020000000020000FN00000000020220701000020000NNM   20220411155656    2H0H  00002000000000308000000362732BG    YGYYA   002700430014
BI00B32B1    A22026         202205277289-3342-30             HOUSING FEMALE ASS'Y     CCN000002400000002400FN00000000020220801000002400NNM   20220411132955B1  1N0N  00000240000000686400000901432B1    AXARNE-M005500360039
BI00B32B1    A22026         202205277289-3342-90             HOUSING FEMALE ASS'Y     CCN000002400000002400FN00000000020220801000002400NNM   20220411132955B1  1N0N  00000240000000686400000901432B1    AXARNE-M005500360039
BI00B32B1    #A22026        202205277282-8395-40             CONNECTOR                CCN000010000000010000FN00000000020220801000010000NNM   20220411132958B1  2N0N  00000100000001009000001188032B1    AXARNE-M005500360039
BI00B32B1    #A22026        202205277283-8226-30             CONNECTOR                CCN000012000000012000FN00000000020220801000012000NNM   20220411132958B1  2N0N  00000200000000820000001008032B1    AXARNE-M005400370024
BI00B32B1    A22021A        202205277158-3166-60             WIRE SEAL                CCN000040000000040000FN00000000020220701000040000NNE   20220411155908B1  1C0C  00004000000000104000000152432B1    AXARNE-M002700430014
BI00B32B1    A22021A        202205277158-3167-80             WIRE SEAL                CCN000200000000200000FN00000000020220701000200000NNE   20220411155908B1  1C0C  00002000000000048000000109032B1    AXARNE-M002700430014
BI00B32B1    #A22021A       202205277282-8395-40             CONNECTOR                CCN000010000000010000FN00000000020220701000010000NNE   20220411155910B1  2N0N  00000100000001009000001188032B1    AXARNE-M005500360039
BI00B32B1    #A22021A       202205277283-8226-30             CONNECTOR                CCN000012000000012000FN00000000020220701000012000NNE   20220411155910B1  2N0N  00000200000000820000001008032B1    AXARNE-M005400370024
BI00B32B6    A72026         202205277017-1180-02             TERMINAL                 CCN000072000000072000FN00000000020220801000072000NNM   20220411133131B6  4P0P  00007200000001065600001229032B6    AXARNE-M005100280028
BI00B32B6    A72026         202205277017-1181-02             TERMINAL                 CCN000063000000063000FN00000000020220801000063000NNM   20220411133131B6  4P0P  00006300000001089900001266832B6    AXARNE-M005100280028
BI00B32B6    A72026         202205277017-1183-02             TERMINAL                 CCN000027000000027000FN00000000020220801000027000NNM   20220411133131B6  4P0P  00002700000001139400001307432B6    AXARNE-M005100280028
BI00B32B6    A72026         202205277116-4486-02             TERMINAL                 CCN000028000000028000FN00000000020220801000028000NNM   20220411133131B6  4P0P  00002800000000666400000995132B6    AXARNE-M006400630017
BI00B32B6    A72026         202205277158-3165-90             WIRE SEAL                CCN000600000000600000FN00000000020220801000600000NNM   20220411133131B6  1C0C  00004000000000124000000172432B6    AXARNE-M004300270014
BI00B32B6    A72026         202205277158-3166-60             WIRE SEAL                CCN000600000000600000FN00000000020220801000600000NNM   20220411133131B6  1C0C  00004000000000104000000152432B6    AXARNE-M002700430014
BI00B32B6    A72026         202205277158-3167-80             WIRE SEAL                CCN000320000000320000FN00000000020220801000320000NNM   20220411133131B6  1C0C  00002000000000048000000109032B6    AXARNE-M002700430014
BI00B32B6    A72026         202205277287-0192-40             SEALED HOUSING ASS'Y     CCN000001440000001440FN00000000020220801000001440NNM   20220411133131B6  4N0N  00000048000001092000001322032B6    AXARNE-M005600390040
BI00B32B6    A72021A        202205277158-3166-60             WIRE SEAL                CCN000600000000600000FN00000000020220701000600000NNE   20220411155932B6  1C0C  00004000000000104000000152432B6    AXARNE-M002700430014
BI00B32B7    A82026         202205277158-3166-60             WIRE SEAL                CCN000120000000120000FN00000000020220801000120000NNM   20220411133223B7  1C0C  00004000000000104000000152432B7    AXARNE-M002700430014
BI00B32B7    A82026         202205277158-3167-80             WIRE SEAL                CCN000020000000020000FN00000000020220801000020000NNM   20220411133223B7  1C0C  00002000000000048000000109032B7    AXARNE-M002700430014
BI00B32B7    A82026         202205277158-3168-80             SEALED                   CCN000060000000060000FN00000000020220801000060000NNM   20220411133223B7  1C0C  00002000000000044000000092132B7    AXARNE-M004300260014
BI00B32B7    A82026         202205277158-3169-40             SEALING PLUG             CCN000200000000200000FN00000000020220801000200000NNM   20220411133223B7  1C0C  00004000000000156000000204132B7    AXARNE-M004300260014
BI00B32B7    A82026         202205277282-6448-40             CONNECTOR                CCN000027200000027200FN00000000020220801000027200NNM   20220411133223B7  4N0N  00000080000000887000001152732B7    AXARNE-M005600390040
BI00B32B7    #A82026        202205277135-7031                GROMMET                  CCN000007000000007000FN00000000020220801000007000NNM   20220411133221B7  2H0H  00000010000000634200000744232B7    AXARNE-M005400370024
BI00B32B7    #A82026        202205277158-3376-50             CONNECTOR WIRE SEAL      CCN000040000000040000FN00000000020220801000040000NNM   20220411133221B7  2C0C  00002000000000184000000240732B7    AXARNE-M002700430014
BI00B32B7    #A82026        202205277282-8395-40             CONNECTOR                CCN000004000000004000FN00000000020220801000004000NNM   20220411133221B7  2N0N  00000100000001009000001188032B7    AXARNE-M005500360039
BI00B32B7    #A82026        202205277283-8397-40             CONNECTOR                CCN000015400000015400FN00000000020220801000015400NNM   20220411133221B7  2N0N  00000154000001007000001222732B7    AXARNE-M005600390023
BI00B32B7    A82021A        202205277158-3166-60             WIRE SEAL                CCN000120000000120000FN00000000020220701000120000NNE   20220411155957B7  1C0C  00004000000000104000000152432B7    AXARNE-M002700430014
BI00B32B7    A82021A        202205277158-3168-80             SEALED                   CCN000060000000060000FN00000000020220701000060000NNE   20220411155957B7  1C0C  00002000000000044000000092132B7    AXARNE-M004300260014
BI00B32B7    A82021A        202205277158-3169-40             SEALING PLUG             CCN000200000000200000FN00000000020220701000200000NNE   20220411155957B7  1C0C  00004000000000156000000204132B7    AXARNE-M004300260014
BI00B32B7    A82021A        202205277282-6448-40             CONNECTOR                CCN000027200000027200FN00000000020220701000027200NNE   20220411155957B7  4N0N  00000080000000887000001152732B7    AXARNE-M005600390040
BI00B32B7    #A82021A       202205277135-7031                GROMMET                  CCN000007000000007000FN00000000020220701000007000NNE   20220411155954B7  2H0H  00000010000000634200000744232B7    AXARNE-M005400370024
BI00B32B7    #A82021A       202205277282-8395-40             CONNECTOR                CCN000004000000004000FN00000000020220701000004000NNE   20220411155954B7  2N0N  00000100000001009000001188032B7    AXARNE-M005500360039
BI00B32B7    #A82021A       202205277283-8397-40             CONNECTOR                CCN000012320000012320FN00000000020220701000012320NNE   20220411155954B7  2N0N  00000154000001007000001222732B7    AXARNE-M005600390023
BI00B32CA    PTA32102       202206307114-5096-02             TERMINAL                 CCN000360000000360000FN00000000020221001000360000NNE   20220411133924    4P0P  00003000000000498000000792232CA    YPYPY   006400630015
BI00B32CA    PTA32102       202206307114-5096-08             TERMINAL                 CCN000112000000120000FN00000000020221001000120000NNE   20220411133924    4P0P  00003000000000498000000792232CA    YPYPY   006400630015
BI00B32CA    PTA32102       202206307116-3153-02             TERMINAL FEMALE          CCN000990000000999000FN00000000020221001000999000NNE   20220411133924    4P0P  00002700000000459000000744232CA    YPYPY   006400630015
BI00B32CA    PTA32102       202206307116-3154-02             TERMINAL FEMALE          CCN000330000000351000FN00000000020221001000351000NNE   20220411133924    4P0P  00002700000000469800000755032CA    YPYPY   006400630015
BI00B32CA    PTA32102       202206307116-4486-02             TERMINAL                 CCN000266500000280000FN00000000020221001000280000NNE   20220411133924    4P0P  00002800000000666400000995132CA    YPYPY   006400630017
BI00B32CA    PTA32102       202206307196-0510-02             TERMINAL                 CCN000072000000072000FN00000000020221001000072000NNE   20220411133924    4P0P  00002400000000871200001034632CA    YPYPY   002800510028
BI00B32CA    PTA32102       202206307287-9323                UNSEALED HOUSING SUB     CCN000004800000004800FN00000000020221001000004800NNE   20220411133924    1N0N  00000240000000537600000690032CA    YPYPY   005600390023
BI00B32CA    PTA32102       202206307289-3342                HOUSING FEMALE ASS'Y     CCN000036000000036000FN00000000020221001000036000NNE   20220411133924    1N0N  00000240000000686400000901432CA    YPYPY   005500360039
BI00B32CA    PTA32102       202206307289-3342-30             HOUSING FEMALE ASS'Y     CCN000043200000043200FN00000000020221001000043200NNE   20220411133924    1N0N  00000240000000686400000901432CA    YPYPY   005500360039
BI00B32CA    PTA32102       202206307289-3342-90             HOUSING FEMALE ASS'Y     CCN000012000000012000FN00000000020221001000012000NNE   20220411133924    1N0N  00000240000000686400000901432CA    YPYPY   005500360039
BI00B32CA    #PTA32102      202206307154-5597-30             CASSETTE R/B             CCN000004800000004800FN00000000020221001000004800NNE   20220411133927    2F0F  00000080000000736000000952032CA    YPYPY   005500360039
BI00B32CA    #PTA32102      202206307183-2414-30             CONNECTOR HOUSING        CCN000003750000004800FN00000000020221001000004800NNE   20220411133927    2F0F  00000480000000779500001061532CA    YPYPY   005500360039
BI00B32CA    #PTA32102      202206307189-3032-30             HOUSING FEMALE           CCN000006400000006400FN00000000020221001000006400NNE   20220411133927    2F0F  00000160000000801600001021632CA    YPYPY   005500360039
BI00B32CH    SJ22063SMW     202205267289-3342-30             HOUSING FEMALE ASS'Y     CCN000002400000002400FN00000000020220601000002400NNMD0420220411151039    1N0N  00000240000000686400000901432CH    SJSAMIJF005500360039
BI00B32CH    SJ22064SMW     202206027289-3342-30             HOUSING FEMALE ASS'Y     CCN000007200000007200FN00000000020220601000007200NNMD0420220411151058    1N0N  00000240000000686400000901432CH    SJSAMIJF005500360039
BI00B32CJ    JQN2041        202204127327-6987-3W             BATTERY FUSE             CCN000002000000001872FN00000000020220401000001872NNM00020220411171718    4N0N  00000007200000511300000711532CJ    QNYHVQN 005500360039
BI00B32CJ    JQN2053        202205267327-6987-3W             BATTERY FUSE             CCN000001080000000720FN00000000020220501000000720NNMD0420220411142250    4N0N  00000007200000511300000711532CJ    QNYHVQN 005500360039
BI00B32CJ    JQN2061        202205137289-3342                HOUSING FEMALE ASS'Y     CCN000024000000024000FN00000000020220601000024000NNMD0420220411170055    1N0N  00000240000000686400000901432CJ    QNYHVQN 005500360039
BI00B32CJ    JQN2062        202205207289-3342                HOUSING FEMALE ASS'Y     CCN000016800000016800FN00000000020220601000016800NNMD0420220411170233    1N0N  00000240000000686400000901432CJ    QNYHVQN 005500360039
BI00B32CJ    JQN2063        202205277289-3342                HOUSING FEMALE ASS'Y     CCN000016800000016800FN00000000020220601000016800NNMD0420220411170322    1N0N  00000240000000686400000901432CJ    QNYHVQN 005500360039
BI00B32CJ    JQN2064        202206037289-3342                HOUSING FEMALE ASS'Y     CCN000014400000014400FN00000000020220601000014400NNMD0420220411170703    1N0N  00000240000000686400000901432CJ    QNYHVQN 005500360039
BI00B32CJ    JQN2061        202205137289-3342-30             HOUSING FEMALE ASS'Y     CCN000009600000009600FN00000000020220601000009600NNMD0420220411170110    1N0N  00000240000000686400000901432CJ    QNYHVQN 005500360039
BI00B32CJ    JQN2062        202205207289-3342-30             HOUSING FEMALE ASS'Y     CCN000009600000009600FN00000000020220601000009600NNMD0420220411170233    1N0N  00000240000000686400000901432CJ    QNYHVQN 005500360039
BI00B32CJ    JQN2063        202205277289-3342-30             HOUSING FEMALE ASS'Y     CCN000009600000009600FN00000000020220601000009600NNMD0420220411170322    1N0N  00000240000000686400000901432CJ    QNYHVQN 005500360039
BI00B32CJ    JQN2064        202206037289-3342-30             HOUSING FEMALE ASS'Y     CCN000019200000019200FN00000000020220601000019200NNMD0420220411170724    1N0N  00000240000000686400000901432CJ    QNYHVQN 005500360039
BI00B32CJ    JQN2061        202205137289-3342-90             HOUSING FEMALE ASS'Y     CCN000007200000007200FN00000000020220601000007200NNMD0420220411170114    1N0N  00000240000000686400000901432CJ    QNYHVQN 005500360039
BI00B32CJ    JQN2062        202205207289-3342-90             HOUSING FEMALE ASS'Y     CCN000009600000009600FN00000000020220601000009600NNMD0420220411170233    1N0N  00000240000000686400000901432CJ    QNYHVQN 005500360039
BI00B32CJ    JQN2063        202205277289-3342-90             HOUSING FEMALE ASS'Y     CCN000007200000007200FN00000000020220601000007200NNMD0420220411170322    1N0N  00000240000000686400000901432CJ    QNYHVQN 005500360039
BI00B32CJ    JQN2064        202206037289-3342-90             HOUSING FEMALE ASS'Y     CCN000007200000007200FN00000000020220601000007200NNMD0420220411170724    1N0N  00000240000000686400000901432CJ    QNYHVQN 005500360039
BI00B32CJ    JQN2061        202206027289-3342                HOUSING FEMALE ASS'Y     CCN000012000000000000FY00000000020220601000000000NNMD0420220411170055    1N0N  00000240000000686400000901432CJ    QNYHVQN 005500360039
BI00B32CJ    JQN2062        202206177289-3342                HOUSING FEMALE ASS'Y     CCN000009600000000000FY00000000020220601000000000NNMD0420220411170233    1N0N  00000240000000686400000901432CJ    QNYHVQN 005500360039
BI00B32CJ    JQN2063        202207017289-3342                HOUSING FEMALE ASS'Y     CCN000009600000000000FY00000000020220601000000000NNMD0420220411170322    1N0N  00000240000000686400000901432CJ    QNYHVQN 005500360039
BI00B32CJ    JQN2064        202206037289-3342                HOUSING FEMALE ASS'Y     CCN000007200000000000FY00000000020220601000000000NNMD0420220411170703    1N0N  00000240000000686400000901432CJ    QNYHVQN 005500360039
BI00A32CJ    JQN2053        202204117327-6987-3W             BATTERY FUSE             CCN000000360000000360FY00000036020220501000000000NNMM0020220411162307    4N0N  00000007200000511300000711532CJ    QNYHVQN 005500360039
BI00A32DA    SBT2203        202204217289-3342-30             HOUSING FEMALE ASS'Y     CCN000079200000052800FN00000000020220301000052800NNMM0020220411121421    1N0N  00000240000000686400000901432DA    GBYIPLGB005500360039
BI00A32DA    SBT2203A       202204287289-3342-30             HOUSING FEMALE ASS'Y     CCN000019200000019200FN00000000020220301000019200NNMD0420220411140720    1N0N  00000240000000686400000901432DA    GBYIPLGB005500360039
BI00B32DA    SBT2206        202204287289-3342-30             HOUSING FEMALE ASS'Y     CCN000049500000050400FN00000000020220601000050400NNMD0420220411121421    1N0N  00000240000000686400000901432DA    GBYIPLGB005500360039
BI00B32DA    SBT2206A       202205057289-3342-30             HOUSING FEMALE ASS'Y     CCN000049500000050400FN00000000020220601000050400NNMD0420220411121421    1N0N  00000240000000686400000901432DA    GBYIPLGB005500360039
BI00B32DA    SBT2206        202207077286-3885-40             CONNECTOR MALE ASS'Y     CCN000049625000012000FN00000000020220601000012000NNMD0420220411144058    1N0N  00000120000000910600001130632DA    GBYIPLGB005500360039
BI00B32DA    SBT2206A       202208047286-3885-40             CONNECTOR MALE ASS'Y     CCN000049625000012000FN00000000020220601000012000NNMD0420220411144150    1N0N  00000120000000910600001130632DA    GBYIPLGB005500360039
BI00B32DA    SBT2206        202207147286-3885-40             CONNECTOR MALE ASS'Y     CCN000013200000013200FN00000000020220601000013200NNMD0420220411144058    1N0N  00000120000000910600001130632DA    GBYIPLGB005500360039
BI00B32DA    SBT2206        202207217286-3885-40             CONNECTOR MALE ASS'Y     CCN000012000000012000FN00000000020220601000012000NNMD0420220411144058    1N0N  00000120000000910600001130632DA    GBYIPLGB005500360039
BI00B32DA    SBT2206        202207277286-3885-40             CONNECTOR MALE ASS'Y     CCN000013200000013200FN00000000020220601000013200NNMD0420220411144058    1N0N  00000120000000910600001130632DA    GBYIPLGB005500360039
BI00B32DA    SBT2206A       202208117286-3885-40             CONNECTOR MALE ASS'Y     CCN000013200000013200FN00000000020220601000013200NNMD0420220411144150    1N0N  00000120000000910600001130632DA    GBYIPLGB005500360039
BI00B32DA    SBT2206A       202208187286-3885-40             CONNECTOR MALE ASS'Y     CCN000012000000012000FN00000000020220601000012000NNMD0420220411144150    1N0N  00000120000000910600001130632DA    GBYIPLGB005500360039
BI00B32DA    SBT2206A       202208257286-3885-40             CONNECTOR MALE ASS'Y     CCN000013200000013200FN00000000020220601000013200NNMD0420220411144150    1N0N  00000120000000910600001130632DA    GBYIPLGB005500360039
BI00B32DE    TCT2061        202205197289-3342-30             HOUSING FEMALE ASS'Y     CCN000036000000036000FN00000000020220601000036000NNMD0420220411150127    1N0N  00000240000000686400000901432DE    TVYEV-TV005500360039
BI00B32DE    TCT2062        202205267289-3342-30             HOUSING FEMALE ASS'Y     CCN000036000000036000FN00000000020220601000036000NNMD0420220411150140    1N0N  00000240000000686400000901432DE    TVYEV-TV005500360039
BI00B32DE    TCT2063        202206027289-3342-30             HOUSING FEMALE ASS'Y     CCN000036000000036000FN00000000020220601000036000NNMD0420220411150152    1N0N  00000240000000686400000901432DE    TVYEV-TV005500360039
BI00B32DE    TCT2064        202206097289-3342-30             HOUSING FEMALE ASS'Y     CCN000048000000048000FN00000000020220601000048000NNMD0420220411150202    1N0N  00000240000000686400000901432DE    TVYEV-TV005500360039
BI00B32DG    RP2061         202205197289-3342-30             HOUSING FEMALE ASS'Y     CCN000009600000009600FN00000000020220601000009600NNMD0420220411145001    1N0N  00000240000000686400000901432DG    BFSAIBF 005500360039
BI00B32DG    RP2062         202205267289-3342-30             HOUSING FEMALE ASS'Y     CCN000004800000004800FN00000000020220601000004800NNMD0420220411145013    1N0N  00000240000000686400000901432DG    BFSAIBF 005500360039
BI00B32DG    RP2063         202206027289-3342-30             HOUSING FEMALE ASS'Y     CCN000004800000004800FN00000000020220601000004800NNMD0420220411145027    1N0N  00000240000000686400000901432DG    BFSAIBF 005500360039
BI00B32DJ    GHT2206B 1     202210277289-3342-30             HOUSING FEMALE ASS'Y     CCN000004800000004800FN00000000020220601000004800NNMD0420220411145051    1N0N  00000240000000686400000901432DJ    RBYIPLRB005500360039
BI00B32DJ    GHT2206B 2     202210277289-3342-30             HOUSING FEMALE ASS'Y     CCN000004800000004800FN00000000020220601000004800NNMD0420220411145108    1N0N  00000240000000686400000901432DJ    RBYIPLRB005500360039
BI00B32D1    DFTC2227       202205197289-3342-30             HOUSING FEMALE ASS'Y     CCN000081600000081600FN00000000020220701000081600NNMD0420220411151114    1N0N  00000240000000686400000901432D1    TOYOT-K 005500360039
BI00B32D2    DGTC2226       202205127289-3342-40             HOUSING FEMALE ASS'Y     CCN000002400000002400FN00000000020220701000002400NNMD0420220411150711    1N0N  00000240000000686400000901432D2    TGYOT-G 005500360039
BI00B32D2    DGTC2227       202205267289-3342-30             HOUSING FEMALE ASS'Y     CCN000028800000028800FN00000000020220701000028800NNMD0420220411151137    1N0N  00000240000000686400000901432D2    TGYOT-G 005500360039
BI00A32D9    #I242A         202204287289-2915-30             HOUSING FEMALE ASS'Y     CCN000007500000007500FN00000000020220401000007500NNED0720220411152641    2N0N  00000150000000964500001091532D9    UEHESTO 005400370024
BI00A32EJ    T220323P01     202204127158-3167-61             WIRE SEAL                CCN000060000000060000FN00000000020220401000060000NNEM0020220411135344EJ  1C0C  00002000000000048000000096432EJ    EJYKBO  004300270014
BI00B32EJ    T220408P01     202205127116-1686-02             TERMINAL                 CCN000021000000021000FN00000000020220501000021000NNE   20220411121421EJ  4P0P  00002100000000869400001021632EJ    EJYKBO  005100280028
BI00B32EJ    T220408P02     202205127116-4101-02             TERMINAL                 CCN000012000000012000FN00000000020220501000012000NNE   20220411121421EJ  4P0P  00001200000000582000000876232EJ    EJYKBO  006400630015
BI00B32EJ    T220408P02     202205127116-4102-02             TERMINAL                 CCN000024000000024000FN00000000020220501000024000NNE   20220411121421EJ  4P0P  00001200000000553200000841432EJ    EJYKBO  006400630015
BI00B32EJ    T220408P02     202205127116-4120-02             TERMINAL                 CCN000018000000018000FN00000000020220501000018000NNE   20220411121421EJ  4P0P  00000600000000780000001073632EJ    EJYKBO  006400630015
BI00B32EJ    T220408P02     202205127116-4122-02             TERMINAL                 CCN000018000000018000FN00000000020220501000018000NNE   20220411121421EJ  4P0P  00000450000000656600000950232EJ    EJYKBO  006400630015
BI00B32EJ    T220408P02     202205127116-5751-02             TERMINAL                 CCN000024000000024000FN00000000020220501000024000NNE   20220411121421EJ  4P0P  00001200000000379200000664432EJ    EJYKBO  006400630015
BI00B32EJ    T220408P02     202205127158-3070-80             RUBBER STOPPER           CCN000200000000200000FN00000000020220501000200000NNE   20220411121421EJ  1C0C  00004000000000276000000333332EJ    EJYKBO  002700430014
BI00B32EJ    T220408P02     202205127283-7028-30             CONNECTOR                CCN000003000000003000FN00000000020220501000003000NNE   20220411121421EJ  4N0N  00000300000001452000001681332EJ    EJYKBO  005600390040
BI00B32EJ    #T220408P02    202205127123-6423-30             CONNECTOR                CCN000006000000006000FN00000000020220501000006000NNE   20220411121421EJ  2F0F  00000200000001002000001167632EJ    EJYKBO  005600390023
BI00B32EJ    #T220408P02    202205127157-3821                RUBBER STOPPER           CCN000020000000020000FN00000000020220501000020000NNE   20220411121421EJ  2C0C  00002000000000176000000238032EJ    EJYKBO  002700430014
BI00B32EJ    #T220408P02    202205127283-8398-40             CONNECTOR                CCN000007700000007700FN00000000020220501000007700NNE   20220411121421EJ  2N0N  00000154000001007000001171332EJ    EJYKBO  005600390023
BI00A32EJ    #T220408P03    202204217283-8398-40             CONNECTOR                CCN000007700000007700FN00000000020220401000007700NNE   20220411121421EJ  2N0N  00000154000001007000001171332EJ    EJYKBO  005600390023
BI00B32EJ    T220408P04     202205127114-4100-02             TERMINAL                 CCN000180000000180000FN00000000020220501000180000NNE   20220411121421EJ  4P0P  00001800000000748800001077432EJ    EJYKBO  006400630017
BI00B32EJ    T220408P04     202205127114-4101-02             TERMINAL                 CCN000150000000150000FN00000000020220501000150000NNE   20220411121421EJ  4P0P  00001500000000675000001003632EJ    EJYKBO  006400630017
BI00B32EJ    T220408P04     202205127116-4022                TERMINAL                 CCN000067500000067500FN00000000020220501000067500NNE   20220411121421EJ  4P0P  00001350000000618300000903532EJ    EJYKBO  006400630015
BI00B32EJ    T220408P04     202205127116-4025                TERMINAL                 CCN000032000000032000FN00000000020220501000032000NNE   20220411121421EJ  4P0P  00001600000000644800000975132EJ    EJYKBO  006400630017
BI00B32EJ    T220408P04     202205127283-5843                CONNECTOR                CCN000030000000030000FN00000000020220501000030000NNE   20220411121421EJ  1N0N  00000150000000889000001132032EJ    EJYKBO  005600390040
BI00B32G2    SA22061 MW     202205187289-3342                HOUSING FEMALE ASS'Y     CCN000016800000016800FN00000000020220601000016800NNMD0420220411144739    1N0N  00000240000000686400000901432G2    AISUAI  005500360039
BI00B32G2    SA22062 MW     202205257289-3342                HOUSING FEMALE ASS'Y     CCN000014400000014400FN00000000020220601000014400NNMD0420220411144752    1N0N  00000240000000686400000901432G2    AISUAI  005500360039
BI00B32G2    SA22063 MW     202206017289-3342                HOUSING FEMALE ASS'Y     CCN000009600000009600FN00000000020220601000009600NNMD0420220411144805    1N0N  00000240000000686400000901432G2    AISUAI  005500360039
BI00B32G2    SA22064 MW     202206087289-3342                HOUSING FEMALE ASS'Y     CCN000007200000007200FN00000000020220601000007200NNMD0420220411144816    1N0N  00000240000000686400000901432G2    AISUAI  005500360039
BI00B32G2    SA22061 MW     202205187289-3342-30             HOUSING FEMALE ASS'Y     CCN000050400000050400FN00000000020220601000050400NNMD0420220411145127    1N0N  00000240000000686400000901432G2    AISUAI  005500360039
BI00B32G2    SA22062 MW     202205257289-3342-30             HOUSING FEMALE ASS'Y     CCN000043200000043200FN00000000020220601000043200NNMD0420220411145352    1N0N  00000240000000686400000901432G2    AISUAI  005500360039
BI00B32G2    SA22063 MW     202206017289-3342-30             HOUSING FEMALE ASS'Y     CCN000036000000036000FN00000000020220601000036000NNMD0420220411145406    1N0N  00000240000000686400000901432G2    AISUAI  005500360039
BI00B32G2    SA22064 MW     202206087289-3342-30             HOUSING FEMALE ASS'Y     CCN000026400000026400FN00000000020220601000026400NNMD0420220411145418    1N0N  00000240000000686400000901432G2    AISUAI  005500360039
BI00B32G2    #SA2206A MW    202205187172-5630-40             RUBBER STOPPER           CCN000020000000020000FN00000000020220601000020000NNE   20220411155739    2H0H  00002000000000044000000095132G2    AISUAI  004300270014
BI00B32G2    #SA2206A MW    202205187172-5632-10             DUMMY PLUG               CCN000020000000020000FN00000000020220601000020000NNE   20220411155739    2H0H  00002000000000080400000131832G2    AISUAI  004300270014
BI00B32G7    JJ22061 MW     202205267289-3342-30             HOUSING FEMALE ASS'Y     CCN000028800000028800FN00000000020220601000028800NNMD0420220411150217    1N0N  00000240000000686400000901432G7    JIJAI   005500360039
BI00B32G7    JJ22062 MW     202206027289-3342-30             HOUSING FEMALE ASS'Y     CCN000026400000026400FN00000000020220601000026400NNMD0420220411150228    1N0N  00000240000000686400000901432G7    JIJAI   005500360039
BI00B32G7    JJ22063 MW     202206097289-3342-30             HOUSING FEMALE ASS'Y     CCN000028800000028800FN00000000020220601000028800NNMD0420220411150239    1N0N  00000240000000686400000901432G7    JIJAI   005500360039
BI00B32G7    JJ22064 MW     202206167289-3342-30             HOUSING FEMALE ASS'Y     CCN000028800000028800FN00000000020220601000028800NNMD0420220411150255    1N0N  00000240000000686400000901432G7    JIJAI   005500360039
BI00B32G7    JJ22061MMW     202205267289-3342                HOUSING FEMALE ASS'Y     CCN000009600000009600FN00000000020220601000009600NNMD0420220411145935    1N0N  00000240000000686400000901432G7    JIJAI   005500360039
BI00B32G7    JJ22062MMW     202206027289-3342                HOUSING FEMALE ASS'Y     CCN000007200000007200FN00000000020220601000007200NNMD0420220411145947    1N0N  00000240000000686400000901432G7    JIJAI   005500360039
BI00B32G7    JJ22063MMW     202206097289-3342                HOUSING FEMALE ASS'Y     CCN000007200000007200FN00000000020220601000007200NNMD0420220411145959    1N0N  00000240000000686400000901432G7    JIJAI   005500360039
BI00B32G7    JJ22064MMW     202206167289-3342                HOUSING FEMALE ASS'Y     CCN000007200000007200FN00000000020220601000007200NNMD0420220411150011    1N0N  00000240000000686400000901432G7    JIJAI   005500360039
BI00B32G8    PATA2061A      202205117124-2700                RELAY BLOCK              CCN000000072000000072FN00000000020220601000000072NNE   20220411154214    4F0F  00000007200000974000001149032G8    PSPASI  005600390040
BI00B32G8    #PATA2061A     202205117124-1026-30             PROTECTOR                CCN000000010000003000FN00000000020220601000003000NNE   20220411154204    2F0F  00000300000000828000000986032G8    PSPASI  005500360039
BI00T32H2    @TIJ206C-I     202206237282-1148                CONNECTOR ASS'Y          CCN000002400000002400FN00000000020220601000002400NNE   20220411153305    3N0N  00000080000001165300001404032H2    HVYHV   005500360039
BI00T32H2    @TIJ206C-I     202206237282-1148-40             CONNECTOR ASS'Y          CCN000002400000002400FN00000000020220601000002400NNE   20220411153305    3N0N  00000080000001171200001402032H2    HVYHV   005500360039
BI00T32H2    @TIJ206B-I     202206167283-1556                CONNECTOR ASS'Y          CCN000016800000016800FN00000000020220601000016800NNE   20220411153305    3N0N  00000240000000755000001014032H2    HVYHV   005500360039
BI00A32M1    TCV2043        202204117289-3342                HOUSING FEMALE ASS'Y     PCN000096000000048000FY00004800020220401000000000NNM00020220411153655    1N0N  00000240000000686400000901432M1    VNYEV   005500360039
BI00B32M1    TCV2061        202205197289-3342                HOUSING FEMALE ASS'Y     CCN000079200000079200FN00000000020220601000079200NNMD0420220411150027    1N0N  00000240000000686400000901432M1    VNYEV   005500360039
BI00B32M1    TCV2062        202205267289-3342                HOUSING FEMALE ASS'Y     CCN000112800000112800FN00000000020220601000112800NNMD0420220411150042    1N0N  00000240000000686400000901432M1    VNYEV   005500360039
BI00B32M1    TCV2063        202206027289-3342                HOUSING FEMALE ASS'Y     CCN000120000000120000FN00000000020220601000120000NNMD0420220411150054    1N0N  00000240000000686400000901432M1    VNYEV   005500360039
BI00B32M1    TCV2064        202206097289-3342                HOUSING FEMALE ASS'Y     CCN000098400000098400FN00000000020220601000098400NNMD0420220411150105    1N0N  00000240000000686400000901432M1    VNYEV   005500360039
BI00B32M1    TCV2061        202205197289-3342-30             HOUSING FEMALE ASS'Y     CCN000062400000062400FN00000000020220601000062400NNMD0420220411150314    1N0N  00000240000000686400000901432M1    VNYEV   005500360039
BI00B32M1    TCV2062        202205267289-3342-30             HOUSING FEMALE ASS'Y     CCN000055200000055200FN00000000020220601000055200NNMD0420220411150325    1N0N  00000240000000686400000901432M1    VNYEV   005500360039
BI00B32M1    TCV2063        202206027289-3342-30             HOUSING FEMALE ASS'Y     CCN000064800000064800FN00000000020220601000064800NNMD0420220411150335    1N0N  00000240000000686400000901432M1    VNYEV   005500360039
BI00B32M1    TCV2064        202206097289-3342-30             HOUSING FEMALE ASS'Y     CCN000064800000064800FN00000000020220601000064800NNMD0420220411150348    1N0N  00000240000000686400000901432M1    VNYEV   005500360039
BI00B32M1    TCV2061        202205197289-3342-40             HOUSING FEMALE ASS'Y     CCN000033600000033600FN00000000020220601000033600NNMD0420220411150726    1N0N  00000240000000686400000901432M1    VNYEV   005500360039
BI00B32M1    TCV2062        202205267289-3342-40             HOUSING FEMALE ASS'Y     CCN000033600000033600FN00000000020220601000033600NNMD0420220411150741    1N0N  00000240000000686400000901432M1    VNYEV   005500360039
BI00B32M1    TCV2063        202206027289-3342-40             HOUSING FEMALE ASS'Y     CCN000033600000033600FN00000000020220601000033600NNMD0420220411150754    1N0N  00000240000000686400000901432M1    VNYEV   005500360039
BI00B32M1    TCV2064        202206097289-3342-40             HOUSING FEMALE ASS'Y     CCN000033600000033600FN00000000020220601000033600NNMD0420220411150805    1N0N  00000240000000686400000901432M1    VNYEV   005500360039
BI00B32M1    TCV2061        202205197289-3342-90             HOUSING FEMALE ASS'Y     CCN000024000000024000FN00000000020220601000024000NNMD0420220411150826    1N0N  00000240000000686400000901432M1    VNYEV   005500360039
BI00B32M1    TCV2062        202205257289-3342-90             HOUSING FEMALE ASS'Y     CCN000048000000048000FN00000000020220601000048000NNMD0420220411150845    1N0N  00000240000000686400000901432M1    VNYEV   005500360039
BI00B32M1    TCV2063        202206027289-3342-90             HOUSING FEMALE ASS'Y     CCN000024000000024000FN00000000020220601000024000NNMD0420220411150857    1N0N  00000240000000686400000901432M1    VNYEV   005500360039
BI00B32M1    TCV2064        202206097289-3342-90             HOUSING FEMALE ASS'Y     CCN000048000000048000FN00000000020220601000048000NNMD0420220411150910    1N0N  00000240000000686400000901432M1    VNYEV   005500360039
BI00A32M1    TCV2043        202204187289-3342                HOUSING FEMALE ASS'Y     PCN000048000000048000FN00000000020220401000048000NNM00020220411153655    1N0N  00000240000000686400000901432M1    VNYEV   005500360039
BI00B32M3    SM22061DMW     202205127289-3342-30             HOUSING FEMALE ASS'Y     CCN000012000000012000FN00000000020220601000012000NNMD0420220411145438    1N0N  00000240000000686400000901432M3    SASAMI  005500360039
BI00B32M3    SM22062DMW     202205197289-3342-30             HOUSING FEMALE ASS'Y     CCN000009600000009600FN00000000020220601000009600NNMD0420220411145450    1N0N  00000240000000686400000901432M3    SASAMI  005500360039
BI00B32M3    SM22063DMW     202205267289-3342-30             HOUSING FEMALE ASS'Y     CCN000004800000004800FN00000000020220601000004800NNMD0420220411145503    1N0N  00000240000000686400000901432M3    SASAMI  005500360039
BI00B32M3    #SM2205AEMW    202205057289-2915-30             HOUSING FEMALE ASS'Y     CCN000001500000001500FN00000000020220501000001500NNE   20220411145357    2N0N  00000150000000964500001091532M3    SASAMI  005400370024
BI00B32M3    #SM2205AHMW    202205057035-7982-30             DASH GROMMET             CCN000000240000000240FN00000000020220501000000240NNE   20220411145416    2H0H  00000012000001056000001179032M3    SASAMI  005600390040
BI00B32M4    TP2061         202205197289-3342-30             HOUSING FEMALE ASS'Y     CCN000016800000016800FN00000000020220601000016800NNMD0420220411145521    1N0N  00000240000000686400000901432M4    SISAI   005500360039
BI00B32M4    TP2062         202205267289-3342-30             HOUSING FEMALE ASS'Y     CCN000009600000009600FN00000000020220601000009600NNMD0420220411145531    1N0N  00000240000000686400000901432M4    SISAI   005500360039
BI00B32M4    TP2063         202206027289-3342-30             HOUSING FEMALE ASS'Y     CCN000009600000009600FN00000000020220601000009600NNMD0420220411145542    1N0N  00000240000000686400000901432M4    SISAI   005500360039
BI00B32M8    PM22061 MW     202205187289-3342-30             HOUSING FEMALE ASS'Y     CCN000007200000007200FN00000000020220601000007200NNMD0420220411145558    1N0N  00000240000000686400000901432M8    PMPEMI  005500360039
BI00B32M8    PM22062 MW     202205257289-3342-30             HOUSING FEMALE ASS'Y     CCN000007200000007200FN00000000020220601000007200NNMD0420220411145608    1N0N  00000240000000686400000901432M8    PMPEMI  005500360039
BI00B32M8    PM22063 MW     202206017289-3342-30             HOUSING FEMALE ASS'Y     CCN000007200000007200FN00000000020220601000007200NNMD0420220411145622    1N0N  00000240000000686400000901432M8    PMPEMI  005500360039
BI00A32N3    NBT203 A4      202204117289-3342-30             HOUSING FEMALE ASS'Y     PCN000009600000009600FY00000960020220301000000000NNMD0420220411153031    1N0N  00000240000000686400000901432N3    ABYIPL-B005500360039
BI00B32R7    R-TAP220174    202205197183-8255-40             HOUSING                  CCN000013200000013200FN00000000020220501000013200NNED0720220411163104    1F0F  00000120000000552000000853732R7    IVYCIC  005500360039
BI00B32R7    R-TAP220174    202205197183-8256-40             HOUSING                  CCN000013200000013200FN00000000020220501000013200NNED0720220411163122    1F0F  00000120000000937000001045732R7    IVYCIC  005500360039
BI00B32R7    R-TAP220175    202205197298-1186-40             SQUIB SUB ASS'Y          CCN000150000000150000FN00000000020220501000150000NNED0420220411163140    4N0N  00001000000000650000000774532R7    IVYCIC  005400370024
BI00B32R7    #R-TAP220177   202205057283-8397-40             CONNECTOR                CCN000006160000006160FN00000000020220401000006160NNED0720220411121421    2N0N  00000154000001007000001222732R7    IVYCIC  005600390023
BI00B32R7    R-TAP220176    202205057116-4122-02             TERMINAL                 CCN000004500000004500FN00000000020220501000004500NNED0720220411121421    4P0P  00000450000000656600000950232R7    IVYCIC  006400630015
BI00B32R7    #R-TAP220176   202205057186-8845-60             HOUSING MALE             CCN000006000000006000FN00000000020220501000006000NNED0720220411121421    2F0F  00000300000000690000000801532R7    IVYCIC  005400370024
BI00B32R7    R-TAP220178    202205057158-3169-40             SEALING PLUG             CCN000200000000200000FN00000000020220501000200000NNE   20220411121421    1C0C  00004000000000156000000204132R7    IVYCIC  004300260014
BI00B32R7    R-TAP220179    202205057158-3006-90             RUBBER STOPPER           CCN000100000000100000FN00000000020220501000100000NNE   20220411121421    1C0C  00002000000000330600000386032R7    IVYCIC  002700430014
BI00B32R7    R-TAP220180    202205057116-4025                TERMINAL                 CCN000080000000080000FN00000000020220501000080000NNE   20220411121421    4P0P  00001600000000644800000975132R7    IVYCIC  006400630017
BI00B32R7    R-TAP220180    202205057158-3006-90             RUBBER STOPPER           CCN000140000000140000FN00000000020220501000140000NNE   20220411121421    1C0C  00002000000000330600000386032R7    IVYCIC  002700430014
BI00B32R7    R-TAP220180    202205057158-3169-40             SEALING PLUG             CCN000120000000120000FN00000000020220501000120000NNE   20220411121421    1C0C  00004000000000156000000204132R7    IVYCIC  004300260014
BI00B32U5    DI2026         202205277289-3342                HOUSING FEMALE ASS'Y     CCN000004800000004800FN00000000020220801000004800NNM   20220411133558U5  1N0N  00000240000000686400000901432U5    AMAMSD  005500360039
BI00B32U5    DI2026         202205277114-4486-02             TERMINAL                 CCN000024000000024000FN00000000020220801000024000NNM   20220411133558U5  4P0P  00002400000000662400000956032U5    AMAMSD  006400630015
BI00B32U5    DI2026         202205277116-4486-02             TERMINAL                 CCN000140000000140000FN00000000020220801000140000NNM   20220411133558U5  4P0P  00002800000000666400000995132U5    AMAMSD  006400630017
BI00B32U5    DI2026         202205277116-5045-02             TERMINAL                 CCN000336000000336000FN00000000020220801000336000NNM   20220411133558U5  4P0P  00001600000000678400001007132U5    AMAMSD  006400630017
BI00B32U5    DI2026         202205277116-5046-02             TERMINAL                 CCN000288000000288000FN00000000020220801000288000NNM   20220411133558U5  4P0P  00001200000000544800000873532U5    AMAMSD  006400630017
BI00B32U5    DI2026         202205277288-3339-30             HOUSING MALE             CCN000004500000004500FN00000000020220801000004500NNM   20220411133558U5  4N0N  00000150000000867000001012032U5    AMAMSD  005400370024
BI00B32U5    DI2026         202205277289-3342-30             HOUSING FEMALE ASS'Y     CCN000009600000009600FN00000000020220801000009600NNM   20220411133558U5  1N0N  00000240000000686400000901432U5    AMAMSD  005500360039
BI00B32U5    DI2026         202205277388-2978-30             HOUSING MALE ASS'Y       CCN000005280000005280FN00000000020220801000005280NNM   20220411133558U5  1N0N  00000048000000742000001122032U5    AMAMSD  005500360039
BI00B32U5    DI2026         202205277327-6731-3W             BATTERY FUSE             CCN000005888000005888FN00000000020220801000005888NNM   20220411133558U5  4N0N  00000006400000697600000843032U5    AMAMSD  005400370024
BI00B32U5    #DI2026        202205277157-3821                RUBBER STOPPER           CCN000040000000040000FN00000000020220801000040000NNM   20220411133551U5  2C0C  00002000000000176000000238032U5    AMAMSD  002700430014
BI00B32U5    #DI2026        202205277158-3017                RUBBER STOPPER           CCN000050000000050000FN00000000020220801000050000NNM   20220411133551U5  2C0C  00001000000000375500000435032U5    AMAMSD  002700430014
BI00B32U5    #DI2026        202205277189-3032                HOUSING FEMALE           CCN000012800000012800FN00000000020220801000012800NNM   20220411133551U5  2F0F  00000160000000788400001018432U5    AMAMSD  005500360039
BI00B32U5    #DI2026        202205277287-7859                HYBRID FEMALE ASS'Y      CCN000012000000012000FN00000000020220801000012000NNM   20220411133551U5  2N0N  00000120000000461600000671632U5    AMAMSD  005500360039
BI00B32U5    #DI2026        202205277158-3004-40             RUBBER STOPPER           CCN000020000000020000FN00000000020220801000020000NNM   20220411133551U5  2C0C  00002000000000234000000306332U5    AMAMSD  002700430014
BI00B32U5    #DI2026        202205277158-3007-10             RUBBER STOPPER           CCN000200000000200000FN00000000020220801000200000NNM   20220411133551U5  2H0H  00002000000000308000000362732U5    AMAMSD  002700430014
BI00B32U5    #DI2026        202205277158-3008-80             RUBBER STOPPER           CCN000200000000200000FN00000000020220801000200000NNM   20220411133551U5  2C0C  00002000000000288000000343032U5    AMAMSD  004300270014
BI00B32U5    #DI2026        202205277158-3376-50             CONNECTOR WIRE SEAL      CCN000080000000080000FN00000000020220801000080000NNM   20220411133551U5  2C0C  00002000000000184000000240732U5    AMAMSD  002700430014
BI00B32U5    #DI2026        202205277172-5629-80             RUBBER STOPPER           CCN000160000000160000FN00000000020220801000160000NNM   20220411133551U5  2H0H  00002000000000060000000111132U5    AMAMSD  004300270014
BI00B32U5    #DI2026        202205277182-8253-40             HOUSING                  CCN000004800000004800FN00000000020220801000004800NNM   20220411133551U5  2F0F  00000120000000573000000864032U5    AMAMSD  005600390040
BI00B32U5    #DI2026        202205277183-8252-40             HOUSING                  CCN000009600000009600FN00000000020220801000009600NNM   20220411133551U5  2F0F  00000240000000454000000729032U5    AMAMSD  005500360039
BI00B32U5    #DI2026        202205277189-2978-30             HOUSING FEMALE           CCN000006000000006000FN00000000020220801000006000NNM   20220411133551U5  2F0F  00000150000000966900001096932U5    AMAMSD  005400370024
BI00B32U5    #DI2026        202205277282-6446-40             CONNECTOR                CCN000003000000003000FN00000000020220801000003000NNM   20220411133551U5  2N0N  00000150000001185000001368032U5    AMAMSD  005500360039
BI00B32U5    #DI2026        202205277289-4200-30             HOUSING FEMALE ASS'Y     CCN000032000000032000FN00000000020220801000032000NNM   20220411133551U5  2N0N  00000200000000926000001021032U5    AMAMSD  005400370024
BI00B32U5    DI2021A        202205277288-3339-30             HOUSING MALE             CCN000001500000001500FN00000000020220701000001500NNE   20220411160024U5  4N0N  00000150000000867000001012032U5    AMAMSD  005400370024
BI00B32U5    DI2021A        202205277289-3342-30             HOUSING FEMALE ASS'Y     CCN000012000000012000FN00000000020220701000012000NNE   20220411160024U5  1N0N  00000240000000686400000901432U5    AMAMSD  005500360039
BI00B32U5    DI2021A        202205277388-2978-30             HOUSING MALE ASS'Y       CCN000002880000002880FN00000000020220701000002880NNE   20220411160024U5  1N0N  00000048000000742000001122032U5    AMAMSD  005500360039
BI00B32U5    DI2021A        202205277327-6731-3W             BATTERY FUSE             CCN000003648000003648FN00000000020220701000003648NNE   20220411160024U5  4N0N  00000006400000697600000843032U5    AMAMSD  005400370024
BI00B32U5    #DI2021A       202205277287-7859                HYBRID FEMALE ASS'Y      CCN000012000000012000FN00000000020220701000012000NNE   20220411160020U5  2N0N  00000120000000461600000671632U5    AMAMSD  005500360039
BI00B32U5    #DI2021A       202205277182-8253-40             HOUSING                  CCN000004800000004800FN00000000020220701000004800NNE   20220411160020U5  2F0F  00000120000000573000000864032U5    AMAMSD  005600390040
BI00B32U5    #DI2021A       202205277189-2978-30             HOUSING FEMALE           CCN000004500000004500FN00000000020220701000004500NNE   20220411160020U5  2F0F  00000150000000966900001096932U5    AMAMSD  005400370024
BI00B32U9    TP0395S        202205057222-4220-30             CONNECTOR                CCN000006750000006750FN00000000020220601000006750NNE   20220411151630U9  4N0N  00000075000001219000001384032U9    YNYNA-E 005600390040
BI00B32U9    TP0395S        202205057298-1186-40             SQUIB SUB ASS'Y          CCN000030000000030000FN00000000020220601000030000NNE   20220411151630U9  4N0N  00001000000000650000000774532U9    YNYNA-E 005400370024
BI00B32U9    #TP0395S       202205057157-3646                RUBBER STOPPER           CCN000020000000020000FN00000000020220601000020000NNE   20220411151627U9  2H0H  00002000000000184000000255232U9    YNYNA-E 002700430014
BI00B32U9    TPA223         202205057114-4030                TERMINAL                 CCN000010500000010500FN00000000020220601000010500NNM   20220411152232U9  4P0P  00001050000000926100001254732U9    YNYNA-E 006400630017
BI00B32U9    TPA223         202205057114-4032                TERMINAL                 CCN000015000000015000FN00000000020220601000015000NNM   20220411152232U9  4P0P  00000750000000735000001063632U9    YNYNA-E 006400630017
BI00B32U9    TPA223         202205057288-6547                CONNECTOR MALE ASS'Y     CCN000001500000001500FN00000000020220601000001500NNM   20220411152232U9  4N0N  00000075000001205300001340332U9    YNYNA-E 005400370024
BI00B32U9    TPA223         202205057289-6547                HOUSING FEMALE ASS'Y     CCN000002400000002400FN00000000020220601000002400NNM   20220411152232U9  1N0N  00000240000001152000001362032U9    YNYNA-E 005500360039
BI00B32U9    TPA223         202205057114-1670-02             TERMINAL                 CCN000024000000024000FN00000000020220601000024000NNM   20220411152232U9  1P0P  00002400000000357600000645832U9    YNYNA-E 006400630015
BI00B32U9    TPA223         202205057116-1257-02             TERMINAL                 CCN000048000000048000FN00000000020220601000048000NNM   20220411152232U9  1P0P  00002400000000518400000847132U9    YNYNA-E 006400630017
BI00B32U9    TPA223         202205057116-2951-02             TERMINAL                 CCN000016200000016200FN00000000020220601000016200NNM   20220411152232U9  4P0P  00000540000000817600001111832U9    YNYNA-E 006400630015
BI00B32U9    TPA223         202205057116-4060-02             TERMINAL                 CCN000024000000024000FN00000000020220601000024000NNM   20220411152232U9  1P0P  00002400000000511200000984232U9    YNYNA-E 006400630017
BI00B32U9    TPA223         202205057116-4231-02             TERMINAL                 CCN001066000001066000FN00000000020220601001066000NNM   20220411152232U9  4P0P  00002600000000683800001012532U9    YNYNA-E 006400630017
BI00B32U9    TPA223         202205057116-5046-02             TERMINAL                 CCN000012000000012000FN00000000020220601000012000NNM   20220411152232U9  4P0P  00001200000000544800000873532U9    YNYNA-E 006400630017
BI00B32U9    TPA223         202205057158-3006-90             RUBBER STOPPER           CCN000120000000120000FN00000000020220601000120000NNM   20220411152232U9  1C0C  00002000000000330600000386032U9    YNYNA-E 002700430014
BI00B32U9    TPA223         202205057158-3165-90             WIRE SEAL                CCN000240000000240000FN00000000020220601000240000NNM   20220411152232U9  1C0C  00004000000000124000000172432U9    YNYNA-E 004300270014
BI00B32U9    TPA223         202205057158-3166-60             WIRE SEAL                CCN001640000001640000FN00000000020220601001640000NNM   20220411152232U9  1C0C  00004000000000104000000152432U9    YNYNA-E 002700430014
BI00B32U9    TPA223         202205057158-3167-80             WIRE SEAL                CCN000440000000440000FN00000000020220601000440000NNM   20220411152232U9  1C0C  00002000000000048000000109032U9    YNYNA-E 002700430014
BI00B32U9    TPA223         202205057158-3168-80             SEALED                   CCN000020000000020000FN00000000020220601000020000NNM   20220411152232U9  1C0C  00002000000000044000000092132U9    YNYNA-E 004300260014
BI00B32U9    TPA223         202205057158-3169-40             SEALING PLUG             CCN000520000000520000FN00000000020220601000520000NNM   20220411152232U9  1C0C  00004000000000156000000204132U9    YNYNA-E 004300260014
BI00B32U9    TPA223         202205057172-1372-10             FRONT HOLDER             CCN000003900000003900FN00000000020220601000003900NNM   20220411152232U9  4F0F  00000390000000655200000955232U9    YNYNA-E 005500360039
BI00B32U9    TPA223         202205057174-1849-70             COVER                    CCN000025000000025000FN00000000020220601000025000NNM   20220411152232U9  1F0F  00002500000000622500000761932U9    YNYNA-E 005400370024
BI00B32U9    TPA223         202205057196-0805-02             TERMINAL FEMALE          CCN000045000000045000FN00000000020220601000045000NNM   20220411152232U9  4P0P  00002250000000558000000843232U9    YNYNA-E 006400630015
BI00B32U9    TPA223         202205057222-4220-30             CONNECTOR                CCN000004500000004500FN00000000020220601000004500NNM   20220411152232U9  4N0N  00000075000001219000001384032U9    YNYNA-E 005600390040
BI00B32U9    TPA223         202205057282-5574-10             CONNECTOR                CCN000033600000033600FN00000000020220601000033600NNM   20220411152232U9  4N0N  00000080000001235000001423032U9    YNYNA-E 005600390040
BI00B32U9    TPA223         202205057282-7301-40             CONNECTOR                CCN000001500000001500FN00000000020220601000001500NNM   20220411152232U9  4N0N  00000150000001125000001497932U9    YNYNA-E 005500360039
BI00B32U9    TPA223         202205057283-5623-60             CONNECTOR                CCN000003200000003200FN00000000020220601000003200NNM   20220411152232U9  1N0N  00000160000001546000001846332U9    YNYNA-E 005600390040
BI00B32U9    TPA223         202205057283-8599-30             CONNECTOR                CCN000003080000003080FN00000000020220601000003080NNM   20220411152232U9  4N0N  00000154000000947100001157032U9    YNYNA-E 005600390023
BI00B32U9    TPA223         202205057289-4212-80             SEALED HOUSING ASS'Y     CCN000002000000002000FN00000000020220601000002000NNM   20220411152232U9  4N0N  00000200000000848600000978632U9    YNYNA-E 005400370024
BI00B32U9    TPA223         202205057289-6868-30             SEALED ASSY FEMALE       CCN000022680000022680FN00000000020220601000022680NNM   20220411152232U9  4N0N  00000252000000839200001119232U9    YNYNA-E 005500360039
BI00B32U9    TPA223         202205057289-7615-30             HOUSING FEMALE ASS'Y     CCN000001920000001920FN00000000020220601000001920NNM   20220411152232U9  4N0N  00000032000000738000000948032U9    YNYNA-E 005400370024
BI00B32U9    TPA223         202205057298-1186-40             SQUIB SUB ASS'Y          CCN000010000000010000FN00000000020220601000010000NNM   20220411152232U9  4N0N  00001000000000650000000774532U9    YNYNA-E 005400370024
BI00B32U9    TPA223         202205057298-1186-70             SQUIB SUB ASS'Y          CCN000010000000010000FN00000000020220601000010000NNM   20220411152232U9  4N0N  00001000000000650000000774532U9    YNYNA-E 005400370024
BI00B32U9    TPA223         202205057298-1187-30             SHUNT RING ASSEMBLY      CCN000010000000010000FN00000000020220601000010000NNM   20220411152232U9  4N0N  00001000000000647000000769532U9    YNYNA-E 005400370024
BI00B32U9    TPA223         202205057298-1145-4W             SQUIB SUB ASS'Y          CCN000010000000010000FN00000000020220601000010000NNM   20220411152232U9  4N0N  00001000000000787900000944932U9    YNYNA-E 005400370024
BI00B32U9    TPA223         202205057298-1149-3W             SQUIB SUB ASS'Y          CCN000010000000010000FN00000000020220601000010000NNM   20220411152232U9  4N0N  00001000000000785000000922032U9    YNYNA-E 005400370024
BI00B32U9    TPA223         202205057B58-3070-80             RUBBER STOPPER           CCN000080000000080000FN00000000020220601000080000NNM   20220411152232U9  1C0C  00004000000000276000000333032U9    YNYNA-E 004300270014
BI00B32U9    #TPA223        202205057135-6177                GROMMET                  CCN000003200000003200FN00000000020220601000003200NNM   20220411152230U9  2H0H  00000020000001139600001249632U9    YNYNA-E 005600390040
BI00B32U9    #TPA223        202205057147-9094                RETAINER                 CCN000018000000018000FN00000000020220601000018000NNM   20220411152230U9  2F0F  00000300000000717000000872932U9    YNYNA-E 005500360039
BI00B32U9    #TPA223        202205057157-3646                RUBBER STOPPER           CCN000100000000100000FN00000000020220601000100000NNM   20220411152230U9  2H0H  00002000000000184000000255232U9    YNYNA-E 002700430014
BI00B32U9    #TPA223        202205057157-3790-90             WIRE SEAL                CCN000020000000020000FN00000000020220601000020000NNM   20220411152230U9  2C0C  00002000000000176000000232732U9    YNYNA-E 002700430014
BI00B32U9    #TPA223        202205057158-3003-90             RUBBER STOPPER           CCN000040000000040000FN00000000020220601000040000NNM   20220411152230U9  2C0C  00002000000000250000000306032U9    YNYNA-E 002700430014
BI00B32U9    #TPA223        202205057158-3008-80             RUBBER STOPPER           CCN000020000000020000FN00000000020220601000020000NNM   20220411152230U9  2C0C  00002000000000288000000343032U9    YNYNA-E 004300270014
BI00B32U9    #TPA223        202205057158-3376-50             CONNECTOR WIRE SEAL      CCN000200000000200000FN00000000020220601000200000NNM   20220411152230U9  2C0C  00002000000000184000000240732U9    YNYNA-E 002700430014
BI00B32U9    #TPA223        202205057282-6446-40             CONNECTOR                CCN000016500000016500FN00000000020220601000016500NNM   20220411152230U9  2N0N  00000150000001185000001368032U9    YNYNA-E 005500360039
BI00B32U9    #TPA223        202205057282-8395-40             CONNECTOR                CCN000010000000010000FN00000000020220601000010000NNM   20220411152230U9  2N0N  00000100000001009000001188032U9    YNYNA-E 005500360039
BI00B32U9    #TPA223        202205057283-8397-40             CONNECTOR                CCN000009240000009240FN00000000020220601000009240NNM   20220411152230U9  2N0N  00000154000001007000001222732U9    YNYNA-E 005600390023
BI00A32W4    #4500190763    202204187157-3646                RUBBER STOPPER           CCN000020000000020000FN00000000020220501000020000NNED0020220411153532W4422H0H  00002000000000184000000255232W442  HJYHK   002700430014
BI00A32W4    #4500190765    202204187283-8226-30             CONNECTOR                CCN000006000000006000FN00000000020220501000006000NNED0020220411153029W4422N0N  00000200000000820000001008032W442  HJYHK   005400370024
BI00A32W4    4500191120     202204187116-4026                TERMINAL                 CCN000016000000016000FN00000000020220501000016000NNED0020220411130411W4424P0P  00001600000000664000000994332W442  HJYHK   006400630017
BI00A32W4    4500192083     202205237158-3167-80             WIRE SEAL                CCN000040000000040000FN00000000020220501000040000NNE   20220411130147W4A21C0C  00002000000000048000000109032W4A2  HJYHK-J 002700430014
BI00A32W4    4500192083     202205237116-4111-02             TERMINAL                 CCN000007500000007500FN00000000020220501000007500NNE   20220411130147W4A24P0P  00000750000000529500000817732W4A2  HJYHK-J 006400630015
BI00A32W4    #4500192083    202205237147-3642-30             CLIP                     CCN000003000000003000FN00000000020220501000003000NNE   20220411130144W4A22F0F  00000300000000542000000721332W4A2  HJYHK-J 005600390040
BI00A32W4    #4500192083    202205237283-4190-30             CONNECTOR                CCN000001440000001440FN00000000020220501000001440NNE   20220411130144W4A22N0N  00000024000000846000001115532W4A2  HJYHK-J 005600390040
BI00A32W4    4500192084     202205307116-4026                TERMINAL                 CCN000032000000032000FN00000000020220501000032000NNE   20220411130241W4A24P0P  00001600000000664000000994332W4A2  HJYHK-J 006400630017
BI00A32W4    #4500192084    202205307283-8226-30             CONNECTOR                CCN000012000000012000FN00000000020220501000012000NNE   20220411130236W4A22N0N  00000200000000820000001008032W4A2  HJYHK-J 005400370024
BI00A32W4    #4500192084    202205307157-3646                RUBBER STOPPER           CCN000020000000020000FN00000000020220501000020000NNE   20220411130236W4A22H0H  00002000000000184000000255232W4A2  HJYHK-J 002700430014
BI00A32W4    4500192085     202206067116-4102-02             TERMINAL                 CCN000012000000012000FN00000000020220601000012000NNE   20220411130326W4A24P0P  00001200000000553200000841432W4A2  HJYHK-J 006400630015
BI00A32W4    4500192085     202206067116-4031                TERMINAL                 CCN000007500000007500FN00000000020220601000007500NNE   20220411130326W4A24P0P  00000750000000619500000904732W4A2  HJYHK-J 006400630015
BI00A32W4    4500192085     202206067116-4110-02             TERMINAL                 CCN000009000000009000FN00000000020220601000009000NNE   20220411130326W4A24P0P  00000900000000594000000882232W4A2  HJYHK-J 006400630015
BI00A32W4    #4500192085    202206067158-3120-90             CONNECTOR WIRE SEAL      CCN000020000000020000FN00000000020220601000020000NNE   20220411130324W4A22C0C  00002000000000136000000194032W4A2  HJYHK-J 002700430014
BI00A32W4    4500192093     202205097116-4100-02             TERMINAL                 CCN000015000000015000FN00000000020220401000015000NNED0720220411130418W4194P0P  00001500000000696000000990232W419  HJYHK   006400630015
BI00A32W4    4500192094     202205027116-4103-02             TERMINAL                 CCN000012000000012000FN00000000020220501000012000NNE   20220411130507W4194P0P  00001200000000571200000859432W419  HJYHK   006400630015
BI00A32W4    4500192097     202205237116-4103-02             TERMINAL                 CCN000012000000012000FN00000000020220501000012000NNE   20220411130541W4194P0P  00001200000000571200000859432W419  HJYHK   006400630015
BI00A32W4    4500192100     202205307114-4112-02             TERMINAL                 CCN000009000000009000FN00000000020220501000009000NNE   20220411130621W4194P0P  00000900000000598500000927132W419  HJYHK   006400630017
BI00A32W4    4500192101     202206067114-4101-02             TERMINAL                 CCN000015000000015000FN00000000020220601000015000NNE   20220411130742W4194P0P  00001500000000675000001003632W419  HJYHK   006400630017
BI00A32W4    4500192101     202206067116-4103-02             TERMINAL                 CCN000012000000012000FN00000000020220601000012000NNE   20220411130742W4194P0P  00001200000000571200000859432W419  HJYHK   006400630015
BI00B32W4    #4500192104    202206237147-3642-30             CLIP                     CCN000081000000081000FN00000000020220601000081000NNE   20220411130821W4172F0F  00000300000000542000000721332W417  HJYHK   005600390040
BI00B32W4    4500192105     202206097283-5843                CONNECTOR                CCN000003000000003000FN00000000020220601000003000NNE   20220411130923W4171N0N  00000150000000889000001132032W417  HJYHK   005600390040
BI00B32W4    #4500192105    202206097183-8927                HOUSING                  CCN000004000000004000FN00000000020220601000004000NNE   20220411130920W4172F0F  00000400000000714000000912732W417  HJYHK   005500360039
BI00B32W4    #4500192105    202206097282-3020                CONNECTOR                CCN000002000000002000FN00000000020220601000002000NNE   20220411130920W4172N0N  00000100000000984000001145432W417  HJYHK   005500360039
BI00B32W4    #4500192105    202206097287-1674                HYBRID FEMALE ASS'Y      CCN000002000000002000FN00000000020220601000002000NNE   20220411130920W4172N0N  00000200000000810800001002832W417  HJYHK   005400370024
BI00A32W4    4500192107     202205097289-3342-40             HOUSING FEMALE ASS'Y     CCN000004800000004800FN00000000020220401000004800NNED0720220411131043W4171N0N  00000240000000686400000901432W417  HJYHK   005500360039
BI00A32W4    4500192107     202205097283-4855                CONNECTOR HOUSING        CCN000004800000004800FN00000000020220401000004800NNED0720220411131043W4174N0N  00000240000001188400001400032W417  HJYHK   005500360039
BI00A32W4    #4500192107    202205097283-5831                CONNECTOR                CCN000003000000003000FN00000000020220401000003000NNED0720220411131026W4172N0N  00000300000000750000000880032W417  HJYHK   005400370024
BI00B32W4    4500192117     202206097116-4100-02             TERMINAL                 CCN000045000000045000FN00000000020220601000045000NNE   20220411131202W4464P0P  00001500000000696000000990232W446  HJYHK   006400630015
BI00B32W4    4500192117     202206097114-4112-02             TERMINAL                 CCN000018000000018000FN00000000020220601000018000NNE   20220411131202W4464P0P  00000900000000598500000927132W446  HJYHK   006400630017
BI00B32W4    4500192117     202206097116-4102-02             TERMINAL                 CCN000060000000060000FN00000000020220601000060000NNE   20220411131202W4464P0P  00001200000000553200000841432W446  HJYHK   006400630015
BI00B32W4    4500192117     202206097114-4100-02             TERMINAL                 CCN000036000000036000FN00000000020220601000036000NNE   20220411131202W4464P0P  00001800000000748800001077432W446  HJYHK   006400630017
BI00B32W4    4500192117     202206097158-3168-80             SEALED                   CCN000020000000020000FN00000000020220601000020000NNE   20220411131202W4461C0C  00002000000000044000000092132W446  HJYHK   004300260014
BI00B32W4    4500192117     202206097283-6448-40             CONNECTOR                CCN000001500000001500FN00000000020220601000001500NNE   20220411131202W4464N0N  00000150000001087000001329032W446  HJYHK   005600390040
BI00B32W4    4500192117     202206097158-3166-60             WIRE SEAL                CCN000080000000080000FN00000000020220601000080000NNE   20220411131202W4461C0C  00004000000000104000000152432W446  HJYHK   002700430014
BI00B32W4    4500192117     202206097158-3167-80             WIRE SEAL                CCN000040000000040000FN00000000020220601000040000NNE   20220411131202W4461C0C  00002000000000048000000109032W446  HJYHK   002700430014
BI00B32W4    4500192117     202206097114-4101-02             TERMINAL                 CCN000015000000015000FN00000000020220601000015000NNE   20220411131202W4464P0P  00001500000000675000001003632W446  HJYHK   006400630017
BI00B32W4    4500192117     202206097114-4110-02             TERMINAL                 CCN000015000000015000FN00000000020220601000015000NNE   20220411131202W4464P0P  00001500000000901500001230132W446  HJYHK   006400630017
BI00B32W4    4500192117     202206097116-4103-02             TERMINAL                 CCN000024000000024000FN00000000020220601000024000NNE   20220411131202W4464P0P  00001200000000571200000859432W446  HJYHK   006400630015
BI00B32W4    #4500192117    202206097282-3243-40             CONNECTOR                CCN000000800000000800FN00000000020220601000000800NNE   20220411131200W4462N0N  00000080000001006000001282332W446  HJYHK   005600390040
BI00B32W4    #4500192117    202206097047-5344                RETAINER                 CCN000010000000010000FN00000000020220601000010000NNE   20220411131200W4462F0F  00001000000000870000001016032W446  HJYHK   005600390023
BI00B32W4    4500192120     202206167114-1475                TERMINAL                 CCN000013500000013500FN00000000020220601000013500NNE   20220411131239W4464P0P  00001350000000480600000774232W446  HJYHK   006400630015
BI00A32W4    4500192130     202205097158-3169-40             SEALING PLUG             CCN000040000000040000FN00000000020220401000040000NNED0720220411131611W4D31C0C  00004000000000156000000204132W4D3  HJYHK-J 004300260014
BI00B32W4    4500192142     202205267158-3166-60             WIRE SEAL                CCN000120000000120000FN00000000020220501000120000NNE   20220411131723W4371C0C  00004000000000104000000152432W437  HJYHK   002700430014
BI00B32W4    4500192142     202205267116-4104-02             TERMINAL                 CCN000024000000024000FN00000000020220501000024000NNE   20220411131723W4374P0P  00001200000000580800000972432W437  HJYHK   006400630015
BI00B32W4    4500192143     202205057158-3167-80             WIRE SEAL                CCN000040000000040000FN00000000020220501000040000NNE   20220411131800W4B71C0C  00002000000000048000000109032W4B7  HJYHK-J 002700430014
BI00B32W4    4500192144     202205097116-6042                TERMINAL                 CCN000024000000024000FN00000000020220501000024000NNED0020220411131859W4324P0P  00000300000000523800000856132W432  HJYHK   006400630015
BI00A32W4    4500192175     202205097116-6042                TERMINAL                 CCN000009000000009000FN00000000020220401000009000NNED0720220411132151W4174P0P  00000300000000523800000856132W417  HJYHK   006400630015
BI00B32W4    4500192150     202206097283-7028-30             CONNECTOR                CCN000003000000003000FN00000000020220601000003000NNE   20220411132013W4164N0N  00000300000001452000001681332W416  HJYHK   005600390040
BI00B32W4    4500192150     202206097158-3169-40             SEALING PLUG             CCN000040000000040000FN00000000020220601000040000NNE   20220411132013W4161C0C  00004000000000156000000204132W416  HJYHK   004300260014
BI00B32W4    4500192150     202206097283-1020                CONNECTOR                CCN000012000000012000FN00000000020220601000012000NNE   20220411132013W4164N0N  00000600000000840000001049332W416  HJYHK   005600390040
BI00B32W6    SW22061QMW     202205117289-3342                HOUSING FEMALE ASS'Y     CCN000016800000016800FN00000000020220601000016800NNMD0420220411144902    1N0N  00000240000000686400000901432W6    SYSYA-WJ005500360039
BI00B32W6    SW22062QMW     202205187289-3342                HOUSING FEMALE ASS'Y     CCN000016800000016800FN00000000020220601000016800NNMD0420220411144914    1N0N  00000240000000686400000901432W6    SYSYA-WJ005500360039
BI00B32W6    SW22063QMW     202205257289-3342                HOUSING FEMALE ASS'Y     CCN000024000000024000FN00000000020220601000024000NNMD0420220411144927    1N0N  00000240000000686400000901432W6    SYSYA-WJ005500360039
BI00B32W6    SW22064QMW     202206017289-3342                HOUSING FEMALE ASS'Y     CCN000021600000021600FN00000000020220601000021600NNMD0420220411144940    1N0N  00000240000000686400000901432W6    SYSYA-WJ005500360039
BI00B32W6    SW22061QMW     202205117289-3342-30             HOUSING FEMALE ASS'Y     CCN000004800000004800FN00000000020220601000004800NNMD0420220411145640    1N0N  00000240000000686400000901432W6    SYSYA-WJ005500360039
BI00B32W6    SW22062QMW     202205117289-3342-30             HOUSING FEMALE ASS'Y     CCN000016800000016800FN00000000020220601000016800NNMD0420220411145652    1N0N  00000240000000686400000901432W6    SYSYA-WJ005500360039
BI00B32W6    SW22063QMW     202205187289-3342-30             HOUSING FEMALE ASS'Y     CCN000019200000019200FN00000000020220601000019200NNMD0420220411145707    1N0N  00000240000000686400000901432W6    SYSYA-WJ005500360039
BI00B32W6    SW22064QMW     202205257289-3342-30             HOUSING FEMALE ASS'Y     CCN000016800000016800FN00000000020220601000016800NNMD0420220411145719    1N0N  00000240000000686400000901432W6    SYSYA-WJ005500360039
BI00B32W9    4500191999     202206077289-3342-30             HOUSING FEMALE ASS'Y     CCN000009600000009600FN00000000020220401000009600NNED0420220411150415W9  1N0N  00000240000000686400000901432W9    HKYHK   005500360039
BI00B32X5    TIB2026        202205277116-4037                TERMINAL                 CCN000006000000006000FN00000000020220801000006000NNM   20220411133412X5  4P0P  00000600000000600000000894232X5    EPYNA-E 006400630015
BI00B32X5    TIB2026        202205277289-6547                HOUSING FEMALE ASS'Y     CCN000004800000004800FN00000000020220801000004800NNM   20220411133412X5  1N0N  00000240000001152000001362032X5    EPYNA-E 005500360039
BI00B32X5    TIB2026        202205277017-1180-02             TERMINAL                 CCN000288000000288000FN00000000020220801000288000NNM   20220411133412X5  4P0P  00007200000001065600001229032X5    EPYNA-E 005100280028
BI00B32X5    TIB2026        202205277114-4486-02             TERMINAL                 CCN000120000000120000FN00000000020220801000120000NNM   20220411133412X5  4P0P  00002400000000662400000956032X5    EPYNA-E 006400630015
BI00B32X5    TIB2026        202205277116-1685-02             TERMINAL                 CCN000072000000072000FN00000000020220801000072000NNM   20220411133412X5  4P0P  00002400000000897600001065232X5    EPYNA-E 005100280028
BI00B32X5    TIB2026        202205277116-4486-02             TERMINAL                 CCN000084000000084000FN00000000020220801000084000NNM   20220411133412X5  4P0P  00002800000000666400000995132X5    EPYNA-E 006400630017
BI00B32X5    TIB2026        202205277116-5045-02             TERMINAL                 CCN000240000000240000FN00000000020220801000240000NNM   20220411133412X5  4P0P  00001600000000678400001007132X5    EPYNA-E 006400630017
BI00B32X5    TIB2026        202205277116-5046-02             TERMINAL                 CCN000120000000120000FN00000000020220801000120000NNM   20220411133412X5  4P0P  00001200000000544800000873532X5    EPYNA-E 006400630017
BI00B32X5    TIB2026        202205277158-3167-80             WIRE SEAL                CCN000040000000040000FN00000000020220801000040000NNM   20220411133412X5  1C0C  00002000000000048000000109032X5    EPYNA-E 002700430014
BI00B32X5    TIB2026        202205277196-0396-02             TERMINAL                 CCN000015000000015000FN00000000020220801000015000NNM   20220411133412X5  4P0P  00001500000000949500001112932X5    EPYNA-E 002800510028
BI00B32X5    TIB2026        202205277196-1102-02             TERMINAL                 CCN000022500000022500FN00000000020220801000022500NNM   20220411133412X5  4P0P  00002250000000405000000690232X5    EPYNA-E 006400630015
BI00B32X5    TIB2026        202205277196-1325-02             TERMINAL FEMALE          CCN000060000000060000FN00000000020220801000060000NNM   20220411133412X5  4P0P  00006000000000450000000778732X5    EPYNA-E 006400630017
BI00B32X5    TIB2026        202205277196-1326-02             TERMINAL FEMALE          CCN000240000000240000FN00000000020220801000240000NNM   20220411133412X5  4P0P  00006000000000456000000784732X5    EPYNA-E 006400630017
BI00B32X5    TIB2026        202205277282-5574-10             CONNECTOR                CCN000002400000002400FN00000000020220801000002400NNM   20220411133412X5  4N0N  00000080000001235000001423032X5    EPYNA-E 005600390040
BI00B32X5    TIB2026        202205277283-4855-40             CONNECTOR HOUSING        CCN000002400000002400FN00000000020220801000002400NNM   20220411133412X5  4N0N  00000240000001188400001400032X5    EPYNA-E 005600360039
BI00B32X5    TIB2026        202205277283-6568-40             CONNECTOR                CCN000002000000002000FN00000000020220801000002000NNM   20220411133412X5  4N0N  00000200000001090000001263032X5    EPYNA-E 005500360039
BI00B32X5    TIB2026        202205277288-6598-70             HOUSING MALE ASS'Y       CCN000002880000002880FN00000000020220801000002880NNM   20220411133412X5  4N0N  00000144000001074200001429232X5    EPYNA-E 005500360039
BI00B32X5    TIB2026        202205277289-3342-30             HOUSING FEMALE ASS'Y     CCN000074400000074400FN00000000020220801000074400NNM   20220411133412X5  1N0N  00000240000000686400000901432X5    EPYNA-E 005500360039
BI00B32X5    TIB2026        202205277289-6597-70             HOUSING FEMALE ASS'Y     CCN000002160000002160FN00000000020220801000002160NNM   20220411133412X5  4N0N  00000216000001289500001539532X5    EPYNA-E 005500360039
BI00B32X5    TIB2026        202205277295-0785-02             TERMINAL ALUMINIUM       CCN000051000000051000FN00000000020220801000051000NNM   20220411133412X5  4P0P  00002550000000510000000803632X5    EPYNA-E 006400630015
BI00B32X5    TIB2026        202205277296-0784-02             TERMINAL ALUMINIUM       CCN000192000000192000FN00000000020220801000192000NNM   20220411133412X5  4P0P  00002400000000480000000765232X5    EPYNA-E 006400630015
BI00B32X5    TIB2026        202205277327-6834-80             MAIN FUSE                CCN000000600000000600FN00000000020220801000000600NNM   20220411133412X5  4N0N  00000060000000736800000938332X5    EPYNA-E 005400370024
BI00B32X5    TIB2026        202205277327-6872-30             MULTI FUSE               CCN000003168000003168FN00000000020220801000003168NNM   20220411133412X5  4N0N  00000028800000984500001150432X5    EPYNA-E 005400370024
BI00B32X5    TIB2026        202205277327-6878-30             MULTI FUSE               CCN000003456000003456FN00000000020220801000003456NNM   20220411133412X5  4N0N  00000028800000989700001155632X5    EPYNA-E 005400370024
BI00B32X5    TIB2026        202205277327-6882-30             MULTI FUSE               CCN000003456000003456FN00000000020220801000003456NNM   20220411133412X5  4N0N  00000028800001015900001181832X5    EPYNA-E 005400370024
BI00B32X5    TIB2026        202205277388-0313-30             CONNECTOR ASS'Y          CCN000004800000004800FN00000000020220801000004800NNM   20220411133412X5  4N0N  00000120000000995000001125032X5    EPYNA-E 005400370024
BI00B32X5    TIB2026        202205277388-2978-30             HOUSING MALE ASS'Y       CCN000004320000004320FN00000000020220801000004320NNM   20220411133412X5  1N0N  00000048000000742000001122032X5    EPYNA-E 005500360039
BI00B32X5    TIB2026        202205277327-6731-3W             BATTERY FUSE             CCN000001792000001792FN00000000020220801000001792NNM   20220411133412X5  4N0N  00000006400000697600000843032X5    EPYNA-E 005400370024
BI00B32X5    TIB2026        202205277B72-5540-80             SEALED WIRE SEAL         CCN000020000000020000FN00000000020220801000020000NNM   20220411133412X5  1C0C  00002000000000186000000234432X5    EPYNA-E 004300270014
BI00B32X5    TIB2026        202205277B96-0805-02             TERMINAL FEMALE          CCN000022500000022500FN00000000020220801000022500NNM   20220411133412X5  4P0P  00002250000000558000000843232X5    EPYNA-E 006400630015
BI00B32X5    TIB2026        202205277C89-6868-30             SEALED ASSY FEMALE       CCN000002520000002520FN00000000020220801000002520NNM   20220411133412X5  4N0N  00000252000000839200001119232X5    EPYNA-E 005500360039
BI00B32X5    #TIB2026       202205277147-9094                RETAINER                 CCN000003000000003000FN00000000020220801000003000NNM   20220411133407X5  2F0F  00000300000000717000000872932X5    EPYNA-E 005500360039
BI00B32X5    #TIB2026       202205277158-3017                RUBBER STOPPER           CCN000010000000010000FN00000000020220801000010000NNM   20220411133407X5  2C0C  00001000000000375500000435032X5    EPYNA-E 002700430014
BI00B32X5    #TIB2026       202205277198-1372                HOUSING FEMALE           CCN000002000000002000FN00000000020220801000002000NNM   20220411133407X5  2F0F  00000200000000857200000982232X5    EPYNA-E 005400370024
BI00B32X5    #TIB2026       202205277198-2458                HOUSING FEMALE           CCN000001760000001760FN00000000020220801000001760NNM   20220411133407X5  2F0F  00000176000000869100001160532X5    EPYNA-E 005400370024
BI00B32X5    #TIB2026       202205277287-7859                HYBRID FEMALE ASS'Y      CCN000014400000014400FN00000000020220801000014400NNM   20220411133407X5  2N0N  00000120000000461600000671632X5    EPYNA-E 005500360039
BI00B32X5    #TIB2026       202205277287-9155                HOUSING FEMALE ASS'Y     CCN000000960000000960FN00000000020220801000000960NNM   20220411133407X5  2N0N  00000096000000853700001045232X5    EPYNA-E 005400370024
BI00B32X5    #TIB2026       202205277154-3424-30             REAR HOLDER              CCN000006000000006000FN00000000020220801000006000NNM   20220411133407X5  2F0F  00000300000000975000001138632X5    EPYNA-E 005500360039
BI00B32X5    #TIB2026       202205277158-3003-90             RUBBER STOPPER           CCN000100000000100000FN00000000020220801000100000NNM   20220411133407X5  2C0C  00002000000000250000000306032X5    EPYNA-E 002700430014
BI00B32X5    #TIB2026       202205277158-3004-40             RUBBER STOPPER           CCN000180000000180000FN00000000020220801000180000NNM   20220411133407X5  2C0C  00002000000000234000000306332X5    EPYNA-E 002700430014
BI00B32X5    #TIB2026       202205277158-3007-10             RUBBER STOPPER           CCN000320000000320000FN00000000020220801000320000NNM   20220411133407X5  2H0H  00002000000000308000000362732X5    EPYNA-E 002700430014
BI00B32X5    #TIB2026       202205277158-3075-10             SEALED CONNECTOR         CCN000015428000040000FN00000000020220801000040000NNM   20220411133407X5  2C0C  00004000000000376000000429732X5    EPYNA-E 002700430014
BI00B32X5    #TIB2026       202205277158-3376-50             CONNECTOR WIRE SEAL      CCN000020000000020000FN00000000020220801000020000NNM   20220411133407X5  2C0C  00002000000000184000000240732X5    EPYNA-E 002700430014
BI00B32X5    #TIB2026       202205277172-5629-80             RUBBER STOPPER           CCN000040000000040000FN00000000020220801000040000NNM   20220411133407X5  2H0H  00002000000000060000000111132X5    EPYNA-E 004300270014
BI00B32X5    #TIB2026       202205277172-5630-40             RUBBER STOPPER           CCN000080000000080000FN00000000020220801000080000NNM   20220411133407X5  2H0H  00002000000000044000000095132X5    EPYNA-E 004300270014
BI00B32X5    #TIB2026       202205277172-5632-10             DUMMY PLUG               CCN000020000000020000FN00000000020220801000020000NNM   20220411133407X5  2H0H  00002000000000080400000131832X5    EPYNA-E 004300270014
BI00B32X5    #TIB2026       202205277189-2978-30             HOUSING FEMALE           CCN000003000000003000FN00000000020220801000003000NNM   20220411133407X5  2F0F  00000150000000966900001096932X5    EPYNA-E 005400370024
BI00B32X5    #TIB2026       202205277198-1371-60             HOUSING FEMALE           CCN000002000000002000FN00000000020220801000002000NNM   20220411133407X5  2F0F  00000200000000597800000721232X5    EPYNA-E 005400370024
BI00B32X5    #TIB2026       202205277198-1373-60             HOUSING FEMALE           CCN000002000000002000FN00000000020220801000002000NNM   20220411133407X5  2F0F  00000200000000819400000947432X5    EPYNA-E 005400370024
BI00B32X5    #TIB2026       202205277282-8395-40             CONNECTOR                CCN000004000000004000FN00000000020220801000004000NNM   20220411133407X5  2N0N  00000100000001009000001188032X5    EPYNA-E 005500360039
