BI00B1200    7504T52206     202204077154-7140-30             LOWER COVER              CCN000004200000004200FN00000000020220501000004200NNM   20220211122630    4F0F  0000000600000019900000041001200    YCYC    005600390040
BI00B1200    7504T52206     202204077254-5840-30             ENG R/B SUB ASS'Y        CCN000004200000004200FN00000000020220501000004200NNM   20220211122630    4J0J  0000000240000073200000095201200    YCYC    005600390040
BI00B1200    #O022F50011    202205057154-7040                RELAY BLOCK              CCN000006000000006000FN00000000020220601000006000NNE   20220211122630    2F0F  0000030000000060300000074491200    YCYC    005500360039
BI00B1200    #O022F50012    202205057154-8273                RELAY BLOCK              CCN000003000000003000FN00000000020220601000003000NNE   20220211122630    2F0F  0000010000000052300000067251200    YCYC    005500360039
BI00B1200    #O022F50013    202205057154-5328-30             RELAY BLOCK              CCN000003000000003000FN00000000020220601000003000NNE   20220211122630    2F0F  0000010000000121200000136191200    YCYC    005600390040
BI00B1200    Y022F50009     202205057196-0805-02             TERMINAL FEMALE          CCN000022500000022500FN00000000020220601000022500NNM   20220211122630    4P0P  0000225000000055800000084321200    YCYC    006400630015
BI00B1200    Y022F50010     202205057289-6868-30             SEALED ASSY FEMALE       CCN000002520000002520FN00000000020220601000002520NNM   20220211122630    4N0N  0000025200000083920000111921200    YCYC    005500360039
BI00B1200    Y022F50011     202205057298-3822-70             HOUSING FEMALE ASS'Y     CCN000002520000002520FN00000000020220601000002520NNM   20220211122630    4N0N  0000025200000077620000107701200    YCYC    005500360039
BI00B1200    #Y022F50012    202205197174-1314-30             SEALED COVER             CCN000001600000001600FN00000000020220601000001600NNM   20220211122630    2F0F  0000008000000076930000088931200    YCYC    005500360039
BI00B1200    #Y022F50013    202205197174-1315-30             SEALED COVER             CCN000001600000001600FN00000000020220601000001600NNM   20220211122630    2F0F  0000008000000078200000090201200    YCYC    005500360039
BI00B1200    Y022F50014     202205197289-6524-30             HOUSING FEMALE ASS'Y     CCN000004080000004080FN00000000020220601000004080NNM   20220211122630    4N0N  0000002400000135120000166621200    YCYC    005500360039
BI00B32AF    JTB2024        202202187289-3342-30             HOUSING FEMALE ASS'Y     CCN000055200000055200FN00000000020220201000055200NNM00020220211160753    1N0N  00000240000000686400000901432AF    HBYHVTB 005500360039
BI00B32AG    XG22033CMW     202202187327-6874-30             MULTI FUSE               CCN000002304000002304FN00000000020220301000002304NNM00020220211160836    4N0N  00000028800000991400001157332AG    XGXGY   005400370024
BI00B32AG    XG22032CMW     202202187327-6874-30             MULTI FUSE               CCN000002592000002592FN00000000020220301000002592NNM00020220211160858    4N0N  00000028800000991400001157332AG    XGXGY   005400370024
BI00B32A7    ZZ2204ALMW     202203097017-1180-02             TERMINAL                 CCN000144000000144000FN00000000020220401000144000NNE   20220211122630    4P0P  00007200000001065600001229032A7    ZZZZY   005100280028
BI00B32A7    ZZ2204ALMW     202203097116-4121-02             TERMINAL                 CCN000009000000009000FN00000000020220401000009000NNE   20220211122630    4P0P  00000450000000618800000912432A7    ZZZZY   006400630015
BI00B32A7    ZZ2204ALMW     202203097116-4122-02             TERMINAL                 CCN000009000000009000FN00000000020220401000009000NNE   20220211122630    4P0P  00000450000000656600000950232A7    ZZZZY   006400630015
BI00B32A7    ZZ2204ALMW     202203097289-4696-30             HOUSING FEMALE ASS'Y     CCN000028000000028000FN00000000020220401000028000NNE   20220211122630    4N0N  00000200000000913400001055432A7    ZZZZY   005400370024
BI00B32A7    ZZ2204ALMW     202203097289-5000                HOUSING FEMALE ASS'Y     CCN000001216000001216FN00000000020220401000001216NNE   20220211122630    1N0N  00000030400000549000000759032A7    ZZZZY   005400370024
BI00B32A7    ZZ2204ALMW     202203097327-6769-3W             BATTERY FUSE             CCN000007008000007008FN00000000020220401000007008NNE   20220211122630    4N0N  00000009600000933300001133332A7    ZZZZY   005500360039
BI00B32A7    #ZZ2204ALMW    202203097116-4021                TERMINAL                 CCN000013500000013500FN00000000020220401000013500NNE   20220211122630    2F0P  00001350000000534600000868832A7    ZZZZY   006400630015
BI00B32A7    #ZZ2204ALMW    202203097157-3952-80             RUBBER STOPPER           CCN000030000000030000FN00000000020220401000030000NNE   20220211122630    2C0C  00001000000000117000000175032A7    ZZZZY   002700430014
BI00B32A7    #ZZ2204ALMW    202203097158-3121-80             WIRE SEAL                CCN000100000000100000FN00000000020220401000100000NNE   20220211122630    2C0C  00002000000000118000000187332A7    ZZZZY   002700430014
BI00B32BG    YY22035CMW     202202157296-1025-02             TERMINAL ALUMINIUM       CCN000054000000054000FN00000000020220301000054000NNM00020220211160939    4P0P  00001800000000635400000920632BG    YGYYA   006400630015
BI00B32CA    PTA32082       202205127289-3342                HOUSING FEMALE ASS'Y     CCN000004800000004800FN00000000020220801000004800NNED0420220211154838    1N0N  00000240000000686400000901432CA    YPYPY   005500360039
BI00B32CA    PTA32082       202205127289-3342-30             HOUSING FEMALE ASS'Y     CCN000007200000007200FN00000000020220801000007200NNED0420220211154914    1N0N  00000240000000686400000901432CA    YPYPY   005500360039
BI00B32CA    PTA32082       202205127289-3342-90             HOUSING FEMALE ASS'Y     CCN000002400000002400FN00000000020220801000002400NNED0420220211154926    1N0N  00000240000000686400000901432CA    YPYPY   005500360039
BI00B32CH    SJ22044HMW     202203247C89-6868-30             SEALED ASSY FEMALE       CCN000012600000012600FN00000000020220401000012600NNMD0420220211163158    4N0N  00000252000000839200001119232CH    SJSAMIJF005500360039
BI00B32CH    SJ22043HMW     202203177327-6870-30             MULTI FUSE               CCN000008928000008928FN00000000020220401000008928NNMD0420220211163103    4N0N  00000028800001015200001181132CH    SJSAMIJF005400370024
BI00B32CH    SJ22044HMW     202203247327-6870-30             MULTI FUSE               CCN000013536000013536FN00000000020220401000013536NNMD0420220211163208    4N0N  00000028800001015200001181132CH    SJSAMIJF005400370024
BI00B32CH    SJ22043HMW     202203177327-6880-30             MULTI FUSE               CCN000006336000006336FN00000000020220401000006336NNMD0420220211163103    4N0N  00000028800001012600001178532CH    SJSAMIJF005400370024
BI00B32CH    SJ22044HMW     202203247327-6880-30             MULTI FUSE               CCN000012960000012960FN00000000020220401000012960NNMD0420220211163232    4N0N  00000028800001012600001178532CH    SJSAMIJF005400370024
BI00B32CH    SJ22042HMW     202203107327-6884-30             MULTI FUSE               CCN000003168000003168FN00000000020220401000003168NNMD0420220211162913    4N0N  00000028800000988900001154832CH    SJSAMIJF005400370024
BI00B32CH    SJ22043HMW     202203177327-6884-30             MULTI FUSE               CCN000027072000027072FN00000000020220401000027072NNMD0420220211163103    4N0N  00000028800000988900001154832CH    SJSAMIJF005400370024
BI00B32CH    SJ22044HMW     202203247327-6884-30             MULTI FUSE               CCN000020736000020736FN00000000020220401000020736NNMD0420220211163416    4N0N  00000028800000988900001154832CH    SJSAMIJF005400370024
BI00B32CH    SJ22041HMW     202203037327-6939-30             MULTI FUSE               CCN000000864000000864FN00000000020220401000000864NNMD0420220211162755    4N00  00000028800000992200001158132CH    SJSAMIJF005400370024
BI00B32CH    SJ22042HMW     202203107327-6939-30             MULTI FUSE               CCN000000864000000864FN00000000020220401000000864NNMD0420220211162913    4N00  00000028800000992200001158132CH    SJSAMIJF005400370024
BI00B32CH    SJ22043HMW     202203177327-6939-30             MULTI FUSE               CCN000000864000000864FN00000000020220401000000864NNMD0420220211163103    4N00  00000028800000992200001158132CH    SJSAMIJF005400370024
BI00B32CH    SJ22044HMW     202203247327-6939-30             MULTI FUSE               CCN000000288000000288FN00000000020220401000000288NNMD0420220211163232    4N00  00000028800000992200001158132CH    SJSAMIJF005400370024
BI00B32CH    SJ22041HMW     202203037327-6941-30             MULTI FUSE               CCN000000864000000864FN00000000020220401000000864NNMD0420220211162755    4N00  00000028800001014400001180332CH    SJSAMIJF005400370024
BI00B32CH    SJ22042HMW     202203107327-6941-30             MULTI FUSE               CCN000000864000000864FN00000000020220401000000864NNMD0420220211162913    4N00  00000028800001014400001180332CH    SJSAMIJF005400370024
BI00B32CH    SJ22044HMW     202203247327-6941-30             MULTI FUSE               CCN000000288000000288FN00000000020220401000000288NNMD0420220211163241    4N00  00000028800001014400001180332CH    SJSAMIJF005400370024
BI00B32CH    SJ22042SMW     202203107288-3340-30             HOUSING MALE             CCN000006000000006000FN00000000020220401000006000NNMD0420220211163618    4N0N  00000150000000861500001006432CH    SJSAMIJF005400370024
BI00B32CH    SJ22041SMW     202203037289-6868-30             SEALED ASSY FEMALE       CCN000002520000002520FN00000000020220401000002520NNMD0420220211163518    4N0N  00000252000000839200001119232CH    SJSAMIJF005500360039
BI00B32CH    SJ22044HMW     202204287327-6884-30             MULTI FUSE               CCN000010080000000000FY00000000020220401000000000NNMD0420220211163416    4N0N  00000028800000988900001154832CH    SJSAMIJF005400370024
BI00B32DE    TCT2041        202203107289-3342-30             HOUSING FEMALE ASS'Y     CCN000012000000012000FN00000000020220401000012000NNMS0020220211153956    1N0N  00000240000000686400000901432DE    TVYEV-TV005500360039
BI00B32DE    TCT2042        202203177289-3342-30             HOUSING FEMALE ASS'Y     CCN000014400000014400FN00000000020220401000014400NNMS0020220211154010    1N0N  00000240000000686400000901432DE    TVYEV-TV005500360039
BI00B32DE    TCT2043        202203247289-3342-30             HOUSING FEMALE ASS'Y     CCN000014400000014400FN00000000020220401000014400NNMS0020220211154029    1N0N  00000240000000686400000901432DE    TVYEV-TV005500360039
BI00B32DE    TCT2044        202203317289-3342-30             HOUSING FEMALE ASS'Y     CCN000012000000012000FN00000000020220401000012000NNMS0020220211154043    1N0N  00000240000000686400000901432DE    TVYEV-TV005500360039
BI00B32D1    #DFTC2212      202202177172-5630-40             RUBBER STOPPER           CCN000040000000040000FN00000000020220301000040000NNM00020220211161010    2H0H  00002000000000044000000095132D1    TOYOT-K 004300270014
BI00B32D1    #DFTC2213      202202177172-5630-40             RUBBER STOPPER           CCN000020000000020000FN00000000020220401000020000NNM00020220211161019    2H0H  00002000000000044000000095132D1    TOYOT-K 004300270014
BI00B32D2    DGTC2209       202201267289-3342-30             HOUSING FEMALE ASS'Y     CCN000021600000009600FY00000960020220301000000000NNM00020220211162722    1N0N  00000240000000686400000901432D2    TGYOT-G 005500360039
BI00B32D2    #DGTC2213      202202177172-5630-40             RUBBER STOPPER           CCN000240000000240000FN00000000020220401000240000NNM00020220211161132    2H0H  00002000000000044000000095132D2    TGYOT-G 004300270014
BI00B32D2    DGTC2219       202203177017-1180-02             TERMINAL                 CCN000072000000072000FN00000000020220501000072000NNM   20220211122630    4P0P  00007200000001065600001229032D2    TGYOT-G 005100280028
BI00B32D2    DGTC2219       202203177017-1182-02             TERMINAL                 CCN000090000000090000FN00000000020220501000090000NNM   20220211122630    4P0P  00004500000001165500001318632D2    TGYOT-G 005100280028
BI00B32D2    DGTC2219       202203177114-4032                TERMINAL                 CCN000030000000030000FN00000000020220501000030000NNM   20220211122630    4P0P  00000750000000735000001063632D2    TGYOT-G 006400630017
BI00B32D2    DGTC2219       202203177114-4231-02             TERMINAL                 CCN000018000000018000FN00000000020220501000018000NNM   20220211122630    4P0P  00001800000000554400000848032D2    TGYOT-G 006400630015
BI00B32D2    DGTC2219       202203177114-5748-02             TERMINAL                 CCN000048000000048000FN00000000020220501000048000NNM   20220211122630    4P0P  00001200000000444000000737632D2    TGYOT-G 006400630015
BI00B32D2    DGTC2219       202203177114-5753-02             TERMINAL                 CCN000135000000135000FN00000000020220501000135000NNM   20220211122630    4P0P  00002700000000847800001141432D2    TGYOT-G 006400630015
BI00B32D2    DGTC2219       202203177114-7842-02             TERMINAL MALE            CCN000012000000012000FN00000000020220501000012000NNM   20220211122630    4P0P  00001200000000460800000754432D2    TGYOT-G 006400630015
BI00B32D2    DGTC2219       202203177116-2891-02             TERMINAL                 CCN000030000000030000FN00000000020220501000030000NNM   20220211122630    4P0P  00001500000000982500001145932D2    TGYOT-G 005100280028
BI00B32D2    DGTC2219       202203177116-4104-02             TERMINAL                 CCN000012000000012000FN00000000020220501000012000NNM   20220211122630    4P0P  00001200000000580800000972432D2    TGYOT-G 006400630015
BI00B32D2    DGTC2219       202203177116-4486-02             TERMINAL                 CCN000112000000112000FN00000000020220501000112000NNM   20220211122630    4P0P  00002800000000666400000995132D2    TGYOT-G 006400630017
BI00B32D2    DGTC2219       202203177116-5045-02             TERMINAL                 CCN000032000000032000FN00000000020220501000032000NNM   20220211122630    4P0P  00001600000000678400001007132D2    TGYOT-G 006400630017
BI00B32D2    DGTC2219       202203177116-5046-02             TERMINAL                 CCN000072000000072000FN00000000020220501000072000NNM   20220211122630    4P0P  00001200000000544800000873532D2    TGYOT-G 006400630017
BI00B32D2    DGTC2219       202203177116-6042                TERMINAL                 CCN000051000000051000FN00000000020220501000051000NNM   20220211122630    4P0P  00000300000000523800000856132D2    TGYOT-G 006400630015
BI00B32D2    DGTC2219       202203177126-8853-02             TERMINAL                 CCN000097500000097500FN00000000020220501000097500NNM   20220211122630    4P0P  00000750000000562500000847732D2    TGYOT-G 006400630015
BI00B32D2    DGTC2219       202203177126-8854-02             TERMINAL                 CCN000052500000052500FN00000000020220501000052500NNM   20220211122630    4P0P  00000750000000604500000889732D2    TGYOT-G 006400630015
BI00B32D2    DGTC2219       202203177126-8855-02             TERMINAL                 CCN000114000000114000FN00000000020220501000114000NNM   20220211122630    4P0P  00000600000000510600000795832D2    TGYOT-G 006400630015
BI00B32D2    DGTC2219       202203177158-3070-80             RUBBER STOPPER           CCN000040000000040000FN00000000020220501000040000NNM   20220211122630    1C0C  00004000000000276000000333332D2    TGYOT-G 002700430014
BI00B32D2    DGTC2219       202203177173-3291-40             LIF LEVER                CCN000007200000007200FN00000000020220501000007200NNM   20220211122630    1F0F  00000240000000867800001067832D2    TGYOT-G 005500360039
BI00B32D2    DGTC2219       202203177195-1479-02             TERMINAL MALE            CCN000024000000024000FN00000000020220501000024000NNM   20220211122630    4P0P  00002400000000420000000714232D2    TGYOT-G 006400630015
BI00B32D2    DGTC2219       202203177196-0396-02             TERMINAL                 CCN000015000000015000FN00000000020220501000015000NNM   20220211122630    4P0P  00001500000000949500001112932D2    TGYOT-G 002800510028
BI00B32D2    DGTC2219       202203177196-1325-02             TERMINAL FEMALE          CCN000420000000420000FN00000000020220501000420000NNM   20220211122630    4P0P  00006000000000450000000778732D2    TGYOT-G 006400630017
BI00B32D2    DGTC2219       202203177196-1326-02             TERMINAL FEMALE          CCN000780000000780000FN00000000020220501000780000NNM   20220211122630    4P0P  00006000000000456000000784732D2    TGYOT-G 006400630017
BI00B32D2    DGTC2219       202203177196-1327-02             TERMINAL FEMALE          CCN000104000000104000FN00000000020220501000104000NNM   20220211122630    4P0P  00005200000000336000000739532D2    TGYOT-G 006400630017
BI00B32D2    DGTC2219       202203177283-6388-40             CONNECTOR                CCN000004000000004000FN00000000020220501000004000NNM   20220211122630    4N0N  00000200000001029000001173532D2    TGYOT-G 005500360039
BI00B32D2    DGTC2219       202203177288-6547                CONNECTOR MALE ASS'Y     CCN000018000000018000FN00000000020220501000018000NNM   20220211122630    4N0N  00000075000001205300001340332D2    TGYOT-G 005400370024
BI00B32D2    DGTC2219       202203177289-3342                HOUSING FEMALE ASS'Y     CCN000055200000055200FN00000000020220501000055200NNM   20220211122630    1N0N  00000240000000686400000901432D2    TGYOT-G 005500360039
BI00B32D2    DGTC2219       202203177289-3342-30             HOUSING FEMALE ASS'Y     CCN000016800000016800FN00000000020220501000016800NNM   20220211122630    1N0N  00000240000000686400000901432D2    TGYOT-G 005500360039
BI00B32D2    DGTC2219       202203177289-3342-40             HOUSING FEMALE ASS'Y     CCN000019200000019200FN00000000020220501000019200NNM   20220211122630    1N0N  00000240000000686400000901432D2    TGYOT-G 005500360039
BI00B32D2    DGTC2219       202203177289-3342-90             HOUSING FEMALE ASS'Y     CCN000024000000024000FN00000000020220501000024000NNM   20220211122630    1N0N  00000240000000686400000901432D2    TGYOT-G 005500360039
BI00B32D2    DGTC2219       202203177289-6518-30             HOUSING FEMALE ASS'Y     CCN000008400000008400FN00000000020220501000008400NNM   20220211122630    1N0N  00000120000000829200001049232D2    TGYOT-G 005500360039
BI00B32D2    DGTC2219       202203177289-6547                HOUSING FEMALE ASS'Y     CCN000012000000012000FN00000000020220501000012000NNM   20220211122630    1N0N  00000240000001152000001362032D2    TGYOT-G 005500360039
BI00B32D2    DGTC2219       202203177296-0784-02             TERMINAL ALUMINIUM       CCN000072000000072000FN00000000020220501000072000NNM   20220211122630    4P0P  00002400000000480000000765232D2    TGYOT-G 006400630015
BI00B32D2    DGTC2219       202203177327-6809                MULTI FUSE               CCN000006720000006720FN00000000020220501000006720NNM   20220211122630    4N0N  00000056000000849300001061732D2    TGYOT-G 005400370024
BI00B32D2    DGTC2219       202203177388-2978-30             HOUSING MALE ASS'Y       CCN000015360000015360FN00000000020220501000015360NNM   20220211122630    1N0N  00000048000000742000001122032D2    TGYOT-G 005500360039
BI00B32D2    #DGTC2219      202203177158-3003-90             RUBBER STOPPER           CCN000180000000180000FN00000000020220501000180000NNM   20220211122630    2C0C  00002000000000250000000306032D2    TGYOT-G 002700430014
BI00B32D2    #DGTC2219      202203177158-3005-80             RUBBER STOPPER           CCN000020000000020000FN00000000020220501000020000NNM   20220211122630    2H0H  00002000000000210000000268732D2    TGYOT-G 002700430014
BI00B32D2    #DGTC2219      202203177158-3008-80             RUBBER STOPPER           CCN000060000000060000FN00000000020220501000060000NNM   20220211122630    2C0C  00002000000000288000000343032D2    TGYOT-G 004300270014
BI00B32D2    #DGTC2219      202203177158-3015-10             RUBBER STOPPER           CCN000030000000030000FN00000000020220501000030000NNM   20220211122630    2C0C  00001000000000419500000474032D2    TGYOT-G 002700430014
BI00B32D2    #DGTC2219      202203177158-3017                RUBBER STOPPER           CCN000030000000030000FN00000000020220501000030000NNM   20220211122630    2C0C  00001000000000375500000435032D2    TGYOT-G 002700430014
BI00B32D2    #DGTC2219      202203177158-3075-10             SEALED CONNECTOR         CCN000040000000040000FN00000000020220501000040000NNM   20220211122630    2C0C  00004000000000376000000429732D2    TGYOT-G 002700430014
BI00B32D2    #DGTC2219      202203177158-3374-90             CONNECTOR WIRE SEAL      CCN000020000000020000FN00000000020220501000020000NNM   20220211122630    2H0H  00002000000000172000000229332D2    TGYOT-G 002700430014
BI00B32D2    #DGTC2219      202203177172-5625-90             RUBBER STOPPER           CCN000020000000020000FN00000000020220501000020000NNM   20220211122630    2H0H  00002000000000082400000133832D2    TGYOT-G 004300270014
BI00B32D2    #DGTC2219      202203177172-5629-80             RUBBER STOPPER           CCN000340000000340000FN00000000020220501000340000NNM   20220211122630    2H0H  00002000000000060000000111132D2    TGYOT-G 004300270014
BI00B32D2    #DGTC2219      202203177172-5630-40             RUBBER STOPPER           CCN000200000000200000FN00000000020220501000200000NNM   20220211122630    2H0H  00002000000000044000000095132D2    TGYOT-G 004300270014
BI00B32D2    #DGTC2219      202203177172-5631-60             RUBBER STOPPER           CCN000140000000140000FN00000000020220501000140000NNM   20220211122630    2H0H  00002000000000042000000093132D2    TGYOT-G 004300270014
BI00B32D2    #DGTC2219      202203177172-5632-10             DUMMY PLUG               CCN000200000000200000FN00000000020220501000200000NNM   20220211122630    2H0H  00002000000000080400000131832D2    TGYOT-G 004300270014
BI00B32D2    #DGTC2219      202203177183-2511                HOUSING                  CCN000001600000001600FN00000000020220501000001600NNM   20220211122630    2F0F  00000160000000972200001242132D2    TGYOT-G 005500360039
BI00B32D2    #DGTC2219      202203177189-2978-30             HOUSING FEMALE           CCN000015000000015000FN00000000020220501000015000NNM   20220211122630    2F0F  00000150000000966900001096932D2    TGYOT-G 005400370024
BI00B32D2    #DGTC2219      202203177189-3033                HOUSING FEMALE           CCN000009600000009600FN00000000020220501000009600NNM   20220211122630    2F0F  00000160000001211200001431232D2    TGYOT-G 005500360039
BI00B32D2    #DGTC2219      202203177189-3036                HOUSING FEMALE           CCN000003200000003200FN00000000020220501000003200NNM   20220211122630    2F0F  00000160000000921600001141632D2    TGYOT-G 005500360039
BI00B32D2    #DGTC2219      202203177283-8226-30             CONNECTOR                CCN000018000000018000FN00000000020220501000018000NNM   20220211122630    2N0N  00000200000000820000001008032D2    TGYOT-G 005400370024
BI00B32D2    #DGTC2219      202203177289-2912-40             HOUSING FEMALE ASS'Y     CCN000002000000002000FN00000000020220501000002000NNM   20220211122630    2N0N  00000200000000804000000931032D2    TGYOT-G 005400370024
BI00B32D2    #DGTC2219      202203177289-4200-30             HOUSING FEMALE ASS'Y     CCN000002000000002000FN00000000020220501000002000NNM   20220211122630    2N0N  00000200000000926000001021032D2    TGYOT-G 005400370024
BI00A32D2    DGTC2209       202202157289-3342-30             HOUSING FEMALE ASS'Y     PCN000012000000012000FN00000000020220301000012000NNM00020220211162722    1N0N  00000240000000686400000901432D2    TGYOT-G 005500360039
BI00B32D9    I21404         202203037289-3342                HOUSING FEMALE ASS'Y     CCN000014400000014400FN00000000020220401000014400NNMD0020220211122630    1N0N  00000240000000686400000901432D9    UEHESTO 005500360039
BI00B32D9    I21504         202203107289-3342                HOUSING FEMALE ASS'Y     CCN000014400000014400FN00000000020220401000014400NNMD0020220211122630    1N0N  00000240000000686400000901432D9    UEHESTO 005500360039
BI00B32D9    I21604         202203177289-3342                HOUSING FEMALE ASS'Y     CCN000014400000014400FN00000000020220401000014400NNMD0020220211122630    1N0N  00000240000000686400000901432D9    UEHESTO 005500360039
BI00B32D9    I21605         202203247289-3342                HOUSING FEMALE ASS'Y     CCN000014400000014400FN00000000020220401000014400NNMD0020220211122630    1N0N  00000240000000686400000901432D9    UEHESTO 005500360039
BI00B32D9    I21404         202203037289-3342-30             HOUSING FEMALE ASS'Y     CCN000028800000028800FN00000000020220401000028800NNMD0020220211122630    1N0N  00000240000000686400000901432D9    UEHESTO 005500360039
BI00B32D9    I21504         202203107289-3342-30             HOUSING FEMALE ASS'Y     CCN000028800000028800FN00000000020220401000028800NNMD0020220211122630    1N0N  00000240000000686400000901432D9    UEHESTO 005500360039
BI00B32D9    I21604         202203177289-3342-30             HOUSING FEMALE ASS'Y     CCN000028800000028800FN00000000020220401000028800NNMD0020220211122630    1N0N  00000240000000686400000901432D9    UEHESTO 005500360039
BI00B32D9    I21605         202203247289-3342-30             HOUSING FEMALE ASS'Y     CCN000028800000028800FN00000000020220401000028800NNMD0020220211122630    1N0N  00000240000000686400000901432D9    UEHESTO 005500360039
BI00A32EJ    T220128P02     202202287283-7028-30             CONNECTOR                CCN000003000000003000FN00000000020220301000003000NNEM0020220211160358EJ  4N0N  00000300000001452000001681332EJ    EJYKBO  005600390040
BI00B32EJ    T220210P01     202203177116-4102-02             TERMINAL                 CCN000012000000012000FN00000000020220301000012000NNE   20220211122630EJ  4P0P  00001200000000553200000841432EJ    EJYKBO  006400630015
BI00B32EJ    T220210P01     202203177298-1869-30             HOUSING FEMALE ASS'Y     CCN000001200000001200FN00000000020220301000001200NNE   20220211122630EJ  4N0N  00000120000000737000000939832EJ    EJYKBO  005500360039
BI00B32EJ    T220210P01     202203177116-4124-02             TERMINAL                 CCN000006000000006000FN00000000020220301000006000NNE   20220211122630EJ  4P0P  00000300000000459900000753532EJ    EJYKBO  006400630015
BI00B32EJ    T220210P01     202203177196-1461-06             TERMINAL FEMALE          CCN000024000000024000FN00000000020220301000024000NNE   20220211122630EJ  4P0P  00002400000000386400000692932EJ    EJYKBO  006400630015
BI00B32EJ    T220210P01     202203177114-4110-02             TERMINAL                 CCN000015000000015000FN00000000020220301000015000NNE   20220211122630EJ  4P0P  00001500000000901500001230132EJ    EJYKBO  006400630017
BI00B32EJ    T220210P01     202203177114-4112-02             TERMINAL                 CCN000018000000018000FN00000000020220301000018000NNE   20220211122630EJ  4P0P  00000900000000598500000927132EJ    EJYKBO  006400630017
BI00B32EJ    T220210P01     202203177114-4100-02             TERMINAL                 CCN000018000000018000FN00000000020220301000018000NNE   20220211122630EJ  4P0P  00001800000000748800001077432EJ    EJYKBO  006400630017
BI00B32EJ    T220210P01     202203177116-4100-02             TERMINAL                 CCN000045000000045000FN00000000020220301000045000NNE   20220211122630EJ  4P0P  00001500000000696000000990232EJ    EJYKBO  006400630015
BI00B32EJ    T220210P01     202203177116-4120-02             TERMINAL                 CCN000006000000006000FN00000000020220301000006000NNE   20220211122630EJ  4P0P  00000600000000780000001073632EJ    EJYKBO  006400630015
BI00B32EJ    T220210P01     202203177116-4122-02             TERMINAL                 CCN000027000000027000FN00000000020220301000027000NNE   20220211122630EJ  4P0P  00000450000000656600000950232EJ    EJYKBO  006400630015
BI00B32EJ    T220210P01     202203177116-4121-02             TERMINAL                 CCN000013500000013500FN00000000020220301000013500NNE   20220211122630EJ  4P0P  00000450000000618800000912432EJ    EJYKBO  006400630015
BI00B32EJ    T220210P01     202203177116-4112-02             TERMINAL                 CCN000048000000048000FN00000000020220301000048000NNE   20220211122630EJ  4P0P  00000600000000450000000738232EJ    EJYKBO  006400630015
BI00B32EJ    T220210P01     202203177116-4110-02             TERMINAL                 CCN000009000000009000FN00000000020220301000009000NNE   20220211122630EJ  4P0P  00000900000000594000000882232EJ    EJYKBO  006400630015
BI00B32EJ    T220210P01     202203177116-4111-02             TERMINAL                 CCN000007500000007500FN00000000020220301000007500NNE   20220211122630EJ  4P0P  00000750000000529500000817732EJ    EJYKBO  006400630015
BI00B32EJ    T220210P01     202203177126-8855-02             TERMINAL                 CCN000006000000006000FN00000000020220301000006000NNE   20220211122630EJ  4P0P  00000600000000510600000795832EJ    EJYKBO  006400630015
BI00B32EJ    T220210P01     202203177158-3166-60             WIRE SEAL                CCN000520000000520000FN00000000020220301000520000NNE   20220211122630EJ  1C0C  00004000000000104000000152432EJ    EJYKBO  002700430014
BI00B32EJ    T220210P01     202203177158-3167-80             WIRE SEAL                CCN000360000000360000FN00000000020220301000360000NNE   20220211122630EJ  1C0C  00002000000000048000000109032EJ    EJYKBO  002700430014
BI00B32EJ    T220210P01     202203177158-3169-40             SEALING PLUG             CCN000240000000240000FN00000000020220301000240000NNE   20220211122630EJ  1C0C  00004000000000156000000204132EJ    EJYKBO  004300260014
BI00B32EJ    T220210P01     202203177158-3167-61             WIRE SEAL                CCN000020000000020000FN00000000020220301000020000NNE   20220211122630EJ  1C0C  00002000000000048000000096432EJ    EJYKBO  004300270014
BI00B32EJ    #T220210P01    202203177158-3120-90             CONNECTOR WIRE SEAL      CCN000080000000080000FN00000000020220301000080000NNE   20220211122630EJ  2C0C  00002000000000136000000194032EJ    EJYKBO  002700430014
BI00B32EJ    #T220210P01    202203177157-3992-90             CONNECTOR SEALED         CCN000040000000040000FN00000000020220301000040000NNE   20220211122630EJ  2C0C  00004000000000300000000363332EJ    EJYKBO  002700430014
BI00B32EJ    #T220210P01    202203177158-3374-90             CONNECTOR WIRE SEAL      CCN000020000000020000FN00000000020220301000020000NNE   20220211122630EJ  2H0H  00002000000000172000000229332EJ    EJYKBO  002700430014
BI00B32EJ    #T220210P01    202203177123-6423-30             CONNECTOR                CCN000002000000002000FN00000000020220301000002000NNE   20220211122630EJ  2F0F  00000200000001002000001167632EJ    EJYKBO  005600390023
BI00B32EJ    #T220210P01    202203177282-6458-40             CONNECTOR                CCN000001000000001000FN00000000020220301000001000NNE   20220211122630EJ  2N0N  00000100000001206000001350532EJ    EJYKBO  005500360039
BI00B32EJ    @T220210P01    202203177123-4312-80             HOUSING                  CCN000002400000002400FN00000000020220301000002400NNE   20220211122630EJ  3F0F  00000080000000644200000794032EJ    EJYKBO  005500360039
BI00A32G7    JJ2203CMMW     202202187297-3482                JOINT CONNECTOR          CCN000000800000000800FN00000000020220301000000800NNEM0020220211122630    4N0N  00000080000000621000000730532G7    JIJAI   005400370024
BI00B32H0    TT2203ADMW     202203017116-4115-02             TERMINAL                 CCN000008400000008400FN00000000020220301000008400NNED0720220211122630    4P0P  00000840000000593000000881232H0    TTTJY   006400630015
BI00A32H2    TIJ201C        202202147289-3342-30             HOUSING FEMALE ASS'Y     PCN000067200000024000FN00000000020220101000024000NNED0420220211122630    1N0N  00000240000000686400000901432H2    HVYHV   005500360039
BI00B32H2    #TIJ202M       202202187172-5629-80             RUBBER STOPPER           CCN000300000000200000FN00000000020220201000200000NNE00020220211161215    2H0H  00002000000000060000000111132H2    HVYHV   004300270014
BI00A32H2    TIJ201C        202202257289-3342-30             HOUSING FEMALE ASS'Y     PCN000043200000043200FN00000000020220101000043200NNED0420220211141308    1N0N  00000240000000686400000901432H2    HVYHV   005500360039
BI00B32H7    #FS22041DMW    202203167158-3007-10             RUBBER STOPPER           CCN000240000000240000FN00000000020220401000240000NNMD0420220211132245    2H0H  00002000000000308000000362732H7    FYFSY   002700430014
BI00B32H7    #FS22042DMW    202203237158-3007-10             RUBBER STOPPER           CCN000100000000100000FN00000000020220401000100000NNMD0420220211132427    2H0H  00002000000000308000000362732H7    FYFSY   002700430014
BI00B32H7    #FS22043DMW    202203237158-3007-10             RUBBER STOPPER           CCN000140000000140000FN00000000020220401000140000NNMD0420220211132533    2H0H  00002000000000308000000362732H7    FYFSY   002700430014
BI00B32H8    #TY22032 MW    202202187158-3007-10             RUBBER STOPPER           CCN000020000000020000FN00000000020220301000020000NNM00020220211161245    2H0H  00002000000000308000000362732H8    TYTYC   002700430014
BI00B32J1    391358         202203077B58-3070-80             RUBBER STOPPER           CCN000040000000040000FN00000000020220301000040000NNM   20220211122630    1C0C  00004000000000276000000333032J1    UKYEL-BL004300270014
BI00B32J1    391358         202203077114-1475                TERMINAL                 CCN000040500000040500FN00000000020220301000040500NNM   20220211122630    4P0P  00001350000000480600000774232J1    UKYEL-BL006400630015
BI00B32J1    391358         202203077114-4231-02             TERMINAL                 CCN000018000000018000FN00000000020220301000018000NNM   20220211122630    4P0P  00001800000000554400000848032J1    UKYEL-BL006400630015
BI00B32J1    391358         202203077116-4020                TERMINAL                 CCN000108000000108000FN00000000020220301000108000NNM   20220211122630    4P0P  00001350000000513000000798232J1    UKYEL-BL006400630015
BI00B32J1    391358         202203077158-3006-90             RUBBER STOPPER           CCN000060000000060000FN00000000020220301000060000NNM   20220211122630    1C0C  00002000000000330600000386032J1    UKYEL-BL002700430014
BI00B32J1    391358         202203077158-3166-60             WIRE SEAL                CCN002160000002160000FN00000000020220301002160000NNM   20220211122630    1C0C  00004000000000104000000152432J1    UKYEL-BL002700430014
BI00B32J1    391358         202203077158-3167-80             WIRE SEAL                CCN002640000002640000FN00000000020220301002640000NNM   20220211122630    1C0C  00002000000000048000000109032J1    UKYEL-BL002700430014
BI00B32J1    391358         202203077158-3168-80             SEALED                   CCN000440000000440000FN00000000020220301000440000NNM   20220211122630    1C0C  00002000000000044000000092132J1    UKYEL-BL004300260014
BI00B32J1    391358         202203077174-2052-30             COVER                    CCN000001260000001260FN00000000020220301000001260NNM   20220211122630    1F0F  00000126000000553400001024332J1    UKYEL-BL005500360039
BI00B32J1    391358         202203077196-1462-02             TERMINAL FEMALE          CCN000063000000063000FN00000000020220301000063000NNM   20220211122630    4P0P  00002100000000352800000638032J1    UKYEL-BL006400630015
BI00B32J1    391358         202203077282-5684-10             CONNECTOR                CCN000002400000002400FN00000000020220301000002400NNM   20220211122630    4N0N  00000120000001477000001656032J1    UKYEL-BL005600390040
BI00B32J1    391358         202203077282-6448-40             CONNECTOR                CCN000001600000001600FN00000000020220301000001600NNM   20220211122630    4N0N  00000080000000887000001152732J1    UKYEL-BL005600390040
BI00B32J1    391358         202203077283-1968-30             CONNECTOR                CCN000001800000001800FN00000000020220301000001800NNM   20220211122630    1N0N  00000090000001140000001318332J1    UKYEL-BL005600390040
BI00B32J1    391358         202203077283-5549-30             CONNECTOR                CCN000001500000001500FN00000000020220301000001500NNM   20220211122630    4N0N  00000150000001193000001384732J1    UKYEL-BL005500360039
BI00B32J1    391358         202203077283-5830                CONNECTOR                CCN000024000000024000FN00000000020220301000024000NNM   20220211122630    1N47  00000600000000954000001104032J1    UKYEL-BL005500360039
BI00B32J1    391358         202203077283-5846                HOUSING                  CCN000003000000003000FN00000000020220301000003000NNM   20220211122630    1N0N  00000150000000885000001102032J1    UKYEL-BL005600390040
BI00B32J1    391358         202203077283-6388-40             CONNECTOR                CCN000006000000006000FN00000000020220301000006000NNM   20220211122630    4N0N  00000200000001029000001173532J1    UKYEL-BL005500360039
BI00B32J1    391358         202203077289-5000                HOUSING FEMALE ASS'Y     CCN000001824000001824FN00000000020220301000001824NNM   20220211122630    1N0N  00000030400000549000000759032J1    UKYEL-BL005400370024
BI00B32J1    391358         202203077298-1187-30             SHUNT RING ASSEMBLY      CCN000080000000080000FN00000000020220301000080000NNM   20220211122630    4N0N  00001000000000647000000769532J1    UKYEL-BL005400370024
BI00B32J1    391358         202203077298-1865-30             HOUSING FEMALE ASS'Y     CCN000084000000084000FN00000000020220301000084000NNM   20220211122630    4N0N  00000240000001003200001204532J1    UKYEL-BL005500360039
BI00B32J1    391358         202203077298-1869-30             HOUSING FEMALE ASS'Y     CCN000021600000021600FN00000000020220301000021600NNM   20220211122630    4N0N  00000120000000737000000939832J1    UKYEL-BL005500360039
BI00B32J1    391358         202203077298-2278-30             HOUSING FEMALE ASS'Y     CCN000033600000033600FN00000000020220301000033600NNM   20220211122630    4N0N  00000240000001091700001295432J1    UKYEL-BL005500360039
BI00B32J1    391358         202203077327-6840-3W             BATTERY FUSE             CCN000000072000000072FN00000000020220301000000072NNM   20220211122630    4N0N  00000007200001140900001355932J1    UKYEL-BL005500360039
BI00B32J1    #391358        202203077134-4547-30             COVER                    CCN000005000000005000FN00000000020220301000005000NNM   20220211122630    2F0F  00000250000000989000001156732J1    UKYEL-BL005600390040
BI00B32J1    #391358        202203077147-8717-30             CLIP                     CCN000010000000010000FN00000000020220301000010000NNM   20220211122630    2F0F  00000500000000660000000875032J1    UKYEL-BL005600390040
BI00B32J1    #391358        202203077157-3646                RUBBER STOPPER           CCN000040000000040000FN00000000020220301000040000NNM   20220211122630    2H0H  00002000000000184000000255232J1    UKYEL-BL002700430014
BI00B32J1    #391358        202203077157-3950-80             SEAL RUBBER              CCN000040000000040000FN00000000020220301000040000NNM   20220211122630    2C0C  00004000000000154000000440332J1    UKYEL-BL002700430014
BI00B32J1    #391358        202203077158-3004-40             RUBBER STOPPER           CCN000020000000020000FN00000000020220301000020000NNM   20220211122630    2C0C  00002000000000234000000306332J1    UKYEL-BL002700430014
BI00B32J1    #391358        202203077158-3120-90             CONNECTOR WIRE SEAL      CCN000080000000080000FN00000000020220301000080000NNM   20220211122630    2C0C  00002000000000136000000194032J1    UKYEL-BL002700430014
BI00B32J1    #391358        202203077174-1515                FRONT DOOR COVER         CCN000000600000000600FN00000000020220301000000600NNM   20220211122630    2F0F  00000060000000490200000610232J1    UKYEL-BL005500360039
BI00B32J1    #391358        202203077282-4192-40             CONNECTOR                CCN000001680000001680FN00000000020220301000001680NNM   20220211122630    2N0N  00000024000000801000001083732J1    UKYEL-BL005600390040
BI00B32J1    #391358        202203077282-6457-40             CONNECTOR                CCN000003200000003200FN00000000020220301000003200NNM   20220211122630    2N0N  00000080000001137000001421332J1    UKYEL-BL005600390040
BI00B32J1    #391358        202203077283-8226-30             CONNECTOR                CCN000012000000012000FN00000000020220301000012000NNM   20220211122630    2N0N  00000200000000820000001008032J1    UKYEL-BL005400370024
BI00A32J1    391476         202202287283-8630                CONNECTOR ASS'Y          CCN000006000000006000FN00000000020220201000006000NNED0720220211122630    4N0N  00000600000000540000000701332J1    UKYEL-BL005400370024
BI00A32J1    #391476        202202287187-3356                JOINT CONNECTOR          CCN000006000000006000FN00000000020220201000006000NNED0720220211122630    2F0F  00000120000000759600001024432J1    UKYEL-BL005600390040
BI00A32J1    #391476        202202287187-3359-60             JOINT CONNECTOR          CCN000007200000007200FN00000000020220201000007200NNED0720220211122630    2F0F  00000120000000763200001030432J1    UKYEL-BL005600390040
BI00A32J1    #391476        202202287187-3360                JOINT CONNECTOR          CCN000004800000004800FN00000000020220201000004800NNED0720220211122630    2F0F  00000120000000759600001026832J1    UKYEL-BL005600390040
BI00B32J1    #391478        202203287183-7725-40             HOUSING                  CCN000006000000006000FN00000000020220301000006000NNE   20220211122630    2F0F  00000600000000840000001040032J1    UKYEL-BL005600390040
BI00B32K8    #K1220010267   202203187137-2200                CONNECTOR PACKING        CCN000005000000005000FN00000000020220501000005000NNM   20220211122630    2C0C  00000500000000136000000211332K8    ELELCOM 004300270014
BI00B32K8    #K1220010267   202203187137-2717-50             SEALED CONNECTOR         CCN000012000000012000FN00000000020220501000012000NNM   20220211122630    2C0C  00000400000000212800000284032K8    ELELCOM 002700430014
BI00B32M1    TCV2021        202202177288-6598-70             HOUSING MALE ASS'Y       CCN000001440000001440FN00000000020220201000001440NNMD0420220211122630    4N0N  00000144000001074200001429232M1    VNYEV   005500360039
BI00B32M1    TCV2043        202203247288-6547                CONNECTOR MALE ASS'Y     CCN000014250000014250FN00000000020220401000014250NNMD0420220211154152    4N0N  00000075000001205300001340332M1    VNYEV   005400370024
BI00B32M1    TCV2044        202203317288-6547                CONNECTOR MALE ASS'Y     CCN000021000000021000FN00000000020220401000021000NNMD0420220211154256    4N0N  00000075000001205300001340332M1    VNYEV   005400370024
BI00B32M1    TCV2043        202203247289-3342                HOUSING FEMALE ASS'Y     CCN000096000000096000FN00000000020220401000096000NNMD0420220211154205    1N0N  00000240000000686400000901432M1    VNYEV   005500360039
BI00B32M1    TCV2044        202203317289-3342                HOUSING FEMALE ASS'Y     CCN000132000000132000FN00000000020220401000132000NNMD0420220211154312    1N0N  00000240000000686400000901432M1    VNYEV   005500360039
BI00B32M1    TCV2043        202203247289-3342-30             HOUSING FEMALE ASS'Y     CCN000036000000036000FN00000000020220401000036000NNMD0420220211154213    1N0N  00000240000000686400000901432M1    VNYEV   005500360039
BI00B32M1    TCV2044        202203317289-3342-30             HOUSING FEMALE ASS'Y     CCN000052800000052800FN00000000020220401000052800NNMD0420220211154316    1N0N  00000240000000686400000901432M1    VNYEV   005500360039
BI00B32M3    SM2203BEMW     202203037289-7212-30             HOUSING FEMALE ASS'Y     CCN000001920000001920FN00000000020220301000001920NNE   20220211161157    4N0N  00000024000001388400001593432M3    SASAMI  005500360039
BI00B32M3    #SM2203BHMW    202203037035-7982-30             DASH GROMMET             CCN000000240000000240FN00000000020220301000000240NNE   20220211161213    2H0H  00000012000001056000001179032M3    SASAMI  005600390040
BI00B32M3    SM2203BMMW     202203037283-1288-10             CONNECTOR HOUSING        CCN000002400000002400FN00000000020220301000002400NNE   20220211161229    4N0N  00000120000001381000001637032M3    SASAMI  005600390040
BI00B32M4    TP2041         202203107289-3342-30             HOUSING FEMALE ASS'Y     CCN000012000000012000FN00000000020220401000012000NNMD0420220211164029    1N0N  00000240000000686400000901432M4    SISAI   005500360039
BI00B32M4    TP2042         202203177289-3342-30             HOUSING FEMALE ASS'Y     CCN000012000000012000FN00000000020220401000012000NNMD0420220211164106    1N0N  00000240000000686400000901432M4    SISAI   005500360039
BI00B32M4    TP2043         202203247289-3342-30             HOUSING FEMALE ASS'Y     CCN000012000000012000FN00000000020220401000012000NNMD0420220211164206    1N0N  00000240000000686400000901432M4    SISAI   005500360039
BI00B32M4    TP2044         202203317289-3342-30             HOUSING FEMALE ASS'Y     CCN000007200000007200FN00000000020220401000007200NNMD0420220211164357    1N0N  00000240000000686400000901432M4    SISAI   005500360039
BI00B32M4    TP2042         202203177327-6983-30             MAIN FUSE                CCN000000600000000600FN00000000020220401000000600NNMD0120220211164106    4N0N  00000060000000748800000951532M4    SISAI   005400370024
BI00B32M4    TP2043         202203247327-6983-30             MAIN FUSE                CCN000000600000000600FN00000000020220401000000600NNMD0120220211164229    4N0N  00000060000000748800000951532M4    SISAI   005400370024
BI00B32M4    TP2044         202203317327-6983-30             MAIN FUSE                CCN000000600000000600FN00000000020220401000000600NNMD0120220211164357    4N0N  00000060000000748800000951532M4    SISAI   005400370024
BI00B32M4    TP2042         202203177327-6985-30             MULTI FUSE               CCN000000864000000864FN00000000020220401000000864NNMD0120220211164111    4N0N  00000028800000886100001052032M4    SISAI   005400370024
BI00B32M4    TP2043         202203247327-6985-30             MULTI FUSE               CCN000000864000000864FN00000000020220401000000864NNMD0120220211164229    4N0N  00000028800000886100001052032M4    SISAI   005400370024
BI00B32M4    TP2042         202203177327-6990-30             MULTI FUSE               CCN000000560000000560FN00000000020220401000000560NNMD0120220211164119    4NON  00000056000000724000000907032M4    SISAI   005400370024
BI00B32M4    TP2043         202203247327-6990-30             MULTI FUSE               CCN000000560000000560FN00000000020220401000000560NNMD0120220211164229    4NON  00000056000000724000000907032M4    SISAI   005400370024
BI00B32M4    TP2044         202203317327-6990-30             MULTI FUSE               CCN000000560000000560FN00000000020220401000000560NNMD0120220211164357    4NON  00000056000000724000000907032M4    SISAI   005400370024
BI00B32N1    NST2117ECU     202202247116-1180                TERMINAL                 CCN001014000000448500FN00000000020220301000448500NNEQ0820220211122630    1P0P  00001950000000618200000903432N1    TAYIPL  006400630015
BI00B32N1    NST2117ECU     202203037158-3167-80             WIRE SEAL                CCN000760000000760000FN00000000020220301000760000NNED0120220211122630    1C0C  00002000000000048000000109032N1    TAYIPL  002700430014
BI00B32N2    2152103809     202203107114-4032                TERMINAL                 CCN000007500000007500FN00000000020220401000007500NNM   20220211122630    4P0P  00000750000000735000001063632N2    YWYIPLTC006400630017
BI00B32N2    2152103809     202203107116-1471                TERMINAL                 CCN000015000000015000FN00000000020220401000015000NNM   20220211122630    4P0P  00001500000000579000000867232N2    YWYIPLTC006400630015
BI00B32N2    2152103809     202203107116-4020                TERMINAL                 CCN000135000000135000FN00000000020220401000135000NNM   20220211122630    4P0P  00001350000000513000000798232N2    YWYIPLTC006400630015
BI00B32N2    2152103809     202203107116-4032                TERMINAL                 CCN000006000000006000FN00000000020220401000006000NNM   20220211122630    4P0P  00000600000000532800000818032N2    YWYIPLTC006400630015
BI00B32N2    2152103809     202203107283-1144                CONNECTOR                CCN000002400000002400FN00000000020220401000002400NNM   20220211122630    4N0N  00000240000000602200000866132N2    YWYIPLTC005500360039
BI00B32N2    2152103809     202203107286-3970                CONNECTOR HOUSING        CCN000000330000000330FN00000000020220401000000330NNM   20220211122630    1N0N  00000011000000977300001164032N2    YWYIPLTC005500360039
BI00B32N2    2152103809     202203107370-0309                J/B ASS'Y                CCN000000576000000576FN00000000020220401000000576NNM   20220211122630    1J0J  00000001600000870400001260032N2    YWYIPLTC005500360039
BI00B32N2    2152103809     202203107370-0310                J/B ASS'Y                CCN000000300000000300FN00000000020220401000000300NNM   20220211122630    1J0J  00000001000000559000000809032N2    YWYIPLTC005500360039
BI00B32N2    2152103809     202203107114-4100-02             TERMINAL                 CCN000216000000216000FN00000000020220401000216000NNM   20220211122630    4P0P  00001800000000748800001077432N2    YWYIPLTC006400630017
BI00B32N2    2152103809     202203107114-4110-02             TERMINAL                 CCN000075000000075000FN00000000020220401000075000NNM   20220211122630    4P0P  00001500000000901500001230132N2    YWYIPLTC006400630017
BI00B32N2    2152103809     202203107114-4231-02             TERMINAL                 CCN000018000000018000FN00000000020220401000018000NNM   20220211122630    4P0P  00001800000000554400000848032N2    YWYIPLTC006400630015
BI00B32N2    2152103809     202203107116-4102-02             TERMINAL                 CCN000060000000060000FN00000000020220401000060000NNM   20220211122630    4P0P  00001200000000553200000841432N2    YWYIPLTC006400630015
BI00B32N2    2152103809     202203107116-4111-02             TERMINAL                 CCN000015000000015000FN00000000020220401000015000NNM   20220211122630    4P0P  00000750000000529500000817732N2    YWYIPLTC006400630015
BI00B32N2    2152103809     202203107116-4122-02             TERMINAL                 CCN000072000000072000FN00000000020220401000072000NNM   20220211122630    4P0P  00000450000000656600000950232N2    YWYIPLTC006400630015
BI00B32N2    2152103809     202203107116-4124-02             TERMINAL                 CCN000027000000027000FN00000000020220401000027000NNM   20220211122630    4P0P  00000300000000459900000753532N2    YWYIPLTC006400630015
BI00B32N2    2152103809     202203107116-4231-02             TERMINAL                 CCN000026000000026000FN00000000020220401000026000NNM   20220211122630    4P0P  00002600000000683800001012532N2    YWYIPLTC006400630017
BI00B32N2    2152103809     202203107116-4416-02             TERMINAL                 CCN000192000000192000FN00000000020220401000192000NNM   20220211122630    4P0P  00003200000000518400000847132N2    YWYIPLTC006400630017
BI00B32N2    2152103809     202203107116-4780-02             TERMINAL FEMALE          CCN000015000000015000FN00000000020220401000015000NNM   20220211122630    4P0P  00001500000000691500000985732N2    YWYIPLTC006400630015
BI00B32N2    2152103809     202203107140-1977-30             UPPER COVER              CCN000000320000000320FN00000000020220401000000320NNM   20220211122630    1F0F  00000001000000099500000249532N2    YWYIPLTC005600390040
BI00B32N2    2152103809     202203107158-3070-80             RUBBER STOPPER           CCN000040000000040000FN00000000020220401000040000NNM   20220211122630    1C0C  00004000000000276000000333332N2    YWYIPLTC002700430014
BI00B32N2    2152103809     202203107158-3167-80             WIRE SEAL                CCN002100000002100000FN00000000020220401002100000NNM   20220211122630    1C0C  00002000000000048000000109032N2    YWYIPLTC002700430014
BI00B32N2    2152103809     202203107158-3169-40             SEALING PLUG             CCN000600000000600000FN00000000020220401000600000NNM   20220211122630    1C0C  00004000000000156000000204132N2    YWYIPLTC004300260014
BI00B32N2    2152103809     202203107116-1687-02             TERMINAL FEMALE          CCN000008000000024000FN00000000020220401000024000NNM   20220211122630    4P0P  00002400000000303200000909632N2    YWYIPLTC005100280028
BI00B32N2    #2152103809    202203107116-4021                TERMINAL                 CCN000040500000040500FN00000000020220401000040500NNM   20220211122630    2F0P  00001350000000534600000868832N2    YWYIPLTC006400630015
BI00B32N2    #2152103809    202203107157-3821                RUBBER STOPPER           CCN000040000000040000FN00000000020220401000040000NNM   20220211122630    2C0C  00002000000000176000000238032N2    YWYIPLTC002700430014
BI00B32N2    #2152103809    202203107157-7812                SEAL RUBBER              CCN000010000000010000FN00000000020220401000010000NNM   20220211122630    2C0C  00001000000000137000000202032N2    YWYIPLTC002700430014
BI00B32N2    #2152103809    202203107173-1070                CONNECTOR BRACKET        CCN000001200000001200FN00000000020220401000001200NNM   20220211122630    2F0F  00000120000000592400000968332N2    YWYIPLTC005500360039
BI00B32N2    #2152103809    202203107174-0152                CONNECTOR                CCN000000350000000350FN00000000020220401000000350NNM   20220211122630    2F0F  00000035000000746400000918632N2    YWYIPLTC005500360039
BI00B32N2    #2152103809    202203107183-2412                HOUSING                  CCN000001600000001600FN00000000020220401000001600NNM   20220211122630    2F0F  00000160000001059200001245632N2    YWYIPLTC005500360039
BI00B32N2    #2152103809    202203107187-3356                JOINT CONNECTOR          CCN000003600000003600FN00000000020220401000003600NNM   20220211122630    2F0F  00000120000000759600001024432N2    YWYIPLTC005600390040
BI00B32N2    #2152103809    202203107187-3360                JOINT CONNECTOR          CCN000006000000006000FN00000000020220401000006000NNM   20220211122630    2F0F  00000120000000759600001026832N2    YWYIPLTC005600390040
BI00B32N2    #2152103809    202203107282-3020                CONNECTOR                CCN000001000000001000FN00000000020220401000001000NNM   20220211122630    2N0N  00000100000000984000001145432N2    YWYIPLTC005500360039
BI00B32N2    #2152103809    202203107283-5833                CONNECTOR HOUSING        CCN000003640000003640FN00000000020220401000003640NNM   20220211122630    2N0N  00000364000001378000001686732N2    YWYIPLTC005500360039
BI00B32N2    #2152103809    202203107140-1978-30             LOWER COVER              CCN000000440000000440FN00000000020220401000000440NNM   20220211122630    2F0F  00000000800000207100000395132N2    YWYIPLTC005500360039
BI00B32N2    #2152103809    202203107157-7811-80             SEAL RUBBER              CCN000010000000010000FN00000000020220401000010000NNM   20220211122630    2C0C  00001000000000105000000182732N2    YWYIPLTC002700430014
BI00B32N2    #2152103809    202203107158-3003-90             RUBBER STOPPER           CCN000020000000020000FN00000000020220401000020000NNM   20220211122630    2C0C  00002000000000250000000306032N2    YWYIPLTC002700430014
BI00B32N2    #2152103809    202203107186-3977-90             CONNECTOR HOUSING        CCN000002400000002400FN00000000020220401000002400NNM   20220211122630    2F0F  00000240000001068200001239432N2    YWYIPLTC005500360039
BI00B32N2    #2152103809    202203107187-3358-30             JOINT CONNECTOR          CCN000001200000001200FN00000000020220401000001200NNM   20220211122630    2F0F  00000120000000673200000940432N2    YWYIPLTC005600390040
BI00B32N2    @2152103809    202203107183-3190                JOINT CONNECTOR          CCN000003600000003600FN00000000020220401000003600NNM   20220211122630    3F0F  00000360000000457600000667832N2    YWYIPLTC005500360039
BI00B32P8    TAPI-205A1     202204067283-4855                CONNECTOR HOUSING        CCN000009600000009600FN00000000020220501000009600NNMD0420220211155050    4N0N  00000240000001188400001400032P8    YIYTM   005500360039
BI00B32R7    R-TAP220066    202204217298-1186-40             SQUIB SUB ASS'Y          CCN000170000000170000FN00000000020220301000170000NNED0220220211162718    4N0N  00001000000000650000000774532R7    IVYCIC  005400370024
BI00B32R7    R-TAP220068    202202247298-1186-40             SQUIB SUB ASS'Y          CCN000080000000080000FN00000000020220301000080000NNE   20220211122630    4N0N  00001000000000650000000774532R7    IVYCIC  005400370024
BI00B32R7    R-TAP220067    202203177158-3169-40             SEALING PLUG             CCN000160000000160000FN00000000020220401000160000NNE   20220211122630    1C0C  00004000000000156000000204132R7    IVYCIC  004300260014
BI00B32R7    R-TAP220069    202202247116-4121-02             TERMINAL                 CCN000004500000004500FN00000000020220301000004500NNE   20220211122630    4P0P  00000450000000618800000912432R7    IVYCIC  006400630015
BI00B32R7    R-TAP220070    202202247116-4121-02             TERMINAL                 CCN000027000000027000FN00000000020220201000027000NNE   20220211122630    4P0P  00000450000000618800000912432R7    IVYCIC  006400630015
BI00B32R7    R-TAP220071    202202247116-4121-02             TERMINAL                 CCN000081000000081000FN00000000020220201000081000NNE   20220211122630    4P0P  00000450000000618800000912432R7    IVYCIC  006400630015
BI00B32R7    R-TAP220072    202202247116-4121-02             TERMINAL                 CCN000072000000072000FN00000000020220201000072000NNE   20220211122630    4P0P  00000450000000618800000912432R7    IVYCIC  006400630015
BI00B32R7    R-TAP220073    202202247116-4121-02             TERMINAL                 CCN000094500000094500FN00000000020220201000094500NNE   20220211122630    4P0P  00000450000000618800000912432R7    IVYCIC  006400630015
BI00B32R7    #R-TAP220074   202202247282-5545-10             CONNECTOR                CCN000006400000006400FN00000000020220201000006400NNE   20220211162331    2N0N  00000080000001293600001465332R7    IVYCIC  005500360039
BI00A32U5    #DI2012        202202177189-3032                HOUSING FEMALE           CCN000012800000012800FN00000000020220501000012800NNMM0020220211153526U5  2F0F  00000160000000788400001018432U5    AMAMSD  005500360039
BI00A32U5    #DI2012        202202177158-3008-80             RUBBER STOPPER           CCN000080000000080000FN00000000020220501000080000NNMM0020220211150500U5  2C0C  00002000000000288000000343032U5    AMAMSD  004300270014
BI00A32U5    #DI2012        202202177289-4200-30             HOUSING FEMALE ASS'Y     CCN000004000000004000FN00000000020220501000004000NNMM0020220211150442U5  2N0N  00000200000000926000001021032U5    AMAMSD  005400370024
BI00A32U5    #DI2007A       202202177189-3032                HOUSING FEMALE           CCN000012800000012800FN00000000020220401000012800NNEM0020220211153213U5  2F0F  00000160000000788400001018432U5    AMAMSD  005500360039
BI00A32U5    #DI2013        202202177289-4200-30             HOUSING FEMALE ASS'Y     CCN000006000000006000FN00000000020220501000006000NNMM0020220211150709U5  2N0N  00000200000000926000001021032U5    AMAMSD  005400370024
BI00A32U5    #DI2014        202202177158-3008-80             RUBBER STOPPER           CCN000020000000020000FN00000000020220501000020000NNMM0020220211152945U5  2C0C  00002000000000288000000343032U5    AMAMSD  004300270014
BI00B32W2    HN2203AWMW     202202227327-6884-30             MULTI FUSE               CCN000000288000000288FN00000000020220301000000288NNE   20220211122630    4N0N  00000028800000988900001154832W2    HNHNY   005400370024
BI00B32W2    #HN2203ANMW    202203017123-1424                CONNECTOR HOUSING        CCN000004200000004200FN00000000020220301000004200NNE   20220211161249    2F0F  00000420000000979400001124432W2    HNHNY   005400370024
BI00B32W4    @4500184502    202202247183-8049                CONNECTOR HOUSING        CCN000160000000080000FN00000000020220201000080000NNED0220220211162105W9173F0F  00000400000000583600000740032W917  HJYHK   005400370024
BI00B32W4    4500189007     202205197158-3167-80             WIRE SEAL                CCN000320000000320000FN00000000020220401000320000NNED0220220211122630W4N61C0C  00002000000000048000000109032W4N6  HJYHK-J 002700430014
BI00B32W4    4500189010     202205197158-3167-80             WIRE SEAL                CCN000400000000400000FN00000000020220401000400000NNED0220220211122630W4N61C0C  00002000000000048000000109032W4N6  HJYHK-J 002700430014
BI00B32W4    4500189022     202205267288-6547                CONNECTOR MALE ASS'Y     CCN000006000000006000FN00000000020220401000006000NNED0420220211155129W4164N0N  00000075000001205300001340332W416  HJYHK   005400370024
BI00A32W4    #4500189086    202202157158-3374-90             CONNECTOR WIRE SEAL      CCN000020000000020000FN00000000020220201000020000NNE00020220211151911W4P72H0H  00002000000000172000000229332W4P7  HJYHK   002700430014
BI00B32W4    4500189090     202205127158-3167-80             WIRE SEAL                CCN002420000002420000FN00000000020220301002420000NNED0220220211122630W4B71C0C  00002000000000048000000109032W4B7  HJYHK-J 002700430014
BI00A32W4    4500189094     202204047158-3167-80             WIRE SEAL                CCN000040000000040000FN00000000020220401000040000NNE   20220211122630W4M61C0C  00002000000000048000000109032W4M6  HJYHK-J 002700430014
BI00A32W4    4500189095     202204117283-1020                CONNECTOR                CCN000018000000018000FN00000000020220401000018000NNE   20220211122630W4M64N0N  00000600000000840000001049332W4M6  HJYHK-J 005600390040
BI00B32W4    4500189103     202204077283-5623-60             CONNECTOR                CCN000001600000001600FN00000000020220401000001600NNE   20220211122630W4461N0N  00000160000001546000001846332W446  HJYHK   005600390040
BI00B32W4    4500189103     202204077116-4100-02             TERMINAL                 CCN000075000000075000FN00000000020220401000075000NNE   20220211122630W4464P0P  00001500000000696000000990232W446  HJYHK   006400630015
BI00B32W4    4500189103     202204077116-4112-02             TERMINAL                 CCN000060000000060000FN00000000020220401000060000NNE   20220211122630W4464P0P  00000600000000450000000738232W446  HJYHK   006400630015
BI00B32W4    4500189103     202204077116-4102-02             TERMINAL                 CCN000108000000108000FN00000000020220401000108000NNE   20220211122630W4464P0P  00001200000000553200000841432W446  HJYHK   006400630015
BI00B32W4    4500189103     202204077116-4025                TERMINAL                 CCN000016000000016000FN00000000020220401000016000NNE   20220211122630W4464P0P  00001600000000644800000975132W446  HJYHK   006400630017
BI00B32W4    4500189103     202204077114-4100-02             TERMINAL                 CCN000018000000018000FN00000000020220401000018000NNE   20220211122630W4464P0P  00001800000000748800001077432W446  HJYHK   006400630017
BI00B32W4    4500189103     202204077116-4026                TERMINAL                 CCN000016000000016000FN00000000020220401000016000NNE   20220211122630W4464P0P  00001600000000664000000994332W446  HJYHK   006400630017
BI00B32W4    4500189103     202204077158-3168-80             SEALED                   CCN000020000000020000FN00000000020220401000020000NNE   20220211122630W4461C0C  00002000000000044000000092132W446  HJYHK   004300260014
BI00B32W4    4500189103     202204077158-3166-60             WIRE SEAL                CCN000040000000040000FN00000000020220401000040000NNE   20220211122630W4461C0C  00004000000000104000000152432W446  HJYHK   002700430014
BI00B32W4    4500189103     202204077158-3167-80             WIRE SEAL                CCN000060000000060000FN00000000020220401000060000NNE   20220211122630W4461C0C  00002000000000048000000109032W446  HJYHK   002700430014
BI00B32W4    4500189103     202204077283-5548-30             CONNECTOR                CCN000001500000001500FN00000000020220401000001500NNE   20220211122630W4464N0N  00000150000001109000001302032W446  HJYHK   005600390040
BI00B32W4    4500189103     202204077116-4101-02             TERMINAL                 CCN000048000000048000FN00000000020220401000048000NNE   20220211122630W4464P0P  00001200000000582000000876232W446  HJYHK   006400630015
BI00B32W4    4500189103     202204077158-3169-40             SEALING PLUG             CCN000040000000040000FN00000000020220401000040000NNE   20220211122630W4461C0C  00004000000000156000000204132W446  HJYHK   004300260014
BI00B32W4    4500189103     202204077114-4110-02             TERMINAL                 CCN000015000000015000FN00000000020220401000015000NNE   20220211122630W4464P0P  00001500000000901500001230132W446  HJYHK   006400630017
BI00B32W4    4500189103     202204077116-4103-02             TERMINAL                 CCN000012000000012000FN00000000020220401000012000NNE   20220211122630W4464P0P  00001200000000571200000859432W446  HJYHK   006400630015
BI00B32W4    #4500189103    202204077158-3003-90             RUBBER STOPPER           CCN000020000000020000FN00000000020220401000020000NNE   20220211122630W4462C0C  00002000000000250000000306032W446  HJYHK   002700430014
BI00B32W4    #4500189103    202204077282-3243-40             CONNECTOR                CCN000001600000001600FN00000000020220401000001600NNE   20220211122630W4462N0N  00000080000001006000001282332W446  HJYHK   005600390040
BI00B32W4    #4500189103    202204077283-8123-40             CONNECTOR HOUSING        CCN000004000000004000FN00000000020220401000004000NNE   20220211122630W4462N0N  00000400000000380000000530032W446  HJYHK   005600390023
BI00B32W4    #4500189103    202204077047-5344                RETAINER                 CCN000020000000020000FN00000000020220401000020000NNE   20220211122630W4462F0F  00001000000000870000001016032W446  HJYHK   005600390023
BI00B32W4    4500189104     202204217114-1475                TERMINAL                 CCN000013500000013500FN00000000020220401000013500NNE   20220211122630W4464P0P  00001350000000480600000774232W446  HJYHK   006400630015
BI00A32W4    4500189113     202204217158-3169-40             SEALING PLUG             CCN000040000000040000FN00000000020220401000040000NNE   20220211122630W4D31C0C  00004000000000156000000204132W4D3  HJYHK-J 004300260014
BI00A32W4    4500189121     202203287158-3167-80             WIRE SEAL                CCN000120000000120000FN00000000020200301000120000NNED0020220211133426W4A21C0C  00002000000000048000000109032W4A2  HJYHK-J 002700430014
BI00A32W4    4500189121     202203287116-4111-02             TERMINAL                 CCN000022500000022500FN00000000020200301000022500NNED0020220211133534W4A24P0P  00000750000000529500000817732W4A2  HJYHK-J 006400630015
BI00A32W4    4500189121     202203287283-7029-40             CONNECTOR                CCN000006000000006000FN00000000020200301000006000NNED0020220211133426W4A21N0N  00000600000001026000001200032W4A2  HJYHK-J 005600390023
BI00A32W4    #4500189121    202203287147-3642-30             CLIP                     CCN000036000000036000FN00000000020200301000036000NNED0020220211133603W4A22F0F  00000300000000542000000721332W4A2  HJYHK-J 005600390040
BI00A32W4    #4500189121    202203287283-4190-30             CONNECTOR                CCN000004560000004560FN00000000020200301000004560NNED0020220211133449W4A22N0N  00000024000000846000001115532W4A2  HJYHK-J 005600390040
BI00A32W4    4500189122     202204047116-4026                TERMINAL                 CCN000032000000032000FN00000000020220401000032000NNE   20220211122630W4A24P0P  00001600000000664000000994332W4A2  HJYHK-J 006400630017
BI00A32W4    4500189122     202204047116-4104-02             TERMINAL                 CCN000024000000024000FN00000000020220401000024000NNE   20220211122630W4A24P0P  00001200000000580800000972432W4A2  HJYHK-J 006400630015
BI00A32W4    #4500189122    202204047283-8226-30             CONNECTOR                CCN000012000000012000FN00000000020220401000012000NNE   20220211122630W4A22N0N  00000200000000820000001008032W4A2  HJYHK-J 005400370024
BI00A32W4    #4500189122    202204047157-3646                RUBBER STOPPER           CCN000020000000020000FN00000000020220401000020000NNE   20220211122630W4A22H0H  00002000000000184000000255232W4A2  HJYHK-J 002700430014
BI00A32W4    4500189124     202204117116-4103-02             TERMINAL                 CCN000024000000024000FN00000000020220401000024000NNE   20220211122630W4A24P0P  00001200000000571200000859432W4A2  HJYHK-J 006400630015
BI00A32W4    4500189124     202204117116-4102-02             TERMINAL                 CCN000048000000048000FN00000000020220401000048000NNE   20220211122630W4A24P0P  00001200000000553200000841432W4A2  HJYHK-J 006400630015
BI00A32W4    4500189124     202204117116-4031                TERMINAL                 CCN000007500000007500FN00000000020220401000007500NNE   20220211122630W4A24P0P  00000750000000619500000904732W4A2  HJYHK-J 006400630015
BI00A32W4    4500189124     202204117116-4110-02             TERMINAL                 CCN000018000000018000FN00000000020220401000018000NNE   20220211122630W4A24P0P  00000900000000594000000882232W4A2  HJYHK-J 006400630015
BI00A32W4    4500189124     202204117158-3168-80             SEALED                   CCN000020000000020000FN00000000020220401000020000NNE   20220211122630W4A21C0C  00002000000000044000000092132W4A2  HJYHK-J 004300260014
BI00A32W4    4500189124     202204117116-4112-02             TERMINAL                 CCN000036000000036000FN00000000020220401000036000NNE   20220211122630W4A24P0P  00000600000000450000000738232W4A2  HJYHK-J 006400630015
BI00A32W4    4500189124     202204117116-4100-02             TERMINAL                 CCN000045000000045000FN00000000020220401000045000NNE   20220211122630W4A24P0P  00001500000000696000000990232W4A2  HJYHK-J 006400630015
BI00A32W4    #4500189124    202204117183-7725-40             HOUSING                  CCN000006000000006000FN00000000020220401000006000NNE   20220211122630W4A22F0F  00000600000000840000001040032W4A2  HJYHK-J 005600390040
BI00B32W4    4500189136     202203297288-9556-30             SEALED ASSY MALE         CCN000023760000023760FN00000000020220301000023760NNE   20220211122630W4O74N0N  00000072000000537900000786332W4O7  H YHK-J 005500360039
BI00B32W4    4500189142     202205267283-1020                CONNECTOR                CCN000006000000006000FN00000000020220501000006000NNE   20220211122630W4P84N0N  00000600000000840000001049332W4P8  HJYHK-J 005600390040
BI00B32W4    4500189144     202206307283-1020                CONNECTOR                CCN000006000000006000FN00000000020220601000006000NNE   20220211122630W4P84N0N  00000600000000840000001049332W4P8  HJYHK-J 005600390040
BI00A32W4    4500189153     202204117158-3167-80             WIRE SEAL                CCN000120000000120000FN00000000020220401000120000NNE   20220211122630W4G91C0C  00002000000000048000000109032W4G9  HJYHK-J 002700430014
BI00A32W4    4500189156     202204187158-3166-60             WIRE SEAL                CCN000040000000040000FN00000000020220401000040000NNE   20220211122630W4P61C0C  00004000000000104000000152432W4P6  HJYHK-J 002700430014
BI00A32W4    #4500189156    202204187183-7725-40             HOUSING                  CCN000012000000012000FN00000000020220401000012000NNE   20220211122630W4P62F0F  00000600000000840000001040032W4P6  HJYHK-J 005600390040
BI00A32W4    4500189159     202204047116-4112-02             TERMINAL                 CCN000006000000006000FN00000000020220401000006000NNE   20220211122630W4424P0P  00000600000000450000000738232W442  HJYHK   006400630015
BI00A32W4    4500189167     202204107116-4102-02             TERMINAL                 CCN000012000000012000FN00000000020220401000012000NNE   20220211122630W4424P0P  00001200000000553200000841432W442  HJYHK   006400630015
BI00A32W4    #4500189169    202204047186-8845                HOUSING MALE             CCN000003000000003000FN00000000020220401000003000NNE   20220211122630W4M52F0F  00000300000000690000000801532W4M5  HJYHK-J 005400370024
BI00A32W4    4500189170     202204117116-4025                TERMINAL                 CCN000016000000016000FN00000000020220401000016000NNE   20220211122630W4M54P0P  00001600000000644800000975132W4M5  HJYHK-J 006400630017
BI00A32W4    4500189170     202204117283-7028-30             CONNECTOR                CCN000012000000012000FN00000000020220401000012000NNE   20220211122630W4M54N0N  00000300000001452000001681332W4M5  HJYHK-J 005600390040
BI00A32W4    4500189171     202204187283-1030                CONNECTOR                CCN000018000000018000FN00000000020220401000018000NNE   20220211122630W4M54N0N  00000600000000988000001172032W4M5  HJYHK-J 005500360039
BI00A32W4    4500189177     202204117116-4100-02             TERMINAL                 CCN000030000000030000FN00000000020220401000030000NNE   20220211122630W4144P0P  00001500000000696000000990232W414  HJYHK   006400630015
BI00A32W4    4500189177     202204117114-4112-02             TERMINAL                 CCN000027000000027000FN00000000020220401000027000NNE   20220211122630W4144P0P  00000900000000598500000927132W414  HJYHK   006400630017
BI00A32W4    4500189177     202204117116-4111-02             TERMINAL                 CCN000015000000015000FN00000000020220401000015000NNE   20220211122630W4144P0P  00000750000000529500000817732W414  HJYHK   006400630015
BI00A32W4    4500189177     202204117116-4112-02             TERMINAL                 CCN000030000000030000FN00000000020220401000030000NNE   20220211122630W4144P0P  00000600000000450000000738232W414  HJYHK   006400630015
BI00A32W4    4500189177     202204117114-4100-02             TERMINAL                 CCN000036000000036000FN00000000020220401000036000NNE   20220211122630W4144P0P  00001800000000748800001077432W414  HJYHK   006400630017
BI00A32W4    4500189177     202204117158-3166-60             WIRE SEAL                CCN000040000000040000FN00000000020220401000040000NNE   20220211122630W4141C0C  00004000000000104000000152432W414  HJYHK   002700430014
BI00A32W4    4500189177     202204117116-4104-02             TERMINAL                 CCN000012000000012000FN00000000020220401000012000NNE   20220211122630W4144P0P  00001200000000580800000972432W414  HJYHK   006400630015
BI00A32W4    #4500189177    202204117282-6458-40             CONNECTOR                CCN000001000000001000FN00000000020220401000001000NNE   20220211122630W4142N0N  00000100000001206000001350532W414  HJYHK   005500360039
BI00A32W4    #4500189178    202204257158-3654-80             WIRE TUBE                CCN000040000000040000FN00000000020220401000040000NNE   20220211122630W4142H0H  00004000000000104000000152232W414  HJYHK   004300270014
BI00A32W4    #4500189179    202204047158-3120-90             CONNECTOR WIRE SEAL      CCN000040000000040000FN00000000020220401000040000NNE   20220211122630W4G92C0C  00002000000000136000000194032W4G9  HJYHK-J 002700430014
BI00B32W4    4500189181     202204077116-4122-02             TERMINAL                 CCN000004500000004500FN00000000020220401000004500NNE   20220211122630W4174P0P  00000450000000656600000950232W417  HJYHK   006400630015
BI00B32W4    4500189181     202204077283-5843                CONNECTOR                CCN000003000000003000FN00000000020220401000003000NNE   20220211122630W4171N0N  00000150000000889000001132032W417  HJYHK   005600390040
BI00B32W4    4500189181     202204077114-6041                TERMINAL                 CCN000003600000003600FN00000000020220401000003600NNE   20220211122630W4174P0P  00000360000000580700000824232W417  HJYHK   006400630015
BI00B32W4    4500189181     202204077283-5832                CONNECTOR HOUSING        CCN000002400000002400FN00000000020220401000002400NNE   20220211122630W4171N47  00000240000000723800000873832W417  HJYHK   005500360039
BI00B32W4    #4500189181    202204077183-8927                HOUSING                  CCN000004000000004000FN00000000020220401000004000NNE   20220211122630W4172F0F  00000400000000714000000912732W417  HJYHK   005500360039
BI00B32W4    #4500189181    202204077282-3020                CONNECTOR                CCN000004000000004000FN00000000020220401000004000NNE   20220211122630W4172N0N  00000100000000984000001145432W417  HJYHK   005500360039
BI00B32W4    #4500189183    202204287147-3642-30             CLIP                     CCN000090000000090000FN00000000020220401000090000NNE   20220211122630W4172F0F  00000300000000542000000721332W417  HJYHK   005600390040
BI00B32W4    @4500184502    202203177183-8049                CONNECTOR HOUSING        CCN000040000000040000FN00000000020220201000040000NNED0420220211122630W9173F0F  00000400000000583600000740032W917  HJYHK   005400370024
BI00B32W4    @4500184502    202203247183-8049                CONNECTOR HOUSING        CCN000040000000040000FN00000000020220201000040000NNED0220220211122630W9173F0F  00000400000000583600000740032W917  HJYHK   005400370024
BI00A32W6    SW22013QMW     202202157327-6880-30             MULTI FUSE               PCN000009792000000000FY00000000020220101000000000NNMQ0820220211164957    4N0N  00000028800001012600001178532W6    SYSYA-WJ005400370024
BI00A32W6    SW22012QMW     202202227327-6884-30             MULTI FUSE               PCN000009504000009504FN00000000020220101000009504NNMD0020220211164724    4N0N  00000028800000988900001154832W6    SYSYA-WJ005400370024
BI00B32W6    SW22043QMW     202203237283-4855                CONNECTOR HOUSING        CCN000007200000007200FN00000000020220401000007200NNMD0420220211155244    4N0N  00000240000001188400001400032W6    SYSYA-WJ005500360039
BI00B32W6    SW22042QMW     202203167287-3885                HYBRID FEMALE ASS'Y      CCN000007200000007200FN00000000020220401000007200NNMD0420220211155305    1N0N  00000240000001029600001249632W6    SYSYA-WJ005500360039
BI00B32W6    SW22044QMW     202203307288-6547                CONNECTOR MALE ASS'Y     CCN000006750000006750FN00000000020220401000006750NNMD0420220211155400    4N0N  00000075000001205300001340332W6    SYSYA-WJ005400370024
BI00B32W6    SW22041QMW     202203097289-3342                HOUSING FEMALE ASS'Y     CCN000019200000019200FN00000000020220401000019200NNMD0420220211155420    1N0N  00000240000000686400000901432W6    SYSYA-WJ005500360039
BI00B32W6    SW22042QMW     202203167289-3342                HOUSING FEMALE ASS'Y     CCN000014400000014400FN00000000020220401000014400NNMD0420220211155441    1N0N  00000240000000686400000901432W6    SYSYA-WJ005500360039
BI00B32W6    SW22043QMW     202203237289-3342                HOUSING FEMALE ASS'Y     CCN000026400000026400FN00000000020220401000026400NNMD0420220211155503    1N0N  00000240000000686400000901432W6    SYSYA-WJ005500360039
BI00B32W6    SW22044QMW     202203307289-3342                HOUSING FEMALE ASS'Y     CCN000019200000019200FN00000000020220401000019200NNMD0420220211155519    1N0N  00000240000000686400000901432W6    SYSYA-WJ005500360039
BI00B32W6    SW22041QMW     202203097289-3342-30             HOUSING FEMALE ASS'Y     CCN000019200000019200FN00000000020220401000019200NNMD0420220211155540    1N0N  00000240000000686400000901432W6    SYSYA-WJ005500360039
BI00B32W6    SW22042QMW     202203167289-3342-30             HOUSING FEMALE ASS'Y     CCN000014400000014400FN00000000020220401000014400NNMD0420220211155556    1N0N  00000240000000686400000901432W6    SYSYA-WJ005500360039
BI00B32W6    SW22043QMW     202203237289-3342-30             HOUSING FEMALE ASS'Y     CCN000021600000021600FN00000000020220401000021600NNMD0420220211155612    1N0N  00000240000000686400000901432W6    SYSYA-WJ005500360039
BI00B32W6    SW22044QMW     202203307289-3342-30             HOUSING FEMALE ASS'Y     CCN000019200000019200FN00000000020220401000019200NNMD0420220211155630    1N0N  00000240000000686400000901432W6    SYSYA-WJ005500360039
BI00B32W6    SW22042QMW     202203167289-3342-90             HOUSING FEMALE ASS'Y     CCN000012000000012000FN00000000020220401000012000NNMD0420220211155654    1N0N  00000240000000686400000901432W6    SYSYA-WJ005500360039
BI00B32W6    SW22043QMW     202203237289-3342-90             HOUSING FEMALE ASS'Y     CCN000012000000012000FN00000000020220401000012000NNMD0420220211155710    1N0N  00000240000000686400000901432W6    SYSYA-WJ005500360039
BI00B32W6    SW22044QMW     202203307289-3342-90             HOUSING FEMALE ASS'Y     CCN000009600000009600FN00000000020220401000009600NNMD0420220211155729    1N0N  00000240000000686400000901432W6    SYSYA-WJ005500360039
BI00B32W9    4500189135     202203227298-1145-4W             SQUIB SUB ASS'Y          CCN000010000000010000FN00000000020220301000010000NNE   20220211122630W9  4N0N  00001000000000787900000944932W9    HKYHK   005400370024
BI00B32W9    4500189135     202203227174-1849-70             COVER                    CCN000050000000050000FN00000000020220301000050000NNE   20220211122630W9  1F0F  00002500000000622500000761932W9    HKYHK   005400370024
BI00B32W9    4500189143     202203297158-3165-90             WIRE SEAL                CCN000040000000040000FN00000000020220301000040000NNE   20220211122630W9  1C0C  00004000000000124000000172432W9    HKYHK   004300270014
BI00B32X5    TIB1046        202202157289-3342                HOUSING FEMALE ASS'Y     CCN000012000000024000FN00000000020220101000024000NNM00020220211161527X5  1N0N  00000240000000686400000901432X5    EPYNA-E 005500360039
BI00B32X5    TIB1046        202202157289-3342                HOUSING FEMALE ASS'Y     CCN000012000000012000FN00000000020220101000012000NNM00020220211161527X5  1N0N  00000240000000686400000901432X5    EPYNA-E 005500360039
BI00B32X5    TIB2004        202202157289-3342-90             HOUSING FEMALE ASS'Y     CCN000012000000012000FN00000000020220301000012000NNM00020220211161552X5  1N0N  00000240000000686400000901432X5    EPYNA-E 005500360039
BI00B32Y1    TA2041A        202203217289-3342-30             HOUSING FEMALE ASS'Y     CCN000021600000021600FN00000000020220401000021600NNMD0420220211155800    1N0N  00000240000000686400000901432Y1    YAYAS   005500360039
BI00B32Y1    TA2042A        202204047289-3342-30             HOUSING FEMALE ASS'Y     CCN000021600000021600FN00000000020220401000021600NNMD0420220211155814    1N0N  00000240000000686400000901432Y1    YAYAS   005500360039
BI00B32Y2    TAU1182        202204287289-3342-30             HOUSING FEMALE ASS'Y     CCN000002400000002400FN00000000020220701000002400NNED0420220211160035    1N0N  00000240000000686400000901432Y2    YUYUY   005500360039
BI00A32Y8    TAIM22021A     202203117289-6547                HOUSING FEMALE ASS'Y     CCN000002400000002400FN00000000020220401000002400NNE   20220211132056Y8  1N0N  00000240000001152000001362032Y8    CLYCL   005500360039
