BI00A1200    2399T51921     202201267288-6547                CONNECTOR MALE ASS'Y     PCN000216750000201750FY00020175020211101000000000NNM00020220127140306    4N0N  0000007500000120530000134031200    YCYC    005400370024
BI00A1200    2399T51922     202202047288-6547                CONNECTOR MALE ASS'Y     PCN000216750000164250FN00000000020211101000164250NNMM0020220127134925    4N0N  0000007500000120530000134031200    YCYC    005400370024
BI00A1200    2399T51923     202202097288-6547                CONNECTOR MALE ASS'Y     PCN000216000000089250FN00000000020211101000089250NNMM0020220127135608    4N0N  0000007500000120530000134031200    YCYC    005400370024
BI00A1200    2399T51A17     202202237288-6547                CONNECTOR MALE ASS'Y     PCN000311250000156000FN00000000020211201000156000NNMM0020220127140618    4N0N  0000007500000120530000134031200    YCYC    005400370024
BI00A1200    2399T51A18     202203037288-6547                CONNECTOR MALE ASS'Y     PCN000310500000075000FN00000000020211201000075000NNMM0020220127141132    4N0N  0000007500000120530000134031200    YCYC    005400370024
BI00A1200    2399T51A20     202203167288-6547                CONNECTOR MALE ASS'Y     PCN000310500000205500FN00000000020211201000205500NNMM0020220127141430    4N0N  0000007500000120530000134031200    YCYC    005400370024
BI00A1200    2399T51A16     202202097288-6547                CONNECTOR MALE ASS'Y     PCN000078750000078750FN00000000020211201000078750NNMM0020220127135117    4N0N  0000007500000120530000134031200    YCYC    005400370024
BI00A1200    2399T51A16     202202177288-6547                CONNECTOR MALE ASS'Y     PCN000078750000093000FN00000000020211201000093000NNMM0020220127140035    4N0N  0000007500000120530000134031200    YCYC    005400370024
BI00A1200    2399T51A16     202202237288-6547                CONNECTOR MALE ASS'Y     PCN000078750000064500FN00000000020211201000064500NNMM0020220127140035    4N0N  0000007500000120530000134031200    YCYC    005400370024
BI00B1200    2399T51A17     202203317288-6547                CONNECTOR MALE ASS'Y     CCN000078750000000000FY00000000020211201000000000NNMQ0020220127140618    4N0N  0000007500000120530000134031200    YCYC    005400370024
BI00A1200    2399T51A17     202203037288-6547                CONNECTOR MALE ASS'Y     PCN000078750000155250FN00000000020211201000155250NNMM0020220127140618    4N0N  0000007500000120530000134031200    YCYC    005400370024
BI00B1200    2399T51A17     202204147288-6547                CONNECTOR MALE ASS'Y     CCN000078750000000000FY00000000020211201000000000NNMQ0020220127140618    4N0N  0000007500000120530000134031200    YCYC    005400370024
BI00A1200    2399T51A18     202203097288-6547                CONNECTOR MALE ASS'Y     PCN000078000000220500FN00000000020211201000220500NNMM0020220127141253    4N0N  0000007500000120530000134031200    YCYC    005400370024
BI00B1200    2399T51A18     202205057288-6547                CONNECTOR MALE ASS'Y     CCN000078750000000000FY00000000020211201000000000NNMQ0020220127141253    4N0N  0000007500000120530000134031200    YCYC    005400370024
BI00A1200    2399T51A18     202203197288-6547                CONNECTOR MALE ASS'Y     PCN000078750000015000FN00000000020211201000015000NNMM0020220127141253    4N0N  0000007500000120530000134031200    YCYC    005400370024
BI00A1200    2399T51A20     202203237288-6547                CONNECTOR MALE ASS'Y     PCN000078000000100500FN00000000020211201000100500NNMM0020220127141703    4N0N  0000007500000120530000134031200    YCYC    005400370024
BI00A1200    2399T51A20     202203307288-6547                CONNECTOR MALE ASS'Y     PCN000078750000004500FN00000000020211201000004500NNMM0020220127141703    4N0N  0000007500000120530000134031200    YCYC    005400370024
BI00B1200    2399T51A20     202206097288-6547                CONNECTOR MALE ASS'Y     CCN000078750000000000FY00000000020211201000000000NNMQ0020220127141703    4N0N  0000007500000120530000134031200    YCYC    005400370024
BI00A1200    2399T51C15     202203237288-6547                CONNECTOR MALE ASS'Y     PCN000240000000120000FN00000000020220101000120000NNMM0020220127141855    4N0N  0000007500000120530000134031200    YCYC    005400370024
BI00A1200    2399T51C16     202203307288-6547                CONNECTOR MALE ASS'Y     PCN000240000000096000FN00000000020220101000096000NNMM0020220127142049    4N0N  0000007500000120530000134031200    YCYC    005400370024
BI00A1200    2399T51C17     202204077288-6547                CONNECTOR MALE ASS'Y     PCN000240000000076500FN00000000020220101000076500NNMM0020220127142247    4N0N  0000007500000120530000134031200    YCYC    005400370024
BI00A1200    2399T51C18     202204187288-6547                CONNECTOR MALE ASS'Y     PCN000240000000120000FN00000000020220201000120000NNMM0020220127142405    4N0N  0000007500000120530000134031200    YCYC    005400370024
BI00A1200    2399T51C19     202204277288-6547                CONNECTOR MALE ASS'Y     PCN000240000000100500FN00000000020220201000100500NNMM0020220127142502    4N0N  0000007500000120530000134031200    YCYC    005400370024
BI00A1200    2399T51C15     202203307288-6547                CONNECTOR MALE ASS'Y     PCN000120000000120000FN00000000020220101000120000NNMM0020220127141855    4N0N  0000007500000120530000134031200    YCYC    005400370024
BI00A1200    2399T51C16     202204077288-6547                CONNECTOR MALE ASS'Y     PCN000120000000144000FN00000000020220101000144000NNMM0020220127142049    4N0N  0000007500000120530000134031200    YCYC    005400370024
BI00A1200    2399T51C17     202204187288-6547                CONNECTOR MALE ASS'Y     PCN000120000000163500FN00000000020220101000163500NNMM0020220127142247    4N0N  0000007500000120530000134031200    YCYC    005400370024
BI00A1200    2399T51C18     202204277288-6547                CONNECTOR MALE ASS'Y     PCN000120000000120000FN00000000020220201000120000NNMM0020220127142405    4N0N  0000007500000120530000134031200    YCYC    005400370024
BI00A1200    2399T51C19     202205067288-6547                CONNECTOR MALE ASS'Y     PCN000120000000139500FN00000000020220201000139500NNMM0020220127142502    4N0N  0000007500000120530000134031200    YCYC    005400370024
BI00A1200    2399T51A16     202202047288-6547                CONNECTOR MALE ASS'Y     PCN000056250000056250FN00000000020211201000056250NNMM0020220127143230    4N0N  0000007500000120530000134031200    YCYC    005400370024
BI00A1200    2399T52113     202205117288-6547                CONNECTOR MALE ASS'Y     PCN000173250000173250FN00000000020220301000173250NNMM0020220127142536    4N0N  0000007500000120530000134031200    YCYC    005400370024
BI00A1200    2399T52114     202205187288-6547                CONNECTOR MALE ASS'Y     PCN000173250000173250FN00000000020220301000173250NNMM0020220127142554    4N0N  0000007500000120530000134031200    YCYC    005400370024
BI00A1200    2399T52115     202205257288-6547                CONNECTOR MALE ASS'Y     PCN000173250000173250FN00000000020220301000173250NNMM0020220127142612    4N0N  0000007500000120530000134031200    YCYC    005400370024
BI00A1200    2399T52116     202206017288-6547                CONNECTOR MALE ASS'Y     PCN000173250000173250FN00000000020220301000173250NNMM0020220127142633    4N0N  0000007500000120530000134031200    YCYC    005400370024
BI00B1200    #2399T52203    202205057173-3225-10             LIF LEVER                CCN000016800000016800FN00000000020220401000016800NNMD0220220127152728    2F0F  0000008000000059200000071201200    YCYC    005500360039
BI00B1200    #2399T52204    202205127173-3225-10             LIF LEVER                CCN000016800000016800FN00000000020220401000016800NNMD0220220127152853    2F0F  0000008000000059200000071201200    YCYC    005500360039
BI00B1200    #2399T52205    202205197173-3225-10             LIF LEVER                CCN000016800000016800FN00000000020220401000016800NNMD0220220127152922    2F0F  0000008000000059200000071201200    YCYC    005500360039
BI00B1200    #2399T52207    202205267173-3225-10             LIF LEVER                CCN000016000000016000FN00000000020220401000016000NNMD0220220127152948    2F0F  0000008000000059200000071201200    YCYC    005500360039
BI00B1200    #2399T52208    202205267173-3225-10             LIF LEVER                CCN000016000000016000FN00000000020220401000016000NNMD0220220127153012    2F0F  0000008000000059200000071201200    YCYC    005500360039
BI00B1200    2399T52209     202203037174-1849-70             COVER                    CCN000125000000000000FY00000000020220401000000000NNMQ0820220127112755    1F0F  0000250000000062250000076191200    YCYC    005400370024
BI00B1200    2399T52210     202203107174-1849-70             COVER                    CCN000125000000000000FY00000000020220401000000000NNMQ0820220127112807    1F0F  0000250000000062250000076191200    YCYC    005400370024
BI00B1200    2399T52211     202203177174-1849-70             COVER                    CCN000125000000000000FY00000000020220401000000000NNMQ0820220127112820    1F0F  0000250000000062250000076191200    YCYC    005400370024
BI00B1200    2399T52213     202203247174-1849-70             COVER                    CCN000125000000000000FY00000000020220401000000000NNMQ0820220127112832    1F0F  0000250000000062250000076191200    YCYC    005400370024
BI00B1200    2399T52214     202203317174-1849-70             COVER                    CCN000125000000000000FY00000000020220401000000000NNMQ0820220127112846    1F0F  0000250000000062250000076191200    YCYC    005400370024
BI00B1200    2399T52215     202203107288-6598-70             HOUSING MALE ASS'Y       CCN000020160000020160FN00000000020220401000020160NNMD0420220127151318    4N0N  0000014400000107420000142921200    YCYC    005500360039
BI00B1200    2399T52216     202203177288-6598-70             HOUSING MALE ASS'Y       CCN000020160000020160FN00000000020220401000020160NNMD0420220127151338    4N0N  0000014400000107420000142921200    YCYC    005500360039
BI00B1200    2399T52217     202203247288-6598-70             HOUSING MALE ASS'Y       CCN000020160000020160FN00000000020220401000020160NNMD0420220127151359    4N0N  0000014400000107420000142921200    YCYC    005500360039
BI00B1200    2399T52215     202203037298-1145-4W             SQUIB SUB ASS'Y          CCN000130000000000000FY00000000020220401000000000NNMQ0820220127112631    4N0N  0000100000000078790000094491200    YCYC    005400370024
BI00B1200    2399T52216     202203107298-1145-4W             SQUIB SUB ASS'Y          CCN000130000000000000FY00000000020220401000000000NNMQ0820220127112641    4N0N  0000100000000078790000094491200    YCYC    005400370024
BI00B1200    2399T52217     202203177298-1145-4W             SQUIB SUB ASS'Y          CCN000120000000000000FY00000000020220401000000000NNMQ0820220127112658    4N0N  0000100000000078790000094491200    YCYC    005400370024
BI00B1200    2399T52219     202203317288-6598-70             HOUSING MALE ASS'Y       CCN000020160000020160FN00000000020220401000020160NNMD0420220127151420    4N0N  0000014400000107420000142921200    YCYC    005500360039
BI00B1200    2399T52220     202204077288-6598-70             HOUSING MALE ASS'Y       CCN000020160000020160FN00000000020220401000020160NNMD0420220127151449    4N0N  0000014400000107420000142921200    YCYC    005500360039
BI00B1200    2399T52219     202203247298-1145-4W             SQUIB SUB ASS'Y          CCN000120000000000000FY00000000020220401000000000NNMQ0820220127112714    4N0N  0000100000000078790000094491200    YCYC    005400370024
BI00B1200    2399T52225     202203317298-1145-4W             SQUIB SUB ASS'Y          CCN000120000000000000FY00000000020220401000000000NNMQ0820220127112729    4N0N  0000100000000078790000094491200    YCYC    005400370024
BI00A1200    2399T51922     202202097288-6547                CONNECTOR MALE ASS'Y     PCN000052500000052500FN00000000020211101000052500NNMM0020220127134935    4N0N  0000007500000120530000134031200    YCYC    005400370024
BI00A1200    2399T51923     202202177288-6547                CONNECTOR MALE ASS'Y     PCN000127500000127500FN00000000020211101000127500NNMM0020220127135616    4N0N  0000007500000120530000134031200    YCYC    005400370024
BI00A1200    2399T51921     202201317288-6547                CONNECTOR MALE ASS'Y     PCN000015000000015000FN00000000020211101000015000NNM00020220127140316    4N0N  0000007500000120530000134031200    YCYC    005400370024
BI00B32AG    XG22041CMW     202203187327-6874-30             MULTI FUSE               CCN000004608000004608FN00000000020220401000004608NNMD0220220127152321    4N0N  00000028800000991400001157332AG    XGXGY   005400370024
BI00B32AG    XG22043CMW     202204017327-6874-30             MULTI FUSE               CCN000004608000004608FN00000000020220401000004608NNMD0220220127152404    4N0N  00000028800000991400001157332AG    XGXGY   005400370024
BI00B32AG    XG22044CMW     202204087327-6874-30             MULTI FUSE               CCN000004608000004608FN00000000020220401000004608NNMD0220220127152415    4N0N  00000028800000991400001157332AG    XGXGY   005400370024
BI00B32AG    XG22041CMW     202203187327-6884-30             MULTI FUSE               CCN000004608000004608FN00000000020220401000004608NNMD0220220127152440    4N0N  00000028800000988900001154832AG    XGXGY   005400370024
BI00B32AG    XG22042CMW     202203257327-6884-30             MULTI FUSE               CCN000004608000004608FN00000000020220401000004608NNMD0220220127152452    4N0N  00000028800000988900001154832AG    XGXGY   005400370024
BI00B32AG    XG22043CMW     202204017327-6884-30             MULTI FUSE               CCN000004608000004608FN00000000020220401000004608NNMD0220220127152544    4N0N  00000028800000988900001154832AG    XGXGY   005400370024
BI00B32AG    XG22044CMW     202204087327-6884-30             MULTI FUSE               CCN000004608000004608FN00000000020220401000004608NNMD0220220127152627    4N0N  00000028800000988900001154832AG    XGXGY   005400370024
BI00B32AG    #XG22051GMW    202204017282-1140-90             HOUSING MALE ASS'Y       CCN000000500000000500FN00000000020220501000000500NNM   20220127154259    2N0N  00000050000000467500000590032AG    XGXGY   005400370024
BI00B32AG    #XG22052GMW    202204087282-1140-90             HOUSING MALE ASS'Y       CCN000001000000001000FN00000000020220501000001000NNM   20220127154259    2N0N  00000050000000467500000590032AG    XGXGY   005400370024
BI00B32AG    #XG22054GMW    202204227282-1140-90             HOUSING MALE ASS'Y       CCN000000500000000500FN00000000020220501000000500NNM   20220127154259    2N0N  00000050000000467500000590032AG    XGXGY   005400370024
BI00B32AG    #XG22055GMW    202204297282-1140-90             HOUSING MALE ASS'Y       CCN000001000000001000FN00000000020220501000001000NNM   20220127154259    2N0N  00000050000000467500000590032AG    XGXGY   005400370024
BI00B32AG    XG22052CMW     202204087B72-5540-80             SEALED WIRE SEAL         CCN000020000000020000FN00000000020220501000020000NNM   20220127154305    1C0C  00002000000000186000000234432AG    XGXGY   004300270014
BI00B32AG    XG22055CMW     202204297B72-5540-80             SEALED WIRE SEAL         CCN000020000000020000FN00000000020220501000020000NNM   20220127154305    1C0C  00002000000000186000000234432AG    XGXGY   004300270014
BI00B32AG    XG22054CMW     202204227B96-0805-02             TERMINAL FEMALE          CCN000022500000022500FN00000000020220501000022500NNM   20220127154305    4P0P  00002250000000558000000843232AG    XGXGY   006400630015
BI00B32AG    XG22055CMW     202204297B96-0805-02             TERMINAL FEMALE          CCN000022500000022500FN00000000020220501000022500NNM   20220127154305    4P0P  00002250000000558000000843232AG    XGXGY   006400630015
BI00B32AG    XG22051CMW     202204017C89-6868-30             SEALED ASSY FEMALE       CCN000002520000002520FN00000000020220501000002520NNM   20220127154305    4N0N  00000252000000839200001119232AG    XGXGY   005500360039
BI00B32AG    XG22052CMW     202204087C89-6868-30             SEALED ASSY FEMALE       CCN000007560000007560FN00000000020220501000007560NNM   20220127154305    4N0N  00000252000000839200001119232AG    XGXGY   005500360039
BI00B32AG    XG22054CMW     202204227C89-6868-30             SEALED ASSY FEMALE       CCN000007560000007560FN00000000020220501000007560NNM   20220127154305    4N0N  00000252000000839200001119232AG    XGXGY   005500360039
BI00B32AG    XG22055CMW     202204297C89-6868-30             SEALED ASSY FEMALE       CCN000010080000010080FN00000000020220501000010080NNM   20220127154305    4N0N  00000252000000839200001119232AG    XGXGY   005500360039
BI00B32AG    XG22052CMW     202204087116-4032                TERMINAL                 CCN000012000000012000FN00000000020220501000012000NNM   20220127154305    4P0P  00000600000000532800000818032AG    XGXGY   006400630015
BI00B32AG    XG22054CMW     202204227116-4032                TERMINAL                 CCN000006000000006000FN00000000020220501000006000NNM   20220127154305    4P0P  00000600000000532800000818032AG    XGXGY   006400630015
BI00B32AG    XG22055CMW     202204297116-4032                TERMINAL                 CCN000006000000006000FN00000000020220501000006000NNM   20220127154305    4P0P  00000600000000532800000818032AG    XGXGY   006400630015
BI00B32AG    XG22052CMW     202204087116-6041                TERMINAL                 CCN000036000000036000FN00000000020220501000036000NNM   20220127154305    4P0P  00000450000000716000001009632AG    XGXGY   006400630015
BI00B32AG    XG22054CMW     202204227116-6041                TERMINAL                 CCN000036000000036000FN00000000020220501000036000NNM   20220127154305    4P0P  00000450000000716000001009632AG    XGXGY   006400630015
BI00B32AG    XG22055CMW     202204297116-6041                TERMINAL                 CCN000036000000036000FN00000000020220501000036000NNM   20220127154305    4P0P  00000450000000716000001009632AG    XGXGY   006400630015
BI00B32AG    XG22054CMW     202204227158-3070-80             RUBBER STOPPER           CCN000040000000040000FN00000000020220501000040000NNM   20220127154305    1C0C  00004000000000276000000333332AG    XGXGY   002700430014
BI00B32AG    XG22054CMW     202204227172-5540-80             SEALED WIRE SEAL         CCN000020000000020000FN00000000020220501000020000NNM   20220127154305    1C0C  00002000000000186000000234432AG    XGXGY   004300270014
BI00B32AG    XG22055CMW     202204297172-5540-80             SEALED WIRE SEAL         CCN000020000000020000FN00000000020220501000020000NNM   20220127154305    1C0C  00002000000000186000000234432AG    XGXGY   004300270014
BI00B32AG    XG22052CMW     202204087196-0805-02             TERMINAL FEMALE          CCN000022500000022500FN00000000020220501000022500NNM   20220127154305    4P0P  00002250000000558000000843232AG    XGXGY   006400630015
BI00B32AG    XG22055CMW     202204297196-0805-02             TERMINAL FEMALE          CCN000022500000022500FN00000000020220501000022500NNM   20220127154305    4P0P  00002250000000558000000843232AG    XGXGY   006400630015
BI00B32AG    XG22051CMW     202204017298-3822-70             HOUSING FEMALE ASS'Y     CCN000005040000005040FN00000000020220501000005040NNM   20220127154305    4N0N  00000252000000776200001077032AG    XGXGY   005500360039
BI00B32AG    XG22052CMW     202204087298-3822-70             HOUSING FEMALE ASS'Y     CCN000007560000007560FN00000000020220501000007560NNM   20220127154305    4N0N  00000252000000776200001077032AG    XGXGY   005500360039
BI00B32AG    XG22054CMW     202204227298-3822-70             HOUSING FEMALE ASS'Y     CCN000007560000007560FN00000000020220501000007560NNM   20220127154305    4N0N  00000252000000776200001077032AG    XGXGY   005500360039
BI00B32AG    XG22055CMW     202204297298-3822-70             HOUSING FEMALE ASS'Y     CCN000010080000010080FN00000000020220501000010080NNM   20220127154305    4N0N  00000252000000776200001077032AG    XGXGY   005500360039
BI00B32AG    XG22052CMW     202204087327-6832-60             MAIN FUSE                CCN000001200000001200FN00000000020220501000001200NNM   20220127154305    4N0N  00000060000000729200000930732AG    XGXGY   005400370024
BI00B32AG    XG22054CMW     202204227327-6832-60             MAIN FUSE                CCN000003000000003000FN00000000020220501000003000NNM   20220127154305    4N0N  00000060000000729200000930732AG    XGXGY   005400370024
BI00B32AG    XG22055CMW     202204297327-6832-60             MAIN FUSE                CCN000004800000004800FN00000000020220501000004800NNM   20220127154305    4N0N  00000060000000729200000930732AG    XGXGY   005400370024
BI00B32AG    XG22052CMW     202204087327-6884-30             MULTI FUSE               CCN000004032000004032FN00000000020220501000004032NNM   20220127154305    4N0N  00000028800000988900001154832AG    XGXGY   005400370024
BI00B32AG    XG22054CMW     202204227327-6884-30             MULTI FUSE               CCN000004032000004032FN00000000020220501000004032NNM   20220127154305    4N0N  00000028800000988900001154832AG    XGXGY   005400370024
BI00B32AG    XG22055CMW     202204297327-6884-30             MULTI FUSE               CCN000004608000004608FN00000000020220501000004608NNM   20220127154305    4N0N  00000028800000988900001154832AG    XGXGY   005400370024
BI00B32AG    XG22051CMW     202204017388-0316-80             CONNECTOR ASS'Y          CCN000001200000001200FN00000000020220501000001200NNM   20220127154305    4N0N  00000120000001002500001132532AG    XGXGY   005400370024
BI00B32AG    XG22052CMW     202204087388-0316-80             CONNECTOR ASS'Y          CCN000003600000003600FN00000000020220501000003600NNM   20220127154305    4N0N  00000120000001002500001132532AG    XGXGY   005400370024
BI00B32AG    XG22054CMW     202204227388-0316-80             CONNECTOR ASS'Y          CCN000003600000003600FN00000000020220501000003600NNM   20220127154305    4N0N  00000120000001002500001132532AG    XGXGY   005400370024
BI00B32AG    XG22055CMW     202204297388-0316-80             CONNECTOR ASS'Y          CCN000004800000004800FN00000000020220501000004800NNM   20220127154305    4N0N  00000120000001002500001132532AG    XGXGY   005400370024
BI00B32AG    #XG22051CMW    202204017198-1371-60             HOUSING FEMALE           CCN000002000000002000FN00000000020220501000002000NNM   20220127154253    2F0F  00000200000000597800000721232AG    XGXGY   005400370024
BI00B32AG    #XG22052CMW    202204087198-1371-60             HOUSING FEMALE           CCN000004000000004000FN00000000020220501000004000NNM   20220127154253    2F0F  00000200000000597800000721232AG    XGXGY   005400370024
BI00B32AG    #XG22054CMW    202204227198-1371-60             HOUSING FEMALE           CCN000004000000004000FN00000000020220501000004000NNM   20220127154253    2F0F  00000200000000597800000721232AG    XGXGY   005400370024
BI00B32AG    #XG22055CMW    202204297198-1371-60             HOUSING FEMALE           CCN000004000000004000FN00000000020220501000004000NNM   20220127154253    2F0F  00000200000000597800000721232AG    XGXGY   005400370024
BI00B32AG    #XG22051CMW    202204017198-1372                HOUSING FEMALE           CCN000002000000002000FN00000000020220501000002000NNM   20220127154253    2F0F  00000200000000857200000982232AG    XGXGY   005400370024
BI00B32AG    #XG22052CMW    202204087198-1372                HOUSING FEMALE           CCN000004000000004000FN00000000020220501000004000NNM   20220127154253    2F0F  00000200000000857200000982232AG    XGXGY   005400370024
BI00B32AG    #XG22054CMW    202204227198-1372                HOUSING FEMALE           CCN000004000000004000FN00000000020220501000004000NNM   20220127154253    2F0F  00000200000000857200000982232AG    XGXGY   005400370024
BI00B32AG    #XG22055CMW    202204297198-1372                HOUSING FEMALE           CCN000004000000004000FN00000000020220501000004000NNM   20220127154253    2F0F  00000200000000857200000982232AG    XGXGY   005400370024
BI00B32AG    #XG22051CMW    202204017198-1373-60             HOUSING FEMALE           CCN000002000000002000FN00000000020220501000002000NNM   20220127154253    2F0F  00000200000000819400000947432AG    XGXGY   005400370024
BI00B32AG    #XG22052CMW    202204087198-1373-60             HOUSING FEMALE           CCN000004000000004000FN00000000020220501000004000NNM   20220127154253    2F0F  00000200000000819400000947432AG    XGXGY   005400370024
BI00B32AG    #XG22054CMW    202204227198-1373-60             HOUSING FEMALE           CCN000004000000004000FN00000000020220501000004000NNM   20220127154253    2F0F  00000200000000819400000947432AG    XGXGY   005400370024
BI00B32AG    #XG22055CMW    202204297198-1373-60             HOUSING FEMALE           CCN000004000000004000FN00000000020220501000004000NNM   20220127154253    2F0F  00000200000000819400000947432AG    XGXGY   005400370024
BI00B32AG    #XG22051CMW    202204017198-2458                HOUSING FEMALE           CCN000001760000001760FN00000000020220501000001760NNM   20220127154253    2F0F  00000176000000869100001160532AG    XGXGY   005400370024
BI00B32AG    #XG22052CMW    202204087198-2458                HOUSING FEMALE           CCN000003520000003520FN00000000020220501000003520NNM   20220127154253    2F0F  00000176000000869100001160532AG    XGXGY   005400370024
BI00B32AG    #XG22054CMW    202204227198-2458                HOUSING FEMALE           CCN000003520000003520FN00000000020220501000003520NNM   20220127154253    2F0F  00000176000000869100001160532AG    XGXGY   005400370024
BI00B32AG    #XG22055CMW    202204297198-2458                HOUSING FEMALE           CCN000005280000005280FN00000000020220501000005280NNM   20220127154253    2F0F  00000176000000869100001160532AG    XGXGY   005400370024
BI00B32AG    #XG22052CMW    202204087298-2459-60             LIF FEMALE ASSEMBLY      CCN000003696000003696FN00000000020220501000003696NNM   20220127154253    2N0N  00000016800000534000000729632AG    XGXGY   005400370024
BI00B32AG    #XG22054CMW    202204227298-2459-60             LIF FEMALE ASSEMBLY      CCN000003360000003360FN00000000020220501000003360NNM   20220127154253    2N0N  00000016800000534000000729632AG    XGXGY   005400370024
BI00B32AG    #XG22055CMW    202204297298-2459-60             LIF FEMALE ASSEMBLY      CCN000004536000004536FN00000000020220501000004536NNM   20220127154253    2N0N  00000016800000534000000729632AG    XGXGY   005400370024
BI00B32AG    #XG22051HMW    202204017158-3005-80             RUBBER STOPPER           CCN000020000000020000FN00000000020220501000020000NNM   20220127154342    2H0H  00002000000000210000000268732AG    XGXGY   002700430014
BI00B32AG    #XG22052HMW    202204087158-3005-80             RUBBER STOPPER           CCN000020000000020000FN00000000020220501000020000NNM   20220127154342    2H0H  00002000000000210000000268732AG    XGXGY   002700430014
BI00B32AG    XG22054KMW     202204227289-0269                HOUSING SUB ASSEMBLY     CCN000001600000001600FN00000000020220501000001600NNM   20220127154439    1N0N  00000160000001002100001234532AG    XGXGY   005500360039
BI00B32AG    XG22054KMW     202204227327-6469-3W             BATTERY FUSE             CCN000000096000000096FN00000000020220501000000096NNM   20220127154439    4N0N  00000009600000832300001012332AG    XGXGY   005400370024
BI00B32AG    XG22055KMW     202204297327-6469-3W             BATTERY FUSE             CCN000000288000000288FN00000000020220501000000288NNM   20220127154439    4N0N  00000009600000832300001012332AG    XGXGY   005400370024
BI00B32AG    @XG22052KMW    202204087283-1223-30             HOUSING SUB ASSEMBLY     CCN000004800000004800FN00000000020220501000004800NNM   20220127154435    3N0N  00000480000000749300000998032AG    XGXGY   005500360039
BI00B32AG    XG22051LMW     202204017017-1183-02             TERMINAL                 CCN000027000000027000FN00000000020220501000027000NNM   20220127154507    4P0P  00002700000001139400001307432AG    XGXGY   005100280028
BI00B32AG    XG22052LMW     202204087017-1183-02             TERMINAL                 CCN000054000000054000FN00000000020220501000054000NNM   20220127154507    4P0P  00002700000001139400001307432AG    XGXGY   005100280028
BI00B32AG    XG22054LMW     202204227017-1183-02             TERMINAL                 CCN000027000000027000FN00000000020220501000027000NNM   20220127154507    4P0P  00002700000001139400001307432AG    XGXGY   005100280028
BI00B32AG    XG22055LMW     202204297017-1183-02             TERMINAL                 CCN000027000000027000FN00000000020220501000027000NNM   20220127154507    4P0P  00002700000001139400001307432AG    XGXGY   005100280028
BI00B32AG    XG22051LMW     202204017116-4025                TERMINAL                 CCN000080000000080000FN00000000020220501000080000NNM   20220127154507    4P0P  00001600000000644800000975132AG    XGXGY   006400630017
BI00B32AG    XG22052LMW     202204087116-4025                TERMINAL                 CCN000112000000112000FN00000000020220501000112000NNM   20220127154507    4P0P  00001600000000644800000975132AG    XGXGY   006400630017
BI00B32AG    XG22054LMW     202204227116-4025                TERMINAL                 CCN000048000000048000FN00000000020220501000048000NNM   20220127154507    4P0P  00001600000000644800000975132AG    XGXGY   006400630017
BI00B32AG    XG22055LMW     202204297116-4025                TERMINAL                 CCN000064000000064000FN00000000020220501000064000NNM   20220127154507    4P0P  00001600000000644800000975132AG    XGXGY   006400630017
BI00B32AG    XG22051LMW     202204017116-4026                TERMINAL                 CCN000080000000080000FN00000000020220501000080000NNM   20220127154507    4P0P  00001600000000664000000994332AG    XGXGY   006400630017
BI00B32AG    XG22052LMW     202204087116-4026                TERMINAL                 CCN000096000000096000FN00000000020220501000096000NNM   20220127154507    4P0P  00001600000000664000000994332AG    XGXGY   006400630017
BI00B32AG    XG22054LMW     202204227116-4026                TERMINAL                 CCN000048000000048000FN00000000020220501000048000NNM   20220127154507    4P0P  00001600000000664000000994332AG    XGXGY   006400630017
BI00B32AG    XG22055LMW     202204297116-4026                TERMINAL                 CCN000048000000048000FN00000000020220501000048000NNM   20220127154507    4P0P  00001600000000664000000994332AG    XGXGY   006400630017
BI00B32AG    XG22051LMW     202204017172-1372-10             FRONT HOLDER             CCN000007800000007800FN00000000020220501000007800NNM   20220127154507    4F0F  00000390000000655200000955232AG    XGXGY   005500360039
BI00B32AG    XG22052LMW     202204087172-1372-10             FRONT HOLDER             CCN000007800000007800FN00000000020220501000007800NNM   20220127154507    4F0F  00000390000000655200000955232AG    XGXGY   005500360039
BI00B32AG    XG22054LMW     202204227172-1372-10             FRONT HOLDER             CCN000003900000003900FN00000000020220501000003900NNM   20220127154507    4F0F  00000390000000655200000955232AG    XGXGY   005500360039
BI00B32AG    XG22055LMW     202204297172-1372-10             FRONT HOLDER             CCN000007800000007800FN00000000020220501000007800NNM   20220127154507    4F0F  00000390000000655200000955232AG    XGXGY   005500360039
BI00B32AG    XG22054LMW     202204227283-5843                CONNECTOR                CCN000001500000001500FN00000000020220501000001500NNM   20220127154507    1N0N  00000150000000889000001132032AG    XGXGY   005600390040
BI00B32AG    XG22051LMW     202204017289-4696-30             HOUSING FEMALE ASS'Y     CCN000020000000020000FN00000000020220501000020000NNM   20220127154507    4N0N  00000200000000913400001055432AG    XGXGY   005400370024
BI00B32AG    XG22052LMW     202204087289-4696-30             HOUSING FEMALE ASS'Y     CCN000030000000030000FN00000000020220501000030000NNM   20220127154507    4N0N  00000200000000913400001055432AG    XGXGY   005400370024
BI00B32AG    XG22054LMW     202204227289-4696-30             HOUSING FEMALE ASS'Y     CCN000016000000016000FN00000000020220501000016000NNM   20220127154507    4N0N  00000200000000913400001055432AG    XGXGY   005400370024
BI00B32AG    XG22055LMW     202204297289-4696-30             HOUSING FEMALE ASS'Y     CCN000016000000016000FN00000000020220501000016000NNM   20220127154507    4N0N  00000200000000913400001055432AG    XGXGY   005400370024
BI00B32AG    XG22051LMW     202204017289-7615-30             HOUSING FEMALE ASS'Y     CCN000005440000005440FN00000000020220501000005440NNM   20220127154507    4N0N  00000032000000738000000948032AG    XGXGY   005400370024
BI00B32AG    XG22052LMW     202204087289-7615-30             HOUSING FEMALE ASS'Y     CCN000007680000007680FN00000000020220501000007680NNM   20220127154507    4N0N  00000032000000738000000948032AG    XGXGY   005400370024
BI00B32AG    XG22054LMW     202204227289-7615-30             HOUSING FEMALE ASS'Y     CCN000004160000004160FN00000000020220501000004160NNM   20220127154507    4N0N  00000032000000738000000948032AG    XGXGY   005400370024
BI00B32AG    XG22055LMW     202204297289-7615-30             HOUSING FEMALE ASS'Y     CCN000005120000005120FN00000000020220501000005120NNM   20220127154507    4N0N  00000032000000738000000948032AG    XGXGY   005400370024
BI00B32AG    XG22052LMW     202204087388-0314                CONNECTOR ASS'Y          CCN000001500000002400FN00000000020220501000002400NNM   20220127154507    4N0N  00000120000001038000001132332AG    XGXGY   005400370024
BI00B32AG    XG22054LMW     202204227388-0314                CONNECTOR ASS'Y          CCN000000750000001200FN00000000020220501000001200NNM   20220127154507    4N0N  00000120000001038000001132332AG    XGXGY   005400370024
BI00B32AG    XG22055LMW     202204297388-0314                CONNECTOR ASS'Y          CCN000000750000001200FN00000000020220501000001200NNM   20220127154507    4N0N  00000120000001038000001132332AG    XGXGY   005400370024
BI00B32AG    #XG22052LMW    202204087157-3992-90             CONNECTOR SEALED         CCN000040000000040000FN00000000020220501000040000NNM   20220127154502    2C0C  00004000000000300000000363332AG    XGXGY   002700430014
BI00B32AG    #XG22054LMW    202204227157-3992-90             CONNECTOR SEALED         CCN000040000000040000FN00000000020220501000040000NNM   20220127154502    2C0C  00004000000000300000000363332AG    XGXGY   002700430014
BI00B32AG    #XG22051LMW    202204017158-3003-90             RUBBER STOPPER           CCN000100000000100000FN00000000020220501000100000NNM   20220127154502    2C0C  00002000000000250000000306032AG    XGXGY   002700430014
BI00B32AG    #XG22052LMW    202204087158-3003-90             RUBBER STOPPER           CCN000120000000120000FN00000000020220501000120000NNM   20220127154502    2C0C  00002000000000250000000306032AG    XGXGY   002700430014
BI00B32AG    #XG22054LMW    202204227158-3003-90             RUBBER STOPPER           CCN000060000000060000FN00000000020220501000060000NNM   20220127154502    2C0C  00002000000000250000000306032AG    XGXGY   002700430014
BI00B32AG    #XG22055LMW    202204297158-3003-90             RUBBER STOPPER           CCN000060000000060000FN00000000020220501000060000NNM   20220127154502    2C0C  00002000000000250000000306032AG    XGXGY   002700430014
BI00B32AG    #XG22052LMW    202204087158-3007-10             RUBBER STOPPER           CCN000020000000020000FN00000000020220501000020000NNM   20220127154502    2H0H  00002000000000308000000362732AG    XGXGY   002700430014
BI00B32AG    #XG22051LMW    202204017158-3008-80             RUBBER STOPPER           CCN000020000000020000FN00000000020220501000020000NNM   20220127154502    2C0C  00002000000000288000000343032AG    XGXGY   004300270014
BI00B32AG    #XG22051LMW    202204017158-3120-90             CONNECTOR WIRE SEAL      CCN000060000000060000FN00000000020220501000060000NNM   20220127154502    2C0C  00002000000000136000000194032AG    XGXGY   002700430014
BI00B32AG    #XG22052LMW    202204087158-3120-90             CONNECTOR WIRE SEAL      CCN000120000000120000FN00000000020220501000120000NNM   20220127154502    2C0C  00002000000000136000000194032AG    XGXGY   002700430014
BI00B32AG    #XG22054LMW    202204227158-3120-90             CONNECTOR WIRE SEAL      CCN000080000000080000FN00000000020220501000080000NNM   20220127154502    2C0C  00002000000000136000000194032AG    XGXGY   002700430014
BI00B32AG    #XG22055LMW    202204297158-3120-90             CONNECTOR WIRE SEAL      CCN000060000000060000FN00000000020220501000060000NNM   20220127154502    2C0C  00002000000000136000000194032AG    XGXGY   002700430014
BI00B32AG    #XG22051LMW    202204017158-3121-80             WIRE SEAL                CCN000020000000020000FN00000000020220501000020000NNM   20220127154502    2C0C  00002000000000118000000187332AG    XGXGY   002700430014
BI00B32AG    #XG22052LMW    202204087158-3121-80             WIRE SEAL                CCN000040000000040000FN00000000020220501000040000NNM   20220127154502    2C0C  00002000000000118000000187332AG    XGXGY   002700430014
BI00B32AG    #XG22054LMW    202204227158-3121-80             WIRE SEAL                CCN000040000000040000FN00000000020220501000040000NNM   20220127154502    2C0C  00002000000000118000000187332AG    XGXGY   002700430014
BI00B32AG    #XG22055LMW    202204297158-3121-80             WIRE SEAL                CCN000020000000020000FN00000000020220501000020000NNM   20220127154502    2C0C  00002000000000118000000187332AG    XGXGY   002700430014
BI00B32AG    #XG22051LMW    202204017158-3654-80             WIRE TUBE                CCN000080000000080000FN00000000020220501000080000NNM   20220127154502    2H0H  00004000000000104000000152232AG    XGXGY   004300270014
BI00B32AG    #XG22052LMW    202204087158-3654-80             WIRE TUBE                CCN000120000000120000FN00000000020220501000120000NNM   20220127154502    2H0H  00004000000000104000000152232AG    XGXGY   004300270014
BI00B32AG    #XG22054LMW    202204227158-3654-80             WIRE TUBE                CCN000080000000080000FN00000000020220501000080000NNM   20220127154502    2H0H  00004000000000104000000152232AG    XGXGY   004300270014
BI00B32AG    #XG22055LMW    202204297158-3654-80             WIRE TUBE                CCN000120000000120000FN00000000020220501000120000NNM   20220127154502    2H0H  00004000000000104000000152232AG    XGXGY   004300270014
BI00B32AG    #XG22051LMW    202204017182-9631-40             JOINT CONNECTOR          CCN000006000000006000FN00000000020220501000006000NNM   20220127154502    2F0F  00000300000001182000001307432AG    XGXGY   005400370024
BI00B32AG    #XG22052LMW    202204087182-9631-40             JOINT CONNECTOR          CCN000009000000009000FN00000000020220501000009000NNM   20220127154502    2F0F  00000300000001182000001307432AG    XGXGY   005400370024
BI00B32AG    #XG22054LMW    202204227182-9631-40             JOINT CONNECTOR          CCN000006000000006000FN00000000020220501000006000NNM   20220127154502    2F0F  00000300000001182000001307432AG    XGXGY   005400370024
BI00B32AG    #XG22055LMW    202204297182-9631-40             JOINT CONNECTOR          CCN000006000000006000FN00000000020220501000006000NNM   20220127154502    2F0F  00000300000001182000001307432AG    XGXGY   005400370024
BI00B32AG    #XG22051LMW    202204017182-9633-40             JOINT CONNECTOR          CCN000012000000012000FN00000000020220501000012000NNM   20220127154502    2F0F  00000300000001335000001460532AG    XGXGY   005400370024
BI00B32AG    #XG22052LMW    202204087182-9633-40             JOINT CONNECTOR          CCN000015000000015000FN00000000020220501000015000NNM   20220127154502    2F0F  00000300000001335000001460532AG    XGXGY   005400370024
BI00B32AG    #XG22054LMW    202204227182-9633-40             JOINT CONNECTOR          CCN000003000000003000FN00000000020220501000003000NNM   20220127154502    2F0F  00000300000001335000001460532AG    XGXGY   005400370024
BI00B32AG    #XG22055LMW    202204297182-9633-40             JOINT CONNECTOR          CCN000009000000009000FN00000000020220501000009000NNM   20220127154502    2F0F  00000300000001335000001460532AG    XGXGY   005400370024
BI00B32AG    #XG22052MMW    202204087297-1907-30             HOUSING MALE ASS'Y       CCN000001500000001500FN00000000020220501000001500NNM   20220127154529    2N0N  00000150000000451800000568032AG    XGXGY   005400370024
BI00B32AG    XG22051NMW     202204017116-4120-02             TERMINAL                 CCN000006000000006000FN00000000020220501000006000NNM   20220127154555    4P0P  00000600000000780000001073632AG    XGXGY   006400630015
BI00B32AG    XG22052NMW     202204087116-4120-02             TERMINAL                 CCN000012000000012000FN00000000020220501000012000NNM   20220127154555    4P0P  00000600000000780000001073632AG    XGXGY   006400630015
BI00B32AG    XG22054NMW     202204227116-4120-02             TERMINAL                 CCN000006000000006000FN00000000020220501000006000NNM   20220127154555    4P0P  00000600000000780000001073632AG    XGXGY   006400630015
BI00B32AG    XG22055NMW     202204297116-4120-02             TERMINAL                 CCN000012000000012000FN00000000020220501000012000NNM   20220127154555    4P0P  00000600000000780000001073632AG    XGXGY   006400630015
BI00B32AG    XG22051NMW     202204017116-4121-02             TERMINAL                 CCN000036000000036000FN00000000020220501000036000NNM   20220127154555    4P0P  00000450000000618800000912432AG    XGXGY   006400630015
BI00B32AG    XG22052NMW     202204087116-4121-02             TERMINAL                 CCN000045000000045000FN00000000020220501000045000NNM   20220127154555    4P0P  00000450000000618800000912432AG    XGXGY   006400630015
BI00B32AG    XG22054NMW     202204227116-4121-02             TERMINAL                 CCN000040500000040500FN00000000020220501000040500NNM   20220127154555    4P0P  00000450000000618800000912432AG    XGXGY   006400630015
BI00B32AG    XG22055NMW     202204297116-4121-02             TERMINAL                 CCN000054000000054000FN00000000020220501000054000NNM   20220127154555    4P0P  00000450000000618800000912432AG    XGXGY   006400630015
BI00B32AG    XG22052NMW     202204087116-4122-02             TERMINAL                 CCN000004500000004500FN00000000020220501000004500NNM   20220127154555    4P0P  00000450000000656600000950232AG    XGXGY   006400630015
BI00B32AG    XG22054NMW     202204227116-4122-02             TERMINAL                 CCN000004500000004500FN00000000020220501000004500NNM   20220127154555    4P0P  00000450000000656600000950232AG    XGXGY   006400630015
BI00B32AG    XG22055NMW     202204297116-4122-02             TERMINAL                 CCN000009000000009000FN00000000020220501000009000NNM   20220127154555    4P0P  00000450000000656600000950232AG    XGXGY   006400630015
BI00B32AG    XG22051NMW     202204017116-4415-02             TERMINAL                 CCN000570000000570000FN00000000020220501000570000NNM   20220127154555    4P0P  00003800000000596600000925732AG    XGXGY   006400630017
BI00B32AG    XG22052NMW     202204087116-4415-02             TERMINAL                 CCN000836000000836000FN00000000020220501000836000NNM   20220127154555    4P0P  00003800000000596600000925732AG    XGXGY   006400630017
BI00B32AG    XG22054NMW     202204227116-4415-02             TERMINAL                 CCN000456000000456000FN00000000020220501000456000NNM   20220127154555    4P0P  00003800000000596600000925732AG    XGXGY   006400630017
BI00B32AG    XG22055NMW     202204297116-4415-02             TERMINAL                 CCN000570000000570000FN00000000020220501000570000NNM   20220127154555    4P0P  00003800000000596600000925732AG    XGXGY   006400630017
BI00B32AG    XG22051NMW     202204017126-8853-02             TERMINAL                 CCN000022500000022500FN00000000020220501000022500NNM   20220127154555    4P0P  00000750000000562500000847732AG    XGXGY   006400630015
BI00B32AG    XG22052NMW     202204087126-8853-02             TERMINAL                 CCN000045000000045000FN00000000020220501000045000NNM   20220127154555    4P0P  00000750000000562500000847732AG    XGXGY   006400630015
BI00B32AG    XG22054NMW     202204227126-8853-02             TERMINAL                 CCN000037500000037500FN00000000020220501000037500NNM   20220127154555    4P0P  00000750000000562500000847732AG    XGXGY   006400630015
BI00B32AG    XG22055NMW     202204297126-8853-02             TERMINAL                 CCN000045000000045000FN00000000020220501000045000NNM   20220127154555    4P0P  00000750000000562500000847732AG    XGXGY   006400630015
BI00B32AG    XG22054NMW     202204227126-8854-02             TERMINAL                 CCN000007500000007500FN00000000020220501000007500NNM   20220127154555    4P0P  00000750000000604500000889732AG    XGXGY   006400630015
BI00B32AG    XG22055NMW     202204297126-8854-02             TERMINAL                 CCN000007500000007500FN00000000020220501000007500NNM   20220127154555    4P0P  00000750000000604500000889732AG    XGXGY   006400630015
BI00B32AG    XG22051NMW     202204017126-8855-02             TERMINAL                 CCN000012000000012000FN00000000020220501000012000NNM   20220127154555    4P0P  00000600000000510600000795832AG    XGXGY   006400630015
BI00B32AG    XG22052NMW     202204087126-8855-02             TERMINAL                 CCN000012000000012000FN00000000020220501000012000NNM   20220127154555    4P0P  00000600000000510600000795832AG    XGXGY   006400630015
BI00B32AG    XG22054NMW     202204227126-8855-02             TERMINAL                 CCN000012000000012000FN00000000020220501000012000NNM   20220127154555    4P0P  00000600000000510600000795832AG    XGXGY   006400630015
BI00B32AG    XG22055NMW     202204297126-8855-02             TERMINAL                 CCN000012000000012000FN00000000020220501000012000NNM   20220127154555    4P0P  00000600000000510600000795832AG    XGXGY   006400630015
BI00B32AG    XG22055NMW     202204297158-3165-90             WIRE SEAL                CCN000200000000200000FN00000000020220501000200000NNM   20220127154555    1C0C  00004000000000124000000172432AG    XGXGY   004300270014
BI00B32AG    XG22051NMW     202204017158-3166-60             WIRE SEAL                CCN000520000000520000FN00000000020220501000520000NNM   20220127154555    1C0C  00004000000000104000000152432AG    XGXGY   002700430014
BI00B32AG    XG22052NMW     202204087158-3166-60             WIRE SEAL                CCN000600000000600000FN00000000020220501000600000NNM   20220127154555    1C0C  00004000000000104000000152432AG    XGXGY   002700430014
BI00B32AG    XG22054NMW     202204227158-3166-60             WIRE SEAL                CCN000320000000320000FN00000000020220501000320000NNM   20220127154555    1C0C  00004000000000104000000152432AG    XGXGY   002700430014
BI00B32AG    XG22055NMW     202204297158-3166-60             WIRE SEAL                CCN000400000000400000FN00000000020220501000400000NNM   20220127154555    1C0C  00004000000000104000000152432AG    XGXGY   002700430014
BI00B32AG    XG22051NMW     202204017158-3167-80             WIRE SEAL                CCN000220000000220000FN00000000020220501000220000NNM   20220127154555    1C0C  00002000000000048000000109032AG    XGXGY   002700430014
BI00B32AG    XG22052NMW     202204087158-3167-80             WIRE SEAL                CCN000360000000360000FN00000000020220501000360000NNM   20220127154555    1C0C  00002000000000048000000109032AG    XGXGY   002700430014
BI00B32AG    XG22054NMW     202204227158-3167-80             WIRE SEAL                CCN000180000000180000FN00000000020220501000180000NNM   20220127154555    1C0C  00002000000000048000000109032AG    XGXGY   002700430014
BI00B32AG    XG22055NMW     202204297158-3167-80             WIRE SEAL                CCN000240000000240000FN00000000020220501000240000NNM   20220127154555    1C0C  00002000000000048000000109032AG    XGXGY   002700430014
BI00B32AG    XG22051NMW     202204017158-3168-80             SEALED                   CCN000080000000080000FN00000000020220501000080000NNM   20220127154555    1C0C  00002000000000044000000092132AG    XGXGY   004300260014
BI00B32AG    XG22052NMW     202204087158-3168-80             SEALED                   CCN000080000000080000FN00000000020220501000080000NNM   20220127154555    1C0C  00002000000000044000000092132AG    XGXGY   004300260014
BI00B32AG    XG22054NMW     202204227158-3168-80             SEALED                   CCN000040000000040000FN00000000020220501000040000NNM   20220127154555    1C0C  00002000000000044000000092132AG    XGXGY   004300260014
BI00B32AG    XG22055NMW     202204297158-3168-80             SEALED                   CCN000060000000060000FN00000000020220501000060000NNM   20220127154555    1C0C  00002000000000044000000092132AG    XGXGY   004300260014
BI00B32AG    XG22054NMW     202204227158-3169-40             SEALING PLUG             CCN000040000000040000FN00000000020220501000040000NNM   20220127154555    1C0C  00004000000000156000000204132AG    XGXGY   004300260014
BI00B32AG    XG22055NMW     202204297158-3169-40             SEALING PLUG             CCN000080000000080000FN00000000020220501000080000NNM   20220127154555    1C0C  00004000000000156000000204132AG    XGXGY   004300260014
BI00B32AG    #XG22051NMW    202204017123-6423-30             CONNECTOR                CCN000006000000006000FN00000000020220501000006000NNM   20220127154549    2F0F  00000200000001002000001167632AG    XGXGY   005600390023
BI00B32AG    #XG22052NMW    202204087123-6423-30             CONNECTOR                CCN000008000000008000FN00000000020220501000008000NNM   20220127154549    2F0F  00000200000001002000001167632AG    XGXGY   005600390023
BI00B32AG    #XG22054NMW    202204227123-6423-30             CONNECTOR                CCN000004000000004000FN00000000020220501000004000NNM   20220127154549    2F0F  00000200000001002000001167632AG    XGXGY   005600390023
BI00B32AG    #XG22055NMW    202204297123-6423-30             CONNECTOR                CCN000006000000006000FN00000000020220501000006000NNM   20220127154549    2F0F  00000200000001002000001167632AG    XGXGY   005600390023
BI00B32AG    XG22051QMW     202204017196-1460-02             TERMINAL FEMALE          CCN000028500000028500FN00000000020220501000028500NNM   20220127154612    4P0P  00002850000000444600000729832AG    XGXGY   006400630015
BI00B32AG    XG22052QMW     202204087196-1460-02             TERMINAL FEMALE          CCN000085500000085500FN00000000020220501000085500NNM   20220127154612    4P0P  00002850000000444600000729832AG    XGXGY   006400630015
BI00B32AG    XG22054QMW     202204227196-1460-02             TERMINAL FEMALE          CCN000085500000085500FN00000000020220501000085500NNM   20220127154612    4P0P  00002850000000444600000729832AG    XGXGY   006400630015
BI00B32AG    XG22055QMW     202204297196-1460-02             TERMINAL FEMALE          CCN000085500000085500FN00000000020220501000085500NNM   20220127154612    4P0P  00002850000000444600000729832AG    XGXGY   006400630015
BI00B32BF    TT22051KMW     202203227017-1180-02             TERMINAL                 CCN000072000000072000FN00000000020220501000072000NNM   20220127154239    4P0P  00007200000001065600001229032BF    TTTJYCD 005100280028
BI00B32BF    TT22051KMW     202203227017-1181-02             TERMINAL                 CCN000063000000063000FN00000000020220501000063000NNM   20220127154239    4P0P  00006300000001089900001266832BF    TTTJYCD 005100280028
BI00B32BF    TT22051KMW     202203227017-1182-02             TERMINAL                 CCN000048000000090000FN00000000020220501000090000NNM   20220127154239    4P0P  00004500000001165500001318632BF    TTTJYCD 005100280028
BI00B32BF    TT22051KMW     202203227017-1183-02             TERMINAL                 CCN000030000000054000FN00000000020220501000054000NNM   20220127154239    4P0P  00002700000001139400001307432BF    TTTJYCD 005100280028
BI00B32BF    TT22051KMW     202203227114-1301                TERMINAL                 CCN000039000000039000FN00000000020220501000039000NNM   20220127154239    4P0P  00001950000000614300000907932BF    TTTJYCD 006400630015
BI00B32BF    TT22052KMW     202203297114-1301                TERMINAL                 CCN000039000000039000FN00000000020220501000039000NNM   20220127154239    4P0P  00001950000000614300000907932BF    TTTJYCD 006400630015
BI00B32BF    TT22053KMW     202204057114-1301                TERMINAL                 CCN000039000000039000FN00000000020220501000039000NNM   20220127154239    4P0P  00001950000000614300000907932BF    TTTJYCD 006400630015
BI00B32BF    TT22051KMW     202203227116-1180                TERMINAL                 CCN000019500000019500FN00000000020220501000019500NNM   20220127154239    1P0P  00001950000000618200000903432BF    TTTJYCD 006400630015
BI00B32BF    TT22051KMW     202203227116-1471                TERMINAL                 CCN000030000000030000FN00000000020220501000030000NNM   20220127154239    4P0P  00001500000000579000000867232BF    TTTJYCD 006400630015
BI00B32BF    TT22051KMW     202203227116-4025                TERMINAL                 CCN000032000000032000FN00000000020220501000032000NNM   20220127154239    4P0P  00001600000000644800000975132BF    TTTJYCD 006400630017
BI00B32BF    TT22052KMW     202203297116-4025                TERMINAL                 CCN000016000000016000FN00000000020220501000016000NNM   20220127154239    4P0P  00001600000000644800000975132BF    TTTJYCD 006400630017
BI00B32BF    TT22051KMW     202203227116-6041                TERMINAL                 CCN000004500000004500FN00000000020220501000004500NNM   20220127154239    4P0P  00000450000000716000001009632BF    TTTJYCD 006400630015
BI00B32BF    TT22051KMW     202203227158-3006-90             RUBBER STOPPER           CCN000040000000040000FN00000000020220501000040000NNM   20220127154239    1C0C  00002000000000330600000386032BF    TTTJYCD 002700430014
BI00B32BF    TT22052KMW     202203297158-3006-90             RUBBER STOPPER           CCN000020000000020000FN00000000020220501000020000NNM   20220127154239    1C0C  00002000000000330600000386032BF    TTTJYCD 002700430014
BI00B32BF    TT22051KMW     202203227283-7029-40             CONNECTOR                CCN000006000000006000FN00000000020220501000006000NNM   20220127154239    1N0N  00000600000001026000001200032BF    TTTJYCD 005600390023
BI00B32BF    #TT22052KMW    202203297119-3130                HOUSING                  CCN000003000000003000FN00000000020220501000003000NNM   20220127154227    2F0F  00000300000001758000001868032BF    TTTJYCD 005500360039
BI00B32BF    #TT22051KMW    202203227123-1424-40             CONNECTOR HOUSING        CCN000004200000004200FN00000000020220501000004200NNM   20220127154227    2F0F  00000420000000987000001112032BF    TTTJYCD 005400370024
BI00B32BF    #TT22051KMW    202203227157-7897-60             SEAL RUBBER              CCN000010000000010000FN00000000020220501000010000NNM   20220127154227    2C0C  00001000000000132000000214732BF    TTTJYCD 002700430014
BI00B32BF    #TT22051KMW    202203227158-3121-80             WIRE SEAL                CCN000040000000040000FN00000000020220501000040000NNM   20220127154227    2C0C  00002000000000118000000187332BF    TTTJYCD 002700430014
BI00B32BF    #TT22051KMW    202203227283-5833                CONNECTOR HOUSING        CCN000003640000003640FN00000000020220501000003640NNM   20220127154227    2N0N  00000364000001378000001686732BF    TTTJYCD 005500360039
BI00B32BF    @TT22051KMW    202203227283-1100-60             CONNECTOR ASS'Y          CCN000003200000003200FN00000000020220501000003200NNM   20220127154235    3N0N  00000160000000567500000801432BF    TTTJYCD 005500360039
BI00B32BF    @TT22051KMW    202203227283-1100-90             CONNECTOR ASS'Y          CCN000001600000001600FN00000000020220501000001600NNM   20220127154235    3N0N  00000160000000564800000806832BF    TTTJYCD 005500360039
BI00A32B6    TAPPT01Z       202202047298-5955                CONNECTOR SUB ASSY       CCN000000500000007200FN00000000020220101000007200NNEM0020220127152644B6  4N0N  00000720000001029600001253032B6    AXARNE-M005500360039
BI00A32B6    TAPPT01Z       202202047195-1463-02             TERMINAL MALE            CCN000028500000028500FN00000000020220101000028500NNEM0020220127152644B6  4P0P  00002850000000456000000741232B6    AXARNE-M006400630015
BI00A32B6    TAPPT01Z       202202047196-1460-02             TERMINAL FEMALE          CCN000028500000028500FN00000000020220101000028500NNEM0020220127152644B6  4P0P  00002850000000444600000729832B6    AXARNE-M006400630015
BI00A32B6    TAPPT01Z       202202047196-1462-02             TERMINAL FEMALE          CCN000021000000021000FN00000000020220101000021000NNEM0020220127152644B6  4P0P  00002100000000352800000638032B6    AXARNE-M006400630015
BI00A32B6    TAPPT01Z       202202047298-1865-30             HOUSING FEMALE ASS'Y     CCN000002400000002400FN00000000020220101000002400NNEM0020220127152644B6  4N0N  00000240000001003200001204532B6    AXARNE-M005500360039
BI00A32B6    TAPPT01Z       202202047298-1869-30             HOUSING FEMALE ASS'Y     CCN000001200000001200FN00000000020220101000001200NNEM0020220127152644B6  4N0N  00000120000000737000000939832B6    AXARNE-M005500360039
BI00A32B6    TAPPT01Z       202202047298-2278-30             HOUSING FEMALE ASS'Y     CCN000002400000002400FN00000000020220101000002400NNEM0020220127152644B6  4N0N  00000240000001091700001295432B6    AXARNE-M005500360039
BI00A32B6    TAPPT01Z       202202047298-2507-30             HOUSING FEMALE ASS'Y     CCN000000500000001200FN00000000020220101000001200NNEM0020220127152644B6  4N0N  00000120000000713200000914532B6    AXARNE-M005500360039
BI00A32CG    #S211137-S     202202037158-3121-80             WIRE SEAL                CCN000080000000080000FN00000000020220201000080000NNEM0020220127134455    2C0C  00002000000000118000000187332CG    ASASIACO002700430014
BI00B32CG    S220136-S      202203307116-4122-02             TERMINAL                 CCN000004500000004500FN00000000020220301000004500NNE   20220127160900    4P0P  00000450000000656600000950232CG    ASASIACO006400630015
BI00B32CG    S220136-S      202203307116-4120-02             TERMINAL                 CCN000006000000006000FN00000000020220301000006000NNE   20220127160900    4P0P  00000600000000780000001073632CG    ASASIACO006400630015
BI00B32CG    #S220137-S     202203307158-3121-80             WIRE SEAL                CCN000020000000020000FN00000000020220301000020000NNE   20220127161140    2C0C  00002000000000118000000187332CG    ASASIACO002700430014
BI00B32DE    #TCTL2022      202201287125-3236-30             HEAD LAMP CONNECTOR      CCN000002800000002800FN00000000020220201000002800NNM00020220127162613    2F0F  00000280000000945000001085932DE    TVYEV-TV005500360039
BI00B32DE    #TCTL2022      202202037158-3007-10             RUBBER STOPPER           CCN000060000000060000FN00000000020220201000060000NNM00020220127162643    2H0H  00002000000000308000000362732DE    TVYEV-TV002700430014
BI00B32DE    TCT202A        202202037289-3342-30             HOUSING FEMALE ASS'Y     CCN000016800000016800FN00000000020220201000016800NNE00020220127162744    1N0N  00000240000000686400000901432DE    TVYEV-TV005500360039
BI00B32D1    DFTC2216       202203247288-6547                CONNECTOR MALE ASS'Y     CCN000016500000016500FN00000000020220401000016500NNMS0020220127122548    4N0N  00000075000001205300001340332D1    TOYOT-K 005400370024
BI00B32D1    DFTC2216       202203037289-3342                HOUSING FEMALE ASS'Y     CCN000033600000033600FN00000000020220401000033600NNMS0020220127122548    1N0N  00000240000000686400000901432D1    TOYOT-K 005500360039
BI00B32D1    DFTC2216       202204287289-3342-30             HOUSING FEMALE ASS'Y     CCN000081600000024000FN00000000020220401000024000NNMS0020220127122548    1N0N  00000240000000686400000901432D1    TOYOT-K 005500360039
BI00B32D1    DFTC2216       202203177289-3342-40             HOUSING FEMALE ASS'Y     CCN000012000000012000FN00000000020220401000012000NNMS0020220127122548    1N0N  00000240000000686400000901432D1    TOYOT-K 005500360039
BI00B32D1    DFTC2216       202203177289-3342-90             HOUSING FEMALE ASS'Y     CCN000009600000009600FN00000000020220401000009600NNMS0020220127122548    1N0N  00000240000000686400000901432D1    TOYOT-K 005500360039
BI00B32D1    DFTC2217       202203037017-1180-02             TERMINAL                 CCN000072000000072000FN00000000020220401000072000NNM   20220127122548    4P0P  00007200000001065600001229032D1    TOYOT-K 005100280028
BI00B32D1    DFTC2217       202203037017-1182-02             TERMINAL                 CCN000045000000045000FN00000000020220401000045000NNM   20220127122548    4P0P  00004500000001165500001318632D1    TOYOT-K 005100280028
BI00B32D1    DFTC2217       202203037114-4032                TERMINAL                 CCN000007500000007500FN00000000020220401000007500NNM   20220127122548    4P0P  00000750000000735000001063632D1    TOYOT-K 006400630017
BI00B32D1    DFTC2217       202203037114-4231-02             TERMINAL                 CCN000018000000018000FN00000000020220401000018000NNM   20220127122548    4P0P  00001800000000554400000848032D1    TOYOT-K 006400630015
BI00B32D1    DFTC2217       202203037114-5748-02             TERMINAL                 CCN000072000000072000FN00000000020220401000072000NNM   20220127122548    4P0P  00001200000000444000000737632D1    TOYOT-K 006400630015
BI00B32D1    DFTC2217       202203037114-5753-02             TERMINAL                 CCN000270000000270000FN00000000020220401000270000NNM   20220127122548    4P0P  00002700000000847800001141432D1    TOYOT-K 006400630015
BI00B32D1    DFTC2217       202203037116-1685-02             TERMINAL                 CCN000072000000072000FN00000000020220401000072000NNM   20220127122548    4P0P  00002400000000897600001065232D1    TOYOT-K 005100280028
BI00B32D1    DFTC2217       202203037116-2891-02             TERMINAL                 CCN000090000000090000FN00000000020220401000090000NNM   20220127122548    4P0P  00001500000000982500001145932D1    TOYOT-K 005100280028
BI00B32D1    DFTC2217       202203037116-4101-02             TERMINAL                 CCN000012000000012000FN00000000020220401000012000NNM   20220127122548    4P0P  00001200000000582000000876232D1    TOYOT-K 006400630015
BI00B32D1    DFTC2217       202203037116-4110-02             TERMINAL                 CCN000018000000018000FN00000000020220401000018000NNM   20220127122548    4P0P  00000900000000594000000882232D1    TOYOT-K 006400630015
BI00B32D1    DFTC2217       202203037116-4111-02             TERMINAL                 CCN000015000000015000FN00000000020220401000015000NNM   20220127122548    4P0P  00000750000000529500000817732D1    TOYOT-K 006400630015
BI00B32D1    DFTC2217       202203037116-4112-02             TERMINAL                 CCN000030000000030000FN00000000020220401000030000NNM   20220127122548    4P0P  00000600000000450000000738232D1    TOYOT-K 006400630015
BI00B32D1    DFTC2217       202203037116-4486-02             TERMINAL                 CCN000140000000140000FN00000000020220401000140000NNM   20220127122548    4P0P  00002800000000666400000995132D1    TOYOT-K 006400630017
BI00B32D1    DFTC2217       202203037116-5045-02             TERMINAL                 CCN000032000000032000FN00000000020220401000032000NNM   20220127122548    4P0P  00001600000000678400001007132D1    TOYOT-K 006400630017
BI00B32D1    DFTC2217       202203037126-8853-02             TERMINAL                 CCN000075000000075000FN00000000020220401000075000NNM   20220127122548    4P0P  00000750000000562500000847732D1    TOYOT-K 006400630015
BI00B32D1    DFTC2217       202203037126-8854-02             TERMINAL                 CCN000052500000052500FN00000000020220401000052500NNM   20220127122548    4P0P  00000750000000604500000889732D1    TOYOT-K 006400630015
BI00B32D1    DFTC2217       202203037126-8855-02             TERMINAL                 CCN000060000000060000FN00000000020220401000060000NNM   20220127122548    4P0P  00000600000000510600000795832D1    TOYOT-K 006400630015
BI00B32D1    DFTC2217       202203037158-3070-80             RUBBER STOPPER           CCN000040000000040000FN00000000020220401000040000NNM   20220127122548    1C0C  00004000000000276000000333332D1    TOYOT-K 002700430014
BI00B32D1    DFTC2217       202203037196-0396-02             TERMINAL                 CCN000030000000030000FN00000000020220401000030000NNM   20220127122548    4P0P  00001500000000949500001112932D1    TOYOT-K 002800510028
BI00B32D1    DFTC2217       202203037196-0510-02             TERMINAL                 CCN000072000000072000FN00000000020220401000072000NNM   20220127122548    4P0P  00002400000000871200001034632D1    TOYOT-K 002800510028
BI00B32D1    DFTC2217       202203037196-0511-02             TERMINAL                 CCN000024000000024000FN00000000020220401000024000NNM   20220127122548    4P0P  00002400000000916800001080232D1    TOYOT-K 002800510028
BI00B32D1    DFTC2217       202203037282-4576                HOUSING MALE ASS'Y       CCN000004800000004800FN00000000020220401000004800NNM   20220127122548    4N0N  00000240000000808800001028832D1    TOYOT-K 005500360039
BI00B32D1    DFTC2217       202203037283-1156                CONNECTOR                CCN000001600000001600FN00000000020220401000001600NNM   20220127122548    4N0N  00000080000000877600001078032D1    TOYOT-K 005600390040
BI00B32D1    DFTC2217       202203037283-5830                CONNECTOR                CCN000006000000006000FN00000000020220401000006000NNM   20220127122548    1N47  00000600000000954000001104032D1    TOYOT-K 005500360039
BI00B32D1    DFTC2217       202203037288-3334-30             HOUSING MALE             CCN000006000000006000FN00000000020220401000006000NNM   20220127122548    4N0N  00000150000000867000001012032D1    TOYOT-K 005400370024
BI00B32D1    DFTC2217       202203037288-6547                CONNECTOR MALE ASS'Y     CCN000003000000003000FN00000000020220401000003000NNM   20220127122548    4N0N  00000075000001205300001340332D1    TOYOT-K 005400370024
BI00B32D1    DFTC2217       202203037289-3342                HOUSING FEMALE ASS'Y     CCN000004800000004800FN00000000020220401000004800NNM   20220127122548    1N0N  00000240000000686400000901432D1    TOYOT-K 005500360039
BI00B32D1    DFTC2217       202203037289-3342-30             HOUSING FEMALE ASS'Y     CCN000016800000016800FN00000000020220401000016800NNM   20220127122548    1N0N  00000240000000686400000901432D1    TOYOT-K 005500360039
BI00B32D1    DFTC2217       202203037289-3342-40             HOUSING FEMALE ASS'Y     CCN000002400000002400FN00000000020220401000002400NNM   20220127122548    1N0N  00000240000000686400000901432D1    TOYOT-K 005500360039
BI00B32D1    DFTC2217       202203037289-3342-90             HOUSING FEMALE ASS'Y     CCN000002400000002400FN00000000020220401000002400NNM   20220127122548    1N0N  00000240000000686400000901432D1    TOYOT-K 005500360039
BI00B32D1    DFTC2217       202203037289-6547                HOUSING FEMALE ASS'Y     CCN000002400000002400FN00000000020220401000002400NNM   20220127122548    1N0N  00000240000001152000001362032D1    TOYOT-K 005500360039
BI00B32D1    DFTC2217       202203037296-0784-02             TERMINAL ALUMINIUM       CCN000024000000024000FN00000000020220401000024000NNM   20220127122548    4P0P  00002400000000480000000765232D1    TOYOT-K 006400630015
BI00B32D1    DFTC2217       202203037327-6731-3W             BATTERY FUSE             CCN000001600000001600FN00000000020220401000001600NNM   20220127122548    4N0N  00000006400000697600000843032D1    TOYOT-K 005400370024
BI00B32D1    DFTC2217       202203037388-2978-30             HOUSING MALE ASS'Y       CCN000004800000004800FN00000000020220401000004800NNM   20220127122548    1N0N  00000048000000742000001122032D1    TOYOT-K 005500360039
BI00B32D1    #DFTC2217      202203037158-3003-90             RUBBER STOPPER           CCN000120000000120000FN00000000020220401000120000NNM   20220127122548    2C0C  00002000000000250000000306032D1    TOYOT-K 002700430014
BI00B32D1    #DFTC2217      202203037158-3005-80             RUBBER STOPPER           CCN000040000000040000FN00000000020220401000040000NNM   20220127122548    2H0H  00002000000000210000000268732D1    TOYOT-K 002700430014
BI00B32D1    #DFTC2217      202203037158-3008-80             RUBBER STOPPER           CCN000040000000040000FN00000000020220401000040000NNM   20220127122548    2C0C  00002000000000288000000343032D1    TOYOT-K 004300270014
BI00B32D1    #DFTC2217      202203037158-3015-10             RUBBER STOPPER           CCN000020000000020000FN00000000020220401000020000NNM   20220127122548    2C0C  00001000000000419500000474032D1    TOYOT-K 002700430014
BI00B32D1    #DFTC2217      202203037158-3017                RUBBER STOPPER           CCN000020000000020000FN00000000020220401000020000NNM   20220127122548    2C0C  00001000000000375500000435032D1    TOYOT-K 002700430014
BI00B32D1    #DFTC2217      202203037172-5627-60             RUBBER STOPPER           CCN000020000000020000FN00000000020220401000020000NNM   20220127122548    2H0H  00002000000000070400000121832D1    TOYOT-K 004300270014
BI00B32D1    #DFTC2217      202203037172-5629-80             RUBBER STOPPER           CCN000200000000200000FN00000000020220401000200000NNM   20220127122548    2H0H  00002000000000060000000111132D1    TOYOT-K 004300270014
BI00B32D1    #DFTC2217      202203037172-5630-40             RUBBER STOPPER           CCN000040000000040000FN00000000020220401000040000NNM   20220127122548    2H0H  00002000000000044000000095132D1    TOYOT-K 004300270014
BI00B32D1    #DFTC2217      202203037172-5631-60             RUBBER STOPPER           CCN000020000000020000FN00000000020220401000020000NNM   20220127122548    2H0H  00002000000000042000000093132D1    TOYOT-K 004300270014
BI00B32D1    #DFTC2217      202203037172-5632-10             DUMMY PLUG               CCN000080000000080000FN00000000020220401000080000NNM   20220127122548    2H0H  00002000000000080400000131832D1    TOYOT-K 004300270014
BI00B32D1    #DFTC2217      202203037183-2418-30             CONNECTOR HOUSING        CCN000004800000004800FN00000000020220401000004800NNM   20220127122548    2F0F  00000480000000917000001235332D1    TOYOT-K 005500360039
BI00B32D1    #DFTC2217      202203037189-2978-30             HOUSING FEMALE           CCN000003000000003000FN00000000020220401000003000NNM   20220127122548    2F0F  00000150000000966900001096932D1    TOYOT-K 005400370024
BI00B32D1    #DFTC2217      202203037189-3033                HOUSING FEMALE           CCN000001600000001600FN00000000020220401000001600NNM   20220127122548    2F0F  00000160000001211200001431232D1    TOYOT-K 005500360039
BI00B32D1    #DFTC2217      202203037189-3036                HOUSING FEMALE           CCN000003200000003200FN00000000020220401000003200NNM   20220127122548    2F0F  00000160000000921600001141632D1    TOYOT-K 005500360039
BI00B32D1    #DFTC2217      202203037282-1641                CONNECTOR                CCN000004000000004000FN00000000020220401000004000NNM   20220127122548    2N0N  00000200000000813000000986032D1    TOYOT-K 005500360039
BI00B32D1    #DFTC2217      202203037289-2912-40             HOUSING FEMALE ASS'Y     CCN000002000000002000FN00000000020220401000002000NNM   20220127122548    2N0N  00000200000000804000000931032D1    TOYOT-K 005400370024
BI00B32D1    #DFTC2217      202203037289-3622-30             HOUSING FEMALE ASS'Y     CCN000000864000000864FN00000000020220401000000864NNM   20220127122548    2N0N  00000043200000839400001038432D1    TOYOT-K 005400370024
BI00B32D1    #DFTC2217      202203037289-4200-30             HOUSING FEMALE ASS'Y     CCN000002000000002000FN00000000020220401000002000NNM   20220127122548    2N0N  00000200000000926000001021032D1    TOYOT-K 005400370024
BI00B32D1    DFTC2216       202205057289-3342-30             HOUSING FEMALE ASS'Y     CCN000057600000057600FN00000000020220401000057600NNMS0020220127122548    1N0N  00000240000000686400000901432D1    TOYOT-K 005500360039
BI00A32D2    DGTC2213       202201287158-3166-60             WIRE SEAL                CCN000040000000040000FN00000000020220401000040000NNM00020220127145017    1C0C  00004000000000104000000152432D2    TGYOT-G 002700430014
BI00A32D2    DGTC2213       202201287288-6547                CONNECTOR MALE ASS'Y     CCN000010500000010500FN00000000020220401000010500NNM00020220127145007    4N0N  00000075000001205300001340332D2    TGYOT-G 005400370024
BI00B32D2    DGTC2216       202205057288-6547                CONNECTOR MALE ASS'Y     CCN000009000000009000FN00000000020220401000009000NNMS0020220127122548    4N0N  00000075000001205300001340332D2    TGYOT-G 005400370024
BI00B32D2    DGTC2216       202205057289-3342                HOUSING FEMALE ASS'Y     CCN000057600000024000FN00000000020220401000024000NNMS0020220127122548    1N0N  00000240000000686400000901432D2    TGYOT-G 005500360039
BI00B32D2    DGTC2216       202205197289-3342-30             HOUSING FEMALE ASS'Y     CCN000019200000019200FN00000000020220401000019200NNMS0020220127122548    1N0N  00000240000000686400000901432D2    TGYOT-G 005500360039
BI00B32D2    DGTC2216       202204287289-3342-40             HOUSING FEMALE ASS'Y     CCN000016800000016800FN00000000020220401000016800NNMS0020220127122548    1N0N  00000240000000686400000901432D2    TGYOT-G 005500360039
BI00B32D2    DGTC2216       202204287289-3342-90             HOUSING FEMALE ASS'Y     CCN000021600000021600FN00000000020220401000021600NNMS0020220127122548    1N0N  00000240000000686400000901432D2    TGYOT-G 005500360039
BI00B32D2    DGTC2216       202205127289-3342                HOUSING FEMALE ASS'Y     CCN000033600000033600FN00000000020220401000033600NNMS0020220127122548    1N0N  00000240000000686400000901432D2    TGYOT-G 005500360039
BI00B32D4    4513127124     202202237116-4415-02             TERMINAL                 CCN000038000000038000FN00000000020220201000038000NNM   20220127150559    4P0P  00003800000000596600000925732D4    YRYRL   006400630017
BI00B32D4    4513127124     202202237158-3166-60             WIRE SEAL                CCN000040000000040000FN00000000020220201000040000NNM   20220127150559    1C0C  00004000000000104000000152432D4    YRYRL   002700430014
BI00B32D4    #4513127124    202202237047-5344                RETAINER                 CCN000010000000010000FN00000000020220201000010000NNM   20220127150554    2F0F  00001000000000870000001016032D4    YRYRL   005600390023
BI00B32D9    I20401         202202037289-3342-30             HOUSING FEMALE ASS'Y     CCN000079200000079200FN00000000020220101000079200NNM00020220127162814    1N0N  00000240000000686400000901432D9    UEHESTO 005500360039
BI00B32EJ    T220126P01     202203037116-4025                TERMINAL                 CCN000016000000016000FN00000000020220301000016000NNE   20220127150155EJ  4P0P  00001600000000644800000975132EJ    EJYKBO  006400630017
BI00B32EJ    T220126P01     202203037116-4104-02             TERMINAL                 CCN000012000000012000FN00000000020220301000012000NNE   20220127150155EJ  4P0P  00001200000000580800000972432EJ    EJYKBO  006400630015
BI00B32EJ    T220126P01     202203037116-4102-02             TERMINAL                 CCN000012000000012000FN00000000020220301000012000NNE   20220127150155EJ  4P0P  00001200000000553200000841432EJ    EJYKBO  006400630015
BI00B32EJ    T220126P01     202203037283-1968-30             CONNECTOR                CCN000000900000000900FN00000000020220301000000900NNE   20220127150155EJ  1N0N  00000090000001140000001318332EJ    EJYKBO  005600390040
BI00B32EJ    T220126P01     202203037116-4124-02             TERMINAL                 CCN000012000000012000FN00000000020220301000012000NNE   20220127150155EJ  4P0P  00000300000000459900000753532EJ    EJYKBO  006400630015
BI00B32EJ    T220126P01     202203037196-1461-06             TERMINAL FEMALE          CCN000048000000048000FN00000000020220301000048000NNE   20220127150155EJ  4P0P  00002400000000386400000692932EJ    EJYKBO  006400630015
BI00B32EJ    T220126P01     202203037114-4110-02             TERMINAL                 CCN000045000000045000FN00000000020220301000045000NNE   20220127150155EJ  4P0P  00001500000000901500001230132EJ    EJYKBO  006400630017
BI00B32EJ    T220126P01     202203037114-4111-02             TERMINAL                 CCN000012000000012000FN00000000020220301000012000NNE   20220127150155EJ  4P0P  00001200000000758400001087032EJ    EJYKBO  006400630017
BI00B32EJ    T220126P01     202203037114-4112-02             TERMINAL                 CCN000045000000045000FN00000000020220301000045000NNE   20220127150155EJ  4P0P  00000900000000598500000927132EJ    EJYKBO  006400630017
BI00B32EJ    T220126P01     202203037114-4100-02             TERMINAL                 CCN000036000000036000FN00000000020220301000036000NNE   20220127150155EJ  4P0P  00001800000000748800001077432EJ    EJYKBO  006400630017
BI00B32EJ    T220126P01     202203037116-4100-02             TERMINAL                 CCN000045000000045000FN00000000020220301000045000NNE   20220127150155EJ  4P0P  00001500000000696000000990232EJ    EJYKBO  006400630015
BI00B32EJ    T220126P01     202203037116-4120-02             TERMINAL                 CCN000018000000018000FN00000000020220301000018000NNE   20220127150155EJ  4P0P  00000600000000780000001073632EJ    EJYKBO  006400630015
BI00B32EJ    T220126P01     202203037116-4122-02             TERMINAL                 CCN000036000000036000FN00000000020220301000036000NNE   20220127150155EJ  4P0P  00000450000000656600000950232EJ    EJYKBO  006400630015
BI00B32EJ    T220126P01     202203037116-4121-02             TERMINAL                 CCN000090000000090000FN00000000020220301000090000NNE   20220127150155EJ  4P0P  00000450000000618800000912432EJ    EJYKBO  006400630015
BI00B32EJ    T220126P01     202203037116-4112-02             TERMINAL                 CCN000102000000102000FN00000000020220301000102000NNE   20220127150155EJ  4P0P  00000600000000450000000738232EJ    EJYKBO  006400630015
BI00B32EJ    T220126P01     202203037116-4110-02             TERMINAL                 CCN000045000000045000FN00000000020220301000045000NNE   20220127150155EJ  4P0P  00000900000000594000000882232EJ    EJYKBO  006400630015
BI00B32EJ    T220126P01     202203037116-4111-02             TERMINAL                 CCN000022500000022500FN00000000020220301000022500NNE   20220127150155EJ  4P0P  00000750000000529500000817732EJ    EJYKBO  006400630015
BI00B32EJ    T220126P01     202203037126-8854-02             TERMINAL                 CCN000015000000015000FN00000000020220301000015000NNE   20220127150155EJ  4P0P  00000750000000604500000889732EJ    EJYKBO  006400630015
BI00B32EJ    T220126P01     202203037126-8855-02             TERMINAL                 CCN000018000000018000FN00000000020220301000018000NNE   20220127150155EJ  4P0P  00000600000000510600000795832EJ    EJYKBO  006400630015
BI00B32EJ    T220126P01     202203037116-2951-02             TERMINAL                 CCN000010800000010800FN00000000020220301000010800NNE   20220127150155EJ  4P0P  00000540000000817600001111832EJ    EJYKBO  006400630015
BI00B32EJ    T220126P01     202203037116-4022                TERMINAL                 CCN000013500000013500FN00000000020220301000013500NNE   20220127150155EJ  4P0P  00001350000000618300000903532EJ    EJYKBO  006400630015
BI00B32EJ    T220126P01     202203037158-3166-60             WIRE SEAL                CCN001120000001120000FN00000000020220301001120000NNE   20220127150155EJ  1C0C  00004000000000104000000152432EJ    EJYKBO  002700430014
BI00B32EJ    T220126P01     202203037158-3167-80             WIRE SEAL                CCN000780000000780000FN00000000020220301000780000NNE   20220127150155EJ  1C0C  00002000000000048000000109032EJ    EJYKBO  002700430014
BI00B32EJ    T220126P01     202203037158-3168-80             SEALED                   CCN000040000000040000FN00000000020220301000040000NNE   20220127150155EJ  1C0C  00002000000000044000000092132EJ    EJYKBO  004300260014
BI00B32EJ    T220126P01     202203037158-3169-40             SEALING PLUG             CCN000480000000480000FN00000000020220301000480000NNE   20220127150155EJ  1C0C  00004000000000156000000204132EJ    EJYKBO  004300260014
BI00B32EJ    T220126P01     202203037B58-3070-80             RUBBER STOPPER           CCN000040000000040000FN00000000020220301000040000NNE   20220127150155EJ  1C0C  00004000000000276000000333032EJ    EJYKBO  004300270014
BI00B32EJ    T220126P01     202203037158-3167-61             WIRE SEAL                CCN000100000000100000FN00000000020220301000100000NNE   20220127150155EJ  1C0C  00002000000000048000000096432EJ    EJYKBO  004300270014
BI00B32EJ    #T220126P01    202203037158-3120-90             CONNECTOR WIRE SEAL      CCN000120000000120000FN00000000020220301000120000NNE   20220127150142EJ  2C0C  00002000000000136000000194032EJ    EJYKBO  002700430014
BI00B32EJ    #T220126P01    202203037123-6423-30             CONNECTOR                CCN000004000000004000FN00000000020220301000004000NNE   20220127150142EJ  2F0F  00000200000001002000001167632EJ    EJYKBO  005600390023
BI00B32EJ    #T220126P01    202203037282-6458-40             CONNECTOR                CCN000002000000002000FN00000000020220301000002000NNE   20220127150142EJ  2N0N  00000100000001206000001350532EJ    EJYKBO  005500360039
BI00B32EJ    #T220126P01    202203037157-3952-80             RUBBER STOPPER           CCN000010000000010000FN00000000020220301000010000NNE   20220127150142EJ  2C0C  00001000000000117000000175032EJ    EJYKBO  002700430014
BI00B32EJ    #T220126P01    202203037157-3950-80             SEAL RUBBER              CCN000040000000040000FN00000000020220301000040000NNE   20220127150142EJ  2C0C  00004000000000154000000440332EJ    EJYKBO  002700430014
BI00B32EJ    @T220126P01    202203037123-4312-80             HOUSING                  CCN000003200000003200FN00000000020220301000003200NNE   20220127150149EJ  3F0F  00000080000000644200000794032EJ    EJYKBO  005500360039
BI00B32E1    NC204A         202202157158-3168-80             SEALED                   CCN000020000000020000FN00000000020220401000020000NNED0720220127122548    1C0C  00002000000000044000000092132E1    SPYSE   004300260014
BI00B32G0    #TZ22033EMW    202202087125-3236                HEAD LAMP CONNECTOR      CCN000002800000002800FN00000000020220301000002800NNM00020220127122548    2F0F  00000280000000935200001075432G0    TTTJY   005500360039
BI00B32G0    TZ22051EMW     202203227017-1181-02             TERMINAL                 CCN000063000000063000FN00000000020220501000063000NNM   20220127131502    4P0P  00006300000001089900001266832G0    TTTJY   005100280028
BI00B32G0    TZ22051EMW     202203227114-4032                TERMINAL                 CCN000007500000007500FN00000000020220501000007500NNM   20220127131502    4P0P  00000750000000735000001063632G0    TTTJY   006400630017
BI00B32G0    TZ22051EMW     202203227114-4729-08             TERMINAL                 CCN000030000000030000FN00000000020220501000030000NNM   20220127131502    4P0P  00003000000000522000000816232G0    TTTJY   006400630015
BI00B32G0    TZ22051EMW     202203227114-5748-02             TERMINAL                 CCN000048000000048000FN00000000020220501000048000NNM   20220127131502    4P0P  00001200000000444000000737632G0    TTTJY   006400630015
BI00B32G0    TZ22052EMW     202203297114-5748-02             TERMINAL                 CCN000024000000024000FN00000000020220501000024000NNM   20220127131502    4P0P  00001200000000444000000737632G0    TTTJY   006400630015
BI00B32G0    TZ22051EMW     202203227116-1685-02             TERMINAL                 CCN000048000000048000FN00000000020220501000048000NNM   20220127131502    4P0P  00002400000000897600001065232G0    TTTJY   005100280028
BI00B32G0    TZ22051EMW     202203227116-1686-02             TERMINAL                 CCN000021000000021000FN00000000020220501000021000NNM   20220127131502    4P0P  00002100000000869400001021632G0    TTTJY   005100280028
BI00B32G0    TZ22051EMW     202203227116-3153-08             TERMINAL                 CCN000108000000108000FN00000000020220501000108000NNM   20220127131502    4P0P  00002700000000461700000746932G0    TTTJY   006400630015
BI00B32G0    TZ22052EMW     202203297116-3153-08             TERMINAL                 CCN000054000000054000FN00000000020220501000054000NNM   20220127131502    4P0P  00002700000000461700000746932G0    TTTJY   006400630015
BI00B32G0    TZ22051EMW     202203227116-5045-02             TERMINAL                 CCN000192000000192000FN00000000020220501000192000NNM   20220127131502    4P0P  00001600000000678400001007132G0    TTTJY   006400630017
BI00B32G0    TZ22051EMW     202203227116-5046-02             TERMINAL                 CCN000048000000048000FN00000000020220501000048000NNM   20220127131502    4P0P  00001200000000544800000873532G0    TTTJY   006400630017
BI00B32G0    TZ22052EMW     202203297116-5046-02             TERMINAL                 CCN000024000000024000FN00000000020220501000024000NNM   20220127131502    4P0P  00001200000000544800000873532G0    TTTJY   006400630017
BI00B32G0    TZ22051EMW     202203227116-6041                TERMINAL                 CCN000027000000027000FN00000000020220501000027000NNM   20220127131502    4P0P  00000450000000716000001009632G0    TTTJY   006400630015
BI00B32G0    TZ22052EMW     202203297116-6041                TERMINAL                 CCN000004500000004500FN00000000020220501000004500NNM   20220127131502    4P0P  00000450000000716000001009632G0    TTTJY   006400630015
BI00B32G0    TZ22051EMW     202203227116-6042                TERMINAL                 CCN000042000000042000FN00000000020220501000042000NNM   20220127131502    4P0P  00000300000000523800000856132G0    TTTJY   006400630015
BI00B32G0    TZ22052EMW     202203297116-6042                TERMINAL                 CCN000012000000012000FN00000000020220501000012000NNM   20220127131502    4P0P  00000300000000523800000856132G0    TTTJY   006400630015
BI00B32G0    TZ22051EMW     202203227126-8853-02             TERMINAL                 CCN000045000000045000FN00000000020220501000045000NNM   20220127131502    4P0P  00000750000000562500000847732G0    TTTJY   006400630015
BI00B32G0    TZ22052EMW     202203297126-8853-02             TERMINAL                 CCN000015000000015000FN00000000020220501000015000NNM   20220127131502    4P0P  00000750000000562500000847732G0    TTTJY   006400630015
BI00B32G0    TZ22051EMW     202203227158-3006-90             RUBBER STOPPER           CCN000140000000140000FN00000000020220501000140000NNM   20220127131502    1C0C  00002000000000330600000386032G0    TTTJY   002700430014
BI00B32G0    TZ22051EMW     202203227158-3070-80             RUBBER STOPPER           CCN000040000000040000FN00000000020220501000040000NNM   20220127131502    1C0C  00004000000000276000000333332G0    TTTJY   002700430014
BI00B32G0    TZ22053EMW     202204057158-3165-90             WIRE SEAL                CCN000040000000040000FN00000000020220501000040000NNM   20220127131502    1C0C  00004000000000124000000172432G0    TTTJY   004300270014
BI00B32G0    TZ22053EMW     202204057158-3166-60             WIRE SEAL                CCN000040000000040000FN00000000020220501000040000NNM   20220127131502    1C0C  00004000000000104000000152432G0    TTTJY   002700430014
BI00B32G0    TZ22051EMW     202203227196-0396-02             TERMINAL                 CCN000015000000015000FN00000000020220501000015000NNM   20220127131502    4P0P  00001500000000949500001112932G0    TTTJY   002800510028
BI00B32G0    TZ22052EMW     202203297196-0510-02             TERMINAL                 CCN000048000000048000FN00000000020220501000048000NNM   20220127131502    4P0P  00002400000000871200001034632G0    TTTJY   002800510028
BI00B32G0    TZ22051EMW     202203227196-0805-02             TERMINAL FEMALE          CCN000022500000022500FN00000000020220501000022500NNM   20220127131502    4P0P  00002250000000558000000843232G0    TTTJY   006400630015
BI00B32G0    TZ22051EMW     202203227283-1156                CONNECTOR                CCN000004000000004000FN00000000020220501000004000NNM   20220127131502    4N0N  00000080000000877600001078032G0    TTTJY   005600390040
BI00B32G0    TZ22051EMW     202203227283-4855                CONNECTOR HOUSING        CCN000007200000007200FN00000000020220501000007200NNM   20220127131502    4N0N  00000240000001188400001400032G0    TTTJY   005500360039
BI00B32G0    TZ22051EMW     202203227287-8999                HOUSING FEMALE ASS'Y     CCN000004800000004800FN00000000020220501000004800NNM   20220127131502    1N0N  00000480000001228800001448832G0    TTTJY   005500360039
BI00B32G0    TZ22051EMW     202203227287-9323-40             UNSEALED HOUSING SUB     CCN000004800000004800FN00000000020220501000004800NNM   20220127131502    1N0N  00000240000000537600000690032G0    TTTJY   005600390023
BI00B32G0    TZ22051EMW     202203227288-6547                CONNECTOR MALE ASS'Y     CCN000016500000016500FN00000000020220501000016500NNM   20220127131502    4N0N  00000075000001205300001340332G0    TTTJY   005400370024
BI00B32G0    TZ22052EMW     202203297288-6547                CONNECTOR MALE ASS'Y     CCN000009000000009000FN00000000020220501000009000NNM   20220127131502    4N0N  00000075000001205300001340332G0    TTTJY   005400370024
BI00B32G0    TZ22051EMW     202203227288-6598-70             HOUSING MALE ASS'Y       CCN000001440000001440FN00000000020220501000001440NNM   20220127131502    4N0N  00000144000001074200001429232G0    TTTJY   005500360039
BI00B32G0    TZ22051EMW     202203227289-6547                HOUSING FEMALE ASS'Y     CCN000009600000009600FN00000000020220501000009600NNM   20220127131502    1N0N  00000240000001152000001362032G0    TTTJY   005500360039
BI00B32G0    TZ22052EMW     202203297289-6547                HOUSING FEMALE ASS'Y     CCN000009600000009600FN00000000020220501000009600NNM   20220127131502    1N0N  00000240000001152000001362032G0    TTTJY   005500360039
BI00B32G0    TZ22051EMW     202203227289-6597-70             HOUSING FEMALE ASS'Y     CCN000002160000002160FN00000000020220501000002160NNM   20220127131502    4N0N  00000216000001289500001539532G0    TTTJY   005500360039
BI00B32G0    TZ22051EMW     202203227295-0785-02             TERMINAL ALUMINIUM       CCN000025500000025500FN00000000020220501000025500NNM   20220127131502    4P0P  00002550000000510000000803632G0    TTTJY   006400630015
BI00B32G0    TZ22052EMW     202203297295-0785-02             TERMINAL ALUMINIUM       CCN000025500000025500FN00000000020220501000025500NNM   20220127131502    4P0P  00002550000000510000000803632G0    TTTJY   006400630015
BI00B32G0    TZ22051EMW     202203227296-0784-02             TERMINAL ALUMINIUM       CCN000048000000048000FN00000000020220501000048000NNM   20220127131502    4P0P  00002400000000480000000765232G0    TTTJY   006400630015
BI00B32G0    TZ22051EMW     202203227327-6731-3W             BATTERY FUSE             CCN000002304000002304FN00000000020220501000002304NNM   20220127131502    4N0N  00000006400000697600000843032G0    TTTJY   005400370024
BI00B32G0    TZ22052EMW     202203297327-6731-3W             BATTERY FUSE             CCN000000704000000704FN00000000020220501000000704NNM   20220127131502    4N0N  00000006400000697600000843032G0    TTTJY   005400370024
BI00B32G0    TZ22051EMW     202203227386-9155                CONNECTOR MALE ASS'Y     CCN000000600000000600FN00000000020220501000000600NNM   20220127131502    4N0N  00000060000001244400001369932G0    TTTJY   005400370024
BI00B32G0    TZ22051EMW     202203227388-2978-30             HOUSING MALE ASS'Y       CCN000002880000002880FN00000000020220501000002880NNM   20220127131502    1N0N  00000048000000742000001122032G0    TTTJY   005500360039
BI00B32G0    TZ22052EMW     202203297388-2978-30             HOUSING MALE ASS'Y       CCN000001920000001920FN00000000020220501000001920NNM   20220127131502    1N0N  00000048000000742000001122032G0    TTTJY   005500360039
BI00B32G0    #TZ22051EMW    202203227125-3236                HEAD LAMP CONNECTOR      CCN000008400000008400FN00000000020220501000008400NNM   20220127131448    2F0F  00000280000000935200001075432G0    TTTJY   005500360039
BI00B32G0    #TZ22051EMW    202203227157-6826-80             REAR HOLDER              CCN000015000000015000FN00000000020220501000015000NNM   20220127131448    2F0F  00001500000001234500001394132G0    TTTJY   005600390040
BI00B32G0    #TZ22051EMW    202203227158-3003-90             RUBBER STOPPER           CCN000120000000120000FN00000000020220501000120000NNM   20220127131448    2C0C  00002000000000250000000306032G0    TTTJY   002700430014
BI00B32G0    #TZ22051EMW    202203227158-3004-40             RUBBER STOPPER           CCN000080000000080000FN00000000020220501000080000NNM   20220127131448    2C0C  00002000000000234000000306332G0    TTTJY   002700430014
BI00B32G0    #TZ22051EMW    202203227158-3005-80             RUBBER STOPPER           CCN000020000000020000FN00000000020220501000020000NNM   20220127131448    2H0H  00002000000000210000000268732G0    TTTJY   002700430014
BI00B32G0    #TZ22051EMW    202203227158-3007-10             RUBBER STOPPER           CCN000040000000040000FN00000000020220501000040000NNM   20220127131448    2H0H  00002000000000308000000362732G0    TTTJY   002700430014
BI00B32G0    #TZ22051EMW    202203227158-3008-80             RUBBER STOPPER           CCN000060000000060000FN00000000020220501000060000NNM   20220127131448    2C0C  00002000000000288000000343032G0    TTTJY   004300270014
BI00B32G0    #TZ22052EMW    202203297158-3008-80             RUBBER STOPPER           CCN000020000000020000FN00000000020220501000020000NNM   20220127131448    2C0C  00002000000000288000000343032G0    TTTJY   004300270014
BI00B32G0    #TZ22051EMW    202203227158-3015-10             RUBBER STOPPER           CCN000020000000020000FN00000000020220501000020000NNM   20220127131448    2C0C  00001000000000419500000474032G0    TTTJY   002700430014
BI00B32G0    #TZ22051EMW    202203227158-3017                RUBBER STOPPER           CCN000030000000030000FN00000000020220501000030000NNM   20220127131448    2C0C  00001000000000375500000435032G0    TTTJY   002700430014
BI00B32G0    #TZ22051EMW    202203227172-5626-90             RUBBER STOPPER           CCN000180000000180000FN00000000020220501000180000NNM   20220127131448    2H0H  00002000000000076400000127832G0    TTTJY   004300270014
BI00B32G0    #TZ22051EMW    202203227172-5627-60             RUBBER STOPPER           CCN000020000000020000FN00000000020220501000020000NNM   20220127131448    2H0H  00002000000000070400000121832G0    TTTJY   004300270014
BI00B32G0    #TZ22051EMW    202203227172-5629-80             RUBBER STOPPER           CCN000240000000240000FN00000000020220501000240000NNM   20220127131448    2H0H  00002000000000060000000111132G0    TTTJY   004300270014
BI00B32G0    #TZ22051EMW    202203227172-5630-40             RUBBER STOPPER           CCN000380000000380000FN00000000020220501000380000NNM   20220127131448    2H0H  00002000000000044000000095132G0    TTTJY   004300270014
BI00B32G0    #TZ22052EMW    202203297172-5630-40             RUBBER STOPPER           CCN000240000000240000FN00000000020220501000240000NNM   20220127131448    2H0H  00002000000000044000000095132G0    TTTJY   004300270014
BI00B32G0    #TZ22051EMW    202203227172-5631-60             RUBBER STOPPER           CCN000080000000080000FN00000000020220501000080000NNM   20220127131448    2H0H  00002000000000042000000093132G0    TTTJY   004300270014
BI00B32G0    #TZ22052EMW    202203297172-5631-60             RUBBER STOPPER           CCN000020000000020000FN00000000020220501000020000NNM   20220127131448    2H0H  00002000000000042000000093132G0    TTTJY   004300270014
BI00B32G0    #TZ22051EMW    202203227172-5632-10             DUMMY PLUG               CCN000140000000140000FN00000000020220501000140000NNM   20220127131448    2H0H  00002000000000080400000131832G0    TTTJY   004300270014
BI00B32G0    #TZ22052EMW    202203297172-5632-10             DUMMY PLUG               CCN000060000000060000FN00000000020220501000060000NNM   20220127131448    2H0H  00002000000000080400000131832G0    TTTJY   004300270014
BI00B32G0    #TZ22051EMW    202203227183-2415-40             CONNECTOR HOUSING        CCN000004800000004800FN00000000020220501000004800NNM   20220127131448    2F0F  00000480000000798200001091432G0    TTTJY   005500360039
BI00B32G0    #TZ22051EMW    202203227183-2418-30             CONNECTOR HOUSING        CCN000004800000004800FN00000000020220501000004800NNM   20220127131448    2F0F  00000480000000917000001235332G0    TTTJY   005500360039
BI00B32G0    #TZ22052EMW    202203297189-2978-30             HOUSING FEMALE           CCN000001500000001500FN00000000020220501000001500NNM   20220127131448    2F0F  00000150000000966900001096932G0    TTTJY   005400370024
BI00B32G0    #TZ22053EMW    202204057189-2978-30             HOUSING FEMALE           CCN000001500000001500FN00000000020220501000001500NNM   20220127131448    2F0F  00000150000000966900001096932G0    TTTJY   005400370024
BI00B32G0    #TZ22052EMW    202203297189-3032-30             HOUSING FEMALE           CCN000001600000001600FN00000000020220501000001600NNM   20220127131448    2F0F  00000160000000801600001021632G0    TTTJY   005500360039
BI00B32G0    #TZ22051EMW    202203227198-4979-30             HOUSING FEMALE           CCN000004000000004000FN00000000020220501000004000NNM   20220127131448    2F0F  00000400000000707200000876032G0    TTTJY   005400370024
BI00B32G0    #TZ22053EMW    202204057198-4980-30             HOUSING FEMALE           CCN000001200000001200FN00000000020220501000001200NNM   20220127131448    2F0F  00000120000000840000000921032G0    TTTJY   005400370024
BI00B32G0    #TZ22051EMW    202203227287-9155                HOUSING FEMALE ASS'Y     CCN000000960000000960FN00000000020220501000000960NNM   20220127131448    2N0N  00000096000000853700001045232G0    TTTJY   005400370024
BI00B32G0    #TZ22053EMW    202204057289-3622-30             HOUSING FEMALE ASS'Y     CCN000000432000000432FN00000000020220501000000432NNM   20220127131448    2N0N  00000043200000839400001038432G0    TTTJY   005400370024
BI00B32G0    #TZ22053EMW    202204057289-4200-30             HOUSING FEMALE ASS'Y     CCN000002000000002000FN00000000020220501000002000NNM   20220127131448    2N0N  00000200000000926000001021032G0    TTTJY   005400370024
BI00B32G0    @TZ22051EMW    202203227286-4098                CONNECTOR MALE ASS'Y     CCN000001800000003200FN00000000020220501000003200NNM   20220127131456    3N0N  00000160000000949100001163032G0    TTTJY   005500360039
BI00B32G0    @TZ22051EMW    202203227287-6634                HOUSING FEMALE ASS'Y     CCN000002400000002400FN00000000020220501000002400NNM   20220127131456    3N0N  00000240000001088400001337032G0    TTTJY   005500360039
BI00B32G0    @TZ22052EMW    202203297287-6634                HOUSING FEMALE ASS'Y     CCN000002400000002400FN00000000020220501000002400NNM   20220127131456    3N0N  00000240000001088400001337032G0    TTTJY   005500360039
BI00B32G0    TZ2203AEMW     202202157116-1685-02             TERMINAL                 CCN000048000000048000FN00000000020220301000048000NNED0720220127131656    4P0P  00002400000000897600001065232G0    TTTJY   005100280028
BI00B32G0    TZ2203AEMW     202202157158-3006-90             RUBBER STOPPER           CCN000060000000060000FN00000000020220301000060000NNED0720220127131656    1C0C  00002000000000330600000386032G0    TTTJY   002700430014
BI00B32G0    TZ2203AEMW     202202157283-1156                CONNECTOR                CCN000001600000001600FN00000000020220301000001600NNED0720220127131656    4N0N  00000080000000877600001078032G0    TTTJY   005600390040
BI00B32G0    TZ2203AEMW     202202157287-8999                HOUSING FEMALE ASS'Y     CCN000004800000004800FN00000000020220301000004800NNED0720220127131656    1N0N  00000480000001228800001448832G0    TTTJY   005500360039
BI00B32G0    #TZ2203AEMW    202202157125-3236                HEAD LAMP CONNECTOR      CCN000005600000005600FN00000000020220301000005600NNED0720220127131652    2F0F  00000280000000935200001075432G0    TTTJY   005500360039
