BI00B32CH    SJ22033DMW     202202171801W006941              IVSSH 0.35F GY           CCN000002500000000000FY00000000020220301000000000NNM10 20220127144544    1W    00000250000000452000000000032CH    SJSAMIJF000000000000QY122017
BI00B32CH    SJ22034DMW     202202241801W006941              IVSSH 0.35F GY           CCN000002500000000000FY00000000020220301000000000NNM10 20220127145212    1W    00000250000000452000000000032CH    SJSAMIJF000000000000QY222018
BI00B32CH    SJ22033DMW     202202171801W003930              IVSSH 0.5F B             CCN000019800000016200FN00000000020220301000016200NNM00 20220127144642    1W    00000180000000625000000000032CH    SJSAMIJF000000000000QY122003
BI00B32CH    SJ22034DMW     202202241801W003930              IVSSH 0.5F B             CCN000014400000000000FY00000000020220301000000000NNM10 20220127145212    1W    00000180000000625000000000032CH    SJSAMIJF000000000000QY222003
BI00B32CH    SJ22034DMW     202202241801W003960              IVSSH 0.5F G             CCN000005400000000000FY00000000020220301000000000NNM10 20220127145212    1W    00000180000000625000000000032CH    SJSAMIJF000000000000QY222005
BI00B32CH    SJ22034DMW     202202241801W003990              IVSSH 0.5F L             CCN000003600000000000FY00000000020220301000000000NNM10 20220127145212    1W    00000180000000625000000000032CH    SJSAMIJF000000000000QY222006
BI00B32CH    SJ22034DMW     202202241801W003952              IVSSH 0.5F P             CCN000007200000000000FY00000000020220301000000000NNM10 20220127145212    1W    00000180000000625000000000032CH    SJSAMIJF000000000000QY222008
BI00B32CH    SJ22034DMW     202202231801W003940              IVSSH 0.5F W             CCN000009000000000000FY00000000020220301000000000NNM11 20220127150340    1W    00000180000000625000000000032CH    SJSAMIJF000000000000QY222011
BI00B32CH    SJ22034DMW     202202231801W003970              IVSSH 0.5F Y             CCN000009000000000000FY00000000020220301000000000NNM11 20220127150647    1W    00000180000000625000000000032CH    SJSAMIJF000000000000QY222012
BI00B32CH    SJ22033DMW     202202171801W004090              IVSSH 0.75F L            CCN000003900000002600FN00000000020220301000002600NNM00 20220127144741    1W    00000130000000882000000000032CH    SJSAMIJF000000000000QY122014
BI00B32CH    SJ22034DMW     202202241801W004090              IVSSH 0.75F L            CCN000003900000000000FY00000000020220301000000000NNM10 20220127145212    1W    00000130000000882000000000032CH    SJSAMIJF000000000000QY222014
BI00B32CH    SJ2203ADMW     202202171801W003950              IVSSH 0.5F R             CCN000003600000000000FY00000000020220301000000000NNE10 20220127151354    1W    00000180000000625000000000032CH    SJSAMIJF000000000000QQ122001
BI00B32CH    SJ2203ADMW     202202171801W003992              IVSSH 0.5F V             CCN000003600000001800FN00000000020220301000001800NNE00 20220127151415    1W    00000180000000625000000000032CH    SJSAMIJF000000000000QQ122002
BI00B32CH    SJ2203ADMW     202202171801W004030              IVSSH 0.75F B            CCN000001300000001300FN00000000020220301000001300NNE   20220127151257    1W    00000130000000882000000000032CH    SJSAMIJF000000000000QQ122003
BI00B32CH    SJ2203ADMW     202202171801W004050              IVSSH 0.75F R            CCN000002600000001300FN00000000020220301000001300NNE00 20220127151455    1W    00000130000000882000000000032CH    SJSAMIJF000000000000QQ122004
BI00B32CH    SJ2203ADMW     202202171801W004070              IVSSH 0.75F Y            CCN000002600000002600FN00000000020220301000002600NNE   20220127151257    1W    00000130000000882000000000032CH    SJSAMIJF000000000000QQ122005
BI00A32CH    SJ22034DMW     202201261801W003940              IVSSH 0.5F W             CCN000005400000005400FY00000540020220301000000000NNM21 20220127150413    1W    00000180000000625000000000032CH    SJSAMIJF000000000000QY222011
BI00A32CH    SJ22034DMW     202201261801W003970              IVSSH 0.5F Y             CCN000007200000007200FY00000720020220301000000000NNM21 20220127150734    1W    00000180000000625000000000032CH    SJSAMIJF000000000000QY222012
BI00B32CH    SJ22033DMW     202202181801W003930              IVSSH 0.5F B             CCN000003600000000000FY00000000020220301000000000NNM10 20220127144659    1W    00000180000000625000000000032CH    SJSAMIJF000000000000QY122003
BI00B32CH    SJ22033DMW     202202181801W004090              IVSSH 0.75F L            CCN000001300000000000FY00000000020220301000000000NNM10 20220127144802    1W    00000130000000882000000000032CH    SJSAMIJF000000000000QY122014
BI00B32CH    SJ22034DMW     202202241801W003940              IVSSH 0.5F W             CCN000003600000000000FY00000000020220301000000000NNM10 20220127150432    1W    00000180000000625000000000032CH    SJSAMIJF000000000000QY222011
BI00B32CH    SJ22034DMW     202202241801W003970              IVSSH 0.5F Y             CCN000001800000000000FY00000000020220301000000000NNM10 20220127150755    1W    00000180000000625000000000032CH    SJSAMIJF000000000000QY222012
BI00B32CH    SJ2203ADMW     202202181801W003992              IVSSH 0.5F V             CCN000001800000000000FY00000000020220301000000000NNE10 20220127151428    1W    00000180000000625000000000032CH    SJSAMIJF000000000000QQ122002
BI00B32CH    SJ2203ADMW     202202181801W004050              IVSSH 0.75F R            CCN000001300000000000FY00000000020220301000000000NNE10 20220127151504    1W    00000130000000882000000000032CH    SJSAMIJF000000000000QQ122004
BI00B32M3    SM2202AEMW     202202101800770375U              AVSS 0.3F BE             CCN000004000000004000FN00000000020220201000004000NNE   20220127160250    1W    00000200000000496000000000032M3    SASAMI  000000000000QR421001
BI00B32M3    SM2202AEMW     2022021018007703743              AVSS 0.3F W/B            CCN000004000000004000FN00000000020220201000004000NNE   20220127160250    1W    00000200000000496000000000032M3    SASAMI  000000000000QR421002
BI00B32M3    SM2202AEMW     2022021018007704192              AVSS 1.25F V             CCN000001600000001600FN00000000020220201000001600NNE   20220127160250    1W    00000080000001389000000000032M3    SASAMI  000000000000QR421003
BI00B32M3    SM2202AEMW     2022021018007704140              AVSS 1.25F W             CCN000000800000000800FN00000000020220201000000800NNE   20220127160250    1W    00000080000001389000000000032M3    SASAMI  000000000000QR421004
BI00B32M3    @SM2202CMMW    20220210181E48041ZZ              CAVSAS-S 0.3X2 GY/R      CCN000000700000000700FN00000000020220201000000700NNE   20220127161414    1W    00000035000002008700000000032M3    SASAMI  000000000000QV421001
BI00B32M3    SM2202D MW     2022021718007703970              AVSS 0.5F Y              CCN000001500000001500FN00000000020220201000001500NNE   20220127160251    1W    00000150000000674000000000032M3    SASAMI  000000000000QV122005
BI00B32M3    SM2202D MW     20220217180D0203790              AVSSH 0.3F L             CCN000002000000002000FN00000000020220201000002000NNE   20220127160251    1W    00000200000000515000000000032M3    SASAMI  000000000000QV122001
BI00B32M3    SM2202D MW     20220217180D0204030              AVSSH 0.75F B            CCN000004000000004000FN00000000020220201000004000NNE   20220127160251    1W    00000100000000934000000000032M3    SASAMI  000000000000QV122002
BI00B32M3    SM2202D MW     20220217180D0204061              AVSSH 0.75F LG           CCN000002000000002000FN00000000020220201000002000NNE   20220127160251    1W    00000100000000934000000000032M3    SASAMI  000000000000QV122003
BI00B32M3    SM2202D MW     20220217180D0204052              AVSSH 0.75F P            CCN000003000000003000FN00000000020220201000003000NNE   20220127160251    1W    00000100000000934000000000032M3    SASAMI  000000000000QV122004
BI00B32M3    SM2202E MW     2022021018007703780              AVSS 0.3F BR             CCN000002000000002000FN00000000020220201000002000NNE   20220127160251    1W    00000200000000496000000000032M3    SASAMI  000000000000QT421001
BI00B32M3    SM2202E MW     2022021018007703761              AVSS 0.3F LG             CCN000004000000004000FN00000000020220201000004000NNE   20220127160251    1W    00000200000000496000000000032M3    SASAMI  000000000000QT421002
BI00B32M3    SM2202E MW     2022021018007703752              AVSS 0.3F P              CCN000002000000002000FN00000000020220201000002000NNE   20220127160251    1W    00000200000000496000000000032M3    SASAMI  000000000000QT421003
BI00B32M3    SM2202E MW     2022021018007703791              AVSS 0.3F SB             CCN000004000000004000FN00000000020220201000004000NNE   20220127160251    1W    00000200000000496000000000032M3    SASAMI  000000000000QT421004
BI00B32M3    SM2202E MW     2022021018007703792              AVSS 0.3F V              CCN000002000000002000FN00000000020220201000002000NNE   20220127160251    1W    00000200000000496000000000032M3    SASAMI  000000000000QT421005
BI00B32M3    SM2202E MW     2022021018007703740              AVSS 0.3F W              CCN000004000000004000FN00000000020220201000004000NNE   20220127160251    1W    00000200000000496000000000032M3    SASAMI  000000000000QT421006
BI00B32M3    SM2202E MW     2022021018007703960              AVSS 0.5F G              CCN000001500000001500FN00000000020220201000001500NNE   20220127160251    1W    00000150000000674000000000032M3    SASAMI  000000000000QT421007
BI00B32M3    SM2202E MW     2022021018007703941              AVSS 0.5F GY             CCN000001500000001500FN00000000020220201000001500NNE   20220127160251    1W    00000150000000674000000000032M3    SASAMI  000000000000QT421008
BI00B32M3    SM2202E MW     2022021018007703991              AVSS 0.5F SB             CCN000001500000001500FN00000000020220201000001500NNE   20220127160251    1W    00000150000000674000000000032M3    SASAMI  000000000000QT421009
BI00B32M3    SM2202E MW     2022021018007703992              AVSS 0.5F V              CCN000003000000003000FN00000000020220201000003000NNE   20220127160251    1W    00000150000000674000000000032M3    SASAMI  000000000000QT421010
BI00B32M3    SM2202E MW     2022021018007704180              AVSS 1.25F BR            CCN000000800000000800FN00000000020220201000000800NNE   20220127160251    1W    00000080000001389000000000032M3    SASAMI  000000000000QT421011
BI00B32M3    SM2202E MW     2022021018007704160              AVSS 1.25F G             CCN000001600000001600FN00000000020220201000001600NNE   20220127160251    1W    00000080000001389000000000032M3    SASAMI  000000000000QT421012
BI00B32M3    SM2202E MW     2022021018007704190              AVSS 1.25F L             CCN000000800000000800FN00000000020220201000000800NNE   20220127160251    1W    00000080000001389000000000032M3    SASAMI  000000000000QT421013
BI00B32M3    SM2202F MW     2022021018007704161              AVSS 1.25F LG            CCN000000800000000800FN00000000020220201000000800NNE   20220127160252    1W    00000080000001389000000000032M3    SASAMI  000000000000QU421001
