BI00B32DE    TT2023         2022012718000004530              AV 8 B                   CCN000012600000000000FY00000000020220201000000000NNM10 20211228082448    1W    00000010000010466200000000032DE    TVYEV-TV000000000000VT221071
BI00B32DE    TT2024         2022020318000004530              AV 8 B                   CCN000012600000000000FY00000000020220201000000000NNM10 20211228083812    1W    00000010000010466200000000032DE    TVYEV-TV000000000000VT321078
BI00B32DE    TT2022         2022012018007703941              AVSS 0.5F GY             CCN000001500000000000FY00000000020220201000000000NNM10 20211228081957    1W    00000150000000674000000000032DE    TVYEV-TV000000000000VT121056
BI00B32DE    TT2023         2022012718007703941              AVSS 0.5F GY             CCN000001500000000000FY00000000020220201000000000NNM10 20211228082458    1W    00000150000000674000000000032DE    TVYEV-TV000000000000VT221076
BI00B32DE    TT2022         2022012018007704152              AVSS 1.25F P             CCN000000800000000000FY00000000020220201000000000NNM10 20211228082007    1W    00000080000001389000000000032DE    TVYEV-TV000000000000VT121059
BI00B32DE    TT2022         2022012018007704140              AVSS 1.25F W             CCN000000800000000000FY00000000020220201000000000NNM10 20211228082026    1W    00000080000001389000000000032DE    TVYEV-TV000000000000VT121060
BI00B32DE    TT2022         20220120180D0203930              AVSSH 0.5F B             CCN000010500000000000FY00000000020220201000000000NNM10 20211228082052    1W    00000150000000689000000000032DE    TVYEV-TV000000000000VT121029
BI00B32DE    TT2022         20220120180D0203941              AVSSH 0.5F GY            CCN000018000000000000FY00000000020220201000000000NNM10 20211228082106    1W    00000150000000689000000000032DE    TVYEV-TV000000000000VT121035
BI00B32DE    TT2022         20220120180D0203961              AVSSH 0.5F LG            CCN000018000000000000FY00000000020220201000000000NNM10 20211228082119    1W    00000150000000689000000000032DE    TVYEV-TV000000000000VT121038
BI00B32DE    TT2022         20220120180D0203940              AVSSH 0.5F W             CCN000021000000000000FY00000000020220201000000000NNM10 20211228082130    1W    00000150000000689000000000032DE    TVYEV-TV000000000000VT121044
BI00B32DE    TT2024         20220203180D0203949              AVSSH 0.5F W/L           CCN000003000000001500FN00000000020220201000001500NNM10 20211228083915    1W    00000150000000689000000000032DE    TVYEV-TV000000000000VT321059
BI00B32DE    TT2024         20220203180D0204030              AVSSH 0.75F B            CCN000001000000000000FY00000000020220201000000000NNM10 20211228083932    1W    00000100000000934000000000032DE    TVYEV-TV000000000000VT321065
BI00B32DE    TT2022         20220120180D0204080              AVSSH 0.75F BR           CCN000008000000003000FN00000000020220201000003000NNM10 20211228094909    1W    00000100000000934000000000032DE    TVYEV-TV000000000000VT121048
BI00B32DE    TT2024         20220203180D0204130              AVSSH 1.25F B            CCN000012800000000000FY00000000020220201000000000NNM10 20211228083943    1W    00000080000001458000000000032DE    TVYEV-TV000000000000VT321070
BI00B32DE    TT2023         20220127180D0204180              AVSSH 1.25F BR           CCN000010400000000000FY00000000020220201000000000NNM10 20211228082516    1W    00000080000001458000000000032DE    TVYEV-TV000000000000VT221066
BI00B32DE    TT2023         20220127180D0204149              AVSSH 1.25F W/L          CCN000001600000000000FY00000000020220201000000000NNM10 20211228082523    1W    00000080000001458000000000032DE    TVYEV-TV000000000000VT221070
BI00B32DE    @TT2024        20220203181E50003ZZ              AVSSCS-S 0.3FX2 DGY/BR   CCN000032550000000000FY00000000020220201000000000NNM10 20211228083829    1W    00000035000002165000000000032DE    TVYEV-TV000000000000VT321019
BI00B32DE    @TT2024        20220203181F21028ZZ              AVSSHCS-S 1.25FX2 B/R    CCN000002600000000000FY00000000020220201000000000NNM10 20211228084031    1W    00000020000004267300000000032DE    TVYEV-TV000000000000VT321030
BI00B32DE    TT202A         2022011318007704160              AVSS 1.25F G             CCN000000800000000800FN00000000020220201000000800NNE00 20211228084258    1W    00000080000001389000000000032DE    TVYEV-TV000000000000VX41C009
BI00B32D1    DFTW2212       2022012718000004534              AV 8 B/W                 CCN000005600000005600FN00000000020220301000005600NNE   20211228143522    1W    00000010000010466200000000032D1    TOYOT-K 000000000000KO221041
BI00B32D1    DFTW2212       2022012718000004535              AV 8 B/R                 CCN000003700000003700FN00000000020220301000003700NNE   20211228143522    1W    00000010000010466200000000032D1    TOYOT-K 000000000000KO221040
BI00B32D1    DFTW2212       2022012718000004540              AV 8 W                   CCN000008200000008200FN00000000020220301000008200NNE   20211228143522    1W    00000010000010466200000000032D1    TOYOT-K 000000000000KO221043
BI00B32D1    DFTW2212       2022012718000004543              AV 8 W/B                 CCN000009300000009300FN00000000020220301000009300NNE   20211228143522    1W    00000010000010466200000000032D1    TOYOT-K 000000000000KO221044
BI00B32D1    DFTW2212       2022012718000004550              AV 8 R                   CCN000001800000001800FN00000000020220301000001800NNE   20211228143522    1W    00000010000010466200000000032D1    TOYOT-K 000000000000KO221042
BI00B32D1    @DFTW2212      20220127181AD2002ZZ              CIVUSAS-S 0.35X2 B       CCN000012150000012150FN00000000020220301000012150NNE   20211228143520    1W    00000045000001713700000000032D1    TOYOT-K 000000000000KO221013
BI00B32D1    @DFTW2212      20220127181AD2003ZZ              CIVUSAS-S 0.35X3 B       CCN000004200000004200FN00000000020220301000004200NNE   20211228143520    1W    00000035000002172100000000032D1    TOYOT-K 000000000000KO221014
BI00B32D1    @DFTW2212      20220127181AD2004ZZ              CIVUSAS-S 0.35X4 B       CCN000019800000019800FN00000000020220301000019800NNE   20211228143520    1W    00000030000002799900000000032D1    TOYOT-K 000000000000KO221015
BI00B32D1    @DFTW2212      20220127181E48031ZZ              CAVSAS-S 0.3X2 GY        CCN000007350000007350FN00000000020220301000007350NNE   20211228143520    1W    00000035000002008700000000032D1    TOYOT-K 000000000000KO221016
BI00B32D1    @DFTW2212      20220127181E48037ZZ              CAVSAS-S 0.3X4 GY        CCN000007500000007500FN00000000020220301000007500NNE   20211228143520    1W    00000025000003262000000000032D1    TOYOT-K 000000000000KO221018
BI00B32D1    @DFTW2212      20220127181E48041ZZ              CAVSAS-S 0.3X2 GY/R      CCN000008750000008750FN00000000020220301000008750NNE   20211228143520    1W    00000035000002008700000000032D1    TOYOT-K 000000000000KO221017
BI00B32D1    @DFTW2212      20220127181E50002ZZ              AVSSCS-S 0.3FX2 DGY/G    CCN000004200000004200FN00000000020220301000004200NNE   20211228143520    1W    00000035000002165000000000032D1    TOYOT-K 000000000000KO221024
BI00B32D1    @DFTW2212      20220127181E50004ZZ              AVSSCS-S 0.5FX1 DGY      CCN000010000000010000FN00000000020220301000010000NNE   20211228143520    1W    00000040000001909700000000032D1    TOYOT-K 000000000000KO221019
BI00B32D1    @DFTW2212      20220127181E50005ZZ              AVSSCS-S 0.5FX1 DGY/W    CCN000003200000003200FN00000000020220301000003200NNE   20211228143520    1W    00000040000001909700000000032D1    TOYOT-K 000000000000KO221022
BI00B32D1    @DFTW2212      20220127181E50007ZZ              AVSSCS-S 0.5FX1 DGY/L    CCN000004000000004000FN00000000020220301000004000NNE   20211228143520    1W    00000040000001909700000000032D1    TOYOT-K 000000000000KO221020
BI00B32D1    @DFTW2212      20220127181E50014ZZ              AVSSCS-S 0.5FX1 DGY/R    CCN000000800000000800FN00000000020220301000000800NNE   20211228143520    1W    00000040000001909700000000032D1    TOYOT-K 000000000000KO221021
BI00B32D1    @DFTW2212      20220127181E50020ZZ              AVSSCS-S 0.3FX2 DGY/R    CCN000004200000004200FN00000000020220301000004200NNE   20211228143520    1W    00000035000002165000000000032D1    TOYOT-K 000000000000KO221026
BI00B32D1    @DFTW2212      20220127181E50021ZZ              AVSSCS-S 0.3FX2 DGY/P    CCN000005250000005250FN00000000020220301000005250NNE   20211228143520    1W    00000035000002165000000000032D1    TOYOT-K 000000000000KO221025
BI00B32D1    @DFTW2212      20220127181E50036ZZ              AVSSCS-S 0.3FX2 DGY      CCN000004900000004900FN00000000020220301000004900NNE   20211228143520    1W    00000035000002165000000000032D1    TOYOT-K 000000000000KO221023
BI00B32D2    DGTW2212       2022012718000004530              AV 8 B                   CCN000039400000039400FN00000000020220301000039400NNE   20211228143525    1W    00000010000010466200000000032D2    TGYOT-G 000000000000KR221037
BI00B32D2    DGTW2212       2022012718000004540              AV 8 W                   CCN000009900000009900FN00000000020220301000009900NNE   20211228143525    1W    00000010000010466200000000032D2    TGYOT-G 000000000000KR221039
BI00B32D2    DGTW2212       2022012718000004543              AV 8 W/B                 CCN000007000000007000FN00000000020220301000007000NNE   20211228143525    1W    00000010000010466200000000032D2    TGYOT-G 000000000000KR221040
BI00B32D2    DGTW2212       2022012718000004590              AV 8 L                   CCN000008400000008400FN00000000020220301000008400NNE   20211228143525    1W    00000010000010466200000000032D2    TGYOT-G 000000000000KR221038
BI00B32D2    @DGTW2212      20220127181AD2002ZZ              CIVUSAS-S 0.35X2 B       CCN000022950000022950FN00000000020220301000022950NNE   20211228143524    1W    00000045000001713700000000032D2    TGYOT-G 000000000000KR221012
BI00B32D2    @DGTW2212      20220127181AD2003ZZ              CIVUSAS-S 0.35X3 B       CCN000013650000013650FN00000000020220301000013650NNE   20211228143524    1W    00000035000002172100000000032D2    TGYOT-G 000000000000KR221013
BI00B32D2    @DGTW2212      20220127181AD2004ZZ              CIVUSAS-S 0.35X4 B       CCN000017400000017400FN00000000020220301000017400NNE   20211228143524    1W    00000030000002799900000000032D2    TGYOT-G 000000000000KR221014
BI00B32D2    @DGTW2212      20220127181E48037ZZ              CAVSAS-S 0.3X4 GY        CCN000005750000005750FN00000000020220301000005750NNE   20211228143524    1W    00000025000003262000000000032D2    TGYOT-G 000000000000KR221015
BI00B32D2    @DGTW2212      20220127181E50004ZZ              AVSSCS-S 0.5FX1 DGY      CCN000013600000013600FN00000000020220301000013600NNE   20211228143524    1W    00000040000001909700000000032D2    TGYOT-G 000000000000KR221016
BI00B32D2    @DGTW2212      20220127181E50005ZZ              AVSSCS-S 0.5FX1 DGY/W    CCN000007600000007600FN00000000020220301000007600NNE   20211228143524    1W    00000040000001909700000000032D2    TGYOT-G 000000000000KR221018
BI00B32D2    @DGTW2212      20220127181E50007ZZ              AVSSCS-S 0.5FX1 DGY/L    CCN000004000000004000FN00000000020220301000004000NNE   20211228143524    1W    00000040000001909700000000032D2    TGYOT-G 000000000000KR221017
BI00B32D2    @DGTW2212      20220127181E50016ZZ              AVSSCS-S 0.5FX2 DGY/R    CCN000003300000003300FN00000000020220301000003300NNE   20211228143524    1W    00000030000003096000000000032D2    TGYOT-G 000000000000KR221019
BI00B32D2    @DGTW2212      20220127181E50036ZZ              AVSSCS-S 0.3FX2 DGY      CCN000004550000004550FN00000000020220301000004550NNE   20211228143524    1W    00000035000002165000000000032D2    TGYOT-G 000000000000KR221020
BI00B32D2    @DGTW2212      20220127181F21014ZZ              AVSSHCS-S 0.5FX2 B/L     CCN000005700000005700FN00000000020220301000005700NNE   20211228143524    1W    00000030000002531400000000032D2    TGYOT-G 000000000000KR221022
BI00B32D2    @DGTW2212      20220127181F21016ZZ              AVSSHCS-S 0.5FX2 B/BR    CCN000002400000002400FN00000000020220301000002400NNE   20211228143524    1W    00000030000002531400000000032D2    TGYOT-G 000000000000KR221021
BI00B32D2    @DGTW2212      20220127181F21031ZZ              AVSSHCS-S 1.25FX2 B/P    CCN000002800000002800FN00000000020220301000002800NNE   20211228143524    1W    00000020000004267300000000032D2    TGYOT-G 000000000000KR221023
BI00B32M1    TV1094         20220106180D0203930              AVSSH 0.5F B             CCN000034500000034500FN00000000020210901000034500NNM28 20211228085348    1W    00000150000000689000000000032M1    VNYEV   000000000000VE318132
BI00B32M1    TV1094         20220106180D0203990              AVSSH 0.5F L             CCN000030000000030000FN00000000020210901000030000NNM28 20211228085348    1W    00000150000000689000000000032M1    VNYEV   000000000000VE318133
BI00B32M1    TV1093         20211118180D0203740              AVSSH 0.3F W             CCN000018000000000000FY00000000020210901000000000NNM10 20211228085517    1W    00000200000000515000000000032M1    VNYEV   000000000000VE218147
BI00B32M1    TV1094         20211118180D0203740              AVSSH 0.3F W             CCN000028000000000000FY00000000020210901000000000NNM10 20211228085143    1W    00000200000000515000000000032M1    VNYEV   000000000000VE318131
BI00A32M3    SM22022 MW     20211229180D0204030              AVSSH 0.75F B            CCN000002000000002000FN00000000020220201000002000NNM22 20211228142938    1W    00000100000000934000000000032M3    SASAMI  000000000000QM41C011
BI00A32M3    SM22023 MW     20211229180D0204030              AVSSH 0.75F B            CCN000001000000001000FN00000000020220201000001000NNM20 20211228142938    1W    00000100000000934000000000032M3    SASAMI  000000000000QM121007
BI00A32M3    SM22024 MW     20211229180D0204030              AVSSH 0.75F B            CCN000001000000001000FN00000000020220201000001000NNM20 20211228142938    1W    00000100000000934000000000032M3    SASAMI  000000000000QM221003
BI00A32M3    SM22022 MW     20220104180D0204061              AVSSH 0.75F LG           CCN000001000000001000FN00000000020220201000001000NNM20 20211228135957    1W    00000100000000934000000000032M3    SASAMI  000000000000QM41C015
BI00B32M3    SM2201BHMW     2022012018007704030              AVSS 0.75F B             CCN000004000000004000FN00000000020220101000004000NNE   20211228135706    1W    00000100000000943000000000032M3    SASAMI  000000000000QB121001
BI00B32M3    SM2201C MW     20220120180D0203770              AVSSH 0.3F Y             CCN000002000000002000FN00000000020220101000002000NNE   20211228135708    1W    00000200000000515000000000032M3    SASAMI  000000000000QC121001
BI00B32Q8    EW22031 MW     2022012618000004530              AV 8 B                   CCN000040700000040700FN00000000020220301000040700NNM   20211228141715    1W    00000010000010466200000000032Q8    EMEMI   000000000000MI221024
BI00B32Q8    EW22032 MW     2022020218000004530              AV 8 B                   CCN000027900000027900FN00000000020220301000027900NNM   20211228141715    1W    00000010000010466200000000032Q8    EMEMI   000000000000MI321028
BI00B32Q8    EW22033 MW     2022020918000004530              AV 8 B                   CCN000028000000028000FN00000000020220301000028000NNM   20211228141715    1W    00000010000010466200000000032Q8    EMEMI   000000000000MI421031
BI00B32Q8    EW22034 MW     2022021518000004530              AV 8 B                   CCN000025700000025700FN00000000020220301000025700NNM   20211228141715    1W    00000010000010466200000000032Q8    EMEMI   000000000000MI122032
BI00B32Q8    EW22032 MW     2022020218000004590              AV 8 L                   CCN000001100000001100FN00000000020220301000001100NNM   20211228141715    1W    00000010000010466200000000032Q8    EMEMI   000000000000MI321029
BI00B32Q8    EW22033 MW     2022020918000004590              AV 8 L                   CCN000006900000006900FN00000000020220301000006900NNM   20211228141715    1W    00000010000010466200000000032Q8    EMEMI   000000000000MI421032
BI00B32Q8    EW22034 MW     2022021518000004590              AV 8 L                   CCN000006200000006200FN00000000020220301000006200NNM   20211228141715    1W    00000010000010466200000000032Q8    EMEMI   000000000000MI122033
BI00B32Q8    EW22031 MW     2022012618000004540              AV 8 W                   CCN000011300000011300FN00000000020220301000011300NNM   20211228141715    1W    00000010000010466200000000032Q8    EMEMI   000000000000MI221025
BI00B32Q8    EW22032 MW     2022020218000004540              AV 8 W                   CCN000008600000008600FN00000000020220301000008600NNM   20211228141715    1W    00000010000010466200000000032Q8    EMEMI   000000000000MI321030
BI00B32Q8    EW22033 MW     2022020918000004540              AV 8 W                   CCN000008500000008500FN00000000020220301000008500NNM   20211228141715    1W    00000010000010466200000000032Q8    EMEMI   000000000000MI421033
BI00B32Q8    EW22034 MW     2022021518000004540              AV 8 W                   CCN000007400000007400FN00000000020220301000007400NNM   20211228141715    1W    00000010000010466200000000032Q8    EMEMI   000000000000MI122034
BI00B32Q8    EW22031 MW     2022012618009603950              AVS 0.5 R                CCN000001000000001000FN00000000020220301000001000NNM   20211228141715    1W    00000100000000850000000000032Q8    EMEMI   000000000000MI221026
BI00B32Q8    EW22031 MW     2022012618009603956              AVS 0.5 R/G              CCN000001000000001000FN00000000020220301000001000NNM   20211228141715    1W    00000100000000850000000000032Q8    EMEMI   000000000000MI221027
BI00B32Q8    EW22031 MW     2022012618009604430              AVS 5 B                  CCN000010400000010400FN00000000020220301000010400NNM   20211228141715    1W    00000020000005981000000000032Q8    EMEMI   000000000000MI221028
BI00B32Q8    EW22032 MW     2022020218009604430              AVS 5 B                  CCN000017600000017600FN00000000020220301000017600NNM   20211228141715    1W    00000020000005981000000000032Q8    EMEMI   000000000000MI321032
BI00B32Q8    EW22033 MW     2022020918009604430              AVS 5 B                  CCN000017600000017600FN00000000020220301000017600NNM   20211228141715    1W    00000020000005981000000000032Q8    EMEMI   000000000000MI421042
BI00B32Q8    EW22034 MW     2022021518009604430              AVS 5 B                  CCN000021400000021400FN00000000020220301000021400NNM   20211228141715    1W    00000020000005981000000000032Q8    EMEMI   000000000000MI122049
BI00B32Q8    EW22031 MW     2022012618009604460              AVS 5 G                  CCN000005400000005400FN00000000020220301000005400NNM   20211228141715    1W    00000020000005981000000000032Q8    EMEMI   000000000000MI221029
BI00B32Q8    EW22032 MW     2022020218009604460              AVS 5 G                  CCN000007000000007000FN00000000020220301000007000NNM   20211228141715    1W    00000020000005981000000000032Q8    EMEMI   000000000000MI321033
BI00B32Q8    EW22033 MW     2022020918009604460              AVS 5 G                  CCN000004400000004400FN00000000020220301000004400NNM   20211228141715    1W    00000020000005981000000000032Q8    EMEMI   000000000000MI421043
BI00B32Q8    EW22034 MW     2022021518009604460              AVS 5 G                  CCN000005400000005400FN00000000020220301000005400NNM   20211228141715    1W    00000020000005981000000000032Q8    EMEMI   000000000000MI122050
BI00B32Q8    EW22031 MW     2022012618009604450              AVS 5 R                  CCN000009400000009400FN00000000020220301000009400NNM   20211228141715    1W    00000020000005981000000000032Q8    EMEMI   000000000000MI221030
BI00B32Q8    EW22032 MW     2022020218009604450              AVS 5 R                  CCN000007600000007600FN00000000020220301000007600NNM   20211228141715    1W    00000020000005981000000000032Q8    EMEMI   000000000000MI321034
BI00B32Q8    EW22033 MW     2022020918009604450              AVS 5 R                  CCN000007600000007600FN00000000020220301000007600NNM   20211228141715    1W    00000020000005981000000000032Q8    EMEMI   000000000000MI421044
BI00B32Q8    EW22034 MW     2022021518009604450              AVS 5 R                  CCN000009000000009000FN00000000020220301000009000NNM   20211228141715    1W    00000020000005981000000000032Q8    EMEMI   000000000000MI122051
BI00B32Q8    EW22031 MW     2022012618009604440              AVS 5 W                  CCN000006400000006400FN00000000020220301000006400NNM   20211228141715    1W    00000020000005981000000000032Q8    EMEMI   000000000000MI221031
BI00B32Q8    EW22032 MW     2022020218009604440              AVS 5 W                  CCN000010200000010200FN00000000020220301000010200NNM   20211228141715    1W    00000020000005981000000000032Q8    EMEMI   000000000000MI321035
BI00B32Q8    EW22033 MW     2022020918009604440              AVS 5 W                  CCN000010000000010000FN00000000020220301000010000NNM   20211228141715    1W    00000020000005981000000000032Q8    EMEMI   000000000000MI421045
BI00B32Q8    EW22034 MW     2022021518009604440              AVS 5 W                  CCN000010400000010400FN00000000020220301000010400NNM   20211228141715    1W    00000020000005981000000000032Q8    EMEMI   000000000000MI122052
BI00B32Q8    EW22031 MW     2022012618009604443              AVS 5 W/B                CCN000009400000009400FN00000000020220301000009400NNM   20211228141715    1W    00000020000005981000000000032Q8    EMEMI   000000000000MI221032
BI00B32Q8    EW22032 MW     2022020218009604443              AVS 5 W/B                CCN000009400000009400FN00000000020220301000009400NNM   20211228141715    1W    00000020000005981000000000032Q8    EMEMI   000000000000MI321036
BI00B32Q8    EW22033 MW     2022020918009604443              AVS 5 W/B                CCN000006800000006800FN00000000020220301000006800NNM   20211228141715    1W    00000020000005981000000000032Q8    EMEMI   000000000000MI421046
BI00B32Q8    EW22034 MW     2022021518009604443              AVS 5 W/B                CCN000009200000009200FN00000000020220301000009200NNM   20211228141715    1W    00000020000005981000000000032Q8    EMEMI   000000000000MI122053
BI00B32Q8    EW22034 MW     2022021518007703730              AVSS 0.3F B              CCN000038000000038000FN00000000020220301000038000NNM   20211228141715    1W    00000200000000496000000000032Q8    EMEMI   000000000000MI122035
BI00B32Q8    EW22032 MW     2022020218007703760              AVSS 0.3F G              CCN000020000000020000FN00000000020220301000020000NNM   20211228141715    1W    00000200000000496000000000032Q8    EMEMI   000000000000MI321031
BI00B32Q8    EW22033 MW     2022020918007703760              AVSS 0.3F G              CCN000058000000058000FN00000000020220301000058000NNM   20211228141715    1W    00000200000000496000000000032Q8    EMEMI   000000000000MI421034
BI00B32Q8    EW22034 MW     2022021518007703760              AVSS 0.3F G              CCN000072000000072000FN00000000020220301000072000NNM   20211228141715    1W    00000200000000496000000000032Q8    EMEMI   000000000000MI122036
BI00B32Q8    EW22033 MW     2022020918007703752              AVSS 0.3F P              CCN000002000000002000FN00000000020220301000002000NNM   20211228141715    1W    00000200000000496000000000032Q8    EMEMI   000000000000MI421035
BI00B32Q8    EW22034 MW     2022021518007703752              AVSS 0.3F P              CCN000060000000060000FN00000000020220301000060000NNM   20211228141715    1W    00000200000000496000000000032Q8    EMEMI   000000000000MI122037
BI00B32Q8    EW22033 MW     2022020918007703750              AVSS 0.3F R              CCN000048000000048000FN00000000020220301000048000NNM   20211228141715    1W    00000200000000496000000000032Q8    EMEMI   000000000000MI421036
BI00B32Q8    EW22034 MW     2022021518007703750              AVSS 0.3F R              CCN000080000000080000FN00000000020220301000080000NNM   20211228141715    1W    00000200000000496000000000032Q8    EMEMI   000000000000MI122038
BI00B32Q8    EW22033 MW     2022020918007703792              AVSS 0.3F V              CCN000112000000112000FN00000000020220301000112000NNM   20211228141715    1W    00000200000000496000000000032Q8    EMEMI   000000000000MI421037
BI00B32Q8    EW22034 MW     2022021518007703792              AVSS 0.3F V              CCN000158000000158000FN00000000020220301000158000NNM   20211228141715    1W    00000200000000496000000000032Q8    EMEMI   000000000000MI122039
BI00B32Q8    EW22033 MW     2022020918007703930              AVSS 0.5F B              CCN000009000000009000FN00000000020220301000009000NNM   20211228141715    1W    00000150000000674000000000032Q8    EMEMI   000000000000MI421038
BI00B32Q8    EW22034 MW     2022021518007703930              AVSS 0.5F B              CCN000022500000022500FN00000000020220301000022500NNM   20211228141715    1W    00000150000000674000000000032Q8    EMEMI   000000000000MI122040
BI00B32Q8    EW22034 MW     2022021518007703941              AVSS 0.5F GY             CCN000004500000004500FN00000000020220301000004500NNM   20211228141715    1W    00000150000000674000000000032Q8    EMEMI   000000000000MI122041
BI00B32Q8    EW22033 MW     2022020918007703990              AVSS 0.5F L              CCN000003000000003000FN00000000020220301000003000NNM   20211228141715    1W    00000150000000674000000000032Q8    EMEMI   000000000000MI421039
BI00B32Q8    EW22034 MW     2022021518007703990              AVSS 0.5F L              CCN000022500000022500FN00000000020220301000022500NNM   20211228141715    1W    00000150000000674000000000032Q8    EMEMI   000000000000MI122042
BI00B32Q8    EW22033 MW     2022020918007704180              AVSS 1.25F BR            CCN000022400000022400FN00000000020220301000022400NNM   20211228141715    1W    00000080000001389000000000032Q8    EMEMI   000000000000MI421040
BI00B32Q8    EW22034 MW     2022021518007704180              AVSS 1.25F BR            CCN000043200000043200FN00000000020220301000043200NNM   20211228141715    1W    00000080000001389000000000032Q8    EMEMI   000000000000MI122043
BI00B32Q8    EW22033 MW     2022020918007704160              AVSS 1.25F G             CCN000013600000013600FN00000000020220301000013600NNM   20211228141715    1W    00000080000001389000000000032Q8    EMEMI   000000000000MI421041
BI00B32Q8    EW22034 MW     2022021518007704160              AVSS 1.25F G             CCN000042400000042400FN00000000020220301000042400NNM   20211228141715    1W    00000080000001389000000000032Q8    EMEMI   000000000000MI122044
BI00B32Q8    EW22034 MW     2022021518007704190              AVSS 1.25F L             CCN000040800000040800FN00000000020220301000040800NNM   20211228141715    1W    00000080000001389000000000032Q8    EMEMI   000000000000MI122045
BI00B32Q8    EW22034 MW     2022021518007704152              AVSS 1.25F P             CCN000027200000027200FN00000000020220301000027200NNM   20211228141715    1W    00000080000001389000000000032Q8    EMEMI   000000000000MI122046
BI00B32Q8    EW22034 MW     2022021518007704150              AVSS 1.25F R             CCN000024000000024000FN00000000020220301000024000NNM   20211228141715    1W    00000080000001389000000000032Q8    EMEMI   000000000000MI122047
BI00B32Q8    EW22034 MW     2022021518007704140              AVSS 1.25F W             CCN000079200000079200FN00000000020220301000079200NNM   20211228141715    1W    00000080000001389000000000032Q8    EMEMI   000000000000MI122048
BI00B32Q8    EW22034 MW     20220215180D0203730              AVSSH 0.3F B             CCN000006000000006000FN00000000020220301000006000NNM   20211228141715    1W    00000200000000515000000000032Q8    EMEMI   000000000000MI122009
BI00B32Q8    EW22031 MW     20220126180D0203780              AVSSH 0.3F BR            CCN000006000000006000FN00000000020220301000006000NNM   20211228141715    1W    00000200000000515000000000032Q8    EMEMI   000000000000MI221010
BI00B32Q8    EW22032 MW     20220202180D0203780              AVSSH 0.3F BR            CCN000006000000006000FN00000000020220301000006000NNM   20211228141715    1W    00000200000000515000000000032Q8    EMEMI   000000000000MI321012
BI00B32Q8    EW22033 MW     20220209180D0203780              AVSSH 0.3F BR            CCN000006000000006000FN00000000020220301000006000NNM   20211228141715    1W    00000200000000515000000000032Q8    EMEMI   000000000000MI421010
BI00B32Q8    EW22034 MW     20220215180D0203780              AVSSH 0.3F BR            CCN000008000000008000FN00000000020220301000008000NNM   20211228141715    1W    00000200000000515000000000032Q8    EMEMI   000000000000MI122010
BI00B32Q8    EW22034 MW     20220215180D0203790              AVSSH 0.3F L             CCN000004000000004000FN00000000020220301000004000NNM   20211228141715    1W    00000200000000515000000000032Q8    EMEMI   000000000000MI122011
BI00B32Q8    EW22033 MW     20220209180D0203740              AVSSH 0.3F W             CCN000020000000020000FN00000000020220301000020000NNM   20211228141715    1W    00000200000000515000000000032Q8    EMEMI   000000000000MI421011
BI00B32Q8    EW22034 MW     20220215180D0203740              AVSSH 0.3F W             CCN000096000000096000FN00000000020220301000096000NNM   20211228141715    1W    00000200000000515000000000032Q8    EMEMI   000000000000MI122012
BI00B32Q8    EW22031 MW     20220126180D0203743              AVSSH 0.3F W/B           CCN000018000000018000FN00000000020220301000018000NNM   20211228141715    1W    00000200000000515000000000032Q8    EMEMI   000000000000MI221011
BI00B32Q8    EW22032 MW     20220202180D0203743              AVSSH 0.3F W/B           CCN000014000000014000FN00000000020220301000014000NNM   20211228141715    1W    00000200000000515000000000032Q8    EMEMI   000000000000MI321013
BI00B32Q8    EW22033 MW     20220209180D0203743              AVSSH 0.3F W/B           CCN000014000000014000FN00000000020220301000014000NNM   20211228141715    1W    00000200000000515000000000032Q8    EMEMI   000000000000MI421012
BI00B32Q8    EW22034 MW     20220215180D0203743              AVSSH 0.3F W/B           CCN000016000000016000FN00000000020220301000016000NNM   20211228141715    1W    00000200000000515000000000032Q8    EMEMI   000000000000MI122013
BI00B32Q8    EW22031 MW     20220126180D0203930              AVSSH 0.5F B             CCN000051000000051000FN00000000020220301000051000NNM   20211228141715    1W    00000150000000689000000000032Q8    EMEMI   000000000000MI221012
BI00B32Q8    EW22032 MW     20220202180D0203930              AVSSH 0.5F B             CCN000051000000051000FN00000000020220301000051000NNM   20211228141715    1W    00000150000000689000000000032Q8    EMEMI   000000000000MI321014
BI00B32Q8    EW22033 MW     20220209180D0203930              AVSSH 0.5F B             CCN000043500000043500FN00000000020220301000043500NNM   20211228141715    1W    00000150000000689000000000032Q8    EMEMI   000000000000MI421013
BI00B32Q8    EW22034 MW     20220215180D0203930              AVSSH 0.5F B             CCN000051000000051000FN00000000020220301000051000NNM   20211228141715    1W    00000150000000689000000000032Q8    EMEMI   000000000000MI122014
BI00B32Q8    EW22031 MW     20220126180D0203937              AVSSH 0.5F B/Y           CCN000003000000003000FN00000000020220301000003000NNM   20211228141715    1W    00000150000000689000000000032Q8    EMEMI   000000000000MI221013
BI00B32Q8    EW22032 MW     20220202180D0203937              AVSSH 0.5F B/Y           CCN000003000000003000FN00000000020220301000003000NNM   20211228141715    1W    00000150000000689000000000032Q8    EMEMI   000000000000MI321015
BI00B32Q8    EW22031 MW     20220126180D0203980              AVSSH 0.5F BR            CCN000019500000019500FN00000000020220301000019500NNM   20211228141715    1W    00000150000000689000000000032Q8    EMEMI   000000000000MI221014
BI00B32Q8    EW22032 MW     20220202180D0203980              AVSSH 0.5F BR            CCN000021000000021000FN00000000020220301000021000NNM   20211228141715    1W    00000150000000689000000000032Q8    EMEMI   000000000000MI321016
BI00B32Q8    EW22033 MW     20220209180D0203980              AVSSH 0.5F BR            CCN000019500000019500FN00000000020220301000019500NNM   20211228141715    1W    00000150000000689000000000032Q8    EMEMI   000000000000MI421014
BI00B32Q8    EW22034 MW     20220215180D0203980              AVSSH 0.5F BR            CCN000025500000025500FN00000000020220301000025500NNM   20211228141715    1W    00000150000000689000000000032Q8    EMEMI   000000000000MI122015
BI00B32Q8    EW22031 MW     20220126180D0203960              AVSSH 0.5F G             CCN000003000000003000FN00000000020220301000003000NNM   20211228141715    1W    00000150000000689000000000032Q8    EMEMI   000000000000MI221015
BI00B32Q8    EW22032 MW     20220202180D0203960              AVSSH 0.5F G             CCN000001500000001500FN00000000020220301000001500NNM   20211228141715    1W    00000150000000689000000000032Q8    EMEMI   000000000000MI321017
BI00B32Q8    EW22033 MW     20220209180D0203960              AVSSH 0.5F G             CCN000001500000001500FN00000000020220301000001500NNM   20211228141715    1W    00000150000000689000000000032Q8    EMEMI   000000000000MI421015
BI00B32Q8    EW22034 MW     20220215180D0203960              AVSSH 0.5F G             CCN000001500000001500FN00000000020220301000001500NNM   20211228141715    1W    00000150000000689000000000032Q8    EMEMI   000000000000MI122016
BI00B32Q8    EW22033 MW     20220209180D0203990              AVSSH 0.5F L             CCN000069000000069000FN00000000020220301000069000NNM   20211228141715    1W    00000150000000689000000000032Q8    EMEMI   000000000000MI421016
BI00B32Q8    EW22034 MW     20220215180D0203990              AVSSH 0.5F L             CCN000090000000090000FN00000000020220301000090000NNM   20211228141715    1W    00000150000000689000000000032Q8    EMEMI   000000000000MI122017
BI00B32Q8    EW22031 MW     20220126180D0203961              AVSSH 0.5F LG            CCN000003000000003000FN00000000020220301000003000NNM   20211228141715    1W    00000150000000689000000000032Q8    EMEMI   000000000000MI221016
BI00B32Q8    EW22032 MW     20220202180D0203961              AVSSH 0.5F LG            CCN000001500000001500FN00000000020220301000001500NNM   20211228141715    1W    00000150000000689000000000032Q8    EMEMI   000000000000MI321018
BI00B32Q8    EW22033 MW     20220209180D0203961              AVSSH 0.5F LG            CCN000001500000001500FN00000000020220301000001500NNM   20211228141715    1W    00000150000000689000000000032Q8    EMEMI   000000000000MI421017
BI00B32Q8    EW22034 MW     20220215180D0203961              AVSSH 0.5F LG            CCN000001500000001500FN00000000020220301000001500NNM   20211228141715    1W    00000150000000689000000000032Q8    EMEMI   000000000000MI122018
BI00B32Q8    EW22031 MW     20220126180D0203952              AVSSH 0.5F P             CCN000001500000001500FN00000000020220301000001500NNM   20211228141715    1W    00000150000000689000000000032Q8    EMEMI   000000000000MI221017
BI00B32Q8    EW22032 MW     20220202180D0203952              AVSSH 0.5F P             CCN000015000000015000FN00000000020220301000015000NNM   20211228141715    1W    00000150000000689000000000032Q8    EMEMI   000000000000MI321019
BI00B32Q8    EW22033 MW     20220209180D0203952              AVSSH 0.5F P             CCN000015000000015000FN00000000020220301000015000NNM   20211228141715    1W    00000150000000689000000000032Q8    EMEMI   000000000000MI421018
BI00B32Q8    EW22034 MW     20220215180D0203952              AVSSH 0.5F P             CCN000018000000018000FN00000000020220301000018000NNM   20211228141715    1W    00000150000000689000000000032Q8    EMEMI   000000000000MI122019
BI00B32Q8    EW22031 MW     20220126180D0203950              AVSSH 0.5F R             CCN000015000000015000FN00000000020220301000015000NNM   20211228141715    1W    00000150000000689000000000032Q8    EMEMI   000000000000MI221018
BI00B32Q8    EW22032 MW     20220202180D0203950              AVSSH 0.5F R             CCN000007500000007500FN00000000020220301000007500NNM   20211228141715    1W    00000150000000689000000000032Q8    EMEMI   000000000000MI321020
BI00B32Q8    EW22033 MW     20220209180D0203950              AVSSH 0.5F R             CCN000019500000019500FN00000000020220301000019500NNM   20211228141715    1W    00000150000000689000000000032Q8    EMEMI   000000000000MI421019
BI00B32Q8    EW22034 MW     20220215180D0203950              AVSSH 0.5F R             CCN000022500000022500FN00000000020220301000022500NNM   20211228141715    1W    00000150000000689000000000032Q8    EMEMI   000000000000MI122020
BI00B32Q8    EW22031 MW     20220126180D0203992              AVSSH 0.5F V             CCN000015000000015000FN00000000020220301000015000NNM   20211228141715    1W    00000150000000689000000000032Q8    EMEMI   000000000000MI221019
BI00B32Q8    EW22032 MW     20220202180D0203992              AVSSH 0.5F V             CCN000021000000021000FN00000000020220301000021000NNM   20211228141715    1W    00000150000000689000000000032Q8    EMEMI   000000000000MI321021
BI00B32Q8    EW22033 MW     20220209180D0203992              AVSSH 0.5F V             CCN000019500000019500FN00000000020220301000019500NNM   20211228141715    1W    00000150000000689000000000032Q8    EMEMI   000000000000MI421020
BI00B32Q8    EW22034 MW     20220215180D0203992              AVSSH 0.5F V             CCN000022500000022500FN00000000020220301000022500NNM   20211228141715    1W    00000150000000689000000000032Q8    EMEMI   000000000000MI122021
BI00B32Q8    EW22033 MW     20220209180D0203940              AVSSH 0.5F W             CCN000004500000004500FN00000000020220301000004500NNM   20211228141715    1W    00000150000000689000000000032Q8    EMEMI   000000000000MI421021
BI00B32Q8    EW22034 MW     20220215180D0203940              AVSSH 0.5F W             CCN000030000000030000FN00000000020220301000030000NNM   20211228141715    1W    00000150000000689000000000032Q8    EMEMI   000000000000MI122022
BI00B32Q8    EW22031 MW     20220126180D0203943              AVSSH 0.5F W/B           CCN000025500000025500FN00000000020220301000025500NNM   20211228141715    1W    00000150000000689000000000032Q8    EMEMI   000000000000MI221020
BI00B32Q8    EW22032 MW     20220202180D0203943              AVSSH 0.5F W/B           CCN000025500000025500FN00000000020220301000025500NNM   20211228141715    1W    00000150000000689000000000032Q8    EMEMI   000000000000MI321022
BI00B32Q8    EW22033 MW     20220209180D0203943              AVSSH 0.5F W/B           CCN000027000000027000FN00000000020220301000027000NNM   20211228141715    1W    00000150000000689000000000032Q8    EMEMI   000000000000MI421022
BI00B32Q8    EW22034 MW     20220215180D0203943              AVSSH 0.5F W/B           CCN000031500000031500FN00000000020220301000031500NNM   20211228141715    1W    00000150000000689000000000032Q8    EMEMI   000000000000MI122023
BI00B32Q8    EW22031 MW     20220126180D0203970              AVSSH 0.5F Y             CCN000004500000004500FN00000000020220301000004500NNM   20211228141715    1W    00000150000000689000000000032Q8    EMEMI   000000000000MI221021
BI00B32Q8    EW22032 MW     20220202180D0203970              AVSSH 0.5F Y             CCN000006000000006000FN00000000020220301000006000NNM   20211228141715    1W    00000150000000689000000000032Q8    EMEMI   000000000000MI321023
BI00B32Q8    EW22033 MW     20220209180D0203970              AVSSH 0.5F Y             CCN000004500000004500FN00000000020220301000004500NNM   20211228141715    1W    00000150000000689000000000032Q8    EMEMI   000000000000MI421023
BI00B32Q8    EW22034 MW     20220215180D0203970              AVSSH 0.5F Y             CCN000006000000006000FN00000000020220301000006000NNM   20211228141715    1W    00000150000000689000000000032Q8    EMEMI   000000000000MI122024
BI00B32Q8    EW22032 MW     20220202180D0204030              AVSSH 0.75F B            CCN000006000000006000FN00000000020220301000006000NNM   20211228141715    1W    00000100000000934000000000032Q8    EMEMI   000000000000MI321024
BI00B32Q8    EW22033 MW     20220209180D0204030              AVSSH 0.75F B            CCN000008000000008000FN00000000020220301000008000NNM   20211228141715    1W    00000100000000934000000000032Q8    EMEMI   000000000000MI421024
BI00B32Q8    EW22034 MW     20220215180D0204030              AVSSH 0.75F B            CCN000011000000011000FN00000000020220301000011000NNM   20211228141715    1W    00000100000000934000000000032Q8    EMEMI   000000000000MI122025
BI00B32Q8    EW22033 MW     20220209180D0204130              AVSSH 1.25F B            CCN000031200000031200FN00000000020220301000031200NNM   20211228141715    1W    00000080000001458000000000032Q8    EMEMI   000000000000MI421025
BI00B32Q8    EW22034 MW     20220215180D0204130              AVSSH 1.25F B            CCN000038400000038400FN00000000020220301000038400NNM   20211228141715    1W    00000080000001458000000000032Q8    EMEMI   000000000000MI122026
BI00B32Q8    EW22032 MW     20220202180D0204180              AVSSH 1.25F BR           CCN000008000000008000FN00000000020220301000008000NNM   20211228141715    1W    00000080000001458000000000032Q8    EMEMI   000000000000MI321025
BI00B32Q8    EW22033 MW     20220209180D0204180              AVSSH 1.25F BR           CCN000007200000007200FN00000000020220301000007200NNM   20211228141715    1W    00000080000001458000000000032Q8    EMEMI   000000000000MI421026
BI00B32Q8    EW22034 MW     20220215180D0204180              AVSSH 1.25F BR           CCN000008800000008800FN00000000020220301000008800NNM   20211228141715    1W    00000080000001458000000000032Q8    EMEMI   000000000000MI122027
BI00B32Q8    EW22033 MW     20220209180D0204160              AVSSH 1.25F G            CCN000058400000058400FN00000000020220301000058400NNM   20211228141715    1W    00000080000001458000000000032Q8    EMEMI   000000000000MI421027
BI00B32Q8    EW22034 MW     20220215180D0204160              AVSSH 1.25F G            CCN000119200000119200FN00000000020220301000119200NNM   20211228141715    1W    00000080000001458000000000032Q8    EMEMI   000000000000MI122028
BI00B32Q8    EW22033 MW     20220209180D0204190              AVSSH 1.25F L            CCN000046400000046400FN00000000020220301000046400NNM   20211228141715    1W    00000080000001458000000000032Q8    EMEMI   000000000000MI421028
BI00B32Q8    EW22034 MW     20220215180D0204190              AVSSH 1.25F L            CCN000069600000069600FN00000000020220301000069600NNM   20211228141715    1W    00000080000001458000000000032Q8    EMEMI   000000000000MI122029
BI00B32Q8    EW22031 MW     20220126180D0204140              AVSSH 1.25F W            CCN000005600000005600FN00000000020220301000005600NNM   20211228141715    1W    00000080000001458000000000032Q8    EMEMI   000000000000MI221022
BI00B32Q8    EW22032 MW     20220202180D0204140              AVSSH 1.25F W            CCN000030400000030400FN00000000020220301000030400NNM   20211228141715    1W    00000080000001458000000000032Q8    EMEMI   000000000000MI321026
BI00B32Q8    EW22033 MW     20220209180D0204140              AVSSH 1.25F W            CCN000029600000029600FN00000000020220301000029600NNM   20211228141715    1W    00000080000001458000000000032Q8    EMEMI   000000000000MI421029
BI00B32Q8    EW22034 MW     20220215180D0204140              AVSSH 1.25F W            CCN000038400000038400FN00000000020220301000038400NNM   20211228141715    1W    00000080000001458000000000032Q8    EMEMI   000000000000MI122030
BI00B32Q8    EW22031 MW     20220126180D0204170              AVSSH 1.25F Y            CCN000004000000004000FN00000000020220301000004000NNM   20211228141715    1W    00000080000001458000000000032Q8    EMEMI   000000000000MI221023
BI00B32Q8    EW22032 MW     20220202180D0204170              AVSSH 1.25F Y            CCN000004000000004000FN00000000020220301000004000NNM   20211228141715    1W    00000080000001458000000000032Q8    EMEMI   000000000000MI321027
BI00B32Q8    EW22033 MW     20220209180D0204170              AVSSH 1.25F Y            CCN000003200000003200FN00000000020220301000003200NNM   20211228141715    1W    00000080000001458000000000032Q8    EMEMI   000000000000MI421030
BI00B32Q8    EW22034 MW     20220215180D0204170              AVSSH 1.25F Y            CCN000004800000004800FN00000000020220301000004800NNM   20211228141715    1W    00000080000001458000000000032Q8    EMEMI   000000000000MI122031
BI00B32Q8    EW22031 MW     202201261801R704130              CIVUS 1.25 B             CCN000203000000203000FN00000000020220301000203000NNM   20211228141715    1W    00000100000001228000000000032Q8    EMEMI   000000000000MI221033
BI00B32Q8    EW22032 MW     202202021801R704130              CIVUS 1.25 B             CCN000081000000081000FN00000000020220301000081000NNM   20211228141715    1W    00000100000001228000000000032Q8    EMEMI   000000000000MI321037
BI00B32Q8    EW22033 MW     202202091801R704130              CIVUS 1.25 B             CCN000082000000082000FN00000000020220301000082000NNM   20211228141715    1W    00000100000001228000000000032Q8    EMEMI   000000000000MI421047
BI00B32Q8    EW22034 MW     202202151801R704130              CIVUS 1.25 B             CCN000083000000083000FN00000000020220301000083000NNM   20211228141715    1W    00000100000001228000000000032Q8    EMEMI   000000000000MI122054
BI00B32Q8    EW22031 MW     202201261801R70415U              CIVUS 1.25 BE            CCN000002000000002000FN00000000020220301000002000NNM   20211228141715    1W    00000100000001228000000000032Q8    EMEMI   000000000000MI221034
BI00B32Q8    EW22032 MW     202202021801R70415U              CIVUS 1.25 BE            CCN000001000000001000FN00000000020220301000001000NNM   20211228141715    1W    00000100000001228000000000032Q8    EMEMI   000000000000MI321038
BI00B32Q8    EW22033 MW     202202091801R70415U              CIVUS 1.25 BE            CCN000001000000001000FN00000000020220301000001000NNM   20211228141715    1W    00000100000001228000000000032Q8    EMEMI   000000000000MI421048
BI00B32Q8    EW22032 MW     202202021801R704180              CIVUS 1.25 BR            CCN000015000000015000FN00000000020220301000015000NNM   20211228141715    1W    00000100000001228000000000032Q8    EMEMI   000000000000MI321039
BI00B32Q8    EW22033 MW     202202091801R704180              CIVUS 1.25 BR            CCN000021000000021000FN00000000020220301000021000NNM   20211228141715    1W    00000100000001228000000000032Q8    EMEMI   000000000000MI421049
BI00B32Q8    EW22034 MW     202202151801R704180              CIVUS 1.25 BR            CCN000023000000023000FN00000000020220301000023000NNM   20211228141715    1W    00000100000001228000000000032Q8    EMEMI   000000000000MI122055
BI00B32Q8    EW22032 MW     202202021801R704160              CIVUS 1.25 G             CCN000008000000008000FN00000000020220301000008000NNM   20211228141715    1W    00000100000001228000000000032Q8    EMEMI   000000000000MI321040
BI00B32Q8    EW22033 MW     202202091801R704160              CIVUS 1.25 G             CCN000012000000012000FN00000000020220301000012000NNM   20211228141715    1W    00000100000001228000000000032Q8    EMEMI   000000000000MI421050
BI00B32Q8    EW22034 MW     202202151801R704160              CIVUS 1.25 G             CCN000013000000013000FN00000000020220301000013000NNM   20211228141715    1W    00000100000001228000000000032Q8    EMEMI   000000000000MI122056
BI00B32Q8    EW22031 MW     202201261801R704190              CIVUS 1.25 L             CCN000009000000009000FN00000000020220301000009000NNM   20211228141715    1W    00000100000001228000000000032Q8    EMEMI   000000000000MI221035
BI00B32Q8    EW22032 MW     202202021801R704190              CIVUS 1.25 L             CCN000011000000011000FN00000000020220301000011000NNM   20211228141715    1W    00000100000001228000000000032Q8    EMEMI   000000000000MI321041
BI00B32Q8    EW22033 MW     202202091801R704190              CIVUS 1.25 L             CCN000012000000012000FN00000000020220301000012000NNM   20211228141715    1W    00000100000001228000000000032Q8    EMEMI   000000000000MI421051
BI00B32Q8    EW22034 MW     202202151801R704190              CIVUS 1.25 L             CCN000015000000015000FN00000000020220301000015000NNM   20211228141715    1W    00000100000001228000000000032Q8    EMEMI   000000000000MI122057
BI00B32Q8    EW22031 MW     202201261801R704161              CIVUS 1.25 LG            CCN000007000000007000FN00000000020220301000007000NNM   20211228141715    1W    00000100000001228000000000032Q8    EMEMI   000000000000MI221036
BI00B32Q8    EW22032 MW     202202021801R704161              CIVUS 1.25 LG            CCN000013000000013000FN00000000020220301000013000NNM   20211228141715    1W    00000100000001228000000000032Q8    EMEMI   000000000000MI321042
BI00B32Q8    EW22033 MW     202202091801R704161              CIVUS 1.25 LG            CCN000012000000012000FN00000000020220301000012000NNM   20211228141715    1W    00000100000001228000000000032Q8    EMEMI   000000000000MI421052
BI00B32Q8    EW22034 MW     202202151801R704161              CIVUS 1.25 LG            CCN000014000000014000FN00000000020220301000014000NNM   20211228141715    1W    00000100000001228000000000032Q8    EMEMI   000000000000MI122058
BI00B32Q8    EW22031 MW     202201261801R704152              CIVUS 1.25 P             CCN000020000000020000FN00000000020220301000020000NNM   20211228141715    1W    00000100000001228000000000032Q8    EMEMI   000000000000MI221037
BI00B32Q8    EW22032 MW     202202021801R704152              CIVUS 1.25 P             CCN000020000000020000FN00000000020220301000020000NNM   20211228141715    1W    00000100000001228000000000032Q8    EMEMI   000000000000MI321043
BI00B32Q8    EW22033 MW     202202091801R704152              CIVUS 1.25 P             CCN000012000000012000FN00000000020220301000012000NNM   20211228141715    1W    00000100000001228000000000032Q8    EMEMI   000000000000MI421053
BI00B32Q8    EW22034 MW     202202151801R704152              CIVUS 1.25 P             CCN000015000000015000FN00000000020220301000015000NNM   20211228141715    1W    00000100000001228000000000032Q8    EMEMI   000000000000MI122059
BI00B32Q8    EW22031 MW     202201261801R704150              CIVUS 1.25 R             CCN000059000000059000FN00000000020220301000059000NNM   20211228141715    1W    00000100000001228000000000032Q8    EMEMI   000000000000MI221038
BI00B32Q8    EW22032 MW     202202021801R704150              CIVUS 1.25 R             CCN000042000000042000FN00000000020220301000042000NNM   20211228141715    1W    00000100000001228000000000032Q8    EMEMI   000000000000MI321044
BI00B32Q8    EW22033 MW     202202091801R704150              CIVUS 1.25 R             CCN000042000000042000FN00000000020220301000042000NNM   20211228141715    1W    00000100000001228000000000032Q8    EMEMI   000000000000MI421054
BI00B32Q8    EW22034 MW     202202151801R704150              CIVUS 1.25 R             CCN000047000000047000FN00000000020220301000047000NNM   20211228141715    1W    00000100000001228000000000032Q8    EMEMI   000000000000MI122060
BI00B32Q8    EW22034 MW     202202151801R704192              CIVUS 1.25 V             CCN000015000000015000FN00000000020220301000015000NNM   20211228141715    1W    00000100000001228000000000032Q8    EMEMI   000000000000MI122061
BI00B32Q8    EW22031 MW     202201261801R704140              CIVUS 1.25 W             CCN000039000000039000FN00000000020220301000039000NNM   20211228141715    1W    00000100000001228000000000032Q8    EMEMI   000000000000MI221039
BI00B32Q8    EW22032 MW     202202021801R704140              CIVUS 1.25 W             CCN000035000000035000FN00000000020220301000035000NNM   20211228141715    1W    00000100000001228000000000032Q8    EMEMI   000000000000MI321045
BI00B32Q8    EW22033 MW     202202091801R704140              CIVUS 1.25 W             CCN000035000000035000FN00000000020220301000035000NNM   20211228141715    1W    00000100000001228000000000032Q8    EMEMI   000000000000MI421055
BI00B32Q8    EW22034 MW     202202151801R704140              CIVUS 1.25 W             CCN000037000000037000FN00000000020220301000037000NNM   20211228141715    1W    00000100000001228000000000032Q8    EMEMI   000000000000MI122062
BI00B32Q8    EW22031 MW     202201261801R704170              CIVUS 1.25 Y             CCN000032000000032000FN00000000020220301000032000NNM   20211228141715    1W    00000100000001228000000000032Q8    EMEMI   000000000000MI221040
BI00B32Q8    EW22032 MW     202202021801R704170              CIVUS 1.25 Y             CCN000030000000030000FN00000000020220301000030000NNM   20211228141715    1W    00000100000001228000000000032Q8    EMEMI   000000000000MI321046
BI00B32Q8    EW22033 MW     202202091801R704170              CIVUS 1.25 Y             CCN000030000000030000FN00000000020220301000030000NNM   20211228141715    1W    00000100000001228000000000032Q8    EMEMI   000000000000MI421056
BI00B32Q8    EW22034 MW     202202151801R704170              CIVUS 1.25 Y             CCN000034000000034000FN00000000020220301000034000NNM   20211228141715    1W    00000100000001228000000000032Q8    EMEMI   000000000000MI122063
BI00B32Q8    @EW22031 MW    20220126181D6903930              AVSSHCS 0.5FX1 B         CCN000002800000002800FN00000000020220301000002800NNM   20211228141709    1W    00000040000002285000000000032Q8    EMEMI   000000000000MI221001
BI00B32Q8    @EW22032 MW    20220202181D6903930              AVSSHCS 0.5FX1 B         CCN000001200000001200FN00000000020220301000001200NNM   20211228141709    1W    00000040000002285000000000032Q8    EMEMI   000000000000MI321001
BI00B32Q8    @EW22033 MW    20220209181D6903930              AVSSHCS 0.5FX1 B         CCN000001200000001200FN00000000020220301000001200NNM   20211228141709    1W    00000040000002285000000000032Q8    EMEMI   000000000000MI421001
BI00B32Q8    @EW22034 MW    20220215181D6903930              AVSSHCS 0.5FX1 B         CCN000000800000000800FN00000000020220301000000800NNM   20211228141709    1W    00000040000002285000000000032Q8    EMEMI   000000000000MI122001
BI00B32Q8    @EW22031 MW    20220126181D6903934              AVSSHCS 0.5FX1 B/W       CCN000003600000003600FN00000000020220301000003600NNM   20211228141709    1W    00000040000002285000000000032Q8    EMEMI   000000000000MI221002
BI00B32Q8    @EW22032 MW    20220202181D6903934              AVSSHCS 0.5FX1 B/W       CCN000002400000002400FN00000000020220301000002400NNM   20211228141709    1W    00000040000002285000000000032Q8    EMEMI   000000000000MI321002
BI00B32Q8    @EW22033 MW    20220209181D6903934              AVSSHCS 0.5FX1 B/W       CCN000002400000002400FN00000000020220301000002400NNM   20211228141709    1W    00000040000002285000000000032Q8    EMEMI   000000000000MI421002
BI00B32Q8    @EW22034 MW    20220215181D6903934              AVSSHCS 0.5FX1 B/W       CCN000001200000001200FN00000000020220301000001200NNM   20211228141709    1W    00000040000002285000000000032Q8    EMEMI   000000000000MI122002
BI00B32Q8    @EW22031 MW    20220126181D6910230              AVSSHCS 0.5FX2 B         CCN000004800000004800FN00000000020220301000004800NNM   20211228141709    1W    00000030000002385000000000032Q8    EMEMI   000000000000MI221003
BI00B32Q8    @EW22032 MW    20220202181D6910230              AVSSHCS 0.5FX2 B         CCN000008700000008700FN00000000020220301000008700NNM   20211228141709    1W    00000030000002385000000000032Q8    EMEMI   000000000000MI321003
BI00B32Q8    @EW22031 MW    20220126181D6910235              AVSSHCS 0.5FX2 B/R       CCN000002400000002400FN00000000020220301000002400NNM   20211228141709    1W    00000030000002385000000000032Q8    EMEMI   000000000000MI221004
BI00B32Q8    @EW22032 MW    20220202181D6910235              AVSSHCS 0.5FX2 B/R       CCN000002400000002400FN00000000020220301000002400NNM   20211228141709    1W    00000030000002385000000000032Q8    EMEMI   000000000000MI321004
BI00B32Q8    @EW22033 MW    20220209181D6910235              AVSSHCS 0.5FX2 B/R       CCN000002100000002100FN00000000020220301000002100NNM   20211228141709    1W    00000030000002385000000000032Q8    EMEMI   000000000000MI421003
BI00B32Q8    @EW22034 MW    20220215181D6910235              AVSSHCS 0.5FX2 B/R       CCN000001500000001500FN00000000020220301000001500NNM   20211228141709    1W    00000030000002385000000000032Q8    EMEMI   000000000000MI122003
BI00B32Q8    @EW22032 MW    20220202181D6910237              AVSSHCS 0.5FX2 B/Y       CCN000000900000000900FN00000000020220301000000900NNM   20211228141709    1W    00000030000002385000000000032Q8    EMEMI   000000000000MI321005
BI00B32Q8    @EW22033 MW    20220209181D6910237              AVSSHCS 0.5FX2 B/Y       CCN000001200000001200FN00000000020220301000001200NNM   20211228141709    1W    00000030000002385000000000032Q8    EMEMI   000000000000MI421004
BI00B32Q8    @EW22034 MW    20220215181D6910237              AVSSHCS 0.5FX2 B/Y       CCN000001200000001200FN00000000020220301000001200NNM   20211228141709    1W    00000030000002385000000000032Q8    EMEMI   000000000000MI122004
BI00B32Q8    @EW22032 MW    20220202181F21009ZZ              AVSSHCS-S 0.5FX2 B       CCN000006000000006000FN00000000020220301000006000NNM   20211228141709    1W    00000030000002531400000000032Q8    EMEMI   000000000000MI321011
BI00B32Q8    @EW22033 MW    20220209181F21009ZZ              AVSSHCS-S 0.5FX2 B       CCN000007200000007200FN00000000020220301000007200NNM   20211228141709    1W    00000030000002531400000000032Q8    EMEMI   000000000000MI421009
BI00B32Q8    @EW22034 MW    20220215181F21009ZZ              AVSSHCS-S 0.5FX2 B       CCN000008400000008400FN00000000020220301000008400NNM   20211228141709    1W    00000030000002531400000000032Q8    EMEMI   000000000000MI122008
BI00B32Q8    @EW22032 MW    20220202181E48018ZZ              CAVSAS-S 0.5X2 GY/SB     CCN000000600000000600FN00000000020220301000000600NNM   20211228141709    1W    00000030000002561000000000032Q8    EMEMI   000000000000MI321008
BI00B32Q8    @EW22033 MW    20220209181E48018ZZ              CAVSAS-S 0.5X2 GY/SB     CCN000001200000001200FN00000000020220301000001200NNM   20211228141709    1W    00000030000002561000000000032Q8    EMEMI   000000000000MI421007
BI00B32Q8    @EW22034 MW    20220215181E48018ZZ              CAVSAS-S 0.5X2 GY/SB     CCN000002400000002400FN00000000020220301000002400NNM   20211228141709    1W    00000030000002561000000000032Q8    EMEMI   000000000000MI122006
BI00B32Q8    @EW22031 MW    20220126181E48022ZZ              CAVSAS-S 0.5X2 GY        CCN000002100000002100FN00000000020220301000002100NNM   20211228141709    1W    00000030000002561000000000032Q8    EMEMI   000000000000MI221005
BI00B32Q8    @EW22032 MW    20220202181E48022ZZ              CAVSAS-S 0.5X2 GY        CCN000002100000002100FN00000000020220301000002100NNM   20211228141709    1W    00000030000002561000000000032Q8    EMEMI   000000000000MI321006
BI00B32Q8    @EW22033 MW    20220209181E48022ZZ              CAVSAS-S 0.5X2 GY        CCN000003600000003600FN00000000020220301000003600NNM   20211228141709    1W    00000030000002561000000000032Q8    EMEMI   000000000000MI421005
BI00B32Q8    @EW22031 MW    20220126181E48027ZZ              CAVSAS-S 0.5X2 GY/P      CCN000002400000002400FN00000000020220301000002400NNM   20211228141709    1W    00000030000002561000000000032Q8    EMEMI   000000000000MI221007
BI00B32Q8    @EW22032 MW    20220202181E48027ZZ              CAVSAS-S 0.5X2 GY/P      CCN000001200000001200FN00000000020220301000001200NNM   20211228141709    1W    00000030000002561000000000032Q8    EMEMI   000000000000MI321007
BI00B32Q8    @EW22033 MW    20220209181E48027ZZ              CAVSAS-S 0.5X2 GY/P      CCN000001200000001200FN00000000020220301000001200NNM   20211228141709    1W    00000030000002561000000000032Q8    EMEMI   000000000000MI421006
BI00B32Q8    @EW22034 MW    20220215181E48027ZZ              CAVSAS-S 0.5X2 GY/P      CCN000002400000002400FN00000000020220301000002400NNM   20211228141709    1W    00000030000002561000000000032Q8    EMEMI   000000000000MI122005
BI00B32Q8    @EW22031 MW    20220126181E48037ZZ              CAVSAS-S 0.3X4 GY        CCN000000250000000250FN00000000020220301000000250NNM   20211228141709    1W    00000025000003262000000000032Q8    EMEMI   000000000000MI221009
BI00B32Q8    @EW22032 MW    20220202181E48037ZZ              CAVSAS-S 0.3X4 GY        CCN000000250000000250FN00000000020220301000000250NNM   20211228141709    1W    00000025000003262000000000032Q8    EMEMI   000000000000MI321010
BI00B32Q8    @EW22032 MW    20220202181E48041ZZ              CAVSAS-S 0.3X2 GY/R      CCN000002100000002100FN00000000020220301000002100NNM   20211228141709    1W    00000035000002008700000000032Q8    EMEMI   000000000000MI321009
BI00B32Q8    @EW22033 MW    20220209181E48041ZZ              CAVSAS-S 0.3X2 GY/R      CCN000002450000002450FN00000000020220301000002450NNM   20211228141709    1W    00000035000002008700000000032Q8    EMEMI   000000000000MI421008
BI00B32Q8    @EW22034 MW    20220215181E48041ZZ              CAVSAS-S 0.3X2 GY/R      CCN000002800000002800FN00000000020220301000002800NNM   20211228141709    1W    00000035000002008700000000032Q8    EMEMI   000000000000MI122007
BI00B32Q8    @EW22031 MW    20220126181E48060ZZ              CAVSAS-S 0.5X2 GY/V      CCN000000300000000300FN00000000020220301000000300NNM   20211228141709    1W    00000030000002561000000000032Q8    EMEMI   000000000000MI221008
BI00B32Q8    @EW22031 MW    20220126181E48063ZZ              CAVSAS-S 0.5X2 GY/L      CCN000000300000000300FN00000000020220301000000300NNM   20211228141709    1W    00000030000002561000000000032Q8    EMEMI   000000000000MI221006
BI00B32Q8    @EW22033DMW    20220209181AD2017ZZ              CIVUSAS-S 0.22X3 B       CCN000000430000000430FN00000000020220301000000430NNM   20211228141711    1W    00000043000001678200000000032Q8    EMEMI   000000000000MD421001
BI00B32Q8    @EW22034DMW    20220215181AD2017ZZ              CIVUSAS-S 0.22X3 B       CCN000001720000001720FN00000000020220301000001720NNM   20211228141711    1W    00000043000001678200000000032Q8    EMEMI   000000000000MD122001
BI00B32Q8    EW22033TMW     2022020918007704192              AVSS 1.25F V             CCN000004000000004000FN00000000020220301000004000NNM   20211228141719    1W    00000080000001389000000000032Q8    EMEMI   000000000000MT421030
BI00B32Q8    EW22034TMW     2022021518007704192              AVSS 1.25F V             CCN000042400000042400FN00000000020220301000042400NNM   20211228141719    1W    00000080000001389000000000032Q8    EMEMI   000000000000MT122031
BI00B32Q8    EW22033TMW     20220209180D0203760              AVSSH 0.3F G             CCN000052000000052000FN00000000020220301000052000NNM   20211228141719    1W    00000200000000515000000000032Q8    EMEMI   000000000000MT421024
BI00B32Q8    EW22034TMW     20220215180D0203760              AVSSH 0.3F G             CCN000086000000086000FN00000000020220301000086000NNM   20211228141719    1W    00000200000000515000000000032Q8    EMEMI   000000000000MT122025
BI00B32Q8    EW22031TMW     20220126180D0203741              AVSSH 0.3F GY            CCN000014000000014000FN00000000020220301000014000NNM   20211228141719    1W    00000200000000515000000000032Q8    EMEMI   000000000000MT221022
BI00B32Q8    EW22032TMW     20220202180D0203741              AVSSH 0.3F GY            CCN000012000000012000FN00000000020220301000012000NNM   20211228141719    1W    00000200000000515000000000032Q8    EMEMI   000000000000MT321024
BI00B32Q8    EW22033TMW     20220209180D0203741              AVSSH 0.3F GY            CCN000010000000010000FN00000000020220301000010000NNM   20211228141719    1W    00000200000000515000000000032Q8    EMEMI   000000000000MT421025
BI00B32Q8    EW22034TMW     20220215180D0203741              AVSSH 0.3F GY            CCN000008000000008000FN00000000020220301000008000NNM   20211228141719    1W    00000200000000515000000000032Q8    EMEMI   000000000000MT122026
BI00B32Q8    EW22031TMW     20220126180D0203750              AVSSH 0.3F R             CCN000004000000004000FN00000000020220301000004000NNM   20211228141719    1W    00000200000000515000000000032Q8    EMEMI   000000000000MT221023
BI00B32Q8    EW22032TMW     20220202180D0203750              AVSSH 0.3F R             CCN000004000000004000FN00000000020220301000004000NNM   20211228141719    1W    00000200000000515000000000032Q8    EMEMI   000000000000MT321025
BI00B32Q8    EW22033TMW     20220209180D0203750              AVSSH 0.3F R             CCN000004000000004000FN00000000020220301000004000NNM   20211228141719    1W    00000200000000515000000000032Q8    EMEMI   000000000000MT421026
BI00B32Q8    EW22034TMW     20220215180D0203750              AVSSH 0.3F R             CCN000002000000002000FN00000000020220301000002000NNM   20211228141719    1W    00000200000000515000000000032Q8    EMEMI   000000000000MT122027
BI00B32Q8    EW22031TMW     20220126180D0204043              AVSSH 0.75F W/B          CCN000006000000006000FN00000000020220301000006000NNM   20211228141719    1W    00000100000000934000000000032Q8    EMEMI   000000000000MT221024
BI00B32Q8    EW22032TMW     20220202180D0204043              AVSSH 0.75F W/B          CCN000008000000008000FN00000000020220301000008000NNM   20211228141719    1W    00000100000000934000000000032Q8    EMEMI   000000000000MT321026
BI00B32Q8    EW22033TMW     20220209180D0204043              AVSSH 0.75F W/B          CCN000009000000009000FN00000000020220301000009000NNM   20211228141719    1W    00000100000000934000000000032Q8    EMEMI   000000000000MT421027
BI00B32Q8    EW22034TMW     20220215180D0204043              AVSSH 0.75F W/B          CCN000011000000011000FN00000000020220301000011000NNM   20211228141719    1W    00000100000000934000000000032Q8    EMEMI   000000000000MT122028
BI00B32Q8    EW22031TMW     20220126180D0204192              AVSSH 1.25F V            CCN000004000000004000FN00000000020220301000004000NNM   20211228141719    1W    00000080000001458000000000032Q8    EMEMI   000000000000MT221025
BI00B32Q8    EW22032TMW     20220202180D0204192              AVSSH 1.25F V            CCN000004000000004000FN00000000020220301000004000NNM   20211228141719    1W    00000080000001458000000000032Q8    EMEMI   000000000000MT321027
BI00B32Q8    EW22033TMW     20220209180D0204192              AVSSH 1.25F V            CCN000004000000004000FN00000000020220301000004000NNM   20211228141719    1W    00000080000001458000000000032Q8    EMEMI   000000000000MT421028
BI00B32Q8    EW22034TMW     20220215180D0204192              AVSSH 1.25F V            CCN000004000000004000FN00000000020220301000004000NNM   20211228141719    1W    00000080000001458000000000032Q8    EMEMI   000000000000MT122029
BI00B32Q8    EW22031TMW     20220126180D0204143              AVSSH 1.25F W/B          CCN000042400000042400FN00000000020220301000042400NNM   20211228141719    1W    00000080000001458000000000032Q8    EMEMI   000000000000MT221026
BI00B32Q8    EW22032TMW     20220202180D0204143              AVSSH 1.25F W/B          CCN000042400000042400FN00000000020220301000042400NNM   20211228141719    1W    00000080000001458000000000032Q8    EMEMI   000000000000MT321028
BI00B32Q8    EW22033TMW     20220209180D0204143              AVSSH 1.25F W/B          CCN000042400000042400FN00000000020220301000042400NNM   20211228141719    1W    00000080000001458000000000032Q8    EMEMI   000000000000MT421029
BI00B32Q8    EW22034TMW     20220215180D0204143              AVSSH 1.25F W/B          CCN000056000000056000FN00000000020220301000056000NNM   20211228141719    1W    00000080000001458000000000032Q8    EMEMI   000000000000MT122030
BI00B32Q8    EW22031TMW     202201261801R704143              CIVUS 1.25 W/B           CCN000034000000034000FN00000000020220301000034000NNM   20211228141719    1W    00000100000001228000000000032Q8    EMEMI   000000000000MT221027
BI00B32Q8    EW22032TMW     202202021801R704143              CIVUS 1.25 W/B           CCN000034000000034000FN00000000020220301000034000NNM   20211228141719    1W    00000100000001228000000000032Q8    EMEMI   000000000000MT321029
BI00B32Q8    EW22033TMW     202202091801R704143              CIVUS 1.25 W/B           CCN000034000000034000FN00000000020220301000034000NNM   20211228141719    1W    00000100000001228000000000032Q8    EMEMI   000000000000MT421031
BI00B32Q8    EW22034TMW     202202151801R704143              CIVUS 1.25 W/B           CCN000034000000034000FN00000000020220301000034000NNM   20211228141719    1W    00000100000001228000000000032Q8    EMEMI   000000000000MT122032
BI00B32Q8    EW22031TMW     202201261801W006930              IVSSH 0.35F B            CCN000237500000237500FN00000000020220301000237500NNM   20211228141719    1W    00000250000000452000000000032Q8    EMEMI   000000000000MT221043
BI00B32Q8    EW22032TMW     202202021801W006930              IVSSH 0.35F B            CCN000482500000482500FN00000000020220301000482500NNM   20211228141719    1W    00000250000000452000000000032Q8    EMEMI   000000000000MT321050
BI00B32Q8    EW22033TMW     202202091801W006930              IVSSH 0.35F B            CCN000482500000482500FN00000000020220301000482500NNM   20211228141719    1W    00000250000000452000000000032Q8    EMEMI   000000000000MT421052
BI00B32Q8    EW22034TMW     202202151801W006930              IVSSH 0.35F B            CCN000580000000580000FN00000000020220301000580000NNM   20211228141719    1W    00000250000000452000000000032Q8    EMEMI   000000000000MT122055
BI00B32Q8    EW22031TMW     202201261801W00695U              IVSSH 0.35F BE           CCN000032500000032500FN00000000020220301000032500NNM   20211228141719    1W    00000250000000452000000000032Q8    EMEMI   000000000000MT221044
BI00B32Q8    EW22032TMW     202202021801W00695U              IVSSH 0.35F BE           CCN000030000000030000FN00000000020220301000030000NNM   20211228141719    1W    00000250000000452000000000032Q8    EMEMI   000000000000MT321051
BI00B32Q8    EW22033TMW     202202091801W00695U              IVSSH 0.35F BE           CCN000030000000030000FN00000000020220301000030000NNM   20211228141719    1W    00000250000000452000000000032Q8    EMEMI   000000000000MT421053
BI00B32Q8    EW22034TMW     202202151801W00695U              IVSSH 0.35F BE           CCN000037500000037500FN00000000020220301000037500NNM   20211228141719    1W    00000250000000452000000000032Q8    EMEMI   000000000000MT122056
BI00B32Q8    EW22031TMW     202201261801W006980              IVSSH 0.35F BR           CCN000047500000047500FN00000000020220301000047500NNM   20211228141719    1W    00000250000000452000000000032Q8    EMEMI   000000000000MT221045
BI00B32Q8    EW22032TMW     202202021801W006980              IVSSH 0.35F BR           CCN000037500000037500FN00000000020220301000037500NNM   20211228141719    1W    00000250000000452000000000032Q8    EMEMI   000000000000MT321052
BI00B32Q8    EW22033TMW     202202091801W006980              IVSSH 0.35F BR           CCN000040000000040000FN00000000020220301000040000NNM   20211228141719    1W    00000250000000452000000000032Q8    EMEMI   000000000000MT421054
BI00B32Q8    EW22034TMW     202202151801W006980              IVSSH 0.35F BR           CCN000045000000045000FN00000000020220301000045000NNM   20211228141719    1W    00000250000000452000000000032Q8    EMEMI   000000000000MT122057
BI00B32Q8    EW22031TMW     202201261801W006960              IVSSH 0.35F G            CCN000195000000195000FN00000000020220301000195000NNM   20211228141719    1W    00000250000000452000000000032Q8    EMEMI   000000000000MT221046
BI00B32Q8    EW22032TMW     202202021801W006960              IVSSH 0.35F G            CCN000160000000160000FN00000000020220301000160000NNM   20211228141719    1W    00000250000000452000000000032Q8    EMEMI   000000000000MT321053
BI00B32Q8    EW22033TMW     202202091801W006960              IVSSH 0.35F G            CCN000377500000377500FN00000000020220301000377500NNM   20211228141719    1W    00000250000000452000000000032Q8    EMEMI   000000000000MT421055
BI00B32Q8    EW22034TMW     202202151801W006960              IVSSH 0.35F G            CCN000455000000455000FN00000000020220301000455000NNM   20211228141719    1W    00000250000000452000000000032Q8    EMEMI   000000000000MT122058
BI00B32Q8    EW22031TMW     202201261801W006941              IVSSH 0.35F GY           CCN000137500000137500FN00000000020220301000137500NNM   20211228141719    1W    00000250000000452000000000032Q8    EMEMI   000000000000MT221047
BI00B32Q8    EW22032TMW     202202021801W006941              IVSSH 0.35F GY           CCN000112500000112500FN00000000020220301000112500NNM   20211228141719    1W    00000250000000452000000000032Q8    EMEMI   000000000000MT321054
BI00B32Q8    EW22033TMW     202202091801W006941              IVSSH 0.35F GY           CCN000110000000110000FN00000000020220301000110000NNM   20211228141719    1W    00000250000000452000000000032Q8    EMEMI   000000000000MT421056
BI00B32Q8    EW22034TMW     202202151801W006941              IVSSH 0.35F GY           CCN000135000000135000FN00000000020220301000135000NNM   20211228141719    1W    00000250000000452000000000032Q8    EMEMI   000000000000MT122059
BI00B32Q8    EW22031TMW     202201261801W006990              IVSSH 0.35F L            CCN000075000000075000FN00000000020220301000075000NNM   20211228141719    1W    00000250000000452000000000032Q8    EMEMI   000000000000MT221048
BI00B32Q8    EW22032TMW     202202021801W006990              IVSSH 0.35F L            CCN000385000000385000FN00000000020220301000385000NNM   20211228141719    1W    00000250000000452000000000032Q8    EMEMI   000000000000MT321055
BI00B32Q8    EW22033TMW     202202091801W006990              IVSSH 0.35F L            CCN000460000000460000FN00000000020220301000460000NNM   20211228141719    1W    00000250000000452000000000032Q8    EMEMI   000000000000MT421057
BI00B32Q8    EW22034TMW     202202151801W006990              IVSSH 0.35F L            CCN000550000000550000FN00000000020220301000550000NNM   20211228141719    1W    00000250000000452000000000032Q8    EMEMI   000000000000MT122060
BI00B32Q8    EW22031TMW     202201261801W006961              IVSSH 0.35F LG           CCN000157500000157500FN00000000020220301000157500NNM   20211228141719    1W    00000250000000452000000000032Q8    EMEMI   000000000000MT221049
BI00B32Q8    EW22032TMW     202202021801W006961              IVSSH 0.35F LG           CCN000227500000227500FN00000000020220301000227500NNM   20211228141719    1W    00000250000000452000000000032Q8    EMEMI   000000000000MT321056
BI00B32Q8    EW22033TMW     202202091801W006961              IVSSH 0.35F LG           CCN000227500000227500FN00000000020220301000227500NNM   20211228141719    1W    00000250000000452000000000032Q8    EMEMI   000000000000MT421058
BI00B32Q8    EW22034TMW     202202151801W006961              IVSSH 0.35F LG           CCN000270000000270000FN00000000020220301000270000NNM   20211228141719    1W    00000250000000452000000000032Q8    EMEMI   000000000000MT122061
BI00B32Q8    EW22032TMW     202202021801W006952              IVSSH 0.35F P            CCN000160000000160000FN00000000020220301000160000NNM   20211228141719    1W    00000250000000452000000000032Q8    EMEMI   000000000000MT321057
BI00B32Q8    EW22033TMW     202202091801W006952              IVSSH 0.35F P            CCN000360000000360000FN00000000020220301000360000NNM   20211228141719    1W    00000250000000452000000000032Q8    EMEMI   000000000000MT421059
BI00B32Q8    EW22034TMW     202202151801W006952              IVSSH 0.35F P            CCN000432500000432500FN00000000020220301000432500NNM   20211228141719    1W    00000250000000452000000000032Q8    EMEMI   000000000000MT122062
BI00B32Q8    EW22031TMW     202201261801W006950              IVSSH 0.35F R            CCN000395000000395000FN00000000020220301000395000NNM   20211228141719    1W    00000250000000452000000000032Q8    EMEMI   000000000000MT221050
BI00B32Q8    EW22032TMW     202202021801W006950              IVSSH 0.35F R            CCN000375000000375000FN00000000020220301000375000NNM   20211228141719    1W    00000250000000452000000000032Q8    EMEMI   000000000000MT321058
BI00B32Q8    EW22033TMW     202202091801W006950              IVSSH 0.35F R            CCN000375000000375000FN00000000020220301000375000NNM   20211228141719    1W    00000250000000452000000000032Q8    EMEMI   000000000000MT421060
BI00B32Q8    EW22034TMW     202202151801W006950              IVSSH 0.35F R            CCN000447500000447500FN00000000020220301000447500NNM   20211228141719    1W    00000250000000452000000000032Q8    EMEMI   000000000000MT122063
BI00B32Q8    EW22031TMW     202201261801W006991              IVSSH 0.35F SB           CCN000025000000025000FN00000000020220301000025000NNM   20211228141719    1W    00000250000000452000000000032Q8    EMEMI   000000000000MT221051
BI00B32Q8    EW22032TMW     202202021801W006991              IVSSH 0.35F SB           CCN000082500000082500FN00000000020220301000082500NNM   20211228141719    1W    00000250000000452000000000032Q8    EMEMI   000000000000MT321059
BI00B32Q8    EW22033TMW     202202091801W006991              IVSSH 0.35F SB           CCN000082500000082500FN00000000020220301000082500NNM   20211228141719    1W    00000250000000452000000000032Q8    EMEMI   000000000000MT421061
BI00B32Q8    EW22034TMW     202202151801W006991              IVSSH 0.35F SB           CCN000097500000097500FN00000000020220301000097500NNM   20211228141719    1W    00000250000000452000000000032Q8    EMEMI   000000000000MT122064
BI00B32Q8    EW22031TMW     202201261801W006992              IVSSH 0.35F V            CCN000167500000167500FN00000000020220301000167500NNM   20211228141719    1W    00000250000000452000000000032Q8    EMEMI   000000000000MT221052
BI00B32Q8    EW22032TMW     202202021801W006992              IVSSH 0.35F V            CCN000302500000302500FN00000000020220301000302500NNM   20211228141719    1W    00000250000000452000000000032Q8    EMEMI   000000000000MT321060
BI00B32Q8    EW22033TMW     202202091801W006992              IVSSH 0.35F V            CCN000302500000302500FN00000000020220301000302500NNM   20211228141719    1W    00000250000000452000000000032Q8    EMEMI   000000000000MT421062
BI00B32Q8    EW22034TMW     202202151801W006992              IVSSH 0.35F V            CCN000370000000370000FN00000000020220301000370000NNM   20211228141719    1W    00000250000000452000000000032Q8    EMEMI   000000000000MT122065
BI00B32Q8    EW22031TMW     202201261801W006940              IVSSH 0.35F W            CCN000220000000220000FN00000000020220301000220000NNM   20211228141719    1W    00000250000000452000000000032Q8    EMEMI   000000000000MT221053
BI00B32Q8    EW22032TMW     202202021801W006940              IVSSH 0.35F W            CCN000220000000220000FN00000000020220301000220000NNM   20211228141719    1W    00000250000000452000000000032Q8    EMEMI   000000000000MT321061
BI00B32Q8    EW22033TMW     202202091801W006940              IVSSH 0.35F W            CCN000220000000220000FN00000000020220301000220000NNM   20211228141719    1W    00000250000000452000000000032Q8    EMEMI   000000000000MT421063
BI00B32Q8    EW22034TMW     202202151801W006940              IVSSH 0.35F W            CCN000515000000515000FN00000000020220301000515000NNM   20211228141719    1W    00000250000000452000000000032Q8    EMEMI   000000000000MT122066
BI00B32Q8    EW22033TMW     202202091801W006943              IVSSH 0.35F W/B          CCN000055000000055000FN00000000020220301000055000NNM   20211228141719    1W    00000250000000452000000000032Q8    EMEMI   000000000000MT421064
BI00B32Q8    EW22034TMW     202202151801W006943              IVSSH 0.35F W/B          CCN000062500000062500FN00000000020220301000062500NNM   20211228141719    1W    00000250000000452000000000032Q8    EMEMI   000000000000MT122067
BI00B32Q8    EW22031TMW     202201261801W006970              IVSSH 0.35F Y            CCN000090000000090000FN00000000020220301000090000NNM   20211228141719    1W    00000250000000452000000000032Q8    EMEMI   000000000000MT221054
BI00B32Q8    EW22032TMW     202202021801W006970              IVSSH 0.35F Y            CCN000087500000087500FN00000000020220301000087500NNM   20211228141719    1W    00000250000000452000000000032Q8    EMEMI   000000000000MT321062
BI00B32Q8    EW22033TMW     202202091801W006970              IVSSH 0.35F Y            CCN000087500000087500FN00000000020220301000087500NNM   20211228141719    1W    00000250000000452000000000032Q8    EMEMI   000000000000MT421065
BI00B32Q8    EW22034TMW     202202151801W006970              IVSSH 0.35F Y            CCN000110000000110000FN00000000020220301000110000NNM   20211228141719    1W    00000250000000452000000000032Q8    EMEMI   000000000000MT122068
BI00B32Q8    EW22031TMW     202201261801W003930              IVSSH 0.5F B             CCN000261000000261000FN00000000020220301000261000NNM   20211228141719    1W    00000180000000625000000000032Q8    EMEMI   000000000000MT221028
BI00B32Q8    EW22032TMW     202202021801W003930              IVSSH 0.5F B             CCN000149400000149400FN00000000020220301000149400NNM   20211228141719    1W    00000180000000625000000000032Q8    EMEMI   000000000000MT321030
BI00B32Q8    EW22033TMW     202202091801W003930              IVSSH 0.5F B             CCN000149400000149400FN00000000020220301000149400NNM   20211228141719    1W    00000180000000625000000000032Q8    EMEMI   000000000000MT421032
BI00B32Q8    EW22034TMW     202202151801W003930              IVSSH 0.5F B             CCN000187200000187200FN00000000020220301000187200NNM   20211228141719    1W    00000180000000625000000000032Q8    EMEMI   000000000000MT122033
BI00B32Q8    EW22032TMW     202202021801W00395U              IVSSH 0.5F BE            CCN000001800000001800FN00000000020220301000001800NNM   20211228141719    1W    00000180000000625000000000032Q8    EMEMI   000000000000MT321031
BI00B32Q8    EW22033TMW     202202091801W00395U              IVSSH 0.5F BE            CCN000009000000009000FN00000000020220301000009000NNM   20211228141719    1W    00000180000000625000000000032Q8    EMEMI   000000000000MT421033
BI00B32Q8    EW22034TMW     202202151801W00395U              IVSSH 0.5F BE            CCN000012600000012600FN00000000020220301000012600NNM   20211228141719    1W    00000180000000625000000000032Q8    EMEMI   000000000000MT122034
BI00B32Q8    EW22031TMW     202201261801W003980              IVSSH 0.5F BR            CCN000019800000019800FN00000000020220301000019800NNM   20211228141719    1W    00000180000000625000000000032Q8    EMEMI   000000000000MT221029
BI00B32Q8    EW22032TMW     202202021801W003980              IVSSH 0.5F BR            CCN000019800000019800FN00000000020220301000019800NNM   20211228141719    1W    00000180000000625000000000032Q8    EMEMI   000000000000MT321032
BI00B32Q8    EW22033TMW     202202091801W003980              IVSSH 0.5F BR            CCN000019800000019800FN00000000020220301000019800NNM   20211228141719    1W    00000180000000625000000000032Q8    EMEMI   000000000000MT421034
BI00B32Q8    EW22034TMW     202202151801W003980              IVSSH 0.5F BR            CCN000019800000019800FN00000000020220301000019800NNM   20211228141719    1W    00000180000000625000000000032Q8    EMEMI   000000000000MT122035
BI00B32Q8    EW22031TMW     202201261801W003960              IVSSH 0.5F G             CCN000171000000171000FN00000000020220301000171000NNM   20211228141719    1W    00000180000000625000000000032Q8    EMEMI   000000000000MT221030
BI00B32Q8    EW22032TMW     202202021801W003960              IVSSH 0.5F G             CCN000154800000154800FN00000000020220301000154800NNM   20211228141719    1W    00000180000000625000000000032Q8    EMEMI   000000000000MT321033
BI00B32Q8    EW22033TMW     202202091801W003960              IVSSH 0.5F G             CCN000156600000156600FN00000000020220301000156600NNM   20211228141719    1W    00000180000000625000000000032Q8    EMEMI   000000000000MT421035
BI00B32Q8    EW22034TMW     202202151801W003960              IVSSH 0.5F G             CCN000187200000187200FN00000000020220301000187200NNM   20211228141719    1W    00000180000000625000000000032Q8    EMEMI   000000000000MT122036
BI00B32Q8    EW22032TMW     202202021801W003941              IVSSH 0.5F GY            CCN000007200000007200FN00000000020220301000007200NNM   20211228141719    1W    00000180000000625000000000032Q8    EMEMI   000000000000MT321034
BI00B32Q8    EW22033TMW     202202091801W003941              IVSSH 0.5F GY            CCN000027000000027000FN00000000020220301000027000NNM   20211228141719    1W    00000180000000625000000000032Q8    EMEMI   000000000000MT421036
BI00B32Q8    EW22034TMW     202202151801W003941              IVSSH 0.5F GY            CCN000032400000032400FN00000000020220301000032400NNM   20211228141719    1W    00000180000000625000000000032Q8    EMEMI   000000000000MT122037
BI00B32Q8    EW22031TMW     202201261801W003990              IVSSH 0.5F L             CCN000234000000234000FN00000000020220301000234000NNM   20211228141719    1W    00000180000000625000000000032Q8    EMEMI   000000000000MT221031
BI00B32Q8    EW22032TMW     202202021801W003990              IVSSH 0.5F L             CCN000203400000203400FN00000000020220301000203400NNM   20211228141719    1W    00000180000000625000000000032Q8    EMEMI   000000000000MT321035
BI00B32Q8    EW22033TMW     202202091801W003990              IVSSH 0.5F L             CCN000205200000205200FN00000000020220301000205200NNM   20211228141719    1W    00000180000000625000000000032Q8    EMEMI   000000000000MT421037
BI00B32Q8    EW22034TMW     202202151801W003990              IVSSH 0.5F L             CCN000252000000252000FN00000000020220301000252000NNM   20211228141719    1W    00000180000000625000000000032Q8    EMEMI   000000000000MT122038
BI00B32Q8    EW22031TMW     202201261801W003961              IVSSH 0.5F LG            CCN000016200000016200FN00000000020220301000016200NNM   20211228141719    1W    00000180000000625000000000032Q8    EMEMI   000000000000MT221032
BI00B32Q8    EW22032TMW     202202021801W003961              IVSSH 0.5F LG            CCN000009000000009000FN00000000020220301000009000NNM   20211228141719    1W    00000180000000625000000000032Q8    EMEMI   000000000000MT321036
BI00B32Q8    EW22034TMW     202202151801W003961              IVSSH 0.5F LG            CCN000025200000025200FN00000000020220301000025200NNM   20211228141719    1W    00000180000000625000000000032Q8    EMEMI   000000000000MT122039
BI00B32Q8    EW22031TMW     202201261801W003950              IVSSH 0.5F R             CCN000180000000180000FN00000000020220301000180000NNM   20211228141719    1W    00000180000000625000000000032Q8    EMEMI   000000000000MT221033
BI00B32Q8    EW22032TMW     202202021801W003950              IVSSH 0.5F R             CCN000180000000180000FN00000000020220301000180000NNM   20211228141719    1W    00000180000000625000000000032Q8    EMEMI   000000000000MT321037
BI00B32Q8    EW22033TMW     202202091801W003950              IVSSH 0.5F R             CCN000172800000172800FN00000000020220301000172800NNM   20211228141719    1W    00000180000000625000000000032Q8    EMEMI   000000000000MT421038
BI00B32Q8    EW22034TMW     202202151801W003950              IVSSH 0.5F R             CCN000216000000216000FN00000000020220301000216000NNM   20211228141719    1W    00000180000000625000000000032Q8    EMEMI   000000000000MT122040
BI00B32Q8    EW22033TMW     202202091801W003991              IVSSH 0.5F SB            CCN000009000000009000FN00000000020220301000009000NNM   20211228141719    1W    00000180000000625000000000032Q8    EMEMI   000000000000MT421039
BI00B32Q8    EW22034TMW     202202151801W003991              IVSSH 0.5F SB            CCN000012600000012600FN00000000020220301000012600NNM   20211228141719    1W    00000180000000625000000000032Q8    EMEMI   000000000000MT122041
BI00B32Q8    EW22031TMW     202201261801W003992              IVSSH 0.5F V             CCN000066600000066600FN00000000020220301000066600NNM   20211228141719    1W    00000180000000625000000000032Q8    EMEMI   000000000000MT221034
BI00B32Q8    EW22032TMW     202202021801W003992              IVSSH 0.5F V             CCN000075600000075600FN00000000020220301000075600NNM   20211228141719    1W    00000180000000625000000000032Q8    EMEMI   000000000000MT321038
BI00B32Q8    EW22033TMW     202202091801W003992              IVSSH 0.5F V             CCN000073800000073800FN00000000020220301000073800NNM   20211228141719    1W    00000180000000625000000000032Q8    EMEMI   000000000000MT421040
BI00B32Q8    EW22034TMW     202202151801W003992              IVSSH 0.5F V             CCN000090000000090000FN00000000020220301000090000NNM   20211228141719    1W    00000180000000625000000000032Q8    EMEMI   000000000000MT122042
BI00B32Q8    EW22031TMW     202201261801W003940              IVSSH 0.5F W             CCN000055800000055800FN00000000020220301000055800NNM   20211228141719    1W    00000180000000625000000000032Q8    EMEMI   000000000000MT221035
BI00B32Q8    EW22032TMW     202202021801W003940              IVSSH 0.5F W             CCN000079200000079200FN00000000020220301000079200NNM   20211228141719    1W    00000180000000625000000000032Q8    EMEMI   000000000000MT321039
BI00B32Q8    EW22033TMW     202202091801W003940              IVSSH 0.5F W             CCN000081000000081000FN00000000020220301000081000NNM   20211228141719    1W    00000180000000625000000000032Q8    EMEMI   000000000000MT421041
BI00B32Q8    EW22034TMW     202202151801W003940              IVSSH 0.5F W             CCN000100800000100800FN00000000020220301000100800NNM   20211228141719    1W    00000180000000625000000000032Q8    EMEMI   000000000000MT122043
BI00B32Q8    EW22031TMW     202201261801W003943              IVSSH 0.5F W/B           CCN000036000000036000FN00000000020220301000036000NNM   20211228141719    1W    00000180000000625000000000032Q8    EMEMI   000000000000MT221036
BI00B32Q8    EW22032TMW     202202021801W003943              IVSSH 0.5F W/B           CCN000079200000079200FN00000000020220301000079200NNM   20211228141719    1W    00000180000000625000000000032Q8    EMEMI   000000000000MT321040
BI00B32Q8    EW22033TMW     202202091801W003943              IVSSH 0.5F W/B           CCN000081000000081000FN00000000020220301000081000NNM   20211228141719    1W    00000180000000625000000000032Q8    EMEMI   000000000000MT421042
BI00B32Q8    EW22034TMW     202202151801W003943              IVSSH 0.5F W/B           CCN000099000000099000FN00000000020220301000099000NNM   20211228141719    1W    00000180000000625000000000032Q8    EMEMI   000000000000MT122044
BI00B32Q8    EW22032TMW     202202021801W003970              IVSSH 0.5F Y             CCN000055800000055800FN00000000020220301000055800NNM   20211228141719    1W    00000180000000625000000000032Q8    EMEMI   000000000000MT321041
BI00B32Q8    EW22033TMW     202202091801W003970              IVSSH 0.5F Y             CCN000064800000064800FN00000000020220301000064800NNM   20211228141719    1W    00000180000000625000000000032Q8    EMEMI   000000000000MT421043
BI00B32Q8    EW22034TMW     202202151801W003970              IVSSH 0.5F Y             CCN000079200000079200FN00000000020220301000079200NNM   20211228141719    1W    00000180000000625000000000032Q8    EMEMI   000000000000MT122045
BI00B32Q8    EW22031TMW     202201261801W004030              IVSSH 0.75F B            CCN000015600000015600FN00000000020220301000015600NNM   20211228141719    1W    00000130000000882000000000032Q8    EMEMI   000000000000MT221037
BI00B32Q8    EW22032TMW     202202021801W004030              IVSSH 0.75F B            CCN000024700000024700FN00000000020220301000024700NNM   20211228141719    1W    00000130000000882000000000032Q8    EMEMI   000000000000MT321042
BI00B32Q8    EW22033TMW     202202091801W004030              IVSSH 0.75F B            CCN000026000000026000FN00000000020220301000026000NNM   20211228141719    1W    00000130000000882000000000032Q8    EMEMI   000000000000MT421044
BI00B32Q8    EW22034TMW     202202151801W004030              IVSSH 0.75F B            CCN000032500000032500FN00000000020220301000032500NNM   20211228141719    1W    00000130000000882000000000032Q8    EMEMI   000000000000MT122046
BI00B32Q8    EW22031TMW     202201261801W004080              IVSSH 0.75F BR           CCN000007800000007800FN00000000020220301000007800NNM   20211228141719    1W    00000130000000882000000000032Q8    EMEMI   000000000000MT221038
BI00B32Q8    EW22032TMW     202202021801W004080              IVSSH 0.75F BR           CCN000007800000007800FN00000000020220301000007800NNM   20211228141719    1W    00000130000000882000000000032Q8    EMEMI   000000000000MT321043
BI00B32Q8    EW22033TMW     202202091801W004080              IVSSH 0.75F BR           CCN000003900000003900FN00000000020220301000003900NNM   20211228141719    1W    00000130000000882000000000032Q8    EMEMI   000000000000MT421045
BI00B32Q8    EW22034TMW     202202151801W004080              IVSSH 0.75F BR           CCN000007800000007800FN00000000020220301000007800NNM   20211228141719    1W    00000130000000882000000000032Q8    EMEMI   000000000000MT122047
BI00B32Q8    EW22031TMW     202201261801W004060              IVSSH 0.75F G            CCN000003900000003900FN00000000020220301000003900NNM   20211228141719    1W    00000130000000882000000000032Q8    EMEMI   000000000000MT221039
BI00B32Q8    EW22032TMW     202202021801W004060              IVSSH 0.75F G            CCN000005200000005200FN00000000020220301000005200NNM   20211228141719    1W    00000130000000882000000000032Q8    EMEMI   000000000000MT321044
BI00B32Q8    EW22033TMW     202202091801W004060              IVSSH 0.75F G            CCN000010400000010400FN00000000020220301000010400NNM   20211228141719    1W    00000130000000882000000000032Q8    EMEMI   000000000000MT421046
BI00B32Q8    EW22034TMW     202202151801W004060              IVSSH 0.75F G            CCN000013000000013000FN00000000020220301000013000NNM   20211228141719    1W    00000130000000882000000000032Q8    EMEMI   000000000000MT122048
BI00B32Q8    EW22031TMW     202201261801W004090              IVSSH 0.75F L            CCN000039000000039000FN00000000020220301000039000NNM   20211228141719    1W    00000130000000882000000000032Q8    EMEMI   000000000000MT221040
BI00B32Q8    EW22032TMW     202202021801W004090              IVSSH 0.75F L            CCN000039000000039000FN00000000020220301000039000NNM   20211228141719    1W    00000130000000882000000000032Q8    EMEMI   000000000000MT321045
BI00B32Q8    EW22033TMW     202202091801W004090              IVSSH 0.75F L            CCN000039000000039000FN00000000020220301000039000NNM   20211228141719    1W    00000130000000882000000000032Q8    EMEMI   000000000000MT421047
BI00B32Q8    EW22034TMW     202202151801W004090              IVSSH 0.75F L            CCN000039000000039000FN00000000020220301000039000NNM   20211228141719    1W    00000130000000882000000000032Q8    EMEMI   000000000000MT122049
BI00B32Q8    EW22031TMW     202201261801W004052              IVSSH 0.75F P            CCN000006500000006500FN00000000020220301000006500NNM   20211228141719    1W    00000130000000882000000000032Q8    EMEMI   000000000000MT221041
BI00B32Q8    EW22032TMW     202202021801W004052              IVSSH 0.75F P            CCN000010400000010400FN00000000020220301000010400NNM   20211228141719    1W    00000130000000882000000000032Q8    EMEMI   000000000000MT321046
BI00B32Q8    EW22033TMW     202202091801W004052              IVSSH 0.75F P            CCN000009100000009100FN00000000020220301000009100NNM   20211228141719    1W    00000130000000882000000000032Q8    EMEMI   000000000000MT421048
BI00B32Q8    EW22034TMW     202202151801W004052              IVSSH 0.75F P            CCN000013000000013000FN00000000020220301000013000NNM   20211228141719    1W    00000130000000882000000000032Q8    EMEMI   000000000000MT122050
BI00B32Q8    EW22034TMW     202202151801W004050              IVSSH 0.75F R            CCN000040300000040300FN00000000020220301000040300NNM   20211228141719    1W    00000130000000882000000000032Q8    EMEMI   000000000000MT122051
BI00B32Q8    EW22032TMW     202202021801W004092              IVSSH 0.75F V            CCN000013000000013000FN00000000020220301000013000NNM   20211228141719    1W    00000130000000882000000000032Q8    EMEMI   000000000000MT321047
BI00B32Q8    EW22033TMW     202202091801W004092              IVSSH 0.75F V            CCN000015600000015600FN00000000020220301000015600NNM   20211228141719    1W    00000130000000882000000000032Q8    EMEMI   000000000000MT421049
BI00B32Q8    EW22034TMW     202202151801W004092              IVSSH 0.75F V            CCN000019500000019500FN00000000020220301000019500NNM   20211228141719    1W    00000130000000882000000000032Q8    EMEMI   000000000000MT122052
BI00B32Q8    EW22032TMW     202202021801W004040              IVSSH 0.75F W            CCN000005200000005200FN00000000020220301000005200NNM   20211228141719    1W    00000130000000882000000000032Q8    EMEMI   000000000000MT321048
BI00B32Q8    EW22033TMW     202202091801W004040              IVSSH 0.75F W            CCN000014300000014300FN00000000020220301000014300NNM   20211228141719    1W    00000130000000882000000000032Q8    EMEMI   000000000000MT421050
BI00B32Q8    EW22034TMW     202202151801W004040              IVSSH 0.75F W            CCN000019500000019500FN00000000020220301000019500NNM   20211228141719    1W    00000130000000882000000000032Q8    EMEMI   000000000000MT122053
BI00B32Q8    EW22031TMW     202201261801W004070              IVSSH 0.75F Y            CCN000006500000006500FN00000000020220301000006500NNM   20211228141719    1W    00000130000000882000000000032Q8    EMEMI   000000000000MT221042
BI00B32Q8    EW22032TMW     202202021801W004070              IVSSH 0.75F Y            CCN000010400000010400FN00000000020220301000010400NNM   20211228141719    1W    00000130000000882000000000032Q8    EMEMI   000000000000MT321049
BI00B32Q8    EW22033TMW     202202091801W004070              IVSSH 0.75F Y            CCN000009100000009100FN00000000020220301000009100NNM   20211228141719    1W    00000130000000882000000000032Q8    EMEMI   000000000000MT421051
BI00B32Q8    EW22034TMW     202202151801W004070              IVSSH 0.75F Y            CCN000013000000013000FN00000000020220301000013000NNM   20211228141719    1W    00000130000000882000000000032Q8    EMEMI   000000000000MT122054
BI00B32Q8    @EW22031TMW    20220126181E50004ZZ              AVSSCS-S 0.5FX1 DGY      CCN000014000000014000FN00000000020220301000014000NNM   20211228141714    1W    00000040000001909700000000032Q8    EMEMI   000000000000MT221003
BI00B32Q8    @EW22032TMW    20220202181E50004ZZ              AVSSCS-S 0.5FX1 DGY      CCN000012800000012800FN00000000020220301000012800NNM   20211228141714    1W    00000040000001909700000000032Q8    EMEMI   000000000000MT321004
BI00B32Q8    @EW22033TMW    20220209181E50004ZZ              AVSSCS-S 0.5FX1 DGY      CCN000010000000010000FN00000000020220301000010000NNM   20211228141714    1W    00000040000001909700000000032Q8    EMEMI   000000000000MT421004
BI00B32Q8    @EW22034TMW    20220215181E50004ZZ              AVSSCS-S 0.5FX1 DGY      CCN000006800000006800FN00000000020220301000006800NNM   20211228141714    1W    00000040000001909700000000032Q8    EMEMI   000000000000MT122005
BI00B32Q8    @EW22031TMW    20220126181E50005ZZ              AVSSCS-S 0.5FX1 DGY/W    CCN000009200000009200FN00000000020220301000009200NNM   20211228141714    1W    00000040000001909700000000032Q8    EMEMI   000000000000MT221004
BI00B32Q8    @EW22032TMW    20220202181E50005ZZ              AVSSCS-S 0.5FX1 DGY/W    CCN000007200000007200FN00000000020220301000007200NNM   20211228141714    1W    00000040000001909700000000032Q8    EMEMI   000000000000MT321005
BI00B32Q8    @EW22033TMW    20220209181E50005ZZ              AVSSCS-S 0.5FX1 DGY/W    CCN000007200000007200FN00000000020220301000007200NNM   20211228141714    1W    00000040000001909700000000032Q8    EMEMI   000000000000MT421005
