BI00B1200    O022B50351     202203107298-1187-30             SHUNT RING ASSEMBLY      CCN000010000000010000FN00000000020220301000010000NNED0220211228145949    4N0N  0000100000000064700000076951200    YCYC    005400370024
BI00B1200    #2399T52104    202202107282-5532-40             CONNECTOR                CCN000001600000001600FN00000000020220301000001600NNE   20211228124008    2N0N  0000016000000111600000128201200    YCYC    005500360039
BI00B1200    7860T52101     202202037158-3022-80             RUBBER STOPPER           CCN000030000000030000FN00000000020220301000030000NNM   20211228124008    1C0C  0000050000000046750000052401200    YCYC    002700430014
BI00B1200    #7860T52101    202202037172-5632-10             DUMMY PLUG               CCN000020000000020000FN00000000020220301000020000NNM   20211228124008    2H0H  0000200000000008040000013181200    YCYC    004300270014
BI00B1200    #7860T52102    202202107172-5632-10             DUMMY PLUG               CCN000040000000040000FN00000000020220301000040000NNM   20211228124008    2H0H  0000200000000008040000013181200    YCYC    004300270014
BI00B1200    #7860T52103    202202177172-5632-10             DUMMY PLUG               CCN000020000000020000FN00000000020220301000020000NNM   20211228124008    2H0H  0000200000000008040000013181200    YCYC    004300270014
BI00B1200    #7860T52104    202202247172-5632-10             DUMMY PLUG               CCN000040000000040000FN00000000020220301000040000NNM   20211228124008    2H0H  0000200000000008040000013181200    YCYC    004300270014
BI00B1200    #7860T52101    202202037189-3031                HOUSING FEMALE           CCN000002400000002400FN00000000020220301000002400NNM   20211228124008    2F0F  0000024000000092880000136581200    YCYC    005500360039
BI00B1200    #7860T52102    202202107189-3031                HOUSING FEMALE           CCN000002400000002400FN00000000020220301000002400NNM   20211228124008    2F0F  0000024000000092880000136581200    YCYC    005500360039
BI00B1200    #7860T52103    202202177189-3031                HOUSING FEMALE           CCN000002400000002400FN00000000020220301000002400NNM   20211228124008    2F0F  0000024000000092880000136581200    YCYC    005500360039
BI00B1200    #7860T52104    202202247189-3031                HOUSING FEMALE           CCN000002400000002400FN00000000020220301000002400NNM   20211228124008    2F0F  0000024000000092880000136581200    YCYC    005500360039
BI00B1200    #MKH2021-234   202202037282-1214-51             CONNECTOR                CCN000001000000001000FN00000000020220201000001000NNE   20211228145454    2N0N  0000010000000112000000129201200    YCYC    005500360039
BI00B32A7    #ZZ22014BMW    202201037172-5937-90             SEAL RUBBER              CCN000001000000001000FN00000000020220101000001000NNM00020211228132423    2H0H  00000100000000620000000666832A7    ZZZZY   004300270014
BI00B32BG    YY22042CMW     202202247116-3153-08             TERMINAL                 CCN000054000000054000FN00000000020220401000054000NNM   20211228141817    4P0P  00002700000000461700000746932BG    YGYYA   006400630015
BI00B32BG    YY22044CMW     202203107116-3153-08             TERMINAL                 CCN000054000000054000FN00000000020220401000054000NNM   20211228141817    4P0P  00002700000000461700000746932BG    YGYYA   006400630015
BI00B32BG    YY22041CMW     202202177158-3070-80             RUBBER STOPPER           CCN000080000000080000FN00000000020220401000080000NNM   20211228141817    1C0C  00004000000000276000000333332BG    YGYYA   002700430014
BI00B32BG    YY22042CMW     202202247158-3070-80             RUBBER STOPPER           CCN000080000000080000FN00000000020220401000080000NNM   20211228141817    1C0C  00004000000000276000000333332BG    YGYYA   002700430014
BI00B32BG    YY22043CMW     202203037158-3070-80             RUBBER STOPPER           CCN000080000000080000FN00000000020220401000080000NNM   20211228141817    1C0C  00004000000000276000000333332BG    YGYYA   002700430014
BI00B32BG    YY22044CMW     202203107158-3070-80             RUBBER STOPPER           CCN000080000000080000FN00000000020220401000080000NNM   20211228141817    1C0C  00004000000000276000000333332BG    YGYYA   002700430014
BI00B32BG    YY22042CMW     202202247296-1025-02             TERMINAL ALUMINIUM       CCN000072000000072000FN00000000020220401000072000NNM   20211228141817    4P0P  00001800000000635400000920632BG    YGYYA   006400630015
BI00B32BG    YY22043CMW     202203037296-1025-02             TERMINAL ALUMINIUM       CCN000072000000072000FN00000000020220401000072000NNM   20211228141817    4P0P  00001800000000635400000920632BG    YGYYA   006400630015
BI00B32BG    YY22044CMW     202203107296-1025-02             TERMINAL ALUMINIUM       CCN000090000000090000FN00000000020220401000090000NNM   20211228141817    4P0P  00001800000000635400000920632BG    YGYYA   006400630015
BI00B32BG    #YY22042CMW    202202247172-5630-40             RUBBER STOPPER           CCN000040000000040000FN00000000020220401000040000NNM   20211228141814    2H0H  00002000000000044000000095132BG    YGYYA   004300270014
BI00B32BG    #YY22044CMW    202203107172-5630-40             RUBBER STOPPER           CCN000040000000040000FN00000000020220401000040000NNM   20211228141814    2H0H  00002000000000044000000095132BG    YGYYA   004300270014
BI00B32BG    #YY22044CMW    202203107189-3033                HOUSING FEMALE           CCN000001600000001600FN00000000020220401000001600NNM   20211228141814    2F0F  00000160000001211200001431232BG    YGYYA   005500360039
BI00B32BG    #YY22044CMW    202203107189-3036                HOUSING FEMALE           CCN000001600000001600FN00000000020220401000001600NNM   20211228141814    2F0F  00000160000000921600001141632BG    YGYYA   005500360039
BI00B32BG    YY22041GMW     202202177116-4100-02             TERMINAL                 CCN000045000000045000FN00000000020220401000045000NNM   20211228141849    4P0P  00001500000000696000000990232BG    YGYYA   006400630015
BI00B32BG    YY22043GMW     202203037116-4100-02             TERMINAL                 CCN000045000000045000FN00000000020220401000045000NNM   20211228141849    4P0P  00001500000000696000000990232BG    YGYYA   006400630015
BI00B32BG    YY22041GMW     202202177116-4110-02             TERMINAL                 CCN000018000000018000FN00000000020220401000018000NNM   20211228141849    4P0P  00000900000000594000000882232BG    YGYYA   006400630015
BI00B32BG    YY22042GMW     202202247116-4110-02             TERMINAL                 CCN000018000000018000FN00000000020220401000018000NNM   20211228141849    4P0P  00000900000000594000000882232BG    YGYYA   006400630015
BI00B32BG    YY22043GMW     202203037116-4110-02             TERMINAL                 CCN000018000000018000FN00000000020220401000018000NNM   20211228141849    4P0P  00000900000000594000000882232BG    YGYYA   006400630015
BI00B32BG    YY22041GMW     202202177116-4111-02             TERMINAL                 CCN000030000000030000FN00000000020220401000030000NNM   20211228141849    4P0P  00000750000000529500000817732BG    YGYYA   006400630015
BI00B32BG    YY22043GMW     202203037116-4111-02             TERMINAL                 CCN000030000000030000FN00000000020220401000030000NNM   20211228141849    4P0P  00000750000000529500000817732BG    YGYYA   006400630015
BI00B32BG    YY22041GMW     202202177116-4112-02             TERMINAL                 CCN000030000000030000FN00000000020220401000030000NNM   20211228141849    4P0P  00000600000000450000000738232BG    YGYYA   006400630015
BI00B32BG    YY22043GMW     202203037116-4112-02             TERMINAL                 CCN000030000000030000FN00000000020220401000030000NNM   20211228141849    4P0P  00000600000000450000000738232BG    YGYYA   006400630015
BI00B32BG    #YY22043GMW    202203037158-3376-50             CONNECTOR WIRE SEAL      CCN000020000000020000FN00000000020220401000020000NNM   20211228141847    2C0C  00002000000000184000000240732BG    YGYYA   002700430014
BI00B32BG    #YY22042GMW    202202247283-8398-40             CONNECTOR                CCN000001540000001540FN00000000020220401000001540NNM   20211228141847    2N0N  00000154000001007000001171332BG    YGYYA   005600390023
BI00B32BG    #YY22043GMW    202203037283-8398-40             CONNECTOR                CCN000001540000001540FN00000000020220401000001540NNM   20211228141847    2N0N  00000154000001007000001171332BG    YGYYA   005600390023
BI00B32BG    #YY22044GMW    202203107283-8398-40             CONNECTOR                CCN000001540000001540FN00000000020220401000001540NNM   20211228141847    2N0N  00000154000001007000001171332BG    YGYYA   005600390023
BI00B32BG    YY22042NMW     202202247158-3165-90             WIRE SEAL                CCN000040000000040000FN00000000020220401000040000NNM   20211228141916    1C0C  00004000000000124000000172432BG    YGYYA   004300270014
BI00B32BG    YY22044NMW     202203107158-3165-90             WIRE SEAL                CCN000040000000040000FN00000000020220401000040000NNM   20211228141916    1C0C  00004000000000124000000172432BG    YGYYA   004300270014
BI00B32BG    YY22042NMW     202202247158-3169-40             SEALING PLUG             CCN000040000000040000FN00000000020220401000040000NNM   20211228141916    1C0C  00004000000000156000000204132BG    YGYYA   004300260014
BI00B32BG    YY22044NMW     202203107158-3169-40             SEALING PLUG             CCN000040000000040000FN00000000020220401000040000NNM   20211228141916    1C0C  00004000000000156000000204132BG    YGYYA   004300260014
BI00B32CA    PTA32042       202112307196-1461-02             TERMINAL FEMALE          CCN000216000000216000FN00000000020220301000216000NNM00020211228124008    4P0P  00002400000000386400000671632CA    YPYPY   006400630015
BI00B32CC    CTA32021       202201037283-4855                CONNECTOR HOUSING        CCN000016800000016800FN00000000020211201000016800NNM00020211228132709    4N0N  00000240000001188400001400032CC    BIYABCBU005500360039
BI00B32CC    CTA32021       202201037289-3342                HOUSING FEMALE ASS'Y     CCN000016800000016800FN00000000020211201000016800NNM00020211228132709    1N0N  00000240000000686400000901432CC    BIYABCBU005500360039
BI00B32CC    CTA32024       202201037283-4855                CONNECTOR HOUSING        CCN000012000000012000FN00000000020220101000012000NNM00020211228132732    4N0N  00000240000001188400001400032CC    BIYABCBU005500360039
BI00B32CC    CTA32043       202203037289-6868-30             SEALED ASSY FEMALE       CCN000050400000050400FN00000000020211201000050400NNED0420211228124008    4N0N  00000252000000839200001119232CC    BIYABCBU005500360039
BI00B32D1    DFTC2144       202112167289-3342-30             HOUSING FEMALE ASS'Y     CCN000084000000007200FN00000000020211001000007200NNM00020211228124008    1N0N  00000240000000686400000901432D1    TOYOT-K 005500360039
BI00B32D1    DFTC2205       202201037289-3342-30             HOUSING FEMALE ASS'Y     CCN000084000000084000FN00000000020220201000084000NNM00020211228124008    1N0N  00000240000000686400000901432D1    TOYOT-K 005500360039
BI00B32D1    DFTC2205       202201037289-6547                HOUSING FEMALE ASS'Y     CCN000012000000012000FN00000000020220201000012000NNM00020211228124008    1N0N  00000240000001152000001362032D1    TOYOT-K 005500360039
BI00B32D1    DFTC2206       202201037289-3342-30             HOUSING FEMALE ASS'Y     CCN000081600000081600FN00000000020220201000081600NNM00020211228133136    1N0N  00000240000000686400000901432D1    TOYOT-K 005500360039
BI00B32D1    DFTC2212       202202037289-6547                HOUSING FEMALE ASS'Y     CCN000014400000014400FN00000000020220301000014400NNMD0220211228141659    1N0N  00000240000001152000001362032D1    TOYOT-K 005500360039
BI00B32D1    DFTC2144       202201037289-3342-30             HOUSING FEMALE ASS'Y     CCN000076800000076800FN00000000020211001000076800NNM00020211228124008    1N0N  00000240000000686400000901432D1    TOYOT-K 005500360039
BI00B32D2    DGTC2204       202201037289-3342-30             HOUSING FEMALE ASS'Y     CCN000016800000016800FN00000000020220101000016800NNM00020211228133941    1N0N  00000240000000686400000901432D2    TGYOT-G 005500360039
BI00B32D2    DGTC2205       202201037289-3342-30             HOUSING FEMALE ASS'Y     CCN000007200000007200FN00000000020220201000007200NNM00020211228134000    1N0N  00000240000000686400000901432D2    TGYOT-G 005500360039
BI00B32D2    DGTC2205       202201037289-6547                HOUSING FEMALE ASS'Y     CCN000002400000002400FN00000000020220201000002400NNM00020211228134008    1N0N  00000240000001152000001362032D2    TGYOT-G 005500360039
BI00A32D2    DGTC2210       202112297296-1024-02             TERMINAL ALUMINIUM       CCN000018000000018000FN00000000020220301000018000NNMD0020211228163833    4P0P  00001800000000698400000983632D2    TGYOT-G 006400630015
BI00B32D2    DGTC2212       202202037289-6547                HOUSING FEMALE ASS'Y     CCN000019200000019200FN00000000020220301000019200NNMD0220211228141727    1N0N  00000240000001152000001362032D2    TGYOT-G 005500360039
BI00B32D9    I10353         202201037289-3342-30             HOUSING FEMALE ASS'Y     CCN000093600000024000FN00000000020220101000024000NNM00020211228134341    1N0N  00000240000000686400000901432D9    UEHESTO 005500360039
BI00B32D9    I10353         202201037289-3342-30             HOUSING FEMALE ASS'Y     CCN000024000000024000FN00000000020220101000024000NNMD0020211228134341    1N0N  00000240000000686400000901432D9    UEHESTO 005500360039
BI00B32D9    I10353         202201037289-3342-40             HOUSING FEMALE ASS'Y     CCN000004800000009600FN00000000020220101000009600NNM00020211228134357    1N0N  00000240000000686400000901432D9    UEHESTO 005500360039
BI00B32D9    I20201         202201037289-3342-30             HOUSING FEMALE ASS'Y     CCN000079200000079200FN00000000020220101000079200NNM00020211228134631    1N0N  00000240000000686400000901432D9    UEHESTO 005500360039
BI00B32G0    TZ22021EMW     202112287289-6547                HOUSING FEMALE ASS'Y     CCN000024000000024000FY00002400020220201000000000NNM00020211228155923    1N0N  00000240000001152000001362032G0    TTTJY   005500360039
BI00A32G2    SA21114 MW     202112277287-1917                CONNECTOR FEMALE         CCN000026400000026400FY00002640020211101000000000NNM00020211228140010    4N0N  00000240000001060800001312532G2    AISUAI  005500360039
BI00A32G2    SA21121 MW     202112277287-1917                CONNECTOR FEMALE         CCN000014400000014400FY00001440020211201000000000NNM00020211228140331    4N0N  00000240000001060800001312532G2    AISUAI  005500360039
BI00A32G7    #JJ21124MMW    202201057172-5630-40             RUBBER STOPPER           PCN000320000000320000FN00000000020211201000320000NNM00020211228143155    2H0H  00002000000000044000000095132G7    JIJAI   004300270014
BI00A32G7    #JJ22011MMW    202201117172-5630-40             RUBBER STOPPER           PCN000200000000200000FN00000000020220101000200000NNMM0020211228143155    2H0H  00002000000000044000000095132G7    JIJAI   004300270014
BI00A32G7    JJ2201D MW     202112277116-4028-08             TERMINAL FEMALE          CCN000176000000176000FY00017600020220101000000000NNE00020211228140111    4P0P  00001600000000652800000981532G7    JIJAI   006400630017
BI00A32G7    JJ2202B MW     202112277017-1181-02             TERMINAL                 CCN000063000000063000FY00006300020220201000000000NNE00020211228140206    4P0P  00006300000001089900001266832G7    JIJAI   005100280028
BI00A32G7    #JJ2202B MW    202112277158-3003-90             RUBBER STOPPER           CCN000200000000200000FY00020000020220201000000000NNE00020211228140138    2C0C  00002000000000250000000306032G7    JIJAI   002700430014
BI00A32G7    JJ22021 MW     202112277017-1181-02             TERMINAL                 CCN000063000000063000FY00006300020220201000000000NNM00020211228140255    4P0P  00006300000001089900001266832G7    JIJAI   005100280028
BI00A32G7    JJ2202B MW     202112277116-4028-08             TERMINAL FEMALE          CCN000032000000032000FY00003200020220201000000000NNE00020211228140218    4P0P  00001600000000652800000981532G7    JIJAI   006400630017
BI00A32H2    #TIJ1123       202201057172-5630-40             RUBBER STOPPER           PCN000100000000100000FN00000000020211201000100000NNMM0020211228143334    2H0H  00002000000000044000000095132H2    HVYHV   004300270014
BI00A32H2    #TIJ2013       202201037282-5845                HOUSING MALE ASS'Y       PCN000008000000004000FN00000000020220101000004000NNM00020211228132212    2N0N  00000400000001068000001178032H2    HVYHV   005400370024
BI00B32H2    TIJ202N        202201217116-4020                TERMINAL                 CCN000067500000067500FN00000000020220201000067500NNE   20211228124008    4P0P  00001350000000513000000798232H2    HVYHV   006400630015
BI00B32J1    389544         202201107298-1869-30             HOUSING FEMALE ASS'Y     CCN000026400000015600FN00000000020220101000015600NNMQ0820211228124008    4N0N  00000120000000737000000939832J1    UKYEL-BL005500360039
BI00A32M3    SM22022 MW     202201047116-4114-02             TERMINAL                 CCN000010500000010500FN00000000020220201000010500NNMM0020211228143738    4P0P  00001050000000693000000981232M3    SASAMI  006400630015
BI00A32M3    SM22022 MW     202201047116-4780-02             TERMINAL FEMALE          CCN000015000000015000FN00000000020220201000015000NNMM0020211228143738    4P0P  00001500000000691500000985732M3    SASAMI  006400630015
BI00A32M3    SM22022MMW     202201047116-4116-02             TERMINAL                 CCN000006900000006900FN00000000020220201000006900NNMM0020211228143738    4P0P  00000690000000517500000805732M3    SASAMI  006400630015
BI00B32M3    SM22022MMW     202201137283-1288-10             CONNECTOR HOUSING        CCN000002400000002400FN00000000020220201000002400NNM00020211228124008    4N0N  00000120000001381000001637032M3    SASAMI  005600390040
BI00B32M3    SM22031 MW     202202037286-3885                CONNECTOR MALE ASS'Y     CCN000015600000008400FN00000000020220301000008400NNMQ0220211228141818    1N0N  00000120000000910600001130632M3    SASAMI  005500360039
BI00B32M3    SM22032 MW     202202177286-3885                CONNECTOR MALE ASS'Y     CCN000008400000008400FN00000000020220301000008400NNMD0220211228141919    1N0N  00000120000000910600001130632M3    SASAMI  005500360039
BI00B32M3    SM22033 MW     202202247286-3885                CONNECTOR MALE ASS'Y     CCN000007200000007200FN00000000020220301000007200NNMD0220211228141938    1N0N  00000120000000910600001130632M3    SASAMI  005500360039
BI00B32M3    SM22034 MW     202203037286-3885                CONNECTOR MALE ASS'Y     CCN000007200000007200FN00000000020220301000007200NNMD0220211228141957    1N0N  00000120000000910600001130632M3    SASAMI  005500360039
BI00B32M3    SM22031 MW     202202107286-3885                CONNECTOR MALE ASS'Y     CCN000007200000007200FN00000000020220301000007200NNMD0220211228141825    1N0N  00000120000000910600001130632M3    SASAMI  005500360039
BI00B32N1    #NST2113-1ECU  202201037157-7812                SEAL RUBBER              CCN000050000000050000FN00000000020211201000050000NNE00020211228124008    2C0C  00001000000000137000000202032N1    TAYIPL  002700430014
BI00A32N3    NBT112 A3      202112277289-3342-30             HOUSING FEMALE ASS'Y     PCN000031200000031200FY00003120020211201000000000NNM00020211228140039    1N0N  00000240000000686400000901432N3    ABYIPL-B005500360039
BI00B32N3    NBT112 A4      202201037388-2978-30             HOUSING MALE ASS'Y       CCN000007680000007680FN00000000020211201000007680NNM00020211228124008    1N0N  00000048000000742000001122032N3    ABYIPL-B005500360039
BI00B32Q8    EU2202JTMW     202201267327-6950-30             MULTI FUSE               CCN000000864000000864FN00000000020220201000000864NNED0420211228124008    4N00  00000028800000888700001054632Q8    EMEMI   005400370024
BI00B32Q8    EU2202LTMW     202202027327-6950-30             MULTI FUSE               CCN000000864000000864FN00000000020220201000000864NNED0420211228124008    4N00  00000028800000888700001054632Q8    EMEMI   005400370024
BI00B32R7    R-TAP210629    202201277183-8255-40             HOUSING                  CCN000075600000075600FN00000000020220101000075600NNED0120211228145759    1F0F  00000120000000552000000853732R7    IVYCIC  005500360039
BI00B32R7    R-TAP210629    202201277183-8256-40             HOUSING                  CCN000075600000075600FN00000000020220101000075600NNED0120211228145815    1F0F  00000120000000937000001045732R7    IVYCIC  005500360039
BI00B32U9    #TP0376S       202201037047-1611-30             CLIP                     CCN000002000000002000FN00000000020220101000002000NNE00020211228132237U9  2F0F  00000200000001600000001739032U9    YNYNA-E 005600390040
BI00B32U9    #TP0379S       202201037147-9094                RETAINER                 CCN000006000000006000FN00000000020220201000006000NNE00020211228132300U9  2F0F  00000300000000717000000872932U9    YNYNA-E 005500360039
BI00B32U9    #TP0379S       202201037157-3891                RUBBER STOPPER           CCN000150000000150000FN00000000020220201000150000NNE00020211228132300U9  2H0H  00001000000000145000000241732U9    YNYNA-E 004300270014
BI00B32U9    TP0381S        202202107298-1186-40             SQUIB SUB ASS'Y          CCN000010000000010000FN00000000020220201000010000NNED0220211228145922U9  4N0N  00001000000000650000000774532U9    YNYNA-E 005400370024
BI00B32U9    TPA208         202202107298-1186-40             SQUIB SUB ASS'Y          CCN000010000000010000FN00000000020220201000010000NNMD0220211228145845U9  4N0N  00001000000000650000000774532U9    YNYNA-E 005400370024
BI00A32W2    HN2201BWMW     202201117327-6870-30             MULTI FUSE               CCN000000288000000288FN00000000020220101000000288NNEM0020211228132445    4N0N  00000028800001015200001181132W2    HNHNY   005400370024
BI00A32W2    HN2201BWMW     202201117327-6880-30             MULTI FUSE               CCN000000288000000288FN00000000020220101000000288NNEM0020211228132445    4N0N  00000028800001012600001178532W2    HNHNY   005400370024
BI00A32W2    HN2201BWMW     202201117327-6884-30             MULTI FUSE               CCN000000576000000576FN00000000020220101000000576NNEM0020211228132445    4N0N  00000028800000988900001154832W2    HNHNY   005400370024
BI00B32W4    4500179028     202201047289-9553-50             SEALED ASSY FEMALE       CCN000067620000067620FN00000000020211001000067620NNEM0020211228163812W4564N0N  00000294000001108100001520632W456  HJYHK   005500360039
BI00B32W4    4500182195     202201137289-9553-50             SEALED ASSY FEMALE       CCN000026460000026460FN00000000020220101000026460NNED0020211228155218W4N64N0N  00000294000001108100001520632W4N6  HJYHK-J 005500360039
BI00B32W4    4500182457     202201277158-3168-80             SEALED                   CCN001000000001000000FN00000000020220101001000000NNED0220211228124008W4B71C0C  00002000000000044000000092132W4B7  HJYHK-J 004300260014
BI00B32W4    4500182927     202202107158-3168-80             SEALED                   CCN001000000001000000FN00000000020220101001000000NNED0220211228124008W4B71C0C  00002000000000044000000092132W4B7  HJYHK-J 004300260014
BI00B32W4    4500182929     202203177158-3168-80             SEALED                   CCN001000000001000000FN00000000020220201001000000NNED0220211228124008W4B71C0C  00002000000000044000000092132W4B7  HJYHK-J 004300260014
BI00B32W4    4500183741     202202177158-3168-80             SEALED                   CCN001000000001000000FN00000000020220101001000000NNED0220211228124008W4B71C0C  00002000000000044000000092132W4B7  HJYHK-J 004300260014
BI00B32W4    4500183873     202201207289-9553-50             SEALED ASSY FEMALE       CCN000002940000002940FN00000000020211201000002940NNED0420211228155719W4D44N0N  00000294000001108100001520632W4D4  HJYHK-J 005500360039
BI00B32W4    4500184172     202201137289-9553-50             SEALED ASSY FEMALE       CCN000002940000002940FN00000000020220101000002940NNED0020211228155447W4D44N0N  00000294000001108100001520632W4D4  HJYHK-J 005500360039
BI00A32W4    4500184541     202203177114-4110-02             TERMINAL                 CCN000015000000015000FN00000000020220301000015000NNED0020211228135704W4604P0P  00001500000000901500001230132W460  HJYHK   006400630017
BI00B32W4    4500184942     202203037158-3168-80             SEALED                   CCN001000000001000000FN00000000020220201001000000NNED0220211228124008W4B71C0C  00002000000000044000000092132W4B7  HJYHK-J 004300260014
BI00B32W4    4500185149     202201207289-9553-50             SEALED ASSY FEMALE       CCN000005880000005880FN00000000020220101000005880NNED0020211228160158W4D44N0N  00000294000001108100001520632W4D4  HJYHK-J 005500360039
BI00B32W4    4500186589     202202157158-3167-80             WIRE SEAL                CCN000040000000040000FN00000000020220201000040000NNE   20211228124008W41 1C0C  00002000000000048000000109032W41   HJYHK   002700430014
BI00B32W4    4500186605     202202107172-5540-80             SEALED WIRE SEAL         CCN000020000000020000FN00000000020220201000020000NNE   20211228124008W4D41C0C  00002000000000186000000234432W4D4  HJYHK-J 004300270014
BI00B32W4    4500186605     202202107289-9553-50             SEALED ASSY FEMALE       CCN000002940000002940FN00000000020220201000002940NNE   20211228124008W4D44N0N  00000294000001108100001520632W4D4  HJYHK-J 005500360039
BI00B32W4    4500186605     202202107289-6868-30             SEALED ASSY FEMALE       CCN000005040000005040FN00000000020220201000005040NNE   20211228124008W4D44N0N  00000252000000839200001119232W4D4  HJYHK-J 005500360039
BI00B32W4    4500186605     202202107288-5000                HOUSING MALE ASS'Y       CCN000000672000000672FN00000000020220201000000672NNE   20211228124008W4D41N0N  00000033600000825200001035232W4D4  HJYHK-J 005400370024
BI00B32W4    4500186605     202202107289-5000                HOUSING FEMALE ASS'Y     CCN000000608000000608FN00000000020220201000000608NNE   20211228124008W4D41N0N  00000030400000549000000759032W4D4  HJYHK-J 005400370024
BI00B32W4    4500186605     202202107298-1145-4W             SQUIB SUB ASS'Y          CCN000020000000020000FN00000000020220201000020000NNE   20211228124008W4D44N0N  00001000000000787900000944932W4D4  HJYHK-J 005400370024
BI00B32W4    4500186605     202202107287-9323-40             UNSEALED HOUSING SUB     CCN000002400000002400FN00000000020220201000002400NNE   20211228124008W4D41N0N  00000240000000537600000690032W4D4  HJYHK-J 005600390023
BI00B32W4    4500186605     202202107288-6547                CONNECTOR MALE ASS'Y     CCN000000750000000750FN00000000020220201000000750NNE   20211228124008W4D44N0N  00000075000001205300001340332W4D4  HJYHK-J 005400370024
BI00B32W4    4500186605     202202107116-1685-02             TERMINAL                 CCN000024000000024000FN00000000020220201000024000NNE   20211228124008W4D44P0P  00002400000000897600001065232W4D4  HJYHK-J 005100280028
BI00B32W4    #4500186605    202202107035-0023-30             DASH GROMMET             CCN000000300000000300FN00000000020220201000000300NNE   20211228124008W4D42H0H  00000006000000438000000561032W4D4  HJYHK-J 005600390040
BI00B32W4    #4500186605    202202107174-1164                COVER                    CCN000000800000000800FN00000000020220201000000800NNE   20211228124008W4D42F0F  00000080000000592000000712032W4D4  HJYHK-J 005500360039
BI00B32W4    #4500186605    202202107174-1760-50             CAP                      CCN000003000000003000FN00000000020220201000003000NNE   20211228124008W4D42F0F  00000300000000813600000922632W4D4  HJYHK-J 005400370024
BI00A32W4    4500186617     202202177116-5751-02             TERMINAL                 CCN000012000000012000FN00000000020220201000012000NNE   20211228124008W44 4P0P  00001200000000379200000664432W44   HJYHK   006400630015
BI00A32W4    4500186500     202201177116-4025                TERMINAL                 CCN000016000000016000FN00000000020220101000016000NNE   20211228142451W4L64P0P  00001600000000644800000975132W4L6  HJYHK-K 006400630017
BI00A32W4    4500186501     202201177282-4855                HOUSING MALE ASS'Y       CCN000008400000008400FN00000000020220101000008400NNE   20211228142700W4L64N0N  00000120000001063200001283232W4L6  HJYHK-K 005500360039
BI00A32W4    4500186501     202201177114-6041                TERMINAL                 CCN000028800000028800FN00000000020220101000028800NNE   20211228142700W4L64P0P  00000360000000580700000824232W4L6  HJYHK-K 006400630015
BI00A32W4    4500186501     202201177283-1156                CONNECTOR                CCN000008000000008000FN00000000020220101000008000NNE   20211228142700W4L64N0N  00000080000000877600001078032W4L6  HJYHK-K 005600390040
BI00A32W4    @4500186501    202201177287-6634                HOUSING FEMALE ASS'Y     CCN000009600000009600FN00000000020220101000009600NNE   20211228142656W4L63N0N  00000240000001088400001337032W4L6  HJYHK-K 005500360039
BI00A32W4    4500186502     202201247116-4231-02             TERMINAL                 CCN000026000000026000FN00000000020220101000026000NNE   20211228142723W4L64P0P  00002600000000683800001012532W4L6  HJYHK-K 006400630017
BI00B32W4    4500186505     202202247114-4032                TERMINAL                 CCN000007500000007500FN00000000020220201000007500NNE   20211228142811W4164P0P  00000750000000735000001063632W416  HJYHK   006400630017
BI00B32W4    4500186505     202202247116-4100-02             TERMINAL                 CCN000105000000105000FN00000000020220201000105000NNE   20211228142811W4164P0P  00001500000000696000000990232W416  HJYHK   006400630015
BI00B32W4    4500186505     202202247114-4112-02             TERMINAL                 CCN000036000000036000FN00000000020220201000036000NNE   20211228142811W4164P0P  00000900000000598500000927132W416  HJYHK   006400630017
BI00B32W4    4500186505     202202247116-4121-02             TERMINAL                 CCN000004500000004500FN00000000020220201000004500NNE   20211228142811W4164P0P  00000450000000618800000912432W416  HJYHK   006400630015
BI00B32W4    4500186505     202202247116-4112-02             TERMINAL                 CCN000036000000036000FN00000000020220201000036000NNE   20211228142811W4164P0P  00000600000000450000000738232W416  HJYHK   006400630015
BI00B32W4    4500186505     202202247116-4102-02             TERMINAL                 CCN000024000000024000FN00000000020220201000024000NNE   20211228142811W4164P0P  00001200000000553200000841432W416  HJYHK   006400630015
BI00B32W4    4500186505     202202247116-4025                TERMINAL                 CCN000016000000016000FN00000000020220201000016000NNE   20211228142811W4164P0P  00001600000000644800000975132W416  HJYHK   006400630017
BI00B32W4    4500186505     202202247114-4100-02             TERMINAL                 CCN000090000000090000FN00000000020220201000090000NNE   20211228142811W4164P0P  00001800000000748800001077432W416  HJYHK   006400630017
BI00B32W4    4500186505     202202247116-4231-02             TERMINAL                 CCN000026000000026000FN00000000020220201000026000NNE   20211228142811W4164P0P  00002600000000683800001012532W416  HJYHK   006400630017
BI00B32W4    4500186505     202202247116-4124-02             TERMINAL                 CCN000003000000003000FN00000000020220201000003000NNE   20211228142811W4164P0P  00000300000000459900000753532W416  HJYHK   006400630015
BI00B32W4    4500186505     202202247283-1156                CONNECTOR                CCN000012800000012800FN00000000020220201000012800NNE   20211228142811W4164N0N  00000080000000877600001078032W416  HJYHK   005600390040
BI00B32W4    4500186505     202202247289-6547                HOUSING FEMALE ASS'Y     CCN000016800000016800FN00000000020220201000016800NNE   20211228142811W4161N0N  00000240000001152000001362032W416  HJYHK   005500360039
BI00B32W4    4500186505     202202247283-5548-30             CONNECTOR                CCN000001500000001500FN00000000020220201000001500NNE   20211228142811W4164N0N  00000150000001109000001302032W416  HJYHK   005600390040
BI00B32W4    4500186505     202202247158-3166-60             WIRE SEAL                CCN000040000000040000FN00000000020220201000040000NNE   20211228142811W4161C0C  00004000000000104000000152432W416  HJYHK   002700430014
BI00B32W4    4500186505     202202247116-4101-02             TERMINAL                 CCN000048000000048000FN00000000020220201000048000NNE   20211228142811W4164P0P  00001200000000582000000876232W416  HJYHK   006400630015
BI00B32W4    4500186505     202202247116-4120-02             TERMINAL                 CCN000006000000006000FN00000000020220201000006000NNE   20211228142811W4164P0P  00000600000000780000001073632W416  HJYHK   006400630015
BI00B32W4    4500186505     202202247116-4104-02             TERMINAL                 CCN000048000000048000FN00000000020220201000048000NNE   20211228142811W4164P0P  00001200000000580800000972432W416  HJYHK   006400630015
BI00B32W4    4500186505     202202247116-4103-02             TERMINAL                 CCN000012000000012000FN00000000020220201000012000NNE   20211228142811W4164P0P  00001200000000571200000859432W416  HJYHK   006400630015
BI00B32W4    4500186505     202202247283-1024                CONNECTOR SUB ASSY       CCN000012000000012000FN00000000020220201000012000NNE   20211228142811W4164N0N  00000200000000400000000522532W416  HJYHK   005400370024
BI00B32W4    4500186505     202202247282-1024                HOUSING MALE             CCN000013000000013000FN00000000020220201000013000NNE   20211228142811W4161N0N  00000100000000458000000580532W416  HJYHK   005400370024
BI00B32W4    #4500186505    202202247282-4190-30             CONNECTOR                CCN000002640000002640FN00000000020220201000002640NNE   20211228142802W4162N0N  00000024000000801000001071332W416  HJYHK   005600390040
BI00B32W4    #4500186505    202202247283-4190-30             CONNECTOR                CCN000002400000002400FN00000000020220201000002400NNE   20211228142802W4162N0N  00000024000000846000001115532W416  HJYHK   005600390040
BI00B32W4    #4500186505    202202247158-3003-90             RUBBER STOPPER           CCN000020000000020000FN00000000020220201000020000NNE   20211228142802W4162C0C  00002000000000250000000306032W416  HJYHK   002700430014
BI00B32W4    #4500186505    202202247158-3004-40             RUBBER STOPPER           CCN000020000000020000FN00000000020220201000020000NNE   20211228142802W4162C0C  00002000000000234000000306332W416  HJYHK   002700430014
BI00B32W4    #4500186505    202202247187-1616                HOUSING FEMALE           CCN000004000000004000FN00000000020220201000004000NNE   20211228142802W4162F0F  00000400000001152000001262032W416  HJYHK   005500360039
BI00B32W4    @4500186505    202202247287-6634                HOUSING FEMALE ASS'Y     CCN000007200000007200FN00000000020220201000007200NNE   20211228142807W4163N0N  00000240000001088400001337032W416  HJYHK   005500360039
BI00A32W4    4500186510     202202107158-3009-60             RUBBER STOPPER           CCN000020000000020000FN00000000020220201000020000NNE   20211228142837W4491C0C  00002000000000338000000386232W449  HJYHK   002700430014
BI00B32W4    4500186515     202202037116-4022                TERMINAL                 CCN000148500000148500FN00000000020220201000148500NNE   20211228142913W4514P0P  00001350000000618300000903532W451  HJ32W9  006400630015
BI00B32W4    4500186515     202202037116-4231-02             TERMINAL                 CCN000728000000728000FN00000000020220201000728000NNE   20211228142913W4514P0P  00002600000000683800001012532W451  HJ32W9  006400630017
BI00B32W4    4500186515     202202037282-1248                HOUSING SUB ASSEMBLY     CCN000001200000001200FN00000000020220201000001200NNE   20211228142913W4511N0N  00000060000001167000001372032W451  HJ32W9  005500360039
BI00B32W4    4500186515     202202037283-1020                CONNECTOR                CCN000144000000144000FN00000000020220201000144000NNE   20211228142913W4514N0N  00000600000000840000001049332W451  HJ32W9  005600390040
BI00B32W4    4500186515     202202037283-7028-30             CONNECTOR                CCN000015000000015000FN00000000020220201000015000NNE   20211228142913W4514N0N  00000300000001452000001681332W451  HJ32W9  005600390040
BI00B32W4    4500186515     202202037289-9553-50             SEALED ASSY FEMALE       CCN000002940000002940FN00000000020220201000002940NNE   20211228142913W4514N0N  00000294000001108100001520632W451  HJ32W9  005500360039
BI00B32W4    #4500186515    202202037157-3821                RUBBER STOPPER           CCN000060000000060000FN00000000020220201000060000NNE   20211228142904W4512C0C  00002000000000176000000238032W451  HJ32W9  002700430014
BI00B32W4    #4500186515    202202037174-1760-50             CAP                      CCN000003000000003000FN00000000020220201000003000NNE   20211228142904W4512F0F  00000300000000813600000922632W451  HJ32W9  005400370024
BI00B32W4    @4500186515    202202037282-1060                HOUSING SUB ASSEMBLY     CCN000003200000003200FN00000000020220201000003200NNE   20211228142908W4513N0N  00000160000000955500001169032W451  HJ32W9  005500360039
BI00A32W4    4500186531     202202217116-4102-02             TERMINAL                 CCN000036000000036000FN00000000020220201000036000NNE   20211228142941W4N24P0P  00001200000000553200000841432W4N2  HJYHK-J 006400630015
BI00A32W4    4500186531     202202217116-4101-02             TERMINAL                 CCN000024000000024000FN00000000020220201000024000NNE   20211228142941W4N24P0P  00001200000000582000000876232W4N2  HJYHK-J 006400630015
BI00A32W4    4500186532     202202147114-4112-02             TERMINAL                 CCN000036000000036000FN00000000020220201000036000NNE   20211228143017W4N24P0P  00000900000000598500000927132W4N2  HJYHK-J 006400630017
BI00A32W4    4500186532     202202147116-4111-02             TERMINAL                 CCN000037500000037500FN00000000020220201000037500NNE   20211228143017W4N24P0P  00000750000000529500000817732W4N2  HJYHK-J 006400630015
BI00A32W4    4500186532     202202147114-4111-02             TERMINAL                 CCN000012000000012000FN00000000020220201000012000NNE   20211228143017W4N24P0P  00001200000000758400001087032W4N2  HJYHK-J 006400630017
BI00A32W4    4500186532     202202147114-4110-02             TERMINAL                 CCN000015000000015000FN00000000020220201000015000NNE   20211228143017W4N24P0P  00001500000000901500001230132W4N2  HJYHK-J 006400630017
BI00A32W4    4500186532     202202147158-3167-80             WIRE SEAL                CCN000020000000020000FN00000000020220201000020000NNE   20211228143017W4N21C0C  00002000000000048000000109032W4N2  HJYHK-J 002700430014
BI00A32W4    4500186533     202202077116-4112-02             TERMINAL                 CCN000006000000006000FN00000000020220201000006000NNE   20211228143053W4N24P0P  00000600000000450000000738232W4N2  HJYHK-J 006400630015
BI00A32W4    4500186533     202202077116-4110-02             TERMINAL                 CCN000009000000009000FN00000000020220201000009000NNE   20211228143053W4N24P0P  00000900000000594000000882232W4N2  HJYHK-J 006400630015
BI00B32W4    4500186534     202202247283-5843                CONNECTOR                CCN000001500000001500FN00000000020220201000001500NNE   20211228143124W4171N0N  00000150000000889000001132032W417  HJYHK   005600390040
BI00B32W4    #4500186534    202202247183-8927                HOUSING                  CCN000004000000004000FN00000000020220201000004000NNE   20211228143120W4172F0F  00000400000000714000000912732W417  HJYHK   005500360039
BI00B32W4    #4500186534    202202247282-3020                CONNECTOR                CCN000001000000001000FN00000000020220201000001000NNE   20211228143120W4172N0N  00000100000000984000001145432W417  HJYHK   005500360039
BI00B32W4    #4500186534    202202247287-2641                HOUSING FEMALE ASS'Y     CCN000002800000002800FN00000000020220201000002800NNE   20211228143120W4172N0N  00000280000001246000001356032W417  HJYHK   005400370024
BI00B32W4    #4500186534    202202247287-1674                HYBRID FEMALE ASS'Y      CCN000002000000002000FN00000000020220201000002000NNE   20211228143120W4172N0N  00000200000000810800001002832W417  HJYHK   005400370024
BI00B32W4    #4500186535    202203107147-3642-30             CLIP                     CCN000042000000042000FN00000000020220301000042000NNE   20211228143248W4172F0F  00000300000000542000000721332W417  HJYHK   005600390040
BI00B32W4    4500186557     202202107116-4103-02             TERMINAL                 CCN000024000000024000FN00000000020220201000024000NNE   20211228143325W4374P0P  00001200000000571200000859432W437  HJYHK   006400630015
BI00B32W4    4500186557     202202107116-4022                TERMINAL                 CCN000013500000013500FN00000000020220201000013500NNE   20211228143325W4374P0P  00001350000000618300000903532W437  HJYHK   006400630015
BI00B32W4    4500186557     202202107116-4026                TERMINAL                 CCN000016000000016000FN00000000020220201000016000NNE   20211228143325W4374P0P  00001600000000664000000994332W437  HJYHK   006400630017
BI00B32W4    4500186557     202202107116-4112-02             TERMINAL                 CCN000012000000012000FN00000000020220201000012000NNE   20211228143325W4374P0P  00000600000000450000000738232W437  HJYHK   006400630015
BI00B32W4    4500186557     202202107116-4028-08             TERMINAL FEMALE          CCN000032000000032000FN00000000020220201000032000NNE   20211228143325W4374P0P  00001600000000652800000981532W437  HJYHK   006400630017
BI00B32W4    4500186557     202202107116-4102-02             TERMINAL                 CCN000060000000060000FN00000000020220201000060000NNE   20211228143325W4374P0P  00001200000000553200000841432W437  HJYHK   006400630015
BI00B32W4    4500186557     202202107158-3166-60             WIRE SEAL                CCN000080000000080000FN00000000020220201000080000NNE   20211228143325W4371C0C  00004000000000104000000152432W437  HJYHK   002700430014
BI00B32W4    4500186557     202202107283-1968-30             CONNECTOR                CCN000007200000007200FN00000000020220201000007200NNE   20211228143325W4371N0N  00000090000001140000001318332W437  HJYHK   005600390040
BI00B32W4    4500186557     202202107158-3169-40             SEALING PLUG             CCN000040000000040000FN00000000020220201000040000NNE   20211228143325W4371C0C  00004000000000156000000204132W437  HJYHK   004300260014
BI00B32W4    4500186557     202202107116-5045-02             TERMINAL                 CCN000016000000016000FN00000000020220201000016000NNE   20211228143325W4374P0P  00001600000000678400001007132W437  HJYHK   006400630017
BI00B32W4    #4500186557    202202107158-3004-40             RUBBER STOPPER           CCN000020000000020000FN00000000020220201000020000NNE   20211228143320W4372C0C  00002000000000234000000306332W437  HJYHK   002700430014
BI00B32W4    4500186558     202201277116-4103-02             TERMINAL                 CCN000036000000036000FN00000000020220101000036000NNE   20211228143343W4374P0P  00001200000000571200000859432W437  HJYHK   006400630015
BI00B32W4    4500186558     202201277116-4026                TERMINAL                 CCN000016000000016000FN00000000020220101000016000NNE   20211228143343W4374P0P  00001600000000664000000994332W437  HJYHK   006400630017
BI00B32W4    4500186558     202201277116-4028-08             TERMINAL FEMALE          CCN000016000000016000FN00000000020220101000016000NNE   20211228143343W4374P0P  00001600000000652800000981532W437  HJYHK   006400630017
BI00B32W4    4500186558     202201277158-3166-60             WIRE SEAL                CCN000080000000080000FN00000000020220101000080000NNE   20211228143343W4371C0C  00004000000000104000000152432W437  HJYHK   002700430014
BI00B32W4    4500186558     202201277283-1968-30             CONNECTOR                CCN000007200000007200FN00000000020220101000007200NNE   20211228143343W4371N0N  00000090000001140000001318332W437  HJYHK   005600390040
BI00B32W4    4500186559     202201137116-4103-02             TERMINAL                 CCN000024000000024000FN00000000020220101000024000NNE   20211228143430W4374P0P  00001200000000571200000859432W437  HJYHK   006400630015
BI00B32W4    4500186559     202201137116-4028-08             TERMINAL FEMALE          CCN000032000000032000FN00000000020220101000032000NNE   20211228143430W4374P0P  00001600000000652800000981532W437  HJYHK   006400630017
BI00B32W4    4500186559     202201137283-1968-30             CONNECTOR                CCN000007200000007200FN00000000020220101000007200NNE   20211228143430W4371N0N  00000090000001140000001318332W437  HJYHK   005600390040
BI00B32W4    4500186559     202201137116-5045-02             TERMINAL                 CCN000016000000016000FN00000000020220101000016000NNE   20211228143430W4374P0P  00001600000000678400001007132W437  HJYHK   006400630017
BI00B32W4    #4500186559    202201137158-3004-40             RUBBER STOPPER           CCN000020000000020000FN00000000020220101000020000NNE   20211228143425W4372C0C  00002000000000234000000306332W437  HJYHK   002700430014
BI00B32W4    4500186560     202201137116-4103-02             TERMINAL                 CCN000012000000012000FN00000000020211201000012000NNED0720211228143547W4374P0P  00001200000000571200000859432W437  HJYHK   006400630015
BI00B32W4    4500186560     202201137116-4028-08             TERMINAL FEMALE          CCN000016000000016000FN00000000020211201000016000NNED0720211228143547W4374P0P  00001600000000652800000981532W437  HJYHK   006400630017
BI00B32W4    4500186560     202201137283-1968-30             CONNECTOR                CCN000000900000000900FN00000000020211201000000900NNED0720211228143547W4371N0N  00000090000001140000001318332W437  HJYHK   005600390040
BI00B32W4    4500186560     202201137116-5045-02             TERMINAL                 CCN000016000000016000FN00000000020211201000016000NNED0720211228143547W4374P0P  00001600000000678400001007132W437  HJYHK   006400630017
BI00B32W6    SW2202BQMW     202201267C89-6868-30             SEALED ASSY FEMALE       CCN000025200000025200FN00000000020220201000025200NNED0420211228124008    4N0N  00000252000000839200001119232W6    SYSYA-WJ005500360039
BI00B32W9    #4500186572    202203087282-1030                CONNECTOR MALE ASS'Y     CCN000011000000011000FN00000000020220301000011000NNE   20211228124008W9  2N0N  00000100000000365000000487532W9    HKYHK   005400370024
BI00B32W9    #4500186573    202202227186-8845                HOUSING MALE             CCN000006000000006000FN00000000020220201000006000NNE   20211228124008W9  2F0F  00000300000000690000000801532W9    HKYHK   005400370024
BI00B32Y1    TA2031A        202202077287-9323                UNSEALED HOUSING SUB     CCN000004800000004800FN00000000020220301000004800NNM   20211228124008    1N0N  00000240000000537600000690032Y1    YAYAS   005600390023
BI00B32Y1    TA2032A        202202217287-9323                UNSEALED HOUSING SUB     CCN000004800000004800FN00000000020220301000004800NNM   20211228124008    1N0N  00000240000000537600000690032Y1    YAYAS   005600390023
BI00B32Y1    TA2031A        202202077289-3342-30             HOUSING FEMALE ASS'Y     CCN000019200000019200FN00000000020220301000019200NNM   20211228124008    1N0N  00000240000000686400000901432Y1    YAYAS   005500360039
BI00B32Y1    TA2032A        202202217289-3342-30             HOUSING FEMALE ASS'Y     CCN000016800000016800FN00000000020220301000016800NNM   20211228124008    1N0N  00000240000000686400000901432Y1    YAYAS   005500360039
BI00B32Y1    TA2031A        202202077388-2978-30             HOUSING MALE ASS'Y       CCN000014400000014400FN00000000020220301000014400NNM   20211228124008    1N0N  00000048000000742000001122032Y1    YAYAS   005500360039
BI00B32Y1    TA2032A        202202217388-2978-30             HOUSING MALE ASS'Y       CCN000014400000014400FN00000000020220301000014400NNM   20211228124008    1N0N  00000048000000742000001122032Y1    YAYAS   005500360039
BI00B32Y1    TA2031A        202202077116-4037                TERMINAL                 CCN000026400000030000FN00000000020220301000030000NNM   20211228124008    4P0P  00000600000000600000000894232Y1    YAYAS   006400630015
BI00B32Y1    TA2032A        202202217116-4037                TERMINAL                 CCN000019800000024000FN00000000020220301000024000NNM   20211228124008    4P0P  00000600000000600000000894232Y1    YAYAS   006400630015
BI00B32Y1    TA2031A        202202077114-6041                TERMINAL                 CCN000007200000007200FN00000000020220301000007200NNM   20211228124008    4P0P  00000360000000580700000824232Y1    YAYAS   006400630015
BI00B32Y1    TA2032A        202202217114-6041                TERMINAL                 CCN000007200000007200FN00000000020220301000007200NNM   20211228124008    4P0P  00000360000000580700000824232Y1    YAYAS   006400630015
BI00B32Y1    TA2031A        202202077158-3070-80             RUBBER STOPPER           CCN000040000000040000FN00000000020220301000040000NNM   20211228124008    1C0C  00004000000000276000000333332Y1    YAYAS   002700430014
BI00B32Y1    TA2032A        202202217158-3070-80             RUBBER STOPPER           CCN000040000000040000FN00000000020220301000040000NNM   20211228124008    1C0C  00004000000000276000000333332Y1    YAYAS   002700430014
BI00B32Y1    TA2031A        202202077158-3009-60             RUBBER STOPPER           CCN000160000000160000FN00000000020220301000160000NNM   20211228124008    1C0C  00002000000000338000000386232Y1    YAYAS   002700430014
BI00B32Y1    TA2032A        202202217158-3009-60             RUBBER STOPPER           CCN000140000000140000FN00000000020220301000140000NNM   20211228124008    1C0C  00002000000000338000000386232Y1    YAYAS   002700430014
BI00B32Y1    TA2031A        202202077116-5750-02             TERMINAL                 CCN000060000000060000FN00000000020220301000060000NNM   20211228124008    4P0P  00001500000000457500000742732Y1    YAYAS   006400630015
BI00B32Y1    TA2032A        202202217116-5750-02             TERMINAL                 CCN000045000000045000FN00000000020220301000045000NNM   20211228124008    4P0P  00001500000000457500000742732Y1    YAYAS   006400630015
BI00B32Y1    TA2031A        202202077196-0510-02             TERMINAL                 CCN000024000000024000FN00000000020220301000024000NNM   20211228124008    4P0P  00002400000000871200001034632Y1    YAYAS   002800510028
BI00B32Y1    TA2031A        202202077158-3006-90             RUBBER STOPPER           CCN000420000000420000FN00000000020220301000420000NNM   20211228124008    1C0C  00002000000000330600000386032Y1    YAYAS   002700430014
BI00B32Y1    TA2032A        202202217158-3006-90             RUBBER STOPPER           CCN000400000000400000FN00000000020220301000400000NNM   20211228124008    1C0C  00002000000000330600000386032Y1    YAYAS   002700430014
BI00B32Y1    #TA2031A       202202077158-3005-80             RUBBER STOPPER           CCN000040000000040000FN00000000020220301000040000NNM   20211228124008    2H0H  00002000000000210000000268732Y1    YAYAS   002700430014
BI00B32Y1    #TA2032A       202202217158-3005-80             RUBBER STOPPER           CCN000020000000020000FN00000000020220301000020000NNM   20211228124008    2H0H  00002000000000210000000268732Y1    YAYAS   002700430014
BI00B32Y1    #TA2031A       202202077189-2978-30             HOUSING FEMALE           CCN000010500000010500FN00000000020220301000010500NNM   20211228124008    2F0F  00000150000000966900001096932Y1    YAYAS   005400370024
BI00B32Y1    #TA2032A       202202217189-2978-30             HOUSING FEMALE           CCN000010500000010500FN00000000020220301000010500NNM   20211228124008    2F0F  00000150000000966900001096932Y1    YAYAS   005400370024
BI00B32Y1    #TA2031A       202202077189-3032                HOUSING FEMALE           CCN000012800000012800FN00000000020220301000012800NNM   20211228124008    2F0F  00000160000000788400001018432Y1    YAYAS   005500360039
BI00B32Y1    #TA2032A       202202217189-3032                HOUSING FEMALE           CCN000011200000011200FN00000000020220301000011200NNM   20211228124008    2F0F  00000160000000788400001018432Y1    YAYAS   005500360039
BI00B32Y1    #TA2031A       202202077189-3037                HOUSING FEMALE           CCN000004800000004800FN00000000020220301000004800NNM   20211228124008    2F0F  00000480000000806400001066432Y1    YAYAS   005500360039
BI00B32Y1    #TA2031A       202202077289-2912-30             HOUSING FEMALE ASS'Y     CCN000002000000002000FN00000000020220301000002000NNM   20211228124008    2N0N  00000200000000804000000929032Y1    YAYAS   005400370024
BI00B32Y1    #TA2031A       202202077289-2914                HOUSING FEMALE ASS'Y     CCN000007500000007500FN00000000020220301000007500NNM   20211228124008    2N0N  00000150000000906000001033032Y1    YAYAS   005400370024
BI00B32Y1    #TA2032A       202202217289-2914                HOUSING FEMALE ASS'Y     CCN000006000000006000FN00000000020220301000006000NNM   20211228124008    2N0N  00000150000000906000001033032Y1    YAYAS   005400370024
BI00B32Y1    #TA2031A       202202077289-2915-30             HOUSING FEMALE ASS'Y     CCN000007500000007500FN00000000020220301000007500NNM   20211228124008    2N0N  00000150000000964500001091532Y1    YAYAS   005400360024
BI00B32Y1    #TA2032A       202202217289-2915-30             HOUSING FEMALE ASS'Y     CCN000006000000006000FN00000000020220301000006000NNM   20211228124008    2N0N  00000150000000964500001091532Y1    YAYAS   005400360024
BI00B32Y1    #TA2031A       202202077289-2916-30             HOUSING FEMALE ASS'Y     CCN000004000000004000FN00000000020220301000004000NNM   20211228124008    2N0N  00000100000000857000001084032Y1    YAYAS   005400360024
BI00B32Y1    #TA2032A       202202217289-2916-30             HOUSING FEMALE ASS'Y     CCN000004000000004000FN00000000020220301000004000NNM   20211228124008    2N0N  00000100000000857000001084032Y1    YAYAS   005400360024
BI00B32Y1    #TA2031A       202202077289-2918-40             HOUSING FEMALE ASS'Y     CCN000001000000001000FN00000000020220301000001000NNM   20211228124008    2N0N  00000100000001020000001147032Y1    YAYAS   005400360024
BI00B32Y1    #TA2031A       202202077289-2919-30             HOUSING FEMALE ASS'Y     CCN000007500000007500FN00000000020220301000007500NNM   20211228124008    2N0N  00000150000000907500001034532Y1    YAYAS   005400360024
BI00B32Y1    #TA2032A       202202217289-2919-30             HOUSING FEMALE ASS'Y     CCN000006000000006000FN00000000020220301000006000NNM   20211228124008    2N0N  00000150000000907500001034532Y1    YAYAS   005400360024
BI00B32Y1    #TA2031A       202202077154-5597-30             CASSETTE R/B             CCN000020000000020000FN00000000020220301000020000NNM   20211228124008    2F0F  00000080000000736000000952032Y1    YAYAS   005500360039
BI00B32Y1    #TA2032A       202202217154-5597-30             CASSETTE R/B             CCN000020000000020000FN00000000020220301000020000NNM   20211228124008    2F0F  00000080000000736000000952032Y1    YAYAS   005500360039
BI00B32Y1    #TA2031A       202202077158-3008-80             RUBBER STOPPER           CCN000100000000100000FN00000000020220301000100000NNM   20211228124008    2C0C  00002000000000288000000343032Y1    YAYAS   004300270014
BI00B32Y1    #TA2032A       202202217158-3008-80             RUBBER STOPPER           CCN000100000000100000FN00000000020220301000100000NNM   20211228124008    2C0C  00002000000000288000000343032Y1    YAYAS   004300270014
BI00B32Y1    #TA2031A       202202077158-3017                RUBBER STOPPER           CCN000020000000020000FN00000000020220301000020000NNM   20211228124008    2C0C  00001000000000375500000435032Y1    YAYAS   002700430014
BI00B32Y1    #TA2032A       202202217158-3017                RUBBER STOPPER           CCN000010000000010000FN00000000020220301000010000NNM   20211228124008    2C0C  00001000000000375500000435032Y1    YAYAS   002700430014
BI00B32Y1    #TA2031A       202202077158-3003-90             RUBBER STOPPER           CCN000220000000220000FN00000000020220301000220000NNM   20211228124008    2C0C  00002000000000250000000306032Y1    YAYAS   002700430014
BI00B32Y1    #TA2032A       202202217158-3003-90             RUBBER STOPPER           CCN000200000000200000FN00000000020220301000200000NNM   20211228124008    2C0C  00002000000000250000000306032Y1    YAYAS   002700430014
BI00B32Y1    #TA2031A       202202077158-3007-10             RUBBER STOPPER           CCN000020000000020000FN00000000020220301000020000NNM   20211228124008    2H0H  00002000000000308000000362732Y1    YAYAS   002700430014
BI00B32Y1    #TA2032A       202202217158-3007-10             RUBBER STOPPER           CCN000020000000020000FN00000000020220301000020000NNM   20211228124008    2H0H  00002000000000308000000362732Y1    YAYAS   002700430014
BI00B32Y1    #TA2031A       202202077158-3015-10             RUBBER STOPPER           CCN000010000000010000FN00000000020220301000010000NNM   20211228124008    2C0C  00001000000000419500000474032Y1    YAYAS   002700430014
BI00B32Y2    TAU1151        202112217289-3342-30             HOUSING FEMALE ASS'Y     CCN000062400000014400FY00001440020220201000000000NNE00020211228110307    1N0N  00000240000000686400000901432Y2    YUYUY   005500360039
BI00B32Y2    TAU1151        202112217289-3342-30             HOUSING FEMALE ASS'Y     CCN000014400000014400FY00001440020220201000000000NNE00020211228110307    1N0N  00000240000000686400000901432Y2    YUYUY   005500360039
BI00B32Y4    MTH32041       202201037288-5000                HOUSING MALE ASS'Y       CCN000009744000009744FN00000000020220101000009744NNM00020211228134806    1N0N  00000033600000825200001035232Y4    BIYAB-I 005400370024
BI00B32Y4    MTH32041       202201037289-4696-30             HOUSING FEMALE ASS'Y     CCN000006000000006000FN00000000020220101000006000NNM00020211228134806    4N0N  00000200000000913400001055432Y4    BIYAB-I 005400370024
BI00B32Y4    MTH32041       202201037289-5000                HOUSING FEMALE ASS'Y     CCN000005776000005776FN00000000020220101000005776NNM00020211228134806    1N0N  00000030400000549000000759032Y4    BIYAB-I 005400370024
BI00B32Y4    MTH32042       202112037288-5000                HOUSING MALE ASS'Y       CCN000009072000009072FY00000907220220101000000000NNM00020211228134830    1N0N  00000033600000825200001035232Y4    BIYAB-I 005400370024
BI00B32Y4    MTH32042       202201037289-5000                HOUSING FEMALE ASS'Y     CCN000011856000011856FN00000000020220101000011856NNM00020211228134830    1N0N  00000030400000549000000759032Y4    BIYAB-I 005400370024
BI00B32Y4    MTH32043       202201037288-5000                HOUSING MALE ASS'Y       CCN000007056000007056FN00000000020211001000007056NNE00020211228134859    1N0N  00000033600000825200001035232Y4    BIYAB-I 005400370024
BI00B32Y4    MTH32043       202201037289-4696-30             HOUSING FEMALE ASS'Y     CCN000004000000004000FN00000000020211001000004000NNE00020211228134859    4N0N  00000200000000913400001055432Y4    BIYAB-I 005400370024
BI00B32Y4    MTH32043       202201037289-5000                HOUSING FEMALE ASS'Y     CCN000011856000011856FN00000000020211001000011856NNE00020211228134859    1N0N  00000030400000549000000759032Y4    BIYAB-I 005400370024
BI00B32Y5    TAT32031       202201037116-3154-02             TERMINAL FEMALE          CCN000108000000108000FN00000000020220301000108000NNM00020211228135242    4P0P  00002700000000469800000755032Y5    BZYBL   006400630015
BI00B32Y5    TTA32042       202201037282-4576                HOUSING MALE ASS'Y       CCN000002400000002400FN00000000020220401000002400NNM00020211228135354    4N0N  00000240000000808800001028832Y5    BZYBL   005500360039
BI00A32Y5    TTA32041       202201107283-5845-40             CONNECTOR HOUSING        CCN000036000000012000FN00000000020220401000012000NNM00020211228124008    1N0N  00000600000000444000000606332Y5    BZYBL   005400370024
BI00B32Y5    TTA32041       202201107283-5845-40             CONNECTOR HOUSING        CCN000036000000012000FN00000000020220401000012000NNM00020211228160520    1N0N  00000600000000444000000606332Y5    BZYBL   005400370024
BI00B32Y6    STAP31121      202201037158-3009-60             RUBBER STOPPER           CCN000420000000420000FN00000000020211001000420000NNM00020211228135135    1C0C  00002000000000338000000386232Y6    BSYBL-S 002700430014
BI00B32Y6    STAP32021      202201037158-3009-60             RUBBER STOPPER           CCN000420000000420000FN00000000020220101000420000NNM00020211228135155    1C0C  00002000000000338000000386232Y6    BSYBL-S 002700430014
BI00A32Y8    TAIM21121      202201257283-1020                CONNECTOR                CCN000120000000024000FN00000000020220501000024000NNEQ0220211228131101Y8  4N0N  00000600000000840000001049332Y8    CLYCL   005600390040
BI00A32Y8    TAIM21121      202201257283-6036                CONNECTOR HOUSING        CCN000030000000006400FN00000000020220501000006400NNEQ0220211228131312Y8  1N0N  00000160000000678200000945332Y8    CLYCL   005600390040
BI00A32Y8    TAIM21121      202202257283-1020                CONNECTOR                CCN000024000000024000FN00000000020220501000024000NNED0220211228131120Y8  4N0N  00000600000000840000001049332Y8    CLYCL   005600390040
BI00A32Y8    TAIM21121      202203257283-1020                CONNECTOR                CCN000024000000024000FN00000000020220501000024000NNED0220211228131135Y8  4N0N  00000600000000840000001049332Y8    CLYCL   005600390040
BI00A32Y8    TAIM21121      202204257283-1020                CONNECTOR                CCN000024000000024000FN00000000020220501000024000NNED0220211228131151Y8  4N0N  00000600000000840000001049332Y8    CLYCL   005600390040
BI00A32Y8    TAIM21121      202205257283-1020                CONNECTOR                CCN000024000000024000FN00000000020220501000024000NNED0220211228131157Y8  4N0N  00000600000000840000001049332Y8    CLYCL   005600390040
BI00A32Y8    TAIM21121      202202257283-6036                CONNECTOR HOUSING        CCN000008000000008000FN00000000020220501000008000NNED0220211228131327Y8  1N0N  00000160000000678200000945332Y8    CLYCL   005600390040
BI00A32Y8    TAIM21121      202203257283-6036                CONNECTOR HOUSING        CCN000008000000008000FN00000000020220501000008000NNED0220211228131345Y8  1N0N  00000160000000678200000945332Y8    CLYCL   005600390040
BI00A32Y8    TAIM21121      202204257283-6036                CONNECTOR HOUSING        CCN000008000000008000FN00000000020220501000008000NNED0220211228131352Y8  1N0N  00000160000000678200000945332Y8    CLYCL   005600390040
