BI00B32N2    2152103754     202202177370-0309                J/B ASS'Y                CCN000002416000002416FN00000000020220301000002416NNMD0420220110081732    1J0J  00000001600000870400001260032N2    YWYIPLTC005500360039
BI00B32N2    2152103754     202202177370-0310                J/B ASS'Y                CCN000002700000002700FN00000000020220301000002700NNMD0420220110081732    1J0J  00000001000000559000000809032N2    YWYIPLTC005500360039
BI00B32R8    TT2202BTMW     202201257116-4028-08             TERMINAL FEMALE          CCN000016000000016000FN00000000020220201000016000NNED0720220110081223    4P0P  00001600000000652800000981532R8    TTTJY   006400630017
BI00B32R8    TT2202BTMW     202201257116-5045-02             TERMINAL                 CCN000016000000016000FN00000000020220201000016000NNED0720220110081223    4P0P  00001600000000678400001007132R8    TTTJY   006400630017
BI00B32R8    TT2202BTMW     202201257158-3006-90             RUBBER STOPPER           CCN000020000000020000FN00000000020220201000020000NNED0720220110081223    1C0C  00002000000000330600000386032R8    TTTJY   002700430014
BI00B32R8    TT2202BTMW     202201257158-3009-60             RUBBER STOPPER           CCN000020000000020000FN00000000020220201000020000NNED0720220110081223    1C0C  00002000000000338000000386232R8    TTTJY   002700430014
BI00B32R8    TT2202BTMW     202201257388-2978-30             HOUSING MALE ASS'Y       CCN000000480000000480FN00000000020220201000000480NNED0720220110081223    1N0N  00000048000000742000001122032R8    TTTJY   005500360039
BI00B32R8    #TT2202BTMW    202201257158-3003-90             RUBBER STOPPER           CCN000020000000020000FN00000000020220201000020000NNED0720220110081251    2C0C  00002000000000250000000306032R8    TTTJY   002700430014
BI00B32R8    #TT2202BTMW    202201257158-3007-10             RUBBER STOPPER           CCN000020000000020000FN00000000020220201000020000NNED0720220110081251    2H0H  00002000000000308000000362732R8    TTTJY   002700430014
BI00B32R8    #TT2202BTMW    202201257172-5630-40             RUBBER STOPPER           CCN000020000000020000FN00000000020220201000020000NNED0720220110081251    2H0H  00002000000000044000000095132R8    TTTJY   004300270014
