BI00B1200    H322D50010     202203037116-4111-02             TERMINAL                 CCN000015000000015000FN00000000020220401000015000NNE   20220110122114    4P0P  0000075000000052950000081771200    YCYC    006400630015
BI00B1200    EC3-01072022   202201277289-6868-30             SEALED ASSY FEMALE       CCN000002520000002520FN00000000020220201000002520NNE   20220110122114    4N0N  0000025200000083920000111921200    YCYC    005500360039
BI00B32AF    JTB2031        202202117289-3342-30             HOUSING FEMALE ASS'Y     CCN000057600000057600FN00000000020220301000057600NNMD0420220110165618    1N0N  00000240000000686400000901432AF    HBYHVTB 005500360039
BI00B32AF    JTB2032        202202187289-3342-30             HOUSING FEMALE ASS'Y     CCN000055200000055200FN00000000020220301000055200NNMD0420220110165629    1N0N  00000240000000686400000901432AF    HBYHVTB 005500360039
BI00B32AF    JTB2033        202202257289-3342-30             HOUSING FEMALE ASS'Y     CCN000064800000064800FN00000000020220301000064800NNMD0420220110165636    1N0N  00000240000000686400000901432AF    HBYHVTB 005500360039
BI00B32AF    JTB2034        202203047289-3342-30             HOUSING FEMALE ASS'Y     CCN000031200000031200FN00000000020220301000031200NNMD0420220110165646    1N0N  00000240000000686400000901432AF    HBYHVTB 005500360039
BI00B32AF    JTB202K        202201287114-5096-08             TERMINAL                 CCN000030000000030000FN00000000020220201000030000NNE   20220110122114    4P0P  00003000000000498000000792232AF    HBYHVTB 006400630015
BI00B32AF    JTB202K        202201287116-4026                TERMINAL                 CCN000016000000016000FN00000000020220201000016000NNE   20220110122114    4P0P  00001600000000664000000994332AF    HBYHVTB 006400630017
BI00B32AF    JTB202K        202201287116-4121-02             TERMINAL                 CCN000004500000004500FN00000000020220201000004500NNE   20220110122114    4P0P  00000450000000618800000912432AF    HBYHVTB 006400630015
BI00B32AF    JTB202K        202201287116-4415-02             TERMINAL                 CCN000038000000038000FN00000000020220201000038000NNE   20220110122114    4P0P  00003800000000596600000925732AF    HBYHVTB 006400630017
BI00B32AF    #JTB202K       202201287183-2419-30             HOUSING                  CCN000004800000004800FN00000000020220201000004800NNE   20220110122114    2F0F  00000480000001064600001351832AF    HBYHVTB 005500360039
BI00B32AF    #JTB202K       202201287287-7022                CONNECTOR FEMALE         CCN000003600000003600FN00000000020220201000003600NNE   20220110122114    2NON  00000120000000742800000853032AF    HBYHVTB 005400370024
BI00A32AG    XG22013CMW     202201247327-6870-30             MULTI FUSE               PCN000000864000000864FN00000000020220101000000864NNMM0020220110141525    4N0N  00000028800001015200001181132AG    XGXGY   005400370024
BI00A32AG    XG22013CMW     202201247327-6880-30             MULTI FUSE               PCN000000864000000864FN00000000020220101000000864NNMM0020220110141820    4N0N  00000028800001012600001178532AG    XGXGY   005400370024
BI00A32AG    XG22022CMW     202202047327-6870-30             MULTI FUSE               CCN000000288000000288FN00000000020220201000000288NNMM0020220110141420    4N0N  00000028800001015200001181132AG    XGXGY   005400370024
BI00A32AG    XG22023CMW     202202047327-6870-30             MULTI FUSE               CCN000002592000002592FN00000000020220201000002592NNMM0020220110141658    4N0N  00000028800001015200001181132AG    XGXGY   005400370024
BI00A32AG    XG22023CMW     202202107327-6874-30             MULTI FUSE               CCN000002592000001152FN00000000020220201000001152NNMM0020220110142028    4N0N  00000028800000991400001157332AG    XGXGY   005400370024
BI00A32AG    XG22022CMW     202202047327-6880-30             MULTI FUSE               CCN000000288000000288FN00000000020220201000000288NNMM0020220110141919    4N0N  00000028800001012600001178532AG    XGXGY   005400370024
BI00A32AG    XG22023CMW     202202047327-6880-30             MULTI FUSE               CCN000002592000002592FN00000000020220201000002592NNMM0020220110141944    4N0N  00000028800001012600001178532AG    XGXGY   005400370024
BI00A32AG    XG22023CMW     202202107327-6884-30             MULTI FUSE               CCN000002592000002304FN00000000020220201000002304NNMM0020220110142340    4N0N  00000028800000988900001154832AG    XGXGY   005400370024
BI00B32AG    XG22031CMW     202201217327-6832-60             MAIN FUSE                CCN000001800000001800FN00000000020220301000001800NNMD0020220110142544    4N0N  00000060000000729200000930732AG    XGXGY   005400370024
BI00A32AG    XG22031CMW     202202157327-6874-30             MULTI FUSE               CCN000006912000006912FN00000000020220301000006912NNMM0020220110142259    4N0N  00000028800000991400001157332AG    XGXGY   005400370024
BI00B32AG    XG22031CMW     202202157327-6884-30             MULTI FUSE               CCN000006912000006912FN00000000020220301000006912NNMM0020220110142421    4N0N  00000028800000988900001154832AG    XGXGY   005400370024
BI00B32AG    XG22041CMW     202203187327-6874-30             MULTI FUSE               CCN000004608000004608FN00000000020220401000004608NNMD0420220110122114    4N0N  00000028800000991400001157332AG    XGXGY   005400370024
BI00B32AG    XG22042CMW     202203257327-6874-30             MULTI FUSE               CCN000004608000004608FN00000000020220401000004608NNMD0420220110122114    4N0N  00000028800000991400001157332AG    XGXGY   005400370024
BI00B32AG    XG22043CMW     202204017327-6874-30             MULTI FUSE               CCN000004608000004608FN00000000020220401000004608NNMD0420220110122114    4N0N  00000028800000991400001157332AG    XGXGY   005400370024
BI00B32AG    XG22044CMW     202204087327-6874-30             MULTI FUSE               CCN000004608000004608FN00000000020220401000004608NNMD0420220110122114    4N0N  00000028800000991400001157332AG    XGXGY   005400370024
BI00B32AG    XG22041CMW     202203187327-6884-30             MULTI FUSE               CCN000004608000004608FN00000000020220401000004608NNMD0420220110122114    4N0N  00000028800000988900001154832AG    XGXGY   005400370024
BI00B32AG    XG22042CMW     202203257327-6884-30             MULTI FUSE               CCN000004608000004608FN00000000020220401000004608NNMD0420220110122114    4N0N  00000028800000988900001154832AG    XGXGY   005400370024
BI00B32AG    XG22043CMW     202204017327-6884-30             MULTI FUSE               CCN000004608000004608FN00000000020220401000004608NNMD0420220110122114    4N0N  00000028800000988900001154832AG    XGXGY   005400370024
BI00B32AG    XG22044CMW     202204087327-6884-30             MULTI FUSE               CCN000004608000004608FN00000000020220401000004608NNMD0420220110122114    4N0N  00000028800000988900001154832AG    XGXGY   005400370024
BI00B32AG    #XG2203ACMW    202201287298-2459-60             LIF FEMALE ASSEMBLY      CCN000001680000001680FN00000000020220301000001680NNE   20220110122114    2N0N  00000016800000534000000729632AG    XGXGY   005400370024
BI00B32AG    #XG2203AHMW    202202257158-3005-80             RUBBER STOPPER           CCN000040000000040000FN00000000020220301000040000NNE   20220110122114    2H0H  00002000000000210000000268732AG    XGXGY   002700430014
BI00B32B1    A22013         202203047114-4032                TERMINAL                 CCN000015000000015000FN00000000020220501000015000NNM   20220110122114B1  4P0P  00000750000000735000001063632B1    AXARNE-M006400630017
BI00B32B1    A22013         202203047158-3168-80             SEALED                   CCN000040000000040000FN00000000020220501000040000NNM   20220110122114B1  1C0C  00002000000000044000000092132B1    AXARNE-M004300260014
BI00B32B1    A22013         202203047282-5553-30             CONNECTOR                CCN000002000000002000FN00000000020220501000002000NNM   20220110122114B1  4N0N  00000100000001010000001187332B1    AXARNE-M005500360039
BI00B32B1    A22013         202203047282-6448-40             CONNECTOR                CCN000003200000003200FN00000000020220501000003200NNM   20220110122114B1  4N0N  00000080000000887000001152732B1    AXARNE-M005600390040
BI00B32B1    #A22013        202203047158-3376-50             CONNECTOR WIRE SEAL      CCN000160000000160000FN00000000020220501000160000NNM   20220110122114B1  2C0C  00002000000000184000000240732B1    AXARNE-M002700430014
BI00B32B1    #A22013        202203047283-8226-30             CONNECTOR                CCN000008000000008000FN00000000020220501000008000NNM   20220110122114B1  2N0N  00000200000000820000001008032B1    AXARNE-M005400370024
BI00B32B1    #A22013        202203047283-8397-40             CONNECTOR                CCN000001540000001540FN00000000020220501000001540NNM   20220110122114B1  2N0N  00000154000001007000001222732B1    AXARNE-M005600390023
BI00B32B6    A72013         202203047017-1183-02             TERMINAL                 CCN000027000000027000FN00000000020220501000027000NNM   20220110122114B6  4P0P  00002700000001139400001307432B6    AXARNE-M005100280028
BI00B32B6    A72013         202203047116-4486-02             TERMINAL                 CCN000028000000028000FN00000000020220501000028000NNM   20220110122114B6  4P0P  00002800000000666400000995132B6    AXARNE-M006400630017
BI00B32B6    A72013         202203047158-3169-40             SEALING PLUG             CCN000040000000040000FN00000000020220501000040000NNM   20220110122114B6  1C0C  00004000000000156000000204132B6    AXARNE-M004300260014
BI00B32B6    A72013         202203047287-0192-40             SEALED HOUSING ASS'Y     CCN000001440000001440FN00000000020220501000001440NNM   20220110122114B6  4N0N  00000048000001092000001322032B6    AXARNE-M005600390040
BI00B32B6    TAPPT01Z       202202047298-5955                CONNECTOR SUB ASSY       CCN000000500000007200FN00000000020220101000007200NNED0120220110162004B6  4N0N  00000720000001029600001253032B6    AXARNE-M005500360039
BI00B32B6    TAPPT01Z       202202047195-1463-02             TERMINAL MALE            CCN000028500000028500FN00000000020220101000028500NNED0120220110162004B6  4P0P  00002850000000456000000741232B6    AXARNE-M006400630015
BI00B32B6    TAPPT01Z       202202047196-1460-02             TERMINAL FEMALE          CCN000028500000028500FN00000000020220101000028500NNED0120220110162004B6  4P0P  00002850000000444600000729832B6    AXARNE-M006400630015
BI00B32B6    TAPPT01Z       202202047196-1462-02             TERMINAL FEMALE          CCN000021000000021000FN00000000020220101000021000NNED0120220110162004B6  4P0P  00002100000000352800000638032B6    AXARNE-M006400630015
BI00B32B6    TAPPT01Z       202202047298-1865-30             HOUSING FEMALE ASS'Y     CCN000002400000002400FN00000000020220101000002400NNED0120220110162004B6  4N0N  00000240000001003200001204532B6    AXARNE-M005500360039
BI00B32B6    TAPPT01Z       202202047298-1869-30             HOUSING FEMALE ASS'Y     CCN000001200000001200FN00000000020220101000001200NNED0120220110162004B6  4N0N  00000120000000737000000939832B6    AXARNE-M005500360039
BI00B32B6    TAPPT01Z       202202047298-2278-30             HOUSING FEMALE ASS'Y     CCN000002400000002400FN00000000020220101000002400NNED0120220110162004B6  4N0N  00000240000001091700001295432B6    AXARNE-M005500360039
BI00B32B6    TAPPT01Z       202202047298-2507-30             HOUSING FEMALE ASS'Y     CCN000000500000001200FN00000000020220101000001200NNED0120220110162004B6  4N0N  00000120000000713200000914532B6    AXARNE-M005500360039
BI00B32B6    TAPPT01Z       202202047298-2508-30             HOUSING FEMALE ASS'Y     CCN000001200000001200FN00000000020220101000001200NNED0120220110162004B6  4N0N  00000120000000822000001005032B6    AXARNE-M005500360039
BI00B32B6    TAPPT01Z       202202047327-6769-3W             BATTERY FUSE             CCN000000480000000480FN00000000020220101000000480NNED0120220110162004B6  4N0N  00000009600000933300001133332B6    AXARNE-M005500360039
BI00B32B7    A82013         202203047158-3166-60             WIRE SEAL                CCN000080000000080000FN00000000020220501000080000NNM   20220110122114B7  1C0C  00004000000000104000000152432B7    AXARNE-M002700430014
BI00B32B7    A82013         202203047158-3167-80             WIRE SEAL                CCN000160000000160000FN00000000020220501000160000NNM   20220110122114B7  1C0C  00002000000000048000000109032B7    AXARNE-M002700430014
BI00B32B7    A82013         202203047158-3169-40             SEALING PLUG             CCN000080000000080000FN00000000020220501000080000NNM   20220110122114B7  1C0C  00004000000000156000000204132B7    AXARNE-M004300260014
BI00B32B7    #A82013        202203047158-3376-50             CONNECTOR WIRE SEAL      CCN000040000000040000FN00000000020220501000040000NNM   20220110122114B7  2C0C  00002000000000184000000240732B7    AXARNE-M002700430014
BI00B32B7    #A82013        202203047282-8395-40             CONNECTOR                CCN000003000000003000FN00000000020220501000003000NNM   20220110122114B7  2N0N  00000100000001009000001188032B7    AXARNE-M005500360039
BI00B32B7    #A82013        202203047283-8397-40             CONNECTOR                CCN000009240000009240FN00000000020220501000009240NNM   20220110122114B7  2N0N  00000154000001007000001222732B7    AXARNE-M005600390023
BI00B32B7    #A82013        202203047283-8398-40             CONNECTOR                CCN000004620000004620FN00000000020220501000004620NNM   20220110122114B7  2N0N  00000154000001007000001171332B7    AXARNE-M005600390023
BI00B32DE    #TCTL203A      202202247125-3236-30             HEAD LAMP CONNECTOR      CCN000002800000002800FN00000000020220301000002800NNE   20220110122114    2F0F  00000280000000945000001085932DE    TVYEV-TV005500360039
BI00B32DE    #TCTL203A      202202247157-8991-80             RUBBER STOPPER           CCN000060000000060000FN00000000020220301000060000NNE   20220110122114    2C0C  00002000000000214000000271032DE    TVYEV-TV002700430014
BI00B32DE    #TCTL203A      202202247158-3015-10             RUBBER STOPPER           CCN000020000000020000FN00000000020220301000020000NNE   20220110122114    2C0C  00001000000000419500000474032DE    TVYEV-TV002700430014
BI00B32DE    #TCTL203A      202202247158-3017                RUBBER STOPPER           CCN000020000000020000FN00000000020220301000020000NNE   20220110122114    2C0C  00001000000000375500000435032DE    TVYEV-TV002700430014
BI00B32DE    #TCTL203A      202202247158-7586-30             BLOCK LIF                CCN000001600000001600FN00000000020220301000001600NNE   20220110122114    2F0F  00000080000000617400000844232DE    TVYEV-TV005500360039
BI00B32DE    #TCTL203A      202202247188-0149                HLC HOUSING MALE         CCN000009900000009900FN00000000020220301000009900NNE   20220110122114    2F0F  00000090000000809100000923832DE    TVYEV-TV005400370024
BI00B32DE    #TCTL203A      202202247189-0149                HLC HOUSING FEMALE       CCN000002000000002000FN00000000020220301000002000NNE   20220110122114    2F0F  00000200000000970000001078532DE    TVYEV-TV005400370024
BI00B32DE    #TCTL203A      202202247283-1065                CONNECTOR                CCN000005000000005000FN00000000020220301000005000NNE   20220110122114    2N0N  00000250000001152500001310432DE    TVYEV-TV005500360039
BI00B32DE    #TCTL203A      202202247287-1670                HOUSING FEMALE ASS'Y     CCN000002800000002800FN00000000020220301000002800NNE   20220110122114    2N0N  00000280000000953100001145132DE    TVYEV-TV005400370024
BI00B32D2    DGTC2214       202203177289-6547                HOUSING FEMALE ASS'Y     CCN000009600000009600FN00000000020220401000009600NNMD0220220110122114    1N0N  00000240000001152000001362032D2    TGYOT-G 005500360039
BI00B32EJ    T220107P01     202202037158-3169-40             SEALING PLUG             CCN001120000001120000FN00000000020220201001120000NNE   20220110122114EJ  1C0C  00004000000000156000000204132EJ    EJYKBO  004300260014
BI00B32EJ    T220107P02     202202177158-3166-60             WIRE SEAL                CCN000040000000040000FN00000000020220201000040000NNE   20220110122114EJ  1C0C  00004000000000104000000152432EJ    EJYKBO  002700430014
BI00B32EJ    T220107P02     202202177116-4100-02             TERMINAL                 CCN000015000000015000FN00000000020220201000015000NNE   20220110122114EJ  4P0P  00001500000000696000000990232EJ    EJYKBO  006400630015
BI00B32EJ    T220107P02     202202177116-4101-02             TERMINAL                 CCN000012000000012000FN00000000020220201000012000NNE   20220110122114EJ  4P0P  00001200000000582000000876232EJ    EJYKBO  006400630015
BI00B32EJ    T220107P02     202202177116-5751-02             TERMINAL                 CCN000024000000024000FN00000000020220201000024000NNE   20220110122114EJ  4P0P  00001200000000379200000664432EJ    EJYKBO  006400630015
BI00B32EJ    T220107P02     202202177158-3006-90             RUBBER STOPPER           CCN000040000000040000FN00000000020220201000040000NNE   20220110122114EJ  1C0C  00002000000000330600000386032EJ    EJYKBO  002700430014
BI00B32EJ    T220107P02     202202177158-3070-80             RUBBER STOPPER           CCN000160000000160000FN00000000020220201000160000NNE   20220110122114EJ  1C0C  00004000000000276000000333332EJ    EJYKBO  002700430014
BI00B32EJ    T220107P02     202202177283-1020                CONNECTOR                CCN000048000000048000FN00000000020220201000048000NNE   20220110122114EJ  4N0N  00000600000000840000001049332EJ    EJYKBO  005600390040
BI00B32EJ    #T220107P02    202202177123-6423-30             CONNECTOR                CCN000016000000016000FN00000000020220201000016000NNE   20220110122114EJ  2F0F  00000200000001002000001167632EJ    EJYKBO  005600390023
BI00B32EJ    T220107P03     202202177114-4101-02             TERMINAL                 CCN000300000000300000FN00000000020220201000300000NNE   20220110122114EJ  4P0P  00001500000000675000001003632EJ    EJYKBO  006400630017
BI00B32EJ    T220107P03     202202177116-4022                TERMINAL                 CCN000027000000027000FN00000000020220201000027000NNE   20220110122114EJ  4P0P  00001350000000618300000903532EJ    EJYKBO  006400630015
BI00B32EJ    T220107P03     202202177116-4102-02             TERMINAL                 CCN000012000000012000FN00000000020220201000012000NNE   20220110122114EJ  4P0P  00001200000000553200000841432EJ    EJYKBO  006400630015
BI00B32EJ    T220107P03     202202177283-5843                CONNECTOR                CCN000039000000039000FN00000000020220201000039000NNE   20220110122114EJ  1N0N  00000150000000889000001132032EJ    EJYKBO  005600390040
BI00B32E1    NC2051         202202237116-1685-02             TERMINAL                 CCN000024000000024000FN00000000020220401000024000NNM   20220110122114    4P0P  00002400000000897600001065232E1    SPYSE   005100280028
BI00B32E1    NC2051         202202237116-4121-02             TERMINAL                 CCN000009000000009000FN00000000020220401000009000NNM   20220110122114    4P0P  00000450000000618800000912432E1    SPYSE   006400630015
BI00B32E1    NC2052         202203027116-4121-02             TERMINAL                 CCN000009000000009000FN00000000020220401000009000NNM   20220110122114    4P0P  00000450000000618800000912432E1    SPYSE   006400630015
BI00B32E1    NC2051         202202237116-4122-02             TERMINAL                 CCN000009000000009000FN00000000020220401000009000NNM   20220110122114    4P0P  00000450000000656600000950232E1    SPYSE   006400630015
BI00B32E1    NC2052         202203027116-4122-02             TERMINAL                 CCN000004500000004500FN00000000020220401000004500NNM   20220110122114    4P0P  00000450000000656600000950232E1    SPYSE   006400630015
BI00B32E1    NC2051         202202237158-3006-90             RUBBER STOPPER           CCN000020000000020000FN00000000020220401000020000NNM   20220110122114    1C0C  00002000000000330600000386032E1    SPYSE   002700430014
BI00B32E1    NC2052         202203027288-3329-30             HOUSING MALE             CCN000001500000001500FN00000000020220401000001500NNM   20220110122114    4N0N  00000150000000866100001011132E1    SPYSE   005400370024
BI00B32E1    NC2051         202202237289-3342-30             HOUSING FEMALE ASS'Y     CCN000002400000002400FN00000000020220401000002400NNM   20220110122114    1N0N  00000240000000686400000901432E1    SPYSE   005500360039
BI00B32E1    #NC2051        202202237158-3003-90             RUBBER STOPPER           CCN000020000000020000FN00000000020220401000020000NNM   20220110122114    2C0C  00002000000000250000000306032E1    SPYSE   002700430014
BI00B32E1    #NC2051        202202237182-2410                CONNECTOR HOUSING        CCN000001200000001200FN00000000020220401000001200NNM   20220110122114    2F0F  00000120000000959800001245632E1    SPYSE   005500360039
BI00B32E1    #NC2052        202203027182-2410                CONNECTOR HOUSING        CCN000001200000001200FN00000000020220401000001200NNM   20220110122114    2F0F  00000120000000959800001245632E1    SPYSE   005500360039
BI00B32E2    NY203B         202201267116-1685-02             TERMINAL                 CCN000024000000024000FN00000000020220301000024000NNED0720220110122114    4P0P  00002400000000897600001065232E2    SPYSE   005100280028
BI00B32E2    NY203B         202201267158-3006-90             RUBBER STOPPER           CCN000140000000140000FN00000000020220301000140000NNED0720220110122114    1C0C  00002000000000330600000386032E2    SPYSE   002700430014
BI00B32E2    #NY203B        202201267289-2914                HOUSING FEMALE ASS'Y     CCN000001500000001500FN00000000020220301000001500NNED0720220110122114    2N0N  00000150000000906000001033032E2    SPYSE   005400370024
BI00B32E2    NY2051         202202237116-1473                TERMINAL                 CCN000013500000013500FN00000000020220401000013500NNM   20220110122114    4P0P  00001350000000523800000809032E2    SPYSE   006400630015
BI00B32E2    NY2051         202202237116-1685-02             TERMINAL                 CCN000024000000024000FN00000000020220401000024000NNM   20220110122114    4P0P  00002400000000897600001065232E2    SPYSE   005100280028
BI00B32E2    NY2052         202203027158-3006-90             RUBBER STOPPER           CCN000020000000020000FN00000000020220401000020000NNM   20220110122114    1C0C  00002000000000330600000386032E2    SPYSE   002700430014
BI00B32G2    #SA2202DHMW    202201267283-8226-40             CONNECTOR                CCN000002000000002000FN00000000020220201000002000NNE   20220110122114    2N0N  00000200000000830000000957032G2    AISUAI  005400370024
BI00B32G8    PATA2031A      202202167124-2700                RELAY BLOCK              CCN000000050000000072FN00000000020220301000000072NNE   20220110122114    4F0F  00000007200000974000001149032G8    PSPASI  005600390040
BI00B32G8    PATA2031A      202202167154-9978-30             UPPER COVER              CCN000000100000000100FN00000000020220301000000100NNE   20220110122114    1N0N  00000005000000305200000516032G8    PSPASI  005500360039
BI00B32G8    PATA2031A      202202167171-4099-30             UPPER COVER              CCN000000050000000050FN00000000020220301000000050NNE   20220110122114    4N0N  00000005000000305200000516032G8    PSPASI  005500360039
BI00A32J1    390038         202201117114-4100-02             TERMINAL                 CCN001800000001800000FN00000000020220101001800000NNE00020220110122114    4P0P  00001800000000748800001077432J1    UKYEL-BL006400630017
BI00A32J1    390038         202201117114-4101-02             TERMINAL                 CCN000375000000375000FN00000000020220101000375000NNE00020220110122114    4P0P  00001500000000675000001003632J1    UKYEL-BL006400630017
BI00A32J1    QA-21-C125     202201107298-1869-30             HOUSING FEMALE ASS'Y     PNY000002400000002400FY00000240020220101000000000NNE   20220110151110    4N0N  00000120000000737000000939832J1    UKYEL-BL005500360039
BI00A32J1    390042         202202017114-4100-02             TERMINAL                 CCN003960000003960000FN00000000020220201003960000NNED0020220110122114    4P0P  00001800000000748800001077432J1    UKYEL-BL006400630017
BI00A32J1    390042         202202017114-4101-02             TERMINAL                 CCN001800000001800000FN00000000020220201001800000NNED0020220110122114    4P0P  00001500000000675000001003632J1    UKYEL-BL006400630017
BI00A32J1    390043         202203017114-4100-02             TERMINAL                 CCN008640000008640000FN00000000020220301008640000NNE   20220110122114    4P0P  00001800000000748800001077432J1    UKYEL-BL006400630017
BI00A32J1    390043         202203017114-4101-02             TERMINAL                 CCN003600000003600000FN00000000020220301003600000NNE   20220110122114    4P0P  00001500000000675000001003632J1    UKYEL-BL006400630017
BI00A32J1    390044         202204017114-4100-02             TERMINAL                 CCN008640000008640000FN00000000020220401008640000NNE   20220110122114    4P0P  00001800000000748800001077432J1    UKYEL-BL006400630017
BI00A32J1    390044         202204017114-4101-02             TERMINAL                 CCN003600000003600000FN00000000020220401003600000NNE   20220110122114    4P0P  00001500000000675000001003632J1    UKYEL-BL006400630017
BI00A32M3    SM22014DMW     202201117172-5403-30             SEALED PACKING           PCN000048000000048000FN00000000020220101000048000NNM00020220110122114    1C0C  00000400000000653600000701732M3    SASAMI  004300270014
BI00B32M3    SM2202B MW     202201277114-5747-02             TERMINAL                 CCN000018000000018000FN00000000020220201000018000NNE   20220110122114    4P0P  00001800000000626400000920032M3    SASAMI  006400630015
BI00B32M3    SM2202B MW     202201277116-1685-02             TERMINAL                 CCN000024000000024000FN00000000020220201000024000NNE   20220110122114    4P0P  00002400000000897600001065232M3    SASAMI  005100280028
BI00B32M3    SM2202B MW     202201277116-2641                TERMINAL                 CCN000018000000018000FN00000000020220201000018000NNE   20220110122114    4P0P  00001800000001161000001344632M3    SASAMI  005100280028
BI00B32M3    SM2202B MW     202201277116-4032                TERMINAL                 CCN000006000000006000FN00000000020220201000006000NNE   20220110122114    4P0P  00000600000000532800000818032M3    SASAMI  006400630015
BI00B32M3    SM2202B MW     202201277126-8855-02             TERMINAL                 CCN000006000000006000FN00000000020220201000006000NNE   20220110122114    4P0P  00000600000000510600000795832M3    SASAMI  006400630015
BI00B32M3    SM2202B MW     202201277283-1289-40             CONNECTOR HOUSING        CCN000000600000000600FN00000000020220201000000600NNE   20220110122114    1N0N  00000060000000679800000824832M3    SASAMI  005400370024
BI00B32M3    #SM2202B MW    202201277183-2418                CONNECTOR HOUSING        CCN000004800000004800FN00000000020220201000004800NNE   20220110122114    2F0F  00000480000000917000001477032M3    SASAMI  005500360039
BI00B32M3    #SM2202BMMW    202201277283-8123-30             CONNECTOR HOUSING        CCN000004000000004000FN00000000020220201000004000NNE   20220110122114    2N0N  00000400000000380000000530032M3    SASAMI  005600390023
BI00A32M8    PM22013 MW     202201127289-3342-30             HOUSING FEMALE ASS'Y     PCN000012000000012000FN00000000020220101000012000NNMM0020220110142143    1N0N  00000240000000686400000901432M8    PMPEMI  005500360039
BI00A32M8    #PM22013TMW    202201127289-4200-30             HOUSING FEMALE ASS'Y     PCN000008000000008000FN00000000020220101000008000NNMM0020220110142101    2N0N  00000200000000926000001021032M8    PMPEMI  005400370024
BI00B32M8    PM2202BTMW     202201267288-3332-30             HOUSING MALE             CCN000001500000001500FN00000000020220201000001500NNE   20220110122114    4N0N  00000150000000860700001005732M8    PMPEMI  005400370024
BI00B32M8    PM2202CTMW     202201267287-7599-30             HOUSING FEMALE ASS'Y     CCN000003200000003200FN00000000020220201000003200NNE   20220110122114    4N0N  00000160000001236600001445632M8    PMPEMI  005500360039
BI00B32N2    2152103754     202202177370-0309                J/B ASS'Y                CCN000002416000002416FN00000000020220301000002416NNMD0120220110122114    1J0J  00000001600000870400001260032N2    YWYIPLTC005500360039
BI00B32N2    2152103754     202202177370-0310                J/B ASS'Y                CCN000002700000002700FN00000000020220301000002700NNMD0120220110122114    1J0J  00000001000000559000000809032N2    YWYIPLTC005500360039
BI00B32N3    NBT201B        202201277283-7449-40             HOUSING FEMALE ASS'Y     CCN000000100000000000FY00000000020220201000000000NNEQ0820220110163644    4N0N  00000240000001200000001410032N3    ABYIPL-B005500360039
BI00A32Q8    EU2201BTMW     202201147327-6949-30             MULTI FUSE               CCN000000288000000288FN00000000020220101000000288NNEM0020220110133307    4N00  00000028800000886700001052632Q8    EMEMI   005400370024
BI00A32Q8    EU2201BTMW     202201147327-6950-30             MULTI FUSE               CCN000000576000000576FN00000000020220101000000576NNEM0020220110133307    4N00  00000028800000888700001054632Q8    EMEMI   005400370024
BI00A32Q8    EU2201BTMW     202201147327-6954-30             MULTI FUSE               CCN000000600000000600FN00000000020220101000000600NNEM0020220110133307    4N00  00000060000000751600000954332Q8    EMEMI   005400370024
BI00B32Q8    EU2201CTMW     202202027327-6950-30             MULTI FUSE               CCN000000864000000576FN00000000020220101000000576NNED0420220110122114    4N00  00000028800000888700001054632Q8    EMEMI   005400370024
BI00B32Q8    EU2201CTMW     202202027327-6952-30             MULTI FUSE               CCN000001120000000560FN00000000020220101000000560NNED0420220110122114    4N0N  00000056000000848500001031532Q8    EMEMI   005400370024
BI00A32Q8    EU2201CTMW     202201147327-6954-30             MULTI FUSE               CCN000000600000000600FN00000000020220101000000600NNEM0020220110133307    4N00  00000060000000751600000954332Q8    EMEMI   005400370024
BI00A32Q8    EU2202ATMW     202201147327-6949-30             MULTI FUSE               CCN000000288000000288FN00000000020220201000000288NNEM0020220110133307    4N00  00000028800000886700001052632Q8    EMEMI   005400370024
BI00A32Q8    EU2202BTMW     202201147327-6949-30             MULTI FUSE               CCN000000288000000288FN00000000020220201000000288NNEM0020220110133307    4N00  00000028800000886700001052632Q8    EMEMI   005400370024
BI00A32Q8    EU2201CTMW     202201147327-6950-30             MULTI FUSE               CCN000000288000000288FN00000000020220101000000288NNEM0020220110133307    4N00  00000028800000888700001054632Q8    EMEMI   005400370024
BI00A32Q8    EU2201CTMW     202201147327-6952-30             MULTI FUSE               CCN000000560000000560FN00000000020220101000000560NNEM0020220110133307    4N0N  00000056000000848500001031532Q8    EMEMI   005400370024
BI00B32Q8    EU2202B MW     202201267283-1020                CONNECTOR                CCN000006000000006000FN00000000020220201000006000NNE   20220110122114    4N0N  00000600000000840000001049332Q8    EMEMI   005600390040
BI00B32Q8    @EU2202B MW    202201267283-1100                CONNECTOR ASS'Y          CCN000001600000001600FN00000000020220201000001600NNE   20220110122114    3N0N  00000160000000566500000799632Q8    EMEMI   005500360039
BI00B32R7    R-TAP210641    202202037C98-1145-4W             SQUIB SUB ASS'Y          CCN000050000000050000FN00000000020220201000050000NNED0420220110122114    4N0N  00001000000000787900000944932R7    IVYCIC  005400370024
BI00B32R7    R-TAP210641    202202037C98-1149-3W             SQUIB SUB ASS'Y          CCN000050000000050000FN00000000020220201000050000NNED0420220110122114    4N0N  00001000000000785000000922032R7    IVYCIC  005400370024
BI00B32R7    R-TAP220011    202201277116-1257-02             TERMINAL                 CCN000048000000048000FN00000000020220201000048000NNE   20220110122114    1P0P  00002400000000518400000847132R7    IVYCIC  006400630017
BI00B32R7    R-TAP220016    202201277116-4122-02             TERMINAL                 CCN000004500000004500FN00000000020220201000004500NNE   20220110122114    4P0P  00000450000000656600000950232R7    IVYCIC  006400630015
BI00B32R7    #R-TAP220016   202201277186-8845-60             HOUSING MALE             CCN000006000000006000FN00000000020220201000006000NNE   20220110122114    2F0F  00000300000000690000000801532R7    IVYCIC  005400370024
BI00B32U5    DI2013         202203047116-4037                TERMINAL                 CCN000036000000036000FN00000000020220501000036000NNM   20220110122114U5  4P0P  00000600000000600000000894232U5    AMAMSD  006400630015
BI00B32U5    DI2013         202203047289-3342                HOUSING FEMALE ASS'Y     CCN000028800000028800FN00000000020220501000028800NNM   20220110122114U5  1N0N  00000240000000686400000901432U5    AMAMSD  005500360039
BI00B32U5    DI2013         202203047116-4486-02             TERMINAL                 CCN000056000000056000FN00000000020220501000056000NNM   20220110122114U5  4P0P  00002800000000666400000995132U5    AMAMSD  006400630017
BI00B32U5    DI2013         202203047116-5045-02             TERMINAL                 CCN000128000000128000FN00000000020220501000128000NNM   20220110122114U5  4P0P  00001600000000678400001007132U5    AMAMSD  006400630017
BI00B32U5    DI2013         202203047116-5046-02             TERMINAL                 CCN000048000000048000FN00000000020220501000048000NNM   20220110122114U5  4P0P  00001200000000544800000873532U5    AMAMSD  006400630017
BI00B32U5    DI2013         202203047158-3167-80             WIRE SEAL                CCN000020000000020000FN00000000020220501000020000NNM   20220110122114U5  1C0C  00002000000000048000000109032U5    AMAMSD  002700430014
BI00B32U5    DI2013         202203047196-0549-02             TERMINAL ALUMINIUM       CCN000038000000038000FN00000000020220501000038000NNM   20220110122114U5  4P0P  00003800000000592800000979232U5    AMAMSD  006400630017
BI00B32U5    DI2013         202203047196-1104-02             TERMINAL                 CCN000270000000270000FN00000000020220501000270000NNM   20220110122114U5  4P0P  00002250000000441000000726232U5    AMAMSD  006400630015
BI00B32U5    DI2013         202203047287-1915-40             CONNECTOR ASS'Y          CCN000004800000004800FN00000000020220501000004800NNM   20220110122114U5  4N0N  00000240000000666500000923132U5    AMAMSD  005500360039
BI00B32U5    DI2013         202203047288-3330-30             HOUSING MALE             CCN000006000000006000FN00000000020220501000006000NNM   20220110122114U5  4N0N  00000150000000866300001011232U5    AMAMSD  005400370024
BI00B32U5    DI2013         202203047288-3339-30             HOUSING MALE             CCN000001500000001500FN00000000020220501000001500NNM   20220110122114U5  4N0N  00000150000000867000001012032U5    AMAMSD  005400370024
BI00B32U5    DI2013         202203047289-3342-30             HOUSING FEMALE ASS'Y     CCN000031200000031200FN00000000020220501000031200NNM   20220110122114U5  1N0N  00000240000000686400000901432U5    AMAMSD  005500360039
BI00B32U5    DI2013         202203047388-2978-30             HOUSING MALE ASS'Y       CCN000005280000005280FN00000000020220501000005280NNM   20220110122114U5  1N0N  00000048000000742000001122032U5    AMAMSD  005500360039
BI00B32U5    DI2013         202203047327-6731-3W             BATTERY FUSE             CCN000001024000001024FN00000000020220501000001024NNM   20220110122114U5  4N0N  00000006400000697600000843032U5    AMAMSD  005400370024
BI00B32U5    DI2013         202203047B72-5540-80             SEALED WIRE SEAL         CCN000040000000040000FN00000000020220501000040000NNM   20220110122114U5  1C0C  00002000000000186000000234432U5    AMAMSD  004300270014
BI00B32U5    DI2013         202203047B96-0805-02             TERMINAL FEMALE          CCN000045000000045000FN00000000020220501000045000NNM   20220110122114U5  4P0P  00002250000000558000000843232U5    AMAMSD  006400630015
BI00B32U5    #DI2013        202203047157-3821                RUBBER STOPPER           CCN000040000000040000FN00000000020220501000040000NNM   20220110122114U5  2C0C  00002000000000176000000238032U5    AMAMSD  002700430014
BI00B32U5    #DI2013        202203047158-3017                RUBBER STOPPER           CCN000030000000030000FN00000000020220501000030000NNM   20220110122114U5  2C0C  00001000000000375500000435032U5    AMAMSD  002700430014
BI00B32U5    #DI2013        202203047154-5597-30             CASSETTE R/B             CCN000000800000000800FN00000000020220501000000800NNM   20220110122114U5  2F0F  00000080000000736000000952032U5    AMAMSD  005500360039
BI00B32U5    #DI2013        202203047158-3003-90             RUBBER STOPPER           CCN000160000000160000FN00000000020220501000160000NNM   20220110122114U5  2C0C  00002000000000250000000306032U5    AMAMSD  002700430014
BI00B32U5    #DI2013        202203047172-5626-90             RUBBER STOPPER           CCN000280000000280000FN00000000020220501000280000NNM   20220110122114U5  2H0H  00002000000000076400000127832U5    AMAMSD  004300270014
BI00B32U5    #DI2013        202203047172-5627-60             RUBBER STOPPER           CCN000220000000220000FN00000000020220501000220000NNM   20220110122114U5  2H0H  00002000000000070400000121832U5    AMAMSD  004300270014
BI00B32U5    #DI2013        202203047172-5628-80             DUMMY PLUG               CCN000080000000080000FN00000000020220501000080000NNM   20220110122114U5  2H0H  00002000000000110600000162032U5    AMAMSD  004300270014
BI00B32U5    #DI2013        202203047172-5629-80             RUBBER STOPPER           CCN000160000000160000FN00000000020220501000160000NNM   20220110122114U5  2H0H  00002000000000060000000111132U5    AMAMSD  004300270014
BI00B32U5    #DI2013        202203047172-5630-40             RUBBER STOPPER           CCN000380000000380000FN00000000020220501000380000NNM   20220110122114U5  2H0H  00002000000000044000000095132U5    AMAMSD  004300270014
BI00B32U5    #DI2013        202203047172-5632-10             DUMMY PLUG               CCN000200000000200000FN00000000020220501000200000NNM   20220110122114U5  2H0H  00002000000000080400000131832U5    AMAMSD  004300270014
BI00B32U5    #DI2013        202203047189-2978-30             HOUSING FEMALE           CCN000004500000004500FN00000000020220501000004500NNM   20220110122114U5  2F0F  00000150000000966900001096932U5    AMAMSD  005400370024
BI00B32U5    #DI2013        202203047289-4200-30             HOUSING FEMALE ASS'Y     CCN000006000000006000FN00000000020220501000006000NNM   20220110122114U5  2N0N  00000200000000926000001021032U5    AMAMSD  005400370024
BI00B32U9    #TP0383S       202202037158-3017                RUBBER STOPPER           CCN000010000000010000FN00000000020220301000010000NNE   20220110122114U9  2C0C  00001000000000375500000435032U9    YNYNA-E 002700430014
BI00B32U9    TPA210         202202037114-4031                TERMINAL                 CCN000021000000021000FN00000000020220301000021000NNM   20220110122114U9  4P0P  00001050000000966000001294632U9    YNYNA-E 006400630017
BI00B32U9    TPA210         202202037114-4032                TERMINAL                 CCN000015000000015000FN00000000020220301000015000NNM   20220110122114U9  4P0P  00000750000000735000001063632U9    YNYNA-E 006400630017
BI00B32U9    TPA210         202202037116-4037                TERMINAL                 CCN000012000000012000FN00000000020220301000012000NNM   20220110122114U9  4P0P  00000600000000600000000894232U9    YNYNA-E 006400630015
BI00B32U9    TPA210         202202037116-2951-02             TERMINAL                 CCN000005400000005400FN00000000020220301000005400NNM   20220110122114U9  4P0P  00000540000000817600001111832U9    YNYNA-E 006400630015
BI00B32U9    TPA210         202202037116-4060-02             TERMINAL                 CCN000024000000024000FN00000000020220301000024000NNM   20220110122114U9  1P0P  00002400000000511200000984232U9    YNYNA-E 006400630017
BI00B32U9    TPA210         202202037116-4231-02             TERMINAL                 CCN000416000000416000FN00000000020220301000416000NNM   20220110122114U9  4P0P  00002600000000683800001012532U9    YNYNA-E 006400630017
BI00B32U9    TPA210         202202037158-3006-90             RUBBER STOPPER           CCN000020000000020000FN00000000020220301000020000NNM   20220110122114U9  1C0C  00002000000000330600000386032U9    YNYNA-E 002700430014
BI00B32U9    TPA210         202202037158-3165-90             WIRE SEAL                CCN000760000000760000FN00000000020220301000760000NNM   20220110122114U9  1C0C  00004000000000124000000172432U9    YNYNA-E 004300270014
BI00B32U9    TPA210         202202037158-3166-60             WIRE SEAL                CCN000480000000480000FN00000000020220301000480000NNM   20220110122114U9  1C0C  00004000000000104000000152432U9    YNYNA-E 002700430014
BI00B32U9    TPA210         202202037158-3167-80             WIRE SEAL                CCN000060000000060000FN00000000020220301000060000NNM   20220110122114U9  1C0C  00002000000000048000000109032U9    YNYNA-E 002700430014
BI00B32U9    TPA210         202202037158-3169-40             SEALING PLUG             CCN000120000000120000FN00000000020220301000120000NNM   20220110122114U9  1C0C  00004000000000156000000204132U9    YNYNA-E 004300260014
BI00B32U9    TPA210         202202037172-1372-10             FRONT HOLDER             CCN000003900000003900FN00000000020220301000003900NNM   20220110122114U9  4F0F  00000390000000655200000955232U9    YNYNA-E 005500360039
BI00B32U9    TPA210         202202037172-5540-80             SEALED WIRE SEAL         CCN000040000000040000FN00000000020220301000040000NNM   20220110122114U9  1C0C  00002000000000186000000234432U9    YNYNA-E 004300270014
BI00B32U9    TPA210         202202037174-1849-70             COVER                    CCN000025000000025000FN00000000020220301000025000NNM   20220110122114U9  1F0F  00002500000000622500000761932U9    YNYNA-E 005400370024
BI00B32U9    TPA210         202202037196-0805-02             TERMINAL FEMALE          CCN000067500000067500FN00000000020220301000067500NNM   20220110122114U9  4P0P  00002250000000558000000843232U9    YNYNA-E 006400630015
BI00B32U9    TPA210         202202037282-5574-10             CONNECTOR                CCN000060000000060000FN00000000020220301000060000NNM   20220110122114U9  4N0N  00000080000001235000001423032U9    YNYNA-E 005600390040
BI00B32U9    TPA210         202202037283-8599-30             CONNECTOR                CCN000006160000006160FN00000000020220301000006160NNM   20220110122114U9  4N0N  00000154000000947100001157032U9    YNYNA-E 005600390023
BI00B32U9    TPA210         202202037289-4212-80             SEALED HOUSING ASS'Y     CCN000002000000002000FN00000000020220301000002000NNM   20220110122114U9  4N0N  00000200000000848600000978632U9    YNYNA-E 005400370024
BI00B32U9    TPA210         202202037289-6868-30             SEALED ASSY FEMALE       CCN000032760000032760FN00000000020220301000032760NNM   20220110122114U9  4N0N  00000252000000839200001119232U9    YNYNA-E 005500360039
BI00B32U9    TPA210         202202037298-1186-40             SQUIB SUB ASS'Y          CCN000010000000010000FN00000000020220301000010000NNM   20220110122114U9  4N0N  00001000000000650000000774532U9    YNYNA-E 005400370024
BI00B32U9    TPA210         202202037298-1186-70             SQUIB SUB ASS'Y          CCN000010000000010000FN00000000020220301000010000NNM   20220110122114U9  4N0N  00001000000000650000000774532U9    YNYNA-E 005400370024
BI00B32U9    TPA210         202202037298-1145-4W             SQUIB SUB ASS'Y          CCN000010000000010000FN00000000020220301000010000NNM   20220110122114U9  4N0N  00001000000000787900000944932U9    YNYNA-E 005400370024
BI00B32U9    TPA210         202202037298-1149-3W             SQUIB SUB ASS'Y          CCN000010000000010000FN00000000020220301000010000NNM   20220110122114U9  4N0N  00001000000000785000000922032U9    YNYNA-E 005400370024
BI00B32U9    #TPA210        202202037147-9094                RETAINER                 CCN000018000000018000FN00000000020220301000018000NNM   20220110122114U9  2F0F  00000300000000717000000872932U9    YNYNA-E 005500360039
BI00B32U9    #TPA210        202202037158-3017                RUBBER STOPPER           CCN000010000000010000FN00000000020220301000010000NNM   20220110122114U9  2C0C  00001000000000375500000435032U9    YNYNA-E 002700430014
BI00B32U9    #TPA210        202202037047-1611-30             CLIP                     CCN000004000000004000FN00000000020220301000004000NNM   20220110122114U9  2F0F  00000200000001600000001739032U9    YNYNA-E 005600390040
BI00B32U9    #TPA210        202202037158-3376-50             CONNECTOR WIRE SEAL      CCN000500000000500000FN00000000020220301000500000NNM   20220110122114U9  2C0C  00002000000000184000000240732U9    YNYNA-E 002700430014
BI00B32U9    #TPA210        202202037282-6446-40             CONNECTOR                CCN000007500000007500FN00000000020220301000007500NNM   20220110122114U9  2N0N  00000150000001185000001368032U9    YNYNA-E 005500360039
BI00B32U9    #TPA210        202202037282-6457-40             CONNECTOR                CCN000002400000002400FN00000000020220301000002400NNM   20220110122114U9  2N0N  00000080000001137000001421332U9    YNYNA-E 005600390040
BI00B32U9    #TPA210        202202037282-8395-40             CONNECTOR                CCN000016000000016000FN00000000020220301000016000NNM   20220110122114U9  2N0N  00000100000001009000001188032U9    YNYNA-E 005500360039
BI00B32U9    #TPA210        202202037283-8397-40             CONNECTOR                CCN000006160000006160FN00000000020220301000006160NNM   20220110122114U9  2N0N  00000154000001007000001222732U9    YNYNA-E 005600390023
BI00B32W4    4500187281     202203177289-6547                HOUSING FEMALE ASS'Y     CCN000009600000009600FN00000000020220301000009600NNED0420220110122114W4161N0N  00000240000001152000001362032W416  HJYHK   005500360039
BI00A32W4    @4500187367    202203217286-1238-30             CONNECTOR                CCN000001200000001200FN00000000020220301000001200NNE   20220110122114W4N23N0N  00000120000001224000001466032W4N2  HJYHK-J 005500360039
BI00B32W4    4500187386     202203107116-4100-02             TERMINAL                 CCN000075000000075000FN00000000020220301000075000NNE   20220110122114W49 4P0P  00001500000000696000000990232W49   HJYHK   006400630015
BI00B32W4    4500187387     202203107114-4112-02             TERMINAL                 CCN000009000000009000FN00000000020220301000009000NNE   20220110122114W4464P0P  00000900000000598500000927132W446  HJYHK   006400630017
BI00B32W4    4500187391     202203107116-4122-02             TERMINAL                 CCN000004500000004500FN00000000020220301000004500NNE   20220110122114W49 4P0P  00000450000000656600000950232W49   HJYHK   006400630015
BI00B32W4    4500187392     202203037116-4100-02             TERMINAL                 CCN000015000000015000FN00000000020220301000015000NNE   20220110122114W49 4P0P  00001500000000696000000990232W49   HJYHK   006400630015
BI00A32W4    4500187397     202202177158-3167-80             WIRE SEAL                CCN000040000000040000FN00000000020220201000040000NNE   20220110122114W44 1C0C  00002000000000048000000109032W44   HJYHK   002700430014
BI00A32W4    4500187411     202203247116-4124-02             TERMINAL                 CCN000003000000003000FN00000000020220301000003000NNE   20220110122114W4804P0P  00000300000000459900000753532W480  HJYHK-J 006400630015
BI00A32W4    4500187422     202201137116-4100-02             TERMINAL                 CCN000015000000015000FN00000000020220101000015000NNEM0020220110140022W49 4P0P  00001500000000696000000990232W49   HJYHK   006400630015
BI00A32W4    4500187422     202201137158-3169-40             SEALING PLUG             CCN000040000000040000FN00000000020220101000040000NNEM0020220110140022W49 1C0C  00004000000000156000000204132W49   HJYHK   004300260014
BI00A32W4    #4500187427    202205307157-3821                RUBBER STOPPER           CCN000080000000080000FN00000000020220501000080000NNE   20220110122114W43 2C0C  00002000000000176000000238032W43   HJYHK   002700430014
BI00A32W4    4500187428     202202177114-1470                TERMINAL                 CCN000016500000016500FN00000000020220201000016500NNE   20220110122114W4G34P0P  00001650000000544500000838732W4G3  HJYHK-J 006400630015
BI00A32W4    #4500187428    202202177157-3950-80             SEAL RUBBER              CCN000040000000040000FN00000000020220201000040000NNE   20220110122114W4G32C0C  00004000000000154000000440332W4G3  HJYHK-J 002700430014
BI00B32W4    #4500187431    202202037198-1371                HOUSING FEMALE           CCN000002000000002000FN00000000020220201000002000NNE   20220110122114W4D42F0F  00000200000000597800000721232W4D4  HJYHK-J 005400370024
BI00A32W4    4500187432     202203077116-4100-02             TERMINAL                 CCN000015000000015000FN00000000020220301000015000NNE   20220110122114W4144P0P  00001500000000696000000990232W414  HJYHK   006400630015
BI00A32W4    4500187432     202203077114-4112-02             TERMINAL                 CCN000018000000018000FN00000000020220301000018000NNE   20220110122114W4144P0P  00000900000000598500000927132W414  HJYHK   006400630017
BI00A32W4    4500187432     202203077116-4111-02             TERMINAL                 CCN000022500000022500FN00000000020220301000022500NNE   20220110122114W4144P0P  00000750000000529500000817732W414  HJYHK   006400630015
BI00A32W4    4500187432     202203077116-4112-02             TERMINAL                 CCN000024000000024000FN00000000020220301000024000NNE   20220110122114W4144P0P  00000600000000450000000738232W414  HJYHK   006400630015
BI00A32W4    4500187432     202203077114-4100-02             TERMINAL                 CCN000018000000018000FN00000000020220301000018000NNE   20220110122114W4144P0P  00001800000000748800001077432W414  HJYHK   006400630017
BI00A32W4    4500187432     202203077114-4111-02             TERMINAL                 CCN000012000000012000FN00000000020220301000012000NNE   20220110122114W4144P0P  00001200000000758400001087032W414  HJYHK   006400630017
BI00A32W4    #4500187433    202203217158-3654-80             WIRE TUBE                CCN000040000000040000FN00000000020220301000040000NNE   20220110122114W4142H0H  00004000000000104000000152232W414  HJYHK   004300270014
BI00B32W4    4500187445     202203037116-2951-02             TERMINAL                 CCN000005400000005400FN00000000020220301000005400NNE   20220110122114W46 4P0P  00000540000000817600001111832W46   HJYHK   006400630015
BI00B32W4    4500187445     202203037114-4111-02             TERMINAL                 CCN000012000000012000FN00000000020220301000012000NNE   20220110122114W46 4P0P  00001200000000758400001087032W46   HJYHK   006400630017
BI00A32W4    4500187450     202201247114-4100-02             TERMINAL                 CCN000018000000018000FN00000000020220101000018000NNE   20220110122114W4334P0P  00001800000000748800001077432W433  HJYHK   006400630017
BI00A32W4    4500187452     202201247114-4100-02             TERMINAL                 CCN000018000000018000FN00000000020220101000018000NNE   20220110122114W4334P0P  00001800000000748800001077432W433  HJYHK   006400630017
BI00A32W4    4500187455     202201247114-4100-02             TERMINAL                 CCN000018000000018000FN00000000020220101000018000NNE   20220110122114W4334P0P  00001800000000748800001077432W433  HJYHK   006400630017
BI00A32W4    4500187457     202202077114-4100-02             TERMINAL                 CCN000018000000018000FN00000000020220201000018000NNE   20220110122114W4334P0P  00001800000000748800001077432W433  HJYHK   006400630017
BI00A32W4    4500187459     202202147116-4102-02             TERMINAL                 CCN000012000000012000FN00000000020220201000012000NNE   20220110122114W4334P0P  00001200000000553200000841432W433  HJYHK   006400630015
BI00B32W9    #4500187396    202203227282-1030                CONNECTOR MALE ASS'Y     CCN000017000000017000FN00000000020220301000017000NNE   20220110122114W9  2N0N  00000100000000365000000487532W9    HKYHK   005400370024
BI00B32W9    4500187399     202201257114-4100-02             TERMINAL                 CCN000018000000018000FN00000000020220101000018000NNED0720220110122114W9  4P0P  00001800000000748800001077432W9    HKYHK   006400630017
BI00B32W9    4500187399     202201257114-4112-02             TERMINAL                 CCN000009000000009000FN00000000020220101000009000NNED0720220110122114W9  4P0P  00000900000000598500000927132W9    HKYHK   006400630017
BI00B32W9    4500187399     202201257116-2951-02             TERMINAL                 CCN000005400000005400FN00000000020220101000005400NNED0720220110122114W9  4P0P  00000540000000817600001111832W9    HKYHK   006400630015
BI00B32W9    4500187399     202201257116-4120-02             TERMINAL                 CCN000030000000030000FN00000000020220101000030000NNED0720220110122114W9  4P0P  00000600000000780000001073632W9    HKYHK   006400630015
BI00B32W9    4500187399     202201257116-4122-02             TERMINAL                 CCN000180000000180000FN00000000020220101000180000NNED0720220110122114W9  4P0P  00000450000000656600000950232W9    HKYHK   006400630015
BI00B32W9    4500187399     202201257282-6568-40             CONNECTOR                CCN000002000000002000FN00000000020220101000002000NNED0720220110122114W9  4N0N  00000100000001206000001370732W9    HKYHK   005500360039
BI00B32W9    4500187399     202201257282-7028-30             CONNECTOR                CCN000002000000002000FN00000000020220101000002000NNED0720220110122114W9  1N0N  00000200000001124000001212532W9    HKYHK   005600390040
BI00B32W9    #4500187399    202201257282-5832                CONNECTOR                CCN000002000000002000FN00000000020220101000002000NNED0720220110122114W9  2N0N  00000200000001500000001650732W9    HKYHK   005600390040
BI00B32W9    #4500187399    202201257283-8398-40             CONNECTOR                CCN000001540000001540FN00000000020220101000001540NNED0720220110122114W9  2N0N  00000154000001007000001171332W9    HKYHK   005600390023
BI00B32X5    TIB2013        202203047287-8072                HOUSING FEMALE ASS'Y     CCN000002400000002400FN00000000020220501000002400NNM   20220110122114X5  1N0N  00000240000001221600001441632X5    EPYNA-E 005500360039
BI00B32X5    TIB2013        202203047289-6547                HOUSING FEMALE ASS'Y     CCN000004800000004800FN00000000020220501000004800NNM   20220110122114X5  1N0N  00000240000001152000001362032X5    EPYNA-E 005500360039
BI00B32X5    TIB2013        202203047017-1182-02             TERMINAL                 CCN000045000000045000FN00000000020220501000045000NNM   20220110122114X5  4P0P  00004500000001165500001318632X5    EPYNA-E 005100280028
BI00B32X5    TIB2013        202203047114-4486-02             TERMINAL                 CCN000072000000072000FN00000000020220501000072000NNM   20220110122114X5  4P0P  00002400000000662400000956032X5    EPYNA-E 006400630015
BI00B32X5    TIB2013        202203047114-4624-02             TERMINAL                 CCN000024000000024000FN00000000020220501000024000NNM   20220110122114X5  4P0P  00002400000000895200001188832X5    EPYNA-E 006400630015
BI00B32X5    TIB2013        202203047116-2951-02             TERMINAL                 CCN000010800000010800FN00000000020220501000010800NNM   20220110122114X5  4P0P  00000540000000817600001111832X5    EPYNA-E 006400630015
BI00B32X5    TIB2013        202203047116-4486-02             TERMINAL                 CCN000168000000168000FN00000000020220501000168000NNM   20220110122114X5  4P0P  00002800000000666400000995132X5    EPYNA-E 006400630017
BI00B32X5    TIB2013        202203047116-5046-02             TERMINAL                 CCN000120000000120000FN00000000020220501000120000NNM   20220110122114X5  4P0P  00001200000000544800000873532X5    EPYNA-E 006400630017
BI00B32X5    TIB2013        202203047158-3167-80             WIRE SEAL                CCN000020000000020000FN00000000020220501000020000NNM   20220110122114X5  1C0C  00002000000000048000000109032X5    EPYNA-E 002700430014
BI00B32X5    TIB2013        202203047195-0783-08             TERMINAL                 CCN000030000000030000FN00000000020220501000030000NNM   20220110122114X5  4P0P  00003000000000507000000801232X5    EPYNA-E 006400630015
BI00B32X5    TIB2013        202203047196-1325-02             TERMINAL FEMALE          CCN000240000000240000FN00000000020220501000240000NNM   20220110122114X5  4P0P  00006000000000450000000778732X5    EPYNA-E 006400630017
BI00B32X5    TIB2013        202203047282-5574-10             CONNECTOR                CCN000012000000012000FN00000000020220501000012000NNM   20220110122114X5  4N0N  00000080000001235000001423032X5    EPYNA-E 005600390040
BI00B32X5    TIB2013        202203047283-4855-40             CONNECTOR HOUSING        CCN000002400000002400FN00000000020220501000002400NNM   20220110122114X5  4N0N  00000240000001188400001400032X5    EPYNA-E 005600360039
BI00B32X5    TIB2013        202203047288-3330-30             HOUSING MALE             CCN000012000000012000FN00000000020220501000012000NNM   20220110122114X5  4N0N  00000150000000866300001011232X5    EPYNA-E 005400370024
BI00B32X5    TIB2013        202203047289-3342-90             HOUSING FEMALE ASS'Y     CCN000009600000009600FN00000000020220501000009600NNM   20220110122114X5  1N0N  00000240000000686400000901432X5    EPYNA-E 005500360039
BI00B32X5    TIB2013        202203047296-0784-02             TERMINAL ALUMINIUM       CCN000096000000096000FN00000000020220501000096000NNM   20220110122114X5  4P0P  00002400000000480000000765232X5    EPYNA-E 006400630015
BI00B32X5    TIB2013        202203047327-6731-3W             BATTERY FUSE             CCN000000704000000704FN00000000020220501000000704NNM   20220110122114X5  4N0N  00000006400000697600000843032X5    EPYNA-E 005400370024
BI00B32X5    #TIB2013       202203047147-9094                RETAINER                 CCN000003000000003000FN00000000020220501000003000NNM   20220110122114X5  2F0F  00000300000000717000000872932X5    EPYNA-E 005500360039
BI00B32X5    #TIB2013       202203047158-3017                RUBBER STOPPER           CCN000010000000010000FN00000000020220501000010000NNM   20220110122114X5  2C0C  00001000000000375500000435032X5    EPYNA-E 002700430014
BI00B32X5    #TIB2013       202203047287-7859                HYBRID FEMALE ASS'Y      CCN000007200000007200FN00000000020220501000007200NNM   20220110122114X5  2N0N  00000120000000461600000671632X5    EPYNA-E 005500360039
BI00B32X5    #TIB2013       202203047287-9155                HOUSING FEMALE ASS'Y     CCN000008640000008640FN00000000020220501000008640NNM   20220110122114X5  2N0N  00000096000000853700001045232X5    EPYNA-E 005400370024
BI00B32X5    #TIB2013       202203047154-3424-30             REAR HOLDER              CCN000012000000012000FN00000000020220501000012000NNM   20220110122114X5  2F0F  00000300000000975000001138632X5    EPYNA-E 005500360039
BI00B32X5    #TIB2013       202203047158-3003-90             RUBBER STOPPER           CCN000140000000140000FN00000000020220501000140000NNM   20220110122114X5  2C0C  00002000000000250000000306032X5    EPYNA-E 002700430014
BI00B32X5    #TIB2013       202203047158-3004-40             RUBBER STOPPER           CCN000060000000060000FN00000000020220501000060000NNM   20220110122114X5  2C0C  00002000000000234000000306332X5    EPYNA-E 002700430014
BI00B32X5    #TIB2013       202203047158-3005-80             RUBBER STOPPER           CCN000040000000040000FN00000000020220501000040000NNM   20220110122114X5  2H0H  00002000000000210000000268732X5    EPYNA-E 002700430014
BI00B32X5    #TIB2013       202203047158-3008-80             RUBBER STOPPER           CCN000060000000060000FN00000000020220501000060000NNM   20220110122114X5  2C0C  00002000000000288000000343032X5    EPYNA-E 004300270014
BI00B32X5    #TIB2013       202203047172-5630-40             RUBBER STOPPER           CCN000200000000200000FN00000000020220501000200000NNM   20220110122114X5  2H0H  00002000000000044000000095132X5    EPYNA-E 004300270014
BI00B32X5    #TIB2013       202203047172-5632-10             DUMMY PLUG               CCN000080000000080000FN00000000020220501000080000NNM   20220110122114X5  2H0H  00002000000000080400000131832X5    EPYNA-E 004300270014
BI00B32X5    #TIB2013       202203047183-8251-40             HOUSING                  CCN000004800000004800FN00000000020220501000004800NNM   20220110122114X5  2F0F  00000240000000357600000640032X5    EPYNA-E 005500360039
BI00B32X5    #TIB2013       202203047189-2978-30             HOUSING FEMALE           CCN000009000000009000FN00000000020220501000009000NNM   20220110122114X5  2F0F  00000150000000966900001096932X5    EPYNA-E 005400370024
BI00B32X5    @TIB2013       202203047286-4098                CONNECTOR MALE ASS'Y     CCN000020800000020800FN00000000020220501000020800NNM   20220110122114X5  3N0N  00000160000000949100001163032X5    EPYNA-E 005500360039
BI00B32Y4    #BTH32071      202202037158-3374-90             CONNECTOR WIRE SEAL      CCN000040000000040000FN00000000020211201000040000NNE   20220110122114    2H0H  00002000000000172000000229332Y4    BIYAB-I 002700430014
BI00B32Y4    #BTH32071      202202037158-3376-50             CONNECTOR WIRE SEAL      CCN000020000000020000FN00000000020211201000020000NNE   20220110122114    2C0C  00002000000000184000000240732Y4    BIYAB-I 002700430014
BI00B32Y4    #BTH32071      202202037282-8395-40             CONNECTOR                CCN000006000000006000FN00000000020211201000006000NNE   20220110122114    2N0N  00000100000001009000001188032Y4    BIYAB-I 005500360039
BI00B32Y4    MTH32063       202202037288-5000                HOUSING MALE ASS'Y       CCN000001680000001680FN00000000020211201000001680NNED0720220110122114    1N0N  00000033600000825200001035232Y4    BIYAB-I 005400370024
BI00B32Y4    #STH32071      202202037282-8395-40             CONNECTOR                CCN000004000000004000FN00000000020211201000004000NNE   20220110122114    2N0N  00000100000001009000001188032Y4    BIYAB-I 005500360039
BI00B32Y4    #STH32071      202202037283-8398-40             CONNECTOR                CCN000003080000003080FN00000000020211201000003080NNE   20220110122114    2N0N  00000154000001007000001171332Y4    BIYAB-I 005600390023
BI00B32Y4    ITA32051       202202037158-3166-60             WIRE SEAL                CCN000280000000280000FN00000000020220501000280000NNE   20220110122114    1C0C  00004000000000104000000152432Y4    BIYAB-I 002700430014
BI00B32Y4    ITA32051       202202037158-3167-80             WIRE SEAL                CCN000240000000240000FN00000000020220501000240000NNE   20220110122114    1C0C  00002000000000048000000109032Y4    BIYAB-I 002700430014
BI00B32Y4    ITA32051       202202037158-3168-80             SEALED                   CCN000040000000040000FN00000000020220501000040000NNE   20220110122114    1C0C  00002000000000044000000092132Y4    BIYAB-I 004300260014
BI00B32Y4    ITA32051       202202037158-3169-40             SEALING PLUG             CCN000048000000080000FN00000000020220501000080000NNE   20220110122114    1C0C  00004000000000156000000204132Y4    BIYAB-I 004300260014
BI00B32Y4    ITA32051       202202037282-5574-10             CONNECTOR                CCN000000800000000800FN00000000020220501000000800NNE   20220110122114    4N0N  00000080000001235000001423032Y4    BIYAB-I 005600390040
BI00B32Y4    ITA32051       202202037289-4696-30             HOUSING FEMALE ASS'Y     CCN000014000000014000FN00000000020220501000014000NNE   20220110122114    4N0N  00000200000000913400001055432Y4    BIYAB-I 005400370024
BI00B32Y4    ITA32051       202202037327-6654-3W             BATTERY FUSE             CCN000004300000004320FN00000000020220501000004320NNE   20220110122114    4N0N  00000009600001132300001312432Y4    BIYAB-I 005500360039
BI00B32Y4    #ITA32051      202202037158-3654-80             WIRE TUBE                CCN000008000000040000FN00000000020220501000040000NNE   20220110122114    2H0H  00004000000000104000000152232Y4    BIYAB-I 004300270014
BI00B32Y4    #ITA32051      202202037183-7725-40             HOUSING                  CCN000006000000006000FN00000000020220501000006000NNE   20220110122114    2F0F  00000600000000840000001040032Y4    BIYAB-I 005600390040
BI00B32Y4    ITA32053       202202037158-3166-60             WIRE SEAL                CCN000280000000280000FN00000000020220501000280000NNE   20220110122114    1C0C  00004000000000104000000152432Y4    BIYAB-I 002700430014
BI00B32Y4    ITA32053       202202037158-3167-80             WIRE SEAL                CCN000240000000240000FN00000000020220501000240000NNE   20220110122114    1C0C  00002000000000048000000109032Y4    BIYAB-I 002700430014
BI00B32Y4    ITA32053       202202037158-3168-80             SEALED                   CCN000040000000040000FN00000000020220501000040000NNE   20220110122114    1C0C  00002000000000044000000092132Y4    BIYAB-I 004300260014
BI00B32Y4    ITA32053       202202037158-3169-40             SEALING PLUG             CCN000048000000080000FN00000000020220501000080000NNE   20220110122114    1C0C  00004000000000156000000204132Y4    BIYAB-I 004300260014
BI00B32Y4    ITA32053       202202037289-4696-30             HOUSING FEMALE ASS'Y     CCN000010000000010000FN00000000020220501000010000NNE   20220110122114    4N0N  00000200000000913400001055432Y4    BIYAB-I 005400370024
BI00B32Y4    ITA32053       202202037327-6654-3W             BATTERY FUSE             CCN000003850000003936FN00000000020220501000003936NNE   20220110122114    4N0N  00000009600001132300001312432Y4    BIYAB-I 005500360039
BI00B32Y4    #ITA32053      202202037158-3654-80             WIRE TUBE                CCN000006000000040000FN00000000020220501000040000NNE   20220110122114    2H0H  00004000000000104000000152232Y4    BIYAB-I 004300270014
BI00B32Y5    TAT32051       202203017116-3153-02             TERMINAL FEMALE          CCN002214000002214000FN00000000020220501002214000NNM   20220110122114    4P0P  00002700000000459000000744232Y5    BZYBL   006400630015
BI00B32Y5    TAT32051       202203017116-3154-02             TERMINAL FEMALE          CCN000108000000108000FN00000000020220501000108000NNM   20220110122114    4P0P  00002700000000469800000755032Y5    BZYBL   006400630015
BI00B32Y5    TAT32051       202203017196-1325-02             TERMINAL FEMALE          CCN000400000000420000FN00000000020220501000420000NNM   20220110122114    4P0P  00006000000000450000000778732Y5    BZYBL   006400630017
BI00B32Y5    TAT32051       202203017196-1326-02             TERMINAL FEMALE          CCN000400000000420000FN00000000020220501000420000NNM   20220110122114    4P0P  00006000000000456000000784732Y5    BZYBL   006400630017
BI00B32Y5    TTA32061       202203017C89-3342-30             HOUSING FEMALE ASS'Y     CCN000002400000002400FN00000000020220601000002400NNM   20220110122114    1N0N  00000240000000686400000901432Y5    BZYBL   005500360039
BI00B32Y5    TTA32061       202203017196-0510-02             TERMINAL                 CCN000024000000024000FN00000000020220601000024000NNM   20220110122114    4P0P  00002400000000871200001034632Y5    BZYBL   002800510028
BI00B32Y5    TTA32061       202203017282-4576                HOUSING MALE ASS'Y       CCN000004800000004800FN00000000020220601000004800NNM   20220110122114    4N0N  00000240000000808800001028832Y5    BZYBL   005500360039
BI00B32Y5    TTA32062       202203017282-4576                HOUSING MALE ASS'Y       CCN000004800000004800FN00000000020220601000004800NNM   20220110122114    4N0N  00000240000000808800001028832Y5    BZYBL   005500360039
BI00B32Y5    TTA32063       202203017282-4576                HOUSING MALE ASS'Y       CCN000004800000004800FN00000000020220601000004800NNM   20220110122114    4N0N  00000240000000808800001028832Y5    BZYBL   005500360039
BI00B32Y5    TTA32061       202203017283-5845-40             CONNECTOR HOUSING        CCN000018000000018000FN00000000020220601000018000NNM   20220110122114    1N0N  00000600000000444000000606332Y5    BZYBL   005400370024
BI00B32Y5    TTA32061       202203017288-6547                CONNECTOR MALE ASS'Y     CCN000011250000011250FN00000000020220601000011250NNM   20220110122114    4N0N  00000075000001205300001340332Y5    BZYBL   005400370024
BI00B32Y5    TTA32062       202203017288-6547                CONNECTOR MALE ASS'Y     CCN000005250000005250FN00000000020220601000005250NNM   20220110122114    4N0N  00000075000001205300001340332Y5    BZYBL   005400370024
BI00B32Y5    TTA32063       202203017288-6547                CONNECTOR MALE ASS'Y     CCN000005250000005250FN00000000020220601000005250NNM   20220110122114    4N0N  00000075000001205300001340332Y5    BZYBL   005400370024
BI00B32Y5    TTA32064       202203017288-6547                CONNECTOR MALE ASS'Y     CCN000003000000003000FN00000000020220601000003000NNM   20220110122114    4N0N  00000075000001205300001340332Y5    BZYBL   005400370024
BI00B32Y5    TTA32061       202203017289-3342                HOUSING FEMALE ASS'Y     CCN000052800000052800FN00000000020220601000052800NNM   20220110122114    1N0N  00000240000000686400000901432Y5    BZYBL   005500360039
BI00B32Y5    TTA32062       202203017289-3342                HOUSING FEMALE ASS'Y     CCN000012000000012000FN00000000020220601000012000NNM   20220110122114    1N0N  00000240000000686400000901432Y5    BZYBL   005500360039
BI00B32Y5    TTA32063       202203017289-3342                HOUSING FEMALE ASS'Y     CCN000012000000012000FN00000000020220601000012000NNM   20220110122114    1N0N  00000240000000686400000901432Y5    BZYBL   005500360039
BI00B32Y5    TTA32064       202203017289-3342                HOUSING FEMALE ASS'Y     CCN000009600000009600FN00000000020220601000009600NNM   20220110122114    1N0N  00000240000000686400000901432Y5    BZYBL   005500360039
BI00B32Y5    TTA32061       202203017289-3342-30             HOUSING FEMALE ASS'Y     CCN000019200000019200FN00000000020220601000019200NNM   20220110122114    1N0N  00000240000000686400000901432Y5    BZYBL   005500360039
BI00B32Y5    TTA32062       202203017289-3342-30             HOUSING FEMALE ASS'Y     CCN000007200000007200FN00000000020220601000007200NNM   20220110122114    1N0N  00000240000000686400000901432Y5    BZYBL   005500360039
BI00B32Y5    TTA32063       202203017289-3342-30             HOUSING FEMALE ASS'Y     CCN000007200000007200FN00000000020220601000007200NNM   20220110122114    1N0N  00000240000000686400000901432Y5    BZYBL   005500360039
BI00B32Y5    TTA32064       202203017289-3342-30             HOUSING FEMALE ASS'Y     CCN000004800000004800FN00000000020220601000004800NNM   20220110122114    1N0N  00000240000000686400000901432Y5    BZYBL   005500360039
BI00B32Y5    TTA32061       202203017289-3342-40             HOUSING FEMALE ASS'Y     CCN000014400000014400FN00000000020220601000014400NNM   20220110122114    1N0N  00000240000000686400000901432Y5    BZYBL   005500360039
BI00B32Y5    TTA32062       202203017289-3342-40             HOUSING FEMALE ASS'Y     CCN000007200000007200FN00000000020220601000007200NNM   20220110122114    1N0N  00000240000000686400000901432Y5    BZYBL   005500360039
BI00B32Y5    TTA32063       202203017289-3342-40             HOUSING FEMALE ASS'Y     CCN000007200000007200FN00000000020220601000007200NNM   20220110122114    1N0N  00000240000000686400000901432Y5    BZYBL   005500360039
BI00B32Y5    TTA32064       202203017289-3342-40             HOUSING FEMALE ASS'Y     CCN000004800000004800FN00000000020220601000004800NNM   20220110122114    1N0N  00000240000000686400000901432Y5    BZYBL   005500360039
BI00B32Y5    TTA32061       202203017289-3342-90             HOUSING FEMALE ASS'Y     CCN000014400000014400FN00000000020220601000014400NNM   20220110122114    1N0N  00000240000000686400000901432Y5    BZYBL   005500360039
BI00B32Y5    TTA32062       202203017289-3342-90             HOUSING FEMALE ASS'Y     CCN000004800000004800FN00000000020220601000004800NNM   20220110122114    1N0N  00000240000000686400000901432Y5    BZYBL   005500360039
BI00B32Y5    TTA32063       202203017289-3342-90             HOUSING FEMALE ASS'Y     CCN000004800000004800FN00000000020220601000004800NNM   20220110122114    1N0N  00000240000000686400000901432Y5    BZYBL   005500360039
BI00B32Y5    TTA32064       202203017289-3342-90             HOUSING FEMALE ASS'Y     CCN000004800000004800FN00000000020220601000004800NNM   20220110122114    1N0N  00000240000000686400000901432Y5    BZYBL   005500360039
BI00B32Y5    TTA32061       202203017289-6547                HOUSING FEMALE ASS'Y     CCN000026400000026400FN00000000020220601000026400NNM   20220110122114    1N0N  00000240000001152000001362032Y5    BZYBL   005500360039
BI00B32Y5    TTA32062       202203017289-6547                HOUSING FEMALE ASS'Y     CCN000004800000004800FN00000000020220601000004800NNM   20220110122114    1N0N  00000240000001152000001362032Y5    BZYBL   005500360039
BI00B32Y5    TTA32063       202203017289-6547                HOUSING FEMALE ASS'Y     CCN000004800000004800FN00000000020220601000004800NNM   20220110122114    1N0N  00000240000001152000001362032Y5    BZYBL   005500360039
BI00B32Y5    TTA32064       202203017289-6547                HOUSING FEMALE ASS'Y     CCN000004800000004800FN00000000020220601000004800NNM   20220110122114    1N0N  00000240000001152000001362032Y5    BZYBL   005500360039
BI00B32Y6    STAP32051      202202037298-1145-4W             SQUIB SUB ASS'Y          CCN000020000000010000FN00000000020220501000010000NNMD0420220110122114    4N0N  00001000000000787900000944932Y6    BSYBL-S 005400370024
BI00B32Y6    STAP32051      202202037289-6868-30             SEALED ASSY FEMALE       CCN000020160000010080FN00000000020220501000010080NNMD0420220110122114    4N0N  00000252000000839200001119232Y6    BSYBL-S 005500360039
BI00B32Y6    STAP32051      202202037327-6731-3W             BATTERY FUSE             CCN000010752000005376FN00000000020220501000005376NNMD0420220110122114    4N0N  00000006400000697600000843032Y6    BSYBL-S 005400370024
BI00B32Y6    STAP32051      202202177289-6868-30             SEALED ASSY FEMALE       CCN000010080000010080FN00000000020220501000010080NNMD0420220110122114    4N0N  00000252000000839200001119232Y6    BSYBL-S 005500360039
BI00B32Y6    STAP32051      202202177298-1145-4W             SQUIB SUB ASS'Y          CCN000010000000010000FN00000000020220501000010000NNMD0420220110122114    4N0N  00001000000000787900000944932Y6    BSYBL-S 005400370024
BI00B32Y6    STAP32051      202202177327-6731-3W             BATTERY FUSE             CCN000005376000005376FN00000000020220501000005376NNMD0420220110122114    4N0N  00000006400000697600000843032Y6    BSYBL-S 005400370024
BI00B32Y8    TAIM2201A      202202097114-4032                TERMINAL                 CCN000007500000007500FN00000000020220401000007500NNM   20220110122114Y8  4P0P  00000750000000735000001063632Y8    CLYCL   006400630017
BI00B32Y8    TAIM2201A      202202097116-1180                TERMINAL                 CCN000019500000019500FN00000000020220401000019500NNM   20220110122114Y8  1P0P  00001950000000618200000903432Y8    CLYCL   006400630015
BI00B32Y8    TAIM2201A      202202097116-1473                TERMINAL                 CCN000040500000040500FN00000000020220401000040500NNM   20220110122114Y8  4P0P  00001350000000523800000809032Y8    CLYCL   006400630015
BI00B32Y8    TAIM2201A      202202097116-6042                TERMINAL                 CCN000003000000003000FN00000000020220401000003000NNM   20220110122114Y8  4P0P  00000300000000523800000856132Y8    CLYCL   006400630015
BI00B32Y8    TAIM2201A      202202097123-7500                CONNECTOR                CCN000002400000002400FN00000000020220401000002400NNM   20220110122114Y8  1F0F  00000080000000710000000896732Y8    CLYCL   005500360039
BI00B32Y8    TAIM2201A      202202097235-8662                DOOR GROMMET             CCN000000480000000480FN00000000020220401000000480NNM   20220110122114Y8  4N0N  00000016000000844000001010032Y8    CLYCL   005500360039
BI00B32Y8    TAIM2201A      202202097283-1144                CONNECTOR                CCN000002400000002400FN00000000020220401000002400NNM   20220110122114Y8  4N0N  00000240000000602200000866132Y8    CLYCL   005500360039
BI00B32Y8    TAIM2201A      202202097283-6120                CONNECTOR HOUSING        CCN000001500000001500FN00000000020220401000001500NNM   20220110122114Y8  1N0N  00000150000000914000001143032Y8    CLYCL   005600390040
BI00B32Y8    TAIM2201A      202202097286-3970                CONNECTOR HOUSING        CCN000000330000000330FN00000000020220401000000330NNM   20220110122114Y8  1N0N  00000011000000977300001164032Y8    CLYCL   005500360039
BI00B32Y8    TAIM2201A      202202097370-0309                J/B ASS'Y                CCN000000400000000400FN00000000020220401000000400NNM   20220110122114Y8  1J0J  00000001600000870400001260032Y8    CLYCL   005500360039
BI00B32Y8    TAIM2201A      202202097017-1182-02             TERMINAL                 CCN000045000000045000FN00000000020220401000045000NNM   20220110122114Y8  4P0P  00004500000001165500001318632Y8    CLYCL   005100280028
BI00B32Y8    TAIM2201A      202202097116-5044-02             TERMINAL                 CCN000080000000080000FN00000000020220401000080000NNM   20220110122114Y8  4P0P  00001600000000641600000986332Y8    CLYCL   006400630017
BI00B32Y8    TAIM2201A      202202097116-5045-02             TERMINAL                 CCN000016000000016000FN00000000020220401000016000NNM   20220110122114Y8  4P0P  00001600000000678400001007132Y8    CLYCL   006400630017
BI00B32Y8    TAIM2201A      202202097158-3006-90             RUBBER STOPPER           CCN000100000000100000FN00000000020220401000100000NNM   20220110122114Y8  1C0C  00002000000000330600000386032Y8    CLYCL   002700430014
BI00B32Y8    TAIM2201A      202202097158-3167-80             WIRE SEAL                CCN000300000000300000FN00000000020220401000300000NNM   20220110122114Y8  1C0C  00002000000000048000000109032Y8    CLYCL   002700430014
BI00B32Y8    TAIM2201A      202202097158-3168-80             SEALED                   CCN000040000000040000FN00000000020220401000040000NNM   20220110122114Y8  1C0C  00002000000000044000000092132Y8    CLYCL   004300260014
BI00B32Y8    TAIM2201A      202202097222-7923-40             CONNECTOR                CCN000000600000000600FN00000000020220401000000600NNM   20220110122114Y8  4N0N  00000060000000937000001123032Y8    CLYCL   005500360039
BI00B32Y8    TAIM2201A      202202097283-1968-30             CONNECTOR                CCN000000900000000900FN00000000020220401000000900NNM   20220110122114Y8  1N0N  00000090000001140000001318332Y8    CLYCL   005600390040
BI00B32Y8    TAIM2201A      202202097288-3329-30             HOUSING MALE             CCN000001500000001500FN00000000020220401000001500NNM   20220110122114Y8  4N0N  00000150000000866100001011132Y8    CLYCL   005400370024
BI00B32Y8    TAIM2201A      202202097289-3342-30             HOUSING FEMALE ASS'Y     CCN000004800000004800FN00000000020220401000004800NNM   20220110122114Y8  1N0N  00000240000000686400000901432Y8    CLYCL   005500360039
BI00B32Y8    #TAIM2201A     202202097157-7812                SEAL RUBBER              CCN000060000000060000FN00000000020220401000060000NNM   20220110122114Y8  2C0C  00001000000000137000000202032Y8    CLYCL   002700430014
BI00B32Y8    #TAIM2201A     202202097173-1070                CONNECTOR BRACKET        CCN000001200000001200FN00000000020220401000001200NNM   20220110122114Y8  2F0F  00000120000000592400000968332Y8    CLYCL   005500360039
BI00B32Y8    #TAIM2201A     202202097173-1071                BRACKET                  CCN000001200000001200FN00000000020220401000001200NNM   20220110122114Y8  2F0F  00000120000001156800001388232Y8    CLYCL   005600390040
BI00B32Y8    #TAIM2201A     202202097173-1516                SIDE BRACKET             CCN000000600000000600FN00000000020220401000000600NNM   20220110122114Y8  2F0F  00000060000000960000001090032Y8    CLYCL   005500360039
BI00B32Y8    #TAIM2201A     202202097183-2413                CONNECTOR HOUSING        CCN000004800000004800FN00000000020220401000004800NNM   20220110122114Y8  2F0F  00000480000000478100000760032Y8    CLYCL   005500360039
BI00B32Y8    #TAIM2201A     202202097283-4861                CONNECTOR                CCN000001500000001500FN00000000020220401000001500NNM   20220110122114Y8  2N0N  00000150000001200000001359932Y8    CLYCL   005500360039
BI00B32Y8    #TAIM2201A     202202097158-3120-90             CONNECTOR WIRE SEAL      CCN000040000000040000FN00000000020220401000040000NNM   20220110122114Y8  2C0C  00002000000000136000000194032Y8    CLYCL   002700430014
