BI00A32DG    RW2023         202201121801W006930              IVSSH 0.35F B            PCN000017500000017500FN00000000020220201000017500NNM21 20220110155147    1W    00000250000000452000000000032DG    BFSAIBF 000000000000GZ121011
BI00B32DG    RW2023         202201201801W00695U              IVSSH 0.35F BE           CCN000017500000002500FN00000000020220201000002500NNM20 20220110153158    1W    00000250000000452000000000032DG    BFSAIBF 000000000000GZ121012
BI00A32DG    RW2023         202201121801W006940              IVSSH 0.35F W            PCN000022500000022500FN00000000020220201000022500NNM21 20220110155147    1W    00000250000000452000000000032DG    BFSAIBF 000000000000GZ121021
BI00A32DG    RW2023         202201121801W006943              IVSSH 0.35F W/B          PCN000017500000017500FN00000000020220201000017500NNM21 20220110155147    1W    00000250000000452000000000032DG    BFSAIBF 000000000000GZ121022
BI00A32DG    RW2023         202201121801W00695U              IVSSH 0.35F BE           PCN000015000000015000FN00000000020220201000015000NNM21 20220110155147    1W    00000250000000452000000000032DG    BFSAIBF 000000000000GZ121012
BI00B32N3    NBT203-4       2022022418007703750              AVSS 0.3F R              CCN000024000000024000FN00000000020220101000024000NNM   20220110085607    1W    00000200000000496000000000032N3    ABYIPL-B000000000000XB222011
BI00B32N3    NBT203-4       2022022418007703770              AVSS 0.3F Y              CCN000024000000024000FN00000000020220101000024000NNM   20220110085607    1W    00000200000000496000000000032N3    ABYIPL-B000000000000XB222012
BI00B32N3    NBT203-4       2022022418007704130              AVSS 1.25F B             CCN000000800000000800FN00000000020220101000000800NNM   20220110085607    1W    00000080000001389000000000032N3    ABYIPL-B000000000000XB222013
BI00B32N3    NBT203-3       2022021718007704140              AVSS 1.25F W             CCN000001600000001600FN00000000020220101000001600NNM   20220110085607    1W    00000080000001389000000000032N3    ABYIPL-B000000000000XB122023
BI00B32N3    NBT203-3       2022021718007704143              AVSS 1.25F W/B           CCN000002400000002400FN00000000020220101000002400NNM   20220110085607    1W    00000080000001389000000000032N3    ABYIPL-B000000000000XB122024
BI00B32N3    NBT203-4       2022022418007704160              AVSS 1.25F G             CCN000000800000000800FN00000000020220101000000800NNM   20220110085607    1W    00000080000001389000000000032N3    ABYIPL-B000000000000XB222014
BI00B32N3    NBT203-3       20220217180D0203930              AVSSH 0.5F B             CCN000003000000003000FN00000000020220101000003000NNM   20220110085607    1W    00000150000000689000000000032N3    ABYIPL-B000000000000XB122015
BI00B32N3    NBT203-2       20220210180D0203940              AVSSH 0.5F W             CCN000001500000001500FN00000000020220101000001500NNM   20220110085607    1W    00000150000000689000000000032N3    ABYIPL-B000000000000XB421005
BI00B32N3    NBT203-3       20220217180D0203943              AVSSH 0.5F W/B           CCN000001500000001500FN00000000020220101000001500NNM   20220110085607    1W    00000150000000689000000000032N3    ABYIPL-B000000000000XB122020
BI00B32N3    NBT203-3       20220217180D0203950              AVSSH 0.5F R             CCN000003000000003000FN00000000020220101000003000NNM   20220110085607    1W    00000150000000689000000000032N3    ABYIPL-B000000000000XB122017
BI00B32N3    NBT203-3       20220217180D0203954              AVSSH 0.5F R/W           CCN000001500000001500FN00000000020220101000001500NNM   20220110085607    1W    00000150000000689000000000032N3    ABYIPL-B000000000000XB122018
BI00B32N3    NBT203-1       20220203180D0203960              AVSSH 0.5F G             CCN000001500000001500FN00000000020220101000001500NNM   20220110085607    1W    00000150000000689000000000032N3    ABYIPL-B000000000000XB321011
BI00B32N3    NBT203-3       20220217180D0203973              AVSSH 0.5F Y/B           CCN000001500000001500FN00000000020220101000001500NNM   20220110085607    1W    00000150000000689000000000032N3    ABYIPL-B000000000000XB122021
BI00B32N3    NBT203-3       20220217180D0203976              AVSSH 0.5F Y/G           CCN000001500000001500FN00000000020220101000001500NNM   20220110085607    1W    00000150000000689000000000032N3    ABYIPL-B000000000000XB122022
BI00B32N3    NBT203-3       20220217180D0203980              AVSSH 0.5F BR            CCN000001500000001500FN00000000020220101000001500NNM   20220110085607    1W    00000150000000689000000000032N3    ABYIPL-B000000000000XB122016
BI00B32N3    NBT203-2       20220210180D0203990              AVSSH 0.5F L             CCN000001500000001500FN00000000020220101000001500NNM   20220110085607    1W    00000150000000689000000000032N3    ABYIPL-B000000000000XB421004
BI00B32N3    NBT203-4       20220224180D0203990              AVSSH 0.5F L             CCN000001500000001500FN00000000020220101000001500NNM   20220110085607    1W    00000150000000689000000000032N3    ABYIPL-B000000000000XB222010
BI00B32N3    NBT203-3       20220217180D0203992              AVSSH 0.5F V             CCN000001500000001500FN00000000020220101000001500NNM   20220110085607    1W    00000150000000689000000000032N3    ABYIPL-B000000000000XB122019
BI00B32N3    @NBT203-3      20220217181B0911941              CAVSAS 0.3X4 GY          CCN000001750000001750FN00000000020220101000001750NNM   20220110085606    1W    00000025000003262300000000032N3    ABYIPL-B000000000000XB122005
BI00B32N3    @NBT203-3      20220217181B32103S1              AVSSCS 0.5FX3 DGY        CCN000010750000010750FN00000000020220101000010750NNM   20220110085606    1W    00000025000003585500000000032N3    ABYIPL-B000000000000XB122006
BI00B32N3    @NBT203-3      20220217181D6910237              AVSSHCS 0.5FX2 B/Y       CCN000000300000000300FN00000000020220101000000300NNM   20220110085606    1W    00000030000002385000000000032N3    ABYIPL-B000000000000XB122008
BI00B32N3    @NBT203-3      20220217181D6910239              AVSSHCS 0.5FX2 B/L       CCN000000250000000300FN00000000020220101000000300NNM   20220110085606    1W    00000030000002385000000000032N3    ABYIPL-B000000000000XB122007
BI00B32W4    @4500186712    20220315181B32037Y5              AVSSCS 0.3FX1 DGY/W      CCN000001000000001000FN00000000020220301000001000NNE   20220110115008W4171W    00000050000001780000000000032W417  HJYHK-J 000000000000OA123001
BI00B32W4    4500186727     20220301180D0203930              AVSSH 0.5F B             CCN000006000000006000FN00000000020220301000006000NNE   20220110115013W41 1W    00000150000000689000000000032W41   HJYHK-J 000000000000OS322001
BI00B32W4    4500186727     20220301180D0203940              AVSSH 0.5F W             CCN000006000000006000FN00000000020220301000006000NNE   20220110115013W41 1W    00000150000000689000000000032W41   HJYHK-J 000000000000OS322003
BI00B32W4    4500186727     20220301180D0203960              AVSSH 0.5F G             CCN000006000000006000FN00000000020220301000006000NNE   20220110115013W41 1W    00000150000000689000000000032W41   HJYHK-J 000000000000OS322002
BI00B32W4    4500186727     20220301180D0203970              AVSSH 0.5F Y             CCN000006000000006000FN00000000020220301000006000NNE   20220110115013W41 1W    00000150000000689000000000032W41   HJYHK-J 000000000000OS322004
BI00B32W4    4500186730     2022030118018403752              CAVS 0.3 P               CCN000010000000010000FN00000000020220301000010000NNE   20220110115014W41 1W    00000200000000471000000000032W41   HJYHK-J 000000000000OT322006
BI00B32W4    4500186730     2022030118018403760              CAVS 0.3 G               CCN000024000000024000FN00000000020220301000024000NNE   20220110115014W41 1W    00000200000000471000000000032W41   HJYHK-J 000000000000OT322003
BI00B32W4    4500186730     2022030118018403780              CAVS 0.3 BR              CCN000010000000010000FN00000000020220301000010000NNE   20220110115014W41 1W    00000200000000471000000000032W41   HJYHK-J 000000000000OT322002
BI00B32W4    4500186730     2022030118018403790              CAVS 0.3 L               CCN000022000000022000FN00000000020220301000022000NNE   20220110115014W41 1W    00000200000000471000000000032W41   HJYHK-J 000000000000OT322004
BI00B32W4    4500186730     2022030118018403792              CAVS 0.3 V               CCN000030000000030000FN00000000020220301000030000NNE   20220110115014W41 1W    00000200000000471000000000032W41   HJYHK-J 000000000000OT322008
BI00B32W4    4500186730     2022030118018403757              CAVS 0.3 R/Y             CCN000002000000002000FN00000000020220301000002000NNE   20220110115014W41 1W    00000200000000471000000000032W41   HJYHK-J 000000000000OT322007
BI00B32W4    4500186730     2022030118018403793              CAVS 0.3 L/B             CCN000002000000002000FN00000000020220301000002000NNE   20220110115014W41 1W    00000200000000471000000000032W41   HJYHK-J 000000000000OT322005
BI00B32W4    4500186730     2022030118018403930              CAVS 0.5 B               CCN000010500000010500FN00000000020220301000010500NNE   20220110115014W41 1W    00000150000000677000000000032W41   HJYHK-J 000000000000OT322009
BI00B32W4    4500186730     2022030118018403950              CAVS 0.5 R               CCN000024000000024000FN00000000020220301000024000NNE   20220110115014W41 1W    00000150000000677000000000032W41   HJYHK-J 000000000000OT322013
BI00B32W4    4500186730     2022030118018403951              CAVS 0.5 O               CCN000001500000001500FN00000000020220301000001500NNE   20220110115014W41 1W    00000150000000677000000000032W41   HJYHK-J 000000000000OT322011
BI00B32W4    4500186730     2022030118018403952              CAVS 0.5 P               CCN000007500000007500FN00000000020220301000007500NNE   20220110115014W41 1W    00000150000000677000000000032W41   HJYHK-J 000000000000OT322012
BI00B32W4    4500186730     2022030118018403960              CAVS 0.5 G               CCN000006000000006000FN00000000020220301000006000NNE   20220110115014W41 1W    00000150000000677000000000032W41   HJYHK-J 000000000000OT322010
BI00B32W4    4500186730     2022030118018403970              CAVS 0.5 Y               CCN000003000000003000FN00000000020220301000003000NNE   20220110115014W41 1W    00000150000000677000000000032W41   HJYHK-J 000000000000OT322015
BI00B32W4    4500186730     2022030118018403992              CAVS 0.5 V               CCN000007500000007500FN00000000020220301000007500NNE   20220110115014W41 1W    00000150000000677000000000032W41   HJYHK-J 000000000000OT322014
BI00B32W4    4500186730     2022030118018404130              CAVS 1.25 B              CCN000003200000003200FN00000000020220301000003200NNE   20220110115014W41 1W    00000080000001378000000000032W41   HJYHK-J 000000000000OT322016
BI00B32W4    4500186730     2022030118018404141              CAVS 1.25 GY             CCN000003200000003200FN00000000020220301000003200NNE   20220110115014W41 1W    00000080000001378000000000032W41   HJYHK-J 000000000000OT322018
BI00B32W4    4500186730     2022030118018404152              CAVS 1.25 P              CCN000000800000000800FN00000000020220301000000800NNE   20220110115014W41 1W    00000080000001378000000000032W41   HJYHK-J 000000000000OT322020
BI00B32W4    4500186730     2022030118018404160              CAVS 1.25 G              CCN000003200000003200FN00000000020220301000003200NNE   20220110115014W41 1W    00000080000001378000000000032W41   HJYHK-J 000000000000OT322017
BI00B32W4    4500186730     2022030118018404157              CAVS 1.25 R/Y            CCN000000800000000800FN00000000020220301000000800NNE   20220110115014W41 1W    00000080000001378000000000032W41   HJYHK-J 000000000000OT322021
BI00B32W4    4500186730     2022030118018404194              CAVS 1.25 L/W            CCN000000800000000800FN00000000020220301000000800NNE   20220110115014W41 1W    00000080000001378000000000032W41   HJYHK-J 000000000000OT322019
BI00B32W4    @4500186730    20220301181B09116K2              CAVSAS 0.3X2 GY/V        CCN000004200000004200FN00000000020220301000004200NNE   20220110115009W41 1W    00000035000002254000000000032W41   HJYHK-J 000000000000OT322001
BI00B32W4    4500186740     2022030118018403740              CAVS 0.3 W               CCN000024000000024000FN00000000020220301000024000NNE   20220110115015W41 1W    00000200000000471000000000032W41   HJYHK-J 000000000000OU322007
BI00B32W4    4500186740     2022030118018403730              CAVS 0.3 B               CCN000022000000022000FN00000000020220301000022000NNE   20220110115015W41 1W    00000200000000471000000000032W41   HJYHK-J 000000000000OU322001
BI00B32W4    4500186740     2022030118018403752              CAVS 0.3 P               CCN000010000000010000FN00000000020220301000010000NNE   20220110115015W41 1W    00000200000000471000000000032W41   HJYHK-J 000000000000OU322005
BI00B32W4    4500186740     2022030118018403760              CAVS 0.3 G               CCN000036000000036000FN00000000020220301000036000NNE   20220110115015W41 1W    00000200000000471000000000032W41   HJYHK-J 000000000000OU322003
BI00B32W4    4500186740     2022030118018403770              CAVS 0.3 Y               CCN000004000000004000FN00000000020220301000004000NNE   20220110115015W41 1W    00000200000000471000000000032W41   HJYHK-J 000000000000OU322008
BI00B32W4    4500186740     2022030118018403780              CAVS 0.3 BR              CCN000024000000024000FN00000000020220301000024000NNE   20220110115015W41 1W    00000200000000471000000000032W41   HJYHK-J 000000000000OU322002
BI00B32W4    4500186740     2022030118018403790              CAVS 0.3 L               CCN000024000000024000FN00000000020220301000024000NNE   20220110115015W41 1W    00000200000000471000000000032W41   HJYHK-J 000000000000OU322004
BI00B32W4    4500186740     2022030118018403792              CAVS 0.3 V               CCN000014000000014000FN00000000020220301000014000NNE   20220110115015W41 1W    00000200000000471000000000032W41   HJYHK-J 000000000000OU322006
BI00B32W4    4500186740     2022030118018403951              CAVS 0.5 O               CCN000028500000028500FN00000000020220301000028500NNE   20220110115015W41 1W    00000150000000677000000000032W41   HJYHK-J 000000000000OU322010
BI00B32W4    4500186740     2022030118018403952              CAVS 0.5 P               CCN000054000000054000FN00000000020220301000054000NNE   20220110115015W41 1W    00000150000000677000000000032W41   HJYHK-J 000000000000OU322011
BI00B32W4    4500186740     2022030118018403970              CAVS 0.5 Y               CCN000036000000036000FN00000000020220301000036000NNE   20220110115015W41 1W    00000150000000677000000000032W41   HJYHK-J 000000000000OU322013
BI00B32W4    4500186740     2022030118018403990              CAVS 0.5 L               CCN000064500000064500FN00000000020220301000064500NNE   20220110115015W41 1W    00000150000000677000000000032W41   HJYHK-J 000000000000OU322009
BI00B32W4    4500186740     2022030118018403992              CAVS 0.5 V               CCN000004500000004500FN00000000020220301000004500NNE   20220110115015W41 1W    00000150000000677000000000032W41   HJYHK-J 000000000000OU322012
BI00B32W4    4500186740     2022030118018404030              CAVS 0.85 B              CCN000069000000069000FN00000000020220301000069000NNE   20220110115015W41 1W    00000100000000965000000000032W41   HJYHK-J 000000000000OU322014
BI00B32W4    4500186740     2022030118018404040              CAVS 0.85 W              CCN000048000000048000FN00000000020220301000048000NNE   20220110115015W41 1W    00000100000000965000000000032W41   HJYHK-J 000000000000OU322025
BI00B32W4    4500186740     2022030118018404041              CAVS 0.85 GY             CCN000091000000091000FN00000000020220301000091000NNE   20220110115015W41 1W    00000100000000965000000000032W41   HJYHK-J 000000000000OU322017
BI00B32W4    4500186740     2022030118018404050              CAVS 0.85 R              CCN000120000000120000FN00000000020220301000120000NNE   20220110115015W41 1W    00000100000000965000000000032W41   HJYHK-J 000000000000OU322022
BI00B32W4    4500186740     2022030118018404051              CAVS 0.85 O              CCN000035000000035000FN00000000020220301000035000NNE   20220110115015W41 1W    00000100000000965000000000032W41   HJYHK-J 000000000000OU322020
BI00B32W4    4500186740     2022030118018404052              CAVS 0.85 P              CCN000023000000023000FN00000000020220301000023000NNE   20220110115015W41 1W    00000100000000965000000000032W41   HJYHK-J 000000000000OU322021
BI00B32W4    4500186740     2022030118018404060              CAVS 0.85 G              CCN000047000000047000FN00000000020220301000047000NNE   20220110115015W41 1W    00000100000000965000000000032W41   HJYHK-J 000000000000OU322016
BI00B32W4    4500186740     2022030118018404061              CAVS 0.85 LG             CCN000005000000005000FN00000000020220301000005000NNE   20220110115015W41 1W    00000100000000965000000000032W41   HJYHK-J 000000000000OU322019
BI00B32W4    4500186740     2022030118018404070              CAVS 0.85 Y              CCN000065000000065000FN00000000020220301000065000NNE   20220110115015W41 1W    00000100000000965000000000032W41   HJYHK-J 000000000000OU322026
BI00B32W4    4500186740     2022030118018404080              CAVS 0.85 BR             CCN000040000000040000FN00000000020220301000040000NNE   20220110115015W41 1W    00000100000000965000000000032W41   HJYHK-J 000000000000OU322015
BI00B32W4    4500186740     2022030118018404090              CAVS 0.85 L              CCN000003000000003000FN00000000020220301000003000NNE   20220110115015W41 1W    00000100000000965000000000032W41   HJYHK-J 000000000000OU322018
BI00B32W4    4500186740     2022030118018404091              CAVS 0.85 SB             CCN000060000000060000FN00000000020220301000060000NNE   20220110115015W41 1W    00000100000000965000000000032W41   HJYHK-J 000000000000OU322023
BI00B32W4    4500186740     2022030118018404092              CAVS 0.85 V              CCN000020000000020000FN00000000020220301000020000NNE   20220110115015W41 1W    00000100000000965000000000032W41   HJYHK-J 000000000000OU322024
BI00B32W4    4500186740     2022030118018404130              CAVS 1.25 B              CCN000003200000003200FN00000000020220301000003200NNE   20220110115015W41 1W    00000080000001378000000000032W41   HJYHK-J 000000000000OU322027
BI00B32W4    4500186740     2022030118018404160              CAVS 1.25 G              CCN000000800000000800FN00000000020220301000000800NNE   20220110115015W41 1W    00000080000001378000000000032W41   HJYHK-J 000000000000OU322028
BI00B32W4    4500186740     2022030118018404150              CAVS 1.25 R              CCN000001600000001600FN00000000020220301000001600NNE   20220110115015W41 1W    00000080000001378000000000032W41   HJYHK-J 000000000000OU322029
BI00B32W4    4500187047     20220215180D0203930              AVSSH 0.5F B             CCN000015000000015000FN00000000020220201000015000NNE   20220110115004W41 1W    00000150000000689000000000032W41   HJYHK-J 000000000000ON122001
BI00B32W4    4500187047     20220215180D0203940              AVSSH 0.5F W             CCN000015000000015000FN00000000020220201000015000NNE   20220110115004W41 1W    00000150000000689000000000032W41   HJYHK-J 000000000000ON122003
BI00B32W4    4500187047     20220215180D0203960              AVSSH 0.5F G             CCN000015000000015000FN00000000020220201000015000NNE   20220110115004W41 1W    00000150000000689000000000032W41   HJYHK-J 000000000000ON122002
BI00B32W4    4500187047     20220215180D0203970              AVSSH 0.5F Y             CCN000015000000015000FN00000000020220201000015000NNE   20220110115004W41 1W    00000150000000689000000000032W41   HJYHK-J 000000000000ON122004
BI00B32W4    4500187062     2022021518018403750              CAVS 0.3 R               CCN000008000000008000FN00000000020220201000008000NNE   20220110115007W41 1W    00000200000000471000000000032W41   HJYHK-J 000000000000OO122001
BI00B32W4    4500187062     2022021518018404090              CAVS 0.85 L              CCN000006000000006000FN00000000020220201000006000NNE   20220110115007W41 1W    00000100000000965000000000032W41   HJYHK-J 000000000000OO122002
BI00B32W4    @4500187127    20220215181E50002ZZ              AVSSCS-S 0.3FX2 DGY/G    CCN000001750000001750FN00000000020220201000001750NNE   20220110115002W4591W    00000035000002165000000000032W459  HJYHK-J 000000000000OP122001
BI00A32W4    @4500187251    20220224181D6910239              AVSSHCS 0.5FX2 B/L       CCN000025800000025800FN00000000020220201000025800NNE   20220110115003W4A21W    00000030000002385000000000032W4A2  HJYHK-J 000000000000OH222001
BI00B32W4    4500187012     2022030118007703930              AVSS 0.5F B              CCN000001500000001500FN00000000020220301000001500NNE   20220110115016W4K81W    00000150000000674000000000032W4K8  HJYHK-J 000000000000OV322004
BI00B32W4    4500187012     2022030118007703963              AVSS 0.5F G/B            CCN000001500000001500FN00000000020220301000001500NNE   20220110115016W4K81W    00000150000000674000000000032W4K8  HJYHK-J 000000000000OV322005
BI00B32W4    4500187012     2022030118007703964              AVSS 0.5F G/W            CCN000001500000001500FN00000000020220301000001500NNE   20220110115016W4K81W    00000150000000674000000000032W4K8  HJYHK-J 000000000000OV322007
BI00B32W4    4500187012     2022030118007703965              AVSS 0.5F G/R            CCN000003000000003000FN00000000020220301000003000NNE   20220110115016W4K81W    00000150000000674000000000032W4K8  HJYHK-J 000000000000OV322006
BI00B32W4    4500187012     2022030118007703967              AVSS 0.5F G/Y            CCN000003000000003000FN00000000020220301000003000NNE   20220110115016W4K81W    00000150000000674000000000032W4K8  HJYHK-J 000000000000OV322008
BI00B32W4    4500187012     2022030118007704187              AVSS 1.25F BR/Y          CCN000000800000000800FN00000000020220301000000800NNE   20220110115016W4K81W    00000080000001389000000000032W4K8  HJYHK-J 000000000000OV322009
BI00B32W4    4500187012     2022030118007704194              AVSS 1.25F L/W           CCN000000800000000800FN00000000020220301000000800NNE   20220110115016W4K81W    00000080000001389000000000032W4K8  HJYHK-J 000000000000OV322011
BI00B32W4    4500187012     2022030118007704195              AVSS 1.25F L/R           CCN000000800000000800FN00000000020220301000000800NNE   20220110115016W4K81W    00000080000001389000000000032W4K8  HJYHK-J 000000000000OV322010
BI00B32W4    4500187012     2022030118007704230              AVSS 2F B                CCN000006000000006000FN00000000020220301000006000NNE   20220110115016W4K81W    00000050000002126400000000032W4K8  HJYHK-J 000000000000OV322012
BI00B32W4    4500187012     2022030118007704287              AVSS 2F BR/Y             CCN000000500000000500FN00000000020220301000000500NNE   20220110115016W4K81W    00000050000002126400000000032W4K8  HJYHK-J 000000000000OV322013
BI00B32W4    4500187012     2022030118018403707              CAVS 0.3 P/B             CCN000010000000010000FN00000000020220301000010000NNE   20220110115016W4K81W    00000200000000471000000000032W4K8  HJYHK-J 000000000000OV322064
BI00B32W4    4500187012     2022030118018403730              CAVS 0.3 B               CCN000020000000020000FN00000000020220301000020000NNE   20220110115016W4K81W    00000200000000471000000000032W4K8  HJYHK-J 000000000000OV322058
BI00B32W4    4500187012     2022030118018403734              CAVS 0.3 B/W             CCN000010000000010000FN00000000020220301000010000NNE   20220110115016W4K81W    00000200000000471000000000032W4K8  HJYHK-J 000000000000OV322059
BI00B32W4    4500187012     2022030118018403740              CAVS 0.3 W               CCN000028000000028000FN00000000020220301000028000NNE   20220110115016W4K81W    00000200000000471000000000032W4K8  HJYHK-J 000000000000OV322068
BI00B32W4    4500187012     2022030118018403741              CAVS 0.3 GY              CCN000022000000022000FN00000000020220301000022000NNE   20220110115016W4K81W    00000200000000471000000000032W4K8  HJYHK-J 000000000000OV322061
BI00B32W4    4500187012     2022030118018403743              CAVS 0.3 W/B             CCN000008000000008000FN00000000020220301000008000NNE   20220110115016W4K81W    00000200000000471000000000032W4K8  HJYHK-J 000000000000OV322069
BI00B32W4    4500187012     2022030118018403749              CAVS 0.3 W/L             CCN000008000000008000FN00000000020220301000008000NNE   20220110115016W4K81W    00000200000000471000000000032W4K8  HJYHK-J 000000000000OV322070
BI00B32W4    4500187012     2022030118018403750              CAVS 0.3 R               CCN000024000000024000FN00000000020220301000024000NNE   20220110115016W4K81W    00000200000000471000000000032W4K8  HJYHK-J 000000000000OV322066
BI00B32W4    4500187012     2022030118018403760              CAVS 0.3 G               CCN000024000000024000FN00000000020220301000024000NNE   20220110115016W4K81W    00000200000000471000000000032W4K8  HJYHK-J 000000000000OV322060
BI00B32W4    4500187012     2022030118018403790              CAVS 0.3 L               CCN000034000000034000FN00000000020220301000034000NNE   20220110115016W4K81W    00000200000000471000000000032W4K8  HJYHK-J 000000000000OV322062
BI00B32W4    4500187012     2022030118018403792              CAVS 0.3 V               CCN000020000000020000FN00000000020220301000020000NNE   20220110115016W4K81W    00000200000000471000000000032W4K8  HJYHK-J 000000000000OV322067
BI00B32W4    4500187012     2022030118018403930              CAVS 0.5 B               CCN000063000000063000FN00000000020220301000063000NNE   20220110115016W4K81W    00000150000000677000000000032W4K8  HJYHK-J 000000000000OV322071
BI00B32W4    4500187012     2022030118018403934              CAVS 0.5 B/W             CCN000028500000028500FN00000000020220301000028500NNE   20220110115016W4K81W    00000150000000677000000000032W4K8  HJYHK-J 000000000000OV322072
BI00B32W4    4500187012     2022030118018403940              CAVS 0.5 W               CCN000060000000060000FN00000000020220301000060000NNE   20220110115016W4K81W    00000150000000677000000000032W4K8  HJYHK-J 000000000000OV322085
BI00B32W4    4500187012     2022030118018403941              CAVS 0.5 GY              CCN000048000000048000FN00000000020220301000048000NNE   20220110115016W4K81W    00000150000000677000000000032W4K8  HJYHK-J 000000000000OV322076
BI00B32W4    4500187012     2022030118018403943              CAVS 0.5 W/B             CCN000051000000051000FN00000000020220301000051000NNE   20220110115016W4K81W    00000150000000677000000000032W4K8  HJYHK-J 000000000000OV322086
BI00B32W4    4500187012     2022030118018403950              CAVS 0.5 R               CCN000027000000027000FN00000000020220301000027000NNE   20220110115016W4K81W    00000150000000677000000000032W4K8  HJYHK-J 000000000000OV322081
BI00B32W4    4500187012     2022030118018403952              CAVS 0.5 P               CCN000045000000045000FN00000000020220301000045000NNE   20220110115016W4K81W    00000150000000677000000000032W4K8  HJYHK-J 000000000000OV322080
BI00B32W4    4500187012     2022030118018403954              CAVS 0.5 R/W             CCN000031500000031500FN00000000020220301000031500NNE   20220110115016W4K81W    00000150000000677000000000032W4K8  HJYHK-J 000000000000OV322082
BI00B32W4    4500187012     2022030118018403960              CAVS 0.5 G               CCN000058500000058500FN00000000020220301000058500NNE   20220110115016W4K81W    00000150000000677000000000032W4K8  HJYHK-J 000000000000OV322074
BI00B32W4    4500187012     2022030118018403961              CAVS 0.5 LG              CCN000064500000064500FN00000000020220301000064500NNE   20220110115016W4K81W    00000150000000677000000000032W4K8  HJYHK-J 000000000000OV322079
BI00B32W4    4500187012     2022030118018403964              CAVS 0.5 G/W             CCN000012000000012000FN00000000020220301000012000NNE   20220110115016W4K81W    00000150000000677000000000032W4K8  HJYHK-J 000000000000OV322075
BI00B32W4    4500187012     2022030118018403970              CAVS 0.5 Y               CCN000045000000045000FN00000000020220301000045000NNE   20220110115016W4K81W    00000150000000677000000000032W4K8  HJYHK-J 000000000000OV322087
BI00B32W4    4500187012     2022030118018403980              CAVS 0.5 BR              CCN000010500000010500FN00000000020220301000010500NNE   20220110115016W4K81W    00000150000000677000000000032W4K8  HJYHK-J 000000000000OV322073
BI00B32W4    4500187012     2022030118018403990              CAVS 0.5 L               CCN000037500000037500FN00000000020220301000037500NNE   20220110115016W4K81W    00000150000000677000000000032W4K8  HJYHK-J 000000000000OV322077
BI00B32W4    4500187012     2022030118018403991              CAVS 0.5 SB              CCN000072000000072000FN00000000020220301000072000NNE   20220110115016W4K81W    00000150000000677000000000032W4K8  HJYHK-J 000000000000OV322083
BI00B32W4    4500187012     2022030118018403992              CAVS 0.5 V               CCN000028500000028500FN00000000020220301000028500NNE   20220110115016W4K81W    00000150000000677000000000032W4K8  HJYHK-J 000000000000OV322084
BI00B32W4    4500187012     2022030118018403995              CAVS 0.5 L/R             CCN000012000000012000FN00000000020220301000012000NNE   20220110115016W4K81W    00000150000000677000000000032W4K8  HJYHK-J 000000000000OV322078
BI00B32W4    4500187012     2022030118018404043              CAVS 0.85 W/B            CCN000010000000010000FN00000000020220301000010000NNE   20220110115016W4K81W    00000100000000965000000000032W4K8  HJYHK-J 000000000000OV322092
BI00B32W4    4500187012     2022030118018404052              CAVS 0.85 P              CCN000010000000010000FN00000000020220301000010000NNE   20220110115016W4K81W    00000100000000965000000000032W4K8  HJYHK-J 000000000000OV322090
BI00B32W4    4500187012     2022030118018404061              CAVS 0.85 LG             CCN000010000000010000FN00000000020220301000010000NNE   20220110115016W4K81W    00000100000000965000000000032W4K8  HJYHK-J 000000000000OV322089
BI00B32W4    4500187012     2022030118018404090              CAVS 0.85 L              CCN000014000000014000FN00000000020220301000014000NNE   20220110115016W4K81W    00000100000000965000000000032W4K8  HJYHK-J 000000000000OV322088
BI00B32W4    4500187012     2022030118018404092              CAVS 0.85 V              CCN000008000000008000FN00000000020220301000008000NNE   20220110115016W4K81W    00000100000000965000000000032W4K8  HJYHK-J 000000000000OV322091
BI00B32W4    4500187012     2022030118018404130              CAVS 1.25 B              CCN000048000000048000FN00000000020220301000048000NNE   20220110115016W4K81W    00000080000001378000000000032W4K8  HJYHK-J 000000000000OV322093
BI00B32W4    4500187012     2022030118018404140              CAVS 1.25 W              CCN000013600000013600FN00000000020220301000013600NNE   20220110115016W4K81W    00000080000001378000000000032W4K8  HJYHK-J 000000000000OV322100
BI00B32W4    4500187012     2022030118018404141              CAVS 1.25 GY             CCN000046400000046400FN00000000020220301000046400NNE   20220110115016W4K81W    00000080000001378000000000032W4K8  HJYHK-J 000000000000OV322095
BI00B32W4    4500187012     2022030118018404143              CAVS 1.25 W/B            CCN000036800000036800FN00000000020220301000036800NNE   20220110115016W4K81W    00000080000001378000000000032W4K8  HJYHK-J 000000000000OV322101
BI00B32W4    4500187012     2022030118018404145              CAVS 1.25 W/R            CCN000021600000021600FN00000000020220301000021600NNE   20220110115016W4K81W    00000080000001378000000000032W4K8  HJYHK-J 000000000000OV322103
BI00B32W4    4500187012     2022030118018404146              CAVS 1.25 W/G            CCN000037600000037600FN00000000020220301000037600NNE   20220110115016W4K81W    00000080000001378000000000032W4K8  HJYHK-J 000000000000OV322102
BI00B32W4    4500187012     2022030118018404150              CAVS 1.25 R              CCN000014400000014400FN00000000020220301000014400NNE   20220110115016W4K81W    00000080000001378000000000032W4K8  HJYHK-J 000000000000OV322098
BI00B32W4    4500187012     2022030118018404152              CAVS 1.25 P              CCN000024800000024800FN00000000020220301000024800NNE   20220110115016W4K81W    00000080000001378000000000032W4K8  HJYHK-J 000000000000OV322097
BI00B32W4    4500187012     2022030118018404160              CAVS 1.25 G              CCN000024800000024800FN00000000020220301000024800NNE   20220110115016W4K81W    00000080000001378000000000032W4K8  HJYHK-J 000000000000OV322094
BI00B32W4    4500187012     2022030118018404161              CAVS 1.25 LG             CCN000009600000009600FN00000000020220301000009600NNE   20220110115016W4K81W    00000080000001378000000000032W4K8  HJYHK-J 000000000000OV322096
BI00B32W4    4500187012     2022030118018404192              CAVS 1.25 V              CCN000023200000023200FN00000000020220301000023200NNE   20220110115016W4K81W    00000080000001378000000000032W4K8  HJYHK-J 000000000000OV322099
BI00B32W4    4500187012     20220301180184037H2              CAVS 0.3 P/G             CCN000010000000010000FN00000000020220301000010000NNE   20220110115016W4K81W    00000200000000471000000000032W4K8  HJYHK-J 000000000000OV322065
BI00B32W4    4500187012     20220301180T8403970              ACCAVS 0.5 Y             CCN000016500000016500FN00000000020220301000016500NNE   20220110115016W4K81W    00000150000000674300000000032W4K8  HJYHK-J 000000000000OV322002
BI00B32W4    4500187012     20220301180T8403973              ACCAVS 0.5 Y/B           CCN000016500000016500FN00000000020220301000016500NNE   20220110115016W4K81W    00000150000000674300000000032W4K8  HJYHK-J 000000000000OV322003
BI00B32W4    4500187012     2022030118018403761              CAVS 0.3 LG              CCN000002000000002000FN00000000020220301000002000NNE   20220110115016W4K81W    00000200000000471000000000032W4K8  HJYHK-J 000000000000OV322063
BI00B32W4    4500187012     202203011801R703940              CIVUS 0.5 W              CCN000063800000063800FN00000000020220301000063800NNE   20220110115016W4K81W    00000220000000525000000000032W4K8  HJYHK-J 000000000000OV322026
BI00B32W4    4500187012     202203011801R703991              CIVUS 0.5 SB             CCN000048400000048400FN00000000020220301000048400NNE   20220110115016W4K81W    00000220000000525000000000032W4K8  HJYHK-J 000000000000OV322024
BI00B32W4    4500187012     202203011801R706940              CIVUS 0.35 W             CCN000120000000120000FN00000000020220301000120000NNE   20220110115016W4K81W    00000300000000386000000000032W4K8  HJYHK-J 000000000000OV322054
BI00B32W4    4500187012     202203011801R706943              CIVUS 0.35 W/B           CCN000039000000039000FN00000000020220301000039000NNE   20220110115016W4K81W    00000300000000386000000000032W4K8  HJYHK-J 000000000000OV322055
BI00B32W4    4500187012     202203011801R706930              CIVUS 0.35 B             CCN000078000000078000FN00000000020220301000078000NNE   20220110115016W4K81W    00000300000000386000000000032W4K8  HJYHK-J 000000000000OV322043
BI00B32W4    4500187012     202203011801R70695U              CIVUS 0.35 BE            CCN000048000000048000FN00000000020220301000048000NNE   20220110115016W4K81W    00000300000000386000000000032W4K8  HJYHK-J 000000000000OV322044
BI00B32W4    4500187012     202203011801R706980              CIVUS 0.35 BR            CCN000093000000093000FN00000000020220301000093000NNE   20220110115016W4K81W    00000300000000386000000000032W4K8  HJYHK-J 000000000000OV322045
BI00B32W4    4500187012     202203011801R706960              CIVUS 0.35 G             CCN000069000000069000FN00000000020220301000069000NNE   20220110115016W4K81W    00000300000000386000000000032W4K8  HJYHK-J 000000000000OV322046
BI00B32W4    4500187012     202203011801R706941              CIVUS 0.35 GY            CCN000102000000102000FN00000000020220301000102000NNE   20220110115016W4K81W    00000300000000386000000000032W4K8  HJYHK-J 000000000000OV322047
BI00B32W4    4500187012     202203011801R706990              CIVUS 0.35 L             CCN000090000000090000FN00000000020220301000090000NNE   20220110115016W4K81W    00000300000000386000000000032W4K8  HJYHK-J 000000000000OV322048
BI00B32W4    4500187012     202203011801R706952              CIVUS 0.35 P             CCN000054000000054000FN00000000020220301000054000NNE   20220110115016W4K81W    00000300000000386000000000032W4K8  HJYHK-J 000000000000OV322050
BI00B32W4    4500187012     202203011801R706991              CIVUS 0.35 SB            CCN000069000000069000FN00000000020220301000069000NNE   20220110115016W4K81W    00000300000000386000000000032W4K8  HJYHK-J 000000000000OV322052
BI00B32W4    4500187012     202203011801R706992              CIVUS 0.35 V             CCN000057000000057000FN00000000020220301000057000NNE   20220110115016W4K81W    00000300000000386000000000032W4K8  HJYHK-J 000000000000OV322053
BI00B32W4    4500187012     202203011801R703952              CIVUS 0.5 P              CCN000044000000044000FN00000000020220301000044000NNE   20220110115016W4K81W    00000220000000525000000000032W4K8  HJYHK-J 000000000000OV322022
BI00B32W4    4500187012     202203011801R70395U              CIVUS 0.5 BE             CCN000028600000028600FN00000000020220301000028600NNE   20220110115016W4K81W    00000220000000525000000000032W4K8  HJYHK-J 000000000000OV322016
BI00B32W4    4500187012     202203011801R704052              CIVUS 0.75 P             CCN000001500000001500FN00000000020220301000001500NNE   20220110115016W4K81W    00000150000000765000000000032W4K8  HJYHK-J 000000000000OV322030
BI00B32W4    4500187012     202203011801R704043              CIVUS 0.75 W/B           CCN000001500000001500FN00000000020220301000001500NNE   20220110115016W4K81W    00000150000000765000000000032W4K8  HJYHK-J 000000000000OV322031
BI00B32W4    4500187012     202203011801R704080              CIVUS 0.75 BR            CCN000001500000001500FN00000000020220301000001500NNE   20220110115016W4K81W    00000150000000765000000000032W4K8  HJYHK-J 000000000000OV322029
BI00B32W4    4500187012     202203011801R704140              CIVUS 1.25 W             CCN000012000000012000FN00000000020220301000012000NNE   20220110115016W4K81W    00000100000001228000000000032W4K8  HJYHK-J 000000000000OV322041
BI00B32W4    4500187012     202203011801R704143              CIVUS 1.25 W/B           CCN000035000000035000FN00000000020220301000035000NNE   20220110115016W4K81W    00000100000001228000000000032W4K8  HJYHK-J 000000000000OV322042
BI00B32W4    4500187012     202203011801R704190              CIVUS 1.25 L             CCN000009000000009000FN00000000020220301000009000NNE   20220110115016W4K81W    00000100000001228000000000032W4K8  HJYHK-J 000000000000OV322035
BI00B32W4    4500187012     202203011801R704192              CIVUS 1.25 V             CCN000013000000013000FN00000000020220301000013000NNE   20220110115016W4K81W    00000100000001228000000000032W4K8  HJYHK-J 000000000000OV322040
BI00B32W4    4500187012     202203011801R70415U              CIVUS 1.25 BE            CCN000009000000009000FN00000000020220301000009000NNE   20220110115016W4K81W    00000100000001228000000000032W4K8  HJYHK-J 000000000000OV322033
BI00B32W4    4500187012     202203011801R704161              CIVUS 1.25 LG            CCN000016000000016000FN00000000020220301000016000NNE   20220110115016W4K81W    00000100000001228000000000032W4K8  HJYHK-J 000000000000OV322036
BI00B32W4    4500187012     202203011801R704150              CIVUS 1.25 R             CCN000011000000011000FN00000000020220301000011000NNE   20220110115016W4K81W    00000100000001228000000000032W4K8  HJYHK-J 000000000000OV322038
BI00B32W4    4500187012     202203011801R704191              CIVUS 1.25 SB            CCN000011000000011000FN00000000020220301000011000NNE   20220110115016W4K81W    00000100000001228000000000032W4K8  HJYHK-J 000000000000OV322039
BI00B32W4    4500187012     202203011801R706961              CIVUS 0.35 LG            CCN000078000000078000FN00000000020220301000078000NNE   20220110115016W4K81W    00000300000000386000000000032W4K8  HJYHK-J 000000000000OV322049
BI00B32W4    4500187012     202203011801R703980              CIVUS 0.5 BR             CCN000074800000074800FN00000000020220301000074800NNE   20220110115016W4K81W    00000220000000525000000000032W4K8  HJYHK-J 000000000000OV322017
BI00B32W4    4500187012     202203011801R704152              CIVUS 1.25 P             CCN000008000000008000FN00000000020220301000008000NNE   20220110115016W4K81W    00000100000001228000000000032W4K8  HJYHK-J 000000000000OV322037
BI00B32W4    4500187012     202203011801R703960              CIVUS 0.5 G              CCN000017600000017600FN00000000020220301000017600NNE   20220110115016W4K81W    00000220000000525000000000032W4K8  HJYHK-J 000000000000OV322018
BI00B32W4    4500187012     202203011801R704180              CIVUS 1.25 BR            CCN000022000000022000FN00000000020220301000022000NNE   20220110115016W4K81W    00000100000001228000000000032W4K8  HJYHK-J 000000000000OV322034
BI00B32W4    4500187012     202203011801R706950              CIVUS 0.35 R             CCN000081000000081000FN00000000020220301000081000NNE   20220110115016W4K81W    00000300000000386000000000032W4K8  HJYHK-J 000000000000OV322051
BI00B32W4    4500187012     202203011801R706970              CIVUS 0.35 Y             CCN000102000000102000FN00000000020220301000102000NNE   20220110115016W4K81W    00000300000000386000000000032W4K8  HJYHK-J 000000000000OV322056
BI00B32W4    4500187012     202203011801R706973              CIVUS 0.35 Y/B           CCN000102000000102000FN00000000020220301000102000NNE   20220110115016W4K81W    00000300000000386000000000032W4K8  HJYHK-J 000000000000OV322057
BI00B32W4    4500187012     202203011801R703930              CIVUS 0.5 B              CCN000059400000059400FN00000000020220301000059400NNE   20220110115016W4K81W    00000220000000525000000000032W4K8  HJYHK-J 000000000000OV322015
BI00B32W4    4500187012     202203011801R703941              CIVUS 0.5 GY             CCN000061600000061600FN00000000020220301000061600NNE   20220110115016W4K81W    00000220000000525000000000032W4K8  HJYHK-J 000000000000OV322019
BI00B32W4    4500187012     202203011801R703990              CIVUS 0.5 L              CCN000033000000033000FN00000000020220301000033000NNE   20220110115016W4K81W    00000220000000525000000000032W4K8  HJYHK-J 000000000000OV322020
BI00B32W4    4500187012     202203011801R703961              CIVUS 0.5 LG             CCN000114400000114400FN00000000020220301000114400NNE   20220110115016W4K81W    00000220000000525000000000032W4K8  HJYHK-J 000000000000OV322021
BI00B32W4    4500187012     202203011801R703992              CIVUS 0.5 V              CCN000011000000011000FN00000000020220301000011000NNE   20220110115016W4K81W    00000220000000525000000000032W4K8  HJYHK-J 000000000000OV322025
BI00B32W4    4500187012     202203011801R703943              CIVUS 0.5 W/B            CCN000184800000184800FN00000000020220301000184800NNE   20220110115016W4K81W    00000220000000525000000000032W4K8  HJYHK-J 000000000000OV322027
BI00B32W4    4500187012     202203011801R703950              CIVUS 0.5 R              CCN000011000000011000FN00000000020220301000011000NNE   20220110115016W4K81W    00000220000000525000000000032W4K8  HJYHK-J 000000000000OV322023
BI00B32W4    4500187012     202203011801R704030              CIVUS 0.75 B             CCN000007500000007500FN00000000020220301000007500NNE   20220110115016W4K81W    00000150000000765000000000032W4K8  HJYHK-J 000000000000OV322028
BI00B32W4    4500187012     202203011801R704130              CIVUS 1.25 B             CCN000032000000032000FN00000000020220301000032000NNE   20220110115016W4K81W    00000100000001228000000000032W4K8  HJYHK-J 000000000000OV322032
BI00B32W4    4500187012     2022030118007704243              AVSS 2F W/B              CCN000007000000007000FN00000000020220301000007000NNE   20220110115016W4K81W    00000050000002126400000000032W4K8  HJYHK-J 000000000000OV322014
BI00B32W4    @4500187012    20220301181B32116Z6              AVSSCS 0.3FX2 DGY/V      CCN000008050000008050FN00000000020220301000008050NNE   20220110115010W4K81W    00000035000002276000000000032W4K8  HJYHK-J 000000000000OV322001
BI00B32W4    4500187018     2022030118007704260              AVSS 2F G                CCN000004000000004000FN00000000020220301000004000NNE   20220110115017W4K81W    00000050000002126400000000032W4K8  HJYHK-J 000000000000OW322001
BI00B32W4    4500187018     2022030118007704240              AVSS 2F W                CCN000003500000003500FN00000000020220301000003500NNE   20220110115017W4K81W    00000050000002126400000000032W4K8  HJYHK-J 000000000000OW322003
BI00B32W4    4500187018     2022030118007704290              AVSS 2F L                CCN000004000000004000FN00000000020220301000004000NNE   20220110115017W4K81W    00000050000002126400000000032W4K8  HJYHK-J 000000000000OW322002
BI00B32W4    4500187018     202203011801R704061              CIVUS 0.75 LG            CCN000009000000009000FN00000000020220301000009000NNE   20220110115017W4K81W    00000150000000765000000000032W4K8  HJYHK-J 000000000000OW322004
BI00A32W4    @4500187300    20220317181D6910239              AVSSHCS 0.5FX2 B/L       CCN000001200000001200FN00000000020220301000001200NNE   20220110115011W4421W    00000030000002385000000000032W442  HJYHK-J 000000000000OB123001
BI00B32W4    @4500187318    20220322181B32037Y5              AVSSCS 0.3FX1 DGY/W      CCN000013500000013500FN00000000020220301000013500NNE   20220110115012W4171W    00000050000001780000000000032W417  HJYHK-J 000000000000OG223001
BI00B32W4    @4500187318    20220322181B32116S1              AVSSCS 0.3FX2 DGY        CCN000001400000001400FN00000000020220301000001400NNE   20220110115012W4171W    00000035000002276000000000032W417  HJYHK-J 000000000000OG223002
BI00B32X5    TWB2010        202202041801W003930              IVSSH 0.5F B             CCN000001800000001800FN00000000020220401000001800NNE   20220110084717X5  1W    00000180000000625000000000032X5    EPYNA-E 000000000000AE321012
BI00B32X5    TWB2010        202202041801W00395U              IVSSH 0.5F BE            CCN000001800000001800FN00000000020220401000001800NNE   20220110084717X5  1W    00000180000000625000000000032X5    EPYNA-E 000000000000AE321013
BI00B32X5    TWB2010        202202041801W004040              IVSSH 0.75F W            CCN000002600000002600FN00000000020220401000002600NNE   20220110084717X5  1W    00000130000000882000000000032X5    EPYNA-E 000000000000AE321015
BI00B32X5    TWB2010        202202041801W004060              IVSSH 0.75F G            CCN000001300000001300FN00000000020220401000001300NNE   20220110084717X5  1W    00000130000000882000000000032X5    EPYNA-E 000000000000AE321014
