BI00A1200    00153          202204121801W006950              IVSSH 0.35F R            CCN000002500000002500FN00000000020220401000002500NNE   20220404135629    1W    0000025000000045200000000001200    YCYC    000000000000RU523003
BI00A1200    00153          202204121801W003950              IVSSH 0.5F R             CCN000001800000001800FN00000000020220401000001800NNE   20220404135629    1W    0000018000000062500000000001200    YCYC    000000000000RU523001
BI00A1200    00153          202204121801W004040              IVSSH 0.75F W            CCN000001300000001300FN00000000020220401000001300NNE   20220404135629    1W    0000013000000088200000000001200    YCYC    000000000000RU523002
BI00B32AF    TTB2061        2022051318000004540              AV 8 W                   CCN000003000000003000FN00000000020220601000003000NNM   20220404164355    1W    00000010000010466200000000032AF    HBYHVTB 000000000000UZ424007
BI00B32AF    TTB2062        2022052018000004540              AV 8 W                   CCN000003300000003300FN00000000020220601000003300NNM   20220404164355    1W    00000010000010466200000000032AF    HBYHVTB 000000000000UZ125008
BI00B32AF    TTB2061        2022051318000004543              AV 8 W/B                 CCN000002800000002800FN00000000020220601000002800NNM   20220404164355    1W    00000010000010466200000000032AF    HBYHVTB 000000000000UZ424008
BI00B32AF    @TTB2062       20220520181B0911741              CAVSAS 0.3X3 GY          CCN000004500000004500FN00000000020220601000004500NNM   20220404164354    1W    00000025000002843000000000032AF    HBYHVTB 000000000000UZ125006
BI00B32AF    @TTB2063       20220527181B0911741              CAVSAS 0.3X3 GY          CCN000004500000004500FN00000000020220601000004500NNM   20220404164354    1W    00000025000002843000000000032AF    HBYHVTB 000000000000UZ225013
BI00B32AF    @TTB2064       20220603181B0911741              CAVSAS 0.3X3 GY          CCN000007000000007000FN00000000020220601000007000NNM   20220404164354    1W    00000025000002843000000000032AF    HBYHVTB 000000000000UZ325007
BI00B32AF    @TTB2061       20220513181E48013ZZ              CAVSAS-S 0.3X3 GY        CCN000002000000002000FN00000000020220601000002000NNM   20220404164354    1W    00000025000002778200000000032AF    HBYHVTB 000000000000UZ424006
BI00B32AF    @TTB2062       20220520181E48013ZZ              CAVSAS-S 0.3X3 GY        CCN000001000000001000FN00000000020220601000001000NNM   20220404164354    1W    00000025000002778200000000032AF    HBYHVTB 000000000000UZ125007
BI00B32AF    @TTB2063       20220527181E48013ZZ              CAVSAS-S 0.3X3 GY        CCN000002500000002500FN00000000020220601000002500NNM   20220404164354    1W    00000025000002778200000000032AF    HBYHVTB 000000000000UZ225014
BI00B32AF    @TTB2064       20220603181E48013ZZ              CAVSAS-S 0.3X3 GY        CCN000004500000004500FN00000000020220601000004500NNM   20220404164354    1W    00000025000002778200000000032AF    HBYHVTB 000000000000UZ325008
BI00B32AF    @TTB2061       20220513181E48065ZZ              CAVSAS-S 0.5X4 GY/W      CCN000000200000000200FN00000000020220601000000200NNM   20220404164354    1W    00000020000003995000000000032AF    HBYHVTB 000000000000UZ424005
BI00B32AF    @TTB2062       20220520181AD2004ZZ              CIVUSAS-S 0.35X4 B       CCN000013800000013800FN00000000020220601000013800NNM   20220404164354    1W    00000030000002799900000000032AF    HBYHVTB 000000000000UZ125005
BI00B32AF    @TTB2063       20220527181AD2004ZZ              CIVUSAS-S 0.35X4 B       CCN000023700000023700FN00000000020220601000023700NNM   20220404164354    1W    00000030000002799900000000032AF    HBYHVTB 000000000000UZ225012
BI00B32AF    @TTB2064       20220603181AD2004ZZ              CIVUSAS-S 0.35X4 B       CCN000023700000023700FN00000000020220601000023700NNM   20220404164354    1W    00000030000002799900000000032AF    HBYHVTB 000000000000UZ325006
BI00B32BF    TT22071BMW     20220524180D0203730              AVSSH 0.3F B             CCN000002000000002000FN00000000020220701000002000NNM   20220404131731    1W    00000200000000515000000000032BF    TTTJY   000000000000NB225007
BI00B32BF    TT22071BMW     20220524180D0203734              AVSSH 0.3F B/W           CCN000002000000002000FN00000000020220701000002000NNM   20220404131731    1W    00000200000000515000000000032BF    TTTJY   000000000000NB225008
BI00B32BF    TT22071BMW     20220524180D0203737              AVSSH 0.3F B/Y           CCN000002000000002000FN00000000020220701000002000NNM   20220404131731    1W    00000200000000515000000000032BF    TTTJY   000000000000NB225009
BI00B32BF    TT22071BMW     20220524180D0203767              AVSSH 0.3F G/Y           CCN000002000000002000FN00000000020220701000002000NNM   20220404131731    1W    00000200000000515000000000032BF    TTTJY   000000000000NB225010
BI00B32BF    TT22071BMW     20220524180D0203795              AVSSH 0.3F L/R           CCN000002000000002000FN00000000020220701000002000NNM   20220404131731    1W    00000200000000515000000000032BF    TTTJY   000000000000NB225011
BI00B32BF    TT22071BMW     20220524180D0203794              AVSSH 0.3F L/W           CCN000002000000002000FN00000000020220701000002000NNM   20220404131731    1W    00000200000000515000000000032BF    TTTJY   000000000000NB225012
BI00B32BF    TT22071BMW     20220524180D0203750              AVSSH 0.3F R             CCN000002000000002000FN00000000020220701000002000NNM   20220404131731    1W    00000200000000515000000000032BF    TTTJY   000000000000NB225013
BI00B32BF    TT22071BMW     20220524180D0203740              AVSSH 0.3F W             CCN000002000000002000FN00000000020220701000002000NNM   20220404131731    1W    00000200000000515000000000032BF    TTTJY   000000000000NB225014
BI00B32BF    TT22072BMW     20220531180D0203773              AVSSH 0.3F Y/B           CCN000002000000002000FN00000000020220701000002000NNM   20220404131731    1W    00000200000000515000000000032BF    TTTJY   000000000000NB325024
BI00B32BF    TT22074BMW     20220614180D0203773              AVSSH 0.3F Y/B           CCN000002000000002000FN00000000020220701000002000NNM   20220404131731    1W    00000200000000515000000000032BF    TTTJY   000000000000NB126024
BI00B32BF    TT22071BMW     20220524180D0203930              AVSSH 0.5F B             CCN000001500000001500FN00000000020220701000001500NNM   20220404131731    1W    00000150000000689000000000032BF    TTTJY   000000000000NB225015
BI00B32BF    TT22072BMW     20220531180D0203930              AVSSH 0.5F B             CCN000001500000001500FN00000000020220701000001500NNM   20220404131731    1W    00000150000000689000000000032BF    TTTJY   000000000000NB325025
BI00B32BF    TT22073BMW     20220607180D0203930              AVSSH 0.5F B             CCN000001500000001500FN00000000020220701000001500NNM   20220404131731    1W    00000150000000689000000000032BF    TTTJY   000000000000NB425025
BI00B32BF    TT22071BMW     20220524180D0203935              AVSSH 0.5F B/R           CCN000001500000001500FN00000000020220701000001500NNM   20220404131731    1W    00000150000000689000000000032BF    TTTJY   000000000000NB225016
BI00B32BF    TT22072BMW     20220531180D0203935              AVSSH 0.5F B/R           CCN000001500000001500FN00000000020220701000001500NNM   20220404131731    1W    00000150000000689000000000032BF    TTTJY   000000000000NB325026
BI00B32BF    TT22071BMW     20220524180D0203937              AVSSH 0.5F B/Y           CCN000001500000001500FN00000000020220701000001500NNM   20220404131731    1W    00000150000000689000000000032BF    TTTJY   000000000000NB225017
BI00B32BF    TT22072BMW     20220531180D0203937              AVSSH 0.5F B/Y           CCN000001500000001500FN00000000020220701000001500NNM   20220404131731    1W    00000150000000689000000000032BF    TTTJY   000000000000NB325027
BI00B32BF    TT22071BMW     20220524180D0203960              AVSSH 0.5F G             CCN000001500000001500FN00000000020220701000001500NNM   20220404131731    1W    00000150000000689000000000032BF    TTTJY   000000000000NB225018
BI00B32BF    TT22072BMW     20220531180D0203960              AVSSH 0.5F G             CCN000001500000001500FN00000000020220701000001500NNM   20220404131731    1W    00000150000000689000000000032BF    TTTJY   000000000000NB325028
BI00B32BF    TT22071BMW     20220524180D0203963              AVSSH 0.5F G/B           CCN000001500000001500FN00000000020220701000001500NNM   20220404131731    1W    00000150000000689000000000032BF    TTTJY   000000000000NB225019
BI00B32BF    TT22072BMW     20220531180D0203963              AVSSH 0.5F G/B           CCN000001500000001500FN00000000020220701000001500NNM   20220404131731    1W    00000150000000689000000000032BF    TTTJY   000000000000NB325029
BI00B32BF    TT22071BMW     20220524180D0203965              AVSSH 0.5F G/R           CCN000001500000001500FN00000000020220701000001500NNM   20220404131731    1W    00000150000000689000000000032BF    TTTJY   000000000000NB225020
BI00B32BF    TT22072BMW     20220531180D0203965              AVSSH 0.5F G/R           CCN000001500000001500FN00000000020220701000001500NNM   20220404131731    1W    00000150000000689000000000032BF    TTTJY   000000000000NB325030
BI00B32BF    TT22071BMW     20220524180D0203941              AVSSH 0.5F GY            CCN000003000000003000FN00000000020220701000003000NNM   20220404131731    1W    00000150000000689000000000032BF    TTTJY   000000000000NB225021
BI00B32BF    TT22072BMW     20220531180D0203941              AVSSH 0.5F GY            CCN000001500000001500FN00000000020220701000001500NNM   20220404131731    1W    00000150000000689000000000032BF    TTTJY   000000000000NB325031
BI00B32BF    TT22071BMW     20220524180D0203990              AVSSH 0.5F L             CCN000003000000003000FN00000000020220701000003000NNM   20220404131731    1W    00000150000000689000000000032BF    TTTJY   000000000000NB225022
BI00B32BF    TT22072BMW     20220531180D0203990              AVSSH 0.5F L             CCN000004500000004500FN00000000020220701000004500NNM   20220404131731    1W    00000150000000689000000000032BF    TTTJY   000000000000NB325032
BI00B32BF    TT22073BMW     20220607180D0203990              AVSSH 0.5F L             CCN000001500000001500FN00000000020220701000001500NNM   20220404131731    1W    00000150000000689000000000032BF    TTTJY   000000000000NB425026
BI00B32BF    TT22071BMW     20220524180D0203995              AVSSH 0.5F L/R           CCN000001500000001500FN00000000020220701000001500NNM   20220404131731    1W    00000150000000689000000000032BF    TTTJY   000000000000NB225023
BI00B32BF    TT22071BMW     20220524180D0203997              AVSSH 0.5F L/Y           CCN000001500000001500FN00000000020220701000001500NNM   20220404131731    1W    00000150000000689000000000032BF    TTTJY   000000000000NB225024
BI00B32BF    TT22071BMW     20220524180D0203961              AVSSH 0.5F LG            CCN000001500000001500FN00000000020220701000001500NNM   20220404131731    1W    00000150000000689000000000032BF    TTTJY   000000000000NB225025
BI00B32BF    TT22071BMW     20220524180D0203952              AVSSH 0.5F P             CCN000001500000001500FN00000000020220701000001500NNM   20220404131731    1W    00000150000000689000000000032BF    TTTJY   000000000000NB225026
BI00B32BF    TT22072BMW     20220531180D0203952              AVSSH 0.5F P             CCN000001500000001500FN00000000020220701000001500NNM   20220404131731    1W    00000150000000689000000000032BF    TTTJY   000000000000NB325033
BI00B32BF    TT22071BMW     20220524180D02039G6              AVSSH 0.5F P/L           CCN000001500000001500FN00000000020220701000001500NNM   20220404131731    1W    00000150000000689000000000032BF    TTTJY   000000000000NB225027
BI00B32BF    TT22072BMW     20220531180D02039G6              AVSSH 0.5F P/L           CCN000001500000001500FN00000000020220701000001500NNM   20220404131731    1W    00000150000000689000000000032BF    TTTJY   000000000000NB325034
BI00B32BF    TT22071BMW     20220524180D0203950              AVSSH 0.5F R             CCN000001500000001500FN00000000020220701000001500NNM   20220404131731    1W    00000150000000689000000000032BF    TTTJY   000000000000NB225028
BI00B32BF    TT22072BMW     20220531180D0203950              AVSSH 0.5F R             CCN000003000000003000FN00000000020220701000003000NNM   20220404131731    1W    00000150000000689000000000032BF    TTTJY   000000000000NB325035
BI00B32BF    TT22071BMW     20220524180D0203953              AVSSH 0.5F R/B           CCN000001500000001500FN00000000020220701000001500NNM   20220404131731    1W    00000150000000689000000000032BF    TTTJY   000000000000NB225029
BI00B32BF    TT22071BMW     20220524180D0203959              AVSSH 0.5F R/L           CCN000001500000001500FN00000000020220701000001500NNM   20220404131731    1W    00000150000000689000000000032BF    TTTJY   000000000000NB225030
BI00B32BF    TT22071BMW     20220524180D0203957              AVSSH 0.5F R/Y           CCN000001500000001500FN00000000020220701000001500NNM   20220404131731    1W    00000150000000689000000000032BF    TTTJY   000000000000NB225031
BI00B32BF    TT22071BMW     20220524180D0203992              AVSSH 0.5F V             CCN000001500000001500FN00000000020220701000001500NNM   20220404131731    1W    00000150000000689000000000032BF    TTTJY   000000000000NB225032
BI00B32BF    TT22072BMW     20220531180D0203992              AVSSH 0.5F V             CCN000001500000001500FN00000000020220701000001500NNM   20220404131731    1W    00000150000000689000000000032BF    TTTJY   000000000000NB325036
BI00B32BF    TT22071BMW     20220524180D0203940              AVSSH 0.5F W             CCN000001500000001500FN00000000020220701000001500NNM   20220404131731    1W    00000150000000689000000000032BF    TTTJY   000000000000NB225033
BI00B32BF    TT22071BMW     20220524180D0203943              AVSSH 0.5F W/B           CCN000001500000001500FN00000000020220701000001500NNM   20220404131731    1W    00000150000000689000000000032BF    TTTJY   000000000000NB225034
BI00B32BF    TT22071BMW     20220524180D0203949              AVSSH 0.5F W/L           CCN000001500000001500FN00000000020220701000001500NNM   20220404131731    1W    00000150000000689000000000032BF    TTTJY   000000000000NB225035
BI00B32BF    TT22071BMW     20220524180D0203945              AVSSH 0.5F W/R           CCN000003000000003000FN00000000020220701000003000NNM   20220404131731    1W    00000150000000689000000000032BF    TTTJY   000000000000NB225036
BI00B32BF    TT22072BMW     20220531180D0203945              AVSSH 0.5F W/R           CCN000001500000001500FN00000000020220701000001500NNM   20220404131731    1W    00000150000000689000000000032BF    TTTJY   000000000000NB325037
BI00B32BF    TT22071BMW     20220524180D0203970              AVSSH 0.5F Y             CCN000001500000001500FN00000000020220701000001500NNM   20220404131731    1W    00000150000000689000000000032BF    TTTJY   000000000000NB225037
BI00B32BF    TT22072BMW     20220531180D0203970              AVSSH 0.5F Y             CCN000001500000001500FN00000000020220701000001500NNM   20220404131731    1W    00000150000000689000000000032BF    TTTJY   000000000000NB325038
BI00B32BF    TT22071BMW     20220524180D0203973              AVSSH 0.5F Y/B           CCN000001500000001500FN00000000020220701000001500NNM   20220404131731    1W    00000150000000689000000000032BF    TTTJY   000000000000NB225038
BI00B32BF    TT22071BMW     20220524180D0203976              AVSSH 0.5F Y/G           CCN000001500000001500FN00000000020220701000001500NNM   20220404131731    1W    00000150000000689000000000032BF    TTTJY   000000000000NB225039
BI00B32BF    TT22071BMW     20220524180D0204030              AVSSH 0.75F B            CCN000001000000001000FN00000000020220701000001000NNM   20220404131731    1W    00000100000000934000000000032BF    TTTJY   000000000000NB225040
BI00B32BF    TT22071BMW     20220524180D0204035              AVSSH 0.75F B/R          CCN000001000000001000FN00000000020220701000001000NNM   20220404131731    1W    00000100000000934000000000032BF    TTTJY   000000000000NB225041
BI00B32BF    TT22072BMW     20220531180D0204035              AVSSH 0.75F B/R          CCN000001000000001000FN00000000020220701000001000NNM   20220404131731    1W    00000100000000934000000000032BF    TTTJY   000000000000NB325039
BI00B32BF    TT22071BMW     20220524180D0204080              AVSSH 0.75F BR           CCN000001000000001000FN00000000020220701000001000NNM   20220404131731    1W    00000100000000934000000000032BF    TTTJY   000000000000NB225042
BI00B32BF    TT22072BMW     20220531180D0204060              AVSSH 0.75F G            CCN000001000000001000FN00000000020220701000001000NNM   20220404131731    1W    00000100000000934000000000032BF    TTTJY   000000000000NB325040
BI00B32BF    TT22073BMW     20220607180D0204060              AVSSH 0.75F G            CCN000001000000001000FN00000000020220701000001000NNM   20220404131731    1W    00000100000000934000000000032BF    TTTJY   000000000000NB425027
BI00B32BF    TT22074BMW     20220614180D0204060              AVSSH 0.75F G            CCN000004000000004000FN00000000020220701000004000NNM   20220404131731    1W    00000100000000934000000000032BF    TTTJY   000000000000NB126025
BI00B32BF    TT22071BMW     20220524180D0204050              AVSSH 0.75F R            CCN000001000000001000FN00000000020220701000001000NNM   20220404131731    1W    00000100000000934000000000032BF    TTTJY   000000000000NB225043
BI00B32BF    TT22072BMW     20220531180D0204050              AVSSH 0.75F R            CCN000001000000001000FN00000000020220701000001000NNM   20220404131731    1W    00000100000000934000000000032BF    TTTJY   000000000000NB325041
BI00B32BF    TT22071BMW     20220524180D0204043              AVSSH 0.75F W/B          CCN000001000000001000FN00000000020220701000001000NNM   20220404131731    1W    00000100000000934000000000032BF    TTTJY   000000000000NB225044
BI00B32BF    TT22071BMW     20220524180D0204130              AVSSH 1.25F B            CCN000000800000000800FN00000000020220701000000800NNM   20220404131731    1W    00000080000001458000000000032BF    TTTJY   000000000000NB225045
BI00B32BF    TT22072BMW     20220531180D0204130              AVSSH 1.25F B            CCN000001600000001600FN00000000020220701000001600NNM   20220404131731    1W    00000080000001458000000000032BF    TTTJY   000000000000NB325042
BI00B32BF    TT22071BMW     20220524180D0204134              AVSSH 1.25F B/W          CCN000000800000000800FN00000000020220701000000800NNM   20220404131731    1W    00000080000001458000000000032BF    TTTJY   000000000000NB225046
BI00B32BF    TT22071BMW     20220524180D0204190              AVSSH 1.25F L            CCN000000800000000800FN00000000020220701000000800NNM   20220404131731    1W    00000080000001458000000000032BF    TTTJY   000000000000NB225047
BI00B32BF    TT22072BMW     20220531180D0204190              AVSSH 1.25F L            CCN000000800000000800FN00000000020220701000000800NNM   20220404131731    1W    00000080000001458000000000032BF    TTTJY   000000000000NB325043
BI00B32BF    TT22073BMW     20220607180D0204190              AVSSH 1.25F L            CCN000000800000000800FN00000000020220701000000800NNM   20220404131731    1W    00000080000001458000000000032BF    TTTJY   000000000000NB425028
BI00B32BF    TT22071BMW     20220524180D0204150              AVSSH 1.25F R            CCN000000800000000800FN00000000020220701000000800NNM   20220404131731    1W    00000080000001458000000000032BF    TTTJY   000000000000NB225048
BI00B32BF    TT22072BMW     20220531180D0204150              AVSSH 1.25F R            CCN000000800000000800FN00000000020220701000000800NNM   20220404131731    1W    00000080000001458000000000032BF    TTTJY   000000000000NB325044
BI00B32BF    TT22073BMW     20220607180D0204150              AVSSH 1.25F R            CCN000001600000001600FN00000000020220701000001600NNM   20220404131731    1W    00000080000001458000000000032BF    TTTJY   000000000000NB425029
BI00B32BF    TT22071BMW     20220524180D0204159              AVSSH 1.25F R/L          CCN000000800000000800FN00000000020220701000000800NNM   20220404131731    1W    00000080000001458000000000032BF    TTTJY   000000000000NB225049
BI00B32BF    TT22072BMW     20220531180D0204159              AVSSH 1.25F R/L          CCN000000800000000800FN00000000020220701000000800NNM   20220404131731    1W    00000080000001458000000000032BF    TTTJY   000000000000NB325045
BI00B32BF    TT22073BMW     20220607180D0204159              AVSSH 1.25F R/L          CCN000001600000001600FN00000000020220701000001600NNM   20220404131731    1W    00000080000001458000000000032BF    TTTJY   000000000000NB425030
BI00B32BF    TT22071BMW     20220524180D0204143              AVSSH 1.25F W/B          CCN000000800000000800FN00000000020220701000000800NNM   20220404131731    1W    00000080000001458000000000032BF    TTTJY   000000000000NB225050
BI00B32BF    TT22072BMW     20220531180D0204143              AVSSH 1.25F W/B          CCN000000800000000800FN00000000020220701000000800NNM   20220404131731    1W    00000080000001458000000000032BF    TTTJY   000000000000NB325046
BI00B32BF    TT22073BMW     20220607180D0204143              AVSSH 1.25F W/B          CCN000000800000000800FN00000000020220701000000800NNM   20220404131731    1W    00000080000001458000000000032BF    TTTJY   000000000000NB425031
BI00B32BF    TT22074BMW     20220614180D0204143              AVSSH 1.25F W/B          CCN000001600000001600FN00000000020220701000001600NNM   20220404131731    1W    00000080000001458000000000032BF    TTTJY   000000000000NB126026
BI00B32BF    TT22072BMW     20220531180D0204170              AVSSH 1.25F Y            CCN000000800000000800FN00000000020220701000000800NNM   20220404131731    1W    00000080000001458000000000032BF    TTTJY   000000000000NB325047
BI00B32BF    TT22073BMW     20220607180D0204170              AVSSH 1.25F Y            CCN000000800000000800FN00000000020220701000000800NNM   20220404131731    1W    00000080000001458000000000032BF    TTTJY   000000000000NB425032
BI00B32BF    TT22074BMW     20220614180D0204170              AVSSH 1.25F Y            CCN000002400000002400FN00000000020220701000002400NNM   20220404131731    1W    00000080000001458000000000032BF    TTTJY   000000000000NB126027
BI00B32CJ    @TTQ205B       20220429181E48013ZZ              CAVSAS-S 0.3X3 GY        CCN000015000000015000FN00000000020220501000015000NNE   20220404152026    1W    00000025000002778200000000032CJ    QNYHVQN 000000000000UM224004
BI00B32CJ    TTQ2061        2022051318000004530              AV 8 B                   CCN000001400000001400FN00000000020220601000001400NNM   20220404152030    1W    00000010000010466200000000032CJ    QNYHVQN 000000000000UQ424022
BI00B32CJ    TTQ2062        2022052018000004530              AV 8 B                   CCN000002000000002000FN00000000020220601000002000NNM   20220404152030    1W    00000010000010466200000000032CJ    QNYHVQN 000000000000UQ125026
BI00B32CJ    TTQ2063        2022052718000004530              AV 8 B                   CCN000002500000002500FN00000000020220601000002500NNM   20220404152030    1W    00000010000010466200000000032CJ    QNYHVQN 000000000000UQ225031
BI00B32CJ    TTQ2064        2022060318000004530              AV 8 B                   CCN000002300000002300FN00000000020220601000002300NNM   20220404152030    1W    00000010000010466200000000032CJ    QNYHVQN 000000000000UQ325034
BI00B32CJ    TTQ2064        2022060318007704130              AVSS 1.25F B             CCN000000800000000800FN00000000020220601000000800NNM   20220404152030    1W    00000080000001389000000000032CJ    QNYHVQN 000000000000UQ325035
BI00B32CJ    TTQ2062        20220520180D0203730              AVSSH 0.3F B             CCN000006000000006000FN00000000020220601000006000NNM   20220404152030    1W    00000200000000515000000000032CJ    QNYHVQN 000000000000UQ125022
BI00B32CJ    TTQ2063        20220527180D0203730              AVSSH 0.3F B             CCN000004000000004000FN00000000020220601000004000NNM   20220404152030    1W    00000200000000515000000000032CJ    QNYHVQN 000000000000UQ225023
BI00B32CJ    TTQ2064        20220603180D0203730              AVSSH 0.3F B             CCN000006000000006000FN00000000020220601000006000NNM   20220404152030    1W    00000200000000515000000000032CJ    QNYHVQN 000000000000UQ325025
BI00B32CJ    TTQ2063        20220527180D0203780              AVSSH 0.3F BR            CCN000012000000012000FN00000000020220601000012000NNM   20220404152030    1W    00000200000000515000000000032CJ    QNYHVQN 000000000000UQ225024
BI00B32CJ    TTQ2064        20220603180D0203780              AVSSH 0.3F BR            CCN000300000000300000FN00000000020220601000300000NNM   20220404152030    1W    00000200000000515000000000032CJ    QNYHVQN 000000000000UQ325026
BI00B32CJ    TTQ2062        20220520180D0203760              AVSSH 0.3F G             CCN000004000000004000FN00000000020220601000004000NNM   20220404152030    1W    00000200000000515000000000032CJ    QNYHVQN 000000000000UQ125023
BI00B32CJ    TTQ2063        20220527180D0203760              AVSSH 0.3F G             CCN000022000000022000FN00000000020220601000022000NNM   20220404152030    1W    00000200000000515000000000032CJ    QNYHVQN 000000000000UQ225025
BI00B32CJ    TTQ2064        20220603180D0203760              AVSSH 0.3F G             CCN000018000000018000FN00000000020220601000018000NNM   20220404152030    1W    00000200000000515000000000032CJ    QNYHVQN 000000000000UQ325027
BI00B32CJ    TTQ2064        20220603180D0203741              AVSSH 0.3F GY            CCN000002000000002000FN00000000020220601000002000NNM   20220404152030    1W    00000200000000515000000000032CJ    QNYHVQN 000000000000UQ325028
BI00B32CJ    TTQ2062        20220520180D0203790              AVSSH 0.3F L             CCN000020000000020000FN00000000020220601000020000NNM   20220404152030    1W    00000200000000515000000000032CJ    QNYHVQN 000000000000UQ125024
BI00B32CJ    TTQ2063        20220527180D0203790              AVSSH 0.3F L             CCN000028000000028000FN00000000020220601000028000NNM   20220404152030    1W    00000200000000515000000000032CJ    QNYHVQN 000000000000UQ225026
BI00B32CJ    TTQ2064        20220603180D0203790              AVSSH 0.3F L             CCN000022000000022000FN00000000020220601000022000NNM   20220404152030    1W    00000200000000515000000000032CJ    QNYHVQN 000000000000UQ325029
BI00B32CJ    TTQ2063        20220527180D0203740              AVSSH 0.3F W             CCN000004000000004000FN00000000020220601000004000NNM   20220404152030    1W    00000200000000515000000000032CJ    QNYHVQN 000000000000UQ225027
BI00B32CJ    TTQ2064        20220603180D0203740              AVSSH 0.3F W             CCN000004000000004000FN00000000020220601000004000NNM   20220404152030    1W    00000200000000515000000000032CJ    QNYHVQN 000000000000UQ325030
BI00B32CJ    TTQ2061        20220513180D0204040              AVSSH 0.75F W            CCN000006000000006000FN00000000020220601000006000NNM   20220404152030    1W    00000100000000934000000000032CJ    QNYHVQN 000000000000UQ424021
BI00B32CJ    TTQ2062        20220520180D0204040              AVSSH 0.75F W            CCN000015000000015000FN00000000020220601000015000NNM   20220404152030    1W    00000100000000934000000000032CJ    QNYHVQN 000000000000UQ125025
BI00B32CJ    TTQ2063        20220527180D0204040              AVSSH 0.75F W            CCN000016000000016000FN00000000020220601000016000NNM   20220404152030    1W    00000100000000934000000000032CJ    QNYHVQN 000000000000UQ225028
BI00B32CJ    TTQ2064        20220603180D0204040              AVSSH 0.75F W            CCN000013000000013000FN00000000020220601000013000NNM   20220404152030    1W    00000100000000934000000000032CJ    QNYHVQN 000000000000UQ325031
BI00B32CJ    TTQ2063        20220527180D0204130              AVSSH 1.25F B            CCN000051200000051200FN00000000020220601000051200NNM   20220404152030    1W    00000080000001458000000000032CJ    QNYHVQN 000000000000UQ225029
BI00B32CJ    TTQ2064        20220603180D0204130              AVSSH 1.25F B            CCN000064000000064000FN00000000020220601000064000NNM   20220404152030    1W    00000080000001458000000000032CJ    QNYHVQN 000000000000UQ325032
BI00B32CJ    TTQ2063        20220527180D0204180              AVSSH 1.25F BR           CCN000011200000011200FN00000000020220601000011200NNM   20220404152030    1W    00000080000001458000000000032CJ    QNYHVQN 000000000000UQ225030
BI00B32CJ    TTQ2064        20220603180D0204180              AVSSH 1.25F BR           CCN000010400000010400FN00000000020220601000010400NNM   20220404152030    1W    00000080000001458000000000032CJ    QNYHVQN 000000000000UQ325033
BI00B32CJ    TTQ2063        202205271801W006961              IVSSH 0.35F LG           CCN000025000000025000FN00000000020220601000025000NNM   20220404152030    1W    00000250000000452000000000032CJ    QNYHVQN 000000000000UQ225035
BI00B32CJ    TTQ2064        202206031801W006961              IVSSH 0.35F LG           CCN000020000000020000FN00000000020220601000020000NNM   20220404152030    1W    00000250000000452000000000032CJ    QNYHVQN 000000000000UQ325039
BI00B32CJ    TTQ2063        202205271801W006940              IVSSH 0.35F W            CCN000002500000002500FN00000000020220601000002500NNM   20220404152030    1W    00000250000000452000000000032CJ    QNYHVQN 000000000000UQ225036
BI00B32CJ    TTQ2064        202206031801W006940              IVSSH 0.35F W            CCN000010000000010000FN00000000020220601000010000NNM   20220404152030    1W    00000250000000452000000000032CJ    QNYHVQN 000000000000UQ325040
BI00B32CJ    TTQ2061        202205131801W004030              IVSSH 0.75F B            CCN000007800000007800FN00000000020220601000007800NNM   20220404152030    1W    00000130000000882000000000032CJ    QNYHVQN 000000000000UQ424023
BI00B32CJ    TTQ2062        202205201801W004030              IVSSH 0.75F B            CCN000027300000027300FN00000000020220601000027300NNM   20220404152030    1W    00000130000000882000000000032CJ    QNYHVQN 000000000000UQ125027
BI00B32CJ    TTQ2063        202205271801W004030              IVSSH 0.75F B            CCN000032500000032500FN00000000020220601000032500NNM   20220404152030    1W    00000130000000882000000000032CJ    QNYHVQN 000000000000UQ225032
BI00B32CJ    TTQ2064        202206031801W004030              IVSSH 0.75F B            CCN000026000000026000FN00000000020220601000026000NNM   20220404152030    1W    00000130000000882000000000032CJ    QNYHVQN 000000000000UQ325036
BI00B32CJ    TTQ2063        202205271801W004050              IVSSH 0.75F R            CCN000029900000029900FN00000000020220601000029900NNM   20220404152030    1W    00000130000000882000000000032CJ    QNYHVQN 000000000000UQ225033
BI00B32CJ    TTQ2064        202206031801W004050              IVSSH 0.75F R            CCN000029900000029900FN00000000020220601000029900NNM   20220404152030    1W    00000130000000882000000000032CJ    QNYHVQN 000000000000UQ325037
BI00B32CJ    TTQ2063        202205271801W004091              IVSSH 0.75F SB           CCN000010400000010400FN00000000020220601000010400NNM   20220404152030    1W    00000130000000882000000000032CJ    QNYHVQN 000000000000UQ225034
BI00B32CJ    TTQ2064        202206031801W004091              IVSSH 0.75F SB           CCN000009100000009100FN00000000020220601000009100NNM   20220404152030    1W    00000130000000882000000000032CJ    QNYHVQN 000000000000UQ325038
BI00B32CJ    @TTQ2062       20220520181E48011ZZ              CAVSAS-S 0.3X1 GY/W      CCN000001000000001000FN00000000020220601000001000NNM   20220404152028    1W    00000050000001529500000000032CJ    QNYHVQN 000000000000UQ125019
BI00B32CJ    @TTQ2063       20220527181E48011ZZ              CAVSAS-S 0.3X1 GY/W      CCN000003500000003500FN00000000020220601000003500NNM   20220404152028    1W    00000050000001529500000000032CJ    QNYHVQN 000000000000UQ225020
BI00B32CJ    @TTQ2064       20220603181E48011ZZ              CAVSAS-S 0.3X1 GY/W      CCN000003500000003500FN00000000020220601000003500NNM   20220404152028    1W    00000050000001529500000000032CJ    QNYHVQN 000000000000UQ325022
BI00B32CJ    @TTQ2061       20220513181E48013ZZ              CAVSAS-S 0.3X3 GY        CCN000016500000016500FN00000000020220601000016500NNM   20220404152028    1W    00000025000002778200000000032CJ    QNYHVQN 000000000000UQ424020
BI00B32CJ    @TTQ2062       20220520181E48013ZZ              CAVSAS-S 0.3X3 GY        CCN000018000000018000FN00000000020220601000018000NNM   20220404152028    1W    00000025000002778200000000032CJ    QNYHVQN 000000000000UQ125021
BI00B32CJ    @TTQ2063       20220527181E48013ZZ              CAVSAS-S 0.3X3 GY        CCN000015000000015000FN00000000020220601000015000NNM   20220404152028    1W    00000025000002778200000000032CJ    QNYHVQN 000000000000UQ225022
BI00B32CJ    @TTQ2064       20220603181E48013ZZ              CAVSAS-S 0.3X3 GY        CCN000018500000018500FN00000000020220601000018500NNM   20220404152028    1W    00000025000002778200000000032CJ    QNYHVQN 000000000000UQ325024
BI00B32CJ    @TTQ2062       20220520181E48031ZZ              CAVSAS-S 0.3X2 GY        CCN000004550000004550FN00000000020220601000004550NNM   20220404152028    1W    00000035000002008700000000032CJ    QNYHVQN 000000000000UQ125020
BI00B32CJ    @TTQ2063       20220527181E48031ZZ              CAVSAS-S 0.3X2 GY        CCN000010150000010150FN00000000020220601000010150NNM   20220404152028    1W    00000035000002008700000000032CJ    QNYHVQN 000000000000UQ225021
BI00B32CJ    @TTQ2064       20220603181E48031ZZ              CAVSAS-S 0.3X2 GY        CCN000012250000012250FN00000000020220601000012250NNM   20220404152028    1W    00000035000002008700000000032CJ    QNYHVQN 000000000000UQ325023
BI00B32CJ    @TTQ2064       20220603181AD2003ZZ              CIVUSAS-S 0.35X3 B       CCN000001400000001400FN00000000020220601000001400NNM   20220404152028    1W    00000035000002172100000000032CJ    QNYHVQN 000000000000UQ325020
BI00B32CJ    @TTQ2062       20220520181AD2004ZZ              CIVUSAS-S 0.35X4 B       CCN000043800000043800FN00000000020220601000043800NNM   20220404152028    1W    00000030000002799900000000032CJ    QNYHVQN 000000000000UQ125018
BI00B32CJ    @TTQ2063       20220527181AD2004ZZ              CIVUSAS-S 0.35X4 B       CCN000035100000035100FN00000000020220601000035100NNM   20220404152028    1W    00000030000002799900000000032CJ    QNYHVQN 000000000000UQ225019
BI00B32CJ    @TTQ2064       20220603181AD2004ZZ              CIVUSAS-S 0.35X4 B       CCN000039600000039600FN00000000020220601000039600NNM   20220404152028    1W    00000030000002799900000000032CJ    QNYHVQN 000000000000UQ325021
BI00B32CJ    @TTQ2061       20220513181AD2007ZZ              CIVUSAS-S 0.5X1 B        CCN000001000000001000FN00000000020220601000001000NNM   20220404152028    1W    00000050000001639600000000032CJ    QNYHVQN 000000000000UQ424019
BI00B32CJ    @TTQ2062       20220520181AD2007ZZ              CIVUSAS-S 0.5X1 B        CCN000001000000001000FN00000000020220601000001000NNM   20220404152028    1W    00000050000001639600000000032CJ    QNYHVQN 000000000000UQ125017
BI00B32CJ    @TTQ2063       20220527181AD2007ZZ              CIVUSAS-S 0.5X1 B        CCN000000500000000500FN00000000020220601000000500NNM   20220404152028    1W    00000050000001639600000000032CJ    QNYHVQN 000000000000UQ225018
BI00B32CJ    @TTQ2064       20220603181AD2007ZZ              CIVUSAS-S 0.5X1 B        CCN000001000000001000FN00000000020220601000001000NNM   20220404152028    1W    00000050000001639600000000032CJ    QNYHVQN 000000000000UQ325019
BI00B32D1    DFTW2226B      2022042818000004535              AV 8 B/R                 CCN000001100000001100FN00000000020220601000001100NNE   20220404110005    1W    00000010000010466200000000032D1    TOYOT-K 000000000000KM224030
BI00B32D1    DFTW2226B      2022042818000004540              AV 8 W                   CCN000008700000008700FN00000000020220601000008700NNE   20220404110005    1W    00000010000010466200000000032D1    TOYOT-K 000000000000KM224031
BI00B32D1    DFTW2226B      2022042818000004543              AV 8 W/B                 CCN000007600000007600FN00000000020220601000007600NNE   20220404110005    1W    00000010000010466200000000032D1    TOYOT-K 000000000000KM224032
BI00B32D1    @DFTW2226B     20220428181AD2004ZZ              CIVUSAS-S 0.35X4 B       CCN000003900000003900FN00000000020220601000003900NNE   20220404110003    1W    00000030000002799900000000032D1    TOYOT-K 000000000000KM224013
BI00B32D1    @DFTW2226B     20220428181E48031ZZ              CAVSAS-S 0.3X2 GY        CCN000001050000001050FN00000000020220601000001050NNE   20220404110003    1W    00000035000002008700000000032D1    TOYOT-K 000000000000KM224014
BI00B32D1    @DFTW2226B     20220428181E48037ZZ              CAVSAS-S 0.3X4 GY        CCN000001750000001750FN00000000020220601000001750NNE   20220404110003    1W    00000025000003262000000000032D1    TOYOT-K 000000000000KM224015
BI00B32D1    @DFTW2226B     20220428181E50002ZZ              AVSSCS-S 0.3FX2 DGY/G    CCN000000700000000700FN00000000020220601000000700NNE   20220404110003    1W    00000035000002165000000000032D1    TOYOT-K 000000000000KM224018
BI00B32D1    @DFTW2226B     20220428181E50004ZZ              AVSSCS-S 0.5FX1 DGY      CCN000002000000002000FN00000000020220601000002000NNE   20220404110003    1W    00000040000001909700000000032D1    TOYOT-K 000000000000KM224016
BI00B32D1    @DFTW2226B     20220428181E50021ZZ              AVSSCS-S 0.3FX2 DGY/P    CCN000000700000000700FN00000000020220601000000700NNE   20220404110003    1W    00000035000002165000000000032D1    TOYOT-K 000000000000KM224019
BI00B32D1    @DFTW2226B     20220428181E50036ZZ              AVSSCS-S 0.3FX2 DGY      CCN000000350000000350FN00000000020220601000000350NNE   20220404110003    1W    00000035000002165000000000032D1    TOYOT-K 000000000000KM224017
BI00B32D2    DGTW2226       2022050518000004530              AV 8 B                   CCN000002300000002300FN00000000020220701000002300NNE   20220404104807    1W    00000010000010466200000000032D2    TGYOT-G 000000000000KR324013
BI00B32D2    @DGTW2226      20220505181E48037ZZ              CAVSAS-S 0.3X4 GY        CCN000002250000002250FN00000000020220701000002250NNE   20220404104804    1W    00000025000003262000000000032D2    TGYOT-G 000000000000KR324003
BI00B32D2    @DGTW2226      20220505181E50004ZZ              AVSSCS-S 0.5FX1 DGY      CCN000000800000000800FN00000000020220701000000800NNE   20220404104804    1W    00000040000001909700000000032D2    TGYOT-G 000000000000KR324004
BI00B32D2    @DGTW2226      20220505181E50016ZZ              AVSSCS-S 0.5FX2 DGY/R    CCN000002700000002700FN00000000020220701000002700NNE   20220404104804    1W    00000030000003096000000000032D2    TGYOT-G 000000000000KR324005
BI00B32D2    @DGTW2226      20220505181F21014ZZ              AVSSHCS-S 0.5FX2 B/L     CCN000005400000005400FN00000000020220701000005400NNE   20220404104804    1W    00000030000002531400000000032D2    TGYOT-G 000000000000KR324007
BI00B32D2    @DGTW2226      20220505181F21016ZZ              AVSSHCS-S 0.5FX2 B/BR    CCN000002100000002100FN00000000020220701000002100NNE   20220404104804    1W    00000030000002531400000000032D2    TGYOT-G 000000000000KR324006
BI00B32D2    @DGTW2226      20220505181F21031ZZ              AVSSHCS-S 1.25FX2 B/P    CCN000000400000000400FN00000000020220701000000400NNE   20220404104804    1W    00000020000004267300000000032D2    TGYOT-G 000000000000KR324008
BI00B32H0    @TT2205ADMW    20220419181E50011ZZ              AVSSCS-S 0.5FX2 DGY/Y    CCN000003000000003000FN00000000020220501000003000NNE   20220404100844    1W    00000030000003096000000000032H0    TTTJY   000000000000NN124002
BI00B32H0    @TT2205ADMW    20220419181E48022ZZ              CAVSAS-S 0.5X2 GY        CCN000001500000001500FN00000000020220501000001500NNE   20220404100844    1W    00000030000002561000000000032H0    TTTJY   000000000000NN124001
BI00B32H0    @TT22071DMW    20220524181E50003ZZ              AVSSCS-S 0.3FX2 DGY/BR   CCN000001400000001400FN00000000020220701000001400NNM   20220404100849    1W    00000035000002165000000000032H0    TTTJY   000000000000NV225004
BI00B32H0    @TT22071DMW    20220524181E50011ZZ              AVSSCS-S 0.5FX2 DGY/Y    CCN000003000000003000FN00000000020220701000003000NNM   20220404100849    1W    00000030000003096000000000032H0    TTTJY   000000000000NV225003
BI00B32H0    @TT22071DMW    20220524181E48022ZZ              CAVSAS-S 0.5X2 GY        CCN000004200000004200FN00000000020220701000004200NNM   20220404100849    1W    00000030000002561000000000032H0    TTTJY   000000000000NV225002
BI00B32H0    @TT2206AVMW    20220419181E50002ZZ              AVSSCS-S 0.3FX2 DGY/G    CCN000000700000000700FN00000000020220601000000700NNE   20220404100845    1W    00000035000002165000000000032H0    TTTJY   000000000000NO124002
BI00B32H0    @TT2206AVMW    20220419181E50036ZZ              AVSSCS-S 0.3FX2 DGY      CCN000001050000001050FN00000000020220601000001050NNE   20220404100845    1W    00000035000002165000000000032H0    TTTJY   000000000000NO124001
BI00B32H0    TT22071VMW     20220524180D0203980              AVSSH 0.5F BR            CCN000003000000003000FN00000000020220701000003000NNM   20220404100850    1W    00000150000000689000000000032H0    TTTJY   000000000000NV225018
BI00B32H0    TT22072VMW     20220531180D0203980              AVSSH 0.5F BR            CCN000003000000003000FN00000000020220701000003000NNM   20220404100850    1W    00000150000000689000000000032H0    TTTJY   000000000000NV325013
BI00B32H0    TT22071VMW     20220524180D0203950              AVSSH 0.5F R             CCN000018000000018000FN00000000020220701000018000NNM   20220404100850    1W    00000150000000689000000000032H0    TTTJY   000000000000NV225019
BI00B32H0    TT22072VMW     20220531180D0203950              AVSSH 0.5F R             CCN000009000000009000FN00000000020220701000009000NNM   20220404100850    1W    00000150000000689000000000032H0    TTTJY   000000000000NV325014
BI00B32H0    TT22073VMW     20220607180D0203950              AVSSH 0.5F R             CCN000066000000066000FN00000000020220701000066000NNM   20220404100850    1W    00000150000000689000000000032H0    TTTJY   000000000000NV425012
BI00B32H0    TT22071VMW     20220524180D0203992              AVSSH 0.5F V             CCN000003000000003000FN00000000020220701000003000NNM   20220404100850    1W    00000150000000689000000000032H0    TTTJY   000000000000NV225020
BI00B32H0    TT22072VMW     20220531180D0203992              AVSSH 0.5F V             CCN000001500000001500FN00000000020220701000001500NNM   20220404100850    1W    00000150000000689000000000032H0    TTTJY   000000000000NV325015
BI00B32H0    TT22071VMW     20220524180D0203943              AVSSH 0.5F W/B           CCN000001500000001500FN00000000020220701000001500NNM   20220404100850    1W    00000150000000689000000000032H0    TTTJY   000000000000NV225021
BI00B32H0    TT22071VMW     20220524180D0204130              AVSSH 1.25F B            CCN000001600000001600FN00000000020220701000001600NNM   20220404100850    1W    00000080000001458000000000032H0    TTTJY   000000000000NV225022
BI00B32H0    TT22071VMW     20220524180D0204160              AVSSH 1.25F G            CCN000001600000001600FN00000000020220701000001600NNM   20220404100850    1W    00000080000001458000000000032H0    TTTJY   000000000000NV225023
BI00B32H0    TT22072VMW     20220531180D0204160              AVSSH 1.25F G            CCN000000800000000800FN00000000020220701000000800NNM   20220404100850    1W    00000080000001458000000000032H0    TTTJY   000000000000NV325016
BI00B32H0    TT22071VMW     20220524180D0204190              AVSSH 1.25F L            CCN000001600000001600FN00000000020220701000001600NNM   20220404100850    1W    00000080000001458000000000032H0    TTTJY   000000000000NV225024
BI00B32H0    TT22072VMW     20220531180D0204190              AVSSH 1.25F L            CCN000000800000000800FN00000000020220701000000800NNM   20220404100850    1W    00000080000001458000000000032H0    TTTJY   000000000000NV325017
BI00B32H0    TT22071VMW     20220524180D0204192              AVSSH 1.25F V            CCN000001600000001600FN00000000020220701000001600NNM   20220404100850    1W    00000080000001458000000000032H0    TTTJY   000000000000NV225025
BI00B32H0    TT22071VMW     20220524180D0204140              AVSSH 1.25F W            CCN000001600000001600FN00000000020220701000001600NNM   20220404100850    1W    00000080000001458000000000032H0    TTTJY   000000000000NV225026
BI00B32H0    TT22072VMW     20220531180D0204140              AVSSH 1.25F W            CCN000001600000001600FN00000000020220701000001600NNM   20220404100850    1W    00000080000001458000000000032H0    TTTJY   000000000000NV325018
BI00B32H0    TT22071VMW     20220524180D0204143              AVSSH 1.25F W/B          CCN000001600000001600FN00000000020220701000001600NNM   20220404100850    1W    00000080000001458000000000032H0    TTTJY   000000000000NV225027
BI00B32H0    @TT22071VMW    20220524181E50002ZZ              AVSSCS-S 0.3FX2 DGY/G    CCN000000700000000700FN00000000020220701000000700NNM   20220404100850    1W    00000035000002165000000000032H0    TTTJY   000000000000NV225006
BI00B32H0    @TT22071VMW    20220524181E50036ZZ              AVSSCS-S 0.3FX2 DGY      CCN000000700000000700FN00000000020220701000000700NNM   20220404100850    1W    00000035000002165000000000032H0    TTTJY   000000000000NV225005
BI00B32H2    TAW205T        2022042918007704190              AVSS 1.25F L             CCN000000800000000800FN00000000020220501000000800NNE   20220404095606    1W    00000080000001389000000000032H2    HVYHV   000000000000UF224009
BI00B32H2    TAW205T        2022042918007704140              AVSS 1.25F W             CCN000003200000003200FN00000000020220501000003200NNE   20220404095606    1W    00000080000001389000000000032H2    HVYHV   000000000000UF224010
BI00B32H2    TAW205U        2022042918007704150              AVSS 1.25F R             CCN000003200000003200FN00000000020220501000003200NNE   20220404095607    1W    00000080000001389000000000032H2    HVYHV   000000000000UD224002
BI00B32H2    TAW205U        2022042918007704140              AVSS 1.25F W             CCN000003200000003200FN00000000020220501000003200NNE   20220404095607    1W    00000080000001389000000000032H2    HVYHV   000000000000UD224003
BI00B32H2    @TAW205U       20220429181AD2001ZZ              CIVUSAS-S 0.35X1 B       CCN000016500000016500FN00000000020220501000016500NNE   20220404095604    1W    00000055000001540800000000032H2    HVYHV   000000000000UD224001
BI00B32H2    @TAW205V       20220429181AD2001ZZ              CIVUSAS-S 0.35X1 B       CCN000008250000008250FN00000000020220501000008250NNE   20220404095605    1W    00000055000001540800000000032H2    HVYHV   000000000000UE224001
BI00B32H2    TAW2061        2022051318007704130              AVSS 1.25F B             CCN000000800000000800FN00000000020220601000000800NNM   20220404095612    1W    00000080000001389000000000032H2    HVYHV   000000000000UH424032
BI00B32H2    TAW2062        2022052018007704130              AVSS 1.25F B             CCN000000800000000800FN00000000020220601000000800NNM   20220404095612    1W    00000080000001389000000000032H2    HVYHV   000000000000UH125025
BI00B32H2    TAW2063        2022052718007704130              AVSS 1.25F B             CCN000000800000000800FN00000000020220601000000800NNM   20220404095612    1W    00000080000001389000000000032H2    HVYHV   000000000000UH225034
BI00B32H2    TAW2062        2022052018007704160              AVSS 1.25F G             CCN000000800000000800FN00000000020220601000000800NNM   20220404095612    1W    00000080000001389000000000032H2    HVYHV   000000000000UH125026
BI00B32H2    TAW2062        2022052018007704190              AVSS 1.25F L             CCN000000800000000800FN00000000020220601000000800NNM   20220404095612    1W    00000080000001389000000000032H2    HVYHV   000000000000UH125027
BI00B32H2    TAW2061        2022051318007704150              AVSS 1.25F R             CCN000003200000003200FN00000000020220601000003200NNM   20220404095612    1W    00000080000001389000000000032H2    HVYHV   000000000000UH424033
BI00B32H2    TAW2062        2022052018007704150              AVSS 1.25F R             CCN000002400000002400FN00000000020220601000002400NNM   20220404095612    1W    00000080000001389000000000032H2    HVYHV   000000000000UH125028
BI00B32H2    TAW2063        2022052718007704150              AVSS 1.25F R             CCN000003200000003200FN00000000020220601000003200NNM   20220404095612    1W    00000080000001389000000000032H2    HVYHV   000000000000UH225035
BI00B32H2    TAW2064        2022060218007704150              AVSS 1.25F R             CCN000003200000003200FN00000000020220601000003200NNM   20220404095612    1W    00000080000001389000000000032H2    HVYHV   000000000000UH325039
BI00B32H2    TAW2061        2022051318007704140              AVSS 1.25F W             CCN000003200000003200FN00000000020220601000003200NNM   20220404095612    1W    00000080000001389000000000032H2    HVYHV   000000000000UH424034
BI00B32H2    TAW2062        2022052018007704140              AVSS 1.25F W             CCN000003200000003200FN00000000020220601000003200NNM   20220404095612    1W    00000080000001389000000000032H2    HVYHV   000000000000UH125029
BI00B32H2    TAW2063        2022052718007704140              AVSS 1.25F W             CCN000004000000004000FN00000000020220601000004000NNM   20220404095612    1W    00000080000001389000000000032H2    HVYHV   000000000000UH225036
BI00B32H2    TAW2064        2022060218007704140              AVSS 1.25F W             CCN000004000000004000FN00000000020220601000004000NNM   20220404095612    1W    00000080000001389000000000032H2    HVYHV   000000000000UH325040
BI00B32H2    TAW2061        2022051318007704143              AVSS 1.25F W/B           CCN000000800000000800FN00000000020220601000000800NNM   20220404095612    1W    00000080000001389000000000032H2    HVYHV   000000000000UH424035
BI00B32H2    TAW2062        2022052018007704143              AVSS 1.25F W/B           CCN000000800000000800FN00000000020220601000000800NNM   20220404095612    1W    00000080000001389000000000032H2    HVYHV   000000000000UH125030
BI00B32H2    TAW2063        2022052718007704143              AVSS 1.25F W/B           CCN000000800000000800FN00000000020220601000000800NNM   20220404095612    1W    00000080000001389000000000032H2    HVYHV   000000000000UH225037
BI00B32H2    TAW2063        20220527180D0203930              AVSSH 0.5F B             CCN000003000000003000FN00000000020220601000003000NNM   20220404095612    1W    00000150000000689000000000032H2    HVYHV   000000000000UH225030
BI00B32H2    TAW2064        20220602180D0203930              AVSSH 0.5F B             CCN000003000000003000FN00000000020220601000003000NNM   20220404095612    1W    00000150000000689000000000032H2    HVYHV   000000000000UH325036
BI00B32H2    TAW2061        20220513180D0203980              AVSSH 0.5F BR            CCN000001500000001500FN00000000020220601000001500NNM   20220404095612    1W    00000150000000689000000000032H2    HVYHV   000000000000UH424026
BI00B32H2    TAW2061        20220513180D0203960              AVSSH 0.5F G             CCN000001500000001500FN00000000020220601000001500NNM   20220404095612    1W    00000150000000689000000000032H2    HVYHV   000000000000UH424027
BI00B32H2    TAW2061        20220513180D0203990              AVSSH 0.5F L             CCN000001500000001500FN00000000020220601000001500NNM   20220404095612    1W    00000150000000689000000000032H2    HVYHV   000000000000UH424028
BI00B32H2    TAW2061        20220513180D0203950              AVSSH 0.5F R             CCN000001500000001500FN00000000020220601000001500NNM   20220404095612    1W    00000150000000689000000000032H2    HVYHV   000000000000UH424029
BI00B32H2    TAW2063        20220527180D0203950              AVSSH 0.5F R             CCN000001500000001500FN00000000020220601000001500NNM   20220404095612    1W    00000150000000689000000000032H2    HVYHV   000000000000UH225031
BI00B32H2    TAW2064        20220602180D0203950              AVSSH 0.5F R             CCN000001500000001500FN00000000020220601000001500NNM   20220404095612    1W    00000150000000689000000000032H2    HVYHV   000000000000UH325037
BI00B32H2    TAW2061        20220513180D0203992              AVSSH 0.5F V             CCN000001500000001500FN00000000020220601000001500NNM   20220404095612    1W    00000150000000689000000000032H2    HVYHV   000000000000UH424030
BI00B32H2    TAW2062        20220520180D0203943              AVSSH 0.5F W/B           CCN000001500000001500FN00000000020220601000001500NNM   20220404095612    1W    00000150000000689000000000032H2    HVYHV   000000000000UH125024
BI00B32H2    TAW2063        20220527180D0203943              AVSSH 0.5F W/B           CCN000001500000001500FN00000000020220601000001500NNM   20220404095612    1W    00000150000000689000000000032H2    HVYHV   000000000000UH225032
BI00B32H2    TAW2064        20220602180D0203943              AVSSH 0.5F W/B           CCN000001500000001500FN00000000020220601000001500NNM   20220404095612    1W    00000150000000689000000000032H2    HVYHV   000000000000UH325038
BI00B32H2    TAW2061        20220513180D0204180              AVSSH 1.25F BR           CCN000000800000000800FN00000000020220601000000800NNM   20220404095612    1W    00000080000001458000000000032H2    HVYHV   000000000000UH424031
BI00B32H2    TAW2063        20220527180D0204180              AVSSH 1.25F BR           CCN000000800000000800FN00000000020220601000000800NNM   20220404095612    1W    00000080000001458000000000032H2    HVYHV   000000000000UH225033
BI00B32H2    @TAW2061       20220513181B32102S1              AVSSCS 0.5FX2 DGY        CCN000004500000004500FN00000000020220601000004500NNM   20220404095609    1W    00000030000002903000000000032H2    HVYHV   000000000000UH424024
BI00B32H2    @TAW2062       20220520181B32102S1              AVSSCS 0.5FX2 DGY        CCN000006000000006000FN00000000020220601000006000NNM   20220404095609    1W    00000030000002903000000000032H2    HVYHV   000000000000UH125022
BI00B32H2    @TAW2063       20220527181B32102S1              AVSSCS 0.5FX2 DGY        CCN000012000000012000FN00000000020220601000012000NNM   20220404095609    1W    00000030000002903000000000032H2    HVYHV   000000000000UH225027
BI00B32H2    @TAW2064       20220602181B32102S1              AVSSCS 0.5FX2 DGY        CCN000012000000012000FN00000000020220601000012000NNM   20220404095609    1W    00000030000002903000000000032H2    HVYHV   000000000000UH325033
BI00B32H2    @TAW2063       20220527181E50014ZZ              AVSSCS-S 0.5FX1 DGY/R    CCN000004000000004000FN00000000020220601000004000NNM   20220404095609    1W    00000040000001909700000000032H2    HVYHV   000000000000UH225028
BI00B32H2    @TAW2064       20220602181E50014ZZ              AVSSCS-S 0.5FX1 DGY/R    CCN000002400000002400FN00000000020220601000002400NNM   20220404095609    1W    00000040000001909700000000032H2    HVYHV   000000000000UH325034
BI00B32H2    @TAW2061       20220513181F21002ZZ              AVSSHCS-S 0.5FX1 B       CCN000004000000004000FN00000000020220601000004000NNM   20220404095609    1W    00000040000001908400000000032H2    HVYHV   000000000000UH424025
BI00B32H2    @TAW2062       20220520181F21002ZZ              AVSSHCS-S 0.5FX1 B       CCN000006000000006000FN00000000020220601000006000NNM   20220404095609    1W    00000040000001908400000000032H2    HVYHV   000000000000UH125023
BI00B32H2    @TAW2063       20220527181F21002ZZ              AVSSHCS-S 0.5FX1 B       CCN000006000000006000FN00000000020220601000006000NNM   20220404095609    1W    00000040000001908400000000032H2    HVYHV   000000000000UH225029
BI00B32H2    @TAW2064       20220602181F21002ZZ              AVSSHCS-S 0.5FX1 B       CCN000006000000006000FN00000000020220601000006000NNM   20220404095609    1W    00000040000001908400000000032H2    HVYHV   000000000000UH325035
BI00B32H2    @TAW2061       20220513181AD2001ZZ              CIVUSAS-S 0.35X1 B       CCN000022000000022000FN00000000020220601000022000NNM   20220404095609    1W    00000055000001540800000000032H2    HVYHV   000000000000UH424022
BI00B32H2    @TAW2062       20220520181AD2001ZZ              CIVUSAS-S 0.35X1 B       CCN000019250000019250FN00000000020220601000019250NNM   20220404095609    1W    00000055000001540800000000032H2    HVYHV   000000000000UH125017
BI00B32H2    @TAW2063       20220527181AD2001ZZ              CIVUSAS-S 0.35X1 B       CCN000019250000019250FN00000000020220601000019250NNM   20220404095609    1W    00000055000001540800000000032H2    HVYHV   000000000000UH225022
BI00B32H2    @TAW2064       20220602181AD2001ZZ              CIVUSAS-S 0.35X1 B       CCN000019250000019250FN00000000020220601000019250NNM   20220404095609    1W    00000055000001540800000000032H2    HVYHV   000000000000UH325029
BI00B32H2    @TAW2062       20220520181AD2002ZZ              CIVUSAS-S 0.35X2 B       CCN000006750000006750FN00000000020220601000006750NNM   20220404095609    1W    00000045000001713700000000032H2    HVYHV   000000000000UH125019
BI00B32H2    @TAW2063       20220527181AD2002ZZ              CIVUSAS-S 0.35X2 B       CCN000011250000011250FN00000000020220601000011250NNM   20220404095609    1W    00000045000001713700000000032H2    HVYHV   000000000000UH225024
BI00B32H2    @TAW2064       20220602181AD2002ZZ              CIVUSAS-S 0.35X2 B       CCN000015750000015750FN00000000020220601000015750NNM   20220404095609    1W    00000045000001713700000000032H2    HVYHV   000000000000UH325031
BI00B32H2    @TAW2061       20220513181AD2003ZZ              CIVUSAS-S 0.35X3 B       CCN000017500000017500FN00000000020220601000017500NNM   20220404095609    1W    00000035000002172100000000032H2    HVYHV   000000000000UH424023
BI00B32H2    @TAW2062       20220520181AD2003ZZ              CIVUSAS-S 0.35X3 B       CCN000042000000042000FN00000000020220601000042000NNM   20220404095609    1W    00000035000002172100000000032H2    HVYHV   000000000000UH125020
BI00B32H2    @TAW2063       20220527181AD2003ZZ              CIVUSAS-S 0.35X3 B       CCN000052500000052500FN00000000020220601000052500NNM   20220404095609    1W    00000035000002172100000000032H2    HVYHV   000000000000UH225025
BI00B32H2    @TAW2064       20220602181AD2003ZZ              CIVUSAS-S 0.35X3 B       CCN000052500000052500FN00000000020220601000052500NNM   20220404095609    1W    00000035000002172100000000032H2    HVYHV   000000000000UH325032
BI00B32H2    @TAW2062       20220520181AD2004ZZ              CIVUSAS-S 0.35X4 B       CCN000030000000030000FN00000000020220601000030000NNM   20220404095609    1W    00000030000002799900000000032H2    HVYHV   000000000000UH125021
BI00B32H2    @TAW2063       20220527181AD2004ZZ              CIVUSAS-S 0.35X4 B       CCN000030000000030000FN00000000020220601000030000NNM   20220404095609    1W    00000030000002799900000000032H2    HVYHV   000000000000UH225026
BI00B32H2    @TAW2062       20220520181AD2008ZZ              CIVUSAS-S 0.5X2 B        CCN000024000000024000FN00000000020220601000024000NNM   20220404095609    1W    00000040000002028000000000032H2    HVYHV   000000000000UH125018
BI00B32H2    @TAW2063       20220527181AD2008ZZ              CIVUSAS-S 0.5X2 B        CCN000028000000028000FN00000000020220601000028000NNM   20220404095609    1W    00000040000002028000000000032H2    HVYHV   000000000000UH225023
BI00B32H2    @TAW2064       20220602181AD2008ZZ              CIVUSAS-S 0.5X2 B        CCN000024000000024000FN00000000020220601000024000NNM   20220404095609    1W    00000040000002028000000000032H2    HVYHV   000000000000UH325030
BI00B32N2    2152103925     2022050418007703918              AVSS 0.5F G/O            CCN000001500000001500FN00000000020220401000001500NNE   20220404132843    1W    00000150000000674000000000032N2    YWYIPLTC000000000000KU324005
BI00B32N2    2152103925     2022050418007703941              AVSS 0.5F GY             CCN000004500000004500FN00000000020220401000004500NNE   20220404132843    1W    00000150000000674000000000032N2    YWYIPLTC000000000000KU324007
BI00B32N2    2152103925     2022050418007703951              AVSS 0.5F O              CCN000004500000004500FN00000000020220401000004500NNE   20220404132843    1W    00000150000000674000000000032N2    YWYIPLTC000000000000KU324009
BI00B32N2    2152103925     2022050418007703952              AVSS 0.5F P              CCN000001500000001500FN00000000020220401000001500NNE   20220404132843    1W    00000150000000674000000000032N2    YWYIPLTC000000000000KU324010
BI00B32N2    2152103925     2022050418007703959              AVSS 0.5F R/L            CCN000001500000001500FN00000000020220401000001500NNE   20220404132843    1W    00000150000000674000000000032N2    YWYIPLTC000000000000KU324011
BI00B32N2    2152103925     2022050418007703965              AVSS 0.5F G/R            CCN000001500000001500FN00000000020220401000001500NNE   20220404132843    1W    00000150000000674000000000032N2    YWYIPLTC000000000000KU324006
BI00B32N2    2152103925     2022050418007703984              AVSS 0.5F BR/W           CCN000001500000001500FN00000000020220401000001500NNE   20220404132843    1W    00000150000000674000000000032N2    YWYIPLTC000000000000KU324004
BI00B32N2    2152103925     2022050418007703990              AVSS 0.5F L              CCN000001500000001500FN00000000020220401000001500NNE   20220404132843    1W    00000150000000674000000000032N2    YWYIPLTC000000000000KU324008
BI00B32N2    2152103925     2022050418007704195              AVSS 1.25F L/R           CCN000002400000002400FN00000000020220401000002400NNE   20220404132843    1W    00000080000001389000000000032N2    YWYIPLTC000000000000KU324012
BI00B32N2    2152103925     20220504180D0204059              AVSSH 0.75F R/L          CCN000001000000001000FN00000000020220401000001000NNE   20220404132843    1W    00000100000000934000000000032N2    YWYIPLTC000000000000KU324003
BI00B32N2    2152103925     20220504180D0204090              AVSSH 0.75F L            CCN000001000000001000FN00000000020220401000001000NNE   20220404132843    1W    00000100000000934000000000032N2    YWYIPLTC000000000000KU324001
BI00B32N2    2152103925     20220504180D0204097              AVSSH 0.75F L/Y          CCN000001000000001000FN00000000020220401000001000NNE   20220404132843    1W    00000100000000933600000000032N2    YWYIPLTC000000000000KU324002
BI00B32N3    NBT206 2       2022051218007703730              AVSS 0.3F B              CCN000032000000032000FN00000000020220401000032000NNM   20220404140835    1W    00000200000000496000000000032N3    ABYIPL-B000000000000XB424034
BI00B32N3    NBT206 3       2022051918007703730              AVSS 0.3F B              CCN000032000000032000FN00000000020220401000032000NNM   20220404140835    1W    00000200000000496000000000032N3    ABYIPL-B000000000000XB125035
BI00B32N3    NBT206 4       2022052618007703730              AVSS 0.3F B              CCN000038000000038000FN00000000020220401000038000NNM   20220404140835    1W    00000200000000496000000000032N3    ABYIPL-B000000000000XB225027
BI00B32N3    NBT206 1       2022050518007703750              AVSS 0.3F R              CCN000016000000016000FN00000000020220401000016000NNM   20220404140835    1W    00000200000000496000000000032N3    ABYIPL-B000000000000XB324021
BI00B32N3    NBT206 2       2022051218007703750              AVSS 0.3F R              CCN000018000000018000FN00000000020220401000018000NNM   20220404140835    1W    00000200000000496000000000032N3    ABYIPL-B000000000000XB424035
BI00B32N3    NBT206 3       2022051918007703750              AVSS 0.3F R              CCN000016000000016000FN00000000020220401000016000NNM   20220404140835    1W    00000200000000496000000000032N3    ABYIPL-B000000000000XB125036
BI00B32N3    NBT206 4       2022052618007703750              AVSS 0.3F R              CCN000008000000008000FN00000000020220401000008000NNM   20220404140835    1W    00000200000000496000000000032N3    ABYIPL-B000000000000XB225028
BI00B32N3    NBT206 1       2022050518007703770              AVSS 0.3F Y              CCN000016000000016000FN00000000020220401000016000NNM   20220404140835    1W    00000200000000496000000000032N3    ABYIPL-B000000000000XB324022
BI00B32N3    NBT206 2       2022051218007703770              AVSS 0.3F Y              CCN000020000000020000FN00000000020220401000020000NNM   20220404140835    1W    00000200000000496000000000032N3    ABYIPL-B000000000000XB424036
BI00B32N3    NBT206 3       2022051918007703770              AVSS 0.3F Y              CCN000018000000018000FN00000000020220401000018000NNM   20220404140835    1W    00000200000000496000000000032N3    ABYIPL-B000000000000XB125037
BI00B32N3    NBT206 4       2022052618007703770              AVSS 0.3F Y              CCN000010000000010000FN00000000020220401000010000NNM   20220404140835    1W    00000200000000496000000000032N3    ABYIPL-B000000000000XB225029
BI00B32N3    NBT206 1       2022050518007704130              AVSS 1.25F B             CCN000000800000000800FN00000000020220401000000800NNM   20220404140835    1W    00000080000001389000000000032N3    ABYIPL-B000000000000XB324023
BI00B32N3    NBT206 2       2022051218007704130              AVSS 1.25F B             CCN000002400000002400FN00000000020220401000002400NNM   20220404140835    1W    00000080000001389000000000032N3    ABYIPL-B000000000000XB424037
BI00B32N3    NBT206 3       2022051918007704130              AVSS 1.25F B             CCN000002400000002400FN00000000020220401000002400NNM   20220404140835    1W    00000080000001389000000000032N3    ABYIPL-B000000000000XB125038
BI00B32N3    NBT206 4       2022052618007704130              AVSS 1.25F B             CCN000003200000003200FN00000000020220401000003200NNM   20220404140835    1W    00000080000001389000000000032N3    ABYIPL-B000000000000XB225030
BI00B32N3    NBT206 1       2022050518007704140              AVSS 1.25F W             CCN000000800000000800FN00000000020220401000000800NNM   20220404140835    1W    00000080000001389000000000032N3    ABYIPL-B000000000000XB324025
BI00B32N3    NBT206 2       2022051218007704140              AVSS 1.25F W             CCN000002400000002400FN00000000020220401000002400NNM   20220404140835    1W    00000080000001389000000000032N3    ABYIPL-B000000000000XB424040
BI00B32N3    NBT206 3       2022051918007704140              AVSS 1.25F W             CCN000002400000002400FN00000000020220401000002400NNM   20220404140835    1W    00000080000001389000000000032N3    ABYIPL-B000000000000XB125041
BI00B32N3    NBT206 4       2022052618007704140              AVSS 1.25F W             CCN000003200000003200FN00000000020220401000003200NNM   20220404140835    1W    00000080000001389000000000032N3    ABYIPL-B000000000000XB225033
BI00B32N3    NBT206 1       2022050518007704143              AVSS 1.25F W/B           CCN000000800000000800FN00000000020220401000000800NNM   20220404140835    1W    00000080000001389000000000032N3    ABYIPL-B000000000000XB324026
BI00B32N3    NBT206 2       2022051218007704143              AVSS 1.25F W/B           CCN000002400000002400FN00000000020220401000002400NNM   20220404140835    1W    00000080000001389000000000032N3    ABYIPL-B000000000000XB424041
BI00B32N3    NBT206 3       2022051918007704143              AVSS 1.25F W/B           CCN000001600000001600FN00000000020220401000001600NNM   20220404140835    1W    00000080000001389000000000032N3    ABYIPL-B000000000000XB125042
BI00B32N3    NBT206 4       2022052618007704143              AVSS 1.25F W/B           CCN000002400000002400FN00000000020220401000002400NNM   20220404140835    1W    00000080000001389000000000032N3    ABYIPL-B000000000000XB225034
BI00B32N3    NBT206 1       2022050518007704160              AVSS 1.25F G             CCN000000800000000800FN00000000020220401000000800NNM   20220404140835    1W    00000080000001389000000000032N3    ABYIPL-B000000000000XB324024
BI00B32N3    NBT206 2       2022051218007704160              AVSS 1.25F G             CCN000000800000000800FN00000000020220401000000800NNM   20220404140835    1W    00000080000001389000000000032N3    ABYIPL-B000000000000XB424038
BI00B32N3    NBT206 3       2022051918007704160              AVSS 1.25F G             CCN000000800000000800FN00000000020220401000000800NNM   20220404140835    1W    00000080000001389000000000032N3    ABYIPL-B000000000000XB125039
BI00B32N3    NBT206 4       2022052618007704160              AVSS 1.25F G             CCN000000800000000800FN00000000020220401000000800NNM   20220404140835    1W    00000080000001389000000000032N3    ABYIPL-B000000000000XB225031
BI00B32N3    NBT206 2       2022051218007704190              AVSS 1.25F L             CCN000000800000000800FN00000000020220401000000800NNM   20220404140835    1W    00000080000001389000000000032N3    ABYIPL-B000000000000XB424039
BI00B32N3    NBT206 3       2022051918007704190              AVSS 1.25F L             CCN000001600000001600FN00000000020220401000001600NNM   20220404140835    1W    00000080000001389000000000032N3    ABYIPL-B000000000000XB125040
BI00B32N3    NBT206 4       2022052618007704190              AVSS 1.25F L             CCN000000800000000800FN00000000020220401000000800NNM   20220404140835    1W    00000080000001389000000000032N3    ABYIPL-B000000000000XB225032
BI00B32N3    NBT206 2       20220512180D0203740              AVSSH 0.3F W             CCN000004000000004000FN00000000020220401000004000NNM   20220404140835    1W    00000200000000515000000000032N3    ABYIPL-B000000000000XB424023
BI00B32N3    NBT206 3       20220519180D0203740              AVSSH 0.3F W             CCN000002000000002000FN00000000020220401000002000NNM   20220404140835    1W    00000200000000515000000000032N3    ABYIPL-B000000000000XB125024
BI00B32N3    NBT206 2       20220512180D0203752              AVSSH 0.3F P             CCN000002000000002000FN00000000020220401000002000NNM   20220404140835    1W    00000200000000515000000000032N3    ABYIPL-B000000000000XB424022
BI00B32N3    NBT206 2       20220512180D0203761              AVSSH 0.3F LG            CCN000016000000016000FN00000000020220401000016000NNM   20220404140835    1W    00000200000000515000000000032N3    ABYIPL-B000000000000XB424021
BI00B32N3    NBT206 3       20220519180D0203761              AVSSH 0.3F LG            CCN000014000000014000FN00000000020220401000014000NNM   20220404140835    1W    00000200000000515000000000032N3    ABYIPL-B000000000000XB125023
BI00B32N3    NBT206 3       20220519180D0203790              AVSSH 0.3F L             CCN000008000000008000FN00000000020220401000008000NNM   20220404140835    1W    00000200000000515000000000032N3    ABYIPL-B000000000000XB125022
BI00B32N3    NBT206 2       20220512180D0203930              AVSSH 0.5F B             CCN000009000000009000FN00000000020220401000009000NNM   20220404140835    1W    00000150000000689000000000032N3    ABYIPL-B000000000000XB424024
BI00B32N3    NBT206 3       20220519180D0203930              AVSSH 0.5F B             CCN000007500000007500FN00000000020220401000007500NNM   20220404140835    1W    00000150000000689000000000032N3    ABYIPL-B000000000000XB125025
BI00B32N3    NBT206 2       20220512180D0203940              AVSSH 0.5F W             CCN000003000000003000FN00000000020220401000003000NNM   20220404140835    1W    00000150000000689000000000032N3    ABYIPL-B000000000000XB424029
BI00B32N3    NBT206 3       20220519180D0203940              AVSSH 0.5F W             CCN000003000000003000FN00000000020220401000003000NNM   20220404140835    1W    00000150000000689000000000032N3    ABYIPL-B000000000000XB125029
BI00B32N3    NBT206 2       20220512180D0203943              AVSSH 0.5F W/B           CCN000003000000003000FN00000000020220401000003000NNM   20220404140835    1W    00000150000000689000000000032N3    ABYIPL-B000000000000XB424030
BI00B32N3    NBT206 3       20220519180D0203943              AVSSH 0.5F W/B           CCN000003000000003000FN00000000020220401000003000NNM   20220404140835    1W    00000150000000689000000000032N3    ABYIPL-B000000000000XB125030
BI00B32N3    NBT206 1       20220505180D0203950              AVSSH 0.5F R             CCN000001500000001500FN00000000020220401000001500NNM   20220404140835    1W    00000150000000689000000000032N3    ABYIPL-B000000000000XB324018
BI00B32N3    NBT206 2       20220512180D0203950              AVSSH 0.5F R             CCN000001500000001500FN00000000020220401000001500NNM   20220404140835    1W    00000150000000689000000000032N3    ABYIPL-B000000000000XB424027
BI00B32N3    NBT206 3       20220519180D0203950              AVSSH 0.5F R             CCN000007500000007500FN00000000020220401000007500NNM   20220404140835    1W    00000150000000689000000000032N3    ABYIPL-B000000000000XB125027
BI00B32N3    NBT206 4       20220526180D0203950              AVSSH 0.5F R             CCN000003000000003000FN00000000020220401000003000NNM   20220404140835    1W    00000150000000689000000000032N3    ABYIPL-B000000000000XB225022
BI00B32N3    NBT206 2       20220512180D0203952              AVSSH 0.5F P             CCN000003000000003000FN00000000020220401000003000NNM   20220404140835    1W    00000150000000689000000000032N3    ABYIPL-B000000000000XB424026
BI00B32N3    NBT206 3       20220519180D0203952              AVSSH 0.5F P             CCN000003000000003000FN00000000020220401000003000NNM   20220404140835    1W    00000150000000689000000000032N3    ABYIPL-B000000000000XB125026
BI00B32N3    NBT206 4       20220526180D0203970              AVSSH 0.5F Y             CCN000001500000001500FN00000000020220401000001500NNM   20220404140835    1W    00000150000000689000000000032N3    ABYIPL-B000000000000XB225023
BI00B32N3    NBT206 2       20220512180D0203990              AVSSH 0.5F L             CCN000001500000001500FN00000000020220401000001500NNM   20220404140835    1W    00000150000000689000000000032N3    ABYIPL-B000000000000XB424025
BI00B32N3    NBT206 2       20220512180D0203992              AVSSH 0.5F V             CCN000018000000018000FN00000000020220401000018000NNM   20220404140835    1W    00000150000000689000000000032N3    ABYIPL-B000000000000XB424028
BI00B32N3    NBT206 3       20220519180D0203992              AVSSH 0.5F V             CCN000016500000016500FN00000000020220401000016500NNM   20220404140835    1W    00000150000000689000000000032N3    ABYIPL-B000000000000XB125028
BI00B32N3    NBT206 2       20220512180D0204130              AVSSH 1.25F B            CCN000001600000001600FN00000000020220401000001600NNM   20220404140835    1W    00000080000001458000000000032N3    ABYIPL-B000000000000XB424031
BI00B32N3    NBT206 3       20220519180D0204130              AVSSH 1.25F B            CCN000001600000001600FN00000000020220401000001600NNM   20220404140835    1W    00000080000001458000000000032N3    ABYIPL-B000000000000XB125031
BI00B32N3    NBT206 2       20220512180D0204190              AVSSH 1.25F L            CCN000004000000004000FN00000000020220401000004000NNM   20220404140835    1W    00000080000001458000000000032N3    ABYIPL-B000000000000XB424032
BI00B32N3    NBT206 3       20220519180D0204190              AVSSH 1.25F L            CCN000003200000003200FN00000000020220401000003200NNM   20220404140835    1W    00000080000001458000000000032N3    ABYIPL-B000000000000XB125032
BI00B32N3    NBT206 4       20220526180D0204190              AVSSH 1.25F L            CCN000000800000000800FN00000000020220401000000800NNM   20220404140835    1W    00000080000001458000000000032N3    ABYIPL-B000000000000XB225024
BI00B32N3    NBT206 1       2022050518000004530              AV 8 B                   CCN000002900000002900FN00000000020220401000002900NNM   20220404140835    1W    00000010000010466200000000032N3    ABYIPL-B000000000000XB324019
BI00B32N3    NBT206 2       2022051218000004530              AV 8 B                   CCN000002900000002900FN00000000020220401000002900NNM   20220404140835    1W    00000010000010466200000000032N3    ABYIPL-B000000000000XB424033
BI00B32N3    NBT206 3       2022051918000004530              AV 8 B                   CCN000003600000003600FN00000000020220401000003600NNM   20220404140835    1W    00000010000010466200000000032N3    ABYIPL-B000000000000XB125033
BI00B32N3    NBT206 4       2022052618000004530              AV 8 B                   CCN000002200000002200FN00000000020220401000002200NNM   20220404140835    1W    00000010000010466200000000032N3    ABYIPL-B000000000000XB225025
BI00B32N3    NBT206 1       2022050518000004540              AV 8 W                   CCN000000500000000500FN00000000020220401000000500NNM   20220404140835    1W    00000010000010466200000000032N3    ABYIPL-B000000000000XB324020
BI00B32N3    NBT206 3       2022051918000004540              AV 8 W                   CCN000002500000002500FN00000000020220401000002500NNM   20220404140835    1W    00000010000010466200000000032N3    ABYIPL-B000000000000XB125034
BI00B32N3    NBT206 4       2022052618000004540              AV 8 W                   CCN000001300000001300FN00000000020220401000001300NNM   20220404140835    1W    00000010000010466200000000032N3    ABYIPL-B000000000000XB225026
BI00B32N3    NBT206 2       2022051218009604330              AVS 3 B                  CCN000010800000010800FN00000000020220401000010800NNM   20220404140835    1W    00000040000003831600000000032N3    ABYIPL-B000000000000XB424042
BI00B32N3    NBT206 3       2022051918009604330              AVS 3 B                  CCN000010400000010400FN00000000020220401000010400NNM   20220404140835    1W    00000040000003831600000000032N3    ABYIPL-B000000000000XB125043
BI00B32N3    NBT206 4       2022052618009604330              AVS 3 B                  CCN000012000000012000FN00000000020220401000012000NNM   20220404140835    1W    00000040000003831600000000032N3    ABYIPL-B000000000000XB225035
BI00B32N3    NBT206 2       2022051218009604340              AVS 3 W                  CCN000010800000010800FN00000000020220401000010800NNM   20220404140835    1W    00000040000003831600000000032N3    ABYIPL-B000000000000XB424046
BI00B32N3    NBT206 3       2022051918009604340              AVS 3 W                  CCN000010800000010800FN00000000020220401000010800NNM   20220404140835    1W    00000040000003831600000000032N3    ABYIPL-B000000000000XB125046
BI00B32N3    NBT206 2       2022051218009604341              AVS 3 GY                 CCN000005200000005200FN00000000020220401000005200NNM   20220404140835    1W    00000040000003831600000000032N3    ABYIPL-B000000000000XB424044
BI00B32N3    NBT206 3       2022051918009604341              AVS 3 GY                 CCN000005200000005200FN00000000020220401000005200NNM   20220404140835    1W    00000040000003831600000000032N3    ABYIPL-B000000000000XB125044
BI00B32N3    NBT206 1       2022050518009604343              AVS 3 W/B                CCN000001200000001200FN00000000020220401000001200NNM   20220404140835    1W    00000040000003831600000000032N3    ABYIPL-B000000000000XB324027
BI00B32N3    NBT206 2       2022051218009604343              AVS 3 W/B                CCN000031600000031600FN00000000020220401000031600NNM   20220404140835    1W    00000040000003831600000000032N3    ABYIPL-B000000000000XB424047
BI00B32N3    NBT206 3       2022051918009604343              AVS 3 W/B                CCN000019600000019600FN00000000020220401000019600NNM   20220404140835    1W    00000040000003831600000000032N3    ABYIPL-B000000000000XB125047
BI00B32N3    NBT206 4       2022052618009604343              AVS 3 W/B                CCN000012400000012400FN00000000020220401000012400NNM   20220404140835    1W    00000040000003831600000000032N3    ABYIPL-B000000000000XB225038
BI00B32N3    NBT206 3       2022051918009604346              AVS 3 W/G                CCN000000800000000800FN00000000020220401000000800NNM   20220404140835    1W    00000040000003831600000000032N3    ABYIPL-B000000000000XB125048
BI00B32N3    NBT206 4       2022052618009604346              AVS 3 W/G                CCN000000400000000400FN00000000020220401000000400NNM   20220404140835    1W    00000040000003831600000000032N3    ABYIPL-B000000000000XB225039
BI00B32N3    NBT206 2       2022051218009604350              AVS 3 R                  CCN000022000000022000FN00000000020220401000022000NNM   20220404140835    1W    00000040000003831600000000032N3    ABYIPL-B000000000000XB424045
BI00B32N3    NBT206 3       2022051918009604350              AVS 3 R                  CCN000022000000022000FN00000000020220401000022000NNM   20220404140835    1W    00000040000003831600000000032N3    ABYIPL-B000000000000XB125045
BI00B32N3    NBT206 4       2022052618009604350              AVS 3 R                  CCN000020000000020000FN00000000020220401000020000NNM   20220404140835    1W    00000040000003831600000000032N3    ABYIPL-B000000000000XB225037
BI00B32N3    NBT206 2       2022051218009604360              AVS 3 G                  CCN000000400000000400FN00000000020220401000000400NNM   20220404140835    1W    00000040000003831600000000032N3    ABYIPL-B000000000000XB424043
BI00B32N3    NBT206 4       2022052618009604360              AVS 3 G                  CCN000000800000000800FN00000000020220401000000800NNM   20220404140835    1W    00000040000003831600000000032N3    ABYIPL-B000000000000XB225036
BI00B32N3    NBT206 2       2022051218009604430              AVS 5 B                  CCN000009000000009000FN00000000020220401000009000NNM   20220404140835    1W    00000020000005981000000000032N3    ABYIPL-B000000000000XB424048
BI00B32N3    NBT206 3       2022051918009604430              AVS 5 B                  CCN000009000000009000FN00000000020220401000009000NNM   20220404140835    1W    00000020000005981000000000032N3    ABYIPL-B000000000000XB125049
BI00B32N3    NBT206 4       2022052618009604430              AVS 5 B                  CCN000004400000004400FN00000000020220401000004400NNM   20220404140835    1W    00000020000005981000000000032N3    ABYIPL-B000000000000XB225040
BI00B32N3    NBT206 2       2022051218009604450              AVS 5 R                  CCN000004400000004400FN00000000020220401000004400NNM   20220404140835    1W    00000020000005981000000000032N3    ABYIPL-B000000000000XB424050
BI00B32N3    NBT206 3       2022051918009604450              AVS 5 R                  CCN000004400000004400FN00000000020220401000004400NNM   20220404140835    1W    00000020000005981000000000032N3    ABYIPL-B000000000000XB125051
BI00B32N3    NBT206 2       2022051218009604470              AVS 5 Y                  CCN000005600000005600FN00000000020220401000005600NNM   20220404140835    1W    00000020000005981000000000032N3    ABYIPL-B000000000000XB424051
BI00B32N3    NBT206 3       2022051918009604470              AVS 5 Y                  CCN000005600000005600FN00000000020220401000005600NNM   20220404140835    1W    00000020000005981000000000032N3    ABYIPL-B000000000000XB125052
BI00B32N3    NBT206 2       2022051218009604490              AVS 5 L                  CCN000005600000005600FN00000000020220401000005600NNM   20220404140835    1W    00000020000005981000000000032N3    ABYIPL-B000000000000XB424049
BI00B32N3    NBT206 3       2022051918009604490              AVS 5 L                  CCN000005400000005400FN00000000020220401000005400NNM   20220404140835    1W    00000020000005981000000000032N3    ABYIPL-B000000000000XB125050
BI00B32N3    NBT206 4       2022052618009604490              AVS 5 L                  CCN000000600000000600FN00000000020220401000000600NNM   20220404140835    1W    00000020000005981000000000032N3    ABYIPL-B000000000000XB225041
BI00B32N3    @NBT206 1      20220505181B0911941              CAVSAS 0.3X4 GY          CCN000003500000003500FN00000000020220401000003500NNM   20220404140834    1W    00000025000003262300000000032N3    ABYIPL-B000000000000XB324006
BI00B32N3    @NBT206 2      20220512181B0911941              CAVSAS 0.3X4 GY          CCN000000750000000750FN00000000020220401000000750NNM   20220404140834    1W    00000025000003262300000000032N3    ABYIPL-B000000000000XB424007
BI00B32N3    @NBT206 3      20220519181B0911941              CAVSAS 0.3X4 GY          CCN000001000000001000FN00000000020220401000001000NNM   20220404140834    1W    00000025000003262300000000032N3    ABYIPL-B000000000000XB125008
BI00B32N3    @NBT206 4      20220526181B0911941              CAVSAS 0.3X4 GY          CCN000001000000001000FN00000000020220401000001000NNM   20220404140834    1W    00000025000003262300000000032N3    ABYIPL-B000000000000XB225008
BI00B32N3    @NBT206 1      20220505181B32103S1              AVSSCS 0.5FX3 DGY        CCN000002500000002500FN00000000020220401000002500NNM   20220404140834    1W    00000025000003585500000000032N3    ABYIPL-B000000000000XB324007
BI00B32N3    @NBT206 2      20220512181B32103S1              AVSSCS 0.5FX3 DGY        CCN000002500000002500FN00000000020220401000002500NNM   20220404140834    1W    00000025000003585500000000032N3    ABYIPL-B000000000000XB424008
BI00B32N3    @NBT206 3      20220519181B32103S1              AVSSCS 0.5FX3 DGY        CCN000002500000002500FN00000000020220401000002500NNM   20220404140834    1W    00000025000003585500000000032N3    ABYIPL-B000000000000XB125009
BI00B32N3    @NBT206 4      20220526181B32103S1              AVSSCS 0.5FX3 DGY        CCN000005500000005500FN00000000020220401000005500NNM   20220404140834    1W    00000025000003585500000000032N3    ABYIPL-B000000000000XB225009
BI00B32N3    NBT206 A       2022042818007704130              AVSS 1.25F B             CCN000009600000009600FN00000000020220401000009600NNE   20220404140104    1W    00000080000001389000000000032N3    ABYIPL-B000000000000XF224010
BI00B32N3    NBT206 A       2022042818007704140              AVSS 1.25F W             CCN000010400000010400FN00000000020220401000010400NNE   20220404140104    1W    00000080000001389000000000032N3    ABYIPL-B000000000000XF224013
BI00B32N3    NBT206 A       2022042818007704143              AVSS 1.25F W/B           CCN000004800000004800FN00000000020220401000004800NNE   20220404140104    1W    00000080000001389000000000032N3    ABYIPL-B000000000000XF224014
BI00B32N3    NBT206 A       2022042818007704160              AVSS 1.25F G             CCN000000800000000800FN00000000020220401000000800NNE   20220404140104    1W    00000080000001389000000000032N3    ABYIPL-B000000000000XF224011
BI00B32N3    NBT206 A       2022042818007704190              AVSS 1.25F L             CCN000001600000001600FN00000000020220401000001600NNE   20220404140104    1W    00000080000001389000000000032N3    ABYIPL-B000000000000XF224012
BI00B32N3    NBT206 A       20220428180D0203790              AVSSH 0.3F L             CCN000002000000002000FN00000000020220401000002000NNE   20220404140104    1W    00000200000000515000000000032N3    ABYIPL-B000000000000XF224007
BI00B32N3    NBT206 A       2022042818000004530              AV 8 B                   CCN000002700000002700FN00000000020220401000002700NNE   20220404140104    1W    00000010000010466200000000032N3    ABYIPL-B000000000000XF224008
BI00B32N3    NBT206 A       2022042818000004540              AV 8 W                   CCN000001600000001600FN00000000020220401000001600NNE   20220404140104    1W    00000010000010466200000000032N3    ABYIPL-B000000000000XF224009
BI00B32N3    NBT206 A       2022042818009604341              AVS 3 GY                 CCN000002400000002400FN00000000020220401000002400NNE   20220404140104    1W    00000040000003831600000000032N3    ABYIPL-B000000000000XF224015
BI00B32N3    NBT206 A       2022042818009604346              AVS 3 W/G                CCN000000400000000400FN00000000020220401000000400NNE   20220404140104    1W    00000040000003831600000000032N3    ABYIPL-B000000000000XF224017
BI00B32N3    NBT206 A       2022042818009604393              AVS 3 L/B                CCN000000400000000400FN00000000020220401000000400NNE   20220404140104    1W    00000040000003831600000000032N3    ABYIPL-B000000000000XF224016
BI00B32N3    NBT206 A       2022042818009604450              AVS 5 R                  CCN000002800000002800FN00000000020220401000002800NNE   20220404140104    1W    00000020000005981000000000032N3    ABYIPL-B000000000000XF224018
BI00B32R4    HZYBW2206005   20220517180D0203937              AVSSH 0.5F B/Y           CCN000003000000003000FN00000000020220501000003000NNE   20220404161734    1W    00000150000000689000000000032R4    HYHZY   000000000000HZ125001
BI00B32R4    HZYBW2206005   2022051718018403961              CAVS 0.5 LG              CCN000003000000003000FN00000000020220501000003000NNE   20220404161734    1W    00000150000000677000000000032R4    HYHZY   000000000000HZ125002
BI00A32W4    @4500191695    20220523181D6910239              AVSSHCS 0.5FX2 B/L       CCN000012300000012300FN00000000020220501000012300NNE   20220404162506W4A21W    00000030000002385000000000032W4A2  HJYHK-J 000000000000OH225001
