BI00B1200    2399T52116     202205127288-6547                CONNECTOR MALE ASS'Y     CCN000173250000173250FN00000000020220301000173250NNMM0020220404121510    4N0N  0000007500000120530000134031200    YCYC    005400370024
BI00B1200    Y122C15N       202206027288-3329-30             HOUSING MALE             CCN000001500000001500FN00000000020220401000001500NNED0420220404121510    4N0N  0000015000000086610000101111200    YCYC    005400370024
BI00B1200    H722G50007     202206097297-1861-30             HOUSING MALE ASS'Y       CCN000009000000009000FN00000000020220701000009000NNE   20220404121510    4N0N  0000015000000070220000082731200    YCYC    005400370024
BI00B1200    Y022H50007     202207077288-9556-30             SEALED ASSY MALE         CCN000001440000001440FN00000000020220801000001440NNM   20220404121510    4N0N  0000007200000053790000078631200    YCYC    005500360039
BI00B1200    Y022H50008     202207147288-9556-30             SEALED ASSY MALE         CCN000002880000002880FN00000000020220801000002880NNM   20220404121510    4N0N  0000007200000053790000078631200    YCYC    005500360039
BI00A1200    CE22-MN-0052   202204117189-5000                HYBRID HOUSING           CCN000005000000006000FN00000000020220401000006000NNE   20220404121510    4F0F  0000012000000083310000112471200    YCYC    005400370024
BI00A1200    #CE22-MN-0052  202204117172-1095                FEMALE SPACER            CCN000005000000005600FN00000000020220401000005600NNEQ0020220404134112    2H0H  0000056000000044130000054961200    YCYC    005400370024
BI00A32AF    JTB205A        202206067289-3342                HOUSING FEMALE ASS'Y     CCN000036000000004800FN00000000020220501000004800NNED0420220404121510    1N0N  00000240000000686400000901432AF    HBYHVTB 005500360039
BI00B32AF    JTB2061        202207227289-3342                HOUSING FEMALE ASS'Y     CCN000014400000007200FN00000000020220601000007200NNMD0420220404121510    1N0N  00000240000000686400000901432AF    HBYHVTB 005500360039
BI00B32AF    JTB2062        202208057289-3342                HOUSING FEMALE ASS'Y     CCN000014400000007200FN00000000020220601000007200NNMD0420220404121510    1N0N  00000240000000686400000901432AF    HBYHVTB 005500360039
BI00B32AF    JTB2061        202206107289-3342-30             HOUSING FEMALE ASS'Y     CCN000048000000048000FN00000000020220601000048000NNMD0420220404121510    1N0N  00000240000000686400000901432AF    HBYHVTB 005500360039
BI00B32AF    JTB2062        202206177289-3342-30             HOUSING FEMALE ASS'Y     CCN000045600000045600FN00000000020220601000045600NNMD0420220404121510    1N0N  00000240000000686400000901432AF    HBYHVTB 005500360039
BI00B32AF    JTB2063        202206247289-3342-30             HOUSING FEMALE ASS'Y     CCN000050400000050400FN00000000020220601000050400NNMD0420220404121510    1N0N  00000240000000686400000901432AF    HBYHVTB 005500360039
BI00B32AF    JTB2064        202207017289-3342-30             HOUSING FEMALE ASS'Y     CCN000040800000040800FN00000000020220601000040800NNMD0420220404121510    1N0N  00000240000000686400000901432AF    HBYHVTB 005500360039
BI00A32AF    JTB205A        202206137289-3342                HOUSING FEMALE ASS'Y     CCN000004800000004800FN00000000020220501000004800NNED0420220404121510    1N0N  00000240000000686400000901432AF    HBYHVTB 005500360039
BI00A32AF    JTB205A        202206207289-3342                HOUSING FEMALE ASS'Y     CCN000004800000004800FN00000000020220501000004800NNED0420220404121510    1N0N  00000240000000686400000901432AF    HBYHVTB 005500360039
BI00A32AF    JTB205A        202206277289-3342                HOUSING FEMALE ASS'Y     CCN000004800000004800FN00000000020220501000004800NNED0420220404121510    1N0N  00000240000000686400000901432AF    HBYHVTB 005500360039
BI00A32AF    JTB205A        202207047289-3342                HOUSING FEMALE ASS'Y     CCN000004800000004800FN00000000020220501000004800NNED0420220404121510    1N0N  00000240000000686400000901432AF    HBYHVTB 005500360039
BI00A32AF    JTB205A        202207117289-3342                HOUSING FEMALE ASS'Y     CCN000004800000004800FN00000000020220501000004800NNED0420220404121510    1N0N  00000240000000686400000901432AF    HBYHVTB 005500360039
BI00A32AF    JTB205A        202207187289-3342                HOUSING FEMALE ASS'Y     CCN000007200000007200FN00000000020220501000007200NNED0420220404121510    1N0N  00000240000000686400000901432AF    HBYHVTB 005500360039
BI00B32AF    JTB2061        202207297289-3342                HOUSING FEMALE ASS'Y     CCN000007200000007200FN00000000020220601000007200NNMD0420220404121510    1N0N  00000240000000686400000901432AF    HBYHVTB 005500360039
BI00B32AF    JTB2062        202208117289-3342                HOUSING FEMALE ASS'Y     CCN000007200000007200FN00000000020220601000007200NNMD0420220404121510    1N0N  00000240000000686400000901432AF    HBYHVTB 005500360039
BI00A32AF    JTB204B        202206027283-4855                CONNECTOR HOUSING        CCN000004800000004800FN00000000020220401000004800NNED0420220404144323    4N0N  00000240000001188400001400032AF    HBYHVTB 005500360039
BI00A32AF    JTB204B        202206107289-3342-30             HOUSING FEMALE ASS'Y     CCN000024000000024000FN00000000020220401000024000NNED0420220404144343    1N0N  00000240000000686400000901432AF    HBYHVTB 005500360039
BI00A32AF    JTB204B        202207017289-3342-40             HOUSING FEMALE ASS'Y     CCN000004800000004800FN00000000020220401000004800NNED0420220404144359    1N0N  00000240000000686400000901432AF    HBYHVTB 005500360039
BI00A32AF    JTB204B        202207017289-3342-90             HOUSING FEMALE ASS'Y     CCN000009600000009600FN00000000020220401000009600NNED0420220404144415    1N0N  00000240000000686400000901432AF    HBYHVTB 005500360039
BI00A32AF    JTB204B        202204117289-6597-70             HOUSING FEMALE ASS'Y     CCN000004320000004320FN00000000020220401000004320NNE   20220404134130    4N0N  00000216000001289500001539532AF    HBYHVTB 005500360039
BI00A32AF    #JTB204B       202204087183-0521                HOUSING                  CCN000004800000004800FN00000000020220401000004800NNE   20220404152752    2F0F  00000480000001367500001585032AF    HBYHVTB 005500360039
BI00A32AF    #JTB204B       202204087183-0522                HOUSING                  CCN000004800000004800FN00000000020220401000004800NNE   20220404152752    2F0F  00000240000000951000001230032AF    HBYHVTB 005500360039
BI00B32AF    JTB205C        202207017289-3342-40             HOUSING FEMALE ASS'Y     CCN000007200000007200FN00000000020220501000007200NNED0420220404144506    1N0N  00000240000000686400000901432AF    HBYHVTB 005500360039
BI00B32AF    JTB205C        202207017289-3342-90             HOUSING FEMALE ASS'Y     CCN000007200000007200FN00000000020220501000007200NNED0420220404144506    1N0N  00000240000000686400000901432AF    HBYHVTB 005500360039
BI00B32AF    JTB205C        202204297289-6597-70             HOUSING FEMALE ASS'Y     CCN000002160000002160FN00000000020220501000002160NNE   20220404134448    4N0N  00000216000001289500001539532AF    HBYHVTB 005500360039
BI00B32AF    #JTB205C       202204297183-0521                HOUSING                  CCN000004800000004800FN00000000020220501000004800NNE   20220404134444    2F0F  00000480000001367500001585032AF    HBYHVTB 005500360039
BI00B32AF    #JTB205C       202204297183-0522                HOUSING                  CCN000004800000004800FN00000000020220501000004800NNE   20220404134444    2F0F  00000240000000951000001230032AF    HBYHVTB 005500360039
BI00B32A7    ZZ22061LMW     202205117289-3342-30             HOUSING FEMALE ASS'Y     CCN000007200000007200FN00000000020220601000007200NNMD0420220404121510    1N0N  00000240000000686400000901432A7    ZZZZY   005500360039
BI00B32A7    ZZ22062LMW     202205187289-3342-30             HOUSING FEMALE ASS'Y     CCN000002400000002400FN00000000020220601000002400NNMD0420220404121510    1N0N  00000240000000686400000901432A7    ZZZZY   005500360039
BI00B32A7    ZZ22063LMW     202205257289-3342-30             HOUSING FEMALE ASS'Y     CCN000002400000002400FN00000000020220601000002400NNMD0420220404121510    1N0N  00000240000000686400000901432A7    ZZZZY   005500360039
BI00B32B1    A22024         202205277288-3339-30             HOUSING MALE             CCN000003000000003000FN00000000020220701000003000NNMD0420220404121510B1  4N0N  00000150000000867000001012032B1    AXARNE-M005400370024
BI00B32B1    A22024         202205277289-3342-30             HOUSING FEMALE ASS'Y     CCN000002400000002400FN00000000020220701000002400NNMD0420220404121510B1  1N0N  00000240000000686400000901432B1    AXARNE-M005500360039
BI00B32B1    A22024         202205277289-3342-90             HOUSING FEMALE ASS'Y     CCN000002400000002400FN00000000020220701000002400NNMD0420220404121510B1  1N0N  00000240000000686400000901432B1    AXARNE-M005500360039
BI00B32B1    A22025         202205207158-3166-60             WIRE SEAL                CCN000040000000040000FN00000000020220801000040000NNM   20220404121510B1  1C0C  00004000000000104000000152432B1    AXARNE-M002700430014
BI00B32B1    A22025         202205207158-3167-80             WIRE SEAL                CCN000180000000180000FN00000000020220801000180000NNM   20220404121510B1  1C0C  00002000000000048000000109032B1    AXARNE-M002700430014
BI00B32B1    A22025         202205207158-3168-80             SEALED                   CCN000040000000040000FN00000000020220801000040000NNM   20220404121510B1  1C0C  00002000000000044000000092132B1    AXARNE-M004300260014
BI00B32B1    A22025         202205207282-5553-30             CONNECTOR                CCN000002000000002000FN00000000020220801000002000NNM   20220404121510B1  4N0N  00000100000001010000001187332B1    AXARNE-M005500360039
BI00B32B1    A22025         202205207282-5574-10             CONNECTOR                CCN000000800000000800FN00000000020220801000000800NNM   20220404121510B1  4N0N  00000080000001235000001423032B1    AXARNE-M005600390040
BI00B32B1    A22025         202205207282-6448-40             CONNECTOR                CCN000004000000004000FN00000000020220801000004000NNM   20220404121510B1  4N0N  00000080000000887000001152732B1    AXARNE-M005600390040
BI00B32B1    A22025         202205207289-3342-90             HOUSING FEMALE ASS'Y     CCN000002400000002400FN00000000020220801000002400NNM   20220404121510B1  1N0N  00000240000000686400000901432B1    AXARNE-M005500360039
BI00B32B1    #A22025        202205207157-3891                RUBBER STOPPER           CCN000010000000010000FN00000000020220801000010000NNM   20220404121510B1  2H0H  00001000000000145000000241732B1    AXARNE-M004300270014
BI00B32B1    #A22025        202205207158-3376-50             CONNECTOR WIRE SEAL      CCN000160000000160000FN00000000020220801000160000NNM   20220404121510B1  2C0C  00002000000000184000000240732B1    AXARNE-M002700430014
BI00B32B1    #A22025        202205207282-8395-40             CONNECTOR                CCN000005000000005000FN00000000020220801000005000NNM   20220404121510B1  2N0N  00000100000001009000001188032B1    AXARNE-M005500360039
BI00B32B1    #A22025        202205207283-8226-30             CONNECTOR                CCN000002000000002000FN00000000020220801000002000NNM   20220404121510B1  2N0N  00000200000000820000001008032B1    AXARNE-M005400370024
BI00B32B6    A72025         202205207017-1180-02             TERMINAL                 CCN000072000000072000FN00000000020220801000072000NNM   20220404121510B6  4P0P  00007200000001065600001229032B6    AXARNE-M005100280028
BI00B32B6    A72025         202205207017-1181-02             TERMINAL                 CCN000063000000063000FN00000000020220801000063000NNM   20220404121510B6  4P0P  00006300000001089900001266832B6    AXARNE-M005100280028
BI00B32B6    A72025         202205207017-1182-02             TERMINAL                 CCN000045000000045000FN00000000020220801000045000NNM   20220404121510B6  4P0P  00004500000001165500001318632B6    AXARNE-M005100280028
BI00B32B6    A72025         202205207116-5045-02             TERMINAL                 CCN000032000000032000FN00000000020220801000032000NNM   20220404121510B6  4P0P  00001600000000678400001007132B6    AXARNE-M006400630017
BI00B32B6    A72025         202205207158-3165-90             WIRE SEAL                CCN000040000000040000FN00000000020220801000040000NNM   20220404121510B6  1C0C  00004000000000124000000172432B6    AXARNE-M004300270014
BI00B32B6    A72025         202205207158-3166-60             WIRE SEAL                CCN000240000000240000FN00000000020220801000240000NNM   20220404121510B6  1C0C  00004000000000104000000152432B6    AXARNE-M002700430014
BI00B32B6    A72025         202205207158-3167-80             WIRE SEAL                CCN000140000000140000FN00000000020220801000140000NNM   20220404121510B6  1C0C  00002000000000048000000109032B6    AXARNE-M002700430014
BI00B32B6    A72025         202205207158-3169-40             SEALING PLUG             CCN000080000000080000FN00000000020220801000080000NNM   20220404121510B6  1C0C  00004000000000156000000204132B6    AXARNE-M004300260014
BI00B32B7    A82025         202205207158-3166-60             WIRE SEAL                CCN000120000000120000FN00000000020220801000120000NNM   20220404121510B7  1C0C  00004000000000104000000152432B7    AXARNE-M002700430014
BI00B32B7    A82025         202205207158-3167-80             WIRE SEAL                CCN000340000000340000FN00000000020220801000340000NNM   20220404121510B7  1C0C  00002000000000048000000109032B7    AXARNE-M002700430014
BI00B32B7    A82025         202205207158-3168-80             SEALED                   CCN000060000000060000FN00000000020220801000060000NNM   20220404121510B7  1C0C  00002000000000044000000092132B7    AXARNE-M004300260014
BI00B32B7    A82025         202205207158-3169-40             SEALING PLUG             CCN000040000000040000FN00000000020220801000040000NNM   20220404121510B7  1C0C  00004000000000156000000204132B7    AXARNE-M004300260014
BI00B32B7    A82025         202205207282-6448-40             CONNECTOR                CCN000026400000026400FN00000000020220801000026400NNM   20220404121510B7  4N0N  00000080000000887000001152732B7    AXARNE-M005600390040
BI00B32B7    #A82025        202205207135-7031                GROMMET                  CCN000006200000006200FN00000000020220801000006200NNM   20220404121510B7  2H0H  00000010000000634200000744232B7    AXARNE-M005400370024
BI00B32B7    #A82025        202205207158-3003-90             RUBBER STOPPER           CCN000020000000020000FN00000000020220801000020000NNM   20220404121510B7  2C0C  00002000000000250000000306032B7    AXARNE-M002700430014
BI00B32B7    #A82025        202205207158-3376-50             CONNECTOR WIRE SEAL      CCN000060000000060000FN00000000020220801000060000NNM   20220404121510B7  2C0C  00002000000000184000000240732B7    AXARNE-M002700430014
BI00B32B7    #A82025        202205207282-8395-40             CONNECTOR                CCN000004000000004000FN00000000020220801000004000NNM   20220404121510B7  2N0N  00000100000001009000001188032B7    AXARNE-M005500360039
BI00B32B7    #A82025        202205207283-8397-40             CONNECTOR                CCN000012320000012320FN00000000020220801000012320NNM   20220404121510B7  2N0N  00000154000001007000001222732B7    AXARNE-M005600390023
BI00B32CA    PTA32103       202208187289-3342                HOUSING FEMALE ASS'Y     CCN000043200000043200FN00000000020221001000043200NNED0420220404121510    1N0N  00000240000000686400000901432CA    YPYPY   005500360039
BI00B32CA    PTA32103       202208187289-3342-30             HOUSING FEMALE ASS'Y     CCN000055200000055200FN00000000020221001000055200NNED0420220404121510    1N0N  00000240000000686400000901432CA    YPYPY   005500360039
BI00B32CA    PTA32103       202208187289-3342-90             HOUSING FEMALE ASS'Y     CCN000012000000012000FN00000000020221001000012000NNED0420220404121510    1N0N  00000240000000686400000901432CA    YPYPY   005500360039
BI00B32CA    PTA32101       202208047289-3342                HOUSING FEMALE ASS'Y     CCN000060000000060000FN00000000020221001000060000NNED0420220404121510    1N0N  00000240000000686400000901432CA    YPYPY   005500360039
BI00B32CA    PTA32101       202208047289-3342-30             HOUSING FEMALE ASS'Y     CCN000067200000067200FN00000000020221001000067200NNED0420220404121510    1N0N  00000240000000686400000901432CA    YPYPY   005500360039
BI00B32CA    PTA32101       202208047289-3342-90             HOUSING FEMALE ASS'Y     CCN000016800000016800FN00000000020221001000016800NNED0420220404121510    1N0N  00000240000000686400000901432CA    YPYPY   005500360039
BI00B32CJ    JQN2061        202205277289-3342                HOUSING FEMALE ASS'Y     CCN000024000000012000FN00000000020220601000012000NNMD0420220404121510    1N0N  00000240000000686400000901432CJ    QNYHVQN 005500360039
BI00B32CJ    JQN2062        202206107289-3342                HOUSING FEMALE ASS'Y     CCN000016800000007200FN00000000020220601000007200NNMD0420220404121510    1N0N  00000240000000686400000901432CJ    QNYHVQN 005500360039
BI00B32CJ    JQN2063        202206247289-3342                HOUSING FEMALE ASS'Y     CCN000016800000007200FN00000000020220601000007200NNMD0420220404121510    1N0N  00000240000000686400000901432CJ    QNYHVQN 005500360039
BI00B32CJ    JQN2064        202207087289-3342                HOUSING FEMALE ASS'Y     CCN000014400000007200FN00000000020220601000007200NNMD0420220404121510    1N0N  00000240000000686400000901432CJ    QNYHVQN 005500360039
BI00B32CJ    JQN2061        202205207289-3342-30             HOUSING FEMALE ASS'Y     CCN000009600000009600FN00000000020220601000009600NNMD0420220404121510    1N0N  00000240000000686400000901432CJ    QNYHVQN 005500360039
BI00B32CJ    JQN2062        202205277289-3342-30             HOUSING FEMALE ASS'Y     CCN000009600000009600FN00000000020220601000009600NNMD0420220404121510    1N0N  00000240000000686400000901432CJ    QNYHVQN 005500360039
BI00B32CJ    JQN2063        202206027289-3342-30             HOUSING FEMALE ASS'Y     CCN000009600000009600FN00000000020220601000009600NNMD0420220404121510    1N0N  00000240000000686400000901432CJ    QNYHVQN 005500360039
BI00B32CJ    JQN2064        202206107289-3342-30             HOUSING FEMALE ASS'Y     CCN000019200000019200FN00000000020220601000019200NNMD0420220404121510    1N0N  00000240000000686400000901432CJ    QNYHVQN 005500360039
BI00B32CJ    JQN2061        202205207289-3342-90             HOUSING FEMALE ASS'Y     CCN000007200000007200FN00000000020220601000007200NNMD0420220404121510    1N0N  00000240000000686400000901432CJ    QNYHVQN 005500360039
BI00B32CJ    JQN2062        202205277289-3342-90             HOUSING FEMALE ASS'Y     CCN000009600000009600FN00000000020220601000009600NNMD0420220404121510    1N0N  00000240000000686400000901432CJ    QNYHVQN 005500360039
BI00B32CJ    JQN2063        202206027289-3342-90             HOUSING FEMALE ASS'Y     CCN000007200000007200FN00000000020220601000007200NNMD0420220404121510    1N0N  00000240000000686400000901432CJ    QNYHVQN 005500360039
BI00B32CJ    JQN2064        202206107289-3342-90             HOUSING FEMALE ASS'Y     CCN000007200000007200FN00000000020220601000007200NNMD0420220404121510    1N0N  00000240000000686400000901432CJ    QNYHVQN 005500360039
BI00B32CJ    JQN2061        202205277327-6987-3W             BATTERY FUSE             CCN000002808000002808FN00000000020220601000002808NNMD0220220404121510    4N0N  00000007200000511300000711532CJ    QNYHVQN 005500360039
BI00B32CJ    JQN2062        202205277327-6987-3W             BATTERY FUSE             CCN000001944000001944FN00000000020220601000001944NNMD0220220404121510    4N0N  00000007200000511300000711532CJ    QNYHVQN 005500360039
BI00B32CJ    JQN2061        202206027289-3342                HOUSING FEMALE ASS'Y     CCN000012000000012000FN00000000020220601000012000NNMD0420220404121510    1N0N  00000240000000686400000901432CJ    QNYHVQN 005500360039
BI00B32CJ    JQN2062        202206177289-3342                HOUSING FEMALE ASS'Y     CCN000009600000009600FN00000000020220601000009600NNMD0420220404121510    1N0N  00000240000000686400000901432CJ    QNYHVQN 005500360039
BI00B32CJ    JQN2063        202207017289-3342                HOUSING FEMALE ASS'Y     CCN000009600000009600FN00000000020220601000009600NNMD0420220404121510    1N0N  00000240000000686400000901432CJ    QNYHVQN 005500360039
BI00B32CJ    JQN2064        202207157289-3342                HOUSING FEMALE ASS'Y     CCN000007200000007200FN00000000020220601000007200NNMD0420220404121510    1N0N  00000240000000686400000901432CJ    QNYHVQN 005500360039
BI00B32CJ    JQN2062        202205207158-3009-60             RUBBER STOPPER           CCN000080000000080000FN00000000020220601000080000NNMP0020220404154635    1C0C  00002000000000338000000386232CJ    QNYHVQN 002700430014
BI00B32CJ    JQN2063        202205277158-3009-60             RUBBER STOPPER           CCN000100000000100000FN00000000020220601000100000NNMP0020220404154625    1C0C  00002000000000338000000386232CJ    QNYHVQN 002700430014
BI00B32CJ    JQN2064        202206037158-3009-60             RUBBER STOPPER           CCN000040000000100000FN00000000020220601000100000NNMP0020220404154615    1C0C  00002000000000338000000386232CJ    QNYHVQN 002700430014
BI00B32CJ    #JQN2061       202205137286-7860                HOUSING MALE ASS'Y       CCN000012000000012000FN00000000020220601000012000NNM   20220404155458    2N0N  00000080000000951700001139832CJ    QNYHVQN 005400370024
BI00B32CJ    #JQN2062       202205207286-7860                HOUSING MALE ASS'Y       CCN000012000000012000FN00000000020220601000012000NNM   20220404155458    2N0N  00000080000000951700001139832CJ    QNYHVQN 005400370024
BI00B32CJ    #JQN2063       202205277286-7860                HOUSING MALE ASS'Y       CCN000009000000009600FN00000000020220601000009600NNM   20220404155458    2N0N  00000080000000951700001139832CJ    QNYHVQN 005400370024
BI00B32CJ    #JQN2064       202206037286-7860                HOUSING MALE ASS'Y       CCN000009000000009600FN00000000020220601000009600NNM   20220404155458    2N0N  00000080000000951700001139832CJ    QNYHVQN 005400370024
BI00T32CJ    @JQN2061-I     202206097183-2510                HOUSING                  CCN000015000000015000FN00000000020220601000015000NNM   20220404160815    3F0F  00000300000001063500001159032CJ    QNYHVQN 005400370024
BI00T32CJ    @JQN2061-I     202206097183-3190                JOINT CONNECTOR          CCN000079200000079200FN00000000020220601000079200NNM   20220404160815    3F0F  00000360000000457600000667832CJ    QNYHVQN 005500360039
BI00T32CJ    @JQN2061-I     202206097183-7770-40             HOUSING                  CCN000006000000006000FN00000000020220601000006000NNM   20220404160815    3F0F  00000600000001011000001161032CJ    QNYHVQN 005400370024
BI00T32CJ    @JQN2061-I     202206097282-1025                HOUSING SUB ASSEMBLY     CCN000009600000009600FN00000000020220601000009600NNM   20220404160815    3N0N  00000240000001143800001390032CJ    QNYHVQN 005500360039
BI00T32CJ    @JQN2061-I     202206097282-1040                HOUSING SUB ASSEMBLY     CCN000018000000019200FN00000000020220601000019200NNM   20220404160815    3N0N  00000240000001014400001256032CJ    QNYHVQN 005500360039
BI00T32CJ    @JQN2061-I     202206097283-1223-30             HOUSING SUB ASSEMBLY     CCN000024000000024000FN00000000020220601000024000NNM   20220404160815    3N0N  00000480000000749300000998032CJ    QNYHVQN 005500360039
BI00T32CJ    @JQN2061-I     202206097287-6634                HOUSING FEMALE ASS'Y     CCN000019200000019200FN00000000020220601000019200NNM   20220404160815    3N0N  00000240000001088400001337032CJ    QNYHVQN 005500360039
BI00A32DA    SBT2203        202204057289-3342-30             HOUSING FEMALE ASS'Y     CCN000079200000052800FN00000000020220301000052800NNMD0420220404161359    1N0N  00000240000000686400000901432DA    GBYIPLGB005500360039
BI00B32DA    SBT2206        202205127288-3329-30             HOUSING MALE             CCN000012750000013500FN00000000020220601000013500NNMD0420220404121510    4N0N  00000150000000866100001011132DA    GBYIPLGB005400370024
BI00B32DA    SBT2206A       202205197288-3329-30             HOUSING MALE             CCN000012750000013500FN00000000020220601000013500NNMD0420220404121510    4N0N  00000150000000866100001011132DA    GBYIPLGB005400370024
BI00B32DA    SBT2206        202205127288-3331-30             HOUSING MALE             CCN000011250000012000FN00000000020220601000012000NNMD0420220404121510    4N0N  00000150000000866000001010932DA    GBYIPLGB005400370024
BI00B32DA    SBT2206A       202205197288-3331-30             HOUSING MALE             CCN000011250000012000FN00000000020220601000012000NNMD0420220404121510    4N0N  00000150000000866000001010932DA    GBYIPLGB005400370024
BI00B32DA    SBT2206        202205127288-3336-30             HOUSING MALE             CCN000016500000016500FN00000000020220601000016500NNMD0420220404121510    4N0N  00000150000000867000001012032DA    GBYIPLGB005400370024
BI00B32DA    SBT2206A       202205197288-3336-30             HOUSING MALE             CCN000016500000016500FN00000000020220601000016500NNMD0420220404121510    4N0N  00000150000000867000001012032DA    GBYIPLGB005400370024
BI00B32DA    SBT2206        202205127288-3337-30             HOUSING MALE             CCN000012750000013500FN00000000020220601000013500NNMD0420220404121510    4N0N  00000150000000867000001012032DA    GBYIPLGB005400370024
BI00B32DA    SBT2206A       202205197288-3337-30             HOUSING MALE             CCN000012750000013500FN00000000020220601000013500NNMD0420220404121510    4N0N  00000150000000867000001012032DA    GBYIPLGB005400370024
BI00B32DA    SBT2206        202209297289-3342-30             HOUSING FEMALE ASS'Y     CCN000049500000050400FN00000000020220601000050400NNMD0420220404121510    1N0N  00000240000000686400000901432DA    GBYIPLGB005500360039
BI00B32DA    SBT2206A       202210067289-3342-30             HOUSING FEMALE ASS'Y     CCN000049500000050400FN00000000020220601000050400NNMD0420220404121510    1N0N  00000240000000686400000901432DA    GBYIPLGB005500360039
BI00B32DE    TCT205C        202204217196-0510-02             TERMINAL                 CCN000048000000048000FN00000000020220501000048000NNE   20220404121510    4P0P  00002400000000871200001034632DE    TVYEV-TV002800510028
BI00B32DE    TCT205C        202204217196-0511-02             TERMINAL                 CCN000024000000024000FN00000000020220501000024000NNE   20220404121510    4P0P  00002400000000916800001080232DE    TVYEV-TV002800510028
BI00B32DE    TCT205C        202204217289-4696-30             HOUSING FEMALE ASS'Y     CCN000002000000002000FN00000000020220501000002000NNE   20220404121510    4N0N  00000200000000913400001055432DE    TVYEV-TV005400370024
BI00B32D1    DFTC2220       202204057114-4624-02             TERMINAL                 CCN000024000000024000FN00000000020220501000024000NNM00020220404141357    4P0P  00002400000000895200001188832D1    TOYOT-K 006400630015
BI00B32D1    DFTC2220       202204057114-5748-02             TERMINAL                 CCN000012000000012000FN00000000020220501000012000NNM00020220404141350    4P0P  00001200000000444000000737632D1    TOYOT-K 006400630015
BI00B32D1    DFTC2220       202204057114-5753-02             TERMINAL                 CCN000027000000027000FN00000000020220501000027000NNM00020220404141342    4P0P  00002700000000847800001141432D1    TOYOT-K 006400630015
BI00B32D1    DFTC2220       202204047158-3070-80             RUBBER STOPPER           CCN000040000000040000FY00004000020220501000000000NNM00020220404161904    1C0C  00004000000000276000000333332D1    TOYOT-K 002700430014
BI00B32D1    DFTC2220       202204047283-5830                CONNECTOR                CCN000006000000006000FY00000600020220501000000000NNM00020220404161904    1N47  00000600000000954000001104032D1    TOYOT-K 005500360039
BI00B32D1    DFTC2220       202204047289-3342                HOUSING FEMALE ASS'Y     CCN000002400000002400FY00000240020220501000000000NNM00020220404161904    1N0N  00000240000000686400000901432D1    TOYOT-K 005500360039
BI00B32D1    DFTC2220       202204047289-3342-30             HOUSING FEMALE ASS'Y     CCN000009600000009600FY00000960020220501000000000NNM00020220404161904    1N0N  00000240000000686400000901432D1    TOYOT-K 005500360039
BI00B32D1    DFTC2220       202204047289-3342-40             HOUSING FEMALE ASS'Y     CCN000002400000002400FY00000240020220501000000000NNM00020220404161904    1N0N  00000240000000686400000901432D1    TOYOT-K 005500360039
BI00B32D1    DFTC2220       202204047289-3342-90             HOUSING FEMALE ASS'Y     CCN000002400000002400FY00000240020220501000000000NNM00020220404161904    1N0N  00000240000000686400000901432D1    TOYOT-K 005500360039
BI00B32D1    DFTC2220       202204047289-6547                HOUSING FEMALE ASS'Y     CCN000002400000002400FY00000240020220501000000000NNM00020220404161904    1N0N  00000240000001152000001362032D1    TOYOT-K 005500360039
BI00B32D1    DFTC2220       202204047388-2978-30             HOUSING MALE ASS'Y       CCN000000480000000480FY00000048020220501000000000NNM00020220404161904    1N0N  00000048000000742000001122032D1    TOYOT-K 005500360039
BI00B32D1    DFTC2226       202205197289-3342-30             HOUSING FEMALE ASS'Y     CCN000067200000067200FN00000000020220701000067200NNMD0420220404121510    1N0N  00000240000000686400000901432D1    TOYOT-K 005500360039
BI00A32D2    #DGTC2207      202204057172-5630-40             RUBBER STOPPER           PCN000540000000540000FN00000000020220201000540000NNM00020220404161430    2H0H  00002000000000044000000095132D2    TGYOT-G 004300270014
BI00A32D2    DGTC2219A      202204207327-6983-30             MAIN FUSE                CCN000000600000000600FN00000000020220301000000600NNED0420220404165430    4N0N  00000060000000748800000951532D2    TGYOT-G 005400370024
BI00A32D2    DGTC2219A      202204207327-6985-30             MULTI FUSE               CCN000000864000000864FN00000000020220301000000864NNED0420220404165413    4N0N  00000028800000886100001052032D2    TGYOT-G 005400370024
BI00B32D9    I22507         202205267114-4030                TERMINAL                 CCN000010500000010500FN00000000020220601000010500NNM   20220404121510    4P0P  00001050000000926100001254732D9    UEHESTO 006400630017
BI00B32D9    I22607         202206027114-4624-02             TERMINAL                 CCN000024000000024000FN00000000020220601000024000NNM   20220404121510    4P0P  00002400000000895200001188832D9    UEHESTO 006400630015
BI00B32D9    I22507         202205267116-1257-02             TERMINAL                 CCN000024000000024000FN00000000020220601000024000NNM   20220404121510    1P0P  00002400000000518400000847132D9    UEHESTO 006400630017
BI00B32D9    I22306         202205127116-1685-02             TERMINAL                 CCN000024000000024000FN00000000020220601000024000NNM   20220404121510    4P0P  00002400000000897600001065232D9    UEHESTO 005100280028
BI00B32D9    I22306         202205127116-4020                TERMINAL                 CCN000001350000013500FN00000000020220601000013500NNM   20220404121510    4P0P  00001350000000513000000798232D9    UEHESTO 006400630015
BI00B32D9    I22507         202205267116-4037                TERMINAL                 CCN000013200000018000FN00000000020220601000018000NNM   20220404121510    4P0P  00000600000000600000000894232D9    UEHESTO 006400630015
BI00B32D9    I22406         202205197116-4102-02             TERMINAL                 CCN000012000000012000FN00000000020220601000012000NNM   20220404121510    4P0P  00001200000000553200000841432D9    UEHESTO 006400630015
BI00B32D9    I22306         202205127116-4124-02             TERMINAL                 CCN000003000000003000FN00000000020220601000003000NNM   20220404121510    4P0P  00000300000000459900000753532D9    UEHESTO 006400630015
BI00B32D9    I22306         202205127116-5045-02             TERMINAL                 CCN000048000000048000FN00000000020220601000048000NNM   20220404121510    4P0P  00001600000000678400001007132D9    UEHESTO 006400630017
BI00B32D9    I22406         202205197116-5045-02             TERMINAL                 CCN000048000000048000FN00000000020220601000048000NNM   20220404121510    4P0P  00001600000000678400001007132D9    UEHESTO 006400630017
BI00B32D9    I22507         202205267116-5045-02             TERMINAL                 CCN000048000000048000FN00000000020220601000048000NNM   20220404121510    4P0P  00001600000000678400001007132D9    UEHESTO 006400630017
BI00B32D9    I22607         202206027116-5045-02             TERMINAL                 CCN000048000000048000FN00000000020220601000048000NNM   20220404121510    4P0P  00001600000000678400001007132D9    UEHESTO 006400630017
BI00B32D9    I22406         202205197116-5046-02             TERMINAL                 CCN000012000000012000FN00000000020220601000012000NNM   20220404121510    4P0P  00001200000000544800000873532D9    UEHESTO 006400630017
BI00B32D9    I22507         202205267116-5046-02             TERMINAL                 CCN000012000000012000FN00000000020220601000012000NNM   20220404121510    4P0P  00001200000000544800000873532D9    UEHESTO 006400630017
BI00B32D9    I22607         202206027116-5046-02             TERMINAL                 CCN000012000000012000FN00000000020220601000012000NNM   20220404121510    4P0P  00001200000000544800000873532D9    UEHESTO 006400630017
BI00B32D9    I22507         202205267116-6041                TERMINAL                 CCN000009000000009000FN00000000020220601000009000NNM   20220404121510    4P0P  00000450000000716000001009632D9    UEHESTO 006400630015
BI00B32D9    I22507         202205267116-6042                TERMINAL                 CCN000003000000003000FN00000000020220601000003000NNM   20220404121510    4P0P  00000300000000523800000856132D9    UEHESTO 006400630015
BI00B32D9    I22406         202205197140-1977-30             UPPER COVER              CCN000000300000000300FN00000000020220601000000300NNM   20220404121510    1F0F  00000001000000099500000249532D9    UEHESTO 005600390040
BI00B32D9    I22507         202205267140-1977-30             UPPER COVER              CCN000000300000000300FN00000000020220601000000300NNM   20220404121510    1F0F  00000001000000099500000249532D9    UEHESTO 005600390040
BI00B32D9    I22306         202205127158-3006-90             RUBBER STOPPER           CCN000120000000120000FN00000000020220601000120000NNM   20220404121510    1C0C  00002000000000330600000386032D9    UEHESTO 002700430014
BI00B32D9    I22406         202205197158-3006-90             RUBBER STOPPER           CCN000120000000120000FN00000000020220601000120000NNM   20220404121510    1C0C  00002000000000330600000386032D9    UEHESTO 002700430014
BI00B32D9    I22507         202205267158-3006-90             RUBBER STOPPER           CCN000140000000140000FN00000000020220601000140000NNM   20220404121510    1C0C  00002000000000330600000386032D9    UEHESTO 002700430014
BI00B32D9    I22607         202206027158-3006-90             RUBBER STOPPER           CCN000120000000120000FN00000000020220601000120000NNM   20220404121510    1C0C  00002000000000330600000386032D9    UEHESTO 002700430014
BI00B32D9    I22607         202206027158-3022-80             RUBBER STOPPER           CCN000005000000005000FN00000000020220601000005000NNM   20220404121510    1C0C  00000500000000467500000524032D9    UEHESTO 002700430014
BI00B32D9    I22507         202205267158-3070-80             RUBBER STOPPER           CCN000040000000040000FN00000000020220601000040000NNM   20220404121510    1C0C  00004000000000276000000333332D9    UEHESTO 002700430014
BI00B32D9    I22507         202205267183-2417                CONNECTOR HOUSING        CCN000002400000002400FN00000000020220601000002400NNM   20220404121510    4F0F  00000240000001137400001297732D9    UEHESTO 005500360039
BI00B32D9    I22306         202205127196-0396-02             TERMINAL                 CCN000015000000015000FN00000000020220601000015000NNM   20220404121510    4P0P  00001500000000949500001112932D9    UEHESTO 002800510028
BI00B32D9    I22406         202205197196-0396-02             TERMINAL                 CCN000015000000015000FN00000000020220601000015000NNM   20220404121510    4P0P  00001500000000949500001112932D9    UEHESTO 002800510028
BI00B32D9    I22507         202205267196-0396-02             TERMINAL                 CCN000015000000015000FN00000000020220601000015000NNM   20220404121510    4P0P  00001500000000949500001112932D9    UEHESTO 002800510028
BI00B32D9    I22306         202205127196-0510-02             TERMINAL                 CCN000048000000048000FN00000000020220601000048000NNM   20220404121510    4P0P  00002400000000871200001034632D9    UEHESTO 002800510028
BI00B32D9    I22406         202205197196-0510-02             TERMINAL                 CCN000024000000024000FN00000000020220601000024000NNM   20220404121510    4P0P  00002400000000871200001034632D9    UEHESTO 002800510028
BI00B32D9    I22507         202205267196-0510-02             TERMINAL                 CCN000024000000024000FN00000000020220601000024000NNM   20220404121510    4P0P  00002400000000871200001034632D9    UEHESTO 002800510028
BI00B32D9    I22607         202206027196-0510-02             TERMINAL                 CCN000024000000024000FN00000000020220601000024000NNM   20220404121510    4P0P  00002400000000871200001034632D9    UEHESTO 002800510028
BI00B32D9    I22306         202205127196-1103-02             TERMINAL                 CCN000042000000045000FN00000000020220601000045000NNM   20220404121510    4P0P  00002250000000429800000715032D9    UEHESTO 006400630015
BI00B32D9    I22406         202205197196-1103-02             TERMINAL                 CCN000021000000022500FN00000000020220601000022500NNM   20220404121510    4P0P  00002250000000429800000715032D9    UEHESTO 006400630015
BI00B32D9    I22507         202205267196-1103-02             TERMINAL                 CCN000021000000022500FN00000000020220601000022500NNM   20220404121510    4P0P  00002250000000429800000715032D9    UEHESTO 006400630015
BI00B32D9    I22607         202206027196-1103-02             TERMINAL                 CCN000021000000022500FN00000000020220601000022500NNM   20220404121510    4P0P  00002250000000429800000715032D9    UEHESTO 006400630015
BI00B32D9    I22306         202205127235-8662                DOOR GROMMET             CCN000000320000000320FN00000000020220601000000320NNM   20220404121510    4N0N  00000016000000844000001010032D9    UEHESTO 005500360039
BI00B32D9    I22406         202205197235-8662                DOOR GROMMET             CCN000000480000000480FN00000000020220601000000480NNM   20220404121510    4N0N  00000016000000844000001010032D9    UEHESTO 005500360039
BI00B32D9    I22507         202205267235-8662                DOOR GROMMET             CCN000000480000000480FN00000000020220601000000480NNM   20220404121510    4N0N  00000016000000844000001010032D9    UEHESTO 005500360039
BI00B32D9    I22607         202206027235-8662                DOOR GROMMET             CCN000000480000000480FN00000000020220601000000480NNM   20220404121510    4N0N  00000016000000844000001010032D9    UEHESTO 005500360039
BI00B32D9    I22507         202205267282-5574-10             CONNECTOR                CCN000000800000000800FN00000000020220601000000800NNM   20220404121510    4N0N  00000080000001235000001423032D9    UEHESTO 005600390040
BI00B32D9    I22406         202205197283-1156                CONNECTOR                CCN000001600000001600FN00000000020220601000001600NNM   20220404121510    4N0N  00000080000000877600001078032D9    UEHESTO 005600390040
BI00B32D9    I22507         202205267283-1156                CONNECTOR                CCN000001600000001600FN00000000020220601000001600NNM   20220404121510    4N0N  00000080000000877600001078032D9    UEHESTO 005600390040
BI00B32D9    I22607         202206027283-1156                CONNECTOR                CCN000001600000001600FN00000000020220601000001600NNM   20220404121510    4N0N  00000080000000877600001078032D9    UEHESTO 005600390040
BI00B32D9    I22306         202205127283-1288-40             CONNECTOR HOUSING        CCN000001200000001200FN00000000020220601000001200NNM   20220404121510    4N0N  00000120000001382000001640732D9    UEHESTO 005600390040
BI00B32D9    I22406         202205197283-1288-40             CONNECTOR HOUSING        CCN000001200000001200FN00000000020220601000001200NNM   20220404121510    4N0N  00000120000001382000001640732D9    UEHESTO 005600390040
BI00B32D9    I22507         202205267283-1288-40             CONNECTOR HOUSING        CCN000001200000001200FN00000000020220601000001200NNM   20220404121510    4N0N  00000120000001382000001640732D9    UEHESTO 005600390040
BI00B32D9    I22607         202206027283-1288-40             CONNECTOR HOUSING        CCN000002400000002400FN00000000020220601000002400NNM   20220404121510    4N0N  00000120000001382000001640732D9    UEHESTO 005600390040
BI00B32D9    I22507         202205267283-1927-30             CONNECTOR                CCN000002000000002000FN00000000020220601000002000NNM   20220404121510    4N0N  00000200000001190000001368032D9    UEHESTO 005500360039
BI00B32D9    I22306         202205127283-1968-30             CONNECTOR                CCN000000900000000900FN00000000020220601000000900NNM   20220404121510    1N0N  00000090000001140000001318332D9    UEHESTO 005600390040
BI00B32D9    I22507         202205267283-1968-30             CONNECTOR                CCN000000900000000900FN00000000020220601000000900NNM   20220404121510    1N0N  00000090000001140000001318332D9    UEHESTO 005600390040
BI00B32D9    I22507         202205267283-5830-30             CONNECTOR                CCN000006000000006000FN00000000020220601000006000NNM   20220404121510    1N0N  00000600000000954000001104032D9    UEHESTO 005500360039
BI00B32D9    I22607         202206027284-2665-3W             PROTECTOR                CCN000000100000000100FN00000000020220601000000100NNM   20220404121510    4N0N  00000010000000580000000754732D9    UEHESTO 005600390040
BI00B32D9    I22306         202205127286-3970                CONNECTOR HOUSING        CCN000000220000000220FN00000000020220601000000220NNM   20220404121510    1N0N  00000011000000977300001164032D9    UEHESTO 005500360039
BI00B32D9    I22406         202205197286-3970                CONNECTOR HOUSING        CCN000000220000000220FN00000000020220601000000220NNM   20220404121510    1N0N  00000011000000977300001164032D9    UEHESTO 005500360039
BI00B32D9    I22507         202205267286-3970                CONNECTOR HOUSING        CCN000000220000000220FN00000000020220601000000220NNM   20220404121510    1N0N  00000011000000977300001164032D9    UEHESTO 005500360039
BI00B32D9    I22607         202206027286-3970                CONNECTOR HOUSING        CCN000000220000000220FN00000000020220601000000220NNM   20220404121510    1N0N  00000011000000977300001164032D9    UEHESTO 005500360039
BI00B32D9    I22607         202206027287-1915-90             CONNECTOR ASS'Y          CCN000002400000002400FN00000000020220601000002400NNM   20220404121510    4N0N  00000240000000666500000923132D9    UEHESTO 005500360039
BI00B32D9    I22607         202206027287-9323                UNSEALED HOUSING SUB     CCN000002400000002400FN00000000020220601000002400NNM   20220404121510    1N0N  00000240000000537600000690032D9    UEHESTO 005600390023
BI00B32D9    I22406         202205197288-3206                HOUSING MALE ASS'Y       CCN000001020000001020FN00000000020220601000001020NNM   20220404121510    1N0N  00000102000000387600000787632D9    UEHESTO 005500360039
BI00B32D9    I22507         202205267288-3206                HOUSING MALE ASS'Y       CCN000001020000001020FN00000000020220601000001020NNM   20220404121510    1N0N  00000102000000387600000787632D9    UEHESTO 005500360039
BI00B32D9    I22607         202206027288-3206                HOUSING MALE ASS'Y       CCN000001020000001020FN00000000020220601000001020NNM   20220404121510    1N0N  00000102000000387600000787632D9    UEHESTO 005500360039
BI00B32D9    I22306         202205127288-6547                CONNECTOR MALE ASS'Y     CCN000000750000000750FN00000000020220601000000750NNM   20220404121510    4N0N  00000075000001205300001340332D9    UEHESTO 005400370024
BI00B32D9    I22406         202205197288-6547                CONNECTOR MALE ASS'Y     CCN000000750000000750FN00000000020220601000000750NNM   20220404121510    4N0N  00000075000001205300001340332D9    UEHESTO 005400370024
BI00B32D9    I22507         202205267288-6547                CONNECTOR MALE ASS'Y     CCN000000750000000750FN00000000020220601000000750NNM   20220404121510    4N0N  00000075000001205300001340332D9    UEHESTO 005400370024
BI00B32D9    I22607         202206027288-6547                CONNECTOR MALE ASS'Y     CCN000000750000000750FN00000000020220601000000750NNM   20220404121510    4N0N  00000075000001205300001340332D9    UEHESTO 005400370024
BI00B32D9    I22306         202205127289-3342                HOUSING FEMALE ASS'Y     CCN000014400000014400FN00000000020220601000014400NNM   20220404121510    1N0N  00000240000000686400000901432D9    UEHESTO 005500360039
BI00B32D9    I22406         202205197289-3342                HOUSING FEMALE ASS'Y     CCN000014400000014400FN00000000020220601000014400NNM   20220404121510    1N0N  00000240000000686400000901432D9    UEHESTO 005500360039
BI00B32D9    I22507         202205267289-3342                HOUSING FEMALE ASS'Y     CCN000014400000014400FN00000000020220601000014400NNM   20220404121510    1N0N  00000240000000686400000901432D9    UEHESTO 005500360039
BI00B32D9    I22607         202206027289-3342                HOUSING FEMALE ASS'Y     CCN000014400000014400FN00000000020220601000014400NNM   20220404121510    1N0N  00000240000000686400000901432D9    UEHESTO 005500360039
BI00B32D9    I22306         202205127289-3342-30             HOUSING FEMALE ASS'Y     CCN000043200000043200FN00000000020220601000043200NNM   20220404121510    1N0N  00000240000000686400000901432D9    UEHESTO 005500360039
BI00B32D9    I22406         202205197289-3342-30             HOUSING FEMALE ASS'Y     CCN000036000000036000FN00000000020220601000036000NNM   20220404121510    1N0N  00000240000000686400000901432D9    UEHESTO 005500360039
BI00B32D9    I22507         202205267289-3342-30             HOUSING FEMALE ASS'Y     CCN000043200000043200FN00000000020220601000043200NNM   20220404121510    1N0N  00000240000000686400000901432D9    UEHESTO 005500360039
BI00B32D9    I22607         202206027289-3342-30             HOUSING FEMALE ASS'Y     CCN000036000000036000FN00000000020220601000036000NNM   20220404121510    1N0N  00000240000000686400000901432D9    UEHESTO 005500360039
BI00B32D9    I22306         202205127289-3342-90             HOUSING FEMALE ASS'Y     CCN000019200000019200FN00000000020220601000019200NNM   20220404121510    1N0N  00000240000000686400000901432D9    UEHESTO 005500360039
BI00B32D9    I22406         202205197289-3342-90             HOUSING FEMALE ASS'Y     CCN000019200000019200FN00000000020220601000019200NNM   20220404121510    1N0N  00000240000000686400000901432D9    UEHESTO 005500360039
BI00B32D9    I22507         202205267289-3342-90             HOUSING FEMALE ASS'Y     CCN000019200000019200FN00000000020220601000019200NNM   20220404121510    1N0N  00000240000000686400000901432D9    UEHESTO 005500360039
BI00B32D9    I22607         202206027289-3342-90             HOUSING FEMALE ASS'Y     CCN000019200000019200FN00000000020220601000019200NNM   20220404121510    1N0N  00000240000000686400000901432D9    UEHESTO 005500360039
BI00B32D9    I22306         202205127327-6731-3W             BATTERY FUSE             CCN000001024000001024FN00000000020220601000001024NNM   20220404121510    4N0N  00000006400000697600000843032D9    UEHESTO 005400370024
BI00B32D9    I22406         202205197327-6731-3W             BATTERY FUSE             CCN000000512000000512FN00000000020220601000000512NNM   20220404121510    4N0N  00000006400000697600000843032D9    UEHESTO 005400370024
BI00B32D9    I22507         202205267327-6731-3W             BATTERY FUSE             CCN000000512000000512FN00000000020220601000000512NNM   20220404121510    4N0N  00000006400000697600000843032D9    UEHESTO 005400370024
BI00B32D9    I22607         202206027327-6731-3W             BATTERY FUSE             CCN000000576000000576FN00000000020220601000000576NNM   20220404121510    4N0N  00000006400000697600000843032D9    UEHESTO 005400370024
BI00B32D9    I22306         202205127370-0309                J/B ASS'Y                CCN000000480000000480FN00000000020220601000000480NNM   20220404121510    1J0J  00000001600000870400001260032D9    UEHESTO 005500360039
BI00B32D9    I22406         202205197370-0309                J/B ASS'Y                CCN000000480000000480FN00000000020220601000000480NNM   20220404121510    1J0J  00000001600000870400001260032D9    UEHESTO 005500360039
BI00B32D9    I22507         202205267370-0309                J/B ASS'Y                CCN000000480000000480FN00000000020220601000000480NNM   20220404121510    1J0J  00000001600000870400001260032D9    UEHESTO 005500360039
BI00B32D9    I22306         202205127388-0313-30             CONNECTOR ASS'Y          CCN000002400000002400FN00000000020220601000002400NNM   20220404121510    4N0N  00000120000000995000001125032D9    UEHESTO 005400370024
BI00B32D9    I22406         202205197388-0313-30             CONNECTOR ASS'Y          CCN000002400000002400FN00000000020220601000002400NNM   20220404121510    4N0N  00000120000000995000001125032D9    UEHESTO 005400370024
BI00B32D9    I22507         202205267388-0313-30             CONNECTOR ASS'Y          CCN000002400000002400FN00000000020220601000002400NNM   20220404121510    4N0N  00000120000000995000001125032D9    UEHESTO 005400370024
BI00B32D9    I22607         202206027388-0313-30             CONNECTOR ASS'Y          CCN000002400000002400FN00000000020220601000002400NNM   20220404121510    4N0N  00000120000000995000001125032D9    UEHESTO 005400370024
BI00B32D9    I22306         202205127388-2978-30             HOUSING MALE ASS'Y       CCN000001440000001440FN00000000020220601000001440NNM   20220404121510    1N0N  00000048000000742000001122032D9    UEHESTO 005500360039
BI00B32D9    I22406         202205197388-2978-30             HOUSING MALE ASS'Y       CCN000001440000001440FN00000000020220601000001440NNM   20220404121510    1N0N  00000048000000742000001122032D9    UEHESTO 005500360039
BI00B32D9    I22507         202205267388-2978-30             HOUSING MALE ASS'Y       CCN000001440000001440FN00000000020220601000001440NNM   20220404121510    1N0N  00000048000000742000001122032D9    UEHESTO 005500360039
BI00B32D9    I22607         202206027388-2978-30             HOUSING MALE ASS'Y       CCN000000960000000960FN00000000020220601000000960NNM   20220404121510    1N0N  00000048000000742000001122032D9    UEHESTO 005500360039
BI00B32D9    #I22507        202205267125-3236-30             HEAD LAMP CONNECTOR      CCN000002800000002800FN00000000020220601000002800NNM   20220404121510    2F0F  00000280000000945000001085932D9    UEHESTO 005500360039
BI00B32D9    #I22306        202205127140-1978-30             LOWER COVER              CCN000000480000000480FN00000000020220601000000480NNM   20220404121510    2F0F  00000000800000207100000395132D9    UEHESTO 005500360039
BI00B32D9    #I22406        202205197140-1978-30             LOWER COVER              CCN000000240000000240FN00000000020220601000000240NNM   20220404121510    2F0F  00000000800000207100000395132D9    UEHESTO 005500360039
BI00B32D9    #I22507        202205267140-1978-30             LOWER COVER              CCN000000240000000240FN00000000020220601000000240NNM   20220404121510    2F0F  00000000800000207100000395132D9    UEHESTO 005500360039
BI00B32D9    #I22607        202206027140-1978-30             LOWER COVER              CCN000000240000000240FN00000000020220601000000240NNM   20220404121510    2F0F  00000000800000207100000395132D9    UEHESTO 005500360039
BI00B32D9    #I22306        202205127154-5597-30             CASSETTE R/B             CCN000005600000005600FN00000000020220601000005600NNM   20220404121510    2F0F  00000080000000736000000952032D9    UEHESTO 005500360039
BI00B32D9    #I22406        202205197154-5597-30             CASSETTE R/B             CCN000005600000005600FN00000000020220601000005600NNM   20220404121510    2F0F  00000080000000736000000952032D9    UEHESTO 005500360039
BI00B32D9    #I22507        202205267154-5597-30             CASSETTE R/B             CCN000005600000005600FN00000000020220601000005600NNM   20220404121510    2F0F  00000080000000736000000952032D9    UEHESTO 005500360039
BI00B32D9    #I22607        202206027154-5597-30             CASSETTE R/B             CCN000005600000005600FN00000000020220601000005600NNM   20220404121510    2F0F  00000080000000736000000952032D9    UEHESTO 005500360039
BI00B32D9    #I22306        202205127158-3003-90             RUBBER STOPPER           CCN000080000000080000FN00000000020220601000080000NNM   20220404121510    2C0C  00002000000000250000000306032D9    UEHESTO 002700430014
BI00B32D9    #I22406        202205197158-3003-90             RUBBER STOPPER           CCN000080000000080000FN00000000020220601000080000NNM   20220404121510    2C0C  00002000000000250000000306032D9    UEHESTO 002700430014
BI00B32D9    #I22507        202205267158-3003-90             RUBBER STOPPER           CCN000080000000080000FN00000000020220601000080000NNM   20220404121510    2C0C  00002000000000250000000306032D9    UEHESTO 002700430014
BI00B32D9    #I22607        202206027158-3003-90             RUBBER STOPPER           CCN000080000000080000FN00000000020220601000080000NNM   20220404121510    2C0C  00002000000000250000000306032D9    UEHESTO 002700430014
BI00B32D9    #I22306        202205127158-3005-80             RUBBER STOPPER           CCN000020000000020000FN00000000020220601000020000NNM   20220404121510    2H0H  00002000000000210000000268732D9    UEHESTO 002700430014
BI00B32D9    #I22406        202205197158-3005-80             RUBBER STOPPER           CCN000020000000020000FN00000000020220601000020000NNM   20220404121510    2H0H  00002000000000210000000268732D9    UEHESTO 002700430014
BI00B32D9    #I22507        202205267158-3005-80             RUBBER STOPPER           CCN000020000000020000FN00000000020220601000020000NNM   20220404121510    2H0H  00002000000000210000000268732D9    UEHESTO 002700430014
BI00B32D9    #I22306        202205127158-3007-10             RUBBER STOPPER           CCN000020000000020000FN00000000020220601000020000NNM   20220404121510    2H0H  00002000000000308000000362732D9    UEHESTO 002700430014
BI00B32D9    #I22406        202205197158-3007-10             RUBBER STOPPER           CCN000020000000020000FN00000000020220601000020000NNM   20220404121510    2H0H  00002000000000308000000362732D9    UEHESTO 002700430014
BI00B32D9    #I22507        202205267158-3007-10             RUBBER STOPPER           CCN000020000000020000FN00000000020220601000020000NNM   20220404121510    2H0H  00002000000000308000000362732D9    UEHESTO 002700430014
BI00B32D9    #I22607        202206027158-3007-10             RUBBER STOPPER           CCN000040000000040000FN00000000020220601000040000NNM   20220404121510    2H0H  00002000000000308000000362732D9    UEHESTO 002700430014
BI00B32D9    #I22306        202205127158-3008-80             RUBBER STOPPER           CCN000020000000020000FN00000000020220601000020000NNM   20220404121510    2C0C  00002000000000288000000343032D9    UEHESTO 004300270014
BI00B32D9    #I22406        202205197158-3008-80             RUBBER STOPPER           CCN000020000000020000FN00000000020220601000020000NNM   20220404121510    2C0C  00002000000000288000000343032D9    UEHESTO 004300270014
BI00B32D9    #I22507        202205267158-3008-80             RUBBER STOPPER           CCN000040000000040000FN00000000020220601000040000NNM   20220404121510    2C0C  00002000000000288000000343032D9    UEHESTO 004300270014
BI00B32D9    #I22607        202206027158-3008-80             RUBBER STOPPER           CCN000040000000040000FN00000000020220601000040000NNM   20220404121510    2C0C  00002000000000288000000343032D9    UEHESTO 004300270014
BI00B32D9    #I22406        202205197158-3015-10             RUBBER STOPPER           CCN000010000000010000FN00000000020220601000010000NNM   20220404121510    2C0C  00001000000000419500000474032D9    UEHESTO 002700430014
BI00B32D9    #I22507        202205267158-3017                RUBBER STOPPER           CCN000010000000010000FN00000000020220601000010000NNM   20220404121510    2C0C  00001000000000375500000435032D9    UEHESTO 002700430014
BI00B32D9    #I22306        202205127158-7585-30             BLOCK LIF                CCN000000800000000800FN00000000020220601000000800NNM   20220404121510    2F0F  00000080000000617400000771532D9    UEHESTO 005500360039
BI00B32D9    #I22406        202205197158-7585-30             BLOCK LIF                CCN000000800000000800FN00000000020220601000000800NNM   20220404121510    2F0F  00000080000000617400000771532D9    UEHESTO 005500360039
BI00B32D9    #I22507        202205267158-7585-30             BLOCK LIF                CCN000000800000000800FN00000000020220601000000800NNM   20220404121510    2F0F  00000080000000617400000771532D9    UEHESTO 005500360039
BI00B32D9    #I22607        202206027158-7585-30             BLOCK LIF                CCN000000800000000800FN00000000020220601000000800NNM   20220404121510    2F0F  00000080000000617400000771532D9    UEHESTO 005500360039
BI00B32D9    #I22306        202205127158-7586-30             BLOCK LIF                CCN000001600000001600FN00000000020220601000001600NNM   20220404121510    2F0F  00000080000000617400000844232D9    UEHESTO 005500360039
BI00B32D9    #I22406        202205197158-7586-30             BLOCK LIF                CCN000000800000000800FN00000000020220601000000800NNM   20220404121510    2F0F  00000080000000617400000844232D9    UEHESTO 005500360039
BI00B32D9    #I22507        202205267158-7586-30             BLOCK LIF                CCN000000800000000800FN00000000020220601000000800NNM   20220404121510    2F0F  00000080000000617400000844232D9    UEHESTO 005500360039
BI00B32D9    #I22607        202206027158-7586-30             BLOCK LIF                CCN000000800000000800FN00000000020220601000000800NNM   20220404121510    2F0F  00000080000000617400000844232D9    UEHESTO 005500360039
BI00B32D9    #I22306        202205127171-6291                HOUSING MALE             CCN000000384000000384FN00000000020220601000000384NNM   20220404121510    2F0F  00000019200001339100001489132D9    UEHESTO 005500360039
BI00B32D9    #I22406        202205197171-6291                HOUSING MALE             CCN000000384000000384FN00000000020220601000000384NNM   20220404121510    2F0F  00000019200001339100001489132D9    UEHESTO 005500360039
BI00B32D9    #I22507        202205267171-6291                HOUSING MALE             CCN000000384000000384FN00000000020220601000000384NNM   20220404121510    2F0F  00000019200001339100001489132D9    UEHESTO 005500360039
BI00B32D9    #I22607        202206027171-6291                HOUSING MALE             CCN000000192000000192FN00000000020220601000000192NNM   20220404121510    2F0F  00000019200001339100001489132D9    UEHESTO 005500360039
BI00B32D9    #I22306        202205127171-6292                HOUSING                  CCN000000540000000540FN00000000020220601000000540NNM   20220404121510    2F0F  00000018000000762100000980332D9    UEHESTO 005400370024
BI00B32D9    #I22406        202205197171-6292                HOUSING                  CCN000000540000000540FN00000000020220601000000540NNM   20220404121510    2F0F  00000018000000762100000980332D9    UEHESTO 005400370024
BI00B32D9    #I22507        202205267171-6292                HOUSING                  CCN000000540000000540FN00000000020220601000000540NNM   20220404121510    2F0F  00000018000000762100000980332D9    UEHESTO 005400370024
BI00B32D9    #I22607        202206027171-6292                HOUSING                  CCN000000540000000540FN00000000020220601000000540NNM   20220404121510    2F0F  00000018000000762100000980332D9    UEHESTO 005400370024
BI00B32D9    #I22306        202205127172-5629-80             RUBBER STOPPER           CCN000040000000040000FN00000000020220601000040000NNM   20220404121510    2H0H  00002000000000060000000111132D9    UEHESTO 004300270014
BI00B32D9    #I22406        202205197172-5629-80             RUBBER STOPPER           CCN000020000000020000FN00000000020220601000020000NNM   20220404121510    2H0H  00002000000000060000000111132D9    UEHESTO 004300270014
BI00B32D9    #I22507        202205267172-5629-80             RUBBER STOPPER           CCN000040000000040000FN00000000020220601000040000NNM   20220404121510    2H0H  00002000000000060000000111132D9    UEHESTO 004300270014
BI00B32D9    #I22607        202206027172-5629-80             RUBBER STOPPER           CCN000020000000020000FN00000000020220601000020000NNM   20220404121510    2H0H  00002000000000060000000111132D9    UEHESTO 004300270014
BI00B32D9    #I22306        202205127172-5630-40             RUBBER STOPPER           CCN000020000000020000FN00000000020220601000020000NNM   20220404121510    2H0H  00002000000000044000000095132D9    UEHESTO 004300270014
BI00B32D9    #I22406        202205197172-5630-40             RUBBER STOPPER           CCN000020000000020000FN00000000020220601000020000NNM   20220404121510    2H0H  00002000000000044000000095132D9    UEHESTO 004300270014
BI00B32D9    #I22507        202205267172-5630-40             RUBBER STOPPER           CCN000020000000020000FN00000000020220601000020000NNM   20220404121510    2H0H  00002000000000044000000095132D9    UEHESTO 004300270014
BI00B32D9    #I22607        202206027172-5630-40             RUBBER STOPPER           CCN000040000000040000FN00000000020220601000040000NNM   20220404121510    2H0H  00002000000000044000000095132D9    UEHESTO 004300270014
BI00B32D9    #I22507        202205267172-5632-10             DUMMY PLUG               CCN000020000000020000FN00000000020220601000020000NNM   20220404121510    2H0H  00002000000000080400000131832D9    UEHESTO 004300270014
BI00B32D9    #I22306        202205127173-1070                CONNECTOR BRACKET        CCN000001200000001200FN00000000020220601000001200NNM   20220404121510    2F0F  00000120000000592400000968332D9    UEHESTO 005500360039
BI00B32D9    #I22507        202205267173-1070                CONNECTOR BRACKET        CCN000001200000001200FN00000000020220601000001200NNM   20220404121510    2F0F  00000120000000592400000968332D9    UEHESTO 005500360039
BI00B32D9    #I22607        202206027173-1070                CONNECTOR BRACKET        CCN000001200000001200FN00000000020220601000001200NNM   20220404121510    2F0F  00000120000000592400000968332D9    UEHESTO 005500360039
BI00B32D9    #I22507        202205267173-1071                BRACKET                  CCN000001200000001200FN00000000020220601000001200NNM   20220404121510    2F0F  00000120000001156800001388232D9    UEHESTO 005600390040
BI00B32D9    #I22607        202206027173-1071                BRACKET                  CCN000001200000001200FN00000000020220601000001200NNM   20220404121510    2F0F  00000120000001156800001388232D9    UEHESTO 005600390040
BI00B32D9    #I22406        202205197173-1516                SIDE BRACKET             CCN000000600000000600FN00000000020220601000000600NNM   20220404121510    2F0F  00000060000000960000001090032D9    UEHESTO 005500360039
BI00B32D9    #I22607        202206027173-1516                SIDE BRACKET             CCN000000600000000600FN00000000020220601000000600NNM   20220404121510    2F0F  00000060000000960000001090032D9    UEHESTO 005500360039
BI00B32D9    #I22306        202205127173-4057                LIF LEVER                CCN000000360000000360FN00000000020220601000000360NNM   20220404121510    2F0F  00000036000000689600000839632D9    UEHESTO 005400370024
BI00B32D9    #I22406        202205197173-4057                LIF LEVER                CCN000000360000000360FN00000000020220601000000360NNM   20220404121510    2F0F  00000036000000689600000839632D9    UEHESTO 005400370024
BI00B32D9    #I22507        202205267173-4057                LIF LEVER                CCN000000360000000360FN00000000020220601000000360NNM   20220404121510    2F0F  00000036000000689600000839632D9    UEHESTO 005400370024
BI00B32D9    #I22607        202206027173-4057                LIF LEVER                CCN000000360000000360FN00000000020220601000000360NNM   20220404121510    2F0F  00000036000000689600000839632D9    UEHESTO 005400370024
BI00B32D9    #I22306        202205127174-0152                CONNECTOR                CCN000000350000000350FN00000000020220601000000350NNM   20220404121510    2F0F  00000035000000746400000918632D9    UEHESTO 005500360039
BI00B32D9    #I22406        202205197174-0152                CONNECTOR                CCN000000350000000350FN00000000020220601000000350NNM   20220404121510    2F0F  00000035000000746400000918632D9    UEHESTO 005500360039
BI00B32D9    #I22507        202205267174-0152                CONNECTOR                CCN000000350000000350FN00000000020220601000000350NNM   20220404121510    2F0F  00000035000000746400000918632D9    UEHESTO 005500360039
BI00B32D9    #I22306        202205127174-1749                COVER                    CCN000000568000000588FN00000000020220601000000588NNM   20220404121510    2F0F  00000029400000689600000834632D9    UEHESTO 005500360039
BI00B32D9    #I22406        202205197174-1749                COVER                    CCN000000294000000294FN00000000020220601000000294NNM   20220404121510    2F0F  00000029400000689600000834632D9    UEHESTO 005500360039
BI00B32D9    #I22507        202205267174-1749                COVER                    CCN000000294000000294FN00000000020220601000000294NNM   20220404121510    2F0F  00000029400000689600000834632D9    UEHESTO 005500360039
BI00B32D9    #I22607        202206027174-1749                COVER                    CCN000000294000000294FN00000000020220601000000294NNM   20220404121510    2F0F  00000029400000689600000834632D9    UEHESTO 005500360039
BI00B32D9    #I22406        202205197182-2411-40             CONNECTOR HOUSING        CCN000001200000001200FN00000000020220601000001200NNM   20220404121510    2F0F  00000120000001278800001568632D9    UEHESTO 005500360039
BI00B32D9    #I22406        202205197182-4941                DOUBLE SIDED             CCN000001000000001000FN00000000020220601000001000NNM   20220404121510    2F0F  00000100000001282000001477032D9    UEHESTO 005600390040
BI00B32D9    #I22507        202205267182-4941                DOUBLE SIDED             CCN000001000000001000FN00000000020220601000001000NNM   20220404121510    2F0F  00000100000001282000001477032D9    UEHESTO 005600390040
BI00B32D9    #I22607        202206027182-4941                DOUBLE SIDED             CCN000001000000001000FN00000000020220601000001000NNM   20220404121510    2F0F  00000100000001282000001477032D9    UEHESTO 005600390040
BI00B32D9    #I22306        202205127183-1616                CONNECTOR HOUSING        CCN000002400000002400FN00000000020220601000002400NNM   20220404121510    2F0F  00000240000000557500000823332D9    UEHESTO 005500360039
BI00B32D9    #I22507        202205267183-1616                CONNECTOR HOUSING        CCN000002400000002400FN00000000020220601000002400NNM   20220404121510    2F0F  00000240000000557500000823332D9    UEHESTO 005500360039
BI00B32D9    #I22607        202206027183-1616-30             CONNECTOR HOUSING        CCN000002400000002400FN00000000020220601000002400NNM   20220404121510    2F0F  00000240000000557500000837132D9    UEHESTO 005500360039
BI00B32D9    #I22406        202205197183-2412                HOUSING                  CCN000001600000001600FN00000000020220601000001600NNM   20220404121510    2F0F  00000160000001059200001245632D9    UEHESTO 005500360039
BI00B32D9    #I22306        202205127183-2413                CONNECTOR HOUSING        CCN000009600000009600FN00000000020220601000009600NNM   20220404121510    2F0F  00000480000000478100000760032D9    UEHESTO 005500360039
BI00B32D9    #I22406        202205197183-2413                CONNECTOR HOUSING        CCN000009600000009600FN00000000020220601000009600NNM   20220404121510    2F0F  00000480000000478100000760032D9    UEHESTO 005500360039
BI00B32D9    #I22507        202205267183-2413                CONNECTOR HOUSING        CCN000009600000009600FN00000000020220601000009600NNM   20220404121510    2F0F  00000480000000478100000760032D9    UEHESTO 005500360039
BI00B32D9    #I22607        202206027183-2413                CONNECTOR HOUSING        CCN000009600000009600FN00000000020220601000009600NNM   20220404121510    2F0F  00000480000000478100000760032D9    UEHESTO 005500360039
BI00B32D9    #I22406        202205197183-2414                CONNECTOR HOUSING        CCN000004800000004800FN00000000020220601000004800NNM   20220404121510    2F0F  00000480000000779200001061032D9    UEHESTO 005500360039
BI00B32D9    #I22406        202205197183-2414-30             CONNECTOR HOUSING        CCN000004800000004800FN00000000020220601000004800NNM   20220404121510    2F0F  00000480000000779500001061532D9    UEHESTO 005500360039
BI00B32D9    #I22507        202205267183-2414-30             CONNECTOR HOUSING        CCN000004800000004800FN00000000020220601000004800NNM   20220404121510    2F0F  00000480000000779500001061532D9    UEHESTO 005500360039
BI00B32D9    #I22607        202206027183-2414-30             CONNECTOR HOUSING        CCN000004800000004800FN00000000020220601000004800NNM   20220404121510    2F0F  00000480000000779500001061532D9    UEHESTO 005500360039
BI00B32D9    #I22507        202205267183-2419                HOUSING                  CCN000004800000004800FN00000000020220601000004800NNM   20220404121510    2F0F  00000480000001065600001352732D9    UEHESTO 005500360039
BI00B32D9    #I22507        202205267186-3971                CONNECTOR HOUSING        CCN000002400000002400FN00000000020220601000002400NNM   20220404121510    2F0F  00000240000001002200001191432D9    UEHESTO 005500360039
BI00B32D9    #I22607        202206027186-3971                CONNECTOR HOUSING        CCN000002400000002400FN00000000020220601000002400NNM   20220404121510    2F0F  00000240000001002200001191432D9    UEHESTO 005500360039
BI00B32D9    #I22507        202205267186-3974-30             CONNECTOR HOUSING        CCN000002400000002400FN00000000020220601000002400NNM   20220404121510    2F0F  00000240000001062200001233432D9    UEHESTO 005500360039
BI00B32D9    #I22306        202205127187-3356                JOINT CONNECTOR          CCN000002400000002400FN00000000020220601000002400NNM   20220404121510    2F0F  00000120000000759600001024432D9    UEHESTO 005600390040
BI00B32D9    #I22406        202205197187-3356                JOINT CONNECTOR          CCN000002400000002400FN00000000020220601000002400NNM   20220404121510    2F0F  00000120000000759600001024432D9    UEHESTO 005600390040
BI00B32D9    #I22507        202205267187-3356                JOINT CONNECTOR          CCN000001200000001200FN00000000020220601000001200NNM   20220404121510    2F0F  00000120000000759600001024432D9    UEHESTO 005600390040
BI00B32D9    #I22607        202206027187-3356                JOINT CONNECTOR          CCN000002400000002400FN00000000020220601000002400NNM   20220404121510    2F0F  00000120000000759600001024432D9    UEHESTO 005600390040
BI00B32D9    #I22507        202205267187-3358-30             JOINT CONNECTOR          CCN000001200000001200FN00000000020220601000001200NNM   20220404121510    2F0F  00000120000000673200000940432D9    UEHESTO 005600390040
BI00B32D9    #I22306        202205127187-3359-60             JOINT CONNECTOR          CCN000002400000002400FN00000000020220601000002400NNM   20220404121510    2F0F  00000120000000763200001030432D9    UEHESTO 005600390040
BI00B32D9    #I22406        202205197187-3359-60             JOINT CONNECTOR          CCN000001200000001200FN00000000020220601000001200NNM   20220404121510    2F0F  00000120000000763200001030432D9    UEHESTO 005600390040
BI00B32D9    #I22507        202205267187-3359-60             JOINT CONNECTOR          CCN000001200000001200FN00000000020220601000001200NNM   20220404121510    2F0F  00000120000000763200001030432D9    UEHESTO 005600390040
BI00B32D9    #I22607        202206027187-3359-60             JOINT CONNECTOR          CCN000001200000001200FN00000000020220601000001200NNM   20220404121510    2F0F  00000120000000763200001030432D9    UEHESTO 005600390040
BI00B32D9    #I22406        202205197187-3360                JOINT CONNECTOR          CCN000001200000001200FN00000000020220601000001200NNM   20220404121510    2F0F  00000120000000759600001026832D9    UEHESTO 005600390040
BI00B32D9    #I22607        202206027187-3360                JOINT CONNECTOR          CCN000001200000001200FN00000000020220601000001200NNM   20220404121510    2F0F  00000120000000759600001026832D9    UEHESTO 005600390040
BI00B32D9    #I22306        202205127187-3970                CONNECTOR FLAME          CCN000000368000000368FN00000000020220601000000368NNM   20220404121510    2F0F  00000036800001414000001737332D9    UEHESTO 005600390040
BI00B32D9    #I22406        202205197187-3970                CONNECTOR FLAME          CCN000000368000000368FN00000000020220601000000368NNM   20220404121510    2F0F  00000036800001414000001737332D9    UEHESTO 005600390040
BI00B32D9    #I22507        202205267187-3970                CONNECTOR FLAME          CCN000000368000000368FN00000000020220601000000368NNM   20220404121510    2F0F  00000036800001414000001737332D9    UEHESTO 005600390040
BI00B32D9    #I22306        202205127187-3971                CONNECTOR HOUSING        CCN000002400000002400FN00000000020220601000002400NNM   20220404121510    2F0F  00000240000000928300001099532D9    UEHESTO 005500360039
BI00B32D9    #I22607        202206027187-3971                CONNECTOR HOUSING        CCN000002400000002400FN00000000020220601000002400NNM   20220404121510    2F0F  00000240000000928300001099532D9    UEHESTO 005500360039
BI00B32D9    #I22406        202205197187-3973                CONNECTOR HOUSING        CCN000002400000002400FN00000000020220601000002400NNM   20220404121510    2F0F  00000240000000901900001073132D9    UEHESTO 005500360039
BI00B32D9    #I22406        202205197187-3977-90             CONNECTOR HOUSING        CCN000002400000002400FN00000000020220601000002400NNM   20220404121510    2F0F  00000240000000905000001076232D9    UEHESTO 005500360039
BI00B32D9    #I22406        202205197188-3035                HOUSING MALE             CCN000002400000002400FN00000000020220601000002400NNM   20220404121510    2F0F  00000240000000693600000913632D9    UEHESTO 005500360039
BI00B32D9    #I22406        202205197188-9508-40             HLC HOUSING MALE         CCN000002000000002000FN00000000020220601000002000NNM   20220404121510    2F0F  00000200000000637000000782032D9    UEHESTO 005400370024
BI00B32D9    #I22607        202206027188-9508-40             HLC HOUSING MALE         CCN000002000000002000FN00000000020220601000002000NNM   20220404121510    2F0F  00000200000000637000000782032D9    UEHESTO 005400370024
BI00B32D9    #I22507        202205267188-9509                HLC HOUSING MALE         CCN000002000000002000FN00000000020220601000002000NNM   20220404121510    2F0F  00000200000000626200000771232D9    UEHESTO 005400370024
BI00B32D9    #I22306        202205127188-9510-30             HLC HOUSING MALE         CCN000002000000002000FN00000000020220601000002000NNM   20220404121510    2F0F  00000200000000631000000776032D9    UEHESTO 005400370024
BI00B32D9    #I22507        202205267188-9511-80             HLC HOUSING MALE         CCN000002000000002000FN00000000020220601000002000NNM   20220404121510    2F0F  00000200000000627200000772232D9    UEHESTO 005400370024
BI00B32D9    #I22406        202205197188-9512-10             HLC HOUSING MALE         CCN000002000000002000FN00000000020220601000002000NNM   20220404121510    2F0F  00000200000000628200000773232D9    UEHESTO 005400370024
BI00B32D9    #I22406        202205197188-9513                HLC HOUSING MALE         CCN000002000000002000FN00000000020220601000002000NNM   20220404121510    2F0F  00000200000000771400000916432D9    UEHESTO 005400370024
BI00B32D9    #I22306        202205127188-9514-90             HLC HOUSING MALE         CCN000002000000002000FN00000000020220601000002000NNM   20220404121510    2F0F  00000200000000778600000923632D9    UEHESTO 005400370024
BI00B32D9    #I22507        202205267188-9514-90             HLC HOUSING MALE         CCN000002000000002000FN00000000020220601000002000NNM   20220404121510    2F0F  00000200000000778600000923632D9    UEHESTO 005400370024
BI00B32D9    #I22306        202205127189-2978-30             HOUSING FEMALE           CCN000001500000001500FN00000000020220601000001500NNM   20220404121510    2F0F  00000150000000966900001096932D9    UEHESTO 005400370024
BI00B32D9    #I22406        202205197189-2978-30             HOUSING FEMALE           CCN000001500000001500FN00000000020220601000001500NNM   20220404121510    2F0F  00000150000000966900001096932D9    UEHESTO 005400370024
BI00B32D9    #I22507        202205267189-2978-30             HOUSING FEMALE           CCN000001500000001500FN00000000020220601000001500NNM   20220404121510    2F0F  00000150000000966900001096932D9    UEHESTO 005400370024
BI00B32D9    #I22607        202206027189-2978-30             HOUSING FEMALE           CCN000001500000001500FN00000000020220601000001500NNM   20220404121510    2F0F  00000150000000966900001096932D9    UEHESTO 005400370024
BI00B32D9    #I22306        202205127189-3032                HOUSING FEMALE           CCN000001600000001600FN00000000020220601000001600NNM   20220404121510    2F0F  00000160000000788400001018432D9    UEHESTO 005500360039
BI00B32D9    #I22507        202205267189-3032-30             HOUSING FEMALE           CCN000001600000001600FN00000000020220601000001600NNM   20220404121510    2F0F  00000160000000801600001021632D9    UEHESTO 005500360039
BI00B32D9    #I22607        202206027189-3032-30             HOUSING FEMALE           CCN000001600000001600FN00000000020220601000001600NNM   20220404121510    2F0F  00000160000000801600001021632D9    UEHESTO 005500360039
BI00B32D9    #I22306        202205127189-3033                HOUSING FEMALE           CCN000001600000001600FN00000000020220601000001600NNM   20220404121510    2F0F  00000160000001211200001431232D9    UEHESTO 005500360039
BI00B32D9    #I22406        202205197189-3033                HOUSING FEMALE           CCN000001600000001600FN00000000020220601000001600NNM   20220404121510    2F0F  00000160000001211200001431232D9    UEHESTO 005500360039
BI00B32D9    #I22507        202205267189-3033                HOUSING FEMALE           CCN000001600000001600FN00000000020220601000001600NNM   20220404121510    2F0F  00000160000001211200001431232D9    UEHESTO 005500360039
BI00B32D9    #I22607        202206027189-3033                HOUSING FEMALE           CCN000001600000001600FN00000000020220601000001600NNM   20220404121510    2F0F  00000160000001211200001431232D9    UEHESTO 005500360039
BI00B32D9    #I22607        202206027189-3034-30             HOUSING FEMALE           CCN000001600000001600FN00000000020220601000001600NNM   20220404121510    2F0F  00000160000000972800001192832D9    UEHESTO 005500360039
BI00B32D9    #I22406        202205197189-3036                HOUSING FEMALE           CCN000001600000001600FN00000000020220601000001600NNM   20220404121510    2F0F  00000160000000921600001141632D9    UEHESTO 005500360039
BI00B32D9    #I22507        202205267189-9516-40             HOUSING                  CCN000002000000002000FN00000000020220601000002000NNM   20220404121510    2F0F  00000200000000578800000685832D9    UEHESTO 005400370024
BI00B32D9    #I22507        202205267189-9517                HOUSING                  CCN000002000000002000FN00000000020220601000002000NNM   20220404121510    2F0F  00000200000000576600000683632D9    UEHESTO 005400370024
BI00B32D9    #I22507        202205267189-9518-30             HOUSING                  CCN000002000000002000FN00000000020220601000002000NNM   20220404121510    2F0F  00000200000000583600000690632D9    UEHESTO 005400370024
BI00B32D9    #I22507        202205267189-9519-80             HOUSING                  CCN000002000000002000FN00000000020220601000002000NNM   20220404121510    2F0F  00000200000000579400000686432D9    UEHESTO 005400370024
BI00B32D9    #I22507        202205267189-9520-10             HOUSING                  CCN000002000000002000FN00000000020220601000002000NNM   20220404121510    2F0F  00000200000000578400000685432D9    UEHESTO 005400370024
BI00B32D9    #I22507        202205267189-9521                HOUSING                  CCN000002000000002000FN00000000020220601000002000NNM   20220404121510    2F0F  00000200000000754400000861432D9    UEHESTO 005400370024
BI00B32D9    #I22507        202205267189-9522-90             HOUSING                  CCN000002000000002000FN00000000020220601000002000NNM   20220404121510    2F0F  00000200000000753200000860232D9    UEHESTO 005400370024
BI00B32D9    #I22406        202205197283-1065                CONNECTOR                CCN000002500000002500FN00000000020220601000002500NNM   20220404121510    2N0N  00000250000001152500001310432D9    UEHESTO 005500360039
BI00B32D9    #I22306        202205127283-1485                CONNECTOR                CCN000004000000004000FN00000000020220601000004000NNM   20220404121510    2N0N  00000200000001160000001340732D9    UEHESTO 005500360039
BI00B32D9    #I22406        202205197283-1485                CONNECTOR                CCN000004000000004000FN00000000020220601000004000NNM   20220404121510    2N0N  00000200000001160000001340732D9    UEHESTO 005500360039
BI00B32D9    #I22507        202205267283-1485                CONNECTOR                CCN000004000000004000FN00000000020220601000004000NNM   20220404121510    2N0N  00000200000001160000001340732D9    UEHESTO 005500360039
BI00B32D9    #I22607        202206027283-1485                CONNECTOR                CCN000004000000004000FN00000000020220601000004000NNM   20220404121510    2N0N  00000200000001160000001340732D9    UEHESTO 005500360039
BI00B32D9    #I22306        202205127283-5831                CONNECTOR                CCN000003000000003000FN00000000020220601000003000NNM   20220404121510    2N0N  00000300000000750000000880032D9    UEHESTO 005400370024
BI00B32D9    #I22406        202205197283-5834                CONNECTOR ASS'Y          CCN000003240000003240FN00000000020220601000003240NNM   20220404121510    2N0N  00000324000001296000001849732D9    UEHESTO 005600390040
BI00B32D9    #I22507        202205267283-5834                CONNECTOR ASS'Y          CCN000003240000003240FN00000000020220601000003240NNM   20220404121510    2N0N  00000324000001296000001849732D9    UEHESTO 005600390040
BI00B32D9    #I22607        202206027283-5834                CONNECTOR ASS'Y          CCN000003240000003240FN00000000020220601000003240NNM   20220404121510    2N0N  00000324000001296000001849732D9    UEHESTO 005600390040
BI00B32D9    #I22406        202205197283-8123                CONNECTOR HOUSING        CCN000004000000004000FN00000000020220601000004000NNM   20220404121510    2N0N  00000400000000380000000531732D9    UEHESTO 005600390023
BI00B32D9    #I22406        202205197283-8123-40             CONNECTOR HOUSING        CCN000004000000004000FN00000000020220601000004000NNM   20220404121510    2N0N  00000400000000380000000530032D9    UEHESTO 005600390023
BI00B32D9    #I22406        202205197283-8226-30             CONNECTOR                CCN000002000000002000FN00000000020220601000002000NNM   20220404121510    2N0N  00000200000000820000001008032D9    UEHESTO 005400370024
BI00B32D9    #I22306        202205127287-7859                HYBRID FEMALE ASS'Y      CCN000000700000001200FN00000000020220601000001200NNM   20220404121510    2N0N  00000120000000461600000671632D9    UEHESTO 005500360039
BI00B32D9    #I22406        202205197287-7859                HYBRID FEMALE ASS'Y      CCN000000700000001200FN00000000020220601000001200NNM   20220404121510    2N0N  00000120000000461600000671632D9    UEHESTO 005500360039
BI00B32D9    #I22507        202205267287-7859                HYBRID FEMALE ASS'Y      CCN000000700000001200FN00000000020220601000001200NNM   20220404121510    2N0N  00000120000000461600000671632D9    UEHESTO 005500360039
BI00B32D9    #I22607        202206027287-7859                HYBRID FEMALE ASS'Y      CCN000000700000001200FN00000000020220601000001200NNM   20220404121510    2N0N  00000120000000461600000671632D9    UEHESTO 005500360039
BI00B32D9    #I22306        202205127287-7860                HYBRID FEMALE ASS'Y      CCN000000300000001200FN00000000020220601000001200NNM   20220404121510    2N0N  00000120000000644000000650432D9    UEHESTO 005500360039
BI00B32D9    #I22406        202205197287-7860                HYBRID FEMALE ASS'Y      CCN000000300000001200FN00000000020220601000001200NNM   20220404121510    2N0N  00000120000000644000000650432D9    UEHESTO 005500360039
BI00B32D9    #I22507        202205267287-7860                HYBRID FEMALE ASS'Y      CCN000000300000001200FN00000000020220601000001200NNM   20220404121510    2N0N  00000120000000644000000650432D9    UEHESTO 005500360039
BI00B32D9    #I22607        202206027287-7860                HYBRID FEMALE ASS'Y      CCN000000300000001200FN00000000020220601000001200NNM   20220404121510    2N0N  00000120000000644000000650432D9    UEHESTO 005500360039
BI00B32D9    #I22607        202206027289-2912-30             HOUSING FEMALE ASS'Y     CCN000002000000002000FN00000000020220601000002000NNM   20220404121510    2N0N  00000200000000804000000929032D9    UEHESTO 005400370024
BI00B32D9    #I22406        202205197289-2912-40             HOUSING FEMALE ASS'Y     CCN000002000000002000FN00000000020220601000002000NNM   20220404121510    2N0N  00000200000000804000000931032D9    UEHESTO 005400370024
BI00B32D9    #I22507        202205267289-2914                HOUSING FEMALE ASS'Y     CCN000001500000001500FN00000000020220601000001500NNM   20220404121510    2N0N  00000150000000906000001033032D9    UEHESTO 005400370024
BI00B32D9    #I22306        202205127289-2915-30             HOUSING FEMALE ASS'Y     CCN000006000000006000FN00000000020220601000006000NNM   20220404121510    2N0N  00000150000000964500001091532D9    UEHESTO 005400370024
BI00B32D9    #I22406        202205197289-2915-30             HOUSING FEMALE ASS'Y     CCN000006000000006000FN00000000020220601000006000NNM   20220404121510    2N0N  00000150000000964500001091532D9    UEHESTO 005400370024
BI00B32D9    #I22507        202205267289-2915-30             HOUSING FEMALE ASS'Y     CCN000006000000006000FN00000000020220601000006000NNM   20220404121510    2N0N  00000150000000964500001091532D9    UEHESTO 005400370024
BI00B32D9    #I22607        202206027289-2915-30             HOUSING FEMALE ASS'Y     CCN000006000000006000FN00000000020220601000006000NNM   20220404121510    2N0N  00000150000000964500001091532D9    UEHESTO 005400370024
BI00B32D9    #I22607        202206027289-2916-30             HOUSING FEMALE ASS'Y     CCN000001000000001000FN00000000020220601000001000NNM   20220404121510    2N0N  00000100000000857000001084032D9    UEHESTO 005400370024
BI00B32D9    #I22306        202205127289-2918-40             HOUSING FEMALE ASS'Y     CCN000009000000009000FN00000000020220601000009000NNM   20220404121510    2N0N  00000100000001020000001147032D9    UEHESTO 005400370024
BI00B32D9    #I22406        202205197289-2918-40             HOUSING FEMALE ASS'Y     CCN000009000000009000FN00000000020220601000009000NNM   20220404121510    2N0N  00000100000001020000001147032D9    UEHESTO 005400370024
BI00B32D9    #I22507        202205267289-2918-40             HOUSING FEMALE ASS'Y     CCN000009000000009000FN00000000020220601000009000NNM   20220404121510    2N0N  00000100000001020000001147032D9    UEHESTO 005400370024
BI00B32D9    #I22607        202206027289-2918-40             HOUSING FEMALE ASS'Y     CCN000009000000009000FN00000000020220601000009000NNM   20220404121510    2N0N  00000100000001020000001147032D9    UEHESTO 005400370024
BI00B32D9    #I22507        202205267289-3622-30             HOUSING FEMALE ASS'Y     CCN000000432000000432FN00000000020220601000000432NNM   20220404121510    2N0N  00000043200000839400001038432D9    UEHESTO 005400370024
BI00B32D9    @I22607        202206027287-4098                CONNECTOR FEMALE         CCN000002400000002400FN00000000020220601000002400NNM   20220404121510    3N0N  00000240000000668600000908032D9    UEHESTO 005500360039
BI00B32D9    @I22406        202205197287-6634                HOUSING FEMALE ASS'Y     CCN000002400000002400FN00000000020220601000002400NNM   20220404121510    3N0N  00000240000001088400001337032D9    UEHESTO 005500360039
BI00B32D9    @I22607        202206027287-6634                HOUSING FEMALE ASS'Y     CCN000002400000002400FN00000000020220601000002400NNM   20220404121510    3N0N  00000240000001088400001337032D9    UEHESTO 005500360039
BI00B32EJ    T220126P01     202204217158-3169-40             SEALING PLUG             CCN000480000000480000FN00000000020220301000480000NNED0320220404143829EJ  1C0C  00004000000000156000000204132EJ    EJYKBO  004300260014
BI00B32EJ    T220221P02     202204217158-3169-40             SEALING PLUG             CCN000120000000120000FN00000000020220401000120000NNED0320220404143854EJ  1C0C  00004000000000156000000204132EJ    EJYKBO  004300260014
BI00B32EJ    T220223P01     202204217158-3169-40             SEALING PLUG             CCN000280000000280000FN00000000020220301000280000NNED0320220404143919EJ  1C0C  00004000000000156000000204132EJ    EJYKBO  004300260014
BI00A32EJ    T220304P01     202204067283-1968-30             CONNECTOR                CCN000000900000000900FN00000000020220401000000900NNEM0020220404121510EJ  1N0N  00000090000001140000001318332EJ    EJYKBO  005600390040
BI00B32EJ    T220304P01     202204217158-3169-40             SEALING PLUG             CCN000280000000280000FN00000000020220401000280000NNED0320220404143946EJ  1C0C  00004000000000156000000204132EJ    EJYKBO  004300260014
BI00A32EJ    T220317P02     202204067283-1968-30             CONNECTOR                CCN000001800000001800FN00000000020220401000001800NNEM0020220404121510EJ  1N0N  00000090000001140000001318332EJ    EJYKBO  005600390040
BI00A32EJ    T220317P02     202204067158-3167-61             WIRE SEAL                CCN000020000000020000FN00000000020220401000020000NNEM0020220404121510EJ  1C0C  00002000000000048000000096432EJ    EJYKBO  004300270014
BI00B32EJ    T220318P01     202204217158-3169-40             SEALING PLUG             CCN000160000000160000FN00000000020220401000160000NNED0320220404144007EJ  1C0C  00004000000000156000000204132EJ    EJYKBO  004300260014
BI00B32EJ    T220401P01     202204287158-3166-60             WIRE SEAL                CCN000040000000040000FN00000000020220401000040000NNE   20220404121510EJ  1C0C  00004000000000104000000152432EJ    EJYKBO  002700430014
BI00B32EJ    T220401P01     202204287116-4022                TERMINAL                 CCN000027000000027000FN00000000020220401000027000NNE   20220404121510EJ  4P0P  00001350000000618300000903532EJ    EJYKBO  006400630015
BI00B32EJ    T220401P01     202204287116-4100-02             TERMINAL                 CCN000030000000030000FN00000000020220401000030000NNE   20220404121510EJ  4P0P  00001500000000696000000990232EJ    EJYKBO  006400630015
BI00B32EJ    T220401P01     202204287116-4102-02             TERMINAL                 CCN000048000000048000FN00000000020220401000048000NNE   20220404121510EJ  4P0P  00001200000000553200000841432EJ    EJYKBO  006400630015
BI00B32EJ    T220401P01     202204287116-4104-02             TERMINAL                 CCN000024000000024000FN00000000020220401000024000NNE   20220404121510EJ  4P0P  00001200000000580800000972432EJ    EJYKBO  006400630015
BI00B32EJ    T220401P01     202204287116-4120-02             TERMINAL                 CCN000030000000030000FN00000000020220401000030000NNE   20220404121510EJ  4P0P  00000600000000780000001073632EJ    EJYKBO  006400630015
BI00B32EJ    T220401P01     202204287116-5045-02             TERMINAL                 CCN000016000000016000FN00000000020220401000016000NNE   20220404121510EJ  4P0P  00001600000000678400001007132EJ    EJYKBO  006400630017
BI00B32EJ    T220401P01     202204287116-5751-02             TERMINAL                 CCN000012000000012000FN00000000020220401000012000NNE   20220404121510EJ  4P0P  00001200000000379200000664432EJ    EJYKBO  006400630015
BI00B32EJ    T220401P01     202204287283-1020                CONNECTOR                CCN000036000000036000FN00000000020220401000036000NNE   20220404121510EJ  4N0N  00000600000000840000001049332EJ    EJYKBO  005600390040
BI00B32EJ    T220401P01     202204287283-7028-30             CONNECTOR                CCN000003000000003000FN00000000020220401000003000NNE   20220404121510EJ  4N0N  00000300000001452000001681332EJ    EJYKBO  005600390040
BI00B32EJ    #T220401P01    202204287157-3821                RUBBER STOPPER           CCN000040000000040000FN00000000020220401000040000NNE   20220404121510EJ  2C0C  00002000000000176000000238032EJ    EJYKBO  002700430014
BI00B32EJ    #T220401P01    202204287158-3120-90             CONNECTOR WIRE SEAL      CCN000020000000020000FN00000000020220401000020000NNE   20220404121510EJ  2C0C  00002000000000136000000194032EJ    EJYKBO  002700430014
BI00B32G9    TY22061TMW     202205067289-3342-30             HOUSING FEMALE ASS'Y     CCN000002400000002400FN00000000020220601000002400NNMD0420220404121510    1N0N  00000240000000686400000901432G9    TYTYC   005500360039
BI00B32G9    TY22062TMW     202205137289-3342-30             HOUSING FEMALE ASS'Y     CCN000002400000002400FN00000000020220601000002400NNMD0420220404121510    1N0N  00000240000000686400000901432G9    TYTYC   005500360039
BI00A32H2    TIJ202T        202204057289-3342-30             HOUSING FEMALE ASS'Y     PCN000120000000120000FY00012000020220201000000000NNED0420220404161905    1N0N  00000240000000686400000901432H2    HVYHV   005500360039
BI00B32H2    #TIJ2051       202204047286-7860                HOUSING MALE ASS'Y       CCN000020000000020000FY00002000020220501000000000NNM00020220404161905    2N0N  00000080000000951700001139832H2    HVYHV   005400370024
BI00B32H2    #TIJ2051       202204087286-7860                HOUSING MALE ASS'Y       CCN000028000000028000FN00000000020220501000028000NNMD0020220404161905    2N0N  00000080000000951700001139832H2    HVYHV   005400370024
BI00A32H2    TIJ205N        202206107283-4855                CONNECTOR HOUSING        CCN000009600000009600FN00000000020220501000009600NNED0420220404121510    4N0N  00000240000001188400001400032H2    HVYHV   005500360039
BI00B32H2    TIJ2061        202205277289-3342                HOUSING FEMALE ASS'Y     CCN000009600000009600FN00000000020220601000009600NNMD0420220404121510    1N0N  00000240000000686400000901432H2    HVYHV   005500360039
BI00B32H2    TIJ2062        202206027289-3342                HOUSING FEMALE ASS'Y     CCN000012000000012000FN00000000020220601000012000NNMD0420220404121510    1N0N  00000240000000686400000901432H2    HVYHV   005500360039
BI00B32H2    TIJ2063        202206107289-3342                HOUSING FEMALE ASS'Y     CCN000016800000016800FN00000000020220601000016800NNMD0420220404121510    1N0N  00000240000000686400000901432H2    HVYHV   005500360039
BI00B32H2    TIJ2064        202206177289-3342                HOUSING FEMALE ASS'Y     CCN000016800000016800FN00000000020220601000016800NNMD0420220404121510    1N0N  00000240000000686400000901432H2    HVYHV   005500360039
BI00B32H2    TIJ2061        202205207289-3342-90             HOUSING FEMALE ASS'Y     CCN000012000000012000FN00000000020220601000012000NNMD0420220404121510    1N0N  00000240000000686400000901432H2    HVYHV   005500360039
BI00B32H2    TIJ2063        202205277289-3342-90             HOUSING FEMALE ASS'Y     CCN000012000000012000FN00000000020220601000012000NNMD0420220404121510    1N0N  00000240000000686400000901432H2    HVYHV   005500360039
BI00B32H2    TIJ2064        202206027289-3342-90             HOUSING FEMALE ASS'Y     CCN000012000000012000FN00000000020220601000012000NNMD0420220404121510    1N0N  00000240000000686400000901432H2    HVYHV   005500360039
BI00T32H2    @TIJ2062-I     202206167183-2510                HOUSING                  CCN000003000000003000FN00000000020220601000003000NNM   20220404153826    3F0F  00000300000001063500001159032H2    HVYHV   005400370024
BI00T32H2    @TIJ2063-I     202206237183-2510                HOUSING                  CCN000003000000003000FN00000000020220601000003000NNM   20220404153826    3F0F  00000300000001063500001159032H2    HVYHV   005400370024
BI00T32H2    @TIJ2064-I     202206307183-2510                HOUSING                  CCN000003000000003000FN00000000020220601000003000NNM   20220404153826    3F0F  00000300000001063500001159032H2    HVYHV   005400370024
BI00T32H2    @TIJ2061-I     202206097187-1769                HOUSING FEMALE           CCN000002000000002000FN00000000020220601000002000NNM   20220404153826    3F0F  00000200000001035800001182032H2    HVYHV   005500360039
BI00T32H2    @TIJ2062-I     202206167282-1025                HOUSING SUB ASSEMBLY     CCN000002400000002400FN00000000020220601000002400NNM   20220404153826    3N0N  00000240000001143800001390032H2    HVYHV   005500360039
BI00T32H2    @TIJ2062-I     202206167282-1060                HOUSING SUB ASSEMBLY     CCN000001600000001600FN00000000020220601000001600NNM   20220404153826    3N0N  00000160000000955500001169032H2    HVYHV   005500360039
BI00T32H2    @TIJ2062-I     202206167282-1064                CONNECTOR ASS'Y          CCN000004000000004000FN00000000020220601000004000NNM   20220404153826    3N0N  00000080000000907200001132432H2    HVYHV   005500360039
BI00T32H2    @TIJ2063-I     202206237282-1064                CONNECTOR ASS'Y          CCN000004000000004000FN00000000020220601000004000NNM   20220404153826    3N0N  00000080000000907200001132432H2    HVYHV   005500360039
BI00T32H2    @TIJ2064-I     202206307282-1064                CONNECTOR ASS'Y          CCN000001600000001600FN00000000020220601000001600NNM   20220404153826    3N0N  00000080000000907200001132432H2    HVYHV   005500360039
BI00T32H2    @TIJ2062-I     202206167282-1148                CONNECTOR ASS'Y          CCN000002400000002400FN00000000020220601000002400NNM   20220404153826    3N0N  00000080000001165300001404032H2    HVYHV   005500360039
BI00T32H2    @TIJ2063-I     202206237282-1148                CONNECTOR ASS'Y          CCN000003200000003200FN00000000020220601000003200NNM   20220404153826    3N0N  00000080000001165300001404032H2    HVYHV   005500360039
BI00T32H2    @TIJ2064-I     202206307282-1148                CONNECTOR ASS'Y          CCN000003200000003200FN00000000020220601000003200NNM   20220404153826    3N0N  00000080000001165300001404032H2    HVYHV   005500360039
BI00T32H2    @TIJ2062-I     202206167282-1148-40             CONNECTOR ASS'Y          CCN000002400000002400FN00000000020220601000002400NNM   20220404153826    3N0N  00000080000001171200001402032H2    HVYHV   005500360039
BI00T32H2    @TIJ2063-I     202206237282-1148-40             CONNECTOR ASS'Y          CCN000003200000003200FN00000000020220601000003200NNM   20220404153826    3N0N  00000080000001171200001402032H2    HVYHV   005500360039
BI00T32H2    @TIJ2064-I     202206307282-1148-40             CONNECTOR ASS'Y          CCN000003200000003200FN00000000020220601000003200NNM   20220404153826    3N0N  00000080000001171200001402032H2    HVYHV   005500360039
BI00T32H2    @TIJ2061-I     202206097283-1556                CONNECTOR ASS'Y          CCN000012000000012000FN00000000020220601000012000NNM   20220404153826    3N0N  00000240000000755000001014032H2    HVYHV   005500360039
