BI00B1200    2399T52115     202205057288-6547                CONNECTOR MALE ASS'Y     CCN000173250000173250FN00000000020220301000173250NNMM0020220425121530    4N0N  0000007500000120530000134031200    YCYC    005400370024
BI00B1200    2399T52116     202205057288-6547                CONNECTOR MALE ASS'Y     CCN000173250000173250FN00000000020220301000173250NNMM0020220425121530    4N0N  0000007500000120530000134031200    YCYC    005400370024
BI00B1200    Y12D2001D      202205127288-3329-30             HOUSING MALE             CCN000001500000001500FN00000000020220501000001500NNE   20220425121530    4N0N  0000015000000086610000101111200    YCYC    005400370024
BI00B1200    H722G50012     202206307289-9553-30             SEALED ASSY FEMALE       CCN000082320000082320FN00000000020220701000082320NNE   20220425121530    4N0N  0000029400000110900000152151200    YCYC    005500360039
BI00B1200    H722G50013     202206307289-9553-30             SEALED ASSY FEMALE       CCN000082320000082320FN00000000020220701000082320NNE   20220425121530    4N0N  0000029400000110900000152151200    YCYC    005500360039
BI00B1200    H722G50014     202206307289-9553-30             SEALED ASSY FEMALE       CCN000082320000082320FN00000000020220701000082320NNE   20220425121530    4N0N  0000029400000110900000152151200    YCYC    005500360039
BI00B1200    H722G50016     202206307297-1861-30             HOUSING MALE ASS'Y       CCN000009000000009000FN00000000020220701000009000NNE   20220425121530    4N0N  0000015000000070220000082731200    YCYC    005400370024
BI00B1200    H722G50017     202206307297-1861-30             HOUSING MALE ASS'Y       CCN000009000000009000FN00000000020220701000009000NNE   20220425121530    4N0N  0000015000000070220000082731200    YCYC    005400370024
BI00B1200    H722G50018     202206307297-1861-30             HOUSING MALE ASS'Y       CCN000009000000009000FN00000000020220701000009000NNE   20220425121530    4N0N  0000015000000070220000082731200    YCYC    005400370024
BI00B1200    H722G50019     202206307297-1861-30             HOUSING MALE ASS'Y       CCN000009000000009000FN00000000020220701000009000NNE   20220425121530    4N0N  0000015000000070220000082731200    YCYC    005400370024
BI00B1200    H722G50020     202206307297-1861-30             HOUSING MALE ASS'Y       CCN000009000000009000FN00000000020220701000009000NNE   20220425121530    4N0N  0000015000000070220000082731200    YCYC    005400370024
BI00B1200    H722G50021     202206307297-1861-30             HOUSING MALE ASS'Y       CCN000009000000009000FN00000000020220701000009000NNE   20220425121530    4N0N  0000015000000070220000082731200    YCYC    005400370024
BI00A1200    40ER001        202205127195-0546-08             TERMINAL MALE            CCN000025500000025500FN00000000020220501000025500NNE   20220425135333    4P0P  0000255000000000000000000001200    YCYC    000000000000
BI00B32AF    JTB2071        202206107017-1180-02             TERMINAL                 CCN000216000000216000FN00000000020220701000216000NNM   20220425142556    4P0P  00007200000001065600001229032AF    HBYHVTB 005100280028
BI00B32AF    JTB2072        202206177017-1180-02             TERMINAL                 CCN000216000000216000FN00000000020220701000216000NNM   20220425142556    4P0P  00007200000001065600001229032AF    HBYHVTB 005100280028
BI00B32AF    JTB2073        202206247017-1180-02             TERMINAL                 CCN000432000000432000FN00000000020220701000432000NNM   20220425142556    4P0P  00007200000001065600001229032AF    HBYHVTB 005100280028
BI00B32AF    JTB2074        202207017017-1180-02             TERMINAL                 CCN000432000000432000FN00000000020220701000432000NNM   20220425142556    4P0P  00007200000001065600001229032AF    HBYHVTB 005100280028
BI00B32AF    JTB2075        202207087017-1180-02             TERMINAL                 CCN000216000000216000FN00000000020220701000216000NNM   20220425142556    4P0P  00007200000001065600001229032AF    HBYHVTB 005100280028
BI00B32AF    JTB2072        202206177017-1181-02             TERMINAL                 CCN000063000000063000FN00000000020220701000063000NNM   20220425142556    4P0P  00006300000001089900001266832AF    HBYHVTB 005100280028
BI00B32AF    JTB2073        202206247017-1181-02             TERMINAL                 CCN000063000000063000FN00000000020220701000063000NNM   20220425142556    4P0P  00006300000001089900001266832AF    HBYHVTB 005100280028
BI00B32AF    JTB2071        202206107017-1182-02             TERMINAL                 CCN000180000000180000FN00000000020220701000180000NNM   20220425142556    4P0P  00004500000001165500001318632AF    HBYHVTB 005100280028
BI00B32AF    JTB2072        202206177017-1182-02             TERMINAL                 CCN000135000000135000FN00000000020220701000135000NNM   20220425142556    4P0P  00004500000001165500001318632AF    HBYHVTB 005100280028
BI00B32AF    JTB2073        202206247017-1182-02             TERMINAL                 CCN000090000000090000FN00000000020220701000090000NNM   20220425142556    4P0P  00004500000001165500001318632AF    HBYHVTB 005100280028
BI00B32AF    JTB2074        202207017017-1182-02             TERMINAL                 CCN000135000000135000FN00000000020220701000135000NNM   20220425142556    4P0P  00004500000001165500001318632AF    HBYHVTB 005100280028
BI00B32AF    JTB2075        202207087017-1182-02             TERMINAL                 CCN000180000000180000FN00000000020220701000180000NNM   20220425142556    4P0P  00004500000001165500001318632AF    HBYHVTB 005100280028
BI00B32AF    JTB2071        202206107017-1183-02             TERMINAL                 CCN000027000000027000FN00000000020220701000027000NNM   20220425142556    4P0P  00002700000001139400001307432AF    HBYHVTB 005100280028
BI00B32AF    JTB2072        202206177017-1183-02             TERMINAL                 CCN000027000000027000FN00000000020220701000027000NNM   20220425142556    4P0P  00002700000001139400001307432AF    HBYHVTB 005100280028
BI00B32AF    JTB2073        202206247017-1183-02             TERMINAL                 CCN000054000000054000FN00000000020220701000054000NNM   20220425142556    4P0P  00002700000001139400001307432AF    HBYHVTB 005100280028
BI00B32AF    JTB2074        202207017017-1183-02             TERMINAL                 CCN000054000000054000FN00000000020220701000054000NNM   20220425142556    4P0P  00002700000001139400001307432AF    HBYHVTB 005100280028
BI00B32AF    JTB2075        202207087017-1183-02             TERMINAL                 CCN000054000000054000FN00000000020220701000054000NNM   20220425142556    4P0P  00002700000001139400001307432AF    HBYHVTB 005100280028
BI00B32AF    JTB2071        202206107114-1670-02             TERMINAL                 CCN000024000000024000FN00000000020220701000024000NNM   20220425142556    1P0P  00002400000000357600000645832AF    HBYHVTB 006400630015
BI00B32AF    JTB2072        202206177114-1670-02             TERMINAL                 CCN000024000000024000FN00000000020220701000024000NNM   20220425142556    1P0P  00002400000000357600000645832AF    HBYHVTB 006400630015
BI00B32AF    JTB2073        202206247114-1670-02             TERMINAL                 CCN000024000000024000FN00000000020220701000024000NNM   20220425142556    1P0P  00002400000000357600000645832AF    HBYHVTB 006400630015
BI00B32AF    JTB2074        202207017114-1670-02             TERMINAL                 CCN000024000000024000FN00000000020220701000024000NNM   20220425142556    1P0P  00002400000000357600000645832AF    HBYHVTB 006400630015
BI00B32AF    JTB2071        202206107114-4020                TERMINAL                 CCN000105000000105000FN00000000020220701000105000NNM   20220425142556    4P0P  00002100000000875700001169332AF    HBYHVTB 006400630015
BI00B32AF    JTB2072        202206177114-4020                TERMINAL                 CCN000105000000105000FN00000000020220701000105000NNM   20220425142556    4P0P  00002100000000875700001169332AF    HBYHVTB 006400630015
BI00B32AF    JTB2073        202206247114-4020                TERMINAL                 CCN000126000000126000FN00000000020220701000126000NNM   20220425142556    4P0P  00002100000000875700001169332AF    HBYHVTB 006400630015
BI00B32AF    JTB2074        202207017114-4020                TERMINAL                 CCN000105000000105000FN00000000020220701000105000NNM   20220425142556    4P0P  00002100000000875700001169332AF    HBYHVTB 006400630015
BI00B32AF    JTB2075        202207087114-4020                TERMINAL                 CCN000063000000063000FN00000000020220701000063000NNM   20220425142556    4P0P  00002100000000875700001169332AF    HBYHVTB 006400630015
BI00B32AF    JTB2071        202206107114-4021                TERMINAL                 CCN000045000000045000FN00000000020220701000045000NNM   20220425142556    4P0P  00001500000000670500000964132AF    HBYHVTB 006400630015
BI00B32AF    JTB2072        202206177114-4021                TERMINAL                 CCN000030000000030000FN00000000020220701000030000NNM   20220425142556    4P0P  00001500000000670500000964132AF    HBYHVTB 006400630015
BI00B32AF    JTB2073        202206247114-4021                TERMINAL                 CCN000030000000030000FN00000000020220701000030000NNM   20220425142556    4P0P  00001500000000670500000964132AF    HBYHVTB 006400630015
BI00B32AF    JTB2074        202207017114-4021                TERMINAL                 CCN000015000000015000FN00000000020220701000015000NNM   20220425142556    4P0P  00001500000000670500000964132AF    HBYHVTB 006400630015
BI00B32AF    JTB2075        202207087114-4021                TERMINAL                 CCN000015000000015000FN00000000020220701000015000NNM   20220425142556    4P0P  00001500000000670500000964132AF    HBYHVTB 006400630015
BI00B32AF    JTB2073        202206247114-4030                TERMINAL                 CCN000010500000010500FN00000000020220701000010500NNM   20220425142556    4P0P  00001050000000926100001254732AF    HBYHVTB 006400630017
BI00B32AF    JTB2071        202206107114-4031                TERMINAL                 CCN000021000000021000FN00000000020220701000021000NNM   20220425142556    4P0P  00001050000000966000001294632AF    HBYHVTB 006400630017
BI00B32AF    JTB2072        202206177114-4031                TERMINAL                 CCN000042000000042000FN00000000020220701000042000NNM   20220425142556    4P0P  00001050000000966000001294632AF    HBYHVTB 006400630017
BI00B32AF    JTB2073        202206247114-4031                TERMINAL                 CCN000042000000042000FN00000000020220701000042000NNM   20220425142556    4P0P  00001050000000966000001294632AF    HBYHVTB 006400630017
BI00B32AF    JTB2074        202207017114-4031                TERMINAL                 CCN000031500000031500FN00000000020220701000031500NNM   20220425142556    4P0P  00001050000000966000001294632AF    HBYHVTB 006400630017
BI00B32AF    JTB2075        202207087114-4031                TERMINAL                 CCN000021000000021000FN00000000020220701000021000NNM   20220425142556    4P0P  00001050000000966000001294632AF    HBYHVTB 006400630017
BI00B32AF    JTB2071        202206107114-4032                TERMINAL                 CCN000037500000037500FN00000000020220701000037500NNM   20220425142556    4P0P  00000750000000735000001063632AF    HBYHVTB 006400630017
BI00B32AF    JTB2072        202206177114-4032                TERMINAL                 CCN000097500000097500FN00000000020220701000097500NNM   20220425142556    4P0P  00000750000000735000001063632AF    HBYHVTB 006400630017
BI00B32AF    JTB2073        202206247114-4032                TERMINAL                 CCN000105000000105000FN00000000020220701000105000NNM   20220425142556    4P0P  00000750000000735000001063632AF    HBYHVTB 006400630017
BI00B32AF    JTB2074        202207017114-4032                TERMINAL                 CCN000082500000082500FN00000000020220701000082500NNM   20220425142556    4P0P  00000750000000735000001063632AF    HBYHVTB 006400630017
BI00B32AF    JTB2075        202207087114-4032                TERMINAL                 CCN000090000000090000FN00000000020220701000090000NNM   20220425142556    4P0P  00000750000000735000001063632AF    HBYHVTB 006400630017
BI00B32AF    JTB2071        202206107114-4231-02             TERMINAL                 CCN000216000000216000FN00000000020220701000216000NNM   20220425142556    4P0P  00001800000000554400000848032AF    HBYHVTB 006400630015
BI00B32AF    JTB2072        202206177114-4231-02             TERMINAL                 CCN000270000000270000FN00000000020220701000270000NNM   20220425142556    4P0P  00001800000000554400000848032AF    HBYHVTB 006400630015
BI00B32AF    JTB2073        202206247114-4231-02             TERMINAL                 CCN000270000000270000FN00000000020220701000270000NNM   20220425142556    4P0P  00001800000000554400000848032AF    HBYHVTB 006400630015
BI00B32AF    JTB2074        202207017114-4231-02             TERMINAL                 CCN000270000000270000FN00000000020220701000270000NNM   20220425142556    4P0P  00001800000000554400000848032AF    HBYHVTB 006400630015
BI00B32AF    JTB2075        202207087114-4231-02             TERMINAL                 CCN000144000000144000FN00000000020220701000144000NNM   20220425142556    4P0P  00001800000000554400000848032AF    HBYHVTB 006400630015
BI00B32AF    JTB2071        202206107114-4624-02             TERMINAL                 CCN000024000000024000FN00000000020220701000024000NNM   20220425142556    4P0P  00002400000000895200001188832AF    HBYHVTB 006400630015
BI00B32AF    JTB2073        202206247114-4624-02             TERMINAL                 CCN000024000000024000FN00000000020220701000024000NNM   20220425142556    4P0P  00002400000000895200001188832AF    HBYHVTB 006400630015
BI00B32AF    JTB2071        202206107114-4728-02             TERMINAL                 CCN000600000000600000FN00000000020220701000600000NNM   20220425142556    4P0P  00003000000000510000000804232AF    HBYHVTB 006400630015
BI00B32AF    JTB2072        202206177114-4728-02             TERMINAL                 CCN000360000000360000FN00000000020220701000360000NNM   20220425142556    4P0P  00003000000000510000000804232AF    HBYHVTB 006400630015
BI00B32AF    JTB2073        202206247114-4728-02             TERMINAL                 CCN000360000000360000FN00000000020220701000360000NNM   20220425142556    4P0P  00003000000000510000000804232AF    HBYHVTB 006400630015
BI00B32AF    JTB2074        202207017114-4728-02             TERMINAL                 CCN000540000000540000FN00000000020220701000540000NNM   20220425142556    4P0P  00003000000000510000000804232AF    HBYHVTB 006400630015
BI00B32AF    JTB2075        202207087114-4728-02             TERMINAL                 CCN000510000000510000FN00000000020220701000510000NNM   20220425142556    4P0P  00003000000000510000000804232AF    HBYHVTB 006400630015
BI00B32AF    JTB2071        202206107114-4728-08             TERMINAL                 CCN000030000000030000FN00000000020220701000030000NNM   20220425142556    4P0P  00003000000000507000000801232AF    HBYHVTB 006400630015
BI00B32AF    JTB2071        202206107114-4729-02             TERMINAL                 CCN000180000000180000FN00000000020220701000180000NNM   20220425142556    4P0P  00003000000000516000000810232AF    HBYHVTB 006400630015
BI00B32AF    JTB2072        202206177114-4729-02             TERMINAL                 CCN000150000000150000FN00000000020220701000150000NNM   20220425142556    4P0P  00003000000000516000000810232AF    HBYHVTB 006400630015
BI00B32AF    JTB2073        202206247114-4729-02             TERMINAL                 CCN000120000000120000FN00000000020220701000120000NNM   20220425142556    4P0P  00003000000000516000000810232AF    HBYHVTB 006400630015
BI00B32AF    JTB2074        202207017114-4729-02             TERMINAL                 CCN000180000000180000FN00000000020220701000180000NNM   20220425142556    4P0P  00003000000000516000000810232AF    HBYHVTB 006400630015
BI00B32AF    JTB2075        202207087114-4729-02             TERMINAL                 CCN000090000000090000FN00000000020220701000090000NNM   20220425142556    4P0P  00003000000000516000000810232AF    HBYHVTB 006400630015
BI00B32AF    JTB2071        202206107114-5746-02             TERMINAL                 CCN000126000000126000FN00000000020220701000126000NNM   20220425142556    4P0P  00002100000000695100000988732AF    HBYHVTB 006400630015
BI00B32AF    JTB2072        202206177114-5746-02             TERMINAL                 CCN000105000000105000FN00000000020220701000105000NNM   20220425142556    4P0P  00002100000000695100000988732AF    HBYHVTB 006400630015
BI00B32AF    JTB2073        202206247114-5746-02             TERMINAL                 CCN000084000000084000FN00000000020220701000084000NNM   20220425142556    4P0P  00002100000000695100000988732AF    HBYHVTB 006400630015
BI00B32AF    JTB2074        202207017114-5746-02             TERMINAL                 CCN000084000000084000FN00000000020220701000084000NNM   20220425142556    4P0P  00002100000000695100000988732AF    HBYHVTB 006400630015
BI00B32AF    JTB2075        202207087114-5746-02             TERMINAL                 CCN000084000000084000FN00000000020220701000084000NNM   20220425142556    4P0P  00002100000000695100000988732AF    HBYHVTB 006400630015
BI00B32AF    JTB2071        202206107114-5747-02             TERMINAL                 CCN000144000000144000FN00000000020220701000144000NNM   20220425142556    4P0P  00001800000000626400000920032AF    HBYHVTB 006400630015
BI00B32AF    JTB2072        202206177114-5747-02             TERMINAL                 CCN000144000000144000FN00000000020220701000144000NNM   20220425142556    4P0P  00001800000000626400000920032AF    HBYHVTB 006400630015
BI00B32AF    JTB2073        202206247114-5747-02             TERMINAL                 CCN000234000000234000FN00000000020220701000234000NNM   20220425142556    4P0P  00001800000000626400000920032AF    HBYHVTB 006400630015
BI00B32AF    JTB2074        202207017114-5747-02             TERMINAL                 CCN000216000000216000FN00000000020220701000216000NNM   20220425142556    4P0P  00001800000000626400000920032AF    HBYHVTB 006400630015
BI00B32AF    JTB2075        202207087114-5747-02             TERMINAL                 CCN000198000000198000FN00000000020220701000198000NNM   20220425142556    4P0P  00001800000000626400000920032AF    HBYHVTB 006400630015
BI00B32AF    JTB2071        202206107114-5748-02             TERMINAL                 CCN000108000000108000FN00000000020220701000108000NNM   20220425142556    4P0P  00001200000000444000000737632AF    HBYHVTB 006400630015
BI00B32AF    JTB2072        202206177114-5748-02             TERMINAL                 CCN000108000000108000FN00000000020220701000108000NNM   20220425142556    4P0P  00001200000000444000000737632AF    HBYHVTB 006400630015
BI00B32AF    JTB2073        202206247114-5748-02             TERMINAL                 CCN000108000000108000FN00000000020220701000108000NNM   20220425142556    4P0P  00001200000000444000000737632AF    HBYHVTB 006400630015
BI00B32AF    JTB2074        202207017114-5748-02             TERMINAL                 CCN000096000000096000FN00000000020220701000096000NNM   20220425142556    4P0P  00001200000000444000000737632AF    HBYHVTB 006400630015
BI00B32AF    JTB2075        202207087114-5748-02             TERMINAL                 CCN000072000000072000FN00000000020220701000072000NNM   20220425142556    4P0P  00001200000000444000000737632AF    HBYHVTB 006400630015
BI00B32AF    JTB2071        202206107114-5753-02             TERMINAL                 CCN000081000000081000FN00000000020220701000081000NNM   20220425142556    4P0P  00002700000000847800001141432AF    HBYHVTB 006400630015
BI00B32AF    JTB2072        202206177114-5753-02             TERMINAL                 CCN000081000000081000FN00000000020220701000081000NNM   20220425142556    4P0P  00002700000000847800001141432AF    HBYHVTB 006400630015
BI00B32AF    JTB2073        202206247114-5753-02             TERMINAL                 CCN000081000000081000FN00000000020220701000081000NNM   20220425142556    4P0P  00002700000000847800001141432AF    HBYHVTB 006400630015
BI00B32AF    JTB2074        202207017114-5753-02             TERMINAL                 CCN000081000000081000FN00000000020220701000081000NNM   20220425142556    4P0P  00002700000000847800001141432AF    HBYHVTB 006400630015
BI00B32AF    JTB2075        202207087114-5753-02             TERMINAL                 CCN000054000000054000FN00000000020220701000054000NNM   20220425142556    4P0P  00002700000000847800001141432AF    HBYHVTB 006400630015
BI00B32AF    JTB2071        202206107116-1180                TERMINAL                 CCN000019500000019500FN00000000020220701000019500NNM   20220425142556    1P0P  00001950000000618200000903432AF    HBYHVTB 006400630015
BI00B32AF    JTB2072        202206177116-1180                TERMINAL                 CCN000019500000019500FN00000000020220701000019500NNM   20220425142556    1P0P  00001950000000618200000903432AF    HBYHVTB 006400630015
BI00B32AF    JTB2073        202206247116-1180                TERMINAL                 CCN000019500000019500FN00000000020220701000019500NNM   20220425142556    1P0P  00001950000000618200000903432AF    HBYHVTB 006400630015
BI00B32AF    JTB2074        202207017116-1180                TERMINAL                 CCN000019500000019500FN00000000020220701000019500NNM   20220425142556    1P0P  00001950000000618200000903432AF    HBYHVTB 006400630015
BI00B32AF    JTB2075        202207087116-1180                TERMINAL                 CCN000019500000019500FN00000000020220701000019500NNM   20220425142556    1P0P  00001950000000618200000903432AF    HBYHVTB 006400630015
BI00B32AF    JTB2073        202206247116-2891-02             TERMINAL                 CCN000015000000015000FN00000000020220701000015000NNM   20220425142556    4P0P  00001500000000982500001145932AF    HBYHVTB 005100280028
BI00B32AF    JTB2071        202206107116-2892-02             TERMINAL                 CCN000012000000012000FN00000000020220701000012000NNM   20220425142556    4P0P  00001200000000818400000981832AF    HBYHVTB 005100280028
BI00B32AF    JTB2071        202206107116-3153-08             TERMINAL                 CCN000027000000027000FN00000000020220701000027000NNM   20220425142556    4P0P  00002700000000461700000746932AF    HBYHVTB 006400630015
BI00B32AF    JTB2072        202206177116-3153-08             TERMINAL                 CCN000027000000027000FN00000000020220701000027000NNM   20220425142556    4P0P  00002700000000461700000746932AF    HBYHVTB 006400630015
BI00B32AF    JTB2073        202206247116-3153-08             TERMINAL                 CCN000027000000027000FN00000000020220701000027000NNM   20220425142556    4P0P  00002700000000461700000746932AF    HBYHVTB 006400630015
BI00B32AF    JTB2072        202206177116-3154-08             TERMINAL                 CCN000027000000027000FN00000000020220701000027000NNM   20220425142556    4P0P  00002700000000475200000760432AF    HBYHVTB 006400630015
BI00B32AF    JTB2073        202206247116-3154-08             TERMINAL                 CCN000027000000027000FN00000000020220701000027000NNM   20220425142556    4P0P  00002700000000475200000760432AF    HBYHVTB 006400630015
BI00B32AF    JTB2074        202207017116-3154-08             TERMINAL                 CCN000027000000027000FN00000000020220701000027000NNM   20220425142556    4P0P  00002700000000475200000760432AF    HBYHVTB 006400630015
BI00B32AF    JTB2075        202207087116-4020                TERMINAL                 CCN000067500000067500FN00000000020220701000067500NNM   20220425142556    4P0P  00001350000000513000000798232AF    HBYHVTB 006400630015
BI00B32AF    JTB2072        202206177116-4022                TERMINAL                 CCN000013500000013500FN00000000020220701000013500NNM   20220425142556    4P0P  00001350000000618300000903532AF    HBYHVTB 006400630015
BI00B32AF    JTB2071        202206107116-4025                TERMINAL                 CCN000016000000016000FN00000000020220701000016000NNM   20220425142556    4P0P  00001600000000644800000975132AF    HBYHVTB 006400630017
BI00B32AF    JTB2073        202206247116-4025                TERMINAL                 CCN000016000000016000FN00000000020220701000016000NNM   20220425142556    4P0P  00001600000000644800000975132AF    HBYHVTB 006400630017
BI00B32AF    JTB2071        202206107116-4026                TERMINAL                 CCN000016000000016000FN00000000020220701000016000NNM   20220425142556    4P0P  00001600000000664000000994332AF    HBYHVTB 006400630017
BI00B32AF    JTB2072        202206177116-4026                TERMINAL                 CCN000016000000016000FN00000000020220701000016000NNM   20220425142556    4P0P  00001600000000664000000994332AF    HBYHVTB 006400630017
BI00B32AF    JTB2074        202207017116-4026                TERMINAL                 CCN000016000000016000FN00000000020220701000016000NNM   20220425142556    4P0P  00001600000000664000000994332AF    HBYHVTB 006400630017
BI00B32AF    JTB2071        202206107116-4031                TERMINAL                 CCN000022500000022500FN00000000020220701000022500NNM   20220425142556    4P0P  00000750000000619500000904732AF    HBYHVTB 006400630015
BI00B32AF    JTB2072        202206177116-4031                TERMINAL                 CCN000022500000022500FN00000000020220701000022500NNM   20220425142556    4P0P  00000750000000619500000904732AF    HBYHVTB 006400630015
BI00B32AF    JTB2073        202206247116-4031                TERMINAL                 CCN000022500000022500FN00000000020220701000022500NNM   20220425142556    4P0P  00000750000000619500000904732AF    HBYHVTB 006400630015
BI00B32AF    JTB2074        202207017116-4031                TERMINAL                 CCN000015000000015000FN00000000020220701000015000NNM   20220425142556    4P0P  00000750000000619500000904732AF    HBYHVTB 006400630015
BI00B32AF    JTB2075        202207087116-4031                TERMINAL                 CCN000015000000015000FN00000000020220701000015000NNM   20220425142556    4P0P  00000750000000619500000904732AF    HBYHVTB 006400630015
BI00B32AF    JTB2071        202206107116-4032                TERMINAL                 CCN000006000000006000FN00000000020220701000006000NNM   20220425142556    4P0P  00000600000000532800000818032AF    HBYHVTB 006400630015
BI00B32AF    JTB2072        202206177116-4032                TERMINAL                 CCN000012000000012000FN00000000020220701000012000NNM   20220425142556    4P0P  00000600000000532800000818032AF    HBYHVTB 006400630015
BI00B32AF    JTB2073        202206247116-4032                TERMINAL                 CCN000024000000024000FN00000000020220701000024000NNM   20220425142556    4P0P  00000600000000532800000818032AF    HBYHVTB 006400630015
BI00B32AF    JTB2074        202207017116-4032                TERMINAL                 CCN000024000000024000FN00000000020220701000024000NNM   20220425142556    4P0P  00000600000000532800000818032AF    HBYHVTB 006400630015
BI00B32AF    JTB2075        202207087116-4032                TERMINAL                 CCN000012000000012000FN00000000020220701000012000NNM   20220425142556    4P0P  00000600000000532800000818032AF    HBYHVTB 006400630015
BI00B32AF    JTB2071        202206107116-4100-02             TERMINAL                 CCN000015000000015000FN00000000020220701000015000NNM   20220425142556    4P0P  00001500000000696000000990232AF    HBYHVTB 006400630015
BI00B32AF    JTB2072        202206177116-4100-02             TERMINAL                 CCN000030000000030000FN00000000020220701000030000NNM   20220425142556    4P0P  00001500000000696000000990232AF    HBYHVTB 006400630015
BI00B32AF    JTB2073        202206247116-4100-02             TERMINAL                 CCN000015000000015000FN00000000020220701000015000NNM   20220425142556    4P0P  00001500000000696000000990232AF    HBYHVTB 006400630015
BI00B32AF    JTB2074        202207017116-4100-02             TERMINAL                 CCN000015000000015000FN00000000020220701000015000NNM   20220425142556    4P0P  00001500000000696000000990232AF    HBYHVTB 006400630015
BI00B32AF    JTB2075        202207087116-4100-02             TERMINAL                 CCN000015000000015000FN00000000020220701000015000NNM   20220425142556    4P0P  00001500000000696000000990232AF    HBYHVTB 006400630015
BI00B32AF    JTB2072        202206177116-4101-02             TERMINAL                 CCN000012000000012000FN00000000020220701000012000NNM   20220425142556    4P0P  00001200000000582000000876232AF    HBYHVTB 006400630015
BI00B32AF    JTB2073        202206247116-4101-02             TERMINAL                 CCN000012000000012000FN00000000020220701000012000NNM   20220425142556    4P0P  00001200000000582000000876232AF    HBYHVTB 006400630015
BI00B32AF    JTB2074        202207017116-4101-02             TERMINAL                 CCN000012000000012000FN00000000020220701000012000NNM   20220425142556    4P0P  00001200000000582000000876232AF    HBYHVTB 006400630015
BI00B32AF    JTB2074        202207017116-4111-02             TERMINAL                 CCN000007500000007500FN00000000020220701000007500NNM   20220425142556    4P0P  00000750000000529500000817732AF    HBYHVTB 006400630015
BI00B32AF    JTB2075        202207087116-4111-02             TERMINAL                 CCN000007500000007500FN00000000020220701000007500NNM   20220425142556    4P0P  00000750000000529500000817732AF    HBYHVTB 006400630015
BI00B32AF    JTB2071        202206107116-4112-02             TERMINAL                 CCN000006000000006000FN00000000020220701000006000NNM   20220425142556    4P0P  00000600000000450000000738232AF    HBYHVTB 006400630015
BI00B32AF    JTB2072        202206177116-4112-02             TERMINAL                 CCN000006000000006000FN00000000020220701000006000NNM   20220425142556    4P0P  00000600000000450000000738232AF    HBYHVTB 006400630015
BI00B32AF    JTB2073        202206247116-4112-02             TERMINAL                 CCN000012000000012000FN00000000020220701000012000NNM   20220425142556    4P0P  00000600000000450000000738232AF    HBYHVTB 006400630015
BI00B32AF    JTB2074        202207017116-4112-02             TERMINAL                 CCN000012000000012000FN00000000020220701000012000NNM   20220425142556    4P0P  00000600000000450000000738232AF    HBYHVTB 006400630015
BI00B32AF    JTB2071        202206107116-4121-02             TERMINAL                 CCN000004500000004500FN00000000020220701000004500NNM   20220425142556    4P0P  00000450000000618800000912432AF    HBYHVTB 006400630015
BI00B32AF    JTB2072        202206177116-4121-02             TERMINAL                 CCN000013500000013500FN00000000020220701000013500NNM   20220425142556    4P0P  00000450000000618800000912432AF    HBYHVTB 006400630015
BI00B32AF    JTB2073        202206247116-4121-02             TERMINAL                 CCN000013500000013500FN00000000020220701000013500NNM   20220425142556    4P0P  00000450000000618800000912432AF    HBYHVTB 006400630015
BI00B32AF    JTB2074        202207017116-4121-02             TERMINAL                 CCN000009000000009000FN00000000020220701000009000NNM   20220425142556    4P0P  00000450000000618800000912432AF    HBYHVTB 006400630015
BI00B32AF    JTB2075        202207087116-4121-02             TERMINAL                 CCN000013500000013500FN00000000020220701000013500NNM   20220425142556    4P0P  00000450000000618800000912432AF    HBYHVTB 006400630015
BI00B32AF    JTB2071        202206107116-4231-02             TERMINAL                 CCN000234000000234000FN00000000020220701000234000NNM   20220425142556    4P0P  00002600000000683800001012532AF    HBYHVTB 006400630017
BI00B32AF    JTB2072        202206177116-4231-02             TERMINAL                 CCN000182000000182000FN00000000020220701000182000NNM   20220425142556    4P0P  00002600000000683800001012532AF    HBYHVTB 006400630017
BI00B32AF    JTB2073        202206247116-4231-02             TERMINAL                 CCN000260000000260000FN00000000020220701000260000NNM   20220425142556    4P0P  00002600000000683800001012532AF    HBYHVTB 006400630017
BI00B32AF    JTB2074        202207017116-4231-02             TERMINAL                 CCN000234000000234000FN00000000020220701000234000NNM   20220425142556    4P0P  00002600000000683800001012532AF    HBYHVTB 006400630017
BI00B32AF    JTB2075        202207087116-4231-02             TERMINAL                 CCN000260000000260000FN00000000020220701000260000NNM   20220425142556    4P0P  00002600000000683800001012532AF    HBYHVTB 006400630017
BI00B32AF    JTB2071        202206107116-4415-02             TERMINAL                 CCN000152000000152000FN00000000020220701000152000NNM   20220425142556    4P0P  00003800000000596600000925732AF    HBYHVTB 006400630017
BI00B32AF    JTB2072        202206177116-4415-02             TERMINAL                 CCN000114000000114000FN00000000020220701000114000NNM   20220425142556    4P0P  00003800000000596600000925732AF    HBYHVTB 006400630017
BI00B32AF    JTB2073        202206247116-4415-02             TERMINAL                 CCN000114000000114000FN00000000020220701000114000NNM   20220425142556    4P0P  00003800000000596600000925732AF    HBYHVTB 006400630017
BI00B32AF    JTB2074        202207017116-4415-02             TERMINAL                 CCN000076000000076000FN00000000020220701000076000NNM   20220425142556    4P0P  00003800000000596600000925732AF    HBYHVTB 006400630017
BI00B32AF    JTB2075        202207087116-4415-02             TERMINAL                 CCN000114000000114000FN00000000020220701000114000NNM   20220425142556    4P0P  00003800000000596600000925732AF    HBYHVTB 006400630017
BI00B32AF    JTB2071        202206107116-4416-02             TERMINAL                 CCN000064000000064000FN00000000020220701000064000NNM   20220425142556    4P0P  00003200000000518400000847132AF    HBYHVTB 006400630017
BI00B32AF    JTB2072        202206177116-4416-02             TERMINAL                 CCN000032000000032000FN00000000020220701000032000NNM   20220425142556    4P0P  00003200000000518400000847132AF    HBYHVTB 006400630017
BI00B32AF    JTB2073        202206247116-4416-02             TERMINAL                 CCN000064000000064000FN00000000020220701000064000NNM   20220425142556    4P0P  00003200000000518400000847132AF    HBYHVTB 006400630017
BI00B32AF    JTB2074        202207017116-4416-02             TERMINAL                 CCN000032000000032000FN00000000020220701000032000NNM   20220425142556    4P0P  00003200000000518400000847132AF    HBYHVTB 006400630017
BI00B32AF    JTB2075        202207087116-4416-02             TERMINAL                 CCN000032000000032000FN00000000020220701000032000NNM   20220425142556    4P0P  00003200000000518400000847132AF    HBYHVTB 006400630017
BI00B32AF    JTB2071        202206107116-4486-02             TERMINAL                 CCN000448000000448000FN00000000020220701000448000NNM   20220425142556    4P0P  00002800000000666400000995132AF    HBYHVTB 006400630017
BI00B32AF    JTB2072        202206177116-4486-02             TERMINAL                 CCN000532000000532000FN00000000020220701000532000NNM   20220425142556    4P0P  00002800000000666400000995132AF    HBYHVTB 006400630017
BI00B32AF    JTB2073        202206247116-4486-02             TERMINAL                 CCN000532000000532000FN00000000020220701000532000NNM   20220425142556    4P0P  00002800000000666400000995132AF    HBYHVTB 006400630017
BI00B32AF    JTB2074        202207017116-4486-02             TERMINAL                 CCN000280000000280000FN00000000020220701000280000NNM   20220425142556    4P0P  00002800000000666400000995132AF    HBYHVTB 006400630017
BI00B32AF    JTB2075        202207087116-4486-02             TERMINAL                 CCN000280000000280000FN00000000020220701000280000NNM   20220425142556    4P0P  00002800000000666400000995132AF    HBYHVTB 006400630017
BI00B32AF    JTB2071        202206107116-5035-02             TERMINAL                 CCN000030000000030000FN00000000020220701000030000NNM   20220425142556    4P0P  00001500000000543000000828232AF    HBYHVTB 006400630015
BI00B32AF    JTB2072        202206177116-5035-02             TERMINAL                 CCN000030000000030000FN00000000020220701000030000NNM   20220425142556    4P0P  00001500000000543000000828232AF    HBYHVTB 006400630015
BI00B32AF    JTB2073        202206247116-5035-02             TERMINAL                 CCN000015000000015000FN00000000020220701000015000NNM   20220425142556    4P0P  00001500000000543000000828232AF    HBYHVTB 006400630015
BI00B32AF    JTB2074        202207017116-5035-02             TERMINAL                 CCN000015000000015000FN00000000020220701000015000NNM   20220425142556    4P0P  00001500000000543000000828232AF    HBYHVTB 006400630015
BI00B32AF    JTB2072        202206177116-5042-02             TERMINAL                 CCN000175500000175500FN00000000020220701000175500NNM   20220425142556    4P0P  00001350000000560300000845532AF    HBYHVTB 006400630015
BI00B32AF    JTB2073        202206247116-5042-02             TERMINAL                 CCN000202500000202500FN00000000020220701000202500NNM   20220425142556    4P0P  00001350000000560300000845532AF    HBYHVTB 006400630015
BI00B32AF    JTB2074        202207017116-5042-02             TERMINAL                 CCN000202500000202500FN00000000020220701000202500NNM   20220425142556    4P0P  00001350000000560300000845532AF    HBYHVTB 006400630015
BI00B32AF    JTB2075        202207087116-5042-02             TERMINAL                 CCN000216000000216000FN00000000020220701000216000NNM   20220425142556    4P0P  00001350000000560300000845532AF    HBYHVTB 006400630015
BI00B32AF    JTB2071        202206107116-5043-02             TERMINAL FEMALE          CCN000084000000084000FN00000000020220701000084000NNM   20220425142556    4P0P  00001200000000559200000844432AF    HBYHVTB 006400630015
BI00B32AF    JTB2072        202206177116-5043-02             TERMINAL FEMALE          CCN000132000000132000FN00000000020220701000132000NNM   20220425142556    4P0P  00001200000000559200000844432AF    HBYHVTB 006400630015
BI00B32AF    JTB2073        202206247116-5043-02             TERMINAL FEMALE          CCN000144000000144000FN00000000020220701000144000NNM   20220425142556    4P0P  00001200000000559200000844432AF    HBYHVTB 006400630015
BI00B32AF    JTB2074        202207017116-5043-02             TERMINAL FEMALE          CCN000144000000144000FN00000000020220701000144000NNM   20220425142556    4P0P  00001200000000559200000844432AF    HBYHVTB 006400630015
BI00B32AF    JTB2075        202207087116-5043-02             TERMINAL FEMALE          CCN000144000000144000FN00000000020220701000144000NNM   20220425142556    4P0P  00001200000000559200000844432AF    HBYHVTB 006400630015
BI00B32AF    JTB2071        202206107116-5044-02             TERMINAL                 CCN000048000000048000FN00000000020220701000048000NNM   20220425142556    4P0P  00001600000000641600000986332AF    HBYHVTB 006400630017
BI00B32AF    JTB2072        202206177116-5044-02             TERMINAL                 CCN000048000000048000FN00000000020220701000048000NNM   20220425142556    4P0P  00001600000000641600000986332AF    HBYHVTB 006400630017
BI00B32AF    JTB2073        202206247116-5044-02             TERMINAL                 CCN000080000000080000FN00000000020220701000080000NNM   20220425142556    4P0P  00001600000000641600000986332AF    HBYHVTB 006400630017
BI00B32AF    JTB2074        202207017116-5044-02             TERMINAL                 CCN000064000000064000FN00000000020220701000064000NNM   20220425142556    4P0P  00001600000000641600000986332AF    HBYHVTB 006400630017
BI00B32AF    JTB2075        202207087116-5044-02             TERMINAL                 CCN000080000000080000FN00000000020220701000080000NNM   20220425142556    4P0P  00001600000000641600000986332AF    HBYHVTB 006400630017
BI00B32AF    JTB2073        202206247116-5045-02             TERMINAL                 CCN000032000000032000FN00000000020220701000032000NNM   20220425142556    4P0P  00001600000000678400001007132AF    HBYHVTB 006400630017
BI00B32AF    JTB2074        202207017116-5045-02             TERMINAL                 CCN000016000000016000FN00000000020220701000016000NNM   20220425142556    4P0P  00001600000000678400001007132AF    HBYHVTB 006400630017
BI00B32AF    JTB2075        202207087116-5045-02             TERMINAL                 CCN000016000000016000FN00000000020220701000016000NNM   20220425142556    4P0P  00001600000000678400001007132AF    HBYHVTB 006400630017
BI00B32AF    JTB2071        202206107116-5097-02             TERMINAL                 CCN000022500000022500FN00000000020220701000022500NNM   20220425142556    4P0P  00002250000000531000000816232AF    HBYHVTB 006400630015
BI00B32AF    JTB2072        202206177116-5097-02             TERMINAL                 CCN000045000000045000FN00000000020220701000045000NNM   20220425142556    4P0P  00002250000000531000000816232AF    HBYHVTB 006400630015
BI00B32AF    JTB2073        202206247116-5097-02             TERMINAL                 CCN000045000000045000FN00000000020220701000045000NNM   20220425142556    4P0P  00002250000000531000000816232AF    HBYHVTB 006400630015
BI00B32AF    JTB2074        202207017116-5097-02             TERMINAL                 CCN000045000000045000FN00000000020220701000045000NNM   20220425142556    4P0P  00002250000000531000000816232AF    HBYHVTB 006400630015
BI00B32AF    JTB2075        202207087116-5097-02             TERMINAL                 CCN000022500000022500FN00000000020220701000022500NNM   20220425142556    4P0P  00002250000000531000000816232AF    HBYHVTB 006400630015
BI00B32AF    JTB2071        202206107116-5750-02             TERMINAL                 CCN000375000000375000FN00000000020220701000375000NNM   20220425142556    4P0P  00001500000000457500000742732AF    HBYHVTB 006400630015
BI00B32AF    JTB2072        202206177116-5750-02             TERMINAL                 CCN000450000000450000FN00000000020220701000450000NNM   20220425142556    4P0P  00001500000000457500000742732AF    HBYHVTB 006400630015
BI00B32AF    JTB2073        202206247116-5750-02             TERMINAL                 CCN000465000000465000FN00000000020220701000465000NNM   20220425142556    4P0P  00001500000000457500000742732AF    HBYHVTB 006400630015
BI00B32AF    JTB2074        202207017116-5750-02             TERMINAL                 CCN000150000000150000FN00000000020220701000150000NNM   20220425142556    4P0P  00001500000000457500000742732AF    HBYHVTB 006400630015
BI00B32AF    JTB2075        202207087116-5750-02             TERMINAL                 CCN000150000000150000FN00000000020220701000150000NNM   20220425142556    4P0P  00001500000000457500000742732AF    HBYHVTB 006400630015
BI00B32AF    JTB2071        202206107116-5752-02             TERMINAL                 CCN000105000000105000FN00000000020220701000105000NNM   20220425142556    4P0P  00002100000000571200000856432AF    HBYHVTB 006400630015
BI00B32AF    JTB2072        202206177116-5752-02             TERMINAL                 CCN000126000000126000FN00000000020220701000126000NNM   20220425142556    4P0P  00002100000000571200000856432AF    HBYHVTB 006400630015
BI00B32AF    JTB2073        202206247116-5752-02             TERMINAL                 CCN000126000000126000FN00000000020220701000126000NNM   20220425142556    4P0P  00002100000000571200000856432AF    HBYHVTB 006400630015
BI00B32AF    JTB2074        202207017116-5752-02             TERMINAL                 CCN000105000000105000FN00000000020220701000105000NNM   20220425142556    4P0P  00002100000000571200000856432AF    HBYHVTB 006400630015
BI00B32AF    JTB2075        202207087116-5752-02             TERMINAL                 CCN000105000000105000FN00000000020220701000105000NNM   20220425142556    4P0P  00002100000000571200000856432AF    HBYHVTB 006400630015
BI00B32AF    JTB2071        202206107116-6041                TERMINAL                 CCN000004500000004500FN00000000020220701000004500NNM   20220425142556    4P0P  00000450000000716000001009632AF    HBYHVTB 006400630015
BI00B32AF    JTB2072        202206177116-6041                TERMINAL                 CCN000013500000013500FN00000000020220701000013500NNM   20220425142556    4P0P  00000450000000716000001009632AF    HBYHVTB 006400630015
BI00B32AF    JTB2073        202206247116-6041                TERMINAL                 CCN000013500000013500FN00000000020220701000013500NNM   20220425142556    4P0P  00000450000000716000001009632AF    HBYHVTB 006400630015
BI00B32AF    JTB2074        202207017116-6041                TERMINAL                 CCN000013500000013500FN00000000020220701000013500NNM   20220425142556    4P0P  00000450000000716000001009632AF    HBYHVTB 006400630015
BI00B32AF    JTB2075        202207087116-6041                TERMINAL                 CCN000009000000009000FN00000000020220701000009000NNM   20220425142556    4P0P  00000450000000716000001009632AF    HBYHVTB 006400630015
BI00B32AF    JTB2071        202206107126-8855-02             TERMINAL                 CCN000030000000030000FN00000000020220701000030000NNM   20220425142556    4P0P  00000600000000510600000795832AF    HBYHVTB 006400630015
BI00B32AF    JTB2072        202206177126-8855-02             TERMINAL                 CCN000042000000042000FN00000000020220701000042000NNM   20220425142556    4P0P  00000600000000510600000795832AF    HBYHVTB 006400630015
BI00B32AF    JTB2073        202206247126-8855-02             TERMINAL                 CCN000042000000042000FN00000000020220701000042000NNM   20220425142556    4P0P  00000600000000510600000795832AF    HBYHVTB 006400630015
BI00B32AF    JTB2074        202207017126-8855-02             TERMINAL                 CCN000030000000030000FN00000000020220701000030000NNM   20220425142556    4P0P  00000600000000510600000795832AF    HBYHVTB 006400630015
BI00B32AF    JTB2075        202207087126-8855-02             TERMINAL                 CCN000042000000042000FN00000000020220701000042000NNM   20220425142556    4P0P  00000600000000510600000795832AF    HBYHVTB 006400630015
BI00B32AF    JTB2072        202206177158-3006-90             RUBBER STOPPER           CCN000020000000020000FN00000000020220701000020000NNM   20220425142556    1C0C  00002000000000330600000386032AF    HBYHVTB 002700430014
BI00B32AF    JTB2074        202207017158-3006-90             RUBBER STOPPER           CCN000020000000020000FN00000000020220701000020000NNM   20220425142556    1C0C  00002000000000330600000386032AF    HBYHVTB 002700430014
BI00B32AF    JTB2075        202207087158-3006-90             RUBBER STOPPER           CCN000020000000020000FN00000000020220701000020000NNM   20220425142556    1C0C  00002000000000330600000386032AF    HBYHVTB 002700430014
BI00B32AF    JTB2071        202206107158-3009-60             RUBBER STOPPER           CCN000080000000080000FN00000000020220701000080000NNM   20220425142556    1C0C  00002000000000338000000386232AF    HBYHVTB 002700430014
BI00B32AF    JTB2072        202206177158-3009-60             RUBBER STOPPER           CCN000080000000080000FN00000000020220701000080000NNM   20220425142556    1C0C  00002000000000338000000386232AF    HBYHVTB 002700430014
BI00B32AF    JTB2073        202206247158-3009-60             RUBBER STOPPER           CCN000080000000080000FN00000000020220701000080000NNM   20220425142556    1C0C  00002000000000338000000386232AF    HBYHVTB 002700430014
BI00B32AF    JTB2074        202207017158-3009-60             RUBBER STOPPER           CCN000080000000080000FN00000000020220701000080000NNM   20220425142556    1C0C  00002000000000338000000386232AF    HBYHVTB 002700430014
BI00B32AF    JTB2075        202207087158-3009-60             RUBBER STOPPER           CCN000080000000080000FN00000000020220701000080000NNM   20220425142556    1C0C  00002000000000338000000386232AF    HBYHVTB 002700430014
BI00B32AF    JTB2071        202206107158-3070-80             RUBBER STOPPER           CCN000040000000040000FN00000000020220701000040000NNM   20220425142556    1C0C  00004000000000276000000333332AF    HBYHVTB 002700430014
BI00B32AF    JTB2072        202206177158-3070-80             RUBBER STOPPER           CCN000040000000040000FN00000000020220701000040000NNM   20220425142556    1C0C  00004000000000276000000333332AF    HBYHVTB 002700430014
BI00B32AF    JTB2073        202206247158-3070-80             RUBBER STOPPER           CCN000040000000040000FN00000000020220701000040000NNM   20220425142556    1C0C  00004000000000276000000333332AF    HBYHVTB 002700430014
BI00B32AF    JTB2075        202207087158-3070-80             RUBBER STOPPER           CCN000040000000040000FN00000000020220701000040000NNM   20220425142556    1C0C  00004000000000276000000333332AF    HBYHVTB 002700430014
BI00B32AF    JTB2071        202206107158-3165-90             WIRE SEAL                CCN000280000000280000FN00000000020220701000280000NNM   20220425142556    1C0C  00004000000000124000000172432AF    HBYHVTB 004300270014
BI00B32AF    JTB2072        202206177158-3165-90             WIRE SEAL                CCN000200000000200000FN00000000020220701000200000NNM   20220425142556    1C0C  00004000000000124000000172432AF    HBYHVTB 004300270014
BI00B32AF    JTB2073        202206247158-3165-90             WIRE SEAL                CCN000240000000240000FN00000000020220701000240000NNM   20220425142556    1C0C  00004000000000124000000172432AF    HBYHVTB 004300270014
BI00B32AF    JTB2074        202207017158-3165-90             WIRE SEAL                CCN000360000000360000FN00000000020220701000360000NNM   20220425142556    1C0C  00004000000000124000000172432AF    HBYHVTB 004300270014
BI00B32AF    JTB2075        202207087158-3165-90             WIRE SEAL                CCN000360000000360000FN00000000020220701000360000NNM   20220425142556    1C0C  00004000000000124000000172432AF    HBYHVTB 004300270014
BI00B32AF    JTB2071        202206107158-3166-60             WIRE SEAL                CCN000040000000040000FN00000000020220701000040000NNM   20220425142556    1C0C  00004000000000104000000152432AF    HBYHVTB 002700430014
BI00B32AF    JTB2072        202206177158-3166-60             WIRE SEAL                CCN000080000000080000FN00000000020220701000080000NNM   20220425142556    1C0C  00004000000000104000000152432AF    HBYHVTB 002700430014
BI00B32AF    JTB2073        202206247158-3166-60             WIRE SEAL                CCN000080000000080000FN00000000020220701000080000NNM   20220425142556    1C0C  00004000000000104000000152432AF    HBYHVTB 002700430014
BI00B32AF    JTB2074        202207017158-3166-60             WIRE SEAL                CCN000040000000040000FN00000000020220701000040000NNM   20220425142556    1C0C  00004000000000104000000152432AF    HBYHVTB 002700430014
BI00B32AF    JTB2075        202207087158-3166-60             WIRE SEAL                CCN000080000000080000FN00000000020220701000080000NNM   20220425142556    1C0C  00004000000000104000000152432AF    HBYHVTB 002700430014
BI00B32AF    JTB2072        202206177158-3167-80             WIRE SEAL                CCN000020000000020000FN00000000020220701000020000NNM   20220425142556    1C0C  00002000000000048000000109032AF    HBYHVTB 002700430014
BI00B32AF    JTB2071        202206107158-3169-40             SEALING PLUG             CCN000080000000080000FN00000000020220701000080000NNM   20220425142556    1C0C  00004000000000156000000204132AF    HBYHVTB 004300260014
BI00B32AF    JTB2072        202206177158-3169-40             SEALING PLUG             CCN000080000000080000FN00000000020220701000080000NNM   20220425142556    1C0C  00004000000000156000000204132AF    HBYHVTB 004300260014
BI00B32AF    JTB2073        202206247158-3169-40             SEALING PLUG             CCN000120000000120000FN00000000020220701000120000NNM   20220425142556    1C0C  00004000000000156000000204132AF    HBYHVTB 004300260014
BI00B32AF    JTB2074        202207017158-3169-40             SEALING PLUG             CCN000080000000080000FN00000000020220701000080000NNM   20220425142556    1C0C  00004000000000156000000204132AF    HBYHVTB 004300260014
BI00B32AF    JTB2075        202207087158-3169-40             SEALING PLUG             CCN000080000000080000FN00000000020220701000080000NNM   20220425142556    1C0C  00004000000000156000000204132AF    HBYHVTB 004300260014
BI00B32AF    JTB2073        202206247195-1463-02             TERMINAL MALE            CCN000114000000114000FN00000000020220701000114000NNM   20220425142556    4P0P  00002850000000456000000741232AF    HBYHVTB 006400630015
BI00B32AF    JTB2074        202207017195-1463-02             TERMINAL MALE            CCN000085500000085500FN00000000020220701000085500NNM   20220425142556    4P0P  00002850000000456000000741232AF    HBYHVTB 006400630015
BI00B32AF    JTB2075        202207087195-1463-02             TERMINAL MALE            CCN000114000000114000FN00000000020220701000114000NNM   20220425142556    4P0P  00002850000000456000000741232AF    HBYHVTB 006400630015
BI00B32AF    JTB2072        202206177195-1464-02             TERMINAL MALE            CCN000025500000025500FN00000000020220701000025500NNM   20220425142556    4P0P  00002550000000420800000706032AF    HBYHVTB 006400630015
BI00B32AF    JTB2072        202206177195-1467-02             TERMINAL MALE            CCN000028500000028500FN00000000020220701000028500NNM   20220425142556    4P0P  00002850000000438900000724132AF    HBYHVTB 006400630015
BI00B32AF    JTB2071        202206107196-0104-02             TERMINAL                 CCN000038000000038000FN00000000020220701000038000NNM   20220425142556    4P0P  00003800000000570000000956432AF    HBYHVTB 006400630017
BI00B32AF    JTB2073        202206247196-0104-02             TERMINAL                 CCN000038000000038000FN00000000020220701000038000NNM   20220425142556    4P0P  00003800000000570000000956432AF    HBYHVTB 006400630017
BI00B32AF    JTB2071        202206107196-1460-02             TERMINAL FEMALE          CCN000142500000142500FN00000000020220701000142500NNM   20220425142556    4P0P  00002850000000444600000729832AF    HBYHVTB 006400630015
BI00B32AF    JTB2072        202206177196-1460-02             TERMINAL FEMALE          CCN000142500000142500FN00000000020220701000142500NNM   20220425142556    4P0P  00002850000000444600000729832AF    HBYHVTB 006400630015
BI00B32AF    JTB2073        202206247196-1460-02             TERMINAL FEMALE          CCN000228000000228000FN00000000020220701000228000NNM   20220425142556    4P0P  00002850000000444600000729832AF    HBYHVTB 006400630015
BI00B32AF    JTB2074        202207017196-1460-02             TERMINAL FEMALE          CCN000199500000199500FN00000000020220701000199500NNM   20220425142556    4P0P  00002850000000444600000729832AF    HBYHVTB 006400630015
BI00B32AF    JTB2075        202207087196-1460-02             TERMINAL FEMALE          CCN000228000000228000FN00000000020220701000228000NNM   20220425142556    4P0P  00002850000000444600000729832AF    HBYHVTB 006400630015
BI00B32AF    JTB2071        202206107196-1461-02             TERMINAL FEMALE          CCN000048000000048000FN00000000020220701000048000NNM   20220425142556    4P0P  00002400000000386400000671632AF    HBYHVTB 006400630015
BI00B32AF    JTB2072        202206177196-1461-02             TERMINAL FEMALE          CCN000072000000072000FN00000000020220701000072000NNM   20220425142556    4P0P  00002400000000386400000671632AF    HBYHVTB 006400630015
BI00B32AF    JTB2073        202206247196-1461-02             TERMINAL FEMALE          CCN000048000000048000FN00000000020220701000048000NNM   20220425142556    4P0P  00002400000000386400000671632AF    HBYHVTB 006400630015
BI00B32AF    JTB2074        202207017196-1461-02             TERMINAL FEMALE          CCN000048000000048000FN00000000020220701000048000NNM   20220425142556    4P0P  00002400000000386400000671632AF    HBYHVTB 006400630015
BI00B32AF    JTB2075        202207087196-1461-02             TERMINAL FEMALE          CCN000048000000048000FN00000000020220701000048000NNM   20220425142556    4P0P  00002400000000386400000671632AF    HBYHVTB 006400630015
BI00B32AF    JTB2072        202206177196-1462-02             TERMINAL FEMALE          CCN000021000000021000FN00000000020220701000021000NNM   20220425142556    4P0P  00002100000000352800000638032AF    HBYHVTB 006400630015
BI00B32AF    JTB2071        202206107282-4576                HOUSING MALE ASS'Y       CCN000002400000002400FN00000000020220701000002400NNM   20220425142556    4N0N  00000240000000808800001028832AF    HBYHVTB 005500360039
BI00B32AF    JTB2071        202206107282-4577-90             HOUSING MALE ASS'Y       CCN000002400000002400FN00000000020220701000002400NNM   20220425142556    4N0N  00000240000000964800001174832AF    HBYHVTB 005500360039
BI00B32AF    JTB2072        202206177282-4577-90             HOUSING MALE ASS'Y       CCN000002400000002400FN00000000020220701000002400NNM   20220425142556    4N0N  00000240000000964800001174832AF    HBYHVTB 005500360039
BI00B32AF    JTB2071        202206107282-4578                HOUSING MALE ASS'Y       CCN000004800000004800FN00000000020220701000004800NNM   20220425142556    4N0N  00000120000000782600000992632AF    HBYHVTB 005500360039
BI00B32AF    JTB2072        202206177282-4578                HOUSING MALE ASS'Y       CCN000004800000004800FN00000000020220701000004800NNM   20220425142556    4N0N  00000120000000782600000992632AF    HBYHVTB 005500360039
BI00B32AF    JTB2073        202206247282-4578                HOUSING MALE ASS'Y       CCN000004800000004800FN00000000020220701000004800NNM   20220425142556    4N0N  00000120000000782600000992632AF    HBYHVTB 005500360039
BI00B32AF    JTB2074        202207017282-4578                HOUSING MALE ASS'Y       CCN000001200000001200FN00000000020220701000001200NNM   20220425142556    4N0N  00000120000000782600000992632AF    HBYHVTB 005500360039
BI00B32AF    JTB2071        202206107282-9391-30             HOUSING MALE ASS'Y       CCN000001200000001200FN00000000020220701000001200NNM   20220425142556    4N0N  00000120000001017600001237632AF    HBYHVTB 005500360039
BI00B32AF    JTB2073        202206247282-9391-30             HOUSING MALE ASS'Y       CCN000001200000001200FN00000000020220701000001200NNM   20220425142556    4N0N  00000120000001017600001237632AF    HBYHVTB 005500360039
BI00B32AF    JTB2071        202206107283-1028                CONNECTOR HOUSING        CCN000006000000006000FN00000000020220701000006000NNM   20220425142556    4N0N  00000600000000779000001019332AF    HBYHVTB 005600390040
BI00B32AF    JTB2072        202206177283-1028                CONNECTOR HOUSING        CCN000006000000006000FN00000000020220701000006000NNM   20220425142556    4N0N  00000600000000779000001019332AF    HBYHVTB 005600390040
BI00B32AF    JTB2073        202206247283-1028                CONNECTOR HOUSING        CCN000006000000006000FN00000000020220701000006000NNM   20220425142556    4N0N  00000600000000779000001019332AF    HBYHVTB 005600390040
BI00B32AF    JTB2074        202207017283-1028                CONNECTOR HOUSING        CCN000006000000006000FN00000000020220701000006000NNM   20220425142556    4N0N  00000600000000779000001019332AF    HBYHVTB 005600390040
BI00B32AF    JTB2073        202206247283-1156                CONNECTOR                CCN000002400000002400FN00000000020220701000002400NNM   20220425142556    4N0N  00000080000000877600001078032AF    HBYHVTB 005600390040
BI00B32AF    JTB2074        202207017283-1156                CONNECTOR                CCN000003200000003200FN00000000020220701000003200NNM   20220425142556    4N0N  00000080000000877600001078032AF    HBYHVTB 005600390040
BI00B32AF    JTB2075        202207087283-1156                CONNECTOR                CCN000002400000002400FN00000000020220701000002400NNM   20220425142556    4N0N  00000080000000877600001078032AF    HBYHVTB 005600390040
BI00B32AF    JTB2071        202206107283-4576                HOUSING FEMALE ASS'Y     CCN000014400000014400FN00000000020220701000014400NNM   20220425142556    4N0N  00000480000000651300000871332AF    HBYHVTB 005500360039
BI00B32AF    JTB2072        202206177283-4576                HOUSING FEMALE ASS'Y     CCN000028800000028800FN00000000020220701000028800NNM   20220425142556    4N0N  00000480000000651300000871332AF    HBYHVTB 005500360039
BI00B32AF    JTB2073        202206247283-4576                HOUSING FEMALE ASS'Y     CCN000024000000024000FN00000000020220701000024000NNM   20220425142556    4N0N  00000480000000651300000871332AF    HBYHVTB 005500360039
BI00B32AF    JTB2074        202207017283-4576                HOUSING FEMALE ASS'Y     CCN000019200000019200FN00000000020220701000019200NNM   20220425142556    4N0N  00000480000000651300000871332AF    HBYHVTB 005500360039
BI00B32AF    JTB2075        202207087283-4576                HOUSING FEMALE ASS'Y     CCN000024000000024000FN00000000020220701000024000NNM   20220425142556    4N0N  00000480000000651300000871332AF    HBYHVTB 005500360039
BI00B32AF    JTB2071        202206107283-4576-30             HOUSING FEMALE ASS'Y     CCN000004800000004800FN00000000020220701000004800NNM   20220425142556    4N0N  00000480000000651300000871332AF    HBYHVTB 005500360039
BI00B32AF    JTB2071        202206107283-4577                CONNECTOR HOUSING        CCN000004800000004800FN00000000020220701000004800NNM   20220425142556    4N0N  00000480000000916800001136832AF    HBYHVTB 005500360039
BI00B32AF    JTB2072        202206177283-4577                CONNECTOR HOUSING        CCN000004800000004800FN00000000020220701000004800NNM   20220425142556    4N0N  00000480000000916800001136832AF    HBYHVTB 005500360039
BI00B32AF    JTB2073        202206247283-4577                CONNECTOR HOUSING        CCN000004800000004800FN00000000020220701000004800NNM   20220425142556    4N0N  00000480000000916800001136832AF    HBYHVTB 005500360039
BI00B32AF    JTB2071        202206107283-4855                CONNECTOR HOUSING        CCN000004800000004800FN00000000020220701000004800NNM   20220425142556    4N0N  00000240000001188400001400032AF    HBYHVTB 005500360039
BI00B32AF    JTB2072        202206177283-4855                CONNECTOR HOUSING        CCN000004800000004800FN00000000020220701000004800NNM   20220425142556    4N0N  00000240000001188400001400032AF    HBYHVTB 005500360039
BI00B32AF    JTB2073        202206247283-4855                CONNECTOR HOUSING        CCN000002400000002400FN00000000020220701000002400NNM   20220425142556    4N0N  00000240000001188400001400032AF    HBYHVTB 005500360039
BI00B32AF    JTB2071        202206107283-5830                CONNECTOR                CCN000006000000006000FN00000000020220701000006000NNM   20220425142556    1N47  00000600000000954000001104032AF    HBYHVTB 005500360039
BI00B32AF    JTB2071        202206107283-5845                CONNECTOR HOUSING        CCN000024000000024000FN00000000020220701000024000NNM   20220425142556    1N0N  00000600000000444000000606332AF    HBYHVTB 005400370024
BI00B32AF    JTB2072        202206177283-5845                CONNECTOR HOUSING        CCN000024000000024000FN00000000020220701000024000NNM   20220425142556    1N0N  00000600000000444000000606332AF    HBYHVTB 005400370024
BI00B32AF    JTB2073        202206247283-5845                CONNECTOR HOUSING        CCN000024000000024000FN00000000020220701000024000NNM   20220425142556    1N0N  00000600000000444000000606332AF    HBYHVTB 005400370024
BI00B32AF    JTB2074        202207017283-5845                CONNECTOR HOUSING        CCN000024000000024000FN00000000020220701000024000NNM   20220425142556    1N0N  00000600000000444000000606332AF    HBYHVTB 005400370024
BI00B32AF    JTB2075        202207087283-5845                CONNECTOR HOUSING        CCN000006000000006000FN00000000020220701000006000NNM   20220425142556    1N0N  00000600000000444000000606332AF    HBYHVTB 005400370024
BI00B32AF    JTB2071        202206107283-5845-30             CONNECTOR HOUSING        CCN000006000000006000FN00000000020220701000006000NNM   20220425142556    1N0N  00000600000000444000000606332AF    HBYHVTB 005400370024
BI00B32AF    JTB2071        202206107283-5846                HOUSING                  CCN000009000000009000FN00000000020220701000009000NNM   20220425142556    1N0N  00000150000000885000001102032AF    HBYHVTB 005600390040
BI00B32AF    JTB2072        202206177283-5846                HOUSING                  CCN000009000000009000FN00000000020220701000009000NNM   20220425142556    1N0N  00000150000000885000001102032AF    HBYHVTB 005600390040
BI00B32AF    JTB2073        202206247283-5846                HOUSING                  CCN000010500000010500FN00000000020220701000010500NNM   20220425142556    1N0N  00000150000000885000001102032AF    HBYHVTB 005600390040
BI00B32AF    JTB2074        202207017283-5846                HOUSING                  CCN000009000000009000FN00000000020220701000009000NNM   20220425142556    1N0N  00000150000000885000001102032AF    HBYHVTB 005600390040
BI00B32AF    JTB2075        202207087283-5846                HOUSING                  CCN000007500000007500FN00000000020220701000007500NNM   20220425142556    1N0N  00000150000000885000001102032AF    HBYHVTB 005600390040
BI00B32AF    JTB2071        202206107286-1899                HOUSING SUB ASSEMBLY     CCN000008400000008400FN00000000020220701000008400NNM   20220425142556    4N0N  00000033600000814800001010832AF    HBYHVTB 005400370024
BI00B32AF    JTB2072        202206177286-1899                HOUSING SUB ASSEMBLY     CCN000012096000012096FN00000000020220701000012096NNM   20220425142556    4N0N  00000033600000814800001010832AF    HBYHVTB 005400370024
BI00B32AF    JTB2073        202206247286-1899                HOUSING SUB ASSEMBLY     CCN000012096000012096FN00000000020220701000012096NNM   20220425142556    4N0N  00000033600000814800001010832AF    HBYHVTB 005400370024
BI00B32AF    JTB2074        202207017286-1899                HOUSING SUB ASSEMBLY     CCN000008400000008400FN00000000020220701000008400NNM   20220425142556    4N0N  00000033600000814800001010832AF    HBYHVTB 005400370024
BI00B32AF    JTB2075        202207087286-1899                HOUSING SUB ASSEMBLY     CCN000008400000008400FN00000000020220701000008400NNM   20220425142556    4N0N  00000033600000814800001010832AF    HBYHVTB 005400370024
BI00B32AF    JTB2071        202206107286-1900                CONNECTOR HOUSING        CCN000009600000009600FN00000000020220701000009600NNM   20220425142556    4N0N  00000480000001161600001376632AF    HBYHVTB 005500360039
BI00B32AF    JTB2072        202206177286-1900                CONNECTOR HOUSING        CCN000014400000014400FN00000000020220701000014400NNM   20220425142556    4N0N  00000480000001161600001376632AF    HBYHVTB 005500360039
BI00B32AF    JTB2073        202206247286-1900                CONNECTOR HOUSING        CCN000009600000009600FN00000000020220701000009600NNM   20220425142556    4N0N  00000480000001161600001376632AF    HBYHVTB 005500360039
BI00B32AF    JTB2074        202207017286-1900                CONNECTOR HOUSING        CCN000009600000009600FN00000000020220701000009600NNM   20220425142556    4N0N  00000480000001161600001376632AF    HBYHVTB 005500360039
BI00B32AF    JTB2075        202207087286-1900                CONNECTOR HOUSING        CCN000009600000009600FN00000000020220701000009600NNM   20220425142556    4N0N  00000480000001161600001376632AF    HBYHVTB 005500360039
BI00B32AF    JTB2072        202206177286-4097                CONNECTOR MALE ASS'Y     CCN000003200000003200FN00000000020220701000003200NNM   20220425142556    1N0N  00000160000000768000000978032AF    HBYHVTB 005500360039
BI00B32AF    JTB2073        202206247286-4097                CONNECTOR MALE ASS'Y     CCN000004800000004800FN00000000020220701000004800NNM   20220425142556    1N0N  00000160000000768000000978032AF    HBYHVTB 005500360039
BI00B32AF    JTB2074        202207017286-4097                CONNECTOR MALE ASS'Y     CCN000004800000004800FN00000000020220701000004800NNM   20220425142556    1N0N  00000160000000768000000978032AF    HBYHVTB 005500360039
BI00B32AF    JTB2075        202207087286-4097                CONNECTOR MALE ASS'Y     CCN000004800000004800FN00000000020220701000004800NNM   20220425142556    1N0N  00000160000000768000000978032AF    HBYHVTB 005500360039
BI00B32AF    JTB2071        202206107286-4097-90             CONNECTOR MALE ASS'Y     CCN000004800000004800FN00000000020220701000004800NNM   20220425142556    1N0N  00000160000000768000000978032AF    HBYHVTB 005500360039
BI00B32AF    JTB2071        202206107287-1915                CONNECTOR ASS'Y          CCN000012000000012000FN00000000020220701000012000NNM   20220425142556    4N0N  00000240000000666500000923132AF    HBYHVTB 005500360039
BI00B32AF    JTB2072        202206177287-1915                CONNECTOR ASS'Y          CCN000009600000009600FN00000000020220701000009600NNM   20220425142556    4N0N  00000240000000666500000923132AF    HBYHVTB 005500360039
BI00B32AF    JTB2073        202206247287-1915                CONNECTOR ASS'Y          CCN000012000000012000FN00000000020220701000012000NNM   20220425142556    4N0N  00000240000000666500000923132AF    HBYHVTB 005500360039
BI00B32AF    JTB2074        202207017287-1915                CONNECTOR ASS'Y          CCN000009600000009600FN00000000020220701000009600NNM   20220425142556    4N0N  00000240000000666500000923132AF    HBYHVTB 005500360039
BI00B32AF    JTB2075        202207087287-1915                CONNECTOR ASS'Y          CCN000007200000007200FN00000000020220701000007200NNM   20220425142556    4N0N  00000240000000666500000923132AF    HBYHVTB 005500360039
BI00B32AF    JTB2071        202206107287-1915-30             CONNECTOR ASS'Y          CCN000002400000002400FN00000000020220701000002400NNM   20220425142556    4N0N  00000240000000666500000923132AF    HBYHVTB 005500360039
BI00B32AF    JTB2072        202206177287-1915-30             CONNECTOR ASS'Y          CCN000002400000002400FN00000000020220701000002400NNM   20220425142556    4N0N  00000240000000666500000923132AF    HBYHVTB 005500360039
BI00B32AF    JTB2073        202206247287-1915-30             CONNECTOR ASS'Y          CCN000002400000002400FN00000000020220701000002400NNM   20220425142556    4N0N  00000240000000666500000923132AF    HBYHVTB 005500360039
BI00B32AF    JTB2071        202206107287-1915-40             CONNECTOR ASS'Y          CCN000002400000002400FN00000000020220701000002400NNM   20220425142556    4N0N  00000240000000666500000923132AF    HBYHVTB 005500360039
BI00B32AF    JTB2071        202206107287-1917-40             CONNECTOR FEMALE         CCN000002400000002400FN00000000020220701000002400NNM   20220425142556    4N0N  00000240000001060800001312532AF    HBYHVTB 005500360039
BI00B32AF    JTB2071        202206107287-3885                HYBRID FEMALE ASS'Y      CCN000002400000002400FN00000000020220701000002400NNM   20220425142556    1N0N  00000240000001029600001249632AF    HBYHVTB 005500360039
BI00B32AF    JTB2072        202206177287-3885                HYBRID FEMALE ASS'Y      CCN000002400000002400FN00000000020220701000002400NNM   20220425142556    1N0N  00000240000001029600001249632AF    HBYHVTB 005500360039
BI00B32AF    JTB2073        202206247287-3885                HYBRID FEMALE ASS'Y      CCN000002400000002400FN00000000020220701000002400NNM   20220425142556    1N0N  00000240000001029600001249632AF    HBYHVTB 005500360039
BI00B32AF    JTB2071        202206107289-3342-30             HOUSING FEMALE ASS'Y     CCN000060000000060000FN00000000020220701000060000NNM   20220425142556    1N0N  00000240000000686400000901432AF    HBYHVTB 005500360039
BI00B32AF    JTB2072        202206177289-3342-30             HOUSING FEMALE ASS'Y     CCN000060000000060000FN00000000020220701000060000NNM   20220425142556    1N0N  00000240000000686400000901432AF    HBYHVTB 005500360039
BI00B32AF    JTB2073        202206247289-3342-30             HOUSING FEMALE ASS'Y     CCN000040800000040800FN00000000020220701000040800NNM   20220425142556    1N0N  00000240000000686400000901432AF    HBYHVTB 005500360039
BI00B32AF    JTB2072        202206177289-5011-30             HOUSING FEMALE ASS'Y     CCN000004800000004800FN00000000020220701000004800NNM   20220425142556    4N0N  00000240000001171700001368632AF    HBYHVTB 005500360039
BI00B32AF    JTB2073        202206247289-5011-30             HOUSING FEMALE ASS'Y     CCN000026400000026400FN00000000020220701000026400NNM   20220425142556    4N0N  00000240000001171700001368632AF    HBYHVTB 005500360039
BI00B32AF    JTB2074        202207017289-5011-30             HOUSING FEMALE ASS'Y     CCN000026400000026400FN00000000020220701000026400NNM   20220425142556    4N0N  00000240000001171700001368632AF    HBYHVTB 005500360039
BI00B32AF    JTB2075        202207087289-5011-30             HOUSING FEMALE ASS'Y     CCN000014400000014400FN00000000020220701000014400NNM   20220425142556    4N0N  00000240000001171700001368632AF    HBYHVTB 005500360039
BI00B32AF    JTB2072        202206177297-2287-30             HOUSING MALE ASS'Y       CCN000001200000001200FN00000000020220701000001200NNM   20220425142556    4N0N  00000120000000473900000590032AF    HBYHVTB 005400370024
BI00B32AF    JTB2073        202206247297-2287-30             HOUSING MALE ASS'Y       CCN000001200000001200FN00000000020220701000001200NNM   20220425142556    4N0N  00000120000000473900000590032AF    HBYHVTB 005400370024
BI00B32AF    JTB2074        202207017297-2287-30             HOUSING MALE ASS'Y       CCN000001200000001200FN00000000020220701000001200NNM   20220425142556    4N0N  00000120000000473900000590032AF    HBYHVTB 005400370024
BI00B32AF    JTB2073        202206247298-1865-30             HOUSING FEMALE ASS'Y     CCN000004800000004800FN00000000020220701000004800NNM   20220425142556    4N0N  00000240000001003200001204532AF    HBYHVTB 005500360039
BI00B32AF    JTB2074        202207017298-1865-30             HOUSING FEMALE ASS'Y     CCN000004800000004800FN00000000020220701000004800NNM   20220425142556    4N0N  00000240000001003200001204532AF    HBYHVTB 005500360039
BI00B32AF    JTB2075        202207087298-1865-30             HOUSING FEMALE ASS'Y     CCN000009600000009600FN00000000020220701000009600NNM   20220425142556    4N0N  00000240000001003200001204532AF    HBYHVTB 005500360039
BI00B32AF    JTB2071        202206107298-1869-30             HOUSING FEMALE ASS'Y     CCN000002400000002400FN00000000020220701000002400NNM   20220425142556    4N0N  00000120000000737000000939832AF    HBYHVTB 005500360039
BI00B32AF    JTB2072        202206177298-1869-30             HOUSING FEMALE ASS'Y     CCN000002400000002400FN00000000020220701000002400NNM   20220425142556    4N0N  00000120000000737000000939832AF    HBYHVTB 005500360039
BI00B32AF    JTB2073        202206247298-1869-30             HOUSING FEMALE ASS'Y     CCN000002400000002400FN00000000020220701000002400NNM   20220425142556    4N0N  00000120000000737000000939832AF    HBYHVTB 005500360039
BI00B32AF    JTB2074        202207017298-1869-30             HOUSING FEMALE ASS'Y     CCN000001200000001200FN00000000020220701000001200NNM   20220425142556    4N0N  00000120000000737000000939832AF    HBYHVTB 005500360039
BI00B32AF    JTB2072        202206177298-2278-30             HOUSING FEMALE ASS'Y     CCN000004800000004800FN00000000020220701000004800NNM   20220425142556    4N0N  00000240000001091700001295432AF    HBYHVTB 005500360039
BI00B32AF    JTB2073        202206247298-2278-30             HOUSING FEMALE ASS'Y     CCN000004800000004800FN00000000020220701000004800NNM   20220425142556    4N0N  00000240000001091700001295432AF    HBYHVTB 005500360039
BI00B32AF    JTB2074        202207017298-2278-30             HOUSING FEMALE ASS'Y     CCN000004800000004800FN00000000020220701000004800NNM   20220425142556    4N0N  00000240000001091700001295432AF    HBYHVTB 005500360039
BI00B32AF    JTB2075        202207087298-2278-30             HOUSING FEMALE ASS'Y     CCN000002400000002400FN00000000020220701000002400NNM   20220425142556    4N0N  00000240000001091700001295432AF    HBYHVTB 005500360039
BI00B32AF    JTB2071        202206107298-2507-30             HOUSING FEMALE ASS'Y     CCN000001200000001200FN00000000020220701000001200NNM   20220425142556    4N0N  00000120000000713200000914532AF    HBYHVTB 005500360039
BI00B32AF    JTB2072        202206177298-2507-30             HOUSING FEMALE ASS'Y     CCN000001200000001200FN00000000020220701000001200NNM   20220425142556    4N0N  00000120000000713200000914532AF    HBYHVTB 005500360039
BI00B32AF    JTB2073        202206247298-2507-30             HOUSING FEMALE ASS'Y     CCN000002400000002400FN00000000020220701000002400NNM   20220425142556    4N0N  00000120000000713200000914532AF    HBYHVTB 005500360039
BI00B32AF    JTB2074        202207017298-2507-30             HOUSING FEMALE ASS'Y     CCN000001200000001200FN00000000020220701000001200NNM   20220425142556    4N0N  00000120000000713200000914532AF    HBYHVTB 005500360039
BI00B32AF    JTB2071        202206107298-2508-30             HOUSING FEMALE ASS'Y     CCN000001200000001200FN00000000020220701000001200NNM   20220425142556    4N0N  00000120000000822000001005032AF    HBYHVTB 005500360039
BI00B32AF    JTB2072        202206177298-2508-30             HOUSING FEMALE ASS'Y     CCN000002400000002400FN00000000020220701000002400NNM   20220425142556    4N0N  00000120000000822000001005032AF    HBYHVTB 005500360039
BI00B32AF    JTB2073        202206247298-2508-30             HOUSING FEMALE ASS'Y     CCN000002400000002400FN00000000020220701000002400NNM   20220425142556    4N0N  00000120000000822000001005032AF    HBYHVTB 005500360039
BI00B32AF    JTB2074        202207017298-2508-30             HOUSING FEMALE ASS'Y     CCN000002400000002400FN00000000020220701000002400NNM   20220425142556    4N0N  00000120000000822000001005032AF    HBYHVTB 005500360039
BI00B32AF    JTB2071        202206107298-2509-30             HOUSING FEMALE ASS'Y     CCN000002400000002400FN00000000020220701000002400NNM   20220425142556    4N0N  00000120000000857500001062532AF    HBYHVTB 005500360039
BI00B32AF    JTB2072        202206177298-2509-30             HOUSING FEMALE ASS'Y     CCN000003600000003600FN00000000020220701000003600NNM   20220425142556    4N0N  00000120000000857500001062532AF    HBYHVTB 005500360039
BI00B32AF    JTB2073        202206247298-2509-30             HOUSING FEMALE ASS'Y     CCN000003600000003600FN00000000020220701000003600NNM   20220425142556    4N0N  00000120000000857500001062532AF    HBYHVTB 005500360039
BI00B32AF    JTB2074        202207017298-2509-30             HOUSING FEMALE ASS'Y     CCN000002400000002400FN00000000020220701000002400NNM   20220425142556    4N0N  00000120000000857500001062532AF    HBYHVTB 005500360039
BI00B32AF    JTB2075        202207087298-2509-30             HOUSING FEMALE ASS'Y     CCN000002400000002400FN00000000020220701000002400NNM   20220425142556    4N0N  00000120000000857500001062532AF    HBYHVTB 005500360039
BI00B32AF    JTB2071        202206107298-5955                CONNECTOR SUB ASSY       CCN000043200000043200FN00000000020220701000043200NNM   20220425142556    4N0N  00000720000001029600001253032AF    HBYHVTB 005500360039
BI00B32AF    JTB2072        202206177298-5955                CONNECTOR SUB ASSY       CCN000036000000036000FN00000000020220701000036000NNM   20220425142556    4N0N  00000720000001029600001253032AF    HBYHVTB 005500360039
BI00B32AF    JTB2073        202206247298-5955                CONNECTOR SUB ASSY       CCN000028800000028800FN00000000020220701000028800NNM   20220425142556    4N0N  00000720000001029600001253032AF    HBYHVTB 005500360039
BI00B32AF    JTB2074        202207017298-5955                CONNECTOR SUB ASSY       CCN000028800000028800FN00000000020220701000028800NNM   20220425142556    4N0N  00000720000001029600001253032AF    HBYHVTB 005500360039
BI00B32AF    JTB2075        202207087298-5955                CONNECTOR SUB ASSY       CCN000021600000021600FN00000000020220701000021600NNM   20220425142556    4N0N  00000720000001029600001253032AF    HBYHVTB 005500360039
BI00B32AF    JTB2071        202206107388-0314                CONNECTOR ASS'Y          CCN000006000000006000FN00000000020220701000006000NNM   20220425142556    4N0N  00000120000001038000001132332AF    HBYHVTB 005400370024
BI00B32AF    JTB2072        202206177388-0314                CONNECTOR ASS'Y          CCN000013200000013200FN00000000020220701000013200NNM   20220425142556    4N0N  00000120000001038000001132332AF    HBYHVTB 005400370024
BI00B32AF    JTB2073        202206247388-0314                CONNECTOR ASS'Y          CCN000013200000013200FN00000000020220701000013200NNM   20220425142556    4N0N  00000120000001038000001132332AF    HBYHVTB 005400370024
BI00B32AF    JTB2074        202207017388-0314                CONNECTOR ASS'Y          CCN000013200000013200FN00000000020220701000013200NNM   20220425142556    4N0N  00000120000001038000001132332AF    HBYHVTB 005400370024
BI00B32AF    JTB2075        202207087388-0314                CONNECTOR ASS'Y          CCN000009600000009600FN00000000020220701000009600NNM   20220425142556    4N0N  00000120000001038000001132332AF    HBYHVTB 005400370024
BI00B32AF    JTB2071        202206107388-0316-80             CONNECTOR ASS'Y          CCN000001200000001200FN00000000020220701000001200NNM   20220425142556    4N0N  00000120000001002500001132532AF    HBYHVTB 005400370024
BI00B32AF    JTB2073        202206247388-0316-80             CONNECTOR ASS'Y          CCN000001200000001200FN00000000020220701000001200NNM   20220425142556    4N0N  00000120000001002500001132532AF    HBYHVTB 005400370024
BI00B32AF    JTB2071        202206107388-0317-60             CONNECTOR ASS'Y          CCN000006000000006000FN00000000020220701000006000NNM   20220425142556    4N0N  00000120000001034400001129332AF    HBYHVTB 005400370024
BI00B32AF    JTB2072        202206177388-0317-60             CONNECTOR ASS'Y          CCN000014400000014400FN00000000020220701000014400NNM   20220425142556    4N0N  00000120000001034400001129332AF    HBYHVTB 005400370024
BI00B32AF    JTB2073        202206247388-0317-60             CONNECTOR ASS'Y          CCN000015600000015600FN00000000020220701000015600NNM   20220425142556    4N0N  00000120000001034400001129332AF    HBYHVTB 005400370024
BI00B32AF    JTB2074        202207017388-0317-60             CONNECTOR ASS'Y          CCN000012000000012000FN00000000020220701000012000NNM   20220425142556    4N0N  00000120000001034400001129332AF    HBYHVTB 005400370024
BI00B32AF    JTB2075        202207087388-0317-60             CONNECTOR ASS'Y          CCN000009600000009600FN00000000020220701000009600NNM   20220425142556    4N0N  00000120000001034400001129332AF    HBYHVTB 005400370024
BI00B32AF    #JTB2071       202206107047-5654-30             CLIP                     CCN000005000000005000FN00000000020220701000005000NNM   20220425142554    2F0F  00000500000000657000000825332AF    HBYHVTB 005500360039
BI00B32AF    #JTB2072       202206177047-5654-30             CLIP                     CCN000010000000010000FN00000000020220701000010000NNM   20220425142554    2F0F  00000500000000657000000825332AF    HBYHVTB 005500360039
BI00B32AF    #JTB2073       202206247047-5654-30             CLIP                     CCN000015000000015000FN00000000020220701000015000NNM   20220425142554    2F0F  00000500000000657000000825332AF    HBYHVTB 005500360039
BI00B32AF    #JTB2074       202207017047-5654-30             CLIP                     CCN000015000000015000FN00000000020220701000015000NNM   20220425142554    2F0F  00000500000000657000000825332AF    HBYHVTB 005500360039
BI00B32AF    #JTB2072       202206177114-4022                TERMINAL                 CCN000015000000015000FN00000000020220701000015000NNM   20220425142554    2F0P  00001500000000708000001120632AF    HBYHVTB 006400630015
BI00B32AF    #JTB2074       202207017116-4021                TERMINAL                 CCN000027000000027000FN00000000020220701000027000NNM   20220425142554    2F0P  00001350000000534600000868832AF    HBYHVTB 006400630015
BI00B32AF    #JTB2071       202206107123-6347                CONNECTOR HOUSING        CCN000006400000006400FN00000000020220701000006400NNM   20220425142554    2F0F  00000160000000647000000904832AF    HBYHVTB 005500360039
BI00B32AF    #JTB2072       202206177123-6347                CONNECTOR HOUSING        CCN000011200000011200FN00000000020220701000011200NNM   20220425142554    2F0F  00000160000000647000000904832AF    HBYHVTB 005500360039
BI00B32AF    #JTB2073       202206247123-6347                CONNECTOR HOUSING        CCN000011200000011200FN00000000020220701000011200NNM   20220425142554    2F0F  00000160000000647000000904832AF    HBYHVTB 005500360039
BI00B32AF    #JTB2074       202207017123-6347                CONNECTOR HOUSING        CCN000009600000009600FN00000000020220701000009600NNM   20220425142554    2F0F  00000160000000647000000904832AF    HBYHVTB 005500360039
BI00B32AF    #JTB2071       202206107123-6423-30             CONNECTOR                CCN000002000000002000FN00000000020220701000002000NNM   20220425142554    2F0F  00000200000001002000001167632AF    HBYHVTB 005600390023
BI00B32AF    #JTB2072       202206177123-6423-30             CONNECTOR                CCN000004000000004000FN00000000020220701000004000NNM   20220425142554    2F0F  00000200000001002000001167632AF    HBYHVTB 005600390023
BI00B32AF    #JTB2073       202206247123-6423-30             CONNECTOR                CCN000004000000004000FN00000000020220701000004000NNM   20220425142554    2F0F  00000200000001002000001167632AF    HBYHVTB 005600390023
BI00B32AF    #JTB2074       202207017123-6423-30             CONNECTOR                CCN000004000000004000FN00000000020220701000004000NNM   20220425142554    2F0F  00000200000001002000001167632AF    HBYHVTB 005600390023
BI00B32AF    #JTB2072       202206177157-3992-90             CONNECTOR SEALED         CCN000040000000040000FN00000000020220701000040000NNM   20220425142554    2C0C  00004000000000300000000363332AF    HBYHVTB 002700430014
BI00B32AF    #JTB2074       202207017157-3992-90             CONNECTOR SEALED         CCN000040000000040000FN00000000020220701000040000NNM   20220425142554    2C0C  00004000000000300000000363332AF    HBYHVTB 002700430014
BI00B32AF    #JTB2071       202206107158-3005-80             RUBBER STOPPER           CCN000020000000020000FN00000000020220701000020000NNM   20220425142554    2H0H  00002000000000210000000268732AF    HBYHVTB 002700430014
BI00B32AF    #JTB2071       202206107158-3007-10             RUBBER STOPPER           CCN000020000000020000FN00000000020220701000020000NNM   20220425142554    2H0H  00002000000000308000000362732AF    HBYHVTB 002700430014
BI00B32AF    #JTB2071       202206107158-3008-80             RUBBER STOPPER           CCN000020000000020000FN00000000020220701000020000NNM   20220425142554    2C0C  00002000000000288000000343032AF    HBYHVTB 004300270014
BI00B32AF    #JTB2071       202206107158-3120-90             CONNECTOR WIRE SEAL      CCN000040000000040000FN00000000020220701000040000NNM   20220425142554    2C0C  00002000000000136000000194032AF    HBYHVTB 002700430014
BI00B32AF    #JTB2072       202206177158-3120-90             CONNECTOR WIRE SEAL      CCN000080000000080000FN00000000020220701000080000NNM   20220425142554    2C0C  00002000000000136000000194032AF    HBYHVTB 002700430014
BI00B32AF    #JTB2073       202206247158-3120-90             CONNECTOR WIRE SEAL      CCN000120000000120000FN00000000020220701000120000NNM   20220425142554    2C0C  00002000000000136000000194032AF    HBYHVTB 002700430014
BI00B32AF    #JTB2074       202207017158-3120-90             CONNECTOR WIRE SEAL      CCN000100000000100000FN00000000020220701000100000NNM   20220425142554    2C0C  00002000000000136000000194032AF    HBYHVTB 002700430014
BI00B32AF    #JTB2075       202207087158-3120-90             CONNECTOR WIRE SEAL      CCN000120000000120000FN00000000020220701000120000NNM   20220425142554    2C0C  00002000000000136000000194032AF    HBYHVTB 002700430014
BI00B32AF    #JTB2071       202206107158-3121-80             WIRE SEAL                CCN000040000000040000FN00000000020220701000040000NNM   20220425142554    2C0C  00002000000000118000000187332AF    HBYHVTB 002700430014
BI00B32AF    #JTB2072       202206177158-3121-80             WIRE SEAL                CCN000020000000020000FN00000000020220701000020000NNM   20220425142554    2C0C  00002000000000118000000187332AF    HBYHVTB 002700430014
BI00B32AF    #JTB2073       202206247158-3121-80             WIRE SEAL                CCN000040000000040000FN00000000020220701000040000NNM   20220425142554    2C0C  00002000000000118000000187332AF    HBYHVTB 002700430014
BI00B32AF    #JTB2074       202207017158-3121-80             WIRE SEAL                CCN000040000000040000FN00000000020220701000040000NNM   20220425142554    2C0C  00002000000000118000000187332AF    HBYHVTB 002700430014
BI00B32AF    #JTB2075       202207087158-3121-80             WIRE SEAL                CCN000020000000020000FN00000000020220701000020000NNM   20220425142554    2C0C  00002000000000118000000187332AF    HBYHVTB 002700430014
BI00B32AF    #JTB2071       202206107183-1616-30             CONNECTOR HOUSING        CCN000002400000002400FN00000000020220701000002400NNM   20220425142554    2F0F  00000240000000557500000837132AF    HBYHVTB 005500360039
BI00B32AF    #JTB2072       202206177183-2413                CONNECTOR HOUSING        CCN000004800000004800FN00000000020220701000004800NNM   20220425142554    2F0F  00000480000000478100000760032AF    HBYHVTB 005500360039
BI00B32AF    #JTB2073       202206247183-2413                CONNECTOR HOUSING        CCN000014400000014400FN00000000020220701000014400NNM   20220425142554    2F0F  00000480000000478100000760032AF    HBYHVTB 005500360039
BI00B32AF    #JTB2074       202207017183-2413                CONNECTOR HOUSING        CCN000009600000009600FN00000000020220701000009600NNM   20220425142554    2F0F  00000480000000478100000760032AF    HBYHVTB 005500360039
BI00B32AF    #JTB2075       202207087183-2413                CONNECTOR HOUSING        CCN000004800000004800FN00000000020220701000004800NNM   20220425142554    2F0F  00000480000000478100000760032AF    HBYHVTB 005500360039
BI00B32AF    #JTB2071       202206107183-2413-30             CONNECTOR HOUSING        CCN000004800000004800FN00000000020220701000004800NNM   20220425142554    2F0F  00000480000000477600000759532AF    HBYHVTB 005500360039
BI00B32AF    #JTB2072       202206177183-2413-30             CONNECTOR HOUSING        CCN000004800000004800FN00000000020220701000004800NNM   20220425142554    2F0F  00000480000000477600000759532AF    HBYHVTB 005500360039
BI00B32AF    #JTB2071       202206107183-2414                CONNECTOR HOUSING        CCN000014400000014400FN00000000020220701000014400NNM   20220425142554    2F0F  00000480000000779200001061032AF    HBYHVTB 005500360039
BI00B32AF    #JTB2072       202206177183-2414                CONNECTOR HOUSING        CCN000014400000014400FN00000000020220701000014400NNM   20220425142554    2F0F  00000480000000779200001061032AF    HBYHVTB 005500360039
BI00B32AF    #JTB2073       202206247183-2414                CONNECTOR HOUSING        CCN000009600000009600FN00000000020220701000009600NNM   20220425142554    2F0F  00000480000000779200001061032AF    HBYHVTB 005500360039
BI00B32AF    #JTB2074       202207017183-2414                CONNECTOR HOUSING        CCN000004800000004800FN00000000020220701000004800NNM   20220425142554    2F0F  00000480000000779200001061032AF    HBYHVTB 005500360039
BI00B32AF    #JTB2075       202207087183-2414                CONNECTOR HOUSING        CCN000004800000004800FN00000000020220701000004800NNM   20220425142554    2F0F  00000480000000779200001061032AF    HBYHVTB 005500360039
BI00B32AF    #JTB2071       202206107183-2415                CONNECTOR HOUSING        CCN000009600000009600FN00000000020220701000009600NNM   20220425142554    2F0F  00000480000000798200001091432AF    HBYHVTB 005500360039
BI00B32AF    #JTB2072       202206177183-2415                CONNECTOR HOUSING        CCN000009600000009600FN00000000020220701000009600NNM   20220425142554    2F0F  00000480000000798200001091432AF    HBYHVTB 005500360039
BI00B32AF    #JTB2073       202206247183-2415                CONNECTOR HOUSING        CCN000014400000014400FN00000000020220701000014400NNM   20220425142554    2F0F  00000480000000798200001091432AF    HBYHVTB 005500360039
BI00B32AF    #JTB2074       202207017183-2415                CONNECTOR HOUSING        CCN000014400000014400FN00000000020220701000014400NNM   20220425142554    2F0F  00000480000000798200001091432AF    HBYHVTB 005500360039
BI00B32AF    #JTB2071       202206107183-2415-40             CONNECTOR HOUSING        CCN000004800000004800FN00000000020220701000004800NNM   20220425142554    2F0F  00000480000000798200001091432AF    HBYHVTB 005500360039
BI00B32AF    #JTB2071       202206107183-2418                CONNECTOR HOUSING        CCN000009600000009600FN00000000020220701000009600NNM   20220425142554    2F0F  00000480000000917000001477032AF    HBYHVTB 005500360039
BI00B32AF    #JTB2072       202206177183-2418                CONNECTOR HOUSING        CCN000019200000019200FN00000000020220701000019200NNM   20220425142554    2F0F  00000480000000917000001477032AF    HBYHVTB 005500360039
BI00B32AF    #JTB2073       202206247183-2418                CONNECTOR HOUSING        CCN000019200000019200FN00000000020220701000019200NNM   20220425142554    2F0F  00000480000000917000001477032AF    HBYHVTB 005500360039
BI00B32AF    #JTB2074       202207017183-2418                CONNECTOR HOUSING        CCN000019200000019200FN00000000020220701000019200NNM   20220425142554    2F0F  00000480000000917000001477032AF    HBYHVTB 005500360039
BI00B32AF    #JTB2075       202207087183-2418                CONNECTOR HOUSING        CCN000004800000004800FN00000000020220701000004800NNM   20220425142554    2F0F  00000480000000917000001477032AF    HBYHVTB 005500360039
BI00B32AF    #JTB2071       202206107186-8851                HOUSING MALE             CCN000005000000005000FN00000000020220701000005000NNM   20220425142554    2F0F  00000100000000782200000906232AF    HBYHVTB 005400370024
BI00B32AF    #JTB2072       202206177186-8851                HOUSING MALE             CCN000005000000005000FN00000000020220701000005000NNM   20220425142554    2F0F  00000100000000782200000906232AF    HBYHVTB 005400370024
BI00B32AF    #JTB2073       202206247186-8851                HOUSING MALE             CCN000005000000005000FN00000000020220701000005000NNM   20220425142554    2F0F  00000100000000782200000906232AF    HBYHVTB 005400370024
BI00B32AF    #JTB2074       202207017186-8851                HOUSING MALE             CCN000005000000005000FN00000000020220701000005000NNM   20220425142554    2F0F  00000100000000782200000906232AF    HBYHVTB 005400370024
BI00B32AF    #JTB2075       202207087186-8851                HOUSING MALE             CCN000002000000002000FN00000000020220701000002000NNM   20220425142554    2F0F  00000100000000782200000906232AF    HBYHVTB 005400370024
BI00B32AF    #JTB2071       202206107187-1616                HOUSING FEMALE           CCN000004000000004000FN00000000020220701000004000NNM   20220425142554    2F0F  00000400000001152000001262032AF    HBYHVTB 005500360039
BI00B32AF    #JTB2071       202206107187-8856-60             HLC HOUSING FEMALE       CCN000002000000002000FN00000000020220701000002000NNM   20220425142554    2F0F  00000200000000820000000931532AF    HBYHVTB 005400370024
BI00B32AF    #JTB2072       202206177187-8856-60             HLC HOUSING FEMALE       CCN000002000000002000FN00000000020220701000002000NNM   20220425142554    2F0F  00000200000000820000000931532AF    HBYHVTB 005400370024
BI00B32AF    #JTB2073       202206247187-8856-60             HLC HOUSING FEMALE       CCN000002000000002000FN00000000020220701000002000NNM   20220425142554    2F0F  00000200000000820000000931532AF    HBYHVTB 005400370024
BI00B32AF    #JTB2074       202207017187-8856-60             HLC HOUSING FEMALE       CCN000002000000002000FN00000000020220701000002000NNM   20220425142554    2F0F  00000200000000820000000931532AF    HBYHVTB 005400370024
BI00B32AF    #JTB2071       202206107189-3297                HOUSING FEMALE           CCN000003000000004000FN00000000020220701000004000NNM   20220425142554    2F0F  00000400000000893200001029032AF    HBYHVTB 005400370024
BI00B32AF    #JTB2072       202206177189-3297                HOUSING FEMALE           CCN000003000000004000FN00000000020220701000004000NNM   20220425142554    2F0F  00000400000000893200001029032AF    HBYHVTB 005400370024
BI00B32AF    #JTB2072       202206177282-1030                CONNECTOR MALE ASS'Y     CCN000003000000003000FN00000000020220701000003000NNM   20220425142554    2N0N  00000100000000365000000487532AF    HBYHVTB 005400370024
BI00B32AF    #JTB2073       202206247282-1030                CONNECTOR MALE ASS'Y     CCN000003000000003000FN00000000020220701000003000NNM   20220425142554    2N0N  00000100000000365000000487532AF    HBYHVTB 005400370024
BI00B32AF    #JTB2074       202207017282-1030                CONNECTOR MALE ASS'Y     CCN000002000000002000FN00000000020220701000002000NNM   20220425142554    2N0N  00000100000000365000000487532AF    HBYHVTB 005400370024
BI00B32AF    #JTB2075       202207087282-1030                CONNECTOR MALE ASS'Y     CCN000002000000002000FN00000000020220701000002000NNM   20220425142554    2N0N  00000100000000365000000487532AF    HBYHVTB 005400370024
BI00B32AF    #JTB2071       202206107282-5528-70             HOUSING MALE ASS'Y       CCN000010000000010000FN00000000020220701000010000NNM   20220425142554    2N0N  00000100000000230000000339032AF    HBYHVTB 005400370024
BI00B32AF    #JTB2072       202206177282-5528-70             HOUSING MALE ASS'Y       CCN000012000000012000FN00000000020220701000012000NNM   20220425142554    2N0N  00000100000000230000000339032AF    HBYHVTB 005400370024
BI00B32AF    #JTB2073       202206247282-5528-70             HOUSING MALE ASS'Y       CCN000014000000014000FN00000000020220701000014000NNM   20220425142554    2N0N  00000100000000230000000339032AF    HBYHVTB 005400370024
BI00B32AF    #JTB2074       202207017282-5528-70             HOUSING MALE ASS'Y       CCN000010000000010000FN00000000020220701000010000NNM   20220425142554    2N0N  00000100000000230000000339032AF    HBYHVTB 005400370024
BI00B32AF    #JTB2075       202207087282-5528-70             HOUSING MALE ASS'Y       CCN000007000000007000FN00000000020220701000007000NNM   20220425142554    2N0N  00000100000000230000000339032AF    HBYHVTB 005400370024
BI00B32AF    #JTB2072       202206177283-1150                HOUSING FEMALE ASS'Y     CCN000003000000003000FN00000000020220701000003000NNM   20220425142554    2N0N  00000100000000607000000719532AF    HBYHVTB 005400370024
BI00B32AF    #JTB2073       202206247283-1150                HOUSING FEMALE ASS'Y     CCN000003000000003000FN00000000020220701000003000NNM   20220425142554    2N0N  00000100000000607000000719532AF    HBYHVTB 005400370024
BI00B32AF    #JTB2074       202207017283-1150                HOUSING FEMALE ASS'Y     CCN000003000000003000FN00000000020220701000003000NNM   20220425142554    2N0N  00000100000000607000000719532AF    HBYHVTB 005400370024
BI00B32AF    #JTB2071       202206107283-8123                CONNECTOR HOUSING        CCN000008000000008000FN00000000020220701000008000NNM   20220425142554    2N0N  00000400000000380000000531732AF    HBYHVTB 005600390023
BI00B32AF    #JTB2071       202206107286-7860-70             HOUSING MALE ASS'Y       CCN000002400000002400FN00000000020220701000002400NNM   20220425142554    2N0N  00000080000000951700001139832AF    HBYHVTB 005400370024
BI00B32AF    #JTB2072       202206177286-7860-70             HOUSING MALE ASS'Y       CCN000001200000001600FN00000000020220701000001600NNM   20220425142554    2N0N  00000080000000951700001139832AF    HBYHVTB 005400370024
BI00B32AF    #JTB2073       202206247286-7860-70             HOUSING MALE ASS'Y       CCN000001800000002400FN00000000020220701000002400NNM   20220425142554    2N0N  00000080000000951700001139832AF    HBYHVTB 005400370024
