BI00B1200    #7940TAP043    202201217158-6349                FRONT HOLDER             CCN000260000000260000FN00000000020210601000260000NNEM0020211203143802    2F0F  0000100000000068900000080621200    YCYC    005400370024
BI00A1200    7360T51816     202112097288-3337-30             HOUSING MALE             CCN000024000000000000FY00000000020210901000000000NNEQ0820211203132515    4N0N  0000015000000086700000101201200    YCYC    005400370024
BI00A1200    7360T51817     202202247288-3329-30             HOUSING MALE             CCN000036000000001500FN00000000020210901000001500NNED0420211203132659    4N0N  0000015000000086610000101111200    YCYC    005400370024
BI00A1200    7360T51817     202203037288-3329-30             HOUSING MALE             CCN000004500000004500FN00000000020210901000004500NNED0420211203132659    4N0N  0000015000000086610000101111200    YCYC    005400370024
BI00A1200    7360T51817     202203107288-3329-30             HOUSING MALE             CCN000004500000004500FN00000000020210901000004500NNED0420211203132659    4N0N  0000015000000086610000101111200    YCYC    005400370024
BI00A1200    7360T51817     202203177288-3329-30             HOUSING MALE             CCN000004500000004500FN00000000020210901000004500NNED0420211203132659    4N0N  0000015000000086610000101111200    YCYC    005400370024
BI00A1200    7360T51817     202203247288-3329-30             HOUSING MALE             CCN000004500000004500FN00000000020210901000004500NNED0420211203132659    4N0N  0000015000000086610000101111200    YCYC    005400370024
BI00A1200    7360T51817     202203317288-3329-30             HOUSING MALE             CCN000004500000004500FN00000000020210901000004500NNED0420211203132736    4N0N  0000015000000086610000101111200    YCYC    005400370024
BI00A1200    7360T51817     202204077288-3329-30             HOUSING MALE             CCN000004500000004500FN00000000020210901000004500NNED0420211203132736    4N0N  0000015000000086610000101111200    YCYC    005400370024
BI00A1200    7360T51817     202204217288-3329-30             HOUSING MALE             CCN000004500000004500FN00000000020210901000004500NNED0420211203132736    4N0N  0000015000000086610000101111200    YCYC    005400370024
BI00A1200    7360T51817     202204287288-3329-30             HOUSING MALE             CCN000003000000003000FN00000000020210901000003000NNED0420211203132736    4N0N  0000015000000086610000101111200    YCYC    005400370024
BI00A1200    7360T51816     202112167288-3337-30             HOUSING MALE             CCN000004500000000000FY00000000020210901000000000NNEQ0820211203132125    4N0N  0000015000000086700000101201200    YCYC    005400370024
BI00A1200    7360T51816     202112237288-3337-30             HOUSING MALE             CCN000004500000000000FY00000000020210901000000000NNEQ0820211203132125    4N0N  0000015000000086700000101201200    YCYC    005400370024
BI00A1200    7360T51816     202201067288-3337-30             HOUSING MALE             CCN000004500000000000FY00000000020210901000000000NNEQ0820211203132125    4N0N  0000015000000086700000101201200    YCYC    005400370024
BI00A1200    7360T51816     202201137288-3337-30             HOUSING MALE             CCN000004500000000000FY00000000020210901000000000NNEQ0820211203132125    4N0N  0000015000000086700000101201200    YCYC    005400370024
BI00A1200    7360T51816     202201207288-3337-30             HOUSING MALE             CCN000004500000000000FY00000000020210901000000000NNEQ0820211203132134    4N0N  0000015000000086700000101201200    YCYC    005400370024
BI00A1200    7360T51815     202112027289-3342                HOUSING FEMALE ASS'Y     CCN000009600000009600FY00000960020210901000000000NNED0420211203110559    1N0N  0000024000000068640000090141200    YCYC    005500360039
BI00A1200    8640T51901     202112087289-3342-30             HOUSING FEMALE ASS'Y     PCN000002400000002400FN00000000020211101000002400NNE00020211203122653    1N0N  0000024000000068640000090141200    YCYC    005500360039
BI00B1200    7360T51A01     202112097289-5979-30             HOUSING FEMALE ASS'Y     CCN000000252000000252FN00000000020211201000000252NNM00020211203135957    1N0N  0000002520000085470000106471200    YCYC    005400370024
BI00A1200    #7940TAP049    202112167158-6349                FRONT HOLDER             CCN000500000000500000FN00000000020211201000500000NNEM0020211203122653    2F0F  0000100000000068900000080621200    YCYC    005400370024
BI00A1200    #7940TAP050    202201137158-6349                FRONT HOLDER             CCN000500000000240000FN00000000020220101000240000NNEM0020211203122653    2F0F  0000100000000068900000080621200    YCYC    005400370024
BI00B1200    #7940TAP051    202202107158-6349                FRONT HOLDER             CCN000500000000500000FN00000000020220201000500000NNEM0020211203143813    2F0F  0000100000000068900000080621200    YCYC    005400370024
BI00B1200    #2399T51B18    202112097298-2459-60             LIF FEMALE ASSEMBLY      CCN000000168000000168FN00000000020220101000000168NNM00020211203162941    2N0N  0000001680000053400000072961200    YCYC    005400370024
BI00A1200    2399T51727     202112107288-6547                CONNECTOR MALE ASS'Y     PCN000031500000030750FN00000000020210901000030750NNMD0420211203155918    4N0N  0000007500000120530000134031200    YCYC    005400370024
BI00A1200    7360T51C01     202206167288-3330-30             HOUSING MALE             CCN000003000000003000FN00000000020220101000003000NNMM0020211203122653    4N0N  0000015000000086630000101121200    YCYC    005400370024
BI00A1200    7360T51C02     202206237288-3330-30             HOUSING MALE             CCN000001500000001500FN00000000020220101000001500NNMM0020211203122653    4N0N  0000015000000086630000101121200    YCYC    005400370024
BI00A1200    7360T51C01     202101147288-3331-30             HOUSING MALE             CCN000010500000010500FN00000000020220101000010500NNMM0020211203122653    4N0N  0000015000000086600000101091200    YCYC    005400370024
BI00A1200    #7940TAP050    202201067158-6349                FRONT HOLDER             CCN000260000000260000FN00000000020220101000260000NNEM0020211203122653    2F0F  0000100000000068900000080621200    YCYC    005400370024
BI00A1200    2399T51C28     202112077172-5402-30             SEAL RUBBER              CCN000008000000008000FN00000000020211201000008000NNE   20211203122653    1C0C  0000080000000045760000050601200    YCYC    004300270014
BI00A1200    2399T51C28     202112077172-5403-30             SEALED PACKING           CCN000004000000004000FN00000000020211201000004000NNE   20211203122653    1C0C  0000040000000065360000070171200    YCYC    004300270014
BI00B1200    O022B50223     202202107116-4111-02             TERMINAL                 CCN000022500000022500FN00000000020220301000022500NNE   20211203122653    4P0P  0000075000000052950000081771200    YCYC    006400630015
BI00B1200    Y022C50029     202202247174-1849-70             COVER                    CCN000025000000025000FN00000000020220301000025000NNM   20211203122653    1F0F  0000250000000062250000076191200    YCYC    005400370024
BI00B1200    Y022C50030     202202247298-1145-4W             SQUIB SUB ASS'Y          CCN000020000000020000FN00000000020220301000020000NNM   20211203122653    4N0N  0000100000000078790000094491200    YCYC    005400370024
BI00A1200    QA-21-C089     202112037289-0269                HOUSING SUB ASSEMBLY     PNN000011200000011200FY00001120020211201000000000NNE   20211203155919    1N0N  0000016000000100210000123451200    YCYC    005500360039
BI00A32AF    JTB112H        202112177297-2287-30             HOUSING MALE ASS'Y       CCN000001200000001200FN00000000020211201000001200NNED0120211203152333    4N0N  00000120000000473900000590032AF    HBYHVTB 005400370024
BI00B32AF    JTB2021        202201077017-1181-02             TERMINAL                 CCN000063000000063000FN00000000020220201000063000NNM   20211203145324    4P0P  00006300000001089900001266832AF    HBYHVTB 005100280028
BI00B32AF    JTB2024        202201287017-1181-02             TERMINAL                 CCN000063000000063000FN00000000020220201000063000NNM   20211203145324    4P0P  00006300000001089900001266832AF    HBYHVTB 005100280028
BI00B32AF    JTB2024        202201287017-1182-02             TERMINAL                 CCN000045000000045000FN00000000020220201000045000NNM   20211203145324    4P0P  00004500000001165500001318632AF    HBYHVTB 005100280028
BI00B32AF    JTB2025        202202047017-1182-02             TERMINAL                 CCN000135000000135000FN00000000020220201000135000NNM   20211203145324    4P0P  00004500000001165500001318632AF    HBYHVTB 005100280028
BI00B32AF    JTB2023        202201217114-1670-02             TERMINAL                 CCN000024000000024000FN00000000020220201000024000NNM   20211203145324    1P0P  00002400000000357600000645832AF    HBYHVTB 006400630015
BI00B32AF    JTB2024        202201287114-1670-02             TERMINAL                 CCN000024000000024000FN00000000020220201000024000NNM   20211203145324    1P0P  00002400000000357600000645832AF    HBYHVTB 006400630015
BI00B32AF    JTB2025        202202047114-1670-02             TERMINAL                 CCN000024000000024000FN00000000020220201000024000NNM   20211203145324    1P0P  00002400000000357600000645832AF    HBYHVTB 006400630015
BI00B32AF    JTB2025        202202047114-4231-02             TERMINAL                 CCN000036000000036000FN00000000020220201000036000NNM   20211203145324    4P0P  00001800000000554400000848032AF    HBYHVTB 006400630015
BI00B32AF    JTB2024        202201287114-4728-08             TERMINAL                 CCN000030000000030000FN00000000020220201000030000NNM   20211203145324    4P0P  00003000000000507000000801232AF    HBYHVTB 006400630015
BI00B32AF    JTB2025        202202047114-4728-08             TERMINAL                 CCN000030000000030000FN00000000020220201000030000NNM   20211203145324    4P0P  00003000000000507000000801232AF    HBYHVTB 006400630015
BI00B32AF    JTB2025        202202047114-5747-02             TERMINAL                 CCN000018000000018000FN00000000020220201000018000NNM   20211203145324    4P0P  00001800000000626400000920032AF    HBYHVTB 006400630015
BI00B32AF    JTB2025        202202047114-5748-02             TERMINAL                 CCN000060000000060000FN00000000020220201000060000NNM   20211203145324    4P0P  00001200000000444000000737632AF    HBYHVTB 006400630015
BI00B32AF    JTB2025        202202047116-1180                TERMINAL                 CCN000019500000019500FN00000000020220201000019500NNM   20211203145324    1P0P  00001950000000618200000903432AF    HBYHVTB 006400630015
BI00B32AF    JTB2024        202201287116-2891-02             TERMINAL                 CCN000015000000015000FN00000000020220201000015000NNM   20211203145324    4P0P  00001500000000982500001145932AF    HBYHVTB 005100280028
BI00B32AF    JTB2025        202202047116-2892-02             TERMINAL                 CCN000012000000012000FN00000000020220201000012000NNM   20211203145324    4P0P  00001200000000818400000981832AF    HBYHVTB 005100280028
BI00B32AF    JTB2025        202202047116-3153-08             TERMINAL                 CCN000027000000027000FN00000000020220201000027000NNM   20211203145324    4P0P  00002700000000461700000746932AF    HBYHVTB 006400630015
BI00B32AF    JTB2025        202202047116-3154-08             TERMINAL                 CCN000027000000027000FN00000000020220201000027000NNM   20211203145324    4P0P  00002700000000475200000760432AF    HBYHVTB 006400630015
BI00B32AF    JTB2024        202201287116-4025                TERMINAL                 CCN000016000000016000FN00000000020220201000016000NNM   20211203145324    4P0P  00001600000000644800000975132AF    HBYHVTB 006400630017
BI00B32AF    JTB2024        202201287116-4100-02             TERMINAL                 CCN000015000000015000FN00000000020220201000015000NNM   20211203145324    4P0P  00001500000000696000000990232AF    HBYHVTB 006400630015
BI00B32AF    JTB2024        202201287116-4111-02             TERMINAL                 CCN000007500000007500FN00000000020220201000007500NNM   20211203145324    4P0P  00000750000000529500000817732AF    HBYHVTB 006400630015
BI00B32AF    JTB2023        202201217116-4416-02             TERMINAL                 CCN000032000000032000FN00000000020220201000032000NNM   20211203145324    4P0P  00003200000000518400000847132AF    HBYHVTB 006400630017
BI00B32AF    JTB2024        202201287116-4416-02             TERMINAL                 CCN000064000000064000FN00000000020220201000064000NNM   20211203145324    4P0P  00003200000000518400000847132AF    HBYHVTB 006400630017
BI00B32AF    JTB2025        202202047116-4486-02             TERMINAL                 CCN000140000000140000FN00000000020220201000140000NNM   20211203145324    4P0P  00002800000000666400000995132AF    HBYHVTB 006400630017
BI00B32AF    JTB2024        202201287116-5044-02             TERMINAL                 CCN000048000000048000FN00000000020220201000048000NNM   20211203145324    4P0P  00001600000000641600000986332AF    HBYHVTB 006400630017
BI00B32AF    JTB2025        202202047116-5044-02             TERMINAL                 CCN000032000000032000FN00000000020220201000032000NNM   20211203145324    4P0P  00001600000000641600000986332AF    HBYHVTB 006400630017
BI00B32AF    JTB2025        202202047116-5097-02             TERMINAL                 CCN000022500000022500FN00000000020220201000022500NNM   20211203145324    4P0P  00002250000000531000000816232AF    HBYHVTB 006400630015
BI00B32AF    JTB2024        202201287116-5750-02             TERMINAL                 CCN000135000000135000FN00000000020220201000135000NNM   20211203145324    4P0P  00001500000000457500000742732AF    HBYHVTB 006400630015
BI00B32AF    JTB2025        202202047116-5750-02             TERMINAL                 CCN000135000000135000FN00000000020220201000135000NNM   20211203145324    4P0P  00001500000000457500000742732AF    HBYHVTB 006400630015
BI00B32AF    JTB2025        202202047116-5752-02             TERMINAL                 CCN000042000000042000FN00000000020220201000042000NNM   20211203145324    4P0P  00002100000000571200000856432AF    HBYHVTB 006400630015
BI00B32AF    JTB2025        202202047126-8855-02             TERMINAL                 CCN000006000000006000FN00000000020220201000006000NNM   20211203145324    4P0P  00000600000000510600000795832AF    HBYHVTB 006400630015
BI00B32AF    JTB2024        202201287158-3009-60             RUBBER STOPPER           CCN000060000000060000FN00000000020220201000060000NNM   20211203145324    1C0C  00002000000000338000000386232AF    HBYHVTB 002700430014
BI00B32AF    JTB2025        202202047158-3009-60             RUBBER STOPPER           CCN000060000000060000FN00000000020220201000060000NNM   20211203145324    1C0C  00002000000000338000000386232AF    HBYHVTB 002700430014
BI00B32AF    JTB2024        202201287158-3166-60             WIRE SEAL                CCN000040000000040000FN00000000020220201000040000NNM   20211203145324    1C0C  00004000000000104000000152432AF    HBYHVTB 002700430014
BI00B32AF    JTB2021        202201077158-3169-40             SEALING PLUG             CCN000040000000040000FN00000000020220201000040000NNM   20211203145324    1C0C  00004000000000156000000204132AF    HBYHVTB 004300260014
BI00B32AF    JTB2023        202201217158-3169-40             SEALING PLUG             CCN000080000000080000FN00000000020220201000080000NNM   20211203145324    1C0C  00004000000000156000000204132AF    HBYHVTB 004300260014
BI00B32AF    JTB2024        202201287158-3169-40             SEALING PLUG             CCN000040000000040000FN00000000020220201000040000NNM   20211203145324    1C0C  00004000000000156000000204132AF    HBYHVTB 004300260014
BI00B32AF    JTB2025        202202047158-3169-40             SEALING PLUG             CCN000040000000040000FN00000000020220201000040000NNM   20211203145324    1C0C  00004000000000156000000204132AF    HBYHVTB 004300260014
BI00B32AF    JTB2024        202201287196-1460-02             TERMINAL FEMALE          CCN000057000000057000FN00000000020220201000057000NNM   20211203145324    4P0P  00002850000000444600000729832AF    HBYHVTB 006400630015
BI00B32AF    JTB2025        202202047196-1460-02             TERMINAL FEMALE          CCN000057000000057000FN00000000020220201000057000NNM   20211203145324    4P0P  00002850000000444600000729832AF    HBYHVTB 006400630015
BI00B32AF    JTB2025        202202047196-1461-02             TERMINAL FEMALE          CCN000024000000024000FN00000000020220201000024000NNM   20211203145324    4P0P  00002400000000386400000671632AF    HBYHVTB 006400630015
BI00B32AF    JTB2021        202201077282-1024                HOUSING MALE             CCN000001000000001000FN00000000020220201000001000NNM   20211203145324    1N0N  00000100000000458000000580532AF    HBYHVTB 005400370024
BI00B32AF    JTB2023        202201217282-1024                HOUSING MALE             CCN000001000000001000FN00000000020220201000001000NNM   20211203145324    1N0N  00000100000000458000000580532AF    HBYHVTB 005400370024
BI00B32AF    JTB2021        202201077282-4576                HOUSING MALE ASS'Y       CCN000002400000002400FN00000000020220201000002400NNM   20211203145324    4N0N  00000240000000808800001028832AF    HBYHVTB 005500360039
BI00B32AF    JTB2023        202201217282-4576                HOUSING MALE ASS'Y       CCN000002400000002400FN00000000020220201000002400NNM   20211203145324    4N0N  00000240000000808800001028832AF    HBYHVTB 005500360039
BI00B32AF    JTB2024        202201287282-4576                HOUSING MALE ASS'Y       CCN000002400000002400FN00000000020220201000002400NNM   20211203145324    4N0N  00000240000000808800001028832AF    HBYHVTB 005500360039
BI00B32AF    JTB2025        202202047282-4576                HOUSING MALE ASS'Y       CCN000002400000002400FN00000000020220201000002400NNM   20211203145324    4N0N  00000240000000808800001028832AF    HBYHVTB 005500360039
BI00B32AF    JTB2023        202201217282-4577-90             HOUSING MALE ASS'Y       CCN000002400000002400FN00000000020220201000002400NNM   20211203145324    4N0N  00000240000000964800001174832AF    HBYHVTB 005500360039
BI00B32AF    JTB2024        202201287282-4577-90             HOUSING MALE ASS'Y       CCN000002400000002400FN00000000020220201000002400NNM   20211203145324    4N0N  00000240000000964800001174832AF    HBYHVTB 005500360039
BI00B32AF    JTB2021        202201077282-4578                HOUSING MALE ASS'Y       CCN000008400000008400FN00000000020220201000008400NNM   20211203145324    4N0N  00000120000000782600000992632AF    HBYHVTB 005500360039
BI00B32AF    JTB2023        202201217282-4578                HOUSING MALE ASS'Y       CCN000010800000010800FN00000000020220201000010800NNM   20211203145324    4N0N  00000120000000782600000992632AF    HBYHVTB 005500360039
BI00B32AF    JTB2024        202201287282-4578                HOUSING MALE ASS'Y       CCN000012000000012000FN00000000020220201000012000NNM   20211203145324    4N0N  00000120000000782600000992632AF    HBYHVTB 005500360039
BI00B32AF    JTB2025        202202047282-4578                HOUSING MALE ASS'Y       CCN000010800000010800FN00000000020220201000010800NNM   20211203145324    4N0N  00000120000000782600000992632AF    HBYHVTB 005500360039
BI00B32AF    JTB2021        202201077282-9391-30             HOUSING MALE ASS'Y       CCN000002400000002400FN00000000020220201000002400NNM   20211203145324    4N0N  00000120000001017600001237632AF    HBYHVTB 005500360039
BI00B32AF    JTB2023        202201217282-9391-30             HOUSING MALE ASS'Y       CCN000002400000002400FN00000000020220201000002400NNM   20211203145324    4N0N  00000120000001017600001237632AF    HBYHVTB 005500360039
BI00B32AF    JTB2024        202201287282-9391-30             HOUSING MALE ASS'Y       CCN000002400000002400FN00000000020220201000002400NNM   20211203145324    4N0N  00000120000001017600001237632AF    HBYHVTB 005500360039
BI00B32AF    JTB2025        202202047282-9391-30             HOUSING MALE ASS'Y       CCN000001200000001200FN00000000020220201000001200NNM   20211203145324    4N0N  00000120000001017600001237632AF    HBYHVTB 005500360039
BI00B32AF    JTB2023        202201217283-1028                CONNECTOR HOUSING        CCN000006000000006000FN00000000020220201000006000NNM   20211203145324    4N0N  00000600000000779000001019332AF    HBYHVTB 005600390040
BI00B32AF    JTB2024        202201287283-1028                CONNECTOR HOUSING        CCN000006000000006000FN00000000020220201000006000NNM   20211203145324    4N0N  00000600000000779000001019332AF    HBYHVTB 005600390040
BI00B32AF    JTB2025        202202047283-1028                CONNECTOR HOUSING        CCN000006000000006000FN00000000020220201000006000NNM   20211203145324    4N0N  00000600000000779000001019332AF    HBYHVTB 005600390040
BI00B32AF    JTB2024        202201287283-1156                CONNECTOR                CCN000002400000002400FN00000000020220201000002400NNM   20211203145324    4N0N  00000080000000877600001078032AF    HBYHVTB 005600390040
BI00B32AF    JTB2025        202202047283-1156                CONNECTOR                CCN000002400000002400FN00000000020220201000002400NNM   20211203145324    4N0N  00000080000000877600001078032AF    HBYHVTB 005600390040
BI00B32AF    JTB2023        202201217283-4576                HOUSING FEMALE ASS'Y     CCN000024000000024000FN00000000020220201000024000NNM   20211203145324    4N0N  00000480000000651300000871332AF    HBYHVTB 005500360039
BI00B32AF    JTB2024        202201287283-4576                HOUSING FEMALE ASS'Y     CCN000024000000024000FN00000000020220201000024000NNM   20211203145324    4N0N  00000480000000651300000871332AF    HBYHVTB 005500360039
BI00B32AF    JTB2025        202202047283-4576                HOUSING FEMALE ASS'Y     CCN000019200000019200FN00000000020220201000019200NNM   20211203145324    4N0N  00000480000000651300000871332AF    HBYHVTB 005500360039
BI00B32AF    JTB2023        202201217283-4577                CONNECTOR HOUSING        CCN000004800000004800FN00000000020220201000004800NNM   20211203145324    4N0N  00000480000000916800001136832AF    HBYHVTB 005500360039
BI00B32AF    JTB2024        202201287283-4577                CONNECTOR HOUSING        CCN000004800000004800FN00000000020220201000004800NNM   20211203145324    4N0N  00000480000000916800001136832AF    HBYHVTB 005500360039
BI00B32AF    JTB2021        202201077283-4855                CONNECTOR HOUSING        CCN000009600000009600FN00000000020220201000009600NNM   20211203145324    4N0N  00000240000001188400001400032AF    HBYHVTB 005500360039
BI00B32AF    JTB2023        202201217283-4855                CONNECTOR HOUSING        CCN000002400000002400FN00000000020220201000002400NNM   20211203145324    4N0N  00000240000001188400001400032AF    HBYHVTB 005500360039
BI00B32AF    JTB2024        202201287283-4855                CONNECTOR HOUSING        CCN000002400000002400FN00000000020220201000002400NNM   20211203145324    4N0N  00000240000001188400001400032AF    HBYHVTB 005500360039
BI00B32AF    JTB2024        202201287283-5830-30             CONNECTOR                CCN000006000000006000FN00000000020220201000006000NNM   20211203145324    1N0N  00000600000000954000001104032AF    HBYHVTB 005500360039
BI00B32AF    JTB2024        202201287283-5845                CONNECTOR HOUSING        CCN000030000000030000FN00000000020220201000030000NNM   20211203145324    1N0N  00000600000000444000000606332AF    HBYHVTB 005400370024
BI00B32AF    JTB2025        202202047283-5845                CONNECTOR HOUSING        CCN000018000000018000FN00000000020220201000018000NNM   20211203145324    1N0N  00000600000000444000000606332AF    HBYHVTB 005400370024
BI00B32AF    JTB2024        202201287283-5845-30             CONNECTOR HOUSING        CCN000006000000006000FN00000000020220201000006000NNM   20211203145324    1N0N  00000600000000444000000606332AF    HBYHVTB 005400370024
BI00B32AF    JTB2021        202201077283-5846                HOUSING                  CCN000027000000027000FN00000000020220201000027000NNM   20211203145324    1N0N  00000150000000885000001102032AF    HBYHVTB 005600390040
BI00B32AF    JTB2023        202201217283-5846                HOUSING                  CCN000009000000009000FN00000000020220201000009000NNM   20211203145324    1N0N  00000150000000885000001102032AF    HBYHVTB 005600390040
BI00B32AF    JTB2024        202201287283-5846                HOUSING                  CCN000009000000009000FN00000000020220201000009000NNM   20211203145324    1N0N  00000150000000885000001102032AF    HBYHVTB 005600390040
BI00B32AF    JTB2025        202202047283-5846                HOUSING                  CCN000010500000010500FN00000000020220201000010500NNM   20211203145324    1N0N  00000150000000885000001102032AF    HBYHVTB 005600390040
BI00B32AF    JTB2023        202201217286-1899                HOUSING SUB ASSEMBLY     CCN000007392000007392FN00000000020220201000007392NNM   20211203145324    4N0N  00000033600000814800001010832AF    HBYHVTB 005400370024
BI00B32AF    JTB2024        202201287286-1899                HOUSING SUB ASSEMBLY     CCN000008400000008400FN00000000020220201000008400NNM   20211203145324    4N0N  00000033600000814800001010832AF    HBYHVTB 005400370024
BI00B32AF    JTB2025        202202047286-1899                HOUSING SUB ASSEMBLY     CCN000009744000009744FN00000000020220201000009744NNM   20211203145324    4N0N  00000033600000814800001010832AF    HBYHVTB 005400370024
BI00B32AF    JTB2023        202201217286-1900                CONNECTOR HOUSING        CCN000004800000004800FN00000000020220201000004800NNM   20211203145324    4N0N  00000480000001161600001376632AF    HBYHVTB 005500360039
BI00B32AF    JTB2024        202201287286-1900                CONNECTOR HOUSING        CCN000009600000009600FN00000000020220201000009600NNM   20211203145324    4N0N  00000480000001161600001376632AF    HBYHVTB 005500360039
BI00B32AF    JTB2025        202202047286-1900                CONNECTOR HOUSING        CCN000009600000009600FN00000000020220201000009600NNM   20211203145324    4N0N  00000480000001161600001376632AF    HBYHVTB 005500360039
BI00B32AF    JTB2023        202201217286-4097                CONNECTOR MALE ASS'Y     CCN000006400000006400FN00000000020220201000006400NNM   20211203145324    1N0N  00000160000000768000000978032AF    HBYHVTB 005500360039
BI00B32AF    JTB2024        202201287286-4097                CONNECTOR MALE ASS'Y     CCN000006400000006400FN00000000020220201000006400NNM   20211203145324    1N0N  00000160000000768000000978032AF    HBYHVTB 005500360039
BI00B32AF    JTB2025        202202047286-4097                CONNECTOR MALE ASS'Y     CCN000004800000004800FN00000000020220201000004800NNM   20211203145324    1N0N  00000160000000768000000978032AF    HBYHVTB 005500360039
BI00B32AF    JTB2021        202201077286-4097-90             CONNECTOR MALE ASS'Y     CCN000001600000001600FN00000000020220201000001600NNM   20211203145324    1N0N  00000160000000768000000978032AF    HBYHVTB 005500360039
BI00B32AF    JTB2023        202201217286-4097-90             CONNECTOR MALE ASS'Y     CCN000003200000003200FN00000000020220201000003200NNM   20211203145324    1N0N  00000160000000768000000978032AF    HBYHVTB 005500360039
BI00B32AF    JTB2024        202201287286-4097-90             CONNECTOR MALE ASS'Y     CCN000001600000001600FN00000000020220201000001600NNM   20211203145324    1N0N  00000160000000768000000978032AF    HBYHVTB 005500360039
BI00B32AF    JTB2025        202202047286-4097-90             CONNECTOR MALE ASS'Y     CCN000001600000001600FN00000000020220201000001600NNM   20211203145324    1N0N  00000160000000768000000978032AF    HBYHVTB 005500360039
BI00B32AF    JTB2025        202202047287-1915                CONNECTOR ASS'Y          CCN000009600000009600FN00000000020220201000009600NNM   20211203145324    4N0N  00000240000000666500000923132AF    HBYHVTB 005500360039
BI00B32AF    JTB2021        202201077287-1915-30             CONNECTOR ASS'Y          CCN000004800000004800FN00000000020220201000004800NNM   20211203145324    4N0N  00000240000000666500000923132AF    HBYHVTB 005500360039
BI00B32AF    JTB2023        202201217287-1915-30             CONNECTOR ASS'Y          CCN000002400000002400FN00000000020220201000002400NNM   20211203145324    4N0N  00000240000000666500000923132AF    HBYHVTB 005500360039
BI00B32AF    JTB2024        202201287287-1915-30             CONNECTOR ASS'Y          CCN000004800000004800FN00000000020220201000004800NNM   20211203145324    4N0N  00000240000000666500000923132AF    HBYHVTB 005500360039
BI00B32AF    JTB2025        202202047287-1915-30             CONNECTOR ASS'Y          CCN000004800000004800FN00000000020220201000004800NNM   20211203145324    4N0N  00000240000000666500000923132AF    HBYHVTB 005500360039
BI00B32AF    JTB2021        202201077287-1915-40             CONNECTOR ASS'Y          CCN000002400000002400FN00000000020220201000002400NNM   20211203145324    4N0N  00000240000000666500000923132AF    HBYHVTB 005500360039
BI00B32AF    JTB2023        202201217287-1915-40             CONNECTOR ASS'Y          CCN000002400000002400FN00000000020220201000002400NNM   20211203145324    4N0N  00000240000000666500000923132AF    HBYHVTB 005500360039
BI00B32AF    JTB2024        202201287287-1915-40             CONNECTOR ASS'Y          CCN000002400000002400FN00000000020220201000002400NNM   20211203145324    4N0N  00000240000000666500000923132AF    HBYHVTB 005500360039
BI00B32AF    JTB2025        202202047287-1915-40             CONNECTOR ASS'Y          CCN000002400000002400FN00000000020220201000002400NNM   20211203145324    4N0N  00000240000000666500000923132AF    HBYHVTB 005500360039
BI00B32AF    JTB2021        202201077287-1917-40             CONNECTOR FEMALE         CCN000002400000002400FN00000000020220201000002400NNM   20211203145324    4N0N  00000240000001060800001312532AF    HBYHVTB 005500360039
BI00B32AF    JTB2023        202201217287-1917-40             CONNECTOR FEMALE         CCN000002400000002400FN00000000020220201000002400NNM   20211203145324    4N0N  00000240000001060800001312532AF    HBYHVTB 005500360039
BI00B32AF    JTB2024        202201287287-1917-40             CONNECTOR FEMALE         CCN000002400000002400FN00000000020220201000002400NNM   20211203145324    4N0N  00000240000001060800001312532AF    HBYHVTB 005500360039
BI00B32AF    JTB2021        202201077287-3885                HYBRID FEMALE ASS'Y      CCN000002400000002400FN00000000020220201000002400NNM   20211203145324    1N0N  00000240000001029600001249632AF    HBYHVTB 005500360039
BI00B32AF    JTB2023        202201217287-3885                HYBRID FEMALE ASS'Y      CCN000004800000004800FN00000000020220201000004800NNM   20211203145324    1N0N  00000240000001029600001249632AF    HBYHVTB 005500360039
BI00B32AF    JTB2024        202201287287-3885                HYBRID FEMALE ASS'Y      CCN000004800000004800FN00000000020220201000004800NNM   20211203145324    1N0N  00000240000001029600001249632AF    HBYHVTB 005500360039
BI00B32AF    JTB2025        202202047287-3885                HYBRID FEMALE ASS'Y      CCN000004800000004800FN00000000020220201000004800NNM   20211203145324    1N0N  00000240000001029600001249632AF    HBYHVTB 005500360039
BI00B32AF    JTB2023        202201217287-3885-30             HYBRID FEMALE ASS'Y      CCN000002400000002400FN00000000020220201000002400NNM   20211203145324    1N0N  00000240000001029600001249632AF    HBYHVTB 005500360039
BI00B32AF    JTB2023        202201217289-3342-30             HOUSING FEMALE ASS'Y     CCN000048000000048000FN00000000020220201000048000NNM   20211203145324    1N0N  00000240000000686400000901432AF    HBYHVTB 005500360039
BI00B32AF    JTB2024        202201287289-3342-30             HOUSING FEMALE ASS'Y     CCN000055200000055200FN00000000020220201000055200NNM   20211203145324    1N0N  00000240000000686400000901432AF    HBYHVTB 005500360039
BI00B32AF    JTB2025        202202047289-3342-30             HOUSING FEMALE ASS'Y     CCN000048000000048000FN00000000020220201000048000NNM   20211203145324    1N0N  00000240000000686400000901432AF    HBYHVTB 005500360039
BI00B32AF    JTB2024        202201287289-5011-30             HOUSING FEMALE ASS'Y     CCN000021600000021600FN00000000020220201000021600NNM   20211203145324    4N0N  00000240000001171700001368632AF    HBYHVTB 005500360039
BI00B32AF    JTB2025        202202047289-5011-30             HOUSING FEMALE ASS'Y     CCN000012000000012000FN00000000020220201000012000NNM   20211203145324    4N0N  00000240000001171700001368632AF    HBYHVTB 005500360039
BI00B32AF    JTB2021        202201077298-1865-30             HOUSING FEMALE ASS'Y     CCN000007200000007200FN00000000020220201000007200NNM   20211203145324    4N0N  00000240000001003200001204532AF    HBYHVTB 005500360039
BI00B32AF    JTB2023        202201217298-1865-30             HOUSING FEMALE ASS'Y     CCN000002400000002400FN00000000020220201000002400NNM   20211203145324    4N0N  00000240000001003200001204532AF    HBYHVTB 005500360039
BI00B32AF    JTB2024        202201287298-1865-30             HOUSING FEMALE ASS'Y     CCN000002400000002400FN00000000020220201000002400NNM   20211203145324    4N0N  00000240000001003200001204532AF    HBYHVTB 005500360039
BI00B32AF    JTB2025        202202047298-1865-30             HOUSING FEMALE ASS'Y     CCN000002400000002400FN00000000020220201000002400NNM   20211203145324    4N0N  00000240000001003200001204532AF    HBYHVTB 005500360039
BI00B32AF    JTB2021        202201077298-1869-30             HOUSING FEMALE ASS'Y     CCN000002400000002400FN00000000020220201000002400NNM   20211203145324    4N0N  00000120000000737000000939832AF    HBYHVTB 005500360039
BI00B32AF    JTB2023        202201217298-1869-30             HOUSING FEMALE ASS'Y     CCN000001200000001200FN00000000020220201000001200NNM   20211203145324    4N0N  00000120000000737000000939832AF    HBYHVTB 005500360039
BI00B32AF    JTB2024        202201287298-1869-30             HOUSING FEMALE ASS'Y     CCN000001200000001200FN00000000020220201000001200NNM   20211203145324    4N0N  00000120000000737000000939832AF    HBYHVTB 005500360039
BI00B32AF    JTB2021        202201077298-2278-30             HOUSING FEMALE ASS'Y     CCN000002400000002400FN00000000020220201000002400NNM   20211203145324    4N0N  00000240000001091700001295432AF    HBYHVTB 005500360039
BI00B32AF    JTB2021        202201077298-2509-30             HOUSING FEMALE ASS'Y     CCN000002400000002400FN00000000020220201000002400NNM   20211203145324    4N0N  00000120000000857500001062532AF    HBYHVTB 005500360039
BI00B32AF    JTB2023        202201217298-2509-30             HOUSING FEMALE ASS'Y     CCN000001200000001200FN00000000020220201000001200NNM   20211203145324    4N0N  00000120000000857500001062532AF    HBYHVTB 005500360039
BI00B32AF    JTB2024        202201287298-2509-30             HOUSING FEMALE ASS'Y     CCN000001200000001200FN00000000020220201000001200NNM   20211203145324    4N0N  00000120000000857500001062532AF    HBYHVTB 005500360039
BI00B32AF    JTB2021        202201077298-5955                CONNECTOR SUB ASSY       CCN000036000000036000FN00000000020220201000036000NNM   20211203145324    4N0N  00000720000001029600001253032AF    HBYHVTB 005500360039
BI00B32AF    JTB2023        202201217298-5955                CONNECTOR SUB ASSY       CCN000007200000007200FN00000000020220201000007200NNM   20211203145324    4N0N  00000720000001029600001253032AF    HBYHVTB 005500360039
BI00B32AF    JTB2024        202201287298-5955                CONNECTOR SUB ASSY       CCN000007200000007200FN00000000020220201000007200NNM   20211203145324    4N0N  00000720000001029600001253032AF    HBYHVTB 005500360039
BI00B32AF    JTB2025        202202047298-5955                CONNECTOR SUB ASSY       CCN000007200000007200FN00000000020220201000007200NNM   20211203145324    4N0N  00000720000001029600001253032AF    HBYHVTB 005500360039
BI00B32AF    JTB2024        202201287388-0314                CONNECTOR ASS'Y          CCN000008400000008400FN00000000020220201000008400NNM   20211203145324    4N0N  00000120000001038000001132332AF    HBYHVTB 005400370024
BI00B32AF    JTB2025        202202047388-0314                CONNECTOR ASS'Y          CCN000012000000012000FN00000000020220201000012000NNM   20211203145324    4N0N  00000120000001038000001132332AF    HBYHVTB 005400370024
BI00B32AF    JTB2024        202201287388-0317-60             CONNECTOR ASS'Y          CCN000007200000007200FN00000000020220201000007200NNM   20211203145324    4N0N  00000120000001034400001129332AF    HBYHVTB 005400370024
BI00B32AF    JTB2025        202202047388-0317-60             CONNECTOR ASS'Y          CCN000012000000012000FN00000000020220201000012000NNM   20211203145324    4N0N  00000120000001034400001129332AF    HBYHVTB 005400370024
BI00B32AF    #JTB2025       202202047047-5654-30             CLIP                     CCN000005000000005000FN00000000020220201000005000NNM   20211203145316    2F0F  00000500000000657000000825332AF    HBYHVTB 005500360039
BI00B32AF    #JTB2024       202201287116-4021                TERMINAL                 CCN000027000000027000FN00000000020220201000027000NNM   20211203145316    2F0P  00001350000000534600000868832AF    HBYHVTB 006400630015
BI00B32AF    #JTB2025       202202047116-4021                TERMINAL                 CCN000013500000013500FN00000000020220201000013500NNM   20211203145316    2F0P  00001350000000534600000868832AF    HBYHVTB 006400630015
BI00B32AF    #JTB2023       202201217123-6347                CONNECTOR HOUSING        CCN000004800000004800FN00000000020220201000004800NNM   20211203145316    2F0F  00000160000000647000000904832AF    HBYHVTB 005500360039
BI00B32AF    #JTB2024       202201287123-6347                CONNECTOR HOUSING        CCN000009600000009600FN00000000020220201000009600NNM   20211203145316    2F0F  00000160000000647000000904832AF    HBYHVTB 005500360039
BI00B32AF    #JTB2025       202202047123-6347                CONNECTOR HOUSING        CCN000008000000008000FN00000000020220201000008000NNM   20211203145316    2F0F  00000160000000647000000904832AF    HBYHVTB 005500360039
BI00B32AF    #JTB2021       202201077123-6423-30             CONNECTOR                CCN000004000000004000FN00000000020220201000004000NNM   20211203145316    2F0F  00000200000001002000001167632AF    HBYHVTB 005600390023
BI00B32AF    #JTB2023       202201217123-6423-30             CONNECTOR                CCN000004000000004000FN00000000020220201000004000NNM   20211203145316    2F0F  00000200000001002000001167632AF    HBYHVTB 005600390023
BI00B32AF    #JTB2024       202201287123-6423-30             CONNECTOR                CCN000004000000004000FN00000000020220201000004000NNM   20211203145316    2F0F  00000200000001002000001167632AF    HBYHVTB 005600390023
BI00B32AF    #JTB2025       202202047123-6423-30             CONNECTOR                CCN000004000000004000FN00000000020220201000004000NNM   20211203145316    2F0F  00000200000001002000001167632AF    HBYHVTB 005600390023
BI00B32AF    #JTB2023       202201217157-3992-90             CONNECTOR SEALED         CCN000040000000040000FN00000000020220201000040000NNM   20211203145316    2C0C  00004000000000300000000363332AF    HBYHVTB 002700430014
BI00B32AF    #JTB2025       202202047158-3005-80             RUBBER STOPPER           CCN000020000000020000FN00000000020220201000020000NNM   20211203145316    2H0H  00002000000000210000000268732AF    HBYHVTB 002700430014
BI00B32AF    #JTB2025       202202047158-3007-10             RUBBER STOPPER           CCN000020000000020000FN00000000020220201000020000NNM   20211203145316    2H0H  00002000000000308000000362732AF    HBYHVTB 002700430014
BI00B32AF    #JTB2024       202201287158-3120-90             CONNECTOR WIRE SEAL      CCN000040000000040000FN00000000020220201000040000NNM   20211203145316    2C0C  00002000000000136000000194032AF    HBYHVTB 002700430014
BI00B32AF    #JTB2025       202202047158-3120-90             CONNECTOR WIRE SEAL      CCN000040000000040000FN00000000020220201000040000NNM   20211203145316    2C0C  00002000000000136000000194032AF    HBYHVTB 002700430014
BI00B32AF    #JTB2024       202201287158-3121-80             WIRE SEAL                CCN000020000000020000FN00000000020220201000020000NNM   20211203145316    2C0C  00002000000000118000000187332AF    HBYHVTB 002700430014
BI00B32AF    #JTB2025       202202047158-3121-80             WIRE SEAL                CCN000020000000020000FN00000000020220201000020000NNM   20211203145316    2C0C  00002000000000118000000187332AF    HBYHVTB 002700430014
BI00B32AF    #JTB2023       202201217183-2413                CONNECTOR HOUSING        CCN000009600000009600FN00000000020220201000009600NNM   20211203145316    2F0F  00000480000000478100000760032AF    HBYHVTB 005500360039
BI00B32AF    #JTB2024       202201287183-2413                CONNECTOR HOUSING        CCN000014400000014400FN00000000020220201000014400NNM   20211203145316    2F0F  00000480000000478100000760032AF    HBYHVTB 005500360039
BI00B32AF    #JTB2025       202202047183-2413                CONNECTOR HOUSING        CCN000014400000014400FN00000000020220201000014400NNM   20211203145316    2F0F  00000480000000478100000760032AF    HBYHVTB 005500360039
BI00B32AF    #JTB2023       202201217183-2413-30             CONNECTOR HOUSING        CCN000004800000004800FN00000000020220201000004800NNM   20211203145316    2F0F  00000480000000477600000759532AF    HBYHVTB 005500360039
BI00B32AF    #JTB2024       202201287183-2413-30             CONNECTOR HOUSING        CCN000004800000004800FN00000000020220201000004800NNM   20211203145316    2F0F  00000480000000477600000759532AF    HBYHVTB 005500360039
BI00B32AF    #JTB2025       202202047183-2413-30             CONNECTOR HOUSING        CCN000004800000004800FN00000000020220201000004800NNM   20211203145316    2F0F  00000480000000477600000759532AF    HBYHVTB 005500360039
BI00B32AF    #JTB2021       202201077183-2414                CONNECTOR HOUSING        CCN000009600000009600FN00000000020220201000009600NNM   20211203145316    2F0F  00000480000000779200001061032AF    HBYHVTB 005500360039
BI00B32AF    #JTB2023       202201217183-2414                CONNECTOR HOUSING        CCN000009600000009600FN00000000020220201000009600NNM   20211203145316    2F0F  00000480000000779200001061032AF    HBYHVTB 005500360039
BI00B32AF    #JTB2024       202201287183-2414                CONNECTOR HOUSING        CCN000009600000009600FN00000000020220201000009600NNM   20211203145316    2F0F  00000480000000779200001061032AF    HBYHVTB 005500360039
BI00B32AF    #JTB2025       202202047183-2414                CONNECTOR HOUSING        CCN000004800000004800FN00000000020220201000004800NNM   20211203145316    2F0F  00000480000000779200001061032AF    HBYHVTB 005500360039
BI00B32AF    #JTB2021       202201077183-2415                CONNECTOR HOUSING        CCN000024000000024000FN00000000020220201000024000NNM   20211203145316    2F0F  00000480000000798200001091432AF    HBYHVTB 005500360039
BI00B32AF    #JTB2023       202201217183-2415                CONNECTOR HOUSING        CCN000009600000009600FN00000000020220201000009600NNM   20211203145316    2F0F  00000480000000798200001091432AF    HBYHVTB 005500360039
BI00B32AF    #JTB2024       202201287183-2415                CONNECTOR HOUSING        CCN000014400000014400FN00000000020220201000014400NNM   20211203145316    2F0F  00000480000000798200001091432AF    HBYHVTB 005500360039
BI00B32AF    #JTB2025       202202047183-2415                CONNECTOR HOUSING        CCN000009600000009600FN00000000020220201000009600NNM   20211203145316    2F0F  00000480000000798200001091432AF    HBYHVTB 005500360039
BI00B32AF    #JTB2023       202201217183-2418                CONNECTOR HOUSING        CCN000009600000009600FN00000000020220201000009600NNM   20211203145316    2F0F  00000480000000917000001477032AF    HBYHVTB 005500360039
BI00B32AF    #JTB2024       202201287183-2418                CONNECTOR HOUSING        CCN000014400000014400FN00000000020220201000014400NNM   20211203145316    2F0F  00000480000000917000001477032AF    HBYHVTB 005500360039
BI00B32AF    #JTB2025       202202047183-2418                CONNECTOR HOUSING        CCN000014400000014400FN00000000020220201000014400NNM   20211203145316    2F0F  00000480000000917000001477032AF    HBYHVTB 005500360039
BI00B32AF    #JTB2024       202201287183-2419-30             HOUSING                  CCN000004800000004800FN00000000020220201000004800NNM   20211203145316    2F0F  00000480000001064600001351832AF    HBYHVTB 005500360039
BI00B32AF    #JTB2021       202201077186-8851                HOUSING MALE             CCN000001000000001000FN00000000020220201000001000NNM   20211203145316    2F0F  00000100000000782200000906232AF    HBYHVTB 005400370024
BI00B32AF    #JTB2023       202201217186-8851                HOUSING MALE             CCN000005000000005000FN00000000020220201000005000NNM   20211203145316    2F0F  00000100000000782200000906232AF    HBYHVTB 005400370024
BI00B32AF    #JTB2024       202201287186-8851                HOUSING MALE             CCN000004000000004000FN00000000020220201000004000NNM   20211203145316    2F0F  00000100000000782200000906232AF    HBYHVTB 005400370024
BI00B32AF    #JTB2025       202202047186-8851                HOUSING MALE             CCN000005000000005000FN00000000020220201000005000NNM   20211203145316    2F0F  00000100000000782200000906232AF    HBYHVTB 005400370024
BI00B32AF    #JTB2023       202201217187-1616                HOUSING FEMALE           CCN000004000000004000FN00000000020220201000004000NNM   20211203145316    2F0F  00000400000001152000001262032AF    HBYHVTB 005500360039
BI00B32AF    #JTB2024       202201287187-1616                HOUSING FEMALE           CCN000004000000004000FN00000000020220201000004000NNM   20211203145316    2F0F  00000400000001152000001262032AF    HBYHVTB 005500360039
BI00B32AF    #JTB2024       202201287282-1030                CONNECTOR MALE ASS'Y     CCN000002000000002000FN00000000020220201000002000NNM   20211203145316    2N0N  00000100000000365000000487532AF    HBYHVTB 005400370024
BI00B32AF    #JTB2025       202202047282-1030                CONNECTOR MALE ASS'Y     CCN000003000000003000FN00000000020220201000003000NNM   20211203145316    2N0N  00000100000000365000000487532AF    HBYHVTB 005400370024
BI00B32AF    #JTB2021       202201077282-5528-70             HOUSING MALE ASS'Y       CCN000003000000003000FN00000000020220201000003000NNM   20211203145316    2N0N  00000100000000230000000339032AF    HBYHVTB 005400370024
BI00B32AF    #JTB2023       202201217282-5528-70             HOUSING MALE ASS'Y       CCN000010000000010000FN00000000020220201000010000NNM   20211203145316    2N0N  00000100000000230000000339032AF    HBYHVTB 005400370024
BI00B32AF    #JTB2024       202201287282-5528-70             HOUSING MALE ASS'Y       CCN000011000000011000FN00000000020220201000011000NNM   20211203145316    2N0N  00000100000000230000000339032AF    HBYHVTB 005400370024
BI00B32AF    #JTB2025       202202047282-5528-70             HOUSING MALE ASS'Y       CCN000010000000010000FN00000000020220201000010000NNM   20211203145316    2N0N  00000100000000230000000339032AF    HBYHVTB 005400370024
BI00B32AF    #JTB2023       202201217283-1150                HOUSING FEMALE ASS'Y     CCN000002000000002000FN00000000020220201000002000NNM   20211203145316    2N0N  00000100000000607000000719532AF    HBYHVTB 005400370024
BI00B32AF    #JTB2024       202201287283-1150                HOUSING FEMALE ASS'Y     CCN000002000000002000FN00000000020220201000002000NNM   20211203145316    2N0N  00000100000000607000000719532AF    HBYHVTB 005400370024
BI00B32AF    #JTB2025       202202047283-1150                HOUSING FEMALE ASS'Y     CCN000001000000001000FN00000000020220201000001000NNM   20211203145316    2N0N  00000100000000607000000719532AF    HBYHVTB 005400370024
BI00B32AF    #JTB2021       202201077283-8123                CONNECTOR HOUSING        CCN000008000000008000FN00000000020220201000008000NNM   20211203145316    2N0N  00000400000000380000000531732AF    HBYHVTB 005600390023
BI00B32AF    #JTB2023       202201217283-8123                CONNECTOR HOUSING        CCN000004000000004000FN00000000020220201000004000NNM   20211203145316    2N0N  00000400000000380000000531732AF    HBYHVTB 005600390023
BI00B32AF    #JTB2024       202201287283-8123                CONNECTOR HOUSING        CCN000008000000008000FN00000000020220201000008000NNM   20211203145316    2N0N  00000400000000380000000531732AF    HBYHVTB 005600390023
BI00B32AF    #JTB2025       202202047283-8123                CONNECTOR HOUSING        CCN000004000000004000FN00000000020220201000004000NNM   20211203145316    2N0N  00000400000000380000000531732AF    HBYHVTB 005600390023
BI00B32AF    #JTB2021       202201077287-1669                HOUSING FEMALE ASS'Y     CCN000016000000016000FN00000000020220201000016000NNM   20211203145316    2N0N  00000200000000788800000980832AF    HBYHVTB 005400370024
BI00B32AF    #JTB2023       202201217287-1669                HOUSING FEMALE ASS'Y     CCN000010000000010000FN00000000020220201000010000NNM   20211203145316    2N0N  00000200000000788800000980832AF    HBYHVTB 005400370024
BI00B32AF    #JTB2024       202201287287-1669                HOUSING FEMALE ASS'Y     CCN000010000000010000FN00000000020220201000010000NNM   20211203145316    2N0N  00000200000000788800000980832AF    HBYHVTB 005400370024
BI00B32AF    #JTB2025       202202047287-1669                HOUSING FEMALE ASS'Y     CCN000006000000006000FN00000000020220201000006000NNM   20211203145316    2N0N  00000200000000788800000980832AF    HBYHVTB 005400370024
BI00B32AF    #JTB2021       202201077287-1670                HOUSING FEMALE ASS'Y     CCN000014000000014000FN00000000020220201000014000NNM   20211203145316    2N0N  00000280000000953100001145132AF    HBYHVTB 005400370024
BI00B32AF    #JTB2023       202201217287-1670                HOUSING FEMALE ASS'Y     CCN000011200000011200FN00000000020220201000011200NNM   20211203145316    2N0N  00000280000000953100001145132AF    HBYHVTB 005400370024
BI00B32AF    #JTB2024       202201287287-1670                HOUSING FEMALE ASS'Y     CCN000011200000011200FN00000000020220201000011200NNM   20211203145316    2N0N  00000280000000953100001145132AF    HBYHVTB 005400370024
BI00B32AF    #JTB2025       202202047287-1670                HOUSING FEMALE ASS'Y     CCN000005600000005600FN00000000020220201000005600NNM   20211203145316    2N0N  00000280000000953100001145132AF    HBYHVTB 005400370024
BI00B32AF    #JTB2021       202201077287-1671                HOUSING FEMALE ASS'Y     CCN000014000000014000FN00000000020220201000014000NNM   20211203145316    2N0N  00000200000000782600000974632AF    HBYHVTB 005400370024
BI00B32AF    #JTB2023       202201217287-1671                HOUSING FEMALE ASS'Y     CCN000008000000008000FN00000000020220201000008000NNM   20211203145316    2N0N  00000200000000782600000974632AF    HBYHVTB 005400370024
BI00B32AF    #JTB2024       202201287287-1671                HOUSING FEMALE ASS'Y     CCN000010000000010000FN00000000020220201000010000NNM   20211203145316    2N0N  00000200000000782600000974632AF    HBYHVTB 005400370024
BI00B32AF    #JTB2025       202202047287-1671                HOUSING FEMALE ASS'Y     CCN000008000000008000FN00000000020220201000008000NNM   20211203145316    2N0N  00000200000000782600000974632AF    HBYHVTB 005400370024
BI00B32AF    #JTB2021       202201077287-1674                HYBRID FEMALE ASS'Y      CCN000018000000018000FN00000000020220201000018000NNM   20211203145316    2N0N  00000200000000810800001002832AF    HBYHVTB 005400370024
BI00B32AF    #JTB2023       202201217287-1674                HYBRID FEMALE ASS'Y      CCN000008000000008000FN00000000020220201000008000NNM   20211203145316    2N0N  00000200000000810800001002832AF    HBYHVTB 005400370024
BI00B32AF    #JTB2024       202201287287-1674                HYBRID FEMALE ASS'Y      CCN000010000000010000FN00000000020220201000010000NNM   20211203145316    2N0N  00000200000000810800001002832AF    HBYHVTB 005400370024
BI00B32AF    #JTB2025       202202047287-1674                HYBRID FEMALE ASS'Y      CCN000008000000008000FN00000000020220201000008000NNM   20211203145316    2N0N  00000200000000810800001002832AF    HBYHVTB 005400370024
BI00B32AF    #JTB2021       202201077287-7022                CONNECTOR FEMALE         CCN000002400000002400FN00000000020220201000002400NNM   20211203145316    2NON  00000120000000742800000853032AF    HBYHVTB 005400370024
BI00B32AF    #JTB2023       202201217287-7022                CONNECTOR FEMALE         CCN000001200000001200FN00000000020220201000001200NNM   20211203145316    2NON  00000120000000742800000853032AF    HBYHVTB 005400370024
BI00B32AF    #JTB2024       202201287287-7022                CONNECTOR FEMALE         CCN000002400000002400FN00000000020220201000002400NNM   20211203145316    2NON  00000120000000742800000853032AF    HBYHVTB 005400370024
BI00B32AF    #JTB2025       202202047287-7022                CONNECTOR FEMALE         CCN000001200000001200FN00000000020220201000001200NNM   20211203145316    2NON  00000120000000742800000853032AF    HBYHVTB 005400370024
BI00B32AF    #JTB2021       202201077297-1907-30             HOUSING MALE ASS'Y       CCN000006000000006000FN00000000020220201000006000NNM   20211203145316    2N0N  00000150000000451800000568032AF    HBYHVTB 005400370024
BI00B32AF    #JTB2023       202201217297-1907-30             HOUSING MALE ASS'Y       CCN000001500000001500FN00000000020220201000001500NNM   20211203145316    2N0N  00000150000000451800000568032AF    HBYHVTB 005400370024
BI00B32AF    #JTB2024       202201287297-1907-30             HOUSING MALE ASS'Y       CCN000001500000001500FN00000000020220201000001500NNM   20211203145316    2N0N  00000150000000451800000568032AF    HBYHVTB 005400370024
BI00B32AF    #JTB2025       202202047297-1907-30             HOUSING MALE ASS'Y       CCN000001500000001500FN00000000020220201000001500NNM   20211203145316    2N0N  00000150000000451800000568032AF    HBYHVTB 005400370024
BI00B32AF    #JTB2021       202201077297-1911-30             HOUSING MALE ASS'Y       CCN000003000000003000FN00000000020220201000003000NNM   20211203145316    2N0N  00000100000000486900000600132AF    HBYHVTB 005400370024
BI00B32AF    #JTB2023       202201217297-1911-30             HOUSING MALE ASS'Y       CCN000001000000001000FN00000000020220201000001000NNM   20211203145316    2N0N  00000100000000486900000600132AF    HBYHVTB 005400370024
BI00B32AF    #JTB2024       202201287297-1911-30             HOUSING MALE ASS'Y       CCN000001000000001000FN00000000020220201000001000NNM   20211203145316    2N0N  00000100000000486900000600132AF    HBYHVTB 005400370024
BI00A32BF    #TT2112AKMW    202212077154-8349-30             COVER                    CCN000000160000000160FN00000000020211201000000160NNED0020211203122653    2F0F  00000008000000561000000691032BF    TTTJYCD 005600390040
BI00B32B6    A72007         202201147288-5000                HOUSING MALE ASS'Y       CCN000044352000020160FN00000000020220401000020160NNMQ0420211203130142B6  1N0N  00000033600000825200001035232B6    AXARNE-M005400370024
BI00B32B6    A72007         202201147289-5000                HOUSING FEMALE ASS'Y     CCN000022800000012160FN00000000020220401000012160NNMQ0420211203130358B6  1N0N  00000030400000549000000759032B6    AXARNE-M005400370024
BI00B32B6    TAPSBU01Z      202112177289-3342-30             HOUSING FEMALE ASS'Y     CCN000002400000002400FN00000000020220101000002400NNED0720211203122653B6  1N0N  00000240000000686400000901432B6    AXARNE-M005500360039
BI00B32B6    A72007         202201217288-5000                HOUSING MALE ASS'Y       CCN000024192000024192FN00000000020220401000024192NNMD0420211203130136B6  1N0N  00000033600000825200001035232B6    AXARNE-M005400370024
BI00B32B6    A72007         202201217289-5000                HOUSING FEMALE ASS'Y     CCN000010640000010640FN00000000020220401000010640NNMD0420211203130405B6  1N0N  00000030400000549000000759032B6    AXARNE-M005400370024
BI00B32CA    PTA32063       202203107116-3153-02             TERMINAL FEMALE          CCN000528000000540000FN00000000020220601000540000NNE   20211203122653    4P0P  00002700000000459000000744232CA    YPYPY   006400630015
BI00B32CA    PTA32063       202203107116-3154-02             TERMINAL FEMALE          CCN000396000000405000FN00000000020220601000405000NNE   20211203122653    4P0P  00002700000000469800000755032CA    YPYPY   006400630015
BI00B32CA    PTA32063       202203107196-0510-02             TERMINAL                 CCN000096000000096000FN00000000020220601000096000NNE   20211203122653    4P0P  00002400000000871200001034632CA    YPYPY   002800510028
BI00B32CA    PTA32063       202203107196-0512-02             TERMINAL                 CCN000010000000021000FN00000000020220601000021000NNE   20211203122653    4P0P  00002100000000871500001034932CA    YPYPY   002800510028
BI00B32CA    PTA32063       202203107287-9323                UNSEALED HOUSING SUB     CCN000002400000002400FN00000000020220601000002400NNE   20211203122653    1N0N  00000240000000537600000690032CA    YPYPY   005600390023
BI00B32CA    PTA32063       202203107289-3342                HOUSING FEMALE ASS'Y     CCN000045600000045600FN00000000020220601000045600NNE   20211203122653    1N0N  00000240000000686400000901432CA    YPYPY   005500360039
BI00B32CA    PTA32063       202203107289-3342-30             HOUSING FEMALE ASS'Y     CCN000062400000062400FN00000000020220601000062400NNE   20211203122653    1N0N  00000240000000686400000901432CA    YPYPY   005500360039
BI00B32CA    PTA32063       202203107289-3342-90             HOUSING FEMALE ASS'Y     CCN000016800000016800FN00000000020220601000016800NNE   20211203122653    1N0N  00000240000000686400000901432CA    YPYPY   005500360039
BI00B32CA    #PTA32063      202203107154-5597-30             CASSETTE R/B             CCN000007200000007200FN00000000020220601000007200NNE   20211203122653    2F0F  00000080000000736000000952032CA    YPYPY   005500360039
BI00B32CA    #PTA32063      202203107189-3032-30             HOUSING FEMALE           CCN000006400000006400FN00000000020220601000006400NNE   20211203122653    2F0F  00000160000000801600001021632CA    YPYPY   005500360039
BI00B32CA    #PTA32063      202203107189-3034-30             HOUSING FEMALE           CCN000001600000001600FN00000000020220601000001600NNE   20211203122653    2F0F  00000160000000972800001192832CA    YPYPY   005500360039
BI00B32CA    PTA32061       202202247116-3153-02             TERMINAL FEMALE          CCN000528000000540000FN00000000020220601000540000NNE   20211203122653    4P0P  00002700000000459000000744232CA    YPYPY   006400630015
BI00B32CA    PTA32061       202202247116-3154-02             TERMINAL FEMALE          CCN000462000000486000FN00000000020220601000486000NNE   20211203122653    4P0P  00002700000000469800000755032CA    YPYPY   006400630015
BI00B32CA    PTA32061       202202247196-0510-02             TERMINAL                 CCN000096000000096000FN00000000020220601000096000NNE   20211203122653    4P0P  00002400000000871200001034632CA    YPYPY   002800510028
BI00B32CA    PTA32061       202202247196-0512-02             TERMINAL                 CCN000010000000021000FN00000000020220601000021000NNE   20211203122653    4P0P  00002100000000871500001034932CA    YPYPY   002800510028
BI00B32CA    PTA32061       202202247287-9323                UNSEALED HOUSING SUB     CCN000007200000007200FN00000000020220601000007200NNE   20211203122653    1N0N  00000240000000537600000690032CA    YPYPY   005600390023
BI00B32CA    PTA32061       202202247289-3342                HOUSING FEMALE ASS'Y     CCN000045600000045600FN00000000020220601000045600NNE   20211203122653    1N0N  00000240000000686400000901432CA    YPYPY   005500360039
BI00B32CA    PTA32061       202202247289-3342-30             HOUSING FEMALE ASS'Y     CCN000062400000062400FN00000000020220601000062400NNE   20211203122653    1N0N  00000240000000686400000901432CA    YPYPY   005500360039
BI00B32CA    PTA32061       202202247289-3342-90             HOUSING FEMALE ASS'Y     CCN000019200000019200FN00000000020220601000019200NNE   20211203122653    1N0N  00000240000000686400000901432CA    YPYPY   005500360039
BI00B32CA    #PTA32061      202202247154-5597-30             CASSETTE R/B             CCN000007200000007200FN00000000020220601000007200NNE   20211203122653    2F0F  00000080000000736000000952032CA    YPYPY   005500360039
BI00B32CA    #PTA32061      202202247189-3032-30             HOUSING FEMALE           CCN000008000000008000FN00000000020220601000008000NNE   20211203122653    2F0F  00000160000000801600001021632CA    YPYPY   005500360039
BI00B32CA    #PTA32061      202202247189-3033                HOUSING FEMALE           CCN000001600000001600FN00000000020220601000001600NNE   20211203122653    2F0F  00000160000001211200001431232CA    YPYPY   005500360039
BI00B32CA    #PTA32061      202202247189-3034-30             HOUSING FEMALE           CCN000003200000003200FN00000000020220601000003200NNE   20211203122653    2F0F  00000160000000972800001192832CA    YPYPY   005500360039
BI00B32CC    CTA32041       202201067283-4855                CONNECTOR HOUSING        CCN000006600000007200FN00000000020220401000007200NNE   20211203122653    4N0N  00000240000001188400001400032CC    BIYABCBU005500360039
BI00B32CC    CTA32041       202201067289-3342-30             HOUSING FEMALE ASS'Y     CCN000012000000012000FN00000000020220401000012000NNE   20211203122653    1N0N  00000240000000686400000901432CC    BIYABCBU005500360039
BI00B32CC    CTA32042-F041  202202037289-6868-30             SEALED ASSY FEMALE       CCN000027720000027720FN00000000020220401000027720NNE   20211203122653    4N0N  00000252000000839200001119232CC    BIYABCBU005500360039
BI00B32CC    #CTA32041      202201067283-8226-30             CONNECTOR                CCN000020000000020000FN00000000020220401000020000NNE   20211203122653    2N0N  00000200000000820000001008032CC    BIYABCBU005400370024
BI00B32CC    #CTA32041      202201067282-6457-40             CONNECTOR                CCN000000800000000800FN00000000020220401000000800NNE   20211203122653    2N0N  00000080000001137000001421332CC    BIYABCBU005600390040
BI00B32CC    #CTA32042-F041 202202037282-6457-40             CONNECTOR                CCN000000800000000800FN00000000020220401000000800NNE   20211203122653    2N0N  00000080000001137000001421332CC    BIYABCBU005600390040
BI00B32CH    SJ21124HMW     202112097C89-6868-30             SEALED ASSY FEMALE       CCN000017640000017640FN00000000020211201000017640NNM00020211203163312    4N0N  00000252000000839200001119232CH    SJSAMIJF005500360039
BI00B32CH    SJ2201A MW     202112167114-4032                TERMINAL                 CCN000007500000007500FN00000000020220101000007500NNE   20211203122653    4P0P  00000750000000735000001063632CH    SJSAMIJF006400630017
BI00B32CH    SJ2201A MW     202112167287-9234                JOINT CONNECTOR          CCN000009600000009600FN00000000020220101000009600NNE   20211203122653    4N0N  00000960000000893800001184832CH    SJSAMIJF005500360039
BI00B32CH    @SJ2201A MW    202112167283-1556                CONNECTOR ASS'Y          CCN000002400000002400FN00000000020220101000002400NNE   20211203122653    3N0N  00000240000000755000001014032CH    SJSAMIJF005500360039
BI00B32CH    #SJ2201ADMW    202112237283-8730-30             HOUSING FEMALE ASS'Y     CCN000002000000002000FN00000000020220101000002000NNE   20211203122653    2N0N  00000200000000794000000906532CH    SJSAMIJF005400370024
BI00B32CH    SJ2201AHMW     202112237298-5993-30             SEALED ASSY FEMALE       CCN000002184000002184FN00000000020220101000002184NNE   20211203122653    4N0N  00000218400000981500001290032CH    SJSAMIJF005500360039
BI00B32CH    SJ2201AMMW     202112237116-4115-02             TERMINAL                 CCN000008400000008400FN00000000020220101000008400NNE   20211203122653    4P0P  00000840000000593000000881232CH    SJSAMIJF006400630015
BI00B32CH    #SJ2201AMMW    202112237283-8123                CONNECTOR HOUSING        CCN000004000000004000FN00000000020220101000004000NNE   20211203122653    2N0N  00000400000000380000000531732CH    SJSAMIJF005600390023
BI00B32CH    SJ2201ASMW     202112237116-1471                TERMINAL                 CCN000015000000015000FN00000000020220101000015000NNE   20211203122653    4P0P  00001500000000579000000867232CH    SJSAMIJF006400630015
BI00B32CH    #SJ2201ASMW    202112237189-3032                HOUSING FEMALE           CCN000001600000001600FN00000000020220101000001600NNE   20211203122653    2F0F  00000160000000788400001018432CH    SJSAMIJF005500360039
BI00B32CH    SJ22022 MW     202201137017-1180-02             TERMINAL                 CCN000360000000360000FN00000000020220201000360000NNM   20211203122653    4P0P  00007200000001065600001229032CH    SJSAMIJF005100280028
BI00B32CH    SJ22023 MW     202201207017-1180-02             TERMINAL                 CCN000432000000432000FN00000000020220201000432000NNM   20211203122653    4P0P  00007200000001065600001229032CH    SJSAMIJF005100280028
BI00B32CH    SJ22024 MW     202201277017-1180-02             TERMINAL                 CCN000504000000504000FN00000000020220201000504000NNM   20211203122653    4P0P  00007200000001065600001229032CH    SJSAMIJF005100280028
BI00B32CH    SJ22022 MW     202201137017-1182-02             TERMINAL                 CCN000045000000045000FN00000000020220201000045000NNM   20211203122653    4P0P  00004500000001165500001318632CH    SJSAMIJF005100280028
BI00B32CH    SJ22023 MW     202201207017-1182-02             TERMINAL                 CCN000135000000135000FN00000000020220201000135000NNM   20211203122653    4P0P  00004500000001165500001318632CH    SJSAMIJF005100280028
BI00B32CH    SJ22024 MW     202201277017-1182-02             TERMINAL                 CCN000135000000135000FN00000000020220201000135000NNM   20211203122653    4P0P  00004500000001165500001318632CH    SJSAMIJF005100280028
BI00B32CH    SJ22023 MW     202201207017-1183-02             TERMINAL                 CCN000027000000027000FN00000000020220201000027000NNM   20211203122653    4P0P  00002700000001139400001307432CH    SJSAMIJF005100280028
BI00B32CH    SJ22024 MW     202201277017-1183-02             TERMINAL                 CCN000027000000027000FN00000000020220201000027000NNM   20211203122653    4P0P  00002700000001139400001307432CH    SJSAMIJF005100280028
BI00B32CH    SJ22021 MW     202201067114-4020                TERMINAL                 CCN000042000000042000FN00000000020220201000042000NNM   20211203122653    4P0P  00002100000000875700001169332CH    SJSAMIJF006400630015
BI00B32CH    SJ22022 MW     202201137114-4020                TERMINAL                 CCN000042000000042000FN00000000020220201000042000NNM   20211203122653    4P0P  00002100000000875700001169332CH    SJSAMIJF006400630015
BI00B32CH    SJ22023 MW     202201207114-4020                TERMINAL                 CCN000042000000042000FN00000000020220201000042000NNM   20211203122653    4P0P  00002100000000875700001169332CH    SJSAMIJF006400630015
BI00B32CH    SJ22024 MW     202201277114-4020                TERMINAL                 CCN000042000000042000FN00000000020220201000042000NNM   20211203122653    4P0P  00002100000000875700001169332CH    SJSAMIJF006400630015
BI00B32CH    SJ22024 MW     202201277114-4021                TERMINAL                 CCN000015000000015000FN00000000020220201000015000NNM   20211203122653    4P0P  00001500000000670500000964132CH    SJSAMIJF006400630015
BI00B32CH    SJ22023 MW     202201207114-4030                TERMINAL                 CCN000010500000010500FN00000000020220201000010500NNM   20211203122653    4P0P  00001050000000926100001254732CH    SJSAMIJF006400630017
BI00B32CH    SJ22024 MW     202201277114-4030                TERMINAL                 CCN000010500000010500FN00000000020220201000010500NNM   20211203122653    4P0P  00001050000000926100001254732CH    SJSAMIJF006400630017
BI00B32CH    SJ22021 MW     202201067114-4032                TERMINAL                 CCN000015000000015000FN00000000020220201000015000NNM   20211203122653    4P0P  00000750000000735000001063632CH    SJSAMIJF006400630017
BI00B32CH    SJ22022 MW     202201137114-4032                TERMINAL                 CCN000007500000007500FN00000000020220201000007500NNM   20211203122653    4P0P  00000750000000735000001063632CH    SJSAMIJF006400630017
BI00B32CH    SJ22023 MW     202201207114-4032                TERMINAL                 CCN000015000000015000FN00000000020220201000015000NNM   20211203122653    4P0P  00000750000000735000001063632CH    SJSAMIJF006400630017
BI00B32CH    SJ22024 MW     202201277114-4032                TERMINAL                 CCN000015000000015000FN00000000020220201000015000NNM   20211203122653    4P0P  00000750000000735000001063632CH    SJSAMIJF006400630017
BI00B32CH    SJ22023 MW     202201207114-4111-02             TERMINAL                 CCN000012000000012000FN00000000020220201000012000NNM   20211203122653    4P0P  00001200000000758400001087032CH    SJSAMIJF006400630017
BI00B32CH    SJ22024 MW     202201277114-4111-02             TERMINAL                 CCN000012000000012000FN00000000020220201000012000NNM   20211203122653    4P0P  00001200000000758400001087032CH    SJSAMIJF006400630017
BI00B32CH    SJ22023 MW     202201207114-4112-02             TERMINAL                 CCN000009000000009000FN00000000020220201000009000NNM   20211203122653    4P0P  00000900000000598500000927132CH    SJSAMIJF006400630017
BI00B32CH    SJ22024 MW     202201277114-4112-02             TERMINAL                 CCN000009000000009000FN00000000020220201000009000NNM   20211203122653    4P0P  00000900000000598500000927132CH    SJSAMIJF006400630017
BI00B32CH    SJ22022 MW     202201137114-4728-02             TERMINAL                 CCN000060000000060000FN00000000020220201000060000NNM   20211203122653    4P0P  00003000000000510000000804232CH    SJSAMIJF006400630015
BI00B32CH    SJ22023 MW     202201207114-4728-02             TERMINAL                 CCN000060000000060000FN00000000020220201000060000NNM   20211203122653    4P0P  00003000000000510000000804232CH    SJSAMIJF006400630015
BI00B32CH    SJ22024 MW     202201277114-4728-02             TERMINAL                 CCN000090000000090000FN00000000020220201000090000NNM   20211203122653    4P0P  00003000000000510000000804232CH    SJSAMIJF006400630015
BI00B32CH    SJ22023 MW     202201207114-4729-02             TERMINAL                 CCN000024000000030000FN00000000020220201000030000NNM   20211203122653    4P0P  00003000000000516000000810232CH    SJSAMIJF006400630015
BI00B32CH    SJ22024 MW     202201277114-4729-02             TERMINAL                 CCN000024000000030000FN00000000020220201000030000NNM   20211203122653    4P0P  00003000000000516000000810232CH    SJSAMIJF006400630015
BI00B32CH    SJ22021 MW     202201067114-5746-02             TERMINAL                 CCN000021000000021000FN00000000020220201000021000NNM   20211203122653    4P0P  00002100000000695100000988732CH    SJSAMIJF006400630015
BI00B32CH    SJ22022 MW     202201137114-5746-02             TERMINAL                 CCN000021000000021000FN00000000020220201000021000NNM   20211203122653    4P0P  00002100000000695100000988732CH    SJSAMIJF006400630015
BI00B32CH    SJ22023 MW     202201207114-5746-02             TERMINAL                 CCN000021000000021000FN00000000020220201000021000NNM   20211203122653    4P0P  00002100000000695100000988732CH    SJSAMIJF006400630015
BI00B32CH    SJ22024 MW     202201277114-5746-02             TERMINAL                 CCN000021000000021000FN00000000020220201000021000NNM   20211203122653    4P0P  00002100000000695100000988732CH    SJSAMIJF006400630015
BI00B32CH    SJ22021 MW     202201067114-5747-02             TERMINAL                 CCN000054000000054000FN00000000020220201000054000NNM   20211203122653    4P0P  00001800000000626400000920032CH    SJSAMIJF006400630015
BI00B32CH    SJ22022 MW     202201137114-5747-02             TERMINAL                 CCN000054000000054000FN00000000020220201000054000NNM   20211203122653    4P0P  00001800000000626400000920032CH    SJSAMIJF006400630015
BI00B32CH    SJ22023 MW     202201207114-5747-02             TERMINAL                 CCN000072000000072000FN00000000020220201000072000NNM   20211203122653    4P0P  00001800000000626400000920032CH    SJSAMIJF006400630015
BI00B32CH    SJ22024 MW     202201277114-5747-02             TERMINAL                 CCN000072000000072000FN00000000020220201000072000NNM   20211203122653    4P0P  00001800000000626400000920032CH    SJSAMIJF006400630015
BI00B32CH    SJ22023 MW     202201207114-5748-02             TERMINAL                 CCN000012000000012000FN00000000020220201000012000NNM   20211203122653    4P0P  00001200000000444000000737632CH    SJSAMIJF006400630015
BI00B32CH    SJ22024 MW     202201277114-5748-02             TERMINAL                 CCN000012000000012000FN00000000020220201000012000NNM   20211203122653    4P0P  00001200000000444000000737632CH    SJSAMIJF006400630015
BI00B32CH    SJ22022 MW     202201137114-5753-02             TERMINAL                 CCN000027000000027000FN00000000020220201000027000NNM   20211203122653    4P0P  00002700000000847800001141432CH    SJSAMIJF006400630015
BI00B32CH    SJ22021 MW     202201067116-2640                TERMINAL                 CCN000018000000018000FN00000000020220201000018000NNM   20211203122653    4P0P  00001800000001018800001196632CH    SJSAMIJF005100280028
BI00B32CH    SJ22024 MW     202201277116-2640                TERMINAL                 CCN000018000000018000FN00000000020220201000018000NNM   20211203122653    4P0P  00001800000001018800001196632CH    SJSAMIJF005100280028
BI00B32CH    SJ22021 MW     202201067116-2641                TERMINAL                 CCN000018000000018000FN00000000020220201000018000NNM   20211203122653    4P0P  00001800000001161000001344632CH    SJSAMIJF005100280028
BI00B32CH    SJ22024 MW     202201277116-2641                TERMINAL                 CCN000018000000018000FN00000000020220201000018000NNM   20211203122653    4P0P  00001800000001161000001344632CH    SJSAMIJF005100280028
BI00B32CH    SJ22022 MW     202201137116-4020                TERMINAL                 CCN000013500000013500FN00000000020220201000013500NNM   20211203122653    4P0P  00001350000000513000000798232CH    SJSAMIJF006400630015
BI00B32CH    SJ22023 MW     202201207116-4020                TERMINAL                 CCN000013500000013500FN00000000020220201000013500NNM   20211203122653    4P0P  00001350000000513000000798232CH    SJSAMIJF006400630015
BI00B32CH    SJ22024 MW     202201277116-4020                TERMINAL                 CCN000027000000027000FN00000000020220201000027000NNM   20211203122653    4P0P  00001350000000513000000798232CH    SJSAMIJF006400630015
BI00B32CH    SJ22022 MW     202201137116-4025                TERMINAL                 CCN000016000000016000FN00000000020220201000016000NNM   20211203122653    4P0P  00001600000000644800000975132CH    SJSAMIJF006400630017
BI00B32CH    SJ22024 MW     202201277116-4025                TERMINAL                 CCN000016000000016000FN00000000020220201000016000NNM   20211203122653    4P0P  00001600000000644800000975132CH    SJSAMIJF006400630017
BI00B32CH    SJ22021 MW     202201067116-4028-08             TERMINAL FEMALE          CCN000080000000080000FN00000000020220201000080000NNM   20211203122653    4P0P  00001600000000652800000981532CH    SJSAMIJF006400630017
BI00B32CH    SJ22022 MW     202201137116-4028-08             TERMINAL FEMALE          CCN000128000000128000FN00000000020220201000128000NNM   20211203122653    4P0P  00001600000000652800000981532CH    SJSAMIJF006400630017
BI00B32CH    SJ22023 MW     202201207116-4028-08             TERMINAL FEMALE          CCN000128000000128000FN00000000020220201000128000NNM   20211203122653    4P0P  00001600000000652800000981532CH    SJSAMIJF006400630017
BI00B32CH    SJ22024 MW     202201277116-4028-08             TERMINAL FEMALE          CCN000144000000144000FN00000000020220201000144000NNM   20211203122653    4P0P  00001600000000652800000981532CH    SJSAMIJF006400630017
BI00B32CH    SJ22023 MW     202201207116-4031                TERMINAL                 CCN000015000000015000FN00000000020220201000015000NNM   20211203122653    4P0P  00000750000000619500000904732CH    SJSAMIJF006400630015
BI00B32CH    SJ22024 MW     202201277116-4031                TERMINAL                 CCN000030000000030000FN00000000020220201000030000NNM   20211203122653    4P0P  00000750000000619500000904732CH    SJSAMIJF006400630015
BI00B32CH    SJ22022 MW     202201137116-4032                TERMINAL                 CCN000048000000048000FN00000000020220201000048000NNM   20211203122653    4P0P  00000600000000532800000818032CH    SJSAMIJF006400630015
BI00B32CH    SJ22023 MW     202201207116-4032                TERMINAL                 CCN000126000000126000FN00000000020220201000126000NNM   20211203122653    4P0P  00000600000000532800000818032CH    SJSAMIJF006400630015
BI00B32CH    SJ22024 MW     202201277116-4032                TERMINAL                 CCN000120000000120000FN00000000020220201000120000NNM   20211203122653    4P0P  00000600000000532800000818032CH    SJSAMIJF006400630015
BI00B32CH    SJ22021 MW     202201067116-4037                TERMINAL                 CCN000012000000012000FN00000000020220201000012000NNM   20211203122653    4P0P  00000600000000600000000894232CH    SJSAMIJF006400630015
BI00B32CH    SJ22022 MW     202201137116-4037                TERMINAL                 CCN000042000000042000FN00000000020220201000042000NNM   20211203122653    4P0P  00000600000000600000000894232CH    SJSAMIJF006400630015
BI00B32CH    SJ22023 MW     202201207116-4037                TERMINAL                 CCN000054000000054000FN00000000020220201000054000NNM   20211203122653    4P0P  00000600000000600000000894232CH    SJSAMIJF006400630015
BI00B32CH    SJ22024 MW     202201277116-4037                TERMINAL                 CCN000048000000048000FN00000000020220201000048000NNM   20211203122653    4P0P  00000600000000600000000894232CH    SJSAMIJF006400630015
BI00B32CH    SJ22023 MW     202201207116-4231-02             TERMINAL                 CCN000078000000078000FN00000000020220201000078000NNM   20211203122653    4P0P  00002600000000683800001012532CH    SJSAMIJF006400630017
BI00B32CH    SJ22024 MW     202201277116-4231-02             TERMINAL                 CCN000078000000078000FN00000000020220201000078000NNM   20211203122653    4P0P  00002600000000683800001012532CH    SJSAMIJF006400630017
BI00B32CH    SJ22022 MW     202201137116-4415-02             TERMINAL                 CCN000684000000684000FN00000000020220201000684000NNM   20211203122653    4P0P  00003800000000596600000925732CH    SJSAMIJF006400630017
BI00B32CH    SJ22023 MW     202201207116-4415-02             TERMINAL                 CCN000836000000836000FN00000000020220201000836000NNM   20211203122653    4P0P  00003800000000596600000925732CH    SJSAMIJF006400630017
BI00B32CH    SJ22024 MW     202201277116-4415-02             TERMINAL                 CCN000836000000836000FN00000000020220201000836000NNM   20211203122653    4P0P  00003800000000596600000925732CH    SJSAMIJF006400630017
BI00B32CH    SJ22022 MW     202201137116-4416-02             TERMINAL                 CCN000032000000032000FN00000000020220201000032000NNM   20211203122653    4P0P  00003200000000518400000847132CH    SJSAMIJF006400630017
BI00B32CH    SJ22023 MW     202201207116-4416-02             TERMINAL                 CCN000256000000256000FN00000000020220201000256000NNM   20211203122653    4P0P  00003200000000518400000847132CH    SJSAMIJF006400630017
BI00B32CH    SJ22024 MW     202201277116-4416-02             TERMINAL                 CCN000288000000288000FN00000000020220201000288000NNM   20211203122653    4P0P  00003200000000518400000847132CH    SJSAMIJF006400630017
BI00B32CH    SJ22023 MW     202201207116-4486-02             TERMINAL                 CCN000084000000084000FN00000000020220201000084000NNM   20211203122653    4P0P  00002800000000666400000995132CH    SJSAMIJF006400630017
BI00B32CH    SJ22024 MW     202201277116-4486-02             TERMINAL                 CCN000112000000112000FN00000000020220201000112000NNM   20211203122653    4P0P  00002800000000666400000995132CH    SJSAMIJF006400630017
BI00B32CH    SJ22021 MW     202201067116-5041-02             TERMINAL                 CCN000105000000105000FN00000000020220201000105000NNM   20211203122653    4P0P  00001500000000583500000868732CH    SJSAMIJF006400630015
BI00B32CH    SJ22022 MW     202201137116-5041-02             TERMINAL                 CCN000330000000330000FN00000000020220201000330000NNM   20211203122653    4P0P  00001500000000583500000868732CH    SJSAMIJF006400630015
BI00B32CH    SJ22023 MW     202201207116-5041-02             TERMINAL                 CCN000330000000330000FN00000000020220201000330000NNM   20211203122653    4P0P  00001500000000583500000868732CH    SJSAMIJF006400630015
BI00B32CH    SJ22024 MW     202201277116-5041-02             TERMINAL                 CCN000345000000345000FN00000000020220201000345000NNM   20211203122653    4P0P  00001500000000583500000868732CH    SJSAMIJF006400630015
BI00B32CH    SJ22023 MW     202201207116-5042-02             TERMINAL                 CCN000094500000094500FN00000000020220201000094500NNM   20211203122653    4P0P  00001350000000560300000845532CH    SJSAMIJF006400630015
BI00B32CH    SJ22024 MW     202201277116-5042-02             TERMINAL                 CCN000189000000189000FN00000000020220201000189000NNM   20211203122653    4P0P  00001350000000560300000845532CH    SJSAMIJF006400630015
BI00B32CH    SJ22022 MW     202201137116-5043-02             TERMINAL FEMALE          CCN000144000000144000FN00000000020220201000144000NNM   20211203122653    4P0P  00001200000000559200000844432CH    SJSAMIJF006400630015
BI00B32CH    SJ22023 MW     202201207116-5043-02             TERMINAL FEMALE          CCN000156000000156000FN00000000020220201000156000NNM   20211203122653    4P0P  00001200000000559200000844432CH    SJSAMIJF006400630015
BI00B32CH    SJ22024 MW     202201277116-5043-02             TERMINAL FEMALE          CCN000168000000168000FN00000000020220201000168000NNM   20211203122653    4P0P  00001200000000559200000844432CH    SJSAMIJF006400630015
BI00B32CH    SJ22022 MW     202201137116-5044-02             TERMINAL                 CCN000400000000400000FN00000000020220201000400000NNM   20211203122653    4P0P  00001600000000641600000986332CH    SJSAMIJF006400630017
BI00B32CH    SJ22023 MW     202201207116-5044-02             TERMINAL                 CCN000512000000512000FN00000000020220201000512000NNM   20211203122653    4P0P  00001600000000641600000986332CH    SJSAMIJF006400630017
BI00B32CH    SJ22024 MW     202201277116-5044-02             TERMINAL                 CCN000528000000528000FN00000000020220201000528000NNM   20211203122653    4P0P  00001600000000641600000986332CH    SJSAMIJF006400630017
BI00B32CH    SJ22022 MW     202201137116-5045-02             TERMINAL                 CCN000160000000160000FN00000000020220201000160000NNM   20211203122653    4P0P  00001600000000678400001007132CH    SJSAMIJF006400630017
BI00B32CH    SJ22023 MW     202201207116-5045-02             TERMINAL                 CCN000256000000256000FN00000000020220201000256000NNM   20211203122653    4P0P  00001600000000678400001007132CH    SJSAMIJF006400630017
BI00B32CH    SJ22024 MW     202201277116-5045-02             TERMINAL                 CCN000256000000256000FN00000000020220201000256000NNM   20211203122653    4P0P  00001600000000678400001007132CH    SJSAMIJF006400630017
BI00B32CH    SJ22024 MW     202201277116-5046-02             TERMINAL                 CCN000012000000012000FN00000000020220201000012000NNM   20211203122653    4P0P  00001200000000544800000873532CH    SJSAMIJF006400630017
BI00B32CH    SJ22022 MW     202201137116-5750-02             TERMINAL                 CCN000390000000390000FN00000000020220201000390000NNM   20211203122653    4P0P  00001500000000457500000742732CH    SJSAMIJF006400630015
BI00B32CH    SJ22023 MW     202201207116-5750-02             TERMINAL                 CCN000495000000495000FN00000000020220201000495000NNM   20211203122653    4P0P  00001500000000457500000742732CH    SJSAMIJF006400630015
BI00B32CH    SJ22024 MW     202201277116-5750-02             TERMINAL                 CCN000495000000495000FN00000000020220201000495000NNM   20211203122653    4P0P  00001500000000457500000742732CH    SJSAMIJF006400630015
BI00B32CH    SJ22022 MW     202201137116-5752-02             TERMINAL                 CCN000042000000042000FN00000000020220201000042000NNM   20211203122653    4P0P  00002100000000571200000856432CH    SJSAMIJF006400630015
BI00B32CH    SJ22023 MW     202201207116-5752-02             TERMINAL                 CCN000084000000084000FN00000000020220201000084000NNM   20211203122653    4P0P  00002100000000571200000856432CH    SJSAMIJF006400630015
BI00B32CH    SJ22024 MW     202201277116-5752-02             TERMINAL                 CCN000084000000084000FN00000000020220201000084000NNM   20211203122653    4P0P  00002100000000571200000856432CH    SJSAMIJF006400630015
BI00B32CH    SJ22022 MW     202201137116-6041                TERMINAL                 CCN000058500000058500FN00000000020220201000058500NNM   20211203122653    4P0P  00000450000000716000001009632CH    SJSAMIJF006400630015
BI00B32CH    SJ22023 MW     202201207116-6041                TERMINAL                 CCN000139500000139500FN00000000020220201000139500NNM   20211203122653    4P0P  00000450000000716000001009632CH    SJSAMIJF006400630015
BI00B32CH    SJ22024 MW     202201277116-6041                TERMINAL                 CCN000103500000103500FN00000000020220201000103500NNM   20211203122653    4P0P  00000450000000716000001009632CH    SJSAMIJF006400630015
BI00B32CH    SJ22022 MW     202201137116-6042                TERMINAL                 CCN000042000000042000FN00000000020220201000042000NNM   20211203122653    4P0P  00000300000000523800000856132CH    SJSAMIJF006400630015
BI00B32CH    SJ22023 MW     202201207116-6042                TERMINAL                 CCN000087000000087000FN00000000020220201000087000NNM   20211203122653    4P0P  00000300000000523800000856132CH    SJSAMIJF006400630015
BI00B32CH    SJ22024 MW     202201277116-6042                TERMINAL                 CCN000072000000072000FN00000000020220201000072000NNM   20211203122653    4P0P  00000300000000523800000856132CH    SJSAMIJF006400630015
BI00B32CH    SJ22022 MW     202201137126-8853-02             TERMINAL                 CCN000195000000195000FN00000000020220201000195000NNM   20211203122653    4P0P  00000750000000562500000847732CH    SJSAMIJF006400630015
BI00B32CH    SJ22023 MW     202201207126-8853-02             TERMINAL                 CCN000247500000247500FN00000000020220201000247500NNM   20211203122653    4P0P  00000750000000562500000847732CH    SJSAMIJF006400630015
BI00B32CH    SJ22024 MW     202201277126-8853-02             TERMINAL                 CCN000240000000240000FN00000000020220201000240000NNM   20211203122653    4P0P  00000750000000562500000847732CH    SJSAMIJF006400630015
BI00B32CH    SJ22021 MW     202201067126-8854-02             TERMINAL                 CCN000195000000195000FN00000000020220201000195000NNM   20211203122653    4P0P  00000750000000604500000889732CH    SJSAMIJF006400630015
BI00B32CH    SJ22022 MW     202201137126-8854-02             TERMINAL                 CCN000225000000225000FN00000000020220201000225000NNM   20211203122653    4P0P  00000750000000604500000889732CH    SJSAMIJF006400630015
BI00B32CH    SJ22023 MW     202201207126-8854-02             TERMINAL                 CCN000345000000345000FN00000000020220201000345000NNM   20211203122653    4P0P  00000750000000604500000889732CH    SJSAMIJF006400630015
BI00B32CH    SJ22024 MW     202201277126-8854-02             TERMINAL                 CCN000277500000277500FN00000000020220201000277500NNM   20211203122653    4P0P  00000750000000604500000889732CH    SJSAMIJF006400630015
BI00B32CH    SJ22021 MW     202201067126-8855-02             TERMINAL                 CCN000030000000030000FN00000000020220201000030000NNM   20211203122653    4P0P  00000600000000510600000795832CH    SJSAMIJF006400630015
BI00B32CH    SJ22022 MW     202201137126-8855-02             TERMINAL                 CCN000096000000096000FN00000000020220201000096000NNM   20211203122653    4P0P  00000600000000510600000795832CH    SJSAMIJF006400630015
BI00B32CH    SJ22023 MW     202201207126-8855-02             TERMINAL                 CCN000120000000120000FN00000000020220201000120000NNM   20211203122653    4P0P  00000600000000510600000795832CH    SJSAMIJF006400630015
BI00B32CH    SJ22024 MW     202201277126-8855-02             TERMINAL                 CCN000108000000108000FN00000000020220201000108000NNM   20211203122653    4P0P  00000600000000510600000795832CH    SJSAMIJF006400630015
BI00B32CH    SJ22021 MW     202201067158-3006-90             RUBBER STOPPER           CCN000020000000020000FN00000000020220201000020000NNM   20211203122653    1C0C  00002000000000330600000386032CH    SJSAMIJF002700430014
BI00B32CH    SJ22022 MW     202201137158-3006-90             RUBBER STOPPER           CCN000480000000480000FN00000000020220201000480000NNM   20211203122653    1C0C  00002000000000330600000386032CH    SJSAMIJF002700430014
BI00B32CH    SJ22023 MW     202201207158-3006-90             RUBBER STOPPER           CCN000500000000500000FN00000000020220201000500000NNM   20211203122653    1C0C  00002000000000330600000386032CH    SJSAMIJF002700430014
BI00B32CH    SJ22024 MW     202201277158-3006-90             RUBBER STOPPER           CCN000500000000500000FN00000000020220201000500000NNM   20211203122653    1C0C  00002000000000330600000386032CH    SJSAMIJF002700430014
BI00B32CH    SJ22022 MW     202201137158-3009-60             RUBBER STOPPER           CCN000080000000080000FN00000000020220201000080000NNM   20211203122653    1C0C  00002000000000338000000386232CH    SJSAMIJF002700430014
BI00B32CH    SJ22023 MW     202201207158-3009-60             RUBBER STOPPER           CCN000300000000300000FN00000000020220201000300000NNM   20211203122653    1C0C  00002000000000338000000386232CH    SJSAMIJF002700430014
BI00B32CH    SJ22024 MW     202201277158-3009-60             RUBBER STOPPER           CCN000320000000320000FN00000000020220201000320000NNM   20211203122653    1C0C  00002000000000338000000386232CH    SJSAMIJF002700430014
BI00B32CH    SJ22024 MW     202201277158-3022-80             RUBBER STOPPER           CCN000005000000005000FN00000000020220201000005000NNM   20211203122653    1C0C  00000500000000467500000524032CH    SJSAMIJF002700430014
BI00B32CH    SJ22022 MW     202201137158-3165-90             WIRE SEAL                CCN000400000000400000FN00000000020220201000400000NNM   20211203122653    1C0C  00004000000000124000000172432CH    SJSAMIJF004300270014
BI00B32CH    SJ22023 MW     202201207158-3165-90             WIRE SEAL                CCN000600000000600000FN00000000020220201000600000NNM   20211203122653    1C0C  00004000000000124000000172432CH    SJSAMIJF004300270014
BI00B32CH    SJ22024 MW     202201277158-3165-90             WIRE SEAL                CCN000680000000680000FN00000000020220201000680000NNM   20211203122653    1C0C  00004000000000124000000172432CH    SJSAMIJF004300270014
BI00B32CH    SJ22022 MW     202201137158-3167-80             WIRE SEAL                CCN000060000000060000FN00000000020220201000060000NNM   20211203122653    1C0C  00002000000000048000000109032CH    SJSAMIJF002700430014
BI00B32CH    SJ22023 MW     202201207158-3167-80             WIRE SEAL                CCN000040000000040000FN00000000020220201000040000NNM   20211203122653    1C0C  00002000000000048000000109032CH    SJSAMIJF002700430014
BI00B32CH    SJ22024 MW     202201277158-3167-80             WIRE SEAL                CCN000040000000040000FN00000000020220201000040000NNM   20211203122653    1C0C  00002000000000048000000109032CH    SJSAMIJF002700430014
BI00B32CH    SJ22022 MW     202201137158-3169-40             SEALING PLUG             CCN000080000000080000FN00000000020220201000080000NNM   20211203122653    1C0C  00004000000000156000000204132CH    SJSAMIJF004300260014
BI00B32CH    SJ22023 MW     202201207158-3169-40             SEALING PLUG             CCN000200000000200000FN00000000020220201000200000NNM   20211203122653    1C0C  00004000000000156000000204132CH    SJSAMIJF004300260014
BI00B32CH    SJ22024 MW     202201277158-3169-40             SEALING PLUG             CCN000320000000320000FN00000000020220201000320000NNM   20211203122653    1C0C  00004000000000156000000204132CH    SJSAMIJF004300260014
BI00B32CH    SJ22021 MW     202201067283-4576                HOUSING FEMALE ASS'Y     CCN000004800000004800FN00000000020220201000004800NNM   20211203122653    4N0N  00000480000000651300000871332CH    SJSAMIJF005500360039
BI00B32CH    SJ22022 MW     202201137283-4576                HOUSING FEMALE ASS'Y     CCN000009600000009600FN00000000020220201000009600NNM   20211203122653    4N0N  00000480000000651300000871332CH    SJSAMIJF005500360039
BI00B32CH    SJ22023 MW     202201207283-4576                HOUSING FEMALE ASS'Y     CCN000004800000004800FN00000000020220201000004800NNM   20211203122653    4N0N  00000480000000651300000871332CH    SJSAMIJF005500360039
BI00B32CH    SJ22024 MW     202201277283-4576                HOUSING FEMALE ASS'Y     CCN000004800000004800FN00000000020220201000004800NNM   20211203122653    4N0N  00000480000000651300000871332CH    SJSAMIJF005500360039
BI00B32CH    SJ22021 MW     202201067327-6832-60             MAIN FUSE                CCN000004200000004200FN00000000020220201000004200NNM   20211203122653    4N0N  00000060000000729200000930732CH    SJSAMIJF005400370024
BI00B32CH    SJ22022 MW     202201137327-6832-60             MAIN FUSE                CCN000006000000006000FN00000000020220201000006000NNM   20211203122653    4N0N  00000060000000729200000930732CH    SJSAMIJF005400370024
BI00B32CH    SJ22023 MW     202201207327-6832-60             MAIN FUSE                CCN000015000000015000FN00000000020220201000015000NNM   20211203122653    4N0N  00000060000000729200000930732CH    SJSAMIJF005400370024
BI00B32CH    SJ22024 MW     202201277327-6832-60             MAIN FUSE                CCN000009000000009000FN00000000020220201000009000NNM   20211203122653    4N0N  00000060000000729200000930732CH    SJSAMIJF005400370024
BI00B32CH    SJ22021 MW     202201067388-0314                CONNECTOR ASS'Y          CCN000001200000001200FN00000000020220201000001200NNM   20211203122653    4N0N  00000120000001038000001132332CH    SJSAMIJF005400370024
BI00B32CH    SJ22022 MW     202201137388-0314                CONNECTOR ASS'Y          CCN000014400000014400FN00000000020220201000014400NNM   20211203122653    4N0N  00000120000001038000001132332CH    SJSAMIJF005400370024
BI00B32CH    SJ22023 MW     202201207388-0314                CONNECTOR ASS'Y          CCN000015600000015600FN00000000020220201000015600NNM   20211203122653    4N0N  00000120000001038000001132332CH    SJSAMIJF005400370024
BI00B32CH    SJ22024 MW     202201277388-0314                CONNECTOR ASS'Y          CCN000018000000018000FN00000000020220201000018000NNM   20211203122653    4N0N  00000120000001038000001132332CH    SJSAMIJF005400370024
BI00B32CH    SJ22024 MW     202201277388-0315-40             CONNECTOR ASS'Y          CCN000003600000003600FN00000000020220201000003600NNM   20211203122653    4N0N  00000120000000999600001129632CH    SJSAMIJF005400370024
BI00B32CH    #SJ22023 MW    202201207116-4021                TERMINAL                 CCN000013500000013500FN00000000020220201000013500NNM   20211203122653    2F0P  00001350000000534600000868832CH    SJSAMIJF006400630015
BI00B32CH    #SJ22022 MW    202201137157-3950-80             SEAL RUBBER              CCN000040000000040000FN00000000020220201000040000NNM   20211203122653    2C0C  00004000000000154000000440332CH    SJSAMIJF002700430014
BI00B32CH    #SJ22022 MW    202201137158-3003-90             RUBBER STOPPER           CCN000060000000060000FN00000000020220201000060000NNM   20211203122653    2C0C  00002000000000250000000306032CH    SJSAMIJF002700430014
BI00B32CH    #SJ22023 MW    202201207158-3003-90             RUBBER STOPPER           CCN000100000000100000FN00000000020220201000100000NNM   20211203122653    2C0C  00002000000000250000000306032CH    SJSAMIJF002700430014
BI00B32CH    #SJ22024 MW    202201277158-3003-90             RUBBER STOPPER           CCN000120000000120000FN00000000020220201000120000NNM   20211203122653    2C0C  00002000000000250000000306032CH    SJSAMIJF002700430014
BI00B32CH    #SJ22022 MW    202201137158-3007-10             RUBBER STOPPER           CCN000020000000020000FN00000000020220201000020000NNM   20211203122653    2H0H  00002000000000308000000362732CH    SJSAMIJF002700430014
BI00B32CH    #SJ22023 MW    202201207158-3007-10             RUBBER STOPPER           CCN000040000000040000FN00000000020220201000040000NNM   20211203122653    2H0H  00002000000000308000000362732CH    SJSAMIJF002700430014
BI00B32CH    #SJ22024 MW    202201277158-3007-10             RUBBER STOPPER           CCN000040000000040000FN00000000020220201000040000NNM   20211203122653    2H0H  00002000000000308000000362732CH    SJSAMIJF002700430014
BI00B32CH    #SJ22024 MW    202201277158-3008-80             RUBBER STOPPER           CCN000020000000020000FN00000000020220201000020000NNM   20211203122653    2C0C  00002000000000288000000343032CH    SJSAMIJF004300270014
BI00B32CH    #SJ22022 MW    202201137158-3015-10             RUBBER STOPPER           CCN000030000000030000FN00000000020220201000030000NNM   20211203122653    2C0C  00001000000000419500000474032CH    SJSAMIJF002700430014
BI00B32CH    #SJ22023 MW    202201207158-3015-10             RUBBER STOPPER           CCN000040000000040000FN00000000020220201000040000NNM   20211203122653    2C0C  00001000000000419500000474032CH    SJSAMIJF002700430014
BI00B32CH    #SJ22024 MW    202201277158-3015-10             RUBBER STOPPER           CCN000060000000060000FN00000000020220201000060000NNM   20211203122653    2C0C  00001000000000419500000474032CH    SJSAMIJF002700430014
BI00B32CH    #SJ22021 MW    202201067183-1615                HOUSING                  CCN000009600000009600FN00000000020220201000009600NNM   20211203122653    2F0F  00000480000000757000001042032CH    SJSAMIJF005500360039
BI00B32CH    #SJ22022 MW    202201137183-1615                HOUSING                  CCN000004800000004800FN00000000020220201000004800NNM   20211203122653    2F0F  00000480000000757000001042032CH    SJSAMIJF005500360039
BI00B32CH    #SJ22023 MW    202201207183-1615                HOUSING                  CCN000009600000009600FN00000000020220201000009600NNM   20211203122653    2F0F  00000480000000757000001042032CH    SJSAMIJF005500360039
BI00B32CH    #SJ22024 MW    202201277183-1615                HOUSING                  CCN000004800000004800FN00000000020220201000004800NNM   20211203122653    2F0F  00000480000000757000001042032CH    SJSAMIJF005500360039
BI00B32CH    #SJ22021 MW    202201067183-2414                CONNECTOR HOUSING        CCN000009600000009600FN00000000020220201000009600NNM   20211203122653    2F0F  00000480000000779200001061032CH    SJSAMIJF005500360039
BI00B32CH    #SJ22022 MW    202201137183-2414                CONNECTOR HOUSING        CCN000033600000033600FN00000000020220201000033600NNM   20211203122653    2F0F  00000480000000779200001061032CH    SJSAMIJF005500360039
BI00B32CH    #SJ22023 MW    202201207183-2414                CONNECTOR HOUSING        CCN000033600000033600FN00000000020220201000033600NNM   20211203122653    2F0F  00000480000000779200001061032CH    SJSAMIJF005500360039
BI00B32CH    #SJ22024 MW    202201277183-2414                CONNECTOR HOUSING        CCN000038400000038400FN00000000020220201000038400NNM   20211203122653    2F0F  00000480000000779200001061032CH    SJSAMIJF005500360039
