BI00A32AF    @TTB201A       20211207181E48065ZZ              CAVSAS-S 0.5X4 GY/W      CCN000000600000000600FN00000000020220101000000600NNE21 20211203130310    1W    00000020000004425000000000032AF    HBYHVTB 000000000000UW51B003
BI00B32AF    @TTB2025       20211210181E48061ZZ              CAVSAS-S 0.5X2 W/L       CCN000000300000000300FN00000000020220201000000300NNM20 20211203114945    1W    00000030000002493000000000032AF    HBYHVTB 000000000000UZ41C085
BI00B32AF    @TTB201B       20211210181E48065ZZ              CAVSAS-S 0.5X4 GY/W      CCN000000400000000400FN00000000020220101000000400NNE20 20211203130420    1W    00000020000004425000000000032AF    HBYHVTB 000000000000UT11C002
BI00A32DJ    GHT2201-2      2021120318007704140              AVSS 1.25F W             CCN000001600000001600FN00000000020211201000001600NNM20 20211203082525    1W    00000080000001389000000000032DJ    RBYIPLRB000000000000XH41B026
BI00A32DJ    GHT2201-2      20211203180T8403952              ACCAVS 0.5 P             CCN000003000000003000FN00000000020211201000003000NNM20 20211203082525    1W    00000150000000674300000000032DJ    RBYIPLRB000000000000XH41B020
BI00A32DJ    GHT2201-2      20211203180T8403980              ACCAVS 0.5 BR            CCN000000020000001500FN00000000020211201000001500NNM20 20211203082525    1W    00000150000000674300000000032DJ    RBYIPLRB000000000000XH41B017
BI00B32D1    DFTW2209       2022010618000004534              AV 8 B/W                 CCN000002500000002500FN00000000020220301000002500NNE   20211203102442    1W    00000010000009148000000000032D1    TOYOT-K 000000000000KO31C038
BI00B32D1    DFTW2209       2022010618000004535              AV 8 B/R                 CCN000004100000004100FN00000000020220301000004100NNE   20211203102442    1W    00000010000009148000000000032D1    TOYOT-K 000000000000KO31C037
BI00B32D1    DFTW2209       2022010618000004540              AV 8 W                   CCN000006200000006200FN00000000020220301000006200NNE   20211203102442    1W    00000010000009148000000000032D1    TOYOT-K 000000000000KO31C040
BI00B32D1    DFTW2209       2022010618000004543              AV 8 W/B                 CCN000005500000005500FN00000000020220301000005500NNE   20211203102442    1W    00000010000009148000000000032D1    TOYOT-K 000000000000KO31C041
BI00B32D1    DFTW2209       2022010618000004550              AV 8 R                   CCN000000700000000700FN00000000020220301000000700NNE   20211203102442    1W    00000010000009148000000000032D1    TOYOT-K 000000000000KO31C039
BI00B32D1    @DFTW2209      20220106181AD2002ZZ              CIVUSAS-S 0.35X2 B       CCN000004950000004950FN00000000020220301000004950NNE   20211203102439    1W    00000045000001714000000000032D1    TOYOT-K 000000000000KO31C011
BI00B32D1    @DFTW2209      20220106181AD2003ZZ              CIVUSAS-S 0.35X3 B       CCN000002800000002800FN00000000020220301000002800NNE   20211203102439    1W    00000035000002209700000000032D1    TOYOT-K 000000000000KO31C012
BI00B32D1    @DFTW2209      20220106181AD2004ZZ              CIVUSAS-S 0.35X4 B       CCN000012900000012900FN00000000020220301000012900NNE   20211203102439    1W    00000030000002784000000000032D1    TOYOT-K 000000000000KO31C013
BI00B32D1    @DFTW2209      20220106181E48031ZZ              CAVSAS-S 0.3X2 GY        CCN000004900000004900FN00000000020220301000004900NNE   20211203102439    1W    00000035000001998600000000032D1    TOYOT-K 000000000000KO31C014
BI00B32D1    @DFTW2209      20220106181E48037ZZ              CAVSAS-S 0.3X4 GY        CCN000003250000003250FN00000000020220301000003250NNE   20211203102439    1W    00000025000003340000000000032D1    TOYOT-K 000000000000KO31C016
BI00B32D1    @DFTW2209      20220106181E48041ZZ              CAVSAS-S 0.3X2 GY/R      CCN000004550000004550FN00000000020220301000004550NNE   20211203102439    1W    00000035000001998600000000032D1    TOYOT-K 000000000000KO31C015
BI00B32D1    @DFTW2209      20220106181E50002ZZ              AVSSCS-S 0.3FX2 DGY/G    CCN000009100000009100FN00000000020220301000009100NNE   20211203102439    1W    00000035000001997000000000032D1    TOYOT-K 000000000000KO31C022
BI00B32D1    @DFTW2209      20220106181E50004ZZ              AVSSCS-S 0.5FX1 DGY      CCN000008800000008800FN00000000020220301000008800NNE   20211203102439    1W    00000040000001817000000000032D1    TOYOT-K 000000000000KO31C017
BI00B32D1    @DFTW2209      20220106181E50005ZZ              AVSSCS-S 0.5FX1 DGY/W    CCN000002800000002800FN00000000020220301000002800NNE   20211203102439    1W    00000040000001817000000000032D1    TOYOT-K 000000000000KO31C020
BI00B32D1    @DFTW2209      20220106181E50007ZZ              AVSSCS-S 0.5FX1 DGY/L    CCN000004400000004400FN00000000020220301000004400NNE   20211203102439    1W    00000040000001817000000000032D1    TOYOT-K 000000000000KO31C018
BI00B32D1    @DFTW2209      20220106181E50014ZZ              AVSSCS-S 0.5FX1 DGY/R    CCN000000800000000800FN00000000020220301000000800NNE   20211203102439    1W    00000040000001817000000000032D1    TOYOT-K 000000000000KO31C019
BI00B32D1    @DFTW2209      20220106181E50020ZZ              AVSSCS-S 0.3FX2 DGY/R    CCN000005250000005250FN00000000020220301000005250NNE   20211203102439    1W    00000035000001997000000000032D1    TOYOT-K 000000000000KO31C024
BI00B32D1    @DFTW2209      20220106181E50021ZZ              AVSSCS-S 0.3FX2 DGY/P    CCN000006300000006300FN00000000020220301000006300NNE   20211203102439    1W    00000035000001997000000000032D1    TOYOT-K 000000000000KO31C023
BI00B32D1    @DFTW2209      20220106181E50036ZZ              AVSSCS-S 0.3FX2 DGY      CCN000006300000006300FN00000000020220301000006300NNE   20211203102439    1W    00000035000001997000000000032D1    TOYOT-K 000000000000KO31C021
BI00B32D2    DGTW2209       2022010618000004530              AV 8 B                   CCN000037500000037500FN00000000020220301000037500NNE   20211203104011    1W    00000010000009148000000000032D2    TGYOT-G 000000000000KR31C037
BI00B32D2    DGTW2209       2022010618000004540              AV 8 W                   CCN000011900000011900FN00000000020220301000011900NNE   20211203104011    1W    00000010000009148000000000032D2    TGYOT-G 000000000000KR31C039
BI00B32D2    DGTW2209       2022010618000004543              AV 8 W/B                 CCN000007300000007300FN00000000020220301000007300NNE   20211203104011    1W    00000010000009148000000000032D2    TGYOT-G 000000000000KR31C040
BI00B32D2    DGTW2209       2022010618000004590              AV 8 L                   CCN000007200000007200FN00000000020220301000007200NNE   20211203104011    1W    00000010000009148000000000032D2    TGYOT-G 000000000000KR31C038
BI00B32D2    @DGTW2209      20220106181AD2002ZZ              CIVUSAS-S 0.35X2 B       CCN000021600000021600FN00000000020220301000021600NNE   20211203104010    1W    00000045000001714000000000032D2    TGYOT-G 000000000000KR31C012
BI00B32D2    @DGTW2209      20220106181AD2003ZZ              CIVUSAS-S 0.35X3 B       CCN000010150000010150FN00000000020220301000010150NNE   20211203104010    1W    00000035000002209700000000032D2    TGYOT-G 000000000000KR31C013
BI00B32D2    @DGTW2209      20220106181AD2004ZZ              CIVUSAS-S 0.35X4 B       CCN000015300000015300FN00000000020220301000015300NNE   20211203104010    1W    00000030000002784000000000032D2    TGYOT-G 000000000000KR31C014
BI00B32D2    @DGTW2209      20220106181E48037ZZ              CAVSAS-S 0.3X4 GY        CCN000006500000006500FN00000000020220301000006500NNE   20211203104010    1W    00000025000003340000000000032D2    TGYOT-G 000000000000KR31C015
BI00B32D2    @DGTW2209      20220106181E50004ZZ              AVSSCS-S 0.5FX1 DGY      CCN000011200000011200FN00000000020220301000011200NNE   20211203104010    1W    00000040000001817000000000032D2    TGYOT-G 000000000000KR31C016
BI00B32D2    @DGTW2209      20220106181E50005ZZ              AVSSCS-S 0.5FX1 DGY/W    CCN000007600000007600FN00000000020220301000007600NNE   20211203104010    1W    00000040000001817000000000032D2    TGYOT-G 000000000000KR31C018
BI00B32D2    @DGTW2209      20220106181E50007ZZ              AVSSCS-S 0.5FX1 DGY/L    CCN000002800000002800FN00000000020220301000002800NNE   20211203104010    1W    00000040000001817000000000032D2    TGYOT-G 000000000000KR31C017
BI00B32D2    @DGTW2209      20220106181E50016ZZ              AVSSCS-S 0.5FX2 DGY/R    CCN000003300000003300FN00000000020220301000003300NNE   20211203104010    1W    00000030000002072000000000032D2    TGYOT-G 000000000000KR31C019
BI00B32D2    @DGTW2209      20220106181E50036ZZ              AVSSCS-S 0.3FX2 DGY      CCN000003150000003150FN00000000020220301000003150NNE   20211203104010    1W    00000035000001997000000000032D2    TGYOT-G 000000000000KR31C020
BI00B32D2    @DGTW2209      20220106181F21014ZZ              AVSSHCS-S 0.5FX2 B/L     CCN000005400000005400FN00000000020220301000005400NNE   20211203104010    1W    00000030000002505800000000032D2    TGYOT-G 000000000000KR31C022
BI00B32D2    @DGTW2209      20220106181F21016ZZ              AVSSHCS-S 0.5FX2 B/BR    CCN000002400000002400FN00000000020220301000002400NNE   20211203104010    1W    00000030000002505800000000032D2    TGYOT-G 000000000000KR31C021
BI00B32D2    @DGTW2209      20220106181F21031ZZ              AVSSHCS-S 1.25FX2 B/P    CCN000003200000003200FN00000000020220301000003200NNE   20211203104010    1W    00000020000004262000000000032D2    TGYOT-G 000000000000KR31C023
BI00B32M8    PM2111A MW     2021111718007703992              AVSS 0.5F V              CCN000019500000019500FN00000000020211101000019500NNE21 20211203135749    1W    00000150000000674000000000032M8    PMPEMI  000000000000IC41A011
BI00B32N2    2152103708     2021122918007703929              AVSS 0.5F LG/W           CCN000001500000001500FN00000000020211201000001500NNE   20211203083801    1W    00000150000000674000000000032N2    YWYIPLTC000000000000KU21C009
BI00B32N2    2152103708     2021122918007703930              AVSS 0.5F B              CCN000003000000003000FN00000000020211201000003000NNE   20211203083801    1W    00000150000000674000000000032N2    YWYIPLTC000000000000KU21C005
BI00B32N2    2152103708     2021122918007703940              AVSS 0.5F W              CCN000001500000001500FN00000000020211201000001500NNE   20211203083801    1W    00000150000000674000000000032N2    YWYIPLTC000000000000KU21C012
BI00B32N2    2152103708     2021122918007703951              AVSS 0.5F O              CCN000003000000003000FN00000000020211201000003000NNE   20211203083801    1W    00000150000000674000000000032N2    YWYIPLTC000000000000KU21C010
BI00B32N2    2152103708     2021122918007703952              AVSS 0.5F P              CCN000001500000001500FN00000000020211201000001500NNE   20211203083801    1W    00000150000000674000000000032N2    YWYIPLTC000000000000KU21C011
BI00B32N2    2152103708     2021122918007703960              AVSS 0.5F G              CCN000001500000001500FN00000000020211201000001500NNE   20211203083801    1W    00000150000000674000000000032N2    YWYIPLTC000000000000KU21C006
BI00B32N2    2152103708     2021122918007703965              AVSS 0.5F G/R            CCN000004500000004500FN00000000020211201000004500NNE   20211203083801    1W    00000150000000674000000000032N2    YWYIPLTC000000000000KU21C007
BI00B32N2    2152103708     2021122918007703973              AVSS 0.5F Y/B            CCN000001500000001500FN00000000020211201000001500NNE   20211203083801    1W    00000150000000674000000000032N2    YWYIPLTC000000000000KU21C013
BI00B32N2    2152103708     2021122918007703990              AVSS 0.5F L              CCN000004500000004500FN00000000020211201000004500NNE   20211203083801    1W    00000150000000674000000000032N2    YWYIPLTC000000000000KU21C008
BI00B32N2    2152103708     2021122918007704190              AVSS 1.25F L             CCN000000800000000800FN00000000020211201000000800NNE   20211203083801    1W    00000080000001389000000000032N2    YWYIPLTC000000000000KU21C014
BI00B32N2    2152103708     20211229180D0203990              AVSSH 0.5F L             CCN000001500000001500FN00000000020211201000001500NNE   20211203083801    1W    00000150000000689000000000032N2    YWYIPLTC000000000000KU21C001
BI00B32N2    2152103708     20211229180D0204037              AVSSH 0.75F B/Y          CCN000001000000001000FN00000000020211201000001000NNE   20211203083801    1W    00000100000000968000000000032N2    YWYIPLTC000000000000KU21C002
BI00B32N2    2152103708     20211229180D0204040              AVSSH 0.75F W            CCN000001000000001000FN00000000020211201000001000NNE   20211203083801    1W    00000100000000968000000000032N2    YWYIPLTC000000000000KU21C004
BI00B32N2    2152103708     20211229180D0204090              AVSSH 0.75F L            CCN000001000000001000FN00000000020211201000001000NNE   20211203083801    1W    00000100000000968000000000032N2    YWYIPLTC000000000000KU21C003
BI00B32N3    NBT202-1       2021123018007704130              AVSS 1.25F B             CCN000004800000004800FN00000000020220101000004800NNM   20211203094652    1W    00000080000001389000000000032N3    ABYIPL-B000000000000XA21C024
BI00B32N3    NBT202-3       2022011318007704130              AVSS 1.25F B             CCN000002400000002400FN00000000020220101000002400NNM   20211203094652    1W    00000080000001389000000000032N3    ABYIPL-B000000000000XA41C026
BI00B32N3    NBT202-4       2022012018007704130              AVSS 1.25F B             CCN000002400000002400FN00000000020220101000002400NNM   20211203094652    1W    00000080000001389000000000032N3    ABYIPL-B000000000000XA41C048
BI00B32N3    NBT202-1       2021123018007704140              AVSS 1.25F W             CCN000004000000004000FN00000000020220101000004000NNM   20211203094652    1W    00000080000001389000000000032N3    ABYIPL-B000000000000XA21C027
BI00B32N3    NBT202-3       2022011318007704140              AVSS 1.25F W             CCN000003200000003200FN00000000020220101000003200NNM   20211203094652    1W    00000080000001389000000000032N3    ABYIPL-B000000000000XA41C029
BI00B32N3    NBT202-4       2022012018007704140              AVSS 1.25F W             CCN000001600000001600FN00000000020220101000001600NNM   20211203094652    1W    00000080000001389000000000032N3    ABYIPL-B000000000000XA41C051
BI00B32N3    NBT202-1       2021123018007704143              AVSS 1.25F W/B           CCN000003200000003200FN00000000020220101000003200NNM   20211203094652    1W    00000080000001389000000000032N3    ABYIPL-B000000000000XA21C028
BI00B32N3    NBT202-3       2022011318007704143              AVSS 1.25F W/B           CCN000002400000002400FN00000000020220101000002400NNM   20211203094652    1W    00000080000001389000000000032N3    ABYIPL-B000000000000XA41C030
BI00B32N3    NBT202-4       2022012018007704143              AVSS 1.25F W/B           CCN000001600000001600FN00000000020220101000001600NNM   20211203094652    1W    00000080000001389000000000032N3    ABYIPL-B000000000000XA41C052
BI00B32N3    NBT202-1       2021123018007704160              AVSS 1.25F G             CCN000001600000001600FN00000000020220101000001600NNM   20211203094652    1W    00000080000001389000000000032N3    ABYIPL-B000000000000XA21C025
BI00B32N3    NBT202-3       2022011318007704160              AVSS 1.25F G             CCN000001600000001600FN00000000020220101000001600NNM   20211203094652    1W    00000080000001389000000000032N3    ABYIPL-B000000000000XA41C027
BI00B32N3    NBT202-4       2022012018007704160              AVSS 1.25F G             CCN000000800000000800FN00000000020220101000000800NNM   20211203094652    1W    00000080000001389000000000032N3    ABYIPL-B000000000000XA41C049
BI00B32N3    NBT202-1       2021123018007704190              AVSS 1.25F L             CCN000001600000001600FN00000000020220101000001600NNM   20211203094652    1W    00000080000001389000000000032N3    ABYIPL-B000000000000XA21C026
BI00B32N3    NBT202-2       2022010618007704190              AVSS 1.25F L             CCN000000800000000800FN00000000020220101000000800NNM   20211203094652    1W    00000080000001389000000000032N3    ABYIPL-B000000000000XA31C008
BI00B32N3    NBT202-3       2022011318007704190              AVSS 1.25F L             CCN000000800000000800FN00000000020220101000000800NNM   20211203094652    1W    00000080000001389000000000032N3    ABYIPL-B000000000000XA41C028
BI00B32N3    NBT202-4       2022012018007704190              AVSS 1.25F L             CCN000000800000000800FN00000000020220101000000800NNM   20211203094652    1W    00000080000001389000000000032N3    ABYIPL-B000000000000XA41C050
BI00B32N3    NBT202-1       20211230180D0203930              AVSSH 0.5F B             CCN000001500000001500FN00000000020220101000001500NNM   20211203094652    1W    00000150000000689000000000032N3    ABYIPL-B000000000000XA21C022
BI00B32N3    NBT202-2       20220106180D0203930              AVSSH 0.5F B             CCN000003000000003000FN00000000020220101000003000NNM   20211203094652    1W    00000150000000689000000000032N3    ABYIPL-B000000000000XA31C002
BI00B32N3    NBT202-4       20220120180D0203930              AVSSH 0.5F B             CCN000003000000003000FN00000000020220101000003000NNM   20211203094652    1W    00000150000000689000000000032N3    ABYIPL-B000000000000XA41C043
BI00B32N3    NBT202-2       20220106180D0203940              AVSSH 0.5F W             CCN000003000000003000FN00000000020220101000003000NNM   20211203094652    1W    00000150000000689000000000032N3    ABYIPL-B000000000000XA31C005
BI00B32N3    NBT202-4       20220120180D0203940              AVSSH 0.5F W             CCN000003000000003000FN00000000020220101000003000NNM   20211203094652    1W    00000150000000689000000000032N3    ABYIPL-B000000000000XA41C046
BI00B32N3    NBT202-4       20220120180D0203943              AVSSH 0.5F W/B           CCN000001500000001500FN00000000020220101000001500NNM   20211203094652    1W    00000150000000689000000000032N3    ABYIPL-B000000000000XA41C047
BI00B32N3    NBT202-2       20220106180D0203950              AVSSH 0.5F R             CCN000004500000004500FN00000000020220101000004500NNM   20211203094652    1W    00000150000000689000000000032N3    ABYIPL-B000000000000XA31C004
BI00B32N3    NBT202-4       20220120180D0203950              AVSSH 0.5F R             CCN000004500000004500FN00000000020220101000004500NNM   20211203094652    1W    00000150000000689000000000032N3    ABYIPL-B000000000000XA41C045
BI00B32N3    NBT202-2       20220106180D0203960              AVSSH 0.5F G             CCN000001500000001500FN00000000020220101000001500NNM   20211203094652    1W    00000150000000689000000000032N3    ABYIPL-B000000000000XA31C003
BI00B32N3    NBT202-2       20220106180D0203970              AVSSH 0.5F Y             CCN000003000000003000FN00000000020220101000003000NNM   20211203094652    1W    00000150000000689000000000032N3    ABYIPL-B000000000000XA31C006
BI00B32N3    NBT202-1       20211230180D0203990              AVSSH 0.5F L             CCN000001500000001500FN00000000020220101000001500NNM   20211203094652    1W    00000150000000689000000000032N3    ABYIPL-B000000000000XA21C023
BI00B32N3    NBT202-4       20220120180D0203990              AVSSH 0.5F L             CCN000003000000003000FN00000000020220101000003000NNM   20211203094652    1W    00000150000000689000000000032N3    ABYIPL-B000000000000XA41C044
BI00B32N3    NBT202-2       20220106180D0204190              AVSSH 1.25F L            CCN000001600000001600FN00000000020220101000001600NNM   20211203094652    1W    00000080000001458000000000032N3    ABYIPL-B000000000000XA31C007
BI00B32N3    @NBT202-1      20211230181B0911941              CAVSAS 0.3X4 GY          CCN000001750000001750FN00000000020220101000001750NNM   20211203093807    1W    00000025000003616000000000032N3    ABYIPL-B000000000000XA21C001
BI00B32N3    @NBT202-3      20220113181B0911941              CAVSAS 0.3X4 GY          CCN000001000000001000FN00000000020220101000001000NNM   20211203093807    1W    00000025000003616000000000032N3    ABYIPL-B000000000000XA41C001
BI00B32N3    @NBT202-4      20220120181B0911941              CAVSAS 0.3X4 GY          CCN000001750000001750FN00000000020220101000001750NNM   20211203093807    1W    00000025000003616000000000032N3    ABYIPL-B000000000000XA41C003
BI00B32N3    @NBT202-1      20211230181B32103S1              AVSSCS 0.5FX3 DGY        CCN000002000000002000FN00000000020220101000002000NNM   20211203093807    1W    00000025000003539700000000032N3    ABYIPL-B000000000000XA21C002
BI00B32N3    @NBT202-2      20220106181B32103S1              AVSSCS 0.5FX3 DGY        CCN000003250000003250FN00000000020220101000003250NNM   20211203093807    1W    00000025000003539700000000032N3    ABYIPL-B000000000000XA31C001
BI00B32N3    @NBT202-3      20220113181B32103S1              AVSSCS 0.5FX3 DGY        CCN000001000000001000FN00000000020220101000001000NNM   20211203093807    1W    00000025000003539700000000032N3    ABYIPL-B000000000000XA41C002
BI00B32N3    @NBT202-4      20220120181B32103S1              AVSSCS 0.5FX3 DGY        CCN000004500000004500FN00000000020220101000004500NNM   20211203093807    1W    00000025000003539700000000032N3    ABYIPL-B000000000000XA41C004
BI00B32Q8    @EW21111TMW    20211020181E50028ZZ              AVSSCS-S 0.5FX3 DGY      CCN000005500000005250FY00000525020211101000000000NNM00 20211203163141    1W    00000025000003245000000000032Q8    EMEMI   000000000000MT11B008
BI00B32Q8    @EW21111TMW    20211222181D69102A8              AVSSHCS 0.5FX2 B/P       CCN000001200000001200FN00000000020211101000001200NNM22 20211203163019    1W    00000030000002792600000000032Q8    EMEMI   000000000000MT11B004
BI00B32Q8    @EW21111TMW    20211020181F21001ZZ              AVSSHCS-S 0.3FX2 B/Y     CCN000009100000000700FY00000070020211101000000000NNM00 20211203163254    1W    00000035000002076300000000032Q8    EMEMI   000000000000MT11B011
BI00B32Q8    @EW21111TMW    20211222181F21016ZZ              AVSSHCS-S 0.5FX2 B/BR    CCN000003900000003900FN00000000020211101000003900NNM22 20211203163019    1W    00000030000002505800000000032Q8    EMEMI   000000000000MT11B010
BI00B32Q8    @EW21121TMW    20211215181D69001ZZ              AVSSHCS 0.5FX2 B/BR      CCN000005100000005100FN00000000020211201000005100NNM22 20211203134918    1W    00000030000002792600000000032Q8    EMEMI   000000000000MU11A003
BI00B32Q8    @EW21121TMW    20211215181D69004ZZ              AVSSHCS 1.25FX2 B        CCN000002400000002400FN00000000020211201000002400NNM22 20211203134918    1W    00000020000004432000000000032Q8    EMEMI   000000000000MU11A004
BI00B32Q8    @EW21121TMW    20211020181F21001ZZ              AVSSHCS-S 0.3FX2 B/Y     CCN000009100000008400FY00000840020211201000000000NNM00 20211203135251    1W    00000035000002076300000000032Q8    EMEMI   000000000000MU11A006
BI00B32Q8    @EW21121TMW    20211215181F21001ZZ              AVSSHCS-S 0.3FX2 B/Y     CCN000000700000000700FN00000000020211201000000700NNM22 20211203135013    1W    00000035000002076300000000032Q8    EMEMI   000000000000MU11A006
BI00B32Q8    @EW21111TMW    20211222181E50028ZZ              AVSSCS-S 0.5FX3 DGY      CCN000000250000000250FN00000000020211101000000250NNM22 20211203163112    1W    00000025000003245000000000032Q8    EMEMI   000000000000MT11B008
BI00B32Q8    @EW21111TMW    20211222181F21001ZZ              AVSSHCS-S 0.3FX2 B/Y     CCN000008400000008400FN00000000020211101000008400NNM22 20211203163231    1W    00000035000002076300000000032Q8    EMEMI   000000000000MT11B011
BI00B32W2    @HN22013NMW    20211221181B32102S1              AVSSCS 0.5FX2 DGY        CCN000001200000001200FN00000000020220101000001200NNM00 20211203101329    1W    00000030000002779000000000032W2    HNHNY   000000000000HN11C001
BI00B32W2    @HN22013NMW    20211116181B32102S1              AVSSCS 0.5FX2 DGY        CCN000001200000000000FY00000000020220101000000000NNM20 20211203101456    1W    00000030000002779000000000032W2    HNHNY   000000000000HN11C001
