BI00A1200    2399T51A23     202203177289-5979-30             HOUSING FEMALE ASS'Y     PCN000046368000002016FN00000000020211201000002016NNMD0420220305135423    1N0N  0000002520000085470000106471200    YCYC    005400370024
BI00A1200    2399T51A24     202204057289-5979-30             HOUSING FEMALE ASS'Y     PCN000046368000005040FN00000000020211201000005040NNMD0420220305140734    1N0N  0000002520000085470000106471200    YCYC    005400370024
BI00A1200    2399T51A22     202203157289-5979-30             HOUSING FEMALE ASS'Y     PCN000016632000002772FN00000000020211201000002772NNMD0420220305131504    1N0N  0000002520000085470000106471200    YCYC    005400370024
BI00A1200    2399T51A23     202203287289-5979-30             HOUSING FEMALE ASS'Y     PCN000014868000001764FN00000000020211201000001764NNMD0420220305135737    1N0N  0000002520000085470000106471200    YCYC    005400370024
BI00A1200    2399T51A23     202204017289-5979-30             HOUSING FEMALE ASS'Y     PCN000016632000003528FN00000000020211201000003528NNMD0420220305135908    1N0N  0000002520000085470000106471200    YCYC    005400370024
BI00A1200    2399T51A24     202204127289-5979-30             HOUSING FEMALE ASS'Y     PCN000014868000001008FN00000000020211201000001008NNMD0420220305141039    1N0N  0000002520000085470000106471200    YCYC    005400370024
BI00A1200    2399T52114     202203287289-5979-30             HOUSING FEMALE ASS'Y     PCN000021672000002268FN00000000020220301000002268NNMD0420220305140046    1N0N  0000002520000085470000106471200    YCYC    005400370024
BI00A1200    2399T52114     202204017289-5979-30             HOUSING FEMALE ASS'Y     PCN000005292000000504FN00000000020220301000000504NNMD0420220305140545    1N0N  0000002520000085470000106471200    YCYC    005400370024
BI00A1200    2399T52114     202204117289-5979-30             HOUSING FEMALE ASS'Y     PCN000005292000002268FN00000000020220301000002268NNMD0420220305140857    1N0N  0000002520000085470000106471200    YCYC    005400370024
BI00B1200    #7960T52201    202203247172-5630-40             RUBBER STOPPER           CCN000040000000040000FN00000000020220301000040000NNE00020220305101808    2H0H  0000200000000004400000009511200    YCYC    004300270014
BI00B1200    #7360T52211    202203107172-5629-80             RUBBER STOPPER           CCN000420000000420000FN00000000020220301000420000NNED0420220305124934    2H0H  0000200000000006000000011111200    YCYC    004300270014
BI00A1200    2399T51A22     202203167289-5979-30             HOUSING FEMALE ASS'Y     PCN000004032000004032FN00000000020211201000004032NNMD0420220305131504    1N0N  0000002520000085470000106471200    YCYC    005400370024
BI00A1200    2399T51A22     202203177289-5979-30             HOUSING FEMALE ASS'Y     PCN000001512000001512FN00000000020211201000001512NNMD0420220305131517    1N0N  0000002520000085470000106471200    YCYC    005400370024
BI00A1200    2399T51A23     202203187289-5979-30             HOUSING FEMALE ASS'Y     PCN000004032000004032FN00000000020211201000004032NNMD0420220305135423    1N0N  0000002520000085470000106471200    YCYC    005400370024
BI00A1200    2399T51A23     202203217289-5979-30             HOUSING FEMALE ASS'Y     PCN000004032000004032FN00000000020211201000004032NNMD0420220305135432    1N0N  0000002520000085470000106471200    YCYC    005400370024
BI00A1200    2399T51A23     202203227289-5979-30             HOUSING FEMALE ASS'Y     PCN000005796000005796FN00000000020211201000005796NNMD0420220305135619    1N0N  0000002520000085470000106471200    YCYC    005400370024
BI00A1200    2399T51A23     202203237289-5979-30             HOUSING FEMALE ASS'Y     PCN000004032000004032FN00000000020211201000004032NNMD0420220305135641    1N0N  0000002520000085470000106471200    YCYC    005400370024
BI00A1200    2399T51A23     202203247289-5979-30             HOUSING FEMALE ASS'Y     PCN000004032000004032FN00000000020211201000004032NNMD0420220305135654    1N0N  0000002520000085470000106471200    YCYC    005400370024
BI00A1200    2399T51A23     202203257289-5979-30             HOUSING FEMALE ASS'Y     PCN000004032000004032FN00000000020211201000004032NNMD0420220305135713    1N0N  0000002520000085470000106471200    YCYC    005400370024
BI00A1200    2399T51A23     202203297289-5979-30             HOUSING FEMALE ASS'Y     PCN000005040000005040FN00000000020211201000005040NNMD0420220305135928    1N0N  0000002520000085470000106471200    YCYC    005400370024
BI00A1200    2399T51A23     202203307289-5979-30             HOUSING FEMALE ASS'Y     PCN000004032000004032FN00000000020211201000004032NNMD0420220305135928    1N0N  0000002520000085470000106471200    YCYC    005400370024
BI00A1200    2399T51A23     202203317289-5979-30             HOUSING FEMALE ASS'Y     PCN000004032000004032FN00000000020211201000004032NNMD0420220305135937    1N0N  0000002520000085470000106471200    YCYC    005400370024
BI00A1200    2399T52114     202203297289-5979-30             HOUSING FEMALE ASS'Y     PCN000003024000003024FN00000000020220301000003024NNMD0420220305140046    1N0N  0000002520000085470000106471200    YCYC    005400370024
BI00A1200    2399T52114     202204047289-5979-30             HOUSING FEMALE ASS'Y     PCN000001764000001764FN00000000020220301000001764NNMD0420220305140545    1N0N  0000002520000085470000106471200    YCYC    005400370024
BI00A1200    2399T52114     202204057289-5979-30             HOUSING FEMALE ASS'Y     PCN000003024000003024FN00000000020220301000003024NNMD0420220305140607    1N0N  0000002520000085470000106471200    YCYC    005400370024
BI00A1200    2399T51A24     202204077289-5979-30             HOUSING FEMALE ASS'Y     PCN000004032000004032FN00000000020211201000004032NNMD0420220305140734    1N0N  0000002520000085470000106471200    YCYC    005400370024
BI00A1200    2399T51A24     202204087289-5979-30             HOUSING FEMALE ASS'Y     PCN000004032000004032FN00000000020211201000004032NNMD0420220305140741    1N0N  0000002520000085470000106471200    YCYC    005400370024
BI00A1200    2399T51A24     202204117289-5979-30             HOUSING FEMALE ASS'Y     PCN000001764000001764FN00000000020211201000001764NNMD0420220305140754    1N0N  0000002520000085470000106471200    YCYC    005400370024
BI00A1200    2399T52114     202204127289-5979-30             HOUSING FEMALE ASS'Y     PCN000003024000003024FN00000000020220301000003024NNMD0420220305140857    1N0N  0000002520000085470000106471200    YCYC    005400370024
BI00A1200    2399T51A24     202204187289-5979-30             HOUSING FEMALE ASS'Y     PCN000004032000004032FN00000000020211201000004032NNMD0420220305141039    1N0N  0000002520000085470000106471200    YCYC    005400370024
BI00B1200    2399T51A24     202205057289-5979-30             HOUSING FEMALE ASS'Y     CCN000009828000009828FN00000000020211201000009828NNMD0420220305141055    1N0N  0000002520000085470000106471200    YCYC    005400370024
BI00B32AF    JTB2025        202202257289-3342-30             HOUSING FEMALE ASS'Y     CCN000048000000019200FY00001920020220201000000000NNM00020220305142935    1N0N  00000240000000686400000901432AF    HBYHVTB 005500360039
BI00A32AF    JTB2025        202203147289-3342-30             HOUSING FEMALE ASS'Y     PCN000028800000028800FN00000000020220201000028800NNM00020220305142935    1N0N  00000240000000686400000901432AF    HBYHVTB 005500360039
BI00B32CH    #SJ22035 MW    202203107158-3007-10             RUBBER STOPPER           CCN000060000000060000FN00000000020220301000060000NNMD0420220305124358    2H0H  00002000000000308000000362732CH    SJSAMIJF002700430014
BI00B32CH    SJ22033HMW     202202187327-6870-30             MULTI FUSE               CCN000014688000007200FY00000720020220301000000000NNM00020220305124550    4N0N  00000028800001015200001181132CH    SJSAMIJF005400370024
BI00B32CH    SJ22033HMW     202203107327-6870-30             MULTI FUSE               CCN000002304000002304FN00000000020220301000002304NNM00020220305124550    4N0N  00000028800001015200001181132CH    SJSAMIJF005400370024
BI00A32D1    DFTC2212       202203087289-3342-90             HOUSING FEMALE ASS'Y     CCN000007200000007200FN00000000020220301000007200NNM00020220305143105    1N0N  00000240000000686400000901432D1    TOYOT-K 005500360039
BI00B32D2    #DGTC2214      202203087172-5629-80             RUBBER STOPPER           CCN000800000000800000FN00000000020220401000800000NNM00020220305124145    2H0H  00002000000000060000000111132D2    TGYOT-G 004300270014
BI00B32D2    #DGTC2214      202203087172-5630-40             RUBBER STOPPER           CCN000460000000460000FN00000000020220401000460000NNM00020220305124145    2H0H  00002000000000044000000095132D2    TGYOT-G 004300270014
BI00B32D9    I21203         202203037289-3342                HOUSING FEMALE ASS'Y     CCN000021600000002400FY00000240020220301000000000NNMD0420220305143241    1N0N  00000240000000686400000901432D9    UEHESTO 005500360039
BI00A32D9    I21203         202203147289-3342                HOUSING FEMALE ASS'Y     PCN000019200000019200FN00000000020220301000019200NNMD0420220305143241    1N0N  00000240000000686400000901432D9    UEHESTO 005500360039
BI00A32G0    #TZ22041EMW    202203147172-5630-40             RUBBER STOPPER           PCN000720000000720000FN00000000020220401000720000NNMM0020220305102400    2H0H  00002000000000044000000095132G0    TTTJY   004300270014
BI00A32N1    #NST2115GCU    202203117158-3007-10             RUBBER STOPPER           PCN000720000000360000FN00000000020220201000360000NNED0120220305182506    2H0H  00002000000000308000000362732N1    TAYIPL  002700430014
BI00B32Q8    #EU22032TMW    202203037172-5630-40             RUBBER STOPPER           CCN001780000001360000FY00136000020220301000000000NNMD0420220305124103    2H0H  00002000000000044000000095132Q8    EMEMI   004300270014
BI00B32Q8    #EU22032TMW    202203097172-5630-40             RUBBER STOPPER           CCN000420000000420000FN00000000020220301000420000NNMD0420220305124103    2H0H  00002000000000044000000095132Q8    EMEMI   004300270014
BI00A32W6    SW22012QMW     202203077327-6874-30             MULTI FUSE               PCN000009504000009504FN00000000020220101000009504NNM00020220305101901    4N0N  00000028800000991400001157332W6    SYSYA-WJ005400370024
BI00A32W6    SW22013QMW     202203097327-6874-30             MULTI FUSE               PCN000009792000009792FN00000000020220101000009792NNM00020220305172909    4N0N  00000028800000991400001157332W6    SYSYA-WJ005400370024
BI00A32W6    SW22013QMW     202203077327-6884-30             MULTI FUSE               PCN000009792000009792FN00000000020220101000009792NNM00020220305101920    4N0N  00000028800000988900001154832W6    SYSYA-WJ005400370024
BI00B32X5    TIB2010        202203187289-5979-30             HOUSING FEMALE ASS'Y     CCN000000756000000756FN00000000020220401000000756NNMD0420220305182229X5  1N0N  00000025200000854700001064732X5    EPYNA-E 005400370024
BI00B32X5    TIB2011        202203187289-5979-30             HOUSING FEMALE ASS'Y     CCN000002520000002520FN00000000020220401000002520NNMD0420220305182253X5  1N0N  00000025200000854700001064732X5    EPYNA-E 005400370024
BI00B32X5    TIB2012        202203257289-5979-30             HOUSING FEMALE ASS'Y     CCN000003528000003528FN00000000020220501000003528NNMD0420220305182306X5  1N0N  00000025200000854700001064732X5    EPYNA-E 005400370024
BI00B32X5    TIB2006A       202203117289-5979-30             HOUSING FEMALE ASS'Y     CCN000002772000002772FN00000000020220301000002772NNED0020220305182318X5  1N0N  00000025200000854700001064732X5    EPYNA-E 005400370024
BI00B32X5    TIB2014        202203117289-5979-30             HOUSING FEMALE ASS'Y     CCN000003024000003024FN00000000020220501000003024NNMD0420220305182338X5  1N0N  00000025200000854700001064732X5    EPYNA-E 005400370024
BI00B32X5    TIB2015        202203257289-5979-30             HOUSING FEMALE ASS'Y     CCN000002520000002520FN00000000020220501000002520NNMD0420220305182352X5  1N0N  00000025200000854700001064732X5    EPYNA-E 005400370024
BI00B32X5    TIB2016        202204087289-5979-30             HOUSING FEMALE ASS'Y     CCN000002268000002268FN00000000020220601000002268NNMD0420220305182403X5  1N0N  00000025200000854700001064732X5    EPYNA-E 005400370024
BI00B32X5    TIB2018        202204297289-5979-30             HOUSING FEMALE ASS'Y     CCN000002520000002520FN00000000020220601000002520NNMD0420220305182416X5  1N0N  00000025200000854700001064732X5    EPYNA-E 005400370024
BI00B32X5    TIB2019        202205067289-5979-30             HOUSING FEMALE ASS'Y     CCN000002016000002016FN00000000020220601000002016NNMD0420220305182429X5  1N0N  00000025200000854700001064732X5    EPYNA-E 005400370024
BI00B32Y1    TA2031A        202203077289-3342-30             HOUSING FEMALE ASS'Y     CCN000019200000019200FN00000000020220301000019200NNMD0420220305123942    1N0N  00000240000000686400000901432Y1    YAYAS   005500360039
BI00B32Y2    TAU1161        202202247289-3342-30             HOUSING FEMALE ASS'Y     CCN000014400000012000FY00001200020220501000000000NNMD0420220305143628    1N0N  00000240000000686400000901432Y2    YUYUY   005500360039
BI00B32Y2    TAU1161        202203107289-3342-30             HOUSING FEMALE ASS'Y     CCN000002400000002400FN00000000020220501000002400NNMD0420220305143628    1N0N  00000240000000686400000901432Y2    YUYUY   005500360039
