BI00B32CC    CTA32055       202204027158-3167-80             WIRE SEAL                CCN000060000000060000FY00006000020220601000000000NNE00020220402085231    1C0C  00002000000000048000000109032CC    BIYABCBU002700430014
BI00B32CC    CTA32056       202204027158-3167-80             WIRE SEAL                CCN000040000000040000FY00004000020220201000000000NNE00020220402085239    1C0C  00002000000000048000000109032CC    BIYABCBU002700430014
BI00B32CC    CTA32057       202204027283-4855                CONNECTOR HOUSING        CCN000004800000004800FY00000480020220201000000000NNE00020220402085246    4N0N  00000240000001188400001400032CC    BIYABCBU005500360039
BI00B32D2    #DGTC2216      202204047172-5630-40             RUBBER STOPPER           CCN000260000000260000FN00000000020220401000260000NNM00020220402121321    2H0H  00002000000000044000000095132D2    TGYOT-G 004300270014
BI00B32D2    #DGTC2217      202204027172-5630-40             RUBBER STOPPER           CCN000060000000060000FN00000000020220401000060000NNM00020220402121321    2H0H  00002000000000044000000095132D2    TGYOT-G 004300270014
BI00B32H2    TIJ2034        202203107289-3342-30             HOUSING FEMALE ASS'Y     CCN000110400000002400FY00000240020220301000000000NNM00020220402090750    1N0N  00000240000000686400000901432H2    HVYHV   005500360039
BI00A32H2    #TIJ204N       202204087158-3015-10             RUBBER STOPPER           CCN000010000000010000FN00000000020220401000010000NNED0720220402121321    2C0C  00001000000000419500000474032H2    HVYHV   002700430014
BI00A32H2    TIJ2034        202204207289-3342-30             HOUSING FEMALE ASS'Y     PCN000048000000048000FN00000000020220301000048000NNM00020220402132514    1N0N  00000240000000686400000901432H2    HVYHV   005500360039
BI00A32H2    TIJ2034        202204227289-3342-30             HOUSING FEMALE ASS'Y     PCN000060000000060000FN00000000020220301000060000NNM00020220402132514    1N0N  00000240000000686400000901432H2    HVYHV   005500360039
BI00A32J1    392859         202204127298-2508-30             HOUSING FEMALE ASS'Y     CCN000001200000001200FN00000000020220401000001200NNED0720220402162513    4N0N  00000120000000822000001005032J1    UKYEL-BL005500360039
BI00A32J1    #393079        202204117137-3188-90             RH CPA                   CCN000014400000019200FN00000000020220401000019200NNED0720220402171146    2F0F  00000960000000000000000000032J1    UKYEL-BL000000000000
BI00A32N1    NST2116C       202204047157-6287-70             SPACER                   CCN000070000000070000FN00000000020220401000070000NNM00020220402121321    1F0F  00007000000000700000000963032N1    TAYIPL  005500360039
BI00A32N3    NBT203 A4      202204017289-3342-30             HOUSING FEMALE ASS'Y     PCN000055200000007200FY00000720020220301000000000NNMD0420220402084222    1N0N  00000240000000686400000901432N3    ABYIPL-B005500360039
BI00A32U5    DI2007         202204017289-3342-30             HOUSING FEMALE ASS'Y     PCN000028800000028800FY00002880020220401000000000NNM00020220402084414U5  1N0N  00000240000000686400000901432U5    AMAMSD  005500360039
BI00B32W4    4500191489     202204217158-3167-80             WIRE SEAL                CCN000080000000080000FN00000000020220401000080000NNE   20220402121321W9151C0C  00002000000000048000000109032W915  HJYHK   002700430014
BI00B32Y1    TA2052A        202205037289-3342-30             HOUSING FEMALE ASS'Y     CCN000019200000019200FN00000000020210501000019200NNMD0420220402182637    1N0N  00000240000000686400000901432Y1    YAYAS   005500360039
BI00B32Y4    MTH32081       202204027289-4696-30             HOUSING FEMALE ASS'Y     CCN000004000000004000FY00000400020220201000000000NNED0020220402085109    4N0N  00000200000000913400001055432Y4    BIYAB-I 005400370024
BI00B32Y6    STAP32061      202204027327-6731-3W             BATTERY FUSE             CCN000004416000004416FY00000441620220601000000000NNM00020220402085156    4N0N  00000006400000697600000843032Y6    BSYBL-S 005400370024
