BI00B32DE    TT2053         2022042818000004530              AV 8 B                   CCN000018000000000000FY00000000020220501000000000NNM11 20220330093130    1W    00000010000010466200000000032DE    TVYEV-TV000000000000VT224080
BI00B32DE    TT2054         2022050518000004540              AV 8 W                   CCN000005400000000000FY00000000020220501000000000NNM11 20220330093647    1W    00000010000010466200000000032DE    TVYEV-TV000000000000VT324087
BI00B32DE    TT2053         2022042818007703960              AVSS 0.5F G              CCN000003000000000000FY00000000020220501000000000NNM11 20220330093141    1W    00000150000000674000000000032DE    TVYEV-TV000000000000VT224082
BI00B32DE    TT2053         2022042818007703941              AVSS 0.5F GY             CCN000001500000000000FY00000000020220501000000000NNM11 20220330093152    1W    00000150000000674000000000032DE    TVYEV-TV000000000000VT224083
BI00B32DE    TT2054         2022050518007703990              AVSS 0.5F L              CCN000001500000000000FY00000000020220501000000000NNM11 20220330093659    1W    00000150000000674000000000032DE    TVYEV-TV000000000000VT324090
BI00B32DE    TT2054         20220505180D0203780              AVSSH 0.3F BR            CCN000002000000000000FY00000000020220501000000000NNM11 20220330093713    1W    00000200000000515000000000032DE    TVYEV-TV000000000000VT324039
BI00B32DE    TT2053         20220428180D0203930              AVSSH 0.5F B             CCN000015000000009000FN00000000020220501000009000NNM11 20220330093205    1W    00000150000000689000000000032DE    TVYEV-TV000000000000VT224044
BI00B32DE    TT2053         20220428180D0203934              AVSSH 0.5F B/W           CCN000001500000000000FY00000000020220501000000000NNM11 20220330093217    1W    00000150000000689000000000032DE    TVYEV-TV000000000000VT224046
BI00B32DE    TT2054         20220505180D0203980              AVSSH 0.5F BR            CCN000012000000003000FN00000000020220501000003000NNM11 20220330093724    1W    00000150000000689000000000032DE    TVYEV-TV000000000000VT324049
BI00B32DE    TT2054         20220505180D0203960              AVSSH 0.5F G             CCN000018000000015000FN00000000020220501000015000NNM11 20220330093735    1W    00000150000000689000000000032DE    TVYEV-TV000000000000VT324050
BI00B32DE    TT2054         20220505180D0203963              AVSSH 0.5F G/B           CCN000001500000000000FY00000000020220501000000000NNM11 20220330093747    1W    00000150000000689000000000032DE    TVYEV-TV000000000000VT324051
BI00B32DE    TT2053         20220428180D0203965              AVSSH 0.5F G/R           CCN000003000000000000FY00000000020220501000000000NNM11 20220330093248    1W    00000150000000689000000000032DE    TVYEV-TV000000000000VT224050
BI00B32DE    TT2053         20220428180D0203941              AVSSH 0.5F GY            CCN000015000000003000FN00000000020220501000003000NNM11 20220330093305    1W    00000150000000689000000000032DE    TVYEV-TV000000000000VT224051
BI00B32DE    TT2053         20220428180D0203994              AVSSH 0.5F L/W           CCN000009000000006000FN00000000020220501000006000NNM11 20220330093318    1W    00000150000000689000000000032DE    TVYEV-TV000000000000VT224053
BI00B32DE    TT2053         20220428180D0203997              AVSSH 0.5F L/Y           CCN000001500000000000FY00000000020220501000000000NNM11 20220330093329    1W    00000150000000689000000000032DE    TVYEV-TV000000000000VT224054
BI00B32DE    TT2054         20220505180D0203961              AVSSH 0.5F LG            CCN000019500000013500FN00000000020220501000013500NNM11 20220330093759    1W    00000150000000689000000000032DE    TVYEV-TV000000000000VT324059
BI00B32DE    TT2054         20220505180D0203952              AVSSH 0.5F P             CCN000015000000009000FN00000000020220501000009000NNM11 20220330093810    1W    00000150000000689000000000032DE    TVYEV-TV000000000000VT324060
BI00B32DE    TT2054         20220505180D0203950              AVSSH 0.5F R             CCN000013500000007500FN00000000020220501000007500NNM11 20220330093820    1W    00000150000000689000000000032DE    TVYEV-TV000000000000VT324061
BI00B32DE    TT2053         20220428180D0203992              AVSSH 0.5F V             CCN000007500000000000FY00000000020220501000000000NNM11 20220330093343    1W    00000150000000689000000000032DE    TVYEV-TV000000000000VT224059
BI00B32DE    TT2054         20220505180D0203940              AVSSH 0.5F W             CCN000022500000000000FY00000000020220501000000000NNM11 20220330093835    1W    00000150000000689000000000032DE    TVYEV-TV000000000000VT324064
BI00B32DE    TT2053         20220428180D0203976              AVSSH 0.5F Y/G           CCN000004500000001500FN00000000020220501000001500NNM11 20220330093355    1W    00000150000000689000000000032DE    TVYEV-TV000000000000VT224064
BI00B32DE    TT2054         20220505180D0204043              AVSSH 0.75F W/B          CCN000007000000000000FY00000000020220501000000000NNM11 20220330093847    1W    00000100000000934000000000032DE    TVYEV-TV000000000000VT324071
BI00B32DE    TT2053         20220428180D0204130              AVSSH 1.25F B            CCN000011200000003200FN00000000020220501000003200NNM11 20220330093406    1W    00000080000001458000000000032DE    TVYEV-TV000000000000VT224068
BI00B32DE    TT2053         20220428180D0204180              AVSSH 1.25F BR           CCN000012000000006400FN00000000020220501000006400NNM11 20220330093417    1W    00000080000001458000000000032DE    TVYEV-TV000000000000VT224071
BI00B32DE    TT2054         20220505180D0204190              AVSSH 1.25F L            CCN000006400000000000FY00000000020220501000000000NNM11 20220330093858    1W    00000080000001458000000000032DE    TVYEV-TV000000000000VT324077
BI00B32DE    TT2054         20220421180D0204159              AVSSH 1.25F R/L          CCN000000800000000000FY00000000020220501000000000NNM12 20220330094209    1W    00000080000001458000000000032DE    TVYEV-TV000000000000VT324081
BI00B32DE    TT2054         20220505180D0204140              AVSSH 1.25F W            CCN000001600000000000FY00000000020220501000000000NNM11 20220330093911    1W    00000080000001458000000000032DE    TVYEV-TV000000000000VT324082
BI00B32DE    TT205C         20220428180D0204135              AVSSH 1.25F B/R          CCN000003200000000000FY00000000020220501000000000NNE11 20220330094505    1W    00000080000001458000000000032DE    TVYEV-TV000000000000VU224003
BI00B32DE    TT205C         20220428180D0204143              AVSSH 1.25F W/B          CCN000018400000006400FN00000000020220501000006400NNE11 20220330094505    1W    00000080000001458000000000032DE    TVYEV-TV000000000000VU224005
BI00B32DE    TT205D         2022042818000004540              AV 8 W                   CCN000001800000000000FY00000000020220501000000000NNE10 20220330092127    1W    00000010000010466200000000032DE    TVYEV-TV000000000000VV224006
BI00B32D1    DFTW2226       2022050518000004534              AV 8 B/W                 CCN000001900000001900FN00000000020220701000001900NNE   20220330100143    1W    00000010000010466200000000032D1    TOYOT-K 000000000000KO324051
BI00B32D1    DFTW2226       2022050518000004535              AV 8 B/R                 CCN000003900000003900FN00000000020220701000003900NNE   20220330100143    1W    00000010000010466200000000032D1    TOYOT-K 000000000000KO324050
BI00B32D1    DFTW2226       2022050518000004540              AV 8 W                   CCN000008200000008200FN00000000020220701000008200NNE   20220330100143    1W    00000010000010466200000000032D1    TOYOT-K 000000000000KO324053
BI00B32D1    DFTW2226       2022050518000004543              AV 8 W/B                 CCN000007900000007900FN00000000020220701000007900NNE   20220330100143    1W    00000010000010466200000000032D1    TOYOT-K 000000000000KO324054
BI00B32D1    DFTW2226       2022050518000004550              AV 8 R                   CCN000000900000000900FN00000000020220701000000900NNE   20220330100143    1W    00000010000010466200000000032D1    TOYOT-K 000000000000KO324052
BI00B32D1    @DFTW2226      20220505181AD2002ZZ              CIVUSAS-S 0.35X2 B       CCN000011700000011700FN00000000020220701000011700NNE   20220330100140    1W    00000045000001713700000000032D1    TOYOT-K 000000000000KO324023
BI00B32D1    @DFTW2226      20220505181AD2003ZZ              CIVUSAS-S 0.35X3 B       CCN000003850000003850FN00000000020220701000003850NNE   20220330100140    1W    00000035000002172100000000032D1    TOYOT-K 000000000000KO324024
BI00B32D1    @DFTW2226      20220505181AD2004ZZ              CIVUSAS-S 0.35X4 B       CCN000021600000021600FN00000000020220701000021600NNE   20220330100140    1W    00000030000002799900000000032D1    TOYOT-K 000000000000KO324025
BI00B32D1    @DFTW2226      20220505181E48031ZZ              CAVSAS-S 0.3X2 GY        CCN000005600000005600FN00000000020220701000005600NNE   20220330100140    1W    00000035000002008700000000032D1    TOYOT-K 000000000000KO324026
BI00B32D1    @DFTW2226      20220505181E48037ZZ              CAVSAS-S 0.3X4 GY        CCN000007250000007250FN00000000020220701000007250NNE   20220330100140    1W    00000025000003262000000000032D1    TOYOT-K 000000000000KO324028
BI00B32D1    @DFTW2226      20220505181E48041ZZ              CAVSAS-S 0.3X2 GY/R      CCN000003150000003150FN00000000020220701000003150NNE   20220330100140    1W    00000035000002008700000000032D1    TOYOT-K 000000000000KO324027
BI00B32D1    @DFTW2226      20220505181E50002ZZ              AVSSCS-S 0.3FX2 DGY/G    CCN000007700000007700FN00000000020220701000007700NNE   20220330100140    1W    00000035000002165000000000032D1    TOYOT-K 000000000000KO324034
BI00B32D1    @DFTW2226      20220505181E50004ZZ              AVSSCS-S 0.5FX1 DGY      CCN000009200000009200FN00000000020220701000009200NNE   20220330100140    1W    00000040000001909700000000032D1    TOYOT-K 000000000000KO324029
BI00B32D1    @DFTW2226      20220505181E50005ZZ              AVSSCS-S 0.5FX1 DGY/W    CCN000002800000002800FN00000000020220701000002800NNE   20220330100140    1W    00000040000001909700000000032D1    TOYOT-K 000000000000KO324032
BI00B32D1    @DFTW2226      20220505181E50007ZZ              AVSSCS-S 0.5FX1 DGY/L    CCN000004400000004400FN00000000020220701000004400NNE   20220330100140    1W    00000040000001909700000000032D1    TOYOT-K 000000000000KO324030
BI00B32D1    @DFTW2226      20220505181E50014ZZ              AVSSCS-S 0.5FX1 DGY/R    CCN000000400000000400FN00000000020220701000000400NNE   20220330100140    1W    00000040000001909700000000032D1    TOYOT-K 000000000000KO324031
BI00B32D1    @DFTW2226      20220505181E50020ZZ              AVSSCS-S 0.3FX2 DGY/R    CCN000004900000004900FN00000000020220701000004900NNE   20220330100140    1W    00000035000002165000000000032D1    TOYOT-K 000000000000KO324036
BI00B32D1    @DFTW2226      20220505181E50021ZZ              AVSSCS-S 0.3FX2 DGY/P    CCN000005250000005250FN00000000020220701000005250NNE   20220330100140    1W    00000035000002165000000000032D1    TOYOT-K 000000000000KO324035
BI00B32D1    @DFTW2226      20220505181E50036ZZ              AVSSCS-S 0.3FX2 DGY      CCN000005250000005250FN00000000020220701000005250NNE   20220330100140    1W    00000035000002165000000000032D1    TOYOT-K 000000000000KO324033
BI00A32H2    TAW205B        2022042218000004540              AV 8 W                   CCN000016000000016000FN00000000020220401000016000NNE   20220330092322    1W    00000010000010466200000000032H2    HVYHV   000000000000UB224001
BI00A32H2    TAW205C        2022050618000004543              AV 8 W/B                 CCN000000800000000800FN00000000020220501000000800NNE   20220330092324    1W    00000010000010466200000000032H2    HVYHV   000000000000UC324001
BI00B32R7    R-TAP220150    2022042118018403940              CAVS 0.5 W               CCN000001500000001500FN00000000020220401000001500NNE   20220330094715    1W    00000150000000677000000000032R7    IVYCIC  000000000000SF124003
BI00B32R7    R-TAP220150    2022042118018403951              CAVS 0.5 O               CCN000001500000001500FN00000000020220401000001500NNE   20220330094715    1W    00000150000000677000000000032R7    IVYCIC  000000000000SF124002
BI00B32R7    R-TAP220150    2022042118018403960              CAVS 0.5 G               CCN000003000000003000FN00000000020220401000003000NNE   20220330094715    1W    00000150000000677000000000032R7    IVYCIC  000000000000SF124001
BI00B32R7    R-TAP220150    2022042118018403970              CAVS 0.5 Y               CCN000007500000007500FN00000000020220401000007500NNE   20220330094715    1W    00000150000000677000000000032R7    IVYCIC  000000000000SF124004
BI00B32R7    R-TAP220151    2022042118018403930              CAVS 0.5 B               CCN000004500000004500FN00000000020220401000004500NNE   20220330094717    1W    00000150000000677000000000032R7    IVYCIC  000000000000SG124001
BI00B32R7    R-TAP220151    2022042118018403940              CAVS 0.5 W               CCN000009000000009000FN00000000020220401000009000NNE   20220330094717    1W    00000150000000677000000000032R7    IVYCIC  000000000000SG124007
BI00B32R7    R-TAP220151    2022042118018403950              CAVS 0.5 R               CCN000003000000003000FN00000000020220401000003000NNE   20220330094717    1W    00000150000000677000000000032R7    IVYCIC  000000000000SG124006
BI00B32R7    R-TAP220151    2022042118018403951              CAVS 0.5 O               CCN000012000000012000FN00000000020220401000012000NNE   20220330094717    1W    00000150000000677000000000032R7    IVYCIC  000000000000SG124005
BI00B32R7    R-TAP220151    2022042118018403960              CAVS 0.5 G               CCN000006000000006000FN00000000020220401000006000NNE   20220330094717    1W    00000150000000677000000000032R7    IVYCIC  000000000000SG124003
BI00B32R7    R-TAP220151    2022042118018403970              CAVS 0.5 Y               CCN000021000000021000FN00000000020220401000021000NNE   20220330094717    1W    00000150000000677000000000032R7    IVYCIC  000000000000SG124008
BI00B32R7    R-TAP220151    2022042118018403980              CAVS 0.5 BR              CCN000003000000003000FN00000000020220401000003000NNE   20220330094717    1W    00000150000000677000000000032R7    IVYCIC  000000000000SG124002
BI00B32R7    R-TAP220151    2022042118018403990              CAVS 0.5 L               CCN000010500000010500FN00000000020220401000010500NNE   20220330094717    1W    00000150000000677000000000032R7    IVYCIC  000000000000SG124004
BI00B32R7    R-TAP220153    2022042118018403940              CAVS 0.5 W               CCN000007500000007500FN00000000020220401000007500NNE   20220330094717    1W    00000150000000677000000000032R7    IVYCIC  000000000000SM124004
BI00B32R7    R-TAP220153    2022042118018403951              CAVS 0.5 O               CCN000007500000007500FN00000000020220401000007500NNE   20220330094717    1W    00000150000000677000000000032R7    IVYCIC  000000000000SM124003
BI00B32R7    R-TAP220153    2022042118018403960              CAVS 0.5 G               CCN000003000000003000FN00000000020220401000003000NNE   20220330094717    1W    00000150000000677000000000032R7    IVYCIC  000000000000SM124001
BI00B32R7    R-TAP220153    2022042118018403970              CAVS 0.5 Y               CCN000015000000015000FN00000000020220401000015000NNE   20220330094717    1W    00000150000000677000000000032R7    IVYCIC  000000000000SM124005
BI00B32R7    R-TAP220153    2022042118018403990              CAVS 0.5 L               CCN000009000000009000FN00000000020220401000009000NNE   20220330094717    1W    00000150000000677000000000032R7    IVYCIC  000000000000SM124002
BI00B32R7    R-TAP220156    2022042118018403730              CAVS 0.3 B               CCN000002000000002000FN00000000020220401000002000NNE   20220330094718    1W    00000200000000471000000000032R7    IVYCIC  000000000000SN124001
BI00B32R7    R-TAP220156    2022042118018403740              CAVS 0.3 W               CCN000002000000002000FN00000000020220401000002000NNE   20220330094718    1W    00000200000000471000000000032R7    IVYCIC  000000000000SN124004
BI00B32R7    R-TAP220156    2022042118018403750              CAVS 0.3 R               CCN000002000000002000FN00000000020220401000002000NNE   20220330094718    1W    00000200000000471000000000032R7    IVYCIC  000000000000SN124003
BI00B32R7    R-TAP220156    2022042118018403760              CAVS 0.3 G               CCN000002000000002000FN00000000020220401000002000NNE   20220330094718    1W    00000200000000471000000000032R7    IVYCIC  000000000000SN124002
BI00B32R7    R-TAP220156    2022042118018403930              CAVS 0.5 B               CCN000004500000004500FN00000000020220401000004500NNE   20220330094718    1W    00000150000000677000000000032R7    IVYCIC  000000000000SN124005
BI00B32R7    R-TAP220156    2022042118018403961              CAVS 0.5 LG              CCN000003000000003000FN00000000020220401000003000NNE   20220330094718    1W    00000150000000677000000000032R7    IVYCIC  000000000000SN124007
BI00B32R7    R-TAP220156    2022042118018403990              CAVS 0.5 L               CCN000004500000004500FN00000000020220401000004500NNE   20220330094718    1W    00000150000000677000000000032R7    IVYCIC  000000000000SN124006
BI00B32W4    4500191611     2022050318018403992              CAVS 0.5 V               CCN000004500000004500FN00000000020220501000004500NNE   20220330111318W41 1W    00000150000000677000000000032W41   HJYHK-J 000000000000OB324001
BI00B32W4    4500191645     2022050318018403750              CAVS 0.3 R               CCN000002000000002000FN00000000020220501000002000NNE   20220330111320W41 1W    00000200000000471000000000032W41   HJYHK-J 000000000000OC324001
BI00B32W4    4500191645     2022050318018403792              CAVS 0.3 V               CCN000004000000004000FN00000000020220501000004000NNE   20220330111320W41 1W    00000200000000471000000000032W41   HJYHK-J 000000000000OC324002
BI00B32W4    4500191645     2022050318018403992              CAVS 0.5 V               CCN000001500000001500FN00000000020220501000001500NNE   20220330111320W41 1W    00000150000000677000000000032W41   HJYHK-J 000000000000OC324003
