BI00B1200    #8670T52104    202203317172-5629-80             RUBBER STOPPER           CCN000020000000020000FN00000000020220401000020000NNE00020220324161652    2H0H  0000200000000006000000011111200    YCYC    004300270014
BI00B1200    8870T52203     202205197289-3342                HOUSING FEMALE ASS'Y     CCN000002400000002400FN00000000020220501000002400NNED0420220324122018    1N0N  0000024000000068640000090141200    YCYC    005500360039
BI00B1200    8750T52301     202205057289-3342                HOUSING FEMALE ASS'Y     CCN000002400000002400FN00000000020220501000002400NNMD0420220324122018    1N0N  0000024000000068640000090141200    YCYC    005500360039
BI00B1200    2399T52316     202204217289-3342                HOUSING FEMALE ASS'Y     CCN000004800000004800FN00000000020220501000004800NNMD0420220324122018    1N0N  0000024000000068640000090141200    YCYC    005500360039
BI00B1200    2399T52317     202205057289-3342                HOUSING FEMALE ASS'Y     CCN000004800000004800FN00000000020220501000004800NNMD0420220324122018    1N0N  0000024000000068640000090141200    YCYC    005500360039
BI00B1200    2399T52319     202205127289-3342                HOUSING FEMALE ASS'Y     CCN000004800000004800FN00000000020220501000004800NNMD0420220324122018    1N0N  0000024000000068640000090141200    YCYC    005500360039
BI00B1200    7860T52301     202205197289-3342                HOUSING FEMALE ASS'Y     CCN000002400000002400FN00000000020220501000002400NNMD0420220324122018    1N0N  0000024000000068640000090141200    YCYC    005500360039
BI00B1200    7800T52401     202204217388-2978-30             HOUSING MALE ASS'Y       CCN000000480000000480FN00000000020220501000000480NNE   20220324142008    1N0N  0000004800000074200000112201200    YCYC    005500360039
BI00B1200    8750T52401     202205057288-3340-30             HOUSING MALE             CCN000007500000007500FN00000000020220601000007500NNM   20220324142238    4N0N  0000015000000086150000100641200    YCYC    005400370024
BI00B1200    8750T52401     202205057289-3342                HOUSING FEMALE ASS'Y     CCN000007200000007200FN00000000020220601000007200NNM   20220324142238    1N0N  0000024000000068640000090141200    YCYC    005500360039
BI00B1200    #8750T52401    202205057189-3031-30             HOUSING FEMALE           CCN000007200000007200FN00000000020220601000007200NNM   20220324142235    2F0F  0000024000000092880000136581200    YCYC    005500360039
BI00B1200    #H322F50024    202205267174-1760-50             CAP                      CCN000030000000030000FN00000000020220601000030000NNE   20220324142307    2F0F  0000030000000081360000092261200    YCYC    005400370024
BI00B1200    O022E50411     202205267298-1187-30             SHUNT RING ASSEMBLY      CCN000020000000020000FN00000000020220601000020000NNE   20220324142333    4N0N  0000100000000064700000076951200    YCYC    005400370024
BI00B1200    O022F50119     202205267116-4100-02             TERMINAL                 CCN000045000000045000FN00000000020220601000045000NNE   20220324142401    4P0P  0000150000000069600000099021200    YCYC    006400630015
BI00B1200    O022F50120     202205267116-4100-02             TERMINAL                 CCN000075000000075000FN00000000020220601000075000NNE   20220324142543    4P0P  0000150000000069600000099021200    YCYC    006400630015
BI00B1200    O022F50121     202205267116-4100-02             TERMINAL                 CCN000060000000060000FN00000000020220601000060000NNE   20220324142606    4P0P  0000150000000069600000099021200    YCYC    006400630015
BI00B1200    O022F50122     202205267116-4100-02             TERMINAL                 CCN000045000000045000FN00000000020220601000045000NNE   20220324142627    4P0P  0000150000000069600000099021200    YCYC    006400630015
BI00B1200    Y122E030       202204077288-3330-30             HOUSING MALE             CCN000001500000001500FN00000000020220501000001500NNE   20220324143123    4N0N  0000015000000086630000101121200    YCYC    005400370024
BI00B1200    CE22-MN-0056   202204077196-1462-06             TERMINAL FEMALE          CCN000021000000021000FN00000000020220401000021000NNE   20220324143520    4P0P  0000210000000035280000065931200    YCYC    006400630015
BI00B1200    7504T220323    202204217340-9416-0W             J/B ASS'Y                CCN000000040000000040FN00000000020220401000000040NNED0720220324144017    4J0J  0000000100000054860000073401200    YCYC    005400370024
BI00B1200    7504T220323    202204217340-9147-0W             J/B ASS'Y                CCN000000020000000020FN00000000020220401000000020NNED0720220324144017    4J0J  0000000100000053400000071831200    YCYC    005400370024
BI00B1200    7504T220323    202204217340-9446                J/B ASS'Y                CCN000000016000000016FN00000000020220401000000016NNED0720220324144017    4J0J  0000000080000072500000088701200    YCYC    005400370024
BI00B1200    2399T52414     202205057116-4100-02             TERMINAL                 CCN000210000000210000FN00000000020220601000210000NNM   20220324150235    4P0P  0000150000000069600000099021200    YCYC    006400630015
BI00B1200    2399T52415     202205127116-4100-02             TERMINAL                 CCN000210000000210000FN00000000020220601000210000NNM   20220324150235    4P0P  0000150000000069600000099021200    YCYC    006400630015
BI00B1200    2399T52416     202205197116-4100-02             TERMINAL                 CCN000195000000195000FN00000000020220601000195000NNM   20220324150235    4P0P  0000150000000069600000099021200    YCYC    006400630015
BI00B1200    2399T52417     202205267116-4100-02             TERMINAL                 CCN000195000000195000FN00000000020220601000195000NNM   20220324150235    4P0P  0000150000000069600000099021200    YCYC    006400630015
BI00B1200    2399T52414     202205057116-4111-02             TERMINAL                 CCN000052500000052500FN00000000020220601000052500NNM   20220324150235    4P0P  0000075000000052950000081771200    YCYC    006400630015
BI00B1200    2399T52415     202205127116-4111-02             TERMINAL                 CCN000052500000052500FN00000000020220601000052500NNM   20220324150235    4P0P  0000075000000052950000081771200    YCYC    006400630015
BI00B1200    2399T52416     202205197116-4111-02             TERMINAL                 CCN000052500000052500FN00000000020220601000052500NNM   20220324150235    4P0P  0000075000000052950000081771200    YCYC    006400630015
BI00B1200    2399T52417     202205267116-4111-02             TERMINAL                 CCN000052500000052500FN00000000020220601000052500NNM   20220324150235    4P0P  0000075000000052950000081771200    YCYC    006400630015
BI00B1200    2399T52414     202205057116-4112-02             TERMINAL                 CCN000048000000048000FN00000000020220601000048000NNM   20220324150235    4P0P  0000060000000045000000073821200    YCYC    006400630015
BI00B1200    2399T52415     202205127116-4112-02             TERMINAL                 CCN000042000000042000FN00000000020220601000042000NNM   20220324150235    4P0P  0000060000000045000000073821200    YCYC    006400630015
BI00B1200    2399T52416     202205197116-4112-02             TERMINAL                 CCN000042000000042000FN00000000020220601000042000NNM   20220324150235    4P0P  0000060000000045000000073821200    YCYC    006400630015
BI00B1200    2399T52417     202205267116-4112-02             TERMINAL                 CCN000042000000042000FN00000000020220601000042000NNM   20220324150235    4P0P  0000060000000045000000073821200    YCYC    006400630015
BI00B1200    2399T52414     202205057158-3022-80             RUBBER STOPPER           CCN000035000000035000FN00000000020220601000035000NNM   20220324150235    1C0C  0000050000000046750000052401200    YCYC    002700430014
BI00B1200    2399T52415     202205127158-3022-80             RUBBER STOPPER           CCN000030000000030000FN00000000020220601000030000NNM   20220324150235    1C0C  0000050000000046750000052401200    YCYC    002700430014
BI00B1200    2399T52416     202205197158-3022-80             RUBBER STOPPER           CCN000030000000030000FN00000000020220601000030000NNM   20220324150235    1C0C  0000050000000046750000052401200    YCYC    002700430014
BI00B1200    2399T52417     202205267158-3022-80             RUBBER STOPPER           CCN000030000000030000FN00000000020220601000030000NNM   20220324150235    1C0C  0000050000000046750000052401200    YCYC    002700430014
BI00B1200    2399T52414     202205057172-5402-30             SEAL RUBBER              CCN000008000000008000FN00000000020220601000008000NNM   20220324150235    1C0C  0000080000000045760000050601200    YCYC    004300270014
BI00B1200    2399T52415     202205127172-5402-30             SEAL RUBBER              CCN000008000000008000FN00000000020220601000008000NNM   20220324150235    1C0C  0000080000000045760000050601200    YCYC    004300270014
BI00B1200    2399T52414     202205057172-5540-80             SEALED WIRE SEAL         CCN000200000000200000FN00000000020220601000200000NNM   20220324150235    1C0C  0000200000000018600000023441200    YCYC    004300270014
BI00B1200    2399T52415     202205127172-5540-80             SEALED WIRE SEAL         CCN000180000000180000FN00000000020220601000180000NNM   20220324150235    1C0C  0000200000000018600000023441200    YCYC    004300270014
BI00B1200    2399T52416     202205197172-5540-80             SEALED WIRE SEAL         CCN000180000000180000FN00000000020220601000180000NNM   20220324150235    1C0C  0000200000000018600000023441200    YCYC    004300270014
BI00B1200    2399T52417     202205267172-5540-80             SEALED WIRE SEAL         CCN000180000000180000FN00000000020220601000180000NNM   20220324150235    1C0C  0000200000000018600000023441200    YCYC    004300270014
BI00B1200    #2399T52414    202205057124-1026-30             PROTECTOR                CCN000003000000003000FN00000000020220601000003000NNM   20220324150233    2F0F  0000030000000082800000098601200    YCYC    005500360039
BI00B1200    #2399T52415    202205127124-1026-30             PROTECTOR                CCN000003000000003000FN00000000020220601000003000NNM   20220324150233    2F0F  0000030000000082800000098601200    YCYC    005500360039
BI00B1200    #2399T52416    202205197124-1026-30             PROTECTOR                CCN000003000000003000FN00000000020220601000003000NNM   20220324150233    2F0F  0000030000000082800000098601200    YCYC    005500360039
BI00B1200    #2399T52417    202205267124-1026-30             PROTECTOR                CCN000003000000003000FN00000000020220601000003000NNM   20220324150233    2F0F  0000030000000082800000098601200    YCYC    005500360039
BI00B1200    #2399T52414    202205057174-1270-30             SEALED COVER             CCN000003200000003200FN00000000020220601000003200NNM   20220324150233    2F0F  0000008000000056070000067911200    YCYC    005500360039
BI00B1200    #2399T52415    202205127174-1270-30             SEALED COVER             CCN000003200000003200FN00000000020220601000003200NNM   20220324150233    2F0F  0000008000000056070000067911200    YCYC    005500360039
BI00B1200    #2399T52416    202205197174-1270-30             SEALED COVER             CCN000003200000003200FN00000000020220601000003200NNM   20220324150233    2F0F  0000008000000056070000067911200    YCYC    005500360039
BI00B1200    #2399T52417    202205267174-1270-30             SEALED COVER             CCN000002400000002400FN00000000020220601000002400NNM   20220324150233    2F0F  0000008000000056070000067911200    YCYC    005500360039
BI00B1200    #2399T52414    202205057174-1271-30             SEALED COVER             CCN000000960000000960FN00000000020220601000000960NNM   20220324150233    2F0F  0000003200000038370000050211200    YCYC    005500360039
BI00B1200    #2399T52415    202205127174-1271-30             SEALED COVER             CCN000000960000000960FN00000000020220601000000960NNM   20220324150233    2F0F  0000003200000038370000050211200    YCYC    005500360039
BI00B1200    #2399T52416    202205197174-1271-30             SEALED COVER             CCN000000960000000960FN00000000020220601000000960NNM   20220324150233    2F0F  0000003200000038370000050211200    YCYC    005500360039
BI00B1200    #2399T52417    202205267174-1271-30             SEALED COVER             CCN000000960000000960FN00000000020220601000000960NNM   20220324150233    2F0F  0000003200000038370000050211200    YCYC    005500360039
BI00B1200    #2399T52414    202205057174-1314-30             SEALED COVER             CCN000006400000006400FN00000000020220601000006400NNM   20220324150233    2F0F  0000008000000076930000088931200    YCYC    005500360039
BI00B1200    #2399T52415    202205127174-1314-30             SEALED COVER             CCN000005600000005600FN00000000020220601000005600NNM   20220324150233    2F0F  0000008000000076930000088931200    YCYC    005500360039
BI00B1200    #2399T52416    202205197174-1314-30             SEALED COVER             CCN000005600000005600FN00000000020220601000005600NNM   20220324150233    2F0F  0000008000000076930000088931200    YCYC    005500360039
BI00B1200    #2399T52417    202205267174-1314-30             SEALED COVER             CCN000005600000005600FN00000000020220601000005600NNM   20220324150233    2F0F  0000008000000076930000088931200    YCYC    005500360039
BI00B1200    #2399T52414    202205057174-1315-30             SEALED COVER             CCN000007200000007200FN00000000020220601000007200NNM   20220324150233    2F0F  0000008000000078200000090201200    YCYC    005500360039
BI00B1200    #2399T52415    202205127174-1315-30             SEALED COVER             CCN000007200000007200FN00000000020220601000007200NNM   20220324150233    2F0F  0000008000000078200000090201200    YCYC    005500360039
BI00B1200    #2399T52416    202205197174-1315-30             SEALED COVER             CCN000006400000006400FN00000000020220601000006400NNM   20220324150233    2F0F  0000008000000078200000090201200    YCYC    005500360039
BI00B1200    #2399T52417    202205267174-1315-30             SEALED COVER             CCN000006400000006400FN00000000020220601000006400NNM   20220324150233    2F0F  0000008000000078200000090201200    YCYC    005500360039
BI00B1200    2399T52418     202205057195-0546-02             TERMINAL ALUMINIUM       CCN000025500000025500FN00000000020220601000025500NNM   20220324150323    4P0P  0000255000000040920000074491200    YCYC    006400630015
BI00B1200    2399T52419     202205127195-0546-02             TERMINAL ALUMINIUM       CCN000025500000025500FN00000000020220601000025500NNM   20220324150323    4P0P  0000255000000040920000074491200    YCYC    006400630015
BI00B1200    2399T52418     202205057195-0783-08             TERMINAL                 CCN000150000000150000FN00000000020220601000150000NNM   20220324150323    4P0P  0000300000000050700000080121200    YCYC    006400630015
BI00B1200    2399T52419     202205127195-0783-08             TERMINAL                 CCN000150000000150000FN00000000020220601000150000NNM   20220324150323    4P0P  0000300000000050700000080121200    YCYC    006400630015
BI00B1200    2399T52420     202205197195-0783-08             TERMINAL                 CCN000120000000120000FN00000000020220601000120000NNM   20220324150323    4P0P  0000300000000050700000080121200    YCYC    006400630015
BI00B1200    2399T52421     202205267195-0783-08             TERMINAL                 CCN000120000000120000FN00000000020220601000120000NNM   20220324150323    4P0P  0000300000000050700000080121200    YCYC    006400630015
BI00B1200    2399T52418     202205057196-0104-02             TERMINAL                 CCN000038000000038000FN00000000020220601000038000NNM   20220324150323    4P0P  0000380000000057000000095641200    YCYC    006400630017
BI00B1200    2399T52419     202205127196-0104-02             TERMINAL                 CCN000038000000038000FN00000000020220601000038000NNM   20220324150323    4P0P  0000380000000057000000095641200    YCYC    006400630017
BI00B1200    2399T52420     202205197196-0104-02             TERMINAL                 CCN000038000000038000FN00000000020220601000038000NNM   20220324150323    4P0P  0000380000000057000000095641200    YCYC    006400630017
BI00B1200    2399T52418     202205057196-0648-02             TERMINAL                 CCN000135000000135000FN00000000020220601000135000NNM   20220324150323    4P0P  0000150000000035550000068971200    YCYC    006400630015
BI00B1200    2399T52419     202205127196-0648-02             TERMINAL                 CCN000135000000135000FN00000000020220601000135000NNM   20220324150323    4P0P  0000150000000035550000068971200    YCYC    006400630015
BI00B1200    2399T52420     202205197196-0648-02             TERMINAL                 CCN000120000000120000FN00000000020220601000120000NNM   20220324150323    4P0P  0000150000000035550000068971200    YCYC    006400630015
BI00B1200    2399T52421     202205267196-0648-02             TERMINAL                 CCN000120000000120000FN00000000020220601000120000NNM   20220324150323    4P0P  0000150000000035550000068971200    YCYC    006400630015
BI00B1200    2399T52418     202205057196-0805-02             TERMINAL FEMALE          CCN000247500000247500FN00000000020220601000247500NNM   20220324150323    4P0P  0000225000000055800000084321200    YCYC    006400630015
BI00B1200    2399T52419     202205127196-0805-02             TERMINAL FEMALE          CCN000247500000247500FN00000000020220601000247500NNM   20220324150323    4P0P  0000225000000055800000084321200    YCYC    006400630015
BI00B1200    2399T52420     202205197196-0805-02             TERMINAL FEMALE          CCN000247500000247500FN00000000020220601000247500NNM   20220324150323    4P0P  0000225000000055800000084321200    YCYC    006400630015
BI00B1200    2399T52421     202205267196-0805-02             TERMINAL FEMALE          CCN000247500000247500FN00000000020220601000247500NNM   20220324150323    4P0P  0000225000000055800000084321200    YCYC    006400630015
BI00B1200    2399T52418     202205057282-5574-10             CONNECTOR                CCN000001600000001600FN00000000020220601000001600NNM   20220324150323    4N0N  0000008000000123500000142301200    YCYC    005600390040
BI00B1200    2399T52419     202205127282-5574-10             CONNECTOR                CCN000001600000001600FN00000000020220601000001600NNM   20220324150323    4N0N  0000008000000123500000142301200    YCYC    005600390040
BI00B1200    2399T52420     202205197282-5574-10             CONNECTOR                CCN000000800000000800FN00000000020220601000000800NNM   20220324150323    4N0N  0000008000000123500000142301200    YCYC    005600390040
BI00B1200    2399T52421     202205267282-5574-10             CONNECTOR                CCN000000800000000800FN00000000020220601000000800NNM   20220324150323    4N0N  0000008000000123500000142301200    YCYC    005600390040
BI00B1200    2399T52418     202205057287-9323                UNSEALED HOUSING SUB     CCN000007200000007200FN00000000020220601000007200NNM   20220324150323    1N0N  0000024000000053760000069001200    YCYC    005600390023
BI00B1200    2399T52419     202205127287-9323                UNSEALED HOUSING SUB     CCN000007200000007200FN00000000020220601000007200NNM   20220324150323    1N0N  0000024000000053760000069001200    YCYC    005600390023
BI00B1200    2399T52420     202205197287-9323                UNSEALED HOUSING SUB     CCN000007200000007200FN00000000020220601000007200NNM   20220324150323    1N0N  0000024000000053760000069001200    YCYC    005600390023
BI00B1200    2399T52421     202205267287-9323                UNSEALED HOUSING SUB     CCN000007200000007200FN00000000020220601000007200NNM   20220324150323    1N0N  0000024000000053760000069001200    YCYC    005600390023
BI00B1200    2399T52418     202205057288-3334-30             HOUSING MALE             CCN000001500000001500FN00000000020220601000001500NNM   20220324150323    4N0N  0000015000000086700000101201200    YCYC    005400370024
BI00B1200    2399T52419     202205127288-3334-30             HOUSING MALE             CCN000001500000001500FN00000000020220601000001500NNM   20220324150323    4N0N  0000015000000086700000101201200    YCYC    005400370024
BI00B1200    2399T52420     202205197288-3334-30             HOUSING MALE             CCN000001500000001500FN00000000020220601000001500NNM   20220324150323    4N0N  0000015000000086700000101201200    YCYC    005400370024
BI00B1200    2399T52418     202205057288-6547                CONNECTOR MALE ASS'Y     CCN000100500000100500FN00000000020220601000100500NNM   20220324150323    4N0N  0000007500000120530000134031200    YCYC    005400370024
BI00B1200    2399T52419     202205127288-6547                CONNECTOR MALE ASS'Y     CCN000100500000100500FN00000000020220601000100500NNM   20220324150323    4N0N  0000007500000120530000134031200    YCYC    005400370024
BI00B1200    2399T52420     202205197288-6547                CONNECTOR MALE ASS'Y     CCN000099750000099750FN00000000020220601000099750NNM   20220324150323    4N0N  0000007500000120530000134031200    YCYC    005400370024
BI00B1200    2399T52421     202205267288-6547                CONNECTOR MALE ASS'Y     CCN000099750000099750FN00000000020220601000099750NNM   20220324150323    4N0N  0000007500000120530000134031200    YCYC    005400370024
BI00B1200    2399T52418     202205057288-6598-70             HOUSING MALE ASS'Y       CCN000024480000024480FN00000000020220601000024480NNM   20220324150323    4N0N  0000014400000107420000142921200    YCYC    005500360039
BI00B1200    2399T52419     202205127288-6598-70             HOUSING MALE ASS'Y       CCN000024480000024480FN00000000020220601000024480NNM   20220324150323    4N0N  0000014400000107420000142921200    YCYC    005500360039
BI00B1200    2399T52420     202205197288-6598-70             HOUSING MALE ASS'Y       CCN000023040000023040FN00000000020220601000023040NNM   20220324150323    4N0N  0000014400000107420000142921200    YCYC    005500360039
BI00B1200    2399T52421     202205267288-6598-70             HOUSING MALE ASS'Y       CCN000023040000023040FN00000000020220601000023040NNM   20220324150323    4N0N  0000014400000107420000142921200    YCYC    005500360039
BI00B1200    #2399T52418    202205057174-1515                FRONT DOOR COVER         CCN000009600000009600FN00000000020220601000009600NNM   20220324150320    2F0F  0000006000000049020000061021200    YCYC    005500360039
BI00B1200    #2399T52419    202205127174-1515                FRONT DOOR COVER         CCN000009600000009600FN00000000020220601000009600NNM   20220324150320    2F0F  0000006000000049020000061021200    YCYC    005500360039
BI00B1200    #2399T52420    202205197174-1515                FRONT DOOR COVER         CCN000009600000009600FN00000000020220601000009600NNM   20220324150320    2F0F  0000006000000049020000061021200    YCYC    005500360039
BI00B1200    #2399T52421    202205267174-1515                FRONT DOOR COVER         CCN000009600000009600FN00000000020220601000009600NNM   20220324150320    2F0F  0000006000000049020000061021200    YCYC    005500360039
BI00B1200    #2399T52418    202205057189-2978-30             HOUSING FEMALE           CCN000001500000001500FN00000000020220601000001500NNM   20220324150320    2F0F  0000015000000096690000109691200    YCYC    005400370024
BI00B1200    #2399T52418    202205057189-3034-30             HOUSING FEMALE           CCN000016000000016000FN00000000020220601000016000NNM   20220324150320    2F0F  0000016000000097280000119281200    YCYC    005500360039
BI00B1200    #2399T52419    202205127189-3034-30             HOUSING FEMALE           CCN000016000000016000FN00000000020220601000016000NNM   20220324150320    2F0F  0000016000000097280000119281200    YCYC    005500360039
BI00B1200    #2399T52420    202205197189-3034-30             HOUSING FEMALE           CCN000016000000016000FN00000000020220601000016000NNM   20220324150320    2F0F  0000016000000097280000119281200    YCYC    005500360039
BI00B1200    #2399T52421    202205267189-3034-30             HOUSING FEMALE           CCN000014400000014400FN00000000020220601000014400NNM   20220324150320    2F0F  0000016000000097280000119281200    YCYC    005500360039
BI00B1200    #2399T52418    202205057189-3036-30             HOUSING FEMALE           CCN000003200000003200FN00000000020220601000003200NNM   20220324150320    2F0F  0000016000000092000000114001200    YCYC    005500360039
BI00B1200    #2399T52419    202205127189-3036-30             HOUSING FEMALE           CCN000003200000003200FN00000000020220601000003200NNM   20220324150320    2F0F  0000016000000092000000114001200    YCYC    005500360039
BI00B1200    #2399T52420    202205197189-3036-30             HOUSING FEMALE           CCN000003200000003200FN00000000020220601000003200NNM   20220324150320    2F0F  0000016000000092000000114001200    YCYC    005500360039
BI00B1200    #2399T52421    202205267189-3036-30             HOUSING FEMALE           CCN000001600000001600FN00000000020220601000001600NNM   20220324150320    2F0F  0000016000000092000000114001200    YCYC    005500360039
BI00B1200    #2399T52418    202205057198-1373-60             HOUSING FEMALE           CCN000006000000006000FN00000000020220601000006000NNM   20220324150320    2F0F  0000020000000081940000094741200    YCYC    005400370024
BI00B1200    #2399T52419    202205127198-1373-60             HOUSING FEMALE           CCN000006000000006000FN00000000020220601000006000NNM   20220324150320    2F0F  0000020000000081940000094741200    YCYC    005400370024
BI00B1200    #2399T52420    202205197198-1373-60             HOUSING FEMALE           CCN000004000000004000FN00000000020220601000004000NNM   20220324150320    2F0F  0000020000000081940000094741200    YCYC    005400370024
BI00B1200    #2399T52421    202205267198-1373-60             HOUSING FEMALE           CCN000004000000004000FN00000000020220601000004000NNM   20220324150320    2F0F  0000020000000081940000094741200    YCYC    005400370024
BI00B1200    2399T52422     202205057288-7969                HYBRID MALE ASS'Y        CCN000029760000029760FN00000000020220601000029760NNM   20220324150428    1N0N  0000003200000087620000110171200    YCYC    005400370024
BI00B1200    2399T52423     202205127288-7969                HYBRID MALE ASS'Y        CCN000029440000029440FN00000000020220601000029440NNM   20220324150428    1N0N  0000003200000087620000110171200    YCYC    005400370024
BI00B1200    2399T52424     202205197288-7969                HYBRID MALE ASS'Y        CCN000029440000029440FN00000000020220601000029440NNM   20220324150428    1N0N  0000003200000087620000110171200    YCYC    005400370024
BI00B1200    2399T52425     202205267288-7969                HYBRID MALE ASS'Y        CCN000029440000029440FN00000000020220601000029440NNM   20220324150428    1N0N  0000003200000087620000110171200    YCYC    005400370024
BI00B1200    2399T52422     202205057289-0269                HOUSING SUB ASSEMBLY     CCN000004800000004800FN00000000020220601000004800NNM   20220324150428    1N0N  0000016000000100210000123451200    YCYC    005500360039
BI00B1200    2399T52423     202205127289-0269                HOUSING SUB ASSEMBLY     CCN000004800000004800FN00000000020220601000004800NNM   20220324150428    1N0N  0000016000000100210000123451200    YCYC    005500360039
BI00B1200    2399T52424     202205197289-0269                HOUSING SUB ASSEMBLY     CCN000004800000004800FN00000000020220601000004800NNM   20220324150428    1N0N  0000016000000100210000123451200    YCYC    005500360039
BI00B1200    2399T52425     202205267289-0269                HOUSING SUB ASSEMBLY     CCN000003200000003200FN00000000020220601000003200NNM   20220324150428    1N0N  0000016000000100210000123451200    YCYC    005500360039
BI00B1200    2399T52422     202205057289-3342                HOUSING FEMALE ASS'Y     CCN000002400000002400FN00000000020220601000002400NNM   20220324150428    1N0N  0000024000000068640000090141200    YCYC    005500360039
BI00B1200    2399T52422     202205057289-4212-80             SEALED HOUSING ASS'Y     CCN000008000000008000FN00000000020220601000008000NNM   20220324150428    4N0N  0000020000000084860000097861200    YCYC    005400370024
BI00B1200    2399T52423     202205127289-4212-80             SEALED HOUSING ASS'Y     CCN000008000000008000FN00000000020220601000008000NNM   20220324150428    4N0N  0000020000000084860000097861200    YCYC    005400370024
BI00B1200    2399T52424     202205197289-4212-80             SEALED HOUSING ASS'Y     CCN000006000000006000FN00000000020220601000006000NNM   20220324150428    4N0N  0000020000000084860000097861200    YCYC    005400370024
BI00B1200    2399T52425     202205267289-4212-80             SEALED HOUSING ASS'Y     CCN000006000000006000FN00000000020220601000006000NNM   20220324150428    4N0N  0000020000000084860000097861200    YCYC    005400370024
BI00B1200    2399T52422     202205057289-6159-30             HOUSING FEMALE ASS'Y     CCN000001440000001440FN00000000020220601000001440NNM   20220324150428    4N0N  0000002400000109500000137501200    YCYC    005500360039
BI00B1200    2399T52423     202205127289-6159-30             HOUSING FEMALE ASS'Y     CCN000001440000001440FN00000000020220601000001440NNM   20220324150428    4N0N  0000002400000109500000137501200    YCYC    005500360039
BI00B1200    2399T52424     202205197289-6159-30             HOUSING FEMALE ASS'Y     CCN000001440000001440FN00000000020220601000001440NNM   20220324150428    4N0N  0000002400000109500000137501200    YCYC    005500360039
BI00B1200    2399T52425     202205267289-6159-30             HOUSING FEMALE ASS'Y     CCN000001200000001200FN00000000020220601000001200NNM   20220324150428    4N0N  0000002400000109500000137501200    YCYC    005500360039
BI00B1200    2399T52422     202205057289-6160-30             HOUSING FEMALE ASS'Y     CCN000000960000000960FN00000000020220601000000960NNM   20220324150428    4N0N  0000001600000103740000132041200    YCYC    005500360039
BI00B1200    2399T52423     202205127289-6160-30             HOUSING FEMALE ASS'Y     CCN000000960000000960FN00000000020220601000000960NNM   20220324150428    4N0N  0000001600000103740000132041200    YCYC    005500360039
BI00B1200    2399T52424     202205197289-6160-30             HOUSING FEMALE ASS'Y     CCN000000800000000800FN00000000020220601000000800NNM   20220324150428    4N0N  0000001600000103740000132041200    YCYC    005500360039
BI00B1200    2399T52425     202205267289-6160-30             HOUSING FEMALE ASS'Y     CCN000000800000000800FN00000000020220601000000800NNM   20220324150428    4N0N  0000001600000103740000132041200    YCYC    005500360039
BI00B1200    2399T52422     202205057289-6524-30             HOUSING FEMALE ASS'Y     CCN000000480000000480FN00000000020220601000000480NNM   20220324150428    4N0N  0000002400000135120000166621200    YCYC    005500360039
BI00B1200    2399T52423     202205127289-6524-30             HOUSING FEMALE ASS'Y     CCN000000480000000480FN00000000020220601000000480NNM   20220324150428    4N0N  0000002400000135120000166621200    YCYC    005500360039
BI00B1200    2399T52424     202205197289-6524-30             HOUSING FEMALE ASS'Y     CCN000000240000000240FN00000000020220601000000240NNM   20220324150428    4N0N  0000002400000135120000166621200    YCYC    005500360039
BI00B1200    2399T52425     202205267289-6524-30             HOUSING FEMALE ASS'Y     CCN000000240000000240FN00000000020220601000000240NNM   20220324150428    4N0N  0000002400000135120000166621200    YCYC    005500360039
BI00B1200    2399T52422     202205057289-6547                HOUSING FEMALE ASS'Y     CCN000100800000100800FN00000000020220601000100800NNM   20220324150428    1N0N  0000024000000115200000136201200    YCYC    005500360039
BI00B1200    2399T52423     202205127289-6547                HOUSING FEMALE ASS'Y     CCN000098400000098400FN00000000020220601000098400NNM   20220324150428    1N0N  0000024000000115200000136201200    YCYC    005500360039
BI00B1200    2399T52424     202205197289-6547                HOUSING FEMALE ASS'Y     CCN000098400000098400FN00000000020220601000098400NNM   20220324150428    1N0N  0000024000000115200000136201200    YCYC    005500360039
BI00B1200    2399T52425     202205267289-6547                HOUSING FEMALE ASS'Y     CCN000098400000098400FN00000000020220601000098400NNM   20220324150428    1N0N  0000024000000115200000136201200    YCYC    005500360039
BI00B1200    2399T52422     202205057289-6597-70             HOUSING FEMALE ASS'Y     CCN000004320000004320FN00000000020220601000004320NNM   20220324150428    4N0N  0000021600000128950000153951200    YCYC    005500360039
BI00B1200    2399T52423     202205127289-6597-70             HOUSING FEMALE ASS'Y     CCN000004320000004320FN00000000020220601000004320NNM   20220324150428    4N0N  0000021600000128950000153951200    YCYC    005500360039
BI00B1200    2399T52424     202205197289-6597-70             HOUSING FEMALE ASS'Y     CCN000002160000002160FN00000000020220601000002160NNM   20220324150428    4N0N  0000021600000128950000153951200    YCYC    005500360039
BI00B1200    2399T52425     202205267289-6597-70             HOUSING FEMALE ASS'Y     CCN000002160000002160FN00000000020220601000002160NNM   20220324150428    4N0N  0000021600000128950000153951200    YCYC    005500360039
BI00B1200    2399T52422     202205057289-6868-30             SEALED ASSY FEMALE       CCN000063000000063000FN00000000020220601000063000NNM   20220324150428    4N0N  0000025200000083920000111921200    YCYC    005500360039
BI00B1200    2399T52423     202205127289-6868-30             SEALED ASSY FEMALE       CCN000063000000063000FN00000000020220601000063000NNM   20220324150428    4N0N  0000025200000083920000111921200    YCYC    005500360039
BI00B1200    2399T52424     202205197289-6868-30             SEALED ASSY FEMALE       CCN000063000000063000FN00000000020220601000063000NNM   20220324150428    4N0N  0000025200000083920000111921200    YCYC    005500360039
BI00B1200    2399T52425     202205267289-6868-30             SEALED ASSY FEMALE       CCN000063000000063000FN00000000020220601000063000NNM   20220324150428    4N0N  0000025200000083920000111921200    YCYC    005500360039
BI00B1200    2399T52422     202205057289-7212-30             HOUSING FEMALE ASS'Y     CCN000002880000002880FN00000000020220601000002880NNM   20220324150428    4N0N  0000002400000138840000159341200    YCYC    005500360039
BI00B1200    2399T52423     202205127289-7212-30             HOUSING FEMALE ASS'Y     CCN000002640000002640FN00000000020220601000002640NNM   20220324150428    4N0N  0000002400000138840000159341200    YCYC    005500360039
BI00B1200    2399T52424     202205197289-7212-30             HOUSING FEMALE ASS'Y     CCN000002640000002640FN00000000020220601000002640NNM   20220324150428    4N0N  0000002400000138840000159341200    YCYC    005500360039
BI00B1200    2399T52425     202205267289-7212-30             HOUSING FEMALE ASS'Y     CCN000002640000002640FN00000000020220601000002640NNM   20220324150428    4N0N  0000002400000138840000159341200    YCYC    005500360039
BI00B1200    2399T52422     202205057289-7970                HYBRID FEMALE ASS'Y      CCN000022080000022080FN00000000020220601000022080NNM   20220324150428    1N0N  0000003200000073820000096471200    YCYC    005400370024
BI00B1200    2399T52423     202205127289-7970                HYBRID FEMALE ASS'Y      CCN000022080000022080FN00000000020220601000022080NNM   20220324150428    1N0N  0000003200000073820000096471200    YCYC    005400370024
BI00B1200    2399T52424     202205197289-7970                HYBRID FEMALE ASS'Y      CCN000022080000022080FN00000000020220601000022080NNM   20220324150428    1N0N  0000003200000073820000096471200    YCYC    005400370024
BI00B1200    2399T52425     202205267289-7970                HYBRID FEMALE ASS'Y      CCN000022080000022080FN00000000020220601000022080NNM   20220324150428    1N0N  0000003200000073820000096471200    YCYC    005400370024
BI00B1200    2399T52422     202205057289-9553-30             SEALED ASSY FEMALE       CCN000005880000005880FN00000000020220601000005880NNM   20220324150428    4N0N  0000029400000110900000152151200    YCYC    005500360039
BI00B1200    2399T52423     202205127289-9553-30             SEALED ASSY FEMALE       CCN000005880000005880FN00000000020220601000005880NNM   20220324150428    4N0N  0000029400000110900000152151200    YCYC    005500360039
BI00B1200    2399T52424     202205197289-9553-30             SEALED ASSY FEMALE       CCN000002940000002940FN00000000020220601000002940NNM   20220324150428    4N0N  0000029400000110900000152151200    YCYC    005500360039
BI00B1200    2399T52425     202205267289-9553-30             SEALED ASSY FEMALE       CCN000002940000002940FN00000000020220601000002940NNM   20220324150428    4N0N  0000029400000110900000152151200    YCYC    005500360039
BI00B1200    2399T52422     202205057289-9553-50             SEALED ASSY FEMALE       CCN000032340000032340FN00000000020220601000032340NNM   20220324150428    4N0N  0000029400000110810000152061200    YCYC    005500360039
BI00B1200    2399T52423     202205127289-9553-50             SEALED ASSY FEMALE       CCN000032340000032340FN00000000020220601000032340NNM   20220324150428    4N0N  0000029400000110810000152061200    YCYC    005500360039
BI00B1200    2399T52424     202205197289-9553-50             SEALED ASSY FEMALE       CCN000032340000032340FN00000000020220601000032340NNM   20220324150428    4N0N  0000029400000110810000152061200    YCYC    005500360039
BI00B1200    2399T52425     202205267289-9553-50             SEALED ASSY FEMALE       CCN000029400000029400FN00000000020220601000029400NNM   20220324150428    4N0N  0000029400000110810000152061200    YCYC    005500360039
BI00B1200    2399T52422     202205057289-9612-30             HOUSING FEMALE ASS'Y     CCN000000720000000720FN00000000020220601000000720NNM   20220324150428    4N0N  0000002400000134880000166881200    YCYC    005500360039
BI00B1200    2399T52423     202205127289-9612-30             HOUSING FEMALE ASS'Y     CCN000000720000000720FN00000000020220601000000720NNM   20220324150428    4N0N  0000002400000134880000166881200    YCYC    005500360039
BI00B1200    2399T52424     202205197289-9612-30             HOUSING FEMALE ASS'Y     CCN000000720000000720FN00000000020220601000000720NNM   20220324150428    4N0N  0000002400000134880000166881200    YCYC    005500360039
BI00B1200    2399T52425     202205267289-9612-30             HOUSING FEMALE ASS'Y     CCN000000720000000720FN00000000020220601000000720NNM   20220324150428    4N0N  0000002400000134880000166881200    YCYC    005500360039
BI00B1200    2399T52422     202205057289-9613-30             HOUSING FEMALE ASS'Y     CCN000000960000000960FN00000000020220601000000960NNM   20220324150428    4N0N  0000002400000126990000154371200    YCYC    005500360039
BI00B1200    2399T52423     202205127289-9613-30             HOUSING FEMALE ASS'Y     CCN000000960000000960FN00000000020220601000000960NNM   20220324150428    4N0N  0000002400000126990000154371200    YCYC    005500360039
BI00B1200    2399T52424     202205197289-9613-30             HOUSING FEMALE ASS'Y     CCN000000720000000720FN00000000020220601000000720NNM   20220324150428    4N0N  0000002400000126990000154371200    YCYC    005500360039
BI00B1200    2399T52425     202205267289-9613-30             HOUSING FEMALE ASS'Y     CCN000000720000000720FN00000000020220601000000720NNM   20220324150428    4N0N  0000002400000126990000154371200    YCYC    005500360039
BI00B1200    2399T52422     202205057298-2853-30             HOUSING FEMALE ASS'Y     CCN000000960000000960FN00000000020220601000000960NNM   20220324150428    4N0N  0000002400000109490000136091200    YCYC    005500360039
BI00B1200    2399T52423     202205127298-2853-30             HOUSING FEMALE ASS'Y     CCN000000960000000960FN00000000020220601000000960NNM   20220324150428    4N0N  0000002400000109490000136091200    YCYC    005500360039
BI00B1200    2399T52424     202205197298-2853-30             HOUSING FEMALE ASS'Y     CCN000000960000000960FN00000000020220601000000960NNM   20220324150428    4N0N  0000002400000109490000136091200    YCYC    005500360039
BI00B1200    2399T52425     202205267298-2853-30             HOUSING FEMALE ASS'Y     CCN000000960000000960FN00000000020220601000000960NNM   20220324150428    4N0N  0000002400000109490000136091200    YCYC    005500360039
BI00B1200    2399T52422     202205057298-3990-30             HOUSING FEMALE ASS'Y     CCN000006960000006960FN00000000020220601000006960NNM   20220324150428    4NON  0000002400000120890000157391200    YCYC    005500360039
BI00B1200    2399T52423     202205127298-3990-30             HOUSING FEMALE ASS'Y     CCN000006960000006960FN00000000020220601000006960NNM   20220324150428    4NON  0000002400000120890000157391200    YCYC    005500360039
BI00B1200    2399T52424     202205197298-3990-30             HOUSING FEMALE ASS'Y     CCN000006960000006960FN00000000020220601000006960NNM   20220324150428    4NON  0000002400000120890000157391200    YCYC    005500360039
BI00B1200    2399T52425     202205267298-3990-30             HOUSING FEMALE ASS'Y     CCN000006720000006720FN00000000020220601000006720NNM   20220324150428    4NON  0000002400000120890000157391200    YCYC    005500360039
BI00B1200    2399T52422     202205057298-4094-10             HOUSING FEMALE ASS'Y     CCN000084500000084500FN00000000020220601000084500NNM   20220324150428    4N0N  0000033800000109740000135871200    YCYC    005400370024
BI00B1200    2399T52423     202205127298-4094-10             HOUSING FEMALE ASS'Y     CCN000081120000081120FN00000000020220601000081120NNM   20220324150428    4N0N  0000033800000109740000135871200    YCYC    005400370024
BI00B1200    2399T52424     202205197298-4094-10             HOUSING FEMALE ASS'Y     CCN000081120000081120FN00000000020220601000081120NNM   20220324150428    4N0N  0000033800000109740000135871200    YCYC    005400370024
BI00B1200    2399T52425     202205267298-4094-10             HOUSING FEMALE ASS'Y     CCN000081120000081120FN00000000020220601000081120NNM   20220324150428    4N0N  0000033800000109740000135871200    YCYC    005400370024
BI00B1200    #2399T52422    202205057289-2912-40             HOUSING FEMALE ASS'Y     CCN000026000000026000FN00000000020220601000026000NNM   20220324150426    2N0N  0000020000000080400000093101200    YCYC    005400370024
BI00B1200    #2399T52423    202205127289-2912-40             HOUSING FEMALE ASS'Y     CCN000026000000026000FN00000000020220601000026000NNM   20220324150426    2N0N  0000020000000080400000093101200    YCYC    005400370024
BI00B1200    #2399T52424    202205197289-2912-40             HOUSING FEMALE ASS'Y     CCN000026000000026000FN00000000020220601000026000NNM   20220324150426    2N0N  0000020000000080400000093101200    YCYC    005400370024
BI00B1200    #2399T52425    202205267289-2912-40             HOUSING FEMALE ASS'Y     CCN000026000000026000FN00000000020220601000026000NNM   20220324150426    2N0N  0000020000000080400000093101200    YCYC    005400370024
BI00B1200    #2399T52422    202205057289-2913-30             HOUSING FEMALE ASS'Y     CCN000001500000001500FN00000000020220601000001500NNM   20220324150426    2N0N  0000015000000090750000103451200    YCYC    005400370024
BI00B1200    #2399T52422    202205057289-3622-30             HOUSING FEMALE ASS'Y     CCN000010368000010368FN00000000020220601000010368NNM   20220324150426    2N0N  0000004320000083940000103841200    YCYC    005400370024
BI00B1200    #2399T52423    202205127289-3622-30             HOUSING FEMALE ASS'Y     CCN000010368000010368FN00000000020220601000010368NNM   20220324150426    2N0N  0000004320000083940000103841200    YCYC    005400370024
BI00B1200    #2399T52424    202205197289-3622-30             HOUSING FEMALE ASS'Y     CCN000010368000010368FN00000000020220601000010368NNM   20220324150426    2N0N  0000004320000083940000103841200    YCYC    005400370024
BI00B1200    #2399T52425    202205267289-3622-30             HOUSING FEMALE ASS'Y     CCN000010368000010368FN00000000020220601000010368NNM   20220324150426    2N0N  0000004320000083940000103841200    YCYC    005400370024
BI00B1200    #2399T52422    202205057289-4200-30             HOUSING FEMALE ASS'Y     CCN000030000000030000FN00000000020220601000030000NNM   20220324150426    2N0N  0000020000000092600000102101200    YCYC    005400370024
BI00B1200    #2399T52423    202205127289-4200-30             HOUSING FEMALE ASS'Y     CCN000030000000030000FN00000000020220601000030000NNM   20220324150426    2N0N  0000020000000092600000102101200    YCYC    005400370024
BI00B1200    #2399T52424    202205197289-4200-30             HOUSING FEMALE ASS'Y     CCN000030000000030000FN00000000020220601000030000NNM   20220324150426    2N0N  0000020000000092600000102101200    YCYC    005400370024
BI00B1200    #2399T52425    202205267289-4200-30             HOUSING FEMALE ASS'Y     CCN000028000000028000FN00000000020220601000028000NNM   20220324150426    2N0N  0000020000000092600000102101200    YCYC    005400370024
BI00B1200    #7242T52401    202205127172-5632-10             DUMMY PLUG               CCN000020000000020000FN00000000020220601000020000NNM   20220324150603    2H0H  0000200000000008040000013181200    YCYC    004300270014
BI00B1200    #7242T52402    202205197172-5632-10             DUMMY PLUG               CCN000020000000020000FN00000000020220601000020000NNM   20220324150603    2H0H  0000200000000008040000013181200    YCYC    004300270014
BI00B1200    #7242T52403    202205267172-5632-10             DUMMY PLUG               CCN000020000000020000FN00000000020220601000020000NNM   20220324150603    2H0H  0000200000000008040000013181200    YCYC    004300270014
BI00B1200    #7242T52402    202205197187-3356                JOINT CONNECTOR          CCN000002400000002400FN00000000020220601000002400NNM   20220324150603    2F0F  0000012000000075960000102441200    YCYC    005600390040
BI00B1200    #7242T52403    202205267187-3356                JOINT CONNECTOR          CCN000003600000003600FN00000000020220601000003600NNM   20220324150603    2F0F  0000012000000075960000102441200    YCYC    005600390040
BI00B1200    #7242T52402    202205197187-3358-30             JOINT CONNECTOR          CCN000002400000002400FN00000000020220601000002400NNM   20220324150603    2F0F  0000012000000067320000094041200    YCYC    005600390040
BI00B1200    #7242T52403    202205267187-3358-30             JOINT CONNECTOR          CCN000003600000003600FN00000000020220601000003600NNM   20220324150603    2F0F  0000012000000067320000094041200    YCYC    005600390040
BI00B1200    #7242T52402    202205197187-3359-60             JOINT CONNECTOR          CCN000004800000004800FN00000000020220601000004800NNM   20220324150603    2F0F  0000012000000076320000103041200    YCYC    005600390040
BI00B1200    #7242T52403    202205267187-3359-60             JOINT CONNECTOR          CCN000006000000006000FN00000000020220601000006000NNM   20220324150603    2F0F  0000012000000076320000103041200    YCYC    005600390040
BI00B1200    #7242T52402    202205197187-3360                JOINT CONNECTOR          CCN000002400000002400FN00000000020220601000002400NNM   20220324150603    2F0F  0000012000000075960000102681200    YCYC    005600390040
BI00B1200    #7242T52403    202205267187-3360                JOINT CONNECTOR          CCN000002400000002400FN00000000020220601000002400NNM   20220324150603    2F0F  0000012000000075960000102681200    YCYC    005600390040
BI00B1200    #7242T52402    202205197189-3031-30             HOUSING FEMALE           CCN000002400000002400FN00000000020220601000002400NNM   20220324150603    2F0F  0000024000000092880000136581200    YCYC    005500360039
BI00B1200    7360T52401     202204217195-0783-08             TERMINAL                 CCN000030000000030000FN00000000020220501000030000NNE   20220324150645    4P0P  0000300000000050700000080121200    YCYC    006400630015
BI00B1200    7360T52401     202204217195-1934-02             TERMINAL MALE            CCN000024000000024000FN00000000020220501000024000NNE   20220324150645    4P0P  0000240000000080160000109521200    YCYC    006400630015
BI00B1200    7360T52401     202204217195-1935-02             TERMINAL MALE            CCN000019500000019500FN00000000020220501000019500NNE   20220324150645    4P0P  0000195000000067080000096441200    YCYC    006400630015
BI00B1200    7360T52401     202204217195-1936-02             TERMINAL MALE            CCN000015000000015000FN00000000020220501000015000NNE   20220324150645    4P0P  0000150000000058950000088311200    YCYC    006400630015
BI00B1200    7360T52401     202204217196-1327-02             TERMINAL FEMALE          CCN000052000000052000FN00000000020220501000052000NNE   20220324150645    4P0P  0000520000000033600000073951200    YCYC    006400630017
BI00B1200    7360T52401     202204217196-1482-02             TERMINAL FEMALE          CCN000024000000024000FN00000000020220501000024000NNE   20220324150645    4P0P  0000240000000042480000071001200    YCYC    006400630015
BI00B1200    7360T52401     202204217196-1933-02             TERMINAL FEMALE          CCN000021000000021000FN00000000020220501000021000NNE   20220324150645    4P0P  0000210000000059010000087531200    YCYC    006400630015
BI00B1200    7360T52401     202204217196-1934-02             TERMINAL FEMALE          CCN000019500000019500FN00000000020220501000019500NNE   20220324150645    4P0P  0000195000000056160000084681200    YCYC    006400630015
BI00B1200    7360T52401     202204217196-1935-02             TERMINAL FEMALE          CCN000018000000018000FN00000000020220501000018000NNE   20220324150645    4P0P  0000180000000053460000081981200    YCYC    006400630015
BI00B1200    7360T52401     202204217196-1936-02             TERMINAL FEMALE          CCN000013500000013500FN00000000020220501000013500NNE   20220324150645    4P0P  0000135000000044150000072671200    YCYC    006400630015
BI00B1200    7360T52401     202204217196-1937-02             TERMINAL FEMALE          CCN000013500000013500FN00000000020220501000013500NNE   20220324150645    4P0P  0000135000000044690000073211200    YCYC    006400630015
BI00B1200    7360T52401     202204217196-1941-02             TERMINAL FEMALE          CCN000011400000011400FN00000000020220501000011400NNE   20220324150645    4P0P  0000114000000050620000079441200    YCYC    006400630015
BI00B1200    7360T52401     202204217288-3329-30             HOUSING MALE             CCN000001500000001500FN00000000020220501000001500NNE   20220324150645    4N0N  0000015000000086610000101111200    YCYC    005400370024
BI00B1200    7360T52401     202204217288-3335-30             HOUSING MALE             CCN000001500000001500FN00000000020220501000001500NNE   20220324150645    4N0N  0000015000000086700000101201200    YCYC    005400370024
BI00B1200    7360T52401     202204217288-3340-30             HOUSING MALE             CCN000009000000009000FN00000000020220501000009000NNE   20220324150645    4N0N  0000015000000086150000100641200    YCYC    005400370024
BI00B1200    7360T52401     202204217289-3342-30             HOUSING FEMALE ASS'Y     CCN000019200000019200FN00000000020220501000019200NNE   20220324150645    1N0N  0000024000000068640000090141200    YCYC    005500360039
BI00B1200    #7360T52401    202204217188-3035                HOUSING MALE             CCN000002400000002400FN00000000020220501000002400NNE   20220324150642    2F0F  0000024000000069360000091361200    YCYC    005500360039
BI00B1200    #7360T52401    202204217189-2978-30             HOUSING FEMALE           CCN000003000000003000FN00000000020220501000003000NNE   20220324150642    2F0F  0000015000000096690000109691200    YCYC    005400370024
BI00B1200    7360T52402     202205057195-0783-08             TERMINAL                 CCN000030000000030000FN00000000020220601000030000NNM   20220324150750    4P0P  0000300000000050700000080121200    YCYC    006400630015
BI00B1200    7360T52403     202205127195-0783-08             TERMINAL                 CCN000030000000030000FN00000000020220601000030000NNM   20220324150750    4P0P  0000300000000050700000080121200    YCYC    006400630015
BI00B1200    7360T52404     202205197195-0783-08             TERMINAL                 CCN000030000000030000FN00000000020220601000030000NNM   20220324150750    4P0P  0000300000000050700000080121200    YCYC    006400630015
BI00B1200    7360T52402     202205057196-1104-02             TERMINAL                 CCN000067500000067500FN00000000020220601000067500NNM   20220324150750    4P0P  0000225000000044100000072621200    YCYC    006400630015
BI00B1200    7360T52403     202205127196-1104-02             TERMINAL                 CCN000022500000022500FN00000000020220601000022500NNM   20220324150750    4P0P  0000225000000044100000072621200    YCYC    006400630015
BI00B1200    7360T52404     202205197196-1104-02             TERMINAL                 CCN000022500000022500FN00000000020220601000022500NNM   20220324150750    4P0P  0000225000000044100000072621200    YCYC    006400630015
BI00B1200    7360T52402     202205057288-3329-30             HOUSING MALE             CCN000007500000007500FN00000000020220601000007500NNM   20220324150750    4N0N  0000015000000086610000101111200    YCYC    005400370024
BI00B1200    7360T52403     202205127288-3329-30             HOUSING MALE             CCN000007500000007500FN00000000020220601000007500NNM   20220324150750    4N0N  0000015000000086610000101111200    YCYC    005400370024
BI00B1200    7360T52404     202205197288-3329-30             HOUSING MALE             CCN000006000000006000FN00000000020220601000006000NNM   20220324150750    4N0N  0000015000000086610000101111200    YCYC    005400370024
BI00B1200    7360T52402     202205057288-3334-30             HOUSING MALE             CCN000003000000003000FN00000000020220601000003000NNM   20220324150750    4N0N  0000015000000086700000101201200    YCYC    005400370024
BI00B1200    7360T52403     202205127288-3334-30             HOUSING MALE             CCN000003000000003000FN00000000020220601000003000NNM   20220324150750    4N0N  0000015000000086700000101201200    YCYC    005400370024
BI00B1200    7360T52404     202205197288-3334-30             HOUSING MALE             CCN000003000000003000FN00000000020220601000003000NNM   20220324150750    4N0N  0000015000000086700000101201200    YCYC    005400370024
BI00B1200    7360T52402     202205057288-3335-30             HOUSING MALE             CCN000007500000007500FN00000000020220601000007500NNM   20220324150750    4N0N  0000015000000086700000101201200    YCYC    005400370024
BI00B1200    7360T52403     202205127288-3335-30             HOUSING MALE             CCN000006000000006000FN00000000020220601000006000NNM   20220324150750    4N0N  0000015000000086700000101201200    YCYC    005400370024
BI00B1200    7360T52404     202205197288-3335-30             HOUSING MALE             CCN000006000000006000FN00000000020220601000006000NNM   20220324150750    4N0N  0000015000000086700000101201200    YCYC    005400370024
BI00B1200    7360T52402     202205057288-3340-30             HOUSING MALE             CCN000007500000007500FN00000000020220601000007500NNM   20220324150750    4N0N  0000015000000086150000100641200    YCYC    005400370024
BI00B1200    7360T52403     202205127288-3340-30             HOUSING MALE             CCN000007500000007500FN00000000020220601000007500NNM   20220324150750    4N0N  0000015000000086150000100641200    YCYC    005400370024
BI00B1200    7360T52404     202205197288-3340-30             HOUSING MALE             CCN000007500000007500FN00000000020220601000007500NNM   20220324150750    4N0N  0000015000000086150000100641200    YCYC    005400370024
BI00B1200    7360T52402     202205057288-6598-70             HOUSING MALE ASS'Y       CCN000007200000007200FN00000000020220601000007200NNM   20220324150750    4N0N  0000014400000107420000142921200    YCYC    005500360039
BI00B1200    7360T52403     202205127288-6598-70             HOUSING MALE ASS'Y       CCN000004320000004320FN00000000020220601000004320NNM   20220324150750    4N0N  0000014400000107420000142921200    YCYC    005500360039
BI00B1200    7360T52404     202205197288-6598-70             HOUSING MALE ASS'Y       CCN000004320000004320FN00000000020220601000004320NNM   20220324150750    4N0N  0000014400000107420000142921200    YCYC    005500360039
BI00B1200    7360T52402     202205057289-3342-30             HOUSING FEMALE ASS'Y     CCN000033600000033600FN00000000020220601000033600NNM   20220324150750    1N0N  0000024000000068640000090141200    YCYC    005500360039
BI00B1200    7360T52403     202205127289-3342-30             HOUSING FEMALE ASS'Y     CCN000033600000033600FN00000000020220601000033600NNM   20220324150750    1N0N  0000024000000068640000090141200    YCYC    005500360039
BI00B1200    7360T52404     202205197289-3342-30             HOUSING FEMALE ASS'Y     CCN000033600000033600FN00000000020220601000033600NNM   20220324150750    1N0N  0000024000000068640000090141200    YCYC    005500360039
BI00B1200    7360T52402     202205057388-2978-30             HOUSING MALE ASS'Y       CCN000000480000000480FN00000000020220601000000480NNM   20220324150750    1N0N  0000004800000074200000112201200    YCYC    005500360039
BI00B1200    7360T52403     202205127388-2978-30             HOUSING MALE ASS'Y       CCN000000480000000480FN00000000020220601000000480NNM   20220324150750    1N0N  0000004800000074200000112201200    YCYC    005500360039
BI00B1200    7360T52404     202205197388-2978-30             HOUSING MALE ASS'Y       CCN000000480000000480FN00000000020220601000000480NNM   20220324150750    1N0N  0000004800000074200000112201200    YCYC    005500360039
BI00B1200    #7360T52402    202205057172-5627-60             RUBBER STOPPER           CCN000020000000020000FN00000000020220601000020000NNM   20220324150748    2H0H  0000200000000007040000012181200    YCYC    004300270014
BI00B1200    #7360T52403    202205127172-5627-60             RUBBER STOPPER           CCN000020000000020000FN00000000020220601000020000NNM   20220324150748    2H0H  0000200000000007040000012181200    YCYC    004300270014
BI00B1200    #7360T52402    202205057172-5629-80             RUBBER STOPPER           CCN000180000000180000FN00000000020220601000180000NNM   20220324150748    2H0H  0000200000000006000000011111200    YCYC    004300270014
BI00B1200    #7360T52403    202205127172-5629-80             RUBBER STOPPER           CCN000160000000160000FN00000000020220601000160000NNM   20220324150748    2H0H  0000200000000006000000011111200    YCYC    004300270014
BI00B1200    #7360T52404    202205197172-5629-80             RUBBER STOPPER           CCN000160000000160000FN00000000020220601000160000NNM   20220324150748    2H0H  0000200000000006000000011111200    YCYC    004300270014
BI00B1200    #7360T52402    202205057172-5630-40             RUBBER STOPPER           CCN000040000000040000FN00000000020220601000040000NNM   20220324150748    2H0H  0000200000000004400000009511200    YCYC    004300270014
BI00B1200    #7360T52403    202205127172-5630-40             RUBBER STOPPER           CCN000040000000040000FN00000000020220601000040000NNM   20220324150748    2H0H  0000200000000004400000009511200    YCYC    004300270014
BI00B1200    #7360T52404    202205197172-5630-40             RUBBER STOPPER           CCN000040000000040000FN00000000020220601000040000NNM   20220324150748    2H0H  0000200000000004400000009511200    YCYC    004300270014
BI00B1200    #7360T52402    202205057172-5631-60             RUBBER STOPPER           CCN000020000000020000FN00000000020220601000020000NNM   20220324150748    2H0H  0000200000000004200000009311200    YCYC    004300270014
BI00B1200    #7360T52403    202205127172-5631-60             RUBBER STOPPER           CCN000020000000020000FN00000000020220601000020000NNM   20220324150748    2H0H  0000200000000004200000009311200    YCYC    004300270014
BI00B1200    #7360T52402    202205057172-5632-10             DUMMY PLUG               CCN000160000000160000FN00000000020220601000160000NNM   20220324150748    2H0H  0000200000000008040000013181200    YCYC    004300270014
BI00B1200    #7360T52403    202205127172-5632-10             DUMMY PLUG               CCN000160000000160000FN00000000020220601000160000NNM   20220324150748    2H0H  0000200000000008040000013181200    YCYC    004300270014
BI00B1200    #7360T52404    202205197172-5632-10             DUMMY PLUG               CCN000160000000160000FN00000000020220601000160000NNM   20220324150748    2H0H  0000200000000008040000013181200    YCYC    004300270014
BI00B1200    #7360T52402    202205057188-3035                HOUSING MALE             CCN000002400000002400FN00000000020220601000002400NNM   20220324150748    2F0F  0000024000000069360000091361200    YCYC    005500360039
BI00B1200    #7360T52402    202205057189-2978-30             HOUSING FEMALE           CCN000003000000003000FN00000000020220601000003000NNM   20220324150748    2F0F  0000015000000096690000109691200    YCYC    005400370024
BI00B1200    #7360T52403    202205127189-2978-30             HOUSING FEMALE           CCN000001500000001500FN00000000020220601000001500NNM   20220324150748    2F0F  0000015000000096690000109691200    YCYC    005400370024
BI00B1200    #7360T52404    202205197189-2978-30             HOUSING FEMALE           CCN000001500000001500FN00000000020220601000001500NNM   20220324150748    2F0F  0000015000000096690000109691200    YCYC    005400370024
BI00B1200    #7360T52402    202205057289-2913-30             HOUSING FEMALE ASS'Y     CCN000001500000001500FN00000000020220601000001500NNM   20220324150748    2N0N  0000015000000090750000103451200    YCYC    005400370024
BI00B1200    #7360T52403    202205127289-2913-30             HOUSING FEMALE ASS'Y     CCN000001500000001500FN00000000020220601000001500NNM   20220324150748    2N0N  0000015000000090750000103451200    YCYC    005400370024
BI00B1200    #7360T52402    202205057289-2914                HOUSING FEMALE ASS'Y     CCN000001500000001500FN00000000020220601000001500NNM   20220324150748    2N0N  0000015000000090600000103301200    YCYC    005400370024
BI00B1200    #7360T52402    202205057289-2914-40             HOUSING FEMALE ASS'Y     CCN000001500000001500FN00000000020220601000001500NNM   20220324150748    2N0N  0000015000000090450000103151200    YCYC    005400370024
BI00B1200    #7360T52403    202205127289-2914-40             HOUSING FEMALE ASS'Y     CCN000001500000001500FN00000000020220601000001500NNM   20220324150748    2N0N  0000015000000090450000103151200    YCYC    005400370024
BI00B1200    #7360T52404    202205197289-2914-40             HOUSING FEMALE ASS'Y     CCN000001500000001500FN00000000020220601000001500NNM   20220324150748    2N0N  0000015000000090450000103151200    YCYC    005400370024
BI00B1200    #7360T52402    202205057289-2915-30             HOUSING FEMALE ASS'Y     CCN000001500000001500FN00000000020220601000001500NNM   20220324150748    2N0N  0000015000000096450000109151200    YCYC    005400370024
BI00B1200    #7360T52403    202205127289-2915-30             HOUSING FEMALE ASS'Y     CCN000001500000001500FN00000000020220601000001500NNM   20220324150748    2N0N  0000015000000096450000109151200    YCYC    005400370024
BI00B1200    #7360T52404    202205197289-2915-30             HOUSING FEMALE ASS'Y     CCN000001500000001500FN00000000020220601000001500NNM   20220324150748    2N0N  0000015000000096450000109151200    YCYC    005400370024
BI00B1200    #7360T52402    202205057289-2917-30             HOUSING FEMALE ASS'Y     CCN000001000000001000FN00000000020220601000001000NNM   20220324150748    2N0N  0000010000000096400000109101200    YCYC    005400370024
BI00B1200    #7360T52402    202205057289-3622-30             HOUSING FEMALE ASS'Y     CCN000001296000001296FN00000000020220601000001296NNM   20220324150748    2N0N  0000004320000083940000103841200    YCYC    005400370024
BI00B1200    #7360T52403    202205127289-3622-30             HOUSING FEMALE ASS'Y     CCN000000432000000432FN00000000020220601000000432NNM   20220324150748    2N0N  0000004320000083940000103841200    YCYC    005400370024
BI00B1200    #7360T52404    202205197289-3622-30             HOUSING FEMALE ASS'Y     CCN000000432000000432FN00000000020220601000000432NNM   20220324150748    2N0N  0000004320000083940000103841200    YCYC    005400370024
BI00B1200    7860T52403     202205197288-3332-30             HOUSING MALE             CCN000001500000001500FN00000000020220601000001500NNM   20220324151024    4N0N  0000015000000086070000100571200    YCYC    005400370024
BI00B1200    #7860T52401    202205057172-5632-10             DUMMY PLUG               CCN000040000000040000FN00000000020220601000040000NNM   20220324151022    2H0H  0000200000000008040000013181200    YCYC    004300270014
BI00B1200    #7860T52402    202205127172-5632-10             DUMMY PLUG               CCN000040000000040000FN00000000020220601000040000NNM   20220324151022    2H0H  0000200000000008040000013181200    YCYC    004300270014
BI00B1200    #7860T52403    202205197172-5632-10             DUMMY PLUG               CCN000060000000060000FN00000000020220601000060000NNM   20220324151022    2H0H  0000200000000008040000013181200    YCYC    004300270014
BI00B1200    #7860T52401    202205057189-3031                HOUSING FEMALE           CCN000004800000004800FN00000000020220601000004800NNM   20220324151022    2F0F  0000024000000092880000136581200    YCYC    005500360039
BI00B1200    #7860T52402    202205127189-3031                HOUSING FEMALE           CCN000004800000004800FN00000000020220601000004800NNM   20220324151022    2F0F  0000024000000092880000136581200    YCYC    005500360039
BI00B1200    #7860T52403    202205197189-3031                HOUSING FEMALE           CCN000004800000004800FN00000000020220601000004800NNM   20220324151022    2F0F  0000024000000092880000136581200    YCYC    005500360039
BI00B1200    #7860T52404    202205267189-3031                HOUSING FEMALE           CCN000002400000002400FN00000000020220601000002400NNM   20220324151022    2F0F  0000024000000092880000136581200    YCYC    005500360039
BI00B1200    8100T52401     202205057289-9553-30             SEALED ASSY FEMALE       CCN000002940000002940FN00000000020220601000002940NNM   20220324151203    4N0N  0000029400000110900000152151200    YCYC    005500360039
BI00B1200    8100T52402     202205127289-9553-30             SEALED ASSY FEMALE       CCN000002940000002940FN00000000020220601000002940NNM   20220324151244    4N0N  0000029400000110900000152151200    YCYC    005500360039
BI00B1200    #8100T52403    202205057174-1760-50             CAP                      CCN000003000000003000FN00000000020220601000003000NNM   20220324151313    2F0F  0000030000000081360000092261200    YCYC    005400370024
BI00B1200    #8100T52404    202205127174-1760-50             CAP                      CCN000003000000003000FN00000000020220601000003000NNM   20220324151343    2F0F  0000030000000081360000092261200    YCYC    005400370024
BI00B1200    #8100T52405    202205197174-1760-50             CAP                      CCN000003000000003000FN00000000020220601000003000NNM   20220324151417    2F0F  0000030000000081360000092261200    YCYC    005400370024
BI00B1200    8100T52406     202205057196-1103-02             TERMINAL                 CCN000022500000022500FN00000000020220601000022500NNM   20220324151522    4P0P  0000225000000042980000071501200    YCYC    006400630015
BI00B1200    8100T52407     202205127196-1103-02             TERMINAL                 CCN000022500000022500FN00000000020220601000022500NNM   20220324151522    4P0P  0000225000000042980000071501200    YCYC    006400630015
BI00B1200    #8100T52406    202205057154-5597-30             CASSETTE R/B             CCN000002400000002400FN00000000020220601000002400NNM   20220324151519    2F0F  0000008000000073600000095201200    YCYC    005500360039
BI00B1200    #8100T52407    202205127154-5597-30             CASSETTE R/B             CCN000002400000002400FN00000000020220601000002400NNM   20220324151519    2F0F  0000008000000073600000095201200    YCYC    005500360039
BI00B1200    #8100T52408    202205197154-5597-30             CASSETTE R/B             CCN000002400000002400FN00000000020220601000002400NNM   20220324151519    2F0F  0000008000000073600000095201200    YCYC    005500360039
BI00B1200    #8100T52406    202205057172-5629-80             RUBBER STOPPER           CCN000020000000020000FN00000000020220601000020000NNM   20220324151519    2H0H  0000200000000006000000011111200    YCYC    004300270014
BI00B1200    #8100T52407    202205127172-5629-80             RUBBER STOPPER           CCN000020000000020000FN00000000020220601000020000NNM   20220324151519    2H0H  0000200000000006000000011111200    YCYC    004300270014
BI00B1200    #8100T52406    202205057172-5632-10             DUMMY PLUG               CCN000080000000080000FN00000000020220601000080000NNM   20220324151519    2H0H  0000200000000008040000013181200    YCYC    004300270014
BI00B1200    #8100T52407    202205127172-5632-10             DUMMY PLUG               CCN000080000000080000FN00000000020220601000080000NNM   20220324151519    2H0H  0000200000000008040000013181200    YCYC    004300270014
BI00B1200    8100T52409     202205057288-3331-30             HOUSING MALE             CCN000001500000001500FN00000000020220601000001500NNM   20220324151612    4N0N  0000015000000086600000101091200    YCYC    005400370024
BI00B1200    8100T52409     202205057288-3333-30             HOUSING MALE             CCN000001500000001500FN00000000020220601000001500NNM   20220324151612    4N0N  0000015000000086700000101201200    YCYC    005400370024
BI00B1200    8100T52409     202205057288-3334-30             HOUSING MALE             CCN000001500000001500FN00000000020220601000001500NNM   20220324151612    4N0N  0000015000000086700000101201200    YCYC    005400370024
BI00B1200    8100T52409     202205057288-3335-30             HOUSING MALE             CCN000001500000001500FN00000000020220601000001500NNM   20220324151612    4N0N  0000015000000086700000101201200    YCYC    005400370024
BI00B1200    8100T52409     202205057288-3338-30             HOUSING MALE             CCN000001500000001500FN00000000020220601000001500NNM   20220324151612    4N0N  0000015000000086610000101201200    YCYC    005400370024
BI00B1200    8100T52409     202205057288-3339-30             HOUSING MALE             CCN000001500000001500FN00000000020220601000001500NNM   20220324151612    4N0N  0000015000000086700000101201200    YCYC    005400370024
BI00B1200    8100T52409     202205057288-3340-30             HOUSING MALE             CCN000001500000001500FN00000000020220601000001500NNM   20220324151612    4N0N  0000015000000086150000100641200    YCYC    005400370024
BI00B1200    8100T52409     202205057288-6547                CONNECTOR MALE ASS'Y     CCN000001500000001500FN00000000020220601000001500NNM   20220324151612    4N0N  0000007500000120530000134031200    YCYC    005400370024
BI00B1200    8100T52409     202205057289-3342                HOUSING FEMALE ASS'Y     CCN000002400000002400FN00000000020220601000002400NNM   20220324151612    1N0N  0000024000000068640000090141200    YCYC    005500360039
BI00B1200    8100T52409     202205057289-3342-30             HOUSING FEMALE ASS'Y     CCN000002400000002400FN00000000020220601000002400NNM   20220324151612    1N0N  0000024000000068640000090141200    YCYC    005500360039
BI00B1200    8100T52409     202205057289-3342-90             HOUSING FEMALE ASS'Y     CCN000002400000002400FN00000000020220601000002400NNM   20220324151612    1N0N  0000024000000068640000090141200    YCYC    005500360039
BI00B1200    8100T52409     202205057289-6547                HOUSING FEMALE ASS'Y     CCN000002400000002400FN00000000020220601000002400NNM   20220324151612    1N0N  0000024000000115200000136201200    YCYC    005500360039
BI00B1200    8100T52409     202205057388-2978-30             HOUSING MALE ASS'Y       CCN000001440000001440FN00000000020220601000001440NNM   20220324151612    1N0N  0000004800000074200000112201200    YCYC    005500360039
BI00B1200    #8100T52409    202205057189-2978-30             HOUSING FEMALE           CCN000001500000001500FN00000000020220601000001500NNM   20220324151610    2F0F  0000015000000096690000109691200    YCYC    005400370024
BI00B1200    #8100T52409    202205057189-3031                HOUSING FEMALE           CCN000002400000002400FN00000000020220601000002400NNM   20220324151610    2F0F  0000024000000092880000136581200    YCYC    005500360039
BI00B1200    #8100T52409    202205057189-3033                HOUSING FEMALE           CCN000001600000001600FN00000000020220601000001600NNM   20220324151610    2F0F  0000016000000121120000143121200    YCYC    005500360039
BI00B1200    #8100T52409    202205057289-3622-30             HOUSING FEMALE ASS'Y     CCN000000864000000864FN00000000020220601000000864NNM   20220324151610    2N0N  0000004320000083940000103841200    YCYC    005400370024
BI00A32CA    PTA32042       202204087196-1461-06             TERMINAL FEMALE          CCN000216000000216000FN00000000020220301000216000NNM00020220324122018    4P0P  00002400000000386400000692932CA    YPYPY   006400630015
BI00B32CG    S220326-M      202205257116-4120-02             TERMINAL                 CCN000006000000006000FN00000000020200501000006000NNE   20220324122018    4P0P  00000600000000780000001073632CG    ASASIACO006400630015
BI00B32CG    S220326-M      202205257114-4110-02             TERMINAL                 CCN000015000000015000FN00000000020200501000015000NNE   20220324122018    4P0P  00001500000000901500001230132CG    ASASIACO006400630017
BI00B32CG    S220326-M      202205257114-4111-02             TERMINAL                 CCN000012000000012000FN00000000020200501000012000NNE   20220324122018    4P0P  00001200000000758400001087032CG    ASASIACO006400630017
BI00B32CG    #S220326-M     202205257282-6446-40             CONNECTOR                CCN000001500000001500FN00000000020200501000001500NNE   20220324122018    2N0N  00000150000001185000001368032CG    ASASIACO005500360039
BI00B32CJ    JQN205B        202204087114-4728-02             TERMINAL                 CCN000120000000120000FN00000000020220501000120000NNE   20220324122018    4P0P  00003000000000510000000804232CJ    QNYHVQN 006400630015
BI00B32CJ    JQN205B        202204087114-4729-02             TERMINAL                 CCN000090000000090000FN00000000020220501000090000NNE   20220324122018    4P0P  00003000000000516000000810232CJ    QNYHVQN 006400630015
BI00B32CJ    JQN205B        202204087114-5746-02             TERMINAL                 CCN000042000000042000FN00000000020220501000042000NNE   20220324122018    4P0P  00002100000000695100000988732CJ    QNYHVQN 006400630015
BI00B32CJ    JQN205B        202204087114-5747-02             TERMINAL                 CCN000054000000054000FN00000000020220501000054000NNE   20220324122018    4P0P  00001800000000626400000920032CJ    QNYHVQN 006400630015
BI00B32CJ    JQN205B        202204087116-4032                TERMINAL                 CCN000030000000030000FN00000000020220501000030000NNE   20220324122018    4P0P  00000600000000532800000818032CJ    QNYHVQN 006400630015
BI00B32CJ    JQN205B        202204087116-5035-02             TERMINAL                 CCN000015000000015000FN00000000020220501000015000NNE   20220324122018    4P0P  00001500000000543000000828232CJ    QNYHVQN 006400630015
BI00B32CJ    JQN205B        202204087116-5046-02             TERMINAL                 CCN000012000000012000FN00000000020220501000012000NNE   20220324122018    4P0P  00001200000000544800000873532CJ    QNYHVQN 006400630017
BI00B32CJ    JQN205B        202204087196-1102-02             TERMINAL                 CCN000045000000045000FN00000000020220501000045000NNE   20220324122018    4P0P  00002250000000405000000690232CJ    QNYHVQN 006400630015
BI00B32CJ    JQN205B        202204087196-1103-02             TERMINAL                 CCN000004500000022500FN00000000020220501000022500NNE   20220324122018    4P0P  00002250000000429800000715032CJ    QNYHVQN 006400630015
BI00B32CJ    JQN205B        202204087282-4576                HOUSING MALE ASS'Y       CCN000004800000004800FN00000000020220501000004800NNE   20220324122018    4N0N  00000240000000808800001028832CJ    QNYHVQN 005500360039
BI00B32CJ    JQN205B        202204087283-1156                CONNECTOR                CCN000006400000006400FN00000000020220501000006400NNE   20220324122018    4N0N  00000080000000877600001078032CJ    QNYHVQN 005600390040
BI00B32CJ    JQN205B        202204087287-1915                CONNECTOR ASS'Y          CCN000002400000002400FN00000000020220501000002400NNE   20220324122018    4N0N  00000240000000666500000923132CJ    QNYHVQN 005500360039
BI00B32CJ    #JQN205B       202204087172-5629-80             RUBBER STOPPER           CCN000170000000180000FN00000000020220501000180000NNE   20220324122018    2H0H  00002000000000060000000111132CJ    QNYHVQN 004300270014
BI00B32CJ    #JQN205B       202204087172-5632-10             DUMMY PLUG               CCN000060000000060000FN00000000020220501000060000NNE   20220324122018    2H0H  00002000000000080400000131832CJ    QNYHVQN 004300270014
BI00B32CJ    #JQN205B       202204087183-1616-90             CONNECTOR HOUSING        CCN000002400000002400FN00000000020220501000002400NNE   20220324122018    2F0F  00000240000000554300000760532CJ    QNYHVQN 005500360039
BI00B32CJ    #JQN205B       202204087183-2419                HOUSING                  CCN000004800000004800FN00000000020220501000004800NNE   20220324122018    2F0F  00000480000001065600001352732CJ    QNYHVQN 005500360039
BI00B32CJ    #JQN205B       202204087187-1616                HOUSING FEMALE           CCN000008000000008000FN00000000020220501000008000NNE   20220324122018    2F0F  00000400000001152000001262032CJ    QNYHVQN 005500360039
BI00B32CJ    #JQN205B       202204087282-5528-70             HOUSING MALE ASS'Y       CCN000005000000005000FN00000000020220501000005000NNE   20220324122018    2N0N  00000100000000230000000339032CJ    QNYHVQN 005400370024
BI00B32C8    #4502146831    202204227254-8799-30             TOP COVER ASS'Y          CCN000000150000000150FN00000000020220401000000150NNMD0720220324122018    2N0N  00000003000000286500000489132C8    NAYNA   005600390040
BI00B32DE    TCT2053        202204287158-3070-80             RUBBER STOPPER           CCN000040000000000000FY00000000020220501000000000NNMQ0820220324140134    1C0C  00004000000000276000000333332DE    TVYEV-TV002700430014
BI00B32DE    TCT2054        202205057158-3167-80             WIRE SEAL                CCN000040000000000000FY00000000020220501000000000NNMQ0820220324140157    1C0C  00002000000000048000000109032DE    TVYEV-TV002700430014
BI00B32DE    TCT2052        202204217283-1057-30             CONNECTOR HOUSING        CCN000000960000000000FY00000000020220501000000000NNMQ0820220324161027    4N0N  00000096000000925400001075432DE    TVYEV-TV005500360039
BI00B32DE    TCT2053        202204287283-1288-10             CONNECTOR HOUSING        CCN000015600000000000FY00000000020220501000000000NNMQ0820220324160442    4N0N  00000120000001381000001637032DE    TVYEV-TV005600390040
BI00B32DE    TCT2053        202204287283-1288-40             CONNECTOR HOUSING        CCN000002400000000000FY00000000020220501000000000NNMQ0820220324160510    4N0N  00000120000001382000001640732DE    TVYEV-TV005600390040
BI00B32DE    TCT2054        202205057283-1289-30             CONNECTOR HOUSING        CCN000000600000000000FY00000000020220501000000000NNMQ0820220324161144    1N0N  00000060000000675600000820632DE    TVYEV-TV005400370024
BI00B32DE    TCT2054        202205057283-1289-40             CONNECTOR HOUSING        CCN000003600000001200FN00000000020220501000001200NNMQ0820220324161426    1N0N  00000060000000679800000824832DE    TVYEV-TV005400370024
BI00B32DE    TCT2053        202204287283-3013-30             CONNECTOR                CCN000002000000000000FY00000000020220501000000000NNMQ0820220324161455    4N0N  00000200000001138000001284032DE    TVYEV-TV005600390040
BI00B32DE    TCT2052        202204217283-7449-30             HOUSING FEMALE ASS'Y     CCN000007200000002400FN00000000020220501000002400NNMQ0820220324160549    4N0N  00000240000001200000001410032DE    TVYEV-TV005500360039
BI00B32DE    TCT2054        202205057283-7449-40             HOUSING FEMALE ASS'Y     CCN000004800000000000FY00000000020220501000000000NNMQ0820220324160618    4N0N  00000240000001200000001410032DE    TVYEV-TV005500360039
BI00B32DE    TCT2054        202205057287-9234                JOINT CONNECTOR          CCN000067200000028800FN00000000020220501000028800NNMQ0820220324161847    4N0N  00000960000000893800001184832DE    TVYEV-TV005500360039
BI00B32DE    TCT2054        202205057382-1481-10             CONNECTOR                CCN000016000000000000FY00000000020220501000000000NNMQ0820220324161625    4N0N  00000080000001025000001183032DE    TVYEV-TV005600390040
BI00B32DE    TCT205A        202205127158-3006-90             RUBBER STOPPER           CCN000480000000000000FY00000000020220501000000000NNEQ0820220324140109    1C0C  00002000000000330600000386032DE    TVYEV-TV002700430014
BI00B32DE    TCT205A        202204077282-4576                HOUSING MALE ASS'Y       CCN000002400000000000FY00000000020220501000000000NNEQ0820220324160350    4N0N  00000240000000808800001028832DE    TVYEV-TV005500360039
BI00B32DE    TCT205A        202204077282-4577                HOUSING MALE ASS'Y       CCN000007200000000000FY00000000020220501000000000NNEQ0820220324160422    4N0N  00000240000000964800001174832DE    TVYEV-TV005500360039
BI00B32DE    TCT205A        202204077283-1289-30             CONNECTOR HOUSING        CCN000000600000000000FY00000000020220501000000000NNEQ0820220324161051    1N0N  00000060000000675600000820632DE    TVYEV-TV005400370024
BI00B32DE    TCT205A        202204077283-1289-40             CONNECTOR HOUSING        CCN000001200000000000FY00000000020220501000000000NNEQ0820220324161346    1N0N  00000060000000679800000824832DE    TVYEV-TV005400370024
BI00B32DE    TCT205A        202204077283-7526-40             CONNECTOR HOUSING        CCN000001960000000000FY00000000020220501000000000NNEQ0820220324160726    4N0N  00000196000000989800001248632DE    TVYEV-TV005500360039
BI00B32DE    TCT205A        202204077286-1900                CONNECTOR HOUSING        CCN000004800000000000FY00000000020220501000000000NNEQ0820220324160807    4N0N  00000480000001161600001376632DE    TVYEV-TV005500360039
BI00B32DE    TCT205A        202205127288-6547                CONNECTOR MALE ASS'Y     CCN000002250000000000FY00000000020220501000000000NNEQ0820220324162006    4N0N  00000075000001205300001340332DE    TVYEV-TV005400370024
BI00B32DE    TCT205A        202205197289-3342-90             HOUSING FEMALE ASS'Y     CCN000007200000000000FY00000000020220501000000000NNEQ0820220324162046    1N0N  00000240000000686400000901432DE    TVYEV-TV005500360039
BI00B32DE    TCT205A        202204077382-1481-10             CONNECTOR                CCN000003200000000000FY00000000020220501000000000NNEQ0820220324161536    4N0N  00000080000001025000001183032DE    TVYEV-TV005600390040
BI00B32DE    TCT205B        202204217282-4576                HOUSING MALE ASS'Y       CCN000002400000000000FY00000000020220501000000000NNEQ0820220324160404    4N0N  00000240000000808800001028832DE    TVYEV-TV005500360039
BI00B32DE    TCT205B        202204217283-4577-30             CONNECTOR HOUSING        CCN000004800000000000FY00000000020220501000000000NNEQ0820220324161736    4N0N  00000480000000916800001136832DE    TVYEV-TV005500360039
BI00B32DE    TCT205B        202204217286-1900                CONNECTOR HOUSING        CCN000004800000000000FY00000000020220501000000000NNEQ0820220324160828    4N0N  00000480000001161600001376632DE    TVYEV-TV005500360039
BI00B32DG    #RL2053A       202204287183-2413-30             CONNECTOR HOUSING        CCN000004800000004800FN00000000020220501000004800NNE   20220324122018    2F0F  00000480000000477600000759532DG    BFSAIBF 005500360039
BI00B32DG    #RL2053A       202204287282-5845-30             HOUSING MALE ASS'Y       CCN000004000000004000FN00000000020220501000004000NNE   20220324122018    2N0N  00000400000001068000001178032DG    BFSAIBF 005400370024
BI00B32DG    RP2053B        202204287114-4231-02             TERMINAL                 CCN000072000000072000FN00000000020220501000072000NNE   20220324122018    4P0P  00001800000000554400000848032DG    BFSAIBF 006400630015
BI00B32EJ    #T220107P02    202203317123-6423-30             CONNECTOR                CCN000016000000016000FN00000000020220201000016000NNE00020220324161042EJ  2F0F  00000200000001002000001167632EJ    EJYKBO  005600390023
BI00B32EJ    #T200113P01    202203317123-6423-30             CONNECTOR                CCN000004000000004000FN00000000020220201000004000NNE00020220324161104EJ  2F0F  00000200000001002000001167632EJ    EJYKBO  005600390023
BI00B32EJ    T220210P01     202203317158-3167-80             WIRE SEAL                CCN000360000000360000FN00000000020220301000360000NNE00020220324161427EJ  1C0C  00002000000000048000000109032EJ    EJYKBO  002700430014
BI00B32EJ    T220211P01     202203317158-3167-80             WIRE SEAL                CCN000120000000120000FN00000000020220301000120000NNED0220220324161446EJ  1C0C  00002000000000048000000109032EJ    EJYKBO  002700430014
BI00B32EJ    T220211P02     202203307283-5843                CONNECTOR                CCN000018000000009000FN00000000020220301000009000NNE00020220324161817EJ  1N0N  00000150000000889000001132032EJ    EJYKBO  005600390040
BI00B32EJ    T220322P01     202204287158-3070-80             RUBBER STOPPER           CCN000080000000080000FN00000000020220401000080000NNE   20220324122018EJ  1C0C  00004000000000276000000333332EJ    EJYKBO  002700430014
BI00B32EJ    T220322P01     202204287114-4100-02             TERMINAL                 CCN000018000000018000FN00000000020220401000018000NNE   20220324122018EJ  4P0P  00001800000000748800001077432EJ    EJYKBO  006400630017
BI00B32EJ    T220322P01     202204287116-4022                TERMINAL                 CCN000013500000013500FN00000000020220401000013500NNE   20220324122018EJ  4P0P  00001350000000618300000903532EJ    EJYKBO  006400630015
BI00B32EJ    #T220322P01    202204287158-3121-80             WIRE SEAL                CCN000020000000020000FN00000000020220401000020000NNE   20220324122018EJ  2C0C  00002000000000118000000187332EJ    EJYKBO  002700430014
BI00B32EJ    #T220322P01    202204287158-3120-90             CONNECTOR WIRE SEAL      CCN000040000000040000FN00000000020220401000040000NNE   20220324122018EJ  2C0C  00002000000000136000000194032EJ    EJYKBO  002700430014
BI00B32EJ    T220322P02     202204217158-3006-90             RUBBER STOPPER           CCN000020000000020000FN00000000020220401000020000NNED0720220324122018EJ  1C0C  00002000000000330600000386032EJ    EJYKBO  002700430014
BI00B32EJ    T220322P02     202204217158-3070-80             RUBBER STOPPER           CCN000160000000160000FN00000000020220401000160000NNED0720220324122018EJ  1C0C  00004000000000276000000333332EJ    EJYKBO  002700430014
BI00B32EJ    T220322P02     202204217116-4122-02             TERMINAL                 CCN000009000000009000FN00000000020220401000009000NNED0720220324122018EJ  4P0P  00000450000000656600000950232EJ    EJYKBO  006400630015
BI00B32EJ    T220322P02     202204217114-4231-02             TERMINAL                 CCN000018000000018000FN00000000020220401000018000NNED0720220324122018EJ  4P0P  00001800000000554400000848032EJ    EJYKBO  006400630015
BI00B32EJ    #T220322P02    202204217158-3121-80             WIRE SEAL                CCN000040000000040000FN00000000020220401000040000NNED0720220324122018EJ  2C0C  00002000000000118000000187332EJ    EJYKBO  002700430014
BI00B32EJ    #T220322P02    202204217158-3120-90             CONNECTOR WIRE SEAL      CCN000120000000120000FN00000000020220401000120000NNED0720220324122018EJ  2C0C  00002000000000136000000194032EJ    EJYKBO  002700430014
BI00B32EJ    #T220322P02    202204217283-8398-40             CONNECTOR                CCN000043120000043120FN00000000020220401000043120NNED0720220324122018EJ  2N0N  00000154000001007000001171332EJ    EJYKBO  005600390023
BI00B32EJ    #T220322P02    202204217158-3374-90             CONNECTOR WIRE SEAL      CCN000020000000020000FN00000000020220401000020000NNED0720220324122018EJ  2H0H  00002000000000172000000229332EJ    EJYKBO  002700430014
BI00B32EJ    T220322P03     202204217116-4101-02             TERMINAL                 CCN000036000000036000FN00000000020220401000036000NNED0720220324122018EJ  4P0P  00001200000000582000000876232EJ    EJYKBO  006400630015
BI00B32EJ    #T220322P03    202204217283-8397-40             CONNECTOR                CCN000006160000006160FN00000000020220401000006160NNED0720220324122018EJ  2N0N  00000154000001007000001222732EJ    EJYKBO  005600390023
BI00B32EJ    #T220322P03    202204217157-7897-60             SEAL RUBBER              CCN000030000000030000FN00000000020220401000030000NNED0720220324122018EJ  2C0C  00001000000000132000000214732EJ    EJYKBO  002700430014
BI00B32EJ    T220323P01     202204287116-4037                TERMINAL                 CCN000006000000006000FN00000000020220401000006000NNE   20220324122018EJ  4P0P  00000600000000600000000894232EJ    EJYKBO  006400630015
BI00B32EJ    T220323P01     202204287116-4102-02             TERMINAL                 CCN000012000000012000FN00000000020220401000012000NNE   20220324122018EJ  4P0P  00001200000000553200000841432EJ    EJYKBO  006400630015
BI00B32EJ    T220323P01     202204287158-3070-80             RUBBER STOPPER           CCN000040000000040000FN00000000020220401000040000NNE   20220324122018EJ  1C0C  00004000000000276000000333332EJ    EJYKBO  002700430014
BI00B32EJ    T220323P01     202204287283-1968-30             CONNECTOR                CCN000000900000000900FN00000000020220401000000900NNE   20220324122018EJ  1N0N  00000090000001140000001318332EJ    EJYKBO  005600390040
BI00B32EJ    T220323P01     202204287116-4124-02             TERMINAL                 CCN000006000000006000FN00000000020220401000006000NNE   20220324122018EJ  4P0P  00000300000000459900000753532EJ    EJYKBO  006400630015
BI00B32EJ    T220323P01     202204287196-1461-06             TERMINAL FEMALE          CCN000048000000048000FN00000000020220401000048000NNE   20220324122018EJ  4P0P  00002400000000386400000692932EJ    EJYKBO  006400630015
BI00B32EJ    T220323P01     202204287114-4110-02             TERMINAL                 CCN000015000000015000FN00000000020220401000015000NNE   20220324122018EJ  4P0P  00001500000000901500001230132EJ    EJYKBO  006400630017
BI00B32EJ    T220323P01     202204287114-4112-02             TERMINAL                 CCN000018000000018000FN00000000020220401000018000NNE   20220324122018EJ  4P0P  00000900000000598500000927132EJ    EJYKBO  006400630017
BI00B32EJ    T220323P01     202204287114-4100-02             TERMINAL                 CCN000018000000018000FN00000000020220401000018000NNE   20220324122018EJ  4P0P  00001800000000748800001077432EJ    EJYKBO  006400630017
BI00B32EJ    T220323P01     202204287116-4101-02             TERMINAL                 CCN000012000000012000FN00000000020220401000012000NNE   20220324122018EJ  4P0P  00001200000000582000000876232EJ    EJYKBO  006400630015
BI00B32EJ    T220323P01     202204287116-4122-02             TERMINAL                 CCN000018000000018000FN00000000020220401000018000NNE   20220324122018EJ  4P0P  00000450000000656600000950232EJ    EJYKBO  006400630015
BI00B32EJ    T220323P01     202204287116-4121-02             TERMINAL                 CCN000031500000031500FN00000000020220401000031500NNE   20220324122018EJ  4P0P  00000450000000618800000912432EJ    EJYKBO  006400630015
BI00B32EJ    T220323P01     202204287116-4112-02             TERMINAL                 CCN000048000000048000FN00000000020220401000048000NNE   20220324122018EJ  4P0P  00000600000000450000000738232EJ    EJYKBO  006400630015
BI00B32EJ    T220323P01     202204287116-4111-02             TERMINAL                 CCN000007500000007500FN00000000020220401000007500NNE   20220324122018EJ  4P0P  00000750000000529500000817732EJ    EJYKBO  006400630015
BI00B32EJ    T220323P01     202204287126-8855-02             TERMINAL                 CCN000006000000006000FN00000000020220401000006000NNE   20220324122018EJ  4P0P  00000600000000510600000795832EJ    EJYKBO  006400630015
BI00B32EJ    T220323P01     202204287158-3166-60             WIRE SEAL                CCN000280000000280000FN00000000020220401000280000NNE   20220324122018EJ  1C0C  00004000000000104000000152432EJ    EJYKBO  002700430014
BI00B32EJ    T220323P01     202204287158-3167-80             WIRE SEAL                CCN000540000000540000FN00000000020220401000540000NNE   20220324122018EJ  1C0C  00002000000000048000000109032EJ    EJYKBO  002700430014
BI00B32EJ    T220323P01     202204287158-3168-80             SEALED                   CCN000020000000020000FN00000000020220401000020000NNE   20220324122018EJ  1C0C  00002000000000044000000092132EJ    EJYKBO  004300260014
BI00B32EJ    T220323P01     202204287158-3169-40             SEALING PLUG             CCN000320000000320000FN00000000020220401000320000NNE   20220324122018EJ  1C0C  00004000000000156000000204132EJ    EJYKBO  004300260014
BI00B32EJ    T220323P01     202204287B58-3070-80             RUBBER STOPPER           CCN000040000000040000FN00000000020220401000040000NNE   20220324122018EJ  1C0C  00004000000000276000000333032EJ    EJYKBO  004300270014
BI00B32EJ    T220323P01     202204287158-3167-61             WIRE SEAL                CCN000060000000060000FN00000000020220401000060000NNE   20220324122018EJ  1C0C  00002000000000048000000096432EJ    EJYKBO  004300270014
BI00B32EJ    #T220323P01    202204287158-3120-90             CONNECTOR WIRE SEAL      CCN000020000000020000FN00000000020220401000020000NNE   20220324122018EJ  2C0C  00002000000000136000000194032EJ    EJYKBO  002700430014
BI00B32EJ    #T220323P01    202204287157-3992-90             CONNECTOR SEALED         CCN000040000000040000FN00000000020220401000040000NNE   20220324122018EJ  2C0C  00004000000000300000000363332EJ    EJYKBO  002700430014
BI00B32EJ    #T220323P01    202204287158-3374-90             CONNECTOR WIRE SEAL      CCN000020000000020000FN00000000020220401000020000NNE   20220324122018EJ  2H0H  00002000000000172000000229332EJ    EJYKBO  002700430014
BI00B32EJ    #T220323P01    202204287123-6423-30             CONNECTOR                CCN000004000000004000FN00000000020220401000004000NNE   20220324122018EJ  2F0F  00000200000001002000001167632EJ    EJYKBO  005600390023
BI00B32EJ    #T220323P01    202204287282-6458-40             CONNECTOR                CCN000003000000003000FN00000000020220401000003000NNE   20220324122018EJ  2N0N  00000100000001206000001350532EJ    EJYKBO  005500360039
BI00B32EJ    @T220323P01    202204287123-4312-80             HOUSING                  CCN000002400000002400FN00000000020220401000002400NNE   20220324122018EJ  3F0F  00000080000000644200000794032EJ    EJYKBO  005500360039
BI00B32EJ    T220322P06     202205267158-3166-60             WIRE SEAL                CCN000120000000120000FN00000000020220501000120000NNE   20220324122018EJ  1C0C  00004000000000104000000152432EJ    EJYKBO  002700430014
BI00B32EJ    T220322P04     202206097116-4121-02             TERMINAL                 CCN000180000000180000FN00000000020220601000180000NNE   20220324122018EJ  4P0P  00000450000000618800000912432EJ    EJYKBO  006400630015
BI00B32EJ    T220322P04     202206097116-4122-02             TERMINAL                 CCN000450000000450000FN00000000020220601000450000NNE   20220324122018EJ  4P0P  00000450000000656600000950232EJ    EJYKBO  006400630015
BI00B32EJ    T220322P05     202206237158-3166-60             WIRE SEAL                CCN000080000000080000FN00000000020220601000080000NNE   20220324122018EJ  1C0C  00004000000000104000000152432EJ    EJYKBO  002700430014
BI00B32H2    TIJ2043        202204017158-3009-60             RUBBER STOPPER           CCN000400000000400000FN00000000020220401000400000NNMQ0020220324133011    1C0C  00002000000000338000000386232H2    HVYHV   002700430014
BI00B32H2    #TIJ2044       202204017172-5629-80             RUBBER STOPPER           CCN000300000000000000FY00000000020220401000000000NNMQ0820220324102633    2H0H  00002000000000060000000111132H2    HVYHV   004300270014
BI00B32H2    TIJ2052        202204227158-3009-60             RUBBER STOPPER           CCN000300000000300000FN00000000020220501000300000NNMQ0020220324133039    1C0C  00002000000000338000000386232H2    HVYHV   002700430014
BI00B32H2    TIJ205A        202204227470-5304                J/B COMPLETE ASS'Y       CCN000000650000000650FN00000000020220501000000650NNED0020220324122018    4J0J  00000001000000494000000661032H2    HVYHV   005400370024
BI00B32H2    TIJ205D        202205067289-3342-90             HOUSING FEMALE ASS'Y     CCN000009600000009600FN00000000020220501000009600NNED0420220324122018    1N0N  00000240000000686400000901432H2    HVYHV   005500360039
BI00B32H7    FS2205ADMW     202204067196-1327-02             TERMINAL FEMALE          CCN000052000000052000FN00000000020220501000052000NNE   20220324122018    4P0P  00005200000000336000000739532H7    FYFSY   006400630017
BI00B32H7    #FS2205ADMW    202204207172-5628-80             DUMMY PLUG               CCN000040000000040000FN00000000020220501000040000NNE   20220324122018    2H0H  00002000000000110600000162032H7    FYFSY   004300270014
BI00B32H8    #TY2204BIMW    202204087189-3031-40             HOUSING FEMALE           CCN000002400000002400FN00000000020220401000002400NNE   20220324122018    2F0F  00000240000000931200001368232H8    TYTYC   005500360039
BI00B32H8    #TY2204BIMW    202204087189-3031-90             HOUSING FEMALE           CCN000002400000002400FN00000000020220401000002400NNE   20220324122018    2F0F  00000240000000936000001373032H8    TYTYC   005500360039
BI00B32J1    #392875        202205097183-7725-40             HOUSING                  CCN000012000000012000FN00000000020220501000012000NNE   20220324122018    2F0F  00000600000000840000001040032J1    UKYEL-BL005600390040
BI00B32J1    #392875        202205097282-3243-40             CONNECTOR                CCN000000800000000800FN00000000020220501000000800NNE   20220324122018    2N0N  00000080000001006000001282332J1    UKYEL-BL005600390040
BI00B32J1    #392875        202205097282-6457-40             CONNECTOR                CCN000000800000000800FN00000000020220501000000800NNE   20220324122018    2N0N  00000080000001137000001421332J1    UKYEL-BL005600390040
BI00B32M1    TCV204C        202204077158-3070-80             RUBBER STOPPER           CCN000040000000040000FN00000000020220401000040000NNE   20220324122018    1C0C  00004000000000276000000333332M1    VNYEV   002700430014
BI00B32M1    TCV204C        202204077195-1479-02             TERMINAL MALE            CCN000048000000048000FN00000000020220401000048000NNE   20220324122018    4P0P  00002400000000420000000714232M1    VNYEV   006400630015
BI00B32M1    TCV204C        202204077195-1934-02             TERMINAL MALE            CCN000072000000072000FN00000000020220401000072000NNE   20220324122018    4P0P  00002400000000801600001095232M1    VNYEV   006400630015
BI00B32M1    TCV204C        202204077195-1935-02             TERMINAL MALE            CCN000058500000058500FN00000000020220401000058500NNE   20220324122018    4P0P  00001950000000670800000964432M1    VNYEV   006400630015
BI00B32M1    TCV204C        202204077195-1936-02             TERMINAL MALE            CCN000015000000015000FN00000000020220401000015000NNE   20220324122018    4P0P  00001500000000589500000883132M1    VNYEV   006400630015
BI00B32M1    TCV204C        202204077195-1937-02             TERMINAL MALE            CCN000015000000015000FN00000000020220401000015000NNE   20220324122018    4P0P  00001500000000594000000887632M1    VNYEV   006400630015
BI00B32M1    TCV204C        202204077196-1481-02             TERMINAL FEMALE          CCN000168000000168000FN00000000020220401000168000NNE   20220324122018    4P0P  00002400000000422400000707632M1    VNYEV   006400630015
