BI00A1200    AWNYS-AL-22-04 202203281801W006930              IVSSH 0.35F B            PNN000002500000002500FN00000000020220301000002500NNE30 20220324163844    1W    0000025000000045200000000001200    YCYC    000000000000RX323003
BI00A1200    AWNYS-AL-22-04 202203281801W003930              IVSSH 0.5F B             PNN000001800000001800FN00000000020220301000001800NNE30 20220324163844    1W    0000018000000062500000000001200    YCYC    000000000000RX323001
BI00A1200    AWNYS-AL-22-04 202203281801W004030              IVSSH 0.75F B            PNN000001300000001300FN00000000020220301000001300NNE30 20220324163844    1W    0000013000000088200000000001200    YCYC    000000000000RX323002
BI00B32D1    DFTW2225       2022042818000004534              AV 8 B/W                 CCN000003400000003400FN00000000020220601000003400NNE   20220324143621    1W    00000010000010466200000000032D1    TOYOT-K 000000000000KO224052
BI00B32D1    DFTW2225       2022042818000004535              AV 8 B/R                 CCN000000100000000100FN00000000020220601000000100NNE   20220324143621    1W    00000010000010466200000000032D1    TOYOT-K 000000000000KO224051
BI00B32D1    DFTW2225       2022042818000004540              AV 8 W                   CCN000002800000002800FN00000000020220601000002800NNE   20220324143621    1W    00000010000010466200000000032D1    TOYOT-K 000000000000KO224054
BI00B32D1    DFTW2225       2022042818000004543              AV 8 W/B                 CCN000001800000001800FN00000000020220601000001800NNE   20220324143621    1W    00000010000010466200000000032D1    TOYOT-K 000000000000KO224055
BI00B32D1    DFTW2225       2022042818000004550              AV 8 R                   CCN000000800000000800FN00000000020220601000000800NNE   20220324143621    1W    00000010000010466200000000032D1    TOYOT-K 000000000000KO224053
BI00B32D1    @DFTW2225      20220428181AD2002ZZ              CIVUSAS-S 0.35X2 B       CCN000003600000003600FN00000000020220601000003600NNE   20220324143619    1W    00000045000001713700000000032D1    TOYOT-K 000000000000KO224024
BI00B32D1    @DFTW2225      20220428181AD2003ZZ              CIVUSAS-S 0.35X3 B       CCN000000700000000700FN00000000020220601000000700NNE   20220324143619    1W    00000035000002172100000000032D1    TOYOT-K 000000000000KO224025
BI00B32D1    @DFTW2225      20220428181AD2004ZZ              CIVUSAS-S 0.35X4 B       CCN000003900000003900FN00000000020220601000003900NNE   20220324143619    1W    00000030000002799900000000032D1    TOYOT-K 000000000000KO224026
BI00B32D1    @DFTW2225      20220428181E48031ZZ              CAVSAS-S 0.3X2 GY        CCN000000700000000700FN00000000020220601000000700NNE   20220324143619    1W    00000035000002008700000000032D1    TOYOT-K 000000000000KO224027
BI00B32D1    @DFTW2225      20220428181E48037ZZ              CAVSAS-S 0.3X4 GY        CCN000000500000000500FN00000000020220601000000500NNE   20220324143619    1W    00000025000003262000000000032D1    TOYOT-K 000000000000KO224029
BI00B32D1    @DFTW2225      20220428181E48041ZZ              CAVSAS-S 0.3X2 GY/R      CCN000000700000000700FN00000000020220601000000700NNE   20220324143619    1W    00000035000002008700000000032D1    TOYOT-K 000000000000KO224028
BI00B32D1    @DFTW2225      20220428181E50002ZZ              AVSSCS-S 0.3FX2 DGY/G    CCN000002800000002800FN00000000020220601000002800NNE   20220324143619    1W    00000035000002165000000000032D1    TOYOT-K 000000000000KO224035
BI00B32D1    @DFTW2225      20220428181E50004ZZ              AVSSCS-S 0.5FX1 DGY      CCN000001200000001200FN00000000020220601000001200NNE   20220324143619    1W    00000040000001909700000000032D1    TOYOT-K 000000000000KO224030
BI00B32D1    @DFTW2225      20220428181E50005ZZ              AVSSCS-S 0.5FX1 DGY/W    CCN000000400000000400FN00000000020220601000000400NNE   20220324143619    1W    00000040000001909700000000032D1    TOYOT-K 000000000000KO224033
BI00B32D1    @DFTW2225      20220428181E50007ZZ              AVSSCS-S 0.5FX1 DGY/L    CCN000001600000001600FN00000000020220601000001600NNE   20220324143619    1W    00000040000001909700000000032D1    TOYOT-K 000000000000KO224031
BI00B32D1    @DFTW2225      20220428181E50014ZZ              AVSSCS-S 0.5FX1 DGY/R    CCN000000400000000400FN00000000020220601000000400NNE   20220324143619    1W    00000040000001909700000000032D1    TOYOT-K 000000000000KO224032
BI00B32D1    @DFTW2225      20220428181E50020ZZ              AVSSCS-S 0.3FX2 DGY/R    CCN000001400000001400FN00000000020220601000001400NNE   20220324143619    1W    00000035000002165000000000032D1    TOYOT-K 000000000000KO224037
BI00B32D1    @DFTW2225      20220428181E50021ZZ              AVSSCS-S 0.3FX2 DGY/P    CCN000001750000001750FN00000000020220601000001750NNE   20220324143619    1W    00000035000002165000000000032D1    TOYOT-K 000000000000KO224036
BI00B32D1    @DFTW2225      20220428181E50036ZZ              AVSSCS-S 0.3FX2 DGY      CCN000003500000003500FN00000000020220601000003500NNE   20220324143619    1W    00000035000002165000000000032D1    TOYOT-K 000000000000KO224034
BI00B32H2    TAW2051        2022040118007704143              AVSS 1.25F W/B           CCN000000800000000800FN00000000020220501000000800NNM20 20220324132051    1W    00000080000001389000000000032H2    HVYHV   000000000000UH423031
BI00B32H8    @2204AIMW      20220401181AD2009ZZ              CIVUSAS-S 0.5X3 B        CCN000000300000000300FN00000000020220401000000300NNE   20220324155813    1W    00000030000002716800000000032H8    TYTYC   000000000000LN323002
BI00B32H8    @2204AIMW      20220401181AD2020ZZ              CIVUSAS-S 0.5X2 B(R,G)   CCN000000400000000400FN00000000020220401000000400NNE   20220324155813    1W    00000040000002028000000000032H8    TYTYC   000000000000LN323001
BI00B32H8    @2204AIMW      20220401181AD2022ZZ              CIVUSAS-S 0.35X2 B(R,G)  CCN000000450000000450FN00000000020220401000000450NNE   20220324155813    1W    00000045000001714000000000032H8    TYTYC   000000000000LN323003
BI00B32M8    PM2205A MW     2022042018007703930              AVSS 0.5F B              CCN000001500000001500FN00000000020220501000001500NNE   20220324155933    1W    00000150000000674000000000032M8    PMPEMI  000000000000IE124003
BI00B32M8    PM2205A MW     2022042018007703943              AVSS 0.5F W/B            CCN000001500000001500FN00000000020220501000001500NNE   20220324155933    1W    00000150000000674000000000032M8    PMPEMI  000000000000IE124005
BI00B32M8    PM2205A MW     2022042018007703952              AVSS 0.5F P              CCN000003000000003000FN00000000020220501000003000NNE   20220324155933    1W    00000150000000674000000000032M8    PMPEMI  000000000000IE124004
BI00B32M8    PM2205A MW     2022042018007704170              AVSS 1.25F Y             CCN000000800000000800FN00000000020220501000000800NNE   20220324155933    1W    00000080000001389000000000032M8    PMPEMI  000000000000IE124006
BI00B32M8    @PM2205A MW    20220420181B09102K3              CAVSAS 0.5X2 GY/P        CCN000001200000001200FN00000000020220501000001200NNE   20220324155931    1W    00000030000002680000000000032M8    PMPEMI  000000000000IE124001
BI00B32M8    @PM2205A MW    20220420181F21009ZZ              AVSSHCS-S 0.5FX2 B       CCN000003600000003600FN00000000020220501000003600NNE   20220324155931    1W    00000030000002531400000000032M8    PMPEMI  000000000000IE124002
BI00B32M8    PM2205ATMW     202204201801W003930              IVSSH 0.5F B             CCN000001800000001800FN00000000020220501000001800NNE   20220324155933    1W    00000180000000625000000000032M8    PMPEMI  000000000000ID124001
BI00B32M8    PM2205ATMW     202204201801W003941              IVSSH 0.5F GY            CCN000001800000001800FN00000000020220501000001800NNE   20220324155933    1W    00000180000000625000000000032M8    PMPEMI  000000000000ID124002
BI00B32M8    PM2205ATMW     202204201801W003943              IVSSH 0.5F W/B           CCN000003600000003600FN00000000020220501000003600NNE   20220324155933    1W    00000180000000625000000000032M8    PMPEMI  000000000000ID124007
BI00B32M8    PM2205ATMW     202204201801W003952              IVSSH 0.5F P             CCN000001800000001800FN00000000020220501000001800NNE   20220324155933    1W    00000180000000625000000000032M8    PMPEMI  000000000000ID124004
BI00B32M8    PM2205ATMW     202204201801W003990              IVSSH 0.5F L             CCN000005400000005400FN00000000020220501000005400NNE   20220324155933    1W    00000180000000625000000000032M8    PMPEMI  000000000000ID124003
BI00B32M8    PM2205ATMW     202204201801W003991              IVSSH 0.5F SB            CCN000003600000003600FN00000000020220501000003600NNE   20220324155933    1W    00000180000000625000000000032M8    PMPEMI  000000000000ID124005
BI00B32M8    PM2205ATMW     202204201801W003992              IVSSH 0.5F V             CCN000003600000003600FN00000000020220501000003600NNE   20220324155933    1W    00000180000000625000000000032M8    PMPEMI  000000000000ID124006
BI00B32M8    PM2205ATMW     202204201801W004090              IVSSH 0.75F L            CCN000002600000002600FN00000000020220501000002600NNE   20220324155933    1W    00000130000000882000000000032M8    PMPEMI  000000000000ID124008
