AV00TIEP20186A2022071132X5    A32X5    CC.                             . 20711A0186.              .              .              000
AV01.                                                 LOADING AT CK-2                                   BONDED                                            0000000201SP000523  20220711090746 
AW00TIEP20186A32X5    20711A01867116-5045-02             TIB2031D       00160001C001       00001000016000ASP000523  20220711091446
AW00TIEP20186A32X5    20711A01867116-5045-02             TIB2031D       00160001C002       00001000016000ASP000523  20220711091446
AW00TIEP20186A32X5    20711A01867116-5045-02             TIB2031D       00160001C003       00001000016000ASP000523  20220711091446
AW00TIEP20186A32X5    20711A01867116-5045-02             TIB2031D       00160001C004       00001000016000ASP000523  20220711091446
AW00TIEP20186A32X5    20711A01867116-5045-02             TIB2031D       00160001C005       00001000016000ASP000523  20220711091446
AW00TIEP20186A32X5    20711A01867116-5045-02             TIB2031D       00160001C006       00001000016000ASP000523  20220711091446
AW00TIEP20186A32X5    20711A01867116-5045-02             TIB2031D       00160001C007       00001000016000ASP000523  20220711091446
AW00TIEP20186A32X5    20711A01867116-5045-02             TIB2031D       00160001C008       00001000016000ASP000523  20220711091446
AW00TIEP20186A32X5    20711A01867116-5045-02             TIB2031D       00160001C009       00001000016000ASP000523  20220711091446
AW00TIEP20186A32X5    20711A01867116-5045-02             TIB2031D       00160001C010       00001000016000ASP000523  20220711091446
AW00TIEP20186A32X5    20711A01867116-5045-02             TIB2031D       00160001C011       00001000016000ASP000523  20220711091446
AW00TIEP20186A32X5    20711A01867116-5045-02             TIB2031D       00160001C012       00001000016000ASP000523  20220711091446
AW00TIEP20186A32X5    20711A01867116-5045-02             TIB2031D       00160001C013       00001000016000ASP000523  20220711091446
AW00TIEP20186A32X5    20711A01867116-5045-02             TIB2031D       00160001C014       00001000016000ASP000523  20220711091446
AW00TIEP20186A32X5    20711A01867116-5045-02             TIB2031D       00160001C015       00001000016000ASP000523  20220711091446
AW00TIEP20186A32X5    20711A01867116-5045-02             TIB2031D       00160001C016       00001000016000ASP000523  20220711091446
AW00TIEP20186A32X5    20711A01867196-1937-02             PX5TAT206A     00135001C017       00001000013500ASP000523  20220711091446
AW00TIEP20186A32X5    20711A01867196-1933-02             PX5TAT206A     00210001C018       00001000021000ASP000523  20220711091446
AW00TIEP20186A32X5    20711A01867116-5046-02             TIB2031D       00120001C019       00001000012000ASP000523  20220711091446
AW00TIEP20186A32X5    20711A01867116-5046-02             TIB2031D       00120001C020       00001000012000ASP000523  20220711091446
