BI00B1200    40CR001        202203247196-0549-08             TERMINAL ALUMINIUM       CCN000038000000038000FN00000000020220401000038000NNE   20220314121645    1P0P  0000380000000060040000092911200    YCYC    006400630017
BI00B1200    7504T52302     202203317116-4120-02             TERMINAL                 CCN000120000000120000FN00000000020220501000120000NNM   20220314121645    4P0P  0000060000000078000000107361200    YCYC    006400630015
BI00B1200    7504T52303     202204077116-4120-02             TERMINAL                 CCN000060000000060000FN00000000020220501000060000NNM   20220314121645    4P0P  0000060000000078000000107361200    YCYC    006400630015
BI00B1200    7504T52304     202204217116-4120-02             TERMINAL                 CCN000060000000060000FN00000000020220501000060000NNM   20220314121645    4P0P  0000060000000078000000107361200    YCYC    006400630015
BI00B1200    7504T52305     202204287116-4120-02             TERMINAL                 CCN000060000000060000FN00000000020220501000060000NNM   20220314121645    4P0P  0000060000000078000000107361200    YCYC    006400630015
BI00B1200    7504T52306     202205057116-4120-02             TERMINAL                 CCN000060000000060000FN00000000020220501000060000NNM   20220314121645    4P0P  0000060000000078000000107361200    YCYC    006400630015
BI00B1200    7504T52302     202203317116-4122-02             TERMINAL                 CCN000153000000153000FN00000000020220501000153000NNM   20220314121645    4P0P  0000045000000065660000095021200    YCYC    006400630015
BI00B1200    7504T52303     202204077116-4122-02             TERMINAL                 CCN000153000000153000FN00000000020220501000153000NNM   20220314121645    4P0P  0000045000000065660000095021200    YCYC    006400630015
BI00B1200    7504T52304     202204217116-4122-02             TERMINAL                 CCN000153000000153000FN00000000020220501000153000NNM   20220314121645    4P0P  0000045000000065660000095021200    YCYC    006400630015
BI00B1200    7504T52305     202204287116-4122-02             TERMINAL                 CCN000153000000153000FN00000000020220501000153000NNM   20220314121645    4P0P  0000045000000065660000095021200    YCYC    006400630015
BI00B1200    7504T52306     202205057116-4122-02             TERMINAL                 CCN000153000000153000FN00000000020220501000153000NNM   20220314121645    4P0P  0000045000000065660000095021200    YCYC    006400630015
BI00B1200    #O022E50228    202204217154-5597-30             CASSETTE R/B             CCN000002400000002400FN00000000020220501000002400NNE   20220314121645    2F0F  0000008000000073600000095201200    YCYC    005500360039
BI00B1200    O022E50229     202204217158-3022-80             RUBBER STOPPER           CCN000005000000005000FN00000000020220501000005000NNE   20220314121645    1C0C  0000050000000046750000052401200    YCYC    002700430014
BI00B1200    Y022F50051     202205197289-6524-30             HOUSING FEMALE ASS'Y     CCN000002640000002640FN00000000020220601000002640NNM   20220314121645    4N0N  0000002400000135120000166621200    YCYC    005500360039
BI00B32AF    JTB2041        202203177289-3342-30             HOUSING FEMALE ASS'Y     CCN000060000000030000FN00000000020220401000030000NNM00020220314162338    1N0N  00000240000000686400000901432AF    HBYHVTB 005500360039
BI00A32AF    JTB2025        202203147289-3342-30             HOUSING FEMALE ASS'Y     PCN000028800000028800FY00002880020220201000000000NNM00020220314160407    1N0N  00000240000000686400000901432AF    HBYHVTB 005500360039
BI00B32BF    TT2204AKMW     202203107158-3006-90             RUBBER STOPPER           CCN000040000000040000FY00004000020220401000000000NNE00020220314161553    1C0C  00002000000000330600000386032BF    TTTJYCD 002700430014
BI00B32B1    A22022         202204297114-4032                TERMINAL                 CCN000015000000015000FN00000000020220701000015000NNM   20220314121645B1  4P0P  00000750000000735000001063632B1    AXARNE-M006400630017
BI00B32B1    A22022         202204297157-7925-80             REAR HOLDER              CCN000030000000030000FN00000000020220701000030000NNM   20220314121645B1  1F0F  00003000000000720000000871032B1    AXARNE-M005600390023
BI00B32B1    A22022         202204297282-5553-30             CONNECTOR                CCN000002000000002000FN00000000020220701000002000NNM   20220314121645B1  4N0N  00000100000001010000001187332B1    AXARNE-M005500360039
BI00B32B1    A22022         202204297282-5574-10             CONNECTOR                CCN000001600000001600FN00000000020220701000001600NNM   20220314121645B1  4N0N  00000080000001235000001423032B1    AXARNE-M005600390040
BI00B32B1    #A22022        202204297157-3891                RUBBER STOPPER           CCN000010000000010000FN00000000020220701000010000NNM   20220314121645B1  2H0H  00001000000000145000000241732B1    AXARNE-M004300270014
BI00B32B1    #A22022        202204297158-3376-50             CONNECTOR WIRE SEAL      CCN000120000000120000FN00000000020220701000120000NNM   20220314121645B1  2C0C  00002000000000184000000240732B1    AXARNE-M002700430014
BI00B32B1    #A22022        202204297282-6446-40             CONNECTOR                CCN000001500000001500FN00000000020220701000001500NNM   20220314121645B1  2N0N  00000150000001185000001368032B1    AXARNE-M005500360039
BI00B32B1    #A22022        202204297282-8395-40             CONNECTOR                CCN000001000000001000FN00000000020220701000001000NNM   20220314121645B1  2N0N  00000100000001009000001188032B1    AXARNE-M005500360039
BI00B32B1    #A22022        202204297283-8226-30             CONNECTOR                CCN000008000000008000FN00000000020220701000008000NNM   20220314121645B1  2N0N  00000200000000820000001008032B1    AXARNE-M005400370024
BI00B32B6    A72022         202204297116-4037                TERMINAL                 CCN000006000000006000FN00000000020220701000006000NNM   20220314121645B6  4P0P  00000600000000600000000894232B6    AXARNE-M006400630015
BI00B32B6    A72022         202204297017-1181-02             TERMINAL                 CCN000063000000063000FN00000000020220701000063000NNM   20220314121645B6  4P0P  00006300000001089900001266832B6    AXARNE-M005100280028
BI00B32B6    A72022         202204297017-1183-02             TERMINAL                 CCN000027000000027000FN00000000020220701000027000NNM   20220314121645B6  4P0P  00002700000001139400001307432B6    AXARNE-M005100280028
BI00B32B6    A72022         202204297116-4486-02             TERMINAL                 CCN000028000000028000FN00000000020220701000028000NNM   20220314121645B6  4P0P  00002800000000666400000995132B6    AXARNE-M006400630017
BI00B32B6    A72022         202204297158-3166-60             WIRE SEAL                CCN000160000000160000FN00000000020220701000160000NNM   20220314121645B6  1C0C  00004000000000104000000152432B6    AXARNE-M002700430014
BI00B32B6    A72022         202204297158-3168-80             SEALED                   CCN000040000000040000FN00000000020220701000040000NNM   20220314121645B6  1C0C  00002000000000044000000092132B6    AXARNE-M004300260014
BI00B32B6    A72022         202204297158-3169-40             SEALING PLUG             CCN000040000000040000FN00000000020220701000040000NNM   20220314121645B6  1C0C  00004000000000156000000204132B6    AXARNE-M004300260014
BI00B32B6    A72022         202204297287-0192-40             SEALED HOUSING ASS'Y     CCN000001920000001920FN00000000020220701000001920NNM   20220314121645B6  4N0N  00000048000001092000001322032B6    AXARNE-M005600390040
BI00B32B7    A82022         202204297158-3166-60             WIRE SEAL                CCN000200000000200000FN00000000020220701000200000NNM   20220314121645B7  1C0C  00004000000000104000000152432B7    AXARNE-M002700430014
BI00B32B7    A82022         202204297158-3167-80             WIRE SEAL                CCN000240000000240000FN00000000020220701000240000NNM   20220314121645B7  1C0C  00002000000000048000000109032B7    AXARNE-M002700430014
BI00B32B7    A82022         202204297158-3168-80             SEALED                   CCN000060000000060000FN00000000020220701000060000NNM   20220314121645B7  1C0C  00002000000000044000000092132B7    AXARNE-M004300260014
BI00B32B7    A82022         202204297158-3169-40             SEALING PLUG             CCN000120000000120000FN00000000020220701000120000NNM   20220314121645B7  1C0C  00004000000000156000000204132B7    AXARNE-M004300260014
BI00B32B7    A82022         202204297282-6448-40             CONNECTOR                CCN000015200000015200FN00000000020220701000015200NNM   20220314121645B7  4N0N  00000080000000887000001152732B7    AXARNE-M005600390040
BI00B32B7    A82022         202204297283-8599-30             CONNECTOR                CCN000001540000001540FN00000000020220701000001540NNM   20220314121645B7  4N0N  00000154000000947100001157032B7    AXARNE-M005600390023
BI00B32B7    #A82022        202204297135-7031                GROMMET                  CCN000003800000003800FN00000000020220701000003800NNM   20220314121645B7  2H0H  00000010000000634200000744232B7    AXARNE-M005400370024
BI00B32B7    #A82022        202204297158-3376-50             CONNECTOR WIRE SEAL      CCN000020000000020000FN00000000020220701000020000NNM   20220314121645B7  2C0C  00002000000000184000000240732B7    AXARNE-M002700430014
BI00B32B7    #A82022        202204297283-8397-40             CONNECTOR                CCN000009240000009240FN00000000020220701000009240NNM   20220314121645B7  2N0N  00000154000001007000001222732B7    AXARNE-M005600390023
BI00B32B7    #A82022        202204297283-8398-40             CONNECTOR                CCN000007700000007700FN00000000020220701000007700NNM   20220314121645B7  2N0N  00000154000001007000001171332B7    AXARNE-M005600390023
BI00B32CA    PTA32092       202206027158-3169-40             SEALING PLUG             CCN000040000000040000FN00000000020220901000040000NNE   20220314121645    1C0C  00004000000000156000000204132CA    YPYPY   004300260014
BI00B32CA    PTA32092       202206027289-3342                HOUSING FEMALE ASS'Y     CCN000021600000021600FN00000000020220901000021600NNE   20220314121645    1N0N  00000240000000686400000901432CA    YPYPY   005500360039
BI00B32CA    PTA32092       202206027289-3342-30             HOUSING FEMALE ASS'Y     CCN000031200000031200FN00000000020220901000031200NNE   20220314121645    1N0N  00000240000000686400000901432CA    YPYPY   005500360039
BI00B32CA    #PTA32092      202206027189-3032-30             HOUSING FEMALE           CCN000003200000003200FN00000000020220901000003200NNE   20220314121645    2F0F  00000160000000801600001021632CA    YPYPY   005500360039
BI00B32CA    #PTA32092      202206027189-3037                HOUSING FEMALE           CCN000004800000004800FN00000000020220901000004800NNE   20220314121645    2F0F  00000480000000806400001066432CA    YPYPY   005500360039
BI00B32CH    SJ22033HMW     202203107327-6870-30             MULTI FUSE               CCN000002304000002304FY00000230420220301000000000NNM00020220314160722    4N0N  00000028800001015200001181132CH    SJSAMIJF005400370024
BI00B32CJ    JQN2041        202204017327-6987-3W             BATTERY FUSE             CCN000002000000001872FN00000000020220401000001872NNMD0120220314162135    4N0N  00000007200000511300000711532CJ    QNYHVQN 005500360039
BI00A32CJ    JQN2041        202203257327-6987-3W             BATTERY FUSE             CCN000000144000000144FN00000000020220401000000144NNMM0020220314162151    4N0N  00000007200000511300000711532CJ    QNYHVQN 005500360039
BI00B32D1    DFTC2203       202203187289-3342-30             HOUSING FEMALE ASS'Y     CCN000115200000057600FN00000000020220101000057600NNM00020220314162403    1N0N  00000240000000686400000901432D1    TOYOT-K 005500360039
BI00B32D1    #DFTC2216      202203177172-5630-40             RUBBER STOPPER           CCN000020000000020000FN00000000020220401000020000NNM00020220314162427    2H0H  00002000000000044000000095132D1    TOYOT-K 004300270014
BI00B32D2    DGTC2218       202203177196-1325-02             TERMINAL FEMALE          CCN000420000000060000FN00000000020220501000060000NNM00020220314161208    4P0P  00006000000000450000000778732D2    TGYOT-G 006400630017
BI00A32D2    DGTC2218       202203117196-1325-02             TERMINAL FEMALE          CCN000360000000360000FY00036000020220501000000000NNM00020220314161208    4P0P  00006000000000450000000778732D2    TGYOT-G 006400630017
BI00A32D2    DGTC2218       202203117327-6801-3W             BATTERY FUSE             CCN000002304000002304FY00000230420220501000000000NNM00020220314161138    4N0N  00000009600000928400001143432D2    TGYOT-G 005500360039
BI00A32D2    DGTC2218       202203117327-6806                MULTI FUSE               CCN000002240000002240FY00000224020220501000000000NNM00020220314161151    4N0N  00000056000000851500001063932D2    TGYOT-G 005400370024
BI00A32D2    DGTC2218       202203117327-6930                MULTI FUSE               CCN000002240000002240FY00000224020220501000000000NNM00020220314161522    4N0N  00000056000000848900001031932D2    TGYOT-G 005400370024
BI00A32EJ    @T220311P01    202203177182-6153                CONNECTOR HOUSING        CCN000012000000012000FN00000000020220301000012000NNE   20220314121645EJ  3F0F  00000150000000887000001018032EJ    EJYKBO  005400370024
BI00B32EJ    T220311P02     202204077116-4022                TERMINAL                 CCN000013500000013500FN00000000020220401000013500NNE   20220314121645EJ  4P0P  00001350000000618300000903532EJ    EJYKBO  006400630015
BI00B32EJ    T220311P02     202204077158-3070-80             RUBBER STOPPER           CCN000040000000040000FN00000000020220401000040000NNE   20220314121645EJ  1C0C  00004000000000276000000333332EJ    EJYKBO  002700430014
BI00B32EJ    #T220311P02    202204077157-3821                RUBBER STOPPER           CCN000020000000020000FN00000000020220401000020000NNE   20220314121645EJ  2C0C  00002000000000176000000238032EJ    EJYKBO  002700430014
BI00B32EJ    #T220311P02    202204077158-3374-90             CONNECTOR WIRE SEAL      CCN000020000000020000FN00000000020220401000020000NNE   20220314121645EJ  2H0H  00002000000000172000000229332EJ    EJYKBO  002700430014
BI00B32EJ    T220311P03     202204077116-2951-02             TERMINAL                 CCN000005400000005400FN00000000020220401000005400NNE   20220314121645EJ  4P0P  00000540000000817600001111832EJ    EJYKBO  006400630015
BI00B32EJ    T220311P03     202204077116-4022                TERMINAL                 CCN000013500000013500FN00000000020220401000013500NNE   20220314121645EJ  4P0P  00001350000000618300000903532EJ    EJYKBO  006400630015
BI00B32EJ    T220311P03     202204077116-4122-02             TERMINAL                 CCN000013500000013500FN00000000020220401000013500NNE   20220314121645EJ  4P0P  00000450000000656600000950232EJ    EJYKBO  006400630015
BI00B32EJ    T220311P03     202204077116-5751-02             TERMINAL                 CCN000024000000024000FN00000000020220401000024000NNE   20220314121645EJ  4P0P  00001200000000379200000664432EJ    EJYKBO  006400630015
BI00B32EJ    T220311P03     202204077158-3070-80             RUBBER STOPPER           CCN000080000000080000FN00000000020220401000080000NNE   20220314121645EJ  1C0C  00004000000000276000000333332EJ    EJYKBO  002700430014
BI00B32EJ    T220311P03     202204077222-7564-40             CONNECTOR                CCN000000500000000500FN00000000020220401000000500NNE   20220314121645EJ  1N0N  00000050000000967000001097032EJ    EJYKBO  005500360039
BI00B32EJ    T220311P03     202204077283-7028-30             CONNECTOR                CCN000003000000003000FN00000000020220401000003000NNE   20220314121645EJ  4N0N  00000300000001452000001681332EJ    EJYKBO  005600390040
BI00B32EJ    #T220311P03    202204077123-6423-30             CONNECTOR                CCN000014000000014000FN00000000020220401000014000NNE   20220314121645EJ  2F0F  00000200000001002000001167632EJ    EJYKBO  005600390023
BI00B32EJ    T220311P04     202204147158-3166-60             WIRE SEAL                CCN000040000000040000FN00000000020220401000040000NNE   20220314121645EJ  1C0C  00004000000000104000000152432EJ    EJYKBO  002700430014
BI00B32EJ    T220311P04     202204147158-3168-80             SEALED                   CCN000360000000360000FN00000000020220401000360000NNE   20220314121645EJ  1C0C  00002000000000044000000092132EJ    EJYKBO  004300260014
BI00B32EJ    T220311P04     202204147114-4101-02             TERMINAL                 CCN000300000000300000FN00000000020220401000300000NNE   20220314121645EJ  4P0P  00001500000000675000001003632EJ    EJYKBO  006400630017
BI00B32EJ    T220311P04     202204147116-1180                TERMINAL                 CCN000019500000019500FN00000000020220401000019500NNE   20220314121645EJ  1P0P  00001950000000618200000903432EJ    EJYKBO  006400630015
BI00B32EJ    T220311P04     202204147116-4022                TERMINAL                 CCN000040500000040500FN00000000020220401000040500NNE   20220314121645EJ  4P0P  00001350000000618300000903532EJ    EJYKBO  006400630015
BI00B32EJ    T220311P04     202204147116-4025                TERMINAL                 CCN000016000000016000FN00000000020220401000016000NNE   20220314121645EJ  4P0P  00001600000000644800000975132EJ    EJYKBO  006400630017
BI00B32EJ    T220311P04     202204147116-4121-02             TERMINAL                 CCN000045000000045000FN00000000020220401000045000NNE   20220314121645EJ  4P0P  00000450000000618800000912432EJ    EJYKBO  006400630015
BI00B32EJ    T220311P04     202204147283-5843                CONNECTOR                CCN000022500000022500FN00000000020220401000022500NNE   20220314121645EJ  1N0N  00000150000000889000001132032EJ    EJYKBO  005600390040
BI00B32G2    SA22043 MW     202203167116-4486-02             TERMINAL                 CCN000084000000084000FN00000000020220401000084000NNMD0020220314121645    4P0P  00002800000000666400000995132G2    AISUAI  006400630017
BI00B32G7    JJ2204DMMW     202204077196-1481-02             TERMINAL FEMALE          CCN000024000000024000FN00000000020220401000024000NNE   20220314121645    4P0P  00002400000000422400000707632G7    JIJAI   006400630015
BI00B32G7    JJ2204DMMW     202204077196-1482-02             TERMINAL FEMALE          CCN000024000000024000FN00000000020220401000024000NNE   20220314121645    4P0P  00002400000000424800000710032G7    JIJAI   006400630015
BI00B32G7    JJ2204DMMW     202204077196-1933-02             TERMINAL FEMALE          CCN000021000000021000FN00000000020220401000021000NNE   20220314121645    4P0P  00002100000000590100000875332G7    JIJAI   006400630015
BI00B32G7    JJ2204DMMW     202204077196-1934-02             TERMINAL FEMALE          CCN000019500000019500FN00000000020220401000019500NNE   20220314121645    4P0P  00001950000000561600000846832G7    JIJAI   006400630015
BI00B32G7    JJ2204DMMW     202204077196-1943-02             TERMINAL FEMALE          CCN000012000000012000FN00000000020220401000012000NNE   20220314121645    4P0P  00001200000000492000000777232G7    JIJAI   006400630015
BI00B32G7    JJ2204DMMW     202204077196-1944-02             TERMINAL FEMALE          CCN000012000000012000FN00000000020220401000012000NNE   20220314121645    4P0P  00001200000000501600000786832G7    JIJAI   006400630015
BI00B32G7    JJ2204DMMW     202204077196-1947-02             TERMINAL FEMALE          CCN000009000000009000FN00000000020220401000009000NNE   20220314121645    4POP  00000900000000407700000692932G7    JIJAI   006400630015
BI00B32H2    TIJ205A        202204017114-4021                TERMINAL                 CCN000045000000045000FN00000000020220501000045000NNED0020220314121645    4P0P  00001500000000670500000964132H2    HVYHV   006400630015
BI00B32H2    TIJ205A        202204017116-4032                TERMINAL                 CCN000018000000018000FN00000000020220501000018000NNED0020220314121645    4P0P  00000600000000532800000818032H2    HVYHV   006400630015
BI00B32H2    TIJ205A        202204017116-5042-02             TERMINAL                 CCN000054000000054000FN00000000020220501000054000NNED0020220314121645    4P0P  00001350000000560300000845532H2    HVYHV   006400630015
BI00B32H2    TIJ205A        202204017126-8853-02             TERMINAL                 CCN000015000000015000FN00000000020220501000015000NNED0020220314121645    4P0P  00000750000000562500000847732H2    HVYHV   006400630015
BI00B32H2    TIJ205A        202204017126-8854-02             TERMINAL                 CCN000015000000015000FN00000000020220501000015000NNED0020220314121645    4P0P  00000750000000604500000889732H2    HVYHV   006400630015
BI00B32H2    TIJ205A        202204017126-8855-02             TERMINAL                 CCN000006000000006000FN00000000020220501000006000NNED0020220314121645    4P0P  00000600000000510600000795832H2    HVYHV   006400630015
BI00B32H2    TIJ205A        202205067470-5304                J/B COMPLETE ASS'Y       CCN000000650000000650FN00000000020220501000000650NNED0220220314131519    4J0J  00000001000000494000000661032H2    HVYHV   005400370024
BI00B32H2    TIJ205B        202205067470-5304                J/B COMPLETE ASS'Y       CCN000000200000000200FN00000000020220501000000200NNED0220220314131537    4J0J  00000001000000494000000661032H2    HVYHV   005400370024
BI00B32H2    #TIJ205E       202204087183-2413                CONNECTOR HOUSING        CCN000072000000072000FN00000000020220501000072000NNE   20220314121645    2F0F  00000480000000478100000760032H2    HVYHV   005500360039
BI00B32H2    #TIJ205E       202204087183-2415                CONNECTOR HOUSING        CCN000019200000019200FN00000000020220501000019200NNE   20220314121645    2F0F  00000480000000798200001091432H2    HVYHV   005500360039
BI00B32H2    #TIJ205F       202204087183-2413                CONNECTOR HOUSING        CCN000014400000014400FN00000000020220501000014400NNE   20220314121645    2F0F  00000480000000478100000760032H2    HVYHV   005500360039
BI00B32H2    TIJ205G        202204227287-3885                HYBRID FEMALE ASS'Y      CCN000002400000002400FN00000000020220501000002400NNE   20220314121645    1N0N  00000240000001029600001249632H2    HVYHV   005500360039
BI00B32H2    TIJ205G        202204227289-3342                HOUSING FEMALE ASS'Y     CCN000002400000002400FN00000000020220501000002400NNE   20220314121645    1N0N  00000240000000686400000901432H2    HVYHV   005500360039
BI00B32H2    TIJ205G        202204227289-3342-90             HOUSING FEMALE ASS'Y     CCN000012000000012000FN00000000020220501000012000NNE   20220314121645    1N0N  00000240000000686400000901432H2    HVYHV   005500360039
BI00B32H2    TIJ205G        202204227298-1869-30             HOUSING FEMALE ASS'Y     CCN000001200000001200FN00000000020220501000001200NNE   20220314121645    4N0N  00000120000000737000000939832H2    HVYHV   005500360039
BI00B32H2    TIJ205G        202204227298-2278-30             HOUSING FEMALE ASS'Y     CCN000002400000002400FN00000000020220501000002400NNE   20220314121645    4N0N  00000240000001091700001295432H2    HVYHV   005500360039
BI00B32K8    #K1220010486   202203177137-2718-50             SEALED CONNECTOR         CCN000004000000004000FN00000000020220401000004000NNM00020220314145510    2C0C  00000100000000118300000236632K8    ELELCOM 002700430014
BI00B32M1    TCV2043        202204077282-1119-30             HOUSING MALE ASS'Y       CCN000005184000005184FN00000000020220401000005184NNMD0620220314121645    4N0N  00000028800000821700001008032M1    VNYEV   005400370024
BI00B32M1    TCV204B        202203317116-5035-02             TERMINAL                 CCN000150000000150000FN00000000020220401000150000NNED0020220314121645    4P0P  00001500000000543000000828232M1    VNYEV   006400630015
BI00B32M3    SM22051 MW     202203247116-4231-02             TERMINAL                 CCN000130000000130000FN00000000020220501000130000NNMD0020220314121645    4P0P  00002600000000683800001012532M3    SASAMI  006400630017
BI00B32M3    SM22051 MW     202203247116-4780-02             TERMINAL FEMALE          CCN000030000000030000FN00000000020220501000030000NNMD0020220314121645    4P0P  00001500000000691500000985732M3    SASAMI  006400630015
BI00B32M4    TP2034D        202203117327-6985-30             MULTI FUSE               CCN000000576000000576FY00000057620220301000000000NNED0320220314161453    4N0N  00000028800000886100001052032M4    SISAI   005400370024
BI00B32N2    2152103877     202203317114-4020                TERMINAL                 CCN000063000000063000FN00000000020220501000063000NNMD0020220314121645    4P0P  00002100000000875700001169332N2    YWYIPLTC006400630015
BI00B32N2    2152103877     202203317114-4021                TERMINAL                 CCN000030000000030000FN00000000020220501000030000NNMD0020220314121645    4P0P  00001500000000670500000964132N2    YWYIPLTC006400630015
BI00B32N2    2152103877     202203317114-4032                TERMINAL                 CCN000015000000015000FN00000000020220501000015000NNMD0020220314121645    4P0P  00000750000000735000001063632N2    YWYIPLTC006400630017
BI00B32N2    2152103877     202203317116-1471                TERMINAL                 CCN000015000000015000FN00000000020220501000015000NNMD0020220314121645    4P0P  00001500000000579000000867232N2    YWYIPLTC006400630015
BI00B32N2    2152103877     202203317116-4020                TERMINAL                 CCN000067500000067500FN00000000020220501000067500NNMD0020220314121645    4P0P  00001350000000513000000798232N2    YWYIPLTC006400630015
BI00B32N2    2152103877     202203317116-4022                TERMINAL                 CCN000013500000013500FN00000000020220501000013500NNMD0020220314121645    4P0P  00001350000000618300000903532N2    YWYIPLTC006400630015
BI00B32N2    2152103877     202203317116-4032                TERMINAL                 CCN000012000000012000FN00000000020220501000012000NNMD0020220314121645    4P0P  00000600000000532800000818032N2    YWYIPLTC006400630015
BI00B32N2    2152103877     202203317017-1182-02             TERMINAL                 CCN000048000000090000FN00000000020220501000090000NNMD0020220314121645    4P0P  00004500000001165500001318632N2    YWYIPLTC005100280028
BI00B32N2    2152103877     202203317114-4231-02             TERMINAL                 CCN000036000000036000FN00000000020220501000036000NNMD0020220314121645    4P0P  00001800000000554400000848032N2    YWYIPLTC006400630015
BI00B32N2    2152103877     202203317116-2891-02             TERMINAL                 CCN000015000000015000FN00000000020220501000015000NNMD0020220314121645    4P0P  00001500000000982500001145932N2    YWYIPLTC005100280028
BI00B32N2    2152103877     202203317116-2893-02             TERMINAL                 CCN000012000000012000FN00000000020220501000012000NNMD0020220314121645    4P0P  00001200000000895200001058632N2    YWYIPLTC005100280028
BI00B32N2    2152103877     202203317116-4231-02             TERMINAL                 CCN000078000000078000FN00000000020220501000078000NNMD0020220314121645    4P0P  00002600000000683800001012532N2    YWYIPLTC006400630017
BI00B32N2    2152103877     202203317116-5043-02             TERMINAL FEMALE          CCN000012000000012000FN00000000020220501000012000NNMD0020220314121645    4P0P  00001200000000559200000844432N2    YWYIPLTC006400630015
BI00B32N2    2152103877     202203317126-8854-02             TERMINAL                 CCN000007500000007500FN00000000020220501000007500NNMD0020220314121645    4P0P  00000750000000604500000889732N2    YWYIPLTC006400630015
BI00B32N2    2152103877     202203317126-8855-02             TERMINAL                 CCN000006000000006000FN00000000020220501000006000NNMD0020220314121645    4P0P  00000600000000510600000795832N2    YWYIPLTC006400630015
BI00B32Q8    EU2204D MW     202203237114-4110-02             TERMINAL                 CCN000030000000030000FN00000000020220401000030000NNED0020220314121645    4P0P  00001500000000901500001230132Q8    EMEMI   006400630017
BI00B32Q8    EU2204D MW     202203237116-4031                TERMINAL                 CCN000022500000022500FN00000000020220401000022500NNED0020220314121645    4P0P  00000750000000619500000904732Q8    EMEMI   006400630015
BI00B32Q8    EU2204D MW     202203237116-4102-02             TERMINAL                 CCN000024000000024000FN00000000020220401000024000NNED0020220314121645    4P0P  00001200000000553200000841432Q8    EMEMI   006400630015
BI00B32Q8    EU2204DDMW     202203237B96-0805-02             TERMINAL FEMALE          CCN000022500000022500FN00000000020220401000022500NNED0020220314121645    4P0P  00002250000000558000000843232Q8    EMEMI   006400630015
BI00B32Q8    EU2204GTMW     202203237116-5042-02             TERMINAL                 CCN000040500000040500FN00000000020220401000040500NNED0020220314121645    4P0P  00001350000000560300000845532Q8    EMEMI   006400630015
BI00B32Q8    EU2204GTMW     202203237196-1325-02             TERMINAL FEMALE          CCN000060000000060000FN00000000020220401000060000NNED0020220314121645    4P0P  00006000000000450000000778732Q8    EMEMI   006400630017
BI00B32R7    R-TAP220029    202203247289-9553-50             SEALED ASSY FEMALE       CCN000020580000020580FN00000000020220201000020580NNED0020220314141116    4N0N  00000294000001108100001520632R7    IVYCIC  005500360039
BI00B32R7    R-TAP220078    202205267298-1186-40             SQUIB SUB ASS'Y          CCN000200000000100000FN00000000020220301000100000NNED0220220314121645    4N0N  00001000000000650000000774532R7    IVYCIC  005400370024
BI00B32R7    R-TAP220123    202203247116-4025                TERMINAL                 CCN000048000000048000FN00000000020220401000048000NNE   20220314121645    4P0P  00001600000000644800000975132R7    IVYCIC  006400630017
BI00B32R7    R-TAP220078    202205127298-1186-40             SQUIB SUB ASS'Y          CCN000100000000100000FN00000000020220301000100000NNED0220220314121645    4N0N  00001000000000650000000774532R7    IVYCIC  005400370024
BI00B32U5    DI2022         202204297116-4037                TERMINAL                 CCN000048000000048000FN00000000020220701000048000NNM   20220314121645U5  4P0P  00000600000000600000000894232U5    AMAMSD  006400630015
BI00B32U5    DI2022         202204297017-1180-02             TERMINAL                 CCN000144000000144000FN00000000020220701000144000NNM   20220314121645U5  4P0P  00007200000001065600001229032U5    AMAMSD  005100280028
BI00B32U5    DI2022         202204297017-1182-02             TERMINAL                 CCN000045000000045000FN00000000020220701000045000NNM   20220314121645U5  4P0P  00004500000001165500001318632U5    AMAMSD  005100280028
BI00B32U5    DI2022         202204297017-1183-02             TERMINAL                 CCN000027000000027000FN00000000020220701000027000NNM   20220314121645U5  4P0P  00002700000001139400001307432U5    AMAMSD  005100280028
BI00B32U5    DI2022         202204297114-4486-02             TERMINAL                 CCN000024000000024000FN00000000020220701000024000NNM   20220314121645U5  4P0P  00002400000000662400000956032U5    AMAMSD  006400630015
BI00B32U5    DI2022         202204297116-1685-02             TERMINAL                 CCN000048000000048000FN00000000020220701000048000NNM   20220314121645U5  4P0P  00002400000000897600001065232U5    AMAMSD  005100280028
BI00B32U5    DI2022         202204297116-1686-02             TERMINAL                 CCN000021000000021000FN00000000020220701000021000NNM   20220314121645U5  4P0P  00002100000000869400001021632U5    AMAMSD  005100280028
BI00B32U5    DI2022         202204297116-5045-02             TERMINAL                 CCN000224000000224000FN00000000020220701000224000NNM   20220314121645U5  4P0P  00001600000000678400001007132U5    AMAMSD  006400630017
BI00B32U5    DI2022         202204297116-5046-02             TERMINAL                 CCN000108000000108000FN00000000020220701000108000NNM   20220314121645U5  4P0P  00001200000000544800000873532U5    AMAMSD  006400630017
BI00B32U5    DI2022         202204297158-3167-80             WIRE SEAL                CCN000020000000020000FN00000000020220701000020000NNM   20220314121645U5  1C0C  00002000000000048000000109032U5    AMAMSD  002700430014
BI00B32U5    DI2022         202204297196-0549-02             TERMINAL ALUMINIUM       CCN000038000000038000FN00000000020220701000038000NNM   20220314121645U5  4P0P  00003800000000592800000979232U5    AMAMSD  006400630017
BI00B32U5    DI2022         202204297196-1104-02             TERMINAL                 CCN000247500000247500FN00000000020220701000247500NNM   20220314121645U5  4P0P  00002250000000441000000726232U5    AMAMSD  006400630015
BI00B32U5    DI2022         202204297288-3339-30             HOUSING MALE             CCN000003000000003000FN00000000020220701000003000NNM   20220314121645U5  4N0N  00000150000000867000001012032U5    AMAMSD  005400370024
BI00B32U5    DI2022         202204297289-4696-30             HOUSING FEMALE ASS'Y     CCN000004000000004000FN00000000020220701000004000NNM   20220314121645U5  4N0N  00000200000000913400001055432U5    AMAMSD  005400370024
BI00B32U5    DI2022         202204297B96-0805-02             TERMINAL FEMALE          CCN000067500000067500FN00000000020220701000067500NNM   20220314121645U5  4P0P  00002250000000558000000843232U5    AMAMSD  006400630015
BI00B32U5    DI2022         202204297C89-6868-30             SEALED ASSY FEMALE       CCN000010080000010080FN00000000020220701000010080NNM   20220314121645U5  4N0N  00000252000000839200001119232U5    AMAMSD  005500360039
BI00B32U5    #DI2022        202204297158-3017                RUBBER STOPPER           CCN000020000000020000FN00000000020220701000020000NNM   20220314121645U5  2C0C  00001000000000375500000435032U5    AMAMSD  002700430014
BI00B32U5    #DI2022        202204297189-3032                HOUSING FEMALE           CCN000006400000006400FN00000000020220701000006400NNM   20220314121645U5  2F0F  00000160000000788400001018432U5    AMAMSD  005500360039
BI00B32U5    #DI2022        202204297154-5597-30             CASSETTE R/B             CCN000001600000001600FN00000000020220701000001600NNM   20220314121645U5  2F0F  00000080000000736000000952032U5    AMAMSD  005500360039
BI00B32U5    #DI2022        202204297158-3003-90             RUBBER STOPPER           CCN000180000000180000FN00000000020220701000180000NNM   20220314121645U5  2C0C  00002000000000250000000306032U5    AMAMSD  002700430014
BI00B32U5    #DI2022        202204297158-3004-40             RUBBER STOPPER           CCN000040000000040000FN00000000020220701000040000NNM   20220314121645U5  2C0C  00002000000000234000000306332U5    AMAMSD  002700430014
BI00B32U5    #DI2022        202204297158-3005-80             RUBBER STOPPER           CCN000020000000020000FN00000000020220701000020000NNM   20220314121645U5  2H0H  00002000000000210000000268732U5    AMAMSD  002700430014
BI00B32U5    #DI2022        202204297158-3007-10             RUBBER STOPPER           CCN000120000000120000FN00000000020220701000120000NNM   20220314121645U5  2H0H  00002000000000308000000362732U5    AMAMSD  002700430014
BI00B32U5    #DI2022        202204297158-3008-80             RUBBER STOPPER           CCN000100000000100000FN00000000020220701000100000NNM   20220314121645U5  2C0C  00002000000000288000000343032U5    AMAMSD  004300270014
BI00B32U5    #DI2022        202204297158-3376-50             CONNECTOR WIRE SEAL      CCN000020000000020000FN00000000020220701000020000NNM   20220314121645U5  2C0C  00002000000000184000000240732U5    AMAMSD  002700430014
BI00B32U5    #DI2022        202204297172-5627-60             RUBBER STOPPER           CCN000100000000100000FN00000000020220701000100000NNM   20220314121645U5  2H0H  00002000000000070400000121832U5    AMAMSD  004300270014
BI00B32U5    #DI2022        202204297172-5631-60             RUBBER STOPPER           CCN000200000000200000FN00000000020220701000200000NNM   20220314121645U5  2H0H  00002000000000042000000093132U5    AMAMSD  004300270014
BI00B32U5    #DI2022        202204297172-5632-10             DUMMY PLUG               CCN000040000000040000FN00000000020220701000040000NNM   20220314121645U5  2H0H  00002000000000080400000131832U5    AMAMSD  004300270014
BI00B32U5    #DI2022        202204297182-8253-40             HOUSING                  CCN000002400000002400FN00000000020220701000002400NNM   20220314121645U5  2F0F  00000120000000573000000864032U5    AMAMSD  005600390040
BI00B32U5    #DI2022        202204297183-8252-40             HOUSING                  CCN000012000000012000FN00000000020220701000012000NNM   20220314121645U5  2F0F  00000240000000454000000729032U5    AMAMSD  005500360039
BI00B32U5    #DI2022        202204297189-2978-30             HOUSING FEMALE           CCN000001500000001500FN00000000020220701000001500NNM   20220314121645U5  2F0F  00000150000000966900001096932U5    AMAMSD  005400370024
BI00B32U5    #DI2022        202204297289-4200-30             HOUSING FEMALE ASS'Y     CCN000014000000014000FN00000000020220701000014000NNM   20220314121645U5  2N0N  00000200000000926000001021032U5    AMAMSD  005400370024
BI00B32U9    TPA213         202203167158-3169-40             SEALING PLUG             CCN000520000000520000FN00000000020220401000520000NNM00020220314121645U9  1C0C  00004000000000156000000204132U9    YNYNA-E 004300260014
BI00B32U9    TPA213         202203167222-4220-30             CONNECTOR                CCN000003000000003000FN00000000020220401000003000NNM00020220314121645U9  4N0N  00000075000001219000001384032U9    YNYNA-E 005600390040
BI00B32U9    TPA213         202203167298-1186-40             SQUIB SUB ASS'Y          CCN000010000000010000FN00000000020220401000010000NNM00020220314121645U9  4N0N  00001000000000650000000774532U9    YNYNA-E 005400370024
BI00B32U9    TPA214         202203157116-1257-02             TERMINAL                 CCN000024000000024000FN00000000020220401000024000NNM00020220314121645U9  1P0P  00002400000000518400000847132U9    YNYNA-E 006400630017
BI00B32U9    TPA214         202203157158-3169-40             SEALING PLUG             CCN000280000000000000FY00000000020220401000000000NNMQ0020220314111451U9  1C0C  00004000000000156000000204132U9    YNYNA-E 004300260014
BI00A32U9    TPA217         202203157298-1186-70             SQUIB SUB ASS'Y          CCN000010000000010000FN00000000020220401000010000NNMM0020220314121645U9  4N0N  00001000000000650000000774532U9    YNYNA-E 005400370024
BI00A32U9    TPA217         202203157298-1145-4W             SQUIB SUB ASS'Y          CCN000010000000010000FN00000000020220401000010000NNMM0020220314121645U9  4N0N  00001000000000787900000944932U9    YNYNA-E 005400370024
BI00A32U9    TPA218         202203157116-1257-02             TERMINAL                 CCN000024000000024000FN00000000020220501000024000NNMM0020220314163143U9  1P0P  00002400000000518400000847132U9    YNYNA-E 006400630017
BI00A32U9    TPA219         202203157158-3169-40             SEALING PLUG             CCN000120000000120000FN00000000020220501000120000NNMM0020220314121645U9  1C0C  00004000000000156000000204132U9    YNYNA-E 004300260014
BI00B32U9    TPA214         202203167158-3169-40             SEALING PLUG             CCN000120000000280000FN00000000020220401000280000NNM00020220314121645U9  1C0C  00004000000000156000000204132U9    YNYNA-E 004300260014
BI00B32U9    TP0392S        202204077283-3698-30             UNSEALED FEMALE          CCN000001540000001540FN00000000020220501000001540NNE   20220314121645U9  4N0N  00000154000000954800001150832U9    YNYNA-E 005400370024
BI00B32U9    TP0392S        202204077114-4231-02             TERMINAL                 CCN000036000000036000FN00000000020220501000036000NNE   20220314121645U9  4P0P  00001800000000554400000848032U9    YNYNA-E 006400630015
BI00B32U9    TP0392S        202204077283-9458-30             CONNECTOR                CCN000000200000000200FN00000000020220501000000200NNE   20220314121645U9  4N0N  00000020000000792000000984332U9    YNYNA-E 005600390023
BI00B32U9    TP0392S        202204077114-4032                TERMINAL                 CCN000030000000030000FN00000000020220501000030000NNE   20220314121645U9  4P0P  00000750000000735000001063632U9    YNYNA-E 006400630017
BI00B32U9    TP0392S        202204077116-4037                TERMINAL                 CCN000006000000006000FN00000000020220501000006000NNE   20220314121645U9  4P0P  00000600000000600000000894232U9    YNYNA-E 006400630015
BI00B32U9    TP0392S        202204077282-5684-10             CONNECTOR                CCN000002400000002400FN00000000020220501000002400NNE   20220314121645U9  4N0N  00000120000001477000001656032U9    YNYNA-E 005600390040
BI00B32U9    #TP0392S       202204077047-1611-30             CLIP                     CCN000002000000002000FN00000000020220501000002000NNE   20220314121645U9  2F0F  00000200000001600000001739032U9    YNYNA-E 005600390040
BI00B32U9    #TP0392S       202204077157-3646                RUBBER STOPPER           CCN000020000000020000FN00000000020220501000020000NNE   20220314121645U9  2H0H  00002000000000184000000255232U9    YNYNA-E 002700430014
BI00A32W2    HN2203DWMW     202203157116-4415-02             TERMINAL                 CCN000038000000038000FN00000000020220301000038000NNE   20220314121645    4P0P  00003800000000596600000925732W2    HNHNY   006400630017
BI00B32W2    HN2204DWMW     202203297C89-6868-30             SEALED ASSY FEMALE       CCN000002520000002520FN00000000020220401000002520NNED0720220314121645    4N0N  00000252000000839200001119232W2    HNHNY   005500360039
BI00B32W2    HN2204DWMW     202203227116-1685-02             TERMINAL                 CCN000024000000024000FN00000000020220401000024000NNE   20220314121645    4P0P  00002400000000897600001065232W2    HNHNY   005100280028
BI00B32W2    HN2204DWMW     202203227116-4037                TERMINAL                 CCN000012000000012000FN00000000020220401000012000NNE   20220314121645    4P0P  00000600000000600000000894232W2    HNHNY   006400630015
BI00B32W2    HN2204DWMW     202203227116-6041                TERMINAL                 CCN000027000000027000FN00000000020220401000027000NNE   20220314121645    4P0P  00000450000000716000001009632W2    HNHNY   006400630015
BI00B32W2    HN2204DWMW     202203227126-8853-02             TERMINAL                 CCN000037500000037500FN00000000020220401000037500NNE   20220314121645    4P0P  00000750000000562500000847732W2    HNHNY   006400630015
BI00B32W2    HN2204DWMW     202203297298-1853-10             HOUSING FEMALE ASS'Y     CCN000003900000003900FN00000000020220401000003900NNED0720220314121645    4N00  00000390000001240500001405832W2    HNHNY   005400370024
BI00B32W2    HN2204DWMW     202203297327-6832-60             MAIN FUSE                CCN000001200000001200FN00000000020220401000001200NNED0720220314121645    4N0N  00000060000000729200000930732W2    HNHNY   005400370024
BI00B32W2    HN2204DWMW     202203297327-6870-30             MULTI FUSE               CCN000001152000001152FN00000000020220401000001152NNED0720220314121645    4N0N  00000028800001015200001181132W2    HNHNY   005400370024
BI00B32W2    HN2204DWMW     202203297327-6880-30             MULTI FUSE               CCN000001440000001440FN00000000020220401000001440NNED0720220314121645    4N0N  00000028800001012600001178532W2    HNHNY   005400370024
BI00B32W2    HN2204DWMW     202203297327-6884-30             MULTI FUSE               CCN000002880000002880FN00000000020220401000002880NNED0720220314121645    4N0N  00000028800000988900001154832W2    HNHNY   005400370024
BI00B32W2    HN2204DWMW     202203297388-0313-30             CONNECTOR ASS'Y          CCN000001200000001200FN00000000020220401000001200NNED0720220314121645    4N0N  00000120000000995000001125032W2    HNHNY   005400370024
BI00B32W2    #HN2204DWMW    202203297198-1371-60             HOUSING FEMALE           CCN000002000000002000FN00000000020220401000002000NNED0720220314121645    2F0F  00000200000000597800000721232W2    HNHNY   005400370024
BI00B32W2    #HN2204DWMW    202203297198-1372                HOUSING FEMALE           CCN000002000000002000FN00000000020220401000002000NNED0720220314121645    2F0F  00000200000000857200000982232W2    HNHNY   005400370024
BI00B32W2    #HN2204DWMW    202203297198-1373-60             HOUSING FEMALE           CCN000002000000002000FN00000000020220401000002000NNED0720220314121645    2F0F  00000200000000819400000947432W2    HNHNY   005400370024
BI00B32W2    #HN2204DWMW    202203297198-2458                HOUSING FEMALE           CCN000001760000001760FN00000000020220401000001760NNED0720220314121645    2F0F  00000176000000869100001160532W2    HNHNY   005400370024
BI00B32W2    #HN2204DWMW    202203297298-2459-60             LIF FEMALE ASSEMBLY      CCN000001344000001344FN00000000020220401000001344NNED0720220314121645    2N0N  00000016800000534000000729632W2    HNHNY   005400370024
BI00B32W4    4500182472     202203107158-3168-80             SEALED                   CCN001040000001040000FY00104000020220201000000000NNED0020220314160529W4561C0C  00002000000000044000000092132W456  HJYHK   004300260014
BI00B32W4    4500185149     202203157327-6424-4W             BATTERY FUSE             CCN000000864000000864FN00000000020220101000000864NNE00020220314164808W4D44N0N  00000009600001109500001259632W4D4  HJYHK-J 005400370024
BI00B32W4    4500187465     202203117158-3166-60             WIRE SEAL                CCN001000000001000000FY00100000020220301000000000NNE00020220314161632W4B71C0C  00004000000000104000000152432W4B7  HJYHK-J 002700430014
BI00B32W4    4500187465     202203117158-3169-40             SEALING PLUG             CCN001000000001000000FY00100000020220301000000000NNED0020220314161632W4B71C0C  00004000000000156000000204132W4B7  HJYHK-J 004300260014
BI00B32W4    4500187465     202203117158-3168-80             SEALED                   CCN001000000001000000FY00100000020220301000000000NNED0020220314161632W4B71C0C  00002000000000044000000092132W4B7  HJYHK-J 004300260014
BI00A32W4    4500187572     202203157116-4100-02             TERMINAL                 CCN000015000000015000FN00000000020220301000015000NNED0020220314133434W4194P0P  00001500000000696000000990232W419  HJYHK   006400630015
BI00A32W4    4500187572     202203157116-4026                TERMINAL                 CCN000016000000016000FN00000000020220301000016000NNED0020220314133434W4194P0P  00001600000000664000000994332W419  HJYHK   006400630017
BI00A32W4    4500187572     202203157114-4111-02             TERMINAL                 CCN000012000000012000FN00000000020220301000012000NNED0020220314133434W4194P0P  00001200000000758400001087032W419  HJYHK   006400630017
BI00A32W4    4500187790     202203147158-3166-60             WIRE SEAL                CCN000040000000040000FY00004000020220301000000000NNE00020220314160227W4141C0C  00004000000000104000000152432W414  HJYHK   002700430014
BI00A32W4    4500188810     202203157116-1685-02             TERMINAL                 CCN000192000000192000FN00000000020220301000192000NNEM0020220314163103W4D44P0P  00002400000000897600001065232W4D4  HJYHK-J 005100280028
BI00B32W4    4500189090     202203117158-3169-40             SEALING PLUG             CCN000280000000280000FY00028000020220301000000000NNED0020220314161655W4B71C0C  00004000000000156000000204132W4B7  HJYHK-J 004300260014
BI00A32W4    4500189564     202203157116-1685-02             TERMINAL                 CCN000312000000312000FN00000000020220401000312000NNEM0020220314164252W4D44P0P  00002400000000897600001065232W4D4  HJYHK-J 005100280028
BI00A32W4    4500189564     202203157172-5540-80             SEALED WIRE SEAL         CCN000040000000040000FN00000000020220401000040000NNEM0020220314163007W4D41C0C  00002000000000186000000234432W4D4  HJYHK-J 004300270014
BI00B32W4    4500190751     202206167283-1020                CONNECTOR                CCN000246000000120000FN00000000020220301000120000NNED0220220314121645W4514N0N  00000600000000840000001049332W451  HJ32W9  005600390040
BI00B32W4    4500190751     202206237283-1020                CONNECTOR                CCN000126000000126000FN00000000020220301000126000NNED0420220314121645W4514N0N  00000600000000840000001049332W451  HJ32W9  005600390040
BI00B32W4    4500190781     202205057196-0805-02             TERMINAL FEMALE          CCN000022500000022500FN00000000020220501000022500NNE   20220314140938W4D44P0P  00002250000000558000000843232W4D4  HJYHK-J 006400630015
BI00B32W4    4500190781     202205057388-2978-30             HOUSING MALE ASS'Y       CCN000002880000002880FN00000000020220501000002880NNE   20220314140938W4D41N0N  00000048000000742000001122032W4D4  HJYHK-J 005500360039
BI00B32W4    4500190781     202205057282-8120-40             CONNECTOR HOUSING        CCN000003000000003000FN00000000020220501000003000NNE   20220314140938W4D41N0N  00000300000001356000001520032W4D4  HJYHK-J 005500360039
BI00B32W4    4500190781     202205057289-6868-30             SEALED ASSY FEMALE       CCN000012600000012600FN00000000020220501000012600NNE   20220314140938W4D44N0N  00000252000000839200001119232W4D4  HJYHK-J 005500360039
BI00A32W4    4500190793     202203287298-2507-30             HOUSING FEMALE ASS'Y     CCN000001200000001200FN00000000020220301000001200NNED0720220314141034W4284N0N  00000120000000713200000914532W428  HJYHK   005500360039
BI00B32W4    4500190795     202204287116-2951-02             TERMINAL                 CCN000091800000091800FN00000000020220401000091800NNE   20220314141130W4L84P0P  00000540000000817600001111832W4L8  HJYHK-J 006400630015
BI00B32W4    #4500190795    202204287283-8398-40             CONNECTOR                CCN000024640000024640FN00000000020220401000024640NNE   20220314141135W4L82N0N  00000154000001007000001171332W4L8  HJYHK-J 005600390023
BI00B32W4    4500190807     202205037288-9556-30             SEALED ASSY MALE         CCN000025200000025200FN00000000020220501000025200NNE   20220314141606W4O74N0N  00000072000000537900000786332W4O7  H YHK-J 005500360039
BI00B32W4    #4500190812    202205057183-2418                CONNECTOR HOUSING        CCN000004800000004800FN00000000020220501000004800NNE   20220314141823W48 2F0F  00000480000000917000001477032W48   HJYHK   005500360039
BI00B32W4    4500190813     202205267116-4022                TERMINAL                 CCN000013500000013500FN00000000020220501000013500NNE   20220314141938W48 4P0P  00001350000000618300000903532W48   HJYHK   006400630015
BI00B32W4    #4500190840    202203247282-4190-30             CONNECTOR                CCN000000960000000960FN00000000020220301000000960NNE   20220314142223W4P72N0N  00000024000000801000001071332W4P7  HJYHK   005600390040
BI00B32W4    #4500190840    202203247283-4190-30             CONNECTOR                CCN000000720000000720FN00000000020220301000000720NNE   20220314142223W4P72N0N  00000024000000846000001115532W4P7  HJYHK   005600390040
BI00B32W4    #4500190843    202203247282-4190-30             CONNECTOR                CCN000000720000000720FN00000000020220301000000720NNE   20220314142259W4P72N0N  00000024000000801000001071332W4P7  HJYHK   005600390040
BI00B32W4    #4500190843    202203247283-4190-30             CONNECTOR                CCN000000720000000720FN00000000020220301000000720NNE   20220314142259W4P72N0N  00000024000000846000001115532W4P7  HJYHK   005600390040
BI00B32W4    #4500190848    202204077282-4190-30             CONNECTOR                CCN000000720000000720FN00000000020220401000000720NNE   20220314142330W4P72N0N  00000024000000801000001071332W4P7  HJYHK   005600390040
BI00B32W4    #4500190848    202204077283-4190-30             CONNECTOR                CCN000000720000000720FN00000000020220401000000720NNE   20220314142330W4P72N0N  00000024000000846000001115532W4P7  HJYHK   005600390040
BI00B32W4    4500190852     202204077116-4100-02             TERMINAL                 CCN000060000000060000FN00000000020220401000060000NNE   20220314142542W4P74P0P  00001500000000696000000990232W4P7  HJYHK   006400630015
BI00B32W4    4500190852     202204077116-4111-02             TERMINAL                 CCN000015000000015000FN00000000020220401000015000NNE   20220314142542W4P74P0P  00000750000000529500000817732W4P7  HJYHK   006400630015
BI00B32W4    #4500190852    202204077282-4190-30             CONNECTOR                CCN000001200000001200FN00000000020220401000001200NNE   20220314142540W4P72N0N  00000024000000801000001071332W4P7  HJYHK   005600390040
BI00B32W4    #4500190852    202204077283-4190-30             CONNECTOR                CCN000000960000000960FN00000000020220401000000960NNE   20220314142540W4P72N0N  00000024000000846000001115532W4P7  HJYHK   005600390040
BI00B32W4    4500190856     202204217116-4122-02             TERMINAL                 CCN000004500000004500FN00000000020220401000004500NNE   20220314142627W4P74P0P  00000450000000656600000950232W4P7  HJYHK   006400630015
BI00B32W4    4500190856     202204217116-4100-02             TERMINAL                 CCN000060000000060000FN00000000020220401000060000NNE   20220314142627W4P74P0P  00001500000000696000000990232W4P7  HJYHK   006400630015
BI00B32W4    4500190856     202204217116-4111-02             TERMINAL                 CCN000007500000007500FN00000000020220401000007500NNE   20220314142627W4P74P0P  00000750000000529500000817732W4P7  HJYHK   006400630015
BI00B32W4    4500190856     202204217116-4112-02             TERMINAL                 CCN000012000000012000FN00000000020220401000012000NNE   20220314142627W4P74P0P  00000600000000450000000738232W4P7  HJYHK   006400630015
BI00B32W4    #4500190856    202204217282-4190-30             CONNECTOR                CCN000000960000000960FN00000000020220401000000960NNE   20220314142624W4P72N0N  00000024000000801000001071332W4P7  HJYHK   005600390040
BI00B32W4    #4500190856    202204217283-4190-30             CONNECTOR                CCN000000960000000960FN00000000020220401000000960NNE   20220314142624W4P72N0N  00000024000000846000001115532W4P7  HJYHK   005600390040
BI00B32W4    4500190862     202204217116-4122-02             TERMINAL                 CCN000004500000004500FN00000000020220401000004500NNE   20220314142704W4P74P0P  00000450000000656600000950232W4P7  HJYHK   006400630015
BI00B32W4    4500190862     202204217116-4100-02             TERMINAL                 CCN000090000000090000FN00000000020220401000090000NNE   20220314142704W4P74P0P  00001500000000696000000990232W4P7  HJYHK   006400630015
BI00B32W4    4500190862     202204217116-4112-02             TERMINAL                 CCN000012000000012000FN00000000020220401000012000NNE   20220314142704W4P74P0P  00000600000000450000000738232W4P7  HJYHK   006400630015
BI00B32W4    #4500190862    202204217282-4190-30             CONNECTOR                CCN000000480000000480FN00000000020220401000000480NNE   20220314142706W4P72N0N  00000024000000801000001071332W4P7  HJYHK   005600390040
BI00B32W4    #4500190862    202204217283-4190-30             CONNECTOR                CCN000000480000000480FN00000000020220401000000480NNE   20220314142706W4P72N0N  00000024000000846000001115532W4P7  HJYHK   005600390040
BI00B32W6    SW22041QMW     202203117327-6884-30             MULTI FUSE               CCN000002304000002304FY00000230420220401000000000NNMD0020220314160437    4N0N  00000028800000988900001154832W6    SYSYA-WJ005400370024
BI00B32W6    SW22042QMW     202203117327-6884-30             MULTI FUSE               CCN000003168000003168FY00000316820220401000000000NNMD0020220314160502    4N0N  00000028800000988900001154832W6    SYSYA-WJ005400370024
BI00A32W9    4500190741     202203157298-5993-30             SEALED ASSY FEMALE       CCN000002184000002184FN00000000020220301000002184NNED0020220314121645W9  4N0N  00000218400000981500001290032W9    HKYHK   005500360039
BI00A32W9    4500190741     202203157298-7215-10             SEALED ASSY FEMALE       CCN000002184000002184FN00000000020220301000002184NNED0020220314121645W9  4N0N  00000218400000983000001291532W9    HKYHK   005500360039
BI00B32W9    4500190829     202205177283-1030                CONNECTOR                CCN000144000000144000FN00000000020220501000144000NNE   20220314142035W9  4N0N  00000600000000988000001172032W9    HKYHK   005500360039
BI00B32W9    4500190829     202205177283-1030-30             CONNECTOR                CCN000012000000012000FN00000000020220501000012000NNE   20220314142035W9  4N0N  00000600000000988000001221032W9    HKYHK   005500360039
BI00B32W9    #4500190829    202205177282-1030                CONNECTOR MALE ASS'Y     CCN000046000000046000FN00000000020220501000046000NNE   20220314142037W9  2N0N  00000100000000365000000487532W9    HKYHK   005400370024
BI00B32W9    #4500190829    202205177158-3003-90             RUBBER STOPPER           CCN000020000000020000FN00000000020220501000020000NNE   20220314142037W9  2C0C  00002000000000250000000306032W9    HKYHK   002700430014
BI00B32W9    4500190830     202204267283-1020                CONNECTOR                CCN000006000000006000FN00000000020220401000006000NNE   20220314142116W9  4N0N  00000600000000840000001049332W9    HKYHK   005600390040
BI00B32W9    #4500190830    202204267186-8845                HOUSING MALE             CCN000015000000015000FN00000000020220401000015000NNE   20220314142121W9  2F0F  00000300000000690000000801532W9    HKYHK   005400370024
BI00B32W9    4500190850     202203297283-4577                CONNECTOR HOUSING        CCN000052800000052800FN00000000020220301000052800NNED0720220314142454W9  4N0N  00000480000000916800001136832W9    HKYHK   005500360039
BI00B32W9    4500190850     202203297283-4854                CONNECTOR HOUSING        CCN000050400000050400FN00000000020220301000050400NNED0720220314142454W9  4N0N  00000240000000694100000914132W9    HKYHK   005500360039
BI00B32X5    TIB1046        202202157289-3342-30             HOUSING FEMALE ASS'Y     CCN000072000000072000FY00007200020220101000000000NNM00020220314140711X5  1N0N  00000240000000686400000901432X5    EPYNA-E 005500360039
BI00B32X5    TIB2021        202204227289-6547                HOUSING FEMALE ASS'Y     CCN000014400000002400FN00000000020220701000002400NNMQ0020220314121645X5  1N0N  00000240000001152000001362032X5    EPYNA-E 005500360039
BI00A32X5    TIB2021        202203147289-6547                HOUSING FEMALE ASS'Y     CCN000012000000012000FY00001200020220701000000000NNMM0020220314155222X5  1N0N  00000240000001152000001362032X5    EPYNA-E 005500360039
BI00B32X5    TIB2022        202204297017-1180-02             TERMINAL                 CCN000360000000360000FN00000000020220701000360000NNM   20220314121645X5  4P0P  00007200000001065600001229032X5    EPYNA-E 005100280028
BI00B32X5    TIB2022        202204297017-1181-02             TERMINAL                 CCN000063000000063000FN00000000020220701000063000NNM   20220314121645X5  4P0P  00006300000001089900001266832X5    EPYNA-E 005100280028
BI00B32X5    TIB2022        202204297114-4486-02             TERMINAL                 CCN000072000000072000FN00000000020220701000072000NNM   20220314121645X5  4P0P  00002400000000662400000956032X5    EPYNA-E 006400630015
BI00B32X5    TIB2022        202204297116-1685-02             TERMINAL                 CCN000072000000072000FN00000000020220701000072000NNM   20220314121645X5  4P0P  00002400000000897600001065232X5    EPYNA-E 005100280028
BI00B32X5    TIB2022        202204297116-4486-02             TERMINAL                 CCN000028000000028000FN00000000020220701000028000NNM   20220314121645X5  4P0P  00002800000000666400000995132X5    EPYNA-E 006400630017
BI00B32X5    TIB2022        202204297196-1325-02             TERMINAL FEMALE          CCN000120000000120000FN00000000020220701000120000NNM   20220314121645X5  4P0P  00006000000000450000000778732X5    EPYNA-E 006400630017
BI00B32X5    TIB2022        202204297282-5574-10             CONNECTOR                CCN000009600000009600FN00000000020220701000009600NNM   20220314121645X5  4N0N  00000080000001235000001423032X5    EPYNA-E 005600390040
BI00B32X5    TIB2022        202204297296-0784-02             TERMINAL ALUMINIUM       CCN000096000000096000FN00000000020220701000096000NNM   20220314121645X5  4P0P  00002400000000480000000765232X5    EPYNA-E 006400630015
BI00B32X5    TIB2022        202204297388-2978-30             HOUSING MALE ASS'Y       CCN000000480000000480FN00000000020220701000000480NNM   20220314121645X5  1N0N  00000048000000742000001122032X5    EPYNA-E 005500360039
BI00B32X5    #TIB2022       202204297287-7859                HYBRID FEMALE ASS'Y      CCN000014400000014400FN00000000020220701000014400NNM   20220314121645X5  2N0N  00000120000000461600000671632X5    EPYNA-E 005500360039
BI00B32X5    #TIB2022       202204297154-3424-30             REAR HOLDER              CCN000006000000006000FN00000000020220701000006000NNM   20220314121645X5  2F0F  00000300000000975000001138632X5    EPYNA-E 005500360039
BI00B32X5    #TIB2022       202204297158-3376-50             CONNECTOR WIRE SEAL      CCN000020000000020000FN00000000020220701000020000NNM   20220314121645X5  2C0C  00002000000000184000000240732X5    EPYNA-E 002700430014
BI00B32X5    #TIB2022       202204297172-5626-90             RUBBER STOPPER           CCN000020000000020000FN00000000020220701000020000NNM   20220314121645X5  2H0H  00002000000000076400000127832X5    EPYNA-E 004300270014
BI00B32X5    #TIB2022       202204297172-5632-10             DUMMY PLUG               CCN000060000000060000FN00000000020220701000060000NNM   20220314121645X5  2H0H  00002000000000080400000131832X5    EPYNA-E 004300270014
BI00B32X5    #TIB2022       202204297183-8253-40             HOUSING                  CCN000004800000004800FN00000000020220701000004800NNM   20220314121645X5  2F0F  00000240000000528000000805032X5    EPYNA-E 005500360039
BI00B32X5    #TIB2022       202204297282-8395-40             CONNECTOR                CCN000002000000002000FN00000000020220701000002000NNM   20220314121645X5  2N0N  00000100000001009000001188032X5    EPYNA-E 005500360039
BI00B32X5    #TIB2022       202204297283-8397-40             CONNECTOR                CCN000004620000004620FN00000000020220701000004620NNM   20220314121645X5  2N0N  00000154000001007000001222732X5    EPYNA-E 005600390023
BI00B32Y2    TAU1171        202203107289-3342-30             HOUSING FEMALE ASS'Y     CCN000019200000024000FY00002400020220601000000000NNM00020220314160637    1N0N  00000240000000686400000901432Y2    YUYUY   005500360039
