BI00B32AG    @XG22054LMW    20220422181E48022ZZ              CAVSAS-S 0.5X2 GY        CCN000000300000000000FY00000000020220501000000000NNM10 20220314094754    1W    00000030000002561000000000032AG    XGXGY   000000000000XY124001
BI00B32AG    @XG22055LMW    20220429181E48022ZZ              CAVSAS-S 0.5X2 GY        CCN000000300000000000FY00000000020220501000000000NNM10 20220314094812    1W    00000030000002561000000000032AG    XGXGY   000000000000XY224001
BI00B32B6    W72021         202204221801W003930              IVSSH 0.5F B             CCN000007200000007200FN00000000020220701000007200NNM   20220314095619B6  1W    00000180000000625000000000032B6    AXARNE-M000000000000AW124002
BI00B32B6    W72021         202204221801W003940              IVSSH 0.5F W             CCN000018000000018000FN00000000020220701000018000NNM   20220314095619B6  1W    00000180000000625000000000032B6    AXARNE-M000000000000AW124009
BI00B32B6    W72021         202204221801W003941              IVSSH 0.5F GY            CCN000012600000012600FN00000000020220701000012600NNM   20220314095619B6  1W    00000180000000625000000000032B6    AXARNE-M000000000000AW124006
BI00B32B6    W72021         202204221801W003950              IVSSH 0.5F R             CCN000009000000009000FN00000000020220701000009000NNM   20220314095619B6  1W    00000180000000625000000000032B6    AXARNE-M000000000000AW124007
BI00B32B6    W72021         202204221801W00395U              IVSSH 0.5F BE            CCN000003600000003600FN00000000020220701000003600NNM   20220314095619B6  1W    00000180000000625000000000032B6    AXARNE-M000000000000AW124003
BI00B32B6    W72021         202204221801W003960              IVSSH 0.5F G             CCN000003600000003600FN00000000020220701000003600NNM   20220314095619B6  1W    00000180000000625000000000032B6    AXARNE-M000000000000AW124005
BI00B32B6    W72021         202204221801W003980              IVSSH 0.5F BR            CCN000007200000007200FN00000000020220701000007200NNM   20220314095619B6  1W    00000180000000625000000000032B6    AXARNE-M000000000000AW124004
BI00B32B6    W72021         202204221801W003992              IVSSH 0.5F V             CCN000005400000005400FN00000000020220701000005400NNM   20220314095619B6  1W    00000180000000625000000000032B6    AXARNE-M000000000000AW124008
BI00B32B6    W72021         202204221801W004030              IVSSH 0.75F B            CCN000001300000001300FN00000000020220701000001300NNM   20220314095619B6  1W    00000130000000882000000000032B6    AXARNE-M000000000000AW124010
BI00B32B6    W72021         202204221801W004060              IVSSH 0.75F G            CCN000002600000002600FN00000000020220701000002600NNM   20220314095619B6  1W    00000130000000882000000000032B6    AXARNE-M000000000000AW124011
BI00B32B6    W72021         202204221801W004061              IVSSH 0.75F LG           CCN000001300000001300FN00000000020220701000001300NNM   20220314095619B6  1W    00000130000000882000000000032B6    AXARNE-M000000000000AW124012
BI00B32B6    @W72021        20220422181B09039H7              CAVSAS 0.5X1 GY/W        CCN000004800000004800FN00000000020220701000004800NNM   20220314095618B6  1W    00000040000002263300000000032B6    AXARNE-M000000000000AW124001
BI00A32D9    C222A          202203161801W006960              IVSSH 0.35F G            CCN000030000000030000FN00000000020220301000030000NNE   20220314164242    1W    00000250000000452000000000032D9    UEHESTO 000000000000HU123009
BI00A32D9    C222A          20220316180D0203761              AVSSH 0.3F LG            CCN000002000000002000FN00000000020220301000002000NNE   20220314164242    1W    00000200000000515000000000032D9    UEHESTO 000000000000HU123008
BI00B32G7    @JW2205A MW    20220421181AD2008ZZ              CIVUSAS-S 0.5X2 B        CCN000001600000001600FN00000000020220501000001600NNE   20220314094550    1W    00000040000002028000000000032G7    JIJAI   000000000000JB124001
BI00B32G7    JW2205AMMW     202204211801W003940              IVSSH 0.5F W             CCN000001800000001800FN00000000020220501000001800NNE   20220314094552    1W    00000180000000625000000000032G7    JIJAI   000000000000JC124001
BI00B32G7    JW2205AMMW     202204211801W006940              IVSSH 0.35F W            CCN000002500000002500FN00000000020220501000002500NNE   20220314094552    1W    00000250000000452000000000032G7    JIJAI   000000000000JC124003
BI00B32G7    JW2205AMMW     202204211801W006990              IVSSH 0.35F L            CCN000030000000030000FN00000000020220501000030000NNE   20220314094552    1W    00000250000000452000000000032G7    JIJAI   000000000000JC124002
BI00B32H0    @TT2205BVMW    20220405181E50002ZZ              AVSSCS-S 0.3FX2 DGY/G    CCN000000700000000700FN00000000020220501000000700NNE   20220314135428    1W    00000035000002165000000000032H0    TTTJY   000000000000NO423002
BI00B32H0    @TT2205BVMW    20220405181E50036ZZ              AVSSCS-S 0.3FX2 DGY      CCN000000700000000700FN00000000020220501000000700NNE   20220314135428    1W    00000035000002165000000000032H0    TTTJY   000000000000NO423001
BI00B32H8    2204B MW       2022040118007703937              AVSS 0.5F B/Y            CCN000003000000003000FN00000000020220401000003000NNE   20220314082235    1W    00000150000000674000000000032H8    TYTYC   000000000000LG323001
BI00B32H8    2204B MW       2022040118007704037              AVSS 0.75F B/Y           CCN000005000000005000FN00000000020220401000005000NNE   20220314082235    1W    00000100000000943000000000032H8    TYTYC   000000000000LG323002
BI00B32H8    2204B MW       2022040118007704060              AVSS 0.75F G             CCN000001000000001000FN00000000020220401000001000NNE   20220314082235    1W    00000100000000943000000000032H8    TYTYC   000000000000LG323003
BI00B32H8    2204B MW       2022040118007704063              AVSS 0.75F G/B           CCN000004000000004000FN00000000020220401000004000NNE   20220314082235    1W    00000100000000943000000000032H8    TYTYC   000000000000LG323004
BI00B32M3    SM2204A MW     2022040718007703950              AVSS 0.5F R              CCN000001500000001500FN00000000020220401000001500NNE   20220314135432    1W    00000150000000674000000000032M3    SASAMI  000000000000QK423003
BI00B32M3    SM2204A MW     20220407180D0203930              AVSSH 0.5F B             CCN000001500000001500FN00000000020220401000001500NNE   20220314135432    1W    00000150000000689000000000032M3    SASAMI  000000000000QK423002
BI00B32N3    NBT205 2       2022040718007703730              AVSS 0.3F B              CCN000036000000036000FN00000000020220301000036000NNM   20220314140231    1W    00000200000000496000000000032N3    ABYIPL-B000000000000XB423037
BI00B32N3    NBT205 3       2022042118007703730              AVSS 0.3F B              CCN000034000000034000FN00000000020220301000034000NNM   20220314140231    1W    00000200000000496000000000032N3    ABYIPL-B000000000000XB124039
BI00B32N3    NBT205 4       2022042818007703730              AVSS 0.3F B              CCN000036000000036000FN00000000020220301000036000NNM   20220314140231    1W    00000200000000496000000000032N3    ABYIPL-B000000000000XB224034
BI00B32N3    NBT205 2       2022040718007703750              AVSS 0.3F R              CCN000016000000016000FN00000000020220301000016000NNM   20220314140231    1W    00000200000000496000000000032N3    ABYIPL-B000000000000XB423038
BI00B32N3    NBT205 3       2022042118007703750              AVSS 0.3F R              CCN000014000000014000FN00000000020220301000014000NNM   20220314140231    1W    00000200000000496000000000032N3    ABYIPL-B000000000000XB124040
BI00B32N3    NBT205 4       2022042818007703750              AVSS 0.3F R              CCN000016000000016000FN00000000020220301000016000NNM   20220314140231    1W    00000200000000496000000000032N3    ABYIPL-B000000000000XB224035
BI00B32N3    NBT205 1       2022033118007703770              AVSS 0.3F Y              CCN000006000000006000FN00000000020220301000006000NNM   20220314140231    1W    00000200000000496000000000032N3    ABYIPL-B000000000000XB323034
BI00B32N3    NBT205 2       2022040718007703770              AVSS 0.3F Y              CCN000018000000018000FN00000000020220301000018000NNM   20220314140231    1W    00000200000000496000000000032N3    ABYIPL-B000000000000XB423039
BI00B32N3    NBT205 3       2022042118007703770              AVSS 0.3F Y              CCN000016000000016000FN00000000020220301000016000NNM   20220314140231    1W    00000200000000496000000000032N3    ABYIPL-B000000000000XB124041
BI00B32N3    NBT205 4       2022042818007703770              AVSS 0.3F Y              CCN000018000000018000FN00000000020220301000018000NNM   20220314140231    1W    00000200000000496000000000032N3    ABYIPL-B000000000000XB224036
BI00B32N3    NBT205 3       2022042118007704143              AVSS 1.25F W/B           CCN000002400000002400FN00000000020220301000002400NNM   20220314140231    1W    00000080000001389000000000032N3    ABYIPL-B000000000000XB124043
BI00B32N3    NBT205 4       2022042818007704143              AVSS 1.25F W/B           CCN000000800000000800FN00000000020220301000000800NNM   20220314140231    1W    00000080000001389000000000032N3    ABYIPL-B000000000000XB224037
BI00B32N3    NBT205 2       2022040718007704160              AVSS 1.25F G             CCN000001600000001600FN00000000020220301000001600NNM   20220314140231    1W    00000080000001389000000000032N3    ABYIPL-B000000000000XB423040
BI00B32N3    NBT205 3       2022042118007704160              AVSS 1.25F G             CCN000000800000000800FN00000000020220301000000800NNM   20220314140231    1W    00000080000001389000000000032N3    ABYIPL-B000000000000XB124042
BI00B32N3    NBT205 1       20220331180D0203740              AVSSH 0.3F W             CCN000002000000002000FN00000000020220301000002000NNM   20220314140231    1W    00000200000000515000000000032N3    ABYIPL-B000000000000XB323023
BI00B32N3    NBT205 2       20220407180D0203740              AVSSH 0.3F W             CCN000002000000002000FN00000000020220301000002000NNM   20220314140231    1W    00000200000000515000000000032N3    ABYIPL-B000000000000XB423025
BI00B32N3    NBT205 3       20220421180D0203740              AVSSH 0.3F W             CCN000002000000002000FN00000000020220301000002000NNM   20220314140231    1W    00000200000000515000000000032N3    ABYIPL-B000000000000XB124026
BI00B32N3    NBT205 1       20220331180D0203752              AVSSH 0.3F P             CCN000002000000002000FN00000000020220301000002000NNM   20220314140231    1W    00000200000000515000000000032N3    ABYIPL-B000000000000XB323022
BI00B32N3    NBT205 2       20220407180D0203752              AVSSH 0.3F P             CCN000002000000002000FN00000000020220301000002000NNM   20220314140231    1W    00000200000000515000000000032N3    ABYIPL-B000000000000XB423024
BI00B32N3    NBT205 3       20220421180D0203752              AVSSH 0.3F P             CCN000002000000002000FN00000000020220301000002000NNM   20220314140231    1W    00000200000000515000000000032N3    ABYIPL-B000000000000XB124025
BI00B32N3    NBT205 1       20220331180D0203761              AVSSH 0.3F LG            CCN000008000000008000FN00000000020220301000008000NNM   20220314140231    1W    00000200000000515000000000032N3    ABYIPL-B000000000000XB323021
BI00B32N3    NBT205 2       20220407180D0203761              AVSSH 0.3F LG            CCN000008000000008000FN00000000020220301000008000NNM   20220314140231    1W    00000200000000515000000000032N3    ABYIPL-B000000000000XB423023
BI00B32N3    NBT205 3       20220421180D0203761              AVSSH 0.3F LG            CCN000008000000008000FN00000000020220301000008000NNM   20220314140231    1W    00000200000000515000000000032N3    ABYIPL-B000000000000XB124024
BI00B32N3    NBT205 4       20220428180D0203761              AVSSH 0.3F LG            CCN000006000000006000FN00000000020220301000006000NNM   20220314140231    1W    00000200000000515000000000032N3    ABYIPL-B000000000000XB224023
BI00B32N3    NBT205 1       20220331180D0203790              AVSSH 0.3F L             CCN000002000000002000FN00000000020220301000002000NNM   20220314140231    1W    00000200000000515000000000032N3    ABYIPL-B000000000000XB323020
BI00B32N3    NBT205 2       20220407180D0203790              AVSSH 0.3F L             CCN000002000000002000FN00000000020220301000002000NNM   20220314140231    1W    00000200000000515000000000032N3    ABYIPL-B000000000000XB423022
BI00B32N3    NBT205 3       20220421180D0203790              AVSSH 0.3F L             CCN000002000000002000FN00000000020220301000002000NNM   20220314140231    1W    00000200000000515000000000032N3    ABYIPL-B000000000000XB124023
BI00B32N3    NBT205 4       20220428180D0203790              AVSSH 0.3F L             CCN000002000000002000FN00000000020220301000002000NNM   20220314140231    1W    00000200000000515000000000032N3    ABYIPL-B000000000000XB224022
BI00B32N3    NBT205 1       20220331180D0203917              AVSSH 0.5F LG/B          CCN000001500000001500FN00000000020220301000001500NNM   20220314140231    1W    00000150000000689000000000032N3    ABYIPL-B000000000000XB323027
BI00B32N3    NBT205 1       20220331180D0203930              AVSSH 0.5F B             CCN000009000000009000FN00000000020220301000009000NNM   20220314140231    1W    00000150000000689000000000032N3    ABYIPL-B000000000000XB323024
BI00B32N3    NBT205 2       20220407180D0203930              AVSSH 0.5F B             CCN000009000000009000FN00000000020220301000009000NNM   20220314140231    1W    00000150000000689000000000032N3    ABYIPL-B000000000000XB423026
BI00B32N3    NBT205 3       20220421180D0203930              AVSSH 0.5F B             CCN000009000000009000FN00000000020220301000009000NNM   20220314140231    1W    00000150000000689000000000032N3    ABYIPL-B000000000000XB124027
BI00B32N3    NBT205 4       20220428180D0203930              AVSSH 0.5F B             CCN000007500000007500FN00000000020220301000007500NNM   20220314140231    1W    00000150000000689000000000032N3    ABYIPL-B000000000000XB224024
BI00B32N3    NBT205 1       20220331180D0203940              AVSSH 0.5F W             CCN000004500000004500FN00000000020220301000004500NNM   20220314140231    1W    00000150000000689000000000032N3    ABYIPL-B000000000000XB323030
BI00B32N3    NBT205 2       20220407180D0203940              AVSSH 0.5F W             CCN000004500000004500FN00000000020220301000004500NNM   20220314140231    1W    00000150000000689000000000032N3    ABYIPL-B000000000000XB423032
BI00B32N3    NBT205 3       20220421180D0203940              AVSSH 0.5F W             CCN000006000000006000FN00000000020220301000006000NNM   20220314140231    1W    00000150000000689000000000032N3    ABYIPL-B000000000000XB124034
BI00B32N3    NBT205 4       20220428180D0203940              AVSSH 0.5F W             CCN000003000000003000FN00000000020220301000003000NNM   20220314140231    1W    00000150000000689000000000032N3    ABYIPL-B000000000000XB224031
BI00B32N3    NBT205 4       20220428180D0203941              AVSSH 0.5F GY            CCN000001500000001500FN00000000020220301000001500NNM   20220314140231    1W    00000150000000689000000000032N3    ABYIPL-B000000000000XB224027
BI00B32N3    NBT205 1       20220331180D0203943              AVSSH 0.5F W/B           CCN000001500000001500FN00000000020220301000001500NNM   20220314140231    1W    00000150000000689000000000032N3    ABYIPL-B000000000000XB323031
BI00B32N3    NBT205 2       20220407180D0203943              AVSSH 0.5F W/B           CCN000001500000001500FN00000000020220301000001500NNM   20220314140231    1W    00000150000000689000000000032N3    ABYIPL-B000000000000XB423033
BI00B32N3    NBT205 3       20220421180D0203943              AVSSH 0.5F W/B           CCN000003000000003000FN00000000020220301000003000NNM   20220314140231    1W    00000150000000689000000000032N3    ABYIPL-B000000000000XB124035
BI00B32N3    NBT205 2       20220407180D0203950              AVSSH 0.5F R             CCN000004500000004500FN00000000020220301000004500NNM   20220314140231    1W    00000150000000689000000000032N3    ABYIPL-B000000000000XB423030
BI00B32N3    NBT205 3       20220421180D0203950              AVSSH 0.5F R             CCN000004500000004500FN00000000020220301000004500NNM   20220314140231    1W    00000150000000689000000000032N3    ABYIPL-B000000000000XB124032
BI00B32N3    NBT205 4       20220428180D0203950              AVSSH 0.5F R             CCN000001500000001500FN00000000020220301000001500NNM   20220314140231    1W    00000150000000689000000000032N3    ABYIPL-B000000000000XB224028
BI00B32N3    NBT205 1       20220331180D0203952              AVSSH 0.5F P             CCN000002000000003000FN00000000020220301000003000NNM   20220314140231    1W    00000150000000689000000000032N3    ABYIPL-B000000000000XB323028
BI00B32N3    NBT205 2       20220407180D0203952              AVSSH 0.5F P             CCN000002000000003000FN00000000020220301000003000NNM   20220314140231    1W    00000150000000689000000000032N3    ABYIPL-B000000000000XB423029
BI00B32N3    NBT205 3       20220421180D0203952              AVSSH 0.5F P             CCN000002000000003000FN00000000020220301000003000NNM   20220314140231    1W    00000150000000689000000000032N3    ABYIPL-B000000000000XB124031
BI00B32N3    NBT205 4       20220428180D0203954              AVSSH 0.5F R/W           CCN000001500000001500FN00000000020220301000001500NNM   20220314140231    1W    00000150000000689000000000032N3    ABYIPL-B000000000000XB224029
BI00B32N3    NBT205 1       20220331180D0203960              AVSSH 0.5F G             CCN000006000000006000FN00000000020220301000006000NNM   20220314140231    1W    00000150000000689000000000032N3    ABYIPL-B000000000000XB323026
BI00B32N3    NBT205 2       20220407180D0203960              AVSSH 0.5F G             CCN000006000000006000FN00000000020220301000006000NNM   20220314140231    1W    00000150000000689000000000032N3    ABYIPL-B000000000000XB423028
BI00B32N3    NBT205 3       20220421180D0203960              AVSSH 0.5F G             CCN000006000000006000FN00000000020220301000006000NNM   20220314140231    1W    00000150000000689000000000032N3    ABYIPL-B000000000000XB124029
BI00B32N3    NBT205 4       20220428180D0203960              AVSSH 0.5F G             CCN000004500000004500FN00000000020220301000004500NNM   20220314140231    1W    00000150000000689000000000032N3    ABYIPL-B000000000000XB224026
BI00B32N3    NBT205 3       20220421180D0203961              AVSSH 0.5F LG            CCN000001500000001500FN00000000020220301000001500NNM   20220314140231    1W    00000150000000689000000000032N3    ABYIPL-B000000000000XB124030
BI00B32N3    NBT205 1       20220331180D0203980              AVSSH 0.5F BR            CCN000001500000001500FN00000000020220301000001500NNM   20220314140231    1W    00000150000000689000000000032N3    ABYIPL-B000000000000XB323025
BI00B32N3    NBT205 2       20220407180D0203980              AVSSH 0.5F BR            CCN000001500000001500FN00000000020220301000001500NNM   20220314140231    1W    00000150000000689000000000032N3    ABYIPL-B000000000000XB423027
BI00B32N3    NBT205 3       20220421180D0203980              AVSSH 0.5F BR            CCN000001500000001500FN00000000020220301000001500NNM   20220314140231    1W    00000150000000689000000000032N3    ABYIPL-B000000000000XB124028
BI00B32N3    NBT205 4       20220428180D0203980              AVSSH 0.5F BR            CCN000001500000001500FN00000000020220301000001500NNM   20220314140231    1W    00000150000000689000000000032N3    ABYIPL-B000000000000XB224025
BI00B32N3    NBT205 1       20220331180D0203992              AVSSH 0.5F V             CCN000007500000007500FN00000000020220301000007500NNM   20220314140231    1W    00000150000000689000000000032N3    ABYIPL-B000000000000XB323029
BI00B32N3    NBT205 2       20220407180D0203992              AVSSH 0.5F V             CCN000007500000007500FN00000000020220301000007500NNM   20220314140231    1W    00000150000000689000000000032N3    ABYIPL-B000000000000XB423031
BI00B32N3    NBT205 3       20220421180D0203992              AVSSH 0.5F V             CCN000009000000009000FN00000000020220301000009000NNM   20220314140231    1W    00000150000000689000000000032N3    ABYIPL-B000000000000XB124033
BI00B32N3    NBT205 4       20220428180D0203992              AVSSH 0.5F V             CCN000006000000006000FN00000000020220301000006000NNM   20220314140231    1W    00000150000000689000000000032N3    ABYIPL-B000000000000XB224030
BI00B32N3    NBT205 2       20220407180D0204059              AVSSH 0.75F R/L          CCN000001000000001000FN00000000020220301000001000NNM   20220314140231    1W    00000100000000934000000000032N3    ABYIPL-B000000000000XB423034
BI00B32N3    NBT205 1       20220331180D0204130              AVSSH 1.25F B            CCN000001600000001600FN00000000020220301000001600NNM   20220314140231    1W    00000080000001458000000000032N3    ABYIPL-B000000000000XB323032
BI00B32N3    NBT205 2       20220407180D0204130              AVSSH 1.25F B            CCN000001600000001600FN00000000020220301000001600NNM   20220314140231    1W    00000080000001458000000000032N3    ABYIPL-B000000000000XB423035
BI00B32N3    NBT205 3       20220421180D0204130              AVSSH 1.25F B            CCN000001600000001600FN00000000020220301000001600NNM   20220314140231    1W    00000080000001458000000000032N3    ABYIPL-B000000000000XB124036
BI00B32N3    NBT205 4       20220428180D0204130              AVSSH 1.25F B            CCN000001600000001600FN00000000020220301000001600NNM   20220314140231    1W    00000080000001458000000000032N3    ABYIPL-B000000000000XB224032
BI00B32N3    NBT205 3       20220421180D0204143              AVSSH 1.25F W/B          CCN000000800000000800FN00000000020220301000000800NNM   20220314140231    1W    00000080000001458000000000032N3    ABYIPL-B000000000000XB124038
BI00B32N3    NBT205 1       20220331180D0204190              AVSSH 1.25F L            CCN000004800000004800FN00000000020220301000004800NNM   20220314140231    1W    00000080000001458000000000032N3    ABYIPL-B000000000000XB323033
BI00B32N3    NBT205 2       20220407180D0204190              AVSSH 1.25F L            CCN000004800000004800FN00000000020220301000004800NNM   20220314140231    1W    00000080000001458000000000032N3    ABYIPL-B000000000000XB423036
BI00B32N3    NBT205 3       20220421180D0204190              AVSSH 1.25F L            CCN000004800000004800FN00000000020220301000004800NNM   20220314140231    1W    00000080000001458000000000032N3    ABYIPL-B000000000000XB124037
BI00B32N3    NBT205 4       20220428180D0204190              AVSSH 1.25F L            CCN000004000000004000FN00000000020220301000004000NNM   20220314140231    1W    00000080000001458000000000032N3    ABYIPL-B000000000000XB224033
BI00B32N3    NBT205 1       2022033118009604330              AVS 3 B                  CCN000026400000026400FN00000000020220301000026400NNM   20220314140231    1W    00000040000003831600000000032N3    ABYIPL-B000000000000XB323035
BI00B32N3    NBT205 2       2022040718009604330              AVS 3 B                  CCN000022000000022000FN00000000020220301000022000NNM   20220314140231    1W    00000040000003831600000000032N3    ABYIPL-B000000000000XB423041
BI00B32N3    NBT205 3       2022042118009604330              AVS 3 B                  CCN000021600000021600FN00000000020220301000021600NNM   20220314140231    1W    00000040000003831600000000032N3    ABYIPL-B000000000000XB124044
BI00B32N3    NBT205 4       2022042818009604330              AVS 3 B                  CCN000016000000016000FN00000000020220301000016000NNM   20220314140231    1W    00000040000003831600000000032N3    ABYIPL-B000000000000XB224038
BI00B32N3    NBT205 1       2022033118009604340              AVS 3 W                  CCN000006400000006400FN00000000020220301000006400NNM   20220314140231    1W    00000040000003831600000000032N3    ABYIPL-B000000000000XB323041
BI00B32N3    NBT205 2       2022040718009604340              AVS 3 W                  CCN000006800000006800FN00000000020220301000006800NNM   20220314140231    1W    00000040000003831600000000032N3    ABYIPL-B000000000000XB423047
BI00B32N3    NBT205 3       2022042118009604340              AVS 3 W                  CCN000006800000006800FN00000000020220301000006800NNM   20220314140231    1W    00000040000003831600000000032N3    ABYIPL-B000000000000XB124050
BI00B32N3    NBT205 4       2022042818009604340              AVS 3 W                  CCN000005600000005600FN00000000020220301000005600NNM   20220314140231    1W    00000040000003831600000000032N3    ABYIPL-B000000000000XB224044
BI00B32N3    NBT205 1       2022033118009604341              AVS 3 GY                 CCN000002400000002400FN00000000020220301000002400NNM   20220314140231    1W    00000040000003831600000000032N3    ABYIPL-B000000000000XB323037
BI00B32N3    NBT205 2       2022040718009604341              AVS 3 GY                 CCN000002000000002000FN00000000020220301000002000NNM   20220314140231    1W    00000040000003831600000000032N3    ABYIPL-B000000000000XB423043
BI00B32N3    NBT205 3       2022042118009604341              AVS 3 GY                 CCN000002400000002400FN00000000020220301000002400NNM   20220314140231    1W    00000040000003831600000000032N3    ABYIPL-B000000000000XB124046
BI00B32N3    NBT205 4       2022042818009604341              AVS 3 GY                 CCN000001600000001600FN00000000020220301000001600NNM   20220314140231    1W    00000040000003831600000000032N3    ABYIPL-B000000000000XB224040
BI00B32N3    NBT205 1       2022033118009604350              AVS 3 R                  CCN000034800000034800FN00000000020220301000034800NNM   20220314140231    1W    00000040000003831600000000032N3    ABYIPL-B000000000000XB323039
BI00B32N3    NBT205 2       2022040718009604350              AVS 3 R                  CCN000029600000029600FN00000000020220301000029600NNM   20220314140231    1W    00000040000003831600000000032N3    ABYIPL-B000000000000XB423045
BI00B32N3    NBT205 3       2022042118009604350              AVS 3 R                  CCN000029200000029200FN00000000020220301000029200NNM   20220314140231    1W    00000040000003831600000000032N3    ABYIPL-B000000000000XB124048
BI00B32N3    NBT205 4       2022042818009604350              AVS 3 R                  CCN000015600000015600FN00000000020220301000015600NNM   20220314140231    1W    00000040000003831600000000032N3    ABYIPL-B000000000000XB224042
BI00B32N3    NBT205 1       2022033118009604360              AVS 3 G                  CCN000004000000004000FN00000000020220301000004000NNM   20220314140231    1W    00000040000003831600000000032N3    ABYIPL-B000000000000XB323036
BI00B32N3    NBT205 2       2022040718009604360              AVS 3 G                  CCN000004800000004800FN00000000020220301000004800NNM   20220314140231    1W    00000040000003831600000000032N3    ABYIPL-B000000000000XB423042
BI00B32N3    NBT205 3       2022042118009604360              AVS 3 G                  CCN000004400000004400FN00000000020220301000004400NNM   20220314140231    1W    00000040000003831600000000032N3    ABYIPL-B000000000000XB124045
BI00B32N3    NBT205 4       2022042818009604360              AVS 3 G                  CCN000003600000003600FN00000000020220301000003600NNM   20220314140231    1W    00000040000003831600000000032N3    ABYIPL-B000000000000XB224039
BI00B32N3    NBT205 1       2022033118009604370              AVS 3 Y                  CCN000004400000004400FN00000000020220301000004400NNM   20220314140231    1W    00000040000003831600000000032N3    ABYIPL-B000000000000XB323042
BI00B32N3    NBT205 2       2022040718009604370              AVS 3 Y                  CCN000004400000004400FN00000000020220301000004400NNM   20220314140231    1W    00000040000003831600000000032N3    ABYIPL-B000000000000XB423048
BI00B32N3    NBT205 3       2022042118009604370              AVS 3 Y                  CCN000004400000004400FN00000000020220301000004400NNM   20220314140231    1W    00000040000003831600000000032N3    ABYIPL-B000000000000XB124051
BI00B32N3    NBT205 4       2022042818009604370              AVS 3 Y                  CCN000003600000003600FN00000000020220301000003600NNM   20220314140231    1W    00000040000003831600000000032N3    ABYIPL-B000000000000XB224045
BI00B32N3    NBT205 1       2022033118009604390              AVS 3 L                  CCN000015600000015600FN00000000020220301000015600NNM   20220314140231    1W    00000040000003831600000000032N3    ABYIPL-B000000000000XB323038
BI00B32N3    NBT205 2       2022040718009604390              AVS 3 L                  CCN000016400000016400FN00000000020220301000016400NNM   20220314140231    1W    00000040000003831600000000032N3    ABYIPL-B000000000000XB423044
BI00B32N3    NBT205 3       2022042118009604390              AVS 3 L                  CCN000016000000016000FN00000000020220301000016000NNM   20220314140231    1W    00000040000003831600000000032N3    ABYIPL-B000000000000XB124047
BI00B32N3    NBT205 4       2022042818009604390              AVS 3 L                  CCN000012000000012000FN00000000020220301000012000NNM   20220314140231    1W    00000040000003831600000000032N3    ABYIPL-B000000000000XB224041
BI00B32N3    NBT205 1       2022033118009604392              AVS 3 V                  CCN000000400000000400FN00000000020220301000000400NNM   20220314140231    1W    00000040000003831600000000032N3    ABYIPL-B000000000000XB323040
BI00B32N3    NBT205 2       2022040718009604392              AVS 3 V                  CCN000000800000000800FN00000000020220301000000800NNM   20220314140231    1W    00000040000003831600000000032N3    ABYIPL-B000000000000XB423046
BI00B32N3    NBT205 3       2022042118009604392              AVS 3 V                  CCN000000800000000800FN00000000020220301000000800NNM   20220314140231    1W    00000040000003831600000000032N3    ABYIPL-B000000000000XB124049
BI00B32N3    NBT205 4       2022042818009604392              AVS 3 V                  CCN000000400000000400FN00000000020220301000000400NNM   20220314140231    1W    00000040000003831600000000032N3    ABYIPL-B000000000000XB224043
BI00B32N3    NBT205 1       2022033118009604440              AVS 5 W                  CCN000000400000000400FN00000000020220301000000400NNM   20220314140231    1W    00000020000005981000000000032N3    ABYIPL-B000000000000XB323045
BI00B32N3    NBT205 2       2022040718009604440              AVS 5 W                  CCN000000600000000600FN00000000020220301000000600NNM   20220314140231    1W    00000020000005981000000000032N3    ABYIPL-B000000000000XB423051
BI00B32N3    NBT205 3       2022042118009604440              AVS 5 W                  CCN000000600000000600FN00000000020220301000000600NNM   20220314140231    1W    00000020000005981000000000032N3    ABYIPL-B000000000000XB124054
BI00B32N3    NBT205 4       2022042818009604440              AVS 5 W                  CCN000000400000000400FN00000000020220301000000400NNM   20220314140231    1W    00000020000005981000000000032N3    ABYIPL-B000000000000XB224048
BI00B32N3    NBT205 1       2022033118009604450              AVS 5 R                  CCN000001400000001400FN00000000020220301000001400NNM   20220314140231    1W    00000020000005981000000000032N3    ABYIPL-B000000000000XB323044
BI00B32N3    NBT205 2       2022040718009604450              AVS 5 R                  CCN000000800000000800FN00000000020220301000000800NNM   20220314140231    1W    00000020000005981000000000032N3    ABYIPL-B000000000000XB423050
BI00B32N3    NBT205 3       2022042118009604450              AVS 5 R                  CCN000001000000001000FN00000000020220301000001000NNM   20220314140231    1W    00000020000005981000000000032N3    ABYIPL-B000000000000XB124053
BI00B32N3    NBT205 4       2022042818009604450              AVS 5 R                  CCN000000800000000800FN00000000020220301000000800NNM   20220314140231    1W    00000020000005981000000000032N3    ABYIPL-B000000000000XB224047
BI00B32N3    NBT205 1       2022033118009604470              AVS 5 Y                  CCN000003800000003800FN00000000020220301000003800NNM   20220314140231    1W    00000020000005981000000000032N3    ABYIPL-B000000000000XB323046
BI00B32N3    NBT205 2       2022040718009604470              AVS 5 Y                  CCN000002800000002800FN00000000020220301000002800NNM   20220314140231    1W    00000020000005981000000000032N3    ABYIPL-B000000000000XB423052
BI00B32N3    NBT205 3       2022042118009604470              AVS 5 Y                  CCN000003000000003000FN00000000020220301000003000NNM   20220314140231    1W    00000020000005981000000000032N3    ABYIPL-B000000000000XB124055
BI00B32N3    NBT205 4       2022042818009604470              AVS 5 Y                  CCN000002600000002600FN00000000020220301000002600NNM   20220314140231    1W    00000020000005981000000000032N3    ABYIPL-B000000000000XB224049
BI00B32N3    NBT205 1       2022033118009604490              AVS 5 L                  CCN000007200000007200FN00000000020220301000007200NNM   20220314140231    1W    00000020000005981000000000032N3    ABYIPL-B000000000000XB323043
BI00B32N3    NBT205 2       2022040718009604490              AVS 5 L                  CCN000005200000005200FN00000000020220301000005200NNM   20220314140231    1W    00000020000005981000000000032N3    ABYIPL-B000000000000XB423049
BI00B32N3    NBT205 3       2022042118009604490              AVS 5 L                  CCN000005200000005200FN00000000020220301000005200NNM   20220314140231    1W    00000020000005981000000000032N3    ABYIPL-B000000000000XB124052
BI00B32N3    NBT205 4       2022042818009604490              AVS 5 L                  CCN000004400000004400FN00000000020220301000004400NNM   20220314140231    1W    00000020000005981000000000032N3    ABYIPL-B000000000000XB224046
BI00B32N3    @NBT205 4      20220428181B0911741              CAVSAS 0.3X3 GY          CCN000000250000000250FN00000000020220301000000250NNM   20220314140238    1W    00000025000002843000000000032N3    ABYIPL-B000000000000XB224008
BI00B32N3    @NBT205 1      20220331181B0911941              CAVSAS 0.3X4 GY          CCN000001500000001500FN00000000020220301000001500NNM   20220314140238    1W    00000025000003262300000000032N3    ABYIPL-B000000000000XB323007
BI00B32N3    @NBT205 2      20220407181B0911941              CAVSAS 0.3X4 GY          CCN000001500000001500FN00000000020220301000001500NNM   20220314140238    1W    00000025000003262300000000032N3    ABYIPL-B000000000000XB423008
BI00B32N3    @NBT205 3      20220421181B0911941              CAVSAS 0.3X4 GY          CCN000001500000001500FN00000000020220301000001500NNM   20220314140238    1W    00000025000003262300000000032N3    ABYIPL-B000000000000XB124007
BI00B32N3    @NBT205 4      20220428181B0911941              CAVSAS 0.3X4 GY          CCN000000750000000750FN00000000020220301000000750NNM   20220314140238    1W    00000025000003262300000000032N3    ABYIPL-B000000000000XB224009
BI00B32N3    @NBT205 1      20220331181B32103S1              AVSSCS 0.5FX3 DGY        CCN000005500000005500FN00000000020220301000005500NNM   20220314140238    1W    00000025000003585500000000032N3    ABYIPL-B000000000000XB323008
BI00B32N3    @NBT205 2      20220407181B32103S1              AVSSCS 0.5FX3 DGY        CCN000005000000005000FN00000000020220301000005000NNM   20220314140238    1W    00000025000003585500000000032N3    ABYIPL-B000000000000XB423009
BI00B32N3    @NBT205 3      20220421181B32103S1              AVSSCS 0.5FX3 DGY        CCN000004750000004750FN00000000020220301000004750NNM   20220314140238    1W    00000025000003585500000000032N3    ABYIPL-B000000000000XB124008
BI00B32N3    @NBT205 4      20220428181B32103S1              AVSSCS 0.5FX3 DGY        CCN000002500000002500FN00000000020220301000002500NNM   20220314140238    1W    00000025000003585500000000032N3    ABYIPL-B000000000000XB224010
BI00B32N3    @NBT205 3      20220421181B32117S1              AVSSCS 0.3FX3 DGY        CCN000000250000000250FN00000000020220301000000250NNM   20220314140238    1W    00000025000003023200000000032N3    ABYIPL-B000000000000XB124009
BI00B32N3    @NBT205 3      20220421181D69001ZZ              AVSSHCS 0.5FX2 B/BR      CCN000000300000000300FN00000000020220301000000300NNM   20220314140238    1W    00000030000002385000000000032N3    ABYIPL-B000000000000XB124010
BI00B32N3    @NBT205 2      20220407181D6910235              AVSSHCS 0.5FX2 B/R       CCN000000300000000300FN00000000020220301000000300NNM   20220314140238    1W    00000030000002385000000000032N3    ABYIPL-B000000000000XB423010
BI00B32N3    @NBT205 1      20220331181D6910237              AVSSHCS 0.5FX2 B/Y       CCN000000300000000300FN00000000020220301000000300NNM   20220314140238    1W    00000030000002385000000000032N3    ABYIPL-B000000000000XB323009
BI00B32N3    @NBT205 3      20220421181D6910237              AVSSHCS 0.5FX2 B/Y       CCN000000300000000300FN00000000020220301000000300NNM   20220314140238    1W    00000030000002385000000000032N3    ABYIPL-B000000000000XB124011
BI00B32N3    NBT205 A       20220407180D0203930              AVSSH 0.5F B             CCN000006000000006000FN00000000020220301000006000NNE   20220314140906    1W    00000150000000689000000000032N3    ABYIPL-B000000000000XE423009
BI00B32N3    NBT205 A       20220407180D0203940              AVSSH 0.5F W             CCN000001500000001500FN00000000020220301000001500NNE   20220314140906    1W    00000150000000689000000000032N3    ABYIPL-B000000000000XE423012
BI00B32N3    NBT205 A       20220407180D0203960              AVSSH 0.5F G             CCN000001500000001500FN00000000020220301000001500NNE   20220314140906    1W    00000150000000689000000000032N3    ABYIPL-B000000000000XE423010
BI00B32N3    NBT205 A       20220407180D0203992              AVSSH 0.5F V             CCN000004500000004500FN00000000020220301000004500NNE   20220314140906    1W    00000150000000689000000000032N3    ABYIPL-B000000000000XE423011
BI00B32N3    NBT205 A       20220407180D0204143              AVSSH 1.25F W/B          CCN000000800000000800FN00000000020220301000000800NNE   20220314140906    1W    00000080000001458000000000032N3    ABYIPL-B000000000000XE423014
BI00B32N3    NBT205 A       20220407180D0204190              AVSSH 1.25F L            CCN000000800000000800FN00000000020220301000000800NNE   20220314140906    1W    00000080000001458000000000032N3    ABYIPL-B000000000000XE423013
BI00B32N3    NBT205 A       2022040718009604330              AVS 3 B                  CCN000025200000025200FN00000000020220301000025200NNE   20220314140906    1W    00000040000003831600000000032N3    ABYIPL-B000000000000XE423015
BI00B32N3    NBT205 A       2022040718009604340              AVS 3 W                  CCN000006400000006400FN00000000020220301000006400NNE   20220314140906    1W    00000040000003831600000000032N3    ABYIPL-B000000000000XE423019
BI00B32N3    NBT205 A       2022040718009604350              AVS 3 R                  CCN000035200000035200FN00000000020220301000035200NNE   20220314140906    1W    00000040000003831600000000032N3    ABYIPL-B000000000000XE423018
BI00B32N3    NBT205 A       2022040718009604360              AVS 3 G                  CCN000003600000003600FN00000000020220301000003600NNE   20220314140906    1W    00000040000003831600000000032N3    ABYIPL-B000000000000XE423016
BI00B32N3    NBT205 A       2022040718009604370              AVS 3 Y                  CCN000004400000004400FN00000000020220301000004400NNE   20220314140906    1W    00000040000003831600000000032N3    ABYIPL-B000000000000XE423020
BI00B32N3    NBT205 A       2022040718009604390              AVS 3 L                  CCN000006000000006000FN00000000020220301000006000NNE   20220314140906    1W    00000040000003831600000000032N3    ABYIPL-B000000000000XE423017
BI00B32N3    @NBT205 A      20220407181B0911741              CAVSAS 0.3X3 GY          CCN000000250000000250FN00000000020220301000000250NNE   20220314140905    1W    00000025000002843000000000032N3    ABYIPL-B000000000000XE423001
BI00B32N3    @NBT205 A      20220407181B32103S1              AVSSCS 0.5FX3 DGY        CCN000008500000008500FN00000000020220301000008500NNE   20220314140905    1W    00000025000003585500000000032N3    ABYIPL-B000000000000XE423002
BI00B32N3    @NBT205 A      20220407181D69004ZZ              AVSSHCS 1.25FX2 B        CCN000000400000000400FN00000000020220301000000400NNE   20220314140905    1W    00000020000004357000000000032N3    ABYIPL-B000000000000XE423005
BI00B32N3    @NBT205 A      20220407181D6910230              AVSSHCS 0.5FX2 B         CCN000000600000000600FN00000000020220301000000600NNE   20220314140905    1W    00000030000002385000000000032N3    ABYIPL-B000000000000XE423003
BI00B32N3    @NBT205 A      20220407181D6910237              AVSSHCS 0.5FX2 B/Y       CCN000000600000000600FN00000000020220301000000600NNE   20220314140905    1W    00000030000002385000000000032N3    ABYIPL-B000000000000XE423004
BI00B32R8    TT2204AAMW     20220329180D0203957              AVSSH 0.5F R/Y           CCN000001500000001500FN00000000020220401000001500NNE   20220314102755    1W    00000150000000689000000000032R8    TTTJY   000000000000NW323001
BI00B32R8    TT2204AAMW     20220329180D0204045              AVSSH 0.75F W/R          CCN000001000000001000FN00000000020220401000001000NNE   20220314102755    1W    00000100000000934000000000032R8    TTTJY   000000000000NW323002
BI00B32U5    DW2021         202204221801W003950              IVSSH 0.5F R             CCN000091800000091800FN00000000020220701000091800NNM   20220314094800U5  1W    00000180000000625000000000032U5    ASAMSD  000000000000AM124011
BI00B32U5    DW2021         202204221801W003960              IVSSH 0.5F G             CCN000018000000018000FN00000000020220701000018000NNM   20220314094800U5  1W    00000180000000625000000000032U5    ASAMSD  000000000000AM124009
BI00B32U5    DW2021         202204221801W003990              IVSSH 0.5F L             CCN000097200000097200FN00000000020220701000097200NNM   20220314094800U5  1W    00000180000000625000000000032U5    ASAMSD  000000000000AM124010
BI00B32U5    DW2021         202204221801W004050              IVSSH 0.75F R            CCN000002600000002600FN00000000020220701000002600NNM   20220314094800U5  1W    00000130000000882000000000032U5    ASAMSD  000000000000AM124012
BI00B32U5    DW2021         202204221801W006940              IVSSH 0.35F W            CCN000072500000072500FN00000000020220701000072500NNM   20220314094800U5  1W    00000250000000452000000000032U5    ASAMSD  000000000000AM124018
BI00B32U5    DW2021         202204221801W006941              IVSSH 0.35F GY           CCN000012500000012500FN00000000020220701000012500NNM   20220314094800U5  1W    00000250000000452000000000032U5    ASAMSD  000000000000AM124014
BI00B32U5    DW2021         202204221801W006952              IVSSH 0.35F P            CCN000047500000047500FN00000000020220701000047500NNM   20220314094800U5  1W    00000250000000452000000000032U5    ASAMSD  000000000000AM124016
BI00B32U5    DW2021         202204221801W006970              IVSSH 0.35F Y            CCN000005000000005000FN00000000020220701000005000NNM   20220314094800U5  1W    00000250000000452000000000032U5    ASAMSD  000000000000AM124019
BI00B32U5    DW2021         202204221801W006980              IVSSH 0.35F BR           CCN000015000000015000FN00000000020220701000015000NNM   20220314094800U5  1W    00000250000000452000000000032U5    ASAMSD  000000000000AM124013
BI00B32U5    DW2021         202204221801W006990              IVSSH 0.35F L            CCN000105000000105000FN00000000020220701000105000NNM   20220314094800U5  1W    00000250000000452000000000032U5    ASAMSD  000000000000AM124015
BI00B32U5    DW2021         202204221801W006992              IVSSH 0.35F V            CCN000017500000017500FN00000000020220701000017500NNM   20220314094800U5  1W    00000250000000452000000000032U5    ASAMSD  000000000000AM124017
BI00B32U5    @DW2021        20220422181E48011ZZ              CAVSAS-S 0.3X1 GY/W      CCN000003000000003000FN00000000020220701000003000NNM   20220314094759U5  1W    00000050000001529500000000032U5    ASAMSD  000000000000AM124008
BI00A32W9    4500190276     2022031518007704280              AVSS 2F BR               CCN000000500000000500FN00000000020220301000000500NNE20 20220314105857W93 1W    00000050000002126400000000032W93   HKYHK   000000000000ZE223003
BI00B32X5    TWB2021        202204221801W003943              IVSSH 0.5F W/B           CCN000007200000007200FN00000000020220701000007200NNM   20220314100211X5  1W    00000180000000625000000000032X5    EPYNA-E 000000000000AE124005
BI00B32X5    TWB2021        202204221801W006930              IVSSH 0.35F B            CCN000075000000075000FN00000000020220701000075000NNM   20220314100211X5  1W    00000250000000452000000000032X5    EPYNA-E 000000000000AE124006
BI00B32X5    TWB2021        202204221801W006940              IVSSH 0.35F W            CCN000027500000027500FN00000000020220701000027500NNM   20220314100211X5  1W    00000250000000452000000000032X5    EPYNA-E 000000000000AE124011
BI00B32X5    TWB2021        202204221801W006943              IVSSH 0.35F W/B          CCN000017500000017500FN00000000020220701000017500NNM   20220314100211X5  1W    00000250000000452000000000032X5    EPYNA-E 000000000000AE124012
BI00B32X5    TWB2021        202204221801W006950              IVSSH 0.35F R            CCN000030000000030000FN00000000020220701000030000NNM   20220314100211X5  1W    00000250000000452000000000032X5    EPYNA-E 000000000000AE124009
BI00B32X5    TWB2021        202204221801W006952              IVSSH 0.35F P            CCN000022500000022500FN00000000020220701000022500NNM   20220314100211X5  1W    00000250000000452000000000032X5    EPYNA-E 000000000000AE124008
BI00B32X5    TWB2021        202204221801W006990              IVSSH 0.35F L            CCN000030000000030000FN00000000020220701000030000NNM   20220314100211X5  1W    00000250000000452000000000032X5    EPYNA-E 000000000000AE124007
BI00B32X5    TWB2021        202204221801W006992              IVSSH 0.35F V            CCN000037500000037500FN00000000020220701000037500NNM   20220314100211X5  1W    00000250000000452000000000032X5    EPYNA-E 000000000000AE124010
