BI00A1200    #2399T51729    202111297289-4200-30             HOUSING FEMALE ASS'Y     PCN000044000000044000FN00000000020210901000044000NNMD0020211125132534    2N0N  0000020000000092600000102101200    YCYC    005400370024
BI00B1200    2399T51815     202111267289-5979-30             HOUSING FEMALE ASS'Y     CCN000014616000002772FN00000000020211001000002772NNM00020211125182047    1N0N  0000002520000085470000106471200    YCYC    005400370024
BI00A1200    7242T51907     202112087289-3342-40             HOUSING FEMALE ASS'Y     CCN000007200000000000FY00000000020211001000000000NNEQ0820211125135041    1N0N  0000024000000068640000090141200    YCYC    005500360039
BI00A1200    7242T51907     202112087289-3342-90             HOUSING FEMALE ASS'Y     CCN000007200000000000FY00000000020211001000000000NNEQ0820211125135310    1N0N  0000024000000068640000090141200    YCYC    005500360039
BI00A1200    2399T51815     202111247289-5979-30             HOUSING FEMALE ASS'Y     PCN000002520000008820FY00000882020211001000000000NNMM0020211125182038    1N0N  0000002520000085470000106471200    YCYC    005400370024
BI00B1200    O022C50024     202202107116-4100-02             TERMINAL                 CCN000045000000045000FN00000000020220301000045000NNE   20211125142610    4P0P  0000150000000069600000099021200    YCYC    006400630015
BI00B1200    Y022C50013     202202107289-5979-30             HOUSING FEMALE ASS'Y     CCN000000252000000252FN00000000020220301000000252NNM   20211125142724    1N0N  0000002520000085470000106471200    YCYC    005400370024
BI00B1200    #Y022C50014    202202107173-3225-10             LIF LEVER                CCN000000800000000800FN00000000020220301000000800NNM   20211125142823    2F0F  0000008000000059200000071201200    YCYC    005500360039
BI00B32AF    JTB112G        202112177283-4855                CONNECTOR HOUSING        CCN000007200000007200FN00000000020211201000007200NNED0020211125185334    4N0N  00000240000001188400001400032AF    HBYHVTB 005500360039
BI00B32CH    SJ2112AHMW     202112167298-5993-30             SEALED ASSY FEMALE       CCN000002184000002184FN00000000020211201000002184NNED0720211125142949    4N0N  00000218400000981500001290032CH    SJSAMIJF005500360039
BI00B32CH    SJ2112AHMW     202112167327-6830-30             MAIN FUSE                CCN000000600000000600FN00000000020211201000000600NNED0720211125142949    4N0N  00000060000000720100000922832CH    SJSAMIJF005400370024
BI00B32CH    SJ2112AHMW     202112167327-6868-30             MULTI FUSE               CCN000000864000000864FN00000000020211201000000864NNED0720211125142949    4N0N  00000028800001013500001179432CH    SJSAMIJF005400370024
BI00B32CH    SJ2112ASMW     202112167116-1230                TERMINAL                 CCN000013500000013500FN00000000020211201000013500NNED0720211125143143    4P0P  00001350000000664200000952432CH    SJSAMIJF006400630015
BI00B32CH    #SJ2112ASMW    202112167158-3121-80             WIRE SEAL                CCN000020000000020000FN00000000020211201000020000NNED0720211125143153    2C0C  00002000000000118000000187332CH    SJSAMIJF002700430014
BI00B32CH    SJ2112B MW     202112167116-4025                TERMINAL                 CCN000016000000016000FN00000000020211201000016000NNED0720211125143217    4P0P  00001600000000644800000975132CH    SJSAMIJF006400630017
BI00B32DJ    GHT2111B 1     202111267114-4728-02             TERMINAL                 CCN000180000000180000FN00000000020211101000180000NNM00020211125132534    4P0P  00003000000000510000000804232DJ    RBYIPLRB006400630015
BI00B32DJ    GHT2111B 2     202111267114-4728-02             TERMINAL                 CCN000120000000120000FN00000000020211101000120000NNM00020211125132534    4P0P  00003000000000510000000804232DJ    RBYIPLRB006400630015
BI00B32DJ    GHT2111B 2     202111267114-5746-02             TERMINAL                 CCN000042000000042000FN00000000020211101000042000NNM00020211125132534    4P0P  00002100000000695100000988732DJ    RBYIPLRB006400630015
BI00B32D1    DFTC2202       202112027327-6731-3W             BATTERY FUSE             CCN000002944000002944FN00000000020220101000002944NNM00020211125190934    4N0N  00000006400000697600000843032D1    TOYOT-K 005400370024
BI00B32EJ    4500183937     202112237158-3165-90             WIRE SEAL                CCN001000000001000000FN00000000020211201001000000NNED0020211125193806EJ  1C0C  00004000000000124000000172432EJ    EJYKBO  004300270014
BI00B32EJ    4500184330     202112027158-3070-80             RUBBER STOPPER           CCN000080000000080000FN00000000020211201000080000NNED0020211125132534EJ  1C0C  00004000000000276000000333332EJ    EJYKBO  002700430014
BI00B32EJ    4500184330     202112027B58-3070-80             RUBBER STOPPER           CCN000120000000120000FN00000000020211201000120000NNED0020211125132534EJ  1C0C  00004000000000276000000333032EJ    EJYKBO  004300270014
BI00B32EJ    4500184330     202112027283-5843                CONNECTOR                CCN000006000000006000FN00000000020211201000006000NNED0020211125132534EJ  1N0N  00000150000000889000001132032EJ    EJYKBO  005600390040
BI00B32EJ    4500184384     202201067283-1020                CONNECTOR                CCN000030000000030000FN00000000020211201000030000NNED0220211125133106EJ  4N0N  00000600000000840000001049332EJ    EJYKBO  005600390040
BI00B32EJ    4500184383     202201067116-4022                TERMINAL                 CCN000013500000013500FN00000000020220101000013500NNED0020211125132534EJ  4P0P  00001350000000618300000903532EJ    EJYKBO  006400630015
BI00B32EJ    4500184383     202201067283-5843                CONNECTOR                CCN000009000000009000FN00000000020220101000009000NNED0020211125132534EJ  1N0N  00000150000000889000001132032EJ    EJYKBO  005600390040
BI00B32EJ    4500184383     202201067114-4111-02             TERMINAL                 CCN000096000000096000FN00000000020220101000096000NNED0020211125132534EJ  4P0P  00001200000000758400001087032EJ    EJYKBO  006400630017
BI00B32EJ    4500184383     202201067114-4101-02             TERMINAL                 CCN000150000000150000FN00000000020220101000150000NNED0020211125132534EJ  4P0P  00001500000000675000001003632EJ    EJYKBO  006400630017
BI00B32EJ    4500184477     202112237283-5574-10             CONNECTOR                CCN000005600000005600FN00000000020211201000005600NNED0020211125132534EJ  4N0N  00000080000001235000001435232EJ    EJYKBO  005500360039
BI00B32EJ    4500184478     202112237283-5574-10             CONNECTOR                CCN000005600000005600FN00000000020211201000005600NNED0020211125132534EJ  4N0N  00000080000001235000001435232EJ    EJYKBO  005500360039
BI00B32EJ    4500184478     202112237283-7449-40             HOUSING FEMALE ASS'Y     CCN000002400000002400FN00000000020211201000002400NNED0020211125132534EJ  4N0N  00000240000001200000001410032EJ    EJYKBO  005500360039
BI00B32EJ    4500184569     202112237116-4124-02             TERMINAL                 CCN000006000000006000FN00000000020211201000006000NNE   20211125132534EJ  4P0P  00000300000000459900000753532EJ    EJYKBO  006400630015
BI00B32EJ    4500184569     202112237196-1461-06             TERMINAL FEMALE          CCN000024000000024000FN00000000020211201000024000NNE   20211125132534EJ  4P0P  00002400000000386400000692932EJ    EJYKBO  006400630015
BI00B32EJ    4500184569     202112237114-4101-02             TERMINAL                 CCN000015000000015000FN00000000020211201000015000NNE   20211125132534EJ  4P0P  00001500000000675000001003632EJ    EJYKBO  006400630017
BI00B32EJ    4500184569     202112237116-4101-02             TERMINAL                 CCN000012000000012000FN00000000020211201000012000NNE   20211125132534EJ  4P0P  00001200000000582000000876232EJ    EJYKBO  006400630015
BI00B32EJ    4500184569     202112237116-4122-02             TERMINAL                 CCN000009000000009000FN00000000020211201000009000NNE   20211125132534EJ  4P0P  00000450000000656600000950232EJ    EJYKBO  006400630015
BI00B32EJ    4500184569     202112237116-4121-02             TERMINAL                 CCN000009000000009000FN00000000020211201000009000NNE   20211125132534EJ  4P0P  00000450000000618800000912432EJ    EJYKBO  006400630015
BI00B32EJ    4500184569     202112237116-4111-02             TERMINAL                 CCN000015000000015000FN00000000020211201000015000NNE   20211125132534EJ  4P0P  00000750000000529500000817732EJ    EJYKBO  006400630015
BI00B32EJ    4500184569     202112237126-8854-02             TERMINAL                 CCN000015000000015000FN00000000020211201000015000NNE   20211125132534EJ  4P0P  00000750000000604500000889732EJ    EJYKBO  006400630015
BI00B32EJ    4500184569     202112237158-3166-60             WIRE SEAL                CCN000760000000760000FN00000000020211201000760000NNE   20211125132534EJ  1C0C  00004000000000104000000152432EJ    EJYKBO  002700430014
BI00B32EJ    4500184569     202112237158-3167-80             WIRE SEAL                CCN000420000000420000FN00000000020211201000420000NNE   20211125132534EJ  1C0C  00002000000000048000000109032EJ    EJYKBO  002700430014
BI00B32EJ    4500184569     202112237B58-3070-80             RUBBER STOPPER           CCN000040000000040000FN00000000020211201000040000NNE   20211125132534EJ  1C0C  00004000000000276000000333032EJ    EJYKBO  004300270014
BI00B32EJ    4500184569     202112237158-3167-61             WIRE SEAL                CCN000040000000040000FN00000000020211201000040000NNE   20211125132534EJ  1C0C  00002000000000048000000096432EJ    EJYKBO  004300270014
BI00B32EJ    #4500184569    202112237158-3120-90             CONNECTOR WIRE SEAL      CCN000040000000040000FN00000000020211201000040000NNE   20211125132534EJ  2C0C  00002000000000136000000194032EJ    EJYKBO  002700430014
BI00B32EJ    4500184571     202112237116-4102-02             TERMINAL                 CCN000012000000012000FN00000000020211201000012000NNE   20211125132534EJ  4P0P  00001200000000553200000841432EJ    EJYKBO  006400630015
BI00B32E1    NC203A         202112227116-5045-02             TERMINAL                 CCN000016000000016000FN00000000020220301000016000NNE   20211125132534    4P0P  00001600000000678400001007132E1    SPYSE   006400630017
BI00B32E1    NC203A         202112227158-3006-90             RUBBER STOPPER           CCN000020000000020000FN00000000020220301000020000NNE   20211125132534    1C0C  00002000000000330600000386032E1    SPYSE   002700430014
BI00B32E2    NY203A         202112227116-1685-02             TERMINAL                 CCN000024000000024000FN00000000020220301000024000NNE   20211125132534    4P0P  00002400000000897600001065232E2    SPYSE   005100280028
BI00B32E2    #NY203A        202112227158-3003-90             RUBBER STOPPER           CCN000020000000020000FN00000000020220301000020000NNE   20211125132534    2C0C  00002000000000250000000306032E2    SPYSE   002700430014
BI00A32H0    TT2112FVMW     202112077327-6950-30             MULTI FUSE               CCN000000288000000288FN00000000020211201000000288NNED0420211125152157    4N00  00000028800000888700001054632H0    TTTJY   005400370024
BI00A32H2    #QA-21-C122    202111257282-5845-30             HOUSING MALE ASS'Y       PNY000008400000000000FY00000000020211201000000000NNEQ0020211125104748    2N0N  00000400000001068000001178032H2    HVYHV   005400370024
BI00B32H8    @TY2201A MW    202112177283-1100-90             CONNECTOR ASS'Y          CCN000001600000001600FN00000000020220101000001600NNED0720211125143258    3N0N  00000160000000564800000806832H8    TYTYC   005500360039
BI00B32H8    #TY2201AIMW    202112177283-1194                CONNECTOR FEMALE         CCN000002000000002000FN00000000020220101000002000NNED0720211125143327    2N0N  00000100000000947000001069532H8    TYTYC   005400370024
BI00A32J1    388704         202112077114-1670-02             TERMINAL                 CCN000024000000024000FN00000000020211101000024000NNED0720211125132534    1P0P  00002400000000357600000645832J1    UKYEL-BL006400630015
BI00B32M1    TCV112B        202112167114-4020                TERMINAL                 CCN000021000000021000FN00000000020211201000021000NNED0720211125143524    4P0P  00002100000000875700001169332M1    VNYEV   006400630015
BI00B32M1    TCV112B        202112167114-4032                TERMINAL                 CCN000007500000007500FN00000000020211201000007500NNED0720211125143524    4P0P  00000750000000735000001063632M1    VNYEV   006400630017
BI00B32M1    TCV112B        202112167114-6041                TERMINAL                 CCN000054000000054000FN00000000020211201000054000NNED0720211125143524    4P0P  00000360000000580700000824232M1    VNYEV   006400630015
BI00B32M1    TCV112B        202112167116-2893-02             TERMINAL                 CCN000036000000036000FN00000000020211201000036000NNED0720211125143524    4P0P  00001200000000895200001058632M1    VNYEV   005100280028
BI00B32M1    TCV112B        202112167116-4037                TERMINAL                 CCN000072000000072000FN00000000020211201000072000NNED0720211125143524    4P0P  00000600000000600000000894232M1    VNYEV   006400630015
BI00B32M1    TCV112B        202112167116-5043-02             TERMINAL FEMALE          CCN000048000000048000FN00000000020211201000048000NNED0720211125143524    4P0P  00001200000000559200000844432M1    VNYEV   006400630015
BI00B32M1    TCV112B        202112167126-8853-02             TERMINAL                 CCN000060000000060000FN00000000020211201000060000NNED0720211125143524    4P0P  00000750000000562500000847732M1    VNYEV   006400630015
BI00B32M1    TCV112B        202112167126-8854-02             TERMINAL                 CCN000007500000007500FN00000000020211201000007500NNED0720211125143524    4P0P  00000750000000604500000889732M1    VNYEV   006400630015
BI00B32M1    TCV112B        202112167126-8855-02             TERMINAL                 CCN000150000000150000FN00000000020211201000150000NNED0720211125143524    4P0P  00000600000000510600000795832M1    VNYEV   006400630015
BI00B32M1    TCV112B        202112167158-3022-80             RUBBER STOPPER           CCN000005000000005000FN00000000020211201000005000NNED0720211125143524    1C0C  00000500000000467500000524032M1    VNYEV   002700430014
BI00B32M1    TCV112B        202112167158-3070-80             RUBBER STOPPER           CCN000040000000040000FN00000000020211201000040000NNED0720211125143524    1C0C  00004000000000276000000333332M1    VNYEV   002700430014
BI00B32M1    TCV112B        202112167196-1103-02             TERMINAL                 CCN000225000000225000FN00000000020211201000225000NNED0720211125143524    4P0P  00002250000000429800000715032M1    VNYEV   006400630015
BI00B32M1    TCV112B        202112167283-1289-40             CONNECTOR HOUSING        CCN000001200000001200FN00000000020211201000001200NNED0720211125143524    1N0N  00000060000000679800000824832M1    VNYEV   005400370024
BI00B32M1    TCV112B        202112167286-1899                HOUSING SUB ASSEMBLY     CCN000003360000003360FN00000000020211201000003360NNED0720211125143524    4N0N  00000033600000814800001010832M1    VNYEV   005400370024
BI00B32M1    TCV112B        202112167286-1900                CONNECTOR HOUSING        CCN000009600000009600FN00000000020211201000009600NNED0720211125143524    4N0N  00000480000001161600001376632M1    VNYEV   005500360039
BI00B32M1    TCV112B        202112167287-1915-30             CONNECTOR ASS'Y          CCN000007200000007200FN00000000020211201000007200NNED0720211125143524    4N0N  00000240000000666500000923132M1    VNYEV   005500360039
BI00B32M1    TCV112B        202112167287-1915-40             CONNECTOR ASS'Y          CCN000007200000007200FN00000000020211201000007200NNED0720211125143524    4N0N  00000240000000666500000923132M1    VNYEV   005500360039
BI00B32M1    TCV112B        202112167287-8999-30             HOUSING FEMALE ASS'Y     CCN000004800000004800FN00000000020211201000004800NNED0720211125143524    1N0N  00000480000001228800001448832M1    VNYEV   005500360039
BI00B32M1    TCV112B        202112167287-9000                HOUSING FEMALE ASS'Y     CCN000004800000004800FN00000000020211201000004800NNED0720211125143524    1N0N  00000480000001228800001448832M1    VNYEV   005500360039
BI00B32M1    TCV112B        202112167382-1481-10             CONNECTOR                CCN000004000000004000FN00000000020211201000004000NNED0720211125143524    4N0N  00000080000001025000001183032M1    VNYEV   005600390040
BI00B32M1    TCV111E        202112237195-1938-02             TERMINAL MALE            CCN000005000000021000FN00000000020211101000021000NNED0720211125143704    4P0P  00002100000000000000000000032M1    VNYEV   000000000000
BI00B32M1    TCV111E        202111237196-1933-02             TERMINAL FEMALE          CCN000021000000021000FN00000000020211101000021000NNED0720211125143704    4P0P  00002100000000670800000000032M1    VNYEV   006400630015
BI00B32M1    TCV111E        202111237196-1938-02             TERMINAL FEMALE          CCN000005000000013500FN00000000020211101000013500NNED0720211125143704    4P0P  00001350000000507600000795832M1    VNYEV   006400630015
BI00B32R7    R-TAP210580    202112167B74-1849-70             COVER                    CCN000025000000025000FN00000000020211201000025000NNED0720211125143612    1F0F  00002500000000622500000761932R7    IVYCIC  005400370024
BI00B32R7    R-TAP210580    202112167C98-1145-4W             SQUIB SUB ASS'Y          CCN000020000000020000FN00000000020211201000020000NNED0720211125143612    4N0N  00001000000000787900000944932R7    IVYCIC  005400370024
BI00B32R7    R-TAP210580    202112167C98-1149-3W             SQUIB SUB ASS'Y          CCN000020000000020000FN00000000020211201000020000NNED0720211125143612    4N0N  00001000000000785000000922032R7    IVYCIC  005400370024
BI00B32R7    R-TAP210581    202112167116-4122-02             TERMINAL                 CCN000234000000234000FN00000000020211201000234000NNED0720211125143731    4P0P  00000450000000656600000950232R7    IVYCIC  006400630015
BI00B32U9    TP0378S        202112237B58-3070-80             RUBBER STOPPER           CCN000040000000040000FN00000000020220101000040000NNE   20211125144413U9  1C0C  00004000000000276000000333032U9    YNYNA-E 004300270014
BI00B32U9    TPA204         202112237116-2951-02             TERMINAL                 CCN000081000000081000FN00000000020220101000081000NNM   20211125145847U9  4P0P  00000540000000817600001111832U9    YNYNA-E 006400630015
BI00B32U9    TPA204         202112237116-4231-02             TERMINAL                 CCN000312000000312000FN00000000020220101000312000NNM   20211125145847U9  4P0P  00002600000000683800001012532U9    YNYNA-E 006400630017
BI00B32U9    TPA204         202112237158-3167-80             WIRE SEAL                CCN000760000000760000FN00000000020220101000760000NNM   20211125145847U9  1C0C  00002000000000048000000109032U9    YNYNA-E 002700430014
BI00B32U9    TPA204         202112237158-3168-80             SEALED                   CCN000200000000200000FN00000000020220101000200000NNM   20211125145847U9  1C0C  00002000000000044000000092132U9    YNYNA-E 004300260014
BI00B32U9    TPA204         202112237158-3169-40             SEALING PLUG             CCN000280000000280000FN00000000020220101000280000NNM   20211125145847U9  1C0C  00004000000000156000000204132U9    YNYNA-E 004300260014
BI00B32U9    TPA204         202112237222-6244-40             CONNECTOR                CCN000004000000004000FN00000000020220101000004000NNM   20211125145847U9  4N0N  00000080000001239200001422032U9    YNYNA-E 005600390040
BI00B32U9    TPA204         202112237282-5574-10             CONNECTOR                CCN000022400000022400FN00000000020220101000022400NNM   20211125145847U9  4N0N  00000080000001235000001423032U9    YNYNA-E 005600390040
BI00B32U9    TPA204         202112237283-8599-30             CONNECTOR                CCN000004620000004620FN00000000020220101000004620NNM   20211125145847U9  4N0N  00000154000000947100001157032U9    YNYNA-E 005600390023
BI00B32U9    TPA204         202112237289-6868-30             SEALED ASSY FEMALE       CCN000015120000015120FN00000000020220101000015120NNM   20211125145847U9  4N0N  00000252000000839200001119232U9    YNYNA-E 005500360039
BI00B32U9    TPA204         202112237289-7615-30             HOUSING FEMALE ASS'Y     CCN000003200000003200FN00000000020220101000003200NNM   20211125145847U9  4N0N  00000032000000738000000948032U9    YNYNA-E 005400370024
BI00B32U9    TPA204         202112237298-1186-40             SQUIB SUB ASS'Y          CCN000010000000010000FN00000000020220101000010000NNM   20211125145847U9  4N0N  00001000000000650000000774532U9    YNYNA-E 005400370024
BI00B32U9    TPA204         202112237298-1187-30             SHUNT RING ASSEMBLY      CCN000010000000010000FN00000000020220101000010000NNM   20211125145847U9  4N0N  00001000000000647000000769532U9    YNYNA-E 005400370024
BI00B32U9    TPA204         202112237B58-3070-80             RUBBER STOPPER           CCN000120000000120000FN00000000020220101000120000NNM   20211125145847U9  1C0C  00004000000000276000000333032U9    YNYNA-E 004300270014
BI00B32U9    #TPA204        202112237147-9094                RETAINER                 CCN000018000000018000FN00000000020220101000018000NNM   20211125145832U9  2F0F  00000300000000717000000872932U9    YNYNA-E 005500360039
BI00B32U9    #TPA204        202112237157-7812                SEAL RUBBER              CCN000010000000010000FN00000000020220101000010000NNM   20211125145832U9  2C0C  00001000000000137000000202032U9    YNYNA-E 002700430014
BI00B32U9    #TPA204        202112237047-1611-30             CLIP                     CCN000004000000004000FN00000000020220101000004000NNM   20211125145832U9  2F0F  00000200000001600000001739032U9    YNYNA-E 005600390040
BI00B32U9    #TPA204        202112237158-3376-50             CONNECTOR WIRE SEAL      CCN000220000000220000FN00000000020220101000220000NNM   20211125145832U9  2C0C  00002000000000184000000240732U9    YNYNA-E 002700430014
BI00B32U9    #TPA204        202112237282-6446-40             CONNECTOR                CCN000012000000012000FN00000000020220101000012000NNM   20211125145832U9  2N0N  00000150000001185000001368032U9    YNYNA-E 005500360039
BI00B32U9    #TPA204        202112237282-8395-40             CONNECTOR                CCN000021000000021000FN00000000020220101000021000NNM   20211125145832U9  2N0N  00000100000001009000001188032U9    YNYNA-E 005500360039
BI00B32U9    #TPA204        202112237283-8397-40             CONNECTOR                CCN000009240000009240FN00000000020220101000009240NNM   20211125145832U9  2N0N  00000154000001007000001222732U9    YNYNA-E 005600390023
BI00B32W4    4500182090     202112167283-5548-30             CONNECTOR                CCN000003000000003000FN00000000020211201000003000NNE00020211125190927W4664N0N  00000150000001109000001302032W466  HJYHK   005600390040
BI00B32W4    4500184278     202201137283-1020                CONNECTOR                CCN000096000000096000FN00000000020211201000096000NNED0420211125132534W4514N0N  00000600000000840000001049332W451  HJ32W9  005600390040
BI00A32W4    4500184597     202112247116-4102-02             TERMINAL                 CCN000012000000012000FN00000000020211201000012000NNE   20211125143004W4194P0P  00001200000000553200000841432W419  HJYHK   006400630015
BI00A32W4    4500184557     202201247116-4100-02             TERMINAL                 CCN000015000000015000FN00000000020220101000015000NNE   20211125143015W4O24P0P  00001500000000696000000990232W4O2  HJYHK-J 006400630015
BI00A32W4    4500184557     202201247116-4102-02             TERMINAL                 CCN000024000000024000FN00000000020220101000024000NNE   20211125143015W4O24P0P  00001200000000553200000841432W4O2  HJYHK-J 006400630015
BI00A32W4    4500184557     202201247116-4025                TERMINAL                 CCN000016000000016000FN00000000020220101000016000NNE   20211125143015W4O24P0P  00001600000000644800000975132W4O2  HJYHK-J 006400630017
BI00A32W4    4500184557     202201247283-7028-30             CONNECTOR                CCN000015000000015000FN00000000020220101000015000NNE   20211125143015W4O24N0N  00000300000001452000001681332W4O2  HJYHK-J 005600390040
BI00A32W4    4500184557     202201247158-3167-80             WIRE SEAL                CCN000040000000040000FN00000000020220101000040000NNE   20211125143015W4O21C0C  00002000000000048000000109032W4O2  HJYHK-J 002700430014
BI00A32W4    4500184557     202201247116-4120-02             TERMINAL                 CCN000006000000006000FN00000000020220101000006000NNE   20211125143015W4O24P0P  00000600000000780000001073632W4O2  HJYHK-J 006400630015
BI00A32W4    4500184557     202201247116-4110-02             TERMINAL                 CCN000009000000009000FN00000000020220101000009000NNE   20211125143015W4O24P0P  00000900000000594000000882232W4O2  HJYHK-J 006400630015
BI00A32W4    4500184557     202201247116-4103-02             TERMINAL                 CCN000012000000012000FN00000000020220101000012000NNE   20211125143015W4O24P0P  00001200000000571200000859432W4O2  HJYHK-J 006400630015
BI00B32W4    4500184575     202201277116-4104-02             TERMINAL                 CCN000024000000024000FN00000000020220101000024000NNE   20211125143028W4464P0P  00001200000000580800000972432W446  HJYHK   006400630015
BI00B32W4    4500184575     202201277114-4110-02             TERMINAL                 CCN000030000000030000FN00000000020220101000030000NNE   20211125143028W4464P0P  00001500000000901500001230132W446  HJYHK   006400630017
BI00B32W4    4500184575     202201277116-4103-02             TERMINAL                 CCN000036000000036000FN00000000020220101000036000NNE   20211125143028W4464P0P  00001200000000571200000859432W446  HJYHK   006400630015
BI00B32W4    4500184576     202201277116-4101-02             TERMINAL                 CCN000024000000024000FN00000000020220101000024000NNE   20211125143048W4464P0P  00001200000000582000000876232W446  HJYHK   006400630015
BI00B32W4    4500184576     202201277114-4101-02             TERMINAL                 CCN000015000000015000FN00000000020220101000015000NNE   20211125143048W4464P0P  00001500000000675000001003632W446  HJYHK   006400630017
BI00B32W4    4500184576     202201277158-3169-40             SEALING PLUG             CCN000040000000040000FN00000000020220101000040000NNE   20211125143048W4461C0C  00004000000000156000000204132W446  HJYHK   004300260014
BI00B32W4    #4500184576    202201277282-3243-40             CONNECTOR                CCN000000800000000800FN00000000020220101000000800NNE   20211125143038W4462N0N  00000080000001006000001282332W446  HJYHK   005600390040
BI00B32W4    #4500184576    202201277283-8123-40             CONNECTOR HOUSING        CCN000004000000004000FN00000000020220101000004000NNE   20211125143038W4462N0N  00000400000000380000000530032W446  HJYHK   005600390023
BI00B32W4    4500184577     202201277116-4100-02             TERMINAL                 CCN000030000000030000FN00000000020220101000030000NNE   20211125143059W4464P0P  00001500000000696000000990232W446  HJYHK   006400630015
BI00B32W4    4500184577     202201277114-4112-02             TERMINAL                 CCN000018000000018000FN00000000020220101000018000NNE   20211125143059W4464P0P  00000900000000598500000927132W446  HJYHK   006400630017
BI00B32W4    4500184577     202201277116-4112-02             TERMINAL                 CCN000018000000018000FN00000000020220101000018000NNE   20211125143059W4464P0P  00000600000000450000000738232W446  HJYHK   006400630015
BI00B32W4    4500184577     202201277114-4100-02             TERMINAL                 CCN000036000000036000FN00000000020220101000036000NNE   20211125143059W4464P0P  00001800000000748800001077432W446  HJYHK   006400630017
BI00B32W4    4500184577     202201277283-6448-40             CONNECTOR                CCN000001500000001500FN00000000020220101000001500NNE   20211125143059W4464N0N  00000150000001087000001329032W446  HJYHK   005600390040
BI00B32W4    4500184577     202201277114-4111-02             TERMINAL                 CCN000012000000012000FN00000000020220101000012000NNE   20211125143059W4464P0P  00001200000000758400001087032W446  HJYHK   006400630017
BI00A32W4    4500184594     202201207114-4112-02             TERMINAL                 CCN000009000000009000FN00000000020220101000009000NNE   20211125143110W4194P0P  00000900000000598500000927132W419  HJYHK   006400630017
BI00A32W4    4500184594     202201207116-4102-02             TERMINAL                 CCN000012000000012000FN00000000020220101000012000NNE   20211125143110W4194P0P  00001200000000553200000841432W419  HJYHK   006400630015
BI00A32W4    4500184594     202201207116-4026                TERMINAL                 CCN000016000000016000FN00000000020220101000016000NNE   20211125143110W4194P0P  00001600000000664000000994332W419  HJYHK   006400630017
BI00A32W4    4500184594     202201207116-4101-02             TERMINAL                 CCN000012000000012000FN00000000020220101000012000NNE   20211125143110W4194P0P  00001200000000582000000876232W419  HJYHK   006400630015
BI00A32W4    4500184594     202201207114-4101-02             TERMINAL                 CCN000015000000015000FN00000000020220101000015000NNE   20211125143110W4194P0P  00001500000000675000001003632W419  HJYHK   006400630017
BI00A32W4    4500184594     202201207116-4104-02             TERMINAL                 CCN000012000000012000FN00000000020220101000012000NNE   20211125143110W4194P0P  00001200000000580800000972432W419  HJYHK   006400630015
BI00A32W4    4500184595     202201207116-4103-02             TERMINAL                 CCN000012000000012000FN00000000020220101000012000NNE   20211125143806W4194P0P  00001200000000571200000859432W419  HJYHK   006400630015
BI00A32W4    4500184596     202201067116-4102-02             TERMINAL                 CCN000012000000012000FN00000000020220101000012000NNE   20211125143906W4194P0P  00001200000000553200000841432W419  HJYHK   006400630015
BI00B32W4    4500184604     202201277116-4103-02             TERMINAL                 CCN000012000000012000FN00000000020220101000012000NNE   20211125143913W4174P0P  00001200000000571200000859432W417  HJYHK   006400630015
BI00B32W4    4500184604     202201277116-4025                TERMINAL                 CCN000016000000016000FN00000000020220101000016000NNE   20211125143913W4174P0P  00001600000000644800000975132W417  HJYHK   006400630017
BI00B32W4    4500184604     202201277283-5843                CONNECTOR                CCN000003000000003000FN00000000020220101000003000NNE   20211125143913W4171N0N  00000150000000889000001132032W417  HJYHK   005600390040
BI00B32W4    4500184604     202201277114-6041                TERMINAL                 CCN000003600000003600FN00000000020220101000003600NNE   20211125143913W4174P0P  00000360000000580700000824232W417  HJYHK   006400630015
BI00B32W4    #4500184604    202201277282-3020                CONNECTOR                CCN000003000000003000FN00000000020220101000003000NNE   20211125143903W4172N0N  00000100000000984000001145432W417  HJYHK   005500360039
BI00A32W4    4500184609     202201277116-4103-02             TERMINAL                 CCN000012000000012000FN00000000020220101000012000NNE   20211125143922W4A24P0P  00001200000000571200000859432W4A2  HJYHK-J 006400630015
BI00A32W4    4500184609     202201277158-3169-40             SEALING PLUG             CCN000040000000040000FN00000000020220101000040000NNE   20211125143922W4A21C0C  00004000000000156000000204132W4A2  HJYHK-J 004300260014
BI00A32W4    4500184609     202201277116-4102-02             TERMINAL                 CCN000036000000036000FN00000000020220101000036000NNE   20211125143922W4A24P0P  00001200000000553200000841432W4A2  HJYHK-J 006400630015
BI00A32W4    4500184609     202201277116-4031                TERMINAL                 CCN000007500000007500FN00000000020220101000007500NNE   20211125143922W4A24P0P  00000750000000619500000904732W4A2  HJYHK-J 006400630015
BI00A32W4    4500184609     202201277116-4110-02             TERMINAL                 CCN000009000000009000FN00000000020220101000009000NNE   20211125143922W4A24P0P  00000900000000594000000882232W4A2  HJYHK-J 006400630015
BI00A32W4    4500184610     202201207116-4026                TERMINAL                 CCN000016000000016000FN00000000020220101000016000NNE   20211125143937W4A24P0P  00001600000000664000000994332W4A2  HJYHK-J 006400630017
BI00A32W4    #4500184610    202201207283-8226-30             CONNECTOR                CCN000004000000004000FN00000000020220101000004000NNE   20211125143935W4A22N0N  00000200000000820000001008032W4A2  HJYHK-J 005400370024
BI00A32W4    #4500184610    202201207157-3646                RUBBER STOPPER           CCN000020000000020000FN00000000020220101000020000NNE   20211125143935W4A22H0H  00002000000000184000000255232W4A2  HJYHK-J 002700430014
BI00A32W4    4500184611     202201137158-3167-80             WIRE SEAL                CCN000040000000040000FN00000000020220101000040000NNE   20211125143953W4A21C0C  00002000000000048000000109032W4A2  HJYHK-J 002700430014
BI00A32W4    4500184611     202201137116-4111-02             TERMINAL                 CCN000007500000007500FN00000000020220101000007500NNE   20211125143953W4A24P0P  00000750000000529500000817732W4A2  HJYHK-J 006400630015
BI00A32W4    4500184611     202201137283-7029-40             CONNECTOR                CCN000006000000006000FN00000000020220101000006000NNE   20211125143953W4A21N0N  00000600000001026000001200032W4A2  HJYHK-J 005600390023
BI00A32W4    #4500184611    202201137158-3121-80             WIRE SEAL                CCN000020000000020000FN00000000020220101000020000NNE   20211125143952W4A22C0C  00002000000000118000000187332W4A2  HJYHK-J 002700430014
BI00A32W4    #4500184611    202201137147-3642-30             CLIP                     CCN000024000000024000FN00000000020220101000024000NNE   20211125143952W4A22F0F  00000300000000542000000721332W4A2  HJYHK-J 005600390040
BI00A32W4    #4500184611    202201137283-4190-30             CONNECTOR                CCN000001920000001920FN00000000020220101000001920NNE   20211125143952W4A22N0N  00000024000000846000001115532W4A2  HJYHK-J 005600390040
BI00B32W4    #4500184606    202202107147-3642-30             CLIP                     CCN000078000000078000FN00000000020220201000078000NNE   20211125144010W4172F0F  00000300000000542000000721332W417  HJYHK   005600390040
BI00B32W9    #4500184592    202201117157-3950-80             SEAL RUBBER              CCN000040000000040000FN00000000020220101000040000NNE   20211125144024W9  2C0C  00004000000000154000000440332W9    HKYHK   002700430014
BI00B32W9    #4500184591    202202017157-3950-80             SEAL RUBBER              CCN000040000000040000FN00000000020220201000040000NNE   20211125144038W9  2C0C  00004000000000154000000440332W9    HKYHK   002700430014
BI00A32X5    TIB1042        202111297288-6547                CONNECTOR MALE ASS'Y     CCN000013500000013500FN00000000020211201000013500NNMM0020211125140214X5  4N0N  00000075000001205300001340332X5    EPYNA-E 005400370024
BI00A32X5    TAPCOR01C      202111297289-3342-40             HOUSING FEMALE ASS'Y     CCN000048000000007200FN00000000020210801000007200NNEM0020211125142907X5  1N0N  00000240000000686400000901432X5    EPYNA-E 005500360039
BI00A32X5    TIB1039A       202111297288-6547                CONNECTOR MALE ASS'Y     CCN000013500000013500FN00000000020211101000013500NNEM0020211125140411X5  4N0N  00000075000001205300001340332X5    EPYNA-E 005400370024
BI00A32X5    TIB1043        202111297288-6547                CONNECTOR MALE ASS'Y     CCN000014250000014250FN00000000020211201000014250NNMM0020211125142730X5  4N0N  00000075000001205300001340332X5    EPYNA-E 005400370024
BI00A32X5    TIB1043        202111297289-3342-90             HOUSING FEMALE ASS'Y     CCN000009600000009600FN00000000020211201000009600NNMM0020211125140745X5  1N0N  00000240000000686400000901432X5    EPYNA-E 005500360039
BI00A32X5    TIB2003        202111307388-2978-30             HOUSING MALE ASS'Y       CCN000008640000008640FN00000000020220301000008640NNMM0020211125143050X5  1N0N  00000048000000742000001122032X5    EPYNA-E 005500360039
BI00B32Y2    #TAU1154       202112097158-3007-10             RUBBER STOPPER           CCN000020000000020000FN00000000020220401000020000NNE   20211125132534    2H0H  00002000000000308000000362732Y2    YUYUY   002700430014
BI00B32Y2    #TAU1154       202112097158-3008-80             RUBBER STOPPER           CCN000060000000060000FN00000000020220401000060000NNE   20211125132534    2C0C  00002000000000288000000343032Y2    YUYUY   004300270014
BI00B32Y2    #TAU1154       202112097289-2918-40             HOUSING FEMALE ASS'Y     CCN000010000000010000FN00000000020220401000010000NNE   20211125132534    2N0N  00000100000001020000001147032Y2    YUYUY   005400360024
BI00B32Y4    #BTH32055      202201067158-3374-90             CONNECTOR WIRE SEAL      CCN000040000000040000FN00000000020211101000040000NNE   20211125132534    2H0H  00002000000000172000000229332Y4    BIYAB-I 002700430014
BI00B32Y4    #BTH32055      202201067282-8395-40             CONNECTOR                CCN000001000000001000FN00000000020211101000001000NNE   20211125132534    2N0N  00000100000001009000001188032Y4    BIYAB-I 005500360039
BI00B32Y4    #BTH32055      202201067283-8398-40             CONNECTOR                CCN000006160000006160FN00000000020211101000006160NNE   20211125132534    2N0N  00000154000001007000001171332Y4    BIYAB-I 005600390023
BI00B32Y4    MTH32052       202202037288-5000                HOUSING MALE ASS'Y       CCN000001344000001344FN00000000020211101000001344NNE   20211125132534    1N0N  00000033600000825200001035232Y4    BIYAB-I 005400370024
BI00B32Y4    MTH32052       202202037289-5000                HOUSING FEMALE ASS'Y     CCN000002736000002736FN00000000020211101000002736NNE   20211125132534    1N0N  00000030400000549000000759032Y4    BIYAB-I 005400370024
BI00B32Y4    #MTH32052      202202037283-8397-40             CONNECTOR                CCN000001540000001540FN00000000020211101000001540NNE   20211125132534    2N0N  00000154000001007000001222732Y4    BIYAB-I 005600390023
