BI00B32CC    CTA32014       202201207289-3342-30             HOUSING FEMALE ASS'Y     CCN000007200000007200FN00000000020211101000007200NNM00020220116135704    1N0N  00000240000000686400000901432CC    BIYABCBU005500360039
BI00B32J1    390112         202202217158-3167-80             WIRE SEAL                CCN002640000002640000FN00000000020220101002640000NNMD0220220116134606    1C0C  00002000000000048000000109032J1    UKYEL-BL002700430014
BI00B32M1    TCV1115        202201207289-3342-30             HOUSING FEMALE ASS'Y     CCN000024000000024000FN00000000020211101000024000NNM00020220116135737    1N0N  00000240000000686400000901432M1    VNYEV   005500360039
BI00A32X5    TIB1051        202201247172-5403-30             SEALED PACKING           PCN000016000000016000FN00000000020220201000016000NNM00020220116135543X5  1C0C  00000400000000653600000701732X5    EPYNA-E 004300270014
BI00A32X5    TIB2001        202201247172-5403-30             SEALED PACKING           PCN000008000000008000FN00000000020220201000008000NNMM0020220116135601X5  1C0C  00000400000000653600000701732X5    EPYNA-E 004300270014
BI00A32Y6    STAP31121      202201207158-3009-60             RUBBER STOPPER           PCN000420000000420000FN00000000020211001000420000NNM00020220116123015    1C0C  00002000000000338000000386232Y6    BSYBL-S 002700430014
BI00A32Y6    STAP31121      202201207289-3342-30             HOUSING FEMALE ASS'Y     PCN000024000000024000FN00000000020211001000024000NNM00020220116123015    1N0N  00000240000000686400000901432Y6    BSYBL-S 005500360039
BI00A32Y6    STAP32031      202201207289-3342-30             HOUSING FEMALE ASS'Y     PCN000019200000019200FN00000000020220301000019200NNM00020220116123029    1N0N  00000240000000686400000901432Y6    BSYBL-S 005500360039
