BI00B32D2    DGTW2215       2022021718000004530              AV 8 B                   CCN000017500000017500FN00000000020220401000017500NNE   20220116093920    1W    00000010000010466200000000032D2    TGYOT-G 000000000000KR122041
BI00B32D2    DGTW2215       2022021718000004540              AV 8 W                   CCN000005100000005100FN00000000020220401000005100NNE   20220116093920    1W    00000010000010466200000000032D2    TGYOT-G 000000000000KR122043
BI00B32D2    DGTW2215       2022021718000004543              AV 8 W/B                 CCN000002800000002800FN00000000020220401000002800NNE   20220116093920    1W    00000010000010466200000000032D2    TGYOT-G 000000000000KR122044
BI00B32D2    DGTW2215       2022021718000004590              AV 8 L                   CCN000004600000004600FN00000000020220401000004600NNE   20220116093920    1W    00000010000010466200000000032D2    TGYOT-G 000000000000KR122042
BI00B32D2    @DGTW2215      20220217181AD2002ZZ              CIVUSAS-S 0.35X2 B       CCN000009000000009000FN00000000020220401000009000NNE   20220116093918    1W    00000045000001713700000000032D2    TGYOT-G 000000000000KR122016
BI00B32D2    @DGTW2215      20220217181AD2003ZZ              CIVUSAS-S 0.35X3 B       CCN000006650000006650FN00000000020220401000006650NNE   20220116093918    1W    00000035000002172100000000032D2    TGYOT-G 000000000000KR122017
BI00B32D2    @DGTW2215      20220217181AD2004ZZ              CIVUSAS-S 0.35X4 B       CCN000005700000005700FN00000000020220401000005700NNE   20220116093918    1W    00000030000002799900000000032D2    TGYOT-G 000000000000KR122018
BI00B32D2    @DGTW2215      20220217181E48037ZZ              CAVSAS-S 0.3X4 GY        CCN000003000000003000FN00000000020220401000003000NNE   20220116093918    1W    00000025000003262000000000032D2    TGYOT-G 000000000000KR122019
BI00B32D2    @DGTW2215      20220217181E50004ZZ              AVSSCS-S 0.5FX1 DGY      CCN000003600000003600FN00000000020220401000003600NNE   20220116093918    1W    00000040000001909700000000032D2    TGYOT-G 000000000000KR122020
BI00B32D2    @DGTW2215      20220217181E50005ZZ              AVSSCS-S 0.5FX1 DGY/W    CCN000003200000003200FN00000000020220401000003200NNE   20220116093918    1W    00000040000001909700000000032D2    TGYOT-G 000000000000KR122022
BI00B32D2    @DGTW2215      20220217181E50007ZZ              AVSSCS-S 0.5FX1 DGY/L    CCN000000400000000400FN00000000020220401000000400NNE   20220116093918    1W    00000040000001909700000000032D2    TGYOT-G 000000000000KR122021
BI00B32D2    @DGTW2215      20220217181E50016ZZ              AVSSCS-S 0.5FX2 DGY/R    CCN000001200000001200FN00000000020220401000001200NNE   20220116093918    1W    00000030000003096000000000032D2    TGYOT-G 000000000000KR122023
BI00B32D2    @DGTW2215      20220217181E50036ZZ              AVSSCS-S 0.3FX2 DGY      CCN000001750000001750FN00000000020220401000001750NNE   20220116093918    1W    00000035000002165000000000032D2    TGYOT-G 000000000000KR122024
BI00B32D2    @DGTW2215      20220217181F21014ZZ              AVSSHCS-S 0.5FX2 B/L     CCN000001800000001800FN00000000020220401000001800NNE   20220116093918    1W    00000030000002531400000000032D2    TGYOT-G 000000000000KR122026
BI00B32D2    @DGTW2215      20220217181F21016ZZ              AVSSHCS-S 0.5FX2 B/BR    CCN000000900000000900FN00000000020220401000000900NNE   20220116093918    1W    00000030000002531400000000032D2    TGYOT-G 000000000000KR122025
BI00B32D2    @DGTW2215      20220217181F21031ZZ              AVSSHCS-S 1.25FX2 B/P    CCN000001200000001200FN00000000020220401000001200NNE   20220116093918    1W    00000020000004267300000000032D2    TGYOT-G 000000000000KR122027
BI00B32G2    SA2203AJMW     2022020918007704170              AVSS 1.25F Y             CCN000000800000000800FN00000000020220301000000800NNE   20220116100837    1W    00000080000001389000000000032G2    AISUAI  000000000000IS421001
BI00B32J1    @390392        20220207181AD2001ZZ              CIVUSAS-S 0.35X1 B       CCN000102300000102300FN00000000020220201000102300NNM   20220116093045    1W    00000055000001540800000000032J1    UKYEL-BL000000000000KG421001
BI00B32J1    @390392        20220207181AD2002ZZ              CIVUSAS-S 0.35X2 B       CCN000103050000103050FN00000000020220201000103050NNM   20220116093045    1W    00000045000001713700000000032J1    UKYEL-BL000000000000KG421002
BI00B32J1    @390392        20220207181AD2003ZZ              CIVUSAS-S 0.35X3 B       CCN000010150000010150FN00000000020220201000010150NNM   20220116093045    1W    00000035000002172100000000032J1    UKYEL-BL000000000000KG421003
BI00B32J1    @390392        20220207181E48013ZZ              CAVSAS-S 0.3X3 GY        CCN000003250000003250FN00000000020220201000003250NNM   20220116093045    1W    00000025000002778200000000032J1    UKYEL-BL000000000000KG421006
BI00B32J1    @390392        20220207181E48015ZZ              CAVSAS-S 0.5X1 GY        CCN000008800000008800FN00000000020220201000008800NNM   20220116093045    1W    00000040000001900600000000032J1    UKYEL-BL000000000000KG421004
BI00B32J1    @390392        20220207181E48022ZZ              CAVSAS-S 0.5X2 GY        CCN000001200000001200FN00000000020220201000001200NNM   20220116093045    1W    00000030000002561000000000032J1    UKYEL-BL000000000000KG421005
BI00B32R8    TT2202AAMW     20220125180D0203980              AVSSH 0.5F BR            CCN000007500000007500FN00000000020220201000007500NNE20 20220116102640    1W    00000150000000689000000000032R8    TTTJY   000000000000NU321001
BI00B32R8    TT2202AAMW     20220125180D0203960              AVSSH 0.5F G             CCN000001500000001500FN00000000020220201000001500NNE20 20220116102640    1W    00000150000000689000000000032R8    TTTJY   000000000000NU321002
BI00B32R8    TT2202AAMW     20220125180D0203963              AVSSH 0.5F G/B           CCN000003000000003000FN00000000020220201000003000NNE20 20220116102640    1W    00000150000000689000000000032R8    TTTJY   000000000000NU321003
BI00B32R8    TT2202AAMW     20220125180D0203965              AVSSH 0.5F G/R           CCN000001500000001500FN00000000020220201000001500NNE20 20220116102640    1W    00000150000000689000000000032R8    TTTJY   000000000000NU321004
BI00B32R8    TT2202AAMW     20220125180D0203941              AVSSH 0.5F GY            CCN000001500000001500FN00000000020220201000001500NNE20 20220116102640    1W    00000150000000689000000000032R8    TTTJY   000000000000NU321005
BI00B32R8    TT2202AAMW     20220125180D0203993              AVSSH 0.5F L/B           CCN000003000000003000FN00000000020220201000003000NNE20 20220116102640    1W    00000150000000689000000000032R8    TTTJY   000000000000NU321006
BI00B32R8    TT2202AAMW     20220125180D0203994              AVSSH 0.5F L/W           CCN000003000000003000FN00000000020220201000003000NNE20 20220116102640    1W    00000150000000689000000000032R8    TTTJY   000000000000NU321007
BI00B32R8    TT2202AAMW     20220125180D0203961              AVSSH 0.5F LG            CCN000003000000003000FN00000000020220201000003000NNE20 20220116102640    1W    00000150000000689000000000032R8    TTTJY   000000000000NU321008
BI00B32R8    TT2202AAMW     20220125180D0203952              AVSSH 0.5F P             CCN000001500000001500FN00000000020220201000001500NNE20 20220116102640    1W    00000150000000689000000000032R8    TTTJY   000000000000NU321009
BI00B32R8    TT2202AAMW     20220125180D02039G6              AVSSH 0.5F P/L           CCN000001500000001500FN00000000020220201000001500NNE20 20220116102640    1W    00000150000000689000000000032R8    TTTJY   000000000000NU321010
BI00B32R8    TT2202AAMW     20220125180D0203959              AVSSH 0.5F R/L           CCN000001500000001500FN00000000020220201000001500NNE20 20220116102640    1W    00000150000000689000000000032R8    TTTJY   000000000000NU321011
BI00B32R8    TT2202AAMW     20220125180D0203957              AVSSH 0.5F R/Y           CCN000003000000003000FN00000000020220201000003000NNE20 20220116102640    1W    00000150000000689000000000032R8    TTTJY   000000000000NU321012
BI00B32R8    TT2202AAMW     20220125180D0203943              AVSSH 0.5F W/B           CCN000007500000007500FN00000000020220201000007500NNE20 20220116102640    1W    00000150000000689000000000032R8    TTTJY   000000000000NU321013
BI00B32R8    TT2202AAMW     20220125180D0203946              AVSSH 0.5F W/G           CCN000003000000003000FN00000000020220201000003000NNE20 20220116102640    1W    00000150000000689000000000032R8    TTTJY   000000000000NU321014
BI00B32R8    TT2202AAMW     20220125180D0203949              AVSSH 0.5F W/L           CCN000003000000003000FN00000000020220201000003000NNE20 20220116102640    1W    00000150000000689000000000032R8    TTTJY   000000000000NU321015
BI00B32R8    TT2202AAMW     20220125180D0203973              AVSSH 0.5F Y/B           CCN000001500000001500FN00000000020220201000001500NNE20 20220116102640    1W    00000150000000689000000000032R8    TTTJY   000000000000NU321016
BI00B32R8    TT2202AAMW     20220125180D0203976              AVSSH 0.5F Y/G           CCN000001500000001500FN00000000020220201000001500NNE20 20220116102640    1W    00000150000000689000000000032R8    TTTJY   000000000000NU321017
BI00B32R8    TT2202AAMW     20220125180D0204034              AVSSH 0.75F B/W          CCN000001000000001000FN00000000020220201000001000NNE20 20220116102640    1W    00000100000000934000000000032R8    TTTJY   000000000000NU321018
BI00B32R8    TT2202AAMW     20220125180D0204080              AVSSH 0.75F BR           CCN000001000000001000FN00000000020220201000001000NNE20 20220116102640    1W    00000100000000934000000000032R8    TTTJY   000000000000NU321019
BI00B32R8    TT2202AAMW     20220125180D0204043              AVSSH 0.75F W/B          CCN000001000000001000FN00000000020220201000001000NNE20 20220116102640    1W    00000100000000934000000000032R8    TTTJY   000000000000NU321020
BI00B32R8    TT2202AAMW     20220125180D0204159              AVSSH 1.25F R/L          CCN000001600000001600FN00000000020220201000001600NNE20 20220116102640    1W    00000080000001458000000000032R8    TTTJY   000000000000NU321021
BI00B32W7    SC2202AJMW     2022020918000004550              AV 8 R                   CCN000004800000004800FN00000000020220201000004800NNE   20220116101244    1W    00000010000010466200000000032W7    SYSYA-CH000000000000WG421001
BI00B32W7    SC2202AJMW     2022020918000004570              AV 8 Y                   CCN000001500000001500FN00000000020220201000001500NNE   20220116101244    1W    00000010000010466200000000032W7    SYSYA-CH000000000000WG421002
