BI00A1200    AWNYS-AL-21-02 2021122018000004530              AV 8 B                   PCN000000300000000300FN00000000020211201000000300NNE30 20211216155611    1W    0000001000000914800000000001200    YCYC    000000000000RZ11C016
BI00B32AF    @TTB1094       20210903181AD2004ZZ              CIVUSAS-S 0.35X4 B       CCN000015900000006900FN00000000020210901000006900NNM22 20211216140955    1W    00000030000002784000000000032AF    HBYHVTB 000000000000UZ318132
BI00A32AF    @TTB1094       20211220181AD2004ZZ              CIVUSAS-S 0.35X4 B       PCN000009000000009000FN00000000020210901000009000NNM26 20211216140955    1W    00000030000002784000000000032AF    HBYHVTB 000000000000UZ318132
BI00B32AG    XG2201ACMW     2021122418000004590              AV 8 L                   CCN000000300000000300FN00000000020220101000000300NNE20 20211216092436    1W    00000010000009148000000000032AG    XGXGY   000000000000XU31C001
BI00A32B6    W72004A        202112221801W003930              IVSSH 0.5F B             CCN000021600000021600FN00000000020220301000021600NNE   20211216142257B6  1W    00000180000000625000000000032B6    AXARNE-M000000000000AT21C001
BI00A32B6    W72004A        202112221801W003992              IVSSH 0.5F V             CCN000001800000001800FN00000000020220301000001800NNE   20211216142257B6  1W    00000180000000625000000000032B6    AXARNE-M000000000000AT21C002
BI00A32B6    W72004A        202112221801W004052              IVSSH 0.75F P            CCN000001300000001300FN00000000020220301000001300NNE   20211216142257B6  1W    00000130000000882000000000032B6    AXARNE-M000000000000AT21C004
BI00A32B6    W72004A        202112221801W004090              IVSSH 0.75F L            CCN000003900000003900FN00000000020220301000003900NNE   20211216142257B6  1W    00000130000000882000000000032B6    AXARNE-M000000000000AT21C003
BI00B32E1    WC202A         2022011218000004530              AV 8 B                   CCN000002000000002000FN00000000020220201000002000NNE   20211216093140    1W    00000010000009148000000000032E1    SPYSE   000000000000KB41C001
BI00B32E1    WC202A         2022011218000004570              AV 8 Y                   CCN000005200000005200FN00000000020220201000005200NNE   20211216093140    1W    00000010000009148000000000032E1    SPYSE   000000000000KB41C002
BI00A32H2    @TAW1111       20210928181AD2004ZZ              CIVUSAS-S 0.35X4 B       PCN000062100000041100FN00000000020211101000041100NNM21 20211216132918    1W    00000030000002784000000000032H2    HVYHV   000000000000UJ519006
BI00B32H2    @TAW109D       20211001181AD2004ZZ              CIVUSAS-S 0.35X4 B       CCN000021600000000000FY00000000020210901000000000NNE10 20211216132017    1W    00000030000002784000000000032H2    HVYHV   000000000000UD218005
BI00A32H2    @TAW112L       20211217181F21031ZZ              AVSSHCS-S 1.25FX2 B/P    CCN000000200000000200FN00000000020211201000000200NNE   20211216111356    1W    00000020000004262000000000032H2    HVYHV   000000000000UA11C001
BI00A32H2    @TAW109D       20211221181AD2004ZZ              CIVUSAS-S 0.35X4 B       PCN000010500000000000FY00000000020210901000000000NNE27 20211216132005    1W    00000030000002784000000000032H2    HVYHV   000000000000UD218005
BI00A32H2    @TAW109D       20211223181AD2004ZZ              CIVUSAS-S 0.35X4 B       PCN000010500000000000FY00000000020210901000000000NNE28 20211216132005    1W    00000030000002784000000000032H2    HVYHV   000000000000UD218005
BI00A32H2    @TAW1111       20211221181AD2004ZZ              CIVUSAS-S 0.35X4 B       PCN000010500000010500FN00000000020211101000010500NNM23 20211216132731    1W    00000030000002784000000000032H2    HVYHV   000000000000UJ519006
BI00A32H2    @TAW1111       20211223181AD2004ZZ              CIVUSAS-S 0.35X4 B       PCN000010500000010500FN00000000020211101000010500NNM24 20211216132751    1W    00000030000002784000000000032H2    HVYHV   000000000000UJ519006
BI00B32P8    TAPAW-2022     2022011218000004530              AV 8 B                   CCN000013300000013300FN00000000020210201000013300NNM   20211216181005    1W    00000010000009148000000000032P8    YIYTM   000000000000YM41C054
BI00B32P8    TAPAW-2022     2022011218000004560              AV 8 G                   CCN000007700000007700FN00000000020210201000007700NNM   20211216181005    1W    00000010000009148000000000032P8    YIYTM   000000000000YM41C055
BI00B32P8    TAPAW-2022     2022011218000004543              AV 8 W/B                 CCN000003300000003300FN00000000020210201000003300NNM   20211216181005    1W    00000010000009148000000000032P8    YIYTM   000000000000YM41C057
BI00B32P8    TAPAW-2022     2022011218009604037              AVS 0.85 B/Y             CCN000001000000001000FN00000000020210201000001000NNM   20211216181005    1W    00000100000001148000000000032P8    YIYTM   000000000000YM41C163
BI00B32P8    TAPAW-2022     2022011218007703730              AVSS 0.3F B              CCN000002000000002000FN00000000020210201000002000NNM   20211216181005    1W    00000200000000496000000000032P8    YIYTM   000000000000YM41C059
BI00B32P8    TAPAW-2022     2022011218007703765              AVSS 0.3F G/R            CCN000002000000002000FN00000000020210201000002000NNM   20211216181005    1W    00000200000000496000000000032P8    YIYTM   000000000000YM41C060
BI00B32P8    TAPAW-2022     2022011218007703767              AVSS 0.3F G/Y            CCN000004000000004000FN00000000020210201000004000NNM   20211216181005    1W    00000200000000496000000000032P8    YIYTM   000000000000YM41C061
BI00B32P8    TAPAW-2022     2022011218007703795              AVSS 0.3F L/R            CCN000002000000002000FN00000000020210201000002000NNM   20211216181005    1W    00000200000000496000000000032P8    YIYTM   000000000000YM41C062
BI00B32P8    TAPAW-2022     2022011218007703794              AVSS 0.3F L/W            CCN000002000000002000FN00000000020210201000002000NNM   20211216181005    1W    00000200000000496000000000032P8    YIYTM   000000000000YM41C063
BI00B32P8    TAPAW-2022     2022011218007703773              AVSS 0.3F Y/B            CCN000002000000002000FN00000000020210201000002000NNM   20211216181005    1W    00000200000000496000000000032P8    YIYTM   000000000000YM41C064
BI00B32P8    TAPAW-2022     2022011218007703775              AVSS 0.3F Y/R            CCN000002000000002000FN00000000020210201000002000NNM   20211216181005    1W    00000200000000496000000000032P8    YIYTM   000000000000YM41C065
BI00B32P8    TAPAW-2022     2022011218007703930              AVSS 0.5F B              CCN000019500000019500FN00000000020210201000019500NNM   20211216181005    1W    00000150000000674000000000032P8    YIYTM   000000000000YM41C066
BI00B32P8    TAPAW-2022     2022011218007703936              AVSS 0.5F B/G            CCN000004500000004500FN00000000020210201000004500NNM   20211216181005    1W    00000150000000674000000000032P8    YIYTM   000000000000YM41C067
BI00B32P8    TAPAW-2022     2022011218007703939              AVSS 0.5F B/L            CCN000006000000006000FN00000000020210201000006000NNM   20211216181005    1W    00000150000000674000000000032P8    YIYTM   000000000000YM41C068
BI00B32P8    TAPAW-2022     20220112180077039A8              AVSS 0.5F B/P            CCN000013500000013500FN00000000020210201000013500NNM   20211216181005    1W    00000150000000674000000000032P8    YIYTM   000000000000YM41C069
BI00B32P8    TAPAW-2022     2022011218007703935              AVSS 0.5F B/R            CCN000004500000004500FN00000000020210201000004500NNM   20211216181005    1W    00000150000000674000000000032P8    YIYTM   000000000000YM41C070
BI00B32P8    TAPAW-2022     2022011218007703934              AVSS 0.5F B/W            CCN000006000000006000FN00000000020210201000006000NNM   20211216181005    1W    00000150000000674000000000032P8    YIYTM   000000000000YM41C071
BI00B32P8    TAPAW-2022     2022011218007703937              AVSS 0.5F B/Y            CCN000004500000004500FN00000000020210201000004500NNM   20211216181005    1W    00000150000000674000000000032P8    YIYTM   000000000000YM41C072
BI00B32P8    TAPAW-2022     2022011218007703980              AVSS 0.5F BR             CCN000001500000001500FN00000000020210201000001500NNM   20211216181005    1W    00000150000000674000000000032P8    YIYTM   000000000000YM41C073
BI00B32P8    TAPAW-2022     2022011218007703965              AVSS 0.5F G/R            CCN000003000000003000FN00000000020210201000003000NNM   20211216181005    1W    00000150000000674000000000032P8    YIYTM   000000000000YM41C074
BI00B32P8    TAPAW-2022     2022011218007703964              AVSS 0.5F G/W            CCN000006000000006000FN00000000020210201000006000NNM   20211216181005    1W    00000150000000674000000000032P8    YIYTM   000000000000YM41C075
BI00B32P8    TAPAW-2022     2022011218007703941              AVSS 0.5F GY             CCN000003000000003000FN00000000020210201000003000NNM   20211216181005    1W    00000150000000674000000000032P8    YIYTM   000000000000YM41C076
BI00B32P8    TAPAW-2022     20220112180077039F0              AVSS 0.5F GY/B           CCN000001500000001500FN00000000020210201000001500NNM   20211216181005    1W    00000150000000674000000000032P8    YIYTM   000000000000YM41C077
BI00B32P8    TAPAW-2022     20220112180077039H1              AVSS 0.5F GY/G           CCN000001500000001500FN00000000020210201000001500NNM   20211216181005    1W    00000150000000674000000000032P8    YIYTM   000000000000YM41C078
BI00B32P8    TAPAW-2022     2022011218007703911              AVSS 0.5F GY/L           CCN000001500000001500FN00000000020210201000001500NNM   20211216181005    1W    00000150000000674000000000032P8    YIYTM   000000000000YM41C079
BI00B32P8    TAPAW-2022     2022011218007703990              AVSS 0.5F L              CCN000018000000018000FN00000000020210201000018000NNM   20211216181005    1W    00000150000000674000000000032P8    YIYTM   000000000000YM41C080
BI00B32P8    TAPAW-2022     2022011218007703995              AVSS 0.5F L/R            CCN000001500000001500FN00000000020210201000001500NNM   20211216181005    1W    00000150000000674000000000032P8    YIYTM   000000000000YM41C081
BI00B32P8    TAPAW-2022     2022011218007703997              AVSS 0.5F L/Y            CCN000001500000001500FN00000000020210201000001500NNM   20211216181005    1W    00000150000000674000000000032P8    YIYTM   000000000000YM41C082
BI00B32P8    TAPAW-2022     2022011218007703907              AVSS 0.5F P/B            CCN000001500000001500FN00000000020210201000001500NNM   20211216181005    1W    00000150000000674000000000032P8    YIYTM   000000000000YM41C083
BI00B32P8    TAPAW-2022     2022011218007703953              AVSS 0.5F R/B            CCN000001500000001500FN00000000020210201000001500NNM   20211216181005    1W    00000150000000674000000000032P8    YIYTM   000000000000YM41C084
BI00B32P8    TAPAW-2022     2022011218007703957              AVSS 0.5F R/Y            CCN000004500000004500FN00000000020210201000004500NNM   20211216181005    1W    00000150000000674000000000032P8    YIYTM   000000000000YM41C085
BI00B32P8    TAPAW-2022     2022011218007703992              AVSS 0.5F V              CCN000003000000003000FN00000000020210201000003000NNM   20211216181005    1W    00000150000000674000000000032P8    YIYTM   000000000000YM41C086
BI00B32P8    TAPAW-2022     2022011218007703940              AVSS 0.5F W              CCN000010500000010500FN00000000020210201000010500NNM   20211216181005    1W    00000150000000674000000000032P8    YIYTM   000000000000YM41C087
BI00B32P8    TAPAW-2022     2022011218007703943              AVSS 0.5F W/B            CCN000004500000004500FN00000000020210201000004500NNM   20211216181005    1W    00000150000000674000000000032P8    YIYTM   000000000000YM41C088
BI00B32P8    TAPAW-2022     2022011218007703946              AVSS 0.5F W/G            CCN000001500000001500FN00000000020210201000001500NNM   20211216181005    1W    00000150000000674000000000032P8    YIYTM   000000000000YM41C089
BI00B32P8    TAPAW-2022     2022011218007703949              AVSS 0.5F W/L            CCN000003000000003000FN00000000020210201000003000NNM   20211216181005    1W    00000150000000674000000000032P8    YIYTM   000000000000YM41C090
BI00B32P8    TAPAW-2022     2022011218007703945              AVSS 0.5F W/R            CCN000001500000001500FN00000000020210201000001500NNM   20211216181005    1W    00000150000000674000000000032P8    YIYTM   000000000000YM41C091
BI00B32P8    TAPAW-2022     2022011218007703970              AVSS 0.5F Y              CCN000007500000007500FN00000000020210201000007500NNM   20211216181005    1W    00000150000000674000000000032P8    YIYTM   000000000000YM41C092
BI00B32P8    TAPAW-2022     2022011218007703973              AVSS 0.5F Y/B            CCN000006000000006000FN00000000020210201000006000NNM   20211216181005    1W    00000150000000674000000000032P8    YIYTM   000000000000YM41C093
BI00B32P8    TAPAW-2022     2022011218007703976              AVSS 0.5F Y/G            CCN000001500000001500FN00000000020210201000001500NNM   20211216181005    1W    00000150000000674000000000032P8    YIYTM   000000000000YM41C094
BI00B32P8    TAPAW-2022     2022011218007703979              AVSS 0.5F Y/L            CCN000003000000003000FN00000000020210201000003000NNM   20211216181005    1W    00000150000000674000000000032P8    YIYTM   000000000000YM41C095
BI00B32P8    TAPAW-2022     2022011218007703975              AVSS 0.5F Y/R            CCN000009000000009000FN00000000020210201000009000NNM   20211216181005    1W    00000150000000674000000000032P8    YIYTM   000000000000YM41C096
BI00B32P8    TAPAW-2022     2022011218007704030              AVSS 0.75F B             CCN000033000000033000FN00000000020210201000033000NNM   20211216181005    1W    00000100000000943000000000032P8    YIYTM   000000000000YM41C097
BI00B32P8    TAPAW-2022     2022011218007704036              AVSS 0.75F B/G           CCN000016000000016000FN00000000020210201000016000NNM   20211216181005    1W    00000100000000943000000000032P8    YIYTM   000000000000YM41C098
BI00B32P8    TAPAW-2022     2022011218007704039              AVSS 0.75F B/L           CCN000004000000004000FN00000000020210201000004000NNM   20211216181005    1W    00000100000000943000000000032P8    YIYTM   000000000000YM41C099
BI00B32P8    TAPAW-2022     2022011218007704035              AVSS 0.75F B/R           CCN000013000000013000FN00000000020210201000013000NNM   20211216181005    1W    00000100000000943000000000032P8    YIYTM   000000000000YM41C101
BI00B32P8    TAPAW-2022     2022011218007704034              AVSS 0.75F B/W           CCN000019000000019000FN00000000020210201000019000NNM   20211216181005    1W    00000100000000943000000000032P8    YIYTM   000000000000YM41C102
BI00B32P8    TAPAW-2022     2022011218007704037              AVSS 0.75F B/Y           CCN000016000000016000FN00000000020210201000016000NNM   20211216181005    1W    00000100000000943000000000032P8    YIYTM   000000000000YM41C103
BI00B32P8    TAPAW-2022     2022011218007704080              AVSS 0.75F BR            CCN000001000000001000FN00000000020210201000001000NNM   20211216181005    1W    00000100000000943000000000032P8    YIYTM   000000000000YM41C104
BI00B32P8    TAPAW-2022     2022011218007704084              AVSS 0.75F BR/W          CCN000001000000001000FN00000000020210201000001000NNM   20211216181005    1W    00000100000000943000000000032P8    YIYTM   000000000000YM41C105
BI00B32P8    TAPAW-2022     2022011218007704060              AVSS 0.75F G             CCN000017000000017000FN00000000020210201000017000NNM   20211216181005    1W    00000100000000943000000000032P8    YIYTM   000000000000YM41C106
BI00B32P8    TAPAW-2022     2022011218007704063              AVSS 0.75F G/B           CCN000002000000002000FN00000000020210201000002000NNM   20211216181005    1W    00000100000000943000000000032P8    YIYTM   000000000000YM41C107
BI00B32P8    TAPAW-2022     2022011218007704065              AVSS 0.75F G/R           CCN000006000000006000FN00000000020210201000006000NNM   20211216181005    1W    00000100000000943000000000032P8    YIYTM   000000000000YM41C108
BI00B32P8    TAPAW-2022     2022011218007704064              AVSS 0.75F G/W           CCN000008000000008000FN00000000020210201000008000NNM   20211216181005    1W    00000100000000943000000000032P8    YIYTM   000000000000YM41C109
BI00B32P8    TAPAW-2022     2022011218007704067              AVSS 0.75F G/Y           CCN000010000000010000FN00000000020210201000010000NNM   20211216181005    1W    00000100000000943000000000032P8    YIYTM   000000000000YM41C110
BI00B32P8    TAPAW-2022     2022011218007704041              AVSS 0.75F GY            CCN000007000000007000FN00000000020210201000007000NNM   20211216181005    1W    00000100000000943000000000032P8    YIYTM   000000000000YM41C111
BI00B32P8    TAPAW-2022     2022011218007704011              AVSS 0.75F GY/L          CCN000007000000007000FN00000000020210201000007000NNM   20211216181005    1W    00000100000000943000000000032P8    YIYTM   000000000000YM41C114
BI00B32P8    TAPAW-2022     2022011218007704090              AVSS 0.75F L             CCN000013000000013000FN00000000020210201000013000NNM   20211216181005    1W    00000100000000943000000000032P8    YIYTM   000000000000YM41C116
BI00B32P8    TAPAW-2022     2022011218007704093              AVSS 0.75F L/B           CCN000005000000005000FN00000000020210201000005000NNM   20211216181005    1W    00000100000000943000000000032P8    YIYTM   000000000000YM41C117
BI00B32P8    TAPAW-2022     2022011218007704096              AVSS 0.75F L/G           CCN000001000000001000FN00000000020210201000001000NNM   20211216181005    1W    00000100000000943000000000032P8    YIYTM   000000000000YM41C118
BI00B32P8    TAPAW-2022     2022011218007704095              AVSS 0.75F L/R           CCN000002000000002000FN00000000020210201000002000NNM   20211216181005    1W    00000100000000943000000000032P8    YIYTM   000000000000YM41C119
BI00B32P8    TAPAW-2022     2022011218007704094              AVSS 0.75F L/W           CCN000006000000006000FN00000000020210201000006000NNM   20211216181005    1W    00000100000000943000000000032P8    YIYTM   000000000000YM41C120
BI00B32P8    TAPAW-2022     2022011218007704097              AVSS 0.75F L/Y           CCN000009000000009000FN00000000020210201000009000NNM   20211216181005    1W    00000100000000943000000000032P8    YIYTM   000000000000YM41C121
BI00B32P8    TAPAW-2022     2022011218007704061              AVSS 0.75F LG            CCN000001000000001000FN00000000020210201000001000NNM   20211216181005    1W    00000100000000943000000000032P8    YIYTM   000000000000YM41C122
BI00B32P8    TAPAW-2022     2022011218007704052              AVSS 0.75F P             CCN000001000000001000FN00000000020210201000001000NNM   20211216181005    1W    00000100000000943000000000032P8    YIYTM   000000000000YM41C124
BI00B32P8    TAPAW-2022     20220112180077040H2              AVSS 0.75F P/G           CCN000002000000002000FN00000000020210201000002000NNM   20211216181005    1W    00000100000000943000000000032P8    YIYTM   000000000000YM41C125
BI00B32P8    TAPAW-2022     2022011218007704050              AVSS 0.75F R             CCN000013000000013000FN00000000020210201000013000NNM   20211216181005    1W    00000100000000943000000000032P8    YIYTM   000000000000YM41C126
BI00B32P8    TAPAW-2022     2022011218007704053              AVSS 0.75F R/B           CCN000002000000002000FN00000000020210201000002000NNM   20211216181005    1W    00000100000000943000000000032P8    YIYTM   000000000000YM41C127
BI00B32P8    TAPAW-2022     2022011218007704056              AVSS 0.75F R/G           CCN000004000000004000FN00000000020210201000004000NNM   20211216181005    1W    00000100000000943000000000032P8    YIYTM   000000000000YM41C128
BI00B32P8    TAPAW-2022     2022011218007704059              AVSS 0.75F R/L           CCN000004000000004000FN00000000020210201000004000NNM   20211216181005    1W    00000100000000943000000000032P8    YIYTM   000000000000YM41C129
BI00B32P8    TAPAW-2022     2022011218007704054              AVSS 0.75F R/W           CCN000006000000006000FN00000000020210201000006000NNM   20211216181005    1W    00000100000000943000000000032P8    YIYTM   000000000000YM41C130
BI00B32P8    TAPAW-2022     2022011218007704057              AVSS 0.75F R/Y           CCN000008000000008000FN00000000020210201000008000NNM   20211216181005    1W    00000100000000943000000000032P8    YIYTM   000000000000YM41C131
BI00B32P8    TAPAW-2022     2022011218007704092              AVSS 0.75F V             CCN000005000000005000FN00000000020210201000005000NNM   20211216181005    1W    00000100000000943000000000032P8    YIYTM   000000000000YM41C132
BI00B32P8    TAPAW-2022     2022011218007704040              AVSS 0.75F W             CCN000008000000008000FN00000000020210201000008000NNM   20211216181005    1W    00000100000000943000000000032P8    YIYTM   000000000000YM41C135
BI00B32P8    TAPAW-2022     2022011218007704046              AVSS 0.75F W/G           CCN000004000000004000FN00000000020210201000004000NNM   20211216181005    1W    00000100000000943000000000032P8    YIYTM   000000000000YM41C136
BI00B32P8    TAPAW-2022     2022011218007704049              AVSS 0.75F W/L           CCN000006000000006000FN00000000020210201000006000NNM   20211216181005    1W    00000100000000943000000000032P8    YIYTM   000000000000YM41C137
BI00B32P8    TAPAW-2022     2022011218007704045              AVSS 0.75F W/R           CCN000004000000004000FN00000000020210201000004000NNM   20211216181005    1W    00000100000000943000000000032P8    YIYTM   000000000000YM41C138
BI00B32P8    TAPAW-2022     2022011218007704070              AVSS 0.75F Y             CCN000005000000005000FN00000000020210201000005000NNM   20211216181005    1W    00000100000000943000000000032P8    YIYTM   000000000000YM41C139
BI00B32P8    TAPAW-2022     2022011218007704075              AVSS 0.75F Y/R           CCN000009000000009000FN00000000020210201000009000NNM   20211216181005    1W    00000100000000943000000000032P8    YIYTM   000000000000YM41C141
BI00B32P8    TAPAW-2022     2022011218007704130              AVSS 1.25F B             CCN000019200000019200FN00000000020210201000019200NNM   20211216181005    1W    00000080000001389000000000032P8    YIYTM   000000000000YM41C142
BI00B32P8    TAPAW-2022     2022011218007704135              AVSS 1.25F B/R           CCN000001600000001600FN00000000020210201000001600NNM   20211216181005    1W    00000080000001389000000000032P8    YIYTM   000000000000YM41C143
BI00B32P8    TAPAW-2022     2022011218007704134              AVSS 1.25F B/W           CCN000006400000006400FN00000000020210201000006400NNM   20211216181005    1W    00000080000001389000000000032P8    YIYTM   000000000000YM41C144
BI00B32P8    TAPAW-2022     2022011218007704180              AVSS 1.25F BR            CCN000000800000000800FN00000000020210201000000800NNM   20211216181005    1W    00000080000001389000000000032P8    YIYTM   000000000000YM41C145
BI00B32P8    TAPAW-2022     2022011218007704160              AVSS 1.25F G             CCN000003200000003200FN00000000020210201000003200NNM   20211216181005    1W    00000080000001389000000000032P8    YIYTM   000000000000YM41C146
BI00B32P8    TAPAW-2022     2022011218007704163              AVSS 1.25F G/B           CCN000000800000000800FN00000000020210201000000800NNM   20211216181005    1W    00000080000001389000000000032P8    YIYTM   000000000000YM41C147
BI00B32P8    TAPAW-2022     2022011218007704165              AVSS 1.25F G/R           CCN000003200000003200FN00000000020210201000003200NNM   20211216181005    1W    00000080000001389000000000032P8    YIYTM   000000000000YM41C148
BI00B32P8    TAPAW-2022     2022011218007704141              AVSS 1.25F GY            CCN000003200000003200FN00000000020210201000003200NNM   20211216181005    1W    00000080000001389000000000032P8    YIYTM   000000000000YM41C149
BI00B32P8    TAPAW-2022     2022011218007704190              AVSS 1.25F L             CCN000004000000004000FN00000000020210201000004000NNM   20211216181005    1W    00000080000001389000000000032P8    YIYTM   000000000000YM41C150
BI00B32P8    TAPAW-2022     2022011218007704197              AVSS 1.25F L/Y           CCN000004000000004000FN00000000020210201000004000NNM   20211216181005    1W    00000080000001389000000000032P8    YIYTM   000000000000YM41C151
BI00B32P8    TAPAW-2022     2022011218007704150              AVSS 1.25F R             CCN000008000000008000FN00000000020210201000008000NNM   20211216181005    1W    00000080000001389000000000032P8    YIYTM   000000000000YM41C152
BI00B32P8    TAPAW-2022     2022011218007704159              AVSS 1.25F R/L           CCN000004000000004000FN00000000020210201000004000NNM   20211216181005    1W    00000080000001389000000000032P8    YIYTM   000000000000YM41C153
BI00B32P8    TAPAW-2022     2022011218007704154              AVSS 1.25F R/W           CCN000002400000002400FN00000000020210201000002400NNM   20211216181005    1W    00000080000001389000000000032P8    YIYTM   000000000000YM41C154
BI00B32P8    TAPAW-2022     2022011218007704157              AVSS 1.25F R/Y           CCN000005600000005600FN00000000020210201000005600NNM   20211216181005    1W    00000080000001389000000000032P8    YIYTM   000000000000YM41C155
BI00B32P8    TAPAW-2022     2022011218007704140              AVSS 1.25F W             CCN000012000000012000FN00000000020210201000012000NNM   20211216181005    1W    00000080000001389000000000032P8    YIYTM   000000000000YM41C156
BI00B32P8    TAPAW-2022     2022011218007704143              AVSS 1.25F W/B           CCN000000800000000800FN00000000020210201000000800NNM   20211216181005    1W    00000080000001389000000000032P8    YIYTM   000000000000YM41C157
BI00B32P8    TAPAW-2022     2022011218007704149              AVSS 1.25F W/L           CCN000002400000002400FN00000000020210201000002400NNM   20211216181005    1W    00000080000001389000000000032P8    YIYTM   000000000000YM41C158
BI00B32P8    TAPAW-2022     2022011218007704170              AVSS 1.25F Y             CCN000008800000008800FN00000000020210201000008800NNM   20211216181005    1W    00000080000001389000000000032P8    YIYTM   000000000000YM41C159
BI00B32P8    TAPAW-2022     2022011218007704173              AVSS 1.25F Y/B           CCN000001600000001600FN00000000020210201000001600NNM   20211216181005    1W    00000080000001389000000000032P8    YIYTM   000000000000YM41C160
BI00B32P8    TAPAW-2022     2022011218007704179              AVSS 1.25F Y/L           CCN000000800000000800FN00000000020210201000000800NNM   20211216181005    1W    00000080000001389000000000032P8    YIYTM   000000000000YM41C161
BI00B32P8    TAPAW-2022     20220112180D0203730              AVSSH 0.3F B             CCN000024000000024000FN00000000020210201000024000NNM   20211216181005    1W    00000200000000515000000000032P8    YIYTM   000000000000YM41C013
BI00B32P8    TAPAW-2022     20220112180D0203780              AVSSH 0.3F BR            CCN000016000000016000FN00000000020210201000016000NNM   20211216181005    1W    00000200000000515000000000032P8    YIYTM   000000000000YM41C014
BI00B32P8    TAPAW-2022     20220112180D0203760              AVSSH 0.3F G             CCN000008000000008000FN00000000020210201000008000NNM   20211216181005    1W    00000200000000515000000000032P8    YIYTM   000000000000YM41C015
BI00B32P8    TAPAW-2022     20220112180D0203790              AVSSH 0.3F L             CCN000018000000018000FN00000000020210201000018000NNM   20211216181005    1W    00000200000000515000000000032P8    YIYTM   000000000000YM41C016
BI00B32P8    TAPAW-2022     20220112180D0203752              AVSSH 0.3F P             CCN000016000000016000FN00000000020210201000016000NNM   20211216181005    1W    00000200000000515000000000032P8    YIYTM   000000000000YM41C017
BI00B32P8    TAPAW-2022     20220112180D0203750              AVSSH 0.3F R             CCN000010000000010000FN00000000020210201000010000NNM   20211216181005    1W    00000200000000515000000000032P8    YIYTM   000000000000YM41C018
BI00B32P8    TAPAW-2022     20220112180D0203792              AVSSH 0.3F V             CCN000012000000012000FN00000000020210201000012000NNM   20211216181005    1W    00000200000000515000000000032P8    YIYTM   000000000000YM41C019
BI00B32P8    TAPAW-2022     20220112180D0203770              AVSSH 0.3F Y             CCN000018000000018000FN00000000020210201000018000NNM   20211216181005    1W    00000200000000515000000000032P8    YIYTM   000000000000YM41C020
BI00B32P8    TAPAW-2022     20220112180D0203930              AVSSH 0.5F B             CCN000015000000015000FN00000000020210201000015000NNM   20211216181005    1W    00000150000000689000000000032P8    YIYTM   000000000000YM41C021
BI00B32P8    TAPAW-2022     20220112180D0203935              AVSSH 0.5F B/R           CCN000003000000003000FN00000000020210201000003000NNM   20211216181005    1W    00000150000000689000000000032P8    YIYTM   000000000000YM41C022
BI00B32P8    TAPAW-2022     20220112180D0203934              AVSSH 0.5F B/W           CCN000001500000001500FN00000000020210201000001500NNM   20211216181005    1W    00000150000000689000000000032P8    YIYTM   000000000000YM41C023
BI00B32P8    TAPAW-2022     20220112180D0203937              AVSSH 0.5F B/Y           CCN000003000000003000FN00000000020210201000003000NNM   20211216181005    1W    00000150000000689000000000032P8    YIYTM   000000000000YM41C024
BI00B32P8    TAPAW-2022     20220112180D0203980              AVSSH 0.5F BR            CCN000007500000007500FN00000000020210201000007500NNM   20211216181005    1W    00000150000000689000000000032P8    YIYTM   000000000000YM41C025
BI00B32P8    TAPAW-2022     20220112180D0203960              AVSSH 0.5F G             CCN000006000000006000FN00000000020210201000006000NNM   20211216181005    1W    00000150000000689000000000032P8    YIYTM   000000000000YM41C026
BI00B32P8    TAPAW-2022     20220112180D0203964              AVSSH 0.5F G/W           CCN000003000000003000FN00000000020210201000003000NNM   20211216181005    1W    00000150000000689000000000032P8    YIYTM   000000000000YM41C027
BI00B32P8    TAPAW-2022     20220112180D0203990              AVSSH 0.5F L             CCN000004500000004500FN00000000020210201000004500NNM   20211216181005    1W    00000150000000689000000000032P8    YIYTM   000000000000YM41C028
BI00B32P8    TAPAW-2022     20220112180D0203994              AVSSH 0.5F L/W           CCN000003000000003000FN00000000020210201000003000NNM   20211216181005    1W    00000150000000689000000000032P8    YIYTM   000000000000YM41C029
BI00B32P8    TAPAW-2022     20220112180D0203961              AVSSH 0.5F LG            CCN000001500000001500FN00000000020210201000001500NNM   20211216181005    1W    00000150000000689000000000032P8    YIYTM   000000000000YM41C030
BI00B32P8    TAPAW-2022     20220112180D0203952              AVSSH 0.5F P             CCN000004500000004500FN00000000020210201000004500NNM   20211216181005    1W    00000150000000689000000000032P8    YIYTM   000000000000YM41C031
BI00B32P8    TAPAW-2022     20220112180D0203907              AVSSH 0.5F P/B           CCN000001500000001500FN00000000020210201000001500NNM   20211216181005    1W    00000150000000689000000000032P8    YIYTM   000000000000YM41C032
BI00B32P8    TAPAW-2022     20220112180D0203950              AVSSH 0.5F R             CCN000018000000018000FN00000000020210201000018000NNM   20211216181005    1W    00000150000000689000000000032P8    YIYTM   000000000000YM41C033
BI00B32P8    TAPAW-2022     20220112180D0203954              AVSSH 0.5F R/W           CCN000003000000003000FN00000000020210201000003000NNM   20211216181005    1W    00000150000000689000000000032P8    YIYTM   000000000000YM41C034
BI00B32P8    TAPAW-2022     20220112180D0203992              AVSSH 0.5F V             CCN000001500000001500FN00000000020210201000001500NNM   20211216181005    1W    00000150000000689000000000032P8    YIYTM   000000000000YM41C035
BI00B32P8    TAPAW-2022     20220112180D0203940              AVSSH 0.5F W             CCN000004500000004500FN00000000020210201000004500NNM   20211216181005    1W    00000150000000689000000000032P8    YIYTM   000000000000YM41C036
BI00B32P8    TAPAW-2022     20220112180D0203943              AVSSH 0.5F W/B           CCN000024000000024000FN00000000020210201000024000NNM   20211216181005    1W    00000150000000689000000000032P8    YIYTM   000000000000YM41C037
BI00B32P8    TAPAW-2022     20220112180D0203970              AVSSH 0.5F Y             CCN000006000000006000FN00000000020210201000006000NNM   20211216181005    1W    00000150000000689000000000032P8    YIYTM   000000000000YM41C038
BI00B32P8    TAPAW-2022     20220112180D0204030              AVSSH 0.75F B            CCN000001000000001000FN00000000020210201000001000NNM   20211216181005    1W    00000100000000968000000000032P8    YIYTM   000000000000YM41C039
BI00B32P8    TAPAW-2022     20220112180D0204039              AVSSH 0.75F B/L          CCN000002000000002000FN00000000020210201000002000NNM   20211216181005    1W    00000100000000968000000000032P8    YIYTM   000000000000YM41C040
BI00B32P8    TAPAW-2022     20220112180D0204060              AVSSH 0.75F G            CCN000002000000002000FN00000000020210201000002000NNM   20211216181005    1W    00000100000000968000000000032P8    YIYTM   000000000000YM41C041
BI00B32P8    TAPAW-2022     20220112180D0204050              AVSSH 0.75F R            CCN000001000000001000FN00000000020210201000001000NNM   20211216181005    1W    00000100000000968000000000032P8    YIYTM   000000000000YM41C043
BI00B32P8    TAPAW-2022     20220112180D0204054              AVSSH 0.75F R/W          CCN000002000000002000FN00000000020210201000002000NNM   20211216181005    1W    00000100000000968000000000032P8    YIYTM   000000000000YM41C044
BI00B32P8    TAPAW-2022     20220112180D0204130              AVSSH 1.25F B            CCN000003200000003200FN00000000020210201000003200NNM   20211216181005    1W    00000080000001458000000000032P8    YIYTM   000000000000YM41C045
BI00B32P8    TAPAW-2022     20220112180D0204180              AVSSH 1.25F BR           CCN000001600000001600FN00000000020210201000001600NNM   20211216181005    1W    00000080000001458000000000032P8    YIYTM   000000000000YM41C046
BI00B32P8    TAPAW-2022     20220112180D0204160              AVSSH 1.25F G            CCN000001600000001600FN00000000020210201000001600NNM   20211216181005    1W    00000080000001458000000000032P8    YIYTM   000000000000YM41C047
BI00B32P8    TAPAW-2022     20220112180D0204190              AVSSH 1.25F L            CCN000000800000000800FN00000000020210201000000800NNM   20211216181005    1W    00000080000001458000000000032P8    YIYTM   000000000000YM41C048
BI00B32P8    TAPAW-2022     20220112180D0204159              AVSSH 1.25F R/L          CCN000001600000001600FN00000000020210201000001600NNM   20211216181005    1W    00000080000001458000000000032P8    YIYTM   000000000000YM41C049
BI00B32P8    TAPAW-2022     20220112180D0204154              AVSSH 1.25F R/W          CCN000001600000001600FN00000000020210201000001600NNM   20211216181005    1W    00000080000001458000000000032P8    YIYTM   000000000000YM41C050
BI00B32P8    TAPAW-2022     20220112180D0204140              AVSSH 1.25F W            CCN000008000000008000FN00000000020210201000008000NNM   20211216181005    1W    00000080000001458000000000032P8    YIYTM   000000000000YM41C051
BI00B32P8    TAPAW-2022     20220112180D0204143              AVSSH 1.25F W/B          CCN000041600000041600FN00000000020210201000041600NNM   20211216181005    1W    00000080000001458000000000032P8    YIYTM   000000000000YM41C052
BI00B32P8    TAPAW-2022     20220112180D0204170              AVSSH 1.25F Y            CCN000000800000000800FN00000000020210201000000800NNM   20211216181005    1W    00000080000001458000000000032P8    YIYTM   000000000000YM41C053
BI00B32P8    TAPAW-2022     202201121801W003980              IVSSH 0.5F BR            CCN000003600000003600FN00000000020210201000003600NNM   20211216181005    1W    00000180000000625000000000032P8    YIYTM   000000000000YM41C165
BI00B32P8    TAPAW-2022     202201121801W003960              IVSSH 0.5F G             CCN000048600000048600FN00000000020210201000048600NNM   20211216181005    1W    00000180000000625000000000032P8    YIYTM   000000000000YM41C166
BI00B32P8    TAPAW-2022     202201121801W003941              IVSSH 0.5F GY            CCN000005400000005400FN00000000020210201000005400NNM   20211216181005    1W    00000180000000625000000000032P8    YIYTM   000000000000YM41C167
BI00B32P8    TAPAW-2022     202201121801W003990              IVSSH 0.5F L             CCN000034200000034200FN00000000020210201000034200NNM   20211216181005    1W    00000180000000625000000000032P8    YIYTM   000000000000YM41C168
BI00B32P8    TAPAW-2022     202201121801W003961              IVSSH 0.5F LG            CCN000003600000003600FN00000000020210201000003600NNM   20211216181005    1W    00000180000000625000000000032P8    YIYTM   000000000000YM41C169
BI00B32P8    TAPAW-2022     202201121801W003950              IVSSH 0.5F R             CCN000018000000018000FN00000000020210201000018000NNM   20211216181005    1W    00000180000000625000000000032P8    YIYTM   000000000000YM41C171
BI00B32P8    TAPAW-2022     202201121801W003992              IVSSH 0.5F V             CCN000010800000010800FN00000000020210201000010800NNM   20211216181005    1W    00000180000000625000000000032P8    YIYTM   000000000000YM41C173
BI00B32P8    TAPAW-2022     202201121801W003943              IVSSH 0.5F W/B           CCN000018000000018000FN00000000020210201000018000NNM   20211216181005    1W    00000180000000625000000000032P8    YIYTM   000000000000YM41C175
BI00B32P8    TAPAW-2022     202201121801W003970              IVSSH 0.5F Y             CCN000007200000007200FN00000000020210201000007200NNM   20211216181005    1W    00000180000000625000000000032P8    YIYTM   000000000000YM41C176
BI00B32P8    TAPAW-2022     202201121801W004090              IVSSH 0.75F L            CCN000002600000002600FN00000000020210201000002600NNM   20211216181005    1W    00000130000000882000000000032P8    YIYTM   000000000000YM41C179
BI00B32P8    TAPAW-2022     202201121801W004040              IVSSH 0.75F W            CCN000005200000005200FN00000000020210201000005200NNM   20211216181005    1W    00000130000000882000000000032P8    YIYTM   000000000000YM41C180
BI00B32P8    TAPAW-2022     2022011218000004590              AV 8 L                   CCN000003800000003800FN00000000020210201000003800NNM   20211216181005    1W    00000010000009148000000000032P8    YIYTM   000000000000YM41C056
BI00B32P8    TAPAW-2022     2022011218000004570              AV 8 Y                   CCN000007700000007700FN00000000020210201000007700NNM   20211216181005    1W    00000010000009148000000000032P8    YIYTM   000000000000YM41C058
BI00B32P8    TAPAW-2022     2022011218007704003              AVSS 0.75F B/O           CCN000003000000003000FN00000000020210201000003000NNM   20211216181005    1W    00000100000000943000000000032P8    YIYTM   000000000000YM41C100
BI00B32P8    TAPAW-2022     20220112180077040F0              AVSS 0.75F GY/B          CCN000001000000001000FN00000000020210201000001000NNM   20211216181005    1W    00000100000000943000000000032P8    YIYTM   000000000000YM41C112
BI00B32P8    TAPAW-2022     20220112180077040H1              AVSS 0.75F GY/G          CCN000001000000001000FN00000000020210201000001000NNM   20211216181005    1W    00000100000000943000000000032P8    YIYTM   000000000000YM41C113
BI00B32P8    TAPAW-2022     2022011218007704010              AVSS 0.75F GY/R          CCN000008000000008000FN00000000020210201000008000NNM   20211216181005    1W    00000100000000943000000000032P8    YIYTM   000000000000YM41C115
BI00B32P8    TAPAW-2022     2022011218007704009              AVSS 0.75F LG/R          CCN000002000000002000FN00000000020210201000002000NNM   20211216181005    1W    00000100000000943000000000032P8    YIYTM   000000000000YM41C123
BI00B32P8    TAPAW-2022     20220112180077040G9              AVSS 0.75F V/G           CCN000005000000005000FN00000000020210201000005000NNM   20211216181005    1W    00000100000000943000000000032P8    YIYTM   000000000000YM41C133
BI00B32P8    TAPAW-2022     20220112180077040F7              AVSS 0.75F V/Y           CCN000006000000006000FN00000000020210201000006000NNM   20211216181005    1W    00000100000000943000000000032P8    YIYTM   000000000000YM41C134
BI00B32P8    TAPAW-2022     2022011218007704076              AVSS 0.75F Y/G           CCN000005000000005000FN00000000020210201000005000NNM   20211216181005    1W    00000100000000943000000000032P8    YIYTM   000000000000YM41C140
BI00B32P8    TAPAW-2022     2022011218007704174              AVSS 1.25F Y/W           CCN000001600000001600FN00000000020210201000001600NNM   20211216181005    1W    00000080000001389000000000032P8    YIYTM   000000000000YM41C162
BI00B32P8    TAPAW-2022     20220112180D0204093              AVSSH 0.75F L/B          CCN000004000000004000FN00000000020210201000004000NNM   20211216181005    1W    00000100000000968000000000032P8    YIYTM   000000000000YM41C042
BI00B32P8    TAPAW-2022     202201121801W006930              IVSSH 0.35F B            CCN000052500000052500FN00000000020210201000052500NNM   20211216181005    1W    00000250000000452000000000032P8    YIYTM   000000000000YM41C182
BI00B32P8    TAPAW-2022     202201121801W006980              IVSSH 0.35F BR           CCN000015000000015000FN00000000020210201000015000NNM   20211216181005    1W    00000250000000452000000000032P8    YIYTM   000000000000YM41C183
BI00B32P8    TAPAW-2022     202201121801W006960              IVSSH 0.35F G            CCN000055000000055000FN00000000020210201000055000NNM   20211216181005    1W    00000250000000452000000000032P8    YIYTM   000000000000YM41C184
BI00B32P8    TAPAW-2022     202201121801W006941              IVSSH 0.35F GY           CCN000015000000015000FN00000000020210201000015000NNM   20211216181005    1W    00000250000000452000000000032P8    YIYTM   000000000000YM41C185
BI00B32P8    TAPAW-2022     202201121801W006990              IVSSH 0.35F L            CCN000052500000052500FN00000000020210201000052500NNM   20211216181005    1W    00000250000000452000000000032P8    YIYTM   000000000000YM41C186
BI00B32P8    TAPAW-2022     202201121801W006961              IVSSH 0.35F LG           CCN000005000000005000FN00000000020210201000005000NNM   20211216181005    1W    00000250000000452000000000032P8    YIYTM   000000000000YM41C187
BI00B32P8    TAPAW-2022     202201121801W006952              IVSSH 0.35F P            CCN000015000000015000FN00000000020210201000015000NNM   20211216181005    1W    00000250000000452000000000032P8    YIYTM   000000000000YM41C188
BI00B32P8    TAPAW-2022     202201121801W006950              IVSSH 0.35F R            CCN000052500000052500FN00000000020210201000052500NNM   20211216181005    1W    00000250000000452000000000032P8    YIYTM   000000000000YM41C189
BI00B32P8    TAPAW-2022     202201121801W006992              IVSSH 0.35F V            CCN000025000000025000FN00000000020210201000025000NNM   20211216181005    1W    00000250000000452000000000032P8    YIYTM   000000000000YM41C190
BI00B32P8    TAPAW-2022     202201121801W006940              IVSSH 0.35F W            CCN000032500000032500FN00000000020210201000032500NNM   20211216181005    1W    00000250000000452000000000032P8    YIYTM   000000000000YM41C191
BI00B32P8    TAPAW-2022     202201121801W006943              IVSSH 0.35F W/B          CCN000005000000005000FN00000000020210201000005000NNM   20211216181005    1W    00000250000000452000000000032P8    YIYTM   000000000000YM41C192
BI00B32P8    TAPAW-2022     202201121801W006970              IVSSH 0.35F Y            CCN000055000000055000FN00000000020210201000055000NNM   20211216181005    1W    00000250000000452000000000032P8    YIYTM   000000000000YM41C193
BI00B32P8    TAPAW-2022     202201121801W003930              IVSSH 0.5F B             CCN000052200000052200FN00000000020210201000052200NNM   20211216181005    1W    00000180000000625000000000032P8    YIYTM   000000000000YM41C164
BI00B32P8    TAPAW-2022     202201121801W003952              IVSSH 0.5F P             CCN000012600000012600FN00000000020210201000012600NNM   20211216181005    1W    00000180000000625000000000032P8    YIYTM   000000000000YM41C170
BI00B32P8    TAPAW-2022     202201121801W003991              IVSSH 0.5F SB            CCN000009000000009000FN00000000020210201000009000NNM   20211216181005    1W    00000180000000625000000000032P8    YIYTM   000000000000YM41C172
BI00B32P8    TAPAW-2022     202201121801W003940              IVSSH 0.5F W             CCN000014400000014400FN00000000020210201000014400NNM   20211216181005    1W    00000180000000625000000000032P8    YIYTM   000000000000YM41C174
BI00B32P8    TAPAW-2022     202201121801W004030              IVSSH 0.75F B            CCN000005200000005200FN00000000020210201000005200NNM   20211216181005    1W    00000130000000882000000000032P8    YIYTM   000000000000YM41C177
BI00B32P8    TAPAW-2022     202201121801W004060              IVSSH 0.75F G            CCN000023400000023400FN00000000020210201000023400NNM   20211216181005    1W    00000130000000882000000000032P8    YIYTM   000000000000YM41C178
BI00B32P8    TAPAW-2022     202201121801W004070              IVSSH 0.75F Y            CCN000010400000010400FN00000000020210201000010400NNM   20211216181005    1W    00000130000000882000000000032P8    YIYTM   000000000000YM41C181
BI00B32Q8    @EW2201ADMW    20220105181AD2017ZZ              CIVUSAS-S 0.22X3 B       CCN000000430000000430FN00000000020220101000000430NNE   20211216165700    1W    00000043000001678200000000032Q8    EMEMI   000000000000MK31C001
BI00B32Q8    EW2201C MW     2022011218009604450              AVS 5 R                  CCN000004400000004400FN00000000020220101000004400NNE   20211216165751    1W    00000020000005941000000000032Q8    EMEMI   000000000000MV41C025
BI00B32Q8    EW2201C MW     2022011218009604443              AVS 5 W/B                CCN000017800000017800FN00000000020220101000017800NNE   20211216165751    1W    00000020000005941000000000032Q8    EMEMI   000000000000MV41C026
BI00B32Q8    EW2201C MW     2022011218007703760              AVSS 0.3F G              CCN000016000000016000FN00000000020220101000016000NNE   20211216165751    1W    00000200000000496000000000032Q8    EMEMI   000000000000MV41C019
BI00B32Q8    EW2201C MW     2022011218007703740              AVSS 0.3F W              CCN000002000000002000FN00000000020220101000002000NNE   20211216165751    1W    00000200000000496000000000032Q8    EMEMI   000000000000MV41C020
BI00B32Q8    EW2201C MW     2022011218007703941              AVSS 0.5F GY             CCN000018000000018000FN00000000020220101000018000NNE   20211216165751    1W    00000150000000674000000000032Q8    EMEMI   000000000000MV41C021
BI00B32Q8    EW2201C MW     2022011218007704160              AVSS 1.25F G             CCN000015200000015200FN00000000020220101000015200NNE   20211216165751    1W    00000080000001389000000000032Q8    EMEMI   000000000000MV41C022
BI00B32Q8    EW2201C MW     2022011218007704150              AVSS 1.25F R             CCN000021600000021600FN00000000020220101000021600NNE   20211216165751    1W    00000080000001389000000000032Q8    EMEMI   000000000000MV41C023
BI00B32Q8    EW2201C MW     2022011218007704140              AVSS 1.25F W             CCN000041600000041600FN00000000020220101000041600NNE   20211216165751    1W    00000080000001389000000000032Q8    EMEMI   000000000000MV41C024
BI00B32Q8    EW2201C MW     20220112180D0203730              AVSSH 0.3F B             CCN000006000000006000FN00000000020220101000006000NNE   20211216165751    1W    00000200000000515000000000032Q8    EMEMI   000000000000MV41C005
BI00B32Q8    EW2201C MW     20220112180D0203743              AVSSH 0.3F W/B           CCN000004000000004000FN00000000020220101000004000NNE   20211216165751    1W    00000200000000515000000000032Q8    EMEMI   000000000000MV41C006
BI00B32Q8    EW2201C MW     20220112180D0203937              AVSSH 0.5F B/Y           CCN000007500000007500FN00000000020220101000007500NNE   20211216165751    1W    00000150000000689000000000032Q8    EMEMI   000000000000MV41C007
BI00B32Q8    EW2201C MW     20220112180D0203961              AVSSH 0.5F LG            CCN000001500000001500FN00000000020220101000001500NNE   20211216165751    1W    00000150000000689000000000032Q8    EMEMI   000000000000MV41C008
BI00B32Q8    EW2201C MW     20220112180D0203952              AVSSH 0.5F P             CCN000003000000003000FN00000000020220101000003000NNE   20211216165751    1W    00000150000000689000000000032Q8    EMEMI   000000000000MV41C009
BI00B32Q8    EW2201C MW     20220112180D0203950              AVSSH 0.5F R             CCN000033000000033000FN00000000020220101000033000NNE   20211216165751    1W    00000150000000689000000000032Q8    EMEMI   000000000000MV41C010
BI00B32Q8    EW2201C MW     20220112180D0203940              AVSSH 0.5F W             CCN000072000000072000FN00000000020220101000072000NNE   20211216165751    1W    00000150000000689000000000032Q8    EMEMI   000000000000MV41C011
BI00B32Q8    EW2201C MW     20220112180D0203970              AVSSH 0.5F Y             CCN000006000000006000FN00000000020220101000006000NNE   20211216165751    1W    00000150000000689000000000032Q8    EMEMI   000000000000MV41C012
BI00B32Q8    EW2201C MW     20220112180D0204030              AVSSH 0.75F B            CCN000001000000001000FN00000000020220101000001000NNE   20211216165751    1W    00000100000000968000000000032Q8    EMEMI   000000000000MV41C013
BI00B32Q8    EW2201C MW     20220112180D0204060              AVSSH 0.75F G            CCN000001000000001000FN00000000020220101000001000NNE   20211216165751    1W    00000100000000968000000000032Q8    EMEMI   000000000000MV41C014
BI00B32Q8    EW2201C MW     20220112180D0204130              AVSSH 1.25F B            CCN000014400000014400FN00000000020220101000014400NNE   20211216165751    1W    00000080000001458000000000032Q8    EMEMI   000000000000MV41C015
BI00B32Q8    EW2201C MW     20220112180D0204160              AVSSH 1.25F G            CCN000023200000023200FN00000000020220101000023200NNE   20211216165751    1W    00000080000001458000000000032Q8    EMEMI   000000000000MV41C016
BI00B32Q8    EW2201C MW     20220112180D0204190              AVSSH 1.25F L            CCN000001600000001600FN00000000020220101000001600NNE   20211216165751    1W    00000080000001458000000000032Q8    EMEMI   000000000000MV41C017
BI00B32Q8    EW2201C MW     20220112180D0204150              AVSSH 1.25F R            CCN000040000000040000FN00000000020220101000040000NNE   20211216165751    1W    00000080000001458000000000032Q8    EMEMI   000000000000MV41C018
BI00B32Q8    EW2201C MW     202201121801R704130              CIVUS 1.25 B             CCN000002000000002000FN00000000020220101000002000NNE   20211216165751    1W    00000100000001228000000000032Q8    EMEMI   000000000000MV41C027
BI00B32Q8    EW2201C MW     202201121801R70415U              CIVUS 1.25 BE            CCN000002000000002000FN00000000020220101000002000NNE   20211216165751    1W    00000100000001228000000000032Q8    EMEMI   000000000000MV41C028
BI00B32Q8    EW2201C MW     202201121801R704160              CIVUS 1.25 G             CCN000010000000010000FN00000000020220101000010000NNE   20211216165751    1W    00000100000001228000000000032Q8    EMEMI   000000000000MV41C029
BI00B32Q8    EW2201C MW     202201121801R704190              CIVUS 1.25 L             CCN000010000000010000FN00000000020220101000010000NNE   20211216165751    1W    00000100000001228000000000032Q8    EMEMI   000000000000MV41C030
BI00B32Q8    EW2201C MW     202201121801R704152              CIVUS 1.25 P             CCN000020000000020000FN00000000020220101000020000NNE   20211216165751    1W    00000100000001228000000000032Q8    EMEMI   000000000000MV41C031
BI00B32Q8    EW2201C MW     202201121801R704150              CIVUS 1.25 R             CCN000016000000016000FN00000000020220101000016000NNE   20211216165751    1W    00000100000001228000000000032Q8    EMEMI   000000000000MV41C032
BI00B32Q8    EW2201C MW     202201121801R704140              CIVUS 1.25 W             CCN000007000000007000FN00000000020220101000007000NNE   20211216165751    1W    00000100000001228000000000032Q8    EMEMI   000000000000MV41C033
BI00B32Q8    @EW2201C MW    20220112181E48018ZZ              CAVSAS-S 0.5X2 GY/SB     CCN000000600000000600FN00000000020220101000000600NNE   20211216164305    1W    00000030000002493000000000032Q8    EMEMI   000000000000MV41C003
BI00B32Q8    @EW2201C MW    20220112181E48022ZZ              CAVSAS-S 0.5X2 GY        CCN000002400000002400FN00000000020220101000002400NNE   20211216164305    1W    00000030000002493000000000032Q8    EMEMI   000000000000MV41C001
BI00B32Q8    @EW2201C MW    20220112181E48027ZZ              CAVSAS-S 0.5X2 GY/P      CCN000000300000000300FN00000000020220101000000300NNE   20211216164305    1W    00000030000002493000000000032Q8    EMEMI   000000000000MV41C002
BI00B32Q8    @EW2201C MW    20220112181E48041ZZ              CAVSAS-S 0.3X2 GY/R      CCN000006300000006300FN00000000020220101000006300NNE   20211216164305    1W    00000035000001998600000000032Q8    EMEMI   000000000000MV41C004
BI00B32Q8    EW2201DTMW     20220119180D0203760              AVSSH 0.3F G             CCN000018000000018000FN00000000020220101000018000NNE   20211216165756    1W    00000200000000515000000000032Q8    EMEMI   000000000000MC121010
BI00B32Q8    EW2201DTMW     20220119180D0203741              AVSSH 0.3F GY            CCN000002000000002000FN00000000020220101000002000NNE   20211216165756    1W    00000200000000515000000000032Q8    EMEMI   000000000000MC121011
BI00B32Q8    EW2201DTMW     20220119180D0204143              AVSSH 1.25F W/B          CCN000024000000024000FN00000000020220101000024000NNE   20211216165756    1W    00000080000001458000000000032Q8    EMEMI   000000000000MC121012
BI00B32Q8    EW2201DTMW     202201191801R704143              CIVUS 1.25 W/B           CCN000020000000020000FN00000000020220101000020000NNE   20211216165756    1W    00000100000001228000000000032Q8    EMEMI   000000000000MC121013
BI00B32Q8    EW2201DTMW     202201191801W006980              IVSSH 0.35F BR           CCN000002500000002500FN00000000020220101000002500NNE   20211216165756    1W    00000250000000452000000000032Q8    EMEMI   000000000000MC121025
BI00B32Q8    EW2201DTMW     202201191801W006960              IVSSH 0.35F G            CCN000132500000132500FN00000000020220101000132500NNE   20211216165756    1W    00000250000000452000000000032Q8    EMEMI   000000000000MC121026
BI00B32Q8    EW2201DTMW     202201191801W006990              IVSSH 0.35F L            CCN000225000000225000FN00000000020220101000225000NNE   20211216165756    1W    00000250000000452000000000032Q8    EMEMI   000000000000MC121027
BI00B32Q8    EW2201DTMW     202201191801W006952              IVSSH 0.35F P            CCN000235000000235000FN00000000020220101000235000NNE   20211216165756    1W    00000250000000452000000000032Q8    EMEMI   000000000000MC121028
BI00B32Q8    EW2201DTMW     202201191801W006992              IVSSH 0.35F V            CCN000030000000030000FN00000000020220101000030000NNE   20211216165756    1W    00000250000000452000000000032Q8    EMEMI   000000000000MC121029
BI00B32Q8    EW2201DTMW     202201191801W006940              IVSSH 0.35F W            CCN000182500000182500FN00000000020220101000182500NNE   20211216165756    1W    00000250000000452000000000032Q8    EMEMI   000000000000MC121030
BI00B32Q8    EW2201DTMW     202201191801W003980              IVSSH 0.5F BR            CCN000003600000003600FN00000000020220101000003600NNE   20211216165756    1W    00000180000000625000000000032Q8    EMEMI   000000000000MC121014
BI00B32Q8    EW2201DTMW     202201191801W003941              IVSSH 0.5F GY            CCN000014400000014400FN00000000020220101000014400NNE   20211216165756    1W    00000180000000625000000000032Q8    EMEMI   000000000000MC121015
BI00B32Q8    EW2201DTMW     202201191801W003961              IVSSH 0.5F LG            CCN000016200000016200FN00000000020220101000016200NNE   20211216165756    1W    00000180000000625000000000032Q8    EMEMI   000000000000MC121016
BI00B32Q8    EW2201DTMW     202201191801W003952              IVSSH 0.5F P             CCN000104400000104400FN00000000020220101000104400NNE   20211216165756    1W    00000180000000625000000000032Q8    EMEMI   000000000000MC121017
BI00B32Q8    EW2201DTMW     202201191801W003991              IVSSH 0.5F SB            CCN000001800000001800FN00000000020220101000001800NNE   20211216165756    1W    00000180000000625000000000032Q8    EMEMI   000000000000MC121018
BI00B32Q8    EW2201DTMW     202201191801W004080              IVSSH 0.75F BR           CCN000006500000006500FN00000000020220101000006500NNE   20211216165756    1W    00000130000000882000000000032Q8    EMEMI   000000000000MC121019
BI00B32Q8    EW2201DTMW     202201191801W004060              IVSSH 0.75F G            CCN000005200000005200FN00000000020220101000005200NNE   20211216165756    1W    00000130000000882000000000032Q8    EMEMI   000000000000MC121020
BI00B32Q8    EW2201DTMW     202201191801W004050              IVSSH 0.75F R            CCN000010400000010400FN00000000020220101000010400NNE   20211216165756    1W    00000130000000882000000000032Q8    EMEMI   000000000000MC121021
BI00B32Q8    EW2201DTMW     202201191801W004040              IVSSH 0.75F W            CCN000009100000009100FN00000000020220101000009100NNE   20211216165756    1W    00000130000000882000000000032Q8    EMEMI   000000000000MC121022
BI00B32Q8    EW2201DTMW     202201191801W004043              IVSSH 0.75F W/B          CCN000057600000058500FN00000000020220101000058500NNE   20211216165756    1W    00000130000000882000000000032Q8    EMEMI   000000000000MC121023
BI00B32Q8    EW2201DTMW     202201191801W004070              IVSSH 0.75F Y            CCN000003900000003900FN00000000020220101000003900NNE   20211216165756    1W    00000130000000882000000000032Q8    EMEMI   000000000000MC121024
BI00B32Q8    @EW2201DTMW    20220112181E50028ZZ              AVSSCS-S 0.5FX3 DGY      CCN000003500000003500FN00000000020220101000003500NNE   20211216164320    1W    00000025000003245000000000032Q8    EMEMI   000000000000MW41C002
BI00B32Q8    @EW2201DTMW    20220112181E50036ZZ              AVSSCS-S 0.3FX2 DGY      CCN000009450000009450FN00000000020220101000009450NNE   20211216164320    1W    00000035000001997000000000032Q8    EMEMI   000000000000MW41C003
BI00B32Q8    @EW2201DTMW    20220112181D69004ZZ              AVSSHCS 1.25FX2 B        CCN000001000000001000FN00000000020220101000001000NNE   20211216164320    1W    00000020000004432000000000032Q8    EMEMI   000000000000MW41C001
BI00B32Q8    @EW2201DTMW    20220112181F21001ZZ              AVSSHCS-S 0.3FX2 B/Y     CCN000002100000002100FN00000000020220101000002100NNE   20211216164320    1W    00000035000002076300000000032Q8    EMEMI   000000000000MW41C004
BI00B32Q8    @EW2201DTMW    20220112181F21028ZZ              AVSSHCS-S 1.25FX2 B/R    CCN000000400000000400FN00000000020220101000000400NNE   20211216164320    1W    00000020000004262000000000032Q8    EMEMI   000000000000MW41C005
BI00B32Q8    EW2202A MW     2022011918000004530              AV 8 B                   CCN000055900000055900FN00000000020220201000055900NNE   20211216165805    1W    00000010000009148000000000032Q8    EMEMI   000000000000MG121006
BI00B32Q8    EW2202A MW     2022011918000004540              AV 8 W                   CCN000023900000023900FN00000000020220201000023900NNE   20211216165805    1W    00000010000009148000000000032Q8    EMEMI   000000000000MG121007
BI00B32Q8    EW2202A MW     2022011918009603950              AVS 0.5 R                CCN000001000000001000FN00000000020220201000001000NNE   20211216165805    1W    00000100000000850000000000032Q8    EMEMI   000000000000MG121008
BI00B32Q8    EW2202A MW     2022011918009603956              AVS 0.5 R/G              CCN000001000000001000FN00000000020220201000001000NNE   20211216165805    1W    00000100000000850000000000032Q8    EMEMI   000000000000MG121009
BI00B32Q8    EW2202A MW     2022011918009604460              AVS 5 G                  CCN000004600000004600FN00000000020220201000004600NNE   20211216165805    1W    00000020000005941000000000032Q8    EMEMI   000000000000MG121010
BI00B32Q8    EW2202A MW     2022011918009604450              AVS 5 R                  CCN000005800000005800FN00000000020220201000005800NNE   20211216165805    1W    00000020000005941000000000032Q8    EMEMI   000000000000MG121011
BI00B32Q8    EW2202A MW     2022011918009604443              AVS 5 W/B                CCN000002400000002400FN00000000020220201000002400NNE   20211216165805    1W    00000020000005941000000000032Q8    EMEMI   000000000000MG121012
BI00B32Q8    EW2202A MW     20220119180D0203930              AVSSH 0.5F B             CCN000033000000033000FN00000000020220201000033000NNE   20211216165805    1W    00000150000000689000000000032Q8    EMEMI   000000000000MG121001
BI00B32Q8    EW2202A MW     20220119180D0203937              AVSSH 0.5F B/Y           CCN000004500000004500FN00000000020220201000004500NNE   20211216165805    1W    00000150000000689000000000032Q8    EMEMI   000000000000MG121002
BI00B32Q8    EW2202A MW     20220119180D0203960              AVSSH 0.5F G             CCN000001500000001500FN00000000020220201000001500NNE   20211216165805    1W    00000150000000689000000000032Q8    EMEMI   000000000000MG121003
BI00B32Q8    EW2202A MW     20220119180D0203993              AVSSH 0.5F L/B           CCN000001500000001500FN00000000020220201000001500NNE   20211216165805    1W    00000150000000689000000000032Q8    EMEMI   000000000000MG121004
BI00B32Q8    EW2202A MW     20220119180D0203950              AVSSH 0.5F R             CCN000015000000015000FN00000000020220201000015000NNE   20211216165805    1W    00000150000000689000000000032Q8    EMEMI   000000000000MG121005
BI00B32Q8    EW2202A MW     202201191801R704130              CIVUS 1.25 B             CCN000045000000045000FN00000000020220201000045000NNE   20211216165805    1W    00000100000001228000000000032Q8    EMEMI   000000000000MG121013
BI00B32Q8    EW2202A MW     202201191801R70415U              CIVUS 1.25 BE            CCN000001000000001000FN00000000020220201000001000NNE   20211216165805    1W    00000100000001228000000000032Q8    EMEMI   000000000000MG121014
BI00B32Q8    EW2202A MW     202201191801R704152              CIVUS 1.25 P             CCN000005000000005000FN00000000020220201000005000NNE   20211216165805    1W    00000100000001228000000000032Q8    EMEMI   000000000000MG121015
BI00B32Q8    EW2202A MW     202201191801R704150              CIVUS 1.25 R             CCN000013000000013000FN00000000020220201000013000NNE   20211216165805    1W    00000100000001228000000000032Q8    EMEMI   000000000000MG121016
BI00B32Q8    EW2202A MW     202201191801R704170              CIVUS 1.25 Y             CCN000037000000037000FN00000000020220201000037000NNE   20211216165805    1W    00000100000001228000000000032Q8    EMEMI   000000000000MG121017
BI00B32Q8    EW2202ETMW     20220119180D0203750              AVSSH 0.3F R             CCN000006000000006000FN00000000020220201000006000NNE   20211216165807    1W    00000200000000515000000000032Q8    EMEMI   000000000000MB121003
BI00B32Q8    EW2202ETMW     20220119180D0204192              AVSSH 1.25F V            CCN000005600000005600FN00000000020220201000005600NNE   20211216165807    1W    00000080000001458000000000032Q8    EMEMI   000000000000MB121004
BI00B32Q8    EW2202ETMW     20220119180D0204143              AVSSH 1.25F W/B          CCN000028000000028000FN00000000020220201000028000NNE   20211216165807    1W    00000080000001458000000000032Q8    EMEMI   000000000000MB121005
BI00B32Q8    EW2202ETMW     202201191801R704143              CIVUS 1.25 W/B           CCN000018000000018000FN00000000020220201000018000NNE   20211216165807    1W    00000100000001228000000000032Q8    EMEMI   000000000000MB121006
BI00B32Q8    EW2202ETMW     202201191801W00695U              IVSSH 0.35F BE           CCN000017500000017500FN00000000020220201000017500NNE   20211216165807    1W    00000250000000452000000000032Q8    EMEMI   000000000000MB121019
BI00B32Q8    EW2202ETMW     202201191801W006980              IVSSH 0.35F BR           CCN000047500000047500FN00000000020220201000047500NNE   20211216165807    1W    00000250000000452000000000032Q8    EMEMI   000000000000MB121020
BI00B32Q8    EW2202ETMW     202201191801W006960              IVSSH 0.35F G            CCN000195000000195000FN00000000020220201000195000NNE   20211216165807    1W    00000250000000452000000000032Q8    EMEMI   000000000000MB121021
BI00B32Q8    EW2202ETMW     202201191801W006941              IVSSH 0.35F GY           CCN000062500000062500FN00000000020220201000062500NNE   20211216165807    1W    00000250000000452000000000032Q8    EMEMI   000000000000MB121022
BI00B32Q8    EW2202ETMW     202201191801W006990              IVSSH 0.35F L            CCN000075000000075000FN00000000020220201000075000NNE   20211216165807    1W    00000250000000452000000000032Q8    EMEMI   000000000000MB121023
BI00B32Q8    EW2202ETMW     202201191801W006961              IVSSH 0.35F LG           CCN000042500000042500FN00000000020220201000042500NNE   20211216165807    1W    00000250000000452000000000032Q8    EMEMI   000000000000MB121024
BI00B32Q8    EW2202ETMW     202201191801W006950              IVSSH 0.35F R            CCN000132500000132500FN00000000020220201000132500NNE   20211216165807    1W    00000250000000452000000000032Q8    EMEMI   000000000000MB121025
BI00B32Q8    EW2202ETMW     202201191801W006992              IVSSH 0.35F V            CCN000100000000100000FN00000000020220201000100000NNE   20211216165807    1W    00000250000000452000000000032Q8    EMEMI   000000000000MB121026
BI00B32Q8    EW2202ETMW     202201191801W006940              IVSSH 0.35F W            CCN000010000000010000FN00000000020220201000010000NNE   20211216165807    1W    00000250000000452000000000032Q8    EMEMI   000000000000MB121027
BI00B32Q8    EW2202ETMW     202201191801W006970              IVSSH 0.35F Y            CCN000062500000062500FN00000000020220201000062500NNE   20211216165807    1W    00000250000000452000000000032Q8    EMEMI   000000000000MB121028
BI00B32Q8    EW2202ETMW     202201191801W003930              IVSSH 0.5F B             CCN000126000000126000FN00000000020220201000126000NNE   20211216165807    1W    00000180000000625000000000032Q8    EMEMI   000000000000MB121007
BI00B32Q8    EW2202ETMW     202201191801W003980              IVSSH 0.5F BR            CCN000005400000005400FN00000000020220201000005400NNE   20211216165807    1W    00000180000000625000000000032Q8    EMEMI   000000000000MB121008
BI00B32Q8    EW2202ETMW     202201191801W003960              IVSSH 0.5F G             CCN000028800000028800FN00000000020220201000028800NNE   20211216165807    1W    00000180000000625000000000032Q8    EMEMI   000000000000MB121009
BI00B32Q8    EW2202ETMW     202201191801W003990              IVSSH 0.5F L             CCN000066600000066600FN00000000020220201000066600NNE   20211216165807    1W    00000180000000625000000000032Q8    EMEMI   000000000000MB121010
BI00B32Q8    EW2202ETMW     202201191801W003961              IVSSH 0.5F LG            CCN000025200000025200FN00000000020220201000025200NNE   20211216165807    1W    00000180000000625000000000032Q8    EMEMI   000000000000MB121011
BI00B32Q8    EW2202ETMW     202201191801W003950              IVSSH 0.5F R             CCN000099000000099000FN00000000020220201000099000NNE   20211216165807    1W    00000180000000625000000000032Q8    EMEMI   000000000000MB121012
BI00B32Q8    EW2202ETMW     202201191801W003992              IVSSH 0.5F V             CCN000005400000005400FN00000000020220201000005400NNE   20211216165807    1W    00000180000000625000000000032Q8    EMEMI   000000000000MB121013
BI00B32Q8    EW2202ETMW     202201191801W003943              IVSSH 0.5F W/B           CCN000009000000009000FN00000000020220201000009000NNE   20211216165807    1W    00000180000000625000000000032Q8    EMEMI   000000000000MB121014
BI00B32Q8    EW2202ETMW     202201191801W004080              IVSSH 0.75F BR           CCN000005200000005200FN00000000020220201000005200NNE   20211216165807    1W    00000130000000882000000000032Q8    EMEMI   000000000000MB121015
BI00B32Q8    EW2202ETMW     202201191801W004060              IVSSH 0.75F G            CCN000003900000003900FN00000000020220201000003900NNE   20211216165807    1W    00000130000000882000000000032Q8    EMEMI   000000000000MB121016
BI00B32Q8    EW2202ETMW     202201191801W004090              IVSSH 0.75F L            CCN000019500000019500FN00000000020220201000019500NNE   20211216165807    1W    00000130000000882000000000032Q8    EMEMI   000000000000MB121017
BI00B32Q8    EW2202ETMW     202201191801W004070              IVSSH 0.75F Y            CCN000001300000001300FN00000000020220201000001300NNE   20211216165807    1W    00000130000000882000000000032Q8    EMEMI   000000000000MB121018
BI00B32Q8    @EW2202ETMW    20220112181E50004ZZ              AVSSCS-S 0.5FX1 DGY      CCN000006800000006800FN00000000020220201000006800NNE   20211216165801    1W    00000040000001817000000000032Q8    EMEMI   000000000000ME41C003
BI00B32Q8    @EW2202ETMW    20220112181E50028ZZ              AVSSCS-S 0.5FX3 DGY      CCN000007750000007750FN00000000020220201000007750NNE   20211216165801    1W    00000025000003245000000000032Q8    EMEMI   000000000000ME41C004
BI00B32Q8    @EW2202ETMW    20220112181E50036ZZ              AVSSCS-S 0.3FX2 DGY      CCN000055650000055650FN00000000020220201000055650NNE   20211216165801    1W    00000035000001997000000000032Q8    EMEMI   000000000000ME41C005
BI00B32Q8    @EW2202ETMW    20220112181D69004ZZ              AVSSHCS 1.25FX2 B        CCN000005000000005000FN00000000020220201000005000NNE   20211216165801    1W    00000020000004432000000000032Q8    EMEMI   000000000000ME41C002
BI00B32Q8    @EW2202ETMW    20220112181D69102A8              AVSSHCS 0.5FX2 B/P       CCN000003600000003600FN00000000020220201000003600NNE   20211216165801    1W    00000030000002792600000000032Q8    EMEMI   000000000000ME41C001
BI00B32Q8    @EW2202FTMW    20220119181F21028ZZ              AVSSHCS-S 1.25FX2 B/R    CCN000009600000009600FN00000000020220201000009600NNE   20211216165803    1W    00000020000004262000000000032Q8    EMEMI   000000000000MF121001
BI00A32U5    DW2004A        202112221801W003930              IVSSH 0.5F B             CCN000117000000117000FN00000000020220301000117000NNE   20211216143532U5  1W    00000180000000625000000000032U5    ASAMSD  000000000000AK21C003
BI00A32U5    DW2004A        202112221801W003952              IVSSH 0.5F P             CCN000027000000027000FN00000000020220301000027000NNE   20211216143532U5  1W    00000180000000625000000000032U5    ASAMSD  000000000000AK21C004
BI00A32U5    DW2004A        202112221801W003970              IVSSH 0.5F Y             CCN000014400000014400FN00000000020220301000014400NNE   20211216143532U5  1W    00000180000000625000000000032U5    ASAMSD  000000000000AK21C005
BI00A32U5    DW2004A        202112221801W004030              IVSSH 0.75F B            CCN000026000000026000FN00000000020220301000026000NNE   20211216143532U5  1W    00000130000000882000000000032U5    ASAMSD  000000000000AK21C006
BI00A32U5    DW2004A        202112221801W004040              IVSSH 0.75F W            CCN000001300000001300FN00000000020220301000001300NNE   20211216143532U5  1W    00000130000000882000000000032U5    ASAMSD  000000000000AK21C009
BI00A32U5    DW2004A        202112221801W004043              IVSSH 0.75F W/B          CCN000170300000170300FN00000000020220301000170300NNE   20211216143532U5  1W    00000130000000882000000000032U5    ASAMSD  000000000000AK21C010
BI00A32U5    DW2004A        202112221801W004060              IVSSH 0.75F G            CCN000005200000005200FN00000000020220301000005200NNE   20211216143532U5  1W    00000130000000882000000000032U5    ASAMSD  000000000000AK21C007
BI00A32U5    DW2004A        202112221801W004090              IVSSH 0.75F L            CCN000001300000001300FN00000000020220301000001300NNE   20211216143532U5  1W    00000130000000882000000000032U5    ASAMSD  000000000000AK21C008
BI00A32U5    DW2004A        202112221801W006950              IVSSH 0.35F R            CCN000025000000025000FN00000000020220301000025000NNE   20211216143532U5  1W    00000250000000452000000000032U5    ASAMSD  000000000000AK21C014
BI00A32U5    DW2004A        202112221801W00695U              IVSSH 0.35F BE           CCN000007500000007500FN00000000020220301000007500NNE   20211216143532U5  1W    00000250000000452000000000032U5    ASAMSD  000000000000AK21C011
BI00A32U5    DW2004A        202112221801W006960              IVSSH 0.35F G            CCN000007500000007500FN00000000020220301000007500NNE   20211216143532U5  1W    00000250000000452000000000032U5    ASAMSD  000000000000AK21C012
BI00A32U5    DW2004A        202112221801W006961              IVSSH 0.35F LG           CCN000007500000007500FN00000000020220301000007500NNE   20211216143532U5  1W    00000250000000452000000000032U5    ASAMSD  000000000000AK21C013
BI00A32U5    DW2004B        202112171801W003940              IVSSH 0.5F W             CCN000016200000016200FN00000000020220301000016200NNE20 20211216153804U5  1W    00000180000000625000000000032U5    ASAMSD  000000000000AQ11C011
BI00A32U5    DW2004B        202112171801W003990              IVSSH 0.5F L             CCN000007200000007200FN00000000020220301000007200NNE20 20211216153804U5  1W    00000180000000625000000000032U5    ASAMSD  000000000000AQ11C010
BI00A32U5    @DW2004B       20211217181AD2013ZZ              CIVUSAS-S 1.25X2 B       CCN000000220000000220FN00000000020220301000000220NNE20 20211216153804U5  1W    00000022000004000000000000032U5    ASAMSD  000000000000AQ11C009
BI00A32X5    TWB2004A       202112221801W003930              IVSSH 0.5F B             CCN000001800000001800FN00000000020220301000001800NNE   20211216144015X5  1W    00000180000000625000000000032X5    EPYNA-E 000000000000AF21C003
BI00A32X5    TWB2004A       202112221801W004030              IVSSH 0.75F B            CCN000001300000001300FN00000000020220301000001300NNE   20211216144015X5  1W    00000130000000882000000000032X5    EPYNA-E 000000000000AF21C004
BI00A32X5    TWB2004A       202112221801W004040              IVSSH 0.75F W            CCN000001300000001300FN00000000020220301000001300NNE   20211216144015X5  1W    00000130000000882000000000032X5    EPYNA-E 000000000000AF21C006
BI00A32X5    TWB2004A       202112221801W004090              IVSSH 0.75F L            CCN000001300000001300FN00000000020220301000001300NNE   20211216144015X5  1W    00000130000000882000000000032X5    EPYNA-E 000000000000AF21C005
BI00A32X5    TWB2004B       202112171801W004030              IVSSH 0.75F B            CCN000001300000001300FN00000000020220301000001300NNE20 20211216160822X5  1W    00000130000000882000000000032X5    EPYNA-E 000000000000AF11C011
