BI00A1200    #2399T51921    202112207289-4200-30             HOUSING FEMALE ASS'Y     PCN000082000000082000FY00008200020211101000000000NNMD0020211216113519    2N0N  0000020000000092600000102101200    YCYC    005400370024
BI00B1200    8640T51902     202112177289-3342-30             HOUSING FEMALE ASS'Y     CCN000002400000002400FN00000000020220101000002400NNE00020211216155041    1N0N  0000024000000068640000090141200    YCYC    005500360039
BI00B1200    2399T51A16     202112177288-6598-70             HOUSING MALE ASS'Y       CCN000025920000025920FN00001728020211201000008640NNM00020211216154021    4N0N  0000014400000107420000142921200    YCYC    005500360039
BI00B1200    7360T51B01     202112177289-3342-30             HOUSING FEMALE ASS'Y     CCN000012000000012000FN00000000020220101000012000NNM00020211216154958    1N0N  0000024000000068640000090141200    YCYC    005500360039
BI00B1200    #2399T51B18    202112177289-3622-30             HOUSING FEMALE ASS'Y     CCN000005616000005616FN00000000020220101000005616NNM00020211216153643    2N0N  0000004320000083940000103841200    YCYC    005400370024
BI00A1200    2399T51C20     202112237289-9612-30             HOUSING FEMALE ASS'Y     CCN000000720000000720FN00000000020220101000000720NNMM0020211216122031    4N0N  0000002400000134880000166881200    YCYC    005500360039
BI00A1200    2399T51C21     202201067289-9612-30             HOUSING FEMALE ASS'Y     CCN000000720000000720FN00000000020220101000000720NNMM0020211216122031    4N0N  0000002400000134880000166881200    YCYC    005500360039
BI00A1200    MKH2021-223    202112247196-1935-02             TERMINAL FEMALE          CCN000162000000162000FN00000000020211201000162000NNED0720211216133613    4P0P  0000180000000053460000081981200    YCYC    006400630015
BI00B1200    CE21-MN-0157   202112237196-2024-02             TERMINAL FEMALE          CCN000024000000024000FN00000000020201201000024000NNED0020211216122031    4P0P  0000240000000000000000000001200    YCYC    000000000000
BI00B1200    CE21-MN-0157   202112237196-2027-02             TERMINAL FEMALE          CCN000024000000024000FN00000000020201201000024000NNED0020211216122031    4P0P  0000240000000000000000000001200    YCYC    000000000000
BI00B1200    CE21-MN-0157   202112237196-2030-02             TERMINAL FEMALE          CCN000015000000015000FN00000000020201201000015000NNED0020211216122031    4P0P  0000150000000000000000000001200    YCYC    000000000000
BI00B1200    CE21-MN-0157   202112237196-2032-02             TERMINAL FEMALE          CCN000015000000015000FN00000000020201201000015000NNED0020211216122031    4P0P  0000150000000000000000000001200    YCYC    000000000000
BI00A1200    QA-21-C136     202112177289-7212-30             HOUSING FEMALE ASS'Y     PNY000003600000004080FN00000000020211201000004080NNE00020211216161459    4N0N  0000002400000138840000159341200    YCYC    005500360039
BI00A1200    QA-21-C136     202112207289-7212-30             HOUSING FEMALE ASS'Y     PNY000002400000001920FN00000000020211201000001920NNE00020211216161510    4N0N  0000002400000138840000159341200    YCYC    005500360039
BI00B1200    2399T51C30     202202037289-6868-30             SEALED ASSY FEMALE       CCN000005040000005040FN00000000020220201000005040NNE   20211216145231    4N0N  0000025200000083920000111921200    YCYC    005500360039
BI00B1200    #7360T51C09    202201207198-4979-30             HOUSING FEMALE           CCN000004000000004000FN00000000020220201000004000NNE   20211216145245    2F0F  0000040000000070720000087601200    YCYC    005400370024
BI00B1200    O022C50036     202202177116-4100-02             TERMINAL                 CCN000060000000060000FN00000000020220301000060000NNE   20211216145307    4P0P  0000150000000069600000099021200    YCYC    006400630015
BI00B1200    O022C50037     202202177116-4100-02             TERMINAL                 CCN000060000000060000FN00000000020220301000060000NNE   20211216145322    4P0P  0000150000000069600000099021200    YCYC    006400630015
BI00B1200    #Y022C50042    202202247174-1314-30             SEALED COVER             CCN000001600000001600FN00000000020220301000001600NNM   20211216145335    2F0F  0000008000000076930000088931200    YCYC    005500360039
BI00B1200    #Y022C50043    202202247174-1315-30             SEALED COVER             CCN000001600000001600FN00000000020220301000001600NNM   20211216145358    2F0F  0000008000000078200000090201200    YCYC    005500360039
BI00B1200    Y022C50044     202202247196-0648-02             TERMINAL                 CCN000030000000030000FN00000000020220301000030000NNM   20211216145426    4P0P  0000150000000035550000068971200    YCYC    006400630015
BI00B1200    Y022C50045     202202247289-6523-30             HOUSING FEMALE ASS'Y     CCN000001440000001440FN00000000020220301000001440NNM   20211216145444    4N0N  0000002400000129050000162051200    YCYC    005500360039
BI00B1200    Y022C50046     202202247289-9612-30             HOUSING FEMALE ASS'Y     CCN000001440000001440FN00000000020220301000001440NNM   20211216145518    4N0N  0000002400000134880000166881200    YCYC    005500360039
BI00B1200    7860T51C07     202202037196-1104-02             TERMINAL                 CCN000022500000022500FN00000000020220301000022500NNM   20211216145610    4P0P  0000225000000044100000072621200    YCYC    006400630015
BI00B1200    #7860T51C07    202202037172-5630-40             RUBBER STOPPER           CCN000040000000040000FN00000000020220301000040000NNM   20211216145538    2H0H  0000200000000004400000009511200    YCYC    004300270014
BI00B1200    #7860T51C08    202202107172-5630-40             RUBBER STOPPER           CCN000020000000020000FN00000000020220301000020000NNM   20211216145538    2H0H  0000200000000004400000009511200    YCYC    004300270014
BI00B1200    #7860T51C07    202202037172-5631-60             RUBBER STOPPER           CCN000060000000060000FN00000000020220301000060000NNM   20211216145538    2H0H  0000200000000004200000009311200    YCYC    004300270014
BI00B1200    #7860T51C08    202202107172-5631-60             RUBBER STOPPER           CCN000040000000040000FN00000000020220301000040000NNM   20211216145538    2H0H  0000200000000004200000009311200    YCYC    004300270014
BI00B1200    2399T51C29     202204217116-4100-02             TERMINAL                 CCN000060000000060000FN00000000020220501000060000NNE   20211216145613    4P0P  0000150000000069600000099021200    YCYC    006400630015
BI00B32AF    JTB2024        202202187017-1182-02             TERMINAL                 CCN000045000000045000FN00000000020220201000045000NNMD0020211216143929    4P0P  00004500000001165500001318632AF    HBYHVTB 005100280028
BI00B32AF    JTB2025        202202257017-1182-02             TERMINAL                 CCN000135000000135000FN00000000020220201000135000NNMD0020211216144352    4P0P  00004500000001165500001318632AF    HBYHVTB 005100280028
BI00B32AF    JTB2023        202202117114-1670-02             TERMINAL                 CCN000024000000024000FN00000000020220201000024000NNMD0020211216143619    1P0P  00002400000000357600000645832AF    HBYHVTB 006400630015
BI00B32AF    JTB2024        202202187114-1670-02             TERMINAL                 CCN000024000000024000FN00000000020220201000024000NNMD0020211216143929    1P0P  00002400000000357600000645832AF    HBYHVTB 006400630015
BI00B32AF    JTB2025        202202257114-1670-02             TERMINAL                 CCN000024000000024000FN00000000020220201000024000NNMD0020211216144352    1P0P  00002400000000357600000645832AF    HBYHVTB 006400630015
BI00B32AF    JTB2025        202202257114-4231-02             TERMINAL                 CCN000036000000036000FN00000000020220201000036000NNMD0020211216144352    4P0P  00001800000000554400000848032AF    HBYHVTB 006400630015
BI00B32AF    JTB2024        202202187114-4728-08             TERMINAL                 CCN000030000000030000FN00000000020220201000030000NNMD0020211216143929    4P0P  00003000000000507000000801232AF    HBYHVTB 006400630015
BI00B32AF    JTB2025        202202257114-4728-08             TERMINAL                 CCN000030000000030000FN00000000020220201000030000NNMD0020211216144352    4P0P  00003000000000507000000801232AF    HBYHVTB 006400630015
BI00B32AF    JTB2025        202202257114-5747-02             TERMINAL                 CCN000018000000018000FN00000000020220201000018000NNMD0020211216144352    4P0P  00001800000000626400000920032AF    HBYHVTB 006400630015
BI00B32AF    JTB2025        202202257114-5748-02             TERMINAL                 CCN000060000000060000FN00000000020220201000060000NNMD0020211216144352    4P0P  00001200000000444000000737632AF    HBYHVTB 006400630015
BI00B32AF    JTB2025        202202257116-3153-08             TERMINAL                 CCN000027000000027000FN00000000020220201000027000NNMD0020211216144352    4P0P  00002700000000461700000746932AF    HBYHVTB 006400630015
BI00B32AF    JTB2024        202202187116-4025                TERMINAL                 CCN000016000000016000FN00000000020220201000016000NNMD0020211216143929    4P0P  00001600000000644800000975132AF    HBYHVTB 006400630017
BI00B32AF    JTB2024        202202187116-4100-02             TERMINAL                 CCN000015000000015000FN00000000020220201000015000NNMD0020211216143929    4P0P  00001500000000696000000990232AF    HBYHVTB 006400630015
BI00B32AF    JTB2024        202202187116-4111-02             TERMINAL                 CCN000007500000007500FN00000000020220201000007500NNMD0020211216143929    4P0P  00000750000000529500000817732AF    HBYHVTB 006400630015
BI00B32AF    JTB2023        202202117116-4416-02             TERMINAL                 CCN000032000000032000FN00000000020220201000032000NNMD0020211216143619    4P0P  00003200000000518400000847132AF    HBYHVTB 006400630017
BI00B32AF    JTB2024        202202187116-4416-02             TERMINAL                 CCN000064000000064000FN00000000020220201000064000NNMD0020211216143929    4P0P  00003200000000518400000847132AF    HBYHVTB 006400630017
BI00B32AF    JTB2025        202202257116-4486-02             TERMINAL                 CCN000140000000140000FN00000000020220201000140000NNMD0020211216144352    4P0P  00002800000000666400000995132AF    HBYHVTB 006400630017
BI00B32AF    JTB2024        202202187116-5044-02             TERMINAL                 CCN000048000000048000FN00000000020220201000048000NNMD0020211216143929    4P0P  00001600000000641600000986332AF    HBYHVTB 006400630017
BI00B32AF    JTB2025        202202257116-5044-02             TERMINAL                 CCN000032000000032000FN00000000020220201000032000NNMD0020211216144352    4P0P  00001600000000641600000986332AF    HBYHVTB 006400630017
BI00B32AF    JTB2025        202202257116-5097-02             TERMINAL                 CCN000022500000022500FN00000000020220201000022500NNMD0020211216144352    4P0P  00002250000000531000000816232AF    HBYHVTB 006400630015
BI00B32AF    JTB2024        202202187116-5750-02             TERMINAL                 CCN000135000000135000FN00000000020220201000135000NNMD0020211216143929    4P0P  00001500000000457500000742732AF    HBYHVTB 006400630015
BI00B32AF    JTB2025        202202257116-5750-02             TERMINAL                 CCN000135000000135000FN00000000020220201000135000NNMD0020211216144352    4P0P  00001500000000457500000742732AF    HBYHVTB 006400630015
BI00B32AF    JTB2025        202202257116-5752-02             TERMINAL                 CCN000042000000042000FN00000000020220201000042000NNMD0020211216144352    4P0P  00002100000000571200000856432AF    HBYHVTB 006400630015
BI00B32AF    JTB2025        202202257126-8855-02             TERMINAL                 CCN000006000000006000FN00000000020220201000006000NNMD0020211216144352    4P0P  00000600000000510600000795832AF    HBYHVTB 006400630015
BI00B32AF    JTB2025        202202257158-3009-60             RUBBER STOPPER           CCN000060000000060000FN00000000020220201000060000NNMD0020211216144352    1C0C  00002000000000338000000386232AF    HBYHVTB 002700430014
BI00B32AF    JTB2024        202202187158-3166-60             WIRE SEAL                CCN000040000000040000FN00000000020220201000040000NNMD0020211216143929    1C0C  00004000000000104000000152432AF    HBYHVTB 002700430014
BI00B32AF    JTB2024        202202187196-1460-02             TERMINAL FEMALE          CCN000057000000057000FN00000000020220201000057000NNMD0020211216143929    4P0P  00002850000000444600000729832AF    HBYHVTB 006400630015
BI00B32AF    #JTB2025       202202257158-3005-80             RUBBER STOPPER           CCN000020000000020000FN00000000020220201000020000NNMD0020211216144458    2H0H  00002000000000210000000268732AF    HBYHVTB 002700430014
BI00B32AF    #JTB2025       202202257158-3007-10             RUBBER STOPPER           CCN000020000000020000FN00000000020220201000020000NNMD0020211216144458    2H0H  00002000000000308000000362732AF    HBYHVTB 002700430014
BI00B32AF    #JTB2024       202202187158-3120-90             CONNECTOR WIRE SEAL      CCN000040000000040000FN00000000020220201000040000NNMD0020211216144012    2C0C  00002000000000136000000194032AF    HBYHVTB 002700430014
BI00B32AF    #JTB2025       202202257158-3120-90             CONNECTOR WIRE SEAL      CCN000040000000040000FN00000000020220201000040000NNMD0020211216144458    2C0C  00002000000000136000000194032AF    HBYHVTB 002700430014
BI00B32AF    #JTB2024       202202187158-3121-80             WIRE SEAL                CCN000020000000020000FN00000000020220201000020000NNMD0020211216144012    2C0C  00002000000000118000000187332AF    HBYHVTB 002700430014
BI00B32AF    JTB202B        202201077282-1024                HOUSING MALE             CCN000001000000001000FN00000000020220201000001000NNE   20211216145655    1N0N  00000100000000458000000580532AF    HBYHVTB 005400370024
BI00B32AG    XG22031LMW     202201217283-5843                CONNECTOR                CCN000001500000001500FN00000000020220301000001500NNMD0020211216154256    1N0N  00000150000000889000001132032AG    XGXGY   005600390040
BI00B32AG    #XG22032LMW    202201287158-3120-90             CONNECTOR WIRE SEAL      CCN000060000000060000FN00000000020220301000060000NNMD0020211216154138    2C0C  00002000000000136000000194032AG    XGXGY   002700430014
BI00B32AG    #XG22031LMW    202201217158-3121-80             WIRE SEAL                CCN000040000000040000FN00000000020220301000040000NNMD0020211216154158    2C0C  00002000000000118000000187332AG    XGXGY   002700430014
BI00B32AG    XG22031NMW     202201147126-8853-02             TERMINAL                 CCN000060000000060000FN00000000020220301000060000NNMD0020211216154324    4P0P  00000750000000562500000847732AG    XGXGY   006400630015
BI00B32A7    ZZ21124LMW     202112227158-3166-60             WIRE SEAL                CCN000280000000280000FN00000000020211201000280000NNMD0420211216182156    1C0C  00004000000000104000000152432A7    ZZZZY   002700430014
BI00B32A7    ZZ22013BMW     202112227137-3047-30             UNIT PACKING             CCN000019000000019000FN00000000020220101000019000NNM00020211216180745    1C0C  00000100000000170500000218932A7    ZZZZY   002700430014
BI00B32A7    ZZ22013BMW     202112227158-3006-90             RUBBER STOPPER           CCN000080000000080000FN00000000020220101000080000NNM00020211216180755    1C0C  00002000000000330600000386032A7    ZZZZY   002700430014
BI00B32A7    ZZ22013BMW     202112227172-5402-30             SEAL RUBBER              CCN000048000000048000FN00000000020220101000048000NNM00020211216180805    1C0C  00000800000000457600000506032A7    ZZZZY   004300270014
BI00B32A7    ZZ22013LMW     202112227137-3047-30             UNIT PACKING             CCN000005000000005000FN00000000020220101000005000NNM00020211216180828    1C0C  00000100000000170500000218932A7    ZZZZY   002700430014
BI00B32A7    ZZ22013LMW     202112227158-3006-90             RUBBER STOPPER           CCN000020000000020000FN00000000020220101000020000NNM00020211216180845    1C0C  00002000000000330600000386032A7    ZZZZY   002700430014
BI00B32A7    ZZ22013LMW     202112227158-3166-60             WIRE SEAL                CCN000360000000360000FN00000000020220101000360000NNM00020211216180853    1C0C  00004000000000104000000152432A7    ZZZZY   002700430014
BI00B32A7    ZZ22013LMW     202112227158-3167-80             WIRE SEAL                CCN000360000000360000FN00000000020220101000360000NNM00020211216180903    1C0C  00002000000000048000000109032A7    ZZZZY   002700430014
BI00B32A7    ZZ22013LMW     202112227158-3169-40             SEALING PLUG             CCN000040000000040000FN00000000020220101000040000NNM00020211216180915    1C0C  00004000000000156000000204132A7    ZZZZY   004300260014
BI00B32A7    ZZ22013LMW     202112227289-5000                HOUSING FEMALE ASS'Y     CCN000002128000002128FN00000000020220101000002128NNM00020211216180924    1N0N  00000030400000549000000759032A7    ZZZZY   005400370024
BI00B32A7    ZZ2201ALMW     202112227172-5402-30             SEAL RUBBER              CCN000016000000016000FN00000000020220101000016000NNE00020211216180955    1C0C  00000800000000457600000506032A7    ZZZZY   004300270014
BI00B32A7    ZZ2201BLMW     202112227137-3047-30             UNIT PACKING             CCN000005000000005000FN00000000020220101000005000NNE00020211216181018    1C0C  00000100000000170500000218932A7    ZZZZY   002700430014
BI00B32A7    ZZ2201BLMW     202112227172-5402-30             SEAL RUBBER              CCN000032000000032000FN00000000020220101000032000NNE00020211216181027    1C0C  00000800000000457600000506032A7    ZZZZY   004300270014
BI00B32CC    CTA32042       202201067158-3167-80             WIRE SEAL                CCN000020000000020000FN00000000020220401000020000NNE   20211216122031    1C0C  00002000000000048000000109032CC    BIYABCBU002700430014
BI00B32CH    SJ2112AHMW     202112237327-6868-30             MULTI FUSE               CCN000000864000000864FN00000000020211201000000864NNED0720211216181155    4N0N  00000028800001013500001179432CH    SJSAMIJF005400370024
BI00B32CJ    #JQN201D       202201217282-5528-70             HOUSING MALE ASS'Y       CCN000005000000005000FN00000000020220101000005000NNED0420211216171307    2N0N  00000100000000230000000339032CJ    QNYHVQN 005400370024
BI00B32DE    TCT2012        202112237283-1288-10             CONNECTOR HOUSING        CCN000002400000002400FN00000000020220101000002400NNM00 20211216181223    4N0N  00000120000001381000001637032DE    TVYEV-TV005600390040
BI00B32DE    #TCTL2021      202201277157-8991-80             RUBBER STOPPER           CCN000020000000020000FN00000000020220201000020000NNMD0020211216122031    2C0C  00002000000000214000000271032DE    TVYEV-TV002700430014
BI00B32DE    #TCTL2021      202201277158-3007-10             RUBBER STOPPER           CCN000020000000020000FN00000000020220201000020000NNMD0020211216122031    2H0H  00002000000000308000000362732DE    TVYEV-TV002700430014
BI00B32DE    #TCTL2021      202201277158-7586-30             BLOCK LIF                CCN000000800000000800FN00000000020220201000000800NNMD0020211216122031    2F0F  00000080000000617400000844232DE    TVYEV-TV005500360039
BI00B32DE    #TCTL2021      202201277183-2412                HOUSING                  CCN000001600000001600FN00000000020220201000001600NNMD0020211216122031    2F0F  00000160000001059200001245632DE    TVYEV-TV005500360039
BI00B32DE    #TCTL2021      202201277187-8856                HOUSING FEMALE           CCN000002000000002000FN00000000020220201000002000NNMD0020211216122031    2F0F  00000200000000820000000931532DE    TVYEV-TV005400370024
BI00B32DE    #TCTL2021      202201277188-0149                HLC HOUSING MALE         CCN000000900000000900FN00000000020220201000000900NNMD0020211216122031    2F0F  00000090000000809100000923832DE    TVYEV-TV005400370024
BI00B32D2    DGTC2203       202112237289-6547                HOUSING FEMALE ASS'Y     CCN000004800000004800FN00000000020220101000004800NNM00020211216162124    1N0N  00000240000001152000001362032D2    TGYOT-G 005500360039
BI00B32D2    DGTC2205       202112237288-6547                CONNECTOR MALE ASS'Y     CCN000003000000003000FN00000000020220201000003000NNM00020211216181352    4N0N  00000075000001205300001340332D2    TGYOT-G 005400370024
BI00B32D2    DGTC2205       202112237289-3342-30             HOUSING FEMALE ASS'Y     CCN000007200000007200FN00000000020220201000007200NNM00020211216181335    1N0N  00000240000000686400000901432D2    TGYOT-G 005500360039
BI00B32D2    DGTC2205       202112237289-6547                HOUSING FEMALE ASS'Y     CCN000002400000002400FN00000000020220201000002400NNM00020211216181343    1N0N  00000240000001152000001362032D2    TGYOT-G 005500360039
BI00B32D9    #I20401        202112237158-3003-90             RUBBER STOPPER           CCN000180000000180000FN00000000020220101000180000NNMD0020211216122031    2C0C  00002000000000250000000306032D9    UEHESTO 002700430014
BI00B32D9    #I20401        202112237158-3004-40             RUBBER STOPPER           CCN000080000000080000FN00000000020220101000080000NNMD0020211216122031    2C0C  00002000000000234000000306332D9    UEHESTO 002700430014
BI00B32D9    #I20401        202112237158-3007-10             RUBBER STOPPER           CCN000080000000080000FN00000000020220101000080000NNMD0020211216122031    2H0H  00002000000000308000000362732D9    UEHESTO 002700430014
BI00B32D9    #I20401        202112237158-3008-80             RUBBER STOPPER           CCN000140000000140000FN00000000020220101000140000NNMD0020211216122031    2C0C  00002000000000288000000343032D9    UEHESTO 004300270014
BI00B32D9    #I20401        202112237158-3015-10             RUBBER STOPPER           CCN000010000000010000FN00000000020220101000010000NNMD0020211216122031    2C0C  00001000000000419500000474032D9    UEHESTO 002700430014
BI00B32D9    #I20401        202112237158-3017                RUBBER STOPPER           CCN000020000000020000FN00000000020220101000020000NNMD0020211216122031    2C0C  00001000000000375500000435032D9    UEHESTO 002700430014
BI00B32D9    #I20401        202112237172-5629-80             RUBBER STOPPER           CCN000060000000060000FN00000000020220101000060000NNMD0020211216122031    2H0H  00002000000000060000000111132D9    UEHESTO 004300270014
BI00B32D9    #I20401        202112237172-5630-40             RUBBER STOPPER           CCN000020000000020000FN00000000020220101000020000NNMD0020211216122031    2H0H  00002000000000044000000095132D9    UEHESTO 004300270014
BI00B32D9    #I20401        202112237172-5631-60             RUBBER STOPPER           CCN000020000000020000FN00000000020220101000020000NNMD0020211216122031    2H0H  00002000000000042000000093132D9    UEHESTO 004300270014
BI00B32D9    #I20401        202112237172-5632-10             DUMMY PLUG               CCN000020000000020000FN00000000020220101000020000NNMD0020211216122031    2H0H  00002000000000080400000131832D9    UEHESTO 004300270014
BI00A32EJ    4500174465     202201127288-6547                CONNECTOR MALE ASS'Y     CCN000007500000008250FN00000000020210901000008250NNED0220211216160835EJ  4N0N  00000075000001205300001340332EJ    EJYKBO  005400370024
BI00A32EJ    4500174465     202201197288-6547                CONNECTOR MALE ASS'Y     CCN000007500000000000FY00000000020210901000000000NNED0220211216160835EJ  4N0N  00000075000001205300001340332EJ    EJYKBO  005400370024
BI00A32EJ    4500174465     202202037288-6547                CONNECTOR MALE ASS'Y     CCN000007500000000000FY00000000020210901000000000NNED0220211216160835EJ  4N0N  00000075000001205300001340332EJ    EJYKBO  005400370024
BI00A32EJ    4500174466     202201197288-6547                CONNECTOR MALE ASS'Y     CCN000007500000010500FN00000000020211001000010500NNED0220211216122031EJ  4N0N  00000075000001205300001340332EJ    EJYKBO  005400370024
BI00A32EJ    4500174466     202201127288-6547                CONNECTOR MALE ASS'Y     CCN000007500000002250FN00000000020211001000002250NNED0220211216122031EJ  4N0N  00000075000001205300001340332EJ    EJYKBO  005400370024
BI00A32EJ    4500174466     202202037288-6547                CONNECTOR MALE ASS'Y     CCN000007500000010500FN00000000020211001000010500NNED0220211216122031EJ  4N0N  00000075000001205300001340332EJ    EJYKBO  005400370024
BI00B32EJ    4500185729     202201277283-1020                CONNECTOR                CCN000048000000048000FN00000000020220101000048000NNED0420211216155701EJ  4N0N  00000600000000840000001049332EJ    EJYKBO  005600390040
BI00B32EJ    4500186060     202201207116-4037                TERMINAL                 CCN000012000000012000FN00000000020220101000012000NNE   20211216122031EJ  4P0P  00000600000000600000000894232EJ    EJYKBO  006400630015
BI00B32EJ    4500186060     202201207116-4104-02             TERMINAL                 CCN000012000000012000FN00000000020220101000012000NNE   20211216122031EJ  4P0P  00001200000000580800000972432EJ    EJYKBO  006400630015
BI00B32EJ    4500186060     202201207283-1968-30             CONNECTOR                CCN000000900000000900FN00000000020220101000000900NNE   20211216122031EJ  1N0N  00000090000001140000001318332EJ    EJYKBO  005600390040
BI00B32EJ    4500186060     202201207116-4124-02             TERMINAL                 CCN000012000000012000FN00000000020220101000012000NNE   20211216122031EJ  4P0P  00000300000000459900000753532EJ    EJYKBO  006400630015
BI00B32EJ    4500186060     202201207196-1461-06             TERMINAL FEMALE          CCN000144000000144000FN00000000020220101000144000NNE   20211216122031EJ  4P0P  00002400000000386400000692932EJ    EJYKBO  006400630015
BI00B32EJ    4500186060     202201207114-4111-02             TERMINAL                 CCN000012000000012000FN00000000020220101000012000NNE   20211216122031EJ  4P0P  00001200000000758400001087032EJ    EJYKBO  006400630017
BI00B32EJ    4500186060     202201207116-4100-02             TERMINAL                 CCN000030000000030000FN00000000020220101000030000NNE   20211216122031EJ  4P0P  00001500000000696000000990232EJ    EJYKBO  006400630015
BI00B32EJ    4500186060     202201207116-4121-02             TERMINAL                 CCN000040500000040500FN00000000020220101000040500NNE   20211216122031EJ  4P0P  00000450000000618800000912432EJ    EJYKBO  006400630015
BI00B32EJ    4500186060     202201207126-8854-02             TERMINAL                 CCN000007500000007500FN00000000020220101000007500NNE   20211216122031EJ  4P0P  00000750000000604500000889732EJ    EJYKBO  006400630015
BI00B32EJ    4500186060     202201207116-4022                TERMINAL                 CCN000013500000013500FN00000000020220101000013500NNE   20211216122031EJ  4P0P  00001350000000618300000903532EJ    EJYKBO  006400630015
BI00B32EJ    4500186060     202201207158-3166-60             WIRE SEAL                CCN000680000000680000FN00000000020220101000680000NNE   20211216122031EJ  1C0C  00004000000000104000000152432EJ    EJYKBO  002700430014
BI00B32EJ    4500186060     202201207158-3167-80             WIRE SEAL                CCN000900000000900000FN00000000020220101000900000NNE   20211216122031EJ  1C0C  00002000000000048000000109032EJ    EJYKBO  002700430014
BI00B32EJ    4500186060     202201207158-3168-80             SEALED                   CCN000040000000040000FN00000000020220101000040000NNE   20211216122031EJ  1C0C  00002000000000044000000092132EJ    EJYKBO  004300260014
BI00B32EJ    4500186060     202201207158-3169-40             SEALING PLUG             CCN000320000000320000FN00000000020220101000320000NNE   20211216122031EJ  1C0C  00004000000000156000000204132EJ    EJYKBO  004300260014
BI00B32EJ    4500186060     202201207158-3167-61             WIRE SEAL                CCN000120000000120000FN00000000020220101000120000NNE   20211216122031EJ  1C0C  00002000000000048000000096432EJ    EJYKBO  004300270014
BI00B32EJ    #4500186060    202201207158-3120-90             CONNECTOR WIRE SEAL      CCN000060000000060000FN00000000020220101000060000NNE   20211216122031EJ  2C0C  00002000000000136000000194032EJ    EJYKBO  002700430014
BI00B32EJ    #4500186060    202201207123-6423-30             CONNECTOR                CCN000002000000002000FN00000000020220101000002000NNE   20211216122031EJ  2F0F  00000200000001002000001167632EJ    EJYKBO  005600390023
BI00B32EJ    #4500186060    202201207157-3952-80             RUBBER STOPPER           CCN000010000000010000FN00000000020220101000010000NNE   20211216122031EJ  2C0C  00001000000000117000000175032EJ    EJYKBO  002700430014
BI00B32EJ    @4500186060    202201207123-4312-80             HOUSING                  CCN000001600000001600FN00000000020220101000001600NNE   20211216122031EJ  3F0F  00000080000000644200000794032EJ    EJYKBO  005500360039
BI00B32E1    NC202B         202201057017-1183-02             TERMINAL                 CCN000027000000027000FN00000000020220201000027000NNED0720211216122031    4P0P  00002700000001139400001307432E1    SPYSE   005100280028
BI00B32E1    NC202B         202201057158-3006-90             RUBBER STOPPER           CCN000020000000020000FN00000000020220201000020000NNED0720211216122031    1C0C  00002000000000330600000386032E1    SPYSE   002700430014
BI00B32E1    NC202B         202201057288-3329-30             HOUSING MALE             CCN000001500000001500FN00000000020220201000001500NNED0720211216122031    4N0N  00000150000000866100001011132E1    SPYSE   005400370024
BI00B32E1    NC202B         202201057289-3342-30             HOUSING FEMALE ASS'Y     CCN000002400000002400FN00000000020220201000002400NNED0720211216122031    1N0N  00000240000000686400000901432E1    SPYSE   005500360039
BI00B32E1    #NC202B        202201057182-2410                CONNECTOR HOUSING        CCN000001200000001200FN00000000020220201000001200NNED0720211216122031    2F0F  00000120000000959800001245632E1    SPYSE   005500360039
BI00B32E2    NY202D         202201057158-3006-90             RUBBER STOPPER           CCN000140000000140000FN00000000020220201000140000NNED0720211216122031    1C0C  00002000000000330600000386032E2    SPYSE   002700430014
BI00B32E2    NY202D         202201057158-3166-60             WIRE SEAL                CCN000240000000240000FN00000000020220201000240000NNED0720211216122031    1C0C  00004000000000104000000152432E2    SPYSE   002700430014
BI00B32E2    #NY202D        202201057158-3015-10             RUBBER STOPPER           CCN000010000000010000FN00000000020220201000010000NNED0720211216122031    2C0C  00001000000000419500000474032E2    SPYSE   002700430014
BI00B32G7    JJ2112CMMW     202112187327-6731-3W             BATTERY FUSE             CCN000003072000003072FN00000000020211201000003072NNE00020211216161618    4N0N  00000006400000697600000843032G7    JIJAI   005400370024
BI00B32G7    JJ2201E MW     202201067283-1289-40             CONNECTOR HOUSING        CCN000002400000002400FN00000000020220101000002400NNED0720211216150819    1N0N  00000060000000679800000824832G7    JIJAI   005400370024
BI00B32G7    JJ2201EMMW     202201067283-1289                CONNECTOR HOUSING        CCN000003600000003600FN00000000020220101000003600NNED0720211216150957    1N0N  00000060000000676200000817632G7    JIJAI   005400370024
BI00B32G7    JJ2202A MW     202201137116-2893-02             TERMINAL                 CCN000012000000012000FN00000000020220201000012000NNE   20211216151026    4P0P  00001200000000895200001058632G7    JIJAI   005100280028
BI00B32G7    #JJ2202A MW    202201137158-3017                RUBBER STOPPER           CCN000010000000010000FN00000000020220201000010000NNE   20211216151021    2C0C  00001000000000375500000435032G7    JIJAI   002700430014
BI00B32G7    JJ2202AMMW     202201137196-0512-02             TERMINAL                 CCN000021000000021000FN00000000020220201000021000NNE   20211216151045    4P0P  00002100000000871500001034932G7    JIJAI   002800510028
BI00B32G7    JJ2202AMMW     202201137196-1103-02             TERMINAL                 CCN000045000000045000FN00000000020220201000045000NNE   20211216151045    4P0P  00002250000000429800000715032G7    JIJAI   006400630015
BI00B32G7    JJ2202AMMW     202201137288-3330-30             HOUSING MALE             CCN000001500000001500FN00000000020220201000001500NNE   20211216151045    4N0N  00000150000000866300001011232G7    JIJAI   005400370024
BI00B32G7    #JJ2202AMMW    202201137172-5626-90             RUBBER STOPPER           CCN000020000000020000FN00000000020220201000020000NNE   20211216151041    2H0H  00002000000000076400000127832G7    JIJAI   004300270014
BI00B32G7    #JJ2202AMMW    202201137172-5627-60             RUBBER STOPPER           CCN000020000000020000FN00000000020220201000020000NNE   20211216151041    2H0H  00002000000000070400000121832G7    JIJAI   004300270014
BI00B32G7    #JJ2202AMMW    202201137172-5630-40             RUBBER STOPPER           CCN000040000000040000FN00000000020220201000040000NNE   20211216151041    2H0H  00002000000000044000000095132G7    JIJAI   004300270014
BI00B32G7    #JJ2202AMMW    202201137289-2914-40             HOUSING FEMALE ASS'Y     CCN000001500000001500FN00000000020220201000001500NNE   20211216151041    2N0N  00000150000000904500001031532G7    JIJAI   005400370024
BI00B32H2    TIJ202E        202201077282-0517                HOUSING MALE ASS'Y       CCN000002160000002160FN00000000020220201000002160NNE   20211216132301    4N0N  00000036000000612000000832032H2    HVYHV   005600390040
BI00B32H2    TIJ202E        202201077282-4578-30             HOUSING MALE ASS'Y       CCN000001200000001200FN00000000020220201000001200NNE   20211216132301    4N0N  00000120000000782600000992632H2    HVYHV   005500360039
BI00B32H2    TIJ202E        202201077282-9391                HOUSING MALE ASS'Y       CCN000002400000002400FN00000000020220201000002400NNE   20211216132301    4N0N  00000120000001017600001237632H2    HVYHV   005500360039
BI00B32H2    TIJ202E        202201077283-1289-40             CONNECTOR HOUSING        CCN000001200000001200FN00000000020220201000001200NNE   20211216132301    1N0N  00000060000000679800000824832H2    HVYHV   005400370024
BI00B32H2    TIJ202E        202201077283-4576                HOUSING FEMALE ASS'Y     CCN000028800000028800FN00000000020220201000028800NNE   20211216132301    4N0N  00000480000000651300000871332H2    HVYHV   005500360039
BI00B32H2    TIJ202E        202201077283-4577                CONNECTOR HOUSING        CCN000004800000004800FN00000000020220201000004800NNE   20211216132301    4N0N  00000480000000916800001136832H2    HVYHV   005500360039
BI00B32H2    TIJ202E        202201077286-1899                HOUSING SUB ASSEMBLY     CCN000001008000001008FN00000000020220201000001008NNE   20211216132301    4N0N  00000033600000814800001010832H2    HVYHV   005400370024
BI00B32H2    TIJ202E        202201077287-1915-90             CONNECTOR ASS'Y          CCN000002400000002400FN00000000020220201000002400NNE   20211216132301    4N0N  00000240000000666500000923132H2    HVYHV   005500360039
BI00B32H2    TIJ202E        202201077287-7599                HOUSING FEMALE ASS'Y     CCN000001600000001600FN00000000020220201000001600NNE   20211216132301    4N0N  00000160000001233600001445632H2    HVYHV   005500360039
BI00B32H2    TIJ202E        202201077289-3342-30             HOUSING FEMALE ASS'Y     CCN000007200000007200FN00000000020220201000007200NNE   20211216132301    1N0N  00000240000000686400000901432H2    HVYHV   005500360039
BI00B32H2    TIJ202E        202201077382-7524-40             JOINT CONNECTOR          CCN000002400000002400FN00000000020220201000002400NNE   20211216132301    4N0N  00000120000000943200001056732H2    HVYHV   005400370024
BI00B32H2    TIJ202E        202201077386-2747                CONNECTOR ASS'Y          CCN000002000000002000FN00000000020220201000002000NNE   20211216132301    4N0N  00000200000001162000001284532H2    HVYHV   005400370024
BI00B32H2    #TIJ202E       202201077182-2410                CONNECTOR HOUSING        CCN000002400000002400FN00000000020220201000002400NNE   20211216132259    2F0F  00000120000000959800001245632H2    HVYHV   005500360039
BI00B32H2    #TIJ202E       202201077183-2416                HOUSING                  CCN000002400000002400FN00000000020220201000002400NNE   20211216132259    2F0F  00000240000001495200001771032H2    HVYHV   005500360039
BI00B32H2    #TIJ202E       202201077189-3034-30             HOUSING FEMALE           CCN000001600000001600FN00000000020220201000001600NNE   20211216132259    2F0F  00000160000000972800001192832H2    HVYHV   005500360039
BI00B32H2    #TIJ202E       202201077283-1095-30             HOUSING FEMALE ASS'Y     CCN000001000000001000FN00000000020220201000001000NNE   20211216132259    2N0N  00000100000000470000000652532H2    HVYHV   005400370024
BI00B32H2    #TIJ202E       202201077287-7860-70             HYBRID FEMALE ASS'Y      CCN000002400000002400FN00000000020220201000002400NNE   20211216132259    2N0N  00000120000000464400000650432H2    HVYHV   005500360039
BI00B32H2    TIJ202F        202201217114-4032                TERMINAL                 CCN000015000000015000FN00000000020220201000015000NNE   20211216132316    4P0P  00000750000000735000001063632H2    HVYHV   006400630017
BI00B32H2    TIJ202F        202201217114-4729-02             TERMINAL                 CCN000090000000090000FN00000000020220201000090000NNE   20211216132316    4P0P  00003000000000516000000810232H2    HVYHV   006400630015
BI00B32H2    TIJ202F        202201217114-5746-02             TERMINAL                 CCN000042000000042000FN00000000020220201000042000NNE   20211216132316    4P0P  00002100000000695100000988732H2    HVYHV   006400630015
BI00B32H2    TIJ202F        202201217114-5747-02             TERMINAL                 CCN000072000000072000FN00000000020220201000072000NNE   20211216132316    4P0P  00001800000000626400000920032H2    HVYHV   006400630015
BI00B32H2    TIJ202F        202201217116-4037                TERMINAL                 CCN000006000000006000FN00000000020220201000006000NNE   20211216132316    4P0P  00000600000000600000000894232H2    HVYHV   006400630015
BI00B32H2    TIJ202F        202201217116-4486-02             TERMINAL                 CCN000056000000056000FN00000000020220201000056000NNE   20211216132316    4P0P  00002800000000666400000995132H2    HVYHV   006400630017
BI00B32H2    TIJ202F        202201217126-8853-02             TERMINAL                 CCN000007500000007500FN00000000020220201000007500NNE   20211216132316    4P0P  00000750000000562500000847732H2    HVYHV   006400630015
BI00B32H2    TIJ202F        202201217126-8854-02             TERMINAL                 CCN000015000000015000FN00000000020220201000015000NNE   20211216132316    4P0P  00000750000000604500000889732H2    HVYHV   006400630015
BI00B32H2    TIJ202F        202201217126-8855-02             TERMINAL                 CCN000006000000006000FN00000000020220201000006000NNE   20211216132316    4P0P  00000600000000510600000795832H2    HVYHV   006400630015
BI00B32H2    TIJ202F        202201217196-1326-02             TERMINAL FEMALE          CCN000060000000060000FN00000000020220201000060000NNE   20211216132316    4P0P  00006000000000456000000784732H2    HVYHV   006400630017
BI00B32H2    TIJ202F        202201217282-1024                HOUSING MALE             CCN000002000000002000FN00000000020220201000002000NNE   20211216132316    1N0N  00000100000000458000000580532H2    HVYHV   005400370024
BI00B32H2    TIJ202F        202201217282-4578-30             HOUSING MALE ASS'Y       CCN000003600000003600FN00000000020220201000003600NNE   20211216132316    4N0N  00000120000000782600000992632H2    HVYHV   005500360039
BI00B32H2    TIJ202F        202201217283-1156                CONNECTOR                CCN000002400000002400FN00000000020220201000002400NNE   20211216132316    4N0N  00000080000000877600001078032H2    HVYHV   005600390040
BI00B32H2    TIJ202F        202201217283-4576                HOUSING FEMALE ASS'Y     CCN000009600000009600FN00000000020220201000009600NNE   20211216132316    4N0N  00000480000000651300000871332H2    HVYHV   005500360039
BI00B32H2    TIJ202F        202201217283-4576-30             HOUSING FEMALE ASS'Y     CCN000004800000004800FN00000000020220201000004800NNE   20211216132316    4N0N  00000480000000651300000871332H2    HVYHV   005500360039
BI00B32H2    TIJ202F        202201217287-7598-30             HOUSING FEMALE ASS'Y     CCN000001000000001000FN00000000020220201000001000NNE   20211216132316    4N0N  00000100000000508000000620532H2    HVYHV   005400370024
BI00B32H2    TIJ202F        202201217288-6547                CONNECTOR MALE ASS'Y     CCN000003000000003000FN00000000020220201000003000NNE   20211216132316    4N0N  00000075000001205300001340332H2    HVYHV   005400370024
BI00B32H2    TIJ202F        202201217289-3342-30             HOUSING FEMALE ASS'Y     CCN000014400000014400FN00000000020220201000014400NNE   20211216132316    1N0N  00000240000000686400000901432H2    HVYHV   005500360039
BI00B32H2    #TIJ202F       202201217182-2410                CONNECTOR HOUSING        CCN000002400000002400FN00000000020220201000002400NNE   20211216132315    2F0F  00000120000000959800001245632H2    HVYHV   005500360039
BI00B32H2    #TIJ202F       202201217183-2413-40             CONNECTOR HOUSING        CCN000004800000004800FN00000000020220201000004800NNE   20211216132315    2F0F  00000480000000479000000761032H2    HVYHV   005500360039
BI00B32H2    #TIJ202F       202201217183-2418-30             CONNECTOR HOUSING        CCN000004800000004800FN00000000020220201000004800NNE   20211216132315    2F0F  00000480000000917000001235332H2    HVYHV   005500360039
BI00B32H2    #TIJ202F       202201217282-1210                CONNECTOR MALE ASS'Y     CCN000001000000001000FN00000000020220201000001000NNE   20211216132315    2N0N  00000100000000336000000458532H2    HVYHV   005400370024
BI00B32H2    TIJ202G        202201287282-1024                HOUSING MALE             CCN000002000000002000FN00000000020220201000002000NNE   20211216132329    1N0N  00000100000000458000000580532H2    HVYHV   005400370024
BI00B32H2    TIJ202G        202201287282-4855                HOUSING MALE ASS'Y       CCN000002400000002400FN00000000020220201000002400NNE   20211216132329    4N0N  00000120000001063200001283232H2    HVYHV   005500360039
BI00B32H2    TIJ202G        202201287282-9391                HOUSING MALE ASS'Y       CCN000001200000001200FN00000000020220201000001200NNE   20211216132329    4N0N  00000120000001017600001237632H2    HVYHV   005500360039
BI00B32H2    TIJ202G        202201287287-3885                HYBRID FEMALE ASS'Y      CCN000004800000004800FN00000000020220201000004800NNE   20211216132329    1N0N  00000240000001029600001249632H2    HVYHV   005500360039
BI00B32H2    TIJ202G        202201287288-6547                CONNECTOR MALE ASS'Y     CCN000007500000007500FN00000000020220201000007500NNE   20211216132329    4N0N  00000075000001205300001340332H2    HVYHV   005400370024
BI00B32H2    TIJ202G        202201287289-6547                HOUSING FEMALE ASS'Y     CCN000004800000004800FN00000000020220201000004800NNE   20211216132329    1N0N  00000240000001152000001362032H2    HVYHV   005500360039
BI00B32H2    TIJ202G        202201287382-7524-40             JOINT CONNECTOR          CCN000001200000001200FN00000000020220201000001200NNE   20211216132329    4N0N  00000120000000943200001056732H2    HVYHV   005400370024
BI00B32H2    #TIJ202G       202201287183-0522                HOUSING                  CCN000002400000002400FN00000000020220201000002400NNE   20211216132327    2F0F  00000240000000951000001230032H2    HVYHV   005500360039
BI00B32H2    #TIJ202G       202201287183-6320-30             HOUSING                  CCN000004800000004800FN00000000020220201000004800NNE   20211216132327    2F0F  00000480000000819400001102232H2    HVYHV   005500360039
BI00B32H2    #TIJ202G       202201287187-1616                HOUSING FEMALE           CCN000004000000004000FN00000000020220201000004000NNE   20211216132327    2F0F  00000400000001152000001262032H2    HVYHV   005500360039
BI00B32H2    TIJ202H        202202047282-1024                HOUSING MALE             CCN000002000000002000FN00000000020220201000002000NNE   20211216132631    1N0N  00000100000000458000000580532H2    HVYHV   005400370024
BI00B32H2    TIJ202H        202202047282-4576                HOUSING MALE ASS'Y       CCN000009600000009600FN00000000020220201000009600NNE   20211216132631    4N0N  00000240000000808800001028832H2    HVYHV   005500360039
BI00B32H2    TIJ202H        202202047282-4578-30             HOUSING MALE ASS'Y       CCN000001200000001200FN00000000020220201000001200NNE   20211216132631    4N0N  00000120000000782600000992632H2    HVYHV   005500360039
BI00B32H2    TIJ202H        202202047283-4576                HOUSING FEMALE ASS'Y     CCN000009600000009600FN00000000020220201000009600NNE   20211216132631    4N0N  00000480000000651300000871332H2    HVYHV   005500360039
BI00B32H2    TIJ202H        202202047287-9323-40             UNSEALED HOUSING SUB     CCN000002400000002400FN00000000020220201000002400NNE   20211216132631    1N0N  00000240000000537600000690032H2    HVYHV   005600390023
BI00B32H2    TIJ202H        202202047288-6547                CONNECTOR MALE ASS'Y     CCN000006000000006000FN00000000020220201000006000NNE   20211216132631    4N0N  00000075000001205300001340332H2    HVYHV   005400370024
BI00B32H2    TIJ202H        202202047289-6547                HOUSING FEMALE ASS'Y     CCN000002400000002400FN00000000020220201000002400NNE   20211216132631    1N0N  00000240000001152000001362032H2    HVYHV   005500360039
BI00B32H2    TIJ202H        202202047386-2747                CONNECTOR ASS'Y          CCN000002000000002000FN00000000020220201000002000NNE   20211216132631    4N0N  00000200000001162000001284532H2    HVYHV   005400370024
BI00B32H2    #TIJ202H       202202047183-2413-40             CONNECTOR HOUSING        CCN000004800000004800FN00000000020220201000004800NNE   20211216132340    2F0F  00000480000000479000000761032H2    HVYHV   005500360039
BI00B32H2    #TIJ202H       202202047282-1214                CONNECTOR                CCN000001000000001000FN00000000020220201000001000NNE   20211216132340    2N0N  00000100000000900000001030032H2    HVYHV   005500360039
BI00A32H8    #TY22012 MW    202201077157-7812                SEAL RUBBER              PCN000300000000300000FN00000000020220101000300000NNMM0020211216122031    2C0C  00001000000000137000000202032H8    TYTYC   002700430014
BI00A32H8    #TY22011KMW    202112277172-5629-80             RUBBER STOPPER           PCN000040000000040000FN00000000020220101000040000NNMD0020211216122031    2H0H  00002000000000060000000111132H8    TYTYC   004300270014
BI00B32H8    #TY2202AIMW    202201077282-1150-30             CONNECTOR MALE ASS'Y     CCN000001800000001800FN00000000020220201000001800NNE   20211216145740    2N0N  00000060000000688800000800032H8    TYTYC   005400370024
BI00B32H8    #TY2202AIMW    202201077282-1150-50             CONNECTOR MALE ASS'Y     CCN000001200000001200FN00000000020220201000001200NNE   20211216145740    2N0N  00000060000000688800000800032H8    TYTYC   005400370024
BI00B32H8    TY2202B MW     202201067114-1230                TERMINAL                 CCN000013500000013500FN00000000020220201000013500NNE   20211216145807    4P0P  00001350000000799200001092832H8    TYTYC   006400630015
BI00B32H8    TY2202B MW     202201067114-1301                TERMINAL                 CCN000019500000019500FN00000000020220201000019500NNE   20211216145807    4P0P  00001950000000614300000907932H8    TYTYC   006400630015
BI00B32H8    TY2202B MW     202201067114-1470                TERMINAL                 CCN000165000000165000FN00000000020220201000165000NNE   20211216145807    4P0P  00001650000000544500000838732H8    TYTYC   006400630015
BI00B32H8    TY2202B MW     202201067114-1475                TERMINAL                 CCN000013500000013500FN00000000020220201000013500NNE   20211216145807    4P0P  00001350000000480600000774232H8    TYTYC   006400630015
BI00B32H8    TY2202B MW     202201067114-4032                TERMINAL                 CCN000007500000007500FN00000000020220201000007500NNE   20211216145807    4P0P  00000750000000735000001063632H8    TYTYC   006400630017
BI00B32H8    TY2202B MW     202201067114-4231-02             TERMINAL                 CCN000036000000036000FN00000000020220201000036000NNE   20211216145807    4P0P  00001800000000554400000848032H8    TYTYC   006400630015
BI00B32H8    TY2202B MW     202201067116-1180                TERMINAL                 CCN000019500000019500FN00000000020220201000019500NNE   20211216145807    1P0P  00001950000000618200000903432H8    TYTYC   006400630015
BI00B32H8    TY2202B MW     202201067116-1257-02             TERMINAL                 CCN000024000000024000FN00000000020220201000024000NNE   20211216145807    1P0P  00002400000000518400000847132H8    TYTYC   006400630017
BI00B32H8    TY2202B MW     202201067116-1301                TERMINAL                 CCN000015000000015000FN00000000020220201000015000NNE   20211216145807    4P0P  00001500000000487500000772732H8    TYTYC   006400630015
BI00B32H8    TY2202B MW     202201067116-1471                TERMINAL                 CCN000105000000105000FN00000000020220201000105000NNE   20211216145807    4P0P  00001500000000579000000867232H8    TYTYC   006400630015
BI00B32H8    TY2202B MW     202201067116-1473                TERMINAL                 CCN000526500000526500FN00000000020220201000526500NNE   20211216145807    4P0P  00001350000000523800000809032H8    TYTYC   006400630015
BI00B32H8    TY2202B MW     202201067116-1685                TERMINAL                 CCN000048000000048000FN00000000020220201000048000NNE   20211216145807    4P0P  00002400000000892800001067232H8    TYTYC   005100280028
BI00B32H8    TY2202B MW     202201067116-1686                TERMINAL                 CCN000021000000021000FN00000000020220201000021000NNE   20211216145807    4P0P  00002100000000861000001045632H8    TYTYC   005100280028
BI00B32H8    TY2202B MW     202201067116-2640                TERMINAL                 CCN000072000000072000FN00000000020220201000072000NNE   20211216145807    4P0P  00001800000001018800001196632H8    TYTYC   005100280028
BI00B32H8    TY2202B MW     202201067116-2641                TERMINAL                 CCN000018000000018000FN00000000020220201000018000NNE   20211216145807    4P0P  00001800000001161000001344632H8    TYTYC   005100280028
BI00B32H8    TY2202B MW     202201067116-2870                TERMINAL                 CCN000072000000072000FN00000000020220201000072000NNE   20211216145807    1P0P  00001200000000783600001020232H8    TYTYC   005100280028
BI00B32H8    TY2202B MW     202201067116-2871                TERMINAL                 CCN000096000000096000FN00000000020220201000096000NNE   20211216145807    1P0P  00001200000000842400001072632H8    TYTYC   005100280028
BI00B32H8    TY2202B MW     202201067116-4022                TERMINAL                 CCN000013500000013500FN00000000020220201000013500NNE   20211216145807    4P0P  00001350000000618300000903532H8    TYTYC   006400630015
BI00B32H8    TY2202B MW     202201067116-4025                TERMINAL                 CCN000112000000112000FN00000000020220201000112000NNE   20211216145807    4P0P  00001600000000644800000975132H8    TYTYC   006400630017
BI00B32H8    TY2202B MW     202201067116-4026                TERMINAL                 CCN000032000000032000FN00000000020220201000032000NNE   20211216145807    4P0P  00001600000000664000000994332H8    TYTYC   006400630017
BI00B32H8    TY2202B MW     202201067116-4031                TERMINAL                 CCN000022500000022500FN00000000020220201000022500NNE   20211216145807    4P0P  00000750000000619500000904732H8    TYTYC   006400630015
BI00B32H8    TY2202B MW     202201067116-4032                TERMINAL                 CCN000036000000036000FN00000000020220201000036000NNE   20211216145807    4P0P  00000600000000532800000818032H8    TYTYC   006400630015
BI00B32H8    TY2202B MW     202201067116-4037                TERMINAL                 CCN000006000000006000FN00000000020220201000006000NNE   20211216145807    4P0P  00000600000000600000000894232H8    TYTYC   006400630015
BI00B32H8    TY2202B MW     202201067116-4231-02             TERMINAL                 CCN000234000000234000FN00000000020220201000234000NNE   20211216145807    4P0P  00002600000000683800001012532H8    TYTYC   006400630017
BI00B32H8    TY2202B MW     202201067116-4416-02             TERMINAL                 CCN000032000000032000FN00000000020220201000032000NNE   20211216145807    4P0P  00003200000000518400000847132H8    TYTYC   006400630017
BI00B32H8    TY2202B MW     202201067116-6041                TERMINAL                 CCN000009000000009000FN00000000020220201000009000NNE   20211216145807    4P0P  00000450000000716000001009632H8    TYTYC   006400630015
BI00B32H8    TY2202B MW     202201067116-6042                TERMINAL                 CCN000006000000006000FN00000000020220201000006000NNE   20211216145807    4P0P  00000300000000523800000856132H8    TYTYC   006400630015
BI00B32H8    TY2202B MW     202201067126-8853-02             TERMINAL                 CCN000015000000015000FN00000000020220201000015000NNE   20211216145807    4P0P  00000750000000562500000847732H8    TYTYC   006400630015
BI00B32H8    TY2202B MW     202201067126-8854-02             TERMINAL                 CCN000015000000015000FN00000000020220201000015000NNE   20211216145807    4P0P  00000750000000604500000889732H8    TYTYC   006400630015
BI00B32H8    TY2202B MW     202201067126-8855-02             TERMINAL                 CCN000018000000018000FN00000000020220201000018000NNE   20211216145807    4P0P  00000600000000510600000795832H8    TYTYC   006400630015
BI00B32H8    TY2202B MW     202201067283-5830-30             CONNECTOR                CCN000006000000006000FN00000000020220201000006000NNE   20211216145807    1N0N  00000600000000954000001104032H8    TYTYC   005500360039
BI00B32H8    TY2202B MW     202201067283-5845                CONNECTOR HOUSING        CCN000006000000006000FN00000000020220201000006000NNE   20211216145807    1N0N  00000600000000444000000606332H8    TYTYC   005400370024
BI00B32H8    #TY2202B MW    202201067114-4022                TERMINAL                 CCN000015000000015000FN00000000020220201000015000NNE   20211216145802    2F0P  00001500000000708000001120632H8    TYTYC   006400630015
BI00B32H8    #TY2202B MW    202201067119-3130                HOUSING                  CCN000003000000003000FN00000000020220201000003000NNE   20211216145802    2F0F  00000300000001758000001868032H8    TYTYC   005500360039
BI00B32H8    #TY2202B MW    202201067154-3456                REAR HOLDER              CCN000007000000007000FN00000000020220201000007000NNE   20211216145802    2F0F  00000700000000581700000752032H8    TYTYC   005500360039
BI00B32H8    #TY2202B MW    202201067158-3003-90             RUBBER STOPPER           CCN000040000000040000FN00000000020220201000040000NNE   20211216145802    2C0C  00002000000000250000000306032H8    TYTYC   002700430014
BI00B32H8    #TY2202B MW    202201067158-3008-80             RUBBER STOPPER           CCN000020000000020000FN00000000020220201000020000NNE   20211216145802    2C0C  00002000000000288000000343032H8    TYTYC   004300270014
BI00B32H8    #TY2202B MW    202201067183-0522                HOUSING                  CCN000002400000002400FN00000000020220201000002400NNE   20211216145802    2F0F  00000240000000951000001230032H8    TYTYC   005500360039
BI00B32H8    #TY2202B MW    202201067183-2413                CONNECTOR HOUSING        CCN000004800000004800FN00000000020220201000004800NNE   20211216145802    2F0F  00000480000000478100000760032H8    TYTYC   005500360039
BI00B32H8    #TY2202B MW    202201067183-2414                CONNECTOR HOUSING        CCN000004800000004800FN00000000020220201000004800NNE   20211216145802    2F0F  00000480000000779200001061032H8    TYTYC   005500360039
BI00B32H8    #TY2202B MW    202201067183-2416                HOUSING                  CCN000004800000004800FN00000000020220201000004800NNE   20211216145802    2F0F  00000240000001495200001771032H8    TYTYC   005500360039
BI00B32H8    #TY2202B MW    202201067183-2511                HOUSING                  CCN000003200000003200FN00000000020220201000003200NNE   20211216145802    2F0F  00000160000000972200001242132H8    TYTYC   005500360039
BI00B32H8    #TY2202B MW    202201067283-5833                CONNECTOR HOUSING        CCN000003640000003640FN00000000020220201000003640NNE   20211216145802    2N0N  00000364000001378000001686732H8    TYTYC   005500360039
BI00A32M4    #TL1123        202112237172-5629-80             RUBBER STOPPER           PCN000280000000280000FN00000000020211201000280000NNMM0020211216181521    2H0H  00002000000000060000000111132M4    SISAI   004300270014
BI00A32M4    #QA-21-C122    202112217282-5845-30             HOUSING MALE ASS'Y       PNN000008000000008000FN00000000020211201000008000NNEM0020211216181623    2N0N  00000400000001068000001178032M4    SISAI   005400370024
BI00B32M8    #PM22013 MW    202112227114-4022                TERMINAL                 CCN000045000000045000FN00000000020220101000045000NNMD0020211216141229    2F0P  00001500000000708000001120632M8    PMPEMI  006400630015
BI00B32M8    #PM22013 MW    202112227116-4021                TERMINAL                 CCN000054000000054000FN00000000020220101000054000NNMD0020211216141229    2F0P  00001350000000534600000868832M8    PMPEMI  006400630015
BI00B32N1    #NST2113-1ECU  202112237157-7812                SEAL RUBBER              CCN000050000000050000FN00000000020211201000050000NNE00020211216122031    2C0C  00001000000000137000000202032N1    TAYIPL  002700430014
BI00B32N1    NST2115ECU     202203107289-3342-30             HOUSING FEMALE ASS'Y     CCN000026400000026400FN00000000020220201000026400NNED0420211216142632    1N0N  00000240000000686400000901432N1    TAYIPL  005500360039
BI00B32N1    NST2114A 1     202203037283-4855                CONNECTOR HOUSING        CCN000008000000009600FN00000000020220201000009600NNMD0420211216142456    4N0N  00000240000001188400001400032N1    TAYIPL  005500360039
BI00B32N1    NST2114A 2     202203107283-4855                CONNECTOR HOUSING        CCN000004000000004800FN00000000020220201000004800NNMD0420211216142516    4N0N  00000240000001188400001400032N1    TAYIPL  005500360039
BI00B32P8    #TAPI-2021     202201057282-5832                CONNECTOR                CCN000004000000002000FN00000000020220201000002000NNMQ0020211216141454    2N0N  00000200000001500000001650732P8    YIYTM   005600390040
BI00A32P8    #TAPI-2021     202112207282-5832                CONNECTOR                CCN000002000000002000FN00000000020220201000002000NNMM0020211216145121    2N0N  00000200000001500000001650732P8    YIYTM   005600390040
BI00B32Q8    EU22021 MW     202112227158-3165-90             WIRE SEAL                CCN000080000000080000FN00000000020220201000080000NNMD0020211216163717    1C0C  00004000000000124000000172432Q8    EMEMI   004300270014
BI00A32Q8    #EU2201BDMW    202112177183-8251-40             HOUSING                  CCN000004800000004800FN00000000020220101000004800NNEM0020211216175921    2F0F  00000240000000357600000640032Q8    EMEMI   005500360039
BI00B32Q8    EU2202A MW     202201057116-1685-02             TERMINAL                 CCN000048000000024000FN00000000020220201000024000NNEQ0020211216163529    4P0P  00002400000000897600001065232Q8    EMEMI   005100280028
BI00A32Q8    EU2202A MW     202112207116-1685-02             TERMINAL                 CCN000024000000024000FN00000000020220201000024000NNEM0020211216163536    4P0P  00002400000000897600001065232Q8    EMEMI   005100280028
BI00B32R7    R-TAP210620    202201277298-1186-40             SQUIB SUB ASS'Y          CCN000040000000040000FN00000000020220201000040000NNE   20211216132706    4N0N  00001000000000650000000774532R7    IVYCIC  005400370024
BI00A32R8    TT22031TMW     202112207116-4028-08             TERMINAL FEMALE          CCN000016000000016000FN00000000020220301000016000NNMM0020211216160724    4P0P  00001600000000652800000981532R8    TTTJY   006400630017
BI00A32R8    TT22032TMW     202112207116-4028-08             TERMINAL FEMALE          CCN000016000000016000FN00000000020220301000016000NNMM0020211216160751    4P0P  00001600000000652800000981532R8    TTTJY   006400630017
BI00A32R8    TT22032TMW     202112207116-5046-02             TERMINAL                 CCN000012000000012000FN00000000020220301000012000NNMM0020211216160649    4P0P  00001200000000544800000873532R8    TTTJY   006400630017
BI00A32R8    TT22031TMW     202112207289-6518-30             HOUSING FEMALE ASS'Y     CCN000001200000001200FN00000000020220301000001200NNMM0020211216165706    1N0N  00000120000000829200001049232R8    TTTJY   005500360039
BI00A32R8    #TT22031TMW    202112217158-3007-10             RUBBER STOPPER           CCN000020000000020000FN00000000020220301000020000NNMM0020211216165151    2H0H  00002000000000308000000362732R8    TTTJY   002700430014
BI00A32R8    #TT22032TMW    202112217172-5629-80             RUBBER STOPPER           CCN000020000000020000FN00000000020220301000020000NNMM0020211216165214    2H0H  00002000000000060000000111132R8    TTTJY   004300270014
BI00A32U5    DI2005         202112177116-5045-02             TERMINAL                 CCN000128000000128000FN00000000020220301000128000NNMM0020211216135227U5  4P0P  00001600000000678400001007132U5    AMAMSD  006400630017
BI00A32U5    DI2005         202112177116-5046-02             TERMINAL                 CCN000072000000072000FN00000000020220301000072000NNMM0020211216135252U5  4P0P  00001200000000544800000873532U5    AMAMSD  006400630017
BI00B32U5    DI2006         202201077116-5045-02             TERMINAL                 CCN000144000000064000FN00000000020220301000064000NNMQ0020211216135332U5  4P0P  00001600000000678400001007132U5    AMAMSD  006400630017
BI00A32U5    DI2006         202112177116-5046-02             TERMINAL                 CCN000084000000084000FN00000000020220301000084000NNMM0020211216135452U5  4P0P  00001200000000544800000873532U5    AMAMSD  006400630017
BI00A32U5    DI2006         202112177116-5045-02             TERMINAL                 CCN000080000000080000FN00000000020220301000080000NNMM0020211216135446U5  4P0P  00001600000000678400001007132U5    AMAMSD  006400630017
BI00B32U5    #DI2004B       202201287172-5630-40             RUBBER STOPPER           CCN000160000000160000FN00000000020220301000160000NNE   20211216140233U5  2H0H  00002000000000044000000095132U5    AMAMSD  004300270014
BI00B32W4    4500170320     202112177289-4696-30             HOUSING FEMALE ASS'Y     CCN000004000000004000FN00000000020210501000004000NNED0220211216154505W4284N0N  00000200000000913400001055432W428  HJYHK   005400370024
BI00A32W4    4500185745     202202177116-4102-02             TERMINAL                 CCN000012000000012000FN00000000020220201000012000NNE   20211216122031W4L74P0P  00001200000000553200000841432W4L7  HJYHK-J 006400630015
BI00B32W4    4500185748     202201137158-3169-40             SEALING PLUG             CCN000120000000120000FN00000000020220101000120000NNE   20211216122031W4341C0C  00004000000000156000000204132W434  HJYHK   004300260014
BI00B32W4    4500185748     202201137158-3166-60             WIRE SEAL                CCN000080000000080000FN00000000020220101000080000NNE   20211216122031W4341C0C  00004000000000104000000152432W434  HJYHK   002700430014
BI00B32W4    @4500185748    202201137286-1238-30             CONNECTOR                CCN000015600000015600FN00000000020220101000015600NNE   20211216122031W4343N0N  00000120000001224000001466032W434  HJYHK   005500360039
BI00B32W4    4500185753     202202107116-1685-02             TERMINAL                 CCN000144000000144000FN00000000020220201000144000NNE   20211216122031W4B74P0P  00002400000000897600001065232W4B7  HJYHK-J 005100280028
BI00B32W4    4500185763     202201067116-1685                TERMINAL                 CCN000024000000024000FN00000000020211201000024000NNED0720211216122031W4244P0P  00002400000000892800001067232W424  HJYHK   005100280028
BI00B32W4    4500185774     202202107116-1230                TERMINAL                 CCN000013500000013500FN00000000020220201000013500NNE   20211216122031W48 4P0P  00001350000000664200000952432W48   HJYHK   006400630015
BI00B32W4    4500185774     202202107116-4025                TERMINAL                 CCN000016000000016000FN00000000020220201000016000NNE   20211216122031W48 4P0P  00001600000000644800000975132W48   HJYHK   006400630017
BI00B32W4    4500185774     202202107116-4121-02             TERMINAL                 CCN000018000000018000FN00000000020220201000018000NNE   20211216122031W48 4P0P  00000450000000618800000912432W48   HJYHK   006400630015
BI00B32W4    4500185774     202202107158-3070-80             RUBBER STOPPER           CCN000040000000040000FN00000000020220201000040000NNE   20211216122031W48 1C0C  00004000000000276000000333332W48   HJYHK   002700430014
BI00B32W4    4500185774     202202107158-3165-90             WIRE SEAL                CCN000040000000040000FN00000000020220201000040000NNE   20211216122031W48 1C0C  00004000000000124000000172432W48   HJYHK   004300270014
BI00B32W4    4500185774     202202107158-3166-60             WIRE SEAL                CCN000040000000040000FN00000000020220201000040000NNE   20211216122031W48 1C0C  00004000000000104000000152432W48   HJYHK   002700430014
BI00B32W4    #4500185774    202202107123-6423-30             CONNECTOR                CCN000002000000002000FN00000000020220201000002000NNE   20211216122031W48 2F0F  00000200000001002000001167632W48   HJYHK   005600390023
BI00B32W4    @4500185774    202202107123-4312-80             HOUSING                  CCN000003200000003200FN00000000020220201000003200NNE   20211216122031W48 3F0F  00000080000000644200000794032W48   HJYHK   005500360039
BI00B32W4    4500185775     202202037116-4025                TERMINAL                 CCN000016000000016000FN00000000020220201000016000NNE   20211216122031W48 4P0P  00001600000000644800000975132W48   HJYHK   006400630017
BI00B32W4    4500185775     202202037116-4121-02             TERMINAL                 CCN000009000000009000FN00000000020220201000009000NNE   20211216122031W48 4P0P  00000450000000618800000912432W48   HJYHK   006400630015
BI00B32W4    4500185775     202202037158-3006-90             RUBBER STOPPER           CCN000020000000020000FN00000000020220201000020000NNE   20211216122031W48 1C0C  00002000000000330600000386032W48   HJYHK   002700430014
BI00B32W4    4500185775     202202037116-5044-02             TERMINAL                 CCN000016000000016000FN00000000020220201000016000NNE   20211216122031W48 4P0P  00001600000000641600000986332W48   HJYHK   006400630017
BI00B32W4    4500185775     202202037222-6244-40             CONNECTOR                CCN000001600000001600FN00000000020220201000001600NNE   20211216122031W48 4N0N  00000080000001239200001422032W48   HJYHK   005600390040
BI00B32W4    4500185775     202202037289-7615-30             HOUSING FEMALE ASS'Y     CCN000001920000001920FN00000000020220201000001920NNE   20211216122031W48 4N0N  00000032000000738000000948032W48   HJYHK   005400370024
BI00B32W4    #4500185775    202202037157-3952-80             RUBBER STOPPER           CCN000010000000010000FN00000000020220201000010000NNE   20211216122031W48 2C0C  00001000000000117000000175032W48   HJYHK   002700430014
BI00B32W4    @4500185775    202202037123-4312-80             HOUSING                  CCN000002400000002400FN00000000020220201000002400NNE   20211216122031W48 3F0F  00000080000000644200000794032W48   HJYHK   005500360039
BI00B32W4    4500185776     202201277222-6244-40             CONNECTOR                CCN000000800000000800FN00000000020220101000000800NNE   20211216122031W48 4N0N  00000080000001239200001422032W48   HJYHK   005600390040
BI00B32W4    4500185776     202201277289-7615-30             HOUSING FEMALE ASS'Y     CCN000001600000001600FN00000000020220101000001600NNE   20211216122031W48 4N0N  00000032000000738000000948032W48   HJYHK   005400370024
BI00B32W4    #4500185776    202201277158-3121-80             WIRE SEAL                CCN000040000000040000FN00000000020220101000040000NNE   20211216122031W48 2C0C  00002000000000118000000187332W48   HJYHK   002700430014
BI00B32W4    #4500185777    202201137158-3003-90             RUBBER STOPPER           CCN000040000000040000FN00000000020220101000040000NNE   20211216122031W48 2C0C  00002000000000250000000306032W48   HJYHK   002700430014
BI00B32W4    #4500185778    202201067158-3003-90             RUBBER STOPPER           CCN000020000000020000FN00000000020220101000020000NNE   20211216122031W48 2C0C  00002000000000250000000306032W48   HJYHK   002700430014
BI00A32W4    4500185813     202202177283-7028-30             CONNECTOR                CCN000003000000003000FN00000000020220201000003000NNE   20211216122031W4M54N0N  00000300000001452000001681332W4M5  HJYHK-J 005600390040
BI00A32W4    4500185813     202202177282-4855                HOUSING MALE ASS'Y       CCN000001200000001200FN00000000020220201000001200NNE   20211216122031W4M54N0N  00000120000001063200001283232W4M5  HJYHK-J 005500360039
BI00A32W4    4500185813     202202177158-3166-60             WIRE SEAL                CCN000080000000080000FN00000000020220201000080000NNE   20211216122031W4M51C0C  00004000000000104000000152432W4M5  HJYHK-J 002700430014
BI00A32W4    4500185813     202202177158-3169-40             SEALING PLUG             CCN000040000000040000FN00000000020220201000040000NNE   20211216122031W4M51C0C  00004000000000156000000204132W4M5  HJYHK-J 004300260014
BI00A32W4    4500185814     202202247283-1030                CONNECTOR                CCN000048000000048000FN00000000020220201000048000NNE   20211216122031W4M54N0N  00000600000000988000001172032W4M5  HJYHK-J 005500360039
BI00A32W4    4500185954     202202147158-3167-80             WIRE SEAL                CCN000020000000020000FN00000000020220201000020000NNE   20211216144242W4761C0C  00002000000000048000000109032W476  HJYHK-J 002700430014
BI00A32W4    4500185961     202202147116-4102-02             TERMINAL                 CCN000036000000036000FN00000000020220201000036000NNE   20211216144402W4O24P0P  00001200000000553200000841432W4O2  HJYHK-J 006400630015
BI00A32W4    4500185961     202202147116-4025                TERMINAL                 CCN000016000000016000FN00000000020220201000016000NNE   20211216144402W4O24P0P  00001600000000644800000975132W4O2  HJYHK-J 006400630017
BI00A32W4    4500185961     202202147283-7028-30             CONNECTOR                CCN000006000000006000FN00000000020220201000006000NNE   20211216144402W4O24N0N  00000300000001452000001681332W4O2  HJYHK-J 005600390040
BI00A32W4    4500185961     202202147158-3167-80             WIRE SEAL                CCN000020000000020000FN00000000020220201000020000NNE   20211216144402W4O21C0C  00002000000000048000000109032W4O2  HJYHK-J 002700430014
BI00A32W4    4500185961     202202147158-3169-40             SEALING PLUG             CCN000040000000040000FN00000000020220201000040000NNE   20211216144402W4O21C0C  00004000000000156000000204132W4O2  HJYHK-J 004300260014
BI00A32W4    4500185961     202202147116-4101-02             TERMINAL                 CCN000012000000012000FN00000000020220201000012000NNE   20211216144402W4O24P0P  00001200000000582000000876232W4O2  HJYHK-J 006400630015
BI00A32W4    @4500185961    202202147183-8049                CONNECTOR HOUSING        CCN000004000000004000FN00000000020220201000004000NNE   20211216144356W4O23F0F  00000400000000583600000740032W4O2  HJYHK-J 005400370024
BI00B32W4    4500185963     202202177114-4100-02             TERMINAL                 CCN000018000000018000FN00000000020220201000018000NNE   20211216144433W46 4P0P  00001800000000748800001077432W46   HJYHK   006400630017
BI00B32W4    4500185964     202201207116-4026                TERMINAL                 CCN000016000000016000FN00000000020220101000016000NNE   20211216144509W46 4P0P  00001600000000664000000994332W46   HJYHK   006400630017
BI00B32W4    4500185964     202201207114-4112-02             TERMINAL                 CCN000018000000018000FN00000000020220101000018000NNE   20211216144509W46 4P0P  00000900000000598500000927132W46   HJYHK   006400630017
BI00B32W4    4500185964     202201207116-2951-02             TERMINAL                 CCN000005400000005400FN00000000020220101000005400NNE   20211216144509W46 4P0P  00000540000000817600001111832W46   HJYHK   006400630015
BI00B32W4    4500185964     202201207116-4101-02             TERMINAL                 CCN000024000000024000FN00000000020220101000024000NNE   20211216144509W46 4P0P  00001200000000582000000876232W46   HJYHK   006400630015
BI00B32W4    4500185964     202201207116-4102-02             TERMINAL                 CCN000012000000012000FN00000000020220101000012000NNE   20211216144509W46 4P0P  00001200000000553200000841432W46   HJYHK   006400630015
BI00B32W4    4500185964     202201207116-4120-02             TERMINAL                 CCN000006000000006000FN00000000020220101000006000NNE   20211216144509W46 4P0P  00000600000000780000001073632W46   HJYHK   006400630015
BI00B32W4    4500185964     202201207116-4121-02             TERMINAL                 CCN000058500000058500FN00000000020220101000058500NNE   20211216144509W46 4P0P  00000450000000618800000912432W46   HJYHK   006400630015
BI00B32W4    4500185964     202201207116-4122-02             TERMINAL                 CCN000009000000009000FN00000000020220101000009000NNE   20211216144509W46 4P0P  00000450000000656600000950232W46   HJYHK   006400630015
BI00B32W4    #4500185964    202201207158-3007-10             RUBBER STOPPER           CCN000020000000020000FN00000000020220101000020000NNE   20211216144504W46 2H0H  00002000000000308000000362732W46   HJYHK   002700430014
BI00A32W4    4500185970     202202177158-3169-40             SEALING PLUG             CCN000040000000040000FN00000000020220201000040000NNE   20211216144533W4A21C0C  00004000000000156000000204132W4A2  HJYHK-J 004300260014
BI00A32W4    4500185970     202202177116-4102-02             TERMINAL                 CCN000012000000012000FN00000000020220201000012000NNE   20211216144533W4A24P0P  00001200000000553200000841432W4A2  HJYHK-J 006400630015
BI00A32W4    4500185970     202202177116-4031                TERMINAL                 CCN000015000000015000FN00000000020220201000015000NNE   20211216144533W4A24P0P  00000750000000619500000904732W4A2  HJYHK-J 006400630015
BI00A32W4    4500185970     202202177116-4112-02             TERMINAL                 CCN000006000000006000FN00000000020220201000006000NNE   20211216144533W4A24P0P  00000600000000450000000738232W4A2  HJYHK-J 006400630015
BI00A32W4    4500185973     202202107116-4026                TERMINAL                 CCN000048000000048000FN00000000020220201000048000NNE   20211216144606W4A24P0P  00001600000000664000000994332W4A2  HJYHK-J 006400630017
BI00A32W4    #4500185973    202202107283-8226-30             CONNECTOR                CCN000010000000010000FN00000000020220201000010000NNE   20211216144600W4A22N0N  00000200000000820000001008032W4A2  HJYHK-J 005400370024
BI00A32W4    #4500185973    202202107157-3646                RUBBER STOPPER           CCN000040000000040000FN00000000020220201000040000NNE   20211216144600W4A22H0H  00002000000000184000000255232W4A2  HJYHK-J 002700430014
BI00A32W4    4500185974     202202037158-3167-80             WIRE SEAL                CCN000080000000080000FN00000000020220201000080000NNE   20211216144644W4A21C0C  00002000000000048000000109032W4A2  HJYHK-J 002700430014
BI00A32W4    4500185974     202202037116-4111-02             TERMINAL                 CCN000007500000007500FN00000000020220201000007500NNE   20211216144644W4A24P0P  00000750000000529500000817732W4A2  HJYHK-J 006400630015
BI00A32W4    #4500185974    202202037158-3121-80             WIRE SEAL                CCN000020000000020000FN00000000020220201000020000NNE   20211216144637W4A22C0C  00002000000000118000000187332W4A2  HJYHK-J 002700430014
BI00A32W4    #4500185974    202202037147-3642-30             CLIP                     CCN000018000000018000FN00000000020220201000018000NNE   20211216144637W4A22F0F  00000300000000542000000721332W4A2  HJYHK-J 005600390040
BI00A32W4    #4500185974    202202037283-4190-30             CONNECTOR                CCN000003120000003120FN00000000020220201000003120NNE   20211216144637W4A22N0N  00000024000000846000001115532W4A2  HJYHK-J 005600390040
BI00B32W4    4500186004     202202037172-5540-80             SEALED WIRE SEAL         CCN000020000000020000FN00000000020220201000020000NNE   20211216144805W4D41C0C  00002000000000186000000234432W4D4  HJYHK-J 004300270014
BI00B32W4    4500186004     202202037116-1685-02             TERMINAL                 CCN000024000000024000FN00000000020220201000024000NNE   20211216144805W4D44P0P  00002400000000897600001065232W4D4  HJYHK-J 005100280028
BI00B32W4    4500186004     202202037470-5237                J/B ASS'Y                CCN000000600000000600FN00000000020220201000000600NNE   20211216144805W4D41J0J  00000002400001320000001570032W4D4  HJYHK-J 005500360039
BI00B32W4    4500186004     202202037289-3342                HOUSING FEMALE ASS'Y     CCN000004800000004800FN00000000020220201000004800NNE   20211216144805W4D41N0N  00000240000000686400000901432W4D4  HJYHK-J 005500360039
BI00B32W4    4500186004     202202037286-4097                CONNECTOR MALE ASS'Y     CCN000001600000001600FN00000000020220201000001600NNE   20211216144805W4D41N0N  00000160000000768000000978032W4D4  HJYHK-J 005500360039
BI00B32W4    4500186004     202202037287-9323                UNSEALED HOUSING SUB     CCN000002400000002400FN00000000020220201000002400NNE   20211216144805W4D41N0N  00000240000000537600000690032W4D4  HJYHK-J 005600390023
BI00B32W4    4500186004     202202037289-3342-90             HOUSING FEMALE ASS'Y     CCN000002400000002400FN00000000020220201000002400NNE   20211216144805W4D41N0N  00000240000000686400000901432W4D4  HJYHK-J 005500360039
BI00B32W4    4500186004     202202037327-6424-4W             BATTERY FUSE             CCN000000672000000672FN00000000020220201000000672NNE   20211216144805W4D44N0N  00000009600001109500001259632W4D4  HJYHK-J 005400370024
BI00B32W4    4500186004     202202037289-3342-40             HOUSING FEMALE ASS'Y     CCN000002400000002400FN00000000020220201000002400NNE   20211216144805W4D41N0N  00000240000000686400000901432W4D4  HJYHK-J 005500360039
BI00B32W4    4500186004     202202037388-2978-30             HOUSING MALE ASS'Y       CCN000001440000001440FN00000000020220201000001440NNE   20211216144805W4D41N0N  00000048000000742000001122032W4D4  HJYHK-J 005500360039
BI00B32W4    4500186004     202202037289-3342-30             HOUSING FEMALE ASS'Y     CCN000012000000012000FN00000000020220201000012000NNE   20211216144805W4D41N0N  00000240000000686400000901432W4D4  HJYHK-J 005500360039
BI00B32W4    #4500186004    202202037189-2978-30             HOUSING FEMALE           CCN000001500000001500FN00000000020220201000001500NNE   20211216144801W4D42F0F  00000150000000966900001096932W4D4  HJYHK-J 005400370024
BI00B32W4    4500186005     202201207254-5840-30             ENG R/B SUB ASS'Y        CCN000000024000000024FN00000000020220101000000024NNE   20211216144829W4D44J0J  00000002400000732000000952032W4D4  HJYHK-J 005600390040
BI00A32W4    4500186010     202206237283-5574-10             CONNECTOR                CCN000000800000000800FN00000000020220601000000800NNE   20211216144856W4804N0N  00000080000001235000001435232W480  HJYHK-J 005500360039
BI00A32W4    4500186021     202202107158-3166-60             WIRE SEAL                CCN000080000000080000FN00000000020220201000080000NNE   20211216144921W4801C0C  00004000000000104000000152432W480  HJYHK-J 002700430014
BI00A32W4    4500186024     202202037116-4103-02             TERMINAL                 CCN000012000000012000FN00000000020220201000012000NNE   20211216145012W4804P0P  00001200000000571200000859432W480  HJYHK-J 006400630015
BI00A32W4    4500186024     202202037116-4122-02             TERMINAL                 CCN000013500000013500FN00000000020220201000013500NNE   20211216145012W4804P0P  00000450000000656600000950232W480  HJYHK-J 006400630015
BI00A32W4    4500186039     202202177116-4101-02             TERMINAL                 CCN000012000000012000FN00000000020220201000012000NNE   20211216145035W4424P0P  00001200000000582000000876232W442  HJYHK   006400630015
BI00A32W4    4500186047     202201247282-4855                HOUSING MALE ASS'Y       CCN000021600000021600FN00000000020220101000021600NNE   20211216145115W4L64N0N  00000120000001063200001283232W4L6  HJYHK-K 005500360039
BI00A32W4    4500186047     202201247114-6041                TERMINAL                 CCN000043200000043200FN00000000020220101000043200NNE   20211216145115W4L64P0P  00000360000000580700000824232W4L6  HJYHK-K 006400630015
BI00A32W4    4500186047     202201247283-1156                CONNECTOR                CCN000016800000016800FN00000000020220101000016800NNE   20211216145115W4L64N0N  00000080000000877600001078032W4L6  HJYHK-K 005600390040
BI00A32W4    @4500186047    202201247287-6634                HOUSING FEMALE ASS'Y     CCN000016800000016800FN00000000020220101000016800NNE   20211216145052W4L63N0N  00000240000001088400001337032W4L6  HJYHK-K 005500360039
BI00A32W4    4500186050     202202147116-4111-02             TERMINAL                 CCN000015000000015000FN00000000020220201000015000NNE   20211216145144W4144P0P  00000750000000529500000817732W414  HJYHK   006400630015
BI00A32W4    4500186050     202202147114-4100-02             TERMINAL                 CCN000018000000018000FN00000000020220201000018000NNE   20211216145144W4144P0P  00001800000000748800001077432W414  HJYHK   006400630017
BI00A32W4    4500186050     202202147114-4111-02             TERMINAL                 CCN000012000000012000FN00000000020220201000012000NNE   20211216145144W4144P0P  00001200000000758400001087032W414  HJYHK   006400630017
BI00A32W4    4500186050     202202147116-4110-02             TERMINAL                 CCN000009000000009000FN00000000020220201000009000NNE   20211216145144W4144P0P  00000900000000594000000882232W414  HJYHK   006400630015
BI00A32W4    #4500186050    202202147282-6458-40             CONNECTOR                CCN000001000000001000FN00000000020220201000001000NNE   20211216145138W4142N0N  00000100000001206000001350532W414  HJYHK   005500360039
BI00A32W4    4500186057     202201247116-4112-02             TERMINAL                 CCN000006000000006000FN00000000020220101000006000NNE   20211216145205W4334P0P  00000600000000450000000738232W433  HJYHK   006400630015
BI00B32W9    4500185746     202201117287-7975-4W             SQUIB SUB ASS'Y          CCN000010000000010000FN00000000020220101000010000NNE   20211216122031W9  4N0N  00001000000000837000001017032W9    HKYHK   005400370024
BI00B32W9    4500185747     202201047287-7975-4W             SQUIB SUB ASS'Y          CCN000020000000020000FN00000000020211201000020000NNED0720211216122031W9  4N0N  00001000000000837000001017032W9    HKYHK   005400370024
BI00B32W9    4500185756     202201187298-4094-10             HOUSING FEMALE ASS'Y     CCN000003380000003380FN00000000020220101000003380NNE   20211216122031W9  4N0N  00000338000001097400001358732W9    HKYHK   005400370024
BI00B32W9    4500185758     202202157298-4094-10             HOUSING FEMALE ASS'Y     CCN000003380000003380FN00000000020220201000003380NNE   20211216122031W9  4N0N  00000338000001097400001358732W9    HKYHK   005400370024
BI00B32W9    4500185760     202202017298-4094-10             HOUSING FEMALE ASS'Y     CCN000010140000010140FN00000000020220201000010140NNE   20211216122031W9  4N0N  00000338000001097400001358732W9    HKYHK   005400370024
BI00B32W9    4500185826     202202017158-3165-90             WIRE SEAL                CCN000080000000080000FN00000000020220201000080000NNE   20211216122031W9  1C0C  00004000000000124000000172432W9    HKYHK   004300270014
BI00B32W9    4500185828     202202157158-3165-90             WIRE SEAL                CCN000080000000080000FN00000000020220201000080000NNE   20211216122031W9  1C0C  00004000000000124000000172432W9    HKYHK   004300270014
BI00B32W9    #4500185838    202201117283-8398-40             CONNECTOR                CCN000010780000010780FN00000000020210101000010780NNED0720211216181006W9  2N0N  00000154000001007000001171332W9    HKYHK   005600390023
BI00B32W9    4500185955     202202157116-4104-02             TERMINAL                 CCN000012000000012000FN00000000020220201000012000NNE   20211216144320W9  4P0P  00001200000000580800000972432W9    HKYHK   006400630015
BI00B32W9    #4500185955    202202157147-8931-30             CLIP                     CCN000004500000004500FN00000000020220201000004500NNE   20211216144317W9  2F0F  00000450000000387000000531732W9    HKYHK   005600390023
BI00B32X5    TIB2004B       202201287196-0510-02             TERMINAL                 CCN000024000000024000FN00000000020220301000024000NNE   20211216140035X5  4P0P  00002400000000871200001034632X5    EPYNA-E 002800510028
BI00B32X5    TIB2004B       202201287283-6568-40             CONNECTOR                CCN000002000000002000FN00000000020220301000002000NNE   20211216140035X5  4N0N  00000200000001090000001263032X5    EPYNA-E 005500360039
BI00B32X5    #TIB2004B      202201287154-5597-30             CASSETTE R/B             CCN000001600000001600FN00000000020220301000001600NNE   20211216135959X5  2F0F  00000080000000736000000952032X5    EPYNA-E 005500360039
BI00B32X5    #TIB2004B      202201287158-3008-80             RUBBER STOPPER           CCN000040000000040000FN00000000020220301000040000NNE   20211216135959X5  2C0C  00002000000000288000000343032X5    EPYNA-E 004300270014
BI00B32X5    #TIB2004B      202201287172-5628-80             DUMMY PLUG               CCN000020000000020000FN00000000020220301000020000NNE   20211216135959X5  2H0H  00002000000000110600000162032X5    EPYNA-E 004300270014
BI00B32X5    #TIB2004B      202201287172-5631-60             RUBBER STOPPER           CCN000040000000040000FN00000000020220301000040000NNE   20211216135959X5  2H0H  00002000000000042000000093132X5    EPYNA-E 004300270014
BI00B32Y4    #STH32064      202202177282-8395-40             CONNECTOR                CCN000006000000006000FN00000000020211201000006000NNE   20211216122031    2N0N  00000100000001009000001188032Y4    BIYAB-I 005500360039
BI00B32Y4    #STH32064      202202177283-8398-40             CONNECTOR                CCN000009240000009240FN00000000020211201000009240NNE   20211216122031    2N0N  00000154000001007000001171332Y4    BIYAB-I 005600390023
BI00B32Y5    TTA32055       202203157289-6547                HOUSING FEMALE ASS'Y     CCN000009600000009600FN00000000020220501000009600NNED0220211216122031    1N0N  00000240000001152000001362032Y5    BZYBL   005500360039
