BI00B1200    7504T52207     202203037116-4120-02             TERMINAL                 CCN000060000000060000FN00000000020220301000060000NNM   20220214121549    4P0P  0000060000000078000000107361200    YCYC    006400630015
BI00B1200    7504T52208     202203107116-4120-02             TERMINAL                 CCN000060000000060000FN00000000020220301000060000NNM   20220214121549    4P0P  0000060000000078000000107361200    YCYC    006400630015
BI00B1200    7504T52209     202203177116-4120-02             TERMINAL                 CCN000060000000060000FN00000000020220301000060000NNM   20220214121549    4P0P  0000060000000078000000107361200    YCYC    006400630015
BI00B1200    7504T52210     202203247116-4120-02             TERMINAL                 CCN000060000000060000FN00000000020220301000060000NNM   20220214121549    4P0P  0000060000000078000000107361200    YCYC    006400630015
BI00B1200    7504T52211     202203317116-4120-02             TERMINAL                 CCN000060000000060000FN00000000020220301000060000NNM   20220214121549    4P0P  0000060000000078000000107361200    YCYC    006400630015
BI00B1200    7504T52207     202203037116-4122-02             TERMINAL                 CCN000121500000121500FN00000000020220301000121500NNM   20220214121549    4P0P  0000045000000065660000095021200    YCYC    006400630015
BI00B1200    7504T52208     202203107116-4122-02             TERMINAL                 CCN000121500000121500FN00000000020220301000121500NNM   20220214121549    4P0P  0000045000000065660000095021200    YCYC    006400630015
BI00B1200    7504T52209     202203177116-4122-02             TERMINAL                 CCN000121500000121500FN00000000020220301000121500NNM   20220214121549    4P0P  0000045000000065660000095021200    YCYC    006400630015
BI00B1200    7504T52210     202203247116-4122-02             TERMINAL                 CCN000121500000121500FN00000000020220301000121500NNM   20220214121549    4P0P  0000045000000065660000095021200    YCYC    006400630015
BI00B1200    7504T52211     202203317116-4122-02             TERMINAL                 CCN000121500000121500FN00000000020220301000121500NNM   20220214121549    4P0P  0000045000000065660000095021200    YCYC    006400630015
BI00B32AF    JTB2031        202202187289-3342-30             HOUSING FEMALE ASS'Y     CCN000057600000057600FN00000000020220301000057600NNM00020220214155703    1N0N  00000240000000686400000901432AF    HBYHVTB 005500360039
BI00B32AF    JTB203L        202203047116-4112-02             TERMINAL                 CCN000012000000012000FN00000000020220301000012000NNE   20220214163134    4P0P  00000600000000450000000738232AF    HBYHVTB 006400630015
BI00B32AF    JTB203L        202203047116-5045-02             TERMINAL                 CCN000032000000032000FN00000000020220301000032000NNE   20220214163134    4P0P  00001600000000678400001007132AF    HBYHVTB 006400630017
BI00B32AF    JTB203L        202203047158-3165-90             WIRE SEAL                CCN000080000000080000FN00000000020220301000080000NNE   20220214163134    1C0C  00004000000000124000000172432AF    HBYHVTB 004300270014
BI00B32AF    JTB203L        202203047195-1463-02             TERMINAL MALE            CCN000085500000085500FN00000000020220301000085500NNE   20220214163134    4P0P  00002850000000456000000741232AF    HBYHVTB 006400630015
BI00B32AF    JTB203L        202203047196-1466-02             TERMINAL MALE            CCN000057000000057000FN00000000020220301000057000NNE   20220214163134    4P0P  00002850000000427500000712732AF    HBYHVTB 006400630015
BI00B32AF    JTB203L        202203047283-4577-30             CONNECTOR HOUSING        CCN000004800000004800FN00000000020220301000004800NNE   20220214163134    4N0N  00000480000000916800001136832AF    HBYHVTB 005500360039
BI00B32AF    #JTB203L       202203047158-3003-90             RUBBER STOPPER           CCN000040000000040000FN00000000020220301000040000NNE   20220214163039    2C0C  00002000000000250000000306032AF    HBYHVTB 002700430014
BI00B32AG    XG22035LMW     202202257388-0314                CONNECTOR ASS'Y          CCN000001500000001200FN00000000020220301000001200NNMQ0820220214121549    4N0N  00000120000001038000001132332AG    XGXGY   005400370024
BI00B32AG    XG22042LMW     202203117388-0314                CONNECTOR ASS'Y          CCN000001500000001200FN00000000020220401000001200NNMQ0820220214121549    4N0N  00000120000001038000001132332AG    XGXGY   005400370024
BI00B32AG    XG22044LMW     202203257388-0314                CONNECTOR ASS'Y          CCN000001500000001200FN00000000020220401000001200NNMQ0820220214121549    4N0N  00000120000001038000001132332AG    XGXGY   005400370024
BI00B32AG    XG22052LMW     202204087388-0314                CONNECTOR ASS'Y          CCN000001500000001200FN00000000020220501000001200NNMQ0820220214121549    4N0N  00000120000001038000001132332AG    XGXGY   005400370024
BI00B32A7    ZZ22033BMW     202202117137-3047-30             UNIT PACKING             CCN000023000000023000FY00002300020220301000000000NNM00020220214134301    1C0C  00000100000000170500000218932A7    ZZZZY   002700430014
BI00B32BG    YY2203ACMW     202202157196-1934-02             TERMINAL FEMALE          CCN000001000000019500FN00000000020220301000019500NNED0720220214162543    4P0P  00001950000000561600000846832BG    YGYYA   006400630015
BI00B32BG    YY2203ACMW     202202157196-1936-02             TERMINAL FEMALE          CCN000001000000013500FN00000000020220301000013500NNED0720220214162543    4P0P  00001350000000441500000726732BG    YGYYA   006400630015
BI00B32BG    YY2203ACMW     202202157196-1939-02             TERMINAL FEMALE          CCN000001000000015000FN00000000020220301000015000NNED0720220214162543    4P0P  00001500000000574500000862732BG    YGYYA   006400630015
BI00B32BG    YY2203ACMW     202202157196-1941-02             TERMINAL FEMALE          CCN000001000000011400FN00000000020220301000011400NNED0720220214162543    4P0P  00001140000000506200000794432BG    YGYYA   006400630015
BI00B32BG    YY22051CMW     202203177116-3153-08             TERMINAL                 CCN000081000000081000FN00000000020220501000081000NNM   20220214163149    4P0P  00002700000000461700000746932BG    YGYYA   006400630015
BI00B32BG    YY22052CMW     202203247116-3153-08             TERMINAL                 CCN000108000000108000FN00000000020220501000108000NNM   20220214163149    4P0P  00002700000000461700000746932BG    YGYYA   006400630015
BI00B32BG    YY22053CMW     202203317116-3153-08             TERMINAL                 CCN000108000000108000FN00000000020220501000108000NNM   20220214163149    4P0P  00002700000000461700000746932BG    YGYYA   006400630015
BI00B32BG    YY22051CMW     202203177158-3070-80             RUBBER STOPPER           CCN000120000000120000FN00000000020220501000120000NNM   20220214163149    1C0C  00004000000000276000000333332BG    YGYYA   002700430014
BI00B32BG    YY22052CMW     202203247158-3070-80             RUBBER STOPPER           CCN000120000000120000FN00000000020220501000120000NNM   20220214163149    1C0C  00004000000000276000000333332BG    YGYYA   002700430014
BI00B32BG    YY22053CMW     202203317158-3070-80             RUBBER STOPPER           CCN000120000000120000FN00000000020220501000120000NNM   20220214163149    1C0C  00004000000000276000000333332BG    YGYYA   002700430014
BI00B32BG    YY22051CMW     202203177296-1025-02             TERMINAL ALUMINIUM       CCN000054000000054000FN00000000020220501000054000NNM   20220214163149    4P0P  00001800000000635400000920632BG    YGYYA   006400630015
BI00B32BG    YY22052CMW     202203247296-1025-02             TERMINAL ALUMINIUM       CCN000072000000072000FN00000000020220501000072000NNM   20220214163149    4P0P  00001800000000635400000920632BG    YGYYA   006400630015
BI00B32BG    YY22053CMW     202203317296-1025-02             TERMINAL ALUMINIUM       CCN000072000000072000FN00000000020220501000072000NNM   20220214163149    4P0P  00001800000000635400000920632BG    YGYYA   006400630015
BI00B32BG    #YY22051CMW    202203177172-5630-40             RUBBER STOPPER           CCN000040000000040000FN00000000020220501000040000NNM   20220214163144    2H0H  00002000000000044000000095132BG    YGYYA   004300270014
BI00B32BG    #YY22053CMW    202203317172-5630-40             RUBBER STOPPER           CCN000040000000040000FN00000000020220501000040000NNM   20220214163144    2H0H  00002000000000044000000095132BG    YGYYA   004300270014
BI00B32BG    #YY22051CMW    202203177189-3033                HOUSING FEMALE           CCN000001600000001600FN00000000020220501000001600NNM   20220214163144    2F0F  00000160000001211200001431232BG    YGYYA   005500360039
BI00B32BG    #YY22052CMW    202203247189-3033                HOUSING FEMALE           CCN000001600000001600FN00000000020220501000001600NNM   20220214163144    2F0F  00000160000001211200001431232BG    YGYYA   005500360039
BI00B32BG    #YY22053CMW    202203317189-3033                HOUSING FEMALE           CCN000003200000003200FN00000000020220501000003200NNM   20220214163144    2F0F  00000160000001211200001431232BG    YGYYA   005500360039
BI00B32BG    #YY22051CMW    202203177189-3036                HOUSING FEMALE           CCN000001600000001600FN00000000020220501000001600NNM   20220214163144    2F0F  00000160000000921600001141632BG    YGYYA   005500360039
BI00B32BG    #YY22052CMW    202203247189-3036                HOUSING FEMALE           CCN000001600000001600FN00000000020220501000001600NNM   20220214163144    2F0F  00000160000000921600001141632BG    YGYYA   005500360039
BI00B32BG    #YY22053CMW    202203317189-3036                HOUSING FEMALE           CCN000003200000003200FN00000000020220501000003200NNM   20220214163144    2F0F  00000160000000921600001141632BG    YGYYA   005500360039
BI00B32B1    A22018         202204017158-3167-80             WIRE SEAL                CCN000060000000060000FN00000000020220601000060000NNM   20220214121549B1  1C0C  00002000000000048000000109032B1    AXARNE-M002700430014
BI00B32B1    A22018         202204017282-5553-30             CONNECTOR                CCN000002000000002000FN00000000020220601000002000NNM   20220214121549B1  4N0N  00000100000001010000001187332B1    AXARNE-M005500360039
BI00B32B1    #A22018        202204017157-3821                RUBBER STOPPER           CCN000020000000020000FN00000000020220601000020000NNM   20220214121549B1  2C0C  00002000000000176000000238032B1    AXARNE-M002700430014
BI00B32B1    #A22018        202204017158-3376-50             CONNECTOR WIRE SEAL      CCN000080000000080000FN00000000020220601000080000NNM   20220214121549B1  2C0C  00002000000000184000000240732B1    AXARNE-M002700430014
BI00B32B1    #A22018        202204017282-8395-40             CONNECTOR                CCN000005000000005000FN00000000020220601000005000NNM   20220214121549B1  2N0N  00000100000001009000001188032B1    AXARNE-M005500360039
BI00B32B1    #A22018        202204017283-8226-30             CONNECTOR                CCN000006000000006000FN00000000020220601000006000NNM   20220214121549B1  2N0N  00000200000000820000001008032B1    AXARNE-M005400370024
BI00B32B1    #A22018        202204017283-8397-40             CONNECTOR                CCN000001540000001540FN00000000020220601000001540NNM   20220214121549B1  2N0N  00000154000001007000001222732B1    AXARNE-M005600390023
BI00B32B6    A72018         202204017116-4037                TERMINAL                 CCN000006000000006000FN00000000020220601000006000NNM   20220214121549B6  4P0P  00000600000000600000000894232B6    AXARNE-M006400630015
BI00B32B6    A72018         202204017017-1180-02             TERMINAL                 CCN000072000000072000FN00000000020220601000072000NNM   20220214121549B6  4P0P  00007200000001065600001229032B6    AXARNE-M005100280028
BI00B32B6    A72018         202204017017-1182-02             TERMINAL                 CCN000045000000045000FN00000000020220601000045000NNM   20220214121549B6  4P0P  00004500000001165500001318632B6    AXARNE-M005100280028
BI00B32B6    A72018         202204017116-5045-02             TERMINAL                 CCN000048000000048000FN00000000020220601000048000NNM   20220214121549B6  4P0P  00001600000000678400001007132B6    AXARNE-M006400630017
BI00B32B6    A72018         202204017158-3166-60             WIRE SEAL                CCN000040000000040000FN00000000020220601000040000NNM   20220214121549B6  1C0C  00004000000000104000000152432B6    AXARNE-M002700430014
BI00B32B6    A72018         202204017287-0192-40             SEALED HOUSING ASS'Y     CCN000001440000001440FN00000000020220601000001440NNM   20220214121549B6  4N0N  00000048000001092000001322032B6    AXARNE-M005600390040
BI00B32B7    A82018         202204017158-3166-60             WIRE SEAL                CCN000080000000080000FN00000000020220701000080000NNM   20220214121549B7  1C0C  00004000000000104000000152432B7    AXARNE-M002700430014
BI00B32B7    A82018         202204017158-3167-80             WIRE SEAL                CCN000160000000160000FN00000000020220701000160000NNM   20220214121549B7  1C0C  00002000000000048000000109032B7    AXARNE-M002700430014
BI00B32B7    A82018         202204017158-3169-40             SEALING PLUG             CCN000080000000080000FN00000000020220701000080000NNM   20220214121549B7  1C0C  00004000000000156000000204132B7    AXARNE-M004300260014
BI00B32B7    A82018         202204017282-6448-40             CONNECTOR                CCN000003200000003200FN00000000020220701000003200NNM   20220214121549B7  4N0N  00000080000000887000001152732B7    AXARNE-M005600390040
BI00B32B7    #A82018        202204017135-7031                GROMMET                  CCN000004000000004000FN00000000020220701000004000NNM   20220214121549B7  2H0H  00000010000000634200000744232B7    AXARNE-M005400370024
BI00B32B7    #A82018        202204017158-3376-50             CONNECTOR WIRE SEAL      CCN000060000000060000FN00000000020220701000060000NNM   20220214121549B7  2C0C  00002000000000184000000240732B7    AXARNE-M002700430014
BI00B32B7    #A82018        202204017282-8395-40             CONNECTOR                CCN000002000000002000FN00000000020220701000002000NNM   20220214121549B7  2N0N  00000100000001009000001188032B7    AXARNE-M005500360039
BI00B32B7    #A82018        202204017283-8397-40             CONNECTOR                CCN000009240000009240FN00000000020220701000009240NNM   20220214121549B7  2N0N  00000154000001007000001222732B7    AXARNE-M005600390023
BI00B32B7    #A82018        202204017283-8398-40             CONNECTOR                CCN000007700000007700FN00000000020220701000007700NNM   20220214121549B7  2N0N  00000154000001007000001171332B7    AXARNE-M005600390023
BI00B32CH    SJ22033 MW     202202117114-4020                TERMINAL                 CCN000042000000042000FY00004200020220301000000000NNM00020220214134445    4P0P  00002100000000875700001169332CH    SJSAMIJF006400630015
BI00B32CH    SJ22033 MW     202202117114-4728-02             TERMINAL                 CCN000060000000060000FY00006000020220301000000000NNM00020220214134445    4P0P  00003000000000510000000804232CH    SJSAMIJF006400630015
BI00B32CH    SJ22033 MW     202202117114-4729-02             TERMINAL                 CCN000024000000030000FY00003000020220301000000000NNM00020220214134445    4P0P  00003000000000516000000810232CH    SJSAMIJF006400630015
BI00B32CH    SJ22033 MW     202202117114-5746-02             TERMINAL                 CCN000021000000021000FY00002100020220301000000000NNM00020220214134445    4P0P  00002100000000695100000988732CH    SJSAMIJF006400630015
BI00B32CH    SJ22033 MW     202202117114-5747-02             TERMINAL                 CCN000054000000054000FY00005400020220301000000000NNM00020220214134445    4P0P  00001800000000626400000920032CH    SJSAMIJF006400630015
BI00B32CH    SJ22033 MW     202202117114-5748-02             TERMINAL                 CCN000012000000012000FY00001200020220301000000000NNM00020220214134445    4P0P  00001200000000444000000737632CH    SJSAMIJF006400630015
BI00B32CH    SJ22033 MW     202202117114-5753-02             TERMINAL                 CCN000027000000027000FY00002700020220301000000000NNM00020220214134445    4P0P  00002700000000847800001141432CH    SJSAMIJF006400630015
BI00B32CH    SJ22033 MW     202202117116-4028-08             TERMINAL FEMALE          CCN000160000000160000FY00016000020220301000000000NNM00020220214134445    4P0P  00001600000000652800000981532CH    SJSAMIJF006400630017
BI00B32CH    SJ22033 MW     202202117116-4032                TERMINAL                 CCN000030000000030000FY00003000020220301000000000NNM00020220214134445    4P0P  00000600000000532800000818032CH    SJSAMIJF006400630015
BI00B32CH    SJ22033 MW     202202117116-4037                TERMINAL                 CCN000054000000054000FY00005400020220301000000000NNM00020220214134445    4P0P  00000600000000600000000894232CH    SJSAMIJF006400630015
BI00B32CH    SJ22033 MW     202202117116-4415-02             TERMINAL                 CCN001216000001216000FY00121600020220301000000000NNM00020220214134445    4P0P  00003800000000596600000925732CH    SJSAMIJF006400630017
BI00B32CH    SJ22033 MW     202202117116-4416-02             TERMINAL                 CCN000384000000384000FY00038400020220301000000000NNM00020220214134445    4P0P  00003200000000518400000847132CH    SJSAMIJF006400630017
BI00B32CH    SJ22033 MW     202202117116-5041-02             TERMINAL                 CCN000360000000360000FY00036000020220301000000000NNM00020220214134445    4P0P  00001500000000583500000868732CH    SJSAMIJF006400630015
BI00B32CH    SJ22033 MW     202202117116-5042-02             TERMINAL                 CCN000202500000202500FY00020250020220301000000000NNM00020220214134445    4P0P  00001350000000560300000845532CH    SJSAMIJF006400630015
BI00B32CH    SJ22033 MW     202202117116-5043-02             TERMINAL FEMALE          CCN000180000000180000FY00018000020220301000000000NNM00020220214134445    4P0P  00001200000000559200000844432CH    SJSAMIJF006400630015
BI00B32CH    SJ22033 MW     202202117116-5044-02             TERMINAL                 CCN000496000000496000FY00049600020220301000000000NNM00020220214134445    4P0P  00001600000000641600000986332CH    SJSAMIJF006400630017
BI00B32CH    SJ22033 MW     202202117116-5045-02             TERMINAL                 CCN000208000000208000FY00020800020220301000000000NNM00020220214134445    4P0P  00001600000000678400001007132CH    SJSAMIJF006400630017
BI00B32CH    SJ22033 MW     202202117116-5750-02             TERMINAL                 CCN000405000000405000FY00040500020220301000000000NNM00020220214134445    4P0P  00001500000000457500000742732CH    SJSAMIJF006400630015
BI00B32CH    SJ22033 MW     202202117116-5752-02             TERMINAL                 CCN000042000000042000FY00004200020220301000000000NNM00020220214134445    4P0P  00002100000000571200000856432CH    SJSAMIJF006400630015
BI00B32CH    SJ22033 MW     202202117116-6041                TERMINAL                 CCN000198000000198000FY00019800020220301000000000NNM00020220214134445    4P0P  00000450000000716000001009632CH    SJSAMIJF006400630015
BI00B32CH    SJ22033 MW     202202117116-6042                TERMINAL                 CCN000144000000144000FY00014400020220301000000000NNM00020220214134445    4P0P  00000300000000523800000856132CH    SJSAMIJF006400630015
BI00B32CH    SJ22033 MW     202202117126-8853-02             TERMINAL                 CCN000315000000315000FY00031500020220301000000000NNM00020220214134445    4P0P  00000750000000562500000847732CH    SJSAMIJF006400630015
BI00B32CH    SJ22033 MW     202202117126-8854-02             TERMINAL                 CCN000435000000435000FY00043500020220301000000000NNM00020220214134445    4P0P  00000750000000604500000889732CH    SJSAMIJF006400630015
BI00B32CH    SJ22033 MW     202202117126-8855-02             TERMINAL                 CCN000084000000084000FY00008400020220301000000000NNM00020220214134445    4P0P  00000600000000510600000795832CH    SJSAMIJF006400630015
BI00B32CH    SJ22035 MW     202202177327-6832-60             MAIN FUSE                CCN000017400000017400FN00000000020220301000017400NNMD0020220214130930    4N0N  00000060000000729200000930732CH    SJSAMIJF005400370024
BI00B32CH    SJ22033DMW     202202117116-5751-02             TERMINAL                 CCN000048000000048000FY00004800020220301000000000NNM00020220214134539    4P0P  00001200000000379200000664432CH    SJSAMIJF006400630015
BI00B32CH    SJ22033HMW     202202117B96-0805-02             TERMINAL FEMALE          CCN000090000000090000FY00009000020220301000000000NNM00020220214134613    4P0P  00002250000000558000000843232CH    SJSAMIJF006400630015
BI00B32CH    SJ22033HMW     202202117327-6830-30             MAIN FUSE                CCN000001200000001200FY00000120020220301000000000NNM00020220214134641    4N0N  00000060000000720100000922832CH    SJSAMIJF005400370024
BI00B32CH    SJ22033HMW     202202117327-6874-30             MULTI FUSE               CCN000010944000010944FY00001094420220301000000000NNM00020220214135156    4N0N  00000028800000991400001157332CH    SJSAMIJF005400370024
BI00B32CJ    #JQN2031       202202187172-5629-80             RUBBER STOPPER           CCN000020000000020000FN00000000020220301000020000NNM00020220214155755    2H0H  00002000000000060000000111132CJ    QNYHVQN 004300270014
BI00B32CJ    #JQN2031       202202187172-5630-40             RUBBER STOPPER           CCN000040000000040000FN00000000020220301000040000NNM00020220214155818    2H0H  00002000000000044000000095132CJ    QNYHVQN 004300270014
BI00B32CJ    #JQN203B       202203047047-5654-30             CLIP                     CCN000005000000005000FN00000000020220301000005000NNE   20220214163214    2F0F  00000500000000657000000825332CJ    QNYHVQN 005500360039
BI00B32CJ    #JQN203B       202203047158-3120-90             CONNECTOR WIRE SEAL      CCN000060000000060000FN00000000020220301000060000NNE   20220214163214    2C0C  00002000000000136000000194032CJ    QNYHVQN 002700430014
BI00B32CJ    #JQN203B       202203047158-3121-80             WIRE SEAL                CCN000020000000020000FN00000000020220301000020000NNE   20220214163214    2C0C  00002000000000118000000187332CJ    QNYHVQN 002700430014
BI00B32CJ    JQN203C        202203047116-4231-02             TERMINAL                 CCN000026000000026000FN00000000020220301000026000NNE   20220214163236    4P0P  00002600000000683800001012532CJ    QNYHVQN 006400630017
BI00B32CJ    JQN203C        202203047126-8889-02             FUSE TERMINAL            CCN000000800000006000FN00000000020220301000006000NNE   20220214163236    4P0P  00000600000000448200000733432CJ    QNYHVQN 006400630015
BI00B32CJ    JQN203C        202203047126-8891-02             FUSE TERMINAL            CCN000000600000006000FN00000000020220301000006000NNE   20220214163236    4P0P  00000600000000481800000767032CJ    QNYHVQN 006400630015
BI00B32CJ    JQN203C        202203047126-8892-02             FUSE TERMINAL            CCN000000600000006000FN00000000020220301000006000NNE   20220214163236    4P0P  00000600000000495000000780232CJ    QNYHVQN 006400630015
BI00B32CJ    JQN203C        202203047195-1935-02             TERMINAL MALE            CCN000019500000019500FN00000000020220301000019500NNE   20220214163236    4P0P  00001950000000670800000964432CJ    QNYHVQN 006400630015
BI00B32CJ    JQN203C        202203047195-1936-02             TERMINAL MALE            CCN000015000000015000FN00000000020220301000015000NNE   20220214163236    4P0P  00001500000000589500000883132CJ    QNYHVQN 006400630015
BI00B32CJ    JQN203C        202203047195-1937-02             TERMINAL MALE            CCN000015000000015000FN00000000020220301000015000NNE   20220214163236    4P0P  00001500000000594000000887632CJ    QNYHVQN 006400630015
BI00B32CJ    JQN203C        202203047195-2046-02             TERMINAL MALE            CCN000000350000008400FN00000000020220301000008400NNE   20220214163236    4P0P  00000840000000818200001111832CJ    QNYHVQN 006400630015
BI00B32CJ    JQN203C        202203047196-1937-02             TERMINAL FEMALE          CCN000013500000013500FN00000000020220301000013500NNE   20220214163236    4P0P  00001350000000446900000732132CJ    QNYHVQN 006400630015
BI00B32CJ    JQN203C        202203047196-1941-02             TERMINAL FEMALE          CCN000011400000011400FN00000000020220301000011400NNE   20220214163236    4P0P  00001140000000506200000794432CJ    QNYHVQN 006400630015
BI00B32CJ    JQN203C        202203047283-1156-30             CONNECTOR                CCN000000200000000800FN00000000020220301000000800NNE   20220214163236    4N0N  00000080000000877600001078032CJ    QNYHVQN 005600390040
BI00B32CJ    JQN203C        202203047286-1899                HOUSING SUB ASSEMBLY     CCN000000336000000336FN00000000020220301000000336NNE   20220214163236    4N0N  00000033600000814800001010832CJ    QNYHVQN 005400370024
BI00B32CJ    #JQN203C       202203047158-3120-90             CONNECTOR WIRE SEAL      CCN000060000000060000FN00000000020220301000060000NNE   20220214163229    2C0C  00002000000000136000000194032CJ    QNYHVQN 002700430014
BI00B32CJ    #JQN203C       202203047158-3121-80             WIRE SEAL                CCN000020000000020000FN00000000020220301000020000NNE   20220214163229    2C0C  00002000000000118000000187332CJ    QNYHVQN 002700430014
BI00B32CJ    #JQN203C       202203047172-5625-90             RUBBER STOPPER           CCN000004000000020000FN00000000020220301000020000NNE   20220214163229    2H0H  00002000000000082400000133832CJ    QNYHVQN 004300270014
BI00B32CJ    #JQN203C       202203047172-5628-80             DUMMY PLUG               CCN000002000000020000FN00000000020220301000020000NNE   20220214163229    2H0H  00002000000000110600000162032CJ    QNYHVQN 004300270014
BI00B32CJ    #JQN203C       202203047289-2914                HOUSING FEMALE ASS'Y     CCN000000050000001500FN00000000020220301000001500NNE   20220214163229    2N0N  00000150000000906000001033032CJ    QNYHVQN 005400370024
BI00B32CJ    @JQN203C       202203047187-1769-30             HOUSING FEMALE           CCN000000500000002000FN00000000020220301000002000NNE   20220214163234    3F0F  00000200000001032600001179032CJ    QNYHVQN 005500360039
BI00B32D2    DGTC2207       202202177289-3342-30             HOUSING FEMALE ASS'Y     CCN000021600000021600FN00000000020220201000021600NNM00020220214161701    1N0N  00000240000000686400000901432D2    TGYOT-G 005500360039
BI00B32D2    DGTC2207       202202087289-3342-90             HOUSING FEMALE ASS'Y     CCN000014400000014400FY00001440020220201000000000NNM00020220214161702    1N0N  00000240000000686400000901432D2    TGYOT-G 005500360039
BI00B32D2    #DGTC2212      202202177172-5629-80             RUBBER STOPPER           CCN000920000000920000FN00000000020220301000920000NNM00020220214162321    2H0H  00002000000000060000000111132D2    TGYOT-G 004300270014
BI00B32D2    DGTC2219       202205127288-6547                CONNECTOR MALE ASS'Y     CCN000018000000018000FN00000000020220501000018000NNMD0420220214121549    4N0N  00000075000001205300001340332D2    TGYOT-G 005400370024
BI00A32D9    I20401         202202157289-3342-90             HOUSING FEMALE ASS'Y     CCN000028800000012000FN00000000020220101000012000NNMM0020220214121549    1N0N  00000240000000686400000901432D9    UEHESTO 005500360039
BI00B32D9    I20401         202202177289-3342-90             HOUSING FEMALE ASS'Y     CCN000016800000016800FN00000000020220101000016800NNMM0020220214121549    1N0N  00000240000000686400000901432D9    UEHESTO 005500360039
BI00A32EJ    T220104P01     202202157114-4100-02             TERMINAL                 CCN000018000000018000FN00000000020220201000018000NNEM0020220214132437EJ  4P0P  00001800000000748800001077432EJ    EJYKBO  006400630017
BI00A32EJ    T220104P01     202202157116-4100-02             TERMINAL                 CCN000030000000030000FN00000000020220201000030000NNEM0020220214132455EJ  4P0P  00001500000000696000000990232EJ    EJYKBO  006400630015
BI00A32EJ    T200113P01     202202157114-4110-02             TERMINAL                 CCN000030000000030000FN00000000020220201000030000NNEM0020220214134631EJ  4P0P  00001500000000901500001230132EJ    EJYKBO  006400630017
BI00A32EJ    T200113P01     202202157114-4100-02             TERMINAL                 CCN000018000000018000FN00000000020220201000018000NNEM0020220214134631EJ  4P0P  00001800000000748800001077432EJ    EJYKBO  006400630017
BI00A32EJ    T200113P01     202202157116-4100-02             TERMINAL                 CCN000015000000015000FN00000000020220201000015000NNEM0020220214134631EJ  4P0P  00001500000000696000000990232EJ    EJYKBO  006400630015
BI00A32EJ    T220120P01     202202187114-4110-02             TERMINAL                 CCN000015000000015000FN00000000020220301000015000NNEM0020220214135231EJ  4P0P  00001500000000901500001230132EJ    EJYKBO  006400630017
BI00A32EJ    T220120P01     202202187114-4100-02             TERMINAL                 CCN000018000000018000FN00000000020220301000018000NNEM0020220214134305EJ  4P0P  00001800000000748800001077432EJ    EJYKBO  006400630017
BI00A32EJ    T220120P01     202202187116-4100-02             TERMINAL                 CCN000060000000060000FN00000000020220301000060000NNEM0020220214135138EJ  4P0P  00001500000000696000000990232EJ    EJYKBO  006400630015
BI00A32EJ    T220120P01     202202187116-4120-02             TERMINAL                 CCN000018000000018000FN00000000020220301000018000NNEM0020220214134234EJ  4P0P  00000600000000780000001073632EJ    EJYKBO  006400630015
BI00A32EJ    T220120P01     202202187116-4110-02             TERMINAL                 CCN000036000000036000FN00000000020220301000036000NNEM0020220214134418EJ  4P0P  00000900000000594000000882232EJ    EJYKBO  006400630015
BI00A32EJ    T220126P01     202202187116-4025                TERMINAL                 CCN000016000000016000FN00000000020220301000016000NNEM0020220214134531EJ  4P0P  00001600000000644800000975132EJ    EJYKBO  006400630017
BI00A32EJ    T220126P01     202202187114-4110-02             TERMINAL                 CCN000045000000015000FN00000000020220301000015000NNEM0020220214135347EJ  4P0P  00001500000000901500001230132EJ    EJYKBO  006400630017
BI00A32EJ    T220126P01     202202157114-4112-02             TERMINAL                 CCN000045000000045000FN00000000020220301000045000NNEM0020220214134758EJ  4P0P  00000900000000598500000927132EJ    EJYKBO  006400630017
BI00A32EJ    T220126P01     202202157116-4112-02             TERMINAL                 CCN000102000000102000FN00000000020220301000102000NNEM0020220214134742EJ  4P0P  00000600000000450000000738232EJ    EJYKBO  006400630015
BI00A32EJ    T220126P01     202202187116-4111-02             TERMINAL                 CCN000022500000022500FN00000000020220301000022500NNEM0020220214134943EJ  4P0P  00000750000000529500000817732EJ    EJYKBO  006400630015
BI00A32EJ    T220126P01     202202187116-2951-02             TERMINAL                 CCN000010800000010800FN00000000020220301000010800NNEM0020220214135058EJ  4P0P  00000540000000817600001111832EJ    EJYKBO  006400630015
BI00B32EJ    T220211P01     202203177116-1686-02             TERMINAL                 CCN000021000000021000FN00000000020220301000021000NNE   20220214121549EJ  4P0P  00002100000000869400001021632EJ    EJYKBO  005100280028
BI00B32EJ    T220211P01     202203177116-4100-02             TERMINAL                 CCN000015000000015000FN00000000020220301000015000NNE   20220214121549EJ  4P0P  00001500000000696000000990232EJ    EJYKBO  006400630015
BI00B32EJ    T220211P01     202203177158-3167-80             WIRE SEAL                CCN000120000000120000FN00000000020220301000120000NNE   20220214121549EJ  1C0C  00002000000000048000000109032EJ    EJYKBO  002700430014
BI00B32EJ    T220211P02     202203177114-4101-02             TERMINAL                 CCN000150000000150000FN00000000020220301000150000NNE   20220214121549EJ  4P0P  00001500000000675000001003632EJ    EJYKBO  006400630017
BI00B32EJ    T220211P02     202203177116-4102-02             TERMINAL                 CCN000024000000024000FN00000000020220301000024000NNE   20220214121549EJ  4P0P  00001200000000553200000841432EJ    EJYKBO  006400630015
BI00B32EJ    T220211P02     202203177116-4121-02             TERMINAL                 CCN000067500000067500FN00000000020220301000067500NNE   20220214121549EJ  4P0P  00000450000000618800000912432EJ    EJYKBO  006400630015
BI00B32EJ    T220211P02     202203177116-4122-02             TERMINAL                 CCN000162000000162000FN00000000020220301000162000NNE   20220214121549EJ  4P0P  00000450000000656600000950232EJ    EJYKBO  006400630015
BI00B32EJ    T220211P02     202203177283-5843                CONNECTOR                CCN000018000000018000FN00000000020220301000018000NNE   20220214121549EJ  1N0N  00000150000000889000001132032EJ    EJYKBO  005600390040
BI00B32EJ    T220211P03     202203317116-5751-02             TERMINAL                 CCN000012000000012000FN00000000020220301000012000NNE   20220214121549EJ  4P0P  00001200000000379200000664432EJ    EJYKBO  006400630015
BI00B32EJ    T220211P03     202203317158-3070-80             RUBBER STOPPER           CCN000080000000080000FN00000000020220301000080000NNE   20220214121549EJ  1C0C  00004000000000276000000333332EJ    EJYKBO  002700430014
BI00B32EJ    T220211P03     202203317283-1020                CONNECTOR                CCN000060000000060000FN00000000020220301000060000NNE   20220214121549EJ  4N0N  00000600000000840000001049332EJ    EJYKBO  005600390040
BI00B32EJ    #T220211P03    202203317123-6423-30             CONNECTOR                CCN000012000000012000FN00000000020220301000012000NNE   20220214121549EJ  2F0F  00000200000001002000001167632EJ    EJYKBO  005600390023
BI00B32EJ    #T220211P03    202203317157-3821                RUBBER STOPPER           CCN000020000000020000FN00000000020220301000020000NNE   20220214121549EJ  2C0C  00002000000000176000000238032EJ    EJYKBO  002700430014
BI00B32EJ    T220211P04     202203177114-4231-02             TERMINAL                 CCN000072000000072000FN00000000020220301000072000NNE   20220214121549EJ  4P0P  00001800000000554400000848032EJ    EJYKBO  006400630015
BI00A32EJ    T220211P05     202203177116-4122-02             TERMINAL                 CCN000009000000009000FN00000000020220301000009000NNE   20220214121549EJ  4P0P  00000450000000656600000950232EJ    EJYKBO  006400630015
BI00A32EJ    T220211P06     202203037116-4122-02             TERMINAL                 CCN000004500000004500FN00000000020220301000004500NNE   20220214121549EJ  4P0P  00000450000000656600000950232EJ    EJYKBO  006400630015
BI00B32EJ    T220126P01     202203037114-4110-02             TERMINAL                 CCN000030000000030000FN00000000020220301000030000NNEM0020220214135347EJ  4P0P  00001500000000901500001230132EJ    EJYKBO  006400630017
BI00B32E2    NY204A         202203027116-1686-02             TERMINAL                 CCN000021000000021000FN00000000020220401000021000NNED0720220214131912    4P0P  00002100000000869400001021632E2    SPYSE   005100280028
BI00B32E2    NY204A         202203027116-5045-02             TERMINAL                 CCN000064000000064000FN00000000020220401000064000NNED0720220214131912    4P0P  00001600000000678400001007132E2    SPYSE   006400630017
BI00B32E2    NY204A         202203027116-5046-02             TERMINAL                 CCN000012000000012000FN00000000020220401000012000NNED0720220214131912    4P0P  00001200000000544800000873532E2    SPYSE   006400630017
BI00B32E2    NY204A         202203027158-3006-90             RUBBER STOPPER           CCN000380000000380000FN00000000020220401000380000NNED0720220214131912    1C0C  00002000000000330600000386032E2    SPYSE   002700430014
BI00B32E2    NY204A         202203027286-4097-40             CONNECTOR MALE ASS'Y     CCN000001600000001600FN00000000020220401000001600NNED0720220214131912    1N0N  00000160000000768000000978032E2    SPYSE   005500360039
BI00B32E2    NY204A         202203027288-3337-30             HOUSING MALE             CCN000003000000003000FN00000000020220401000003000NNED0720220214131912    4N0N  00000150000000867000001012032E2    SPYSE   005400370024
BI00B32E2    #NY204A        202203027158-3015-10             RUBBER STOPPER           CCN000030000000030000FN00000000020220401000030000NNED0720220214131909    2C0C  00001000000000419500000474032E2    SPYSE   002700430014
BI00B32E2    #NY204A        202203027158-3121-80             WIRE SEAL                CCN000060000000060000FN00000000020220401000060000NNED0720220214131909    2C0C  00002000000000118000000187332E2    SPYSE   002700430014
BI00B32E2    #NY204A        202203027183-2419-90             CONNECTOR HOUSING        CCN000004800000004800FN00000000020220401000004800NNED0720220214131909    2F0F  00000480000001113600001400732E2    SPYSE   005500360039
BI00B32E2    #NY204A        202203027289-2912-30             HOUSING FEMALE ASS'Y     CCN000002000000002000FN00000000020220401000002000NNED0720220214131909    2N0N  00000200000000804000000929032E2    SPYSE   005400370024
BI00B32E2    #NY204A        202203027289-2913-30             HOUSING FEMALE ASS'Y     CCN000001500000001500FN00000000020220401000001500NNED0720220214131909    2N0N  00000150000000907500001034532E2    SPYSE   005400370024
BI00B32E2    #NY204A        202203027289-2914-40             HOUSING FEMALE ASS'Y     CCN000001500000001500FN00000000020220401000001500NNED0720220214131909    2N0N  00000150000000904500001031532E2    SPYSE   005400370024
BI00B32E2    #NY204A        202203027289-2915-30             HOUSING FEMALE ASS'Y     CCN000001500000001500FN00000000020220401000001500NNED0720220214131909    2N0N  00000150000000964500001091532E2    SPYSE   005400370024
BI00B32E2    #NY204A        202203027289-2917-30             HOUSING FEMALE ASS'Y     CCN000001000000001000FN00000000020220401000001000NNED0720220214131909    2N0N  00000100000000964000001091032E2    SPYSE   005400370024
BI00B32G2    SA22031 MW     202202237289-3342-30             HOUSING FEMALE ASS'Y     CCN000144000000144000FN00000000020220301000144000NNMD0420220214121549    1N0N  00000240000000686400000901432G2    AISUAI  005500360039
BI00B32G2    SA22031 MW     202202237289-3342-30             HOUSING FEMALE ASS'Y     CCN000072000000000000FY00000000020220301000000000NNMD0420220214085629    1N0N  00000240000000686400000901432G2    AISUAI  005500360039
BI00B32G2    SA22041 MW     202203097289-3342-30             HOUSING FEMALE ASS'Y     CCN000072000000072000FN00000000020220401000072000NNMD0420220214121549    1N0N  00000240000000686400000901432G2    AISUAI  005500360039
BI00B32G2    SA22042 MW     202203167289-3342-30             HOUSING FEMALE ASS'Y     CCN000048000000048000FN00000000020220401000048000NNMD0420220214121549    1N0N  00000240000000686400000901432G2    AISUAI  005500360039
BI00B32G2    SA22043 MW     202203237289-3342-30             HOUSING FEMALE ASS'Y     CCN000036000000036000FN00000000020220401000036000NNMD0420220214121549    1N0N  00000240000000686400000901432G2    AISUAI  005500360039
BI00B32G2    SA22044 MW     202203307289-3342-30             HOUSING FEMALE ASS'Y     CCN000019200000019200FN00000000020220401000019200NNMD0420220214121549    1N0N  00000240000000686400000901432G2    AISUAI  005500360039
BI00B32G2    SA22044 MW     202203307470-5237                J/B ASS'Y                CCN000001680000001680FN00000000020220401000001680NNMD0220220214131104    1J0J  00000002400001320000001570032G2    AISUAI  005500360039
BI00B32G2    SA2204A MW     202203237154-7136-30             LOWER COVER              CCN000000120000000120FN00000000020220401000000120NNE   20220214163313    4F0F  00000006000000199000000408032G2    AISUAI  005600390040
BI00B32G2    SA2204A MW     202203237254-5840-30             ENG R/B SUB ASS'Y        CCN000000096000000096FN00000000020220401000000096NNE   20220214163313    4J0J  00000002400000732000000952032G2    AISUAI  005600390040
BI00B32G2    #SA2204A MW    202203237157-7897-60             SEAL RUBBER              CCN000010000000010000FN00000000020220401000010000NNE   20220214163311    2C0C  00001000000000132000000214732G2    AISUAI  002700430014
BI00B32G2    #SA2204AHMW    202203237035-7981-30             DASH GROMMET             CCN000000120000000120FN00000000020220401000000120NNE   20220214163354    2H0H  00000012000001068000001428032G2    AISUAI  005600390040
BI00B32G2    SA2204AJMW     202203237116-3153-08             TERMINAL                 CCN000027000000027000FN00000000020220401000027000NNE   20220214163408    4P0P  00002700000000461700000746932G2    AISUAI  006400630015
BI00B32G8    PATA2041A      202203167124-2700                RELAY BLOCK              CCN000000050000000072FN00000000020220401000000072NNE   20220214121549    4F0F  00000007200000974000001149032G8    PSPASI  005600390040
BI00B32H2    TIJ2031        202202187289-3342-30             HOUSING FEMALE ASS'Y     CCN000124800000124800FN00000000020220301000124800NNM00020220214160458    1N0N  00000240000000686400000901432H2    HVYHV   005500360039
BI00B32H2    #TIJ2031       202202257172-5629-80             RUBBER STOPPER           CCN000380000000380000FN00000000020220301000380000NNM00020220214160436    2H0H  00002000000000060000000111132H2    HVYHV   004300270014
BI00B32H2    TIJ203Q        202203047388-2978-30             HOUSING MALE ASS'Y       CCN000000480000000480FN00000000020220301000000480NNE   20220214163434    1N0N  00000048000000742000001122032H2    HVYHV   005500360039
BI00B32H2    TIJ203R        202203047116-1685-02             TERMINAL                 CCN000024000000024000FN00000000020220301000024000NNE   20220214163454    4P0P  00002400000000897600001065232H2    HVYHV   005100280028
BI00B32H2    TIJ203R        202203047116-2893-02             TERMINAL                 CCN000012000000012000FN00000000020220301000012000NNE   20220214163454    4P0P  00001200000000895200001058632H2    HVYHV   005100280028
BI00B32H2    TIJ203R        202203047116-4037                TERMINAL                 CCN000012000000012000FN00000000020220301000012000NNE   20220214163454    4P0P  00000600000000600000000894232H2    HVYHV   006400630015
BI00B32H2    TIJ203R        202203047158-3165-90             WIRE SEAL                CCN000200000000200000FN00000000020220301000200000NNE   20220214163454    1C0C  00004000000000124000000172432H2    HVYHV   004300270014
BI00B32H2    TIJ203R        202203047196-1466-02             TERMINAL MALE            CCN000199500000199500FN00000000020220301000199500NNE   20220214163454    4P0P  00002850000000427500000712732H2    HVYHV   006400630015
BI00B32H2    TIJ203R        202203047386-9155                CONNECTOR MALE ASS'Y     CCN000002400000002400FN00000000020220301000002400NNE   20220214163454    4N0N  00000060000001244400001369932H2    HVYHV   005400370024
BI00B32H2    TIJ203R        202203047470-5304                J/B COMPLETE ASS'Y       CCN000000750000000750FN00000000020220301000000750NNE   20220214163454    4J0J  00000001000000494000000661032H2    HVYHV   005400370024
BI00B32H2    #TIJ203R       202203047154-5597-30             CASSETTE R/B             CCN000001600000001600FN00000000020220301000001600NNE   20220214163449    2F0F  00000080000000736000000952032H2    HVYHV   005500360039
BI00B32H2    #TIJ203R       202203047158-3015-10             RUBBER STOPPER           CCN000010000000010000FN00000000020220301000010000NNE   20220214163449    2C0C  00001000000000419500000474032H2    HVYHV   002700430014
BI00B32H2    #TIJ203R       202203047158-3017                RUBBER STOPPER           CCN000010000000010000FN00000000020220301000010000NNE   20220214163449    2C0C  00001000000000375500000435032H2    HVYHV   002700430014
BI00B32H2    TIJ204A        202203117116-3154-08             TERMINAL                 CCN000027000000027000FN00000000020220401000027000NNE   20220214163506    4P0P  00002700000000475200000760432H2    HVYHV   006400630015
BI00B32H2    TIJ204A        202203117116-4037                TERMINAL                 CCN000006000000006000FN00000000020220401000006000NNE   20220214163506    4P0P  00000600000000600000000894232H2    HVYHV   006400630015
BI00B32H2    TIJ204A        202203117158-3169-40             SEALING PLUG             CCN000080000000080000FN00000000020220401000080000NNE   20220214163506    1C0C  00004000000000156000000204132H2    HVYHV   004300260014
BI00B32H2    TIJ204A        202203117196-1325-02             TERMINAL FEMALE          CCN000060000000060000FN00000000020220401000060000NNE   20220214163506    4P0P  00006000000000450000000778732H2    HVYHV   006400630017
BI00B32H2    TIJ204A        202203117196-1466-02             TERMINAL MALE            CCN000057000000057000FN00000000020220401000057000NNE   20220214163506    4P0P  00002850000000427500000712732H2    HVYHV   006400630015
BI00B32H2    TIJ204A        202203117273-2982-0W             CASSETTE BRACKET         CCN000000600000000600FN00000000020220401000000600NNE   20220214163506    4N0N  00000060000000526000000726032H2    HVYHV   005500360039
BI00B32H2    TIJ204A        202203117283-1927-30             CONNECTOR                CCN000002000000002000FN00000000020220401000002000NNE   20220214163506    4N0N  00000200000001190000001368032H2    HVYHV   005500360039
BI00B32H2    TIJ204A        202203117287-3885                HYBRID FEMALE ASS'Y      CCN000004800000004800FN00000000020220401000004800NNE   20220214163506    1N0N  00000240000001029600001249632H2    HVYHV   005500360039
BI00B32H2    TIJ204A        202203117287-7598-30             HOUSING FEMALE ASS'Y     CCN000001000000001000FN00000000020220401000001000NNE   20220214163506    4N0N  00000100000000508000000620532H2    HVYHV   005400370024
BI00B32H2    TIJ204A        202203117470-5304                J/B COMPLETE ASS'Y       CCN000000300000000300FN00000000020220401000000300NNE   20220214163506    4J0J  00000001000000494000000661032H2    HVYHV   005400370024
BI00B32H2    TIJ204A        202203117470-5651                J/B COMPLETE ASS'Y       CCN000000020000000020FN00000000020220401000000020NNE   20220214163506    4J0J  00000001000000494000000661032H2    HVYHV   005400370024
BI00B32H2    #TIJ204A       202203117154-5597-30             CASSETTE R/B             CCN000002400000002400FN00000000020220401000002400NNE   20220214163505    2F0F  00000080000000736000000952032H2    HVYHV   005500360039
BI00B32H2    #TIJ204A       202203117158-3015-10             RUBBER STOPPER           CCN000010000000010000FN00000000020220401000010000NNE   20220214163505    2C0C  00001000000000419500000474032H2    HVYHV   002700430014
BI00B32H2    #TIJ204A       202203117183-2419                HOUSING                  CCN000004800000004800FN00000000020220401000004800NNE   20220214163505    2F0F  00000480000001065600001352732H2    HVYHV   005500360039
BI00B32H2    #TIJ204A       202203117282-1030                CONNECTOR MALE ASS'Y     CCN000001000000001000FN00000000020220401000001000NNE   20220214163505    2N0N  00000100000000365000000487532H2    HVYHV   005400370024
BI00B32H2    TIJ204B        202203187114-4021                TERMINAL                 CCN000030000000030000FN00000000020220401000030000NNE   20220214163518    4P0P  00001500000000670500000964132H2    HVYHV   006400630015
BI00B32H2    TIJ204B        202203187114-4110-02             TERMINAL                 CCN000015000000015000FN00000000020220401000015000NNE   20220214163518    4P0P  00001500000000901500001230132H2    HVYHV   006400630017
BI00B32H2    TIJ204B        202203187116-4037                TERMINAL                 CCN000006000000006000FN00000000020220401000006000NNE   20220214163518    4P0P  00000600000000600000000894232H2    HVYHV   006400630015
BI00B32H2    TIJ204B        202203187283-4576-90             HOUSING FEMALE ASS'Y     CCN000004800000004800FN00000000020220401000004800NNE   20220214163518    4N0N  00000480000000651300000871332H2    HVYHV   005500360039
BI00B32H2    TIJ204B        202203187287-3885                HYBRID FEMALE ASS'Y      CCN000002400000002400FN00000000020220401000002400NNE   20220214163518    1N0N  00000240000001029600001249632H2    HVYHV   005500360039
BI00B32H2    TIJ204B        202203187470-5304                J/B COMPLETE ASS'Y       CCN000000300000000300FN00000000020220401000000300NNE   20220214163518    4J0J  00000001000000494000000661032H2    HVYHV   005400370024
BI00B32H2    #TIJ204B       202203187158-3015-10             RUBBER STOPPER           CCN000010000000010000FN00000000020220401000010000NNE   20220214163517    2C0C  00001000000000419500000474032H2    HVYHV   002700430014
BI00B32H2    #TIJ204B       202203187183-2413-30             CONNECTOR HOUSING        CCN000009600000009600FN00000000020220401000009600NNE   20220214163517    2F0F  00000480000000477600000759532H2    HVYHV   005500360039
BI00B32H2    TIJ204C        202203257116-2891-02             TERMINAL                 CCN000015000000015000FN00000000020220401000015000NNE   20220214163528    4P0P  00001500000000982500001145932H2    HVYHV   005100280028
BI00B32H2    TIJ204C        202203257287-3885                HYBRID FEMALE ASS'Y      CCN000002400000002400FN00000000020220401000002400NNE   20220214163528    1N0N  00000240000001029600001249632H2    HVYHV   005500360039
BI00B32H2    TIJ204C        202203257287-8073                HOUSING FEMALE ASS'Y     CCN000002400000002400FN00000000020220401000002400NNE   20220214163528    1N0N  00000240000001166400001386432H2    HVYHV   005500360039
BI00B32J1    390627         202202177017-1180-02             TERMINAL                 CCN000072000000072000FN00000000020220201000072000NNM00020220214141312    4P0P  00007200000001065600001229032J1    UKYEL-BL005100280028
BI00B32J1    390627         202202177116-4020                TERMINAL                 CCN000202500000202500FN00000000020220201000202500NNM00020220214141302    4P0P  00001350000000513000000798232J1    UKYEL-BL006400630015
BI00B32J1    390627         202202177196-1461-06             TERMINAL FEMALE          CCN000024000000024000FN00000000020220201000024000NNM00020220214141253    4P0P  00002400000000386400000692932J1    UKYEL-BL006400630015
BI00B32J1    390627         202202177282-5574-10             CONNECTOR                CCN000006400000006400FN00000000020220201000006400NNM00020220214141240    4N0N  00000080000001235000001423032J1    UKYEL-BL005600390040
BI00B32J1    390627         202202177282-6448-40             CONNECTOR                CCN000000800000000800FN00000000020220201000000800NNM00020220214141230    4N0N  00000080000000887000001152732J1    UKYEL-BL005600390040
BI00B32J1    390627         202202177282-6568-40             CONNECTOR                CCN000005000000005000FN00000000020220201000005000NNM00020220214141215    4N0N  00000100000001206000001370732J1    UKYEL-BL005500360039
BI00B32J1    390627         202202177283-1040                CONNECTOR                CCN000008000000008000FN00000000020220201000008000NNM00020220214141205    4N0N  00000200000000396000000670032J1    UKYEL-BL005600390040
BI00B32J1    390627         202202177283-5623-30             CONNECTOR                CCN000006400000006400FN00000000020220201000006400NNM00020220214141156    4N0N  00000160000001520000001804032J1    UKYEL-BL005600390040
BI00B32J1    390627         202202177283-6388-40             CONNECTOR                CCN000002000000002000FN00000000020220201000002000NNM00020220214141145    4N0N  00000200000001029000001173532J1    UKYEL-BL005500360039
BI00B32J1    390627         202202177289-4696-30             HOUSING FEMALE ASS'Y     CCN000002000000002000FN00000000020220201000002000NNM00020220214141135    4N0N  00000200000000913400001055432J1    UKYEL-BL005400370024
BI00B32J1    390627         202202177298-1865-30             HOUSING FEMALE ASS'Y     CCN000165600000165600FN00000000020220201000165600NNM00020220214141127    4N0N  00000240000001003200001204532J1    UKYEL-BL005500360039
BI00B32J1    390627         202202177298-1869-30             HOUSING FEMALE ASS'Y     CCN000032400000032400FN00000000020220201000032400NNM00020220214141055    4N0N  00000120000000737000000939832J1    UKYEL-BL005500360039
BI00B32J1    391358         202205097298-1187-30             SHUNT RING ASSEMBLY      CCN000080000000080000FN00000000020220301000080000NNMD0220220214121549    4N0N  00001000000000647000000769532J1    UKYEL-BL005400370024
BI00B32M4    TP2042         202203247327-6983-30             MAIN FUSE                CCN000000600000000600FN00000000020220401000000600NNMD0120220214121549    4N0N  00000060000000748800000951532M4    SISAI   005400370024
BI00B32M4    TP2043         202203317327-6983-30             MAIN FUSE                CCN000000600000000600FN00000000020220401000000600NNMD0120220214121549    4N0N  00000060000000748800000951532M4    SISAI   005400370024
BI00B32M4    TP2044         202204077327-6983-30             MAIN FUSE                CCN000000600000000600FN00000000020220401000000600NNMD0120220214121549    4N0N  00000060000000748800000951532M4    SISAI   005400370024
BI00B32M4    TP2042         202203247327-6985-30             MULTI FUSE               CCN000000864000000864FN00000000020220401000000864NNMD0120220214121549    4N0N  00000028800000886100001052032M4    SISAI   005400370024
BI00B32M4    TP2043         202203317327-6985-30             MULTI FUSE               CCN000000864000000864FN00000000020220401000000864NNMD0120220214121549    4N0N  00000028800000886100001052032M4    SISAI   005400370024
BI00B32M4    TP2042         202203247327-6990-30             MULTI FUSE               CCN000000560000000560FN00000000020220401000000560NNMD0120220214121549    4NON  00000056000000724000000907032M4    SISAI   005400370024
BI00B32M4    TP2043         202203317327-6990-30             MULTI FUSE               CCN000000560000000560FN00000000020220401000000560NNMD0120220214121549    4NON  00000056000000724000000907032M4    SISAI   005400370024
BI00B32M4    TP2044         202204077327-6990-30             MULTI FUSE               CCN000000560000000560FN00000000020220401000000560NNMD0120220214121549    4NON  00000056000000724000000907032M4    SISAI   005400370024
BI00B32N1    #NST2115A-1    202202177158-3007-10             RUBBER STOPPER           CCN000020000000020000FN00000000020220301000020000NNM00020220214160531    2H0H  00002000000000308000000362732N1    TAYIPL  002700430014
BI00B32N2    #2152103772    202202117186-3974-30             CONNECTOR HOUSING        CCN000002400000002400FY00000240020220301000000000NNM00020220214143236    2F0F  00000240000001062200001233432N2    YWYIPLTC005500360039
BI00B32N2    #2152103772    202202117187-3358-30             JOINT CONNECTOR          CCN000001200000001200FY00000120020220301000000000NNM00020220214143255    2F0F  00000120000000673200000940432N2    YWYIPLTC005600390040
BI00B32R4    HZYSW2204010   202203227116-1230                TERMINAL                 CCN000013500000013500FN00000000020220401000013500NNM   20220214121549    4P0P  00001350000000664200000952432R4    HZHZYME 006400630015
BI00B32R7    R-TAP220068    202205197298-1186-40             SQUIB SUB ASS'Y          CCN000080000000080000FN00000000020220301000080000NNED0220220214121549    4N0N  00001000000000650000000774532R7    IVYCIC  005400370024
BI00B32R8    #TT2203BYMW    202202157172-5626-90             RUBBER STOPPER           CCN000020000000020000FY00002000020220301000000000NNED0020220214161702    2H0H  00002000000000076400000127832R8    TTTJY   004300270014
BI00B32R8    TT2204AYMW     202203017283-1020                CONNECTOR                CCN000006000000006000FN00000000020220401000006000NNE   20220214154118    4N0N  00000600000000840000001049332R8    TTTJY   005600390040
BI00B32U5    DI2018         202204017116-4037                TERMINAL                 CCN000024000000024000FN00000000020220601000024000NNM   20220214121549U5  4P0P  00000600000000600000000894232U5    AMAMSD  006400630015
BI00B32U5    DI2018         202204017116-4486-02             TERMINAL                 CCN000168000000168000FN00000000020220601000168000NNM   20220214121549U5  4P0P  00002800000000666400000995132U5    AMAMSD  006400630017
BI00B32U5    DI2018         202204017116-5045-02             TERMINAL                 CCN000224000000224000FN00000000020220601000224000NNM   20220214121549U5  4P0P  00001600000000678400001007132U5    AMAMSD  006400630017
BI00B32U5    DI2018         202204017116-5046-02             TERMINAL                 CCN000108000000108000FN00000000020220601000108000NNM   20220214121549U5  4P0P  00001200000000544800000873532U5    AMAMSD  006400630017
BI00B32U5    #DI2018        202204017157-3821                RUBBER STOPPER           CCN000020000000020000FN00000000020220601000020000NNM   20220214121549U5  2C0C  00002000000000176000000238032U5    AMAMSD  002700430014
BI00B32U5    #DI2018        202204017158-3017                RUBBER STOPPER           CCN000020000000020000FN00000000020220601000020000NNM   20220214121549U5  2C0C  00001000000000375500000435032U5    AMAMSD  002700430014
BI00B32U5    #DI2018        202204017189-3032                HOUSING FEMALE           CCN000006400000006400FN00000000020220601000006400NNM   20220214121549U5  2F0F  00000160000000788400001018432U5    AMAMSD  005500360039
BI00B32U5    #DI2018        202204017154-5597-30             CASSETTE R/B             CCN000001600000001600FN00000000020220601000001600NNM   20220214121549U5  2F0F  00000080000000736000000952032U5    AMAMSD  005500360039
BI00B32U5    #DI2018        202204017158-3004-40             RUBBER STOPPER           CCN000040000000040000FN00000000020220601000040000NNM   20220214121549U5  2C0C  00002000000000234000000306332U5    AMAMSD  002700430014
BI00B32U5    #DI2018        202204017158-3007-10             RUBBER STOPPER           CCN000120000000120000FN00000000020220601000120000NNM   20220214121549U5  2H0H  00002000000000308000000362732U5    AMAMSD  002700430014
BI00B32U5    #DI2018        202204017158-3008-80             RUBBER STOPPER           CCN000120000000120000FN00000000020220601000120000NNM   20220214121549U5  2C0C  00002000000000288000000343032U5    AMAMSD  004300270014
BI00B32U5    #DI2018        202204017158-3376-50             CONNECTOR WIRE SEAL      CCN000060000000060000FN00000000020220601000060000NNM   20220214121549U5  2C0C  00002000000000184000000240732U5    AMAMSD  002700430014
BI00B32U5    #DI2018        202204017183-8252-40             HOUSING                  CCN000009600000009600FN00000000020220601000009600NNM   20220214121549U5  2F0F  00000240000000454000000729032U5    AMAMSD  005500360039
BI00B32U5    #DI2018        202204017289-4200-30             HOUSING FEMALE ASS'Y     CCN000024000000024000FN00000000020220601000024000NNM   20220214121549U5  2N0N  00000200000000926000001021032U5    AMAMSD  005400370024
BI00B32U9    TPA215         202203107114-4030                TERMINAL                 CCN000010500000010500FN00000000020220401000010500NNM   20220214131417U9  4P0P  00001050000000926100001254732U9    YNYNA-E 006400630017
BI00B32U9    TPA215         202203107114-4032                TERMINAL                 CCN000022500000022500FN00000000020220401000022500NNM   20220214131417U9  4P0P  00000750000000735000001063632U9    YNYNA-E 006400630017
BI00B32U9    TPA215         202203107114-6041                TERMINAL                 CCN000003600000003600FN00000000020220401000003600NNM   20220214131417U9  4P0P  00000360000000580700000824232U9    YNYNA-E 006400630015
BI00B32U9    TPA215         202203107289-0269                HOUSING SUB ASSEMBLY     CCN000001600000001600FN00000000020220401000001600NNM   20220214131417U9  1N0N  00000160000001002100001234532U9    YNYNA-E 005500360039
BI00B32U9    TPA215         202203107114-1670-02             TERMINAL                 CCN000024000000024000FN00000000020220401000024000NNM   20220214131417U9  1P0P  00002400000000357600000645832U9    YNYNA-E 006400630015
BI00B32U9    TPA215         202203107114-4231-02             TERMINAL                 CCN000018000000018000FN00000000020220401000018000NNM   20220214131417U9  4P0P  00001800000000554400000848032U9    YNYNA-E 006400630015
BI00B32U9    TPA215         202203107116-1257-02             TERMINAL                 CCN000048000000048000FN00000000020220401000048000NNM   20220214131417U9  1P0P  00002400000000518400000847132U9    YNYNA-E 006400630017
BI00B32U9    TPA215         202203107116-2951-02             TERMINAL                 CCN000081000000081000FN00000000020220401000081000NNM   20220214131417U9  4P0P  00000540000000817600001111832U9    YNYNA-E 006400630015
BI00B32U9    TPA215         202203107116-4231-02             TERMINAL                 CCN000182000000182000FN00000000020220401000182000NNM   20220214131417U9  4P0P  00002600000000683800001012532U9    YNYNA-E 006400630017
BI00B32U9    TPA215         202203107158-3006-90             RUBBER STOPPER           CCN000060000000060000FN00000000020220401000060000NNM   20220214131417U9  1C0C  00002000000000330600000386032U9    YNYNA-E 002700430014
BI00B32U9    TPA215         202203107158-3166-60             WIRE SEAL                CCN000920000000920000FN00000000020220401000920000NNM   20220214131417U9  1C0C  00004000000000104000000152432U9    YNYNA-E 002700430014
BI00B32U9    TPA215         202203107158-3167-80             WIRE SEAL                CCN000440000000440000FN00000000020220401000440000NNM   20220214131417U9  1C0C  00002000000000048000000109032U9    YNYNA-E 002700430014
BI00B32U9    TPA215         202203107158-3168-80             SEALED                   CCN000200000000200000FN00000000020220401000200000NNM   20220214131417U9  1C0C  00002000000000044000000092132U9    YNYNA-E 004300260014
BI00B32U9    TPA215         202203107158-3169-40             SEALING PLUG             CCN000520000000520000FN00000000020220401000520000NNM   20220214131417U9  1C0C  00004000000000156000000204132U9    YNYNA-E 004300260014
BI00B32U9    TPA215         202203107172-5540-80             SEALED WIRE SEAL         CCN000040000000040000FN00000000020220401000040000NNM   20220214131417U9  1C0C  00002000000000186000000234432U9    YNYNA-E 004300270014
BI00B32U9    TPA215         202203107196-0805-02             TERMINAL FEMALE          CCN000022500000022500FN00000000020220401000022500NNM   20220214131417U9  4P0P  00002250000000558000000843232U9    YNYNA-E 006400630015
BI00B32U9    TPA215         202203107222-4220-30             CONNECTOR                CCN000003750000003750FN00000000020220401000003750NNM   20220214131417U9  4N0N  00000075000001219000001384032U9    YNYNA-E 005600390040
BI00B32U9    TPA215         202203107282-5574-10             CONNECTOR                CCN000036800000036800FN00000000020220401000036800NNM   20220214131417U9  4N0N  00000080000001235000001423032U9    YNYNA-E 005600390040
BI00B32U9    TPA215         202203107282-5684-10             CONNECTOR                CCN000003600000003600FN00000000020220401000003600NNM   20220214131417U9  4N0N  00000120000001477000001656032U9    YNYNA-E 005600390040
BI00B32U9    TPA215         202203107283-3698-30             UNSEALED FEMALE          CCN000001540000001540FN00000000020220401000001540NNM   20220214131417U9  4N0N  00000154000000954800001150832U9    YNYNA-E 005400370024
BI00B32U9    TPA215         202203107283-5623-60             CONNECTOR                CCN000003200000003200FN00000000020220401000003200NNM   20220214131417U9  1N0N  00000160000001546000001846332U9    YNYNA-E 005600390040
BI00B32U9    TPA215         202203107289-4212-80             SEALED HOUSING ASS'Y     CCN000002000000002000FN00000000020220401000002000NNM   20220214131417U9  4N0N  00000200000000848600000978632U9    YNYNA-E 005400370024
BI00B32U9    TPA215         202203107298-1186-40             SQUIB SUB ASS'Y          CCN000010000000010000FN00000000020220401000010000NNM   20220214131417U9  4N0N  00001000000000650000000774532U9    YNYNA-E 005400370024
BI00B32U9    TPA215         202203107298-1187-30             SHUNT RING ASSEMBLY      CCN000010000000010000FN00000000020220401000010000NNM   20220214131417U9  4N0N  00001000000000647000000769532U9    YNYNA-E 005400370024
BI00B32U9    TPA215         202203107B58-3070-80             RUBBER STOPPER           CCN000080000000080000FN00000000020220401000080000NNM   20220214131417U9  1C0C  00004000000000276000000333032U9    YNYNA-E 004300270014
BI00B32U9    #TPA215        202203107135-6177                GROMMET                  CCN000002800000002800FN00000000020220401000002800NNM   20220214131414U9  2H0H  00000020000001139600001249632U9    YNYNA-E 005600390040
BI00B32U9    #TPA215        202203107147-9094                RETAINER                 CCN000018000000018000FN00000000020220401000018000NNM   20220214131414U9  2F0F  00000300000000717000000872932U9    YNYNA-E 005500360039
BI00B32U9    #TPA215        202203107157-3646                RUBBER STOPPER           CCN000040000000040000FN00000000020220401000040000NNM   20220214131414U9  2H0H  00002000000000184000000255232U9    YNYNA-E 002700430014
BI00B32U9    #TPA215        202203107157-7812                SEAL RUBBER              CCN000010000000010000FN00000000020220401000010000NNM   20220214131414U9  2C0C  00001000000000137000000202032U9    YNYNA-E 002700430014
BI00B32U9    #TPA215        202203107047-1611-30             CLIP                     CCN000002000000002000FN00000000020220401000002000NNM   20220214131414U9  2F0F  00000200000001600000001739032U9    YNYNA-E 005600390040
BI00B32U9    #TPA215        202203107157-3790-90             WIRE SEAL                CCN000020000000020000FN00000000020220401000020000NNM   20220214131414U9  2C0C  00002000000000176000000232732U9    YNYNA-E 002700430014
BI00B32U9    #TPA215        202203107158-3376-50             CONNECTOR WIRE SEAL      CCN000100000000100000FN00000000020220401000100000NNM   20220214131414U9  2C0C  00002000000000184000000240732U9    YNYNA-E 002700430014
BI00B32U9    #TPA215        202203107282-6446-40             CONNECTOR                CCN000007500000007500FN00000000020220401000007500NNM   20220214131414U9  2N0N  00000150000001185000001368032U9    YNYNA-E 005500360039
BI00B32U9    #TPA215        202203107282-8395-40             CONNECTOR                CCN000002000000002000FN00000000020220401000002000NNM   20220214131414U9  2N0N  00000100000001009000001188032U9    YNYNA-E 005500360039
BI00B32U9    #TPA215        202203107283-8397-40             CONNECTOR                CCN000009240000009240FN00000000020220401000009240NNM   20220214131414U9  2N0N  00000154000001007000001222732U9    YNYNA-E 005600390023
BI00B32W4    4500182472     202202237289-9553-50             SEALED ASSY FEMALE       CCN000094080000035280FN00000000020220201000035280NNEQ0020220214155104W4564N0N  00000294000001108100001520632W456  HJYHK   005500360039
BI00B32W4    4500186225     202204057158-3166-60             WIRE SEAL                CCN000040000000040000FN00000000020220201000040000NNED0020220214121549W41 1C0C  00004000000000104000000152432W41   HJYHK   002700430014
BI00B32W4    4500186728     202203017158-3167-80             WIRE SEAL                CCN000100000000000000FY00000000020220301000000000NNEQ0820220214083550W41 1C0C  00002000000000048000000109032W41   HJYHK   002700430014
BI00B32W4    4500186728     202204057158-3169-40             SEALING PLUG             CCN000120000000120000FN00000000020220301000120000NNED0020220214121549W41 1C0C  00004000000000156000000204132W41   HJYHK   004300260014
BI00B32W4    #4500186728    202204057172-5938-80             SEALED                   CCN000020000000020000FN00000000020220301000020000NNED0020220214121549W41 2H0H  00000500000000442500000490732W41   HJYHK   004300270014
BI00B32W4    #4500186786    202203037123-6423-30             CONNECTOR                CCN000004000000004000FN00000000020220201000004000NNED0020220214121549W48 2F0F  00000200000001002000001167632W48   HJYHK   005600390023
BI00B32W4    #4500187068    202203107123-6423-30             CONNECTOR                CCN000004000000004000FN00000000020220201000004000NNED0020220214121549W48 2F0F  00000200000001002000001167632W48   HJYHK   005600390023
BI00B32W4    4500187939     202203157158-3167-80             WIRE SEAL                CCN000400000000000000FY00000000020220301000000000NNEQ0820220214083604W41 1C0C  00002000000000048000000109032W41   HJYHK   002700430014
BI00A32W4    4500189189     202204117116-4100-02             TERMINAL                 CCN000210000000210000FN00000000020220401000210000NNE   20220214121549W4664P0P  00001500000000696000000990232W466  HJYHK   006400630015
BI00A32W4    4500189189     202204117116-4112-02             TERMINAL                 CCN000018000000018000FN00000000020220401000018000NNE   20220214121549W4664P0P  00000600000000450000000738232W466  HJYHK   006400630015
BI00A32W4    4500189189     202204117116-4102-02             TERMINAL                 CCN000084000000084000FN00000000020220401000084000NNE   20220214121549W4664P0P  00001200000000553200000841432W466  HJYHK   006400630015
BI00A32W4    4500189189     202204117114-4100-02             TERMINAL                 CCN000162000000162000FN00000000020220401000162000NNE   20220214121549W4664P0P  00001800000000748800001077432W466  HJYHK   006400630017
BI00A32W4    4500189189     202204117116-5045-02             TERMINAL                 CCN000016000000016000FN00000000020220401000016000NNE   20220214121549W4664P0P  00001600000000678400001007132W466  HJYHK   006400630017
BI00A32W4    4500189189     202204117114-4111-02             TERMINAL                 CCN000024000000024000FN00000000020220401000024000NNE   20220214121549W4664P0P  00001200000000758400001087032W466  HJYHK   006400630017
BI00A32W4    4500189189     202204117116-4101-02             TERMINAL                 CCN000060000000060000FN00000000020220401000060000NNE   20220214121549W4664P0P  00001200000000582000000876232W466  HJYHK   006400630015
BI00A32W4    4500189189     202204117114-4101-02             TERMINAL                 CCN000045000000045000FN00000000020220401000045000NNE   20220214121549W4664P0P  00001500000000675000001003632W466  HJYHK   006400630017
BI00A32W4    4500189189     202204117116-4104-02             TERMINAL                 CCN000048000000048000FN00000000020220401000048000NNE   20220214121549W4664P0P  00001200000000580800000972432W466  HJYHK   006400630015
BI00A32W4    4500189189     202204117114-4110-02             TERMINAL                 CCN000015000000015000FN00000000020220401000015000NNE   20220214121549W4664P0P  00001500000000901500001230132W466  HJYHK   006400630017
BI00A32W4    4500189189     202204117116-4110-02             TERMINAL                 CCN000036000000036000FN00000000020220401000036000NNE   20220214121549W4664P0P  00000900000000594000000882232W466  HJYHK   006400630015
BI00A32W4    4500189189     202204117116-4103-02             TERMINAL                 CCN000012000000012000FN00000000020220401000012000NNE   20220214121549W4664P0P  00001200000000571200000859432W466  HJYHK   006400630015
BI00A32W4    #4500189189    202204117282-4190-30             CONNECTOR                CCN000000720000000720FN00000000020220401000000720NNE   20220214121549W4662N0N  00000024000000801000001071332W466  HJYHK   005600390040
BI00A32W4    #4500189189    202204117283-4190-30             CONNECTOR                CCN000002880000002880FN00000000020220401000002880NNE   20220214121549W4662N0N  00000024000000846000001115532W466  HJYHK   005600390040
BI00A32W4    4500189197     202203177116-4103-02             TERMINAL                 CCN000012000000012000FN00000000020220301000012000NNE   20220214121549W4804P0P  00001200000000571200000859432W480  HJYHK-J 006400630015
BI00A32W4    4500189198     202203107116-4124-02             TERMINAL                 CCN000003000000003000FN00000000020220301000003000NNE   20220214121549W4804P0P  00000300000000459900000753532W480  HJYHK-J 006400630015
BI00A32W4    #4500189199    202203177123-6347                CONNECTOR HOUSING        CCN000003200000003200FN00000000020220301000003200NNE   20220214121549W4802F0F  00000160000000647000000904832W480  HJYHK-J 005500360039
BI00B32W4    4500189209     202203177114-4100-02             TERMINAL                 CCN000324000000324000FN00000000020220301000324000NNE   20220214121549W4L84P0P  00001800000000748800001077432W4L8  HJYHK-J 006400630017
BI00B32W4    4500189209     202203177116-2951-02             TERMINAL                 CCN000081000000081000FN00000000020220301000081000NNE   20220214121549W4L84P0P  00000540000000817600001111832W4L8  HJYHK-J 006400630015
BI00B32W4    #4500189209    202203177283-8398-40             CONNECTOR                CCN000024640000024640FN00000000020220301000024640NNE   20220214121549W4L82N0N  00000154000001007000001171332W4L8  HJYHK-J 005600390023
BI00B32W4    4500189219     202204057116-1180                TERMINAL                 CCN000156000000156000FN00000000020220401000156000NNE   20220214121549W41 1P0P  00001950000000618200000903432W41   HJYHK   006400630015
BI00B32W4    4500189219     202204057158-3166-60             WIRE SEAL                CCN000040000000040000FN00000000020220401000040000NNE   20220214121549W41 1C0C  00004000000000104000000152432W41   HJYHK   002700430014
BI00B32W4    4500189231     202204057017-1181-02             TERMINAL                 CCN000063000000063000FN00000000020220401000063000NNE   20220214121549W41 4P0P  00006300000001089900001266832W41   HJYHK   005100280028
BI00B32W4    4500189231     202204057017-1180-02             TERMINAL                 CCN000144000000144000FN00000000020220401000144000NNE   20220214121549W41 4P0P  00007200000001065600001229032W41   HJYHK   005100280028
BI00B32W4    4500189231     202204057283-8630                CONNECTOR ASS'Y          CCN000030000000030000FN00000000020220401000030000NNE   20220214121549W41 4N0N  00000600000000540000000701332W41   HJYHK   005400370024
BI00B32W4    4500189231     202204057114-1670-02             TERMINAL                 CCN000024000000024000FN00000000020220401000024000NNE   20220214121549W41 1P0P  00002400000000357600000645832W41   HJYHK   006400630015
BI00B32W4    4500189231     202204057158-3166-60             WIRE SEAL                CCN000160000000160000FN00000000020220401000160000NNE   20220214121549W41 1C0C  00004000000000104000000152432W41   HJYHK   002700430014
BI00B32W4    4500189237     202202287116-1685                TERMINAL                 CCN000024000000024000FN00000000020220301000024000NNE   20220214121549W45 4P0P  00002400000000892800001067232W45   HJYHK   005100280028
BI00A32W4    4500189239     202203177116-6041                TERMINAL                 CCN000027000000027000FN00000000020220301000027000NNE   20220214121549W4324P0P  00000450000000716000001009632W432  HJYHK   006400630015
BI00B32W4    4500189246     202204077116-4120-02             TERMINAL                 CCN000006000000006000FN00000000020220401000006000NNE   20220214121549W48 4P0P  00000600000000780000001073632W48   HJYHK   006400630015
BI00B32W4    4500189246     202204077116-1230                TERMINAL                 CCN000013500000013500FN00000000020220401000013500NNE   20220214121549W48 4P0P  00001350000000664200000952432W48   HJYHK   006400630015
BI00B32W4    4500189246     202204077116-4025                TERMINAL                 CCN000032000000032000FN00000000020220401000032000NNE   20220214121549W48 4P0P  00001600000000644800000975132W48   HJYHK   006400630017
BI00B32W4    4500189246     202204077116-4121-02             TERMINAL                 CCN000031500000031500FN00000000020220401000031500NNE   20220214121549W48 4P0P  00000450000000618800000912432W48   HJYHK   006400630015
BI00B32W4    4500189246     202204077158-3165-90             WIRE SEAL                CCN000040000000040000FN00000000020220401000040000NNE   20220214121549W48 1C0C  00004000000000124000000172432W48   HJYHK   004300270014
BI00B32W4    4500189246     202204077158-3006-90             RUBBER STOPPER           CCN000020000000020000FN00000000020220401000020000NNE   20220214121549W48 1C0C  00002000000000330600000386032W48   HJYHK   002700430014
BI00B32W4    4500189246     202204077158-3166-60             WIRE SEAL                CCN000080000000080000FN00000000020220401000080000NNE   20220214121549W48 1C0C  00004000000000104000000152432W48   HJYHK   002700430014
BI00B32W4    #4500189246    202204077158-3121-80             WIRE SEAL                CCN000040000000040000FN00000000020220401000040000NNE   20220214121549W48 2C0C  00002000000000118000000187332W48   HJYHK   002700430014
BI00B32W4    #4500189246    202204077123-6423-30             CONNECTOR                CCN000004000000004000FN00000000020220401000004000NNE   20220214121549W48 2F0F  00000200000001002000001167632W48   HJYHK   005600390023
BI00B32W4    #4500189246    202204077158-3004-40             RUBBER STOPPER           CCN000020000000020000FN00000000020220401000020000NNE   20220214121549W48 2C0C  00002000000000234000000306332W48   HJYHK   002700430014
BI00B32W4    @4500189246    202204077123-4312-80             HOUSING                  CCN000004000000004000FN00000000020220401000004000NNE   20220214121549W48 3F0F  00000080000000644200000794032W48   HJYHK   005500360039
BI00B32W4    4500189247     202204077116-4122-02             TERMINAL                 CCN000004500000004500FN00000000020220401000004500NNE   20220214121549W48 4P0P  00000450000000656600000950232W48   HJYHK   006400630015
BI00B32W4    4500189247     202204077158-3165-90             WIRE SEAL                CCN000080000000080000FN00000000020220401000080000NNE   20220214121549W48 1C0C  00004000000000124000000172432W48   HJYHK   004300270014
BI00B32W4    4500189247     202204077222-6244-40             CONNECTOR                CCN000004000000004000FN00000000020220401000004000NNE   20220214121549W48 4N0N  00000080000001239200001422032W48   HJYHK   005600390040
BI00B32W4    4500189247     202204077289-7615-30             HOUSING FEMALE ASS'Y     CCN000003520000003520FN00000000020220401000003520NNE   20220214121549W48 4N0N  00000032000000738000000948032W48   HJYHK   005400370024
BI00B32W4    4500189247     202204077172-1372-10             FRONT HOLDER             CCN000003900000003900FN00000000020220401000003900NNE   20220214121549W48 4F0F  00000390000000655200000955232W48   HJYHK   005500360039
BI00B32W4    #4500189247    202204077157-3952-80             RUBBER STOPPER           CCN000010000000010000FN00000000020220401000010000NNE   20220214121549W48 2C0C  00001000000000117000000175032W48   HJYHK   002700430014
BI00A32W4    4500189249     202203287116-4112-02             TERMINAL                 CCN000006000000006000FN00000000020220301000006000NNE   20220214121549W4N24P0P  00000600000000450000000738232W4N2  HJYHK-J 006400630015
BI00A32W4    4500189249     202203287116-4110-02             TERMINAL                 CCN000009000000009000FN00000000020220301000009000NNE   20220214121549W4N24P0P  00000900000000594000000882232W4N2  HJYHK-J 006400630015
BI00A32W4    4500189249     202203287116-4111-02             TERMINAL                 CCN000015000000015000FN00000000020220301000015000NNE   20220214121549W4N24P0P  00000750000000529500000817732W4N2  HJYHK-J 006400630015
BI00B32W4    4500189250     202203317158-3165-90             WIRE SEAL                CCN000080000000080000FN00000000020220301000080000NNE   20220214121549W48 1C0C  00004000000000124000000172432W48   HJYHK   004300270014
BI00B32W4    4500189251     202203247158-3165-90             WIRE SEAL                CCN000080000000080000FN00000000020220301000080000NNE   20220214121549W48 1C0C  00004000000000124000000172432W48   HJYHK   004300270014
BI00B32W4    4500189252     202203177158-3165-90             WIRE SEAL                CCN000040000000040000FN00000000020220301000040000NNE   20220214121549W48 1C0C  00004000000000124000000172432W48   HJYHK   004300270014
BI00B32W4    #4500189252    202203177158-3003-90             RUBBER STOPPER           CCN000040000000040000FN00000000020220301000040000NNE   20220214121549W48 2C0C  00002000000000250000000306032W48   HJYHK   002700430014
BI00B32W4    4500189253     202203107116-4103-02             TERMINAL                 CCN000012000000012000FN00000000020220301000012000NNE   20220214121549W48 4P0P  00001200000000571200000859432W48   HJYHK   006400630015
BI00A32W4    4500189262     202204047114-4112-02             TERMINAL                 CCN000009000000009000FN00000000020220401000009000NNE   20220214121549W4N24P0P  00000900000000598500000927132W4N2  HJYHK-J 006400630017
BI00A32W4    4500189262     202204047114-4111-02             TERMINAL                 CCN000012000000012000FN00000000020220401000012000NNE   20220214121549W4N24P0P  00001200000000758400001087032W4N2  HJYHK-J 006400630017
BI00A32W4    4500189262     202204047116-4102-02             TERMINAL                 CCN000048000000048000FN00000000020220401000048000NNE   20220214121549W4N24P0P  00001200000000553200000841432W4N2  HJYHK-J 006400630015
BI00A32W4    4500189274     202204117116-4025                TERMINAL                 CCN000016000000016000FN00000000020220401000016000NNE   20220214121549W4N24P0P  00001600000000644800000975132W4N2  HJYHK-J 006400630017
BI00A32W4    4500189274     202204117114-4100-02             TERMINAL                 CCN000018000000018000FN00000000020220401000018000NNE   20220214121549W4N24P0P  00001800000000748800001077432W4N2  HJYHK-J 006400630017
BI00A32W4    4500189297     202203077116-4112-02             TERMINAL                 CCN000006000000006000FN00000000020220301000006000NNE   20220214121549W4334P0P  00000600000000450000000738232W433  HJYHK   006400630015
BI00A32W4    4500189299     202203147116-4112-02             TERMINAL                 CCN000006000000006000FN00000000020220301000006000NNE   20220214121549W4334P0P  00000600000000450000000738232W433  HJYHK   006400630015
BI00A32W4    4500189301     202203147114-4100-02             TERMINAL                 CCN000018000000018000FN00000000020220301000018000NNE   20220214121549W4334P0P  00001800000000748800001077432W433  HJYHK   006400630017
BI00A32W4    4500189303     202203217116-4112-02             TERMINAL                 CCN000006000000006000FN00000000020220301000006000NNE   20220214121549W4334P0P  00000600000000450000000738232W433  HJYHK   006400630015
BI00A32W4    4500189303     202203217114-4100-02             TERMINAL                 CCN000018000000018000FN00000000020220301000018000NNE   20220214121549W4334P0P  00001800000000748800001077432W433  HJYHK   006400630017
BI00A32W4    4500189307     202203217116-4231-02             TERMINAL                 CCN000052000000052000FN00000000020220301000052000NNE   20220214121549W4334P0P  00002600000000683800001012532W433  HJYHK   006400630017
BI00A32W4    4500189307     202203217114-4100-02             TERMINAL                 CCN000018000000018000FN00000000020220301000018000NNE   20220214121549W4334P0P  00001800000000748800001077432W433  HJYHK   006400630017
BI00A32W4    4500189315     202203287116-4112-02             TERMINAL                 CCN000006000000006000FN00000000020220301000006000NNE   20220214121549W4334P0P  00000600000000450000000738232W433  HJYHK   006400630015
BI00B32W4    4500189317     202203037298-2278-30             HOUSING FEMALE ASS'Y     CCN000038400000038400FN00000000020220201000038400NNED0720220214121549W4284N0N  00000240000001091700001295432W428  HJYHK   005500360039
BI00B32W4    4500189319     202203317116-2951-02             TERMINAL                 CCN000016200000016200FN00000000020220301000016200NNE   20220214121549W4284P0P  00000540000000817600001111832W428  HJYHK   006400630015
BI00B32W4    #4500189319    202203317283-8397-40             CONNECTOR                CCN000003080000003080FN00000000020220301000003080NNE   20220214121549W4282N0N  00000154000001007000001222732W428  HJYHK   005600390023
BI00B32W4    #4500189319    202203317158-3374-90             CONNECTOR WIRE SEAL      CCN000020000000020000FN00000000020220301000020000NNE   20220214121549W4282H0H  00002000000000172000000229332W428  HJYHK   002700430014
BI00B32W4    4500189321     202204287298-1865-30             HOUSING FEMALE ASS'Y     CCN000019200000019200FN00000000020220401000019200NNE   20220214121549W4284N0N  00000240000001003200001204532W428  HJYHK   005500360039
BI00B32W4    4500189323     202204077116-4121-02             TERMINAL                 CCN000013500000013500FN00000000020220401000013500NNE   20220214121549W4374P0P  00000450000000618800000912432W437  HJYHK   006400630015
BI00B32W4    4500189331     202204287289-4696-30             HOUSING FEMALE ASS'Y     CCN000012000000012000FN00000000020220401000012000NNE   20220214121549W4284N0N  00000200000000913400001055432W428  HJYHK   005400370024
BI00B32W4    4500189332     202205057289-4696-30             HOUSING FEMALE ASS'Y     CCN000020000000020000FN00000000020220501000020000NNE   20220214121549W4284N0N  00000200000000913400001055432W428  HJYHK   005400370024
BI00A32W4    4500182472     202202217289-9553-50             SEALED ASSY FEMALE       CCN000058800000058800FN00000000020220201000058800NNEM0020220214160028W4564N0N  00000294000001108100001520632W456  HJYHK   005500360039
BI00B32W6    QA-22-C010     202202157289-3342                HOUSING FEMALE ASS'Y     PNY000014600000014600FN00000000020220201000014600NNE   20220214121549    1N0N  00000240000000686400000901432W6    SYSYA-WJ005500360039
BI00B32W9    4500189202     202203017283-7028-30             CONNECTOR                CCN000006000000006000FN00000000020220201000006000NNED0720220214121549W9  4N0N  00000300000001452000001681332W9    HKYHK   005600390040
BI00B32W9    4500189288     202203227287-7975-4W             SQUIB SUB ASS'Y          CCN000200000000200000FN00000000020220301000200000NNE   20220214121549W9  4N0N  00001000000000837000001017032W9    HKYHK   005400370024
BI00B32W9    4500189288     202203227172-5540-80             SEALED WIRE SEAL         CCN000300000000300000FN00000000020220301000300000NNE   20220214121549W9  1C0C  00002000000000186000000234432W9    HKYHK   004300270014
BI00B32W9    4500189288     202203227196-0805-02             TERMINAL FEMALE          CCN000225000000225000FN00000000020220301000225000NNE   20220214121549W9  4P0P  00002250000000558000000843232W9    HKYHK   006400630015
BI00B32W9    4500189288     202203227298-1145-4W             SQUIB SUB ASS'Y          CCN000100000000100000FN00000000020220301000100000NNE   20220214121549W9  4N0N  00001000000000787900000944932W9    HKYHK   005400370024
BI00B32W9    4500189288     202203227174-1849-70             COVER                    CCN000100000000100000FN00000000020220301000100000NNE   20220214121549W9  1F0F  00002500000000622500000761932W9    HKYHK   005400370024
BI00B32W9    4500189288     202203227289-3342-30             HOUSING FEMALE ASS'Y     CCN000012000000012000FN00000000020220301000012000NNE   20220214121549W9  1N0N  00000240000000686400000901432W9    HKYHK   005500360039
BI00B32W9    4500189288     202203227298-4094-10             HOUSING FEMALE ASS'Y     CCN000006760000006760FN00000000020220301000006760NNE   20220214121549W9  4N0N  00000338000001097400001358732W9    HKYHK   005400370024
BI00B32W9    #4500189288    202203227198-1373-60             HOUSING FEMALE           CCN000020000000020000FN00000000020220301000020000NNE   20220214121549W9  2F0F  00000200000000819400000947432W9    HKYHK   005400370024
BI00B32X5    TIB1049        202202187289-3342-30             HOUSING FEMALE ASS'Y     CCN000086400000086400FN00000000020220101000086400NNM00020220214160721X5  1N0N  00000240000000686400000901432X5    EPYNA-E 005500360039
BI00B32X5    TIB2018        202204017116-4037                TERMINAL                 CCN000024000000024000FN00000000020220601000024000NNM   20220214121549X5  4P0P  00000600000000600000000894232X5    EPYNA-E 006400630015
BI00B32X5    TIB2018        202204017270-8994                6P MODULE ASSEMBLY       CCN000001100000001100FN00000000020220601000001100NNM   20220214121549X5  4J0J  00000010000001098600001298632X5    EPYNA-E 005400370024
BI00B32X5    TIB2018        202204017288-6547                CONNECTOR MALE ASS'Y     CCN000014250000014250FN00000000020220601000014250NNM   20220214121549X5  4N0N  00000075000001205300001340332X5    EPYNA-E 005400370024
BI00B32X5    TIB2018        202204017289-3342                HOUSING FEMALE ASS'Y     CCN000024000000024000FN00000000020220601000024000NNM   20220214121549X5  1N0N  00000240000000686400000901432X5    EPYNA-E 005500360039
BI00B32X5    TIB2018        202204017114-4486-02             TERMINAL                 CCN000024000000024000FN00000000020220601000024000NNM   20220214121549X5  4P0P  00002400000000662400000956032X5    EPYNA-E 006400630015
BI00B32X5    TIB2018        202204017114-4624-02             TERMINAL                 CCN000024000000024000FN00000000020220601000024000NNM   20220214121549X5  4P0P  00002400000000895200001188832X5    EPYNA-E 006400630015
BI00B32X5    TIB2018        202204017116-1257-02             TERMINAL                 CCN000024000000024000FN00000000020220601000024000NNM   20220214121549X5  1P0P  00002400000000518400000847132X5    EPYNA-E 006400630017
BI00B32X5    TIB2018        202204017116-4486-02             TERMINAL                 CCN000168000000168000FN00000000020220601000168000NNM   20220214121549X5  4P0P  00002800000000666400000995132X5    EPYNA-E 006400630017
BI00B32X5    TIB2018        202204017116-5045-02             TERMINAL                 CCN000240000000240000FN00000000020220601000240000NNM   20220214121549X5  4P0P  00001600000000678400001007132X5    EPYNA-E 006400630017
BI00B32X5    TIB2018        202204017116-5046-02             TERMINAL                 CCN000060000000060000FN00000000020220601000060000NNM   20220214121549X5  4P0P  00001200000000544800000873532X5    EPYNA-E 006400630017
BI00B32X5    TIB2018        202204017137-3047-30             UNIT PACKING             CCN000007000000007000FN00000000020220601000007000NNM   20220214121549X5  1C0C  00000100000000170500000218932X5    EPYNA-E 002700430014
BI00B32X5    TIB2018        202204017172-5403-30             SEALED PACKING           CCN000020000000020000FN00000000020220601000020000NNM   20220214121549X5  1C0C  00000400000000653600000701732X5    EPYNA-E 004300270014
BI00B32X5    TIB2018        202204017196-1325-02             TERMINAL FEMALE          CCN000120000000120000FN00000000020220601000120000NNM   20220214121549X5  4P0P  00006000000000450000000778732X5    EPYNA-E 006400630017
BI00B32X5    TIB2018        202204017196-1326-02             TERMINAL FEMALE          CCN000240000000240000FN00000000020220601000240000NNM   20220214121549X5  4P0P  00006000000000456000000784732X5    EPYNA-E 006400630017
BI00B32X5    TIB2018        202204017196-1327-02             TERMINAL FEMALE          CCN000052000000052000FN00000000020220601000052000NNM   20220214121549X5  4P0P  00005200000000336000000739532X5    EPYNA-E 006400630017
BI00B32X5    TIB2018        202204017282-5574-10             CONNECTOR                CCN000011200000011200FN00000000020220601000011200NNM   20220214121549X5  4N0N  00000080000001235000001423032X5    EPYNA-E 005600390040
BI00B32X5    TIB2018        202204017289-3342-30             HOUSING FEMALE ASS'Y     CCN000019200000019200FN00000000020220601000019200NNM   20220214121549X5  1N0N  00000240000000686400000901432X5    EPYNA-E 005500360039
BI00B32X5    TIB2018        202204017289-3342-40             HOUSING FEMALE ASS'Y     CCN000012000000012000FN00000000020220601000012000NNM   20220214121549X5  1N0N  00000240000000686400000901432X5    EPYNA-E 005500360039
BI00B32X5    TIB2018        202204017289-5979-30             HOUSING FEMALE ASS'Y     CCN000002520000002520FN00000000020220601000002520NNM   20220214121549X5  1N0N  00000025200000854700001064732X5    EPYNA-E 005400370024
BI00B32X5    TIB2018        202204017296-0784-02             TERMINAL ALUMINIUM       CCN000096000000096000FN00000000020220601000096000NNM   20220214121549X5  4P0P  00002400000000480000000765232X5    EPYNA-E 006400630015
BI00B32X5    #TIB2018       202204017158-3017                RUBBER STOPPER           CCN000020000000020000FN00000000020220601000020000NNM   20220214121549X5  2C0C  00001000000000375500000435032X5    EPYNA-E 002700430014
BI00B32X5    #TIB2018       202204017287-9155                HOUSING FEMALE ASS'Y     CCN000007680000007680FN00000000020220601000007680NNM   20220214121549X5  2N0N  00000096000000853700001045232X5    EPYNA-E 005400370024
BI00B32X5    #TIB2018       202204017158-3005-80             RUBBER STOPPER           CCN000020000000020000FN00000000020220601000020000NNM   20220214121549X5  2H0H  00002000000000210000000268732X5    EPYNA-E 002700430014
BI00B32X5    #TIB2018       202204017158-3007-10             RUBBER STOPPER           CCN000180000000180000FN00000000020220601000180000NNM   20220214121549X5  2H0H  00002000000000308000000362732X5    EPYNA-E 002700430014
BI00B32X5    #TIB2018       202204017158-3008-80             RUBBER STOPPER           CCN000060000000060000FN00000000020220601000060000NNM   20220214121549X5  2C0C  00002000000000288000000343032X5    EPYNA-E 004300270014
BI00B32X5    #TIB2018       202204017172-5625-90             RUBBER STOPPER           CCN000060000000060000FN00000000020220601000060000NNM   20220214121549X5  2H0H  00002000000000082400000133832X5    EPYNA-E 004300270014
BI00B32X5    #TIB2018       202204017183-8253-40             HOUSING                  CCN000004800000004800FN00000000020220601000004800NNM   20220214121549X5  2F0F  00000240000000528000000805032X5    EPYNA-E 005500360039
BI00B32X5    #TIB2018       202204017189-2978-30             HOUSING FEMALE           CCN000007500000007500FN00000000020220601000007500NNM   20220214121549X5  2F0F  00000150000000966900001096932X5    EPYNA-E 005400370024
BI00B32X5    #TIB2018       202204017282-8395-40             CONNECTOR                CCN000004000000004000FN00000000020220601000004000NNM   20220214121549X5  2N0N  00000100000001009000001188032X5    EPYNA-E 005500360039
BI00B32X5    #TIB2018       202204017283-8397-40             CONNECTOR                CCN000003080000003080FN00000000020220601000003080NNM   20220214121549X5  2N0N  00000154000001007000001222732X5    EPYNA-E 005600390023
BI00B32X5    @TIB2018       202204017286-4098                CONNECTOR MALE ASS'Y     CCN000004800000004800FN00000000020220601000004800NNM   20220214121549X5  3N0N  00000160000000949100001163032X5    EPYNA-E 005500360039
BI00B32Y4    #STH32072      202204077283-8398-40             CONNECTOR                CCN000001540000001540FN00000000020220201000001540NNE   20220214121549    2N0N  00000154000001007000001171332Y4    BIYAB-I 005600390023
BI00B32Y4    #BTH32081      202203177158-3374-90             CONNECTOR WIRE SEAL      CCN000040000000040000FN00000000020220201000040000NNE   20220214121549    2H0H  00002000000000172000000229332Y4    BIYAB-I 002700430014
BI00B32Y4    #BTH32081      202203177158-3376-50             CONNECTOR WIRE SEAL      CCN000040000000040000FN00000000020220201000040000NNE   20220214121549    2C0C  00002000000000184000000240732Y4    BIYAB-I 002700430014
BI00B32Y4    #BTH32081      202203177283-8397-40             CONNECTOR                CCN000001540000001540FN00000000020220201000001540NNE   20220214121549    2N0N  00000154000001007000001222732Y4    BIYAB-I 005600390023
BI00B32Y4    MTH32081       202204077196-0104-02             TERMINAL                 CCN000038000000038000FN00000000020220201000038000NNE   20220214121549    4P0P  00003800000000570000000956432Y4    BIYAB-I 006400630017
BI00B32Y4    MTH32081       202204077289-4696-30             HOUSING FEMALE ASS'Y     CCN000004000000004000FN00000000020220201000004000NNE   20220214121549    4N0N  00000200000000913400001055432Y4    BIYAB-I 005400370024
BI00B32Y4    MTH32081       202204077289-5000                HOUSING FEMALE ASS'Y     CCN000008512000008512FN00000000020220201000008512NNE   20220214121549    1N0N  00000030400000549000000759032Y4    BIYAB-I 005400370024
BI00B32Y4    #MTH32081      202204077174-1164                COVER                    CCN000001600000001600FN00000000020220201000001600NNE   20220214121549    2F0F  00000080000000592000000712032Y4    BIYAB-I 005500360039
BI00B32Y6    STAP32061      202203037298-1145-4W             SQUIB SUB ASS'Y          CCN000020000000020000FN00000000020220601000020000NNMD0020220214121549    4N0N  00001000000000787900000944932Y6    BSYBL-S 005400370024
BI00B32Y6    STAP32061      202203037289-3342                HOUSING FEMALE ASS'Y     CCN000019200000019200FN00000000020220601000019200NNMD0020220214121549    1N0N  00000240000000686400000901432Y6    BSYBL-S 005500360039
BI00B32Y6    STAP32061      202203037289-3342-30             HOUSING FEMALE ASS'Y     CCN000026400000026400FN00000000020220601000026400NNMD0020220214121549    1N0N  00000240000000686400000901432Y6    BSYBL-S 005500360039
BI00B32Y6    STAP32061      202203037289-6868-30             SEALED ASSY FEMALE       CCN000010080000010080FN00000000020220601000010080NNMD0020220214121549    4N0N  00000252000000839200001119232Y6    BSYBL-S 005500360039
BI00B32Y6    STAP32061      202203037327-6731-3W             BATTERY FUSE             CCN000008640000004224FN00000000020220601000004224NNMD0020220214121549    4N0N  00000006400000697600000843032Y6    BSYBL-S 005400370024
BI00B32Y6    #STAP32061     202203037172-5629-80             RUBBER STOPPER           CCN000160000000160000FN00000000020220601000160000NNMD0020220214121549    2H0H  00002000000000060000000111132Y6    BSYBL-S 004300270014
BI00B32Y6    #STAP32061     202203037172-5630-40             RUBBER STOPPER           CCN000320000000320000FN00000000020220601000320000NNMD0020220214121549    2H0H  00002000000000044000000095132Y6    BSYBL-S 004300270014
BI00B32Y6    STAP32061      202203177327-6731-3W             BATTERY FUSE             CCN000004416000004416FN00000000020220601000004416NNMD0420220214121549    4N0N  00000006400000697600000843032Y6    BSYBL-S 005400370024
BI00A32Y8    TAIM22021A     202205067289-6547                HOUSING FEMALE ASS'Y     CCN000002400000002400FN00000000020220401000002400NNED0720220214121549Y8  1N0N  00000240000001152000001362032Y8    CLYCL   005500360039
