BI00B32G7    JW22034 MW     2022032418007703930              AVSS 0.5F B              CCN000003000000003000FN00000000020220301000003000NNM20 20220214161701    1W    00000150000000674000000000032G7    JIJAI   000000000000JA322022
BI00B32G7    JW22034 MW     2022032418007703990              AVSS 0.5F L              CCN000001500000001500FN00000000020220301000001500NNM20 20220214161701    1W    00000150000000674000000000032G7    JIJAI   000000000000JA322023
BI00B32G7    JW22034 MW     2022032418007703992              AVSS 0.5F V              CCN000001500000001500FN00000000020220301000001500NNM20 20220214161701    1W    00000150000000674000000000032G7    JIJAI   000000000000JA322024
BI00B32G7    @JW22034 MW    20220324181AD2002ZZ              CIVUSAS-S 0.35X2 B       CCN000023850000023850FN00000000020220301000023850NNM20 20220214162012    1W    00000045000001713700000000032G7    JIJAI   000000000000JA322005
BI00B32G7    @JW22034 MW    20220324181AD2008ZZ              CIVUSAS-S 0.5X2 B        CCN000007200000007200FN00000000020220301000007200NNM20 20220214162012    1W    00000040000002028000000000032G7    JIJAI   000000000000JA322004
BI00B32G7    @JW22034 MW    20220324181E48022ZZ              CAVSAS-S 0.5X2 GY        CCN000003600000003600FN00000000020220301000003600NNM20 20220214162012    1W    00000030000002561000000000032G7    JIJAI   000000000000JA322006
BI00B32G7    @JW22034 MW    20220324181E48024ZZ              CAVSAS-S 0.5X2 GY/R      CCN000002400000002400FN00000000020220301000002400NNM20 20220214162012    1W    00000030000002561000000000032G7    JIJAI   000000000000JA322007
BI00B32G7    @JW22034 MW    20220324181E48032ZZ              CAVSAS-S 0.3X2 GY/P      CCN000001400000001400FN00000000020220301000001400NNM20 20220214162012    1W    00000035000002008700000000032G7    JIJAI   000000000000JA322009
BI00B32G7    @JW22034 MW    20220324181E48040ZZ              CAVSAS-S 0.3X2 GY/V      CCN000009800000009800FN00000000020220301000009800NNM20 20220214162012    1W    00000035000002008700000000032G7    JIJAI   000000000000JA322010
BI00B32G7    @JW22034 MW    20220324181E48060ZZ              CAVSAS-S 0.5X2 GY/V      CCN000002100000002100FN00000000020220301000002100NNM20 20220214162012    1W    00000030000002561000000000032G7    JIJAI   000000000000JA322008
BI00B32G7    @JW22034LMW    20220324181AD2020ZZ              CIVUSAS-S 0.5X2 B(R,G)   CCN000000800000000800FN00000000020220301000000800NNM20 20220214162227    1W    00000040000002028000000000032G7    JIJAI   000000000000JL322002
BI00B32G7    @JW22034LMW    20220324181AD2021ZZ              CIVUSAS-S 0.35X2 B(L,GY) CCN000002250000002250FN00000000020220301000002250NNM20 20220214162227    1W    00000045000001714000000000032G7    JIJAI   000000000000JL322003
BI00B32G7    @JW22034LMW    20220324181AD2022ZZ              CIVUSAS-S 0.35X2 B(R,G)  CCN000000450000000450FN00000000020220301000000450NNM20 20220214162227    1W    00000045000001714000000000032G7    JIJAI   000000000000JL322004
BI00B32G7    JW22034MMW     202203241801W003930              IVSSH 0.5F B             CCN000003600000003600FN00000000020220301000003600NNM20 20220214163150    1W    00000180000000625000000000032G7    JIJAI   000000000000JM322012
BI00B32G7    JW22034MMW     202203241801W003940              IVSSH 0.5F W             CCN000001800000001800FN00000000020220301000001800NNM20 20220214163430    1W    00000180000000625000000000032G7    JIJAI   000000000000JM322017
BI00B32G7    JW22034MMW     202203241801W003943              IVSSH 0.5F W/B           CCN000001800000001800FN00000000020220301000001800NNM20 20220214163430    1W    00000180000000625000000000032G7    JIJAI   000000000000JM322018
BI00B32G7    JW22034MMW     202203241801W003950              IVSSH 0.5F R             CCN000005400000005400FN00000000020220301000005400NNM20 20220214163430    1W    00000180000000625000000000032G7    JIJAI   000000000000JM322016
BI00B32G7    JW22034MMW     202203241801W003952              IVSSH 0.5F P             CCN000001800000001800FN00000000020220301000001800NNM20 20220214163430    1W    00000180000000625000000000032G7    JIJAI   000000000000JM322015
BI00B32G7    JW22034MMW     202203241801W003960              IVSSH 0.5F G             CCN000001800000001800FN00000000020220301000001800NNM20 20220214163150    1W    00000180000000625000000000032G7    JIJAI   000000000000JM322013
BI00B32G7    JW22034MMW     202203241801W003990              IVSSH 0.5F L             CCN000025200000025200FN00000000020220301000025200NNM20 20220214163430    1W    00000180000000625000000000032G7    JIJAI   000000000000JM322014
BI00A32G7    JW22034MMW     202203241801W004030              IVSSH 0.75F B            CCN000002600000002600FN00000000020220301000002600NNM20 20220214163430    1W    00000130000000882000000000032G7    JIJAI   000000000000JM322019
BI00B32G7    JW22034MMW     202203241801W004050              IVSSH 0.75F R            CCN000003900000003900FN00000000020220301000003900NNM20 20220214163430    1W    00000130000000882000000000032G7    JIJAI   000000000000JM322020
BI00B32G7    JW22034MMW     202203241801W004070              IVSSH 0.75F Y            CCN000002600000002600FN00000000020220301000002600NNM20 20220214163430    1W    00000130000000882000000000032G7    JIJAI   000000000000JM322021
BI00B32G7    JW22034MMW     202203241801W006930              IVSSH 0.35F B            CCN000007500000007500FN00000000020220301000007500NNM20 20220214163150    1W    00000250000000452000000000032G7    JIJAI   000000000000JM322022
BI00B32G7    JW22034MMW     202203241801W006940              IVSSH 0.35F W            CCN000015000000015000FN00000000020220301000015000NNM20 20220214163150    1W    00000250000000452000000000032G7    JIJAI   000000000000JM322031
BI00B32G7    JW22034MMW     202203241801W006941              IVSSH 0.35F GY           CCN000002500000002500FN00000000020220301000002500NNM20 20220214163150    1W    00000250000000452000000000032G7    JIJAI   000000000000JM322025
BI00B32G7    JW22034MMW     202203241801W006943              IVSSH 0.35F W/B          CCN000002500000002500FN00000000020220301000002500NNM20 20220214163150    1W    00000250000000452000000000032G7    JIJAI   000000000000JM322032
BI00B32G7    JW22034MMW     202203031801W00695U              IVSSH 0.35F BE           CCN000002500000000000FY00000000020220301000000000NNM10 20220214105437    1W    00000250000000452000000000032G7    JIJAI   000000000000JM322023
BI00B32G7    JW22034MMW     202203241801W006950              IVSSH 0.35F R            CCN000002500000002500FN00000000020220301000002500NNM20 20220214163150    1W    00000250000000452000000000032G7    JIJAI   000000000000JM322029
BI00B32G7    JW22034MMW     202203241801W006952              IVSSH 0.35F P            CCN000007500000007500FN00000000020220301000007500NNM20 20220214163150    1W    00000250000000452000000000032G7    JIJAI   000000000000JM322028
BI00B32G7    JW22034MMW     202203241801W006960              IVSSH 0.35F G            CCN000005000000005000FN00000000020220301000005000NNM20 20220214163150    1W    00000250000000452000000000032G7    JIJAI   000000000000JM322024
BI00B32G7    JW22034MMW     202203241801W006961              IVSSH 0.35F LG           CCN000002500000002500FN00000000020220301000002500NNM20 20220214163150    1W    00000250000000452000000000032G7    JIJAI   000000000000JM322027
BI00B32G7    JW22034MMW     202203241801W006970              IVSSH 0.35F Y            CCN000012500000012500FN00000000020220301000012500NNM20 20220214163150    1W    00000250000000452000000000032G7    JIJAI   000000000000JM322033
BI00B32G7    JW22034MMW     202203241801W006990              IVSSH 0.35F L            CCN000015000000015000FN00000000020220301000015000NNM20 20220214163150    1W    00000250000000452000000000032G7    JIJAI   000000000000JM322026
BI00B32G7    JW22034MMW     202203241801W006992              IVSSH 0.35F V            CCN000015000000015000FN00000000020220301000015000NNM20 20220214163150    1W    00000250000000452000000000032G7    JIJAI   000000000000JM322030
