BI00A1200    7360T51815     202201177289-3342-90             HOUSING FEMALE ASS'Y     CCN000002400000002400FY00000240020210901000000000NNED0420220204111647    1N0N  0000024000000068640000090141200    YCYC    005500360039
BI00A1200    2399T51A24     202202077289-3342-30             HOUSING FEMALE ASS'Y     CCN000009600000009600FN00000000020211201000009600NNMD0420220204163054    1N0N  0000024000000068640000090141200    YCYC    005500360039
BI00B1200    2399T51A22     202203247289-5979-30             HOUSING FEMALE ASS'Y     CCN000016632000012348FN00000000020211201000012348NNMD0420220204121340    1N0N  0000002520000085470000106471200    YCYC    005400370024
BI00B1200    #2399T51C15    202202107289-4200-30             HOUSING FEMALE ASS'Y     CCN000050000000050000FN00000000020220101000050000NNMD0420220204121340    2N0N  0000020000000092600000102101200    YCYC    005400370024
BI00B1200    #8670T51C03    202202177172-5629-80             RUBBER STOPPER           CCN000020000000020000FN00000000020220301000020000NNED0420220204121340    2H0H  0000200000000006000000011111200    YCYC    004300270014
BI00B1200    #2399T52106    202203037154-5597-30             CASSETTE R/B             CCN000141600000141600FN00000000020220301000141600NNMD0220220204121340    2F0F  0000008000000073600000095201200    YCYC    005500360039
BI00B1200    #2399T52107    202203107154-5597-30             CASSETTE R/B             CCN000140800000140800FN00000000020220301000140800NNMD0220220204121340    2F0F  0000008000000073600000095201200    YCYC    005500360039
BI00B1200    #2399T52108    202203177154-5597-30             CASSETTE R/B             CCN000140800000140800FN00000000020220301000140800NNMD0220220204121340    2F0F  0000008000000073600000095201200    YCYC    005500360039
BI00B1200    #2399T52114    202202177289-4200-30             HOUSING FEMALE ASS'Y     CCN000090000000090000FN00000000020220301000090000NNMD0220220204121340    2N0N  0000020000000092600000102101200    YCYC    005400370024
BI00B1200    #2399T52115    202203177289-4200-30             HOUSING FEMALE ASS'Y     CCN000090000000090000FN00000000020220301000090000NNMD0220220204121340    2N0N  0000020000000092600000102101200    YCYC    005400370024
BI00B1200    #2399T52116    202203247289-4200-30             HOUSING FEMALE ASS'Y     CCN000090000000090000FN00000000020220301000090000NNMD0220220204121340    2N0N  0000020000000092600000102101200    YCYC    005400370024
BI00A1200    2399T51A22     202203147289-5979-30             HOUSING FEMALE ASS'Y     PCN000004032000004032FN00000000020211201000004032NNMM0020220204121340    1N0N  0000002520000085470000106471200    YCYC    005400370024
BI00B1200    #O022D50229    202203177154-7040                RELAY BLOCK              CCN000006000000006000FN00000000020220401000006000NNE   20220204121340    2F0F  0000030000000060300000074491200    YCYC    005500360039
BI00B1200    #O022D50230    202203177154-8273                RELAY BLOCK              CCN000003000000003000FN00000000020220401000003000NNE   20220204121340    2F0F  0000010000000052300000067251200    YCYC    005500360039
BI00B1200    #O022D50231    202203177154-5328-30             RELAY BLOCK              CCN000003000000003000FN00000000020220401000003000NNE   20220204121340    2F0F  0000010000000121200000136191200    YCYC    005600390040
BI00B1200    #7860T52206    202203037189-3031                HOUSING FEMALE           CCN000002400000002400FN00000000020220401000002400NNM   20220204121340    2F0F  0000024000000092880000136581200    YCYC    005500360039
BI00B1200    #7860T52207    202203107189-3031                HOUSING FEMALE           CCN000002400000002400FN00000000020220401000002400NNM   20220204121340    2F0F  0000024000000092880000136581200    YCYC    005500360039
BI00B1200    #7860T52208    202203247189-3031                HOUSING FEMALE           CCN000002400000002400FN00000000020220401000002400NNM   20220204121340    2F0F  0000024000000092880000136581200    YCYC    005500360039
BI00B1200    #Y022E50036    202204077174-1315-30             SEALED COVER             CCN000002400000002400FN00000000020220501000002400NNM   20220204121340    2F0F  0000008000000078200000090201200    YCYC    005500360039
BI00B1200    Y022E50037     202204077289-6524-30             HOUSING FEMALE ASS'Y     CCN000006240000006240FN00000000020220501000006240NNM   20220204121340    4N0N  0000002400000135120000166621200    YCYC    005500360039
BI00B1200    O022F50006     202205057116-4100-02             TERMINAL                 CCN000030000000030000FN00000000020220601000030000NNE   20220204121340    4P0P  0000150000000069600000099021200    YCYC    006400630015
BI00B1200    O022F50007     202205057116-4100-02             TERMINAL                 CCN000030000000030000FN00000000020220601000030000NNE   20220204121340    4P0P  0000150000000069600000099021200    YCYC    006400630015
BI00A1200    76995          202202237196-1482-02             TERMINAL FEMALE          CCN000048000000048000FN00000000020220201000048000NNE   20220204121340    4P0P  0000240000000042480000071001200    YCYC    006400630015
BI00A1200    76995          202202237195-1480-02             TERMINAL MALE            CCN000048000000048000FN00000000020220201000048000NNE   20220204121340    4P0P  0000240000000042240000071661200    YCYC    006400630015
BI00A1200    76995          202202237195-1934-02             TERMINAL MALE            CCN000048000000048000FN00000000020220201000048000NNE   20220204121340    4P0P  0000240000000080160000109521200    YCYC    006400630015
BI00A1200    76995          202202237196-1935-02             TERMINAL FEMALE          CCN000036000000036000FN00000000020220201000036000NNE   20220204121340    4P0P  0000180000000053460000081981200    YCYC    006400630015
BI00A1200    76995          202202237196-1936-02             TERMINAL FEMALE          CCN000013500000013500FN00000000020220201000013500NNE   20220204121340    4P0P  0000135000000044150000072671200    YCYC    006400630015
BI00A1200    76995          202202237196-1937-02             TERMINAL FEMALE          CCN000027000000027000FN00000000020220201000027000NNE   20220204121340    4P0P  0000135000000044690000073211200    YCYC    006400630015
BI00A1200    76995          202202237196-1934-02             TERMINAL FEMALE          CCN000039000000039000FN00000000020220201000039000NNE   20220204121340    4P0P  0000195000000056160000084681200    YCYC    006400630015
BI00A1200    76995          202202237195-1935-02             TERMINAL MALE            CCN000039000000039000FN00000000020220201000039000NNE   20220204121340    4P0P  0000195000000067080000096441200    YCYC    006400630015
BI00A1200    76995          202202237195-1936-02             TERMINAL MALE            CCN000030000000030000FN00000000020220201000030000NNE   20220204121340    4P0P  0000150000000058950000088311200    YCYC    006400630015
BI00A1200    76995          202202237195-1937-02             TERMINAL MALE            CCN000030000000030000FN00000000020220201000030000NNE   20220204121340    4P0P  0000150000000059400000088761200    YCYC    006400630015
BI00A1200    76996          202202237196-1941-02             TERMINAL FEMALE          CCN000011400000011400FN00000000020220201000011400NNE   20220204121340    4P0P  0000114000000050620000079441200    YCYC    006400630015
BI00A1200    76996          202202237196-2024-02             TERMINAL FEMALE          CCY000008000000008000FN00000000020220201000008000NNEQ0820220204121340    4P0P  0000240000000091920000108261200    YCYC    005100280028
BI00A1200    76996          202202237196-2027-02             TERMINAL FEMALE          CCY000006000000006000FN00000000020220201000006000NNEQ0820220204121340    4P0P  0000180000000078300000094641200    YCYC    005100280028
BI00A1200    76996          202202237196-2030-02             TERMINAL FEMALE          CCN000015000000015000FN00000000020220201000015000NNE   20220204121340    4P0P  0000150000000100200000116541200    YCYC    005100280028
BI00A1200    76996          202202237196-2032-02             TERMINAL FEMALE          CCN000030000000030000FN00000000020220201000030000NNE   20220204121340    4P0P  0000150000000107100000123441200    YCYC    005100280028
BI00A1200    76996          202202237126-8889-02             FUSE TERMINAL            CCN000012000000012000FN00000000020220201000012000NNE   20220204121340    4P0P  0000060000000044820000073341200    YCYC    006400630015
BI00A1200    76996          202202237126-8890-02             FUSE TERMINAL            CCN000012000000012000FN00000000020220201000012000NNE   20220204121340    4P0P  0000060000000046500000075021200    YCYC    006400630015
BI00A1200    76996          202202237126-8891-02             FUSE TERMINAL            CCN000012000000012000FN00000000020220201000012000NNE   20220204121340    4P0P  0000060000000048180000076701200    YCYC    006400630015
BI00A1200    76996          202202237126-8892-02             FUSE TERMINAL            CCN000012000000012000FN00000000020220201000012000NNE   20220204121340    4P0P  0000060000000049500000078021200    YCYC    006400630015
BI00A1200    76996          202202237195-2046-02             TERMINAL MALE            CCN000016800000016800FN00000000020220201000016800NNE   20220204121340    4P0P  0000084000000081820000111181200    YCYC    006400630015
BI00B32DG    #RL2041        202203107116-4021                TERMINAL                 CCN000054000000054000FN00000000020220401000054000NNM   20220204162704    2F0P  00001350000000534600000868832DG    BFSAIBF 006400630015
BI00B32DG    #RL2042        202203177116-4021                TERMINAL                 CCN000054000000054000FN00000000020220401000054000NNM   20220204162704    2F0P  00001350000000534600000868832DG    BFSAIBF 006400630015
BI00B32DG    #RL2043        202203247116-4021                TERMINAL                 CCN000054000000054000FN00000000020220401000054000NNM   20220204162704    2F0P  00001350000000534600000868832DG    BFSAIBF 006400630015
BI00B32DG    #RL2044        202203317116-4021                TERMINAL                 CCN000027000000027000FN00000000020220401000027000NNM   20220204162704    2F0P  00001350000000534600000868832DG    BFSAIBF 006400630015
BI00B32DG    #RL2041        202203107183-6320                HOUSING                  CCN000004800000004800FN00000000020220401000004800NNM   20220204162704    2F0F  00000480000000820800001103632DG    BFSAIBF 005500360039
BI00B32DG    #RL2041        202203107183-2413-30             CONNECTOR HOUSING        CCN000004800000004800FN00000000020220401000004800NNM   20220204162704    2F0F  00000480000000477600000759532DG    BFSAIBF 005500360039
BI00B32DG    #RL2041        202203107114-4022                TERMINAL                 CCN000015000000015000FN00000000020220401000015000NNM   20220204162704    2F0P  00001500000000708000001120632DG    BFSAIBF 006400630015
BI00B32DG    #RL2042        202203177114-4022                TERMINAL                 CCN000015000000015000FN00000000020220401000015000NNM   20220204162704    2F0P  00001500000000708000001120632DG    BFSAIBF 006400630015
BI00B32DG    #RL2043        202203247114-4022                TERMINAL                 CCN000015000000015000FN00000000020220401000015000NNM   20220204162704    2F0P  00001500000000708000001120632DG    BFSAIBF 006400630015
BI00B32DG    #RL2044        202203317114-4022                TERMINAL                 CCN000015000000015000FN00000000020220401000015000NNM   20220204162704    2F0P  00001500000000708000001120632DG    BFSAIBF 006400630015
BI00B32DG    #RL2041        202203107158-3008-80             RUBBER STOPPER           CCN000020000000020000FN00000000020220401000020000NNM   20220204162704    2C0C  00002000000000288000000343032DG    BFSAIBF 004300270014
BI00B32DG    #RL2042        202203177158-3008-80             RUBBER STOPPER           CCN000020000000020000FN00000000020220401000020000NNM   20220204162704    2C0C  00002000000000288000000343032DG    BFSAIBF 004300270014
BI00B32DG    #RL2041        202203107158-3007-10             RUBBER STOPPER           CCN000020000000020000FN00000000020220401000020000NNM   20220204162704    2H0H  00002000000000308000000362732DG    BFSAIBF 002700430014
BI00B32DG    #RL2042        202203177158-3007-10             RUBBER STOPPER           CCN000020000000020000FN00000000020220401000020000NNM   20220204162704    2H0H  00002000000000308000000362732DG    BFSAIBF 002700430014
BI00B32DG    #RL2043        202203247158-3007-10             RUBBER STOPPER           CCN000020000000020000FN00000000020220401000020000NNM   20220204162704    2H0H  00002000000000308000000362732DG    BFSAIBF 002700430014
BI00B32DG    #RL2041        202203107189-3031                HOUSING FEMALE           CCN000002400000002400FN00000000020220401000002400NNM   20220204162704    2F0F  00000240000000928800001365832DG    BFSAIBF 005500360039
BI00B32DG    #RL2042        202203177189-3031                HOUSING FEMALE           CCN000002400000002400FN00000000020220401000002400NNM   20220204162704    2F0F  00000240000000928800001365832DG    BFSAIBF 005500360039
BI00B32DG    #RL2041        202203107282-5845                HOUSING MALE ASS'Y       CCN000004000000004000FN00000000020220401000004000NNM   20220204162704    2N0N  00000400000001068000001178032DG    BFSAIBF 005400370024
BI00B32DG    #RL2042        202203177282-5845                HOUSING MALE ASS'Y       CCN000004000000004000FN00000000020220401000004000NNM   20220204162704    2N0N  00000400000001068000001178032DG    BFSAIBF 005400370024
BI00B32DG    #RL2041        202203107282-1026                CONNECTOR HOUSING        CCN000004000000004000FN00000000020220401000004000NNM   20220204162704    2N0N  00000200000000696000000808532DG    BFSAIBF 005400370024
BI00B32DG    #RL2042        202203177282-1026                CONNECTOR HOUSING        CCN000004000000004000FN00000000020220401000004000NNM   20220204162704    2N0N  00000200000000696000000808532DG    BFSAIBF 005400370024
BI00B32DG    #RL2043        202203247282-1026                CONNECTOR HOUSING        CCN000004000000004000FN00000000020220401000004000NNM   20220204162704    2N0N  00000200000000696000000808532DG    BFSAIBF 005400370024
BI00B32DG    #RL2044        202203317282-1026                CONNECTOR HOUSING        CCN000002000000002000FN00000000020220401000002000NNM   20220204162704    2N0N  00000200000000696000000808532DG    BFSAIBF 005400370024
BI00B32DG    #RL2041        202203107158-3003-90             RUBBER STOPPER           CCN000020000000020000FN00000000020220401000020000NNM   20220204162704    2C0C  00002000000000250000000306032DG    BFSAIBF 002700430014
BI00B32DG    #RL2042        202203177158-3003-90             RUBBER STOPPER           CCN000020000000020000FN00000000020220401000020000NNM   20220204162704    2C0C  00002000000000250000000306032DG    BFSAIBF 002700430014
BI00B32DG    #RL2041        202203107282-3020                CONNECTOR                CCN000001000000001000FN00000000020220401000001000NNM   20220204162704    2N0N  00000100000000984000001145432DG    BFSAIBF 005500360039
BI00B32DG    #RL2042        202203177282-3020                CONNECTOR                CCN000001000000001000FN00000000020220401000001000NNM   20220204162704    2N0N  00000100000000984000001145432DG    BFSAIBF 005500360039
BI00B32DG    #RL2041        202203107183-2418                CONNECTOR HOUSING        CCN000004800000004800FN00000000020220401000004800NNM   20220204162704    2F0F  00000480000000917000001477032DG    BFSAIBF 005500360039
BI00B32D1    DFTC2216       202202247288-6547                CONNECTOR MALE ASS'Y     CCN000016500000016500FN00000000020220401000016500NNMD0020220204121340    4N0N  00000075000001205300001340332D1    TOYOT-K 005400370024
BI00B32D1    DFTC2216       202202247289-3342                HOUSING FEMALE ASS'Y     CCN000033600000033600FN00000000020220401000033600NNMD0020220204121340    1N0N  00000240000000686400000901432D1    TOYOT-K 005500360039
BI00B32D1    DFTC2216       202202247289-3342-30             HOUSING FEMALE ASS'Y     CCN000081600000024000FN00000000020220401000024000NNMD0020220204121340    1N0N  00000240000000686400000901432D1    TOYOT-K 005500360039
BI00B32D1    DFTC2216       202202247289-3342-40             HOUSING FEMALE ASS'Y     CCN000012000000012000FN00000000020220401000012000NNMD0020220204121340    1N0N  00000240000000686400000901432D1    TOYOT-K 005500360039
BI00B32D1    DFTC2216       202202247289-3342-90             HOUSING FEMALE ASS'Y     CCN000009600000009600FN00000000020220401000009600NNMD0020220204121340    1N0N  00000240000000686400000901432D1    TOYOT-K 005500360039
BI00A32D1    DFTC2216       202202247289-6547                HOUSING FEMALE ASS'Y     CCN000012000000012000FN00000000020220401000012000NNMD0020220204121340    1N0N  00000240000001152000001362032D1    TOYOT-K 005500360039
BI00B32D1    DFTC2216       202202247289-3342-30             HOUSING FEMALE ASS'Y     CCN000057600000057600FN00000000020220401000057600NNMD0020220204121340    1N0N  00000240000000686400000901432D1    TOYOT-K 005500360039
BI00B32D2    DGTC2218       202203107114-4032                TERMINAL                 CCN000030000000030000FN00000000020220501000030000NNM   20220204155945    4P0P  00000750000000735000001063632D2    TGYOT-G 006400630017
BI00B32D2    DGTC2218       202203107114-5748-02             TERMINAL                 CCN000048000000048000FN00000000020220501000048000NNM   20220204155945    4P0P  00001200000000444000000737632D2    TGYOT-G 006400630015
BI00B32D2    DGTC2218       202203107114-5753-02             TERMINAL                 CCN000108000000108000FN00000000020220501000108000NNM   20220204155945    4P0P  00002700000000847800001141432D2    TGYOT-G 006400630015
BI00B32D2    DGTC2218       202203107116-1685-02             TERMINAL                 CCN000024000000024000FN00000000020220501000024000NNM   20220204155945    4P0P  00002400000000897600001065232D2    TGYOT-G 005100280028
BI00B32D2    DGTC2218       202203107116-2891-02             TERMINAL                 CCN000045000000045000FN00000000020220501000045000NNM   20220204155945    4P0P  00001500000000982500001145932D2    TGYOT-G 005100280028
BI00B32D2    DGTC2218       202203107116-4104-02             TERMINAL                 CCN000012000000012000FN00000000020220501000012000NNM   20220204155945    4P0P  00001200000000580800000972432D2    TGYOT-G 006400630015
BI00B32D2    DGTC2218       202203107116-4486-02             TERMINAL                 CCN000140000000140000FN00000000020220501000140000NNM   20220204155945    4P0P  00002800000000666400000995132D2    TGYOT-G 006400630017
BI00B32D2    DGTC2218       202203107116-5045-02             TERMINAL                 CCN000064000000064000FN00000000020220501000064000NNM   20220204155945    4P0P  00001600000000678400001007132D2    TGYOT-G 006400630017
BI00B32D2    DGTC2218       202203107116-5046-02             TERMINAL                 CCN000108000000108000FN00000000020220501000108000NNM   20220204155945    4P0P  00001200000000544800000873532D2    TGYOT-G 006400630017
BI00B32D2    DGTC2218       202203107116-6042                TERMINAL                 CCN000066000000066000FN00000000020220501000066000NNM   20220204155945    4P0P  00000300000000523800000856132D2    TGYOT-G 006400630015
BI00B32D2    DGTC2218       202203107126-8853-02             TERMINAL                 CCN000135000000135000FN00000000020220501000135000NNM   20220204155945    4P0P  00000750000000562500000847732D2    TGYOT-G 006400630015
BI00B32D2    DGTC2218       202203107126-8854-02             TERMINAL                 CCN000112500000112500FN00000000020220501000112500NNM   20220204155945    4P0P  00000750000000604500000889732D2    TGYOT-G 006400630015
BI00B32D2    DGTC2218       202203107126-8855-02             TERMINAL                 CCN000162000000162000FN00000000020220501000162000NNM   20220204155945    4P0P  00000600000000510600000795832D2    TGYOT-G 006400630015
BI00B32D2    DGTC2218       202203107158-3070-80             RUBBER STOPPER           CCN000080000000080000FN00000000020220501000080000NNM   20220204155945    1C0C  00004000000000276000000333332D2    TGYOT-G 002700430014
BI00B32D2    DGTC2218       202203107158-3165-90             WIRE SEAL                CCN000040000000040000FN00000000020220501000040000NNM   20220204155945    1C0C  00004000000000124000000172432D2    TGYOT-G 004300270014
BI00B32D2    DGTC2218       202203107158-3166-60             WIRE SEAL                CCN000094000000120000FN00000000020220501000120000NNM   20220204155945    1C0C  00004000000000104000000152432D2    TGYOT-G 002700430014
BI00B32D2    DGTC2218       202203107158-3167-80             WIRE SEAL                CCN000120000000120000FN00000000020220501000120000NNM   20220204155945    1C0C  00002000000000048000000109032D2    TGYOT-G 002700430014
BI00B32D2    DGTC2218       202203107173-3291-40             LIF LEVER                CCN000014400000014400FN00000000020220501000014400NNM   20220204155945    1F0F  00000240000000867800001067832D2    TGYOT-G 005500360039
BI00B32D2    DGTC2218       202203107196-0396-02             TERMINAL                 CCN000015000000015000FN00000000020220501000015000NNM   20220204155945    4P0P  00001500000000949500001112932D2    TGYOT-G 002800510028
BI00B32D2    DGTC2218       202203107196-1325-02             TERMINAL FEMALE          CCN000420000000420000FN00000000020220501000420000NNM   20220204155945    4P0P  00006000000000450000000778732D2    TGYOT-G 006400630017
BI00B32D2    DGTC2218       202203107196-1326-02             TERMINAL FEMALE          CCN000720000000720000FN00000000020220501000720000NNM   20220204155945    4P0P  00006000000000456000000784732D2    TGYOT-G 006400630017
BI00B32D2    DGTC2218       202203107196-1327-02             TERMINAL FEMALE          CCN000052000000052000FN00000000020220501000052000NNM   20220204155945    4P0P  00005200000000336000000739532D2    TGYOT-G 006400630017
BI00B32D2    DGTC2218       202203107283-6388-40             CONNECTOR                CCN000002000000002000FN00000000020220501000002000NNM   20220204155945    4N0N  00000200000001029000001173532D2    TGYOT-G 005500360039
BI00B32D2    DGTC2218       202203107288-6547                CONNECTOR MALE ASS'Y     CCN000008250000008250FN00000000020220501000008250NNM   20220204155945    4N0N  00000075000001205300001340332D2    TGYOT-G 005400370024
BI00B32D2    DGTC2218       202203107289-3342                HOUSING FEMALE ASS'Y     CCN000067200000067200FN00000000020220501000067200NNM   20220204155945    1N0N  00000240000000686400000901432D2    TGYOT-G 005500360039
BI00B32D2    DGTC2218       202203107289-3342-30             HOUSING FEMALE ASS'Y     CCN000019200000019200FN00000000020220501000019200NNM   20220204155945    1N0N  00000240000000686400000901432D2    TGYOT-G 005500360039
BI00B32D2    DGTC2218       202203107289-3342-40             HOUSING FEMALE ASS'Y     CCN000014400000014400FN00000000020220501000014400NNM   20220204155945    1N0N  00000240000000686400000901432D2    TGYOT-G 005500360039
BI00B32D2    DGTC2218       202203107289-3342-90             HOUSING FEMALE ASS'Y     CCN000014400000014400FN00000000020220501000014400NNM   20220204155945    1N0N  00000240000000686400000901432D2    TGYOT-G 005500360039
BI00B32D2    DGTC2218       202203107289-6518-30             HOUSING FEMALE ASS'Y     CCN000013200000013200FN00000000020220501000013200NNM   20220204155945    1N0N  00000120000000829200001049232D2    TGYOT-G 005500360039
BI00B32D2    DGTC2218       202203107289-6547                HOUSING FEMALE ASS'Y     CCN000007200000007200FN00000000020220501000007200NNM   20220204155945    1N0N  00000240000001152000001362032D2    TGYOT-G 005500360039
BI00B32D2    DGTC2218       202203107296-0784-02             TERMINAL ALUMINIUM       CCN000072000000072000FN00000000020220501000072000NNM   20220204155945    4P0P  00002400000000480000000765232D2    TGYOT-G 006400630015
BI00B32D2    DGTC2218       202203107296-1020-02             TERMINAL ALUMINIUM       CCN000022500000022500FN00000000020220501000022500NNM   20220204155945    4P0P  00002250000000699800000985032D2    TGYOT-G 006400630015
BI00B32D2    DGTC2218       202203107327-6801-3W             BATTERY FUSE             CCN000006048000006048FN00000000020220501000006048NNM   20220204155945    4N0N  00000009600000928400001143432D2    TGYOT-G 005500360039
BI00B32D2    DGTC2218       202203107327-6803                MULTI FUSE               CCN000000560000000560FN00000000020220501000000560NNM   20220204155945    4N0N  00000056000000854600001067032D2    TGYOT-G 005400370024
BI00B32D2    DGTC2218       202203107327-6806                MULTI FUSE               CCN000006160000006160FN00000000020220501000006160NNM   20220204155945    4N0N  00000056000000851500001063932D2    TGYOT-G 005400370024
BI00B32D2    DGTC2218       202203107327-6809                MULTI FUSE               CCN000004480000004480FN00000000020220501000004480NNM   20220204155945    4N0N  00000056000000849300001061732D2    TGYOT-G 005400370024
BI00B32D2    DGTC2218       202203107327-6930                MULTI FUSE               CCN000005040000005040FN00000000020220501000005040NNM   20220204155945    4N0N  00000056000000848900001031932D2    TGYOT-G 005400370024
BI00B32D2    DGTC2218       202203107388-2978-30             HOUSING MALE ASS'Y       CCN000028320000028320FN00000000020220501000028320NNM   20220204155945    1N0N  00000048000000742000001122032D2    TGYOT-G 005500360039
BI00B32D2    #DGTC2218      202203107158-3003-90             RUBBER STOPPER           CCN000260000000260000FN00000000020220501000260000NNM   20220204155938    2C0C  00002000000000250000000306032D2    TGYOT-G 002700430014
BI00B32D2    #DGTC2218      202203107158-3005-80             RUBBER STOPPER           CCN000040000000040000FN00000000020220501000040000NNM   20220204155938    2H0H  00002000000000210000000268732D2    TGYOT-G 002700430014
BI00B32D2    #DGTC2218      202203107158-3008-80             RUBBER STOPPER           CCN000080000000080000FN00000000020220501000080000NNM   20220204155938    2C0C  00002000000000288000000343032D2    TGYOT-G 004300270014
BI00B32D2    #DGTC2218      202203107158-3015-10             RUBBER STOPPER           CCN000030000000030000FN00000000020220501000030000NNM   20220204155938    2C0C  00001000000000419500000474032D2    TGYOT-G 002700430014
BI00B32D2    #DGTC2218      202203107158-3017                RUBBER STOPPER           CCN000030000000030000FN00000000020220501000030000NNM   20220204155938    2C0C  00001000000000375500000435032D2    TGYOT-G 002700430014
BI00B32D2    #DGTC2218      202203107172-5625-90             RUBBER STOPPER           CCN000020000000020000FN00000000020220501000020000NNM   20220204155938    2H0H  00002000000000082400000133832D2    TGYOT-G 004300270014
BI00B32D2    #DGTC2218      202203107172-5627-60             RUBBER STOPPER           CCN000020000000020000FN00000000020220501000020000NNM   20220204155938    2H0H  00002000000000070400000121832D2    TGYOT-G 004300270014
BI00B32D2    #DGTC2218      202203107172-5629-80             RUBBER STOPPER           CCN000500000000500000FN00000000020220501000500000NNM   20220204155938    2H0H  00002000000000060000000111132D2    TGYOT-G 004300270014
BI00B32D2    #DGTC2218      202203107172-5630-40             RUBBER STOPPER           CCN000320000000320000FN00000000020220501000320000NNM   20220204155938    2H0H  00002000000000044000000095132D2    TGYOT-G 004300270014
BI00B32D2    #DGTC2218      202203107172-5631-60             RUBBER STOPPER           CCN000160000000160000FN00000000020220501000160000NNM   20220204155938    2H0H  00002000000000042000000093132D2    TGYOT-G 004300270014
BI00B32D2    #DGTC2218      202203107172-5632-10             DUMMY PLUG               CCN000180000000180000FN00000000020220501000180000NNM   20220204155938    2H0H  00002000000000080400000131832D2    TGYOT-G 004300270014
BI00B32D2    #DGTC2218      202203107189-2978-30             HOUSING FEMALE           CCN000025500000025500FN00000000020220501000025500NNM   20220204155938    2F0F  00000150000000966900001096932D2    TGYOT-G 005400370024
BI00B32D2    #DGTC2218      202203107189-3033                HOUSING FEMALE           CCN000009600000009600FN00000000020220501000009600NNM   20220204155938    2F0F  00000160000001211200001431232D2    TGYOT-G 005500360039
BI00B32D2    #DGTC2218      202203107189-3036                HOUSING FEMALE           CCN000003200000003200FN00000000020220501000003200NNM   20220204155938    2F0F  00000160000000921600001141632D2    TGYOT-G 005500360039
BI00B32D2    #DGTC2218      202203107189-3037                HOUSING FEMALE           CCN000004800000004800FN00000000020220501000004800NNM   20220204155938    2F0F  00000480000000806400001066432D2    TGYOT-G 005500360039
BI00B32D2    #DGTC2218      202203107189-3037-40             HOUSING FEMALE           CCN000004800000004800FN00000000020220501000004800NNM   20220204155938    2F0F  00000480000000901600001061632D2    TGYOT-G 005500360039
BI00B32D2    #DGTC2218      202203107283-8226-30             CONNECTOR                CCN000006000000006000FN00000000020220501000006000NNM   20220204155938    2N0N  00000200000000820000001008032D2    TGYOT-G 005400370024
BI00B32D2    #DGTC2218      202203107289-2912-40             HOUSING FEMALE ASS'Y     CCN000002000000002000FN00000000020220501000002000NNM   20220204155938    2N0N  00000200000000804000000931032D2    TGYOT-G 005400370024
BI00B32D2    #DGTC2218      202203107289-3622-30             HOUSING FEMALE ASS'Y     CCN000001728000001728FN00000000020220501000001728NNM   20220204155938    2N0N  00000043200000839400001038432D2    TGYOT-G 005400370024
BI00B32D2    #DGTC2218      202203107289-4200-30             HOUSING FEMALE ASS'Y     CCN000002000000002000FN00000000020220501000002000NNM   20220204155938    2N0N  00000200000000926000001021032D2    TGYOT-G 005400370024
BI00B32G2    SA2203B MW     202202237222-7923-40             CONNECTOR                CCN000000600000000600FN00000000020220301000000600NNE   20220204121340    4N0N  00000060000000937000001123032G2    AISUAI  005500360039
BI00B32G2    #SA2203B MW    202202237123-7923-40             CONNECTOR                CCN000001500000001500FN00000000020220301000001500NNE   20220204121340    2F0F  00000150000001492500001665932G2    AISUAI  005600390040
BI00B32G2    SA22041 MW     202203097017-1180-02             TERMINAL                 CCN000072000000072000FN00000000020220401000072000NNM   20220204121340    4P0P  00007200000001065600001229032G2    AISUAI  005100280028
BI00B32G2    SA22042 MW     202203167017-1180-02             TERMINAL                 CCN000072000000072000FN00000000020220401000072000NNM   20220204121340    4P0P  00007200000001065600001229032G2    AISUAI  005100280028
BI00B32G2    SA22043 MW     202203237017-1180-02             TERMINAL                 CCN000072000000072000FN00000000020220401000072000NNM   20220204121340    4P0P  00007200000001065600001229032G2    AISUAI  005100280028
BI00B32G2    SA22041 MW     202203097017-1181-02             TERMINAL                 CCN000063000000063000FN00000000020220401000063000NNM   20220204121340    4P0P  00006300000001089900001266832G2    AISUAI  005100280028
BI00B32G2    SA22041 MW     202203097017-1182-02             TERMINAL                 CCN000045000000045000FN00000000020220401000045000NNM   20220204121340    4P0P  00004500000001165500001318632G2    AISUAI  005100280028
BI00B32G2    SA22041 MW     202203097017-1183-02             TERMINAL                 CCN000027000000027000FN00000000020220401000027000NNM   20220204121340    4P0P  00002700000001139400001307432G2    AISUAI  005100280028
BI00B32G2    SA22042 MW     202203167017-1183-02             TERMINAL                 CCN000027000000027000FN00000000020220401000027000NNM   20220204121340    4P0P  00002700000001139400001307432G2    AISUAI  005100280028
BI00B32G2    SA22041 MW     202203097114-1470                TERMINAL                 CCN000016500000016500FN00000000020220401000016500NNM   20220204121340    4P0P  00001650000000544500000838732G2    AISUAI  006400630015
BI00B32G2    SA22041 MW     202203097114-4020                TERMINAL                 CCN000105000000105000FN00000000020220401000105000NNM   20220204121340    4P0P  00002100000000875700001169332G2    AISUAI  006400630015
BI00B32G2    SA22042 MW     202203167114-4020                TERMINAL                 CCN000063000000063000FN00000000020220401000063000NNM   20220204121340    4P0P  00002100000000875700001169332G2    AISUAI  006400630015
BI00B32G2    SA22043 MW     202203237114-4020                TERMINAL                 CCN000063000000063000FN00000000020220401000063000NNM   20220204121340    4P0P  00002100000000875700001169332G2    AISUAI  006400630015
BI00B32G2    SA22044 MW     202203307114-4020                TERMINAL                 CCN000042000000042000FN00000000020220401000042000NNM   20220204121340    4P0P  00002100000000875700001169332G2    AISUAI  006400630015
BI00B32G2    SA22041 MW     202203097114-4021                TERMINAL                 CCN000090000000090000FN00000000020220401000090000NNM   20220204121340    4P0P  00001500000000670500000964132G2    AISUAI  006400630015
BI00B32G2    SA22042 MW     202203167114-4021                TERMINAL                 CCN000060000000060000FN00000000020220401000060000NNM   20220204121340    4P0P  00001500000000670500000964132G2    AISUAI  006400630015
BI00B32G2    SA22043 MW     202203237114-4021                TERMINAL                 CCN000045000000045000FN00000000020220401000045000NNM   20220204121340    4P0P  00001500000000670500000964132G2    AISUAI  006400630015
BI00B32G2    SA22044 MW     202203307114-4021                TERMINAL                 CCN000030000000030000FN00000000020220401000030000NNM   20220204121340    4P0P  00001500000000670500000964132G2    AISUAI  006400630015
BI00B32G2    SA22041 MW     202203097114-4030                TERMINAL                 CCN000010500000010500FN00000000020220401000010500NNM   20220204121340    4P0P  00001050000000926100001254732G2    AISUAI  006400630017
BI00B32G2    SA22041 MW     202203097114-4032                TERMINAL                 CCN000007500000007500FN00000000020220401000007500NNM   20220204121340    4P0P  00000750000000735000001063632G2    AISUAI  006400630017
BI00B32G2    SA22042 MW     202203167114-4032                TERMINAL                 CCN000007500000007500FN00000000020220401000007500NNM   20220204121340    4P0P  00000750000000735000001063632G2    AISUAI  006400630017
BI00B32G2    SA22041 MW     202203097114-4231-02             TERMINAL                 CCN000018000000018000FN00000000020220401000018000NNM   20220204121340    4P0P  00001800000000554400000848032G2    AISUAI  006400630015
BI00B32G2    SA22042 MW     202203167114-4231-02             TERMINAL                 CCN000018000000018000FN00000000020220401000018000NNM   20220204121340    4P0P  00001800000000554400000848032G2    AISUAI  006400630015
BI00B32G2    SA22041 MW     202203097114-4486-02             TERMINAL                 CCN000024000000024000FN00000000020220401000024000NNM   20220204121340    4P0P  00002400000000662400000956032G2    AISUAI  006400630015
BI00B32G2    SA22041 MW     202203097114-4624-02             TERMINAL                 CCN000024000000024000FN00000000020220401000024000NNM   20220204121340    4P0P  00002400000000895200001188832G2    AISUAI  006400630015
BI00B32G2    SA22042 MW     202203167114-4624-02             TERMINAL                 CCN000024000000024000FN00000000020220401000024000NNM   20220204121340    4P0P  00002400000000895200001188832G2    AISUAI  006400630015
BI00B32G2    SA22043 MW     202203237114-4624-02             TERMINAL                 CCN000024000000024000FN00000000020220401000024000NNM   20220204121340    4P0P  00002400000000895200001188832G2    AISUAI  006400630015
BI00B32G2    SA22044 MW     202203307114-4624-02             TERMINAL                 CCN000024000000024000FN00000000020220401000024000NNM   20220204121340    4P0P  00002400000000895200001188832G2    AISUAI  006400630015
BI00B32G2    SA22041 MW     202203097114-4728-02             TERMINAL                 CCN000600000000600000FN00000000020220401000600000NNM   20220204121340    4P0P  00003000000000510000000804232G2    AISUAI  006400630015
BI00B32G2    SA22042 MW     202203167114-4728-02             TERMINAL                 CCN000540000000540000FN00000000020220401000540000NNM   20220204121340    4P0P  00003000000000510000000804232G2    AISUAI  006400630015
BI00B32G2    SA22043 MW     202203237114-4728-02             TERMINAL                 CCN000450000000450000FN00000000020220401000450000NNM   20220204121340    4P0P  00003000000000510000000804232G2    AISUAI  006400630015
BI00B32G2    SA22044 MW     202203307114-4728-02             TERMINAL                 CCN000270000000270000FN00000000020220401000270000NNM   20220204121340    4P0P  00003000000000510000000804232G2    AISUAI  006400630015
BI00B32G2    SA22041 MW     202203097114-4729-02             TERMINAL                 CCN000240000000240000FN00000000020220401000240000NNM   20220204121340    4P0P  00003000000000516000000810232G2    AISUAI  006400630015
BI00B32G2    SA22042 MW     202203167114-4729-02             TERMINAL                 CCN000180000000180000FN00000000020220401000180000NNM   20220204121340    4P0P  00003000000000516000000810232G2    AISUAI  006400630015
BI00B32G2    SA22043 MW     202203237114-4729-02             TERMINAL                 CCN000180000000180000FN00000000020220401000180000NNM   20220204121340    4P0P  00003000000000516000000810232G2    AISUAI  006400630015
BI00B32G2    SA22044 MW     202203307114-4729-02             TERMINAL                 CCN000120000000120000FN00000000020220401000120000NNM   20220204121340    4P0P  00003000000000516000000810232G2    AISUAI  006400630015
BI00B32G2    SA22041 MW     202203097114-5096-02             TERMINAL                 CCN000120000000120000FN00000000020220401000120000NNM   20220204121340    4P0P  00003000000000498000000792232G2    AISUAI  006400630015
BI00B32G2    SA22042 MW     202203167114-5096-02             TERMINAL                 CCN000090000000090000FN00000000020220401000090000NNM   20220204121340    4P0P  00003000000000498000000792232G2    AISUAI  006400630015
BI00B32G2    SA22043 MW     202203237114-5096-02             TERMINAL                 CCN000060000000060000FN00000000020220401000060000NNM   20220204121340    4P0P  00003000000000498000000792232G2    AISUAI  006400630015
BI00B32G2    SA22044 MW     202203307114-5096-02             TERMINAL                 CCN000060000000060000FN00000000020220401000060000NNM   20220204121340    4P0P  00003000000000498000000792232G2    AISUAI  006400630015
BI00B32G2    SA22041 MW     202203097114-5746-02             TERMINAL                 CCN000084000000084000FN00000000020220401000084000NNM   20220204121340    4P0P  00002100000000695100000988732G2    AISUAI  006400630015
BI00B32G2    SA22042 MW     202203167114-5746-02             TERMINAL                 CCN000063000000063000FN00000000020220401000063000NNM   20220204121340    4P0P  00002100000000695100000988732G2    AISUAI  006400630015
BI00B32G2    SA22043 MW     202203237114-5746-02             TERMINAL                 CCN000042000000042000FN00000000020220401000042000NNM   20220204121340    4P0P  00002100000000695100000988732G2    AISUAI  006400630015
BI00B32G2    SA22044 MW     202203307114-5746-02             TERMINAL                 CCN000021000000021000FN00000000020220401000021000NNM   20220204121340    4P0P  00002100000000695100000988732G2    AISUAI  006400630015
BI00B32G2    SA22041 MW     202203097114-5747-02             TERMINAL                 CCN000108000000108000FN00000000020220401000108000NNM   20220204121340    4P0P  00001800000000626400000920032G2    AISUAI  006400630015
BI00B32G2    SA22042 MW     202203167114-5747-02             TERMINAL                 CCN000090000000090000FN00000000020220401000090000NNM   20220204121340    4P0P  00001800000000626400000920032G2    AISUAI  006400630015
BI00B32G2    SA22043 MW     202203237114-5747-02             TERMINAL                 CCN000054000000054000FN00000000020220401000054000NNM   20220204121340    4P0P  00001800000000626400000920032G2    AISUAI  006400630015
BI00B32G2    SA22044 MW     202203307114-5747-02             TERMINAL                 CCN000054000000054000FN00000000020220401000054000NNM   20220204121340    4P0P  00001800000000626400000920032G2    AISUAI  006400630015
BI00B32G2    SA22041 MW     202203097114-5753-02             TERMINAL                 CCN000108000000108000FN00000000020220401000108000NNM   20220204121340    4P0P  00002700000000847800001141432G2    AISUAI  006400630015
BI00B32G2    SA22042 MW     202203167114-5753-02             TERMINAL                 CCN000054000000054000FN00000000020220401000054000NNM   20220204121340    4P0P  00002700000000847800001141432G2    AISUAI  006400630015
BI00B32G2    SA22043 MW     202203237114-5753-02             TERMINAL                 CCN000054000000054000FN00000000020220401000054000NNM   20220204121340    4P0P  00002700000000847800001141432G2    AISUAI  006400630015
BI00B32G2    SA22044 MW     202203307114-5753-02             TERMINAL                 CCN000027000000027000FN00000000020220401000027000NNM   20220204121340    4P0P  00002700000000847800001141432G2    AISUAI  006400630015
BI00B32G2    SA22041 MW     202203097114-6041                TERMINAL                 CCN000007200000007200FN00000000020220401000007200NNM   20220204121340    4P0P  00000360000000580700000824232G2    AISUAI  006400630015
BI00B32G2    SA22042 MW     202203167114-6041                TERMINAL                 CCN000003600000003600FN00000000020220401000003600NNM   20220204121340    4P0P  00000360000000580700000824232G2    AISUAI  006400630015
BI00B32G2    SA22043 MW     202203237114-6041                TERMINAL                 CCN000003600000003600FN00000000020220401000003600NNM   20220204121340    4P0P  00000360000000580700000824232G2    AISUAI  006400630015
BI00B32G2    SA22044 MW     202203307114-6041                TERMINAL                 CCN000003600000003600FN00000000020220401000003600NNM   20220204121340    4P0P  00000360000000580700000824232G2    AISUAI  006400630015
BI00B32G2    SA22041 MW     202203097116-1180                TERMINAL                 CCN000039000000039000FN00000000020220401000039000NNM   20220204121340    1P0P  00001950000000618200000903432G2    AISUAI  006400630015
BI00B32G2    SA22042 MW     202203167116-1180                TERMINAL                 CCN000039000000039000FN00000000020220401000039000NNM   20220204121340    1P0P  00001950000000618200000903432G2    AISUAI  006400630015
BI00B32G2    SA22043 MW     202203237116-1180                TERMINAL                 CCN000019500000019500FN00000000020220401000019500NNM   20220204121340    1P0P  00001950000000618200000903432G2    AISUAI  006400630015
BI00B32G2    SA22044 MW     202203307116-1180                TERMINAL                 CCN000019500000019500FN00000000020220401000019500NNM   20220204121340    1P0P  00001950000000618200000903432G2    AISUAI  006400630015
BI00B32G2    SA22041 MW     202203097116-1257-02             TERMINAL                 CCN000024000000024000FN00000000020220401000024000NNM   20220204121340    1P0P  00002400000000518400000847132G2    AISUAI  006400630017
BI00B32G2    SA22041 MW     202203097116-1471                TERMINAL                 CCN000030000000030000FN00000000020220401000030000NNM   20220204121340    4P0P  00001500000000579000000867232G2    AISUAI  006400630015
BI00B32G2    SA22042 MW     202203167116-1471                TERMINAL                 CCN000015000000015000FN00000000020220401000015000NNM   20220204121340    4P0P  00001500000000579000000867232G2    AISUAI  006400630015
BI00B32G2    SA22043 MW     202203237116-1471                TERMINAL                 CCN000015000000015000FN00000000020220401000015000NNM   20220204121340    4P0P  00001500000000579000000867232G2    AISUAI  006400630015
BI00B32G2    SA22044 MW     202203307116-1471                TERMINAL                 CCN000015000000015000FN00000000020220401000015000NNM   20220204121340    4P0P  00001500000000579000000867232G2    AISUAI  006400630015
BI00B32G2    SA22041 MW     202203097116-1473                TERMINAL                 CCN000013500000013500FN00000000020220401000013500NNM   20220204121340    4P0P  00001350000000523800000809032G2    AISUAI  006400630015
BI00B32G2    SA22041 MW     202203097116-1486-02             TERMINAL                 CCN000016500000016500FN00000000020220401000016500NNM   20220204121340    4P0P  00001650000000655100000940332G2    AISUAI  006400630015
BI00B32G2    SA22042 MW     202203167116-1486-02             TERMINAL                 CCN000016500000016500FN00000000020220401000016500NNM   20220204121340    4P0P  00001650000000655100000940332G2    AISUAI  006400630015
BI00B32G2    SA22041 MW     202203097116-1685-02             TERMINAL                 CCN000120000000120000FN00000000020220401000120000NNM   20220204121340    4P0P  00002400000000897600001065232G2    AISUAI  005100280028
BI00B32G2    SA22042 MW     202203167116-1685-02             TERMINAL                 CCN000072000000072000FN00000000020220401000072000NNM   20220204121340    4P0P  00002400000000897600001065232G2    AISUAI  005100280028
BI00B32G2    SA22043 MW     202203237116-1685-02             TERMINAL                 CCN000048000000048000FN00000000020220401000048000NNM   20220204121340    4P0P  00002400000000897600001065232G2    AISUAI  005100280028
BI00B32G2    SA22044 MW     202203307116-1685-02             TERMINAL                 CCN000024000000024000FN00000000020220401000024000NNM   20220204121340    4P0P  00002400000000897600001065232G2    AISUAI  005100280028
BI00B32G2    SA22041 MW     202203097116-1686-02             TERMINAL                 CCN000021000000021000FN00000000020220401000021000NNM   20220204121340    4P0P  00002100000000869400001021632G2    AISUAI  005100280028
BI00B32G2    SA22041 MW     202203097116-2640                TERMINAL                 CCN000018000000018000FN00000000020220401000018000NNM   20220204121340    4P0P  00001800000001018800001196632G2    AISUAI  005100280028
BI00B32G2    SA22042 MW     202203167116-2640                TERMINAL                 CCN000018000000018000FN00000000020220401000018000NNM   20220204121340    4P0P  00001800000001018800001196632G2    AISUAI  005100280028
BI00B32G2    SA22043 MW     202203237116-2640                TERMINAL                 CCN000018000000018000FN00000000020220401000018000NNM   20220204121340    4P0P  00001800000001018800001196632G2    AISUAI  005100280028
BI00B32G2    SA22041 MW     202203097116-2641                TERMINAL                 CCN000054000000054000FN00000000020220401000054000NNM   20220204121340    4P0P  00001800000001161000001344632G2    AISUAI  005100280028
BI00B32G2    SA22042 MW     202203167116-2641                TERMINAL                 CCN000036000000036000FN00000000020220401000036000NNM   20220204121340    4P0P  00001800000001161000001344632G2    AISUAI  005100280028
BI00B32G2    SA22043 MW     202203237116-2641                TERMINAL                 CCN000018000000018000FN00000000020220401000018000NNM   20220204121340    4P0P  00001800000001161000001344632G2    AISUAI  005100280028
BI00B32G2    SA22044 MW     202203307116-2641                TERMINAL                 CCN000018000000018000FN00000000020220401000018000NNM   20220204121340    4P0P  00001800000001161000001344632G2    AISUAI  005100280028
BI00B32G2    SA22041 MW     202203097116-2871                TERMINAL                 CCN000012000000012000FN00000000020220401000012000NNM   20220204121340    1P0P  00001200000000842400001072632G2    AISUAI  005100280028
BI00B32G2    SA22041 MW     202203097116-2891-02             TERMINAL                 CCN000090000000090000FN00000000020220401000090000NNM   20220204121340    4P0P  00001500000000982500001145932G2    AISUAI  005100280028
BI00B32G2    SA22042 MW     202203167116-2891-02             TERMINAL                 CCN000075000000075000FN00000000020220401000075000NNM   20220204121340    4P0P  00001500000000982500001145932G2    AISUAI  005100280028
BI00B32G2    SA22043 MW     202203237116-2891-02             TERMINAL                 CCN000045000000045000FN00000000020220401000045000NNM   20220204121340    4P0P  00001500000000982500001145932G2    AISUAI  005100280028
BI00B32G2    SA22044 MW     202203307116-2891-02             TERMINAL                 CCN000045000000045000FN00000000020220401000045000NNM   20220204121340    4P0P  00001500000000982500001145932G2    AISUAI  005100280028
BI00B32G2    SA22041 MW     202203097116-2892-02             TERMINAL                 CCN000060000000060000FN00000000020220401000060000NNM   20220204121340    4P0P  00001200000000818400000981832G2    AISUAI  005100280028
BI00B32G2    SA22042 MW     202203167116-2892-02             TERMINAL                 CCN000036000000036000FN00000000020220401000036000NNM   20220204121340    4P0P  00001200000000818400000981832G2    AISUAI  005100280028
BI00B32G2    SA22043 MW     202203237116-2892-02             TERMINAL                 CCN000036000000036000FN00000000020220401000036000NNM   20220204121340    4P0P  00001200000000818400000981832G2    AISUAI  005100280028
BI00B32G2    SA22044 MW     202203307116-2892-02             TERMINAL                 CCN000024000000024000FN00000000020220401000024000NNM   20220204121340    4P0P  00001200000000818400000981832G2    AISUAI  005100280028
BI00B32G2    SA22041 MW     202203097116-2893-02             TERMINAL                 CCN000084000000084000FN00000000020220401000084000NNM   20220204121340    4P0P  00001200000000895200001058632G2    AISUAI  005100280028
BI00B32G2    SA22042 MW     202203167116-2893-02             TERMINAL                 CCN000072000000072000FN00000000020220401000072000NNM   20220204121340    4P0P  00001200000000895200001058632G2    AISUAI  005100280028
BI00B32G2    SA22043 MW     202203237116-2893-02             TERMINAL                 CCN000060000000060000FN00000000020220401000060000NNM   20220204121340    4P0P  00001200000000895200001058632G2    AISUAI  005100280028
BI00B32G2    SA22044 MW     202203307116-2893-02             TERMINAL                 CCN000048000000048000FN00000000020220401000048000NNM   20220204121340    4P0P  00001200000000895200001058632G2    AISUAI  005100280028
BI00B32G2    SA22041 MW     202203097116-4020                TERMINAL                 CCN000202500000202500FN00000000020220401000202500NNM   20220204121340    4P0P  00001350000000513000000798232G2    AISUAI  006400630015
BI00B32G2    SA22042 MW     202203167116-4020                TERMINAL                 CCN000162000000162000FN00000000020220401000162000NNM   20220204121340    4P0P  00001350000000513000000798232G2    AISUAI  006400630015
BI00B32G2    SA22043 MW     202203237116-4020                TERMINAL                 CCN000135000000135000FN00000000020220401000135000NNM   20220204121340    4P0P  00001350000000513000000798232G2    AISUAI  006400630015
BI00B32G2    SA22044 MW     202203307116-4020                TERMINAL                 CCN000108000000108000FN00000000020220401000108000NNM   20220204121340    4P0P  00001350000000513000000798232G2    AISUAI  006400630015
BI00B32G2    SA22041 MW     202203097116-4025                TERMINAL                 CCN000128000000128000FN00000000020220401000128000NNM   20220204121340    4P0P  00001600000000644800000975132G2    AISUAI  006400630017
BI00B32G2    SA22042 MW     202203167116-4025                TERMINAL                 CCN000096000000096000FN00000000020220401000096000NNM   20220204121340    4P0P  00001600000000644800000975132G2    AISUAI  006400630017
BI00B32G2    SA22043 MW     202203237116-4025                TERMINAL                 CCN000096000000096000FN00000000020220401000096000NNM   20220204121340    4P0P  00001600000000644800000975132G2    AISUAI  006400630017
BI00B32G2    SA22044 MW     202203307116-4025                TERMINAL                 CCN000064000000064000FN00000000020220401000064000NNM   20220204121340    4P0P  00001600000000644800000975132G2    AISUAI  006400630017
BI00B32G2    SA22041 MW     202203097116-4026                TERMINAL                 CCN000032000000032000FN00000000020220401000032000NNM   20220204121340    4P0P  00001600000000664000000994332G2    AISUAI  006400630017
BI00B32G2    SA22042 MW     202203167116-4026                TERMINAL                 CCN000016000000016000FN00000000020220401000016000NNM   20220204121340    4P0P  00001600000000664000000994332G2    AISUAI  006400630017
BI00B32G2    SA22043 MW     202203237116-4026                TERMINAL                 CCN000016000000016000FN00000000020220401000016000NNM   20220204121340    4P0P  00001600000000664000000994332G2    AISUAI  006400630017
BI00B32G2    SA22044 MW     202203307116-4026                TERMINAL                 CCN000016000000016000FN00000000020220401000016000NNM   20220204121340    4P0P  00001600000000664000000994332G2    AISUAI  006400630017
BI00B32G2    SA22041 MW     202203097116-4031                TERMINAL                 CCN000022500000022500FN00000000020220401000022500NNM   20220204121340    4P0P  00000750000000619500000904732G2    AISUAI  006400630015
BI00B32G2    SA22042 MW     202203167116-4031                TERMINAL                 CCN000015000000015000FN00000000020220401000015000NNM   20220204121340    4P0P  00000750000000619500000904732G2    AISUAI  006400630015
BI00B32G2    SA22043 MW     202203237116-4031                TERMINAL                 CCN000007500000007500FN00000000020220401000007500NNM   20220204121340    4P0P  00000750000000619500000904732G2    AISUAI  006400630015
BI00B32G2    SA22044 MW     202203307116-4031                TERMINAL                 CCN000007500000007500FN00000000020220401000007500NNM   20220204121340    4P0P  00000750000000619500000904732G2    AISUAI  006400630015
BI00B32G2    SA22041 MW     202203097116-4032                TERMINAL                 CCN000072000000072000FN00000000020220401000072000NNM   20220204121340    4P0P  00000600000000532800000818032G2    AISUAI  006400630015
BI00B32G2    SA22042 MW     202203167116-4032                TERMINAL                 CCN000060000000060000FN00000000020220401000060000NNM   20220204121340    4P0P  00000600000000532800000818032G2    AISUAI  006400630015
BI00B32G2    SA22043 MW     202203237116-4032                TERMINAL                 CCN000048000000048000FN00000000020220401000048000NNM   20220204121340    4P0P  00000600000000532800000818032G2    AISUAI  006400630015
BI00B32G2    SA22044 MW     202203307116-4032                TERMINAL                 CCN000036000000036000FN00000000020220401000036000NNM   20220204121340    4P0P  00000600000000532800000818032G2    AISUAI  006400630015
BI00B32G2    SA22041 MW     202203097116-4037                TERMINAL                 CCN000048000000048000FN00000000020220401000048000NNM   20220204121340    4P0P  00000600000000600000000894232G2    AISUAI  006400630015
BI00B32G2    SA22042 MW     202203167116-4037                TERMINAL                 CCN000036000000036000FN00000000020220401000036000NNM   20220204121340    4P0P  00000600000000600000000894232G2    AISUAI  006400630015
BI00B32G2    SA22043 MW     202203237116-4037                TERMINAL                 CCN000036000000036000FN00000000020220401000036000NNM   20220204121340    4P0P  00000600000000600000000894232G2    AISUAI  006400630015
BI00B32G2    SA22044 MW     202203307116-4037                TERMINAL                 CCN000024000000024000FN00000000020220401000024000NNM   20220204121340    4P0P  00000600000000600000000894232G2    AISUAI  006400630015
BI00B32G2    SA22041 MW     202203097116-4231-02             TERMINAL                 CCN000104000000104000FN00000000020220401000104000NNM   20220204121340    4P0P  00002600000000683800001012532G2    AISUAI  006400630017
BI00B32G2    SA22042 MW     202203167116-4231-02             TERMINAL                 CCN000078000000078000FN00000000020220401000078000NNM   20220204121340    4P0P  00002600000000683800001012532G2    AISUAI  006400630017
BI00B32G2    SA22043 MW     202203237116-4231-02             TERMINAL                 CCN000052000000052000FN00000000020220401000052000NNM   20220204121340    4P0P  00002600000000683800001012532G2    AISUAI  006400630017
BI00B32G2    SA22044 MW     202203307116-4231-02             TERMINAL                 CCN000052000000052000FN00000000020220401000052000NNM   20220204121340    4P0P  00002600000000683800001012532G2    AISUAI  006400630017
BI00B32G2    SA22041 MW     202203097116-4486-02             TERMINAL                 CCN000140000000140000FN00000000020220401000140000NNM   20220204121340    4P0P  00002800000000666400000995132G2    AISUAI  006400630017
BI00B32G2    SA22042 MW     202203167116-4486-02             TERMINAL                 CCN000112000000112000FN00000000020220401000112000NNM   20220204121340    4P0P  00002800000000666400000995132G2    AISUAI  006400630017
BI00B32G2    SA22043 MW     202203237116-4486-02             TERMINAL                 CCN000084000000084000FN00000000020220401000084000NNM   20220204121340    4P0P  00002800000000666400000995132G2    AISUAI  006400630017
BI00B32G2    SA22044 MW     202203307116-4486-02             TERMINAL                 CCN000056000000056000FN00000000020220401000056000NNM   20220204121340    4P0P  00002800000000666400000995132G2    AISUAI  006400630017
BI00B32G2    SA22041 MW     202203097116-5041-02             TERMINAL                 CCN000315000000315000FN00000000020220401000315000NNM   20220204121340    4P0P  00001500000000583500000868732G2    AISUAI  006400630015
BI00B32G2    SA22042 MW     202203167116-5041-02             TERMINAL                 CCN000270000000270000FN00000000020220401000270000NNM   20220204121340    4P0P  00001500000000583500000868732G2    AISUAI  006400630015
BI00B32G2    SA22043 MW     202203237116-5041-02             TERMINAL                 CCN000225000000225000FN00000000020220401000225000NNM   20220204121340    4P0P  00001500000000583500000868732G2    AISUAI  006400630015
BI00B32G2    SA22044 MW     202203307116-5041-02             TERMINAL                 CCN000150000000150000FN00000000020220401000150000NNM   20220204121340    4P0P  00001500000000583500000868732G2    AISUAI  006400630015
BI00B32G2    SA22041 MW     202203097116-5042-02             TERMINAL                 CCN000202500000202500FN00000000020220401000202500NNM   20220204121340    4P0P  00001350000000560300000845532G2    AISUAI  006400630015
BI00B32G2    SA22042 MW     202203167116-5042-02             TERMINAL                 CCN000148500000148500FN00000000020220401000148500NNM   20220204121340    4P0P  00001350000000560300000845532G2    AISUAI  006400630015
BI00B32G2    SA22043 MW     202203237116-5042-02             TERMINAL                 CCN000121500000121500FN00000000020220401000121500NNM   20220204121340    4P0P  00001350000000560300000845532G2    AISUAI  006400630015
BI00B32G2    SA22044 MW     202203307116-5042-02             TERMINAL                 CCN000108000000108000FN00000000020220401000108000NNM   20220204121340    4P0P  00001350000000560300000845532G2    AISUAI  006400630015
BI00B32G2    SA22041 MW     202203097116-5043-02             TERMINAL FEMALE          CCN000120000000120000FN00000000020220401000120000NNM   20220204121340    4P0P  00001200000000559200000844432G2    AISUAI  006400630015
BI00B32G2    SA22042 MW     202203167116-5043-02             TERMINAL FEMALE          CCN000096000000096000FN00000000020220401000096000NNM   20220204121340    4P0P  00001200000000559200000844432G2    AISUAI  006400630015
BI00B32G2    SA22043 MW     202203237116-5043-02             TERMINAL FEMALE          CCN000072000000072000FN00000000020220401000072000NNM   20220204121340    4P0P  00001200000000559200000844432G2    AISUAI  006400630015
BI00B32G2    SA22044 MW     202203307116-5043-02             TERMINAL FEMALE          CCN000048000000048000FN00000000020220401000048000NNM   20220204121340    4P0P  00001200000000559200000844432G2    AISUAI  006400630015
BI00B32G2    SA22041 MW     202203097116-5044-02             TERMINAL                 CCN000272000000272000FN00000000020220401000272000NNM   20220204121340    4P0P  00001600000000641600000986332G2    AISUAI  006400630017
BI00B32G2    SA22042 MW     202203167116-5044-02             TERMINAL                 CCN000192000000192000FN00000000020220401000192000NNM   20220204121340    4P0P  00001600000000641600000986332G2    AISUAI  006400630017
BI00B32G2    SA22043 MW     202203237116-5044-02             TERMINAL                 CCN000160000000160000FN00000000020220401000160000NNM   20220204121340    4P0P  00001600000000641600000986332G2    AISUAI  006400630017
BI00B32G2    SA22044 MW     202203307116-5044-02             TERMINAL                 CCN000144000000144000FN00000000020220401000144000NNM   20220204121340    4P0P  00001600000000641600000986332G2    AISUAI  006400630017
BI00B32G2    SA22041 MW     202203097116-5045-02             TERMINAL                 CCN000112000000112000FN00000000020220401000112000NNM   20220204121340    4P0P  00001600000000678400001007132G2    AISUAI  006400630017
BI00B32G2    SA22042 MW     202203167116-5045-02             TERMINAL                 CCN000096000000096000FN00000000020220401000096000NNM   20220204121340    4P0P  00001600000000678400001007132G2    AISUAI  006400630017
BI00B32G2    SA22043 MW     202203237116-5045-02             TERMINAL                 CCN000080000000080000FN00000000020220401000080000NNM   20220204121340    4P0P  00001600000000678400001007132G2    AISUAI  006400630017
BI00B32G2    SA22044 MW     202203307116-5045-02             TERMINAL                 CCN000064000000064000FN00000000020220401000064000NNM   20220204121340    4P0P  00001600000000678400001007132G2    AISUAI  006400630017
BI00B32G2    SA22041 MW     202203097116-5046-02             TERMINAL                 CCN000036000000036000FN00000000020220401000036000NNM   20220204121340    4P0P  00001200000000544800000873532G2    AISUAI  006400630017
BI00B32G2    SA22042 MW     202203167116-5046-02             TERMINAL                 CCN000036000000036000FN00000000020220401000036000NNM   20220204121340    4P0P  00001200000000544800000873532G2    AISUAI  006400630017
BI00B32G2    SA22043 MW     202203237116-5046-02             TERMINAL                 CCN000024000000024000FN00000000020220401000024000NNM   20220204121340    4P0P  00001200000000544800000873532G2    AISUAI  006400630017
BI00B32G2    SA22044 MW     202203307116-5046-02             TERMINAL                 CCN000012000000012000FN00000000020220401000012000NNM   20220204121340    4P0P  00001200000000544800000873532G2    AISUAI  006400630017
BI00B32G2    SA22041 MW     202203097116-5097-02             TERMINAL                 CCN000022500000022500FN00000000020220401000022500NNM   20220204121340    4P0P  00002250000000531000000816232G2    AISUAI  006400630015
BI00B32G2    SA22042 MW     202203167116-5097-02             TERMINAL                 CCN000022500000022500FN00000000020220401000022500NNM   20220204121340    4P0P  00002250000000531000000816232G2    AISUAI  006400630015
BI00B32G2    SA22043 MW     202203237116-5097-02             TERMINAL                 CCN000022500000022500FN00000000020220401000022500NNM   20220204121340    4P0P  00002250000000531000000816232G2    AISUAI  006400630015
BI00B32G2    SA22044 MW     202203307116-5097-02             TERMINAL                 CCN000022500000022500FN00000000020220401000022500NNM   20220204121340    4P0P  00002250000000531000000816232G2    AISUAI  006400630015
BI00B32G2    SA22041 MW     202203097116-5750-02             TERMINAL                 CCN000285000000285000FN00000000020220401000285000NNM   20220204121340    4P0P  00001500000000457500000742732G2    AISUAI  006400630015
BI00B32G2    SA22042 MW     202203167116-5750-02             TERMINAL                 CCN000240000000240000FN00000000020220401000240000NNM   20220204121340    4P0P  00001500000000457500000742732G2    AISUAI  006400630015
BI00B32G2    SA22043 MW     202203237116-5750-02             TERMINAL                 CCN000195000000195000FN00000000020220401000195000NNM   20220204121340    4P0P  00001500000000457500000742732G2    AISUAI  006400630015
BI00B32G2    SA22044 MW     202203307116-5750-02             TERMINAL                 CCN000135000000135000FN00000000020220401000135000NNM   20220204121340    4P0P  00001500000000457500000742732G2    AISUAI  006400630015
BI00B32G2    SA22041 MW     202203097116-5751-02             TERMINAL                 CCN000132000000132000FN00000000020220401000132000NNM   20220204121340    4P0P  00001200000000379200000664432G2    AISUAI  006400630015
BI00B32G2    SA22042 MW     202203167116-5751-02             TERMINAL                 CCN000084000000084000FN00000000020220401000084000NNM   20220204121340    4P0P  00001200000000379200000664432G2    AISUAI  006400630015
BI00B32G2    SA22043 MW     202203237116-5751-02             TERMINAL                 CCN000060000000060000FN00000000020220401000060000NNM   20220204121340    4P0P  00001200000000379200000664432G2    AISUAI  006400630015
BI00B32G2    SA22044 MW     202203307116-5751-02             TERMINAL                 CCN000036000000036000FN00000000020220401000036000NNM   20220204121340    4P0P  00001200000000379200000664432G2    AISUAI  006400630015
BI00B32G2    SA22041 MW     202203097116-5752-02             TERMINAL                 CCN000252000000252000FN00000000020220401000252000NNM   20220204121340    4P0P  00002100000000571200000856432G2    AISUAI  006400630015
BI00B32G2    SA22042 MW     202203167116-5752-02             TERMINAL                 CCN000168000000168000FN00000000020220401000168000NNM   20220204121340    4P0P  00002100000000571200000856432G2    AISUAI  006400630015
BI00B32G2    SA22043 MW     202203237116-5752-02             TERMINAL                 CCN000126000000126000FN00000000020220401000126000NNM   20220204121340    4P0P  00002100000000571200000856432G2    AISUAI  006400630015
BI00B32G2    SA22044 MW     202203307116-5752-02             TERMINAL                 CCN000084000000084000FN00000000020220401000084000NNM   20220204121340    4P0P  00002100000000571200000856432G2    AISUAI  006400630015
BI00B32G2    SA22041 MW     202203097116-6041                TERMINAL                 CCN000018000000018000FN00000000020220401000018000NNM   20220204121340    4P0P  00000450000000716000001009632G2    AISUAI  006400630015
BI00B32G2    SA22042 MW     202203167116-6041                TERMINAL                 CCN000013500000013500FN00000000020220401000013500NNM   20220204121340    4P0P  00000450000000716000001009632G2    AISUAI  006400630015
BI00B32G2    SA22043 MW     202203237116-6041                TERMINAL                 CCN000009000000009000FN00000000020220401000009000NNM   20220204121340    4P0P  00000450000000716000001009632G2    AISUAI  006400630015
BI00B32G2    SA22044 MW     202203307116-6041                TERMINAL                 CCN000009000000009000FN00000000020220401000009000NNM   20220204121340    4P0P  00000450000000716000001009632G2    AISUAI  006400630015
BI00B32G2    SA22041 MW     202203097116-6042                TERMINAL                 CCN000033000000033000FN00000000020220401000033000NNM   20220204121340    4P0P  00000300000000523800000856132G2    AISUAI  006400630015
BI00B32G2    SA22042 MW     202203167116-6042                TERMINAL                 CCN000024000000024000FN00000000020220401000024000NNM   20220204121340    4P0P  00000300000000523800000856132G2    AISUAI  006400630015
BI00B32G2    SA22043 MW     202203237116-6042                TERMINAL                 CCN000018000000018000FN00000000020220401000018000NNM   20220204121340    4P0P  00000300000000523800000856132G2    AISUAI  006400630015
BI00B32G2    SA22044 MW     202203307116-6042                TERMINAL                 CCN000012000000012000FN00000000020220401000012000NNM   20220204121340    4P0P  00000300000000523800000856132G2    AISUAI  006400630015
BI00B32G2    SA22041 MW     202203097126-8850-02             TERMINAL                 CCN000009000000009000FN00000000020220401000009000NNM   20220204121340    1P0P  00000900000000672300000957532G2    AISUAI  006400630015
BI00B32G2    SA22042 MW     202203167126-8850-02             TERMINAL                 CCN000009000000009000FN00000000020220401000009000NNM   20220204121340    1P0P  00000900000000672300000957532G2    AISUAI  006400630015
BI00B32G2    SA22043 MW     202203237126-8850-02             TERMINAL                 CCN000009000000009000FN00000000020220401000009000NNM   20220204121340    1P0P  00000900000000672300000957532G2    AISUAI  006400630015
BI00B32G2    SA22041 MW     202203097126-8852-02             TERMINAL                 CCN000015000000015000FN00000000020220401000015000NNM   20220204121340    1P0P  00000750000000648000000933232G2    AISUAI  006400630015
BI00B32G2    SA22042 MW     202203167126-8852-02             TERMINAL                 CCN000007500000007500FN00000000020220401000007500NNM   20220204121340    1P0P  00000750000000648000000933232G2    AISUAI  006400630015
BI00B32G2    SA22043 MW     202203237126-8852-02             TERMINAL                 CCN000007500000007500FN00000000020220401000007500NNM   20220204121340    1P0P  00000750000000648000000933232G2    AISUAI  006400630015
BI00B32G2    SA22044 MW     202203307126-8852-02             TERMINAL                 CCN000007500000007500FN00000000020220401000007500NNM   20220204121340    1P0P  00000750000000648000000933232G2    AISUAI  006400630015
BI00B32G2    SA22041 MW     202203097126-8853-02             TERMINAL                 CCN000142500000142500FN00000000020220401000142500NNM   20220204121340    4P0P  00000750000000562500000847732G2    AISUAI  006400630015
BI00B32G2    SA22042 MW     202203167126-8853-02             TERMINAL                 CCN000127500000127500FN00000000020220401000127500NNM   20220204121340    4P0P  00000750000000562500000847732G2    AISUAI  006400630015
BI00B32G2    SA22043 MW     202203237126-8853-02             TERMINAL                 CCN000090000000090000FN00000000020220401000090000NNM   20220204121340    4P0P  00000750000000562500000847732G2    AISUAI  006400630015
BI00B32G2    SA22044 MW     202203307126-8853-02             TERMINAL                 CCN000067500000067500FN00000000020220401000067500NNM   20220204121340    4P0P  00000750000000562500000847732G2    AISUAI  006400630015
BI00B32G2    SA22041 MW     202203097126-8854-02             TERMINAL                 CCN000097500000097500FN00000000020220401000097500NNM   20220204121340    4P0P  00000750000000604500000889732G2    AISUAI  006400630015
BI00B32G2    SA22042 MW     202203167126-8854-02             TERMINAL                 CCN000082500000082500FN00000000020220401000082500NNM   20220204121340    4P0P  00000750000000604500000889732G2    AISUAI  006400630015
BI00B32G2    SA22043 MW     202203237126-8854-02             TERMINAL                 CCN000067500000067500FN00000000020220401000067500NNM   20220204121340    4P0P  00000750000000604500000889732G2    AISUAI  006400630015
BI00B32G2    SA22044 MW     202203307126-8854-02             TERMINAL                 CCN000060000000060000FN00000000020220401000060000NNM   20220204121340    4P0P  00000750000000604500000889732G2    AISUAI  006400630015
BI00B32G2    SA22041 MW     202203097126-8855-02             TERMINAL                 CCN000048000000048000FN00000000020220401000048000NNM   20220204121340    4P0P  00000600000000510600000795832G2    AISUAI  006400630015
BI00B32G2    SA22042 MW     202203167126-8855-02             TERMINAL                 CCN000042000000042000FN00000000020220401000042000NNM   20220204121340    4P0P  00000600000000510600000795832G2    AISUAI  006400630015
BI00B32G2    SA22043 MW     202203237126-8855-02             TERMINAL                 CCN000036000000036000FN00000000020220401000036000NNM   20220204121340    4P0P  00000600000000510600000795832G2    AISUAI  006400630015
BI00B32G2    SA22044 MW     202203307126-8855-02             TERMINAL                 CCN000024000000024000FN00000000020220401000024000NNM   20220204121340    4P0P  00000600000000510600000795832G2    AISUAI  006400630015
BI00B32G2    SA22041 MW     202203097154-7136-30             LOWER COVER              CCN000000180000000180FN00000000020220401000000180NNM   20220204121340    4F0F  00000006000000199000000408032G2    AISUAI  005600390040
BI00B32G2    SA22042 MW     202203167154-7136-30             LOWER COVER              CCN000000120000000120FN00000000020220401000000120NNM   20220204121340    4F0F  00000006000000199000000408032G2    AISUAI  005600390040
BI00B32G2    SA22043 MW     202203237154-7136-30             LOWER COVER              CCN000000060000000060FN00000000020220401000000060NNM   20220204121340    4F0F  00000006000000199000000408032G2    AISUAI  005600390040
BI00B32G2    SA22044 MW     202203307154-7136-30             LOWER COVER              CCN000000060000000060FN00000000020220401000000060NNM   20220204121340    4F0F  00000006000000199000000408032G2    AISUAI  005600390040
BI00B32G2    SA22041 MW     202203097158-3006-90             RUBBER STOPPER           CCN000320000000320000FN00000000020220401000320000NNM   20220204121340    1C0C  00002000000000330600000386032G2    AISUAI  002700430014
BI00B32G2    SA22042 MW     202203167158-3006-90             RUBBER STOPPER           CCN000260000000260000FN00000000020220401000260000NNM   20220204121340    1C0C  00002000000000330600000386032G2    AISUAI  002700430014
BI00B32G2    SA22043 MW     202203237158-3006-90             RUBBER STOPPER           CCN000220000000220000FN00000000020220401000220000NNM   20220204121340    1C0C  00002000000000330600000386032G2    AISUAI  002700430014
BI00B32G2    SA22044 MW     202203307158-3006-90             RUBBER STOPPER           CCN000180000000180000FN00000000020220401000180000NNM   20220204121340    1C0C  00002000000000330600000386032G2    AISUAI  002700430014
BI00B32G2    SA22041 MW     202203097158-3009-60             RUBBER STOPPER           CCN000300000000300000FN00000000020220401000300000NNM   20220204121340    1C0C  00002000000000338000000386232G2    AISUAI  002700430014
BI00B32G2    SA22042 MW     202203167158-3009-60             RUBBER STOPPER           CCN000240000000240000FN00000000020220401000240000NNM   20220204121340    1C0C  00002000000000338000000386232G2    AISUAI  002700430014
BI00B32G2    SA22043 MW     202203237158-3009-60             RUBBER STOPPER           CCN000180000000180000FN00000000020220401000180000NNM   20220204121340    1C0C  00002000000000338000000386232G2    AISUAI  002700430014
BI00B32G2    SA22044 MW     202203307158-3009-60             RUBBER STOPPER           CCN000160000000160000FN00000000020220401000160000NNM   20220204121340    1C0C  00002000000000338000000386232G2    AISUAI  002700430014
BI00B32G2    SA22041 MW     202203097158-3022-80             RUBBER STOPPER           CCN000005000000005000FN00000000020220401000005000NNM   20220204121340    1C0C  00000500000000467500000524032G2    AISUAI  002700430014
BI00B32G2    SA22041 MW     202203097158-3070-80             RUBBER STOPPER           CCN000040000000040000FN00000000020220401000040000NNM   20220204121340    1C0C  00004000000000276000000333332G2    AISUAI  002700430014
BI00B32G2    SA22042 MW     202203167158-3070-80             RUBBER STOPPER           CCN000040000000040000FN00000000020220401000040000NNM   20220204121340    1C0C  00004000000000276000000333332G2    AISUAI  002700430014
BI00B32G2    SA22041 MW     202203097158-3167-80             WIRE SEAL                CCN000020000000020000FN00000000020220401000020000NNM   20220204121340    1C0C  00002000000000048000000109032G2    AISUAI  002700430014
BI00B32G2    SA22041 MW     202203097183-2417                CONNECTOR HOUSING        CCN000002400000002400FN00000000020220401000002400NNM   20220204121340    4F0F  00000240000001137400001297732G2    AISUAI  005500360039
BI00B32G2    SA22041 MW     202203097183-7665-30             HOUSING                  CCN000004800000004800FN00000000020220401000004800NNM   20220204121340    1F0F  00000120000001103300001247832G2    AISUAI  005500360039
BI00B32G2    SA22042 MW     202203167183-7665-30             HOUSING                  CCN000003600000003600FN00000000020220401000003600NNM   20220204121340    1F0F  00000120000001103300001247832G2    AISUAI  005500360039
BI00B32G2    SA22043 MW     202203237183-7665-30             HOUSING                  CCN000003600000003600FN00000000020220401000003600NNM   20220204121340    1F0F  00000120000001103300001247832G2    AISUAI  005500360039
BI00B32G2    SA22044 MW     202203307183-7665-30             HOUSING                  CCN000001200000001200FN00000000020220401000001200NNM   20220204121340    1F0F  00000120000001103300001247832G2    AISUAI  005500360039
BI00B32G2    SA22041 MW     202203097196-0396-02             TERMINAL                 CCN000015000000015000FN00000000020220401000015000NNM   20220204121340    4P0P  00001500000000949500001112932G2    AISUAI  002800510028
BI00B32G2    SA22042 MW     202203167196-0396-02             TERMINAL                 CCN000015000000015000FN00000000020220401000015000NNM   20220204121340    4P0P  00001500000000949500001112932G2    AISUAI  002800510028
BI00B32G2    SA22041 MW     202203097222-7564-40             CONNECTOR                CCN000000500000000500FN00000000020220401000000500NNM   20220204121340    1N0N  00000050000000967000001097032G2    AISUAI  005500360039
BI00B32G2    SA22042 MW     202203167222-7564-40             CONNECTOR                CCN000000500000000500FN00000000020220401000000500NNM   20220204121340    1N0N  00000050000000967000001097032G2    AISUAI  005500360039
BI00B32G2    SA22043 MW     202203237222-7564-40             CONNECTOR                CCN000000500000000500FN00000000020220401000000500NNM   20220204121340    1N0N  00000050000000967000001097032G2    AISUAI  005500360039
BI00B32G2    SA22044 MW     202203307222-7564-40             CONNECTOR                CCN000000500000000500FN00000000020220401000000500NNM   20220204121340    1N0N  00000050000000967000001097032G2    AISUAI  005500360039
BI00B32G2    SA22041 MW     202203097222-7923-40             CONNECTOR                CCN000000600000000600FN00000000020220401000000600NNM   20220204121340    4N0N  00000060000000937000001123032G2    AISUAI  005500360039
BI00B32G2    SA22042 MW     202203167222-7923-40             CONNECTOR                CCN000000600000000600FN00000000020220401000000600NNM   20220204121340    4N0N  00000060000000937000001123032G2    AISUAI  005500360039
BI00B32G2    SA22041 MW     202203097254-5840-30             ENG R/B SUB ASS'Y        CCN000000168000000168FN00000000020220401000000168NNM   20220204121340    4J0J  00000002400000732000000952032G2    AISUAI  005600390040
BI00B32G2    SA22042 MW     202203167254-5840-30             ENG R/B SUB ASS'Y        CCN000000144000000144FN00000000020220401000000144NNM   20220204121340    4J0J  00000002400000732000000952032G2    AISUAI  005600390040
BI00B32G2    SA22043 MW     202203237254-5840-30             ENG R/B SUB ASS'Y        CCN000000096000000096FN00000000020220401000000096NNM   20220204121340    4J0J  00000002400000732000000952032G2    AISUAI  005600390040
BI00B32G2    SA22044 MW     202203307254-5840-30             ENG R/B SUB ASS'Y        CCN000000072000000072FN00000000020220401000000072NNM   20220204121340    4J0J  00000002400000732000000952032G2    AISUAI  005600390040
BI00B32G2    SA22041 MW     202203097282-1014                CONNECTOR                CCN000006000000006000FN00000000020220401000006000NNM   20220204121340    4N0N  00000600000001200000001377932G2    AISUAI  005500360039
BI00B32G2    SA22041 MW     202203097282-1065                CONNECTOR                CCN000001500000001500FN00000000020220401000001500NNM   20220204121340    1N0N  00000150000000795000001012032G2    AISUAI  005600390040
BI00B32G2    SA22041 MW     202203097282-4577                HOUSING MALE ASS'Y       CCN000014400000014400FN00000000020220401000014400NNM   20220204121340    4N0N  00000240000000964800001174832G2    AISUAI  005500360039
BI00B32G2    SA22042 MW     202203167282-4577                HOUSING MALE ASS'Y       CCN000009600000009600FN00000000020220401000009600NNM   20220204121340    4N0N  00000240000000964800001174832G2    AISUAI  005500360039
BI00B32G2    SA22043 MW     202203237282-4577                HOUSING MALE ASS'Y       CCN000007200000007200FN00000000020220401000007200NNM   20220204121340    4N0N  00000240000000964800001174832G2    AISUAI  005500360039
BI00B32G2    SA22044 MW     202203307282-4577                HOUSING MALE ASS'Y       CCN000004800000004800FN00000000020220401000004800NNM   20220204121340    4N0N  00000240000000964800001174832G2    AISUAI  005500360039
BI00B32G2    SA22041 MW     202203097282-8120-40             CONNECTOR HOUSING        CCN000003000000003000FN00000000020220401000003000NNM   20220204121340    1N0N  00000300000001356000001520032G2    AISUAI  005500360039
BI00B32G2    SA22042 MW     202203167282-8120-40             CONNECTOR HOUSING        CCN000003000000003000FN00000000020220401000003000NNM   20220204121340    1N0N  00000300000001356000001520032G2    AISUAI  005500360039
BI00B32G2    SA22043 MW     202203237282-8120-40             CONNECTOR HOUSING        CCN000003000000003000FN00000000020220401000003000NNM   20220204121340    1N0N  00000300000001356000001520032G2    AISUAI  005500360039
BI00B32G2    SA22044 MW     202203307282-8120-40             CONNECTOR HOUSING        CCN000003000000003000FN00000000020220401000003000NNM   20220204121340    1N0N  00000300000001356000001520032G2    AISUAI  005500360039
BI00B32G2    SA22041 MW     202203097283-1114-30             CONNECTOR                CCN000002000000002000FN00000000020220401000002000NNM   20220204121340    4N0N  00000200000000624000000973332G2    AISUAI  005600390040
BI00B32G2    SA22041 MW     202203097283-1140                CONNECTOR HOUSING        CCN000004500000004500FN00000000020220401000004500NNM   20220204121340    4N0N  00000150000000669000000932732G2    AISUAI  005600390040
BI00B32G2    SA22042 MW     202203167283-1140                CONNECTOR HOUSING        CCN000003000000003000FN00000000020220401000003000NNM   20220204121340    4N0N  00000150000000669000000932732G2    AISUAI  005600390040
BI00B32G2    SA22043 MW     202203237283-1140                CONNECTOR HOUSING        CCN000001500000001500FN00000000020220401000001500NNM   20220204121340    4N0N  00000150000000669000000932732G2    AISUAI  005600390040
BI00B32G2    SA22044 MW     202203307283-1140                CONNECTOR HOUSING        CCN000001500000001500FN00000000020220401000001500NNM   20220204121340    4N0N  00000150000000669000000932732G2    AISUAI  005600390040
BI00B32G2    SA22041 MW     202203097283-1144                CONNECTOR                CCN000002400000002400FN00000000020220401000002400NNM   20220204121340    4N0N  00000240000000602200000866132G2    AISUAI  005500360039
BI00B32G2    SA22042 MW     202203167283-1144                CONNECTOR                CCN000002400000002400FN00000000020220401000002400NNM   20220204121340    4N0N  00000240000000602200000866132G2    AISUAI  005500360039
BI00B32G2    SA22041 MW     202203097283-1144-30             CONNECTOR                CCN000002400000002400FN00000000020220401000002400NNM   20220204121340    4N0N  00000240000000602200000866132G2    AISUAI  005500360039
BI00B32G2    SA22041 MW     202203097283-1156                CONNECTOR                CCN000001600000001600FN00000000020220401000001600NNM   20220204121340    4N0N  00000080000000877600001078032G2    AISUAI  005600390040
BI00B32G2    SA22042 MW     202203167283-1156                CONNECTOR                CCN000001600000001600FN00000000020220401000001600NNM   20220204121340    4N0N  00000080000000877600001078032G2    AISUAI  005600390040
BI00B32G2    SA22043 MW     202203237283-1156                CONNECTOR                CCN000000800000000800FN00000000020220401000000800NNM   20220204121340    4N0N  00000080000000877600001078032G2    AISUAI  005600390040
BI00B32G2    SA22044 MW     202203307283-1156                CONNECTOR                CCN000000800000000800FN00000000020220401000000800NNM   20220204121340    4N0N  00000080000000877600001078032G2    AISUAI  005600390040
BI00B32G2    SA22041 MW     202203097283-1288-10             CONNECTOR HOUSING        CCN000001200000001200FN00000000020220401000001200NNM   20220204121340    4N0N  00000120000001381000001637032G2    AISUAI  005600390040
BI00B32G2    SA22042 MW     202203167283-1288-10             CONNECTOR HOUSING        CCN000001200000001200FN00000000020220401000001200NNM   20220204121340    4N0N  00000120000001381000001637032G2    AISUAI  005600390040
BI00B32G2    SA22043 MW     202203237283-1288-10             CONNECTOR HOUSING        CCN000001200000001200FN00000000020220401000001200NNM   20220204121340    4N0N  00000120000001381000001637032G2    AISUAI  005600390040
BI00B32G2    SA22041 MW     202203097283-1289                CONNECTOR HOUSING        CCN000000600000000600FN00000000020220401000000600NNM   20220204121340    1N0N  00000060000000676200000817632G2    AISUAI  005400370024
BI00B32G2    SA22042 MW     202203167283-1289                CONNECTOR HOUSING        CCN000000600000000600FN00000000020220401000000600NNM   20220204121340    1N0N  00000060000000676200000817632G2    AISUAI  005400370024
BI00B32G2    SA22041 MW     202203097283-1927-30             CONNECTOR                CCN000004000000004000FN00000000020220401000004000NNM   20220204121340    4N0N  00000200000001190000001368032G2    AISUAI  005500360039
BI00B32G2    SA22042 MW     202203167283-1927-30             CONNECTOR                CCN000002000000002000FN00000000020220401000002000NNM   20220204121340    4N0N  00000200000001190000001368032G2    AISUAI  005500360039
BI00B32G2    SA22043 MW     202203237283-1927-30             CONNECTOR                CCN000002000000002000FN00000000020220401000002000NNM   20220204121340    4N0N  00000200000001190000001368032G2    AISUAI  005500360039
BI00B32G2    SA22044 MW     202203307283-1927-30             CONNECTOR                CCN000002000000002000FN00000000020220401000002000NNM   20220204121340    4N0N  00000200000001190000001368032G2    AISUAI  005500360039
BI00B32G2    SA22041 MW     202203097283-4576                HOUSING FEMALE ASS'Y     CCN000019200000019200FN00000000020220401000019200NNM   20220204121340    4N0N  00000480000000651300000871332G2    AISUAI  005500360039
BI00B32G2    SA22042 MW     202203167283-4576                HOUSING FEMALE ASS'Y     CCN000009600000009600FN00000000020220401000009600NNM   20220204121340    4N0N  00000480000000651300000871332G2    AISUAI  005500360039
BI00B32G2    SA22043 MW     202203237283-4576                HOUSING FEMALE ASS'Y     CCN000009600000009600FN00000000020220401000009600NNM   20220204121340    4N0N  00000480000000651300000871332G2    AISUAI  005500360039
BI00B32G2    SA22044 MW     202203307283-4576                HOUSING FEMALE ASS'Y     CCN000004800000004800FN00000000020220401000004800NNM   20220204121340    4N0N  00000480000000651300000871332G2    AISUAI  005500360039
BI00B32G2    SA22041 MW     202203097283-4577                CONNECTOR HOUSING        CCN000028800000028800FN00000000020220401000028800NNM   20220204121340    4N0N  00000480000000916800001136832G2    AISUAI  005500360039
BI00B32G2    SA22042 MW     202203167283-4577                CONNECTOR HOUSING        CCN000024000000024000FN00000000020220401000024000NNM   20220204121340    4N0N  00000480000000916800001136832G2    AISUAI  005500360039
BI00B32G2    SA22043 MW     202203237283-4577                CONNECTOR HOUSING        CCN000014400000014400FN00000000020220401000014400NNM   20220204121340    4N0N  00000480000000916800001136832G2    AISUAI  005500360039
BI00B32G2    SA22044 MW     202203307283-4577                CONNECTOR HOUSING        CCN000009600000009600FN00000000020220401000009600NNM   20220204121340    4N0N  00000480000000916800001136832G2    AISUAI  005500360039
BI00B32G2    SA22041 MW     202203097283-4854                CONNECTOR HOUSING        CCN000002400000002400FN00000000020220401000002400NNM   20220204121340    4N0N  00000240000000694100000914132G2    AISUAI  005500360039
BI00B32G2    SA22042 MW     202203167283-4854                CONNECTOR HOUSING        CCN000002400000002400FN00000000020220401000002400NNM   20220204121340    4N0N  00000240000000694100000914132G2    AISUAI  005500360039
BI00B32G2    SA22041 MW     202203097283-4855                CONNECTOR HOUSING        CCN000009600000009600FN00000000020220401000009600NNM   20220204121340    4N0N  00000240000001188400001400032G2    AISUAI  005500360039
BI00B32G2    SA22042 MW     202203167283-4855                CONNECTOR HOUSING        CCN000007200000007200FN00000000020220401000007200NNM   20220204121340    4N0N  00000240000001188400001400032G2    AISUAI  005500360039
BI00B32G2    SA22043 MW     202203237283-4855                CONNECTOR HOUSING        CCN000004800000004800FN00000000020220401000004800NNM   20220204121340    4N0N  00000240000001188400001400032G2    AISUAI  005500360039
BI00B32G2    SA22044 MW     202203307283-4855                CONNECTOR HOUSING        CCN000004800000004800FN00000000020220401000004800NNM   20220204121340    4N0N  00000240000001188400001400032G2    AISUAI  005500360039
BI00B32G2    SA22041 MW     202203097283-5832                CONNECTOR HOUSING        CCN000002400000002400FN00000000020220401000002400NNM   20220204121340    1N47  00000240000000723800000873832G2    AISUAI  005500360039
BI00B32G2    SA22041 MW     202203097283-5832-30             CONNECTOR HOUSING        CCN000002400000002400FN00000000020220401000002400NNM   20220204121340    1N0N  00000240000000723800000873832G2    AISUAI  005500360039
BI00B32G2    SA22041 MW     202203097283-5843                CONNECTOR                CCN000004500000004500FN00000000020220401000004500NNM   20220204121340    1N0N  00000150000000889000001132032G2    AISUAI  005600390040
BI00B32G2    SA22042 MW     202203167283-5843                CONNECTOR                CCN000004500000004500FN00000000020220401000004500NNM   20220204121340    1N0N  00000150000000889000001132032G2    AISUAI  005600390040
BI00B32G2    SA22043 MW     202203237283-5843                CONNECTOR                CCN000003000000003000FN00000000020220401000003000NNM   20220204121340    1N0N  00000150000000889000001132032G2    AISUAI  005600390040
BI00B32G2    SA22044 MW     202203307283-5843                CONNECTOR                CCN000001500000001500FN00000000020220401000001500NNM   20220204121340    1N0N  00000150000000889000001132032G2    AISUAI  005600390040
BI00B32G2    SA22041 MW     202203097283-6120                CONNECTOR HOUSING        CCN000001500000001500FN00000000020220401000001500NNM   20220204121340    1N0N  00000150000000914000001143032G2    AISUAI  005600390040
BI00B32G2    SA22041 MW     202203097283-7526-30             CONNECTOR HOUSING        CCN000003920000003920FN00000000020220401000003920NNM   20220204121340    4N0N  00000196000000989800001248632G2    AISUAI  005500360039
BI00B32G2    SA22042 MW     202203167283-7526-30             CONNECTOR HOUSING        CCN000001960000001960FN00000000020220401000001960NNM   20220204121340    4N0N  00000196000000989800001248632G2    AISUAI  005500360039
BI00B32G2    SA22043 MW     202203237283-7526-30             CONNECTOR HOUSING        CCN000001960000001960FN00000000020220401000001960NNM   20220204121340    4N0N  00000196000000989800001248632G2    AISUAI  005500360039
BI00B32G2    SA22044 MW     202203307283-7526-30             CONNECTOR HOUSING        CCN000001960000001960FN00000000020220401000001960NNM   20220204121340    4N0N  00000196000000989800001248632G2    AISUAI  005500360039
BI00B32G2    SA22041 MW     202203097283-7526-40             CONNECTOR HOUSING        CCN000005880000005880FN00000000020220401000005880NNM   20220204121340    4N0N  00000196000000989800001248632G2    AISUAI  005500360039
BI00B32G2    SA22042 MW     202203167283-7526-40             CONNECTOR HOUSING        CCN000003920000003920FN00000000020220401000003920NNM   20220204121340    4N0N  00000196000000989800001248632G2    AISUAI  005500360039
BI00B32G2    SA22043 MW     202203237283-7526-40             CONNECTOR HOUSING        CCN000003920000003920FN00000000020220401000003920NNM   20220204121340    4N0N  00000196000000989800001248632G2    AISUAI  005500360039
BI00B32G2    SA22044 MW     202203307283-7526-40             CONNECTOR HOUSING        CCN000001960000001960FN00000000020220401000001960NNM   20220204121340    4N0N  00000196000000989800001248632G2    AISUAI  005500360039
BI00B32G2    SA22041 MW     202203097283-8221-30             CONNECTOR                CCN000002000000002000FN00000000020220401000002000NNM   20220204121340    1N0N  00000200000001260000001405532G2    AISUAI  005600390040
BI00B32G2    SA22041 MW     202203097287-1917                CONNECTOR FEMALE         CCN000016800000016800FN00000000020220401000016800NNM   20220204121340    4N0N  00000240000001060800001312532G2    AISUAI  005500360039
BI00B32G2    SA22042 MW     202203167287-1917                CONNECTOR FEMALE         CCN000014400000014400FN00000000020220401000014400NNM   20220204121340    4N0N  00000240000001060800001312532G2    AISUAI  005500360039
BI00B32G2    SA22043 MW     202203237287-1917                CONNECTOR FEMALE         CCN000014400000014400FN00000000020220401000014400NNM   20220204121340    4N0N  00000240000001060800001312532G2    AISUAI  005500360039
BI00B32G2    SA22044 MW     202203307287-1917                CONNECTOR FEMALE         CCN000012000000012000FN00000000020220401000012000NNM   20220204121340    4N0N  00000240000001060800001312532G2    AISUAI  005500360039
BI00B32G2    SA22041 MW     202203097287-7599-10             HOUSING FEMALE ASS'Y     CCN000009600000009600FN00000000020220401000009600NNM   20220204121340    4N0N  00000160000001233600001445632G2    AISUAI  005500360039
BI00B32G2    SA22042 MW     202203167287-7599-10             HOUSING FEMALE ASS'Y     CCN000006400000006400FN00000000020220401000006400NNM   20220204121340    4N0N  00000160000001233600001445632G2    AISUAI  005500360039
BI00B32G2    SA22043 MW     202203237287-7599-10             HOUSING FEMALE ASS'Y     CCN000004800000004800FN00000000020220401000004800NNM   20220204121340    4N0N  00000160000001233600001445632G2    AISUAI  005500360039
BI00B32G2    SA22044 MW     202203307287-7599-10             HOUSING FEMALE ASS'Y     CCN000003200000003200FN00000000020220401000003200NNM   20220204121340    4N0N  00000160000001233600001445632G2    AISUAI  005500360039
BI00B32G2    SA22041 MW     202203097289-3342                HOUSING FEMALE ASS'Y     CCN000009600000009600FN00000000020220401000009600NNM   20220204121340    1N0N  00000240000000686400000901432G2    AISUAI  005500360039
BI00B32G2    SA22042 MW     202203167289-3342                HOUSING FEMALE ASS'Y     CCN000007200000007200FN00000000020220401000007200NNM   20220204121340    1N0N  00000240000000686400000901432G2    AISUAI  005500360039
BI00B32G2    SA22043 MW     202203237289-3342                HOUSING FEMALE ASS'Y     CCN000007200000007200FN00000000020220401000007200NNM   20220204121340    1N0N  00000240000000686400000901432G2    AISUAI  005500360039
BI00B32G2    SA22044 MW     202203307289-3342                HOUSING FEMALE ASS'Y     CCN000004800000004800FN00000000020220401000004800NNM   20220204121340    1N0N  00000240000000686400000901432G2    AISUAI  005500360039
BI00B32G2    SA22041 MW     202203097289-3342-30             HOUSING FEMALE ASS'Y     CCN000072000000072000FN00000000020220401000072000NNM   20220204121340    1N0N  00000240000000686400000901432G2    AISUAI  005500360039
BI00B32G2    SA22042 MW     202203167289-3342-30             HOUSING FEMALE ASS'Y     CCN000048000000048000FN00000000020220401000048000NNM   20220204121340    1N0N  00000240000000686400000901432G2    AISUAI  005500360039
BI00B32G2    SA22043 MW     202203237289-3342-30             HOUSING FEMALE ASS'Y     CCN000036000000036000FN00000000020220401000036000NNM   20220204121340    1N0N  00000240000000686400000901432G2    AISUAI  005500360039
BI00B32G2    SA22044 MW     202203307289-3342-30             HOUSING FEMALE ASS'Y     CCN000019200000019200FN00000000020220401000019200NNM   20220204121340    1N0N  00000240000000686400000901432G2    AISUAI  005500360039
BI00B32G2    SA22041 MW     202203097289-3342-40             HOUSING FEMALE ASS'Y     CCN000004800000004800FN00000000020220401000004800NNM   20220204121340    1N0N  00000240000000686400000901432G2    AISUAI  005500360039
BI00B32G2    SA22042 MW     202203167289-3342-40             HOUSING FEMALE ASS'Y     CCN000004800000004800FN00000000020220401000004800NNM   20220204121340    1N0N  00000240000000686400000901432G2    AISUAI  005500360039
BI00B32G2    SA22043 MW     202203237289-3342-40             HOUSING FEMALE ASS'Y     CCN000002400000002400FN00000000020220401000002400NNM   20220204121340    1N0N  00000240000000686400000901432G2    AISUAI  005500360039
BI00B32G2    SA22044 MW     202203307289-3342-40             HOUSING FEMALE ASS'Y     CCN000002400000002400FN00000000020220401000002400NNM   20220204121340    1N0N  00000240000000686400000901432G2    AISUAI  005500360039
BI00B32G2    SA22041 MW     202203097327-6424-4W             BATTERY FUSE             CCN000001152000001152FN00000000020220401000001152NNM   20220204121340    4N0N  00000009600001109500001259632G2    AISUAI  005400370024
BI00B32G2    SA22042 MW     202203167327-6424-4W             BATTERY FUSE             CCN000000864000000864FN00000000020220401000000864NNM   20220204121340    4N0N  00000009600001109500001259632G2    AISUAI  005400370024
BI00B32G2    SA22043 MW     202203237327-6424-4W             BATTERY FUSE             CCN000000672000000672FN00000000020220401000000672NNM   20220204121340    4N0N  00000009600001109500001259632G2    AISUAI  005400370024
BI00B32G2    SA22044 MW     202203307327-6424-4W             BATTERY FUSE             CCN000000480000000480FN00000000020220401000000480NNM   20220204121340    4N0N  00000009600001109500001259632G2    AISUAI  005400370024
BI00B32G2    SA22041 MW     202203097327-6572-3W             BATTERY FUSE             CCN000000576000000576FN00000000020220401000000576NNM   20220204121340    4N0N  00000009600001109500001259632G2    AISUAI  005400370024
BI00B32G2    SA22042 MW     202203167327-6572-3W             BATTERY FUSE             CCN000000384000000384FN00000000020220401000000384NNM   20220204121340    4N0N  00000009600001109500001259632G2    AISUAI  005400370024
BI00B32G2    SA22043 MW     202203237327-6572-3W             BATTERY FUSE             CCN000000288000000288FN00000000020220401000000288NNM   20220204121340    4N0N  00000009600001109500001259632G2    AISUAI  005400370024
BI00B32G2    SA22044 MW     202203307327-6572-3W             BATTERY FUSE             CCN000000192000000192FN00000000020220401000000192NNM   20220204121340    4N0N  00000009600001109500001259632G2    AISUAI  005400370024
BI00B32G2    SA22041 MW     202203097388-0316-80             CONNECTOR ASS'Y          CCN000003600000003600FN00000000020220401000003600NNM   20220204121340    4N0N  00000120000001002500001132532G2    AISUAI  005400370024
BI00B32G2    SA22042 MW     202203167388-0316-80             CONNECTOR ASS'Y          CCN000003600000003600FN00000000020220401000003600NNM   20220204121340    4N0N  00000120000001002500001132532G2    AISUAI  005400370024
BI00B32G2    SA22043 MW     202203237388-0316-80             CONNECTOR ASS'Y          CCN000002400000002400FN00000000020220401000002400NNM   20220204121340    4N0N  00000120000001002500001132532G2    AISUAI  005400370024
