BI00B32N3    NBT204 A       20220217180D0203943              AVSSH 0.5F W/B           CCN000001500000001500FN00000000020220201000001500NNE   20220204165043    1W    00000150000000689000000000032N3    ABYIPL-B000000000000XA122005
BI00B32N3    NBT204 A       20220217180D0203950              AVSSH 0.5F R             CCN000001500000001500FN00000000020220201000001500NNE   20220204165043    1W    00000150000000689000000000032N3    ABYIPL-B000000000000XA122004
BI00B32N3    NBT204 A       20220217180D0204160              AVSSH 1.25F G            CCN000000800000000800FN00000000020220201000000800NNE   20220204165043    1W    00000080000001458000000000032N3    ABYIPL-B000000000000XA122006
BI00B32N3    NBT204 A       20220217180D0204190              AVSSH 1.25F L            CCN000001600000001600FN00000000020220201000001600NNE   20220204165043    1W    00000080000001458000000000032N3    ABYIPL-B000000000000XA122007
BI00B32N3    NBT204 A       2022021718009604360              AVS 3 G                  CCN000001200000001200FN00000000020220201000001200NNE   20220204165043    1W    00000040000003831600000000032N3    ABYIPL-B000000000000XA122008
BI00A32P8    TAPAW-201E     2022020918007703991              AVSS 0.5F SB             CCN000003000000003000FN00000000020220201000003000NNE   20220204155958    1W    00000150000000674000000000032P8    YIYTM   000000000000YP421001
BI00A32P8    TAPAW-201E     2022020918007704091              AVSS 0.75F SB            CCN000002000000002000FN00000000020220201000002000NNE   20220204155958    1W    00000100000000943000000000032P8    YIYTM   000000000000YP421002
BI00B32Q8    EW2203DTMW     2022030218007704192              AVSS 1.25F V             CCN000016000000016000FN00000000020220301000016000NNE   20220204131924    1W    00000080000001389000000000032Q8    EMEMI   000000000000MP322019
BI00B32Q8    EW2203DTMW     20220302180D0203760              AVSSH 0.3F G             CCN000104000000104000FN00000000020220301000104000NNE   20220204131924    1W    00000200000000515000000000032Q8    EMEMI   000000000000MP322017
BI00B32Q8    EW2203DTMW     20220302180D0203741              AVSSH 0.3F GY            CCN000038000000038000FN00000000020220301000038000NNE   20220204131924    1W    00000200000000515000000000032Q8    EMEMI   000000000000MP322018
BI00B32Q8    EW2203DTMW     202203021801R704143              CIVUS 1.25 W/B           CCN000028000000028000FN00000000020220301000028000NNE   20220204131924    1W    00000100000001228000000000032Q8    EMEMI   000000000000MP322020
BI00B32Q8    EW2203DTMW     202203021801W00695U              IVSSH 0.35F BE           CCN000015000000015000FN00000000020220301000015000NNE   20220204131924    1W    00000250000000452000000000032Q8    EMEMI   000000000000MP322031
BI00B32Q8    EW2203DTMW     202203021801W006980              IVSSH 0.35F BR           CCN000055000000055000FN00000000020220301000055000NNE   20220204131924    1W    00000250000000452000000000032Q8    EMEMI   000000000000MP322032
BI00B32Q8    EW2203DTMW     202203021801W006990              IVSSH 0.35F L            CCN000577500000577500FN00000000020220301000577500NNE   20220204131924    1W    00000250000000452000000000032Q8    EMEMI   000000000000MP322033
BI00B32Q8    EW2203DTMW     202203021801W006991              IVSSH 0.35F SB           CCN000080000000080000FN00000000020220301000080000NNE   20220204131924    1W    00000250000000452000000000032Q8    EMEMI   000000000000MP322034
BI00B32Q8    EW2203DTMW     202203021801W006943              IVSSH 0.35F W/B          CCN000050000000050000FN00000000020220301000050000NNE   20220204131924    1W    00000250000000452000000000032Q8    EMEMI   000000000000MP322035
BI00B32Q8    EW2203DTMW     202203021801W003990              IVSSH 0.5F L             CCN000021600000021600FN00000000020220301000021600NNE   20220204131924    1W    00000180000000625000000000032Q8    EMEMI   000000000000MP322021
BI00B32Q8    EW2203DTMW     202203021801W003952              IVSSH 0.5F P             CCN000588600000588600FN00000000020220301000588600NNE   20220204131924    1W    00000180000000625000000000032Q8    EMEMI   000000000000MP322022
BI00B32Q8    EW2203DTMW     202203021801W003991              IVSSH 0.5F SB            CCN000007200000007200FN00000000020220301000007200NNE   20220204131924    1W    00000180000000625000000000032Q8    EMEMI   000000000000MP322023
BI00B32Q8    EW2203DTMW     202203021801W003992              IVSSH 0.5F V             CCN000039600000039600FN00000000020220301000039600NNE   20220204131924    1W    00000180000000625000000000032Q8    EMEMI   000000000000MP322024
BI00B32Q8    EW2203DTMW     202203021801W003940              IVSSH 0.5F W             CCN000025200000025200FN00000000020220301000025200NNE   20220204131924    1W    00000180000000625000000000032Q8    EMEMI   000000000000MP322025
BI00B32Q8    EW2203DTMW     202203021801W003970              IVSSH 0.5F Y             CCN000018000000018000FN00000000020220301000018000NNE   20220204131924    1W    00000180000000625000000000032Q8    EMEMI   000000000000MP322026
BI00B32Q8    EW2203DTMW     202203021801W004030              IVSSH 0.75F B            CCN000005200000005200FN00000000020220301000005200NNE   20220204131924    1W    00000130000000882000000000032Q8    EMEMI   000000000000MP322027
BI00B32Q8    EW2203DTMW     202203021801W004050              IVSSH 0.75F R            CCN000143000000143000FN00000000020220301000143000NNE   20220204131924    1W    00000130000000882000000000032Q8    EMEMI   000000000000MP322028
BI00B32Q8    EW2203DTMW     202203021801W004092              IVSSH 0.75F V            CCN000007800000007800FN00000000020220301000007800NNE   20220204131924    1W    00000130000000882000000000032Q8    EMEMI   000000000000MP322029
BI00B32Q8    EW2203DTMW     202203021801W004040              IVSSH 0.75F W            CCN000015600000015600FN00000000020220301000015600NNE   20220204131924    1W    00000130000000882000000000032Q8    EMEMI   000000000000MP322030
