BI00B32B6    W72011         202202111801W003941              IVSSH 0.5F GY            CCN000012600000012600FN00000000020220501000012600NNE   20211230152851B6  1W    00000180000000625000000000032B6    AXARNE-M000000000000AW421004
BI00B32B6    W72011         202202111801W003950              IVSSH 0.5F R             CCN000016200000016200FN00000000020220501000016200NNE   20211230152851B6  1W    00000180000000625000000000032B6    AXARNE-M000000000000AW421007
BI00B32B6    W72011         202202111801W003961              IVSSH 0.5F LG            CCN000012600000012600FN00000000020220501000012600NNE   20211230152851B6  1W    00000180000000625000000000032B6    AXARNE-M000000000000AW421006
BI00B32B6    W72011         202202111801W003970              IVSSH 0.5F Y             CCN000016200000016200FN00000000020220501000016200NNE   20211230152851B6  1W    00000180000000625000000000032B6    AXARNE-M000000000000AW421009
BI00B32B6    W72011         202202111801W003990              IVSSH 0.5F L             CCN000016200000016200FN00000000020220501000016200NNE   20211230152851B6  1W    00000180000000625000000000032B6    AXARNE-M000000000000AW421005
BI00B32B6    W72011         202202111801W003992              IVSSH 0.5F V             CCN000016200000016200FN00000000020220501000016200NNE   20211230152851B6  1W    00000180000000625000000000032B6    AXARNE-M000000000000AW421008
BI00B32B6    W72011         202202111801W004030              IVSSH 0.75F B            CCN000002600000002600FN00000000020220501000002600NNE   20211230152851B6  1W    00000130000000882000000000032B6    AXARNE-M000000000000AW421010
BI00B32B6    W72011         202202111801W00405U              IVSSH 0.75F BE           CCN000002600000002600FN00000000020220501000002600NNE   20211230152851B6  1W    00000130000000882000000000032B6    AXARNE-M000000000000AW421011
BI00B32B6    W72011         202202111801W004060              IVSSH 0.75F G            CCN000002600000002600FN00000000020220501000002600NNE   20211230152851B6  1W    00000130000000882000000000032B6    AXARNE-M000000000000AW421012
BI00B32B6    W72011         202202111801W004061              IVSSH 0.75F LG           CCN000002600000002600FN00000000020220501000002600NNE   20211230152851B6  1W    00000130000000882000000000032B6    AXARNE-M000000000000AW421013
BI00B32B6    @W72011        20220211181B09039H7              CAVSAS 0.5X1 GY/W        CCN000002000000002000FN00000000020220501000002000NNE   20211230152850B6  1W    00000040000002263300000000032B6    AXARNE-M000000000000AW421003
BI00A32H2    @TAW109K       20211001181E48015ZZ              CAVSAS-S 0.5X1 GY        PCN000004400000000000FY00000000020210901000000000NNE10 20211230090836    1W    00000040000001900600000000032H2    HVYHV   000000000000UK11A004
BI00B32P8    @TAPAW-111A1   20211117181E48033ZZ              CAVSAS-S 0.5X3 GY/B      CCN000002400000002200FY00000220020211101000000000NNE00 20211230092348    1W    00000020000003795300000000032P8    YIYTM   000000000000YA11B005
BI00B32P8    @TAPAW-111A1   20220112181E48033ZZ              CAVSAS-S 0.5X3 GY/B      CCN000000200000000200FN00000000020211101000000200NNE20 20211230092330    1W    00000020000003795300000000032P8    YIYTM   000000000000YA11B005
BI00B32W2    HN2202BWMW     2022012518000004550              AV 8 R                   CCN000012000000012000FN00000000020220201000012000NNE   20211230164339    1W    00000010000010466200000000032W2    HNHNY   000000000000HD221001
BI00B32W9    4500185366     2022020118007703973              AVSS 0.5F Y/B            CCN000001500000000000FY00000000020220201000000000NNE10 20211230133930W93 1W    00000150000000674000000000032W93   HKYHK   000000000000ZG321003
BI00B32W9    4500185366     2022020118007704280              AVSS 2F BR               CCN000000500000000000FY00000000020220201000000000NNE10 20211230133930W93 1W    00000050000002126400000000032W93   HKYHK   000000000000ZG321005
