BI00A1200    #2399T51B21    202201117289-4200-30             HOUSING FEMALE ASS'Y     PCN000018000000018000FN00000000020220101000018000NNM00020211230131232    2N0N  0000020000000092600000102101200    YCYC    005400370024
BI00B1200    2399T52113     202203317289-6547                HOUSING FEMALE ASS'Y     CCN000103200000103200FN00000000020220301000103200NNMD0220211230142159    1N0N  0000024000000115200000136201200    YCYC    005500360039
BI00B1200    2399T52114     202203317289-6547                HOUSING FEMALE ASS'Y     CCN000103200000103200FN00000000020220301000103200NNMD0220211230142219    1N0N  0000024000000115200000136201200    YCYC    005500360039
BI00B1200    2399T52115     202204077289-6547                HOUSING FEMALE ASS'Y     CCN000103200000103200FN00000000020220301000103200NNMD0220211230142238    1N0N  0000024000000115200000136201200    YCYC    005500360039
BI00B1200    2399T52116     202204077289-6547                HOUSING FEMALE ASS'Y     CCN000103200000103200FN00000000020220301000103200NNMD0220211230142255    1N0N  0000024000000115200000136201200    YCYC    005500360039
BI00A32A7    ZZ21124BMW     202201067172-5403-30             SEALED PACKING           PCN000032000000032000FN00000000020211201000032000NNM00020211230124942    1C0C  00000400000000653600000701732A7    ZZZZY   004300270014
BI00A32A7    ZZ22013BMW     202201127172-5403-30             SEALED PACKING           PCN000044000000044000FN00000000020220101000044000NNM00020211230131731    1C0C  00000400000000653600000701732A7    ZZZZY   004300270014
BI00B32B1    A22012         202202187114-4032                TERMINAL                 CCN000007500000007500FN00000000020220501000007500NNM   20211230150715B1  4P0P  00000750000000735000001063632B1    AXARNE-M006400630017
BI00B32B1    A22012         202202187158-3168-80             SEALED                   CCN000020000000020000FN00000000020220501000020000NNM   20211230150715B1  1C0C  00002000000000044000000092132B1    AXARNE-M004300260014
BI00B32B1    A22012         202202187282-5553-30             CONNECTOR                CCN000004000000004000FN00000000020220501000004000NNM   20211230150715B1  4N0N  00000100000001010000001187332B1    AXARNE-M005500360039
BI00B32B1    A22012         202202187282-5574-10             CONNECTOR                CCN000000800000000800FN00000000020220501000000800NNM   20211230150715B1  4N0N  00000080000001235000001423032B1    AXARNE-M005600390040
BI00B32B1    A22012         202202187282-6448-40             CONNECTOR                CCN000006400000006400FN00000000020220501000006400NNM   20211230150715B1  4N0N  00000080000000887000001152732B1    AXARNE-M005600390040
BI00B32B1    #A22012        202202187158-3376-50             CONNECTOR WIRE SEAL      CCN000040000000040000FN00000000020220501000040000NNM   20211230150658B1  2C0C  00002000000000184000000240732B1    AXARNE-M002700430014
BI00B32B1    #A22012        202202187283-8226-30             CONNECTOR                CCN000016000000016000FN00000000020220501000016000NNM   20211230150658B1  2N0N  00000200000000820000001008032B1    AXARNE-M005400370024
BI00B32B1    #A22012        202202187283-8397-40             CONNECTOR                CCN000003080000003080FN00000000020220501000003080NNM   20211230150658B1  2N0N  00000154000001007000001222732B1    AXARNE-M005600390023
BI00B32B6    A72012         202202187017-1180-02             TERMINAL                 CCN000144000000144000FN00000000020220501000144000NNM   20211230150813B6  4P0P  00007200000001065600001229032B6    AXARNE-M005100280028
BI00B32B6    A72012         202202187017-1183-02             TERMINAL                 CCN000027000000027000FN00000000020220501000027000NNM   20211230150813B6  4P0P  00002700000001139400001307432B6    AXARNE-M005100280028
BI00B32B6    A72012         202202187116-5045-02             TERMINAL                 CCN000032000000032000FN00000000020220501000032000NNM   20211230150813B6  4P0P  00001600000000678400001007132B6    AXARNE-M006400630017
BI00B32B6    A72012         202202187158-3169-40             SEALING PLUG             CCN000040000000040000FN00000000020220501000040000NNM   20211230150813B6  1C0C  00004000000000156000000204132B6    AXARNE-M004300260014
BI00B32B6    A72012         202202187287-0192-40             SEALED HOUSING ASS'Y     CCN000000960000000960FN00000000020220501000000960NNM   20211230150813B6  4N0N  00000048000001092000001322032B6    AXARNE-M005600390040
BI00B32B6    #A72012        202202187158-3015-10             RUBBER STOPPER           CCN000010000000010000FN00000000020220501000010000NNM   20211230150757B6  2C0C  00001000000000419500000474032B6    AXARNE-M002700430014
BI00B32B7    A82012         202202187158-3166-60             WIRE SEAL                CCN000040000000040000FN00000000020220501000040000NNM   20211230150905B7  1C0C  00004000000000104000000152432B7    AXARNE-M002700430014
BI00B32B7    A82012         202202187158-3167-80             WIRE SEAL                CCN000060000000060000FN00000000020220501000060000NNM   20211230150905B7  1C0C  00002000000000048000000109032B7    AXARNE-M002700430014
BI00B32B7    A82012         202202187158-3169-40             SEALING PLUG             CCN000040000000040000FN00000000020220501000040000NNM   20211230150905B7  1C0C  00004000000000156000000204132B7    AXARNE-M004300260014
BI00B32B7    A82012         202202187282-6448-40             CONNECTOR                CCN000008000000008000FN00000000020220501000008000NNM   20211230150905B7  4N0N  00000080000000887000001152732B7    AXARNE-M005600390040
BI00B32B7    A82012         202202187283-8599-30             CONNECTOR                CCN000001540000001540FN00000000020220501000001540NNM   20211230150905B7  4N0N  00000154000000947100001157032B7    AXARNE-M005600390023
BI00B32B7    #A82012        202203257158-3376-50             CONNECTOR WIRE SEAL      CCN000060000000060000FN00000000020220501000060000NNM   20211230150847B7  2C0C  00002000000000184000000240732B7    AXARNE-M002700430014
BI00B32B7    #A82012        202203257282-8395-40             CONNECTOR                CCN000004000000004000FN00000000020220501000004000NNM   20211230150847B7  2N0N  00000100000001009000001188032B7    AXARNE-M005500360039
BI00B32B7    #A82012        202203257283-8397-40             CONNECTOR                CCN000004620000004620FN00000000020220501000004620NNM   20211230150847B7  2N0N  00000154000001007000001222732B7    AXARNE-M005600390023
BI00B32B7    #A82012        202203257283-8398-40             CONNECTOR                CCN000004620000004620FN00000000020220501000004620NNM   20211230150847B7  2N0N  00000154000001007000001171332B7    AXARNE-M005600390023
BI00B32CG    S211236-S      202203097283-9457-3W             CONNECTOR                CCN000000600000000600FN00000000020220301000000600NNE   20211230124942    4N0N  00000012000000515000001067032CG    ASASIACO005600390023
BI00B32CG    S211236-S      202203097116-4120-02             TERMINAL                 CCN000006000000006000FN00000000020220301000006000NNE   20211230124942    4P0P  00000600000000780000001073632CG    ASASIACO006400630015
BI00B32CG    S211236-S      202203097116-4121-02             TERMINAL                 CCN000004500000004500FN00000000020220301000004500NNE   20211230124942    4P0P  00000450000000618800000912432CG    ASASIACO006400630015
BI00B32CG    #S211237-S     202203097158-3121-80             WIRE SEAL                CCN000020000000020000FN00000000020220301000020000NNE   20211230124942    2C0C  00002000000000118000000187332CG    ASASIACO002700430014
BI00B32DA    SBT2203        202201277283-5830                CONNECTOR                CCN000024000000012000FN00000000020220301000012000NNMQ0220211230142341    1N47  00000600000000954000001104032DA    GBYIPLGB005500360039
BI00B32DA    SBT2203A       202202107283-5830                CONNECTOR                CCN000012000000012000FN00000000020220301000012000NNMD0220211230142412    1N47  00000600000000954000001104032DA    GBYIPLGB005500360039
BI00B32DA    SBT2203        202201277283-5845                CONNECTOR HOUSING        CCN000030000000018000FN00000000020220301000018000NNMQ0220211230142544    1N0N  00000600000000444000000606332DA    GBYIPLGB005400370024
BI00B32DA    SBT2203A       202202107283-5845                CONNECTOR HOUSING        CCN000006000000006000FN00000000020220301000006000NNMD0220211230142613    1N0N  00000600000000444000000606332DA    GBYIPLGB005400370024
BI00B32DA    SBT2203        202201277283-5830-30             CONNECTOR                CCN000018000000012000FN00000000020220301000012000NNMQ0220211230142502    1N0N  00000600000000954000001104032DA    GBYIPLGB005500360039
BI00B32DA    SBT2203        202201277286-3885-40             CONNECTOR MALE ASS'Y     CCN000020850000010800FN00000000020220301000010800NNMQ0420211230142826    1N0N  00000120000000910600001130632DA    GBYIPLGB005500360039
BI00B32DA    SBT2203A       202202107286-3885-40             CONNECTOR MALE ASS'Y     CCN000017200000009600FN00000000020220301000009600NNMD0420211230142810    1N0N  00000120000000910600001130632DA    GBYIPLGB005500360039
BI00B32DA    SBT2203        202202037283-5830                CONNECTOR                CCN000012000000012000FN00000000020220301000012000NNMD0220211230142346    1N47  00000600000000954000001104032DA    GBYIPLGB005500360039
BI00B32DA    SBT2203        202202037283-5830-30             CONNECTOR                CCN000006000000006000FN00000000020220301000006000NNMD0220211230142507    1N0N  00000600000000954000001104032DA    GBYIPLGB005500360039
BI00B32DA    SBT2203        202202037283-5845                CONNECTOR HOUSING        CCN000012000000012000FN00000000020220301000012000NNMD0220211230142551    1N0N  00000600000000444000000606332DA    GBYIPLGB005400370024
BI00B32DA    SBT2203        202202037286-3885-40             CONNECTOR MALE ASS'Y     CCN000010800000010800FN00000000020220301000010800NNMD0420211230142826    1N0N  00000120000000910600001130632DA    GBYIPLGB005500360039
BI00B32DA    SBT2203A       202202177286-3885-40             CONNECTOR MALE ASS'Y     CCN000008400000008400FN00000000020220301000008400NNMD0420211230142816    1N0N  00000120000000910600001130632DA    GBYIPLGB005500360039
BI00A32DE    TCT1124        202201107289-3342-30             HOUSING FEMALE ASS'Y     PCN000144000000072000FN00000000020211201000072000NNM00020211230132105    1N0N  00000240000000686400000901432DE    TVYEV-TV005500360039
BI00B32DG    #RL2011        202201067158-3007-10             RUBBER STOPPER           CCN000100000000100000FN00000000020210101000100000NNM00020211230130417    2H0H  00002000000000308000000362732DG    BFSAIBF 002700430014
BI00A32DG    #RL2013        202201107158-3007-10             RUBBER STOPPER           PCN000060000000060000FN00000000020210101000060000NNM00020211230130402    2H0H  00002000000000308000000362732DG    BFSAIBF 002700430014
BI00B32EJ    T211229P01     202202037116-4037                TERMINAL                 CCN000006000000006000FN00000000020220201000006000NNE   20211230154701EJ  4P0P  00000600000000600000000894232EJ    EJYKBO  006400630015
BI00B32EJ    T211229P01     202202037158-3006-90             RUBBER STOPPER           CCN000020000000020000FN00000000020220201000020000NNE   20211230154701EJ  1C0C  00002000000000330600000386032EJ    EJYKBO  002700430014
BI00B32EJ    T211229P01     202202037283-1968-30             CONNECTOR                CCN000001800000001800FN00000000020220201000001800NNE   20211230154701EJ  1N0N  00000090000001140000001318332EJ    EJYKBO  005600390040
BI00B32EJ    T211229P01     202202037116-4124-02             TERMINAL                 CCN000006000000006000FN00000000020220201000006000NNE   20211230154701EJ  4P0P  00000300000000459900000753532EJ    EJYKBO  006400630015
BI00B32EJ    T211229P01     202202037196-1461-06             TERMINAL FEMALE          CCN000024000000024000FN00000000020220201000024000NNE   20211230154701EJ  4P0P  00002400000000386400000692932EJ    EJYKBO  006400630015
BI00B32EJ    T211229P01     202202037114-4110-02             TERMINAL                 CCN000030000000030000FN00000000020220201000030000NNE   20211230154701EJ  4P0P  00001500000000901500001230132EJ    EJYKBO  006400630017
BI00B32EJ    T211229P01     202202037114-4111-02             TERMINAL                 CCN000012000000012000FN00000000020220201000012000NNE   20211230154701EJ  4P0P  00001200000000758400001087032EJ    EJYKBO  006400630017
BI00B32EJ    T211229P01     202202037114-4112-02             TERMINAL                 CCN000027000000027000FN00000000020220201000027000NNE   20211230154701EJ  4P0P  00000900000000598500000927132EJ    EJYKBO  006400630017
BI00B32EJ    T211229P01     202202037114-4100-02             TERMINAL                 CCN000018000000018000FN00000000020220201000018000NNE   20211230154701EJ  4P0P  00001800000000748800001077432EJ    EJYKBO  006400630017
BI00B32EJ    T211229P01     202202037116-4100-02             TERMINAL                 CCN000045000000045000FN00000000020220201000045000NNE   20211230154701EJ  4P0P  00001500000000696000000990232EJ    EJYKBO  006400630015
BI00B32EJ    T211229P01     202202037116-4122-02             TERMINAL                 CCN000018000000018000FN00000000020220201000018000NNE   20211230154701EJ  4P0P  00000450000000656600000950232EJ    EJYKBO  006400630015
BI00B32EJ    T211229P01     202202037116-4121-02             TERMINAL                 CCN000031500000031500FN00000000020220201000031500NNE   20211230154701EJ  4P0P  00000450000000618800000912432EJ    EJYKBO  006400630015
BI00B32EJ    T211229P01     202202037116-4112-02             TERMINAL                 CCN000078000000078000FN00000000020220201000078000NNE   20211230154701EJ  4P0P  00000600000000450000000738232EJ    EJYKBO  006400630015
BI00B32EJ    T211229P01     202202037116-4110-02             TERMINAL                 CCN000027000000027000FN00000000020220201000027000NNE   20211230154701EJ  4P0P  00000900000000594000000882232EJ    EJYKBO  006400630015
BI00B32EJ    T211229P01     202202037116-4111-02             TERMINAL                 CCN000015000000015000FN00000000020220201000015000NNE   20211230154701EJ  4P0P  00000750000000529500000817732EJ    EJYKBO  006400630015
BI00B32EJ    T211229P01     202202037116-2951-02             TERMINAL                 CCN000005400000005400FN00000000020220201000005400NNE   20211230154701EJ  4P0P  00000540000000817600001111832EJ    EJYKBO  006400630015
BI00B32EJ    T211229P01     202202037158-3166-60             WIRE SEAL                CCN000720000000720000FN00000000020220201000720000NNE   20211230154701EJ  1C0C  00004000000000104000000152432EJ    EJYKBO  002700430014
BI00B32EJ    T211229P01     202202037158-3167-80             WIRE SEAL                CCN000480000000480000FN00000000020220201000480000NNE   20211230154701EJ  1C0C  00002000000000048000000109032EJ    EJYKBO  002700430014
BI00B32EJ    T211229P01     202202037158-3168-80             SEALED                   CCN000020000000020000FN00000000020220201000020000NNE   20211230154701EJ  1C0C  00002000000000044000000092132EJ    EJYKBO  004300260014
BI00B32EJ    T211229P01     202202037158-3169-40             SEALING PLUG             CCN000200000000200000FN00000000020220201000200000NNE   20211230154701EJ  1C0C  00004000000000156000000204132EJ    EJYKBO  004300260014
BI00B32EJ    T211229P01     202202037158-3167-61             WIRE SEAL                CCN000040000000040000FN00000000020220201000040000NNE   20211230154701EJ  1C0C  00002000000000048000000096432EJ    EJYKBO  004300270014
BI00B32EJ    #T211229P01    202202037158-3120-90             CONNECTOR WIRE SEAL      CCN000080000000080000FN00000000020220201000080000NNE   20211230154657EJ  2C0C  00002000000000136000000194032EJ    EJYKBO  002700430014
BI00B32EJ    #T211229P01    202202037157-3992-90             CONNECTOR SEALED         CCN000040000000040000FN00000000020220201000040000NNE   20211230154657EJ  2C0C  00004000000000300000000363332EJ    EJYKBO  002700430014
BI00B32EJ    #T211229P01    202202037123-6423-30             CONNECTOR                CCN000002000000002000FN00000000020220201000002000NNE   20211230154657EJ  2F0F  00000200000001002000001167632EJ    EJYKBO  005600390023
BI00B32EJ    #T211229P01    202202037157-3952-80             RUBBER STOPPER           CCN000010000000010000FN00000000020220201000010000NNE   20211230154657EJ  2C0C  00001000000000117000000175032EJ    EJYKBO  002700430014
BI00B32EJ    T211229P02     202202037158-3070-80             RUBBER STOPPER           CCN000080000000080000FN00000000020220201000080000NNE   20211230154833EJ  1C0C  00004000000000276000000333332EJ    EJYKBO  002700430014
BI00B32EJ    T211229P02     202202037283-1968-30             CONNECTOR                CCN000001800000001800FN00000000020220201000001800NNE   20211230154833EJ  1N0N  00000090000001140000001318332EJ    EJYKBO  005600390040
BI00B32EJ    T211229P02     202202037116-4025                TERMINAL                 CCN000016000000016000FN00000000020220201000016000NNE   20211230154833EJ  4P0P  00001600000000644800000975132EJ    EJYKBO  006400630017
BI00B32EJ    T211229P03     202202037116-4022                TERMINAL                 CCN000013500000013500FN00000000020220201000013500NNE   20211230154902EJ  4P0P  00001350000000618300000903532EJ    EJYKBO  006400630015
BI00B32EJ    T211229P03     202202037283-1020                CONNECTOR                CCN000048000000048000FN00000000020220201000048000NNE   20211230154902EJ  4N0N  00000600000000840000001049332EJ    EJYKBO  005600390040
BI00B32EJ    #T211229P03    202202037123-6423-30             CONNECTOR                CCN000030000000030000FN00000000020220201000030000NNE   20211230154857EJ  2F0F  00000200000001002000001167632EJ    EJYKBO  005600390023
BI00B32EJ    #T211229P03    202202037157-3821                RUBBER STOPPER           CCN000020000000020000FN00000000020220201000020000NNE   20211230154857EJ  2C0C  00002000000000176000000238032EJ    EJYKBO  002700430014
BI00B32E1    NC202D         202202237116-4121-02             TERMINAL                 CCN000009000000009000FN00000000020220201000009000NNED0720211230124942    4P0P  00000450000000618800000912432E1    SPYSE   006400630015
BI00B32E1    NC202D         202202237116-4122-02             TERMINAL                 CCN000009000000009000FN00000000020220201000009000NNED0720211230124942    4P0P  00000450000000656600000950232E1    SPYSE   006400630015
BI00B32E1    NC202D         202202237158-3006-90             RUBBER STOPPER           CCN000040000000040000FN00000000020220201000040000NNED0720211230124942    1C0C  00002000000000330600000386032E1    SPYSE   002700430014
BI00B32E1    NC202D         202202237288-3329-30             HOUSING MALE             CCN000001500000001500FN00000000020220201000001500NNED0720211230124942    4N0N  00000150000000866100001011132E1    SPYSE   005400370024
BI00B32E1    #NC202D        202202237158-3003-90             RUBBER STOPPER           CCN000020000000020000FN00000000020220201000020000NNED0720211230124942    2C0C  00002000000000250000000306032E1    SPYSE   002700430014
BI00B32E2    NY202F         202202237283-1040                CONNECTOR                CCN000002000000002000FN00000000020220201000002000NNED0720211230124942    4N0N  00000200000000396000000670032E2    SPYSE   005600390040
BI00B32E2    #NY202F        202202237158-3121-80             WIRE SEAL                CCN000080000000080000FN00000000020220201000080000NNED0720211230124942    2C0C  00002000000000118000000187332E2    SPYSE   002700430014
BI00B32G2    SA2202BJMW     202201127287-8073                HOUSING FEMALE ASS'Y     CCN000026400000014400FN00000000020220201000014400NNEQ0220211230142914    1N0N  00000240000001166400001386432G2    AISUAI  005500360039
BI00B32G2    SA2202BJMW     202201197287-8073                HOUSING FEMALE ASS'Y     CCN000012000000012000FN00000000020220201000012000NNED0220211230142914    1N0N  00000240000001166400001386432G2    AISUAI  005500360039
BI00A32G7    JJ22021 MW     202201057289-3342-30             HOUSING FEMALE ASS'Y     PCN000043200000024000FN00000000020220201000024000NNMD0420211230132614    1N0N  00000240000000686400000901432G7    JIJAI   005500360039
BI00B32G7    JJ2202D MW     202201207116-2893-02             TERMINAL                 CCN000012000000012000FN00000000020220201000012000NNE   20211230124942    4P0P  00001200000000895200001058632G7    JIJAI   005100280028
BI00B32G7    JJ2202D MW     202201207116-4026                TERMINAL                 CCN000016000000016000FN00000000020220201000016000NNE   20211230124942    4P0P  00001600000000664000000994332G7    JIJAI   006400630017
BI00B32G7    JJ2202D MW     202201207116-4037                TERMINAL                 CCN000024000000024000FN00000000020220201000024000NNE   20211230124942    4P0P  00000600000000600000000894232G7    JIJAI   006400630015
BI00B32G7    JJ2202D MW     202201207116-5044-02             TERMINAL                 CCN000016000000016000FN00000000020220201000016000NNE   20211230124942    4P0P  00001600000000641600000986332G7    JIJAI   006400630017
BI00B32G7    JJ2202D MW     202201207116-5046-02             TERMINAL                 CCN000024000000024000FN00000000020220201000024000NNE   20211230124942    4P0P  00001200000000544800000873532G7    JIJAI   006400630017
BI00B32G7    JJ2202D MW     202201207116-5751-02             TERMINAL                 CCN000024000000024000FN00000000020220201000024000NNE   20211230124942    4P0P  00001200000000379200000664432G7    JIJAI   006400630015
BI00B32G7    JJ2202D MW     202201207126-8853-02             TERMINAL                 CCN000015000000015000FN00000000020220201000015000NNE   20211230124942    4P0P  00000750000000562500000847732G7    JIJAI   006400630015
BI00B32G7    JJ2202D MW     202201207126-8854-02             TERMINAL                 CCN000007500000007500FN00000000020220201000007500NNE   20211230124942    4P0P  00000750000000604500000889732G7    JIJAI   006400630015
BI00B32G7    JJ2202D MW     202201207126-8855-02             TERMINAL                 CCN000018000000018000FN00000000020220201000018000NNE   20211230124942    4P0P  00000600000000510600000795832G7    JIJAI   006400630015
BI00B32G7    JJ2202D MW     202201207158-3009-60             RUBBER STOPPER           CCN000020000000020000FN00000000020220201000020000NNE   20211230124942    1C0C  00002000000000338000000386232G7    JIJAI   002700430014
BI00B32G7    JJ2202D MW     202201207286-1915                CONNECTOR SUB ASSY       CCN000001600000001600FN00000000020220201000001600NNE   20211230124942    4N0N  00000160000000965600001165632G7    JIJAI   005500360039
BI00B32G7    JJ2202D MW     202201207287-1915                CONNECTOR ASS'Y          CCN000002400000002400FN00000000020220201000002400NNE   20211230124942    4N0N  00000240000000666500000923132G7    JIJAI   005500360039
BI00B32G7    JJ2202D MW     202201207288-3331-30             HOUSING MALE             CCN000001500000001500FN00000000020220201000001500NNE   20211230124942    4N0N  00000150000000866000001010932G7    JIJAI   005400370024
BI00B32G7    JJ2202D MW     202201207288-3340-30             HOUSING MALE             CCN000003000000003000FN00000000020220201000003000NNE   20211230124942    4N0N  00000150000000861500001006432G7    JIJAI   005400370024
BI00B32G7    JJ2202D MW     202201207289-3342-30             HOUSING FEMALE ASS'Y     CCN000007200000007200FN00000000020220201000007200NNE   20211230124942    1N0N  00000240000000686400000901432G7    JIJAI   005500360039
BI00B32G7    #JJ2202D MW    202201207158-3003-90             RUBBER STOPPER           CCN000020000000020000FN00000000020220201000020000NNE   20211230124942    2C0C  00002000000000250000000306032G7    JIJAI   002700430014
BI00B32G7    #JJ2202D MW    202201207158-3015-10             RUBBER STOPPER           CCN000020000000020000FN00000000020220201000020000NNE   20211230124942    2C0C  00001000000000419500000474032G7    JIJAI   002700430014
BI00B32G7    #JJ2202D MW    202201207158-3017                RUBBER STOPPER           CCN000020000000020000FN00000000020220201000020000NNE   20211230124942    2C0C  00001000000000375500000435032G7    JIJAI   002700430014
BI00B32G7    JJ2202DMMW     202201207196-0510-02             TERMINAL                 CCN000024000000024000FN00000000020220201000024000NNE   20211230124942    4P0P  00002400000000871200001034632G7    JIJAI   002800510028
BI00B32G7    JJ2202DMMW     202201207196-1103-02             TERMINAL                 CCN000067500000067500FN00000000020220201000067500NNE   20211230124942    4P0P  00002250000000429800000715032G7    JIJAI   006400630015
BI00B32G7    JJ2202DMMW     202201207288-3330-30             HOUSING MALE             CCN000001500000001500FN00000000020220201000001500NNE   20211230124942    4N0N  00000150000000866300001011232G7    JIJAI   005400370024
BI00B32G7    JJ2202DMMW     202201207296-0784-02             TERMINAL ALUMINIUM       CCN000024000000024000FN00000000020220201000024000NNE   20211230124942    4P0P  00002400000000480000000765232G7    JIJAI   006400630015
BI00B32G7    JJ2202DMMW     202201207327-6627-3W             BATTERY FUSE             CCN000000400000000480FN00000000020220201000000480NNE   20211230124942    4N0N  00000009600001332300001534632G7    JIJAI   005500360039
BI00B32G7    #JJ2202DMMW    202201207172-5625-90             RUBBER STOPPER           CCN000020000000020000FN00000000020220201000020000NNE   20211230124942    2H0H  00002000000000082400000133832G7    JIJAI   004300270014
BI00B32G7    #JJ2202DMMW    202201207172-5626-90             RUBBER STOPPER           CCN000020000000020000FN00000000020220201000020000NNE   20211230124942    2H0H  00002000000000076400000127832G7    JIJAI   004300270014
BI00B32G7    #JJ2202DMMW    202201207172-5629-80             RUBBER STOPPER           CCN000020000000020000FN00000000020220201000020000NNE   20211230124942    2H0H  00002000000000060000000111132G7    JIJAI   004300270014
BI00B32G7    #JJ2202DMMW    202201207172-5630-40             RUBBER STOPPER           CCN000020000000020000FN00000000020220201000020000NNE   20211230124942    2H0H  00002000000000044000000095132G7    JIJAI   004300270014
BI00B32G7    #JJ2202DMMW    202201207172-5631-60             RUBBER STOPPER           CCN000020000000020000FN00000000020220201000020000NNE   20211230124942    2H0H  00002000000000042000000093132G7    JIJAI   004300270014
BI00B32G7    #JJ2202DMMW    202201207172-5632-10             DUMMY PLUG               CCN000040000000040000FN00000000020220201000040000NNE   20211230124942    2H0H  00002000000000080400000131832G7    JIJAI   004300270014
BI00B32G7    #JJ2202DMMW    202201207183-0522-30             HOUSING                  CCN000002400000002400FN00000000020220201000002400NNE   20211230124942    2F0F  00000240000000959000001191032G7    JIJAI   005500360039
BI00B32G7    #JJ2202DMMW    202201207183-1615                HOUSING                  CCN000004800000004800FN00000000020220201000004800NNE   20211230124942    2F0F  00000480000000757000001042032G7    JIJAI   005500360039
BI00B32G7    #JJ2202DMMW    202201207189-2978-30             HOUSING FEMALE           CCN000001500000001500FN00000000020220201000001500NNE   20211230124942    2F0F  00000150000000966900001096932G7    JIJAI   005400370024
BI00B32G7    #JJ2202DMMW    202201207289-2913-40             HOUSING FEMALE ASS'Y     CCN000001500000001500FN00000000020220201000001500NNE   20211230124942    2N0N  00000150000000910500001037532G7    JIJAI   005400360024
BI00B32G7    #JJ2202DMMW    202201207289-3622-30             HOUSING FEMALE ASS'Y     CCN000000864000000864FN00000000020220201000000864NNE   20211230124942    2N0N  00000043200000839400001038432G7    JIJAI   005400370024
BI00B32G7    @JJ2202DMMW    202201207287-4098-40             CONNECTOR FEMALE         CCN000002400000002400FN00000000020220201000002400NNE   20211230124942    3N0N  00000240000000672500000908032G7    JIJAI   005500360039
BI00B32G7    JJ22021 MW     202201137289-3342-30             HOUSING FEMALE ASS'Y     CCN000019200000019200FN00000000020220201000019200NNMD0420211230132614    1N0N  00000240000000686400000901432G7    JIJAI   005500360039
BI00B32H0    TT2203AVMW     202201187196-0510-02             TERMINAL                 CCN000024000000024000FN00000000020220301000024000NNE   20211230124942    4P0P  00002400000000871200001034632H0    TTTJY   002800510028
BI00B32H0    TT2203AVMW     202201187196-1325-02             TERMINAL FEMALE          CCN000060000000060000FN00000000020220301000060000NNE   20211230124942    4P0P  00006000000000450000000778732H0    TTTJY   006400630017
BI00B32H0    TT2203AVMW     202201187196-1326-02             TERMINAL FEMALE          CCN000060000000060000FN00000000020220301000060000NNE   20211230124942    4P0P  00006000000000456000000784732H0    TTTJY   006400630017
BI00B32H0    TT2203AVMW     202201187289-6518-30             HOUSING FEMALE ASS'Y     CCN000001200000001200FN00000000020220301000001200NNE   20211230124942    1N0N  00000120000000829200001049232H0    TTTJY   005500360039
BI00B32H0    TT2203AVMW     202201187327-6809                MULTI FUSE               CCN000001120000001120FN00000000020220301000001120NNE   20211230124942    4N0N  00000056000000849300001061732H0    TTTJY   005400370024
BI00B32H0    #TT2203AVMW    202201187158-3017                RUBBER STOPPER           CCN000010000000010000FN00000000020220301000010000NNE   20211230124942    2C0C  00001000000000375500000435032H0    TTTJY   002700430014
BI00B32H0    #TT2203AVMW    202201187158-3075-10             SEALED CONNECTOR         CCN000040000000040000FN00000000020220301000040000NNE   20211230124942    2C0C  00004000000000376000000429732H0    TTTJY   002700430014
BI00B32H0    #TT2203AVMW    202201187172-5625-90             RUBBER STOPPER           CCN000020000000020000FN00000000020220301000020000NNE   20211230124942    2H0H  00002000000000082400000133832H0    TTTJY   004300270014
BI00B32H0    #TT2203AVMW    202201187289-4200-30             HOUSING FEMALE ASS'Y     CCN000002000000002000FN00000000020220301000002000NNE   20211230124942    2N0N  00000200000000926000001021032H0    TTTJY   005400370024
BI00B32H0    TT22041VMW     202202227114-4032                TERMINAL                 CCN000007500000007500FN00000000020220401000007500NNM   20211230124942    4P0P  00000750000000735000001063632H0    TTTJY   006400630017
BI00B32H0    TT22041VMW     202202227114-4624-02             TERMINAL                 CCN000024000000024000FN00000000020220401000024000NNM   20211230124942    4P0P  00002400000000895200001188832H0    TTTJY   006400630015
BI00B32H0    TT22041VMW     202202227114-4728-08             TERMINAL                 CCN000030000000030000FN00000000020220401000030000NNM   20211230124942    4P0P  00003000000000507000000801232H0    TTTJY   006400630015
BI00B32H0    TT22041VMW     202202227114-5096-08             TERMINAL                 CCN000030000000030000FN00000000020220401000030000NNM   20211230124942    4P0P  00003000000000498000000792232H0    TTTJY   006400630015
BI00B32H0    TT22042VMW     202203017114-5096-08             TERMINAL                 CCN000030000000030000FN00000000020220401000030000NNM   20211230124942    4P0P  00003000000000498000000792232H0    TTTJY   006400630015
BI00B32H0    TT22043VMW     202203087114-5096-08             TERMINAL                 CCN000030000000030000FN00000000020220401000030000NNM   20211230124942    4P0P  00003000000000498000000792232H0    TTTJY   006400630015
BI00B32H0    TT22041VMW     202202227114-5748-02             TERMINAL                 CCN000048000000048000FN00000000020220401000048000NNM   20211230124942    4P0P  00001200000000444000000737632H0    TTTJY   006400630015
BI00B32H0    TT22042VMW     202203017114-5748-02             TERMINAL                 CCN000012000000012000FN00000000020220401000012000NNM   20211230124942    4P0P  00001200000000444000000737632H0    TTTJY   006400630015
BI00B32H0    TT22043VMW     202203087114-5748-02             TERMINAL                 CCN000024000000024000FN00000000020220401000024000NNM   20211230124942    4P0P  00001200000000444000000737632H0    TTTJY   006400630015
BI00B32H0    TT22044VMW     202203157114-5748-02             TERMINAL                 CCN000036000000036000FN00000000020220401000036000NNM   20211230124942    4P0P  00001200000000444000000737632H0    TTTJY   006400630015
BI00B32H0    TT22041VMW     202202227116-3153-08             TERMINAL                 CCN000081000000081000FN00000000020220401000081000NNM   20211230124942    4P0P  00002700000000461700000746932H0    TTTJY   006400630015
BI00B32H0    TT22042VMW     202203017116-3153-08             TERMINAL                 CCN000054000000054000FN00000000020220401000054000NNM   20211230124942    4P0P  00002700000000461700000746932H0    TTTJY   006400630015
BI00B32H0    TT22043VMW     202203087116-3153-08             TERMINAL                 CCN000054000000054000FN00000000020220401000054000NNM   20211230124942    4P0P  00002700000000461700000746932H0    TTTJY   006400630015
BI00B32H0    TT22044VMW     202203157116-3153-08             TERMINAL                 CCN000027000000027000FN00000000020220401000027000NNM   20211230124942    4P0P  00002700000000461700000746932H0    TTTJY   006400630015
BI00B32H0    TT22041VMW     202202227116-5045-02             TERMINAL                 CCN000096000000096000FN00000000020220401000096000NNM   20211230124942    4P0P  00001600000000678400001007132H0    TTTJY   006400630017
BI00B32H0    TT22042VMW     202203017116-5045-02             TERMINAL                 CCN000048000000048000FN00000000020220401000048000NNM   20211230124942    4P0P  00001600000000678400001007132H0    TTTJY   006400630017
BI00B32H0    TT22043VMW     202203087116-5045-02             TERMINAL                 CCN000064000000064000FN00000000020220401000064000NNM   20211230124942    4P0P  00001600000000678400001007132H0    TTTJY   006400630017
BI00B32H0    TT22044VMW     202203157116-5045-02             TERMINAL                 CCN000096000000096000FN00000000020220401000096000NNM   20211230124942    4P0P  00001600000000678400001007132H0    TTTJY   006400630017
BI00B32H0    TT22041VMW     202202227116-5046-02             TERMINAL                 CCN000132000000132000FN00000000020220401000132000NNM   20211230124942    4P0P  00001200000000544800000873532H0    TTTJY   006400630017
BI00B32H0    TT22042VMW     202203017116-5046-02             TERMINAL                 CCN000048000000048000FN00000000020220401000048000NNM   20211230124942    4P0P  00001200000000544800000873532H0    TTTJY   006400630017
BI00B32H0    TT22043VMW     202203087116-5046-02             TERMINAL                 CCN000060000000060000FN00000000020220401000060000NNM   20211230124942    4P0P  00001200000000544800000873532H0    TTTJY   006400630017
BI00B32H0    TT22044VMW     202203157116-5046-02             TERMINAL                 CCN000108000000108000FN00000000020220401000108000NNM   20211230124942    4P0P  00001200000000544800000873532H0    TTTJY   006400630017
BI00B32H0    TT22041VMW     202202227116-6041                TERMINAL                 CCN000067500000067500FN00000000020220401000067500NNM   20211230124942    4P0P  00000450000000716000001009632H0    TTTJY   006400630015
BI00B32H0    TT22042VMW     202203017116-6041                TERMINAL                 CCN000027000000027000FN00000000020220401000027000NNM   20211230124942    4P0P  00000450000000716000001009632H0    TTTJY   006400630015
BI00B32H0    TT22043VMW     202203087116-6041                TERMINAL                 CCN000049500000049500FN00000000020220401000049500NNM   20211230124942    4P0P  00000450000000716000001009632H0    TTTJY   006400630015
BI00B32H0    TT22044VMW     202203157116-6041                TERMINAL                 CCN000072000000072000FN00000000020220401000072000NNM   20211230124942    4P0P  00000450000000716000001009632H0    TTTJY   006400630015
BI00B32H0    TT22041VMW     202202227116-6042                TERMINAL                 CCN000027000000027000FN00000000020220401000027000NNM   20211230124942    4P0P  00000300000000523800000856132H0    TTTJY   006400630015
BI00B32H0    TT22042VMW     202203017116-6042                TERMINAL                 CCN000015000000015000FN00000000020220401000015000NNM   20211230124942    4P0P  00000300000000523800000856132H0    TTTJY   006400630015
BI00B32H0    TT22043VMW     202203087116-6042                TERMINAL                 CCN000021000000021000FN00000000020220401000021000NNM   20211230124942    4P0P  00000300000000523800000856132H0    TTTJY   006400630015
BI00B32H0    TT22044VMW     202203157116-6042                TERMINAL                 CCN000027000000027000FN00000000020220401000027000NNM   20211230124942    4P0P  00000300000000523800000856132H0    TTTJY   006400630015
BI00B32H0    TT22041VMW     202202227126-8853-02             TERMINAL                 CCN000217500000217500FN00000000020220401000217500NNM   20211230124942    4P0P  00000750000000562500000847732H0    TTTJY   006400630015
BI00B32H0    TT22042VMW     202203017126-8853-02             TERMINAL                 CCN000060000000060000FN00000000020220401000060000NNM   20211230124942    4P0P  00000750000000562500000847732H0    TTTJY   006400630015
BI00B32H0    TT22043VMW     202203087126-8853-02             TERMINAL                 CCN000127500000127500FN00000000020220401000127500NNM   20211230124942    4P0P  00000750000000562500000847732H0    TTTJY   006400630015
BI00B32H0    TT22044VMW     202203157126-8853-02             TERMINAL                 CCN000180000000180000FN00000000020220401000180000NNM   20211230124942    4P0P  00000750000000562500000847732H0    TTTJY   006400630015
BI00B32H0    TT22041VMW     202202227158-3006-90             RUBBER STOPPER           CCN000060000000060000FN00000000020220401000060000NNM   20211230124942    1C0C  00002000000000330600000386032H0    TTTJY   002700430014
BI00B32H0    TT22042VMW     202203017158-3006-90             RUBBER STOPPER           CCN000060000000060000FN00000000020220401000060000NNM   20211230124942    1C0C  00002000000000330600000386032H0    TTTJY   002700430014
BI00B32H0    TT22043VMW     202203087158-3006-90             RUBBER STOPPER           CCN000080000000080000FN00000000020220401000080000NNM   20211230124942    1C0C  00002000000000330600000386032H0    TTTJY   002700430014
BI00B32H0    TT22044VMW     202203157158-3006-90             RUBBER STOPPER           CCN000100000000100000FN00000000020220401000100000NNM   20211230124942    1C0C  00002000000000330600000386032H0    TTTJY   002700430014
BI00B32H0    TT22041VMW     202202227158-3070-80             RUBBER STOPPER           CCN000080000000080000FN00000000020220401000080000NNM   20211230124942    1C0C  00004000000000276000000333332H0    TTTJY   002700430014
BI00B32H0    TT22042VMW     202203017158-3070-80             RUBBER STOPPER           CCN000040000000040000FN00000000020220401000040000NNM   20211230124942    1C0C  00004000000000276000000333332H0    TTTJY   002700430014
BI00B32H0    TT22043VMW     202203087158-3070-80             RUBBER STOPPER           CCN000040000000040000FN00000000020220401000040000NNM   20211230124942    1C0C  00004000000000276000000333332H0    TTTJY   002700430014
BI00B32H0    TT22044VMW     202203157158-3070-80             RUBBER STOPPER           CCN000040000000040000FN00000000020220401000040000NNM   20211230124942    1C0C  00004000000000276000000333332H0    TTTJY   002700430014
BI00B32H0    TT22041VMW     202202227173-3291-40             LIF LEVER                CCN000002400000002400FN00000000020220401000002400NNM   20211230124942    1F0F  00000240000000867800001067832H0    TTTJY   005500360039
BI00B32H0    TT22041VMW     202202227196-0396-02             TERMINAL                 CCN000075000000075000FN00000000020220401000075000NNM   20211230124942    4P0P  00001500000000949500001112932H0    TTTJY   002800510028
BI00B32H0    TT22042VMW     202203017196-0396-02             TERMINAL                 CCN000015000000015000FN00000000020220401000015000NNM   20211230124942    4P0P  00001500000000949500001112932H0    TTTJY   002800510028
BI00B32H0    TT22043VMW     202203087196-0396-02             TERMINAL                 CCN000045000000045000FN00000000020220401000045000NNM   20211230124942    4P0P  00001500000000949500001112932H0    TTTJY   002800510028
BI00B32H0    TT22044VMW     202203157196-0396-02             TERMINAL                 CCN000060000000060000FN00000000020220401000060000NNM   20211230124942    4P0P  00001500000000949500001112932H0    TTTJY   002800510028
BI00B32H0    TT22041VMW     202202227196-0510-02             TERMINAL                 CCN000048000000048000FN00000000020220401000048000NNM   20211230124942    4P0P  00002400000000871200001034632H0    TTTJY   002800510028
BI00B32H0    TT22041VMW     202202227196-1325-02             TERMINAL FEMALE          CCN000060000000060000FN00000000020220401000060000NNM   20211230124942    4P0P  00006000000000450000000778732H0    TTTJY   006400630017
BI00B32H0    TT22041VMW     202202227196-1326-02             TERMINAL FEMALE          CCN000120000000120000FN00000000020220401000120000NNM   20211230124942    4P0P  00006000000000456000000784732H0    TTTJY   006400630017
BI00B32H0    TT22042VMW     202203017196-1326-02             TERMINAL FEMALE          CCN000120000000120000FN00000000020220401000120000NNM   20211230124942    4P0P  00006000000000456000000784732H0    TTTJY   006400630017
BI00B32H0    TT22041VMW     202202227196-1327-02             TERMINAL FEMALE          CCN000052000000052000FN00000000020220401000052000NNM   20211230124942    4P0P  00005200000000336000000739532H0    TTTJY   006400630017
BI00B32H0    TT22041VMW     202202227270-8994                6P MODULE ASSEMBLY       CCN000005800000005800FN00000000020220401000005800NNM   20211230124942    4J0J  00000010000001098600001298632H0    TTTJY   005400370024
BI00B32H0    TT22042VMW     202203017270-8994                6P MODULE ASSEMBLY       CCN000005800000005800FN00000000020220401000005800NNM   20211230124942    4J0J  00000010000001098600001298632H0    TTTJY   005400370024
BI00B32H0    TT22043VMW     202203087270-8994                6P MODULE ASSEMBLY       CCN000008600000008600FN00000000020220401000008600NNM   20211230124942    4J0J  00000010000001098600001298632H0    TTTJY   005400370024
BI00B32H0    TT22044VMW     202203157270-8994                6P MODULE ASSEMBLY       CCN000011500000011500FN00000000020220401000011500NNM   20211230124942    4J0J  00000010000001098600001298632H0    TTTJY   005400370024
BI00B32H0    TT22041VMW     202202227283-1289-40             CONNECTOR HOUSING        CCN000021000000021000FN00000000020220401000021000NNM   20211230124942    1N0N  00000060000000679800000824832H0    TTTJY   005400370024
BI00B32H0    TT22042VMW     202203017283-1289-40             CONNECTOR HOUSING        CCN000003000000003000FN00000000020220401000003000NNM   20211230124942    1N0N  00000060000000679800000824832H0    TTTJY   005400370024
BI00B32H0    TT22043VMW     202203087283-1289-40             CONNECTOR HOUSING        CCN000007200000007200FN00000000020220401000007200NNM   20211230124942    1N0N  00000060000000679800000824832H0    TTTJY   005400370024
BI00B32H0    TT22044VMW     202203157283-1289-40             CONNECTOR HOUSING        CCN000009600000009600FN00000000020220401000009600NNM   20211230124942    1N0N  00000060000000679800000824832H0    TTTJY   005400370024
BI00B32H0    TT22043VMW     202203087283-1928-80             CONNECTOR                CCN000014000000014000FN00000000020220401000014000NNM   20211230124942    4N0N  00000200000001180000001358332H0    TTTJY   005500360039
BI00B32H0    TT22044VMW     202203157283-1928-80             CONNECTOR                CCN000014000000014000FN00000000020220401000014000NNM   20211230124942    4N0N  00000200000001180000001358332H0    TTTJY   005500360039
BI00B32H0    TT22041VMW     202202227283-4855                CONNECTOR HOUSING        CCN000002400000002400FN00000000020220401000002400NNM   20211230124942    4N0N  00000240000001188400001400032H0    TTTJY   005500360039
BI00B32H0    TT22041VMW     202202227288-3206                HOUSING MALE ASS'Y       CCN000001020000001020FN00000000020220401000001020NNM   20211230124942    1N0N  00000102000000387600000787632H0    TTTJY   005500360039
BI00B32H0    TT22041VMW     202202227288-6547                CONNECTOR MALE ASS'Y     CCN000005250000005250FN00000000020220401000005250NNM   20211230124942    4N0N  00000075000001205300001340332H0    TTTJY   005400370024
BI00B32H0    TT22042VMW     202203017288-6547                CONNECTOR MALE ASS'Y     CCN000002250000002250FN00000000020220401000002250NNM   20211230124942    4N0N  00000075000001205300001340332H0    TTTJY   005400370024
BI00B32H0    TT22043VMW     202203087288-6547                CONNECTOR MALE ASS'Y     CCN000001500000001500FN00000000020220401000001500NNM   20211230124942    4N0N  00000075000001205300001340332H0    TTTJY   005400370024
BI00B32H0    TT22044VMW     202203157288-6547                CONNECTOR MALE ASS'Y     CCN000001500000001500FN00000000020220401000001500NNM   20211230124942    4N0N  00000075000001205300001340332H0    TTTJY   005400370024
BI00B32H0    TT22041VMW     202202227289-6518-30             HOUSING FEMALE ASS'Y     CCN000001200000001200FN00000000020220401000001200NNM   20211230124942    1N0N  00000120000000829200001049232H0    TTTJY   005500360039
BI00B32H0    TT22041VMW     202202227289-6547                HOUSING FEMALE ASS'Y     CCN000004800000004800FN00000000020220401000004800NNM   20211230124942    1N0N  00000240000001152000001362032H0    TTTJY   005500360039
BI00B32H0    TT22042VMW     202203017289-6547                HOUSING FEMALE ASS'Y     CCN000004800000004800FN00000000020220401000004800NNM   20211230124942    1N0N  00000240000001152000001362032H0    TTTJY   005500360039
BI00B32H0    TT22041VMW     202202227289-6597-70             HOUSING FEMALE ASS'Y     CCN000002160000002160FN00000000020220401000002160NNM   20211230124942    4N0N  00000216000001289500001539532H0    TTTJY   005500360039
BI00B32H0    TT22042VMW     202203017289-6597-70             HOUSING FEMALE ASS'Y     CCN000002160000002160FN00000000020220401000002160NNM   20211230124942    4N0N  00000216000001289500001539532H0    TTTJY   005500360039
BI00B32H0    TT22042VMW     202203017327-6731-3W             BATTERY FUSE             CCN000009152000009152FN00000000020220401000009152NNM   20211230124942    4N0N  00000006400000697600000843032H0    TTTJY   005400370024
BI00B32H0    TT22043VMW     202203087327-6731-3W             BATTERY FUSE             CCN000001408000001408FN00000000020220401000001408NNM   20211230124942    4N0N  00000006400000697600000843032H0    TTTJY   005400370024
BI00B32H0    TT22044VMW     202203157327-6731-3W             BATTERY FUSE             CCN000009216000009216FN00000000020220401000009216NNM   20211230124942    4N0N  00000006400000697600000843032H0    TTTJY   005400370024
BI00B32H0    TT22041VMW     202202227327-6809                MULTI FUSE               CCN000001120000001120FN00000000020220401000001120NNM   20211230124942    4N0N  00000056000000849300001061732H0    TTTJY   005400370024
BI00B32H0    TT22042VMW     202203017327-6809                MULTI FUSE               CCN000000560000000560FN00000000020220401000000560NNM   20211230124942    4N0N  00000056000000849300001061732H0    TTTJY   005400370024
BI00B32H0    TT22041VMW     202202227386-9155                CONNECTOR MALE ASS'Y     CCN000002400000002400FN00000000020220401000002400NNM   20211230124942    4N0N  00000060000001244400001369932H0    TTTJY   005400370024
BI00B32H0    TT22042VMW     202203017386-9155                CONNECTOR MALE ASS'Y     CCN000001200000001200FN00000000020220401000001200NNM   20211230124942    4N0N  00000060000001244400001369932H0    TTTJY   005400370024
BI00B32H0    TT22043VMW     202203087386-9155                CONNECTOR MALE ASS'Y     CCN000000600000000600FN00000000020220401000000600NNM   20211230124942    4N0N  00000060000001244400001369932H0    TTTJY   005400370024
BI00B32H0    TT22041VMW     202202227388-2978-30             HOUSING MALE ASS'Y       CCN000023520000023520FN00000000020220401000023520NNM   20211230124942    1N0N  00000048000000742000001122032H0    TTTJY   005500360039
BI00B32H0    TT22042VMW     202203017388-2978-30             HOUSING MALE ASS'Y       CCN000003840000003840FN00000000020220401000003840NNM   20211230124942    1N0N  00000048000000742000001122032H0    TTTJY   005500360039
BI00B32H0    TT22043VMW     202203087388-2978-30             HOUSING MALE ASS'Y       CCN000017760000017760FN00000000020220401000017760NNM   20211230124942    1N0N  00000048000000742000001122032H0    TTTJY   005500360039
BI00B32H0    TT22044VMW     202203157388-2978-30             HOUSING MALE ASS'Y       CCN000024000000024000FN00000000020220401000024000NNM   20211230124942    1N0N  00000048000000742000001122032H0    TTTJY   005500360039
BI00B32H0    #TT22041VMW    202202227154-5597-30             CASSETTE R/B             CCN000000800000000800FN00000000020220401000000800NNM   20211230124942    2F0F  00000080000000736000000952032H0    TTTJY   005500360039
BI00B32H0    #TT22041VMW    202202227157-6826-80             REAR HOLDER              CCN000015000000015000FN00000000020220401000015000NNM   20211230124942    2F0F  00001500000001234500001394132H0    TTTJY   005600390040
BI00B32H0    #TT22041VMW    202202227158-3003-90             RUBBER STOPPER           CCN000140000000140000FN00000000020220401000140000NNM   20211230124942    2C0C  00002000000000250000000306032H0    TTTJY   002700430014
BI00B32H0    #TT22042VMW    202203017158-3003-90             RUBBER STOPPER           CCN000040000000040000FN00000000020220401000040000NNM   20211230124942    2C0C  00002000000000250000000306032H0    TTTJY   002700430014
BI00B32H0    #TT22043VMW    202203087158-3003-90             RUBBER STOPPER           CCN000100000000100000FN00000000020220401000100000NNM   20211230124942    2C0C  00002000000000250000000306032H0    TTTJY   002700430014
BI00B32H0    #TT22044VMW    202203157158-3003-90             RUBBER STOPPER           CCN000140000000140000FN00000000020220401000140000NNM   20211230124942    2C0C  00002000000000250000000306032H0    TTTJY   002700430014
BI00B32H0    #TT22041VMW    202202227158-3005-80             RUBBER STOPPER           CCN000060000000060000FN00000000020220401000060000NNM   20211230124942    2H0H  00002000000000210000000268732H0    TTTJY   002700430014
BI00B32H0    #TT22042VMW    202203017158-3005-80             RUBBER STOPPER           CCN000040000000040000FN00000000020220401000040000NNM   20211230124942    2H0H  00002000000000210000000268732H0    TTTJY   002700430014
BI00B32H0    #TT22043VMW    202203087158-3005-80             RUBBER STOPPER           CCN000040000000040000FN00000000020220401000040000NNM   20211230124942    2H0H  00002000000000210000000268732H0    TTTJY   002700430014
BI00B32H0    #TT22044VMW    202203157158-3005-80             RUBBER STOPPER           CCN000040000000040000FN00000000020220401000040000NNM   20211230124942    2H0H  00002000000000210000000268732H0    TTTJY   002700430014
BI00B32H0    #TT22041VMW    202202227158-3007-10             RUBBER STOPPER           CCN000020000000020000FN00000000020220401000020000NNM   20211230124942    2H0H  00002000000000308000000362732H0    TTTJY   002700430014
BI00B32H0    #TT22042VMW    202203017158-3007-10             RUBBER STOPPER           CCN000020000000020000FN00000000020220401000020000NNM   20211230124942    2H0H  00002000000000308000000362732H0    TTTJY   002700430014
BI00B32H0    #TT22041VMW    202202227158-3008-80             RUBBER STOPPER           CCN000080000000080000FN00000000020220401000080000NNM   20211230124942    2C0C  00002000000000288000000343032H0    TTTJY   004300270014
BI00B32H0    #TT22042VMW    202203017158-3008-80             RUBBER STOPPER           CCN000020000000020000FN00000000020220401000020000NNM   20211230124942    2C0C  00002000000000288000000343032H0    TTTJY   004300270014
BI00B32H0    #TT22043VMW    202203087158-3008-80             RUBBER STOPPER           CCN000020000000020000FN00000000020220401000020000NNM   20211230124942    2C0C  00002000000000288000000343032H0    TTTJY   004300270014
BI00B32H0    #TT22044VMW    202203157158-3008-80             RUBBER STOPPER           CCN000040000000040000FN00000000020220401000040000NNM   20211230124942    2C0C  00002000000000288000000343032H0    TTTJY   004300270014
BI00B32H0    #TT22041VMW    202202227158-3015-10             RUBBER STOPPER           CCN000080000000080000FN00000000020220401000080000NNM   20211230124942    2C0C  00001000000000419500000474032H0    TTTJY   002700430014
BI00B32H0    #TT22042VMW    202203017158-3015-10             RUBBER STOPPER           CCN000010000000010000FN00000000020220401000010000NNM   20211230124942    2C0C  00001000000000419500000474032H0    TTTJY   002700430014
BI00B32H0    #TT22043VMW    202203087158-3015-10             RUBBER STOPPER           CCN000040000000040000FN00000000020220401000040000NNM   20211230124942    2C0C  00001000000000419500000474032H0    TTTJY   002700430014
BI00B32H0    #TT22044VMW    202203157158-3015-10             RUBBER STOPPER           CCN000040000000040000FN00000000020220401000040000NNM   20211230124942    2C0C  00001000000000419500000474032H0    TTTJY   002700430014
BI00B32H0    #TT22041VMW    202202227158-3017                RUBBER STOPPER           CCN000040000000040000FN00000000020220401000040000NNM   20211230124942    2C0C  00001000000000375500000435032H0    TTTJY   002700430014
BI00B32H0    #TT22042VMW    202203017158-3017                RUBBER STOPPER           CCN000010000000010000FN00000000020220401000010000NNM   20211230124942    2C0C  00001000000000375500000435032H0    TTTJY   002700430014
BI00B32H0    #TT22043VMW    202203087158-3017                RUBBER STOPPER           CCN000010000000010000FN00000000020220401000010000NNM   20211230124942    2C0C  00001000000000375500000435032H0    TTTJY   002700430014
BI00B32H0    #TT22044VMW    202203157158-3017                RUBBER STOPPER           CCN000010000000010000FN00000000020220401000010000NNM   20211230124942    2C0C  00001000000000375500000435032H0    TTTJY   002700430014
BI00B32H0    #TT22041VMW    202202227172-5625-90             RUBBER STOPPER           CCN000060000000060000FN00000000020220401000060000NNM   20211230124942    2H0H  00002000000000082400000133832H0    TTTJY   004300270014
BI00B32H0    #TT22042VMW    202203017172-5625-90             RUBBER STOPPER           CCN000040000000040000FN00000000020220401000040000NNM   20211230124942    2H0H  00002000000000082400000133832H0    TTTJY   004300270014
BI00B32H0    #TT22043VMW    202203087172-5625-90             RUBBER STOPPER           CCN000020000000020000FN00000000020220401000020000NNM   20211230124942    2H0H  00002000000000082400000133832H0    TTTJY   004300270014
BI00B32H0    #TT22044VMW    202203157172-5625-90             RUBBER STOPPER           CCN000020000000020000FN00000000020220401000020000NNM   20211230124942    2H0H  00002000000000082400000133832H0    TTTJY   004300270014
BI00B32H0    #TT22041VMW    202202227172-5626-90             RUBBER STOPPER           CCN000020000000020000FN00000000020220401000020000NNM   20211230124942    2H0H  00002000000000076400000127832H0    TTTJY   004300270014
BI00B32H0    #TT22042VMW    202203017172-5626-90             RUBBER STOPPER           CCN000020000000020000FN00000000020220401000020000NNM   20211230124942    2H0H  00002000000000076400000127832H0    TTTJY   004300270014
BI00B32H0    #TT22043VMW    202203087172-5626-90             RUBBER STOPPER           CCN000020000000020000FN00000000020220401000020000NNM   20211230124942    2H0H  00002000000000076400000127832H0    TTTJY   004300270014
BI00B32H0    #TT22041VMW    202202227172-5627-60             RUBBER STOPPER           CCN000060000000060000FN00000000020220401000060000NNM   20211230124942    2H0H  00002000000000070400000121832H0    TTTJY   004300270014
BI00B32H0    #TT22042VMW    202203017172-5627-60             RUBBER STOPPER           CCN000020000000020000FN00000000020220401000020000NNM   20211230124942    2H0H  00002000000000070400000121832H0    TTTJY   004300270014
BI00B32H0    #TT22043VMW    202203087172-5627-60             RUBBER STOPPER           CCN000020000000020000FN00000000020220401000020000NNM   20211230124942    2H0H  00002000000000070400000121832H0    TTTJY   004300270014
BI00B32H0    #TT22044VMW    202203157172-5627-60             RUBBER STOPPER           CCN000020000000020000FN00000000020220401000020000NNM   20211230124942    2H0H  00002000000000070400000121832H0    TTTJY   004300270014
BI00B32H0    #TT22041VMW    202202227172-5628-80             DUMMY PLUG               CCN000020000000020000FN00000000020220401000020000NNM   20211230124942    2H0H  00002000000000110600000162032H0    TTTJY   004300270014
BI00B32H0    #TT22042VMW    202203017172-5628-80             DUMMY PLUG               CCN000020000000020000FN00000000020220401000020000NNM   20211230124942    2H0H  00002000000000110600000162032H0    TTTJY   004300270014
BI00B32H0    #TT22043VMW    202203087172-5628-80             DUMMY PLUG               CCN000020000000020000FN00000000020220401000020000NNM   20211230124942    2H0H  00002000000000110600000162032H0    TTTJY   004300270014
BI00B32H0    #TT22041VMW    202202227172-5629-80             RUBBER STOPPER           CCN000440000000440000FN00000000020220401000440000NNM   20211230124942    2H0H  00002000000000060000000111132H0    TTTJY   004300270014
BI00B32H0    #TT22042VMW    202203017172-5629-80             RUBBER STOPPER           CCN000140000000140000FN00000000020220401000140000NNM   20211230124942    2H0H  00002000000000060000000111132H0    TTTJY   004300270014
BI00B32H0    #TT22043VMW    202203087172-5629-80             RUBBER STOPPER           CCN000200000000200000FN00000000020220401000200000NNM   20211230124942    2H0H  00002000000000060000000111132H0    TTTJY   004300270014
BI00B32H0    #TT22044VMW    202203157172-5629-80             RUBBER STOPPER           CCN000300000000300000FN00000000020220401000300000NNM   20211230124942    2H0H  00002000000000060000000111132H0    TTTJY   004300270014
BI00B32H0    #TT22041VMW    202202227172-5630-40             RUBBER STOPPER           CCN000120000000120000FN00000000020220401000120000NNM   20211230124942    2H0H  00002000000000044000000095132H0    TTTJY   004300270014
BI00B32H0    #TT22042VMW    202203017172-5630-40             RUBBER STOPPER           CCN000060000000060000FN00000000020220401000060000NNM   20211230124942    2H0H  00002000000000044000000095132H0    TTTJY   004300270014
BI00B32H0    #TT22043VMW    202203087172-5630-40             RUBBER STOPPER           CCN000040000000040000FN00000000020220401000040000NNM   20211230124942    2H0H  00002000000000044000000095132H0    TTTJY   004300270014
BI00B32H0    #TT22044VMW    202203157172-5630-40             RUBBER STOPPER           CCN000060000000060000FN00000000020220401000060000NNM   20211230124942    2H0H  00002000000000044000000095132H0    TTTJY   004300270014
BI00B32H0    #TT22041VMW    202202227172-5631-60             RUBBER STOPPER           CCN000040000000040000FN00000000020220401000040000NNM   20211230124942    2H0H  00002000000000042000000093132H0    TTTJY   004300270014
BI00B32H0    #TT22042VMW    202203017172-5631-60             RUBBER STOPPER           CCN000020000000020000FN00000000020220401000020000NNM   20211230124942    2H0H  00002000000000042000000093132H0    TTTJY   004300270014
BI00B32H0    #TT22043VMW    202203087172-5631-60             RUBBER STOPPER           CCN000020000000020000FN00000000020220401000020000NNM   20211230124942    2H0H  00002000000000042000000093132H0    TTTJY   004300270014
BI00B32H0    #TT22044VMW    202203157172-5631-60             RUBBER STOPPER           CCN000020000000020000FN00000000020220401000020000NNM   20211230124942    2H0H  00002000000000042000000093132H0    TTTJY   004300270014
BI00B32H0    #TT22041VMW    202202227172-5632-10             DUMMY PLUG               CCN000080000000080000FN00000000020220401000080000NNM   20211230124942    2H0H  00002000000000080400000131832H0    TTTJY   004300270014
BI00B32H0    #TT22042VMW    202203017172-5632-10             DUMMY PLUG               CCN000020000000020000FN00000000020220401000020000NNM   20211230124942    2H0H  00002000000000080400000131832H0    TTTJY   004300270014
BI00B32H0    #TT22043VMW    202203087172-5632-10             DUMMY PLUG               CCN000040000000040000FN00000000020220401000040000NNM   20211230124942    2H0H  00002000000000080400000131832H0    TTTJY   004300270014
BI00B32H0    #TT22044VMW    202203157172-5632-10             DUMMY PLUG               CCN000040000000040000FN00000000020220401000040000NNM   20211230124942    2H0H  00002000000000080400000131832H0    TTTJY   004300270014
BI00B32H0    #TT22041VMW    202202227183-1616                CONNECTOR HOUSING        CCN000002400000002400FN00000000020220401000002400NNM   20211230124942    2F0F  00000240000000557500000823332H0    TTTJY   005500360039
BI00B32H0    #TT22042VMW    202203017189-2978-30             HOUSING FEMALE           CCN000024000000024000FN00000000020220401000024000NNM   20211230124942    2F0F  00000150000000966900001096932H0    TTTJY   005400370024
BI00B32H0    #TT22043VMW    202203087189-2978-30             HOUSING FEMALE           CCN000007500000007500FN00000000020220401000007500NNM   20211230124942    2F0F  00000150000000966900001096932H0    TTTJY   005400370024
BI00B32H0    #TT22044VMW    202203157189-2978-30             HOUSING FEMALE           CCN000024000000024000FN00000000020220401000024000NNM   20211230124942    2F0F  00000150000000966900001096932H0    TTTJY   005400370024
BI00B32H0    #TT22041VMW    202202227189-3033                HOUSING FEMALE           CCN000016000000016000FN00000000020220401000016000NNM   20211230124942    2F0F  00000160000001211200001431232H0    TTTJY   005500360039
BI00B32H0    #TT22042VMW    202203017189-3033                HOUSING FEMALE           CCN000006400000006400FN00000000020220401000006400NNM   20211230124942    2F0F  00000160000001211200001431232H0    TTTJY   005500360039
BI00B32H0    #TT22043VMW    202203087189-3033                HOUSING FEMALE           CCN000011200000011200FN00000000020220401000011200NNM   20211230124942    2F0F  00000160000001211200001431232H0    TTTJY   005500360039
BI00B32H0    #TT22044VMW    202203157189-3033                HOUSING FEMALE           CCN000016000000016000FN00000000020220401000016000NNM   20211230124942    2F0F  00000160000001211200001431232H0    TTTJY   005500360039
BI00B32H0    #TT22041VMW    202202227189-3037-40             HOUSING FEMALE           CCN000004800000004800FN00000000020220401000004800NNM   20211230124942    2F0F  00000480000000901600001061632H0    TTTJY   005500360039
BI00B32H0    #TT22041VMW    202202227287-1671                HOUSING FEMALE ASS'Y     CCN000002000000002000FN00000000020220401000002000NNM   20211230124942    2N0N  00000200000000782600000974632H0    TTTJY   005400370024
BI00B32H0    #TT22041VMW    202202227287-9155                HOUSING FEMALE ASS'Y     CCN000001920000001920FN00000000020220401000001920NNM   20211230124942    2N0N  00000096000000853700001045232H0    TTTJY   005400370024
BI00B32H0    #TT22042VMW    202203017287-9155                HOUSING FEMALE ASS'Y     CCN000000960000000960FN00000000020220401000000960NNM   20211230124942    2N0N  00000096000000853700001045232H0    TTTJY   005400370024
BI00B32H0    #TT22041VMW    202202227289-3622-30             HOUSING FEMALE ASS'Y     CCN000006048000006048FN00000000020220401000006048NNM   20211230124942    2N0N  00000043200000839400001038432H0    TTTJY   005400370024
BI00B32H0    #TT22042VMW    202203017289-3622-30             HOUSING FEMALE ASS'Y     CCN000002592000002592FN00000000020220401000002592NNM   20211230124942    2N0N  00000043200000839400001038432H0    TTTJY   005400370024
BI00B32H0    #TT22043VMW    202203087289-3622-30             HOUSING FEMALE ASS'Y     CCN000001728000001728FN00000000020220401000001728NNM   20211230124942    2N0N  00000043200000839400001038432H0    TTTJY   005400370024
BI00B32H0    #TT22044VMW    202203157289-3622-30             HOUSING FEMALE ASS'Y     CCN000000864000000864FN00000000020220401000000864NNM   20211230124942    2N0N  00000043200000839400001038432H0    TTTJY   005400370024
BI00B32H0    #TT22041VMW    202202227289-4200-30             HOUSING FEMALE ASS'Y     CCN000002000000002000FN00000000020220401000002000NNM   20211230124942    2N0N  00000200000000926000001021032H0    TTTJY   005400370024
BI00A32H7    #FS22013DMW    202201107172-5630-40             RUBBER STOPPER           PCN000200000000200000FN00000000020220101000200000NNM00020211230131339    2H0H  00002000000000044000000095132H7    FYFSY   004300270014
BI00A32H7    #FS22014DMW    202201177172-5630-40             RUBBER STOPPER           PCN000200000000200000FN00000000020220101000200000NNM00020211230124942    2H0H  00002000000000044000000095132H7    FYFSY   004300270014
BI00A32M1    TCV1104        202201107289-3342-30             HOUSING FEMALE ASS'Y     PCN000055200000055200FN00000000020211001000055200NNM00020211230132311    1N0N  00000240000000686400000901432M1    VNYEV   005500360039
BI00B32M3    SM22031DMW     202202037172-5403-30             SEALED PACKING           CCN000060000000060000FN00000000020220301000060000NNMD0420211230162005    1C0C  00000400000000653600000701732M3    SASAMI  004300270014
BI00B32M3    SM22032DMW     202202107172-5403-30             SEALED PACKING           CCN000052000000052000FN00000000020220301000052000NNMD0420211230162206    1C0C  00000400000000653600000701732M3    SASAMI  004300270014
BI00B32M3    SM22033DMW     202202177172-5403-30             SEALED PACKING           CCN000048000000048000FN00000000020220301000048000NNMD0420211230162515    1C0C  00000400000000653600000701732M3    SASAMI  004300270014
BI00B32M3    SM22034DMW     202202247172-5403-30             SEALED PACKING           CCN000024000000024000FN00000000020220301000024000NNMD0420211230162555    1C0C  00000400000000653600000701732M3    SASAMI  004300270014
BI00B32M3    SM22031DMW     202202037283-4855                CONNECTOR HOUSING        CCN000002400000002400FN00000000020220301000002400NNMD0420211230162106    4N0N  00000240000001188400001400032M3    SASAMI  005500360039
BI00B32M3    SM22032DMW     202202107283-4855                CONNECTOR HOUSING        CCN000002400000002400FN00000000020220301000002400NNMD0420211230162245    4N0N  00000240000001188400001400032M3    SASAMI  005500360039
BI00B32M3    SM22033DMW     202202177283-4855                CONNECTOR HOUSING        CCN000002400000002400FN00000000020220301000002400NNMD0420211230162527    4N0N  00000240000001188400001400032M3    SASAMI  005500360039
BI00B32M3    SM22031DMW     202202037289-3342-30             HOUSING FEMALE ASS'Y     CCN000016800000016800FN00000000020220301000016800NNMD0420211230162125    1N0N  00000240000000686400000901432M3    SASAMI  005500360039
BI00B32M3    SM22032DMW     202202107289-3342-30             HOUSING FEMALE ASS'Y     CCN000007200000007200FN00000000020220301000007200NNMD0420211230162324    1N0N  00000240000000686400000901432M3    SASAMI  005500360039
BI00B32M3    SM22033DMW     202202177289-3342-30             HOUSING FEMALE ASS'Y     CCN000007200000007200FN00000000020220301000007200NNMD0420211230162347    1N0N  00000240000000686400000901432M3    SASAMI  005500360039
BI00B32M3    SM2202A MW     202201137116-1685-02             TERMINAL                 CCN000048000000048000FN00000000020220201000048000NNE   20211230154342    4P0P  00002400000000897600001065232M3    SASAMI  005100280028
BI00B32M3    SM2202A MW     202201137116-2640                TERMINAL                 CCN000018000000018000FN00000000020220201000018000NNE   20211230154342    4P0P  00001800000001018800001196632M3    SASAMI  005100280028
BI00B32M3    SM2202A MW     202201137116-2641                TERMINAL                 CCN000036000000036000FN00000000020220201000036000NNE   20211230154342    4P0P  00001800000001161000001344632M3    SASAMI  005100280028
BI00B32M3    SM2202A MW     202201137116-4025                TERMINAL                 CCN000080000000080000FN00000000020220201000080000NNE   20211230154342    4P0P  00001600000000644800000975132M3    SASAMI  006400630017
BI00B32M3    SM2202A MW     202201137116-4026                TERMINAL                 CCN000032000000032000FN00000000020220201000032000NNE   20211230154342    4P0P  00001600000000664000000994332M3    SASAMI  006400630017
BI00B32M3    SM2202A MW     202201137116-4032                TERMINAL                 CCN000006000000006000FN00000000020220201000006000NNE   20211230154342    4P0P  00000600000000532800000818032M3    SASAMI  006400630015
BI00B32M3    SM2202A MW     202201137126-8854-02             TERMINAL                 CCN000015000000015000FN00000000020220201000015000NNE   20211230154342    4P0P  00000750000000604500000889732M3    SASAMI  006400630015
BI00B32M3    SM2202A MW     202201137126-8855-02             TERMINAL                 CCN000024000000024000FN00000000020220201000024000NNE   20211230154342    4P0P  00000600000000510600000795832M3    SASAMI  006400630015
BI00B32M3    SM2202A MW     202201137283-1144                CONNECTOR                CCN000002400000002400FN00000000020220201000002400NNE   20211230154342    4N0N  00000240000000602200000866132M3    SASAMI  005500360039
BI00B32M3    SM2202A MW     202201137287-9234                JOINT CONNECTOR          CCN000009600000009600FN00000000020220201000009600NNE   20211230154342    4N0N  00000960000000893800001184832M3    SASAMI  005500360039
BI00B32M3    #SM2202A MW    202201207158-3015-10             RUBBER STOPPER           CCN000020000000020000FN00000000020220201000020000NNE   20211230154326    2C0C  00001000000000419500000474032M3    SASAMI  002700430014
BI00B32M3    #SM2202A MW    202201207189-0149                HLC HOUSING FEMALE       CCN000004000000004000FN00000000020220201000004000NNE   20211230154326    2F0F  00000200000000970000001078532M3    SASAMI  005400370024
BI00B32M3    SM2202ADMW     202201137158-3022-80             RUBBER STOPPER           CCN000005000000005000FN00000000020220201000005000NNE   20211230154406    1C0C  00000500000000467500000524032M3    SASAMI  002700430014
BI00B32M3    @SM2202ADMW    202201137183-2510                HOUSING                  CCN000003000000003000FN00000000020220201000003000NNE   20211230154402    3F0F  00000300000001063500001159032M3    SASAMI  005400370024
BI00B32M3    SM2202AMMW     202201207283-1288-10             CONNECTOR HOUSING        CCN000009600000009600FN00000000020220201000009600NNED0720211230154516    4N0N  00000120000001381000001637032M3    SASAMI  005600390040
BI00B32M3    #SM2202AMMW    202201207158-3120-90             CONNECTOR WIRE SEAL      CCN000020000000020000FN00000000020220201000020000NNE   20211230154426    2C0C  00002000000000136000000194032M3    SASAMI  002700430014
BI00B32N1    NST2114ECU     202112257114-1301                TERMINAL                 CCN000019500000019500FY00001950020220101000000000NNE00020211230085411    4P0P  00001950000000614300000907932N1    TAYIPL  006400630015
BI00B32N1    NST2114ECU     202112257114-4100-02             TERMINAL                 CCN000270000000270000FY00027000020220101000000000NNE00020211230085411    4P0P  00001800000000748800001077432N1    TAYIPL  006400630017
BI00B32N1    NST2114ECU     202112257114-4112-02             TERMINAL                 CCN000108000000108000FY00010800020220101000000000NNE00020211230085411    4P0P  00000900000000598500000927132N1    TAYIPL  006400630017
BI00B32N1    NST2114ECU     202112257114-4416-02             TERMINAL MALE            CCN000216000000216000FY00021600020220101000000000NNE00020211230085411    4P0P  00002700000000442800000731032N1    TAYIPL  006400630015
BI00B32N1    NST2114ECU     202112257116-1471                TERMINAL                 CCN000060000000060000FY00006000020220101000000000NNE00020211230085411    4P0P  00001500000000579000000867232N1    TAYIPL  006400630015
BI00B32N1    NST2114ECU     202112257116-1685-02             TERMINAL                 CCN000336000000336000FY00033600020220101000000000NNE00020211230085411    4P0P  00002400000000897600001065232N1    TAYIPL  005100280028
BI00B32N1    NST2114ECU     202112257116-1686-02             TERMINAL                 CCN000042000000042000FY00004200020220101000000000NNE00020211230085411    4P0P  00002100000000869400001021632N1    TAYIPL  005100280028
BI00B32N1    NST2114ECU     202112257116-2892-02             TERMINAL                 CCN000156000000156000FY00015600020220101000000000NNE00020211230085411    4P0P  00001200000000818400000981832N1    TAYIPL  005100280028
BI00B32N1    NST2114ECU     202112257116-2893-02             TERMINAL                 CCN000132000000132000FY00013200020220101000000000NNE00020211230085411    4P0P  00001200000000895200001058632N1    TAYIPL  005100280028
BI00B32N1    NST2114ECU     202112257116-4020                TERMINAL                 CCN000027000000027000FY00002700020220101000000000NNE00020211230085411    4P0P  00001350000000513000000798232N1    TAYIPL  006400630015
BI00B32N1    NST2114ECU     202112257116-4415-02             TERMINAL                 CCN000342000000342000FY00034200020220101000000000NNE00020211230085411    4P0P  00003800000000596600000925732N1    TAYIPL  006400630017
BI00B32N1    NST2114ECU     202112257116-4416-02             TERMINAL                 CCN001024000001024000FY00102400020220101000000000NNE00020211230085411    4P0P  00003200000000518400000847132N1    TAYIPL  006400630017
BI00B32N1    NST2114ECU     202112257126-8853-02             TERMINAL                 CCN000135000000135000FY00013500020220101000000000NNE00020211230085411    4P0P  00000750000000562500000847732N1    TAYIPL  006400630015
BI00B32N1    NST2114ECU     202112257126-8854-02             TERMINAL                 CCN000285000000285000FY00028500020220101000000000NNE00020211230085411    4P0P  00000750000000604500000889732N1    TAYIPL  006400630015
BI00B32N1    NST2114ECU     202112257126-8855-02             TERMINAL                 CCN000156000000156000FY00015600020220101000000000NNE00020211230085411    4P0P  00000600000000510600000795832N1    TAYIPL  006400630015
BI00B32N1    NST2113A 2     202112287116-1180                TERMINAL                 CCN000565500000565500FY00056550020220101000000000NNM00020211230085520    1P0P  00001950000000618200000903432N1    TAYIPL  006400630015
BI00B32N1    NST2113A 2     202112287158-3023                RUBBER STOPPER           CCN000005000000005000FY00000500020220101000000000NNM00020211230085554    1C0C  00000500000000443500000502032N1    TAYIPL  002700430014
BI00B32N1    NST2113A 2     202112287282-1248                HOUSING SUB ASSEMBLY     CCN000009600000009600FY00000960020220101000000000NNM00020211230085554    1N0N  00000060000001167000001372032N1    TAYIPL  005500360039
BI00B32N1    NST2113A 2     202112287126-8850-02             TERMINAL                 CCN000297000000297000FY00029700020220101000000000NNM00020211230085721    1P0P  00000900000000672300000957532N1    TAYIPL  006400630015
BI00B32N1    NST2113A 2     202112287126-8851-02             TERMINAL                 CCN000531000000531000FY00053100020220101000000000NNM00020211230085721    1P0P  00000900000000739800001025032N1    TAYIPL  006400630015
BI00B32N1    NST2113A 2     202112287126-8852-02             TERMINAL                 CCN000232500000232500FY00023250020220101000000000NNM00020211230085721    1P0P  00000750000000648000000933232N1    TAYIPL  006400630015
BI00B32N1    NST2113A 2     202112287158-3006-90             RUBBER STOPPER           CCN000200000000200000FY00020000020220101000000000NNM00020211230085721    1C0C  00002000000000330600000386032N1    TAYIPL  002700430014
BI00B32N1    NST2113A 2     202112287158-3022-80             RUBBER STOPPER           CCN000005000000005000FY00000500020220101000000000NNM00020211230085721    1C0C  00000500000000467500000524032N1    TAYIPL  002700430014
BI00B32N1    NST2113A 2     202112287158-3168-80             SEALED                   CCN000020000000020000FY00002000020220101000000000NNM00020211230085554    1C0C  00002000000000044000000092132N1    TAYIPL  004300260014
BI00B32N1    NST2113A 2     202112287183-7665-30             HOUSING                  CCN000002400000002400FY00000240020220101000000000NNM00020211230085554    1F0F  00000120000001103300001247832N1    TAYIPL  005500360039
BI00B32N1    NST2113A 2     202112287282-1248-30             HOUSING SUB ASSEMBLY     CCN000004200000004200FY00000420020220101000000000NNM00020211230085554    1N0N  00000060000001167000001372032N1    TAYIPL  005500360039
BI00B32N1    SBT2202        202112287114-4020                TERMINAL                 CCN000063000000063000FY00006300020220201000000000NNM00020211230090007    4P0P  00002100000000875700001169332N1    TAYIPL  006400630015
BI00B32N1    SBT2202        202112287114-4021                TERMINAL                 CCN000165000000165000FY00016500020220201000000000NNM00020211230090007    4P0P  00001500000000670500000964132N1    TAYIPL  006400630015
BI00B32N1    SBT2202        202112287114-4032                TERMINAL                 CCN000015000000015000FY00001500020220201000000000NNM00020211230090007    4P0P  00000750000000735000001063632N1    TAYIPL  006400630017
BI00B32N1    SBT2202        202112287116-4020                TERMINAL                 CCN000054000000054000FY00005400020220201000000000NNM00020211230090007    4P0P  00001350000000513000000798232N1    TAYIPL  006400630015
BI00B32N1    SBT2202        202112287116-4022                TERMINAL                 CCN000027000000027000FY00002700020220201000000000NNM00020211230090007    4P0P  00001350000000618300000903532N1    TAYIPL  006400630015
BI00B32N1    SBT2202        202112287116-4025                TERMINAL                 CCN000240000000240000FY00024000020220201000000000NNM00020211230090007    4P0P  00001600000000644800000975132N1    TAYIPL  006400630017
BI00B32N1    SBT2202        202112287116-4026                TERMINAL                 CCN000080000000080000FY00008000020220201000000000NNM00020211230090007    4P0P  00001600000000664000000994332N1    TAYIPL  006400630017
BI00B32N1    SBT2202        202112287116-4032                TERMINAL                 CCN000066000000066000FY00006600020220201000000000NNM00020211230090007    4P0P  00000600000000532800000818032N1    TAYIPL  006400630015
BI00B32N1    SBT2202        202112287116-4037                TERMINAL                 CCN000054000000054000FY00005400020220201000000000NNM00020211230090007    4P0P  00000600000000600000000894232N1    TAYIPL  006400630015
BI00B32N1    SBT2202        202112287116-6042                TERMINAL                 CCN000039000000039000FY00003900020220201000000000NNM00020211230090007    4P0P  00000300000000523800000856132N1    TAYIPL  006400630015
BI00B32N1    SBT2202        202112287114-4624-02             TERMINAL                 CCN000024000000024000FY00002400020220201000000000NNM00020211230090007    4P0P  00002400000000895200001188832N1    TAYIPL  006400630015
BI00B32N1    SBT2202        202112287114-4728-02             TERMINAL                 CCN000660000000660000FY00066000020220201000000000NNM00020211230090007    4P0P  00003000000000510000000804232N1    TAYIPL  006400630015
BI00B32N1    SBT2202        202112287114-4729-02             TERMINAL                 CCN000120000000120000FY00012000020220201000000000NNM00020211230090007    4P0P  00003000000000516000000810232N1    TAYIPL  006400630015
BI00B32N1    SBT2202        202112287114-5746-02             TERMINAL                 CCN000084000000084000FY00008400020220201000000000NNM00020211230090007    4P0P  00002100000000695100000988732N1    TAYIPL  006400630015
BI00B32N1    SBT2202        202112287114-5747-02             TERMINAL                 CCN000108000000108000FY00010800020220201000000000NNM00020211230090007    4P0P  00001800000000626400000920032N1    TAYIPL  006400630015
BI00B32N1    SBT2202        202112287114-5748-02             TERMINAL                 CCN000132000000132000FY00013200020220201000000000NNM00020211230090007    4P0P  00001200000000444000000737632N1    TAYIPL  006400630015
BI00B32N1    SBT2202        202112287114-5753-02             TERMINAL                 CCN000108000000108000FY00010800020220201000000000NNM00020211230090007    4P0P  00002700000000847800001141432N1    TAYIPL  006400630015
BI00B32N1    SBT2202        202112287116-4415-02             TERMINAL                 CCN000038000000038000FY00003800020220201000000000NNM00020211230090007    4P0P  00003800000000596600000925732N1    TAYIPL  006400630017
BI00B32N1    SBT2202        202112287116-4486-02             TERMINAL                 CCN000308000000308000FY00030800020220201000000000NNM00020211230090007    4P0P  00002800000000666400000995132N1    TAYIPL  006400630017
BI00B32N1    SBT2202        202112287116-5045-02             TERMINAL                 CCN000032000000032000FY00003200020220201000000000NNM00020211230090007    4P0P  00001600000000678400001007132N1    TAYIPL  006400630017
BI00B32N1    SBT2202        202112287116-5750-02             TERMINAL                 CCN000045000000045000FY00004500020220201000000000NNM00020211230090007    4P0P  00001500000000457500000742732N1    TAYIPL  006400630015
BI00B32N1    SBT2202        202112287116-5751-02             TERMINAL                 CCN000060000000060000FY00006000020220201000000000NNM00020211230090007    4P0P  00001200000000379200000664432N1    TAYIPL  006400630015
BI00B32N1    SBT2202        202112287116-5752-02             TERMINAL                 CCN000168000000168000FY00016800020220201000000000NNM00020211230090007    4P0P  00002100000000571200000856432N1    TAYIPL  006400630015
BI00B32N1    SBT2202        202112287196-0805-02             TERMINAL FEMALE          CCN000022500000022500FY00002250020220201000000000NNM00020211230090037    4P0P  00002250000000558000000843232N1    TAYIPL  006400630015
BI00B32N1    #NST2114A 3    202201067282-4190-30             CONNECTOR                CCN000043200000043200FN00000000020220201000043200NNM   20211230124942    2N0N  00000024000000801000001071332N1    TAYIPL  005600390040
BI00B32N1    NST2115FCU     202201137289-4212-80             SEALED HOUSING ASS'Y     CCN000004000000004000FN00000000020220201000004000NNM00020211230145054    4N0N  00000200000000848600000978632N1    TAYIPL  005400370024
BI00B32N1    NST2115FCU     202201137222-7564-40             CONNECTOR                CCN000001000000001000FN00000000020220201000001000NNM00020211230145116    2N0N  00000050000000967000001097032N1    TAYIPL  005500360039
BI00B32N1    NST2115FCU     202201137114-1301                TERMINAL                 CCN000019500000019500FN00000000020220201000019500NNM00020211230145131    4P0P  00001950000000614300000907932N1    TAYIPL  006400630015
BI00B32N1    NST2115FCU     202201137114-1470                TERMINAL                 CCN000181500000181500FN00000000020220201000181500NNM00020211230145145    4P0P  00001650000000544500000838732N1    TAYIPL  006400630015
BI00B32N1    NST2115FCU     202201137116-1473                TERMINAL                 CCN000027000000027000FN00000000020220201000027000NNM00020211230145259    4P0P  00001350000000523800000809032N1    TAYIPL  006400630015
BI00B32N1    NST2115FCU     202201137116-1486-02             TERMINAL                 CCN000132000000132000FN00000000020220201000132000NNM00020211230145314    4P0P  00001650000000655100000940332N1    TAYIPL  006400630015
BI00B32N1    NST2115FCU     202201137116-1685-02             TERMINAL                 CCN000336000000336000FN00000000020220201000336000NNM00020211230145327    4P0P  00002400000000897600001065232N1    TAYIPL  005100280028
BI00B32N1    NST2115FCU     202201137116-4103-02             TERMINAL                 CCN000024000000024000FN00000000020220201000024000NNM00020211230145338    4P0P  00001200000000571200000859432N1    TAYIPL  006400630015
BI00B32N1    NST2115FCU     202201137116-5750-02             TERMINAL                 CCN000030000000030000FN00000000020220201000030000NNM00020211230145353    4P0P  00001500000000457500000742732N1    TAYIPL  006400630015
BI00B32N1    NST2115FCU     202201137116-6042                TERMINAL                 CCN000003000000003000FN00000000020220201000003000NNM00020211230145409    4P0P  00000300000000523800000856132N1    TAYIPL  006400630015
BI00B32N1    NST2115FCU     202201137196-0805-02             TERMINAL FEMALE          CCN000045000000045000FN00000000020220201000045000NNM00020211230145420    4P0P  00002250000000558000000843232N1    TAYIPL  006400630015
BI00B32N1    NST2115FCU     202201137158-3006-90             RUBBER STOPPER           CCN000200000000200000FN00000000020220201000200000NNM00020211230145432    2C0C  00002000000000330600000386032N1    TAYIPL  002700430014
BI00B32N1    NST2115FCU     202201137158-3070-80             RUBBER STOPPER           CCN002800000002800000FN00000000020220201002800000NNM00020211230145500    2C0C  00004000000000276000000333332N1    TAYIPL  002700430014
BI00B32N1    NST2115FCU     202201137158-3166-60             WIRE SEAL                CCN000280000000280000FN00000000020220201000280000NNM00020211230145513    2C0C  00004000000000104000000152432N1    TAYIPL  002700430014
BI00B32N1    NST2115FCU     202201137158-3167-80             WIRE SEAL                CCN002000000002000000FN00000000020220201002000000NNM00020211230145527    2C0C  00002000000000048000000109032N1    TAYIPL  002700430014
BI00A32Q8    #EU22013TMW    202201117172-5629-80             RUBBER STOPPER           PCN000240000000240000FN00000000020220101000240000NNM00020211230131501    2H0H  00002000000000060000000111132Q8    EMEMI   004300270014
BI00A32Q8    #EU22013TMW    202201067289-4200-30             HOUSING FEMALE ASS'Y     PCN000038000000038000FN00000000020220101000038000NNM00020211230124942    2N0N  00000200000000926000001021032Q8    EMEMI   005400370024
BI00A32Q8    #EU2201DTMW    202201117172-5629-80             RUBBER STOPPER           PCN000640000000640000FN00000000020220101000640000NNEM0020211230131501    2H0H  00002000000000060000000111132Q8    EMEMI   004300270014
BI00B32R7    R-TAP210582    202201277298-1186-40             SQUIB SUB ASS'Y          CCN000040000000040000FN00000000020220101000040000NNED0220211230124942    4N0N  00001000000000650000000774532R7    IVYCIC  005400370024
BI00B32R7    R-TAP210613    202202177298-1186-40             SQUIB SUB ASS'Y          CCN000100000000100000FN00000000020220101000100000NNED0220211230124942    4N0N  00001000000000650000000774532R7    IVYCIC  005400370024
BI00B32R7    R-TAP210620    202202247298-1186-40             SQUIB SUB ASS'Y          CCN000040000000040000FN00000000020220201000040000NNED0220211230124942    4N0N  00001000000000650000000774532R7    IVYCIC  005400370024
BI00B32R7    R-TAP210634    202201207158-3006-90             RUBBER STOPPER           CCN001800000001800000FN00000000020220101001800000NNED0720211230124942    1C0C  00002000000000330600000386032R7    IVYCIC  002700430014
BI00B32R7    R-TAP210634    202201207158-3169-40             SEALING PLUG             CCN000160000000160000FN00000000020220101000160000NNED0720211230124942    1C0C  00004000000000156000000204132R7    IVYCIC  004300260014
BI00B32R7    R-TAP210635    202201137158-3006-90             RUBBER STOPPER           CCN000800000000800000FN00000000020220101000800000NNE   20211230124942    1C0C  00002000000000330600000386032R7    IVYCIC  002700430014
BI00B32R7    R-TAP210635    202201137158-3169-40             SEALING PLUG             CCN000040000000040000FN00000000020220101000040000NNE   20211230124942    1C0C  00004000000000156000000204132R7    IVYCIC  004300260014
BI00B32R7    #R-TAP210635   202201137158-3007-10             RUBBER STOPPER           CCN000040000000040000FN00000000020220101000040000NNE   20211230124942    2H0H  00002000000000308000000362732R7    IVYCIC  002700430014
BI00B32R7    R-TAP210636    202201207158-3169-40             SEALING PLUG             CCN000160000000160000FN00000000020220201000160000NNE   20211230124942    1C0C  00004000000000156000000204132R7    IVYCIC  004300260014
BI00B32R7    R-TAP210637    202201207116-1471                TERMINAL                 CCN000015000000015000FN00000000020220201000015000NNE   20211230124942    4P0P  00001500000000579000000867232R7    IVYCIC  006400630015
BI00B32R7    R-TAP210637    202201207116-1473                TERMINAL                 CCN000013500000013500FN00000000020220201000013500NNE   20211230124942    4P0P  00001350000000523800000809032R7    IVYCIC  006400630015
BI00B32U5    DI2012         202202187114-4031                TERMINAL                 CCN000010500000010500FN00000000020220501000010500NNM   20211230151130U5  4P0P  00001050000000966000001294632U5    AMAMSD  006400630017
BI00B32U5    DI2012         202202187289-3342                HOUSING FEMALE ASS'Y     CCN000024000000024000FN00000000020220501000024000NNM   20211230151130U5  1N0N  00000240000000686400000901432U5    AMAMSD  005500360039
BI00B32U5    DI2012         202202187017-1180-02             TERMINAL                 CCN000432000000432000FN00000000020220501000432000NNM   20211230151130U5  4P0P  00007200000001065600001229032U5    AMAMSD  005100280028
BI00B32U5    DI2012         202202187017-1182-02             TERMINAL                 CCN000045000000045000FN00000000020220501000045000NNM   20211230151130U5  4P0P  00004500000001165500001318632U5    AMAMSD  005100280028
BI00B32U5    DI2012         202202187017-1183-02             TERMINAL                 CCN000054000000054000FN00000000020220501000054000NNM   20211230151130U5  4P0P  00002700000001139400001307432U5    AMAMSD  005100280028
BI00B32U5    DI2012         202202187114-4486-02             TERMINAL                 CCN000048000000048000FN00000000020220501000048000NNM   20211230151130U5  4P0P  00002400000000662400000956032U5    AMAMSD  006400630015
BI00B32U5    DI2012         202202187114-4624-02             TERMINAL                 CCN000096000000096000FN00000000020220501000096000NNM   20211230151130U5  4P0P  00002400000000895200001188832U5    AMAMSD  006400630015
BI00B32U5    DI2012         202202187116-1685-02             TERMINAL                 CCN000432000000432000FN00000000020220501000432000NNM   20211230151130U5  4P0P  00002400000000897600001065232U5    AMAMSD  005100280028
BI00B32U5    DI2012         202202187116-4486-02             TERMINAL                 CCN000252000000252000FN00000000020220501000252000NNM   20211230151130U5  4P0P  00002800000000666400000995132U5    AMAMSD  006400630017
BI00B32U5    DI2012         202202187116-5045-02             TERMINAL                 CCN000128000000128000FN00000000020220501000128000NNM   20211230151130U5  4P0P  00001600000000678400001007132U5    AMAMSD  006400630017
BI00B32U5    DI2012         202202187116-5046-02             TERMINAL                 CCN000072000000072000FN00000000020220501000072000NNM   20211230151130U5  4P0P  00001200000000544800000873532U5    AMAMSD  006400630017
BI00B32U5    DI2012         202202187158-3167-80             WIRE SEAL                CCN000040000000040000FN00000000020220501000040000NNM   20211230151130U5  1C0C  00002000000000048000000109032U5    AMAMSD  002700430014
BI00B32U5    DI2012         202202187196-1104-02             TERMINAL                 CCN000292500000292500FN00000000020220501000292500NNM   20211230151130U5  4P0P  00002250000000441000000726232U5    AMAMSD  006400630015
BI00B32U5    DI2012         202202187287-1915-40             CONNECTOR ASS'Y          CCN000004800000004800FN00000000020220501000004800NNM   20211230151130U5  4N0N  00000240000000666500000923132U5    AMAMSD  005500360039
BI00B32U5    DI2012         202202187288-3330-30             HOUSING MALE             CCN000004500000004500FN00000000020220501000004500NNM   20211230151130U5  4N0N  00000150000000866300001011232U5    AMAMSD  005400370024
BI00B32U5    DI2012         202202187288-3339-30             HOUSING MALE             CCN000003000000003000FN00000000020220501000003000NNM   20211230151130U5  4N0N  00000150000000867000001012032U5    AMAMSD  005400370024
BI00B32U5    DI2012         202202187289-3342-30             HOUSING FEMALE ASS'Y     CCN000036000000036000FN00000000020220501000036000NNM   20211230151130U5  1N0N  00000240000000686400000901432U5    AMAMSD  005500360039
BI00B32U5    DI2012         202202187289-4696-30             HOUSING FEMALE ASS'Y     CCN000002000000002000FN00000000020220501000002000NNM   20211230151130U5  4N0N  00000200000000913400001055432U5    AMAMSD  005400370024
BI00B32U5    DI2012         202202187388-2978-30             HOUSING MALE ASS'Y       CCN000004320000004320FN00000000020220501000004320NNM   20211230151130U5  1N0N  00000048000000742000001122032U5    AMAMSD  005500360039
BI00B32U5    DI2012         202202187327-6731-3W             BATTERY FUSE             CCN000003200000003200FN00000000020220501000003200NNM   20211230151130U5  4N0N  00000006400000697600000843032U5    AMAMSD  005400370024
BI00B32U5    #DI2012        202202187189-3032                HOUSING FEMALE           CCN000012800000012800FN00000000020220501000012800NNM   20211230151111U5  2F0F  00000160000000788400001018432U5    AMAMSD  005500360039
BI00B32U5    #DI2012        202202187287-7859                HYBRID FEMALE ASS'Y      CCN000015600000015600FN00000000020220501000015600NNM   20211230151111U5  2N0N  00000120000000461600000671632U5    AMAMSD  005500360039
BI00B32U5    #DI2012        202202187158-3003-90             RUBBER STOPPER           CCN000160000000160000FN00000000020220501000160000NNM   20211230151111U5  2C0C  00002000000000250000000306032U5    AMAMSD  002700430014
BI00B32U5    #DI2012        202202187158-3004-40             RUBBER STOPPER           CCN000020000000020000FN00000000020220501000020000NNM   20211230151111U5  2C0C  00002000000000234000000306332U5    AMAMSD  002700430014
BI00B32U5    #DI2012        202202187158-3008-80             RUBBER STOPPER           CCN000080000000080000FN00000000020220501000080000NNM   20211230151111U5  2C0C  00002000000000288000000343032U5    AMAMSD  004300270014
BI00B32U5    #DI2012        202202187158-3015-10             RUBBER STOPPER           CCN000030000000030000FN00000000020220501000030000NNM   20211230151111U5  2C0C  00001000000000419500000474032U5    AMAMSD  002700430014
BI00B32U5    #DI2012        202202187172-5626-90             RUBBER STOPPER           CCN000280000000280000FN00000000020220501000280000NNM   20211230151111U5  2H0H  00002000000000076400000127832U5    AMAMSD  004300270014
BI00B32U5    #DI2012        202202187172-5627-60             RUBBER STOPPER           CCN000220000000220000FN00000000020220501000220000NNM   20211230151111U5  2H0H  00002000000000070400000121832U5    AMAMSD  004300270014
BI00B32U5    #DI2012        202202187172-5628-80             DUMMY PLUG               CCN000080000000080000FN00000000020220501000080000NNM   20211230151111U5  2H0H  00002000000000110600000162032U5    AMAMSD  004300270014
BI00B32U5    #DI2012        202202187172-5629-80             RUBBER STOPPER           CCN000160000000160000FN00000000020220501000160000NNM   20211230151111U5  2H0H  00002000000000060000000111132U5    AMAMSD  004300270014
BI00B32U5    #DI2012        202202187172-5630-40             RUBBER STOPPER           CCN000380000000380000FN00000000020220501000380000NNM   20211230151111U5  2H0H  00002000000000044000000095132U5    AMAMSD  004300270014
BI00B32U5    #DI2012        202202187172-5631-60             RUBBER STOPPER           CCN000220000000220000FN00000000020220501000220000NNM   20211230151111U5  2H0H  00002000000000042000000093132U5    AMAMSD  004300270014
BI00B32U5    #DI2012        202202187172-5632-10             DUMMY PLUG               CCN000200000000200000FN00000000020220501000200000NNM   20211230151111U5  2H0H  00002000000000080400000131832U5    AMAMSD  004300270014
BI00B32U5    #DI2012        202202187182-8253-40             HOUSING                  CCN000002400000002400FN00000000020220501000002400NNM   20211230151111U5  2F0F  00000120000000573000000864032U5    AMAMSD  005600390040
BI00B32U5    #DI2012        202202187189-2978-30             HOUSING FEMALE           CCN000006000000006000FN00000000020220501000006000NNM   20211230151111U5  2F0F  00000150000000966900001096932U5    AMAMSD  005400370024
BI00B32U5    #DI2012        202202187289-4200-30             HOUSING FEMALE ASS'Y     CCN000004000000004000FN00000000020220501000004000NNM   20211230151111U5  2N0N  00000200000000926000001021032U5    AMAMSD  005400370024
BI00B32U5    DI2006A        202202117289-3342-30             HOUSING FEMALE ASS'Y     CCN000028800000028800FN00000000020220301000028800NNE   20211230151534U5  1N0N  00000240000000686400000901432U5    AMAMSD  005500360039
BI00B32U5    #DI2006A       202202117189-3032                HOUSING FEMALE           CCN000012800000012800FN00000000020220301000012800NNE   20211230151517U5  2F0F  00000160000000788400001018432U5    AMAMSD  005500360039
BI00B32U5    #DI2007A       202202187189-3032                HOUSING FEMALE           CCN000012800000012800FN00000000020220401000012800NNE   20211230151646U5  2F0F  00000160000000788400001018432U5    AMAMSD  005500360039
BI00B32U5    DI2007B        202202257288-3330-30             HOUSING MALE             CCN000004500000004500FN00000000020220401000004500NNE   20211230151834U5  4N0N  00000150000000866300001011232U5    AMAMSD  005400370024
BI00B32U5    DI2007B        202202257289-3342-30             HOUSING FEMALE ASS'Y     CCN000048000000048000FN00000000020220401000048000NNE   20211230151834U5  1N0N  00000240000000686400000901432U5    AMAMSD  005500360039
BI00B32U5    #DI2007B       202202257189-3032                HOUSING FEMALE           CCN000012800000012800FN00000000020220401000012800NNE   20211230151811U5  2F0F  00000160000000788400001018432U5    AMAMSD  005500360039
BI00B32U5    DI2007C        202202257289-3342                HOUSING FEMALE ASS'Y     CCN000024000000024000FN00000000020220401000024000NNE   20211230152003U5  1N0N  00000240000000686400000901432U5    AMAMSD  005500360039
BI00B32U5    DI2007C        202202257288-3330-30             HOUSING MALE             CCN000004500000004500FN00000000020220401000004500NNE   20211230152003U5  4N0N  00000150000000866300001011232U5    AMAMSD  005400370024
BI00B32U5    #DI2007C       202202257189-3032                HOUSING FEMALE           CCN000012800000012800FN00000000020220401000012800NNE   20211230151951U5  2F0F  00000160000000788400001018432U5    AMAMSD  005500360039
BI00B32U5    #DI2007C       202202257182-8253-40             HOUSING                  CCN000001200000001200FN00000000020220401000001200NNE   20211230151951U5  2F0F  00000120000000573000000864032U5    AMAMSD  005600390040
BI00B32U5    DI2008A        202203047289-3342                HOUSING FEMALE ASS'Y     CCN000019200000019200FN00000000020220401000019200NNE   20211230152134U5  1N0N  00000240000000686400000901432U5    AMAMSD  005500360039
BI00B32U5    DI2008A        202203047114-4624-02             TERMINAL                 CCN000096000000096000FN00000000020220401000096000NNE   20211230152134U5  4P0P  00002400000000895200001188832U5    AMAMSD  006400630015
BI00B32U5    DI2008A        202203047116-4486-02             TERMINAL                 CCN000140000000140000FN00000000020220401000140000NNE   20211230152134U5  4P0P  00002800000000666400000995132U5    AMAMSD  006400630017
BI00B32U5    DI2008A        202203047288-3330-30             HOUSING MALE             CCN000004500000004500FN00000000020220401000004500NNE   20211230152134U5  4N0N  00000150000000866300001011232U5    AMAMSD  005400370024
BI00B32U5    DI2008A        202203047289-3342-30             HOUSING FEMALE ASS'Y     CCN000043200000043200FN00000000020220401000043200NNE   20211230152134U5  1N0N  00000240000000686400000901432U5    AMAMSD  005500360039
