BI00B32BF    TT2206ABMW     2022051018009604330              AVS 3 B                  CCN000004400000004400FN00000000020220601000004400NNE   20220429110119    1W    00000040000003831600000000032BF    TTTJY   000000000000NA125018
BI00B32BF    TT2206ABMW     2022051018009604334              AVS 3 B/W                CCN000001200000001200FN00000000020220601000001200NNE   20220429110119    1W    00000040000003831600000000032BF    TTTJY   000000000000NA125019
BI00B32BF    TT2206ABMW     2022051018009604360              AVS 3 G                  CCN000001600000001600FN00000000020220601000001600NNE   20220429110119    1W    00000040000003831600000000032BF    TTTJY   000000000000NA125020
BI00B32BF    TT2206ABMW     2022051018009604393              AVS 3 L/B                CCN000001200000001200FN00000000020220601000001200NNE   20220429110119    1W    00000040000003831600000000032BF    TTTJY   000000000000NA125021
BI00B32BF    TT2206ABMW     2022051018009604395              AVS 3 L/R                CCN000001200000001200FN00000000020220601000001200NNE   20220429110119    1W    00000040000003831600000000032BF    TTTJY   000000000000NA125022
BI00B32BF    TT2206ABMW     2022051018009604350              AVS 3 R                  CCN000002800000002800FN00000000020220601000002800NNE   20220429110119    1W    00000040000003831600000000032BF    TTTJY   000000000000NA125023
BI00B32BF    TT2206ABMW     2022051018009604340              AVS 3 W                  CCN000005200000005200FN00000000020220601000005200NNE   20220429110119    1W    00000040000003831600000000032BF    TTTJY   000000000000NA125024
BI00B32BF    TT2206ABMW     2022051018009604343              AVS 3 W/B                CCN000000800000000800FN00000000020220601000000800NNE   20220429110119    1W    00000040000003831600000000032BF    TTTJY   000000000000NA125025
BI00B32BF    TT2206ABMW     2022051018009604450              AVS 5 R                  CCN000000600000000600FN00000000020220601000000600NNE   20220429110119    1W    00000020000005981000000000032BF    TTTJY   000000000000NA125026
BI00B32BF    TT2206ABMW     2022051018009604440              AVS 5 W                  CCN000000200000000200FN00000000020220601000000200NNE   20220429110119    1W    00000020000005981000000000032BF    TTTJY   000000000000NA125027
BI00B32BF    TT2206ABMW     2022051018009604445              AVS 5 W/R                CCN000000200000000200FN00000000020220601000000200NNE   20220429110119    1W    00000020000005981000000000032BF    TTTJY   000000000000NA125028
BI00B32BF    TT2206ABMW     2022051018007704230              AVSS 2F B                CCN000020000000020000FN00000000020220601000020000NNE   20220429110119    1W    00000050000002126400000000032BF    TTTJY   000000000000NA125001
BI00B32BF    TT2206ABMW     2022051018007704260              AVSS 2F G                CCN000003000000003000FN00000000020220601000003000NNE   20220429110119    1W    00000050000002126400000000032BF    TTTJY   000000000000NA125002
BI00B32BF    TT2206ABMW     2022051018007704265              AVSS 2F G/R              CCN000003000000003000FN00000000020220601000003000NNE   20220429110119    1W    00000050000002126400000000032BF    TTTJY   000000000000NA125003
BI00B32BF    TT2206ABMW     2022051018007704264              AVSS 2F G/W              CCN000004000000004000FN00000000020220601000004000NNE   20220429110119    1W    00000050000002126400000000032BF    TTTJY   000000000000NA125004
BI00B32BF    TT2206ABMW     2022051018007704267              AVSS 2F G/Y              CCN000002000000002000FN00000000020220601000002000NNE   20220429110119    1W    00000050000002126400000000032BF    TTTJY   000000000000NA125005
BI00B32BF    TT2206ABMW     2022051018007704241              AVSS 2F GY               CCN000001500000001500FN00000000020220601000001500NNE   20220429110119    1W    00000050000002126400000000032BF    TTTJY   000000000000NA125006
BI00B32BF    TT2206ABMW     2022051018007704290              AVSS 2F L                CCN000005000000005000FN00000000020220601000005000NNE   20220429110119    1W    00000050000002126400000000032BF    TTTJY   000000000000NA125007
BI00B32BF    TT2206ABMW     2022051018007704293              AVSS 2F L/B              CCN000002000000002000FN00000000020220601000002000NNE   20220429110119    1W    00000050000002126400000000032BF    TTTJY   000000000000NA125008
BI00B32BF    TT2206ABMW     2022051018007704295              AVSS 2F L/R              CCN000002000000002000FN00000000020220601000002000NNE   20220429110119    1W    00000050000002126400000000032BF    TTTJY   000000000000NA125009
BI00B32BF    TT2206ABMW     2022051018007704261              AVSS 2F LG               CCN000003000000003000FN00000000020220601000003000NNE   20220429110119    1W    00000050000002126400000000032BF    TTTJY   000000000000NA125010
BI00B32BF    TT2206ABMW     2022051018007704252              AVSS 2F P                CCN000001500000001500FN00000000020220601000001500NNE   20220429110119    1W    00000050000002126400000000032BF    TTTJY   000000000000NA125011
BI00B32BF    TT2206ABMW     2022051018007704250              AVSS 2F R                CCN000001000000001000FN00000000020220601000001000NNE   20220429110119    1W    00000050000002126400000000032BF    TTTJY   000000000000NA125012
BI00B32BF    TT2206ABMW     2022051018007704253              AVSS 2F R/B              CCN000001000000001000FN00000000020220601000001000NNE   20220429110119    1W    00000050000002126400000000032BF    TTTJY   000000000000NA125013
BI00B32BF    TT2206ABMW     2022051018007704292              AVSS 2F V                CCN000001500000001500FN00000000020220601000001500NNE   20220429110119    1W    00000050000002126400000000032BF    TTTJY   000000000000NA125014
BI00B32BF    TT2206ABMW     2022051018007704243              AVSS 2F W/B              CCN000028500000028500FN00000000020220601000028500NNE   20220429110119    1W    00000050000002126400000000032BF    TTTJY   000000000000NA125015
BI00B32BF    TT2206ABMW     2022051018007704276              AVSS 2F Y/G              CCN000001500000001500FN00000000020220601000001500NNE   20220429110119    1W    00000050000002126400000000032BF    TTTJY   000000000000NA125016
BI00B32BF    TT2206ABMW     2022051018007704275              AVSS 2F Y/R              CCN000003500000003500FN00000000020220601000003500NNE   20220429110119    1W    00000050000002126400000000032BF    TTTJY   000000000000NA125017
BI00B32BF    TT2206ABMW     202205101801R706930              CIVUS 0.35 B             CCN000144000000144000FN00000000020220601000144000NNE   20220429110119    1W    00000300000000386000000000032BF    TTTJY   000000000000NA125059
BI00B32BF    TT2206ABMW     202205101801R70695U              CIVUS 0.35 BE            CCN000024000000024000FN00000000020220601000024000NNE   20220429110119    1W    00000300000000386000000000032BF    TTTJY   000000000000NA125060
BI00B32BF    TT2206ABMW     202205101801R706980              CIVUS 0.35 BR            CCN000030000000030000FN00000000020220601000030000NNE   20220429110119    1W    00000300000000386000000000032BF    TTTJY   000000000000NA125061
BI00B32BF    TT2206ABMW     202205101801R706960              CIVUS 0.35 G             CCN000036000000036000FN00000000020220601000036000NNE   20220429110119    1W    00000300000000386000000000032BF    TTTJY   000000000000NA125062
BI00B32BF    TT2206ABMW     202205101801R706941              CIVUS 0.35 GY            CCN000090000000090000FN00000000020220601000090000NNE   20220429110119    1W    00000300000000386000000000032BF    TTTJY   000000000000NA125063
BI00B32BF    TT2206ABMW     202205101801R706990              CIVUS 0.35 L             CCN000132000000132000FN00000000020220601000132000NNE   20220429110119    1W    00000300000000386000000000032BF    TTTJY   000000000000NA125064
BI00B32BF    TT2206ABMW     202205101801R706961              CIVUS 0.35 LG            CCN000090000000090000FN00000000020220601000090000NNE   20220429110119    1W    00000300000000386000000000032BF    TTTJY   000000000000NA125065
BI00B32BF    TT2206ABMW     202205101801R706952              CIVUS 0.35 P             CCN000099000000099000FN00000000020220601000099000NNE   20220429110119    1W    00000300000000386000000000032BF    TTTJY   000000000000NA125066
BI00B32BF    TT2206ABMW     202205101801R706950              CIVUS 0.35 R             CCN000105000000105000FN00000000020220601000105000NNE   20220429110119    1W    00000300000000386000000000032BF    TTTJY   000000000000NA125067
BI00B32BF    TT2206ABMW     202205101801R706991              CIVUS 0.35 SB            CCN000105000000105000FN00000000020220601000105000NNE   20220429110119    1W    00000300000000386000000000032BF    TTTJY   000000000000NA125068
BI00B32BF    TT2206ABMW     202205101801R706992              CIVUS 0.35 V             CCN000129000000129000FN00000000020220601000129000NNE   20220429110119    1W    00000300000000386000000000032BF    TTTJY   000000000000NA125069
BI00B32BF    TT2206ABMW     202205101801R706940              CIVUS 0.35 W             CCN000030000000030000FN00000000020220601000030000NNE   20220429110119    1W    00000300000000386000000000032BF    TTTJY   000000000000NA125070
BI00B32BF    TT2206ABMW     202205101801R706943              CIVUS 0.35 W/B           CCN000150000000150000FN00000000020220601000150000NNE   20220429110119    1W    00000300000000386000000000032BF    TTTJY   000000000000NA125071
BI00B32BF    TT2206ABMW     202205101801R706970              CIVUS 0.35 Y             CCN000030000000030000FN00000000020220601000030000NNE   20220429110119    1W    00000300000000386000000000032BF    TTTJY   000000000000NA125072
BI00B32BF    TT2206ABMW     202205101801R706973              CIVUS 0.35 Y/B           CCN000054000000054000FN00000000020220601000054000NNE   20220429110119    1W    00000300000000386000000000032BF    TTTJY   000000000000NA125073
BI00B32BF    TT2206ABMW     202205101801R706976              CIVUS 0.35 Y/G           CCN000030000000030000FN00000000020220601000030000NNE   20220429110119    1W    00000300000000386000000000032BF    TTTJY   000000000000NA125074
BI00B32BF    TT2206ABMW     202205101801R706975              CIVUS 0.35 Y/R           CCN000030000000030000FN00000000020220601000030000NNE   20220429110119    1W    00000300000000386000000000032BF    TTTJY   000000000000NA125075
BI00B32BF    TT2206ABMW     202205101801R703930              CIVUS 0.5 B              CCN000050600000050600FN00000000020220601000050600NNE   20220429110119    1W    00000220000000525000000000032BF    TTTJY   000000000000NA125029
BI00B32BF    TT2206ABMW     202205101801R703980              CIVUS 0.5 BR             CCN000015400000015400FN00000000020220601000015400NNE   20220429110119    1W    00000220000000525000000000032BF    TTTJY   000000000000NA125030
BI00B32BF    TT2206ABMW     202205101801R703960              CIVUS 0.5 G              CCN000008800000008800FN00000000020220601000008800NNE   20220429110119    1W    00000220000000525000000000032BF    TTTJY   000000000000NA125031
BI00B32BF    TT2206ABMW     202205101801R703941              CIVUS 0.5 GY             CCN000011000000011000FN00000000020220601000011000NNE   20220429110119    1W    00000220000000525000000000032BF    TTTJY   000000000000NA125032
BI00B32BF    TT2206ABMW     202205101801R703990              CIVUS 0.5 L              CCN000011000000011000FN00000000020220601000011000NNE   20220429110119    1W    00000220000000525000000000032BF    TTTJY   000000000000NA125033
BI00B32BF    TT2206ABMW     202205101801R703961              CIVUS 0.5 LG             CCN000004400000004400FN00000000020220601000004400NNE   20220429110119    1W    00000220000000525000000000032BF    TTTJY   000000000000NA125034
BI00B32BF    TT2206ABMW     202205101801R703952              CIVUS 0.5 P              CCN000035200000035200FN00000000020220601000035200NNE   20220429110119    1W    00000220000000525000000000032BF    TTTJY   000000000000NA125035
BI00B32BF    TT2206ABMW     202205101801R703950              CIVUS 0.5 R              CCN000026400000026400FN00000000020220601000026400NNE   20220429110119    1W    00000220000000525000000000032BF    TTTJY   000000000000NA125036
BI00B32BF    TT2206ABMW     202205101801R703991              CIVUS 0.5 SB             CCN000011000000011000FN00000000020220601000011000NNE   20220429110119    1W    00000220000000525000000000032BF    TTTJY   000000000000NA125037
BI00B32BF    TT2206ABMW     202205101801R703992              CIVUS 0.5 V              CCN000026400000026400FN00000000020220601000026400NNE   20220429110119    1W    00000220000000525000000000032BF    TTTJY   000000000000NA125038
BI00B32BF    TT2206ABMW     202205101801R703943              CIVUS 0.5 W/B            CCN000066000000066000FN00000000020220601000066000NNE   20220429110119    1W    00000220000000525000000000032BF    TTTJY   000000000000NA125039
BI00B32BF    TT2206ABMW     202205101801R704030              CIVUS 0.75 B             CCN000013500000013500FN00000000020220601000013500NNE   20220429110119    1W    00000150000000765000000000032BF    TTTJY   000000000000NA125040
BI00B32BF    TT2206ABMW     202205101801R704080              CIVUS 0.75 BR            CCN000024000000024000FN00000000020220601000024000NNE   20220429110119    1W    00000150000000765000000000032BF    TTTJY   000000000000NA125041
BI00B32BF    TT2206ABMW     202205101801R704060              CIVUS 0.75 G             CCN000016500000016500FN00000000020220601000016500NNE   20220429110119    1W    00000150000000765000000000032BF    TTTJY   000000000000NA125042
BI00B32BF    TT2206ABMW     202205101801R704090              CIVUS 0.75 L             CCN000045000000045000FN00000000020220601000045000NNE   20220429110119    1W    00000150000000765000000000032BF    TTTJY   000000000000NA125043
BI00B32BF    TT2206ABMW     202205101801R704061              CIVUS 0.75 LG            CCN000045000000045000FN00000000020220601000045000NNE   20220429110119    1W    00000150000000765000000000032BF    TTTJY   000000000000NA125044
BI00B32BF    TT2206ABMW     202205101801R704052              CIVUS 0.75 P             CCN000022500000022500FN00000000020220601000022500NNE   20220429110119    1W    00000150000000765000000000032BF    TTTJY   000000000000NA125045
BI00B32BF    TT2206ABMW     202205101801R704050              CIVUS 0.75 R             CCN000013500000013500FN00000000020220601000013500NNE   20220429110119    1W    00000150000000765000000000032BF    TTTJY   000000000000NA125046
BI00B32BF    TT2206ABMW     202205101801R704091              CIVUS 0.75 SB            CCN000024000000024000FN00000000020220601000024000NNE   20220429110119    1W    00000150000000765000000000032BF    TTTJY   000000000000NA125047
BI00B32BF    TT2206ABMW     202205101801R704092              CIVUS 0.75 V             CCN000019500000019500FN00000000020220601000019500NNE   20220429110119    1W    00000150000000765000000000032BF    TTTJY   000000000000NA125048
BI00B32BF    TT2206ABMW     202205101801R704043              CIVUS 0.75 W/B           CCN000013500000013500FN00000000020220601000013500NNE   20220429110119    1W    00000150000000765000000000032BF    TTTJY   000000000000NA125049
BI00B32BF    TT2206ABMW     202205101801R704130              CIVUS 1.25 B             CCN000019000000019000FN00000000020220601000019000NNE   20220429110119    1W    00000100000001228000000000032BF    TTTJY   000000000000NA125050
BI00B32BF    TT2206ABMW     202205101801R704180              CIVUS 1.25 BR            CCN000007000000007000FN00000000020220601000007000NNE   20220429110119    1W    00000100000001228000000000032BF    TTTJY   000000000000NA125051
BI00B32BF    TT2206ABMW     202205101801R704160              CIVUS 1.25 G             CCN000018000000018000FN00000000020220601000018000NNE   20220429110119    1W    00000100000001228000000000032BF    TTTJY   000000000000NA125052
BI00B32BF    TT2206ABMW     202205101801R704190              CIVUS 1.25 L             CCN000022000000022000FN00000000020220601000022000NNE   20220429110119    1W    00000100000001228000000000032BF    TTTJY   000000000000NA125053
BI00B32BF    TT2206ABMW     202205101801R704152              CIVUS 1.25 P             CCN000002000000002000FN00000000020220601000002000NNE   20220429110119    1W    00000100000001228000000000032BF    TTTJY   000000000000NA125054
BI00B32BF    TT2206ABMW     202205101801R704150              CIVUS 1.25 R             CCN000013000000013000FN00000000020220601000013000NNE   20220429110119    1W    00000100000001228000000000032BF    TTTJY   000000000000NA125055
BI00B32BF    TT2206ABMW     202205101801R704191              CIVUS 1.25 SB            CCN000012000000012000FN00000000020220601000012000NNE   20220429110119    1W    00000100000001228000000000032BF    TTTJY   000000000000NA125056
BI00B32BF    TT2206ABMW     202205101801R704140              CIVUS 1.25 W             CCN000002000000002000FN00000000020220601000002000NNE   20220429110119    1W    00000100000001228000000000032BF    TTTJY   000000000000NA125057
BI00B32BF    TT2206ABMW     202205101801R704143              CIVUS 1.25 W/B           CCN000007000000007000FN00000000020220601000007000NNE   20220429110119    1W    00000100000001228000000000032BF    TTTJY   000000000000NA125058
BI00B32BF    TT2206ABMW     202205101801W006941              IVSSH 0.35F GY           CCN000015000000015000FN00000000020220601000015000NNE   20220429110119    1W    00000250000000452000000000032BF    TTTJY   000000000000NA125076
BI00B32BF    TT2206AKMW     2022051018009604349              AVS 3 W/L                CCN000002000000002000FN00000000020220601000002000NNE   20220429110113    1W    00000040000003831600000000032BF    TTTJY   000000000000NC125002
BI00B32BF    TT2206AKMW     2022051018007704239              AVSS 2F B/L              CCN000001500000001500FN00000000020220601000001500NNE   20220429110113    1W    00000050000002126400000000032BF    TTTJY   000000000000NC125001
BI00B32BF    TT2206BBMW     2022051718009604330              AVS 3 B                  CCN000008400000008400FN00000000020220601000008400NNE   20220429110928    1W    00000040000003831600000000032BF    TTTJY   000000000000NR125004
BI00B32BF    TT2206BBMW     2022051718009604390              AVS 3 L                  CCN000002000000002000FN00000000020220601000002000NNE   20220429110928    1W    00000040000003831600000000032BF    TTTJY   000000000000NR125005
BI00B32BF    TT2206BBMW     2022051718009604350              AVS 3 R                  CCN000004000000004000FN00000000020220601000004000NNE   20220429110928    1W    00000040000003831600000000032BF    TTTJY   000000000000NR125006
BI00B32BF    TT2206BBMW     2022051718009604340              AVS 3 W                  CCN000004000000004000FN00000000020220601000004000NNE   20220429110928    1W    00000040000003831600000000032BF    TTTJY   000000000000NR125007
BI00B32BF    TT2206BBMW     2022051718007704230              AVSS 2F B                CCN000011000000011000FN00000000020220601000011000NNE   20220429110928    1W    00000050000002126400000000032BF    TTTJY   000000000000NR125001
BI00B32BF    TT2206BBMW     2022051718007704261              AVSS 2F LG               CCN000002500000002500FN00000000020220601000002500NNE   20220429110928    1W    00000050000002126400000000032BF    TTTJY   000000000000NR125002
BI00B32BF    TT2206BBMW     2022051718007704243              AVSS 2F W/B              CCN000020000000020000FN00000000020220601000020000NNE   20220429110928    1W    00000050000002126400000000032BF    TTTJY   000000000000NR125003
BI00B32BF    TT2206BBMW     202205171801R706930              CIVUS 0.35 B             CCN000144000000144000FN00000000020220601000144000NNE   20220429110928    1W    00000300000000386000000000032BF    TTTJY   000000000000NR125013
BI00B32BF    TT2206BBMW     202205171801R70695U              CIVUS 0.35 BE            CCN000006000000006000FN00000000020220601000006000NNE   20220429110928    1W    00000300000000386000000000032BF    TTTJY   000000000000NR125014
BI00B32BF    TT2206BBMW     202205171801R706980              CIVUS 0.35 BR            CCN000039000000039000FN00000000020220601000039000NNE   20220429110928    1W    00000300000000386000000000032BF    TTTJY   000000000000NR125015
BI00B32BF    TT2206BBMW     202205171801R706960              CIVUS 0.35 G             CCN000036000000036000FN00000000020220601000036000NNE   20220429110928    1W    00000300000000386000000000032BF    TTTJY   000000000000NR125016
BI00B32BF    TT2206BBMW     202205171801R706941              CIVUS 0.35 GY            CCN000111000000111000FN00000000020220601000111000NNE   20220429110928    1W    00000300000000386000000000032BF    TTTJY   000000000000NR125017
BI00B32BF    TT2206BBMW     202205171801R706990              CIVUS 0.35 L             CCN000132000000132000FN00000000020220601000132000NNE   20220429110928    1W    00000300000000386000000000032BF    TTTJY   000000000000NR125018
BI00B32BF    TT2206BBMW     202205171801R706961              CIVUS 0.35 LG            CCN000099000000099000FN00000000020220601000099000NNE   20220429110928    1W    00000300000000386000000000032BF    TTTJY   000000000000NR125019
BI00B32BF    TT2206BBMW     202205171801R706952              CIVUS 0.35 P             CCN000060000000060000FN00000000020220601000060000NNE   20220429110928    1W    00000300000000386000000000032BF    TTTJY   000000000000NR125020
BI00B32BF    TT2206BBMW     202205171801R706950              CIVUS 0.35 R             CCN000060000000060000FN00000000020220601000060000NNE   20220429110928    1W    00000300000000386000000000032BF    TTTJY   000000000000NR125021
BI00B32BF    TT2206BBMW     202205171801R706991              CIVUS 0.35 SB            CCN000072000000072000FN00000000020220601000072000NNE   20220429110928    1W    00000300000000386000000000032BF    TTTJY   000000000000NR125022
BI00B32BF    TT2206BBMW     202205171801R706992              CIVUS 0.35 V             CCN000060000000060000FN00000000020220601000060000NNE   20220429110928    1W    00000300000000386000000000032BF    TTTJY   000000000000NR125023
BI00B32BF    TT2206BBMW     202205171801R706940              CIVUS 0.35 W             CCN000150000000150000FN00000000020220601000150000NNE   20220429110928    1W    00000300000000386000000000032BF    TTTJY   000000000000NR125024
BI00B32BF    TT2206BBMW     202205171801R706943              CIVUS 0.35 W/B           CCN000123000000123000FN00000000020220601000123000NNE   20220429110928    1W    00000300000000386000000000032BF    TTTJY   000000000000NR125025
BI00B32BF    TT2206BBMW     202205171801R706970              CIVUS 0.35 Y             CCN000030000000030000FN00000000020220601000030000NNE   20220429110928    1W    00000300000000386000000000032BF    TTTJY   000000000000NR125026
BI00B32BF    TT2206BBMW     202205171801R706973              CIVUS 0.35 Y/B           CCN000021000000021000FN00000000020220601000021000NNE   20220429110928    1W    00000300000000386000000000032BF    TTTJY   000000000000NR125027
BI00B32BF    TT2206BBMW     202205171801R703952              CIVUS 0.5 P              CCN000022000000022000FN00000000020220601000022000NNE   20220429110928    1W    00000220000000525000000000032BF    TTTJY   000000000000NR125008
BI00B32BF    TT2206BBMW     202205171801R703950              CIVUS 0.5 R              CCN000011000000011000FN00000000020220601000011000NNE   20220429110928    1W    00000220000000525000000000032BF    TTTJY   000000000000NR125009
BI00B32BF    TT2206BBMW     202205171801R703992              CIVUS 0.5 V              CCN000011000000011000FN00000000020220601000011000NNE   20220429110928    1W    00000220000000525000000000032BF    TTTJY   000000000000NR125010
BI00B32BF    TT2206BBMW     202205171801R703943              CIVUS 0.5 W/B            CCN000066000000066000FN00000000020220601000066000NNE   20220429110928    1W    00000220000000525000000000032BF    TTTJY   000000000000NR125011
BI00B32BF    TT2206BBMW     202205171801R704090              CIVUS 0.75 L             CCN000039000000039000FN00000000020220601000039000NNE   20220429110928    1W    00000150000000765000000000032BF    TTTJY   000000000000NR125012
BI00B32BF    TT2206BKMW     2022051718009604334              AVS 3 B/W                CCN000002000000002000FN00000000020220601000002000NNE   20220429110930    1W    00000040000003831600000000032BF    TTTJY   000000000000NS125002
BI00B32BF    TT2206BKMW     2022051718009604349              AVS 3 W/L                CCN000001200000001200FN00000000020220601000001200NNE   20220429110930    1W    00000040000003831600000000032BF    TTTJY   000000000000NS125003
BI00B32BF    TT2206BKMW     2022051718007704239              AVSS 2F B/L              CCN000001000000001000FN00000000020220601000001000NNE   20220429110930    1W    00000050000002126400000000032BF    TTTJY   000000000000NS125001
BI00B32B6    W72026         202205271801W003950              IVSSH 0.5F R             CCN000025200000000000FY00000000020220801000000000NNE10 20220429111710B6  1W    00000180000000625000000000032B6    AXARNE-M000000000000AW225016
BI00B32B6    W72028         202206091801W003930              IVSSH 0.5F B             CCN000019800000000000FY00000000020220901000000000NNE10 20220429111330B6  1W    00000180000000625000000000032B6    AXARNE-M000000000000AW425009
BI00B32B6    W72028         202206091801W003950              IVSSH 0.5F R             CCN000012600000000000FY00000000020220901000000000NNE11 20220429111741B6  1W    00000180000000625000000000032B6    AXARNE-M000000000000AW425016
BI00B32H0    TT2206CVMW     2022051718000004534              AV 8 B/W                 CCN000011600000011600FN00000000020220601000011600NNE   20220429110910    1W    00000010000010466200000000032H0    TTTJY   000000000000NN125001
BI00B32H0    TT2206CVMW     2022051718000004590              AV 8 L                   CCN000000400000000400FN00000000020220601000000400NNE   20220429110910    1W    00000010000010466200000000032H0    TTTJY   000000000000NN125002
BI00B32H0    TT2206CVMW     2022051718000004550              AV 8 R                   CCN000000100000000100FN00000000020220601000000100NNE   20220429110910    1W    00000010000010466200000000032H0    TTTJY   000000000000NN125003
BI00B32H0    TT2206CVMW     2022051718009604330              AVS 3 B                  CCN000064000000064000FN00000000020220601000064000NNE   20220429110910    1W    00000040000003831600000000032H0    TTTJY   000000000000NN125016
BI00B32H0    TT2206CVMW     2022051718009604390              AVS 3 L                  CCN000033600000033600FN00000000020220601000033600NNE   20220429110910    1W    00000040000003831600000000032H0    TTTJY   000000000000NN125017
BI00B32H0    TT2206CVMW     2022051718009604350              AVS 3 R                  CCN000016000000016000FN00000000020220601000016000NNE   20220429110910    1W    00000040000003831600000000032H0    TTTJY   000000000000NN125018
BI00B32H0    TT2206CVMW     2022051718009604353              AVS 3 R/B                CCN000000400000000400FN00000000020220601000000400NNE   20220429110910    1W    00000040000003831600000000032H0    TTTJY   000000000000NN125019
BI00B32H0    TT2206CVMW     2022051718009604340              AVS 3 W                  CCN000029600000029600FN00000000020220601000029600NNE   20220429110910    1W    00000040000003831600000000032H0    TTTJY   000000000000NN125020
BI00B32H0    TT2206CVMW     2022051718009604343              AVS 3 W/B                CCN000104800000104800FN00000000020220601000104800NNE   20220429110910    1W    00000040000003831600000000032H0    TTTJY   000000000000NN125021
BI00B32H0    TT2206CVMW     2022051718009604430              AVS 5 B                  CCN000011200000011200FN00000000020220601000011200NNE   20220429110910    1W    00000020000005981000000000032H0    TTTJY   000000000000NN125022
BI00B32H0    TT2206CVMW     2022051718009604440              AVS 5 W                  CCN000076000000076000FN00000000020220601000076000NNE   20220429110910    1W    00000020000005981000000000032H0    TTTJY   000000000000NN125023
BI00B32H0    TT2206CVMW     2022051718007704230              AVSS 2F B                CCN000153000000153000FN00000000020220601000153000NNE   20220429110910    1W    00000050000002126400000000032H0    TTTJY   000000000000NN125004
BI00B32H0    TT2206CVMW     202205171800770425U              AVSS 2F BE               CCN000001500000001500FN00000000020220601000001500NNE   20220429110910    1W    00000050000002126400000000032H0    TTTJY   000000000000NN125005
BI00B32H0    TT2206CVMW     2022051718007704260              AVSS 2F G                CCN000075000000075000FN00000000020220601000075000NNE   20220429110910    1W    00000050000002126400000000032H0    TTTJY   000000000000NN125006
BI00B32H0    TT2206CVMW     2022051718007704290              AVSS 2F L                CCN000106500000106500FN00000000020220601000106500NNE   20220429110910    1W    00000050000002126400000000032H0    TTTJY   000000000000NN125007
BI00B32H0    TT2206CVMW     2022051718007704261              AVSS 2F LG               CCN000007500000007500FN00000000020220601000007500NNE   20220429110910    1W    00000050000002126400000000032H0    TTTJY   000000000000NN125008
BI00B32H0    TT2206CVMW     2022051718007704252              AVSS 2F P                CCN000017500000017500FN00000000020220601000017500NNE   20220429110910    1W    00000050000002126400000000032H0    TTTJY   000000000000NN125009
BI00B32H0    TT2206CVMW     2022051718007704250              AVSS 2F R                CCN000100000000100000FN00000000020220601000100000NNE   20220429110910    1W    00000050000002126400000000032H0    TTTJY   000000000000NN125010
BI00B32H0    TT2206CVMW     2022051718007704291              AVSS 2F SB               CCN000010000000010000FN00000000020220601000010000NNE   20220429110910    1W    00000050000002126400000000032H0    TTTJY   000000000000NN125011
BI00B32H0    TT2206CVMW     2022051718007704240              AVSS 2F W                CCN000065000000065000FN00000000020220601000065000NNE   20220429110910    1W    00000050000002126400000000032H0    TTTJY   000000000000NN125012
BI00B32H0    TT2206CVMW     2022051718007704243              AVSS 2F W/B              CCN000128500000128500FN00000000020220601000128500NNE   20220429110910    1W    00000050000002126400000000032H0    TTTJY   000000000000NN125013
BI00B32H0    TT2206CVMW     2022051718007704249              AVSS 2F W/L              CCN000001000000001000FN00000000020220601000001000NNE   20220429110910    1W    00000050000002126400000000032H0    TTTJY   000000000000NN125014
BI00B32H0    TT2206CVMW     2022051718007704270              AVSS 2F Y                CCN000000500000000500FN00000000020220601000000500NNE   20220429110910    1W    00000050000002126400000000032H0    TTTJY   000000000000NN125015
BI00B32H0    TT2206CVMW     202205171801R706930              CIVUS 0.35 B             CCN000240000000240000FN00000000020220601000240000NNE   20220429110910    1W    00000300000000386000000000032H0    TTTJY   000000000000NN125059
BI00B32H0    TT2206CVMW     202205171801R70695U              CIVUS 0.35 BE            CCN000057000000057000FN00000000020220601000057000NNE   20220429110910    1W    00000300000000386000000000032H0    TTTJY   000000000000NN125060
BI00B32H0    TT2206CVMW     202205171801R706980              CIVUS 0.35 BR            CCN000096000000096000FN00000000020220601000096000NNE   20220429110910    1W    00000300000000386000000000032H0    TTTJY   000000000000NN125061
BI00B32H0    TT2206CVMW     202205171801R706960              CIVUS 0.35 G             CCN000453000000453000FN00000000020220601000453000NNE   20220429110910    1W    00000300000000386000000000032H0    TTTJY   000000000000NN125062
BI00B32H0    TT2206CVMW     202205171801R706941              CIVUS 0.35 GY            CCN000318000000318000FN00000000020220601000318000NNE   20220429110910    1W    00000300000000386000000000032H0    TTTJY   000000000000NN125063
BI00B32H0    TT2206CVMW     202205171801R706990              CIVUS 0.35 L             CCN000267000000267000FN00000000020220601000267000NNE   20220429110910    1W    00000300000000386000000000032H0    TTTJY   000000000000NN125064
BI00B32H0    TT2206CVMW     202205171801R706961              CIVUS 0.35 LG            CCN000543000000543000FN00000000020220601000543000NNE   20220429110910    1W    00000300000000386000000000032H0    TTTJY   000000000000NN125065
BI00B32H0    TT2206CVMW     202205171801R706952              CIVUS 0.35 P             CCN000234000000234000FN00000000020220601000234000NNE   20220429110910    1W    00000300000000386000000000032H0    TTTJY   000000000000NN125066
BI00B32H0    TT2206CVMW     202205171801R706950              CIVUS 0.35 R             CCN000660000000660000FN00000000020220601000660000NNE   20220429110910    1W    00000300000000386000000000032H0    TTTJY   000000000000NN125067
BI00B32H0    TT2206CVMW     202205171801R706991              CIVUS 0.35 SB            CCN000375000000375000FN00000000020220601000375000NNE   20220429110910    1W    00000300000000386000000000032H0    TTTJY   000000000000NN125068
BI00B32H0    TT2206CVMW     202205171801R706992              CIVUS 0.35 V             CCN000522000000522000FN00000000020220601000522000NNE   20220429110910    1W    00000300000000386000000000032H0    TTTJY   000000000000NN125069
BI00B32H0    TT2206CVMW     202205171801R706940              CIVUS 0.35 W             CCN000663000000663000FN00000000020220601000663000NNE   20220429110910    1W    00000300000000386000000000032H0    TTTJY   000000000000NN125070
BI00B32H0    TT2206CVMW     202205171801R706943              CIVUS 0.35 W/B           CCN000210000000210000FN00000000020220601000210000NNE   20220429110910    1W    00000300000000386000000000032H0    TTTJY   000000000000NN125071
BI00B32H0    TT2206CVMW     202205171801R706970              CIVUS 0.35 Y             CCN000111000000111000FN00000000020220601000111000NNE   20220429110910    1W    00000300000000386000000000032H0    TTTJY   000000000000NN125072
BI00B32H0    TT2206CVMW     202205171801R703930              CIVUS 0.5 B              CCN000576400000576400FN00000000020220601000576400NNE   20220429110910    1W    00000220000000525000000000032H0    TTTJY   000000000000NN125024
BI00B32H0    TT2206CVMW     202205171801R70395U              CIVUS 0.5 BE             CCN000085800000085800FN00000000020220601000085800NNE   20220429110910    1W    00000220000000525000000000032H0    TTTJY   000000000000NN125025
BI00B32H0    TT2206CVMW     202205171801R703980              CIVUS 0.5 BR             CCN000011000000011000FN00000000020220601000011000NNE   20220429110910    1W    00000220000000525000000000032H0    TTTJY   000000000000NN125026
BI00B32H0    TT2206CVMW     202205171801R703960              CIVUS 0.5 G              CCN000528000000528000FN00000000020220601000528000NNE   20220429110910    1W    00000220000000525000000000032H0    TTTJY   000000000000NN125027
BI00B32H0    TT2206CVMW     202205171801R703941              CIVUS 0.5 GY             CCN000026400000026400FN00000000020220601000026400NNE   20220429110910    1W    00000220000000525000000000032H0    TTTJY   000000000000NN125028
BI00B32H0    TT2206CVMW     202205171801R703990              CIVUS 0.5 L              CCN000283800000283800FN00000000020220601000283800NNE   20220429110910    1W    00000220000000525000000000032H0    TTTJY   000000000000NN125029
BI00B32H0    TT2206CVMW     202205171801R703961              CIVUS 0.5 LG             CCN000400400000400400FN00000000020220601000400400NNE   20220429110910    1W    00000220000000525000000000032H0    TTTJY   000000000000NN125030
BI00B32H0    TT2206CVMW     202205171801R703952              CIVUS 0.5 P              CCN000224400000224400FN00000000020220601000224400NNE   20220429110910    1W    00000220000000525000000000032H0    TTTJY   000000000000NN125031
BI00B32H0    TT2206CVMW     202205171801R703950              CIVUS 0.5 R              CCN000321200000321200FN00000000020220601000321200NNE   20220429110910    1W    00000220000000525000000000032H0    TTTJY   000000000000NN125032
BI00B32H0    TT2206CVMW     202205171801R703991              CIVUS 0.5 SB             CCN000187000000187000FN00000000020220601000187000NNE   20220429110910    1W    00000220000000525000000000032H0    TTTJY   000000000000NN125033
BI00B32H0    TT2206CVMW     202205171801R703992              CIVUS 0.5 V              CCN000292600000292600FN00000000020220601000292600NNE   20220429110910    1W    00000220000000525000000000032H0    TTTJY   000000000000NN125034
BI00B32H0    TT2206CVMW     202205171801R703940              CIVUS 0.5 W              CCN000319000000319000FN00000000020220601000319000NNE   20220429110910    1W    00000220000000525000000000032H0    TTTJY   000000000000NN125035
BI00B32H0    TT2206CVMW     202205171801R703943              CIVUS 0.5 W/B            CCN000160600000160600FN00000000020220601000160600NNE   20220429110910    1W    00000220000000525000000000032H0    TTTJY   000000000000NN125036
BI00B32H0    TT2206CVMW     202205171801R703973              CIVUS 0.5 Y/B            CCN000002200000002200FN00000000020220601000002200NNE   20220429110910    1W    00000220000000525000000000032H0    TTTJY   000000000000NN125037
BI00B32H0    TT2206CVMW     202205171801R704060              CIVUS 0.75 G             CCN000073500000073500FN00000000020220601000073500NNE   20220429110910    1W    00000150000000765000000000032H0    TTTJY   000000000000NN125038
BI00B32H0    TT2206CVMW     202205171801R704090              CIVUS 0.75 L             CCN000069000000069000FN00000000020220601000069000NNE   20220429110910    1W    00000150000000765000000000032H0    TTTJY   000000000000NN125039
BI00B32H0    TT2206CVMW     202205171801R704061              CIVUS 0.75 LG            CCN000004500000004500FN00000000020220601000004500NNE   20220429110910    1W    00000150000000765000000000032H0    TTTJY   000000000000NN125040
BI00B32H0    TT2206CVMW     202205171801R704040              CIVUS 0.75 W             CCN000079500000079500FN00000000020220601000079500NNE   20220429110910    1W    00000150000000765000000000032H0    TTTJY   000000000000NN125041
BI00B32H0    TT2206CVMW     202205171801R704043              CIVUS 0.75 W/B           CCN000072000000072000FN00000000020220601000072000NNE   20220429110910    1W    00000150000000765000000000032H0    TTTJY   000000000000NN125042
BI00B32H0    TT2206CVMW     202205171801R706030              CIVUS 1 B                CCN000002400000002400FN00000000020220601000002400NNE   20220429110910    1W    00000120000001016000000000032H0    TTTJY   000000000000NN125053
BI00B32H0    TT2206CVMW     202205171801R706041              CIVUS 1 GY               CCN000001200000001200FN00000000020220601000001200NNE   20220429110910    1W    00000120000001016000000000032H0    TTTJY   000000000000NN125054
BI00B32H0    TT2206CVMW     202205171801R706090              CIVUS 1 L                CCN000002400000002400FN00000000020220601000002400NNE   20220429110910    1W    00000120000001016000000000032H0    TTTJY   000000000000NN125055
BI00B32H0    TT2206CVMW     202205171801R706050              CIVUS 1 R                CCN000003600000003600FN00000000020220601000003600NNE   20220429110910    1W    00000120000001016000000000032H0    TTTJY   000000000000NN125056
BI00B32H0    TT2206CVMW     202205171801R706091              CIVUS 1 SB               CCN000002400000002400FN00000000020220601000002400NNE   20220429110910    1W    00000120000001016000000000032H0    TTTJY   000000000000NN125057
BI00B32H0    TT2206CVMW     202205171801R706070              CIVUS 1 Y                CCN000002400000002400FN00000000020220601000002400NNE   20220429110910    1W    00000120000001016000000000032H0    TTTJY   000000000000NN125058
BI00B32H0    TT2206CVMW     202205171801R704130              CIVUS 1.25 B             CCN000075000000075000FN00000000020220601000075000NNE   20220429110910    1W    00000100000001228000000000032H0    TTTJY   000000000000NN125043
BI00B32H0    TT2206CVMW     202205171801R70415U              CIVUS 1.25 BE            CCN000013000000013000FN00000000020220601000013000NNE   20220429110910    1W    00000100000001228000000000032H0    TTTJY   000000000000NN125044
BI00B32H0    TT2206CVMW     202205171801R704160              CIVUS 1.25 G             CCN000025000000025000FN00000000020220601000025000NNE   20220429110910    1W    00000100000001228000000000032H0    TTTJY   000000000000NN125045
BI00B32H0    TT2206CVMW     202205171801R704190              CIVUS 1.25 L             CCN000002000000002000FN00000000020220601000002000NNE   20220429110910    1W    00000100000001228000000000032H0    TTTJY   000000000000NN125046
BI00B32H0    TT2206CVMW     202205171801R704161              CIVUS 1.25 LG            CCN000042000000042000FN00000000020220601000042000NNE   20220429110910    1W    00000100000001228000000000032H0    TTTJY   000000000000NN125047
BI00B32H0    TT2206CVMW     202205171801R704152              CIVUS 1.25 P             CCN000005000000005000FN00000000020220601000005000NNE   20220429110910    1W    00000100000001228000000000032H0    TTTJY   000000000000NN125048
BI00B32H0    TT2206CVMW     202205171801R704150              CIVUS 1.25 R             CCN000141000000141000FN00000000020220601000141000NNE   20220429110910    1W    00000100000001228000000000032H0    TTTJY   000000000000NN125049
BI00B32H0    TT2206CVMW     202205171801R704192              CIVUS 1.25 V             CCN000016000000016000FN00000000020220601000016000NNE   20220429110910    1W    00000100000001228000000000032H0    TTTJY   000000000000NN125050
BI00B32H0    TT2206CVMW     202205171801R704143              CIVUS 1.25 W/B           CCN000143000000143000FN00000000020220601000143000NNE   20220429110910    1W    00000100000001228000000000032H0    TTTJY   000000000000NN125051
BI00B32H0    TT2206CVMW     202205171801R704170              CIVUS 1.25 Y             CCN000003000000003000FN00000000020220601000003000NNE   20220429110910    1W    00000100000001228000000000032H0    TTTJY   000000000000NN125052
BI00B32H0    TT2206CVMW     202205171801W006930              IVSSH 0.35F B            CCN000005000000005000FN00000000020220601000005000NNE   20220429110910    1W    00000250000000452000000000032H0    TTTJY   000000000000NN125077
BI00B32H0    TT2206CVMW     202205171801W006960              IVSSH 0.35F G            CCN000012500000012500FN00000000020220601000012500NNE   20220429110910    1W    00000250000000452000000000032H0    TTTJY   000000000000NN125078
BI00B32H0    TT2206CVMW     202205171801W006941              IVSSH 0.35F GY           CCN000002500000002500FN00000000020220601000002500NNE   20220429110910    1W    00000250000000452000000000032H0    TTTJY   000000000000NN125079
BI00B32H0    TT2206CVMW     202205171801W006990              IVSSH 0.35F L            CCN000005000000005000FN00000000020220601000005000NNE   20220429110910    1W    00000250000000452000000000032H0    TTTJY   000000000000NN125080
BI00B32H0    TT2206CVMW     202205171801W006952              IVSSH 0.35F P            CCN000002500000002500FN00000000020220601000002500NNE   20220429110910    1W    00000250000000452000000000032H0    TTTJY   000000000000NN125081
BI00B32H0    TT2206CVMW     202205171801W006950              IVSSH 0.35F R            CCN000005000000005000FN00000000020220601000005000NNE   20220429110910    1W    00000250000000452000000000032H0    TTTJY   000000000000NN125082
BI00B32H0    TT2206CVMW     202205171801W006991              IVSSH 0.35F SB           CCN000002500000002500FN00000000020220601000002500NNE   20220429110910    1W    00000250000000452000000000032H0    TTTJY   000000000000NN125083
BI00B32H0    TT2206CVMW     202205171801W006940              IVSSH 0.35F W            CCN000037500000037500FN00000000020220601000037500NNE   20220429110910    1W    00000250000000452000000000032H0    TTTJY   000000000000NN125084
BI00B32H0    TT2206CVMW     202205171801W006943              IVSSH 0.35F W/B          CCN000002500000002500FN00000000020220601000002500NNE   20220429110910    1W    00000250000000452000000000032H0    TTTJY   000000000000NN125085
BI00B32H0    TT2206CVMW     202205171801W006970              IVSSH 0.35F Y            CCN000002500000002500FN00000000020220601000002500NNE   20220429110910    1W    00000250000000452000000000032H0    TTTJY   000000000000NN125086
BI00B32H0    TT2206CVMW     202205171801W003960              IVSSH 0.5F G             CCN000001800000001800FN00000000020220601000001800NNE   20220429110910    1W    00000180000000625000000000032H0    TTTJY   000000000000NN125073
BI00B32H0    TT2206CVMW     202205171801W003990              IVSSH 0.5F L             CCN000001800000001800FN00000000020220601000001800NNE   20220429110910    1W    00000180000000625000000000032H0    TTTJY   000000000000NN125074
BI00B32H0    TT2206CVMW     202205171801W003950              IVSSH 0.5F R             CCN000009000000009000FN00000000020220601000009000NNE   20220429110910    1W    00000180000000625000000000032H0    TTTJY   000000000000NN125075
BI00B32H0    TT2206CVMW     202205171801W003991              IVSSH 0.5F SB            CCN000001800000001800FN00000000020220601000001800NNE   20220429110910    1W    00000180000000625000000000032H0    TTTJY   000000000000NN125076
BI00B32U5    DW2025         202205201801W003950              IVSSH 0.5F R             CCN000117000000000000FY00000000020220801000000000NNM10 20220429111559U5  1W    00000180000000625000000000032U5    ASAMSD  000000000000AM125029
BI00A32W6    AW220502-1     202205091801R703930              CIVUS 0.5 B              CCN000462000000462000FN00000000020220501000462000NNE   20220429142317    1W    00000220000000525000000000032W6    SYSYA-WJ000000000000WS125001
BI00A32W6    AW220502-1     202205091801R703940              CIVUS 0.5 W              CCN000030800000030800FN00000000020220501000030800NNE   20220429142317    1W    00000220000000525000000000032W6    SYSYA-WJ000000000000WS125007
BI00A32W6    AW220502-1     202205091801R703941              CIVUS 0.5 GY             CCN000041800000041800FN00000000020220501000041800NNE   20220429142317    1W    00000220000000525000000000032W6    SYSYA-WJ000000000000WS125004
BI00A32W6    AW220502-1     202205091801R703943              CIVUS 0.5 W/B            CCN000145200000145200FN00000000020220501000145200NNE   20220429142317    1W    00000220000000525000000000032W6    SYSYA-WJ000000000000WS125008
BI00A32W6    AW220502-1     202205091801R703950              CIVUS 0.5 R              CCN000279400000279400FN00000000020220501000279400NNE   20220429142317    1W    00000220000000525000000000032W6    SYSYA-WJ000000000000WS125006
BI00A32W6    AW220502-1     202205091801R703952              CIVUS 0.5 P              CCN000116600000116600FN00000000020220501000116600NNE   20220429142317    1W    00000220000000525000000000032W6    SYSYA-WJ000000000000WS125005
BI00A32W6    AW220502-1     202205091801R70395U              CIVUS 0.5 BE             CCN000090200000090200FN00000000020220501000090200NNE   20220429142317    1W    00000220000000525000000000032W6    SYSYA-WJ000000000000WS125002
BI00A32W6    AW220502-1     202205091801R703960              CIVUS 0.5 G              CCN000022000000022000FN00000000020220501000022000NNE   20220429142317    1W    00000220000000525000000000032W6    SYSYA-WJ000000000000WS125003
BI00A32W6    AW220502-2     202205091801R703970              CIVUS 0.5 Y              CCN000374000000374000FN00000000020220501000374000NNE   20220429142320    1W    00000220000000525000000000032W6    SYSYA-WJ000000000000WS125012
BI00A32W6    AW220502-2     202205091801R703960              CIVUS 0.5 G              CCN000239800000239800FN00000000020220501000239800NNE   20220429142320    1W    00000220000000525000000000032W6    SYSYA-WJ000000000000WS125010
BI00A32W6    AW220502-2     202205091801R703980              CIVUS 0.5 BR             CCN000235400000235400FN00000000020220501000235400NNE   20220429142320    1W    00000220000000525000000000032W6    SYSYA-WJ000000000000WS125009
BI00A32W6    AW220502-2     202205091801R703990              CIVUS 0.5 L              CCN000222200000222200FN00000000020220501000222200NNE   20220429142320    1W    00000220000000525000000000032W6    SYSYA-WJ000000000000WS125011
BI00A32W6    AW220502-2     202205091801R703973              CIVUS 0.5 Y/B            CCN000116600000116600FN00000000020220501000116600NNE   20220429142320    1W    00000220000000525000000000032W6    SYSYA-WJ000000000000WS125013
BI00A32W6    AW220502-3     202205091801R703992              CIVUS 0.5 V              CCN000250800000250800FN00000000020220501000250800NNE   20220429142322    1W    00000220000000525000000000032W6    SYSYA-WJ000000000000WS125016
BI00A32W6    AW220502-3     202205091801R703991              CIVUS 0.5 SB             CCN000217800000217800FN00000000020220501000217800NNE   20220429142322    1W    00000220000000525000000000032W6    SYSYA-WJ000000000000WS125015
BI00A32W6    AW220502-3     202205091801R704050              CIVUS 0.75 R             CCN000120000000120000FN00000000020220501000120000NNE   20220429142322    1W    00000150000000765000000000032W6    SYSYA-WJ000000000000WS125020
BI00A32W6    AW220502-3     202205091801R704040              CIVUS 0.75 W             CCN000094500000094500FN00000000020220501000094500NNE   20220429142322    1W    00000150000000765000000000032W6    SYSYA-WJ000000000000WS125021
BI00A32W6    AW220502-3     202205091801R704052              CIVUS 0.75 P             CCN000090000000090000FN00000000020220501000090000NNE   20220429142322    1W    00000150000000765000000000032W6    SYSYA-WJ000000000000WS125019
BI00A32W6    AW220502-3     202205091801R704030              CIVUS 0.75 B             CCN000078000000078000FN00000000020220501000078000NNE   20220429142322    1W    00000150000000765000000000032W6    SYSYA-WJ000000000000WS125017
BI00A32W6    AW220502-3     202205091801R703990              CIVUS 0.5 L              CCN000046200000046200FN00000000020220501000046200NNE   20220429142322    1W    00000220000000525000000000032W6    SYSYA-WJ000000000000WS125014
BI00A32W6    AW220502-3     202205091801R704043              CIVUS 0.75 W/B           CCN000040500000040500FN00000000020220501000040500NNE   20220429142322    1W    00000150000000765000000000032W6    SYSYA-WJ000000000000WS125022
BI00A32W6    AW220502-3     202205091801R704060              CIVUS 0.75 G             CCN000022500000022500FN00000000020220501000022500NNE   20220429142322    1W    00000150000000765000000000032W6    SYSYA-WJ000000000000WS125018
BI00A32W6    AW220502-3     202205091801R704070              CIVUS 0.75 Y             CCN000013500000013500FN00000000020220501000013500NNE   20220429142322    1W    00000150000000765000000000032W6    SYSYA-WJ000000000000WS125023
BI00A32W6    AW220502-4     202205101801R704130              CIVUS 1.25 B             CCN000144000000144000FN00000000020220501000144000NNE   20220429142323    1W    00000100000001228000000000032W6    SYSYA-WJ000000000000WU125006
BI00A32W6    AW220502-4     202205101801R704170              CIVUS 1.25 Y             CCN000092000000092000FN00000000020220501000092000NNE   20220429142323    1W    00000100000001228000000000032W6    SYSYA-WJ000000000000WU125013
BI00A32W6    AW220502-4     202205101801R704141              CIVUS 1.25 GY            CCN000061000000061000FN00000000020220501000061000NNE   20220429142323    1W    00000100000001228000000000032W6    SYSYA-WJ000000000000WU125008
BI00A32W6    AW220502-4     202205101801R704092              CIVUS 0.75 V             CCN000058500000058500FN00000000020220501000058500NNE   20220429142323    1W    00000150000000765000000000032W6    SYSYA-WJ000000000000WU125005
BI00A32W6    AW220502-4     202205101801R704160              CIVUS 1.25 G             CCN000056000000056000FN00000000020220501000056000NNE   20220429142323    1W    00000100000001228000000000032W6    SYSYA-WJ000000000000WU125007
BI00A32W6    AW220502-4     202205101801R704143              CIVUS 1.25 W/B           CCN000038000000038000FN00000000020220501000038000NNE   20220429142323    1W    00000100000001228000000000032W6    SYSYA-WJ000000000000WU125012
BI00A32W6    AW220502-4     202205101801R704152              CIVUS 1.25 P             CCN000034000000034000FN00000000020220501000034000NNE   20220429142323    1W    00000100000001228000000000032W6    SYSYA-WJ000000000000WU125010
BI00A32W6    AW220502-4     202205101801R704091              CIVUS 0.75 SB            CCN000028500000028500FN00000000020220501000028500NNE   20220429142323    1W    00000150000000765000000000032W6    SYSYA-WJ000000000000WU125004
BI00A32W6    AW220502-4     202205101801R704080              CIVUS 0.75 BR            CCN000027000000027000FN00000000020220501000027000NNE   20220429142323    1W    00000150000000765000000000032W6    SYSYA-WJ000000000000WU125002
BI00A32W6    AW220502-4     202205101801R704190              CIVUS 1.25 L             CCN000022000000022000FN00000000020220501000022000NNE   20220429142323    1W    00000100000001228000000000032W6    SYSYA-WJ000000000000WU125009
BI00A32W6    AW220502-4     202205101801R704061              CIVUS 0.75 LG            CCN000010500000010500FN00000000020220501000010500NNE   20220429142323    1W    00000150000000765000000000032W6    SYSYA-WJ000000000000WU125003
BI00A32W6    AW220502-4     202205101801R70405U              CIVUS 0.75 BE            CCN000006000000006000FN00000000020220501000006000NNE   20220429142323    1W    00000150000000765000000000032W6    SYSYA-WJ000000000000WU125001
BI00A32W6    AW220502-4     202205101801R704140              CIVUS 1.25 W             CCN000006000000006000FN00000000020220501000006000NNE   20220429142323    1W    00000100000001228000000000032W6    SYSYA-WJ000000000000WU125011
BI00A32W6    AW220502-5     202205101801R706930              CIVUS 0.35 B             CCN000876000000876000FN00000000020220501000876000NNE   20220429142324    1W    00000300000000386000000000032W6    SYSYA-WJ000000000000WU125020
BI00A32W6    AW220502-5     202205101801R704150              CIVUS 1.25 R             CCN000093000000093000FN00000000020220501000093000NNE   20220429142324    1W    00000100000001228000000000032W6    SYSYA-WJ000000000000WU125017
BI00A32W6    AW220502-5     202205101801R704161              CIVUS 1.25 LG            CCN000052000000052000FN00000000020220501000052000NNE   20220429142324    1W    00000100000001228000000000032W6    SYSYA-WJ000000000000WU125016
BI00A32W6    AW220502-5     202205101801R704192              CIVUS 1.25 V             CCN000051000000051000FN00000000020220501000051000NNE   20220429142324    1W    00000100000001228000000000032W6    SYSYA-WJ000000000000WU125019
BI00A32W6    AW220502-5     202205101801R704180              CIVUS 1.25 BR            CCN000036000000036000FN00000000020220501000036000NNE   20220429142324    1W    00000100000001228000000000032W6    SYSYA-WJ000000000000WU125015
BI00A32W6    AW220502-5     202205101801R70415U              CIVUS 1.25 BE            CCN000014000000014000FN00000000020220501000014000NNE   20220429142324    1W    00000100000001228000000000032W6    SYSYA-WJ000000000000WU125014
BI00A32W6    AW220502-5     202205101801R704191              CIVUS 1.25 SB            CCN000002000000002000FN00000000020220501000002000NNE   20220429142324    1W    00000100000001228000000000032W6    SYSYA-WJ000000000000WU125018
BI00A32W6    AW220502-6     202205101801R706941              CIVUS 0.35 GY            CCN000693000000693000FN00000000020220501000693000NNE   20220429142326    1W    00000300000000386000000000032W6    SYSYA-WJ000000000000WU125022
BI00A32W6    AW220502-6     202205101801R706950              CIVUS 0.35 R             CCN000570000000570000FN00000000020220501000570000NNE   20220429142326    1W    00000300000000386000000000032W6    SYSYA-WJ000000000000WU125023
BI00A32W6    AW220502-6     202205101801R706943              CIVUS 0.35 W/B           CCN000333000000333000FN00000000020220501000333000NNE   20220429142326    1W    00000300000000386000000000032W6    SYSYA-WJ000000000000WU125024
BI00A32W6    AW220502-6     202205101801R706930              CIVUS 0.35 B             CCN000024000000024000FN00000000020220501000024000NNE   20220429142326    1W    00000300000000386000000000032W6    SYSYA-WJ000000000000WU125021
BI00A32W6    AW220502-7     202205111801R706940              CIVUS 0.35 W             CCN001011000001011000FN00000000020220501001011000NNE   20220429142707    1W    00000300000000386000000000032W6    SYSYA-WJ000000000000WK125002
BI00A32W6    AW220502-7     202205111801R706961              CIVUS 0.35 LG            CCN000591000000591000FN00000000020220501000591000NNE   20220429142707    1W    00000300000000386000000000032W6    SYSYA-WJ000000000000WK125001
BI00A32W6    AW220502-7     202205111801R706975              CIVUS 0.35 Y/R           CCN000009000000009000FN00000000020220501000009000NNE   20220429142707    1W    00000300000000386000000000032W6    SYSYA-WJ000000000000WK125004
BI00A32W6    AW220502-7     202205111801R706976              CIVUS 0.35 Y/G           CCN000009000000009000FN00000000020220501000009000NNE   20220429142707    1W    00000300000000386000000000032W6    SYSYA-WJ000000000000WK125003
BI00A32W6    AW220502-8     202205111801R706950              CIVUS 0.35 R             CCN001008000001008000FN00000000020220501001008000NNE   20220429142709    1W    00000300000000386000000000032W6    SYSYA-WJ000000000000WK125006
BI00A32W6    AW220502-8     202205111801R706973              CIVUS 0.35 Y/B           CCN000303000000303000FN00000000020220501000303000NNE   20220429142709    1W    00000300000000386000000000032W6    SYSYA-WJ000000000000WK125008
BI00A32W6    AW220502-8     202205111801R706990              CIVUS 0.35 L             CCN000279000000279000FN00000000020220501000279000NNE   20220429142709    1W    00000300000000386000000000032W6    SYSYA-WJ000000000000WK125005
BI00A32W6    AW220502-8     202205111801R706992              CIVUS 0.35 V             CCN000030000000030000FN00000000020220501000030000NNE   20220429142709    1W    00000300000000386000000000032W6    SYSYA-WJ000000000000WK125007
BI00A32W6    AW220502-9     202205111801R706950              CIVUS 0.35 R             CCN000090000000090000FN00000000020220501000090000NNE   20220429142710    1W    00000300000000386000000000032W6    SYSYA-WJ000000000000WK125011
BI00A32W6    AW220502-9     202205111801R70695U              CIVUS 0.35 BE            CCN000321000000321000FN00000000020220501000321000NNE   20220429142710    1W    00000300000000386000000000032W6    SYSYA-WJ000000000000WK125009
BI00A32W6    AW220502-9     202205111801R706960              CIVUS 0.35 G             CCN000753000000753000FN00000000020220501000753000NNE   20220429142710    1W    00000300000000386000000000032W6    SYSYA-WJ000000000000WK125010
BI00A32W6    AW220502-9     202205111801R706992              CIVUS 0.35 V             CCN000456000000456000FN00000000020220501000456000NNE   20220429142710    1W    00000300000000386000000000032W6    SYSYA-WJ000000000000WK125012
BI00A32W6    AW220502-10    202205121801R706970              CIVUS 0.35 Y             CCN000690000000690000FN00000000020220501000690000NNE   20220429142713    1W    00000300000000386000000000032W6    SYSYA-WJ000000000000WL125003
BI00A32W6    AW220502-10    202205121801R706980              CIVUS 0.35 BR            CCN000375000000375000FN00000000020220501000375000NNE   20220429142713    1W    00000300000000386000000000032W6    SYSYA-WJ000000000000WL125001
BI00A32W6    AW220502-10    202205121801R706991              CIVUS 0.35 SB            CCN000555000000555000FN00000000020220501000555000NNE   20220429142713    1W    00000300000000386000000000032W6    SYSYA-WJ000000000000WL125002
BI00A32W6    AW220502-11    202205121801R706990              CIVUS 0.35 L             CCN000741000000741000FN00000000020220501000741000NNE   20220429142714    1W    00000300000000386000000000032W6    SYSYA-WJ000000000000WL125005
BI00A32W6    AW220502-11    20220512180TR703980              ACCIVUS 0.5 BR           CCN000002200000002200FN00000000020220501000002200NNE   20220429142714    1W    00000220000000528000000000032W6    SYSYA-WJ000000000000WL125004
BI00B32X5    TWB2025        202205201801W006950              IVSSH 0.35F R            CCN000025000000000000FY00000000020220801000000000NNM10 20220429112043X5  1W    00000250000000452000000000032X5    EPYNA-E 000000000000AE125009
BI00B32X5    TWB2026        202205271801W006950              IVSSH 0.35F R            CCN000017500000000000FY00000000020220801000000000NNE10 20220429112100X5  1W    00000250000000452000000000032X5    EPYNA-E 000000000000AE225006
BI00B32X5    TWB2027        202206021801W006950              IVSSH 0.35F R            CCN000017500000000000FY00000000020220801000000000NNE10 20220429112122X5  1W    00000250000000452000000000032X5    EPYNA-E 000000000000AE325010
BI00B32X5    TWB2028        202206091801W006950              IVSSH 0.35F R            CCN000017500000000000FY00000000020220801000000000NNE10 20220429112142X5  1W    00000250000000452000000000032X5    EPYNA-E 000000000000AE425017
