BI00B1200    #BY02867       202206167154-5597-30             CASSETTE R/B             CCN000000800000000800FN00000000020220701000000800NNE   20220429122118    2F0F  0000008000000073600000095201200    YCYC    005500360039
BI00A32AF    JTB205A        202205037289-3342                HOUSING FEMALE ASS'Y     CCN000036000000000000FY00000000020220501000000000NNED0020220429083640    1N0N  00000240000000686400000901432AF    HBYHVTB 005500360039
BI00A32AF    JTB205A        202205067289-3342                HOUSING FEMALE ASS'Y     CCN000004800000012000FN00000000020220501000012000NNED0020220429122118    1N0N  00000240000000686400000901432AF    HBYHVTB 005500360039
BI00A32AF    JTB204B        202205067289-3342-40             HOUSING FEMALE ASS'Y     CCN000004800000002400FN00000000020220401000002400NNED0020220429122118    1N0N  00000240000000686400000901432AF    HBYHVTB 005500360039
BI00A32AF    JTB204B        202205067289-3342-90             HOUSING FEMALE ASS'Y     CCN000004800000002400FN00000000020220401000002400NNED0020220429122118    1N0N  00000240000000686400000901432AF    HBYHVTB 005500360039
BI00B32CA    PTA32111       202207217114-5096-02             TERMINAL                 CCN000336000000360000FN00000000020221101000360000NNE   20220429122118    4P0P  00003000000000498000000792232CA    YPYPY   006400630015
BI00B32CA    PTA32111       202207217114-5096-08             TERMINAL                 CCN000104000000120000FN00000000020221101000120000NNE   20220429122118    4P0P  00003000000000498000000792232CA    YPYPY   006400630015
BI00B32CA    PTA32111       202207217116-3153-02             TERMINAL FEMALE          CCN001584000001593000FN00000000020221101001593000NNE   20220429122118    4P0P  00002700000000459000000744232CA    YPYPY   006400630015
BI00B32CA    PTA32111       202207217116-3154-02             TERMINAL FEMALE          CCN000396000000405000FN00000000020221101000405000NNE   20220429122118    4P0P  00002700000000469800000755032CA    YPYPY   006400630015
BI00B32CA    PTA32111       202207217116-4486-02             TERMINAL                 CCN000260000000280000FN00000000020221101000280000NNE   20220429122118    4P0P  00002800000000666400000995132CA    YPYPY   006400630017
BI00B32CA    PTA32111       202207217158-3167-80             WIRE SEAL                CCN000200000000200000FN00000000020221101000200000NNE   20220429122118    1C0C  00002000000000048000000109032CA    YPYPY   002700430014
BI00B32CA    PTA32111       202207217158-3168-80             SEALED                   CCN000040000000040000FN00000000020221101000040000NNE   20220429122118    1C0C  00002000000000044000000092132CA    YPYPY   004300260014
BI00B32CA    PTA32111       202207217158-3169-40             SEALING PLUG             CCN000060000000080000FN00000000020221101000080000NNE   20220429122118    1C0C  00004000000000156000000204132CA    YPYPY   004300260014
BI00B32CA    PTA32111       202207217196-0510-02             TERMINAL                 CCN000120000000120000FN00000000020221101000120000NNE   20220429122118    4P0P  00002400000000871200001034632CA    YPYPY   002800510028
BI00B32CA    PTA32111       202207217287-9323                UNSEALED HOUSING SUB     CCN000007200000007200FN00000000020221101000007200NNE   20220429122118    1N0N  00000240000000537600000690032CA    YPYPY   005600390023
BI00B32CA    PTA32111       202207217289-3342                HOUSING FEMALE ASS'Y     CCN000055200000055200FN00000000020221101000055200NNE   20220429122118    1N0N  00000240000000686400000901432CA    YPYPY   005500360039
BI00B32CA    PTA32111       202207217289-3342-30             HOUSING FEMALE ASS'Y     CCN000069600000069600FN00000000020221101000069600NNE   20220429122118    1N0N  00000240000000686400000901432CA    YPYPY   005500360039
BI00B32CA    PTA32111       202207217289-3342-90             HOUSING FEMALE ASS'Y     CCN000019200000019200FN00000000020221101000019200NNE   20220429122118    1N0N  00000240000000686400000901432CA    YPYPY   005500360039
BI00B32CA    #PTA32111      202207217154-5597-30             CASSETTE R/B             CCN000006400000006400FN00000000020221101000006400NNE   20220429122118    2F0F  00000080000000736000000952032CA    YPYPY   005500360039
BI00B32CA    #PTA32111      202207217189-3032-30             HOUSING FEMALE           CCN000009600000009600FN00000000020221101000009600NNE   20220429122118    2F0F  00000160000000801600001021632CA    YPYPY   005500360039
BI00B32CA    #PTA32111      202207217189-3034-30             HOUSING FEMALE           CCN000003200000003200FN00000000020221101000003200NNE   20220429122118    2F0F  00000160000000972800001192832CA    YPYPY   005500360039
BI00B32CA    PTA32113       202208117114-5096-02             TERMINAL                 CCN000328000000330000FN00000000020221101000330000NNE   20220429122118    4P0P  00003000000000498000000792232CA    YPYPY   006400630015
BI00B32CA    PTA32113       202208117114-5096-08             TERMINAL                 CCN000104000000120000FN00000000020221101000120000NNE   20220429122118    4P0P  00003000000000498000000792232CA    YPYPY   006400630015
BI00B32CA    PTA32113       202208117116-3153-02             TERMINAL FEMALE          CCN001320000001323000FN00000000020221101001323000NNE   20220429122118    4P0P  00002700000000459000000744232CA    YPYPY   006400630015
BI00B32CA    PTA32113       202208117116-3154-02             TERMINAL FEMALE          CCN000396000000405000FN00000000020221101000405000NNE   20220429122118    4P0P  00002700000000469800000755032CA    YPYPY   006400630015
BI00B32CA    PTA32113       202208117116-4486-02             TERMINAL                 CCN000253500000280000FN00000000020221101000280000NNE   20220429122118    4P0P  00002800000000666400000995132CA    YPYPY   006400630017
BI00B32CA    PTA32113       202208117158-3167-80             WIRE SEAL                CCN000200000000200000FN00000000020221101000200000NNE   20220429122118    1C0C  00002000000000048000000109032CA    YPYPY   002700430014
BI00B32CA    PTA32113       202208117158-3168-80             SEALED                   CCN000040000000040000FN00000000020221101000040000NNE   20220429122118    1C0C  00002000000000044000000092132CA    YPYPY   004300260014
BI00B32CA    PTA32113       202208117196-0510-02             TERMINAL                 CCN000096000000096000FN00000000020221101000096000NNE   20220429122118    4P0P  00002400000000871200001034632CA    YPYPY   002800510028
BI00B32CA    PTA32113       202208117287-9323                UNSEALED HOUSING SUB     CCN000004800000004800FN00000000020221101000004800NNE   20220429122118    1N0N  00000240000000537600000690032CA    YPYPY   005600390023
BI00B32CA    PTA32113       202208117289-3342                HOUSING FEMALE ASS'Y     CCN000026400000026400FN00000000020221101000026400NNE   20220429122118    1N0N  00000240000000686400000901432CA    YPYPY   005500360039
BI00B32CA    PTA32113       202208117289-3342-30             HOUSING FEMALE ASS'Y     CCN000045600000045600FN00000000020221101000045600NNE   20220429122118    1N0N  00000240000000686400000901432CA    YPYPY   005500360039
BI00B32CA    PTA32113       202208117289-3342-90             HOUSING FEMALE ASS'Y     CCN000019200000019200FN00000000020221101000019200NNE   20220429122118    1N0N  00000240000000686400000901432CA    YPYPY   005500360039
BI00B32CA    #PTA32113      202208117154-5597-30             CASSETTE R/B             CCN000005600000005600FN00000000020221101000005600NNE   20220429122118    2F0F  00000080000000736000000952032CA    YPYPY   005500360039
BI00B32CA    #PTA32113      202208117189-3032-30             HOUSING FEMALE           CCN000003200000003200FN00000000020221101000003200NNE   20220429122118    2F0F  00000160000000801600001021632CA    YPYPY   005500360039
BI00B32CC    CTA32091       202207077289-3342                HOUSING FEMALE ASS'Y     CCN000012000000012000FN00000000020220901000012000NNED0420220429122118    1N0N  00000240000000686400000901432CC    BIYABCBU005500360039
BI00B32CJ    JQN2011        202204297289-3342-30             HOUSING FEMALE ASS'Y     CCN000004800000000000FY00000000020220101000000000NNMD0420220429164646    1N0N  00000240000000686400000901432CJ    QNYHVQN 005500360039
BI00B32CJ    JQN2011        202205067289-3342-30             HOUSING FEMALE ASS'Y     CCN000004800000009600FN00000000020220101000009600NNMD0420220429164646    1N0N  00000240000000686400000901432CJ    QNYHVQN 005500360039
BI00B32D2    DGTC2230       202206097289-3342                HOUSING FEMALE ASS'Y     CCN000028800000028800FN00000000020220701000028800NNMD0420220429122118    1N0N  00000240000000686400000901432D2    TGYOT-G 005500360039
BI00B32D2    DGTC2230B      202206027289-3342                HOUSING FEMALE ASS'Y     CCN000024000000024000FN00000000020220701000024000NNED0420220429122118    1N0N  00000240000000686400000901432D2    TGYOT-G 005500360039
BI00B32EJ    T220311P04     202204287283-5843                CONNECTOR                CCN000022500000012000FY00001200020220401000000000NNED0220220429100155EJ  1N0N  00000150000000889000001132032EJ    EJYKBO  005600390040
BI00B32EJ    T220329P01     202204287158-3166-60             WIRE SEAL                CCN000920000000920000FY00092000020220401000000000NNED0220220429100225EJ  1C0C  00004000000000104000000152432EJ    EJYKBO  002700430014
BI00B32EJ    T220329P01     202204287158-3167-61             WIRE SEAL                CCN000040000000040000FY00004000020220401000000000NNED0220220429100234EJ  1C0C  00002000000000048000000096432EJ    EJYKBO  004300270014
BI00B32EJ    T220428P01     202205197116-4104-02             TERMINAL                 CCN000012000000012000FN00000000020220601000012000NNE   20220429122118EJ  4P0P  00001200000000580800000972432EJ    EJYKBO  006400630015
BI00B32EJ    T220428P01     202205197116-4102-02             TERMINAL                 CCN000012000000012000FN00000000020220601000012000NNE   20220429122118EJ  4P0P  00001200000000553200000841432EJ    EJYKBO  006400630015
BI00B32EJ    T220428P01     202205197196-1461-06             TERMINAL FEMALE          CCN000048000000048000FN00000000020220601000048000NNE   20220429122118EJ  4P0P  00002400000000386400000692932EJ    EJYKBO  006400630015
BI00B32EJ    T220428P01     202205197116-4120-02             TERMINAL                 CCN000006000000006000FN00000000020220601000006000NNE   20220429122118EJ  4P0P  00000600000000780000001073632EJ    EJYKBO  006400630015
BI00B32EJ    T220428P01     202205197126-8855-02             TERMINAL                 CCN000006000000006000FN00000000020220601000006000NNE   20220429122118EJ  4P0P  00000600000000510600000795832EJ    EJYKBO  006400630015
BI00B32EJ    #T220428P01    202205197282-6458-40             CONNECTOR                CCN000002000000002000FN00000000020220601000002000NNE   20220429122118EJ  2N0N  00000100000001206000001350532EJ    EJYKBO  005500360039
BI00B32EJ    #T220428P01    202205197157-3952-80             RUBBER STOPPER           CCN000010000000010000FN00000000020220601000010000NNE   20220429122118EJ  2C0C  00001000000000117000000175032EJ    EJYKBO  002700430014
BI00B32G8    PATA2071       202206017017-1181-02             TERMINAL                 CCN000189000000189000FN00000000020220601000189000NNM   20220429122118    4P0P  00006300000001089900001266832G8    PSPASI  005100280028
BI00B32G8    PATA2071       202206017273-3570-0W             CASSETTE BRACKET         CCN000003000000003000FN00000000020220601000003000NNM   20220429122118    4N0N  00000010000000144100000196632G8    PSPASI  004300270014
BI00B32G8    PATA2071       202206017273-3573-0W             CASSETTE BRACKET         CCN000012000000012000FN00000000020220601000012000NNM   20220429122118    4N0N  00000010000000087700000140232G8    PSPASI  004300270014
BI00B32G8    PATA2071       202206017273-3571-0W             CASSETTE BRACKET         CCN000006000000006000FN00000000020220601000006000NNM   20220429122118    4N0N  00000010000000134600000187132G8    PSPASI  004300270014
BI00B32G8    PATA2071       202206017470-5302                J/B COMPLETE ASS'Y       CCN000000600000000600FN00000000020220601000000600NNM   20220429122118    4J0J  00000001000000494000000661032G8    PSPASI  005400370024
BI00B32G8    PATA2071       202206017470-5945                J/B COMPLETE ASS'Y       CCN000003830000003830FN00000000020220601000003830NNM   20220429122118    4J0J  00000001000000494000000661032G8    PSPASI  005400370024
BI00B32G8    PATA2071       202206017470-5938                J/B COMPLETE ASS'Y       CCN000000050000000050FN00000000020220601000000050NNM   20220429122118    4J0J  00000001000000494000000661032G8    PSPASI  005400370024
BI00B32G8    PATA2071       202206017470-5946                J/B COMPLETE ASS'Y       CCN000000420000000420FN00000000020220601000000420NNM   20220429122118    4J0J  00000001000000494000000661032G8    PSPASI  005400370024
BI00B32G8    PATA2071       202206017470-5939                J/B COMPLETE ASS'Y       CCN000000140000000140FN00000000020220601000000140NNM   20220429122118    4J0J  00000001000000494000000661032G8    PSPASI  005400370024
BI00B32G8    PATA2071       202206017470-6156                J/B COMPLETE ASS'Y       CCN000000080000000080FN00000000020220601000000080NNM   20220429122118    4J00  00000001000000494000000661032G8    PSPASI  005400370024
BI00B32G8    PATA2061C      202205117017-1181-02             TERMINAL                 CCN000063000000063000FN00000000020220501000063000NNE   20220429122118    4P0P  00006300000001089900001266832G8    PSPASI  005100280028
BI00B32H2    TIJ207A        202206107196-1941-02             TERMINAL FEMALE          CCN000011400000011400FN00000000020220701000011400NNE   20220429122118    4P0P  00001140000000506200000794432H2    HVYHV   006400630015
BI00B32H2    #TIJ207A       202206107116-4021                TERMINAL                 CCN000013500000013500FN00000000020220701000013500NNE   20220429122118    2F0P  00001350000000534600000868832H2    HVYHV   006400630015
BI00B32H2    TIJ207B        202206177196-1940-02             TERMINAL FEMALE          CCN000013500000013500FN00000000020220701000013500NNE   20220429122118    4P0P  00001350000000529200000817432H2    HVYHV   006400630015
BI00B32H2    TIJ207B        202206177196-1941-02             TERMINAL FEMALE          CCN000034200000034200FN00000000020220701000034200NNE   20220429122118    4P0P  00001140000000506200000794432H2    HVYHV   006400630015
BI00B32H2    #TIJ207B       202206177286-7860                HOUSING MALE ASS'Y       CCN000020800000020800FN00000000020220701000020800NNE   20220429122118    2N0N  00000080000000951700001139832H2    HVYHV   005400370024
BI00B32H2    TIJ207C        202206247116-4231-02             TERMINAL                 CCN000052000000052000FN00000000020220701000052000NNE   20220429122118    4P0P  00002600000000683800001012532H2    HVYHV   006400630017
BI00B32H2    TIJ207C        202206247158-3165-90             WIRE SEAL                CCN000080000000080000FN00000000020220701000080000NNE   20220429122118    1C0C  00004000000000124000000172432H2    HVYHV   004300270014
BI00B32H2    TIJ207C        202206247282-4578-30             HOUSING MALE ASS'Y       CCN000001200000001200FN00000000020220701000001200NNE   20220429122118    4N0N  00000120000000782600000992632H2    HVYHV   005500360039
BI00B32H2    #TIJ207C       202206247286-7860                HOUSING MALE ASS'Y       CCN000004000000004000FN00000000020220701000004000NNE   20220429122118    2N0N  00000080000000951700001139832H2    HVYHV   005400370024
BI00B32H2    TIJ207D        202207017196-1460-02             TERMINAL FEMALE          CCN000028500000028500FN00000000020220701000028500NNE   20220429122118    4P0P  00002850000000444600000729832H2    HVYHV   006400630015
BI00B32H2    TIJ207D        202207017283-1156                CONNECTOR                CCN000012800000012800FN00000000020220701000012800NNE   20220429122118    4N0N  00000080000000877600001078032H2    HVYHV   005600390040
BI00B32H2    #TIJ207D       202207017286-7860                HOUSING MALE ASS'Y       CCN000008000000008000FN00000000020220701000008000NNE   20220429122118    2N0N  00000080000000951700001139832H2    HVYHV   005400370024
BI00B32H2    TIJ207E        202207087116-4231-02             TERMINAL                 CCN000026000000026000FN00000000020220701000026000NNE   20220429122118    4P0P  00002600000000683800001012532H2    HVYHV   006400630017
BI00B32H2    TIJ207E        202207087196-1466-02             TERMINAL MALE            CCN000028500000028500FN00000000020220701000028500NNE   20220429122118    4P0P  00002850000000427500000712732H2    HVYHV   006400630015
BI00B32H2    TIJ207E        202207087283-1156                CONNECTOR                CCN000012800000012800FN00000000020220701000012800NNE   20220429122118    4N0N  00000080000000877600001078032H2    HVYHV   005600390040
BI00B32H2    #TIJ207E       202207087286-7860                HOUSING MALE ASS'Y       CCN000012800000012800FN00000000020220701000012800NNE   20220429122118    2N0N  00000080000000951700001139832H2    HVYHV   005400370024
BI00B32J1    393705         202205097158-3167-80             WIRE SEAL                CCN002640000002640000FN00000000020220501002640000NNMD0020220429122118    1C0C  00002000000000048000000109032J1    UKYEL-BL002700430014
BI00B32J1    393931         202205167158-3167-80             WIRE SEAL                CCN002640000002640000FN00000000020220501002640000NNMD0020220429122118    1C0C  00002000000000048000000109032J1    UKYEL-BL002700430014
BI00B32J1    #394161        202206137183-7725-40             HOUSING                  CCN000006000000006000FN00000000020220601000006000NNE   20220429122118    2F0F  00000600000000840000001040032J1    UKYEL-BL005600390040
BI00B32J1    #394161        202206137282-6446-40             CONNECTOR                CCN000001500000001500FN00000000020220601000001500NNE   20220429122118    2N0N  00000150000001185000001368032J1    UKYEL-BL005500360039
BI00B32J1    394113         202205237114-1475                TERMINAL                 CCN000040500000040500FN00000000020220501000040500NNM   20220429122118    4P0P  00001350000000480600000774232J1    UKYEL-BL006400630015
BI00B32J1    394113         202205237116-4020                TERMINAL                 CCN000013500000013500FN00000000020220501000013500NNM   20220429122118    4P0P  00001350000000513000000798232J1    UKYEL-BL006400630015
BI00B32J1    394113         202205237116-6042                TERMINAL                 CCN000018000000018000FN00000000020220501000018000NNM   20220429122118    4P0P  00000300000000523800000856132J1    UKYEL-BL006400630015
BI00B32J1    394113         202205237126-8850-02             TERMINAL                 CCN000009000000009000FN00000000020220501000009000NNM   20220429122118    1P0P  00000900000000672300000957532J1    UKYEL-BL006400630015
BI00B32J1    394113         202205237158-3006-90             RUBBER STOPPER           CCN000040000000040000FN00000000020220501000040000NNM   20220429122118    1C0C  00002000000000330600000386032J1    UKYEL-BL002700430014
BI00B32J1    394113         202205237158-3165-90             WIRE SEAL                CCN000040000000040000FN00000000020220501000040000NNM   20220429122118    1C0C  00004000000000124000000172432J1    UKYEL-BL004300270014
BI00B32J1    394113         202205237158-3166-60             WIRE SEAL                CCN002160000002160000FN00000000020220501002160000NNM   20220429122118    1C0C  00004000000000104000000152432J1    UKYEL-BL002700430014
BI00B32J1    394113         202205237158-3167-80             WIRE SEAL                CCN002640000002640000FN00000000020220501002640000NNM   20220429122118    1C0C  00002000000000048000000109032J1    UKYEL-BL002700430014
BI00B32J1    394113         202205237158-3168-80             SEALED                   CCN000440000000440000FN00000000020220501000440000NNM   20220429122118    1C0C  00002000000000044000000092132J1    UKYEL-BL004300260014
BI00B32J1    394113         202205237196-1461-06             TERMINAL FEMALE          CCN000024000000024000FN00000000020220501000024000NNM   20220429122118    4P0P  00002400000000386400000692932J1    UKYEL-BL006400630015
BI00B32J1    394113         202205237196-1462-02             TERMINAL FEMALE          CCN000042000000042000FN00000000020220501000042000NNM   20220429122118    4P0P  00002100000000352800000638032J1    UKYEL-BL006400630015
BI00B32J1    394113         202205237282-5574-10             CONNECTOR                CCN000018400000018400FN00000000020220501000018400NNM   20220429122118    4N0N  00000080000001235000001423032J1    UKYEL-BL005600390040
BI00B32J1    394113         202205237282-6448-40             CONNECTOR                CCN000001600000001600FN00000000020220501000001600NNM   20220429122118    4N0N  00000080000000887000001152732J1    UKYEL-BL005600390040
BI00B32J1    394113         202205237282-6568-40             CONNECTOR                CCN000003000000003000FN00000000020220501000003000NNM   20220429122118    4N0N  00000100000001206000001370732J1    UKYEL-BL005500360039
BI00B32J1    394113         202205237283-5549-30             CONNECTOR                CCN000001500000001500FN00000000020220501000001500NNM   20220429122118    4N0N  00000150000001193000001384732J1    UKYEL-BL005500360039
BI00B32J1    394113         202205237283-5830                CONNECTOR                CCN000024000000024000FN00000000020220501000024000NNM   20220429122118    1N47  00000600000000954000001104032J1    UKYEL-BL005500360039
BI00B32J1    394113         202205237283-6388-40             CONNECTOR                CCN000006000000006000FN00000000020220501000006000NNM   20220429122118    4N0N  00000200000001029000001173532J1    UKYEL-BL005500360039
BI00B32J1    394113         202205237283-8599-30             CONNECTOR                CCN000003080000003080FN00000000020220501000003080NNM   20220429122118    4N0N  00000154000000947100001157032J1    UKYEL-BL005600390023
BI00B32J1    394113         202205237289-5000                HOUSING FEMALE ASS'Y     CCN000002128000002128FN00000000020220501000002128NNM   20220429122118    1N0N  00000030400000549000000759032J1    UKYEL-BL005400370024
BI00B32J1    394113         202205237298-1869-30             HOUSING FEMALE ASS'Y     CCN000038400000038400FN00000000020220501000038400NNM   20220429122118    4N0N  00000120000000737000000939832J1    UKYEL-BL005500360039
BI00B32J1    394113         202205237298-2278-30             HOUSING FEMALE ASS'Y     CCN000031200000031200FN00000000020220501000031200NNM   20220429122118    4N0N  00000240000001091700001295432J1    UKYEL-BL005500360039
BI00B32J1    394113         202205237298-2508-30             HOUSING FEMALE ASS'Y     CCN000003600000003600FN00000000020220501000003600NNM   20220429122118    4N0N  00000120000000822000001005032J1    UKYEL-BL005500360039
BI00B32J1    394113         202205237298-2509-30             HOUSING FEMALE ASS'Y     CCN000012000000012000FN00000000020220501000012000NNM   20220429122118    4N0N  00000120000000857500001062532J1    UKYEL-BL005500360039
BI00B32J1    394113         202205237327-6654-3W             BATTERY FUSE             CCN000000960000000960FN00000000020220501000000960NNM   20220429122118    4N0N  00000009600001132300001312432J1    UKYEL-BL005500360039
BI00B32J1    394113         202205237327-6840-3W             BATTERY FUSE             CCN000003312000003312FN00000000020220501000003312NNM   20220429122118    4N0N  00000007200001140900001355932J1    UKYEL-BL005500360039
BI00B32J1    #394113        202205237047-5344                RETAINER                 CCN000020000000020000FN00000000020220501000020000NNM   20220429122118    2F0F  00001000000000870000001016032J1    UKYEL-BL005600390023
BI00B32J1    #394113        202205237157-3821                RUBBER STOPPER           CCN000020000000020000FN00000000020220501000020000NNM   20220429122118    2C0C  00002000000000176000000238032J1    UKYEL-BL002700430014
BI00B32J1    #394113        202205237282-4192-40             CONNECTOR                CCN000003600000003600FN00000000020220501000003600NNM   20220429122118    2N0N  00000024000000801000001083732J1    UKYEL-BL005600390040
BI00B32J1    #394113        202205237282-6446-40             CONNECTOR                CCN000004500000004500FN00000000020220501000004500NNM   20220429122118    2N0N  00000150000001185000001368032J1    UKYEL-BL005500360039
BI00B32J1    #394113        202205237282-6457-40             CONNECTOR                CCN000007200000007200FN00000000020220501000007200NNM   20220429122118    2N0N  00000080000001137000001421332J1    UKYEL-BL005600390040
BI00B32J1    #394113        202205237283-8397-40             CONNECTOR                CCN000015400000015400FN00000000020220501000015400NNM   20220429122118    2N0N  00000154000001007000001222732J1    UKYEL-BL005600390023
BI00B32J1    #394113        202205237297-1907-30             HOUSING MALE ASS'Y       CCN000004500000004500FN00000000020220501000004500NNM   20220429122118    2N0N  00000150000000451800000568032J1    UKYEL-BL005400370024
BI00B32J1    394163         202206277158-3070-80             RUBBER STOPPER           CCN000080000000080000FN00000000020220601000080000NNE   20220429122118    1C0C  00004000000000276000000333332J1    UKYEL-BL002700430014
BI00B32J1    #394163        202206277282-6457-40             CONNECTOR                CCN000000800000000800FN00000000020220601000000800NNE   20220429122118    2N0N  00000080000001137000001421332J1    UKYEL-BL005600390040
BI00B32J1    394162         202206207283-5846                HOUSING                  CCN000003000000003000FN00000000020220601000003000NNE   20220429122118    1N0N  00000150000000885000001102032J1    UKYEL-BL005600390040
BI00B32K8    #K1220010906   202206177137-2717-50             SEALED CONNECTOR         CCN000016000000016000FN00000000020220801000016000NNM   20220429122118    2C0C  00000400000000212800000284032K8    ELELCOM 002700430014
BI00B32K8    #K1220010906   202206177137-2718-50             SEALED CONNECTOR         CCN000005000000005000FN00000000020220801000005000NNM   20220429122118    2C0C  00000100000000118300000236632K8    ELELCOM 002700430014
BI00B32M4    TP2071         202206237282-4855-40             HOUSING MALE ASS'Y       CCN000003600000003600FN00000000020220701000003600NNMD0220220429134629    4N0N  00000120000001063200001283232M4    SISAI   005500360039
BI00B32M4    TP2072         202207077282-4855-40             HOUSING MALE ASS'Y       CCN000002400000002400FN00000000020220701000002400NNMD0220220429134645    4N0N  00000120000001063200001283232M4    SISAI   005500360039
BI00B32M4    TP2073         202207077282-4855-40             HOUSING MALE ASS'Y       CCN000002400000002400FN00000000020220701000002400NNMD0220220429134658    4N0N  00000120000001063200001283232M4    SISAI   005500360039
BI00A32R7    R-TAP220068    202205197298-1186-40             SQUIB SUB ASS'Y          CCN000080000000080000FN00000000020220301000080000NNED0220220429163238    4N0N  00001000000000650000000774532R7    IVYCIC  005400370024
BI00B32R7    R-TAP220204    202205267289-9553-50             SEALED ASSY FEMALE       CCN000041160000041160FN00000000020220501000041160NNED0720220429122118    4N0N  00000294000001108100001520632R7    IVYCIC  005500360039
BI00B32R7    R-TAP220205    202205197116-4122-02             TERMINAL                 CCN000004500000004500FN00000000020220601000004500NNE   20220429122118    4P0P  00000450000000656600000950232R7    IVYCIC  006400630015
BI00A32W4    4500189785     202204297158-3167-80             WIRE SEAL                CCN000020000000020000FN00002000020220401000000000NNED0020220429122118W4761C0C  00002000000000048000000109032W476  HJYHK-J 002700430014
BI00A32W4    4500190711     202204297114-4112-02             TERMINAL                 CCN000036000000036000FN00003600020220401000000000NNE00020220429122118W4524P0P  00000900000000598500000927132W452  HJYHK   006400630017
BI00B32W4    #4500191891    202205037157-7811-80             SEAL RUBBER              CCN000010000000010000FN00000000020220401000010000NNE00020220429122118W42 2C0C  00001000000000105000000182732W42   HJYHK   002700430014
BI00B32W4    #4500191891    202205107157-7812                SEAL RUBBER              CCN000050000000050000FN00000000020220401000050000NNED0020220429161053W42 2C0C  00001000000000137000000202032W42   HJYHK   002700430014
BI00A32W4    4500192094     202205037116-4103-02             TERMINAL                 CCN000012000000012000FN00000000020220501000012000NNE00020220429163528W4194P0P  00001200000000571200000859432W419  HJYHK   006400630015
BI00B32W9    #4500190602    202205037157-7812                SEAL RUBBER              CCN000300000000050000FN00000000020220501000050000NNED0020220429144722W9  2C0C  00001000000000137000000202032W9    HKYHK   002700430014
BI00B32W9    #4500190602    202205127157-7812                SEAL RUBBER              CCN000250000000250000FN00000000020220501000250000NNED0020220429144730W9  2C0C  00001000000000137000000202032W9    HKYHK   002700430014
BI00B32Y2    TAU221211      202206027288-3206                HOUSING MALE ASS'Y       CCN000027540000004080FN00000000020221001000004080NNMD0420220429134753    1N0N  00000102000000387600000787632Y2    YUYUY   005500360039
BI00B32Y2    TAU221211      202206307289-3342-30             HOUSING FEMALE ASS'Y     CCN000074400000074400FN00000000020221001000074400NNMD0420220429122118    1N0N  00000240000000686400000901432Y2    YUYUY   005500360039
BI00B32Y2    TAU221211      202206097288-3206                HOUSING MALE ASS'Y       CCN000008160000008160FN00000000020221001000008160NNMD0420220429134823    1N0N  00000102000000387600000787632Y2    YUYUY   005500360039
BI00B32Y2    TAU221211      202206167288-3206                HOUSING MALE ASS'Y       CCN000008160000008160FN00000000020221001000008160NNMD0420220429134841    1N0N  00000102000000387600000787632Y2    YUYUY   005500360039
BI00B32Y2    TAU221211      202206237288-3206                HOUSING MALE ASS'Y       CCN000007140000007140FN00000000020221001000007140NNMD0420220429134846    1N0N  00000102000000387600000787632Y2    YUYUY   005500360039
BI00B32Y4    ITA32091       202206027158-3166-60             WIRE SEAL                CCN000440000000440000FN00000000020220901000440000NNE   20220429122118    1C0C  00004000000000104000000152432Y4    BIYAB-I 002700430014
BI00B32Y4    ITA32091       202206027158-3167-80             WIRE SEAL                CCN000320000000320000FN00000000020220901000320000NNE   20220429122118    1C0C  00002000000000048000000109032Y4    BIYAB-I 002700430014
BI00B32Y4    ITA32091       202206027158-3168-80             SEALED                   CCN000080000000080000FN00000000020220901000080000NNE   20220429122118    1C0C  00002000000000044000000092132Y4    BIYAB-I 004300260014
BI00B32Y4    ITA32091       202206027158-3169-40             SEALING PLUG             CCN000080000000080000FN00000000020220901000080000NNE   20220429122118    1C0C  00004000000000156000000204132Y4    BIYAB-I 004300260014
BI00B32Y4    ITA32091       202206027289-4696-30             HOUSING FEMALE ASS'Y     CCN000006000000006000FN00000000020220901000006000NNE   20220429122118    4N0N  00000200000000913400001055432Y4    BIYAB-I 005400370024
BI00B32Y4    ITA32091       202206027327-6654-3W             BATTERY FUSE             CCN000002500000002592FN00000000020220901000002592NNE   20220429122118    4N0N  00000009600001132300001312432Y4    BIYAB-I 005500360039
BI00B32Y4    #ITA32091      202206027158-3654-80             WIRE TUBE                CCN000020000000040000FN00000000020220901000040000NNE   20220429122118    2H0H  00004000000000104000000152232Y4    BIYAB-I 004300270014
BI00B32Y4    #ITA32091      202206027183-7725-40             HOUSING                  CCN000006000000006000FN00000000020220901000006000NNE   20220429122118    2F0F  00000600000000840000001040032Y4    BIYAB-I 005600390040
BI00B32Y4    ITA32093       202206167158-3166-60             WIRE SEAL                CCN000440000000440000FN00000000020220901000440000NNE   20220429122118    1C0C  00004000000000104000000152432Y4    BIYAB-I 002700430014
BI00B32Y4    ITA32093       202206167158-3167-80             WIRE SEAL                CCN000240000000240000FN00000000020220901000240000NNE   20220429122118    1C0C  00002000000000048000000109032Y4    BIYAB-I 002700430014
BI00B32Y4    ITA32093       202206167158-3168-80             SEALED                   CCN000040000000040000FN00000000020220901000040000NNE   20220429122118    1C0C  00002000000000044000000092132Y4    BIYAB-I 004300260014
BI00B32Y4    ITA32093       202206167158-3169-40             SEALING PLUG             CCN000080000000080000FN00000000020220901000080000NNE   20220429122118    1C0C  00004000000000156000000204132Y4    BIYAB-I 004300260014
BI00B32Y4    ITA32093       202206167289-4696-30             HOUSING FEMALE ASS'Y     CCN000006000000006000FN00000000020220901000006000NNE   20220429122118    4N0N  00000200000000913400001055432Y4    BIYAB-I 005400370024
BI00B32Y4    ITA32093       202206167327-6654-3W             BATTERY FUSE             CCN000002500000002592FN00000000020220901000002592NNE   20220429122118    4N0N  00000009600001132300001312432Y4    BIYAB-I 005500360039
BI00B32Y4    #ITA32093      202206167158-3654-80             WIRE TUBE                CCN000020000000040000FN00000000020220901000040000NNE   20220429122118    2H0H  00004000000000104000000152232Y4    BIYAB-I 004300270014
BI00B32Y5    TTA32101       202208027289-6547                HOUSING FEMALE ASS'Y     CCN000004800000004800FN00000000020221001000004800NNMD0220220429134943    1N0N  00000240000001152000001362032Y5    BZYBL   005500360039
BI00B32Y5    TTA32102       202208027289-6547                HOUSING FEMALE ASS'Y     CCN000004800000004800FN00000000020221001000004800NNMD0220220429134958    1N0N  00000240000001152000001362032Y5    BZYBL   005500360039
BI00B32Y5    TTA32103       202208027289-6547                HOUSING FEMALE ASS'Y     CCN000004800000004800FN00000000020221001000004800NNMD0220220429135012    1N0N  00000240000001152000001362032Y5    BZYBL   005500360039
BI00B32Y5    TTA32104       202208027289-6547                HOUSING FEMALE ASS'Y     CCN000004800000004800FN00000000020221001000004800NNMD0220220429135024    1N0N  00000240000001152000001362032Y5    BZYBL   005500360039
