BI00A1200    AWNYSAL2103    2022031318000004530              AV 8 B                   PNN000000100000000100FN00000000020220201000000100NNE30 20220303170107    1W    0000001000001046620000000001200    YCYC    000000000000RO123001
BI00B32AG    @XG22061LMW    20220506181E48031ZZ              CAVSAS-S 0.3X2 GY        CCN000002450000002450FN00000000020220601000002450NNM   20220303170107    1W    00000035000002008700000000032AG    XGXGY   000000000000XY324001
BI00B32AG    @XG22062LMW    20220513181E48031ZZ              CAVSAS-S 0.3X2 GY        CCN000003150000003150FN00000000020220601000003150NNM   20220303170107    1W    00000035000002008700000000032AG    XGXGY   000000000000XY424001
BI00B32AG    @XG22063LMW    20220520181E48031ZZ              CAVSAS-S 0.3X2 GY        CCN000003850000003850FN00000000020220601000003850NNM   20220303170107    1W    00000035000002008700000000032AG    XGXGY   000000000000XY125001
BI00B32AG    @XG22064LMW    20220527181E48031ZZ              CAVSAS-S 0.3X2 GY        CCN000004200000004200FN00000000020220601000004200NNM   20220303170107    1W    00000035000002008700000000032AG    XGXGY   000000000000XY225001
BI00B32A7    ZZ22052LMW     2022040618000004530              AV 8 B                   CCN000003300000003300FN00000000020220501000003300NNM   20220303170107    1W    00000010000010466200000000032A7    ZZZZY   000000000000ZZ423010
BI00B32A7    ZZ22053LMW     2022042018000004530              AV 8 B                   CCN000004400000004400FN00000000020220501000004400NNM   20220303170107    1W    00000010000010466200000000032A7    ZZZZY   000000000000ZZ124020
BI00B32A7    ZZ22054LMW     2022042718000004530              AV 8 B                   CCN000002000000002000FN00000000020220501000002000NNM   20220303170107    1W    00000010000010466200000000032A7    ZZZZY   000000000000ZZ224022
BI00B32A7    ZZ22051LMW     2022033018000004560              AV 8 G                   CCN000000400000000400FN00000000020220501000000400NNM   20220303170107    1W    00000010000010466200000000032A7    ZZZZY   000000000000ZZ323002
BI00B32A7    ZZ22052LMW     2022040618000004560              AV 8 G                   CCN000006500000006500FN00000000020220501000006500NNM   20220303170107    1W    00000010000010466200000000032A7    ZZZZY   000000000000ZZ423011
BI00B32A7    ZZ22053LMW     2022042018000004560              AV 8 G                   CCN000006500000006500FN00000000020220501000006500NNM   20220303170107    1W    00000010000010466200000000032A7    ZZZZY   000000000000ZZ124021
BI00B32A7    ZZ22054LMW     2022042718000004560              AV 8 G                   CCN000004100000004100FN00000000020220501000004100NNM   20220303170107    1W    00000010000010466200000000032A7    ZZZZY   000000000000ZZ224023
BI00B32A7    ZZ22051LMW     2022033018000004550              AV 8 R                   CCN000007800000007800FN00000000020220501000007800NNM   20220303170107    1W    00000010000010466200000000032A7    ZZZZY   000000000000ZZ323003
BI00B32A7    ZZ22052LMW     2022040618000004550              AV 8 R                   CCN000014500000014500FN00000000020220501000014500NNM   20220303170107    1W    00000010000010466200000000032A7    ZZZZY   000000000000ZZ423012
BI00B32A7    ZZ22053LMW     2022042018000004550              AV 8 R                   CCN000014600000014600FN00000000020220501000014600NNM   20220303170107    1W    00000010000010466200000000032A7    ZZZZY   000000000000ZZ124022
BI00B32A7    ZZ22054LMW     2022042718000004550              AV 8 R                   CCN000009100000009100FN00000000020220501000009100NNM   20220303170107    1W    00000010000010466200000000032A7    ZZZZY   000000000000ZZ224024
BI00B32A7    ZZ22051LMW     2022033018000004540              AV 8 W                   CCN000004400000004400FN00000000020220501000004400NNM   20220303170107    1W    00000010000010466200000000032A7    ZZZZY   000000000000ZZ323004
BI00B32A7    ZZ22052LMW     2022040618000004540              AV 8 W                   CCN000009500000009500FN00000000020220501000009500NNM   20220303170107    1W    00000010000010466200000000032A7    ZZZZY   000000000000ZZ423013
BI00B32A7    ZZ22053LMW     2022042018000004540              AV 8 W                   CCN000009500000009500FN00000000020220501000009500NNM   20220303170107    1W    00000010000010466200000000032A7    ZZZZY   000000000000ZZ124023
BI00B32A7    ZZ22054LMW     2022042718000004540              AV 8 W                   CCN000005900000005900FN00000000020220501000005900NNM   20220303170107    1W    00000010000010466200000000032A7    ZZZZY   000000000000ZZ224025
BI00B32A7    ZZ22053LMW     2022042018000004570              AV 8 Y                   CCN000001900000001900FN00000000020220501000001900NNM   20220303170107    1W    00000010000010466200000000032A7    ZZZZY   000000000000ZZ124024
BI00B32A7    ZZ22054LMW     2022042718000004570              AV 8 Y                   CCN000001400000001400FN00000000020220501000001400NNM   20220303170107    1W    00000010000010466200000000032A7    ZZZZY   000000000000ZZ224026
BI00B32A7    @ZZ22052LMW    20220406181E48017ZZ              CAVSAS-S 0.5X1 GY/G      CCN000004800000004800FN00000000020220501000004800NNM   20220303170107    1W    00000040000001900600000000032A7    ZZZZY   000000000000ZZ423005
BI00B32A7    @ZZ22053LMW    20220420181E48017ZZ              CAVSAS-S 0.5X1 GY/G      CCN000005200000005200FN00000000020220501000005200NNM   20220303170107    1W    00000040000001900600000000032A7    ZZZZY   000000000000ZZ124015
BI00B32A7    @ZZ22054LMW    20220427181E48017ZZ              CAVSAS-S 0.5X1 GY/G      CCN000004000000004000FN00000000020220501000004000NNM   20220303170107    1W    00000040000001900600000000032A7    ZZZZY   000000000000ZZ224017
BI00B32A7    @ZZ22052LMW    20220406181E48018ZZ              CAVSAS-S 0.5X2 GY/SB     CCN000002400000002400FN00000000020220501000002400NNM   20220303170107    1W    00000030000002561000000000032A7    ZZZZY   000000000000ZZ423008
BI00B32A7    @ZZ22053LMW    20220420181E48018ZZ              CAVSAS-S 0.5X2 GY/SB     CCN000002700000002700FN00000000020220501000002700NNM   20220303170107    1W    00000030000002561000000000032A7    ZZZZY   000000000000ZZ124018
BI00B32A7    @ZZ22054LMW    20220427181E48018ZZ              CAVSAS-S 0.5X2 GY/SB     CCN000002400000002400FN00000000020220501000002400NNM   20220303170107    1W    00000030000002561000000000032A7    ZZZZY   000000000000ZZ224020
BI00B32A7    @ZZ22052LMW    20220406181E48019ZZ              CAVSAS-S 0.5X1 GY/W      CCN000001200000001200FN00000000020220501000001200NNM   20220303170107    1W    00000040000001900600000000032A7    ZZZZY   000000000000ZZ423006
BI00B32A7    @ZZ22053LMW    20220420181E48019ZZ              CAVSAS-S 0.5X1 GY/W      CCN000004800000004800FN00000000020220501000004800NNM   20220303170107    1W    00000040000001900600000000032A7    ZZZZY   000000000000ZZ124016
BI00B32A7    @ZZ22054LMW    20220427181E48019ZZ              CAVSAS-S 0.5X1 GY/W      CCN000003600000003600FN00000000020220501000003600NNM   20220303170107    1W    00000040000001900600000000032A7    ZZZZY   000000000000ZZ224018
BI00B32A7    @ZZ22052LMW    20220406181E48027ZZ              CAVSAS-S 0.5X2 GY/P      CCN000002400000002400FN00000000020220501000002400NNM   20220303170107    1W    00000030000002561000000000032A7    ZZZZY   000000000000ZZ423007
BI00B32A7    @ZZ22053LMW    20220420181E48027ZZ              CAVSAS-S 0.5X2 GY/P      CCN000002700000002700FN00000000020220501000002700NNM   20220303170107    1W    00000030000002561000000000032A7    ZZZZY   000000000000ZZ124017
BI00B32A7    @ZZ22054LMW    20220427181E48027ZZ              CAVSAS-S 0.5X2 GY/P      CCN000002400000002400FN00000000020220501000002400NNM   20220303170107    1W    00000030000002561000000000032A7    ZZZZY   000000000000ZZ224019
BI00B32A7    @ZZ22052LMW    20220406181E48040ZZ              CAVSAS-S 0.3X2 GY/V      CCN000000350000000350FN00000000020220501000000350NNM   20220303170107    1W    00000035000002008700000000032A7    ZZZZY   000000000000ZZ423009
BI00B32A7    @ZZ22053LMW    20220420181E48040ZZ              CAVSAS-S 0.3X2 GY/V      CCN000004900000004900FN00000000020220501000004900NNM   20220303170107    1W    00000035000002008700000000032A7    ZZZZY   000000000000ZZ124019
BI00B32A7    @ZZ22054LMW    20220427181E48040ZZ              CAVSAS-S 0.3X2 GY/V      CCN000002100000002100FN00000000020220501000002100NNM   20220303170107    1W    00000035000002008700000000032A7    ZZZZY   000000000000ZZ224021
BI00B32B6    W72019A        202204081801W003930              IVSSH 0.5F B             CCN000019800000019800FN00000000020220701000019800NNE   20220303170107B6  1W    00000180000000625000000000032B6    AXARNE-M000000000000AV423007
BI00B32B6    W72019A        202204081801W003940              IVSSH 0.5F W             CCN000019800000019800FN00000000020220701000019800NNE   20220303170107B6  1W    00000180000000625000000000032B6    AXARNE-M000000000000AV423017
BI00B32B6    W72019A        202204081801W003941              IVSSH 0.5F GY            CCN000012600000012600FN00000000020220701000012600NNE   20220303170107B6  1W    00000180000000625000000000032B6    AXARNE-M000000000000AV423011
BI00B32B6    W72019A        202204081801W003950              IVSSH 0.5F R             CCN000012600000012600FN00000000020220701000012600NNE   20220303170107B6  1W    00000180000000625000000000032B6    AXARNE-M000000000000AV423014
BI00B32B6    W72019A        202204081801W00395U              IVSSH 0.5F BE            CCN000016200000016200FN00000000020220701000016200NNE   20220303170107B6  1W    00000180000000625000000000032B6    AXARNE-M000000000000AV423008
BI00B32B6    W72019A        202204081801W003960              IVSSH 0.5F G             CCN000012600000012600FN00000000020220701000012600NNE   20220303170107B6  1W    00000180000000625000000000032B6    AXARNE-M000000000000AV423010
BI00B32B6    W72019A        202204081801W003961              IVSSH 0.5F LG            CCN000012600000012600FN00000000020220701000012600NNE   20220303170107B6  1W    00000180000000625000000000032B6    AXARNE-M000000000000AV423013
BI00B32B6    W72019A        202204081801W003970              IVSSH 0.5F Y             CCN000012600000012600FN00000000020220701000012600NNE   20220303170107B6  1W    00000180000000625000000000032B6    AXARNE-M000000000000AV423018
BI00B32B6    W72019A        202204081801W003980              IVSSH 0.5F BR            CCN000014400000014400FN00000000020220701000014400NNE   20220303170107B6  1W    00000180000000625000000000032B6    AXARNE-M000000000000AV423009
BI00B32B6    W72019A        202204081801W003990              IVSSH 0.5F L             CCN000018000000018000FN00000000020220701000018000NNE   20220303170107B6  1W    00000180000000625000000000032B6    AXARNE-M000000000000AV423012
BI00B32B6    W72019A        202204081801W003991              IVSSH 0.5F SB            CCN000007200000007200FN00000000020220701000007200NNE   20220303170107B6  1W    00000180000000625000000000032B6    AXARNE-M000000000000AV423015
BI00B32B6    W72019A        202204081801W003992              IVSSH 0.5F V             CCN000010800000010800FN00000000020220701000010800NNE   20220303170107B6  1W    00000180000000625000000000032B6    AXARNE-M000000000000AV423016
BI00B32B6    W72019A        202204081801W004030              IVSSH 0.75F B            CCN000001300000001300FN00000000020220701000001300NNE   20220303170107B6  1W    00000130000000882000000000032B6    AXARNE-M000000000000AV423019
BI00B32B6    W72019A        202204081801W004040              IVSSH 0.75F W            CCN000001300000001300FN00000000020220701000001300NNE   20220303170107B6  1W    00000130000000882000000000032B6    AXARNE-M000000000000AV423024
BI00B32B6    W72019A        202204081801W004052              IVSSH 0.75F P            CCN000001300000001300FN00000000020220701000001300NNE   20220303170107B6  1W    00000130000000882000000000032B6    AXARNE-M000000000000AV423023
BI00B32B6    W72019A        202204081801W00405U              IVSSH 0.75F BE           CCN000001300000001300FN00000000020220701000001300NNE   20220303170107B6  1W    00000130000000882000000000032B6    AXARNE-M000000000000AV423020
BI00B32B6    W72019A        202204081801W004060              IVSSH 0.75F G            CCN000001300000001300FN00000000020220701000001300NNE   20220303170107B6  1W    00000130000000882000000000032B6    AXARNE-M000000000000AV423021
BI00B32B6    W72019A        202204081801W004061              IVSSH 0.75F LG           CCN000001300000001300FN00000000020220701000001300NNE   20220303170107B6  1W    00000130000000882000000000032B6    AXARNE-M000000000000AV423022
BI00B32B6    @W72019A       20220408181B09039H7              CAVSAS 0.5X1 GY/W        CCN000000400000000400FN00000000020220701000000400NNE   20220303170107B6  1W    00000040000002263300000000032B6    AXARNE-M000000000000AV423006
BI00A32E2    @WY203A        20220304181E50016ZZ              AVSSCS-S 0.5FX2 DGY/R    CCN000000300000000300FN00000000020220301000000300NNE   20220303170107    1W    00000030000003096000000000032E2    SPYSE   000000000000KX422001
BI00B32P8    TAPAW-201G     20220309180D0204152              AVSSH 1.25F P            CCN000000100000000800FN00000000020220301000000800NNE   20220303170107    1W    00000080000001458000000000032P8    YIYTM   000000000000YN422001
BI00A32P8    TAPAW-202E     2022031018000004554              AV 8 R/W                 CCN000000300000000300FN00000000020220301000000300NNE   20220303170107    1W    00000010000010466200000000032P8    YIYTM   000000000000YE123001
BI00A32P8    TAPAW-202E     2022031018007703717              AVSS 0.3F LG/B           CCN000004000000004000FN00000000020220301000004000NNE   20220303170107    1W    00000200000000496000000000032P8    YIYTM   000000000000YE123002
BI00A32P8    TAPAW-202E     2022031018007703928              AVSS 0.5F LG/Y           CCN000003000000003000FN00000000020220301000003000NNE   20220303170107    1W    00000150000000674000000000032P8    YIYTM   000000000000YE123003
BI00A32P8    TAPAW-202E     20220310180077040M3              AVSS 0.75F O/B           CCN000002000000002000FN00000000020220301000002000NNE   20220303170107    1W    00000100000000943000000000032P8    YIYTM   000000000000YE123004
BI00A32P8    TAPAW-202E     2022031018007704077              AVSS 0.75F O/L           CCN000002000000002000FN00000000020220301000002000NNE   20220303170107    1W    00000100000000943000000000032P8    YIYTM   000000000000YE123005
BI00B32U5    DW2019A        202204081801W004050              IVSSH 0.75F R            CCN000003900000003900FN00000000020220601000003900NNE   20220303170107U5  1W    00000130000000882000000000032U5    ASAMSD  000000000000AN423013
BI00B32U5    DW2019A        202204081801W006952              IVSSH 0.35F P            CCN000052500000052500FN00000000020220601000052500NNE   20220303170107U5  1W    00000250000000452000000000032U5    ASAMSD  000000000000AN423015
BI00B32U5    DW2019A        202204081801W006990              IVSSH 0.35F L            CCN000075000000075000FN00000000020220601000075000NNE   20220303170107U5  1W    00000250000000452000000000032U5    ASAMSD  000000000000AN423014
BI00B32U5    DW2019A        202204081801W006992              IVSSH 0.35F V            CCN000015000000015000FN00000000020220601000015000NNE   20220303170107U5  1W    00000250000000452000000000032U5    ASAMSD  000000000000AN423016
BI00B32X5    TWB2019        202204081801W003943              IVSSH 0.5F W/B           CCN000001800000001800FN00000000020220601000001800NNE   20220303170107X5  1W    00000180000000625000000000032X5    EPYNA-E 000000000000AE423007
BI00B32X5    TWB2019        202204081801W00395U              IVSSH 0.5F BE            CCN000001800000001800FN00000000020220601000001800NNE   20220303170107X5  1W    00000180000000625000000000032X5    EPYNA-E 000000000000AE423006
BI00B32X5    TWB2019        202204081801W006930              IVSSH 0.35F B            CCN000025000000025000FN00000000020220601000025000NNE   20220303170107X5  1W    00000250000000452000000000032X5    EPYNA-E 000000000000AE423008
BI00B32X5    TWB2019        202204081801W006940              IVSSH 0.35F W            CCN000012500000012500FN00000000020220601000012500NNE   20220303170107X5  1W    00000250000000452000000000032X5    EPYNA-E 000000000000AE423012
BI00B32X5    TWB2019        202204081801W006943              IVSSH 0.35F W/B          CCN000010000000010000FN00000000020220601000010000NNE   20220303170107X5  1W    00000250000000452000000000032X5    EPYNA-E 000000000000AE423013
BI00B32X5    TWB2019        202204081801W006950              IVSSH 0.35F R            CCN000017500000017500FN00000000020220601000017500NNE   20220303170107X5  1W    00000250000000452000000000032X5    EPYNA-E 000000000000AE423010
BI00B32X5    TWB2019        202204081801W006952              IVSSH 0.35F P            CCN000002500000002500FN00000000020220601000002500NNE   20220303170107X5  1W    00000250000000452000000000032X5    EPYNA-E 000000000000AE423009
BI00B32X5    TWB2019        202204081801W006970              IVSSH 0.35F Y            CCN000010000000010000FN00000000020220601000010000NNE   20220303170107X5  1W    00000250000000452000000000032X5    EPYNA-E 000000000000AE423014
BI00B32X5    TWB2019        202204081801W006992              IVSSH 0.35F V            CCN000005000000005000FN00000000020220601000005000NNE   20220303170107X5  1W    00000250000000452000000000032X5    EPYNA-E 000000000000AE423011
