BI00B1200    2399T51C16     202203107289-3342-30             HOUSING FEMALE ASS'Y     CCN000007200000007200FN00000000020220101000007200NNM00020220303170453    1N0N  0000024000000068640000090141200    YCYC    005500360039
BI00B1200    8100T52307     202204077196-1103-02             TERMINAL                 CCN000022500000022500FN00000000020220501000022500NNM   20220303122455    4P0P  0000225000000042980000071501200    YCYC    006400630015
BI00B1200    #8100T52307    202204077172-5629-80             RUBBER STOPPER           CCN000020000000020000FN00000000020220501000020000NNM   20220303122455    2H0H  0000200000000006000000011111200    YCYC    004300270014
BI00B1200    #8100T52307    202204077172-5632-10             DUMMY PLUG               CCN000060000000060000FN00000000020220501000060000NNM   20220303122455    2H0H  0000200000000008040000013181200    YCYC    004300270014
BI00B1200    8870T52302     202206027288-3340-30             HOUSING MALE             CCN000001500000001500FN00000000020220601000001500NNE   20220303122455    4N0N  0000015000000086150000100641200    YCYC    005400370024
BI00B1200    8870T52302     202206027289-3342                HOUSING FEMALE ASS'Y     CCN000002400000002400FN00000000020220601000002400NNE   20220303122455    1N0N  0000024000000068640000090141200    YCYC    005500360039
BI00B1200    H322F50007     202205127116-4112-02             TERMINAL                 CCN000006000000006000FN00000000020220601000006000NNE   20220303122455    4P0P  0000060000000045000000073821200    YCYC    006400630015
BI00B1200    Y022F50034     202205127116-4112-02             TERMINAL                 CCN000162000000162000FN00000000020220601000162000NNE   20220303122455    4P0P  0000060000000045000000073821200    YCYC    006400630015
BI00B1200    Y022F50039     202205127116-4112-02             TERMINAL                 CCN000600000000600000FN00000000020220601000600000NNE   20220303122455    4P0P  0000060000000045000000073821200    YCYC    006400630015
BI00A1200    CE22-MN-0043   202204227222-6244-40             CONNECTOR                CCN000000800000000800FN00000000020220301000000800NNED0620220303133129    4N0N  0000008000000123920000142201200    YCYC    005600390040
BI00A1200    CE22-MN-0041   202203097172-1614-90             RH CPA                   CCN000005000000005000FN00000000020220301000005000NNE   20220303132700    1F0F  0000050000000026600000031531200    YCYC    004300270014
BI00A1200    #CE22-MN-0041  202203097137-3201-90             CPA PACKING              CCN000005000000005000FN00000000020220301000005000NNE   20220303132656    2F0F  0000050000000009750000014311200    YCYC    004300270014
BI00B32CA    PTA32052       202203107289-3342-30             HOUSING FEMALE ASS'Y     CCN000040800000040800FN00000000020220501000040800NNE00020220303170541    1N0N  00000240000000686400000901432CA    YPYPY   005500360039
BI00B32CH    SJ22054 MW     202204217017-1183-02             TERMINAL                 CCN000027000000027000FN00000000020220501000027000NNM   20220303122455    4P0P  00002700000001139400001307432CH    SJSAMIJF005100280028
BI00B32CH    SJ22055 MW     202204287017-1183-02             TERMINAL                 CCN000027000000027000FN00000000020220501000027000NNM   20220303122455    4P0P  00002700000001139400001307432CH    SJSAMIJF005100280028
BI00B32CH    SJ22053 MW     202204077114-4020                TERMINAL                 CCN000021000000021000FN00000000020220501000021000NNM   20220303122455    4P0P  00002100000000875700001169332CH    SJSAMIJF006400630015
BI00B32CH    SJ22054 MW     202204217114-4020                TERMINAL                 CCN000021000000021000FN00000000020220501000021000NNM   20220303122455    4P0P  00002100000000875700001169332CH    SJSAMIJF006400630015
BI00B32CH    SJ22055 MW     202204287114-4020                TERMINAL                 CCN000021000000021000FN00000000020220501000021000NNM   20220303122455    4P0P  00002100000000875700001169332CH    SJSAMIJF006400630015
BI00B32CH    SJ22055 MW     202204287114-4032                TERMINAL                 CCN000007500000007500FN00000000020220501000007500NNM   20220303122455    4P0P  00000750000000735000001063632CH    SJSAMIJF006400630017
BI00B32CH    SJ22053 MW     202204077114-4728-02             TERMINAL                 CCN000030000000030000FN00000000020220501000030000NNM   20220303122455    4P0P  00003000000000510000000804232CH    SJSAMIJF006400630015
BI00B32CH    SJ22054 MW     202204217114-4728-02             TERMINAL                 CCN000030000000030000FN00000000020220501000030000NNM   20220303122455    4P0P  00003000000000510000000804232CH    SJSAMIJF006400630015
BI00B32CH    SJ22055 MW     202204287114-4728-02             TERMINAL                 CCN000090000000090000FN00000000020220501000090000NNM   20220303122455    4P0P  00003000000000510000000804232CH    SJSAMIJF006400630015
BI00B32CH    SJ22055 MW     202204287114-5747-02             TERMINAL                 CCN000018000000018000FN00000000020220501000018000NNM   20220303122455    4P0P  00001800000000626400000920032CH    SJSAMIJF006400630015
BI00B32CH    SJ22054 MW     202204217116-2641                TERMINAL                 CCN000018000000018000FN00000000020220501000018000NNM   20220303122455    4P0P  00001800000001161000001344632CH    SJSAMIJF005100280028
BI00B32CH    SJ22052 MW     202204077116-4020                TERMINAL                 CCN000013500000013500FN00000000020220501000013500NNM   20220303122455    4P0P  00001350000000513000000798232CH    SJSAMIJF006400630015
BI00B32CH    SJ22053 MW     202204077116-4020                TERMINAL                 CCN000027000000027000FN00000000020220501000027000NNM   20220303122455    4P0P  00001350000000513000000798232CH    SJSAMIJF006400630015
BI00B32CH    SJ22054 MW     202204217116-4020                TERMINAL                 CCN000013500000013500FN00000000020220501000013500NNM   20220303122455    4P0P  00001350000000513000000798232CH    SJSAMIJF006400630015
BI00B32CH    SJ22053 MW     202204077116-4025                TERMINAL                 CCN000016000000016000FN00000000020220501000016000NNM   20220303122455    4P0P  00001600000000644800000975132CH    SJSAMIJF006400630017
BI00B32CH    SJ22054 MW     202204217116-4025                TERMINAL                 CCN000016000000016000FN00000000020220501000016000NNM   20220303122455    4P0P  00001600000000644800000975132CH    SJSAMIJF006400630017
BI00B32CH    SJ22055 MW     202204287116-5041-02             TERMINAL                 CCN000120000000120000FN00000000020220501000120000NNM   20220303122455    4P0P  00001500000000583500000868732CH    SJSAMIJF006400630015
BI00B32CH    SJ22054 MW     202204217116-5042-02             TERMINAL                 CCN000040500000040500FN00000000020220501000040500NNM   20220303122455    4P0P  00001350000000560300000845532CH    SJSAMIJF006400630015
BI00B32CH    SJ22055 MW     202204287116-5042-02             TERMINAL                 CCN000148500000148500FN00000000020220501000148500NNM   20220303122455    4P0P  00001350000000560300000845532CH    SJSAMIJF006400630015
BI00B32CH    SJ22054 MW     202204217116-5750-02             TERMINAL                 CCN000030000000030000FN00000000020220501000030000NNM   20220303122455    4P0P  00001500000000457500000742732CH    SJSAMIJF006400630015
BI00B32CH    SJ22055 MW     202204287116-5750-02             TERMINAL                 CCN000345000000345000FN00000000020220501000345000NNM   20220303122455    4P0P  00001500000000457500000742732CH    SJSAMIJF006400630015
BI00B32CH    SJ22055 MW     202204287116-5752-02             TERMINAL                 CCN000042000000042000FN00000000020220501000042000NNM   20220303122455    4P0P  00002100000000571200000856432CH    SJSAMIJF006400630015
BI00B32CH    SJ22054 MW     202204217116-6041                TERMINAL                 CCN000076500000076500FN00000000020220501000076500NNM   20220303122455    4P0P  00000450000000716000001009632CH    SJSAMIJF006400630015
BI00B32CH    SJ22055 MW     202204287116-6041                TERMINAL                 CCN000126000000126000FN00000000020220501000126000NNM   20220303122455    4P0P  00000450000000716000001009632CH    SJSAMIJF006400630015
BI00B32CH    SJ22054 MW     202204217116-6042                TERMINAL                 CCN000003000000003000FN00000000020220501000003000NNM   20220303122455    4P0P  00000300000000523800000856132CH    SJSAMIJF006400630015
BI00B32CH    SJ22055 MW     202204287116-6042                TERMINAL                 CCN000090000000090000FN00000000020220501000090000NNM   20220303122455    4P0P  00000300000000523800000856132CH    SJSAMIJF006400630015
BI00B32CH    SJ22055 MW     202204287126-8853-02             TERMINAL                 CCN000150000000150000FN00000000020220501000150000NNM   20220303122455    4P0P  00000750000000562500000847732CH    SJSAMIJF006400630015
BI00B32CH    SJ22055 MW     202204287126-8854-02             TERMINAL                 CCN000345000000345000FN00000000020220501000345000NNM   20220303122455    4P0P  00000750000000604500000889732CH    SJSAMIJF006400630015
BI00B32CH    SJ22054 MW     202204217126-8855-02             TERMINAL                 CCN000006000000006000FN00000000020220501000006000NNM   20220303122455    4P0P  00000600000000510600000795832CH    SJSAMIJF006400630015
BI00B32CH    SJ22055 MW     202204287126-8855-02             TERMINAL                 CCN000120000000120000FN00000000020220501000120000NNM   20220303122455    4P0P  00000600000000510600000795832CH    SJSAMIJF006400630015
BI00B32CH    SJ22055 MW     202204287158-3006-90             RUBBER STOPPER           CCN000200000000200000FN00000000020220501000200000NNM   20220303122455    1C0C  00002000000000330600000386032CH    SJSAMIJF002700430014
BI00B32CH    SJ22053 MW     202204077158-3022-80             RUBBER STOPPER           CCN000005000000005000FN00000000020220501000005000NNM   20220303122455    1C0C  00000500000000467500000524032CH    SJSAMIJF002700430014
BI00B32CH    SJ22054 MW     202204217158-3022-80             RUBBER STOPPER           CCN000010000000010000FN00000000020220501000010000NNM   20220303122455    1C0C  00000500000000467500000524032CH    SJSAMIJF002700430014
BI00B32CH    SJ22055 MW     202204287158-3022-80             RUBBER STOPPER           CCN000005000000005000FN00000000020220501000005000NNM   20220303122455    1C0C  00000500000000467500000524032CH    SJSAMIJF002700430014
BI00B32CH    SJ22054 MW     202204217172-5540-80             SEALED WIRE SEAL         CCN000020000000020000FN00000000020220501000020000NNM   20220303122455    1C0C  00002000000000186000000234432CH    SJSAMIJF004300270014
BI00B32CH    SJ22055 MW     202204287283-7526-40             CONNECTOR HOUSING        CCN000001960000001960FN00000000020220501000001960NNM   20220303122455    4N0N  00000196000000989800001248632CH    SJSAMIJF005500360039
BI00B32CH    SJ22054 MW     202204217327-6832-60             MAIN FUSE                CCN000005400000005400FN00000000020220501000005400NNM   20220303122455    4N0N  00000060000000729200000930732CH    SJSAMIJF005400370024
BI00B32CH    SJ22055 MW     202204287327-6832-60             MAIN FUSE                CCN000014400000014400FN00000000020220501000014400NNM   20220303122455    4N0N  00000060000000729200000930732CH    SJSAMIJF005400370024
BI00B32CH    #SJ22054 MW    202204217158-3003-90             RUBBER STOPPER           CCN000040000000040000FN00000000020220501000040000NNM   20220303122455    2C0C  00002000000000250000000306032CH    SJSAMIJF002700430014
BI00B32CH    #SJ22055 MW    202204287158-3003-90             RUBBER STOPPER           CCN000080000000080000FN00000000020220501000080000NNM   20220303122455    2C0C  00002000000000250000000306032CH    SJSAMIJF002700430014
BI00B32CH    #SJ22054 MW    202204217158-3015-10             RUBBER STOPPER           CCN000020000000020000FN00000000020220501000020000NNM   20220303122455    2C0C  00001000000000419500000474032CH    SJSAMIJF002700430014
BI00B32CH    #SJ22055 MW    202204287158-3015-10             RUBBER STOPPER           CCN000020000000020000FN00000000020220501000020000NNM   20220303122455    2C0C  00001000000000419500000474032CH    SJSAMIJF002700430014
BI00B32CH    #SJ22053 MW    202204077183-2414                CONNECTOR HOUSING        CCN000004800000004800FN00000000020220501000004800NNM   20220303122455    2F0F  00000480000000779200001061032CH    SJSAMIJF005500360039
BI00B32CH    #SJ22054 MW    202204217183-2414                CONNECTOR HOUSING        CCN000019200000019200FN00000000020220501000019200NNM   20220303122455    2F0F  00000480000000779200001061032CH    SJSAMIJF005500360039
BI00B32CH    #SJ22055 MW    202204287183-2414                CONNECTOR HOUSING        CCN000024000000024000FN00000000020220501000024000NNM   20220303122455    2F0F  00000480000000779200001061032CH    SJSAMIJF005500360039
BI00B32CH    #SJ22054 MW    202204217183-2418                CONNECTOR HOUSING        CCN000004800000004800FN00000000020220501000004800NNM   20220303122455    2F0F  00000480000000917000001477032CH    SJSAMIJF005500360039
BI00B32CH    #SJ22054 MW    202204217198-1371-60             HOUSING FEMALE           CCN000006000000006000FN00000000020220501000006000NNM   20220303122455    2F0F  00000200000000597800000721232CH    SJSAMIJF005400370024
BI00B32CH    #SJ22055 MW    202204287198-1371-60             HOUSING FEMALE           CCN000018000000018000FN00000000020220501000018000NNM   20220303122455    2F0F  00000200000000597800000721232CH    SJSAMIJF005400370024
BI00B32CH    SJ22054DMW     202204217286-4097                CONNECTOR MALE ASS'Y     CCN000001600000001600FN00000000020220501000001600NNM   20220303122455    1N0N  00000160000000768000000978032CH    SJSAMIJF005500360039
BI00B32CH    SJ22055DMW     202204287286-4097                CONNECTOR MALE ASS'Y     CCN000003200000003200FN00000000020220501000003200NNM   20220303122455    1N0N  00000160000000768000000978032CH    SJSAMIJF005500360039
BI00B32CH    SJ22053DMW     202204077287-3885-30             HYBRID FEMALE ASS'Y      CCN000004800000004800FN00000000020220501000004800NNM   20220303122455    1N0N  00000240000001029600001249632CH    SJSAMIJF005500360039
BI00B32CH    SJ22054DMW     202204217287-3885-30             HYBRID FEMALE ASS'Y      CCN000016800000016800FN00000000020220501000016800NNM   20220303122455    1N0N  00000240000001029600001249632CH    SJSAMIJF005500360039
BI00B32CH    SJ22055DMW     202204287287-3885-30             HYBRID FEMALE ASS'Y      CCN000019200000019200FN00000000020220501000019200NNM   20220303122455    1N0N  00000240000001029600001249632CH    SJSAMIJF005500360039
BI00B32CH    #SJ22055DMW    202204287183-2413                CONNECTOR HOUSING        CCN000004800000004800FN00000000020220501000004800NNM   20220303122455    2F0F  00000480000000478100000760032CH    SJSAMIJF005500360039
BI00B32CH    #SJ22055DMW    202204287283-8730-30             HOUSING FEMALE ASS'Y     CCN000004000000004000FN00000000020220501000004000NNM   20220303122455    2N0N  00000200000000794000000906532CH    SJSAMIJF005400370024
BI00B32CH    SJ22053HMW     202204077B72-5540-80             SEALED WIRE SEAL         CCN000020000000020000FN00000000020220501000020000NNM   20220303122455    1C0C  00002000000000186000000234432CH    SJSAMIJF004300270014
BI00B32CH    SJ22054HMW     202204217B72-5540-80             SEALED WIRE SEAL         CCN000060000000060000FN00000000020220501000060000NNM   20220303122455    1C0C  00002000000000186000000234432CH    SJSAMIJF004300270014
BI00B32CH    SJ22055HMW     202204287B72-5540-80             SEALED WIRE SEAL         CCN000080000000080000FN00000000020220501000080000NNM   20220303122455    1C0C  00002000000000186000000234432CH    SJSAMIJF004300270014
BI00B32CH    SJ22054HMW     202204217B96-0805-02             TERMINAL FEMALE          CCN000045000000045000FN00000000020220501000045000NNM   20220303122455    4P0P  00002250000000558000000843232CH    SJSAMIJF006400630015
BI00B32CH    SJ22055HMW     202204287B96-0805-02             TERMINAL FEMALE          CCN000067500000067500FN00000000020220501000067500NNM   20220303122455    4P0P  00002250000000558000000843232CH    SJSAMIJF006400630015
BI00B32CH    SJ22054HMW     202204217C89-6868-30             SEALED ASSY FEMALE       CCN000015120000015120FN00000000020220501000015120NNM   20220303122455    4N0N  00000252000000839200001119232CH    SJSAMIJF005500360039
BI00B32CH    SJ22055HMW     202204287C89-6868-30             SEALED ASSY FEMALE       CCN000035280000035280FN00000000020220501000035280NNM   20220303122455    4N0N  00000252000000839200001119232CH    SJSAMIJF005500360039
BI00B32CH    SJ22052HMW     202204077298-3822-70             HOUSING FEMALE ASS'Y     CCN000003060000005040FN00000000020220501000005040NNM   20220303122455    4N0N  00000252000000776200001077032CH    SJSAMIJF005500360039
BI00B32CH    SJ22053HMW     202204077298-3822-70             HOUSING FEMALE ASS'Y     CCN000001990000002520FN00000000020220501000002520NNM   20220303122455    4N0N  00000252000000776200001077032CH    SJSAMIJF005500360039
BI00B32CH    SJ22054HMW     202204217298-3822-70             HOUSING FEMALE ASS'Y     CCN000001930000002520FN00000000020220501000002520NNM   20220303122455    4N0N  00000252000000776200001077032CH    SJSAMIJF005500360039
BI00B32CH    SJ22055HMW     202204287298-3822-70             HOUSING FEMALE ASS'Y     CCN000001990000002520FN00000000020220501000002520NNM   20220303122455    4N0N  00000252000000776200001077032CH    SJSAMIJF005500360039
BI00B32CH    SJ22052HMW     202204077298-4094-10             HOUSING FEMALE ASS'Y     CCN000003380000003380FN00000000020220501000003380NNM   20220303122455    4N0N  00000338000001097400001358732CH    SJSAMIJF005400370024
BI00B32CH    SJ22054HMW     202204217298-4094-10             HOUSING FEMALE ASS'Y     CCN000003380000003380FN00000000020220501000003380NNM   20220303122455    4N0N  00000338000001097400001358732CH    SJSAMIJF005400370024
BI00B32CH    SJ22053HMW     202204077298-5993-30             SEALED ASSY FEMALE       CCN000002184000002184FN00000000020220501000002184NNM   20220303122455    4N0N  00000218400000981500001290032CH    SJSAMIJF005500360039
BI00B32CH    SJ22054HMW     202204217298-5993-30             SEALED ASSY FEMALE       CCN000002184000002184FN00000000020220501000002184NNM   20220303122455    4N0N  00000218400000981500001290032CH    SJSAMIJF005500360039
BI00B32CH    SJ22055HMW     202204287298-5993-30             SEALED ASSY FEMALE       CCN000004368000004368FN00000000020220501000004368NNM   20220303122455    4N0N  00000218400000981500001290032CH    SJSAMIJF005500360039
BI00B32CH    SJ22054HMW     202204217327-6870-30             MULTI FUSE               CCN000007776000007776FN00000000020220501000007776NNM   20220303122455    4N0N  00000028800001015200001181132CH    SJSAMIJF005400370024
BI00B32CH    SJ22055HMW     202204287327-6870-30             MULTI FUSE               CCN000015552000015552FN00000000020220501000015552NNM   20220303122455    4N0N  00000028800001015200001181132CH    SJSAMIJF005400370024
BI00B32CH    SJ22054HMW     202204217327-6880-30             MULTI FUSE               CCN000004896000004896FN00000000020220501000004896NNM   20220303122455    4N0N  00000028800001012600001178532CH    SJSAMIJF005400370024
BI00B32CH    SJ22055HMW     202204287327-6880-30             MULTI FUSE               CCN000014688000014688FN00000000020220501000014688NNM   20220303122455    4N0N  00000028800001012600001178532CH    SJSAMIJF005400370024
BI00B32CH    SJ22054HMW     202204217327-6884-30             MULTI FUSE               CCN000016992000016992FN00000000020220501000016992NNM   20220303122455    4N0N  00000028800000988900001154832CH    SJSAMIJF005400370024
BI00B32CH    SJ22055HMW     202204287327-6884-30             MULTI FUSE               CCN000021024000021024FN00000000020220501000021024NNM   20220303122455    4N0N  00000028800000988900001154832CH    SJSAMIJF005400370024
BI00B32CH    SJ22052HMW     202204077327-6908                MAIN FUSE                CCN000000600000000600FN00000000020220501000000600NNM   20220303122455    4N0N  00000060000000730400000915432CH    SJSAMIJF005400370024
BI00B32CH    SJ22053HMW     202204077327-6908                MAIN FUSE                CCN000000600000000600FN00000000020220501000000600NNM   20220303122455    4N0N  00000060000000730400000915432CH    SJSAMIJF005400370024
BI00B32CH    SJ22054HMW     202204217327-6908                MAIN FUSE                CCN000001200000001200FN00000000020220501000001200NNM   20220303122455    4N0N  00000060000000730400000915432CH    SJSAMIJF005400370024
BI00B32CH    SJ22055HMW     202204287327-6908                MAIN FUSE                CCN000000600000000600FN00000000020220501000000600NNM   20220303122455    4N0N  00000060000000730400000915432CH    SJSAMIJF005400370024
BI00B32CH    SJ22051HMW     202203317327-6937-30             MULTI FUSE               CCN000000288000000288FN00000000020220501000000288NNM   20220303122455    4N0N  00000028800001013600001179532CH    SJSAMIJF005400370024
BI00B32CH    SJ22052HMW     202204077327-6937-30             MULTI FUSE               CCN000000288000000288FN00000000020220501000000288NNM   20220303122455    4N0N  00000028800001013600001179532CH    SJSAMIJF005400370024
BI00B32CH    SJ22054HMW     202204217327-6937-30             MULTI FUSE               CCN000001152000001152FN00000000020220501000001152NNM   20220303122455    4N0N  00000028800001013600001179532CH    SJSAMIJF005400370024
BI00B32CH    SJ22052HMW     202204077327-6939-30             MULTI FUSE               CCN000000864000000864FN00000000020220501000000864NNM   20220303122455    4N00  00000028800000992200001158132CH    SJSAMIJF005400370024
BI00B32CH    SJ22053HMW     202204077327-6939-30             MULTI FUSE               CCN000000864000000864FN00000000020220501000000864NNM   20220303122455    4N00  00000028800000992200001158132CH    SJSAMIJF005400370024
BI00B32CH    SJ22054HMW     202204217327-6939-30             MULTI FUSE               CCN000000576000000576FN00000000020220501000000576NNM   20220303122455    4N00  00000028800000992200001158132CH    SJSAMIJF005400370024
BI00B32CH    SJ22055HMW     202204287327-6939-30             MULTI FUSE               CCN000000864000000864FN00000000020220501000000864NNM   20220303122455    4N00  00000028800000992200001158132CH    SJSAMIJF005400370024
BI00B32CH    SJ22052HMW     202204077327-6941-30             MULTI FUSE               CCN000000864000000864FN00000000020220501000000864NNM   20220303122455    4N00  00000028800001014400001180332CH    SJSAMIJF005400370024
BI00B32CH    SJ22053HMW     202204077327-6941-30             MULTI FUSE               CCN000000864000000864FN00000000020220501000000864NNM   20220303122455    4N00  00000028800001014400001180332CH    SJSAMIJF005400370024
BI00B32CH    SJ22054HMW     202204217327-6941-30             MULTI FUSE               CCN000000576000000576FN00000000020220501000000576NNM   20220303122455    4N00  00000028800001014400001180332CH    SJSAMIJF005400370024
BI00B32CH    SJ22055HMW     202204287327-6941-30             MULTI FUSE               CCN000000864000000864FN00000000020220501000000864NNM   20220303122455    4N00  00000028800001014400001180332CH    SJSAMIJF005400370024
BI00B32CH    #SJ22054HMW    202204217198-1372                HOUSING FEMALE           CCN000008000000008000FN00000000020220501000008000NNM   20220303122455    2F0F  00000200000000857200000982232CH    SJSAMIJF005400370024
BI00B32CH    #SJ22055HMW    202204287198-1372                HOUSING FEMALE           CCN000018000000018000FN00000000020220501000018000NNM   20220303122455    2F0F  00000200000000857200000982232CH    SJSAMIJF005400370024
BI00B32CH    #SJ22054HMW    202204217198-1373-60             HOUSING FEMALE           CCN000008000000008000FN00000000020220501000008000NNM   20220303122455    2F0F  00000200000000819400000947432CH    SJSAMIJF005400370024
BI00B32CH    #SJ22055HMW    202204287198-1373-60             HOUSING FEMALE           CCN000018000000018000FN00000000020220501000018000NNM   20220303122455    2F0F  00000200000000819400000947432CH    SJSAMIJF005400370024
BI00B32CH    #SJ22054HMW    202204217198-2458                HOUSING FEMALE           CCN000007040000007040FN00000000020220501000007040NNM   20220303122455    2F0F  00000176000000869100001160532CH    SJSAMIJF005400370024
BI00B32CH    #SJ22055HMW    202204287198-2458                HOUSING FEMALE           CCN000017600000017600FN00000000020220501000017600NNM   20220303122455    2F0F  00000176000000869100001160532CH    SJSAMIJF005400370024
BI00B32CH    #SJ22054HMW    202204217298-2459-60             LIF FEMALE ASSEMBLY      CCN000008904000008904FN00000000020220501000008904NNM   20220303122455    2N0N  00000016800000534000000729632CH    SJSAMIJF005400370024
BI00B32CH    #SJ22055HMW    202204287298-2459-60             LIF FEMALE ASSEMBLY      CCN000016296000016296FN00000000020220501000016296NNM   20220303122455    2N0N  00000016800000534000000729632CH    SJSAMIJF005400370024
BI00B32CH    SJ22052MMW     202204077116-4115-02             TERMINAL                 CCN000008400000008400FN00000000020220501000008400NNM   20220303122455    4P0P  00000840000000593000000881232CH    SJSAMIJF006400630015
BI00B32CH    SJ22053MMW     202204077116-4116-02             TERMINAL                 CCN000006900000006900FN00000000020220501000006900NNM   20220303122455    4P0P  00000690000000517500000805732CH    SJSAMIJF006400630015
BI00B32CH    #SJ22051MMW    202203317283-8123-30             CONNECTOR HOUSING        CCN000004000000004000FN00000000020220501000004000NNM   20220303122455    2N0N  00000400000000380000000530032CH    SJSAMIJF005600390023
BI00B32CH    #SJ22053MMW    202204077283-8123-30             CONNECTOR HOUSING        CCN000004000000004000FN00000000020220501000004000NNM   20220303122455    2N0N  00000400000000380000000530032CH    SJSAMIJF005600390023
BI00B32CH    #SJ22054MMW    202204217283-8123-30             CONNECTOR HOUSING        CCN000004000000004000FN00000000020220501000004000NNM   20220303122455    2N0N  00000400000000380000000530032CH    SJSAMIJF005600390023
BI00B32CH    @SJ22053MMW    202204077183-8049                CONNECTOR HOUSING        CCN000004000000004000FN00000000020220501000004000NNM   20220303122455    3F0F  00000400000000583600000740032CH    SJSAMIJF005400370024
BI00B32CH    SJ22052SMW     202204077289-6868-30             SEALED ASSY FEMALE       CCN000002520000002520FN00000000020220501000002520NNM   20220303122455    4N0N  00000252000000839200001119232CH    SJSAMIJF005500360039
BI00B32CH    SJ22053SMW     202204077289-6868-30             SEALED ASSY FEMALE       CCN000002520000002520FN00000000020220501000002520NNM   20220303122455    4N0N  00000252000000839200001119232CH    SJSAMIJF005500360039
BI00B32CH    SJ22054SMW     202204217289-6868-30             SEALED ASSY FEMALE       CCN000002520000002520FN00000000020220501000002520NNM   20220303122455    4N0N  00000252000000839200001119232CH    SJSAMIJF005500360039
BI00B32CH    SJ22055SMW     202204287289-6868-30             SEALED ASSY FEMALE       CCN000002520000002520FN00000000020220501000002520NNM   20220303122455    4N0N  00000252000000839200001119232CH    SJSAMIJF005500360039
BI00B32CH    #SJ22053SMW    202204077189-3032                HOUSING FEMALE           CCN000001600000001600FN00000000020220501000001600NNM   20220303122455    2F0F  00000160000000788400001018432CH    SJSAMIJF005500360039
BI00B32CH    #SJ22054SMW    202204217189-3032                HOUSING FEMALE           CCN000001600000001600FN00000000020220501000001600NNM   20220303122455    2F0F  00000160000000788400001018432CH    SJSAMIJF005500360039
BI00B32CH    #SJ22055SMW    202204287189-3032                HOUSING FEMALE           CCN000001600000001600FN00000000020220501000001600NNM   20220303122455    2F0F  00000160000000788400001018432CH    SJSAMIJF005500360039
BI00B32CH    #SJ22053SMW    202204077289-2915-30             HOUSING FEMALE ASS'Y     CCN000001500000001500FN00000000020220501000001500NNM   20220303122455    2N0N  00000150000000964500001091532CH    SJSAMIJF005400370024
BI00B32CH    #SJ22054SMW    202204217289-2915-30             HOUSING FEMALE ASS'Y     CCN000001500000001500FN00000000020220501000001500NNM   20220303122455    2N0N  00000150000000964500001091532CH    SJSAMIJF005400370024
BI00B32CH    #SJ22055SMW    202204287289-2915-30             HOUSING FEMALE ASS'Y     CCN000001500000001500FN00000000020220501000001500NNM   20220303122455    2N0N  00000150000000964500001091532CH    SJSAMIJF005400370024
BI00B32CJ    JQN1123        202203107289-3342-30             HOUSING FEMALE ASS'Y     CCN000004800000004800FN00000000020211201000004800NNM00020220303141603    1N0N  00000240000000686400000901432CJ    QNYHVQN 005500360039
BI00B32CJ    JQN2012        202203107288-6547                CONNECTOR MALE ASS'Y     CCN000000750000000750FN00000000020220101000000750NNM00020220303141507    4N0N  00000075000001205300001340332CJ    QNYHVQN 005400370024
BI00B32CJ    JQN2014        202203107289-3342                HOUSING FEMALE ASS'Y     CCN000002400000002400FN00000000020220101000002400NNM00020220303141533    1N0N  00000240000000686400000901432CJ    QNYHVQN 005500360039
BI00B32CJ    JQN2041        202203107116-4416-02             TERMINAL                 CCN000128000000128000FN00000000020220401000128000NNM00020220303141343    4P0P  00003200000000518400000847132CJ    QNYHVQN 006400630017
BI00B32CJ    JQN2041        202203107116-5042-02             TERMINAL                 CCN000013500000013500FN00000000020220401000013500NNM00020220303141359    4P0P  00001350000000560300000845532CJ    QNYHVQN 006400630015
BI00B32CJ    JQN2041        202203107158-3006-90             RUBBER STOPPER           CCN000040000000040000FN00000000020220401000040000NNM00020220303141426    1C0C  00002000000000330600000386032CJ    QNYHVQN 002700430014
BI00B32CJ    JQN2041        202203107158-3009-60             RUBBER STOPPER           CCN000080000000080000FN00000000020220401000080000NNM00020220303141437    1C0C  00002000000000338000000386232CJ    QNYHVQN 002700430014
BI00B32DE    #TCT2034       202203107172-5629-80             RUBBER STOPPER           CCN000040000000040000FN00000000020220301000040000NNM00020220303170650    2H0H  00002000000000060000000111132DE    TVYEV-TV004300270014
BI00B32DE    #TCTL2031      202203107158-3017                RUBBER STOPPER           CCN000010000000010000FN00000000020220301000010000NNM00020220303170825    2C0C  00001000000000375500000435032DE    TVYEV-TV002700430014
BI00B32DE    #TCTL2032      202203107158-3017                RUBBER STOPPER           CCN000040000000040000FN00000000020220301000040000NNM00020220303170839    2C0C  00001000000000375500000435032DE    TVYEV-TV002700430014
BI00B32DE    #TCTL203A      202203107158-3017                RUBBER STOPPER           CCN000020000000020000FN00000000020220301000020000NNE00020220303170858    2C0C  00001000000000375500000435032DE    TVYEV-TV002700430014
BI00B32DE    TCT2051        202204077017-1180-02             TERMINAL                 CCN000072000000072000FN00000000020220501000072000NNM   20220303122455    4P0P  00007200000001065600001229032DE    TVYEV-TV005100280028
BI00B32DE    TCT2053        202204287017-1180-02             TERMINAL                 CCN000072000000072000FN00000000020220501000072000NNM   20220303122455    4P0P  00007200000001065600001229032DE    TVYEV-TV005100280028
BI00B32DE    TCT2054        202205057017-1180-02             TERMINAL                 CCN000072000000072000FN00000000020220501000072000NNM   20220303122455    4P0P  00007200000001065600001229032DE    TVYEV-TV005100280028
BI00B32DE    TCT2053        202204287017-1181-02             TERMINAL                 CCN000063000000063000FN00000000020220501000063000NNM   20220303122455    4P0P  00006300000001089900001266832DE    TVYEV-TV005100280028
BI00B32DE    TCT2051        202204077114-4020                TERMINAL                 CCN000063000000063000FN00000000020220501000063000NNM   20220303122455    4P0P  00002100000000875700001169332DE    TVYEV-TV006400630015
BI00B32DE    TCT2052        202204217114-4020                TERMINAL                 CCN000063000000063000FN00000000020220501000063000NNM   20220303122455    4P0P  00002100000000875700001169332DE    TVYEV-TV006400630015
BI00B32DE    TCT2053        202204287114-4020                TERMINAL                 CCN000063000000063000FN00000000020220501000063000NNM   20220303122455    4P0P  00002100000000875700001169332DE    TVYEV-TV006400630015
BI00B32DE    TCT2054        202205057114-4020                TERMINAL                 CCN000042000000042000FN00000000020220501000042000NNM   20220303122455    4P0P  00002100000000875700001169332DE    TVYEV-TV006400630015
BI00B32DE    TCT2051        202204077114-4021                TERMINAL                 CCN000060000000060000FN00000000020220501000060000NNM   20220303122455    4P0P  00001500000000670500000964132DE    TVYEV-TV006400630015
BI00B32DE    TCT2052        202204217114-4021                TERMINAL                 CCN000060000000060000FN00000000020220501000060000NNM   20220303122455    4P0P  00001500000000670500000964132DE    TVYEV-TV006400630015
BI00B32DE    TCT2053        202204287114-4021                TERMINAL                 CCN000045000000045000FN00000000020220501000045000NNM   20220303122455    4P0P  00001500000000670500000964132DE    TVYEV-TV006400630015
BI00B32DE    TCT2054        202205057114-4021                TERMINAL                 CCN000030000000030000FN00000000020220501000030000NNM   20220303122455    4P0P  00001500000000670500000964132DE    TVYEV-TV006400630015
BI00B32DE    TCT2052        202204217114-4032                TERMINAL                 CCN000007500000007500FN00000000020220501000007500NNM   20220303122455    4P0P  00000750000000735000001063632DE    TVYEV-TV006400630017
BI00B32DE    TCT2053        202204287114-4032                TERMINAL                 CCN000007500000007500FN00000000020220501000007500NNM   20220303122455    4P0P  00000750000000735000001063632DE    TVYEV-TV006400630017
BI00B32DE    TCT2054        202205057114-4032                TERMINAL                 CCN000007500000007500FN00000000020220501000007500NNM   20220303122455    4P0P  00000750000000735000001063632DE    TVYEV-TV006400630017
BI00B32DE    TCT2051        202204077114-4112-02             TERMINAL                 CCN000018000000018000FN00000000020220501000018000NNM   20220303122455    4P0P  00000900000000598500000927132DE    TVYEV-TV006400630017
BI00B32DE    TCT2052        202204217114-4112-02             TERMINAL                 CCN000009000000009000FN00000000020220501000009000NNM   20220303122455    4P0P  00000900000000598500000927132DE    TVYEV-TV006400630017
BI00B32DE    TCT2053        202204287114-4112-02             TERMINAL                 CCN000009000000009000FN00000000020220501000009000NNM   20220303122455    4P0P  00000900000000598500000927132DE    TVYEV-TV006400630017
BI00B32DE    TCT2054        202205057114-4112-02             TERMINAL                 CCN000009000000009000FN00000000020220501000009000NNM   20220303122455    4P0P  00000900000000598500000927132DE    TVYEV-TV006400630017
BI00B32DE    TCT2051        202204077114-4231-02             TERMINAL                 CCN000054000000054000FN00000000020220501000054000NNM   20220303122455    4P0P  00001800000000554400000848032DE    TVYEV-TV006400630015
BI00B32DE    TCT2052        202204217114-4231-02             TERMINAL                 CCN000036000000036000FN00000000020220501000036000NNM   20220303122455    4P0P  00001800000000554400000848032DE    TVYEV-TV006400630015
BI00B32DE    TCT2053        202204287114-4231-02             TERMINAL                 CCN000036000000036000FN00000000020220501000036000NNM   20220303122455    4P0P  00001800000000554400000848032DE    TVYEV-TV006400630015
BI00B32DE    TCT2054        202205057114-4231-02             TERMINAL                 CCN000018000000018000FN00000000020220501000018000NNM   20220303122455    4P0P  00001800000000554400000848032DE    TVYEV-TV006400630015
BI00B32DE    TCT2054        202205057114-4486-02             TERMINAL                 CCN000024000000024000FN00000000020220501000024000NNM   20220303122455    4P0P  00002400000000662400000956032DE    TVYEV-TV006400630015
BI00B32DE    TCT2051        202204077114-4624-02             TERMINAL                 CCN000024000000024000FN00000000020220501000024000NNM   20220303122455    4P0P  00002400000000895200001188832DE    TVYEV-TV006400630015
BI00B32DE    TCT2052        202204217114-4624-02             TERMINAL                 CCN000024000000024000FN00000000020220501000024000NNM   20220303122455    4P0P  00002400000000895200001188832DE    TVYEV-TV006400630015
BI00B32DE    TCT2054        202205057114-4624-02             TERMINAL                 CCN000024000000024000FN00000000020220501000024000NNM   20220303122455    4P0P  00002400000000895200001188832DE    TVYEV-TV006400630015
BI00B32DE    TCT2051        202204077114-4728-02             TERMINAL                 CCN000990000000990000FN00000000020220501000990000NNM   20220303122455    4P0P  00003000000000510000000804232DE    TVYEV-TV006400630015
BI00B32DE    TCT2052        202204217114-4728-02             TERMINAL                 CCN000720000000720000FN00000000020220501000720000NNM   20220303122455    4P0P  00003000000000510000000804232DE    TVYEV-TV006400630015
BI00B32DE    TCT2053        202204287114-4728-02             TERMINAL                 CCN000690000000690000FN00000000020220501000690000NNM   20220303122455    4P0P  00003000000000510000000804232DE    TVYEV-TV006400630015
BI00B32DE    TCT2054        202205057114-4728-02             TERMINAL                 CCN000510000000510000FN00000000020220501000510000NNM   20220303122455    4P0P  00003000000000510000000804232DE    TVYEV-TV006400630015
BI00B32DE    TCT2051        202204077114-4729-02             TERMINAL                 CCN000150000000150000FN00000000020220501000150000NNM   20220303122455    4P0P  00003000000000516000000810232DE    TVYEV-TV006400630015
BI00B32DE    TCT2052        202204217114-4729-02             TERMINAL                 CCN000180000000180000FN00000000020220501000180000NNM   20220303122455    4P0P  00003000000000516000000810232DE    TVYEV-TV006400630015
BI00B32DE    TCT2053        202204287114-4729-02             TERMINAL                 CCN000150000000150000FN00000000020220501000150000NNM   20220303122455    4P0P  00003000000000516000000810232DE    TVYEV-TV006400630015
BI00B32DE    TCT2054        202205057114-4729-02             TERMINAL                 CCN000150000000150000FN00000000020220501000150000NNM   20220303122455    4P0P  00003000000000516000000810232DE    TVYEV-TV006400630015
BI00B32DE    TCT2051        202204077114-5746-02             TERMINAL                 CCN000084000000084000FN00000000020220501000084000NNM   20220303122455    4P0P  00002100000000695100000988732DE    TVYEV-TV006400630015
BI00B32DE    TCT2052        202204217114-5746-02             TERMINAL                 CCN000084000000084000FN00000000020220501000084000NNM   20220303122455    4P0P  00002100000000695100000988732DE    TVYEV-TV006400630015
BI00B32DE    TCT2053        202204287114-5746-02             TERMINAL                 CCN000084000000084000FN00000000020220501000084000NNM   20220303122455    4P0P  00002100000000695100000988732DE    TVYEV-TV006400630015
BI00B32DE    TCT2054        202205057114-5746-02             TERMINAL                 CCN000063000000063000FN00000000020220501000063000NNM   20220303122455    4P0P  00002100000000695100000988732DE    TVYEV-TV006400630015
BI00B32DE    TCT2051        202204077114-5747-02             TERMINAL                 CCN000036000000036000FN00000000020220501000036000NNM   20220303122455    4P0P  00001800000000626400000920032DE    TVYEV-TV006400630015
BI00B32DE    TCT2052        202204217114-5747-02             TERMINAL                 CCN000036000000036000FN00000000020220501000036000NNM   20220303122455    4P0P  00001800000000626400000920032DE    TVYEV-TV006400630015
BI00B32DE    TCT2053        202204287114-5747-02             TERMINAL                 CCN000018000000018000FN00000000020220501000018000NNM   20220303122455    4P0P  00001800000000626400000920032DE    TVYEV-TV006400630015
BI00B32DE    TCT2054        202205057114-5747-02             TERMINAL                 CCN000036000000036000FN00000000020220501000036000NNM   20220303122455    4P0P  00001800000000626400000920032DE    TVYEV-TV006400630015
BI00B32DE    TCT2051        202204077114-5748-02             TERMINAL                 CCN000036000000036000FN00000000020220501000036000NNM   20220303122455    4P0P  00001200000000444000000737632DE    TVYEV-TV006400630015
BI00B32DE    TCT2052        202204217114-5748-02             TERMINAL                 CCN000036000000036000FN00000000020220501000036000NNM   20220303122455    4P0P  00001200000000444000000737632DE    TVYEV-TV006400630015
BI00B32DE    TCT2053        202204287114-5748-02             TERMINAL                 CCN000036000000036000FN00000000020220501000036000NNM   20220303122455    4P0P  00001200000000444000000737632DE    TVYEV-TV006400630015
BI00B32DE    TCT2054        202205057114-5748-02             TERMINAL                 CCN000024000000024000FN00000000020220501000024000NNM   20220303122455    4P0P  00001200000000444000000737632DE    TVYEV-TV006400630015
BI00B32DE    TCT2051        202204077114-5753-02             TERMINAL                 CCN000054000000054000FN00000000020220501000054000NNM   20220303122455    4P0P  00002700000000847800001141432DE    TVYEV-TV006400630015
BI00B32DE    TCT2052        202204217114-5753-02             TERMINAL                 CCN000054000000054000FN00000000020220501000054000NNM   20220303122455    4P0P  00002700000000847800001141432DE    TVYEV-TV006400630015
BI00B32DE    TCT2053        202204287114-5753-02             TERMINAL                 CCN000054000000054000FN00000000020220501000054000NNM   20220303122455    4P0P  00002700000000847800001141432DE    TVYEV-TV006400630015
BI00B32DE    TCT2054        202205057114-5753-02             TERMINAL                 CCN000027000000027000FN00000000020220501000027000NNM   20220303122455    4P0P  00002700000000847800001141432DE    TVYEV-TV006400630015
BI00B32DE    TCT2051        202204077116-1685-02             TERMINAL                 CCN001080000001080000FN00000000020220501001080000NNM   20220303122455    4P0P  00002400000000897600001065232DE    TVYEV-TV005100280028
BI00B32DE    TCT2052        202204217116-1685-02             TERMINAL                 CCN000696000000696000FN00000000020220501000696000NNM   20220303122455    4P0P  00002400000000897600001065232DE    TVYEV-TV005100280028
BI00B32DE    TCT2053        202204287116-1685-02             TERMINAL                 CCN000624000000624000FN00000000020220501000624000NNM   20220303122455    4P0P  00002400000000897600001065232DE    TVYEV-TV005100280028
BI00B32DE    TCT2054        202205057116-1685-02             TERMINAL                 CCN000576000000576000FN00000000020220501000576000NNM   20220303122455    4P0P  00002400000000897600001065232DE    TVYEV-TV005100280028
BI00B32DE    TCT2051        202204077116-1686-02             TERMINAL                 CCN000105000000105000FN00000000020220501000105000NNM   20220303122455    4P0P  00002100000000869400001021632DE    TVYEV-TV005100280028
BI00B32DE    TCT2052        202204217116-1686-02             TERMINAL                 CCN000084000000084000FN00000000020220501000084000NNM   20220303122455    4P0P  00002100000000869400001021632DE    TVYEV-TV005100280028
BI00B32DE    TCT2053        202204287116-1686-02             TERMINAL                 CCN000063000000063000FN00000000020220501000063000NNM   20220303122455    4P0P  00002100000000869400001021632DE    TVYEV-TV005100280028
BI00B32DE    TCT2054        202205057116-1686-02             TERMINAL                 CCN000063000000063000FN00000000020220501000063000NNM   20220303122455    4P0P  00002100000000869400001021632DE    TVYEV-TV005100280028
BI00B32DE    TCT2051        202204077116-1688-02             TERMINAL FEMALE          CCN000021000000021000FN00000000020220501000021000NNM   20220303122455    4P0P  00002100000000299600000898832DE    TVYEV-TV005100280028
BI00B32DE    TCT2052        202204217116-1688-02             TERMINAL FEMALE          CCN000021000000021000FN00000000020220501000021000NNM   20220303122455    4P0P  00002100000000299600000898832DE    TVYEV-TV005100280028
BI00B32DE    TCT2054        202205057116-1688-02             TERMINAL FEMALE          CCN000021000000021000FN00000000020220501000021000NNM   20220303122455    4P0P  00002100000000299600000898832DE    TVYEV-TV005100280028
BI00B32DE    TCT2051        202204077116-2640                TERMINAL                 CCN000072000000072000FN00000000020220501000072000NNM   20220303122455    4P0P  00001800000001018800001196632DE    TVYEV-TV005100280028
BI00B32DE    TCT2052        202204217116-2640                TERMINAL                 CCN000036000000036000FN00000000020220501000036000NNM   20220303122455    4P0P  00001800000001018800001196632DE    TVYEV-TV005100280028
BI00B32DE    TCT2053        202204287116-2640                TERMINAL                 CCN000036000000036000FN00000000020220501000036000NNM   20220303122455    4P0P  00001800000001018800001196632DE    TVYEV-TV005100280028
BI00B32DE    TCT2054        202205057116-2640                TERMINAL                 CCN000036000000036000FN00000000020220501000036000NNM   20220303122455    4P0P  00001800000001018800001196632DE    TVYEV-TV005100280028
BI00B32DE    TCT2051        202204077116-2641                TERMINAL                 CCN000144000000144000FN00000000020220501000144000NNM   20220303122455    4P0P  00001800000001161000001344632DE    TVYEV-TV005100280028
BI00B32DE    TCT2052        202204217116-2641                TERMINAL                 CCN000054000000054000FN00000000020220501000054000NNM   20220303122455    4P0P  00001800000001161000001344632DE    TVYEV-TV005100280028
BI00B32DE    TCT2053        202204287116-2641                TERMINAL                 CCN000054000000054000FN00000000020220501000054000NNM   20220303122455    4P0P  00001800000001161000001344632DE    TVYEV-TV005100280028
BI00B32DE    TCT2054        202205057116-2641                TERMINAL                 CCN000036000000036000FN00000000020220501000036000NNM   20220303122455    4P0P  00001800000001161000001344632DE    TVYEV-TV005100280028
BI00B32DE    TCT2051        202204077116-2891-02             TERMINAL                 CCN000330000000330000FN00000000020220501000330000NNM   20220303122455    4P0P  00001500000000982500001145932DE    TVYEV-TV005100280028
BI00B32DE    TCT2052        202204217116-2891-02             TERMINAL                 CCN000240000000240000FN00000000020220501000240000NNM   20220303122455    4P0P  00001500000000982500001145932DE    TVYEV-TV005100280028
BI00B32DE    TCT2053        202204287116-2891-02             TERMINAL                 CCN000210000000210000FN00000000020220501000210000NNM   20220303122455    4P0P  00001500000000982500001145932DE    TVYEV-TV005100280028
BI00B32DE    TCT2054        202205057116-2891-02             TERMINAL                 CCN000195000000195000FN00000000020220501000195000NNM   20220303122455    4P0P  00001500000000982500001145932DE    TVYEV-TV005100280028
BI00B32DE    TCT2051        202204077116-2892-02             TERMINAL                 CCN000360000000360000FN00000000020220501000360000NNM   20220303122455    4P0P  00001200000000818400000981832DE    TVYEV-TV005100280028
BI00B32DE    TCT2052        202204217116-2892-02             TERMINAL                 CCN000228000000228000FN00000000020220501000228000NNM   20220303122455    4P0P  00001200000000818400000981832DE    TVYEV-TV005100280028
BI00B32DE    TCT2053        202204287116-2892-02             TERMINAL                 CCN000204000000204000FN00000000020220501000204000NNM   20220303122455    4P0P  00001200000000818400000981832DE    TVYEV-TV005100280028
BI00B32DE    TCT2054        202205057116-2892-02             TERMINAL                 CCN000180000000180000FN00000000020220501000180000NNM   20220303122455    4P0P  00001200000000818400000981832DE    TVYEV-TV005100280028
BI00B32DE    TCT2051        202204077116-2893-02             TERMINAL                 CCN000492000000492000FN00000000020220501000492000NNM   20220303122455    4P0P  00001200000000895200001058632DE    TVYEV-TV005100280028
BI00B32DE    TCT2052        202204217116-2893-02             TERMINAL                 CCN000384000000384000FN00000000020220501000384000NNM   20220303122455    4P0P  00001200000000895200001058632DE    TVYEV-TV005100280028
BI00B32DE    TCT2053        202204287116-2893-02             TERMINAL                 CCN000324000000324000FN00000000020220501000324000NNM   20220303122455    4P0P  00001200000000895200001058632DE    TVYEV-TV005100280028
BI00B32DE    TCT2054        202205057116-2893-02             TERMINAL                 CCN000324000000324000FN00000000020220501000324000NNM   20220303122455    4P0P  00001200000000895200001058632DE    TVYEV-TV005100280028
BI00B32DE    TCT2051        202204077116-3153-08             TERMINAL                 CCN000027000000027000FN00000000020220501000027000NNM   20220303122455    4P0P  00002700000000461700000746932DE    TVYEV-TV006400630015
BI00B32DE    TCT2052        202204217116-3153-08             TERMINAL                 CCN000054000000054000FN00000000020220501000054000NNM   20220303122455    4P0P  00002700000000461700000746932DE    TVYEV-TV006400630015
BI00B32DE    TCT2053        202204287116-3153-08             TERMINAL                 CCN000054000000054000FN00000000020220501000054000NNM   20220303122455    4P0P  00002700000000461700000746932DE    TVYEV-TV006400630015
BI00B32DE    TCT2054        202205057116-3153-08             TERMINAL                 CCN000027000000027000FN00000000020220501000027000NNM   20220303122455    4P0P  00002700000000461700000746932DE    TVYEV-TV006400630015
BI00B32DE    TCT2053        202204287116-3154-08             TERMINAL                 CCN000027000000027000FN00000000020220501000027000NNM   20220303122455    4P0P  00002700000000475200000760432DE    TVYEV-TV006400630015
BI00B32DE    TCT2051        202204077116-4025                TERMINAL                 CCN000352000000352000FN00000000020220501000352000NNM   20220303122455    4P0P  00001600000000644800000975132DE    TVYEV-TV006400630017
BI00B32DE    TCT2052        202204217116-4025                TERMINAL                 CCN000192000000192000FN00000000020220501000192000NNM   20220303122455    4P0P  00001600000000644800000975132DE    TVYEV-TV006400630017
BI00B32DE    TCT2053        202204287116-4025                TERMINAL                 CCN000144000000144000FN00000000020220501000144000NNM   20220303122455    4P0P  00001600000000644800000975132DE    TVYEV-TV006400630017
BI00B32DE    TCT2054        202205057116-4025                TERMINAL                 CCN000144000000144000FN00000000020220501000144000NNM   20220303122455    4P0P  00001600000000644800000975132DE    TVYEV-TV006400630017
BI00B32DE    TCT2051        202204077116-4026                TERMINAL                 CCN000128000000128000FN00000000020220501000128000NNM   20220303122455    4P0P  00001600000000664000000994332DE    TVYEV-TV006400630017
BI00B32DE    TCT2052        202204217116-4026                TERMINAL                 CCN000128000000128000FN00000000020220501000128000NNM   20220303122455    4P0P  00001600000000664000000994332DE    TVYEV-TV006400630017
BI00B32DE    TCT2053        202204287116-4026                TERMINAL                 CCN000112000000112000FN00000000020220501000112000NNM   20220303122455    4P0P  00001600000000664000000994332DE    TVYEV-TV006400630017
BI00B32DE    TCT2054        202205057116-4026                TERMINAL                 CCN000096000000096000FN00000000020220501000096000NNM   20220303122455    4P0P  00001600000000664000000994332DE    TVYEV-TV006400630017
BI00B32DE    TCT2051        202204077116-4028-08             TERMINAL FEMALE          CCN000080000000080000FN00000000020220501000080000NNM   20220303122455    4P0P  00001600000000652800000981532DE    TVYEV-TV006400630017
BI00B32DE    TCT2052        202204217116-4028-08             TERMINAL FEMALE          CCN000144000000144000FN00000000020220501000144000NNM   20220303122455    4P0P  00001600000000652800000981532DE    TVYEV-TV006400630017
BI00B32DE    TCT2053        202204287116-4028-08             TERMINAL FEMALE          CCN000128000000128000FN00000000020220501000128000NNM   20220303122455    4P0P  00001600000000652800000981532DE    TVYEV-TV006400630017
BI00B32DE    TCT2054        202205057116-4028-08             TERMINAL FEMALE          CCN000112000000112000FN00000000020220501000112000NNM   20220303122455    4P0P  00001600000000652800000981532DE    TVYEV-TV006400630017
BI00B32DE    TCT2051        202204077116-4031                TERMINAL                 CCN000007500000007500FN00000000020220501000007500NNM   20220303122455    4P0P  00000750000000619500000904732DE    TVYEV-TV006400630015
BI00B32DE    TCT2052        202204217116-4031                TERMINAL                 CCN000007500000007500FN00000000020220501000007500NNM   20220303122455    4P0P  00000750000000619500000904732DE    TVYEV-TV006400630015
BI00B32DE    TCT2053        202204287116-4031                TERMINAL                 CCN000007500000007500FN00000000020220501000007500NNM   20220303122455    4P0P  00000750000000619500000904732DE    TVYEV-TV006400630015
BI00B32DE    TCT2054        202205057116-4031                TERMINAL                 CCN000007500000007500FN00000000020220501000007500NNM   20220303122455    4P0P  00000750000000619500000904732DE    TVYEV-TV006400630015
BI00B32DE    TCT2051        202204077116-4032                TERMINAL                 CCN000120000000120000FN00000000020220501000120000NNM   20220303122455    4P0P  00000600000000532800000818032DE    TVYEV-TV006400630015
BI00B32DE    TCT2052        202204217116-4032                TERMINAL                 CCN000060000000060000FN00000000020220501000060000NNM   20220303122455    4P0P  00000600000000532800000818032DE    TVYEV-TV006400630015
BI00B32DE    TCT2053        202204287116-4032                TERMINAL                 CCN000048000000048000FN00000000020220501000048000NNM   20220303122455    4P0P  00000600000000532800000818032DE    TVYEV-TV006400630015
BI00B32DE    TCT2054        202205057116-4032                TERMINAL                 CCN000042000000042000FN00000000020220501000042000NNM   20220303122455    4P0P  00000600000000532800000818032DE    TVYEV-TV006400630015
BI00B32DE    TCT2051        202204077116-4037                TERMINAL                 CCN000120000000120000FN00000000020220501000120000NNM   20220303122455    4P0P  00000600000000600000000894232DE    TVYEV-TV006400630015
BI00B32DE    TCT2052        202204217116-4037                TERMINAL                 CCN000054000000054000FN00000000020220501000054000NNM   20220303122455    4P0P  00000600000000600000000894232DE    TVYEV-TV006400630015
BI00B32DE    TCT2053        202204287116-4037                TERMINAL                 CCN000042000000042000FN00000000020220501000042000NNM   20220303122455    4P0P  00000600000000600000000894232DE    TVYEV-TV006400630015
BI00B32DE    TCT2054        202205057116-4037                TERMINAL                 CCN000036000000036000FN00000000020220501000036000NNM   20220303122455    4P0P  00000600000000600000000894232DE    TVYEV-TV006400630015
BI00B32DE    TCT2052        202204217116-4100-02             TERMINAL                 CCN000015000000015000FN00000000020220501000015000NNM   20220303122455    4P0P  00001500000000696000000990232DE    TVYEV-TV006400630015
BI00B32DE    TCT2052        202204217116-4102-02             TERMINAL                 CCN000012000000012000FN00000000020220501000012000NNM   20220303122455    4P0P  00001200000000553200000841432DE    TVYEV-TV006400630015
BI00B32DE    TCT2053        202204287116-4102-02             TERMINAL                 CCN000012000000012000FN00000000020220501000012000NNM   20220303122455    4P0P  00001200000000553200000841432DE    TVYEV-TV006400630015
BI00B32DE    TCT2054        202205057116-4102-02             TERMINAL                 CCN000012000000012000FN00000000020220501000012000NNM   20220303122455    4P0P  00001200000000553200000841432DE    TVYEV-TV006400630015
BI00B32DE    TCT2051        202204077116-4114-02             TERMINAL                 CCN000052500000052500FN00000000020220501000052500NNM   20220303122455    4P0P  00001050000000693000000981232DE    TVYEV-TV006400630015
BI00B32DE    TCT2052        202204217116-4114-02             TERMINAL                 CCN000031500000031500FN00000000020220501000031500NNM   20220303122455    4P0P  00001050000000693000000981232DE    TVYEV-TV006400630015
BI00B32DE    TCT2053        202204287116-4114-02             TERMINAL                 CCN000021000000021000FN00000000020220501000021000NNM   20220303122455    4P0P  00001050000000693000000981232DE    TVYEV-TV006400630015
BI00B32DE    TCT2054        202205057116-4114-02             TERMINAL                 CCN000021000000021000FN00000000020220501000021000NNM   20220303122455    4P0P  00001050000000693000000981232DE    TVYEV-TV006400630015
BI00B32DE    TCT2051        202204077116-4115-02             TERMINAL                 CCN000016800000016800FN00000000020220501000016800NNM   20220303122455    4P0P  00000840000000593000000881232DE    TVYEV-TV006400630015
BI00B32DE    TCT2052        202204217116-4115-02             TERMINAL                 CCN000008400000008400FN00000000020220501000008400NNM   20220303122455    4P0P  00000840000000593000000881232DE    TVYEV-TV006400630015
BI00B32DE    TCT2053        202204287116-4115-02             TERMINAL                 CCN000008400000008400FN00000000020220501000008400NNM   20220303122455    4P0P  00000840000000593000000881232DE    TVYEV-TV006400630015
BI00B32DE    TCT2051        202204077116-4116-02             TERMINAL                 CCN000006900000006900FN00000000020220501000006900NNM   20220303122455    4P0P  00000690000000517500000805732DE    TVYEV-TV006400630015
BI00B32DE    TCT2052        202204217116-4116-02             TERMINAL                 CCN000013800000013800FN00000000020220501000013800NNM   20220303122455    4P0P  00000690000000517500000805732DE    TVYEV-TV006400630015
BI00B32DE    TCT2053        202204287116-4116-02             TERMINAL                 CCN000013800000013800FN00000000020220501000013800NNM   20220303122455    4P0P  00000690000000517500000805732DE    TVYEV-TV006400630015
BI00B32DE    TCT2054        202205057116-4116-02             TERMINAL                 CCN000013800000013800FN00000000020220501000013800NNM   20220303122455    4P0P  00000690000000517500000805732DE    TVYEV-TV006400630015
BI00B32DE    TCT2051        202204077116-4231-02             TERMINAL                 CCN000208000000208000FN00000000020220501000208000NNM   20220303122455    4P0P  00002600000000683800001012532DE    TVYEV-TV006400630017
BI00B32DE    TCT2052        202204217116-4231-02             TERMINAL                 CCN000208000000208000FN00000000020220501000208000NNM   20220303122455    4P0P  00002600000000683800001012532DE    TVYEV-TV006400630017
BI00B32DE    TCT2053        202204287116-4231-02             TERMINAL                 CCN000156000000156000FN00000000020220501000156000NNM   20220303122455    4P0P  00002600000000683800001012532DE    TVYEV-TV006400630017
BI00B32DE    TCT2054        202205057116-4231-02             TERMINAL                 CCN000156000000156000FN00000000020220501000156000NNM   20220303122455    4P0P  00002600000000683800001012532DE    TVYEV-TV006400630017
BI00B32DE    TCT2051        202204077116-4415-02             TERMINAL                 CCN000076000000076000FN00000000020220501000076000NNM   20220303122455    4P0P  00003800000000596600000925732DE    TVYEV-TV006400630017
BI00B32DE    TCT2052        202204217116-4415-02             TERMINAL                 CCN000114000000114000FN00000000020220501000114000NNM   20220303122455    4P0P  00003800000000596600000925732DE    TVYEV-TV006400630017
BI00B32DE    TCT2053        202204287116-4415-02             TERMINAL                 CCN000114000000114000FN00000000020220501000114000NNM   20220303122455    4P0P  00003800000000596600000925732DE    TVYEV-TV006400630017
BI00B32DE    TCT2054        202205057116-4415-02             TERMINAL                 CCN000152000000152000FN00000000020220501000152000NNM   20220303122455    4P0P  00003800000000596600000925732DE    TVYEV-TV006400630017
BI00B32DE    TCT2051        202204077116-4416-02             TERMINAL                 CCN000064000000064000FN00000000020220501000064000NNM   20220303122455    4P0P  00003200000000518400000847132DE    TVYEV-TV006400630017
BI00B32DE    TCT2052        202204217116-4416-02             TERMINAL                 CCN000064000000064000FN00000000020220501000064000NNM   20220303122455    4P0P  00003200000000518400000847132DE    TVYEV-TV006400630017
BI00B32DE    TCT2053        202204287116-4416-02             TERMINAL                 CCN000064000000064000FN00000000020220501000064000NNM   20220303122455    4P0P  00003200000000518400000847132DE    TVYEV-TV006400630017
BI00B32DE    TCT2054        202205057116-4416-02             TERMINAL                 CCN000032000000032000FN00000000020220501000032000NNM   20220303122455    4P0P  00003200000000518400000847132DE    TVYEV-TV006400630017
BI00B32DE    TCT2051        202204077116-4486-02             TERMINAL                 CCN000112000000112000FN00000000020220501000112000NNM   20220303122455    4P0P  00002800000000666400000995132DE    TVYEV-TV006400630017
BI00B32DE    TCT2052        202204217116-4486-02             TERMINAL                 CCN000084000000084000FN00000000020220501000084000NNM   20220303122455    4P0P  00002800000000666400000995132DE    TVYEV-TV006400630017
BI00B32DE    TCT2053        202204287116-4486-02             TERMINAL                 CCN000084000000084000FN00000000020220501000084000NNM   20220303122455    4P0P  00002800000000666400000995132DE    TVYEV-TV006400630017
BI00B32DE    TCT2054        202205057116-4486-02             TERMINAL                 CCN000056000000056000FN00000000020220501000056000NNM   20220303122455    4P0P  00002800000000666400000995132DE    TVYEV-TV006400630017
BI00B32DE    TCT2051        202204077116-5035-02             TERMINAL                 CCN000075000000075000FN00000000020220501000075000NNM   20220303122455    4P0P  00001500000000543000000828232DE    TVYEV-TV006400630015
BI00B32DE    TCT2052        202204217116-5035-02             TERMINAL                 CCN000105000000105000FN00000000020220501000105000NNM   20220303122455    4P0P  00001500000000543000000828232DE    TVYEV-TV006400630015
BI00B32DE    TCT2053        202204287116-5035-02             TERMINAL                 CCN000105000000105000FN00000000020220501000105000NNM   20220303122455    4P0P  00001500000000543000000828232DE    TVYEV-TV006400630015
BI00B32DE    TCT2054        202205057116-5035-02             TERMINAL                 CCN000075000000075000FN00000000020220501000075000NNM   20220303122455    4P0P  00001500000000543000000828232DE    TVYEV-TV006400630015
BI00B32DE    TCT2051        202204077116-5041-02             TERMINAL                 CCN000375000000375000FN00000000020220501000375000NNM   20220303122455    4P0P  00001500000000583500000868732DE    TVYEV-TV006400630015
BI00B32DE    TCT2052        202204217116-5041-02             TERMINAL                 CCN000270000000270000FN00000000020220501000270000NNM   20220303122455    4P0P  00001500000000583500000868732DE    TVYEV-TV006400630015
BI00B32DE    TCT2053        202204287116-5041-02             TERMINAL                 CCN000240000000240000FN00000000020220501000240000NNM   20220303122455    4P0P  00001500000000583500000868732DE    TVYEV-TV006400630015
BI00B32DE    TCT2054        202205057116-5041-02             TERMINAL                 CCN000210000000210000FN00000000020220501000210000NNM   20220303122455    4P0P  00001500000000583500000868732DE    TVYEV-TV006400630015
BI00B32DE    TCT2051        202204077116-5042-02             TERMINAL                 CCN000189000000189000FN00000000020220501000189000NNM   20220303122455    4P0P  00001350000000560300000845532DE    TVYEV-TV006400630015
BI00B32DE    TCT2052        202204217116-5042-02             TERMINAL                 CCN000121500000121500FN00000000020220501000121500NNM   20220303122455    4P0P  00001350000000560300000845532DE    TVYEV-TV006400630015
BI00B32DE    TCT2053        202204287116-5042-02             TERMINAL                 CCN000108000000108000FN00000000020220501000108000NNM   20220303122455    4P0P  00001350000000560300000845532DE    TVYEV-TV006400630015
BI00B32DE    TCT2054        202205057116-5042-02             TERMINAL                 CCN000094500000094500FN00000000020220501000094500NNM   20220303122455    4P0P  00001350000000560300000845532DE    TVYEV-TV006400630015
BI00B32DE    TCT2051        202204077116-5043-02             TERMINAL FEMALE          CCN000084000000084000FN00000000020220501000084000NNM   20220303122455    4P0P  00001200000000559200000844432DE    TVYEV-TV006400630015
BI00B32DE    TCT2052        202204217116-5043-02             TERMINAL FEMALE          CCN000108000000108000FN00000000020220501000108000NNM   20220303122455    4P0P  00001200000000559200000844432DE    TVYEV-TV006400630015
BI00B32DE    TCT2053        202204287116-5043-02             TERMINAL FEMALE          CCN000108000000108000FN00000000020220501000108000NNM   20220303122455    4P0P  00001200000000559200000844432DE    TVYEV-TV006400630015
BI00B32DE    TCT2054        202205057116-5043-02             TERMINAL FEMALE          CCN000084000000084000FN00000000020220501000084000NNM   20220303122455    4P0P  00001200000000559200000844432DE    TVYEV-TV006400630015
BI00B32DE    TCT2051        202204077116-5044-02             TERMINAL                 CCN000496000000496000FN00000000020220501000496000NNM   20220303122455    4P0P  00001600000000641600000986332DE    TVYEV-TV006400630017
BI00B32DE    TCT2052        202204217116-5044-02             TERMINAL                 CCN000272000000272000FN00000000020220501000272000NNM   20220303122455    4P0P  00001600000000641600000986332DE    TVYEV-TV006400630017
BI00B32DE    TCT2053        202204287116-5044-02             TERMINAL                 CCN000240000000240000FN00000000020220501000240000NNM   20220303122455    4P0P  00001600000000641600000986332DE    TVYEV-TV006400630017
BI00B32DE    TCT2054        202205057116-5044-02             TERMINAL                 CCN000224000000224000FN00000000020220501000224000NNM   20220303122455    4P0P  00001600000000641600000986332DE    TVYEV-TV006400630017
BI00B32DE    TCT2051        202204077116-5045-02             TERMINAL                 CCN000240000000240000FN00000000020220501000240000NNM   20220303122455    4P0P  00001600000000678400001007132DE    TVYEV-TV006400630017
BI00B32DE    TCT2052        202204217116-5045-02             TERMINAL                 CCN000176000000176000FN00000000020220501000176000NNM   20220303122455    4P0P  00001600000000678400001007132DE    TVYEV-TV006400630017
BI00B32DE    TCT2053        202204287116-5045-02             TERMINAL                 CCN000144000000144000FN00000000020220501000144000NNM   20220303122455    4P0P  00001600000000678400001007132DE    TVYEV-TV006400630017
BI00B32DE    TCT2054        202205057116-5045-02             TERMINAL                 CCN000160000000160000FN00000000020220501000160000NNM   20220303122455    4P0P  00001600000000678400001007132DE    TVYEV-TV006400630017
BI00B32DE    TCT2051        202204077116-5046-02             TERMINAL                 CCN000072000000072000FN00000000020220501000072000NNM   20220303122455    4P0P  00001200000000544800000873532DE    TVYEV-TV006400630017
BI00B32DE    TCT2052        202204217116-5046-02             TERMINAL                 CCN000036000000036000FN00000000020220501000036000NNM   20220303122455    4P0P  00001200000000544800000873532DE    TVYEV-TV006400630017
BI00B32DE    TCT2053        202204287116-5046-02             TERMINAL                 CCN000036000000036000FN00000000020220501000036000NNM   20220303122455    4P0P  00001200000000544800000873532DE    TVYEV-TV006400630017
BI00B32DE    TCT2054        202205057116-5046-02             TERMINAL                 CCN000036000000036000FN00000000020220501000036000NNM   20220303122455    4P0P  00001200000000544800000873532DE    TVYEV-TV006400630017
BI00B32DE    TCT2051        202204077116-5750-02             TERMINAL                 CCN000090000000090000FN00000000020220501000090000NNM   20220303122455    4P0P  00001500000000457500000742732DE    TVYEV-TV006400630015
BI00B32DE    TCT2052        202204217116-5750-02             TERMINAL                 CCN000075000000075000FN00000000020220501000075000NNM   20220303122455    4P0P  00001500000000457500000742732DE    TVYEV-TV006400630015
BI00B32DE    TCT2053        202204287116-5750-02             TERMINAL                 CCN000075000000075000FN00000000020220501000075000NNM   20220303122455    4P0P  00001500000000457500000742732DE    TVYEV-TV006400630015
BI00B32DE    TCT2054        202205057116-5750-02             TERMINAL                 CCN000060000000060000FN00000000020220501000060000NNM   20220303122455    4P0P  00001500000000457500000742732DE    TVYEV-TV006400630015
BI00B32DE    TCT2051        202204077116-5752-02             TERMINAL                 CCN000042000000042000FN00000000020220501000042000NNM   20220303122455    4P0P  00002100000000571200000856432DE    TVYEV-TV006400630015
BI00B32DE    TCT2052        202204217116-5752-02             TERMINAL                 CCN000084000000084000FN00000000020220501000084000NNM   20220303122455    4P0P  00002100000000571200000856432DE    TVYEV-TV006400630015
BI00B32DE    TCT2053        202204287116-5752-02             TERMINAL                 CCN000063000000063000FN00000000020220501000063000NNM   20220303122455    4P0P  00002100000000571200000856432DE    TVYEV-TV006400630015
BI00B32DE    TCT2054        202205057116-5752-02             TERMINAL                 CCN000063000000063000FN00000000020220501000063000NNM   20220303122455    4P0P  00002100000000571200000856432DE    TVYEV-TV006400630015
BI00B32DE    TCT2051        202204077116-6041                TERMINAL                 CCN000013500000013500FN00000000020220501000013500NNM   20220303122455    4P0P  00000450000000716000001009632DE    TVYEV-TV006400630015
BI00B32DE    TCT2052        202204217116-6041                TERMINAL                 CCN000009000000009000FN00000000020220501000009000NNM   20220303122455    4P0P  00000450000000716000001009632DE    TVYEV-TV006400630015
BI00B32DE    TCT2053        202204287116-6041                TERMINAL                 CCN000013500000013500FN00000000020220501000013500NNM   20220303122455    4P0P  00000450000000716000001009632DE    TVYEV-TV006400630015
BI00B32DE    TCT2054        202205057116-6041                TERMINAL                 CCN000004500000004500FN00000000020220501000004500NNM   20220303122455    4P0P  00000450000000716000001009632DE    TVYEV-TV006400630015
BI00B32DE    TCT2051        202204077116-6042                TERMINAL                 CCN000024000000024000FN00000000020220501000024000NNM   20220303122455    4P0P  00000300000000523800000856132DE    TVYEV-TV006400630015
BI00B32DE    TCT2052        202204217116-6042                TERMINAL                 CCN000021000000021000FN00000000020220501000021000NNM   20220303122455    4P0P  00000300000000523800000856132DE    TVYEV-TV006400630015
BI00B32DE    TCT2053        202204287116-6042                TERMINAL                 CCN000021000000021000FN00000000020220501000021000NNM   20220303122455    4P0P  00000300000000523800000856132DE    TVYEV-TV006400630015
BI00B32DE    TCT2054        202205057116-6042                TERMINAL                 CCN000018000000018000FN00000000020220501000018000NNM   20220303122455    4P0P  00000300000000523800000856132DE    TVYEV-TV006400630015
BI00B32DE    TCT2051        202204077126-8853-02             TERMINAL                 CCN000300000000300000FN00000000020220501000300000NNM   20220303122455    4P0P  00000750000000562500000847732DE    TVYEV-TV006400630015
BI00B32DE    TCT2052        202204217126-8853-02             TERMINAL                 CCN000232500000232500FN00000000020220501000232500NNM   20220303122455    4P0P  00000750000000562500000847732DE    TVYEV-TV006400630015
BI00B32DE    TCT2053        202204287126-8853-02             TERMINAL                 CCN000202500000202500FN00000000020220501000202500NNM   20220303122455    4P0P  00000750000000562500000847732DE    TVYEV-TV006400630015
BI00B32DE    TCT2054        202205057126-8853-02             TERMINAL                 CCN000202500000202500FN00000000020220501000202500NNM   20220303122455    4P0P  00000750000000562500000847732DE    TVYEV-TV006400630015
BI00B32DE    TCT2051        202204077126-8854-02             TERMINAL                 CCN000367500000367500FN00000000020220501000367500NNM   20220303122455    4P0P  00000750000000604500000889732DE    TVYEV-TV006400630015
BI00B32DE    TCT2052        202204217126-8854-02             TERMINAL                 CCN000277500000277500FN00000000020220501000277500NNM   20220303122455    4P0P  00000750000000604500000889732DE    TVYEV-TV006400630015
BI00B32DE    TCT2053        202204287126-8854-02             TERMINAL                 CCN000232500000232500FN00000000020220501000232500NNM   20220303122455    4P0P  00000750000000604500000889732DE    TVYEV-TV006400630015
BI00B32DE    TCT2054        202205057126-8854-02             TERMINAL                 CCN000232500000232500FN00000000020220501000232500NNM   20220303122455    4P0P  00000750000000604500000889732DE    TVYEV-TV006400630015
BI00B32DE    TCT2051        202204077126-8855-02             TERMINAL                 CCN000360000000360000FN00000000020220501000360000NNM   20220303122455    4P0P  00000600000000510600000795832DE    TVYEV-TV006400630015
BI00B32DE    TCT2052        202204217126-8855-02             TERMINAL                 CCN000294000000294000FN00000000020220501000294000NNM   20220303122455    4P0P  00000600000000510600000795832DE    TVYEV-TV006400630015
BI00B32DE    TCT2053        202204287126-8855-02             TERMINAL                 CCN000264000000264000FN00000000020220501000264000NNM   20220303122455    4P0P  00000600000000510600000795832DE    TVYEV-TV006400630015
BI00B32DE    TCT2054        202205057126-8855-02             TERMINAL                 CCN000258000000258000FN00000000020220501000258000NNM   20220303122455    4P0P  00000600000000510600000795832DE    TVYEV-TV006400630015
BI00B32DE    TCT2051        202204077158-3006-90             RUBBER STOPPER           CCN000580000000580000FN00000000020220501000580000NNM   20220303122455    1C0C  00002000000000330600000386032DE    TVYEV-TV002700430014
BI00B32DE    TCT2052        202204217158-3006-90             RUBBER STOPPER           CCN000640000000640000FN00000000020220501000640000NNM   20220303122455    1C0C  00002000000000330600000386032DE    TVYEV-TV002700430014
BI00B32DE    TCT2053        202204287158-3006-90             RUBBER STOPPER           CCN000540000000540000FN00000000020220501000540000NNM   20220303122455    1C0C  00002000000000330600000386032DE    TVYEV-TV002700430014
BI00B32DE    TCT2054        202205057158-3006-90             RUBBER STOPPER           CCN000500000000500000FN00000000020220501000500000NNM   20220303122455    1C0C  00002000000000330600000386032DE    TVYEV-TV002700430014
BI00B32DE    TCT2051        202204077158-3022-80             RUBBER STOPPER           CCN000005000000005000FN00000000020220501000005000NNM   20220303122455    1C0C  00000500000000467500000524032DE    TVYEV-TV002700430014
BI00B32DE    TCT2052        202204217158-3070-80             RUBBER STOPPER           CCN000080000000080000FN00000000020220501000080000NNM   20220303122455    1C0C  00004000000000276000000333332DE    TVYEV-TV002700430014
BI00B32DE    TCT2053        202204287158-3070-80             RUBBER STOPPER           CCN000040000000040000FN00000000020220501000040000NNM   20220303122455    1C0C  00004000000000276000000333332DE    TVYEV-TV002700430014
BI00B32DE    TCT2054        202205057158-3070-80             RUBBER STOPPER           CCN000080000000080000FN00000000020220501000080000NNM   20220303122455    1C0C  00004000000000276000000333332DE    TVYEV-TV002700430014
BI00B32DE    TCT2051        202204077158-3165-90             WIRE SEAL                CCN000040000000040000FN00000000020220501000040000NNM   20220303122455    1C0C  00004000000000124000000172432DE    TVYEV-TV004300270014
BI00B32DE    TCT2052        202204217158-3165-90             WIRE SEAL                CCN000080000000080000FN00000000020220501000080000NNM   20220303122455    1C0C  00004000000000124000000172432DE    TVYEV-TV004300270014
BI00B32DE    TCT2053        202204287158-3165-90             WIRE SEAL                CCN000080000000080000FN00000000020220501000080000NNM   20220303122455    1C0C  00004000000000124000000172432DE    TVYEV-TV004300270014
BI00B32DE    TCT2054        202205057158-3165-90             WIRE SEAL                CCN000080000000080000FN00000000020220501000080000NNM   20220303122455    1C0C  00004000000000124000000172432DE    TVYEV-TV004300270014
BI00B32DE    TCT2051        202204077158-3166-60             WIRE SEAL                CCN000040000000040000FN00000000020220501000040000NNM   20220303122455    1C0C  00004000000000104000000152432DE    TVYEV-TV002700430014
BI00B32DE    TCT2052        202204217158-3166-60             WIRE SEAL                CCN000040000000040000FN00000000020220501000040000NNM   20220303122455    1C0C  00004000000000104000000152432DE    TVYEV-TV002700430014
BI00B32DE    TCT2053        202204287158-3166-60             WIRE SEAL                CCN000080000000080000FN00000000020220501000080000NNM   20220303122455    1C0C  00004000000000104000000152432DE    TVYEV-TV002700430014
BI00B32DE    TCT2054        202205057158-3166-60             WIRE SEAL                CCN000040000000040000FN00000000020220501000040000NNM   20220303122455    1C0C  00004000000000104000000152432DE    TVYEV-TV002700430014
BI00B32DE    TCT2051        202204077158-3167-80             WIRE SEAL                CCN000060000000060000FN00000000020220501000060000NNM   20220303122455    1C0C  00002000000000048000000109032DE    TVYEV-TV002700430014
BI00B32DE    TCT2052        202204217158-3167-80             WIRE SEAL                CCN000060000000060000FN00000000020220501000060000NNM   20220303122455    1C0C  00002000000000048000000109032DE    TVYEV-TV002700430014
BI00B32DE    TCT2053        202204287158-3167-80             WIRE SEAL                CCN000040000000040000FN00000000020220501000040000NNM   20220303122455    1C0C  00002000000000048000000109032DE    TVYEV-TV002700430014
BI00B32DE    TCT2054        202205057158-3167-80             WIRE SEAL                CCN000040000000040000FN00000000020220501000040000NNM   20220303122455    1C0C  00002000000000048000000109032DE    TVYEV-TV002700430014
BI00B32DE    TCT2051        202204077195-1479-02             TERMINAL MALE            CCN000144000000144000FN00000000020220501000144000NNM   20220303122455    4P0P  00002400000000420000000714232DE    TVYEV-TV006400630015
BI00B32DE    TCT2052        202204217195-1479-02             TERMINAL MALE            CCN000096000000096000FN00000000020220501000096000NNM   20220303122455    4P0P  00002400000000420000000714232DE    TVYEV-TV006400630015
BI00B32DE    TCT2053        202204287195-1479-02             TERMINAL MALE            CCN000096000000096000FN00000000020220501000096000NNM   20220303122455    4P0P  00002400000000420000000714232DE    TVYEV-TV006400630015
BI00B32DE    TCT2054        202205057195-1479-02             TERMINAL MALE            CCN000096000000096000FN00000000020220501000096000NNM   20220303122455    4P0P  00002400000000420000000714232DE    TVYEV-TV006400630015
BI00B32DE    TCT2052        202204217196-0510-02             TERMINAL                 CCN000024000000024000FN00000000020220501000024000NNM   20220303122455    4P0P  00002400000000871200001034632DE    TVYEV-TV002800510028
BI00B32DE    TCT2053        202204287196-0510-02             TERMINAL                 CCN000048000000048000FN00000000020220501000048000NNM   20220303122455    4P0P  00002400000000871200001034632DE    TVYEV-TV002800510028
BI00B32DE    TCT2054        202205057196-0510-02             TERMINAL                 CCN000024000000024000FN00000000020220501000024000NNM   20220303122455    4P0P  00002400000000871200001034632DE    TVYEV-TV002800510028
BI00B32DE    TCT2052        202204217196-0550-02             TERMINAL ALUMINIUM       CCN000032000000032000FN00000000020220501000032000NNM   20220303122455    4P0P  00003200000000515200000901632DE    TVYEV-TV006400630017
BI00B32DE    TCT2051        202204077196-1103-02             TERMINAL                 CCN000022500000022500FN00000000020220501000022500NNM   20220303122455    4P0P  00002250000000429800000715032DE    TVYEV-TV006400630015
BI00B32DE    TCT2052        202204217196-1103-02             TERMINAL                 CCN000022500000022500FN00000000020220501000022500NNM   20220303122455    4P0P  00002250000000429800000715032DE    TVYEV-TV006400630015
BI00B32DE    TCT2053        202204287196-1103-02             TERMINAL                 CCN000022500000022500FN00000000020220501000022500NNM   20220303122455    4P0P  00002250000000429800000715032DE    TVYEV-TV006400630015
BI00B32DE    TCT2054        202205057196-1103-02             TERMINAL                 CCN000022500000022500FN00000000020220501000022500NNM   20220303122455    4P0P  00002250000000429800000715032DE    TVYEV-TV006400630015
BI00B32DE    TCT2051        202204077196-1481-02             TERMINAL FEMALE          CCN000576000000576000FN00000000020220501000576000NNM   20220303122455    4P0P  00002400000000422400000707632DE    TVYEV-TV006400630015
BI00B32DE    TCT2052        202204217196-1481-02             TERMINAL FEMALE          CCN000408000000408000FN00000000020220501000408000NNM   20220303122455    4P0P  00002400000000422400000707632DE    TVYEV-TV006400630015
BI00B32DE    TCT2053        202204287196-1481-02             TERMINAL FEMALE          CCN000408000000408000FN00000000020220501000408000NNM   20220303122455    4P0P  00002400000000422400000707632DE    TVYEV-TV006400630015
BI00B32DE    TCT2054        202205057196-1481-02             TERMINAL FEMALE          CCN000312000000312000FN00000000020220501000312000NNM   20220303122455    4P0P  00002400000000422400000707632DE    TVYEV-TV006400630015
BI00B32DE    TCT2051        202204077196-1934-02             TERMINAL FEMALE          CCN000117000000117000FN00000000020220501000117000NNM   20220303122455    4P0P  00001950000000561600000846832DE    TVYEV-TV006400630015
BI00B32DE    TCT2052        202204217196-1934-02             TERMINAL FEMALE          CCN000078000000078000FN00000000020220501000078000NNM   20220303122455    4P0P  00001950000000561600000846832DE    TVYEV-TV006400630015
BI00B32DE    TCT2053        202204287196-1934-02             TERMINAL FEMALE          CCN000097500000097500FN00000000020220501000097500NNM   20220303122455    4P0P  00001950000000561600000846832DE    TVYEV-TV006400630015
BI00B32DE    TCT2054        202205057196-1934-02             TERMINAL FEMALE          CCN000058500000058500FN00000000020220501000058500NNM   20220303122455    4P0P  00001950000000561600000846832DE    TVYEV-TV006400630015
BI00B32DE    TCT2051        202204077196-1936-02             TERMINAL FEMALE          CCN000108000000108000FN00000000020220501000108000NNM   20220303122455    4P0P  00001350000000441500000726732DE    TVYEV-TV006400630015
BI00B32DE    TCT2052        202204217196-1936-02             TERMINAL FEMALE          CCN000121500000121500FN00000000020220501000121500NNM   20220303122455    4P0P  00001350000000441500000726732DE    TVYEV-TV006400630015
BI00B32DE    TCT2053        202204287196-1936-02             TERMINAL FEMALE          CCN000135000000135000FN00000000020220501000135000NNM   20220303122455    4P0P  00001350000000441500000726732DE    TVYEV-TV006400630015
BI00B32DE    TCT2054        202205057196-1936-02             TERMINAL FEMALE          CCN000094500000094500FN00000000020220501000094500NNM   20220303122455    4P0P  00001350000000441500000726732DE    TVYEV-TV006400630015
BI00B32DE    TCT2051        202204077196-1939-02             TERMINAL FEMALE          CCN000015000000015000FN00000000020220501000015000NNM   20220303122455    4P0P  00001500000000574500000862732DE    TVYEV-TV006400630015
BI00B32DE    TCT2052        202204217196-1939-02             TERMINAL FEMALE          CCN000015000000015000FN00000000020220501000015000NNM   20220303122455    4P0P  00001500000000574500000862732DE    TVYEV-TV006400630015
BI00B32DE    TCT2053        202204287196-1939-02             TERMINAL FEMALE          CCN000015000000015000FN00000000020220501000015000NNM   20220303122455    4P0P  00001500000000574500000862732DE    TVYEV-TV006400630015
BI00B32DE    TCT2054        202205057196-1939-02             TERMINAL FEMALE          CCN000015000000015000FN00000000020220501000015000NNM   20220303122455    4P0P  00001500000000574500000862732DE    TVYEV-TV006400630015
BI00B32DE    TCT2051        202204077282-4576                HOUSING MALE ASS'Y       CCN000004800000004800FN00000000020220501000004800NNM   20220303122455    4N0N  00000240000000808800001028832DE    TVYEV-TV005500360039
BI00B32DE    TCT2052        202204217282-4576                HOUSING MALE ASS'Y       CCN000004800000004800FN00000000020220501000004800NNM   20220303122455    4N0N  00000240000000808800001028832DE    TVYEV-TV005500360039
BI00B32DE    TCT2053        202204287282-4576                HOUSING MALE ASS'Y       CCN000002400000002400FN00000000020220501000002400NNM   20220303122455    4N0N  00000240000000808800001028832DE    TVYEV-TV005500360039
BI00B32DE    TCT2051        202204077282-4577                HOUSING MALE ASS'Y       CCN000012000000012000FN00000000020220501000012000NNM   20220303122455    4N0N  00000240000000964800001174832DE    TVYEV-TV005500360039
BI00B32DE    TCT2052        202204217282-4577                HOUSING MALE ASS'Y       CCN000007200000007200FN00000000020220501000007200NNM   20220303122455    4N0N  00000240000000964800001174832DE    TVYEV-TV005500360039
BI00B32DE    TCT2053        202204287282-4577                HOUSING MALE ASS'Y       CCN000007200000007200FN00000000020220501000007200NNM   20220303122455    4N0N  00000240000000964800001174832DE    TVYEV-TV005500360039
BI00B32DE    TCT2054        202205057282-4577                HOUSING MALE ASS'Y       CCN000007200000007200FN00000000020220501000007200NNM   20220303122455    4N0N  00000240000000964800001174832DE    TVYEV-TV005500360039
BI00B32DE    TCT2052        202204217283-1057-30             CONNECTOR HOUSING        CCN000000960000000960FN00000000020220501000000960NNM   20220303122455    4N0N  00000096000000925400001075432DE    TVYEV-TV005500360039
BI00B32DE    TCT2053        202204287283-1057-30             CONNECTOR HOUSING        CCN000000960000000960FN00000000020220501000000960NNM   20220303122455    4N0N  00000096000000925400001075432DE    TVYEV-TV005500360039
BI00B32DE    TCT2051        202204077283-1222-40             CONNECTOR HOUSING        CCN000002400000002400FN00000000020220501000002400NNM   20220303122455    4N0N  00000120000000858000001032732DE    TVYEV-TV005500360039
BI00B32DE    TCT2052        202204217283-1222-40             CONNECTOR HOUSING        CCN000002400000002400FN00000000020220501000002400NNM   20220303122455    4N0N  00000120000000858000001032732DE    TVYEV-TV005500360039
BI00B32DE    TCT2053        202204287283-1222-40             CONNECTOR HOUSING        CCN000002400000002400FN00000000020220501000002400NNM   20220303122455    4N0N  00000120000000858000001032732DE    TVYEV-TV005500360039
BI00B32DE    TCT2054        202205057283-1222-40             CONNECTOR HOUSING        CCN000002400000002400FN00000000020220501000002400NNM   20220303122455    4N0N  00000120000000858000001032732DE    TVYEV-TV005500360039
BI00B32DE    TCT2051        202204077283-1288-10             CONNECTOR HOUSING        CCN000037200000037200FN00000000020220501000037200NNM   20220303122455    4N0N  00000120000001381000001637032DE    TVYEV-TV005600390040
BI00B32DE    TCT2052        202204217283-1288-10             CONNECTOR HOUSING        CCN000019200000019200FN00000000020220501000019200NNM   20220303122455    4N0N  00000120000001381000001637032DE    TVYEV-TV005600390040
BI00B32DE    TCT2053        202204287283-1288-10             CONNECTOR HOUSING        CCN000015600000015600FN00000000020220501000015600NNM   20220303122455    4N0N  00000120000001381000001637032DE    TVYEV-TV005600390040
BI00B32DE    TCT2054        202205057283-1288-10             CONNECTOR HOUSING        CCN000016800000016800FN00000000020220501000016800NNM   20220303122455    4N0N  00000120000001381000001637032DE    TVYEV-TV005600390040
BI00B32DE    TCT2051        202204077283-1288-40             CONNECTOR HOUSING        CCN000006000000006000FN00000000020220501000006000NNM   20220303122455    4N0N  00000120000001382000001640732DE    TVYEV-TV005600390040
BI00B32DE    TCT2052        202204217283-1288-40             CONNECTOR HOUSING        CCN000003600000003600FN00000000020220501000003600NNM   20220303122455    4N0N  00000120000001382000001640732DE    TVYEV-TV005600390040
BI00B32DE    TCT2053        202204287283-1288-40             CONNECTOR HOUSING        CCN000002400000002400FN00000000020220501000002400NNM   20220303122455    4N0N  00000120000001382000001640732DE    TVYEV-TV005600390040
BI00B32DE    TCT2054        202205057283-1288-40             CONNECTOR HOUSING        CCN000004800000004800FN00000000020220501000004800NNM   20220303122455    4N0N  00000120000001382000001640732DE    TVYEV-TV005600390040
BI00B32DE    TCT2051        202204077283-1289-30             CONNECTOR HOUSING        CCN000001200000001200FN00000000020220501000001200NNM   20220303122455    1N0N  00000060000000675600000820632DE    TVYEV-TV005400370024
BI00B32DE    TCT2052        202204217283-1289-30             CONNECTOR HOUSING        CCN000001800000001800FN00000000020220501000001800NNM   20220303122455    1N0N  00000060000000675600000820632DE    TVYEV-TV005400370024
BI00B32DE    TCT2053        202204287283-1289-30             CONNECTOR HOUSING        CCN000001200000001200FN00000000020220501000001200NNM   20220303122455    1N0N  00000060000000675600000820632DE    TVYEV-TV005400370024
BI00B32DE    TCT2054        202205057283-1289-30             CONNECTOR HOUSING        CCN000000600000000600FN00000000020220501000000600NNM   20220303122455    1N0N  00000060000000675600000820632DE    TVYEV-TV005400370024
BI00B32DE    TCT2051        202204077283-1289-40             CONNECTOR HOUSING        CCN000006600000006600FN00000000020220501000006600NNM   20220303122455    1N0N  00000060000000679800000824832DE    TVYEV-TV005400370024
BI00B32DE    TCT2052        202204217283-1289-40             CONNECTOR HOUSING        CCN000005400000005400FN00000000020220501000005400NNM   20220303122455    1N0N  00000060000000679800000824832DE    TVYEV-TV005400370024
BI00B32DE    TCT2053        202204287283-1289-40             CONNECTOR HOUSING        CCN000004800000004800FN00000000020220501000004800NNM   20220303122455    1N0N  00000060000000679800000824832DE    TVYEV-TV005400370024
BI00B32DE    TCT2054        202205057283-1289-40             CONNECTOR HOUSING        CCN000003600000003600FN00000000020220501000003600NNM   20220303122455    1N0N  00000060000000679800000824832DE    TVYEV-TV005400370024
BI00B32DE    TCT2051        202204077283-3013-30             CONNECTOR                CCN000002000000002000FN00000000020220501000002000NNM   20220303122455    4N0N  00000200000001138000001284032DE    TVYEV-TV005600390040
BI00B32DE    TCT2053        202204287283-3013-30             CONNECTOR                CCN000002000000002000FN00000000020220501000002000NNM   20220303122455    4N0N  00000200000001138000001284032DE    TVYEV-TV005600390040
BI00B32DE    TCT2051        202204077283-4576                HOUSING FEMALE ASS'Y     CCN000024000000024000FN00000000020220501000024000NNM   20220303122455    4N0N  00000480000000651300000871332DE    TVYEV-TV005500360039
BI00B32DE    TCT2052        202204217283-4576                HOUSING FEMALE ASS'Y     CCN000014400000014400FN00000000020220501000014400NNM   20220303122455    4N0N  00000480000000651300000871332DE    TVYEV-TV005500360039
BI00B32DE    TCT2053        202204287283-4576                HOUSING FEMALE ASS'Y     CCN000009600000009600FN00000000020220501000009600NNM   20220303122455    4N0N  00000480000000651300000871332DE    TVYEV-TV005500360039
BI00B32DE    TCT2054        202205057283-4576                HOUSING FEMALE ASS'Y     CCN000009600000009600FN00000000020220501000009600NNM   20220303122455    4N0N  00000480000000651300000871332DE    TVYEV-TV005500360039
BI00B32DE    TCT2051        202204077283-4576-30             HOUSING FEMALE ASS'Y     CCN000004800000004800FN00000000020220501000004800NNM   20220303122455    4N0N  00000480000000651300000871332DE    TVYEV-TV005500360039
BI00B32DE    TCT2052        202204217283-4576-30             HOUSING FEMALE ASS'Y     CCN000004800000004800FN00000000020220501000004800NNM   20220303122455    4N0N  00000480000000651300000871332DE    TVYEV-TV005500360039
BI00B32DE    TCT2053        202204287283-4576-30             HOUSING FEMALE ASS'Y     CCN000004800000004800FN00000000020220501000004800NNM   20220303122455    4N0N  00000480000000651300000871332DE    TVYEV-TV005500360039
BI00B32DE    TCT2054        202205057283-4576-30             HOUSING FEMALE ASS'Y     CCN000004800000004800FN00000000020220501000004800NNM   20220303122455    4N0N  00000480000000651300000871332DE    TVYEV-TV005500360039
BI00B32DE    TCT2053        202204287283-4576-40             HOUSING FEMALE ASS'Y     CCN000004800000004800FN00000000020220501000004800NNM   20220303122455    4N0N  00000480000000651300000871332DE    TVYEV-TV005500360039
BI00B32DE    TCT2053        202204287283-4576-90             HOUSING FEMALE ASS'Y     CCN000004800000004800FN00000000020220501000004800NNM   20220303122455    4N0N  00000480000000651300000871332DE    TVYEV-TV005500360039
BI00B32DE    TCT2053        202204287283-4577                CONNECTOR HOUSING        CCN000004800000004800FN00000000020220501000004800NNM   20220303122455    4N0N  00000480000000916800001136832DE    TVYEV-TV005500360039
BI00B32DE    TCT2051        202204077283-4577-30             CONNECTOR HOUSING        CCN000024000000024000FN00000000020220501000024000NNM   20220303122455    4N0N  00000480000000916800001136832DE    TVYEV-TV005500360039
BI00B32DE    TCT2052        202204217283-4577-30             CONNECTOR HOUSING        CCN000019200000019200FN00000000020220501000019200NNM   20220303122455    4N0N  00000480000000916800001136832DE    TVYEV-TV005500360039
BI00B32DE    TCT2053        202204287283-4577-30             CONNECTOR HOUSING        CCN000014400000014400FN00000000020220501000014400NNM   20220303122455    4N0N  00000480000000916800001136832DE    TVYEV-TV005500360039
BI00B32DE    TCT2054        202205057283-4577-30             CONNECTOR HOUSING        CCN000014400000014400FN00000000020220501000014400NNM   20220303122455    4N0N  00000480000000916800001136832DE    TVYEV-TV005500360039
BI00B32DE    TCT2052        202204217283-4577-40             CONNECTOR HOUSING        CCN000004800000004800FN00000000020220501000004800NNM   20220303122455    4N0N  00000480000000916800001136832DE    TVYEV-TV005500360039
BI00B32DE    TCT2052        202204217283-4855-40             CONNECTOR HOUSING        CCN000002400000002400FN00000000020220501000002400NNM   20220303122455    4N0N  00000240000001188400001400032DE    TVYEV-TV005600360039
BI00B32DE    TCT2053        202204287283-4855-40             CONNECTOR HOUSING        CCN000002400000002400FN00000000020220501000002400NNM   20220303122455    4N0N  00000240000001188400001400032DE    TVYEV-TV005600360039
BI00B32DE    TCT2054        202205057283-4855-40             CONNECTOR HOUSING        CCN000002400000002400FN00000000020220501000002400NNM   20220303122455    4N0N  00000240000001188400001400032DE    TVYEV-TV005600360039
BI00B32DE    TCT2053        202204287283-5830                CONNECTOR                CCN000006000000006000FN00000000020220501000006000NNM   20220303122455    1N47  00000600000000954000001104032DE    TVYEV-TV005500360039
BI00B32DE    TCT2052        202204217283-5830-30             CONNECTOR                CCN000006000000006000FN00000000020220501000006000NNM   20220303122455    1N0N  00000600000000954000001104032DE    TVYEV-TV005500360039
BI00B32DE    TCT2051        202204077283-5843                CONNECTOR                CCN000001500000001500FN00000000020220501000001500NNM   20220303122455    1N0N  00000150000000889000001132032DE    TVYEV-TV005600390040
BI00B32DE    TCT2051        202204077283-5846                HOUSING                  CCN000001500000001500FN00000000020220501000001500NNM   20220303122455    1N0N  00000150000000885000001102032DE    TVYEV-TV005600390040
BI00B32DE    TCT2053        202204287283-5846-40             HOUSING                  CCN000001500000001500FN00000000020220501000001500NNM   20220303122455    1N0N  00000150000000885000001102032DE    TVYEV-TV005600390040
BI00B32DE    TCT2051        202204077283-6120                CONNECTOR HOUSING        CCN000007500000007500FN00000000020220501000007500NNM   20220303122455    1N0N  00000150000000914000001143032DE    TVYEV-TV005600390040
BI00B32DE    TCT2052        202204217283-6120                CONNECTOR HOUSING        CCN000006000000006000FN00000000020220501000006000NNM   20220303122455    1N0N  00000150000000914000001143032DE    TVYEV-TV005600390040
BI00B32DE    TCT2053        202204287283-6120                CONNECTOR HOUSING        CCN000004500000004500FN00000000020220501000004500NNM   20220303122455    1N0N  00000150000000914000001143032DE    TVYEV-TV005600390040
BI00B32DE    TCT2054        202205057283-6120                CONNECTOR HOUSING        CCN000004500000004500FN00000000020220501000004500NNM   20220303122455    1N0N  00000150000000914000001143032DE    TVYEV-TV005600390040
BI00B32DE    TCT2051        202204077283-7023-30             CONNECTOR                CCN000002500000002500FN00000000020220501000002500NNM   20220303122455    4N0N  00000250000001358000001556032DE    TVYEV-TV005500360039
BI00B32DE    TCT2051        202204077283-7449-30             HOUSING FEMALE ASS'Y     CCN000007200000007200FN00000000020220501000007200NNM   20220303122455    4N0N  00000240000001200000001410032DE    TVYEV-TV005500360039
BI00B32DE    TCT2052        202204217283-7449-30             HOUSING FEMALE ASS'Y     CCN000007200000007200FN00000000020220501000007200NNM   20220303122455    4N0N  00000240000001200000001410032DE    TVYEV-TV005500360039
BI00B32DE    TCT2053        202204287283-7449-30             HOUSING FEMALE ASS'Y     CCN000009600000009600FN00000000020220501000009600NNM   20220303122455    4N0N  00000240000001200000001410032DE    TVYEV-TV005500360039
BI00B32DE    TCT2054        202205057283-7449-30             HOUSING FEMALE ASS'Y     CCN000007200000007200FN00000000020220501000007200NNM   20220303122455    4N0N  00000240000001200000001410032DE    TVYEV-TV005500360039
BI00B32DE    TCT2051        202204077283-7449-40             HOUSING FEMALE ASS'Y     CCN000004800000004800FN00000000020220501000004800NNM   20220303122455    4N0N  00000240000001200000001410032DE    TVYEV-TV005500360039
BI00B32DE    TCT2052        202204217283-7449-40             HOUSING FEMALE ASS'Y     CCN000004800000004800FN00000000020220501000004800NNM   20220303122455    4N0N  00000240000001200000001410032DE    TVYEV-TV005500360039
