BI00A1200    7360T51816     202201057289-3342                HOUSING FEMALE ASS'Y     CCN000009600000009600FY00000960020210901000000000NNED0420220107134248    1N0N  0000024000000068640000090141200    YCYC    005500360039
BI00A1200    7360T51815     202201057289-3342-90             HOUSING FEMALE ASS'Y     CCN000002400000002400FY00000240020210901000000000NNED0420220107134336    1N0N  0000024000000068640000090141200    YCYC    005500360039
BI00B1200    2399T52105     202202177172-5403-30             SEALED PACKING           CCN000004000000004000FN00000000020220301000004000NNMD0420220107122054    1C0C  0000040000000065360000070171200    YCYC    004300270014
BI00B1200    2399T52106     202202247172-5403-30             SEALED PACKING           CCN000004000000004000FN00000000020220301000004000NNMD0420220107122054    1C0C  0000040000000065360000070171200    YCYC    004300270014
BI00B1200    2399T52115     202205127289-5979-30             HOUSING FEMALE ASS'Y     CCN000064512000008064FN00000000020220301000008064NNMD0420220107153030    1N0N  0000002520000085470000106471200    YCYC    005400370024
BI00B1200    2399T52116     202207077289-5979-30             HOUSING FEMALE ASS'Y     CCN000064512000008064FN00000000020220301000008064NNMD0420220107153310    1N0N  0000002520000085470000106471200    YCYC    005400370024
BI00B1200    2399T52114     202204077289-5979-30             HOUSING FEMALE ASS'Y     CCN000021672000005292FN00000000020220301000005292NNMD0420220107152823    1N0N  0000002520000085470000106471200    YCYC    005400370024
BI00B1200    2399T52115     202205197289-5979-30             HOUSING FEMALE ASS'Y     CCN000021420000008064FN00000000020220301000008064NNMD0420220107153030    1N0N  0000002520000085470000106471200    YCYC    005400370024
BI00B1200    2399T52115     202205267289-5979-30             HOUSING FEMALE ASS'Y     CCN000021672000008064FN00000000020220301000008064NNMD0420220107153030    1N0N  0000002520000085470000106471200    YCYC    005400370024
BI00B1200    2399T52116     202207147289-5979-30             HOUSING FEMALE ASS'Y     CCN000021420000008064FN00000000020220301000008064NNMD0420220107153310    1N0N  0000002520000085470000106471200    YCYC    005400370024
BI00B1200    2399T52116     202207217289-5979-30             HOUSING FEMALE ASS'Y     CCN000021672000008064FN00000000020220301000008064NNMD0420220107153310    1N0N  0000002520000085470000106471200    YCYC    005400370024
BI00B1200    #8100T52107    202202037154-5597-30             CASSETTE R/B             CCN000001600000001600FN00000000020220301000001600NNM   20220107122054    2F0F  0000008000000073600000095201200    YCYC    005500360039
BI00B1200    #8100T52108    202202107154-5597-30             CASSETTE R/B             CCN000001600000001600FN00000000020220301000001600NNM   20220107122054    2F0F  0000008000000073600000095201200    YCYC    005500360039
BI00B1200    #8100T52109    202202177154-5597-30             CASSETTE R/B             CCN000000800000000800FN00000000020220301000000800NNM   20220107122054    2F0F  0000008000000073600000095201200    YCYC    005500360039
BI00B1200    H722D50003     202203107297-1861-30             HOUSING MALE ASS'Y       CCN000007500000007500FN00000000020220401000007500NNE   20220107122054    4N0N  0000015000000070220000082731200    YCYC    005400370024
BI00B1200    2399T52114     202204217289-5979-30             HOUSING FEMALE ASS'Y     CCN000005292000005292FN00000000020220301000005292NNMD0420220107152842    1N0N  0000002520000085470000106471200    YCYC    005400370024
BI00B1200    2399T52114     202204287289-5979-30             HOUSING FEMALE ASS'Y     CCN000005292000005292FN00000000020220301000005292NNMD0420220107152903    1N0N  0000002520000085470000106471200    YCYC    005400370024
BI00B1200    2399T52114     202205057289-5979-30             HOUSING FEMALE ASS'Y     CCN000005796000005796FN00000000020220301000005796NNMD0420220107152909    1N0N  0000002520000085470000106471200    YCYC    005400370024
BI00B1200    2399T52115     202206027289-5979-30             HOUSING FEMALE ASS'Y     CCN000008064000008064FN00000000020220301000008064NNMD0420220107153059    1N0N  0000002520000085470000106471200    YCYC    005400370024
BI00B1200    2399T52115     202206097289-5979-30             HOUSING FEMALE ASS'Y     CCN000008064000008064FN00000000020220301000008064NNMD0420220107153113    1N0N  0000002520000085470000106471200    YCYC    005400370024
BI00B1200    2399T52115     202206167289-5979-30             HOUSING FEMALE ASS'Y     CCN000008064000008064FN00000000020220301000008064NNMD0420220107153138    1N0N  0000002520000085470000106471200    YCYC    005400370024
BI00B1200    2399T52115     202206237289-5979-30             HOUSING FEMALE ASS'Y     CCN000008064000008064FN00000000020220301000008064NNMD0420220107153157    1N0N  0000002520000085470000106471200    YCYC    005400370024
BI00B1200    2399T52115     202206307289-5979-30             HOUSING FEMALE ASS'Y     CCN000008064000008064FN00000000020220301000008064NNMD0420220107153204    1N0N  0000002520000085470000106471200    YCYC    005400370024
BI00B1200    2399T52116     202207277289-5979-30             HOUSING FEMALE ASS'Y     CCN000008064000008064FN00000000020220301000008064NNMD0420220107153340    1N0N  0000002520000085470000106471200    YCYC    005400370024
BI00B1200    2399T52116     202208047289-5979-30             HOUSING FEMALE ASS'Y     CCN000008064000008064FN00000000020220301000008064NNMD0420220107153358    1N0N  0000002520000085470000106471200    YCYC    005400370024
BI00B1200    2399T52116     202208117289-5979-30             HOUSING FEMALE ASS'Y     CCN000008064000008064FN00000000020220301000008064NNMD0420220107153414    1N0N  0000002520000085470000106471200    YCYC    005400370024
BI00B1200    2399T52116     202208187289-5979-30             HOUSING FEMALE ASS'Y     CCN000008064000008064FN00000000020220301000008064NNMD0420220107153427    1N0N  0000002520000085470000106471200    YCYC    005400370024
BI00B1200    2399T52116     202208257289-5979-30             HOUSING FEMALE ASS'Y     CCN000008064000008064FN00000000020220301000008064NNMD0420220107153438    1N0N  0000002520000085470000106471200    YCYC    005400370024
BI00B32AF    #JTB2012       202112107282-5528-70             HOUSING MALE ASS'Y       CCN000012000000004000FY00000400020220101000000000NNMQ0020220107155350    2N0N  00000100000000230000000339032AF    HBYHVTB 005400370024
BI00B32AF    #JTB2021       202201147282-5528-70             HOUSING MALE ASS'Y       CCN000003000000003000FN00000000020220201000003000NNM00020220107135031    2N0N  00000100000000230000000339032AF    HBYHVTB 005400370024
BI00B32AF    #JTB2012       202201077282-5528-70             HOUSING MALE ASS'Y       CCN000008000000008000FY00000800020220101000000000NNMD0020220107155350    2N0N  00000100000000230000000339032AF    HBYHVTB 005400370024
BI00B32AG    XG22041NMW     202203187158-3165-90             WIRE SEAL                CCN000280000000280000FN00000000020220401000280000NNMD0420220107122054    1C0C  00004000000000124000000172432AG    XGXGY   004300270014
BI00B32AG    XG22042NMW     202203257158-3165-90             WIRE SEAL                CCN000200000000200000FN00000000020220401000200000NNMD0420220107122054    1C0C  00004000000000124000000172432AG    XGXGY   004300270014
BI00B32AG    XG22043NMW     202204017158-3165-90             WIRE SEAL                CCN000160000000160000FN00000000020220401000160000NNMD0420220107122054    1C0C  00004000000000124000000172432AG    XGXGY   004300270014
BI00B32AG    XG22044NMW     202204087158-3165-90             WIRE SEAL                CCN000120000000120000FN00000000020220401000120000NNMD0420220107122054    1C0C  00004000000000124000000172432AG    XGXGY   004300270014
BI00B32A7    ZZ22031BMW     202202167172-5403-30             SEALED PACKING           CCN000136000000136000FN00000000020220301000136000NNMD0420220107122054    1C0C  00000400000000653600000701732A7    ZZZZY   004300270014
BI00B32A7    ZZ22033BMW     202202237172-5403-30             SEALED PACKING           CCN000052000000052000FN00000000020220301000052000NNMD0420220107122054    1C0C  00000400000000653600000701732A7    ZZZZY   004300270014
BI00B32A7    ZZ22034BMW     202203097172-5403-30             SEALED PACKING           CCN000028000000028000FN00000000020220301000028000NNMD0420220107122054    1C0C  00000400000000653600000701732A7    ZZZZY   004300270014
BI00B32A7    ZZ22031LMW     202202027289-4696-30             HOUSING FEMALE ASS'Y     CCN000088000000056000FN00000000020220301000056000NNMQ0420220107150207    4N0N  00000200000000913400001055432A7    ZZZZY   005400370024
BI00B32A7    ZZ22031LMW     202202097289-4696-30             HOUSING FEMALE ASS'Y     CCN000032000000032000FN00000000020220301000032000NNMD0420220107150214    4N0N  00000200000000913400001055432A7    ZZZZY   005400370024
BI00A32B6    TAPSBU01Z      202201147289-3342-30             HOUSING FEMALE ASS'Y     CCN000002400000002400FN00000000020220101000002400NNEM0020220107163007B6  1N0N  00000240000000686400000901432B6    AXARNE-M005500360039
BI00A32CG    #S211106-M     202201127158-3376-50             CONNECTOR WIRE SEAL      CCN000020000000020000FN00000000020220101000020000NNEM0020220107140504    2C0C  00002000000000184000000240732CG    ASASIACO002700430014
BI00B32CJ    #JQN2021       202201147282-5528-70             HOUSING MALE ASS'Y       CCN000012000000012000FN00000000020220201000012000NNM00020220107135238    2N0N  00000100000000230000000339032CJ    QNYHVQN 005400370024
BI00B32DA    SBT2203        202202037158-3006-90             RUBBER STOPPER           CCN000360000000360000FN00000000020220301000360000NNMD0420220107122054    1C0C  00002000000000330600000386032DA    GBYIPLGB002700430014
BI00B32DA    SBT2203A       202202107158-3006-90             RUBBER STOPPER           CCN000100000000100000FN00000000020220301000100000NNMD0420220107122054    1C0C  00002000000000330600000386032DA    GBYIPLGB002700430014
BI00B32DE    TCT2032        202202247158-3006-90             RUBBER STOPPER           CCN000100000000100000FN00000000020220301000100000NNMD0420220107122054    1C0C  00002000000000330600000386032DE    TVYEV-TV002700430014
BI00B32DE    TCT2033        202203037158-3006-90             RUBBER STOPPER           CCN000600000000600000FN00000000020220301000600000NNMD0420220107122054    1C0C  00002000000000330600000386032DE    TVYEV-TV002700430014
BI00B32DE    TCT2034        202203107158-3006-90             RUBBER STOPPER           CCN000700000000700000FN00000000020220301000700000NNMD0420220107122054    1C0C  00002000000000330600000386032DE    TVYEV-TV002700430014
BI00B32DE    TCT2031        202203037288-6547                CONNECTOR MALE ASS'Y     CCN000002250000000750FN00000000020220301000000750NNMD0420220107122054    4N0N  00000075000001205300001340332DE    TVYEV-TV005400370024
BI00B32DE    TCT2032        202203247288-6547                CONNECTOR MALE ASS'Y     CCN000002250000000750FN00000000020220301000000750NNMD0420220107122054    4N0N  00000075000001205300001340332DE    TVYEV-TV005400370024
BI00B32DE    TCT2033        202204217288-6547                CONNECTOR MALE ASS'Y     CCN000002250000000750FN00000000020220301000000750NNMD0420220107122054    4N0N  00000075000001205300001340332DE    TVYEV-TV005400370024
BI00B32DE    TCT2033        202203107289-3342                HOUSING FEMALE ASS'Y     CCN000002400000002400FN00000000020220301000002400NNMD0420220107122054    1N0N  00000240000000686400000901432DE    TVYEV-TV005500360039
BI00B32DE    TCT2034        202204077289-3342                HOUSING FEMALE ASS'Y     CCN000002400000002400FN00000000020220301000002400NNMD0420220107122054    1N0N  00000240000000686400000901432DE    TVYEV-TV005500360039
BI00B32DE    TCT2032        202205267289-3342-30             HOUSING FEMALE ASS'Y     CCN000016800000016800FN00000000020220301000016800NNMD0420220107122054    1N0N  00000240000000686400000901432DE    TVYEV-TV005500360039
BI00B32DE    TCT2033        202206097289-3342-30             HOUSING FEMALE ASS'Y     CCN000024000000024000FN00000000020220301000024000NNMD0420220107122054    1N0N  00000240000000686400000901432DE    TVYEV-TV005500360039
BI00B32DE    TCT2034        202207147289-3342-30             HOUSING FEMALE ASS'Y     CCN000048000000048000FN00000000020220301000048000NNMD0420220107122054    1N0N  00000240000000686400000901432DE    TVYEV-TV005500360039
BI00B32DE    TCT2031        202203107289-3342-90             HOUSING FEMALE ASS'Y     CCN000004800000004800FN00000000020220301000004800NNMD0420220107122054    1N0N  00000240000000686400000901432DE    TVYEV-TV005500360039
BI00B32DE    TCT2033        202204077289-3342-90             HOUSING FEMALE ASS'Y     CCN000004800000004800FN00000000020220301000004800NNMD0420220107122054    1N0N  00000240000000686400000901432DE    TVYEV-TV005500360039
BI00B32DE    TCT2034        202205057289-3342-90             HOUSING FEMALE ASS'Y     CCN000004800000004800FN00000000020220301000004800NNMD0420220107122054    1N0N  00000240000000686400000901432DE    TVYEV-TV005500360039
BI00B32DE    TCT2031        202203107288-6547                CONNECTOR MALE ASS'Y     CCN000000750000000750FN00000000020220301000000750NNMD0420220107122054    4N0N  00000075000001205300001340332DE    TVYEV-TV005400370024
BI00B32DE    TCT2031        202203177288-6547                CONNECTOR MALE ASS'Y     CCN000000750000000750FN00000000020220301000000750NNMD0420220107122054    4N0N  00000075000001205300001340332DE    TVYEV-TV005400370024
BI00B32DE    TCT2032        202203317288-6547                CONNECTOR MALE ASS'Y     CCN000000750000000750FN00000000020220301000000750NNMD0420220107122054    4N0N  00000075000001205300001340332DE    TVYEV-TV005400370024
BI00B32DE    TCT2032        202204077288-6547                CONNECTOR MALE ASS'Y     CCN000000750000000750FN00000000020220301000000750NNMD0420220107122054    4N0N  00000075000001205300001340332DE    TVYEV-TV005400370024
BI00B32DE    TCT2033        202204287288-6547                CONNECTOR MALE ASS'Y     CCN000000750000000750FN00000000020220301000000750NNMD0420220107122054    4N0N  00000075000001205300001340332DE    TVYEV-TV005400370024
BI00B32DE    TCT2033        202205057288-6547                CONNECTOR MALE ASS'Y     CCN000000750000000750FN00000000020220301000000750NNMD0420220107122054    4N0N  00000075000001205300001340332DE    TVYEV-TV005400370024
BI00B32DG    RP2031         202202177158-3006-90             RUBBER STOPPER           CCN000120000000120000FN00000000020220301000120000NNMD0420220107122054    1C0C  00002000000000330600000386032DG    BFSAIBF 002700430014
BI00B32DG    RP2032         202202247158-3006-90             RUBBER STOPPER           CCN000120000000120000FN00000000020220301000120000NNMD0420220107122054    1C0C  00002000000000330600000386032DG    BFSAIBF 002700430014
BI00B32DG    RP2033         202203037158-3006-90             RUBBER STOPPER           CCN000120000000120000FN00000000020220301000120000NNMD0420220107122054    1C0C  00002000000000330600000386032DG    BFSAIBF 002700430014
BI00B32DG    RP2034         202203107158-3006-90             RUBBER STOPPER           CCN000120000000120000FN00000000020220301000120000NNMD0420220107122054    1C0C  00002000000000330600000386032DG    BFSAIBF 002700430014
BI00B32DG    #RL2024B       202201277158-3004-40             RUBBER STOPPER           CCN000020000000020000FN00000000020220201000020000NNE   20220107152436    2C0C  00002000000000234000000306332DG    BFSAIBF 002700430014
BI00B32DG    #RL2024B       202201277183-2415                CONNECTOR HOUSING        CCN000004800000004800FN00000000020220201000004800NNE   20220107152436    2F0F  00000480000000798200001091432DG    BFSAIBF 005500360039
BI00B32DG    #RL2024B       202201277158-3008-80             RUBBER STOPPER           CCN000080000000080000FN00000000020220201000080000NNE   20220107152436    2C0C  00002000000000288000000343032DG    BFSAIBF 004300270014
BI00B32DG    #RL2024B       202201277189-3031                HOUSING FEMALE           CCN000007200000007200FN00000000020220201000007200NNE   20220107152436    2F0F  00000240000000928800001365832DG    BFSAIBF 005500360039
BI00B32DG    #RL2024B       202201277282-1026                CONNECTOR HOUSING        CCN000018000000018000FN00000000020220201000018000NNE   20220107152436    2N0N  00000200000000696000000808532DG    BFSAIBF 005400370024
BI00B32DG    #RL2024B       202201277158-3003-90             RUBBER STOPPER           CCN000060000000060000FN00000000020220201000060000NNE   20220107152436    2C0C  00002000000000250000000306032DG    BFSAIBF 002700430014
BI00B32DG    RP2024B        202201277017-1182-02             TERMINAL                 CCN000045000000045000FN00000000020220201000045000NNE   20220107152508    4P0P  00004500000001165500001318632DG    BFSAIBF 005100280028
BI00B32DG    RP2024B        202201277114-4032                TERMINAL                 CCN000007500000007500FN00000000020220201000007500NNE   20220107152508    4P0P  00000750000000735000001063632DG    BFSAIBF 006400630017
BI00B32DG    RP2024B        202201277114-4231-02             TERMINAL                 CCN000036000000036000FN00000000020220201000036000NNE   20220107152508    4P0P  00001800000000554400000848032DG    BFSAIBF 006400630015
BI00B32DG    RP2025C        202202037114-4231-02             TERMINAL                 CCN000036000000036000FN00000000020220201000036000NNE   20220107152508    4P0P  00001800000000554400000848032DG    BFSAIBF 006400630015
BI00B32DG    RP2024B        202201277114-4624-02             TERMINAL                 CCN000048000000048000FN00000000020220201000048000NNE   20220107152508    4P0P  00002400000000895200001188832DG    BFSAIBF 006400630015
BI00B32DG    RP2025C        202202037114-4624-02             TERMINAL                 CCN000048000000048000FN00000000020220201000048000NNE   20220107152508    4P0P  00002400000000895200001188832DG    BFSAIBF 006400630015
BI00B32DG    RP2024B        202201277114-4728-02             TERMINAL                 CCN000180000000180000FN00000000020220201000180000NNE   20220107152508    4P0P  00003000000000510000000804232DG    BFSAIBF 006400630015
BI00B32DG    RP2025C        202202037114-4728-02             TERMINAL                 CCN000180000000180000FN00000000020220201000180000NNE   20220107152508    4P0P  00003000000000510000000804232DG    BFSAIBF 006400630015
BI00B32DG    RP2024B        202201277114-5747-02             TERMINAL                 CCN000072000000072000FN00000000020220201000072000NNE   20220107152508    4P0P  00001800000000626400000920032DG    BFSAIBF 006400630015
BI00B32DG    RP2025C        202202037114-5747-02             TERMINAL                 CCN000072000000072000FN00000000020220201000072000NNE   20220107152508    4P0P  00001800000000626400000920032DG    BFSAIBF 006400630015
BI00B32DG    RP2024B        202201277116-4020                TERMINAL                 CCN000013500000013500FN00000000020220201000013500NNE   20220107152508    4P0P  00001350000000513000000798232DG    BFSAIBF 006400630015
BI00B32DG    RP2024B        202201277116-4025                TERMINAL                 CCN000016000000016000FN00000000020220201000016000NNE   20220107152508    4P0P  00001600000000644800000975132DG    BFSAIBF 006400630017
BI00B32DG    RP2024B        202201277116-4032                TERMINAL                 CCN000006000000006000FN00000000020220201000006000NNE   20220107152508    4P0P  00000600000000532800000818032DG    BFSAIBF 006400630015
BI00B32DG    RP2024B        202201277116-4486-02             TERMINAL                 CCN000196000000196000FN00000000020220201000196000NNE   20220107152508    4P0P  00002800000000666400000995132DG    BFSAIBF 006400630017
BI00B32DG    RP2025C        202202037116-4486-02             TERMINAL                 CCN000168000000168000FN00000000020220201000168000NNE   20220107152508    4P0P  00002800000000666400000995132DG    BFSAIBF 006400630017
BI00B32DG    RP2024B        202201277116-5036-02             TERMINAL                 CCN000013500000013500FN00000000020220201000013500NNE   20220107152508    4P0P  00001350000000618300001042232DG    BFSAIBF 006400630015
BI00B32DG    RP2024B        202201277116-5041-02             TERMINAL                 CCN000015000000015000FN00000000020220201000015000NNE   20220107152508    4P0P  00001500000000583500000868732DG    BFSAIBF 006400630015
BI00B32DG    RP2024B        202201277116-5042-02             TERMINAL                 CCN000081000000081000FN00000000020220201000081000NNE   20220107152508    4P0P  00001350000000560300000845532DG    BFSAIBF 006400630015
BI00B32DG    RP2025C        202202037116-5042-02             TERMINAL                 CCN000081000000081000FN00000000020220201000081000NNE   20220107152508    4P0P  00001350000000560300000845532DG    BFSAIBF 006400630015
BI00B32DG    RP2024B        202201277116-5044-02             TERMINAL                 CCN000048000000048000FN00000000020220201000048000NNE   20220107152508    4P0P  00001600000000641600000986332DG    BFSAIBF 006400630017
BI00B32DG    RP2025C        202202037116-5044-02             TERMINAL                 CCN000032000000032000FN00000000020220201000032000NNE   20220107152508    4P0P  00001600000000641600000986332DG    BFSAIBF 006400630017
BI00B32DG    RP2024B        202201277116-5046-02             TERMINAL                 CCN000012000000012000FN00000000020220201000012000NNE   20220107152508    4P0P  00001200000000544800000873532DG    BFSAIBF 006400630017
BI00B32DG    RP2024B        202201277158-3006-90             RUBBER STOPPER           CCN000040000000040000FN00000000020220201000040000NNE   20220107152508    1C0C  00002000000000330600000386032DG    BFSAIBF 002700430014
BI00B32DG    RP2025C        202202037158-3006-90             RUBBER STOPPER           CCN000020000000020000FN00000000020220201000020000NNE   20220107152508    1C0C  00002000000000330600000386032DG    BFSAIBF 002700430014
BI00B32DG    RP2024B        202201277116-5751-02             TERMINAL                 CCN000012000000012000FN00000000020220201000012000NNE   20220107152508    4P0P  00001200000000379200000664432DG    BFSAIBF 006400630015
BI00B32DG    RP2025C        202202037116-5751-02             TERMINAL                 CCN000012000000012000FN00000000020220201000012000NNE   20220107152508    4P0P  00001200000000379200000664432DG    BFSAIBF 006400630015
BI00B32DG    RP2024B        202201277288-3329-30             HOUSING MALE             CCN000001500000001500FN00000000020220201000001500NNE   20220107152508    4N0N  00000150000000866100001011132DG    BFSAIBF 005400370024
BI00B32DG    RP2025C        202202037288-3329-30             HOUSING MALE             CCN000001500000001500FN00000000020220201000001500NNE   20220107152508    4N0N  00000150000000866100001011132DG    BFSAIBF 005400370024
BI00B32DG    RP2024B        202201277116-5097-02             TERMINAL                 CCN000022500000022500FN00000000020220201000022500NNE   20220107152508    4P0P  00002250000000531000000816232DG    BFSAIBF 006400630015
BI00B32DG    RP2024B        202201277116-3154-08             TERMINAL                 CCN000054000000054000FN00000000020220201000054000NNE   20220107152508    4P0P  00002700000000475200000760432DG    BFSAIBF 006400630015
BI00B32DG    RP2025C        202202037116-3154-08             TERMINAL                 CCN000027000000027000FN00000000020220201000027000NNE   20220107152508    4P0P  00002700000000475200000760432DG    BFSAIBF 006400630015
BI00B32DG    RP2024B        202201277158-3070-80             RUBBER STOPPER           CCN000040000000040000FN00000000020220201000040000NNE   20220107152508    1C0C  00004000000000276000000333332DG    BFSAIBF 002700430014
BI00B32DG    RP2024B        202201277116-5043-02             TERMINAL FEMALE          CCN000012000000012000FN00000000020220201000012000NNE   20220107152508    4P0P  00001200000000559200000844432DG    BFSAIBF 006400630015
BI00B32DG    RP2024B        202201277116-3154-02             TERMINAL FEMALE          CCN000027000000027000FN00000000020220201000027000NNE   20220107152508    4P0P  00002700000000469800000755032DG    BFSAIBF 006400630015
BI00B32DG    RP2024B        202201277116-2640                TERMINAL                 CCN000018000000018000FN00000000020220201000018000NNE   20220107152508    4P0P  00001800000001018800001196632DG    BFSAIBF 005100280028
BI00B32DG    RP2024B        202201277116-2641                TERMINAL                 CCN000018000000018000FN00000000020220201000018000NNE   20220107152508    4P0P  00001800000001161000001344632DG    BFSAIBF 005100280028
BI00B32DG    RP2024B        202201277116-4114-02             TERMINAL                 CCN000010500000010500FN00000000020220201000010500NNE   20220107152508    4P0P  00001050000000693000000981232DG    BFSAIBF 006400630015
BI00B32DG    RP2024B        202201277116-4115-02             TERMINAL                 CCN000008400000008400FN00000000020220201000008400NNE   20220107152508    4P0P  00000840000000593000000881232DG    BFSAIBF 006400630015
BI00B32DG    RP2024B        202201277126-8853-02             TERMINAL                 CCN000007500000007500FN00000000020220201000007500NNE   20220107152508    4P0P  00000750000000562500000847732DG    BFSAIBF 006400630015
BI00B32DG    #RP2024B       202201277172-5632-10             DUMMY PLUG               CCN000020000000020000FN00000000020220201000020000NNE   20220107152458    2H0H  00002000000000080400000131832DG    BFSAIBF 004300270014
BI00B32DG    #RP2025C       202202037172-5632-10             DUMMY PLUG               CCN000020000000020000FN00000000020220201000020000NNE   20220107152458    2H0H  00002000000000080400000131832DG    BFSAIBF 004300270014
BI00B32DG    @RP2024B       202201277283-1556                CONNECTOR ASS'Y          CCN000012000000012000FN00000000020220201000012000NNE   20220107152507    3N0N  00000240000000755000001014032DG    BFSAIBF 005500360039
BI00B32DG    @RP2025C       202202037283-1556                CONNECTOR ASS'Y          CCN000012000000012000FN00000000020220201000012000NNE   20220107152507    3N0N  00000240000000755000001014032DG    BFSAIBF 005500360039
BI00B32DG    @RP2024B       202201277282-1025                HOUSING SUB ASSEMBLY     CCN000002400000002400FN00000000020220201000002400NNE   20220107152507    3N0N  00000240000001143800001390032DG    BFSAIBF 005500360039
BI00B32DG    @RP2025C       202202037282-1025                HOUSING SUB ASSEMBLY     CCN000002400000002400FN00000000020220201000002400NNE   20220107152507    3N0N  00000240000001143800001390032DG    BFSAIBF 005500360039
BI00B32DG    @RP2024B       202201277183-8049-30             CONNECTOR HOUSING        CCN000004000000004000FN00000000020220201000004000NNE   20220107152507    3F0F  00000400000000588800000714432DG    BFSAIBF 005400370024
BI00B32D1    DFTC2144       202112167289-3342-30             HOUSING FEMALE ASS'Y     CCN000084000000000000FY00000000020211001000000000NNM00020220107145814    1N0N  00000240000000686400000901432D1    TOYOT-K 005500360039
BI00A32D1    #DFTC2205      202201177172-5629-80             RUBBER STOPPER           PCN000280000000280000FN00000000020220201000280000NNM00020220107122054    2H0H  00002000000000060000000111132D1    TOYOT-K 004300270014
BI00A32D1    #DFTC2207      202201247172-5629-80             RUBBER STOPPER           PCN000360000000360000FN00000000020220201000360000NNM00020220107122054    2H0H  00002000000000060000000111132D1    TOYOT-K 004300270014
BI00B32D1    DFTC2144       202201107289-3342-30             HOUSING FEMALE ASS'Y     CCN000076800000084000FN00000000020211001000084000NNM00020220107145814    1N0N  00000240000000686400000901432D1    TOYOT-K 005500360039
BI00B32D1    DFTC2214       202203037289-6547                HOUSING FEMALE ASS'Y     CCN000014400000014400FN00000000020220401000014400NNMD0420220107150250    1N0N  00000240000001152000001362032D1    TOYOT-K 005500360039
BI00B32D2    DGTC2213       202205127288-6547                CONNECTOR MALE ASS'Y     CCN000010500000010500FN00000000020220401000010500NNMD0420220107122054    4N0N  00000075000001205300001340332D2    TGYOT-G 005400370024
BI00B32D2    DGTC2213       202210127289-3342                HOUSING FEMALE ASS'Y     CCN000038400000038400FN00000000020220401000038400NNMD0420220107122054    1N0N  00000240000000686400000901432D2    TGYOT-G 005500360039
BI00B32D2    DGTC2213       202205197289-3342-30             HOUSING FEMALE ASS'Y     CCN000019200000019200FN00000000020220401000019200NNMD0420220107122054    1N0N  00000240000000686400000901432D2    TGYOT-G 005500360039
BI00B32D2    DGTC2213       202208117289-3342-40             HOUSING FEMALE ASS'Y     CCN000024000000024000FN00000000020220401000024000NNMD0420220107122054    1N0N  00000240000000686400000901432D2    TGYOT-G 005500360039
BI00B32D2    DGTC2213       202206167289-3342-90             HOUSING FEMALE ASS'Y     CCN000026400000026400FN00000000020220401000026400NNMD0420220107122054    1N0N  00000240000000686400000901432D2    TGYOT-G 005500360039
BI00B32D2    DGTC2214       202202107114-4032                TERMINAL                 CCN000037500000037500FN00000000020220401000037500NNM   20220107152248    4P0P  00000750000000735000001063632D2    TGYOT-G 006400630017
BI00B32D2    DGTC2214       202202107114-4231-02             TERMINAL                 CCN000018000000018000FN00000000020220401000018000NNM   20220107152248    4P0P  00001800000000554400000848032D2    TGYOT-G 006400630015
BI00B32D2    DGTC2214       202202107114-5748-02             TERMINAL                 CCN000072000000072000FN00000000020220401000072000NNM   20220107152248    4P0P  00001200000000444000000737632D2    TGYOT-G 006400630015
BI00B32D2    DGTC2214       202202107114-5753-02             TERMINAL                 CCN000117000000135000FN00000000020220401000135000NNM   20220107152248    4P0P  00002700000000847800001141432D2    TGYOT-G 006400630015
BI00B32D2    DGTC2214       202202107116-2891-02             TERMINAL                 CCN000075000000075000FN00000000020220401000075000NNM   20220107152248    4P0P  00001500000000982500001145932D2    TGYOT-G 005100280028
BI00B32D2    DGTC2214       202202107116-4486-02             TERMINAL                 CCN000084000000084000FN00000000020220401000084000NNM   20220107152248    4P0P  00002800000000666400000995132D2    TGYOT-G 006400630017
BI00B32D2    DGTC2214       202202107116-5045-02             TERMINAL                 CCN000112000000112000FN00000000020220401000112000NNM   20220107152248    4P0P  00001600000000678400001007132D2    TGYOT-G 006400630017
BI00B32D2    DGTC2214       202202107116-5046-02             TERMINAL                 CCN000180000000180000FN00000000020220401000180000NNM   20220107152248    4P0P  00001200000000544800000873532D2    TGYOT-G 006400630017
BI00B32D2    DGTC2214       202202107116-6042                TERMINAL                 CCN000108000000108000FN00000000020220401000108000NNM   20220107152248    4P0P  00000300000000523800000856132D2    TGYOT-G 006400630015
BI00B32D2    DGTC2214       202202107126-8853-02             TERMINAL                 CCN000210000000210000FN00000000020220401000210000NNM   20220107152248    4P0P  00000750000000562500000847732D2    TGYOT-G 006400630015
BI00B32D2    DGTC2214       202202107126-8854-02             TERMINAL                 CCN000210000000210000FN00000000020220401000210000NNM   20220107152248    4P0P  00000750000000604500000889732D2    TGYOT-G 006400630015
BI00B32D2    DGTC2214       202202107126-8855-02             TERMINAL                 CCN000294000000294000FN00000000020220401000294000NNM   20220107152248    4P0P  00000600000000510600000795832D2    TGYOT-G 006400630015
BI00B32D2    DGTC2214       202202107158-3070-80             RUBBER STOPPER           CCN000200000000200000FN00000000020220401000200000NNM   20220107152248    1C0C  00004000000000276000000333332D2    TGYOT-G 002700430014
BI00B32D2    DGTC2214       202202107158-3167-80             WIRE SEAL                CCN000060000000060000FN00000000020220401000060000NNM   20220107152248    1C0C  00002000000000048000000109032D2    TGYOT-G 002700430014
BI00B32D2    DGTC2214       202202107173-3291-40             LIF LEVER                CCN000028800000028800FN00000000020220401000028800NNM   20220107152248    1F0F  00000240000000867800001067832D2    TGYOT-G 005500360039
BI00B32D2    DGTC2214       202202107196-0396-02             TERMINAL                 CCN000015000000015000FN00000000020220401000015000NNM   20220107152248    4P0P  00001500000000949500001112932D2    TGYOT-G 002800510028
BI00B32D2    DGTC2214       202202107196-0805-02             TERMINAL FEMALE          CCN000022500000022500FN00000000020220401000022500NNM   20220107152248    4P0P  00002250000000558000000843232D2    TGYOT-G 006400630015
BI00B32D2    DGTC2214       202202107196-1325-02             TERMINAL FEMALE          CCN000300000000300000FN00000000020220401000300000NNM   20220107152248    4P0P  00006000000000450000000778732D2    TGYOT-G 006400630017
BI00B32D2    DGTC2214       202202107196-1326-02             TERMINAL FEMALE          CCN000540000000540000FN00000000020220401000540000NNM   20220107152248    4P0P  00006000000000456000000784732D2    TGYOT-G 006400630017
BI00B32D2    DGTC2214       202202107196-1327-02             TERMINAL FEMALE          CCN000052000000052000FN00000000020220401000052000NNM   20220107152248    4P0P  00005200000000336000000739532D2    TGYOT-G 006400630017
BI00B32D2    DGTC2214       202202107283-6388-40             CONNECTOR                CCN000002000000002000FN00000000020220401000002000NNM   20220107152248    4N0N  00000200000001029000001173532D2    TGYOT-G 005500360039
BI00B32D2    DGTC2214       202202107288-6547                CONNECTOR MALE ASS'Y     CCN000010500000010500FN00000000020220401000010500NNM   20220107152248    4N0N  00000075000001205300001340332D2    TGYOT-G 005400370024
BI00B32D2    DGTC2214       202202107289-3342                HOUSING FEMALE ASS'Y     CCN000100800000100800FN00000000020220401000100800NNM   20220107152248    1N0N  00000240000000686400000901432D2    TGYOT-G 005500360039
BI00B32D2    DGTC2214       202202107289-3342-30             HOUSING FEMALE ASS'Y     CCN000014400000014400FN00000000020220401000014400NNM   20220107152248    1N0N  00000240000000686400000901432D2    TGYOT-G 005500360039
BI00B32D2    DGTC2214       202202107289-3342-40             HOUSING FEMALE ASS'Y     CCN000007200000007200FN00000000020220401000007200NNM   20220107152248    1N0N  00000240000000686400000901432D2    TGYOT-G 005500360039
BI00B32D2    DGTC2214       202202107289-3342-90             HOUSING FEMALE ASS'Y     CCN000014400000014400FN00000000020220401000014400NNM   20220107152248    1N0N  00000240000000686400000901432D2    TGYOT-G 005500360039
BI00B32D2    DGTC2214       202202107289-6518-30             HOUSING FEMALE ASS'Y     CCN000028800000028800FN00000000020220401000028800NNM   20220107152248    1N0N  00000120000000829200001049232D2    TGYOT-G 005500360039
BI00B32D2    DGTC2214       202202107289-6547                HOUSING FEMALE ASS'Y     CCN000009600000009600FN00000000020220401000009600NNM   20220107152248    1N0N  00000240000001152000001362032D2    TGYOT-G 005500360039
BI00B32D2    DGTC2214       202202107296-0784-02             TERMINAL ALUMINIUM       CCN000096000000096000FN00000000020220401000096000NNM   20220107152248    4P0P  00002400000000480000000765232D2    TGYOT-G 006400630015
BI00B32D2    DGTC2214       202202107296-1025-02             TERMINAL ALUMINIUM       CCN000018000000018000FN00000000020220401000018000NNM   20220107152248    4P0P  00001800000000635400000920632D2    TGYOT-G 006400630015
BI00B32D2    DGTC2214       202202107327-6801-3W             BATTERY FUSE             CCN000008928000008928FN00000000020220401000008928NNM   20220107152248    4N0N  00000009600000928400001143432D2    TGYOT-G 005500360039
BI00B32D2    DGTC2214       202202107327-6803                MULTI FUSE               CCN000001120000001120FN00000000020220401000001120NNM   20220107152248    4N0N  00000056000000854600001067032D2    TGYOT-G 005400370024
BI00B32D2    DGTC2214       202202107327-6806                MULTI FUSE               CCN000008400000008400FN00000000020220401000008400NNM   20220107152248    4N0N  00000056000000851500001063932D2    TGYOT-G 005400370024
BI00B32D2    DGTC2214       202202107327-6809                MULTI FUSE               CCN000008400000008400FN00000000020220401000008400NNM   20220107152248    4N0N  00000056000000849300001061732D2    TGYOT-G 005400370024
BI00B32D2    DGTC2214       202202107327-6930                MULTI FUSE               CCN000007280000007280FN00000000020220401000007280NNM   20220107152248    4N0N  00000056000000848900001031932D2    TGYOT-G 005400370024
BI00B32D2    DGTC2214       202202107388-2978-30             HOUSING MALE ASS'Y       CCN000055680000055680FN00000000020220401000055680NNM   20220107152248    1N0N  00000048000000742000001122032D2    TGYOT-G 005500360039
BI00B32D2    #DGTC2214      202202107158-3003-90             RUBBER STOPPER           CCN000440000000440000FN00000000020220401000440000NNM   20220107152234    2C0C  00002000000000250000000306032D2    TGYOT-G 002700430014
BI00B32D2    #DGTC2214      202202107158-3005-80             RUBBER STOPPER           CCN000046000000060000FN00000000020220401000060000NNM   20220107152234    2H0H  00002000000000210000000268732D2    TGYOT-G 002700430014
BI00B32D2    #DGTC2214      202202107158-3008-80             RUBBER STOPPER           CCN000140000000140000FN00000000020220401000140000NNM   20220107152234    2C0C  00002000000000288000000343032D2    TGYOT-G 004300270014
BI00B32D2    #DGTC2214      202202107158-3015-10             RUBBER STOPPER           CCN000030000000030000FN00000000020220401000030000NNM   20220107152234    2C0C  00001000000000419500000474032D2    TGYOT-G 002700430014
BI00B32D2    #DGTC2214      202202107158-3017                RUBBER STOPPER           CCN000070000000070000FN00000000020220401000070000NNM   20220107152234    2C0C  00001000000000375500000435032D2    TGYOT-G 002700430014
BI00B32D2    #DGTC2214      202202107172-5625-90             RUBBER STOPPER           CCN000020000000020000FN00000000020220401000020000NNM   20220107152234    2H0H  00002000000000082400000133832D2    TGYOT-G 004300270014
BI00B32D2    #DGTC2214      202202107172-5627-60             RUBBER STOPPER           CCN000020000000020000FN00000000020220401000020000NNM   20220107152234    2H0H  00002000000000070400000121832D2    TGYOT-G 004300270014
BI00B32D2    #DGTC2214      202202107172-5629-80             RUBBER STOPPER           CCN000800000000800000FN00000000020220401000800000NNM   20220107152234    2H0H  00002000000000060000000111132D2    TGYOT-G 004300270014
BI00B32D2    #DGTC2214      202202107172-5630-40             RUBBER STOPPER           CCN000460000000460000FN00000000020220401000460000NNM   20220107152234    2H0H  00002000000000044000000095132D2    TGYOT-G 004300270014
BI00B32D2    #DGTC2214      202202107172-5631-60             RUBBER STOPPER           CCN000180000000180000FN00000000020220401000180000NNM   20220107152234    2H0H  00002000000000042000000093132D2    TGYOT-G 004300270014
BI00B32D2    #DGTC2214      202202107172-5632-10             DUMMY PLUG               CCN000320000000320000FN00000000020220401000320000NNM   20220107152234    2H0H  00002000000000080400000131832D2    TGYOT-G 004300270014
BI00B32D2    #DGTC2214      202202107189-2978-30             HOUSING FEMALE           CCN000055500000055500FN00000000020220401000055500NNM   20220107152234    2F0F  00000150000000966900001096932D2    TGYOT-G 005400370024
BI00B32D2    #DGTC2214      202202107189-3033                HOUSING FEMALE           CCN000012800000012800FN00000000020220401000012800NNM   20220107152234    2F0F  00000160000001211200001431232D2    TGYOT-G 005500360039
BI00B32D2    #DGTC2214      202202107189-3036                HOUSING FEMALE           CCN000006400000006400FN00000000020220401000006400NNM   20220107152234    2F0F  00000160000000921600001141632D2    TGYOT-G 005500360039
BI00B32D2    #DGTC2214      202202107283-8226-30             CONNECTOR                CCN000006000000006000FN00000000020220401000006000NNM   20220107152234    2N0N  00000200000000820000001008032D2    TGYOT-G 005400370024
BI00B32D2    #DGTC2214      202202107289-2912-40             HOUSING FEMALE ASS'Y     CCN000002000000002000FN00000000020220401000002000NNM   20220107152234    2N0N  00000200000000804000000931032D2    TGYOT-G 005400370024
BI00B32D2    #DGTC2214      202202107289-4200-30             HOUSING FEMALE ASS'Y     CCN000002000000002000FN00000000020220401000002000NNM   20220107152234    2N0N  00000200000000926000001021032D2    TGYOT-G 005400370024
BI00B32D4    4513127124     202201267158-3166-60             WIRE SEAL                CCN000040000000040000FN00000000020220101000040000NNM   20220107122054    1C0C  00004000000000104000000152432D4    YRYRL   002700430014
BI00B32D4    4513127124     202201267116-4415-02             TERMINAL                 CCN000038000000038000FN00000000020220101000038000NNM   20220107122054    4P0P  00003800000000596600000925732D4    YRYRL   006400630017
BI00B32D4    #4513127124    202201267047-5344                RETAINER                 CCN000010000000010000FN00000000020220101000010000NNM   20220107122054    2F0F  00001000000000870000001016032D4    YRYRL   005600390023
BI00B32D9    I10353         202201057289-3342-40             HOUSING FEMALE ASS'Y     CCN000004800000004800FY00000480020220101000000000NNMD0420220107134422    1N0N  00000240000000686400000901432D9    UEHESTO 005500360039
BI00B32D9    I20501         202201127289-6547                HOUSING FEMALE ASS'Y     CCN000002400000002400FN00000000020220101000002400NNM00020220107133841    1N0N  00000240000001152000001362032D9    UEHESTO 005500360039
BI00B32EJ    T211228P01     202203107289-3342-30             HOUSING FEMALE ASS'Y     CCN000002400000002400FN00000000020220101000002400NNED0420220107122054EJ  1N0N  00000240000000686400000901432EJ    EJYKBO  005500360039
BI00B32EJ    T220105P01     202202177158-3167-80             WIRE SEAL                CCN000140000000140000FN00000000020220201000140000NNE   20220107122054EJ  1C0C  00002000000000048000000109032EJ    EJYKBO  002700430014
BI00B32EJ    T220105P01     202202177158-3165-90             WIRE SEAL                CCN000200000000200000FN00000000020220201000200000NNE   20220107122054EJ  1C0C  00004000000000124000000172432EJ    EJYKBO  004300270014
BI00B32G0    TZ22041EMW     202203017283-4855                CONNECTOR HOUSING        CCN000028800000028800FN00000000020220401000028800NNMD0420220107122054    4N0N  00000240000001188400001400032G0    TTTJY   005500360039
BI00B32G0    TZ22042EMW     202203157283-4855                CONNECTOR HOUSING        CCN000014400000014400FN00000000020220401000014400NNMD0420220107122054    4N0N  00000240000001188400001400032G0    TTTJY   005500360039
BI00B32G0    TZ22042EMW     202203157288-6547                CONNECTOR MALE ASS'Y     CCN000017250000017250FN00000000020220401000017250NNMD0420220107122054    4N0N  00000075000001205300001340332G0    TTTJY   005400370024
BI00A32G7    #JJ22012MMW    202201257172-5629-80             RUBBER STOPPER           PCN000080000000080000FN00000000020220101000080000NNM00020220107154746    2H0H  00002000000000060000000111132G7    JIJAI   004300270014
BI00A32G7    #JJ22012MMW    202201187172-5630-40             RUBBER STOPPER           PCN000300000000300000FN00000000020220101000300000NNM00020220107154810    2H0H  00002000000000044000000095132G7    JIJAI   004300270014
BI00A32G7    #JJ22013MMW    202201247172-5630-40             RUBBER STOPPER           PCN000300000000300000FN00000000020220101000300000NNM00020220107154825    2H0H  00002000000000044000000095132G7    JIJAI   004300270014
BI00B32G7    JJ22031 MW     202202177158-3006-90             RUBBER STOPPER           CCN000280000000280000FN00000000020220301000280000NNMD0420220107122054    1C0C  00002000000000330600000386032G7    JIJAI   002700430014
BI00B32G7    JJ22032 MW     202202247158-3006-90             RUBBER STOPPER           CCN000100000000100000FN00000000020220301000100000NNMD0420220107122054    1C0C  00002000000000330600000386032G7    JIJAI   002700430014
BI00B32G7    JJ22033 MW     202203037158-3006-90             RUBBER STOPPER           CCN000120000000120000FN00000000020220301000120000NNMD0420220107122054    1C0C  00002000000000330600000386032G7    JIJAI   002700430014
BI00B32G7    JJ22034 MW     202203107158-3006-90             RUBBER STOPPER           CCN000120000000120000FN00000000020220301000120000NNMD0420220107122054    1C0C  00002000000000330600000386032G7    JIJAI   002700430014
BI00B32H2    #TIJ2021       202201077283-8123                CONNECTOR HOUSING        CCN000012000000008000FY00000800020220201000000000NNMD0620220107163538    2N0N  00000400000000380000000531732H2    HVYHV   005600390023
BI00B32H2    TIJ202P        202201287283-4855                CONNECTOR HOUSING        CCN000002400000002400FN00000000020220201000002400NNE   20220107122054    4N0N  00000240000001188400001400032H2    HVYHV   005500360039
BI00B32H2    TIJ202P        202201287298-1865-30             HOUSING FEMALE ASS'Y     CCN000002400000002400FN00000000020220201000002400NNE   20220107122054    4N0N  00000240000001003200001204532H2    HVYHV   005500360039
BI00B32H2    TIJ202Q        202202047116-4231-02             TERMINAL                 CCN000026000000026000FN00000000020220201000026000NNE   20220107122054    4P0P  00002600000000683800001012532H2    HVYHV   006400630017
BI00B32H2    #TIJ202Q       202202047287-7860                HYBRID FEMALE ASS'Y      CCN000001200000001200FN00000000020220201000001200NNE   20220107122054    2N0N  00000120000000644000000650432H2    HVYHV   005500360039
BI00B32H2    TIJ203A        202202117283-5845                CONNECTOR HOUSING        CCN000012000000012000FN00000000020220301000012000NNE   20220107122054    1N0N  00000600000000444000000606332H2    HVYHV   005400370024
BI00B32H2    TIJ203A        202202117286-4097                CONNECTOR MALE ASS'Y     CCN000003200000003200FN00000000020220301000003200NNE   20220107122054    1N0N  00000160000000768000000978032H2    HVYHV   005500360039
BI00B32H2    #TIJ203A       202202117283-8123                CONNECTOR HOUSING        CCN000004000000004000FN00000000020220301000004000NNE   20220107122054    2N0N  00000400000000380000000531732H2    HVYHV   005600390023
BI00B32H2    #TIJ203A       202202117287-7859                HYBRID FEMALE ASS'Y      CCN000004800000004800FN00000000020220301000004800NNE   20220107122054    2N0N  00000120000000461600000671632H2    HVYHV   005500360039
BI00B32H2    #TIJ203A       202202117287-7860                HYBRID FEMALE ASS'Y      CCN000004800000004800FN00000000020220301000004800NNE   20220107122054    2N0N  00000120000000644000000650432H2    HVYHV   005500360039
BI00B32H2    TIJ203B        202202187114-4231-02             TERMINAL                 CCN000018000000018000FN00000000020220301000018000NNE   20220107122054    4P0P  00001800000000554400000848032H2    HVYHV   006400630015
BI00B32H2    TIJ203B        202202187282-9391                HOUSING MALE ASS'Y       CCN000001200000001200FN00000000020220301000001200NNE   20220107122054    4N0N  00000120000001017600001237632H2    HVYHV   005500360039
BI00B32H2    TIJ203B        202202187286-4097                CONNECTOR MALE ASS'Y     CCN000006400000006400FN00000000020220301000006400NNE   20220107122054    1N0N  00000160000000768000000978032H2    HVYHV   005500360039
BI00B32H2    TIJ203C        202202257116-6042                TERMINAL                 CCN000006000000006000FN00000000020220301000006000NNE   20220107122054    4P0P  00000300000000523800000856132H2    HVYHV   006400630015
BI00B32H2    TIJ203C        202202257196-1102-02             TERMINAL                 CCN000022500000022500FN00000000020220301000022500NNE   20220107122054    4P0P  00002250000000405000000690232H2    HVYHV   006400630015
BI00B32H2    TIJ203C        202202257282-9391                HOUSING MALE ASS'Y       CCN000001200000001200FN00000000020220301000001200NNE   20220107122054    4N0N  00000120000001017600001237632H2    HVYHV   005500360039
BI00B32H2    #TIJ203C       202202257198-4980-30             HOUSING FEMALE           CCN000001200000001200FN00000000020220301000001200NNE   20220107122054    2F0F  00000120000000840000000921032H2    HVYHV   005400370024
BI00B32H2    #TIJ203C       202202257282-3020                CONNECTOR                CCN000002000000002000FN00000000020220301000002000NNE   20220107122054    2N0N  00000100000000984000001145432H2    HVYHV   005500360039
BI00B32H2    TIJ203D        202203047114-5096-08             TERMINAL                 CCN000030000000030000FN00000000020220301000030000NNE   20220107122054    4P0P  00003000000000498000000792232H2    HVYHV   006400630015
BI00B32H2    TIJ203D        202203047196-1934-02             TERMINAL FEMALE          CCN000019500000019500FN00000000020220301000019500NNE   20220107122054    4P0P  00001950000000561600000846832H2    HVYHV   006400630015
BI00B32H2    TIJ203D        202203047196-1939-02             TERMINAL FEMALE          CCN000015000000015000FN00000000020220301000015000NNE   20220107122054    4P0P  00001500000000574500000862732H2    HVYHV   006400630015
BI00B32H2    TIJ203D        202203047283-4577-90             CONNECTOR HOUSING        CCN000004800000004800FN00000000020220301000004800NNE   20220107122054    4N0N  00000480000000916800001136832H2    HVYHV   005500360039
BI00B32H2    TIJ203D        202203047289-3342-40             HOUSING FEMALE ASS'Y     CCN000002400000002400FN00000000020220301000002400NNE   20220107122054    1N0N  00000240000000686400000901432H2    HVYHV   005500360039
BI00B32H2    #TIJ203D       202203047287-1670                HOUSING FEMALE ASS'Y     CCN000002800000002800FN00000000020220301000002800NNE   20220107122054    2N0N  00000280000000953100001145132H2    HVYHV   005400370024
BI00B32H2    #TIJ203D       202203047287-1671                HOUSING FEMALE ASS'Y     CCN000002000000002000FN00000000020220301000002000NNE   20220107122054    2N0N  00000200000000782600000974632H2    HVYHV   005400370024
BI00B32H2    #TIJ203D       202203047287-7859                HYBRID FEMALE ASS'Y      CCN000001200000001200FN00000000020220301000001200NNE   20220107122054    2N0N  00000120000000461600000671632H2    HVYHV   005500360039
BI00B32H2    #TIJ203D       202203047287-7860                HYBRID FEMALE ASS'Y      CCN000002400000002400FN00000000020220301000002400NNE   20220107122054    2N0N  00000120000000644000000650432H2    HVYHV   005500360039
BI00B32H2    #TIJ2021       202201217283-8123                CONNECTOR HOUSING        CCN000004000000004000FN00000000020220201000004000NNMD0620220107163552    2N0N  00000400000000380000000531732H2    HVYHV   005600390023
BI00A32H7    #FS22011DMW    202201137172-5630-40             RUBBER STOPPER           PCN000260000000260000FN00000000020220101000260000NNMM0020220107163825    2H0H  00002000000000044000000095132H7    FYFSY   004300270014
BI00B32H7    FS22031DMW     202202097158-3006-90             RUBBER STOPPER           CCN000200000000200000FN00000000020220301000200000NNMD0420220107122054    1C0C  00002000000000330600000386032H7    FYFSY   002700430014
BI00B32H7    FS22032DMW     202202167158-3006-90             RUBBER STOPPER           CCN000240000000240000FN00000000020220301000240000NNMD0420220107122054    1C0C  00002000000000330600000386032H7    FYFSY   002700430014
BI00B32H7    FS22033DMW     202202227158-3006-90             RUBBER STOPPER           CCN000220000000220000FN00000000020220301000220000NNMD0420220107122054    1C0C  00002000000000330600000386032H7    FYFSY   002700430014
BI00B32H7    FS22034DMW     202203027158-3006-90             RUBBER STOPPER           CCN000220000000220000FN00000000020220301000220000NNMD0420220107122054    1C0C  00002000000000330600000386032H7    FYFSY   002700430014
BI00B32H7    FS2202ADMW     202202027196-1482-02             TERMINAL FEMALE          CCN000024000000024000FN00000000020220201000024000NNE   20220107122054    4P0P  00002400000000424800000710032H7    FYFSY   006400630015
BI00B32H8    TY22031 MW     202202117158-3006-90             RUBBER STOPPER           CCN000100000000100000FN00000000020220301000100000NNMD0420220107122054    1C0C  00002000000000330600000386032H8    TYTYC   002700430014
BI00B32H8    TY22032 MW     202202187158-3006-90             RUBBER STOPPER           CCN000200000000200000FN00000000020220301000200000NNMD0420220107122054    1C0C  00002000000000330600000386032H8    TYTYC   002700430014
BI00B32H8    TY22033 MW     202202257158-3006-90             RUBBER STOPPER           CCN000100000000100000FN00000000020220301000100000NNMD0420220107122054    1C0C  00002000000000330600000386032H8    TYTYC   002700430014
BI00B32H8    TY22034 MW     202203047158-3006-90             RUBBER STOPPER           CCN000200000000200000FN00000000020220301000200000NNMD0420220107122054    1C0C  00002000000000330600000386032H8    TYTYC   002700430014
BI00B32J1    390112         202201317B58-3070-80             RUBBER STOPPER           CCN000040000000040000FN00000000020220101000040000NNM   20220107122054    1C0C  00004000000000276000000333032J1    UKYEL-BL004300270014
BI00B32J1    390112         202201317017-1180-02             TERMINAL                 CCN000072000000072000FN00000000020220101000072000NNM   20220107122054    4P0P  00007200000001065600001229032J1    UKYEL-BL005100280028
BI00B32J1    390112         202201317114-1475                TERMINAL                 CCN000040500000040500FN00000000020220101000040500NNM   20220107122054    4P0P  00001350000000480600000774232J1    UKYEL-BL006400630015
BI00B32J1    390112         202201317116-4020                TERMINAL                 CCN000067500000067500FN00000000020220101000067500NNM   20220107122054    4P0P  00001350000000513000000798232J1    UKYEL-BL006400630015
BI00B32J1    390112         202201317116-4037                TERMINAL                 CCN000012000000012000FN00000000020220101000012000NNM   20220107122054    4P0P  00000600000000600000000894232J1    UKYEL-BL006400630015
BI00B32J1    390112         202201317116-5045-02             TERMINAL                 CCN000032000000032000FN00000000020220101000032000NNM   20220107122054    4P0P  00001600000000678400001007132J1    UKYEL-BL006400630017
BI00B32J1    390112         202201317116-6042                TERMINAL                 CCN000009000000009000FN00000000020220101000009000NNM   20220107122054    4P0P  00000300000000523800000856132J1    UKYEL-BL006400630015
BI00B32J1    390112         202201317158-3006-90             RUBBER STOPPER           CCN000040000000040000FN00000000020220101000040000NNM   20220107122054    1C0C  00002000000000330600000386032J1    UKYEL-BL002700430014
BI00B32J1    390112         202201317158-3070-80             RUBBER STOPPER           CCN000040000000040000FN00000000020220101000040000NNM   20220107122054    1C0C  00004000000000276000000333332J1    UKYEL-BL002700430014
BI00B32J1    390112         202201317158-3165-90             WIRE SEAL                CCN000320000000320000FN00000000020220101000320000NNM   20220107122054    1C0C  00004000000000124000000172432J1    UKYEL-BL004300270014
BI00B32J1    390112         202201317158-3166-60             WIRE SEAL                CCN002160000002160000FN00000000020220101002160000NNM   20220107122054    1C0C  00004000000000104000000152432J1    UKYEL-BL002700430014
BI00B32J1    390112         202201317158-3167-80             WIRE SEAL                CCN002640000002640000FN00000000020220101002640000NNM   20220107122054    1C0C  00002000000000048000000109032J1    UKYEL-BL002700430014
BI00B32J1    390112         202201317158-3168-80             SEALED                   CCN001100000001100000FN00000000020220101001100000NNM   20220107122054    1C0C  00002000000000044000000092132J1    UKYEL-BL004300260014
BI00B32J1    390112         202201317196-0104-02             TERMINAL                 CCN000038000000038000FN00000000020220101000038000NNM   20220107122054    4P0P  00003800000000570000000956432J1    UKYEL-BL006400630017
BI00B32J1    390112         202201317282-5574-10             CONNECTOR                CCN000010400000010400FN00000000020220101000010400NNM   20220107122054    4N0N  00000080000001235000001423032J1    UKYEL-BL005600390040
BI00B32J1    390112         202201317282-6448-40             CONNECTOR                CCN000002400000002400FN00000000020220101000002400NNM   20220107122054    4N0N  00000080000000887000001152732J1    UKYEL-BL005600390040
BI00B32J1    390112         202201317282-6568-40             CONNECTOR                CCN000004000000004000FN00000000020220101000004000NNM   20220107122054    4N0N  00000100000001206000001370732J1    UKYEL-BL005500360039
BI00B32J1    390112         202201317283-1968-30             CONNECTOR                CCN000009000000009000FN00000000020220101000009000NNM   20220107122054    1N0N  00000090000001140000001318332J1    UKYEL-BL005600390040
BI00B32J1    390112         202201317283-5545-10             CONNECTOR                CCN000003600000003600FN00000000020220101000003600NNM   20220107122054    4N0N  00000060000001279000001409232J1    UKYEL-BL005600390040
BI00B32J1    390112         202201317283-5846                HOUSING                  CCN000025500000025500FN00000000020220101000025500NNM   20220107122054    1N0N  00000150000000885000001102032J1    UKYEL-BL005600390040
BI00B32J1    390112         202201317283-6388-40             CONNECTOR                CCN000002000000002000FN00000000020220101000002000NNM   20220107122054    4N0N  00000200000001029000001173532J1    UKYEL-BL005500360039
BI00B32J1    390112         202201317283-6448-40             CONNECTOR                CCN000003000000003000FN00000000020220101000003000NNM   20220107122054    4N0N  00000150000001087000001329032J1    UKYEL-BL005600390040
BI00B32J1    390112         202201317289-4696-30             HOUSING FEMALE ASS'Y     CCN000010000000010000FN00000000020220101000010000NNM   20220107122054    4N0N  00000200000000913400001055432J1    UKYEL-BL005400370024
BI00B32J1    390112         202201317298-1865-30             HOUSING FEMALE ASS'Y     CCN000021600000021600FN00000000020220101000021600NNM   20220107122054    4N0N  00000240000001003200001204532J1    UKYEL-BL005500360039
BI00B32J1    390112         202201317298-1869-30             HOUSING FEMALE ASS'Y     CCN000014400000014400FN00000000020220101000014400NNM   20220107122054    4N0N  00000120000000737000000939832J1    UKYEL-BL005500360039
BI00B32J1    390112         202201317298-2507-30             HOUSING FEMALE ASS'Y     CCN000001200000001200FN00000000020220101000001200NNM   20220107122054    4N0N  00000120000000713200000914532J1    UKYEL-BL005500360039
BI00B32J1    390112         202201317327-6840-3W             BATTERY FUSE             CCN000000720000000720FN00000000020220101000000720NNM   20220107122054    4N0N  00000007200001140900001355932J1    UKYEL-BL005500360039
BI00B32J1    #390112        202201317047-5344                RETAINER                 CCN000060000000060000FN00000000020220101000060000NNM   20220107122054    2F0F  00001000000000870000001016032J1    UKYEL-BL005600390023
BI00B32J1    #390112        202201317134-4547-30             COVER                    CCN000007500000007500FN00000000020220101000007500NNM   20220107122054    2F0F  00000250000000989000001156732J1    UKYEL-BL005600390040
BI00B32J1    #390112        202201317157-3821                RUBBER STOPPER           CCN000020000000020000FN00000000020220101000020000NNM   20220107122054    2C0C  00002000000000176000000238032J1    UKYEL-BL002700430014
BI00B32J1    #390112        202201317158-3003-90             RUBBER STOPPER           CCN000120000000120000FN00000000020220101000120000NNM   20220107122054    2C0C  00002000000000250000000306032J1    UKYEL-BL002700430014
BI00B32J1    #390112        202201317158-3004-40             RUBBER STOPPER           CCN000060000000060000FN00000000020220101000060000NNM   20220107122054    2C0C  00002000000000234000000306332J1    UKYEL-BL002700430014
BI00B32J1    #390112        202201317158-3008-80             RUBBER STOPPER           CCN000020000000020000FN00000000020220101000020000NNM   20220107122054    2C0C  00002000000000288000000343032J1    UKYEL-BL004300270014
BI00B32J1    #390112        202201317158-3120-90             CONNECTOR WIRE SEAL      CCN000200000000200000FN00000000020220101000200000NNM   20220107122054    2C0C  00002000000000136000000194032J1    UKYEL-BL002700430014
BI00B32J1    #390112        202201317158-3121-80             WIRE SEAL                CCN000040000000040000FN00000000020220101000040000NNM   20220107122054    2C0C  00002000000000118000000187332J1    UKYEL-BL002700430014
BI00B32J1    #390112        202201317158-3376-50             CONNECTOR WIRE SEAL      CCN000040000000040000FN00000000020220101000040000NNM   20220107122054    2C0C  00002000000000184000000240732J1    UKYEL-BL002700430014
BI00B32J1    #390112        202201317174-1164                COVER                    CCN000000800000000800FN00000000020220101000000800NNM   20220107122054    2F0F  00000080000000592000000712032J1    UKYEL-BL005500360039
BI00B32J1    #390112        202201317282-3243-40             CONNECTOR                CCN000008000000008000FN00000000020220101000008000NNM   20220107122054    2N0N  00000080000001006000001282332J1    UKYEL-BL005600390040
BI00B32J1    #390112        202201317282-4192-40             CONNECTOR                CCN000002640000002640FN00000000020220101000002640NNM   20220107122054    2N0N  00000024000000801000001083732J1    UKYEL-BL005600390040
BI00B32J1    #390112        202201317282-5545-10             CONNECTOR                CCN000013600000013600FN00000000020220101000013600NNM   20220107122054    2N0N  00000080000001293600001465332J1    UKYEL-BL005500360039
BI00B32J1    #390112        202201317282-6446-40             CONNECTOR                CCN000007500000007500FN00000000020220101000007500NNM   20220107122054    2N0N  00000150000001185000001368032J1    UKYEL-BL005500360039
BI00B32J1    #390112        202201317282-8395-40             CONNECTOR                CCN000001000000001000FN00000000020220101000001000NNM   20220107122054    2N0N  00000100000001009000001188032J1    UKYEL-BL005500360039
BI00B32J1    #390112        202201317283-8226-30             CONNECTOR                CCN000006000000006000FN00000000020220101000006000NNM   20220107122054    2N0N  00000200000000820000001008032J1    UKYEL-BL005400370024
BI00B32J1    #390112        202201317283-8397-40             CONNECTOR                CCN000001540000001540FN00000000020220101000001540NNM   20220107122054    2N0N  00000154000001007000001222732J1    UKYEL-BL005600390023
BI00B32J1    #390112        202201317283-8398-40             CONNECTOR                CCN000001540000001540FN00000000020220101000001540NNM   20220107122054    2N0N  00000154000001007000001171332J1    UKYEL-BL005600390023
BI00B32K8    #K1220010011   202202117137-2200                CONNECTOR PACKING        CCN000005000000005000FN00000000020220301000005000NNM   20220107152545    2C0C  00000500000000136000000211332K8    ELELCOM 004300270014
BI00B32M1    TCV2033        202203037158-3006-90             RUBBER STOPPER           CCN000400000000400000FN00000000020220301000400000NNMD0420220107122054    1C0C  00002000000000330600000386032M1    VNYEV   002700430014
BI00B32M1    TCV2034        202203107158-3006-90             RUBBER STOPPER           CCN000360000000360000FN00000000020220301000360000NNMD0420220107122054    1C0C  00002000000000330600000386032M1    VNYEV   002700430014
BI00A32M3    SM21124DMW     202201147172-5403-30             SEALED PACKING           PCN000012000000012000FN00000000020211201000012000NNM00020220107154018    1C0C  00000400000000653600000701732M3    SASAMI  004300270014
BI00A32M3    SM22012DMW     202201137172-5403-30             SEALED PACKING           PCN000056000000056000FN00000000020220101000056000NNM00020220107154056    1C0C  00000400000000653600000701732M3    SASAMI  004300270014
BI00A32M3    SM22013DMW     202201207172-5403-30             SEALED PACKING           PCN000048000000048000FN00000000020220101000048000NNMD0720220107154144    1C0C  00000400000000653600000701732M3    SASAMI  004300270014
BI00A32M3    SM22014DMW     202201067172-5403-30             SEALED PACKING           PCN000048000000048000FN00000000020220101000048000NNM00020220107154203    1C0C  00000400000000653600000701732M3    SASAMI  004300270014
BI00B32M3    SM22012DMW     202201137289-3342-30             HOUSING FEMALE ASS'Y     CCN000014400000004800FN00000000020220101000004800NNM00020220107164721    1N0N  00000240000000686400000901432M3    SASAMI  005500360039
BI00A32M3    SM22013DMW     202201137289-3342-30             HOUSING FEMALE ASS'Y     PCN000007200000007200FN00000000020220101000007200NNMD0720220107164728    1N0N  00000240000000686400000901432M3    SASAMI  005500360039
BI00A32M3    SM22014DMW     202201137289-3342-30             HOUSING FEMALE ASS'Y     PCN000007200000007200FN00000000020220101000007200NNM00020220107164736    1N0N  00000240000000686400000901432M3    SASAMI  005500360039
BI00A32M3    SM22012DMW     202201137289-3342-30             HOUSING FEMALE ASS'Y     PCN000009600000009600FN00000000020220101000009600NNM00020220107164721    1N0N  00000240000000686400000901432M3    SASAMI  005500360039
BI00A32M4    #TL2013        202201177172-5630-40             RUBBER STOPPER           PCN000060000000060000FN00000000020220101000060000NNM00020220107153843    2H0H  00002000000000044000000095132M4    SISAI   004300270014
BI00B32M4    TP2031         202202177158-3006-90             RUBBER STOPPER           CCN000280000000280000FN00000000020220301000280000NNMD0420220107122054    1C0C  00002000000000330600000386032M4    SISAI   002700430014
BI00B32M4    TP2032         202202247158-3006-90             RUBBER STOPPER           CCN000280000000280000FN00000000020220301000280000NNMD0420220107122054    1C0C  00002000000000330600000386032M4    SISAI   002700430014
BI00B32M4    TP2033         202203037158-3006-90             RUBBER STOPPER           CCN000280000000280000FN00000000020220301000280000NNMD0420220107122054    1C0C  00002000000000330600000386032M4    SISAI   002700430014
BI00B32M4    TP2034         202203107158-3006-90             RUBBER STOPPER           CCN000280000000280000FN00000000020220301000280000NNMD0420220107122054    1C0C  00002000000000330600000386032M4    SISAI   002700430014
BI00B32M4    TP2032         202203107283-6039                CONNECTOR                CCN000001600000001600FN00000000020220301000001600NNMD0220220107122054    1N0N  00000160000000624000000881532M4    SISAI   005500360039
BI00B32M4    #TL2024B       202201277125-3236                HEAD LAMP CONNECTOR      CCN000002800000002800FN00000000020220201000002800NNE   20220107152114    2F0F  00000280000000935200001075432M4    SISAI   005500360039
BI00B32M4    #TL2024B       202201277283-5834                CONNECTOR ASS'Y          CCN000006480000006480FN00000000020220201000006480NNE   20220107152114    2N0N  00000324000001296000001849732M4    SISAI   005600390040
BI00B32M4    #TL2025C       202202037283-5834                CONNECTOR ASS'Y          CCN000003240000003240FN00000000020220201000003240NNE   20220107152114    2N0N  00000324000001296000001849732M4    SISAI   005600390040
BI00B32M4    #TL2024B       202201277283-5834-30             CONNECTOR ASS'Y          CCN000006480000006480FN00000000020220201000006480NNE   20220107152114    2N0N  00000324000001296000001853432M4    SISAI   005600390040
BI00B32M4    #TL2024B       202201277183-6320                HOUSING                  CCN000004800000004800FN00000000020220201000004800NNE   20220107152114    2F0F  00000480000000820800001103632M4    SISAI   005500360039
BI00B32M4    #TL2024B       202201277183-2415-30             CONNECTOR HOUSING        CCN000004800000004800FN00000000020220201000004800NNE   20220107152114    2F0F  00000480000000798200001091432M4    SISAI   005500360039
BI00B32M4    #TL2024B       202201277183-2413-30             CONNECTOR HOUSING        CCN000004800000004800FN00000000020220201000004800NNE   20220107152114    2F0F  00000480000000477600000759532M4    SISAI   005500360039
BI00B32M4    #TL2024B       202201277158-3008-80             RUBBER STOPPER           CCN000060000000060000FN00000000020220201000060000NNE   20220107152114    2C0C  00002000000000288000000343032M4    SISAI   004300270014
BI00B32M4    #TL2025C       202202037158-3008-80             RUBBER STOPPER           CCN000040000000040000FN00000000020220201000040000NNE   20220107152114    2C0C  00002000000000288000000343032M4    SISAI   004300270014
BI00B32M4    #TL2024B       202201277158-3015-10             RUBBER STOPPER           CCN000020000000020000FN00000000020220201000020000NNE   20220107152114    2C0C  00001000000000419500000474032M4    SISAI   002700430014
BI00B32M4    #TL2025C       202202037158-3015-10             RUBBER STOPPER           CCN000010000000010000FN00000000020220201000010000NNE   20220107152114    2C0C  00001000000000419500000474032M4    SISAI   002700430014
BI00B32M4    #TL2024B       202201277158-3017                RUBBER STOPPER           CCN000010000000010000FN00000000020220201000010000NNE   20220107152114    2C0C  00001000000000375500000435032M4    SISAI   002700430014
BI00B32M4    #TL2024B       202201277183-2414                CONNECTOR HOUSING        CCN000004800000004800FN00000000020220201000004800NNE   20220107152114    2F0F  00000480000000779200001061032M4    SISAI   005500360039
BI00B32M4    #TL2024B       202201277172-5625-90             RUBBER STOPPER           CCN000160000000160000FN00000000020220201000160000NNE   20220107152114    2H0H  00002000000000082400000133832M4    SISAI   004300270014
BI00B32M4    #TL2025C       202202037172-5625-90             RUBBER STOPPER           CCN000100000000100000FN00000000020220201000100000NNE   20220107152114    2H0H  00002000000000082400000133832M4    SISAI   004300270014
BI00B32M4    #TL2024B       202201277172-5628-80             DUMMY PLUG               CCN000120000000120000FN00000000020220201000120000NNE   20220107152114    2H0H  00002000000000110600000162032M4    SISAI   004300270014
BI00B32M4    #TL2025C       202202037172-5628-80             DUMMY PLUG               CCN000080000000080000FN00000000020220201000080000NNE   20220107152114    2H0H  00002000000000110600000162032M4    SISAI   004300270014
BI00B32M4    #TL2024B       202201277172-5629-80             RUBBER STOPPER           CCN000040000000040000FN00000000020220201000040000NNE   20220107152114    2H0H  00002000000000060000000111132M4    SISAI   004300270014
BI00B32M4    #TL2024B       202201277172-5630-40             RUBBER STOPPER           CCN000020000000020000FN00000000020220201000020000NNE   20220107152114    2H0H  00002000000000044000000095132M4    SISAI   004300270014
BI00B32M4    #TL2024B       202201277172-5631-60             RUBBER STOPPER           CCN000040000000040000FN00000000020220201000040000NNE   20220107152114    2H0H  00002000000000042000000093132M4    SISAI   004300270014
BI00B32M4    #TL2024B       202201277172-5632-10             DUMMY PLUG               CCN000060000000060000FN00000000020220201000060000NNE   20220107152114    2H0H  00002000000000080400000131832M4    SISAI   004300270014
BI00B32M4    #TL2025C       202202037172-5632-10             DUMMY PLUG               CCN000040000000040000FN00000000020220201000040000NNE   20220107152114    2H0H  00002000000000080400000131832M4    SISAI   004300270014
BI00B32M4    #TL2024B       202201277172-5627-60             RUBBER STOPPER           CCN000040000000040000FN00000000020220201000040000NNE   20220107152114    2H0H  00002000000000070400000121832M4    SISAI   004300270014
BI00B32M4    #TL2024B       202201277282-7040-10             HOUSING MALE ASS'Y       CCN000002400000002400FN00000000020220201000002400NNE   20220107152114    2N0N  00000120000000620400000731932M4    SISAI   005400370024
BI00B32M4    #TL2025C       202202037282-7040-10             HOUSING MALE ASS'Y       CCN000001200000001200FN00000000020220201000001200NNE   20220107152114    2N0N  00000120000000620400000731932M4    SISAI   005400370024
BI00B32M4    #TL2024B       202201277287-1670                HOUSING FEMALE ASS'Y     CCN000005600000005600FN00000000020220201000005600NNE   20220107152114    2N0N  00000280000000953100001145132M4    SISAI   005400370024
BI00B32M4    #TL2025C       202202037287-1670                HOUSING FEMALE ASS'Y     CCN000002800000002800FN00000000020220201000002800NNE   20220107152114    2N0N  00000280000000953100001145132M4    SISAI   005400370024
BI00B32M4    #TL2024B       202201277287-1671                HOUSING FEMALE ASS'Y     CCN000006000000006000FN00000000020220201000006000NNE   20220107152114    2N0N  00000200000000782600000974632M4    SISAI   005400370024
BI00B32M4    #TL2025C       202202037287-1671                HOUSING FEMALE ASS'Y     CCN000004000000004000FN00000000020220201000004000NNE   20220107152114    2N0N  00000200000000782600000974632M4    SISAI   005400370024
BI00B32M4    #TL2024B       202201277189-3038                HOUSING FEMALE           CCN000001600000001600FN00000000020220201000001600NNE   20220107152114    2F0F  00000160000000817600000850132M4    SISAI   005500360039
BI00B32M4    #TL2024B       202201277158-3003-90             RUBBER STOPPER           CCN000080000000080000FN00000000020220201000080000NNE   20220107152114    2C0C  00002000000000250000000306032M4    SISAI   002700430014
BI00B32M4    #TL2025C       202202037158-3003-90             RUBBER STOPPER           CCN000040000000040000FN00000000020220201000040000NNE   20220107152114    2C0C  00002000000000250000000306032M4    SISAI   002700430014
BI00B32M4    #TL2024B       202201277154-5597-30             CASSETTE R/B             CCN000001600000001600FN00000000020220201000001600NNE   20220107152114    2F0F  00000080000000736000000952032M4    SISAI   005500360039
BI00B32M4    #TL2024B       202201277189-3036                HOUSING FEMALE           CCN000009600000009600FN00000000020220201000009600NNE   20220107152114    2F0F  00000160000000921600001141632M4    SISAI   005500360039
BI00B32M4    #TL2025C       202202037189-3036                HOUSING FEMALE           CCN000004800000004800FN00000000020220201000004800NNE   20220107152114    2F0F  00000160000000921600001141632M4    SISAI   005500360039
BI00B32M4    #TL2024B       202201277183-1616                CONNECTOR HOUSING        CCN000007200000007200FN00000000020220201000007200NNE   20220107152114    2F0F  00000240000000557500000823332M4    SISAI   005500360039
BI00B32M4    #TL2025C       202202037183-1616                CONNECTOR HOUSING        CCN000002400000002400FN00000000020220201000002400NNE   20220107152114    2F0F  00000240000000557500000823332M4    SISAI   005500360039
BI00B32M4    #TL2024B       202201277189-2978-30             HOUSING FEMALE           CCN000013500000013500FN00000000020220201000013500NNE   20220107152114    2F0F  00000150000000966900001096932M4    SISAI   005400370024
BI00B32M4    #TL2025C       202202037189-2978-30             HOUSING FEMALE           CCN000007500000007500FN00000000020220201000007500NNE   20220107152114    2F0F  00000150000000966900001096932M4    SISAI   005400370024
BI00B32M4    #TL2024B       202201277289-2919                HOUSING FEMALE ASS'Y     CCN000001500000001500FN00000000020220201000001500NNE   20220107152114    2N0N  00000150000000910500001037532M4    SISAI   005400370024
BI00B32M4    TP2024D        202201277114-4021                TERMINAL                 CCN000015000000015000FN00000000020220201000015000NNE   20220107152221    4P0P  00001500000000670500000964132M4    SISAI   006400630015
BI00B32M4    TP2024D        202201277114-4231-02             TERMINAL                 CCN000018000000018000FN00000000020220201000018000NNE   20220107152221    4P0P  00001800000000554400000848032M4    SISAI   006400630015
BI00B32M4    TP2024D        202201277114-4486-02             TERMINAL                 CCN000024000000024000FN00000000020220201000024000NNE   20220107152221    4P0P  00002400000000662400000956032M4    SISAI   006400630015
BI00B32M4    TP2024D        202201277114-4624-02             TERMINAL                 CCN000024000000024000FN00000000020220201000024000NNE   20220107152221    4P0P  00002400000000895200001188832M4    SISAI   006400630015
BI00B32M4    TP2024D        202201277114-4728-02             TERMINAL                 CCN000090000000090000FN00000000020220201000090000NNE   20220107152221    4P0P  00003000000000510000000804232M4    SISAI   006400630015
BI00B32M4    TP2025E        202202037114-4728-02             TERMINAL                 CCN000060000000060000FN00000000020220201000060000NNE   20220107152221    4P0P  00003000000000510000000804232M4    SISAI   006400630015
BI00B32M4    TP2024D        202201277114-4729-02             TERMINAL                 CCN000090000000090000FN00000000020220201000090000NNE   20220107152221    4P0P  00003000000000516000000810232M4    SISAI   006400630015
BI00B32M4    TP2025E        202202037114-4729-02             TERMINAL                 CCN000060000000060000FN00000000020220201000060000NNE   20220107152221    4P0P  00003000000000516000000810232M4    SISAI   006400630015
BI00B32M4    TP2024D        202201277114-5746-02             TERMINAL                 CCN000021000000021000FN00000000020220201000021000NNE   20220107152221    4P0P  00002100000000695100000988732M4    SISAI   006400630015
BI00B32M4    TP2024D        202201277114-5747-02             TERMINAL                 CCN000018000000018000FN00000000020220201000018000NNE   20220107152221    4P0P  00001800000000626400000920032M4    SISAI   006400630015
BI00B32M4    TP2024D        202201277116-1685-02             TERMINAL                 CCN000072000000072000FN00000000020220201000072000NNE   20220107152221    4P0P  00002400000000897600001065232M4    SISAI   005100280028
BI00B32M4    TP2025E        202202037116-1685-02             TERMINAL                 CCN000048000000048000FN00000000020220201000048000NNE   20220107152221    4P0P  00002400000000897600001065232M4    SISAI   005100280028
BI00B32M4    TP2024D        202201277116-1686-02             TERMINAL                 CCN000021000000021000FN00000000020220201000021000NNE   20220107152221    4P0P  00002100000000869400001021632M4    SISAI   005100280028
BI00B32M4    TP2024D        202201277116-4025                TERMINAL                 CCN000016000000016000FN00000000020220201000016000NNE   20220107152221    4P0P  00001600000000644800000975132M4    SISAI   006400630017
BI00B32M4    TP2024D        202201277116-4032                TERMINAL                 CCN000018000000018000FN00000000020220201000018000NNE   20220107152221    4P0P  00000600000000532800000818032M4    SISAI   006400630015
BI00B32M4    TP2025E        202202037116-4032                TERMINAL                 CCN000006000000006000FN00000000020220201000006000NNE   20220107152221    4P0P  00000600000000532800000818032M4    SISAI   006400630015
BI00B32M4    TP2024D        202201277116-4037                TERMINAL                 CCN000018000000018000FN00000000020220201000018000NNE   20220107152221    4P0P  00000600000000600000000894232M4    SISAI   006400630015
BI00B32M4    TP2025E        202202037116-4037                TERMINAL                 CCN000012000000012000FN00000000020220201000012000NNE   20220107152221    4P0P  00000600000000600000000894232M4    SISAI   006400630015
BI00B32M4    TP2024D        202201277116-4231-02             TERMINAL                 CCN000156000000156000FN00000000020220201000156000NNE   20220107152221    4P0P  00002600000000683800001012532M4    SISAI   006400630017
BI00B32M4    TP2025E        202202037116-4231-02             TERMINAL                 CCN000078000000078000FN00000000020220201000078000NNE   20220107152221    4P0P  00002600000000683800001012532M4    SISAI   006400630017
BI00B32M4    TP2024D        202201277116-4486-02             TERMINAL                 CCN000028000000028000FN00000000020220201000028000NNE   20220107152221    4P0P  00002800000000666400000995132M4    SISAI   006400630017
BI00B32M4    TP2024D        202201277116-5041-02             TERMINAL                 CCN000045000000045000FN00000000020220201000045000NNE   20220107152221    4P0P  00001500000000583500000868732M4    SISAI   006400630015
BI00B32M4    TP2025E        202202037116-5041-02             TERMINAL                 CCN000015000000015000FN00000000020220201000015000NNE   20220107152221    4P0P  00001500000000583500000868732M4    SISAI   006400630015
BI00B32M4    TP2024D        202201277116-5044-02             TERMINAL                 CCN000224000000224000FN00000000020220201000224000NNE   20220107152221    4P0P  00001600000000641600000986332M4    SISAI   006400630017
BI00B32M4    TP2025E        202202037116-5044-02             TERMINAL                 CCN000128000000128000FN00000000020220201000128000NNE   20220107152221    4P0P  00001600000000641600000986332M4    SISAI   006400630017
BI00B32M4    TP2024D        202201277116-5045-02             TERMINAL                 CCN000064000000064000FN00000000020220201000064000NNE   20220107152221    4P0P  00001600000000678400001007132M4    SISAI   006400630017
BI00B32M4    TP2025E        202202037116-5045-02             TERMINAL                 CCN000032000000032000FN00000000020220201000032000NNE   20220107152221    4P0P  00001600000000678400001007132M4    SISAI   006400630017
BI00B32M4    TP2024D        202201277116-5046-02             TERMINAL                 CCN000060000000060000FN00000000020220201000060000NNE   20220107152221    4P0P  00001200000000544800000873532M4    SISAI   006400630017
BI00B32M4    TP2025E        202202037116-5046-02             TERMINAL                 CCN000036000000036000FN00000000020220201000036000NNE   20220107152221    4P0P  00001200000000544800000873532M4    SISAI   006400630017
BI00B32M4    TP2024D        202201277116-6042                TERMINAL                 CCN000018000000018000FN00000000020220201000018000NNE   20220107152221    4P0P  00000300000000523800000856132M4    SISAI   006400630015
BI00B32M4    TP2025E        202202037116-6042                TERMINAL                 CCN000012000000012000FN00000000020220201000012000NNE   20220107152221    4P0P  00000300000000523800000856132M4    SISAI   006400630015
BI00B32M4    TP2024D        202201277158-3006-90             RUBBER STOPPER           CCN000180000000180000FN00000000020220201000180000NNE   20220107152221    1C0C  00002000000000330600000386032M4    SISAI   002700430014
BI00B32M4    TP2025E        202202037158-3006-90             RUBBER STOPPER           CCN000100000000100000FN00000000020220201000100000NNE   20220107152221    1C0C  00002000000000330600000386032M4    SISAI   002700430014
BI00B32M4    TP2024D        202201277158-3070-80             RUBBER STOPPER           CCN000080000000080000FN00000000020220201000080000NNE   20220107152221    1C0C  00004000000000276000000333332M4    SISAI   002700430014
BI00B32M4    TP2024D        202201277283-1288                CONNECTOR HOUSING        CCN000002400000002400FN00000000020220201000002400NNE   20220107152221    4N0N  00000120000001381000001637032M4    SISAI   005600390040
BI00B32M4    TP2025E        202202037283-1288                CONNECTOR HOUSING        CCN000001200000001200FN00000000020220201000001200NNE   20220107152221    4N0N  00000120000001381000001637032M4    SISAI   005600390040
BI00B32M4    TP2024D        202201277283-1927-30             CONNECTOR                CCN000004000000004000FN00000000020220201000004000NNE   20220107152221    4N0N  00000200000001190000001368032M4    SISAI   005500360039
BI00B32M4    TP2024D        202201277283-7029-40             CONNECTOR                CCN000006000000006000FN00000000020220201000006000NNE   20220107152221    1N0N  00000600000001026000001200032M4    SISAI   005600390023
BI00B32M4    TP2024D        202201277283-8692                CONNECTOR HOUSING        CCN000001500000001500FN00000000020220201000001500NNE   20220107152221    1N0N  00000150000000795000001012032M4    SISAI   005600390040
BI00B32M4    TP2024D        202201277116-5750-02             TERMINAL                 CCN000045000000045000FN00000000020220201000045000NNE   20220107152221    4P0P  00001500000000457500000742732M4    SISAI   006400630015
BI00B32M4    TP2025E        202202037116-5750-02             TERMINAL                 CCN000015000000015000FN00000000020220201000015000NNE   20220107152221    4P0P  00001500000000457500000742732M4    SISAI   006400630015
BI00B32M4    TP2024D        202201277116-5751-02             TERMINAL                 CCN000096000000096000FN00000000020220201000096000NNE   20220107152221    4P0P  00001200000000379200000664432M4    SISAI   006400630015
BI00B32M4    TP2025E        202202037116-5751-02             TERMINAL                 CCN000048000000048000FN00000000020220201000048000NNE   20220107152221    4P0P  00001200000000379200000664432M4    SISAI   006400630015
BI00B32M4    TP2024D        202201277287-1915                CONNECTOR ASS'Y          CCN000002400000002400FN00000000020220201000002400NNE   20220107152221    4N0N  00000240000000666500000923132M4    SISAI   005500360039
BI00B32M4    TP2024D        202201277126-8853-02             TERMINAL                 CCN000082500000082500FN00000000020220201000082500NNE   20220107152221    4P0P  00000750000000562500000847732M4    SISAI   006400630015
BI00B32M4    TP2025E        202202037126-8853-02             TERMINAL                 CCN000045000000045000FN00000000020220201000045000NNE   20220107152221    4P0P  00000750000000562500000847732M4    SISAI   006400630015
BI00B32M4    TP2024D        202201277126-8854-02             TERMINAL                 CCN000112500000112500FN00000000020220201000112500NNE   20220107152221    4P0P  00000750000000604500000889732M4    SISAI   006400630015
BI00B32M4    TP2025E        202202037126-8854-02             TERMINAL                 CCN000067500000067500FN00000000020220201000067500NNE   20220107152221    4P0P  00000750000000604500000889732M4    SISAI   006400630015
BI00B32M4    TP2024D        202201277126-8855-02             TERMINAL                 CCN000162000000162000FN00000000020220201000162000NNE   20220107152221    4P0P  00000600000000510600000795832M4    SISAI   006400630015
BI00B32M4    TP2025E        202202037126-8855-02             TERMINAL                 CCN000102000000102000FN00000000020220201000102000NNE   20220107152221    4P0P  00000600000000510600000795832M4    SISAI   006400630015
BI00B32M4    TP2024D        202201277288-3338-30             HOUSING MALE             CCN000003000000003000FN00000000020220201000003000NNE   20220107152221    4N0N  00000150000000866100001012032M4    SISAI   005400370024
BI00B32M4    TP2024D        202201277289-3342-30             HOUSING FEMALE ASS'Y     CCN000012000000012000FN00000000020220201000012000NNE   20220107152221    1N0N  00000240000000686400000901432M4    SISAI   005500360039
BI00B32M4    TP2025E        202202037289-3342-30             HOUSING FEMALE ASS'Y     CCN000007200000007200FN00000000020220201000007200NNE   20220107152221    1N0N  00000240000000686400000901432M4    SISAI   005500360039
BI00B32M4    TP2024D        202201277158-3009-60             RUBBER STOPPER           CCN000240000000240000FN00000000020220201000240000NNE   20220107152221    1C0C  00002000000000338000000386232M4    SISAI   002700430014
BI00B32M4    TP2025E        202202037158-3009-60             RUBBER STOPPER           CCN000160000000160000FN00000000020220201000160000NNE   20220107152221    1C0C  00002000000000338000000386232M4    SISAI   002700430014
BI00B32M4    TP2024D        202201277282-4577                HOUSING MALE ASS'Y       CCN000007200000007200FN00000000020220201000007200NNE   20220107152221    4N0N  00000240000000964800001174832M4    SISAI   005500360039
BI00B32M4    TP2025E        202202037282-4577                HOUSING MALE ASS'Y       CCN000004800000004800FN00000000020220201000004800NNE   20220107152221    4N0N  00000240000000964800001174832M4    SISAI   005500360039
BI00B32M4    TP2024D        202201277288-3340-30             HOUSING MALE             CCN000021000000021000FN00000000020220201000021000NNE   20220107152221    4N0N  00000150000000861500001006432M4    SISAI   005400370024
BI00B32M4    TP2025E        202202037288-3340-30             HOUSING MALE             CCN000013500000013500FN00000000020220201000013500NNE   20220107152221    4N0N  00000150000000861500001006432M4    SISAI   005400370024
BI00B32M4    TP2024D        202201277287-9000                HOUSING FEMALE ASS'Y     CCN000004800000004800FN00000000020220201000004800NNE   20220107152221    1N0N  00000480000001228800001448832M4    SISAI   005500360039
BI00B32M4    TP2024D        202201277388-2978-30             HOUSING MALE ASS'Y       CCN000013440000013440FN00000000020220201000013440NNE   20220107152221    1N0N  00000048000000742000001122032M4    SISAI   005500360039
BI00B32M4    TP2025E        202202037388-2978-30             HOUSING MALE ASS'Y       CCN000008640000008640FN00000000020220201000008640NNE   20220107152221    1N0N  00000048000000742000001122032M4    SISAI   005500360039
BI00B32M4    TP2024D        202201277116-5752-02             TERMINAL                 CCN000042000000042000FN00000000020220201000042000NNE   20220107152221    4P0P  00002100000000571200000856432M4    SISAI   006400630015
BI00B32M4    TP2025E        202202037116-5752-02             TERMINAL                 CCN000021000000021000FN00000000020220201000021000NNE   20220107152221    4P0P  00002100000000571200000856432M4    SISAI   006400630015
BI00B32M4    TP2024D        202201277196-0396-02             TERMINAL                 CCN000015000000015000FN00000000020220201000015000NNE   20220107152221    4P0P  00001500000000949500001112932M4    SISAI   002800510028
BI00B32M4    TP2024D        202201277382-1481-10             CONNECTOR                CCN000001600000001600FN00000000020220201000001600NNE   20220107152221    4N0N  00000080000001025000001183032M4    SISAI   005600390040
BI00B32M4    TP2025E        202202037382-1481-10             CONNECTOR                CCN000000800000000800FN00000000020220201000000800NNE   20220107152221    4N0N  00000080000001025000001183032M4    SISAI   005600390040
BI00B32M4    TP2024D        202201277289-3342                HOUSING FEMALE ASS'Y     CCN000004800000004800FN00000000020220201000004800NNE   20220107152221    1N0N  00000240000000686400000901432M4    SISAI   005500360039
BI00B32M4    TP2025E        202202037289-3342                HOUSING FEMALE ASS'Y     CCN000002400000002400FN00000000020220201000002400NNE   20220107152221    1N0N  00000240000000686400000901432M4    SISAI   005500360039
BI00B32M4    TP2024D        202201277116-2891-02             TERMINAL                 CCN000105000000105000FN00000000020220201000105000NNE   20220107152221    4P0P  00001500000000982500001145932M4    SISAI   005100280028
BI00B32M4    TP2025E        202202037116-2891-02             TERMINAL                 CCN000060000000060000FN00000000020220201000060000NNE   20220107152221    4P0P  00001500000000982500001145932M4    SISAI   005100280028
BI00B32M4    TP2024D        202201277116-2892-02             TERMINAL                 CCN000048000000048000FN00000000020220201000048000NNE   20220107152221    4P0P  00001200000000818400000981832M4    SISAI   005100280028
BI00B32M4    TP2025E        202202037116-2892-02             TERMINAL                 CCN000024000000024000FN00000000020220201000024000NNE   20220107152221    4P0P  00001200000000818400000981832M4    SISAI   005100280028
BI00B32M4    TP2024D        202201277116-2893-02             TERMINAL                 CCN000144000000144000FN00000000020220201000144000NNE   20220107152221    4P0P  00001200000000895200001058632M4    SISAI   005100280028
BI00B32M4    TP2025E        202202037116-2893-02             TERMINAL                 CCN000096000000096000FN00000000020220201000096000NNE   20220107152221    4P0P  00001200000000895200001058632M4    SISAI   005100280028
BI00B32M4    TP2024D        202201277287-3885-30             HYBRID FEMALE ASS'Y      CCN000002400000002400FN00000000020220201000002400NNE   20220107152221    1N0N  00000240000001029600001249632M4    SISAI   005500360039
BI00B32M4    TP2024D        202201277116-4028-08             TERMINAL FEMALE          CCN000064000000064000FN00000000020220201000064000NNE   20220107152221    4P0P  00001600000000652800000981532M4    SISAI   006400630017
BI00B32M4    TP2025E        202202037116-4028-08             TERMINAL FEMALE          CCN000032000000032000FN00000000020220201000032000NNE   20220107152221    4P0P  00001600000000652800000981532M4    SISAI   006400630017
BI00B32M4    TP2024D        202201277196-1102-02             TERMINAL                 CCN000022500000022500FN00000000020220201000022500NNE   20220107152221    4P0P  00002250000000405000000690232M4    SISAI   006400630015
BI00B32M4    TP2024D        202201277196-1103-02             TERMINAL                 CCN000022500000022500FN00000000020220201000022500NNE   20220107152221    4P0P  00002250000000429800000715032M4    SISAI   006400630015
BI00B32M4    TP2024D        202201277196-1104-02             TERMINAL                 CCN000045000000045000FN00000000020220201000045000NNE   20220107152221    4P0P  00002250000000441000000726232M4    SISAI   006400630015
BI00B32M4    TP2024D        202201277116-5043-02             TERMINAL FEMALE          CCN000048000000048000FN00000000020220201000048000NNE   20220107152221    4P0P  00001200000000559200000844432M4    SISAI   006400630015
BI00B32M4    TP2025E        202202037116-5043-02             TERMINAL FEMALE          CCN000024000000024000FN00000000020220201000024000NNE   20220107152221    4P0P  00001200000000559200000844432M4    SISAI   006400630015
BI00B32M4    TP2024D        202201277327-6627-3W             BATTERY FUSE             CCN000000480000000480FN00000000020220201000000480NNE   20220107152221    4N0N  00000009600001332300001534632M4    SISAI   005500360039
BI00B32M4    TP2025E        202202037327-6627-3W             BATTERY FUSE             CCN000000192000000192FN00000000020220201000000192NNE   20220107152221    4N0N  00000009600001332300001534632M4    SISAI   005500360039
BI00B32M4    TP2024D        202201277196-0805-02             TERMINAL FEMALE          CCN000022500000022500FN00000000020220201000022500NNE   20220107152221    4P0P  00002250000000558000000843232M4    SISAI   006400630015
BI00B32M4    TP2024D        202201277116-3153-02             TERMINAL FEMALE          CCN000729000000729000FN00000000020220201000729000NNE   20220107152221    4P0P  00002700000000459000000744232M4    SISAI   006400630015
BI00B32M4    TP2025E        202202037116-3153-02             TERMINAL FEMALE          CCN000459000000459000FN00000000020220201000459000NNE   20220107152221    4P0P  00002700000000459000000744232M4    SISAI   006400630015
BI00B32M4    TP2024D        202201277116-3154-02             TERMINAL FEMALE          CCN000459000000459000FN00000000020220201000459000NNE   20220107152221    4P0P  00002700000000469800000755032M4    SISAI   006400630015
BI00B32M4    TP2025E        202202037116-3154-02             TERMINAL FEMALE          CCN000297000000297000FN00000000020220201000297000NNE   20220107152221    4P0P  00002700000000469800000755032M4    SISAI   006400630015
BI00B32M4    TP2024D        202201277288-3336-30             HOUSING MALE             CCN000006000000006000FN00000000020220201000006000NNE   20220107152221    4N0N  00000150000000867000001012032M4    SISAI   005400370024
BI00B32M4    TP2025E        202202037288-3336-30             HOUSING MALE             CCN000003000000003000FN00000000020220201000003000NNE   20220107152221    4N0N  00000150000000867000001012032M4    SISAI   005400370024
BI00B32M4    TP2024D        202201277287-8072                HOUSING FEMALE ASS'Y     CCN000004800000004800FN00000000020220201000004800NNE   20220107152221    1N0N  00000240000001221600001441632M4    SISAI   005500360039
BI00B32M4    TP2025E        202202037287-8072                HOUSING FEMALE ASS'Y     CCN000002400000002400FN00000000020220201000002400NNE   20220107152221    1N0N  00000240000001221600001441632M4    SISAI   005500360039
BI00B32M4    TP2024D        202201277283-4855                CONNECTOR HOUSING        CCN000002400000002400FN00000000020220201000002400NNE   20220107152221    4N0N  00000240000001188400001400032M4    SISAI   005500360039
BI00B32M4    TP2024D        202201277283-1289-40             CONNECTOR HOUSING        CCN000001800000001800FN00000000020220201000001800NNE   20220107152221    1N0N  00000060000000679800000824832M4    SISAI   005400370024
BI00B32M4    TP2025E        202202037283-1289-40             CONNECTOR HOUSING        CCN000001200000001200FN00000000020220201000001200NNE   20220107152221    1N0N  00000060000000679800000824832M4    SISAI   005400370024
BI00B32M4    TP2024D        202201277289-3342-90             HOUSING FEMALE ASS'Y     CCN000004800000004800FN00000000020220201000004800NNE   20220107152221    1N0N  00000240000000686400000901432M4    SISAI   005500360039
BI00B32M4    TP2025E        202202037289-3342-90             HOUSING FEMALE ASS'Y     CCN000002400000002400FN00000000020220201000002400NNE   20220107152221    1N0N  00000240000000686400000901432M4    SISAI   005500360039
BI00B32M4    @TP2024D       202201277282-1025                HOUSING SUB ASSEMBLY     CCN000002400000002400FN00000000020220201000002400NNE   20220107152218    3N0N  00000240000001143800001390032M4    SISAI   005500360039
BI00B32M4    @TP2024D       202201277283-7443-30             HOUSING SUB ASSEMBLY     CCN000004800000004800FN00000000020220201000004800NNE   20220107152218    3N0N  00000240000000683700000908032M4    SISAI   005500360039
BI00B32M4    @TP2024D       202201277187-1769-30             HOUSING FEMALE           CCN000002000000002000FN00000000020220201000002000NNE   20220107152218    3F0F  00000200000001032600001179032M4    SISAI   005500360039
BI00B32N1    #NST2113A 2    202201127282-4190-30             CONNECTOR                CCN000008400000006000FN00000000020220101000006000NNMQ0020220107134047    2N0N  00000024000000801000001071332N1    TAYIPL  005600390040
BI00B32N1    #NST2114A 3    202201137282-4190-30             CONNECTOR                CCN000043200000043200FN00000000020220201000043200NNMD0720220107152852    2N0N  00000024000000801000001071332N1    TAYIPL  005600390040
BI00B32N1    NST2115FCU     202201277158-3070-80             RUBBER STOPPER           CCN002800000002800000FN00000000020220201002800000NNMD0120220107122054    2C0C  00004000000000276000000333332N1    TAYIPL  002700430014
BI00B32N1    NST2115GCU     202202107158-3006-90             RUBBER STOPPER           CCN000240000000240000FN00000000020220201000240000NNED0420220107122054    1C0C  00002000000000330600000386032N1    TAYIPL  002700430014
BI00B32N1    NST2115GCU     202202107158-3166-60             WIRE SEAL                CCN001040000001040000FN00000000020220201001040000NNED0420220107122054    1C0C  00004000000000104000000152432N1    TAYIPL  002700430014
BI00A32N1    #NST2113A 2    202201107282-4190-30             CONNECTOR                CCN000002400000002400FN00000000020220101000002400NNMM0020220107140413    2N0N  00000024000000801000001071332N1    TAYIPL  005600390040
BI00B32N2    2152103754     202202037114-4020                TERMINAL                 CCN000441000000441000FN00000000020220301000441000NNM   20220107151916    4P0P  00002100000000875700001169332N2    YWYIPLTC006400630015
BI00B32N2    2152103755     202202107114-4020                TERMINAL                 CCN000063000000063000FN00000000020220301000063000NNM   20220107151916    4P0P  00002100000000875700001169332N2    YWYIPLTC006400630015
