BI00A1200    #2399T51730    202112097289-4200-30             HOUSING FEMALE ASS'Y     PCN000088000000082000FY00008200020210901000000000NNM00020211211153557    2N0N  0000020000000092600000102101200    YCYC    005400370024
BI00B1200    2399T51923     202112167289-3342-30             HOUSING FEMALE ASS'Y     CCN000004800000004800FN00000000020211101000004800NNM00020211211152517    1N0N  0000024000000068640000090141200    YCYC    005500360039
BI00A1200    #2399T51730    202112217289-4200-30             HOUSING FEMALE ASS'Y     PCN000006000000006000FN00000000020210901000006000NNM00020211211153557    2N0N  0000020000000092600000102101200    YCYC    005400370024
BI00B32AF    JTB1123        202112177289-3342-30             HOUSING FEMALE ASS'Y     CCN000016800000016800FN00000000020211201000016800NNM00020211211152652    1N0N  00000240000000686400000901432AF    HBYHVTB 005500360039
BI00B32A7    ZZ21124BMW     202112227172-5403-30             SEALED PACKING           CCN000032000000032000FN00000000020211201000032000NNM00020211211123528    1C0C  00000400000000653600000701732A7    ZZZZY   004300270014
BI00B32CH    SJ21112HMW     202112167327-6884-30             MULTI FUSE               CCN000004320000004320FN00000000020211101000004320NNM00020211211152347    4N0N  00000028800000988900001154832CH    SJSAMIJF005400370024
BI00A32CH    #SJ21115HMW    202112177298-2459-60             LIF FEMALE ASSEMBLY      PCN000010584000010584FN00000000020211101000010584NNM00020211211135712    2N0N  00000016800000534000000729632CH    SJSAMIJF005400370024
BI00A32CH    #SJ21123HMW    202112227298-2459-60             LIF FEMALE ASSEMBLY      PCN000002856000002856FN00000000020211201000002856NNM00020211211135800    2N0N  00000016800000534000000729632CH    SJSAMIJF005400370024
BI00A32CJ    JQN1121        202112147288-6547                CONNECTOR MALE ASS'Y     PCN000000750000001500FN00000000020211201000001500NNM00020211211151610    4N0N  00000075000001205300001340332CJ    QNYHVQN 005400370024
BI00B32CJ    JQN1121        202111297288-6547                CONNECTOR MALE ASS'Y     CCN000000750000000000FY00000000020211201000000000NNM00020211211124031    4N0N  00000075000001205300001340332CJ    QNYHVQN 005400370024
BI00A32DE    TCT1124        202112247288-6547                CONNECTOR MALE ASS'Y     PCN000011250000003750FN00000000020211201000003750NNM00020211211083606    4N0N  00000075000001205300001340332DE    TVYEV-TV005400370024
BI00A32DE    TCT1123        202112207289-3342-30             HOUSING FEMALE ASS'Y     PCN000074400000036000FN00000000020211201000036000NNM00020211211083408    1N0N  00000240000000686400000901432DE    TVYEV-TV005500360039
BI00A32DE    TCT1124        202201057288-6547                CONNECTOR MALE ASS'Y     PCN000011250000003750FN00000000020211201000003750NNM00020211211083606    4N0N  00000075000001205300001340332DE    TVYEV-TV005400370024
BI00B32DE    TCT1123        202112177289-3342-30             HOUSING FEMALE ASS'Y     CCN000038400000038400FN00000000020211201000038400NNM00020211211083408    1N0N  00000240000000686400000901432DE    TVYEV-TV005500360039
BI00B32D1    DFTC2144       202112167289-3342-30             HOUSING FEMALE ASS'Y     CCN000084000000084000FN00000000020211001000084000NNM00020211211125747    1N0N  00000240000000686400000901432D1    TOYOT-K 005500360039
BI00A32D1    DFTC2145       202112157289-3342-30             HOUSING FEMALE ASS'Y     PCN000088800000088800FN00000000020211101000088800NNM00020211211151439    1N0N  00000240000000686400000901432D1    TOYOT-K 005500360039
BI00A32D1    DFTC2152       202201057289-3342-30             HOUSING FEMALE ASS'Y     PCN000139200000139200FN00000000020211201000139200NNM00020211211130015    1N0N  00000240000000686400000901432D1    TOYOT-K 005500360039
BI00A32D1    DFTC2202       202112207288-6547                CONNECTOR MALE ASS'Y     PCN000019500000019500FN00000000020220101000019500NNM00020211211125152    4N0N  00000075000001205300001340332D1    TOYOT-K 005400370024
BI00A32D1    DFTC2202       202112177289-3342-30             HOUSING FEMALE ASS'Y     PCN000182400000060000FN00000000020220101000060000NNM00020211211125442    1N0N  00000240000000686400000901432D1    TOYOT-K 005500360039
BI00A32D1    #DFTC2202      202112227172-5629-80             RUBBER STOPPER           PCN000320000000320000FN00000000020220101000320000NNM00020211211124213    2H0H  00002000000000060000000111132D1    TOYOT-K 004300270014
BI00A32D1    #DFTC2202      202201107172-5630-40             RUBBER STOPPER           PCN000080000000080000FN00000000020220101000080000NNM00020211211124431    2H0H  00002000000000044000000095132D1    TOYOT-K 004300270014
BI00A32D1    #DFTC2202      202112147289-4200-30             HOUSING FEMALE ASS'Y     PCN000008000000008000FN00000000020220101000008000NNM00020211211151355    2N0N  00000200000000926000001021032D1    TOYOT-K 005400370024
BI00A32D1    DFTC2202       202112247289-3342-30             HOUSING FEMALE ASS'Y     PCN000045600000060000FN00000000020220101000060000NNMQ0020211211125442    1N0N  00000240000000686400000901432D1    TOYOT-K 005500360039
BI00A32D1    DFTC2202       202112287289-3342-30             HOUSING FEMALE ASS'Y     PCN000045600000062400FN00000000020220101000062400NNMQ0020211211125442    1N0N  00000240000000686400000901432D1    TOYOT-K 005500360039
BI00A32D1    #DFTC2203      202112277172-5629-80             RUBBER STOPPER           PCN000260000000260000FN00000000020220101000260000NNM00020211211124222    2H0H  00002000000000060000000111132D1    TOYOT-K 004300270014
BI00A32D2    DGTC2152       202112217288-6547                CONNECTOR MALE ASS'Y     PCN000009750000005250FN00000000020211201000005250NNM00020211211121136    4N0N  00000075000001205300001340332D2    TGYOT-G 005400370024
BI00B32D2    DGTC2152       202112167289-3342                HOUSING FEMALE ASS'Y     CCN000033600000033600FN00000000020211201000033600NNMD0420211211130339    1N0N  00000240000000686400000901432D2    TGYOT-G 005500360039
BI00A32D2    DGTC2203       202112207288-6547                CONNECTOR MALE ASS'Y     PCN000003750000003750FN00000000020220101000003750NNM00020211211131301    4N0N  00000075000001205300001340332D2    TGYOT-G 005400370024
BI00A32D2    #DGTC2203      202112207172-5629-80             RUBBER STOPPER           PCN000220000000220000FN00000000020220101000220000NNM00020211211130202    2H0H  00002000000000060000000111132D2    TGYOT-G 004300270014
BI00A32G2    SA21113 MW     202112207283-4855                CONNECTOR HOUSING        PCN000016800000016800FN00000000020211101000016800NNMD0020211211142046    4N0N  00000240000001188400001400032G2    AISUAI  005500360039
BI00B32H0    TT2201AVMW     202112147288-6547                CONNECTOR MALE ASS'Y     CCN000006000000006000FN00000000020220101000006000NNED0020211211131901    4N0N  00000075000001205300001340332H0    TTTJY   005400370024
BI00A32H2    #TIJ1124       202112277172-5630-40             RUBBER STOPPER           PCN000060000000060000FN00000000020211201000060000NNM00020211211132233    2H0H  00002000000000044000000095132H2    HVYHV   004300270014
BI00A32H2    TIJ112E        202112157288-6547                CONNECTOR MALE ASS'Y     PCN000001500000001500FN00000000020211201000001500NNE00020211211132321    4N0N  00000075000001205300001340332H2    HVYHV   005400370024
BI00A32H2    #TIJ112K       202112277172-5629-80             RUBBER STOPPER           PCN000060000000060000FN00000000020211201000060000NNE00020211211132251    2H0H  00002000000000060000000111132H2    HVYHV   004300270014
BI00A32H2    TIJ2014        202112137158-3009-60             RUBBER STOPPER           PCN000300000000300000FN00000000020220101000300000NNM00020211211101639    1C0C  00002000000000338000000386232H2    HVYHV   002700430014
BI00B32H7    #FS21124DMW    202112227172-5629-80             RUBBER STOPPER           CCN000260000000260000FN00000000020211201000260000NNMD0020211211133933    2H0H  00002000000000060000000111132H7    FYFSY   004300270014
BI00A32H7    #FS21123DMW    202112177172-5630-40             RUBBER STOPPER           PCN000440000000440000FN00000000020211201000440000NNMM0020211211133515    2H0H  00002000000000044000000095132H7    FYFSY   004300270014
BI00A32H7    #FS21124DMW    202112227172-5630-40             RUBBER STOPPER           PCN000280000000280000FN00000000020211201000280000NNMM0020211211133933    2H0H  00002000000000044000000095132H7    FYFSY   004300270014
BI00A32H7    #FS21124DMW    202112227289-4200-30             HOUSING FEMALE ASS'Y     PCN000004000000004000FN00000000020211201000004000NNMM0020211211134016    2N0N  00000200000000926000001021032H7    FYFSY   005400370024
BI00A32H7    #FS22011DMW    202112147158-3007-10             RUBBER STOPPER           PCN000340000000340000FN00000000020220101000340000NNMM0020211211151220    2H0H  00002000000000308000000362732H7    FYFSY   002700430014
BI00A32H7    #FS22011DMW    202112207172-5629-80             RUBBER STOPPER           PCN000100000000100000FN00000000020220101000100000NNMM0020211211132827    2H0H  00002000000000060000000111132H7    FYFSY   004300270014
BI00A32H7    #FS22011DMW    202112177172-5630-40             RUBBER STOPPER           CCN000260000000260000FN00000000020220101000260000NNMM0020211211133724    2H0H  00002000000000044000000095132H7    FYFSY   004300270014
BI00A32H7    #FS22011DMW    202112157289-4200-30             HOUSING FEMALE ASS'Y     PCN000014000000014000FN00000000020220101000014000NNMM0020211211151315    2N0N  00000200000000926000001021032H7    FYFSY   005400370024
BI00A32M3    SM22011DMW     202112207172-5403-30             SEALED PACKING           PCN000064000000064000FN00000000020220101000064000NNM00020211211134721    1C0C  00000400000000653600000701732M3    SASAMI  004300270014
BI00A32M4    TP1124         202112147289-3342-30             HOUSING FEMALE ASS'Y     PCN000012000000012000FN00000000020211201000012000NNM00020211211151525    1N0N  00000240000000686400000901432M4    SISAI   005500360039
BI00A32Q8    EU21112TMW     202111267289-3342-30             HOUSING FEMALE ASS'Y     PCN000004800000004800FN00000480020211101000000000NNMM0020211211142812    1N0N  00000240000000686400000901432Q8    EMEMI   005500360039
BI00A32Q8    #EU21124 MW    202112277158-3007-10             RUBBER STOPPER           PCN000460000000460000FN00000000020211201000460000NNM00020211211135449    2H0H  00002000000000308000000362732Q8    EMEMI   002700430014
BI00A32W6    SW21113QMW     202112207327-6874-30             MULTI FUSE               PCN000006624000006624FN00000000020211101000006624NNM00020211211140200    4N0N  00000028800000991400001157332W6    SYSYA-WJ005400370024
BI00A32W6    SW21113QMW     202112207327-6880-30             MULTI FUSE               PCN000006336000006336FN00000000020211101000006336NNM00020211211140200    4N0N  00000028800001012600001178532W6    SYSYA-WJ005400370024
BI00A32W6    SW21113QMW     202112207327-6884-30             MULTI FUSE               PCN000006336000006336FN00000000020211101000006336NNM00020211211140223    4N0N  00000028800000988900001154832W6    SYSYA-WJ005400370024
BI00A32W6    SW21122QMW     202112207288-6547                CONNECTOR MALE ASS'Y     PCN000006750000006750FN00000000020211201000006750NNM00020211211140254    4N0N  00000075000001205300001340332W6    SYSYA-WJ005400370024
BI00A32W6    SW21123QMW     202112227327-6870-30             MULTI FUSE               PCN000006624000006624FN00000000020211201000006624NNM00020211211140623    4N0N  00000028800001015200001181132W6    SYSYA-WJ005400370024
BI00A32W6    #SW2112CQMW    202112207298-2459-60             LIF FEMALE ASSEMBLY      PCN000008568000008568FN00000000020211201000008568NNEM0020211211135632    2N0N  00000016800000534000000729632W6    SYSYA-WJ005400370024
BI00B32W9    4500182070     202112217289-3342-30             HOUSING FEMALE ASS'Y     CCN000019200000019200FN00000000020211101000019200NNED0020211211141001W9  1N0N  00000240000000686400000901432W9    HKYHK   005500360039
BI00A32X5    TIB1046        202112207172-5403-30             SEALED PACKING           PCN000008000000008000FN00000000020220101000008000NNM00020211211144243X5  1C0C  00000400000000653600000701732X5    EPYNA-E 004300270014
BI00A32Y1    TA1122A        202201047289-3342-30             HOUSING FEMALE ASS'Y     PCN000016800000016800FN00000000020211201000016800NNMD0020211211093027    1N0N  00000240000000686400000901432Y1    YAYAS   005500360039
