BI00A32AG    XG2204ACMW     2022042518007704030              AVSS 0.75F B             CCN000001000000001000FN00000000020220401000001000NNE   20220421153101    1W    00000100000000943000000000032AG    XGXGY   000000000000XG324016
BI00A32AG    XG2204ACMW     2022042518007704130              AVSS 1.25F B             CCN000000800000000800FN00000000020220401000000800NNE   20220421153101    1W    00000080000001389000000000032AG    XGXGY   000000000000XG324017
BI00A32AG    XG2204AQMW     2022042518007703930              AVSS 0.5F B              CCN000006000000006000FN00000000020220401000006000NNE   20220421153101    1W    00000150000000674000000000032AG    XGXGY   000000000000XG324018
BI00A32AG    XG2204BLMW     2022042518007703730              AVSS 0.3F B              CCN000012000000012000FN00000000020220401000012000NNE   20220421153101    1W    00000200000000496000000000032AG    XGXGY   000000000000XG324019
BI00A32AG    XG2204BLMW     2022042518007703780              AVSS 0.3F BR             CCN000062000000062000FN00000000020220401000062000NNE   20220421153101    1W    00000200000000496000000000032AG    XGXGY   000000000000XG324020
BI00A32AG    XG2204BLMW     2022042518007703760              AVSS 0.3F G              CCN000034000000034000FN00000000020220401000034000NNE   20220421153101    1W    00000200000000496000000000032AG    XGXGY   000000000000XG324021
BI00A32AG    XG2204BLMW     2022042518007703741              AVSS 0.3F GY             CCN000052000000052000FN00000000020220401000052000NNE   20220421153101    1W    00000200000000496000000000032AG    XGXGY   000000000000XG324022
BI00A32AG    XG2204BLMW     2022042518007703790              AVSS 0.3F L              CCN000062000000062000FN00000000020220401000062000NNE   20220421153101    1W    00000200000000496000000000032AG    XGXGY   000000000000XG324023
BI00A32AG    XG2204BLMW     2022042518007703761              AVSS 0.3F LG             CCN000104000000104000FN00000000020220401000104000NNE   20220421153101    1W    00000200000000496000000000032AG    XGXGY   000000000000XG324024
BI00A32AG    XG2204BLMW     2022042518007703752              AVSS 0.3F P              CCN000048000000048000FN00000000020220401000048000NNE   20220421153101    1W    00000200000000496000000000032AG    XGXGY   000000000000XG324025
BI00A32AG    XG2204BLMW     2022042518007703750              AVSS 0.3F R              CCN000110000000110000FN00000000020220401000110000NNE   20220421153101    1W    00000200000000496000000000032AG    XGXGY   000000000000XG324026
BI00A32AG    XG2204BLMW     2022042518007703791              AVSS 0.3F SB             CCN000050000000050000FN00000000020220401000050000NNE   20220421153101    1W    00000200000000496000000000032AG    XGXGY   000000000000XG324027
BI00A32AG    XG2204BLMW     2022042518007703792              AVSS 0.3F V              CCN000024000000024000FN00000000020220401000024000NNE   20220421153101    1W    00000200000000496000000000032AG    XGXGY   000000000000XG324028
BI00A32AG    XG2204BLMW     2022042518007703740              AVSS 0.3F W              CCN000018000000018000FN00000000020220401000018000NNE   20220421153101    1W    00000200000000496000000000032AG    XGXGY   000000000000XG324029
BI00A32AG    XG2204BLMW     2022042518007703770              AVSS 0.3F Y              CCN000048000000048000FN00000000020220401000048000NNE   20220421153101    1W    00000200000000496000000000032AG    XGXGY   000000000000XG324030
BI00B32B6    W72027         202206021801W003943              IVSSH 0.5F W/B           CCN000001800000001800FN00000000020220801000001800NNE   20220421153852B6  1W    00000180000000625000000000032B6    AXARNE-M000000000000AW325013
BI00B32B6    W72027         202206021801W003952              IVSSH 0.5F P             CCN000009000000009000FN00000000020220801000009000NNE   20220421153852B6  1W    00000180000000625000000000032B6    AXARNE-M000000000000AW325011
BI00B32B6    W72027         202206021801W00395U              IVSSH 0.5F BE            CCN000010800000010800FN00000000020220801000010800NNE   20220421153852B6  1W    00000180000000625000000000032B6    AXARNE-M000000000000AW325009
BI00B32B6    W72027         202206021801W003960              IVSSH 0.5F G             CCN000018000000018000FN00000000020220801000018000NNE   20220421153852B6  1W    00000180000000625000000000032B6    AXARNE-M000000000000AW325010
BI00B32B6    W72027         202206021801W003991              IVSSH 0.5F SB            CCN000005400000005400FN00000000020220801000005400NNE   20220421153852B6  1W    00000180000000625000000000032B6    AXARNE-M000000000000AW325012
BI00B32B6    @W72027        20220602181B09039H7              CAVSAS 0.5X1 GY/W        CCN000000800000000800FN00000000020220801000000800NNE   20220421153852B6  1W    00000040000002263300000000032B6    AXARNE-M000000000000AW325008
BI00B32CJ    @TTQ205C       20220520181AD2007ZZ              CIVUSAS-S 0.5X1 B        CCN000001000000001000FN00000000020220501000001000NNE   20220421083024    1W    00000050000001639600000000032CJ    QNYHVQN 000000000000UL125001
BI00B32D1    DFTW2228       2022051918000004534              AV 8 B/W                 CCN000001900000001900FN00000000020220701000001900NNE   20220421090113    1W    00000010000010466200000000032D1    TOYOT-K 000000000000KO125052
BI00B32D1    DFTW2228       2022051918000004535              AV 8 B/R                 CCN000002300000002300FN00000000020220701000002300NNE   20220421090113    1W    00000010000010466200000000032D1    TOYOT-K 000000000000KO125051
BI00B32D1    DFTW2228       2022051918000004540              AV 8 W                   CCN000002600000002600FN00000000020220701000002600NNE   20220421090113    1W    00000010000010466200000000032D1    TOYOT-K 000000000000KO125054
BI00B32D1    DFTW2228       2022051918000004543              AV 8 W/B                 CCN000004300000004300FN00000000020220701000004300NNE   20220421090113    1W    00000010000010466200000000032D1    TOYOT-K 000000000000KO125055
BI00B32D1    DFTW2228       2022051918000004550              AV 8 R                   CCN000000300000000300FN00000000020220701000000300NNE   20220421090113    1W    00000010000010466200000000032D1    TOYOT-K 000000000000KO125053
BI00B32D1    @DFTW2228      20220519181AD2002ZZ              CIVUSAS-S 0.35X2 B       CCN000005400000005400FN00000000020220701000005400NNE   20220421090110    1W    00000045000001713700000000032D1    TOYOT-K 000000000000KO125024
BI00B32D1    @DFTW2228      20220519181AD2003ZZ              CIVUSAS-S 0.35X3 B       CCN000001400000001400FN00000000020220701000001400NNE   20220421090110    1W    00000035000002172100000000032D1    TOYOT-K 000000000000KO125025
BI00B32D1    @DFTW2228      20220519181AD2004ZZ              CIVUSAS-S 0.35X4 B       CCN000008700000008700FN00000000020220701000008700NNE   20220421090110    1W    00000030000002799900000000032D1    TOYOT-K 000000000000KO125026
BI00B32D1    @DFTW2228      20220519181E48031ZZ              CAVSAS-S 0.3X2 GY        CCN000002800000002800FN00000000020220701000002800NNE   20220421090110    1W    00000035000002008700000000032D1    TOYOT-K 000000000000KO125027
BI00B32D1    @DFTW2228      20220519181E48037ZZ              CAVSAS-S 0.3X4 GY        CCN000003000000003000FN00000000020220701000003000NNE   20220421090110    1W    00000025000003262000000000032D1    TOYOT-K 000000000000KO125029
BI00B32D1    @DFTW2228      20220519181E48041ZZ              CAVSAS-S 0.3X2 GY/R      CCN000003150000003150FN00000000020220701000003150NNE   20220421090110    1W    00000035000002008700000000032D1    TOYOT-K 000000000000KO125028
BI00B32D1    @DFTW2228      20220519181E50002ZZ              AVSSCS-S 0.3FX2 DGY/G    CCN000003850000003850FN00000000020220701000003850NNE   20220421090110    1W    00000035000002165000000000032D1    TOYOT-K 000000000000KO125035
BI00B32D1    @DFTW2228      20220519181E50004ZZ              AVSSCS-S 0.5FX1 DGY      CCN000003600000003600FN00000000020220701000003600NNE   20220421090110    1W    00000040000001909700000000032D1    TOYOT-K 000000000000KO125030
BI00B32D1    @DFTW2228      20220519181E50005ZZ              AVSSCS-S 0.5FX1 DGY/W    CCN000000800000000800FN00000000020220701000000800NNE   20220421090110    1W    00000040000001909700000000032D1    TOYOT-K 000000000000KO125033
BI00B32D1    @DFTW2228      20220519181E50007ZZ              AVSSCS-S 0.5FX1 DGY/L    CCN000001600000001600FN00000000020220701000001600NNE   20220421090110    1W    00000040000001909700000000032D1    TOYOT-K 000000000000KO125031
BI00B32D1    @DFTW2228      20220519181E50014ZZ              AVSSCS-S 0.5FX1 DGY/R    CCN000000400000000400FN00000000020220701000000400NNE   20220421090110    1W    00000040000001909700000000032D1    TOYOT-K 000000000000KO125032
BI00B32D1    @DFTW2228      20220519181E50020ZZ              AVSSCS-S 0.3FX2 DGY/R    CCN000002450000002450FN00000000020220701000002450NNE   20220421090110    1W    00000035000002165000000000032D1    TOYOT-K 000000000000KO125037
BI00B32D1    @DFTW2228      20220519181E50021ZZ              AVSSCS-S 0.3FX2 DGY/P    CCN000002450000002450FN00000000020220701000002450NNE   20220421090110    1W    00000035000002165000000000032D1    TOYOT-K 000000000000KO125036
BI00B32D1    @DFTW2228      20220519181E50036ZZ              AVSSCS-S 0.3FX2 DGY      CCN000002450000002450FN00000000020220701000002450NNE   20220421090110    1W    00000035000002165000000000032D1    TOYOT-K 000000000000KO125034
BI00B32D1    DFTW2229       2022052618000004534              AV 8 B/W                 CCN000002500000002500FN00000000020220701000002500NNE   20220421112943    1W    00000010000010466200000000032D1    TOYOT-K 000000000000KO225054
BI00B32D1    DFTW2229       2022052618000004535              AV 8 B/R                 CCN000004000000004000FN00000000020220701000004000NNE   20220421112943    1W    00000010000010466200000000032D1    TOYOT-K 000000000000KO225053
BI00B32D1    DFTW2229       2022052618000004540              AV 8 W                   CCN000004300000004300FN00000000020220701000004300NNE   20220421112943    1W    00000010000010466200000000032D1    TOYOT-K 000000000000KO225056
BI00B32D1    DFTW2229       2022052618000004543              AV 8 W/B                 CCN000004300000004300FN00000000020220701000004300NNE   20220421112943    1W    00000010000010466200000000032D1    TOYOT-K 000000000000KO225057
BI00B32D1    DFTW2229       2022052618000004550              AV 8 R                   CCN000000600000000600FN00000000020220701000000600NNE   20220421112943    1W    00000010000010466200000000032D1    TOYOT-K 000000000000KO225055
BI00B32D1    @DFTW2229      20220526181AD2002ZZ              CIVUSAS-S 0.35X2 B       CCN000004950000004950FN00000000020220701000004950NNE   20220421112941    1W    00000045000001713700000000032D1    TOYOT-K 000000000000KO225026
BI00B32D1    @DFTW2229      20220526181AD2003ZZ              CIVUSAS-S 0.35X3 B       CCN000001400000001400FN00000000020220701000001400NNE   20220421112941    1W    00000035000002172100000000032D1    TOYOT-K 000000000000KO225027
BI00B32D1    @DFTW2229      20220526181AD2004ZZ              CIVUSAS-S 0.35X4 B       CCN000008100000008100FN00000000020220701000008100NNE   20220421112941    1W    00000030000002799900000000032D1    TOYOT-K 000000000000KO225028
BI00B32D1    @DFTW2229      20220526181E48031ZZ              CAVSAS-S 0.3X2 GY        CCN000002450000002450FN00000000020220701000002450NNE   20220421112941    1W    00000035000002008700000000032D1    TOYOT-K 000000000000KO225029
BI00B32D1    @DFTW2229      20220526181E48037ZZ              CAVSAS-S 0.3X4 GY        CCN000004000000004000FN00000000020220701000004000NNE   20220421112941    1W    00000025000003262000000000032D1    TOYOT-K 000000000000KO225031
BI00B32D1    @DFTW2229      20220526181E48041ZZ              CAVSAS-S 0.3X2 GY/R      CCN000003150000003150FN00000000020220701000003150NNE   20220421112941    1W    00000035000002008700000000032D1    TOYOT-K 000000000000KO225030
BI00B32D1    @DFTW2229      20220526181E50002ZZ              AVSSCS-S 0.3FX2 DGY/G    CCN000003500000003500FN00000000020220701000003500NNE   20220421112941    1W    00000035000002165000000000032D1    TOYOT-K 000000000000KO225037
BI00B32D1    @DFTW2229      20220526181E50004ZZ              AVSSCS-S 0.5FX1 DGY      CCN000003600000003600FN00000000020220701000003600NNE   20220421112941    1W    00000040000001909700000000032D1    TOYOT-K 000000000000KO225032
BI00B32D1    @DFTW2229      20220526181E50005ZZ              AVSSCS-S 0.5FX1 DGY/W    CCN000001200000001200FN00000000020220701000001200NNE   20220421112941    1W    00000040000001909700000000032D1    TOYOT-K 000000000000KO225035
BI00B32D1    @DFTW2229      20220526181E50007ZZ              AVSSCS-S 0.5FX1 DGY/L    CCN000002000000002000FN00000000020220701000002000NNE   20220421112941    1W    00000040000001909700000000032D1    TOYOT-K 000000000000KO225033
BI00B32D1    @DFTW2229      20220526181E50014ZZ              AVSSCS-S 0.5FX1 DGY/R    CCN000000400000000400FN00000000020220701000000400NNE   20220421112941    1W    00000040000001909700000000032D1    TOYOT-K 000000000000KO225034
BI00B32D1    @DFTW2229      20220526181E50020ZZ              AVSSCS-S 0.3FX2 DGY/R    CCN000002100000002100FN00000000020220701000002100NNE   20220421112941    1W    00000035000002165000000000032D1    TOYOT-K 000000000000KO225039
BI00B32D1    @DFTW2229      20220526181E50021ZZ              AVSSCS-S 0.3FX2 DGY/P    CCN000002450000002450FN00000000020220701000002450NNE   20220421112941    1W    00000035000002165000000000032D1    TOYOT-K 000000000000KO225038
BI00B32D1    @DFTW2229      20220526181E50036ZZ              AVSSCS-S 0.3FX2 DGY      CCN000002450000002450FN00000000020220701000002450NNE   20220421112941    1W    00000035000002165000000000032D1    TOYOT-K 000000000000KO225036
BI00A32D2    @DGTW2227      20220422181E50006ZZ              AVSSCS-S 0.5FX1 DGY/Y    CCN000002000000002000FN00000000020220701000002000NNM20 20220421102920    1W    00000040000001909700000000032D2    TGYOT-G 000000000000KR424008
BI00B32D2    DGTW2229       2022052618000004530              AV 8 B                   CCN000025800000025800FN00000000020220701000025800NNE   20220421110528    1W    00000010000010466200000000032D2    TGYOT-G 000000000000KR225046
BI00B32D2    DGTW2229       2022052618000004540              AV 8 W                   CCN000007700000007700FN00000000020220701000007700NNE   20220421110528    1W    00000010000010466200000000032D2    TGYOT-G 000000000000KR225047
BI00B32D2    DGTW2229       2022052618000004543              AV 8 W/B                 CCN000005900000005900FN00000000020220701000005900NNE   20220421110528    1W    00000010000010466200000000032D2    TGYOT-G 000000000000KR225048
BI00B32D2    @DGTW2229      20220526181AD2002ZZ              CIVUSAS-S 0.35X2 B       CCN000020250000020250FN00000000020220701000020250NNE   20220421110526    1W    00000045000001713700000000032D2    TGYOT-G 000000000000KR225020
BI00B32D2    @DGTW2229      20220526181AD2003ZZ              CIVUSAS-S 0.35X3 B       CCN000011900000011900FN00000000020220701000011900NNE   20220421110526    1W    00000035000002172100000000032D2    TGYOT-G 000000000000KR225021
BI00B32D2    @DGTW2229      20220526181AD2004ZZ              CIVUSAS-S 0.35X4 B       CCN000013200000013200FN00000000020220701000013200NNE   20220421110526    1W    00000030000002799900000000032D2    TGYOT-G 000000000000KR225022
BI00B32D2    @DGTW2229      20220526181E48037ZZ              CAVSAS-S 0.3X4 GY        CCN000006000000006000FN00000000020220701000006000NNE   20220421110526    1W    00000025000003262000000000032D2    TGYOT-G 000000000000KR225023
BI00B32D2    @DGTW2229      20220526181E50004ZZ              AVSSCS-S 0.5FX1 DGY      CCN000012000000012000FN00000000020220701000012000NNE   20220421110526    1W    00000040000001909700000000032D2    TGYOT-G 000000000000KR225024
BI00B32D2    @DGTW2229      20220526181E50005ZZ              AVSSCS-S 0.5FX1 DGY/W    CCN000008400000008400FN00000000020220701000008400NNE   20220421110526    1W    00000040000001909700000000032D2    TGYOT-G 000000000000KR225026
BI00B32D2    @DGTW2229      20220526181E50006ZZ              AVSSCS-S 0.5FX1 DGY/Y    CCN000000400000000400FN00000000020220701000000400NNE   20220421110526    1W    00000040000001909700000000032D2    TGYOT-G 000000000000KR225027
BI00B32D2    @DGTW2229      20220526181E50007ZZ              AVSSCS-S 0.5FX1 DGY/L    CCN000002400000002400FN00000000020220701000002400NNE   20220421110526    1W    00000040000001909700000000032D2    TGYOT-G 000000000000KR225025
BI00B32D2    @DGTW2229      20220526181E50016ZZ              AVSSCS-S 0.5FX2 DGY/R    CCN000000900000000900FN00000000020220701000000900NNE   20220421110526    1W    00000030000003096000000000032D2    TGYOT-G 000000000000KR225028
BI00B32D2    @DGTW2229      20220526181E50036ZZ              AVSSCS-S 0.3FX2 DGY      CCN000002450000002450FN00000000020220701000002450NNE   20220421110526    1W    00000035000002165000000000032D2    TGYOT-G 000000000000KR225029
BI00B32D2    @DGTW2229      20220526181F21014ZZ              AVSSHCS-S 0.5FX2 B/L     CCN000004500000004500FN00000000020220701000004500NNE   20220421110526    1W    00000030000002531400000000032D2    TGYOT-G 000000000000KR225031
BI00B32D2    @DGTW2229      20220526181F21016ZZ              AVSSHCS-S 0.5FX2 B/BR    CCN000001200000001200FN00000000020220701000001200NNE   20220421110526    1W    00000030000002531400000000032D2    TGYOT-G 000000000000KR225030
BI00B32D2    @DGTW2229      20220526181F21031ZZ              AVSSHCS-S 1.25FX2 B/P    CCN000002400000002400FN00000000020220701000002400NNE   20220421110526    1W    00000020000004267300000000032D2    TGYOT-G 000000000000KR225032
BI00B32H2    @TAW205E       20220429181AD2023ZZ              CIVUSAS-S 0.13X2 B       CCN000001200000001200FN00000000020220501000001200NNE   20220421131011    1W    00000060000001031100000000032H2    HVYHV   000000000000UG224001
BI00B32H2    @TAW205E       20220429181AD2024ZZ              CIVUSAS-S 0.13X3 B       CCN000000500000000500FN00000000020220501000000500NNE   20220421131011    1W    00000050000001297300000000032H2    HVYHV   000000000000UG224002
BI00B32H2    @TAW205E       20220429181AD2025ZZ              CIVUSAS-S 0.13X4 B       CCN000000400000000400FN00000000020220501000000400NNE   20220421131011    1W    00000040000001661800000000032H2    HVYHV   000000000000UG224003
BI00A32H7    FS2205DDMW     202204261801R703930              CIVUS 0.5 B              CCN000464200000365200FN00000000020220501000365200NNE22 20220421092050    1W    00000220000000525000000000032H7    FYFSY   000000000000FH224001
BI00A32H7    FS2205DDMW     202204261801R703960              CIVUS 0.5 G              CCN000389400000290400FN00000000020220501000290400NNE22 20220421092050    1W    00000220000000525000000000032H7    FYFSY   000000000000FH224004
BI00A32H7    FS2205DDMW     202204261801R703990              CIVUS 0.5 L              CCN000297000000198000FN00000000020220501000198000NNE22 20220421092050    1W    00000220000000525000000000032H7    FYFSY   000000000000FH224006
BI00A32H7    FS2205DDMW     202204261801R703961              CIVUS 0.5 LG             CCN000112200000022000FN00000000020220501000022000NNE22 20220421092050    1W    00000220000000525000000000032H7    FYFSY   000000000000FH224007
BI00A32H7    FS2205DDMW     202204261801R703952              CIVUS 0.5 P              CCN000217800000118800FN00000000020220501000118800NNE22 20220421092050    1W    00000220000000525000000000032H7    FYFSY   000000000000FH224008
BI00A32H7    FS2205DDMW     202204261801R703950              CIVUS 0.5 R              CCN000341000000242000FN00000000020220501000242000NNE22 20220421092050    1W    00000220000000525000000000032H7    FYFSY   000000000000FH224009
BI00A32H7    FS2205DDMW     202204261801R703992              CIVUS 0.5 V              CCN000250800000052800FN00000000020220501000052800NNE22 20220421092050    1W    00000220000000525000000000032H7    FYFSY   000000000000FH224011
BI00A32H7    FS2205DDMW     202204261801R703940              CIVUS 0.5 W              CCN000222200000123200FN00000000020220501000123200NNE22 20220421092050    1W    00000220000000525000000000032H7    FYFSY   000000000000FH224012
BI00A32H7    FS2205DDMW     202204261801R703943              CIVUS 0.5 W/B            CCN000411400000411400FN00000000020220501000411400NNE22 20220421092229    1W    00000220000000525000000000032H7    FYFSY   000000000000FH224013
BI00A32H7    FS2205DDMW     202204261801R704043              CIVUS 0.75 W/B           CCN000094500000072000FN00000000020220501000072000NNE22 20220421092050    1W    00000150000000765000000000032H7    FYFSY   000000000000FH224026
BI00A32H7    FS2205DDMW     202204261801R704130              CIVUS 1.25 B             CCN000132000000042000FN00000000020220501000042000NNE22 20220421092050    1W    00000100000001228000000000032H7    FYFSY   000000000000FH224027
BI00A32H7    FS2205DDMW     202204261801R704180              CIVUS 1.25 BR            CCN000035000000025000FN00000000020220501000025000NNE22 20220421092050    1W    00000100000001228000000000032H7    FYFSY   000000000000FH224029
BI00A32H7    FS2205DDMW     202204261801R704141              CIVUS 1.25 GY            CCN000017000000011000FN00000000020220501000011000NNE22 20220421092050    1W    00000100000001228000000000032H7    FYFSY   000000000000FH224031
BI00A32H7    FS2205DDMW     202204261801R704152              CIVUS 1.25 P             CCN000051000000021000FN00000000020220501000021000NNE22 20220421092050    1W    00000100000001228000000000032H7    FYFSY   000000000000FH224034
BI00A32H7    FS2205DDMW     202204261801R704150              CIVUS 1.25 R             CCN000111000000070000FN00000000020220501000070000NNE22 20220421092050    1W    00000100000001228000000000032H7    FYFSY   000000000000FH224035
BI00A32H7    FS2205DDMW     202204261801R704191              CIVUS 1.25 SB            CCN000028000000004000FN00000000020220501000004000NNE22 20220421092050    1W    00000100000001228000000000032H7    FYFSY   000000000000FH224036
BI00A32H7    FS2205DDMW     202204261801R704192              CIVUS 1.25 V             CCN000019000000019000FN00000000020220501000019000NNE22 20220421092439    1W    00000100000001228000000000032H7    FYFSY   000000000000FH224037
BI00A32H7    FS2205DDMW     202204261801R704140              CIVUS 1.25 W             CCN000088000000063000FN00000000020220501000063000NNE22 20220421092050    1W    00000100000001228000000000032H7    FYFSY   000000000000FH224038
BI00A32H7    FS2205DDMW     202204261801R704143              CIVUS 1.25 W/B           CCN000152000000122000FN00000000020220501000122000NNE22 20220421092050    1W    00000100000001228000000000032H7    FYFSY   000000000000FH224039
BI00A32H7    FS2205DDMW     202204261801R704170              CIVUS 1.25 Y             CCN000053000000043000FN00000000020220501000043000NNE22 20220421092050    1W    00000100000001228000000000032H7    FYFSY   000000000000FH224040
BI00B32U5    DW2027         202206021801W003943              IVSSH 0.5F W/B           CCN000010800000010800FN00000000020220801000010800NNE   20220421142052U5  1W    00000180000000625000000000032U5    ASAMSD  000000000000AM325027
BI00B32U5    DW2027         202206021801W00395U              IVSSH 0.5F BE            CCN000003600000003600FN00000000020220801000003600NNE   20220421142052U5  1W    00000180000000625000000000032U5    ASAMSD  000000000000AM325025
BI00B32U5    DW2027         202206021801W003960              IVSSH 0.5F G             CCN000034200000034200FN00000000020220801000034200NNE   20220421142052U5  1W    00000180000000625000000000032U5    ASAMSD  000000000000AM325026
BI00B32U5    DW2027         202206021801W004050              IVSSH 0.75F R            CCN000003900000003900FN00000000020220801000003900NNE   20220421142052U5  1W    00000130000000882000000000032U5    ASAMSD  000000000000AM325029
BI00B32U5    DW2027         202206021801W004090              IVSSH 0.75F L            CCN000002600000002600FN00000000020220801000002600NNE   20220421142052U5  1W    00000130000000882000000000032U5    ASAMSD  000000000000AM325028
BI00B32U5    DW2027         202206021801W006930              IVSSH 0.35F B            CCN000052500000052500FN00000000020220801000052500NNE   20220421142052U5  1W    00000250000000452000000000032U5    ASAMSD  000000000000AM325030
BI00B32U5    DW2027         202206021801W006940              IVSSH 0.35F W            CCN000077500000077500FN00000000020220801000077500NNE   20220421142052U5  1W    00000250000000452000000000032U5    ASAMSD  000000000000AM325037
BI00B32U5    DW2027         202206021801W006952              IVSSH 0.35F P            CCN000050000000050000FN00000000020220801000050000NNE   20220421142052U5  1W    00000250000000452000000000032U5    ASAMSD  000000000000AM325034
BI00B32U5    DW2027         202206021801W006960              IVSSH 0.35F G            CCN000002500000002500FN00000000020220801000002500NNE   20220421142052U5  1W    00000250000000452000000000032U5    ASAMSD  000000000000AM325031
BI00B32U5    DW2027         202206021801W006961              IVSSH 0.35F LG           CCN000030000000030000FN00000000020220801000030000NNE   20220421142052U5  1W    00000250000000452000000000032U5    ASAMSD  000000000000AM325033
BI00B32U5    DW2027         202206021801W006990              IVSSH 0.35F L            CCN000110000000110000FN00000000020220801000110000NNE   20220421142052U5  1W    00000250000000452000000000032U5    ASAMSD  000000000000AM325032
BI00B32U5    DW2027         202206021801W006991              IVSSH 0.35F SB           CCN000010000000010000FN00000000020220801000010000NNE   20220421142052U5  1W    00000250000000452000000000032U5    ASAMSD  000000000000AM325035
BI00B32U5    DW2027         202206021801W006992              IVSSH 0.35F V            CCN000017500000017500FN00000000020220801000017500NNE   20220421142052U5  1W    00000250000000452000000000032U5    ASAMSD  000000000000AM325036
BI00B32U5    @DW2027        20220602181AD2013ZZ              CIVUSAS-S 1.25X2 B       CCN000002200000002200FN00000000020220801000002200NNE   20220421142051U5  1W    00000022000003840000000000032U5    ASAMSD  000000000000AM325024
BI00B32X5    TWB2026        202205271801W003943              IVSSH 0.5F W/B           CCN000001800000001800FN00000000020220801000001800NNE   20220421150244X5  1W    00000180000000625000000000032X5    EPYNA-E 000000000000AE225001
BI00B32X5    TWB2026        202205271801W004050              IVSSH 0.75F R            CCN000002600000002600FN00000000020220801000002600NNE   20220421150244X5  1W    00000130000000882000000000032X5    EPYNA-E 000000000000AE225002
BI00B32X5    TWB2026        202205271801W006930              IVSSH 0.35F B            CCN000045000000045000FN00000000020220801000045000NNE   20220421150244X5  1W    00000250000000452000000000032X5    EPYNA-E 000000000000AE225003
BI00B32X5    TWB2026        202205271801W006940              IVSSH 0.35F W            CCN000012500000012500FN00000000020220801000012500NNE   20220421150244X5  1W    00000250000000452000000000032X5    EPYNA-E 000000000000AE225008
BI00B32X5    TWB2026        202205271801W006943              IVSSH 0.35F W/B          CCN000010000000010000FN00000000020220801000010000NNE   20220421150244X5  1W    00000250000000452000000000032X5    EPYNA-E 000000000000AE225009
BI00B32X5    TWB2026        202205271801W006950              IVSSH 0.35F R            CCN000017500000017500FN00000000020220801000017500NNE   20220421150244X5  1W    00000250000000452000000000032X5    EPYNA-E 000000000000AE225006
BI00B32X5    TWB2026        202205271801W006952              IVSSH 0.35F P            CCN000002500000002500FN00000000020220801000002500NNE   20220421150244X5  1W    00000250000000452000000000032X5    EPYNA-E 000000000000AE225005
BI00B32X5    TWB2026        202205271801W006990              IVSSH 0.35F L            CCN000002500000002500FN00000000020220801000002500NNE   20220421150244X5  1W    00000250000000452000000000032X5    EPYNA-E 000000000000AE225004
BI00B32X5    TWB2026        202205271801W006992              IVSSH 0.35F V            CCN000015000000015000FN00000000020220801000015000NNE   20220421150244X5  1W    00000250000000452000000000032X5    EPYNA-E 000000000000AE225007
BI00B32X5    TWB2027        202206021801W003930              IVSSH 0.5F B             CCN000001800000001800FN00000000020220801000001800NNE   20220421150245X5  1W    00000180000000625000000000032X5    EPYNA-E 000000000000AE325001
BI00B32X5    TWB2027        202206021801W003943              IVSSH 0.5F W/B           CCN000001800000001800FN00000000020220801000001800NNE   20220421150245X5  1W    00000180000000625000000000032X5    EPYNA-E 000000000000AE325003
BI00B32X5    TWB2027        202206021801W003960              IVSSH 0.5F G             CCN000001800000001800FN00000000020220801000001800NNE   20220421150245X5  1W    00000180000000625000000000032X5    EPYNA-E 000000000000AE325002
BI00B32X5    TWB2027        202206021801W004050              IVSSH 0.75F R            CCN000001300000001300FN00000000020220801000001300NNE   20220421150245X5  1W    00000130000000882000000000032X5    EPYNA-E 000000000000AE325004
BI00B32X5    TWB2027        202206021801W006930              IVSSH 0.35F B            CCN000042500000042500FN00000000020220801000042500NNE   20220421150245X5  1W    00000250000000452000000000032X5    EPYNA-E 000000000000AE325005
BI00B32X5    TWB2027        202206021801W006940              IVSSH 0.35F W            CCN000012500000012500FN00000000020220801000012500NNE   20220421150245X5  1W    00000250000000452000000000032X5    EPYNA-E 000000000000AE325012
BI00B32X5    TWB2027        202206021801W006943              IVSSH 0.35F W/B          CCN000010000000010000FN00000000020220801000010000NNE   20220421150245X5  1W    00000250000000452000000000032X5    EPYNA-E 000000000000AE325013
BI00B32X5    TWB2027        202206021801W006950              IVSSH 0.35F R            CCN000017500000017500FN00000000020220801000017500NNE   20220421150245X5  1W    00000250000000452000000000032X5    EPYNA-E 000000000000AE325010
BI00B32X5    TWB2027        202206021801W006952              IVSSH 0.35F P            CCN000002500000002500FN00000000020220801000002500NNE   20220421150245X5  1W    00000250000000452000000000032X5    EPYNA-E 000000000000AE325009
BI00B32X5    TWB2027        202206021801W006960              IVSSH 0.35F G            CCN000010000000010000FN00000000020220801000010000NNE   20220421150245X5  1W    00000250000000452000000000032X5    EPYNA-E 000000000000AE325007
BI00B32X5    TWB2027        202206021801W006970              IVSSH 0.35F Y            CCN000010000000010000FN00000000020220801000010000NNE   20220421150245X5  1W    00000250000000452000000000032X5    EPYNA-E 000000000000AE325014
BI00B32X5    TWB2027        202206021801W006980              IVSSH 0.35F BR           CCN000002500000002500FN00000000020220801000002500NNE   20220421150245X5  1W    00000250000000452000000000032X5    EPYNA-E 000000000000AE325006
BI00B32X5    TWB2027        202206021801W006990              IVSSH 0.35F L            CCN000002500000002500FN00000000020220801000002500NNE   20220421150245X5  1W    00000250000000452000000000032X5    EPYNA-E 000000000000AE325008
BI00B32X5    TWB2027        202206021801W006992              IVSSH 0.35F V            CCN000005000000005000FN00000000020220801000005000NNE   20220421150245X5  1W    00000250000000452000000000032X5    EPYNA-E 000000000000AE325011
