BI00B1200    #BY02839A      202206237154-5597-30             CASSETTE R/B             CCN000000800000000800FN00000000020220701000000800NNE   20220421122338    2F0F  0000008000000073600000095201200    YCYC    005500360039
BI00B1200    #H322G50032    202206307174-1760-50             CAP                      CCN000006000000006000FN00000000020220701000006000NNE   20220421122338    2F0F  0000030000000081360000092261200    YCYC    005400370024
BI00B1200    #H322H50007    202207147174-1760-50             CAP                      CCN000030000000030000FN00000000020220801000030000NNE   20220421122338    2F0F  0000030000000081360000092261200    YCYC    005400370024
BI00B32AF    JTB2054        202204297158-3006-90             RUBBER STOPPER           CCN000020000000020000FN00000000020220501000020000NNMD0020220421154111    1C0C  00002000000000330600000386032AF    HBYHVTB 002700430014
BI00B32AF    JTB2054        202205067158-3009-60             RUBBER STOPPER           CCN000180000000180000FN00000000020220501000180000NNM00020220421154204    1C0C  00002000000000338000000386232AF    HBYHVTB 002700430014
BI00B32AF    JTB2054        202205067158-3166-60             WIRE SEAL                CCN000080000000080000FN00000000020220501000080000NNM00020220421154444    1C0C  00004000000000104000000152432AF    HBYHVTB 002700430014
BI00B32AF    JTB2054        202205067282-9391-30             HOUSING MALE ASS'Y       CCN000002400000002400FN00000000020220501000002400NNM00020220421152606    4N0N  00000120000001017600001237632AF    HBYHVTB 005500360039
BI00B32AF    JTB2054        202205067283-5845                CONNECTOR HOUSING        CCN000024000000024000FN00000000020220501000024000NNM00020220421155744    1N0N  00000600000000444000000606332AF    HBYHVTB 005400370024
BI00B32AF    JTB2051        202204227289-3342-30             HOUSING FEMALE ASS'Y     CCN000048000000024000FN00000000020220501000024000NNM00020220421122338    1N0N  00000240000000686400000901432AF    HBYHVTB 005500360039
BI00B32AF    JTB2054        202205067298-5955                CONNECTOR SUB ASSY       CCN000007200000007200FN00000000020220501000007200NNM00020220421153022    4N0N  00000720000001029600001253032AF    HBYHVTB 005500360039
BI00B32AF    JTB2051        202204127289-3342-30             HOUSING FEMALE ASS'Y     CCN000024000000024000FY00002400020220501000000000NNM00020220421112257    1N0N  00000240000000686400000901432AF    HBYHVTB 005500360039
BI00B32AF    JTB2062        202205207158-3009-60             RUBBER STOPPER           CCN000120000000120000FN00000000020220601000120000NNM00020220421154248    1C0C  00002000000000338000000386232AF    HBYHVTB 002700430014
BI00B32AF    JTB2063        202205277158-3009-60             RUBBER STOPPER           CCN000100000000100000FN00000000020220601000100000NNM00020220421154343    1C0C  00002000000000338000000386232AF    HBYHVTB 002700430014
BI00B32AF    JTB2062        202205207158-3166-60             WIRE SEAL                CCN000040000000040000FN00000000020220601000040000NNM00020220421154459    1C0C  00004000000000104000000152432AF    HBYHVTB 002700430014
BI00B32AF    JTB2063        202205277158-3166-60             WIRE SEAL                CCN000040000000040000FN00000000020220601000040000NNM00020220421154511    1C0C  00004000000000104000000152432AF    HBYHVTB 002700430014
BI00B32AF    JTB2062        202205207282-1024                HOUSING MALE             CCN000001000000001000FN00000000020220601000001000NNM00020220421152442    1N0N  00000100000000458000000580532AF    HBYHVTB 005400370024
BI00B32AF    JTB2063        202205277282-4578                HOUSING MALE ASS'Y       CCN000009600000009600FN00000000020220601000009600NNM00020220421155251    4N0N  00000120000000782600000992632AF    HBYHVTB 005500360039
BI00B32AF    JTB2062        202205207282-9391-30             HOUSING MALE ASS'Y       CCN000002400000002400FN00000000020220601000002400NNM00020220421152622    4N0N  00000120000001017600001237632AF    HBYHVTB 005500360039
BI00B32AF    JTB2063        202205277282-9391-30             HOUSING MALE ASS'Y       CCN000002400000002400FN00000000020220601000002400NNM00020220421152635    4N0N  00000120000001017600001237632AF    HBYHVTB 005500360039
BI00B32AF    JTB2063        202205277283-4576                HOUSING FEMALE ASS'Y     CCN000019200000019200FN00000000020220601000019200NNM00020220421155553    4N0N  00000480000000651300000871332AF    HBYHVTB 005500360039
BI00B32AF    JTB2062        202205207283-4855                CONNECTOR HOUSING        CCN000004800000004800FN00000000020220601000004800NNM00020220421150432    4N0N  00000240000001188400001400032AF    HBYHVTB 005500360039
BI00B32AF    JTB2063        202205277283-4855                CONNECTOR HOUSING        CCN000004800000004800FN00000000020220601000004800NNM00020220421150514    4N0N  00000240000001188400001400032AF    HBYHVTB 005500360039
BI00B32AF    JTB2063        202205277283-5845                CONNECTOR HOUSING        CCN000018000000018000FN00000000020220601000018000NNM00020220421155823    1N0N  00000600000000444000000606332AF    HBYHVTB 005400370024
BI00B32AF    JTB2063        202205277283-5845-30             CONNECTOR HOUSING        CCN000006000000006000FN00000000020220601000006000NNM00020220421155936    1N0N  00000600000000444000000606332AF    HBYHVTB 005400370024
BI00B32AF    JTB2063        202205277287-1915                CONNECTOR ASS'Y          CCN000009600000009600FN00000000020220601000009600NNM00020220421160024    4N0N  00000240000000666500000923132AF    HBYHVTB 005500360039
BI00B32AF    JTB2063        202205277287-1915-30             CONNECTOR ASS'Y          CCN000004800000004800FN00000000020220601000004800NNM00020220421160153    4N0N  00000240000000666500000923132AF    HBYHVTB 005500360039
BI00B32AF    JTB2062        202205207287-1915-40             CONNECTOR ASS'Y          CCN000002400000002400FN00000000020220601000002400NNM00020220421160230    4N0N  00000240000000666500000923132AF    HBYHVTB 005500360039
BI00B32AF    JTB2063        202205277287-1915-40             CONNECTOR ASS'Y          CCN000002400000002400FN00000000020220601000002400NNM00020220421160243    4N0N  00000240000000666500000923132AF    HBYHVTB 005500360039
BI00B32AF    JTB2061        202205137289-3342                HOUSING FEMALE ASS'Y     CCN000014400000014400FN00000000020220601000014400NNMD0420220421122338    1N0N  00000240000000686400000901432AF    HBYHVTB 005500360039
BI00B32AF    JTB2062        202205207289-3342                HOUSING FEMALE ASS'Y     CCN000014400000014400FN00000000020220601000014400NNMD0020220421151418    1N0N  00000240000000686400000901432AF    HBYHVTB 005500360039
BI00B32AF    JTB2061        202205137289-3342-30             HOUSING FEMALE ASS'Y     CCN000048000000048000FN00000000020220601000048000NNMD0420220421122338    1N0N  00000240000000686400000901432AF    HBYHVTB 005500360039
BI00B32AF    JTB2062        202205207289-3342-30             HOUSING FEMALE ASS'Y     CCN000045600000045600FN00000000020220601000045600NNMD0420220421151849    1N0N  00000240000000686400000901432AF    HBYHVTB 005500360039
BI00B32AF    JTB2063        202205277289-3342-30             HOUSING FEMALE ASS'Y     CCN000050400000050400FN00000000020220601000050400NNMD0420220421152115    1N0N  00000240000000686400000901432AF    HBYHVTB 005500360039
BI00B32AF    JTB2064        202206027289-3342-30             HOUSING FEMALE ASS'Y     CCN000040800000040800FN00000000020220601000040800NNMD0420220421122338    1N0N  00000240000000686400000901432AF    HBYHVTB 005500360039
BI00B32AF    JTB2063        202205277298-2509-30             HOUSING FEMALE ASS'Y     CCN000002400000002400FN00000000020220601000002400NNM00020220421152954    4N0N  00000120000000857500001062532AF    HBYHVTB 005500360039
BI00B32AF    JTB2062        202205207298-5955                CONNECTOR SUB ASSY       CCN000021600000021600FN00000000020220601000021600NNM00020220421153036    4N0N  00000720000001029600001253032AF    HBYHVTB 005500360039
BI00B32AF    JTB2063        202205277298-5955                CONNECTOR SUB ASSY       CCN000028800000028800FN00000000020220601000028800NNM00020220421153047    4N0N  00000720000001029600001253032AF    HBYHVTB 005500360039
BI00B32AF    JTB2061        202207297289-3342                HOUSING FEMALE ASS'Y     CCN000007200000000000FY00000000020220601000000000NNMD0420220421091743    1N0N  00000240000000686400000901432AF    HBYHVTB 005500360039
BI00B32AF    JTB2062        202208117289-3342                HOUSING FEMALE ASS'Y     CCN000007200000000000FY00000000020220601000000000NNMD0420220421091826    1N0N  00000240000000686400000901432AF    HBYHVTB 005500360039
BI00B32CJ    JQN2054        202205067158-3167-80             WIRE SEAL                CCN000060000000060000FN00000000020220501000060000NNM00020220421154536    1C0C  00002000000000048000000109032CJ    QNYHVQN 002700430014
BI00B32CJ    JQN2055        202205067158-3167-80             WIRE SEAL                CCN000040000000040000FN00000000020220501000040000NNM00020220421154553    1C0C  00002000000000048000000109032CJ    QNYHVQN 002700430014
BI00B32CJ    JQN2054        202205067289-3342                HOUSING FEMALE ASS'Y     CCN000002400000002400FN00000000020220501000002400NNM00020220421150552    1N0N  00000240000000686400000901432CJ    QNYHVQN 005500360039
BI00B32CJ    JQN2054        202205067158-3009-60             RUBBER STOPPER           CCN000060000000060000FN00000000020220501000060000NNM00020220421154231    1C0C  00002000000000338000000386232CJ    QNYHVQN 002700430014
BI00B32CJ    JQN2062        202205207158-3167-80             WIRE SEAL                CCN000040000000040000FN00000000020220601000040000NNM00020220421154612    1C0C  00002000000000048000000109032CJ    QNYHVQN 002700430014
BI00B32CJ    JQN2063        202205277158-3167-80             WIRE SEAL                CCN000040000000040000FN00000000020220601000040000NNM00020220421154627    1C0C  00002000000000048000000109032CJ    QNYHVQN 002700430014
BI00B32CJ    JQN2062        202205207196-1102-02             TERMINAL                 CCN000045000000045000FN00000000020220601000045000NNM00020220421154652    4P0P  00002250000000405000000690232CJ    QNYHVQN 006400630015
BI00B32CJ    JQN2063        202205277196-1102-02             TERMINAL                 CCN000045000000045000FN00000000020220601000045000NNM00020220421154706    4P0P  00002250000000405000000690232CJ    QNYHVQN 006400630015
BI00B32CJ    JQN2062        202205207282-4578                HOUSING MALE ASS'Y       CCN000014400000014400FN00000000020220601000014400NNM00020220421155218    4N0N  00000120000000782600000992632CJ    QNYHVQN 005500360039
BI00B32CJ    JQN2063        202205277282-4578                HOUSING MALE ASS'Y       CCN000014400000014400FN00000000020220601000014400NNM00020220421155305    4N0N  00000120000000782600000992632CJ    QNYHVQN 005500360039
BI00B32CJ    JQN2063        202205277283-4576                HOUSING FEMALE ASS'Y     CCN000052800000052800FN00000000020220601000052800NNM00020220421155650    4N0N  00000480000000651300000871332CJ    QNYHVQN 005500360039
BI00B32CJ    JQN2063        202205277287-1915                CONNECTOR ASS'Y          CCN000004800000004800FN00000000020220601000004800NNM00020220421160057    4N0N  00000240000000666500000923132CJ    QNYHVQN 005500360039
BI00B32CJ    JQN2063        202205277287-1915-30             CONNECTOR ASS'Y          CCN000004800000004800FN00000000020220601000004800NNM00020220421160211    4N0N  00000240000000666500000923132CJ    QNYHVQN 005500360039
BI00B32CJ    JQN2062        202205207289-3342                HOUSING FEMALE ASS'Y     CCN000016800000016800FN00000000020220601000016800NNMD0020220421151435    1N0N  00000240000000686400000901432CJ    QNYHVQN 005500360039
BI00B32CJ    JQN2063        202205277289-3342                HOUSING FEMALE ASS'Y     CCN000016800000016800FN00000000020220601000016800NNMD0020220421151508    1N0N  00000240000000686400000901432CJ    QNYHVQN 005500360039
BI00B32CJ    JQN2062        202205207289-3342-30             HOUSING FEMALE ASS'Y     CCN000009600000009600FN00000000020220601000009600NNMD0420220421151913    1N0N  00000240000000686400000901432CJ    QNYHVQN 005500360039
BI00B32CJ    JQN2062        202205207289-3342-90             HOUSING FEMALE ASS'Y     CCN000009600000009600FN00000000020220601000009600NNMD0420220421152303    1N0N  00000240000000686400000901432CJ    QNYHVQN 005500360039
BI00B32CJ    JQN2063        202205277289-3342-90             HOUSING FEMALE ASS'Y     CCN000007200000007200FN00000000020220601000007200NNMD0420220421152339    1N0N  00000240000000686400000901432CJ    QNYHVQN 005500360039
BI00B32CJ    JQN2063        202205277327-6987-3W             BATTERY FUSE             CCN000001944000001944FN00000000020220601000001944NNM00020220421160437    4N0N  00000007200000511300000711532CJ    QNYHVQN 005500360039
BI00B32CJ    JQN2062        202205207158-3009-60             RUBBER STOPPER           CCN000080000000080000FN00000000020220601000080000NNMD0420220421154304    1C0C  00002000000000338000000386232CJ    QNYHVQN 002700430014
BI00B32CJ    JQN2063        202205277158-3009-60             RUBBER STOPPER           CCN000100000000100000FN00000000020220601000100000NNMD0420220421154402    1C0C  00002000000000338000000386232CJ    QNYHVQN 002700430014
BI00B32D2    DGTC2229       202206097017-1180-02             TERMINAL                 CCN000072000000072000FN00000000020220701000072000NNM   20220421122338    4P0P  00007200000001065600001229032D2    TGYOT-G 005100280028
BI00B32D2    DGTC2229       202206097114-4032                TERMINAL                 CCN000015000000015000FN00000000020220701000015000NNM   20220421122338    4P0P  00000750000000735000001063632D2    TGYOT-G 006400630017
BI00B32D2    DGTC2229       202206097114-5748-02             TERMINAL                 CCN000048000000048000FN00000000020220701000048000NNM   20220421122338    4P0P  00001200000000444000000737632D2    TGYOT-G 006400630015
BI00B32D2    DGTC2229       202206097114-5753-02             TERMINAL                 CCN000135000000135000FN00000000020220701000135000NNM   20220421122338    4P0P  00002700000000847800001141432D2    TGYOT-G 006400630015
BI00B32D2    DGTC2229       202206097116-2891-02             TERMINAL                 CCN000015000000015000FN00000000020220701000015000NNM   20220421122338    4P0P  00001500000000982500001145932D2    TGYOT-G 005100280028
BI00B32D2    DGTC2229       202206097116-4486-02             TERMINAL                 CCN000112000000112000FN00000000020220701000112000NNM   20220421122338    4P0P  00002800000000666400000995132D2    TGYOT-G 006400630017
BI00B32D2    DGTC2229       202206097116-5045-02             TERMINAL                 CCN000032000000032000FN00000000020220701000032000NNM   20220421122338    4P0P  00001600000000678400001007132D2    TGYOT-G 006400630017
BI00B32D2    DGTC2229       202206097116-5046-02             TERMINAL                 CCN000084000000084000FN00000000020220701000084000NNM   20220421122338    4P0P  00001200000000544800000873532D2    TGYOT-G 006400630017
BI00B32D2    DGTC2229       202206097116-6042                TERMINAL                 CCN000042000000042000FN00000000020220701000042000NNM   20220421122338    4P0P  00000300000000523800000856132D2    TGYOT-G 006400630015
BI00B32D2    DGTC2229       202206097126-8853-02             TERMINAL                 CCN000067500000067500FN00000000020220701000067500NNM   20220421122338    4P0P  00000750000000562500000847732D2    TGYOT-G 006400630015
BI00B32D2    DGTC2229       202206097126-8854-02             TERMINAL                 CCN000052500000052500FN00000000020220701000052500NNM   20220421122338    4P0P  00000750000000604500000889732D2    TGYOT-G 006400630015
BI00B32D2    DGTC2229       202206097126-8855-02             TERMINAL                 CCN000084000000084000FN00000000020220701000084000NNM   20220421122338    4P0P  00000600000000510600000795832D2    TGYOT-G 006400630015
BI00B32D2    DGTC2229       202206097158-3070-80             RUBBER STOPPER           CCN000040000000040000FN00000000020220701000040000NNM   20220421122338    1C0C  00004000000000276000000333332D2    TGYOT-G 002700430014
BI00B32D2    DGTC2229       202206097173-3291-40             LIF LEVER                CCN000007200000007200FN00000000020220701000007200NNM   20220421122338    1F0F  00000240000000867800001067832D2    TGYOT-G 005500360039
BI00B32D2    DGTC2229       202206097196-0396-02             TERMINAL                 CCN000015000000015000FN00000000020220701000015000NNM   20220421122338    4P0P  00001500000000949500001112932D2    TGYOT-G 002800510028
BI00B32D2    DGTC2229       202206097196-1325-02             TERMINAL FEMALE          CCN000420000000420000FN00000000020220701000420000NNM   20220421122338    4P0P  00006000000000450000000778732D2    TGYOT-G 006400630017
BI00B32D2    DGTC2229       202206097196-1326-02             TERMINAL FEMALE          CCN000840000000840000FN00000000020220701000840000NNM   20220421122338    4P0P  00006000000000456000000784732D2    TGYOT-G 006400630017
BI00B32D2    DGTC2229       202206097196-1327-02             TERMINAL FEMALE          CCN000052000000052000FN00000000020220701000052000NNM   20220421122338    4P0P  00005200000000336000000739532D2    TGYOT-G 006400630017
BI00B32D2    DGTC2229       202206097289-3342                HOUSING FEMALE ASS'Y     CCN000057600000057600FN00000000020220701000057600NNM   20220421122338    1N0N  00000240000000686400000901432D2    TGYOT-G 005500360039
BI00B32D2    DGTC2229       202206097289-3342-30             HOUSING FEMALE ASS'Y     CCN000019200000019200FN00000000020220701000019200NNM   20220421122338    1N0N  00000240000000686400000901432D2    TGYOT-G 005500360039
BI00B32D2    DGTC2229       202206097289-3342-40             HOUSING FEMALE ASS'Y     CCN000019200000019200FN00000000020220701000019200NNM   20220421122338    1N0N  00000240000000686400000901432D2    TGYOT-G 005500360039
BI00B32D2    DGTC2229       202206097289-3342-90             HOUSING FEMALE ASS'Y     CCN000021600000021600FN00000000020220701000021600NNM   20220421122338    1N0N  00000240000000686400000901432D2    TGYOT-G 005500360039
BI00B32D2    DGTC2229       202206097289-6518-30             HOUSING FEMALE ASS'Y     CCN000008400000008400FN00000000020220701000008400NNM   20220421122338    1N0N  00000120000000829200001049232D2    TGYOT-G 005500360039
BI00B32D2    DGTC2229       202206097296-0784-02             TERMINAL ALUMINIUM       CCN000072000000072000FN00000000020220701000072000NNM   20220421122338    4P0P  00002400000000480000000765232D2    TGYOT-G 006400630015
BI00B32D2    DGTC2229       202206097296-1020-02             TERMINAL ALUMINIUM       CCN000022500000022500FN00000000020220701000022500NNM   20220421122338    4P0P  00002250000000699800000985032D2    TGYOT-G 006400630015
BI00B32D2    DGTC2229       202206097296-1024-02             TERMINAL ALUMINIUM       CCN000018000000018000FN00000000020220701000018000NNM   20220421122338    4P0P  00001800000000698400000983632D2    TGYOT-G 006400630015
BI00B32D2    DGTC2229       202206097327-6801-3W             BATTERY FUSE             CCN000003360000003360FN00000000020220701000003360NNM   20220421122338    4N0N  00000009600000928400001143432D2    TGYOT-G 005500360039
BI00B32D2    DGTC2229       202206097327-6803                MULTI FUSE               CCN000000560000000560FN00000000020220701000000560NNM   20220421122338    4N0N  00000056000000854600001067032D2    TGYOT-G 005400370024
BI00B32D2    DGTC2229       202206097327-6806                MULTI FUSE               CCN000002240000002240FN00000000020220701000002240NNM   20220421122338    4N0N  00000056000000851500001063932D2    TGYOT-G 005400370024
BI00B32D2    DGTC2229       202206097327-6809                MULTI FUSE               CCN000003360000003360FN00000000020220701000003360NNM   20220421122338    4N0N  00000056000000849300001061732D2    TGYOT-G 005400370024
BI00B32D2    DGTC2229       202206097327-6930                MULTI FUSE               CCN000001120000001120FN00000000020220701000001120NNM   20220421122338    4N0N  00000056000000848900001031932D2    TGYOT-G 005400370024
BI00B32D2    DGTC2229       202206097388-2978-30             HOUSING MALE ASS'Y       CCN000013920000013920FN00000000020220701000013920NNM   20220421122338    1N0N  00000048000000742000001122032D2    TGYOT-G 005500360039
BI00B32D2    #DGTC2229      202206097158-3003-90             RUBBER STOPPER           CCN000120000000120000FN00000000020220701000120000NNM   20220421122338    2C0C  00002000000000250000000306032D2    TGYOT-G 002700430014
BI00B32D2    #DGTC2229      202206097158-3005-80             RUBBER STOPPER           CCN000020000000020000FN00000000020220701000020000NNM   20220421122338    2H0H  00002000000000210000000268732D2    TGYOT-G 002700430014
BI00B32D2    #DGTC2229      202206097158-3008-80             RUBBER STOPPER           CCN000040000000040000FN00000000020220701000040000NNM   20220421122338    2C0C  00002000000000288000000343032D2    TGYOT-G 004300270014
BI00B32D2    #DGTC2229      202206097158-3015-10             RUBBER STOPPER           CCN000020000000020000FN00000000020220701000020000NNM   20220421122338    2C0C  00001000000000419500000474032D2    TGYOT-G 002700430014
BI00B32D2    #DGTC2229      202206097158-3017                RUBBER STOPPER           CCN000020000000020000FN00000000020220701000020000NNM   20220421122338    2C0C  00001000000000375500000435032D2    TGYOT-G 002700430014
BI00B32D2    #DGTC2229      202206097172-5627-60             RUBBER STOPPER           CCN000020000000020000FN00000000020220701000020000NNM   20220421122338    2H0H  00002000000000070400000121832D2    TGYOT-G 004300270014
BI00B32D2    #DGTC2229      202206097172-5629-80             RUBBER STOPPER           CCN000260000000260000FN00000000020220701000260000NNM   20220421122338    2H0H  00002000000000060000000111132D2    TGYOT-G 004300270014
BI00B32D2    #DGTC2229      202206097172-5630-40             RUBBER STOPPER           CCN000140000000140000FN00000000020220701000140000NNM   20220421122338    2H0H  00002000000000044000000095132D2    TGYOT-G 004300270014
BI00B32D2    #DGTC2229      202206097172-5631-60             RUBBER STOPPER           CCN000120000000120000FN00000000020220701000120000NNM   20220421122338    2H0H  00002000000000042000000093132D2    TGYOT-G 004300270014
BI00B32D2    #DGTC2229      202206097172-5632-10             DUMMY PLUG               CCN000100000000100000FN00000000020220701000100000NNM   20220421122338    2H0H  00002000000000080400000131832D2    TGYOT-G 004300270014
BI00B32D2    #DGTC2229      202206097189-2978-30             HOUSING FEMALE           CCN000015000000015000FN00000000020220701000015000NNM   20220421122338    2F0F  00000150000000966900001096932D2    TGYOT-G 005400370024
BI00B32D2    #DGTC2229      202206097189-3033                HOUSING FEMALE           CCN000012800000012800FN00000000020220701000012800NNM   20220421122338    2F0F  00000160000001211200001431232D2    TGYOT-G 005500360039
BI00B32D2    #DGTC2229      202206097189-3036                HOUSING FEMALE           CCN000004800000004800FN00000000020220701000004800NNM   20220421122338    2F0F  00000160000000921600001141632D2    TGYOT-G 005500360039
BI00B32D2    #DGTC2229      202206097189-3037                HOUSING FEMALE           CCN000004800000004800FN00000000020220701000004800NNM   20220421122338    2F0F  00000480000000806400001066432D2    TGYOT-G 005500360039
BI00B32D2    #DGTC2229      202206097189-3037-40             HOUSING FEMALE           CCN000004800000004800FN00000000020220701000004800NNM   20220421122338    2F0F  00000480000000901600001061632D2    TGYOT-G 005500360039
BI00B32D2    #DGTC2229      202206097289-3622-30             HOUSING FEMALE ASS'Y     CCN000001296000001296FN00000000020220701000001296NNM   20220421122338    2N0N  00000043200000839400001038432D2    TGYOT-G 005400370024
BI00B32D2    #DGTC2229      202206097289-4200-30             HOUSING FEMALE ASS'Y     CCN000002000000002000FN00000000020220701000002000NNM   20220421122338    2N0N  00000200000000926000001021032D2    TGYOT-G 005400370024
BI00B32EJ    T220420P01     202205267116-4025                TERMINAL                 CCN000016000000016000FN00000000020220501000016000NNE   20220421122338EJ  4P0P  00001600000000644800000975132EJ    EJYKBO  006400630017
BI00B32EJ    T220420P01     202205267283-7449-40             HOUSING FEMALE ASS'Y     CCN000004800000004800FN00000000020220501000004800NNE   20220421122338EJ  4N0N  00000240000001200000001410032EJ    EJYKBO  005500360039
BI00B32EJ    T220420P01     202205267116-4124-02             TERMINAL                 CCN000003000000003000FN00000000020220501000003000NNE   20220421122338EJ  4P0P  00000300000000459900000753532EJ    EJYKBO  006400630015
BI00B32EJ    T220420P01     202205267116-4100-02             TERMINAL                 CCN000030000000030000FN00000000020220501000030000NNE   20220421122338EJ  4P0P  00001500000000696000000990232EJ    EJYKBO  006400630015
BI00B32EJ    T220420P01     202205267116-4120-02             TERMINAL                 CCN000006000000006000FN00000000020220501000006000NNE   20220421122338EJ  4P0P  00000600000000780000001073632EJ    EJYKBO  006400630015
BI00B32EJ    T220420P01     202205267116-4122-02             TERMINAL                 CCN000004500000004500FN00000000020220501000004500NNE   20220421122338EJ  4P0P  00000450000000656600000950232EJ    EJYKBO  006400630015
BI00B32EJ    T220420P01     202205267116-4121-02             TERMINAL                 CCN000067500000067500FN00000000020220501000067500NNE   20220421122338EJ  4P0P  00000450000000618800000912432EJ    EJYKBO  006400630015
BI00B32EJ    T220420P01     202205267116-4112-02             TERMINAL                 CCN000036000000036000FN00000000020220501000036000NNE   20220421122338EJ  4P0P  00000600000000450000000738232EJ    EJYKBO  006400630015
BI00B32EJ    T220420P01     202205267116-4110-02             TERMINAL                 CCN000036000000036000FN00000000020220501000036000NNE   20220421122338EJ  4P0P  00000900000000594000000882232EJ    EJYKBO  006400630015
BI00B32EJ    T220420P01     202205267126-8854-02             TERMINAL                 CCN000015000000015000FN00000000020220501000015000NNE   20220421122338EJ  4P0P  00000750000000604500000889732EJ    EJYKBO  006400630015
BI00B32EJ    T220420P01     202205267126-8855-02             TERMINAL                 CCN000006000000006000FN00000000020220501000006000NNE   20220421122338EJ  4P0P  00000600000000510600000795832EJ    EJYKBO  006400630015
BI00B32EJ    T220420P01     202205267158-3166-60             WIRE SEAL                CCN000920000000920000FN00000000020220501000920000NNE   20220421122338EJ  1C0C  00004000000000104000000152432EJ    EJYKBO  002700430014
BI00B32EJ    T220420P01     202205267158-3167-80             WIRE SEAL                CCN000680000000680000FN00000000020220501000680000NNE   20220421122338EJ  1C0C  00002000000000048000000109032EJ    EJYKBO  002700430014
BI00B32EJ    T220420P01     202205267158-3168-80             SEALED                   CCN000020000000020000FN00000000020220501000020000NNE   20220421122338EJ  1C0C  00002000000000044000000092132EJ    EJYKBO  004300260014
BI00B32EJ    T220420P01     202205267158-3169-40             SEALING PLUG             CCN000200000000200000FN00000000020220501000200000NNE   20220421122338EJ  1C0C  00004000000000156000000204132EJ    EJYKBO  004300260014
BI00B32EJ    #T220420P01    202205267158-3120-90             CONNECTOR WIRE SEAL      CCN000120000000120000FN00000000020220501000120000NNE   20220421122338EJ  2C0C  00002000000000136000000194032EJ    EJYKBO  002700430014
BI00B32EJ    #T220420P01    202205267123-6423-30             CONNECTOR                CCN000004000000004000FN00000000020220501000004000NNE   20220421122338EJ  2F0F  00000200000001002000001167632EJ    EJYKBO  005600390023
BI00B32EJ    #T220420P01    202205267282-6458-40             CONNECTOR                CCN000002000000002000FN00000000020220501000002000NNE   20220421122338EJ  2N0N  00000100000001206000001350532EJ    EJYKBO  005500360039
BI00B32EJ    #T220420P01    202205267157-3952-80             RUBBER STOPPER           CCN000010000000010000FN00000000020220501000010000NNE   20220421122338EJ  2C0C  00001000000000117000000175032EJ    EJYKBO  002700430014
BI00B32EJ    @T220420P01    202205267123-4312-80             HOUSING                  CCN000003200000003200FN00000000020220501000003200NNE   20220421122338EJ  3F0F  00000080000000644200000794032EJ    EJYKBO  005500360039
BI00B32E1    #NC206A        202205127158-3003-90             RUBBER STOPPER           CCN000020000000020000FN00000000020220601000020000NNED0720220421122338    2C0C  00002000000000250000000306032E1    SPYSE   002700430014
BI00B32E2    NY206B         202205127017-1183-02             TERMINAL                 CCN000081000000081000FN00000000020220601000081000NNED0720220421122338    4P0P  00002700000001139400001307432E2    SPYSE   005100280028
BI00B32E2    NY206B         202205127114-4031                TERMINAL                 CCN000010500000010500FN00000000020220601000010500NNED0720220421122338    4P0P  00001050000000966000001294632E2    SPYSE   006400630017
BI00B32E2    NY206B         202205127116-5045-02             TERMINAL                 CCN000032000000032000FN00000000020220601000032000NNED0720220421122338    4P0P  00001600000000678400001007132E2    SPYSE   006400630017
BI00B32E2    NY206B         202205127158-3006-90             RUBBER STOPPER           CCN000160000000160000FN00000000020220601000160000NNED0720220421122338    1C0C  00002000000000330600000386032E2    SPYSE   002700430014
BI00B32E2    #NY206B        202205127158-3004-40             RUBBER STOPPER           CCN000020000000020000FN00000000020220601000020000NNED0720220421122338    2C0C  00002000000000234000000306332E2    SPYSE   002700430014
BI00B32G7    JJ2206C MW     202205267114-5753-02             TERMINAL                 CCN000027000000027000FN00000000020220601000027000NNE   20220421130824    4P0P  00002700000000847800001141432G7    JIJAI   006400630015
BI00B32G7    JJ2206C MW     202205267116-5044-02             TERMINAL                 CCN000016000000016000FN00000000020220601000016000NNE   20220421130824    4P0P  00001600000000641600000986332G7    JIJAI   006400630017
BI00B32G7    JJ2206C MW     202205267116-5750-02             TERMINAL                 CCN000030000000030000FN00000000020220601000030000NNE   20220421130824    4P0P  00001500000000457500000742732G7    JIJAI   006400630015
BI00B32G7    JJ2206C MW     202205267116-6041                TERMINAL                 CCN000004500000004500FN00000000020220601000004500NNE   20220421130824    4P0P  00000450000000716000001009632G7    JIJAI   006400630015
BI00B32G7    JJ2206C MW     202205267158-3070-80             RUBBER STOPPER           CCN000040000000040000FN00000000020220601000040000NNE   20220421130824    1C0C  00004000000000276000000333332G7    JIJAI   002700430014
BI00B32G7    JJ2206CMMW     202205267116-3153-08             TERMINAL                 CCN000027000000027000FN00000000020220601000027000NNE   20220421130850    4P0P  00002700000000461700000746932G7    JIJAI   006400630015
BI00B32H2    TIJ2043        202205277289-3342-30             HOUSING FEMALE ASS'Y     CCN000048000000048000FN00000000020220401000048000NNMD0420220421151938    1N0N  00000240000000686400000901432H2    HVYHV   005500360039
BI00B32H2    TIJ2054        202205067158-3009-60             RUBBER STOPPER           CCN000260000000260000FN00000000020220501000260000NNM00020220421154218    1C0C  00002000000000338000000386232H2    HVYHV   002700430014
BI00B32H2    TIJ2054        202205067282-4855                HOUSING MALE ASS'Y       CCN000016800000016800FN00000000020220501000016800NNM00020220421155405    4N0N  00000120000001063200001283232H2    HVYHV   005500360039
BI00B32H2    TIJ2054        202205067282-9391                HOUSING MALE ASS'Y       CCN000002400000001200FN00000000020220501000001200NNMD0020220421152527    4N0N  00000120000001017600001237632H2    HVYHV   005500360039
BI00B32H2    TIJ2054        202205067283-1222                CONNECTOR                CCN000003600000003600FN00000000020220501000003600NNM00020220421152712    4N0N  00000120000000852000001011032H2    HVYHV   005500360039
BI00B32H2    TIJ2054        202205067283-1289-40             CONNECTOR HOUSING        CCN000006000000006000FN00000000020220501000006000NNM00020220421152739    1N0N  00000060000000679800000824832H2    HVYHV   005400370024
BI00B32H2    TIJ2054        202205067283-4576                HOUSING FEMALE ASS'Y     CCN000062400000062400FN00000000020220501000062400NNM00020220421155441    4N0N  00000480000000651300000871332H2    HVYHV   005500360039
BI00B32H2    TIJ2054        202205067283-5845                CONNECTOR HOUSING        CCN000036000000036000FN00000000020220501000036000NNM00020220421155756    1N0N  00000600000000444000000606332H2    HVYHV   005400370024
BI00B32H2    TIJ2054        202205067283-7029-40             CONNECTOR                CCN000012000000006000FN00000000020220501000006000NNMQ0820220421152826    1N0N  00000600000001026000001200032H2    HVYHV   005600390023
BI00B32H2    TIJ2054        202205067287-1915-30             CONNECTOR ASS'Y          CCN000012000000012000FN00000000020220501000012000NNM00020220421160122    4N0N  00000240000000666500000923132H2    HVYHV   005500360039
BI00B32H2    TIJ2054        202205067382-7524-40             JOINT CONNECTOR          CCN000003600000003600FN00000000020220501000003600NNM00020220421153114    4N0N  00000120000000943200001056732H2    HVYHV   005400370024
BI00B32H2    TIJ2054        202205067386-2747                CONNECTOR ASS'Y          CCN000004000000004000FN00000000020220501000004000NNM00020220421153209    4N0N  00000200000001162000001284532H2    HVYHV   005400370024
BI00B32H2    TIJ2054        202205067470-5304                J/B COMPLETE ASS'Y       CCN000000580000000580FN00000000020220501000000580NNM00020220421153233    4J0J  00000001000000494000000661032H2    HVYHV   005400370024
BI00B32H2    TIJ205D        202205067289-3342-90             HOUSING FEMALE ASS'Y     CCN000009600000009600FN00000000020220501000009600NNED0420220421152226    1N0N  00000240000000686400000901432H2    HVYHV   005500360039
BI00B32H2    TIJ205D        202205067298-2509-30             HOUSING FEMALE ASS'Y     CCN000001200000001200FN00000000020220501000001200NNE00020220421152901    4N0N  00000120000000857500001062532H2    HVYHV   005500360039
BI00B32H2    TIJ205J        202205207283-4855                CONNECTOR HOUSING        CCN000002400000002400FN00000000020220501000002400NNED0420220421150330    4N0N  00000240000001188400001400032H2    HVYHV   005500360039
BI00B32H2    TIJ2063        202205277158-3009-60             RUBBER STOPPER           CCN000280000000280000FN00000000020220601000280000NNM00020220421154327    1C0C  00002000000000338000000386232H2    HVYHV   002700430014
BI00B32H2    TIJ2063        202205277282-4578                HOUSING MALE ASS'Y       CCN000013200000013200FN00000000020220601000013200NNM00020220421155238    4N0N  00000120000000782600000992632H2    HVYHV   005500360039
BI00B32H2    TIJ2063        202205277282-4855                HOUSING MALE ASS'Y       CCN000014400000014400FN00000000020220601000014400NNM00020220421155422    4N0N  00000120000001063200001283232H2    HVYHV   005500360039
BI00B32H2    TIJ2063        202205277283-4576                HOUSING FEMALE ASS'Y     CCN000062400000062400FN00000000020220601000062400NNM00020220421155530    4N0N  00000480000000651300000871332H2    HVYHV   005500360039
BI00B32H2    TIJ2063        202205277283-4576-30             HOUSING FEMALE ASS'Y     CCN000009600000009600FN00000000020220601000009600NNM00020220421155715    4N0N  00000480000000651300000871332H2    HVYHV   005500360039
BI00B32H2    TIJ2062        202205207283-4855                CONNECTOR HOUSING        CCN000007200000007200FN00000000020220601000007200NNM00020220421150402    4N0N  00000240000001188400001400032H2    HVYHV   005500360039
BI00B32H2    TIJ2063        202205277283-4855                CONNECTOR HOUSING        CCN000007200000007200FN00000000020220601000007200NNM00020220421150456    4N0N  00000240000001188400001400032H2    HVYHV   005500360039
BI00B32H2    TIJ2063        202205277283-5845                CONNECTOR HOUSING        CCN000042000000030000FN00000000020220601000030000NNMD0420220421155810    1N0N  00000600000000444000000606332H2    HVYHV   005400370024
BI00B32H2    TIJ2063        202205277283-5845-30             CONNECTOR HOUSING        CCN000012000000012000FN00000000020220601000012000NNM00020220421155923    1N0N  00000600000000444000000606332H2    HVYHV   005400370024
BI00B32H2    TIJ2063        202205277287-1915                CONNECTOR ASS'Y          CCN000007200000007200FN00000000020220601000007200NNM00020220421160003    4N0N  00000240000000666500000923132H2    HVYHV   005500360039
BI00B32H2    TIJ2063        202205277287-1915-30             CONNECTOR ASS'Y          CCN000009600000009600FN00000000020220601000009600NNM00020220421160137    4N0N  00000240000000666500000923132H2    HVYHV   005500360039
BI00B32H2    TIJ2062        202205207289-3342                HOUSING FEMALE ASS'Y     CCN000012000000012000FN00000000020220601000012000NNMD0420220421150706    1N0N  00000240000000686400000901432H2    HVYHV   005500360039
BI00B32H2    TIJ2063        202205277289-3342                HOUSING FEMALE ASS'Y     CCN000016800000016800FN00000000020220601000016800NNMD0020220421151454    1N0N  00000240000000686400000901432H2    HVYHV   005500360039
BI00B32H2    TIJ2063        202205277289-3342-90             HOUSING FEMALE ASS'Y     CCN000012000000012000FN00000000020220601000012000NNMD0420220421152323    1N0N  00000240000000686400000901432H2    HVYHV   005500360039
BI00B32H2    TIJ2062        202205207298-2509-30             HOUSING FEMALE ASS'Y     CCN000001200000001200FN00000000020220601000001200NNM00020220421152918    4N0N  00000120000000857500001062532H2    HVYHV   005500360039
BI00B32H2    TIJ2063        202205277298-2509-30             HOUSING FEMALE ASS'Y     CCN000001200000001200FN00000000020220601000001200NNM00020220421152935    4N0N  00000120000000857500001062532H2    HVYHV   005500360039
BI00B32H2    TIJ2062        202205207382-7524-40             JOINT CONNECTOR          CCN000002400000002400FN00000000020220601000002400NNM00020220421153131    4N0N  00000120000000943200001056732H2    HVYHV   005400370024
BI00B32H2    TIJ2063        202205277382-7524-40             JOINT CONNECTOR          CCN000003600000003600FN00000000020220601000003600NNM00020220421153146    4N0N  00000120000000943200001056732H2    HVYHV   005400370024
BI00B32H2    TIJ2063        202205277470-5304                J/B COMPLETE ASS'Y       CCN000000200000000200FN00000000020220601000000200NNM00020220421153315    4J0J  00000001000000494000000661032H2    HVYHV   005400370024
BI00B32H2    #TIJ2064       202206027198-5394                HOUSING FEMALE           CCN000024000000024000FN00000000020220601000024000NNMQ0020220421122338    2F0F  00000480000000489700000688832H2    HVYHV   005500360039
BI00B32J1    393821         202205307114-4231-02             TERMINAL                 CCN000018000000018000FN00000000020220501000018000NNE   20220421122338    4P0P  00001800000000554400000848032J1    UKYEL-BL006400630015
BI00B32J1    393822         202206067114-1475                TERMINAL                 CCN000013500000013500FN00000000020220601000013500NNE   20220421122338    4P0P  00001350000000480600000774232J1    UKYEL-BL006400630015
BI00B32J1    393822         202206067116-1180                TERMINAL                 CCN000019500000019500FN00000000020220601000019500NNE   20220421122338    1P0P  00001950000000618200000903432J1    UKYEL-BL006400630015
BI00B32J1    393822         202206067116-4020                TERMINAL                 CCN000013500000013500FN00000000020220601000013500NNE   20220421122338    4P0P  00001350000000513000000798232J1    UKYEL-BL006400630015
BI00B32J1    393822         202206067283-7023-10             CONNECTOR                CCN000005000000005000FN00000000020220601000005000NNE   20220421122338    4N0N  00000250000001360000001550032J1    UKYEL-BL005500360039
BI00B32J1    #393822        202206067183-7725-40             HOUSING                  CCN000006000000006000FN00000000020220601000006000NNE   20220421122338    2F0F  00000600000000840000001040032J1    UKYEL-BL005600390040
BI00B32N1    NST2119BCU     202205197114-1301                TERMINAL                 CCN000058500000058500FN00000000020220601000058500NNE   20220421143107    4P0P  00001950000000614300000907932N1    TAYIPL  006400630015
BI00B32N1    NST2119BCU     202205197114-1470                TERMINAL                 CCN000049500000049500FN00000000020220601000049500NNE   20220421143107    4P0P  00001650000000544500000838732N1    TAYIPL  006400630015
BI00B32N1    NST2119BCU     202205197114-4021                TERMINAL                 CCN000015000000015000FN00000000020220601000015000NNE   20220421143107    4P0P  00001500000000670500000964132N1    TAYIPL  006400630015
BI00B32N1    NST2119BCU     202205197114-4031                TERMINAL                 CCN000084000000084000FN00000000020220601000084000NNE   20220421143107    4P0P  00001050000000966000001294632N1    TAYIPL  006400630017
BI00B32N1    NST2119BCU     202205197114-4032                TERMINAL                 CCN000007500000007500FN00000000020220601000007500NNE   20220421143107    4P0P  00000750000000735000001063632N1    TAYIPL  006400630017
BI00B32N1    NST2119BCU     202205197116-4037                TERMINAL                 CCN000012000000012000FN00000000020220601000012000NNE   20220421143107    4P0P  00000600000000600000000894232N1    TAYIPL  006400630015
BI00B32N1    NST2119BCU     202205197114-4416-02             TERMINAL MALE            CCN000405000000405000FN00000000020220601000405000NNE   20220421143107    4P0P  00002700000000442800000731032N1    TAYIPL  006400630015
BI00B32N1    NST2119BCU     202205197116-1685-02             TERMINAL                 CCN000360000000360000FN00000000020220601000360000NNE   20220421143107    4P0P  00002400000000897600001065232N1    TAYIPL  005100280028
BI00B32N1    NST2119BCU     202205197116-1686-02             TERMINAL                 CCN000042000000042000FN00000000020220601000042000NNE   20220421143107    4P0P  00002100000000869400001021632N1    TAYIPL  005100280028
BI00B32N1    NST2119BCU     202205197116-2892-02             TERMINAL                 CCN000120000000120000FN00000000020220601000120000NNE   20220421143107    4P0P  00001200000000818400000981832N1    TAYIPL  005100280028
BI00B32N1    NST2119BCU     202205197116-2893-02             TERMINAL                 CCN000108000000108000FN00000000020220601000108000NNE   20220421143107    4P0P  00001200000000895200001058632N1    TAYIPL  005100280028
BI00B32N1    NST2119BCU     202205197116-4103-02             TERMINAL                 CCN000072000000072000FN00000000020220601000072000NNE   20220421143107    4P0P  00001200000000571200000859432N1    TAYIPL  006400630015
BI00B32N1    NST2119BCU     202205197116-4114-02             TERMINAL                 CCN000021000000021000FN00000000020220601000021000NNE   20220421143107    4P0P  00001050000000693000000981232N1    TAYIPL  006400630015
BI00B32N1    NST2119BCU     202205197116-4122-02             TERMINAL                 CCN000063000000063000FN00000000020220601000063000NNE   20220421143107    4P0P  00000450000000656600000950232N1    TAYIPL  006400630015
BI00B32N1    NST2119BCU     202205197116-5751-02             TERMINAL                 CCN000144000000144000FN00000000020220601000144000NNE   20220421143107    4P0P  00001200000000379200000664432N1    TAYIPL  006400630015
BI00B32N1    NST2119BCU     202205197126-8853-02             TERMINAL                 CCN000270000000270000FN00000000020220601000270000NNE   20220421143107    4P0P  00000750000000562500000847732N1    TAYIPL  006400630015
BI00B32N1    NST2119BCU     202205197157-6287-70             SPACER                   CCN000070000000070000FN00000000020220601000070000NNE   20220421143107    1F0F  00007000000000700000000963032N1    TAYIPL  005500360039
BI00B32N1    NST2119BCU     202205197158-3006-90             RUBBER STOPPER           CCN000700000000700000FN00000000020220601000700000NNE   20220421143107    1C0C  00002000000000330600000386032N1    TAYIPL  002700430014
BI00B32N1    NST2119BCU     202205197158-3167-80             WIRE SEAL                CCN003360000003360000FN00000000020220601003360000NNE   20220421143107    1C0C  00002000000000048000000109032N1    TAYIPL  002700430014
BI00B32N1    NST2119BCU     202205197172-5540-80             SEALED WIRE SEAL         CCN000020000000020000FN00000000020220601000020000NNE   20220421143107    1C0C  00002000000000186000000234432N1    TAYIPL  004300270014
BI00B32N1    NST2119BCU     202205197282-7028-30             CONNECTOR                CCN000012000000012000FN00000000020220601000012000NNE   20220421143107    1N0N  00000200000001124000001212532N1    TAYIPL  005600390040
BI00B32N1    NST2119BCU     202205197283-1144-30             CONNECTOR                CCN000002400000002400FN00000000020220601000002400NNE   20220421143107    4N0N  00000240000000602200000866132N1    TAYIPL  005500360039
BI00B32N1    NST2119BCU     202205197288-3335-30             HOUSING MALE             CCN000006000000006000FN00000000020220601000006000NNE   20220421143107    4N0N  00000150000000867000001012032N1    TAYIPL  005400370024
BI00B32N1    NST2119BCU     202205197B58-3070-80             RUBBER STOPPER           CCN000320000000320000FN00000000020220601000320000NNE   20220421143107    1C0C  00004000000000276000000333032N1    TAYIPL  004300270014
BI00B32N1    #NST2119BCU    202205197157-7812                SEAL RUBBER              CCN000290000000290000FN00000000020220601000290000NNE   20220421143055    2C0C  00001000000000137000000202032N1    TAYIPL  002700430014
BI00B32N1    #NST2119BCU    202205197123-7923-40             CONNECTOR                CCN000001500000001500FN00000000020220601000001500NNE   20220421143055    2F0F  00000150000001492500001665932N1    TAYIPL  005600390040
BI00B32N1    #NST2119BCU    202205197157-3790-90             WIRE SEAL                CCN000060000000060000FN00000000020220601000060000NNE   20220421143055    2C0C  00002000000000176000000232732N1    TAYIPL  002700430014
BI00B32N1    #NST2119BCU    202205197157-3950-80             SEAL RUBBER              CCN000240000000240000FN00000000020220601000240000NNE   20220421143055    2C0C  00004000000000154000000440332N1    TAYIPL  002700430014
BI00B32N1    #NST2119BCU    202205197157-3952-80             RUBBER STOPPER           CCN000020000000020000FN00000000020220601000020000NNE   20220421143055    2C0C  00001000000000117000000175032N1    TAYIPL  002700430014
BI00B32N1    #NST2119BCU    202205197158-3003-90             RUBBER STOPPER           CCN000100000000100000FN00000000020220601000100000NNE   20220421143055    2C0C  00002000000000250000000306032N1    TAYIPL  002700430014
BI00B32N1    #NST2119BCU    202205197158-3008-80             RUBBER STOPPER           CCN000080000000080000FN00000000020220601000080000NNE   20220421143055    2C0C  00002000000000288000000343032N1    TAYIPL  004300270014
BI00B32N1    #NST2119BCU    202205197158-3120-90             CONNECTOR WIRE SEAL      CCN000020000000020000FN00000000020220601000020000NNE   20220421143055    2C0C  00002000000000136000000194032N1    TAYIPL  002700430014
BI00B32N1    #NST2119BCU    202205197158-3121-80             WIRE SEAL                CCN000700000000700000FN00000000020220601000700000NNE   20220421143055    2C0C  00002000000000118000000187332N1    TAYIPL  002700430014
BI00B32N1    #NST2119BCU    202205197183-7725-40             HOUSING                  CCN000018000000018000FN00000000020220601000018000NNE   20220421143055    2F0F  00000600000000840000001040032N1    TAYIPL  005600390040
BI00B32N2    2152103953     202205197114-4032                TERMINAL                 CCN000007500000007500FN00000000020220601000007500NNM   20220421144013    4P0P  00000750000000735000001063632N2    YWYIPLTC006400630017
BI00B32N2    2152103953     202205197116-4020                TERMINAL                 CCN000067500000067500FN00000000020220601000067500NNM   20220421144013    4P0P  00001350000000513000000798232N2    YWYIPLTC006400630015
BI00B32N2    2152103953     202205197116-4025                TERMINAL                 CCN000016000000016000FN00000000020220601000016000NNM   20220421144013    4P0P  00001600000000644800000975132N2    YWYIPLTC006400630017
BI00B32N2    2152103953     202205197116-4032                TERMINAL                 CCN000006000000006000FN00000000020220601000006000NNM   20220421144013    4P0P  00000600000000532800000818032N2    YWYIPLTC006400630015
BI00B32N2    2152103953     202205197283-1020                CONNECTOR                CCN000006000000006000FN00000000020220601000006000NNM   20220421144013    4N0N  00000600000000840000001049332N2    YWYIPLTC005600390040
BI00B32N2    2152103953     202205197286-3970                CONNECTOR HOUSING        CCN000000330000000330FN00000000020220601000000330NNM   20220421144013    1N0N  00000011000000977300001164032N2    YWYIPLTC005500360039
BI00B32N2    2152103953     202205197370-0309                J/B ASS'Y                CCN000000480000000480FN00000000020220601000000480NNM   20220421144013    1J0J  00000001600000870400001260032N2    YWYIPLTC005500360039
BI00B32N2    2152103953     202205197370-0310                J/B ASS'Y                CCN000000330000000330FN00000000020220601000000330NNM   20220421144013    1J0J  00000001000000559000000809032N2    YWYIPLTC005500360039
BI00B32N2    2152103953     202205197114-4231-02             TERMINAL                 CCN000036000000036000FN00000000020220601000036000NNM   20220421144013    4P0P  00001800000000554400000848032N2    YWYIPLTC006400630015
BI00B32N2    2152103953     202205197116-2893-02             TERMINAL                 CCN000012000000012000FN00000000020220601000012000NNM   20220421144013    4P0P  00001200000000895200001058632N2    YWYIPLTC005100280028
BI00B32N2    2152103953     202205197116-4231-02             TERMINAL                 CCN000052000000052000FN00000000020220601000052000NNM   20220421144013    4P0P  00002600000000683800001012532N2    YWYIPLTC006400630017
BI00B32N2    2152103953     202205197140-1977-30             UPPER COVER              CCN000000370000000370FN00000000020220601000000370NNM   20220421144013    1F0F  00000001000000099500000249532N2    YWYIPLTC005600390040
BI00B32N2    #2152103953    202205197183-2413                CONNECTOR HOUSING        CCN000004800000004800FN00000000020220601000004800NNM   20220421144008    2F0F  00000480000000478100000760032N2    YWYIPLTC005500360039
BI00B32N2    @2152103953    202205197183-2510                HOUSING                  CCN000003000000003000FN00000000020220601000003000NNM   20220421144011    3F0F  00000300000001063500001159032N2    YWYIPLTC005400370024
BI00B32R7    #R-TAP220190   202205127186-8845                HOUSING MALE             CCN000015000000015000FN00000000020220501000015000NNE   20220421122338    2F0F  00000300000000690000000801532R7    IVYCIC  005400370024
BI00A32U9    TPA218         202204087114-4030                TERMINAL                 CCN000010500000010500FY00001050020220501000000000NNM00020220421112540U9  4P0P  00001050000000926100001254732U9    YNYNA-E 006400630017
BI00A32U9    TPA218         202204087172-5540-80             SEALED WIRE SEAL         CCN000040000000040000FY00004000020220501000000000NNM00020220421112540U9  1C0C  00002000000000186000000234432U9    YNYNA-E 004300270014
BI00A32U9    TPA218         202204087196-0805-02             TERMINAL FEMALE          CCN000022500000022500FY00002250020220501000000000NNM00020220421112540U9  4P0P  00002250000000558000000843232U9    YNYNA-E 006400630015
BI00A32U9    TPA218         202204087222-4220-30             CONNECTOR                CCN000002250000002250FY00000225020220501000000000NNM00020220421112540U9  4N0N  00000075000001219000001384032U9    YNYNA-E 005600390040
BI00A32U9    TPA218         202204087282-5684-10             CONNECTOR                CCN000001200000001200FY00000120020220501000000000NNM00020220421112540U9  4N0N  00000120000001477000001656032U9    YNYNA-E 005600390040
BI00A32U9    TPA218         202204087298-1145-4W             SQUIB SUB ASS'Y          CCN000010000000010000FY00001000020220501000000000NNM00020220421112540U9  4N0N  00001000000000787900000944932U9    YNYNA-E 005400370024
BI00A32U9    TPA219         202204087116-1257-02             TERMINAL                 CCN000024000000024000FY00002400020220501000000000NNM00020220421112615U9  1P0P  00002400000000518400000847132U9    YNYNA-E 006400630017
BI00A32U9    TPA219         202204087116-4231-02             TERMINAL                 CCN000338000000338000FY00033800020220501000000000NNM00020220421112615U9  4P0P  00002600000000683800001012532U9    YNYNA-E 006400630017
BI00A32U9    TPA219         202204087174-1849-70             COVER                    CCN000025000000025000FY00002500020220501000000000NNM00020220421112615U9  1F0F  00002500000000622500000761932U9    YNYNA-E 005400370024
BI00A32U9    TPA219         202204087298-1186-70             SQUIB SUB ASS'Y          CCN000010000000010000FY00001000020220501000000000NNM00020220421112615U9  4N0N  00001000000000650000000774532U9    YNYNA-E 005400370024
BI00A32U9    TPA219         202204087298-1187-30             SHUNT RING ASSEMBLY      CCN000010000000010000FY00001000020220501000000000NNM00020220421112615U9  4N0N  00001000000000647000000769532U9    YNYNA-E 005400370024
BI00A32U9    TPA219         202204087158-3006-90             RUBBER STOPPER           CCN000040000000040000FY00004000020220501000000000NNM00020220421112615U9  1C0C  00002000000000330600000386032U9    YNYNA-E 002700430014
BI00A32U9    TP0392S        202204087282-5684-10             CONNECTOR                CCN000001200000001200FY00000120020220501000000000NNE00020220421112642U9  4N0N  00000120000001477000001656032U9    YNYNA-E 005600390040
BI00A32U9    TPA218         202204087282-5574-10             CONNECTOR                CCN000020000000020000FY00002000020220501000000000NNM00020220421112540U9  4N0N  00000080000001235000001423032U9    YNYNA-E 005600390040
BI00A32U9    TPA218         202204087158-3169-40             SEALING PLUG             CCN000240000000240000FY00024000020220501000000000NNM00020220421112540U9  1C0C  00004000000000156000000204132U9    YNYNA-E 004300260014
BI00B32W4    4500191328     202205127283-1030                CONNECTOR                CCN000006000000006000FN00000000020220501000006000NNED0020220421161310W4654N0N  00000600000000988000001172032W465  HJYHK   005500360039
BI00B32W4    4500191704     202205127283-1030                CONNECTOR                CCN000006000000006000FN00000000020220601000006000NNED0020220421161337W4654N0N  00000600000000988000001172032W465  HJYHK   005500360039
BI00B32W4    4500192481     202206147158-3169-40             SEALING PLUG             CCN000080000000080000FN00000000020220601000080000NNE   20220421161812W41 1C0C  00004000000000156000000204132W41   HJYHK   004300260014
BI00B32W4    4500192481     202206147158-3166-60             WIRE SEAL                CCN000120000000120000FN00000000020220601000120000NNE   20220421161812W41 1C0C  00004000000000104000000152432W41   HJYHK   002700430014
BI00B32W4    #4500192481    202206147172-5938-80             SEALED                   CCN000015000000015000FN00000000020220601000015000NNE   20220421161803W41 2H0H  00000500000000442500000490732W41   HJYHK   004300270014
BI00B32W4    4500192486     202206147158-3166-60             WIRE SEAL                CCN000080000000080000FN00000000020220601000080000NNE   20220421161835W41 1C0C  00004000000000104000000152432W41   HJYHK   002700430014
BI00B32W4    4500192486     202206147116-4102-02             TERMINAL                 CCN000012000000012000FN00000000020220601000012000NNE   20220421161835W41 4P0P  00001200000000553200000841432W41   HJYHK   006400630015
BI00B32W4    4500192486     202206147283-5545-10             CONNECTOR                CCN000001200000001200FN00000000020220601000001200NNE   20220421161835W41 4N0N  00000060000001279000001409232W41   HJYHK   005600390040
BI00A32W4    4500192491     202210207283-5574-10             CONNECTOR                CCN000000800000000800FN00000000020221001000000800NNE   20220421161936W4804N0N  00000080000001235000001435232W480  HJYHK-J 005500360039
BI00A32W4    4500192503     202205267282-7028-30             CONNECTOR                CCN000002000000002000FN00000000020220501000002000NNE   20220421162005W44 1N0N  00000200000001124000001212532W44   HJYHK   005600390040
BI00A32W4    4500192504     202206027116-4120-02             TERMINAL                 CCN000006000000006000FN00000000020220601000006000NNE   20220421162031W4804P0P  00000600000000780000001073632W480  HJYHK-J 006400630015
BI00A32W4    4500192504     202206027116-4122-02             TERMINAL                 CCN000013500000013500FN00000000020220601000013500NNE   20220421162031W4804P0P  00000450000000656600000950232W480  HJYHK-J 006400630015
BI00A32W4    4500192504     202206027283-5548-30             CONNECTOR                CCN000001500000001500FN00000000020220601000001500NNE   20220421162031W4804N0N  00000150000001109000001302032W480  HJYHK-J 005600390040
BI00A32W4    #4500192506    202205267123-6347                CONNECTOR HOUSING        CCN000001600000001600FN00000000020220501000001600NNE   20220421162057W4802F0F  00000160000000647000000904832W480  HJYHK-J 005500360039
BI00B32W4    4500192513     202210207288-9556-30             SEALED ASSY MALE         CCN000109440000109440FN00000000020221001000109440NNE   20220421162129W4O14N0N  00000072000000537900000786332W4O1  HJYHK-J 005500360039
BI00B32W4    4500192514     202206097116-5044-02             TERMINAL                 CCN000016000000016000FN00000000020220601000016000NNE   20220421162203W48 4P0P  00001600000000641600000986332W48   HJYHK   006400630017
BI00B32W4    #4500192514    202206097183-2418                CONNECTOR HOUSING        CCN000004800000004800FN00000000020220601000004800NNE   20220421162159W48 2F0F  00000480000000917000001477032W48   HJYHK   005500360039
BI00B32W4    4500192515     202206167158-3166-60             WIRE SEAL                CCN000040000000040000FN00000000020220601000040000NNE   20220421162222W48 1C0C  00004000000000104000000152432W48   HJYHK   002700430014
BI00B32W4    4500192535     202206097116-1685-02             TERMINAL                 CCN000216000000216000FN00000000020220601000216000NNE   20220421162330W4594P0P  00002400000000897600001065232W459  HJYHK   005100280028
BI00B32W4    4500192535     202206097126-8853-02             TERMINAL                 CCN000330000000330000FN00000000020220601000330000NNE   20220421162330W4594P0P  00000750000000562500000847732W459  HJYHK   006400630015
BI00B32W4    4500192535     202206097126-8854-02             TERMINAL                 CCN000210000000210000FN00000000020220601000210000NNE   20220421162330W4594P0P  00000750000000604500000889732W459  HJYHK   006400630015
BI00B32W4    4500192535     202206097126-8855-02             TERMINAL                 CCN000210000000210000FN00000000020220601000210000NNE   20220421162330W4594P0P  00000600000000510600000795832W459  HJYHK   006400630015
BI00B32W4    4500192535     202206097116-1686-02             TERMINAL                 CCN000105000000105000FN00000000020220601000105000NNE   20220421162330W4594P0P  00002100000000869400001021632W459  HJYHK   005100280028
BI00B32W4    4500192535     202206097114-5096-02             TERMINAL                 CCN000030000000030000FN00000000020220601000030000NNE   20220421162330W4594P0P  00003000000000498000000792232W459  HJYHK   006400630015
BI00B32W4    4500192535     202206097116-2892-02             TERMINAL                 CCN000108000000108000FN00000000020220601000108000NNE   20220421162330W4594P0P  00001200000000818400000981832W459  HJYHK   005100280028
BI00B32W4    4500192535     202206097116-2893-02             TERMINAL                 CCN000192000000192000FN00000000020220601000192000NNE   20220421162330W4594P0P  00001200000000895200001058632W459  HJYHK   005100280028
BI00B32W4    4500192535     202206097282-4855                HOUSING MALE ASS'Y       CCN000007200000007200FN00000000020220601000007200NNE   20220421162330W4594N0N  00000120000001063200001283232W459  HJYHK   005500360039
BI00B32W4    4500192535     202206097283-7029-40             CONNECTOR                CCN000036000000036000FN00000000020220601000036000NNE   20220421162330W4591N0N  00000600000001026000001200032W459  HJYHK   005600390023
BI00B32W4    4500192535     202206097289-9553-50             SEALED ASSY FEMALE       CCN000017640000017640FN00000000020220601000017640NNE   20220421162330W4594N0N  00000294000001108100001520632W459  HJYHK   005500360039
BI00B32W4    4500192535     202206097158-3006-90             RUBBER STOPPER           CCN000180000000180000FN00000000020220601000180000NNE   20220421162330W4591C0C  00002000000000330600000386032W459  HJYHK   002700430014
BI00B32W4    #4500192535    202206097282-1030                CONNECTOR MALE ASS'Y     CCN000008000000008000FN00000000020220601000008000NNE   20220421162326W4592N0N  00000100000000365000000487532W459  HJYHK   005400370024
BI00B32W4    #4500192535    202206097283-8226                CONNECTOR                CCN000004000000004000FN00000000020220601000004000NNE   20220421162326W4592N0N  00000200000000820000001008032W459  HJYHK   005400370024
BI00B32W4    #4500192535    202206097157-3821                RUBBER STOPPER           CCN000080000000080000FN00000000020220601000080000NNE   20220421162326W4592C0C  00002000000000176000000238032W459  HJYHK   002700430014
BI00B32W4    #4500192535    202206097174-1760-50             CAP                      CCN000018000000018000FN00000000020220601000018000NNE   20220421162326W4592F0F  00000300000000813600000922632W459  HJYHK   005400370024
BI00B32W4    4500192537     202208117289-9553-30             SEALED ASSY FEMALE       CCN000085260000085260FN00000000020220801000085260NNE   20220421162405W4594N0N  00000294000001109000001521532W459  HJYHK   005500360039
BI00B32W4    4500192538     202209087289-9553-30             SEALED ASSY FEMALE       CCN000120540000120540FN00000000020220901000120540NNE   20220421162438W4594N0N  00000294000001109000001521532W459  HJYHK   005500360039
BI00B32W4    4500192576     202205127283-1968-30             CONNECTOR                CCN000018000000018000FN00000000020220401000018000NNED0720220421163130W4511N0N  00000090000001140000001318332W451  HJ32W9  005600390040
BI00B32W4    4500192578     202206307116-1685                TERMINAL                 CCN000024000000024000FN00000000020220701000024000NNE   20220421163204W4244P0P  00002400000000892800001067232W424  HJYHK   005100280028
BI00B32W4    4500192585     202205267116-1686                TERMINAL                 CCN000021000000021000FN00000000020220501000021000NNE   20220421163249W4244P0P  00002100000000861000001045632W424  HJYHK   005100280028
BI00B32W4    4500192585     202205267116-4121-02             TERMINAL                 CCN000004500000004500FN00000000020220501000004500NNE   20220421163249W4244P0P  00000450000000618800000912432W424  HJYHK   006400630015
BI00A32W4    4500192586     202205267158-3167-80             WIRE SEAL                CCN000080000000080000FN00000000020220501000080000NNE   20220421163441W9151C0C  00002000000000048000000109032W915  HJYHK   002700430014
BI00B32W4    4500192611     202206237283-5843                CONNECTOR                CCN000003000000003000FN00000000020220601000003000NNE   20220421163801W4171N0N  00000150000000889000001132032W417  HJYHK   005600390040
BI00B32W4    #4500192611    202206237183-8927                HOUSING                  CCN000004000000004000FN00000000020220601000004000NNE   20220421163757W4172F0F  00000400000000714000000912732W417  HJYHK   005500360039
BI00B32W4    #4500192611    202206237282-3020                CONNECTOR                CCN000003000000003000FN00000000020220601000003000NNE   20220421163757W4172N0N  00000100000000984000001145432W417  HJYHK   005500360039
BI00B32W4    #4500192612    202207077147-3642-30             CLIP                     CCN000084000000084000FN00000000020220701000084000NNE   20220421163820W4172F0F  00000300000000542000000721332W417  HJYHK   005600390040
BI00A32W4    4500192622     202206237158-3167-80             WIRE SEAL                CCN000020000000020000FN00000000020220601000020000NNE   20220421163843W4761C0C  00002000000000048000000109032W476  HJYHK-J 002700430014
BI00A32W4    4500192629     202206067116-4022                TERMINAL                 CCN000013500000013500FN00000000020220601000013500NNE   20220421163905W4494P0P  00001350000000618300000903532W449  HJYHK   006400630015
BI00A32W4    4500192631     202206207116-4111-02             TERMINAL                 CCN000007500000007500FN00000000020220601000007500NNE   20220421163936W4494P0P  00000750000000529500000817732W449  HJYHK   006400630015
BI00B32W4    4500192633     202205237116-4100-02             TERMINAL                 CCN000090000000090000FN00000000020220601000090000NNE   20220421164008W4164P0P  00001500000000696000000990232W416  HJYHK   006400630015
BI00B32W4    4500192633     202205237116-4121-02             TERMINAL                 CCN000009000000009000FN00000000020220601000009000NNE   20220421164008W4164P0P  00000450000000618800000912432W416  HJYHK   006400630015
BI00B32W4    4500192633     202205237116-4112-02             TERMINAL                 CCN000042000000042000FN00000000020220601000042000NNE   20220421164008W4164P0P  00000600000000450000000738232W416  HJYHK   006400630015
BI00B32W4    4500192633     202205237116-4025                TERMINAL                 CCN000016000000016000FN00000000020220601000016000NNE   20220421164008W4164P0P  00001600000000644800000975132W416  HJYHK   006400630017
BI00B32W4    4500192633     202205237283-7028-30             CONNECTOR                CCN000003000000003000FN00000000020220601000003000NNE   20220421164008W4164N0N  00000300000001452000001681332W416  HJYHK   005600390040
BI00B32W4    4500192633     202205237158-3166-60             WIRE SEAL                CCN000040000000040000FN00000000020220601000040000NNE   20220421164008W4161C0C  00004000000000104000000152432W416  HJYHK   002700430014
BI00B32W4    4500192633     202205237158-3169-40             SEALING PLUG             CCN000040000000040000FN00000000020220601000040000NNE   20220421164008W4161C0C  00004000000000156000000204132W416  HJYHK   004300260014
BI00B32W4    4500192633     202205237116-4103-02             TERMINAL                 CCN000012000000012000FN00000000020220601000012000NNE   20220421164008W4164P0P  00001200000000571200000859432W416  HJYHK   006400630015
BI00B32W4    4500192633     202205237283-1020                CONNECTOR                CCN000012000000012000FN00000000020220601000012000NNE   20220421164008W4164N0N  00000600000000840000001049332W416  HJYHK   005600390040
BI00B32W4    @4500192633    202205237183-8049                CONNECTOR HOUSING        CCN000004000000004000FN00000000020220601000004000NNE   20220421164003W4163F0F  00000400000000583600000740032W416  HJYHK   005400370024
BI00B32W4    4500192635     202206027288-9556-30             SEALED ASSY MALE         CCN000010080000010080FN00000000020220601000010080NNE   20220421164024W4O74N0N  00000072000000537900000786332W4O7  H YHK-J 005500360039
BI00A32W4    #4500192655    202205197282-8395-40             CONNECTOR                CCN000001000000001000FN00000000020220501000001000NNE   20220421164047W4332N0N  00000100000001009000001188032W433  HJYHK   005500360039
BI00B32W9    #4500192533    202205247283-8398-40             CONNECTOR                CCN000006160000006160FN00000000020220501000006160NNE   20220421162300W9  2N0N  00000154000001007000001171332W9    HKYHK   005600390023
BI00B32W9    #4500192556    202211087283-8398-40             CONNECTOR                CCN000023100000023100FN00000000020221101000023100NNE   20220421162512W9  2N0N  00000154000001007000001171332W9    HKYHK   005600390023
BI00B32W9    #4500192557    202210117283-8398-40             CONNECTOR                CCN000023100000023100FN00000000020221001000023100NNE   20220421162545W9  2N0N  00000154000001007000001171332W9    HKYHK   005600390023
BI00B32W9    #4500192558    202209067283-8398-40             CONNECTOR                CCN000024640000024640FN00000000020220901000024640NNE   20220421162618W9  2N0N  00000154000001007000001171332W9    HKYHK   005600390023
BI00B32W9    #4500192559    202208097283-8398-40             CONNECTOR                CCN000024640000024640FN00000000020220801000024640NNE   20220421162652W9  2N0N  00000154000001007000001171332W9    HKYHK   005600390023
BI00B32W9    #4500192560    202207127283-8398-40             CONNECTOR                CCN000024640000024640FN00000000020220701000024640NNE   20220421162719W9  2N0N  00000154000001007000001171332W9    HKYHK   005600390023
BI00B32W9    #4500192561    202206077283-8398-40             CONNECTOR                CCN000024640000024640FN00000000020220601000024640NNED0720220421162918W9  2N0N  00000154000001007000001171332W9    HKYHK   005600390023
BI00B32W9    #4500192567    202205107283-8397-40             CONNECTOR                CCN000003080000003080FN00000000020220401000003080NNED0720220421163014W9  2N0N  00000154000001007000001222732W9    HKYHK   005600390023
BI00B32W9    4500192593     202206147116-4231-02             TERMINAL                 CCN000026000000026000FN00000000020220601000026000NNE   20220421163354W9  4P0P  00002600000000683800001012532W9    HKYHK   006400630017
BI00B32W9    4500192593     202206147116-4022                TERMINAL                 CCN000013500000013500FN00000000020220601000013500NNE   20220421163354W9  4P0P  00001350000000618300000903532W9    HKYHK   006400630015
BI00B32W9    4500192593     202206147283-5846                HOUSING                  CCN000001500000001500FN00000000020220601000001500NNE   20220421163354W9  1N0N  00000150000000885000001102032W9    HKYHK   005600390040
BI00B32Y4    #STH32095      202205197282-8395-40             CONNECTOR                CCN000004000000004000FN00000000020220401000004000NNED0720220421122338    2N0N  00000100000001009000001188032Y4    BIYAB-I 005500360039
BI00B32Y4    BTH32101       202205197158-3166-60             WIRE SEAL                CCN000014000000040000FN00000000020220401000040000NNED0720220421122338    1C0C  00004000000000104000000152432Y4    BIYAB-I 002700430014
BI00B32Y4    #BTH32102      202205197158-3374-90             CONNECTOR WIRE SEAL      CCN000040000000040000FN00000000020220401000040000NNED0720220421122338    2H0H  00002000000000172000000229332Y4    BIYAB-I 002700430014
BI00B32Y4    #BTH32102      202205197158-3376-50             CONNECTOR WIRE SEAL      CCN000100000000100000FN00000000020220401000100000NNED0720220421122338    2C0C  00002000000000184000000240732Y4    BIYAB-I 002700430014
BI00B32Y4    #BTH32102      202205197282-8395-40             CONNECTOR                CCN000011000000011000FN00000000020220401000011000NNED0720220421122338    2N0N  00000100000001009000001188032Y4    BIYAB-I 005500360039
BI00B32Y4    #BTH32102      202205197283-8397-40             CONNECTOR                CCN000003080000003080FN00000000020220401000003080NNED0720220421122338    2N0N  00000154000001007000001222732Y4    BIYAB-I 005600390023
BI00B32Y4    #BTH32102      202205197283-8398-40             CONNECTOR                CCN000012320000012320FN00000000020220401000012320NNED0720220421122338    2N0N  00000154000001007000001171332Y4    BIYAB-I 005600390023
BI00B32Y4    MTH32101       202206027196-0104-02             TERMINAL                 CCN000038000000038000FN00000000020220401000038000NNE   20220421122338    4P0P  00003800000000570000000956432Y4    BIYAB-I 006400630017
BI00B32Y4    MTH32101       202206027288-5000                HOUSING MALE ASS'Y       CCN000010752000010752FN00000000020220401000010752NNE   20220421122338    1N0N  00000033600000825200001035232Y4    BIYAB-I 005400370024
BI00B32Y4    MTH32101       202206027289-4696-30             HOUSING FEMALE ASS'Y     CCN000006000000006000FN00000000020220401000006000NNE   20220421122338    4N0N  00000200000000913400001055432Y4    BIYAB-I 005400370024
BI00B32Y4    MTH32101       202206027289-5000                HOUSING FEMALE ASS'Y     CCN000009424000009424FN00000000020220401000009424NNE   20220421122338    1N0N  00000030400000549000000759032Y4    BIYAB-I 005400370024
BI00B32Y4    #MTH32101      202206027174-1164                COVER                    CCN000012000000012000FN00000000020220401000012000NNE   20220421122338    2F0F  00000080000000592000000712032Y4    BIYAB-I 005500360039
