BI00B1200    2399T51C20     202201067289-6597-70             HOUSING FEMALE ASS'Y     CCN000010800000010800FN00000000020220101000010800NNM00020211227121342    4N0N  0000021600000128950000153951200    YCYC    005500360039
BI00A1200    2399T51921     202112257289-5979-30             HOUSING FEMALE ASS'Y     PCN000004032000004032FY00000403220211101000000000NNMD0220211227102115    1N0N  0000002520000085470000106471200    YCYC    005400370024
BI00B1200    2399T51C33     202201137298-2853-30             HOUSING FEMALE ASS'Y     CCN000000480000000480FN00000000020220101000000480NNEM0020211227134300    4N0N  0000002400000109490000136091200    YCYC    005500360039
BI00B1200    2399T51C34     202201137298-2853-30             HOUSING FEMALE ASS'Y     CCN000000480000000480FN00000000020220101000000480NNEM0020211227134242    4N0N  0000002400000109490000136091200    YCYC    005500360039
BI00B1200    8100T52101     202201067172-5540-80             SEALED WIRE SEAL         CCN000020000000020000FN00000000020220301000020000NNMD0020211227121342    1C0C  0000200000000018600000023441200    YCYC    004300270014
BI00B1200    8670T52101     202203037196-1103-02             TERMINAL                 CCN000022500000022500FN00000000020220301000022500NNE   20211227121342    4P0P  0000225000000042980000071501200    YCYC    006400630015
BI00B1200    8670T52101     202203037196-1104-02             TERMINAL                 CCN000022500000022500FN00000000020220301000022500NNE   20211227121342    4P0P  0000225000000044100000072621200    YCYC    006400630015
BI00B1200    #8670T52101    202203037172-5629-80             RUBBER STOPPER           CCN000040000000040000FN00000000020220301000040000NNE   20211227121342    2H0H  0000200000000006000000011111200    YCYC    004300270014
BI00B1200    8670T52102     202203107137-3047-30             UNIT PACKING             CCN000002000000002000FN00000000020220401000002000NNE   20211227121342    1C0C  0000010000000017050000021891200    YCYC    002700430014
BI00B1200    8670T52102     202203107172-5403-30             SEALED PACKING           CCN000004000000004000FN00000000020220401000004000NNE   20211227121342    1C0C  0000040000000065360000070171200    YCYC    004300270014
BI00B1200    8670T52102     202203107196-1103-02             TERMINAL                 CCN000045000000045000FN00000000020220401000045000NNE   20211227121342    4P0P  0000225000000042980000071501200    YCYC    006400630015
BI00B1200    8670T52102     202203107196-1104-02             TERMINAL                 CCN000022500000022500FN00000000020220401000022500NNE   20211227121342    4P0P  0000225000000044100000072621200    YCYC    006400630015
BI00B1200    8670T52102     202203107288-6547                CONNECTOR MALE ASS'Y     CCN000000750000000750FN00000000020220401000000750NNE   20211227121342    4N0N  0000007500000120530000134031200    YCYC    005400370024
BI00B1200    #8670T52102    202203107172-5629-80             RUBBER STOPPER           CCN000020000000020000FN00000000020220401000020000NNE   20211227121342    2H0H  0000200000000006000000011111200    YCYC    004300270014
BI00B1200    #8670T52102    202203107172-5630-40             RUBBER STOPPER           CCN000020000000020000FN00000000020220401000020000NNE   20211227121342    2H0H  0000200000000004400000009511200    YCYC    004300270014
BI00B1200    #8670T52102    202203107289-2919-30             HOUSING FEMALE ASS'Y     CCN000001500000001500FN00000000020220401000001500NNE   20211227121342    2N0N  0000015000000090750000103451200    YCYC    005400360024
BI00B1200    8670T52103     202203177137-3047-30             UNIT PACKING             CCN000003000000003000FN00000000020220401000003000NNE   20211227121342    1C0C  0000010000000017050000021891200    YCYC    002700430014
BI00B1200    8670T52103     202203177172-5402-30             SEAL RUBBER              CCN000008000000008000FN00000000020220401000008000NNE   20211227121342    1C0C  0000080000000045760000050601200    YCYC    004300270014
BI00B1200    8670T52103     202203177172-5403-30             SEALED PACKING           CCN000004000000004000FN00000000020220401000004000NNE   20211227121342    1C0C  0000040000000065360000070171200    YCYC    004300270014
BI00B1200    8670T52103     202203177196-1103-02             TERMINAL                 CCN000022500000022500FN00000000020220401000022500NNE   20211227121342    4P0P  0000225000000042980000071501200    YCYC    006400630015
BI00B1200    #8670T52103    202203177172-5629-80             RUBBER STOPPER           CCN000040000000040000FN00000000020220401000040000NNE   20211227121342    2H0H  0000200000000006000000011111200    YCYC    004300270014
BI00B1200    #8670T52103    202203177172-5630-40             RUBBER STOPPER           CCN000020000000020000FN00000000020220401000020000NNE   20211227121342    2H0H  0000200000000004400000009511200    YCYC    004300270014
BI00B1200    8670T52104     202203247137-3047-30             UNIT PACKING             CCN000005000000005000FN00000000020220401000005000NNE   20211227121342    1C0C  0000010000000017050000021891200    YCYC    002700430014
BI00B1200    8670T52104     202203247172-5402-30             SEAL RUBBER              CCN000008000000008000FN00000000020220401000008000NNE   20211227121342    1C0C  0000080000000045760000050601200    YCYC    004300270014
BI00B1200    8670T52104     202203247172-5403-30             SEALED PACKING           CCN000008000000008000FN00000000020220401000008000NNE   20211227121342    1C0C  0000040000000065360000070171200    YCYC    004300270014
BI00B1200    8670T52104     202203247196-1103-02             TERMINAL                 CCN000022500000022500FN00000000020220401000022500NNE   20211227121342    4P0P  0000225000000042980000071501200    YCYC    006400630015
BI00B1200    #8670T52104    202203247172-5629-80             RUBBER STOPPER           CCN000020000000020000FN00000000020220401000020000NNE   20211227121342    2H0H  0000200000000006000000011111200    YCYC    004300270014
BI00B1200    H322D50008     202203037289-9553-30             SEALED ASSY FEMALE       CCN000002940000002940FN00000000020220401000002940NNE   20211227121342    4N0N  0000029400000110900000152151200    YCYC    005500360039
BI00B1200    H322D50009     202203037289-9553-50             SEALED ASSY FEMALE       CCN000002940000002940FN00000000020220401000002940NNE   20211227121342    4N0N  0000029400000110810000152061200    YCYC    005500360039
BI00B1200    #Y022D50013    202203177174-1314-30             SEALED COVER             CCN000002400000002400FN00000000020220401000002400NNM   20211227121342    2F0F  0000008000000076930000088931200    YCYC    005500360039
BI00B1200    #Y022D50014    202203177174-1315-30             SEALED COVER             CCN000002400000002400FN00000000020220401000002400NNM   20211227121342    2F0F  0000008000000078200000090201200    YCYC    005500360039
BI00B1200    Y022D50015     202203177196-0648-02             TERMINAL                 CCN000045000000045000FN00000000020220401000045000NNM   20211227121342    4P0P  0000150000000035550000068971200    YCYC    006400630015
BI00B1200    Y022D50016     202203177289-6523-30             HOUSING FEMALE ASS'Y     CCN000002400000002400FN00000000020220401000002400NNM   20211227121342    4N0N  0000002400000129050000162051200    YCYC    005500360039
BI00B1200    Y022D50017     202203177289-9612-30             HOUSING FEMALE ASS'Y     CCN000002400000002400FN00000000020220401000002400NNM   20211227121342    4N0N  0000002400000134880000166881200    YCYC    005500360039
BI00T32AF    @JTB2021-I     202202107183-3190                JOINT CONNECTOR          CCN000021600000021600FN00000000020220201000021600NNMD0020211227121342    3F0F  00000360000000457600000667832AF    HBYHVTB 005500360039
BI00T32AF    @JTB2021-I     202202107183-7770-40             HOUSING                  CCN000018000000018000FN00000000020220201000018000NNMD0020211227121342    3F0F  00000600000001011000001161032AF    HBYHVTB 005400370024
BI00T32AF    @JTB2021-I     202202107282-1060                HOUSING SUB ASSEMBLY     CCN000003200000003200FN00000000020220201000003200NNMD0020211227121342    3N0N  00000160000000955500001169032AF    HBYHVTB 005500360039
BI00T32AF    @JTB2021-I     202202107283-5972                CONNECTOR FEMALE         CCN000009600000009600FN00000000020220201000009600NNMD0020211227121342    3N0N  00000480000000550100000763032AF    HBYHVTB 005500360039
BI00T32AF    @JTB2021-I     202202107283-5976                CONNECTOR ASS'Y          CCN000004800000004800FN00000000020220201000004800NNMD0020211227121342    3N0N  00000480000000840000001083632AF    HBYHVTB 005500360039
BI00T32AF    @JTB2021-I     202202107283-8179                CONNECTOR HOUSING        CCN000007200000007200FN00000000020220201000007200NNMD0020211227121342    3N0N  00000240000000549600000804032AF    HBYHVTB 005500360039
BI00T32AF    @JTB2021-I     202202107287-6634                HOUSING FEMALE ASS'Y     CCN000007200000007200FN00000000020220201000007200NNMD0020211227121342    3N0N  00000240000001088400001337032AF    HBYHVTB 005500360039
BI00T32AF    @JTB2031- I    202203107183-2510                HOUSING                  CCN000021000000021000FN00000000020220301000021000NNM00020211227132621    3F0F  00000300000001063500001159032AF    HBYHVTB 005400370024
BI00T32AF    @JTB2031- I    202203107183-3190                JOINT CONNECTOR          CCN000234000000234000FN00000000020220301000234000NNM00020211227132621    3F0F  00000360000000457600000667832AF    HBYHVTB 005500360039
BI00T32AF    @JTB2031- I    202203107183-7770-40             HOUSING                  CCN000066000000066000FN00000000020220301000066000NNM00020211227132621    3F0F  00000600000001011000001161032AF    HBYHVTB 005400370024
BI00T32AF    @JTB2031- I    202203107282-1060                HOUSING SUB ASSEMBLY     CCN000003200000003200FN00000000020220301000003200NNM00020211227132621    3N0N  00000160000000955500001169032AF    HBYHVTB 005500360039
BI00T32AF    @JTB2031- I    202203107283-1556                CONNECTOR ASS'Y          CCN000148800000148800FN00000000020220301000148800NNM00020211227132621    3N0N  00000240000000755000001014032AF    HBYHVTB 005500360039
BI00T32AF    @JTB2031- I    202203107283-5972                CONNECTOR FEMALE         CCN000043200000043200FN00000000020220301000043200NNM00020211227132621    3N0N  00000480000000550100000763032AF    HBYHVTB 005500360039
BI00T32AF    @JTB2031- I    202203107283-5976                CONNECTOR ASS'Y          CCN000033600000033600FN00000000020220301000033600NNM00020211227132621    3N0N  00000480000000840000001083632AF    HBYHVTB 005500360039
BI00T32AF    @JTB2031- I    202203107283-8179                CONNECTOR HOUSING        CCN000024000000024000FN00000000020220301000024000NNM00020211227132621    3N0N  00000240000000549600000804032AF    HBYHVTB 005500360039
BI00T32AF    @JTB2031- I    202203107287-6634                HOUSING FEMALE ASS'Y     CCN000016800000016800FN00000000020220301000016800NNM00020211227132621    3N0N  00000240000001088400001337032AF    HBYHVTB 005500360039
BI00B32BG    YY2202AGMW     202201137116-4110-02             TERMINAL                 CCN000036000000036000FN00000000020220201000036000NNE   20211227121342    4P0P  00000900000000594000000882232BG    YGYYA   006400630015
BI00B32BG    YY2202AGMW     202201137116-4111-02             TERMINAL                 CCN000060000000060000FN00000000020220201000060000NNE   20211227121342    4P0P  00000750000000529500000817732BG    YGYYA   006400630015
BI00B32BG    YY2202AGMW     202201137116-4112-02             TERMINAL                 CCN000042000000042000FN00000000020220201000042000NNE   20211227121342    4P0P  00000600000000450000000738232BG    YGYYA   006400630015
BI00B32B1    A22011         202202117114-4032                TERMINAL                 CCN000015000000015000FN00000000020220401000015000NNM   20211227121342B1  4P0P  00000750000000735000001063632B1    AXARNE-M006400630017
BI00B32B1    A22011         202202117158-3168-80             SEALED                   CCN000020000000020000FN00000000020220401000020000NNM   20211227121342B1  1C0C  00002000000000044000000092132B1    AXARNE-M004300260014
BI00B32B1    A22011         202202117282-5553-30             CONNECTOR                CCN000003000000003000FN00000000020220401000003000NNM   20211227121342B1  4N0N  00000100000001010000001187332B1    AXARNE-M005500360039
BI00B32B1    A22011         202202117282-6448-40             CONNECTOR                CCN000006400000006400FN00000000020220401000006400NNM   20211227121342B1  4N0N  00000080000000887000001152732B1    AXARNE-M005600390040
BI00B32B1    #A22011        202202117157-3821                RUBBER STOPPER           CCN000020000000020000FN00000000020220401000020000NNM   20211227121342B1  2C0C  00002000000000176000000238032B1    AXARNE-M002700430014
BI00B32B1    #A22011        202202117283-8226-30             CONNECTOR                CCN000006000000006000FN00000000020220401000006000NNM   20211227121342B1  2N0N  00000200000000820000001008032B1    AXARNE-M005400370024
BI00B32B1    #A22011        202202117283-8397-40             CONNECTOR                CCN000001540000001540FN00000000020220401000001540NNM   20211227121342B1  2N0N  00000154000001007000001222732B1    AXARNE-M005600390023
BI00B32B6    A72011         202202117116-4037                TERMINAL                 CCN000012000000012000FN00000000020220501000012000NNM   20211227121342B6  4P0P  00000600000000600000000894232B6    AXARNE-M006400630015
BI00B32B6    A72011         202202117287-0192-40             SEALED HOUSING ASS'Y     CCN000001440000001440FN00000000020220501000001440NNM   20211227121342B6  4N0N  00000048000001092000001322032B6    AXARNE-M005600390040
BI00B32B7    A82011         202202117158-3166-60             WIRE SEAL                CCN000040000000040000FN00000000020220501000040000NNM   20211227121342B7  1C0C  00004000000000104000000152432B7    AXARNE-M002700430014
BI00B32B7    A82011         202202117158-3167-80             WIRE SEAL                CCN000100000000100000FN00000000020220501000100000NNM   20211227121342B7  1C0C  00002000000000048000000109032B7    AXARNE-M002700430014
BI00B32B7    A82011         202202117158-3169-40             SEALING PLUG             CCN000080000000080000FN00000000020220501000080000NNM   20211227121342B7  1C0C  00004000000000156000000204132B7    AXARNE-M004300260014
BI00B32B7    A82011         202202117282-6448-40             CONNECTOR                CCN000008000000008000FN00000000020220501000008000NNM   20211227121342B7  4N0N  00000080000000887000001152732B7    AXARNE-M005600390040
BI00B32B7    #A82011        202202117158-3376-50             CONNECTOR WIRE SEAL      CCN000020000000020000FN00000000020220501000020000NNM   20211227121342B7  2C0C  00002000000000184000000240732B7    AXARNE-M002700430014
BI00B32B7    #A82011        202202117282-8395-40             CONNECTOR                CCN000008000000008000FN00000000020220501000008000NNM   20211227121342B7  2N0N  00000100000001009000001188032B7    AXARNE-M005500360039
BI00B32B7    #A82011        202202117283-8398-40             CONNECTOR                CCN000004620000004620FN00000000020220501000004620NNM   20211227121342B7  2N0N  00000154000001007000001171332B7    AXARNE-M005600390023
BI00B32CA    PTA32034       202112247289-3342-90             HOUSING FEMALE ASS'Y     CCN000021600000021600FY00002160020220101000000000NNM00020211227095513    1N0N  00000240000000686400000901432CA    YPYPY   005500360039
BI00B32CA    PTA32035       202112247289-3342                HOUSING FEMALE ASS'Y     CCN000033600000033600FY00003360020220101000000000NNM00020211227095531    1N0N  00000240000000686400000901432CA    YPYPY   005500360039
BI00B32CA    #PTA32044      202112247189-3037                HOUSING FEMALE           CCN000004800000004800FY00000480020220301000000000NNM00020211227100139    2F0F  00000480000000806400001066432CA    YPYPY   005500360039
BI00B32CC    CTA32043       202202037283-4855                CONNECTOR HOUSING        CCN000012000000012000FN00000000020211201000012000NNED0420211227121342    4N0N  00000240000001188400001400032CC    BIYABCBU005500360039
BI00B32CC    CTA32043       202201277289-3342                HOUSING FEMALE ASS'Y     CCN000004800000004800FN00000000020211201000004800NNED0420211227121342    1N0N  00000240000000686400000901432CC    BIYABCBU005500360039
BI00B32CC    CTA32043       202202037289-3342-30             HOUSING FEMALE ASS'Y     CCN000019200000019200FN00000000020211201000019200NNED0720211227121342    1N0N  00000240000000686400000901432CC    BIYABCBU005500360039
BI00A32CH    SJ21124HMW     202112247327-6874-30             MULTI FUSE               CCN000003744000003744FY00000374420211201000000000NNM00020211227102205    4N0N  00000028800000991400001157332CH    SJSAMIJF005400370024
BI00B32CH    SJ22035 MW     202202247283-4576                HOUSING FEMALE ASS'Y     CCN000004800000004800FN00000000020220301000004800NNMD0420211227155223    4N0N  00000480000000651300000871332CH    SJSAMIJF005500360039
BI00B32CH    SJ22035DMW     202202247287-3885-30             HYBRID FEMALE ASS'Y      CCN000028800000028800FN00000000020220301000028800NNMD0420211227155244    1N0N  00000240000001029600001249632CH    SJSAMIJF005500360039
BI00A32CH    SJ2201BHMW     202112287327-6937-30             MULTI FUSE               CCN000000288000000288FN00000000020220101000000288NNE   20211227130803    1N0N  00000028800001013600001179532CH    SJSAMIJF005400370024
BI00T32CJ    @JQN2031-I     202203107183-2510                HOUSING                  CCN000006000000006000FN00000000020220301000006000NNM   20211227121342    3F0F  00000300000001063500001159032CJ    QNYHVQN 005400370024
BI00T32CJ    @JQN2031-I     202203107183-3190                JOINT CONNECTOR          CCN000108000000108000FN00000000020220301000108000NNM   20211227121342    3F0F  00000360000000457600000667832CJ    QNYHVQN 005500360039
BI00T32CJ    @JQN2031-I     202203107183-7770-40             HOUSING                  CCN000042000000042000FN00000000020220301000042000NNM   20211227121342    3F0F  00000600000001011000001161032CJ    QNYHVQN 005400370024
BI00T32CJ    @JQN2031-I     202203107282-1025                HOUSING SUB ASSEMBLY     CCN000009600000009600FN00000000020220301000009600NNM   20211227121342    3N0N  00000240000001143800001390032CJ    QNYHVQN 005500360039
BI00T32CJ    @JQN2031-I     202203107282-1040                HOUSING SUB ASSEMBLY     CCN000008000000009600FN00000000020220301000009600NNM   20211227121342    3N0N  00000240000001014400001256032CJ    QNYHVQN 005500360039
BI00T32CJ    @JQN2031-I     202203107283-1223-30             HOUSING SUB ASSEMBLY     CCN000043200000043200FN00000000020220301000043200NNM   20211227121342    3N0N  00000480000000749300000998032CJ    QNYHVQN 005500360039
BI00T32CJ    @JQN2031-I     202203107283-7443-30             HOUSING SUB ASSEMBLY     CCN000031200000031200FN00000000020220301000031200NNM   20211227121342    3N0N  00000240000000683700000908032CJ    QNYHVQN 005500360039
BI00T32CJ    @JQN2031-I     202203107287-6634                HOUSING FEMALE ASS'Y     CCN000007200000007200FN00000000020220301000007200NNM   20211227121342    3N0N  00000240000001088400001337032CJ    QNYHVQN 005500360039
BI00A32DE    TCT1124        202112247288-6547                CONNECTOR MALE ASS'Y     PCN000011250000003750FY00000375020211201000000000NNM00020211227095932    4N0N  00000075000001205300001340332DE    TVYEV-TV005400370024
BI00A32DE    TCT1124        202112247288-6547                CONNECTOR MALE ASS'Y     PCN000011250000003750FY00000375020211201000000000NNM00020211227095932    4N0N  00000075000001205300001340332DE    TVYEV-TV005400370024
BI00B32DE    TCT2014        202201207116-1685-02             TERMINAL                 CCN001128000001128000FN00000000020220101001128000NNMD0020211227141322    4P0P  00002400000000897600001065232DE    TVYEV-TV005100280028
BI00B32DE    TCT2014        202201207116-1686-02             TERMINAL                 CCN000126000000126000FN00000000020220101000126000NNMD0020211227141339    4P0P  00002100000000869400001021632DE    TVYEV-TV005100280028
BI00B32DE    TCT2014        202201207116-2640                TERMINAL                 CCN000054000000054000FN00000000020220101000054000NNMD0020211227141356    4P0P  00001800000001018800001196632DE    TVYEV-TV005100280028
BI00B32DE    TCT2014        202201207116-2891-02             TERMINAL                 CCN000315000000315000FN00000000020220101000315000NNMD0020211227141419    4P0P  00001500000000982500001145932DE    TVYEV-TV005100280028
BI00B32DE    TCT2014        202201207116-2892-02             TERMINAL                 CCN000300000000300000FN00000000020220101000300000NNMD0020211227141433    4P0P  00001200000000818400000981832DE    TVYEV-TV005100280028
BI00B32DE    TCT2014        202201207116-2893-02             TERMINAL                 CCN000504000000504000FN00000000020220101000504000NNMD0020211227141502    4P0P  00001200000000895200001058632DE    TVYEV-TV005100280028
BI00B32DE    TCT2014        202201207116-3153-08             TERMINAL                 CCN000054000000027000FN00000000020220101000027000NNMD0020211227141535    4P0P  00002700000000461700000746932DE    TVYEV-TV006400630015
BI00B32DE    TCT2014        202201207116-4025                TERMINAL                 CCN000288000000288000FN00000000020220101000288000NNMD0020211227141552    4P0P  00001600000000644800000975132DE    TVYEV-TV006400630017
BI00B32DE    TCT2014        202201207116-4026                TERMINAL                 CCN000192000000192000FN00000000020220101000192000NNMD0020211227141605    4P0P  00001600000000664000000994332DE    TVYEV-TV006400630017
BI00B32DE    TCT2014        202201207116-4114-02             TERMINAL                 CCN000031500000031500FN00000000020220101000031500NNMD0020211227141626    4P0P  00001050000000693000000981232DE    TVYEV-TV006400630015
BI00B32DE    TCT2014        202201207116-4115-02             TERMINAL                 CCN000008400000008400FN00000000020220101000008400NNMD0020211227141646    4P0P  00000840000000593000000881232DE    TVYEV-TV006400630015
BI00B32DE    TCT2014        202201207116-4415-02             TERMINAL                 CCN000190000000114000FN00000000020220101000114000NNMD0020211227141708    4P0P  00003800000000596600000925732DE    TVYEV-TV006400630017
BI00B32DE    TCT2014        202201207116-4416-02             TERMINAL                 CCN000096000000096000FN00000000020220101000096000NNMD0020211227141728    4P0P  00003200000000518400000847132DE    TVYEV-TV006400630017
BI00B32DE    TCT2014        202201207126-8853-02             TERMINAL                 CCN000292500000292500FN00000000020220101000292500NNMD0020211227141826    4P0P  00000750000000562500000847732DE    TVYEV-TV006400630015
BI00B32DE    TCT2014        202201207126-8854-02             TERMINAL                 CCN000375000000375000FN00000000020220101000375000NNMD0020211227141843    4P0P  00000750000000604500000889732DE    TVYEV-TV006400630015
BI00B32DE    TCT2014        202201207126-8855-02             TERMINAL                 CCN000450000000450000FN00000000020220101000450000NNMD0020211227141900    4P0P  00000600000000510600000795832DE    TVYEV-TV006400630015
BI00B32DE    TCT2014        202201207158-3070-80             RUBBER STOPPER           CCN000080000000080000FN00000000020220101000080000NNMD0020211227141916    1C0C  00004000000000276000000333332DE    TVYEV-TV002700430014
BI00B32DE    TCT2014        202201137158-3166-60             WIRE SEAL                CCN000080000000080000FN00000000020220101000080000NNMD0020211227141932    1C0C  00004000000000104000000152432DE    TVYEV-TV002700430014
BI00B32DE    TCT2014        202201207382-1481-10             CONNECTOR                CCN000030400000030400FN00000000020220101000030400NNMD0020211227142219    4N0N  00000080000001025000001183032DE    TVYEV-TV005600390040
BI00B32DE    TCT2024        202202037116-1685-02             TERMINAL                 CCN000792000000000000FY00000000020220201000000000NNMQ0820211227133258    4P0P  00002400000000897600001065232DE    TVYEV-TV005100280028
BI00B32DE    TCT2024        202202037116-2640                TERMINAL                 CCN000054000000018000FN00000000020220201000018000NNMQ0820211227133322    4P0P  00001800000001018800001196632DE    TVYEV-TV005100280028
BI00B32DE    TCT2024        202202107116-2891-02             TERMINAL                 CCN000240000000240000FN00000000020220201000240000NNMD0020211227142653    4P0P  00001500000000982500001145932DE    TVYEV-TV005100280028
BI00B32DE    TCT2024        202202107116-2892-02             TERMINAL                 CCN000252000000252000FN00000000020220201000252000NNMD0020211227142708    4P0P  00001200000000818400000981832DE    TVYEV-TV005100280028
BI00B32DE    TCT2024        202202107116-2893-02             TERMINAL                 CCN000420000000420000FN00000000020220201000420000NNMD0020211227142804    4P0P  00001200000000895200001058632DE    TVYEV-TV005100280028
BI00B32DE    TCT2024        202202037116-4025                TERMINAL                 CCN000224000000000000FY00000000020220201000000000NNMQ0820211227133511    4P0P  00001600000000644800000975132DE    TVYEV-TV006400630017
BI00B32DE    TCT2024        202202037116-4026                TERMINAL                 CCN000144000000000000FY00000000020220201000000000NNMQ0820211227133545    4P0P  00001600000000664000000994332DE    TVYEV-TV006400630017
BI00B32DE    TCT2022        202202107116-4032                TERMINAL                 CCN000018000000018000FN00000000020220201000018000NNMD0020211227142349    4P0P  00000600000000532800000818032DE    TVYEV-TV006400630015
BI00B32DE    TCT2022        202202107116-4037                TERMINAL                 CCN000024000000024000FN00000000020220201000024000NNMD0020211227142412    4P0P  00000600000000600000000894232DE    TVYEV-TV006400630015
BI00B32DE    TCT2023        202201277116-4037                TERMINAL                 CCN000036000000000000FY00000000020220201000000000NNMQ0820211227133607    4P0P  00000600000000600000000894232DE    TVYEV-TV006400630015
BI00B32DE    TCT2023        202201277116-4114-02             TERMINAL                 CCN000010500000000000FY00000000020220201000000000NNMQ0820211227133652    4P0P  00001050000000693000000981232DE    TVYEV-TV006400630015
BI00B32DE    TCT2024        202202107116-4415-02             TERMINAL                 CCN000114000000114000FN00000000020220201000114000NNMD0020211227142821    4P0P  00003800000000596600000925732DE    TVYEV-TV006400630017
BI00B32DE    TCT2024        202202107116-4416-02             TERMINAL                 CCN000096000000096000FN00000000020220201000096000NNMD0020211227142834    4P0P  00003200000000518400000847132DE    TVYEV-TV006400630017
BI00B32DE    TCT2022        202202107116-5041-02             TERMINAL                 CCN000030000000030000FN00000000020220201000030000NNMD0020211227142430    4P0P  00001500000000583500000868732DE    TVYEV-TV006400630015
BI00B32DE    TCT2022        202202107116-5042-02             TERMINAL                 CCN000054000000054000FN00000000020220201000054000NNMD0020211227142445    4P0P  00001350000000560300000845532DE    TVYEV-TV006400630015
BI00B32DE    TCT2022        202202107116-5043-02             TERMINAL FEMALE          CCN000036000000036000FN00000000020220201000036000NNMD0020211227142459    4P0P  00001200000000559200000844432DE    TVYEV-TV006400630015
BI00B32DE    TCT2022        202202107116-5045-02             TERMINAL                 CCN000032000000032000FN00000000020220201000032000NNMD0020211227142515    4P0P  00001600000000678400001007132DE    TVYEV-TV006400630017
BI00B32DE    TCT2024        202202107126-8853-02             TERMINAL                 CCN000225000000225000FN00000000020220201000225000NNMD0020211227142853    4P0P  00000750000000562500000847732DE    TVYEV-TV006400630015
BI00B32DE    TCT2023        202202107126-8854-02             TERMINAL                 CCN000225000000225000FN00000000020220201000225000NNMD0020211227142559    4P0P  00000750000000604500000889732DE    TVYEV-TV006400630015
BI00B32DE    TCT2024        202202107126-8855-02             TERMINAL                 CCN000300000000300000FN00000000020220201000300000NNMD0020211227142905    4P0P  00000600000000510600000795832DE    TVYEV-TV006400630015
BI00B32DE    TCT2021        202201137158-3006-90             RUBBER STOPPER           CCN000180000000000000FY00000000020220201000000000NNMQ0820211227140912    1C0C  00002000000000330600000386032DE    TVYEV-TV002700430014
BI00B32DE    TCT2024        202202107158-3070-80             RUBBER STOPPER           CCN000080000000080000FN00000000020220201000080000NNMD0020211227143014    1C0C  00004000000000276000000333332DE    TVYEV-TV002700430014
BI00B32DE    TCT2023        202202107158-3166-60             WIRE SEAL                CCN000040000000040000FN00000000020220201000040000NNMD0020211227142614    1C0C  00004000000000104000000152432DE    TVYEV-TV002700430014
BI00B32DE    TCT2021        202201137158-3167-80             WIRE SEAL                CCN000020000000000000FY00000000020220201000000000NNMQ0820211227140933    1C0C  00002000000000048000000109032DE    TVYEV-TV002700430014
BI00B32DE    TCT2022        202201207196-1481-02             TERMINAL FEMALE          CCN000072000000000000FY00000000020220201000000000NNMQ0820211227141000    4P0P  00002400000000422400000707632DE    TVYEV-TV006400630015
BI00B32DE    TCT2024        202202037283-1288-10             CONNECTOR HOUSING        CCN000022800000000000FY00000000020220201000000000NNMQ0820211227142223    4N0N  00000120000001381000001637032DE    TVYEV-TV005600390040
BI00B32DE    TCT2022        202201207283-6120                CONNECTOR HOUSING        CCN000001500000000000FY00000000020220201000000000NNMQ0820211227090414    1N0N  00000150000000914000001143032DE    TVYEV-TV005600390040
BI00B32DE    TCT2022        202202107283-7449-30             HOUSING FEMALE ASS'Y     CCN000002400000002400FN00000000020220201000002400NNMD0020211227142531    4N0N  00000240000001200000001410032DE    TVYEV-TV005500360039
BI00B32DE    TCT2021        202201137287-9234                JOINT CONNECTOR          CCN000019200000000000FY00000000020220201000000000NNMQ0820211227141817    4N0N  00000960000000893800001184832DE    TVYEV-TV005500360039
BI00B32DE    TCT2022        202201207287-9234                JOINT CONNECTOR          CCN000019200000000000FY00000000020220201000000000NNMQ0820211227141840    4N0N  00000960000000893800001184832DE    TVYEV-TV005500360039
BI00B32DE    TCT2024        202202037288-3335-30             HOUSING MALE             CCN000004500000000000FY00000000020220201000000000NNMQ0820211227141909    4N0N  00000150000000867000001012032DE    TVYEV-TV005400370024
BI00B32DE    TCT2024        202202107382-1481-10             CONNECTOR                CCN000024800000024800FN00000000020220201000024800NNMD0020211227143030    4N0N  00000080000001025000001183032DE    TVYEV-TV005600390040
BI00B32DE    TCT201A        202201067114-4728-02             TERMINAL                 CCN000060000000000000FY00000000020220101000000000NNEQ0820211227133348    4P0P  00003000000000510000000804232DE    TVYEV-TV006400630015
BI00B32DE    TCT201A        202201207196-1936-02             TERMINAL FEMALE          CCN000027000000027000FN00000000020220101000027000NNED0020211227142250    4P0P  00001350000000441500000726732DE    TVYEV-TV006400630015
BI00B32DE    TCT201A        202202107289-3342-30             HOUSING FEMALE ASS'Y     CCN000014400000014400FN00000000020220101000014400NNED0020211227142308    1N0N  00000240000000686400000901432DE    TVYEV-TV005500360039
BI00B32DE    TCT202A        202201137283-4577-30             CONNECTOR HOUSING        CCN000004800000000000FY00000000020220201000000000NNEQ0820211227141303    4N0N  00000480000000916800001136832DE    TVYEV-TV005500360039
BI00B32DG    RP2013         202112247158-3006-90             RUBBER STOPPER           CCN000100000000100000FY00010000020220101000000000NNM00020211227102939    1C0C  00002000000000330600000386032DG    BFSAIBF 002700430014
BI00B32DG    RP2014         202112247158-3006-90             RUBBER STOPPER           CCN000060000000060000FY00006000020220101000000000NNM00020211227103032    1C0C  00002000000000330600000386032DG    BFSAIBF 002700430014
BI00B32DG    RP2013         202112247289-3342-30             HOUSING FEMALE ASS'Y     CCN000004800000004800FY00000480020220101000000000NNM00020211227103004    1N0N  00000240000000686400000901432DG    BFSAIBF 005500360039
BI00B32DG    RP2013         202112247158-3009-60             RUBBER STOPPER           CCN000080000000080000FY00008000020220101000000000NNM00020211227102939    1C0C  00002000000000338000000386232DG    BFSAIBF 002700430014
BI00B32DG    RP2014         202112247158-3009-60             RUBBER STOPPER           CCN000080000000080000FY00008000020220101000000000NNM00020211227103032    1C0C  00002000000000338000000386232DG    BFSAIBF 002700430014
BI00B32DG    RP2013         202112247158-3070-80             RUBBER STOPPER           CCN000080000000080000FY00008000020220101000000000NNM00020211227102939    1C0C  00004000000000276000000333332DG    BFSAIBF 002700430014
BI00B32DG    RP2013         202112247283-1289                CONNECTOR HOUSING        CCN000005400000005400FY00000540020220101000000000NNM00020211227102939    1N0N  00000060000000676200000817632DG    BFSAIBF 005400370024
BI00B32DG    RP2014         202112247283-1289                CONNECTOR HOUSING        CCN000003600000003600FY00000360020220101000000000NNM00020211227103032    1N0N  00000060000000676200000817632DG    BFSAIBF 005400370024
BI00B32DG    RP2014A        202112247289-3342-30             HOUSING FEMALE ASS'Y     CCN000004800000004800FY00000480020220101000000000NNE00020211227103055    1N0N  00000240000000686400000901432DG    BFSAIBF 005500360039
BI00B32D1    DFTC2151       202112257289-3342                HOUSING FEMALE ASS'Y     CCN000002400000002400FY00000240020211201000000000NNM00020211227095609    1N0N  00000240000000686400000901432D1    TOYOT-K 005500360039
BI00B32D1    #DFTC2204      202112257289-3622-30             HOUSING FEMALE ASS'Y     CCN000003888000003888FY00000388820220101000000000NNM00020211227100211    2N0N  00000043200000839400001038432D1    TOYOT-K 005400370024
BI00B32D1    DFTC2205       202112257288-6547                CONNECTOR MALE ASS'Y     CCN000011250000011250FY00001125020220201000000000NNM00020211227103405    4N0N  00000075000001205300001340332D1    TOYOT-K 005400370024
BI00B32D1    DFTC2205       202112257327-6731-3W             BATTERY FUSE             CCN000000768000000768FY00000076820220201000000000NNM00020211227103423    4N0N  00000006400000697600000843032D1    TOYOT-K 005400370024
BI00B32D1    DFTC2206       202201067289-3342-30             HOUSING FEMALE ASS'Y     CCN000081600000081600FN00000000020220201000081600NNM00020211227121342    1N0N  00000240000000686400000901432D1    TOYOT-K 005500360039
BI00B32D1    DFTC2206       202201067289-6547                HOUSING FEMALE ASS'Y     CCN000007200000007200FN00000000020220201000007200NNM00020211227121342    1N0N  00000240000001152000001362032D1    TOYOT-K 005500360039
BI00B32D1    #DFTC2206      202112277172-5629-80             RUBBER STOPPER           CCN000180000000180000FN00000000020220201000180000NNM00020211227121342    2H0H  00002000000000060000000111132D1    TOYOT-K 004300270014
BI00B32D1    DFTC2207       202201067158-3070-80             RUBBER STOPPER           CCN000160000000160000FN00000000020220201000160000NNM00020211227121342    1C0C  00004000000000276000000333332D1    TOYOT-K 002700430014
BI00B32D1    DFTC2207       202201067158-3167-80             WIRE SEAL                CCN000020000000020000FN00000000020220201000020000NNM00020211227121342    1C0C  00002000000000048000000109032D1    TOYOT-K 002700430014
BI00B32D1    DFTC2207       202201067283-5830                CONNECTOR                CCN000006000000006000FN00000000020220201000006000NNM00020211227121342    1N47  00000600000000954000001104032D1    TOYOT-K 005500360039
BI00B32D1    DFTC2207       202201067289-3342                HOUSING FEMALE ASS'Y     CCN000062400000062400FN00000000020220201000062400NNM00020211227121342    1N0N  00000240000000686400000901432D1    TOYOT-K 005500360039
BI00B32D1    DFTC2207       202201067289-3342-30             HOUSING FEMALE ASS'Y     CCN000172800000172800FN00000000020220201000172800NNM00020211227121342    1N0N  00000240000000686400000901432D1    TOYOT-K 005500360039
BI00B32D1    DFTC2207       202201067289-3342-40             HOUSING FEMALE ASS'Y     CCN000019200000019200FN00000000020220201000019200NNM00020211227121342    1N0N  00000240000000686400000901432D1    TOYOT-K 005500360039
BI00B32D1    DFTC2207       202201067289-3342-90             HOUSING FEMALE ASS'Y     CCN000016800000016800FN00000000020220201000016800NNM00020211227121342    1N0N  00000240000000686400000901432D1    TOYOT-K 005500360039
BI00B32D1    DFTC2207       202201067289-6547                HOUSING FEMALE ASS'Y     CCN000016800000016800FN00000000020220201000016800NNM00020211227121342    1N0N  00000240000001152000001362032D1    TOYOT-K 005500360039
BI00B32D1    DFTC2207       202201067388-2978-30             HOUSING MALE ASS'Y       CCN000023040000023040FN00000000020220201000023040NNM00020211227121342    1N0N  00000048000000742000001122032D1    TOYOT-K 005500360039
BI00B32D1    DFTC2211       202201207288-6547                CONNECTOR MALE ASS'Y     CCN000006750000006750FN00000000020220301000006750NNMD0020211227121342    4N0N  00000075000001205300001340332D1    TOYOT-K 005400370024
BI00B32D1    DFTC2211       202201207289-3342                HOUSING FEMALE ASS'Y     CCN000009600000009600FN00000000020220301000009600NNMD0020211227121342    1N0N  00000240000000686400000901432D1    TOYOT-K 005500360039
BI00B32D1    DFTC2211       202201207289-3342-30             HOUSING FEMALE ASS'Y     CCN000067200000067200FN00000000020220301000067200NNMD0020211227121342    1N0N  00000240000000686400000901432D1    TOYOT-K 005500360039
BI00B32D1    DFTC2211       202201207289-3342-40             HOUSING FEMALE ASS'Y     CCN000004800000004800FN00000000020220301000004800NNMD0020211227121342    1N0N  00000240000000686400000901432D1    TOYOT-K 005500360039
BI00B32D1    DFTC2211       202201207289-3342-90             HOUSING FEMALE ASS'Y     CCN000002400000002400FN00000000020220301000002400NNMD0020211227121342    1N0N  00000240000000686400000901432D1    TOYOT-K 005500360039
BI00B32D1    DFTC2212       202201277114-4032                TERMINAL                 CCN000007500000007500FN00000000020220301000007500NNM   20211227121342    4P0P  00000750000000735000001063632D1    TOYOT-K 006400630017
BI00B32D1    DFTC2212       202201277114-4231-02             TERMINAL                 CCN000018000000018000FN00000000020220301000018000NNM   20211227121342    4P0P  00001800000000554400000848032D1    TOYOT-K 006400630015
BI00B32D1    DFTC2212       202201277114-4624-02             TERMINAL                 CCN000024000000024000FN00000000020220301000024000NNM   20211227121342    4P0P  00002400000000895200001188832D1    TOYOT-K 006400630015
BI00B32D1    DFTC2212       202201277114-5748-02             TERMINAL                 CCN000180000000180000FN00000000020220301000180000NNM   20211227121342    4P0P  00001200000000444000000737632D1    TOYOT-K 006400630015
BI00B32D1    DFTC2212       202201277114-5753-02             TERMINAL                 CCN000216000000216000FN00000000020220301000216000NNM   20211227121342    4P0P  00002700000000847800001141432D1    TOYOT-K 006400630015
BI00B32D1    DFTC2212       202201277116-1685-02             TERMINAL                 CCN000072000000072000FN00000000020220301000072000NNM   20211227121342    4P0P  00002400000000897600001065232D1    TOYOT-K 005100280028
BI00B32D1    DFTC2212       202201277116-2891-02             TERMINAL                 CCN000105000000105000FN00000000020220301000105000NNM   20211227121342    4P0P  00001500000000982500001145932D1    TOYOT-K 005100280028
BI00B32D1    DFTC2212       202201277116-4101-02             TERMINAL                 CCN000024000000024000FN00000000020220301000024000NNM   20211227121342    4P0P  00001200000000582000000876232D1    TOYOT-K 006400630015
BI00B32D1    DFTC2212       202201277116-4110-02             TERMINAL                 CCN000018000000018000FN00000000020220301000018000NNM   20211227121342    4P0P  00000900000000594000000882232D1    TOYOT-K 006400630015
BI00B32D1    DFTC2212       202201277116-4111-02             TERMINAL                 CCN000030000000030000FN00000000020220301000030000NNM   20211227121342    4P0P  00000750000000529500000817732D1    TOYOT-K 006400630015
BI00B32D1    DFTC2212       202201277116-4112-02             TERMINAL                 CCN000054000000054000FN00000000020220301000054000NNM   20211227121342    4P0P  00000600000000450000000738232D1    TOYOT-K 006400630015
BI00B32D1    DFTC2212       202201277116-4486-02             TERMINAL                 CCN000168000000168000FN00000000020220301000168000NNM   20211227121342    4P0P  00002800000000666400000995132D1    TOYOT-K 006400630017
BI00B32D1    DFTC2212       202201277116-5045-02             TERMINAL                 CCN000096000000096000FN00000000020220301000096000NNM   20211227121342    4P0P  00001600000000678400001007132D1    TOYOT-K 006400630017
BI00B32D1    DFTC2212       202201277126-8853-02             TERMINAL                 CCN000105000000105000FN00000000020220301000105000NNM   20211227121342    4P0P  00000750000000562500000847732D1    TOYOT-K 006400630015
BI00B32D1    DFTC2212       202201277126-8854-02             TERMINAL                 CCN000075000000075000FN00000000020220301000075000NNM   20211227121342    4P0P  00000750000000604500000889732D1    TOYOT-K 006400630015
BI00B32D1    DFTC2212       202201277126-8855-02             TERMINAL                 CCN000084000000084000FN00000000020220301000084000NNM   20211227121342    4P0P  00000600000000510600000795832D1    TOYOT-K 006400630015
BI00B32D1    DFTC2212       202201277158-3070-80             RUBBER STOPPER           CCN000120000000120000FN00000000020220301000120000NNM   20211227121342    1C0C  00004000000000276000000333332D1    TOYOT-K 002700430014
BI00B32D1    DFTC2212       202201277158-3167-80             WIRE SEAL                CCN000040000000040000FN00000000020220301000040000NNM   20211227121342    1C0C  00002000000000048000000109032D1    TOYOT-K 002700430014
BI00B32D1    DFTC2212       202201277196-0396-02             TERMINAL                 CCN000015000000015000FN00000000020220301000015000NNM   20211227121342    4P0P  00001500000000949500001112932D1    TOYOT-K 002800510028
BI00B32D1    DFTC2212       202201277196-0510-02             TERMINAL                 CCN000048000000048000FN00000000020220301000048000NNM   20211227121342    4P0P  00002400000000871200001034632D1    TOYOT-K 002800510028
BI00B32D1    DFTC2212       202201277282-4576                HOUSING MALE ASS'Y       CCN000004800000004800FN00000000020220301000004800NNM   20211227121342    4N0N  00000240000000808800001028832D1    TOYOT-K 005500360039
BI00B32D1    DFTC2212       202201277283-1156                CONNECTOR                CCN000004000000004000FN00000000020220301000004000NNM   20211227121342    4N0N  00000080000000877600001078032D1    TOYOT-K 005600390040
BI00B32D1    DFTC2212       202201277283-5830                CONNECTOR                CCN000006000000006000FN00000000020220301000006000NNM   20211227121342    1N47  00000600000000954000001104032D1    TOYOT-K 005500360039
BI00B32D1    DFTC2212       202201277288-6547                CONNECTOR MALE ASS'Y     CCN000008250000008250FN00000000020220301000008250NNM   20211227121342    4N0N  00000075000001205300001340332D1    TOYOT-K 005400370024
BI00B32D1    DFTC2212       202201277289-3342                HOUSING FEMALE ASS'Y     CCN000028800000028800FN00000000020220301000028800NNM   20211227121342    1N0N  00000240000000686400000901432D1    TOYOT-K 005500360039
BI00B32D1    DFTC2212       202201277289-3342-30             HOUSING FEMALE ASS'Y     CCN000081600000081600FN00000000020220301000081600NNM   20211227121342    1N0N  00000240000000686400000901432D1    TOYOT-K 005500360039
BI00B32D1    DFTC2212       202201277289-3342-40             HOUSING FEMALE ASS'Y     CCN000007200000007200FN00000000020220301000007200NNM   20211227121342    1N0N  00000240000000686400000901432D1    TOYOT-K 005500360039
BI00B32D1    DFTC2212       202201277289-3342-90             HOUSING FEMALE ASS'Y     CCN000007200000007200FN00000000020220301000007200NNM   20211227121342    1N0N  00000240000000686400000901432D1    TOYOT-K 005500360039
BI00B32D1    DFTC2212       202201277289-6547                HOUSING FEMALE ASS'Y     CCN000014400000014400FN00000000020220301000014400NNM   20211227121342    1N0N  00000240000001152000001362032D1    TOYOT-K 005500360039
BI00B32D1    DFTC2212       202201277296-0784-02             TERMINAL ALUMINIUM       CCN000024000000024000FN00000000020220301000024000NNM   20211227121342    4P0P  00002400000000480000000765232D1    TOYOT-K 006400630015
BI00B32D1    DFTC2212       202201277296-1025-02             TERMINAL ALUMINIUM       CCN000018000000018000FN00000000020220301000018000NNM   20211227121342    4P0P  00001800000000635400000920632D1    TOYOT-K 006400630015
BI00B32D1    DFTC2212       202201277327-6731-3W             BATTERY FUSE             CCN000000832000000832FN00000000020220301000000832NNM   20211227121342    4N0N  00000006400000697600000843032D1    TOYOT-K 005400370024
BI00B32D1    DFTC2212       202201277388-2978-30             HOUSING MALE ASS'Y       CCN000015840000015840FN00000000020220301000015840NNM   20211227121342    1N0N  00000048000000742000001122032D1    TOYOT-K 005500360039
BI00B32D1    #DFTC2212      202201277158-3003-90             RUBBER STOPPER           CCN000180000000180000FN00000000020220301000180000NNM   20211227121342    2C0C  00002000000000250000000306032D1    TOYOT-K 002700430014
BI00B32D1    #DFTC2212      202201277158-3004-40             RUBBER STOPPER           CCN000020000000020000FN00000000020220301000020000NNM   20211227121342    2C0C  00002000000000234000000306332D1    TOYOT-K 002700430014
BI00B32D1    #DFTC2212      202201277158-3005-80             RUBBER STOPPER           CCN000060000000060000FN00000000020220301000060000NNM   20211227121342    2H0H  00002000000000210000000268732D1    TOYOT-K 002700430014
BI00B32D1    #DFTC2212      202201277158-3008-80             RUBBER STOPPER           CCN000080000000080000FN00000000020220301000080000NNM   20211227121342    2C0C  00002000000000288000000343032D1    TOYOT-K 004300270014
BI00B32D1    #DFTC2212      202201277158-3015-10             RUBBER STOPPER           CCN000040000000040000FN00000000020220301000040000NNM   20211227121342    2C0C  00001000000000419500000474032D1    TOYOT-K 002700430014
BI00B32D1    #DFTC2212      202201277158-3017                RUBBER STOPPER           CCN000090000000090000FN00000000020220301000090000NNM   20211227121342    2C0C  00001000000000375500000435032D1    TOYOT-K 002700430014
BI00B32D1    #DFTC2212      202201277172-5625-90             RUBBER STOPPER           CCN000020000000020000FN00000000020220301000020000NNM   20211227121342    2H0H  00002000000000082400000133832D1    TOYOT-K 004300270014
BI00B32D1    #DFTC2212      202201277172-5627-60             RUBBER STOPPER           CCN000020000000020000FN00000000020220301000020000NNM   20211227121342    2H0H  00002000000000070400000121832D1    TOYOT-K 004300270014
BI00B32D1    #DFTC2212      202201277172-5629-80             RUBBER STOPPER           CCN000200000000200000FN00000000020220301000200000NNM   20211227121342    2H0H  00002000000000060000000111132D1    TOYOT-K 004300270014
BI00B32D1    #DFTC2212      202201277172-5630-40             RUBBER STOPPER           CCN000040000000040000FN00000000020220301000040000NNM   20211227121342    2H0H  00002000000000044000000095132D1    TOYOT-K 004300270014
BI00B32D1    #DFTC2212      202201277172-5631-60             RUBBER STOPPER           CCN000060000000060000FN00000000020220301000060000NNM   20211227121342    2H0H  00002000000000042000000093132D1    TOYOT-K 004300270014
BI00B32D1    #DFTC2212      202201277172-5632-10             DUMMY PLUG               CCN000060000000060000FN00000000020220301000060000NNM   20211227121342    2H0H  00002000000000080400000131832D1    TOYOT-K 004300270014
BI00B32D1    #DFTC2212      202201277183-2418-30             CONNECTOR HOUSING        CCN000004800000004800FN00000000020220301000004800NNM   20211227121342    2F0F  00000480000000917000001235332D1    TOYOT-K 005500360039
BI00B32D1    #DFTC2212      202201277189-2978-30             HOUSING FEMALE           CCN000010500000010500FN00000000020220301000010500NNM   20211227121342    2F0F  00000150000000966900001096932D1    TOYOT-K 005400370024
BI00B32D1    #DFTC2212      202201277189-3033                HOUSING FEMALE           CCN000009600000009600FN00000000020220301000009600NNM   20211227121342    2F0F  00000160000001211200001431232D1    TOYOT-K 005500360039
BI00B32D1    #DFTC2212      202201277189-3036                HOUSING FEMALE           CCN000004800000004800FN00000000020220301000004800NNM   20211227121342    2F0F  00000160000000921600001141632D1    TOYOT-K 005500360039
BI00B32D1    #DFTC2212      202201277189-3037                HOUSING FEMALE           CCN000004800000004800FN00000000020220301000004800NNM   20211227121342    2F0F  00000480000000806400001066432D1    TOYOT-K 005500360039
BI00B32D1    #DFTC2212      202201277282-1641                CONNECTOR                CCN000010000000010000FN00000000020220301000010000NNM   20211227121342    2N0N  00000200000000813000000986032D1    TOYOT-K 005500360039
BI00B32D1    #DFTC2212      202201277282-7424                CONNECTOR                CCN000004000000004000FN00000000020220301000004000NNM   20211227121342    2N0N  00000400000001064000001243032D1    TOYOT-K 005500360039
BI00B32D1    #DFTC2212      202201277289-2912-40             HOUSING FEMALE ASS'Y     CCN000006000000006000FN00000000020220301000006000NNM   20211227121342    2N0N  00000200000000804000000931032D1    TOYOT-K 005400370024
BI00B32D1    #DFTC2212      202201277289-3622-30             HOUSING FEMALE ASS'Y     CCN000003456000003456FN00000000020220301000003456NNM   20211227121342    2N0N  00000043200000839400001038432D1    TOYOT-K 005400370024
BI00B32D1    #DFTC2212      202201277289-4200-30             HOUSING FEMALE ASS'Y     CCN000004000000004000FN00000000020220301000004000NNM   20211227121342    2N0N  00000200000000926000001021032D1    TOYOT-K 005400370024
BI00B32D2    DGTC2152       202112257289-3342                HOUSING FEMALE ASS'Y     CCN000033600000033600FY00003360020211201000000000NNM00020211227100001    1N0N  00000240000000686400000901432D2    TGYOT-G 005500360039
BI00B32D2    DGTC2204       202112257289-6547                HOUSING FEMALE ASS'Y     CCN000009600000009600FY00000960020220101000000000NNM00020211227103250    1N0N  00000240000001152000001362032D2    TGYOT-G 005500360039
BI00B32D2    DGTC2205       202112257288-6547                CONNECTOR MALE ASS'Y     CCN000003000000003000FY00000300020220201000000000NNM00020211227103315    4N0N  00000075000001205300001340332D2    TGYOT-G 005400370024
BI00B32D2    DGTC2207       202201067158-3070-80             RUBBER STOPPER           CCN000080000000080000FN00000000020220201000080000NNM00020211227121342    1C0C  00004000000000276000000333332D2    TGYOT-G 002700430014
BI00B32D2    DGTC2207       202201067158-3166-60             WIRE SEAL                CCN000120000000120000FN00000000020220201000120000NNM00020211227121342    1C0C  00004000000000104000000152432D2    TGYOT-G 002700430014
BI00B32D2    DGTC2207       202201067158-3167-80             WIRE SEAL                CCN000140000000140000FN00000000020220201000140000NNM00020211227121342    1C0C  00002000000000048000000109032D2    TGYOT-G 002700430014
BI00B32D2    DGTC2207       202201067173-3291-40             LIF LEVER                CCN000019200000019200FN00000000020220201000019200NNM00020211227121342    1F0F  00000240000000867800001067832D2    TGYOT-G 005500360039
BI00B32D2    DGTC2207       202112307289-6518-30             HOUSING FEMALE ASS'Y     CCN000019200000019200FN00000000020220201000019200NNM00020211227165507    1N0N  00000120000000829200001049232D2    TGYOT-G 005500360039
BI00B32D2    DGTC2207       202201067289-6547                HOUSING FEMALE ASS'Y     CCN000021600000012000FN00000000020220201000012000NNM00020211227121342    1N0N  00000240000001152000001362032D2    TGYOT-G 005500360039
BI00B32D2    DGTC2207       202201067388-2978-30             HOUSING MALE ASS'Y       CCN000040800000040800FN00000000020220201000040800NNM00020211227121342    1N0N  00000048000000742000001122032D2    TGYOT-G 005500360039
BI00B32D2    DGTC2207       202201067289-6547                HOUSING FEMALE ASS'Y     CCN000009600000009600FN00000000020220201000009600NNM00020211227121342    1N0N  00000240000001152000001362032D2    TGYOT-G 005500360039
BI00B32D2    DGTC2211       202201207288-6547                CONNECTOR MALE ASS'Y     CCN000011250000011250FN00000000020220301000011250NNMD0020211227121342    4N0N  00000075000001205300001340332D2    TGYOT-G 005400370024
BI00B32D2    DGTC2211       202201207289-3342                HOUSING FEMALE ASS'Y     CCN000026400000026400FN00000000020220301000026400NNMD0020211227121342    1N0N  00000240000000686400000901432D2    TGYOT-G 005500360039
BI00B32D2    DGTC2211       202201207289-3342-30             HOUSING FEMALE ASS'Y     CCN000004800000004800FN00000000020220301000004800NNMD0020211227121342    1N0N  00000240000000686400000901432D2    TGYOT-G 005500360039
BI00B32D2    DGTC2211       202201207289-3342-40             HOUSING FEMALE ASS'Y     CCN000009600000009600FN00000000020220301000009600NNMD0020211227121342    1N0N  00000240000000686400000901432D2    TGYOT-G 005500360039
BI00B32D2    DGTC2211       202201207289-3342-90             HOUSING FEMALE ASS'Y     CCN000007200000007200FN00000000020220301000007200NNMD0020211227121342    1N0N  00000240000000686400000901432D2    TGYOT-G 005500360039
BI00B32D2    DGTC2211       202201207289-6547                HOUSING FEMALE ASS'Y     CCN000009600000009600FN00000000020220301000009600NNMD0020211227121342    1N0N  00000240000001152000001362032D2    TGYOT-G 005500360039
BI00B32D2    #DGTC2211      202201207172-5629-80             RUBBER STOPPER           CCN000460000000460000FN00000000020220301000460000NNMD0020211227121342    2H0H  00002000000000060000000111132D2    TGYOT-G 004300270014
BI00B32D2    #DGTC2211      202201207172-5630-40             RUBBER STOPPER           CCN000420000000420000FN00000000020220301000420000NNMD0020211227121342    2H0H  00002000000000044000000095132D2    TGYOT-G 004300270014
BI00B32D2    DGTC2212       202201277017-1180-02             TERMINAL                 CCN000072000000072000FN00000000020220301000072000NNM   20211227121342    4P0P  00007200000001065600001229032D2    TGYOT-G 005100280028
BI00B32D2    DGTC2212       202201277114-4032                TERMINAL                 CCN000075000000075000FN00000000020220301000075000NNM   20211227121342    4P0P  00000750000000735000001063632D2    TGYOT-G 006400630017
BI00B32D2    DGTC2212       202201277114-5753-02             TERMINAL                 CCN000297000000297000FN00000000020220301000297000NNM   20211227121342    4P0P  00002700000000847800001141432D2    TGYOT-G 006400630015
BI00B32D2    DGTC2212       202201277116-2891-02             TERMINAL                 CCN000045000000045000FN00000000020220301000045000NNM   20211227121342    4P0P  00001500000000982500001145932D2    TGYOT-G 005100280028
BI00B32D2    DGTC2212       202201277116-4104-02             TERMINAL                 CCN000012000000012000FN00000000020220301000012000NNM   20211227121342    4P0P  00001200000000580800000972432D2    TGYOT-G 006400630015
BI00B32D2    DGTC2212       202201277116-4486-02             TERMINAL                 CCN000308000000308000FN00000000020220301000308000NNM   20211227121342    4P0P  00002800000000666400000995132D2    TGYOT-G 006400630017
BI00B32D2    DGTC2212       202201277116-5045-02             TERMINAL                 CCN000112000000112000FN00000000020220301000112000NNM   20211227121342    4P0P  00001600000000678400001007132D2    TGYOT-G 006400630017
BI00B32D2    DGTC2212       202201277116-5046-02             TERMINAL                 CCN000216000000216000FN00000000020220301000216000NNM   20211227121342    4P0P  00001200000000544800000873532D2    TGYOT-G 006400630017
BI00B32D2    DGTC2212       202201277116-6042                TERMINAL                 CCN000133000000135000FN00000000020220301000135000NNM   20211227121342    4P0P  00000300000000523800000856132D2    TGYOT-G 006400630015
BI00B32D2    DGTC2212       202201277126-8853-02             TERMINAL                 CCN000268000000270000FN00000000020220301000270000NNM   20211227121342    4P0P  00000750000000562500000847732D2    TGYOT-G 006400630015
BI00B32D2    DGTC2212       202201277126-8854-02             TERMINAL                 CCN000192000000195000FN00000000020220301000195000NNM   20211227121342    4P0P  00000750000000604500000889732D2    TGYOT-G 006400630015
BI00B32D2    DGTC2212       202201277126-8855-02             TERMINAL                 CCN000283200000288000FN00000000020220301000288000NNM   20211227121342    4P0P  00000600000000510600000795832D2    TGYOT-G 006400630015
BI00B32D2    DGTC2212       202201277158-3070-80             RUBBER STOPPER           CCN000040000000040000FN00000000020220301000040000NNM   20211227121342    1C0C  00004000000000276000000333332D2    TGYOT-G 002700430014
BI00B32D2    DGTC2212       202201277158-3166-60             WIRE SEAL                CCN000130000000160000FN00000000020220301000160000NNM   20211227121342    1C0C  00004000000000104000000152432D2    TGYOT-G 002700430014
BI00B32D2    DGTC2212       202201277158-3167-80             WIRE SEAL                CCN000036000000040000FN00000000020220301000040000NNM   20211227121342    1C0C  00002000000000048000000109032D2    TGYOT-G 002700430014
BI00B32D2    DGTC2212       202201277173-3291-40             LIF LEVER                CCN000028800000028800FN00000000020220301000028800NNM   20211227121342    1F0F  00000240000000867800001067832D2    TGYOT-G 005500360039
BI00B32D2    DGTC2212       202201277196-0396-02             TERMINAL                 CCN000030000000030000FN00000000020220301000030000NNM   20211227121342    4P0P  00001500000000949500001112932D2    TGYOT-G 002800510028
BI00B32D2    DGTC2212       202201277196-1325-02             TERMINAL FEMALE          CCN000960000000960000FN00000000020220301000960000NNM   20211227121342    4P0P  00006000000000450000000778732D2    TGYOT-G 006400630017
BI00B32D2    DGTC2212       202201277196-1326-02             TERMINAL FEMALE          CCN001980000001980000FN00000000020220301001980000NNM   20211227121342    4P0P  00006000000000456000000784732D2    TGYOT-G 006400630017
BI00B32D2    DGTC2212       202201277196-1327-02             TERMINAL FEMALE          CCN000156000000156000FN00000000020220301000156000NNM   20211227121342    4P0P  00005200000000336000000739532D2    TGYOT-G 006400630017
BI00B32D2    DGTC2212       202201277283-6388-40             CONNECTOR                CCN000004000000004000FN00000000020220301000004000NNM   20211227121342    4N0N  00000200000001029000001173532D2    TGYOT-G 005500360039
BI00B32D2    DGTC2212       202201277288-6547                CONNECTOR MALE ASS'Y     CCN000021750000021750FN00000000020220301000021750NNM   20211227121342    4N0N  00000075000001205300001340332D2    TGYOT-G 005400370024
BI00B32D2    DGTC2212       202201277289-3342                HOUSING FEMALE ASS'Y     CCN000148800000148800FN00000000020220301000148800NNM   20211227121342    1N0N  00000240000000686400000901432D2    TGYOT-G 005500360039
BI00B32D2    DGTC2212       202201277289-3342-30             HOUSING FEMALE ASS'Y     CCN000045600000045600FN00000000020220301000045600NNM   20211227121342    1N0N  00000240000000686400000901432D2    TGYOT-G 005500360039
BI00B32D2    DGTC2212       202201277289-3342-40             HOUSING FEMALE ASS'Y     CCN000043200000043200FN00000000020220301000043200NNM   20211227121342    1N0N  00000240000000686400000901432D2    TGYOT-G 005500360039
BI00B32D2    DGTC2212       202201277289-3342-90             HOUSING FEMALE ASS'Y     CCN000050400000050400FN00000000020220301000050400NNM   20211227121342    1N0N  00000240000000686400000901432D2    TGYOT-G 005500360039
BI00B32D2    DGTC2212       202201277289-6518-30             HOUSING FEMALE ASS'Y     CCN000026400000026400FN00000000020220301000026400NNM   20211227121342    1N0N  00000120000000829200001049232D2    TGYOT-G 005500360039
BI00B32D2    DGTC2212       202201277289-6547                HOUSING FEMALE ASS'Y     CCN000019200000019200FN00000000020220301000019200NNM   20211227121342    1N0N  00000240000001152000001362032D2    TGYOT-G 005500360039
BI00B32D2    DGTC2212       202201277296-0784-02             TERMINAL ALUMINIUM       CCN000160000000168000FN00000000020220301000168000NNM   20211227121342    4P0P  00002400000000480000000765232D2    TGYOT-G 006400630015
BI00B32D2    DGTC2212       202201277296-1020-02             TERMINAL ALUMINIUM       CCN000022500000022500FN00000000020220301000022500NNM   20211227121342    4P0P  00002250000000699800000985032D2    TGYOT-G 006400630015
BI00B32D2    DGTC2212       202201277296-1024-02             TERMINAL ALUMINIUM       CCN000054000000054000FN00000000020220301000054000NNM   20211227121342    4P0P  00001800000000698400000983632D2    TGYOT-G 006400630015
BI00B32D2    DGTC2212       202201277296-1025-02             TERMINAL ALUMINIUM       CCN000036000000036000FN00000000020220301000036000NNM   20211227121342    4P0P  00001800000000635400000920632D2    TGYOT-G 006400630015
BI00B32D2    DGTC2212       202201277327-6801-3W             BATTERY FUSE             CCN000005568000005568FN00000000020220301000005568NNM   20211227121342    4N0N  00000009600000928400001143432D2    TGYOT-G 005500360039
BI00B32D2    DGTC2212       202201277327-6803                MULTI FUSE               CCN000001120000001120FN00000000020220301000001120NNM   20211227121342    4N0N  00000056000000854600001067032D2    TGYOT-G 005400370024
BI00B32D2    DGTC2212       202201277327-6806                MULTI FUSE               CCN000005600000005600FN00000000020220301000005600NNM   20211227121342    4N0N  00000056000000851500001063932D2    TGYOT-G 005400370024
BI00B32D2    DGTC2212       202201277327-6809                MULTI FUSE               CCN000014560000014560FN00000000020220301000014560NNM   20211227121342    4N0N  00000056000000849300001061732D2    TGYOT-G 005400370024
BI00B32D2    DGTC2212       202201277327-6930                MULTI FUSE               CCN000003920000003920FN00000000020220301000003920NNM   20211227121342    4N0N  00000056000000848900001031932D2    TGYOT-G 005400370024
BI00B32D2    DGTC2212       202201277388-2978-30             HOUSING MALE ASS'Y       CCN000033600000033600FN00000000020220301000033600NNM   20211227121342    1N0N  00000048000000742000001122032D2    TGYOT-G 005500360039
BI00B32D2    #DGTC2212      202201277158-3003-90             RUBBER STOPPER           CCN000420000000420000FN00000000020220301000420000NNM   20211227121342    2C0C  00002000000000250000000306032D2    TGYOT-G 002700430014
BI00B32D2    #DGTC2212      202201277158-3005-80             RUBBER STOPPER           CCN000080000000080000FN00000000020220301000080000NNM   20211227121342    2H0H  00002000000000210000000268732D2    TGYOT-G 002700430014
BI00B32D2    #DGTC2212      202201277158-3008-80             RUBBER STOPPER           CCN000160000000160000FN00000000020220301000160000NNM   20211227121342    2C0C  00002000000000288000000343032D2    TGYOT-G 004300270014
BI00B32D2    #DGTC2212      202201277158-3015-10             RUBBER STOPPER           CCN000050000000050000FN00000000020220301000050000NNM   20211227121342    2C0C  00001000000000419500000474032D2    TGYOT-G 002700430014
BI00B32D2    #DGTC2212      202201277158-3374-90             CONNECTOR WIRE SEAL      CCN000020000000020000FN00000000020220301000020000NNM   20211227121342    2H0H  00002000000000172000000229332D2    TGYOT-G 002700430014
BI00B32D2    #DGTC2212      202201277172-5625-90             RUBBER STOPPER           CCN000020000000020000FN00000000020220301000020000NNM   20211227121342    2H0H  00002000000000082400000133832D2    TGYOT-G 004300270014
BI00B32D2    #DGTC2212      202201277172-5627-60             RUBBER STOPPER           CCN000020000000020000FN00000000020220301000020000NNM   20211227121342    2H0H  00002000000000070400000121832D2    TGYOT-G 004300270014
BI00B32D2    #DGTC2212      202201277172-5628-80             DUMMY PLUG               CCN000020000000020000FN00000000020220301000020000NNM   20211227121342    2H0H  00002000000000110600000162032D2    TGYOT-G 004300270014
BI00B32D2    #DGTC2212      202201277172-5629-80             RUBBER STOPPER           CCN000920000000920000FN00000000020220301000920000NNM   20211227121342    2H0H  00002000000000060000000111132D2    TGYOT-G 004300270014
BI00B32D2    #DGTC2212      202201277172-5630-40             RUBBER STOPPER           CCN000600000000600000FN00000000020220301000600000NNM   20211227121342    2H0H  00002000000000044000000095132D2    TGYOT-G 004300270014
BI00B32D2    #DGTC2212      202201277172-5631-60             RUBBER STOPPER           CCN000360000000360000FN00000000020220301000360000NNM   20211227121342    2H0H  00002000000000042000000093132D2    TGYOT-G 004300270014
BI00B32D2    #DGTC2212      202201277172-5632-10             DUMMY PLUG               CCN000440000000440000FN00000000020220301000440000NNM   20211227121342    2H0H  00002000000000080400000131832D2    TGYOT-G 004300270014
BI00B32D2    #DGTC2212      202201277189-2978-30             HOUSING FEMALE           CCN000045000000045000FN00000000020220301000045000NNM   20211227121342    2F0F  00000150000000966900001096932D2    TGYOT-G 005400370024
BI00B32D2    #DGTC2212      202201277189-3033                HOUSING FEMALE           CCN000020800000020800FN00000000020220301000020800NNM   20211227121342    2F0F  00000160000001211200001431232D2    TGYOT-G 005500360039
BI00B32D2    #DGTC2212      202201277189-3036                HOUSING FEMALE           CCN000004800000004800FN00000000020220301000004800NNM   20211227121342    2F0F  00000160000000921600001141632D2    TGYOT-G 005500360039
BI00B32D2    #DGTC2212      202201277283-8226-30             CONNECTOR                CCN000014000000014000FN00000000020220301000014000NNM   20211227121342    2N0N  00000200000000820000001008032D2    TGYOT-G 005400370024
BI00B32D2    #DGTC2212      202201277289-3622-30             HOUSING FEMALE ASS'Y     CCN000005616000005616FN00000000020220301000005616NNM   20211227121342    2N0N  00000043200000839400001038432D2    TGYOT-G 005400370024
BI00B32D2    #DGTC2212      202201277289-4200-30             HOUSING FEMALE ASS'Y     CCN000004000000004000FN00000000020220301000004000NNM   20211227121342    2N0N  00000200000000926000001021032D2    TGYOT-G 005400370024
BI00B32D9    I21003         202202247289-3342                HOUSING FEMALE ASS'Y     CCN000012000000012000FN00000000020220301000012000NNMD0420211227121342    1N0N  00000240000000686400000901432D9    UEHESTO 005500360039
BI00B32D9    I21103         202202247289-3342                HOUSING FEMALE ASS'Y     CCN000016800000016800FN00000000020220301000016800NNMD0420211227121342    1N0N  00000240000000686400000901432D9    UEHESTO 005500360039
BI00B32D9    I21203         202203037289-3342                HOUSING FEMALE ASS'Y     CCN000021600000021600FN00000000020220301000021600NNMD0420211227121342    1N0N  00000240000000686400000901432D9    UEHESTO 005500360039
BI00B32D9    I21304         202203107289-3342                HOUSING FEMALE ASS'Y     CCN000016800000016800FN00000000020220301000016800NNMD0420211227121342    1N0N  00000240000000686400000901432D9    UEHESTO 005500360039
BI00B32D9    I21103         202202177289-3342-30             HOUSING FEMALE ASS'Y     CCN000036000000036000FN00000000020220301000036000NNMD0420211227121342    1N0N  00000240000000686400000901432D9    UEHESTO 005500360039
BI00B32D9    I21203         202202247289-3342-30             HOUSING FEMALE ASS'Y     CCN000028800000028800FN00000000020220301000028800NNMD0420211227121342    1N0N  00000240000000686400000901432D9    UEHESTO 005500360039
BI00B32D9    I21304         202203037289-3342-30             HOUSING FEMALE ASS'Y     CCN000036000000036000FN00000000020220301000036000NNMD0420211227121342    1N0N  00000240000000686400000901432D9    UEHESTO 005500360039
BI00B32D9    I21203         202202247289-3342-90             HOUSING FEMALE ASS'Y     CCN000004800000004800FN00000000020220301000004800NNMD0420211227121342    1N0N  00000240000000686400000901432D9    UEHESTO 005500360039
BI00B32EJ    4500184777     202201207283-1020                CONNECTOR                CCN000012000000012000FN00000000020220101000012000NNED0020211227145305EJ  4N0N  00000600000000840000001049332EJ    EJYKBO  005600390040
BI00B32EJ    4500184779     202201137283-5843                CONNECTOR                CCN000021000000000000FY00000000020220101000000000NNED0420211227145159EJ  1N0N  00000150000000889000001132032EJ    EJYKBO  005600390040
BI00B32EJ    4500184779     202201207283-5843                CONNECTOR                CCN000010500000021000FN00000000020220101000021000NNED0020211227145251EJ  1N0N  00000150000000889000001132032EJ    EJYKBO  005600390040
BI00B32EJ    4500186237     202201207B58-3070-80             RUBBER STOPPER           CCN000360000000360000FN00000000020220101000360000NNED0020211227145707EJ  1C0C  00004000000000276000000333032EJ    EJYKBO  004300270014
BI00B32EJ    4500186237     202201207114-4231-02             TERMINAL                 CCN000018000000018000FN00000000020220101000018000NNED0020211227145838EJ  4P0P  00001800000000554400000848032EJ    EJYKBO  006400630015
BI00B32EJ    4500186237     202201207158-3070-80             RUBBER STOPPER           CCN000040000000040000FN00000000020220101000040000NNED0020211227145856EJ  1C0C  00004000000000276000000333332EJ    EJYKBO  002700430014
BI00B32EJ    #4500186237    202201207157-3992-90             CONNECTOR SEALED         CCN000040000000040000FN00000000020220101000040000NNED0020211227145353EJ  2C0C  00004000000000300000000363332EJ    EJYKBO  002700430014
BI00B32EJ    #4500186237    202201207158-3121-80             WIRE SEAL                CCN000040000000040000FN00000000020220101000040000NNED0020211227145443EJ  2C0C  00002000000000118000000187332EJ    EJYKBO  002700430014
BI00B32EJ    #4500186237    202201207158-3120-90             CONNECTOR WIRE SEAL      CCN000060000000060000FN00000000020220101000060000NNED0020211227145732EJ  2C0C  00002000000000136000000194032EJ    EJYKBO  002700430014
BI00B32EJ    #4500186237    202201207158-3374-90             CONNECTOR WIRE SEAL      CCN000060000000060000FN00000000020220101000060000NNED0020211227145804EJ  2H0H  00002000000000172000000229332EJ    EJYKBO  002700430014
BI00B32EJ    #4500186237    202201207283-8398-40             CONNECTOR                CCN000009240000009240FN00000000020220101000009240NNED0020211227145935EJ  2N0N  00000154000001007000001171332EJ    EJYKBO  005600390023
BI00B32EJ    T211224P01     202202037116-4122-02             TERMINAL                 CCN000090000000090000FN00000000020220201000090000NNE   20211227121342EJ  4P0P  00000450000000656600000950232EJ    EJYKBO  006400630015
BI00B32EJ    T211224P02     202202037116-4022                TERMINAL                 CCN000013500000013500FN00000000020220201000013500NNE   20211227121342EJ  4P0P  00001350000000618300000903532EJ    EJYKBO  006400630015
BI00B32EJ    #T211224P02    202202037283-8398-40             CONNECTOR                CCN000067760000067760FN00000000020220201000067760NNE   20211227121342EJ  2N0N  00000154000001007000001171332EJ    EJYKBO  005600390023
BI00B32G2    #SA22013HMW    202112237183-8251-40             HOUSING                  CCN000002400000002400FY00000240020220101000000000NNM00020211227101237    2F0F  00000240000000357600000640032G2    AISUAI  005500360039
BI00B32G2    #SA22013HMW    202112237189-3036-30             HOUSING FEMALE           CCN000001600000001600FY00000160020220101000000000NNM00020211227101255    2F0F  00000160000000920000001140032G2    AISUAI  005500360039
BI00B32G2    #SA22013HMW    202112237189-3036-40             HOUSING FEMALE           CCN000004800000004800FY00000480020220101000000000NNM00020211227101255    2F0F  00000160000000923200001143232G2    AISUAI  005500360039
BI00B32G2    SA2201A MW     202202267283-5843                CONNECTOR                CCN000009000000009000FN00000000020220101000009000NNED0220211227155416    1N0N  00000150000000889000001132032G2    AISUAI  005600390040
BI00B32G2    SA2201AJMW     202201127287-2705                HOUSING FEMALE ASS'Y     CCN000048000000009600FN00000000020220101000009600NNEQ0220211227155629    1N0N  00000960000000614400000834432G2    AISUAI  005500360039
BI00B32G2    SA2201AJMW     202201127288-3206                HOUSING MALE ASS'Y       CCN000015300000005100FN00000000020220101000005100NNED0220211227155812    1N0N  00000102000000387600000787632G2    AISUAI  005500360039
BI00B32G2    SA2202A MW     202201127283-4576                HOUSING FEMALE ASS'Y     CCN000043200000019200FN00000000020220201000019200NNEQ0220211227155347    4N0N  00000480000000651300000871332G2    AISUAI  005500360039
BI00B32G2    SA22031 MW     202203027287-1917                CONNECTOR FEMALE         CCN000045600000045600FN00000000020220301000045600NNMD0220211227155440    4N0N  00000240000001060800001312532G2    AISUAI  005500360039
BI00B32G2    SA22032 MW     202203097287-1917                CONNECTOR FEMALE         CCN000040800000040800FN00000000020220301000040800NNMD0220211227155503    4N0N  00000240000001060800001312532G2    AISUAI  005500360039
BI00B32G2    SA22033 MW     202203167287-1917                CONNECTOR FEMALE         CCN000033600000033600FN00000000020220301000033600NNMD0220211227155517    4N0N  00000240000001060800001312532G2    AISUAI  005500360039
BI00B32G2    SA22034 MW     202203237287-1917                CONNECTOR FEMALE         CCN000019200000019200FN00000000020220301000019200NNMD0220211227155532    4N0N  00000240000001060800001312532G2    AISUAI  005500360039
BI00B32G2    #SA2201BHMW    202112297289-3622-30             HOUSING FEMALE ASS'Y     CCN000002000000000000FY00000000020220101000000000NNEQ0820211227113521    2N0N  00000043200000839400001038432G2    AISUAI  005400370024
BI00B32G2    SA2202A MW     202201197283-4576                HOUSING FEMALE ASS'Y     CCN000024000000024000FN00000000020220201000024000NNED0220211227155353    4N0N  00000480000000651300000871332G2    AISUAI  005500360039
BI00B32G2    SA2201AJMW     202201197287-2705                HOUSING FEMALE ASS'Y     CCN000019200000019200FN00000000020220101000019200NNED0220211227155655    1N0N  00000960000000614400000834432G2    AISUAI  005500360039
BI00B32G2    SA2201AJMW     202201267287-2705                HOUSING FEMALE ASS'Y     CCN000019200000019200FN00000000020220101000019200NNED0220211227155708    1N0N  00000960000000614400000834432G2    AISUAI  005500360039
BI00B32G2    SA2201AJMW     202201197288-3206                HOUSING MALE ASS'Y       CCN000005100000005100FN00000000020220101000005100NNED0220211227155828    1N0N  00000102000000387600000787632G2    AISUAI  005500360039
BI00B32G2    SA2201AJMW     202201267288-3206                HOUSING MALE ASS'Y       CCN000005100000005100FN00000000020220101000005100NNED0220211227155833    1N0N  00000102000000387600000787632G2    AISUAI  005500360039
BI00A32H2    #TIJ2013       202201057282-5845                HOUSING MALE ASS'Y       PCN000008000000004000FN00000000020220101000004000NNM00020211227160134    2N0N  00000400000001068000001178032H2    HVYHV   005400370024
BI00T32H2    @TIJ2031-I     202203107183-2510                HOUSING                  CCN000003000000003000FN00000000020220301000003000NNM   20211227132809    3F0F  00000300000001063500001159032H2    HVYHV   005400370024
BI00T32H2    @TIJ2032-I     202203177183-2510                HOUSING                  CCN000003000000003000FN00000000020220301000003000NNM   20211227132809    3F0F  00000300000001063500001159032H2    HVYHV   005400370024
BI00T32H2    @TIJ2033-I     202203247183-2510                HOUSING                  CCN000006000000006000FN00000000020220301000006000NNM   20211227132809    3F0F  00000300000001063500001159032H2    HVYHV   005400370024
BI00T32H2    @TIJ2034-I     202203317183-2510                HOUSING                  CCN000006000000006000FN00000000020220301000006000NNM   20211227132809    3F0F  00000300000001063500001159032H2    HVYHV   005400370024
BI00T32H2    @TIJ2031-I     202203107282-1025                HOUSING SUB ASSEMBLY     CCN000002400000002400FN00000000020220301000002400NNM   20211227132809    3N0N  00000240000001143800001390032H2    HVYHV   005500360039
BI00T32H2    @TIJ2032-I     202203177282-1025                HOUSING SUB ASSEMBLY     CCN000002400000002400FN00000000020220301000002400NNM   20211227132809    3N0N  00000240000001143800001390032H2    HVYHV   005500360039
BI00T32H2    @TIJ2033-I     202203247282-1025                HOUSING SUB ASSEMBLY     CCN000002400000002400FN00000000020220301000002400NNM   20211227132809    3N0N  00000240000001143800001390032H2    HVYHV   005500360039
BI00T32H2    @TIJ2031-I     202203107282-1064                CONNECTOR ASS'Y          CCN000004800000004800FN00000000020220301000004800NNM   20211227132809    3N0N  00000080000000907200001132432H2    HVYHV   005500360039
BI00T32H2    @TIJ2032-I     202203177282-1064                CONNECTOR ASS'Y          CCN000004000000004000FN00000000020220301000004000NNM   20211227132809    3N0N  00000080000000907200001132432H2    HVYHV   005500360039
BI00T32H2    @TIJ2033-I     202203247282-1064                CONNECTOR ASS'Y          CCN000004000000004000FN00000000020220301000004000NNM   20211227132809    3N0N  00000080000000907200001132432H2    HVYHV   005500360039
BI00T32H2    @TIJ2034-I     202203317282-1064                CONNECTOR ASS'Y          CCN000003200000003200FN00000000020220301000003200NNM   20211227132809    3N0N  00000080000000907200001132432H2    HVYHV   005500360039
BI00T32H2    @TIJ2031-I     202203107282-1148                CONNECTOR ASS'Y          CCN000004000000004000FN00000000020220301000004000NNM   20211227132809    3N0N  00000080000001165300001404032H2    HVYHV   005500360039
BI00T32H2    @TIJ2032-I     202203177282-1148                CONNECTOR ASS'Y          CCN000004000000004000FN00000000020220301000004000NNM   20211227132809    3N0N  00000080000001165300001404032H2    HVYHV   005500360039
BI00T32H2    @TIJ2033-I     202203247282-1148                CONNECTOR ASS'Y          CCN000004000000004000FN00000000020220301000004000NNM   20211227132809    3N0N  00000080000001165300001404032H2    HVYHV   005500360039
BI00T32H2    @TIJ2034-I     202203317282-1148                CONNECTOR ASS'Y          CCN000004000000004000FN00000000020220301000004000NNM   20211227132809    3N0N  00000080000001165300001404032H2    HVYHV   005500360039
BI00T32H2    @TIJ2031-I     202203107282-1148-40             CONNECTOR ASS'Y          CCN000004000000004000FN00000000020220301000004000NNM   20211227132809    3N0N  00000080000001171200001402032H2    HVYHV   005500360039
BI00T32H2    @TIJ2032-I     202203177282-1148-40             CONNECTOR ASS'Y          CCN000004800000004800FN00000000020220301000004800NNM   20211227132809    3N0N  00000080000001171200001402032H2    HVYHV   005500360039
BI00T32H2    @TIJ2033-I     202203247282-1148-40             CONNECTOR ASS'Y          CCN000004800000004800FN00000000020220301000004800NNM   20211227132809    3N0N  00000080000001171200001402032H2    HVYHV   005500360039
BI00T32H2    @TIJ2034-I     202203317282-1148-40             CONNECTOR ASS'Y          CCN000004000000004000FN00000000020220301000004000NNM   20211227132809    3N0N  00000080000001171200001402032H2    HVYHV   005500360039
BI00T32H2    @TIJ2031-I     202203107283-1556                CONNECTOR ASS'Y          CCN000012000000012000FN00000000020220301000012000NNM   20211227132809    3N0N  00000240000000755000001014032H2    HVYHV   005500360039
BI00T32H2    @TIJ2032-I     202203177283-1556                CONNECTOR ASS'Y          CCN000024000000024000FN00000000020220301000024000NNM   20211227132809    3N0N  00000240000000755000001014032H2    HVYHV   005500360039
BI00T32H2    @TIJ2033-I     202203247283-1556                CONNECTOR ASS'Y          CCN000024000000024000FN00000000020220301000024000NNM   20211227132809    3N0N  00000240000000755000001014032H2    HVYHV   005500360039
BI00T32H2    @TIJ2034-I     202203317283-1556                CONNECTOR ASS'Y          CCN000024000000024000FN00000000020220301000024000NNM   20211227132809    3N0N  00000240000000755000001014032H2    HVYHV   005500360039
BI00T32H2    @TIJ2031-I     202203107287-6634                HOUSING FEMALE ASS'Y     CCN000021600000021600FN00000000020220301000021600NNM   20211227132809    3N0N  00000240000001088400001337032H2    HVYHV   005500360039
BI00T32H2    @TIJ2032-I     202203177287-6634                HOUSING FEMALE ASS'Y     CCN000024000000024000FN00000000020220301000024000NNM   20211227132809    3N0N  00000240000001088400001337032H2    HVYHV   005500360039
BI00T32H2    @TIJ2033-I     202203247287-6634                HOUSING FEMALE ASS'Y     CCN000021600000021600FN00000000020220301000021600NNM   20211227132809    3N0N  00000240000001088400001337032H2    HVYHV   005500360039
BI00T32H2    @TIJ2034-I     202203317287-6634                HOUSING FEMALE ASS'Y     CCN000024000000024000FN00000000020220301000024000NNM   20211227132809    3N0N  00000240000001088400001337032H2    HVYHV   005500360039
BI00A32H7    #FS22012DMW    202112297289-4200-30             HOUSING FEMALE ASS'Y     PCN000012000000012000FN00000000020220101000012000NNMM0020211227160911    2N0N  00000200000000926000001021032H7    FYFSY   005400370024
BI00A32J1    #389871        202201047187-3356                JOINT CONNECTOR          CCN000002400000002400FN00000000020220101000002400NNE   20211227130642    2F0F  00000120000000759600001024432J1    UKYEL-BL005600390040
BI00A32J1    #389871        202201047187-3359-60             JOINT CONNECTOR          CCN000003600000003600FN00000000020220101000003600NNE   20211227130642    2F0F  00000120000000763200001030432J1    UKYEL-BL005600390040
BI00A32J1    #389871        202201047187-3360                JOINT CONNECTOR          CCN000001200000001200FN00000000020220101000001200NNE   20211227130642    2F0F  00000120000000759600001026832J1    UKYEL-BL005600390040
BI00B32M3    SM2201E MW     202201137114-4110-02             TERMINAL                 CCN000005000000015000FN00000000020220101000015000NNED0720211227121342    4P0P  00001500000000901500001230132M3    SASAMI  006400630017
BI00B32M3    #SM2202AHMW    202201137188-0149                HLC HOUSING MALE         CCN000000900000000900FN00000000020220201000000900NNE   20211227153956    2F0F  00000090000000809100000923832M3    SASAMI  005400370024
BI00B32M3    SM22031 MW     202202037017-1180-02             TERMINAL                 CCN000144000000144000FN00000000020220301000144000NNM   20211227154050    4P0P  00007200000001065600001229032M3    SASAMI  005100280028
BI00B32M3    SM22032 MW     202202107017-1180-02             TERMINAL                 CCN000144000000144000FN00000000020220301000144000NNM   20211227154050    4P0P  00007200000001065600001229032M3    SASAMI  005100280028
BI00B32M3    SM22033 MW     202202177017-1180-02             TERMINAL                 CCN000144000000144000FN00000000020220301000144000NNM   20211227154050    4P0P  00007200000001065600001229032M3    SASAMI  005100280028
BI00B32M3    SM22034 MW     202202247017-1180-02             TERMINAL                 CCN000072000000072000FN00000000020220301000072000NNM   20211227154050    4P0P  00007200000001065600001229032M3    SASAMI  005100280028
BI00B32M3    SM22031 MW     202202037017-1182-02             TERMINAL                 CCN000045000000045000FN00000000020220301000045000NNM   20211227154050    4P0P  00004500000001165500001318632M3    SASAMI  005100280028
BI00B32M3    SM22034 MW     202202247114-4020                TERMINAL                 CCN000021000000021000FN00000000020220301000021000NNM   20211227154050    4P0P  00002100000000875700001169332M3    SASAMI  006400630015
BI00B32M3    SM22031 MW     202202037114-4021                TERMINAL                 CCN000015000000015000FN00000000020220301000015000NNM   20211227154050    4P0P  00001500000000670500000964132M3    SASAMI  006400630015
BI00B32M3    SM22031 MW     202202037114-4030                TERMINAL                 CCN000010500000010500FN00000000020220301000010500NNM   20211227154050    4P0P  00001050000000926100001254732M3    SASAMI  006400630017
BI00B32M3    SM22032 MW     202202107114-4030                TERMINAL                 CCN000010500000010500FN00000000020220301000010500NNM   20211227154050    4P0P  00001050000000926100001254732M3    SASAMI  006400630017
BI00B32M3    SM22031 MW     202202037114-4032                TERMINAL                 CCN000015000000015000FN00000000020220301000015000NNM   20211227154050    4P0P  00000750000000735000001063632M3    SASAMI  006400630017
BI00B32M3    SM22032 MW     202202107114-4032                TERMINAL                 CCN000015000000015000FN00000000020220301000015000NNM   20211227154050    4P0P  00000750000000735000001063632M3    SASAMI  006400630017
BI00B32M3    SM22033 MW     202202177114-4032                TERMINAL                 CCN000015000000015000FN00000000020220301000015000NNM   20211227154050    4P0P  00000750000000735000001063632M3    SASAMI  006400630017
BI00B32M3    SM22034 MW     202202247114-4032                TERMINAL                 CCN000015000000015000FN00000000020220301000015000NNM   20211227154050    4P0P  00000750000000735000001063632M3    SASAMI  006400630017
BI00B32M3    SM22031 MW     202202037114-4112-02             TERMINAL                 CCN000009000000009000FN00000000020220301000009000NNM   20211227154050    4P0P  00000900000000598500000927132M3    SASAMI  006400630017
BI00B32M3    SM22031 MW     202202037114-4624-02             TERMINAL                 CCN000024000000024000FN00000000020220301000024000NNM   20211227154050    4P0P  00002400000000895200001188832M3    SASAMI  006400630015
BI00B32M3    SM22031 MW     202202037114-4728-02             TERMINAL                 CCN000180000000180000FN00000000020220301000180000NNM   20211227154050    4P0P  00003000000000510000000804232M3    SASAMI  006400630015
BI00B32M3    SM22032 MW     202202107114-4728-02             TERMINAL                 CCN000180000000180000FN00000000020220301000180000NNM   20211227154050    4P0P  00003000000000510000000804232M3    SASAMI  006400630015
BI00B32M3    SM22033 MW     202202177114-4728-02             TERMINAL                 CCN000150000000150000FN00000000020220301000150000NNM   20211227154050    4P0P  00003000000000510000000804232M3    SASAMI  006400630015
BI00B32M3    SM22034 MW     202202247114-4728-02             TERMINAL                 CCN000120000000120000FN00000000020220301000120000NNM   20211227154050    4P0P  00003000000000510000000804232M3    SASAMI  006400630015
BI00B32M3    SM22031 MW     202202037114-4729-02             TERMINAL                 CCN000150000000150000FN00000000020220301000150000NNM   20211227154050    4P0P  00003000000000516000000810232M3    SASAMI  006400630015
BI00B32M3    SM22032 MW     202202107114-4729-02             TERMINAL                 CCN000120000000120000FN00000000020220301000120000NNM   20211227154050    4P0P  00003000000000516000000810232M3    SASAMI  006400630015
BI00B32M3    SM22033 MW     202202177114-4729-02             TERMINAL                 CCN000120000000120000FN00000000020220301000120000NNM   20211227154050    4P0P  00003000000000516000000810232M3    SASAMI  006400630015
BI00B32M3    SM22034 MW     202202247114-4729-02             TERMINAL                 CCN000090000000090000FN00000000020220301000090000NNM   20211227154050    4P0P  00003000000000516000000810232M3    SASAMI  006400630015
BI00B32M3    SM22031 MW     202202037114-5746-02             TERMINAL                 CCN000021000000021000FN00000000020220301000021000NNM   20211227154050    4P0P  00002100000000695100000988732M3    SASAMI  006400630015
BI00B32M3    SM22032 MW     202202107114-5746-02             TERMINAL                 CCN000021000000021000FN00000000020220301000021000NNM   20211227154050    4P0P  00002100000000695100000988732M3    SASAMI  006400630015
BI00B32M3    SM22031 MW     202202037114-5747-02             TERMINAL                 CCN000054000000054000FN00000000020220301000054000NNM   20211227154050    4P0P  00001800000000626400000920032M3    SASAMI  006400630015
BI00B32M3    SM22032 MW     202202107114-5747-02             TERMINAL                 CCN000036000000036000FN00000000020220301000036000NNM   20211227154050    4P0P  00001800000000626400000920032M3    SASAMI  006400630015
BI00B32M3    SM22033 MW     202202177114-5747-02             TERMINAL                 CCN000018000000018000FN00000000020220301000018000NNM   20211227154050    4P0P  00001800000000626400000920032M3    SASAMI  006400630015
BI00B32M3    SM22034 MW     202202247114-5747-02             TERMINAL                 CCN000018000000018000FN00000000020220301000018000NNM   20211227154050    4P0P  00001800000000626400000920032M3    SASAMI  006400630015
BI00B32M3    SM22031 MW     202202037114-5748-02             TERMINAL                 CCN000084000000084000FN00000000020220301000084000NNM   20211227154050    4P0P  00001200000000444000000737632M3    SASAMI  006400630015
BI00B32M3    SM22032 MW     202202107114-5748-02             TERMINAL                 CCN000036000000036000FN00000000020220301000036000NNM   20211227154050    4P0P  00001200000000444000000737632M3    SASAMI  006400630015
BI00B32M3    SM22033 MW     202202177114-5748-02             TERMINAL                 CCN000036000000036000FN00000000020220301000036000NNM   20211227154050    4P0P  00001200000000444000000737632M3    SASAMI  006400630015
BI00B32M3    SM22034 MW     202202247114-5748-02             TERMINAL                 CCN000036000000036000FN00000000020220301000036000NNM   20211227154050    4P0P  00001200000000444000000737632M3    SASAMI  006400630015
BI00B32M3    SM22031 MW     202202037114-5753-02             TERMINAL                 CCN000027000000027000FN00000000020220301000027000NNM   20211227154050    4P0P  00002700000000847800001141432M3    SASAMI  006400630015
BI00B32M3    SM22032 MW     202202107114-5753-02             TERMINAL                 CCN000027000000027000FN00000000020220301000027000NNM   20211227154050    4P0P  00002700000000847800001141432M3    SASAMI  006400630015
BI00B32M3    SM22033 MW     202202177114-5753-02             TERMINAL                 CCN000027000000027000FN00000000020220301000027000NNM   20211227154050    4P0P  00002700000000847800001141432M3    SASAMI  006400630015
BI00B32M3    SM22031 MW     202202037114-6041                TERMINAL                 CCN000010800000010800FN00000000020220301000010800NNM   20211227154050    4P0P  00000360000000580700000824232M3    SASAMI  006400630015
BI00B32M3    SM22032 MW     202202107114-6041                TERMINAL                 CCN000007200000007200FN00000000020220301000007200NNM   20211227154050    4P0P  00000360000000580700000824232M3    SASAMI  006400630015
BI00B32M3    SM22033 MW     202202177114-6041                TERMINAL                 CCN000007200000007200FN00000000020220301000007200NNM   20211227154050    4P0P  00000360000000580700000824232M3    SASAMI  006400630015
BI00B32M3    SM22034 MW     202202247114-6041                TERMINAL                 CCN000003600000003600FN00000000020220301000003600NNM   20211227154050    4P0P  00000360000000580700000824232M3    SASAMI  006400630015
BI00B32M3    SM22031 MW     202202037116-1685-02             TERMINAL                 CCN000432000000432000FN00000000020220301000432000NNM   20211227154050    4P0P  00002400000000897600001065232M3    SASAMI  005100280028
BI00B32M3    SM22032 MW     202202107116-1685-02             TERMINAL                 CCN000240000000240000FN00000000020220301000240000NNM   20211227154050    4P0P  00002400000000897600001065232M3    SASAMI  005100280028
BI00B32M3    SM22033 MW     202202177116-1685-02             TERMINAL                 CCN000240000000240000FN00000000020220301000240000NNM   20211227154050    4P0P  00002400000000897600001065232M3    SASAMI  005100280028
BI00B32M3    SM22034 MW     202202247116-1685-02             TERMINAL                 CCN000216000000216000FN00000000020220301000216000NNM   20211227154050    4P0P  00002400000000897600001065232M3    SASAMI  005100280028
BI00B32M3    SM22031 MW     202202037116-1686-02             TERMINAL                 CCN000147000000147000FN00000000020220301000147000NNM   20211227154050    4P0P  00002100000000869400001021632M3    SASAMI  005100280028
BI00B32M3    SM22032 MW     202202107116-1686-02             TERMINAL                 CCN000084000000084000FN00000000020220301000084000NNM   20211227154050    4P0P  00002100000000869400001021632M3    SASAMI  005100280028
BI00B32M3    SM22033 MW     202202177116-1686-02             TERMINAL                 CCN000063000000063000FN00000000020220301000063000NNM   20211227154050    4P0P  00002100000000869400001021632M3    SASAMI  005100280028
BI00B32M3    SM22034 MW     202202247116-1686-02             TERMINAL                 CCN000063000000063000FN00000000020220301000063000NNM   20211227154050    4P0P  00002100000000869400001021632M3    SASAMI  005100280028
BI00B32M3    SM22031 MW     202202037116-2640                TERMINAL                 CCN000036000000036000FN00000000020220301000036000NNM   20211227154050    4P0P  00001800000001018800001196632M3    SASAMI  005100280028
BI00B32M3    SM22032 MW     202202107116-2640                TERMINAL                 CCN000018000000018000FN00000000020220301000018000NNM   20211227154050    4P0P  00001800000001018800001196632M3    SASAMI  005100280028
BI00B32M3    SM22033 MW     202202177116-2640                TERMINAL                 CCN000018000000018000FN00000000020220301000018000NNM   20211227154050    4P0P  00001800000001018800001196632M3    SASAMI  005100280028
BI00B32M3    SM22034 MW     202202247116-2640                TERMINAL                 CCN000018000000018000FN00000000020220301000018000NNM   20211227154050    4P0P  00001800000001018800001196632M3    SASAMI  005100280028
BI00B32M3    SM22031 MW     202202037116-2641                TERMINAL                 CCN000036000000036000FN00000000020220301000036000NNM   20211227154050    4P0P  00001800000001161000001344632M3    SASAMI  005100280028
BI00B32M3    SM22032 MW     202202107116-2641                TERMINAL                 CCN000018000000018000FN00000000020220301000018000NNM   20211227154050    4P0P  00001800000001161000001344632M3    SASAMI  005100280028
BI00B32M3    SM22033 MW     202202177116-2641                TERMINAL                 CCN000018000000018000FN00000000020220301000018000NNM   20211227154050    4P0P  00001800000001161000001344632M3    SASAMI  005100280028
BI00B32M3    SM22034 MW     202202247116-2641                TERMINAL                 CCN000018000000018000FN00000000020220301000018000NNM   20211227154050    4P0P  00001800000001161000001344632M3    SASAMI  005100280028
BI00B32M3    SM22031 MW     202202037116-3154-02             TERMINAL FEMALE          CCN000162000000162000FN00000000020220301000162000NNM   20211227154050    4P0P  00002700000000469800000755032M3    SASAMI  006400630015
BI00B32M3    SM22032 MW     202202107116-3154-02             TERMINAL FEMALE          CCN000162000000162000FN00000000020220301000162000NNM   20211227154050    4P0P  00002700000000469800000755032M3    SASAMI  006400630015
BI00B32M3    SM22033 MW     202202177116-3154-02             TERMINAL FEMALE          CCN000135000000135000FN00000000020220301000135000NNM   20211227154050    4P0P  00002700000000469800000755032M3    SASAMI  006400630015
BI00B32M3    SM22034 MW     202202247116-3154-02             TERMINAL FEMALE          CCN000054000000054000FN00000000020220301000054000NNM   20211227154050    4P0P  00002700000000469800000755032M3    SASAMI  006400630015
BI00B32M3    SM22031 MW     202202037116-4020                TERMINAL                 CCN000040500000040500FN00000000020220301000040500NNM   20211227154050    4P0P  00001350000000513000000798232M3    SASAMI  006400630015
BI00B32M3    SM22032 MW     202202107116-4020                TERMINAL                 CCN000040500000040500FN00000000020220301000040500NNM   20211227154050    4P0P  00001350000000513000000798232M3    SASAMI  006400630015
BI00B32M3    SM22033 MW     202202177116-4020                TERMINAL                 CCN000027000000027000FN00000000020220301000027000NNM   20211227154050    4P0P  00001350000000513000000798232M3    SASAMI  006400630015
BI00B32M3    SM22034 MW     202202247116-4020                TERMINAL                 CCN000013500000013500FN00000000020220301000013500NNM   20211227154050    4P0P  00001350000000513000000798232M3    SASAMI  006400630015
BI00B32M3    SM22031 MW     202202037116-4022                TERMINAL                 CCN000013500000013500FN00000000020220301000013500NNM   20211227154050    4P0P  00001350000000618300000903532M3    SASAMI  006400630015
BI00B32M3    SM22032 MW     202202107116-4022                TERMINAL                 CCN000013500000013500FN00000000020220301000013500NNM   20211227154050    4P0P  00001350000000618300000903532M3    SASAMI  006400630015
BI00B32M3    SM22033 MW     202202177116-4022                TERMINAL                 CCN000013500000013500FN00000000020220301000013500NNM   20211227154050    4P0P  00001350000000618300000903532M3    SASAMI  006400630015
BI00B32M3    SM22031 MW     202202037116-4025                TERMINAL                 CCN000080000000080000FN00000000020220301000080000NNM   20211227154050    4P0P  00001600000000644800000975132M3    SASAMI  006400630017
BI00B32M3    SM22032 MW     202202107116-4025                TERMINAL                 CCN000064000000064000FN00000000020220301000064000NNM   20211227154050    4P0P  00001600000000644800000975132M3    SASAMI  006400630017
BI00B32M3    SM22033 MW     202202177116-4025                TERMINAL                 CCN000064000000064000FN00000000020220301000064000NNM   20211227154050    4P0P  00001600000000644800000975132M3    SASAMI  006400630017
BI00B32M3    SM22034 MW     202202247116-4025                TERMINAL                 CCN000048000000048000FN00000000020220301000048000NNM   20211227154050    4P0P  00001600000000644800000975132M3    SASAMI  006400630017
BI00B32M3    SM22031 MW     202202037116-4026                TERMINAL                 CCN000032000000032000FN00000000020220301000032000NNM   20211227154050    4P0P  00001600000000664000000994332M3    SASAMI  006400630017
BI00B32M3    SM22032 MW     202202107116-4026                TERMINAL                 CCN000032000000032000FN00000000020220301000032000NNM   20211227154050    4P0P  00001600000000664000000994332M3    SASAMI  006400630017
BI00B32M3    SM22033 MW     202202177116-4026                TERMINAL                 CCN000032000000032000FN00000000020220301000032000NNM   20211227154050    4P0P  00001600000000664000000994332M3    SASAMI  006400630017
BI00B32M3    SM22031 MW     202202037116-4028-08             TERMINAL FEMALE          CCN000016000000016000FN00000000020220301000016000NNM   20211227154050    4P0P  00001600000000652800000981532M3    SASAMI  006400630017
