BI00B32DE    @TT1104        20220113181E50010ZZ              AVSSCS-S 0.5FX2 DGY/P    CCN000006600000006600FN00000000020211001000006600NNM20 20211227141158    1W    00000030000003096000000000032DE    TVYEV-TV000000000000VT41A026
BI00B32DE    @TT1104        20220113181E50027ZZ              AVSSCS-S 0.5FX3 DGY/G    CCN000005500000005500FN00000000020211001000005500NNM20 20211227141317    1W    00000025000003265000000000032DE    TVYEV-TV000000000000VT41A028
BI00B32DE    @TT1104        20220113181E50028ZZ              AVSSCS-S 0.5FX3 DGY      CCN000005750000005750FN00000000020211001000005750NNM20 20211227141317    1W    00000025000003265000000000032DE    TVYEV-TV000000000000VT41A027
BI00B32DE    @TT1104        20220113181F21003ZZ              AVSSHCS-S 0.5FX1 B/W     CCN000010000000010000FN00000000020211001000010000NNM20 20211227141317    1W    00000040000001908400000000032DE    TVYEV-TV000000000000VT41A032
BI00B32DE    @TT1104        20220113181F21004ZZ              AVSSHCS-S 0.5FX1 B/R     CCN000001200000001200FN00000000020211001000001200NNM20 20211227141317    1W    00000040000001908400000000032DE    TVYEV-TV000000000000VT41A031
BI00B32DE    @TT1104        20220113181F21006ZZ              AVSSHCS-S 0.5FX1 B/Y     CCN000001200000001200FN00000000020211001000001200NNM20 20211227141539    1W    00000040000001908400000000032DE    TVYEV-TV000000000000VT41A033
BI00B32DE    @TT1104        20220113181F21009ZZ              AVSSHCS-S 0.5FX2 B       CCN000006600000006600FN00000000020211001000006600NNM20 20211227141539    1W    00000030000002531400000000032DE    TVYEV-TV000000000000VT41A034
BI00B32DE    @TT1104        20220113181F21010ZZ              AVSSHCS-S 0.5FX2 B/W     CCN000000300000000300FN00000000020211001000000300NNM20 20211227141539    1W    00000030000002531400000000032DE    TVYEV-TV000000000000VT41A039
BI00B32DE    @TT1104        20220113181F21013ZZ              AVSSHCS-S 0.5FX2 B/Y     CCN000003000000003000FN00000000020211001000003000NNM20 20211227141539    1W    00000030000002531400000000032DE    TVYEV-TV000000000000VT41A040
BI00B32DE    @TT1104        20220113181F21014ZZ              AVSSHCS-S 0.5FX2 B/L     CCN000002700000002700FN00000000020211001000002700NNM20 20211227141539    1W    00000030000002531400000000032DE    TVYEV-TV000000000000VT41A036
BI00B32DE    @TT1094        20220113181E50003ZZ              AVSSCS-S 0.3FX2 DGY/BR   CCN000008400000008400FN00000000020210901000008400NNM23 20211227141821    1W    00000035000002165000000000032DE    TVYEV-TV000000000000VT318148
BI00B32D1    @DFTW2147      20220113181E48041ZZ              CAVSAS-S 0.3X2 GY/R      CCN000001050000000350FN00000000020211101000000350NNE22 20211227151614    1W    00000035000002008700000000032D1    TOYOT-K 000000000000KN11A011
BI00B32H2    @TAW201K       20220107181AD2023ZZ              CIVUSAS-S 0.13X2 B       CCN000001200000001200FN00000000020220101000001200NNE   20211227131632    1W    00000060000001031100000000032H2    HVYHV   000000000000UK31C001
BI00B32H2    @TAW201K       20220107181AD2024ZZ              CIVUSAS-S 0.13X3 B       CCN000001000000001000FN00000000020220101000001000NNE   20211227131632    1W    00000050000001297300000000032H2    HVYHV   000000000000UK31C002
BI00B32H2    @TAW201K       20220107181AD2025ZZ              CIVUSAS-S 0.13X4 B       CCN000000600000000600FN00000000020220101000000600NNE   20211227131632    1W    00000030000001661800000000032H2    HVYHV   000000000000UK31C003
BI00B32H2    @TAW201K       20220107181AD2026ZZ              CIVUSAS-S 0.13X6 B       CCN000000600000000600FN00000000020220101000000600NNE   20211227131632    1W    00000030000002258300000000032H2    HVYHV   000000000000UK31C004
BI00B32J1    @389761        20220117181AD2002ZZ              CIVUSAS-S 0.35X2 B       CCN000026100000026100FN00000000020220101000026100NNE   20211227100353    1W    00000045000001713700000000032J1    UKYEL-BL000000000000KG121001
BI00B32J1    @389761        20220117181AD2003ZZ              CIVUSAS-S 0.35X3 B       CCN000003850000003850FN00000000020220101000003850NNE   20211227100353    1W    00000035000002172100000000032J1    UKYEL-BL000000000000KG121002
BI00B32J1    @389761        20220117181E48022ZZ              CAVSAS-S 0.5X2 GY        CCN000001800000001800FN00000000020220101000001800NNE   20211227100353    1W    00000030000002561000000000032J1    UKYEL-BL000000000000KG121003
BI00B32P8    @TAPAW-1104    20211012181E48065ZZ              CAVSAS-S 0.5X4 GY/W      CCN000001400000000600FY00000060020211001000000000NNM00 20211227151121    1W    00000020000003995000000000032P8    YIYTM   000000000000YT41A070
BI00B32P8    @TAPAW-1112    20220112181F21013ZZ              AVSSHCS-S 0.5FX2 B/Y     CCN000001800000001200FN00000000020211101000001200NNM22 20211227150101    1W    00000030000002531400000000032P8    YIYTM   000000000000YT519058
BI00B32P8    @TAPAW-1104    20220112181E48065ZZ              CAVSAS-S 0.5X4 GY/W      CCN000000800000000800FN00000000020211001000000800NNM21 20211227151054    1W    00000020000003995000000000032P8    YIYTM   000000000000YT41A070
BI00A32Q8    EW21111TMW     202111291801W006992              IVSSH 0.35F V            PCN000142500000142500FY00014250020211101000000000NNM20 20211227110126    1W    00000250000000452000000000032Q8    EMEMI   000000000000MT11B067
BI00B32Q8    @EW2201C MW    20220105181E48022ZZ              CAVSAS-S 0.5X2 GY        CCN000002400000002400FN00000000020220101000002400NNE20 20211227130213    1W    00000030000002561000000000032Q8    EMEMI   000000000000MV41C001
BI00B32Q8    @EW2202ETMW    20220105181D69102A8              AVSSHCS 0.5FX2 B/P       CCN000003600000003600FN00000000020220201000003600NNE20 20211227130300    1W    00000030000002385000000000032Q8    EMEMI   000000000000ME41C001
BI00A32W2    @HN22021WMW    20211228181B32116Z5              AVSSCS 0.3FX2 DGY/L      CCN000000350000000350FN00000000020220201000000350NNM20 20211227153555    1W    00000035000002276000000000032W2    HNHNY   000000000000HW31C001
BI00A32W2    @HN2201DWMW    20211228181B32116Z5              AVSSCS 0.3FX2 DGY/L      CCN000000350000000350FN00000000020220101000000350NNE   20211227153555    1W    00000035000002276000000000032W2    HNHNY   000000000000HG21C001
