BI00A1200    2399T51923     202201187289-5979-30             HOUSING FEMALE ASS'Y     PCN000011592000008064FN00000000020211101000008064NNMD0220211223154205    1N0N  0000002520000085470000106471200    YCYC    005400370024
BI00B1200    #2399T51920    202112297289-4200-30             HOUSING FEMALE ASS'Y     CCN000042000000042000FN00000000020211101000042000NNMD0420211223162510    2N0N  0000020000000092600000102101200    YCYC    005400370024
BI00A1200    2399T51A21     202201247289-5979-30             HOUSING FEMALE ASS'Y     PCN000046368000004032FN00000000020211201000004032NNMD0420211223154135    1N0N  0000002520000085470000106471200    YCYC    005400370024
BI00A1200    2399T51A22     202202027289-5979-30             HOUSING FEMALE ASS'Y     PCN000046368000004032FN00000000020211201000004032NNMD0420211223154952    1N0N  0000002520000085470000106471200    YCYC    005400370024
BI00B1200    #7860T51A05    202112247172-5630-40             RUBBER STOPPER           CCN000100000000100000FN00000000020211201000100000NNM00020211223143550    2H0H  0000200000000004400000009511200    YCYC    004300270014
BI00A1200    2399T51A21     202201267289-5979-30             HOUSING FEMALE ASS'Y     PCN000014868000004032FN00000000020211201000004032NNMD0420211223154616    1N0N  0000002520000085470000106471200    YCYC    005400370024
BI00A1200    2399T51A21     202202017289-5979-30             HOUSING FEMALE ASS'Y     PCN000016632000010836FN00000000020211201000010836NNMD0420211223154749    1N0N  0000002520000085470000106471200    YCYC    005400370024
BI00B1200    2399T51A22     202203177289-5979-30             HOUSING FEMALE ASS'Y     CCN000014868000020412FN00000000020211201000020412NNMD0420211223155057    1N0N  0000002520000085470000106471200    YCYC    005400370024
BI00B1200    H322D50007     202202247116-4110-02             TERMINAL                 CCN000009000000009000FN00000000020220301000009000NNED0020211223122503    4P0P  0000090000000059400000088221200    YCYC    006400630015
BI00A1200    H722A50597     202201117297-1861-30             HOUSING MALE ASS'Y       CCN000007500000007500FN00000000020220101000007500NNE   20211223122503    4N0N  0000015000000070220000082731200    YCYC    005400370024
BI00B1200    O022B50351     202202247298-1187-30             SHUNT RING ASSEMBLY      CCN000010000000010000FN00000000020220301000010000NNE   20211223122503    4N0N  0000100000000064700000076951200    YCYC    005400370024
BI00A1200    2399T51923     202201177289-5979-30             HOUSING FEMALE ASS'Y     PCN000004032000004032FN00000000020211101000004032NNMD0220211223153719    1N0N  0000002520000085470000106471200    YCYC    005400370024
BI00A1200    2399T51923     202201197289-5979-30             HOUSING FEMALE ASS'Y     PCN000000756000004032FN00000000020211101000004032NNMD0220211223154205    1N0N  0000002520000085470000106471200    YCYC    005400370024
BI00A1200    2399T51923     202201217289-5979-30             HOUSING FEMALE ASS'Y     PCN000004032000000756FN00000000020211101000000756NNMD0220211223154205    1N0N  0000002520000085470000106471200    YCYC    005400370024
BI00A1200    2399T51A21     202201217289-5979-30             HOUSING FEMALE ASS'Y     PCN000003276000003276FN00000000020211201000003276NNMD0420211223154135    1N0N  0000002520000085470000106471200    YCYC    005400370024
BI00A1200    2399T51A21     202201257289-5979-30             HOUSING FEMALE ASS'Y     PCN000012096000012096FN00000000020211201000012096NNMD0420211223154536    1N0N  0000002520000085470000106471200    YCYC    005400370024
BI00A1200    2399T51A21     202201277289-5979-30             HOUSING FEMALE ASS'Y     PCN000004032000004032FN00000000020211201000004032NNMD0420211223154616    1N0N  0000002520000085470000106471200    YCYC    005400370024
BI00A1200    2399T51A21     202201287289-5979-30             HOUSING FEMALE ASS'Y     PCN000004032000004032FN00000000020211201000004032NNMD0420211223154628    1N0N  0000002520000085470000106471200    YCYC    005400370024
BI00A1200    2399T51A21     202201317289-5979-30             HOUSING FEMALE ASS'Y     PCN000004032000004032FN00000000020211201000004032NNMD0420211223154640    1N0N  0000002520000085470000106471200    YCYC    005400370024
BI00A1200    2399T51A22     202202017289-5979-30             HOUSING FEMALE ASS'Y     PCN000001260000001260FN00000000020211201000001260NNMD0420211223154952    1N0N  0000002520000085470000106471200    YCYC    005400370024
BI00A1200    2399T51A22     202202037289-5979-30             HOUSING FEMALE ASS'Y     PCN000004032000004032FN00000000020211201000004032NNMD0420211223155002    1N0N  0000002520000085470000106471200    YCYC    005400370024
BI00B32AG    XG2202DLMW     202201147289-7615-30             HOUSING FEMALE ASS'Y     CCN000005440000005440FN00000000020220201000005440NNE   20211223122503    4N0N  00000032000000738000000948032AG    XGXGY   005400370024
BI00B32AG    #XG2202DLMW    202201147158-3120-90             CONNECTOR WIRE SEAL      CCN000100000000100000FN00000000020220201000100000NNE   20211223122503    2C0C  00002000000000136000000194032AG    XGXGY   002700430014
BI00B32AG    XG2202ELMW     202201217017-1183-02             TERMINAL                 CCN000054000000054000FN00000000020220201000054000NNE   20211223122503    4P0P  00002700000001139400001307432AG    XGXGY   005100280028
BI00B32AG    XG2202ELMW     202201217116-4026                TERMINAL                 CCN000064000000064000FN00000000020220201000064000NNE   20211223122503    4P0P  00001600000000664000000994332AG    XGXGY   006400630017
BI00B32AG    XG2202ELMW     202201217172-1372-10             FRONT HOLDER             CCN000003900000003900FN00000000020220201000003900NNE   20211223122503    4F0F  00000390000000655200000955232AG    XGXGY   005500360039
BI00B32AG    XG2202ELMW     202201217289-4696-30             HOUSING FEMALE ASS'Y     CCN000012000000012000FN00000000020220201000012000NNE   20211223122503    4N0N  00000200000000913400001055432AG    XGXGY   005400370024
BI00B32AG    #XG2202ELMW    202201217158-3003-90             RUBBER STOPPER           CCN000040000000040000FN00000000020220201000040000NNE   20211223122503    2C0C  00002000000000250000000306032AG    XGXGY   002700430014
BI00B32AG    #XG2202ELMW    202201217158-3008-80             RUBBER STOPPER           CCN000040000000040000FN00000000020220201000040000NNE   20211223122503    2C0C  00002000000000288000000343032AG    XGXGY   004300270014
BI00B32AG    #XG2202ELMW    202201217158-3121-80             WIRE SEAL                CCN000040000000040000FN00000000020220201000040000NNE   20211223122503    2C0C  00002000000000118000000187332AG    XGXGY   002700430014
BI00B32AG    #XG2202ELMW    202201217182-9631-40             JOINT CONNECTOR          CCN000006000000006000FN00000000020220201000006000NNE   20211223122503    2F0F  00000300000001182000001307432AG    XGXGY   005400370024
BI00B32AG    XG2203ALMW     202202047172-1372-10             FRONT HOLDER             CCN000003900000003900FN00000000020220301000003900NNE   20211223122503    4F0F  00000390000000655200000955232AG    XGXGY   005500360039
BI00B32AG    XG2203ALMW     202202047289-4696-30             HOUSING FEMALE ASS'Y     CCN000012000000012000FN00000000020220301000012000NNE   20211223122503    4N0N  00000200000000913400001055432AG    XGXGY   005400370024
BI00B32AG    XG2203ALMW     202202047289-7615-30             HOUSING FEMALE ASS'Y     CCN000006080000006080FN00000000020220301000006080NNE   20211223122503    4N0N  00000032000000738000000948032AG    XGXGY   005400370024
BI00B32AG    #XG2203ALMW    202202047158-3120-90             CONNECTOR WIRE SEAL      CCN000080000000080000FN00000000020220301000080000NNE   20211223122503    2C0C  00002000000000136000000194032AG    XGXGY   002700430014
BI00B32AG    #XG2203ALMW    202202047182-9631-40             JOINT CONNECTOR          CCN000006000000006000FN00000000020220301000006000NNE   20211223122503    2F0F  00000300000001182000001307432AG    XGXGY   005400370024
BI00B32AG    XG2202DNMW     202201147126-8855-02             TERMINAL                 CCN000018000000018000FN00000000020220201000018000NNE   20211223122503    4P0P  00000600000000510600000795832AG    XGXGY   006400630015
BI00B32AG    XG2202DNMW     202201147158-3168-80             SEALED                   CCN000100000000100000FN00000000020220201000100000NNE   20211223122503    1C0C  00002000000000044000000092132AG    XGXGY   004300260014
BI00B32AG    XG2202ENMW     202201217116-4120-02             TERMINAL                 CCN000012000000012000FN00000000020220201000012000NNE   20211223122503    4P0P  00000600000000780000001073632AG    XGXGY   006400630015
BI00B32AG    XG2202ENMW     202201217116-4121-02             TERMINAL                 CCN000099000000099000FN00000000020220201000099000NNE   20211223122503    4P0P  00000450000000618800000912432AG    XGXGY   006400630015
BI00B32AG    XG2202ENMW     202201217116-4122-02             TERMINAL                 CCN000027000000027000FN00000000020220201000027000NNE   20211223122503    4P0P  00000450000000656600000950232AG    XGXGY   006400630015
BI00B32AG    XG2202ENMW     202201217116-4415-02             TERMINAL                 CCN001368000001368000FN00000000020220201001368000NNE   20211223122503    4P0P  00003800000000596600000925732AG    XGXGY   006400630017
BI00B32AG    XG2202ENMW     202201217158-3167-80             WIRE SEAL                CCN000180000000180000FN00000000020220201000180000NNE   20211223122503    1C0C  00002000000000048000000109032AG    XGXGY   002700430014
BI00B32AG    XG2203ANMW     202202047126-8855-02             TERMINAL                 CCN000012000000012000FN00000000020220301000012000NNE   20211223122503    4P0P  00000600000000510600000795832AG    XGXGY   006400630015
BI00B32AG    XG2203ANMW     202202047158-3165-90             WIRE SEAL                CCN000120000000120000FN00000000020220301000120000NNE   20211223122503    1C0C  00004000000000124000000172432AG    XGXGY   004300270014
BI00B32AG    XG2203ANMW     202202047158-3168-80             SEALED                   CCN000080000000080000FN00000000020220301000080000NNE   20211223122503    1C0C  00002000000000044000000092132AG    XGXGY   004300260014
BI00A32A7    ZZ22012BMW     202201047172-5403-30             SEALED PACKING           PCN000048000000048000FN00000000020220101000048000NNMD0420211223122503    1C0C  00000400000000653600000701732A7    ZZZZY   004300270014
BI00A32A7    ZZ2201BLMW     202201047172-5403-30             SEALED PACKING           PCN000004000000004000FN00000000020220101000004000NNE00020211223122503    1C0C  00000400000000653600000701732A7    ZZZZY   004300270014
BI00B32B7    #A82002        202112297135-7031                GROMMET                  CCN000007500000007500FY00000750020220301000000000NNM00020211223132220B7  2H0H  00000010000000634200000744232B7    AXARNE-M005400370024
BI00B32CA    #PTA32064      202202247189-3036                HOUSING FEMALE           CCN000001600000001600FN00000000020220601000001600NNE   20211223122503    2F0F  00000160000000921600001141632CA    YPYPY   005500360039
BI00B32CC    CTA32034       202201067283-4855                CONNECTOR HOUSING        CCN000019800000012000FN00000000020220301000012000NNED0420211223183251    4N0N  00000240000001188400001400032CC    BIYABCBU005500360039
BI00B32CG    S211226-S      202203027116-4025                TERMINAL                 CCN000032000000032000FN00000000020220301000032000NNE   20211223130918    4P0P  00001600000000644800000975132CG    ASASIACO006400630017
BI00B32CG    S211226-S      202203027116-4120-02             TERMINAL                 CCN000024000000024000FN00000000020220301000024000NNE   20211223130918    4P0P  00000600000000780000001073632CG    ASASIACO006400630015
BI00B32CG    S211226-S      202203027116-4121-02             TERMINAL                 CCN000058500000058500FN00000000020220301000058500NNE   20211223130918    4P0P  00000450000000618800000912432CG    ASASIACO006400630015
BI00B32CG    S211226-S      202203027116-4111-02             TERMINAL                 CCN000015000000015000FN00000000020220301000015000NNE   20211223130918    4P0P  00000750000000529500000817732CG    ASASIACO006400630015
BI00B32CG    #S211227-S     202203027158-3121-80             WIRE SEAL                CCN000200000000200000FN00000000020220301000200000NNE   20211223131032    2C0C  00002000000000118000000187332CG    ASASIACO002700430014
BI00B32CH    SJ21124HMW     202112037327-6870-30             MULTI FUSE               CCN000007776000004032FN00000000020211201000004032NNM00020211223141257    4N0N  00000028800001015200001181132CH    SJSAMIJF005400370024
BI00B32CH    SJ21124HMW     202112037327-6874-30             MULTI FUSE               CCN000007200000003456FN00000000020211201000003456NNM00020211223140552    4N0N  00000028800000991400001157332CH    SJSAMIJF005400370024
BI00B32CH    SJ21124HMW     202112037327-6884-30             MULTI FUSE               CCN000008352000006624FN00000000020211201000006624NNM00020211223141156    4N0N  00000028800000988900001154832CH    SJSAMIJF005400370024
BI00A32CH    SJ21124HMW     202112247327-6874-30             MULTI FUSE               CCN000003744000003744FN00000000020211201000003744NNMM0020211223143259    4N0N  00000028800000991400001157332CH    SJSAMIJF005400370024
BI00A32CH    SJ21124HMW     202112287327-6884-30             MULTI FUSE               CCN000001728000001728FN00000000020211201000001728NNMM0020211223143341    4N0N  00000028800000988900001154832CH    SJSAMIJF005400370024
BI00A32CH    SJ21124HMW     202112287327-6870-30             MULTI FUSE               CCN000003744000003744FN00000000020211201000003744NNMM0020211223143341    4N0N  00000028800001015200001181132CH    SJSAMIJF005400370024
BI00B32DG    RP1122A        202112247289-3342-30             HOUSING FEMALE ASS'Y     CCN000004800000004800FN00000000020211201000004800NNE00020211223145401    1N0N  00000240000000686400000901432DG    BFSAIBF 005500360039
BI00B32D1    DFTC2203       202112277289-6547                HOUSING FEMALE ASS'Y     CCN000014400000014400FN00000000020220101000014400NNM00020211223160805    1N0N  00000240000001152000001362032D1    TOYOT-K 005500360039
BI00B32D1    #DFTC2204      202112277289-3622-30             HOUSING FEMALE ASS'Y     CCN000003888000003888FN00000000020220101000003888NNM00020211223160701    2N0N  00000043200000839400001038432D1    TOYOT-K 005400370024
BI00B32D2    #DGTC2211      202203177172-5629-80             RUBBER STOPPER           CCN000460000000460000FN00000000020220301000460000NNMD0420211223122503    2H0H  00002000000000060000000111132D2    TGYOT-G 004300270014
BI00B32D2    #DGTC2211      202204287172-5630-40             RUBBER STOPPER           CCN000420000000420000FN00000000020220301000420000NNMD0420211223122503    2H0H  00002000000000044000000095132D2    TGYOT-G 004300270014
BI00B32D4    4513124556     202201197158-3166-60             WIRE SEAL                CCN000040000000040000FN00000000020220101000040000NNM   20211223122503    1C0C  00004000000000104000000152432D4    YRYRL   002700430014
BI00B32D4    #4513124556    202201197047-5344                RETAINER                 CCN000010000000010000FN00000000020220101000010000NNM   20211223122503    2F0F  00001000000000870000001016032D4    YRYRL   005600390023
BI00B32E1    NC202C         202201127017-1180-02             TERMINAL                 CCN000072000000072000FN00000000020220201000072000NNED0720211223122503    4P0P  00007200000001065600001229032E1    SPYSE   005100280028
BI00B32E1    NC202C         202201127116-1685-02             TERMINAL                 CCN000024000000024000FN00000000020220201000024000NNED0720211223122503    4P0P  00002400000000897600001065232E1    SPYSE   005100280028
BI00B32E1    NC202C         202201127116-5045-02             TERMINAL                 CCN000016000000016000FN00000000020220201000016000NNED0720211223122503    4P0P  00001600000000678400001007132E1    SPYSE   006400630017
BI00B32E1    #NC202C        202201127158-3003-90             RUBBER STOPPER           CCN000020000000020000FN00000000020220201000020000NNED0720211223122503    2C0C  00002000000000250000000306032E1    SPYSE   002700430014
BI00B32E1    #NC202C        202201127158-3004-40             RUBBER STOPPER           CCN000020000000020000FN00000000020220201000020000NNED0720211223122503    2C0C  00002000000000234000000306332E1    SPYSE   002700430014
BI00B32E1    #NC202C        202201127182-2410                CONNECTOR HOUSING        CCN000001200000001200FN00000000020220201000001200NNED0720211223122503    2F0F  00000120000000959800001245632E1    SPYSE   005500360039
BI00B32E2    NY202E         202201127116-1686-02             TERMINAL                 CCN000021000000021000FN00000000020220201000021000NNED0720211223122503    4P0P  00002100000000869400001021632E2    SPYSE   005100280028
BI00B32E2    NY202E         202201127158-3006-90             RUBBER STOPPER           CCN000020000000020000FN00000000020220201000020000NNED0720211223122503    1C0C  00002000000000330600000386032E2    SPYSE   002700430014
BI00B32E2    NY202E         202201127158-3166-60             WIRE SEAL                CCN000240000000240000FN00000000020220201000240000NNED0720211223122503    1C0C  00004000000000104000000152432E2    SPYSE   002700430014
BI00B32G2    #SA22014HMW    202201057282-5528-70             HOUSING MALE ASS'Y       CCN000004000000004000FN00000000020220101000004000NNM00020211223163307    2N0N  00000100000000230000000339032G2    AISUAI  005400370024
BI00A32G7    #JJ21123MMW    202112277172-5630-40             RUBBER STOPPER           PCN000300000000300000FN00000000020211201000300000NNM00020211223162727    2H0H  00002000000000044000000095132G7    JIJAI   004300270014
BI00A32G7    #JJ22013 MW    202112277158-3007-10             RUBBER STOPPER           PCN000100000000100000FN00000000020220101000100000NNMD0020211223164324    2H0H  00002000000000308000000362732G7    JIJAI   002700430014
BI00B32H7    FS21123DMW     202111297283-4855                CONNECTOR HOUSING        CCN000016800000007200FY00000720020211201000000000NNM00020211223182831    4N0N  00000240000001188400001400032H7    FYFSY   005500360039
BI00B32H7    FS21123DMW     202112247283-4855                CONNECTOR HOUSING        CCN000007200000007200FN00000000020211201000007200NNM00020211223182831    4N0N  00000240000001188400001400032H7    FYFSY   005500360039
BI00B32H7    FS21123DMW     202201067283-4855                CONNECTOR HOUSING        CCN000002400000002400FN00000000020211201000002400NNM00020211223182858    4N0N  00000240000001188400001400032H7    FYFSY   005500360039
BI00A32H8    #TY22011KMW    202201067172-5630-40             RUBBER STOPPER           PCN000020000000020000FN00000000020220101000020000NNMM0020211223190349    2H0H  00002000000000044000000095132H8    TYTYC   004300270014
BI00B32K8    #K1210012909   202112297137-2718-50             SEALED CONNECTOR         CCN000002000000002000FY00000200020220201000000000NNM00020211223132513    2C0C  00000100000000118300000236632K8    ELELCOM 002700430014
BI00B32K8    #K1210013332   202201217137-2200                CONNECTOR PACKING        CCN000005000000005000FN00000000020220301000005000NNM   20211223122503    2C0C  00000500000000136000000211332K8    ELELCOM 004300270014
BI00B32K8    #K1210013332   202201217137-2718-50             SEALED CONNECTOR         CCN000008000000008000FN00000000020220301000008000NNM   20211223122503    2C0C  00000100000000118300000236632K8    ELELCOM 002700430014
BI00B32M1    #TCVL2012      202201067172-5630-40             RUBBER STOPPER           CCN000040000000040000FN00000000020220101000040000NNM00020211223163431    2H0H  00002000000000044000000095132M1    VNYEV   004300270014
BI00B32M8    PM21122TMW     202112237288-6547                CONNECTOR MALE ASS'Y     CCN000001500000001500FN00000150020211201000000000NNM00020211223194601    4N0N  00000075000001205300001340332M8    PMPEMI  005400370024
BI00B32N1    NST2114ECU     202112257158-3070-80             RUBBER STOPPER           CCN000600000000600000FN00000000020220101000600000NNE00020211223142459    1C0C  00004000000000276000000333332N1    TAYIPL  002700430014
BI00B32N1    NST2114ECU     202112257158-3169-40             SEALING PLUG             CCN000060000000080000FN00000000020220101000080000NNE00020211223142510    1C0C  00004000000000156000000204132N1    TAYIPL  004300260014
BI00B32N1    NST2114ECU     202112257172-5540-80             SEALED WIRE SEAL         CCN000040000000040000FN00000000020220101000040000NNE00020211223142537    1C0C  00002000000000186000000234432N1    TAYIPL  004300270014
BI00B32N1    NST2114ECU     202112257282-8120-40             CONNECTOR HOUSING        CCN000024000000024000FN00000000020220101000024000NNE00020211223142524    1N0N  00000300000001356000001520032N1    TAYIPL  005500360039
BI00B32N1    NST2114ECU     202112257283-5845                CONNECTOR HOUSING        CCN000012000000012000FN00000000020220101000012000NNE00020211223142551    1N0N  00000600000000444000000606332N1    TAYIPL  005400370024
BI00B32N1    NST2114ECU     202112257B58-3070-80             RUBBER STOPPER           CCN000080000000080000FN00000000020220101000080000NNE00020211223142451    1C0C  00004000000000276000000333032N1    TAYIPL  004300270014
BI00B32N1    NST2113A 2     202112297283-1144                CONNECTOR                CCN000007200000007200FN00000000020220101000007200NNM00020211223142317    4N0N  00000240000000602200000866132N1    TAYIPL  005500360039
BI00B32N1    NST2113A 2     202112297283-1144-30             CONNECTOR                CCN000036000000019200FN00000000020220101000019200NNM00020211223142317    4N0N  00000240000000602200000866132N1    TAYIPL  005500360039
BI00B32N1    NST2114B-1     202112297126-8853-02             TERMINAL                 CCN000002170000007500FN00000000020220101000007500NNE00020211223142402    4P0P  00000750000000562500000847732N1    TAYIPL  006400630015
BI00B32N1    NST2114B-1     202112297126-8854-02             TERMINAL                 CCN000013020000015000FN00000000020220101000015000NNE00020211223142402    4P0P  00000750000000604500000889732N1    TAYIPL  006400630015
BI00B32N1    NST2114B-1     202112297116-4031                TERMINAL                 CCN000030000000030000FN00000000020220101000030000NNE00020211223142402    4P0P  00000750000000619500000904732N1    TAYIPL  006400630015
BI00B32N2    2152103742     202201207114-4020                TERMINAL                 CCN000021000000021000FN00000000020220201000021000NNM   20211223130414    4P0P  00002100000000875700001169332N2    YWYIPLTC006400630015
BI00B32N2    2152103742     202201207114-4021                TERMINAL                 CCN000015000000015000FN00000000020220201000015000NNM   20211223130414    4P0P  00001500000000670500000964132N2    YWYIPLTC006400630015
BI00B32N2    2152103742     202201207116-4032                TERMINAL                 CCN000006000000006000FN00000000020220201000006000NNM   20211223130414    4P0P  00000600000000532800000818032N2    YWYIPLTC006400630015
BI00B32N2    2152103742     202201207283-8630                CONNECTOR ASS'Y          CCN000018000000018000FN00000000020220201000018000NNM   20211223130414    4N0N  00000600000000540000000701332N2    YWYIPLTC005400370024
BI00B32N2    #2152103742    202201207116-4021                TERMINAL                 CCN000013500000013500FN00000000020220201000013500NNM   20211223130410    2F0P  00001350000000534600000868832N2    YWYIPLTC006400630015
BI00B32N2    #2152103742    202201207183-2412                HOUSING                  CCN000001600000001600FN00000000020220201000001600NNM   20211223130410    2F0F  00000160000001059200001245632N2    YWYIPLTC005500360039
BI00B32N2    #2152103742    202201207187-3356                JOINT CONNECTOR          CCN000003600000003600FN00000000020220201000003600NNM   20211223130410    2F0F  00000120000000759600001024432N2    YWYIPLTC005600390040
BI00B32N2    #2152103742    202201207187-3360                JOINT CONNECTOR          CCN000002400000002400FN00000000020220201000002400NNM   20211223130410    2F0F  00000120000000759600001026832N2    YWYIPLTC005600390040
BI00B32N2    #2152103742    202201207282-6458-40             CONNECTOR                CCN000018000000018000FN00000000020220201000018000NNM   20211223130410    2N0N  00000100000001206000001350532N2    YWYIPLTC005500360039
BI00B32N2    @2152103742    202201207283-1100                CONNECTOR ASS'Y          CCN000001600000001600FN00000000020220201000001600NNM   20211223130412    3N0N  00000160000000566500000799632N2    YWYIPLTC005500360039
BI00B32Q8    EU2202KTMW     202203027287-1915-40             CONNECTOR ASS'Y          CCN000002400000002400FN00000000020220201000002400NNED0220211223122503    4N0N  00000240000000666500000923132Q8    EMEMI   005500360039
BI00B32R7    R-TAP210629    202201137183-8255-40             HOUSING                  CCN000075600000075600FN00000000020220101000075600NNE   20211223122503    1F0F  00000120000000552000000853732R7    IVYCIC  005500360039
BI00B32R7    R-TAP210629    202201137183-8256-40             HOUSING                  CCN000075600000075600FN00000000020220101000075600NNE   20211223122503    1F0F  00000120000000937000001045732R7    IVYCIC  005500360039
BI00B32R8    TT22041AMW     202202227116-4028-08             TERMINAL FEMALE          CCN000016000000016000FN00000000020220401000016000NNM   20211223122503    4P0P  00001600000000652800000981532R8    TTTJY   006400630017
BI00B32R8    TT22041AMW     202202227116-5045-02             TERMINAL                 CCN000016000000016000FN00000000020220401000016000NNM   20211223122503    4P0P  00001600000000678400001007132R8    TTTJY   006400630017
BI00B32R8    TT22041AMW     202202227126-8853-02             TERMINAL                 CCN000007500000007500FN00000000020220401000007500NNM   20211223122503    4P0P  00000750000000562500000847732R8    TTTJY   006400630015
BI00B32R8    TT22041AMW     202202227158-3006-90             RUBBER STOPPER           CCN000060000000060000FN00000000020220401000060000NNM   20211223122503    1C0C  00002000000000330600000386032R8    TTTJY   002700430014
BI00B32R8    TT22041AMW     202202227283-1156                CONNECTOR                CCN000000800000000800FN00000000020220401000000800NNM   20211223122503    4N0N  00000080000000877600001078032R8    TTTJY   005600390040
BI00B32R8    TT22041AMW     202202227287-7775-40             HOUSING FEMALE ASS'Y     CCN000001000000001000FN00000000020220401000001000NNM   20211223122503    4N0N  00000100000000508000000620532R8    TTTJY   005400370024
BI00B32R8    #TT22041AMW    202202227154-5597-30             CASSETTE R/B             CCN000000800000000800FN00000000020220401000000800NNM   20211223122503    2F0F  00000080000000736000000952032R8    TTTJY   005500360039
BI00B32R8    #TT22041AMW    202202227158-3007-10             RUBBER STOPPER           CCN000020000000020000FN00000000020220401000020000NNM   20211223122503    2H0H  00002000000000308000000362732R8    TTTJY   002700430014
BI00B32R8    #TT22041AMW    202202227282-1030                CONNECTOR MALE ASS'Y     CCN000001000000001000FN00000000020220401000001000NNM   20211223122503    2N0N  00000100000000365000000487532R8    TTTJY   005400370024
BI00B32R8    @TT22041AMW    202202227282-1064-30             CONNECTOR ASS'Y          CCN000000800000000800FN00000000020220401000000800NNM   20211223122503    3N0N  00000080000000907300001140132R8    TTTJY   005500360039
BI00A32R8    #TT2202AAMW    202201187283-1071                CONNECTOR HOUSING        CCN000002000000002000FN00000000020220201000002000NNE   20211223122503    2N0N  00000200000000800000000930032R8    TTTJY   005400370024
BI00B32R8    TT2202BAMW     202201187158-3006-90             RUBBER STOPPER           CCN000060000000060000FN00000000020220201000060000NNED0720211223122503    1C0C  00002000000000330600000386032R8    TTTJY   002700430014
BI00B32R8    TT2202BAMW     202201187283-1289-10             CONNECTOR HOUSING        CCN000000600000000600FN00000000020220201000000600NNED0720211223122503    1N0N  00000060000000676200000821232R8    TTTJY   005400370024
BI00B32R8    TT2202BAMW     202201187287-7775-40             HOUSING FEMALE ASS'Y     CCN000001000000001000FN00000000020220201000001000NNED0720211223122503    4N0N  00000100000000508000000620532R8    TTTJY   005400370024
BI00B32R8    #TT2202BAMW    202201187158-3004-40             RUBBER STOPPER           CCN000020000000020000FN00000000020220201000020000NNED0720211223122503    2C0C  00002000000000234000000306332R8    TTTJY   002700430014
BI00B32R8    #TT2202BAMW    202201187158-3007-10             RUBBER STOPPER           CCN000020000000020000FN00000000020220201000020000NNED0720211223122503    2H0H  00002000000000308000000362732R8    TTTJY   002700430014
BI00B32R8    #TT2202BAMW    202201187172-5631-60             RUBBER STOPPER           CCN000020000000020000FN00000000020220201000020000NNED0720211223122503    2H0H  00002000000000042000000093132R8    TTTJY   004300270014
BI00B32R8    #TT2202BAMW    202201187172-5632-10             DUMMY PLUG               CCN000020000000020000FN00000000020220201000020000NNED0720211223122503    2H0H  00002000000000080400000131832R8    TTTJY   004300270014
BI00A32U5    #DI1050        202201107172-5630-40             RUBBER STOPPER           PCN000100000000100000FN00000000020220201000100000NNM00020211223182403U5  2H0H  00002000000000044000000095132U5    AMAMSD  004300270014
BI00A32U9    TPA206         202112247222-6244-40             CONNECTOR                CCN000002400000002400FN00000000020220201000002400NNMM0020211223122503U9  4N0N  00000080000001239200001422032U9    YNYNA-E 005600390040
BI00B32U9    TP0381S        202201207298-1145-4W             SQUIB SUB ASS'Y          CCN000010000000010000FN00000000020220201000010000NNE   20211223134757U9  4N0N  00001000000000787900000944932U9    YNYNA-E 005400370024
BI00B32U9    TP0381S        202201207158-3168-80             SEALED                   CCN000080000000080000FN00000000020220201000080000NNE   20211223134757U9  1C0C  00002000000000044000000092132U9    YNYNA-E 004300260014
BI00B32U9    TP0381S        202201207298-1186-40             SQUIB SUB ASS'Y          CCN000010000000010000FN00000000020220201000010000NNE   20211223134757U9  4N0N  00001000000000650000000774532U9    YNYNA-E 005400370024
BI00B32U9    #TP0381S       202201207135-6177                GROMMET                  CCN000001400000001400FN00000000020220201000001400NNE   20211223134740U9  2H0H  00000020000001139600001249632U9    YNYNA-E 005600390040
BI00B32U9    #TP0381S       202201207282-3042-90             CONNECTOR                CCN000010800000010800FN00000000020220201000010800NNE   20211223134740U9  2N0N  00000090000001418000001584032U9    YNYNA-E 005500360039
BI00B32U9    TPA208         202201207114-4030                TERMINAL                 CCN000010500000010500FN00000000020220201000010500NNM   20211223140545U9  4P0P  00001050000000926100001254732U9    YNYNA-E 006400630017
BI00B32U9    TPA208         202201207114-4032                TERMINAL                 CCN000007500000007500FN00000000020220201000007500NNM   20211223140545U9  4P0P  00000750000000735000001063632U9    YNYNA-E 006400630017
BI00B32U9    TPA208         202201207116-4037                TERMINAL                 CCN000006000000006000FN00000000020220201000006000NNM   20211223140545U9  4P0P  00000600000000600000000894232U9    YNYNA-E 006400630015
BI00B32U9    TPA208         202201207289-0269                HOUSING SUB ASSEMBLY     CCN000003200000003200FN00000000020220201000003200NNM   20211223140545U9  1N0N  00000160000001002100001234532U9    YNYNA-E 005500360039
BI00B32U9    TPA208         202201207114-1670-02             TERMINAL                 CCN000024000000024000FN00000000020220201000024000NNM   20211223140545U9  1P0P  00002400000000357600000645832U9    YNYNA-E 006400630015
BI00B32U9    TPA208         202201207116-2951-02             TERMINAL                 CCN000081000000081000FN00000000020220201000081000NNM   20211223140545U9  4P0P  00000540000000817600001111832U9    YNYNA-E 006400630015
BI00B32U9    TPA208         202201207116-4060-02             TERMINAL                 CCN000024000000024000FN00000000020220201000024000NNM   20211223140545U9  1P0P  00002400000000511200000984232U9    YNYNA-E 006400630017
BI00B32U9    TPA208         202201207116-4231-02             TERMINAL                 CCN000026000000026000FN00000000020220201000026000NNM   20211223140545U9  4P0P  00002600000000683800001012532U9    YNYNA-E 006400630017
BI00B32U9    TPA208         202201207158-3165-90             WIRE SEAL                CCN000520000000520000FN00000000020220201000520000NNM   20211223140545U9  1C0C  00004000000000124000000172432U9    YNYNA-E 004300270014
BI00B32U9    TPA208         202201207158-3166-60             WIRE SEAL                CCN000840000000840000FN00000000020220201000840000NNM   20211223140545U9  1C0C  00004000000000104000000152432U9    YNYNA-E 002700430014
BI00B32U9    TPA208         202201207158-3167-80             WIRE SEAL                CCN000940000000940000FN00000000020220201000940000NNM   20211223140545U9  1C0C  00002000000000048000000109032U9    YNYNA-E 002700430014
BI00B32U9    TPA208         202201207158-3168-80             SEALED                   CCN000200000000200000FN00000000020220201000200000NNM   20211223140545U9  1C0C  00002000000000044000000092132U9    YNYNA-E 004300260014
BI00B32U9    TPA208         202201207158-3169-40             SEALING PLUG             CCN000360000000360000FN00000000020220201000360000NNM   20211223140545U9  1C0C  00004000000000156000000204132U9    YNYNA-E 004300260014
BI00B32U9    TPA208         202201207172-5540-80             SEALED WIRE SEAL         CCN000020000000020000FN00000000020220201000020000NNM   20211223140545U9  1C0C  00002000000000186000000234432U9    YNYNA-E 004300270014
BI00B32U9    TPA208         202201207174-1849-70             COVER                    CCN000025000000025000FN00000000020220201000025000NNM   20211223140545U9  1F0F  00002500000000622500000761932U9    YNYNA-E 005400370024
BI00B32U9    TPA208         202201207222-4220-30             CONNECTOR                CCN000004500000004500FN00000000020220201000004500NNM   20211223140545U9  4N0N  00000075000001219000001384032U9    YNYNA-E 005600390040
BI00B32U9    TPA208         202201207282-5574-10             CONNECTOR                CCN000056800000056800FN00000000020220201000056800NNM   20211223140545U9  4N0N  00000080000001235000001423032U9    YNYNA-E 005600390040
BI00B32U9    TPA208         202201207282-5684-10             CONNECTOR                CCN000002400000002400FN00000000020220201000002400NNM   20211223140545U9  4N0N  00000120000001477000001656032U9    YNYNA-E 005600390040
BI00B32U9    TPA208         202201207283-8599-30             CONNECTOR                CCN000003080000003080FN00000000020220201000003080NNM   20211223140545U9  4N0N  00000154000000947100001157032U9    YNYNA-E 005600390023
BI00B32U9    TPA208         202201207289-6868-30             SEALED ASSY FEMALE       CCN000005040000005040FN00000000020220201000005040NNM   20211223140545U9  4N0N  00000252000000839200001119232U9    YNYNA-E 005500360039
BI00B32U9    TPA208         202201207298-1186-40             SQUIB SUB ASS'Y          CCN000010000000010000FN00000000020220201000010000NNM   20211223140545U9  4N0N  00001000000000650000000774532U9    YNYNA-E 005400370024
BI00B32U9    TPA208         202201207298-1145-4W             SQUIB SUB ASS'Y          CCN000010000000010000FN00000000020220201000010000NNM   20211223140545U9  4N0N  00001000000000787900000944932U9    YNYNA-E 005400370024
BI00B32U9    TPA208         202201207298-1149-3W             SQUIB SUB ASS'Y          CCN000010000000010000FN00000000020220201000010000NNM   20211223140545U9  4N0N  00001000000000785000000922032U9    YNYNA-E 005400370024
BI00B32U9    #TPA208        202201207135-6177                GROMMET                  CCN000003200000003200FN00000000020220201000003200NNM   20211223140530U9  2H0H  00000020000001139600001249632U9    YNYNA-E 005600390040
BI00B32U9    #TPA208        202201207147-9094                RETAINER                 CCN000012000000012000FN00000000020220201000012000NNM   20211223140530U9  2F0F  00000300000000717000000872932U9    YNYNA-E 005500360039
BI00B32U9    #TPA208        202201207157-3646                RUBBER STOPPER           CCN000100000000100000FN00000000020220201000100000NNM   20211223140530U9  2H0H  00002000000000184000000255232U9    YNYNA-E 002700430014
BI00B32U9    #TPA208        202201207047-1611-30             CLIP                     CCN000004000000004000FN00000000020220201000004000NNM   20211223140530U9  2F0F  00000200000001600000001739032U9    YNYNA-E 005600390040
BI00B32U9    #TPA208        202201207158-3376-50             CONNECTOR WIRE SEAL      CCN000100000000100000FN00000000020220201000100000NNM   20211223140530U9  2C0C  00002000000000184000000240732U9    YNYNA-E 002700430014
BI00B32U9    #TPA208        202201207282-3042-90             CONNECTOR                CCN000007200000007200FN00000000020220201000007200NNM   20211223140530U9  2N0N  00000090000001418000001584032U9    YNYNA-E 005500360039
BI00B32U9    #TPA208        202201207282-6446-40             CONNECTOR                CCN000016500000016500FN00000000020220201000016500NNM   20211223140530U9  2N0N  00000150000001185000001368032U9    YNYNA-E 005500360039
BI00B32U9    #TPA208        202201207282-6457-40             CONNECTOR                CCN000000800000000800FN00000000020220201000000800NNM   20211223140530U9  2N0N  00000080000001137000001421332U9    YNYNA-E 005600390040
BI00B32U9    #TPA208        202201207283-8226-30             CONNECTOR                CCN000048000000048000FN00000000020220201000048000NNM   20211223140530U9  2N0N  00000200000000820000001008032U9    YNYNA-E 005400370024
BI00B32U9    #TPA208        202201207283-8397-40             CONNECTOR                CCN000009240000009240FN00000000020220201000009240NNM   20211223140530U9  2N0N  00000154000001007000001222732U9    YNYNA-E 005600390023
BI00B32W4    4500182472     202203107158-3168-80             SEALED                   CCN001040000001040000FN00000000020220201001040000NNED0220211223134858W4561C0C  00002000000000044000000092132W456  HJYHK   004300260014
BI00A32W6    SW21123QMW     202112247327-6884-30             MULTI FUSE               PCN000006624000006624FN00000000020211201000006624NNM00020211223161436    4N0N  00000028800000988900001154832W6    SYSYA-WJ005400370024
BI00B32W6    #SW22014QMW    202201057298-2459-60             LIF FEMALE ASSEMBLY      CCN000006720000006720FN00000000020220101000006720NNM00020211223163642    2N0N  00000016800000534000000729632W6    SYSYA-WJ005400370024
BI00B32W6    #SW2202BQMW    202203097172-5629-80             RUBBER STOPPER           CCN000200000000200000FN00000000020220201000200000NNED0420211223122503    2H0H  00002000000000060000000111132W6    SYSYA-WJ004300270014
BI00B32W9    4500168359     202112247289-6868-30             SEALED ASSY FEMALE       CCN000010080000010080FN00000000020210401000010080NNE00020211223163747W9  4N0N  00000252000000839200001119232W9    HKYHK   005500360039
BI00B32W9    4500182074     202112227287-7975-4W             SQUIB SUB ASS'Y          CCN000100000000100000FY00010000020211101000000000NNE00020211223134457W9  4N0N  00001000000000837000001017032W9    HKYHK   005400370024
BI00A32X5    TIB1050        202201117288-6547                CONNECTOR MALE ASS'Y     PCN000018000000018000FN00000000020220201000018000NNM00020211223183106X5  4N0N  00000075000001205300001340332X5    EPYNA-E 005400370024
BI00A32X5    TIB1050        202201117289-3342-30             HOUSING FEMALE ASS'Y     PCN000019200000019200FN00000000020220201000019200NNM00020211223183106X5  1N0N  00000240000000686400000901432X5    EPYNA-E 005500360039
BI00B32X5    #TIB2010       202204297172-5630-40             RUBBER STOPPER           CCN000120000000120000FN00000000020220401000120000NNMD0420211223122503X5  2H0H  00002000000000044000000095132X5    EPYNA-E 004300270014
BI00B32Y2    TAU1164        202201207282-4855                HOUSING MALE ASS'Y       CCN000002600000003600FN00000000020220501000003600NNE   20211223122503    4N0N  00000120000001063200001283232Y2    YUYUY   005500360039
BI00A32Y5    TTA32041       202112247283-5845-40             CONNECTOR HOUSING        CCN000036000000012000FN00000000020220401000012000NNM00020211223153702    1N0N  00000600000000444000000606332Y5    BZYBL   005400370024
