BI00A1200    2399T51A22     202202027289-5979-30             HOUSING FEMALE ASS'Y     PCN000046368000003024FY00000302420211201000000000NNMD0420220202161619    1N0N  0000002520000085470000106471200    YCYC    005400370024
BI00B1200    #2399T52105    202202037173-3225-10             LIF LEVER                CCN000049600000049600FN00000000020220301000049600NNMD0220220202152248    2F0F  0000008000000059200000071201200    YCYC    005500360039
BI00B1200    #2399T52110    202202107198-1372-60             HOUSING FEMALE           CCN000002000000000000FY00000000020220301000000000NNMQ0820220202144440    2F0F  0000020000000085720000099521200    YCYC    005400370024
BI00B1200    #2399T52209    202203037198-1372-60             HOUSING FEMALE           CCN000004000000000000FY00000000020220401000000000NNMQ0820220202144458    2F0F  0000020000000085720000099521200    YCYC    005400370024
BI00B1200    #2399T52210    202203107198-1372-60             HOUSING FEMALE           CCN000004000000000000FY00000000020220401000000000NNMQ0820220202144511    2F0F  0000020000000085720000099521200    YCYC    005400370024
BI00B1200    #2399T52211    202203177198-1372-60             HOUSING FEMALE           CCN000004000000000000FY00000000020220401000000000NNMQ0820220202144523    2F0F  0000020000000085720000099521200    YCYC    005400370024
BI00B1200    #2399T52213    202203247198-1372-60             HOUSING FEMALE           CCN000002000000000000FY00000000020220401000000000NNMQ0820220202144536    2F0F  0000020000000085720000099521200    YCYC    005400370024
BI00B1200    #2399T52214    202203317198-1372-60             HOUSING FEMALE           CCN000002000000000000FY00000000020220401000000000NNMQ0820220202144550    2F0F  0000020000000085720000099521200    YCYC    005400370024
BI00B1200    H322E50012     202204077116-4110-02             TERMINAL                 CCN000009000000009000FN00000000020220501000009000NNE   20220202131013    4P0P  0000090000000059400000088221200    YCYC    006400630015
BI00B1200    O022C50456     202203317298-1187-30             SHUNT RING ASSEMBLY      CCN000020000000020000FN00000000020220401000020000NNE   20220202131013    4N0N  0000100000000064700000076951200    YCYC    005400370024
BI00A1200    2399T51A22     202202227289-5979-30             HOUSING FEMALE ASS'Y     PCN000001008000001008FN00000000020211201000001008NNMD0420220202161619    1N0N  0000002520000085470000106471200    YCYC    005400370024
BI00B32AF    JTB2041        202203117289-3342-30             HOUSING FEMALE ASS'Y     CCN000060000000030000FN00000000020220401000030000NNMQ0420220202131013    1N0N  00000240000000686400000901432AF    HBYHVTB 005500360039
BI00B32AF    JTB2042        202203257289-3342-30             HOUSING FEMALE ASS'Y     CCN000040800000040800FN00000000020220401000040800NNMD0420220202131013    1N0N  00000240000000686400000901432AF    HBYHVTB 005500360039
BI00B32AF    JTB2043        202204017289-3342-30             HOUSING FEMALE ASS'Y     CCN000060000000060000FN00000000020220401000060000NNMD0420220202131013    1N0N  00000240000000686400000901432AF    HBYHVTB 005500360039
BI00B32AF    JTB2044        202204087289-3342-30             HOUSING FEMALE ASS'Y     CCN000036000000036000FN00000000020220401000036000NNMD0420220202131013    1N0N  00000240000000686400000901432AF    HBYHVTB 005500360039
BI00B32AF    JTB2041        202203187289-3342-30             HOUSING FEMALE ASS'Y     CCN000030000000030000FN00000000020220401000030000NNMD0420220202131013    1N0N  00000240000000686400000901432AF    HBYHVTB 005500360039
BI00B32A7    ZZ22043BMW     202203167137-3047-30             UNIT PACKING             CCN000026000000013000FN00000000020220401000013000NNMQ0420220202135545    1C0C  00000100000000170500000218932A7    ZZZZY   002700430014
BI00B32A7    ZZ22043BMW     202203237137-3047-30             UNIT PACKING             CCN000013000000013000FN00000000020220401000013000NNMD0420220202135550    1C0C  00000100000000170500000218932A7    ZZZZY   002700430014
BI00B32BG    #YY2203ANMW    202202107158-3007-10             RUBBER STOPPER           CCN000020000000020000FN00000000020220301000020000NNED0420220202140652    2H0H  00002000000000308000000362732BG    YGYYA   002700430014
BI00B32CH    #SJ22034HMW    202202177286-8859                HOUSING MALE ASS'Y       CCN000013600000013600FN00000000020220301000013600NNMQ0020220202131013    2N0N  00000080000000573100000733132CH    SJSAMIJF005400370024
BI00B32CH    #SJ22035HMW    202202177286-8859                HOUSING MALE ASS'Y       CCN000008000000008000FN00000000020220301000008000NNMQ0020220202131013    2N0N  00000080000000573100000733132CH    SJSAMIJF005400370024
BI00B32CH    #SJ22035HMW    202202177287-8861                HOUSING FEMALE ASS'Y     CCN000008000000008000FN00000000020220301000008000NNMQ0020220202131013    2N0N  00000160000000769000000929032CH    SJSAMIJF005400370024
BI00B32CJ    JQN203A        202203257327-6987-3W             BATTERY FUSE             CCN000000100000000000FY00000000020220301000000000NNEQ0820220202132220    4N0N  00000007200000000000000000032CJ    QNYHVQN 000000000000
BI00B32CJ    JQN2041        202209237289-3342-30             HOUSING FEMALE ASS'Y     CCN000024000000024000FN00000000020220401000024000NNMS0020220202131013    1N0N  00000240000000686400000901432CJ    QNYHVQN 005500360039
BI00B32CJ    JQN2042        202209307289-3342-30             HOUSING FEMALE ASS'Y     CCN000021600000021600FN00000000020220401000021600NNMS0020220202131013    1N0N  00000240000000686400000901432CJ    QNYHVQN 005500360039
BI00B32DA    SBT2204        202202247283-5830                CONNECTOR                CCN000036000000012000FN00000000020220401000012000NNMD0220220202131013    1N47  00000600000000954000001104032DA    GBYIPLGB005500360039
BI00B32DA    SBT2204        202203037283-5845                CONNECTOR HOUSING        CCN000030000000012000FN00000000020220401000012000NNMD0420220202131013    1N0N  00000600000000444000000606332DA    GBYIPLGB005400370024
BI00B32DA    SBT2204A       202203177283-5845                CONNECTOR HOUSING        CCN000006000000006000FN00000000020220401000006000NNMD0220220202131013    1N0N  00000600000000444000000606332DA    GBYIPLGB005400370024
BI00B32DA    SBT2204        202202247283-5830-30             CONNECTOR                CCN000018000000006000FN00000000020220401000006000NNMD0220220202131013    1N0N  00000600000000954000001104032DA    GBYIPLGB005500360039
BI00B32DA    SBT2204A       202203107283-5830-30             CONNECTOR                CCN000012000000012000FN00000000020220401000012000NNMD0220220202131013    1N0N  00000600000000954000001104032DA    GBYIPLGB005500360039
BI00B32DA    SBT2204        202207077289-3342-30             HOUSING FEMALE ASS'Y     CCN000043200000043200FN00000000020220401000043200NNMS0020220202131013    1N0N  00000240000000686400000901432DA    GBYIPLGB005500360039
BI00B32DA    SBT2204A       202207147289-3342-30             HOUSING FEMALE ASS'Y     CCN000026400000026400FN00000000020220401000026400NNMS0020220202131013    1N0N  00000240000000686400000901432DA    GBYIPLGB005500360039
BI00B32DA    SBT2204        202203037286-3885-40             CONNECTOR MALE ASS'Y     CCN000041750000008400FN00000000020220401000008400NNMD0420220202131013    1N0N  00000120000000910600001130632DA    GBYIPLGB005500360039
BI00B32DA    SBT2204A       202204077286-3885-40             CONNECTOR MALE ASS'Y     CCN000021600000010800FN00000000020220401000010800NNMD0420220202131013    1N0N  00000120000000910600001130632DA    GBYIPLGB005500360039
BI00B32DA    SBT2204        202203037283-5830                CONNECTOR                CCN000012000000012000FN00000000020220401000012000NNMD0420220202131013    1N47  00000600000000954000001104032DA    GBYIPLGB005500360039
BI00B32DA    SBT2204        202203107283-5830                CONNECTOR                CCN000012000000012000FN00000000020220401000012000NNMD0220220202131013    1N47  00000600000000954000001104032DA    GBYIPLGB005500360039
BI00B32DA    SBT2204        202203037283-5830-30             CONNECTOR                CCN000012000000012000FN00000000020220401000012000NNMD0420220202131013    1N0N  00000600000000954000001104032DA    GBYIPLGB005500360039
BI00B32DA    SBT2204        202203107283-5845                CONNECTOR HOUSING        CCN000012000000012000FN00000000020220401000012000NNMD0220220202131013    1N0N  00000600000000444000000606332DA    GBYIPLGB005400370024
BI00B32DA    SBT2204        202203177283-5845                CONNECTOR HOUSING        CCN000006000000006000FN00000000020220401000006000NNMD0220220202131013    1N0N  00000600000000444000000606332DA    GBYIPLGB005400370024
BI00B32DA    SBT2204        202203107286-3885-40             CONNECTOR MALE ASS'Y     CCN000008400000008400FN00000000020220401000008400NNMD0420220202131013    1N0N  00000120000000910600001130632DA    GBYIPLGB005500360039
BI00B32DA    SBT2204        202203177286-3885-40             CONNECTOR MALE ASS'Y     CCN000008400000008400FN00000000020220401000008400NNMD0420220202131013    1N0N  00000120000000910600001130632DA    GBYIPLGB005500360039
BI00B32DA    SBT2204        202203247286-3885-40             CONNECTOR MALE ASS'Y     CCN000008400000008400FN00000000020220401000008400NNMD0420220202131013    1N0N  00000120000000910600001130632DA    GBYIPLGB005500360039
BI00B32DA    SBT2204        202203317286-3885-40             CONNECTOR MALE ASS'Y     CCN000008400000008400FN00000000020220401000008400NNMD0420220202131013    1N0N  00000120000000910600001130632DA    GBYIPLGB005500360039
BI00B32DA    SBT2204A       202204217286-3885-40             CONNECTOR MALE ASS'Y     CCN000010800000010800FN00000000020220401000010800NNMD0420220202131013    1N0N  00000120000000910600001130632DA    GBYIPLGB005500360039
BI00B32DE    TCT2041        202204077289-3342-30             HOUSING FEMALE ASS'Y     CCN000012000000012000FN00000000020220401000012000NNMS0020220202131013    1N0N  00000240000000686400000901432DE    TVYEV-TV005500360039
BI00B32DE    TCT2042        202204217289-3342-30             HOUSING FEMALE ASS'Y     CCN000014400000014400FN00000000020220401000014400NNMS0020220202131013    1N0N  00000240000000686400000901432DE    TVYEV-TV005500360039
BI00B32DE    TCT2043        202204287289-3342-30             HOUSING FEMALE ASS'Y     CCN000014400000014400FN00000000020220401000014400NNMS0020220202131013    1N0N  00000240000000686400000901432DE    TVYEV-TV005500360039
BI00B32DE    TCT2044        202205057289-3342-30             HOUSING FEMALE ASS'Y     CCN000012000000012000FN00000000020220401000012000NNMS0020220202131013    1N0N  00000240000000686400000901432DE    TVYEV-TV005500360039
BI00B32D1    DFTC2217       202204077288-6547                CONNECTOR MALE ASS'Y     CCN000003000000003000FN00000000020220401000003000NNMS0020220202131013    4N0N  00000075000001205300001340332D1    TOYOT-K 005400370024
BI00B32D1    DFTC2217       202204077289-3342                HOUSING FEMALE ASS'Y     CCN000004800000004800FN00000000020220401000004800NNMS0020220202131013    1N0N  00000240000000686400000901432D1    TOYOT-K 005500360039
BI00B32D1    DFTC2217       202203037289-3342-30             HOUSING FEMALE ASS'Y     CCN000016800000016800FN00000000020220401000016800NNMD0020220202131013    1N0N  00000240000000686400000901432D1    TOYOT-K 005500360039
BI00B32D1    DFTC2217       202203317289-3342-40             HOUSING FEMALE ASS'Y     CCN000002400000002400FN00000000020220401000002400NNMS0020220202131013    1N0N  00000240000000686400000901432D1    TOYOT-K 005500360039
BI00B32D1    DFTC2217       202203317289-3342-90             HOUSING FEMALE ASS'Y     CCN000002400000002400FN00000000020220401000002400NNMS0020220202131013    1N0N  00000240000000686400000901432D1    TOYOT-K 005500360039
BI00B32D1    DFTC2218       202203107114-5748-02             TERMINAL                 CCN000012000000012000FN00000000020220501000012000NNM   20220202131013    4P0P  00001200000000444000000737632D1    TOYOT-K 006400630015
BI00B32D1    DFTC2218       202203107114-5753-02             TERMINAL                 CCN000108000000108000FN00000000020220501000108000NNM   20220202131013    4P0P  00002700000000847800001141432D1    TOYOT-K 006400630015
BI00B32D1    DFTC2218       202203107116-2891-02             TERMINAL                 CCN000015000000015000FN00000000020220501000015000NNM   20220202131013    4P0P  00001500000000982500001145932D1    TOYOT-K 005100280028
BI00B32D1    DFTC2218       202203107116-4110-02             TERMINAL                 CCN000018000000018000FN00000000020220501000018000NNM   20220202131013    4P0P  00000900000000594000000882232D1    TOYOT-K 006400630015
BI00B32D1    DFTC2218       202203107116-4111-02             TERMINAL                 CCN000015000000015000FN00000000020220501000015000NNM   20220202131013    4P0P  00000750000000529500000817732D1    TOYOT-K 006400630015
BI00B32D1    DFTC2218       202203107116-4112-02             TERMINAL                 CCN000036000000036000FN00000000020220501000036000NNM   20220202131013    4P0P  00000600000000450000000738232D1    TOYOT-K 006400630015
BI00B32D1    DFTC2218       202203107116-5045-02             TERMINAL                 CCN000048000000048000FN00000000020220501000048000NNM   20220202131013    4P0P  00001600000000678400001007132D1    TOYOT-K 006400630017
BI00B32D1    DFTC2218       202203107126-8853-02             TERMINAL                 CCN000007500000007500FN00000000020220501000007500NNM   20220202131013    4P0P  00000750000000562500000847732D1    TOYOT-K 006400630015
BI00B32D1    DFTC2218       202203107126-8854-02             TERMINAL                 CCN000030000000030000FN00000000020220501000030000NNM   20220202131013    4P0P  00000750000000604500000889732D1    TOYOT-K 006400630015
BI00B32D1    DFTC2218       202203107126-8855-02             TERMINAL                 CCN000006000000006000FN00000000020220501000006000NNM   20220202131013    4P0P  00000600000000510600000795832D1    TOYOT-K 006400630015
BI00B32D1    DFTC2218       202203107158-3167-80             WIRE SEAL                CCN000020000000020000FN00000000020220501000020000NNM   20220202131013    1C0C  00002000000000048000000109032D1    TOYOT-K 002700430014
BI00B32D1    DFTC2218       202203107282-4576                HOUSING MALE ASS'Y       CCN000002400000002400FN00000000020220501000002400NNM   20220202131013    4N0N  00000240000000808800001028832D1    TOYOT-K 005500360039
BI00B32D1    DFTC2218       202203107283-1156                CONNECTOR                CCN000000800000000800FN00000000020220501000000800NNM   20220202131013    4N0N  00000080000000877600001078032D1    TOYOT-K 005600390040
BI00B32D1    DFTC2218       202203107288-6547                CONNECTOR MALE ASS'Y     CCN000006750000006750FN00000000020220501000006750NNM   20220202131013    4N0N  00000075000001205300001340332D1    TOYOT-K 005400370024
BI00B32D1    DFTC2218       202203107289-3342                HOUSING FEMALE ASS'Y     CCN000012000000012000FN00000000020220501000012000NNM   20220202131013    1N0N  00000240000000686400000901432D1    TOYOT-K 005500360039
BI00B32D1    DFTC2218       202203107289-3342-30             HOUSING FEMALE ASS'Y     CCN000074400000074400FN00000000020220501000074400NNM   20220202131013    1N0N  00000240000000686400000901432D1    TOYOT-K 005500360039
BI00B32D1    DFTC2218       202203107289-3342-40             HOUSING FEMALE ASS'Y     CCN000002400000002400FN00000000020220501000002400NNM   20220202131013    1N0N  00000240000000686400000901432D1    TOYOT-K 005500360039
BI00B32D1    DFTC2218       202203107289-3342-90             HOUSING FEMALE ASS'Y     CCN000007200000007200FN00000000020220501000007200NNM   20220202131013    1N0N  00000240000000686400000901432D1    TOYOT-K 005500360039
BI00B32D1    DFTC2218       202203107289-6547                HOUSING FEMALE ASS'Y     CCN000007200000007200FN00000000020220501000007200NNM   20220202131013    1N0N  00000240000001152000001362032D1    TOYOT-K 005500360039
BI00B32D1    DFTC2218       202203107327-6731-3W             BATTERY FUSE             CCN000000640000000640FN00000000020220501000000640NNM   20220202131013    4N0N  00000006400000697600000843032D1    TOYOT-K 005400370024
BI00B32D1    DFTC2218       202203107388-2978-30             HOUSING MALE ASS'Y       CCN000002400000002400FN00000000020220501000002400NNM   20220202131013    1N0N  00000048000000742000001122032D1    TOYOT-K 005500360039
BI00B32D1    #DFTC2218      202203107047-5344                RETAINER                 CCN000010000000010000FN00000000020220501000010000NNM   20220202131013    2F0F  00001000000000870000001016032D1    TOYOT-K 005600390023
BI00B32D1    #DFTC2218      202203107158-3003-90             RUBBER STOPPER           CCN000020000000020000FN00000000020220501000020000NNM   20220202131013    2C0C  00002000000000250000000306032D1    TOYOT-K 002700430014
BI00B32D1    #DFTC2218      202203107158-3005-80             RUBBER STOPPER           CCN000020000000020000FN00000000020220501000020000NNM   20220202131013    2H0H  00002000000000210000000268732D1    TOYOT-K 002700430014
BI00B32D1    #DFTC2218      202203107158-3008-80             RUBBER STOPPER           CCN000020000000020000FN00000000020220501000020000NNM   20220202131013    2C0C  00002000000000288000000343032D1    TOYOT-K 004300270014
BI00B32D1    #DFTC2218      202203107158-3015-10             RUBBER STOPPER           CCN000010000000010000FN00000000020220501000010000NNM   20220202131013    2C0C  00001000000000419500000474032D1    TOYOT-K 002700430014
BI00B32D1    #DFTC2218      202203107158-3017                RUBBER STOPPER           CCN000020000000020000FN00000000020220501000020000NNM   20220202131013    2C0C  00001000000000375500000435032D1    TOYOT-K 002700430014
BI00B32D1    #DFTC2218      202203107172-5629-80             RUBBER STOPPER           CCN000020000000020000FN00000000020220501000020000NNM   20220202131013    2H0H  00002000000000060000000111132D1    TOYOT-K 004300270014
BI00B32D1    #DFTC2218      202203107172-5630-40             RUBBER STOPPER           CCN000020000000020000FN00000000020220501000020000NNM   20220202131013    2H0H  00002000000000044000000095132D1    TOYOT-K 004300270014
BI00B32D1    #DFTC2218      202203107172-5631-60             RUBBER STOPPER           CCN000020000000020000FN00000000020220501000020000NNM   20220202131013    2H0H  00002000000000042000000093132D1    TOYOT-K 004300270014
BI00B32D1    #DFTC2218      202203107172-5632-10             DUMMY PLUG               CCN000020000000020000FN00000000020220501000020000NNM   20220202131013    2H0H  00002000000000080400000131832D1    TOYOT-K 004300270014
BI00B32D1    #DFTC2218      202203107183-2415-90             CONNECTOR HOUSING        CCN000004800000004800FN00000000020220501000004800NNM   20220202131013    2F0F  00000480000000798200001091432D1    TOYOT-K 005500360039
BI00B32D1    #DFTC2218      202203107189-2978-30             HOUSING FEMALE           CCN000003000000003000FN00000000020220501000003000NNM   20220202131013    2F0F  00000150000000966900001096932D1    TOYOT-K 005400370024
BI00B32D1    #DFTC2218      202203107189-3033                HOUSING FEMALE           CCN000006400000006400FN00000000020220501000006400NNM   20220202131013    2F0F  00000160000001211200001431232D1    TOYOT-K 005500360039
BI00B32D1    #DFTC2218      202203107189-3036                HOUSING FEMALE           CCN000003200000003200FN00000000020220501000003200NNM   20220202131013    2F0F  00000160000000921600001141632D1    TOYOT-K 005500360039
BI00B32D1    #DFTC2218      202203107282-1641                CONNECTOR                CCN000002000000002000FN00000000020220501000002000NNM   20220202131013    2N0N  00000200000000813000000986032D1    TOYOT-K 005500360039
BI00B32D1    #DFTC2218      202203107282-7424                CONNECTOR                CCN000004000000004000FN00000000020220501000004000NNM   20220202131013    2N0N  00000400000001064000001243032D1    TOYOT-K 005500360039
BI00B32D1    #DFTC2218      202203107289-3622-30             HOUSING FEMALE ASS'Y     CCN000001728000001728FN00000000020220501000001728NNM   20220202131013    2N0N  00000043200000839400001038432D1    TOYOT-K 005400370024
BI00B32D1    #DFTC2218      202203107289-4200-30             HOUSING FEMALE ASS'Y     CCN000002000000002000FN00000000020220501000002000NNM   20220202131013    2N0N  00000200000000926000001021032D1    TOYOT-K 005400370024
BI00B32D9    I21604         202203177114-4101-02             TERMINAL                 CCN000015000000015000FN00000000020220401000015000NNM   20220202131013    4P0P  00001500000000675000001003632D9    UEHESTO 006400630017
BI00B32D9    I21404         202203037114-4231-02             TERMINAL                 CCN000018000000018000FN00000000020220401000018000NNM   20220202131013    4P0P  00001800000000554400000848032D9    UEHESTO 006400630015
BI00B32D9    I21504         202203107114-4231-02             TERMINAL                 CCN000018000000018000FN00000000020220401000018000NNM   20220202131013    4P0P  00001800000000554400000848032D9    UEHESTO 006400630015
BI00B32D9    I21604         202203177114-4231-02             TERMINAL                 CCN000018000000018000FN00000000020220401000018000NNM   20220202131013    4P0P  00001800000000554400000848032D9    UEHESTO 006400630015
BI00B32D9    I21605         202203247114-4624-02             TERMINAL                 CCN000024000000024000FN00000000020220401000024000NNM   20220202131013    4P0P  00002400000000895200001188832D9    UEHESTO 006400630015
BI00B32D9    I21604         202203177114-6041                TERMINAL                 CCN000010800000010800FN00000000020220401000010800NNM   20220202131013    4P0P  00000360000000580700000824232D9    UEHESTO 006400630015
BI00B32D9    I21404         202203037116-1257-02             TERMINAL                 CCN000024000000024000FN00000000020220401000024000NNM   20220202131013    1P0P  00002400000000518400000847132D9    UEHESTO 006400630017
BI00B32D9    I21404         202203037116-1685-02             TERMINAL                 CCN000024000000024000FN00000000020220401000024000NNM   20220202131013    4P0P  00002400000000897600001065232D9    UEHESTO 005100280028
BI00B32D9    I21605         202203247116-1685-02             TERMINAL                 CCN000024000000024000FN00000000020220401000024000NNM   20220202131013    4P0P  00002400000000897600001065232D9    UEHESTO 005100280028
BI00B32D9    I21605         202203247116-4037                TERMINAL                 CCN000006600000012000FN00000000020220401000012000NNM   20220202131013    4P0P  00000600000000600000000894232D9    UEHESTO 006400630015
BI00B32D9    I21404         202203037116-5045-02             TERMINAL                 CCN000032000000032000FN00000000020220401000032000NNM   20220202131013    4P0P  00001600000000678400001007132D9    UEHESTO 006400630017
BI00B32D9    I21504         202203107116-5045-02             TERMINAL                 CCN000032000000032000FN00000000020220401000032000NNM   20220202131013    4P0P  00001600000000678400001007132D9    UEHESTO 006400630017
BI00B32D9    I21604         202203177116-5045-02             TERMINAL                 CCN000032000000032000FN00000000020220401000032000NNM   20220202131013    4P0P  00001600000000678400001007132D9    UEHESTO 006400630017
BI00B32D9    I21605         202203247116-5045-02             TERMINAL                 CCN000032000000032000FN00000000020220401000032000NNM   20220202131013    4P0P  00001600000000678400001007132D9    UEHESTO 006400630017
BI00B32D9    I21605         202203247116-5046-02             TERMINAL                 CCN000060000000060000FN00000000020220401000060000NNM   20220202131013    4P0P  00001200000000544800000873532D9    UEHESTO 006400630017
BI00B32D9    I21404         202203037116-6042                TERMINAL                 CCN000006000000006000FN00000000020220401000006000NNM   20220202131013    4P0P  00000300000000523800000856132D9    UEHESTO 006400630015
BI00B32D9    I21504         202203107116-6042                TERMINAL                 CCN000003000000003000FN00000000020220401000003000NNM   20220202131013    4P0P  00000300000000523800000856132D9    UEHESTO 006400630015
BI00B32D9    I21604         202203177116-6042                TERMINAL                 CCN000006000000006000FN00000000020220401000006000NNM   20220202131013    4P0P  00000300000000523800000856132D9    UEHESTO 006400630015
BI00B32D9    I21605         202203247116-6042                TERMINAL                 CCN000003000000003000FN00000000020220401000003000NNM   20220202131013    4P0P  00000300000000523800000856132D9    UEHESTO 006400630015
BI00B32D9    I21705         202203317116-6042                TERMINAL                 CCN000006000000006000FN00000000020220401000006000NNM   20220202131013    4P0P  00000300000000523800000856132D9    UEHESTO 006400630015
BI00B32D9    I21605         202203247140-1977-30             UPPER COVER              CCN000000300000000300FN00000000020220401000000300NNM   20220202131013    1F0F  00000001000000099500000249532D9    UEHESTO 005600390040
BI00B32D9    I21404         202203037158-3006-90             RUBBER STOPPER           CCN000100000000100000FN00000000020220401000100000NNM   20220202131013    1C0C  00002000000000330600000386032D9    UEHESTO 002700430014
BI00B32D9    I21504         202203107158-3006-90             RUBBER STOPPER           CCN000100000000100000FN00000000020220401000100000NNM   20220202131013    1C0C  00002000000000330600000386032D9    UEHESTO 002700430014
BI00B32D9    I21604         202203177158-3006-90             RUBBER STOPPER           CCN000100000000100000FN00000000020220401000100000NNM   20220202131013    1C0C  00002000000000330600000386032D9    UEHESTO 002700430014
BI00B32D9    I21605         202203247158-3006-90             RUBBER STOPPER           CCN000100000000100000FN00000000020220401000100000NNM   20220202131013    1C0C  00002000000000330600000386032D9    UEHESTO 002700430014
BI00B32D9    I21705         202203317158-3006-90             RUBBER STOPPER           CCN000100000000100000FN00000000020220401000100000NNM   20220202131013    1C0C  00002000000000330600000386032D9    UEHESTO 002700430014
BI00B32D9    I21605         202203247183-2417                CONNECTOR HOUSING        CCN000002400000002400FN00000000020220401000002400NNM   20220202131013    4F0F  00000240000001137400001297732D9    UEHESTO 005500360039
BI00B32D9    I21605         202203247196-0396-02             TERMINAL                 CCN000015000000015000FN00000000020220401000015000NNM   20220202131013    4P0P  00001500000000949500001112932D9    UEHESTO 002800510028
BI00B32D9    I21404         202203037196-0510-02             TERMINAL                 CCN000048000000048000FN00000000020220401000048000NNM   20220202131013    4P0P  00002400000000871200001034632D9    UEHESTO 002800510028
BI00B32D9    I21504         202203107196-0510-02             TERMINAL                 CCN000024000000024000FN00000000020220401000024000NNM   20220202131013    4P0P  00002400000000871200001034632D9    UEHESTO 002800510028
BI00B32D9    I21604         202203177196-0510-02             TERMINAL                 CCN000048000000048000FN00000000020220401000048000NNM   20220202131013    4P0P  00002400000000871200001034632D9    UEHESTO 002800510028
BI00B32D9    I21605         202203247196-0510-02             TERMINAL                 CCN000024000000024000FN00000000020220401000024000NNM   20220202131013    4P0P  00002400000000871200001034632D9    UEHESTO 002800510028
BI00B32D9    I21705         202203317196-0510-02             TERMINAL                 CCN000048000000048000FN00000000020220401000048000NNM   20220202131013    4P0P  00002400000000871200001034632D9    UEHESTO 002800510028
BI00B32D9    I21604         202203177196-1102-02             TERMINAL                 CCN000021000000022500FN00000000020220401000022500NNM   20220202131013    4P0P  00002250000000405000000690232D9    UEHESTO 006400630015
BI00B32D9    I21604         202203177196-1103-02             TERMINAL                 CCN000021000000022500FN00000000020220401000022500NNM   20220202131013    4P0P  00002250000000429800000715032D9    UEHESTO 006400630015
BI00B32D9    I21605         202203247196-1103-02             TERMINAL                 CCN000021000000022500FN00000000020220401000022500NNM   20220202131013    4P0P  00002250000000429800000715032D9    UEHESTO 006400630015
BI00B32D9    I21705         202203317196-1103-02             TERMINAL                 CCN000021000000022500FN00000000020220401000022500NNM   20220202131013    4P0P  00002250000000429800000715032D9    UEHESTO 006400630015
BI00B32D9    I21705         202203317196-1104-02             TERMINAL                 CCN000021000000022500FN00000000020220401000022500NNM   20220202131013    4P0P  00002250000000441000000726232D9    UEHESTO 006400630015
BI00B32D9    I21605         202203247235-8662                DOOR GROMMET             CCN000000320000000320FN00000000020220401000000320NNM   20220202131013    4N0N  00000016000000844000001010032D9    UEHESTO 005500360039
BI00B32D9    I21404         202203037283-1156                CONNECTOR                CCN000001600000001600FN00000000020220401000001600NNM   20220202131013    4N0N  00000080000000877600001078032D9    UEHESTO 005600390040
BI00B32D9    I21504         202203107283-1156                CONNECTOR                CCN000001600000001600FN00000000020220401000001600NNM   20220202131013    4N0N  00000080000000877600001078032D9    UEHESTO 005600390040
BI00B32D9    I21604         202203177283-1156                CONNECTOR                CCN000001600000001600FN00000000020220401000001600NNM   20220202131013    4N0N  00000080000000877600001078032D9    UEHESTO 005600390040
BI00B32D9    I21605         202203247283-1156                CONNECTOR                CCN000001600000001600FN00000000020220401000001600NNM   20220202131013    4N0N  00000080000000877600001078032D9    UEHESTO 005600390040
BI00B32D9    I21504         202203107283-1288-40             CONNECTOR HOUSING        CCN000001200000001200FN00000000020220401000001200NNM   20220202131013    4N0N  00000120000001382000001640732D9    UEHESTO 005600390040
BI00B32D9    I21604         202203177283-1288-40             CONNECTOR HOUSING        CCN000001200000001200FN00000000020220401000001200NNM   20220202131013    4N0N  00000120000001382000001640732D9    UEHESTO 005600390040
BI00B32D9    I21605         202203247283-1288-40             CONNECTOR HOUSING        CCN000001200000001200FN00000000020220401000001200NNM   20220202131013    4N0N  00000120000001382000001640732D9    UEHESTO 005600390040
BI00B32D9    I21605         202203247283-1968-30             CONNECTOR                CCN000000900000000900FN00000000020220401000000900NNM   20220202131013    1N0N  00000090000001140000001318332D9    UEHESTO 005600390040
BI00B32D9    I21504         202203107283-5830-30             CONNECTOR                CCN000006000000006000FN00000000020220401000006000NNM   20220202131013    1N0N  00000600000000954000001104032D9    UEHESTO 005500360039
BI00B32D9    I21605         202203247283-5830-30             CONNECTOR                CCN000006000000006000FN00000000020220401000006000NNM   20220202131013    1N0N  00000600000000954000001104032D9    UEHESTO 005500360039
BI00B32D9    I21605         202203247283-7023-30             CONNECTOR                CCN000002500000002500FN00000000020220401000002500NNM   20220202131013    4N0N  00000250000001358000001556032D9    UEHESTO 005500360039
BI00B32D9    I21605         202203247284-2665-3W             PROTECTOR                CCN000000100000000100FN00000000020220401000000100NNM   20220202131013    4N0N  00000010000000580000000754732D9    UEHESTO 005600390040
BI00B32D9    I21705         202203317284-2665-3W             PROTECTOR                CCN000001000000001000FN00000000020220401000001000NNM   20220202131013    4N0N  00000010000000580000000754732D9    UEHESTO 005600390040
BI00B32D9    I21605         202203247286-3970                CONNECTOR HOUSING        CCN000000110000000110FN00000000020220401000000110NNM   20220202131013    1N0N  00000011000000977300001164032D9    UEHESTO 005500360039
BI00B32D9    I21604         202203177287-1915-90             CONNECTOR ASS'Y          CCN000002400000002400FN00000000020220401000002400NNM   20220202131013    4N0N  00000240000000666500000923132D9    UEHESTO 005500360039
BI00B32D9    I21504         202203107287-9323                UNSEALED HOUSING SUB     CCN000002400000002400FN00000000020220401000002400NNM   20220202131013    1N0N  00000240000000537600000690032D9    UEHESTO 005600390023
BI00B32D9    I21604         202203177287-9323                UNSEALED HOUSING SUB     CCN000002400000002400FN00000000020220401000002400NNM   20220202131013    1N0N  00000240000000537600000690032D9    UEHESTO 005600390023
BI00B32D9    I21605         202203247287-9323                UNSEALED HOUSING SUB     CCN000002400000002400FN00000000020220401000002400NNM   20220202131013    1N0N  00000240000000537600000690032D9    UEHESTO 005600390023
BI00B32D9    I21404         202203037288-3206                HOUSING MALE ASS'Y       CCN000002040000002040FN00000000020220401000002040NNM   20220202131013    1N0N  00000102000000387600000787632D9    UEHESTO 005500360039
BI00B32D9    I21504         202203107288-3206                HOUSING MALE ASS'Y       CCN000001020000001020FN00000000020220401000001020NNM   20220202131013    1N0N  00000102000000387600000787632D9    UEHESTO 005500360039
BI00B32D9    I21604         202203177288-3206                HOUSING MALE ASS'Y       CCN000002040000002040FN00000000020220401000002040NNM   20220202131013    1N0N  00000102000000387600000787632D9    UEHESTO 005500360039
BI00B32D9    I21605         202203247288-3206                HOUSING MALE ASS'Y       CCN000001020000001020FN00000000020220401000001020NNM   20220202131013    1N0N  00000102000000387600000787632D9    UEHESTO 005500360039
BI00B32D9    I21404         202203037288-6547                CONNECTOR MALE ASS'Y     CCN000000750000000750FN00000000020220401000000750NNM   20220202131013    4N0N  00000075000001205300001340332D9    UEHESTO 005400370024
BI00B32D9    I21504         202203107288-6547                CONNECTOR MALE ASS'Y     CCN000000750000000750FN00000000020220401000000750NNM   20220202131013    4N0N  00000075000001205300001340332D9    UEHESTO 005400370024
BI00B32D9    I21604         202203177288-6547                CONNECTOR MALE ASS'Y     CCN000000750000000750FN00000000020220401000000750NNM   20220202131013    4N0N  00000075000001205300001340332D9    UEHESTO 005400370024
BI00B32D9    I21605         202203247288-6547                CONNECTOR MALE ASS'Y     CCN000000750000000750FN00000000020220401000000750NNM   20220202131013    4N0N  00000075000001205300001340332D9    UEHESTO 005400370024
BI00B32D9    I21404         202203037289-3342                HOUSING FEMALE ASS'Y     CCN000014400000014400FN00000000020220401000014400NNM   20220202131013    1N0N  00000240000000686400000901432D9    UEHESTO 005500360039
BI00B32D9    I21504         202203107289-3342                HOUSING FEMALE ASS'Y     CCN000014400000014400FN00000000020220401000014400NNM   20220202131013    1N0N  00000240000000686400000901432D9    UEHESTO 005500360039
BI00B32D9    I21604         202203177289-3342                HOUSING FEMALE ASS'Y     CCN000014400000014400FN00000000020220401000014400NNM   20220202131013    1N0N  00000240000000686400000901432D9    UEHESTO 005500360039
BI00B32D9    I21605         202203247289-3342                HOUSING FEMALE ASS'Y     CCN000014400000014400FN00000000020220401000014400NNM   20220202131013    1N0N  00000240000000686400000901432D9    UEHESTO 005500360039
BI00B32D9    I21404         202203037289-3342-30             HOUSING FEMALE ASS'Y     CCN000028800000028800FN00000000020220401000028800NNM   20220202131013    1N0N  00000240000000686400000901432D9    UEHESTO 005500360039
BI00B32D9    I21504         202203107289-3342-30             HOUSING FEMALE ASS'Y     CCN000028800000028800FN00000000020220401000028800NNM   20220202131013    1N0N  00000240000000686400000901432D9    UEHESTO 005500360039
BI00B32D9    I21604         202203177289-3342-30             HOUSING FEMALE ASS'Y     CCN000028800000028800FN00000000020220401000028800NNM   20220202131013    1N0N  00000240000000686400000901432D9    UEHESTO 005500360039
BI00B32D9    I21605         202203247289-3342-30             HOUSING FEMALE ASS'Y     CCN000028800000028800FN00000000020220401000028800NNM   20220202131013    1N0N  00000240000000686400000901432D9    UEHESTO 005500360039
BI00B32D9    I21404         202203037289-3342-90             HOUSING FEMALE ASS'Y     CCN000009600000009600FN00000000020220401000009600NNM   20220202131013    1N0N  00000240000000686400000901432D9    UEHESTO 005500360039
BI00B32D9    I21504         202203107289-3342-90             HOUSING FEMALE ASS'Y     CCN000009600000009600FN00000000020220401000009600NNM   20220202131013    1N0N  00000240000000686400000901432D9    UEHESTO 005500360039
BI00B32D9    I21604         202203177289-3342-90             HOUSING FEMALE ASS'Y     CCN000009600000009600FN00000000020220401000009600NNM   20220202131013    1N0N  00000240000000686400000901432D9    UEHESTO 005500360039
BI00B32D9    I21605         202203247289-3342-90             HOUSING FEMALE ASS'Y     CCN000009600000009600FN00000000020220401000009600NNM   20220202131013    1N0N  00000240000000686400000901432D9    UEHESTO 005500360039
BI00B32D9    I21705         202203317289-3342-90             HOUSING FEMALE ASS'Y     CCN000014400000014400FN00000000020220401000014400NNM   20220202131013    1N0N  00000240000000686400000901432D9    UEHESTO 005500360039
BI00B32D9    I21404         202203037289-6547                HOUSING FEMALE ASS'Y     CCN000002400000002400FN00000000020220401000002400NNM   20220202131013    1N0N  00000240000001152000001362032D9    UEHESTO 005500360039
BI00B32D9    I21504         202203107289-6547                HOUSING FEMALE ASS'Y     CCN000002400000002400FN00000000020220401000002400NNM   20220202131013    1N0N  00000240000001152000001362032D9    UEHESTO 005500360039
BI00B32D9    I21404         202203037327-6627-3W             BATTERY FUSE             CCN000000040000000096FN00000000020220401000000096NNM   20220202131013    4N0N  00000009600001332300001534632D9    UEHESTO 005500360039
BI00B32D9    I21504         202203107327-6627-3W             BATTERY FUSE             CCN000000040000000096FN00000000020220401000000096NNM   20220202131013    4N0N  00000009600001332300001534632D9    UEHESTO 005500360039
BI00B32D9    I21604         202203177327-6627-3W             BATTERY FUSE             CCN000000040000000096FN00000000020220401000000096NNM   20220202131013    4N0N  00000009600001332300001534632D9    UEHESTO 005500360039
BI00B32D9    I21605         202203247327-6627-3W             BATTERY FUSE             CCN000000040000000096FN00000000020220401000000096NNM   20220202131013    4N0N  00000009600001332300001534632D9    UEHESTO 005500360039
BI00B32D9    I21705         202203317327-6627-3W             BATTERY FUSE             CCN000000040000000096FN00000000020220401000000096NNM   20220202131013    4N0N  00000009600001332300001534632D9    UEHESTO 005500360039
BI00B32D9    I21404         202203037327-6731-3W             BATTERY FUSE             CCN000000192000000192FN00000000020220401000000192NNM   20220202131013    4N0N  00000006400000697600000843032D9    UEHESTO 005400370024
BI00B32D9    I21504         202203107327-6731-3W             BATTERY FUSE             CCN000000192000000192FN00000000020220401000000192NNM   20220202131013    4N0N  00000006400000697600000843032D9    UEHESTO 005400370024
BI00B32D9    I21604         202203177327-6731-3W             BATTERY FUSE             CCN000000192000000192FN00000000020220401000000192NNM   20220202131013    4N0N  00000006400000697600000843032D9    UEHESTO 005400370024
BI00B32D9    I21605         202203247327-6731-3W             BATTERY FUSE             CCN000000192000000192FN00000000020220401000000192NNM   20220202131013    4N0N  00000006400000697600000843032D9    UEHESTO 005400370024
BI00B32D9    I21705         202203317327-6731-3W             BATTERY FUSE             CCN000000192000000192FN00000000020220401000000192NNM   20220202131013    4N0N  00000006400000697600000843032D9    UEHESTO 005400370024
BI00B32D9    I21605         202203247370-0309                J/B ASS'Y                CCN000000480000000480FN00000000020220401000000480NNM   20220202131013    1J0J  00000001600000870400001260032D9    UEHESTO 005500360039
BI00B32D9    I21605         202203247370-0310                J/B ASS'Y                CCN000000300000000300FN00000000020220401000000300NNM   20220202131013    1J0J  00000001000000559000000809032D9    UEHESTO 005500360039
BI00B32D9    I21604         202203177388-0313-30             CONNECTOR ASS'Y          CCN000001200000001200FN00000000020220401000001200NNM   20220202131013    4N0N  00000120000000995000001125032D9    UEHESTO 005400370024
BI00B32D9    I21605         202203247388-0313-30             CONNECTOR ASS'Y          CCN000001200000001200FN00000000020220401000001200NNM   20220202131013    4N0N  00000120000000995000001125032D9    UEHESTO 005400370024
BI00B32D9    I21404         202203037388-2978-30             HOUSING MALE ASS'Y       CCN000000960000000960FN00000000020220401000000960NNM   20220202131013    1N0N  00000048000000742000001122032D9    UEHESTO 005500360039
BI00B32D9    I21504         202203107388-2978-30             HOUSING MALE ASS'Y       CCN000000960000000960FN00000000020220401000000960NNM   20220202131013    1N0N  00000048000000742000001122032D9    UEHESTO 005500360039
BI00B32D9    I21604         202203177388-2978-30             HOUSING MALE ASS'Y       CCN000000960000000960FN00000000020220401000000960NNM   20220202131013    1N0N  00000048000000742000001122032D9    UEHESTO 005500360039
BI00B32D9    I21605         202203247388-2978-30             HOUSING MALE ASS'Y       CCN000000960000000960FN00000000020220401000000960NNM   20220202131013    1N0N  00000048000000742000001122032D9    UEHESTO 005500360039
BI00B32D9    #I21605        202203247140-1978-30             LOWER COVER              CCN000000240000000240FN00000000020220401000000240NNM   20220202131013    2F0F  00000000800000207100000395132D9    UEHESTO 005500360039
BI00B32D9    #I21705        202203317140-1978-30             LOWER COVER              CCN000000240000000240FN00000000020220401000000240NNM   20220202131013    2F0F  00000000800000207100000395132D9    UEHESTO 005500360039
BI00B32D9    #I21404        202203037154-5597-30             CASSETTE R/B             CCN000003200000003200FN00000000020220401000003200NNM   20220202131013    2F0F  00000080000000736000000952032D9    UEHESTO 005500360039
BI00B32D9    #I21504        202203107154-5597-30             CASSETTE R/B             CCN000003200000003200FN00000000020220401000003200NNM   20220202131013    2F0F  00000080000000736000000952032D9    UEHESTO 005500360039
BI00B32D9    #I21604        202203177154-5597-30             CASSETTE R/B             CCN000003200000003200FN00000000020220401000003200NNM   20220202131013    2F0F  00000080000000736000000952032D9    UEHESTO 005500360039
BI00B32D9    #I21605        202203247154-5597-30             CASSETTE R/B             CCN000003200000003200FN00000000020220401000003200NNM   20220202131013    2F0F  00000080000000736000000952032D9    UEHESTO 005500360039
BI00B32D9    #I21705        202203317154-5597-30             CASSETTE R/B             CCN000003200000003200FN00000000020220401000003200NNM   20220202131013    2F0F  00000080000000736000000952032D9    UEHESTO 005500360039
BI00B32D9    #I21404        202203037158-3003-90             RUBBER STOPPER           CCN000040000000040000FN00000000020220401000040000NNM   20220202131013    2C0C  00002000000000250000000306032D9    UEHESTO 002700430014
BI00B32D9    #I21504        202203107158-3003-90             RUBBER STOPPER           CCN000040000000040000FN00000000020220401000040000NNM   20220202131013    2C0C  00002000000000250000000306032D9    UEHESTO 002700430014
BI00B32D9    #I21604        202203177158-3003-90             RUBBER STOPPER           CCN000040000000040000FN00000000020220401000040000NNM   20220202131013    2C0C  00002000000000250000000306032D9    UEHESTO 002700430014
BI00B32D9    #I21605        202203247158-3003-90             RUBBER STOPPER           CCN000040000000040000FN00000000020220401000040000NNM   20220202131013    2C0C  00002000000000250000000306032D9    UEHESTO 002700430014
BI00B32D9    #I21705        202203317158-3003-90             RUBBER STOPPER           CCN000040000000040000FN00000000020220401000040000NNM   20220202131013    2C0C  00002000000000250000000306032D9    UEHESTO 002700430014
BI00B32D9    #I21605        202203247158-3005-80             RUBBER STOPPER           CCN000020000000020000FN00000000020220401000020000NNM   20220202131013    2H0H  00002000000000210000000268732D9    UEHESTO 002700430014
BI00B32D9    #I21404        202203037158-3007-10             RUBBER STOPPER           CCN000020000000020000FN00000000020220401000020000NNM   20220202131013    2H0H  00002000000000308000000362732D9    UEHESTO 002700430014
BI00B32D9    #I21504        202203107158-3007-10             RUBBER STOPPER           CCN000020000000020000FN00000000020220401000020000NNM   20220202131013    2H0H  00002000000000308000000362732D9    UEHESTO 002700430014
BI00B32D9    #I21604        202203177158-3007-10             RUBBER STOPPER           CCN000020000000020000FN00000000020220401000020000NNM   20220202131013    2H0H  00002000000000308000000362732D9    UEHESTO 002700430014
BI00B32D9    #I21605        202203247158-3007-10             RUBBER STOPPER           CCN000020000000020000FN00000000020220401000020000NNM   20220202131013    2H0H  00002000000000308000000362732D9    UEHESTO 002700430014
BI00B32D9    #I21705        202203317158-3007-10             RUBBER STOPPER           CCN000020000000020000FN00000000020220401000020000NNM   20220202131013    2H0H  00002000000000308000000362732D9    UEHESTO 002700430014
BI00B32D9    #I21604        202203177158-3008-80             RUBBER STOPPER           CCN000020000000020000FN00000000020220401000020000NNM   20220202131013    2C0C  00002000000000288000000343032D9    UEHESTO 004300270014
BI00B32D9    #I21605        202203247158-3008-80             RUBBER STOPPER           CCN000020000000020000FN00000000020220401000020000NNM   20220202131013    2C0C  00002000000000288000000343032D9    UEHESTO 004300270014
BI00B32D9    #I21705        202203317158-3008-80             RUBBER STOPPER           CCN000020000000020000FN00000000020220401000020000NNM   20220202131013    2C0C  00002000000000288000000343032D9    UEHESTO 004300270014
BI00B32D9    #I21705        202203317158-3015-10             RUBBER STOPPER           CCN000010000000010000FN00000000020220401000010000NNM   20220202131013    2C0C  00001000000000419500000474032D9    UEHESTO 002700430014
BI00B32D9    #I21605        202203247158-3017                RUBBER STOPPER           CCN000010000000010000FN00000000020220401000010000NNM   20220202131013    2C0C  00001000000000375500000435032D9    UEHESTO 002700430014
BI00B32D9    #I21705        202203317158-3017                RUBBER STOPPER           CCN000010000000010000FN00000000020220401000010000NNM   20220202131013    2C0C  00001000000000375500000435032D9    UEHESTO 002700430014
BI00B32D9    #I21604        202203177171-6291                HOUSING MALE             CCN000000192000000192FN00000000020220401000000192NNM   20220202131013    2F0F  00000019200001339100001489132D9    UEHESTO 005500360039
BI00B32D9    #I21605        202203247171-6291                HOUSING MALE             CCN000000192000000192FN00000000020220401000000192NNM   20220202131013    2F0F  00000019200001339100001489132D9    UEHESTO 005500360039
BI00B32D9    #I21604        202203177171-6292                HOUSING                  CCN000000180000000180FN00000000020220401000000180NNM   20220202131013    2F0F  00000018000000762100000980332D9    UEHESTO 005400370024
BI00B32D9    #I21605        202203247171-6292                HOUSING                  CCN000000180000000180FN00000000020220401000000180NNM   20220202131013    2F0F  00000018000000762100000980332D9    UEHESTO 005400370024
BI00B32D9    #I21705        202203317172-5628-80             DUMMY PLUG               CCN000020000000020000FN00000000020220401000020000NNM   20220202131013    2H0H  00002000000000110600000162032D9    UEHESTO 004300270014
BI00B32D9    #I21404        202203037172-5630-40             RUBBER STOPPER           CCN000020000000020000FN00000000020220401000020000NNM   20220202131013    2H0H  00002000000000044000000095132D9    UEHESTO 004300270014
BI00B32D9    #I21504        202203107172-5630-40             RUBBER STOPPER           CCN000020000000020000FN00000000020220401000020000NNM   20220202131013    2H0H  00002000000000044000000095132D9    UEHESTO 004300270014
BI00B32D9    #I21604        202203177172-5630-40             RUBBER STOPPER           CCN000020000000020000FN00000000020220401000020000NNM   20220202131013    2H0H  00002000000000044000000095132D9    UEHESTO 004300270014
BI00B32D9    #I21605        202203247172-5630-40             RUBBER STOPPER           CCN000020000000020000FN00000000020220401000020000NNM   20220202131013    2H0H  00002000000000044000000095132D9    UEHESTO 004300270014
BI00B32D9    #I21404        202203037172-5631-60             RUBBER STOPPER           CCN000020000000020000FN00000000020220401000020000NNM   20220202131013    2H0H  00002000000000042000000093132D9    UEHESTO 004300270014
BI00B32D9    #I21604        202203177172-5632-10             DUMMY PLUG               CCN000020000000020000FN00000000020220401000020000NNM   20220202131013    2H0H  00002000000000080400000131832D9    UEHESTO 004300270014
BI00B32D9    #I21605        202203247172-5632-10             DUMMY PLUG               CCN000020000000020000FN00000000020220401000020000NNM   20220202131013    2H0H  00002000000000080400000131832D9    UEHESTO 004300270014
BI00B32D9    #I21605        202203247173-1070                CONNECTOR BRACKET        CCN000001200000001200FN00000000020220401000001200NNM   20220202131013    2F0F  00000120000000592400000968332D9    UEHESTO 005500360039
BI00B32D9    #I21605        202203247173-1071                BRACKET                  CCN000001200000001200FN00000000020220401000001200NNM   20220202131013    2F0F  00000120000001156800001388232D9    UEHESTO 005600390040
BI00B32D9    #I21605        202203247173-1516                SIDE BRACKET             CCN000000600000000600FN00000000020220401000000600NNM   20220202131013    2F0F  00000060000000960000001090032D9    UEHESTO 005500360039
BI00B32D9    #I21404        202203037173-4057                LIF LEVER                CCN000000360000000360FN00000000020220401000000360NNM   20220202131013    2F0F  00000036000000689600000839632D9    UEHESTO 005400370024
BI00B32D9    #I21705        202203317174-0152                CONNECTOR                CCN000000350000000350FN00000000020220401000000350NNM   20220202131013    2F0F  00000035000000746400000918632D9    UEHESTO 005500360039
BI00B32D9    #I21605        202203247174-1749                COVER                    CCN000000294000000294FN00000000020220401000000294NNM   20220202131013    2F0F  00000029400000689600000834632D9    UEHESTO 005500360039
BI00B32D9    #I21705        202203317174-1749                COVER                    CCN000000294000000294FN00000000020220401000000294NNM   20220202131013    2F0F  00000029400000689600000834632D9    UEHESTO 005500360039
BI00B32D9    #I21404        202203037182-4941                DOUBLE SIDED             CCN000003000000003000FN00000000020220401000003000NNM   20220202131013    2F0F  00000100000001282000001477032D9    UEHESTO 005600390040
BI00B32D9    #I21504        202203107182-4941                DOUBLE SIDED             CCN000002000000002000FN00000000020220401000002000NNM   20220202131013    2F0F  00000100000001282000001477032D9    UEHESTO 005600390040
BI00B32D9    #I21604        202203177182-4941                DOUBLE SIDED             CCN000002000000002000FN00000000020220401000002000NNM   20220202131013    2F0F  00000100000001282000001477032D9    UEHESTO 005600390040
BI00B32D9    #I21605        202203247182-4941                DOUBLE SIDED             CCN000002000000002000FN00000000020220401000002000NNM   20220202131013    2F0F  00000100000001282000001477032D9    UEHESTO 005600390040
BI00B32D9    #I21705        202203317182-4941                DOUBLE SIDED             CCN000002000000002000FN00000000020220401000002000NNM   20220202131013    2F0F  00000100000001282000001477032D9    UEHESTO 005600390040
BI00B32D9    #I21504        202203107183-1616                CONNECTOR HOUSING        CCN000002400000002400FN00000000020220401000002400NNM   20220202131013    2F0F  00000240000000557500000823332D9    UEHESTO 005500360039
BI00B32D9    #I21604        202203177183-1616                CONNECTOR HOUSING        CCN000002400000002400FN00000000020220401000002400NNM   20220202131013    2F0F  00000240000000557500000823332D9    UEHESTO 005500360039
BI00B32D9    #I21605        202203247183-1616                CONNECTOR HOUSING        CCN000002400000002400FN00000000020220401000002400NNM   20220202131013    2F0F  00000240000000557500000823332D9    UEHESTO 005500360039
BI00B32D9    #I21604        202203177183-2413                CONNECTOR HOUSING        CCN000004800000004800FN00000000020220401000004800NNM   20220202131013    2F0F  00000480000000478100000760032D9    UEHESTO 005500360039
BI00B32D9    #I21605        202203247183-2413                CONNECTOR HOUSING        CCN000004800000004800FN00000000020220401000004800NNM   20220202131013    2F0F  00000480000000478100000760032D9    UEHESTO 005500360039
BI00B32D9    #I21504        202203107183-2414-30             CONNECTOR HOUSING        CCN000004800000004800FN00000000020220401000004800NNM   20220202131013    2F0F  00000480000000779500001061532D9    UEHESTO 005500360039
BI00B32D9    #I21605        202203247183-2414-30             CONNECTOR HOUSING        CCN000004800000004800FN00000000020220401000004800NNM   20220202131013    2F0F  00000480000000779500001061532D9    UEHESTO 005500360039
BI00B32D9    #I21605        202203247187-3356                JOINT CONNECTOR          CCN000002400000002400FN00000000020220401000002400NNM   20220202131013    2F0F  00000120000000759600001024432D9    UEHESTO 005600390040
BI00B32D9    #I21605        202203247187-3359-60             JOINT CONNECTOR          CCN000001200000001200FN00000000020220401000001200NNM   20220202131013    2F0F  00000120000000763200001030432D9    UEHESTO 005600390040
BI00B32D9    #I21705        202203317187-3359-60             JOINT CONNECTOR          CCN000001200000001200FN00000000020220401000001200NNM   20220202131013    2F0F  00000120000000763200001030432D9    UEHESTO 005600390040
BI00B32D9    #I21705        202203317187-3970                CONNECTOR FLAME          CCN000000368000000368FN00000000020220401000000368NNM   20220202131013    2F0F  00000036800001414000001737332D9    UEHESTO 005600390040
BI00B32D9    #I21705        202203317187-3974-30             CONNECTOR HOUSING        CCN000002400000002400FN00000000020220401000002400NNM   20220202131013    2F0F  00000240000000907400001078632D9    UEHESTO 005500360039
BI00B32D9    #I21605        202203247188-3035                HOUSING MALE             CCN000002400000002400FN00000000020220401000002400NNM   20220202131013    2F0F  00000240000000693600000913632D9    UEHESTO 005500360039
BI00B32D9    #I21504        202203107189-3032                HOUSING FEMALE           CCN000001600000001600FN00000000020220401000001600NNM   20220202131013    2F0F  00000160000000788400001018432D9    UEHESTO 005500360039
BI00B32D9    #I21604        202203177189-3032                HOUSING FEMALE           CCN000001600000001600FN00000000020220401000001600NNM   20220202131013    2F0F  00000160000000788400001018432D9    UEHESTO 005500360039
BI00B32D9    #I21605        202203247189-3032                HOUSING FEMALE           CCN000001600000001600FN00000000020220401000001600NNM   20220202131013    2F0F  00000160000000788400001018432D9    UEHESTO 005500360039
BI00B32D9    #I21705        202203317189-3032                HOUSING FEMALE           CCN000001600000001600FN00000000020220401000001600NNM   20220202131013    2F0F  00000160000000788400001018432D9    UEHESTO 005500360039
BI00B32D9    #I21404        202203037189-3032-30             HOUSING FEMALE           CCN000001600000001600FN00000000020220401000001600NNM   20220202131013    2F0F  00000160000000801600001021632D9    UEHESTO 005500360039
BI00B32D9    #I21504        202203107189-3032-30             HOUSING FEMALE           CCN000001600000001600FN00000000020220401000001600NNM   20220202131013    2F0F  00000160000000801600001021632D9    UEHESTO 005500360039
BI00B32D9    #I21604        202203177189-3032-30             HOUSING FEMALE           CCN000001600000001600FN00000000020220401000001600NNM   20220202131013    2F0F  00000160000000801600001021632D9    UEHESTO 005500360039
BI00B32D9    #I21605        202203247189-3032-30             HOUSING FEMALE           CCN000001600000001600FN00000000020220401000001600NNM   20220202131013    2F0F  00000160000000801600001021632D9    UEHESTO 005500360039
BI00B32D9    #I21604        202203177189-3033                HOUSING FEMALE           CCN000001600000001600FN00000000020220401000001600NNM   20220202131013    2F0F  00000160000001211200001431232D9    UEHESTO 005500360039
BI00B32D9    #I21605        202203247189-3033                HOUSING FEMALE           CCN000001600000001600FN00000000020220401000001600NNM   20220202131013    2F0F  00000160000001211200001431232D9    UEHESTO 005500360039
BI00B32D9    #I21504        202203107189-3034-30             HOUSING FEMALE           CCN000001600000001600FN00000000020220401000001600NNM   20220202131013    2F0F  00000160000000972800001192832D9    UEHESTO 005500360039
BI00B32D9    #I21604        202203177189-3034-30             HOUSING FEMALE           CCN000001600000001600FN00000000020220401000001600NNM   20220202131013    2F0F  00000160000000972800001192832D9    UEHESTO 005500360039
BI00B32D9    #I21404        202203037189-3036                HOUSING FEMALE           CCN000001600000001600FN00000000020220401000001600NNM   20220202131013    2F0F  00000160000000921600001141632D9    UEHESTO 005500360039
BI00B32D9    #I21604        202203177189-3036                HOUSING FEMALE           CCN000001600000001600FN00000000020220401000001600NNM   20220202131013    2F0F  00000160000000921600001141632D9    UEHESTO 005500360039
BI00B32D9    #I21605        202203247189-3038-30             HOUSING                  CCN000001600000001600FN00000000020220401000001600NNM   20220202131013    2F0F  00000160000000921600001141632D9    UEHESTO 005500360039
BI00B32D9    #I21605        202203247189-9516-40             HOUSING                  CCN000002000000002000FN00000000020220401000002000NNM   20220202131013    2F0F  00000200000000578800000685832D9    UEHESTO 005400370024
BI00B32D9    #I21605        202203247189-9517                HOUSING                  CCN000002000000002000FN00000000020220401000002000NNM   20220202131013    2F0F  00000200000000576600000683632D9    UEHESTO 005400370024
BI00B32D9    #I21605        202203247189-9518-30             HOUSING                  CCN000002000000002000FN00000000020220401000002000NNM   20220202131013    2F0F  00000200000000583600000690632D9    UEHESTO 005400370024
BI00B32D9    #I21605        202203247189-9519-80             HOUSING                  CCN000002000000002000FN00000000020220401000002000NNM   20220202131013    2F0F  00000200000000579400000686432D9    UEHESTO 005400370024
BI00B32D9    #I21605        202203247189-9520-10             HOUSING                  CCN000002000000002000FN00000000020220401000002000NNM   20220202131013    2F0F  00000200000000578400000685432D9    UEHESTO 005400370024
BI00B32D9    #I21404        202203037189-9521                HOUSING                  CCN000002000000002000FN00000000020220401000002000NNM   20220202131013    2F0F  00000200000000754400000861432D9    UEHESTO 005400370024
BI00B32D9    #I21605        202203247189-9522-90             HOUSING                  CCN000002000000002000FN00000000020220401000002000NNM   20220202131013    2F0F  00000200000000753200000860232D9    UEHESTO 005400370024
BI00B32D9    #I21504        202203107283-1485                CONNECTOR                CCN000002000000002000FN00000000020220401000002000NNM   20220202131013    2N0N  00000200000001160000001340732D9    UEHESTO 005500360039
BI00B32D9    #I21604        202203177283-1485                CONNECTOR                CCN000002000000002000FN00000000020220401000002000NNM   20220202131013    2N0N  00000200000001160000001340732D9    UEHESTO 005500360039
BI00B32D9    #I21605        202203247283-1485                CONNECTOR                CCN000002000000002000FN00000000020220401000002000NNM   20220202131013    2N0N  00000200000001160000001340732D9    UEHESTO 005500360039
BI00B32D9    #I21604        202203177283-1730                CONNECTOR                CCN000002000000002000FN00000000020220401000002000NNM   20220202131013    2N0N  00000200000001200000001349632D9    UEHESTO 005500360039
BI00B32D9    #I21605        202203247283-5831                CONNECTOR                CCN000003000000003000FN00000000020220401000003000NNM   20220202131013    2N0N  00000300000000750000000880032D9    UEHESTO 005400370024
BI00B32D9    #I21605        202203247283-5834                CONNECTOR ASS'Y          CCN000003240000003240FN00000000020220401000003240NNM   20220202131013    2N0N  00000324000001296000001849732D9    UEHESTO 005600390040
BI00B32D9    #I21605        202203247283-8123                CONNECTOR HOUSING        CCN000004000000004000FN00000000020220401000004000NNM   20220202131013    2N0N  00000400000000380000000531732D9    UEHESTO 005600390023
BI00B32D9    #I21605        202203247283-8123-40             CONNECTOR HOUSING        CCN000004000000004000FN00000000020220401000004000NNM   20220202131013    2N0N  00000400000000380000000530032D9    UEHESTO 005600390023
BI00B32D9    #I21404        202203037283-8226-30             CONNECTOR                CCN000002000000002000FN00000000020220401000002000NNM   20220202131013    2N0N  00000200000000820000001008032D9    UEHESTO 005400370024
BI00B32D9    #I21504        202203107283-8226-30             CONNECTOR                CCN000002000000002000FN00000000020220401000002000NNM   20220202131013    2N0N  00000200000000820000001008032D9    UEHESTO 005400370024
BI00B32D9    #I21604        202203177283-8226-30             CONNECTOR                CCN000002000000002000FN00000000020220401000002000NNM   20220202131013    2N0N  00000200000000820000001008032D9    UEHESTO 005400370024
BI00B32D9    #I21605        202203247283-8226-30             CONNECTOR                CCN000002000000002000FN00000000020220401000002000NNM   20220202131013    2N0N  00000200000000820000001008032D9    UEHESTO 005400370024
BI00B32D9    #I21604        202203177287-7859                HYBRID FEMALE ASS'Y      CCN000001000000001200FN00000000020220401000001200NNM   20220202131013    2N0N  00000120000000461600000671632D9    UEHESTO 005500360039
BI00B32D9    #I21404        202203037287-7860                HYBRID FEMALE ASS'Y      CCN000001000000001200FN00000000020220401000001200NNM   20220202131013    2N0N  00000120000000644000000650432D9    UEHESTO 005500360039
BI00B32D9    #I21504        202203107287-7860                HYBRID FEMALE ASS'Y      CCN000001000000001200FN00000000020220401000001200NNM   20220202131013    2N0N  00000120000000644000000650432D9    UEHESTO 005500360039
BI00B32D9    #I21604        202203177287-7860                HYBRID FEMALE ASS'Y      CCN000001000000001200FN00000000020220401000001200NNM   20220202131013    2N0N  00000120000000644000000650432D9    UEHESTO 005500360039
BI00B32D9    #I21605        202203247287-7860                HYBRID FEMALE ASS'Y      CCN000000300000001200FN00000000020220401000001200NNM   20220202131013    2N0N  00000120000000644000000650432D9    UEHESTO 005500360039
BI00B32D9    #I21504        202203107289-2912-30             HOUSING FEMALE ASS'Y     CCN000002000000002000FN00000000020220401000002000NNM   20220202131013    2N0N  00000200000000804000000929032D9    UEHESTO 005400370024
BI00B32D9    #I21604        202203177289-2914                HOUSING FEMALE ASS'Y     CCN000001500000001500FN00000000020220401000001500NNM   20220202131013    2N0N  00000150000000906000001033032D9    UEHESTO 005400370024
BI00B32D9    #I21604        202203177289-2915-30             HOUSING FEMALE ASS'Y     CCN000001500000001500FN00000000020220401000001500NNM   20220202131013    2N0N  00000150000000964500001091532D9    UEHESTO 005400360024
BI00B32D9    #I21605        202203247289-2915-30             HOUSING FEMALE ASS'Y     CCN000001500000001500FN00000000020220401000001500NNM   20220202131013    2N0N  00000150000000964500001091532D9    UEHESTO 005400360024
BI00B32D9    #I21404        202203037289-2916-30             HOUSING FEMALE ASS'Y     CCN000002000000002000FN00000000020220401000002000NNM   20220202131013    2N0N  00000100000000857000001084032D9    UEHESTO 005400360024
BI00B32D9    #I21504        202203107289-2916-30             HOUSING FEMALE ASS'Y     CCN000001000000001000FN00000000020220401000001000NNM   20220202131013    2N0N  00000100000000857000001084032D9    UEHESTO 005400360024
BI00B32D9    #I21604        202203177289-2916-30             HOUSING FEMALE ASS'Y     CCN000002000000002000FN00000000020220401000002000NNM   20220202131013    2N0N  00000100000000857000001084032D9    UEHESTO 005400360024
BI00B32D9    #I21605        202203247289-2916-30             HOUSING FEMALE ASS'Y     CCN000001000000001000FN00000000020220401000001000NNM   20220202131013    2N0N  00000100000000857000001084032D9    UEHESTO 005400360024
BI00B32D9    #I21604        202203177289-2918-40             HOUSING FEMALE ASS'Y     CCN000003000000003000FN00000000020220401000003000NNM   20220202131013    2N0N  00000100000001020000001147032D9    UEHESTO 005400360024
BI00B32D9    #I21605        202203247289-2918-40             HOUSING FEMALE ASS'Y     CCN000002000000002000FN00000000020220401000002000NNM   20220202131013    2N0N  00000100000001020000001147032D9    UEHESTO 005400360024
BI00B32D9    #I21705        202203317289-2918-40             HOUSING FEMALE ASS'Y     CCN000003000000003000FN00000000020220401000003000NNM   20220202131013    2N0N  00000100000001020000001147032D9    UEHESTO 005400360024
BI00B32D9    @I21404        202203037287-4098                CONNECTOR FEMALE         CCN000002400000002400FN00000000020220401000002400NNM   20220202131013    3N0N  00000240000000668600000908032D9    UEHESTO 005500360039
BI00A32D9    I223A          202202217289-6547                HOUSING FEMALE ASS'Y     CCN000004800000004800FN00000000020220201000004800NNED0720220202131013    1N0N  00000240000001152000001362032D9    UEHESTO 005500360039
BI00B32EJ    T220126P01     202204077158-3169-40             SEALING PLUG             CCN000480000000480000FN00000000020220301000480000NNED0420220202135635EJ  1C0C  00004000000000156000000204132EJ    EJYKBO  004300260014
BI00B32G2    @SA22031 MW    202202037282-1160-40             CONNECTOR MALE ASS'Y     CCN000000800000000800FN00000000020220301000000800NNMD0620220202164743    3N0N  00000080000000919800001133932G2    AISUAI  005500360039
BI00B32H2    TIJ2042        202203257289-3342                HOUSING FEMALE ASS'Y     CCN000016800000016800FN00000000020220401000016800NNMD0420220202131013    1N0N  00000240000000686400000901432H2    HVYHV   005500360039
BI00B32H2    TIJ2043        202204017289-3342                HOUSING FEMALE ASS'Y     CCN000024000000024000FN00000000020220401000024000NNMD0420220202131013    1N0N  00000240000000686400000901432H2    HVYHV   005500360039
BI00B32H2    TIJ2044        202204087289-3342                HOUSING FEMALE ASS'Y     CCN000021600000021600FN00000000020220401000021600NNMD0420220202131013    1N0N  00000240000000686400000901432H2    HVYHV   005500360039
BI00B32H2    TIJ2043        202204017289-3342-30             HOUSING FEMALE ASS'Y     CCN000048000000048000FN00000000020220401000048000NNMD0420220202131013    1N0N  00000240000000686400000901432H2    HVYHV   005500360039
BI00B32H2    TIJ2044        202204087289-3342-30             HOUSING FEMALE ASS'Y     CCN000120000000120000FN00000000020220401000120000NNMD0420220202131013    1N0N  00000240000000686400000901432H2    HVYHV   005500360039
BI00B32H2    TIJ2042        202203257289-3342-90             HOUSING FEMALE ASS'Y     CCN000019200000019200FN00000000020220401000019200NNMD0420220202131013    1N0N  00000240000000686400000901432H2    HVYHV   005500360039
BI00B32H2    TIJ2043        202204017289-3342-90             HOUSING FEMALE ASS'Y     CCN000019200000019200FN00000000020220401000019200NNMD0420220202131013    1N0N  00000240000000686400000901432H2    HVYHV   005500360039
BI00B32H2    TIJ2044        202204087289-3342-90             HOUSING FEMALE ASS'Y     CCN000019200000019200FN00000000020220401000019200NNMD0420220202131013    1N0N  00000240000000686400000901432H2    HVYHV   005500360039
BI00B32H2    QA-22-C015     202202047283-4577-30             CONNECTOR HOUSING        PNN000014400000014400FN00000000020220201000014400NNE   20220202131013    4N0N  00000480000000916800001136832H2    HVYHV   005500360039
BI00B32J1    390814         202202287158-3167-80             WIRE SEAL                CCN002640000002640000FN00000000020220201002640000NNMD0420220202135734    1C0C  00002000000000048000000109032J1    UKYEL-BL002700430014
BI00B32J1    390814         202202217327-6654-3W             BATTERY FUSE             CCN000003840000000000FY00000000020220201000000000NNMQ0820220202082957    4N0N  00000009600001132300001312432J1    UKYEL-BL005500360039
BI00B32K8    #K1220010099   202202117137-2717-50             SEALED CONNECTOR         CCN000012000000012000FN00000000020220401000012000NNMD0020220202140539    2C0C  00000400000000212800000284032K8    ELELCOM 002700430014
BI00B32K8    #K1220010118   202202187137-2717-50             SEALED CONNECTOR         CCN000024000000024000FN00000000020220401000024000NNMD0020220202140628    2C0C  00000400000000212800000284032K8    ELELCOM 002700430014
BI00B32K8    #K1220010145   202202117137-2717-50             SEALED CONNECTOR         CCN000004000000004000FN00000000020220401000004000NNMD0020220202140601    2C0C  00000400000000212800000284032K8    ELELCOM 002700430014
BI00B32K8    #K1220010217   202203047137-2200                CONNECTOR PACKING        CCN000005000000005000FN00000000020220401000005000NNM   20220202131013    2C0C  00000500000000136000000211332K8    ELELCOM 004300270014
BI00B32K8    #K1220010218   202202257137-2717-50             SEALED CONNECTOR         CCN000024000000024000FN00000000020220401000024000NNM   20220202131013    2C0C  00000400000000212800000284032K8    ELELCOM 002700430014
BI00B32M1    TCV2041        202203317289-3342                HOUSING FEMALE ASS'Y     CCN000031200000031200FN00000000020220401000031200NNMD0420220202131013    1N0N  00000240000000686400000901432M1    VNYEV   005500360039
BI00B32M1    TCV2042        202203317289-3342                HOUSING FEMALE ASS'Y     CCN000086400000086400FN00000000020220401000086400NNMD0420220202131013    1N0N  00000240000000686400000901432M1    VNYEV   005500360039
BI00B32M1    TCV2043        202204077289-3342                HOUSING FEMALE ASS'Y     CCN000096000000096000FN00000000020220401000096000NNMD0420220202131013    1N0N  00000240000000686400000901432M1    VNYEV   005500360039
BI00B32M1    TCV2044        202204217289-3342                HOUSING FEMALE ASS'Y     CCN000132000000132000FN00000000020220401000132000NNMD0420220202131013    1N0N  00000240000000686400000901432M1    VNYEV   005500360039
BI00B32M1    TCV2041        202203177289-3342-30             HOUSING FEMALE ASS'Y     CCN000012000000012000FN00000000020220401000012000NNMD0420220202131013    1N0N  00000240000000686400000901432M1    VNYEV   005500360039
BI00B32M1    TCV2042        202203247289-3342-30             HOUSING FEMALE ASS'Y     CCN000036000000036000FN00000000020220401000036000NNMD0420220202131013    1N0N  00000240000000686400000901432M1    VNYEV   005500360039
BI00B32M1    TCV2043        202203317289-3342-30             HOUSING FEMALE ASS'Y     CCN000036000000036000FN00000000020220401000036000NNMD0420220202131013    1N0N  00000240000000686400000901432M1    VNYEV   005500360039
BI00B32M1    TCV2044        202204077289-3342-30             HOUSING FEMALE ASS'Y     CCN000052800000052800FN00000000020220401000052800NNMD0420220202131013    1N0N  00000240000000686400000901432M1    VNYEV   005500360039
BI00B32M1    TCV2042        202203247289-3342-40             HOUSING FEMALE ASS'Y     CCN000019200000019200FN00000000020220401000019200NNMD0420220202131013    1N0N  00000240000000686400000901432M1    VNYEV   005500360039
BI00B32M1    TCV2043        202203317289-3342-40             HOUSING FEMALE ASS'Y     CCN000045600000045600FN00000000020220401000045600NNMD0420220202131013    1N0N  00000240000000686400000901432M1    VNYEV   005500360039
BI00B32M1    TCV2044        202204077289-3342-40             HOUSING FEMALE ASS'Y     CCN000057600000057600FN00000000020220401000057600NNMD0420220202131013    1N0N  00000240000000686400000901432M1    VNYEV   005500360039
BI00B32M1    TCV2042        202203247289-3342-90             HOUSING FEMALE ASS'Y     CCN000028800000028800FN00000000020220401000028800NNMD0420220202131013    1N0N  00000240000000686400000901432M1    VNYEV   005500360039
BI00B32M1    TCV2043        202203317289-3342-90             HOUSING FEMALE ASS'Y     CCN000028800000028800FN00000000020220401000028800NNMD0420220202131013    1N0N  00000240000000686400000901432M1    VNYEV   005500360039
BI00B32M1    TCV2044        202204077289-3342-90             HOUSING FEMALE ASS'Y     CCN000031200000031200FN00000000020220401000031200NNMD0420220202131013    1N0N  00000240000000686400000901432M1    VNYEV   005500360039
BI00B32N1    #NST2115       202202037137-3072-80S            SEALED PACKING           CCN000120960000120960FN00000000020220201000120960NNE00020220202131013    2H0H  00003024000000196500000244232N1    TAYIPL  004300270014
BI00A32N1    #NST2115A-1    202202047283-8226-30             CONNECTOR                CCN000040920000042000FN00000000020220301000042000NNMM0020220202151604    2N0N  00000200000000820000001008032N1    TAYIPL  005400370024
BI00B32N1    NST2116GCU     202203107158-3070-80             RUBBER STOPPER           CCN000160000000160000FN00000000020220301000160000NNED0120220202135712    1C0C  00004000000000276000000333332N1    TAYIPL  002700430014
BI00A32N1    #QA-22-C122    202202037282-5845                HOUSING MALE ASS'Y       PNY000006916000006916FN00000000020220201000006916NNE   20220202131013    2N0N  00000400000001068000001178032N1    TAYIPL  005400370024
BI00A32N1    #QA-22-C122    202202037282-5845-30             HOUSING MALE ASS'Y       PNY000003015000003015FN00000000020220201000003015NNE   20220202131013    2N0N  00000400000001068000001178032N1    TAYIPL  005400370024
BI00B32N3    NBT204 A2      202205267289-3342-30             HOUSING FEMALE ASS'Y     CCN000016800000016800FN00000000020220401000016800NNMS0020220202131013    1N0N  00000240000000686400000901432N3    ABYIPL-B005500360039
BI00B32N3    NBT204 A4      202206027289-3342-30             HOUSING FEMALE ASS'Y     CCN000026400000026400FN00000000020220401000026400NNMS0020220202131013    1N0N  00000240000000686400000901432N3    ABYIPL-B005500360039
BI00B32N3    NBT204 B       202202247288-3206                HOUSING MALE ASS'Y       CCN000005100000005100FN00000000020220401000005100NNED0420220202131013    1N0N  00000102000000387600000787632N3    ABYIPL-B005500360039
BI00B32Q8    #EU2203E MW    202202237158-3008-80             RUBBER STOPPER           CCN000060000000060000FN00000000020220301000060000NNED0420220202132242    2C0C  00002000000000288000000343032Q8    EMEMI   004300270014
BI00B32Q8    #EU2203E MW    202202237158-3015-10             RUBBER STOPPER           CCN000230000000230000FN00000000020220301000230000NNED0420220202132327    2C0C  00001000000000419500000474032Q8    EMEMI   002700430014
BI00B32Q8    #EU2203E MW    202202237158-3017                RUBBER STOPPER           CCN000090000000090000FN00000000020220301000090000NNED0420220202132354    2C0C  00001000000000375500000435032Q8    EMEMI   002700430014
BI00B32Q8    EU2203FTMW     202205257288-6547                CONNECTOR MALE ASS'Y     CCN000000750000000750FN00000000020220301000000750NNES0020220202131013    4N0N  00000075000001205300001340332Q8    EMEMI   005400370024
BI00B32Q8    EU2203FTMW     202204277289-3342                HOUSING FEMALE ASS'Y     CCN000098400000098400FN00000000020220301000098400NNED0420220202131013    1N0N  00000240000000686400000901432Q8    EMEMI   005500360039
BI00B32Q8    EU2203FTMW     202203307289-3342-30             HOUSING FEMALE ASS'Y     CCN000007200000007200FN00000000020220301000007200NNES0020220202131013    1N0N  00000240000000686400000901432Q8    EMEMI   005500360039
BI00B32Q8    #EU2203FTMW    202202237172-5625-90             RUBBER STOPPER           CCN000180000000180000FN00000000020220301000180000NNED0420220202132422    2H0H  00002000000000082400000133832Q8    EMEMI   004300270014
BI00B32Q8    #EU2203FTMW    202202237172-5626-90             RUBBER STOPPER           CCN000440000000440000FN00000000020220301000440000NNED0420220202132446    2H0H  00002000000000076400000127832Q8    EMEMI   004300270014
BI00B32Q8    #EU2203FTMW    202202237172-5627-60             RUBBER STOPPER           CCN000200000000200000FN00000000020220301000200000NNED0420220202132510    2H0H  00002000000000070400000121832Q8    EMEMI   004300270014
BI00B32Q8    #EU2203FTMW    202202237172-5628-80             DUMMY PLUG               CCN000400000000400000FN00000000020220301000400000NNED0420220202132530    2H0H  00002000000000110600000162032Q8    EMEMI   004300270014
BI00B32Q8    #EU2203FTMW    202202237172-5632-10             DUMMY PLUG               CCN000600000000600000FN00000000020220301000600000NNED0420220202132553    2H0H  00002000000000080400000131832Q8    EMEMI   004300270014
BI00B32Q8    EU2203DDMW     202202227C89-6868-30             SEALED ASSY FEMALE       CCN000020160000020160FN00000000020220301000020160NNE   20220202155456    4N0N  00000252000000839200001119232Q8    EMEMI   005500360039
BI00B32Q8    EU2203ENMW     202202227158-3167-61             WIRE SEAL                CCN000040000000040000FN00000000020220301000040000NNE   20220202155522    1C0C  00002000000000048000000096432Q8    EMEMI   004300270014
BI00B32Q8    EU2203ENMW     202202227195-1464-02             TERMINAL MALE            CCN000051000000051000FN00000000020220301000051000NNE   20220202155522    4P0P  00002550000000420800000706032Q8    EMEMI   006400630015
BI00B32Q8    EU2203ENMW     202202227195-1465-02             TERMINAL MALE            CCN000021000000021000FN00000000020220301000021000NNE   20220202155522    4P0P  00002100000000359100000644332Q8    EMEMI   006400630015
BI00B32Q8    EU2203ENMW     202202227289-4696-30             HOUSING FEMALE ASS'Y     CCN000016000000016000FN00000000020220301000016000NNE   20220202155522    4N0N  00000200000000913400001055432Q8    EMEMI   005400370024
BI00B32Q8    EU2203ENMW     202202227289-7615-30             HOUSING FEMALE ASS'Y     CCN000008320000008320FN00000000020220301000008320NNE   20220202155522    4N0N  00000032000000738000000948032Q8    EMEMI   005400370024
BI00B32Q8    #EU2203ENMW    202202227157-3992-90             CONNECTOR SEALED         CCN000040000000040000FN00000000020220301000040000NNE   20220202155518    2C0C  00004000000000300000000363332Q8    EMEMI   002700430014
BI00B32Q8    EU2203F MW     202202227017-1183-02             TERMINAL                 CCN000054000000054000FN00000000020220301000054000NNE   20220202155545    4P0P  00002700000001139400001307432Q8    EMEMI   005100280028
BI00B32Q8    EU2203F MW     202202227114-4032                TERMINAL                 CCN000015000000015000FN00000000020220301000015000NNE   20220202155545    4P0P  00000750000000735000001063632Q8    EMEMI   006400630017
BI00B32Q8    EU2203F MW     202202227114-4415-02             TERMINAL MALE            CCN000027000000027000FN00000000020220301000027000NNE   20220202155545    4P0P  00002700000000429300000717532Q8    EMEMI   006400630015
BI00B32Q8    EU2203F MW     202202227114-4729-02             TERMINAL                 CCN000480000000480000FN00000000020220301000480000NNE   20220202155545    4P0P  00003000000000516000000810232Q8    EMEMI   006400630015
BI00B32Q8    EU2203F MW     202202227114-5747-02             TERMINAL                 CCN000072000000072000FN00000000020220301000072000NNE   20220202155545    4P0P  00001800000000626400000920032Q8    EMEMI   006400630015
BI00B32Q8    EU2203F MW     202202227114-5748-02             TERMINAL                 CCN000096000000096000FN00000000020220301000096000NNE   20220202155545    4P0P  00001200000000444000000737632Q8    EMEMI   006400630015
BI00B32Q8    EU2203F MW     202202227114-6041                TERMINAL                 CCN000003600000003600FN00000000020220301000003600NNE   20220202155545    4P0P  00000360000000580700000824232Q8    EMEMI   006400630015
BI00B32Q8    EU2203F MW     202202227116-1685-02             TERMINAL                 CCN000048000000048000FN00000000020220301000048000NNE   20220202155545    4P0P  00002400000000897600001065232Q8    EMEMI   005100280028
BI00B32Q8    EU2203F MW     202202227116-2891-02             TERMINAL                 CCN000105000000105000FN00000000020220301000105000NNE   20220202155545    4P0P  00001500000000982500001145932Q8    EMEMI   005100280028
BI00B32Q8    EU2203F MW     202202227116-2892-02             TERMINAL                 CCN000048000000048000FN00000000020220301000048000NNE   20220202155545    4P0P  00001200000000818400000981832Q8    EMEMI   005100280028
BI00B32Q8    EU2203F MW     202202227116-2893-02             TERMINAL                 CCN000288000000288000FN00000000020220301000288000NNE   20220202155545    4P0P  00001200000000895200001058632Q8    EMEMI   005100280028
BI00B32Q8    EU2203F MW     202202227116-4025                TERMINAL                 CCN000208000000208000FN00000000020220301000208000NNE   20220202155545    4P0P  00001600000000644800000975132Q8    EMEMI   006400630017
BI00B32Q8    EU2203F MW     202202227116-4028-08             TERMINAL FEMALE          CCN000112000000112000FN00000000020220301000112000NNE   20220202155545    4P0P  00001600000000652800000981532Q8    EMEMI   006400630017
BI00B32Q8    EU2203F MW     202202227116-4031                TERMINAL                 CCN000015000000015000FN00000000020220301000015000NNE   20220202155545    4P0P  00000750000000619500000904732Q8    EMEMI   006400630015
BI00B32Q8    EU2203F MW     202202227116-4032                TERMINAL                 CCN000042000000042000FN00000000020220301000042000NNE   20220202155545    4P0P  00000600000000532800000818032Q8    EMEMI   006400630015
BI00B32Q8    EU2203F MW     202202227116-4037                TERMINAL                 CCN000228000000228000FN00000000020220301000228000NNE   20220202155545    4P0P  00000600000000600000000894232Q8    EMEMI   006400630015
BI00B32Q8    EU2203F MW     202202227116-4231-02             TERMINAL                 CCN000104000000104000FN00000000020220301000104000NNE   20220202155545    4P0P  00002600000000683800001012532Q8    EMEMI   006400630017
BI00B32Q8    EU2203F MW     202202227116-5045-02             TERMINAL                 CCN000016000000016000FN00000000020220301000016000NNE   20220202155545    4P0P  00001600000000678400001007132Q8    EMEMI   006400630017
BI00B32Q8    EU2203F MW     202202227116-5751-02             TERMINAL                 CCN000168000000168000FN00000000020220301000168000NNE   20220202155545    4P0P  00001200000000379200000664432Q8    EMEMI   006400630015
BI00B32Q8    EU2203F MW     202202227116-6041                TERMINAL                 CCN000022500000022500FN00000000020220301000022500NNE   20220202155545    4P0P  00000450000000716000001009632Q8    EMEMI   006400630015
BI00B32Q8    EU2203F MW     202202227116-6042                TERMINAL                 CCN000075000000075000FN00000000020220301000075000NNE   20220202155545    4P0P  00000300000000523800000856132Q8    EMEMI   006400630015
BI00B32Q8    EU2203F MW     202202227126-8853-02             TERMINAL                 CCN000262500000262500FN00000000020220301000262500NNE   20220202155545    4P0P  00000750000000562500000847732Q8    EMEMI   006400630015
BI00B32Q8    EU2203F MW     202202227126-8854-02             TERMINAL                 CCN000217500000217500FN00000000020220301000217500NNE   20220202155545    4P0P  00000750000000604500000889732Q8    EMEMI   006400630015
BI00B32Q8    EU2203F MW     202202227126-8855-02             TERMINAL                 CCN000306000000306000FN00000000020220301000306000NNE   20220202155545    4P0P  00000600000000510600000795832Q8    EMEMI   006400630015
BI00B32Q8    EU2203F MW     202202227158-3009-60             RUBBER STOPPER           CCN000460000000460000FN00000000020220301000460000NNE   20220202155545    1C0C  00002000000000338000000386232Q8    EMEMI   002700430014
BI00B32Q8    EU2203F MW     202202227158-3022-80             RUBBER STOPPER           CCN000025000000025000FN00000000020220301000025000NNE   20220202155545    1C0C  00000500000000467500000524032Q8    EMEMI   002700430014
BI00B32Q8    EU2203F MW     202202227158-3165-90             WIRE SEAL                CCN000080000000080000FN00000000020220301000080000NNE   20220202155545    1C0C  00004000000000124000000172432Q8    EMEMI   004300270014
BI00B32Q8    EU2203F MW     202202227158-3166-60             WIRE SEAL                CCN000400000000400000FN00000000020220301000400000NNE   20220202155545    1C0C  00004000000000104000000152432Q8    EMEMI   002700430014
BI00B32Q8    EU2203F MW     202202227158-3167-80             WIRE SEAL                CCN000160000000160000FN00000000020220301000160000NNE   20220202155545    1C0C  00002000000000048000000109032Q8    EMEMI   002700430014
BI00B32Q8    EU2203F MW     202202227183-2417-30             CONNECTOR HOUSING        CCN000002400000002400FN00000000020220301000002400NNE   20220202155545    4F0F  00000240000001137600001297932Q8    EMEMI   005500360039
BI00B32Q8    EU2203F MW     202202227282-7028-30             CONNECTOR                CCN000002000000002000FN00000000020220301000002000NNE   20220202155545    1N0N  00000200000001124000001212532Q8    EMEMI   005600390040
BI00B32Q8    EU2203F MW     202202227283-5843                CONNECTOR                CCN000003000000003000FN00000000020220301000003000NNE   20220202155545    1N0N  00000150000000889000001132032Q8    EMEMI   005600390040
BI00B32Q8    EU2203F MW     202202227283-6120                CONNECTOR HOUSING        CCN000003000000003000FN00000000020220301000003000NNE   20220202155545    1N0N  00000150000000914000001143032Q8    EMEMI   005600390040
BI00B32Q8    EU2203F MW     202202227283-7526-30             CONNECTOR HOUSING        CCN000001960000001960FN00000000020220301000001960NNE   20220202155545    4N0N  00000196000000989800001248632Q8    EMEMI   005500360039
BI00B32Q8    #EU2203F MW    202202227158-3005-80             RUBBER STOPPER           CCN000280000000280000FN00000000020220301000280000NNE   20220202155538    2H0H  00002000000000210000000268732Q8    EMEMI   002700430014
BI00B32Q8    #EU2203F MW    202202227158-3015-10             RUBBER STOPPER           CCN000210000000210000FN00000000020220301000210000NNE   20220202155538    2C0C  00001000000000419500000474032Q8    EMEMI   002700430014
BI00B32Q8    #EU2203F MW    202202227158-3017                RUBBER STOPPER           CCN000080000000080000FN00000000020220301000080000NNE   20220202155538    2C0C  00001000000000375500000435032Q8    EMEMI   002700430014
BI00B32Q8    #EU2203F MW    202202227283-1065                CONNECTOR                CCN000002500000002500FN00000000020220301000002500NNE   20220202155538    2N0N  00000250000001152500001310432Q8    EMEMI   005500360039
BI00B32Q8    #EU2203F MW    202202227283-1161                CONNECTOR FEMALE         CCN000002000000002000FN00000000020220301000002000NNE   20220202155538    2N0N  00000100000000602000000711032Q8    EMEMI   005400370024
BI00B32Q8    @EU2203F MW    202202227183-7770-40             HOUSING                  CCN000006000000006000FN00000000020220301000006000NNE   20220202155541    3F0F  00000600000001011000001161032Q8    EMEMI   005400370024
BI00B32Q8    @EU2203F MW    202202227282-1148                CONNECTOR ASS'Y          CCN000003200000003200FN00000000020220301000003200NNE   20220202155541    3N0N  00000080000001165300001404032Q8    EMEMI   005500360039
BI00B32Q8    EU2203GTMW     202202227114-5096-02             TERMINAL                 CCN000300000000300000FN00000000020220301000300000NNE   20220202155636    4P0P  00003000000000498000000792232Q8    EMEMI   006400630015
BI00B32Q8    EU2203GTMW     202202227114-5096-08             TERMINAL                 CCN000060000000060000FN00000000020220301000060000NNE   20220202155636    4P0P  00003000000000498000000792232Q8    EMEMI   006400630015
BI00B32Q8    EU2203GTMW     202202227114-5753-02             TERMINAL                 CCN000027000000027000FN00000000020220301000027000NNE   20220202155636    4P0P  00002700000000847800001141432Q8    EMEMI   006400630015
BI00B32Q8    EU2203GTMW     202202227116-5035-02             TERMINAL                 CCN000015000000015000FN00000000020220301000015000NNE   20220202155636    4P0P  00001500000000543000000828232Q8    EMEMI   006400630015
BI00B32Q8    EU2203GTMW     202202227116-5042-02             TERMINAL                 CCN000054000000054000FN00000000020220301000054000NNE   20220202155636    4P0P  00001350000000560300000845532Q8    EMEMI   006400630015
BI00B32Q8    EU2203GTMW     202202227116-5043-02             TERMINAL FEMALE          CCN000060000000060000FN00000000020220301000060000NNE   20220202155636    4P0P  00001200000000559200000844432Q8    EMEMI   006400630015
BI00B32Q8    EU2203GTMW     202202227116-5044-02             TERMINAL                 CCN000240000000240000FN00000000020220301000240000NNE   20220202155636    4P0P  00001600000000641600000986332Q8    EMEMI   006400630017
BI00B32Q8    EU2203GTMW     202202227116-5046-02             TERMINAL                 CCN000096000000096000FN00000000020220301000096000NNE   20220202155636    4P0P  00001200000000544800000873532Q8    EMEMI   006400630017
BI00B32Q8    EU2203GTMW     202202227116-5750-02             TERMINAL                 CCN000225000000225000FN00000000020220301000225000NNE   20220202155636    4P0P  00001500000000457500000742732Q8    EMEMI   006400630015
BI00B32Q8    EU2203GTMW     202202227173-3291-40             LIF LEVER                CCN000014400000014400FN00000000020220301000014400NNE   20220202155636    1F0F  00000240000000867800001067832Q8    EMEMI   005500360039
BI00B32Q8    EU2203GTMW     202202227196-0396-02             TERMINAL                 CCN000030000000030000FN00000000020220301000030000NNE   20220202155636    4P0P  00001500000000949500001112932Q8    EMEMI   002800510028
BI00B32Q8    EU2203GTMW     202202227196-1102-02             TERMINAL                 CCN000270000000270000FN00000000020220301000270000NNE   20220202155636    4P0P  00002250000000405000000690232Q8    EMEMI   006400630015
BI00B32Q8    EU2203GTMW     202202227196-1103-02             TERMINAL                 CCN000495000000495000FN00000000020220301000495000NNE   20220202155636    4P0P  00002250000000429800000715032Q8    EMEMI   006400630015
BI00B32Q8    EU2203GTMW     202202227196-1104-02             TERMINAL                 CCN000450000000450000FN00000000020220301000450000NNE   20220202155636    4P0P  00002250000000441000000726232Q8    EMEMI   006400630015
BI00B32Q8    EU2203GTMW     202202227283-1289-30             CONNECTOR HOUSING        CCN000001800000001800FN00000000020220301000001800NNE   20220202155636    1N0N  00000060000000675600000820632Q8    EMEMI   005400370024
BI00B32Q8    EU2203GTMW     202202227283-1928-80             CONNECTOR                CCN000008000000008000FN00000000020220301000008000NNE   20220202155636    4N0N  00000200000001180000001358332Q8    EMEMI   005500360039
BI00B32Q8    EU2203GTMW     202202227283-4576-30             HOUSING FEMALE ASS'Y     CCN000004800000004800FN00000000020220301000004800NNE   20220202155636    4N0N  00000480000000651300000871332Q8    EMEMI   005500360039
BI00B32Q8    EU2203GTMW     202202227286-3885-40             CONNECTOR MALE ASS'Y     CCN000001200000001200FN00000000020220301000001200NNE   20220202155636    1N0N  00000120000000910600001130632Q8    EMEMI   005500360039
BI00B32Q8    EU2203GTMW     202202227287-1917-30             CONNECTOR FEMALE         CCN000009600000009600FN00000000020220301000009600NNE   20220202155636    4N0N  00000240000001060800001312532Q8    EMEMI   005500360039
BI00B32Q8    EU2203GTMW     202202227288-3330-30             HOUSING MALE             CCN000001500000001500FN00000000020220301000001500NNE   20220202155636    4N0N  00000150000000866300001011232Q8    EMEMI   005400370024
BI00B32Q8    EU2203GTMW     202202227288-3334-30             HOUSING MALE             CCN000021000000021000FN00000000020220301000021000NNE   20220202155636    4N0N  00000150000000867000001012032Q8    EMEMI   005400370024
BI00B32Q8    EU2203GTMW     202202227288-3339-30             HOUSING MALE             CCN000015000000015000FN00000000020220301000015000NNE   20220202155636    4N0N  00000150000000867000001012032Q8    EMEMI   005400370024
BI00B32Q8    EU2203GTMW     202202227288-3340-30             HOUSING MALE             CCN000003000000003000FN00000000020220301000003000NNE   20220202155636    4N0N  00000150000000861500001006432Q8    EMEMI   005400370024
BI00B32Q8    EU2203GTMW     202202227288-6547                CONNECTOR MALE ASS'Y     CCN000005250000005250FN00000000020220301000005250NNE   20220202155636    4N0N  00000075000001205300001340332Q8    EMEMI   005400370024
BI00B32Q8    EU2203GTMW     202202227289-3342                HOUSING FEMALE ASS'Y     CCN000081600000081600FN00000000020220301000081600NNE   20220202155636    1N0N  00000240000000686400000901432Q8    EMEMI   005500360039
BI00B32Q8    EU2203GTMW     202202227289-6518-30             HOUSING FEMALE ASS'Y     CCN000013200000013200FN00000000020220301000013200NNE   20220202155636    1N0N  00000120000000829200001049232Q8    EMEMI   005500360039
BI00B32Q8    EU2203GTMW     202202227327-6801-3W             BATTERY FUSE             CCN000000096000000096FN00000000020220301000000096NNE   20220202155636    4N0N  00000009600000928400001143432Q8    EMEMI   005500360039
BI00B32Q8    EU2203GTMW     202202227327-6803                MULTI FUSE               CCN000003360000003360FN00000000020220301000003360NNE   20220202155636    4N0N  00000056000000854600001067032Q8    EMEMI   005400370024
BI00B32Q8    EU2203GTMW     202202227386-6939                CONNECTOR MALE ASS'Y     CCN000002700000002700FN00000000020220301000002700NNE   20220202155636    4N0N  00000090000001359900001486432Q8    EMEMI   005400370024
BI00B32Q8    EU2203GTMW     202202227388-2978-30             HOUSING MALE ASS'Y       CCN000081600000081600FN00000000020220301000081600NNE   20220202155636    1N0N  00000048000000742000001122032Q8    EMEMI   005500360039
BI00B32Q8    #EU2203GTMW    202202227125-3236-30             HEAD LAMP CONNECTOR      CCN000002800000002800FN00000000020220301000002800NNE   20220202155627    2F0F  00000280000000945000001085932Q8    EMEMI   005500360039
BI00B32Q8    #EU2203GTMW    202202227154-5597-30             CASSETTE R/B             CCN000000800000000800FN00000000020220301000000800NNE   20220202155627    2F0F  00000080000000736000000952032Q8    EMEMI   005500360039
BI00B32Q8    #EU2203GTMW    202202227172-5625-90             RUBBER STOPPER           CCN000160000000160000FN00000000020220301000160000NNE   20220202155627    2H0H  00002000000000082400000133832Q8    EMEMI   004300270014
BI00B32Q8    #EU2203GTMW    202202227172-5628-80             DUMMY PLUG               CCN000160000000160000FN00000000020220301000160000NNE   20220202155627    2H0H  00002000000000110600000162032Q8    EMEMI   004300270014
BI00B32Q8    #EU2203GTMW    202202227172-5629-80             RUBBER STOPPER           CCN001060000001060000FN00000000020220301001060000NNE   20220202155627    2H0H  00002000000000060000000111132Q8    EMEMI   004300270014
BI00B32Q8    #EU2203GTMW    202202227172-5632-10             DUMMY PLUG               CCN000220000000220000FN00000000020220301000220000NNE   20220202155627    2H0H  00002000000000080400000131832Q8    EMEMI   004300270014
BI00B32Q8    #EU2203GTMW    202202227183-2412-40             HOUSING                  CCN000001600000001600FN00000000020220301000001600NNE   20220202155627    2F0F  00000160000001062100001221232Q8    EMEMI   005500360039
BI00B32Q8    #EU2203GTMW    202202227183-2412-90             HOUSING                  CCN000003200000003200FN00000000020220301000003200NNE   20220202155627    2F0F  00000160000001065300001224432Q8    EMEMI   005500360039
BI00B32Q8    #EU2203GTMW    202202227183-2413-30             CONNECTOR HOUSING        CCN000004800000004800FN00000000020220301000004800NNE   20220202155627    2F0F  00000480000000477600000759532Q8    EMEMI   005500360039
BI00B32Q8    #EU2203GTMW    202202227187-1616                HOUSING FEMALE           CCN000008000000008000FN00000000020220301000008000NNE   20220202155627    2F0F  00000400000001152000001262032Q8    EMEMI   005500360039
BI00B32Q8    #EU2203GTMW    202202227189-2978-30             HOUSING FEMALE           CCN000069000000069000FN00000000020220301000069000NNE   20220202155627    2F0F  00000150000000966900001096932Q8    EMEMI   005400370024
BI00B32Q8    #EU2203GTMW    202202227189-3033                HOUSING FEMALE           CCN000004800000004800FN00000000020220301000004800NNE   20220202155627    2F0F  00000160000001211200001431232Q8    EMEMI   005500360039
BI00B32Q8    #EU2203GTMW    202202227198-4979-30             HOUSING FEMALE           CCN000012000000012000FN00000000020220301000012000NNE   20220202155627    2F0F  00000400000000707200000876032Q8    EMEMI   005400370024
BI00B32Q8    #EU2203GTMW    202202227282-7064-40             HOUSING MALE ASS'Y       CCN000000600000000600FN00000000020220301000000600NNE   20220202155627    2N00  00000060000000599400000766432Q8    EMEMI   005400370024
BI00B32Q8    #EU2203GTMW    202202227289-2912-30             HOUSING FEMALE ASS'Y     CCN000002000000002000FN00000000020220301000002000NNE   20220202155627    2N0N  00000200000000804000000929032Q8    EMEMI   005400370024
BI00B32Q8    #EU2203GTMW    202202227289-3622-30             HOUSING FEMALE ASS'Y     CCN000018144000018144FN00000000020220301000018144NNE   20220202155627    2N0N  00000043200000839400001038432Q8    EMEMI   005400370024
BI00B32Q8    @EU2203GTMW    202202227282-1040-30             HOUSING SUB ASSEMBLY     CCN000002400000002400FN00000000020220301000002400NNE   20220202155631    3N0N  00000240000001015900001258032Q8    EMEMI   005500360039
BI00B32Q8    @EU2203GTMW    202202227283-8349                CONNECTOR ASS'Y          CCN000004800000004800FN00000000020220301000004800NNE   20220202155631    3N0N  00000480000000474700000715432Q8    EMEMI   005500360039
BI00B32U5    DI2016         202204087289-3342                HOUSING FEMALE ASS'Y     CCN000021600000021600FN00000000020220601000021600NNMS0020220202131013U5  1N0N  00000240000000686400000901432U5    AMAMSD  005500360039
BI00B32U5    DI2016         202203187287-1915-40             CONNECTOR ASS'Y          CCN000004800000002400FN00000000020220601000002400NNMD0220220202131013U5  4N0N  00000240000000666500000923132U5    AMAMSD  005500360039
