BI00A32CH    SJ22033DMW     202201261801W006980              IVSSH 0.35F BR           CCN000002500000002500FN00000000020220301000002500NNM20 20220120154243    1W    00000250000000452000000000032CH    SJSAMIJF000000000000QY122016
BI00B32G7    JW2203A MW     2022021718007703930              AVSS 0.5F B              CCN000001500000001500FN00000000020220301000001500NNE   20220120120348    1W    00000150000000674000000000032G7    JIJAI   000000000000JC122018
BI00B32G7    JW2203A MW     2022021718007703992              AVSS 0.5F V              CCN000003000000003000FN00000000020220301000003000NNE   20220120120348    1W    00000150000000674000000000032G7    JIJAI   000000000000JC122019
BI00B32G7    @JW2203A MW    20220217181AD2002ZZ              CIVUSAS-S 0.35X2 B       CCN000020700000020700FN00000000020220301000020700NNE   20220120120348    1W    00000045000001713700000000032G7    JIJAI   000000000000JC122002
BI00B32G7    @JW2203A MW    20220217181AD2008ZZ              CIVUSAS-S 0.5X2 B        CCN000004800000004800FN00000000020220301000004800NNE   20220120120348    1W    00000040000002028000000000032G7    JIJAI   000000000000JC122001
BI00B32G7    @JW2203A MW    20220217181E48022ZZ              CAVSAS-S 0.5X2 GY        CCN000003300000003300FN00000000020220301000003300NNE   20220120120348    1W    00000030000002561000000000032G7    JIJAI   000000000000JC122003
BI00B32G7    @JW2203A MW    20220217181E48024ZZ              CAVSAS-S 0.5X2 GY/R      CCN000002100000002100FN00000000020220301000002100NNE   20220120120348    1W    00000030000002561000000000032G7    JIJAI   000000000000JC122004
BI00B32G7    @JW2203A MW    20220217181E48032ZZ              CAVSAS-S 0.3X2 GY/P      CCN000001750000001750FN00000000020220301000001750NNE   20220120120348    1W    00000035000002008700000000032G7    JIJAI   000000000000JC122006
BI00B32G7    @JW2203A MW    20220217181E48040ZZ              CAVSAS-S 0.3X2 GY/V      CCN000008750000008750FN00000000020220301000008750NNE   20220120120348    1W    00000035000002008700000000032G7    JIJAI   000000000000JC122007
BI00B32G7    @JW2203A MW    20220217181E48060ZZ              CAVSAS-S 0.5X2 GY/V      CCN000001200000001200FN00000000020220301000001200NNE   20220120120348    1W    00000030000002561000000000032G7    JIJAI   000000000000JC122005
BI00B32G7    @JW2203ALMW    20220217181AD2020ZZ              CIVUSAS-S 0.5X2 B(R,G)   CCN000000800000000800FN00000000020220301000000800NNE   20220120120348    1W    00000040000002028000000000032G7    JIJAI   000000000000JD122001
BI00B32G7    @JW2203ALMW    20220217181AD2021ZZ              CIVUSAS-S 0.35X2 B(L,GY) CCN000001350000001350FN00000000020220301000001350NNE   20220120120348    1W    00000045000001714000000000032G7    JIJAI   000000000000JD122002
BI00B32G7    @JW2203ALMW    20220217181AD2022ZZ              CIVUSAS-S 0.35X2 B(R,G)  CCN000000450000000450FN00000000020220301000000450NNE   20220120120348    1W    00000045000001714000000000032G7    JIJAI   000000000000JD122003
BI00B32G7    JW2203AMMW     202202171801W003943              IVSSH 0.5F W/B           CCN000001800000001800FN00000000020220301000001800NNE   20220120120348    1W    00000180000000625000000000032G7    JIJAI   000000000000JE122002
BI00B32G7    JW2203AMMW     202202171801W004050              IVSSH 0.75F R            CCN000001300000001300FN00000000020220301000001300NNE   20220120120348    1W    00000130000000882000000000032G7    JIJAI   000000000000JE122003
BI00B32G7    JW2203AMMW     202202171801W006941              IVSSH 0.35F GY           CCN000002500000002500FN00000000020220301000002500NNE   20220120120348    1W    00000250000000452000000000032G7    JIJAI   000000000000JE122004
BI00B32G7    JW2203AMMW     202202171801W006943              IVSSH 0.35F W/B          CCN000005000000005000FN00000000020220301000005000NNE   20220120120348    1W    00000250000000452000000000032G7    JIJAI   000000000000JE122008
BI00B32G7    JW2203AMMW     202202171801W006950              IVSSH 0.35F R            CCN000002500000002500FN00000000020220301000002500NNE   20220120120348    1W    00000250000000452000000000032G7    JIJAI   000000000000JE122007
BI00B32G7    JW2203AMMW     202202171801W006952              IVSSH 0.35F P            CCN000005000000005000FN00000000020220301000005000NNE   20220120120348    1W    00000250000000452000000000032G7    JIJAI   000000000000JE122006
BI00B32G7    JW2203AMMW     202202171801W006990              IVSSH 0.35F L            CCN000002500000002500FN00000000020220301000002500NNE   20220120120348    1W    00000250000000452000000000032G7    JIJAI   000000000000JE122005
BI00B32H2    @TAW1093       20220128181E48015ZZ              CAVSAS-S 0.5X1 GY        CCN000000400000000400FN00000000020210901000000400NNM28 20220120120348    1W    00000040000001900600000000032H2    HVYHV   000000000000UH218107
