BI00B1200    7860T51A04     202201277289-3342-30             HOUSING FEMALE ASS'Y     CCN000002400000002400FN00000000020211201000002400NNM00020220120145409    1N0N  0000024000000068640000090141200    YCYC    005500360039
BI00A1200    2399T51A22     202202077289-3342-30             HOUSING FEMALE ASS'Y     CCN000009600000009600FN00000000020211201000009600NNMD0420220120144452    1N0N  0000024000000068640000090141200    YCYC    005500360039
BI00A1200    2399T51A23     202202147289-3342-30             HOUSING FEMALE ASS'Y     CCN000009600000009600FN00000000020211201000009600NNMD0420220120131055    1N0N  0000024000000068640000090141200    YCYC    005500360039
BI00A1200    2399T51A24     202202217289-3342-30             HOUSING FEMALE ASS'Y     CCN000009600000009600FN00000000020211201000009600NNMD0420220120144514    1N0N  0000024000000068640000090141200    YCYC    005500360039
BI00B1200    7860T51B04     202204077289-3342-30             HOUSING FEMALE ASS'Y     CCN000002400000002400FN00000000020220101000002400NNMD0420220120145452    1N0N  0000024000000068640000090141200    YCYC    005500360039
BI00B1200    8100T51B08     202204077289-3342-30             HOUSING FEMALE ASS'Y     CCN000002400000002400FN00000000020220101000002400NNED0420220120145515    1N0N  0000024000000068640000090141200    YCYC    005500360039
BI00B1200    2399T51C15     202202247289-3342-30             HOUSING FEMALE ASS'Y     CCN000007200000007200FN00000000020220101000007200NNMD0420220120144948    1N0N  0000024000000068640000090141200    YCYC    005500360039
BI00B1200    2399T51C16     202203037289-3342-30             HOUSING FEMALE ASS'Y     CCN000007200000007200FN00000000020220101000007200NNMD0420220120145002    1N0N  0000024000000068640000090141200    YCYC    005500360039
BI00B1200    7360T51C01     202203037289-3342-30             HOUSING FEMALE ASS'Y     CCN000021600000021600FN00000000020220101000021600NNMD0420220120145017    1N0N  0000024000000068640000090141200    YCYC    005500360039
BI00B1200    7360T51C02     202203107289-3342-30             HOUSING FEMALE ASS'Y     CCN000021600000021600FN00000000020220101000021600NNMD0420220120145029    1N0N  0000024000000068640000090141200    YCYC    005500360039
BI00B1200    7360T51C03     202203177289-3342-30             HOUSING FEMALE ASS'Y     CCN000021600000021600FN00000000020220101000021600NNMD0420220120145044    1N0N  0000024000000068640000090141200    YCYC    005500360039
BI00B1200    7860T51C06     202204077289-3342-30             HOUSING FEMALE ASS'Y     CCN000002400000002400FN00000000020220201000002400NNMD0420220120145505    1N0N  0000024000000068640000090141200    YCYC    005500360039
BI00A1200    HIB21121301    202203237196-2027-02             TERMINAL FEMALE          CCN000024000000018000FN00000000020220101000018000NNED0420220120121940    4P0P  0000180000000078300000094641200    YCYC    005100280028
BI00A1200    2399T52113     202202027289-7970                HYBRID FEMALE ASS'Y      CCN000026240000026240FN00000000020220301000026240NNMM0020220120132600    1N0N  0000003200000073820000096471200    YCYC    005400370024
BI00B1200    7360T52101     202203247289-3342-30             HOUSING FEMALE ASS'Y     CCN000014400000014400FN00000000020220301000014400NNMD0420220120145100    1N0N  0000024000000068640000090141200    YCYC    005500360039
BI00B1200    7360T52104     202203317289-3342-30             HOUSING FEMALE ASS'Y     CCN000014400000014400FN00000000020220301000014400NNMD0420220120145121    1N0N  0000024000000068640000090141200    YCYC    005500360039
BI00A1200    MKH2022-004    202202107126-8889-02             FUSE TERMINAL            CCN000006000000006000FN00000000020220101000006000NNED0620220120121940    4P0P  0000060000000044820000073341200    YCYC    006400630015
BI00A1200    MKH2022-004    202202107126-8890-02             FUSE TERMINAL            CCN000006000000006000FN00000000020220101000006000NNED0620220120121940    4P0P  0000060000000046500000075021200    YCYC    006400630015
BI00A1200    MKH2022-004    202202107126-8891-02             FUSE TERMINAL            CCN000006000000006000FN00000000020220101000006000NNED0620220120121940    4P0P  0000060000000048180000076701200    YCYC    006400630015
BI00A1200    MKH2022-004    202202107126-8892-02             FUSE TERMINAL            CCN000012000000012000FN00000000020220101000012000NNED0620220120121940    4P0P  0000060000000049500000078021200    YCYC    006400630015
BI00A1200    MKH2022-004    202203237196-2023-02             TERMINAL FEMALE          CCN000024000000024000FN00000000020220101000024000NNED0620220120121940    4P0P  0000240000000089760000106101200    YCYC    005100280028
BI00A1200    MKH2022-004    202203237196-2024-02             TERMINAL FEMALE          CCN000024000000024000FN00000000020220101000024000NNED0620220120121940    4P0P  0000240000000091920000108261200    YCYC    005100280028
BI00A1200    MKH2022-004    202203237196-2027-02             TERMINAL FEMALE          CCN000024000000018000FN00000000020220101000018000NNED0620220120121940    4P0P  0000180000000078300000094641200    YCYC    005100280028
BI00A1200    MKH2022-004    202202107196-2038-02             TERMINAL FEMALE          CCN000003600000003600FN00000000020220101000003600NNED0620220120121940    4P0P  0000036000000059000000088361200    YCYC    006400630015
BI00A1200    MKH2022-010    202202087327-6985-30             MULTI FUSE               CCN000000288000000288FN00000000020220201000000288NNE   20220120121940    4N0N  0000002880000000000000000001200    YCYC    000000000000
BI00A1200    MKH2022-010    202202087327-6990-30             MULTI FUSE               CCN000000560000000560FN00000000020220201000000560NNE   20220120121940    4NON  0000005600000072400000090701200    YCYC    005400370024
BI00A1200    MKH2022-010    202202087327-6983-30             MAIN FUSE                CCN000000600000000600FN00000000020220201000000600NNE   20220120121940    4N0N  0000006000000000000000000001200    YCYC    000000000000
BI00B1200    H722D50007     202203317282-5553-10             CONNECTOR                CCN000001000000001000FN00000000020220401000001000NNE   20220120135011    4N0N  0000010000000101800000118301200    YCYC    005500360039
BI00B1200    Y022E50018     202204287174-1849-70             COVER                    CCN000025000000025000FN00000000020220501000025000NNM   20220120135058    1F0F  0000250000000062250000076191200    YCYC    005400370024
BI00B1200    Y022E50019     202204287298-1145-4W             SQUIB SUB ASS'Y          CCN000010000000010000FN00000000020220501000010000NNM   20220120135141    4N0N  0000100000000078790000094491200    YCYC    005400370024
BI00A1200    CE22-MN-0017   202201257327-6994-3W             BATTERY FUSE             CCN000000072000000072FN00000000020220101000000072NNE   20220120154614    4N0N  0000000720000121510000143011200    YCYC    005500360039
BI00B32AF    JTB203A        202202187298-2280-30             HOUSING FEMALE ASS'Y     CCN000001920000001920FN00000000020220301000001920NNE   20220120135155    4N0N  00000192000001068000001216032AF    HBYHVTB 005500360039
BI00B32CH    SJ22022HMW     202201277C89-6868-30             SEALED ASSY FEMALE       CCN000015120000015120FN00001008020220201000005040NNMD0420220120164142    4N0N  00000252000000839200001119232CH    SJSAMIJF005500360039
BI00T32DE    @ICT202B       202202147183-3190                JOINT CONNECTOR          CCN000003600000003600FN00000000020220201000003600NNE   20220120121940    3F0F  00000360000000457600000667832DE    TVYEV-TV005500360039
BI00A32DG    #RL2031        202201247158-3004-40             RUBBER STOPPER           CCN000020000000020000FN00000000020210301000020000NNMM0020220120163143    2C0C  00002000000000234000000306332DG    BFSAIBF 002700430014
BI00A32DG    #RL2031        202201247158-3003-90             RUBBER STOPPER           CCN000020000000020000FN00000000020210301000020000NNMM0020220120163127    2C0C  00002000000000250000000306032DG    BFSAIBF 002700430014
BI00B32DG    RP2024B        202201277114-5747-02             TERMINAL                 CCN000072000000054000FN00000000020220201000054000NNEQ0020220120143353    4P0P  00001800000000626400000920032DG    BFSAIBF 006400630015
BI00B32DG    RP2024B        202201277116-4486-02             TERMINAL                 CCN000196000000028000FN00000000020220201000028000NNEQ0020220120143427    4P0P  00002800000000666400000995132DG    BFSAIBF 006400630017
BI00A32DG    RP2024B        202201217116-5036-02             TERMINAL                 CCN000013500000013500FN00000000020220201000013500NNEM0020220120144917    4P0P  00001350000000618300001042232DG    BFSAIBF 006400630015
BI00A32DG    RP2024B        202201217116-5042-02             TERMINAL                 CCN000081000000081000FN00000000020220201000081000NNEM0020220120144917    4P0P  00001350000000560300000845532DG    BFSAIBF 006400630015
BI00B32DG    RP2024B        202201277116-5044-02             TERMINAL                 CCN000048000000032000FN00000000020220201000032000NNEQ0020220120143838    4P0P  00001600000000641600000986332DG    BFSAIBF 006400630017
BI00A32DG    RP2024B        202201217114-5747-02             TERMINAL                 CCN000018000000018000FN00000000020220201000018000NNEM0020220120144917    4P0P  00001800000000626400000920032DG    BFSAIBF 006400630015
BI00A32DG    RP2024B        202201217116-4486-02             TERMINAL                 CCN000168000000168000FN00000000020220201000168000NNEM0020220120144917    4P0P  00002800000000666400000995132DG    BFSAIBF 006400630017
BI00A32DG    RP2024B        202201217116-5044-02             TERMINAL                 CCN000016000000016000FN00000000020220201000016000NNEM0020220120144917    4P0P  00001600000000641600000986332DG    BFSAIBF 006400630017
BI00B32D1    DFTC2216       202203177289-6547                HOUSING FEMALE ASS'Y     CCN000012000000012000FN00000000020220401000012000NNMD0420220120133219    1N0N  00000240000001152000001362032D1    TOYOT-K 005500360039
BI00B32D2    DGTC2216       202202247017-1180-02             TERMINAL                 CCN000072000000072000FN00000000020220401000072000NNM   20220120121940    4P0P  00007200000001065600001229032D2    TGYOT-G 005100280028
BI00B32D2    DGTC2216       202202247114-4032                TERMINAL                 CCN000022500000022500FN00000000020220401000022500NNM   20220120121940    4P0P  00000750000000735000001063632D2    TGYOT-G 006400630017
BI00B32D2    DGTC2216       202202247114-4624-02             TERMINAL                 CCN000024000000024000FN00000000020220401000024000NNM   20220120121940    4P0P  00002400000000895200001188832D2    TGYOT-G 006400630015
BI00B32D2    DGTC2216       202202247114-5748-02             TERMINAL                 CCN000060000000060000FN00000000020220401000060000NNM   20220120121940    4P0P  00001200000000444000000737632D2    TGYOT-G 006400630015
BI00B32D2    DGTC2216       202202247114-5753-02             TERMINAL                 CCN000108000000108000FN00000000020220401000108000NNM   20220120121940    4P0P  00002700000000847800001141432D2    TGYOT-G 006400630015
BI00B32D2    DGTC2216       202202247116-2891-02             TERMINAL                 CCN000030000000030000FN00000000020220401000030000NNM   20220120121940    4P0P  00001500000000982500001145932D2    TGYOT-G 005100280028
BI00B32D2    DGTC2216       202202247116-4104-02             TERMINAL                 CCN000012000000012000FN00000000020220401000012000NNM   20220120121940    4P0P  00001200000000580800000972432D2    TGYOT-G 006400630015
BI00B32D2    DGTC2216       202202247116-4486-02             TERMINAL                 CCN000112000000112000FN00000000020220401000112000NNM   20220120121940    4P0P  00002800000000666400000995132D2    TGYOT-G 006400630017
BI00B32D2    DGTC2216       202202247116-5045-02             TERMINAL                 CCN000048000000048000FN00000000020220401000048000NNM   20220120121940    4P0P  00001600000000678400001007132D2    TGYOT-G 006400630017
BI00B32D2    DGTC2216       202202247116-5046-02             TERMINAL                 CCN000084000000084000FN00000000020220401000084000NNM   20220120121940    4P0P  00001200000000544800000873532D2    TGYOT-G 006400630017
BI00B32D2    DGTC2216       202202247116-6042                TERMINAL                 CCN000051000000051000FN00000000020220401000051000NNM   20220120121940    4P0P  00000300000000523800000856132D2    TGYOT-G 006400630015
BI00B32D2    DGTC2216       202202247126-8853-02             TERMINAL                 CCN000090000000090000FN00000000020220401000090000NNM   20220120121940    4P0P  00000750000000562500000847732D2    TGYOT-G 006400630015
BI00B32D2    DGTC2216       202202247126-8854-02             TERMINAL                 CCN000075000000075000FN00000000020220401000075000NNM   20220120121940    4P0P  00000750000000604500000889732D2    TGYOT-G 006400630015
BI00B32D2    DGTC2216       202202247126-8855-02             TERMINAL                 CCN000102000000102000FN00000000020220401000102000NNM   20220120121940    4P0P  00000600000000510600000795832D2    TGYOT-G 006400630015
BI00B32D2    DGTC2216       202202247158-3166-60             WIRE SEAL                CCN000080000000080000FN00000000020220401000080000NNM   20220120121940    1C0C  00004000000000104000000152432D2    TGYOT-G 002700430014
BI00B32D2    DGTC2216       202202247158-3167-80             WIRE SEAL                CCN000060000000060000FN00000000020220401000060000NNM   20220120121940    1C0C  00002000000000048000000109032D2    TGYOT-G 002700430014
BI00B32D2    DGTC2216       202202247173-3291-40             LIF LEVER                CCN000009600000009600FN00000000020220401000009600NNM   20220120121940    1F0F  00000240000000867800001067832D2    TGYOT-G 005500360039
BI00B32D2    DGTC2216       202202247196-0396-02             TERMINAL                 CCN000015000000015000FN00000000020220401000015000NNM   20220120121940    4P0P  00001500000000949500001112932D2    TGYOT-G 002800510028
BI00B32D2    DGTC2216       202202247196-1325-02             TERMINAL FEMALE          CCN000360000000360000FN00000000020220401000360000NNM   20220120121940    4P0P  00006000000000450000000778732D2    TGYOT-G 006400630017
BI00B32D2    DGTC2216       202202247196-1326-02             TERMINAL FEMALE          CCN000780000000780000FN00000000020220401000780000NNM   20220120121940    4P0P  00006000000000456000000784732D2    TGYOT-G 006400630017
BI00B32D2    DGTC2216       202202247196-1327-02             TERMINAL FEMALE          CCN000052000000052000FN00000000020220401000052000NNM   20220120121940    4P0P  00005200000000336000000739532D2    TGYOT-G 006400630017
BI00B32D2    DGTC2216       202202247283-6388-40             CONNECTOR                CCN000002000000002000FN00000000020220401000002000NNM   20220120121940    4N0N  00000200000001029000001173532D2    TGYOT-G 005500360039
BI00B32D2    DGTC2216       202202247288-6547                CONNECTOR MALE ASS'Y     CCN000009000000009000FN00000000020220401000009000NNM   20220120121940    4N0N  00000075000001205300001340332D2    TGYOT-G 005400370024
BI00B32D2    DGTC2216       202202247289-3342                HOUSING FEMALE ASS'Y     CCN000057600000057600FN00000000020220401000057600NNM   20220120121940    1N0N  00000240000000686400000901432D2    TGYOT-G 005500360039
BI00B32D2    DGTC2216       202202247289-3342-30             HOUSING FEMALE ASS'Y     CCN000019200000019200FN00000000020220401000019200NNM   20220120121940    1N0N  00000240000000686400000901432D2    TGYOT-G 005500360039
BI00B32D2    DGTC2216       202202247289-3342-40             HOUSING FEMALE ASS'Y     CCN000016800000016800FN00000000020220401000016800NNM   20220120121940    1N0N  00000240000000686400000901432D2    TGYOT-G 005500360039
BI00B32D2    DGTC2216       202202247289-3342-90             HOUSING FEMALE ASS'Y     CCN000021600000021600FN00000000020220401000021600NNM   20220120121940    1N0N  00000240000000686400000901432D2    TGYOT-G 005500360039
BI00B32D2    DGTC2216       202202247289-6518-30             HOUSING FEMALE ASS'Y     CCN000009600000009600FN00000000020220401000009600NNM   20220120121940    1N0N  00000120000000829200001049232D2    TGYOT-G 005500360039
BI00B32D2    DGTC2216       202202247289-6547                HOUSING FEMALE ASS'Y     CCN000009600000009600FN00000000020220401000009600NNM   20220120121940    1N0N  00000240000001152000001362032D2    TGYOT-G 005500360039
BI00B32D2    DGTC2216       202202247296-0784-02             TERMINAL ALUMINIUM       CCN000048000000048000FN00000000020220401000048000NNM   20220120121940    4P0P  00002400000000480000000765232D2    TGYOT-G 006400630015
BI00B32D2    DGTC2216       202202247327-6801-3W             BATTERY FUSE             CCN000003168000003168FN00000000020220401000003168NNM   20220120121940    4N0N  00000009600000928400001143432D2    TGYOT-G 005500360039
BI00B32D2    DGTC2216       202202247327-6803                MULTI FUSE               CCN000000560000000560FN00000000020220401000000560NNM   20220120121940    4N0N  00000056000000854600001067032D2    TGYOT-G 005400370024
BI00B32D2    DGTC2216       202202247327-6806                MULTI FUSE               CCN000003360000003360FN00000000020220401000003360NNM   20220120121940    4N0N  00000056000000851500001063932D2    TGYOT-G 005400370024
BI00B32D2    DGTC2216       202202247327-6809                MULTI FUSE               CCN000003920000003920FN00000000020220401000003920NNM   20220120121940    4N0N  00000056000000849300001061732D2    TGYOT-G 005400370024
BI00B32D2    DGTC2216       202202247327-6930                MULTI FUSE               CCN000002800000002800FN00000000020220401000002800NNM   20220120121940    4N0N  00000056000000848900001031932D2    TGYOT-G 005400370024
BI00B32D2    DGTC2216       202202247388-2978-30             HOUSING MALE ASS'Y       CCN000017760000017760FN00000000020220401000017760NNM   20220120121940    1N0N  00000048000000742000001122032D2    TGYOT-G 005500360039
BI00B32D2    #DGTC2216      202202247158-3003-90             RUBBER STOPPER           CCN000200000000200000FN00000000020220401000200000NNM   20220120121940    2C0C  00002000000000250000000306032D2    TGYOT-G 002700430014
BI00B32D2    #DGTC2216      202202247158-3005-80             RUBBER STOPPER           CCN000020000000020000FN00000000020220401000020000NNM   20220120121940    2H0H  00002000000000210000000268732D2    TGYOT-G 002700430014
BI00B32D2    #DGTC2216      202202247158-3008-80             RUBBER STOPPER           CCN000060000000060000FN00000000020220401000060000NNM   20220120121940    2C0C  00002000000000288000000343032D2    TGYOT-G 004300270014
BI00B32D2    #DGTC2216      202202247158-3015-10             RUBBER STOPPER           CCN000010000000010000FN00000000020220401000010000NNM   20220120121940    2C0C  00001000000000419500000474032D2    TGYOT-G 002700430014
BI00B32D2    #DGTC2216      202202247158-3017                RUBBER STOPPER           CCN000020000000020000FN00000000020220401000020000NNM   20220120121940    2C0C  00001000000000375500000435032D2    TGYOT-G 002700430014
BI00B32D2    #DGTC2216      202202247158-3374-90             CONNECTOR WIRE SEAL      CCN000020000000020000FN00000000020220401000020000NNM   20220120121940    2H0H  00002000000000172000000229332D2    TGYOT-G 002700430014
BI00B32D2    #DGTC2216      202202247172-5626-90             RUBBER STOPPER           CCN000020000000020000FN00000000020220401000020000NNM   20220120121940    2H0H  00002000000000076400000127832D2    TGYOT-G 004300270014
BI00B32D2    #DGTC2216      202202247172-5629-80             RUBBER STOPPER           CCN000340000000340000FN00000000020220401000340000NNM   20220120121940    2H0H  00002000000000060000000111132D2    TGYOT-G 004300270014
BI00B32D2    #DGTC2216      202202247172-5630-40             RUBBER STOPPER           CCN000260000000260000FN00000000020220401000260000NNM   20220120121940    2H0H  00002000000000044000000095132D2    TGYOT-G 004300270014
BI00B32D2    #DGTC2216      202202247172-5631-60             RUBBER STOPPER           CCN000180000000180000FN00000000020220401000180000NNM   20220120121940    2H0H  00002000000000042000000093132D2    TGYOT-G 004300270014
BI00B32D2    #DGTC2216      202202247172-5632-10             DUMMY PLUG               CCN000220000000220000FN00000000020220401000220000NNM   20220120121940    2H0H  00002000000000080400000131832D2    TGYOT-G 004300270014
BI00B32D2    #DGTC2216      202202247189-2978-30             HOUSING FEMALE           CCN000018000000018000FN00000000020220401000018000NNM   20220120121940    2F0F  00000150000000966900001096932D2    TGYOT-G 005400370024
BI00B32D2    #DGTC2216      202202247189-3033                HOUSING FEMALE           CCN000009600000009600FN00000000020220401000009600NNM   20220120121940    2F0F  00000160000001211200001431232D2    TGYOT-G 005500360039
BI00B32D2    #DGTC2216      202202247189-3036                HOUSING FEMALE           CCN000004800000004800FN00000000020220401000004800NNM   20220120121940    2F0F  00000160000000921600001141632D2    TGYOT-G 005500360039
BI00B32D2    #DGTC2216      202202247189-3037                HOUSING FEMALE           CCN000004800000004800FN00000000020220401000004800NNM   20220120121940    2F0F  00000480000000806400001066432D2    TGYOT-G 005500360039
BI00B32D2    #DGTC2216      202202247283-8226-30             CONNECTOR                CCN000010000000010000FN00000000020220401000010000NNM   20220120121940    2N0N  00000200000000820000001008032D2    TGYOT-G 005400370024
BI00B32D2    #DGTC2216      202202247289-2912-40             HOUSING FEMALE ASS'Y     CCN000004000000004000FN00000000020220401000004000NNM   20220120121940    2N0N  00000200000000804000000931032D2    TGYOT-G 005400370024
BI00B32D2    #DGTC2216      202202247289-3622-30             HOUSING FEMALE ASS'Y     CCN000000864000000864FN00000000020220401000000864NNM   20220120121940    2N0N  00000043200000839400001038432D2    TGYOT-G 005400370024
BI00B32D2    #DGTC2216      202202247289-4200-30             HOUSING FEMALE ASS'Y     CCN000002000000002000FN00000000020220401000002000NNM   20220120121940    2N0N  00000200000000926000001021032D2    TGYOT-G 005400370024
BI00B32EJ    T211223P03     202202037B58-3070-80             RUBBER STOPPER           CCN001000000000400000FN00000000020220201000400000NNED0220220120140751EJ  1C0C  00004000000000276000000333032EJ    EJYKBO  004300270014
BI00B32EJ    T211223P03     202202177B58-3070-80             RUBBER STOPPER           CCN000600000000600000FN00000000020220201000600000NNED0220220120140802EJ  1C0C  00004000000000276000000333032EJ    EJYKBO  004300270014
BI00B32E1    NC203C         202202027158-3168-80             SEALED                   CCN000020000000020000FN00000000020220301000020000NNED0720220120121940    1C0C  00002000000000044000000092132E1    SPYSE   004300260014
BI00B32E1    NC203C         202202027283-6448-40             CONNECTOR                CCN000001500000001500FN00000000020220301000001500NNED0720220120121940    4N0N  00000150000001087000001329032E1    SPYSE   005600390040
BI00B32G7    JJ22022 MW     202201277289-3342-30             HOUSING FEMALE ASS'Y     CCN000026400000026400FN00000000020220201000026400NNM00020220120155307    1N0N  00000240000000686400000901432G7    JIJAI   005500360039
BI00B32G7    #JJ22022 MW    202201277158-3007-10             RUBBER STOPPER           CCN000100000000100000FN00000000020220201000100000NNM00020220120155235    2H0H  00002000000000308000000362732G7    JIJAI   002700430014
BI00B32G7    JJ22021 MW     202201277289-3342-30             HOUSING FEMALE ASS'Y     CCN000019200000019200FN00000000020220201000019200NNM00020220120155358    1N0N  00000240000000686400000901432G7    JIJAI   005500360039
BI00B32G7    JJ22031 MW     202202177289-3342-30             HOUSING FEMALE ASS'Y     CCN000033600000033600FN00000000020220301000033600NNMD0420220120163525    1N0N  00000240000000686400000901432G7    JIJAI   005500360039
BI00B32G7    JJ22032 MW     202202247289-3342-30             HOUSING FEMALE ASS'Y     CCN000038400000038400FN00000000020220301000038400NNMD0420220120163543    1N0N  00000240000000686400000901432G7    JIJAI   005500360039
BI00B32G7    JJ22033 MW     202203107289-3342-30             HOUSING FEMALE ASS'Y     CCN000004800000004800FN00000000020220301000004800NNMD0420220120163609    1N0N  00000240000000686400000901432G7    JIJAI   005500360039
BI00B32G7    JJ22034 MW     202203107289-3342-30             HOUSING FEMALE ASS'Y     CCN000028800000028800FN00000000020220301000028800NNMD0420220120163622    1N0N  00000240000000686400000901432G7    JIJAI   005500360039
BI00B32H0    TT2203DVMW     202203157288-6547                CONNECTOR MALE ASS'Y     CCN000000750000000750FN00000000020220301000000750NNED0420220120121940    4N0N  00000075000001205300001340332H0    TTTJY   005400370024
BI00B32H2    TIJ203H        202202187287-7598-30             HOUSING FEMALE ASS'Y     CCN000001000000001000FN00000000020220301000001000NNE   20220120135220    4N0N  00000100000000508000000620532H2    HVYHV   005400370024
BI00B32H2    TIJ203H        202202187287-9234                JOINT CONNECTOR          CCN000019200000019200FN00000000020220301000019200NNE   20220120135220    4N0N  00000960000000893800001184832H2    HVYHV   005500360039
BI00B32H2    TIJ203J        202202257283-4577-30             CONNECTOR HOUSING        CCN000004800000004800FN00000000020220301000004800NNE   20220120135243    4N0N  00000480000000916800001136832H2    HVYHV   005500360039
BI00B32H2    TIJ203J        202202257287-8073                HOUSING FEMALE ASS'Y     CCN000002400000002400FN00000000020220301000002400NNE   20220120135243    1N0N  00000240000001166400001386432H2    HVYHV   005500360039
BI00B32H2    TIJ203J        202202257287-9234                JOINT CONNECTOR          CCN000009600000009600FN00000000020220301000009600NNE   20220120135243    4N0N  00000960000000893800001184832H2    HVYHV   005500360039
BI00B32H2    TIJ203J        202202257288-6547                CONNECTOR MALE ASS'Y     CCN000006000000006000FN00000000020220301000006000NNE   20220120135243    4N0N  00000075000001205300001340332H2    HVYHV   005400370024
BI00B32H2    #TIJ203J       202202257183-2511                HOUSING                  CCN000001600000001600FN00000000020220301000001600NNE   20220120135236    2F0F  00000160000000972200001242132H2    HVYHV   005500360039
BI00B32H2    TIJ203K        202203047287-9234                JOINT CONNECTOR          CCN000009600000009600FN00000000020220301000009600NNE   20220120135257    4N0N  00000960000000893800001184832H2    HVYHV   005500360039
BI00B32H2    TIJ203K        202203047288-6547                CONNECTOR MALE ASS'Y     CCN000004500000004500FN00000000020220301000004500NNE   20220120135257    4N0N  00000075000001205300001340332H2    HVYHV   005400370024
BI00B32H2    #TIJ203K       202203047183-2415                CONNECTOR HOUSING        CCN000004800000004800FN00000000020220301000004800NNE   20220120135252    2F0F  00000480000000798200001091432H2    HVYHV   005500360039
BI00B32H2    #TIJ203K       202203047282-1214                CONNECTOR                CCN000001000000001000FN00000000020220301000001000NNE   20220120135252    2N0N  00000100000000900000001030032H2    HVYHV   005500360039
BI00B32H8    TY2203A MW     202202187116-1471                TERMINAL                 CCN000180000000180000FN00000000020220301000180000NNE   20220120135320    4P0P  00001500000000579000000867232H8    TYTYC   006400630015
BI00B32H8    TY2203A MW     202202187116-4037                TERMINAL                 CCN000006000000006000FN00000000020220301000006000NNE   20220120135320    4P0P  00000600000000600000000894232H8    TYTYC   006400630015
BI00B32H8    TY2203A MW     202202187116-4416-02             TERMINAL                 CCN000032000000032000FN00000000020220301000032000NNE   20220120135320    4P0P  00003200000000518400000847132H8    TYTYC   006400630017
BI00B32H8    TY2203A MW     202202187116-6042                TERMINAL                 CCN000003000000003000FN00000000020220301000003000NNE   20220120135320    4P0P  00000300000000523800000856132H8    TYTYC   006400630015
BI00B32H8    TY2203A MW     202202187126-8854-02             TERMINAL                 CCN000007500000007500FN00000000020220301000007500NNE   20220120135320    4P0P  00000750000000604500000889732H8    TYTYC   006400630015
BI00B32H8    #TY2203A MW    202202187157-7811-80             SEAL RUBBER              CCN000020000000020000FN00000000020220301000020000NNE   20220120135314    2C0C  00001000000000105000000182732H8    TYTYC   002700430014
BI00A32J1    390112         202201247B58-3070-80             RUBBER STOPPER           CCN000040000000040000FN00000000020220101000040000NNMM0020220120121940    1C0C  00004000000000276000000333032J1    UKYEL-BL004300270014
BI00B32J1    #390382        202201247283-8226-30             CONNECTOR                CCN000016000000012000FN00000000020220201000012000NNMD0020220120121940    2N0N  00000200000000820000001008032J1    UKYEL-BL005400370024
BI00A32J1    390523         202201317283-8630                CONNECTOR ASS'Y          CCN000006000000006000FN00000000020220101000006000NNED0720220120121940    4N0N  00000600000000540000000701332J1    UKYEL-BL005400370024
BI00A32J1    #390523        202201317187-3360                JOINT CONNECTOR          CCN000001200000001200FN00000000020220101000001200NNED0720220120121940    2F0F  00000120000000759600001026832J1    UKYEL-BL005600390040
BI00A32J1    #390382        202201247283-8226-30             CONNECTOR                CCN000004000000004000FN00000000020220201000004000NNMM0020220120121940    2N0N  00000200000000820000001008032J1    UKYEL-BL005400370024
BI00B32M1    #QA-22-S002    202201277158-3008-80             RUBBER STOPPER           PNN000040000000040000FN00000000020220101000040000NNEQ0020220120145024    2C0C  00002000000000288000000343032M1    VNYEV   004300270014
BI00B32M1    QA-22-S003     202201277158-3006-90             RUBBER STOPPER           PNN000080000000080000FN00000000020220101000080000NNE   20220120160033    1C0C  00002000000000330600000386032M1    VNYEV   002700430014
BI00B32M4    TP2025         202202037283-1289-40             CONNECTOR HOUSING        CCN000001800000001200FN00000000020220201000001200NNMQ0020220120153733    1N0N  00000060000000679800000824832M4    SISAI   005400370024
BI00A32M4    #TL2031        202201247125-3236                HEAD LAMP CONNECTOR      CCN000002800000002800FN00000000020220301000002800NNMM0020220120165507    2F0F  00000280000000935200001075432M4    SISAI   005500360039
BI00A32M4    TP2025         202201247283-1289-40             CONNECTOR HOUSING        CCN000000600000000600FN00000000020220201000000600NNMM0020220120153740    1N0N  00000060000000679800000824832M4    SISAI   005400370024
BI00B32N1    NST2115ECU     202201217283-5830                CONNECTOR                CCN000007530000012000FN00000000020220201000012000NNE00020220120121940    1N47  00000600000000954000001104032N1    TAYIPL  005500360039
BI00A32Q8    #EU21125TMW    202202037172-5630-40             RUBBER STOPPER           PCN001780000000880000FN00000000020211201000880000NNMD0420220120160752    2H0H  00002000000000044000000095132Q8    EMEMI   004300270014
BI00A32Q8    #EU21125TMW    202201277172-5630-40             RUBBER STOPPER           PCN000890000000900000FN00000000020211201000900000NNMD0420220120160752    2H0H  00002000000000044000000095132Q8    EMEMI   004300270014
BI00B32Q8    EU2202NTMW     202202027287-1915-40             CONNECTOR ASS'Y          CCN000004800000004800FN00000000020220201000004800NNE   20220120135343    4N0N  00000240000000666500000923132Q8    EMEMI   005500360039
BI00B32Q8    EU2202PTMW     202202027196-1947-02             TERMINAL FEMALE          CCN000027000000027000FN00000000020220201000027000NNE   20220120135406    4POP  00000900000000407700000692932Q8    EMEMI   006400630015
BI00B32Q8    EU2202PTMW     202202027288-3335-30             HOUSING MALE             CCN000004500000004500FN00000000020220201000004500NNE   20220120135406    4N0N  00000150000000867000001012032Q8    EMEMI   005400370024
BI00B32Q8    EU2202PTMW     202202027289-6597-70             HOUSING FEMALE ASS'Y     CCN000002160000002160FN00000000020220201000002160NNE   20220120135406    4N0N  00000216000001289500001539532Q8    EMEMI   005500360039
BI00B32Q8    EU2202PTMW     202202027327-6949-30             MULTI FUSE               CCN000002880000002880FN00000000020220201000002880NNE   20220120135406    4N00  00000028800000886700001052632Q8    EMEMI   005400370024
BI00B32Q8    #EU2202PTMW    202202027189-3033-30             HOUSING FEMALE           CCN000003200000003200FN00000000020220201000003200NNE   20220120135402    2F0F  00000160000001208000001428032Q8    EMEMI   005500360039
BI00B32Q8    EU2202QTMW     202202027327-6950-30             MULTI FUSE               CCN000003456000003456FN00000000020220201000003456NNE   20220120135423    4N00  00000028800000888700001054632Q8    EMEMI   005400370024
BI00B32Q8    EU2202QTMW     202202027327-6952-30             MULTI FUSE               CCN000002240000002240FN00000000020220201000002240NNE   20220120135423    4N0N  00000056000000848500001031532Q8    EMEMI   005400370024
BI00B32Q8    EU2202QTMW     202202027327-6954-30             MULTI FUSE               CCN000003000000003000FN00000000020220201000003000NNE   20220120135423    4N00  00000060000000751600000954332Q8    EMEMI   005400370024
BI00B32Q8    EU2203ETMW     202202027196-1325-02             TERMINAL FEMALE          CCN000060000000060000FN00000000020220301000060000NNE   20220120135456    4P0P  00006000000000450000000778732Q8    EMEMI   006400630017
BI00B32Q8    EU2203ETMW     202202027196-1326-02             TERMINAL FEMALE          CCN000060000000060000FN00000000020220301000060000NNE   20220120135456    4P0P  00006000000000456000000784732Q8    EMEMI   006400630017
BI00B32Q8    EU2203ETMW     202202027288-3338-30             HOUSING MALE             CCN000001500000001500FN00000000020220301000001500NNE   20220120135456    4N0N  00000150000000866100001012032Q8    EMEMI   005400370024
BI00B32Q8    #EU2203ETMW    202202027287-1918-40             HOUSING FEMALE ASS'Y     CCN000001800000001980FN00000000020220301000001980NNE   20220120135455    2N0N  00000198000001015500001212032Q8    EMEMI   005400370024
BI00B32Q8    EU2204ATMW     202202237196-1064-02             TERMINAL FEMALE          CCN000006000000006000FN00000000020220401000006000NNE   20220120135519    4P0P  00000600000000570000000855232Q8    EMEMI   006400630015
BI00B32Q8    EU2204ATMW     202202237288-3335-30             HOUSING MALE             CCN000001500000001500FN00000000020220401000001500NNE   20220120135519    4N0N  00000150000000867000001012032Q8    EMEMI   005400370024
BI00B32Q8    EU2204ATMW     202202237289-6597-70             HOUSING FEMALE ASS'Y     CCN000002160000002160FN00000000020220401000002160NNE   20220120135519    4N0N  00000216000001289500001539532Q8    EMEMI   005500360039
BI00B32Q8    #EU2204ATMW    202202237189-3033-30             HOUSING FEMALE           CCN000001600000001600FN00000000020220401000001600NNE   20220120135513    2F0F  00000160000001208000001428032Q8    EMEMI   005500360039
BI00B32Q8    #EU2204ATMW    202202237287-1918-40             HOUSING FEMALE ASS'Y     CCN000000600000001980FN00000000020220401000001980NNE   20220120135513    2N0N  00000198000001015500001212032Q8    EMEMI   005400370024
BI00B32Q8    EU2204BTMW     202203027196-1064-02             TERMINAL FEMALE          CCN000006000000006000FN00000000020220401000006000NNE   20220120135604    4P0P  00000600000000570000000855232Q8    EMEMI   006400630015
BI00B32Q8    EU2204BTMW     202203027196-1326-02             TERMINAL FEMALE          CCN000060000000060000FN00000000020220401000060000NNE   20220120135604    4P0P  00006000000000456000000784732Q8    EMEMI   006400630017
BI00B32Q8    EU2204BTMW     202203027196-1947-02             TERMINAL FEMALE          CCN000027000000027000FN00000000020220401000027000NNE   20220120135604    4POP  00000900000000407700000692932Q8    EMEMI   006400630015
BI00B32Q8    EU2204BTMW     202203027288-3335-30             HOUSING MALE             CCN000003000000003000FN00000000020220401000003000NNE   20220120135604    4N0N  00000150000000867000001012032Q8    EMEMI   005400370024
BI00B32Q8    EU2204BTMW     202203027288-3338-30             HOUSING MALE             CCN000003000000003000FN00000000020220401000003000NNE   20220120135604    4N0N  00000150000000866100001012032Q8    EMEMI   005400370024
BI00B32Q8    #EU2204BTMW    202203027287-1918-40             HOUSING FEMALE ASS'Y     CCN000004800000005940FN00000000020220401000005940NNE   20220120135603    2N0N  00000198000001015500001212032Q8    EMEMI   005400370024
BI00B32W4    #4500187362    202201277289-4104-40             HOUSING FEMALE ASS'Y     CCN000019000000019000FN00000000020220201000019000NNED0020220120121940W4652NON  00000050000000606900000821132W465  HJYHK   005400370024
BI00B32W4    4500187731     202204077283-1020                CONNECTOR                CCN000132000000132000FN00000000020220201000132000NNED0220220120121940W4514N0N  00000600000000840000001049332W451  HJ32W9  005600390040
BI00B32W4    4500187731     202202247283-7028-30             CONNECTOR                CCN000033000000033000FN00000000020220201000033000NNED0220220120121940W4514N0N  00000300000001452000001681332W451  HJ32W9  005600390040
BI00A32W4    4500187856     202202087158-3167-80             WIRE SEAL                CCN000040000000040000FN00000000020220201000040000NNED0020220120121940W9151C0C  00002000000000048000000109032W915  HJYHK   002700430014
BI00A32W4    4500187859     202202087158-3167-80             WIRE SEAL                CCN000040000000040000FN00000000020220301000040000NNED0020220120121940W9151C0C  00002000000000048000000109032W915  HJYHK   002700430014
BI00A32W4    4500188064     202203247158-3169-40             SEALING PLUG             CCN000040000000040000FN00000000020220301000040000NNE   20220120161602W4A21C0C  00004000000000156000000204132W4A2  HJYHK-J 004300260014
BI00A32W4    4500188064     202203247116-4102-02             TERMINAL                 CCN000012000000012000FN00000000020220301000012000NNE   20220120161602W4A24P0P  00001200000000553200000841432W4A2  HJYHK-J 006400630015
BI00A32W4    4500188064     202203247116-4031                TERMINAL                 CCN000007500000007500FN00000000020220301000007500NNE   20220120161602W4A24P0P  00000750000000619500000904732W4A2  HJYHK-J 006400630015
BI00A32W4    4500188065     202203177116-4026                TERMINAL                 CCN000016000000016000FN00000000020220301000016000NNE   20220120161649W4A24P0P  00001600000000664000000994332W4A2  HJYHK-J 006400630017
BI00A32W4    #4500188065    202203177283-8226-30             CONNECTOR                CCN000014000000014000FN00000000020220301000014000NNE   20220120161647W4A22N0N  00000200000000820000001008032W4A2  HJYHK-J 005400370024
BI00A32W4    4500188066     202203107158-3167-80             WIRE SEAL                CCN000040000000040000FN00000000020220301000040000NNE   20220120161733W4A21C0C  00002000000000048000000109032W4A2  HJYHK-J 002700430014
BI00A32W4    4500188066     202203107283-1020                CONNECTOR                CCN000006000000006000FN00000000020220301000006000NNE   20220120161733W4A24N0N  00000600000000840000001049332W4A2  HJYHK-J 005600390040
BI00A32W4    4500188066     202203107116-4111-02             TERMINAL                 CCN000007500000007500FN00000000020220301000007500NNE   20220120161733W4A24P0P  00000750000000529500000817732W4A2  HJYHK-J 006400630015
BI00A32W4    #4500188066    202203107147-3642-30             CLIP                     CCN000015000000015000FN00000000020220301000015000NNE   20220120161729W4A22F0F  00000300000000542000000721332W4A2  HJYHK-J 005600390040
BI00A32W4    #4500188066    202203107283-4190-30             CONNECTOR                CCN000001200000001200FN00000000020220301000001200NNE   20220120161729W4A22N0N  00000024000000846000001115532W4A2  HJYHK-J 005600390040
BI00A32W4    4500188074     202203217116-4100-02             TERMINAL                 CCN000015000000015000FN00000000020220301000015000NNE   20220120161815W4O24P0P  00001500000000696000000990232W4O2  HJYHK-J 006400630015
BI00A32W4    4500188074     202203217116-4112-02             TERMINAL                 CCN000006000000006000FN00000000020220301000006000NNE   20220120161815W4O24P0P  00000600000000450000000738232W4O2  HJYHK-J 006400630015
BI00A32W4    4500188074     202203217116-4102-02             TERMINAL                 CCN000084000000084000FN00000000020220301000084000NNE   20220120161815W4O24P0P  00001200000000553200000841432W4O2  HJYHK-J 006400630015
BI00A32W4    4500188074     202203217116-4026                TERMINAL                 CCN000016000000016000FN00000000020220301000016000NNE   20220120161815W4O24P0P  00001600000000664000000994332W4O2  HJYHK-J 006400630017
BI00A32W4    4500188074     202203217158-3166-60             WIRE SEAL                CCN000040000000040000FN00000000020220301000040000NNE   20220120161815W4O21C0C  00004000000000104000000152432W4O2  HJYHK-J 002700430014
BI00A32W4    4500188074     202203217158-3167-80             WIRE SEAL                CCN000020000000020000FN00000000020220301000020000NNE   20220120161815W4O21C0C  00002000000000048000000109032W4O2  HJYHK-J 002700430014
BI00A32W4    4500188074     202203217116-4101-02             TERMINAL                 CCN000012000000012000FN00000000020220301000012000NNE   20220120161815W4O24P0P  00001200000000582000000876232W4O2  HJYHK-J 006400630015
BI00A32W4    4500188074     202203217116-4104-02             TERMINAL                 CCN000012000000012000FN00000000020220301000012000NNE   20220120161815W4O24P0P  00001200000000580800000972432W4O2  HJYHK-J 006400630015
BI00A32W4    4500188074     202203217116-4103-02             TERMINAL                 CCN000024000000024000FN00000000020220301000024000NNE   20220120161815W4O24P0P  00001200000000571200000859432W4O2  HJYHK-J 006400630015
BI00A32W4    4500188074     202203217116-2870                TERMINAL                 CCN000012000000012000FN00000000020220301000012000NNE   20220120161815W4O21P0P  00001200000000783600001020232W4O2  HJYHK-J 005100280028
BI00A32W4    @4500188074    202203217183-8049                CONNECTOR HOUSING        CCN000008000000008000FN00000000020220301000008000NNE   20220120161812W4O23F0F  00000400000000583600000740032W4O2  HJYHK-J 005400370024
BI00A32W4    4500188103     202203037158-3165-90             WIRE SEAL                CCN000040000000040000FN00000000020220301000040000NNE   20220120161841W4521C0C  00004000000000124000000172432W452  HJYHK   004300270014
BI00A32W4    4500188103     202203037116-4111-02             TERMINAL                 CCN000015000000015000FN00000000020220301000015000NNE   20220120161841W4524P0P  00000750000000529500000817732W452  HJYHK   006400630015
BI00A32W6    SW22011QMW     202201197327-6880-30             MULTI FUSE               PCN000005760000006336FN00000633620220101000000000NNM00020220120163734    4N0N  00000028800001012600001178532W6    SYSYA-WJ005400370024
BI00A32W6    SW22011QMW     202201217327-6880-30             MULTI FUSE               CCN000008352000008352FN00000000020220101000008352NNM00020220120163852    4N0N  00000028800001012600001178532W6    SYSYA-WJ005400370024
BI00A32W6    SW22011QMW     202201217327-6884-30             MULTI FUSE               CCN000005760000005760FN00000000020220101000005760NNM00020220120163852    4N0N  00000028800000988900001154832W6    SYSYA-WJ005400370024
BI00A32X5    TIB2007        202201147289-3342-40             HOUSING FEMALE ASS'Y     CCN000016800000016800FY00001680020220401000000000NNM00020220120110140X5  1N0N  00000240000000686400000901432X5    EPYNA-E 005500360039
BI00A32X5    TIB2007        202201147289-3342-90             HOUSING FEMALE ASS'Y     CCN000014400000014400FY00001440020220401000000000NNM00020220120110140X5  1N0N  00000240000000686400000901432X5    EPYNA-E 005500360039
BI00A32X5    TIB1041        202201147289-3342-30             HOUSING FEMALE ASS'Y     PCN000062400000062400FY00006240020211101000000000NNM00020220120110225X5  1N0N  00000240000000686400000901432X5    EPYNA-E 005500360039
BI00A32X5    TIB1046        202201147288-6547                CONNECTOR MALE ASS'Y     CCN000023250000023250FY00002325020220101000000000NNM00020220120110304X5  4N0N  00000075000001205300001340332X5    EPYNA-E 005400370024
BI00B32Y2    TAU1161        202201177289-3342-30             HOUSING FEMALE ASS'Y     CCN000086400000012000FY00001200020220501000000000NNM00020220120153154    1N0N  00000240000000686400000901432Y2    YUYUY   005500360039
BI00B32Y5    TTA32041       202201187288-6547                CONNECTOR MALE ASS'Y     CCN000003000000003000FY00000300020220401000000000NNM00020220120110454    4N0N  00000075000001205300001340332Y5    BZYBL   005400370024
BI00B32Y5    TTA32042       202201187288-6547                CONNECTOR MALE ASS'Y     CCN000003000000003000FY00000300020220401000000000NNM00020220120110609    4N0N  00000075000001205300001340332Y5    BZYBL   005400370024
BI00B32Y5    TTA32041       202201187289-3342                HOUSING FEMALE ASS'Y     CCN000002400000002400FY00000240020220401000000000NNM00020220120110454    1N0N  00000240000000686400000901432Y5    BZYBL   005500360039
BI00B32Y5    TTA32042       202201187289-3342                HOUSING FEMALE ASS'Y     CCN000002400000002400FY00000240020220401000000000NNM00020220120110609    1N0N  00000240000000686400000901432Y5    BZYBL   005500360039
BI00B32Y5    TTA32041       202201187289-3342-30             HOUSING FEMALE ASS'Y     CCN000004800000004800FY00000480020220401000000000NNM00020220120110454    1N0N  00000240000000686400000901432Y5    BZYBL   005500360039
BI00B32Y5    TTA32042       202201187289-3342-30             HOUSING FEMALE ASS'Y     CCN000004800000004800FY00000480020220401000000000NNM00020220120110609    1N0N  00000240000000686400000901432Y5    BZYBL   005500360039
BI00B32Y5    TTA32041       202201187289-3342-40             HOUSING FEMALE ASS'Y     CCN000004800000004800FY00000480020220401000000000NNM00020220120110454    1N0N  00000240000000686400000901432Y5    BZYBL   005500360039
BI00B32Y5    TTA32042       202201187289-3342-40             HOUSING FEMALE ASS'Y     CCN000004800000004800FY00000480020220401000000000NNM00020220120110609    1N0N  00000240000000686400000901432Y5    BZYBL   005500360039
BI00B32Y5    TTA32041       202201187289-3342-90             HOUSING FEMALE ASS'Y     CCN000004800000004800FY00000480020220401000000000NNM00020220120110454    1N0N  00000240000000686400000901432Y5    BZYBL   005500360039
BI00B32Y5    TTA32042       202201187289-3342-90             HOUSING FEMALE ASS'Y     CCN000004800000004800FY00000480020220401000000000NNM00020220120110609    1N0N  00000240000000686400000901432Y5    BZYBL   005500360039
BI00B32Y5    TTA32041       202201187283-5845-40             CONNECTOR HOUSING        CCN000036000000012000FY00001200020220401000000000NNM00020220120110454    1N0N  00000600000000444000000606332Y5    BZYBL   005400370024
BI00B32Y5    TTA32061       202205057288-6547                CONNECTOR MALE ASS'Y     CCN000011250000000000FY00000000020220601000000000NNMQ0020220120130516    4N0N  00000075000001205300001340332Y5    BZYBL   005400370024
BI00B32Y5    TTA32062       202203017288-6547                CONNECTOR MALE ASS'Y     CCN000005250000005250FN00000000020220601000005250NNMD0020220120121940    4N0N  00000075000001205300001340332Y5    BZYBL   005400370024
BI00B32Y5    TTA32063       202203017288-6547                CONNECTOR MALE ASS'Y     CCN000005250000005250FN00000000020220601000005250NNMD0020220120121940    4N0N  00000075000001205300001340332Y5    BZYBL   005400370024
BI00B32Y5    TTA32064       202203017288-6547                CONNECTOR MALE ASS'Y     CCN000003000000003000FN00000000020220601000003000NNMD0020220120121940    4N0N  00000075000001205300001340332Y5    BZYBL   005400370024
BI00B32Y5    TTA32061       202203017289-3342                HOUSING FEMALE ASS'Y     CCN000052800000052800FN00000000020220601000052800NNMD0020220120130618    1N0N  00000240000000686400000901432Y5    BZYBL   005500360039
BI00B32Y5    TTA32062       202203017289-3342                HOUSING FEMALE ASS'Y     CCN000012000000012000FN00000000020220601000012000NNMD0020220120121940    1N0N  00000240000000686400000901432Y5    BZYBL   005500360039
BI00B32Y5    TTA32063       202203017289-3342                HOUSING FEMALE ASS'Y     CCN000012000000012000FN00000000020220601000012000NNMD0020220120121940    1N0N  00000240000000686400000901432Y5    BZYBL   005500360039
BI00B32Y5    TTA32064       202203017289-3342                HOUSING FEMALE ASS'Y     CCN000009600000009600FN00000000020220601000009600NNMD0020220120121940    1N0N  00000240000000686400000901432Y5    BZYBL   005500360039
BI00B32Y5    TTA32061       202203017289-3342-30             HOUSING FEMALE ASS'Y     CCN000019200000019200FN00000000020220601000019200NNMD0020220120130715    1N0N  00000240000000686400000901432Y5    BZYBL   005500360039
BI00B32Y5    TTA32061       202203017289-3342-40             HOUSING FEMALE ASS'Y     CCN000014400000014400FN00000000020220601000014400NNMD0020220120130741    1N0N  00000240000000686400000901432Y5    BZYBL   005500360039
BI00B32Y5    TTA32062       202203017289-3342-40             HOUSING FEMALE ASS'Y     CCN000007200000007200FN00000000020220601000007200NNMD0020220120121940    1N0N  00000240000000686400000901432Y5    BZYBL   005500360039
BI00B32Y5    TTA32063       202203017289-3342-40             HOUSING FEMALE ASS'Y     CCN000007200000007200FN00000000020220601000007200NNMD0020220120121940    1N0N  00000240000000686400000901432Y5    BZYBL   005500360039
BI00B32Y5    TTA32064       202203017289-3342-40             HOUSING FEMALE ASS'Y     CCN000004800000004800FN00000000020220601000004800NNMD0020220120121940    1N0N  00000240000000686400000901432Y5    BZYBL   005500360039
BI00B32Y5    TTA32061       202203017289-3342-90             HOUSING FEMALE ASS'Y     CCN000014400000014400FN00000000020220601000014400NNMD0020220120130803    1N0N  00000240000000686400000901432Y5    BZYBL   005500360039
BI00B32Y5    TTA32062       202203017289-3342-90             HOUSING FEMALE ASS'Y     CCN000004800000004800FN00000000020220601000004800NNMD0020220120121940    1N0N  00000240000000686400000901432Y5    BZYBL   005500360039
BI00B32Y5    TTA32063       202203017289-3342-90             HOUSING FEMALE ASS'Y     CCN000004800000004800FN00000000020220601000004800NNMD0020220120121940    1N0N  00000240000000686400000901432Y5    BZYBL   005500360039
BI00B32Y5    TTA32064       202203017289-3342-90             HOUSING FEMALE ASS'Y     CCN000004800000004800FN00000000020220601000004800NNMD0020220120121940    1N0N  00000240000000686400000901432Y5    BZYBL   005500360039
BI00B32Y5    TTA32062       202205037289-6547                HOUSING FEMALE ASS'Y     CCN000004800000004800FN00000000020220601000004800NNMD0220220120121940    1N0N  00000240000001152000001362032Y5    BZYBL   005500360039
BI00B32Y5    TTA32063       202205037289-6547                HOUSING FEMALE ASS'Y     CCN000004800000004800FN00000000020220601000004800NNMD0420220120121940    1N0N  00000240000001152000001362032Y5    BZYBL   005500360039
BI00B32Y5    TTA32064       202205037289-6547                HOUSING FEMALE ASS'Y     CCN000004800000004800FN00000000020220601000004800NNMD0220220120121940    1N0N  00000240000001152000001362032Y5    BZYBL   005500360039
BI00B32Y5    TTA32061       202203017288-6547                CONNECTOR MALE ASS'Y     CCN000006000000011250FN00000000020220601000011250NNMD0020220120130516    4N0N  00000075000001205300001340332Y5    BZYBL   005400370024
BI00B32Y5    TTA32061       202204057289-3342                HOUSING FEMALE ASS'Y     CCN000012000000000000FY00000000020220601000000000NNMQ0020220120130618    1N0N  00000240000000686400000901432Y5    BZYBL   005500360039
BI00B32Y5    TTA32061       202204197289-3342                HOUSING FEMALE ASS'Y     CCN000009600000000000FY00000000020220601000000000NNMQ0020220120130618    1N0N  00000240000000686400000901432Y5    BZYBL   005500360039
BI00B32Y5    TTA32061       202205037289-3342                HOUSING FEMALE ASS'Y     CCN000009600000000000FY00000000020220601000000000NNMQ0020220120130618    1N0N  00000240000000686400000901432Y5    BZYBL   005500360039
BI00B32Y5    TTA32061       202205177289-3342                HOUSING FEMALE ASS'Y     CCN000009600000000000FY00000000020220601000000000NNMQ0020220120130618    1N0N  00000240000000686400000901432Y5    BZYBL   005500360039
BI00B32Y5    TTA32061       202203157289-3342-30             HOUSING FEMALE ASS'Y     CCN000007200000000000FY00000000020220601000000000NNMQ0020220120130715    1N0N  00000240000000686400000901432Y5    BZYBL   005500360039
BI00B32Y5    TTA32061       202204057289-3342-30             HOUSING FEMALE ASS'Y     CCN000004800000000000FY00000000020220601000000000NNMQ0020220120130715    1N0N  00000240000000686400000901432Y5    BZYBL   005500360039
BI00B32Y5    TTA32061       202203157289-3342-40             HOUSING FEMALE ASS'Y     CCN000007200000000000FY00000000020220601000000000NNMQ0020220120130741    1N0N  00000240000000686400000901432Y5    BZYBL   005500360039
BI00B32Y5    TTA32061       202203157289-3342-90             HOUSING FEMALE ASS'Y     CCN000007200000000000FY00000000020220601000000000NNMQ0020220120130803    1N0N  00000240000000686400000901432Y5    BZYBL   005500360039
BI00B32Y8    TAIM21111      202201177370-0309                J/B ASS'Y                CCN000000432000000432FY00000043220220401000000000NNE00020220120085442Y8  1J0J  00000001600000870400001260032Y8    CLYCL   005500360039
BI00A32Y8    TAIM2201A      202201257283-1968-30             CONNECTOR                CCN000000900000000900FN00000000020220401000000900NNMM0020220120121940Y8  1N0N  00000090000001140000001318332Y8    CLYCL   005600390040
