BI00B32AF    TTB203A        2022021818000004590              AV 8 L                   CCN000000100000000100FN00000000020220301000000100NNE   20220122181602    1W    00000010000010466200000000032AF    HBYHVTB 000000000000UU122001
BI00B32AF    TTB203A        2022021818000004540              AV 8 W                   CCN000000100000000100FN00000000020220301000000100NNE   20220122181602    1W    00000010000010466200000000032AF    HBYHVTB 000000000000UU122002
BI00B32AF    TTB203A        2022021818000004570              AV 8 Y                   CCN000000100000000100FN00000000020220301000000100NNE   20220122181602    1W    00000010000010466200000000032AF    HBYHVTB 000000000000UU122003
BI00B32DE    TT2034         20220224180D0203930              AVSSH 0.5F B             CCN000018000000018000FN00000000020220301000018000NNM21 20220122164558    1W    00000150000000689000000000032DE    TVYEV-TV000000000000VT322031
BI00B32DE    TT2033         20220217180D0204190              AVSSH 1.25F L            CCN000005600000005600FN00000000020220301000005600NNM20 20220122163733    1W    00000080000001458000000000032DE    TVYEV-TV000000000000VT222055
BI00B32DE    TT2034         20220224180D0204190              AVSSH 1.25F L            CCN000008800000008800FN00000000020220301000008800NNM21 20220122164558    1W    00000080000001458000000000032DE    TVYEV-TV000000000000VT322070
BI00B32DE    TT2034         20220224180D0204140              AVSSH 1.25F W            CCN000000800000000800FN00000000020220301000000800NNM21 20220122164558    1W    00000080000001458000000000032DE    TVYEV-TV000000000000VT322073
BI00B32DE    @TT2034        20220224181F21009ZZ              AVSSHCS-S 0.5FX2 B       CCN000006900000006900FN00000000020220301000006900NNM21 20220122164655    1W    00000030000002531400000000032DE    TVYEV-TV000000000000VT322021
BI00B32DE    @TT2034        20220217181F21014ZZ              AVSSHCS-S 0.5FX2 B/L     CCN000003300000003300FN00000000020220301000003300NNM20 20220122163906    1W    00000030000002531400000000032DE    TVYEV-TV000000000000VT322023
BI00B32DE    TT203C         2022021718007703990              AVSS 0.5F L              CCN000004500000004500FN00000000020220301000004500NNE20 20220122164137    1W    00000150000000674000000000032DE    TVYEV-TV000000000000VU222071
BI00B32DE    TT203C         20220217180D0204190              AVSSH 1.25F L            CCN000003200000003200FN00000000020220301000003200NNE20 20220122164154    1W    00000080000001458000000000032DE    TVYEV-TV000000000000VU222061
BI00B32DE    @TT203C        20220217181E50005ZZ              AVSSCS-S 0.5FX1 DGY/W    CCN000003600000003600FN00000000020220301000003600NNE20 20220122164241    1W    00000040000001909700000000032DE    TVYEV-TV000000000000VU222012
BI00B32DE    TT203D         20220224180D0203930              AVSSH 0.5F B             CCN000018000000018000FN00000000020220301000018000NNE21 20220122164852    1W    00000150000000689000000000032DE    TVYEV-TV000000000000VV322040
BI00B32DE    TT203D         20220224180D0203940              AVSSH 0.5F W             CCN000034500000034500FN00000000020220301000034500NNE21 20220122164852    1W    00000150000000689000000000032DE    TVYEV-TV000000000000VV322063
BI00B32DE    TT203D         20220224180D0204130              AVSSH 1.25F B            CCN000016800000016800FN00000000020220301000016800NNE21 20220122164852    1W    00000080000001458000000000032DE    TVYEV-TV000000000000VV322076
BI00B32DE    TT203D         20220224180D0204190              AVSSH 1.25F L            CCN000008800000008800FN00000000020220301000008800NNE21 20220122164852    1W    00000080000001458000000000032DE    TVYEV-TV000000000000VV322079
BI00B32DE    TT203D         20220224180D0204140              AVSSH 1.25F W            CCN000000800000000800FN00000000020220301000000800NNE21 20220122164852    1W    00000080000001458000000000032DE    TVYEV-TV000000000000VV322082
BI00B32DE    @TT203D        20220217181F21009ZZ              AVSSHCS-S 0.5FX2 B       CCN000006600000006600FN00000000020220301000006600NNE20 20220122164355    1W    00000030000002531400000000032DE    TVYEV-TV000000000000VV322032
BI00B32DE    @TT203D        20220217181F21016ZZ              AVSSHCS-S 0.5FX2 B/BR    CCN000004800000004800FN00000000020220301000004800NNE20 20220122164355    1W    00000030000002531400000000032DE    TVYEV-TV000000000000VV322033
BI00B32DE    @TT203D        20220217181F21027ZZ              AVSSHCS-S 1.25FX2 B      CCN000003200000003200FN00000000020220301000003200NNE20 20220122164355    1W    00000020000004267300000000032DE    TVYEV-TV000000000000VV322037
BI00B32D1    DFTW2216       2022022418000004534              AV 8 B/W                 CCN000003900000003900FN00000000020220401000003900NNE   20220122185555    1W    00000010000010466200000000032D1    TOYOT-K 000000000000KO222058
BI00B32D1    DFTW2216       2022022418000004535              AV 8 B/R                 CCN000005500000005500FN00000000020220401000005500NNE   20220122185555    1W    00000010000010466200000000032D1    TOYOT-K 000000000000KO222057
BI00B32D1    DFTW2216       2022022418000004540              AV 8 W                   CCN000011300000011300FN00000000020220401000011300NNE   20220122185555    1W    00000010000010466200000000032D1    TOYOT-K 000000000000KO222060
BI00B32D1    DFTW2216       2022022418000004543              AV 8 W/B                 CCN000009800000009800FN00000000020220401000009800NNE   20220122185555    1W    00000010000010466200000000032D1    TOYOT-K 000000000000KO222061
BI00B32D1    DFTW2216       2022022418000004550              AV 8 R                   CCN000000300000000300FN00000000020220401000000300NNE   20220122185555    1W    00000010000010466200000000032D1    TOYOT-K 000000000000KO222059
BI00B32D1    @DFTW2216      20220224181AD2002ZZ              CIVUSAS-S 0.35X2 B       CCN000014850000014850FN00000000020220401000014850NNE   20220122185553    1W    00000045000001713700000000032D1    TOYOT-K 000000000000KO222029
BI00B32D1    @DFTW2216      20220224181AD2003ZZ              CIVUSAS-S 0.35X3 B       CCN000005600000005600FN00000000020220401000005600NNE   20220122185553    1W    00000035000002172100000000032D1    TOYOT-K 000000000000KO222030
BI00B32D1    @DFTW2216      20220224181AD2004ZZ              CIVUSAS-S 0.35X4 B       CCN000024600000024600FN00000000020220401000024600NNE   20220122185553    1W    00000030000002799900000000032D1    TOYOT-K 000000000000KO222031
BI00B32D1    @DFTW2216      20220224181E48031ZZ              CAVSAS-S 0.3X2 GY        CCN000006300000006300FN00000000020220401000006300NNE   20220122185553    1W    00000035000002008700000000032D1    TOYOT-K 000000000000KO222032
BI00B32D1    @DFTW2216      20220224181E48037ZZ              CAVSAS-S 0.3X4 GY        CCN000004750000004750FN00000000020220401000004750NNE   20220122185553    1W    00000025000003262000000000032D1    TOYOT-K 000000000000KO222035
BI00B32D1    @DFTW2216      20220224181E48041ZZ              CAVSAS-S 0.3X2 GY/R      CCN000007000000007000FN00000000020220401000007000NNE   20220122185553    1W    00000035000002008700000000032D1    TOYOT-K 000000000000KO222034
BI00B32D1    @DFTW2216      20220224181E48072ZZ              CAVSAS-S 0.3X2 GY/G      CCN000000350000000350FN00000000020220401000000350NNE   20220122185553    1W    00000035000002008700000000032D1    TOYOT-K 000000000000KO222033
BI00B32D1    @DFTW2216      20220224181E50002ZZ              AVSSCS-S 0.3FX2 DGY/G    CCN000006650000006650FN00000000020220401000006650NNE   20220122185553    1W    00000035000002165000000000032D1    TOYOT-K 000000000000KO222041
BI00B32D1    @DFTW2216      20220224181E50004ZZ              AVSSCS-S 0.5FX1 DGY      CCN000010400000010400FN00000000020220401000010400NNE   20220122185553    1W    00000040000001909700000000032D1    TOYOT-K 000000000000KO222036
BI00B32D1    @DFTW2216      20220224181E50005ZZ              AVSSCS-S 0.5FX1 DGY/W    CCN000003600000003600FN00000000020220401000003600NNE   20220122185553    1W    00000040000001909700000000032D1    TOYOT-K 000000000000KO222039
BI00B32D1    @DFTW2216      20220224181E50007ZZ              AVSSCS-S 0.5FX1 DGY/L    CCN000000800000000800FN00000000020220401000000800NNE   20220122185553    1W    00000040000001909700000000032D1    TOYOT-K 000000000000KO222037
BI00B32D1    @DFTW2216      20220224181E50014ZZ              AVSSCS-S 0.5FX1 DGY/R    CCN000000400000000400FN00000000020220401000000400NNE   20220122185553    1W    00000040000001909700000000032D1    TOYOT-K 000000000000KO222038
BI00B32D1    @DFTW2216      20220224181E50020ZZ              AVSSCS-S 0.3FX2 DGY/R    CCN000004550000004550FN00000000020220401000004550NNE   20220122185553    1W    00000035000002165000000000032D1    TOYOT-K 000000000000KO222043
BI00B32D1    @DFTW2216      20220224181E50021ZZ              AVSSCS-S 0.3FX2 DGY/P    CCN000005250000005250FN00000000020220401000005250NNE   20220122185553    1W    00000035000002165000000000032D1    TOYOT-K 000000000000KO222042
BI00B32D1    @DFTW2216      20220224181E50036ZZ              AVSSCS-S 0.3FX2 DGY      CCN000004900000004900FN00000000020220401000004900NNE   20220122185553    1W    00000035000002165000000000032D1    TOYOT-K 000000000000KO222040
BI00B32D2    DGTW2216       2022022418000004530              AV 8 B                   CCN000036300000036300FN00000000020220401000036300NNE   20220122184751    1W    00000010000010466200000000032D2    TGYOT-G 000000000000KR222048
BI00B32D2    DGTW2216       2022022418000004540              AV 8 W                   CCN000007800000007800FN00000000020220401000007800NNE   20220122184751    1W    00000010000010466200000000032D2    TGYOT-G 000000000000KR222050
BI00B32D2    DGTW2216       2022022418000004543              AV 8 W/B                 CCN000005400000005400FN00000000020220401000005400NNE   20220122184751    1W    00000010000010466200000000032D2    TGYOT-G 000000000000KR222051
BI00B32D2    DGTW2216       2022022418000004590              AV 8 L                   CCN000009800000009800FN00000000020220401000009800NNE   20220122184751    1W    00000010000010466200000000032D2    TGYOT-G 000000000000KR222049
BI00B32D2    @DGTW2216      20220224181AD2002ZZ              CIVUSAS-S 0.35X2 B       CCN000010350000010350FN00000000020220401000010350NNE   20220122184749    1W    00000045000001713700000000032D2    TGYOT-G 000000000000KR222023
BI00B32D2    @DGTW2216      20220224181AD2003ZZ              CIVUSAS-S 0.35X3 B       CCN000008400000008400FN00000000020220401000008400NNE   20220122184749    1W    00000035000002172100000000032D2    TGYOT-G 000000000000KR222024
BI00B32D2    @DGTW2216      20220224181AD2004ZZ              CIVUSAS-S 0.35X4 B       CCN000007500000007500FN00000000020220401000007500NNE   20220122184749    1W    00000030000002799900000000032D2    TGYOT-G 000000000000KR222025
BI00B32D2    @DGTW2216      20220224181E48037ZZ              CAVSAS-S 0.3X4 GY        CCN000006750000006750FN00000000020220401000006750NNE   20220122184749    1W    00000025000003262000000000032D2    TGYOT-G 000000000000KR222026
BI00B32D2    @DGTW2216      20220224181E50004ZZ              AVSSCS-S 0.5FX1 DGY      CCN000006800000006800FN00000000020220401000006800NNE   20220122184749    1W    00000040000001909700000000032D2    TGYOT-G 000000000000KR222027
BI00B32D2    @DGTW2216      20220224181E50005ZZ              AVSSCS-S 0.5FX1 DGY/W    CCN000004800000004800FN00000000020220401000004800NNE   20220122184749    1W    00000040000001909700000000032D2    TGYOT-G 000000000000KR222029
BI00B32D2    @DGTW2216      20220224181E50007ZZ              AVSSCS-S 0.5FX1 DGY/L    CCN000004000000004000FN00000000020220401000004000NNE   20220122184749    1W    00000040000001909700000000032D2    TGYOT-G 000000000000KR222028
BI00B32D2    @DGTW2216      20220224181E50016ZZ              AVSSCS-S 0.5FX2 DGY/R    CCN000004200000004200FN00000000020220401000004200NNE   20220122184749    1W    00000030000003096000000000032D2    TGYOT-G 000000000000KR222030
BI00B32D2    @DGTW2216      20220224181E50036ZZ              AVSSCS-S 0.3FX2 DGY      CCN000004900000004900FN00000000020220401000004900NNE   20220122184749    1W    00000035000002165000000000032D2    TGYOT-G 000000000000KR222031
BI00B32D2    @DGTW2216      20220224181F21014ZZ              AVSSHCS-S 0.5FX2 B/L     CCN000005100000005100FN00000000020220401000005100NNE   20220122184749    1W    00000030000002531400000000032D2    TGYOT-G 000000000000KR222033
BI00B32D2    @DGTW2216      20220224181F21016ZZ              AVSSHCS-S 0.5FX2 B/BR    CCN000002700000002700FN00000000020220401000002700NNE   20220122184749    1W    00000030000002531400000000032D2    TGYOT-G 000000000000KR222032
BI00B32D2    @DGTW2216      20220224181F21031ZZ              AVSSHCS-S 1.25FX2 B/P    CCN000002800000002800FN00000000020220401000002800NNE   20220122184749    1W    00000020000004267300000000032D2    TGYOT-G 000000000000KR222034
BI00B32J1    @390633        20220214181AD2001ZZ              CIVUSAS-S 0.35X1 B       CCN000040700000040700FN00000000020220201000040700NNE   20220122102601    1W    00000055000001540800000000032J1    UKYEL-BL000000000000KG122001
BI00B32J1    @390633        20220214181AD2002ZZ              CIVUSAS-S 0.35X2 B       CCN000050400000050400FN00000000020220201000050400NNE   20220122102601    1W    00000045000001713700000000032J1    UKYEL-BL000000000000KG122002
BI00B32J1    @390633        20220214181AD2003ZZ              CIVUSAS-S 0.35X3 B       CCN000029750000029750FN00000000020220201000029750NNE   20220122102601    1W    00000035000002172100000000032J1    UKYEL-BL000000000000KG122003
BI00B32J1    @390633        20220214181AD2004ZZ              CIVUSAS-S 0.35X4 B       CCN000011100000011100FN00000000020220201000011100NNE   20220122102601    1W    00000030000002799900000000032J1    UKYEL-BL000000000000KG122004
BI00B32J1    @390633        20220214181E48012ZZ              CAVSAS-S 0.3X1 GY        CCN000001500000001500FN00000000020220201000001500NNE   20220122102601    1W    00000050000001529500000000032J1    UKYEL-BL000000000000KG122005
BI00B32J1    @390633        20220214181E48013ZZ              CAVSAS-S 0.3X3 GY        CCN000000500000000500FN00000000020220201000000500NNE   20220122102601    1W    00000025000002778200000000032J1    UKYEL-BL000000000000KG122009
BI00B32J1    @390633        20220214181E48015ZZ              CAVSAS-S 0.5X1 GY        CCN000001600000001600FN00000000020220201000001600NNE   20220122102601    1W    00000040000001900600000000032J1    UKYEL-BL000000000000KG122006
BI00B32J1    @390633        20220214181E48022ZZ              CAVSAS-S 0.5X2 GY        CCN000013800000013800FN00000000020220201000013800NNE   20220122102601    1W    00000030000002561000000000032J1    UKYEL-BL000000000000KG122007
BI00B32J1    @390633        20220214181E48035ZZ              CAVSAS-S 0.5X3 GY        CCN000001800000001800FN00000000020220201000001800NNE   20220122102601    1W    00000020000003795300000000032J1    UKYEL-BL000000000000KG122008
BI00B32N2    2152103773     2022022318007703941              AVSS 0.5F GY             CCN000001500000001500FN00000000020220201000001500NNE   20220122184300    1W    00000150000000674000000000032N2    YWYIPLTC000000000000KU222002
BI00B32N2    2152103773     2022022318007703960              AVSS 0.5F G              CCN000001500000001500FN00000000020220201000001500NNE   20220122184300    1W    00000150000000674000000000032N2    YWYIPLTC000000000000KU222001
BI00B32N2    2152103773     2022022318007703990              AVSS 0.5F L              CCN000001500000001500FN00000000020220201000001500NNE   20220122184300    1W    00000150000000674000000000032N2    YWYIPLTC000000000000KU222003
BI00B32N2    2152103773     2022022318007704194              AVSS 1.25F L/W           CCN000000800000000800FN00000000020220201000000800NNE   20220122184300    1W    00000080000001389000000000032N2    YWYIPLTC000000000000KU222004
BI00B32U5    DW2013         202202251801W003940              IVSSH 0.5F W             CCN000019800000019800FN00000000020220501000019800NNM   20220122084930U5  1W    00000180000000625000000000032U5    ASAMSD  000000000000AM222012
BI00B32U5    DW2013         202202251801W003943              IVSSH 0.5F W/B           CCN000001800000001800FN00000000020220501000001800NNM   20220122084930U5  1W    00000180000000625000000000032U5    ASAMSD  000000000000AM222013
BI00B32U5    DW2013         202202251801W003950              IVSSH 0.5F R             CCN000100800000100800FN00000000020220501000100800NNM   20220122084930U5  1W    00000180000000625000000000032U5    ASAMSD  000000000000AM222011
BI00B32U5    DW2013         202202251801W003990              IVSSH 0.5F L             CCN000102600000102600FN00000000020220501000102600NNM   20220122084930U5  1W    00000180000000625000000000032U5    ASAMSD  000000000000AM222010
BI00B32U5    DW2013         202202251801W004043              IVSSH 0.75F W/B          CCN000015600000015600FN00000000020220501000015600NNM   20220122084930U5  1W    00000130000000882000000000032U5    ASAMSD  000000000000AM222015
BI00B32U5    DW2013         202202251801W004050              IVSSH 0.75F R            CCN000003900000003900FN00000000020220501000003900NNM   20220122084930U5  1W    00000130000000882000000000032U5    ASAMSD  000000000000AM222014
BI00B32U5    DW2013         202202251801W006940              IVSSH 0.35F W            CCN000015000000015000FN00000000020220501000015000NNM   20220122084930U5  1W    00000250000000452000000000032U5    ASAMSD  000000000000AM222022
BI00B32U5    DW2013         202202251801W006941              IVSSH 0.35F GY           CCN000005000000005000FN00000000020220501000005000NNM   20220122084930U5  1W    00000250000000452000000000032U5    ASAMSD  000000000000AM222017
BI00B32U5    DW2013         202202251801W006961              IVSSH 0.35F LG           CCN000015000000015000FN00000000020220501000015000NNM   20220122084930U5  1W    00000250000000452000000000032U5    ASAMSD  000000000000AM222019
BI00B32U5    DW2013         202202251801W006980              IVSSH 0.35F BR           CCN000032500000032500FN00000000020220501000032500NNM   20220122084930U5  1W    00000250000000452000000000032U5    ASAMSD  000000000000AM222016
BI00B32U5    DW2013         202202251801W006990              IVSSH 0.35F L            CCN000112500000112500FN00000000020220501000112500NNM   20220122084930U5  1W    00000250000000452000000000032U5    ASAMSD  000000000000AM222018
BI00B32U5    DW2013         202202251801W006991              IVSSH 0.35F SB           CCN000017500000017500FN00000000020220501000017500NNM   20220122084930U5  1W    00000250000000452000000000032U5    ASAMSD  000000000000AM222020
BI00B32U5    DW2013         202202251801W006992              IVSSH 0.35F V            CCN000012500000012500FN00000000020220501000012500NNM   20220122084930U5  1W    00000250000000452000000000032U5    ASAMSD  000000000000AM222021
BI00B32U5    @DW2013        20220225181F21027ZZ              AVSSHCS-S 1.25FX2 B      CCN000008800000008800FN00000000020220501000008800NNM   20220122084928U5  1W    00000020000004267300000000032U5    ASAMSD  000000000000AM222009
BI00B32U5    DW2014         202203041801W004050              IVSSH 0.75F R            CCN000002600000002600FN00000000020220501000002600NNE   20220122091013U5  1W    00000130000000882000000000032U5    ASAMSD  000000000000AM322025
BI00B32W4    4500187047     20220208180D0203930              AVSSH 0.5F B             CCN000015000000015000FN00000000020220201000015000NNE20 20220122132053W41 1W    00000150000000689000000000032W41   HJYHK-J 000000000000ON122001
BI00B32W4    4500187047     20220208180D0203940              AVSSH 0.5F W             CCN000015000000015000FN00000000020220201000015000NNE20 20220122132053W41 1W    00000150000000689000000000032W41   HJYHK-J 000000000000ON122003
BI00B32W4    4500187047     20220208180D0203960              AVSSH 0.5F G             CCN000015000000015000FN00000000020220201000015000NNE20 20220122132053W41 1W    00000150000000689000000000032W41   HJYHK-J 000000000000ON122002
BI00B32W4    4500187047     20220208180D0203970              AVSSH 0.5F Y             CCN000015000000015000FN00000000020220201000015000NNE20 20220122132053W41 1W    00000150000000689000000000032W41   HJYHK-J 000000000000ON122004
BI00A32W4    @4500187707    20220328181B09037K5              CAVSAS 0.3X1 GY/BR       CCN000002500000002500FN00000000020220301000002500NNE   20220122111124W4N21W    00000050000001704000000000032W4N2  HJYHK-J 000000000000OK323001
BI00A32W4    @4500187779    20220324181D6910239              AVSSHCS 0.5FX2 B/L       CCN000001200000001200FN00000000020220301000001200NNE   20220122111126W4421W    00000030000002385000000000032W442  HJYHK-J 000000000000OH223001
BI00B32W4    @4500187786    20220329181B32037Y5              AVSSCS 0.3FX1 DGY/W      CCN000002000000002000FN00000000020220301000002000NNE   20220122111129W4171W    00000050000001780000000000032W417  HJYHK-J 000000000000OL323001
BI00B32W4    @4500187786    20220329181B32116S1              AVSSCS 0.3FX2 DGY        CCN000004550000004550FN00000000020220301000004550NNE   20220122111129W4171W    00000035000002276000000000032W417  HJYHK-J 000000000000OL323002
BI00B32W4    4500187787     2022030118018403780              CAVS 0.3 BR              CCN000002000000002000FN00000000020220301000002000NNE   20220122111849W41 1W    00000200000000471000000000032W41   HJYHK-J 000000000000OI322001
BI00B32W4    4500187787     2022030118018404141              CAVS 1.25 GY             CCN000000800000000800FN00000000020220301000000800NNE   20220122111849W41 1W    00000080000001378000000000032W41   HJYHK-J 000000000000OI322002
BI00B32W4    4500187880     2022031518007704260              AVSS 2F G                CCN000003500000003500FN00000000020220301000003500NNE   20220122111851W41 1W    00000050000002126400000000032W41   HJYHK-J 000000000000OC123003
BI00B32W4    4500187880     2022031518007704270              AVSS 2F Y                CCN000003500000003500FN00000000020220301000003500NNE   20220122111851W41 1W    00000050000002126400000000032W41   HJYHK-J 000000000000OC123005
BI00B32W4    4500187880     2022031518007704230              AVSS 2F B                CCN000003500000003500FN00000000020220301000003500NNE   20220122111851W41 1W    00000050000002126400000000032W41   HJYHK-J 000000000000OC123002
BI00B32W4    4500187880     2022031518007704250              AVSS 2F R                CCN000002000000002000FN00000000020220301000002000NNE   20220122111851W41 1W    00000050000002126400000000032W41   HJYHK-J 000000000000OC123004
BI00B32W4    4500187880     2022031518018403740              CAVS 0.3 W               CCN000044000000044000FN00000000020220301000044000NNE   20220122111851W41 1W    00000200000000471000000000032W41   HJYHK-J 000000000000OC123013
BI00B32W4    4500187880     2022031518018403730              CAVS 0.3 B               CCN000054000000054000FN00000000020220301000054000NNE   20220122111851W41 1W    00000200000000471000000000032W41   HJYHK-J 000000000000OC123006
BI00B32W4    4500187880     2022031518018403750              CAVS 0.3 R               CCN000020000000020000FN00000000020220301000020000NNE   20220122111851W41 1W    00000200000000471000000000032W41   HJYHK-J 000000000000OC123011
BI00B32W4    4500187880     2022031518018403752              CAVS 0.3 P               CCN000022000000022000FN00000000020220301000022000NNE   20220122111851W41 1W    00000200000000471000000000032W41   HJYHK-J 000000000000OC123010
BI00B32W4    4500187880     2022031518018403760              CAVS 0.3 G               CCN000072000000072000FN00000000020220301000072000NNE   20220122111851W41 1W    00000200000000471000000000032W41   HJYHK-J 000000000000OC123008
BI00B32W4    4500187880     2022031518018403770              CAVS 0.3 Y               CCN000018000000018000FN00000000020220301000018000NNE   20220122111851W41 1W    00000200000000471000000000032W41   HJYHK-J 000000000000OC123014
BI00B32W4    4500187880     2022031518018403780              CAVS 0.3 BR              CCN000054000000054000FN00000000020220301000054000NNE   20220122111851W41 1W    00000200000000471000000000032W41   HJYHK-J 000000000000OC123007
BI00B32W4    4500187880     2022031518018403790              CAVS 0.3 L               CCN000040000000040000FN00000000020220301000040000NNE   20220122111851W41 1W    00000200000000471000000000032W41   HJYHK-J 000000000000OC123009
BI00B32W4    4500187880     2022031518018403792              CAVS 0.3 V               CCN000010000000010000FN00000000020220301000010000NNE   20220122111851W41 1W    00000200000000471000000000032W41   HJYHK-J 000000000000OC123012
BI00B32W4    4500187880     2022031518018403930              CAVS 0.5 B               CCN000031500000031500FN00000000020220301000031500NNE   20220122111851W41 1W    00000150000000677000000000032W41   HJYHK-J 000000000000OC123015
BI00B32W4    4500187880     2022031518018403940              CAVS 0.5 W               CCN000004500000004500FN00000000020220301000004500NNE   20220122111851W41 1W    00000150000000677000000000032W41   HJYHK-J 000000000000OC123025
BI00B32W4    4500187880     2022031518018403941              CAVS 0.5 GY              CCN000033000000033000FN00000000020220301000033000NNE   20220122111851W41 1W    00000150000000677000000000032W41   HJYHK-J 000000000000OC123018
BI00B32W4    4500187880     2022031518018403950              CAVS 0.5 R               CCN000016500000016500FN00000000020220301000016500NNE   20220122111851W41 1W    00000150000000677000000000032W41   HJYHK-J 000000000000OC123023
BI00B32W4    4500187880     2022031518018403951              CAVS 0.5 O               CCN000055500000055500FN00000000020220301000055500NNE   20220122111851W41 1W    00000150000000677000000000032W41   HJYHK-J 000000000000OC123021
BI00B32W4    4500187880     2022031518018403952              CAVS 0.5 P               CCN000111000000111000FN00000000020220301000111000NNE   20220122111851W41 1W    00000150000000677000000000032W41   HJYHK-J 000000000000OC123022
BI00B32W4    4500187880     2022031518018403960              CAVS 0.5 G               CCN000018000000018000FN00000000020220301000018000NNE   20220122111851W41 1W    00000150000000677000000000032W41   HJYHK-J 000000000000OC123017
BI00B32W4    4500187880     2022031518018403961              CAVS 0.5 LG              CCN000013500000013500FN00000000020220301000013500NNE   20220122111851W41 1W    00000150000000677000000000032W41   HJYHK-J 000000000000OC123020
BI00B32W4    4500187880     2022031518018403970              CAVS 0.5 Y               CCN000064500000064500FN00000000020220301000064500NNE   20220122111851W41 1W    00000150000000677000000000032W41   HJYHK-J 000000000000OC123026
BI00B32W4    4500187880     2022031518018403980              CAVS 0.5 BR              CCN000007500000007500FN00000000020220301000007500NNE   20220122111851W41 1W    00000150000000677000000000032W41   HJYHK-J 000000000000OC123016
BI00B32W4    4500187880     2022031518018403990              CAVS 0.5 L               CCN000129000000129000FN00000000020220301000129000NNE   20220122111851W41 1W    00000150000000677000000000032W41   HJYHK-J 000000000000OC123019
BI00B32W4    4500187880     2022031518018403992              CAVS 0.5 V               CCN000010500000010500FN00000000020220301000010500NNE   20220122111851W41 1W    00000150000000677000000000032W41   HJYHK-J 000000000000OC123024
BI00B32W4    4500187880     2022031518018404030              CAVS 0.85 B              CCN000099000000099000FN00000000020220301000099000NNE   20220122111851W41 1W    00000100000000965000000000032W41   HJYHK-J 000000000000OC123027
BI00B32W4    4500187880     2022031518018404040              CAVS 0.85 W              CCN000078000000078000FN00000000020220301000078000NNE   20220122111851W41 1W    00000100000000965000000000032W41   HJYHK-J 000000000000OC123038
BI00B32W4    4500187880     2022031518018404041              CAVS 0.85 GY             CCN000153000000153000FN00000000020220301000153000NNE   20220122111851W41 1W    00000100000000965000000000032W41   HJYHK-J 000000000000OC123030
BI00B32W4    4500187880     2022031518018404050              CAVS 0.85 R              CCN000188000000188000FN00000000020220301000188000NNE   20220122111851W41 1W    00000100000000965000000000032W41   HJYHK-J 000000000000OC123035
BI00B32W4    4500187880     2022031518018404051              CAVS 0.85 O              CCN000064000000064000FN00000000020220301000064000NNE   20220122111851W41 1W    00000100000000965000000000032W41   HJYHK-J 000000000000OC123033
BI00B32W4    4500187880     2022031518018404052              CAVS 0.85 P              CCN000050000000050000FN00000000020220301000050000NNE   20220122111851W41 1W    00000100000000965000000000032W41   HJYHK-J 000000000000OC123034
BI00B32W4    4500187880     2022031518018404060              CAVS 0.85 G              CCN000088000000088000FN00000000020220301000088000NNE   20220122111851W41 1W    00000100000000965000000000032W41   HJYHK-J 000000000000OC123029
BI00B32W4    4500187880     2022031518018404061              CAVS 0.85 LG             CCN000008000000008000FN00000000020220301000008000NNE   20220122111851W41 1W    00000100000000965000000000032W41   HJYHK-J 000000000000OC123032
BI00B32W4    4500187880     2022031518018404070              CAVS 0.85 Y              CCN000115000000115000FN00000000020220301000115000NNE   20220122111851W41 1W    00000100000000965000000000032W41   HJYHK-J 000000000000OC123039
BI00B32W4    4500187880     2022031518018404080              CAVS 0.85 BR             CCN000064000000064000FN00000000020220301000064000NNE   20220122111851W41 1W    00000100000000965000000000032W41   HJYHK-J 000000000000OC123028
BI00B32W4    4500187880     2022031518018404090              CAVS 0.85 L              CCN000014000000014000FN00000000020220301000014000NNE   20220122111851W41 1W    00000100000000965000000000032W41   HJYHK-J 000000000000OC123031
BI00B32W4    4500187880     2022031518018404091              CAVS 0.85 SB             CCN000104000000104000FN00000000020220301000104000NNE   20220122111851W41 1W    00000100000000965000000000032W41   HJYHK-J 000000000000OC123036
BI00B32W4    4500187880     2022031518018404092              CAVS 0.85 V              CCN000035000000035000FN00000000020220301000035000NNE   20220122111851W41 1W    00000100000000965000000000032W41   HJYHK-J 000000000000OC123037
BI00B32W4    4500187880     2022031518018404140              CAVS 1.25 W              CCN000015200000015200FN00000000020220301000015200NNE   20220122111851W41 1W    00000080000001378000000000032W41   HJYHK-J 000000000000OC123046
BI00B32W4    4500187880     2022031518018404170              CAVS 1.25 Y              CCN000016800000016800FN00000000020220301000016800NNE   20220122111851W41 1W    00000080000001378000000000032W41   HJYHK-J 000000000000OC123047
BI00B32W4    4500187880     2022031518018404130              CAVS 1.25 B              CCN000007200000007200FN00000000020220301000007200NNE   20220122111851W41 1W    00000080000001378000000000032W41   HJYHK-J 000000000000OC123040
BI00B32W4    4500187880     2022031518018404141              CAVS 1.25 GY             CCN000003200000003200FN00000000020220301000003200NNE   20220122111851W41 1W    00000080000001378000000000032W41   HJYHK-J 000000000000OC123042
BI00B32W4    4500187880     2022031518018404152              CAVS 1.25 P              CCN000006400000006400FN00000000020220301000006400NNE   20220122111851W41 1W    00000080000001378000000000032W41   HJYHK-J 000000000000OC123043
BI00B32W4    4500187880     2022031518018404160              CAVS 1.25 G              CCN000008800000008800FN00000000020220301000008800NNE   20220122111851W41 1W    00000080000001378000000000032W41   HJYHK-J 000000000000OC123041
BI00B32W4    4500187880     2022031518018404150              CAVS 1.25 R              CCN000004800000004800FN00000000020220301000004800NNE   20220122111851W41 1W    00000080000001378000000000032W41   HJYHK-J 000000000000OC123044
BI00B32W4    4500187880     2022031518018404192              CAVS 1.25 V              CCN000005600000005600FN00000000020220301000005600NNE   20220122111851W41 1W    00000080000001378000000000032W41   HJYHK-J 000000000000OC123045
BI00B32W4    @4500187880    20220315181B32116Z6              AVSSCS 0.3FX2 DGY/V      CCN000000350000000350FN00000000020220301000000350NNE   20220122111843W41 1W    00000035000002276000000000032W41   HJYHK-J 000000000000OC123001
BI00B32W4    @4500187925    20220315181E50002ZZ              AVSSCS-S 0.3FX2 DGY/G    CCN000005250000005250FN00000000020220301000005250NNE   20220122113251W4591W    00000035000002165000000000032W459  HJYHK-J 000000000000OD123001
BI00B32W4    @4500187931    20220322181E50002ZZ              AVSSCS-S 0.3FX2 DGY/G    CCN000003150000003150FN00000000020220301000003150NNE   20220122113253W4591W    00000035000002165000000000032W459  HJYHK-J 000000000000OJ223001
BI00B32W4    4500187938     20220315180D0203930              AVSSH 0.5F B             CCN000022500000010500FN00000000020220301000010500NNE00 20220122132851W41 1W    00000150000000689000000000032W41   HJYHK-J 000000000000OE123001
BI00B32W4    4500187938     20220315180D0203940              AVSSH 0.5F W             CCN000022500000010500FN00000000020220301000010500NNE00 20220122132918W41 1W    00000150000000689000000000032W41   HJYHK-J 000000000000OE123003
BI00B32W4    4500187938     20220315180D0203960              AVSSH 0.5F G             CCN000022500000010500FN00000000020220301000010500NNE00 20220122132942W41 1W    00000150000000689000000000032W41   HJYHK-J 000000000000OE123002
BI00B32W4    4500187938     20220315180D0203970              AVSSH 0.5F Y             CCN000022500000010500FN00000000020220301000010500NNE00 20220122133005W41 1W    00000150000000689000000000032W41   HJYHK-J 000000000000OE123004
BI00B32W4    4500187945     2022031518018403791              CAVS 0.3 SB              CCN000020000000020000FN00000000020220301000020000NNE   20220122113259W41 1W    00000200000000471000000000032W41   HJYHK-J 000000000000OF123020
BI00B32W4    4500187945     2022031518018403740              CAVS 0.3 W               CCN000024000000024000FN00000000020220301000024000NNE   20220122113259W41 1W    00000200000000471000000000032W41   HJYHK-J 000000000000OF123022
BI00B32W4    4500187945     2022031518018403730              CAVS 0.3 B               CCN000088000000088000FN00000000020220301000088000NNE   20220122113259W41 1W    00000200000000471000000000032W41   HJYHK-J 000000000000OF123007
BI00B32W4    4500187945     2022031518018403750              CAVS 0.3 R               CCN000058000000058000FN00000000020220301000058000NNE   20220122113259W41 1W    00000200000000471000000000032W41   HJYHK-J 000000000000OF123018
BI00B32W4    4500187945     2022031518018403752              CAVS 0.3 P               CCN000026000000026000FN00000000020220301000026000NNE   20220122113259W41 1W    00000200000000471000000000032W41   HJYHK-J 000000000000OF123017
BI00B32W4    4500187945     2022031518018403760              CAVS 0.3 G               CCN000048000000048000FN00000000020220301000048000NNE   20220122113259W41 1W    00000200000000471000000000032W41   HJYHK-J 000000000000OF123011
BI00B32W4    4500187945     2022031518018403770              CAVS 0.3 Y               CCN000052000000052000FN00000000020220301000052000NNE   20220122113259W41 1W    00000200000000471000000000032W41   HJYHK-J 000000000000OF123024
BI00B32W4    4500187945     2022031518018403780              CAVS 0.3 BR              CCN000008000000008000FN00000000020220301000008000NNE   20220122113259W41 1W    00000200000000471000000000032W41   HJYHK-J 000000000000OF123010
BI00B32W4    4500187945     2022031518018403790              CAVS 0.3 L               CCN000054000000054000FN00000000020220301000054000NNE   20220122113259W41 1W    00000200000000471000000000032W41   HJYHK-J 000000000000OF123012
BI00B32W4    4500187945     2022031518018403792              CAVS 0.3 V               CCN000092000000092000FN00000000020220301000092000NNE   20220122113259W41 1W    00000200000000471000000000032W41   HJYHK-J 000000000000OF123021
BI00B32W4    4500187945     2022031518018403761              CAVS 0.3 LG              CCN000004000000004000FN00000000020220301000004000NNE   20220122113259W41 1W    00000200000000471000000000032W41   HJYHK-J 000000000000OF123015
BI00B32W4    4500187945     2022031518018403751              CAVS 0.3 O               CCN000024000000024000FN00000000020220301000024000NNE   20220122113259W41 1W    00000200000000471000000000032W41   HJYHK-J 000000000000OF123016
BI00B32W4    4500187945     2022031518018403737              CAVS 0.3 B/Y             CCN000004000000004000FN00000000020220301000004000NNE   20220122113259W41 1W    00000200000000471000000000032W41   HJYHK-J 000000000000OF123008
BI00B32W4    4500187945     2022031518018403757              CAVS 0.3 R/Y             CCN000004000000004000FN00000000020220301000004000NNE   20220122113259W41 1W    00000200000000471000000000032W41   HJYHK-J 000000000000OF123019
BI00B32W4    4500187945     2022031518018403793              CAVS 0.3 L/B             CCN000006000000006000FN00000000020220301000006000NNE   20220122113259W41 1W    00000200000000471000000000032W41   HJYHK-J 000000000000OF123013
BI00B32W4    4500187945     2022031518018403795              CAVS 0.3 L/R             CCN000008000000008000FN00000000020220301000008000NNE   20220122113259W41 1W    00000200000000471000000000032W41   HJYHK-J 000000000000OF123014
BI00B32W4    4500187945     2022031518018403749              CAVS 0.3 W/L             CCN000018000000018000FN00000000020220301000018000NNE   20220122113259W41 1W    00000200000000471000000000032W41   HJYHK-J 000000000000OF123023
BI00B32W4    4500187945     2022031518018403937              CAVS 0.5 B/Y             CCN000003000000003000FN00000000020220301000003000NNE   20220122113259W41 1W    00000150000000677000000000032W41   HJYHK-J 000000000000OF123026
BI00B32W4    4500187945     2022031518018403930              CAVS 0.5 B               CCN000102000000102000FN00000000020220301000102000NNE   20220122113259W41 1W    00000150000000677000000000032W41   HJYHK-J 000000000000OF123025
BI00B32W4    4500187945     2022031518018403940              CAVS 0.5 W               CCN000016500000016500FN00000000020220301000016500NNE   20220122113259W41 1W    00000150000000677000000000032W41   HJYHK-J 000000000000OF123036
BI00B32W4    4500187945     2022031518018403941              CAVS 0.5 GY              CCN000033000000033000FN00000000020220301000033000NNE   20220122113259W41 1W    00000150000000677000000000032W41   HJYHK-J 000000000000OF123028
BI00B32W4    4500187945     2022031518018403950              CAVS 0.5 R               CCN000048000000048000FN00000000020220301000048000NNE   20220122113259W41 1W    00000150000000677000000000032W41   HJYHK-J 000000000000OF123033
BI00B32W4    4500187945     2022031518018403951              CAVS 0.5 O               CCN000003000000003000FN00000000020220301000003000NNE   20220122113259W41 1W    00000150000000677000000000032W41   HJYHK-J 000000000000OF123031
BI00B32W4    4500187945     2022031518018403952              CAVS 0.5 P               CCN000012000000012000FN00000000020220301000012000NNE   20220122113259W41 1W    00000150000000677000000000032W41   HJYHK-J 000000000000OF123032
BI00B32W4    4500187945     2022031518018403960              CAVS 0.5 G               CCN000007500000007500FN00000000020220301000007500NNE   20220122113259W41 1W    00000150000000677000000000032W41   HJYHK-J 000000000000OF123027
BI00B32W4    4500187945     2022031518018403961              CAVS 0.5 LG              CCN000015000000015000FN00000000020220301000015000NNE   20220122113259W41 1W    00000150000000677000000000032W41   HJYHK-J 000000000000OF123030
BI00B32W4    4500187945     2022031518018403970              CAVS 0.5 Y               CCN000006000000006000FN00000000020220301000006000NNE   20220122113259W41 1W    00000150000000677000000000032W41   HJYHK-J 000000000000OF123037
BI00B32W4    4500187945     2022031518018403990              CAVS 0.5 L               CCN000007500000007500FN00000000020220301000007500NNE   20220122113259W41 1W    00000150000000677000000000032W41   HJYHK-J 000000000000OF123029
BI00B32W4    4500187945     2022031518018403991              CAVS 0.5 SB              CCN000025500000025500FN00000000020220301000025500NNE   20220122113259W41 1W    00000150000000677000000000032W41   HJYHK-J 000000000000OF123034
BI00B32W4    4500187945     2022031518018403992              CAVS 0.5 V               CCN000024000000024000FN00000000020220301000024000NNE   20220122113259W41 1W    00000150000000677000000000032W41   HJYHK-J 000000000000OF123035
BI00B32W4    4500187945     2022031518018404130              CAVS 1.25 B              CCN000011200000011200FN00000000020220301000011200NNE   20220122113259W41 1W    00000080000001378000000000032W41   HJYHK-J 000000000000OF123038
BI00B32W4    4500187945     2022031518018404141              CAVS 1.25 GY             CCN000008000000008000FN00000000020220301000008000NNE   20220122113259W41 1W    00000080000001378000000000032W41   HJYHK-J 000000000000OF123040
BI00B32W4    4500187945     2022031518018404160              CAVS 1.25 G              CCN000006400000006400FN00000000020220301000006400NNE   20220122113259W41 1W    00000080000001378000000000032W41   HJYHK-J 000000000000OF123039
BI00B32W4    4500187945     2022031518018404157              CAVS 1.25 R/Y            CCN000005600000005600FN00000000020220301000005600NNE   20220122113259W41 1W    00000080000001378000000000032W41   HJYHK-J 000000000000OF123042
BI00B32W4    4500187945     2022031518018404194              CAVS 1.25 L/W            CCN000005600000005600FN00000000020220301000005600NNE   20220122113259W41 1W    00000080000001378000000000032W41   HJYHK-J 000000000000OF123041
BI00B32W4    4500187945     202203151801R706940              CIVUS 0.35 W             CCN000006000000006000FN00000000020220301000006000NNE   20220122113259W41 1W    00000300000000386000000000032W41   HJYHK-J 000000000000OF123005
BI00B32W4    4500187945     202203151801R706930              CIVUS 0.35 B             CCN000015000000015000FN00000000020220301000015000NNE   20220122113259W41 1W    00000300000000386000000000032W41   HJYHK-J 000000000000OF123003
BI00B32W4    4500187945     202203151801R706970              CIVUS 0.35 Y             CCN000018000000018000FN00000000020220301000018000NNE   20220122113259W41 1W    00000300000000386000000000032W41   HJYHK-J 000000000000OF123006
BI00B32W4    4500187945     202203151801R706990              CIVUS 0.35 L             CCN000018000000018000FN00000000020220301000018000NNE   20220122113259W41 1W    00000300000000386000000000032W41   HJYHK-J 000000000000OF123004
BI00B32W4    4500187945     202203151801840375U              CAVS 0.3 BE              CCN000006000000006000FN00000000020220301000006000NNE   20220122113259W41 1W    00000200000000471000000000032W41   HJYHK-J 000000000000OF123009
BI00B32W4    @4500187945    20220315181B0911611              CAVSAS 0.3X2 GY/L        CCN000009800000009800FN00000000020220301000009800NNE   20220122113255W41 1W    00000035000002254000000000032W41   HJYHK-J 000000000000OF123001
BI00B32W4    @4500187945    20220315181B09116K2              CAVSAS 0.3X2 GY/V        CCN000009800000009800FN00000000020220301000009800NNE   20220122113255W41 1W    00000035000002254000000000032W41   HJYHK-J 000000000000OF123002
BI00B32W4    4500187970     2022030118018403941              CAVS 0.5 GY              CCN000001500000001500FN00000000020220301000001500NNE   20220122130911W41 1W    00000150000000677000000000032W41   HJYHK-J 000000000000ON322001
BI00B32W4    4500187971     2022031518018403940              CAVS 0.5 W               CCN000001500000001500FN00000000020220301000001500NNE   20220122130912W41 1W    00000150000000677000000000032W41   HJYHK-J 000000000000OX123002
BI00B32W4    4500187971     2022031518018403991              CAVS 0.5 SB              CCN000003000000003000FN00000000020220301000003000NNE   20220122130912W41 1W    00000150000000677000000000032W41   HJYHK-J 000000000000OX123001
BI00B32W4    4500187938     20220301180D0203930              AVSSH 0.5F B             CCN000012000000012000FN00000000020220301000012000NNE20 20220122132851W41 1W    00000150000000689000000000032W41   HJYHK-J 000000000000OE123001
BI00B32W4    4500187938     20220301180D0203940              AVSSH 0.5F W             CCN000012000000012000FN00000000020220301000012000NNE20 20220122132918W41 1W    00000150000000689000000000032W41   HJYHK-J 000000000000OE123003
BI00B32W4    4500187938     20220301180D0203960              AVSSH 0.5F G             CCN000012000000012000FN00000000020220301000012000NNE20 20220122132942W41 1W    00000150000000689000000000032W41   HJYHK-J 000000000000OE123002
BI00B32W4    4500187938     20220301180D0203970              AVSSH 0.5F Y             CCN000012000000012000FN00000000020220301000012000NNE20 20220122133005W41 1W    00000150000000689000000000032W41   HJYHK-J 000000000000OE123004
