BI00A1200    2399T51815     202112037289-5979-30             HOUSING FEMALE ASS'Y     PCN000014616000002772FN00000000020211001000002772NNM00020211127164659    1N0N  0000002520000085470000106471200    YCYC    005400370024
BI00A1200    2399T51816     202111307289-5979-30             HOUSING FEMALE ASS'Y     PCN000014616000005796FN00000000020211001000005796NNM00020211127164508    1N0N  0000002520000085470000106471200    YCYC    005400370024
BI00A1200    2399T51818     202112037289-5979-30             HOUSING FEMALE ASS'Y     PCN000014616000000504FN00000000020211101000000504NNM00020211127165028    1N0N  0000002520000085470000106471200    YCYC    005400370024
BI00A1200    #2399T51922    202111307289-4200-30             HOUSING FEMALE ASS'Y     PCN000042000000004000FN00000000020211101000004000NNMD0420211127163544    2N0N  0000020000000092600000102101200    YCYC    005400370024
BI00B1200    7360T51A01     202112027289-5979-30             HOUSING FEMALE ASS'Y     CCN000000252000000252FN00000000020211201000000252NNMD0720211127164631    1N0N  0000002520000085470000106471200    YCYC    005400370024
BI00A1200    2399T51816     202112017289-5979-30             HOUSING FEMALE ASS'Y     PCN000004032000004032FN00000000020211001000004032NNM00020211127164508    1N0N  0000002520000085470000106471200    YCYC    005400370024
BI00A1200    2399T51816     202112027289-5979-30             HOUSING FEMALE ASS'Y     PCN000004032000004032FN00000000020211001000004032NNM00020211127164517    1N0N  0000002520000085470000106471200    YCYC    005400370024
BI00A1200    2399T51816     202112037289-5979-30             HOUSING FEMALE ASS'Y     PCN000000756000000756FN00000000020211001000000756NNM00020211127164553    1N0N  0000002520000085470000106471200    YCYC    005400370024
BI00A1200    2399T51818     202112077289-5979-30             HOUSING FEMALE ASS'Y     PCN000014112000004032FN00000000020211101000004032NNM00020211127165119    1N0N  0000002520000085470000106471200    YCYC    005400370024
BI00A1200    2399T51818     202112087289-5979-30             HOUSING FEMALE ASS'Y     PCN000014032000004032FN00000000020211101000004032NNM00020211127165139    1N0N  0000002520000085470000106471200    YCYC    005400370024
BI00A1200    2399T51818     202112097289-5979-30             HOUSING FEMALE ASS'Y     PCN000006048000004032FN00000000020211101000004032NNM00020211127165234    1N0N  0000002520000085470000106471200    YCYC    005400370024
BI00A1200    2399T51818     202112137289-5979-30             HOUSING FEMALE ASS'Y     PCN000002016000002016FN00000000020211101000002016NNM00020211127165234    1N0N  0000002520000085470000106471200    YCYC    005400370024
BI00A32CJ    JQN1121        202112017288-6547                CONNECTOR MALE ASS'Y     PCN000003000000000750FN00000000020211201000000750NNM00020211127192816    4N0N  00000075000001205300001340332CJ    QNYHVQN 005400370024
BI00A32CJ    JQN1121        202112017289-3342-30             HOUSING FEMALE ASS'Y     PCN000033600000004800FN00000000020211201000004800NNM00020211127192828    1N0N  00000240000000686400000901432CJ    QNYHVQN 005500360039
BI00A32CJ    #JQN1123       202112017172-5629-80             RUBBER STOPPER           PCN000060000000060000FN00000000020211201000060000NNMM0020211127192720    2H0H  00002000000000060000000111132CJ    QNYHVQN 004300270014
BI00A32CJ    #JQN1123       202112087282-5528-70             HOUSING MALE ASS'Y       PCN000010000000010000FN00000000020211201000010000NNMM0020211127192720    2N0N  00000100000000230000000339032CJ    QNYHVQN 005400370024
BI00A32DG    #RL1122        202112177158-3007-10             RUBBER STOPPER           PCN000020000000020000FN00000000020211201000020000NNMM0020211127191715    2H0H  00002000000000308000000362732DG    BFSAIBF 002700430014
BI00A32DG    RP1122         202112227289-3342-30             HOUSING FEMALE ASS'Y     PCN000007200000007200FN00000000020211201000007200NNM00020211127191749    1N0N  00000240000000686400000901432DG    BFSAIBF 005500360039
BI00A32G2    SA21122 MW     202112207289-3342-30             HOUSING FEMALE ASS'Y     PCN000038400000038400FN00000000020211201000038400NNM00020211127192347    1N0N  00000240000000686400000901432G2    AISUAI  005500360039
BI00A32G7    JJ2112C MW     202112017289-3342-30             HOUSING FEMALE ASS'Y     PCN000007200000007200FN00000000020211201000007200NNE00020211127191323    1N0N  00000240000000686400000901432G7    JIJAI   005500360039
BI00A32H8    TY21121KMW     202112147288-6547                CONNECTOR MALE ASS'Y     PCN000003000000003000FN00000000020211201000003000NNMD0020211127192522    4N0N  00000075000001205300001340332H8    TYTYC   005400370024
BI00A32H8    TY21121KMW     202112147289-3342-30             HOUSING FEMALE ASS'Y     PCN000007200000007200FN00000000020211201000007200NNMD0020211127192552    1N0N  00000240000000686400000901432H8    TYTYC   005500360039
BI00A32M3    SM21122DMW     202112017172-5403-30             SEALED PACKING           PCN000064000000064000FN00000000020211201000064000NNM00020211127191931    1C0C  00000400000000653600000701732M3    SASAMI  004300270014
BI00A32M3    SM21123DMW     202112017172-5403-30             SEALED PACKING           PCN000064000000064000FN00000000020211201000064000NNM00020211127192016    1C0C  00000400000000653600000701732M3    SASAMI  004300270014
BI00A32M3    SM21122DMW     202112017289-3342-30             HOUSING FEMALE ASS'Y     PCN000021600000021600FN00000000020211201000021600NNM00020211127192036    1N0N  00000240000000686400000901432M3    SASAMI  005500360039
BI00A32M3    SM21123DMW     202112037289-3342-30             HOUSING FEMALE ASS'Y     PCN000021600000021600FN00000000020211201000021600NNM00020211127192059    1N0N  00000240000000686400000901432M3    SASAMI  005500360039
BI00A32M3    #SM21122DMW    202112017282-5528-70             HOUSING MALE ASS'Y       PCN000002000000002000FN00000000020211201000002000NNM00020211127191832    2N0N  00000100000000230000000339032M3    SASAMI  005400370024
BI00A32M3    #SM21123DMW    202112037282-5528-70             HOUSING MALE ASS'Y       PCN000002000000002000FN00000000020211201000002000NNMM0020211127191853    2N0N  00000100000000230000000339032M3    SASAMI  005400370024
BI00A32M4    #TL1121        202112137172-5629-80             RUBBER STOPPER           PCN000680000000680000FN00000000020211201000680000NNM00020211127191357    2H0H  00002000000000060000000111132M4    SISAI   004300270014
BI00B32M4    #TL1122        202111187172-5629-80             RUBBER STOPPER           CCN000280000000060000FY00006000020211201000000000NNMQ0020211127191511    2H0H  00002000000000060000000111132M4    SISAI   004300270014
BI00A32M4    TP1121         202112077289-3342-30             HOUSING FEMALE ASS'Y     PCN000064800000068400FN00000000020211201000068400NNM00020211127191547    1N0N  00000240000000686400000901432M4    SISAI   005500360039
BI00A32M4    TP1122         202112157289-3342-30             HOUSING FEMALE ASS'Y     PCN000026400000026400FN00000000020211201000026400NNM00020211127191612    1N0N  00000240000000686400000901432M4    SISAI   005500360039
BI00A32M4    #TL1122        202112137172-5629-80             RUBBER STOPPER           PCN000220000000220000FN00000000020211201000220000NNMM0020211127191511    2H0H  00002000000000060000000111132M4    SISAI   004300270014
BI00A32N3    NBT112E        202111307289-3342-30             HOUSING FEMALE ASS'Y     PCN000002400000002400FN00000000020211201000002400NNED0420211127192904    1N0N  00000240000000686400000901432N3    ABYIPL-B005500360039
BI00B32P8    #TAPI-1114     202111177289-4200-30             HOUSING FEMALE ASS'Y     CCN000006000000006000FN00000600020211101000000000NNM00020211127153458    2N0N  00000200000000926000001021032P8    YIYTM   005400370024
BI00A32P8    #TAPI-1122     202112077289-4200-30             HOUSING FEMALE ASS'Y     PCN000006000000006000FN00000000020211201000006000NNM00020211127153811    2N0N  00000200000000926000001021032P8    YIYTM   005400370024
BI00B32P8    #TAPI-1123     202111177289-4200-30             HOUSING FEMALE ASS'Y     CCN000008000000002000FN00000000020211201000002000NNMQ0020211127153940    2N0N  00000200000000926000001021032P8    YIYTM   005400370024
BI00A32P8    #TAPI-1123     202112137172-5630-40             RUBBER STOPPER           PCN000140000000140000FN00000000020211201000140000NNMM0020211127192951    2H0H  00002000000000044000000095132P8    YIYTM   004300270014
BI00A32P8    #TAPI-1123     202111307289-4200-30             HOUSING FEMALE ASS'Y     PCN000006000000006000FN00000000020211201000006000NNMM0020211127162050    2N0N  00000200000000926000001021032P8    YIYTM   005400370024
BI00A32X5    TIB1046        202111307388-2978-30             HOUSING MALE ASS'Y       CCN000026400000023040FN00000000020220101000023040NNM00020211127122909X5  1N0N  00000048000000742000001122032X5    EPYNA-E 005500360039
