BI00B32DE    TT201B         2021122318007703960              AVSS 0.5F G              CCN000010500000010500FN00000000020220101000010500NNE   20211127192353    1W    00000150000000674000000000032DE    TVYEV-TV000000000000VR11C029
BI00B32DE    TT201B         2021122318007703990              AVSS 0.5F L              CCN000001500000001500FN00000000020220101000001500NNE   20211127192353    1W    00000150000000674000000000032DE    TVYEV-TV000000000000VR11C030
BI00B32DE    TT201B         2021122318007703950              AVSS 0.5F R              CCN000006000000006000FN00000000020220101000006000NNE   20211127192353    1W    00000150000000674000000000032DE    TVYEV-TV000000000000VR11C031
BI00B32DE    TT201B         2021122318007703992              AVSS 0.5F V              CCN000003000000003000FN00000000020220101000003000NNE   20211127192353    1W    00000150000000674000000000032DE    TVYEV-TV000000000000VR11C032
BI00B32DE    TT201B         2021122318007703940              AVSS 0.5F W              CCN000007500000007500FN00000000020220101000007500NNE   20211127192353    1W    00000150000000674000000000032DE    TVYEV-TV000000000000VR11C033
BI00B32DE    TT201B         2021122318007703945              AVSS 0.5F W/R            CCN000003000000003000FN00000000020220101000003000NNE   20211127192353    1W    00000150000000674000000000032DE    TVYEV-TV000000000000VR11C034
BI00B32DE    TT201B         2021122318007703973              AVSS 0.5F Y/B            CCN000003000000003000FN00000000020220101000003000NNE   20211127192353    1W    00000150000000674000000000032DE    TVYEV-TV000000000000VR11C035
BI00B32DE    TT201B         2021122318007704180              AVSS 1.25F BR            CCN000005600000005600FN00000000020220101000005600NNE   20211127192353    1W    00000080000001389000000000032DE    TVYEV-TV000000000000VR11C036
BI00B32DE    TT201B         2021122318007704160              AVSS 1.25F G             CCN000005600000005600FN00000000020220101000005600NNE   20211127192353    1W    00000080000001389000000000032DE    TVYEV-TV000000000000VR11C037
BI00B32DE    TT201B         2021122318007704140              AVSS 1.25F W             CCN000009600000009600FN00000000020220101000009600NNE   20211127192353    1W    00000080000001389000000000032DE    TVYEV-TV000000000000VR11C038
BI00B32DE    TT201B         2021122318007704143              AVSS 1.25F W/B           CCN000003200000003200FN00000000020220101000003200NNE   20211127192353    1W    00000080000001389000000000032DE    TVYEV-TV000000000000VR11C039
BI00B32DE    TT201B         20211223180D0203937              AVSSH 0.5F B/Y           CCN000001500000001500FN00000000020220101000001500NNE   20211127192353    1W    00000150000000689000000000032DE    TVYEV-TV000000000000VR11C010
BI00B32DE    TT201B         20211223180D0203960              AVSSH 0.5F G             CCN000006000000006000FN00000000020220101000006000NNE   20211127192353    1W    00000150000000689000000000032DE    TVYEV-TV000000000000VR11C011
BI00B32DE    TT201B         20211223180D0203963              AVSSH 0.5F G/B           CCN000003000000003000FN00000000020220101000003000NNE   20211127192353    1W    00000150000000689000000000032DE    TVYEV-TV000000000000VR11C012
BI00B32DE    TT201B         20211223180D0203967              AVSSH 0.5F G/Y           CCN000003000000003000FN00000000020220101000003000NNE   20211127192353    1W    00000150000000689000000000032DE    TVYEV-TV000000000000VR11C013
BI00B32DE    TT201B         20211223180D0203941              AVSSH 0.5F GY            CCN000010500000010500FN00000000020220101000010500NNE   20211127192353    1W    00000150000000689000000000032DE    TVYEV-TV000000000000VR11C014
BI00B32DE    TT201B         20211223180D0203990              AVSSH 0.5F L             CCN000004500000004500FN00000000020220101000004500NNE   20211127192353    1W    00000150000000689000000000032DE    TVYEV-TV000000000000VR11C015
BI00B32DE    TT201B         20211223180D0203995              AVSSH 0.5F L/R           CCN000012000000012000FN00000000020220101000012000NNE   20211127192353    1W    00000150000000689000000000032DE    TVYEV-TV000000000000VR11C016
BI00B32DE    TT201B         20211223180D0203997              AVSSH 0.5F L/Y           CCN000003000000003000FN00000000020220101000003000NNE   20211127192353    1W    00000150000000689000000000032DE    TVYEV-TV000000000000VR11C017
BI00B32DE    TT201B         20211223180D0203961              AVSSH 0.5F LG            CCN000004500000004500FN00000000020220101000004500NNE   20211127192353    1W    00000150000000689000000000032DE    TVYEV-TV000000000000VR11C018
BI00B32DE    TT201B         20211223180D0203952              AVSSH 0.5F P             CCN000012000000012000FN00000000020220101000012000NNE   20211127192353    1W    00000150000000689000000000032DE    TVYEV-TV000000000000VR11C019
BI00B32DE    TT201B         20211223180D0203950              AVSSH 0.5F R             CCN000003000000003000FN00000000020220101000003000NNE   20211127192353    1W    00000150000000689000000000032DE    TVYEV-TV000000000000VR11C020
BI00B32DE    TT201B         20211223180D0203953              AVSSH 0.5F R/B           CCN000006000000006000FN00000000020220101000006000NNE   20211127192353    1W    00000150000000689000000000032DE    TVYEV-TV000000000000VR11C021
BI00B32DE    TT201B         20211223180D0203957              AVSSH 0.5F R/Y           CCN000003000000003000FN00000000020220101000003000NNE   20211127192353    1W    00000150000000689000000000032DE    TVYEV-TV000000000000VR11C022
BI00B32DE    TT201B         20211223180D0203949              AVSSH 0.5F W/L           CCN000009000000009000FN00000000020220101000009000NNE   20211127192353    1W    00000150000000689000000000032DE    TVYEV-TV000000000000VR11C023
BI00B32DE    TT201B         20211223180D0203945              AVSSH 0.5F W/R           CCN000004500000004500FN00000000020220101000004500NNE   20211127192353    1W    00000150000000689000000000032DE    TVYEV-TV000000000000VR11C024
BI00B32DE    TT201B         20211223180D0203973              AVSSH 0.5F Y/B           CCN000003000000003000FN00000000020220101000003000NNE   20211127192353    1W    00000150000000689000000000032DE    TVYEV-TV000000000000VR11C025
BI00B32DE    TT201B         20211223180D0204080              AVSSH 0.75F BR           CCN000002000000002000FN00000000020220101000002000NNE   20211127192353    1W    00000100000000968000000000032DE    TVYEV-TV000000000000VR11C026
BI00B32DE    TT201B         20211223180D0204059              AVSSH 0.75F R/L          CCN000003000000003000FN00000000020220101000003000NNE   20211127192353    1W    00000100000000968000000000032DE    TVYEV-TV000000000000VR11C027
BI00B32DE    TT201B         20211223180D0204149              AVSSH 1.25F W/L          CCN000006400000006400FN00000000020220101000006400NNE   20211127192353    1W    00000080000001458000000000032DE    TVYEV-TV000000000000VR11C028
BI00B32DE    @TT201B        20211223181E50003ZZ              AVSSCS-S 0.3FX2 DGY/BR   CCN000012250000012250FN00000000020220101000012250NNE   20211127192353    1W    00000035000001997000000000032DE    TVYEV-TV000000000000VR11C006
BI00B32DE    @TT201B        20211223181E50005ZZ              AVSSCS-S 0.5FX1 DGY/W    CCN000000800000000800FN00000000020220101000000800NNE   20211127192353    1W    00000040000001817000000000032DE    TVYEV-TV000000000000VR11C003
BI00B32DE    @TT201B        20211223181E50010ZZ              AVSSCS-S 0.5FX2 DGY/P    CCN000004200000004200FN00000000020220101000004200NNE   20211127192353    1W    00000030000002072000000000032DE    TVYEV-TV000000000000VR11C004
BI00B32DE    @TT201B        20211223181E50013ZZ              AVSSCS-S 0.5FX1 DGY/G    CCN000000400000000400FN00000000020220101000000400NNE   20211127192353    1W    00000040000001817000000000032DE    TVYEV-TV000000000000VR11C002
BI00B32DE    @TT201B        20211223181E50028ZZ              AVSSCS-S 0.5FX3 DGY      CCN000007500000007500FN00000000020220101000007500NNE   20211127192353    1W    00000025000003245000000000032DE    TVYEV-TV000000000000VR11C005
BI00B32DE    @TT201B        20211223181F21003ZZ              AVSSHCS-S 0.5FX1 B/W     CCN000006000000006000FN00000000020220101000006000NNE   20211127192353    1W    00000040000001847000000000032DE    TVYEV-TV000000000000VR11C008
BI00B32DE    @TT201B        20211223181F21004ZZ              AVSSHCS-S 0.5FX1 B/R     CCN000002400000002400FN00000000020220101000002400NNE   20211127192353    1W    00000040000001847000000000032DE    TVYEV-TV000000000000VR11C007
BI00B32DE    @TT201B        20211223181F21006ZZ              AVSSHCS-S 0.5FX1 B/Y     CCN000002400000002400FN00000000020220101000002400NNE   20211127192353    1W    00000040000001847000000000032DE    TVYEV-TV000000000000VR11C009
BI00B32H2    TAW1124        2021120318000004540              AV 8 W                   CCN000003000000000000FY00000000020211201000000000NNM10 20211127153913    1W    00000010000009148000000000032H2    HVYHV   000000000000UJ31B048
BI00B32H2    TAW1124        2021120318007704150              AVSS 1.25F R             CCN000002400000000000FY00000000020211201000000000NNM10 20211127153913    1W    00000080000001389000000000032H2    HVYHV   000000000000UJ31B050
BI00B32H2    TAW1124        2021120318007704140              AVSS 1.25F W             CCN000003200000000000FY00000000020211201000000000NNM10 20211127153913    1W    00000080000001389000000000032H2    HVYHV   000000000000UJ31B051
BI00B32H2    TAW1122        20220121180D0203930              AVSSH 0.5F B             CCN000001500000001500FN00000000020211201000001500NNM22 20211127161559    1W    00000150000000689000000000032H2    HVYHV   000000000000UJ11B031
BI00B32H2    TAW1122        20220121180D0203950              AVSSH 0.5F R             CCN000001500000001500FN00000000020211201000001500NNM22 20211127161559    1W    00000150000000689000000000032H2    HVYHV   000000000000UJ11B033
BI00B32H2    TAW1122        20211210180D0203943              AVSSH 0.5F W/B           CCN000001500000001500FN00000000020211201000001500NNM21 20211127161717    1W    00000150000000689000000000032H2    HVYHV   000000000000UJ11B034
BI00B32H2    TAW1123        20220128180D0203943              AVSSH 0.5F W/B           CCN000001500000001500FN00000000020211201000001500NNM20 20211127161806    1W    00000150000000689000000000032H2    HVYHV   000000000000UJ21B043
BI00B32H2    @TAW1123       20220107181B0911741              CAVSAS 0.3X3 GY          CCN000001000000001000FN00000000020211201000001000NNM21 20211127161923    1W    00000025000002875000000000032H2    HVYHV   000000000000UJ21B023
BI00B32H2    TAW112B        20220107180D0203930              AVSSH 0.5F B             CCN000001500000001500FN00000000020211201000001500NNE20 20211127162005    1W    00000150000000689000000000032H2    HVYHV   000000000000UB11B002
BI00B32H2    TAW112D        2022010718007704143              AVSS 1.25F W/B           CCN000000800000000800FN00000000020211201000000800NNE20 20211127162804    1W    00000080000001389000000000032H2    HVYHV   000000000000UD31B002
BI00B32H2    TAW2012        2022010718000004530              AV 8 B                   CCN000004500000004500FN00000000020220101000004500NNM20 20211127162614    1W    00000010000009148000000000032H2    HVYHV   000000000000UH51B054
BI00B32H2    TAW2011        2021121018000004540              AV 8 W                   CCN000004000000000000FY00000000020220101000000000NNM10 20211127153706    1W    00000010000009148000000000032H2    HVYHV   000000000000UH41B039
BI00B32H2    TAW2012        2021121718000004540              AV 8 W                   CCN000007300000000000FY00000000020220101000000000NNM10 20211127153549    1W    00000010000009148000000000032H2    HVYHV   000000000000UH51B055
BI00B32H2    TAW2013        2021122418000004540              AV 8 W                   CCN000008500000000000FY00000000020220101000000000NNM11 20211127154959    1W    00000010000009148000000000032H2    HVYHV   000000000000UH11C063
BI00B32H2    TAW2011        2021121018000004543              AV 8 W/B                 CCN000001300000000000FY00000000020220101000000000NNM10 20211127153706    1W    00000010000009148000000000032H2    HVYHV   000000000000UH41B040
BI00B32H2    TAW2012        2021121718000004543              AV 8 W/B                 CCN000002800000000000FY00000000020220101000000000NNM10 20211127153549    1W    00000010000009148000000000032H2    HVYHV   000000000000UH51B056
BI00B32H2    TAW2013        2021122418000004543              AV 8 W/B                 CCN000003000000000000FY00000000020220101000000000NNM11 20211127154959    1W    00000010000009148000000000032H2    HVYHV   000000000000UH11C064
BI00B32H2    TAW2011        20211224180D0203960              AVSSH 0.5F G             CCN000001500000001500FN00000000020220101000001500NNM20 20211127162305    1W    00000150000000689000000000032H2    HVYHV   000000000000UH41B038
BI00B32H2    @TAW2011       20220107181F21002ZZ              AVSSHCS-S 0.5FX1 B       CCN000002400000002400FN00000000020220101000002400NNM20 20211127162500    1W    00000040000001847000000000032H2    HVYHV   000000000000UH41B025
BI00B32H2    @TAW2013       20211224181E48015ZZ              CAVSAS-S 0.5X1 GY        CCN000003200000000000FY00000000020220101000000000NNM10 20211127153417    1W    00000040000001932600000000032H2    HVYHV   000000000000UH11C043
BI00B32H2    @TAW2012       20211217181AD2002ZZ              CIVUSAS-S 0.35X2 B       CCN000010800000000000FY00000000020220101000000000NNM10 20211127153508    1W    00000045000001714000000000032H2    HVYHV   000000000000UH51B033
BI00B32H2    @TAW2013       20220128181AD2002ZZ              CIVUSAS-S 0.35X2 B       CCN000019350000019350FN00000000020220101000019350NNM20 20211127162857    1W    00000045000001714000000000032H2    HVYHV   000000000000UH11C039
BI00B32H2    @TAW2011       20220107181AD2003ZZ              CIVUSAS-S 0.35X3 B       CCN000038500000038500FN00000000020220101000038500NNM20 20211127162500    1W    00000035000002209700000000032H2    HVYHV   000000000000UH41B019
BI00B32H2    @TAW201A       20211203181E50014ZZ              AVSSCS-S 0.5FX1 DGY/R    CCN000000800000000000FY00000000020220101000000000NNE10 20211127153238    1W    00000040000001817000000000032H2    HVYHV   000000000000UF31B002
BI00B32H2    @TAW201C       20220107181E50014ZZ              AVSSCS-S 0.5FX1 DGY/R    CCN000002400000002400FN00000000020220101000002400NNE20 20211127162721    1W    00000040000001817000000000032H2    HVYHV   000000000000UI51B001
BI00B32H2    TAW2024        2022012818000004530              AV 8 B                   CCN000005000000003400FN00000000020220201000003400NNM00 20211127152007    1W    00000010000009148000000000032H2    HVYHV   000000000000UH41C119
BI00B32H2    TAW2025        2022020418000004530              AV 8 B                   CCN000005000000003600FN00000000020220201000003600NNM00 20211127152603    1W    00000010000009148000000000032H2    HVYHV   000000000000UH41C149
BI00B32H2    @TAW2021       20220107181E48013ZZ              CAVSAS-S 0.3X3 GY        CCN000010000000001000FN00000000020220201000001000NNM00 20211127153136    1W    00000025000002685000000000032H2    HVYHV   000000000000UH31C025
BI00B32H2    @TAW2021       20220107181AD2004ZZ              CIVUSAS-S 0.35X4 B       CCN000084000000076800FN00000000020220201000076800NNM00 20211127153055    1W    00000030000002784000000000032H2    HVYHV   000000000000UH31C023
BI00B32H2    @TAW2023       20220121181AD2004ZZ              CIVUSAS-S 0.35X4 B       CCN000066000000063000FN00000000020220201000063000NNM00 20211127152904    1W    00000030000002784000000000032H2    HVYHV   000000000000UH41C076
BI00B32H2    @TAW2024       20220128181AD2004ZZ              CIVUSAS-S 0.35X4 B       CCN000066000000056100FN00000000020220201000056100NNM00 20211127152349    1W    00000030000002784000000000032H2    HVYHV   000000000000UH41C098
BI00B32H2    @TAW2025       20220204181AD2004ZZ              CIVUSAS-S 0.35X4 B       CCN000066000000054900FN00000000020220201000054900NNM00 20211127152656    1W    00000030000002784000000000032H2    HVYHV   000000000000UH41C124
BI00B32H2    TAW2024        2022012018000004530              AV 8 B                   CCN000001600000000000FY00000000020220201000000000NNM10 20211127152025    1W    00000010000009148000000000032H2    HVYHV   000000000000UH41C119
BI00B32H2    @TAW2024       20220120181AD2004ZZ              CIVUSAS-S 0.35X4 B       CCN000009900000000000FY00000000020220201000000000NNM10 20211127152400    1W    00000030000002784000000000032H2    HVYHV   000000000000UH41C098
BI00B32H2    TAW2025        2022012818000004530              AV 8 B                   CCN000001400000000000FY00000000020220201000000000NNM10 20211127152612    1W    00000010000009148000000000032H2    HVYHV   000000000000UH41C149
BI00B32H2    @TAW2025       20220128181AD2004ZZ              CIVUSAS-S 0.35X4 B       CCN000011100000000000FY00000000020220201000000000NNM10 20211127152707    1W    00000030000002784000000000032H2    HVYHV   000000000000UH41C124
BI00B32H2    @TAW2023       20220114181AD2004ZZ              CIVUSAS-S 0.35X4 B       CCN000003000000000000FY00000000020220201000000000NNM10 20211127152926    1W    00000030000002784000000000032H2    HVYHV   000000000000UH41C076
BI00B32H2    @TAW2021       20211224181AD2004ZZ              CIVUSAS-S 0.35X4 B       CCN000007200000000000FY00000000020220201000000000NNM10 20211127153103    1W    00000030000002784000000000032H2    HVYHV   000000000000UH31C023
BI00B32H2    @TAW2021       20211224181E48013ZZ              CAVSAS-S 0.3X3 GY        CCN000009000000000000FY00000000020220201000000000NNM10 20211127153143    1W    00000025000002685000000000032H2    HVYHV   000000000000UH31C025
BI00B32H8    @2112BIMW      20211203181B32039Y6              AVSSCS 0.5FX1 DGY/G      CCN000000400000000400FN00000000020211201000000400NNE20 20211127093400    1W    00000040000002262000000000032H8    TYTYC   000000000000LD41B007
BI00B32M1    TV112B         20211223180D0204095              AVSSH 0.75F L/R          CCN000001000000001000FN00000000020211201000001000NNE   20211127191518    1W    00000100000000968000000000032M1    VNYEV   000000000000VD11C007
BI00B32M1    TV112B         20211223180D0204043              AVSSH 0.75F W/B          CCN000001000000001000FN00000000020211201000001000NNE   20211127191518    1W    00000100000000968000000000032M1    VNYEV   000000000000VD11C008
BI00B32M1    @TV112B        20211223181D69009ZZ              AVSSHCS 1.25FX2 B/P      CCN000000200000000200FN00000000020211201000000200NNE   20211127191517    1W    00000020000004432000000000032M1    VNYEV   000000000000VD11C005
BI00B32M1    @TV112B        20211223181E48049ZZ              CAVSAS-S 0.3X2 GY/L      CCN000000350000000350FN00000000020211201000000350NNE   20211127191517    1W    00000035000001998600000000032M1    VNYEV   000000000000VD11C006
BI00B32Q8    EW21112 MW     2021120118000004540              AV 8 W                   CCN000007300000004500FN00000000020211101000004500NNM28 20211127135301    1W    00000010000009148000000000032Q8    EMEMI   000000000000MI21B018
BI00B32Q8    EW21111 MW     2021102018007703730              AVSS 0.3F B              CCN000124000000030000FY00003000020211101000000000NNM00 20211127133017    1W    00000200000000496000000000032Q8    EMEMI   000000000000MI11B038
BI00B32Q8    EW21111 MW     2021102018007703780              AVSS 0.3F BR             CCN000078000000060000FY00006000020211101000000000NNM00 20211127133131    1W    00000200000000496000000000032Q8    EMEMI   000000000000MI11B039
BI00B32Q8    EW21111 MW     2021120818007703760              AVSS 0.3F G              CCN000072000000072000FN00000000020211101000072000NNM28 20211127133157    1W    00000200000000496000000000032Q8    EMEMI   000000000000MI11B040
BI00B32Q8    EW21113 MW     2021111018007703760              AVSS 0.3F G              CCN000042000000034000FY00003400020211101000000000NNM28 20211127135535    1W    00000200000000496000000000032Q8    EMEMI   000000000000MI31B026
BI00B32Q8    EW21111 MW     2021102018007703790              AVSS 0.3F L              CCN000128000000090000FY00009000020211101000000000NNM00 20211127133221    1W    00000200000000496000000000032Q8    EMEMI   000000000000MI11B042
BI00B32Q8    EW21111 MW     2021102018007703761              AVSS 0.3F LG             CCN000082000000080000FY00008000020211101000000000NNM00 20211127133254    1W    00000200000000496000000000032Q8    EMEMI   000000000000MI11B043
BI00B32Q8    EW21112 MW     2021102018007703761              AVSS 0.3F LG             CCN000072000000000000FY00000000020211101000000000NNM10 20211127134604    1W    00000200000000496000000000032Q8    EMEMI   000000000000MI21B021
BI00B32Q8    EW21111 MW     2021102018007703752              AVSS 0.3F P              CCN000060000000050000FY00005000020211101000000000NNM00 20211127133322    1W    00000200000000496000000000032Q8    EMEMI   000000000000MI11B044
BI00B32Q8    EW21112 MW     2021120818007703752              AVSS 0.3F P              CCN000030000000030000FN00000000020211101000030000NNM27 20211127135049    1W    00000200000000496000000000032Q8    EMEMI   000000000000MI21B022
BI00B32Q8    EW21111 MW     2021102018007703750              AVSS 0.3F R              CCN000092000000084000FY00008400020211101000000000NNM00 20211127133351    1W    00000200000000496000000000032Q8    EMEMI   000000000000MI11B045
BI00B32Q8    EW21111 MW     2021102018007703792              AVSS 0.3F V              CCN000184000000178000FY00017800020211101000000000NNM00 20211127133418    1W    00000200000000496000000000032Q8    EMEMI   000000000000MI11B046
BI00B32Q8    EW21111 MW     2021102018007703740              AVSS 0.3F W              CCN000052000000048000FY00004800020211101000000000NNM00 20211127133450    1W    00000200000000496000000000032Q8    EMEMI   000000000000MI11B047
BI00B32Q8    EW21111 MW     2021102018007703770              AVSS 0.3F Y              CCN000132000000090000FY00009000020211101000000000NNM00 20211127133524    1W    00000200000000496000000000032Q8    EMEMI   000000000000MI11B048
BI00B32Q8    EW21113 MW     20211208180D0203952              AVSSH 0.5F P             CCN000018000000009000FN00000000020211101000009000NNM27 20211127135502    1W    00000150000000689000000000032Q8    EMEMI   000000000000MI31B010
BI00B32Q8    EW21112 MW     20211020180D0204130              AVSSH 1.25F B            CCN000018400000004000FY00000400020211101000000000NNM00 20211127134645    1W    00000080000001458000000000032Q8    EMEMI   000000000000MI21B012
BI00B32Q8    EW21112 MW     20211020180D0204150              AVSSH 1.25F R            CCN000034400000018400FY00001840020211101000000000NNM00 20211127134722    1W    00000080000001458000000000032Q8    EMEMI   000000000000MI21B015
BI00B32Q8    EW21113 MW     20211208180D0204140              AVSSH 1.25F W            CCN000039200000039200FN00000000020211101000039200NNM27 20211127135502    1W    00000080000001458000000000032Q8    EMEMI   000000000000MI31B022
BI00B32Q8    EW21111TMW     20211020180D0204192              AVSSH 1.25F V            CCN000004000000001600FY00000160020211101000000000NNM00 20211127132149    1W    00000080000001458000000000032Q8    EMEMI   000000000000MT11B029
BI00B32Q8    EW21111TMW     202110201801W006961              IVSSH 0.35F LG           CCN000415000000395000FY00039500020211101000000000NNM00 20211127132010    1W    00000250000000452000000000032Q8    EMEMI   000000000000MT11B063
BI00B32Q8    EW21111TMW     202110201801W006970              IVSSH 0.35F Y            CCN000137500000135000FY00013500020211101000000000NNM00 20211127132053    1W    00000250000000452000000000032Q8    EMEMI   000000000000MT11B070
BI00B32Q8    EW21111TMW     202112081801W003980              IVSSH 0.5F BR            CCN000016200000016200FN00000000020211101000016200NNM23 20211127131724    1W    00000180000000625000000000032Q8    EMEMI   000000000000MT11B035
BI00B32Q8    EW21111TMW     202110201801W003960              IVSSH 0.5F G             CCN000237600000221400FY00022140020211101000000000NNM00 20211127131757    1W    00000180000000625000000000032Q8    EMEMI   000000000000MT11B036
BI00B32Q8    EW21111TMW     202110201801W003990              IVSSH 0.5F L             CCN000325800000244800FY00024480020211101000000000NNM00 20211127131832    1W    00000180000000625000000000032Q8    EMEMI   000000000000MT11B038
BI00B32Q8    EW21111TMW     202110201801W003970              IVSSH 0.5F Y             CCN000079200000019800FY00001980020211101000000000NNM00 20211127131907    1W    00000180000000625000000000032Q8    EMEMI   000000000000MT11B046
BI00B32Q8    EW21124 MW     2021120818007703990              AVSS 0.5F L              CCN000025500000025500FN00000000020211201000025500NNM27 20211127135832    1W    00000150000000674000000000032Q8    EMEMI   000000000000MV41A038
BI00B32Q8    EW21124 MW     20211201180D0204190              AVSSH 1.25F L            CCN000078400000000800FY00000080020211201000000000NNM22 20211127112550    1W    00000080000001458000000000032Q8    EMEMI   000000000000MV41A020
BI00B32Q8    EW21121NMW     2021120818007703791              AVSS 0.3F SB             CCN000098000000098000FN00000000020211201000098000NNM20 20211127135705    1W    00000200000000496000000000032Q8    EMEMI   000000000000MY11A001
BI00B32Q8    EW21121TMW     20211208180D0203741              AVSSH 0.3F GY            CCN000014000000014000FN00000000020211201000014000NNM23 20211127132649    1W    00000200000000515000000000032Q8    EMEMI   000000000000MU11A021
BI00B32Q8    EW21121TMW     202110201801W003992              IVSSH 0.5F V             CCN000025200000001800FY00000180020211201000000000NNM00 20211127132819    1W    00000180000000625000000000032Q8    EMEMI   000000000000MU11A035
BI00A32Q8    EW21121TMW     202111291801W004060              IVSSH 0.75F G            PCN000005200000005200FN00000000020211201000005200NNM22 20211127110033    1W    00000130000000882000000000032Q8    EMEMI   000000000000MU11A041
BI00B32Q8    EW2112A MW     2021120818007704180              AVSS 1.25F BR            CCN000020800000020800FN00000000020211201000020800NNE20 20211127112150    1W    00000080000001389000000000032Q8    EMEMI   000000000000MC31B015
BI00B32Q8    EW2112A MW     2021120118007704190              AVSS 1.25F L             CCN000006400000006400FN00000000020211201000006400NNE20 20211127112150    1W    00000080000001389000000000032Q8    EMEMI   000000000000MC31B017
BI00B32Q8    EW2112A MW     2021120818007704152              AVSS 1.25F P             CCN000008000000008000FN00000000020211201000008000NNE20 20211127112150    1W    00000080000001389000000000032Q8    EMEMI   000000000000MC31B018
BI00B32Q8    EW2112A MW     2021120118007704150              AVSS 1.25F R             CCN000008800000005600FN00000000020211201000005600NNE00 20211127113407    1W    00000080000001389000000000032Q8    EMEMI   000000000000MC31B019
BI00B32Q8    EW2112A MW     2021120118007704140              AVSS 1.25F W             CCN000068000000020000FN00000000020211201000020000NNE00 20211127113826    1W    00000080000001389000000000032Q8    EMEMI   000000000000MC31B020
BI00B32Q8    EW2112A MW     20211208180D0204180              AVSSH 1.25F BR           CCN000033600000033600FN00000000020211201000033600NNE20 20211127112150    1W    00000080000001458000000000032Q8    EMEMI   000000000000MC31B008
BI00B32Q8    EW2112A MW     20211208180D0204190              AVSSH 1.25F L            CCN000058400000058400FN00000000020211201000058400NNE20 20211127112150    1W    00000080000001458000000000032Q8    EMEMI   000000000000MC31B009
BI00B32Q8    EW2112A MW     20211208180D0204150              AVSSH 1.25F R            CCN000063200000063200FN00000000020211201000063200NNE20 20211127112150    1W    00000080000001458000000000032Q8    EMEMI   000000000000MC31B010
BI00B32Q8    EW21112 MW     2021100818000004540              AV 8 W                   CCN000004500000002800FY00000280020211101000000000NNM21 20211127134855    1W    00000010000009148000000000032Q8    EMEMI   000000000000MI21B018
BI00B32Q8    EW21112 MW     2021120818007703761              AVSS 0.3F LG             CCN000072000000072000FN00000000020211101000072000NNM27 20211127134604    1W    00000200000000496000000000032Q8    EMEMI   000000000000MI21B021
BI00B32Q8    EW22012 MW     2021120818007704180              AVSS 1.25F BR            CCN000048000000048000FN00000000020220101000048000NNM20 20211127112457    1W    00000080000001389000000000032Q8    EMEMI   000000000000MV31B016
BI00B32Q8    EW22012 MW     2021120818007704160              AVSS 1.25F G             CCN000077600000077600FN00000000020220101000077600NNM20 20211127112457    1W    00000080000001389000000000032Q8    EMEMI   000000000000MV31B017
BI00B32Q8    EW22012 MW     2021120118007704190              AVSS 1.25F L             CCN000076800000017600FN00000000020220101000017600NNM00 20211127113552    1W    00000080000001389000000000032Q8    EMEMI   000000000000MV31B018
BI00B32Q8    EW22012 MW     2021120818007704150              AVSS 1.25F R             CCN000075200000075200FN00000000020220101000075200NNM20 20211127112457    1W    00000080000001389000000000032Q8    EMEMI   000000000000MV31B020
BI00B32Q8    EW22012 MW     2021120118007704140              AVSS 1.25F W             CCN000176800000176800FN00000000020220101000176800NNM20 20211127112457    1W    00000080000001389000000000032Q8    EMEMI   000000000000MV31B021
BI00B32Q8    EW22011 MW     20211124180D0204160              AVSSH 1.25F G            CCN000258400000020800FY00002080020220101000000000NNM00 20211127111713    1W    00000080000001458000000000032Q8    EMEMI   000000000000MV21B004
BI00B32Q8    EW22012 MW     20211208180D0204160              AVSSH 1.25F G            CCN000196000000196000FN00000000020220101000196000NNM20 20211127112457    1W    00000080000001458000000000032Q8    EMEMI   000000000000MV31B008
BI00B32Q8    EW22012 MW     20211208180D0204190              AVSSH 1.25F L            CCN000085600000085600FN00000000020220101000085600NNM20 20211127112457    1W    00000080000001458000000000032Q8    EMEMI   000000000000MV31B009
BI00B32Q8    EW22012 MW     20211201180D0204150              AVSSH 1.25F R            CCN000088800000088800FN00000000020220101000088800NNM20 20211127112457    1W    00000080000001458000000000032Q8    EMEMI   000000000000MV31B010
BI00B32Q8    EW22012TMW     20211208180D0204143              AVSSH 1.25F W/B          CCN000057600000057600FN00000000020220101000057600NNM20 20211127112246    1W    00000080000001458000000000032Q8    EMEMI   000000000000MU31B017
BI00B32Q8    EW22011 MW     20211201180D0204160              AVSSH 1.25F G            CCN000237600000017600FY00001760020220101000000000NNM20 20211127111840    1W    00000080000001458000000000032Q8    EMEMI   000000000000MV21B004
BI00B32Q8    EW22011 MW     20211208180D0204160              AVSSH 1.25F G            CCN000220000000220000FN00000000020220101000220000NNM21 20211127111825    1W    00000080000001458000000000032Q8    EMEMI   000000000000MV21B004
BI00B32Q8    EW21124 MW     20211208180D0204190              AVSSH 1.25F L            CCN000077600000077600FN00000000020211201000077600NNM23 20211127112550    1W    00000080000001458000000000032Q8    EMEMI   000000000000MV41A020
BI00B32Q8    EW2112A MW     2021120818007704150              AVSS 1.25F R             CCN000003200000003200FN00000000020211201000003200NNE20 20211127113407    1W    00000080000001389000000000032Q8    EMEMI   000000000000MC31B019
BI00B32Q8    EW22012 MW     2021120818007704190              AVSS 1.25F L             CCN000059200000059200FN00000000020220101000059200NNM20 20211127113552    1W    00000080000001389000000000032Q8    EMEMI   000000000000MV31B018
BI00B32Q8    EW2112A MW     2021120818007704140              AVSS 1.25F W             CCN000048000000048000FN00000000020211201000048000NNE20 20211127113826    1W    00000080000001389000000000032Q8    EMEMI   000000000000MC31B020
BI00B32Q8    EW21111TMW     202112081801W003960              IVSSH 0.5F G             CCN000016200000016200FN00000000020211101000016200NNM23 20211127131757    1W    00000180000000625000000000032Q8    EMEMI   000000000000MT11B036
BI00B32Q8    EW21111TMW     202112081801W003990              IVSSH 0.5F L             CCN000081000000081000FN00000000020211101000081000NNM23 20211127131832    1W    00000180000000625000000000032Q8    EMEMI   000000000000MT11B038
BI00B32Q8    EW21111TMW     202112081801W003970              IVSSH 0.5F Y             CCN000059400000059400FN00000000020211101000059400NNM23 20211127131907    1W    00000180000000625000000000032Q8    EMEMI   000000000000MT11B046
BI00B32Q8    EW21111TMW     202112081801W006961              IVSSH 0.35F LG           CCN000020000000020000FN00000000020211101000020000NNM23 20211127132053    1W    00000250000000452000000000032Q8    EMEMI   000000000000MT11B063
BI00B32Q8    EW21111TMW     202112081801W006970              IVSSH 0.35F Y            CCN000002500000002500FN00000000020211101000002500NNM23 20211127132053    1W    00000250000000452000000000032Q8    EMEMI   000000000000MT11B070
BI00B32Q8    EW21111TMW     20211208180D0204192              AVSSH 1.25F V            CCN000002400000002400FN00000000020211101000002400NNM23 20211127132149    1W    00000080000001458000000000032Q8    EMEMI   000000000000MT11B029
BI00B32Q8    EW21121TMW     202112081801W003992              IVSSH 0.5F V             CCN000023400000023400FN00000000020211201000023400NNM23 20211127132819    1W    00000180000000625000000000032Q8    EMEMI   000000000000MU11A035
BI00B32Q8    EW21111 MW     2021120818007703730              AVSS 0.3F B              CCN000094000000094000FN00000000020211101000094000NNM28 20211127133131    1W    00000200000000496000000000032Q8    EMEMI   000000000000MI11B038
BI00B32Q8    EW21111 MW     2021120818007703780              AVSS 0.3F BR             CCN000018000000018000FN00000000020211101000018000NNM28 20211127133131    1W    00000200000000496000000000032Q8    EMEMI   000000000000MI11B039
BI00B32Q8    EW21111 MW     2021120818007703790              AVSS 0.3F L              CCN000038000000038000FN00000000020211101000038000NNM28 20211127133221    1W    00000200000000496000000000032Q8    EMEMI   000000000000MI11B042
BI00B32Q8    EW21111 MW     2021120818007703761              AVSS 0.3F LG             CCN000002000000002000FN00000000020211101000002000NNM28 20211127133254    1W    00000200000000496000000000032Q8    EMEMI   000000000000MI11B043
BI00B32Q8    EW21111 MW     2021120818007703752              AVSS 0.3F P              CCN000010000000010000FN00000000020211101000010000NNM28 20211127133322    1W    00000200000000496000000000032Q8    EMEMI   000000000000MI11B044
BI00B32Q8    EW21111 MW     2021120818007703750              AVSS 0.3F R              CCN000008000000008000FN00000000020211101000008000NNM28 20211127133351    1W    00000200000000496000000000032Q8    EMEMI   000000000000MI11B045
BI00B32Q8    EW21111 MW     2021120818007703792              AVSS 0.3F V              CCN000006000000006000FN00000000020211101000006000NNM28 20211127133418    1W    00000200000000496000000000032Q8    EMEMI   000000000000MI11B046
BI00B32Q8    EW21111 MW     2021120818007703740              AVSS 0.3F W              CCN000004000000004000FN00000000020211101000004000NNM28 20211127133450    1W    00000200000000496000000000032Q8    EMEMI   000000000000MI11B047
BI00B32Q8    EW21111 MW     2021120818007703770              AVSS 0.3F Y              CCN000042000000042000FN00000000020211101000042000NNM28 20211127133524    1W    00000200000000496000000000032Q8    EMEMI   000000000000MI11B048
BI00B32Q8    EW21112 MW     20211208180D0204130              AVSSH 1.25F B            CCN000014400000014400FN00000000020211101000014400NNM27 20211127134645    1W    00000080000001458000000000032Q8    EMEMI   000000000000MI21B012
BI00B32Q8    EW21112 MW     20211208180D0204150              AVSSH 1.25F R            CCN000016000000016000FN00000000020211101000016000NNM27 20211127134722    1W    00000080000001458000000000032Q8    EMEMI   000000000000MI21B015
BI00B32Q8    EW21112 MW     2021120118000004540              AV 8 W                   CCN000001700000000000FY00000000020211101000000000NNM10 20211127135301    1W    00000010000009148000000000032Q8    EMEMI   000000000000MI21B018
BI00B32Q8    EW21113 MW     2021120818007703760              AVSS 0.3F G              CCN000004000000004000FN00000000020211101000004000NNM27 20211127135535    1W    00000200000000496000000000032Q8    EMEMI   000000000000MI31B026
BI00B32R8    TT2112AAMW     20211214180D0204090              AVSSH 0.75F L            CCN000001000000001000FN00000000020211201000001000NNE   20211127185317    1W    00000100000000968000000000032R8    TTTJY   000000000000NX51B001
BI00B32R8    TT2112AAMW     20211214180D0204135              AVSSH 1.25F B/R          CCN000000800000000800FN00000000020211201000000800NNE   20211127185317    1W    00000080000001458000000000032R8    TTTJY   000000000000NX51B002
BI00B32R8    TT2112AAMW     20211214180D0204170              AVSSH 1.25F Y            CCN000000800000000800FN00000000020211201000000800NNE   20211127185317    1W    00000080000001458000000000032R8    TTTJY   000000000000NX51B003
BI00B32R8    TT22031AMW     20220111180D0203980              AVSSH 0.5F BR            CCN000003000000003000FN00000000020220301000003000NNM   20211127185321    1W    00000150000000689000000000032R8    TTTJY   000000000000NZ41C001
BI00B32R8    TT22031AMW     20220111180D0203993              AVSSH 0.5F L/B           CCN000001500000001500FN00000000020220301000001500NNM   20211127185321    1W    00000150000000689000000000032R8    TTTJY   000000000000NZ41C002
BI00B32R8    TT22031AMW     20220111180D0203950              AVSSH 0.5F R             CCN000001500000001500FN00000000020220301000001500NNM   20211127185321    1W    00000150000000689000000000032R8    TTTJY   000000000000NZ41C003
BI00B32R8    TT22031AMW     20220111180D0203953              AVSSH 0.5F R/B           CCN000001500000001500FN00000000020220301000001500NNM   20211127185321    1W    00000150000000689000000000032R8    TTTJY   000000000000NZ41C004
BI00B32R8    TT22031AMW     20220111180D0203943              AVSSH 0.5F W/B           CCN000003000000003000FN00000000020220301000003000NNM   20211127185321    1W    00000150000000689000000000032R8    TTTJY   000000000000NZ41C005
BI00B32R8    TT22031AMW     20220111180D0203946              AVSSH 0.5F W/G           CCN000001500000001500FN00000000020220301000001500NNM   20211127185321    1W    00000150000000689000000000032R8    TTTJY   000000000000NZ41C006
BI00B32R8    TT22031AMW     20220111180D0203945              AVSSH 0.5F W/R           CCN000001500000001500FN00000000020220301000001500NNM   20211127185321    1W    00000150000000689000000000032R8    TTTJY   000000000000NZ41C007
BI00B32R8    TT22031AMW     20220111180D0203973              AVSSH 0.5F Y/B           CCN000001500000001500FN00000000020220301000001500NNM   20211127185321    1W    00000150000000689000000000032R8    TTTJY   000000000000NZ41C008
BI00B32R8    TT22031AMW     20220111180D0204143              AVSSH 1.25F W/B          CCN000000800000000800FN00000000020220301000000800NNM   20211127185321    1W    00000080000001458000000000032R8    TTTJY   000000000000NZ41C009
BI00A32W4    @4500183102    20220106181D6910239              AVSSHCS 0.5FX2 B/L       CCN000001200000001200FN00000000020220101000001200NNE   20211127194401W4421W    00000030000002792600000000032W442  HJYHK-J 000000000000OM31C001
BI00B32W4    @4500183341    20211221181E50002ZZ              AVSSCS-S 0.3FX2 DGY/G    CCN000009800000009800FN00000000020211201000009800NNE   20211127194322W4591W    00000035000001997000000000032W459  HJYHK-J 000000000000OH11C001
BI00A32W4    @4500183387    20211221181D6910239              AVSSHCS 0.5FX2 B/L       CCN000035100000035100FN00000000020211201000035100NNE   20211127194323W4A21W    00000030000002792600000000032W4A2  HJYHK-J 000000000000OI11C001
BI00B32W4    4500183388     2021121418007704230              AVSS 2F B                CCN000002500000002500FN00000000020211201000002500NNE   20211127194356W41 1W    00000050000002126400000000032W41   HJYHK-J 000000000000ON51B001
BI00B32W4    4500183388     2021121418007704250              AVSS 2F R                CCN000002000000002000FN00000000020211201000002000NNE   20211127194356W41 1W    00000050000002126400000000032W41   HJYHK-J 000000000000ON51B002
BI00B32W4    4500183388     2021121418018404140              CAVS 1.25 W              CCN000003200000003200FN00000000020211201000003200NNE   20211127194356W41 1W    00000080000001378000000000032W41   HJYHK-J 000000000000ON51B006
BI00B32W4    4500183388     2021121418018404170              CAVS 1.25 Y              CCN000006400000006400FN00000000020211201000006400NNE   20211127194356W41 1W    00000080000001378000000000032W41   HJYHK-J 000000000000ON51B007
BI00B32W4    4500183388     2021121418018404152              CAVS 1.25 P              CCN000003200000003200FN00000000020211201000003200NNE   20211127194356W41 1W    00000080000001378000000000032W41   HJYHK-J 000000000000ON51B004
BI00B32W4    4500183388     2021121418018404160              CAVS 1.25 G              CCN000003200000003200FN00000000020211201000003200NNE   20211127194356W41 1W    00000080000001378000000000032W41   HJYHK-J 000000000000ON51B003
BI00B32W4    4500183388     2021121418018404192              CAVS 1.25 V              CCN000002400000002400FN00000000020211201000002400NNE   20211127194356W41 1W    00000080000001378000000000032W41   HJYHK-J 000000000000ON51B005
BI00B32W4    4500183479     2021122818018403940              CAVS 0.5 W               CCN000001500000001500FN00000000020211201000001500NNE   20211127194357W41 1W    00000150000000677000000000032W41   HJYHK-J 000000000000OC21C007
BI00B32W4    4500183479     2021122818018403750              CAVS 0.3 R               CCN000010000000010000FN00000000020211201000010000NNE   20211127194357W41 1W    00000200000000471000000000032W41   HJYHK-J 000000000000OC21C006
BI00B32W4    4500183479     2021122818018403790              CAVS 0.3 L               CCN000004000000004000FN00000000020211201000004000NNE   20211127194357W41 1W    00000200000000471000000000032W41   HJYHK-J 000000000000OC21C005
BI00B32W4    @4500183479    20211228181AD2002ZZ              CIVUSAS-S 0.35X2 B       CCN000000450000000450FN00000000020211201000000450NNE   20211127194354W41 1W    00000045000001714000000000032W41   HJYHK-J 000000000000OC21C004
BI00B32W4    4500183489     2021122818007704260              AVSS 2F G                CCN000002000000002000FN00000000020211201000002000NNE   20211127194358W41 1W    00000050000002126400000000032W41   HJYHK-J 000000000000OJ21C002
BI00B32W4    4500183489     2021122818007704270              AVSS 2F Y                CCN000002000000002000FN00000000020211201000002000NNE   20211127194358W41 1W    00000050000002126400000000032W41   HJYHK-J 000000000000OJ21C004
BI00B32W4    4500183489     2021122818007704230              AVSS 2F B                CCN000005000000005000FN00000000020211201000005000NNE   20211127194358W41 1W    00000050000002126400000000032W41   HJYHK-J 000000000000OJ21C001
BI00B32W4    4500183489     2021122818007704250              AVSS 2F R                CCN000003000000003000FN00000000020211201000003000NNE   20211127194358W41 1W    00000050000002126400000000032W41   HJYHK-J 000000000000OJ21C003
BI00B32W4    4500183489     2021122818018403940              CAVS 0.5 W               CCN000006000000006000FN00000000020211201000006000NNE   20211127194358W41 1W    00000150000000677000000000032W41   HJYHK-J 000000000000OJ21C006
BI00B32W4    4500183489     2021122818018403991              CAVS 0.5 SB              CCN000001500000001500FN00000000020211201000001500NNE   20211127194358W41 1W    00000150000000677000000000032W41   HJYHK-J 000000000000OJ21C005
BI00B32W4    4500183489     2021122818018404140              CAVS 1.25 W              CCN000009600000009600FN00000000020211201000009600NNE   20211127194358W41 1W    00000080000001378000000000032W41   HJYHK-J 000000000000OJ21C015
BI00B32W4    4500183489     2021122818018404170              CAVS 1.25 Y              CCN000009600000009600FN00000000020211201000009600NNE   20211127194358W41 1W    00000080000001378000000000032W41   HJYHK-J 000000000000OJ21C016
BI00B32W4    4500183489     2021122818018404130              CAVS 1.25 B              CCN000002400000002400FN00000000020211201000002400NNE   20211127194358W41 1W    00000080000001378000000000032W41   HJYHK-J 000000000000OJ21C007
BI00B32W4    4500183489     2021122818018404141              CAVS 1.25 GY             CCN000002400000002400FN00000000020211201000002400NNE   20211127194358W41 1W    00000080000001378000000000032W41   HJYHK-J 000000000000OJ21C009
BI00B32W4    4500183489     2021122818018404151              CAVS 1.25 O              CCN000002400000002400FN00000000020211201000002400NNE   20211127194358W41 1W    00000080000001378000000000032W41   HJYHK-J 000000000000OJ21C011
BI00B32W4    4500183489     2021122818018404152              CAVS 1.25 P              CCN000004000000004000FN00000000020211201000004000NNE   20211127194358W41 1W    00000080000001378000000000032W41   HJYHK-J 000000000000OJ21C012
BI00B32W4    4500183489     2021122818018404160              CAVS 1.25 G              CCN000004800000004800FN00000000020211201000004800NNE   20211127194358W41 1W    00000080000001378000000000032W41   HJYHK-J 000000000000OJ21C008
BI00B32W4    4500183489     2021122818018404150              CAVS 1.25 R              CCN000001600000001600FN00000000020211201000001600NNE   20211127194358W41 1W    00000080000001378000000000032W41   HJYHK-J 000000000000OJ21C013
BI00B32W4    4500183489     2021122818018404190              CAVS 1.25 L              CCN000004000000004000FN00000000020211201000004000NNE   20211127194358W41 1W    00000080000001378000000000032W41   HJYHK-J 000000000000OJ21C010
BI00B32W4    4500183489     2021122818018404192              CAVS 1.25 V              CCN000004000000004000FN00000000020211201000004000NNE   20211127194358W41 1W    00000080000001378000000000032W41   HJYHK-J 000000000000OJ21C014
BI00B32W4    @4500183481    20220118181B32037Y5              AVSSCS 0.3FX1 DGY/W      CCN000001500000001500FN00000000020220101000001500NNE   20211127194601W4171W    00000050000001780000000000032W417  HJYHK-J 000000000000OA41C001
BI00B32W4    4500183786     2021122818018404092              CAVS 0.85 V              CCN000004000000004000FN00000000020211201000004000NNE   20211127194358W41 1W    00000100000000965000000000032W41   HJYHK-J 000000000000OK21C001
BI00B32W9    4500184246     2021121418000004553              AV 8 R/B                 CCN000000100000000100FN00000000020211101000000100NNE   20211127193949W93 1W    00000010000009148000000000032W93   HKYHK   000000000000ZP51B001
BI00B32W9    4500184731     2021121418001403973              AV 0.5F Y/B              CCN000001000000001000FN00000000020211101000001000NNE   20211127193950W93 1W    00000100000000921000000000032W93   HKYHK   000000000000ZG51B001
BI00B32W9    4500184248     2021121418018404141              CAVS 1.25 GY             CCN000000800000000800FN00000000020211201000000800NNE   20211127193952W93 1W    00000080000001378000000000032W93   HKYHK   000000000000ZH51B001
BI00B32W9    4500184735     2021121418001403960              AV 0.5F G                CCN000001000000001000FN00000000020211201000001000NNE   20211127193953W93 1W    00000100000000921000000000032W93   HKYHK   000000000000ZI51B001
