BI00B1200    2399T51923     202201077288-6598-70             HOUSING MALE ASS'Y       CCN000074880000067680FY00006768020211101000000000NNMD0020220117153902    4N0N  0000014400000107420000142921200    YCYC    005500360039
BI00A1200    2399T51A21     202201207289-3342-30             HOUSING FEMALE ASS'Y     CCN000009600000009600FN00000000020211201000009600NNMD0420220117174121    1N0N  0000024000000068640000090141200    YCYC    005500360039
BI00A1200    7360T51A04     202202087289-3342-30             HOUSING FEMALE ASS'Y     CCN000040800000040800FN00000000020211201000040800NNMQ0420220117174121    1N0N  0000024000000068640000090141200    YCYC    005500360039
BI00B1200    7360T51A04     202203317289-3342-30             HOUSING FEMALE ASS'Y     CCN000021600000000000FY00000000020211201000000000NNMD0420220117152052    1N0N  0000024000000068640000090141200    YCYC    005500360039
BI00B1200    #MKH2021-234   202202177282-1214-51             CONNECTOR                CCN000001000000001000FN00000000020220201000001000NNED0120220117174121    2N0N  0000010000000112000000129201200    YCYC    005500360039
BI00B1200    #7925T52103    202204287189-3297                HOUSING FEMALE           CCN000528000000528000FN00000000020220501000528000NNMD0420220117174121    2F0F  0000040000000089320000102901200    YCYC    005400370024
BI00B1200    H722D50006     202203247297-1861-30             HOUSING MALE ASS'Y       CCN000006000000006000FN00000000020220401000006000NNE   20220117174121    4N0N  0000015000000070220000082731200    YCYC    005400370024
BI00B1200    2399T51923     202201217288-6598-70             HOUSING MALE ASS'Y       CCN000007200000007200FN00000000020211101000007200NNMD0020220117174121    4N0N  0000014400000107420000142921200    YCYC    005500360039
BI00B32AF    JTB202L        202202047116-4022                TERMINAL                 CCN000013500000013500FN00000000020220201000013500NNE   20220117174121    4P0P  00001350000000618300000903532AF    HBYHVTB 006400630015
BI00B32AF    JTB202L        202202047116-4025                TERMINAL                 CCN000016000000016000FN00000000020220201000016000NNE   20220117174121    4P0P  00001600000000644800000975132AF    HBYHVTB 006400630017
BI00B32AF    JTB202L        202202047196-1103-02             TERMINAL                 CCN000022500000022500FN00000000020220201000022500NNE   20220117174121    4P0P  00002250000000429800000715032AF    HBYHVTB 006400630015
BI00B32AF    JTB202L        202202047283-5846                HOUSING                  CCN000009000000009000FN00000000020220201000009000NNE   20220117174121    1N0N  00000150000000885000001102032AF    HBYHVTB 005600390040
BI00B32AF    JTB202L        202202047286-4097                CONNECTOR MALE ASS'Y     CCN000008000000008000FN00000000020220201000008000NNE   20220117174121    1N0N  00000160000000768000000978032AF    HBYHVTB 005500360039
BI00B32AF    JTB202L        202202047287-3885-30             HYBRID FEMALE ASS'Y      CCN000002400000002400FN00000000020220201000002400NNE   20220117174121    1N0N  00000240000001029600001249632AF    HBYHVTB 005500360039
BI00B32AF    #JTB202L       202202047158-3003-90             RUBBER STOPPER           CCN000020000000020000FN00000000020220201000020000NNE   20220117174121    2C0C  00002000000000250000000306032AF    HBYHVTB 002700430014
BI00B32AF    #JTB202L       202202047158-3007-10             RUBBER STOPPER           CCN000020000000020000FN00000000020220201000020000NNE   20220117174121    2H0H  00002000000000308000000362732AF    HBYHVTB 002700430014
BI00B32AF    #JTB202L       202202047172-5629-80             RUBBER STOPPER           CCN000020000000020000FN00000000020220201000020000NNE   20220117174121    2H0H  00002000000000060000000111132AF    HBYHVTB 004300270014
BI00B32AF    #JTB202L       202202047287-1669                HOUSING FEMALE ASS'Y     CCN000008000000008000FN00000000020220201000008000NNE   20220117174121    2N0N  00000200000000788800000980832AF    HBYHVTB 005400370024
BI00B32AF    #JTB202L       202202047287-1670                HOUSING FEMALE ASS'Y     CCN000008400000008400FN00000000020220201000008400NNE   20220117174121    2N0N  00000280000000953100001145132AF    HBYHVTB 005400370024
BI00B32AF    #JTB202L       202202047287-1671                HOUSING FEMALE ASS'Y     CCN000006000000006000FN00000000020220201000006000NNE   20220117174121    2N0N  00000200000000782600000974632AF    HBYHVTB 005400370024
BI00B32AF    #JTB202L       202202047287-1674                HYBRID FEMALE ASS'Y      CCN000006000000006000FN00000000020220201000006000NNE   20220117174121    2N0N  00000200000000810800001002832AF    HBYHVTB 005400370024
BI00B32AG    XG2202DCMW     202202047327-6832-60             MAIN FUSE                CCN000004200000004200FN00000000020220201000004200NNE   20220117174121    4N0N  00000060000000729200000930732AG    XGXGY   005400370024
BI00B32A7    ZZ22031BMW     202202167172-5403-30             SEALED PACKING           CCN000136000000136000FN00000000020220301000136000NNMD0420220117174121    1C0C  00000400000000653600000701732A7    ZZZZY   004300270014
BI00B32A7    ZZ2203ABMW     202203167172-5403-30             SEALED PACKING           CCN000040000000040000FN00000000020220301000040000NNED0420220117174121    1C0C  00000400000000653600000701732A7    ZZZZY   004300270014
BI00B32B1    A22014         202203047114-4032                TERMINAL                 CCN000007500000007500FN00000000020220501000007500NNM   20220117174121B1  4P0P  00000750000000735000001063632B1    AXARNE-M006400630017
BI00B32B1    A22014         202203047158-3166-60             WIRE SEAL                CCN000040000000040000FN00000000020220501000040000NNM   20220117174121B1  1C0C  00004000000000104000000152432B1    AXARNE-M002700430014
BI00B32B1    A22014         202203047158-3167-80             WIRE SEAL                CCN000080000000080000FN00000000020220501000080000NNM   20220117174121B1  1C0C  00002000000000048000000109032B1    AXARNE-M002700430014
BI00B32B1    A22014         202203047158-3168-80             SEALED                   CCN000020000000020000FN00000000020220501000020000NNM   20220117174121B1  1C0C  00002000000000044000000092132B1    AXARNE-M004300260014
BI00B32B1    A22014         202203047158-3169-40             SEALING PLUG             CCN000120000000120000FN00000000020220501000120000NNM   20220117174121B1  1C0C  00004000000000156000000204132B1    AXARNE-M004300260014
BI00B32B1    A22014         202203047282-5574-10             CONNECTOR                CCN000000800000000800FN00000000020220501000000800NNM   20220117174121B1  4N0N  00000080000001235000001423032B1    AXARNE-M005600390040
BI00B32B1    #A22014        202203047158-3376-50             CONNECTOR WIRE SEAL      CCN000100000000100000FN00000000020220501000100000NNM   20220117174121B1  2C0C  00002000000000184000000240732B1    AXARNE-M002700430014
BI00B32B1    #A22014        202203047282-8395-40             CONNECTOR                CCN000002000000002000FN00000000020220501000002000NNM   20220117174121B1  2N0N  00000100000001009000001188032B1    AXARNE-M005500360039
BI00B32B1    #A22014        202203047283-8226-30             CONNECTOR                CCN000006000000006000FN00000000020220501000006000NNM   20220117174121B1  2N0N  00000200000000820000001008032B1    AXARNE-M005400370024
BI00B32B1    #A22014        202203047283-8397-40             CONNECTOR                CCN000001540000001540FN00000000020220501000001540NNM   20220117174121B1  2N0N  00000154000001007000001222732B1    AXARNE-M005600390023
BI00B32B6    A72014         202203047116-4037                TERMINAL                 CCN000006000000006000FN00000000020220501000006000NNM   20220117174121B6  4P0P  00000600000000600000000894232B6    AXARNE-M006400630015
BI00B32B6    A72014         202203047116-4486-02             TERMINAL                 CCN000028000000028000FN00000000020220501000028000NNM   20220117174121B6  4P0P  00002800000000666400000995132B6    AXARNE-M006400630017
BI00B32B6    A72014         202203047287-0192-40             SEALED HOUSING ASS'Y     CCN000000480000000480FN00000000020220501000000480NNM   20220117174121B6  4N0N  00000048000001092000001322032B6    AXARNE-M005600390040
BI00B32B6    #A72014        202203047158-3017                RUBBER STOPPER           CCN000010000000010000FN00000000020220501000010000NNM   20220117174121B6  2C0C  00001000000000375500000435032B6    AXARNE-M002700430014
BI00B32B6    #A72014        202203047289-2915-30             HOUSING FEMALE ASS'Y     CCN000001500000001500FN00000000020220501000001500NNM   20220117174121B6  2N0N  00000150000000964500001091532B6    AXARNE-M005400360024
BI00B32B7    A82014         202203047158-3166-60             WIRE SEAL                CCN000040000000040000FN00000000020220601000040000NNM   20220117174121B7  1C0C  00004000000000104000000152432B7    AXARNE-M002700430014
BI00B32B7    A82014         202203047158-3167-80             WIRE SEAL                CCN000300000000300000FN00000000020220601000300000NNM   20220117174121B7  1C0C  00002000000000048000000109032B7    AXARNE-M002700430014
BI00B32B7    A82014         202203047158-3169-40             SEALING PLUG             CCN000160000000160000FN00000000020220601000160000NNM   20220117174121B7  1C0C  00004000000000156000000204132B7    AXARNE-M004300260014
BI00B32B7    #A82014        202203047158-3376-50             CONNECTOR WIRE SEAL      CCN000080000000080000FN00000000020220601000080000NNM   20220117174121B7  2C0C  00002000000000184000000240732B7    AXARNE-M002700430014
BI00B32B7    #A82014        202203047283-8397-40             CONNECTOR                CCN000009240000009240FN00000000020220601000009240NNM   20220117174121B7  2N0N  00000154000001007000001222732B7    AXARNE-M005600390023
BI00B32B7    #A82014        202203047283-8398-40             CONNECTOR                CCN000003080000003080FN00000000020220601000003080NNM   20220117174121B7  2N0N  00000154000001007000001171332B7    AXARNE-M005600390023
BI00B32DE    TCT203B        202204077289-3342-30             HOUSING FEMALE ASS'Y     CCN000004800000004800FN00000000020220301000004800NNED0420220117174121    1N0N  00000240000000686400000901432DE    TVYEV-TV005500360039
BI00B32DE    TCT203B        202203177289-3342-90             HOUSING FEMALE ASS'Y     CCN000002400000002400FN00000000020220301000002400NNED0420220117174121    1N0N  00000240000000686400000901432DE    TVYEV-TV005500360039
BI00B32D2    DGTC2215       202207077288-6547                CONNECTOR MALE ASS'Y     CCN000006000000006000FN00000000020220401000006000NNMD0420220117174121    4N0N  00000075000001205300001340332D2    TGYOT-G 005400370024
BI00B32D2    DGTC2215       202212017289-3342                HOUSING FEMALE ASS'Y     CCN000031200000031200FN00000000020220401000031200NNMD0420220117174121    1N0N  00000240000000686400000901432D2    TGYOT-G 005500360039
BI00B32D2    DGTC2215       202207147289-3342-30             HOUSING FEMALE ASS'Y     CCN000007200000007200FN00000000020220401000007200NNMD0420220117174121    1N0N  00000240000000686400000901432D2    TGYOT-G 005500360039
BI00B32D2    DGTC2215       202211107289-3342-40             HOUSING FEMALE ASS'Y     CCN000009600000009600FN00000000020220401000009600NNMD0420220117174121    1N0N  00000240000000686400000901432D2    TGYOT-G 005500360039
BI00B32D2    DGTC2215       202209157289-3342-90             HOUSING FEMALE ASS'Y     CCN000012000000012000FN00000000020220401000012000NNMD0420220117174121    1N0N  00000240000000686400000901432D2    TGYOT-G 005500360039
BI00B32D2    DGTC2215       202203247289-6547                HOUSING FEMALE ASS'Y     CCN000004800000004800FN00000000020220401000004800NNMD0420220117174121    1N0N  00000240000001152000001362032D2    TGYOT-G 005500360039
BI00B32EJ    4500186234     202202177158-3070-80             RUBBER STOPPER           CCN000400000000400000FN00000000020220201000400000NNED0420220117174121EJ  1C0C  00004000000000276000000333332EJ    EJYKBO  002700430014
BI00B32EJ    T220107P02     202202247158-3070-80             RUBBER STOPPER           CCN000160000000160000FN00000000020220201000160000NNED0220220117174121EJ  1C0C  00004000000000276000000333332EJ    EJYKBO  002700430014
BI00B32EJ    T200111P02     202202247158-3070-80             RUBBER STOPPER           CCN000120000000120000FN00000000020220201000120000NNED0220220117174121EJ  1C0C  00004000000000276000000333332EJ    EJYKBO  002700430014
BI00B32EJ    T200111P01     202202247158-3070-80             RUBBER STOPPER           CCN000040000000040000FN00000000020220201000040000NNED0220220117174121EJ  1C0C  00004000000000276000000333332EJ    EJYKBO  002700430014
BI00B32G2    SA2203AJMW     202202167382-1481-10             CONNECTOR                CCN000000800000000800FN00000000020220301000000800NNE   20220117174121    4N0N  00000080000001025000001183032G2    AISUAI  005600390040
BI00B32G2    #SA2203AJMW    202202167123-7564-30             CONNECTOR                CCN000001000000001000FN00000000020220301000001000NNE   20220117174121    2F0F  00000100000001310000001455632G2    AISUAI  005600390040
BI00B32G2    SA2202D MW     202202027283-1288-10             CONNECTOR HOUSING        CCN000001200000001200FN00000000020220201000001200NNE   20220117174121    4N0N  00000120000001381000001637032G2    AISUAI  005600390040
BI00B32G2    #SA2202D MW    202202027123-7923-40             CONNECTOR                CCN000001500000001500FN00000000020220201000001500NNE   20220117174121    2F0F  00000150000001492500001665932G2    AISUAI  005600390040
BI00B32G2    SA2203A MW     202202167283-6120                CONNECTOR HOUSING        CCN000001500000001500FN00000000020220301000001500NNE   20220117174121    1N0N  00000150000000914000001143032G2    AISUAI  005600390040
BI00B32G2    SA2203A MW     202202167327-6424-4W             BATTERY FUSE             CCN000000384000000384FN00000000020220301000000384NNE   20220117174121    4N0N  00000009600001109500001259632G2    AISUAI  005400370024
BI00B32G2    #SA2203A MW    202202167157-7811-80             SEAL RUBBER              CCN000010000000010000FN00000000020220301000010000NNE   20220117174121    2C0C  00001000000000105000000182732G2    AISUAI  002700430014
BI00B32G2    #SA2203A MW    202202167157-7897-60             SEAL RUBBER              CCN000010000000010000FN00000000020220301000010000NNE   20220117174121    2C0C  00001000000000132000000214732G2    AISUAI  002700430014
BI00B32G7    JJ2203A MW     202202107017-1180-02             TERMINAL                 CCN000072000000072000FN00000000020220301000072000NNE   20220117174121    4P0P  00007200000001065600001229032G7    JIJAI   005100280028
BI00B32G7    JJ2203A MW     202202107114-5748-02             TERMINAL                 CCN000012000000012000FN00000000020220301000012000NNE   20220117174121    4P0P  00001200000000444000000737632G7    JIJAI   006400630015
BI00B32G7    JJ2203A MW     202202107114-5753-02             TERMINAL                 CCN000027000000027000FN00000000020220301000027000NNE   20220117174121    4P0P  00002700000000847800001141432G7    JIJAI   006400630015
BI00B32G7    JJ2203A MW     202202107116-1685-02             TERMINAL                 CCN000024000000024000FN00000000020220301000024000NNE   20220117174121    4P0P  00002400000000897600001065232G7    JIJAI   005100280028
BI00B32G7    JJ2203A MW     202202107116-2640                TERMINAL                 CCN000018000000018000FN00000000020220301000018000NNE   20220117174121    4P0P  00001800000001018800001196632G7    JIJAI   005100280028
BI00B32G7    JJ2203A MW     202202107116-2641                TERMINAL                 CCN000018000000018000FN00000000020220301000018000NNE   20220117174121    4P0P  00001800000001161000001344632G7    JIJAI   005100280028
BI00B32G7    JJ2203A MW     202202107116-2891-02             TERMINAL                 CCN000045000000045000FN00000000020220301000045000NNE   20220117174121    4P0P  00001500000000982500001145932G7    JIJAI   005100280028
BI00B32G7    JJ2203A MW     202202107116-2892-02             TERMINAL                 CCN000024000000024000FN00000000020220301000024000NNE   20220117174121    4P0P  00001200000000818400000981832G7    JIJAI   005100280028
BI00B32G7    JJ2203A MW     202202107116-2893-02             TERMINAL                 CCN000060000000060000FN00000000020220301000060000NNE   20220117174121    4P0P  00001200000000895200001058632G7    JIJAI   005100280028
BI00B32G7    JJ2203A MW     202202107116-4020                TERMINAL                 CCN000148500000148500FN00000000020220301000148500NNE   20220117174121    4P0P  00001350000000513000000798232G7    JIJAI   006400630015
BI00B32G7    JJ2203A MW     202202107116-4022                TERMINAL                 CCN000040500000040500FN00000000020220301000040500NNE   20220117174121    4P0P  00001350000000618300000903532G7    JIJAI   006400630015
BI00B32G7    JJ2203A MW     202202107116-4032                TERMINAL                 CCN000024000000024000FN00000000020220301000024000NNE   20220117174121    4P0P  00000600000000532800000818032G7    JIJAI   006400630015
BI00B32G7    JJ2203A MW     202202107116-4037                TERMINAL                 CCN000072000000072000FN00000000020220301000072000NNE   20220117174121    4P0P  00000600000000600000000894232G7    JIJAI   006400630015
BI00B32G7    JJ2203A MW     202202107116-4416-02             TERMINAL                 CCN000032000000032000FN00000000020220301000032000NNE   20220117174121    4P0P  00003200000000518400000847132G7    JIJAI   006400630017
BI00B32G7    JJ2203A MW     202202107116-4780-02             TERMINAL FEMALE          CCN000075000000075000FN00000000020220301000075000NNE   20220117174121    4P0P  00001500000000691500000985732G7    JIJAI   006400630015
BI00B32G7    JJ2203A MW     202202107116-5044-02             TERMINAL                 CCN000224000000224000FN00000000020220301000224000NNE   20220117174121    4P0P  00001600000000641600000986332G7    JIJAI   006400630017
BI00B32G7    JJ2203A MW     202202107116-5045-02             TERMINAL                 CCN000032000000032000FN00000000020220301000032000NNE   20220117174121    4P0P  00001600000000678400001007132G7    JIJAI   006400630017
BI00B32G7    JJ2203A MW     202202107116-5046-02             TERMINAL                 CCN000072000000072000FN00000000020220301000072000NNE   20220117174121    4P0P  00001200000000544800000873532G7    JIJAI   006400630017
BI00B32G7    JJ2203A MW     202202107116-5750-02             TERMINAL                 CCN000075000000075000FN00000000020220301000075000NNE   20220117174121    4P0P  00001500000000457500000742732G7    JIJAI   006400630015
BI00B32G7    JJ2203A MW     202202107116-5751-02             TERMINAL                 CCN000096000000096000FN00000000020220301000096000NNE   20220117174121    4P0P  00001200000000379200000664432G7    JIJAI   006400630015
BI00B32G7    JJ2203A MW     202202107116-5752-02             TERMINAL                 CCN000105000000105000FN00000000020220301000105000NNE   20220117174121    4P0P  00002100000000571200000856432G7    JIJAI   006400630015
BI00B32G7    JJ2203A MW     202202107116-6041                TERMINAL                 CCN000045000000045000FN00000000020220301000045000NNE   20220117174121    4P0P  00000450000000716000001009632G7    JIJAI   006400630015
BI00B32G7    JJ2203A MW     202202107116-6042                TERMINAL                 CCN000018000000018000FN00000000020220301000018000NNE   20220117174121    4P0P  00000300000000523800000856132G7    JIJAI   006400630015
BI00B32G7    JJ2203A MW     202202107126-8853-02             TERMINAL                 CCN000082500000082500FN00000000020220301000082500NNE   20220117174121    4P0P  00000750000000562500000847732G7    JIJAI   006400630015
BI00B32G7    JJ2203A MW     202202107126-8854-02             TERMINAL                 CCN000052500000052500FN00000000020220301000052500NNE   20220117174121    4P0P  00000750000000604500000889732G7    JIJAI   006400630015
BI00B32G7    JJ2203A MW     202202107126-8855-02             TERMINAL                 CCN000084000000084000FN00000000020220301000084000NNE   20220117174121    4P0P  00000600000000510600000795832G7    JIJAI   006400630015
BI00B32G7    JJ2203A MW     202202107158-3006-90             RUBBER STOPPER           CCN000040000000040000FN00000000020220301000040000NNE   20220117174121    1C0C  00002000000000330600000386032G7    JIJAI   002700430014
BI00B32G7    JJ2203A MW     202202107158-3009-60             RUBBER STOPPER           CCN000140000000140000FN00000000020220301000140000NNE   20220117174121    1C0C  00002000000000338000000386232G7    JIJAI   002700430014
BI00B32G7    JJ2203A MW     202202107158-3070-80             RUBBER STOPPER           CCN000040000000040000FN00000000020220301000040000NNE   20220117174121    1C0C  00004000000000276000000333332G7    JIJAI   002700430014
BI00B32G7    JJ2203A MW     202202107158-3166-60             WIRE SEAL                CCN000040000000040000FN00000000020220301000040000NNE   20220117174121    1C0C  00004000000000104000000152432G7    JIJAI   002700430014
BI00B32G7    JJ2203A MW     202202107286-1915                CONNECTOR SUB ASSY       CCN000008000000008000FN00000000020220301000008000NNE   20220117174121    4N0N  00000160000000965600001165632G7    JIJAI   005500360039
BI00B32G7    JJ2203A MW     202202107287-1915                CONNECTOR ASS'Y          CCN000012000000012000FN00000000020220301000012000NNE   20220117174121    4N0N  00000240000000666500000923132G7    JIJAI   005500360039
BI00B32G7    JJ2203A MW     202202107288-3329-30             HOUSING MALE             CCN000001500000001500FN00000000020220301000001500NNE   20220117174121    4N0N  00000150000000866100001011132G7    JIJAI   005400370024
BI00B32G7    JJ2203A MW     202202107288-3331-30             HOUSING MALE             CCN000001500000001500FN00000000020220301000001500NNE   20220117174121    4N0N  00000150000000866000001010932G7    JIJAI   005400370024
BI00B32G7    JJ2203A MW     202202107288-3335-30             HOUSING MALE             CCN000006000000006000FN00000000020220301000006000NNE   20220117174121    4N0N  00000150000000867000001012032G7    JIJAI   005400370024
BI00B32G7    JJ2203A MW     202202107288-3340-30             HOUSING MALE             CCN000003000000003000FN00000000020220301000003000NNE   20220117174121    4N0N  00000150000000861500001006432G7    JIJAI   005400370024
BI00B32G7    JJ2203A MW     202202107289-3342-30             HOUSING FEMALE ASS'Y     CCN000021600000021600FN00000000020220301000021600NNE   20220117174121    1N0N  00000240000000686400000901432G7    JIJAI   005500360039
BI00B32G7    #JJ2203A MW    202202107123-6347                CONNECTOR HOUSING        CCN000001600000001600FN00000000020220301000001600NNE   20220117174121    2F0F  00000160000000647000000904832G7    JIJAI   005500360039
BI00B32G7    #JJ2203A MW    202202107158-3003-90             RUBBER STOPPER           CCN000100000000100000FN00000000020220301000100000NNE   20220117174121    2C0C  00002000000000250000000306032G7    JIJAI   002700430014
BI00B32G7    #JJ2203A MW    202202107158-3004-40             RUBBER STOPPER           CCN000020000000020000FN00000000020220301000020000NNE   20220117174121    2C0C  00002000000000234000000306332G7    JIJAI   002700430014
BI00B32G7    #JJ2203A MW    202202107158-3008-80             RUBBER STOPPER           CCN000020000000020000FN00000000020220301000020000NNE   20220117174121    2C0C  00002000000000288000000343032G7    JIJAI   004300270014
BI00B32G7    #JJ2203A MW    202202107158-3015-10             RUBBER STOPPER           CCN000020000000020000FN00000000020220301000020000NNE   20220117174121    2C0C  00001000000000419500000474032G7    JIJAI   002700430014
BI00B32G7    #JJ2203A MW    202202107158-3017                RUBBER STOPPER           CCN000030000000030000FN00000000020220301000030000NNE   20220117174121    2C0C  00001000000000375500000435032G7    JIJAI   002700430014
BI00B32G7    JJ2203AKMW     202202107116-4415-02             TERMINAL                 CCN000038000000038000FN00000000020220301000038000NNE   20220117174121    4P0P  00003800000000596600000925732G7    JIJAI   006400630017
BI00B32G7    JJ2203AKMW     202202107158-3165-90             WIRE SEAL                CCN000040000000040000FN00000000020220301000040000NNE   20220117174121    1C0C  00004000000000124000000172432G7    JIJAI   004300270014
BI00B32G7    JJ2203AKMW     202202107298-2507-30             HOUSING FEMALE ASS'Y     CCN000001600000002400FN00000000020220301000002400NNE   20220117174121    4N0N  00000120000000713200000914532G7    JIJAI   005500360039
BI00B32G7    @JJ2203AKMW    202202107123-4312-30             HOUSING                  CCN000000800000000800FN00000000020220301000000800NNE   20220117174121    3F0F  00000080000000641900000793232G7    JIJAI   005500360039
BI00B32G7    JJ2203ALMW     202202107116-4114-02             TERMINAL                 CCN000073500000073500FN00000000020220301000073500NNE   20220117174121    4P0P  00001050000000693000000981232G7    JIJAI   006400630015
BI00B32G7    JJ2203ALMW     202202107116-4115-02             TERMINAL                 CCN000008400000008400FN00000000020220301000008400NNE   20220117174121    4P0P  00000840000000593000000881232G7    JIJAI   006400630015
BI00B32G7    JJ2203ALMW     202202107116-4116-02             TERMINAL                 CCN000055200000055200FN00000000020220301000055200NNE   20220117174121    4P0P  00000690000000517500000805732G7    JIJAI   006400630015
BI00B32G7    #JJ2203ALMW    202202107183-2414                CONNECTOR HOUSING        CCN000004800000004800FN00000000020220301000004800NNE   20220117174121    2F0F  00000480000000779200001061032G7    JIJAI   005500360039
BI00B32G7    #JJ2203ALMW    202202107189-0149                HLC HOUSING FEMALE       CCN000008000000008000FN00000000020220301000008000NNE   20220117174121    2F0F  00000200000000970000001078532G7    JIJAI   005400370024
BI00B32G7    @JJ2203ALMW    202202107183-8049-30             CONNECTOR HOUSING        CCN000004000000004000FN00000000020220301000004000NNE   20220117174121    3F0F  00000400000000588800000714432G7    JIJAI   005400370024
BI00B32G7    JJ2203AMMW     202202107114-4728-02             TERMINAL                 CCN000030000000030000FN00000000020220301000030000NNE   20220117174121    4P0P  00003000000000510000000804232G7    JIJAI   006400630015
BI00B32G7    JJ2203AMMW     202202107114-4728-08             TERMINAL                 CCN000030000000030000FN00000000020220301000030000NNE   20220117174121    4P0P  00003000000000507000000801232G7    JIJAI   006400630015
BI00B32G7    JJ2203AMMW     202202107116-3153-08             TERMINAL                 CCN000054000000054000FN00000000020220301000054000NNE   20220117174121    4P0P  00002700000000461700000746932G7    JIJAI   006400630015
BI00B32G7    JJ2203AMMW     202202107196-0396-02             TERMINAL                 CCN000015000000015000FN00000000020220301000015000NNE   20220117174121    4P0P  00001500000000949500001112932G7    JIJAI   002800510028
BI00B32G7    JJ2203AMMW     202202107196-0510-02             TERMINAL                 CCN000048000000048000FN00000000020220301000048000NNE   20220117174121    4P0P  00002400000000871200001034632G7    JIJAI   002800510028
BI00B32G7    JJ2203AMMW     202202107196-1102-02             TERMINAL                 CCN000022500000022500FN00000000020220301000022500NNE   20220117174121    4P0P  00002250000000405000000690232G7    JIJAI   006400630015
BI00B32G7    JJ2203AMMW     202202107196-1103-02             TERMINAL                 CCN000112500000112500FN00000000020220301000112500NNE   20220117174121    4P0P  00002250000000429800000715032G7    JIJAI   006400630015
BI00B32G7    JJ2203AMMW     202202107287-1915-40             CONNECTOR ASS'Y          CCN000004800000004800FN00000000020220301000004800NNE   20220117174121    4N0N  00000240000000666500000923132G7    JIJAI   005500360039
BI00B32G7    JJ2203AMMW     202202107287-1915-90             CONNECTOR ASS'Y          CCN000002400000002400FN00000000020220301000002400NNE   20220117174121    4N0N  00000240000000666500000923132G7    JIJAI   005500360039
BI00B32G7    JJ2203AMMW     202202107288-3330-30             HOUSING MALE             CCN000001500000001500FN00000000020220301000001500NNE   20220117174121    4N0N  00000150000000866300001011232G7    JIJAI   005400370024
BI00B32G7    JJ2203AMMW     202202107288-3332-30             HOUSING MALE             CCN000004500000004500FN00000000020220301000004500NNE   20220117174121    4N0N  00000150000000860700001005732G7    JIJAI   005400370024
BI00B32G7    JJ2203AMMW     202202107288-3338-30             HOUSING MALE             CCN000004500000004500FN00000000020220301000004500NNE   20220117174121    4N0N  00000150000000866100001012032G7    JIJAI   005400370024
BI00B32G7    JJ2203AMMW     202202107288-3339-30             HOUSING MALE             CCN000003000000003000FN00000000020220301000003000NNE   20220117174121    4N0N  00000150000000867000001012032G7    JIJAI   005400370024
BI00B32G7    JJ2203AMMW     202202107289-3342                HOUSING FEMALE ASS'Y     CCN000004800000004800FN00000000020220301000004800NNE   20220117174121    1N0N  00000240000000686400000901432G7    JIJAI   005500360039
BI00B32G7    JJ2203AMMW     202202107296-0784-02             TERMINAL ALUMINIUM       CCN000048000000048000FN00000000020220301000048000NNE   20220117174121    4P0P  00002400000000480000000765232G7    JIJAI   006400630015
BI00B32G7    JJ2203AMMW     202202107296-1020-02             TERMINAL ALUMINIUM       CCN000022500000022500FN00000000020220301000022500NNE   20220117174121    4P0P  00002250000000699800000985032G7    JIJAI   006400630015
BI00B32G7    JJ2203AMMW     202202107327-6627-3W             BATTERY FUSE             CCN000002600000002688FN00000000020220301000002688NNE   20220117174121    4N0N  00000009600001332300001534632G7    JIJAI   005500360039
BI00B32G7    JJ2203AMMW     202202107327-6731-3W             BATTERY FUSE             CCN000004608000004608FN00000000020220301000004608NNE   20220117174121    4N0N  00000006400000697600000843032G7    JIJAI   005400370024
BI00B32G7    JJ2203AMMW     202202107388-2978-30             HOUSING MALE ASS'Y       CCN000012960000012960FN00000000020220301000012960NNE   20220117174121    1N0N  00000048000000742000001122032G7    JIJAI   005500360039
BI00B32G7    #JJ2203AMMW    202202107158-3005-80             RUBBER STOPPER           CCN000060000000060000FN00000000020220301000060000NNE   20220117174121    2H0H  00002000000000210000000268732G7    JIJAI   002700430014
BI00B32G7    #JJ2203AMMW    202202107172-5629-80             RUBBER STOPPER           CCN000200000000200000FN00000000020220301000200000NNE   20220117174121    2H0H  00002000000000060000000111132G7    JIJAI   004300270014
BI00B32G7    #JJ2203AMMW    202202107172-5631-60             RUBBER STOPPER           CCN000040000000040000FN00000000020220301000040000NNE   20220117174121    2H0H  00002000000000042000000093132G7    JIJAI   004300270014
BI00B32G7    #JJ2203AMMW    202202107172-5632-10             DUMMY PLUG               CCN000080000000080000FN00000000020220301000080000NNE   20220117174121    2H0H  00002000000000080400000131832G7    JIJAI   004300270014
BI00B32G7    #JJ2203AMMW    202202107183-0522-30             HOUSING                  CCN000002400000002400FN00000000020220301000002400NNE   20220117174121    2F0F  00000240000000959000001191032G7    JIJAI   005500360039
BI00B32G7    #JJ2203AMMW    202202107183-1615                HOUSING                  CCN000004800000004800FN00000000020220301000004800NNE   20220117174121    2F0F  00000480000000757000001042032G7    JIJAI   005500360039
BI00B32G7    #JJ2203AMMW    202202107189-2978-30             HOUSING FEMALE           CCN000013500000013500FN00000000020220301000013500NNE   20220117174121    2F0F  00000150000000966900001096932G7    JIJAI   005400370024
BI00B32G7    #JJ2203AMMW    202202107189-3033                HOUSING FEMALE           CCN000006400000006400FN00000000020220301000006400NNE   20220117174121    2F0F  00000160000001211200001431232G7    JIJAI   005500360039
BI00B32G7    #JJ2203AMMW    202202107189-3036                HOUSING FEMALE           CCN000001600000001600FN00000000020220301000001600NNE   20220117174121    2F0F  00000160000000921600001141632G7    JIJAI   005500360039
BI00B32G7    #JJ2203AMMW    202202107289-2913-40             HOUSING FEMALE ASS'Y     CCN000001500000001500FN00000000020220301000001500NNE   20220117174121    2N0N  00000150000000910500001037532G7    JIJAI   005400360024
BI00B32G7    #JJ2203AMMW    202202107289-2914-40             HOUSING FEMALE ASS'Y     CCN000001500000001500FN00000000020220301000001500NNE   20220117174121    2N0N  00000150000000904500001031532G7    JIJAI   005400370024
BI00B32G7    #JJ2203AMMW    202202107289-3622-30             HOUSING FEMALE ASS'Y     CCN000003024000003024FN00000000020220301000003024NNE   20220117174121    2N0N  00000043200000839400001038432G7    JIJAI   005400370024
BI00B32G7    @JJ2203AMMW    202202107187-1769                HOUSING FEMALE           CCN000002000000002000FN00000000020220301000002000NNE   20220117174121    3F0F  00000200000001035800001182032G7    JIJAI   005500360039
BI00B32G7    @JJ2203AMMW    202202107287-4098                CONNECTOR FEMALE         CCN000001700000002400FN00000000020220301000002400NNE   20220117174121    3N0N  00000240000000668600000908032G7    JIJAI   005500360039
BI00B32G7    @JJ2203AMMW    202202107287-4098-40             CONNECTOR FEMALE         CCN000004800000004800FN00000000020220301000004800NNE   20220117174121    3N0N  00000240000000672500000908032G7    JIJAI   005500360039
BI00B32G8    PATA2031A      202202237154-9978-30             UPPER COVER              CCN000000100000000100FN00000000020220301000000100NNED0120220117174121    1N0N  00000005000000305200000516032G8    PSPASI  005500360039
BI00B32G8    PATA2031A      202202237171-4099-30             UPPER COVER              CCN000000050000000050FN00000000020220301000000050NNED0120220117174121    4N0N  00000005000000305200000516032G8    PSPASI  005500360039
BI00B32H0    TT22041VMW     202202227288-6547                CONNECTOR MALE ASS'Y     CCN000005250000005250FN00000000020220401000005250NNMQ0020220117174121    4N0N  00000075000001205300001340332H0    TTTJY   005400370024
BI00B32H0    TT22042VMW     202203017288-6547                CONNECTOR MALE ASS'Y     CCN000002250000002250FN00000000020220401000002250NNMD0020220117174121    4N0N  00000075000001205300001340332H0    TTTJY   005400370024
BI00B32H0    TT22043VMW     202203087288-6547                CONNECTOR MALE ASS'Y     CCN000001500000001500FN00000000020220401000001500NNMD0020220117174121    4N0N  00000075000001205300001340332H0    TTTJY   005400370024
BI00B32H0    TT22044VMW     202203157288-6547                CONNECTOR MALE ASS'Y     CCN000001500000001500FN00000000020220401000001500NNMD0020220117174121    4N0N  00000075000001205300001340332H0    TTTJY   005400370024
BI00B32H0    TT22041VMW     202203017288-6547                CONNECTOR MALE ASS'Y     CCN000001500000000000FY00000000020220401000000000NNMQ0020220117104051    4N0N  00000075000001205300001340332H0    TTTJY   005400370024
BI00B32H0    TT22041VMW     202203087288-6547                CONNECTOR MALE ASS'Y     CCN000001500000000000FY00000000020220401000000000NNMQ0020220117104051    4N0N  00000075000001205300001340332H0    TTTJY   005400370024
BI00B32H0    TT22041VMW     202203157288-6547                CONNECTOR MALE ASS'Y     CCN000000750000000000FY00000000020220401000000000NNMQ0020220117104051    4N0N  00000075000001205300001340332H0    TTTJY   005400370024
BI00B32H0    TT2203CVMW     202202087386-2747                CONNECTOR ASS'Y          CCN000002000000002000FN00000000020220301000002000NNE   20220117174121    4N0N  00000200000001162000001284532H0    TTTJY   005400370024
BI00B32H0    #TT2203CVMW    202202087189-2978-30             HOUSING FEMALE           CCN000001500000001500FN00000000020220301000001500NNE   20220117174121    2F0F  00000150000000966900001096932H0    TTTJY   005400370024
BI00B32H2    TIJ2025        202202257017-1182-02             TERMINAL                 CCN000045000000045000FN00000000020220201000045000NNMD0020220117174121    4P0P  00004500000001165500001318632H2    HVYHV   005100280028
BI00B32H2    TIJ2025        202202257114-4486-02             TERMINAL                 CCN000024000000024000FN00000000020220201000024000NNMD0020220117174121    4P0P  00002400000000662400000956032H2    HVYHV   006400630015
BI00B32H2    TIJ2032        202203047017-1180-02             TERMINAL                 CCN000072000000072000FN00000000020220301000072000NNMD0020220117174121    4P0P  00007200000001065600001229032H2    HVYHV   005100280028
BI00B32H2    TIJ2032        202202117116-1685-02             TERMINAL                 CCN000024000000024000FN00000000020220301000024000NNMD0020220117174121    4P0P  00002400000000897600001065232H2    HVYHV   005100280028
BI00B32H2    TIJ202R        202202257470-5304                J/B COMPLETE ASS'Y       CCN000000500000000500FN00000000020220201000000500NNED0220220117174121    4J0J  00000001000000494000000661032H2    HVYHV   005400370024
BI00B32J1    390382         202202147158-3168-80             SEALED                   CCN001600000001600000FN00000000020220201001600000NNMD0420220117174121    1C0C  00002000000000044000000092132J1    UKYEL-BL004300260014
BI00B32K8    #K1220010099   202202187137-2717-50             SEALED CONNECTOR         CCN000012000000012000FN00000000020220401000012000NNM   20220117174121    2C0C  00000400000000212800000284032K8    ELELCOM 002700430014
BI00B32M3    SM2202BDMW     202202037287-1915-30             CONNECTOR ASS'Y          CCN000004800000004800FN00000000020220201000004800NNE   20220117174121    4N0N  00000240000000666500000923132M3    SASAMI  005500360039
BI00B32M3    SM2202C MW     202202037116-4020                TERMINAL                 CCN000013500000013500FN00000000020220201000013500NNE   20220117174121    4P0P  00001350000000513000000798232M3    SASAMI  006400630015
BI00B32M3    SM2202C MW     202202037116-4026                TERMINAL                 CCN000016000000016000FN00000000020220201000016000NNE   20220117174121    4P0P  00001600000000664000000994332M3    SASAMI  006400630017
BI00B32M3    SM2202C MW     202202037116-5750-02             TERMINAL                 CCN000015000000015000FN00000000020220201000015000NNE   20220117174121    4P0P  00001500000000457500000742732M3    SASAMI  006400630015
BI00B32M3    #SM2202C MW    202202037116-4021                TERMINAL                 CCN000027000000027000FN00000000020220201000027000NNE   20220117174121    2F0P  00001350000000534600000868832M3    SASAMI  006400630015
BI00B32M3    #SM2202C MW    202202037183-2414                CONNECTOR HOUSING        CCN000009600000009600FN00000000020220201000009600NNE   20220117174121    2F0F  00000480000000779200001061032M3    SASAMI  005500360039
BI00B32M8    PM2112A MW     202201267288-3329-30             HOUSING MALE             CCN000004500000004500FN00000000020211201000004500NNED0420220117174121    4N0N  00000150000000866100001011132M8    PMPEMI  005400370024
BI00B32N1    NST2115FCU     202201277158-3070-80             RUBBER STOPPER           CCN002800000001400000FN00000000020220201001400000NNMD0220220117174121    2C0C  00004000000000276000000333332N1    TAYIPL  002700430014
BI00B32N1    NST2115B-1     202202107254-3061                COVER                    CCN000000100000000000FY00000000020220301000000000NNEQ0820220117165429    4N0N  00000012000000614000000792032N1    TAYIPL  005600390040
BI00B32N1    NST2115B-2     202202177254-3061                COVER                    CCN000000100000000000FY00000000020220301000000000NNMQ0820220117165445    4N0N  00000012000000614000000792032N1    TAYIPL  005600390040
BI00B32N1    NST2115FCU     202202177158-3070-80             RUBBER STOPPER           CCN001400000001400000FN00000000020220201001400000NNMD0220220117174121    2C0C  00004000000000276000000333332N1    TAYIPL  002700430014
BI00A32N3    NBT202 A1      202201207289-3342-30             HOUSING FEMALE ASS'Y     PCN000012000000012000FN00000000020220201000012000NNMD0420220117174121    1N0N  00000240000000686400000901432N3    ABYIPL-B005500360039
BI00B32N3    NBT202 A1      202201177289-3342-30             HOUSING FEMALE ASS'Y     CCN000009600000000000FY00000000020220201000000000NNMD0420220117100434    1N0N  00000240000000686400000901432N3    ABYIPL-B005500360039
BI00A32Q8    EU2203CNMW     202202017298-1866-40             HOUSING FEMALE ASS'Y     CCN000002400000002400FN00000000020220301000002400NNEM0020220117174121    4N0N  00000240000000000000000000032Q8    EMEMI   000000000000
BI00A32Q8    EU2203CNMW     202202017298-2279-40             HOUSING FEMALE ASS'Y     CCN000002400000002400FN00000000020220301000002400NNEM0020220117174121    4N0N  00000240000000000000000000032Q8    EMEMI   000000000000
BI00B32R7    #R-TAP220026   202202037186-8845-60             HOUSING MALE             CCN000003000000003000FN00000000020220201000003000NNE   20220117174121    2F0F  00000300000000690000000801532R7    IVYCIC  005400370024
BI00B32R7    R-TAP220023    202202247116-4122-02             TERMINAL                 CCN000004500000004500FN00000000020220301000004500NNE   20220117174121    4P0P  00000450000000656600000950232R7    IVYCIC  006400630015
BI00B32R7    R-TAP220024    202202247158-3167-80             WIRE SEAL                CCN000080000000080000FN00000000020220301000080000NNE   20220117174121    1C0C  00002000000000048000000109032R7    IVYCIC  002700430014
BI00B32R7    R-TAP220025    202202247298-1186-40             SQUIB SUB ASS'Y          CCN000020000000020000FN00000000020220301000020000NNE   20220117174121    4N0N  00001000000000650000000774532R7    IVYCIC  005400370024
BI00B32U5    DI2014         202203047116-4037                TERMINAL                 CCN000018000000018000FN00000000020220501000018000NNM   20220117174121U5  4P0P  00000600000000600000000894232U5    AMAMSD  006400630015
BI00B32U5    DI2014         202203047289-3342                HOUSING FEMALE ASS'Y     CCN000024000000024000FN00000000020220501000024000NNM   20220117174121U5  1N0N  00000240000000686400000901432U5    AMAMSD  005500360039
BI00B32U5    DI2014         202203047017-1183-02             TERMINAL                 CCN000027000000027000FN00000000020220501000027000NNM   20220117174121U5  4P0P  00002700000001139400001307432U5    AMAMSD  005100280028
BI00B32U5    DI2014         202203047114-4486-02             TERMINAL                 CCN000024000000024000FN00000000020220501000024000NNM   20220117174121U5  4P0P  00002400000000662400000956032U5    AMAMSD  006400630015
BI00B32U5    DI2014         202203047116-1685-02             TERMINAL                 CCN000360000000360000FN00000000020220501000360000NNM   20220117174121U5  4P0P  00002400000000897600001065232U5    AMAMSD  005100280028
BI00B32U5    DI2014         202203047116-4486-02             TERMINAL                 CCN000140000000140000FN00000000020220501000140000NNM   20220117174121U5  4P0P  00002800000000666400000995132U5    AMAMSD  006400630017
BI00B32U5    DI2014         202203047116-5045-02             TERMINAL                 CCN000128000000128000FN00000000020220501000128000NNM   20220117174121U5  4P0P  00001600000000678400001007132U5    AMAMSD  006400630017
BI00B32U5    DI2014         202203047116-5046-02             TERMINAL                 CCN000060000000060000FN00000000020220501000060000NNM   20220117174121U5  4P0P  00001200000000544800000873532U5    AMAMSD  006400630017
BI00B32U5    DI2014         202203047158-3167-80             WIRE SEAL                CCN000020000000020000FN00000000020220501000020000NNM   20220117174121U5  1C0C  00002000000000048000000109032U5    AMAMSD  002700430014
BI00B32U5    DI2014         202203047196-1102-02             TERMINAL                 CCN000022500000022500FN00000000020220501000022500NNM   20220117174121U5  4P0P  00002250000000405000000690232U5    AMAMSD  006400630015
BI00B32U5    DI2014         202203047196-1104-02             TERMINAL                 CCN000405000000405000FN00000000020220501000405000NNM   20220117174121U5  4P0P  00002250000000441000000726232U5    AMAMSD  006400630015
BI00B32U5    DI2014         202203047287-1915-40             CONNECTOR ASS'Y          CCN000004800000004800FN00000000020220501000004800NNM   20220117174121U5  4N0N  00000240000000666500000923132U5    AMAMSD  005500360039
BI00B32U5    DI2014         202203047288-3339-30             HOUSING MALE             CCN000003000000003000FN00000000020220501000003000NNM   20220117174121U5  4N0N  00000150000000867000001012032U5    AMAMSD  005400370024
BI00B32U5    DI2014         202203047289-3342-30             HOUSING FEMALE ASS'Y     CCN000038400000038400FN00000000020220501000038400NNM   20220117174121U5  1N0N  00000240000000686400000901432U5    AMAMSD  005500360039
BI00B32U5    DI2014         202203047289-4696-30             HOUSING FEMALE ASS'Y     CCN000004000000004000FN00000000020220501000004000NNM   20220117174121U5  4N0N  00000200000000913400001055432U5    AMAMSD  005400370024
BI00B32U5    DI2014         202203047388-2978-30             HOUSING MALE ASS'Y       CCN000005280000005280FN00000000020220501000005280NNM   20220117174121U5  1N0N  00000048000000742000001122032U5    AMAMSD  005500360039
BI00B32U5    DI2014         202203047327-6731-3W             BATTERY FUSE             CCN000002048000002048FN00000000020220501000002048NNM   20220117174121U5  4N0N  00000006400000697600000843032U5    AMAMSD  005400370024
BI00B32U5    DI2014         202203047B96-0805-02             TERMINAL FEMALE          CCN000022500000022500FN00000000020220501000022500NNM   20220117174121U5  4P0P  00002250000000558000000843232U5    AMAMSD  006400630015
BI00B32U5    DI2014         202203047C89-6868-30             SEALED ASSY FEMALE       CCN000005040000005040FN00000000020220501000005040NNM   20220117174121U5  4N0N  00000252000000839200001119232U5    AMAMSD  005500360039
BI00B32U5    #DI2014        202203047158-3017                RUBBER STOPPER           CCN000010000000010000FN00000000020220501000010000NNM   20220117174121U5  2C0C  00001000000000375500000435032U5    AMAMSD  002700430014
BI00B32U5    #DI2014        202203047189-3032                HOUSING FEMALE           CCN000006400000006400FN00000000020220501000006400NNM   20220117174121U5  2F0F  00000160000000788400001018432U5    AMAMSD  005500360039
BI00B32U5    #DI2014        202203047287-7859                HYBRID FEMALE ASS'Y      CCN000002400000002400FN00000000020220501000002400NNM   20220117174121U5  2N0N  00000120000000461600000671632U5    AMAMSD  005500360039
BI00B32U5    #DI2014        202203047154-5597-30             CASSETTE R/B             CCN000001600000001600FN00000000020220501000001600NNM   20220117174121U5  2F0F  00000080000000736000000952032U5    AMAMSD  005500360039
BI00B32U5    #DI2014        202203047158-3003-90             RUBBER STOPPER           CCN000180000000180000FN00000000020220501000180000NNM   20220117174121U5  2C0C  00002000000000250000000306032U5    AMAMSD  002700430014
BI00B32U5    #DI2014        202203047158-3008-80             RUBBER STOPPER           CCN000020000000020000FN00000000020220501000020000NNM   20220117174121U5  2C0C  00002000000000288000000343032U5    AMAMSD  004300270014
BI00B32U5    #DI2014        202203047158-3015-10             RUBBER STOPPER           CCN000020000000020000FN00000000020220501000020000NNM   20220117174121U5  2C0C  00001000000000419500000474032U5    AMAMSD  002700430014
BI00B32U5    #DI2014        202203047158-3376-50             CONNECTOR WIRE SEAL      CCN000020000000020000FN00000000020220501000020000NNM   20220117174121U5  2C0C  00002000000000184000000240732U5    AMAMSD  002700430014
BI00B32U5    #DI2014        202203047172-5626-90             RUBBER STOPPER           CCN000200000000200000FN00000000020220501000200000NNM   20220117174121U5  2H0H  00002000000000076400000127832U5    AMAMSD  004300270014
BI00B32U5    #DI2014        202203047172-5627-60             RUBBER STOPPER           CCN000160000000160000FN00000000020220501000160000NNM   20220117174121U5  2H0H  00002000000000070400000121832U5    AMAMSD  004300270014
BI00B32U5    #DI2014        202203047172-5628-80             DUMMY PLUG               CCN000080000000080000FN00000000020220501000080000NNM   20220117174121U5  2H0H  00002000000000110600000162032U5    AMAMSD  004300270014
BI00B32U5    #DI2014        202203047172-5629-80             RUBBER STOPPER           CCN000180000000180000FN00000000020220501000180000NNM   20220117174121U5  2H0H  00002000000000060000000111132U5    AMAMSD  004300270014
BI00B32U5    #DI2014        202203047172-5630-40             RUBBER STOPPER           CCN000280000000280000FN00000000020220501000280000NNM   20220117174121U5  2H0H  00002000000000044000000095132U5    AMAMSD  004300270014
BI00B32U5    #DI2014        202203047172-5631-60             RUBBER STOPPER           CCN000180000000180000FN00000000020220501000180000NNM   20220117174121U5  2H0H  00002000000000042000000093132U5    AMAMSD  004300270014
BI00B32U5    #DI2014        202203047172-5632-10             DUMMY PLUG               CCN000200000000200000FN00000000020220501000200000NNM   20220117174121U5  2H0H  00002000000000080400000131832U5    AMAMSD  004300270014
BI00B32U5    #DI2014        202203047189-2978-30             HOUSING FEMALE           CCN000004500000004500FN00000000020220501000004500NNM   20220117174121U5  2F0F  00000150000000966900001096932U5    AMAMSD  005400370024
BI00B32U5    #DI2014        202203047289-4200-30             HOUSING FEMALE ASS'Y     CCN000004000000004000FN00000000020220501000004000NNM   20220117174121U5  2N0N  00000200000000926000001021032U5    AMAMSD  005400370024
BI00B32U9    TP0384S        202202107114-6041                TERMINAL                 CCN000003600000003600FN00000000020220301000003600NNE   20220117174121U9  4P0P  00000360000000580700000824232U9    YNYNA-E 006400630015
BI00B32U9    TP0384S        202202107298-1186-40             SQUIB SUB ASS'Y          CCN000010000000010000FN00000000020220301000010000NNE   20220117174121U9  4N0N  00001000000000650000000774532U9    YNYNA-E 005400370024
BI00B32U9    TPA211         202202107114-4031                TERMINAL                 CCN000010500000010500FN00000000020220301000010500NNM   20220117174121U9  4P0P  00001050000000966000001294632U9    YNYNA-E 006400630017
BI00B32U9    TPA211         202202107114-6041                TERMINAL                 CCN000010800000010800FN00000000020220301000010800NNM   20220117174121U9  4P0P  00000360000000580700000824232U9    YNYNA-E 006400630015
BI00B32U9    TPA211         202202107116-4037                TERMINAL                 CCN000006000000006000FN00000000020220301000006000NNM   20220117174121U9  4P0P  00000600000000600000000894232U9    YNYNA-E 006400630015
BI00B32U9    TPA211         202202107116-2951-02             TERMINAL                 CCN000081000000081000FN00000000020220301000081000NNM   20220117174121U9  4P0P  00000540000000817600001111832U9    YNYNA-E 006400630015
BI00B32U9    TPA211         202202107116-4060-02             TERMINAL                 CCN000024000000024000FN00000000020220301000024000NNM   20220117174121U9  1P0P  00002400000000511200000984232U9    YNYNA-E 006400630017
BI00B32U9    TPA211         202202107116-4231-02             TERMINAL                 CCN000442000000442000FN00000000020220301000442000NNM   20220117174121U9  4P0P  00002600000000683800001012532U9    YNYNA-E 006400630017
BI00B32U9    TPA211         202202107158-3006-90             RUBBER STOPPER           CCN000040000000040000FN00000000020220301000040000NNM   20220117174121U9  1C0C  00002000000000330600000386032U9    YNYNA-E 002700430014
BI00B32U9    TPA211         202202107158-3165-90             WIRE SEAL                CCN000600000000600000FN00000000020220301000600000NNM   20220117174121U9  1C0C  00004000000000124000000172432U9    YNYNA-E 004300270014
BI00B32U9    TPA211         202202107158-3166-60             WIRE SEAL                CCN000440000000440000FN00000000020220301000440000NNM   20220117174121U9  1C0C  00004000000000104000000152432U9    YNYNA-E 002700430014
BI00B32U9    TPA211         202202107158-3167-80             WIRE SEAL                CCN000240000000240000FN00000000020220301000240000NNM   20220117174121U9  1C0C  00002000000000048000000109032U9    YNYNA-E 002700430014
BI00B32U9    TPA211         202202107158-3169-40             SEALING PLUG             CCN000240000000240000FN00000000020220301000240000NNM   20220117174121U9  1C0C  00004000000000156000000204132U9    YNYNA-E 004300260014
BI00B32U9    TPA211         202202107172-5540-80             SEALED WIRE SEAL         CCN000020000000020000FN00000000020220301000020000NNM   20220117174121U9  1C0C  00002000000000186000000234432U9    YNYNA-E 004300270014
BI00B32U9    TPA211         202202107174-1849-70             COVER                    CCN000025000000025000FN00000000020220301000025000NNM   20220117174121U9  1F0F  00002500000000622500000761932U9    YNYNA-E 005400370024
BI00B32U9    TPA211         202202107196-0805-02             TERMINAL FEMALE          CCN000022500000022500FN00000000020220301000022500NNM   20220117174121U9  4P0P  00002250000000558000000843232U9    YNYNA-E 006400630015
BI00B32U9    TPA211         202202107222-4220-30             CONNECTOR                CCN000003000000003000FN00000000020220301000003000NNM   20220117174121U9  4N0N  00000075000001219000001384032U9    YNYNA-E 005600390040
BI00B32U9    TPA211         202202107282-5574-10             CONNECTOR                CCN000011200000011200FN00000000020220301000011200NNM   20220117174121U9  4N0N  00000080000001235000001423032U9    YNYNA-E 005600390040
BI00B32U9    TPA211         202202107282-5684-10             CONNECTOR                CCN000001200000001200FN00000000020220301000001200NNM   20220117174121U9  4N0N  00000120000001477000001656032U9    YNYNA-E 005600390040
BI00B32U9    TPA211         202202107283-5623-60             CONNECTOR                CCN000003200000003200FN00000000020220301000003200NNM   20220117174121U9  1N0N  00000160000001546000001846332U9    YNYNA-E 005600390040
BI00B32U9    TPA211         202202107283-8599-30             CONNECTOR                CCN000007700000007700FN00000000020220301000007700NNM   20220117174121U9  4N0N  00000154000000947100001157032U9    YNYNA-E 005600390023
BI00B32U9    TPA211         202202107289-6868-30             SEALED ASSY FEMALE       CCN000020160000020160FN00000000020220301000020160NNM   20220117174121U9  4N0N  00000252000000839200001119232U9    YNYNA-E 005500360039
BI00B32U9    TPA211         202202107298-1186-40             SQUIB SUB ASS'Y          CCN000010000000010000FN00000000020220301000010000NNM   20220117174121U9  4N0N  00001000000000650000000774532U9    YNYNA-E 005400370024
BI00B32U9    TPA211         202202107298-1186-70             SQUIB SUB ASS'Y          CCN000010000000010000FN00000000020220301000010000NNM   20220117174121U9  4N0N  00001000000000650000000774532U9    YNYNA-E 005400370024
BI00B32U9    TPA211         202202107298-1187-30             SHUNT RING ASSEMBLY      CCN000010000000010000FN00000000020220301000010000NNM   20220117174121U9  4N0N  00001000000000647000000769532U9    YNYNA-E 005400370024
BI00B32U9    #TPA211        202202107147-9094                RETAINER                 CCN000006000000006000FN00000000020220301000006000NNM   20220117174121U9  2F0F  00000300000000717000000872932U9    YNYNA-E 005500360039
BI00B32U9    #TPA211        202202107157-3646                RUBBER STOPPER           CCN000080000000080000FN00000000020220301000080000NNM   20220117174121U9  2H0H  00002000000000184000000255232U9    YNYNA-E 002700430014
BI00B32U9    #TPA211        202202107047-1611-30             CLIP                     CCN000004000000004000FN00000000020220301000004000NNM   20220117174121U9  2F0F  00000200000001600000001739032U9    YNYNA-E 005600390040
BI00B32U9    #TPA211        202202107158-3376-50             CONNECTOR WIRE SEAL      CCN000060000000060000FN00000000020220301000060000NNM   20220117174121U9  2C0C  00002000000000184000000240732U9    YNYNA-E 002700430014
BI00B32U9    #TPA211        202202107282-6446-40             CONNECTOR                CCN000016500000016500FN00000000020220301000016500NNM   20220117174121U9  2N0N  00000150000001185000001368032U9    YNYNA-E 005500360039
BI00B32U9    #TPA211        202202107282-6457-40             CONNECTOR                CCN000000800000000800FN00000000020220301000000800NNM   20220117174121U9  2N0N  00000080000001137000001421332U9    YNYNA-E 005600390040
BI00B32U9    #TPA211        202202107282-8395-40             CONNECTOR                CCN000022000000022000FN00000000020220301000022000NNM   20220117174121U9  2N0N  00000100000001009000001188032U9    YNYNA-E 005500360039
BI00B32U9    #TPA211        202202107283-8397-40             CONNECTOR                CCN000009240000009240FN00000000020220301000009240NNM   20220117174121U9  2N0N  00000154000001007000001222732U9    YNYNA-E 005600390023
BI00B32W2    HN2202BNMW     202202017114-1475                TERMINAL                 CCN000013500000013500FN00000000020220201000013500NNE   20220117174121    4P0P  00001350000000480600000774232W2    HNHNY   006400630015
BI00B32W2    HN2202BNMW     202202017116-1685-02             TERMINAL                 CCN000024000000024000FN00000000020220201000024000NNE   20220117174121    4P0P  00002400000000897600001065232W2    HNHNY   005100280028
BI00B32W2    HN2202BNMW     202202017116-1686                TERMINAL                 CCN000021000000021000FN00000000020220201000021000NNE   20220117174121    4P0P  00002100000000861000001045632W2    HNHNY   005100280028
BI00B32W2    HN2202BNMW     202202017116-4031                TERMINAL                 CCN000015000000015000FN00000000020220201000015000NNE   20220117174121    4P0P  00000750000000619500000904732W2    HNHNY   006400630015
BI00B32W2    #HN2202BNMW    202202017183-2418                CONNECTOR HOUSING        CCN000004800000004800FN00000000020220201000004800NNE   20220117174121    2F0F  00000480000000917000001477032W2    HNHNY   005500360039
BI00B32W2    #HN2202BNMW    202202017282-1210                CONNECTOR MALE ASS'Y     CCN000001000000001000FN00000000020220201000001000NNE   20220117174121    2N0N  00000100000000336000000458532W2    HNHNY   005400370024
BI00B32W2    @HN2202BNMW    202202017282-1064-40             CONNECTOR ASS'Y          CCN000001600000001600FN00000000020220201000001600NNE   20220117174121    3N0N  00000080000000910400001136232W2    HNHNY   005500360039
BI00B32W2    @HN2202BNMW    202202017283-1100-60             CONNECTOR ASS'Y          CCN000001600000001600FN00000000020220201000001600NNE   20220117174121    3N0N  00000160000000567500000801432W2    HNHNY   005500360039
BI00B32W2    HN2202CWMW     202202017116-4026                TERMINAL                 CCN000016000000016000FN00000000020220201000016000NNE   20220117174121    4P0P  00001600000000664000000994332W2    HNHNY   006400630017
BI00B32W2    HN2202CWMW     202202017158-3070-80             RUBBER STOPPER           CCN000040000000040000FN00000000020220201000040000NNE   20220117174121    1C0C  00004000000000276000000333332W2    HNHNY   002700430014
BI00B32W2    HN2202CWMW     202202017289-4212-80             SEALED HOUSING ASS'Y     CCN000004000000004000FN00000000020220201000004000NNE   20220117174121    4N0N  00000200000000848600000978632W2    HNHNY   005400370024
BI00A32W4    4500184989     202201247116-4112-02             TERMINAL                 CCN000006000000006000FN00000000020220101000006000NNED0020220117174121W4O24P0P  00000600000000450000000738232W4O2  HJYHK-J 006400630015
BI00B32W4    4500187773     202212227288-6547                CONNECTOR MALE ASS'Y     CCN000013500000013500FN00000000020220301000013500NNED0420220117174121W4164N0N  00000075000001205300001340332W416  HJYHK   005400370024
BI00B32W4    4500187773     202203247289-6547                HOUSING FEMALE ASS'Y     CCN000014400000014400FN00000000020220301000014400NNED0420220117174121W4161N0N  00000240000001152000001362032W416  HJYHK   005500360039
BI00B32W4    4500187799     202203247158-3166-60             WIRE SEAL                CCN000200000000200000FN00000000020220301000200000NNED0020220117174121W4B71C0C  00004000000000104000000152432W4B7  HJYHK-J 002700430014
BI00B32W4    4500187799     202203247158-3169-40             SEALING PLUG             CCN000200000000200000FN00000000020220301000200000NNED0020220117174121W4B71C0C  00004000000000156000000204132W4B7  HJYHK-J 004300260014
BI00B32W4    4500187799     202203247158-3167-80             WIRE SEAL                CCN000400000000400000FN00000000020220301000400000NNED0020220117174121W4B71C0C  00002000000000048000000109032W4B7  HJYHK-J 002700430014
BI00B32W4    4500187800     202203247158-3167-80             WIRE SEAL                CCN001000000001000000FN00000000020220301001000000NNE   20220117174121W4B71C0C  00002000000000048000000109032W4B7  HJYHK-J 002700430014
BI00B32W4    4500187800     202203247158-3168-80             SEALED                   CCN000800000000800000FN00000000020220301000800000NNE   20220117174121W4B71C0C  00002000000000044000000092132W4B7  HJYHK-J 004300260014
BI00B32W4    4500187800     202203247158-3166-60             WIRE SEAL                CCN000120000000120000FN00000000020220301000120000NNE   20220117174121W4B71C0C  00004000000000104000000152432W4B7  HJYHK-J 002700430014
BI00B32W4    4500187800     202203247158-3169-40             SEALING PLUG             CCN000200000000200000FN00000000020220301000200000NNE   20220117174121W4B71C0C  00004000000000156000000204132W4B7  HJYHK-J 004300260014
BI00B32W4    #4500187800    202203247158-3007-10             RUBBER STOPPER           CCN000080000000080000FN00000000020220301000080000NNE   20220117174121W4B72H0H  00002000000000308000000362732W4B7  HJYHK-J 002700430014
BI00B32W4    4500187804     202202107114-4112-02             TERMINAL                 CCN000009000000009000FN00000000020220201000009000NNE   20220117174121W46 4P0P  00000900000000598500000927132W46   HJYHK   006400630017
BI00B32W4    4500187805     202203037116-4122-02             TERMINAL                 CCN000004500000004500FN00000000020220301000004500NNE   20220117174121W46 4P0P  00000450000000656600000950232W46   HJYHK   006400630015
BI00B32W4    4500187805     202203037116-2951-02             TERMINAL                 CCN000005400000005400FN00000000020220301000005400NNE   20220117174121W46 4P0P  00000540000000817600001111832W46   HJYHK   006400630015
BI00B32W4    4500187805     202203037116-4026                TERMINAL                 CCN000016000000016000FN00000000020220301000016000NNE   20220117174121W46 4P0P  00001600000000664000000994332W46   HJYHK   006400630017
BI00B32W4    4500187805     202203037116-4101-02             TERMINAL                 CCN000012000000012000FN00000000020220301000012000NNE   20220117174121W46 4P0P  00001200000000582000000876232W46   HJYHK   006400630015
BI00B32W4    4500187805     202203037116-4102-02             TERMINAL                 CCN000012000000012000FN00000000020220301000012000NNE   20220117174121W46 4P0P  00001200000000553200000841432W46   HJYHK   006400630015
BI00B32W4    #4500187805    202203037158-3121-80             WIRE SEAL                CCN000020000000020000FN00000000020220301000020000NNE   20220117174121W46 2C0C  00002000000000118000000187332W46   HJYHK   002700430014
BI00B32W4    4500187827     202203037327-6581-3W             BATTERY FUSE             CCN000000216000000216FN00000000020220301000000216NNE   20220117174121W4D44N0N  00000007200001230000001422532W4D4  HJYHK-J 005500360039
BI00B32W4    4500187827     202203037288-5000                HOUSING MALE ASS'Y       CCN000000336000000336FN00000000020220301000000336NNE   20220117174121W4D41N0N  00000033600000825200001035232W4D4  HJYHK-J 005400370024
BI00B32W4    4500187827     202203037327-6424-4W             BATTERY FUSE             CCN000000672000000672FN00000000020220301000000672NNE   20220117174121W4D44N0N  00000009600001109500001259632W4D4  HJYHK-J 005400370024
BI00B32W4    4500187827     202203037470-5237                J/B ASS'Y                CCN000000696000000696FN00000000020220301000000696NNE   20220117174121W4D41J0J  00000002400001320000001570032W4D4  HJYHK-J 005500360039
BI00B32W4    4500187827     202203037288-6547                CONNECTOR MALE ASS'Y     CCN000000750000000750FN00000000020220301000000750NNE   20220117174121W4D44N0N  00000075000001205300001340332W4D4  HJYHK-J 005400370024
BI00B32W4    4500187827     202203037286-4097                CONNECTOR MALE ASS'Y     CCN000001600000001600FN00000000020220301000001600NNE   20220117174121W4D41N0N  00000160000000768000000978032W4D4  HJYHK-J 005500360039
BI00B32W4    4500187827     202203037388-2978-30             HOUSING MALE ASS'Y       CCN000001920000001920FN00000000020220301000001920NNE   20220117174121W4D41N0N  00000048000000742000001122032W4D4  HJYHK-J 005500360039
BI00B32W4    4500187827     202203037287-9323                UNSEALED HOUSING SUB     CCN000002400000002400FN00000000020220301000002400NNE   20220117174121W4D41N0N  00000240000000537600000690032W4D4  HJYHK-J 005600390023
BI00B32W4    4500187827     202203037289-6547                HOUSING FEMALE ASS'Y     CCN000002400000002400FN00000000020220301000002400NNE   20220117174121W4D41N0N  00000240000001152000001362032W4D4  HJYHK-J 005500360039
BI00B32W4    4500187827     202203037289-3342-90             HOUSING FEMALE ASS'Y     CCN000002400000002400FN00000000020220301000002400NNE   20220117174121W4D41N0N  00000240000000686400000901432W4D4  HJYHK-J 005500360039
BI00B32W4    4500187827     202203037289-3342-40             HOUSING FEMALE ASS'Y     CCN000002400000002400FN00000000020220301000002400NNE   20220117174121W4D41N0N  00000240000000686400000901432W4D4  HJYHK-J 005500360039
BI00B32W4    4500187827     202203037289-9553-50             SEALED ASSY FEMALE       CCN000002940000002940FN00000000020220301000002940NNE   20220117174121W4D44N0N  00000294000001108100001520632W4D4  HJYHK-J 005500360039
BI00B32W4    4500187827     202203037289-3342                HOUSING FEMALE ASS'Y     CCN000004800000004800FN00000000020220301000004800NNE   20220117174121W4D41N0N  00000240000000686400000901432W4D4  HJYHK-J 005500360039
BI00B32W4    4500187827     202203037289-6868-30             SEALED ASSY FEMALE       CCN000005040000005040FN00000000020220301000005040NNE   20220117174121W4D44N0N  00000252000000839200001119232W4D4  HJYHK-J 005500360039
BI00B32W4    4500187827     202203037298-4094-10             HOUSING FEMALE ASS'Y     CCN000006760000006760FN00000000020220301000006760NNE   20220117174121W4D44N0N  00000338000001097400001358732W4D4  HJYHK-J 005400370024
BI00B32W4    4500187827     202203037298-1145-4W             SQUIB SUB ASS'Y          CCN000010000000010000FN00000000020220301000010000NNE   20220117174121W4D44N0N  00001000000000787900000944932W4D4  HJYHK-J 005400370024
BI00B32W4    4500187827     202203037289-3342-30             HOUSING FEMALE ASS'Y     CCN000012000000012000FN00000000020220301000012000NNE   20220117174121W4D41N0N  00000240000000686400000901432W4D4  HJYHK-J 005500360039
BI00B32W4    4500187827     202203037116-1685-02             TERMINAL                 CCN000096000000096000FN00000000020220301000096000NNE   20220117174121W4D44P0P  00002400000000897600001065232W4D4  HJYHK-J 005100280028
BI00B32W4    #4500187827    202203037035-0023-30             DASH GROMMET             CCN000000060000000060FN00000000020220301000000060NNE   20220117174121W4D42H0H  00000006000000438000000561032W4D4  HJYHK-J 005600390040
BI00B32W4    #4500187827    202203037289-2913-30             HOUSING FEMALE ASS'Y     CCN000001500000001500FN00000000020220301000001500NNE   20220117174121W4D42N0N  00000150000000907500001034532W4D4  HJYHK-J 005400360024
BI00B32W4    #4500187827    202203037174-1760-50             CAP                      CCN000003000000003000FN00000000020220301000003000NNE   20220117174121W4D42F0F  00000300000000813600000922632W4D4  HJYHK-J 005400370024
BI00B32W4    #4500187827    202203037189-2978-30             HOUSING FEMALE           CCN000003000000003000FN00000000020220301000003000NNE   20220117174121W4D42F0F  00000150000000966900001096932W4D4  HJYHK-J 005400370024
BI00A32W4    4500187829     202202107289-5000                HOUSING FEMALE ASS'Y     CCN000000304000000304FN00000000020220201000000304NNE   20220117174121W48 1N0N  00000030400000549000000759032W48   HJYHK   005400370024
BI00A32W4    4500187829     202202107288-5000                HOUSING MALE ASS'Y       CCN000000336000000336FN00000000020220201000000336NNE   20220117174121W48 1N0N  00000033600000825200001035232W48   HJYHK   005400370024
BI00A32W4    #4500187829    202202107174-1164                COVER                    CCN000000800000000800FN00000000020220201000000800NNE   20220117174121W48 2F0F  00000080000000592000000712032W48   HJYHK   005500360039
BI00B32W4    4500187832     202203177116-4120-02             TERMINAL                 CCN000006000000006000FN00000000020220301000006000NNE   20220117174121W48 4P0P  00000600000000780000001073632W48   HJYHK   006400630015
BI00B32W4    4500187832     202203177116-1230                TERMINAL                 CCN000013500000013500FN00000000020220301000013500NNE   20220117174121W48 4P0P  00001350000000664200000952432W48   HJYHK   006400630015
BI00B32W4    4500187832     202203177116-4025                TERMINAL                 CCN000016000000016000FN00000000020220301000016000NNE   20220117174121W48 4P0P  00001600000000644800000975132W48   HJYHK   006400630017
BI00B32W4    4500187832     202203177116-4121-02             TERMINAL                 CCN000027000000027000FN00000000020220301000027000NNE   20220117174121W48 4P0P  00000450000000618800000912432W48   HJYHK   006400630015
BI00B32W4    4500187832     202203177158-3165-90             WIRE SEAL                CCN000040000000040000FN00000000020220301000040000NNE   20220117174121W48 1C0C  00004000000000124000000172432W48   HJYHK   004300270014
BI00B32W4    4500187832     202203177158-3006-90             RUBBER STOPPER           CCN000020000000020000FN00000000020220301000020000NNE   20220117174121W48 1C0C  00002000000000330600000386032W48   HJYHK   002700430014
BI00B32W4    4500187832     202203177158-3166-60             WIRE SEAL                CCN000080000000080000FN00000000020220301000080000NNE   20220117174121W48 1C0C  00004000000000104000000152432W48   HJYHK   002700430014
BI00B32W4    #4500187832    202203177158-3121-80             WIRE SEAL                CCN000040000000040000FN00000000020220301000040000NNE   20220117174121W48 2C0C  00002000000000118000000187332W48   HJYHK   002700430014
BI00B32W4    #4500187832    202203177123-6423-30             CONNECTOR                CCN000004000000004000FN00000000020220301000004000NNE   20220117174121W48 2F0F  00000200000001002000001167632W48   HJYHK   005600390023
BI00B32W4    @4500187832    202203177123-4312-80             HOUSING                  CCN000004800000004800FN00000000020220301000004800NNE   20220117174121W48 3F0F  00000080000000644200000794032W48   HJYHK   005500360039
BI00B32W4    4500187833     202203107116-4122-02             TERMINAL                 CCN000004500000004500FN00000000020220301000004500NNE   20220117174121W48 4P0P  00000450000000656600000950232W48   HJYHK   006400630015
BI00B32W4    4500187833     202203107116-4025                TERMINAL                 CCN000016000000016000FN00000000020220301000016000NNE   20220117174121W48 4P0P  00001600000000644800000975132W48   HJYHK   006400630017
BI00B32W4    4500187833     202203107116-4121-02             TERMINAL                 CCN000018000000018000FN00000000020220301000018000NNE   20220117174121W48 4P0P  00000450000000618800000912432W48   HJYHK   006400630015
BI00B32W4    4500187833     202203107158-3070-80             RUBBER STOPPER           CCN000040000000040000FN00000000020220301000040000NNE   20220117174121W48 1C0C  00004000000000276000000333332W48   HJYHK   002700430014
BI00B32W4    4500187833     202203107158-3006-90             RUBBER STOPPER           CCN000020000000020000FN00000000020220301000020000NNE   20220117174121W48 1C0C  00002000000000330600000386032W48   HJYHK   002700430014
BI00B32W4    4500187833     202203107158-3166-60             WIRE SEAL                CCN000040000000040000FN00000000020220301000040000NNE   20220117174121W48 1C0C  00004000000000104000000152432W48   HJYHK   002700430014
BI00B32W4    4500187833     202203107222-6244-40             CONNECTOR                CCN000003200000003200FN00000000020220301000003200NNE   20220117174121W48 4N0N  00000080000001239200001422032W48   HJYHK   005600390040
BI00B32W4    4500187833     202203107289-7615-30             HOUSING FEMALE ASS'Y     CCN000003520000003520FN00000000020220301000003520NNE   20220117174121W48 4N0N  00000032000000738000000948032W48   HJYHK   005400370024
BI00B32W4    4500187833     202203107172-1372-10             FRONT HOLDER             CCN000003900000003900FN00000000020220301000003900NNE   20220117174121W48 4F0F  00000390000000655200000955232W48   HJYHK   005500360039
BI00B32W4    4500187833     202203107283-1156                CONNECTOR                CCN000000800000000800FN00000000020220301000000800NNE   20220117174121W48 4N0N  00000080000000877600001078032W48   HJYHK   005600390040
BI00B32W4    #4500187833    202203107123-6423-30             CONNECTOR                CCN000004000000004000FN00000000020220301000004000NNE   20220117174121W48 2F0F  00000200000001002000001167632W48   HJYHK   005600390023
BI00B32W4    #4500187833    202203107157-3952-80             RUBBER STOPPER           CCN000010000000010000FN00000000020220301000010000NNE   20220117174121W48 2C0C  00001000000000117000000175032W48   HJYHK   002700430014
BI00B32W4    @4500187833    202203107123-4312-80             HOUSING                  CCN000002400000002400FN00000000020220301000002400NNE   20220117174121W48 3F0F  00000080000000644200000794032W48   HJYHK   005500360039
BI00B32W4    4500187834     202203037116-4122-02             TERMINAL                 CCN000004500000004500FN00000000020220301000004500NNE   20220117174121W48 4P0P  00000450000000656600000950232W48   HJYHK   006400630015
BI00B32W4    4500187834     202203037222-6244-40             CONNECTOR                CCN000001600000001600FN00000000020220301000001600NNE   20220117174121W48 4N0N  00000080000001239200001422032W48   HJYHK   005600390040
BI00B32W4    4500187834     202203037289-7615-30             HOUSING FEMALE ASS'Y     CCN000002880000002880FN00000000020220301000002880NNE   20220117174121W48 4N0N  00000032000000738000000948032W48   HJYHK   005400370024
BI00B32W4    #4500187834    202203037157-3950-80             SEAL RUBBER              CCN000040000000040000FN00000000020220301000040000NNE   20220117174121W48 2C0C  00004000000000154000000440332W48   HJYHK   002700430014
BI00B32W4    #4500187834    202203037157-3952-80             RUBBER STOPPER           CCN000010000000010000FN00000000020220301000010000NNE   20220117174121W48 2C0C  00001000000000117000000175032W48   HJYHK   002700430014
BI00B32W4    #4500187835    202202177158-3003-90             RUBBER STOPPER           CCN000040000000040000FN00000000020220201000040000NNE   20220117174121W48 2C0C  00002000000000250000000306032W48   HJYHK   002700430014
BI00B32W4    #4500187836    202202107158-3003-90             RUBBER STOPPER           CCN000040000000040000FN00000000020220201000040000NNE   20220117174121W48 2C0C  00002000000000250000000306032W48   HJYHK   002700430014
BI00A32W4    #4500187854    202202217158-3005-80             RUBBER STOPPER           CCN000020000000020000FN00000000020220201000020000NNE   20220117174121W4L62H0H  00002000000000210000000268732W4L6  HJYHK-K 002700430014
BI00A32W4    4500187856     202202177158-3167-80             WIRE SEAL                CCN000040000000040000FN00000000020220201000040000NNE   20220117174121W9151C0C  00002000000000048000000109032W915  HJYHK   002700430014
BI00A32W4    4500187859     202203037158-3167-80             WIRE SEAL                CCN000040000000040000FN00000000020220301000040000NNE   20220117174121W9151C0C  00002000000000048000000109032W915  HJYHK   002700430014
BI00B32W4    4500187881     202203157116-1180                TERMINAL                 CCN000175500000175500FN00000000020220301000175500NNE   20220117174121W41 1P0P  00001950000000618200000903432W41   HJYHK   006400630015
BI00B32W4    4500187881     202203157017-1180-02             TERMINAL                 CCN000216000000216000FN00000000020220301000216000NNE   20220117174121W41 4P0P  00007200000001065600001229032W41   HJYHK   005100280028
BI00A32W4    4500187897     202203047283-5845                CONNECTOR HOUSING        CCN000018000000018000FN00000000020220301000018000NNE   20220117174121W4731N0N  00000600000000444000000606332W473  HJYHK-J 005400370024
BI00A32W4    4500187897     202203047116-4231-02             TERMINAL                 CCN000052000000052000FN00000000020220301000052000NNE   20220117174121W4734P0P  00002600000000683800001012532W473  HJYHK-J 006400630017
BI00B32W9    #4500187876    202202227158-3003-90             RUBBER STOPPER           CCN000020000000020000FN00000000020220201000020000NNE   20220117174121W9  2C0C  00002000000000250000000306032W9    HKYHK   002700430014
BI00B32W9    #4500187876    202202227283-8398-40             CONNECTOR                CCN000015400000015400FN00000000020220201000015400NNE   20220117174121W9  2N0N  00000154000001007000001171332W9    HKYHK   005600390023
BI00B32W9    4500187903     202203087017-1180-02             TERMINAL                 CCN000072000000072000FN00000000020220301000072000NNE   20220117174121W9  4P0P  00007200000001065600001229032W9    HKYHK   005100280028
BI00B32X5    TIB2014        202203047116-4037                TERMINAL                 CCN000006000000006000FN00000000020220501000006000NNM   20220117174121X5  4P0P  00000600000000600000000894232X5    EPYNA-E 006400630015
BI00B32X5    TIB2014        202203047270-8994                6P MODULE ASSEMBLY       CCN000001200000001200FN00000000020220501000001200NNM   20220117174121X5  4J0J  00000010000001098600001298632X5    EPYNA-E 005400370024
BI00B32X5    TIB2014        202203047287-8072                HOUSING FEMALE ASS'Y     CCN000002400000002400FN00000000020220501000002400NNM   20220117174121X5  1N0N  00000240000001221600001441632X5    EPYNA-E 005500360039
BI00B32X5    TIB2014        202203047288-6547                CONNECTOR MALE ASS'Y     CCN000015000000015000FN00000000020220501000015000NNM   20220117174121X5  4N0N  00000075000001205300001340332X5    EPYNA-E 005400370024
BI00B32X5    TIB2014        202203047289-6547                HOUSING FEMALE ASS'Y     CCN000004800000004800FN00000000020220501000004800NNM   20220117174121X5  1N0N  00000240000001152000001362032X5    EPYNA-E 005500360039
BI00B32X5    TIB2014        202203047017-1180-02             TERMINAL                 CCN000504000000504000FN00000000020220501000504000NNM   20220117174121X5  4P0P  00007200000001065600001229032X5    EPYNA-E 005100280028
BI00B32X5    TIB2014        202203047017-1182-02             TERMINAL                 CCN000045000000045000FN00000000020220501000045000NNM   20220117174121X5  4P0P  00004500000001165500001318632X5    EPYNA-E 005100280028
BI00B32X5    TIB2014        202203047114-4486-02             TERMINAL                 CCN000096000000096000FN00000000020220501000096000NNM   20220117174121X5  4P0P  00002400000000662400000956032X5    EPYNA-E 006400630015
BI00B32X5    TIB2014        202203047114-4624-02             TERMINAL                 CCN000024000000024000FN00000000020220501000024000NNM   20220117174121X5  4P0P  00002400000000895200001188832X5    EPYNA-E 006400630015
BI00B32X5    TIB2014        202203047116-1685-02             TERMINAL                 CCN000096000000096000FN00000000020220501000096000NNM   20220117174121X5  4P0P  00002400000000897600001065232X5    EPYNA-E 005100280028
BI00B32X5    TIB2014        202203047116-1686-02             TERMINAL                 CCN000021000000021000FN00000000020220501000021000NNM   20220117174121X5  4P0P  00002100000000869400001021632X5    EPYNA-E 005100280028
BI00B32X5    TIB2014        202203047116-2951-02             TERMINAL                 CCN000010800000010800FN00000000020220501000010800NNM   20220117174121X5  4P0P  00000540000000817600001111832X5    EPYNA-E 006400630015
BI00B32X5    TIB2014        202203047116-4486-02             TERMINAL                 CCN000168000000168000FN00000000020220501000168000NNM   20220117174121X5  4P0P  00002800000000666400000995132X5    EPYNA-E 006400630017
BI00B32X5    TIB2014        202203047116-5045-02             TERMINAL                 CCN000160000000160000FN00000000020220501000160000NNM   20220117174121X5  4P0P  00001600000000678400001007132X5    EPYNA-E 006400630017
BI00B32X5    TIB2014        202203047116-5046-02             TERMINAL                 CCN000072000000072000FN00000000020220501000072000NNM   20220117174121X5  4P0P  00001200000000544800000873532X5    EPYNA-E 006400630017
BI00B32X5    TIB2014        202203047137-3047-30             UNIT PACKING             CCN000008000000008000FN00000000020220501000008000NNM   20220117174121X5  1C0C  00000100000000170500000218932X5    EPYNA-E 002700430014
BI00B32X5    TIB2014        202203047158-3167-80             WIRE SEAL                CCN000020000000020000FN00000000020220501000020000NNM   20220117174121X5  1C0C  00002000000000048000000109032X5    EPYNA-E 002700430014
BI00B32X5    TIB2014        202203047172-5402-30             SEAL RUBBER              CCN000032000000032000FN00000000020220501000032000NNM   20220117174121X5  1C0C  00000800000000457600000506032X5    EPYNA-E 004300270014
BI00B32X5    TIB2014        202203047172-5403-30             SEALED PACKING           CCN000020000000020000FN00000000020220501000020000NNM   20220117174121X5  1C0C  00000400000000653600000701732X5    EPYNA-E 004300270014
BI00B32X5    TIB2014        202203047173-3291-40             LIF LEVER                CCN000004800000004800FN00000000020220501000004800NNM   20220117174121X5  1F0F  00000240000000867800001067832X5    EPYNA-E 005500360039
BI00B32X5    TIB2014        202203047196-0510-02             TERMINAL                 CCN000048000000048000FN00000000020220501000048000NNM   20220117174121X5  4P0P  00002400000000871200001034632X5    EPYNA-E 002800510028
BI00B32X5    TIB2014        202203047196-1104-02             TERMINAL                 CCN000090000000090000FN00000000020220501000090000NNM   20220117174121X5  4P0P  00002250000000441000000726232X5    EPYNA-E 006400630015
BI00B32X5    TIB2014        202203047196-1325-02             TERMINAL FEMALE          CCN000180000000180000FN00000000020220501000180000NNM   20220117174121X5  4P0P  00006000000000450000000778732X5    EPYNA-E 006400630017
BI00B32X5    TIB2014        202203047196-1326-02             TERMINAL FEMALE          CCN000240000000240000FN00000000020220501000240000NNM   20220117174121X5  4P0P  00006000000000456000000784732X5    EPYNA-E 006400630017
BI00B32X5    TIB2014        202203047282-4576-90             HOUSING MALE ASS'Y       CCN000002400000002400FN00000000020220501000002400NNM   20220117174121X5  4N0N  00000240000000808800001028832X5    EPYNA-E 005500360039
BI00B32X5    TIB2014        202203047282-5574-10             CONNECTOR                CCN000012000000012000FN00000000020220501000012000NNM   20220117174121X5  4N0N  00000080000001235000001423032X5    EPYNA-E 005600390040
BI00B32X5    TIB2014        202203047283-4855-40             CONNECTOR HOUSING        CCN000002400000002400FN00000000020220501000002400NNM   20220117174121X5  4N0N  00000240000001188400001400032X5    EPYNA-E 005600360039
BI00B32X5    TIB2014        202203047288-3330-30             HOUSING MALE             CCN000013500000013500FN00000000020220501000013500NNM   20220117174121X5  4N0N  00000150000000866300001011232X5    EPYNA-E 005400370024
BI00B32X5    TIB2014        202203047289-3342-30             HOUSING FEMALE ASS'Y     CCN000038400000038400FN00000000020220501000038400NNM   20220117174121X5  1N0N  00000240000000686400000901432X5    EPYNA-E 005500360039
BI00B32X5    TIB2014        202203047289-3342-40             HOUSING FEMALE ASS'Y     CCN000012000000012000FN00000000020220501000012000NNM   20220117174121X5  1N0N  00000240000000686400000901432X5    EPYNA-E 005500360039
BI00B32X5    TIB2014        202203047289-5979-30             HOUSING FEMALE ASS'Y     CCN000003024000003024FN00000000020220501000003024NNM   20220117174121X5  1N0N  00000025200000854700001064732X5    EPYNA-E 005400370024
BI00B32X5    TIB2014        202203047296-0784-02             TERMINAL ALUMINIUM       CCN000096000000096000FN00000000020220501000096000NNM   20220117174121X5  4P0P  00002400000000480000000765232X5    EPYNA-E 006400630015
BI00B32X5    TIB2014        202203047388-2978-30             HOUSING MALE ASS'Y       CCN000007680000007680FN00000000020220501000007680NNM   20220117174121X5  1N0N  00000048000000742000001122032X5    EPYNA-E 005500360039
BI00B32X5    TIB2014        202203047327-6731-3W             BATTERY FUSE             CCN000001280000001280FN00000000020220501000001280NNM   20220117174121X5  4N0N  00000006400000697600000843032X5    EPYNA-E 005400370024
BI00B32X5    #TIB2014       202203047147-9094                RETAINER                 CCN000003000000003000FN00000000020220501000003000NNM   20220117174121X5  2F0F  00000300000000717000000872932X5    EPYNA-E 005500360039
BI00B32X5    #TIB2014       202203047158-3017                RUBBER STOPPER           CCN000020000000020000FN00000000020220501000020000NNM   20220117174121X5  2C0C  00001000000000375500000435032X5    EPYNA-E 002700430014
BI00B32X5    #TIB2014       202203047287-7859                HYBRID FEMALE ASS'Y      CCN000013200000013200FN00000000020220501000013200NNM   20220117174121X5  2N0N  00000120000000461600000671632X5    EPYNA-E 005500360039
BI00B32X5    #TIB2014       202203047287-9155                HOUSING FEMALE ASS'Y     CCN000008640000008640FN00000000020220501000008640NNM   20220117174121X5  2N0N  00000096000000853700001045232X5    EPYNA-E 005400370024
BI00B32X5    #TIB2014       202203047154-3424-30             REAR HOLDER              CCN000009000000009000FN00000000020220501000009000NNM   20220117174121X5  2F0F  00000300000000975000001138632X5    EPYNA-E 005500360039
BI00B32X5    #TIB2014       202203047158-3003-90             RUBBER STOPPER           CCN000140000000140000FN00000000020220501000140000NNM   20220117174121X5  2C0C  00002000000000250000000306032X5    EPYNA-E 002700430014
BI00B32X5    #TIB2014       202203047158-3004-40             RUBBER STOPPER           CCN000160000000160000FN00000000020220501000160000NNM   20220117174121X5  2C0C  00002000000000234000000306332X5    EPYNA-E 002700430014
BI00B32X5    #TIB2014       202203047158-3005-80             RUBBER STOPPER           CCN000020000000020000FN00000000020220501000020000NNM   20220117174121X5  2H0H  00002000000000210000000268732X5    EPYNA-E 002700430014
BI00B32X5    #TIB2014       202203047158-3007-10             RUBBER STOPPER           CCN000320000000320000FN00000000020220501000320000NNM   20220117174121X5  2H0H  00002000000000308000000362732X5    EPYNA-E 002700430014
BI00B32X5    #TIB2014       202203047158-3008-80             RUBBER STOPPER           CCN000040000000040000FN00000000020220501000040000NNM   20220117174121X5  2C0C  00002000000000288000000343032X5    EPYNA-E 004300270014
BI00B32X5    #TIB2014       202203047158-3610-80             RUBBER STOPPER           CCN000003000000003000FN00000000020220501000003000NNM   20220117174121X5  2H0H  00000300000000396900000438932X5    EPYNA-E 004300270014
BI00B32X5    #TIB2014       202203047172-5625-90             RUBBER STOPPER           CCN000060000000060000FN00000000020220501000060000NNM   20220117174121X5  2H0H  00002000000000082400000133832X5    EPYNA-E 004300270014
BI00B32X5    #TIB2014       202203047172-5627-60             RUBBER STOPPER           CCN000040000000040000FN00000000020220501000040000NNM   20220117174121X5  2H0H  00002000000000070400000121832X5    EPYNA-E 004300270014
BI00B32X5    #TIB2014       202203047172-5628-80             DUMMY PLUG               CCN000040000000040000FN00000000020220501000040000NNM   20220117174121X5  2H0H  00002000000000110600000162032X5    EPYNA-E 004300270014
BI00B32X5    #TIB2014       202203047172-5629-80             RUBBER STOPPER           CCN000200000000200000FN00000000020220501000200000NNM   20220117174121X5  2H0H  00002000000000060000000111132X5    EPYNA-E 004300270014
BI00B32X5    #TIB2014       202203047172-5630-40             RUBBER STOPPER           CCN000220000000220000FN00000000020220501000220000NNM   20220117174121X5  2H0H  00002000000000044000000095132X5    EPYNA-E 004300270014
BI00B32X5    #TIB2014       202203047172-5631-60             RUBBER STOPPER           CCN000060000000060000FN00000000020220501000060000NNM   20220117174121X5  2H0H  00002000000000042000000093132X5    EPYNA-E 004300270014
BI00B32X5    #TIB2014       202203047172-5632-10             DUMMY PLUG               CCN000240000000240000FN00000000020220501000240000NNM   20220117174121X5  2H0H  00002000000000080400000131832X5    EPYNA-E 004300270014
BI00B32X5    #TIB2014       202203047173-3225-10             LIF LEVER                CCN000002400000002400FN00000000020220501000002400NNM   20220117174121X5  2F0F  00000080000000592000000712032X5    EPYNA-E 005500360039
BI00B32X5    #TIB2014       202203047183-8251-40             HOUSING                  CCN000007200000007200FN00000000020220501000007200NNM   20220117174121X5  2F0F  00000240000000357600000640032X5    EPYNA-E 005500360039
BI00B32X5    #TIB2014       202203047183-8253-40             HOUSING                  CCN000004800000004800FN00000000020220501000004800NNM   20220117174121X5  2F0F  00000240000000528000000805032X5    EPYNA-E 005500360039
BI00B32X5    #TIB2014       202203047189-2978-30             HOUSING FEMALE           CCN000009000000009000FN00000000020220501000009000NNM   20220117174121X5  2F0F  00000150000000966900001096932X5    EPYNA-E 005400370024
BI00B32X5    #TIB2014       202203047189-3034-30             HOUSING FEMALE           CCN000001600000001600FN00000000020220501000001600NNM   20220117174121X5  2F0F  00000160000000972800001192832X5    EPYNA-E 005500360039
BI00B32X5    #TIB2014       202203047283-8397-40             CONNECTOR                CCN000004620000004620FN00000000020220501000004620NNM   20220117174121X5  2N0N  00000154000001007000001222732X5    EPYNA-E 005600390023
BI00B32X5    @TIB2014       202203047286-4098                CONNECTOR MALE ASS'Y     CCN000017600000017600FN00000000020220501000017600NNM   20220117174121X5  3N0N  00000160000000949100001163032X5    EPYNA-E 005500360039
BI00B32Y5    TTA32065       202205247289-3342                HOUSING FEMALE ASS'Y     CCN000016800000016800FN00000000020220601000016800NNED0420220117174121    1N0N  00000240000000686400000901432Y5    BZYBL   005500360039
