BI00B32AF    TTB204B        2022040818007704150              AVSS 1.25F R             CCN000012000000012000FN00000000020220401000012000NNE   20220318092744    1W    00000080000001389000000000032AF    HBYHVTB 000000000000UX423009
BI00B32AF    TTB204B        2022040818007704140              AVSS 1.25F W             CCN000012000000012000FN00000000020220401000012000NNE   20220318092744    1W    00000080000001389000000000032AF    HBYHVTB 000000000000UX423010
BI00B32AF    @TTB204B       20220422181B0911741              CAVSAS 0.3X3 GY          CCN000018500000018500FN00000000020220401000018500NNE   20220318092743    1W    00000025000002843000000000032AF    HBYHVTB 000000000000UT124001
BI00B32AF    @TTB204B       20220422181E48013ZZ              CAVSAS-S 0.3X3 GY        CCN000023500000023500FN00000000020220401000023500NNE   20220318092743    1W    00000025000002778200000000032AF    HBYHVTB 000000000000UT124002
BI00B32CJ    @TTQ205A       20220422181E48031ZZ              CAVSAS-S 0.3X2 GY        CCN000021000000021000FN00000000020220501000021000NNE   20220318095747    1W    00000035000002008700000000032CJ    QNYHVQN 000000000000UL124002
BI00B32CJ    @TTQ205A       20220422181AD2007ZZ              CIVUSAS-S 0.5X1 B        CCN000002000000002000FN00000000020220501000002000NNE   20220318095747    1W    00000050000001639600000000032CJ    QNYHVQN 000000000000UL124001
BI00B32G7    JW2205B MW     2022042818007703930              AVSS 0.5F B              CCN000001500000001500FN00000000020220501000001500NNE   20220318100926    1W    00000150000000674000000000032G7    JIJAI   000000000000JG224003
BI00B32G7    JW2205B MW     2022042818007703992              AVSS 0.5F V              CCN000001500000001500FN00000000020220501000001500NNE   20220318100926    1W    00000150000000674000000000032G7    JIJAI   000000000000JG224004
BI00B32G7    @JW2205B MW    20220428181AD2008ZZ              CIVUSAS-S 0.5X2 B        CCN000000800000000800FN00000000020220501000000800NNE   20220318100925    1W    00000040000002028000000000032G7    JIJAI   000000000000JG224001
BI00B32G7    JW2205BMMW     202204281801W004030              IVSSH 0.75F B            CCN000001300000001300FN00000000020220501000001300NNE   20220318100927    1W    00000130000000882000000000032G7    JIJAI   000000000000JH224002
BI00B32G7    JW2205BMMW     202204281801W004050              IVSSH 0.75F R            CCN000001300000001300FN00000000020220501000001300NNE   20220318100927    1W    00000130000000882000000000032G7    JIJAI   000000000000JH224003
BI00B32G7    JW2205BMMW     202204281801W004070              IVSSH 0.75F Y            CCN000001300000001300FN00000000020220501000001300NNE   20220318100927    1W    00000130000000882000000000032G7    JIJAI   000000000000JH224004
BI00B32G7    JW2205BMMW     202204281801W006961              IVSSH 0.35F LG           CCN000002500000002500FN00000000020220501000002500NNE   20220318100927    1W    00000250000000452000000000032G7    JIJAI   000000000000JH224006
BI00B32G7    JW2205BMMW     202204281801W006990              IVSSH 0.35F L            CCN000010000000010000FN00000000020220501000010000NNE   20220318100927    1W    00000250000000452000000000032G7    JIJAI   000000000000JH224005
BI00B32J1    @392707        20220411181E48015ZZ              CAVSAS-S 0.5X1 GY        CCN000003600000003600FN00000000020220401000003600NNE   20220318090951    1W    00000040000001900600000000032J1    UKYEL-BL000000000000KG523001
BI00B32J1    @392707        20220411181E48018ZZ              CAVSAS-S 0.5X2 GY/SB     CCN000001200000001200FN00000000020220401000001200NNE   20220318090951    1W    00000030000002561000000000032J1    UKYEL-BL000000000000KG523003
BI00B32J1    @392707        20220411181E48027ZZ              CAVSAS-S 0.5X2 GY/P      CCN000002100000002100FN00000000020220401000002100NNE   20220318090951    1W    00000030000002561000000000032J1    UKYEL-BL000000000000KG523002
BI00B32J1    @392707        20220411181E48031ZZ              CAVSAS-S 0.3X2 GY        CCN000000700000000700FN00000000020220401000000700NNE   20220318090951    1W    00000035000002008700000000032J1    UKYEL-BL000000000000KG523005
BI00B32J1    @392707        20220411181E48065ZZ              CAVSAS-S 0.5X4 GY/W      CCN000000400000000400FN00000000020220401000000400NNE   20220318090951    1W    00000020000003995000000000032J1    UKYEL-BL000000000000KG523004
BI00B32M8    @PM2204C MW    20220420181B09102K3              CAVSAS 0.5X2 GY/P        CCN000001200000001200FN00000000020220401000001200NNE   20220318101154    1W    00000030000002680000000000032M8    PMPEMI  000000000000IC124001
BI00B32M8    @PM2204C MW    20220420181F21009ZZ              AVSSHCS-S 0.5FX2 B       CCN000003600000003600FN00000000020220401000003600NNE   20220318101154    1W    00000030000002531400000000032M8    PMPEMI  000000000000IC124002
BI00B32M8    PM2204CTMW     202204061801W003930              IVSSH 0.5F B             CCN000005400000005400FN00000000020220401000005400NNE   20220318101156    1W    00000180000000625000000000032M8    PMPEMI  000000000000ID423001
BI00B32M8    PM2204CTMW     202204061801W003940              IVSSH 0.5F W             CCN000014400000014400FN00000000020220401000014400NNE   20220318101156    1W    00000180000000625000000000032M8    PMPEMI  000000000000ID423005
BI00B32M8    PM2204CTMW     202204061801W003941              IVSSH 0.5F GY            CCN000003600000003600FN00000000020220401000003600NNE   20220318101156    1W    00000180000000625000000000032M8    PMPEMI  000000000000ID423002
BI00B32M8    PM2204CTMW     202204061801W003950              IVSSH 0.5F R             CCN000030600000030600FN00000000020220401000030600NNE   20220318101156    1W    00000180000000625000000000032M8    PMPEMI  000000000000ID423004
BI00B32M8    PM2204CTMW     202204061801W003961              IVSSH 0.5F LG            CCN000009000000009000FN00000000020220401000009000NNE   20220318101156    1W    00000180000000625000000000032M8    PMPEMI  000000000000ID423003
BI00B32M8    PM2204CTMW     202204061801W00695U              IVSSH 0.35F BE           CCN000005000000005000FN00000000020220401000005000NNE   20220318101156    1W    00000250000000452000000000032M8    PMPEMI  000000000000ID423006
BI00B32M8    PM2204CTMW     202204061801W006970              IVSSH 0.35F Y            CCN000015000000015000FN00000000020220401000015000NNE   20220318101156    1W    00000250000000452000000000032M8    PMPEMI  000000000000ID423007
BI00B32W4    4500191086     2022050318018403992              CAVS 0.5 V               CCN000003000000003000FN00000000020220501000003000NNE   20220318150244W41 1W    00000150000000677000000000032W41   HJYHK-J 000000000000OY324001
BI00A32W4    @4500191115    20220523181D6910239              AVSSHCS 0.5FX2 B/L       CCN000001200000001200FN00000000020220501000001200NNE   20220318150242W4421W    00000030000002385000000000032W442  HJYHK-J 000000000000OG225001
BI00A32W4    @4500191127    20220530181B09116K3              CAVSAS 0.3X2 GY/P        CCN000000700000000700FN00000000020220501000000700NNE   20220318150243W4N21W    00000035000002254000000000032W4N2  HJYHK-J 000000000000OM325001
BI00B32W4    @4500191076    20220531181B32037Y5              AVSSCS 0.3FX1 DGY/W      CCN000004500000004500FN00000000020220601000004500NNE   20220318150245W4171W    00000050000001780000000000032W417  HJYHK-J 000000000000ON325001
BI00B32W4    @4500191076    20220531181B32116S1              AVSSCS 0.3FX2 DGY        CCN000003850000003850FN00000000020220601000003850NNE   20220318150245W4171W    00000035000002276000000000032W417  HJYHK-J 000000000000ON325002
