BI00A1200    HIB22031601    202204017196-2024-02             TERMINAL FEMALE          CCN000000003000024000FN00000000020220301000024000NNED0620220318134313    4P0P  0000240000000091920000108261200    YCYC    005100280028
BI00B1200    7504T52307     202206027154-7140-30             LOWER COVER              CCN000004200000004200FN00000000020220601000004200NNM   20220318122604    4F0F  0000000600000019900000041001200    YCYC    005600390040
BI00B1200    7504T52307     202206027254-5840-30             ENG R/B SUB ASS'Y        CCN000004200000004200FN00000000020220601000004200NNM   20220318122604    4J0J  0000000240000073200000095201200    YCYC    005600390040
BI00B1200    8100T52308     202204287289-3342-30             HOUSING FEMALE ASS'Y     CCN000002400000002400FN00000000020220501000002400NNE   20220318122604    1N0N  0000024000000068640000090141200    YCYC    005500360039
BI00B1200    #8100T52309    202204287298-2457-90             LIF FEMALE ASSEMBLY      CCN000000336000000336FN00000000020220501000000336NNE   20220318122604    2N0N  0000001680000053330000072891200    YCYC    005400370024
BI00B1200    #8100T52309    202204287298-2459-60             LIF FEMALE ASSEMBLY      CCN000000336000000336FN00000000020220501000000336NNE   20220318122604    2N0N  0000001680000053400000072961200    YCYC    005400370024
BI00B1200    7504T52308     202206307154-7140-30             LOWER COVER              CCN000004200000004200FN00000000020220801000004200NNM   20220318122604    4F0F  0000000600000019900000041001200    YCYC    005600390040
BI00B1200    7504T52308     202206307254-5840-30             ENG R/B SUB ASS'Y        CCN000004200000004200FN00000000020220801000004200NNM   20220318122604    4J0J  0000000240000073200000095201200    YCYC    005600390040
BI00A1200    HIB22031801    202203217196-2030-02             TERMINAL FEMALE          CCN000000003000015000FN00000000020220301000015000NNE   20220318145817    4P0P  0000150000000100200000116541200    YCYC    005100280028
BI00B32CA    PTA32092       202207217289-3342                HOUSING FEMALE ASS'Y     CCN000021600000021600FN00000000020220901000021600NNED0420220318165444    1N0N  00000240000000686400000901432CA    YPYPY   005500360039
BI00B32CA    PTA32092       202207217289-3342-30             HOUSING FEMALE ASS'Y     CCN000031200000031200FN00000000020220901000031200NNED0420220318165616    1N0N  00000240000000686400000901432CA    YPYPY   005500360039
BI00A32CA    PTA32042       202204087196-1461-06             TERMINAL FEMALE          PCN000216000000216000FN00000000020220301000216000NNM00020220318122604    4P0P  00002400000000386400000692932CA    YPYPY   006400630015
BI00A32CH    SJ22035HMW     202203187327-6884-30             MULTI FUSE               PCN000011808000017280FY00001728020220301000000000NNM00020220318154017    4N0N  00000028800000988900001154832CH    SJSAMIJF005400370024
BI00A32CH    SJ22035HMW     202203237327-6884-30             MULTI FUSE               PCN000006048000006048FN00000000020220301000006048NNM00020220318154017    4N0N  00000028800000988900001154832CH    SJSAMIJF005400370024
BI00B32CH    SJ2205A MW     202203317114-5746-02             TERMINAL                 CCN000021000000021000FN00000000020220501000021000NNE   20220318161331    4P0P  00002100000000695100000988732CH    SJSAMIJF006400630015
BI00B32CH    SJ2205A MW     202203317116-1685-02             TERMINAL                 CCN000024000000024000FN00000000020220501000024000NNE   20220318161331    4P0P  00002400000000897600001065232CH    SJSAMIJF005100280028
BI00B32CH    SJ2205ASMW     202203317116-1230                TERMINAL                 CCN000013500000013500FN00000000020220501000013500NNE   20220318161349    4P0P  00001350000000664200000952432CH    SJSAMIJF006400630015
BI00B32CH    SJ2205B MW     202203317114-5747-02             TERMINAL                 CCN000018000000018000FN00000000020220501000018000NNE   20220318161412    4P0P  00001800000000626400000920032CH    SJSAMIJF006400630015
BI00B32CH    SJ2205B MW     202203317116-2640                TERMINAL                 CCN000018000000018000FN00000000020220501000018000NNE   20220318161412    4P0P  00001800000001018800001196632CH    SJSAMIJF005100280028
BI00B32CH    #SJ2205B MW    202203317158-3008-80             RUBBER STOPPER           CCN000020000000020000FN00000000020220501000020000NNE   20220318161406    2C0C  00002000000000288000000343032CH    SJSAMIJF004300270014
BI00B32CJ    JQN204B        202204017017-1181-02             TERMINAL                 CCN000063000000063000FN00000000020220401000063000NNE   20220318122604    4P0P  00006300000001089900001266832CJ    QNYHVQN 005100280028
BI00B32CJ    JQN204B        202204017114-4032                TERMINAL                 CCN000015000000015000FN00000000020220401000015000NNE   20220318122604    4P0P  00000750000000735000001063632CJ    QNYHVQN 006400630017
BI00B32CJ    JQN204B        202204017114-5748-02             TERMINAL                 CCN000024000000024000FN00000000020220401000024000NNE   20220318122604    4P0P  00001200000000444000000737632CJ    QNYHVQN 006400630015
BI00B32CJ    JQN204B        202204017114-5753-02             TERMINAL                 CCN000027000000027000FN00000000020220401000027000NNE   20220318122604    4P0P  00002700000000847800001141432CJ    QNYHVQN 006400630015
BI00B32CJ    JQN204B        202204017116-1685-02             TERMINAL                 CCN000024000000024000FN00000000020220401000024000NNE   20220318122604    4P0P  00002400000000897600001065232CJ    QNYHVQN 005100280028
BI00B32CJ    JQN204B        202204017116-4231-02             TERMINAL                 CCN000026000000026000FN00000000020220401000026000NNE   20220318122604    4P0P  00002600000000683800001012532CJ    QNYHVQN 006400630017
BI00B32CJ    JQN204B        202204017116-4486-02             TERMINAL                 CCN000084000000084000FN00000000020220401000084000NNE   20220318122604    4P0P  00002800000000666400000995132CJ    QNYHVQN 006400630017
BI00B32CJ    JQN204B        202204017116-5035-02             TERMINAL                 CCN000060000000060000FN00000000020220401000060000NNE   20220318122604    4P0P  00001500000000543000000828232CJ    QNYHVQN 006400630015
BI00B32CJ    JQN204B        202204017116-5044-02             TERMINAL                 CCN000064000000064000FN00000000020220401000064000NNE   20220318122604    4P0P  00001600000000641600000986332CJ    QNYHVQN 006400630017
BI00B32CJ    JQN204B        202204017116-6042                TERMINAL                 CCN000003000000003000FN00000000020220401000003000NNE   20220318122604    4P0P  00000300000000523800000856132CJ    QNYHVQN 006400630015
BI00B32CJ    JQN204B        202204017126-8853-02             TERMINAL                 CCN000030000000030000FN00000000020220401000030000NNE   20220318122604    4P0P  00000750000000562500000847732CJ    QNYHVQN 006400630015
BI00B32CJ    JQN204B        202204017196-1103-02             TERMINAL                 CCN000090000000090000FN00000000020220401000090000NNE   20220318122604    4P0P  00002250000000429800000715032CJ    QNYHVQN 006400630015
BI00B32CJ    JQN204B        202204087282-4578                HOUSING MALE ASS'Y       CCN000003600000003600FN00000000020220401000003600NNED0720220318122604    4N0N  00000120000000782600000992632CJ    QNYHVQN 005500360039
BI00B32CJ    JQN204B        202204087283-4577                CONNECTOR HOUSING        CCN000009600000009600FN00000000020220401000009600NNED0720220318122604    4N0N  00000480000000916800001136832CJ    QNYHVQN 005500360039
BI00B32CJ    JQN204B        202204087287-3885                HYBRID FEMALE ASS'Y      CCN000004800000004800FN00000000020220401000004800NNED0720220318122604    1N0N  00000240000001029600001249632CJ    QNYHVQN 005500360039
BI00B32CJ    JQN204B        202204087289-3342                HOUSING FEMALE ASS'Y     CCN000009600000009600FN00000000020220401000009600NNED0720220318122604    1N0N  00000240000000686400000901432CJ    QNYHVQN 005500360039
BI00B32CJ    #JQN204B       202204017047-5654-30             CLIP                     CCN000010000000010000FN00000000020220401000010000NNE   20220318122604    2F0F  00000500000000657000000825332CJ    QNYHVQN 005500360039
BI00B32CJ    #JQN204B       202204017172-5629-80             RUBBER STOPPER           CCN000100000000100000FN00000000020220401000100000NNE   20220318122604    2H0H  00002000000000060000000111132CJ    QNYHVQN 004300270014
BI00B32CJ    #JQN204B       202204017183-2413                CONNECTOR HOUSING        CCN000019200000019200FN00000000020220401000019200NNE   20220318122604    2F0F  00000480000000478100000760032CJ    QNYHVQN 005500360039
BI00B32CJ    #JQN204B       202204017183-2415-30             CONNECTOR HOUSING        CCN000004800000004800FN00000000020220401000004800NNE   20220318122604    2F0F  00000480000000798200001091432CJ    QNYHVQN 005500360039
BI00B32CJ    #JQN204B       202204017187-1616                HOUSING FEMALE           CCN000008000000008000FN00000000020220401000008000NNE   20220318122604    2F0F  00000400000001152000001262032CJ    QNYHVQN 005500360039
BI00B32CJ    #JQN204B       202204017282-5528-70             HOUSING MALE ASS'Y       CCN000020000000020000FN00000000020220401000020000NNE   20220318122604    2N0N  00000100000000230000000339032CJ    QNYHVQN 005400370024
BI00B32CJ    #JQN204B       202204017287-1669                HOUSING FEMALE ASS'Y     CCN000016000000016000FN00000000020220401000016000NNE   20220318122604    2N0N  00000200000000788800000980832CJ    QNYHVQN 005400370024
BI00B32DE    TCT205B        202204217114-4231-02             TERMINAL                 CCN000018000000018000FN00000000020220501000018000NNE   20220318122604    4P0P  00001800000000554400000848032DE    TVYEV-TV006400630015
BI00B32DE    TCT205B        202204217114-4728-02             TERMINAL                 CCN000090000000090000FN00000000020220501000090000NNE   20220318122604    4P0P  00003000000000510000000804232DE    TVYEV-TV006400630015
BI00B32DE    TCT205B        202204217114-5748-02             TERMINAL                 CCN000012000000012000FN00000000020220501000012000NNE   20220318122604    4P0P  00001200000000444000000737632DE    TVYEV-TV006400630015
BI00B32DE    TCT205B        202204217116-3153-08             TERMINAL                 CCN000027000000027000FN00000000020220501000027000NNE   20220318122604    4P0P  00002700000000461700000746932DE    TVYEV-TV006400630015
BI00B32DE    TCT205B        202204217116-5750-02             TERMINAL                 CCN000015000000015000FN00000000020220501000015000NNE   20220318122604    4P0P  00001500000000457500000742732DE    TVYEV-TV006400630015
BI00B32DE    TCT205B        202204217116-5752-02             TERMINAL                 CCN000021000000021000FN00000000020220501000021000NNE   20220318122604    4P0P  00002100000000571200000856432DE    TVYEV-TV006400630015
BI00B32DE    TCT205B        202204217195-1479-02             TERMINAL MALE            CCN000024000000024000FN00000000020220501000024000NNE   20220318122604    4P0P  00002400000000420000000714232DE    TVYEV-TV006400630015
BI00B32DE    TCT205B        202204217196-1481-02             TERMINAL FEMALE          CCN000120000000120000FN00000000020220501000120000NNE   20220318122604    4P0P  00002400000000422400000707632DE    TVYEV-TV006400630015
BI00B32DE    TCT205B        202204217196-1934-02             TERMINAL FEMALE          CCN000039000000039000FN00000000020220501000039000NNE   20220318122604    4P0P  00001950000000561600000846832DE    TVYEV-TV006400630015
BI00B32DE    TCT205B        202204217196-1936-02             TERMINAL FEMALE          CCN000040500000040500FN00000000020220501000040500NNE   20220318122604    4P0P  00001350000000441500000726732DE    TVYEV-TV006400630015
BI00B32DE    TCT205B        202204217282-4576                HOUSING MALE ASS'Y       CCN000002400000002400FN00000000020220501000002400NNE   20220318122604    4N0N  00000240000000808800001028832DE    TVYEV-TV005500360039
BI00B32DE    TCT205B        202204217282-4577                HOUSING MALE ASS'Y       CCN000002400000002400FN00000000020220501000002400NNE   20220318122604    4N0N  00000240000000964800001174832DE    TVYEV-TV005500360039
BI00B32DE    TCT205B        202204217283-4577-30             CONNECTOR HOUSING        CCN000004800000004800FN00000000020220501000004800NNE   20220318122604    4N0N  00000480000000916800001136832DE    TVYEV-TV005500360039
BI00B32DE    TCT205B        202204217286-1900                CONNECTOR HOUSING        CCN000004800000004800FN00000000020220501000004800NNE   20220318122604    4N0N  00000480000001161600001376632DE    TVYEV-TV005500360039
BI00B32DE    TCT205B        202204217287-1915                CONNECTOR ASS'Y          CCN000002400000002400FN00000000020220501000002400NNE   20220318122604    4N0N  00000240000000666500000923132DE    TVYEV-TV005500360039
BI00B32DE    TCT205B        202204217287-1915-40             CONNECTOR ASS'Y          CCN000002400000002400FN00000000020220501000002400NNE   20220318122604    4N0N  00000240000000666500000923132DE    TVYEV-TV005500360039
BI00B32DE    TCT205B        202204217288-6547                CONNECTOR MALE ASS'Y     CCN000001500000001500FN00000000020220501000001500NNE   20220318122604    4N0N  00000075000001205300001340332DE    TVYEV-TV005400370024
BI00B32DE    TCT205B        202204217289-3342-30             HOUSING FEMALE ASS'Y     CCN000014400000014400FN00000000020220501000014400NNE   20220318122604    1N0N  00000240000000686400000901432DE    TVYEV-TV005500360039
BI00B32DE    TCT205B        202204217289-3342-90             HOUSING FEMALE ASS'Y     CCN000002400000002400FN00000000020220501000002400NNE   20220318122604    1N0N  00000240000000686400000901432DE    TVYEV-TV005500360039
BI00B32D1    DFTC2224       202204287288-6547                CONNECTOR MALE ASS'Y     CCN000006000000006000FN00000000020220601000006000NNMD0420220318165902    4N0N  00000075000001205300001340332D1    TOYOT-K 005400370024
BI00B32D1    DFTC2224       202205057289-3342                HOUSING FEMALE ASS'Y     CCN000019200000019200FN00000000020220601000019200NNMD0420220318165923    1N0N  00000240000000686400000901432D1    TOYOT-K 005500360039
BI00B32D1    DFTC2224       202205267289-3342-30             HOUSING FEMALE ASS'Y     CCN000048000000048000FN00000000020220601000048000NNMD0420220318170017    1N0N  00000240000000686400000901432D1    TOYOT-K 005500360039
BI00B32D1    DFTC2224       202205057289-3342-40             HOUSING FEMALE ASS'Y     CCN000002400000002400FN00000000020220601000002400NNMD0420220318170108    1N0N  00000240000000686400000901432D1    TOYOT-K 005500360039
BI00B32D1    DFTC2224       202205057289-3342-90             HOUSING FEMALE ASS'Y     CCN000002400000002400FN00000000020220601000002400NNMD0420220318170124    1N0N  00000240000000686400000901432D1    TOYOT-K 005500360039
BI00B32D4    #4513277070    202204207047-5344                RETAINER                 CCN000020000000020000FN00000000020220401000020000NNM   20220318161905    2F0F  00001000000000870000001016032D4    YRYRL   005600390023
BI00A32D9    I21504         202204087289-3342-30             HOUSING FEMALE ASS'Y     PCN000028800000028800FN00000000020220401000028800NNM00020220318122604    1N0N  00000240000000686400000901432D9    UEHESTO 005500360039
BI00B32EJ    T220317P02     202204077116-4025                TERMINAL                 CCN000016000000016000FN00000000020220401000016000NNE   20220318122604EJ  4P0P  00001600000000644800000975132EJ    EJYKBO  006400630017
BI00B32EJ    T220317P02     202204077116-4104-02             TERMINAL                 CCN000024000000024000FN00000000020220401000024000NNE   20220318122604EJ  4P0P  00001200000000580800000972432EJ    EJYKBO  006400630015
BI00B32EJ    T220317P02     202204077116-4102-02             TERMINAL                 CCN000012000000012000FN00000000020220401000012000NNE   20220318122604EJ  4P0P  00001200000000553200000841432EJ    EJYKBO  006400630015
BI00B32EJ    T220317P02     202204077116-2871                TERMINAL                 CCN000012000000012000FN00000000020220401000012000NNE   20220318122604EJ  1P0P  00001200000000842400001072632EJ    EJYKBO  005100280028
BI00B32EJ    T220317P02     202204077283-1968-30             CONNECTOR                CCN000001800000001800FN00000000020220401000001800NNE   20220318122604EJ  1N0N  00000090000001140000001318332EJ    EJYKBO  005600390040
BI00B32EJ    T220317P02     202204077116-4124-02             TERMINAL                 CCN000006000000006000FN00000000020220401000006000NNE   20220318122604EJ  4P0P  00000300000000459900000753532EJ    EJYKBO  006400630015
BI00B32EJ    T220317P02     202204077196-1461-06             TERMINAL FEMALE          CCN000024000000024000FN00000000020220401000024000NNE   20220318122604EJ  4P0P  00002400000000386400000692932EJ    EJYKBO  006400630015
BI00B32EJ    T220317P02     202204077114-4110-02             TERMINAL                 CCN000030000000030000FN00000000020220401000030000NNE   20220318122604EJ  4P0P  00001500000000901500001230132EJ    EJYKBO  006400630017
BI00B32EJ    T220317P02     202204077114-4111-02             TERMINAL                 CCN000012000000012000FN00000000020220401000012000NNE   20220318122604EJ  4P0P  00001200000000758400001087032EJ    EJYKBO  006400630017
BI00B32EJ    T220317P02     202204077114-4112-02             TERMINAL                 CCN000036000000036000FN00000000020220401000036000NNE   20220318122604EJ  4P0P  00000900000000598500000927132EJ    EJYKBO  006400630017
BI00B32EJ    T220317P02     202204077114-4100-02             TERMINAL                 CCN000018000000018000FN00000000020220401000018000NNE   20220318122604EJ  4P0P  00001800000000748800001077432EJ    EJYKBO  006400630017
BI00B32EJ    T220317P02     202204077116-4120-02             TERMINAL                 CCN000018000000018000FN00000000020220401000018000NNE   20220318122604EJ  4P0P  00000600000000780000001073632EJ    EJYKBO  006400630015
BI00B32EJ    T220317P02     202204077116-4122-02             TERMINAL                 CCN000045000000045000FN00000000020220401000045000NNE   20220318122604EJ  4P0P  00000450000000656600000950232EJ    EJYKBO  006400630015
BI00B32EJ    T220317P02     202204077116-4121-02             TERMINAL                 CCN000063000000063000FN00000000020220401000063000NNE   20220318122604EJ  4P0P  00000450000000618800000912432EJ    EJYKBO  006400630015
BI00B32EJ    T220317P02     202204077116-4112-02             TERMINAL                 CCN000024000000024000FN00000000020220401000024000NNE   20220318122604EJ  4P0P  00000600000000450000000738232EJ    EJYKBO  006400630015
BI00B32EJ    T220317P02     202204077116-4111-02             TERMINAL                 CCN000007500000007500FN00000000020220401000007500NNE   20220318122604EJ  4P0P  00000750000000529500000817732EJ    EJYKBO  006400630015
BI00B32EJ    T220317P02     202204077126-8854-02             TERMINAL                 CCN000015000000015000FN00000000020220401000015000NNE   20220318122604EJ  4P0P  00000750000000604500000889732EJ    EJYKBO  006400630015
BI00B32EJ    T220317P02     202204077116-2951-02             TERMINAL                 CCN000005400000005400FN00000000020220401000005400NNE   20220318122604EJ  4P0P  00000540000000817600001111832EJ    EJYKBO  006400630015
BI00B32EJ    T220317P02     202204077116-4022                TERMINAL                 CCN000013500000013500FN00000000020220401000013500NNE   20220318122604EJ  4P0P  00001350000000618300000903532EJ    EJYKBO  006400630015
BI00B32EJ    T220317P02     202204077158-3166-60             WIRE SEAL                CCN000960000000960000FN00000000020220401000960000NNE   20220318122604EJ  1C0C  00004000000000104000000152432EJ    EJYKBO  002700430014
BI00B32EJ    T220317P02     202204077158-3167-80             WIRE SEAL                CCN000360000000360000FN00000000020220401000360000NNE   20220318122604EJ  1C0C  00002000000000048000000109032EJ    EJYKBO  002700430014
BI00B32EJ    T220317P02     202204077158-3168-80             SEALED                   CCN000020000000020000FN00000000020220401000020000NNE   20220318122604EJ  1C0C  00002000000000044000000092132EJ    EJYKBO  004300260014
BI00B32EJ    T220317P02     202204077158-3167-61             WIRE SEAL                CCN000020000000020000FN00000000020220401000020000NNE   20220318122604EJ  1C0C  00002000000000048000000096432EJ    EJYKBO  004300270014
BI00B32EJ    #T220317P02    202204077158-3120-90             CONNECTOR WIRE SEAL      CCN000140000000140000FN00000000020220401000140000NNE   20220318122604EJ  2C0C  00002000000000136000000194032EJ    EJYKBO  002700430014
BI00B32EJ    #T220317P02    202204077157-3992-90             CONNECTOR SEALED         CCN000040000000040000FN00000000020220401000040000NNE   20220318122604EJ  2C0C  00004000000000300000000363332EJ    EJYKBO  002700430014
BI00B32EJ    #T220317P02    202204077158-3374-90             CONNECTOR WIRE SEAL      CCN000020000000020000FN00000000020220401000020000NNE   20220318122604EJ  2H0H  00002000000000172000000229332EJ    EJYKBO  002700430014
BI00B32EJ    #T220317P02    202204077282-6458-40             CONNECTOR                CCN000002000000002000FN00000000020220401000002000NNE   20220318122604EJ  2N0N  00000100000001206000001350532EJ    EJYKBO  005500360039
BI00B32EJ    #T220317P02    202204077157-3952-80             RUBBER STOPPER           CCN000020000000020000FN00000000020220401000020000NNE   20220318122604EJ  2C0C  00001000000000117000000175032EJ    EJYKBO  002700430014
BI00B32EJ    @T220317P02    202204077123-4312-80             HOUSING                  CCN000000800000000800FN00000000020220401000000800NNE   20220318122604EJ  3F0F  00000080000000644200000794032EJ    EJYKBO  005500360039
BI00B32EJ    T220317P03     202204077116-2951-02             TERMINAL                 CCN000005400000005400FN00000000020220401000005400NNE   20220318122604EJ  4P0P  00000540000000817600001111832EJ    EJYKBO  006400630015
BI00B32EJ    T220317P03     202204077116-4101-02             TERMINAL                 CCN000012000000012000FN00000000020220401000012000NNE   20220318122604EJ  4P0P  00001200000000582000000876232EJ    EJYKBO  006400630015
BI00B32EJ    T220317P03     202204077116-4122-02             TERMINAL                 CCN000004500000004500FN00000000020220401000004500NNE   20220318122604EJ  4P0P  00000450000000656600000950232EJ    EJYKBO  006400630015
BI00B32EJ    #T220317P03    202204077123-6423-30             CONNECTOR                CCN000010000000010000FN00000000020220401000010000NNE   20220318122604EJ  2F0F  00000200000001002000001167632EJ    EJYKBO  005600390023
BI00A32G2    SA2203C MW     202203187116-4028-08             TERMINAL FEMALE          CCN000192000000192000FY00019200020220301000000000NNE   20220318154119    4P0P  00001600000000652800000981532G2    AISUAI  006400630017
BI00A32G9    #TY22051TMW    202203237172-5629-80             RUBBER STOPPER           PCN000020000000020000FN00000000020220501000020000NNMM0020220318152947    2H0H  00002000000000060000000111132G9    TYTYC   004300270014
BI00B32H0    TT2205BVMW     202204057289-5979-30             HOUSING FEMALE ASS'Y     CCN000000252000000252FN00000000020220501000000252NNED0020220318130123    1N0N  00000025200000854700001064732H0    TTTJY   005400370024
BI00B32H2    TIJ205G        202205207289-3342                HOUSING FEMALE ASS'Y     CCN000002400000002400FN00000000020220501000002400NNED0420220318165521    1N0N  00000240000000686400000901432H2    HVYHV   005500360039
BI00B32H2    TIJ205G        202205207289-3342-90             HOUSING FEMALE ASS'Y     CCN000012000000012000FN00000000020220501000012000NNED0420220318165642    1N0N  00000240000000686400000901432H2    HVYHV   005500360039
BI00B32H2    #TIJ204L       202204217286-7860                HOUSING MALE ASS'Y       CCN000024000000024000FN00000000020220401000024000NNED0720220318131258    2N0N  00000080000000951700001139832H2    HVYHV   005400370024
BI00B32H2    TIJ205H        202204087283-4577                CONNECTOR HOUSING        CCN000009600000009600FN00000000020220501000009600NNE   20220318122604    4N0N  00000480000000916800001136832H2    HVYHV   005500360039
BI00B32H2    TIJ205H        202204087283-5830-30             CONNECTOR                CCN000006000000006000FN00000000020220501000006000NNE   20220318122604    1N0N  00000600000000954000001104032H2    HVYHV   005500360039
BI00B32H2    #TIJ205H       202204087154-5597-30             CASSETTE R/B             CCN000001600000001600FN00000000020220501000001600NNE   20220318122604    2F0F  00000080000000736000000952032H2    HVYHV   005500360039
BI00B32H2    TIJ205J        202204227116-4231-02             TERMINAL                 CCN000026000000026000FN00000000020220501000026000NNE   20220318122604    4P0P  00002600000000683800001012532H2    HVYHV   006400630017
BI00B32H2    TIJ205J        202204227116-5035-02             TERMINAL                 CCN000045000000045000FN00000000020220501000045000NNE   20220318122604    4P0P  00001500000000543000000828232H2    HVYHV   006400630015
BI00B32H2    TIJ205J        202204227116-5043-02             TERMINAL FEMALE          CCN000036000000036000FN00000000020220501000036000NNE   20220318122604    4P0P  00001200000000559200000844432H2    HVYHV   006400630015
BI00B32H2    TIJ205J        202204227158-3006-90             RUBBER STOPPER           CCN000080000000080000FN00000000020220501000080000NNE   20220318122604    1C0C  00002000000000330600000386032H2    HVYHV   002700430014
BI00B32H2    TIJ205J        202204227196-1941-02             TERMINAL FEMALE          CCN000022800000022800FN00000000020220501000022800NNE   20220318122604    4P0P  00001140000000506200000794432H2    HVYHV   006400630015
BI00B32H2    TIJ205J        202204227273-3884-0W             CASSETTE BRACKET         CCN000000600000000600FN00000000020220501000000600NNE   20220318122604    4N0N  00000060000000864400001004432H2    HVYHV   005500360039
BI00B32H2    TIJ205J        202204227273-3886-0W             CASSETTE BRACKET         CCN000000600000000600FN00000000020220501000000600NNE   20220318122604    4N0N  00000060000000526000000652032H2    HVYHV   005500360039
BI00B32H2    TIJ205J        202204227283-4855                CONNECTOR HOUSING        CCN000002400000002400FN00000000020220501000002400NNE   20220318122604    4N0N  00000240000001188400001400032H2    HVYHV   005500360039
BI00B32H2    TIJ205K        202204297158-3165-90             WIRE SEAL                CCN000080000000080000FN00000000020220501000080000NNE   20220318122604    1C0C  00004000000000124000000172432H2    HVYHV   004300270014
BI00B32H2    TIJ205K        202204297273-2982-0W             CASSETTE BRACKET         CCN000001200000001200FN00000000020220501000001200NNE   20220318122604    4N0N  00000060000000526000000726032H2    HVYHV   005500360039
BI00B32H2    TIJ205K        202204297287-1915                CONNECTOR ASS'Y          CCN000007200000007200FN00000000020220501000007200NNE   20220318122604    4N0N  00000240000000666500000923132H2    HVYHV   005500360039
BI00B32H2    TIJ205K        202204297386-9155                CONNECTOR MALE ASS'Y     CCN000000600000000600FN00000000020220501000000600NNE   20220318122604    4N0N  00000060000001244400001369932H2    HVYHV   005400370024
BI00B32H2    TIJ205L        202205067196-1020-02             TERMINAL ALUMINIUM       CCN000023700000023700FN00000000020220501000023700NNE   20220318122604    4P0P  00002370000000722900001008132H2    HVYHV   006400630015
BI00B32H2    TIJ205L        202205067196-1024-02             TERMINAL ALUMINIUM       CCN000018900000018900FN00000000020220501000018900NNE   20220318122604    4P0P  00001890000000718200001003432H2    HVYHV   006400630015
BI00B32H2    #TIJ205L       202205067198-4980-30             HOUSING FEMALE           CCN000001200000001200FN00000000020220501000001200NNE   20220318122604    2F0F  00000120000000840000000921032H2    HVYHV   005400370024
BI00B32H2    #TIJ205M       202205067198-4980-30             HOUSING FEMALE           CCN000001200000001200FN00000000020220501000001200NNE   20220318122604    2F0F  00000120000000840000000921032H2    HVYHV   005400370024
BI00A32H7    #FS22042DMW    202204047172-5630-40             RUBBER STOPPER           PCN000500000000500000FN00000000020220401000500000NNMM0020220318122604    2H0H  00002000000000044000000095132H7    FYFSY   004300270014
BI00A32H7    #FS22043DMW    202203217172-5630-40             RUBBER STOPPER           PCN000300000000300000FN00000000020220401000300000NNMM0020220318172505    2H0H  00002000000000044000000095132H7    FYFSY   004300270014
BI00A32H7    #FS22044DMW    202203287172-5630-40             RUBBER STOPPER           PCN000280000000280000FN00000000020220401000280000NNMM0020220318135641    2H0H  00002000000000044000000095132H7    FYFSY   004300270014
BI00A32H8    #TY22051KMW    202203237172-5629-80             RUBBER STOPPER           PCN000060000000060000FN00000000020220501000060000NNMM0020220318153013    2H0H  00002000000000060000000111132H8    TYTYC   004300270014
BI00A32J1    392775         202203217158-3070-80             RUBBER STOPPER           CCN000080000000080000FN00000000020220301000080000NNE   20220318143649    1C0C  00004000000000276000000333332J1    UKYEL-BL002700430014
BI00B32J1    392772         202204257114-4231-02             TERMINAL                 CCN000018000000018000FN00000000020220401000018000NNE   20220318122604    4P0P  00001800000000554400000848032J1    UKYEL-BL006400630015
BI00B32J1    392772         202204257126-8850-02             TERMINAL                 CCN000018000000018000FN00000000020220401000018000NNE   20220318122604    1P0P  00000900000000672300000957532J1    UKYEL-BL006400630015
BI00B32J1    392772         202204257126-8852-02             TERMINAL                 CCN000007500000007500FN00000000020220401000007500NNE   20220318122604    1P0P  00000750000000648000000933232J1    UKYEL-BL006400630015
BI00B32J1    392772         202204257235-8662                DOOR GROMMET             CCN000000480000000480FN00000000020220401000000480NNE   20220318122604    4N0N  00000016000000844000001010032J1    UKYEL-BL005500360039
BI00B32J1    #392772        202204257187-3356                JOINT CONNECTOR          CCN000001200000001200FN00000000020220401000001200NNE   20220318122604    2F0F  00000120000000759600001024432J1    UKYEL-BL005600390040
BI00B32J1    #392773        202204257158-3017                RUBBER STOPPER           CCN000010000000010000FN00000000020220501000010000NNE   20220318122604    2C0C  00001000000000375500000435032J1    UKYEL-BL002700430014
BI00B32J1    #392773        202204257158-3376-50             CONNECTOR WIRE SEAL      CCN000020000000020000FN00000000020220501000020000NNE   20220318122604    2C0C  00002000000000184000000240732J1    UKYEL-BL002700430014
BI00B32J1    392704         202204117116-5045-02             TERMINAL                 CCN000032000000032000FN00000000020220401000032000NNM   20220318122604    4P0P  00001600000000678400001007132J1    UKYEL-BL006400630017
BI00B32J1    392704         202204117126-8850-02             TERMINAL                 CCN000009000000009000FN00000000020220401000009000NNM   20220318122604    1P0P  00000900000000672300000957532J1    UKYEL-BL006400630015
BI00B32J1    392704         202204117158-3006-90             RUBBER STOPPER           CCN000020000000020000FN00000000020220401000020000NNM   20220318122604    1C0C  00002000000000330600000386032J1    UKYEL-BL002700430014
BI00B32J1    392704         202204117158-3070-80             RUBBER STOPPER           CCN000120000000120000FN00000000020220401000120000NNM   20220318122604    1C0C  00004000000000276000000333332J1    UKYEL-BL002700430014
BI00B32J1    392704         202204117158-3166-10             WIRE SEAL                CCN000160000000160000FN00000000020220401000160000NNM   20220318122604    1C0C  00004000000000096000000144432J1    UKYEL-BL004300270014
BI00B32J1    392704         202204117158-3166-60             WIRE SEAL                CCN002160000002160000FN00000000020220401002160000NNM   20220318122604    1C0C  00004000000000104000000152432J1    UKYEL-BL002700430014
BI00B32J1    392704         202204117158-3167-61             WIRE SEAL                CCN000180000000180000FN00000000020220401000180000NNM   20220318122604    1C0C  00002000000000048000000096432J1    UKYEL-BL004300270014
BI00B32J1    392704         202204117158-3167-80             WIRE SEAL                CCN002640000002640000FN00000000020220401002640000NNM   20220318122604    1C0C  00002000000000048000000109032J1    UKYEL-BL002700430014
BI00B32J1    392704         202204117158-3168-80             SEALED                   CCN001280000001280000FN00000000020220401001280000NNM   20220318122604    1C0C  00002000000000044000000092132J1    UKYEL-BL004300260014
BI00B32J1    392704         202204117196-1461-02             TERMINAL FEMALE          CCN000840000000840000FN00000000020220401000840000NNM   20220318122604    4P0P  00002400000000386400000671632J1    UKYEL-BL006400630015
BI00B32J1    392704         202204117196-1461-06             TERMINAL FEMALE          CCN000024000000024000FN00000000020220401000024000NNM   20220318122604    4P0P  00002400000000386400000692932J1    UKYEL-BL006400630015
BI00B32J1    392704         202204117282-5574-10             CONNECTOR                CCN000005600000005600FN00000000020220401000005600NNM   20220318122604    4N0N  00000080000001235000001423032J1    UKYEL-BL005600390040
BI00B32J1    392704         202204117283-1968-30             CONNECTOR                CCN000002700000002700FN00000000020220401000002700NNM   20220318122604    1N0N  00000090000001140000001318332J1    UKYEL-BL005600390040
BI00B32J1    392704         202204117283-6388-40             CONNECTOR                CCN000006000000006000FN00000000020220401000006000NNM   20220318122604    4N0N  00000200000001029000001173532J1    UKYEL-BL005500360039
BI00B32J1    392704         202204117288-7969                HYBRID MALE ASS'Y        CCN000005120000005120FN00000000020220401000005120NNM   20220318122604    1N0N  00000032000000876200001101732J1    UKYEL-BL005400370024
BI00B32J1    392704         202204117289-5000                HOUSING FEMALE ASS'Y     CCN000002128000002128FN00000000020220401000002128NNM   20220318122604    1N0N  00000030400000549000000759032J1    UKYEL-BL005400370024
BI00B32J1    392704         202204117298-1865-30             HOUSING FEMALE ASS'Y     CCN000069600000069600FN00000000020220401000069600NNM   20220318122604    4N0N  00000240000001003200001204532J1    UKYEL-BL005500360039
BI00B32J1    392704         202204117298-1869-30             HOUSING FEMALE ASS'Y     CCN000043200000043200FN00000000020220401000043200NNM   20220318122604    4N0N  00000120000000737000000939832J1    UKYEL-BL005500360039
BI00B32J1    392704         202204117298-2278-30             HOUSING FEMALE ASS'Y     CCN000009600000009600FN00000000020220401000009600NNM   20220318122604    4N0N  00000240000001091700001295432J1    UKYEL-BL005500360039
BI00B32J1    392704         202204117298-2508-30             HOUSING FEMALE ASS'Y     CCN000003600000003600FN00000000020220401000003600NNM   20220318122604    4N0N  00000120000000822000001005032J1    UKYEL-BL005500360039
BI00B32J1    392704         202204117298-2509-30             HOUSING FEMALE ASS'Y     CCN000004800000004800FN00000000020220401000004800NNM   20220318122604    4N0N  00000120000000857500001062532J1    UKYEL-BL005500360039
BI00B32J1    #392704        202204117047-5344                RETAINER                 CCN000090000000090000FN00000000020220401000090000NNM   20220318122604    2F0F  00001000000000870000001016032J1    UKYEL-BL005600390023
BI00B32J1    #392704        202204117134-4547-30             COVER                    CCN000007500000007500FN00000000020220401000007500NNM   20220318122604    2F0F  00000250000000989000001156732J1    UKYEL-BL005600390040
BI00B32J1    #392704        202204117147-8717-30             CLIP                     CCN000005000000005000FN00000000020220401000005000NNM   20220318122604    2F0F  00000500000000660000000875032J1    UKYEL-BL005600390040
BI00B32J1    #392704        202204117157-3646                RUBBER STOPPER           CCN000020000000020000FN00000000020220401000020000NNM   20220318122604    2H0H  00002000000000184000000255232J1    UKYEL-BL002700430014
BI00B32J1    #392704        202204117158-3003-90             RUBBER STOPPER           CCN000140000000140000FN00000000020220401000140000NNM   20220318122604    2C0C  00002000000000250000000306032J1    UKYEL-BL002700430014
BI00B32J1    #392704        202204117158-3004-40             RUBBER STOPPER           CCN000040000000040000FN00000000020220401000040000NNM   20220318122604    2C0C  00002000000000234000000306332J1    UKYEL-BL002700430014
BI00B32J1    #392704        202204117158-3120-90             CONNECTOR WIRE SEAL      CCN000240000000240000FN00000000020220401000240000NNM   20220318122604    2C0C  00002000000000136000000194032J1    UKYEL-BL002700430014
BI00B32J1    #392704        202204117183-7725-40             HOUSING                  CCN000006000000006000FN00000000020220401000006000NNM   20220318122604    2F0F  00000600000000840000001040032J1    UKYEL-BL005600390040
BI00B32J1    #392704        202204117282-6457-40             CONNECTOR                CCN000007200000007200FN00000000020220401000007200NNM   20220318122604    2N0N  00000080000001137000001421332J1    UKYEL-BL005600390040
BI00B32J1    #392704        202204117283-8226-30             CONNECTOR                CCN000004000000004000FN00000000020220401000004000NNM   20220318122604    2N0N  00000200000000820000001008032J1    UKYEL-BL005400370024
BI00B32M1    TCV2051        202203247196-1103-02             TERMINAL                 CCN000202500000045000FN00000000020220501000045000NNMD0020220318122604    4P0P  00002250000000429800000715032M1    VNYEV   006400630015
BI00A32M1    TCV2051        202203247196-1103-02             TERMINAL                 CCN000022500000022500FN00000000020220501000022500NNMM0020220318131905    4P0P  00002250000000429800000715032M1    VNYEV   006400630015
BI00B32M3    #SM2204ARMW    202203317137-3319-90             SEALED PACKING           CCN000004000000004000FN00000000020220401000004000NNE   20220318161433    2H0H  00000100000000498000000555132M3    SASAMI  004300270014
BI00B32M3    #SM2204ARMW    202203317185-1495                HOUSING                  CCN000000084000000084FN00000000020220401000000084NNE   20220318161433    2F0F  00000008400000903800001005532M3    SASAMI  005500360039
BI00B32M3    #SM2204ARMW    202203317185-1496                HOUSING                  CCN000000700000000700FN00000000020220401000000700NNE   20220318161433    2F0F  00000014000000997300001237932M3    SASAMI  005500360039
BI00B32M3    #SM2204ARMW    202203317185-9195-40             REAR HOLDER              CCN000002000000002000FN00000000020220401000002000NNE   20220318161433    2F0F  00000100000000692200000815232M3    SASAMI  005400370024
BI00B32M8    #PM2204AJMW    202204127183-0520-40             HOUSING FEMALE           CCN000003000000003000FN00000000020220401000003000NNE   20220318161509    2F0F  00000300000000725700000870732M8    PMPEMI  005400370024
BI00B32M8    PM2204BTMW     202204127287-7775-30             HOUSING FEMALE ASS'Y     CCN000001000000001000FN00000000020220401000001000NNE   20220318161535    4N0N  00000100000000508000000620532M8    PMPEMI  005400370024
BI00B32M8    #PM2204BTMW    202204127172-5625-90             RUBBER STOPPER           CCN000020000000020000FN00000000020220401000020000NNE   20220318161531    2H0H  00002000000000082400000133832M8    PMPEMI  004300270014
BI00B32M8    #PM2204BTMW    202204127172-5626-90             RUBBER STOPPER           CCN000020000000020000FN00000000020220401000020000NNE   20220318161531    2H0H  00002000000000076400000127832M8    PMPEMI  004300270014
BI00B32M8    PM2204C MW     202204127114-4020                TERMINAL                 CCN000042000000042000FN00000000020220401000042000NNE   20220318161605    4P0P  00002100000000875700001169332M8    PMPEMI  006400630015
BI00B32M8    PM2204C MW     202204127114-4021                TERMINAL                 CCN000015000000015000FN00000000020220401000015000NNE   20220318161605    4P0P  00001500000000670500000964132M8    PMPEMI  006400630015
BI00B32M8    PM2204C MW     202204127114-4032                TERMINAL                 CCN000007500000007500FN00000000020220401000007500NNE   20220318161605    4P0P  00000750000000735000001063632M8    PMPEMI  006400630017
BI00B32M8    PM2204C MW     202204127114-4729-02             TERMINAL                 CCN000090000000090000FN00000000020220401000090000NNE   20220318161605    4P0P  00003000000000516000000810232M8    PMPEMI  006400630015
BI00B32M8    PM2204C MW     202204127116-1257-02             TERMINAL                 CCN000024000000024000FN00000000020220401000024000NNE   20220318161605    1P0P  00002400000000518400000847132M8    PMPEMI  006400630017
BI00B32M8    PM2204C MW     202204127116-1685-02             TERMINAL                 CCN000072000000072000FN00000000020220401000072000NNE   20220318161605    4P0P  00002400000000897600001065232M8    PMPEMI  005100280028
BI00B32M8    PM2204C MW     202204127116-1686-02             TERMINAL                 CCN000021000000021000FN00000000020220401000021000NNE   20220318161605    4P0P  00002100000000869400001021632M8    PMPEMI  005100280028
BI00B32M8    PM2204C MW     202204127116-2641                TERMINAL                 CCN000018000000018000FN00000000020220401000018000NNE   20220318161605    4P0P  00001800000001161000001344632M8    PMPEMI  005100280028
BI00B32M8    PM2204C MW     202204127116-2891-02             TERMINAL                 CCN000060000000060000FN00000000020220401000060000NNE   20220318161605    4P0P  00001500000000982500001145932M8    PMPEMI  005100280028
BI00B32M8    PM2204C MW     202204127116-2892-02             TERMINAL                 CCN000012000000012000FN00000000020220401000012000NNE   20220318161605    4P0P  00001200000000818400000981832M8    PMPEMI  005100280028
BI00B32M8    PM2204C MW     202204127116-4231-02             TERMINAL                 CCN000078000000078000FN00000000020220401000078000NNE   20220318161605    4P0P  00002600000000683800001012532M8    PMPEMI  006400630017
BI00B32M8    PM2204C MW     202204127116-4486-02             TERMINAL                 CCN000028000000028000FN00000000020220401000028000NNE   20220318161605    4P0P  00002800000000666400000995132M8    PMPEMI  006400630017
BI00B32M8    PM2204C MW     202204127116-5041-02             TERMINAL                 CCN000015000000015000FN00000000020220401000015000NNE   20220318161605    4P0P  00001500000000583500000868732M8    PMPEMI  006400630015
BI00B32M8    PM2204C MW     202204127116-5043-02             TERMINAL FEMALE          CCN000012000000012000FN00000000020220401000012000NNE   20220318161605    4P0P  00001200000000559200000844432M8    PMPEMI  006400630015
BI00B32M8    PM2204C MW     202204127116-5097-02             TERMINAL                 CCN000022500000022500FN00000000020220401000022500NNE   20220318161605    4P0P  00002250000000531000000816232M8    PMPEMI  006400630015
BI00B32M8    PM2204C MW     202204127116-6042                TERMINAL                 CCN000003000000003000FN00000000020220401000003000NNE   20220318161605    4P0P  00000300000000523800000856132M8    PMPEMI  006400630015
BI00B32M8    PM2204C MW     202204127126-8853-02             TERMINAL                 CCN000067500000067500FN00000000020220401000067500NNE   20220318161605    4P0P  00000750000000562500000847732M8    PMPEMI  006400630015
BI00B32M8    PM2204C MW     202204127126-8854-02             TERMINAL                 CCN000052500000052500FN00000000020220401000052500NNE   20220318161605    4P0P  00000750000000604500000889732M8    PMPEMI  006400630015
BI00B32M8    PM2204C MW     202204127126-8855-02             TERMINAL                 CCN000030000000030000FN00000000020220401000030000NNE   20220318161605    4P0P  00000600000000510600000795832M8    PMPEMI  006400630015
BI00B32M8    PM2204C MW     202204127158-3009-60             RUBBER STOPPER           CCN000020000000020000FN00000000020220401000020000NNE   20220318161605    1C0C  00002000000000338000000386232M8    PMPEMI  002700430014
BI00B32M8    PM2204C MW     202204127158-3023                RUBBER STOPPER           CCN000005000000005000FN00000000020220401000005000NNE   20220318161605    1C0C  00000500000000443500000502032M8    PMPEMI  002700430014
BI00B32M8    PM2204C MW     202204127283-1288                CONNECTOR HOUSING        CCN000001200000001200FN00000000020220401000001200NNE   20220318161605    4N0N  00000120000001381000001637032M8    PMPEMI  005600390040
BI00B32M8    PM2204C MW     202204127283-1289-30             CONNECTOR HOUSING        CCN000000600000000600FN00000000020220401000000600NNE   20220318161605    1N0N  00000060000000675600000820632M8    PMPEMI  005400370024
BI00B32M8    PM2204C MW     202204127283-7029-40             CONNECTOR                CCN000006000000006000FN00000000020220401000006000NNE   20220318161605    1N0N  00000600000001026000001200032M8    PMPEMI  005600390023
BI00B32M8    PM2204C MW     202204127288-3335-30             HOUSING MALE             CCN000001500000001500FN00000000020220401000001500NNE   20220318161605    4N0N  00000150000000867000001012032M8    PMPEMI  005400370024
BI00B32M8    #PM2204C MW    202204127116-4021                TERMINAL                 CCN000027000000027000FN00000000020220401000027000NNE   20220318161554    2F0P  00001350000000534600000868832M8    PMPEMI  006400630015
BI00B32M8    #PM2204C MW    202204127123-7564-40             CONNECTOR                CCN000001000000001000FN00000000020220401000001000NNE   20220318161554    2F0F  00000100000001301000001479032M8    PMPEMI  005600390040
BI00B32M8    #PM2204C MW    202204127123-7923-30             CONNECTOR                CCN000001500000001500FN00000000020220401000001500NNE   20220318161554    2F0F  00000150000001491000001657032M8    PMPEMI  005600390040
BI00B32M8    #PM2204C MW    202204127157-7812                SEAL RUBBER              CCN000020000000020000FN00000000020220401000020000NNE   20220318161554    2C0C  00001000000000137000000202032M8    PMPEMI  002700430014
BI00B32M8    #PM2204C MW    202204127182-2410                CONNECTOR HOUSING        CCN000002400000002400FN00000000020220401000002400NNE   20220318161554    2F0F  00000120000000959800001245632M8    PMPEMI  005500360039
BI00B32M8    #PM2204C MW    202204127183-2415                CONNECTOR HOUSING        CCN000004800000004800FN00000000020220401000004800NNE   20220318161554    2F0F  00000480000000798200001091432M8    PMPEMI  005500360039
BI00B32M8    @PM2204C MW    202204127183-2510-40             HOUSING                  CCN000003000000003000FN00000000020220401000003000NNE   20220318161601    3F0F  00000300000001073400001173032M8    PMPEMI  005400370024
BI00B32M8    @PM2204C MW    202204127187-1769-30             HOUSING FEMALE           CCN000002000000002000FN00000000020220401000002000NNE   20220318161601    3F0F  00000200000001032600001179032M8    PMPEMI  005500360039
BI00B32M8    @PM2204C MW    202204127283-7443-30             HOUSING SUB ASSEMBLY     CCN000002400000002400FN00000000020220401000002400NNE   20220318161601    3N0N  00000240000000683700000908032M8    PMPEMI  005500360039
BI00B32M8    @PM2204C MW    202204127287-4098                CONNECTOR FEMALE         CCN000002400000002400FN00000000020220401000002400NNE   20220318161601    3N0N  00000240000000668600000908032M8    PMPEMI  005500360039
BI00B32N1    #NST2116GCU    202203237158-3007-10             RUBBER STOPPER           CCN000020000000020000FN00000000020220301000020000NNED0020220318162555    2H0H  00002000000000308000000362732N1    TAYIPL  002700430014
BI00B32N1    NST2117B 1     202203317114-4020                TERMINAL                 CCN000252000000252000FN00000000020220501000252000NNM   20220318161704    4P0P  00002100000000875700001169332N1    TAYIPL  006400630015
BI00B32N1    NST2117B 1     202203317114-4030                TERMINAL                 CCN000031500000031500FN00000000020220501000031500NNM   20220318161704    4P0P  00001050000000926100001254732N1    TAYIPL  006400630017
BI00B32N1    NST2117B 1     202203317114-4032                TERMINAL                 CCN000015000000015000FN00000000020220501000015000NNM   20220318161704    4P0P  00000750000000735000001063632N1    TAYIPL  006400630017
BI00B32N1    NST2117B 1     202203317116-1180                TERMINAL                 CCN000604500000604500FN00000000020220501000604500NNM   20220318161704    1P0P  00001950000000618200000903432N1    TAYIPL  006400630015
BI00B32N1    NST2117B 1     202203317116-1301                TERMINAL                 CCN000240000000240000FN00000000020220501000240000NNM   20220318161704    4P0P  00001500000000487500000772732N1    TAYIPL  006400630015
BI00B32N1    NST2117B 1     202203317116-4020                TERMINAL                 CCN000513000000513000FN00000000020220501000513000NNM   20220318161704    4P0P  00001350000000513000000798232N1    TAYIPL  006400630015
BI00B32N1    NST2117B 1     202203317116-4022                TERMINAL                 CCN000013500000013500FN00000000020220501000013500NNM   20220318161704    4P0P  00001350000000618300000903532N1    TAYIPL  006400630015
BI00B32N1    NST2117B 1     202203317116-4026                TERMINAL                 CCN000592000000592000FN00000000020220501000592000NNM   20220318161704    4P0P  00001600000000664000000994332N1    TAYIPL  006400630017
BI00B32N1    NST2117B 1     202203317116-4032                TERMINAL                 CCN000030000000030000FN00000000020220501000030000NNM   20220318161704    4P0P  00000600000000532800000818032N1    TAYIPL  006400630015
BI00B32N1    NST2117B 1     202203317282-1248                HOUSING SUB ASSEMBLY     CCN000012600000012600FN00000000020220501000012600NNM   20220318161704    1N0N  00000060000001167000001372032N1    TAYIPL  005500360039
BI00B32N1    NST2117B 1     202203317114-4100-02             TERMINAL                 CCN000558000000558000FN00000000020220501000558000NNM   20220318161704    4P0P  00001800000000748800001077432N1    TAYIPL  006400630017
BI00B32N1    NST2117B 1     202203317114-4111-02             TERMINAL                 CCN000060000000060000FN00000000020220501000060000NNM   20220318161704    4P0P  00001200000000758400001087032N1    TAYIPL  006400630017
BI00B32N1    NST2117B 1     202203317116-1685-02             TERMINAL                 CCN000264000000264000FN00000000020220501000264000NNM   20220318161704    4P0P  00002400000000897600001065232N1    TAYIPL  005100280028
BI00B32N1    NST2117B 1     202203317116-2892-02             TERMINAL                 CCN000084000000084000FN00000000020220501000084000NNM   20220318161704    4P0P  00001200000000818400000981832N1    TAYIPL  005100280028
BI00B32N1    NST2117B 1     202203317116-2893-02             TERMINAL                 CCN000252000000252000FN00000000020220501000252000NNM   20220318161704    4P0P  00001200000000895200001058632N1    TAYIPL  005100280028
BI00B32N1    NST2117B 1     202203317116-4101-02             TERMINAL                 CCN000072000000072000FN00000000020220501000072000NNM   20220318161704    4P0P  00001200000000582000000876232N1    TAYIPL  006400630015
BI00B32N1    NST2117B 1     202203317116-4102-02             TERMINAL                 CCN000012000000012000FN00000000020220501000012000NNM   20220318161704    4P0P  00001200000000553200000841432N1    TAYIPL  006400630015
BI00B32N1    NST2117B 1     202203317116-4110-02             TERMINAL                 CCN000063000000063000FN00000000020220501000063000NNM   20220318161704    4P0P  00000900000000594000000882232N1    TAYIPL  006400630015
BI00B32N1    NST2117B 1     202203317116-4121-02             TERMINAL                 CCN000013500000013500FN00000000020220501000013500NNM   20220318161704    4P0P  00000450000000618800000912432N1    TAYIPL  006400630015
BI00B32N1    NST2117B 1     202203317116-4122-02             TERMINAL                 CCN000157500000157500FN00000000020220501000157500NNM   20220318161704    4P0P  00000450000000656600000950232N1    TAYIPL  006400630015
BI00B32N1    NST2117B 1     202203317116-4124-02             TERMINAL                 CCN000003000000003000FN00000000020220501000003000NNM   20220318161704    4P0P  00000300000000459900000753532N1    TAYIPL  006400630015
BI00B32N1    NST2117B 1     202203317116-4231-02             TERMINAL                 CCN000026000000026000FN00000000020220501000026000NNM   20220318161704    4P0P  00002600000000683800001012532N1    TAYIPL  006400630017
BI00B32N1    NST2117B 1     202203317126-8850-02             TERMINAL                 CCN000513000000513000FN00000000020220501000513000NNM   20220318161704    1P0P  00000900000000672300000957532N1    TAYIPL  006400630015
BI00B32N1    NST2117B 1     202203317126-8851-02             TERMINAL                 CCN000810000000810000FN00000000020220501000810000NNM   20220318161704    1P0P  00000900000000739800001025032N1    TAYIPL  006400630015
BI00B32N1    NST2117B 1     202203317126-8852-02             TERMINAL                 CCN000360000000360000FN00000000020220501000360000NNM   20220318161704    1P0P  00000750000000648000000933232N1    TAYIPL  006400630015
BI00B32N1    NST2117B 1     202203317183-7665-30             HOUSING                  CCN000009600000009600FN00000000020220501000009600NNM   20220318161704    1F0F  00000120000001103300001247832N1    TAYIPL  005500360039
BI00B32N1    NST2117B 1     202203317196-0396-02             TERMINAL                 CCN000015000000015000FN00000000020220501000015000NNM   20220318161704    4P0P  00001500000000949500001112932N1    TAYIPL  002800510028
BI00B32N1    NST2117B 1     202203317282-1248-30             HOUSING SUB ASSEMBLY     CCN000001800000001800FN00000000020220501000001800NNM   20220318161704    1N0N  00000060000001167000001372032N1    TAYIPL  005500360039
BI00B32N1    #NST2117B 1    202203317116-4021                TERMINAL                 CCN000054000000054000FN00000000020220501000054000NNM   20220318161702    2F0P  00001350000000534600000868832N1    TAYIPL  006400630015
BI00B32N1    #NST2117B 1    202203317157-3646                RUBBER STOPPER           CCN000800000000800000FN00000000020220501000800000NNM   20220318161702    2H0H  00002000000000184000000255232N1    TAYIPL  002700430014
BI00B32N1    #NST2117B 1    202203317157-3821                RUBBER STOPPER           CCN000220000000220000FN00000000020220501000220000NNM   20220318161702    2C0C  00002000000000176000000238032N1    TAYIPL  002700430014
BI00B32N1    #NST2117B 1    202203317157-3950-80             SEAL RUBBER              CCN000320000000320000FN00000000020220501000320000NNM   20220318161702    2C0C  00004000000000154000000440332N1    TAYIPL  002700430014
BI00B32N1    #NST2117B 1    202203317157-3952-80             RUBBER STOPPER           CCN000040000000040000FN00000000020220501000040000NNM   20220318161702    2C0C  00001000000000117000000175032N1    TAYIPL  002700430014
BI00B32N1    #NST2117B 1    202203317158-3120-90             CONNECTOR WIRE SEAL      CCN000080000000080000FN00000000020220501000080000NNM   20220318161702    2C0C  00002000000000136000000194032N1    TAYIPL  002700430014
BI00B32N1    #NST2117B 1    202203317158-3376-50             CONNECTOR WIRE SEAL      CCN000020000000020000FN00000000020220501000020000NNM   20220318161702    2C0C  00002000000000184000000240732N1    TAYIPL  002700430014
BI00B32N1    #NST2117B 1    202203317183-2418-30             CONNECTOR HOUSING        CCN000009600000009600FN00000000020220501000009600NNM   20220318161702    2F0F  00000480000000917000001235332N1    TAYIPL  005500360039
BI00B32N1    #NST2117B 1    202203317282-8395-40             CONNECTOR                CCN000003000000003000FN00000000020220501000003000NNM   20220318161702    2N0N  00000100000001009000001188032N1    TAYIPL  005500360039
BI00B32N1    #NST2117B 1    202203317283-8226-30             CONNECTOR                CCN000122000000122000FN00000000020220501000122000NNM   20220318161702    2N0N  00000200000000820000001008032N1    TAYIPL  005400370024
BI00B32N1    #NST2117B 1    202203317283-8397-40             CONNECTOR                CCN000010780000010780FN00000000020220501000010780NNM   20220318161702    2N0N  00000154000001007000001222732N1    TAYIPL  005600390023
BI00B32N1    NST2117C       202203317114-4021                TERMINAL                 CCN000060000000060000FN00000000020220501000060000NNM   20220318161741    4P0P  00001500000000670500000964132N1    TAYIPL  006400630015
BI00B32N1    NST2117C       202203317116-4025                TERMINAL                 CCN000016000000016000FN00000000020220501000016000NNM   20220318161741    4P0P  00001600000000644800000975132N1    TAYIPL  006400630017
BI00B32N1    NST2117C       202203317116-4037                TERMINAL                 CCN000036000000036000FN00000000020220501000036000NNM   20220318161741    4P0P  00000600000000600000000894232N1    TAYIPL  006400630015
BI00B32N1    NST2117C       202203317116-6042                TERMINAL                 CCN000030000000030000FN00000000020220501000030000NNM   20220318161741    4P0P  00000300000000523800000856132N1    TAYIPL  006400630015
BI00B32N1    NST2117C       202203317283-1144                CONNECTOR                CCN000021600000021600FN00000000020220501000021600NNM   20220318161741    4N0N  00000240000000602200000866132N1    TAYIPL  005500360039
BI00B32N1    NST2117C       202203317283-5845                CONNECTOR HOUSING        CCN000006000000006000FN00000000020220501000006000NNM   20220318161741    1N0N  00000600000000444000000606332N1    TAYIPL  005400370024
BI00B32N1    NST2117C       202203317114-4101-02             TERMINAL                 CCN000030000000030000FN00000000020220501000030000NNM   20220318161741    4P0P  00001500000000675000001003632N1    TAYIPL  006400630017
BI00B32N1    NST2117C       202203317114-4112-02             TERMINAL                 CCN000063000000063000FN00000000020220501000063000NNM   20220318161741    4P0P  00000900000000598500000927132N1    TAYIPL  006400630017
BI00B32N1    NST2117C       202203317114-4729-02             TERMINAL                 CCN000270000000270000FN00000000020220501000270000NNM   20220318161741    4P0P  00003000000000516000000810232N1    TAYIPL  006400630015
BI00B32N1    NST2117C       202203317116-4100-02             TERMINAL                 CCN000255000000255000FN00000000020220501000255000NNM   20220318161741    4P0P  00001500000000696000000990232N1    TAYIPL  006400630015
BI00B32N1    NST2117C       202203317116-4104-02             TERMINAL                 CCN000012000000012000FN00000000020220501000012000NNM   20220318161741    4P0P  00001200000000580800000972432N1    TAYIPL  006400630015
BI00B32N1    NST2117C       202203317116-4111-02             TERMINAL                 CCN000022500000022500FN00000000020220501000022500NNM   20220318161741    4P0P  00000750000000529500000817732N1    TAYIPL  006400630015
BI00B32N1    NST2117C       202203317116-4112-02             TERMINAL                 CCN000066000000066000FN00000000020220501000066000NNM   20220318161741    4P0P  00000600000000450000000738232N1    TAYIPL  006400630015
BI00B32N1    NST2117C       202203317116-4114-02             TERMINAL                 CCN000021000000021000FN00000000020220501000021000NNM   20220318161741    4P0P  00001050000000693000000981232N1    TAYIPL  006400630015
BI00B32N1    NST2117C       202203317116-4120-02             TERMINAL                 CCN000006000000006000FN00000000020220501000006000NNM   20220318161741    4P0P  00000600000000780000001073632N1    TAYIPL  006400630015
BI00B32N1    NST2117C       202203317158-3022-80             RUBBER STOPPER           CCN000010000000010000FN00000000020220501000010000NNM   20220318161741    1C0C  00000500000000467500000524032N1    TAYIPL  002700430014
BI00B32N1    NST2117C       202203317282-5574-10             CONNECTOR                CCN000004800000004800FN00000000020220501000004800NNM   20220318161741    4N0N  00000080000001235000001423032N1    TAYIPL  005600390040
BI00B32N1    NST2117C       202203317283-1144-30             CONNECTOR                CCN000052800000052800FN00000000020220501000052800NNM   20220318161741    4N0N  00000240000000602200000866132N1    TAYIPL  005500360039
BI00B32N1    NST2117C       202203317283-5574-10             CONNECTOR                CCN000004800000004800FN00000000020220501000004800NNM   20220318161741    4N0N  00000080000001235000001435232N1    TAYIPL  005500360039
BI00B32N1    NST2117C       202203317283-6388-40             CONNECTOR                CCN000004000000004000FN00000000020220501000004000NNM   20220318161741    4N0N  00000200000001029000001173532N1    TAYIPL  005500360039
BI00B32N1    #NST2117C      202203317283-5831                CONNECTOR                CCN000003000000003000FN00000000020220501000003000NNM   20220318161732    2N0N  00000300000000750000000880032N1    TAYIPL  005400370024
BI00B32N1    #NST2117C      202203317158-3007-10             RUBBER STOPPER           CCN000040000000040000FN00000000020220501000040000NNM   20220318161732    2H0H  00002000000000308000000362732N1    TAYIPL  002700430014
BI00B32N1    #NST2117C      202203317158-3374-90             CONNECTOR WIRE SEAL      CCN000020000000020000FN00000000020220501000020000NNM   20220318161732    2H0H  00002000000000172000000229332N1    TAYIPL  002700430014
BI00B32N1    #NST2117C      202203317183-7725-40             HOUSING                  CCN000006000000006000FN00000000020220501000006000NNM   20220318161732    2F0F  00000600000000840000001040032N1    TAYIPL  005600390040
BI00B32N1    #NST2117C      202203317282-4190-30             CONNECTOR                CCN000006480000006480FN00000000020220501000006480NNM   20220318161732    2N0N  00000024000000801000001071332N1    TAYIPL  005600390040
BI00B32N1    @NST2117C      202203317283-5976                CONNECTOR ASS'Y          CCN000004800000004800FN00000000020220501000004800NNM   20220318161739    3N0N  00000480000000840000001083632N1    TAYIPL  005500360039
BI00B32N3    #NBT205 C      202203247283-1262                CONNECTOR HOUSING        CCN000002500000002500FN00000000020220501000002500NNE   20220318122604    2N0N  00000250000000575000000689532N3    ABYIPL-B005400370024
BI00B32R7    R-TAP220126    202203317116-4121-02             TERMINAL                 CCN000013500000013500FN00000000020220401000013500NNE   20220318122604    4P0P  00000450000000618800000912432R7    IVYCIC  006400630015
BI00B32R7    R-TAP220127    202203317116-4121-02             TERMINAL                 CCN000004500000004500FN00000000020220401000004500NNE   20220318122604    4P0P  00000450000000618800000912432R7    IVYCIC  006400630015
BI00B32R7    R-TAP220128    202203317158-3169-40             SEALING PLUG             CCN000080000000080000FN00000000020220401000080000NNE   20220318122604    1C0C  00004000000000156000000204132R7    IVYCIC  004300260014
BI00B32R7    #R-TAP220129   202203317283-8397-40             CONNECTOR                CCN000004620000004620FN00000000020220401000004620NNE   20220318122604    2N0N  00000154000001007000001222732R7    IVYCIC  005600390023
BI00B32R7    R-TAP220130    202203317298-2509-30             HOUSING FEMALE ASS'Y     CCN000001200000001200FN00000000020220401000001200NNE   20220318122604    4N0N  00000120000000857500001062532R7    IVYCIC  005500360039
BI00A32U5    DI2012         202203257289-3342-30             HOUSING FEMALE ASS'Y     PCN000036000000036000FN00000000020220501000036000NNMD0420220318144646U5  1N0N  00000240000000686400000901432U5    AMAMSD  005500360039
BI00B32U5    DI2007C        202203257289-3342                HOUSING FEMALE ASS'Y     CCN000024000000024000FN00000000020220401000024000NNE00020220318162210U5  1N0N  00000240000000686400000901432U5    AMAMSD  005500360039
BI00B32U5    DI2013         202203257289-3342                HOUSING FEMALE ASS'Y     CCN000028800000028800FN00000000020220501000028800NNM00020220318162154U5  1N0N  00000240000000686400000901432U5    AMAMSD  005500360039
BI00A32U5    DI2013         202204017289-3342-30             HOUSING FEMALE ASS'Y     PCN000031200000031200FN00000000020220501000031200NNM00020220318133419U5  1N0N  00000240000000686400000901432U5    AMAMSD  005500360039
BI00B32U5    DI2022         202205207288-3339-30             HOUSING MALE             CCN000003000000003000FN00000000020220701000003000NNMD0420220318165545U5  4N0N  00000150000000867000001012032U5    AMAMSD  005400370024
BI00B32W4    4500191075     202205197283-5843                CONNECTOR                CCN000001500000001500FN00000000020220501000001500NNE   20220318132547W4171N0N  00000150000000889000001132032W417  HJYHK   005600390040
BI00B32W4    4500191075     202205197283-5832                CONNECTOR HOUSING        CCN000002400000002400FN00000000020220501000002400NNE   20220318132547W4171N47  00000240000000723800000873832W417  HJYHK   005500360039
BI00B32W4    #4500191075    202205197183-8927                HOUSING                  CCN000004000000004000FN00000000020220501000004000NNE   20220318132542W4172F0F  00000400000000714000000912732W417  HJYHK   005500360039
BI00B32W4    #4500191075    202205197282-3020                CONNECTOR                CCN000003000000003000FN00000000020220501000003000NNE   20220318132542W4172N0N  00000100000000984000001145432W417  HJYHK   005500360039
BI00B32W4    #4500191077    202206027147-3642-30             CLIP                     CCN000072000000072000FN00000000020220601000072000NNE   20220318132622W4172F0F  00000300000000542000000721332W417  HJYHK   005600390040
BI00A32W4    4500191078     202205167116-4100-02             TERMINAL                 CCN000030000000030000FN00000000020220501000030000NNE   20220318132711W4144P0P  00001500000000696000000990232W414  HJYHK   006400630015
BI00A32W4    4500191078     202205167114-4112-02             TERMINAL                 CCN000045000000045000FN00000000020220501000045000NNE   20220318132711W4144P0P  00000900000000598500000927132W414  HJYHK   006400630017
BI00A32W4    4500191078     202205167116-4111-02             TERMINAL                 CCN000037500000037500FN00000000020220501000037500NNE   20220318132711W4144P0P  00000750000000529500000817732W414  HJYHK   006400630015
BI00A32W4    4500191078     202205167116-4112-02             TERMINAL                 CCN000048000000048000FN00000000020220501000048000NNE   20220318132711W4144P0P  00000600000000450000000738232W414  HJYHK   006400630015
BI00A32W4    4500191078     202205167114-4100-02             TERMINAL                 CCN000036000000036000FN00000000020220501000036000NNE   20220318132711W4144P0P  00001800000000748800001077432W414  HJYHK   006400630017
BI00A32W4    4500191078     202205167114-4111-02             TERMINAL                 CCN000024000000024000FN00000000020220501000024000NNE   20220318132711W4144P0P  00001200000000758400001087032W414  HJYHK   006400630017
BI00A32W4    4500191078     202205167158-3166-60             WIRE SEAL                CCN000040000000040000FN00000000020220501000040000NNE   20220318132711W4141C0C  00004000000000104000000152432W414  HJYHK   002700430014
BI00A32W4    4500191078     202205167116-4101-02             TERMINAL                 CCN000012000000012000FN00000000020220501000012000NNE   20220318132711W4144P0P  00001200000000582000000876232W414  HJYHK   006400630015
BI00A32W4    4500191078     202205167116-4110-02             TERMINAL                 CCN000018000000018000FN00000000020220501000018000NNE   20220318132711W4144P0P  00000900000000594000000882232W414  HJYHK   006400630015
BI00A32W4    #4500191078    202205167282-6458-40             CONNECTOR                CCN000001000000001000FN00000000020220501000001000NNE   20220318132707W4142N0N  00000100000001206000001350532W414  HJYHK   005500360039
BI00A32W4    4500191082     202205047158-3167-80             WIRE SEAL                CCN000120000000120000FN00000000020220501000120000NNED0720220318133051W4A21C0C  00002000000000048000000109032W4A2  HJYHK-J 002700430014
BI00A32W4    4500191082     202205047116-4111-02             TERMINAL                 CCN000015000000015000FN00000000020220501000015000NNED0720220318133051W4A24P0P  00000750000000529500000817732W4A2  HJYHK-J 006400630015
BI00A32W4    #4500191082    202205047158-3121-80             WIRE SEAL                CCN000020000000020000FN00000000020220501000020000NNED0720220318133029W4A22C0C  00002000000000118000000187332W4A2  HJYHK-J 002700430014
BI00A32W4    #4500191082    202205047283-4190-30             CONNECTOR                CCN000004800000004800FN00000000020220501000004800NNED0720220318133029W4A22N0N  00000024000000846000001115532W4A2  HJYHK-J 005600390040
BI00A32W4    4500191083     202205097116-4026                TERMINAL                 CCN000016000000016000FN00000000020220501000016000NNE   20220318133138W4A24P0P  00001600000000664000000994332W4A2  HJYHK-J 006400630017
BI00A32W4    4500191083     202205097116-4104-02             TERMINAL                 CCN000012000000012000FN00000000020220501000012000NNE   20220318133138W4A24P0P  00001200000000580800000972432W4A2  HJYHK-J 006400630015
BI00A32W4    #4500191083    202205097283-8226-30             CONNECTOR                CCN000006000000006000FN00000000020220501000006000NNE   20220318133129W4A22N0N  00000200000000820000001008032W4A2  HJYHK-J 005400370024
BI00A32W4    #4500191083    202205097157-3646                RUBBER STOPPER           CCN000020000000020000FN00000000020220501000020000NNE   20220318133129W4A22H0H  00002000000000184000000255232W4A2  HJYHK-J 002700430014
BI00A32W4    4500191084     202205167116-4103-02             TERMINAL                 CCN000012000000012000FN00000000020220501000012000NNE   20220318133211W4A24P0P  00001200000000571200000859432W4A2  HJYHK-J 006400630015
BI00A32W4    4500191084     202205167158-3169-40             SEALING PLUG             CCN000040000000040000FN00000000020220501000040000NNE   20220318133211W4A21C0C  00004000000000156000000204132W4A2  HJYHK-J 004300260014
BI00A32W4    4500191084     202205167116-4102-02             TERMINAL                 CCN000036000000036000FN00000000020220501000036000NNE   20220318133211W4A24P0P  00001200000000553200000841432W4A2  HJYHK-J 006400630015
BI00A32W4    4500191084     202205167116-4110-02             TERMINAL                 CCN000009000000009000FN00000000020220501000009000NNE   20220318133211W4A24P0P  00000900000000594000000882232W4A2  HJYHK-J 006400630015
BI00A32W4    4500191084     202205167116-4112-02             TERMINAL                 CCN000012000000012000FN00000000020220501000012000NNE   20220318133211W4A24P0P  00000600000000450000000738232W4A2  HJYHK-J 006400630015
BI00A32W4    #4500191084    202205167158-3120-90             CONNECTOR WIRE SEAL      CCN000020000000020000FN00000000020220501000020000NNE   20220318133203W4A22C0C  00002000000000136000000194032W4A2  HJYHK-J 002700430014
BI00A32W4    4500191089     202204217114-4100-02             TERMINAL                 CCN000450000000450000FN00000000020220401000450000NNE   20220318133236W4M94P0P  00001800000000748800001077432W4M9  HJYHK-J 006400630017
BI00A32W4    4500191091     202205167282-4855                HOUSING MALE ASS'Y       CCN000014400000014400FN00000000020220501000014400NNE   20220318133309W4L64N0N  00000120000001063200001283232W4L6  HJYHK-K 005500360039
BI00A32W4    4500191091     202205167114-6041                TERMINAL                 CCN000021600000021600FN00000000020220501000021600NNE   20220318133309W4L64P0P  00000360000000580700000824232W4L6  HJYHK-K 006400630015
BI00A32W4    4500191091     202205167283-1156                CONNECTOR                CCN000007200000007200FN00000000020220501000007200NNE   20220318133309W4L64N0N  00000080000000877600001078032W4L6  HJYHK-K 005600390040
BI00A32W4    @4500191091    202205167287-6634                HOUSING FEMALE ASS'Y     CCN000007200000007200FN00000000020220501000007200NNE   20220318133305W4L63N0N  00000240000001088400001337032W4L6  HJYHK-K 005500360039
BI00B32W4    4500191092     202205197116-4100-02             TERMINAL                 CCN000075000000075000FN00000000020220501000075000NNE   20220318133352W4164P0P  00001500000000696000000990232W416  HJYHK   006400630015
BI00B32W4    4500191092     202205197114-4112-02             TERMINAL                 CCN000018000000018000FN00000000020220501000018000NNE   20220318133352W4164P0P  00000900000000598500000927132W416  HJYHK   006400630017
BI00B32W4    4500191092     202205197116-4121-02             TERMINAL                 CCN000004500000004500FN00000000020220501000004500NNE   20220318133352W4164P0P  00000450000000618800000912432W416  HJYHK   006400630015
BI00B32W4    4500191092     202205197116-4111-02             TERMINAL                 CCN000007500000007500FN00000000020220501000007500NNE   20220318133352W4164P0P  00000750000000529500000817732W416  HJYHK   006400630015
BI00B32W4    4500191092     202205197116-4112-02             TERMINAL                 CCN000030000000030000FN00000000020220501000030000NNE   20220318133352W4164P0P  00000600000000450000000738232W416  HJYHK   006400630015
BI00B32W4    4500191092     202205197116-4102-02             TERMINAL                 CCN000036000000036000FN00000000020220501000036000NNE   20220318133352W4164P0P  00001200000000553200000841432W416  HJYHK   006400630015
BI00B32W4    4500191092     202205197116-4025                TERMINAL                 CCN000016000000016000FN00000000020220501000016000NNE   20220318133352W4164P0P  00001600000000644800000975132W416  HJYHK   006400630017
BI00B32W4    4500191092     202205197283-7028-30             CONNECTOR                CCN000003000000003000FN00000000020220501000003000NNE   20220318133352W4164N0N  00000300000001452000001681332W416  HJYHK   005600390040
BI00B32W4    4500191092     202205197114-4100-02             TERMINAL                 CCN000090000000090000FN00000000020220501000090000NNE   20220318133352W4164P0P  00001800000000748800001077432W416  HJYHK   006400630017
BI00B32W4    4500191092     202205197116-4026                TERMINAL                 CCN000016000000016000FN00000000020220501000016000NNE   20220318133352W4164P0P  00001600000000664000000994332W416  HJYHK   006400630017
BI00B32W4    4500191092     202205197116-4124-02             TERMINAL                 CCN000003000000003000FN00000000020220501000003000NNE   20220318133352W4164P0P  00000300000000459900000753532W416  HJYHK   006400630015
BI00B32W4    4500191092     202205197283-5548-30             CONNECTOR                CCN000001500000001500FN00000000020220501000001500NNE   20220318133352W4164N0N  00000150000001109000001302032W416  HJYHK   005600390040
BI00B32W4    4500191092     202205197158-3166-60             WIRE SEAL                CCN000120000000120000FN00000000020220501000120000NNE   20220318133352W4161C0C  00004000000000104000000152432W416  HJYHK   002700430014
BI00B32W4    4500191092     202205197158-3169-40             SEALING PLUG             CCN000040000000040000FN00000000020220501000040000NNE   20220318133352W4161C0C  00004000000000156000000204132W416  HJYHK   004300260014
BI00B32W4    4500191092     202205197116-4101-02             TERMINAL                 CCN000060000000060000FN00000000020220501000060000NNE   20220318133352W4164P0P  00001200000000582000000876232W416  HJYHK   006400630015
BI00B32W4    4500191092     202205197116-4120-02             TERMINAL                 CCN000012000000012000FN00000000020220501000012000NNE   20220318133352W4164P0P  00000600000000780000001073632W416  HJYHK   006400630015
BI00B32W4    4500191092     202205197114-4101-02             TERMINAL                 CCN000030000000030000FN00000000020220501000030000NNE   20220318133352W4164P0P  00001500000000675000001003632W416  HJYHK   006400630017
BI00B32W4    4500191092     202205197116-4104-02             TERMINAL                 CCN000048000000048000FN00000000020220501000048000NNE   20220318133352W4164P0P  00001200000000580800000972432W416  HJYHK   006400630015
BI00B32W4    4500191092     202205197114-4110-02             TERMINAL                 CCN000015000000015000FN00000000020220501000015000NNE   20220318133352W4164P0P  00001500000000901500001230132W416  HJYHK   006400630017
BI00B32W4    4500191092     202205197116-4110-02             TERMINAL                 CCN000009000000009000FN00000000020220501000009000NNE   20220318133352W4164P0P  00000900000000594000000882232W416  HJYHK   006400630015
BI00B32W4    4500191092     202205197116-4103-02             TERMINAL                 CCN000012000000012000FN00000000020220501000012000NNE   20220318133352W4164P0P  00001200000000571200000859432W416  HJYHK   006400630015
BI00B32W4    4500191092     202205197283-1020                CONNECTOR                CCN000012000000012000FN00000000020220501000012000NNE   20220318133352W4164N0N  00000600000000840000001049332W416  HJYHK   005600390040
BI00B32W4    4500191092     202205197283-1024                CONNECTOR SUB ASSY       CCN000006000000006000FN00000000020220501000006000NNE   20220318133352W4164N0N  00000200000000400000000522532W416  HJYHK   005400370024
BI00B32W4    4500191092     202205197282-1024                HOUSING MALE             CCN000006000000006000FN00000000020220501000006000NNE   20220318133352W4161N0N  00000100000000458000000580532W416  HJYHK   005400370024
BI00B32W4    4500191092     202205197288-6547                CONNECTOR MALE ASS'Y     CCN000012750000012750FN00000000020220501000012750NNE   20220318133352W4164N0N  00000075000001205300001340332W416  HJYHK   005400370024
BI00B32W4    4500191092     202205197289-6547                HOUSING FEMALE ASS'Y     CCN000009600000009600FN00000000020220501000009600NNE   20220318133352W4161N0N  00000240000001152000001362032W416  HJYHK   005500360039
BI00B32W4    4500191092     202205197283-1156                CONNECTOR                CCN000008000000008000FN00000000020220501000008000NNE   20220318133352W4164N0N  00000080000000877600001078032W416  HJYHK   005600390040
BI00B32W4    4500191092     202205197114-4032                TERMINAL                 CCN000007500000007500FN00000000020220501000007500NNE   20220318133352W4164P0P  00000750000000735000001063632W416  HJYHK   006400630017
BI00B32W4    #4500191092    202205197282-4190-30             CONNECTOR                CCN000003840000003840FN00000000020220501000003840NNE   20220318133344W4162N0N  00000024000000801000001071332W416  HJYHK   005600390040
BI00B32W4    #4500191092    202205197283-4190-30             CONNECTOR                CCN000003840000003840FN00000000020220501000003840NNE   20220318133344W4162N0N  00000024000000846000001115532W416  HJYHK   005600390040
BI00B32W4    #4500191092    202205197187-1616                HOUSING FEMALE           CCN000004000000004000FN00000000020220501000004000NNE   20220318133344W4162F0F  00000400000001152000001262032W416  HJYHK   005500360039
BI00B32W4    @4500191092    202205197183-8049                CONNECTOR HOUSING        CCN000004000000004000FN00000000020220501000004000NNE   20220318133348W4163F0F  00000400000000583600000740032W416  HJYHK   005400370024
BI00B32W4    @4500191092    202205197287-6634                HOUSING FEMALE ASS'Y     CCN000004800000004800FN00000000020220501000004800NNE   20220318133348W4163N0N  00000240000001088400001337032W416  HJYHK   005500360039
BI00A32W4    4500191095     202205027116-5751-02             TERMINAL                 CCN000024000000024000FN00000000020220501000024000NNE   20220318133425W44 4P0P  00001200000000379200000664432W44   HJYHK   006400630015
BI00B32W4    4500191096     202205197116-4101-02             TERMINAL                 CCN000024000000024000FN00000000020220501000024000NNE   20220318133455W4664P0P  00001200000000582000000876232W466  HJYHK   006400630015
BI00B32W4    4500191096     202205197114-4101-02             TERMINAL                 CCN000030000000030000FN00000000020220501000030000NNE   20220318133455W4664P0P  00001500000000675000001003632W466  HJYHK   006400630017
BI00B32W4    4500191096     202205197114-4110-02             TERMINAL                 CCN000030000000030000FN00000000020220501000030000NNE   20220318133455W4664P0P  00001500000000901500001230132W466  HJYHK   006400630017
BI00B32W4    4500191096     202205197116-4110-02             TERMINAL                 CCN000045000000045000FN00000000020220501000045000NNE   20220318133455W4664P0P  00000900000000594000000882232W466  HJYHK   006400630015
BI00B32W4    4500191096     202205197116-4103-02             TERMINAL                 CCN000012000000012000FN00000000020220501000012000NNE   20220318133455W4664P0P  00001200000000571200000859432W466  HJYHK   006400630015
BI00B32W4    4500191103     202205197116-4100-02             TERMINAL                 CCN000135000000135000FN00000000020220501000135000NNE   20220318134130W4664P0P  00001500000000696000000990232W466  HJYHK   006400630015
BI00B32W4    4500191103     202205197114-4112-02             TERMINAL                 CCN000045000000045000FN00000000020220501000045000NNE   20220318134130W4664P0P  00000900000000598500000927132W466  HJYHK   006400630017
BI00B32W4    4500191103     202205197116-4111-02             TERMINAL                 CCN000015000000015000FN00000000020220501000015000NNE   20220318134130W4664P0P  00000750000000529500000817732W466  HJYHK   006400630015
BI00B32W4    4500191103     202205197116-4102-02             TERMINAL                 CCN000060000000060000FN00000000020220501000060000NNE   20220318134130W4664P0P  00001200000000553200000841432W466  HJYHK   006400630015
BI00B32W4    4500191103     202205197114-4100-02             TERMINAL                 CCN000072000000072000FN00000000020220501000072000NNE   20220318134130W4664P0P  00001800000000748800001077432W466  HJYHK   006400630017
BI00B32W4    4500191103     202205197114-4111-02             TERMINAL                 CCN000036000000036000FN00000000020220501000036000NNE   20220318134130W4664P0P  00001200000000758400001087032W466  HJYHK   006400630017
BI00B32W4    4500191103     202205197158-3167-80             WIRE SEAL                CCN000020000000020000FN00000000020220501000020000NNE   20220318134130W4661C0C  00002000000000048000000109032W466  HJYHK   002700430014
BI00B32W4    #4500191103    202205197282-4190-30             CONNECTOR                CCN000002880000002880FN00000000020220501000002880NNE   20220318134126W4662N0N  00000024000000801000001071332W466  HJYHK   005600390040
BI00B32W4    #4500191103    202205197283-4190-30             CONNECTOR                CCN000002400000002400FN00000000020220501000002400NNE   20220318134126W4662N0N  00000024000000846000001115532W466  HJYHK   005600390040
BI00A32W4    #4500191113    202204257157-3646                RUBBER STOPPER           CCN000020000000020000FN00000000020220401000020000NNE   20220318134253W4422H0H  00002000000000184000000255232W442  HJYHK   002700430014
BI00A32W4    #4500191114    202205047283-8226-30             CONNECTOR                CCN000006000000006000FN00000000020220501000006000NNED0720220318134348W4422N0N  00000200000000820000001008032W442  HJYHK   005400370024
BI00A32W4    4500191120     202205167116-4026                TERMINAL                 CCN000016000000016000FN00000000020220501000016000NNE   20220318134423W4424P0P  00001600000000664000000994332W442  HJYHK   006400630017
BI00A32W4    4500191125     202204257114-1470                TERMINAL                 CCN000033000000033000FN00000000020220401000033000NNE   20220318134447W4G34P0P  00001650000000544500000838732W4G3  HJYHK-J 006400630015
BI00A32W4    4500191125     202204257283-8721-30             HOUSING FEMALE ASS'Y     CCN000002000000002000FN00000000020220401000002000NNE   20220318134447W4G34N0N  00000100000000350000000462532W4G3  HJYHK-J 005400370024
BI00B32W4    4500191137     202204217116-4022                TERMINAL                 CCN000351000000351000FN00000000020220401000351000NNE   20220318134527W4514P0P  00001350000000618300000903532W451  HJ32W9  006400630015
BI00B32W4    4500191137     202204217116-4231-02             TERMINAL                 CCN000936000000936000FN00000000020220401000936000NNE   20220318134527W4514P0P  00002600000000683800001012532W451  HJ32W9  006400630017
BI00B32W4    4500191137     202204217158-3169-40             SEALING PLUG             CCN000160000000160000FN00000000020220401000160000NNE   20220318134527W4511C0C  00004000000000156000000204132W451  HJ32W9  004300260014
BI00B32W4    4500191137     202204217283-1020                CONNECTOR                CCN000198000000198000FN00000000020220401000198000NNE   20220318134527W4514N0N  00000600000000840000001049332W451  HJ32W9  005600390040
BI00B32W4    4500191137     202204217283-1968-30             CONNECTOR                CCN000001800000001800FN00000000020220401000001800NNE   20220318134527W4511N0N  00000090000001140000001318332W451  HJ32W9  005600390040
BI00B32W4    4500191137     202204217287-7975-4W             SQUIB SUB ASS'Y          CCN000040000000040000FN00000000020220401000040000NNE   20220318134527W4514N0N  00001000000000837000001017032W451  HJ32W9  005400370024
BI00B32W4    #4500191137    202204217123-6423-30             CONNECTOR                CCN000002000000002000FN00000000020220401000002000NNE   20220318134516W4512F0F  00000200000001002000001167632W451  HJ32W9  005600390023
BI00B32W4    #4500191137    202204217147-8931-30             CLIP                     CCN000009000000009000FN00000000020220401000009000NNE   20220318134516W4512F0F  00000450000000387000000531732W451  HJ32W9  005600390023
BI00B32W4    #4500191137    202204217183-2418                CONNECTOR HOUSING        CCN000004800000004800FN00000000020220401000004800NNE   20220318134516W4512F0F  00000480000000917000001477032W451  HJ32W9  005500360039
BI00B32W4    #4500191137    202204217283-8397-40             CONNECTOR                CCN000006160000006160FN00000000020220401000006160NNE   20220318134516W4512N0N  00000154000001007000001222732W451  HJ32W9  005600390023
BI00B32W4    @4500191137    202204217282-1060                HOUSING SUB ASSEMBLY     CCN000001600000001600FN00000000020220401000001600NNE   20220318134523W4513N0N  00000160000000955500001169032W451  HJ32W9  005500360039
BI00B32W4    @4500191137    202204217282-1148-40             CONNECTOR ASS'Y          CCN000015200000015200FN00000000020220401000015200NNE   20220318134523W4513N0N  00000080000001171200001402032W451  HJ32W9  005500360039
BI00A32X5    TIB1049        202203287289-3342-30             HOUSING FEMALE ASS'Y     PCN000086400000086400FN00000000020220101000086400NNM00020220318133606X5  1N0N  00000240000000686400000901432X5    EPYNA-E 005500360039
BI00A32X5    TIB2002        202203287289-3342-30             HOUSING FEMALE ASS'Y     PCN000067200000067200FN00000000020220201000067200NNM00020220318142157X5  1N0N  00000240000000686400000901432X5    EPYNA-E 005500360039
BI00A32X5    TIB2010        202204077289-5979-30             HOUSING FEMALE ASS'Y     PCN000000756000000756FN00000000020220401000000756NNMD0420220318122604X5  1N0N  00000025200000854700001064732X5    EPYNA-E 005400370024
BI00B32X5    TIB2012        202203257289-3342-90             HOUSING FEMALE ASS'Y     CCN000012000000012000FN00000000020220501000012000NNM00020220318162336X5  1N0N  00000240000000686400000901432X5    EPYNA-E 005500360039
BI00A32X5    TIB2016        202204077289-5979-30             HOUSING FEMALE ASS'Y     PCN000002268000002268FN00000000020220601000002268NNMD0420220318122604X5  1N0N  00000025200000854700001064732X5    EPYNA-E 005400370024
BI00A32X5    TIB1046        202203237289-3342-30             HOUSING FEMALE ASS'Y     PCN000048000000048000FN00000000020220101000048000NNM00020220318142146X5  1N0N  00000240000000686400000901432X5    EPYNA-E 005500360039
BI00B32Y2    TAU1193        202205267289-3342-30             HOUSING FEMALE ASS'Y     CCN000004800000004800FN00000000020220801000004800NNED0420220318170040    1N0N  00000240000000686400000901432Y2    YUYUY   005500360039
