BI00A1200    KBVBK17        202203037282-5574-10             CONNECTOR                CCN000000800000000800FN00000000020220301000000800NNEM0020220228131830    4N0N  0000008000000123500000142301200    YCYC    005600390040
BI00B1200    #2399T52309    202206027173-3225-10             LIF LEVER                CCN000016800000016800FN00000000020220501000016800NNMD0420220228141050    2F0F  0000008000000059200000071201200    YCYC    005500360039
BI00B1200    #2399T52310    202206097173-3225-10             LIF LEVER                CCN000016800000016800FN00000000020220501000016800NNMD0420220228141109    2F0F  0000008000000059200000071201200    YCYC    005500360039
BI00B1200    #2399T52311    202206167173-3225-10             LIF LEVER                CCN000016000000016000FN00000000020220501000016000NNMD0420220228141129    2F0F  0000008000000059200000071201200    YCYC    005500360039
BI00B1200    2399T52316     202204287288-7969                HYBRID MALE ASS'Y        CCN000039040000019520FN00000000020220501000019520NNMD0220220228154220    1N0N  0000003200000087620000110171200    YCYC    005400370024
BI00B1200    2399T52317     202205127288-7969                HYBRID MALE ASS'Y        CCN000038720000019520FN00000000020220501000019520NNMD0420220228154327    1N0N  0000003200000087620000110171200    YCYC    005400370024
BI00B1200    2399T52316     202208047289-5979-30             HOUSING FEMALE ASS'Y     CCN000033516000016632FN00000000020220501000016632NNMD0420220228154456    1N0N  0000002520000085470000106471200    YCYC    005400370024
BI00B1200    2399T52317     202208187289-5979-30             HOUSING FEMALE ASS'Y     CCN000033516000016632FN00000000020220501000016632NNMD0420220228154539    1N0N  0000002520000085470000106471200    YCYC    005400370024
BI00B1200    2399T52319     202205267288-7969                HYBRID MALE ASS'Y        CCN000038720000038720FN00000000020220501000038720NNMD0420220228154407    1N0N  0000003200000087620000110171200    YCYC    005400370024
BI00B1200    2399T52319     202209017289-5979-30             HOUSING FEMALE ASS'Y     CCN000033264000016632FN00000000020220501000016632NNMD0420220228154621    1N0N  0000002520000085470000106471200    YCYC    005400370024
BI00B1200    H722F50002     202205057297-1861-30             HOUSING MALE ASS'Y       CCN000009000000009000FN00000000020220601000009000NNE   20220228131830    4N0N  0000015000000070220000082731200    YCYC    005400370024
BI00B1200    2399T52316     202205057288-7969                HYBRID MALE ASS'Y        CCN000019520000019520FN00000000020220501000019520NNMD0220220228154225    1N0N  0000003200000087620000110171200    YCYC    005400370024
BI00B1200    2399T52317     202205197288-7969                HYBRID MALE ASS'Y        CCN000019200000019200FN00000000020220501000019200NNMD0420220228154334    1N0N  0000003200000087620000110171200    YCYC    005400370024
BI00B1200    2399T52316     202208117289-5979-30             HOUSING FEMALE ASS'Y     CCN000016884000016884FN00000000020220501000016884NNMD0420220228154501    1N0N  0000002520000085470000106471200    YCYC    005400370024
BI00B1200    2399T52317     202208257289-5979-30             HOUSING FEMALE ASS'Y     CCN000016884000016884FN00000000020220501000016884NNMD0420220228154545    1N0N  0000002520000085470000106471200    YCYC    005400370024
BI00B1200    2399T52319     202209087289-5979-30             HOUSING FEMALE ASS'Y     CCN000016632000016632FN00000000020220501000016632NNMD0420220228154626    1N0N  0000002520000085470000106471200    YCYC    005400370024
BI00B32BF    TT2204AKMW     202203087116-4025                TERMINAL                 CCN000032000000032000FN00000000020220401000032000NNED0720220228131830    4P0P  00001600000000644800000975132BF    TTTJYCD 006400630017
BI00B32BF    TT2204AKMW     202203087158-3006-90             RUBBER STOPPER           CCN000040000000040000FN00000000020220401000040000NNED0720220228131830    1C0C  00002000000000330600000386032BF    TTTJYCD 002700430014
BI00B32BF    @TT2204AKMW    202203087283-1100-60             CONNECTOR ASS'Y          CCN000001600000001600FN00000000020220401000001600NNED0720220228131830    3N0N  00000160000000567500000801432BF    TTTJYCD 005500360039
BI00B32BF    TT22061BMW     202204197114-4624-02             TERMINAL                 CCN000024000000024000FN00000000020220601000024000NNM   20220228131830    4P0P  00002400000000895200001188832BF    TTTJYCD 006400630015
BI00B32BF    TT22061BMW     202204197114-4728-08             TERMINAL                 CCN000030000000030000FN00000000020220601000030000NNM   20220228131830    4P0P  00003000000000507000000801232BF    TTTJYCD 006400630015
BI00B32BF    TT22065BMW     202205177114-6041                TERMINAL                 CCN000003600000003600FN00000000020220601000003600NNM   20220228131830    4P0P  00000360000000580700000824232BF    TTTJYCD 006400630015
BI00B32BF    TT22061BMW     202204197116-1257-02             TERMINAL                 CCN000024000000024000FN00000000020220601000024000NNM   20220228131830    1P0P  00002400000000518400000847132BF    TTTJYCD 006400630017
BI00B32BF    TT22061BMW     202204197116-3153-08             TERMINAL                 CCN000027000000027000FN00000000020220601000027000NNM   20220228131830    4P0P  00002700000000461700000746932BF    TTTJYCD 006400630015
BI00B32BF    TT22061BMW     202204197126-8853-02             TERMINAL                 CCN000007500000007500FN00000000020220601000007500NNM   20220228131830    4P0P  00000750000000562500000847732BF    TTTJYCD 006400630015
BI00B32BF    TT22062BMW     202204267126-8853-02             TERMINAL                 CCN000007500000007500FN00000000020220601000007500NNM   20220228131830    4P0P  00000750000000562500000847732BF    TTTJYCD 006400630015
BI00B32BF    TT22061BMW     202204197158-3006-90             RUBBER STOPPER           CCN000020000000020000FN00000000020220601000020000NNM   20220228131830    1C0C  00002000000000330600000386032BF    TTTJYCD 002700430014
BI00B32BF    TT22061BMW     202204197196-0396-02             TERMINAL                 CCN000015000000015000FN00000000020220601000015000NNM   20220228131830    4P0P  00001500000000949500001112932BF    TTTJYCD 002800510028
BI00B32BF    TT22061BMW     202204197196-0510-02             TERMINAL                 CCN000024000000024000FN00000000020220601000024000NNM   20220228131830    4P0P  00002400000000871200001034632BF    TTTJYCD 002800510028
BI00B32BF    TT22063BMW     202205037196-0510-02             TERMINAL                 CCN000024000000024000FN00000000020220601000024000NNM   20220228131830    4P0P  00002400000000871200001034632BF    TTTJYCD 002800510028
BI00B32BF    TT22064BMW     202205107196-0510-02             TERMINAL                 CCN000024000000024000FN00000000020220601000024000NNM   20220228131830    4P0P  00002400000000871200001034632BF    TTTJYCD 002800510028
BI00B32BF    TT22065BMW     202205177196-0510-02             TERMINAL                 CCN000024000000024000FN00000000020220601000024000NNM   20220228131830    4P0P  00002400000000871200001034632BF    TTTJYCD 002800510028
BI00B32BF    TT22061BMW     202204197283-4855                CONNECTOR HOUSING        CCN000002400000002400FN00000000020220601000002400NNM   20220228131830    4N0N  00000240000001188400001400032BF    TTTJYCD 005500360039
BI00B32BF    TT22064BMW     202205107283-4855                CONNECTOR HOUSING        CCN000002400000002400FN00000000020220601000002400NNM   20220228131830    4N0N  00000240000001188400001400032BF    TTTJYCD 005500360039
BI00B32BF    TT22065BMW     202205177283-4855                CONNECTOR HOUSING        CCN000004800000004800FN00000000020220601000004800NNM   20220228131830    4N0N  00000240000001188400001400032BF    TTTJYCD 005500360039
BI00B32B1    A22019A        202205137114-4032                TERMINAL                 CCN000007500000007500FN00000000020220601000007500NNE   20220228131830B1  4P0P  00000750000000735000001063632B1    AXARNE-M006400630017
BI00B32B1    A22019A        202205137282-5553-30             CONNECTOR                CCN000002000000002000FN00000000020220601000002000NNE   20220228131830B1  4N0N  00000100000001010000001187332B1    AXARNE-M005500360039
BI00B32B1    A22019A        202205137282-5574-10             CONNECTOR                CCN000000800000000800FN00000000020220601000000800NNE   20220228131830B1  4N0N  00000080000001235000001423032B1    AXARNE-M005600390040
BI00B32B1    #A22019A       202205137158-3376-50             CONNECTOR WIRE SEAL      CCN000100000000100000FN00000000020220601000100000NNE   20220228131830B1  2C0C  00002000000000184000000240732B1    AXARNE-M002700430014
BI00B32B1    #A22019A       202205137282-8395-40             CONNECTOR                CCN000005000000005000FN00000000020220601000005000NNE   20220228131830B1  2N0N  00000100000001009000001188032B1    AXARNE-M005500360039
BI00B32B1    #A22019A       202205137283-8397-40             CONNECTOR                CCN000001540000001540FN00000000020220601000001540NNE   20220228131830B1  2N0N  00000154000001007000001222732B1    AXARNE-M005600390023
BI00A32B6    TAPP13C1E      202203117327-6994-3W             BATTERY FUSE             CCN000000500000000504FN00000000020220201000000504NNED0720220228131830B6  4N0N  00000007200001215100001430132B6    AXARNE-M005500360039
BI00B32B6    A72019A        202205137017-1180-02             TERMINAL                 CCN000072000000072000FN00000000020220701000072000NNE   20220228131830B6  4P0P  00007200000001065600001229032B6    AXARNE-M005100280028
BI00B32B6    A72019A        202205137158-3166-60             WIRE SEAL                CCN000040000000040000FN00000000020220701000040000NNE   20220228131830B6  1C0C  00004000000000104000000152432B6    AXARNE-M002700430014
BI00B32B6    A72019A        202205137158-3169-40             SEALING PLUG             CCN000120000000120000FN00000000020220701000120000NNE   20220228131830B6  1C0C  00004000000000156000000204132B6    AXARNE-M004300260014
BI00B32B6    A72019A        202205137287-0192-40             SEALED HOUSING ASS'Y     CCN000000960000000960FN00000000020220701000000960NNE   20220228131830B6  4N0N  00000048000001092000001322032B6    AXARNE-M005600390040
BI00B32B6    #A72019A       202205137157-7812                SEAL RUBBER              CCN000010000000010000FN00000000020220701000010000NNE   20220228131830B6  2C0C  00001000000000137000000202032B6    AXARNE-M002700430014
BI00B32B6    #A72019A       202205137158-3017                RUBBER STOPPER           CCN000010000000010000FN00000000020220701000010000NNE   20220228131830B6  2C0C  00001000000000375500000435032B6    AXARNE-M002700430014
BI00B32B7    A82013         202203117158-3167-80             WIRE SEAL                CCN000160000000160000FN00000000020220501000160000NNMD0020220228131830B7  1C0C  00002000000000048000000109032B7    AXARNE-M002700430014
BI00B32B7    A82014         202203117158-3167-80             WIRE SEAL                CCN000300000000300000FN00000000020220601000300000NNMD0020220228131830B7  1C0C  00002000000000048000000109032B7    AXARNE-M002700430014
BI00B32B7    A82018         202204087158-3167-80             WIRE SEAL                CCN000160000000160000FN00000000020220701000160000NNMD0020220228131830B7  1C0C  00002000000000048000000109032B7    AXARNE-M002700430014
BI00B32B7    A82019A        202205137158-3167-80             WIRE SEAL                CCN000160000000160000FN00000000020220701000160000NNE   20220228131830B7  1C0C  00002000000000048000000109032B7    AXARNE-M002700430014
BI00B32B7    A82019A        202205137158-3169-40             SEALING PLUG             CCN000080000000080000FN00000000020220701000080000NNE   20220228131830B7  1C0C  00004000000000156000000204132B7    AXARNE-M004300260014
BI00B32B7    A82019A        202205137282-6448-40             CONNECTOR                CCN000012000000012000FN00000000020220701000012000NNE   20220228131830B7  4N0N  00000080000000887000001152732B7    AXARNE-M005600390040
BI00B32B7    A82019A        202205137283-8599-30             CONNECTOR                CCN000001540000001540FN00000000020220701000001540NNE   20220228131830B7  4N0N  00000154000000947100001157032B7    AXARNE-M005600390023
BI00B32B7    #A82019A       202205137135-7031                GROMMET                  CCN000003900000003900FN00000000020220701000003900NNE   20220228131830B7  2H0H  00000010000000634200000744232B7    AXARNE-M005400370024
BI00B32B7    #A82019A       202205137158-3376-50             CONNECTOR WIRE SEAL      CCN000040000000040000FN00000000020220701000040000NNE   20220228131830B7  2C0C  00002000000000184000000240732B7    AXARNE-M002700430014
BI00B32B7    #A82019A       202205137283-8397-40             CONNECTOR                CCN000009240000009240FN00000000020220701000009240NNE   20220228131830B7  2N0N  00000154000001007000001222732B7    AXARNE-M005600390023
BI00B32B7    #A82019A       202205137283-8398-40             CONNECTOR                CCN000007700000007700FN00000000020220701000007700NNE   20220228131830B7  2N0N  00000154000001007000001171332B7    AXARNE-M005600390023
BI00B32CH    SJ2204B MW     202203107114-4020                TERMINAL                 CCN000021000000021000FN00000000020220401000021000NNE   20220228131830    4P0P  00002100000000875700001169332CH    SJSAMIJF006400630015
BI00B32CH    SJ2204B MW     202203107158-3022-80             RUBBER STOPPER           CCN000005000000005000FN00000000020220401000005000NNE   20220228131830    1C0C  00000500000000467500000524032CH    SJSAMIJF002700430014
BI00B32CH    SJ2204B MW     202203107283-4576                HOUSING FEMALE ASS'Y     CCN000004800000004800FN00000000020220401000004800NNE   20220228131830    4N0N  00000480000000651300000871332CH    SJSAMIJF005500360039
BI00B32CH    SJ2204BDMW     202203107286-4097                CONNECTOR MALE ASS'Y     CCN000001600000001600FN00000000020220401000001600NNE   20220228131830    1N0N  00000160000000768000000978032CH    SJSAMIJF005500360039
BI00B32CH    SJ2204BHMW     202203177298-3822-70             HOUSING FEMALE ASS'Y     CCN000000020000002520FN00000000020220401000002520NNE   20220228131830    4N0N  00000252000000776200001077032CH    SJSAMIJF005500360039
BI00B32CH    SJ2204BHMW     202203177327-6908                MAIN FUSE                CCN000001200000001200FN00000000020220401000001200NNE   20220228131830    4N0N  00000060000000730400000915432CH    SJSAMIJF005400370024
BI00B32CH    SJ2204BHMW     202203177327-6939-30             MULTI FUSE               CCN000000288000000288FN00000000020220401000000288NNE   20220228131830    4N00  00000028800000992200001158132CH    SJSAMIJF005400370024
BI00B32CH    SJ2204BHMW     202203177327-6941-30             MULTI FUSE               CCN000000288000000288FN00000000020220401000000288NNE   20220228131830    4N00  00000028800001014400001180332CH    SJSAMIJF005400370024
BI00B32CH    #SJ2204BHMW    202203177157-3821                RUBBER STOPPER           CCN000020000000020000FN00000000020220401000020000NNE   20220228131830    2C0C  00002000000000176000000238032CH    SJSAMIJF002700430014
BI00B32CH    #SJ2204BMMW    202203177283-8123                CONNECTOR HOUSING        CCN000004000000004000FN00000000020220401000004000NNE   20220228131830    2N0N  00000400000000380000000531732CH    SJSAMIJF005600390023
BI00A32CJ    JQN203C        202203037126-8889-02             FUSE TERMINAL            CCN000000800000006000FN00000000020220301000006000NNEM0020220228150815    4P0P  00000600000000448200000733432CJ    QNYHVQN 006400630015
BI00A32CJ    JQN203C        202203037126-8891-02             FUSE TERMINAL            CCN000000600000006000FN00000000020220301000006000NNEM0020220228150835    4P0P  00000600000000481800000767032CJ    QNYHVQN 006400630015
BI00A32CJ    JQN203C        202203037126-8892-02             FUSE TERMINAL            CCN000000600000006000FN00000000020220301000006000NNEM0020220228150847    4P0P  00000600000000495000000780232CJ    QNYHVQN 006400630015
BI00A32CJ    JQN203C        202203037195-2046-02             TERMINAL MALE            CCN000000350000008400FN00000000020220301000008400NNEM0020220228150910    4P0P  00000840000000818200001111832CJ    QNYHVQN 006400630015
BI00B32DE    TCT2034        202203107158-3006-90             RUBBER STOPPER           CCN000700000000700000FN00000000020220301000700000NNMD0020220228131830    1C0C  00002000000000330600000386032DE    TVYEV-TV002700430014
BI00B32DE    TCT2042        202203247158-3006-90             RUBBER STOPPER           CCN000280000000280000FN00000000020220401000280000NNMD0020220228131830    1C0C  00002000000000330600000386032DE    TVYEV-TV002700430014
BI00B32DE    TCT204A        202203177158-3006-90             RUBBER STOPPER           CCN000340000000340000FN00000000020220401000340000NNED0020220228131830    1C0C  00002000000000330600000386032DE    TVYEV-TV002700430014
BI00B32D1    DFTC2203       202203037289-3342-40             HOUSING FEMALE ASS'Y     CCN000012000000012000FN00000000020220101000012000NNM00020220228160753    1N0N  00000240000000686400000901432D1    TOYOT-K 005500360039
BI00A32D1    DFTC2212       202203017289-3342-90             HOUSING FEMALE ASS'Y     CCN000007200000007200FN00000000020220301000007200NNM00020220228155548    1N0N  00000240000000686400000901432D1    TOYOT-K 005500360039
BI00B32D1    #DFTC2214      202203037172-5630-40             RUBBER STOPPER           CCN000040000000040000FN00000000020220401000040000NNM00020220228160721    2H0H  00002000000000044000000095132D1    TOYOT-K 004300270014
BI00B32D1    DFTC2215       202203037289-3342-30             HOUSING FEMALE ASS'Y     CCN000038400000038400FN00000000020220401000038400NNM00020220228160805    1N0N  00000240000000686400000901432D1    TOYOT-K 005500360039
BI00A32D1    DFTC2216       202203017158-3070-80             RUBBER STOPPER           CCN000040000000040000FN00000000020220401000040000NNM00020220228155452    1C0C  00004000000000276000000333332D1    TOYOT-K 002700430014
BI00B32D1    DFTC2216       202203037158-3167-80             WIRE SEAL                CCN000020000000020000FN00000000020220401000020000NNM00020220228160825    1C0C  00002000000000048000000109032D1    TOYOT-K 002700430014
BI00A32D1    DFTC2216       202203037289-3342-40             HOUSING FEMALE ASS'Y     CCN000012000000012000FN00000000020220401000012000NNM00020220228160846    1N0N  00000240000000686400000901432D1    TOYOT-K 005500360039
BI00B32D1    DFTC2216       202203037289-3342-90             HOUSING FEMALE ASS'Y     CCN000009600000009600FN00000000020220401000009600NNM00020220228160842    1N0N  00000240000000686400000901432D1    TOYOT-K 005500360039
BI00A32D1    DFTC2216       202203017289-6547                HOUSING FEMALE ASS'Y     CCN000012000000012000FN00000000020220401000012000NNM00020220228155557    1N0N  00000240000001152000001362032D1    TOYOT-K 005500360039
BI00B32D1    DFTC2216       202203037388-2978-30             HOUSING MALE ASS'Y       CCN000009600000009600FN00000000020220401000009600NNM00020220228160857    1N0N  00000048000000742000001122032D1    TOYOT-K 005500360039
BI00A32D1    DFTC2217       202203017289-6547                HOUSING FEMALE ASS'Y     CCN000002400000002400FN00000000020220401000002400NNM00020220228155603    1N0N  00000240000001152000001362032D1    TOYOT-K 005500360039
BI00B32D1    DFTC2219       202203037296-1025-02             TERMINAL ALUMINIUM       CCN000018000000018000FN00000000020220501000018000NNM00020220228160940    4P0P  00001800000000635400000920632D1    TOYOT-K 006400630015
BI00A32D1    DFTC2218       202203017388-2978-30             HOUSING MALE ASS'Y       CCN000001920000001920FN00000000020220501000001920NNM00020220228155515    1N0N  00000048000000742000001122032D1    TOYOT-K 005500360039
BI00B32D2    DGTC2207       202203037288-6547                CONNECTOR MALE ASS'Y     CCN000003000000003000FN00000000020220201000003000NNM00020220228161710    4N0N  00000075000001205300001340332D2    TGYOT-G 005400370024
BI00B32D2    DGTC2212       202203037289-3342-40             HOUSING FEMALE ASS'Y     CCN000043200000009600FN00000000020220301000009600NNM00020220228161115    1N0N  00000240000000686400000901432D2    TGYOT-G 005500360039
BI00B32D2    #DGTC2213      202203037172-5629-80             RUBBER STOPPER           CCN000180000000180000FN00000000020220401000180000NNM00020220228160955    2H0H  00002000000000060000000111132D2    TGYOT-G 004300270014
BI00B32D2    #DGTC2215      202203037172-5630-40             RUBBER STOPPER           CCN000140000000140000FN00000000020220401000140000NNM00020220228161010    2H0H  00002000000000044000000095132D2    TGYOT-G 004300270014
BI00B32D2    #DGTC2216      202203037158-3003-90             RUBBER STOPPER           CCN000200000000200000FN00000000020220401000200000NNM00020220228161026    2C0C  00002000000000250000000306032D2    TGYOT-G 002700430014
BI00A32D2    DGTC2218       202203017289-3342-40             HOUSING FEMALE ASS'Y     CCN000014400000014400FN00000000020220501000014400NNM00020220228155532    1N0N  00000240000000686400000901432D2    TGYOT-G 005500360039
BI00B32D2    DGTC2218       202203107388-2978-30             HOUSING MALE ASS'Y       CCN000028320000021120FN00000000020220501000021120NNMD0020220228131830    1N0N  00000048000000742000001122032D2    TGYOT-G 005500360039
BI00A32D2    DGTC2218       202203017388-2978-30             HOUSING MALE ASS'Y       PCN000017760000007200FN00000000020220501000007200NNMM0020220228131830    1N0N  00000048000000742000001122032D2    TGYOT-G 005500360039
BI00B32D2    DGTC2221       202205267289-3342                HOUSING FEMALE ASS'Y     CCN000009600000009600FN00000000020220501000009600NNMD0420220228164002    1N0N  00000240000000686400000901432D2    TGYOT-G 005500360039
BI00B32D9    I230A          202203107283-7062-40             CONNECTOR HOUSING        CCN000000600000000600FN00000000020220501000000600NNE   20220228131830    1N0N  00000060000000500400000645432D9    UEHESTO 005400370024
BI00B32D9    #I230A         202203107189-3037                HOUSING FEMALE           CCN000004800000004800FN00000000020220501000004800NNE   20220228131830    2F0F  00000480000000806400001066432D9    UEHESTO 005500360039
BI00B32EJ    T220225P01     202203317158-3167-80             WIRE SEAL                CCN000120000000120000FN00000000020220301000120000NNE   20220228131830EJ  1C0C  00002000000000048000000109032EJ    EJYKBO  002700430014
BI00B32EJ    T220225P02     202203317114-4101-02             TERMINAL                 CCN000180000000180000FN00000000020220301000180000NNE   20220228131830EJ  4P0P  00001500000000675000001003632EJ    EJYKBO  006400630017
BI00B32EJ    T220225P02     202203317114-4110-02             TERMINAL                 CCN000030000000030000FN00000000020220301000030000NNE   20220228131830EJ  4P0P  00001500000000901500001230132EJ    EJYKBO  006400630017
BI00B32EJ    T220225P02     202203317114-4231-02             TERMINAL                 CCN000108000000108000FN00000000020220301000108000NNE   20220228131830EJ  4P0P  00001800000000554400000848032EJ    EJYKBO  006400630015
BI00B32EJ    T220225P02     202203317116-4102-02             TERMINAL                 CCN000024000000024000FN00000000020220301000024000NNE   20220228131830EJ  4P0P  00001200000000553200000841432EJ    EJYKBO  006400630015
BI00B32EJ    T220225P02     202203317116-4122-02             TERMINAL                 CCN000162000000162000FN00000000020220301000162000NNE   20220228131830EJ  4P0P  00000450000000656600000950232EJ    EJYKBO  006400630015
BI00B32EJ    T220225P02     202203317283-5843                CONNECTOR                CCN000060000000060000FN00000000020220301000060000NNE   20220228131830EJ  1N0N  00000150000000889000001132032EJ    EJYKBO  005600390040
BI00B32EJ    T220225P03     202203317116-4022                TERMINAL                 CCN000013500000013500FN00000000020220301000013500NNE   20220228131830EJ  4P0P  00001350000000618300000903532EJ    EJYKBO  006400630015
BI00B32EJ    T220225P03     202203317116-4100-02             TERMINAL                 CCN000015000000015000FN00000000020220301000015000NNE   20220228131830EJ  4P0P  00001500000000696000000990232EJ    EJYKBO  006400630015
BI00B32EJ    T220225P03     202203317116-4122-02             TERMINAL                 CCN000022500000022500FN00000000020220301000022500NNE   20220228131830EJ  4P0P  00000450000000656600000950232EJ    EJYKBO  006400630015
BI00B32EJ    T220225P03     202203317116-5751-02             TERMINAL                 CCN000024000000024000FN00000000020220301000024000NNE   20220228131830EJ  4P0P  00001200000000379200000664432EJ    EJYKBO  006400630015
BI00B32EJ    T220225P03     202203317158-3070-80             RUBBER STOPPER           CCN000120000000120000FN00000000020220301000120000NNE   20220228131830EJ  1C0C  00004000000000276000000333332EJ    EJYKBO  002700430014
BI00B32EJ    T220225P03     202203317283-7028-30             CONNECTOR                CCN000003000000003000FN00000000020220301000003000NNE   20220228131830EJ  4N0N  00000300000001452000001681332EJ    EJYKBO  005600390040
BI00B32EJ    #T220225P03    202203317123-6423-30             CONNECTOR                CCN000012000000012000FN00000000020220301000012000NNE   20220228131830EJ  2F0F  00000200000001002000001167632EJ    EJYKBO  005600390023
BI00B32EJ    #T220225P03    202203317157-3821                RUBBER STOPPER           CCN000020000000020000FN00000000020220301000020000NNE   20220228131830EJ  2C0C  00002000000000176000000238032EJ    EJYKBO  002700430014
BI00B32G0    TZ22061EMW     202204267283-4855                CONNECTOR HOUSING        CCN000016800000016800FN00000000020220601000016800NNMD0420220228163844    4N0N  00000240000001188400001400032G0    TTTJY   005500360039
BI00B32G0    TZ22062EMW     202205037283-4855                CONNECTOR HOUSING        CCN000014400000014400FN00000000020220601000014400NNMD0420220228163902    4N0N  00000240000001188400001400032G0    TTTJY   005500360039
BI00B32G0    TZ22061EMW     202204267288-6547                CONNECTOR MALE ASS'Y     CCN000017250000017250FN00000000020220601000017250NNMD0420220228163918    4N0N  00000075000001205300001340332G0    TTTJY   005400370024
BI00B32G0    TZ22062EMW     202205037288-6547                CONNECTOR MALE ASS'Y     CCN000016500000016500FN00000000020220601000016500NNMD0420220228163932    4N0N  00000075000001205300001340332G0    TTTJY   005400370024
BI00B32H0    TT22061VMW     202204197114-4624-02             TERMINAL                 CCN000024000000024000FN00000000020220601000024000NNM   20220228131830    4P0P  00002400000000895200001188832H0    TTTJY   006400630015
BI00B32H0    TT22061VMW     202204197114-4728-08             TERMINAL                 CCN000030000000030000FN00000000020220601000030000NNM   20220228131830    4P0P  00003000000000507000000801232H0    TTTJY   006400630015
BI00B32H0    TT22061VMW     202204197114-5096-08             TERMINAL                 CCN000030000000030000FN00000000020220601000030000NNM   20220228131830    4P0P  00003000000000498000000792232H0    TTTJY   006400630015
BI00B32H0    TT22062VMW     202204267114-5096-08             TERMINAL                 CCN000030000000030000FN00000000020220601000030000NNM   20220228131830    4P0P  00003000000000498000000792232H0    TTTJY   006400630015
BI00B32H0    TT22061VMW     202204197114-5748-02             TERMINAL                 CCN000036000000036000FN00000000020220601000036000NNM   20220228131830    4P0P  00001200000000444000000737632H0    TTTJY   006400630015
BI00B32H0    TT22062VMW     202204267114-5748-02             TERMINAL                 CCN000048000000048000FN00000000020220601000048000NNM   20220228131830    4P0P  00001200000000444000000737632H0    TTTJY   006400630015
BI00B32H0    TT22063VMW     202205037114-5748-02             TERMINAL                 CCN000024000000024000FN00000000020220601000024000NNM   20220228131830    4P0P  00001200000000444000000737632H0    TTTJY   006400630015
BI00B32H0    TT22064VMW     202205107114-5748-02             TERMINAL                 CCN000036000000036000FN00000000020220601000036000NNM   20220228131830    4P0P  00001200000000444000000737632H0    TTTJY   006400630015
BI00B32H0    TT22061VMW     202204197116-3153-08             TERMINAL                 CCN000054000000054000FN00000000020220601000054000NNM   20220228131830    4P0P  00002700000000461700000746932H0    TTTJY   006400630015
BI00B32H0    TT22062VMW     202204267116-3153-08             TERMINAL                 CCN000081000000081000FN00000000020220601000081000NNM   20220228131830    4P0P  00002700000000461700000746932H0    TTTJY   006400630015
BI00B32H0    TT22063VMW     202205037116-3153-08             TERMINAL                 CCN000027000000027000FN00000000020220601000027000NNM   20220228131830    4P0P  00002700000000461700000746932H0    TTTJY   006400630015
BI00B32H0    TT22064VMW     202205107116-3153-08             TERMINAL                 CCN000054000000054000FN00000000020220601000054000NNM   20220228131830    4P0P  00002700000000461700000746932H0    TTTJY   006400630015
BI00B32H0    TT22065VMW     202205177116-3153-08             TERMINAL                 CCN000027000000027000FN00000000020220601000027000NNM   20220228131830    4P0P  00002700000000461700000746932H0    TTTJY   006400630015
BI00B32H0    TT22061VMW     202204197116-5045-02             TERMINAL                 CCN000080000000080000FN00000000020220601000080000NNM   20220228131830    4P0P  00001600000000678400001007132H0    TTTJY   006400630017
BI00B32H0    TT22062VMW     202204267116-5045-02             TERMINAL                 CCN000144000000144000FN00000000020220601000144000NNM   20220228131830    4P0P  00001600000000678400001007132H0    TTTJY   006400630017
BI00B32H0    TT22063VMW     202205037116-5045-02             TERMINAL                 CCN000048000000048000FN00000000020220601000048000NNM   20220228131830    4P0P  00001600000000678400001007132H0    TTTJY   006400630017
BI00B32H0    TT22064VMW     202205107116-5045-02             TERMINAL                 CCN000080000000080000FN00000000020220601000080000NNM   20220228131830    4P0P  00001600000000678400001007132H0    TTTJY   006400630017
BI00B32H0    TT22061VMW     202204197116-5046-02             TERMINAL                 CCN000060000000060000FN00000000020220601000060000NNM   20220228131830    4P0P  00001200000000544800000873532H0    TTTJY   006400630017
BI00B32H0    TT22062VMW     202204267116-5046-02             TERMINAL                 CCN000156000000156000FN00000000020220601000156000NNM   20220228131830    4P0P  00001200000000544800000873532H0    TTTJY   006400630017
BI00B32H0    TT22063VMW     202205037116-5046-02             TERMINAL                 CCN000048000000048000FN00000000020220601000048000NNM   20220228131830    4P0P  00001200000000544800000873532H0    TTTJY   006400630017
BI00B32H0    TT22064VMW     202205107116-5046-02             TERMINAL                 CCN000084000000084000FN00000000020220601000084000NNM   20220228131830    4P0P  00001200000000544800000873532H0    TTTJY   006400630017
BI00B32H0    TT22065VMW     202205177116-5046-02             TERMINAL                 CCN000036000000036000FN00000000020220601000036000NNM   20220228131830    4P0P  00001200000000544800000873532H0    TTTJY   006400630017
BI00B32H0    TT22061VMW     202204197116-6041                TERMINAL                 CCN000036000000036000FN00000000020220601000036000NNM   20220228131830    4P0P  00000450000000716000001009632H0    TTTJY   006400630015
BI00B32H0    TT22062VMW     202204267116-6041                TERMINAL                 CCN000108000000108000FN00000000020220601000108000NNM   20220228131830    4P0P  00000450000000716000001009632H0    TTTJY   006400630015
BI00B32H0    TT22063VMW     202205037116-6041                TERMINAL                 CCN000036000000036000FN00000000020220601000036000NNM   20220228131830    4P0P  00000450000000716000001009632H0    TTTJY   006400630015
BI00B32H0    TT22064VMW     202205107116-6041                TERMINAL                 CCN000058500000058500FN00000000020220601000058500NNM   20220228131830    4P0P  00000450000000716000001009632H0    TTTJY   006400630015
BI00B32H0    TT22065VMW     202205177116-6041                TERMINAL                 CCN000018000000018000FN00000000020220601000018000NNM   20220228131830    4P0P  00000450000000716000001009632H0    TTTJY   006400630015
BI00B32H0    TT22061VMW     202204197116-6042                TERMINAL                 CCN000015000000015000FN00000000020220601000015000NNM   20220228131830    4P0P  00000300000000523800000856132H0    TTTJY   006400630015
BI00B32H0    TT22062VMW     202204267116-6042                TERMINAL                 CCN000045000000045000FN00000000020220601000045000NNM   20220228131830    4P0P  00000300000000523800000856132H0    TTTJY   006400630015
BI00B32H0    TT22063VMW     202205037116-6042                TERMINAL                 CCN000015000000015000FN00000000020220601000015000NNM   20220228131830    4P0P  00000300000000523800000856132H0    TTTJY   006400630015
BI00B32H0    TT22064VMW     202205107116-6042                TERMINAL                 CCN000024000000024000FN00000000020220601000024000NNM   20220228131830    4P0P  00000300000000523800000856132H0    TTTJY   006400630015
BI00B32H0    TT22065VMW     202205177116-6042                TERMINAL                 CCN000006000000006000FN00000000020220601000006000NNM   20220228131830    4P0P  00000300000000523800000856132H0    TTTJY   006400630015
BI00B32H0    TT22061VMW     202204197126-8853-02             TERMINAL                 CCN000097500000097500FN00000000020220601000097500NNM   20220228131830    4P0P  00000750000000562500000847732H0    TTTJY   006400630015
BI00B32H0    TT22062VMW     202204267126-8853-02             TERMINAL                 CCN000285000000285000FN00000000020220601000285000NNM   20220228131830    4P0P  00000750000000562500000847732H0    TTTJY   006400630015
BI00B32H0    TT22063VMW     202205037126-8853-02             TERMINAL                 CCN000082500000082500FN00000000020220601000082500NNM   20220228131830    4P0P  00000750000000562500000847732H0    TTTJY   006400630015
BI00B32H0    TT22064VMW     202205107126-8853-02             TERMINAL                 CCN000150000000150000FN00000000020220601000150000NNM   20220228131830    4P0P  00000750000000562500000847732H0    TTTJY   006400630015
BI00B32H0    TT22065VMW     202205177126-8853-02             TERMINAL                 CCN000045000000045000FN00000000020220601000045000NNM   20220228131830    4P0P  00000750000000562500000847732H0    TTTJY   006400630015
BI00B32H0    TT22061VMW     202204197158-3006-90             RUBBER STOPPER           CCN000140000000140000FN00000000020220601000140000NNM   20220228131830    1C0C  00002000000000330600000386032H0    TTTJY   002700430014
BI00B32H0    TT22062VMW     202204267158-3006-90             RUBBER STOPPER           CCN000160000000160000FN00000000020220601000160000NNM   20220228131830    1C0C  00002000000000330600000386032H0    TTTJY   002700430014
BI00B32H0    TT22063VMW     202205037158-3006-90             RUBBER STOPPER           CCN000040000000040000FN00000000020220601000040000NNM   20220228131830    1C0C  00002000000000330600000386032H0    TTTJY   002700430014
BI00B32H0    TT22064VMW     202205107158-3006-90             RUBBER STOPPER           CCN000040000000040000FN00000000020220601000040000NNM   20220228131830    1C0C  00002000000000330600000386032H0    TTTJY   002700430014
BI00B32H0    TT22061VMW     202204197158-3022-80             RUBBER STOPPER           CCN000005000000005000FN00000000020220601000005000NNM   20220228131830    1C0C  00000500000000467500000524032H0    TTTJY   002700430014
BI00B32H0    TT22061VMW     202204197158-3070-80             RUBBER STOPPER           CCN000080000000080000FN00000000020220601000080000NNM   20220228131830    1C0C  00004000000000276000000333332H0    TTTJY   002700430014
BI00B32H0    TT22062VMW     202204267158-3070-80             RUBBER STOPPER           CCN000080000000080000FN00000000020220601000080000NNM   20220228131830    1C0C  00004000000000276000000333332H0    TTTJY   002700430014
BI00B32H0    TT22063VMW     202205037158-3070-80             RUBBER STOPPER           CCN000040000000040000FN00000000020220601000040000NNM   20220228131830    1C0C  00004000000000276000000333332H0    TTTJY   002700430014
BI00B32H0    TT22064VMW     202205107158-3070-80             RUBBER STOPPER           CCN000040000000040000FN00000000020220601000040000NNM   20220228131830    1C0C  00004000000000276000000333332H0    TTTJY   002700430014
BI00B32H0    TT22061VMW     202204197173-3291-40             LIF LEVER                CCN000002400000002400FN00000000020220601000002400NNM   20220228131830    1F0F  00000240000000867800001067832H0    TTTJY   005500360039
BI00B32H0    TT22061VMW     202204197196-0396-02             TERMINAL                 CCN000030000000030000FN00000000020220601000030000NNM   20220228131830    4P0P  00001500000000949500001112932H0    TTTJY   002800510028
BI00B32H0    TT22062VMW     202204267196-0396-02             TERMINAL                 CCN000075000000075000FN00000000020220601000075000NNM   20220228131830    4P0P  00001500000000949500001112932H0    TTTJY   002800510028
BI00B32H0    TT22063VMW     202205037196-0396-02             TERMINAL                 CCN000030000000030000FN00000000020220601000030000NNM   20220228131830    4P0P  00001500000000949500001112932H0    TTTJY   002800510028
BI00B32H0    TT22064VMW     202205107196-0396-02             TERMINAL                 CCN000045000000045000FN00000000020220601000045000NNM   20220228131830    4P0P  00001500000000949500001112932H0    TTTJY   002800510028
BI00B32H0    TT22065VMW     202205177196-0396-02             TERMINAL                 CCN000015000000015000FN00000000020220601000015000NNM   20220228131830    4P0P  00001500000000949500001112932H0    TTTJY   002800510028
BI00B32H0    TT22061VMW     202204197196-1064-02             TERMINAL FEMALE          CCN000006000000006000FN00000000020220601000006000NNM   20220228131830    4P0P  00000600000000570000000855232H0    TTTJY   006400630015
BI00B32H0    TT22061VMW     202204197196-1325-02             TERMINAL FEMALE          CCN000060000000060000FN00000000020220601000060000NNM   20220228131830    4P0P  00006000000000450000000778732H0    TTTJY   006400630017
BI00B32H0    TT22062VMW     202204267196-1325-02             TERMINAL FEMALE          CCN000060000000060000FN00000000020220601000060000NNM   20220228131830    4P0P  00006000000000450000000778732H0    TTTJY   006400630017
BI00B32H0    TT22061VMW     202204197196-1326-02             TERMINAL FEMALE          CCN000180000000180000FN00000000020220601000180000NNM   20220228131830    4P0P  00006000000000456000000784732H0    TTTJY   006400630017
BI00B32H0    TT22062VMW     202204267196-1326-02             TERMINAL FEMALE          CCN000060000000060000FN00000000020220601000060000NNM   20220228131830    4P0P  00006000000000456000000784732H0    TTTJY   006400630017
BI00B32H0    TT22061VMW     202204197196-1947-02             TERMINAL FEMALE          CCN000009000000009000FN00000000020220601000009000NNM   20220228131830    4POP  00000900000000407700000692932H0    TTTJY   006400630015
BI00B32H0    TT22061VMW     202204197270-8994                6P MODULE ASSEMBLY       CCN000005700000005700FN00000000020220601000005700NNM   20220228131830    4J0J  00000010000001098600001298632H0    TTTJY   005400370024
BI00B32H0    TT22062VMW     202204267270-8994                6P MODULE ASSEMBLY       CCN000020300000020300FN00000000020220601000020300NNM   20220228131830    4J0J  00000010000001098600001298632H0    TTTJY   005400370024
BI00B32H0    TT22063VMW     202205037270-8994                6P MODULE ASSEMBLY       CCN000006100000006100FN00000000020220601000006100NNM   20220228131830    4J0J  00000010000001098600001298632H0    TTTJY   005400370024
BI00B32H0    TT22064VMW     202205107270-8994                6P MODULE ASSEMBLY       CCN000010100000010100FN00000000020220601000010100NNM   20220228131830    4J0J  00000010000001098600001298632H0    TTTJY   005400370024
BI00B32H0    TT22065VMW     202205177270-8994                6P MODULE ASSEMBLY       CCN000002100000002100FN00000000020220601000002100NNM   20220228131830    4J0J  00000010000001098600001298632H0    TTTJY   005400370024
BI00B32H0    TT22061VMW     202204197283-1156                CONNECTOR                CCN000000800000000800FN00000000020220601000000800NNM   20220228131830    4N0N  00000080000000877600001078032H0    TTTJY   005600390040
BI00B32H0    TT22061VMW     202204197283-1289-40             CONNECTOR HOUSING        CCN000004200000004200FN00000000020220601000004200NNM   20220228131830    1N0N  00000060000000679800000824832H0    TTTJY   005400370024
BI00B32H0    TT22062VMW     202204267283-1289-40             CONNECTOR HOUSING        CCN000015000000015000FN00000000020220601000015000NNM   20220228131830    1N0N  00000060000000679800000824832H0    TTTJY   005400370024
BI00B32H0    TT22063VMW     202205037283-1289-40             CONNECTOR HOUSING        CCN000004800000004800FN00000000020220601000004800NNM   20220228131830    1N0N  00000060000000679800000824832H0    TTTJY   005400370024
BI00B32H0    TT22064VMW     202205107283-1289-40             CONNECTOR HOUSING        CCN000007800000007800FN00000000020220601000007800NNM   20220228131830    1N0N  00000060000000679800000824832H0    TTTJY   005400370024
BI00B32H0    TT22065VMW     202205177283-1289-40             CONNECTOR HOUSING        CCN000001800000001800FN00000000020220601000001800NNM   20220228131830    1N0N  00000060000000679800000824832H0    TTTJY   005400370024
BI00B32H0    TT22061VMW     202204197283-1928-80             CONNECTOR                CCN000010000000010000FN00000000020220601000010000NNM   20220228131830    4N0N  00000200000001180000001358332H0    TTTJY   005500360039
BI00B32H0    TT22062VMW     202204267283-1928-80             CONNECTOR                CCN000026000000026000FN00000000020220601000026000NNM   20220228131830    4N0N  00000200000001180000001358332H0    TTTJY   005500360039
BI00B32H0    TT22063VMW     202205037283-1928-80             CONNECTOR                CCN000006000000006000FN00000000020220601000006000NNM   20220228131830    4N0N  00000200000001180000001358332H0    TTTJY   005500360039
BI00B32H0    TT22064VMW     202205107283-1928-80             CONNECTOR                CCN000014000000014000FN00000000020220601000014000NNM   20220228131830    4N0N  00000200000001180000001358332H0    TTTJY   005500360039
BI00B32H0    TT22061VMW     202204197289-6518-30             HOUSING FEMALE ASS'Y     CCN000001200000001200FN00000000020220601000001200NNM   20220228131830    1N0N  00000120000000829200001049232H0    TTTJY   005500360039
BI00B32H0    TT22063VMW     202205037289-6518-30             HOUSING FEMALE ASS'Y     CCN000001200000001200FN00000000020220601000001200NNM   20220228131830    1N0N  00000120000000829200001049232H0    TTTJY   005500360039
BI00B32H0    TT22061VMW     202204197327-6731-3W             BATTERY FUSE             CCN000004928000004928FN00000000020220601000004928NNM   20220228131830    4N0N  00000006400000697600000843032H0    TTTJY   005400370024
BI00B32H0    TT22062VMW     202204267327-6731-3W             BATTERY FUSE             CCN000016640000016640FN00000000020220601000016640NNM   20220228131830    4N0N  00000006400000697600000843032H0    TTTJY   005400370024
BI00B32H0    TT22063VMW     202205037327-6731-3W             BATTERY FUSE             CCN000004992000004992FN00000000020220601000004992NNM   20220228131830    4N0N  00000006400000697600000843032H0    TTTJY   005400370024
BI00B32H0    TT22064VMW     202205107327-6731-3W             BATTERY FUSE             CCN000008320000008320FN00000000020220601000008320NNM   20220228131830    4N0N  00000006400000697600000843032H0    TTTJY   005400370024
BI00B32H0    TT22065VMW     202205177327-6731-3W             BATTERY FUSE             CCN000001792000001792FN00000000020220601000001792NNM   20220228131830    4N0N  00000006400000697600000843032H0    TTTJY   005400370024
BI00B32H0    TT22061VMW     202204197327-6809                MULTI FUSE               CCN000001120000001120FN00000000020220601000001120NNM   20220228131830    4N0N  00000056000000849300001061732H0    TTTJY   005400370024
BI00B32H0    TT22062VMW     202204267327-6809                MULTI FUSE               CCN000000560000000560FN00000000020220601000000560NNM   20220228131830    4N0N  00000056000000849300001061732H0    TTTJY   005400370024
BI00B32H0    TT22061VMW     202204197327-6949-30             MULTI FUSE               CCN000000288000000288FN00000000020220601000000288NNM   20220228131830    4N00  00000028800000886700001052632H0    TTTJY   005400370024
BI00B32H0    TT22063VMW     202205037327-6949-30             MULTI FUSE               CCN000000288000000288FN00000000020220601000000288NNM   20220228131830    4N00  00000028800000886700001052632H0    TTTJY   005400370024
BI00B32H0    TT22061VMW     202204197327-6950-30             MULTI FUSE               CCN000000288000000288FN00000000020220601000000288NNM   20220228131830    4N00  00000028800000888700001054632H0    TTTJY   005400370024
BI00B32H0    TT22062VMW     202204267327-6950-30             MULTI FUSE               CCN000000288000000288FN00000000020220601000000288NNM   20220228131830    4N00  00000028800000888700001054632H0    TTTJY   005400370024
BI00B32H0    TT22063VMW     202205037327-6950-30             MULTI FUSE               CCN000000288000000288FN00000000020220601000000288NNM   20220228131830    4N00  00000028800000888700001054632H0    TTTJY   005400370024
BI00B32H0    TT22064VMW     202205107327-6950-30             MULTI FUSE               CCN000000288000000288FN00000000020220601000000288NNM   20220228131830    4N00  00000028800000888700001054632H0    TTTJY   005400370024
BI00B32H0    TT22061VMW     202204197327-6952-30             MULTI FUSE               CCN000000560000000560FN00000000020220601000000560NNM   20220228131830    4N0N  00000056000000848500001031532H0    TTTJY   005400370024
BI00B32H0    TT22063VMW     202205037327-6952-30             MULTI FUSE               CCN000000560000000560FN00000000020220601000000560NNM   20220228131830    4N0N  00000056000000848500001031532H0    TTTJY   005400370024
BI00B32H0    TT22061VMW     202204197327-6954-30             MULTI FUSE               CCN000000600000000600FN00000000020220601000000600NNM   20220228131830    4N00  00000060000000751600000954332H0    TTTJY   005400370024
BI00B32H0    TT22062VMW     202204267327-6954-30             MULTI FUSE               CCN000000600000000600FN00000000020220601000000600NNM   20220228131830    4N00  00000060000000751600000954332H0    TTTJY   005400370024
BI00B32H0    TT22063VMW     202205037327-6954-30             MULTI FUSE               CCN000000600000000600FN00000000020220601000000600NNM   20220228131830    4N00  00000060000000751600000954332H0    TTTJY   005400370024
BI00B32H0    TT22061VMW     202204197388-2978-30             HOUSING MALE ASS'Y       CCN000014880000014880FN00000000020220601000014880NNM   20220228131830    1N0N  00000048000000742000001122032H0    TTTJY   005500360039
BI00B32H0    TT22062VMW     202204267388-2978-30             HOUSING MALE ASS'Y       CCN000042720000042720FN00000000020220601000042720NNM   20220228131830    1N0N  00000048000000742000001122032H0    TTTJY   005500360039
BI00B32H0    TT22063VMW     202205037388-2978-30             HOUSING MALE ASS'Y       CCN000013440000013440FN00000000020220601000013440NNM   20220228131830    1N0N  00000048000000742000001122032H0    TTTJY   005500360039
BI00B32H0    TT22064VMW     202205107388-2978-30             HOUSING MALE ASS'Y       CCN000021600000021600FN00000000020220601000021600NNM   20220228131830    1N0N  00000048000000742000001122032H0    TTTJY   005500360039
BI00B32H0    TT22065VMW     202205177388-2978-30             HOUSING MALE ASS'Y       CCN000009120000009120FN00000000020220601000009120NNM   20220228131830    1N0N  00000048000000742000001122032H0    TTTJY   005500360039
BI00B32H0    #TT22061VMW    202204197154-5597-30             CASSETTE R/B             CCN000000800000000800FN00000000020220601000000800NNM   20220228131830    2F0F  00000080000000736000000952032H0    TTTJY   005500360039
BI00B32H0    #TT22061VMW    202204197157-6826-80             REAR HOLDER              CCN000015000000015000FN00000000020220601000015000NNM   20220228131830    2F0F  00001500000001234500001394132H0    TTTJY   005600390040
BI00B32H0    #TT22062VMW    202204267157-6826-80             REAR HOLDER              CCN000030000000030000FN00000000020220601000030000NNM   20220228131830    2F0F  00001500000001234500001394132H0    TTTJY   005600390040
BI00B32H0    #TT22063VMW    202205037157-6826-80             REAR HOLDER              CCN000015000000015000FN00000000020220601000015000NNM   20220228131830    2F0F  00001500000001234500001394132H0    TTTJY   005600390040
BI00B32H0    #TT22061VMW    202204197158-3003-90             RUBBER STOPPER           CCN000100000000100000FN00000000020220601000100000NNM   20220228131830    2C0C  00002000000000250000000306032H0    TTTJY   002700430014
BI00B32H0    #TT22062VMW    202204267158-3003-90             RUBBER STOPPER           CCN000240000000240000FN00000000020220601000240000NNM   20220228131830    2C0C  00002000000000250000000306032H0    TTTJY   002700430014
BI00B32H0    #TT22063VMW    202205037158-3003-90             RUBBER STOPPER           CCN000080000000080000FN00000000020220601000080000NNM   20220228131830    2C0C  00002000000000250000000306032H0    TTTJY   002700430014
BI00B32H0    #TT22064VMW    202205107158-3003-90             RUBBER STOPPER           CCN000120000000120000FN00000000020220601000120000NNM   20220228131830    2C0C  00002000000000250000000306032H0    TTTJY   002700430014
BI00B32H0    #TT22065VMW    202205177158-3003-90             RUBBER STOPPER           CCN000040000000040000FN00000000020220601000040000NNM   20220228131830    2C0C  00002000000000250000000306032H0    TTTJY   002700430014
BI00B32H0    #TT22061VMW    202204197158-3005-80             RUBBER STOPPER           CCN000040000000040000FN00000000020220601000040000NNM   20220228131830    2H0H  00002000000000210000000268732H0    TTTJY   002700430014
BI00B32H0    #TT22062VMW    202204267158-3005-80             RUBBER STOPPER           CCN000100000000100000FN00000000020220601000100000NNM   20220228131830    2H0H  00002000000000210000000268732H0    TTTJY   002700430014
BI00B32H0    #TT22063VMW    202205037158-3005-80             RUBBER STOPPER           CCN000020000000020000FN00000000020220601000020000NNM   20220228131830    2H0H  00002000000000210000000268732H0    TTTJY   002700430014
BI00B32H0    #TT22064VMW    202205107158-3005-80             RUBBER STOPPER           CCN000060000000060000FN00000000020220601000060000NNM   20220228131830    2H0H  00002000000000210000000268732H0    TTTJY   002700430014
BI00B32H0    #TT22061VMW    202204197158-3007-10             RUBBER STOPPER           CCN000020000000020000FN00000000020220601000020000NNM   20220228131830    2H0H  00002000000000308000000362732H0    TTTJY   002700430014
BI00B32H0    #TT22061VMW    202204197158-3008-80             RUBBER STOPPER           CCN000040000000040000FN00000000020220601000040000NNM   20220228131830    2C0C  00002000000000288000000343032H0    TTTJY   004300270014
BI00B32H0    #TT22062VMW    202204267158-3008-80             RUBBER STOPPER           CCN000060000000060000FN00000000020220601000060000NNM   20220228131830    2C0C  00002000000000288000000343032H0    TTTJY   004300270014
BI00B32H0    #TT22063VMW    202205037158-3008-80             RUBBER STOPPER           CCN000020000000020000FN00000000020220601000020000NNM   20220228131830    2C0C  00002000000000288000000343032H0    TTTJY   004300270014
BI00B32H0    #TT22064VMW    202205107158-3008-80             RUBBER STOPPER           CCN000020000000020000FN00000000020220601000020000NNM   20220228131830    2C0C  00002000000000288000000343032H0    TTTJY   004300270014
BI00B32H0    #TT22065VMW    202205177158-3008-80             RUBBER STOPPER           CCN000020000000020000FN00000000020220601000020000NNM   20220228131830    2C0C  00002000000000288000000343032H0    TTTJY   004300270014
BI00B32H0    #TT22061VMW    202204197158-3015-10             RUBBER STOPPER           CCN000020000000020000FN00000000020220601000020000NNM   20220228131830    2C0C  00001000000000419500000474032H0    TTTJY   002700430014
BI00B32H0    #TT22062VMW    202204267158-3015-10             RUBBER STOPPER           CCN000060000000060000FN00000000020220601000060000NNM   20220228131830    2C0C  00001000000000419500000474032H0    TTTJY   002700430014
BI00B32H0    #TT22063VMW    202205037158-3015-10             RUBBER STOPPER           CCN000020000000020000FN00000000020220601000020000NNM   20220228131830    2C0C  00001000000000419500000474032H0    TTTJY   002700430014
BI00B32H0    #TT22064VMW    202205107158-3015-10             RUBBER STOPPER           CCN000030000000030000FN00000000020220601000030000NNM   20220228131830    2C0C  00001000000000419500000474032H0    TTTJY   002700430014
BI00B32H0    #TT22065VMW    202205177158-3015-10             RUBBER STOPPER           CCN000010000000010000FN00000000020220601000010000NNM   20220228131830    2C0C  00001000000000419500000474032H0    TTTJY   002700430014
BI00B32H0    #TT22061VMW    202204197158-3017                RUBBER STOPPER           CCN000010000000010000FN00000000020220601000010000NNM   20220228131830    2C0C  00001000000000375500000435032H0    TTTJY   002700430014
BI00B32H0    #TT22062VMW    202204267158-3017                RUBBER STOPPER           CCN000010000000010000FN00000000020220601000010000NNM   20220228131830    2C0C  00001000000000375500000435032H0    TTTJY   002700430014
BI00B32H0    #TT22063VMW    202205037158-3017                RUBBER STOPPER           CCN000010000000010000FN00000000020220601000010000NNM   20220228131830    2C0C  00001000000000375500000435032H0    TTTJY   002700430014
BI00B32H0    #TT22064VMW    202205107158-3017                RUBBER STOPPER           CCN000010000000010000FN00000000020220601000010000NNM   20220228131830    2C0C  00001000000000375500000435032H0    TTTJY   002700430014
BI00B32H0    #TT22065VMW    202205177158-3017                RUBBER STOPPER           CCN000010000000010000FN00000000020220601000010000NNM   20220228131830    2C0C  00001000000000375500000435032H0    TTTJY   002700430014
BI00B32H0    #TT22061VMW    202204197158-3075-10             SEALED CONNECTOR         CCN000040000000040000FN00000000020220601000040000NNM   20220228131830    2C0C  00004000000000376000000429732H0    TTTJY   002700430014
BI00B32H0    #TT22061VMW    202204197172-5625-90             RUBBER STOPPER           CCN000080000000080000FN00000000020220601000080000NNM   20220228131830    2H0H  00002000000000082400000133832H0    TTTJY   004300270014
BI00B32H0    #TT22062VMW    202204267172-5625-90             RUBBER STOPPER           CCN000060000000060000FN00000000020220601000060000NNM   20220228131830    2H0H  00002000000000082400000133832H0    TTTJY   004300270014
BI00B32H0    #TT22063VMW    202205037172-5625-90             RUBBER STOPPER           CCN000020000000020000FN00000000020220601000020000NNM   20220228131830    2H0H  00002000000000082400000133832H0    TTTJY   004300270014
BI00B32H0    #TT22064VMW    202205107172-5625-90             RUBBER STOPPER           CCN000020000000020000FN00000000020220601000020000NNM   20220228131830    2H0H  00002000000000082400000133832H0    TTTJY   004300270014
BI00B32H0    #TT22065VMW    202205177172-5625-90             RUBBER STOPPER           CCN000040000000040000FN00000000020220601000040000NNM   20220228131830    2H0H  00002000000000082400000133832H0    TTTJY   004300270014
BI00B32H0    #TT22061VMW    202204197172-5626-90             RUBBER STOPPER           CCN000040000000040000FN00000000020220601000040000NNM   20220228131830    2H0H  00002000000000076400000127832H0    TTTJY   004300270014
BI00B32H0    #TT22062VMW    202204267172-5626-90             RUBBER STOPPER           CCN000020000000020000FN00000000020220601000020000NNM   20220228131830    2H0H  00002000000000076400000127832H0    TTTJY   004300270014
BI00B32H0    #TT22063VMW    202205037172-5626-90             RUBBER STOPPER           CCN000020000000020000FN00000000020220601000020000NNM   20220228131830    2H0H  00002000000000076400000127832H0    TTTJY   004300270014
BI00B32H0    #TT22064VMW    202205107172-5626-90             RUBBER STOPPER           CCN000020000000020000FN00000000020220601000020000NNM   20220228131830    2H0H  00002000000000076400000127832H0    TTTJY   004300270014
BI00B32H0    #TT22061VMW    202204197172-5627-60             RUBBER STOPPER           CCN000020000000020000FN00000000020220601000020000NNM   20220228131830    2H0H  00002000000000070400000121832H0    TTTJY   004300270014
BI00B32H0    #TT22062VMW    202204267172-5627-60             RUBBER STOPPER           CCN000060000000060000FN00000000020220601000060000NNM   20220228131830    2H0H  00002000000000070400000121832H0    TTTJY   004300270014
BI00B32H0    #TT22063VMW    202205037172-5627-60             RUBBER STOPPER           CCN000040000000040000FN00000000020220601000040000NNM   20220228131830    2H0H  00002000000000070400000121832H0    TTTJY   004300270014
BI00B32H0    #TT22061VMW    202204197172-5628-80             DUMMY PLUG               CCN000060000000060000FN00000000020220601000060000NNM   20220228131830    2H0H  00002000000000110600000162032H0    TTTJY   004300270014
BI00B32H0    #TT22062VMW    202204267172-5628-80             DUMMY PLUG               CCN000040000000040000FN00000000020220601000040000NNM   20220228131830    2H0H  00002000000000110600000162032H0    TTTJY   004300270014
BI00B32H0    #TT22063VMW    202205037172-5628-80             DUMMY PLUG               CCN000020000000020000FN00000000020220601000020000NNM   20220228131830    2H0H  00002000000000110600000162032H0    TTTJY   004300270014
BI00B32H0    #TT22064VMW    202205107172-5628-80             DUMMY PLUG               CCN000020000000020000FN00000000020220601000020000NNM   20220228131830    2H0H  00002000000000110600000162032H0    TTTJY   004300270014
BI00B32H0    #TT22061VMW    202204197172-5629-80             RUBBER STOPPER           CCN000200000000200000FN00000000020220601000200000NNM   20220228131830    2H0H  00002000000000060000000111132H0    TTTJY   004300270014
BI00B32H0    #TT22062VMW    202204267172-5629-80             RUBBER STOPPER           CCN000500000000500000FN00000000020220601000500000NNM   20220228131830    2H0H  00002000000000060000000111132H0    TTTJY   004300270014
BI00B32H0    #TT22063VMW    202205037172-5629-80             RUBBER STOPPER           CCN000160000000160000FN00000000020220601000160000NNM   20220228131830    2H0H  00002000000000060000000111132H0    TTTJY   004300270014
BI00B32H0    #TT22064VMW    202205107172-5629-80             RUBBER STOPPER           CCN000260000000260000FN00000000020220601000260000NNM   20220228131830    2H0H  00002000000000060000000111132H0    TTTJY   004300270014
BI00B32H0    #TT22065VMW    202205177172-5629-80             RUBBER STOPPER           CCN000140000000140000FN00000000020220601000140000NNM   20220228131830    2H0H  00002000000000060000000111132H0    TTTJY   004300270014
BI00B32H0    #TT22061VMW    202204197172-5630-40             RUBBER STOPPER           CCN000100000000100000FN00000000020220601000100000NNM   20220228131830    2H0H  00002000000000044000000095132H0    TTTJY   004300270014
BI00B32H0    #TT22062VMW    202204267172-5630-40             RUBBER STOPPER           CCN000100000000100000FN00000000020220601000100000NNM   20220228131830    2H0H  00002000000000044000000095132H0    TTTJY   004300270014
BI00B32H0    #TT22063VMW    202205037172-5630-40             RUBBER STOPPER           CCN000040000000040000FN00000000020220601000040000NNM   20220228131830    2H0H  00002000000000044000000095132H0    TTTJY   004300270014
BI00B32H0    #TT22064VMW    202205107172-5630-40             RUBBER STOPPER           CCN000020000000020000FN00000000020220601000020000NNM   20220228131830    2H0H  00002000000000044000000095132H0    TTTJY   004300270014
BI00B32H0    #TT22061VMW    202204197172-5631-60             RUBBER STOPPER           CCN000020000000020000FN00000000020220601000020000NNM   20220228131830    2H0H  00002000000000042000000093132H0    TTTJY   004300270014
BI00B32H0    #TT22062VMW    202204267172-5631-60             RUBBER STOPPER           CCN000040000000040000FN00000000020220601000040000NNM   20220228131830    2H0H  00002000000000042000000093132H0    TTTJY   004300270014
BI00B32H0    #TT22063VMW    202205037172-5631-60             RUBBER STOPPER           CCN000020000000020000FN00000000020220601000020000NNM   20220228131830    2H0H  00002000000000042000000093132H0    TTTJY   004300270014
BI00B32H0    #TT22064VMW    202205107172-5631-60             RUBBER STOPPER           CCN000020000000020000FN00000000020220601000020000NNM   20220228131830    2H0H  00002000000000042000000093132H0    TTTJY   004300270014
BI00B32H0    #TT22061VMW    202204197172-5632-10             DUMMY PLUG               CCN000100000000100000FN00000000020220601000100000NNM   20220228131830    2H0H  00002000000000080400000131832H0    TTTJY   004300270014
BI00B32H0    #TT22062VMW    202204267172-5632-10             DUMMY PLUG               CCN000100000000100000FN00000000020220601000100000NNM   20220228131830    2H0H  00002000000000080400000131832H0    TTTJY   004300270014
BI00B32H0    #TT22063VMW    202205037172-5632-10             DUMMY PLUG               CCN000040000000040000FN00000000020220601000040000NNM   20220228131830    2H0H  00002000000000080400000131832H0    TTTJY   004300270014
BI00B32H0    #TT22064VMW    202205107172-5632-10             DUMMY PLUG               CCN000040000000040000FN00000000020220601000040000NNM   20220228131830    2H0H  00002000000000080400000131832H0    TTTJY   004300270014
BI00B32H0    #TT22065VMW    202205177172-5632-10             DUMMY PLUG               CCN000060000000060000FN00000000020220601000060000NNM   20220228131830    2H0H  00002000000000080400000131832H0    TTTJY   004300270014
BI00B32H0    #TT22061VMW    202204197189-2978-30             HOUSING FEMALE           CCN000021000000021000FN00000000020220601000021000NNM   20220228131830    2F0F  00000150000000966900001096932H0    TTTJY   005400370024
BI00B32H0    #TT22062VMW    202204267189-2978-30             HOUSING FEMALE           CCN000042000000042000FN00000000020220601000042000NNM   20220228131830    2F0F  00000150000000966900001096932H0    TTTJY   005400370024
BI00B32H0    #TT22063VMW    202205037189-2978-30             HOUSING FEMALE           CCN000013500000013500FN00000000020220601000013500NNM   20220228131830    2F0F  00000150000000966900001096932H0    TTTJY   005400370024
BI00B32H0    #TT22064VMW    202205107189-2978-30             HOUSING FEMALE           CCN000021000000021000FN00000000020220601000021000NNM   20220228131830    2F0F  00000150000000966900001096932H0    TTTJY   005400370024
BI00B32H0    #TT22065VMW    202205177189-2978-30             HOUSING FEMALE           CCN000004500000004500FN00000000020220601000004500NNM   20220228131830    2F0F  00000150000000966900001096932H0    TTTJY   005400370024
BI00B32H0    #TT22061VMW    202204197189-3033                HOUSING FEMALE           CCN000004800000004800FN00000000020220601000004800NNM   20220228131830    2F0F  00000160000001211200001431232H0    TTTJY   005500360039
BI00B32H0    #TT22062VMW    202204267189-3033                HOUSING FEMALE           CCN000024000000024000FN00000000020220601000024000NNM   20220228131830    2F0F  00000160000001211200001431232H0    TTTJY   005500360039
BI00B32H0    #TT22063VMW    202205037189-3033                HOUSING FEMALE           CCN000008000000008000FN00000000020220601000008000NNM   20220228131830    2F0F  00000160000001211200001431232H0    TTTJY   005500360039
BI00B32H0    #TT22064VMW    202205107189-3033                HOUSING FEMALE           CCN000011200000011200FN00000000020220601000011200NNM   20220228131830    2F0F  00000160000001211200001431232H0    TTTJY   005500360039
BI00B32H0    #TT22065VMW    202205177189-3033                HOUSING FEMALE           CCN000004800000004800FN00000000020220601000004800NNM   20220228131830    2F0F  00000160000001211200001431232H0    TTTJY   005500360039
BI00B32H0    #TT22061VMW    202204197189-3033-30             HOUSING FEMALE           CCN000001600000001600FN00000000020220601000001600NNM   20220228131830    2F0F  00000160000001208000001428032H0    TTTJY   005500360039
BI00B32H0    #TT22061VMW    202204197198-4979-30             HOUSING FEMALE           CCN000004000000004000FN00000000020220601000004000NNM   20220228131830    2F0F  00000400000000707200000876032H0    TTTJY   005400370024
BI00B32H0    #TT22061VMW    202204197289-3622-30             HOUSING FEMALE ASS'Y     CCN000000864000000864FN00000000020220601000000864NNM   20220228131830    2N0N  00000043200000839400001038432H0    TTTJY   005400370024
BI00B32H0    #TT22062VMW    202204267289-3622-30             HOUSING FEMALE ASS'Y     CCN000001728000001728FN00000000020220601000001728NNM   20220228131830    2N0N  00000043200000839400001038432H0    TTTJY   005400370024
BI00B32H0    #TT22063VMW    202205037289-3622-30             HOUSING FEMALE ASS'Y     CCN000000864000000864FN00000000020220601000000864NNM   20220228131830    2N0N  00000043200000839400001038432H0    TTTJY   005400370024
BI00B32H0    #TT22064VMW    202205107289-3622-30             HOUSING FEMALE ASS'Y     CCN000001728000001728FN00000000020220601000001728NNM   20220228131830    2N0N  00000043200000839400001038432H0    TTTJY   005400370024
BI00B32H0    #TT22061VMW    202204197289-4200-30             HOUSING FEMALE ASS'Y     CCN000002000000002000FN00000000020220601000002000NNM   20220228131830    2N0N  00000200000000926000001021032H0    TTTJY   005400370024
BI00B32H0    TT2204CVMW     202203157114-5748-02             TERMINAL                 CCN000012000000012000FN00000000020220401000012000NNE   20220228131830    4P0P  00001200000000444000000737632H0    TTTJY   006400630015
BI00B32H0    TT2204CVMW     202203157116-5045-02             TERMINAL                 CCN000048000000048000FN00000000020220401000048000NNE   20220228131830    4P0P  00001600000000678400001007132H0    TTTJY   006400630017
BI00B32H0    TT2204CVMW     202203157116-6041                TERMINAL                 CCN000009000000009000FN00000000020220401000009000NNE   20220228131830    4P0P  00000450000000716000001009632H0    TTTJY   006400630015
BI00B32H0    TT2204CVMW     202203157116-6042                TERMINAL                 CCN000003000000003000FN00000000020220401000003000NNE   20220228131830    4P0P  00000300000000523800000856132H0    TTTJY   006400630015
BI00B32H0    TT2204CVMW     202203157126-8853-02             TERMINAL                 CCN000022500000022500FN00000000020220401000022500NNE   20220228131830    4P0P  00000750000000562500000847732H0    TTTJY   006400630015
BI00B32H0    TT2204CVMW     202203157158-3006-90             RUBBER STOPPER           CCN000060000000060000FN00000000020220401000060000NNE   20220228131830    1C0C  00002000000000330600000386032H0    TTTJY   002700430014
BI00B32H0    TT2204CVMW     202203157158-3166-60             WIRE SEAL                CCN000040000000040000FN00000000020220401000040000NNE   20220228131830    1C0C  00004000000000104000000152432H0    TTTJY   002700430014
BI00B32H0    TT2204CVMW     202203157173-3291-40             LIF LEVER                CCN000002400000002400FN00000000020220401000002400NNE   20220228131830    1F0F  00000240000000867800001067832H0    TTTJY   005500360039
BI00B32H0    TT2204CVMW     202203157196-1326-02             TERMINAL FEMALE          CCN000060000000060000FN00000000020220401000060000NNE   20220228131830    4P0P  00006000000000456000000784732H0    TTTJY   006400630017
BI00B32H0    TT2204CVMW     202203157270-8994                6P MODULE ASSEMBLY       CCN000002400000002400FN00000000020220401000002400NNE   20220228131830    4J0J  00000010000001098600001298632H0    TTTJY   005400370024
BI00B32H0    TT2204CVMW     202203157283-1289-40             CONNECTOR HOUSING        CCN000001200000001200FN00000000020220401000001200NNE   20220228131830    1N0N  00000060000000679800000824832H0    TTTJY   005400370024
BI00B32H0    TT2204CVMW     202203157283-1928-80             CONNECTOR                CCN000004000000004000FN00000000020220401000004000NNE   20220228131830    4N0N  00000200000001180000001358332H0    TTTJY   005500360039
BI00B32H0    TT2204CVMW     202203157327-6731-3W             BATTERY FUSE             CCN000002048000002048FN00000000020220401000002048NNE   20220228131830    4N0N  00000006400000697600000843032H0    TTTJY   005400370024
BI00B32H0    TT2204CVMW     202203157388-2978-30             HOUSING MALE ASS'Y       CCN000002400000002400FN00000000020220401000002400NNE   20220228131830    1N0N  00000048000000742000001122032H0    TTTJY   005500360039
BI00B32H0    #TT2204CVMW    202203157158-3003-90             RUBBER STOPPER           CCN000040000000040000FN00000000020220401000040000NNE   20220228131830    2C0C  00002000000000250000000306032H0    TTTJY   002700430014
BI00B32H0    #TT2204CVMW    202203157172-5626-90             RUBBER STOPPER           CCN000020000000020000FN00000000020220401000020000NNE   20220228131830    2H0H  00002000000000076400000127832H0    TTTJY   004300270014
BI00B32H0    #TT2204CVMW    202203157172-5628-80             DUMMY PLUG               CCN000020000000020000FN00000000020220401000020000NNE   20220228131830    2H0H  00002000000000110600000162032H0    TTTJY   004300270014
BI00B32H0    #TT2204CVMW    202203157172-5630-40             RUBBER STOPPER           CCN000060000000060000FN00000000020220401000060000NNE   20220228131830    2H0H  00002000000000044000000095132H0    TTTJY   004300270014
BI00B32H0    #TT2204CVMW    202203157172-5632-10             DUMMY PLUG               CCN000020000000020000FN00000000020220401000020000NNE   20220228131830    2H0H  00002000000000080400000131832H0    TTTJY   004300270014
BI00B32H0    #TT2204CVMW    202203157189-2978-30             HOUSING FEMALE           CCN000012000000012000FN00000000020220401000012000NNE   20220228131830    2F0F  00000150000000966900001096932H0    TTTJY   005400370024
BI00B32H2    TIJ2042        202203187282-4578                HOUSING MALE ASS'Y       CCN000019200000000000FY00000000020220401000000000NNMQ0820220228165038    4N0N  00000120000000782600000992632H2    HVYHV   005500360039
BI00B32H2    TIJ2043        202203257282-4578                HOUSING MALE ASS'Y       CCN000022800000000000FY00000000020220401000000000NNMQ0820220228165133    4N0N  00000120000000782600000992632H2    HVYHV   005500360039
BI00B32H2    TIJ2044        202204017282-4578                HOUSING MALE ASS'Y       CCN000024000000000000FY00000000020220401000000000NNMQ0820220228165334    4N0N  00000120000000782600000992632H2    HVYHV   005500360039
BI00B32H2    TIJ2042        202203187282-4578-30             HOUSING MALE ASS'Y       CCN000002400000000000FY00000000020220401000000000NNMQ0820220228165058    4N0N  00000120000000782600000992632H2    HVYHV   005500360039
BI00B32H2    TIJ2043        202203257282-4578-30             HOUSING MALE ASS'Y       CCN000004800000000000FY00000000020220401000000000NNMQ0820220228165206    4N0N  00000120000000782600000992632H2    HVYHV   005500360039
BI00B32H2    TIJ2044        202204017282-4578-30             HOUSING MALE ASS'Y       CCN000002400000000000FY00000000020220401000000000NNMQ0820220228165401    4N0N  00000120000000782600000992632H2    HVYHV   005500360039
BI00B32H2    TIJ2043        202203257282-4855                HOUSING MALE ASS'Y       CCN000016800000000000FY00000000020220401000000000NNMQ0820220228165232    4N0N  00000120000001063200001283232H2    HVYHV   005500360039
BI00B32H2    TIJ2044        202204017282-4855                HOUSING MALE ASS'Y       CCN000012000000000000FY00000000020220401000000000NNMQ0820220228165416    4N0N  00000120000001063200001283232H2    HVYHV   005500360039
BI00B32H2    TIJ2043        202203257282-9391                HOUSING MALE ASS'Y       CCN000003600000000000FY00000000020220401000000000NNMQ0820220228164253    4N0N  00000120000001017600001237632H2    HVYHV   005500360039
BI00B32H2    TIJ2044        202204017282-9391                HOUSING MALE ASS'Y       CCN000003600000000000FY00000000020220401000000000NNMQ0820220228164343    4N0N  00000120000001017600001237632H2    HVYHV   005500360039
BI00B32H2    TIJ2043        202203257283-1156                CONNECTOR                CCN000020000000000000FY00000000020220401000000000NNMQ0820220228164540    4N0N  00000080000000877600001078032H2    HVYHV   005600390040
BI00B32H2    TIJ2044        202204017283-1156                CONNECTOR                CCN000019200000000000FY00000000020220401000000000NNMQ0820220228164556    4N0N  00000080000000877600001078032H2    HVYHV   005600390040
BI00B32H2    TIJ2044        202204017283-4576                HOUSING FEMALE ASS'Y     CCN000076800000000000FY00000000020220401000000000NNMQ0820220228165436    4N0N  00000480000000651300000871332H2    HVYHV   005500360039
BI00B32H2    TIJ2044        202204017283-4576-30             HOUSING FEMALE ASS'Y     CCN000014400000000000FY00000000020220401000000000NNMQ0820220228165452    4N0N  00000480000000651300000871332H2    HVYHV   005500360039
BI00B32H2    TIJ2044        202204017283-4577                CONNECTOR HOUSING        CCN000014400000000000FY00000000020220401000000000NNMQ0820220228161004    4N0N  00000480000000916800001136832H2    HVYHV   005500360039
BI00B32H2    TIJ2043        202203257283-4577-30             CONNECTOR HOUSING        CCN000014400000000000FY00000000020220401000000000NNMQ0820220228160929    4N0N  00000480000000916800001136832H2    HVYHV   005500360039
BI00B32H2    TIJ2044        202204017283-4577-30             CONNECTOR HOUSING        CCN000024000000000000FY00000000020220401000000000NNMQ0820220228161023    4N0N  00000480000000916800001136832H2    HVYHV   005500360039
BI00B32H2    TIJ2043        202203257283-4855                CONNECTOR HOUSING        CCN000009600000000000FY00000000020220401000000000NNMQ0820220228160946    4N0N  00000240000001188400001400032H2    HVYHV   005500360039
BI00B32H2    TIJ2044        202204017283-4855                CONNECTOR HOUSING        CCN000007200000000000FY00000000020220401000000000NNMQ0820220228161220    4N0N  00000240000001188400001400032H2    HVYHV   005500360039
BI00B32H2    TIJ2044        202204017283-5845                CONNECTOR HOUSING        CCN000036000000000000FY00000000020220401000000000NNMQ0820220228165517    1N0N  00000600000000444000000606332H2    HVYHV   005400370024
BI00B32H2    TIJ2044        202204017283-5845-30             CONNECTOR HOUSING        CCN000012000000000000FY00000000020220401000000000NNMQ0820220228165528    1N0N  00000600000000444000000606332H2    HVYHV   005400370024
BI00B32H2    TIJ2044        202204017286-1900                CONNECTOR HOUSING        CCN000014400000000000FY00000000020220401000000000NNMQ0820220228164413    4N0N  00000480000001161600001376632H2    HVYHV   005500360039
BI00B32H2    TIJ2041        202203117286-4097                CONNECTOR MALE ASS'Y     CCN000003200000000000FY00000000020220401000000000NNMQ0820220228164154    1N0N  00000160000000768000000978032H2    HVYHV   005500360039
BI00B32H2    TIJ2042        202203187286-4097                CONNECTOR MALE ASS'Y     CCN000006400000000000FY00000000020220401000000000NNMQ0820220228164208    1N0N  00000160000000768000000978032H2    HVYHV   005500360039
BI00B32H2    TIJ2043        202203257286-4097                CONNECTOR MALE ASS'Y     CCN000008000000000000FY00000000020220401000000000NNMQ0820220228164318    1N0N  00000160000000768000000978032H2    HVYHV   005500360039
BI00B32H2    TIJ2044        202204017286-4097                CONNECTOR MALE ASS'Y     CCN000006400000000000FY00000000020220401000000000NNMQ0820220228164434    1N0N  00000160000000768000000978032H2    HVYHV   005500360039
BI00B32H2    TIJ2044        202204017287-1915                CONNECTOR ASS'Y          CCN000009600000000000FY00000000020220401000000000NNMQ0820220228165554    4N0N  00000240000000666500000923132H2    HVYHV   005500360039
BI00B32H2    TIJ2043        202203257287-1915-30             CONNECTOR ASS'Y          CCN000016800000000000FY00000000020220401000000000NNMQ0820220228165254    4N0N  00000240000000666500000923132H2    HVYHV   005500360039
BI00B32H2    TIJ2044        202204017287-1915-30             CONNECTOR ASS'Y          CCN000012000000000000FY00000000020220401000000000NNMQ0820220228165604    4N0N  00000240000000666500000923132H2    HVYHV   005500360039
BI00B32H2    TIJ2043        202203257287-1915-40             CONNECTOR ASS'Y          CCN000007200000000000FY00000000020220401000000000NNMQ0820220228165313    4N0N  00000240000000666500000923132H2    HVYHV   005500360039
BI00B32H2    TIJ2044        202204017287-1915-40             CONNECTOR ASS'Y          CCN000007200000000000FY00000000020220401000000000NNMQ0820220228165630    4N0N  00000240000000666500000923132H2    HVYHV   005500360039
BI00B32H2    TIJ2044        202204017287-9234                JOINT CONNECTOR          CCN000009600000000000FY00000000020220401000000000NNMQ0820220228161704    4N0N  00000960000000893800001184832H2    HVYHV   005500360039
BI00B32H2    TIJ2044        202204087289-3342                HOUSING FEMALE ASS'Y     CCN000021600000000000FY00000000020220401000000000NNMQ0820220228162025    1N0N  00000240000000686400000901432H2    HVYHV   005500360039
BI00B32H2    TIJ2043        202204017289-3342-90             HOUSING FEMALE ASS'Y     CCN000019200000000000FY00000000020220401000000000NNMQ0820220228161925    1N0N  00000240000000686400000901432H2    HVYHV   005500360039
BI00B32H2    TIJ2044        202204087289-3342-90             HOUSING FEMALE ASS'Y     CCN000019200000000000FY00000000020220401000000000NNMQ0820220228162329    1N0N  00000240000000686400000901432H2    HVYHV   005500360039
BI00B32H2    TIJ2044        202204017386-2747                CONNECTOR ASS'Y          CCN000004000000000000FY00000000020220401000000000NNMQ0820220228164621    4N0N  00000200000001162000001284532H2    HVYHV   005400370024
BI00B32H2    TIJ2044        202204017386-9155                CONNECTOR MALE ASS'Y     CCN000001800000000000FY00000000020220401000000000NNMQ0820220228164645    4N0N  00000060000001244400001369932H2    HVYHV   005400370024
BI00B32H2    #TIJ2044       202204017183-2415-40             CONNECTOR HOUSING        CCN000004800000000000FY00000000020220401000000000NNMQ0820220228170229    2F0F  00000480000000798200001091432H2    HVYHV   005500360039
BI00B32H2    #TIJ2043       202203257183-2418-30             CONNECTOR HOUSING        CCN000009600000000000FY00000000020220401000000000NNMQ0820220228165943    2F0F  00000480000000917000001235332H2    HVYHV   005500360039
BI00B32H2    #TIJ2044       202204017183-2418-30             CONNECTOR HOUSING        CCN000014400000000000FY00000000020220401000000000NNMQ0820220228170246    2F0F  00000480000000917000001235332H2    HVYHV   005500360039
BI00B32H2    #TIJ2044       202204017189-3034-30             HOUSING FEMALE           CCN000003200000000000FY00000000020220401000000000NNMQ0820220228170313    2F0F  00000160000000972800001192832H2    HVYHV   005500360039
BI00B32H2    #TIJ2043       202203257189-3036                HOUSING FEMALE           CCN000004800000000000FY00000000020220401000000000NNMQ0820220228170000    2F0F  00000160000000921600001141632H2    HVYHV   005500360039
BI00B32H2    #TIJ2044       202204017189-3036                HOUSING FEMALE           CCN000003200000000000FY00000000020220401000000000NNMQ0820220228170329    2F0F  00000160000000921600001141632H2    HVYHV   005500360039
BI00B32H2    #TIJ2042       202203187198-4980-30             HOUSING FEMALE           CCN000003600000000000FY00000000020220401000000000NNMQ0820220228165925    2F0F  00000120000000840000000921032H2    HVYHV   005400370024
BI00B32H2    #TIJ2043       202203257198-4980-30             HOUSING FEMALE           CCN000003600000000000FY00000000020220401000000000NNMQ0820220228170021    2F0F  00000120000000840000000921032H2    HVYHV   005400370024
BI00B32H2    #TIJ2044       202204017198-4980-30             HOUSING FEMALE           CCN000003600000000000FY00000000020220401000000000NNMQ0820220228170354    2F0F  00000120000000840000000921032H2    HVYHV   005400370024
BI00B32H2    #TIJ2044       202204017282-1641                CONNECTOR                CCN000030000000000000FY00000000020220401000000000NNMQ0820220228170411    2N0N  00000200000000813000000986032H2    HVYHV   005500360039
BI00B32H2    #TIJ2043       202203257282-3020                CONNECTOR                CCN000006000000000000FY00000000020220401000000000NNMQ0820220228170045    2N0N  00000100000000984000001145432H2    HVYHV   005500360039
BI00B32H2    #TIJ2044       202204017282-3020                CONNECTOR                CCN000008000000000000FY00000000020220401000000000NNMQ0820220228170431    2N0N  00000100000000984000001145432H2    HVYHV   005500360039
BI00B32H2    #TIJ2043       202203257283-8123                CONNECTOR HOUSING        CCN000028000000000000FY00000000020220401000000000NNMQ0820220228170106    2N0N  00000400000000380000000531732H2    HVYHV   005600390023
BI00B32H2    #TIJ2044       202204017283-8123                CONNECTOR HOUSING        CCN000032000000000000FY00000000020220401000000000NNMQ0820220228170451    2N0N  00000400000000380000000531732H2    HVYHV   005600390023
BI00B32H2    #TIJ2044       202204017283-8123-30             CONNECTOR HOUSING        CCN000004000000000000FY00000000020220401000000000NNMQ0820220228170502    2N0N  00000400000000380000000530032H2    HVYHV   005600390023
BI00B32H2    #TIJ2044       202204017283-8123-40             CONNECTOR HOUSING        CCN000004000000000000FY00000000020220401000000000NNMQ0820220228170534    2N0N  00000400000000380000000530032H2    HVYHV   005600390023
BI00B32H2    #TIJ2043       202203257287-7859                HYBRID FEMALE ASS'Y      CCN000009600000000000FY00000000020220401000000000NNMQ0820220228170126    2N0N  00000120000000461600000671632H2    HVYHV   005500360039
BI00B32H2    #TIJ2044       202204017287-7859                HYBRID FEMALE ASS'Y      CCN000010800000000000FY00000000020220401000000000NNMQ0820220228170600    2N0N  00000120000000461600000671632H2    HVYHV   005500360039
BI00B32H2    #TIJ2043       202203257287-7860                HYBRID FEMALE ASS'Y      CCN000006000000000000FY00000000020220401000000000NNMQ0820220228170157    2N0N  00000120000000644000000650432H2    HVYHV   005500360039
BI00B32H2    #TIJ2044       202204017287-7860                HYBRID FEMALE ASS'Y      CCN000007200000000000FY00000000020220401000000000NNMQ0820220228170623    2N0N  00000120000000644000000650432H2    HVYHV   005500360039
BI00B32H2    #TIJ2043       202203257287-7860-70             HYBRID FEMALE ASS'Y      CCN000003600000000000FY00000000020220401000000000NNMQ0820220228170210    2N0N  00000120000000464400000650432H2    HVYHV   005500360039
BI00B32H2    #TIJ2044       202204017287-7860-70             HYBRID FEMALE ASS'Y      CCN000004800000000000FY00000000020220401000000000NNMQ0820220228170641    2N0N  00000120000000464400000650432H2    HVYHV   005500360039
BI00A32J1    390043         202203027114-4100-02             TERMINAL                 CCN008640000002160000FN00000000020220301002160000NNE00020220228155930    4P0P  00001800000000748800001077432J1    UKYEL-BL006400630017
BI00A32J1    391054         202203027298-1869-30             HOUSING FEMALE ASS'Y     CCN000006000000006000FN00000000020220201000006000NNE00020220228155940    4N0N  00000120000000737000000939832J1    UKYEL-BL005500360039
BI00A32J1    #391295        202203027283-8226-30             CONNECTOR                CCN000004000000004000FN00000000020220201000004000NNE00020220228155850    2N0N  00000200000000820000001008032J1    UKYEL-BL005400370024
BI00A32J1    391476         202203027283-8630                CONNECTOR ASS'Y          CCN000006000000006000FN00000000020220201000006000NNE00020220228155917    4N0N  00000600000000540000000701332J1    UKYEL-BL005400370024
BI00A32J1    #391561        202203027297-1911-30             HOUSING MALE ASS'Y       CCN000007000000007000FN00000000020211201000007000NNE00020220228160014    2N0N  00000100000000486900000600132J1    UKYEL-BL005400370024
BI00A32J1    391628         202203027298-1865-30             HOUSING FEMALE ASS'Y     CCN000002400000002400FN00000000020220201000002400NNE00020220228155905    4N0N  00000240000001003200001204532J1    UKYEL-BL005500360039
BI00A32J1    #391358        202203027283-8226-30             CONNECTOR                CCN000010000000010000FN00000000020220301000010000NNM00020220228160031    2N0N  00000200000000820000001008032J1    UKYEL-BL005400370024
BI00B32N1    NST2114FCU-REV 202203037289-3342-30             HOUSING FEMALE ASS'Y     CCN000007200000007200FN00000000020220101000007200NNE00020220228161852    1N0N  00000240000000686400000901432N1    TAYIPL  005500360039
BI00B32N1    NST2116ECU     202203037283-5830-30             CONNECTOR                CCN000012000000012000FN00000000020220301000012000NNE00020220228161930    1N0N  00000600000000954000001104032N1    TAYIPL  005500360039
BI00B32P8    #TAPI-1102     202203027289-4200-30             HOUSING FEMALE ASS'Y     PNN000004000000004000FN00000000020211001000004000NNM00020220228150151    2N0N  00000200000000926000001021032P8    YIYTM   005400370024
BI00A32Q8    EU2202HTMW     202203037327-6950-30             MULTI FUSE               CCN000001728000001728FN00000000020220201000001728NNED0020220228141905    4N00  00000028800000888700001054632Q8    EMEMI   005400370024
BI00B32Q8    EU2204BNMW     202212077283-7526-60             CONNECTOR HOUSING        CCN000001960000000000FY00000000020220401000000000NNEQ0820220228083435    4N0N  00000196000000989800001248632Q8    EMEMI   005500360039
BI00A32Q8    #EU21124TMW    202203027289-4200-30             HOUSING FEMALE ASS'Y     CCN000020000000020000FN00000000020211201000020000NNMM0020220228131830    2N0N  00000200000000926000001021032Q8    EMEMI   005400370024
BI00B32Q8    EU2204CNMW     202212077283-7526-60             CONNECTOR HOUSING        CCN000001960000000000FY00000000020220401000000000NNEQ0820220228083414    4N0N  00000196000000989800001248632Q8    EMEMI   005500360039
BI00B32R7    #R-TAP220092   202203177186-8845-60             HOUSING MALE             CCN000012000000012000FN00000000020220401000012000NNE   20220228131830    2F0F  00000300000000690000000801532R7    IVYCIC  005400370024
BI00B32R7    #R-TAP220093   202203177186-8845                HOUSING MALE             CCN000006000000006000FN00000000020220301000006000NNE   20220228131830    2F0F  00000300000000690000000801532R7    IVYCIC  005400370024
BI00B32R7    R-TAP220094    202203247116-1257-02             TERMINAL                 CCN000024000000024000FN00000000020220401000024000NNE   20220228131830    1P0P  00002400000000518400000847132R7    IVYCIC  006400630017
BI00B32R7    #R-TAP220094   202203247186-8845                HOUSING MALE             CCN000003000000003000FN00000000020220401000003000NNE   20220228131830    2F0F  00000300000000690000000801532R7    IVYCIC  005400370024
BI00B32R8    TT2204AAMW     202203157116-1686-02             TERMINAL                 CCN000021000000021000FN00000000020220401000021000NNED0720220228131830    4P0P  00002100000000869400001021632R8    TTTJY   005100280028
BI00B32R8    TT2204AAMW     202203157116-6041                TERMINAL                 CCN000004500000004500FN00000000020220401000004500NNED0720220228131830    4P0P  00000450000000716000001009632R8    TTTJY   006400630015
BI00B32U5    DI2019A        202205137114-4032                TERMINAL                 CCN000007500000007500FN00000000020220601000007500NNE   20220228131830U5  4P0P  00000750000000735000001063632U5    AMAMSD  006400630017
BI00B32U5    DI2019A        202205137116-4037                TERMINAL                 CCN000060000000060000FN00000000020220601000060000NNE   20220228131830U5  4P0P  00000600000000600000000894232U5    AMAMSD  006400630015
BI00B32U5    DI2019A        202205137017-1180-02             TERMINAL                 CCN000072000000072000FN00000000020220601000072000NNE   20220228131830U5  4P0P  00007200000001065600001229032U5    AMAMSD  005100280028
BI00B32U5    DI2019A        202205137017-1182-02             TERMINAL                 CCN000090000000090000FN00000000020220601000090000NNE   20220228131830U5  4P0P  00004500000001165500001318632U5    AMAMSD  005100280028
BI00B32U5    DI2019A        202205137017-1183-02             TERMINAL                 CCN000027000000027000FN00000000020220601000027000NNE   20220228131830U5  4P0P  00002700000001139400001307432U5    AMAMSD  005100280028
BI00B32U5    DI2019A        202205137116-1685-02             TERMINAL                 CCN000288000000288000FN00000000020220601000288000NNE   20220228131830U5  4P0P  00002400000000897600001065232U5    AMAMSD  005100280028
BI00B32U5    DI2019A        202205137116-1686-02             TERMINAL                 CCN000042000000042000FN00000000020220601000042000NNE   20220228131830U5  4P0P  00002100000000869400001021632U5    AMAMSD  005100280028
BI00B32U5    DI2019A        202205137116-5045-02             TERMINAL                 CCN000288000000288000FN00000000020220601000288000NNE   20220228131830U5  4P0P  00001600000000678400001007132U5    AMAMSD  006400630017
BI00B32U5    DI2019A        202205137116-5046-02             TERMINAL                 CCN000216000000216000FN00000000020220601000216000NNE   20220228131830U5  4P0P  00001200000000544800000873532U5    AMAMSD  006400630017
BI00B32U5    DI2019A        202205137288-3330-30             HOUSING MALE             CCN000003000000003000FN00000000020220601000003000NNE   20220228131830U5  4N0N  00000150000000866300001011232U5    AMAMSD  005400370024
BI00B32U5    DI2019A        202205137288-3339-30             HOUSING MALE             CCN000003000000003000FN00000000020220601000003000NNE   20220228131830U5  4N0N  00000150000000867000001012032U5    AMAMSD  005400370024
BI00B32U5    DI2019A        202205137B72-5540-80             SEALED WIRE SEAL         CCN000040000000040000FN00000000020220601000040000NNE   20220228131830U5  1C0C  00002000000000186000000234432U5    AMAMSD  004300270014
BI00B32U5    DI2019A        202205137B96-0805-02             TERMINAL FEMALE          CCN000022500000022500FN00000000020220601000022500NNE   20220228131830U5  4P0P  00002250000000558000000843232U5    AMAMSD  006400630015
BI00B32U5    #DI2019A       202205137157-3821                RUBBER STOPPER           CCN000020000000020000FN00000000020220601000020000NNE   20220228131830U5  2C0C  00002000000000176000000238032U5    AMAMSD  002700430014
BI00B32U5    #DI2019A       202205137158-3017                RUBBER STOPPER           CCN000060000000060000FN00000000020220601000060000NNE   20220228131830U5  2C0C  00001000000000375500000435032U5    AMAMSD  002700430014
BI00B32U5    #DI2019A       202205137189-3032                HOUSING FEMALE           CCN000006400000006400FN00000000020220601000006400NNE   20220228131830U5  2F0F  00000160000000788400001018432U5    AMAMSD  005500360039
BI00B32U5    #DI2019A       202205137154-5597-30             CASSETTE R/B             CCN000000800000000800FN00000000020220601000000800NNE   20220228131830U5  2F0F  00000080000000736000000952032U5    AMAMSD  005500360039
BI00B32U5    #DI2019A       202205137158-3004-40             RUBBER STOPPER           CCN000020000000020000FN00000000020220601000020000NNE   20220228131830U5  2C0C  00002000000000234000000306332U5    AMAMSD  002700430014
BI00B32U5    #DI2019A       202205137158-3007-10             RUBBER STOPPER           CCN000120000000120000FN00000000020220601000120000NNE   20220228131830U5  2H0H  00002000000000308000000362732U5    AMAMSD  002700430014
BI00B32U5    #DI2019A       202205137158-3008-80             RUBBER STOPPER           CCN000180000000180000FN00000000020220601000180000NNE   20220228131830U5  2C0C  00002000000000288000000343032U5    AMAMSD  004300270014
BI00B32U5    #DI2019A       202205137158-3376-50             CONNECTOR WIRE SEAL      CCN000060000000060000FN00000000020220601000060000NNE   20220228131830U5  2C0C  00002000000000184000000240732U5    AMAMSD  002700430014
BI00B32U5    #DI2019A       202205137182-8253-40             HOUSING                  CCN000002400000002400FN00000000020220601000002400NNE   20220228131830U5  2F0F  00000120000000573000000864032U5    AMAMSD  005600390040
BI00B32U5    #DI2019A       202205137183-8252-40             HOUSING                  CCN000007200000007200FN00000000020220601000007200NNE   20220228131830U5  2F0F  00000240000000454000000729032U5    AMAMSD  005500360039
BI00B32U5    #DI2019A       202205137289-4200-30             HOUSING FEMALE ASS'Y     CCN000032000000032000FN00000000020220601000032000NNE   20220228131830U5  2N0N  00000200000000926000001021032U5    AMAMSD  005400370024
BI00B32U9    TPA212         202203047114-4031                TERMINAL                 CCN000010500000010500FN00000000020220301000010500NNM00020220228131830U9  4P0P  00001050000000966000001294632U9    YNYNA-E 006400630017
BI00B32U9    TPA212         202203047114-4231-02             TERMINAL                 CCN000162000000162000FN00000000020220301000162000NNM00020220228131830U9  4P0P  00001800000000554400000848032U9    YNYNA-E 006400630015
BI00B32U9    TPA212         202203047116-2951-02             TERMINAL                 CCN000081000000081000FN00000000020220301000081000NNM00020220228131830U9  4P0P  00000540000000817600001111832U9    YNYNA-E 006400630015
BI00B32U9    TPA212         202203047116-4231-02             TERMINAL                 CCN000728000000728000FN00000000020220301000728000NNM00020220228131830U9  4P0P  00002600000000683800001012532U9    YNYNA-E 006400630017
BI00B32U9    TPA212         202203047196-0805-02             TERMINAL FEMALE          CCN000112500000112500FN00000000020220301000112500NNM00020220228131830U9  4P0P  00002250000000558000000843232U9    YNYNA-E 006400630015
BI00B32U9    TPA212         202203047222-4220-30             CONNECTOR                CCN000003000000003000FN00000000020220301000003000NNM00020220228131830U9  4N0N  00000075000001219000001384032U9    YNYNA-E 005600390040
BI00B32U9    TPA212         202203047282-5574-10             CONNECTOR                CCN000028800000028800FN00000000020220301000028800NNM00020220228131830U9  4N0N  00000080000001235000001423032U9    YNYNA-E 005600390040
BI00B32U9    TPA212         202203047282-5684-10             CONNECTOR                CCN000001200000001200FN00000000020220301000001200NNM00020220228131830U9  4N0N  00000120000001477000001656032U9    YNYNA-E 005600390040
BI00B32U9    TPA212         202203047283-8599-30             CONNECTOR                CCN000004620000004620FN00000000020220301000004620NNM00020220228131830U9  4N0N  00000154000000947100001157032U9    YNYNA-E 005600390023
BI00B32U9    TP0389S        202203247298-1145-4W             SQUIB SUB ASS'Y          CCN000010000000010000FN00000000020220401000010000NNE   20220228140049U9  4N0N  00001000000000787900000944932U9    YNYNA-E 005400370024
BI00B32U9    TP0389S        202203247298-1186-40             SQUIB SUB ASS'Y          CCN000020000000020000FN00000000020220401000020000NNE   20220228140049U9  4N0N  00001000000000650000000774532U9    YNYNA-E 005400370024
BI00B32U9    #TP0389S       202203247158-3003-90             RUBBER STOPPER           CCN000020000000020000FN00000000020220401000020000NNE   20220228140045U9  2C0C  00002000000000250000000306032U9    YNYNA-E 002700430014
BI00B32U9    TPA217         202203247114-4030                TERMINAL                 CCN000010500000010500FN00000000020220401000010500NNM   20220228140756U9  4P0P  00001050000000926100001254732U9    YNYNA-E 006400630017
BI00B32U9    TPA217         202203247114-6041                TERMINAL                 CCN000010800000010800FN00000000020220401000010800NNM   20220228140756U9  4P0P  00000360000000580700000824232U9    YNYNA-E 006400630015
BI00B32U9    TPA217         202203247116-4037                TERMINAL                 CCN000006000000006000FN00000000020220401000006000NNM   20220228140756U9  4P0P  00000600000000600000000894232U9    YNYNA-E 006400630015
BI00B32U9    TPA217         202203247288-6547                CONNECTOR MALE ASS'Y     CCN000000750000000750FN00000000020220401000000750NNM   20220228140756U9  4N0N  00000075000001205300001340332U9    YNYNA-E 005400370024
BI00B32U9    TPA217         202203247114-4231-02             TERMINAL                 CCN000090000000090000FN00000000020220401000090000NNM   20220228140756U9  4P0P  00001800000000554400000848032U9    YNYNA-E 006400630015
BI00B32U9    TPA217         202203247116-2951-02             TERMINAL                 CCN000081000000081000FN00000000020220401000081000NNM   20220228140756U9  4P0P  00000540000000817600001111832U9    YNYNA-E 006400630015
BI00B32U9    TPA217         202203247116-4231-02             TERMINAL                 CCN000182000000182000FN00000000020220401000182000NNM   20220228140756U9  4P0P  00002600000000683800001012532U9    YNYNA-E 006400630017
BI00B32U9    TPA217         202203247158-3006-90             RUBBER STOPPER           CCN000060000000060000FN00000000020220401000060000NNM   20220228140756U9  1C0C  00002000000000330600000386032U9    YNYNA-E 002700430014
BI00B32U9    TPA217         202203247158-3166-60             WIRE SEAL                CCN000760000000760000FN00000000020220401000760000NNM   20220228140756U9  1C0C  00004000000000104000000152432U9    YNYNA-E 002700430014
BI00B32U9    TPA217         202203247158-3167-80             WIRE SEAL                CCN000400000000400000FN00000000020220401000400000NNM   20220228140756U9  1C0C  00002000000000048000000109032U9    YNYNA-E 002700430014
BI00B32U9    TPA217         202203247158-3168-80             SEALED                   CCN000200000000200000FN00000000020220401000200000NNM   20220228140756U9  1C0C  00002000000000044000000092132U9    YNYNA-E 004300260014
BI00B32U9    TPA217         202203247158-3169-40             SEALING PLUG             CCN000240000000240000FN00000000020220401000240000NNM   20220228140756U9  1C0C  00004000000000156000000204132U9    YNYNA-E 004300260014
BI00B32U9    TPA217         202203247172-1372-10             FRONT HOLDER             CCN000003900000003900FN00000000020220401000003900NNM   20220228140756U9  4F0F  00000390000000655200000955232U9    YNYNA-E 005500360039
BI00B32U9    TPA217         202203247172-5540-80             SEALED WIRE SEAL         CCN000060000000060000FN00000000020220401000060000NNM   20220228140756U9  1C0C  00002000000000186000000234432U9    YNYNA-E 004300270014
BI00B32U9    TPA217         202203247174-1849-70             COVER                    CCN000025000000025000FN00000000020220401000025000NNM   20220228140756U9  1F0F  00002500000000622500000761932U9    YNYNA-E 005400370024
BI00B32U9    TPA217         202203247196-0805-02             TERMINAL FEMALE          CCN000022500000022500FN00000000020220401000022500NNM   20220228140756U9  4P0P  00002250000000558000000843232U9    YNYNA-E 006400630015
BI00B32U9    TPA217         202203247222-4220-30             CONNECTOR                CCN000003000000003000FN00000000020220401000003000NNM   20220228140756U9  4N0N  00000075000001219000001384032U9    YNYNA-E 005600390040
BI00B32U9    TPA217         202203247282-5574-10             CONNECTOR                CCN000040000000040000FN00000000020220401000040000NNM   20220228140756U9  4N0N  00000080000001235000001423032U9    YNYNA-E 005600390040
BI00B32U9    TPA217         202203247282-5684-10             CONNECTOR                CCN000003600000003600FN00000000020220401000003600NNM   20220228140756U9  4N0N  00000120000001477000001656032U9    YNYNA-E 005600390040
