BI00B1200    #7925T52104    202205057189-3297                HOUSING FEMALE           CCN000300000000000000FY00000000020220601000000000NNMQ0820220322132612    2F0F  0000040000000089320000102901200    YCYC    005400370024
BI00B1200    #Y022G50015    202206237174-1314-30             SEALED COVER             CCN000003200000003200FN00000000020220701000003200NNM   20220322121225    2F0F  0000008000000076930000088931200    YCYC    005500360039
BI00B1200    Y022G50016     202206097196-0648-02             TERMINAL                 CCN000030000000030000FN00000000020220701000030000NNM   20220322121225    4P0P  0000150000000035550000068971200    YCYC    006400630015
BI00B1200    Y022G50017     202206237196-0648-02             TERMINAL                 CCN000030000000030000FN00000000020220701000030000NNM   20220322121225    4P0P  0000150000000035550000068971200    YCYC    006400630015
BI00B1200    T122CC003      202204287327-6870-30             MULTI FUSE               CCN000000576000000576FN00000000020220501000000576NNE   20220322121225    4N0N  0000002880000101520000118111200    YCYC    005400370024
BI00B1200    T122CC003      202204287327-6874-30             MULTI FUSE               CCN000000288000000288FN00000000020220501000000288NNE   20220322121225    4N0N  0000002880000099140000115731200    YCYC    005400370024
BI00B1200    T122CC003      202204287327-6880-30             MULTI FUSE               CCN000000288000000288FN00000000020220501000000288NNE   20220322121225    4N0N  0000002880000101260000117851200    YCYC    005400370024
BI00B1200    T122CC003      202204287327-6908                MAIN FUSE                CCN000000600000000600FN00000000020220501000000600NNE   20220322121225    4N0N  0000006000000073040000091541200    YCYC    005400370024
BI00B1200    T122CC003      202204287327-6937-30             MULTI FUSE               CCN000000288000000288FN00000000020220501000000288NNE   20220322121225    4N0N  0000002880000101360000117951200    YCYC    005400370024
BI00B1200    T122CC003      202204287327-6939-30             MULTI FUSE               CCN000000288000000288FN00000000020220501000000288NNE   20220322121225    4N00  0000002880000099220000115811200    YCYC    005400370024
BI00B1200    T122CC003      202204287327-6941-30             MULTI FUSE               CCN000000288000000288FN00000000020220501000000288NNE   20220322121225    4N00  0000002880000101440000118031200    YCYC    005400370024
BI00B32B1    A22017A        202204297288-3339-30             HOUSING MALE             CCN000006000000006000FN00000000020220601000006000NNE   20220322121225B1  4N0N  00000150000000867000001012032B1    AXARNE-M005400370024
BI00B32B1    #A22017A       202204297157-3891                RUBBER STOPPER           CCN000020000000020000FN00000000020220601000020000NNE   20220322121225B1  2H0H  00001000000000145000000241732B1    AXARNE-M004300270014
BI00B32B1    #A22017A       202204297158-3376-50             CONNECTOR WIRE SEAL      CCN000080000000080000FN00000000020220601000080000NNE   20220322121225B1  2C0C  00002000000000184000000240732B1    AXARNE-M002700430014
BI00B32B1    #A22017A       202204297283-8226-30             CONNECTOR                CCN000010000000010000FN00000000020220601000010000NNE   20220322121225B1  2N0N  00000200000000820000001008032B1    AXARNE-M005400370024
BI00B32B7    A82017A        202204227282-6448-40             CONNECTOR                CCN000013600000013600FN00000000020220601000013600NNE   20220322121225B7  4N0N  00000080000000887000001152732B7    AXARNE-M005600390040
BI00B32B7    #A82017A       202204227283-8398-40             CONNECTOR                CCN000007700000007700FN00000000020220601000007700NNE   20220322121225B7  2N0N  00000154000001007000001171332B7    AXARNE-M005600390023
BI00B32B7    A82017C        202204227282-6448-40             CONNECTOR                CCN000013600000013600FN00000000020220601000013600NNE   20220322121225B7  4N0N  00000080000000887000001152732B7    AXARNE-M005600390040
BI00B32B7    #A82017C       202204227283-8398-40             CONNECTOR                CCN000007700000007700FN00000000020220601000007700NNE   20220322121225B7  2N0N  00000154000001007000001171332B7    AXARNE-M005600390023
BI00B32B7    A82017B        202204227282-6448-40             CONNECTOR                CCN000013600000013600FN00000000020220601000013600NNE   20220322121225B7  4N0N  00000080000000887000001152732B7    AXARNE-M005600390040
BI00B32B7    #A82017B       202204227283-8398-40             CONNECTOR                CCN000007700000007700FN00000000020220601000007700NNE   20220322121225B7  2N0N  00000154000001007000001171332B7    AXARNE-M005600390023
BI00B32DJ    GHT2204B 1     202207277289-3342-30             HOUSING FEMALE ASS'Y     CCN000050400000004800FN00000000020220401000004800NNMD0420220322133140    1N0N  00000240000000686400000901432DJ    RBYIPLRB005500360039
BI00B32DJ    GHT2204B 2     202210067289-3342-30             HOUSING FEMALE ASS'Y     CCN000004800000004800FN00000000020220401000004800NNMD0420220322133508    1N0N  00000240000000686400000901432DJ    RBYIPLRB005500360039
BI00B32DJ    GHT2204B 3     202210127289-3342-30             HOUSING FEMALE ASS'Y     CCN000004800000004800FN00000000020220401000004800NNMD0420220322133529    1N0N  00000240000000686400000901432DJ    RBYIPLRB005500360039
BI00B32DJ    GHT2204B 4     202210207289-3342-30             HOUSING FEMALE ASS'Y     CCN000004800000004800FN00000000020220401000004800NNMD0420220322133547    1N0N  00000240000000686400000901432DJ    RBYIPLRB005500360039
BI00B32DJ    GHT2204B 1     202203247158-3006-90             RUBBER STOPPER           CCN000120000000120000FN00000000020220401000120000NNMD0720220322130148    1C0C  00002000000000330600000386032DJ    RBYIPLRB002700430014
BI00B32DJ    GHT2204B 2     202203247158-3006-90             RUBBER STOPPER           CCN000080000000080000FN00000000020220401000080000NNMD0020220322134923    1C0C  00002000000000330600000386032DJ    RBYIPLRB002700430014
BI00B32DJ    GHT2204B 3     202203317158-3006-90             RUBBER STOPPER           CCN000140000000140000FN00000000020220401000140000NNMD0020220322145158    1C0C  00002000000000330600000386032DJ    RBYIPLRB002700430014
BI00B32DJ    GHT2204B 4     202204077158-3006-90             RUBBER STOPPER           CCN000100000000100000FN00000000020220401000100000NNM   20220322121225    1C0C  00002000000000330600000386032DJ    RBYIPLRB002700430014
BI00B32DJ    GHT2204B 1     202203247114-4415-02             TERMINAL MALE            CCN000837000000837000FN00000000020220401000837000NNMD0720220322135125    4P0P  00002700000000429300000717532DJ    RBYIPLRB006400630015
BI00B32DJ    GHT2204B 2     202203247114-4415-02             TERMINAL MALE            CCN000189000000189000FN00000000020220401000189000NNMD0020220322130207    4P0P  00002700000000429300000717532DJ    RBYIPLRB006400630015
BI00B32DJ    GHT2204B 3     202203317114-4415-02             TERMINAL MALE            CCN000270000000270000FN00000000020220401000270000NNMD0020220322145158    4P0P  00002700000000429300000717532DJ    RBYIPLRB006400630015
BI00B32DJ    GHT2204B 4     202204077114-4415-02             TERMINAL MALE            CCN000054000000054000FN00000000020220401000054000NNM   20220322121225    4P0P  00002700000000429300000717532DJ    RBYIPLRB006400630015
BI00B32DJ    GHT2204B 4     202204077158-3009-60             RUBBER STOPPER           CCN000040000000040000FN00000000020220401000040000NNM   20220322121225    1C0C  00002000000000338000000386232DJ    RBYIPLRB002700430014
BI00B32DJ    #GHT2204B 4    202204077183-2414                CONNECTOR HOUSING        CCN000009600000009600FN00000000020220401000009600NNM   20220322121225    2F0F  00000480000000779200001061032DJ    RBYIPLRB005500360039
BI00B32DJ    GHT2204B 1     202208047289-3342-30             HOUSING FEMALE ASS'Y     CCN000004800000004800FN00000000020220401000004800NNMD0420220322133146    1N0N  00000240000000686400000901432DJ    RBYIPLRB005500360039
BI00B32DJ    GHT2204B 1     202208117289-3342-30             HOUSING FEMALE ASS'Y     CCN000004800000004800FN00000000020220401000004800NNMD0420220322133154    1N0N  00000240000000686400000901432DJ    RBYIPLRB005500360039
BI00B32DJ    GHT2204B 1     202208187289-3342-30             HOUSING FEMALE ASS'Y     CCN000004800000004800FN00000000020220401000004800NNMD0420220322133203    1N0N  00000240000000686400000901432DJ    RBYIPLRB005500360039
BI00B32DJ    GHT2204B 1     202208257289-3342-30             HOUSING FEMALE ASS'Y     CCN000004800000004800FN00000000020220401000004800NNMD0420220322133210    1N0N  00000240000000686400000901432DJ    RBYIPLRB005500360039
BI00B32DJ    GHT2204B 1     202209017289-3342-30             HOUSING FEMALE ASS'Y     CCN000004800000004800FN00000000020220401000004800NNMD0420220322133227    1N0N  00000240000000686400000901432DJ    RBYIPLRB005500360039
BI00B32DJ    GHT2204B 1     202209087289-3342-30             HOUSING FEMALE ASS'Y     CCN000004800000004800FN00000000020220401000004800NNMD0420220322133237    1N0N  00000240000000686400000901432DJ    RBYIPLRB005500360039
BI00B32DJ    GHT2204B 1     202209157289-3342-30             HOUSING FEMALE ASS'Y     CCN000004800000004800FN00000000020220401000004800NNMD0420220322133246    1N0N  00000240000000686400000901432DJ    RBYIPLRB005500360039
BI00B32DJ    GHT2204B 1     202209227289-3342-30             HOUSING FEMALE ASS'Y     CCN000004800000004800FN00000000020220401000004800NNMD0420220322133303    1N0N  00000240000000686400000901432DJ    RBYIPLRB005500360039
BI00B32DJ    GHT2204B 1     202209297289-3342-30             HOUSING FEMALE ASS'Y     CCN000004800000007200FN00000000020220401000007200NNMD0420220322133441    1N0N  00000240000000686400000901432DJ    RBYIPLRB005500360039
BI00A32D2    DGTC2220       202203247289-6547                HOUSING FEMALE ASS'Y     CCN000004800000004800FN00000000020220501000004800NNM00020220322145547    1N0N  00000240000001152000001362032D2    TGYOT-G 005500360039
BI00B32EJ    T220317P02     202204217158-3166-60             WIRE SEAL                CCN000960000000960000FN00000000020220401000960000NNED0420220322121225EJ  1C0C  00004000000000104000000152432EJ    EJYKBO  002700430014
BI00B32G2    SA2204E MW     202205047254-5840-30             ENG R/B SUB ASS'Y        CCN000000120000000120FN00000000020220401000000120NNED0220220322121225    4J0J  00000002400000732000000952032G2    AISUAI  005600390040
BI00B32G2    SA2204E MW     202204207283-1144-30             CONNECTOR                CCN000004800000004800FN00000000020220401000004800NNED0420220322121225    4N0N  00000240000000602200000866132G2    AISUAI  005500360039
BI00B32H2    #TIJ2044       202204017172-5630-40             RUBBER STOPPER           CCN000100000000000000FY00000000020220401000000000NNMQ0820220322174635    2H0H  00002000000000044000000095132H2    HVYHV   004300270014
BI00B32H2    TIJ2052        202204227158-3009-60             RUBBER STOPPER           CCN000300000000060000FN00000000020220501000060000NNMQ0820220322174332    1C0C  00002000000000338000000386232H2    HVYHV   002700430014
BI00B32H2    TIJ2053        202204297158-3070-80             RUBBER STOPPER           CCN000160000000120000FN00000000020220501000120000NNMQ0820220322174452    1C0C  00004000000000276000000333332H2    HVYHV   002700430014
BI00B32H2    #TIJ2054       202205067158-3008-80             RUBBER STOPPER           CCN000100000000040000FN00000000020220501000040000NNMQ0820220322174245    2C0C  00002000000000288000000343032H2    HVYHV   004300270014
BI00A32H7    #FS22043DMW    202203237172-5630-40             RUBBER STOPPER           PCN000300000000300000FN00000000020220401000300000NNMM0020220322134038    2H0H  00002000000000044000000095132H7    FYFSY   004300270014
BI00B32M3    SM22055 MW     202204287283-7526-40             CONNECTOR HOUSING        CCN000001960000000000FY00000000020220501000000000NNMQ0820220322165323    4N0N  00000196000000989800001248632M3    SASAMI  005500360039
BI00B32M3    SM22054HMW     202204217C87-7975-4W             SQUIB SUB ASS'Y          CCN000010000000000000FY00000000020220501000000000NNMQ0820220322165122    4N0N  00001000000000837000000991132M3    SASAMI  005400370024
BI00B32N1    NST2118FCU     202204287158-3166-60             WIRE SEAL                CCN000520000000520000FN00000000020220501000520000NNED0220220322121225    1C0C  00004000000000104000000152432N1    TAYIPL  002700430014
BI00B32N1    NST2318        202203317126-8851-02             TERMINAL                 CCN000021000000027000FN00000000020220401000027000NNM   20220322140157    1P0P  00000900000000739800001025032N1    TAYIPL  006400630015
BI00B32N1    NST2318        202203317116-4416-02             TERMINAL                 CCN000024000000032000FN00000000020220401000032000NNM   20220322140157    4P0P  00003200000000518400000847132N1    TAYIPL  006400630017
BI00B32N1    NST2318        202203317114-4416-02             TERMINAL MALE            CCN000024000000027000FN00000000020220401000027000NNM   20220322140157    4P0P  00002700000000442800000731032N1    TAYIPL  006400630015
BI00B32N1    NST2318        202203317158-3167-80             WIRE SEAL                CCN000060000000060000FN00000000020220401000060000NNM   20220322140157    1C0C  00002000000000048000000109032N1    TAYIPL  002700430014
BI00B32N1    NST2318        202203317116-4415-02             TERMINAL                 CCN000020000000038000FN00000000020220401000038000NNM   20220322140157    4P0P  00003800000000596600000925732N1    TAYIPL  006400630017
BI00B32N1    NST2318        202203317116-2893-02             TERMINAL                 CCN000020000000024000FN00000000020220401000024000NNM   20220322140157    4P0P  00001200000000895200001058632N1    TAYIPL  005100280028
BI00B32N1    NST2318        202203317116-1686-02             TERMINAL                 CCN000020000000021000FN00000000020220401000021000NNM   20220322140157    4P0P  00002100000000869400001021632N1    TAYIPL  005100280028
BI00B32N1    NST2318        202203317126-8855-02             TERMINAL                 CCN000020000000024000FN00000000020220401000024000NNM   20220322140157    4P0P  00000600000000510600000795832N1    TAYIPL  006400630015
BI00B32N1    NST2318        202203317126-8852-02             TERMINAL                 CCN000020000000022500FN00000000020220401000022500NNM   20220322140157    1P0P  00000750000000648000000933232N1    TAYIPL  006400630015
BI00B32N1    NST2318        202203317116-4025                TERMINAL                 CCN000020000000032000FN00000000020220401000032000NNM   20220322140157    4P0P  00001600000000644800000975132N1    TAYIPL  006400630017
BI00B32N1    NST2318        202203317116-5045-02             TERMINAL                 CCN000020000000032000FN00000000020220401000032000NNM   20220322140157    4P0P  00001600000000678400001007132N1    TAYIPL  006400630017
BI00B32N1    NST2117C 1     202204077116-4416-02             TERMINAL                 CCN000032000000032000FN00000000020220501000032000NNM   20220322140409    4P0P  00003200000000518400000847132N1    TAYIPL  006400630017
BI00B32N1    NST2117C 1     202204077158-3006-90             RUBBER STOPPER           CCN000180000000180000FN00000000020220501000180000NNM   20220322140409    1C0C  00002000000000330600000386032N1    TAYIPL  002700430014
BI00B32N1    NST2118TCU     202204217283-1928-80             CONNECTOR                CCN000002000000002000FN00000000020220501000002000NNE   20220322150351    4N0N  00000200000001180000001358332N1    TAYIPL  005500360039
BI00B32N1    NST2118TCU     202204217282-7028-30             CONNECTOR                CCN000004000000004000FN00000000020220501000004000NNE   20220322150351    1N0N  00000200000001124000001212532N1    TAYIPL  005600390040
BI00B32N1    NST2118TCU     202204217196-0511-02             TERMINAL                 CCN000008000000024000FN00000000020220501000024000NNE   20220322150351    4P0P  00002400000000916800001080232N1    TAYIPL  002800510028
BI00B32P8    TAPI-2051      202203237298-1869-30             HOUSING FEMALE ASS'Y     CCN000001200000001200FN00000000020220501000001200NNMD0020220322121225    4N0N  00000120000000737000000939832P8    YIYTM   005500360039
BI00B32P8    TAPI-206A1     202204067114-4112-02             TERMINAL                 CCN000027000000027000FN00000000020220601000027000NNM   20220322121225    4P0P  00000900000000598500000927132P8    YIYTM   006400630017
BI00B32P8    TAPI-206A1     202204067116-1301                TERMINAL                 CCN000015000000015000FN00000000020220601000015000NNM   20220322121225    4P0P  00001500000000487500000772732P8    YIYTM   006400630015
BI00B32P8    TAPI-206A1     202204067116-4037                TERMINAL                 CCN000006000000006000FN00000000020220601000006000NNM   20220322121225    4P0P  00000600000000600000000894232P8    YIYTM   006400630015
BI00B32P8    TAPI-206A1     202204067116-4100-02             TERMINAL                 CCN000075000000075000FN00000000020220601000075000NNM   20220322121225    4P0P  00001500000000696000000990232P8    YIYTM   006400630015
BI00B32P8    TAPI-206A1     202204067195-1465-02             TERMINAL MALE            CCN000042000000042000FN00000000020220601000042000NNM   20220322121225    4P0P  00002100000000359100000644332P8    YIYTM   006400630015
BI00B32P8    TAPI-206A1     202204067283-1156                CONNECTOR                CCN000001600000001600FN00000000020220601000001600NNM   20220322121225    4N0N  00000080000000877600001078032P8    YIYTM   005600390040
BI00B32P8    TAPI-206A1     202204067470-3082                J/B COMPLETE ASS'Y       CCN000000120000000120FN00000000020220601000000120NNM   20220322121225    1J0J  00000002400001320000001570032P8    YIYTM   005500360039
BI00B32P8    TAPI-206A1     202204067327-6994-3W             BATTERY FUSE             CCN000003168000003168FN00000000020220601000003168NNM   20220322121225    4N0N  00000007200001215100001430132P8    YIYTM   005500360039
BI00B32P8    #TAPI-206A1    202204067158-3015-10             RUBBER STOPPER           CCN000030000000030000FN00000000020220601000030000NNM   20220322121225    2C0C  00001000000000419500000474032P8    YIYTM   002700430014
BI00B32P8    #TAPI-206A1    202204067182-9633-40             JOINT CONNECTOR          CCN000003000000003000FN00000000020220601000003000NNM   20220322121225    2F0F  00000300000001335000001460532P8    YIYTM   005400370024
BI00B32P8    #TAPI-206A1    202204067282-6446-40             CONNECTOR                CCN000010500000010500FN00000000020220601000010500NNM   20220322121225    2N0N  00000150000001185000001368032P8    YIYTM   005500360039
BI00B32P8    #TAPI-206A1    202204067283-5833                CONNECTOR HOUSING        CCN000003640000003640FN00000000020220601000003640NNM   20220322121225    2N0N  00000364000001378000001686732P8    YIYTM   005500360039
BI00B32P8    TAPI-2062      202205117158-3169-40             SEALING PLUG             CCN000160000000160000FN00000000020220601000160000NNM   20220322121225    1C0C  00004000000000156000000204132P8    YIYTM   004300260014
BI00B32P8    TAPI-2063      202205187158-3169-40             SEALING PLUG             CCN000160000000160000FN00000000020220601000160000NNM   20220322121225    1C0C  00004000000000156000000204132P8    YIYTM   004300260014
BI00B32P8    TAPI-2064      202205257158-3169-40             SEALING PLUG             CCN000080000000080000FN00000000020220601000080000NNM   20220322121225    1C0C  00004000000000156000000204132P8    YIYTM   004300260014
BI00B32P8    TAPI-2062      202205117158-3006-90             RUBBER STOPPER           CCN000100000000100000FN00000000020220601000100000NNM   20220322121225    1C0C  00002000000000330600000386032P8    YIYTM   002700430014
BI00B32P8    TAPI-2063      202205187158-3006-90             RUBBER STOPPER           CCN000400000000400000FN00000000020220601000400000NNM   20220322121225    1C0C  00002000000000330600000386032P8    YIYTM   002700430014
BI00B32P8    TAPI-2064      202205257158-3006-90             RUBBER STOPPER           CCN000380000000380000FN00000000020220601000380000NNM   20220322121225    1C0C  00002000000000330600000386032P8    YIYTM   002700430014
BI00B32P8    TAPI-2063      202205187158-3009-60             RUBBER STOPPER           CCN000060000000060000FN00000000020220601000060000NNM   20220322121225    1C0C  00002000000000338000000386232P8    YIYTM   002700430014
BI00B32P8    TAPI-2064      202205257158-3009-60             RUBBER STOPPER           CCN000220000000220000FN00000000020220601000220000NNM   20220322121225    1C0C  00002000000000338000000386232P8    YIYTM   002700430014
BI00B32P8    TAPI-2064      202205257158-3070-80             RUBBER STOPPER           CCN000040000000040000FN00000000020220601000040000NNM   20220322121225    1C0C  00004000000000276000000333332P8    YIYTM   002700430014
BI00B32P8    TAPI-2064      202205257158-3165-90             WIRE SEAL                CCN000160000000160000FN00000000020220601000160000NNM   20220322121225    1C0C  00004000000000124000000172432P8    YIYTM   004300270014
BI00B32P8    TAPI-2063      202205187158-3166-60             WIRE SEAL                CCN000240000000240000FN00000000020220601000240000NNM   20220322121225    1C0C  00004000000000104000000152432P8    YIYTM   002700430014
BI00B32P8    TAPI-2064      202205257158-3166-60             WIRE SEAL                CCN000200000000200000FN00000000020220601000200000NNM   20220322121225    1C0C  00004000000000104000000152432P8    YIYTM   002700430014
BI00B32P8    TAPI-2062      202205117158-3167-80             WIRE SEAL                CCN000120000000120000FN00000000020220601000120000NNM   20220322121225    1C0C  00002000000000048000000109032P8    YIYTM   002700430014
BI00B32P8    TAPI-2063      202205187158-3167-80             WIRE SEAL                CCN000200000000200000FN00000000020220601000200000NNM   20220322121225    1C0C  00002000000000048000000109032P8    YIYTM   002700430014
BI00B32P8    TAPI-2064      202205257158-3167-80             WIRE SEAL                CCN000220000000220000FN00000000020220601000220000NNM   20220322121225    1C0C  00002000000000048000000109032P8    YIYTM   002700430014
BI00B32P8    TAPI-2062      202205117158-3168-80             SEALED                   CCN000040000000040000FN00000000020220601000040000NNM   20220322121225    1C0C  00002000000000044000000092132P8    YIYTM   004300260014
BI00B32P8    TAPI-2063      202205187158-3168-80             SEALED                   CCN000040000000040000FN00000000020220601000040000NNM   20220322121225    1C0C  00002000000000044000000092132P8    YIYTM   004300260014
BI00B32P8    TAPI-2062      202205117114-1470                TERMINAL                 CCN000016500000016500FN00000000020220601000016500NNM   20220322121225    4P0P  00001650000000544500000838732P8    YIYTM   006400630015
BI00B32P8    TAPI-2063      202205187114-1470                TERMINAL                 CCN000082500000082500FN00000000020220601000082500NNM   20220322121225    4P0P  00001650000000544500000838732P8    YIYTM   006400630015
BI00B32P8    TAPI-2064      202205257114-1470                TERMINAL                 CCN000066000000066000FN00000000020220601000066000NNM   20220322121225    4P0P  00001650000000544500000838732P8    YIYTM   006400630015
BI00B32P8    TAPI-2064      202205257114-4020                TERMINAL                 CCN000105000000105000FN00000000020220601000105000NNM   20220322121225    4P0P  00002100000000875700001169332P8    YIYTM   006400630015
BI00B32P8    TAPI-2064      202205257114-4021                TERMINAL                 CCN000030000000030000FN00000000020220601000030000NNM   20220322121225    4P0P  00001500000000670500000964132P8    YIYTM   006400630015
BI00B32P8    TAPI-2062      202205117114-4110-02             TERMINAL                 CCN000015000000015000FN00000000020220601000015000NNM   20220322121225    4P0P  00001500000000901500001230132P8    YIYTM   006400630017
BI00B32P8    TAPI-2063      202205187114-4110-02             TERMINAL                 CCN000060000000060000FN00000000020220601000060000NNM   20220322121225    4P0P  00001500000000901500001230132P8    YIYTM   006400630017
BI00B32P8    TAPI-2064      202205257114-4110-02             TERMINAL                 CCN000045000000045000FN00000000020220601000045000NNM   20220322121225    4P0P  00001500000000901500001230132P8    YIYTM   006400630017
BI00B32P8    TAPI-2062      202205117114-4111-02             TERMINAL                 CCN000012000000012000FN00000000020220601000012000NNM   20220322121225    4P0P  00001200000000758400001087032P8    YIYTM   006400630017
BI00B32P8    TAPI-2063      202205187114-4111-02             TERMINAL                 CCN000024000000024000FN00000000020220601000024000NNM   20220322121225    4P0P  00001200000000758400001087032P8    YIYTM   006400630017
BI00B32P8    TAPI-2064      202205257114-4111-02             TERMINAL                 CCN000024000000024000FN00000000020220601000024000NNM   20220322121225    4P0P  00001200000000758400001087032P8    YIYTM   006400630017
BI00B32P8    TAPI-2061      202205047114-4112-02             TERMINAL                 CCN000045000000045000FN00000000020220601000045000NNM   20220322121225    4P0P  00000900000000598500000927132P8    YIYTM   006400630017
BI00B32P8    TAPI-2062      202205117114-4112-02             TERMINAL                 CCN000027000000027000FN00000000020220601000027000NNM   20220322121225    4P0P  00000900000000598500000927132P8    YIYTM   006400630017
BI00B32P8    TAPI-2063      202205187114-4112-02             TERMINAL                 CCN000027000000027000FN00000000020220601000027000NNM   20220322121225    4P0P  00000900000000598500000927132P8    YIYTM   006400630017
BI00B32P8    TAPI-2064      202205257114-4112-02             TERMINAL                 CCN000027000000027000FN00000000020220601000027000NNM   20220322121225    4P0P  00000900000000598500000927132P8    YIYTM   006400630017
BI00B32P8    TAPI-2064      202205257114-4231-02             TERMINAL                 CCN000072000000072000FN00000000020220601000072000NNM   20220322121225    4P0P  00001800000000554400000848032P8    YIYTM   006400630015
BI00B32P8    TAPI-2063      202205187114-4417-02             TERMINAL MALE            CCN000022500000022500FN00000000020220601000022500NNM   20220322121225    4P0P  00002250000000380300000668532P8    YIYTM   006400630015
BI00B32P8    TAPI-2063      202205187114-4728-08             TERMINAL                 CCN000030000000030000FN00000000020220601000030000NNM   20220322121225    4P0P  00003000000000507000000801232P8    YIYTM   006400630015
BI00B32P8    TAPI-2063      202205187114-5096-02             TERMINAL                 CCN000030000000030000FN00000000020220601000030000NNM   20220322121225    4P0P  00003000000000498000000792232P8    YIYTM   006400630015
BI00B32P8    TAPI-2062      202205117114-5746-02             TERMINAL                 CCN000021000000021000FN00000000020220601000021000NNM   20220322121225    4P0P  00002100000000695100000988732P8    YIYTM   006400630015
BI00B32P8    TAPI-2064      202205257114-5748-02             TERMINAL                 CCN000012000000012000FN00000000020220601000012000NNM   20220322121225    4P0P  00001200000000444000000737632P8    YIYTM   006400630015
BI00B32P8    TAPI-2063      202205187114-5753-02             TERMINAL                 CCN000027000000027000FN00000000020220601000027000NNM   20220322121225    4P0P  00002700000000847800001141432P8    YIYTM   006400630015
BI00B32P8    TAPI-2061      202205047114-6041                TERMINAL                 CCN000003600000003600FN00000000020220601000003600NNM   20220322121225    4P0P  00000360000000580700000824232P8    YIYTM   006400630015
BI00B32P8    TAPI-2063      202205187114-6041                TERMINAL                 CCN000003600000003600FN00000000020220601000003600NNM   20220322121225    4P0P  00000360000000580700000824232P8    YIYTM   006400630015
BI00B32P8    TAPI-2061      202205047116-1180                TERMINAL                 CCN000019500000019500FN00000000020220601000019500NNM   20220322121225    1P0P  00001950000000618200000903432P8    YIYTM   006400630015
BI00B32P8    TAPI-2063      202205187116-1180                TERMINAL                 CCN000019500000019500FN00000000020220601000019500NNM   20220322121225    1P0P  00001950000000618200000903432P8    YIYTM   006400630015
BI00B32P8    TAPI-2064      202205257116-1180                TERMINAL                 CCN000019500000019500FN00000000020220601000019500NNM   20220322121225    1P0P  00001950000000618200000903432P8    YIYTM   006400630015
BI00B32P8    TAPI-2062      202205117116-1301                TERMINAL                 CCN000015000000015000FN00000000020220601000015000NNM   20220322121225    4P0P  00001500000000487500000772732P8    YIYTM   006400630015
BI00B32P8    TAPI-2062      202205117116-1486-02             TERMINAL                 CCN000132000000132000FN00000000020220601000132000NNM   20220322121225    4P0P  00001650000000655100000940332P8    YIYTM   006400630015
BI00B32P8    TAPI-2063      202205187116-1486-02             TERMINAL                 CCN000148500000148500FN00000000020220601000148500NNM   20220322121225    4P0P  00001650000000655100000940332P8    YIYTM   006400630015
BI00B32P8    TAPI-2064      202205257116-1486-02             TERMINAL                 CCN000132000000132000FN00000000020220601000132000NNM   20220322121225    4P0P  00001650000000655100000940332P8    YIYTM   006400630015
BI00B32P8    TAPI-2062      202205117116-1685-02             TERMINAL                 CCN000024000000024000FN00000000020220601000024000NNM   20220322121225    4P0P  00002400000000897600001065232P8    YIYTM   005100280028
BI00B32P8    TAPI-2063      202205187116-1685-02             TERMINAL                 CCN000024000000024000FN00000000020220601000024000NNM   20220322121225    4P0P  00002400000000897600001065232P8    YIYTM   005100280028
BI00B32P8    TAPI-2064      202205257116-1685-02             TERMINAL                 CCN000048000000048000FN00000000020220601000048000NNM   20220322121225    4P0P  00002400000000897600001065232P8    YIYTM   005100280028
BI00B32P8    TAPI-2064      202205257116-1687-02             TERMINAL FEMALE          CCN000024000000024000FN00000000020220601000024000NNM   20220322121225    4P0P  00002400000000303200000909632P8    YIYTM   005100280028
BI00B32P8    TAPI-2064      202205257116-2640                TERMINAL                 CCN000054000000054000FN00000000020220601000054000NNM   20220322121225    4P0P  00001800000001018800001196632P8    YIYTM   005100280028
BI00B32P8    TAPI-2064      202205257116-2870                TERMINAL                 CCN000012000000012000FN00000000020220601000012000NNM   20220322121225    1P0P  00001200000000783600001020232P8    YIYTM   005100280028
BI00B32P8    TAPI-2063      202205187116-2871                TERMINAL                 CCN000012000000012000FN00000000020220601000012000NNM   20220322121225    1P0P  00001200000000842400001072632P8    YIYTM   005100280028
BI00B32P8    TAPI-2064      202205257116-2871                TERMINAL                 CCN000012000000012000FN00000000020220601000012000NNM   20220322121225    1P0P  00001200000000842400001072632P8    YIYTM   005100280028
BI00B32P8    TAPI-2062      202205117116-2891-02             TERMINAL                 CCN000015000000015000FN00000000020220601000015000NNM   20220322121225    4P0P  00001500000000982500001145932P8    YIYTM   005100280028
BI00B32P8    TAPI-2063      202205187116-2891-02             TERMINAL                 CCN000030000000030000FN00000000020220601000030000NNM   20220322121225    4P0P  00001500000000982500001145932P8    YIYTM   005100280028
BI00B32P8    TAPI-2064      202205257116-2891-02             TERMINAL                 CCN000015000000015000FN00000000020220601000015000NNM   20220322121225    4P0P  00001500000000982500001145932P8    YIYTM   005100280028
BI00B32P8    TAPI-2064      202205257116-2892-02             TERMINAL                 CCN000012000000012000FN00000000020220601000012000NNM   20220322121225    4P0P  00001200000000818400000981832P8    YIYTM   005100280028
BI00B32P8    TAPI-2062      202205117116-2893-02             TERMINAL                 CCN000012000000012000FN00000000020220601000012000NNM   20220322121225    4P0P  00001200000000895200001058632P8    YIYTM   005100280028
BI00B32P8    TAPI-2063      202205187116-2893-02             TERMINAL                 CCN000012000000012000FN00000000020220601000012000NNM   20220322121225    4P0P  00001200000000895200001058632P8    YIYTM   005100280028
BI00B32P8    TAPI-2064      202205257116-2893-02             TERMINAL                 CCN000012000000012000FN00000000020220601000012000NNM   20220322121225    4P0P  00001200000000895200001058632P8    YIYTM   005100280028
BI00B32P8    TAPI-2061      202205047116-2951                TERMINAL                 CCN000005400000005400FN00000000020220601000005400NNM   20220322121225    4P0P  00000540000000815900001110132P8    YIYTM   006400630015
BI00B32P8    TAPI-2062      202205117116-2951                TERMINAL                 CCN000005400000005400FN00000000020220601000005400NNM   20220322121225    4P0P  00000540000000815900001110132P8    YIYTM   006400630015
BI00B32P8    TAPI-2063      202205187116-2951                TERMINAL                 CCN000005400000005400FN00000000020220601000005400NNM   20220322121225    4P0P  00000540000000815900001110132P8    YIYTM   006400630015
BI00B32P8    TAPI-2064      202205257116-2951                TERMINAL                 CCN000005400000005400FN00000000020220601000005400NNM   20220322121225    4P0P  00000540000000815900001110132P8    YIYTM   006400630015
BI00B32P8    TAPI-2061      202205047116-2951-02             TERMINAL                 CCN000016200000016200FN00000000020220601000016200NNM   20220322121225    4P0P  00000540000000817600001111832P8    YIYTM   006400630015
BI00B32P8    TAPI-2062      202205117116-2951-02             TERMINAL                 CCN000016200000016200FN00000000020220601000016200NNM   20220322121225    4P0P  00000540000000817600001111832P8    YIYTM   006400630015
BI00B32P8    TAPI-2063      202205187116-2951-02             TERMINAL                 CCN000010800000010800FN00000000020220601000010800NNM   20220322121225    4P0P  00000540000000817600001111832P8    YIYTM   006400630015
BI00B32P8    TAPI-2064      202205257116-2951-02             TERMINAL                 CCN000010800000010800FN00000000020220601000010800NNM   20220322121225    4P0P  00000540000000817600001111832P8    YIYTM   006400630015
BI00B32P8    TAPI-2064      202205257116-3153-08             TERMINAL                 CCN000027000000027000FN00000000020220601000027000NNM   20220322121225    4P0P  00002700000000461700000746932P8    YIYTM   006400630015
BI00B32P8    TAPI-2064      202205257116-4022                TERMINAL                 CCN000013500000013500FN00000000020220601000013500NNM   20220322121225    4P0P  00001350000000618300000903532P8    YIYTM   006400630015
BI00B32P8    TAPI-2064      202205257116-4025                TERMINAL                 CCN000096000000096000FN00000000020220601000096000NNM   20220322121225    4P0P  00001600000000644800000975132P8    YIYTM   006400630017
BI00B32P8    TAPI-2063      202205187116-4026                TERMINAL                 CCN000016000000016000FN00000000020220601000016000NNM   20220322121225    4P0P  00001600000000664000000994332P8    YIYTM   006400630017
BI00B32P8    TAPI-2064      202205257116-4026                TERMINAL                 CCN000048000000048000FN00000000020220601000048000NNM   20220322121225    4P0P  00001600000000664000000994332P8    YIYTM   006400630017
BI00B32P8    TAPI-2064      202205257116-4031                TERMINAL                 CCN000007500000007500FN00000000020220601000007500NNM   20220322121225    4P0P  00000750000000619500000904732P8    YIYTM   006400630015
BI00B32P8    TAPI-2063      202205187116-4032                TERMINAL                 CCN000012000000012000FN00000000020220601000012000NNM   20220322121225    4P0P  00000600000000532800000818032P8    YIYTM   006400630015
BI00B32P8    TAPI-2064      202205257116-4032                TERMINAL                 CCN000018000000018000FN00000000020220601000018000NNM   20220322121225    4P0P  00000600000000532800000818032P8    YIYTM   006400630015
BI00B32P8    TAPI-2062      202205117116-4037                TERMINAL                 CCN000024000000024000FN00000000020220601000024000NNM   20220322121225    4P0P  00000600000000600000000894232P8    YIYTM   006400630015
BI00B32P8    TAPI-2063      202205187116-4037                TERMINAL                 CCN000024000000024000FN00000000020220601000024000NNM   20220322121225    4P0P  00000600000000600000000894232P8    YIYTM   006400630015
BI00B32P8    TAPI-2064      202205257116-4037                TERMINAL                 CCN000024000000024000FN00000000020220601000024000NNM   20220322121225    4P0P  00000600000000600000000894232P8    YIYTM   006400630015
BI00B32P8    TAPI-2061      202205047116-4100-02             TERMINAL                 CCN000060000000060000FN00000000020220601000060000NNM   20220322121225    4P0P  00001500000000696000000990232P8    YIYTM   006400630015
BI00B32P8    TAPI-2062      202205117116-4100-02             TERMINAL                 CCN000045000000045000FN00000000020220601000045000NNM   20220322121225    4P0P  00001500000000696000000990232P8    YIYTM   006400630015
BI00B32P8    TAPI-2063      202205187116-4100-02             TERMINAL                 CCN000045000000045000FN00000000020220601000045000NNM   20220322121225    4P0P  00001500000000696000000990232P8    YIYTM   006400630015
BI00B32P8    TAPI-2064      202205257116-4100-02             TERMINAL                 CCN000045000000045000FN00000000020220601000045000NNM   20220322121225    4P0P  00001500000000696000000990232P8    YIYTM   006400630015
BI00B32P8    TAPI-2062      202205117116-4101-02             TERMINAL                 CCN000012000000012000FN00000000020220601000012000NNM   20220322121225    4P0P  00001200000000582000000876232P8    YIYTM   006400630015
BI00B32P8    TAPI-2064      202205257116-4101-02             TERMINAL                 CCN000012000000012000FN00000000020220601000012000NNM   20220322121225    4P0P  00001200000000582000000876232P8    YIYTM   006400630015
BI00B32P8    TAPI-2061      202205047116-4110-02             TERMINAL                 CCN000045000000045000FN00000000020220601000045000NNM   20220322121225    4P0P  00000900000000594000000882232P8    YIYTM   006400630015
BI00B32P8    TAPI-2062      202205117116-4110-02             TERMINAL                 CCN000027000000027000FN00000000020220601000027000NNM   20220322121225    4P0P  00000900000000594000000882232P8    YIYTM   006400630015
BI00B32P8    TAPI-2063      202205187116-4110-02             TERMINAL                 CCN000027000000027000FN00000000020220601000027000NNM   20220322121225    4P0P  00000900000000594000000882232P8    YIYTM   006400630015
BI00B32P8    TAPI-2064      202205257116-4110-02             TERMINAL                 CCN000036000000036000FN00000000020220601000036000NNM   20220322121225    4P0P  00000900000000594000000882232P8    YIYTM   006400630015
BI00B32P8    TAPI-2062      202205117116-4111-02             TERMINAL                 CCN000015000000015000FN00000000020220601000015000NNM   20220322121225    4P0P  00000750000000529500000817732P8    YIYTM   006400630015
BI00B32P8    TAPI-2063      202205187116-4111-02             TERMINAL                 CCN000015000000015000FN00000000020220601000015000NNM   20220322121225    4P0P  00000750000000529500000817732P8    YIYTM   006400630015
BI00B32P8    TAPI-2064      202205257116-4111-02             TERMINAL                 CCN000022500000022500FN00000000020220601000022500NNM   20220322121225    4P0P  00000750000000529500000817732P8    YIYTM   006400630015
BI00B32P8    TAPI-2061      202205047116-4112-02             TERMINAL                 CCN000024000000024000FN00000000020220601000024000NNM   20220322121225    4P0P  00000600000000450000000738232P8    YIYTM   006400630015
BI00B32P8    TAPI-2062      202205117116-4112-02             TERMINAL                 CCN000096000000096000FN00000000020220601000096000NNM   20220322121225    4P0P  00000600000000450000000738232P8    YIYTM   006400630015
BI00B32P8    TAPI-2063      202205187116-4112-02             TERMINAL                 CCN000090000000090000FN00000000020220601000090000NNM   20220322121225    4P0P  00000600000000450000000738232P8    YIYTM   006400630015
BI00B32P8    TAPI-2064      202205257116-4112-02             TERMINAL                 CCN000090000000090000FN00000000020220601000090000NNM   20220322121225    4P0P  00000600000000450000000738232P8    YIYTM   006400630015
BI00B32P8    TAPI-2062      202205117116-4116-02             TERMINAL                 CCN000006900000006900FN00000000020220601000006900NNM   20220322121225    4P0P  00000690000000517500000805732P8    YIYTM   006400630015
BI00B32P8    TAPI-2063      202205187116-4116-02             TERMINAL                 CCN000013800000013800FN00000000020220601000013800NNM   20220322121225    4P0P  00000690000000517500000805732P8    YIYTM   006400630015
BI00B32P8    TAPI-2064      202205257116-4116-02             TERMINAL                 CCN000006900000006900FN00000000020220601000006900NNM   20220322121225    4P0P  00000690000000517500000805732P8    YIYTM   006400630015
BI00B32P8    TAPI-2063      202205187116-4120-02             TERMINAL                 CCN000024000000024000FN00000000020220601000024000NNM   20220322121225    4P0P  00000600000000780000001073632P8    YIYTM   006400630015
BI00B32P8    TAPI-2064      202205257116-4120-02             TERMINAL                 CCN000030000000030000FN00000000020220601000030000NNM   20220322121225    4P0P  00000600000000780000001073632P8    YIYTM   006400630015
BI00B32P8    TAPI-2062      202205117116-4121-02             TERMINAL                 CCN000004500000004500FN00000000020220601000004500NNM   20220322121225    4P0P  00000450000000618800000912432P8    YIYTM   006400630015
BI00B32P8    TAPI-2063      202205187116-4121-02             TERMINAL                 CCN000067500000067500FN00000000020220601000067500NNM   20220322121225    4P0P  00000450000000618800000912432P8    YIYTM   006400630015
BI00B32P8    TAPI-2064      202205257116-4121-02             TERMINAL                 CCN000072000000072000FN00000000020220601000072000NNM   20220322121225    4P0P  00000450000000618800000912432P8    YIYTM   006400630015
BI00B32P8    TAPI-2062      202205117116-4122-02             TERMINAL                 CCN000135000000135000FN00000000020220601000135000NNM   20220322121225    4P0P  00000450000000656600000950232P8    YIYTM   006400630015
BI00B32P8    TAPI-2063      202205187116-4122-02             TERMINAL                 CCN000148500000148500FN00000000020220601000148500NNM   20220322121225    4P0P  00000450000000656600000950232P8    YIYTM   006400630015
BI00B32P8    TAPI-2064      202205257116-4122-02             TERMINAL                 CCN000148500000148500FN00000000020220601000148500NNM   20220322121225    4P0P  00000450000000656600000950232P8    YIYTM   006400630015
BI00B32P8    TAPI-2062      202205117116-4231-02             TERMINAL                 CCN000130000000130000FN00000000020220601000130000NNM   20220322121225    4P0P  00002600000000683800001012532P8    YIYTM   006400630017
BI00B32P8    TAPI-2063      202205187116-4231-02             TERMINAL                 CCN000286000000286000FN00000000020220601000286000NNM   20220322121225    4P0P  00002600000000683800001012532P8    YIYTM   006400630017
BI00B32P8    TAPI-2064      202205257116-4231-02             TERMINAL                 CCN000260000000260000FN00000000020220601000260000NNM   20220322121225    4P0P  00002600000000683800001012532P8    YIYTM   006400630017
BI00B32P8    TAPI-2063      202205187116-4415-02             TERMINAL                 CCN000152000000152000FN00000000020220601000152000NNM   20220322121225    4P0P  00003800000000596600000925732P8    YIYTM   006400630017
BI00B32P8    TAPI-2064      202205257116-4415-02             TERMINAL                 CCN000190000000190000FN00000000020220601000190000NNM   20220322121225    4P0P  00003800000000596600000925732P8    YIYTM   006400630017
BI00B32P8    TAPI-2064      202205257116-4416-02             TERMINAL                 CCN000160000000160000FN00000000020220601000160000NNM   20220322121225    4P0P  00003200000000518400000847132P8    YIYTM   006400630017
BI00B32P8    TAPI-2062      202205117116-4486-02             TERMINAL                 CCN000028000000028000FN00000000020220601000028000NNM   20220322121225    4P0P  00002800000000666400000995132P8    YIYTM   006400630017
BI00B32P8    TAPI-2062      202205117116-4780-02             TERMINAL FEMALE          CCN000195000000195000FN00000000020220601000195000NNM   20220322121225    4P0P  00001500000000691500000985732P8    YIYTM   006400630015
BI00B32P8    TAPI-2063      202205187116-4780-02             TERMINAL FEMALE          CCN000195000000195000FN00000000020220601000195000NNM   20220322121225    4P0P  00001500000000691500000985732P8    YIYTM   006400630015
BI00B32P8    TAPI-2064      202205257116-4780-02             TERMINAL FEMALE          CCN000195000000195000FN00000000020220601000195000NNM   20220322121225    4P0P  00001500000000691500000985732P8    YIYTM   006400630015
BI00B32P8    TAPI-2061      202205047116-5035-02             TERMINAL                 CCN000015000000015000FN00000000020220601000015000NNM   20220322121225    4P0P  00001500000000543000000828232P8    YIYTM   006400630015
BI00B32P8    TAPI-2064      202205257116-5035-02             TERMINAL                 CCN000015000000015000FN00000000020220601000015000NNM   20220322121225    4P0P  00001500000000543000000828232P8    YIYTM   006400630015
BI00B32P8    TAPI-2061      202205047116-5041-02             TERMINAL                 CCN000015000000015000FN00000000020220601000015000NNM   20220322121225    4P0P  00001500000000583500000868732P8    YIYTM   006400630015
BI00B32P8    TAPI-2062      202205117116-5041-02             TERMINAL                 CCN000015000000015000FN00000000020220601000015000NNM   20220322121225    4P0P  00001500000000583500000868732P8    YIYTM   006400630015
BI00B32P8    TAPI-2063      202205187116-5041-02             TERMINAL                 CCN000015000000015000FN00000000020220601000015000NNM   20220322121225    4P0P  00001500000000583500000868732P8    YIYTM   006400630015
BI00B32P8    TAPI-2064      202205257116-5041-02             TERMINAL                 CCN000015000000015000FN00000000020220601000015000NNM   20220322121225    4P0P  00001500000000583500000868732P8    YIYTM   006400630015
BI00B32P8    TAPI-2061      202205047116-5042-02             TERMINAL                 CCN000054000000054000FN00000000020220601000054000NNM   20220322121225    4P0P  00001350000000560300000845532P8    YIYTM   006400630015
BI00B32P8    TAPI-2062      202205117116-5042-02             TERMINAL                 CCN000040500000040500FN00000000020220601000040500NNM   20220322121225    4P0P  00001350000000560300000845532P8    YIYTM   006400630015
BI00B32P8    TAPI-2063      202205187116-5042-02             TERMINAL                 CCN000040500000040500FN00000000020220601000040500NNM   20220322121225    4P0P  00001350000000560300000845532P8    YIYTM   006400630015
BI00B32P8    TAPI-2064      202205257116-5042-02             TERMINAL                 CCN000027000000027000FN00000000020220601000027000NNM   20220322121225    4P0P  00001350000000560300000845532P8    YIYTM   006400630015
BI00B32P8    TAPI-2062      202205117116-5043-02             TERMINAL FEMALE          CCN000036000000036000FN00000000020220601000036000NNM   20220322121225    4P0P  00001200000000559200000844432P8    YIYTM   006400630015
BI00B32P8    TAPI-2063      202205187116-5043-02             TERMINAL FEMALE          CCN000036000000036000FN00000000020220601000036000NNM   20220322121225    4P0P  00001200000000559200000844432P8    YIYTM   006400630015
BI00B32P8    TAPI-2064      202205257116-5043-02             TERMINAL FEMALE          CCN000036000000036000FN00000000020220601000036000NNM   20220322121225    4P0P  00001200000000559200000844432P8    YIYTM   006400630015
BI00B32P8    TAPI-2064      202205257116-5044-02             TERMINAL                 CCN000096000000096000FN00000000020220601000096000NNM   20220322121225    4P0P  00001600000000641600000986332P8    YIYTM   006400630017
BI00B32P8    TAPI-2064      202205257116-5045-02             TERMINAL                 CCN000032000000032000FN00000000020220601000032000NNM   20220322121225    4P0P  00001600000000678400001007132P8    YIYTM   006400630017
BI00B32P8    TAPI-2061      202205047116-5046-02             TERMINAL                 CCN000024000000024000FN00000000020220601000024000NNM   20220322121225    4P0P  00001200000000544800000873532P8    YIYTM   006400630017
BI00B32P8    TAPI-2062      202205117116-5046-02             TERMINAL                 CCN000072000000072000FN00000000020220601000072000NNM   20220322121225    4P0P  00001200000000544800000873532P8    YIYTM   006400630017
BI00B32P8    TAPI-2063      202205187116-5046-02             TERMINAL                 CCN000072000000072000FN00000000020220601000072000NNM   20220322121225    4P0P  00001200000000544800000873532P8    YIYTM   006400630017
BI00B32P8    TAPI-2064      202205257116-5046-02             TERMINAL                 CCN000060000000060000FN00000000020220601000060000NNM   20220322121225    4P0P  00001200000000544800000873532P8    YIYTM   006400630017
BI00B32P8    TAPI-2063      202205187116-5750-02             TERMINAL                 CCN000030000000030000FN00000000020220601000030000NNM   20220322121225    4P0P  00001500000000457500000742732P8    YIYTM   006400630015
BI00B32P8    TAPI-2064      202205257116-5750-02             TERMINAL                 CCN000045000000045000FN00000000020220601000045000NNM   20220322121225    4P0P  00001500000000457500000742732P8    YIYTM   006400630015
BI00B32P8    TAPI-2061      202205047116-5751-02             TERMINAL                 CCN000012000000012000FN00000000020220601000012000NNM   20220322121225    4P0P  00001200000000379200000664432P8    YIYTM   006400630015
BI00B32P8    TAPI-2062      202205117116-5751-02             TERMINAL                 CCN000036000000036000FN00000000020220601000036000NNM   20220322121225    4P0P  00001200000000379200000664432P8    YIYTM   006400630015
BI00B32P8    TAPI-2063      202205187116-5751-02             TERMINAL                 CCN000024000000024000FN00000000020220601000024000NNM   20220322121225    4P0P  00001200000000379200000664432P8    YIYTM   006400630015
BI00B32P8    TAPI-2064      202205257116-5751-02             TERMINAL                 CCN000024000000024000FN00000000020220601000024000NNM   20220322121225    4P0P  00001200000000379200000664432P8    YIYTM   006400630015
BI00B32P8    TAPI-2062      202205117116-6041                TERMINAL                 CCN000004500000004500FN00000000020220601000004500NNM   20220322121225    4P0P  00000450000000716000001009632P8    YIYTM   006400630015
BI00B32P8    TAPI-2063      202205187116-6041                TERMINAL                 CCN000004500000004500FN00000000020220601000004500NNM   20220322121225    4P0P  00000450000000716000001009632P8    YIYTM   006400630015
BI00B32P8    TAPI-2064      202205257116-6041                TERMINAL                 CCN000009000000009000FN00000000020220601000009000NNM   20220322121225    4P0P  00000450000000716000001009632P8    YIYTM   006400630015
BI00B32P8    TAPI-2063      202205187116-6042                TERMINAL                 CCN000003000000003000FN00000000020220601000003000NNM   20220322121225    4P0P  00000300000000523800000856132P8    YIYTM   006400630015
BI00B32P8    TAPI-2064      202205257116-6042                TERMINAL                 CCN000003000000003000FN00000000020220601000003000NNM   20220322121225    4P0P  00000300000000523800000856132P8    YIYTM   006400630015
BI00B32P8    TAPI-2061      202205047126-8826-02             TERMINAL                 CCN000027000000027000FN00000000020220601000027000NNM   20220322121225    1P0P  00000900000000788400001073632P8    YIYTM   006400630015
BI00B32P8    TAPI-2062      202205117126-8826-02             TERMINAL                 CCN000045000000045000FN00000000020220601000045000NNM   20220322121225    1P0P  00000900000000788400001073632P8    YIYTM   006400630015
BI00B32P8    TAPI-2063      202205187126-8826-02             TERMINAL                 CCN000045000000045000FN00000000020220601000045000NNM   20220322121225    1P0P  00000900000000788400001073632P8    YIYTM   006400630015
BI00B32P8    TAPI-2064      202205257126-8826-02             TERMINAL                 CCN000036000000036000FN00000000020220601000036000NNM   20220322121225    1P0P  00000900000000788400001073632P8    YIYTM   006400630015
BI00B32P8    TAPI-2061      202205047126-8850-02             TERMINAL                 CCN000009000000009000FN00000000020220601000009000NNM   20220322121225    1P0P  00000900000000672300000957532P8    YIYTM   006400630015
BI00B32P8    TAPI-2062      202205117126-8850-02             TERMINAL                 CCN000009000000009000FN00000000020220601000009000NNM   20220322121225    1P0P  00000900000000672300000957532P8    YIYTM   006400630015
BI00B32P8    TAPI-2063      202205187126-8850-02             TERMINAL                 CCN000009000000009000FN00000000020220601000009000NNM   20220322121225    1P0P  00000900000000672300000957532P8    YIYTM   006400630015
BI00B32P8    TAPI-2064      202205257126-8850-02             TERMINAL                 CCN000009000000009000FN00000000020220601000009000NNM   20220322121225    1P0P  00000900000000672300000957532P8    YIYTM   006400630015
BI00B32P8    TAPI-2061      202205047126-8851-02             TERMINAL                 CCN000018000000018000FN00000000020220601000018000NNM   20220322121225    1P0P  00000900000000739800001025032P8    YIYTM   006400630015
BI00B32P8    TAPI-2062      202205117126-8851-02             TERMINAL                 CCN000009000000009000FN00000000020220601000009000NNM   20220322121225    1P0P  00000900000000739800001025032P8    YIYTM   006400630015
BI00B32P8    TAPI-2063      202205187126-8851-02             TERMINAL                 CCN000009000000009000FN00000000020220601000009000NNM   20220322121225    1P0P  00000900000000739800001025032P8    YIYTM   006400630015
BI00B32P8    TAPI-2064      202205257126-8851-02             TERMINAL                 CCN000009000000009000FN00000000020220601000009000NNM   20220322121225    1P0P  00000900000000739800001025032P8    YIYTM   006400630015
BI00B32P8    TAPI-2062      202205117126-8852-02             TERMINAL                 CCN000007500000007500FN00000000020220601000007500NNM   20220322121225    1P0P  00000750000000648000000933232P8    YIYTM   006400630015
BI00B32P8    TAPI-2064      202205257126-8852-02             TERMINAL                 CCN000007500000007500FN00000000020220601000007500NNM   20220322121225    1P0P  00000750000000648000000933232P8    YIYTM   006400630015
BI00B32P8    TAPI-2061      202205047126-8853-02             TERMINAL                 CCN000052500000052500FN00000000020220601000052500NNM   20220322121225    4P0P  00000750000000562500000847732P8    YIYTM   006400630015
BI00B32P8    TAPI-2062      202205117126-8853-02             TERMINAL                 CCN000045000000045000FN00000000020220601000045000NNM   20220322121225    4P0P  00000750000000562500000847732P8    YIYTM   006400630015
BI00B32P8    TAPI-2063      202205187126-8853-02             TERMINAL                 CCN000052500000052500FN00000000020220601000052500NNM   20220322121225    4P0P  00000750000000562500000847732P8    YIYTM   006400630015
BI00B32P8    TAPI-2064      202205257126-8853-02             TERMINAL                 CCN000045000000045000FN00000000020220601000045000NNM   20220322121225    4P0P  00000750000000562500000847732P8    YIYTM   006400630015
BI00B32P8    TAPI-2061      202205047126-8854-02             TERMINAL                 CCN000015000000015000FN00000000020220601000015000NNM   20220322121225    4P0P  00000750000000604500000889732P8    YIYTM   006400630015
BI00B32P8    TAPI-2062      202205117126-8854-02             TERMINAL                 CCN000045000000045000FN00000000020220601000045000NNM   20220322121225    4P0P  00000750000000604500000889732P8    YIYTM   006400630015
BI00B32P8    TAPI-2063      202205187126-8854-02             TERMINAL                 CCN000045000000045000FN00000000020220601000045000NNM   20220322121225    4P0P  00000750000000604500000889732P8    YIYTM   006400630015
BI00B32P8    TAPI-2064      202205257126-8854-02             TERMINAL                 CCN000045000000045000FN00000000020220601000045000NNM   20220322121225    4P0P  00000750000000604500000889732P8    YIYTM   006400630015
BI00B32P8    TAPI-2064      202205257126-8855-02             TERMINAL                 CCN000006000000006000FN00000000020220601000006000NNM   20220322121225    4P0P  00000600000000510600000795832P8    YIYTM   006400630015
BI00B32P8    TAPI-2061      202205047195-1463-02             TERMINAL MALE            CCN000028500000028500FN00000000020220601000028500NNM   20220322121225    4P0P  00002850000000456000000741232P8    YIYTM   006400630015
BI00B32P8    TAPI-2063      202205187195-1463-02             TERMINAL MALE            CCN000028500000028500FN00000000020220601000028500NNM   20220322121225    4P0P  00002850000000456000000741232P8    YIYTM   006400630015
BI00B32P8    TAPI-2063      202205187195-1464-02             TERMINAL MALE            CCN000025500000025500FN00000000020220601000025500NNM   20220322121225    4P0P  00002550000000420800000706032P8    YIYTM   006400630015
BI00B32P8    TAPI-2064      202205257195-1464-02             TERMINAL MALE            CCN000025500000025500FN00000000020220601000025500NNM   20220322121225    4P0P  00002550000000420800000706032P8    YIYTM   006400630015
BI00B32P8    TAPI-2064      202205257195-1465-02             TERMINAL MALE            CCN000021000000021000FN00000000020220601000021000NNM   20220322121225    4P0P  00002100000000359100000644332P8    YIYTM   006400630015
BI00B32P8    TAPI-2063      202205187196-0648-02             TERMINAL                 CCN000015000000015000FN00000000020220601000015000NNM   20220322121225    4P0P  00001500000000355500000689732P8    YIYTM   006400630015
BI00B32P8    TAPI-2062      202205117196-1102-02             TERMINAL                 CCN000022500000022500FN00000000020220601000022500NNM   20220322121225    4P0P  00002250000000405000000690232P8    YIYTM   006400630015
BI00B32P8    TAPI-2063      202205187196-1102-02             TERMINAL                 CCN000022500000022500FN00000000020220601000022500NNM   20220322121225    4P0P  00002250000000405000000690232P8    YIYTM   006400630015
BI00B32P8    TAPI-2064      202205257196-1102-02             TERMINAL                 CCN000045000000045000FN00000000020220601000045000NNM   20220322121225    4P0P  00002250000000405000000690232P8    YIYTM   006400630015
BI00B32P8    TAPI-2061      202205047196-1460-02             TERMINAL FEMALE          CCN000057000000057000FN00000000020220601000057000NNM   20220322121225    4P0P  00002850000000444600000729832P8    YIYTM   006400630015
BI00B32P8    TAPI-2062      202205117196-1460-02             TERMINAL FEMALE          CCN000171000000171000FN00000000020220601000171000NNM   20220322121225    4P0P  00002850000000444600000729832P8    YIYTM   006400630015
BI00B32P8    TAPI-2063      202205187196-1460-02             TERMINAL FEMALE          CCN000171000000171000FN00000000020220601000171000NNM   20220322121225    4P0P  00002850000000444600000729832P8    YIYTM   006400630015
BI00B32P8    TAPI-2064      202205257196-1460-02             TERMINAL FEMALE          CCN000199500000199500FN00000000020220601000199500NNM   20220322121225    4P0P  00002850000000444600000729832P8    YIYTM   006400630015
BI00B32P8    TAPI-2063      202205187196-1461-02             TERMINAL FEMALE          CCN000144000000144000FN00000000020220601000144000NNM   20220322121225    4P0P  00002400000000386400000671632P8    YIYTM   006400630015
BI00B32P8    TAPI-2064      202205257196-1461-02             TERMINAL FEMALE          CCN000144000000144000FN00000000020220601000144000NNM   20220322121225    4P0P  00002400000000386400000671632P8    YIYTM   006400630015
BI00B32P8    TAPI-2064      202205257196-1604-02             TERMINAL                 CCN000015000000015000FN00000000020220601000015000NNM   20220322121225    4P0P  00001500000000337500000622732P8    YIYTM   006400630015
BI00B32P8    TAPI-2061      202205047273-2982-0W             CASSETTE BRACKET         CCN000000600000000600FN00000000020220601000000600NNM   20220322121225    4N0N  00000060000000526000000726032P8    YIYTM   005500360039
BI00B32P8    TAPI-2062      202205117273-2982-0W             CASSETTE BRACKET         CCN000000600000000600FN00000000020220601000000600NNM   20220322121225    4N0N  00000060000000526000000726032P8    YIYTM   005500360039
BI00B32P8    TAPI-2063      202205187273-2982-0W             CASSETTE BRACKET         CCN000000600000000600FN00000000020220601000000600NNM   20220322121225    4N0N  00000060000000526000000726032P8    YIYTM   005500360039
BI00B32P8    TAPI-2064      202205257273-2982-0W             CASSETTE BRACKET         CCN000000600000000600FN00000000020220601000000600NNM   20220322121225    4N0N  00000060000000526000000726032P8    YIYTM   005500360039
BI00B32P8    TAPI-2063      202205187183-7665-30             HOUSING                  CCN000004800000004800FN00000000020220601000004800NNM   20220322121225    1F0F  00000120000001103300001247832P8    YIYTM   005500360039
BI00B32P8    TAPI-2062      202205117222-4220-30             CONNECTOR                CCN000000750000000750FN00000000020220601000000750NNM   20220322121225    4N0N  00000075000001219000001384032P8    YIYTM   005600390040
BI00B32P8    TAPI-2064      202205257222-4220-30             CONNECTOR                CCN000000750000000750FN00000000020220601000000750NNM   20220322121225    4N0N  00000075000001219000001384032P8    YIYTM   005600390040
BI00B32P8    TAPI-2062      202205117282-1305                CONNECTOR                CCN000001400000001400FN00000000020220601000001400NNM   20220322121225    4N0N  00000140000001274000001453332P8    YIYTM   005500360039
BI00B32P8    TAPI-2064      202205257282-1305                CONNECTOR                CCN000001400000001400FN00000000020220601000001400NNM   20220322121225    4N0N  00000140000001274000001453332P8    YIYTM   005500360039
BI00B32P8    TAPI-2062      202205117282-4577                HOUSING MALE ASS'Y       CCN000002400000002400FN00000000020220601000002400NNM   20220322121225    4N0N  00000240000000964800001174832P8    YIYTM   005500360039
BI00B32P8    TAPI-2064      202205257282-4577                HOUSING MALE ASS'Y       CCN000002400000002400FN00000000020220601000002400NNM   20220322121225    4N0N  00000240000000964800001174832P8    YIYTM   005500360039
BI00B32P8    TAPI-2062      202205117282-6568-40             CONNECTOR                CCN000002000000002000FN00000000020220601000002000NNM   20220322121225    4N0N  00000100000001206000001370732P8    YIYTM   005500360039
BI00B32P8    TAPI-2063      202205187282-6568-40             CONNECTOR                CCN000003000000003000FN00000000020220601000003000NNM   20220322121225    4N0N  00000100000001206000001370732P8    YIYTM   005500360039
BI00B32P8    TAPI-2064      202205257282-6568-40             CONNECTOR                CCN000003000000003000FN00000000020220601000003000NNM   20220322121225    4N0N  00000100000001206000001370732P8    YIYTM   005500360039
BI00B32P8    TAPI-2061      202205047282-9391                HOUSING MALE ASS'Y       CCN000002400000002400FN00000000020220601000002400NNM   20220322121225    4N0N  00000120000001017600001237632P8    YIYTM   005500360039
BI00B32P8    TAPI-2062      202205117282-9391                HOUSING MALE ASS'Y       CCN000001200000001200FN00000000020220601000001200NNM   20220322121225    4N0N  00000120000001017600001237632P8    YIYTM   005500360039
BI00B32P8    TAPI-2063      202205187282-9391                HOUSING MALE ASS'Y       CCN000001200000001200FN00000000020220601000001200NNM   20220322121225    4N0N  00000120000001017600001237632P8    YIYTM   005500360039
BI00B32P8    TAPI-2064      202205257282-9391                HOUSING MALE ASS'Y       CCN000002400000002400FN00000000020220601000002400NNM   20220322121225    4N0N  00000120000001017600001237632P8    YIYTM   005500360039
BI00B32P8    TAPI-2061      202205047283-1020                CONNECTOR                CCN000006000000006000FN00000000020220601000006000NNM   20220322121225    4N0N  00000600000000840000001049332P8    YIYTM   005600390040
BI00B32P8    TAPI-2062      202205117283-1057-30             CONNECTOR HOUSING        CCN000000960000000960FN00000000020220601000000960NNM   20220322121225    4N0N  00000096000000925400001075432P8    YIYTM   005500360039
BI00B32P8    TAPI-2063      202205187283-1114-30             CONNECTOR                CCN000002000000002000FN00000000020220601000002000NNM   20220322121225    4N0N  00000200000000624000000973332P8    YIYTM   005600390040
BI00B32P8    TAPI-2063      202205187283-1144                CONNECTOR                CCN000002400000002400FN00000000020220601000002400NNM   20220322121225    4N0N  00000240000000602200000866132P8    YIYTM   005500360039
BI00B32P8    TAPI-2063      202205187283-1156                CONNECTOR                CCN000000800000000800FN00000000020220601000000800NNM   20220322121225    4N0N  00000080000000877600001078032P8    YIYTM   005600390040
BI00B32P8    TAPI-2061      202205047283-1927-30             CONNECTOR                CCN000004000000004000FN00000000020220601000004000NNM   20220322121225    4N0N  00000200000001190000001368032P8    YIYTM   005500360039
BI00B32P8    TAPI-2063      202205187283-1927-30             CONNECTOR                CCN000002000000002000FN00000000020220601000002000NNM   20220322121225    4N0N  00000200000001190000001368032P8    YIYTM   005500360039
BI00B32P8    TAPI-2061      202205047283-1968-30             CONNECTOR                CCN000001800000001800FN00000000020220601000001800NNM   20220322121225    1N0N  00000090000001140000001318332P8    YIYTM   005600390040
BI00B32P8    TAPI-2062      202205117283-1968-30             CONNECTOR                CCN000001800000001800FN00000000020220601000001800NNM   20220322121225    1N0N  00000090000001140000001318332P8    YIYTM   005600390040
BI00B32P8    TAPI-2063      202205187283-1968-30             CONNECTOR                CCN000002700000002700FN00000000020220601000002700NNM   20220322121225    1N0N  00000090000001140000001318332P8    YIYTM   005600390040
BI00B32P8    TAPI-2064      202205257283-1968-30             CONNECTOR                CCN000002700000002700FN00000000020220601000002700NNM   20220322121225    1N0N  00000090000001140000001318332P8    YIYTM   005600390040
BI00B32P8    TAPI-2062      202205117283-4577                CONNECTOR HOUSING        CCN000004800000004800FN00000000020220601000004800NNM   20220322121225    4N0N  00000480000000916800001136832P8    YIYTM   005500360039
BI00B32P8    TAPI-2063      202205187283-4855                CONNECTOR HOUSING        CCN000002400000002400FN00000000020220601000002400NNM   20220322121225    4N0N  00000240000001188400001400032P8    YIYTM   005500360039
BI00B32P8    TAPI-2064      202205257283-4855                CONNECTOR HOUSING        CCN000004800000004800FN00000000020220601000004800NNM   20220322121225    4N0N  00000240000001188400001400032P8    YIYTM   005500360039
BI00B32P8    TAPI-2061      202205047283-5830                CONNECTOR                CCN000006000000006000FN00000000020220601000006000NNM   20220322121225    1N47  00000600000000954000001104032P8    YIYTM   005500360039
BI00B32P8    TAPI-2064      202205257283-5832                CONNECTOR HOUSING        CCN000002400000002400FN00000000020220601000002400NNM   20220322121225    1N47  00000240000000723800000873832P8    YIYTM   005500360039
BI00B32P8    TAPI-2062      202205117283-5846                HOUSING                  CCN000001500000001500FN00000000020220601000001500NNM   20220322121225    1N0N  00000150000000885000001102032P8    YIYTM   005600390040
BI00B32P8    TAPI-2064      202205257283-5846                HOUSING                  CCN000001500000001500FN00000000020220601000001500NNM   20220322121225    1N0N  00000150000000885000001102032P8    YIYTM   005600390040
BI00B32P8    TAPI-2061      202205047283-6388-40             CONNECTOR                CCN000004000000004000FN00000000020220601000004000NNM   20220322121225    4N0N  00000200000001029000001173532P8    YIYTM   005500360039
BI00B32P8    TAPI-2062      202205117283-6388-40             CONNECTOR                CCN000002000000002000FN00000000020220601000002000NNM   20220322121225    4N0N  00000200000001029000001173532P8    YIYTM   005500360039
BI00B32P8    TAPI-2063      202205187283-6388-40             CONNECTOR                CCN000004000000004000FN00000000020220601000004000NNM   20220322121225    4N0N  00000200000001029000001173532P8    YIYTM   005500360039
BI00B32P8    TAPI-2064      202205257283-6388-40             CONNECTOR                CCN000004000000004000FN00000000020220601000004000NNM   20220322121225    4N0N  00000200000001029000001173532P8    YIYTM   005500360039
BI00B32P8    TAPI-2062      202205117283-7449-30             HOUSING FEMALE ASS'Y     CCN000002400000002400FN00000000020220601000002400NNM   20220322121225    4N0N  00000240000001200000001410032P8    YIYTM   005500360039
BI00B32P8    TAPI-2063      202205187283-7449-30             HOUSING FEMALE ASS'Y     CCN000002400000002400FN00000000020220601000002400NNM   20220322121225    4N0N  00000240000001200000001410032P8    YIYTM   005500360039
BI00B32P8    TAPI-2064      202205257283-7449-30             HOUSING FEMALE ASS'Y     CCN000002400000002400FN00000000020220601000002400NNM   20220322121225    4N0N  00000240000001200000001410032P8    YIYTM   005500360039
BI00B32P8    TAPI-2064      202205257283-8630                CONNECTOR ASS'Y          CCN000006000000006000FN00000000020220601000006000NNM   20220322121225    4N0N  00000600000000540000000701332P8    YIYTM   005400370024
BI00B32P8    TAPI-2062      202205117283-9385-30             HOUSING FEMALE ASS'Y     CCN000000700000000700FN00000000020220601000000700NNM   20220322121225    4N0N  00000035000000996900001237932P8    YIYTM   005400370024
BI00B32P8    TAPI-2063      202205187283-9385-30             HOUSING FEMALE ASS'Y     CCN000000700000000700FN00000000020220601000000700NNM   20220322121225    4N0N  00000035000000996900001237932P8    YIYTM   005400370024
BI00B32P8    TAPI-2064      202205257283-9385-30             HOUSING FEMALE ASS'Y     CCN000000350000000350FN00000000020220601000000350NNM   20220322121225    4N0N  00000035000000996900001237932P8    YIYTM   005400370024
BI00B32P8    TAPI-2061      202205047286-1915                CONNECTOR SUB ASSY       CCN000001600000001600FN00000000020220601000001600NNM   20220322121225    4N0N  00000160000000965600001165632P8    YIYTM   005500360039
BI00B32P8    TAPI-2064      202205257286-1915                CONNECTOR SUB ASSY       CCN000001600000001600FN00000000020220601000001600NNM   20220322121225    4N0N  00000160000000965600001165632P8    YIYTM   005500360039
BI00B32P8    TAPI-2064      202205257286-4097                CONNECTOR MALE ASS'Y     CCN000001600000001600FN00000000020220601000001600NNM   20220322121225    1N0N  00000160000000768000000978032P8    YIYTM   005500360039
BI00B32P8    TAPI-2064      202205257287-1917-40             CONNECTOR FEMALE         CCN000002400000002400FN00000000020220601000002400NNM   20220322121225    4N0N  00000240000001060800001312532P8    YIYTM   005500360039
BI00B32P8    TAPI-2061      202205047287-8999                HOUSING FEMALE ASS'Y     CCN000004800000004800FN00000000020220601000004800NNM   20220322121225    1N0N  00000480000001228800001448832P8    YIYTM   005500360039
BI00B32P8    TAPI-2064      202205257287-9323                UNSEALED HOUSING SUB     CCN000002400000002400FN00000000020220601000002400NNM   20220322121225    1N0N  00000240000000537600000690032P8    YIYTM   005600390023
BI00B32P8    TAPI-2061      202205047287-9323-40             UNSEALED HOUSING SUB     CCN000002400000002400FN00000000020220601000002400NNM   20220322121225    1N0N  00000240000000537600000690032P8    YIYTM   005600390023
BI00B32P8    TAPI-2061      202205047288-3206                HOUSING MALE ASS'Y       CCN000002040000002040FN00000000020220601000002040NNM   20220322121225    1N0N  00000102000000387600000787632P8    YIYTM   005500360039
BI00B32P8    TAPI-2062      202205117288-3206                HOUSING MALE ASS'Y       CCN000001020000001020FN00000000020220601000001020NNM   20220322121225    1N0N  00000102000000387600000787632P8    YIYTM   005500360039
BI00B32P8    TAPI-2064      202205257288-3206                HOUSING MALE ASS'Y       CCN000001020000001020FN00000000020220601000001020NNM   20220322121225    1N0N  00000102000000387600000787632P8    YIYTM   005500360039
BI00B32P8    TAPI-2061      202205047288-3329-30             HOUSING MALE             CCN000004500000004500FN00000000020220601000004500NNM   20220322121225    4N0N  00000150000000866100001011132P8    YIYTM   005400370024
BI00B32P8    TAPI-2062      202205117288-3329-30             HOUSING MALE             CCN000003000000003000FN00000000020220601000003000NNM   20220322121225    4N0N  00000150000000866100001011132P8    YIYTM   005400370024
BI00B32P8    TAPI-2063      202205187288-3329-30             HOUSING MALE             CCN000001500000001500FN00000000020220601000001500NNM   20220322121225    4N0N  00000150000000866100001011132P8    YIYTM   005400370024
BI00B32P8    TAPI-2064      202205257288-3329-30             HOUSING MALE             CCN000003000000003000FN00000000020220601000003000NNM   20220322121225    4N0N  00000150000000866100001011132P8    YIYTM   005400370024
BI00B32P8    TAPI-2063      202205187288-3332-30             HOUSING MALE             CCN000001500000001500FN00000000020220601000001500NNM   20220322121225    4N0N  00000150000000860700001005732P8    YIYTM   005400370024
BI00B32P8    TAPI-2063      202205187288-3334-30             HOUSING MALE             CCN000001500000001500FN00000000020220601000001500NNM   20220322121225    4N0N  00000150000000867000001012032P8    YIYTM   005400370024
BI00B32P8    TAPI-2061      202205047288-3337-30             HOUSING MALE             CCN000001500000001500FN00000000020220601000001500NNM   20220322121225    4N0N  00000150000000867000001012032P8    YIYTM   005400370024
BI00B32P8    TAPI-2063      202205187288-3337-30             HOUSING MALE             CCN000001500000001500FN00000000020220601000001500NNM   20220322121225    4N0N  00000150000000867000001012032P8    YIYTM   005400370024
BI00B32P8    TAPI-2064      202205257288-3337-30             HOUSING MALE             CCN000001500000001500FN00000000020220601000001500NNM   20220322121225    4N0N  00000150000000867000001012032P8    YIYTM   005400370024
BI00B32P8    TAPI-2061      202205047288-3339-30             HOUSING MALE             CCN000001500000001500FN00000000020220601000001500NNM   20220322121225    4N0N  00000150000000867000001012032P8    YIYTM   005400370024
BI00B32P8    TAPI-2062      202205117288-3339-30             HOUSING MALE             CCN000001500000001500FN00000000020220601000001500NNM   20220322121225    4N0N  00000150000000867000001012032P8    YIYTM   005400370024
BI00B32P8    TAPI-2064      202205257288-3339-30             HOUSING MALE             CCN000001500000001500FN00000000020220601000001500NNM   20220322121225    4N0N  00000150000000867000001012032P8    YIYTM   005400370024
BI00B32P8    TAPI-2062      202205117288-3340-30             HOUSING MALE             CCN000001500000001500FN00000000020220601000001500NNM   20220322121225    4N0N  00000150000000861500001006432P8    YIYTM   005400370024
BI00B32P8    TAPI-2063      202205187288-3340-30             HOUSING MALE             CCN000003000000003000FN00000000020220601000003000NNM   20220322121225    4N0N  00000150000000861500001006432P8    YIYTM   005400370024
BI00B32P8    TAPI-2064      202205257288-3340-30             HOUSING MALE             CCN000001500000001500FN00000000020220601000001500NNM   20220322121225    4N0N  00000150000000861500001006432P8    YIYTM   005400370024
BI00B32P8    TAPI-2064      202205257289-0269                HOUSING SUB ASSEMBLY     CCN000003200000003200FN00000000020220601000003200NNM   20220322121225    1N0N  00000160000001002100001234532P8    YIYTM   005500360039
BI00B32P8    TAPI-2061      202205047289-3342-30             HOUSING FEMALE ASS'Y     CCN000014400000014400FN00000000020220601000014400NNM   20220322121225    1N0N  00000240000000686400000901432P8    YIYTM   005500360039
BI00B32P8    TAPI-2062      202205117289-3342-30             HOUSING FEMALE ASS'Y     CCN000007200000007200FN00000000020220601000007200NNM   20220322121225    1N0N  00000240000000686400000901432P8    YIYTM   005500360039
BI00B32P8    TAPI-2063      202205187289-3342-30             HOUSING FEMALE ASS'Y     CCN000004800000004800FN00000000020220601000004800NNM   20220322121225    1N0N  00000240000000686400000901432P8    YIYTM   005500360039
BI00B32P8    TAPI-2064      202205257289-3342-30             HOUSING FEMALE ASS'Y     CCN000007200000007200FN00000000020220601000007200NNM   20220322121225    1N0N  00000240000000686400000901432P8    YIYTM   005500360039
BI00B32P8    TAPI-2063      202205187289-4696-30             HOUSING FEMALE ASS'Y     CCN000004000000004000FN00000000020220601000004000NNM   20220322121225    4N0N  00000200000000913400001055432P8    YIYTM   005400370024
BI00B32P8    TAPI-2064      202205257289-4696-30             HOUSING FEMALE ASS'Y     CCN000004000000004000FN00000000020220601000004000NNM   20220322121225    4N0N  00000200000000913400001055432P8    YIYTM   005400370024
BI00B32P8    TAPI-2061      202205047289-6158-30             HOUSING FEMALE ASS'Y     CCN000000480000000480FN00000000020220601000000480NNM   20220322121225    4N0N  00000024000001095200001375232P8    YIYTM   005500360039
BI00B32P8    TAPI-2063      202205187298-1865-30             HOUSING FEMALE ASS'Y     CCN000004800000004800FN00000000020220601000004800NNM   20220322121225    4N0N  00000240000001003200001204532P8    YIYTM   005500360039
BI00B32P8    TAPI-2064      202205257298-1865-30             HOUSING FEMALE ASS'Y     CCN000014400000014400FN00000000020220601000014400NNM   20220322121225    4N0N  00000240000001003200001204532P8    YIYTM   005500360039
BI00B32P8    TAPI-2061      202205047298-1869-30             HOUSING FEMALE ASS'Y     CCN000004800000004800FN00000000020220601000004800NNM   20220322121225    4N0N  00000120000000737000000939832P8    YIYTM   005500360039
BI00B32P8    TAPI-2062      202205117298-1869-30             HOUSING FEMALE ASS'Y     CCN000002400000002400FN00000000020220601000002400NNM   20220322121225    4N0N  00000120000000737000000939832P8    YIYTM   005500360039
BI00B32P8    TAPI-2063      202205187298-1869-30             HOUSING FEMALE ASS'Y     CCN000002400000002400FN00000000020220601000002400NNM   20220322121225    4N0N  00000120000000737000000939832P8    YIYTM   005500360039
BI00B32P8    TAPI-2064      202205257298-1869-30             HOUSING FEMALE ASS'Y     CCN000002400000002400FN00000000020220601000002400NNM   20220322121225    4N0N  00000120000000737000000939832P8    YIYTM   005500360039
BI00B32P8    TAPI-2064      202205257298-2278-30             HOUSING FEMALE ASS'Y     CCN000004800000004800FN00000000020220601000004800NNM   20220322121225    4N0N  00000240000001091700001295432P8    YIYTM   005500360039
BI00B32P8    TAPI-2061      202205047298-2508-30             HOUSING FEMALE ASS'Y     CCN000002400000002400FN00000000020220601000002400NNM   20220322121225    4N0N  00000120000000822000001005032P8    YIYTM   005500360039
BI00B32P8    TAPI-2062      202205117298-2508-30             HOUSING FEMALE ASS'Y     CCN000001200000001200FN00000000020220601000001200NNM   20220322121225    4N0N  00000120000000822000001005032P8    YIYTM   005500360039
BI00B32P8    TAPI-2063      202205187298-2508-30             HOUSING FEMALE ASS'Y     CCN000001200000001200FN00000000020220601000001200NNM   20220322121225    4N0N  00000120000000822000001005032P8    YIYTM   005500360039
BI00B32P8    TAPI-2064      202205257298-2508-30             HOUSING FEMALE ASS'Y     CCN000001200000001200FN00000000020220601000001200NNM   20220322121225    4N0N  00000120000000822000001005032P8    YIYTM   005500360039
BI00B32P8    TAPI-2061      202205047298-2852-30             HOUSING FEMALE ASS'Y     CCN000000960000000960FN00000000020220601000000960NNM   20220322121225    4N0N  00000024000001095200001361232P8    YIYTM   005500360039
BI00B32P8    TAPI-2062      202205117298-2852-30             HOUSING FEMALE ASS'Y     CCN000001200000001200FN00000000020220601000001200NNM   20220322121225    4N0N  00000024000001095200001361232P8    YIYTM   005500360039
BI00B32P8    TAPI-2063      202205187298-2852-30             HOUSING FEMALE ASS'Y     CCN000000960000000960FN00000000020220601000000960NNM   20220322121225    4N0N  00000024000001095200001361232P8    YIYTM   005500360039
BI00B32P8    TAPI-2064      202205257298-2852-30             HOUSING FEMALE ASS'Y     CCN000001200000001200FN00000000020220601000001200NNM   20220322121225    4N0N  00000024000001095200001361232P8    YIYTM   005500360039
BI00B32P8    TAPI-2061      202205047298-5955                CONNECTOR SUB ASSY       CCN000028800000028800FN00000000020220601000028800NNM   20220322121225    4N0N  00000720000001029600001253032P8    YIYTM   005500360039
BI00B32P8    TAPI-2062      202205117298-5955                CONNECTOR SUB ASSY       CCN000021600000021600FN00000000020220601000021600NNM   20220322121225    4N0N  00000720000001029600001253032P8    YIYTM   005500360039
BI00B32P8    TAPI-2063      202205187298-5955                CONNECTOR SUB ASSY       CCN000028800000028800FN00000000020220601000028800NNM   20220322121225    4N0N  00000720000001029600001253032P8    YIYTM   005500360039
BI00B32P8    TAPI-2064      202205257298-5955                CONNECTOR SUB ASSY       CCN000021600000021600FN00000000020220601000021600NNM   20220322121225    4N0N  00000720000001029600001253032P8    YIYTM   005500360039
BI00B32P8    TAPI-2063      202205187388-0317-60             CONNECTOR ASS'Y          CCN000002400000002400FN00000000020220601000002400NNM   20220322121225    4N0N  00000120000001034400001129332P8    YIYTM   005400370024
BI00B32P8    TAPI-2064      202205257388-0317-60             CONNECTOR ASS'Y          CCN000001200000001200FN00000000020220601000001200NNM   20220322121225    4N0N  00000120000001034400001129332P8    YIYTM   005400370024
BI00B32P8    TAPI-2061      202205047388-2978-30             HOUSING MALE ASS'Y       CCN000001440000001440FN00000000020220601000001440NNM   20220322121225    1N0N  00000048000000742000001122032P8    YIYTM   005500360039
BI00B32P8    TAPI-2062      202205117388-2978-30             HOUSING MALE ASS'Y       CCN000000480000000480FN00000000020220601000000480NNM   20220322121225    1N0N  00000048000000742000001122032P8    YIYTM   005500360039
BI00B32P8    TAPI-2063      202205187388-2978-30             HOUSING MALE ASS'Y       CCN000000960000000960FN00000000020220601000000960NNM   20220322121225    1N0N  00000048000000742000001122032P8    YIYTM   005500360039
BI00B32P8    TAPI-2064      202205257388-2978-30             HOUSING MALE ASS'Y       CCN000000480000000480FN00000000020220601000000480NNM   20220322121225    1N0N  00000048000000742000001122032P8    YIYTM   005500360039
BI00B32P8    TAPI-2061      202205047470-3082                J/B COMPLETE ASS'Y       CCN000000120000000120FN00000000020220601000000120NNM   20220322121225    1J0J  00000002400001320000001570032P8    YIYTM   005500360039
BI00B32P8    TAPI-2062      202205117470-3082                J/B COMPLETE ASS'Y       CCN000000120000000120FN00000000020220601000000120NNM   20220322121225    1J0J  00000002400001320000001570032P8    YIYTM   005500360039
BI00B32P8    TAPI-2063      202205187470-3082                J/B COMPLETE ASS'Y       CCN000000120000000120FN00000000020220601000000120NNM   20220322121225    1J0J  00000002400001320000001570032P8    YIYTM   005500360039
BI00B32P8    TAPI-2064      202205257017-1180-02             TERMINAL                 CCN000216000000216000FN00000000020220601000216000NNM   20220322121225    4P0P  00007200000001065600001229032P8    YIYTM   005100280028
BI00B32P8    TAPI-2064      202205257017-1181-02             TERMINAL                 CCN000063000000063000FN00000000020220601000063000NNM   20220322121225    4P0P  00006300000001089900001266832P8    YIYTM   005100280028
BI00B32P8    TAPI-2064      202205257017-1183-02             TERMINAL                 CCN000054000000054000FN00000000020220601000054000NNM   20220322121225    4P0P  00002700000001139400001307432P8    YIYTM   005100280028
BI00B32P8    TAPI-2061      202205047386-6939                CONNECTOR MALE ASS'Y     CCN000001800000001800FN00000000020220601000001800NNM   20220322121225    4N0N  00000090000001359900001486432P8    YIYTM   005400370024
BI00B32P8    TAPI-2063      202205187386-6939                CONNECTOR MALE ASS'Y     CCN000000900000000900FN00000000020220601000000900NNM   20220322121225    4N0N  00000090000001359900001486432P8    YIYTM   005400370024
BI00B32P8    TAPI-2064      202205257386-6939                CONNECTOR MALE ASS'Y     CCN000000900000000900FN00000000020220601000000900NNM   20220322121225    4N0N  00000090000001359900001486432P8    YIYTM   005400370024
BI00B32P8    TAPI-2061      202205047327-6424-4W             BATTERY FUSE             CCN000000192000000192FN00000000020220601000000192NNM   20220322121225    4N0N  00000009600001109500001259632P8    YIYTM   005400370024
BI00B32P8    TAPI-2062      202205117327-6424-4W             BATTERY FUSE             CCN000000096000000096FN00000000020220601000000096NNM   20220322121225    4N0N  00000009600001109500001259632P8    YIYTM   005400370024
BI00B32P8    TAPI-2063      202205187327-6424-4W             BATTERY FUSE             CCN000000096000000096FN00000000020220601000000096NNM   20220322121225    4N0N  00000009600001109500001259632P8    YIYTM   005400370024
BI00B32P8    TAPI-2064      202205257327-6424-4W             BATTERY FUSE             CCN000000096000000096FN00000000020220601000000096NNM   20220322121225    4N0N  00000009600001109500001259632P8    YIYTM   005400370024
BI00B32P8    TAPI-2062      202205117327-6994-3W             BATTERY FUSE             CCN000001224000001224FN00000000020220601000001224NNM   20220322121225    4N0N  00000007200001215100001430132P8    YIYTM   005500360039
BI00B32P8    TAPI-2063      202205187327-6994-3W             BATTERY FUSE             CCN000001224000001224FN00000000020220601000001224NNM   20220322121225    4N0N  00000007200001215100001430132P8    YIYTM   005500360039
BI00B32P8    TAPI-2064      202205257327-6994-3W             BATTERY FUSE             CCN000001152000001152FN00000000020220601000001152NNM   20220322121225    4N0N  00000007200001215100001430132P8    YIYTM   005500360039
BI00B32P8    TAPI-2061      202205047470-5303                J/B COMPLETE ASS'Y       CCN000000380000000380FN00000000020220601000000380NNM   20220322121225    4J0J  00000001000000494000000661032P8    YIYTM   005400370024
BI00B32P8    TAPI-2062      202205117470-5303                J/B COMPLETE ASS'Y       CCN000000650000000650FN00000000020220601000000650NNM   20220322121225    4J0J  00000001000000494000000661032P8    YIYTM   005400370024
BI00B32P8    TAPI-2063      202205187470-5303                J/B COMPLETE ASS'Y       CCN000000650000000650FN00000000020220601000000650NNM   20220322121225    4J0J  00000001000000494000000661032P8    YIYTM   005400370024
BI00B32P8    TAPI-2064      202205257470-5303                J/B COMPLETE ASS'Y       CCN000000650000000650FN00000000020220601000000650NNM   20220322121225    4J0J  00000001000000494000000661032P8    YIYTM   005400370024
BI00B32P8    TAPI-2061      202205047470-5650                J/B COMPLETE ASS'Y       CCN000000340000000340FN00000000020220601000000340NNM   20220322121225    4J0J  00000001000000494000000661032P8    YIYTM   005400370024
BI00B32P8    TAPI-2062      202205117470-5650                J/B COMPLETE ASS'Y       CCN000000360000000360FN00000000020220601000000360NNM   20220322121225    4J0J  00000001000000494000000661032P8    YIYTM   005400370024
BI00B32P8    TAPI-2063      202205187470-5650                J/B COMPLETE ASS'Y       CCN000000370000000370FN00000000020220601000000370NNM   20220322121225    4J0J  00000001000000494000000661032P8    YIYTM   005400370024
BI00B32P8    TAPI-2064      202205257470-5650                J/B COMPLETE ASS'Y       CCN000000360000000360FN00000000020220601000000360NNM   20220322121225    4J0J  00000001000000494000000661032P8    YIYTM   005400370024
BI00B32P8    TAPI-2062      202205117273-3885-0W             CASSETTE BRACKET         CCN000000600000000600FN00000000020220601000000600NNM   20220322121225    4N0N  00000060000000864400001004432P8    YIYTM   005500360039
BI00B32P8    TAPI-2064      202205257273-3885-0W             CASSETTE BRACKET         CCN000000600000000600FN00000000020220601000000600NNM   20220322121225    4N0N  00000060000000864400001004432P8    YIYTM   005500360039
BI00B32P8    TAPI-2062      202205117273-3887-0W             CASSETTE BRACKET         CCN000000600000000600FN00000000020220601000000600NNM   20220322121225    4N0N  00000060000000526000000652032P8    YIYTM   005500360039
BI00B32P8    TAPI-2063      202205187273-3887-0W             CASSETTE BRACKET         CCN000000600000000600FN00000000020220601000000600NNM   20220322121225    4N0N  00000060000000526000000652032P8    YIYTM   005500360039
BI00B32P8    #TAPI-2063     202205187157-3992-90             CONNECTOR SEALED         CCN000040000000040000FN00000000020220601000040000NNM   20220322121225    2C0C  00004000000000300000000363332P8    YIYTM   002700430014
BI00B32P8    #TAPI-2062     202205117172-5628-80             DUMMY PLUG               CCN000034000000040000FN00000000020220601000040000NNM   20220322121225    2H0H  00002000000000110600000162032P8    YIYTM   004300270014
BI00B32P8    #TAPI-2063     202205187172-5628-80             DUMMY PLUG               CCN000206000000220000FN00000000020220601000220000NNM   20220322121225    2H0H  00002000000000110600000162032P8    YIYTM   004300270014
BI00B32P8    #TAPI-2064     202205257172-5628-80             DUMMY PLUG               CCN000208000000220000FN00000000020220601000220000NNM   20220322121225    2H0H  00002000000000110600000162032P8    YIYTM   004300270014
BI00B32P8    #TAPI-2064     202205257157-7916-80             REAR HOLDER              CCN000008000000008000FN00000000020220601000008000NNM   20220322121225    2F0F  00000800000001100800001263032P8    YIYTM   003600540039
BI00B32P8    #TAPI-2064     202205257157-3950-80             SEAL RUBBER              CCN000040000000040000FN00000000020220601000040000NNM   20220322121225    2C0C  00004000000000154000000440332P8    YIYTM   002700430014
BI00B32P8    #TAPI-2064     202205257157-7811-80             SEAL RUBBER              CCN000010000000010000FN00000000020220601000010000NNM   20220322121225    2C0C  00001000000000105000000182732P8    YIYTM   002700430014
BI00B32P8    #TAPI-2064     202205257157-7812                SEAL RUBBER              CCN000020000000020000FN00000000020220601000020000NNM   20220322121225    2C0C  00001000000000137000000202032P8    YIYTM   002700430014
BI00B32P8    #TAPI-2063     202205187158-3003-90             RUBBER STOPPER           CCN000100000000100000FN00000000020220601000100000NNM   20220322121225    2C0C  00002000000000250000000306032P8    YIYTM   002700430014
BI00B32P8    #TAPI-2064     202205257158-3003-90             RUBBER STOPPER           CCN000180000000180000FN00000000020220601000180000NNM   20220322121225    2C0C  00002000000000250000000306032P8    YIYTM   002700430014
BI00B32P8    #TAPI-2062     202205117158-3007-10             RUBBER STOPPER           CCN000020000000020000FN00000000020220601000020000NNM   20220322121225    2H0H  00002000000000308000000362732P8    YIYTM   002700430014
BI00B32P8    #TAPI-2063     202205187158-3007-10             RUBBER STOPPER           CCN000040000000040000FN00000000020220601000040000NNM   20220322121225    2H0H  00002000000000308000000362732P8    YIYTM   002700430014
BI00B32P8    #TAPI-2064     202205257158-3007-10             RUBBER STOPPER           CCN000040000000040000FN00000000020220601000040000NNM   20220322121225    2H0H  00002000000000308000000362732P8    YIYTM   002700430014
BI00B32P8    #TAPI-2062     202205117158-3008-80             RUBBER STOPPER           CCN000040000000040000FN00000000020220601000040000NNM   20220322121225    2C0C  00002000000000288000000343032P8    YIYTM   004300270014
BI00B32P8    #TAPI-2063     202205187158-3008-80             RUBBER STOPPER           CCN000080000000080000FN00000000020220601000080000NNM   20220322121225    2C0C  00002000000000288000000343032P8    YIYTM   004300270014
BI00B32P8    #TAPI-2064     202205257158-3008-80             RUBBER STOPPER           CCN000080000000080000FN00000000020220601000080000NNM   20220322121225    2C0C  00002000000000288000000343032P8    YIYTM   004300270014
BI00B32P8    #TAPI-2062     202205117158-3015-10             RUBBER STOPPER           CCN000010000000010000FN00000000020220601000010000NNM   20220322121225    2C0C  00001000000000419500000474032P8    YIYTM   002700430014
BI00B32P8    #TAPI-2063     202205187158-3015-10             RUBBER STOPPER           CCN000020000000020000FN00000000020220601000020000NNM   20220322121225    2C0C  00001000000000419500000474032P8    YIYTM   002700430014
BI00B32P8    #TAPI-2064     202205257158-3015-10             RUBBER STOPPER           CCN000010000000010000FN00000000020220601000010000NNM   20220322121225    2C0C  00001000000000419500000474032P8    YIYTM   002700430014
BI00B32P8    #TAPI-2061     202205047158-3121-80             WIRE SEAL                CCN000040000000040000FN00000000020220601000040000NNM   20220322121225    2C0C  00002000000000118000000187332P8    YIYTM   002700430014
BI00B32P8    #TAPI-2062     202205117158-3121-80             WIRE SEAL                CCN000040000000040000FN00000000020220601000040000NNM   20220322121225    2C0C  00002000000000118000000187332P8    YIYTM   002700430014
BI00B32P8    #TAPI-2063     202205187158-3121-80             WIRE SEAL                CCN000020000000020000FN00000000020220601000020000NNM   20220322121225    2C0C  00002000000000118000000187332P8    YIYTM   002700430014
BI00B32P8    #TAPI-2064     202205257158-3121-80             WIRE SEAL                CCN000040000000040000FN00000000020220601000040000NNM   20220322121225    2C0C  00002000000000118000000187332P8    YIYTM   002700430014
BI00B32P8    #TAPI-2061     202205047158-3374-90             CONNECTOR WIRE SEAL      CCN000020000000020000FN00000000020220601000020000NNM   20220322121225    2H0H  00002000000000172000000229332P8    YIYTM   002700430014
BI00B32P8    #TAPI-2063     202205187158-3374-90             CONNECTOR WIRE SEAL      CCN000020000000020000FN00000000020220601000020000NNM   20220322121225    2H0H  00002000000000172000000229332P8    YIYTM   002700430014
BI00B32P8    #TAPI-2063     202205187158-3654-80             WIRE TUBE                CCN000040000000040000FN00000000020220601000040000NNM   20220322121225    2H0H  00004000000000104000000152232P8    YIYTM   004300270014
BI00B32P8    #TAPI-2064     202205257158-3654-80             WIRE TUBE                CCN000040000000040000FN00000000020220601000040000NNM   20220322121225    2H0H  00004000000000104000000152232P8    YIYTM   004300270014
BI00B32P8    #TAPI-2062     202205117172-5625-90             RUBBER STOPPER           CCN000100000000100000FN00000000020220601000100000NNM   20220322121225    2H0H  00002000000000082400000133832P8    YIYTM   004300270014
BI00B32P8    #TAPI-2063     202205187172-5625-90             RUBBER STOPPER           CCN000120000000120000FN00000000020220601000120000NNM   20220322121225    2H0H  00002000000000082400000133832P8    YIYTM   004300270014
BI00B32P8    #TAPI-2064     202205257172-5625-90             RUBBER STOPPER           CCN000120000000120000FN00000000020220601000120000NNM   20220322121225    2H0H  00002000000000082400000133832P8    YIYTM   004300270014
BI00B32P8    #TAPI-2062     202205117172-5629-80             RUBBER STOPPER           CCN000260000000260000FN00000000020220601000260000NNM   20220322121225    2H0H  00002000000000060000000111132P8    YIYTM   004300270014
BI00B32P8    #TAPI-2063     202205187172-5629-80             RUBBER STOPPER           CCN000280000000280000FN00000000020220601000280000NNM   20220322121225    2H0H  00002000000000060000000111132P8    YIYTM   004300270014
BI00B32P8    #TAPI-2064     202205257172-5629-80             RUBBER STOPPER           CCN000300000000300000FN00000000020220601000300000NNM   20220322121225    2H0H  00002000000000060000000111132P8    YIYTM   004300270014
BI00B32P8    #TAPI-2062     202205117114-4022                TERMINAL                 CCN000015000000015000FN00000000020220601000015000NNM   20220322121225    2F0P  00001500000000708000001120632P8    YIYTM   006400630015
BI00B32P8    #TAPI-2063     202205187114-4022                TERMINAL                 CCN000030000000030000FN00000000020220601000030000NNM   20220322121225    2F0P  00001500000000708000001120632P8    YIYTM   006400630015
BI00B32P8    #TAPI-2064     202205257114-4022                TERMINAL                 CCN000030000000030000FN00000000020220601000030000NNM   20220322121225    2F0P  00001500000000708000001120632P8    YIYTM   006400630015
BI00B32P8    #TAPI-2064     202205257116-4021                TERMINAL                 CCN000013500000013500FN00000000020220601000013500NNM   20220322121225    2F0P  00001350000000534600000868832P8    YIYTM   006400630015
BI00B32P8    #TAPI-2061     202205047189-3038-30             HOUSING                  CCN000001600000001600FN00000000020220601000001600NNM   20220322121225    2F0F  00000160000000921600001141632P8    YIYTM   005500360039
BI00B32P8    #TAPI-2064     202205257158-3005-80             RUBBER STOPPER           CCN000060000000060000FN00000000020220601000060000NNM   20220322121225    2H0H  00002000000000210000000268732P8    YIYTM   002700430014
BI00B32P8    #TAPI-2063     202205187123-6347                CONNECTOR HOUSING        CCN000009600000009600FN00000000020220601000009600NNM   20220322121225    2F0F  00000160000000647000000904832P8    YIYTM   005500360039
BI00B32P8    #TAPI-2064     202205257123-6347                CONNECTOR HOUSING        CCN000009600000009600FN00000000020220601000009600NNM   20220322121225    2F0F  00000160000000647000000904832P8    YIYTM   005500360039
BI00B32P8    #TAPI-2061     202205047123-6347-40             HOUSING                  CCN000001600000001600FN00000000020220601000001600NNM   20220322121225    2F0F  00000160000000650400000905032P8    YIYTM   005500360039
BI00B32P8    #TAPI-2062     202205117123-6347-40             HOUSING                  CCN000001600000001600FN00000000020220601000001600NNM   20220322121225    2F0F  00000160000000650400000905032P8    YIYTM   005500360039
BI00B32P8    #TAPI-2064     202205257123-7484-30             CONNECTOR                CCN000002000000002000FN00000000020220601000002000NNM   20220322121225    2F0F  00000200000001393800001537032P8    YIYTM   005500360039
BI00B32P8    #TAPI-2063     202205187123-7484-40             CONNECTOR                CCN000002000000002000FN00000000020220601000002000NNM   20220322121225    2F0F  00000200000001393800001541032P8    YIYTM   005500360039
