BI00A1200    MKH2022-010    202203087327-6983-30             MAIN FUSE                CCN000000600000000600FN00000000020220201000000600NNED0320220302135752    4N0N  0000006000000074880000095151200    YCYC    005400370024
BI00B1200    2399T52309     202204217158-3022-80             RUBBER STOPPER           CCN000035000000035000FN00000000020220501000035000NNMD0420220302153708    1C0C  0000050000000046750000052401200    YCYC    002700430014
BI00B1200    2399T52310     202204287158-3022-80             RUBBER STOPPER           CCN000035000000035000FN00000000020220501000035000NNMD0420220302153732    1C0C  0000050000000046750000052401200    YCYC    002700430014
BI00B1200    2399T52309     202204217172-5540-80             SEALED WIRE SEAL         CCN000180000000180000FN00000000020220501000180000NNMD0420220302153816    1C0C  0000200000000018600000023441200    YCYC    004300270014
BI00B1200    2399T52310     202204287172-5540-80             SEALED WIRE SEAL         CCN000160000000160000FN00000000020220501000160000NNMD0420220302153832    1C0C  0000200000000018600000023441200    YCYC    004300270014
BI00B1200    2399T52311     202205057158-3022-80             RUBBER STOPPER           CCN000030000000030000FN00000000020220501000030000NNMD0420220302153758    1C0C  0000050000000046750000052401200    YCYC    002700430014
BI00B1200    2399T52311     202205057172-5540-80             SEALED WIRE SEAL         CCN000160000000160000FN00000000020220501000160000NNMD0420220302153849    1C0C  0000200000000018600000023441200    YCYC    004300270014
BI00B1200    2399T52316     202204217289-6868-30             SEALED ASSY FEMALE       CCN000105840000105840FN00000000020220501000105840NNMD0420220302155826    4N0N  0000025200000083920000111921200    YCYC    005500360039
BI00B1200    2399T52317     202204287289-6868-30             SEALED ASSY FEMALE       CCN000105840000105840FN00000000020220501000105840NNMD0420220302155842    4N0N  0000025200000083920000111921200    YCYC    005500360039
BI00B1200    2399T52319     202204287289-4212-80             SEALED HOUSING ASS'Y     CCN000034000000018000FN00000000020220501000018000NNMQ0420220302155702    4N0N  0000020000000084860000097861200    YCYC    005400370024
BI00B1200    2399T52319     202205057289-6597-70             HOUSING FEMALE ASS'Y     CCN000034560000034560FN00000000020220501000034560NNMD0420220302155759    4N0N  0000021600000128950000153951200    YCYC    005500360039
BI00B1200    2399T52319     202205057289-6868-30             SEALED ASSY FEMALE       CCN000105840000105840FN00000000020220501000105840NNMD0420220302155856    4N0N  0000025200000083920000111921200    YCYC    005500360039
BI00B1200    2399T52319     202205057289-4212-80             SEALED HOUSING ASS'Y     CCN000016000000016000FN00000000020220501000016000NNMD0420220302155707    4N0N  0000020000000084860000097861200    YCYC    005400370024
BI00B32AF    JTB2034        202203047283-4576                HOUSING FEMALE ASS'Y     CCN000019200000019200FN00000000020220301000019200NNM00020220302132434    4N0N  00000480000000651300000871332AF    HBYHVTB 005500360039
BI00B32AF    JTB2041        202203117158-3169-40             SEALING PLUG             CCN000080000000000000FY00000000020220401000000000NNMQ0820220302151727    1C0C  00004000000000156000000204132AF    HBYHVTB 004300260014
BI00B32AF    JTB2042        202203187158-3169-40             SEALING PLUG             CCN000080000000000000FY00000000020220401000000000NNMQ0820220302151751    1C0C  00004000000000156000000204132AF    HBYHVTB 004300260014
BI00B32AF    JTB2043        202203257158-3169-40             SEALING PLUG             CCN000080000000000000FY00000000020220401000000000NNMQ0820220302151806    1C0C  00004000000000156000000204132AF    HBYHVTB 004300260014
BI00B32AF    JTB2044        202204017158-3169-40             SEALING PLUG             CCN000040000000000000FY00000000020220401000000000NNMQ0820220302151823    1C0C  00004000000000156000000204132AF    HBYHVTB 004300260014
BI00B32AF    JTB2043        202203257282-4578                HOUSING MALE ASS'Y       CCN000007200000000000FY00000000020220401000000000NNMQ0820220302132940    4N0N  00000120000000782600000992632AF    HBYHVTB 005500360039
BI00B32AF    JTB2044        202204017282-4578                HOUSING MALE ASS'Y       CCN000006000000000000FY00000000020220401000000000NNMQ0820220302133226    4N0N  00000120000000782600000992632AF    HBYHVTB 005500360039
BI00B32AF    JTB2041        202203117283-4576                HOUSING FEMALE ASS'Y     CCN000019200000000000FY00000000020220401000000000NNMQ0820220302132602    4N0N  00000480000000651300000871332AF    HBYHVTB 005500360039
BI00B32AF    JTB2042        202203187283-4576                HOUSING FEMALE ASS'Y     CCN000024000000000000FY00000000020220401000000000NNMQ0820220302132743    4N0N  00000480000000651300000871332AF    HBYHVTB 005500360039
BI00B32AF    JTB2043        202203257283-4576                HOUSING FEMALE ASS'Y     CCN000019200000000000FY00000000020220401000000000NNMQ0820220302133008    4N0N  00000480000000651300000871332AF    HBYHVTB 005500360039
BI00B32AF    JTB2044        202204017283-4576                HOUSING FEMALE ASS'Y     CCN000014400000000000FY00000000020220401000000000NNMQ0820220302133254    4N0N  00000480000000651300000871332AF    HBYHVTB 005500360039
BI00B32AF    JTB2041        202203117283-4577                CONNECTOR HOUSING        CCN000004800000000000FY00000000020220401000000000NNMQ0820220302133441    4N0N  00000480000000916800001136832AF    HBYHVTB 005500360039
BI00B32AF    JTB2042        202203187283-4577                CONNECTOR HOUSING        CCN000004800000000000FY00000000020220401000000000NNMQ0820220302134530    4N0N  00000480000000916800001136832AF    HBYHVTB 005500360039
BI00B32AF    JTB2043        202203257283-4577                CONNECTOR HOUSING        CCN000004800000000000FY00000000020220401000000000NNMQ0820220302134852    4N0N  00000480000000916800001136832AF    HBYHVTB 005500360039
BI00B32AF    JTB2041        202203117283-4855                CONNECTOR HOUSING        CCN000007200000000000FY00000000020220401000000000NNMQ0820220302134510    4N0N  00000240000001188400001400032AF    HBYHVTB 005500360039
BI00B32AF    JTB2042        202203187283-4855                CONNECTOR HOUSING        CCN000004800000000000FY00000000020220401000000000NNMQ0820220302134604    4N0N  00000240000001188400001400032AF    HBYHVTB 005500360039
BI00B32AF    JTB2043        202203257283-4855                CONNECTOR HOUSING        CCN000002400000000000FY00000000020220401000000000NNMQ0820220302134913    4N0N  00000240000001188400001400032AF    HBYHVTB 005500360039
BI00B32AF    JTB2041        202203117283-5830-30             CONNECTOR                CCN000006000000000000FY00000000020220401000000000NNMQ0820220302132625    1N0N  00000600000000954000001104032AF    HBYHVTB 005500360039
BI00B32AF    JTB2042        202203187283-5830-30             CONNECTOR                CCN000006000000000000FY00000000020220401000000000NNMQ0820220302132809    1N0N  00000600000000954000001104032AF    HBYHVTB 005500360039
BI00B32AF    JTB2043        202203257283-5830-30             CONNECTOR                CCN000006000000000000FY00000000020220401000000000NNMQ0820220302133027    1N0N  00000600000000954000001104032AF    HBYHVTB 005500360039
BI00B32AF    JTB2041        202203117283-5845                CONNECTOR HOUSING        CCN000018000000000000FY00000000020220401000000000NNMQ0820220302132641    1N0N  00000600000000444000000606332AF    HBYHVTB 005400370024
BI00B32AF    JTB2042        202203187283-5845                CONNECTOR HOUSING        CCN000024000000000000FY00000000020220401000000000NNMQ0820220302132827    1N0N  00000600000000444000000606332AF    HBYHVTB 005400370024
BI00B32AF    JTB2043        202203257283-5845                CONNECTOR HOUSING        CCN000030000000000000FY00000000020220401000000000NNMQ0820220302133045    1N0N  00000600000000444000000606332AF    HBYHVTB 005400370024
BI00B32AF    JTB2044        202204017283-5845                CONNECTOR HOUSING        CCN000012000000000000FY00000000020220401000000000NNMQ0820220302133311    1N0N  00000600000000444000000606332AF    HBYHVTB 005400370024
BI00B32AF    JTB2042        202203187283-5845-30             CONNECTOR HOUSING        CCN000006000000000000FY00000000020220401000000000NNMQ0820220302132851    1N0N  00000600000000444000000606332AF    HBYHVTB 005400370024
BI00B32AF    JTB2043        202203257283-5845-30             CONNECTOR HOUSING        CCN000006000000000000FY00000000020220401000000000NNMQ0820220302133106    1N0N  00000600000000444000000606332AF    HBYHVTB 005400370024
BI00B32AF    JTB2043        202203257287-1915                CONNECTOR ASS'Y          CCN000007200000000000FY00000000020220401000000000NNMQ0820220302133123    4N0N  00000240000000666500000923132AF    HBYHVTB 005500360039
BI00B32AF    JTB2044        202204017287-1915                CONNECTOR ASS'Y          CCN000007200000000000FY00000000020220401000000000NNMQ0820220302133328    4N0N  00000240000000666500000923132AF    HBYHVTB 005500360039
BI00B32AF    JTB2043        202203257287-3885                HYBRID FEMALE ASS'Y      CCN000004800000000000FY00000000020220401000000000NNMQ0820220302133150    1N0N  00000240000001029600001249632AF    HBYHVTB 005500360039
BI00B32AF    JTB2044        202204017287-3885                HYBRID FEMALE ASS'Y      CCN000002400000000000FY00000000020220401000000000NNMQ0820220302133348    1N0N  00000240000001029600001249632AF    HBYHVTB 005500360039
BI00B32AF    JTB2041        202203117287-3885-30             HYBRID FEMALE ASS'Y      CCN000002400000000000FY00000000020220401000000000NNMQ0820220302132726    1N0N  00000240000001029600001249632AF    HBYHVTB 005500360039
BI00B32AF    JTB2042        202203187287-3885-30             HYBRID FEMALE ASS'Y      CCN000002400000000000FY00000000020220401000000000NNMQ0820220302132911    1N0N  00000240000001029600001249632AF    HBYHVTB 005500360039
BI00B32AF    JTB2043        202203257287-3885-30             HYBRID FEMALE ASS'Y      CCN000002400000000000FY00000000020220401000000000NNMQ0820220302133206    1N0N  00000240000001029600001249632AF    HBYHVTB 005500360039
BI00B32AF    JTB2042        202203257289-3342-30             HOUSING FEMALE ASS'Y     CCN000040800000000000FY00000000020220401000000000NNMQ0820220302134716    1N0N  00000240000000686400000901432AF    HBYHVTB 005500360039
BI00B32AF    JTB2043        202204017289-3342-30             HOUSING FEMALE ASS'Y     CCN000060000000000000FY00000000020220401000000000NNMQ0820220302134946    1N0N  00000240000000686400000901432AF    HBYHVTB 005500360039
BI00B32AF    JTB2044        202204087289-3342-30             HOUSING FEMALE ASS'Y     CCN000036000000000000FY00000000020220401000000000NNMQ0820220302135045    1N0N  00000240000000686400000901432AF    HBYHVTB 005500360039
BI00B32AF    JTB2043        202203257298-1865-30             HOUSING FEMALE ASS'Y     CCN000012000000000000FY00000000020220401000000000NNMQ0820220302140928    4N0N  00000240000001003200001204532AF    HBYHVTB 005500360039
BI00B32AF    JTB2044        202204017298-1865-30             HOUSING FEMALE ASS'Y     CCN000007200000000000FY00000000020220401000000000NNMQ0820220302141041    4N0N  00000240000001003200001204532AF    HBYHVTB 005500360039
BI00B32AF    JTB2041        202203117298-1869-30             HOUSING FEMALE ASS'Y     CCN000002400000000000FY00000000020220401000000000NNMQ0820220302140834    4N0N  00000120000000737000000939832AF    HBYHVTB 005500360039
BI00B32AF    JTB2042        202203187298-1869-30             HOUSING FEMALE ASS'Y     CCN000002400000000000FY00000000020220401000000000NNMQ0820220302140859    4N0N  00000120000000737000000939832AF    HBYHVTB 005500360039
BI00B32AF    JTB2043        202203257298-1869-30             HOUSING FEMALE ASS'Y     CCN000002400000000000FY00000000020220401000000000NNMQ0820220302140959    4N0N  00000120000000737000000939832AF    HBYHVTB 005500360039
BI00B32AF    JTB2044        202204017298-1869-30             HOUSING FEMALE ASS'Y     CCN000002400000000000FY00000000020220401000000000NNMQ0820220302141123    4N0N  00000120000000737000000939832AF    HBYHVTB 005500360039
BI00B32AF    JTB2043        202203257298-5955                CONNECTOR SUB ASSY       CCN000021600000000000FY00000000020220401000000000NNMQ0820220302141622    4N0N  00000720000001029600001253032AF    HBYHVTB 005500360039
BI00B32AF    JTB2044        202204017298-5955                CONNECTOR SUB ASSY       CCN000021600000000000FY00000000020220401000000000NNMQ0820220302141634    4N0N  00000720000001029600001253032AF    HBYHVTB 005500360039
BI00B32AF    #JTB2042       202203187183-2413                CONNECTOR HOUSING        CCN000014400000000000FY00000000020220401000000000NNMQ0820220302141921    2F0F  00000480000000478100000760032AF    HBYHVTB 005500360039
BI00B32AF    #JTB2043       202203257183-2413                CONNECTOR HOUSING        CCN000019200000000000FY00000000020220401000000000NNMQ0820220302141938    2F0F  00000480000000478100000760032AF    HBYHVTB 005500360039
BI00B32AF    #JTB2044       202204017183-2413                CONNECTOR HOUSING        CCN000014400000000000FY00000000020220401000000000NNMQ0820220302142009    2F0F  00000480000000478100000760032AF    HBYHVTB 005500360039
BI00B32AF    JTB203L        202203047283-4577-30             CONNECTOR HOUSING        CCN000004800000004800FN00000000020220301000004800NNE00020220302133518    4N0N  00000480000000916800001136832AF    HBYHVTB 005500360039
BI00B32AG    XG22061NMW     202205067116-4120-02             TERMINAL                 CCN000018000000018000FN00000000020220601000018000NNM   20220302121801    4P0P  00000600000000780000001073632AG    XGXGY   006400630015
BI00B32AG    XG22062NMW     202205137116-4120-02             TERMINAL                 CCN000012000000012000FN00000000020220601000012000NNM   20220302121801    4P0P  00000600000000780000001073632AG    XGXGY   006400630015
BI00B32AG    XG22063NMW     202205207116-4120-02             TERMINAL                 CCN000012000000012000FN00000000020220601000012000NNM   20220302121801    4P0P  00000600000000780000001073632AG    XGXGY   006400630015
BI00B32AG    XG22064NMW     202205277116-4120-02             TERMINAL                 CCN000012000000012000FN00000000020220601000012000NNM   20220302121801    4P0P  00000600000000780000001073632AG    XGXGY   006400630015
BI00B32AG    XG22061NMW     202205067116-4121-02             TERMINAL                 CCN000045000000045000FN00000000020220601000045000NNM   20220302121801    4P0P  00000450000000618800000912432AG    XGXGY   006400630015
BI00B32AG    XG22062NMW     202205137116-4121-02             TERMINAL                 CCN000063000000063000FN00000000020220601000063000NNM   20220302121801    4P0P  00000450000000618800000912432AG    XGXGY   006400630015
BI00B32AG    XG22063NMW     202205207116-4121-02             TERMINAL                 CCN000058500000058500FN00000000020220601000058500NNM   20220302121801    4P0P  00000450000000618800000912432AG    XGXGY   006400630015
BI00B32AG    XG22064NMW     202205277116-4121-02             TERMINAL                 CCN000063000000063000FN00000000020220601000063000NNM   20220302121801    4P0P  00000450000000618800000912432AG    XGXGY   006400630015
BI00B32AG    XG22061NMW     202205067116-4122-02             TERMINAL                 CCN000013500000013500FN00000000020220601000013500NNM   20220302121801    4P0P  00000450000000656600000950232AG    XGXGY   006400630015
BI00B32AG    XG22062NMW     202205137116-4122-02             TERMINAL                 CCN000009000000009000FN00000000020220601000009000NNM   20220302121801    4P0P  00000450000000656600000950232AG    XGXGY   006400630015
BI00B32AG    XG22063NMW     202205207116-4122-02             TERMINAL                 CCN000009000000009000FN00000000020220601000009000NNM   20220302121801    4P0P  00000450000000656600000950232AG    XGXGY   006400630015
BI00B32AG    XG22064NMW     202205277116-4122-02             TERMINAL                 CCN000009000000009000FN00000000020220601000009000NNM   20220302121801    4P0P  00000450000000656600000950232AG    XGXGY   006400630015
BI00B32AG    XG22061NMW     202205067116-4415-02             TERMINAL                 CCN000152000000152000FN00000000020220601000152000NNM   20220302121801    4P0P  00003800000000596600000925732AG    XGXGY   006400630017
BI00B32AG    XG22062NMW     202205137116-4415-02             TERMINAL                 CCN000570000000570000FN00000000020220601000570000NNM   20220302121801    4P0P  00003800000000596600000925732AG    XGXGY   006400630017
BI00B32AG    XG22063NMW     202205207116-4415-02             TERMINAL                 CCN000570000000570000FN00000000020220601000570000NNM   20220302121801    4P0P  00003800000000596600000925732AG    XGXGY   006400630017
BI00B32AG    XG22064NMW     202205277116-4415-02             TERMINAL                 CCN000608000000608000FN00000000020220601000608000NNM   20220302121801    4P0P  00003800000000596600000925732AG    XGXGY   006400630017
BI00B32AG    XG22061NMW     202205067126-8853-02             TERMINAL                 CCN000037500000037500FN00000000020220601000037500NNM   20220302121801    4P0P  00000750000000562500000847732AG    XGXGY   006400630015
BI00B32AG    XG22062NMW     202205137126-8853-02             TERMINAL                 CCN000052500000052500FN00000000020220601000052500NNM   20220302121801    4P0P  00000750000000562500000847732AG    XGXGY   006400630015
BI00B32AG    XG22063NMW     202205207126-8853-02             TERMINAL                 CCN000060000000060000FN00000000020220601000060000NNM   20220302121801    4P0P  00000750000000562500000847732AG    XGXGY   006400630015
BI00B32AG    XG22064NMW     202205277126-8853-02             TERMINAL                 CCN000052500000052500FN00000000020220601000052500NNM   20220302121801    4P0P  00000750000000562500000847732AG    XGXGY   006400630015
BI00B32AG    XG22063NMW     202205207126-8854-02             TERMINAL                 CCN000007500000007500FN00000000020220601000007500NNM   20220302121801    4P0P  00000750000000604500000889732AG    XGXGY   006400630015
BI00B32AG    XG22064NMW     202205277126-8854-02             TERMINAL                 CCN000007500000007500FN00000000020220601000007500NNM   20220302121801    4P0P  00000750000000604500000889732AG    XGXGY   006400630015
BI00B32AG    XG22061NMW     202205067126-8855-02             TERMINAL                 CCN000012000000012000FN00000000020220601000012000NNM   20220302121801    4P0P  00000600000000510600000795832AG    XGXGY   006400630015
BI00B32AG    XG22062NMW     202205137126-8855-02             TERMINAL                 CCN000012000000012000FN00000000020220601000012000NNM   20220302121801    4P0P  00000600000000510600000795832AG    XGXGY   006400630015
BI00B32AG    XG22063NMW     202205207126-8855-02             TERMINAL                 CCN000018000000018000FN00000000020220601000018000NNM   20220302121801    4P0P  00000600000000510600000795832AG    XGXGY   006400630015
BI00B32AG    XG22064NMW     202205277126-8855-02             TERMINAL                 CCN000012000000012000FN00000000020220601000012000NNM   20220302121801    4P0P  00000600000000510600000795832AG    XGXGY   006400630015
BI00B32AG    XG22061NMW     202205067158-3165-90             WIRE SEAL                CCN000120000000120000FN00000000020220601000120000NNM   20220302121801    1C0C  00004000000000124000000172432AG    XGXGY   004300270014
BI00B32AG    XG22062NMW     202205137158-3165-90             WIRE SEAL                CCN000200000000200000FN00000000020220601000200000NNM   20220302121801    1C0C  00004000000000124000000172432AG    XGXGY   004300270014
BI00B32AG    XG22063NMW     202205207158-3165-90             WIRE SEAL                CCN000240000000240000FN00000000020220601000240000NNM   20220302121801    1C0C  00004000000000124000000172432AG    XGXGY   004300270014
BI00B32AG    XG22064NMW     202205277158-3165-90             WIRE SEAL                CCN000200000000200000FN00000000020220601000200000NNM   20220302121801    1C0C  00004000000000124000000172432AG    XGXGY   004300270014
BI00B32AG    XG22061NMW     202205067158-3166-60             WIRE SEAL                CCN000080000000080000FN00000000020220601000080000NNM   20220302121801    1C0C  00004000000000104000000152432AG    XGXGY   002700430014
BI00B32AG    XG22062NMW     202205137158-3166-60             WIRE SEAL                CCN000440000000440000FN00000000020220601000440000NNM   20220302121801    1C0C  00004000000000104000000152432AG    XGXGY   002700430014
BI00B32AG    XG22063NMW     202205207158-3166-60             WIRE SEAL                CCN000400000000400000FN00000000020220601000400000NNM   20220302121801    1C0C  00004000000000104000000152432AG    XGXGY   002700430014
BI00B32AG    XG22064NMW     202205277158-3166-60             WIRE SEAL                CCN000520000000520000FN00000000020220601000520000NNM   20220302121801    1C0C  00004000000000104000000152432AG    XGXGY   002700430014
BI00B32AG    XG22061NMW     202205067158-3167-80             WIRE SEAL                CCN000080000000080000FN00000000020220601000080000NNM   20220302121801    1C0C  00002000000000048000000109032AG    XGXGY   002700430014
BI00B32AG    XG22062NMW     202205137158-3167-80             WIRE SEAL                CCN000260000000260000FN00000000020220601000260000NNM   20220302121801    1C0C  00002000000000048000000109032AG    XGXGY   002700430014
BI00B32AG    XG22063NMW     202205207158-3167-80             WIRE SEAL                CCN000260000000260000FN00000000020220601000260000NNM   20220302121801    1C0C  00002000000000048000000109032AG    XGXGY   002700430014
BI00B32AG    XG22064NMW     202205277158-3167-80             WIRE SEAL                CCN000260000000260000FN00000000020220601000260000NNM   20220302121801    1C0C  00002000000000048000000109032AG    XGXGY   002700430014
BI00B32AG    XG22063NMW     202205207158-3168-80             SEALED                   CCN000040000000040000FN00000000020220601000040000NNM   20220302121801    1C0C  00002000000000044000000092132AG    XGXGY   004300260014
BI00B32AG    XG22064NMW     202205277158-3168-80             SEALED                   CCN000040000000040000FN00000000020220601000040000NNM   20220302121801    1C0C  00002000000000044000000092132AG    XGXGY   004300260014
BI00B32AG    XG22062NMW     202205137158-3169-40             SEALING PLUG             CCN000080000000080000FN00000000020220601000080000NNM   20220302121801    1C0C  00004000000000156000000204132AG    XGXGY   004300260014
BI00B32AG    XG22063NMW     202205207158-3169-40             SEALING PLUG             CCN000080000000080000FN00000000020220601000080000NNM   20220302121801    1C0C  00004000000000156000000204132AG    XGXGY   004300260014
BI00B32AG    XG22064NMW     202205277158-3169-40             SEALING PLUG             CCN000080000000080000FN00000000020220601000080000NNM   20220302121801    1C0C  00004000000000156000000204132AG    XGXGY   004300260014
BI00B32AG    #XG22062NMW    202205137123-6423-30             CONNECTOR                CCN000002000000002000FN00000000020220601000002000NNM   20220302121801    2F0F  00000200000001002000001167632AG    XGXGY   005600390023
BI00B32AG    #XG22063NMW    202205207123-6423-30             CONNECTOR                CCN000006000000006000FN00000000020220601000006000NNM   20220302121801    2F0F  00000200000001002000001167632AG    XGXGY   005600390023
BI00B32AG    #XG22064NMW    202205277123-6423-30             CONNECTOR                CCN000004000000004000FN00000000020220601000004000NNM   20220302121801    2F0F  00000200000001002000001167632AG    XGXGY   005600390023
BI00B32AG    XG22061CMW     202205067B72-5540-80             SEALED WIRE SEAL         CCN000020000000020000FN00000000020220601000020000NNM   20220302121801    1C0C  00002000000000186000000234432AG    XGXGY   004300270014
BI00B32AG    XG22062CMW     202205137B72-5540-80             SEALED WIRE SEAL         CCN000020000000020000FN00000000020220601000020000NNM   20220302121801    1C0C  00002000000000186000000234432AG    XGXGY   004300270014
BI00B32AG    XG22063CMW     202205207B72-5540-80             SEALED WIRE SEAL         CCN000020000000020000FN00000000020220601000020000NNM   20220302121801    1C0C  00002000000000186000000234432AG    XGXGY   004300270014
BI00B32AG    XG22064CMW     202205277B72-5540-80             SEALED WIRE SEAL         CCN000020000000020000FN00000000020220601000020000NNM   20220302121801    1C0C  00002000000000186000000234432AG    XGXGY   004300270014
BI00B32AG    XG22062CMW     202205137B96-0805-02             TERMINAL FEMALE          CCN000022500000022500FN00000000020220601000022500NNM   20220302121801    4P0P  00002250000000558000000843232AG    XGXGY   006400630015
BI00B32AG    XG22063CMW     202205207B96-0805-02             TERMINAL FEMALE          CCN000022500000022500FN00000000020220601000022500NNM   20220302121801    4P0P  00002250000000558000000843232AG    XGXGY   006400630015
BI00B32AG    XG22064CMW     202205277B96-0805-02             TERMINAL FEMALE          CCN000022500000022500FN00000000020220601000022500NNM   20220302121801    4P0P  00002250000000558000000843232AG    XGXGY   006400630015
BI00B32AG    XG22061CMW     202205067C89-6868-30             SEALED ASSY FEMALE       CCN000005040000005040FN00000000020220601000005040NNM   20220302121801    4N0N  00000252000000839200001119232AG    XGXGY   005500360039
BI00B32AG    XG22062CMW     202205137C89-6868-30             SEALED ASSY FEMALE       CCN000010080000010080FN00000000020220601000010080NNM   20220302121801    4N0N  00000252000000839200001119232AG    XGXGY   005500360039
BI00B32AG    XG22063CMW     202205207C89-6868-30             SEALED ASSY FEMALE       CCN000010080000010080FN00000000020220601000010080NNM   20220302121801    4N0N  00000252000000839200001119232AG    XGXGY   005500360039
BI00B32AG    XG22064CMW     202205277C89-6868-30             SEALED ASSY FEMALE       CCN000010080000010080FN00000000020220601000010080NNM   20220302121801    4N0N  00000252000000839200001119232AG    XGXGY   005500360039
BI00B32AG    XG22061CMW     202205067116-4032                TERMINAL                 CCN000006000000006000FN00000000020220601000006000NNM   20220302121801    4P0P  00000600000000532800000818032AG    XGXGY   006400630015
BI00B32AG    XG22062CMW     202205137116-4032                TERMINAL                 CCN000012000000012000FN00000000020220601000012000NNM   20220302121801    4P0P  00000600000000532800000818032AG    XGXGY   006400630015
BI00B32AG    XG22063CMW     202205207116-4032                TERMINAL                 CCN000012000000012000FN00000000020220601000012000NNM   20220302121801    4P0P  00000600000000532800000818032AG    XGXGY   006400630015
BI00B32AG    XG22064CMW     202205277116-4032                TERMINAL                 CCN000006000000006000FN00000000020220601000006000NNM   20220302121801    4P0P  00000600000000532800000818032AG    XGXGY   006400630015
BI00B32AG    XG22061CMW     202205067116-6041                TERMINAL                 CCN000036000000036000FN00000000020220601000036000NNM   20220302121801    4P0P  00000450000000716000001009632AG    XGXGY   006400630015
BI00B32AG    XG22062CMW     202205137116-6041                TERMINAL                 CCN000036000000036000FN00000000020220601000036000NNM   20220302121801    4P0P  00000450000000716000001009632AG    XGXGY   006400630015
BI00B32AG    XG22063CMW     202205207116-6041                TERMINAL                 CCN000036000000036000FN00000000020220601000036000NNM   20220302121801    4P0P  00000450000000716000001009632AG    XGXGY   006400630015
BI00B32AG    XG22064CMW     202205277116-6041                TERMINAL                 CCN000036000000036000FN00000000020220601000036000NNM   20220302121801    4P0P  00000450000000716000001009632AG    XGXGY   006400630015
BI00B32AG    XG22061CMW     202205067158-3070-80             RUBBER STOPPER           CCN000040000000040000FN00000000020220601000040000NNM   20220302121801    1C0C  00004000000000276000000333332AG    XGXGY   002700430014
BI00B32AG    XG22063CMW     202205207158-3070-80             RUBBER STOPPER           CCN000040000000040000FN00000000020220601000040000NNM   20220302121801    1C0C  00004000000000276000000333332AG    XGXGY   002700430014
BI00B32AG    XG22061CMW     202205067172-5540-80             SEALED WIRE SEAL         CCN000020000000020000FN00000000020220601000020000NNM   20220302121801    1C0C  00002000000000186000000234432AG    XGXGY   004300270014
BI00B32AG    XG22062CMW     202205137172-5540-80             SEALED WIRE SEAL         CCN000020000000020000FN00000000020220601000020000NNM   20220302121801    1C0C  00002000000000186000000234432AG    XGXGY   004300270014
BI00B32AG    XG22063CMW     202205207172-5540-80             SEALED WIRE SEAL         CCN000020000000020000FN00000000020220601000020000NNM   20220302121801    1C0C  00002000000000186000000234432AG    XGXGY   004300270014
BI00B32AG    XG22064CMW     202205277172-5540-80             SEALED WIRE SEAL         CCN000020000000020000FN00000000020220601000020000NNM   20220302121801    1C0C  00002000000000186000000234432AG    XGXGY   004300270014
BI00B32AG    XG22061CMW     202205067196-0805-02             TERMINAL FEMALE          CCN000022500000022500FN00000000020220601000022500NNM   20220302121801    4P0P  00002250000000558000000843232AG    XGXGY   006400630015
BI00B32AG    XG22062CMW     202205137196-0805-02             TERMINAL FEMALE          CCN000022500000022500FN00000000020220601000022500NNM   20220302121801    4P0P  00002250000000558000000843232AG    XGXGY   006400630015
BI00B32AG    XG22063CMW     202205207196-0805-02             TERMINAL FEMALE          CCN000022500000022500FN00000000020220601000022500NNM   20220302121801    4P0P  00002250000000558000000843232AG    XGXGY   006400630015
BI00B32AG    XG22061CMW     202205067298-3822-70             HOUSING FEMALE ASS'Y     CCN000005040000005040FN00000000020220601000005040NNM   20220302121801    4N0N  00000252000000776200001077032AG    XGXGY   005500360039
BI00B32AG    XG22062CMW     202205137298-3822-70             HOUSING FEMALE ASS'Y     CCN000010080000010080FN00000000020220601000010080NNM   20220302121801    4N0N  00000252000000776200001077032AG    XGXGY   005500360039
BI00B32AG    XG22063CMW     202205207298-3822-70             HOUSING FEMALE ASS'Y     CCN000010080000010080FN00000000020220601000010080NNM   20220302121801    4N0N  00000252000000776200001077032AG    XGXGY   005500360039
BI00B32AG    XG22064CMW     202205277298-3822-70             HOUSING FEMALE ASS'Y     CCN000010080000010080FN00000000020220601000010080NNM   20220302121801    4N0N  00000252000000776200001077032AG    XGXGY   005500360039
BI00B32AG    XG22061CMW     202205067327-6832-60             MAIN FUSE                CCN000003000000003000FN00000000020220601000003000NNM   20220302121801    4N0N  00000060000000729200000930732AG    XGXGY   005400370024
BI00B32AG    XG22062CMW     202205137327-6832-60             MAIN FUSE                CCN000004800000004800FN00000000020220601000004800NNM   20220302121801    4N0N  00000060000000729200000930732AG    XGXGY   005400370024
BI00B32AG    XG22063CMW     202205207327-6832-60             MAIN FUSE                CCN000004800000004800FN00000000020220601000004800NNM   20220302121801    4N0N  00000060000000729200000930732AG    XGXGY   005400370024
BI00B32AG    XG22064CMW     202205277327-6832-60             MAIN FUSE                CCN000005400000005400FN00000000020220601000005400NNM   20220302121801    4N0N  00000060000000729200000930732AG    XGXGY   005400370024
BI00B32AG    XG22061CMW     202205067327-6884-30             MULTI FUSE               CCN000009216000009216FN00000000020220601000009216NNM   20220302121801    4N0N  00000028800000988900001154832AG    XGXGY   005400370024
BI00B32AG    XG22062CMW     202205137327-6884-30             MULTI FUSE               CCN000000864000000864FN00000000020220601000000864NNM   20220302121801    4N0N  00000028800000988900001154832AG    XGXGY   005400370024
BI00B32AG    XG22063CMW     202205207327-6884-30             MULTI FUSE               CCN000000576000000576FN00000000020220601000000576NNM   20220302121801    4N0N  00000028800000988900001154832AG    XGXGY   005400370024
BI00B32AG    XG22064CMW     202205277327-6884-30             MULTI FUSE               CCN000004896000004896FN00000000020220601000004896NNM   20220302121801    4N0N  00000028800000988900001154832AG    XGXGY   005400370024
BI00B32AG    XG22061CMW     202205067327-6908                MAIN FUSE                CCN000000600000000600FN00000000020220601000000600NNM   20220302121801    4N0N  00000060000000730400000915432AG    XGXGY   005400370024
BI00B32AG    XG22061CMW     202205067388-0316-80             CONNECTOR ASS'Y          CCN000003600000003600FN00000000020220601000003600NNM   20220302121801    4N0N  00000120000001002500001132532AG    XGXGY   005400370024
BI00B32AG    XG22062CMW     202205137388-0316-80             CONNECTOR ASS'Y          CCN000004800000004800FN00000000020220601000004800NNM   20220302121801    4N0N  00000120000001002500001132532AG    XGXGY   005400370024
BI00B32AG    XG22063CMW     202205207388-0316-80             CONNECTOR ASS'Y          CCN000004800000004800FN00000000020220601000004800NNM   20220302121801    4N0N  00000120000001002500001132532AG    XGXGY   005400370024
BI00B32AG    XG22064CMW     202205277388-0316-80             CONNECTOR ASS'Y          CCN000004800000004800FN00000000020220601000004800NNM   20220302121801    4N0N  00000120000001002500001132532AG    XGXGY   005400370024
BI00B32AG    #XG22064CMW    202205277157-3821                RUBBER STOPPER           CCN000020000000020000FN00000000020220601000020000NNM   20220302121801    2C0C  00002000000000176000000238032AG    XGXGY   002700430014
BI00B32AG    #XG22061CMW    202205067198-1371-60             HOUSING FEMALE           CCN000004000000004000FN00000000020220601000004000NNM   20220302121801    2F0F  00000200000000597800000721232AG    XGXGY   005400370024
BI00B32AG    #XG22062CMW    202205137198-1371-60             HOUSING FEMALE           CCN000004000000004000FN00000000020220601000004000NNM   20220302121801    2F0F  00000200000000597800000721232AG    XGXGY   005400370024
BI00B32AG    #XG22063CMW    202205207198-1371-60             HOUSING FEMALE           CCN000006000000006000FN00000000020220601000006000NNM   20220302121801    2F0F  00000200000000597800000721232AG    XGXGY   005400370024
BI00B32AG    #XG22064CMW    202205277198-1371-60             HOUSING FEMALE           CCN000004000000004000FN00000000020220601000004000NNM   20220302121801    2F0F  00000200000000597800000721232AG    XGXGY   005400370024
BI00B32AG    #XG22061CMW    202205067198-1372                HOUSING FEMALE           CCN000004000000004000FN00000000020220601000004000NNM   20220302121801    2F0F  00000200000000857200000982232AG    XGXGY   005400370024
BI00B32AG    #XG22062CMW    202205137198-1372                HOUSING FEMALE           CCN000004000000004000FN00000000020220601000004000NNM   20220302121801    2F0F  00000200000000857200000982232AG    XGXGY   005400370024
BI00B32AG    #XG22063CMW    202205207198-1372                HOUSING FEMALE           CCN000006000000006000FN00000000020220601000006000NNM   20220302121801    2F0F  00000200000000857200000982232AG    XGXGY   005400370024
BI00B32AG    #XG22064CMW    202205277198-1372                HOUSING FEMALE           CCN000004000000004000FN00000000020220601000004000NNM   20220302121801    2F0F  00000200000000857200000982232AG    XGXGY   005400370024
BI00B32AG    #XG22061CMW    202205067198-1373-60             HOUSING FEMALE           CCN000004000000004000FN00000000020220601000004000NNM   20220302121801    2F0F  00000200000000819400000947432AG    XGXGY   005400370024
BI00B32AG    #XG22062CMW    202205137198-1373-60             HOUSING FEMALE           CCN000004000000004000FN00000000020220601000004000NNM   20220302121801    2F0F  00000200000000819400000947432AG    XGXGY   005400370024
BI00B32AG    #XG22063CMW    202205207198-1373-60             HOUSING FEMALE           CCN000006000000006000FN00000000020220601000006000NNM   20220302121801    2F0F  00000200000000819400000947432AG    XGXGY   005400370024
BI00B32AG    #XG22064CMW    202205277198-1373-60             HOUSING FEMALE           CCN000004000000004000FN00000000020220601000004000NNM   20220302121801    2F0F  00000200000000819400000947432AG    XGXGY   005400370024
BI00B32AG    #XG22061CMW    202205067198-2458                HOUSING FEMALE           CCN000003520000003520FN00000000020220601000003520NNM   20220302121801    2F0F  00000176000000869100001160532AG    XGXGY   005400370024
BI00B32AG    #XG22062CMW    202205137198-2458                HOUSING FEMALE           CCN000003520000003520FN00000000020220601000003520NNM   20220302121801    2F0F  00000176000000869100001160532AG    XGXGY   005400370024
BI00B32AG    #XG22063CMW    202205207198-2458                HOUSING FEMALE           CCN000005280000005280FN00000000020220601000005280NNM   20220302121801    2F0F  00000176000000869100001160532AG    XGXGY   005400370024
BI00B32AG    #XG22064CMW    202205277198-2458                HOUSING FEMALE           CCN000005280000005280FN00000000020220601000005280NNM   20220302121801    2F0F  00000176000000869100001160532AG    XGXGY   005400370024
BI00B32AG    #XG22061CMW    202205067298-2459-60             LIF FEMALE ASSEMBLY      CCN000001680000001680FN00000000020220601000001680NNM   20220302121801    2N0N  00000016800000534000000729632AG    XGXGY   005400370024
BI00B32AG    #XG22062CMW    202205137298-2459-60             LIF FEMALE ASSEMBLY      CCN000005040000005040FN00000000020220601000005040NNM   20220302121801    2N0N  00000016800000534000000729632AG    XGXGY   005400370024
BI00B32AG    #XG22063CMW    202205207298-2459-60             LIF FEMALE ASSEMBLY      CCN000004872000004872FN00000000020220601000004872NNM   20220302121801    2N0N  00000016800000534000000729632AG    XGXGY   005400370024
BI00B32AG    #XG22064CMW    202205277298-2459-60             LIF FEMALE ASSEMBLY      CCN000005376000005376FN00000000020220601000005376NNM   20220302121801    2N0N  00000016800000534000000729632AG    XGXGY   005400370024
BI00B32AG    #XG22061GMW    202205067282-1140-90             HOUSING MALE ASS'Y       CCN000000500000000500FN00000000020220601000000500NNM   20220302121801    2N0N  00000050000000467500000590032AG    XGXGY   005400370024
BI00B32AG    #XG22062GMW    202205137282-1140-90             HOUSING MALE ASS'Y       CCN000000500000000500FN00000000020220601000000500NNM   20220302121801    2N0N  00000050000000467500000590032AG    XGXGY   005400370024
BI00B32AG    #XG22063GMW    202205207282-1140-90             HOUSING MALE ASS'Y       CCN000001000000001000FN00000000020220601000001000NNM   20220302121801    2N0N  00000050000000467500000590032AG    XGXGY   005400370024
BI00B32AG    #XG22064GMW    202205277282-1140-90             HOUSING MALE ASS'Y       CCN000000500000000500FN00000000020220601000000500NNM   20220302121801    2N0N  00000050000000467500000590032AG    XGXGY   005400370024
BI00B32AG    #XG22061HMW    202205067158-3005-80             RUBBER STOPPER           CCN000020000000020000FN00000000020220601000020000NNM   20220302121801    2H0H  00002000000000210000000268732AG    XGXGY   002700430014
BI00B32AG    #XG22064HMW    202205277158-3005-80             RUBBER STOPPER           CCN000020000000020000FN00000000020220601000020000NNM   20220302121801    2H0H  00002000000000210000000268732AG    XGXGY   002700430014
BI00B32AG    XG22062LMW     202205137017-1183-02             TERMINAL                 CCN000027000000027000FN00000000020220601000027000NNM   20220302121801    4P0P  00002700000001139400001307432AG    XGXGY   005100280028
BI00B32AG    XG22063LMW     202205207017-1183-02             TERMINAL                 CCN000027000000027000FN00000000020220601000027000NNM   20220302121801    4P0P  00002700000001139400001307432AG    XGXGY   005100280028
BI00B32AG    XG22064LMW     202205277017-1183-02             TERMINAL                 CCN000027000000027000FN00000000020220601000027000NNM   20220302121801    4P0P  00002700000001139400001307432AG    XGXGY   005100280028
BI00B32AG    XG22062LMW     202205137116-4025                TERMINAL                 CCN000016000000016000FN00000000020220601000016000NNM   20220302121801    4P0P  00001600000000644800000975132AG    XGXGY   006400630017
BI00B32AG    XG22063LMW     202205207116-4025                TERMINAL                 CCN000064000000064000FN00000000020220601000064000NNM   20220302121801    4P0P  00001600000000644800000975132AG    XGXGY   006400630017
BI00B32AG    XG22064LMW     202205277116-4025                TERMINAL                 CCN000064000000064000FN00000000020220601000064000NNM   20220302121801    4P0P  00001600000000644800000975132AG    XGXGY   006400630017
BI00B32AG    XG22062LMW     202205137116-4026                TERMINAL                 CCN000048000000048000FN00000000020220601000048000NNM   20220302121801    4P0P  00001600000000664000000994332AG    XGXGY   006400630017
BI00B32AG    XG22063LMW     202205207116-4026                TERMINAL                 CCN000048000000048000FN00000000020220601000048000NNM   20220302121801    4P0P  00001600000000664000000994332AG    XGXGY   006400630017
BI00B32AG    XG22064LMW     202205277116-4026                TERMINAL                 CCN000064000000064000FN00000000020220601000064000NNM   20220302121801    4P0P  00001600000000664000000994332AG    XGXGY   006400630017
BI00B32AG    XG22063LMW     202205207172-1372-10             FRONT HOLDER             CCN000003900000003900FN00000000020220601000003900NNM   20220302121801    4F0F  00000390000000655200000955232AG    XGXGY   005500360039
BI00B32AG    XG22064LMW     202205277172-1372-10             FRONT HOLDER             CCN000007800000007800FN00000000020220601000007800NNM   20220302121801    4F0F  00000390000000655200000955232AG    XGXGY   005500360039
BI00B32AG    XG22061LMW     202205067283-5843                CONNECTOR                CCN000001500000001500FN00000000020220601000001500NNM   20220302121801    1N0N  00000150000000889000001132032AG    XGXGY   005600390040
BI00B32AG    XG22062LMW     202205137283-5843                CONNECTOR                CCN000001500000001500FN00000000020220601000001500NNM   20220302121801    1N0N  00000150000000889000001132032AG    XGXGY   005600390040
BI00B32AG    XG22064LMW     202205277283-5843                CONNECTOR                CCN000001500000001500FN00000000020220601000001500NNM   20220302121801    1N0N  00000150000000889000001132032AG    XGXGY   005600390040
BI00B32AG    XG22062LMW     202205137289-4696-30             HOUSING FEMALE ASS'Y     CCN000014000000014000FN00000000020220601000014000NNM   20220302121801    4N0N  00000200000000913400001055432AG    XGXGY   005400370024
BI00B32AG    XG22063LMW     202205207289-4696-30             HOUSING FEMALE ASS'Y     CCN000016000000016000FN00000000020220601000016000NNM   20220302121801    4N0N  00000200000000913400001055432AG    XGXGY   005400370024
BI00B32AG    XG22064LMW     202205277289-4696-30             HOUSING FEMALE ASS'Y     CCN000016000000016000FN00000000020220601000016000NNM   20220302121801    4N0N  00000200000000913400001055432AG    XGXGY   005400370024
BI00B32AG    XG22062LMW     202205137289-7615-30             HOUSING FEMALE ASS'Y     CCN000001920000001920FN00000000020220601000001920NNM   20220302121801    4N0N  00000032000000738000000948032AG    XGXGY   005400370024
BI00B32AG    XG22063LMW     202205207289-7615-30             HOUSING FEMALE ASS'Y     CCN000004800000004800FN00000000020220601000004800NNM   20220302121801    4N0N  00000032000000738000000948032AG    XGXGY   005400370024
BI00B32AG    XG22064LMW     202205277289-7615-30             HOUSING FEMALE ASS'Y     CCN000004480000004480FN00000000020220601000004480NNM   20220302121801    4N0N  00000032000000738000000948032AG    XGXGY   005400370024
BI00B32AG    XG22061LMW     202205067388-0314                CONNECTOR ASS'Y          CCN000001200000001200FN00000000020220601000001200NNM   20220302121801    4N0N  00000120000001038000001132332AG    XGXGY   005400370024
BI00B32AG    XG22062LMW     202205137388-0314                CONNECTOR ASS'Y          CCN000001200000001200FN00000000020220601000001200NNM   20220302121801    4N0N  00000120000001038000001132332AG    XGXGY   005400370024
BI00B32AG    XG22063LMW     202205207388-0314                CONNECTOR ASS'Y          CCN000001200000001200FN00000000020220601000001200NNM   20220302121801    4N0N  00000120000001038000001132332AG    XGXGY   005400370024
BI00B32AG    XG22064LMW     202205277388-0314                CONNECTOR ASS'Y          CCN000001200000001200FN00000000020220601000001200NNM   20220302121801    4N0N  00000120000001038000001132332AG    XGXGY   005400370024
BI00B32AG    #XG22062LMW    202205137158-3003-90             RUBBER STOPPER           CCN000060000000060000FN00000000020220601000060000NNM   20220302121801    2C0C  00002000000000250000000306032AG    XGXGY   002700430014
BI00B32AG    #XG22063LMW    202205207158-3003-90             RUBBER STOPPER           CCN000060000000060000FN00000000020220601000060000NNM   20220302121801    2C0C  00002000000000250000000306032AG    XGXGY   002700430014
BI00B32AG    #XG22064LMW    202205277158-3003-90             RUBBER STOPPER           CCN000080000000080000FN00000000020220601000080000NNM   20220302121801    2C0C  00002000000000250000000306032AG    XGXGY   002700430014
BI00B32AG    #XG22062LMW    202205137158-3008-80             RUBBER STOPPER           CCN000020000000020000FN00000000020220601000020000NNM   20220302121801    2C0C  00002000000000288000000343032AG    XGXGY   004300270014
BI00B32AG    #XG22064LMW    202205277158-3008-80             RUBBER STOPPER           CCN000020000000020000FN00000000020220601000020000NNM   20220302121801    2C0C  00002000000000288000000343032AG    XGXGY   004300270014
BI00B32AG    #XG22062LMW    202205137158-3120-90             CONNECTOR WIRE SEAL      CCN000040000000040000FN00000000020220601000040000NNM   20220302121801    2C0C  00002000000000136000000194032AG    XGXGY   002700430014
BI00B32AG    #XG22063LMW    202205207158-3120-90             CONNECTOR WIRE SEAL      CCN000060000000060000FN00000000020220601000060000NNM   20220302121801    2C0C  00002000000000136000000194032AG    XGXGY   002700430014
BI00B32AG    #XG22064LMW    202205277158-3120-90             CONNECTOR WIRE SEAL      CCN000080000000080000FN00000000020220601000080000NNM   20220302121801    2C0C  00002000000000136000000194032AG    XGXGY   002700430014
BI00B32AG    #XG22062LMW    202205137158-3121-80             WIRE SEAL                CCN000020000000020000FN00000000020220601000020000NNM   20220302121801    2C0C  00002000000000118000000187332AG    XGXGY   002700430014
BI00B32AG    #XG22063LMW    202205207158-3121-80             WIRE SEAL                CCN000040000000040000FN00000000020220601000040000NNM   20220302121801    2C0C  00002000000000118000000187332AG    XGXGY   002700430014
BI00B32AG    #XG22064LMW    202205277158-3121-80             WIRE SEAL                CCN000020000000020000FN00000000020220601000020000NNM   20220302121801    2C0C  00002000000000118000000187332AG    XGXGY   002700430014
BI00B32AG    #XG22061LMW    202205067158-3654-80             WIRE TUBE                CCN000040000000040000FN00000000020220601000040000NNM   20220302121801    2H0H  00004000000000104000000152232AG    XGXGY   004300270014
BI00B32AG    #XG22062LMW    202205137158-3654-80             WIRE TUBE                CCN000120000000120000FN00000000020220601000120000NNM   20220302121801    2H0H  00004000000000104000000152232AG    XGXGY   004300270014
BI00B32AG    #XG22063LMW    202205207158-3654-80             WIRE TUBE                CCN000160000000160000FN00000000020220601000160000NNM   20220302121801    2H0H  00004000000000104000000152232AG    XGXGY   004300270014
BI00B32AG    #XG22064LMW    202205277158-3654-80             WIRE TUBE                CCN000120000000120000FN00000000020220601000120000NNM   20220302121801    2H0H  00004000000000104000000152232AG    XGXGY   004300270014
BI00B32AG    #XG22063LMW    202205207182-9631-40             JOINT CONNECTOR          CCN000003000000003000FN00000000020220601000003000NNM   20220302121801    2F0F  00000300000001182000001307432AG    XGXGY   005400370024
BI00B32AG    #XG22064LMW    202205277182-9631-40             JOINT CONNECTOR          CCN000006000000006000FN00000000020220601000006000NNM   20220302121801    2F0F  00000300000001182000001307432AG    XGXGY   005400370024
BI00B32AG    #XG22062LMW    202205137182-9633-40             JOINT CONNECTOR          CCN000003000000003000FN00000000020220601000003000NNM   20220302121801    2F0F  00000300000001335000001460532AG    XGXGY   005400370024
BI00B32AG    #XG22063LMW    202205207182-9633-40             JOINT CONNECTOR          CCN000006000000006000FN00000000020220601000006000NNM   20220302121801    2F0F  00000300000001335000001460532AG    XGXGY   005400370024
BI00B32AG    #XG22064LMW    202205277182-9633-40             JOINT CONNECTOR          CCN000009000000009000FN00000000020220601000009000NNM   20220302121801    2F0F  00000300000001335000001460532AG    XGXGY   005400370024
BI00B32AG    #XG22063MMW    202205207297-1907-30             HOUSING MALE ASS'Y       CCN000001500000001500FN00000000020220601000001500NNM   20220302121801    2N0N  00000150000000451800000568032AG    XGXGY   005400370024
BI00B32AG    XG22064QMW     202205277158-3022-80             RUBBER STOPPER           CCN000005000000005000FN00000000020220601000005000NNM   20220302121801    1C0C  00000500000000467500000524032AG    XGXGY   002700430014
BI00B32AG    XG22061QMW     202205067196-1460-02             TERMINAL FEMALE          CCN000085500000085500FN00000000020220601000085500NNM   20220302121801    4P0P  00002850000000444600000729832AG    XGXGY   006400630015
BI00B32AG    XG22062QMW     202205137196-1460-02             TERMINAL FEMALE          CCN000114000000114000FN00000000020220601000114000NNM   20220302121801    4P0P  00002850000000444600000729832AG    XGXGY   006400630015
BI00B32AG    XG22063QMW     202205207196-1460-02             TERMINAL FEMALE          CCN000085500000085500FN00000000020220601000085500NNM   20220302121801    4P0P  00002850000000444600000729832AG    XGXGY   006400630015
BI00B32AG    XG22064QMW     202205277196-1460-02             TERMINAL FEMALE          CCN000114000000114000FN00000000020220601000114000NNM   20220302121801    4P0P  00002850000000444600000729832AG    XGXGY   006400630015
BI00B32A7    ZZ2203ABMW     202203237172-5403-30             SEALED PACKING           CCN000040000000040000FN00000000020220301000040000NNED0620220302121801    1C0C  00000400000000653600000701732A7    ZZZZY   004300270014
BI00B32A7    ZZ22043BMW     202203167137-3047-30             UNIT PACKING             CCN000026000000000000FY00000000020220401000000000NNMQ0420220302095310    1C0C  00000100000000170500000218932A7    ZZZZY   002700430014
BI00B32A7    ZZ22044BMW     202203307172-5402-30             SEAL RUBBER              CCN000016000000016000FN00000000020220401000016000NNMD0620220302121801    1C0C  00000800000000457600000506032A7    ZZZZY   004300270014
BI00B32A7    ZZ22043BMW     202203237172-5403-30             SEALED PACKING           CCN000060000000060000FN00000000020220401000060000NNMD0620220302121801    1C0C  00000400000000653600000701732A7    ZZZZY   004300270014
BI00B32A7    ZZ22042LMW     202203167158-3167-80             WIRE SEAL                CCN000400000000400000FN00000000020220401000400000NNMD0620220302121801    1C0C  00002000000000048000000109032A7    ZZZZY   002700430014
BI00B32A7    ZZ22043LMW     202203237158-3167-80             WIRE SEAL                CCN000360000000360000FN00000000020220401000360000NNMD0620220302121801    1C0C  00002000000000048000000109032A7    ZZZZY   002700430014
BI00B32A7    ZZ22044LMW     202203307172-5402-30             SEAL RUBBER              CCN000008000000008000FN00000000020220401000008000NNMD0620220302121801    1C0C  00000800000000457600000506032A7    ZZZZY   004300270014
BI00B32A7    ZZ22043BMW     202203237137-3047-30             UNIT PACKING             CCN000013000000026000FN00000000020220401000026000NNMD0620220302121801    1C0C  00000100000000170500000218932A7    ZZZZY   002700430014
BI00B32CH    SJ22033HMW     202203037327-6868-30             MULTI FUSE               CCN000001440000001440FN00000000020220301000001440NNMD0020220302135943    4N0N  00000028800001013500001179432CH    SJSAMIJF005400370024
BI00B32CH    SJ2204BHMW     202203317298-3822-70             HOUSING FEMALE ASS'Y     CCN000000020000002520FN00000000020220401000002520NNED0420220302165424    4N0N  00000252000000776200001077032CH    SJSAMIJF005500360039
BI00B32CH    SJ2204BHMW     202204077327-6908                MAIN FUSE                CCN000001200000001200FN00000000020220401000001200NNED0420220302165446    4N0N  00000060000000730400000915432CH    SJSAMIJF005400370024
BI00B32CH    SJ2204BHMW     202204077327-6939-30             MULTI FUSE               CCN000000288000000288FN00000000020220401000000288NNED0420220302165506    4N00  00000028800000992200001158132CH    SJSAMIJF005400370024
BI00B32CH    SJ2204BHMW     202204077327-6941-30             MULTI FUSE               CCN000000288000000288FN00000000020220401000000288NNED0420220302165525    4N00  00000028800001014400001180332CH    SJSAMIJF005400370024
BI00B32DA    SBT2205        202204077283-5830                CONNECTOR                CCN000018000000018000FN00000000020220501000018000NNMD0220220302130237    1N47  00000600000000954000001104032DA    GBYIPLGB005500360039
BI00B32DA    SBT2205A       202204217283-5830                CONNECTOR                CCN000018000000018000FN00000000020220501000018000NNMD0220220302130258    1N47  00000600000000954000001104032DA    GBYIPLGB005500360039
BI00B32DA    SBT2205        202203317283-5845                CONNECTOR HOUSING        CCN000048000000012000FN00000000020220501000012000NNMD0220220302130729    1N0N  00000600000000444000000606332DA    GBYIPLGB005400370024
BI00B32DA    SBT2205A       202204287283-5845                CONNECTOR HOUSING        CCN000048000000024000FN00000000020220501000024000NNMD0220220302130824    1N0N  00000600000000444000000606332DA    GBYIPLGB005400370024
BI00B32DA    SBT2205        202204077283-5830-30             CONNECTOR                CCN000021000000024000FN00000000020220501000024000NNMD0220220302130318    1N0N  00000600000000954000001104032DA    GBYIPLGB005500360039
BI00B32DA    SBT2205A       202204217283-5830-30             CONNECTOR                CCN000021000000024000FN00000000020220501000024000NNMD0220220302130640    1N0N  00000600000000954000001104032DA    GBYIPLGB005500360039
BI00B32DA    SBT2205        202205057286-3885-40             CONNECTOR MALE ASS'Y     CCN000047575000004800FN00000000020220501000004800NNMD0420220302130932    1N0N  00000120000000910600001130632DA    GBYIPLGB005500360039
BI00B32DA    SBT2205A       202206097286-3885-40             CONNECTOR MALE ASS'Y     CCN000047575000012000FN00000000020220501000012000NNMD0420220302131147    1N0N  00000120000000910600001130632DA    GBYIPLGB005500360039
BI00B32DA    SBT2205        202204077283-5845                CONNECTOR HOUSING        CCN000018000000018000FN00000000020220501000018000NNMD0220220302130741    1N0N  00000600000000444000000606332DA    GBYIPLGB005400370024
BI00B32DA    SBT2205        202204217283-5845                CONNECTOR HOUSING        CCN000018000000018000FN00000000020220501000018000NNMD0220220302130746    1N0N  00000600000000444000000606332DA    GBYIPLGB005400370024
BI00B32DA    SBT2205A       202205057283-5845                CONNECTOR HOUSING        CCN000012000000012000FN00000000020220501000012000NNMD0220220302130837    1N0N  00000600000000444000000606332DA    GBYIPLGB005400370024
BI00B32DA    SBT2205A       202205127283-5845                CONNECTOR HOUSING        CCN000012000000012000FN00000000020220501000012000NNMD0220220302130843    1N0N  00000600000000444000000606332DA    GBYIPLGB005400370024
BI00B32DA    SBT2205        202205127286-3885-40             CONNECTOR MALE ASS'Y     CCN000010800000010800FN00000000020220501000010800NNMD0420220302131010    1N0N  00000120000000910600001130632DA    GBYIPLGB005500360039
BI00B32DA    SBT2205        202205197286-3885-40             CONNECTOR MALE ASS'Y     CCN000010800000010800FN00000000020220501000010800NNMD0420220302131025    1N0N  00000120000000910600001130632DA    GBYIPLGB005500360039
BI00B32DA    SBT2205        202205267286-3885-40             CONNECTOR MALE ASS'Y     CCN000010800000010800FN00000000020220501000010800NNMD0420220302131050    1N0N  00000120000000910600001130632DA    GBYIPLGB005500360039
BI00B32DA    SBT2205        202206027286-3885-40             CONNECTOR MALE ASS'Y     CCN000010800000010800FN00000000020220501000010800NNMD0420220302131055    1N0N  00000120000000910600001130632DA    GBYIPLGB005500360039
BI00B32DA    SBT2205A       202206167286-3885-40             CONNECTOR MALE ASS'Y     CCN000012000000012000FN00000000020220501000012000NNMD0420220302131201    1N0N  00000120000000910600001130632DA    GBYIPLGB005500360039
BI00B32DA    SBT2205A       202206237286-3885-40             CONNECTOR MALE ASS'Y     CCN000012000000012000FN00000000020220501000012000NNMD0420220302131214    1N0N  00000120000000910600001130632DA    GBYIPLGB005500360039
BI00B32DA    SBT2205A       202206307286-3885-40             CONNECTOR MALE ASS'Y     CCN000012000000012000FN00000000020220501000012000NNMD0420220302131220    1N0N  00000120000000910600001130632DA    GBYIPLGB005500360039
BI00A32D1    DFTC2203       202203037289-3342-90             HOUSING FEMALE ASS'Y     PCN000012000000012000FN00000000020220101000012000NNMM0020220302172840    1N0N  00000240000000686400000901432D1    TOYOT-K 005500360039
BI00B32D1    DFTC2222       202204077017-1181-02             TERMINAL                 CCN000063000000063000FN00000000020220601000063000NNM   20220302142750    4P0P  00006300000001089900001266832D1    TOYOT-K 005100280028
BI00B32D1    DFTC2222       202204077114-4032                TERMINAL                 CCN000007500000007500FN00000000020220601000007500NNM   20220302142750    4P0P  00000750000000735000001063632D1    TOYOT-K 006400630017
BI00B32D1    DFTC2222       202204077114-5748-02             TERMINAL                 CCN000144000000144000FN00000000020220601000144000NNM   20220302142750    4P0P  00001200000000444000000737632D1    TOYOT-K 006400630015
BI00B32D1    DFTC2222       202204077114-5753-02             TERMINAL                 CCN000297000000297000FN00000000020220601000297000NNM   20220302142750    4P0P  00002700000000847800001141432D1    TOYOT-K 006400630015
BI00B32D1    DFTC2222       202204077116-2891-02             TERMINAL                 CCN000150000000150000FN00000000020220601000150000NNM   20220302142750    4P0P  00001500000000982500001145932D1    TOYOT-K 005100280028
BI00B32D1    DFTC2222       202204077116-4101-02             TERMINAL                 CCN000024000000024000FN00000000020220601000024000NNM   20220302142750    4P0P  00001200000000582000000876232D1    TOYOT-K 006400630015
BI00B32D1    DFTC2222       202204077116-4110-02             TERMINAL                 CCN000072000000072000FN00000000020220601000072000NNM   20220302142750    4P0P  00000900000000594000000882232D1    TOYOT-K 006400630015
BI00B32D1    DFTC2222       202204077116-4111-02             TERMINAL                 CCN000045000000045000FN00000000020220601000045000NNM   20220302142750    4P0P  00000750000000529500000817732D1    TOYOT-K 006400630015
BI00B32D1    DFTC2222       202204077116-4112-02             TERMINAL                 CCN000102000000102000FN00000000020220601000102000NNM   20220302142750    4P0P  00000600000000450000000738232D1    TOYOT-K 006400630015
BI00B32D1    DFTC2222       202204077116-4486-02             TERMINAL                 CCN000224000000224000FN00000000020220601000224000NNM   20220302142750    4P0P  00002800000000666400000995132D1    TOYOT-K 006400630017
BI00B32D1    DFTC2222       202204077116-5045-02             TERMINAL                 CCN000176000000176000FN00000000020220601000176000NNM   20220302142750    4P0P  00001600000000678400001007132D1    TOYOT-K 006400630017
BI00B32D1    DFTC2222       202204077126-8853-02             TERMINAL                 CCN000157500000157500FN00000000020220601000157500NNM   20220302142750    4P0P  00000750000000562500000847732D1    TOYOT-K 006400630015
BI00B32D1    DFTC2222       202204077126-8854-02             TERMINAL                 CCN000135000000135000FN00000000020220601000135000NNM   20220302142750    4P0P  00000750000000604500000889732D1    TOYOT-K 006400630015
BI00B32D1    DFTC2222       202204077126-8855-02             TERMINAL                 CCN000150000000150000FN00000000020220601000150000NNM   20220302142750    4P0P  00000600000000510600000795832D1    TOYOT-K 006400630015
BI00B32D1    DFTC2222       202204077158-3070-80             RUBBER STOPPER           CCN000080000000080000FN00000000020220601000080000NNM   20220302142750    1C0C  00004000000000276000000333332D1    TOYOT-K 002700430014
BI00B32D1    DFTC2222       202204077196-0396-02             TERMINAL                 CCN000030000000030000FN00000000020220601000030000NNM   20220302142750    4P0P  00001500000000949500001112932D1    TOYOT-K 002800510028
BI00B32D1    DFTC2222       202204077196-0510-02             TERMINAL                 CCN000048000000048000FN00000000020220601000048000NNM   20220302142750    4P0P  00002400000000871200001034632D1    TOYOT-K 002800510028
BI00B32D1    DFTC2222       202204077282-4576                HOUSING MALE ASS'Y       CCN000009600000009600FN00000000020220601000009600NNM   20220302142750    4N0N  00000240000000808800001028832D1    TOYOT-K 005500360039
BI00B32D1    DFTC2222       202204077283-1156                CONNECTOR                CCN000008800000008800FN00000000020220601000008800NNM   20220302142750    4N0N  00000080000000877600001078032D1    TOYOT-K 005600390040
BI00B32D1    DFTC2222       202204077283-5830                CONNECTOR                CCN000006000000006000FN00000000020220601000006000NNM   20220302142750    1N47  00000600000000954000001104032D1    TOYOT-K 005500360039
BI00B32D1    DFTC2222       202204077288-6547                CONNECTOR MALE ASS'Y     CCN000013500000013500FN00000000020220601000013500NNM   20220302142750    4N0N  00000075000001205300001340332D1    TOYOT-K 005400370024
BI00B32D1    DFTC2222       202204077289-3342                HOUSING FEMALE ASS'Y     CCN000045600000045600FN00000000020220601000045600NNM   20220302142750    1N0N  00000240000000686400000901432D1    TOYOT-K 005500360039
BI00B32D1    DFTC2222       202204077289-3342-30             HOUSING FEMALE ASS'Y     CCN000132000000132000FN00000000020220601000132000NNM   20220302142750    1N0N  00000240000000686400000901432D1    TOYOT-K 005500360039
BI00B32D1    DFTC2222       202204077289-3342-40             HOUSING FEMALE ASS'Y     CCN000016800000016800FN00000000020220601000016800NNM   20220302142750    1N0N  00000240000000686400000901432D1    TOYOT-K 005500360039
BI00B32D1    DFTC2222       202204077289-3342-90             HOUSING FEMALE ASS'Y     CCN000012000000012000FN00000000020220601000012000NNM   20220302142750    1N0N  00000240000000686400000901432D1    TOYOT-K 005500360039
BI00B32D1    DFTC2222       202204077289-6547                HOUSING FEMALE ASS'Y     CCN000012000000012000FN00000000020220601000012000NNM   20220302142750    1N0N  00000240000001152000001362032D1    TOYOT-K 005500360039
BI00B32D1    DFTC2222       202204077296-0784-02             TERMINAL ALUMINIUM       CCN000072000000072000FN00000000020220601000072000NNM   20220302142750    4P0P  00002400000000480000000765232D1    TOYOT-K 006400630015
BI00B32D1    DFTC2222       202204077327-6731-3W             BATTERY FUSE             CCN000004160000004160FN00000000020220601000004160NNM   20220302142750    4N0N  00000006400000697600000843032D1    TOYOT-K 005400370024
BI00B32D1    DFTC2222       202204077388-2978-30             HOUSING MALE ASS'Y       CCN000020160000020160FN00000000020220601000020160NNM   20220302142750    1N0N  00000048000000742000001122032D1    TOYOT-K 005500360039
BI00B32D1    #DFTC2222      202204077158-3003-90             RUBBER STOPPER           CCN000200000000200000FN00000000020220601000200000NNM   20220302142747    2C0C  00002000000000250000000306032D1    TOYOT-K 002700430014
BI00B32D1    #DFTC2222      202204077158-3004-40             RUBBER STOPPER           CCN000040000000040000FN00000000020220601000040000NNM   20220302142747    2C0C  00002000000000234000000306332D1    TOYOT-K 002700430014
BI00B32D1    #DFTC2222      202204077158-3005-80             RUBBER STOPPER           CCN000080000000080000FN00000000020220601000080000NNM   20220302142747    2H0H  00002000000000210000000268732D1    TOYOT-K 002700430014
BI00B32D1    #DFTC2222      202204077158-3008-80             RUBBER STOPPER           CCN000120000000120000FN00000000020220601000120000NNM   20220302142747    2C0C  00002000000000288000000343032D1    TOYOT-K 004300270014
BI00B32D1    #DFTC2222      202204077158-3015-10             RUBBER STOPPER           CCN000040000000040000FN00000000020220601000040000NNM   20220302142747    2C0C  00001000000000419500000474032D1    TOYOT-K 002700430014
BI00B32D1    #DFTC2222      202204077158-3017                RUBBER STOPPER           CCN000060000000060000FN00000000020220601000060000NNM   20220302142747    2C0C  00001000000000375500000435032D1    TOYOT-K 002700430014
BI00B32D1    #DFTC2222      202204077172-5625-90             RUBBER STOPPER           CCN000020000000020000FN00000000020220601000020000NNM   20220302142747    2H0H  00002000000000082400000133832D1    TOYOT-K 004300270014
BI00B32D1    #DFTC2222      202204077172-5628-80             DUMMY PLUG               CCN000020000000020000FN00000000020220601000020000NNM   20220302142747    2H0H  00002000000000110600000162032D1    TOYOT-K 004300270014
BI00B32D1    #DFTC2222      202204077172-5629-80             RUBBER STOPPER           CCN000320000000320000FN00000000020220601000320000NNM   20220302142747    2H0H  00002000000000060000000111132D1    TOYOT-K 004300270014
BI00B32D1    #DFTC2222      202204077172-5630-40             RUBBER STOPPER           CCN000060000000060000FN00000000020220601000060000NNM   20220302142747    2H0H  00002000000000044000000095132D1    TOYOT-K 004300270014
BI00B32D1    #DFTC2222      202204077172-5631-60             RUBBER STOPPER           CCN000040000000040000FN00000000020220601000040000NNM   20220302142747    2H0H  00002000000000042000000093132D1    TOYOT-K 004300270014
BI00B32D1    #DFTC2222      202204077172-5632-10             DUMMY PLUG               CCN000140000000140000FN00000000020220601000140000NNM   20220302142747    2H0H  00002000000000080400000131832D1    TOYOT-K 004300270014
BI00B32D1    #DFTC2222      202204077183-2418-30             CONNECTOR HOUSING        CCN000009600000009600FN00000000020220601000009600NNM   20220302142747    2F0F  00000480000000917000001235332D1    TOYOT-K 005500360039
BI00B32D1    #DFTC2222      202204077189-2978-30             HOUSING FEMALE           CCN000019500000019500FN00000000020220601000019500NNM   20220302142747    2F0F  00000150000000966900001096932D1    TOYOT-K 005400370024
BI00B32D1    #DFTC2222      202204077189-3033                HOUSING FEMALE           CCN000014400000014400FN00000000020220601000014400NNM   20220302142747    2F0F  00000160000001211200001431232D1    TOYOT-K 005500360039
BI00B32D1    #DFTC2222      202204077189-3036                HOUSING FEMALE           CCN000004800000004800FN00000000020220601000004800NNM   20220302142747    2F0F  00000160000000921600001141632D1    TOYOT-K 005500360039
BI00B32D1    #DFTC2222      202204077282-1641                CONNECTOR                CCN000020000000020000FN00000000020220601000020000NNM   20220302142747    2N0N  00000200000000813000000986032D1    TOYOT-K 005500360039
BI00B32D1    #DFTC2222      202204077289-2912-40             HOUSING FEMALE ASS'Y     CCN000004000000004000FN00000000020220601000004000NNM   20220302142747    2N0N  00000200000000804000000931032D1    TOYOT-K 005400370024
BI00B32D1    #DFTC2222      202204077289-3622-30             HOUSING FEMALE ASS'Y     CCN000005184000005184FN00000000020220601000005184NNM   20220302142747    2N0N  00000043200000839400001038432D1    TOYOT-K 005400370024
BI00B32D1    #DFTC2222      202204077289-4200-30             HOUSING FEMALE ASS'Y     CCN000004000000004000FN00000000020220601000004000NNM   20220302142747    2N0N  00000200000000926000001021032D1    TOYOT-K 005400370024
BI00A32D2    #DGTC2206      202203237172-5630-40             RUBBER STOPPER           PCN000140000000140000FN00000000020220201000140000NNMD0420220302142813    2H0H  00002000000000044000000095132D2    TGYOT-G 004300270014
BI00B32D2    DGTC2216       202205127289-3342-30             HOUSING FEMALE ASS'Y     CCN000019200000019200FN00000000020220401000019200NNMS0020220302141229    1N0N  00000240000000686400000901432D2    TGYOT-G 005500360039
BI00A32D2    DGTC2218       202203047173-3291-40             LIF LEVER                CCN000014400000014400FN00000000020220501000014400NNMM0020220302171946    1F0F  00000240000000867800001067832D2    TGYOT-G 005500360039
BI00B32D2    DGTC2218       202203107289-6518-30             HOUSING FEMALE ASS'Y     CCN000013200000001200FN00000000020220501000001200NNMQ0020220302172016    1N0N  00000120000000829200001049232D2    TGYOT-G 005500360039
BI00A32D2    DGTC2218       202203047296-1020-02             TERMINAL ALUMINIUM       CCN000022500000022500FN00000000020220501000022500NNMM0020220302172039    4P0P  00002250000000699800000985032D2    TGYOT-G 006400630015
BI00A32D2    DGTC2219       202203047289-3342-30             HOUSING FEMALE ASS'Y     PCN000016800000007200FN00000000020220501000007200NNMM0020220302141309    1N0N  00000240000000686400000901432D2    TGYOT-G 005500360039
BI00B32D2    DGTC2221       202204077327-6801-3W             BATTERY FUSE             CCN000002688000002688FN00000000020220501000002688NNMD0420220302164848    4N0N  00000009600000928400001143432D2    TGYOT-G 005500360039
BI00B32D2    DGTC2221       202204077327-6803                MULTI FUSE               CCN000000560000000560FN00000000020220501000000560NNMD0420220302164907    4N0N  00000056000000854600001067032D2    TGYOT-G 005400370024
BI00B32D2    DGTC2221       202204077327-6806                MULTI FUSE               CCN000002800000002800FN00000000020220501000002800NNMD0420220302164930    4N0N  00000056000000851500001063932D2    TGYOT-G 005400370024
BI00B32D2    DGTC2221       202204077327-6809                MULTI FUSE               CCN000006160000006160FN00000000020220501000006160NNMD0420220302164944    4N0N  00000056000000849300001061732D2    TGYOT-G 005400370024
BI00B32D2    DGTC2221       202204077327-6930                MULTI FUSE               CCN000002800000002800FN00000000020220501000002800NNMD0420220302165003    4N0N  00000056000000848900001031932D2    TGYOT-G 005400370024
BI00B32D2    DGTC2219       202203177289-3342-30             HOUSING FEMALE ASS'Y     CCN000009600000009600FN00000000020220501000009600NNMM0020220302141309    1N0N  00000240000000686400000901432D2    TGYOT-G 005500360039
BI00A32D2    DGTC2218       202203047289-6518-30             HOUSING FEMALE ASS'Y     CCN000012000000012000FN00000000020220501000012000NNMM0020220302172022    1N0N  00000120000000829200001049232D2    TGYOT-G 005500360039
BI00B32EJ    T220225P02     202204077283-5843                CONNECTOR                CCN000060000000019500FN00000000020220301000019500NNED0220220302121801EJ  1N0N  00000150000000889000001132032EJ    EJYKBO  005600390040
BI00B32EJ    T220225P02     202204217283-5843                CONNECTOR                CCN000019500000019500FN00000000020220301000019500NNED0220220302121801EJ  1N0N  00000150000000889000001132032EJ    EJYKBO  005600390040
BI00B32EJ    T220225P02     202204287283-5843                CONNECTOR                CCN000021000000021000FN00000000020220301000021000NNED0220220302121801EJ  1N0N  00000150000000889000001132032EJ    EJYKBO  005600390040
BI00A32E1    #NC202F        202203217172-5631-60             RUBBER STOPPER           CCN000020000000020000FN00000000020220201000020000NNED0720220302121801    2H0H  00002000000000042000000093132E1    SPYSE   004300270014
BI00A32E1    #NC202F        202203217172-5632-10             DUMMY PLUG               CCN000020000000020000FN00000000020220201000020000NNED0720220302121801    2H0H  00002000000000080400000131832E1    SPYSE   004300270014
BI00B32G0    TZ22061EMW     202204197289-6597-70             HOUSING FEMALE ASS'Y     CCN000021600000010800FN00000000020220601000010800NNMQ0420220302165100    4N0N  00000216000001289500001539532G0    TTTJY   005500360039
BI00B32G0    TZ22062EMW     202205107289-6597-70             HOUSING FEMALE ASS'Y     CCN000010800000010800FN00000000020220601000010800NNMD0420220302165125    4N0N  00000216000001289500001539532G0    TTTJY   005500360039
BI00B32G0    TZ22063EMW     202205177289-6597-70             HOUSING FEMALE ASS'Y     CCN000008640000008640FN00000000020220601000008640NNMD0420220302165153    4N0N  00000216000001289500001539532G0    TTTJY   005500360039
BI00B32G0    TZ2204BEMW     202204197288-6598-70             HOUSING MALE ASS'Y       CCN000011520000011520FN00000000020220401000011520NNED0420220302170303    4N0N  00000144000001074200001429232G0    TTTJY   005500360039
BI00B32G0    TZ22061EMW     202205037289-6597-70             HOUSING FEMALE ASS'Y     CCN000010800000010800FN00000000020220601000010800NNMD0420220302165100    4N0N  00000216000001289500001539532G0    TTTJY   005500360039
BI00B32G7    JJ2204AMMW     202203247158-3023                RUBBER STOPPER           CCN000005000000005000FN00000000020220401000005000NNED0620220302154047    1C0C  00000500000000443500000502032G7    JIJAI   002700430014
BI00B32H0    TT22062VMW     202204267327-6731-3W             BATTERY FUSE             CCN000016640000006400FN00000000020220601000006400NNMQ0420220302165607    4N0N  00000006400000697600000843032H0    TTTJY   005400370024
BI00B32H0    TT22061VMW     202204267327-6949-30             MULTI FUSE               CCN000000288000000288FN00000000020220601000000288NNMD0420220302165638    4N00  00000028800000886700001052632H0    TTTJY   005400370024
BI00B32H0    TT22063VMW     202205107327-6949-30             MULTI FUSE               CCN000000288000000288FN00000000020220601000000288NNMD0420220302165658    4N00  00000028800000886700001052632H0    TTTJY   005400370024
BI00B32H0    TT22061VMW     202204267327-6950-30             MULTI FUSE               CCN000000288000000288FN00000000020220601000000288NNMD0420220302165717    4N00  00000028800000888700001054632H0    TTTJY   005400370024
BI00B32H0    TT22062VMW     202205037327-6950-30             MULTI FUSE               CCN000000288000000288FN00000000020220601000000288NNMD0420220302165740    4N00  00000028800000888700001054632H0    TTTJY   005400370024
BI00B32H0    TT22063VMW     202205107327-6950-30             MULTI FUSE               CCN000000288000000288FN00000000020220601000000288NNMD0420220302165804    4N00  00000028800000888700001054632H0    TTTJY   005400370024
BI00B32H0    TT22064VMW     202205177327-6950-30             MULTI FUSE               CCN000000288000000288FN00000000020220601000000288NNMD0420220302165824    4N00  00000028800000888700001054632H0    TTTJY   005400370024
BI00B32H0    TT22061VMW     202204267327-6952-30             MULTI FUSE               CCN000000560000000560FN00000000020220601000000560NNMD0420220302165845    4N0N  00000056000000848500001031532H0    TTTJY   005400370024
BI00B32H0    TT22063VMW     202205107327-6952-30             MULTI FUSE               CCN000000560000000560FN00000000020220601000000560NNMD0420220302165914    4N0N  00000056000000848500001031532H0    TTTJY   005400370024
BI00B32H0    TT22061VMW     202204267327-6954-30             MULTI FUSE               CCN000000600000000600FN00000000020220601000000600NNMD0420220302165940    4N00  00000060000000751600000954332H0    TTTJY   005400370024
BI00B32H0    TT22062VMW     202205037327-6954-30             MULTI FUSE               CCN000000600000000600FN00000000020220601000000600NNMD0420220302170008    4N00  00000060000000751600000954332H0    TTTJY   005400370024
BI00B32H0    TT22063VMW     202205107327-6954-30             MULTI FUSE               CCN000000600000000600FN00000000020220601000000600NNMD0420220302170027    4N00  00000060000000751600000954332H0    TTTJY   005400370024
BI00B32H0    TT2205AVMW     202204197289-6547                HOUSING FEMALE ASS'Y     CCN000002400000002400FN00000000020220501000002400NNED0220220302131255    1N0N  00000240000001152000001362032H0    TTTJY   005500360039
BI00B32H0    TT2205AVMW     202204267298-3484                HOUSING FEMALE ASS'Y     CCN000004200000005400FN00000000020220501000005400NNED0420220302170410    4N0N  00000270000000742500001028732H0    TTTJY   005400370024
BI00B32H0    TT22062VMW     202205037327-6731-3W             BATTERY FUSE             CCN000010240000010240FN00000000020220601000010240NNMD0420220302165612    4N0N  00000006400000697600000843032H0    TTTJY   005400370024
BI00B32H2    TIJ2043        202204017158-3009-60             RUBBER STOPPER           CCN000400000000400000FN00000000020220401000400000NNMD0620220302151302    1C0C  00002000000000338000000386232H2    HVYHV   002700430014
BI00B32H2    TIJ2042        202203117470-5651                J/B COMPLETE ASS'Y       CCN000000040000000040FN00000000020220401000000040NNMD0020220302160618    4J0J  00000001000000494000000661032H2    HVYHV   005400370024
BI00B32H2    TIJ2043        202203117470-5651                J/B COMPLETE ASS'Y       CCN000000030000000030FN00000000020220401000000030NNMD0020220302160636    4J0J  00000001000000494000000661032H2    HVYHV   005400370024
BI00B32H2    TIJ2044        202203117470-5651                J/B COMPLETE ASS'Y       CCN000000040000000040FN00000000020220401000000040NNMD0020220302160653    4J0J  00000001000000494000000661032H2    HVYHV   005400370024
BI00B32H2    #TIJ2041       202203117172-5632-10             DUMMY PLUG               CCN000200000000000000FY00000000020220401000000000NNMQ0820220302144631    2H0H  00002000000000080400000131832H2    HVYHV   004300270014
BI00B32H2    #TIJ2042       202203187172-5632-10             DUMMY PLUG               CCN000180000000000000FY00000000020220401000000000NNMQ0820220302144652    2H0H  00002000000000080400000131832H2    HVYHV   004300270014
BI00B32H2    #TIJ2043       202203257172-5632-10             DUMMY PLUG               CCN000200000000000000FY00000000020220401000000000NNMQ0820220302144721    2H0H  00002000000000080400000131832H2    HVYHV   004300270014
BI00B32H2    #TIJ2043       202203257182-2410                CONNECTOR HOUSING        CCN000008400000000000FY00000000020220401000000000NNMQ0820220302102127    2F0F  00000120000000959800001245632H2    HVYHV   005500360039
BI00B32H2    #TIJ2044       202204017182-2410                CONNECTOR HOUSING        CCN000008400000006000FN00000000020220401000006000NNMQ0820220302121801    2F0F  00000120000000959800001245632H2    HVYHV   005500360039
BI00B32H2    #TIJ2044       202204017183-1615                HOUSING                  CCN000004800000000000FY00000000020220401000000000NNMQ0820220302102435    2F0F  00000480000000757000001042032H2    HVYHV   005500360039
BI00B32H2    #TIJ2044       202204017183-1616-30             CONNECTOR HOUSING        CCN000004800000000000FY00000000020220401000000000NNMQ0820220302102233    2F0F  00000240000000557500000837132H2    HVYHV   005500360039
BI00B32H2    #TIJ2044       202204017183-1616-90             CONNECTOR HOUSING        CCN000004800000000000FY00000000020220401000000000NNMQ0820220302102304    2F0F  00000240000000554300000760532H2    HVYHV   005500360039
BI00B32H2    #TIJ2043       202203257183-2511                HOUSING                  CCN000001600000000000FY00000000020220401000000000NNMQ0820220302102147    2F0F  00000160000000972200001242132H2    HVYHV   005500360039
BI00B32H2    #TIJ2044       202204017183-2511                HOUSING                  CCN000003200000000000FY00000000020220401000000000NNMQ0820220302102321    2F0F  00000160000000972200001242132H2    HVYHV   005500360039
BI00B32H2    #TIJ2043       202203257282-1214                CONNECTOR                CCN000003000000000000FY00000000020220401000000000NNMQ0820220302102414    2N0N  00000100000000900000001030032H2    HVYHV   005500360039
BI00B32H2    #TIJ2044       202204017282-1214                CONNECTOR                CCN000002000000000000FY00000000020220401000000000NNMQ0820220302102459    2N0N  00000100000000900000001030032H2    HVYHV   005500360039
BI00B32H7    FS22042DMW     202203167158-3006-90             RUBBER STOPPER           CCN000280000000280000FN00000000020220401000280000NNMD0620220302121801    1C0C  00002000000000330600000386032H7    FYFSY   002700430014
BI00B32H7    FS22043DMW     202203237158-3006-90             RUBBER STOPPER           CCN000240000000240000FN00000000020220401000240000NNMD0620220302121801    1C0C  00002000000000330600000386032H7    FYFSY   002700430014
BI00B32H7    FS22044DMW     202203307158-3006-90             RUBBER STOPPER           CCN000240000000240000FN00000000020220401000240000NNMD0620220302121801    1C0C  00002000000000330600000386032H7    FYFSY   002700430014
BI00B32H7    FS22044DMW     202203307158-3009-60             RUBBER STOPPER           CCN000660000000660000FN00000000020220401000660000NNMD0620220302121801    1C0C  00002000000000338000000386232H7    FYFSY   002700430014
BI00B32H8    TY22034 MW     202203117158-3006-90             RUBBER STOPPER           CCN000200000000200000FN00000000020220301000200000NNMD0620220302121801    1C0C  00002000000000330600000386032H8    TYTYC   002700430014
BI00B32K8    #K1220010486   202203117137-2718-50             SEALED CONNECTOR         CCN000004000000004000FN00000000020220401000004000NNM   20220302121801    2C0C  00000100000000118300000236632K8    ELELCOM 002700430014
BI00B32K8    #K1220010487   202203187137-2718-50             SEALED CONNECTOR         CCN000006000000006000FN00000000020220501000006000NNM   20220302121801    2C0C  00000100000000118300000236632K8    ELELCOM 002700430014
BI00B32K8    #K1220010488   202203257137-2718-50             SEALED CONNECTOR         CCN000010000000010000FN00000000020220501000010000NNM   20220302121801    2C0C  00000100000000118300000236632K8    ELELCOM 002700430014
BI00B32K8    #K1220010491   202204017137-2717-50             SEALED CONNECTOR         CCN000012000000012000FN00000000020220501000012000NNM   20220302121801    2C0C  00000400000000212800000284032K8    ELELCOM 002700430014
BI00B32M1    #TCVL2052      202204217125-3236-30             HEAD LAMP CONNECTOR      CCN000002800000002800FN00000000020220501000002800NNM   20220302162110    2F0F  00000280000000945000001085932M1    VNYEV   005500360039
BI00B32M1    #TCVL2052      202204217154-5597-30             CASSETTE R/B             CCN000020000000020000FN00000000020220501000020000NNM   20220302162110    2F0F  00000080000000736000000952032M1    VNYEV   005500360039
BI00B32M1    #TCVL2051      202204077158-3003-90             RUBBER STOPPER           CCN000040000000040000FN00000000020220501000040000NNM   20220302162110    2C0C  00002000000000250000000306032M1    VNYEV   002700430014
BI00B32M1    #TCVL2052      202204217158-3003-90             RUBBER STOPPER           CCN000060000000060000FN00000000020220501000060000NNM   20220302162110    2C0C  00002000000000250000000306032M1    VNYEV   002700430014
BI00B32M1    #TCVL2052      202204217158-3007-10             RUBBER STOPPER           CCN000180000000180000FN00000000020220501000180000NNM   20220302162110    2H0H  00002000000000308000000362732M1    VNYEV   002700430014
BI00B32M1    #TCVL2051      202204077158-3008-80             RUBBER STOPPER           CCN000240000000240000FN00000000020220501000240000NNM   20220302162110    2C0C  00002000000000288000000343032M1    VNYEV   004300270014
BI00B32M1    #TCVL2052      202204217158-3008-80             RUBBER STOPPER           CCN000400000000400000FN00000000020220501000400000NNM   20220302162110    2C0C  00002000000000288000000343032M1    VNYEV   004300270014
BI00B32M1    #TCVL2051      202204077158-3015-10             RUBBER STOPPER           CCN000060000000060000FN00000000020220501000060000NNM   20220302162110    2C0C  00001000000000419500000474032M1    VNYEV   002700430014
BI00B32M1    #TCVL2052      202204217158-3015-10             RUBBER STOPPER           CCN000080000000080000FN00000000020220501000080000NNM   20220302162110    2C0C  00001000000000419500000474032M1    VNYEV   002700430014
BI00B32M1    #TCVL2051      202204077158-3017                RUBBER STOPPER           CCN000080000000080000FN00000000020220501000080000NNM   20220302162110    2C0C  00001000000000375500000435032M1    VNYEV   002700430014
BI00B32M1    #TCVL2052      202204217158-3017                RUBBER STOPPER           CCN000160000000160000FN00000000020220501000160000NNM   20220302162110    2C0C  00001000000000375500000435032M1    VNYEV   002700430014
BI00B32M1    #TCVL2051      202204077172-5629-80             RUBBER STOPPER           CCN000200000000200000FN00000000020220501000200000NNM   20220302162110    2H0H  00002000000000060000000111132M1    VNYEV   004300270014
BI00B32M1    #TCVL2052      202204217172-5629-80             RUBBER STOPPER           CCN000100000000100000FN00000000020220501000100000NNM   20220302162110    2H0H  00002000000000060000000111132M1    VNYEV   004300270014
BI00B32M1    #TCVL2051      202204077172-5630-40             RUBBER STOPPER           CCN000080000000080000FN00000000020220501000080000NNM   20220302162110    2H0H  00002000000000044000000095132M1    VNYEV   004300270014
BI00B32M1    #TCVL2052      202204217172-5630-40             RUBBER STOPPER           CCN000080000000080000FN00000000020220501000080000NNM   20220302162110    2H0H  00002000000000044000000095132M1    VNYEV   004300270014
BI00B32M1    #TCVL2051      202204077172-5631-60             RUBBER STOPPER           CCN000020000000020000FN00000000020220501000020000NNM   20220302162110    2H0H  00002000000000042000000093132M1    VNYEV   004300270014
BI00B32M1    #TCVL2051      202204077183-0522-30             HOUSING                  CCN000002400000002400FN00000000020220501000002400NNM   20220302162110    2F0F  00000240000000959000001191032M1    VNYEV   005500360039
BI00B32M1    #TCVL2051      202204077183-1616                CONNECTOR HOUSING        CCN000002400000002400FN00000000020220501000002400NNM   20220302162110    2F0F  00000240000000557500000823332M1    VNYEV   005500360039
BI00B32M1    #TCVL2052      202204217183-1616                CONNECTOR HOUSING        CCN000002400000002400FN00000000020220501000002400NNM   20220302162110    2F0F  00000240000000557500000823332M1    VNYEV   005500360039
BI00B32M1    #TCVL2051      202204077183-1616-30             CONNECTOR HOUSING        CCN000004800000004800FN00000000020220501000004800NNM   20220302162110    2F0F  00000240000000557500000837132M1    VNYEV   005500360039
BI00B32M1    #TCVL2052      202204217183-1616-30             CONNECTOR HOUSING        CCN000002400000002400FN00000000020220501000002400NNM   20220302162110    2F0F  00000240000000557500000837132M1    VNYEV   005500360039
BI00B32M1    #TCVL2051      202204077183-2413                CONNECTOR HOUSING        CCN000004800000004800FN00000000020220501000004800NNM   20220302162110    2F0F  00000480000000478100000760032M1    VNYEV   005500360039
BI00B32M1    #TCVL2052      202204217183-2413                CONNECTOR HOUSING        CCN000014400000014400FN00000000020220501000014400NNM   20220302162110    2F0F  00000480000000478100000760032M1    VNYEV   005500360039
BI00B32M1    #TCVL2052      202204217183-2415-90             CONNECTOR HOUSING        CCN000004800000004800FN00000000020220501000004800NNM   20220302162110    2F0F  00000480000000798200001091432M1    VNYEV   005500360039
BI00B32M1    #TCVL2052      202204217183-2419                HOUSING                  CCN000004800000004800FN00000000020220501000004800NNM   20220302162110    2F0F  00000480000001065600001352732M1    VNYEV   005500360039
BI00B32M1    #TCVL2051      202204077189-3034                HOUSING FEMALE           CCN000008000000008000FN00000000020220501000008000NNM   20220302162110    2F0F  00000160000001211200001431232M1    VNYEV   005500360039
BI00B32M1    #TCVL2052      202204217189-3034                HOUSING FEMALE           CCN000009600000009600FN00000000020220501000009600NNM   20220302162110    2F0F  00000160000001211200001431232M1    VNYEV   005500360039
BI00B32M1    #TCVL2051      202204077189-3037                HOUSING FEMALE           CCN000004800000004800FN00000000020220501000004800NNM   20220302162110    2F0F  00000480000000806400001066432M1    VNYEV   005500360039
BI00B32M1    #TCVL2052      202204217189-3297                HOUSING FEMALE           CCN000038100000040000FN00000000020220501000040000NNM   20220302162110    2F0F  00000400000000893200001029032M1    VNYEV   005400370024
BI00B32M1    #TCVL2051      202204077198-5394                HOUSING FEMALE           CCN000004800000004800FN00000000020220501000004800NNM   20220302162110    2F0F  00000480000000489700000688832M1    VNYEV   005500360039
BI00B32M1    #TCVL2052      202204217198-5394                HOUSING FEMALE           CCN000004800000004800FN00000000020220501000004800NNM   20220302162110    2F0F  00000480000000489700000688832M1    VNYEV   005500360039
BI00B32M1    #TCVL2051      202204077282-5528-70             HOUSING MALE ASS'Y       CCN000001000000001000FN00000000020220501000001000NNM   20220302162110    2N0N  00000100000000230000000339032M1    VNYEV   005400370024
BI00B32M1    #TCVL2051      202204077289-4200-40             HOUSING FEMALE ASS'Y     CCN000002000000002000FN00000000020220501000002000NNM   20220302162110    2N0N  00000200000000910500001043032M1    VNYEV   005400370024
BI00B32M8    PM22043 MW     202203307158-3006-90             RUBBER STOPPER           CCN000440000000440000FN00000000020220401000440000NNMD0620220302121801    1C0C  00002000000000330600000386032M8    PMPEMI  002700430014
BI00B32M8    PM22044 MW     202204067158-3006-90             RUBBER STOPPER           CCN000200000000200000FN00000000020220401000200000NNMD0620220302121801    1C0C  00002000000000330600000386032M8    PMPEMI  002700430014
BI00B32M8    PM22043 MW     202203307158-3009-60             RUBBER STOPPER           CCN000220000000220000FN00000000020220401000220000NNMD0620220302121801    1C0C  00002000000000338000000386232M8    PMPEMI  002700430014
BI00B32M8    PM22044 MW     202204067158-3009-60             RUBBER STOPPER           CCN000220000000220000FN00000000020220401000220000NNMD0620220302121801    1C0C  00002000000000338000000386232M8    PMPEMI  002700430014
BI00B32N1    NST2117FCU     202204077283-5845                CONNECTOR HOUSING        CCN000012000000012000FN00000000020220401000012000NNED0220220302131408    1N0N  00000600000000444000000606332N1    TAYIPL  005400370024
BI00B32N1    NST2117FCU     202203177283-5830-30             CONNECTOR                CCN000024000000012000FN00000000020220401000012000NNED0220220302131331    1N0N  00000600000000954000001104032N1    TAYIPL  005500360039
BI00B32N1    NST2117FCU     202203247283-5830-30             CONNECTOR                CCN000012000000012000FN00000000020220401000012000NNED0220220302131335    1N0N  00000600000000954000001104032N1    TAYIPL  005500360039
BI00B32N2    2152103809     202203177158-3169-40             SEALING PLUG             CCN000600000000600000FN00000000020220401000600000NNMD0620220302145709    1C0C  00004000000000156000000204132N2    YWYIPLTC004300260014
BI00B32N2    2152103861     202204077370-0310                J/B ASS'Y                CCN000000640000000640FN00000000020220501000000640NNMD0220220302121801    1J0J  00000001000000559000000809032N2    YWYIPLTC005500360039
BI00A32N3    #NBT203 A4     202203037158-3008-80             RUBBER STOPPER           PCN000120000000120000FN00000000020220301000120000NNMD0020220302121801    2C0C  00002000000000288000000343032N3    ABYIPL-B004300270014
BI00B32R7    R-TAP220099    202203177116-4121-02             TERMINAL                 CCN000045000000045000FN00000000020220401000045000NNE   20220302121801    4P0P  00000450000000618800000912432R7    IVYCIC  006400630015
BI00B32R7    R-TAP220100    202203177298-7215-10             SEALED ASSY FEMALE       CCN000017472000017472FN00000000020220301000017472NNE   20220302121801    4N0N  00000218400000983000001291532R7    IVYCIC  005500360039
BI00B32R7    R-TAP220101    202203177289-9553-50             SEALED ASSY FEMALE       CCN000005880000005880FN00000000020220301000005880NNE   20220302121801    4N0N  00000294000001108100001520632R7    IVYCIC  005500360039
BI00B32R7    R-TAP220102    202204217116-4025                TERMINAL                 CCN000096000000096000FN00000000020220501000096000NNE   20220302121801    4P0P  00001600000000644800000975132R7    IVYCIC  006400630017
BI00B32R7    R-TAP220103    202204217158-3006-90             RUBBER STOPPER           CCN000100000000100000FN00000000020220501000100000NNE   20220302121801    1C0C  00002000000000330600000386032R7    IVYCIC  002700430014
BI00B32R7    R-TAP220104    202204217158-3006-90             RUBBER STOPPER           CCN000120000000120000FN00000000020220501000120000NNE   20220302121801    1C0C  00002000000000330600000386032R7    IVYCIC  002700430014
BI00B32R7    R-TAP220105    202204217116-4025                TERMINAL                 CCN000128000000128000FN00000000020220501000128000NNE   20220302121801    4P0P  00001600000000644800000975132R7    IVYCIC  006400630017
BI00B32R7    R-TAP220106    202204217158-3169-40             SEALING PLUG             CCN000160000000160000FN00000000020220501000160000NNE   20220302121801    1C0C  00004000000000156000000204132R7    IVYCIC  004300260014
BI00A32U9    TPA215         202203077116-2951-02             TERMINAL                 CCN000081000000081000FN00000000020220401000081000NNMM0020220302133511U9  4P0P  00000540000000817600001111832U9    YNYNA-E 006400630015
BI00B32U9    TPA215         202203107158-3167-80             WIRE SEAL                CCN000440000000040000FN00000000020220401000040000NNMQ0020220302135337U9  1C0C  00002000000000048000000109032U9    YNYNA-E 002700430014
BI00A32U9    #TPA215        202203077135-6177                GROMMET                  CCN000002800000002800FN00000000020220401000002800NNMM0020220302134459U9  2H0H  00000020000001139600001249632U9    YNYNA-E 005600390040
BI00B32U9    #TPA216        202203177135-6177                GROMMET                  CCN000001000000000200FN00000000020220401000000200NNMQ0020220302134534U9  2H0H  00000020000001139600001249632U9    YNYNA-E 005600390040
BI00A32U9    TPA217         202203077114-4231-02             TERMINAL                 CCN000090000000090000FN00000000020220401000090000NNMM0020220302133511U9  4P0P  00001800000000554400000848032U9    YNYNA-E 006400630015
BI00B32U9    #TPA217        202203247283-8226-30             CONNECTOR                CCN000048000000028000FN00000000020220401000028000NNMQ0020220302134345U9  2N0N  00000200000000820000001008032U9    YNYNA-E 005400370024
BI00A32U9    TPA215         202203077158-3167-80             WIRE SEAL                CCN000400000000400000FN00000000020220401000400000NNMM0020220302133425U9  1C0C  00002000000000048000000109032U9    YNYNA-E 002700430014
BI00A32U9    #TPA217        202203077283-8226-30             CONNECTOR                CCN000020000000020000FN00000000020220401000020000NNMM0020220302135533U9  2N0N  00000200000000820000001008032U9    YNYNA-E 005400370024
BI00A32U9    #TPA216        202203077135-6177                GROMMET                  CCN000000800000000800FN00000000020220401000000800NNMM0020220302134540U9  2H0H  00000020000001139600001249632U9    YNYNA-E 005600390040
BI00A32W4    4500187136     202206037116-1180                TERMINAL                 CCN000019500000019500FN00000000020220301000019500NNED0020220302121801W4H31P0P  00001950000000618200000903432W4H3  HJYHK-J 006400630015
BI00A32W4    4500187140     202206037283-1020                CONNECTOR                CCN000012000000012000FN00000000020220301000012000NNED0020220302121801W4H34N0N  00000600000000840000001049332W4H3  HJYHK-J 005600390040
BI00B32W4    4500187946     202203087114-1670-02             TERMINAL                 CCN000024000000024000FN00000000020220301000024000NNED0020220302130154W41 1P0P  00002400000000357600000645832W41   HJYHK   006400630015
BI00A32W4    4500188538     202203047116-2951-02             TERMINAL                 CCN000043200000043200FN00000000020220301000043200NNEM0020220302172149W4284P0P  00000540000000817600001111832W428  HJYHK   006400630015
BI00B32W4    4500189231     202203297114-1670-02             TERMINAL                 CCN000024000000024000FN00000000020220401000024000NNED0020220302121801W41 1P0P  00002400000000357600000645832W41   HJYHK   006400630015
BI00A32W4    4500189360     202207047283-1020                CONNECTOR                CCN000012000000012000FN00000000020220601000012000NNED0020220302121801W4H34N0N  00000600000000840000001049332W4H3  HJYHK-J 005600390040
BI00B32W4    4500189991     202204287287-1917                CONNECTOR FEMALE         CCN000048000000009600FN00000000020220401000009600NNED0520220302121801W4K84N0N  00000240000001060800001312532W4K8  HJYHK-J 005500360039
BI00B32W4    4500189991     202205057287-1917                CONNECTOR FEMALE         CCN000009600000009600FN00000000020220401000009600NNED0520220302121801W4K84N0N  00000240000001060800001312532W4K8  HJYHK-J 005500360039
BI00B32W4    4500189991     202205127287-1917                CONNECTOR FEMALE         CCN000009600000009600FN00000000020220401000009600NNED0520220302121801W4K84N0N  00000240000001060800001312532W4K8  HJYHK-J 005500360039
BI00B32W4    4500189991     202205197287-1917                CONNECTOR FEMALE         CCN000009600000009600FN00000000020220401000009600NNED0520220302121801W4K84N0N  00000240000001060800001312532W4K8  HJYHK-J 005500360039
BI00B32W4    4500189991     202205267287-1917                CONNECTOR FEMALE         CCN000009600000009600FN00000000020220401000009600NNED0520220302121801W4K84N0N  00000240000001060800001312532W4K8  HJYHK-J 005500360039
BI00A32W4    4500190121     202205027282-4855                HOUSING MALE ASS'Y       CCN000007200000007200FN00000000020220501000007200NNE   20220302121801W4L64N0N  00000120000001063200001283232W4L6  HJYHK-K 005500360039
BI00A32W4    4500190121     202205027114-6041                TERMINAL                 CCN000025200000025200FN00000000020220501000025200NNE   20220302121801W4L64P0P  00000360000000580700000824232W4L6  HJYHK-K 006400630015
BI00A32W4    4500190121     202205027283-1156                CONNECTOR                CCN000007200000007200FN00000000020220501000007200NNE   20220302121801W4L64N0N  00000080000000877600001078032W4L6  HJYHK-K 005600390040
BI00A32W4    @4500190121    202205027287-6634                HOUSING FEMALE ASS'Y     CCN000009600000009600FN00000000020220501000009600NNE   20220302121801W4L63N0N  00000240000001088400001337032W4L6  HJYHK-K 005500360039
BI00B32W4    4500190125     202205057114-4032                TERMINAL                 CCN000015000000015000FN00000000020220501000015000NNE   20220302121801W4164P0P  00000750000000735000001063632W416  HJYHK   006400630017
BI00B32W4    4500190125     202205057116-4100-02             TERMINAL                 CCN000150000000150000FN00000000020220501000150000NNE   20220302121801W4164P0P  00001500000000696000000990232W416  HJYHK   006400630015
