BI00B32CJ    JQN1124        202203267289-3342-30             HOUSING FEMALE ASS'Y     CCN000004800000004800FY00000480020211201000000000NNMD0420220327080459    1N0N  00000240000000686400000901432CJ    QNYHVQN 005500360039
BI00B32CJ    JQN2013        202203267288-6547                CONNECTOR MALE ASS'Y     CCN000000750000000750FY00000075020220101000000000NNMD0420220327080823    4N0N  00000075000001205300001340332CJ    QNYHVQN 005400370024
BI00A32U9    TP0390S        202203257298-1186-40             SQUIB SUB ASS'Y          CCN000020000000020000FY00002000020220501000000000NNEM0020220327080344U9  4N0N  00001000000000650000000774532U9    YNYNA-E 005400370024
BI00A32W6    SW21124QMW     202204057289-3342-30             HOUSING FEMALE ASS'Y     PCN000016800000016800FN00000000020211201000016800NNMD0020220327090731    1N0N  00000240000000686400000901432W6    SYSYA-WJ005500360039
