BI00A1200    7360T51815     202202047289-3342-90             HOUSING FEMALE ASS'Y     CCN000002400000002400FY00000240020210901000000000NNED0420220207141351    1N0N  0000024000000068640000090141200    YCYC    005500360039
BI00B1200    7360T51A02     202204077289-3342                HOUSING FEMALE ASS'Y     CCN000074400000019200FN00000000020211201000019200NNMQ0420220207122012    1N0N  0000024000000068640000090141200    YCYC    005500360039
BI00B1200    7360T51A02     202204287289-3342                HOUSING FEMALE ASS'Y     CCN000019200000019200FN00000000020211201000019200NNMD0420220207122012    1N0N  0000024000000068640000090141200    YCYC    005500360039
BI00B1200    7360T51A02     202205127289-3342                HOUSING FEMALE ASS'Y     CCN000019200000019200FN00000000020211201000019200NNMD0420220207122012    1N0N  0000024000000068640000090141200    YCYC    005500360039
BI00B1200    7360T51A02     202205267289-3342                HOUSING FEMALE ASS'Y     CCN000016800000016800FN00000000020211201000016800NNMD0420220207122012    1N0N  0000024000000068640000090141200    YCYC    005500360039
BI00B1200    2399T51C15     202202107289-3342-30             HOUSING FEMALE ASS'Y     CCN000007200000007200FN00000000020220101000007200NNMD0420220207122012    1N0N  0000024000000068640000090141200    YCYC    005500360039
BI00A1200    7360T51C01     202202177289-3342-30             HOUSING FEMALE ASS'Y     CCN000021600000021600FN00000000020220101000021600NNMD0420220207134203    1N0N  0000024000000068640000090141200    YCYC    005500360039
BI00A1200    7360T51C02     202202247289-3342-30             HOUSING FEMALE ASS'Y     CCN000021600000021600FN00000000020220101000021600NNMD0420220207122012    1N0N  0000024000000068640000090141200    YCYC    005500360039
BI00A1200    7360T51C03     202203037289-3342-30             HOUSING FEMALE ASS'Y     CCN000021600000021600FN00000000020220101000021600NNMD0420220207122012    1N0N  0000024000000068640000090141200    YCYC    005500360039
BI00B1200    2399T51C19     202202177289-0269                HOUSING SUB ASSEMBLY     CCN000014400000014400FN00000000020220201000014400NNMD0320220207122012    1N0N  0000016000000100210000123451200    YCYC    005500360039
BI00B1200    #8670T51C02    202202107172-5629-80             RUBBER STOPPER           CCN000020000000020000FN00000000020220201000020000NNE00020220207144419    2H0H  0000200000000006000000011111200    YCYC    004300270014
BI00B1200    2399T52113     202202177289-0269                HOUSING SUB ASSEMBLY     CCN000003200000003200FN00000000020220301000003200NNMD0320220207122012    1N0N  0000016000000100210000123451200    YCYC    005500360039
BI00B1200    2399T52114     202202177289-0269                HOUSING SUB ASSEMBLY     CCN000003200000003200FN00000000020220301000003200NNMD0020220207122012    1N0N  0000016000000100210000123451200    YCYC    005500360039
BI00A1200    7360T52101     202203107289-3342-30             HOUSING FEMALE ASS'Y     CCN000014400000014400FN00000000020220301000014400NNMD0420220207122012    1N0N  0000024000000068640000090141200    YCYC    005500360039
BI00A1200    7360T52104     202203177289-3342-30             HOUSING FEMALE ASS'Y     CCN000014400000014400FN00000000020220301000014400NNMD0420220207122012    1N0N  0000024000000068640000090141200    YCYC    005500360039
BI00B1200    7360T52206     202202247195-0783-08             TERMINAL                 CCN000030000000030000FN00000000020220301000030000NNE   20220207122012    4P0P  0000300000000050700000080121200    YCYC    006400630015
BI00B1200    7360T52206     202202247288-3334-30             HOUSING MALE             CCN000003000000003000FN00000000020220301000003000NNE   20220207122012    4N0N  0000015000000086700000101201200    YCYC    005400370024
BI00B1200    7360T52206     202202247288-3338-30             HOUSING MALE             CCN000012000000012000FN00000000020220301000012000NNE   20220207122012    4N0N  0000015000000086610000101201200    YCYC    005400370024
BI00B1200    7360T52206     202202247288-3340-30             HOUSING MALE             CCN000007500000007500FN00000000020220301000007500NNE   20220207122012    4N0N  0000015000000086150000100641200    YCYC    005400370024
BI00B1200    7360T52206     202202247388-2978-30             HOUSING MALE ASS'Y       CCN000003840000003840FN00000000020220301000003840NNE   20220207122012    1N0N  0000004800000074200000112201200    YCYC    005500360039
BI00B1200    #7360T52206    202202247172-5625-90             RUBBER STOPPER           CCN000060000000060000FN00000000020220301000060000NNE   20220207122012    2H0H  0000200000000008240000013381200    YCYC    004300270014
BI00B1200    #7360T52206    202202247172-5627-60             RUBBER STOPPER           CCN000020000000020000FN00000000020220301000020000NNE   20220207122012    2H0H  0000200000000007040000012181200    YCYC    004300270014
BI00B1200    #7360T52206    202202247172-5629-80             RUBBER STOPPER           CCN000080000000080000FN00000000020220301000080000NNE   20220207122012    2H0H  0000200000000006000000011111200    YCYC    004300270014
BI00B1200    #7360T52206    202202247172-5632-10             DUMMY PLUG               CCN000620000000620000FN00000000020220301000620000NNE   20220207122012    2H0H  0000200000000008040000013181200    YCYC    004300270014
BI00B1200    #7360T52206    202202247188-3035                HOUSING MALE             CCN000004800000004800FN00000000020220301000004800NNE   20220207122012    2F0F  0000024000000069360000091361200    YCYC    005500360039
BI00B1200    #7360T52206    202202247189-3031                HOUSING FEMALE           CCN000002400000002400FN00000000020220301000002400NNE   20220207122012    2F0F  0000024000000092880000136581200    YCYC    005500360039
BI00B1200    #7360T52206    202202247189-3032                HOUSING FEMALE           CCN000001600000001600FN00000000020220301000001600NNE   20220207122012    2F0F  0000016000000078840000101841200    YCYC    005500360039
BI00B1200    #7360T52206    202202247189-3032-30             HOUSING FEMALE           CCN000001600000001600FN00000000020220301000001600NNE   20220207122012    2F0F  0000016000000080160000102161200    YCYC    005500360039
BI00B1200    #7360T52206    202202247289-2913-30             HOUSING FEMALE ASS'Y     CCN000001500000001500FN00000000020220301000001500NNE   20220207122012    2N0N  0000015000000090750000103451200    YCYC    005400370024
BI00B1200    #7360T52206    202202247289-2914                HOUSING FEMALE ASS'Y     CCN000001500000001500FN00000000020220301000001500NNE   20220207122012    2N0N  0000015000000090600000103301200    YCYC    005400370024
BI00B1200    #7360T52206    202202247289-2914-40             HOUSING FEMALE ASS'Y     CCN000001500000001500FN00000000020220301000001500NNE   20220207122012    2N0N  0000015000000090450000103151200    YCYC    005400370024
BI00B1200    #7360T52206    202202247289-2915-30             HOUSING FEMALE ASS'Y     CCN000001500000001500FN00000000020220301000001500NNE   20220207122012    2N0N  0000015000000096450000109151200    YCYC    005400370024
BI00B1200    #7360T52206    202202247289-2916-30             HOUSING FEMALE ASS'Y     CCN000001000000001000FN00000000020220301000001000NNE   20220207122012    2N0N  0000010000000085700000108401200    YCYC    005400370024
BI00B1200    #7360T52206    202202247289-2917-30             HOUSING FEMALE ASS'Y     CCN000001000000001000FN00000000020220301000001000NNE   20220207122012    2N0N  0000010000000096400000109101200    YCYC    005400370024
BI00B1200    #7360T52206    202202247289-2918-30             HOUSING FEMALE ASS'Y     CCN000001000000001000FN00000000020220301000001000NNE   20220207122012    2N0N  0000010000000101800000114501200    YCYC    005400370024
BI00B1200    #7360T52206    202202247289-2919-30             HOUSING FEMALE ASS'Y     CCN000006000000006000FN00000000020220301000006000NNE   20220207122012    2N0N  0000015000000090750000103451200    YCYC    005400370024
BI00B1200    7360T52207     202202247195-1933-02             TERMINAL MALE            CCN000024000000024000FN00000000020220301000024000NNE   20220207122012    4P0P  0000240000000067080000000001200    YCYC    006400630015
BI00B1200    7360T52207     202202247195-1934-02             TERMINAL MALE            CCN000024000000024000FN00000000020220301000024000NNE   20220207122012    4P0P  0000240000000080160000109521200    YCYC    006400630015
BI00B1200    7360T52207     202202247196-1325-02             TERMINAL FEMALE          CCN000240000000240000FN00000000020220301000240000NNE   20220207122012    4P0P  0000600000000045000000077871200    YCYC    006400630017
BI00B1200    7360T52207     202202247196-1326-02             TERMINAL FEMALE          CCN000120000000120000FN00000000020220301000120000NNE   20220207122012    4P0P  0000600000000045600000078471200    YCYC    006400630017
BI00B1200    7360T52207     202202247196-1327-02             TERMINAL FEMALE          CCN000052000000052000FN00000000020220301000052000NNE   20220207122012    4P0P  0000520000000033600000073951200    YCYC    006400630017
BI00B1200    7360T52207     202202247196-1933-02             TERMINAL FEMALE          CCN000042000000042000FN00000000020220301000042000NNE   20220207122012    4P0P  0000210000000067080000000001200    YCYC    006400630015
BI00B1200    7360T52207     202202247196-1934-02             TERMINAL FEMALE          CCN000019500000019500FN00000000020220301000019500NNE   20220207122012    4P0P  0000195000000056160000084681200    YCYC    006400630015
BI00B1200    7360T52207     202202247196-1936-02             TERMINAL FEMALE          CCN000040500000040500FN00000000020220301000040500NNE   20220207122012    4P0P  0000135000000044150000072671200    YCYC    006400630015
BI00B1200    7360T52208     202203037195-1935-02             TERMINAL MALE            CCN000019500000019500FN00000000020220401000019500NNE   20220207122012    4P0P  0000195000000067080000096441200    YCYC    006400630015
BI00B1200    7360T52208     202203037195-1936-02             TERMINAL MALE            CCN000015000000015000FN00000000020220401000015000NNE   20220207122012    4P0P  0000150000000058950000088311200    YCYC    006400630015
BI00B1200    7360T52208     202203037196-1325-02             TERMINAL FEMALE          CCN000120000000120000FN00000000020220401000120000NNE   20220207122012    4P0P  0000600000000045000000077871200    YCYC    006400630017
BI00B1200    7360T52208     202203037196-1326-02             TERMINAL FEMALE          CCN000060000000060000FN00000000020220401000060000NNE   20220207122012    4P0P  0000600000000045600000078471200    YCYC    006400630017
BI00B1200    7360T52208     202203037196-1933-02             TERMINAL FEMALE          CCN000021000000021000FN00000000020220401000021000NNE   20220207122012    4P0P  0000210000000067080000000001200    YCYC    006400630015
BI00B1200    7360T52208     202203037196-1934-02             TERMINAL FEMALE          CCN000019500000019500FN00000000020220401000019500NNE   20220207122012    4P0P  0000195000000056160000084681200    YCYC    006400630015
BI00B1200    7360T52208     202203037196-1935-02             TERMINAL FEMALE          CCN000018000000018000FN00000000020220401000018000NNE   20220207122012    4P0P  0000180000000053460000081981200    YCYC    006400630015
BI00B1200    7360T52208     202203037196-1936-02             TERMINAL FEMALE          CCN000013500000013500FN00000000020220401000013500NNE   20220207122012    4P0P  0000135000000044150000072671200    YCYC    006400630015
BI00B1200    7360T52209     202203107196-1325-02             TERMINAL FEMALE          CCN000060000000060000FN00000000020220401000060000NNE   20220207122012    4P0P  0000600000000045000000077871200    YCYC    006400630017
BI00B1200    7360T52209     202203107196-1326-02             TERMINAL FEMALE          CCN000060000000060000FN00000000020220401000060000NNE   20220207122012    4P0P  0000600000000045600000078471200    YCYC    006400630017
BI00B1200    7360T52209     202203107196-1933-02             TERMINAL FEMALE          CCN000021000000021000FN00000000020220401000021000NNE   20220207122012    4P0P  0000210000000067080000000001200    YCYC    006400630015
BI00B1200    7360T52209     202203107196-1936-02             TERMINAL FEMALE          CCN000013500000013500FN00000000020220401000013500NNE   20220207122012    4P0P  0000135000000044150000072671200    YCYC    006400630015
BI00B1200    7360T52210     202203177196-1325-02             TERMINAL FEMALE          CCN000060000000060000FN00000000020220401000060000NNE   20220207122012    4P0P  0000600000000045000000077871200    YCYC    006400630017
BI00B1200    7360T52210     202203177196-1936-02             TERMINAL FEMALE          CCN000013500000013500FN00000000020220401000013500NNE   20220207122012    4P0P  0000135000000044150000072671200    YCYC    006400630015
BI00B1200    7960T52201     202202247172-5540-80             SEALED WIRE SEAL         CCN000040000000040000FN00000000020220301000040000NNE   20220207122012    1C0C  0000200000000018600000023441200    YCYC    004300270014
BI00B1200    #7960T52201    202202247172-5628-80             DUMMY PLUG               CCN000020000000020000FN00000000020220301000020000NNE   20220207122012    2H0H  0000200000000011060000016201200    YCYC    004300270014
BI00B1200    #7960T52201    202202247172-5630-40             RUBBER STOPPER           CCN000040000000040000FN00000000020220301000040000NNE   20220207122012    2H0H  0000200000000004400000009511200    YCYC    004300270014
BI00B1200    #7960T52201    202202247172-5631-60             RUBBER STOPPER           CCN000040000000040000FN00000000020220301000040000NNE   20220207122012    2H0H  0000200000000004200000009311200    YCYC    004300270014
BI00B1200    8870T52201     202203317288-3340-30             HOUSING MALE             CCN000001500000001500FN00000000020220401000001500NNE   20220207122012    4N0N  0000015000000086150000100641200    YCYC    005400370024
BI00B1200    8870T52202     202204287288-3340-30             HOUSING MALE             CCN000001500000001500FN00000000020220501000001500NNE   20220207122012    4N0N  0000015000000086150000100641200    YCYC    005400370024
BI00B1200    8870T52203     202204287289-3342                HOUSING FEMALE ASS'Y     CCN000002400000002400FN00000000020220501000002400NNE   20220207122012    1N0N  0000024000000068640000090141200    YCYC    005500360039
BI00B1200    H722E50005     202204077297-1861-30             HOUSING MALE ASS'Y       CCN000009000000009000FN00000000020220501000009000NNE   20220207122012    4N0N  0000015000000070220000082731200    YCYC    005400370024
BI00B1200    Y12A2701X      202202247288-3338-30             HOUSING MALE             CCN000001500000001500FN00000000020220301000001500NNE   20220207122012    4N0N  0000015000000086610000101201200    YCYC    005400370024
BI00B1200    #7360T52211    202202247172-5629-80             RUBBER STOPPER           CCN000420000000420000FN00000000020220301000420000NNE   20220207122012    2H0H  0000200000000006000000011111200    YCYC    004300270014
BI00B32AF    JTB2024        202202117289-3342-30             HOUSING FEMALE ASS'Y     CCN000055200000055200FN00000000020220201000055200NNM00020220207144557    1N0N  00000240000000686400000901432AF    HBYHVTB 005500360039
BI00B32AF    JTB2025        202202117289-3342-30             HOUSING FEMALE ASS'Y     CCN000048000000048000FN00000000020220201000048000NNM00020220207144608    1N0N  00000240000000686400000901432AF    HBYHVTB 005500360039
BI00B32AF    #JTB202L       202202117158-3007-10             RUBBER STOPPER           CCN000020000000020000FN00000000020220201000020000NNE00020220207144655    2H0H  00002000000000308000000362732AF    HBYHVTB 002700430014
BI00B32AG    XG22032CMW     202202047327-6874-30             MULTI FUSE               CCN000002880000000288FY00000028820220301000000000NNM00020220207144821    4N0N  00000028800000991400001157332AG    XGXGY   005400370024
BI00B32AG    XG22032CMW     202202117327-6880-30             MULTI FUSE               CCN000002592000002592FN00000000020220301000002592NNM00020220207144748    4N0N  00000028800001012600001178532AG    XGXGY   005400370024
BI00B32AG    XG22032CMW     202202117327-6884-30             MULTI FUSE               CCN000002592000002592FN00000000020220301000002592NNM00020220207144748    4N0N  00000028800000988900001154832AG    XGXGY   005400370024
BI00B32AG    XG22032CMW     202202117327-6874-30             MULTI FUSE               CCN000002592000002592FN00000000020220301000002592NNM00020220207144821    4N0N  00000028800000991400001157332AG    XGXGY   005400370024
BI00B32B1    A22017         202203257158-3167-80             WIRE SEAL                CCN000060000000060000FN00000000020220601000060000NNM   20220207131201B1  1C0C  00002000000000048000000109032B1    AXARNE-M002700430014
BI00B32B1    A22017         202203257158-3169-40             SEALING PLUG             CCN000080000000080000FN00000000020220601000080000NNM   20220207131201B1  1C0C  00004000000000156000000204132B1    AXARNE-M004300260014
BI00B32B1    #A22017        202203257158-3376-50             CONNECTOR WIRE SEAL      CCN000120000000120000FN00000000020220601000120000NNM   20220207131157B1  2C0C  00002000000000184000000240732B1    AXARNE-M002700430014
BI00B32B1    #A22017        202203257282-8395-40             CONNECTOR                CCN000005000000005000FN00000000020220601000005000NNM   20220207131157B1  2N0N  00000100000001009000001188032B1    AXARNE-M005500360039
BI00B32B1    #A22017        202203257283-8226-30             CONNECTOR                CCN000012000000012000FN00000000020220601000012000NNM   20220207131157B1  2N0N  00000200000000820000001008032B1    AXARNE-M005400370024
BI00B32B1    #A22017        202203257283-8397-40             CONNECTOR                CCN000001540000001540FN00000000020220601000001540NNM   20220207131157B1  2N0N  00000154000001007000001222732B1    AXARNE-M005600390023
BI00A32B6    TAPPT01Z       202202047298-5955                CONNECTOR SUB ASSY       CCN000000500000007200FY00000720020220101000000000NNE00020220207141700B6  4N0N  00000720000001029600001253032B6    AXARNE-M005500360039
BI00A32B6    TAPPT01Z       202202047195-1463-02             TERMINAL MALE            CCN000028500000028500FY00002850020220101000000000NNE00020220207141700B6  4P0P  00002850000000456000000741232B6    AXARNE-M006400630015
BI00A32B6    TAPPT01Z       202202047196-1460-02             TERMINAL FEMALE          CCN000028500000028500FY00002850020220101000000000NNE00020220207141700B6  4P0P  00002850000000444600000729832B6    AXARNE-M006400630015
BI00A32B6    TAPPT01Z       202202047196-1462-02             TERMINAL FEMALE          CCN000021000000021000FY00002100020220101000000000NNE00020220207141700B6  4P0P  00002100000000352800000638032B6    AXARNE-M006400630015
BI00A32B6    TAPPT01Z       202202047298-1865-30             HOUSING FEMALE ASS'Y     CCN000002400000002400FY00000240020220101000000000NNE00020220207141700B6  4N0N  00000240000001003200001204532B6    AXARNE-M005500360039
BI00A32B6    TAPPT01Z       202202047298-1869-30             HOUSING FEMALE ASS'Y     CCN000001200000001200FY00000120020220101000000000NNE00020220207141700B6  4N0N  00000120000000737000000939832B6    AXARNE-M005500360039
BI00A32B6    TAPPT01Z       202202047298-2278-30             HOUSING FEMALE ASS'Y     CCN000002400000002400FY00000240020220101000000000NNE00020220207141700B6  4N0N  00000240000001091700001295432B6    AXARNE-M005500360039
BI00A32B6    TAPPT01Z       202202047298-2507-30             HOUSING FEMALE ASS'Y     CCN000000500000001200FY00000120020220101000000000NNE00020220207141700B6  4N0N  00000120000000713200000914532B6    AXARNE-M005500360039
BI00A32B6    TAPP13C1B      202202157174-2052-30             COVER                    CCN000001260000001260FN00000000020220201000001260NNED0720220207134405B6  1F0F  00000126000000553400001024332B6    AXARNE-M005500360039
BI00A32B6    TAPP13C1B      202202157298-2509-30             HOUSING FEMALE ASS'Y     CCN000001200000001200FN00000000020220201000001200NNED0720220207134452B6  4N0N  00000120000000857500001062532B6    AXARNE-M005500360039
BI00B32B6    A72017         202203257017-1182-02             TERMINAL                 CCN000045000000045000FN00000000020220601000045000NNM   20220207131301B6  4P0P  00004500000001165500001318632B6    AXARNE-M005100280028
BI00B32B6    A72017         202203257017-1183-02             TERMINAL                 CCN000027000000027000FN00000000020220601000027000NNM   20220207131301B6  4P0P  00002700000001139400001307432B6    AXARNE-M005100280028
BI00B32B6    A72017         202203257116-4486-02             TERMINAL                 CCN000028000000028000FN00000000020220601000028000NNM   20220207131301B6  4P0P  00002800000000666400000995132B6    AXARNE-M006400630017
BI00B32B6    A72017         202203257116-5045-02             TERMINAL                 CCN000032000000032000FN00000000020220601000032000NNM   20220207131301B6  4P0P  00001600000000678400001007132B6    AXARNE-M006400630017
BI00B32B6    A72017         202203257287-0192-40             SEALED HOUSING ASS'Y     CCN000001440000001440FN00000000020220601000001440NNM   20220207131301B6  4N0N  00000048000001092000001322032B6    AXARNE-M005600390040
BI00B32B7    A82017         202203257158-3166-60             WIRE SEAL                CCN000080000000080000FN00000000020220601000080000NNM   20220207131349B7  1C0C  00004000000000104000000152432B7    AXARNE-M002700430014
BI00B32B7    A82017         202203257158-3167-80             WIRE SEAL                CCN000080000000080000FN00000000020220601000080000NNM   20220207131349B7  1C0C  00002000000000048000000109032B7    AXARNE-M002700430014
BI00B32B7    A82017         202203257158-3168-80             SEALED                   CCN000040000000040000FN00000000020220601000040000NNM   20220207131349B7  1C0C  00002000000000044000000092132B7    AXARNE-M004300260014
BI00B32B7    A82017         202203257158-3169-40             SEALING PLUG             CCN000040000000040000FN00000000020220601000040000NNM   20220207131349B7  1C0C  00004000000000156000000204132B7    AXARNE-M004300260014
BI00B32B7    A82017         202203257282-6448-40             CONNECTOR                CCN000004800000004800FN00000000020220601000004800NNM   20220207131349B7  4N0N  00000080000000887000001152732B7    AXARNE-M005600390040
BI00B32B7    A82017         202203257283-8599-30             CONNECTOR                CCN000001540000001540FN00000000020220601000001540NNM   20220207131349B7  4N0N  00000154000000947100001157032B7    AXARNE-M005600390023
BI00B32B7    #A82017        202203257135-7031                GROMMET                  CCN000001400000001400FN00000000020220601000001400NNM   20220207131347B7  2H0H  00000010000000634200000744232B7    AXARNE-M005400370024
BI00B32B7    #A82017        202203257283-8397-40             CONNECTOR                CCN000007700000007700FN00000000020220601000007700NNM   20220207131347B7  2N0N  00000154000001007000001222732B7    AXARNE-M005600390023
BI00B32B7    #A82017        202203257283-8398-40             CONNECTOR                CCN000007700000007700FN00000000020220601000007700NNM   20220207131347B7  2N0N  00000154000001007000001171332B7    AXARNE-M005600390023
BI00B32CA    PTA32081       202204287116-3153-02             TERMINAL FEMALE          CCN001452000001458000FN00000000020220801001458000NNE   20220207122012    4P0P  00002700000000459000000744232CA    YPYPY   006400630015
BI00B32CA    PTA32081       202204287116-3154-02             TERMINAL FEMALE          CCN000462000000486000FN00000000020220801000486000NNE   20220207122012    4P0P  00002700000000469800000755032CA    YPYPY   006400630015
BI00B32CA    PTA32081       202204287158-3167-80             WIRE SEAL                CCN000080000000080000FN00000000020220801000080000NNE   20220207122012    1C0C  00002000000000048000000109032CA    YPYPY   002700430014
BI00B32CA    PTA32081       202204287158-3168-80             SEALED                   CCN000040000000040000FN00000000020220801000040000NNE   20220207122012    1C0C  00002000000000044000000092132CA    YPYPY   004300260014
BI00B32CA    PTA32081       202204287196-0510-02             TERMINAL                 CCN000144000000144000FN00000000020220801000144000NNE   20220207122012    4P0P  00002400000000871200001034632CA    YPYPY   002800510028
BI00B32CA    PTA32081       202204287196-0512-02             TERMINAL                 CCN000005000000021000FN00000000020220801000021000NNE   20220207122012    4P0P  00002100000000871500001034932CA    YPYPY   002800510028
BI00B32CA    PTA32081       202204287287-9323                UNSEALED HOUSING SUB     CCN000007200000007200FN00000000020220801000007200NNE   20220207122012    1N0N  00000240000000537600000690032CA    YPYPY   005600390023
BI00B32CA    PTA32081       202204287289-3342                HOUSING FEMALE ASS'Y     CCN000043200000043200FN00000000020220801000043200NNE   20220207122012    1N0N  00000240000000686400000901432CA    YPYPY   005500360039
BI00B32CA    PTA32081       202204287289-3342-30             HOUSING FEMALE ASS'Y     CCN000057600000057600FN00000000020220801000057600NNE   20220207122012    1N0N  00000240000000686400000901432CA    YPYPY   005500360039
BI00B32CA    PTA32081       202204287289-3342-90             HOUSING FEMALE ASS'Y     CCN000019200000019200FN00000000020220801000019200NNE   20220207122012    1N0N  00000240000000686400000901432CA    YPYPY   005500360039
BI00B32CA    #PTA32081      202204287154-5597-30             CASSETTE R/B             CCN000008000000008000FN00000000020220801000008000NNE   20220207122012    2F0F  00000080000000736000000952032CA    YPYPY   005500360039
BI00B32CA    #PTA32081      202204287183-2414-30             CONNECTOR HOUSING        CCN000003750000004800FN00000000020220801000004800NNE   20220207122012    2F0F  00000480000000779500001061532CA    YPYPY   005500360039
BI00B32CA    #PTA32081      202204287189-3032-30             HOUSING FEMALE           CCN000006400000006400FN00000000020220801000006400NNE   20220207122012    2F0F  00000160000000801600001021632CA    YPYPY   005500360039
BI00B32CA    #PTA32081      202204287189-3033                HOUSING FEMALE           CCN000001600000001600FN00000000020220801000001600NNE   20220207122012    2F0F  00000160000001211200001431232CA    YPYPY   005500360039
BI00B32CA    #PTA32081      202204287189-3034-30             HOUSING FEMALE           CCN000004800000004800FN00000000020220801000004800NNE   20220207122012    2F0F  00000160000000972800001192832CA    YPYPY   005500360039
BI00B32CA    #PTA32081      202204287189-3036                HOUSING FEMALE           CCN000001600000001600FN00000000020220801000001600NNE   20220207122012    2F0F  00000160000000921600001141632CA    YPYPY   005500360039
BI00B32CA    PTA32083       202205127116-3153-02             TERMINAL FEMALE          CCN001386000001404000FN00000000020220801001404000NNE   20220207122012    4P0P  00002700000000459000000744232CA    YPYPY   006400630015
BI00B32CA    PTA32083       202205127116-3154-02             TERMINAL FEMALE          CCN000462000000486000FN00000000020220801000486000NNE   20220207122012    4P0P  00002700000000469800000755032CA    YPYPY   006400630015
BI00B32CA    PTA32083       202205127158-3167-80             WIRE SEAL                CCN000040000000040000FN00000000020220801000040000NNE   20220207122012    1C0C  00002000000000048000000109032CA    YPYPY   002700430014
BI00B32CA    PTA32083       202205127196-0510-02             TERMINAL                 CCN000096000000096000FN00000000020220801000096000NNE   20220207122012    4P0P  00002400000000871200001034632CA    YPYPY   002800510028
BI00B32CA    PTA32083       202205127287-9323                UNSEALED HOUSING SUB     CCN000004800000004800FN00000000020220801000004800NNE   20220207122012    1N0N  00000240000000537600000690032CA    YPYPY   005600390023
BI00B32CA    PTA32083       202205127289-3342                HOUSING FEMALE ASS'Y     CCN000043200000043200FN00000000020220801000043200NNE   20220207122012    1N0N  00000240000000686400000901432CA    YPYPY   005500360039
BI00B32CA    PTA32083       202205127289-3342-30             HOUSING FEMALE ASS'Y     CCN000057600000057600FN00000000020220801000057600NNE   20220207122012    1N0N  00000240000000686400000901432CA    YPYPY   005500360039
BI00B32CA    PTA32083       202205127289-3342-90             HOUSING FEMALE ASS'Y     CCN000019200000019200FN00000000020220801000019200NNE   20220207122012    1N0N  00000240000000686400000901432CA    YPYPY   005500360039
BI00B32CA    #PTA32083      202205127154-5597-30             CASSETTE R/B             CCN000007200000007200FN00000000020220801000007200NNE   20220207122012    2F0F  00000080000000736000000952032CA    YPYPY   005500360039
BI00B32CA    #PTA32083      202205127183-2414-30             CONNECTOR HOUSING        CCN000003750000004800FN00000000020220801000004800NNE   20220207122012    2F0F  00000480000000779500001061532CA    YPYPY   005500360039
BI00B32CA    #PTA32083      202205127189-3032-30             HOUSING FEMALE           CCN000006400000006400FN00000000020220801000006400NNE   20220207122012    2F0F  00000160000000801600001021632CA    YPYPY   005500360039
BI00B32CA    #PTA32083      202205127189-3034-30             HOUSING FEMALE           CCN000003200000003200FN00000000020220801000003200NNE   20220207122012    2F0F  00000160000000972800001192832CA    YPYPY   005500360039
BI00B32CC    CTA32043       202203037289-6868-30             SEALED ASSY FEMALE       CCN000050400000000000FY00000000020211201000000000NNEQ0820220207103458    4N0N  00000252000000839200001119232CC    BIYABCBU005500360039
BI00B32CC    CTA32053       202203177289-3342                HOUSING FEMALE ASS'Y     CCN000014400000014400FN00000000020220601000014400NNES0020220207122012    1N0N  00000240000000686400000901432CC    BIYABCBU005500360039
BI00B32CC    CTA32053       202203177289-3342-30             HOUSING FEMALE ASS'Y     CCN000016800000016800FN00000000020220601000016800NNED0420220207122012    1N0N  00000240000000686400000901432CC    BIYABCBU005500360039
BI00A32CH    SJ22035 MW     202202087158-3022-80             RUBBER STOPPER           CCN000005000000005000FN00000000020220301000005000NNMM0020220207132933    1C0C  00000500000000467500000524032CH    SJSAMIJF002700430014
BI00B32CH    SJ22032HMW     202202107C89-6868-30             SEALED ASSY FEMALE       CCN000040320000040320FN00000000020220301000040320NNM00020220207151622    4N0N  00000252000000839200001119232CH    SJSAMIJF005500360039
BI00B32CH    SJ22032HMW     202202077327-6870-30             MULTI FUSE               CCN000014112000014112FN00000979220220301000004320NNM00020220207161855    4N0N  00000028800001015200001181132CH    SJSAMIJF005400370024
BI00B32CH    SJ22032HMW     202202077327-6872-30             MULTI FUSE               CCN000006048000006048FN00000201620220301000004032NNMD0020220207161850    4N0N  00000028800000984500001150432CH    SJSAMIJF005400370024
BI00B32CH    SJ22032HMW     202202047327-6874-30             MULTI FUSE               CCN000005760000005760FY00000576020220301000000000NNM00020220207141838    4N0N  00000028800000991400001157332CH    SJSAMIJF005400370024
BI00B32CH    SJ22032HMW     202202047327-6878-30             MULTI FUSE               CCN000006048000000864FY00000086420220301000000000NNM00020220207151802    4N0N  00000028800000989700001155632CH    SJSAMIJF005400370024
BI00B32CH    SJ22031HMW     202202047327-6878-30             MULTI FUSE               CCN000006912000004896FY00000489620220301000000000NNM00020220207151857    4N0N  00000028800000989700001155632CH    SJSAMIJF005400370024
BI00A32CH    @SJ2202ASMW    202202087183-7770-40             HOUSING                  CCN000006000000006000FN00000000020220201000006000NNE   20220207152905    3F0F  00000600000001011000001161032CH    SJSAMIJF005400370024
BI00B32CH    SJ22032HMW     202202107327-6870-30             MULTI FUSE               CCN000004320000000000FY00000000020220301000000000NNM00020220207161819    4N0N  00000028800001015200001181132CH    SJSAMIJF005400370024
BI00B32CH    SJ22032HMW     202202107327-6878-30             MULTI FUSE               CCN000005184000005184FN00000000020220301000005184NNM00020220207151802    4N0N  00000028800000989700001155632CH    SJSAMIJF005400370024
BI00B32CH    SJ22031HMW     202202107327-6878-30             MULTI FUSE               CCN000002016000002016FN00000000020220301000002016NNM00020220207151857    4N0N  00000028800000989700001155632CH    SJSAMIJF005400370024
BI00B32CJ    #JQN2024       202202117172-5629-80             RUBBER STOPPER           CCN000120000000120000FN00000000020220201000120000NNM00020220207155753    2H0H  00002000000000060000000111132CJ    QNYHVQN 004300270014
BI00B32CJ    #JQN2025       202202187172-5629-80             RUBBER STOPPER           CCN000120000000120000FN00000000020220201000120000NNM00020220207155813    2H0H  00002000000000060000000111132CJ    QNYHVQN 004300270014
BI00B32CJ    #JQN2025       202202187172-5630-40             RUBBER STOPPER           CCN000020000000020000FN00000000020220201000020000NNM00020220207155825    2H0H  00002000000000044000000095132CJ    QNYHVQN 004300270014
BI00B32DA    SBT2204        202203037288-3329-30             HOUSING MALE             CCN000016500000003000FN00000000020220401000003000NNMD0420220207122012    4N0N  00000150000000866100001011132DA    GBYIPLGB005400370024
BI00B32DA    SBT2204A       202203317288-3329-30             HOUSING MALE             CCN000007500000007500FN00000000020220401000007500NNMD0420220207122012    4N0N  00000150000000866100001011132DA    GBYIPLGB005400370024
BI00B32DA    SBT2204        202203037288-3331-30             HOUSING MALE             CCN000016500000003000FN00000000020220401000003000NNMD0420220207122012    4N0N  00000150000000866000001010932DA    GBYIPLGB005400370024
BI00B32DA    SBT2204A       202203317288-3331-30             HOUSING MALE             CCN000007500000007500FN00000000020220401000007500NNMD0420220207122012    4N0N  00000150000000866000001010932DA    GBYIPLGB005400370024
BI00B32DA    SBT2204        202203037288-3336-30             HOUSING MALE             CCN000012000000003000FN00000000020220401000003000NNMD0420220207122012    4N0N  00000150000000867000001012032DA    GBYIPLGB005400370024
BI00B32DA    SBT2204A       202203317288-3336-30             HOUSING MALE             CCN000006000000006000FN00000000020220401000006000NNMD0420220207122012    4N0N  00000150000000867000001012032DA    GBYIPLGB005400370024
BI00B32DA    SBT2204        202203037288-3337-30             HOUSING MALE             CCN000019500000004500FN00000000020220401000004500NNMD0420220207122012    4N0N  00000150000000867000001012032DA    GBYIPLGB005400370024
BI00B32DA    SBT2204A       202203317288-3337-30             HOUSING MALE             CCN000007500000007500FN00000000020220401000007500NNMD0420220207122012    4N0N  00000150000000867000001012032DA    GBYIPLGB005400370024
BI00B32DA    SBT2204        202203107288-3329-30             HOUSING MALE             CCN000004500000004500FN00000000020220401000004500NNMD0420220207122012    4N0N  00000150000000866100001011132DA    GBYIPLGB005400370024
BI00B32DA    SBT2204        202203177288-3329-30             HOUSING MALE             CCN000004500000004500FN00000000020220401000004500NNMD0420220207122012    4N0N  00000150000000866100001011132DA    GBYIPLGB005400370024
BI00B32DA    SBT2204        202203247288-3329-30             HOUSING MALE             CCN000004500000004500FN00000000020220401000004500NNMD0420220207122012    4N0N  00000150000000866100001011132DA    GBYIPLGB005400370024
BI00B32DA    SBT2204        202203107288-3331-30             HOUSING MALE             CCN000004500000004500FN00000000020220401000004500NNMD0420220207122012    4N0N  00000150000000866000001010932DA    GBYIPLGB005400370024
BI00B32DA    SBT2204        202203177288-3331-30             HOUSING MALE             CCN000004500000004500FN00000000020220401000004500NNMD0420220207122012    4N0N  00000150000000866000001010932DA    GBYIPLGB005400370024
BI00B32DA    SBT2204        202203247288-3331-30             HOUSING MALE             CCN000004500000004500FN00000000020220401000004500NNMD0420220207122012    4N0N  00000150000000866000001010932DA    GBYIPLGB005400370024
BI00B32DA    SBT2204        202203107288-3336-30             HOUSING MALE             CCN000003000000003000FN00000000020220401000003000NNMD0420220207122012    4N0N  00000150000000867000001012032DA    GBYIPLGB005400370024
BI00B32DA    SBT2204        202203177288-3336-30             HOUSING MALE             CCN000003000000003000FN00000000020220401000003000NNMD0420220207122012    4N0N  00000150000000867000001012032DA    GBYIPLGB005400370024
BI00B32DA    SBT2204        202203247288-3336-30             HOUSING MALE             CCN000003000000003000FN00000000020220401000003000NNMD0420220207122012    4N0N  00000150000000867000001012032DA    GBYIPLGB005400370024
BI00B32DA    SBT2204        202203107288-3337-30             HOUSING MALE             CCN000004500000004500FN00000000020220401000004500NNMD0420220207122012    4N0N  00000150000000867000001012032DA    GBYIPLGB005400370024
BI00B32DA    SBT2204        202203177288-3337-30             HOUSING MALE             CCN000004500000004500FN00000000020220401000004500NNMD0420220207122012    4N0N  00000150000000867000001012032DA    GBYIPLGB005400370024
BI00B32DA    SBT2204        202203247288-3337-30             HOUSING MALE             CCN000004500000006000FN00000000020220401000006000NNMD0420220207122012    4N0N  00000150000000867000001012032DA    GBYIPLGB005400370024
BI00B32DG    RP2041         202203107017-1183-02             TERMINAL                 CCN000027000000027000FN00000000020220401000027000NNM   20220207122012    4P0P  00002700000001139400001307432DG    BFSAIBF 005100280028
BI00B32DG    RP2041         202203107114-4020                TERMINAL                 CCN000042000000042000FN00000000020220401000042000NNM   20220207122012    4P0P  00002100000000875700001169332DG    BFSAIBF 006400630015
BI00B32DG    RP2042         202203177114-4020                TERMINAL                 CCN000042000000042000FN00000000020220401000042000NNM   20220207122012    4P0P  00002100000000875700001169332DG    BFSAIBF 006400630015
BI00B32DG    RP2043         202203247114-4020                TERMINAL                 CCN000042000000042000FN00000000020220401000042000NNM   20220207122012    4P0P  00002100000000875700001169332DG    BFSAIBF 006400630015
BI00B32DG    RP2041         202203107114-4021                TERMINAL                 CCN000045000000045000FN00000000020220401000045000NNM   20220207122012    4P0P  00001500000000670500000964132DG    BFSAIBF 006400630015
BI00B32DG    RP2042         202203177114-4021                TERMINAL                 CCN000045000000045000FN00000000020220401000045000NNM   20220207122012    4P0P  00001500000000670500000964132DG    BFSAIBF 006400630015
BI00B32DG    RP2043         202203247114-4021                TERMINAL                 CCN000045000000045000FN00000000020220401000045000NNM   20220207122012    4P0P  00001500000000670500000964132DG    BFSAIBF 006400630015
BI00B32DG    RP2041         202203107114-4231-02             TERMINAL                 CCN000018000000018000FN00000000020220401000018000NNM   20220207122012    4P0P  00001800000000554400000848032DG    BFSAIBF 006400630015
BI00B32DG    RP2042         202203177114-4231-02             TERMINAL                 CCN000018000000018000FN00000000020220401000018000NNM   20220207122012    4P0P  00001800000000554400000848032DG    BFSAIBF 006400630015
BI00B32DG    RP2041         202203107114-4486-02             TERMINAL                 CCN000024000000024000FN00000000020220401000024000NNM   20220207122012    4P0P  00002400000000662400000956032DG    BFSAIBF 006400630015
BI00B32DG    RP2041         202203107114-4624-02             TERMINAL                 CCN000024000000024000FN00000000020220401000024000NNM   20220207122012    4P0P  00002400000000895200001188832DG    BFSAIBF 006400630015
BI00B32DG    RP2042         202203177114-4624-02             TERMINAL                 CCN000024000000024000FN00000000020220401000024000NNM   20220207122012    4P0P  00002400000000895200001188832DG    BFSAIBF 006400630015
BI00B32DG    RP2043         202203247114-4624-02             TERMINAL                 CCN000024000000024000FN00000000020220401000024000NNM   20220207122012    4P0P  00002400000000895200001188832DG    BFSAIBF 006400630015
BI00B32DG    RP2044         202203317114-4624-02             TERMINAL                 CCN000024000000024000FN00000000020220401000024000NNM   20220207122012    4P0P  00002400000000895200001188832DG    BFSAIBF 006400630015
BI00B32DG    RP2041         202203107114-4728-02             TERMINAL                 CCN000180000000180000FN00000000020220401000180000NNM   20220207122012    4P0P  00003000000000510000000804232DG    BFSAIBF 006400630015
BI00B32DG    RP2042         202203177114-4728-02             TERMINAL                 CCN000180000000180000FN00000000020220401000180000NNM   20220207122012    4P0P  00003000000000510000000804232DG    BFSAIBF 006400630015
BI00B32DG    RP2043         202203247114-4728-02             TERMINAL                 CCN000180000000180000FN00000000020220401000180000NNM   20220207122012    4P0P  00003000000000510000000804232DG    BFSAIBF 006400630015
BI00B32DG    RP2044         202203317114-4728-02             TERMINAL                 CCN000090000000090000FN00000000020220401000090000NNM   20220207122012    4P0P  00003000000000510000000804232DG    BFSAIBF 006400630015
BI00B32DG    RP2041         202203107114-4729-02             TERMINAL                 CCN000060000000060000FN00000000020220401000060000NNM   20220207122012    4P0P  00003000000000516000000810232DG    BFSAIBF 006400630015
BI00B32DG    RP2042         202203177114-4729-02             TERMINAL                 CCN000060000000060000FN00000000020220401000060000NNM   20220207122012    4P0P  00003000000000516000000810232DG    BFSAIBF 006400630015
BI00B32DG    RP2043         202203247114-4729-02             TERMINAL                 CCN000060000000060000FN00000000020220401000060000NNM   20220207122012    4P0P  00003000000000516000000810232DG    BFSAIBF 006400630015
BI00B32DG    RP2041         202203107114-5746-02             TERMINAL                 CCN000042000000042000FN00000000020220401000042000NNM   20220207122012    4P0P  00002100000000695100000988732DG    BFSAIBF 006400630015
BI00B32DG    RP2042         202203177114-5746-02             TERMINAL                 CCN000042000000042000FN00000000020220401000042000NNM   20220207122012    4P0P  00002100000000695100000988732DG    BFSAIBF 006400630015
BI00B32DG    RP2043         202203247114-5746-02             TERMINAL                 CCN000042000000042000FN00000000020220401000042000NNM   20220207122012    4P0P  00002100000000695100000988732DG    BFSAIBF 006400630015
BI00B32DG    RP2044         202203317114-5746-02             TERMINAL                 CCN000021000000021000FN00000000020220401000021000NNM   20220207122012    4P0P  00002100000000695100000988732DG    BFSAIBF 006400630015
BI00B32DG    RP2041         202203107114-5747-02             TERMINAL                 CCN000072000000072000FN00000000020220401000072000NNM   20220207122012    4P0P  00001800000000626400000920032DG    BFSAIBF 006400630015
BI00B32DG    RP2042         202203177114-5747-02             TERMINAL                 CCN000072000000072000FN00000000020220401000072000NNM   20220207122012    4P0P  00001800000000626400000920032DG    BFSAIBF 006400630015
BI00B32DG    RP2043         202203247114-5747-02             TERMINAL                 CCN000072000000072000FN00000000020220401000072000NNM   20220207122012    4P0P  00001800000000626400000920032DG    BFSAIBF 006400630015
BI00B32DG    RP2044         202203317114-5747-02             TERMINAL                 CCN000072000000072000FN00000000020220401000072000NNM   20220207122012    4P0P  00001800000000626400000920032DG    BFSAIBF 006400630015
BI00B32DG    RP2041         202203107114-5748-02             TERMINAL                 CCN000024000000024000FN00000000020220401000024000NNM   20220207122012    4P0P  00001200000000444000000737632DG    BFSAIBF 006400630015
BI00B32DG    RP2042         202203177114-5748-02             TERMINAL                 CCN000024000000024000FN00000000020220401000024000NNM   20220207122012    4P0P  00001200000000444000000737632DG    BFSAIBF 006400630015
BI00B32DG    RP2043         202203247114-5748-02             TERMINAL                 CCN000024000000024000FN00000000020220401000024000NNM   20220207122012    4P0P  00001200000000444000000737632DG    BFSAIBF 006400630015
BI00B32DG    RP2041         202203107114-5753-02             TERMINAL                 CCN000081000000081000FN00000000020220401000081000NNM   20220207122012    4P0P  00002700000000847800001141432DG    BFSAIBF 006400630015
BI00B32DG    RP2042         202203177114-5753-02             TERMINAL                 CCN000081000000081000FN00000000020220401000081000NNM   20220207122012    4P0P  00002700000000847800001141432DG    BFSAIBF 006400630015
BI00B32DG    RP2043         202203247114-5753-02             TERMINAL                 CCN000081000000081000FN00000000020220401000081000NNM   20220207122012    4P0P  00002700000000847800001141432DG    BFSAIBF 006400630015
BI00B32DG    RP2041         202203107116-4020                TERMINAL                 CCN000040500000040500FN00000000020220401000040500NNM   20220207122012    4P0P  00001350000000513000000798232DG    BFSAIBF 006400630015
BI00B32DG    RP2042         202203177116-4020                TERMINAL                 CCN000040500000040500FN00000000020220401000040500NNM   20220207122012    4P0P  00001350000000513000000798232DG    BFSAIBF 006400630015
BI00B32DG    RP2043         202203247116-4020                TERMINAL                 CCN000040500000040500FN00000000020220401000040500NNM   20220207122012    4P0P  00001350000000513000000798232DG    BFSAIBF 006400630015
BI00B32DG    RP2041         202203107116-4025                TERMINAL                 CCN000016000000016000FN00000000020220401000016000NNM   20220207122012    4P0P  00001600000000644800000975132DG    BFSAIBF 006400630017
BI00B32DG    RP2042         202203177116-4025                TERMINAL                 CCN000016000000016000FN00000000020220401000016000NNM   20220207122012    4P0P  00001600000000644800000975132DG    BFSAIBF 006400630017
BI00B32DG    RP2043         202203247116-4025                TERMINAL                 CCN000016000000016000FN00000000020220401000016000NNM   20220207122012    4P0P  00001600000000644800000975132DG    BFSAIBF 006400630017
BI00B32DG    RP2044         202203317116-4025                TERMINAL                 CCN000016000000016000FN00000000020220401000016000NNM   20220207122012    4P0P  00001600000000644800000975132DG    BFSAIBF 006400630017
BI00B32DG    RP2041         202203107116-4231-02             TERMINAL                 CCN000156000000156000FN00000000020220401000156000NNM   20220207122012    4P0P  00002600000000683800001012532DG    BFSAIBF 006400630017
BI00B32DG    RP2042         202203177116-4231-02             TERMINAL                 CCN000156000000156000FN00000000020220401000156000NNM   20220207122012    4P0P  00002600000000683800001012532DG    BFSAIBF 006400630017
BI00B32DG    RP2043         202203247116-4231-02             TERMINAL                 CCN000156000000156000FN00000000020220401000156000NNM   20220207122012    4P0P  00002600000000683800001012532DG    BFSAIBF 006400630017
BI00B32DG    RP2044         202203317116-4231-02             TERMINAL                 CCN000130000000130000FN00000000020220401000130000NNM   20220207122012    4P0P  00002600000000683800001012532DG    BFSAIBF 006400630017
BI00B32DG    RP2041         202203107116-4486-02             TERMINAL                 CCN000084000000084000FN00000000020220401000084000NNM   20220207122012    4P0P  00002800000000666400000995132DG    BFSAIBF 006400630017
BI00B32DG    RP2042         202203177116-4486-02             TERMINAL                 CCN000084000000084000FN00000000020220401000084000NNM   20220207122012    4P0P  00002800000000666400000995132DG    BFSAIBF 006400630017
BI00B32DG    RP2043         202203247116-4486-02             TERMINAL                 CCN000084000000084000FN00000000020220401000084000NNM   20220207122012    4P0P  00002800000000666400000995132DG    BFSAIBF 006400630017
BI00B32DG    RP2044         202203317116-4486-02             TERMINAL                 CCN000084000000084000FN00000000020220401000084000NNM   20220207122012    4P0P  00002800000000666400000995132DG    BFSAIBF 006400630017
BI00B32DG    RP2041         202203107116-5035-02             TERMINAL                 CCN000015000000015000FN00000000020220401000015000NNM   20220207122012    4P0P  00001500000000543000000828232DG    BFSAIBF 006400630015
BI00B32DG    RP2042         202203177116-5035-02             TERMINAL                 CCN000015000000015000FN00000000020220401000015000NNM   20220207122012    4P0P  00001500000000543000000828232DG    BFSAIBF 006400630015
BI00B32DG    RP2043         202203247116-5035-02             TERMINAL                 CCN000015000000015000FN00000000020220401000015000NNM   20220207122012    4P0P  00001500000000543000000828232DG    BFSAIBF 006400630015
BI00B32DG    RP2044         202203317116-5035-02             TERMINAL                 CCN000015000000015000FN00000000020220401000015000NNM   20220207122012    4P0P  00001500000000543000000828232DG    BFSAIBF 006400630015
BI00B32DG    RP2041         202203107116-5041-02             TERMINAL                 CCN000015000000015000FN00000000020220401000015000NNM   20220207122012    4P0P  00001500000000583500000868732DG    BFSAIBF 006400630015
BI00B32DG    RP2041         202203107116-5042-02             TERMINAL                 CCN000081000000081000FN00000000020220401000081000NNM   20220207122012    4P0P  00001350000000560300000845532DG    BFSAIBF 006400630015
BI00B32DG    RP2042         202203177116-5042-02             TERMINAL                 CCN000081000000081000FN00000000020220401000081000NNM   20220207122012    4P0P  00001350000000560300000845532DG    BFSAIBF 006400630015
BI00B32DG    RP2043         202203247116-5042-02             TERMINAL                 CCN000081000000081000FN00000000020220401000081000NNM   20220207122012    4P0P  00001350000000560300000845532DG    BFSAIBF 006400630015
BI00B32DG    RP2044         202203317116-5042-02             TERMINAL                 CCN000067500000067500FN00000000020220401000067500NNM   20220207122012    4P0P  00001350000000560300000845532DG    BFSAIBF 006400630015
BI00B32DG    RP2041         202203107116-5044-02             TERMINAL                 CCN000048000000048000FN00000000020220401000048000NNM   20220207122012    4P0P  00001600000000641600000986332DG    BFSAIBF 006400630017
BI00B32DG    RP2042         202203177116-5044-02             TERMINAL                 CCN000048000000048000FN00000000020220401000048000NNM   20220207122012    4P0P  00001600000000641600000986332DG    BFSAIBF 006400630017
BI00B32DG    RP2043         202203247116-5044-02             TERMINAL                 CCN000048000000048000FN00000000020220401000048000NNM   20220207122012    4P0P  00001600000000641600000986332DG    BFSAIBF 006400630017
BI00B32DG    RP2044         202203317116-5044-02             TERMINAL                 CCN000032000000032000FN00000000020220401000032000NNM   20220207122012    4P0P  00001600000000641600000986332DG    BFSAIBF 006400630017
BI00B32DG    RP2041         202203107116-5045-02             TERMINAL                 CCN000048000000048000FN00000000020220401000048000NNM   20220207122012    4P0P  00001600000000678400001007132DG    BFSAIBF 006400630017
BI00B32DG    RP2042         202203177116-5045-02             TERMINAL                 CCN000048000000048000FN00000000020220401000048000NNM   20220207122012    4P0P  00001600000000678400001007132DG    BFSAIBF 006400630017
BI00B32DG    RP2043         202203247116-5045-02             TERMINAL                 CCN000048000000048000FN00000000020220401000048000NNM   20220207122012    4P0P  00001600000000678400001007132DG    BFSAIBF 006400630017
BI00B32DG    RP2044         202203317116-5045-02             TERMINAL                 CCN000016000000016000FN00000000020220401000016000NNM   20220207122012    4P0P  00001600000000678400001007132DG    BFSAIBF 006400630017
BI00B32DG    RP2041         202203107116-5046-02             TERMINAL                 CCN000012000000012000FN00000000020220401000012000NNM   20220207122012    4P0P  00001200000000544800000873532DG    BFSAIBF 006400630017
BI00B32DG    RP2042         202203177116-5046-02             TERMINAL                 CCN000012000000012000FN00000000020220401000012000NNM   20220207122012    4P0P  00001200000000544800000873532DG    BFSAIBF 006400630017
BI00B32DG    RP2041         202203107158-3006-90             RUBBER STOPPER           CCN000040000000040000FN00000000020220401000040000NNM   20220207122012    1C0C  00002000000000330600000386032DG    BFSAIBF 002700430014
BI00B32DG    RP2042         202203177158-3006-90             RUBBER STOPPER           CCN000040000000040000FN00000000020220401000040000NNM   20220207122012    1C0C  00002000000000330600000386032DG    BFSAIBF 002700430014
BI00B32DG    RP2043         202203247158-3006-90             RUBBER STOPPER           CCN000020000000020000FN00000000020220401000020000NNM   20220207122012    1C0C  00002000000000330600000386032DG    BFSAIBF 002700430014
BI00B32DG    RP2041         202203107116-5750-02             TERMINAL                 CCN000045000000045000FN00000000020220401000045000NNM   20220207122012    4P0P  00001500000000457500000742732DG    BFSAIBF 006400630015
BI00B32DG    RP2042         202203177116-5750-02             TERMINAL                 CCN000045000000045000FN00000000020220401000045000NNM   20220207122012    4P0P  00001500000000457500000742732DG    BFSAIBF 006400630015
BI00B32DG    RP2043         202203247116-5750-02             TERMINAL                 CCN000045000000045000FN00000000020220401000045000NNM   20220207122012    4P0P  00001500000000457500000742732DG    BFSAIBF 006400630015
BI00B32DG    RP2041         202203107116-5751-02             TERMINAL                 CCN000024000000024000FN00000000020220401000024000NNM   20220207122012    4P0P  00001200000000379200000664432DG    BFSAIBF 006400630015
BI00B32DG    RP2042         202203177116-5751-02             TERMINAL                 CCN000024000000024000FN00000000020220401000024000NNM   20220207122012    4P0P  00001200000000379200000664432DG    BFSAIBF 006400630015
BI00B32DG    RP2043         202203247116-5751-02             TERMINAL                 CCN000024000000024000FN00000000020220401000024000NNM   20220207122012    4P0P  00001200000000379200000664432DG    BFSAIBF 006400630015
BI00B32DG    RP2041         202203107283-1156                CONNECTOR                CCN000000800000000800FN00000000020220401000000800NNM   20220207122012    4N0N  00000080000000877600001078032DG    BFSAIBF 005600390040
BI00B32DG    RP2042         202203177283-1156                CONNECTOR                CCN000000800000000800FN00000000020220401000000800NNM   20220207122012    4N0N  00000080000000877600001078032DG    BFSAIBF 005600390040
BI00B32DG    RP2043         202203247283-1156                CONNECTOR                CCN000000800000000800FN00000000020220401000000800NNM   20220207122012    4N0N  00000080000000877600001078032DG    BFSAIBF 005600390040
BI00B32DG    RP2044         202203317283-1156                CONNECTOR                CCN000000800000000800FN00000000020220401000000800NNM   20220207122012    4N0N  00000080000000877600001078032DG    BFSAIBF 005600390040
BI00B32DG    RP2041         202203107287-9234                JOINT CONNECTOR          CCN000009600000009600FN00000000020220401000009600NNM   20220207122012    4N0N  00000960000000893800001184832DG    BFSAIBF 005500360039
BI00B32DG    RP2041         202203107114-5096-02             TERMINAL                 CCN000030000000030000FN00000000020220401000030000NNM   20220207122012    4P0P  00003000000000498000000792232DG    BFSAIBF 006400630015
BI00B32DG    RP2041         202203107288-3329-30             HOUSING MALE             CCN000003000000003000FN00000000020220401000003000NNM   20220207122012    4N0N  00000150000000866100001011132DG    BFSAIBF 005400370024
BI00B32DG    RP2042         202203177288-3329-30             HOUSING MALE             CCN000003000000003000FN00000000020220401000003000NNM   20220207122012    4N0N  00000150000000866100001011132DG    BFSAIBF 005400370024
BI00B32DG    RP2043         202203247288-3329-30             HOUSING MALE             CCN000003000000003000FN00000000020220401000003000NNM   20220207122012    4N0N  00000150000000866100001011132DG    BFSAIBF 005400370024
BI00B32DG    RP2044         202203317288-3329-30             HOUSING MALE             CCN000003000000003000FN00000000020220401000003000NNM   20220207122012    4N0N  00000150000000866100001011132DG    BFSAIBF 005400370024
BI00B32DG    RP2041         202203107289-3342-30             HOUSING FEMALE ASS'Y     CCN000004800000004800FN00000000020220401000004800NNM   20220207122012    1N0N  00000240000000686400000901432DG    BFSAIBF 005500360039
BI00B32DG    RP2042         202203177289-3342-30             HOUSING FEMALE ASS'Y     CCN000004800000004800FN00000000020220401000004800NNM   20220207122012    1N0N  00000240000000686400000901432DG    BFSAIBF 005500360039
BI00B32DG    RP2043         202203247289-3342-30             HOUSING FEMALE ASS'Y     CCN000004800000004800FN00000000020220401000004800NNM   20220207122012    1N0N  00000240000000686400000901432DG    BFSAIBF 005500360039
BI00B32DG    RP2044         202203317289-3342-30             HOUSING FEMALE ASS'Y     CCN000004800000004800FN00000000020220401000004800NNM   20220207122012    1N0N  00000240000000686400000901432DG    BFSAIBF 005500360039
BI00B32DG    RP2041         202203107283-4576                HOUSING FEMALE ASS'Y     CCN000004800000004800FN00000000020220401000004800NNM   20220207122012    4N0N  00000480000000651300000871332DG    BFSAIBF 005500360039
BI00B32DG    RP2042         202203177283-4576                HOUSING FEMALE ASS'Y     CCN000004800000004800FN00000000020220401000004800NNM   20220207122012    4N0N  00000480000000651300000871332DG    BFSAIBF 005500360039
BI00B32DG    RP2043         202203247283-4576                HOUSING FEMALE ASS'Y     CCN000004800000004800FN00000000020220401000004800NNM   20220207122012    4N0N  00000480000000651300000871332DG    BFSAIBF 005500360039
BI00B32DG    RP2041         202203107116-4415-02             TERMINAL                 CCN000114000000114000FN00000000020220401000114000NNM   20220207122012    4P0P  00003800000000596600000925732DG    BFSAIBF 006400630017
BI00B32DG    RP2042         202203177116-4415-02             TERMINAL                 CCN000114000000114000FN00000000020220401000114000NNM   20220207122012    4P0P  00003800000000596600000925732DG    BFSAIBF 006400630017
BI00B32DG    RP2043         202203247116-4415-02             TERMINAL                 CCN000114000000114000FN00000000020220401000114000NNM   20220207122012    4P0P  00003800000000596600000925732DG    BFSAIBF 006400630017
BI00B32DG    RP2044         202203317116-4415-02             TERMINAL                 CCN000076000000076000FN00000000020220401000076000NNM   20220207122012    4P0P  00003800000000596600000925732DG    BFSAIBF 006400630017
BI00B32DG    RP2041         202203107282-4576                HOUSING MALE ASS'Y       CCN000002400000002400FN00000000020220401000002400NNM   20220207122012    4N0N  00000240000000808800001028832DG    BFSAIBF 005500360039
BI00B32DG    RP2041         202203107282-4577                HOUSING MALE ASS'Y       CCN000002400000002400FN00000000020220401000002400NNM   20220207122012    4N0N  00000240000000964800001174832DG    BFSAIBF 005500360039
BI00B32DG    RP2042         202203177282-4577                HOUSING MALE ASS'Y       CCN000002400000002400FN00000000020220401000002400NNM   20220207122012    4N0N  00000240000000964800001174832DG    BFSAIBF 005500360039
BI00B32DG    RP2043         202203247282-4577                HOUSING MALE ASS'Y       CCN000002400000002400FN00000000020220401000002400NNM   20220207122012    4N0N  00000240000000964800001174832DG    BFSAIBF 005500360039
BI00B32DG    RP2044         202203317282-4577                HOUSING MALE ASS'Y       CCN000002400000002400FN00000000020220401000002400NNM   20220207122012    4N0N  00000240000000964800001174832DG    BFSAIBF 005500360039
BI00B32DG    RP2041         202203107288-3339-30             HOUSING MALE             CCN000001500000001500FN00000000020220401000001500NNM   20220207122012    4N0N  00000150000000867000001012032DG    BFSAIBF 005400370024
BI00B32DG    RP2041         202203107116-5752-02             TERMINAL                 CCN000021000000021000FN00000000020220401000021000NNM   20220207122012    4P0P  00002100000000571200000856432DG    BFSAIBF 006400630015
BI00B32DG    RP2042         202203177116-5752-02             TERMINAL                 CCN000021000000021000FN00000000020220401000021000NNM   20220207122012    4P0P  00002100000000571200000856432DG    BFSAIBF 006400630015
BI00B32DG    RP2041         202203107282-4578                HOUSING MALE ASS'Y       CCN000001200000001200FN00000000020220401000001200NNM   20220207122012    4N0N  00000120000000782600000992632DG    BFSAIBF 005500360039
BI00B32DG    RP2041         202203107286-1915                CONNECTOR SUB ASSY       CCN000001600000001600FN00000000020220401000001600NNM   20220207122012    4N0N  00000160000000965600001165632DG    BFSAIBF 005500360039
BI00B32DG    RP2041         202203107116-5043-02             TERMINAL FEMALE          CCN000024000000024000FN00000000020220401000024000NNM   20220207122012    4P0P  00001200000000559200000844432DG    BFSAIBF 006400630015
BI00B32DG    RP2042         202203177116-5043-02             TERMINAL FEMALE          CCN000024000000024000FN00000000020220401000024000NNM   20220207122012    4P0P  00001200000000559200000844432DG    BFSAIBF 006400630015
BI00B32DG    RP2043         202203247116-5043-02             TERMINAL FEMALE          CCN000024000000024000FN00000000020220401000024000NNM   20220207122012    4P0P  00001200000000559200000844432DG    BFSAIBF 006400630015
BI00B32DG    RP2044         202203317116-5043-02             TERMINAL FEMALE          CCN000012000000012000FN00000000020220401000012000NNM   20220207122012    4P0P  00001200000000559200000844432DG    BFSAIBF 006400630015
BI00B32DG    RP2041         202203107116-3153-02             TERMINAL FEMALE          CCN000162000000162000FN00000000020220401000162000NNM   20220207122012    4P0P  00002700000000459000000744232DG    BFSAIBF 006400630015
BI00B32DG    RP2042         202203177116-3153-02             TERMINAL FEMALE          CCN000162000000162000FN00000000020220401000162000NNM   20220207122012    4P0P  00002700000000459000000744232DG    BFSAIBF 006400630015
BI00B32DG    RP2043         202203247116-3153-02             TERMINAL FEMALE          CCN000162000000162000FN00000000020220401000162000NNM   20220207122012    4P0P  00002700000000459000000744232DG    BFSAIBF 006400630015
BI00B32DG    RP2044         202203317116-3153-02             TERMINAL FEMALE          CCN000081000000081000FN00000000020220401000081000NNM   20220207122012    4P0P  00002700000000459000000744232DG    BFSAIBF 006400630015
BI00B32DG    RP2041         202203107116-4416-02             TERMINAL                 CCN000032000000032000FN00000000020220401000032000NNM   20220207122012    4P0P  00003200000000518400000847132DG    BFSAIBF 006400630017
BI00B32DG    RP2042         202203177116-4416-02             TERMINAL                 CCN000032000000032000FN00000000020220401000032000NNM   20220207122012    4P0P  00003200000000518400000847132DG    BFSAIBF 006400630017
BI00B32DG    RP2041         202203107114-6041                TERMINAL                 CCN000003600000003600FN00000000020220401000003600NNM   20220207122012    4P0P  00000360000000580700000824232DG    BFSAIBF 006400630015
BI00B32DG    RP2042         202203177114-6041                TERMINAL                 CCN000003600000003600FN00000000020220401000003600NNM   20220207122012    4P0P  00000360000000580700000824232DG    BFSAIBF 006400630015
BI00B32DG    RP2043         202203247114-6041                TERMINAL                 CCN000003600000003600FN00000000020220401000003600NNM   20220207122012    4P0P  00000360000000580700000824232DG    BFSAIBF 006400630015
BI00B32DG    RP2041         202203107286-4097                CONNECTOR MALE ASS'Y     CCN000001600000001600FN00000000020220401000001600NNM   20220207122012    1N0N  00000160000000768000000978032DG    BFSAIBF 005500360039
BI00B32DG    RP2041         202203107288-3340-30             HOUSING MALE             CCN000001500000001500FN00000000020220401000001500NNM   20220207122012    4N0N  00000150000000861500001006432DG    BFSAIBF 005400370024
BI00B32DG    RP2042         202203177288-3340-30             HOUSING MALE             CCN000001500000001500FN00000000020220401000001500NNM   20220207122012    4N0N  00000150000000861500001006432DG    BFSAIBF 005400370024
BI00B32DG    RP2043         202203247288-3340-30             HOUSING MALE             CCN000001500000001500FN00000000020220401000001500NNM   20220207122012    4N0N  00000150000000861500001006432DG    BFSAIBF 005400370024
BI00B32DG    RP2044         202203317288-3340-30             HOUSING MALE             CCN000001500000001500FN00000000020220401000001500NNM   20220207122012    4N0N  00000150000000861500001006432DG    BFSAIBF 005400370024
BI00B32DG    RP2041         202203107283-1289                CONNECTOR HOUSING        CCN000002400000002400FN00000000020220401000002400NNM   20220207122012    1N0N  00000060000000676200000817632DG    BFSAIBF 005400370024
BI00B32DG    RP2042         202203177283-1289                CONNECTOR HOUSING        CCN000002400000002400FN00000000020220401000002400NNM   20220207122012    1N0N  00000060000000676200000817632DG    BFSAIBF 005400370024
BI00B32DG    RP2043         202203247283-1289                CONNECTOR HOUSING        CCN000002400000002400FN00000000020220401000002400NNM   20220207122012    1N0N  00000060000000676200000817632DG    BFSAIBF 005400370024
BI00B32DG    RP2044         202203317283-1289                CONNECTOR HOUSING        CCN000000600000000600FN00000000020220401000000600NNM   20220207122012    1N0N  00000060000000676200000817632DG    BFSAIBF 005400370024
BI00B32DG    RP2041         202203107116-4115-02             TERMINAL                 CCN000008400000008400FN00000000020220401000008400NNM   20220207122012    4P0P  00000840000000593000000881232DG    BFSAIBF 006400630015
BI00B32DG    RP2041         202203107288-3337-30             HOUSING MALE             CCN000001500000001500FN00000000020220401000001500NNM   20220207122012    4N0N  00000150000000867000001012032DG    BFSAIBF 005400370024
BI00B32DG    @RP2041        202203107283-1100                CONNECTOR ASS'Y          CCN000001600000001600FN00000000020220401000001600NNM   20220207122012    3N0N  00000160000000566500000799632DG    BFSAIBF 005500360039
BI00B32DG    @RP2042        202203177283-1100                CONNECTOR ASS'Y          CCN000001600000001600FN00000000020220401000001600NNM   20220207122012    3N0N  00000160000000566500000799632DG    BFSAIBF 005500360039
BI00B32DG    @RP2043        202203247283-1100                CONNECTOR ASS'Y          CCN000001600000001600FN00000000020220401000001600NNM   20220207122012    3N0N  00000160000000566500000799632DG    BFSAIBF 005500360039
BI00B32DG    @RP2044        202203317283-1100                CONNECTOR ASS'Y          CCN000001600000001600FN00000000020220401000001600NNM   20220207122012    3N0N  00000160000000566500000799632DG    BFSAIBF 005500360039
BI00B32DG    @RP2041        202203107283-1556                CONNECTOR ASS'Y          CCN000024000000024000FN00000000020220401000024000NNM   20220207122012    3N0N  00000240000000755000001014032DG    BFSAIBF 005500360039
BI00B32DG    @RP2042        202203177283-1556                CONNECTOR ASS'Y          CCN000024000000024000FN00000000020220401000024000NNM   20220207122012    3N0N  00000240000000755000001014032DG    BFSAIBF 005500360039
BI00B32DG    @RP2043        202203247283-1556                CONNECTOR ASS'Y          CCN000024000000024000FN00000000020220401000024000NNM   20220207122012    3N0N  00000240000000755000001014032DG    BFSAIBF 005500360039
BI00B32DG    @RP2044        202203317283-1556                CONNECTOR ASS'Y          CCN000024000000024000FN00000000020220401000024000NNM   20220207122012    3N0N  00000240000000755000001014032DG    BFSAIBF 005500360039
BI00B32D2    DGTC2207       202202087288-6547                CONNECTOR MALE ASS'Y     CCN000003000000003000FN00000000020220201000003000NNM00020220207122012    4N0N  00000075000001205300001340332D2    TGYOT-G 005400370024
BI00B32D2    DGTC2216       202203037289-6547                HOUSING FEMALE ASS'Y     CCN000009600000007200FN00000000020220401000007200NNMD0420220207162838    1N0N  00000240000001152000001362032D2    TGYOT-G 005500360039
BI00B32D9    I21404         202203247289-3342                HOUSING FEMALE ASS'Y     CCN000014400000014400FN00000000020220401000014400NNMD0420220207122012    1N0N  00000240000000686400000901432D9    UEHESTO 005500360039
BI00B32D9    I21504         202203317289-3342                HOUSING FEMALE ASS'Y     CCN000014400000014400FN00000000020220401000014400NNMD0420220207122012    1N0N  00000240000000686400000901432D9    UEHESTO 005500360039
BI00B32D9    I21604         202204077289-3342                HOUSING FEMALE ASS'Y     CCN000014400000014400FN00000000020220401000014400NNMD0420220207122012    1N0N  00000240000000686400000901432D9    UEHESTO 005500360039
BI00B32D9    I21605         202204217289-3342                HOUSING FEMALE ASS'Y     CCN000014400000014400FN00000000020220401000014400NNMD0420220207122012    1N0N  00000240000000686400000901432D9    UEHESTO 005500360039
BI00B32D9    I21404         202203107289-3342-30             HOUSING FEMALE ASS'Y     CCN000028800000028800FN00000000020220401000028800NNMD0420220207122012    1N0N  00000240000000686400000901432D9    UEHESTO 005500360039
BI00B32D9    I21504         202203177289-3342-30             HOUSING FEMALE ASS'Y     CCN000028800000028800FN00000000020220401000028800NNMD0420220207122012    1N0N  00000240000000686400000901432D9    UEHESTO 005500360039
BI00B32D9    I21604         202203247289-3342-30             HOUSING FEMALE ASS'Y     CCN000028800000028800FN00000000020220401000028800NNMD0420220207122012    1N0N  00000240000000686400000901432D9    UEHESTO 005500360039
BI00B32D9    I21605         202203317289-3342-30             HOUSING FEMALE ASS'Y     CCN000028800000028800FN00000000020220401000028800NNMD0420220207122012    1N0N  00000240000000686400000901432D9    UEHESTO 005500360039
BI00A32D9    I223A          202202087289-6547                HOUSING FEMALE ASS'Y     CCN000004800000004800FN00000000020220201000004800NNED0020220207122012    1N0N  00000240000001152000001362032D9    UEHESTO 005500360039
BI00A32EJ    T211229P01     202202047116-4112-02             TERMINAL                 CCN000078000000078000FY00007800020220201000000000NNE00020220207152408EJ  4P0P  00000600000000450000000738232EJ    EJYKBO  006400630015
BI00B32EJ    T211229P03     202202087116-4022                TERMINAL                 CCN000013500000013500FN00000000020220201000013500NNE00020220207152453EJ  4P0P  00001350000000618300000903532EJ    EJYKBO  006400630015
BI00B32EJ    #T220107P02    202203247123-6423-30             CONNECTOR                CCN000016000000016000FN00000000020220201000016000NNED0220220207122012EJ  2F0F  00000200000001002000001167632EJ    EJYKBO  005600390023
BI00B32EJ    #T200113P01    202203247123-6423-30             CONNECTOR                CCN000004000000004000FN00000000020220201000004000NNED0220220207122012EJ  2F0F  00000200000001002000001167632EJ    EJYKBO  005600390023
BI00B32EJ    T220120P01     202203177158-3169-40             SEALING PLUG             CCN000440000000440000FN00000000020220301000440000NNED0220220207122012EJ  1C0C  00004000000000156000000204132EJ    EJYKBO  004300260014
BI00B32G2    SA22041 MW     202203167287-1917                CONNECTOR FEMALE         CCN000016800000016800FN00000000020220401000016800NNMD0420220207122012    4N0N  00000240000001060800001312532G2    AISUAI  005500360039
BI00B32G2    SA22042 MW     202203237287-1917                CONNECTOR FEMALE         CCN000014400000014400FN00000000020220401000014400NNMD0420220207122012    4N0N  00000240000001060800001312532G2    AISUAI  005500360039
BI00B32G2    SA22043 MW     202203307287-1917                CONNECTOR FEMALE         CCN000014400000014400FN00000000020220401000014400NNMD0420220207122012    4N0N  00000240000001060800001312532G2    AISUAI  005500360039
BI00B32G2    SA22041 MW     202203307289-3342-30             HOUSING FEMALE ASS'Y     CCN000072000000072000FN00000000020220401000072000NNMD0420220207122012    1N0N  00000240000000686400000901432G2    AISUAI  005500360039
BI00B32G2    SA22042 MW     202204067289-3342-30             HOUSING FEMALE ASS'Y     CCN000048000000048000FN00000000020220401000048000NNMD0420220207122012    1N0N  00000240000000686400000901432G2    AISUAI  005500360039
BI00B32G2    SA22043 MW     202204207289-3342-30             HOUSING FEMALE ASS'Y     CCN000036000000036000FN00000000020220401000036000NNMD0420220207122012    1N0N  00000240000000686400000901432G2    AISUAI  005500360039
BI00B32G2    SA22044 MW     202204277289-3342-30             HOUSING FEMALE ASS'Y     CCN000019200000019200FN00000000020220401000019200NNMD0420220207122012    1N0N  00000240000000686400000901432G2    AISUAI  005500360039
BI00B32G2    SA22044 MW     202204067470-5237                J/B ASS'Y                CCN000001680000001680FN00000000020220401000001680NNMD0220220207122012    1J0J  00000002400001320000001570032G2    AISUAI  005500360039
BI00B32G7    JJ22022 MW     202202047289-3342-30             HOUSING FEMALE ASS'Y     CCN000026400000002400FY00000240020220201000000000NNM00020220207152603    1N0N  00000240000000686400000901432G7    JIJAI   005500360039
BI00B32G7    JJ22024 MW     202202107289-3342-30             HOUSING FEMALE ASS'Y     CCN000026400000026400FN00000000020220201000026400NNM00020220207152621    1N0N  00000240000000686400000901432G7    JIJAI   005500360039
BI00B32G7    #JJ22024MMW    202202177172-5629-80             RUBBER STOPPER           CCN000260000000260000FN00000000020220201000260000NNM00020220207155303    2H0H  00002000000000060000000111132G7    JIJAI   004300270014
BI00B32G7    JJ2203CMMW     202202247126-8889-02             FUSE TERMINAL            CCN000006000000000000FY00000000020220301000000000NNEQ0820220207095213    4P0P  00000600000000448200000733432G7    JIJAI   006400630015
BI00B32G7    JJ2203CMMW     202202247126-8890-02             FUSE TERMINAL            CCN000006000000000000FY00000000020220301000000000NNEQ0820220207095230    4P0P  00000600000000465000000750232G7    JIJAI   006400630015
BI00B32G7    JJ2203CMMW     202202247289-3342-90             HOUSING FEMALE ASS'Y     CCN000002400000000000FY00000000020220301000000000NNEQ0820220207085142    1N0N  00000240000000686400000901432G7    JIJAI   005500360039
BI00B32G7    JJ22022 MW     202202107289-3342-30             HOUSING FEMALE ASS'Y     CCN000024000000024000FN00000000020220201000024000NNM00020220207152603    1N0N  00000240000000686400000901432G7    JIJAI   005500360039
BI00B32G9    #TY22031TMW    202202187172-5629-80             RUBBER STOPPER           CCN000020000000020000FN00000000020220301000020000NNM00020220207155909    2H0H  00002000000000060000000111132G9    TYTYC   004300270014
BI00B32H0    TT22051VMW     202203227327-6731-3W             BATTERY FUSE             CCN000011008000011008FN00000000020220501000011008NNMD0020220207122012    4N0N  00000006400000697600000843032H0    TTTJY   005400370024
BI00B32H0    #TT22051VMW    202203227172-5629-80             RUBBER STOPPER           CCN000320000000320000FN00000000020220501000320000NNMD0020220207122012    2H0H  00002000000000060000000111132H0    TTTJY   004300270014
BI00B32H0    TT2203EVMW     202203017289-6547                HOUSING FEMALE ASS'Y     CCN000002400000002400FN00000000020220301000002400NNED0020220207122012    1N0N  00000240000001152000001362032H0    TTTJY   005500360039
BI00B32H0    #TT2203EVMW    202202157172-5629-80             RUBBER STOPPER           CCN000340000000340000FN00000000020220301000340000NNED0020220207122012    2H0H  00002000000000060000000111132H0    TTTJY   004300270014
BI00B32H0    TT22051VMW     202203297327-6731-3W             BATTERY FUSE             CCN000005504000000000FY00000000020220501000000000NNMQ0020220207112040    4N0N  00000006400000697600000843032H0    TTTJY   005400370024
BI00B32H0    TT2204AVMW     202202227327-6809                MULTI FUSE               CCN000000560000000560FN00000000020220401000000560NNED0020220207160710    4N0N  00000056000000849300001061732H0    TTTJY   005400370024
BI00B32H2    #TIJ2024       202202107172-5630-40             RUBBER STOPPER           CCN000060000000060000FN00000000020220201000060000NNM00020220207152704    2H0H  00002000000000044000000095132H2    HVYHV   004300270014
BI00B32H2    #TIJ2025       202202187172-5630-40             RUBBER STOPPER           CCN000060000000060000FN00000000020220201000060000NNM00020220207152734    2H0H  00002000000000044000000095132H2    HVYHV   004300270014
BI00B32H7    #FS22031DMW    202202097172-5629-80             RUBBER STOPPER           CCN000240000000240000FN00000000020220301000240000NNM00020220207152915    2H0H  00002000000000060000000111132H7    FYFSY   004300270014
BI00B32H7    #FS22031DMW    202202157172-5630-40             RUBBER STOPPER           CCN000360000000360000FN00000000020220301000360000NNM00020220207152915    2H0H  00002000000000044000000095132H7    FYFSY   004300270014
BI00B32H7    FS22041DMW     202203097283-4855                CONNECTOR HOUSING        CCN000012000000012000FN00000000020220401000012000NNMD0420220207122012    4N0N  00000240000001188400001400032H7    FYFSY   005500360039
BI00B32H7    FS22042DMW     202203167283-4855                CONNECTOR HOUSING        CCN000024000000024000FN00000000020220401000024000NNMD0420220207122012    4N0N  00000240000001188400001400032H7    FYFSY   005500360039
BI00B32H7    FS22043DMW     202203237283-4855                CONNECTOR HOUSING        CCN000009600000009600FN00000000020220401000009600NNMD0420220207122012    4N0N  00000240000001188400001400032H7    FYFSY   005500360039
BI00B32H7    FS22044DMW     202203307283-4855                CONNECTOR HOUSING        CCN000012000000012000FN00000000020220401000012000NNMD0420220207122012    4N0N  00000240000001188400001400032H7    FYFSY   005500360039
BI00B32H7    FS22042DMW     202203167288-6547                CONNECTOR MALE ASS'Y     CCN000008250000008250FN00000000020220401000008250NNMD0420220207122012    4N0N  00000075000001205300001340332H7    FYFSY   005400370024
BI00B32H7    FS22043DMW     202203237288-6547                CONNECTOR MALE ASS'Y     CCN000006000000006000FN00000000020220401000006000NNMD0420220207122012    4N0N  00000075000001205300001340332H7    FYFSY   005400370024
BI00B32H7    FS22044DMW     202203307288-6547                CONNECTOR MALE ASS'Y     CCN000012000000012000FN00000000020220401000012000NNMD0420220207122012    4N0N  00000075000001205300001340332H7    FYFSY   005400370024
BI00B32H7    FS22041DMW     202203097297-3482                JOINT CONNECTOR          CCN000001600000001600FN00000000020220401000001600NNMD0420220207122012    4N0N  00000080000000621000000730532H7    FYFSY   005400370024
BI00B32H7    FS22041DMW     202203097298-3484                HOUSING FEMALE ASS'Y     CCN000002700000002700FN00000000020220401000002700NNMD0420220207122012    4N0N  00000270000000742500001028732H7    FYFSY   005400370024
BI00B32H7    FS22041DMW     202203097327-6949-30             MULTI FUSE               CCN000000576000000576FN00000000020220401000000576NNMD0420220207122012    4N00  00000028800000886700001052632H7    FYFSY   005400370024
BI00B32H7    FS22041DMW     202203097327-6950-30             MULTI FUSE               CCN000000576000000576FN00000000020220401000000576NNMD0420220207122012    4N00  00000028800000888700001054632H7    FYFSY   005400370024
BI00B32H7    FS22041DMW     202203097327-6952-30             MULTI FUSE               CCN000000560000000560FN00000000020220401000000560NNMD0420220207122012    4N0N  00000056000000848500001031532H7    FYFSY   005400370024
BI00B32H7    FS22041DMW     202203097327-6954-30             MULTI FUSE               CCN000000600000000600FN00000000020220401000000600NNMD0420220207122012    4N00  00000060000000751600000954332H7    FYFSY   005400370024
BI00B32H8    #TY22031KMW    202202187172-5629-80             RUBBER STOPPER           CCN000060000000060000FN00000000020220301000060000NNM00020220207152947    2H0H  00002000000000060000000111132H8    TYTYC   004300270014
BI00B32K8    K8220010144    202204297289-3342                HOUSING FEMALE ASS'Y     CCN000001000000002400FN00000000020220301000002400NNMD0720220207122012    1N0N  00000240000000686400000901432K8    ELELCOM 005500360039
BI00B32K8    #K1220010242   202203117137-2200                CONNECTOR PACKING        CCN000005000000005000FN00000000020220401000005000NNM   20220207122012    2C0C  00000500000000136000000211332K8    ELELCOM 004300270014
BI00B32K8    #K1220010242   202203117137-2718-50             SEALED CONNECTOR         CCN000008000000008000FN00000000020220401000008000NNM   20220207122012    2C0C  00000100000000118300000236632K8    ELELCOM 002700430014
BI00B32M1    #TCVL2022      202202177172-5630-40             RUBBER STOPPER           CCN000100000000100000FN00000000020220201000100000NNM00020220207155340    2H0H  00002000000000044000000095132M1    VNYEV   004300270014
BI00B32M1    TCV2041        202203177288-6547                CONNECTOR MALE ASS'Y     CCN000026250000026250FN00000000020220401000026250NNMD0420220207122012    4N0N  00000075000001205300001340332M1    VNYEV   005400370024
BI00B32M1    TCV2042        202203247288-6547                CONNECTOR MALE ASS'Y     CCN000018000000018000FN00000000020220401000018000NNMD0420220207122012    4N0N  00000075000001205300001340332M1    VNYEV   005400370024
BI00B32M1    TCV2043        202203317288-6547                CONNECTOR MALE ASS'Y     CCN000014250000014250FN00000000020220401000014250NNMD0420220207122012    4N0N  00000075000001205300001340332M1    VNYEV   005400370024
BI00B32M1    TCV2044        202204077288-6547                CONNECTOR MALE ASS'Y     CCN000021000000021000FN00000000020220401000021000NNMD0420220207122012    4N0N  00000075000001205300001340332M1    VNYEV   005400370024
BI00B32M3    SM22032DMW     202202047172-5403-30             SEALED PACKING           CCN000052000000052000FY00005200020220301000000000NNMD0420220207141426    1C0C  00000400000000653600000701732M3    SASAMI  004300270014
BI00B32M3    SM22031DMW     202202107289-3342-30             HOUSING FEMALE ASS'Y     CCN000016800000016800FN00000000020220301000016800NNM00020220207153049    1N0N  00000240000000686400000901432M3    SASAMI  005500360039
BI00B32M3    SM22041 MW     202203037017-1180-02             TERMINAL                 CCN000072000000072000FN00000000020220401000072000NNM   20220207122012    4P0P  00007200000001065600001229032M3    SASAMI  005100280028
BI00B32M3    SM22042 MW     202203107017-1180-02             TERMINAL                 CCN000072000000072000FN00000000020220401000072000NNM   20220207122012    4P0P  00007200000001065600001229032M3    SASAMI  005100280028
BI00B32M3    SM22043 MW     202203177017-1180-02             TERMINAL                 CCN000072000000072000FN00000000020220401000072000NNM   20220207122012    4P0P  00007200000001065600001229032M3    SASAMI  005100280028
BI00B32M3    SM22044 MW     202203247017-1180-02             TERMINAL                 CCN000144000000144000FN00000000020220401000144000NNM   20220207122012    4P0P  00007200000001065600001229032M3    SASAMI  005100280028
BI00B32M3    SM22041 MW     202203037114-4020                TERMINAL                 CCN000021000000021000FN00000000020220401000021000NNM   20220207122012    4P0P  00002100000000875700001169332M3    SASAMI  006400630015
BI00B32M3    SM22042 MW     202203107114-4021                TERMINAL                 CCN000015000000015000FN00000000020220401000015000NNM   20220207122012    4P0P  00001500000000670500000964132M3    SASAMI  006400630015
BI00B32M3    SM22043 MW     202203177114-4021                TERMINAL                 CCN000015000000015000FN00000000020220401000015000NNM   20220207122012    4P0P  00001500000000670500000964132M3    SASAMI  006400630015
BI00B32M3    SM22041 MW     202203037114-4030                TERMINAL                 CCN000010500000010500FN00000000020220401000010500NNM   20220207122012    4P0P  00001050000000926100001254732M3    SASAMI  006400630017
BI00B32M3    SM22042 MW     202203107114-4030                TERMINAL                 CCN000010500000010500FN00000000020220401000010500NNM   20220207122012    4P0P  00001050000000926100001254732M3    SASAMI  006400630017
BI00B32M3    SM22044 MW     202203247114-4030                TERMINAL                 CCN000010500000010500FN00000000020220401000010500NNM   20220207122012    4P0P  00001050000000926100001254732M3    SASAMI  006400630017
BI00B32M3    SM22041 MW     202203037114-4032                TERMINAL                 CCN000030000000030000FN00000000020220401000030000NNM   20220207122012    4P0P  00000750000000735000001063632M3    SASAMI  006400630017
BI00B32M3    SM22042 MW     202203107114-4032                TERMINAL                 CCN000015000000015000FN00000000020220401000015000NNM   20220207122012    4P0P  00000750000000735000001063632M3    SASAMI  006400630017
BI00B32M3    SM22043 MW     202203177114-4032                TERMINAL                 CCN000015000000015000FN00000000020220401000015000NNM   20220207122012    4P0P  00000750000000735000001063632M3    SASAMI  006400630017
BI00B32M3    SM22044 MW     202203247114-4032                TERMINAL                 CCN000015000000015000FN00000000020220401000015000NNM   20220207122012    4P0P  00000750000000735000001063632M3    SASAMI  006400630017
BI00B32M3    SM22041 MW     202203037114-4112-02             TERMINAL                 CCN000009000000009000FN00000000020220401000009000NNM   20220207122012    4P0P  00000900000000598500000927132M3    SASAMI  006400630017
BI00B32M3    SM22041 MW     202203037114-4728-02             TERMINAL                 CCN000090000000090000FN00000000020220401000090000NNM   20220207122012    4P0P  00003000000000510000000804232M3    SASAMI  006400630015
BI00B32M3    SM22042 MW     202203107114-4728-02             TERMINAL                 CCN000150000000150000FN00000000020220401000150000NNM   20220207122012    4P0P  00003000000000510000000804232M3    SASAMI  006400630015
BI00B32M3    SM22043 MW     202203177114-4728-02             TERMINAL                 CCN000120000000120000FN00000000020220401000120000NNM   20220207122012    4P0P  00003000000000510000000804232M3    SASAMI  006400630015
BI00B32M3    SM22044 MW     202203247114-4728-02             TERMINAL                 CCN000090000000090000FN00000000020220401000090000NNM   20220207122012    4P0P  00003000000000510000000804232M3    SASAMI  006400630015
BI00B32M3    SM22041 MW     202203037114-4729-02             TERMINAL                 CCN000060000000060000FN00000000020220401000060000NNM   20220207122012    4P0P  00003000000000516000000810232M3    SASAMI  006400630015
BI00B32M3    SM22042 MW     202203107114-4729-02             TERMINAL                 CCN000120000000120000FN00000000020220401000120000NNM   20220207122012    4P0P  00003000000000516000000810232M3    SASAMI  006400630015
BI00B32M3    SM22043 MW     202203177114-4729-02             TERMINAL                 CCN000090000000090000FN00000000020220401000090000NNM   20220207122012    4P0P  00003000000000516000000810232M3    SASAMI  006400630015
BI00B32M3    SM22044 MW     202203247114-4729-02             TERMINAL                 CCN000060000000060000FN00000000020220401000060000NNM   20220207122012    4P0P  00003000000000516000000810232M3    SASAMI  006400630015
BI00B32M3    SM22041 MW     202203037114-5746-02             TERMINAL                 CCN000021000000021000FN00000000020220401000021000NNM   20220207122012    4P0P  00002100000000695100000988732M3    SASAMI  006400630015
BI00B32M3    SM22044 MW     202203247114-5746-02             TERMINAL                 CCN000021000000021000FN00000000020220401000021000NNM   20220207122012    4P0P  00002100000000695100000988732M3    SASAMI  006400630015
BI00B32M3    SM22041 MW     202203037114-5747-02             TERMINAL                 CCN000036000000036000FN00000000020220401000036000NNM   20220207122012    4P0P  00001800000000626400000920032M3    SASAMI  006400630015
BI00B32M3    SM22042 MW     202203107114-5747-02             TERMINAL                 CCN000036000000036000FN00000000020220401000036000NNM   20220207122012    4P0P  00001800000000626400000920032M3    SASAMI  006400630015
BI00B32M3    SM22043 MW     202203177114-5747-02             TERMINAL                 CCN000018000000018000FN00000000020220401000018000NNM   20220207122012    4P0P  00001800000000626400000920032M3    SASAMI  006400630015
BI00B32M3    SM22044 MW     202203247114-5747-02             TERMINAL                 CCN000018000000018000FN00000000020220401000018000NNM   20220207122012    4P0P  00001800000000626400000920032M3    SASAMI  006400630015
BI00B32M3    SM22041 MW     202203037114-5748-02             TERMINAL                 CCN000036000000036000FN00000000020220401000036000NNM   20220207122012    4P0P  00001200000000444000000737632M3    SASAMI  006400630015
BI00B32M3    SM22042 MW     202203107114-5748-02             TERMINAL                 CCN000036000000036000FN00000000020220401000036000NNM   20220207122012    4P0P  00001200000000444000000737632M3    SASAMI  006400630015
BI00B32M3    SM22043 MW     202203177114-5748-02             TERMINAL                 CCN000024000000024000FN00000000020220401000024000NNM   20220207122012    4P0P  00001200000000444000000737632M3    SASAMI  006400630015
BI00B32M3    SM22044 MW     202203247114-5748-02             TERMINAL                 CCN000012000000012000FN00000000020220401000012000NNM   20220207122012    4P0P  00001200000000444000000737632M3    SASAMI  006400630015
BI00B32M3    SM22041 MW     202203037114-5753-02             TERMINAL                 CCN000027000000027000FN00000000020220401000027000NNM   20220207122012    4P0P  00002700000000847800001141432M3    SASAMI  006400630015
BI00B32M3    SM22042 MW     202203107114-5753-02             TERMINAL                 CCN000027000000027000FN00000000020220401000027000NNM   20220207122012    4P0P  00002700000000847800001141432M3    SASAMI  006400630015
BI00B32M3    SM22044 MW     202203247114-5753-02             TERMINAL                 CCN000027000000027000FN00000000020220401000027000NNM   20220207122012    4P0P  00002700000000847800001141432M3    SASAMI  006400630015
BI00B32M3    SM22041 MW     202203037114-6041                TERMINAL                 CCN000007200000007200FN00000000020220401000007200NNM   20220207122012    4P0P  00000360000000580700000824232M3    SASAMI  006400630015
BI00B32M3    SM22041 MW     202203037116-1685-02             TERMINAL                 CCN000264000000264000FN00000000020220401000264000NNM   20220207122012    4P0P  00002400000000897600001065232M3    SASAMI  005100280028
BI00B32M3    SM22042 MW     202203107116-1685-02             TERMINAL                 CCN000216000000216000FN00000000020220401000216000NNM   20220207122012    4P0P  00002400000000897600001065232M3    SASAMI  005100280028
BI00B32M3    SM22043 MW     202203177116-1685-02             TERMINAL                 CCN000120000000120000FN00000000020220401000120000NNM   20220207122012    4P0P  00002400000000897600001065232M3    SASAMI  005100280028
BI00B32M3    SM22044 MW     202203247116-1685-02             TERMINAL                 CCN000048000000048000FN00000000020220401000048000NNM   20220207122012    4P0P  00002400000000897600001065232M3    SASAMI  005100280028
BI00B32M3    SM22041 MW     202203037116-1686-02             TERMINAL                 CCN000021000000021000FN00000000020220401000021000NNM   20220207122012    4P0P  00002100000000869400001021632M3    SASAMI  005100280028
BI00B32M3    SM22042 MW     202203107116-1686-02             TERMINAL                 CCN000042000000042000FN00000000020220401000042000NNM   20220207122012    4P0P  00002100000000869400001021632M3    SASAMI  005100280028
BI00B32M3    SM22043 MW     202203177116-1686-02             TERMINAL                 CCN000021000000021000FN00000000020220401000021000NNM   20220207122012    4P0P  00002100000000869400001021632M3    SASAMI  005100280028
BI00B32M3    SM22041 MW     202203037116-2640                TERMINAL                 CCN000054000000054000FN00000000020220401000054000NNM   20220207122012    4P0P  00001800000001018800001196632M3    SASAMI  005100280028
BI00B32M3    SM22042 MW     202203107116-2640                TERMINAL                 CCN000018000000018000FN00000000020220401000018000NNM   20220207122012    4P0P  00001800000001018800001196632M3    SASAMI  005100280028
BI00B32M3    SM22043 MW     202203177116-2640                TERMINAL                 CCN000018000000018000FN00000000020220401000018000NNM   20220207122012    4P0P  00001800000001018800001196632M3    SASAMI  005100280028
BI00B32M3    SM22041 MW     202203037116-2641                TERMINAL                 CCN000054000000054000FN00000000020220401000054000NNM   20220207122012    4P0P  00001800000001161000001344632M3    SASAMI  005100280028
BI00B32M3    SM22042 MW     202203107116-2641                TERMINAL                 CCN000036000000036000FN00000000020220401000036000NNM   20220207122012    4P0P  00001800000001161000001344632M3    SASAMI  005100280028
BI00B32M3    SM22043 MW     202203177116-2641                TERMINAL                 CCN000018000000018000FN00000000020220401000018000NNM   20220207122012    4P0P  00001800000001161000001344632M3    SASAMI  005100280028
BI00B32M3    SM22041 MW     202203037116-3154-02             TERMINAL FEMALE          CCN000162000000162000FN00000000020220401000162000NNM   20220207122012    4P0P  00002700000000469800000755032M3    SASAMI  006400630015
BI00B32M3    SM22042 MW     202203107116-3154-02             TERMINAL FEMALE          CCN000135000000135000FN00000000020220401000135000NNM   20220207122012    4P0P  00002700000000469800000755032M3    SASAMI  006400630015
BI00B32M3    SM22043 MW     202203177116-3154-02             TERMINAL FEMALE          CCN000108000000108000FN00000000020220401000108000NNM   20220207122012    4P0P  00002700000000469800000755032M3    SASAMI  006400630015
BI00B32M3    SM22044 MW     202203247116-3154-02             TERMINAL FEMALE          CCN000108000000108000FN00000000020220401000108000NNM   20220207122012    4P0P  00002700000000469800000755032M3    SASAMI  006400630015
BI00B32M3    SM22041 MW     202203037116-4020                TERMINAL                 CCN000054000000054000FN00000000020220401000054000NNM   20220207122012    4P0P  00001350000000513000000798232M3    SASAMI  006400630015
BI00B32M3    SM22042 MW     202203107116-4020                TERMINAL                 CCN000040500000040500FN00000000020220401000040500NNM   20220207122012    4P0P  00001350000000513000000798232M3    SASAMI  006400630015
BI00B32M3    SM22043 MW     202203177116-4020                TERMINAL                 CCN000027000000027000FN00000000020220401000027000NNM   20220207122012    4P0P  00001350000000513000000798232M3    SASAMI  006400630015
BI00B32M3    SM22044 MW     202203247116-4020                TERMINAL                 CCN000013500000013500FN00000000020220401000013500NNM   20220207122012    4P0P  00001350000000513000000798232M3    SASAMI  006400630015
BI00B32M3    SM22042 MW     202203107116-4022                TERMINAL                 CCN000013500000013500FN00000000020220401000013500NNM   20220207122012    4P0P  00001350000000618300000903532M3    SASAMI  006400630015
BI00B32M3    SM22043 MW     202203177116-4022                TERMINAL                 CCN000013500000013500FN00000000020220401000013500NNM   20220207122012    4P0P  00001350000000618300000903532M3    SASAMI  006400630015
BI00B32M3    SM22041 MW     202203037116-4025                TERMINAL                 CCN000144000000144000FN00000000020220401000144000NNM   20220207122012    4P0P  00001600000000644800000975132M3    SASAMI  006400630017
BI00B32M3    SM22042 MW     202203107116-4025                TERMINAL                 CCN000080000000080000FN00000000020220401000080000NNM   20220207122012    4P0P  00001600000000644800000975132M3    SASAMI  006400630017
BI00B32M3    SM22043 MW     202203177116-4025                TERMINAL                 CCN000064000000064000FN00000000020220401000064000NNM   20220207122012    4P0P  00001600000000644800000975132M3    SASAMI  006400630017
BI00B32M3    SM22044 MW     202203247116-4025                TERMINAL                 CCN000016000000016000FN00000000020220401000016000NNM   20220207122012    4P0P  00001600000000644800000975132M3    SASAMI  006400630017
BI00B32M3    SM22041 MW     202203037116-4026                TERMINAL                 CCN000080000000080000FN00000000020220401000080000NNM   20220207122012    4P0P  00001600000000664000000994332M3    SASAMI  006400630017
BI00B32M3    SM22042 MW     202203107116-4026                TERMINAL                 CCN000048000000048000FN00000000020220401000048000NNM   20220207122012    4P0P  00001600000000664000000994332M3    SASAMI  006400630017
BI00B32M3    SM22043 MW     202203177116-4026                TERMINAL                 CCN000032000000032000FN00000000020220401000032000NNM   20220207122012    4P0P  00001600000000664000000994332M3    SASAMI  006400630017
BI00B32M3    SM22041 MW     202203037116-4028-08             TERMINAL FEMALE          CCN000016000000016000FN00000000020220401000016000NNM   20220207122012    4P0P  00001600000000652800000981532M3    SASAMI  006400630017
BI00B32M3    SM22042 MW     202203107116-4028-08             TERMINAL FEMALE          CCN000016000000016000FN00000000020220401000016000NNM   20220207122012    4P0P  00001600000000652800000981532M3    SASAMI  006400630017
BI00B32M3    SM22043 MW     202203177116-4028-08             TERMINAL FEMALE          CCN000016000000016000FN00000000020220401000016000NNM   20220207122012    4P0P  00001600000000652800000981532M3    SASAMI  006400630017
BI00B32M3    SM22041 MW     202203037116-4032                TERMINAL                 CCN000018000000018000FN00000000020220401000018000NNM   20220207122012    4P0P  00000600000000532800000818032M3    SASAMI  006400630015
BI00B32M3    SM22042 MW     202203107116-4032                TERMINAL                 CCN000006000000006000FN00000000020220401000006000NNM   20220207122012    4P0P  00000600000000532800000818032M3    SASAMI  006400630015
BI00B32M3    SM22043 MW     202203177116-4032                TERMINAL                 CCN000012000000012000FN00000000020220401000012000NNM   20220207122012    4P0P  00000600000000532800000818032M3    SASAMI  006400630015
BI00B32M3    SM22041 MW     202203037116-4037                TERMINAL                 CCN000048000000048000FN00000000020220401000048000NNM   20220207122012    4P0P  00000600000000600000000894232M3    SASAMI  006400630015
BI00B32M3    SM22042 MW     202203107116-4037                TERMINAL                 CCN000042000000042000FN00000000020220401000042000NNM   20220207122012    4P0P  00000600000000600000000894232M3    SASAMI  006400630015
