BI00B32CH    @SJ22042 MW    20220317181E50011ZZ              AVSSCS-S 0.5FX2 DGY/Y    CCN000000300000000300FN00000000020220401000000300NNM   20220207141943    1W    00000030000003096000000000032CH    SJSAMIJF000000000000QX123001
BI00B32CH    @SJ22044 MW    20220331181E50011ZZ              AVSSCS-S 0.5FX2 DGY/Y    CCN000000300000000300FN00000000020220401000000300NNM   20220207141943    1W    00000030000003096000000000032CH    SJSAMIJF000000000000QX323001
BI00B32CH    @SJ22043 MW    20220324181F21009ZZ              AVSSHCS-S 0.5FX2 B       CCN000021300000021300FN00000000020220401000021300NNM   20220207141943    1W    00000030000002531400000000032CH    SJSAMIJF000000000000QX223001
BI00B32CH    @SJ22044 MW    20220331181F21009ZZ              AVSSHCS-S 0.5FX2 B       CCN000014100000014100FN00000000020220401000014100NNM   20220207141943    1W    00000030000002531400000000032CH    SJSAMIJF000000000000QX323002
BI00B32CH    @SJ22044DMW    20220331181B32037Z5              AVSSCS 0.3FX1 DGY/L      CCN000006000000006000FN00000000020220401000006000NNM   20220207141945    1W    00000050000001780000000000032CH    SJSAMIJF000000000000QY323001
BI00B32CH    SJ22043HMW     2022032418007704030              AVSS 0.75F B             CCN000001000000001000FN00000000020220401000001000NNM   20220207141949    1W    00000100000000943000000000032CH    SJSAMIJF000000000000QW223001
BI00B32CH    SJ22044HMW     2022033118007704030              AVSS 0.75F B             CCN000002000000002000FN00000000020220401000002000NNM   20220207141949    1W    00000100000000943000000000032CH    SJSAMIJF000000000000QW323001
BI00B32CH    SJ22042HMW     2022031718007704130              AVSS 1.25F B             CCN000004800000004800FN00000000020220401000004800NNM   20220207141949    1W    00000080000001389000000000032CH    SJSAMIJF000000000000QW123001
BI00B32CH    SJ22043HMW     2022032418007704130              AVSS 1.25F B             CCN000006400000006400FN00000000020220401000006400NNM   20220207141949    1W    00000080000001389000000000032CH    SJSAMIJF000000000000QW223002
BI00B32CH    SJ22044HMW     2022033118007704130              AVSS 1.25F B             CCN000004000000004000FN00000000020220401000004000NNM   20220207141949    1W    00000080000001389000000000032CH    SJSAMIJF000000000000QW323002
BI00B32CH    @SJ22044MMW    20220331181E48022ZZ              CAVSAS-S 0.5X2 GY        CCN000000300000000300FN00000000020220401000000300NNM   20220207141945    1W    00000030000002561000000000032CH    SJSAMIJF000000000000QZ323001
BI00B32CH    @SJ22042SMW    20220317181E48011ZZ              CAVSAS-S 0.3X1 GY/W      CCN000003500000003500FN00000000020220401000003500NNM   20220207141946    1W    00000050000001529500000000032CH    SJSAMIJF000000000000QS123001
BI00B32CH    @SJ22043SMW    20220324181E48011ZZ              CAVSAS-S 0.3X1 GY/W      CCN000011500000011500FN00000000020220401000011500NNM   20220207141946    1W    00000050000001529500000000032CH    SJSAMIJF000000000000QS223001
BI00B32CH    @SJ22044SMW    20220331181E48011ZZ              CAVSAS-S 0.3X1 GY/W      CCN000007000000007000FN00000000020220401000007000NNM   20220207141946    1W    00000050000001529500000000032CH    SJSAMIJF000000000000QS323001
BI00B32G2    SA2203B MW     2022022318007704040              AVSS 0.75F W             CCN000001000000001000FN00000000020220301000001000NNE   20220207133923    1W    00000100000000943000000000032G2    AISUAI  000000000000IQ222001
BI00B32G2    SA22041 MW     2022030218007704040              AVSS 0.75F W             CCN000002000000002000FN00000000020220401000002000NNM   20220207133931    1W    00000100000000943000000000032G2    AISUAI  000000000000IX322025
BI00B32G2    SA22042 MW     2022030918007704040              AVSS 0.75F W             CCN000002000000002000FN00000000020220401000002000NNM   20220207133931    1W    00000100000000943000000000032G2    AISUAI  000000000000IX422024
BI00B32G2    SA22041 MW     202203021801W003960              IVSSH 0.5F G             CCN000037800000037800FN00000000020220401000037800NNM   20220207133931    1W    00000180000000625000000000032G2    AISUAI  000000000000IX322026
BI00B32G2    SA22042 MW     202203091801W003960              IVSSH 0.5F G             CCN000028800000028800FN00000000020220401000028800NNM   20220207133931    1W    00000180000000625000000000032G2    AISUAI  000000000000IX422025
BI00B32G2    SA22043 MW     202203161801W003960              IVSSH 0.5F G             CCN000019800000019800FN00000000020220401000019800NNM   20220207133931    1W    00000180000000625000000000032G2    AISUAI  000000000000IX123021
BI00B32G2    SA22044 MW     202203231801W003960              IVSSH 0.5F G             CCN000012600000012600FN00000000020220401000012600NNM   20220207133931    1W    00000180000000625000000000032G2    AISUAI  000000000000IX223019
BI00B32G2    SA22041 MW     202203021801W003990              IVSSH 0.5F L             CCN000027000000027000FN00000000020220401000027000NNM   20220207133931    1W    00000180000000625000000000032G2    AISUAI  000000000000IX322027
BI00B32G2    SA22042 MW     202203091801W003990              IVSSH 0.5F L             CCN000021600000021600FN00000000020220401000021600NNM   20220207133931    1W    00000180000000625000000000032G2    AISUAI  000000000000IX422026
BI00B32G2    SA22043 MW     202203161801W003990              IVSSH 0.5F L             CCN000018000000018000FN00000000020220401000018000NNM   20220207133931    1W    00000180000000625000000000032G2    AISUAI  000000000000IX123022
BI00B32G2    SA22044 MW     202203231801W003990              IVSSH 0.5F L             CCN000014400000014400FN00000000020220401000014400NNM   20220207133931    1W    00000180000000625000000000032G2    AISUAI  000000000000IX223020
BI00B32G2    SA22041 MW     202203021801W004030              IVSSH 0.75F B            CCN000007800000007800FN00000000020220401000007800NNM   20220207133931    1W    00000130000000882000000000032G2    AISUAI  000000000000IX322028
BI00B32G2    SA22042 MW     202203091801W004030              IVSSH 0.75F B            CCN000006500000006500FN00000000020220401000006500NNM   20220207133931    1W    00000130000000882000000000032G2    AISUAI  000000000000IX422027
BI00B32G2    SA22043 MW     202203161801W004030              IVSSH 0.75F B            CCN000006500000006500FN00000000020220401000006500NNM   20220207133931    1W    00000130000000882000000000032G2    AISUAI  000000000000IX123023
BI00B32G2    SA22044 MW     202203231801W004030              IVSSH 0.75F B            CCN000003900000003900FN00000000020220401000003900NNM   20220207133931    1W    00000130000000882000000000032G2    AISUAI  000000000000IX223021
BI00B32G2    SA22041 MW     202203021801W004041              IVSSH 0.75F GY           CCN000001300000001300FN00000000020220401000001300NNM   20220207133931    1W    00000130000000882000000000032G2    AISUAI  000000000000IX322029
BI00B32G2    SA22042 MW     202203091801W004041              IVSSH 0.75F GY           CCN000001300000001300FN00000000020220401000001300NNM   20220207133931    1W    00000130000000882000000000032G2    AISUAI  000000000000IX422028
BI00B32G2    SA22043 MW     202203161801W004041              IVSSH 0.75F GY           CCN000001300000001300FN00000000020220401000001300NNM   20220207133931    1W    00000130000000882000000000032G2    AISUAI  000000000000IX123024
BI00B32G2    SA22041 MW     202203021801W004043              IVSSH 0.75F W/B          CCN000006500000006500FN00000000020220401000006500NNM   20220207133931    1W    00000130000000882000000000032G2    AISUAI  000000000000IX322030
BI00B32G2    SA22042 MW     202203091801W004043              IVSSH 0.75F W/B          CCN000005200000005200FN00000000020220401000005200NNM   20220207133931    1W    00000130000000882000000000032G2    AISUAI  000000000000IX422029
BI00B32G2    SA22043 MW     202203161801W004043              IVSSH 0.75F W/B          CCN000003900000003900FN00000000020220401000003900NNM   20220207133931    1W    00000130000000882000000000032G2    AISUAI  000000000000IX123025
BI00B32G2    SA22044 MW     202203231801W004043              IVSSH 0.75F W/B          CCN000002600000002600FN00000000020220401000002600NNM   20220207133931    1W    00000130000000882000000000032G2    AISUAI  000000000000IX223022
BI00B32G2    SA22041 MW     202203021801W006930              IVSSH 0.35F B            CCN000007500000007500FN00000000020220401000007500NNM   20220207133931    1W    00000250000000452000000000032G2    AISUAI  000000000000IX322031
BI00B32G2    SA22042 MW     202203091801W006930              IVSSH 0.35F B            CCN000005000000005000FN00000000020220401000005000NNM   20220207133931    1W    00000250000000452000000000032G2    AISUAI  000000000000IX422030
BI00B32G2    SA22043 MW     202203161801W006930              IVSSH 0.35F B            CCN000005000000005000FN00000000020220401000005000NNM   20220207133931    1W    00000250000000452000000000032G2    AISUAI  000000000000IX123026
BI00B32G2    SA22044 MW     202203231801W006930              IVSSH 0.35F B            CCN000002500000002500FN00000000020220401000002500NNM   20220207133931    1W    00000250000000452000000000032G2    AISUAI  000000000000IX223023
BI00B32G2    SA22041 MW     202203021801W006941              IVSSH 0.35F GY           CCN000015000000015000FN00000000020220401000015000NNM   20220207133931    1W    00000250000000452000000000032G2    AISUAI  000000000000IX322033
BI00B32G2    SA22042 MW     202203091801W006941              IVSSH 0.35F GY           CCN000012500000012500FN00000000020220401000012500NNM   20220207133931    1W    00000250000000452000000000032G2    AISUAI  000000000000IX422032
BI00B32G2    SA22043 MW     202203161801W006941              IVSSH 0.35F GY           CCN000007500000007500FN00000000020220401000007500NNM   20220207133931    1W    00000250000000452000000000032G2    AISUAI  000000000000IX123028
BI00B32G2    SA22044 MW     202203231801W006941              IVSSH 0.35F GY           CCN000005000000005000FN00000000020220401000005000NNM   20220207133931    1W    00000250000000452000000000032G2    AISUAI  000000000000IX223025
BI00B32G2    SA22041 MW     202203021801W006943              IVSSH 0.35F W/B          CCN000002500000002500FN00000000020220401000002500NNM   20220207133931    1W    00000250000000452000000000032G2    AISUAI  000000000000IX322036
BI00B32G2    SA22041 MW     202203021801W006960              IVSSH 0.35F G            CCN000007500000007500FN00000000020220401000007500NNM   20220207133931    1W    00000250000000452000000000032G2    AISUAI  000000000000IX322032
BI00B32G2    SA22042 MW     202203091801W006960              IVSSH 0.35F G            CCN000005000000005000FN00000000020220401000005000NNM   20220207133931    1W    00000250000000452000000000032G2    AISUAI  000000000000IX422031
BI00B32G2    SA22043 MW     202203161801W006960              IVSSH 0.35F G            CCN000002500000002500FN00000000020220401000002500NNM   20220207133931    1W    00000250000000452000000000032G2    AISUAI  000000000000IX123027
BI00B32G2    SA22044 MW     202203231801W006960              IVSSH 0.35F G            CCN000002500000002500FN00000000020220401000002500NNM   20220207133931    1W    00000250000000452000000000032G2    AISUAI  000000000000IX223024
BI00B32G2    SA22041 MW     202203021801W006990              IVSSH 0.35F L            CCN000007500000007500FN00000000020220401000007500NNM   20220207133931    1W    00000250000000452000000000032G2    AISUAI  000000000000IX322034
BI00B32G2    SA22042 MW     202203091801W006990              IVSSH 0.35F L            CCN000005000000005000FN00000000020220401000005000NNM   20220207133931    1W    00000250000000452000000000032G2    AISUAI  000000000000IX422033
BI00B32G2    SA22043 MW     202203161801W006990              IVSSH 0.35F L            CCN000005000000005000FN00000000020220401000005000NNM   20220207133931    1W    00000250000000452000000000032G2    AISUAI  000000000000IX123029
BI00B32G2    SA22044 MW     202203231801W006990              IVSSH 0.35F L            CCN000005000000005000FN00000000020220401000005000NNM   20220207133931    1W    00000250000000452000000000032G2    AISUAI  000000000000IX223026
BI00B32G2    SA22041 MW     202203021801W006992              IVSSH 0.35F V            CCN000005000000005000FN00000000020220401000005000NNM   20220207133931    1W    00000250000000452000000000032G2    AISUAI  000000000000IX322035
BI00B32G2    SA22042 MW     202203091801W006992              IVSSH 0.35F V            CCN000005000000005000FN00000000020220401000005000NNM   20220207133931    1W    00000250000000452000000000032G2    AISUAI  000000000000IX422034
BI00B32G2    SA22043 MW     202203161801W006992              IVSSH 0.35F V            CCN000002500000002500FN00000000020220401000002500NNM   20220207133931    1W    00000250000000452000000000032G2    AISUAI  000000000000IX123030
BI00B32G2    SA22044 MW     202203231801W006992              IVSSH 0.35F V            CCN000002500000002500FN00000000020220401000002500NNM   20220207133931    1W    00000250000000452000000000032G2    AISUAI  000000000000IX223027
BI00B32G2    @SA22041 MW    20220302181B32102S1              AVSSCS 0.5FX2 DGY        CCN000000300000000300FN00000000020220401000000300NNM   20220207133926    1W    00000030000002903000000000032G2    AISUAI  000000000000IX322004
BI00B32G2    @SA22041 MW    20220302181B32102Y6              AVSSCS 0.5FX2 DGY/G      CCN000000300000000300FN00000000020220401000000300NNM   20220207133926    1W    00000030000002903000000000032G2    AISUAI  000000000000IX322005
BI00B32G2    @SA22042 MW    20220309181B32102Y6              AVSSCS 0.5FX2 DGY/G      CCN000000300000000300FN00000000020220401000000300NNM   20220207133926    1W    00000030000002903000000000032G2    AISUAI  000000000000IX422004
BI00B32G2    @SA22041 MW    20220302181D6903930              AVSSHCS 0.5FX1 B         CCN000000400000000400FN00000000020220401000000400NNM   20220207133926    1W    00000040000002285000000000032G2    AISUAI  000000000000IX322006
BI00B32G2    @SA22042 MW    20220309181D6903930              AVSSHCS 0.5FX1 B         CCN000000400000000400FN00000000020220401000000400NNM   20220207133926    1W    00000040000002285000000000032G2    AISUAI  000000000000IX422005
BI00B32G2    @SA22041 MW    20220302181D6910230              AVSSHCS 0.5FX2 B         CCN000006000000006000FN00000000020220401000006000NNM   20220207133926    1W    00000030000002385000000000032G2    AISUAI  000000000000IX322007
BI00B32G2    @SA22042 MW    20220309181D6910230              AVSSHCS 0.5FX2 B         CCN000004500000004500FN00000000020220401000004500NNM   20220207133926    1W    00000030000002385000000000032G2    AISUAI  000000000000IX422006
BI00B32G2    @SA22043 MW    20220316181D6910230              AVSSHCS 0.5FX2 B         CCN000003000000003000FN00000000020220401000003000NNM   20220207133926    1W    00000030000002385000000000032G2    AISUAI  000000000000IX123004
BI00B32G2    @SA22044 MW    20220323181D6910230              AVSSHCS 0.5FX2 B         CCN000002100000002100FN00000000020220401000002100NNM   20220207133926    1W    00000030000002385000000000032G2    AISUAI  000000000000IX223004
BI00B32G2    @SA22041 MW    20220302181D6910235              AVSSHCS 0.5FX2 B/R       CCN000000300000000300FN00000000020220401000000300NNM   20220207133926    1W    00000030000002385000000000032G2    AISUAI  000000000000IX322008
BI00B32G2    @SA22042 MW    20220309181D6910235              AVSSHCS 0.5FX2 B/R       CCN000000300000000300FN00000000020220401000000300NNM   20220207133926    1W    00000030000002385000000000032G2    AISUAI  000000000000IX422007
BI00B32G2    @SA22041 MW    20220302181D6910237              AVSSHCS 0.5FX2 B/Y       CCN000000300000000300FN00000000020220401000000300NNM   20220207133926    1W    00000030000002385000000000032G2    AISUAI  000000000000IX322009
BI00B32G2    @SA22042 MW    20220309181D6910237              AVSSHCS 0.5FX2 B/Y       CCN000000300000000300FN00000000020220401000000300NNM   20220207133926    1W    00000030000002385000000000032G2    AISUAI  000000000000IX422008
BI00B32G2    @SA22043 MW    20220316181D6910237              AVSSHCS 0.5FX2 B/Y       CCN000000300000000300FN00000000020220401000000300NNM   20220207133926    1W    00000030000002385000000000032G2    AISUAI  000000000000IX123005
BI00B32G2    @SA22041 MW    20220302181E50007ZZ              AVSSCS-S 0.5FX1 DGY/L    CCN000002400000002400FN00000000020220401000002400NNM   20220207133926    1W    00000040000001909700000000032G2    AISUAI  000000000000IX322010
BI00B32G2    @SA22042 MW    20220309181E50007ZZ              AVSSCS-S 0.5FX1 DGY/L    CCN000002000000002000FN00000000020220401000002000NNM   20220207133926    1W    00000040000001909700000000032G2    AISUAI  000000000000IX422009
BI00B32G2    @SA22043 MW    20220316181E50007ZZ              AVSSCS-S 0.5FX1 DGY/L    CCN000001200000001200FN00000000020220401000001200NNM   20220207133926    1W    00000040000001909700000000032G2    AISUAI  000000000000IX123006
BI00B32G2    @SA22044 MW    20220323181E50007ZZ              AVSSCS-S 0.5FX1 DGY/L    CCN000000800000000800FN00000000020220401000000800NNM   20220207133926    1W    00000040000001909700000000032G2    AISUAI  000000000000IX223005
BI00B32G2    @SA22041 MW    20220302181E50016ZZ              AVSSCS-S 0.5FX2 DGY/R    CCN000000300000000300FN00000000020220401000000300NNM   20220207133926    1W    00000030000003096000000000032G2    AISUAI  000000000000IX322011
BI00B32G2    @SA22042 MW    20220309181E50016ZZ              AVSSCS-S 0.5FX2 DGY/R    CCN000000300000000300FN00000000020220401000000300NNM   20220207133926    1W    00000030000003096000000000032G2    AISUAI  000000000000IX422010
BI00B32G2    @SA22043 MW    20220316181E50016ZZ              AVSSCS-S 0.5FX2 DGY/R    CCN000000300000000300FN00000000020220401000000300NNM   20220207133926    1W    00000030000003096000000000032G2    AISUAI  000000000000IX123007
BI00B32G2    @SA22041 MW    20220302181F21009ZZ              AVSSHCS-S 0.5FX2 B       CCN000003300000003300FN00000000020220401000003300NNM   20220207133926    1W    00000030000002531400000000032G2    AISUAI  000000000000IX322012
BI00B32G2    @SA22042 MW    20220309181F21009ZZ              AVSSHCS-S 0.5FX2 B       CCN000002100000002100FN00000000020220401000002100NNM   20220207133926    1W    00000030000002531400000000032G2    AISUAI  000000000000IX422011
BI00B32G2    @SA22043 MW    20220316181F21009ZZ              AVSSHCS-S 0.5FX2 B       CCN000001500000001500FN00000000020220401000001500NNM   20220207133926    1W    00000030000002531400000000032G2    AISUAI  000000000000IX123008
BI00B32G2    @SA22044 MW    20220323181F21009ZZ              AVSSHCS-S 0.5FX2 B       CCN000000900000000900FN00000000020220401000000900NNM   20220207133926    1W    00000030000002531400000000032G2    AISUAI  000000000000IX223006
BI00B32G2    SA22041HMW     202203021801W006980              IVSSH 0.35F BR           CCN000005000000005000FN00000000020220401000005000NNM   20220207133932    1W    00000250000000452000000000032G2    AISUAI  000000000000IY322005
BI00B32G2    SA22042HMW     202203091801W006980              IVSSH 0.35F BR           CCN000005000000005000FN00000000020220401000005000NNM   20220207133932    1W    00000250000000452000000000032G2    AISUAI  000000000000IY422005
BI00B32G2    SA22043HMW     202203161801W006980              IVSSH 0.35F BR           CCN000005000000005000FN00000000020220401000005000NNM   20220207133932    1W    00000250000000452000000000032G2    AISUAI  000000000000IY123005
BI00B32G2    SA22044HMW     202203231801W006980              IVSSH 0.35F BR           CCN000002500000002500FN00000000020220401000002500NNM   20220207133932    1W    00000250000000452000000000032G2    AISUAI  000000000000IY223005
BI00B32G2    SA22041JMW     20220302180D0204195              AVSSH 1.25F L/R          CCN000001600000001600FN00000000020220401000001600NNM   20220207133933    1W    00000080000001458000000000032G2    AISUAI  000000000000IZ322009
BI00B32G2    SA22041JMW     2022030218007704170              AVSS 1.25F Y             CCN000000800000000800FN00000000020220401000000800NNM   20220207133933    1W    00000080000001389000000000032G2    AISUAI  000000000000IZ322010
BI00B32G2    SA22041JMW     202203021801W003930              IVSSH 0.5F B             CCN000027000000027000FN00000000020220401000027000NNM   20220207133933    1W    00000180000000625000000000032G2    AISUAI  000000000000IZ322011
BI00B32G2    SA22042JMW     202203091801W003930              IVSSH 0.5F B             CCN000019800000019800FN00000000020220401000019800NNM   20220207133933    1W    00000180000000625000000000032G2    AISUAI  000000000000IZ422009
BI00B32G2    SA22043JMW     202203161801W003930              IVSSH 0.5F B             CCN000016200000016200FN00000000020220401000016200NNM   20220207133933    1W    00000180000000625000000000032G2    AISUAI  000000000000IZ123008
BI00B32G2    SA22044JMW     202203231801W003930              IVSSH 0.5F B             CCN000014400000014400FN00000000020220401000014400NNM   20220207133933    1W    00000180000000625000000000032G2    AISUAI  000000000000IZ223007
BI00B32G2    SA22041JMW     202203021801W003940              IVSSH 0.5F W             CCN000025200000025200FN00000000020220401000025200NNM   20220207133933    1W    00000180000000625000000000032G2    AISUAI  000000000000IZ322019
BI00B32G2    SA22042JMW     202203091801W003940              IVSSH 0.5F W             CCN000021600000021600FN00000000020220401000021600NNM   20220207133933    1W    00000180000000625000000000032G2    AISUAI  000000000000IZ422017
BI00B32G2    SA22043JMW     202203161801W003940              IVSSH 0.5F W             CCN000018000000018000FN00000000020220401000018000NNM   20220207133933    1W    00000180000000625000000000032G2    AISUAI  000000000000IZ123015
BI00B32G2    SA22044JMW     202203231801W003940              IVSSH 0.5F W             CCN000014400000014400FN00000000020220401000014400NNM   20220207133933    1W    00000180000000625000000000032G2    AISUAI  000000000000IZ223014
BI00B32G2    SA22041JMW     202203021801W003941              IVSSH 0.5F GY            CCN000007200000007200FN00000000020220401000007200NNM   20220207133933    1W    00000180000000625000000000032G2    AISUAI  000000000000IZ322013
BI00B32G2    SA22042JMW     202203091801W003941              IVSSH 0.5F GY            CCN000005400000005400FN00000000020220401000005400NNM   20220207133933    1W    00000180000000625000000000032G2    AISUAI  000000000000IZ422011
BI00B32G2    SA22043JMW     202203161801W003941              IVSSH 0.5F GY            CCN000003600000003600FN00000000020220401000003600NNM   20220207133933    1W    00000180000000625000000000032G2    AISUAI  000000000000IZ123010
BI00B32G2    SA22044JMW     202203231801W003941              IVSSH 0.5F GY            CCN000003600000003600FN00000000020220401000003600NNM   20220207133933    1W    00000180000000625000000000032G2    AISUAI  000000000000IZ223009
BI00B32G2    SA22041JMW     202203021801W003943              IVSSH 0.5F W/B           CCN000009000000009000FN00000000020220401000009000NNM   20220207133933    1W    00000180000000625000000000032G2    AISUAI  000000000000IZ322020
BI00B32G2    SA22042JMW     202203091801W003943              IVSSH 0.5F W/B           CCN000007200000007200FN00000000020220401000007200NNM   20220207133933    1W    00000180000000625000000000032G2    AISUAI  000000000000IZ422018
BI00B32G2    SA22043JMW     202203161801W003943              IVSSH 0.5F W/B           CCN000005400000005400FN00000000020220401000005400NNM   20220207133933    1W    00000180000000625000000000032G2    AISUAI  000000000000IZ123016
BI00B32G2    SA22044JMW     202203231801W003943              IVSSH 0.5F W/B           CCN000003600000003600FN00000000020220401000003600NNM   20220207133933    1W    00000180000000625000000000032G2    AISUAI  000000000000IZ223015
BI00B32G2    SA22041JMW     202203021801W003950              IVSSH 0.5F R             CCN000023400000023400FN00000000020220401000023400NNM   20220207133933    1W    00000180000000625000000000032G2    AISUAI  000000000000IZ322016
BI00B32G2    SA22042JMW     202203091801W003950              IVSSH 0.5F R             CCN000019800000019800FN00000000020220401000019800NNM   20220207133933    1W    00000180000000625000000000032G2    AISUAI  000000000000IZ422014
BI00B32G2    SA22043JMW     202203161801W003950              IVSSH 0.5F R             CCN000016200000016200FN00000000020220401000016200NNM   20220207133933    1W    00000180000000625000000000032G2    AISUAI  000000000000IZ123013
BI00B32G2    SA22044JMW     202203231801W003950              IVSSH 0.5F R             CCN000012600000012600FN00000000020220401000012600NNM   20220207133933    1W    00000180000000625000000000032G2    AISUAI  000000000000IZ223012
BI00B32G2    SA22041JMW     202203021801W003952              IVSSH 0.5F P             CCN000010800000010800FN00000000020220401000010800NNM   20220207133933    1W    00000180000000625000000000032G2    AISUAI  000000000000IZ322015
BI00B32G2    SA22042JMW     202203091801W003952              IVSSH 0.5F P             CCN000009000000009000FN00000000020220401000009000NNM   20220207133933    1W    00000180000000625000000000032G2    AISUAI  000000000000IZ422013
BI00B32G2    SA22043JMW     202203161801W003952              IVSSH 0.5F P             CCN000005400000005400FN00000000020220401000005400NNM   20220207133933    1W    00000180000000625000000000032G2    AISUAI  000000000000IZ123012
BI00B32G2    SA22044JMW     202203231801W003952              IVSSH 0.5F P             CCN000003600000003600FN00000000020220401000003600NNM   20220207133933    1W    00000180000000625000000000032G2    AISUAI  000000000000IZ223011
BI00B32G2    SA22041JMW     202203021801W003961              IVSSH 0.5F LG            CCN000005400000005400FN00000000020220401000005400NNM   20220207133933    1W    00000180000000625000000000032G2    AISUAI  000000000000IZ322014
BI00B32G2    SA22042JMW     202203091801W003961              IVSSH 0.5F LG            CCN000003600000003600FN00000000020220401000003600NNM   20220207133933    1W    00000180000000625000000000032G2    AISUAI  000000000000IZ422012
BI00B32G2    SA22043JMW     202203161801W003961              IVSSH 0.5F LG            CCN000001800000001800FN00000000020220401000001800NNM   20220207133933    1W    00000180000000625000000000032G2    AISUAI  000000000000IZ123011
BI00B32G2    SA22044JMW     202203231801W003961              IVSSH 0.5F LG            CCN000001800000001800FN00000000020220401000001800NNM   20220207133933    1W    00000180000000625000000000032G2    AISUAI  000000000000IZ223010
BI00B32G2    SA22041JMW     202203021801W003970              IVSSH 0.5F Y             CCN000019800000019800FN00000000020220401000019800NNM   20220207133933    1W    00000180000000625000000000032G2    AISUAI  000000000000IZ322021
BI00B32G2    SA22042JMW     202203091801W003970              IVSSH 0.5F Y             CCN000014400000014400FN00000000020220401000014400NNM   20220207133933    1W    00000180000000625000000000032G2    AISUAI  000000000000IZ422019
BI00B32G2    SA22043JMW     202203161801W003970              IVSSH 0.5F Y             CCN000010800000010800FN00000000020220401000010800NNM   20220207133933    1W    00000180000000625000000000032G2    AISUAI  000000000000IZ123017
BI00B32G2    SA22044JMW     202203231801W003970              IVSSH 0.5F Y             CCN000007200000007200FN00000000020220401000007200NNM   20220207133933    1W    00000180000000625000000000032G2    AISUAI  000000000000IZ223016
BI00B32G2    SA22041JMW     202203021801W003980              IVSSH 0.5F BR            CCN000005400000005400FN00000000020220401000005400NNM   20220207133933    1W    00000180000000625000000000032G2    AISUAI  000000000000IZ322012
BI00B32G2    SA22042JMW     202203091801W003980              IVSSH 0.5F BR            CCN000003600000003600FN00000000020220401000003600NNM   20220207133933    1W    00000180000000625000000000032G2    AISUAI  000000000000IZ422010
BI00B32G2    SA22043JMW     202203161801W003980              IVSSH 0.5F BR            CCN000003600000003600FN00000000020220401000003600NNM   20220207133933    1W    00000180000000625000000000032G2    AISUAI  000000000000IZ123009
BI00B32G2    SA22044JMW     202203231801W003980              IVSSH 0.5F BR            CCN000001800000001800FN00000000020220401000001800NNM   20220207133933    1W    00000180000000625000000000032G2    AISUAI  000000000000IZ223008
BI00B32G2    SA22041JMW     202203021801W003991              IVSSH 0.5F SB            CCN000001800000001800FN00000000020220401000001800NNM   20220207133933    1W    00000180000000625000000000032G2    AISUAI  000000000000IZ322017
BI00B32G2    SA22042JMW     202203091801W003991              IVSSH 0.5F SB            CCN000001800000001800FN00000000020220401000001800NNM   20220207133933    1W    00000180000000625000000000032G2    AISUAI  000000000000IZ422015
BI00B32G2    SA22041JMW     202203021801W003992              IVSSH 0.5F V             CCN000009000000009000FN00000000020220401000009000NNM   20220207133933    1W    00000180000000625000000000032G2    AISUAI  000000000000IZ322018
BI00B32G2    SA22042JMW     202203091801W003992              IVSSH 0.5F V             CCN000007200000007200FN00000000020220401000007200NNM   20220207133933    1W    00000180000000625000000000032G2    AISUAI  000000000000IZ422016
BI00B32G2    SA22043JMW     202203161801W003992              IVSSH 0.5F V             CCN000005400000005400FN00000000020220401000005400NNM   20220207133933    1W    00000180000000625000000000032G2    AISUAI  000000000000IZ123014
BI00B32G2    SA22044JMW     202203231801W003992              IVSSH 0.5F V             CCN000003600000003600FN00000000020220401000003600NNM   20220207133933    1W    00000180000000625000000000032G2    AISUAI  000000000000IZ223013
BI00B32G2    SA22041JMW     202203021801W004050              IVSSH 0.75F R            CCN000003900000003900FN00000000020220401000003900NNM   20220207133933    1W    00000130000000882000000000032G2    AISUAI  000000000000IZ322026
BI00B32G2    SA22042JMW     202203091801W004050              IVSSH 0.75F R            CCN000002600000002600FN00000000020220401000002600NNM   20220207133933    1W    00000130000000882000000000032G2    AISUAI  000000000000IZ422024
BI00B32G2    SA22043JMW     202203161801W004050              IVSSH 0.75F R            CCN000001300000001300FN00000000020220401000001300NNM   20220207133933    1W    00000130000000882000000000032G2    AISUAI  000000000000IZ123020
BI00B32G2    SA22044JMW     202203231801W004050              IVSSH 0.75F R            CCN000001300000001300FN00000000020220401000001300NNM   20220207133933    1W    00000130000000882000000000032G2    AISUAI  000000000000IZ223019
BI00B32G2    SA22041JMW     202203021801W004060              IVSSH 0.75F G            CCN000006500000006500FN00000000020220401000006500NNM   20220207133933    1W    00000130000000882000000000032G2    AISUAI  000000000000IZ322023
BI00B32G2    SA22042JMW     202203091801W004060              IVSSH 0.75F G            CCN000005200000005200FN00000000020220401000005200NNM   20220207133933    1W    00000130000000882000000000032G2    AISUAI  000000000000IZ422021
BI00B32G2    SA22043JMW     202203161801W004060              IVSSH 0.75F G            CCN000003900000003900FN00000000020220401000003900NNM   20220207133933    1W    00000130000000882000000000032G2    AISUAI  000000000000IZ123018
BI00B32G2    SA22044JMW     202203231801W004060              IVSSH 0.75F G            CCN000002600000002600FN00000000020220401000002600NNM   20220207133933    1W    00000130000000882000000000032G2    AISUAI  000000000000IZ223017
BI00B32G2    SA22041JMW     202203021801W004061              IVSSH 0.75F LG           CCN000002600000002600FN00000000020220401000002600NNM   20220207133933    1W    00000130000000882000000000032G2    AISUAI  000000000000IZ322025
BI00B32G2    SA22042JMW     202203091801W004061              IVSSH 0.75F LG           CCN000001300000001300FN00000000020220401000001300NNM   20220207133933    1W    00000130000000882000000000032G2    AISUAI  000000000000IZ422023
BI00B32G2    SA22043JMW     202203161801W004061              IVSSH 0.75F LG           CCN000001300000001300FN00000000020220401000001300NNM   20220207133933    1W    00000130000000882000000000032G2    AISUAI  000000000000IZ123019
BI00B32G2    SA22044JMW     202203231801W004061              IVSSH 0.75F LG           CCN000001300000001300FN00000000020220401000001300NNM   20220207133933    1W    00000130000000882000000000032G2    AISUAI  000000000000IZ223018
BI00B32G2    SA22041JMW     202203021801W004070              IVSSH 0.75F Y            CCN000001300000001300FN00000000020220401000001300NNM   20220207133933    1W    00000130000000882000000000032G2    AISUAI  000000000000IZ322027
BI00B32G2    SA22041JMW     202203021801W004080              IVSSH 0.75F BR           CCN000001300000001300FN00000000020220401000001300NNM   20220207133933    1W    00000130000000882000000000032G2    AISUAI  000000000000IZ322022
BI00B32G2    SA22042JMW     202203091801W004080              IVSSH 0.75F BR           CCN000001300000001300FN00000000020220401000001300NNM   20220207133933    1W    00000130000000882000000000032G2    AISUAI  000000000000IZ422020
BI00B32G2    SA22041JMW     202203021801W004090              IVSSH 0.75F L            CCN000001300000001300FN00000000020220401000001300NNM   20220207133933    1W    00000130000000882000000000032G2    AISUAI  000000000000IZ322024
BI00B32G2    SA22042JMW     202203091801W004090              IVSSH 0.75F L            CCN000001300000001300FN00000000020220401000001300NNM   20220207133933    1W    00000130000000882000000000032G2    AISUAI  000000000000IZ422022
BI00B32G2    SA22041JMW     202203021801W006940              IVSSH 0.35F W            CCN000015000000015000FN00000000020220401000015000NNM   20220207133933    1W    00000250000000452000000000032G2    AISUAI  000000000000IZ322032
BI00B32G2    SA22042JMW     202203091801W006940              IVSSH 0.35F W            CCN000010000000010000FN00000000020220401000010000NNM   20220207133933    1W    00000250000000452000000000032G2    AISUAI  000000000000IZ422029
BI00B32G2    SA22043JMW     202203161801W006940              IVSSH 0.35F W            CCN000007500000007500FN00000000020220401000007500NNM   20220207133933    1W    00000250000000452000000000032G2    AISUAI  000000000000IZ123024
BI00B32G2    SA22044JMW     202203231801W006940              IVSSH 0.35F W            CCN000005000000005000FN00000000020220401000005000NNM   20220207133933    1W    00000250000000452000000000032G2    AISUAI  000000000000IZ223023
BI00B32G2    SA22041JMW     202203021801W006950              IVSSH 0.35F R            CCN000007500000007500FN00000000020220401000007500NNM   20220207133933    1W    00000250000000452000000000032G2    AISUAI  000000000000IZ322030
BI00B32G2    SA22042JMW     202203091801W006950              IVSSH 0.35F R            CCN000005000000005000FN00000000020220401000005000NNM   20220207133933    1W    00000250000000452000000000032G2    AISUAI  000000000000IZ422027
BI00B32G2    SA22043JMW     202203161801W006950              IVSSH 0.35F R            CCN000002500000002500FN00000000020220401000002500NNM   20220207133933    1W    00000250000000452000000000032G2    AISUAI  000000000000IZ123023
BI00B32G2    SA22044JMW     202203231801W006950              IVSSH 0.35F R            CCN000002500000002500FN00000000020220401000002500NNM   20220207133933    1W    00000250000000452000000000032G2    AISUAI  000000000000IZ223022
BI00B32G2    SA22041JMW     202203021801W006952              IVSSH 0.35F P            CCN000007500000007500FN00000000020220401000007500NNM   20220207133933    1W    00000250000000452000000000032G2    AISUAI  000000000000IZ322029
BI00B32G2    SA22042JMW     202203091801W006952              IVSSH 0.35F P            CCN000005000000005000FN00000000020220401000005000NNM   20220207133933    1W    00000250000000452000000000032G2    AISUAI  000000000000IZ422026
BI00B32G2    SA22043JMW     202203161801W006952              IVSSH 0.35F P            CCN000002500000002500FN00000000020220401000002500NNM   20220207133933    1W    00000250000000452000000000032G2    AISUAI  000000000000IZ123022
BI00B32G2    SA22044JMW     202203231801W006952              IVSSH 0.35F P            CCN000002500000002500FN00000000020220401000002500NNM   20220207133933    1W    00000250000000452000000000032G2    AISUAI  000000000000IZ223021
BI00B32G2    SA22041JMW     202203021801W006961              IVSSH 0.35F LG           CCN000005000000005000FN00000000020220401000005000NNM   20220207133933    1W    00000250000000452000000000032G2    AISUAI  000000000000IZ322028
BI00B32G2    SA22042JMW     202203091801W006961              IVSSH 0.35F LG           CCN000002500000002500FN00000000020220401000002500NNM   20220207133933    1W    00000250000000452000000000032G2    AISUAI  000000000000IZ422025
BI00B32G2    SA22043JMW     202203161801W006961              IVSSH 0.35F LG           CCN000002500000002500FN00000000020220401000002500NNM   20220207133933    1W    00000250000000452000000000032G2    AISUAI  000000000000IZ123021
BI00B32G2    SA22044JMW     202203231801W006961              IVSSH 0.35F LG           CCN000002500000002500FN00000000020220401000002500NNM   20220207133933    1W    00000250000000452000000000032G2    AISUAI  000000000000IZ223020
BI00B32G2    SA22041JMW     202203021801W006991              IVSSH 0.35F SB           CCN000002500000002500FN00000000020220401000002500NNM   20220207133933    1W    00000250000000452000000000032G2    AISUAI  000000000000IZ322031
BI00B32G2    SA22042JMW     202203091801W006991              IVSSH 0.35F SB           CCN000002500000002500FN00000000020220401000002500NNM   20220207133933    1W    00000250000000452000000000032G2    AISUAI  000000000000IZ422028
BI00B32G2    SA22041NMW     2022030218007704061              AVSS 0.75F LG            CCN000001000000001000FN00000000020220401000001000NNM   20220207133935    1W    00000100000000943000000000032G2    AISUAI  000000000000IW322003
BI00B32G2    @SA22041NMW    20220302181B32102Z8              AVSSCS 0.5FX2 DGY/O      CCN000000600000000600FN00000000020220401000000600NNM   20220207133929    1W    00000030000002779000000000032G2    AISUAI  000000000000IW322001
BI00B32G2    @SA22042NMW    20220309181B32102Z8              AVSSCS 0.5FX2 DGY/O      CCN000000600000000600FN00000000020220401000000600NNM   20220207133929    1W    00000030000002779000000000032G2    AISUAI  000000000000IW422001
BI00B32G2    @SA22043NMW    20220316181B32102Z8              AVSSCS 0.5FX2 DGY/O      CCN000000300000000300FN00000000020220401000000300NNM   20220207133929    1W    00000030000002779000000000032G2    AISUAI  000000000000IW123001
BI00B32G2    @SA22044NMW    20220323181B32102Z8              AVSSCS 0.5FX2 DGY/O      CCN000000300000000300FN00000000020220401000000300NNM   20220207133929    1W    00000030000002779000000000032G2    AISUAI  000000000000IW223001
BI00B32G2    @SA22041NMW    20220302181E50012ZZ              AVSSCS-S 0.5FX2 DGY/G    CCN000000300000000300FN00000000020220401000000300NNM   20220207133929    1W    00000030000003096000000000032G2    AISUAI  000000000000IW322002
BI00B32M3    SM2203A MW     2022030318007703952              AVSS 0.5F P              CCN000003000000003000FN00000000020220301000003000NNE   20220207141024    1W    00000150000000674000000000032M3    SASAMI  000000000000QK322015
BI00B32M3    SM2203A MW     2022030318007703970              AVSS 0.5F Y              CCN000001500000001500FN00000000020220301000001500NNE   20220207141024    1W    00000150000000674000000000032M3    SASAMI  000000000000QK322016
BI00B32M3    SM2203A MW     20220303180D0203760              AVSSH 0.3F G             CCN000002000000002000FN00000000020220301000002000NNE   20220207141024    1W    00000200000000515000000000032M3    SASAMI  000000000000QK322004
BI00B32M3    SM2203A MW     20220303180D0203741              AVSSH 0.3F GY            CCN000004000000004000FN00000000020220301000004000NNE   20220207141024    1W    00000200000000515000000000032M3    SASAMI  000000000000QK322005
BI00B32M3    SM2203A MW     20220303180D0203790              AVSSH 0.3F L             CCN000002000000002000FN00000000020220301000002000NNE   20220207141024    1W    00000200000000515000000000032M3    SASAMI  000000000000QK322006
BI00B32M3    SM2203A MW     20220303180D0203750              AVSSH 0.3F R             CCN000002000000002000FN00000000020220301000002000NNE   20220207141024    1W    00000200000000515000000000032M3    SASAMI  000000000000QK322007
BI00B32M3    SM2203A MW     20220303180D0203791              AVSSH 0.3F SB            CCN000002000000002000FN00000000020220301000002000NNE   20220207141024    1W    00000200000000515000000000032M3    SASAMI  000000000000QK322008
BI00B32M3    SM2203A MW     20220303180D0203770              AVSSH 0.3F Y             CCN000002000000002000FN00000000020220301000002000NNE   20220207141024    1W    00000200000000515000000000032M3    SASAMI  000000000000QK322009
BI00B32M3    SM2203A MW     20220303180D0203952              AVSSH 0.5F P             CCN000001500000001500FN00000000020220301000001500NNE   20220207141024    1W    00000150000000689000000000032M3    SASAMI  000000000000QK322010
BI00B32M3    SM2203A MW     20220303180D0203950              AVSSH 0.5F R             CCN000001500000001500FN00000000020220301000001500NNE   20220207141024    1W    00000150000000689000000000032M3    SASAMI  000000000000QK322011
BI00B32M3    SM2203A MW     20220303180D0204030              AVSSH 0.75F B            CCN000002000000002000FN00000000020220301000002000NNE   20220207141024    1W    00000100000000934000000000032M3    SASAMI  000000000000QK322012
BI00B32M3    SM2203A MW     20220303180D0204092              AVSSH 0.75F V            CCN000002000000002000FN00000000020220301000002000NNE   20220207141024    1W    00000100000000934000000000032M3    SASAMI  000000000000QK322013
BI00B32M3    SM2203A MW     20220303180D0204040              AVSSH 0.75F W            CCN000002000000002000FN00000000020220301000002000NNE   20220207141024    1W    00000100000000934000000000032M3    SASAMI  000000000000QK322014
BI00B32M3    SM22041 MW     2022030318007703930              AVSS 0.5F B              CCN000021000000021000FN00000000020220401000021000NNM   20220207141049    1W    00000150000000674000000000032M3    SASAMI  000000000000QM322028
BI00B32M3    SM22042 MW     2022031018007703930              AVSS 0.5F B              CCN000021000000021000FN00000000020220401000021000NNM   20220207141049    1W    00000150000000674000000000032M3    SASAMI  000000000000QM422027
BI00B32M3    SM22043 MW     2022031718007703930              AVSS 0.5F B              CCN000010500000010500FN00000000020220401000010500NNM   20220207141049    1W    00000150000000674000000000032M3    SASAMI  000000000000QM123038
BI00B32M3    SM22044 MW     2022032418007703930              AVSS 0.5F B              CCN000010500000010500FN00000000020220401000010500NNM   20220207141049    1W    00000150000000674000000000032M3    SASAMI  000000000000QM223009
BI00B32M3    SM22041 MW     2022030318007703990              AVSS 0.5F L              CCN000003000000003000FN00000000020220401000003000NNM   20220207141049    1W    00000150000000674000000000032M3    SASAMI  000000000000QM322029
BI00B32M3    SM22042 MW     2022031018007703990              AVSS 0.5F L              CCN000006000000006000FN00000000020220401000006000NNM   20220207141049    1W    00000150000000674000000000032M3    SASAMI  000000000000QM422028
BI00B32M3    SM22043 MW     2022031718007703990              AVSS 0.5F L              CCN000006000000006000FN00000000020220401000006000NNM   20220207141049    1W    00000150000000674000000000032M3    SASAMI  000000000000QM123039
BI00B32M3    SM22044 MW     2022032418007703990              AVSS 0.5F L              CCN000006000000006000FN00000000020220401000006000NNM   20220207141049    1W    00000150000000674000000000032M3    SASAMI  000000000000QM223010
BI00B32M3    SM22041 MW     2022030318007703952              AVSS 0.5F P              CCN000003000000003000FN00000000020220401000003000NNM   20220207141049    1W    00000150000000674000000000032M3    SASAMI  000000000000QM322030
BI00B32M3    SM22042 MW     2022031018007703952              AVSS 0.5F P              CCN000001500000001500FN00000000020220401000001500NNM   20220207141049    1W    00000150000000674000000000032M3    SASAMI  000000000000QM422029
BI00B32M3    SM22043 MW     2022031718007703952              AVSS 0.5F P              CCN000001500000001500FN00000000020220401000001500NNM   20220207141049    1W    00000150000000674000000000032M3    SASAMI  000000000000QM123040
BI00B32M3    SM22044 MW     2022032418007703952              AVSS 0.5F P              CCN000001500000001500FN00000000020220401000001500NNM   20220207141049    1W    00000150000000674000000000032M3    SASAMI  000000000000QM223011
BI00B32M3    SM22041 MW     2022030318007703900              AVSS 0.5F P/W            CCN000004500000004500FN00000000020220401000004500NNM   20220207141049    1W    00000150000000674000000000032M3    SASAMI  000000000000QM322031
BI00B32M3    SM22042 MW     2022031018007703900              AVSS 0.5F P/W            CCN000004500000004500FN00000000020220401000004500NNM   20220207141049    1W    00000150000000674000000000032M3    SASAMI  000000000000QM422030
BI00B32M3    SM22041 MW     2022030318007703950              AVSS 0.5F R              CCN000001500000001500FN00000000020220401000001500NNM   20220207141049    1W    00000150000000674000000000032M3    SASAMI  000000000000QM322032
BI00B32M3    SM22042 MW     2022031018007703950              AVSS 0.5F R              CCN000001500000001500FN00000000020220401000001500NNM   20220207141049    1W    00000150000000674000000000032M3    SASAMI  000000000000QM422031
BI00B32M3    SM22043 MW     2022031718007703950              AVSS 0.5F R              CCN000001500000001500FN00000000020220401000001500NNM   20220207141049    1W    00000150000000674000000000032M3    SASAMI  000000000000QM123041
BI00B32M3    SM22042 MW     2022031018007703940              AVSS 0.5F W              CCN000001500000001500FN00000000020220401000001500NNM   20220207141049    1W    00000150000000674000000000032M3    SASAMI  000000000000QM422032
BI00B32M3    SM22043 MW     2022031718007703940              AVSS 0.5F W              CCN000001500000001500FN00000000020220401000001500NNM   20220207141049    1W    00000150000000674000000000032M3    SASAMI  000000000000QM123042
BI00B32M3    SM22041 MW     2022030318007703970              AVSS 0.5F Y              CCN000001500000001500FN00000000020220401000001500NNM   20220207141049    1W    00000150000000674000000000032M3    SASAMI  000000000000QM322033
BI00B32M3    SM22042 MW     2022031018007703970              AVSS 0.5F Y              CCN000001500000001500FN00000000020220401000001500NNM   20220207141049    1W    00000150000000674000000000032M3    SASAMI  000000000000QM422033
BI00B32M3    SM22042 MW     20220310180D0203730              AVSSH 0.3F B             CCN000002000000002000FN00000000020220401000002000NNM   20220207141049    1W    00000200000000515000000000032M3    SASAMI  000000000000QM422003
BI00B32M3    SM22042 MW     20220310180D0203780              AVSSH 0.3F BR            CCN000002000000002000FN00000000020220401000002000NNM   20220207141049    1W    00000200000000515000000000032M3    SASAMI  000000000000QM422004
BI00B32M3    SM22041 MW     20220303180D0203760              AVSSH 0.3F G             CCN000004000000004000FN00000000020220401000004000NNM   20220207141049    1W    00000200000000515000000000032M3    SASAMI  000000000000QM322007
BI00B32M3    SM22042 MW     20220310180D0203760              AVSSH 0.3F G             CCN000002000000002000FN00000000020220401000002000NNM   20220207141049    1W    00000200000000515000000000032M3    SASAMI  000000000000QM422005
BI00B32M3    SM22043 MW     20220317180D0203760              AVSSH 0.3F G             CCN000002000000002000FN00000000020220401000002000NNM   20220207141049    1W    00000200000000515000000000032M3    SASAMI  000000000000QM123006
BI00B32M3    SM22041 MW     20220303180D0203741              AVSSH 0.3F GY            CCN000008000000008000FN00000000020220401000008000NNM   20220207141049    1W    00000200000000515000000000032M3    SASAMI  000000000000QM322008
BI00B32M3    SM22042 MW     20220310180D0203741              AVSSH 0.3F GY            CCN000004000000004000FN00000000020220401000004000NNM   20220207141049    1W    00000200000000515000000000032M3    SASAMI  000000000000QM422006
BI00B32M3    SM22043 MW     20220317180D0203741              AVSSH 0.3F GY            CCN000002000000002000FN00000000020220401000002000NNM   20220207141049    1W    00000200000000515000000000032M3    SASAMI  000000000000QM123007
BI00B32M3    SM22041 MW     20220303180D0203790              AVSSH 0.3F L             CCN000004000000004000FN00000000020220401000004000NNM   20220207141049    1W    00000200000000515000000000032M3    SASAMI  000000000000QM322009
BI00B32M3    SM22042 MW     20220310180D0203790              AVSSH 0.3F L             CCN000002000000002000FN00000000020220401000002000NNM   20220207141049    1W    00000200000000515000000000032M3    SASAMI  000000000000QM422007
BI00B32M3    SM22043 MW     20220317180D0203790              AVSSH 0.3F L             CCN000002000000002000FN00000000020220401000002000NNM   20220207141049    1W    00000200000000515000000000032M3    SASAMI  000000000000QM123008
BI00B32M3    SM22043 MW     20220317180D0203761              AVSSH 0.3F LG            CCN000002000000002000FN00000000020220401000002000NNM   20220207141049    1W    00000200000000515000000000032M3    SASAMI  000000000000QM123009
BI00B32M3    SM22043 MW     20220317180D0203752              AVSSH 0.3F P             CCN000002000000002000FN00000000020220401000002000NNM   20220207141049    1W    00000200000000515000000000032M3    SASAMI  000000000000QM123010
BI00B32M3    SM22041 MW     20220303180D0203750              AVSSH 0.3F R             CCN000006000000006000FN00000000020220401000006000NNM   20220207141049    1W    00000200000000515000000000032M3    SASAMI  000000000000QM322010
BI00B32M3    SM22042 MW     20220310180D0203750              AVSSH 0.3F R             CCN000002000000002000FN00000000020220401000002000NNM   20220207141049    1W    00000200000000515000000000032M3    SASAMI  000000000000QM422008
BI00B32M3    SM22043 MW     20220317180D0203750              AVSSH 0.3F R             CCN000002000000002000FN00000000020220401000002000NNM   20220207141049    1W    00000200000000515000000000032M3    SASAMI  000000000000QM123011
BI00B32M3    SM22041 MW     20220303180D0203791              AVSSH 0.3F SB            CCN000002000000002000FN00000000020220401000002000NNM   20220207141049    1W    00000200000000515000000000032M3    SASAMI  000000000000QM322011
BI00B32M3    SM22042 MW     20220310180D0203791              AVSSH 0.3F SB            CCN000002000000002000FN00000000020220401000002000NNM   20220207141049    1W    00000200000000515000000000032M3    SASAMI  000000000000QM422009
BI00B32M3    SM22043 MW     20220317180D0203791              AVSSH 0.3F SB            CCN000002000000002000FN00000000020220401000002000NNM   20220207141049    1W    00000200000000515000000000032M3    SASAMI  000000000000QM123012
BI00B32M3    SM22043 MW     20220317180D0203792              AVSSH 0.3F V             CCN000002000000002000FN00000000020220401000002000NNM   20220207141049    1W    00000200000000515000000000032M3    SASAMI  000000000000QM123013
BI00B32M3    SM22041 MW     20220303180D0203740              AVSSH 0.3F W             CCN000006000000006000FN00000000020220401000006000NNM   20220207141049    1W    00000200000000515000000000032M3    SASAMI  000000000000QM322012
BI00B32M3    SM22042 MW     20220310180D0203740              AVSSH 0.3F W             CCN000004000000004000FN00000000020220401000004000NNM   20220207141049    1W    00000200000000515000000000032M3    SASAMI  000000000000QM422010
BI00B32M3    SM22043 MW     20220317180D0203740              AVSSH 0.3F W             CCN000002000000002000FN00000000020220401000002000NNM   20220207141049    1W    00000200000000515000000000032M3    SASAMI  000000000000QM123014
BI00B32M3    SM22041 MW     20220303180D0203770              AVSSH 0.3F Y             CCN000004000000004000FN00000000020220401000004000NNM   20220207141049    1W    00000200000000515000000000032M3    SASAMI  000000000000QM322013
BI00B32M3    SM22042 MW     20220310180D0203770              AVSSH 0.3F Y             CCN000002000000002000FN00000000020220401000002000NNM   20220207141049    1W    00000200000000515000000000032M3    SASAMI  000000000000QM422011
BI00B32M3    SM22043 MW     20220317180D0203770              AVSSH 0.3F Y             CCN000002000000002000FN00000000020220401000002000NNM   20220207141049    1W    00000200000000515000000000032M3    SASAMI  000000000000QM123015
BI00B32M3    SM22043 MW     20220317180D0203980              AVSSH 0.5F BR            CCN000001500000001500FN00000000020220401000001500NNM   20220207141049    1W    00000150000000689000000000032M3    SASAMI  000000000000QM123016
BI00B32M3    SM22043 MW     20220317180D0203960              AVSSH 0.5F G             CCN000001500000001500FN00000000020220401000001500NNM   20220207141049    1W    00000150000000689000000000032M3    SASAMI  000000000000QM123017
BI00B32M3    SM22043 MW     20220317180D0203990              AVSSH 0.5F L             CCN000001500000001500FN00000000020220401000001500NNM   20220207141049    1W    00000150000000689000000000032M3    SASAMI  000000000000QM123018
BI00B32M3    SM22044 MW     20220324180D0203990              AVSSH 0.5F L             CCN000001500000001500FN00000000020220401000001500NNM   20220207141049    1W    00000150000000689000000000032M3    SASAMI  000000000000QM223002
BI00B32M3    SM22042 MW     20220310180D0203961              AVSSH 0.5F LG            CCN000001500000001500FN00000000020220401000001500NNM   20220207141049    1W    00000150000000689000000000032M3    SASAMI  000000000000QM422012
BI00B32M3    SM22041 MW     20220303180D0203950              AVSSH 0.5F R             CCN000001500000001500FN00000000020220401000001500NNM   20220207141049    1W    00000150000000689000000000032M3    SASAMI  000000000000QM322014
BI00B32M3    SM22042 MW     20220310180D0203950              AVSSH 0.5F R             CCN000001500000001500FN00000000020220401000001500NNM   20220207141049    1W    00000150000000689000000000032M3    SASAMI  000000000000QM422013
BI00B32M3    SM22043 MW     20220317180D0203950              AVSSH 0.5F R             CCN000001500000001500FN00000000020220401000001500NNM   20220207141049    1W    00000150000000689000000000032M3    SASAMI  000000000000QM123019
BI00B32M3    SM22041 MW     20220303180D0203991              AVSSH 0.5F SB            CCN000001500000001500FN00000000020220401000001500NNM   20220207141049    1W    00000150000000689000000000032M3    SASAMI  000000000000QM322015
BI00B32M3    SM22043 MW     20220317180D0203991              AVSSH 0.5F SB            CCN000001500000001500FN00000000020220401000001500NNM   20220207141049    1W    00000150000000689000000000032M3    SASAMI  000000000000QM123020
BI00B32M3    SM22041 MW     20220303180D0203992              AVSSH 0.5F V             CCN000001500000001500FN00000000020220401000001500NNM   20220207141049    1W    00000150000000689000000000032M3    SASAMI  000000000000QM322016
BI00B32M3    SM22043 MW     20220317180D0203992              AVSSH 0.5F V             CCN000001500000001500FN00000000020220401000001500NNM   20220207141049    1W    00000150000000689000000000032M3    SASAMI  000000000000QM123021
BI00B32M3    SM22043 MW     20220317180D0203940              AVSSH 0.5F W             CCN000003000000003000FN00000000020220401000003000NNM   20220207141049    1W    00000150000000689000000000032M3    SASAMI  000000000000QM123022
BI00B32M3    SM22041 MW     20220303180D0204030              AVSSH 0.75F B            CCN000005000000005000FN00000000020220401000005000NNM   20220207141049    1W    00000100000000934000000000032M3    SASAMI  000000000000QM322017
BI00B32M3    SM22042 MW     20220310180D0204030              AVSSH 0.75F B            CCN000002000000002000FN00000000020220401000002000NNM   20220207141049    1W    00000100000000934000000000032M3    SASAMI  000000000000QM422014
BI00B32M3    SM22043 MW     20220317180D0204030              AVSSH 0.75F B            CCN000002000000002000FN00000000020220401000002000NNM   20220207141049    1W    00000100000000934000000000032M3    SASAMI  000000000000QM123023
BI00B32M3    SM22044 MW     20220324180D0204030              AVSSH 0.75F B            CCN000001000000001000FN00000000020220401000001000NNM   20220207141049    1W    00000100000000934000000000032M3    SASAMI  000000000000QM223003
BI00B32M3    SM22043 MW     20220317180D0204080              AVSSH 0.75F BR           CCN000002000000002000FN00000000020220401000002000NNM   20220207141049    1W    00000100000000934000000000032M3    SASAMI  000000000000QM123024
BI00B32M3    SM22041 MW     20220303180D0204060              AVSSH 0.75F G            CCN000002000000002000FN00000000020220401000002000NNM   20220207141049    1W    00000100000000934000000000032M3    SASAMI  000000000000QM322018
BI00B32M3    SM22042 MW     20220310180D0204060              AVSSH 0.75F G            CCN000003000000003000FN00000000020220401000003000NNM   20220207141049    1W    00000100000000934000000000032M3    SASAMI  000000000000QM422015
BI00B32M3    SM22043 MW     20220317180D0204060              AVSSH 0.75F G            CCN000002000000002000FN00000000020220401000002000NNM   20220207141049    1W    00000100000000934000000000032M3    SASAMI  000000000000QM123025
BI00B32M3    SM22043 MW     20220317180D0204041              AVSSH 0.75F GY           CCN000002000000002000FN00000000020220401000002000NNM   20220207141049    1W    00000100000000934000000000032M3    SASAMI  000000000000QM123026
BI00B32M3    SM22044 MW     20220324180D0204041              AVSSH 0.75F GY           CCN000002000000002000FN00000000020220401000002000NNM   20220207141049    1W    00000100000000934000000000032M3    SASAMI  000000000000QM223004
BI00B32M3    SM22041 MW     20220303180D0204090              AVSSH 0.75F L            CCN000004000000004000FN00000000020220401000004000NNM   20220207141049    1W    00000100000000934000000000032M3    SASAMI  000000000000QM322019
BI00B32M3    SM22042 MW     20220310180D0204090              AVSSH 0.75F L            CCN000004000000004000FN00000000020220401000004000NNM   20220207141049    1W    00000100000000934000000000032M3    SASAMI  000000000000QM422016
BI00B32M3    SM22043 MW     20220317180D0204090              AVSSH 0.75F L            CCN000003000000003000FN00000000020220401000003000NNM   20220207141049    1W    00000100000000934000000000032M3    SASAMI  000000000000QM123027
BI00B32M3    SM22041 MW     20220303180D0204061              AVSSH 0.75F LG           CCN000001000000001000FN00000000020220401000001000NNM   20220207141049    1W    00000100000000934000000000032M3    SASAMI  000000000000QM322020
BI00B32M3    SM22042 MW     20220310180D0204061              AVSSH 0.75F LG           CCN000001000000001000FN00000000020220401000001000NNM   20220207141049    1W    00000100000000934000000000032M3    SASAMI  000000000000QM422017
BI00B32M3    SM22043 MW     20220317180D0204061              AVSSH 0.75F LG           CCN000001000000001000FN00000000020220401000001000NNM   20220207141049    1W    00000100000000934000000000032M3    SASAMI  000000000000QM123028
BI00B32M3    SM22041 MW     20220303180D0204052              AVSSH 0.75F P            CCN000006000000006000FN00000000020220401000006000NNM   20220207141049    1W    00000100000000934000000000032M3    SASAMI  000000000000QM322021
BI00B32M3    SM22042 MW     20220310180D0204052              AVSSH 0.75F P            CCN000004000000004000FN00000000020220401000004000NNM   20220207141049    1W    00000100000000934000000000032M3    SASAMI  000000000000QM422018
BI00B32M3    SM22043 MW     20220317180D0204052              AVSSH 0.75F P            CCN000004000000004000FN00000000020220401000004000NNM   20220207141049    1W    00000100000000934000000000032M3    SASAMI  000000000000QM123029
BI00B32M3    SM22044 MW     20220324180D0204052              AVSSH 0.75F P            CCN000004000000004000FN00000000020220401000004000NNM   20220207141049    1W    00000100000000934000000000032M3    SASAMI  000000000000QM223005
BI00B32M3    SM22042 MW     20220310180D0204050              AVSSH 0.75F R            CCN000001000000001000FN00000000020220401000001000NNM   20220207141049    1W    00000100000000934000000000032M3    SASAMI  000000000000QM422019
BI00B32M3    SM22043 MW     20220317180D0204050              AVSSH 0.75F R            CCN000002000000002000FN00000000020220401000002000NNM   20220207141049    1W    00000100000000934000000000032M3    SASAMI  000000000000QM123030
BI00B32M3    SM22044 MW     20220324180D0204050              AVSSH 0.75F R            CCN000001000000001000FN00000000020220401000001000NNM   20220207141049    1W    00000100000000934000000000032M3    SASAMI  000000000000QM223006
BI00B32M3    SM22042 MW     20220310180D0204091              AVSSH 0.75F SB           CCN000001000000001000FN00000000020220401000001000NNM   20220207141049    1W    00000100000000934000000000032M3    SASAMI  000000000000QM422020
BI00B32M3    SM22043 MW     20220317180D0204091              AVSSH 0.75F SB           CCN000001000000001000FN00000000020220401000001000NNM   20220207141049    1W    00000100000000934000000000032M3    SASAMI  000000000000QM123031
BI00B32M3    SM22041 MW     20220303180D0204092              AVSSH 0.75F V            CCN000003000000003000FN00000000020220401000003000NNM   20220207141049    1W    00000100000000934000000000032M3    SASAMI  000000000000QM322022
BI00B32M3    SM22042 MW     20220310180D0204092              AVSSH 0.75F V            CCN000003000000003000FN00000000020220401000003000NNM   20220207141049    1W    00000100000000934000000000032M3    SASAMI  000000000000QM422021
BI00B32M3    SM22043 MW     20220317180D0204092              AVSSH 0.75F V            CCN000002000000002000FN00000000020220401000002000NNM   20220207141049    1W    00000100000000934000000000032M3    SASAMI  000000000000QM123032
BI00B32M3    SM22041 MW     20220303180D0204040              AVSSH 0.75F W            CCN000005000000005000FN00000000020220401000005000NNM   20220207141049    1W    00000100000000934000000000032M3    SASAMI  000000000000QM322023
BI00B32M3    SM22042 MW     20220310180D0204040              AVSSH 0.75F W            CCN000003000000003000FN00000000020220401000003000NNM   20220207141049    1W    00000100000000934000000000032M3    SASAMI  000000000000QM422022
BI00B32M3    SM22043 MW     20220317180D0204040              AVSSH 0.75F W            CCN000002000000002000FN00000000020220401000002000NNM   20220207141049    1W    00000100000000934000000000032M3    SASAMI  000000000000QM123033
BI00B32M3    SM22044 MW     20220324180D0204040              AVSSH 0.75F W            CCN000002000000002000FN00000000020220401000002000NNM   20220207141049    1W    00000100000000934000000000032M3    SASAMI  000000000000QM223007
BI00B32M3    SM22041 MW     20220303180D0204070              AVSSH 0.75F Y            CCN000001000000001000FN00000000020220401000001000NNM   20220207141049    1W    00000100000000934000000000032M3    SASAMI  000000000000QM322024
BI00B32M3    SM22042 MW     20220310180D0204070              AVSSH 0.75F Y            CCN000001000000001000FN00000000020220401000001000NNM   20220207141049    1W    00000100000000934000000000032M3    SASAMI  000000000000QM422023
BI00B32M3    SM22043 MW     20220317180D0204070              AVSSH 0.75F Y            CCN000001000000001000FN00000000020220401000001000NNM   20220207141049    1W    00000100000000934000000000032M3    SASAMI  000000000000QM123034
BI00B32M3    SM22041 MW     20220303180D0204130              AVSSH 1.25F B            CCN000005600000005600FN00000000020220401000005600NNM   20220207141049    1W    00000080000001458000000000032M3    SASAMI  000000000000QM322025
BI00B32M3    SM22042 MW     20220310180D0204130              AVSSH 1.25F B            CCN000003200000003200FN00000000020220401000003200NNM   20220207141049    1W    00000080000001458000000000032M3    SASAMI  000000000000QM422024
BI00B32M3    SM22043 MW     20220317180D0204130              AVSSH 1.25F B            CCN000002400000002400FN00000000020220401000002400NNM   20220207141049    1W    00000080000001458000000000032M3    SASAMI  000000000000QM123035
BI00B32M3    SM22044 MW     20220324180D0204130              AVSSH 1.25F B            CCN000001600000001600FN00000000020220401000001600NNM   20220207141049    1W    00000080000001458000000000032M3    SASAMI  000000000000QM223008
BI00B32M3    SM22041 MW     20220303180D0204160              AVSSH 1.25F G            CCN000000800000000800FN00000000020220401000000800NNM   20220207141049    1W    00000080000001458000000000032M3    SASAMI  000000000000QM322026
BI00B32M3    SM22042 MW     20220310180D0204160              AVSSH 1.25F G            CCN000000800000000800FN00000000020220401000000800NNM   20220207141049    1W    00000080000001458000000000032M3    SASAMI  000000000000QM422025
BI00B32M3    SM22041 MW     20220303180D0204190              AVSSH 1.25F L            CCN000000800000000800FN00000000020220401000000800NNM   20220207141049    1W    00000080000001458000000000032M3    SASAMI  000000000000QM322027
BI00B32M3    SM22043 MW     20220317180D0204190              AVSSH 1.25F L            CCN000000800000000800FN00000000020220401000000800NNM   20220207141049    1W    00000080000001458000000000032M3    SASAMI  000000000000QM123036
BI00B32M3    SM22042 MW     20220310180D0204140              AVSSH 1.25F W            CCN000000800000000800FN00000000020220401000000800NNM   20220207141049    1W    00000080000001458000000000032M3    SASAMI  000000000000QM422026
BI00B32M3    SM22043 MW     20220317180D0204140              AVSSH 1.25F W            CCN000000800000000800FN00000000020220401000000800NNM   20220207141049    1W    00000080000001458000000000032M3    SASAMI  000000000000QM123037
BI00B32M3    SM22041HMW     2022030318007704030              AVSS 0.75F B             CCN000017000000017000FN00000000020220401000017000NNM   20220207141052    1W    00000100000000943000000000032M3    SASAMI  000000000000QH322001
BI00B32M3    SM22042HMW     2022031018007704030              AVSS 0.75F B             CCN000014000000014000FN00000000020220401000014000NNM   20220207141052    1W    00000100000000943000000000032M3    SASAMI  000000000000QH422001
BI00B32M3    SM22043HMW     2022031718007704030              AVSS 0.75F B             CCN000007000000007000FN00000000020220401000007000NNM   20220207141052    1W    00000100000000943000000000032M3    SASAMI  000000000000QH123001
BI00B32M3    SM22044HMW     2022032418007704030              AVSS 0.75F B             CCN000003000000003000FN00000000020220401000003000NNM   20220207141052    1W    00000100000000943000000000032M3    SASAMI  000000000000QH223001
BI00B32M3    SM22041HMW     2022030318007704130              AVSS 1.25F B             CCN000002400000002400FN00000000020220401000002400NNM   20220207141052    1W    00000080000001389000000000032M3    SASAMI  000000000000QH322002
BI00B32M3    SM22042HMW     2022031018007704130              AVSS 1.25F B             CCN000000800000000800FN00000000020220401000000800NNM   20220207141052    1W    00000080000001389000000000032M3    SASAMI  000000000000QH422002
BI00B32M3    SM22043HMW     2022031718007704130              AVSS 1.25F B             CCN000000800000000800FN00000000020220401000000800NNM   20220207141052    1W    00000080000001389000000000032M3    SASAMI  000000000000QH123002
BI00B32M3    @SM22041MMW    20220303181E50011ZZ              AVSSCS-S 0.5FX2 DGY/Y    CCN000009000000009000FN00000000020220401000009000NNM   20220207141047    1W    00000030000003096000000000032M3    SASAMI  000000000000QN322001
BI00B32M3    @SM22042MMW    20220310181E50011ZZ              AVSSCS-S 0.5FX2 DGY/Y    CCN000004200000004200FN00000000020220401000004200NNM   20220207141047    1W    00000030000003096000000000032M3    SASAMI  000000000000QN422002
BI00B32M3    @SM22043MMW    20220317181E50011ZZ              AVSSCS-S 0.5FX2 DGY/Y    CCN000003900000003900FN00000000020220401000003900NNM   20220207141047    1W    00000030000003096000000000032M3    SASAMI  000000000000QN123001
BI00B32M3    @SM22044MMW    20220324181E50011ZZ              AVSSCS-S 0.5FX2 DGY/Y    CCN000002700000002700FN00000000020220401000002700NNM   20220207141047    1W    00000030000003096000000000032M3    SASAMI  000000000000QN223001
BI00B32M3    @SM22042MMW    20220310181E48041ZZ              CAVSAS-S 0.3X2 GY/R      CCN000000350000000350FN00000000020220401000000350NNM   20220207141047    1W    00000035000002008700000000032M3    SASAMI  000000000000QN422001
BI00B32Q8    EW2203B MW     2022020918009604443              AVS 5 W/B                CCN000008800000008800FN00000000020220301000008800NNE20 20220207161738    1W    00000020000005981000000000032Q8    EMEMI   000000000000MH122002
BI00B32Q8    @EW2203BNMW    20220223181E48025ZZ              CAVSAS-S 0.5X2 GY/G      CCN000000300000000300FN00000000020220301000000300NNE   20220207164619    1W    00000030000002561000000000032Q8    EMEMI   000000000000MQ222001
BI00B32Q8    @EW2203ETMW    20220302181E50036ZZ              AVSSCS-S 0.3FX2 DGY      CCN000021000000021000FN00000000020220301000021000NNE   20220207164620    1W    00000035000002165000000000032Q8    EMEMI   000000000000MH322003
BI00B32Q8    EW2203G MW     2022030218000004530              AV 8 B                   CCN000026900000026900FN00000000020220301000026900NNE   20220207163520    1W    00000010000010466200000000032Q8    EMEMI   000000000000MG322008
BI00B32Q8    EW2203G MW     2022030218000004590              AV 8 L                   CCN000004100000004100FN00000000020220301000004100NNE   20220207163520    1W    00000010000010466200000000032Q8    EMEMI   000000000000MG322009
BI00B32Q8    EW2203G MW     2022030218000004540              AV 8 W                   CCN000004200000004200FN00000000020220301000004200NNE   20220207163520    1W    00000010000010466200000000032Q8    EMEMI   000000000000MG322010
BI00B32Q8    EW2203G MW     2022021518009604443              AVS 5 W/B                CCN000011200000011200FN00000000020220301000011200NNE20 20220207163616    1W    00000020000005981000000000032Q8    EMEMI   000000000000MG322013
BI00B32Q8    EW2203G MW     2022030218007703941              AVSS 0.5F GY             CCN000013500000013500FN00000000020220301000013500NNE   20220207163520    1W    00000150000000674000000000032Q8    EMEMI   000000000000MG322011
BI00B32Q8    EW2203G MW     2022030218007703990              AVSS 0.5F L              CCN000009000000009000FN00000000020220301000009000NNE   20220207163520    1W    00000150000000674000000000032Q8    EMEMI   000000000000MG322012
BI00B32Q8    EW2203G MW     20220302180D0203780              AVSSH 0.3F BR            CCN000006000000006000FN00000000020220301000006000NNE   20220207163520    1W    00000200000000515000000000032Q8    EMEMI   000000000000MG322001
BI00B32Q8    EW2203G MW     20220302180D0203743              AVSSH 0.3F W/B           CCN000012000000012000FN00000000020220301000012000NNE   20220207163520    1W    00000200000000515000000000032Q8    EMEMI   000000000000MG322002
BI00B32Q8    EW2203G MW     20220302180D0203980              AVSSH 0.5F BR            CCN000009000000009000FN00000000020220301000009000NNE   20220207163520    1W    00000150000000689000000000032Q8    EMEMI   000000000000MG322003
BI00B32Q8    EW2203G MW     20220302180D0203992              AVSSH 0.5F V             CCN000009000000009000FN00000000020220301000009000NNE   20220207163520    1W    00000150000000689000000000032Q8    EMEMI   000000000000MG322004
BI00B32Q8    EW2203G MW     20220302180D0203970              AVSSH 0.5F Y             CCN000009000000009000FN00000000020220301000009000NNE   20220207163520    1W    00000150000000689000000000032Q8    EMEMI   000000000000MG322005
BI00B32Q8    EW2203G MW     20220302180D0204060              AVSSH 0.75F G            CCN000002000000002000FN00000000020220301000002000NNE   20220207163520    1W    00000100000000934000000000032Q8    EMEMI   000000000000MG322006
BI00B32Q8    EW2203G MW     20220302180D0204180              AVSSH 1.25F BR           CCN000000800000000800FN00000000020220301000000800NNE   20220207163520    1W    00000080000001458000000000032Q8    EMEMI   000000000000MG322007
BI00B32Q8    EW2203G MW     202203021801R704130              CIVUS 1.25 B             CCN000120000000120000FN00000000020220301000120000NNE   20220207163520    1W    00000100000001228000000000032Q8    EMEMI   000000000000MG322014
BI00B32Q8    EW2203G MW     202203021801R70415U              CIVUS 1.25 BE            CCN000004000000004000FN00000000020220301000004000NNE   20220207163520    1W    00000100000001228000000000032Q8    EMEMI   000000000000MG322015
BI00B32Q8    EW2203G MW     202203021801R704180              CIVUS 1.25 BR            CCN000014000000014000FN00000000020220301000014000NNE   20220207163520    1W    00000100000001228000000000032Q8    EMEMI   000000000000MG322016
BI00B32Q8    EW2203G MW     202203021801R704160              CIVUS 1.25 G             CCN000011000000011000FN00000000020220301000011000NNE   20220207163520    1W    00000100000001228000000000032Q8    EMEMI   000000000000MG322017
BI00B32Q8    EW2203G MW     202203021801R704190              CIVUS 1.25 L             CCN000003000000003000FN00000000020220301000003000NNE   20220207163520    1W    00000100000001228000000000032Q8    EMEMI   000000000000MG322018
BI00B32Q8    EW2203G MW     202203021801R704140              CIVUS 1.25 W             CCN000052000000052000FN00000000020220301000052000NNE   20220207163520    1W    00000100000001228000000000032Q8    EMEMI   000000000000MG322019
BI00B32Q8    @EW2203G MW    20220302181E48018ZZ              CAVSAS-S 0.5X2 GY/SB     CCN000004800000004800FN00000000020220301000004800NNE   20220207164621    1W    00000030000002561000000000032Q8    EMEMI   000000000000MG322024
BI00B32Q8    @EW2203G MW    20220302181E48022ZZ              CAVSAS-S 0.5X2 GY        CCN000000600000000600FN00000000020220301000000600NNE   20220207164621    1W    00000030000002561000000000032Q8    EMEMI   000000000000MG322022
BI00B32Q8    @EW2203G MW    20220302181E48027ZZ              CAVSAS-S 0.5X2 GY/P      CCN000005400000005400FN00000000020220301000005400NNE   20220207164621    1W    00000030000002561000000000032Q8    EMEMI   000000000000MG322023
