BI00A1200    #2399T51920    202112157289-4200-30             HOUSING FEMALE ASS'Y     PCN000082000000040000FY00004000020211101000000000NNM00 20220105150826    2N0N  0000020000000092600000102101200    YCYC    005400370024
BI00A1200    #2399T51920    202112287289-4200-30             HOUSING FEMALE ASS'Y     PCN000042000000042000FN00004200020211101000000000NNMD0420220105171813    2N0N  0000020000000092600000102101200    YCYC    005400370024
BI00B1200    2399T52113     202208117288-6547                CONNECTOR MALE ASS'Y     CCN000173250000173250FN00000000020220301000173250NNMD0420220105171813    4N0N  0000007500000120530000134031200    YCYC    005400370024
BI00B1200    2399T52114     202208187288-6547                CONNECTOR MALE ASS'Y     CCN000173250000173250FN00000000020220301000173250NNMD0420220105171813    4N0N  0000007500000120530000134031200    YCYC    005400370024
BI00B1200    2399T52115     202208257288-6547                CONNECTOR MALE ASS'Y     CCN000173250000173250FN00000000020220301000173250NNMD0420220105171813    4N0N  0000007500000120530000134031200    YCYC    005400370024
BI00B1200    2399T52116     202209017288-6547                CONNECTOR MALE ASS'Y     CCN000173250000173250FN00000000020220301000173250NNMD0420220105171813    4N0N  0000007500000120530000134031200    YCYC    005400370024
BI00B1200    2399T52113     202202107289-3342                HOUSING FEMALE ASS'Y     CCN000004800000004800FN00000000020220301000004800NNMD0420220105171813    1N0N  0000024000000068640000090141200    YCYC    005500360039
BI00B1200    2399T52114     202202177289-3342                HOUSING FEMALE ASS'Y     CCN000002400000002400FN00000000020220301000002400NNMD0420220105171813    1N0N  0000024000000068640000090141200    YCYC    005500360039
BI00B1200    2399T52115     202202247289-3342                HOUSING FEMALE ASS'Y     CCN000002400000002400FN00000000020220301000002400NNMD0420220105171813    1N0N  0000024000000068640000090141200    YCYC    005500360039
BI00B1200    2399T52116     202203037289-3342                HOUSING FEMALE ASS'Y     CCN000002400000002400FN00000000020220301000002400NNMD0420220105171813    1N0N  0000024000000068640000090141200    YCYC    005500360039
BI00B1200    2399T52113     202205267289-3342-30             HOUSING FEMALE ASS'Y     CCN000019200000019200FN00000000020220301000019200NNMD0420220105171813    1N0N  0000024000000068640000090141200    YCYC    005500360039
BI00B1200    2399T52114     202206097289-3342-30             HOUSING FEMALE ASS'Y     CCN000019200000019200FN00000000020220301000019200NNMD0420220105171813    1N0N  0000024000000068640000090141200    YCYC    005500360039
BI00B1200    2399T52115     202206237289-3342-30             HOUSING FEMALE ASS'Y     CCN000016800000016800FN00000000020220301000016800NNMD0420220105171813    1N0N  0000024000000068640000090141200    YCYC    005500360039
BI00B1200    2399T52116     202207077289-3342-30             HOUSING FEMALE ASS'Y     CCN000016800000016800FN00000000020220301000016800NNMD0420220105171813    1N0N  0000024000000068640000090141200    YCYC    005500360039
BI00B1200    7360T52101     202206027289-3342-30             HOUSING FEMALE ASS'Y     CCN000014400000014400FN00000000020220301000014400NNMD0420220105171813    1N0N  0000024000000068640000090141200    YCYC    005500360039
BI00B1200    7360T52103     202202177289-3342-30             HOUSING FEMALE ASS'Y     CCN000014400000014400FN00000000020220301000014400NNMD0420220105171813    1N0N  0000024000000068640000090141200    YCYC    005500360039
BI00B1200    7360T52104     202206307289-3342-30             HOUSING FEMALE ASS'Y     CCN000014400000014400FN00000000020220301000014400NNMD0420220105171813    1N0N  0000024000000068640000090141200    YCYC    005500360039
BI00B1200    8870T52102     202203107289-3342                HOUSING FEMALE ASS'Y     CCN000002400000002400FN00000000020220301000002400NNED0420220105171813    1N0N  0000024000000068640000090141200    YCYC    005500360039
BI00B32AG    XG2203AKMW     202202187327-6469-3W             BATTERY FUSE             CCN000000384000000384FN00000000020220301000000384NNE   20220105171813    4N0N  00000009600000832300001012332AG    XGXGY   005400370024
BI00B32AG    XG2203BLMW     202202117289-4696-30             HOUSING FEMALE ASS'Y     CCN000014000000014000FN00000000020220301000014000NNE   20220105171813    4N0N  00000200000000913400001055432AG    XGXGY   005400370024
BI00B32AG    XG2203CLMW     202202257289-4696-30             HOUSING FEMALE ASS'Y     CCN000010000000010000FN00000000020220301000010000NNE   20220105171813    4N0N  00000200000000913400001055432AG    XGXGY   005400370024
BI00B32AG    XG2203CLMW     202202257289-7615-30             HOUSING FEMALE ASS'Y     CCN000001280000001280FN00000000020220301000001280NNE   20220105171813    4N0N  00000032000000738000000948032AG    XGXGY   005400370024
BI00B32AG    XG2204AKMW     202203117327-6469-3W             BATTERY FUSE             CCN000000288000000288FN00000000020220401000000288NNE   20220105171813    4N0N  00000009600000832300001012332AG    XGXGY   005400370024
BI00B32A7    #ZZ22014BMW    202201077172-5937-90             SEAL RUBBER              CCN000001000000001000FN00000000020220101000001000NNM00020220105171813    2H0H  00000100000000620000000666832A7    ZZZZY   004300270014
BI00B32CH    SJ22023 MW     202201207114-5747-02             TERMINAL                 CCN000072000000018000FN00000000020220201000018000NNMQ0020220105171813    4P0P  00001800000000626400000920032CH    SJSAMIJF006400630015
BI00B32CH    SJ22023 MW     202201207116-4028-08             TERMINAL FEMALE          CCN000128000000112000FN00000000020220201000112000NNMQ0020220105171813    4P0P  00001600000000652800000981532CH    SJSAMIJF006400630017
BI00B32CH    #SJ22023DMW    202201207183-0522                HOUSING                  CCN000009600000007200FN00000000020220201000007200NNMQ0020220105171813    2F0F  00000240000000951000001230032CH    SJSAMIJF005500360039
BI00B32CH    #SJ22023DMW    202201207183-2415                CONNECTOR HOUSING        CCN000009600000004800FN00000000020220201000004800NNMM0020220105171813    2F0F  00000480000000798200001091432CH    SJSAMIJF005500360039
BI00B32CH    #SJ22023DMW    202201207189-3031                HOUSING FEMALE           CCN000007200000004800FN00000000020220201000004800NNMQ0020220105171813    2F0F  00000240000000928800001365832CH    SJSAMIJF005500360039
BI00B32CH    #SJ22023DMW    202201207283-8730-30             HOUSING FEMALE ASS'Y     CCN000004000000002000FN00000000020220201000002000NNMQ0020220105171813    2N0N  00000200000000794000000906532CH    SJSAMIJF005400370024
BI00B32CH    #SJ22023DMW    202201207289-2912-30             HOUSING FEMALE ASS'Y     CCN000006000000004000FN00000000020220201000004000NNMQ0020220105171813    2N0N  00000200000000804000000929032CH    SJSAMIJF005400370024
BI00B32CH    #SJ22023DMW    202201207289-2913-30             HOUSING FEMALE ASS'Y     CCN000004500000003000FN00000000020220201000003000NNMQ0020220105171813    2N0N  00000150000000907500001034532CH    SJSAMIJF005400360024
BI00B32CH    #SJ22023DMW    202201207289-2918-40             HOUSING FEMALE ASS'Y     CCN000009000000006000FN00000000020220201000006000NNMQ0020220105171813    2N0N  00000100000001020000001147032CH    SJSAMIJF005400360024
BI00A32CH    SJ22021HMW     202201257327-6880-30             MULTI FUSE               CCN000004320000004320FN00000000020220201000004320NNMM0020220105171813    4N0N  00000028800001012600001178532CH    SJSAMIJF005400370024
BI00A32CH    SJ2202ADMW     202201207283-6120                CONNECTOR HOUSING        CCN000004500000004500FN00000000020220201000004500NNEM0020220105171813    1N0N  00000150000000914000001143032CH    SJSAMIJF005600390040
BI00B32CH    SJ22035 MW     202202177283-4576                HOUSING FEMALE ASS'Y     CCN000004800000004800FN00000000020220301000004800NNMD0020220105171813    4N0N  00000480000000651300000871332CH    SJSAMIJF005500360039
BI00B32CH    SJ22031 MW     202201277327-6832-60             MAIN FUSE                CCN000004800000004800FN00000000020220301000004800NNMD0020220105171813    4N0N  00000060000000729200000930732CH    SJSAMIJF005400370024
BI00B32CH    SJ22032 MW     202202037327-6832-60             MAIN FUSE                CCN000013800000013800FN00000000020220301000013800NNMD0020220105171813    4N0N  00000060000000729200000930732CH    SJSAMIJF005400370024
BI00B32CH    SJ22033 MW     202202107327-6832-60             MAIN FUSE                CCN000015000000015000FN00000000020220301000015000NNMD0020220105171813    4N0N  00000060000000729200000930732CH    SJSAMIJF005400370024
BI00B32CH    SJ22034 MW     202202177327-6832-60             MAIN FUSE                CCN000015000000015000FN00000000020220301000015000NNMD0020220105171813    4N0N  00000060000000729200000930732CH    SJSAMIJF005400370024
BI00B32CH    SJ22035 MW     202202177327-6832-60             MAIN FUSE                CCN000017400000017400FN00000000020220301000017400NNMD0020220105171813    4N0N  00000060000000729200000930732CH    SJSAMIJF005400370024
BI00B32CH    SJ22035DMW     202202177287-3885-30             HYBRID FEMALE ASS'Y      CCN000028800000028800FN00000000020220301000028800NNMD0020220105171813    1N0N  00000240000001029600001249632CH    SJSAMIJF005500360039
BI00B32CH    SJ22031HMW     202201277C89-6868-30             SEALED ASSY FEMALE       CCN000022680000022680FN00000000020220301000022680NNMD0020220105171813    4N0N  00000252000000839200001119232CH    SJSAMIJF005500360039
BI00B32CH    SJ22032HMW     202202037C89-6868-30             SEALED ASSY FEMALE       CCN000040320000040320FN00000000020220301000040320NNMD0020220105171813    4N0N  00000252000000839200001119232CH    SJSAMIJF005500360039
BI00B32CH    SJ22033HMW     202203037C89-6868-30             SEALED ASSY FEMALE       CCN000045360000045360FN00000000020220301000045360NNMD0020220105171813    4N0N  00000252000000839200001119232CH    SJSAMIJF005500360039
BI00B32CH    SJ22034HMW     202202177C89-6868-30             SEALED ASSY FEMALE       CCN000040320000040320FN00000000020220301000040320NNMD0020220105171813    4N0N  00000252000000839200001119232CH    SJSAMIJF005500360039
BI00B32CH    SJ22035HMW     202202177C89-6868-30             SEALED ASSY FEMALE       CCN000040320000040320FN00000000020220301000040320NNMD0020220105171813    4N0N  00000252000000839200001119232CH    SJSAMIJF005500360039
BI00B32CH    SJ22031HMW     202201277327-6834-80             MAIN FUSE                CCN000003000000003000FN00000000020220301000003000NNMD0020220105171813    4N0N  00000060000000736800000938332CH    SJSAMIJF005400370024
BI00B32CH    SJ22032HMW     202202037327-6834-80             MAIN FUSE                CCN000005400000005400FN00000000020220301000005400NNMD0020220105171813    4N0N  00000060000000736800000938332CH    SJSAMIJF005400370024
BI00B32CH    SJ22033HMW     202202107327-6834-80             MAIN FUSE                CCN000006600000006600FN00000000020220301000006600NNMD0020220105171813    4N0N  00000060000000736800000938332CH    SJSAMIJF005400370024
BI00B32CH    SJ22034HMW     202202177327-6834-80             MAIN FUSE                CCN000003600000003600FN00000000020220301000003600NNMD0020220105171813    4N0N  00000060000000736800000938332CH    SJSAMIJF005400370024
BI00B32CH    SJ22035HMW     202202177327-6834-80             MAIN FUSE                CCN000001800000001800FN00000000020220301000001800NNMD0020220105171813    4N0N  00000060000000736800000938332CH    SJSAMIJF005400370024
BI00B32CH    SJ22031HMW     202201277327-6868-30             MULTI FUSE               CCN000001152000001152FN00000000020220301000001152NNMD0020220105171813    4N0N  00000028800001013500001179432CH    SJSAMIJF005400370024
BI00B32CH    SJ22032HMW     202202037327-6868-30             MULTI FUSE               CCN000001152000001152FN00000000020220301000001152NNMD0020220105171813    4N0N  00000028800001013500001179432CH    SJSAMIJF005400370024
BI00B32CH    SJ22033HMW     202202107327-6868-30             MULTI FUSE               CCN000001440000001440FN00000000020220301000001440NNMD0020220105171813    4N0N  00000028800001013500001179432CH    SJSAMIJF005400370024
BI00B32CH    SJ22034HMW     202202177327-6868-30             MULTI FUSE               CCN000000864000000864FN00000000020220301000000864NNMD0020220105171813    4N0N  00000028800001013500001179432CH    SJSAMIJF005400370024
BI00B32CH    SJ22035HMW     202202177327-6868-30             MULTI FUSE               CCN000000288000000288FN00000000020220301000000288NNMD0020220105171813    4N0N  00000028800001013500001179432CH    SJSAMIJF005400370024
BI00B32CH    SJ22031HMW     202201277327-6870-30             MULTI FUSE               CCN000005184000005184FN00000000020220301000005184NNMD0020220105171813    4N0N  00000028800001015200001181132CH    SJSAMIJF005400370024
BI00B32CH    SJ22032HMW     202202037327-6870-30             MULTI FUSE               CCN000014112000014112FN00000000020220301000014112NNMD0020220105171813    4N0N  00000028800001015200001181132CH    SJSAMIJF005400370024
BI00B32CH    SJ22033HMW     202202107327-6870-30             MULTI FUSE               CCN000014688000014688FN00000000020220301000014688NNMD0020220105171813    4N0N  00000028800001015200001181132CH    SJSAMIJF005400370024
BI00B32CH    SJ22034HMW     202202177327-6870-30             MULTI FUSE               CCN000015552000015552FN00000000020220301000015552NNMD0020220105171813    4N0N  00000028800001015200001181132CH    SJSAMIJF005400370024
BI00B32CH    SJ22035HMW     202202177327-6870-30             MULTI FUSE               CCN000016992000016992FN00000000020220301000016992NNMD0020220105171813    4N0N  00000028800001015200001181132CH    SJSAMIJF005400370024
BI00B32CH    SJ22031HMW     202201277327-6872-30             MULTI FUSE               CCN000006912000006912FN00000000020220301000006912NNMD0020220105171813    4N0N  00000028800000984500001150432CH    SJSAMIJF005400370024
BI00B32CH    SJ22032HMW     202202037327-6872-30             MULTI FUSE               CCN000006048000006048FN00000000020220301000006048NNMD0020220105171813    4N0N  00000028800000984500001150432CH    SJSAMIJF005400370024
BI00B32CH    SJ22033HMW     202202107327-6872-30             MULTI FUSE               CCN000008064000008064FN00000000020220301000008064NNMD0020220105171813    4N0N  00000028800000984500001150432CH    SJSAMIJF005400370024
BI00B32CH    SJ22034HMW     202202177327-6872-30             MULTI FUSE               CCN000004608000004608FN00000000020220301000004608NNMD0020220105171813    4N0N  00000028800000984500001150432CH    SJSAMIJF005400370024
BI00B32CH    SJ22035HMW     202202177327-6872-30             MULTI FUSE               CCN000002592000002592FN00000000020220301000002592NNMD0020220105171813    4N0N  00000028800000984500001150432CH    SJSAMIJF005400370024
BI00B32CH    SJ22032HMW     202202037327-6874-30             MULTI FUSE               CCN000005760000005760FN00000000020220301000005760NNMD0020220105171813    4N0N  00000028800000991400001157332CH    SJSAMIJF005400370024
BI00B32CH    SJ22033HMW     202202107327-6874-30             MULTI FUSE               CCN000010944000010944FN00000000020220301000010944NNMD0020220105171813    4N0N  00000028800000991400001157332CH    SJSAMIJF005400370024
BI00B32CH    SJ22034HMW     202202177327-6874-30             MULTI FUSE               CCN000010656000010656FN00000000020220301000010656NNMD0020220105171813    4N0N  00000028800000991400001157332CH    SJSAMIJF005400370024
BI00B32CH    SJ22035HMW     202202177327-6874-30             MULTI FUSE               CCN000010656000010656FN00000000020220301000010656NNMD0020220105171813    4N0N  00000028800000991400001157332CH    SJSAMIJF005400370024
BI00B32CH    SJ22031HMW     202201277327-6876-30             MULTI FUSE               CCN000002880000002880FN00000000020220301000002880NNMD0020220105171813    4N0N  00000028800001016400001182332CH    SJSAMIJF005400370024
BI00B32CH    SJ22032HMW     202202037327-6876-30             MULTI FUSE               CCN000004896000004896FN00000000020220301000004896NNMD0020220105171813    4N0N  00000028800001016400001182332CH    SJSAMIJF005400370024
BI00B32CH    SJ22033HMW     202202107327-6876-30             MULTI FUSE               CCN000006624000006624FN00000000020220301000006624NNMD0020220105171813    4N0N  00000028800001016400001182332CH    SJSAMIJF005400370024
BI00B32CH    SJ22034HMW     202202177327-6876-30             MULTI FUSE               CCN000004032000004032FN00000000020220301000004032NNMD0020220105171813    4N0N  00000028800001016400001182332CH    SJSAMIJF005400370024
BI00B32CH    SJ22035HMW     202202177327-6876-30             MULTI FUSE               CCN000002016000002016FN00000000020220301000002016NNMD0020220105171813    4N0N  00000028800001016400001182332CH    SJSAMIJF005400370024
BI00B32CH    SJ22031HMW     202201277327-6878-30             MULTI FUSE               CCN000007200000007200FN00000000020220301000007200NNMD0020220105171813    4N0N  00000028800000989700001155632CH    SJSAMIJF005400370024
BI00B32CH    SJ22032HMW     202202037327-6878-30             MULTI FUSE               CCN000006048000006048FN00000000020220301000006048NNMD0020220105171813    4N0N  00000028800000989700001155632CH    SJSAMIJF005400370024
BI00B32CH    SJ22033HMW     202202107327-6878-30             MULTI FUSE               CCN000008352000008352FN00000000020220301000008352NNMD0020220105171813    4N0N  00000028800000989700001155632CH    SJSAMIJF005400370024
BI00B32CH    SJ22034HMW     202202177327-6878-30             MULTI FUSE               CCN000004608000004608FN00000000020220301000004608NNMD0020220105171813    4N0N  00000028800000989700001155632CH    SJSAMIJF005400370024
BI00B32CH    SJ22035HMW     202202177327-6878-30             MULTI FUSE               CCN000002304000002304FN00000000020220301000002304NNMD0020220105171813    4N0N  00000028800000989700001155632CH    SJSAMIJF005400370024
BI00B32CH    SJ22031HMW     202201277327-6880-30             MULTI FUSE               CCN000005760000005760FN00000000020220301000005760NNMD0020220105171813    4N0N  00000028800001012600001178532CH    SJSAMIJF005400370024
BI00B32CH    SJ22032HMW     202202037327-6880-30             MULTI FUSE               CCN000014112000014112FN00000000020220301000014112NNMD0020220105171813    4N0N  00000028800001012600001178532CH    SJSAMIJF005400370024
BI00B32CH    SJ22033HMW     202202107327-6880-30             MULTI FUSE               CCN000014688000014688FN00000000020220301000014688NNMD0020220105171813    4N0N  00000028800001012600001178532CH    SJSAMIJF005400370024
BI00B32CH    SJ22034HMW     202202177327-6880-30             MULTI FUSE               CCN000015552000015552FN00000000020220301000015552NNMD0020220105171813    4N0N  00000028800001012600001178532CH    SJSAMIJF005400370024
BI00B32CH    SJ22035HMW     202202177327-6880-30             MULTI FUSE               CCN000016992000016992FN00000000020220301000016992NNMD0020220105171813    4N0N  00000028800001012600001178532CH    SJSAMIJF005400370024
BI00B32CH    SJ22031HMW     202201277327-6882-30             MULTI FUSE               CCN000006912000006912FN00000000020220301000006912NNMD0020220105171813    4N0N  00000028800001015900001181832CH    SJSAMIJF005400370024
BI00B32CH    SJ22032HMW     202202037327-6882-30             MULTI FUSE               CCN000006048000006048FN00000000020220301000006048NNMD0020220105171813    4N0N  00000028800001015900001181832CH    SJSAMIJF005400370024
BI00B32CH    SJ22033HMW     202202107327-6882-30             MULTI FUSE               CCN000008352000008352FN00000000020220301000008352NNMD0020220105171813    4N0N  00000028800001015900001181832CH    SJSAMIJF005400370024
BI00B32CH    SJ22034HMW     202202177327-6882-30             MULTI FUSE               CCN000004608000004608FN00000000020220301000004608NNMD0020220105171813    4N0N  00000028800001015900001181832CH    SJSAMIJF005400370024
BI00B32CH    SJ22035HMW     202202177327-6882-30             MULTI FUSE               CCN000002304000002304FN00000000020220301000002304NNMD0020220105171813    4N0N  00000028800001015900001181832CH    SJSAMIJF005400370024
BI00B32CH    SJ22031HMW     202201277327-6884-30             MULTI FUSE               CCN000010080000005760FN00000000020220301000005760NNMD0020220105171813    4N0N  00000028800000988900001154832CH    SJSAMIJF005400370024
BI00B32CH    SJ22032HMW     202202037327-6884-30             MULTI FUSE               CCN000017856000017856FN00000000020220301000017856NNMD0020220105171813    4N0N  00000028800000988900001154832CH    SJSAMIJF005400370024
BI00B32CH    SJ22033HMW     202202107327-6884-30             MULTI FUSE               CCN000018432000018432FN00000000020220301000018432NNMD0020220105171813    4N0N  00000028800000988900001154832CH    SJSAMIJF005400370024
BI00B32CH    SJ22034HMW     202202177327-6884-30             MULTI FUSE               CCN000020448000020448FN00000000020220301000020448NNMD0020220105171813    4N0N  00000028800000988900001154832CH    SJSAMIJF005400370024
BI00B32CH    SJ22035HMW     202202177327-6884-30             MULTI FUSE               CCN000023328000023328FN00000000020220301000023328NNMD0020220105171813    4N0N  00000028800000988900001154832CH    SJSAMIJF005400370024
BI00B32CH    SJ22035SMW     202202177289-3342-30             HOUSING FEMALE ASS'Y     CCN000012000000012000FN00000000020220301000012000NNMD0020220105171813    1N0N  00000240000000686400000901432CH    SJSAMIJF005500360039
BI00A32CH    SJ22023 MW     202201067114-5747-02             TERMINAL                 CCN000054000000054000FN00000000020220201000054000NNMM0020220105171813    4P0P  00001800000000626400000920032CH    SJSAMIJF006400630015
BI00A32CH    SJ22023 MW     202201067116-4028-08             TERMINAL FEMALE          CCN000016000000016000FN00000000020220201000016000NNMM0020220105171813    4P0P  00001600000000652800000981532CH    SJSAMIJF006400630017
BI00A32CH    #SJ22023DMW    202201077183-2415                CONNECTOR HOUSING        CCN000004800000004800FN00000000020220201000004800NNMM0020220105171813    2F0F  00000480000000798200001091432CH    SJSAMIJF005500360039
BI00A32CH    #SJ22023DMW    202201107189-3031                HOUSING FEMALE           CCN000002400000002400FN00000000020220201000002400NNMM0020220105171813    2F0F  00000240000000928800001365832CH    SJSAMIJF005500360039
BI00A32CH    #SJ22023DMW    202201107283-8730-30             HOUSING FEMALE ASS'Y     CCN000002000000002000FN00000000020220201000002000NNMM0020220105171813    2N0N  00000200000000794000000906532CH    SJSAMIJF005400370024
BI00A32CH    #SJ22023DMW    202201077183-0522                HOUSING                  CCN000002400000002400FN00000000020220201000002400NNMM0020220105171813    2F0F  00000240000000951000001230032CH    SJSAMIJF005500360039
BI00A32CH    SJ22031HMW     202201217327-6884-30             MULTI FUSE               CCN000004320000004320FN00000000020220301000004320NNMM0020220105171813    4N0N  00000028800000988900001154832CH    SJSAMIJF005400370024
BI00A32CH    #SJ22023DMW    202201077289-2912-30             HOUSING FEMALE ASS'Y     CCN000002000000002000FN00000000020220201000002000NNMM0020220105171813    2N0N  00000200000000804000000929032CH    SJSAMIJF005400370024
BI00A32CH    #SJ22023DMW    202201077289-2913-30             HOUSING FEMALE ASS'Y     CCN000001500000001500FN00000000020220201000001500NNMM0020220105171813    2N0N  00000150000000907500001034532CH    SJSAMIJF005400360024
BI00A32CH    #SJ22023DMW    202201077289-2918-40             HOUSING FEMALE ASS'Y     CCN000003000000003000FN00000000020220201000003000NNMM0020220105171813    2N0N  00000100000001020000001147032CH    SJSAMIJF005400360024
BI00B32CJ    JQN2031        202205277288-6547                CONNECTOR MALE ASS'Y     CCN000003000000003000FN00000000020220301000003000NNMD0420220105171813    4N0N  00000075000001205300001340332CJ    QNYHVQN 005400370024
BI00B32CJ    JQN2031        202209237289-3342-30             HOUSING FEMALE ASS'Y     CCN000019200000019200FN00000000020220301000019200NNMD0420220105171813    1N0N  00000240000000686400000901432CJ    QNYHVQN 005500360039
BI00B32CJ    JQN2032        202209307289-3342-30             HOUSING FEMALE ASS'Y     CCN000019200000019200FN00000000020220301000019200NNMD0420220105171813    1N0N  00000240000000686400000901432CJ    QNYHVQN 005500360039
BI00B32CJ    JQN202B        202201217017-1180-02             TERMINAL                 CCN000072000000072000FN00000000020220201000072000NNE   20220105171813    4P0P  00007200000001065600001229032CJ    QNYHVQN 005100280028
BI00B32CJ    JQN202B        202201217017-1181-02             TERMINAL                 CCN000063000000063000FN00000000020220201000063000NNE   20220105171813    4P0P  00006300000001089900001266832CJ    QNYHVQN 005100280028
BI00B32CJ    JQN202B        202201217017-1182-02             TERMINAL                 CCN000045000000045000FN00000000020220201000045000NNE   20220105171813    4P0P  00004500000001165500001318632CJ    QNYHVQN 005100280028
BI00B32CJ    JQN202B        202201217017-1183-02             TERMINAL                 CCN000027000000027000FN00000000020220201000027000NNE   20220105171813    4P0P  00002700000001139400001307432CJ    QNYHVQN 005100280028
BI00B32CJ    JQN202B        202201217114-4032                TERMINAL                 CCN000007500000007500FN00000000020220201000007500NNE   20220105171813    4P0P  00000750000000735000001063632CJ    QNYHVQN 006400630017
BI00B32CJ    JQN202B        202201217114-4231-02             TERMINAL                 CCN000018000000018000FN00000000020220201000018000NNE   20220105171813    4P0P  00001800000000554400000848032CJ    QNYHVQN 006400630015
BI00B32CJ    JQN202B        202201217114-4728-02             TERMINAL                 CCN000060000000060000FN00000000020220201000060000NNE   20220105171813    4P0P  00003000000000510000000804232CJ    QNYHVQN 006400630015
BI00B32CJ    JQN202B        202201217116-1180                TERMINAL                 CCN000039000000039000FN00000000020220201000039000NNE   20220105171813    1P0P  00001950000000618200000903432CJ    QNYHVQN 006400630015
BI00B32CJ    JQN202B        202201217116-1685-02             TERMINAL                 CCN000048000000048000FN00000000020220201000048000NNE   20220105171813    4P0P  00002400000000897600001065232CJ    QNYHVQN 005100280028
BI00B32CJ    JQN202B        202201217116-1686-02             TERMINAL                 CCN000021000000021000FN00000000020220201000021000NNE   20220105171813    4P0P  00002100000000869400001021632CJ    QNYHVQN 005100280028
BI00B32CJ    JQN202B        202201217116-3153-08             TERMINAL                 CCN000027000000027000FN00000000020220201000027000NNE   20220105171813    4P0P  00002700000000461700000746932CJ    QNYHVQN 006400630015
BI00B32CJ    JQN202B        202201217116-4026                TERMINAL                 CCN000032000000032000FN00000000020220201000032000NNE   20220105171813    4P0P  00001600000000664000000994332CJ    QNYHVQN 006400630017
BI00B32CJ    JQN202B        202201217116-4031                TERMINAL                 CCN000022500000022500FN00000000020220201000022500NNE   20220105171813    4P0P  00000750000000619500000904732CJ    QNYHVQN 006400630015
BI00B32CJ    JQN202B        202201217116-4032                TERMINAL                 CCN000012000000012000FN00000000020220201000012000NNE   20220105171813    4P0P  00000600000000532800000818032CJ    QNYHVQN 006400630015
BI00B32CJ    JQN202B        202201217116-4037                TERMINAL                 CCN000030000000030000FN00000000020220201000030000NNE   20220105171813    4P0P  00000600000000600000000894232CJ    QNYHVQN 006400630015
BI00B32CJ    JQN202B        202201217116-4415-02             TERMINAL                 CCN000152000000152000FN00000000020220201000152000NNE   20220105171813    4P0P  00003800000000596600000925732CJ    QNYHVQN 006400630017
BI00B32CJ    JQN202B        202201217116-4416-02             TERMINAL                 CCN000064000000064000FN00000000020220201000064000NNE   20220105171813    4P0P  00003200000000518400000847132CJ    QNYHVQN 006400630017
BI00B32CJ    JQN202B        202201217116-4486-02             TERMINAL                 CCN000140000000140000FN00000000020220201000140000NNE   20220105171813    4P0P  00002800000000666400000995132CJ    QNYHVQN 006400630017
BI00B32CJ    JQN202B        202201217116-5042-02             TERMINAL                 CCN000027000000027000FN00000000020220201000027000NNE   20220105171813    4P0P  00001350000000560300000845532CJ    QNYHVQN 006400630015
BI00B32CJ    JQN202B        202201217116-5044-02             TERMINAL                 CCN000112000000112000FN00000000020220201000112000NNE   20220105171813    4P0P  00001600000000641600000986332CJ    QNYHVQN 006400630017
BI00B32CJ    JQN202B        202201217116-6041                TERMINAL                 CCN000004500000004500FN00000000020220201000004500NNE   20220105171813    4P0P  00000450000000716000001009632CJ    QNYHVQN 006400630015
BI00B32CJ    JQN202B        202201217116-6042                TERMINAL                 CCN000003000000003000FN00000000020220201000003000NNE   20220105171813    4P0P  00000300000000523800000856132CJ    QNYHVQN 006400630015
BI00B32CJ    JQN202B        202201217126-8853-02             TERMINAL                 CCN000022500000022500FN00000000020220201000022500NNE   20220105171813    4P0P  00000750000000562500000847732CJ    QNYHVQN 006400630015
BI00B32CJ    JQN202B        202201217158-3165-90             WIRE SEAL                CCN000200000000200000FN00000000020220201000200000NNE   20220105171813    1C0C  00004000000000124000000172432CJ    QNYHVQN 004300270014
BI00B32CJ    JQN202B        202201217158-3167-80             WIRE SEAL                CCN000040000000040000FN00000000020220201000040000NNE   20220105171813    1C0C  00002000000000048000000109032CJ    QNYHVQN 002700430014
BI00B32CJ    JQN202B        202201217196-1103-02             TERMINAL                 CCN000045000000045000FN00000000020220201000045000NNE   20220105171813    4P0P  00002250000000429800000715032CJ    QNYHVQN 006400630015
BI00B32CJ    JQN202B        202201217196-1104-02             TERMINAL                 CCN000022500000022500FN00000000020220201000022500NNE   20220105171813    4P0P  00002250000000441000000726232CJ    QNYHVQN 006400630015
BI00B32CJ    JQN202B        202201217282-4578                HOUSING MALE ASS'Y       CCN000003600000003600FN00000000020220201000003600NNE   20220105171813    4N0N  00000120000000782600000992632CJ    QNYHVQN 005500360039
BI00B32CJ    JQN202B        202201217283-4854-40             CONNECTOR HOUSING        CCN000004800000004800FN00000000020220201000004800NNE   20220105171813    4N0N  00000240000000694100000914132CJ    QNYHVQN 005500360039
BI00B32CJ    JQN202B        202201217283-5845                CONNECTOR HOUSING        CCN000006000000006000FN00000000020220201000006000NNE   20220105171813    1N0N  00000600000000444000000606332CJ    QNYHVQN 005400370024
BI00B32CJ    JQN202B        202201217287-3885                HYBRID FEMALE ASS'Y      CCN000002400000002400FN00000000020220201000002400NNE   20220105171813    1N0N  00000240000001029600001249632CJ    QNYHVQN 005500360039
BI00B32CJ    JQN202B        202201217287-8642-40             HOUSING FEMALE ASS'Y     CCN000005600000005600FN00000000020220201000005600NNE   20220105171813    4N0N  00000280000000915600001107632CJ    QNYHVQN 005400370024
BI00B32CJ    JQN202B        202201217289-3342                HOUSING FEMALE ASS'Y     CCN000002400000002400FN00000000020220201000002400NNE   20220105171813    1N0N  00000240000000686400000901432CJ    QNYHVQN 005500360039
BI00B32CJ    JQN202B        202201217388-0314                CONNECTOR ASS'Y          CCN000024000000024000FN00000000020220201000024000NNE   20220105171813    4N0N  00000120000001038000001132332CJ    QNYHVQN 005400370024
BI00B32CJ    #JQN202B       202201217047-5654-30             CLIP                     CCN000010000000010000FN00000000020220201000010000NNE   20220105171813    2F0F  00000500000000657000000825332CJ    QNYHVQN 005500360039
BI00B32CJ    #JQN202B       202201217158-3015-10             RUBBER STOPPER           CCN000010000000010000FN00000000020220201000010000NNE   20220105171813    2C0C  00001000000000419500000474032CJ    QNYHVQN 002700430014
BI00B32CJ    #JQN202B       202201217158-3120-90             CONNECTOR WIRE SEAL      CCN000080000000080000FN00000000020220201000080000NNE   20220105171813    2C0C  00002000000000136000000194032CJ    QNYHVQN 002700430014
BI00B32CJ    #JQN202B       202201217158-3121-80             WIRE SEAL                CCN000040000000040000FN00000000020220201000040000NNE   20220105171813    2C0C  00002000000000118000000187332CJ    QNYHVQN 002700430014
BI00B32CJ    #JQN202B       202201217172-5630-40             RUBBER STOPPER           CCN000020000000020000FN00000000020220201000020000NNE   20220105171813    2H0H  00002000000000044000000095132CJ    QNYHVQN 004300270014
BI00B32CJ    #JQN202B       202201217183-2413                CONNECTOR HOUSING        CCN000019200000019200FN00000000020220201000019200NNE   20220105171813    2F0F  00000480000000478100000760032CJ    QNYHVQN 005500360039
BI00B32CJ    #JQN202B       202201217183-2413-30             CONNECTOR HOUSING        CCN000004800000004800FN00000000020220201000004800NNE   20220105171813    2F0F  00000480000000477600000759532CJ    QNYHVQN 005500360039
BI00B32CJ    #JQN202B       202201217183-8251-40             HOUSING                  CCN000004800000004800FN00000000020220201000004800NNE   20220105171813    2F0F  00000240000000357600000640032CJ    QNYHVQN 005500360039
BI00B32CJ    #JQN202B       202201217187-8856-60             HLC HOUSING FEMALE       CCN000012000000012000FN00000000020220201000012000NNE   20220105171813    2F0F  00000200000000820000000931532CJ    QNYHVQN 005400370024
BI00B32CJ    #JQN202B       202201217189-0149                HLC HOUSING FEMALE       CCN000002000000002000FN00000000020220201000002000NNE   20220105171813    2F0F  00000200000000970000001078532CJ    QNYHVQN 005400370024
BI00B32CJ    #JQN202B       202201217282-1210                CONNECTOR MALE ASS'Y     CCN000002000000002000FN00000000020220201000002000NNE   20220105171813    2N0N  00000100000000336000000458532CJ    QNYHVQN 005400370024
BI00B32CJ    #JQN202B       202201217282-5528-70             HOUSING MALE ASS'Y       CCN000015000000015000FN00000000020220201000015000NNE   20220105171813    2N0N  00000100000000230000000339032CJ    QNYHVQN 005400370024
BI00B32CJ    #JQN202B       202201217287-1669                HOUSING FEMALE ASS'Y     CCN000010000000010000FN00000000020220201000010000NNE   20220105171813    2N0N  00000200000000788800000980832CJ    QNYHVQN 005400370024
BI00B32CJ    #JQN202B       202201217287-1670                HOUSING FEMALE ASS'Y     CCN000011200000011200FN00000000020220201000011200NNE   20220105171813    2N0N  00000280000000953100001145132CJ    QNYHVQN 005400370024
BI00B32CJ    #JQN202B       202201217287-1671                HOUSING FEMALE ASS'Y     CCN000010000000010000FN00000000020220201000010000NNE   20220105171813    2N0N  00000200000000782600000974632CJ    QNYHVQN 005400370024
BI00B32CJ    #JQN202B       202201217287-1674                HYBRID FEMALE ASS'Y      CCN000012000000012000FN00000000020220201000012000NNE   20220105171813    2N0N  00000200000000810800001002832CJ    QNYHVQN 005400370024
BI00B32CJ    #JQN202B       202201217287-8860                HOUSING FEMALE ASS'Y     CCN000006400000006400FN00000000020220201000006400NNE   20220105171813    2N0N  00000160000000693400000853432CJ    QNYHVQN 005400370024
BI00B32CJ    JQN202C        202201287017-1183-02             TERMINAL                 CCN000027000000027000FN00000000020220201000027000NNE   20220105171813    4P0P  00002700000001139400001307432CJ    QNYHVQN 005100280028
BI00B32CJ    JQN202C        202201287116-1180                TERMINAL                 CCN000019500000019500FN00000000020220201000019500NNE   20220105171813    1P0P  00001950000000618200000903432CJ    QNYHVQN 006400630015
BI00B32CJ    JQN202C        202201287116-4031                TERMINAL                 CCN000007500000007500FN00000000020220201000007500NNE   20220105171813    4P0P  00000750000000619500000904732CJ    QNYHVQN 006400630015
BI00B32CJ    JQN202C        202201287116-5042-02             TERMINAL                 CCN000027000000027000FN00000000020220201000027000NNE   20220105171813    4P0P  00001350000000560300000845532CJ    QNYHVQN 006400630015
BI00B32CJ    #JQN202C       202201287282-5528-70             HOUSING MALE ASS'Y       CCN000015000000015000FN00000000020220201000015000NNE   20220105171813    2N0N  00000100000000230000000339032CJ    QNYHVQN 005400370024
BI00B32CJ    #JQN202C       202201287287-1669                HOUSING FEMALE ASS'Y     CCN000010000000010000FN00000000020220201000010000NNE   20220105171813    2N0N  00000200000000788800000980832CJ    QNYHVQN 005400370024
BI00B32CJ    #JQN202C       202201287287-1670                HOUSING FEMALE ASS'Y     CCN000011200000011200FN00000000020220201000011200NNE   20220105171813    2N0N  00000280000000953100001145132CJ    QNYHVQN 005400370024
BI00B32CJ    #JQN202C       202201287287-1671                HOUSING FEMALE ASS'Y     CCN000010000000010000FN00000000020220201000010000NNE   20220105171813    2N0N  00000200000000782600000974632CJ    QNYHVQN 005400370024
BI00B32CJ    #JQN202C       202201287287-1674                HYBRID FEMALE ASS'Y      CCN000010000000010000FN00000000020220201000010000NNE   20220105171813    2N0N  00000200000000810800001002832CJ    QNYHVQN 005400370024
BI00B32DA    SBT2203        202206027289-3342-30             HOUSING FEMALE ASS'Y     CCN000079200000079200FN00000000020220301000079200NNMD0420220105171813    1N0N  00000240000000686400000901432DA    GBYIPLGB005500360039
BI00B32DA    SBT2203A       202206307289-3342-30             HOUSING FEMALE ASS'Y     CCN000019200000019200FN00000000020220301000019200NNMD0420220105171813    1N0N  00000240000000686400000901432DA    GBYIPLGB005500360039
BI00A32DG    #RL2013        202201177282-5845                HOUSING MALE ASS'Y       PCN000004000000004000FN00000000020210101000004000NNM00020220105171813    2N0N  00000400000001068000001178032DG    BFSAIBF 005400370024
BI00B32DG    RP2031         202202107017-1183-02             TERMINAL                 CCN000027000000027000FN00000000020220301000027000NNM   20220105171813    4P0P  00002700000001139400001307432DG    BFSAIBF 005100280028
BI00B32DG    RP2031         202202107114-4020                TERMINAL                 CCN000042000000042000FN00000000020220301000042000NNM   20220105171813    4P0P  00002100000000875700001169332DG    BFSAIBF 006400630015
BI00B32DG    RP2032         202202177114-4020                TERMINAL                 CCN000042000000042000FN00000000020220301000042000NNM   20220105171813    4P0P  00002100000000875700001169332DG    BFSAIBF 006400630015
BI00B32DG    RP2033         202202247114-4020                TERMINAL                 CCN000042000000042000FN00000000020220301000042000NNM   20220105171813    4P0P  00002100000000875700001169332DG    BFSAIBF 006400630015
BI00B32DG    RP2034         202203037114-4020                TERMINAL                 CCN000042000000042000FN00000000020220301000042000NNM   20220105171813    4P0P  00002100000000875700001169332DG    BFSAIBF 006400630015
BI00B32DG    RP2031         202202107114-4021                TERMINAL                 CCN000030000000030000FN00000000020220301000030000NNM   20220105171813    4P0P  00001500000000670500000964132DG    BFSAIBF 006400630015
BI00B32DG    RP2032         202202177114-4021                TERMINAL                 CCN000030000000030000FN00000000020220301000030000NNM   20220105171813    4P0P  00001500000000670500000964132DG    BFSAIBF 006400630015
BI00B32DG    RP2033         202202247114-4021                TERMINAL                 CCN000030000000030000FN00000000020220301000030000NNM   20220105171813    4P0P  00001500000000670500000964132DG    BFSAIBF 006400630015
BI00B32DG    RP2034         202203037114-4021                TERMINAL                 CCN000030000000030000FN00000000020220301000030000NNM   20220105171813    4P0P  00001500000000670500000964132DG    BFSAIBF 006400630015
BI00B32DG    RP2031         202202107114-4032                TERMINAL                 CCN000007500000007500FN00000000020220301000007500NNM   20220105171813    4P0P  00000750000000735000001063632DG    BFSAIBF 006400630017
BI00B32DG    RP2032         202202177114-4032                TERMINAL                 CCN000007500000007500FN00000000020220301000007500NNM   20220105171813    4P0P  00000750000000735000001063632DG    BFSAIBF 006400630017
BI00B32DG    RP2033         202202247114-4032                TERMINAL                 CCN000007500000007500FN00000000020220301000007500NNM   20220105171813    4P0P  00000750000000735000001063632DG    BFSAIBF 006400630017
BI00B32DG    RP2034         202203037114-4032                TERMINAL                 CCN000007500000007500FN00000000020220301000007500NNM   20220105171813    4P0P  00000750000000735000001063632DG    BFSAIBF 006400630017
BI00B32DG    RP2031         202202107114-4231-02             TERMINAL                 CCN000054000000054000FN00000000020220301000054000NNM   20220105171813    4P0P  00001800000000554400000848032DG    BFSAIBF 006400630015
BI00B32DG    RP2032         202202177114-4231-02             TERMINAL                 CCN000054000000054000FN00000000020220301000054000NNM   20220105171813    4P0P  00001800000000554400000848032DG    BFSAIBF 006400630015
BI00B32DG    RP2033         202202247114-4231-02             TERMINAL                 CCN000054000000054000FN00000000020220301000054000NNM   20220105171813    4P0P  00001800000000554400000848032DG    BFSAIBF 006400630015
BI00B32DG    RP2034         202203037114-4231-02             TERMINAL                 CCN000054000000054000FN00000000020220301000054000NNM   20220105171813    4P0P  00001800000000554400000848032DG    BFSAIBF 006400630015
BI00B32DG    RP2031         202202107114-4486-02             TERMINAL                 CCN000024000000024000FN00000000020220301000024000NNM   20220105171813    4P0P  00002400000000662400000956032DG    BFSAIBF 006400630015
BI00B32DG    RP2031         202202107114-4624-02             TERMINAL                 CCN000048000000048000FN00000000020220301000048000NNM   20220105171813    4P0P  00002400000000895200001188832DG    BFSAIBF 006400630015
BI00B32DG    RP2032         202202177114-4624-02             TERMINAL                 CCN000048000000048000FN00000000020220301000048000NNM   20220105171813    4P0P  00002400000000895200001188832DG    BFSAIBF 006400630015
BI00B32DG    RP2033         202202247114-4624-02             TERMINAL                 CCN000024000000024000FN00000000020220301000024000NNM   20220105171813    4P0P  00002400000000895200001188832DG    BFSAIBF 006400630015
BI00B32DG    RP2031         202202107114-4728-02             TERMINAL                 CCN000420000000420000FN00000000020220301000420000NNM   20220105171813    4P0P  00003000000000510000000804232DG    BFSAIBF 006400630015
BI00B32DG    RP2032         202202177114-4728-02             TERMINAL                 CCN000420000000420000FN00000000020220301000420000NNM   20220105171813    4P0P  00003000000000510000000804232DG    BFSAIBF 006400630015
BI00B32DG    RP2033         202202247114-4728-02             TERMINAL                 CCN000420000000420000FN00000000020220301000420000NNM   20220105171813    4P0P  00003000000000510000000804232DG    BFSAIBF 006400630015
BI00B32DG    RP2034         202203037114-4728-02             TERMINAL                 CCN000330000000330000FN00000000020220301000330000NNM   20220105171813    4P0P  00003000000000510000000804232DG    BFSAIBF 006400630015
BI00B32DG    RP2031         202202107114-4729-02             TERMINAL                 CCN000060000000060000FN00000000020220301000060000NNM   20220105171813    4P0P  00003000000000516000000810232DG    BFSAIBF 006400630015
BI00B32DG    RP2032         202202177114-4729-02             TERMINAL                 CCN000060000000060000FN00000000020220301000060000NNM   20220105171813    4P0P  00003000000000516000000810232DG    BFSAIBF 006400630015
BI00B32DG    RP2033         202202247114-4729-02             TERMINAL                 CCN000030000000030000FN00000000020220301000030000NNM   20220105171813    4P0P  00003000000000516000000810232DG    BFSAIBF 006400630015
BI00B32DG    RP2031         202202107114-5746-02             TERMINAL                 CCN000084000000084000FN00000000020220301000084000NNM   20220105171813    4P0P  00002100000000695100000988732DG    BFSAIBF 006400630015
BI00B32DG    RP2032         202202177114-5746-02             TERMINAL                 CCN000084000000084000FN00000000020220301000084000NNM   20220105171813    4P0P  00002100000000695100000988732DG    BFSAIBF 006400630015
BI00B32DG    RP2033         202202247114-5746-02             TERMINAL                 CCN000084000000084000FN00000000020220301000084000NNM   20220105171813    4P0P  00002100000000695100000988732DG    BFSAIBF 006400630015
BI00B32DG    RP2034         202203037114-5746-02             TERMINAL                 CCN000042000000042000FN00000000020220301000042000NNM   20220105171813    4P0P  00002100000000695100000988732DG    BFSAIBF 006400630015
BI00B32DG    RP2031         202202107114-5747-02             TERMINAL                 CCN000144000000144000FN00000000020220301000144000NNM   20220105171813    4P0P  00001800000000626400000920032DG    BFSAIBF 006400630015
BI00B32DG    RP2032         202202177114-5747-02             TERMINAL                 CCN000144000000144000FN00000000020220301000144000NNM   20220105171813    4P0P  00001800000000626400000920032DG    BFSAIBF 006400630015
BI00B32DG    RP2033         202202247114-5747-02             TERMINAL                 CCN000144000000144000FN00000000020220301000144000NNM   20220105171813    4P0P  00001800000000626400000920032DG    BFSAIBF 006400630015
BI00B32DG    RP2034         202203037114-5747-02             TERMINAL                 CCN000144000000144000FN00000000020220301000144000NNM   20220105171813    4P0P  00001800000000626400000920032DG    BFSAIBF 006400630015
BI00B32DG    RP2031         202202107114-5748-02             TERMINAL                 CCN000024000000024000FN00000000020220301000024000NNM   20220105171813    4P0P  00001200000000444000000737632DG    BFSAIBF 006400630015
BI00B32DG    RP2032         202202177114-5748-02             TERMINAL                 CCN000024000000024000FN00000000020220301000024000NNM   20220105171813    4P0P  00001200000000444000000737632DG    BFSAIBF 006400630015
BI00B32DG    RP2033         202202247114-5748-02             TERMINAL                 CCN000012000000012000FN00000000020220301000012000NNM   20220105171813    4P0P  00001200000000444000000737632DG    BFSAIBF 006400630015
BI00B32DG    RP2031         202202107114-5753-02             TERMINAL                 CCN000108000000108000FN00000000020220301000108000NNM   20220105171813    4P0P  00002700000000847800001141432DG    BFSAIBF 006400630015
BI00B32DG    RP2032         202202177114-5753-02             TERMINAL                 CCN000108000000108000FN00000000020220301000108000NNM   20220105171813    4P0P  00002700000000847800001141432DG    BFSAIBF 006400630015
BI00B32DG    RP2033         202202247114-5753-02             TERMINAL                 CCN000108000000108000FN00000000020220301000108000NNM   20220105171813    4P0P  00002700000000847800001141432DG    BFSAIBF 006400630015
BI00B32DG    RP2034         202203037114-5753-02             TERMINAL                 CCN000027000000027000FN00000000020220301000027000NNM   20220105171813    4P0P  00002700000000847800001141432DG    BFSAIBF 006400630015
BI00B32DG    RP2031         202202107116-4020                TERMINAL                 CCN000027000000027000FN00000000020220301000027000NNM   20220105171813    4P0P  00001350000000513000000798232DG    BFSAIBF 006400630015
BI00B32DG    RP2032         202202177116-4020                TERMINAL                 CCN000027000000027000FN00000000020220301000027000NNM   20220105171813    4P0P  00001350000000513000000798232DG    BFSAIBF 006400630015
BI00B32DG    RP2033         202202247116-4020                TERMINAL                 CCN000027000000027000FN00000000020220301000027000NNM   20220105171813    4P0P  00001350000000513000000798232DG    BFSAIBF 006400630015
BI00B32DG    RP2034         202203037116-4020                TERMINAL                 CCN000027000000027000FN00000000020220301000027000NNM   20220105171813    4P0P  00001350000000513000000798232DG    BFSAIBF 006400630015
BI00B32DG    RP2031         202202107116-4025                TERMINAL                 CCN000032000000032000FN00000000020220301000032000NNM   20220105171813    4P0P  00001600000000644800000975132DG    BFSAIBF 006400630017
BI00B32DG    RP2032         202202177116-4025                TERMINAL                 CCN000032000000032000FN00000000020220301000032000NNM   20220105171813    4P0P  00001600000000644800000975132DG    BFSAIBF 006400630017
BI00B32DG    RP2033         202202247116-4025                TERMINAL                 CCN000032000000032000FN00000000020220301000032000NNM   20220105171813    4P0P  00001600000000644800000975132DG    BFSAIBF 006400630017
BI00B32DG    RP2031         202202107116-4026                TERMINAL                 CCN000016000000016000FN00000000020220301000016000NNM   20220105171813    4P0P  00001600000000664000000994332DG    BFSAIBF 006400630017
BI00B32DG    RP2031         202202107116-4032                TERMINAL                 CCN000018000000018000FN00000000020220301000018000NNM   20220105171813    4P0P  00000600000000532800000818032DG    BFSAIBF 006400630015
BI00B32DG    RP2032         202202177116-4032                TERMINAL                 CCN000018000000018000FN00000000020220301000018000NNM   20220105171813    4P0P  00000600000000532800000818032DG    BFSAIBF 006400630015
BI00B32DG    RP2033         202202247116-4032                TERMINAL                 CCN000018000000018000FN00000000020220301000018000NNM   20220105171813    4P0P  00000600000000532800000818032DG    BFSAIBF 006400630015
BI00B32DG    RP2034         202203037116-4032                TERMINAL                 CCN000018000000018000FN00000000020220301000018000NNM   20220105171813    4P0P  00000600000000532800000818032DG    BFSAIBF 006400630015
BI00B32DG    RP2031         202202107116-4231-02             TERMINAL                 CCN000234000000234000FN00000000020220301000234000NNM   20220105171813    4P0P  00002600000000683800001012532DG    BFSAIBF 006400630017
BI00B32DG    RP2032         202202177116-4231-02             TERMINAL                 CCN000234000000234000FN00000000020220301000234000NNM   20220105171813    4P0P  00002600000000683800001012532DG    BFSAIBF 006400630017
BI00B32DG    RP2033         202202247116-4231-02             TERMINAL                 CCN000234000000234000FN00000000020220301000234000NNM   20220105171813    4P0P  00002600000000683800001012532DG    BFSAIBF 006400630017
BI00B32DG    RP2034         202203037116-4231-02             TERMINAL                 CCN000156000000156000FN00000000020220301000156000NNM   20220105171813    4P0P  00002600000000683800001012532DG    BFSAIBF 006400630017
BI00B32DG    RP2031         202202107116-4486-02             TERMINAL                 CCN000336000000336000FN00000000020220301000336000NNM   20220105171813    4P0P  00002800000000666400000995132DG    BFSAIBF 006400630017
BI00B32DG    RP2032         202202177116-4486-02             TERMINAL                 CCN000336000000336000FN00000000020220301000336000NNM   20220105171813    4P0P  00002800000000666400000995132DG    BFSAIBF 006400630017
BI00B32DG    RP2033         202202247116-4486-02             TERMINAL                 CCN000336000000336000FN00000000020220301000336000NNM   20220105171813    4P0P  00002800000000666400000995132DG    BFSAIBF 006400630017
BI00B32DG    RP2034         202203037116-4486-02             TERMINAL                 CCN000336000000336000FN00000000020220301000336000NNM   20220105171813    4P0P  00002800000000666400000995132DG    BFSAIBF 006400630017
BI00B32DG    RP2031         202202107116-5035-02             TERMINAL                 CCN000075000000075000FN00000000020220301000075000NNM   20220105171813    4P0P  00001500000000543000000828232DG    BFSAIBF 006400630015
BI00B32DG    RP2032         202202177116-5035-02             TERMINAL                 CCN000075000000075000FN00000000020220301000075000NNM   20220105171813    4P0P  00001500000000543000000828232DG    BFSAIBF 006400630015
BI00B32DG    RP2033         202202247116-5035-02             TERMINAL                 CCN000075000000075000FN00000000020220301000075000NNM   20220105171813    4P0P  00001500000000543000000828232DG    BFSAIBF 006400630015
BI00B32DG    RP2034         202203037116-5035-02             TERMINAL                 CCN000075000000075000FN00000000020220301000075000NNM   20220105171813    4P0P  00001500000000543000000828232DG    BFSAIBF 006400630015
BI00B32DG    RP2031         202202107116-5036-02             TERMINAL                 CCN000013500000013500FN00000000020220301000013500NNM   20220105171813    4P0P  00001350000000618300001042232DG    BFSAIBF 006400630015
BI00B32DG    RP2031         202202107116-5041-02             TERMINAL                 CCN000030000000030000FN00000000020220301000030000NNM   20220105171813    4P0P  00001500000000583500000868732DG    BFSAIBF 006400630015
BI00B32DG    RP2032         202202177116-5041-02             TERMINAL                 CCN000030000000030000FN00000000020220301000030000NNM   20220105171813    4P0P  00001500000000583500000868732DG    BFSAIBF 006400630015
BI00B32DG    RP2033         202202247116-5041-02             TERMINAL                 CCN000015000000015000FN00000000020220301000015000NNM   20220105171813    4P0P  00001500000000583500000868732DG    BFSAIBF 006400630015
BI00B32DG    RP2031         202202107116-5042-02             TERMINAL                 CCN000216000000216000FN00000000020220301000216000NNM   20220105171813    4P0P  00001350000000560300000845532DG    BFSAIBF 006400630015
BI00B32DG    RP2032         202202177116-5042-02             TERMINAL                 CCN000216000000216000FN00000000020220301000216000NNM   20220105171813    4P0P  00001350000000560300000845532DG    BFSAIBF 006400630015
BI00B32DG    RP2033         202202247116-5042-02             TERMINAL                 CCN000216000000216000FN00000000020220301000216000NNM   20220105171813    4P0P  00001350000000560300000845532DG    BFSAIBF 006400630015
BI00B32DG    RP2034         202203037116-5042-02             TERMINAL                 CCN000175500000175500FN00000000020220301000175500NNM   20220105171813    4P0P  00001350000000560300000845532DG    BFSAIBF 006400630015
BI00B32DG    RP2031         202202107116-5044-02             TERMINAL                 CCN000176000000176000FN00000000020220301000176000NNM   20220105171813    4P0P  00001600000000641600000986332DG    BFSAIBF 006400630017
BI00B32DG    RP2032         202202177116-5044-02             TERMINAL                 CCN000176000000176000FN00000000020220301000176000NNM   20220105171813    4P0P  00001600000000641600000986332DG    BFSAIBF 006400630017
BI00B32DG    RP2033         202202247116-5044-02             TERMINAL                 CCN000176000000176000FN00000000020220301000176000NNM   20220105171813    4P0P  00001600000000641600000986332DG    BFSAIBF 006400630017
BI00B32DG    RP2034         202203037116-5044-02             TERMINAL                 CCN000128000000128000FN00000000020220301000128000NNM   20220105171813    4P0P  00001600000000641600000986332DG    BFSAIBF 006400630017
BI00B32DG    RP2031         202202107116-5045-02             TERMINAL                 CCN000112000000112000FN00000000020220301000112000NNM   20220105171813    4P0P  00001600000000678400001007132DG    BFSAIBF 006400630017
BI00B32DG    RP2032         202202177116-5045-02             TERMINAL                 CCN000112000000112000FN00000000020220301000112000NNM   20220105171813    4P0P  00001600000000678400001007132DG    BFSAIBF 006400630017
BI00B32DG    RP2033         202202247116-5045-02             TERMINAL                 CCN000112000000112000FN00000000020220301000112000NNM   20220105171813    4P0P  00001600000000678400001007132DG    BFSAIBF 006400630017
BI00B32DG    RP2034         202203037116-5045-02             TERMINAL                 CCN000064000000064000FN00000000020220301000064000NNM   20220105171813    4P0P  00001600000000678400001007132DG    BFSAIBF 006400630017
BI00B32DG    RP2031         202202107116-5046-02             TERMINAL                 CCN000036000000036000FN00000000020220301000036000NNM   20220105171813    4P0P  00001200000000544800000873532DG    BFSAIBF 006400630017
BI00B32DG    RP2032         202202177116-5046-02             TERMINAL                 CCN000036000000036000FN00000000020220301000036000NNM   20220105171813    4P0P  00001200000000544800000873532DG    BFSAIBF 006400630017
BI00B32DG    RP2033         202202247116-5046-02             TERMINAL                 CCN000036000000036000FN00000000020220301000036000NNM   20220105171813    4P0P  00001200000000544800000873532DG    BFSAIBF 006400630017
BI00B32DG    RP2034         202203037116-5046-02             TERMINAL                 CCN000036000000036000FN00000000020220301000036000NNM   20220105171813    4P0P  00001200000000544800000873532DG    BFSAIBF 006400630017
BI00B32DG    RP2031         202202107158-3006-90             RUBBER STOPPER           CCN000120000000120000FN00000000020220301000120000NNM   20220105171813    1C0C  00002000000000330600000386032DG    BFSAIBF 002700430014
BI00B32DG    RP2032         202202177158-3006-90             RUBBER STOPPER           CCN000120000000120000FN00000000020220301000120000NNM   20220105171813    1C0C  00002000000000330600000386032DG    BFSAIBF 002700430014
BI00B32DG    RP2033         202202247158-3006-90             RUBBER STOPPER           CCN000120000000120000FN00000000020220301000120000NNM   20220105171813    1C0C  00002000000000330600000386032DG    BFSAIBF 002700430014
BI00B32DG    RP2034         202203037158-3006-90             RUBBER STOPPER           CCN000120000000120000FN00000000020220301000120000NNM   20220105171813    1C0C  00002000000000330600000386032DG    BFSAIBF 002700430014
BI00B32DG    RP2031         202202107116-5750-02             TERMINAL                 CCN000090000000090000FN00000000020220301000090000NNM   20220105171813    4P0P  00001500000000457500000742732DG    BFSAIBF 006400630015
BI00B32DG    RP2032         202202177116-5750-02             TERMINAL                 CCN000090000000090000FN00000000020220301000090000NNM   20220105171813    4P0P  00001500000000457500000742732DG    BFSAIBF 006400630015
BI00B32DG    RP2033         202202247116-5750-02             TERMINAL                 CCN000090000000090000FN00000000020220301000090000NNM   20220105171813    4P0P  00001500000000457500000742732DG    BFSAIBF 006400630015
BI00B32DG    RP2034         202203037116-5750-02             TERMINAL                 CCN000090000000090000FN00000000020220301000090000NNM   20220105171813    4P0P  00001500000000457500000742732DG    BFSAIBF 006400630015
BI00B32DG    RP2031         202202107116-5751-02             TERMINAL                 CCN000036000000036000FN00000000020220301000036000NNM   20220105171813    4P0P  00001200000000379200000664432DG    BFSAIBF 006400630015
BI00B32DG    RP2032         202202177116-5751-02             TERMINAL                 CCN000036000000036000FN00000000020220301000036000NNM   20220105171813    4P0P  00001200000000379200000664432DG    BFSAIBF 006400630015
BI00B32DG    RP2033         202202247116-5751-02             TERMINAL                 CCN000036000000036000FN00000000020220301000036000NNM   20220105171813    4P0P  00001200000000379200000664432DG    BFSAIBF 006400630015
BI00B32DG    RP2034         202203037116-5751-02             TERMINAL                 CCN000012000000012000FN00000000020220301000012000NNM   20220105171813    4P0P  00001200000000379200000664432DG    BFSAIBF 006400630015
BI00B32DG    RP2031         202202107283-1156                CONNECTOR                CCN000000800000000800FN00000000020220301000000800NNM   20220105171813    4N0N  00000080000000877600001078032DG    BFSAIBF 005600390040
BI00B32DG    RP2032         202202177283-1156                CONNECTOR                CCN000000800000000800FN00000000020220301000000800NNM   20220105171813    4N0N  00000080000000877600001078032DG    BFSAIBF 005600390040
BI00B32DG    RP2033         202202247283-1156                CONNECTOR                CCN000000800000000800FN00000000020220301000000800NNM   20220105171813    4N0N  00000080000000877600001078032DG    BFSAIBF 005600390040
BI00B32DG    RP2034         202203037283-1156                CONNECTOR                CCN000000800000000800FN00000000020220301000000800NNM   20220105171813    4N0N  00000080000000877600001078032DG    BFSAIBF 005600390040
BI00B32DG    RP2031         202202107287-9234                JOINT CONNECTOR          CCN000019200000019200FN00000000020220301000019200NNM   20220105171813    4N0N  00000960000000893800001184832DG    BFSAIBF 005500360039
BI00B32DG    RP2032         202202177287-9234                JOINT CONNECTOR          CCN000019200000019200FN00000000020220301000019200NNM   20220105171813    4N0N  00000960000000893800001184832DG    BFSAIBF 005500360039
BI00B32DG    RP2033         202202247287-9234                JOINT CONNECTOR          CCN000019200000019200FN00000000020220301000019200NNM   20220105171813    4N0N  00000960000000893800001184832DG    BFSAIBF 005500360039
BI00B32DG    RP2034         202203037287-9234                JOINT CONNECTOR          CCN000009600000009600FN00000000020220301000009600NNM   20220105171813    4N0N  00000960000000893800001184832DG    BFSAIBF 005500360039
BI00B32DG    RP2031         202202107114-5096-02             TERMINAL                 CCN000030000000030000FN00000000020220301000030000NNM   20220105171813    4P0P  00003000000000498000000792232DG    BFSAIBF 006400630015
BI00B32DG    RP2031         202202107288-3329-30             HOUSING MALE             CCN000004500000004500FN00000000020220301000004500NNM   20220105171813    4N0N  00000150000000866100001011132DG    BFSAIBF 005400370024
BI00B32DG    RP2032         202202177288-3329-30             HOUSING MALE             CCN000004500000004500FN00000000020220301000004500NNM   20220105171813    4N0N  00000150000000866100001011132DG    BFSAIBF 005400370024
BI00B32DG    RP2033         202202247288-3329-30             HOUSING MALE             CCN000004500000004500FN00000000020220301000004500NNM   20220105171813    4N0N  00000150000000866100001011132DG    BFSAIBF 005400370024
BI00B32DG    RP2031         202202107289-3342-30             HOUSING FEMALE ASS'Y     CCN000009600000009600FN00000000020220301000009600NNM   20220105171813    1N0N  00000240000000686400000901432DG    BFSAIBF 005500360039
BI00B32DG    RP2032         202202177289-3342-30             HOUSING FEMALE ASS'Y     CCN000009600000009600FN00000000020220301000009600NNM   20220105171813    1N0N  00000240000000686400000901432DG    BFSAIBF 005500360039
BI00B32DG    RP2033         202202247289-3342-30             HOUSING FEMALE ASS'Y     CCN000009600000009600FN00000000020220301000009600NNM   20220105171813    1N0N  00000240000000686400000901432DG    BFSAIBF 005500360039
BI00B32DG    RP2034         202203037289-3342-30             HOUSING FEMALE ASS'Y     CCN000004800000004800FN00000000020220301000004800NNM   20220105171813    1N0N  00000240000000686400000901432DG    BFSAIBF 005500360039
BI00B32DG    RP2031         202202107158-3009-60             RUBBER STOPPER           CCN000100000000100000FN00000000020220301000100000NNM   20220105171813    1C0C  00002000000000338000000386232DG    BFSAIBF 002700430014
BI00B32DG    RP2032         202202177158-3009-60             RUBBER STOPPER           CCN000100000000100000FN00000000020220301000100000NNM   20220105171813    1C0C  00002000000000338000000386232DG    BFSAIBF 002700430014
BI00B32DG    RP2033         202202247158-3009-60             RUBBER STOPPER           CCN000100000000100000FN00000000020220301000100000NNM   20220105171813    1C0C  00002000000000338000000386232DG    BFSAIBF 002700430014
BI00B32DG    RP2034         202203037158-3009-60             RUBBER STOPPER           CCN000080000000080000FN00000000020220301000080000NNM   20220105171813    1C0C  00002000000000338000000386232DG    BFSAIBF 002700430014
BI00B32DG    RP2031         202202107283-4576                HOUSING FEMALE ASS'Y     CCN000004800000004800FN00000000020220301000004800NNM   20220105171813    4N0N  00000480000000651300000871332DG    BFSAIBF 005500360039
BI00B32DG    RP2032         202202177283-4576                HOUSING FEMALE ASS'Y     CCN000004800000004800FN00000000020220301000004800NNM   20220105171813    4N0N  00000480000000651300000871332DG    BFSAIBF 005500360039
BI00B32DG    RP2031         202202107116-4415-02             TERMINAL                 CCN000076000000076000FN00000000020220301000076000NNM   20220105171813    4P0P  00003800000000596600000925732DG    BFSAIBF 006400630017
BI00B32DG    RP2032         202202177116-4415-02             TERMINAL                 CCN000076000000076000FN00000000020220301000076000NNM   20220105171813    4P0P  00003800000000596600000925732DG    BFSAIBF 006400630017
BI00B32DG    RP2033         202202247116-4415-02             TERMINAL                 CCN000076000000076000FN00000000020220301000076000NNM   20220105171813    4P0P  00003800000000596600000925732DG    BFSAIBF 006400630017
BI00B32DG    RP2034         202203037116-4415-02             TERMINAL                 CCN000076000000076000FN00000000020220301000076000NNM   20220105171813    4P0P  00003800000000596600000925732DG    BFSAIBF 006400630017
BI00B32DG    RP2031         202202107282-4576                HOUSING MALE ASS'Y       CCN000002400000002400FN00000000020220301000002400NNM   20220105171813    4N0N  00000240000000808800001028832DG    BFSAIBF 005500360039
BI00B32DG    RP2031         202202107283-5845-40             CONNECTOR HOUSING        CCN000006000000006000FN00000000020220301000006000NNM   20220105171813    1N0N  00000600000000444000000606332DG    BFSAIBF 005400370024
BI00B32DG    RP2031         202202107282-4577                HOUSING MALE ASS'Y       CCN000002400000002400FN00000000020220301000002400NNM   20220105171813    4N0N  00000240000000964800001174832DG    BFSAIBF 005500360039
BI00B32DG    RP2031         202202107288-3339-30             HOUSING MALE             CCN000001500000001500FN00000000020220301000001500NNM   20220105171813    4N0N  00000150000000867000001012032DG    BFSAIBF 005400370024
BI00B32DG    RP2032         202202177288-3339-30             HOUSING MALE             CCN000001500000001500FN00000000020220301000001500NNM   20220105171813    4N0N  00000150000000867000001012032DG    BFSAIBF 005400370024
BI00B32DG    RP2031         202202107114-4729-08             TERMINAL                 CCN000030000000030000FN00000000020220301000030000NNM   20220105171813    4P0P  00003000000000522000000816232DG    BFSAIBF 006400630015
BI00B32DG    RP2031         202202107116-3154-08             TERMINAL                 CCN000054000000054000FN00000000020220301000054000NNM   20220105171813    4P0P  00002700000000475200000760432DG    BFSAIBF 006400630015
BI00B32DG    RP2032         202202177116-3154-08             TERMINAL                 CCN000054000000054000FN00000000020220301000054000NNM   20220105171813    4P0P  00002700000000475200000760432DG    BFSAIBF 006400630015
BI00B32DG    RP2033         202202247116-3154-08             TERMINAL                 CCN000054000000054000FN00000000020220301000054000NNM   20220105171813    4P0P  00002700000000475200000760432DG    BFSAIBF 006400630015
BI00B32DG    RP2034         202203037116-3154-08             TERMINAL                 CCN000027000000027000FN00000000020220301000027000NNM   20220105171813    4P0P  00002700000000475200000760432DG    BFSAIBF 006400630015
BI00B32DG    RP2031         202202107116-5752-02             TERMINAL                 CCN000021000000021000FN00000000020220301000021000NNM   20220105171813    4P0P  00002100000000571200000856432DG    BFSAIBF 006400630015
BI00B32DG    RP2032         202202177116-5752-02             TERMINAL                 CCN000021000000021000FN00000000020220301000021000NNM   20220105171813    4P0P  00002100000000571200000856432DG    BFSAIBF 006400630015
BI00B32DG    RP2031         202202107282-4578                HOUSING MALE ASS'Y       CCN000001200000001200FN00000000020220301000001200NNM   20220105171813    4N0N  00000120000000782600000992632DG    BFSAIBF 005500360039
BI00B32DG    RP2032         202202177282-4578                HOUSING MALE ASS'Y       CCN000001200000001200FN00000000020220301000001200NNM   20220105171813    4N0N  00000120000000782600000992632DG    BFSAIBF 005500360039
BI00B32DG    RP2033         202202247282-4578                HOUSING MALE ASS'Y       CCN000001200000001200FN00000000020220301000001200NNM   20220105171813    4N0N  00000120000000782600000992632DG    BFSAIBF 005500360039
BI00B32DG    RP2031         202202107286-1915                CONNECTOR SUB ASSY       CCN000001600000001600FN00000000020220301000001600NNM   20220105171813    4N0N  00000160000000965600001165632DG    BFSAIBF 005500360039
BI00B32DG    RP2032         202202177286-1915                CONNECTOR SUB ASSY       CCN000001600000001600FN00000000020220301000001600NNM   20220105171813    4N0N  00000160000000965600001165632DG    BFSAIBF 005500360039
BI00B32DG    RP2031         202202107158-3070-80             RUBBER STOPPER           CCN000120000000120000FN00000000020220301000120000NNM   20220105171813    1C0C  00004000000000276000000333332DG    BFSAIBF 002700430014
BI00B32DG    RP2032         202202177158-3070-80             RUBBER STOPPER           CCN000120000000120000FN00000000020220301000120000NNM   20220105171813    1C0C  00004000000000276000000333332DG    BFSAIBF 002700430014
BI00B32DG    RP2033         202202247158-3070-80             RUBBER STOPPER           CCN000120000000120000FN00000000020220301000120000NNM   20220105171813    1C0C  00004000000000276000000333332DG    BFSAIBF 002700430014
BI00B32DG    RP2034         202203037158-3070-80             RUBBER STOPPER           CCN000040000000040000FN00000000020220301000040000NNM   20220105171813    1C0C  00004000000000276000000333332DG    BFSAIBF 002700430014
BI00B32DG    RP2031         202202107287-1917                CONNECTOR FEMALE         CCN000007200000007200FN00000000020220301000007200NNM   20220105171813    4N0N  00000240000001060800001312532DG    BFSAIBF 005500360039
BI00B32DG    RP2032         202202177287-1917                CONNECTOR FEMALE         CCN000007200000007200FN00000000020220301000007200NNM   20220105171813    4N0N  00000240000001060800001312532DG    BFSAIBF 005500360039
BI00B32DG    RP2033         202202247287-1917                CONNECTOR FEMALE         CCN000007200000007200FN00000000020220301000007200NNM   20220105171813    4N0N  00000240000001060800001312532DG    BFSAIBF 005500360039
BI00B32DG    RP2031         202202107116-5043-02             TERMINAL FEMALE          CCN000048000000048000FN00000000020220301000048000NNM   20220105171813    4P0P  00001200000000559200000844432DG    BFSAIBF 006400630015
BI00B32DG    RP2032         202202177116-5043-02             TERMINAL FEMALE          CCN000048000000048000FN00000000020220301000048000NNM   20220105171813    4P0P  00001200000000559200000844432DG    BFSAIBF 006400630015
BI00B32DG    RP2033         202202247116-5043-02             TERMINAL FEMALE          CCN000048000000048000FN00000000020220301000048000NNM   20220105171813    4P0P  00001200000000559200000844432DG    BFSAIBF 006400630015
BI00B32DG    RP2034         202203037116-5043-02             TERMINAL FEMALE          CCN000024000000024000FN00000000020220301000024000NNM   20220105171813    4P0P  00001200000000559200000844432DG    BFSAIBF 006400630015
BI00B32DG    RP2031         202202107116-3153-02             TERMINAL FEMALE          CCN000540000000540000FN00000000020220301000540000NNM   20220105171813    4P0P  00002700000000459000000744232DG    BFSAIBF 006400630015
BI00B32DG    RP2032         202202177116-3153-02             TERMINAL FEMALE          CCN000540000000540000FN00000000020220301000540000NNM   20220105171813    4P0P  00002700000000459000000744232DG    BFSAIBF 006400630015
BI00B32DG    RP2033         202202247116-3153-02             TERMINAL FEMALE          CCN000540000000540000FN00000000020220301000540000NNM   20220105171813    4P0P  00002700000000459000000744232DG    BFSAIBF 006400630015
BI00B32DG    RP2034         202203037116-3153-02             TERMINAL FEMALE          CCN000486000000486000FN00000000020220301000486000NNM   20220105171813    4P0P  00002700000000459000000744232DG    BFSAIBF 006400630015
BI00B32DG    RP2031         202202107116-3154-02             TERMINAL FEMALE          CCN000297000000297000FN00000000020220301000297000NNM   20220105171813    4P0P  00002700000000469800000755032DG    BFSAIBF 006400630015
BI00B32DG    RP2032         202202177116-3154-02             TERMINAL FEMALE          CCN000297000000297000FN00000000020220301000297000NNM   20220105171813    4P0P  00002700000000469800000755032DG    BFSAIBF 006400630015
BI00B32DG    RP2033         202202247116-3154-02             TERMINAL FEMALE          CCN000297000000297000FN00000000020220301000297000NNM   20220105171813    4P0P  00002700000000469800000755032DG    BFSAIBF 006400630015
BI00B32DG    RP2034         202203037116-3154-02             TERMINAL FEMALE          CCN000297000000297000FN00000000020220301000297000NNM   20220105171813    4P0P  00002700000000469800000755032DG    BFSAIBF 006400630015
BI00B32DG    RP2031         202202107116-4416-02             TERMINAL                 CCN000032000000032000FN00000000020220301000032000NNM   20220105171813    4P0P  00003200000000518400000847132DG    BFSAIBF 006400630017
BI00B32DG    RP2032         202202177116-4416-02             TERMINAL                 CCN000032000000032000FN00000000020220301000032000NNM   20220105171813    4P0P  00003200000000518400000847132DG    BFSAIBF 006400630017
BI00B32DG    RP2033         202202247116-4416-02             TERMINAL                 CCN000032000000032000FN00000000020220301000032000NNM   20220105171813    4P0P  00003200000000518400000847132DG    BFSAIBF 006400630017
BI00B32DG    RP2034         202203037116-4416-02             TERMINAL                 CCN000032000000032000FN00000000020220301000032000NNM   20220105171813    4P0P  00003200000000518400000847132DG    BFSAIBF 006400630017
BI00B32DG    RP2031         202202107114-6041                TERMINAL                 CCN000007200000007200FN00000000020220301000007200NNM   20220105171813    4P0P  00000360000000580700000824232DG    BFSAIBF 006400630015
BI00B32DG    RP2032         202202177114-6041                TERMINAL                 CCN000007200000007200FN00000000020220301000007200NNM   20220105171813    4P0P  00000360000000580700000824232DG    BFSAIBF 006400630015
BI00B32DG    RP2033         202202247114-6041                TERMINAL                 CCN000003600000003600FN00000000020220301000003600NNM   20220105171813    4P0P  00000360000000580700000824232DG    BFSAIBF 006400630015
BI00B32DG    RP2031         202202107286-4097                CONNECTOR MALE ASS'Y     CCN000001600000001600FN00000000020220301000001600NNM   20220105171813    1N0N  00000160000000768000000978032DG    BFSAIBF 005500360039
BI00B32DG    RP2032         202202177286-4097                CONNECTOR MALE ASS'Y     CCN000001600000001600FN00000000020220301000001600NNM   20220105171813    1N0N  00000160000000768000000978032DG    BFSAIBF 005500360039
BI00B32DG    RP2031         202202107288-3340-30             HOUSING MALE             CCN000003000000003000FN00000000020220301000003000NNM   20220105171813    4N0N  00000150000000861500001006432DG    BFSAIBF 005400370024
BI00B32DG    RP2032         202202177288-3340-30             HOUSING MALE             CCN000003000000003000FN00000000020220301000003000NNM   20220105171813    4N0N  00000150000000861500001006432DG    BFSAIBF 005400370024
BI00B32DG    RP2033         202202247288-3340-30             HOUSING MALE             CCN000003000000003000FN00000000020220301000003000NNM   20220105171813    4N0N  00000150000000861500001006432DG    BFSAIBF 005400370024
BI00B32DG    RP2034         202203037288-3340-30             HOUSING MALE             CCN000003000000003000FN00000000020220301000003000NNM   20220105171813    4N0N  00000150000000861500001006432DG    BFSAIBF 005400370024
BI00B32DG    RP2031         202202107283-1289                CONNECTOR HOUSING        CCN000006000000006000FN00000000020220301000006000NNM   20220105171813    1N0N  00000060000000676200000817632DG    BFSAIBF 005400370024
BI00B32DG    RP2032         202202177283-1289                CONNECTOR HOUSING        CCN000006000000006000FN00000000020220301000006000NNM   20220105171813    1N0N  00000060000000676200000817632DG    BFSAIBF 005400370024
BI00B32DG    RP2033         202202247283-1289                CONNECTOR HOUSING        CCN000006000000006000FN00000000020220301000006000NNM   20220105171813    1N0N  00000060000000676200000817632DG    BFSAIBF 005400370024
BI00B32DG    RP2034         202203037283-1289                CONNECTOR HOUSING        CCN000004800000004800FN00000000020220301000004800NNM   20220105171813    1N0N  00000060000000676200000817632DG    BFSAIBF 005400370024
BI00B32DG    RP2031         202202107114-4112-02             TERMINAL                 CCN000009000000009000FN00000000020220301000009000NNM   20220105171813    4P0P  00000900000000598500000927132DG    BFSAIBF 006400630017
BI00B32DG    RP2031         202202107116-2640                TERMINAL                 CCN000018000000018000FN00000000020220301000018000NNM   20220105171813    4P0P  00001800000001018800001196632DG    BFSAIBF 005100280028
BI00B32DG    RP2032         202202177116-2640                TERMINAL                 CCN000018000000018000FN00000000020220301000018000NNM   20220105171813    4P0P  00001800000001018800001196632DG    BFSAIBF 005100280028
BI00B32DG    RP2031         202202107116-2641                TERMINAL                 CCN000018000000018000FN00000000020220301000018000NNM   20220105171813    4P0P  00001800000001161000001344632DG    BFSAIBF 005100280028
BI00B32DG    RP2031         202202107116-4114-02             TERMINAL                 CCN000010500000010500FN00000000020220301000010500NNM   20220105171813    4P0P  00001050000000693000000981232DG    BFSAIBF 006400630015
BI00B32DG    RP2032         202202177116-4114-02             TERMINAL                 CCN000010500000010500FN00000000020220301000010500NNM   20220105171813    4P0P  00001050000000693000000981232DG    BFSAIBF 006400630015
BI00B32DG    RP2033         202202247116-4114-02             TERMINAL                 CCN000010500000010500FN00000000020220301000010500NNM   20220105171813    4P0P  00001050000000693000000981232DG    BFSAIBF 006400630015
BI00B32DG    RP2034         202203037116-4114-02             TERMINAL                 CCN000010500000010500FN00000000020220301000010500NNM   20220105171813    4P0P  00001050000000693000000981232DG    BFSAIBF 006400630015
BI00B32DG    RP2031         202202107116-4115-02             TERMINAL                 CCN000008400000008400FN00000000020220301000008400NNM   20220105171813    4P0P  00000840000000593000000881232DG    BFSAIBF 006400630015
BI00B32DG    RP2032         202202177116-4115-02             TERMINAL                 CCN000008400000008400FN00000000020220301000008400NNM   20220105171813    4P0P  00000840000000593000000881232DG    BFSAIBF 006400630015
BI00B32DG    RP2031         202202107116-4116-02             TERMINAL                 CCN000006900000006900FN00000000020220301000006900NNM   20220105171813    4P0P  00000690000000517500000805732DG    BFSAIBF 006400630015
BI00B32DG    RP2031         202202107126-8853-02             TERMINAL                 CCN000015000000015000FN00000000020220301000015000NNM   20220105171813    4P0P  00000750000000562500000847732DG    BFSAIBF 006400630015
BI00B32DG    RP2032         202202177126-8853-02             TERMINAL                 CCN000015000000015000FN00000000020220301000015000NNM   20220105171813    4P0P  00000750000000562500000847732DG    BFSAIBF 006400630015
BI00B32DG    RP2033         202202247126-8853-02             TERMINAL                 CCN000007500000007500FN00000000020220301000007500NNM   20220105171813    4P0P  00000750000000562500000847732DG    BFSAIBF 006400630015
BI00B32DG    RP2031         202202107126-8854-02             TERMINAL                 CCN000015000000015000FN00000000020220301000015000NNM   20220105171813    4P0P  00000750000000604500000889732DG    BFSAIBF 006400630015
BI00B32DG    RP2032         202202177126-8854-02             TERMINAL                 CCN000015000000015000FN00000000020220301000015000NNM   20220105171813    4P0P  00000750000000604500000889732DG    BFSAIBF 006400630015
BI00B32DG    RP2033         202202247126-8854-02             TERMINAL                 CCN000007500000007500FN00000000020220301000007500NNM   20220105171813    4P0P  00000750000000604500000889732DG    BFSAIBF 006400630015
BI00B32DG    RP2031         202202107126-8855-02             TERMINAL                 CCN000006000000006000FN00000000020220301000006000NNM   20220105171813    4P0P  00000600000000510600000795832DG    BFSAIBF 006400630015
BI00B32DG    RP2032         202202177126-8855-02             TERMINAL                 CCN000006000000006000FN00000000020220301000006000NNM   20220105171813    4P0P  00000600000000510600000795832DG    BFSAIBF 006400630015
BI00B32DG    RP2033         202202247126-8855-02             TERMINAL                 CCN000006000000006000FN00000000020220301000006000NNM   20220105171813    4P0P  00000600000000510600000795832DG    BFSAIBF 006400630015
BI00B32DG    RP2034         202203037126-8855-02             TERMINAL                 CCN000006000000006000FN00000000020220301000006000NNM   20220105171813    4P0P  00000600000000510600000795832DG    BFSAIBF 006400630015
BI00B32DG    RP2031         202202107116-4618-02             TERMINAL FEMALE          CCN000030000000030000FN00000000020220301000030000NNM   20220105171813    4P0P  00003000000000531000000859732DG    BFSAIBF 006400630017
BI00B32DG    RP2031         202202107288-3337-30             HOUSING MALE             CCN000001500000001500FN00000000020220301000001500NNM   20220105171813    4N0N  00000150000000867000001012032DG    BFSAIBF 005400370024
BI00B32DG    #RP2031        202202107172-5632-10             DUMMY PLUG               CCN000060000000060000FN00000000020220301000060000NNM   20220105171813    2H0H  00002000000000080400000131832DG    BFSAIBF 004300270014
BI00B32DG    #RP2032        202202177172-5632-10             DUMMY PLUG               CCN000060000000060000FN00000000020220301000060000NNM   20220105171813    2H0H  00002000000000080400000131832DG    BFSAIBF 004300270014
BI00B32DG    #RP2033        202202247172-5632-10             DUMMY PLUG               CCN000060000000060000FN00000000020220301000060000NNM   20220105171813    2H0H  00002000000000080400000131832DG    BFSAIBF 004300270014
BI00B32DG    #RP2031        202202107183-2418                CONNECTOR HOUSING        CCN000004800000004800FN00000000020220301000004800NNM   20220105171813    2F0F  00000480000000917000001477032DG    BFSAIBF 005500360039
BI00B32DG    #RP2032        202202177183-2418                CONNECTOR HOUSING        CCN000004800000004800FN00000000020220301000004800NNM   20220105171813    2F0F  00000480000000917000001477032DG    BFSAIBF 005500360039
BI00B32DG    @RP2031        202202107283-1100                CONNECTOR ASS'Y          CCN000001600000001600FN00000000020220301000001600NNM   20220105171813    3N0N  00000160000000566500000799632DG    BFSAIBF 005500360039
BI00B32DG    @RP2032        202202177283-1100                CONNECTOR ASS'Y          CCN000001600000001600FN00000000020220301000001600NNM   20220105171813    3N0N  00000160000000566500000799632DG    BFSAIBF 005500360039
BI00B32DG    @RP2031        202202107283-1556                CONNECTOR ASS'Y          CCN000057600000057600FN00000000020220301000057600NNM   20220105171813    3N0N  00000240000000755000001014032DG    BFSAIBF 005500360039
BI00B32DG    @RP2032        202202177283-1556                CONNECTOR ASS'Y          CCN000057600000057600FN00000000020220301000057600NNM   20220105171813    3N0N  00000240000000755000001014032DG    BFSAIBF 005500360039
BI00B32DG    @RP2033        202202247283-1556                CONNECTOR ASS'Y          CCN000057600000057600FN00000000020220301000057600NNM   20220105171813    3N0N  00000240000000755000001014032DG    BFSAIBF 005500360039
BI00B32DG    @RP2034        202203037283-1556                CONNECTOR ASS'Y          CCN000052800000052800FN00000000020220301000052800NNM   20220105171813    3N0N  00000240000000755000001014032DG    BFSAIBF 005500360039
BI00B32DG    @RP2031        202202107282-1040                HOUSING SUB ASSEMBLY     CCN000002400000002400FN00000000020220301000002400NNM   20220105171813    3N0N  00000240000001014400001256032DG    BFSAIBF 005500360039
BI00B32DG    @RP2032        202202177282-1040                HOUSING SUB ASSEMBLY     CCN000002400000002400FN00000000020220301000002400NNM   20220105171813    3N0N  00000240000001014400001256032DG    BFSAIBF 005500360039
BI00B32DG    @RP2033        202202247282-1040                HOUSING SUB ASSEMBLY     CCN000002400000002400FN00000000020220301000002400NNM   20220105171813    3N0N  00000240000001014400001256032DG    BFSAIBF 005500360039
BI00B32DG    @RP2031        202202107282-1025                HOUSING SUB ASSEMBLY     CCN000004800000004800FN00000000020220301000004800NNM   20220105171813    3N0N  00000240000001143800001390032DG    BFSAIBF 005500360039
BI00B32DG    @RP2032        202202177282-1025                HOUSING SUB ASSEMBLY     CCN000004800000004800FN00000000020220301000004800NNM   20220105171813    3N0N  00000240000001143800001390032DG    BFSAIBF 005500360039
BI00B32DG    @RP2033        202202247282-1025                HOUSING SUB ASSEMBLY     CCN000004800000004800FN00000000020220301000004800NNM   20220105171813    3N0N  00000240000001143800001390032DG    BFSAIBF 005500360039
BI00B32DG    @RP2034        202203037282-1025                HOUSING SUB ASSEMBLY     CCN000002400000002400FN00000000020220301000002400NNM   20220105171813    3N0N  00000240000001143800001390032DG    BFSAIBF 005500360039
BI00B32DG    @RP2031        202202107287-6634                HOUSING FEMALE ASS'Y     CCN000002400000002400FN00000000020220301000002400NNM   20220105171813    3N0N  00000240000001088400001337032DG    BFSAIBF 005500360039
BI00B32DG    @RP2032        202202177287-6634                HOUSING FEMALE ASS'Y     CCN000002400000002400FN00000000020220301000002400NNM   20220105171813    3N0N  00000240000001088400001337032DG    BFSAIBF 005500360039
BI00B32DG    @RP2031        202202107183-8049-30             CONNECTOR HOUSING        CCN000004000000004000FN00000000020220301000004000NNM   20220105171813    3F0F  00000400000000588800000714432DG    BFSAIBF 005400370024
BI00B32DG    @RP2031        202202107183-8049                CONNECTOR HOUSING        CCN000004000000004000FN00000000020220301000004000NNM   20220105171813    3F0F  00000400000000583600000740032DG    BFSAIBF 005400370024
BI00B32DG    #RL2031        202202107116-4021                TERMINAL                 CCN000054000000054000FN00000000020210301000054000NNM   20220105171813    2F0P  00001350000000534600000868832DG    BFSAIBF 006400630015
BI00B32DG    #RL2032        202202177116-4021                TERMINAL                 CCN000054000000054000FN00000000020210301000054000NNM   20220105171813    2F0P  00001350000000534600000868832DG    BFSAIBF 006400630015
BI00B32DG    #RL2033        202202247116-4021                TERMINAL                 CCN000054000000054000FN00000000020210301000054000NNM   20220105171813    2F0P  00001350000000534600000868832DG    BFSAIBF 006400630015
BI00B32DG    #RL2034        202203037116-4021                TERMINAL                 CCN000027000000027000FN00000000020210301000027000NNM   20220105171813    2F0P  00001350000000534600000868832DG    BFSAIBF 006400630015
BI00B32DG    #RL2031        202202107283-8123-40             CONNECTOR HOUSING        CCN000008000000008000FN00000000020210301000008000NNM   20220105171813    2N0N  00000400000000380000000530032DG    BFSAIBF 005600390023
BI00B32DG    #RL2032        202202177283-8123-40             CONNECTOR HOUSING        CCN000008000000008000FN00000000020210301000008000NNM   20220105171813    2N0N  00000400000000380000000530032DG    BFSAIBF 005600390023
BI00B32DG    #RL2033        202202247283-8123-40             CONNECTOR HOUSING        CCN000008000000008000FN00000000020210301000008000NNM   20220105171813    2N0N  00000400000000380000000530032DG    BFSAIBF 005600390023
BI00B32DG    #RL2031        202202107035-5731                GROMMET                  CCN000001000000001000FN00000000020210301000001000NNM   20220105171813    2H0H  00000050000000808000000918032DG    BFSAIBF 005600390040
BI00B32DG    #RL2032        202202177035-5731                GROMMET                  CCN000001000000001000FN00000000020210301000001000NNM   20220105171813    2H0H  00000050000000808000000918032DG    BFSAIBF 005600390040
BI00B32DG    #RL2033        202202247035-5731                GROMMET                  CCN000001000000001000FN00000000020210301000001000NNM   20220105171813    2H0H  00000050000000808000000918032DG    BFSAIBF 005600390040
BI00B32DG    #RL2034        202203037035-5731                GROMMET                  CCN000001000000001000FN00000000020210301000001000NNM   20220105171813    2H0H  00000050000000808000000918032DG    BFSAIBF 005600390040
BI00B32DG    #RL2031        202202107158-3004-40             RUBBER STOPPER           CCN000020000000020000FN00000000020210301000020000NNM   20220105171813    2C0C  00002000000000234000000306332DG    BFSAIBF 002700430014
BI00B32DG    #RL2032        202202177158-3004-40             RUBBER STOPPER           CCN000020000000020000FN00000000020210301000020000NNM   20220105171813    2C0C  00002000000000234000000306332DG    BFSAIBF 002700430014
BI00B32DG    #RL2033        202202247158-3004-40             RUBBER STOPPER           CCN000020000000020000FN00000000020210301000020000NNM   20220105171813    2C0C  00002000000000234000000306332DG    BFSAIBF 002700430014
BI00B32DG    #RL2034        202203037158-3004-40             RUBBER STOPPER           CCN000020000000020000FN00000000020210301000020000NNM   20220105171813    2C0C  00002000000000234000000306332DG    BFSAIBF 002700430014
BI00B32DG    #RL2031        202202107183-6320                HOUSING                  CCN000009600000009600FN00000000020210301000009600NNM   20220105171813    2F0F  00000480000000820800001103632DG    BFSAIBF 005500360039
BI00B32DG    #RL2032        202202177183-6320                HOUSING                  CCN000009600000009600FN00000000020210301000009600NNM   20220105171813    2F0F  00000480000000820800001103632DG    BFSAIBF 005500360039
BI00B32DG    #RL2033        202202247183-6320                HOUSING                  CCN000004800000004800FN00000000020210301000004800NNM   20220105171813    2F0F  00000480000000820800001103632DG    BFSAIBF 005500360039
BI00B32DG    #RL2031        202202107183-1615                HOUSING                  CCN000009600000009600FN00000000020210301000009600NNM   20220105171813    2F0F  00000480000000757000001042032DG    BFSAIBF 005500360039
BI00B32DG    #RL2032        202202177183-1615                HOUSING                  CCN000009600000009600FN00000000020210301000009600NNM   20220105171813    2F0F  00000480000000757000001042032DG    BFSAIBF 005500360039
BI00B32DG    #RL2033        202202247183-1615                HOUSING                  CCN000004800000004800FN00000000020210301000004800NNM   20220105171813    2F0F  00000480000000757000001042032DG    BFSAIBF 005500360039
BI00B32DG    #RL2031        202202107183-2415                CONNECTOR HOUSING        CCN000009600000009600FN00000000020210301000009600NNM   20220105171813    2F0F  00000480000000798200001091432DG    BFSAIBF 005500360039
BI00B32DG    #RL2032        202202177183-2415                CONNECTOR HOUSING        CCN000009600000009600FN00000000020210301000009600NNM   20220105171813    2F0F  00000480000000798200001091432DG    BFSAIBF 005500360039
BI00B32DG    #RL2033        202202247183-2415                CONNECTOR HOUSING        CCN000009600000009600FN00000000020210301000009600NNM   20220105171813    2F0F  00000480000000798200001091432DG    BFSAIBF 005500360039
BI00B32DG    #RL2034        202203037183-2415                CONNECTOR HOUSING        CCN000009600000009600FN00000000020210301000009600NNM   20220105171813    2F0F  00000480000000798200001091432DG    BFSAIBF 005500360039
BI00B32DG    #RL2031        202202107183-2413-30             CONNECTOR HOUSING        CCN000004800000004800FN00000000020210301000004800NNM   20220105171813    2F0F  00000480000000477600000759532DG    BFSAIBF 005500360039
BI00B32DG    #RL2032        202202177183-2413-30             CONNECTOR HOUSING        CCN000004800000004800FN00000000020210301000004800NNM   20220105171813    2F0F  00000480000000477600000759532DG    BFSAIBF 005500360039
BI00B32DG    #RL2033        202202247183-2413-30             CONNECTOR HOUSING        CCN000004800000004800FN00000000020210301000004800NNM   20220105171813    2F0F  00000480000000477600000759532DG    BFSAIBF 005500360039
BI00B32DG    #RL2031        202202107114-4022                TERMINAL                 CCN000015000000015000FN00000000020210301000015000NNM   20220105171813    2F0P  00001500000000708000001120632DG    BFSAIBF 006400630015
BI00B32DG    #RL2032        202202177114-4022                TERMINAL                 CCN000015000000015000FN00000000020210301000015000NNM   20220105171813    2F0P  00001500000000708000001120632DG    BFSAIBF 006400630015
BI00B32DG    #RL2033        202202247114-4022                TERMINAL                 CCN000015000000015000FN00000000020210301000015000NNM   20220105171813    2F0P  00001500000000708000001120632DG    BFSAIBF 006400630015
BI00B32DG    #RL2034        202203037114-4022                TERMINAL                 CCN000015000000015000FN00000000020210301000015000NNM   20220105171813    2F0P  00001500000000708000001120632DG    BFSAIBF 006400630015
BI00B32DG    #RL2031        202202107158-3008-80             RUBBER STOPPER           CCN000080000000080000FN00000000020210301000080000NNM   20220105171813    2C0C  00002000000000288000000343032DG    BFSAIBF 004300270014
BI00B32DG    #RL2032        202202177158-3008-80             RUBBER STOPPER           CCN000080000000080000FN00000000020210301000080000NNM   20220105171813    2C0C  00002000000000288000000343032DG    BFSAIBF 004300270014
BI00B32DG    #RL2033        202202247158-3008-80             RUBBER STOPPER           CCN000080000000080000FN00000000020210301000080000NNM   20220105171813    2C0C  00002000000000288000000343032DG    BFSAIBF 004300270014
BI00B32DG    #RL2034        202203037158-3008-80             RUBBER STOPPER           CCN000080000000080000FN00000000020210301000080000NNM   20220105171813    2C0C  00002000000000288000000343032DG    BFSAIBF 004300270014
BI00B32DG    #RL2031        202202107158-3007-10             RUBBER STOPPER           CCN000060000000060000FN00000000020210301000060000NNM   20220105171813    2H0H  00002000000000308000000362732DG    BFSAIBF 002700430014
BI00B32DG    #RL2032        202202177158-3007-10             RUBBER STOPPER           CCN000060000000060000FN00000000020210301000060000NNM   20220105171813    2H0H  00002000000000308000000362732DG    BFSAIBF 002700430014
BI00B32DG    #RL2033        202202247158-3007-10             RUBBER STOPPER           CCN000060000000060000FN00000000020210301000060000NNM   20220105171813    2H0H  00002000000000308000000362732DG    BFSAIBF 002700430014
BI00B32DG    #RL2034        202203037158-3007-10             RUBBER STOPPER           CCN000040000000040000FN00000000020210301000040000NNM   20220105171813    2H0H  00002000000000308000000362732DG    BFSAIBF 002700430014
BI00B32DG    #RL2031        202202107189-3031                HOUSING FEMALE           CCN000002400000002400FN00000000020210301000002400NNM   20220105171813    2F0F  00000240000000928800001365832DG    BFSAIBF 005500360039
BI00B32DG    #RL2032        202202177189-3031                HOUSING FEMALE           CCN000002400000002400FN00000000020210301000002400NNM   20220105171813    2F0F  00000240000000928800001365832DG    BFSAIBF 005500360039
BI00B32DG    #RL2033        202202247189-3031                HOUSING FEMALE           CCN000002400000002400FN00000000020210301000002400NNM   20220105171813    2F0F  00000240000000928800001365832DG    BFSAIBF 005500360039
BI00B32DG    #RL2031        202202107282-5845                HOUSING MALE ASS'Y       CCN000004000000004000FN00000000020210301000004000NNM   20220105171813    2N0N  00000400000001068000001178032DG    BFSAIBF 005400370024
BI00B32DG    #RL2031        202202107282-1026                CONNECTOR HOUSING        CCN000008000000008000FN00000000020210301000008000NNM   20220105171813    2N0N  00000200000000696000000808532DG    BFSAIBF 005400370024
BI00B32DG    #RL2032        202202177282-1026                CONNECTOR HOUSING        CCN000008000000008000FN00000000020210301000008000NNM   20220105171813    2N0N  00000200000000696000000808532DG    BFSAIBF 005400370024
BI00B32DG    #RL2033        202202247282-1026                CONNECTOR HOUSING        CCN000008000000008000FN00000000020210301000008000NNM   20220105171813    2N0N  00000200000000696000000808532DG    BFSAIBF 005400370024
BI00B32DG    #RL2034        202203037282-1026                CONNECTOR HOUSING        CCN000006000000006000FN00000000020210301000006000NNM   20220105171813    2N0N  00000200000000696000000808532DG    BFSAIBF 005400370024
BI00B32DG    #RL2031        202202107158-3003-90             RUBBER STOPPER           CCN000020000000020000FN00000000020210301000020000NNM   20220105171813    2C0C  00002000000000250000000306032DG    BFSAIBF 002700430014
BI00B32DG    #RL2032        202202177158-3003-90             RUBBER STOPPER           CCN000020000000020000FN00000000020210301000020000NNM   20220105171813    2C0C  00002000000000250000000306032DG    BFSAIBF 002700430014
BI00B32DG    #RL2033        202202247158-3003-90             RUBBER STOPPER           CCN000020000000020000FN00000000020210301000020000NNM   20220105171813    2C0C  00002000000000250000000306032DG    BFSAIBF 002700430014
BI00B32DG    #RL2034        202203037158-3003-90             RUBBER STOPPER           CCN000020000000020000FN00000000020210301000020000NNM   20220105171813    2C0C  00002000000000250000000306032DG    BFSAIBF 002700430014
BI00B32DG    #RL2031        202202107282-3020                CONNECTOR                CCN000001000000001000FN00000000020210301000001000NNM   20220105171813    2N0N  00000100000000984000001145432DG    BFSAIBF 005500360039
BI00B32DG    #RL2032        202202177282-3020                CONNECTOR                CCN000001000000001000FN00000000020210301000001000NNM   20220105171813    2N0N  00000100000000984000001145432DG    BFSAIBF 005500360039
BI00B32DG    #RL2033        202202247282-3020                CONNECTOR                CCN000001000000001000FN00000000020210301000001000NNM   20220105171813    2N0N  00000100000000984000001145432DG    BFSAIBF 005500360039
BI00B32DG    #RL2031        202202107158-3075-10             SEALED CONNECTOR         CCN000040000000040000FN00000000020210301000040000NNM   20220105171813    2C0C  00004000000000376000000429732DG    BFSAIBF 002700430014
