BI00B32AF    @TTB205E       20220527181E48019ZZ              CAVSAS-S 0.5X1 GY/W      CCN000000400000000400FN00000000020220501000000400NNE   20220430131304    1W    00000040000001900600000000032AF    HBYHVTB 000000000000UU225001
BI00A32AF    @TTB205F       20220503181E48065ZZ              CAVSAS-S 0.5X4 GY/W      CCN000000400000000400FN00000000020220501000000400NNE   20220430101148    1W    00000020000003995000000000032AF    HBYHVTB 000000000000UU424001
BI00B32AG    @XG2206BLMW    20220513181E48022ZZ              CAVSAS-S 0.5X2 GY        CCN000002100000002100FN00000000020220601000002100NNE   20220430182840    1W    00000030000002561000000000032AG    XGXGY   000000000000XQ424001
BI00B32AG    @XG2206CLMW    20220527181E48022ZZ              CAVSAS-S 0.5X2 GY        CCN000001500000001500FN00000000020220601000001500NNE   20220430142016    1W    00000030000002561000000000032AG    XGXGY   000000000000XQ225001
BI00B32AG    @XG2207ALMW    20220610181E48022ZZ              CAVSAS-S 0.5X2 GY        CCN000001500000001500FN00000000020220701000001500NNE   20220430142017    1W    00000030000002561000000000032AG    XGXGY   000000000000XQ425001
BI00B32AG    XG22083CMW     2022072218000004590              AV 8 L                   CCN000000300000000300FN00000000020220801000000300NNM   20220430144537    1W    00000010000010466200000000032AG    XGXGY   000000000000XV127001
BI00B32AG    XG22084CMW     2022072918000004590              AV 8 L                   CCN000000600000000600FN00000000020220801000000600NNM   20220430144537    1W    00000010000010466200000000032AG    XGXGY   000000000000XV227001
BI00B32AG    @XG22082LMW    20220715181E48022ZZ              CAVSAS-S 0.5X2 GY        CCN000000300000000300FN00000000020220801000000300NNM   20220430144535    1W    00000030000002561000000000032AG    XGXGY   000000000000XY526001
BI00B32AG    @XG22083LMW    20220722181E48022ZZ              CAVSAS-S 0.5X2 GY        CCN000000600000000600FN00000000020220801000000600NNM   20220430144535    1W    00000030000002561000000000032AG    XGXGY   000000000000XY127001
BI00B32AG    @XG22084LMW    20220729181E48022ZZ              CAVSAS-S 0.5X2 GY        CCN000000300000000300FN00000000020220801000000300NNM   20220430144535    1W    00000030000002561000000000032AG    XGXGY   000000000000XY227001
BI00A32AG    XG2205ALMW     2022051118007703730              AVSS 0.3F B              CCN000014000000014000FN00000000020220501000014000NNE   20220430131149    1W    00000200000000496000000000032AG    XGXGY   000000000000XA424014
BI00A32AG    XG2205ALMW     2022051118007703780              AVSS 0.3F BR             CCN000010000000010000FN00000000020220501000010000NNE   20220430131149    1W    00000200000000496000000000032AG    XGXGY   000000000000XA424015
BI00A32AG    XG2205ALMW     2022051118007703760              AVSS 0.3F G              CCN000016000000016000FN00000000020220501000016000NNE   20220430131149    1W    00000200000000496000000000032AG    XGXGY   000000000000XA424016
BI00A32AG    XG2205ALMW     2022051118007703790              AVSS 0.3F L              CCN000006000000006000FN00000000020220501000006000NNE   20220430131149    1W    00000200000000496000000000032AG    XGXGY   000000000000XA424017
BI00A32AG    XG2205ALMW     2022051118007703752              AVSS 0.3F P              CCN000020000000020000FN00000000020220501000020000NNE   20220430131149    1W    00000200000000496000000000032AG    XGXGY   000000000000XA424018
BI00A32AG    XG2205ALMW     2022051118007703750              AVSS 0.3F R              CCN000082000000082000FN00000000020220501000082000NNE   20220430131149    1W    00000200000000496000000000032AG    XGXGY   000000000000XA424019
BI00A32AG    XG2205ALMW     2022051118007703740              AVSS 0.3F W              CCN000018000000018000FN00000000020220501000018000NNE   20220430131149    1W    00000200000000496000000000032AG    XGXGY   000000000000XA424020
BI00A32AG    XG2205ALMW     2022051118007703770              AVSS 0.3F Y              CCN000008000000008000FN00000000020220501000008000NNE   20220430131149    1W    00000200000000496000000000032AG    XGXGY   000000000000XA424021
BI00A32AG    XG2205BQMW     2022051118007703930              AVSS 0.5F B              CCN000004500000004500FN00000000020220501000004500NNE   20220430131146    1W    00000150000000674000000000032AG    XGXGY   000000000000XA424022
BI00B32CJ    @TTQ206C       20220527181E48011ZZ              CAVSAS-S 0.3X1 GY/W      CCN000003000000003000FN00000000020220601000003000NNE   20220430145900    1W    00000050000001529500000000032CJ    QNYHVQN 000000000000UN225001
BI00B32CJ    @TTQ206C       20220527181E48031ZZ              CAVSAS-S 0.3X2 GY        CCN000010500000010500FN00000000020220601000010500NNE   20220430145900    1W    00000035000002008700000000032CJ    QNYHVQN 000000000000UN225002
BI00B32DE    TT206A         2022052618007703945              AVSS 0.5F W/R            CCN000001500000001500FN00000000020220601000001500NNE   20220430153437    1W    00000150000000674000000000032DE    TVYEV-TV000000000000VG225019
BI00B32DE    TT206A         2022052618007704160              AVSS 1.25F G             CCN000000800000000800FN00000000020220601000000800NNE   20220430153437    1W    00000080000001389000000000032DE    TVYEV-TV000000000000VG225020
BI00B32DE    TT206A         2022052618007704143              AVSS 1.25F W/B           CCN000000800000000800FN00000000020220601000000800NNE   20220430153437    1W    00000080000001389000000000032DE    TVYEV-TV000000000000VG225021
BI00B32DE    TT206A         20220526180D0203752              AVSSH 0.3F P             CCN000002000000002000FN00000000020220601000002000NNE   20220430153437    1W    00000200000000515000000000032DE    TVYEV-TV000000000000VG225003
BI00B32DE    TT206A         20220526180D0203792              AVSSH 0.3F V             CCN000002000000002000FN00000000020220601000002000NNE   20220430153437    1W    00000200000000515000000000032DE    TVYEV-TV000000000000VG225004
BI00B32DE    TT206A         20220526180D0203937              AVSSH 0.5F B/Y           CCN000001500000001500FN00000000020220601000001500NNE   20220430153437    1W    00000150000000689000000000032DE    TVYEV-TV000000000000VG225005
BI00B32DE    TT206A         20220526180D0203980              AVSSH 0.5F BR            CCN000009000000009000FN00000000020220601000009000NNE   20220430153437    1W    00000150000000689000000000032DE    TVYEV-TV000000000000VG225006
BI00B32DE    TT206A         20220526180D0203963              AVSSH 0.5F G/B           CCN000001500000001500FN00000000020220601000001500NNE   20220430153437    1W    00000150000000689000000000032DE    TVYEV-TV000000000000VG225007
BI00B32DE    TT206A         20220526180D0203964              AVSSH 0.5F G/W           CCN000001500000001500FN00000000020220601000001500NNE   20220430153437    1W    00000150000000689000000000032DE    TVYEV-TV000000000000VG225008
BI00B32DE    TT206A         20220526180D0203967              AVSSH 0.5F G/Y           CCN000003000000003000FN00000000020220601000003000NNE   20220430153437    1W    00000150000000689000000000032DE    TVYEV-TV000000000000VG225009
BI00B32DE    TT206A         20220526180D0203995              AVSSH 0.5F L/R           CCN000001500000001500FN00000000020220601000001500NNE   20220430153437    1W    00000150000000689000000000032DE    TVYEV-TV000000000000VG225010
BI00B32DE    TT206A         20220526180D0203994              AVSSH 0.5F L/W           CCN000001500000001500FN00000000020220601000001500NNE   20220430153437    1W    00000150000000689000000000032DE    TVYEV-TV000000000000VG225011
BI00B32DE    TT206A         20220526180D0203997              AVSSH 0.5F L/Y           CCN000001500000001500FN00000000020220601000001500NNE   20220430153437    1W    00000150000000689000000000032DE    TVYEV-TV000000000000VG225012
BI00B32DE    TT206A         20220526180D02039G6              AVSSH 0.5F P/L           CCN000001500000001500FN00000000020220601000001500NNE   20220430153437    1W    00000150000000689000000000032DE    TVYEV-TV000000000000VG225013
BI00B32DE    TT206A         20220526180D0203953              AVSSH 0.5F R/B           CCN000001500000001500FN00000000020220601000001500NNE   20220430153437    1W    00000150000000689000000000032DE    TVYEV-TV000000000000VG225014
BI00B32DE    TT206A         20220526180D0203943              AVSSH 0.5F W/B           CCN000006000000006000FN00000000020220601000006000NNE   20220430153437    1W    00000150000000689000000000032DE    TVYEV-TV000000000000VG225015
BI00B32DE    TT206A         20220526180D0203946              AVSSH 0.5F W/G           CCN000001500000001500FN00000000020220601000001500NNE   20220430153437    1W    00000150000000689000000000032DE    TVYEV-TV000000000000VG225016
BI00B32DE    TT206A         20220526180D0203973              AVSSH 0.5F Y/B           CCN000003000000003000FN00000000020220601000003000NNE   20220430153437    1W    00000150000000689000000000032DE    TVYEV-TV000000000000VG225017
BI00B32DE    TT206A         20220526180D0204149              AVSSH 1.25F W/L          CCN000000800000000800FN00000000020220601000000800NNE   20220430153437    1W    00000080000001458000000000032DE    TVYEV-TV000000000000VG225018
BI00B32DE    @TT206A        20220526181F21011ZZ              AVSSHCS-S 0.5FX2 B/R     CCN000003000000003000FN00000000020220601000003000NNE   20220430153434    1W    00000030000002531400000000032DE    TVYEV-TV000000000000VG225001
BI00B32DE    @TT206A        20220526181F21013ZZ              AVSSHCS-S 0.5FX2 B/Y     CCN000000900000000900FN00000000020220601000000900NNE   20220430153434    1W    00000030000002531400000000032DE    TVYEV-TV000000000000VG225002
BI00B32D1    DFTW2230       2022060218000004534              AV 8 B/W                 CCN000001400000001400FN00000000020220701000001400NNE   20220430150355    1W    00000010000010466200000000032D1    TOYOT-K 000000000000KO325054
BI00B32D1    DFTW2230       2022060218000004535              AV 8 B/R                 CCN000000500000000500FN00000000020220701000000500NNE   20220430150355    1W    00000010000010466200000000032D1    TOYOT-K 000000000000KO325053
BI00B32D1    DFTW2230       2022060218000004540              AV 8 W                   CCN000006000000006000FN00000000020220701000006000NNE   20220430150355    1W    00000010000010466200000000032D1    TOYOT-K 000000000000KO325056
BI00B32D1    DFTW2230       2022060218000004543              AV 8 W/B                 CCN000003700000003700FN00000000020220701000003700NNE   20220430150355    1W    00000010000010466200000000032D1    TOYOT-K 000000000000KO325057
BI00B32D1    DFTW2230       2022060218000004550              AV 8 R                   CCN000000700000000700FN00000000020220701000000700NNE   20220430150355    1W    00000010000010466200000000032D1    TOYOT-K 000000000000KO325055
BI00B32D1    @DFTW2230      20220602181AD2002ZZ              CIVUSAS-S 0.35X2 B       CCN000005850000005850FN00000000020220701000005850NNE   20220430150352    1W    00000045000001713700000000032D1    TOYOT-K 000000000000KO325026
BI00B32D1    @DFTW2230      20220602181AD2003ZZ              CIVUSAS-S 0.35X3 B       CCN000001750000001750FN00000000020220701000001750NNE   20220430150352    1W    00000035000002172100000000032D1    TOYOT-K 000000000000KO325027
BI00B32D1    @DFTW2230      20220602181AD2004ZZ              CIVUSAS-S 0.35X4 B       CCN000005700000005700FN00000000020220701000005700NNE   20220430150352    1W    00000030000002799900000000032D1    TOYOT-K 000000000000KO325028
BI00B32D1    @DFTW2230      20220602181E48031ZZ              CAVSAS-S 0.3X2 GY        CCN000001750000001750FN00000000020220701000001750NNE   20220430150352    1W    00000035000002008700000000032D1    TOYOT-K 000000000000KO325029
BI00B32D1    @DFTW2230      20220602181E48037ZZ              CAVSAS-S 0.3X4 GY        CCN000001750000001750FN00000000020220701000001750NNE   20220430150352    1W    00000025000003262000000000032D1    TOYOT-K 000000000000KO325031
BI00B32D1    @DFTW2230      20220602181E48041ZZ              CAVSAS-S 0.3X2 GY/R      CCN000000350000000350FN00000000020220701000000350NNE   20220430150352    1W    00000035000002008700000000032D1    TOYOT-K 000000000000KO325030
BI00B32D1    @DFTW2230      20220602181E50002ZZ              AVSSCS-S 0.3FX2 DGY/G    CCN000003500000003500FN00000000020220701000003500NNE   20220430150352    1W    00000035000002165000000000032D1    TOYOT-K 000000000000KO325037
BI00B32D1    @DFTW2230      20220602181E50004ZZ              AVSSCS-S 0.5FX1 DGY      CCN000002400000002400FN00000000020220701000002400NNE   20220430150352    1W    00000040000001909700000000032D1    TOYOT-K 000000000000KO325032
BI00B32D1    @DFTW2230      20220602181E50005ZZ              AVSSCS-S 0.5FX1 DGY/W    CCN000001200000001200FN00000000020220701000001200NNE   20220430150352    1W    00000040000001909700000000032D1    TOYOT-K 000000000000KO325035
BI00B32D1    @DFTW2230      20220602181E50007ZZ              AVSSCS-S 0.5FX1 DGY/L    CCN000001600000001600FN00000000020220701000001600NNE   20220430150352    1W    00000040000001909700000000032D1    TOYOT-K 000000000000KO325033
BI00B32D1    @DFTW2230      20220602181E50014ZZ              AVSSCS-S 0.5FX1 DGY/R    CCN000000400000000400FN00000000020220701000000400NNE   20220430150352    1W    00000040000001909700000000032D1    TOYOT-K 000000000000KO325034
BI00B32D1    @DFTW2230      20220602181E50020ZZ              AVSSCS-S 0.3FX2 DGY/R    CCN000002100000002100FN00000000020220701000002100NNE   20220430150352    1W    00000035000002165000000000032D1    TOYOT-K 000000000000KO325039
BI00B32D1    @DFTW2230      20220602181E50021ZZ              AVSSCS-S 0.3FX2 DGY/P    CCN000002450000002450FN00000000020220701000002450NNE   20220430150352    1W    00000035000002165000000000032D1    TOYOT-K 000000000000KO325038
BI00B32D1    @DFTW2230      20220602181E50036ZZ              AVSSCS-S 0.3FX2 DGY      CCN000002450000002450FN00000000020220701000002450NNE   20220430150352    1W    00000035000002165000000000032D1    TOYOT-K 000000000000KO325036
BI00B32D2    DGTW2230       2022060218000004530              AV 8 B                   CCN000017400000017400FN00000000020220701000017400NNE   20220430151920    1W    00000010000010466200000000032D2    TGYOT-G 000000000000KR325030
BI00B32D2    DGTW2230       2022060218000004540              AV 8 W                   CCN000005500000005500FN00000000020220701000005500NNE   20220430151920    1W    00000010000010466200000000032D2    TGYOT-G 000000000000KR325032
BI00B32D2    DGTW2230       2022060218000004543              AV 8 W/B                 CCN000002600000002600FN00000000020220701000002600NNE   20220430151920    1W    00000010000010466200000000032D2    TGYOT-G 000000000000KR325033
BI00B32D2    DGTW2230       2022060218000004590              AV 8 L                   CCN000003600000003600FN00000000020220701000003600NNE   20220430151920    1W    00000010000010466200000000032D2    TGYOT-G 000000000000KR325031
BI00B32D2    @DGTW2230      20220602181AD2002ZZ              CIVUSAS-S 0.35X2 B       CCN000009000000009000FN00000000020220701000009000NNE   20220430151917    1W    00000045000001713700000000032D2    TGYOT-G 000000000000KR325005
BI00B32D2    @DGTW2230      20220602181AD2003ZZ              CIVUSAS-S 0.35X3 B       CCN000005250000005250FN00000000020220701000005250NNE   20220430151917    1W    00000035000002172100000000032D2    TGYOT-G 000000000000KR325006
BI00B32D2    @DGTW2230      20220602181AD2004ZZ              CIVUSAS-S 0.35X4 B       CCN000006000000006000FN00000000020220701000006000NNE   20220430151917    1W    00000030000002799900000000032D2    TGYOT-G 000000000000KR325007
BI00B32D2    @DGTW2230      20220602181E48037ZZ              CAVSAS-S 0.3X4 GY        CCN000000750000000750FN00000000020220701000000750NNE   20220430151917    1W    00000025000003262000000000032D2    TGYOT-G 000000000000KR325008
BI00B32D2    @DGTW2230      20220602181E50004ZZ              AVSSCS-S 0.5FX1 DGY      CCN000005600000005600FN00000000020220701000005600NNE   20220430151917    1W    00000040000001909700000000032D2    TGYOT-G 000000000000KR325009
BI00B32D2    @DGTW2230      20220602181E50005ZZ              AVSSCS-S 0.5FX1 DGY/W    CCN000003600000003600FN00000000020220701000003600NNE   20220430151917    1W    00000040000001909700000000032D2    TGYOT-G 000000000000KR325011
BI00B32D2    @DGTW2230      20220602181E50007ZZ              AVSSCS-S 0.5FX1 DGY/L    CCN000001200000001200FN00000000020220701000001200NNE   20220430151917    1W    00000040000001909700000000032D2    TGYOT-G 000000000000KR325010
BI00B32D2    @DGTW2230      20220602181E50016ZZ              AVSSCS-S 0.5FX2 DGY/R    CCN000000900000000900FN00000000020220701000000900NNE   20220430151917    1W    00000030000003096000000000032D2    TGYOT-G 000000000000KR325012
BI00B32D2    @DGTW2230      20220602181E50036ZZ              AVSSCS-S 0.3FX2 DGY      CCN000001750000001750FN00000000020220701000001750NNE   20220430151917    1W    00000035000002165000000000032D2    TGYOT-G 000000000000KR325013
BI00B32D2    @DGTW2230      20220602181F21014ZZ              AVSSHCS-S 0.5FX2 B/L     CCN000001800000001800FN00000000020220701000001800NNE   20220430151917    1W    00000030000002531400000000032D2    TGYOT-G 000000000000KR325015
BI00B32D2    @DGTW2230      20220602181F21016ZZ              AVSSHCS-S 0.5FX2 B/BR    CCN000000900000000900FN00000000020220701000000900NNE   20220430151917    1W    00000030000002531400000000032D2    TGYOT-G 000000000000KR325014
BI00B32D2    @DGTW2230      20220602181F21031ZZ              AVSSHCS-S 1.25FX2 B/P    CCN000001000000001000FN00000000020220701000001000NNE   20220430151917    1W    00000020000004267300000000032D2    TGYOT-G 000000000000KR325016
BI00B32D2    DGTW2230B      2022052618000004530              AV 8 B                   CCN000026300000026300FN00000000020220701000026300NNE   20220430152036    1W    00000010000010466200000000032D2    TGYOT-G 000000000000KP225029
BI00B32D2    DGTW2230B      2022052618000004540              AV 8 W                   CCN000006800000006800FN00000000020220701000006800NNE   20220430152036    1W    00000010000010466200000000032D2    TGYOT-G 000000000000KP225031
BI00B32D2    DGTW2230B      2022052618000004543              AV 8 W/B                 CCN000002300000002300FN00000000020220701000002300NNE   20220430152036    1W    00000010000010466200000000032D2    TGYOT-G 000000000000KP225032
BI00B32D2    DGTW2230B      2022052618000004590              AV 8 L                   CCN000010200000010200FN00000000020220701000010200NNE   20220430152036    1W    00000010000010466200000000032D2    TGYOT-G 000000000000KP225030
BI00B32D2    @DGTW2230B     20220526181AD2002ZZ              CIVUSAS-S 0.35X2 B       CCN000017550000017550FN00000000020220701000017550NNE   20220430152034    1W    00000045000001713700000000032D2    TGYOT-G 000000000000KP225005
BI00B32D2    @DGTW2230B     20220526181AD2003ZZ              CIVUSAS-S 0.35X3 B       CCN000013650000013650FN00000000020220701000013650NNE   20220430152034    1W    00000035000002172100000000032D2    TGYOT-G 000000000000KP225006
BI00B32D2    @DGTW2230B     20220526181AD2004ZZ              CIVUSAS-S 0.35X4 B       CCN000015600000015600FN00000000020220701000015600NNE   20220430152034    1W    00000030000002799900000000032D2    TGYOT-G 000000000000KP225007
BI00B32D2    @DGTW2230B     20220526181E50004ZZ              AVSSCS-S 0.5FX1 DGY      CCN000008000000008000FN00000000020220701000008000NNE   20220430152034    1W    00000040000001909700000000032D2    TGYOT-G 000000000000KP225008
BI00B32D2    @DGTW2230B     20220526181E50005ZZ              AVSSCS-S 0.5FX1 DGY/W    CCN000008000000008000FN00000000020220701000008000NNE   20220430152034    1W    00000040000001909700000000032D2    TGYOT-G 000000000000KP225010
BI00B32D2    @DGTW2230B     20220526181E50007ZZ              AVSSCS-S 0.5FX1 DGY/L    CCN000001600000001600FN00000000020220701000001600NNE   20220430152034    1W    00000040000001909700000000032D2    TGYOT-G 000000000000KP225009
BI00B32D2    @DGTW2230B     20220526181E50016ZZ              AVSSCS-S 0.5FX2 DGY/R    CCN000000900000000900FN00000000020220701000000900NNE   20220430152034    1W    00000030000003096000000000032D2    TGYOT-G 000000000000KP225011
BI00B32D2    @DGTW2230B     20220526181E50036ZZ              AVSSCS-S 0.3FX2 DGY      CCN000004900000004900FN00000000020220701000004900NNE   20220430152034    1W    00000035000002165000000000032D2    TGYOT-G 000000000000KP225012
BI00B32D2    @DGTW2230B     20220526181F21014ZZ              AVSSHCS-S 0.5FX2 B/L     CCN000001500000001500FN00000000020220701000001500NNE   20220430152034    1W    00000030000002531400000000032D2    TGYOT-G 000000000000KP225014
BI00B32D2    @DGTW2230B     20220526181F21016ZZ              AVSSHCS-S 0.5FX2 B/BR    CCN000000900000000900FN00000000020220701000000900NNE   20220430152034    1W    00000030000002531400000000032D2    TGYOT-G 000000000000KP225013
BI00B32D2    @DGTW2230B     20220526181F21031ZZ              AVSSHCS-S 1.25FX2 B/P    CCN000002800000002800FN00000000020220701000002800NNE   20220430152034    1W    00000020000004267300000000032D2    TGYOT-G 000000000000KP225015
BI00B32G2    SA2206A MW     2022052518007704040              AVSS 0.75F W             CCN000002000000002000FN00000000020220601000002000NNE   20220430165901    1W    00000100000000943000000000032G2    AISUAI  000000000000IO225007
BI00B32G2    SA2206A MW     202205251801W006943              IVSSH 0.35F W/B          CCN000005000000005000FN00000000020220601000005000NNE   20220430165901    1W    00000250000000452000000000032G2    AISUAI  000000000000IO225008
BI00B32G2    @SA2206A MW    20220525181B32102S1              AVSSCS 0.5FX2 DGY        CCN000000300000000300FN00000000020220601000000300NNE   20220430165859    1W    00000030000002903000000000032G2    AISUAI  000000000000IO225003
BI00B32G2    @SA2206A MW    20220525181B32102Y6              AVSSCS 0.5FX2 DGY/G      CCN000000600000000600FN00000000020220601000000600NNE   20220430165859    1W    00000030000002903000000000032G2    AISUAI  000000000000IO225004
BI00B32G2    @SA2206A MW    20220525181D6903930              AVSSHCS 0.5FX1 B         CCN000000800000000800FN00000000020220601000000800NNE   20220430165859    1W    00000040000002285000000000032G2    AISUAI  000000000000IO225005
BI00B32G2    @SA2206A MW    20220525181D6910230              AVSSHCS 0.5FX2 B         CCN000002400000002400FN00000000020220601000002400NNE   20220430165859    1W    00000030000002385000000000032G2    AISUAI  000000000000IO225006
BI00B32G2    SA2206ANMW     2022051818007704061              AVSS 0.75F LG            CCN000001000000001000FN00000000020220601000001000NNE   20220430165902    1W    00000100000000943000000000032G2    AISUAI  000000000000IQ125001
BI00B32G2    @SA2206ANMW    20220525181B32102Z8              AVSSCS 0.5FX2 DGY/O      CCN000000600000000600FN00000000020220601000000600NNE   20220430165900    1W    00000030000002779000000000032G2    AISUAI  000000000000IS225001
BI00B32G2    @SA2206ANMW    20220525181E50012ZZ              AVSSCS-S 0.5FX2 DGY/G    CCN000000300000000300FN00000000020220601000000300NNE   20220430165900    1W    00000030000003096000000000032G2    AISUAI  000000000000IS225002
BI00B32G2    SA2206BJMW     202205251801W004050              IVSSH 0.75F R            CCN000001300000001300FN00000000020220601000001300NNE   20220430165902    1W    00000130000000882000000000032G2    AISUAI  000000000000IP225002
BI00B32G2    SA2206BJMW     202205251801W006970              IVSSH 0.35F Y            CCN000002500000002500FN00000000020220601000002500NNE   20220430165902    1W    00000250000000452000000000032G2    AISUAI  000000000000IP225003
BI00B32J1    @394114        20220523181AD2002ZZ              CIVUSAS-S 0.35X2 B       CCN000030600000030600FN00000000020220501000030600NNE   20220430103929    1W    00000045000001713700000000032J1    UKYEL-BL000000000000KG225001
BI00B32J1    @394114        20220523181E48012ZZ              CAVSAS-S 0.3X1 GY        CCN000001000000001000FN00000000020220501000001000NNE   20220430103929    1W    00000050000001529500000000032J1    UKYEL-BL000000000000KG225002
BI00B32J1    @394114        20220523181E48013ZZ              CAVSAS-S 0.3X3 GY        CCN000001250000001250FN00000000020220501000001250NNE   20220430103929    1W    00000025000002778200000000032J1    UKYEL-BL000000000000KG225012
BI00B32J1    @394114        20220523181E48015ZZ              CAVSAS-S 0.5X1 GY        CCN000001600000001600FN00000000020220501000001600NNE   20220430103929    1W    00000040000001900600000000032J1    UKYEL-BL000000000000KG225003
BI00B32J1    @394114        20220523181E48018ZZ              CAVSAS-S 0.5X2 GY/SB     CCN000000600000000600FN00000000020220501000000600NNE   20220430103929    1W    00000030000002561000000000032J1    UKYEL-BL000000000000KG225006
BI00B32J1    @394114        20220523181E48022ZZ              CAVSAS-S 0.5X2 GY        CCN000001500000001500FN00000000020220501000001500NNE   20220430103929    1W    00000030000002561000000000032J1    UKYEL-BL000000000000KG225004
BI00B32J1    @394114        20220523181E48027ZZ              CAVSAS-S 0.5X2 GY/P      CCN000000600000000600FN00000000020220501000000600NNE   20220430103929    1W    00000030000002561000000000032J1    UKYEL-BL000000000000KG225005
BI00B32J1    @394114        20220523181E48029ZZ              CAVSAS-S 0.5X4 GY        CCN000001000000001000FN00000000020220501000001000NNE   20220430103929    1W    00000020000003995000000000032J1    UKYEL-BL000000000000KG225009
BI00B32J1    @394114        20220523181E48031ZZ              CAVSAS-S 0.3X2 GY        CCN000001750000001750FN00000000020220501000001750NNE   20220430103929    1W    00000035000002008700000000032J1    UKYEL-BL000000000000KG225011
BI00B32J1    @394114        20220523181E48033ZZ              CAVSAS-S 0.5X3 GY/B      CCN000001400000001400FN00000000020220501000001400NNE   20220430103929    1W    00000020000003795300000000032J1    UKYEL-BL000000000000KG225008
BI00B32J1    @394114        20220523181E48035ZZ              CAVSAS-S 0.5X3 GY        CCN000001200000001200FN00000000020220501000001200NNE   20220430103929    1W    00000020000003795300000000032J1    UKYEL-BL000000000000KG225007
BI00B32J1    @394114        20220523181E48065ZZ              CAVSAS-S 0.5X4 GY/W      CCN000000800000000800FN00000000020220501000000800NNE   20220430103929    1W    00000020000003995000000000032J1    UKYEL-BL000000000000KG225010
BI00A32J1    @394098        20220505181E48018ZZ              CAVSAS-S 0.5X2 GY/SB     CCN000002100000002100FN00000000020220501000002100NNE   20220430160425    1W    00000030000002561000000000032J1    UKYEL-BL000000000000KE424001
BI00A32J1    @394195        20220505181E48027ZZ              CAVSAS-S 0.5X2 GY/P      CCN000001500000001500FN00000000020220501000001500NNE   20220430160423    1W    00000030000002561000000000032J1    UKYEL-BL000000000000KF424001
BI00B32M1    @TV205C        20220526181E48037ZZ              CAVSAS-S 0.3X4 GY        CCN000003750000003750FN00000000020220501000003750NNE   20220430170152    1W    00000025000003262000000000032M1    VNYEV   000000000000VC225001
BI00B32M8    PM2206ATMW     202205181801W006961              IVSSH 0.35F LG           CCN000002500000002500FN00000000020220601000002500NNE   20220430170309    1W    00000250000000452000000000032M8    PMPEMI  000000000000IB125001
BI00B32M8    @PM2206ATMW    20220525181CQ7003ZZ              IVSSHCS-S 0.5FX2 B(B,W)  CCN000000600000000600FN00000000020220601000000600NNE   20220430170308    1W    00000030000002350200000000032M8    PMPEMI  000000000000IF225001
BI00B32M8    @PM2206ATMW    20220525181CQ7004ZZ              IVSSHCS-S 0.5FX2 B(R,G)  CCN000002100000002100FN00000000020220601000002100NNE   20220430170308    1W    00000030000002350200000000032M8    PMPEMI  000000000000IF225002
BI00B32N2    2152103968     2022060118007703929              AVSS 0.5F LG/W           CCN000001500000001500FN00000000020220301000001500NNE   20220430170422    1W    00000150000000674000000000032N2    YWYIPLTC000000000000KU325006
BI00B32N2    2152103968     2022060118007703930              AVSS 0.5F B              CCN000001500000001500FN00000000020220301000001500NNE   20220430170422    1W    00000150000000674000000000032N2    YWYIPLTC000000000000KU325002
BI00B32N2    2152103968     2022060118007703960              AVSS 0.5F G              CCN000003000000003000FN00000000020220301000003000NNE   20220430170422    1W    00000150000000674000000000032N2    YWYIPLTC000000000000KU325004
BI00B32N2    2152103968     2022060118007703970              AVSS 0.5F Y              CCN000001500000001500FN00000000020220301000001500NNE   20220430170422    1W    00000150000000674000000000032N2    YWYIPLTC000000000000KU325007
BI00B32N2    2152103968     2022060118007703975              AVSS 0.5F Y/R            CCN000001500000001500FN00000000020220301000001500NNE   20220430170422    1W    00000150000000674000000000032N2    YWYIPLTC000000000000KU325008
BI00B32N2    2152103968     2022060118007703984              AVSS 0.5F BR/W           CCN000003000000003000FN00000000020220301000003000NNE   20220430170422    1W    00000150000000674000000000032N2    YWYIPLTC000000000000KU325003
BI00B32N2    2152103968     2022060118007703990              AVSS 0.5F L              CCN000003000000003000FN00000000020220301000003000NNE   20220430170422    1W    00000150000000674000000000032N2    YWYIPLTC000000000000KU325005
BI00B32N2    2152103968     2022060118007704190              AVSS 1.25F L             CCN000001600000001600FN00000000020220301000001600NNE   20220430170422    1W    00000080000001389000000000032N2    YWYIPLTC000000000000KU325009
BI00B32N2    2152103968     2022060118007704195              AVSS 1.25F L/R           CCN000000800000000800FN00000000020220301000000800NNE   20220430170422    1W    00000080000001389000000000032N2    YWYIPLTC000000000000KU325010
BI00B32N2    2152103968     20220601180D0203970              AVSSH 0.5F Y             CCN000001500000001500FN00000000020220301000001500NNE   20220430170422    1W    00000150000000689000000000032N2    YWYIPLTC000000000000KU325001
BI00B32P8    TAPAW-207A1    2022052518007703770              AVSS 0.3F Y              CCN000004000000004000FN00000000020220701000004000NNE   20220430170538    1W    00000200000000496000000000032P8    YIYTM   000000000000YM225020
BI00B32P8    TAPAW-207A1    20220525180D0203959              AVSSH 0.5F R/L           CCN000004500000004500FN00000000020220701000004500NNE   20220430170538    1W    00000150000000689000000000032P8    YIYTM   000000000000YM225015
BI00B32P8    TAPAW-207A1    20220525180D0203957              AVSSH 0.5F R/Y           CCN000001500000001500FN00000000020220701000001500NNE   20220430170538    1W    00000150000000689000000000032P8    YIYTM   000000000000YM225016
BI00B32P8    TAPAW-207A1    20220525180D0203945              AVSSH 0.5F W/R           CCN000001500000001500FN00000000020220701000001500NNE   20220430170538    1W    00000150000000689000000000032P8    YIYTM   000000000000YM225017
BI00B32P8    TAPAW-207A1    20220525180D0203975              AVSSH 0.5F Y/R           CCN000003000000003000FN00000000020220701000003000NNE   20220430170538    1W    00000150000000689000000000032P8    YIYTM   000000000000YM225018
BI00B32P8    TAPAW-207A1    20220525180D0204180              AVSSH 1.25F BR           CCN000004800000004800FN00000000020220701000004800NNE   20220430170538    1W    00000080000001458000000000032P8    YIYTM   000000000000YM225019
BI00B32P8    TAPAW-207A1    202205251801W003970              IVSSH 0.5F Y             CCN000021600000021600FN00000000020220701000021600NNE   20220430170538    1W    00000180000000625000000000032P8    YIYTM   000000000000YM225021
BI00B32P8    @TAPAW-207A1   20220525181E50011ZZ              AVSSCS-S 0.5FX2 DGY/Y    CCN000000600000000600FN00000000020220701000000600NNE   20220430170537    1W    00000030000003096000000000032P8    YIYTM   000000000000YM225012
BI00B32P8    @TAPAW-207A1   20220525181F21013ZZ              AVSSHCS-S 0.5FX2 B/Y     CCN000003600000003600FN00000000020220701000003600NNE   20220430170537    1W    00000030000002531400000000032P8    YIYTM   000000000000YM225013
BI00B32P8    @TAPAW-207A1   20220525181F21029ZZ              AVSSHCS-S 1.25FX2 B/Y    CCN000004200000004200FN00000000020220701000004200NNE   20220430170537    1W    00000020000004267300000000032P8    YIYTM   000000000000YM225014
BI00B32P8    @TAPAW-207A1   20220525181AD2008ZZ              CIVUSAS-S 0.5X2 B        CCN000090000000090000FN00000000020220701000090000NNE   20220430170537    1W    00000040000002028000000000032P8    YIYTM   000000000000YM225011
BI00B32P8    TAPAW-2074     2022062218000004530              AV 8 B                   CCN000008000000008000FN00000000020220701000008000NNM   20220430171317    1W    00000010000010466200000000032P8    YIYTM   000000000000YT226058
BI00B32P8    TAPAW-2075     2022062918000004530              AV 8 B                   CCN000011000000011000FN00000000020220701000011000NNM   20220430171317    1W    00000010000010466200000000032P8    YIYTM   000000000000YT326060
BI00B32P8    TAPAW-2074     2022062218000004560              AV 8 G                   CCN000006700000006700FN00000000020220701000006700NNM   20220430171317    1W    00000010000010466200000000032P8    YIYTM   000000000000YT226059
BI00B32P8    TAPAW-2075     2022062918000004560              AV 8 G                   CCN000008200000008200FN00000000020220701000008200NNM   20220430171317    1W    00000010000010466200000000032P8    YIYTM   000000000000YT326061
BI00B32P8    TAPAW-2073     2022061518000004550              AV 8 R                   CCN000006200000006200FN00000000020220701000006200NNM   20220430171317    1W    00000010000010466200000000032P8    YIYTM   000000000000YT126046
BI00B32P8    TAPAW-2074     2022062218000004550              AV 8 R                   CCN000009200000009200FN00000000020220701000009200NNM   20220430171317    1W    00000010000010466200000000032P8    YIYTM   000000000000YT226061
BI00B32P8    TAPAW-2075     2022062918000004550              AV 8 R                   CCN000009000000009000FN00000000020220701000009000NNM   20220430171317    1W    00000010000010466200000000032P8    YIYTM   000000000000YT326063
BI00B32P8    TAPAW-2071     2022060118000004540              AV 8 W                   CCN000000400000000400FN00000000020220701000000400NNM   20220430171317    1W    00000010000010466200000000032P8    YIYTM   000000000000YT325019
BI00B32P8    TAPAW-2072     2022060818000004540              AV 8 W                   CCN000013100000013100FN00000000020220701000013100NNM   20220430171317    1W    00000010000010466200000000032P8    YIYTM   000000000000YT425036
BI00B32P8    TAPAW-2073     2022061518000004540              AV 8 W                   CCN000013100000013100FN00000000020220701000013100NNM   20220430171317    1W    00000010000010466200000000032P8    YIYTM   000000000000YT126047
BI00B32P8    TAPAW-2074     2022062218000004540              AV 8 W                   CCN000013100000013100FN00000000020220701000013100NNM   20220430171317    1W    00000010000010466200000000032P8    YIYTM   000000000000YT226062
BI00B32P8    TAPAW-2075     2022062918000004540              AV 8 W                   CCN000012500000012500FN00000000020220701000012500NNM   20220430171317    1W    00000010000010466200000000032P8    YIYTM   000000000000YT326064
BI00B32P8    TAPAW-2074     2022062218000004543              AV 8 W/B                 CCN000003200000003200FN00000000020220701000003200NNM   20220430171317    1W    00000010000010466200000000032P8    YIYTM   000000000000YT226063
BI00B32P8    TAPAW-2075     2022062918000004543              AV 8 W/B                 CCN000003700000003700FN00000000020220701000003700NNM   20220430171317    1W    00000010000010466200000000032P8    YIYTM   000000000000YT326065
BI00B32P8    TAPAW-2073     2022061518009604030              AVS 0.85 B               CCN000001000000001000FN00000000020220701000001000NNM   20220430171317    1W    00000100000001167700000000032P8    YIYTM   000000000000YT126051
BI00B32P8    TAPAW-2075     2022062918007703760              AVSS 0.3F G              CCN000002000000002000FN00000000020220701000002000NNM   20220430171317    1W    00000200000000496000000000032P8    YIYTM   000000000000YT326067
BI00B32P8    TAPAW-2071     2022060118007703765              AVSS 0.3F G/R            CCN000004000000004000FN00000000020220701000004000NNM   20220430171317    1W    00000200000000496000000000032P8    YIYTM   000000000000YT325020
BI00B32P8    TAPAW-2073     2022061518007703765              AVSS 0.3F G/R            CCN000002000000002000FN00000000020220701000002000NNM   20220430171317    1W    00000200000000496000000000032P8    YIYTM   000000000000YT126049
BI00B32P8    TAPAW-2074     2022062218007703765              AVSS 0.3F G/R            CCN000002000000002000FN00000000020220701000002000NNM   20220430171317    1W    00000200000000496000000000032P8    YIYTM   000000000000YT226065
BI00B32P8    TAPAW-2075     2022062918007703765              AVSS 0.3F G/R            CCN000002000000002000FN00000000020220701000002000NNM   20220430171317    1W    00000200000000496000000000032P8    YIYTM   000000000000YT326068
BI00B32P8    TAPAW-2075     2022062918007703767              AVSS 0.3F G/Y            CCN000004000000004000FN00000000020220701000004000NNM   20220430171317    1W    00000200000000496000000000032P8    YIYTM   000000000000YT326069
BI00B32P8    TAPAW-2072     2022060818007703790              AVSS 0.3F L              CCN000002000000002000FN00000000020220701000002000NNM   20220430171317    1W    00000200000000496000000000032P8    YIYTM   000000000000YT425037
BI00B32P8    TAPAW-2075     2022062918007703793              AVSS 0.3F L/B            CCN000002000000002000FN00000000020220701000002000NNM   20220430171317    1W    00000200000000496000000000032P8    YIYTM   000000000000YT326070
BI00B32P8    TAPAW-2071     2022060118007703795              AVSS 0.3F L/R            CCN000002000000002000FN00000000020220701000002000NNM   20220430171317    1W    00000200000000496000000000032P8    YIYTM   000000000000YT325021
BI00B32P8    TAPAW-2074     2022062218007703795              AVSS 0.3F L/R            CCN000002000000002000FN00000000020220701000002000NNM   20220430171317    1W    00000200000000496000000000032P8    YIYTM   000000000000YT226066
BI00B32P8    TAPAW-2071     2022060118007703751              AVSS 0.3F O              CCN000002000000002000FN00000000020220701000002000NNM   20220430171317    1W    00000200000000496000000000032P8    YIYTM   000000000000YT325022
BI00B32P8    TAPAW-2075     2022062918007703751              AVSS 0.3F O              CCN000002000000002000FN00000000020220701000002000NNM   20220430171317    1W    00000200000000496000000000032P8    YIYTM   000000000000YT326071
BI00B32P8    TAPAW-2073     2022061518007703740              AVSS 0.3F W              CCN000002000000002000FN00000000020220701000002000NNM   20220430171317    1W    00000200000000496000000000032P8    YIYTM   000000000000YT126050
BI00B32P8    TAPAW-2074     2022062218007703770              AVSS 0.3F Y              CCN000002000000002000FN00000000020220701000002000NNM   20220430171317    1W    00000200000000496000000000032P8    YIYTM   000000000000YT226067
BI00B32P8    TAPAW-2074     2022062218007703773              AVSS 0.3F Y/B            CCN000002000000002000FN00000000020220701000002000NNM   20220430171317    1W    00000200000000496000000000032P8    YIYTM   000000000000YT226068
BI00B32P8    TAPAW-2072     2022060818007703775              AVSS 0.3F Y/R            CCN000002000000002000FN00000000020220701000002000NNM   20220430171317    1W    00000200000000496000000000032P8    YIYTM   000000000000YT425038
BI00B32P8    TAPAW-2074     2022062218007703775              AVSS 0.3F Y/R            CCN000002000000002000FN00000000020220701000002000NNM   20220430171317    1W    00000200000000496000000000032P8    YIYTM   000000000000YT226069
BI00B32P8    TAPAW-2074     2022062218007703963              AVSS 0.5F G/B            CCN000001500000001500FN00000000020220701000001500NNM   20220430171317    1W    00000150000000674000000000032P8    YIYTM   000000000000YT226070
BI00B32P8    TAPAW-2075     2022062918007703967              AVSS 0.5F G/Y            CCN000001500000001500FN00000000020220701000001500NNM   20220430171317    1W    00000150000000674000000000032P8    YIYTM   000000000000YT326072
BI00B32P8    TAPAW-2075     2022062918007703910              AVSS 0.5F GY/R           CCN000001500000001500FN00000000020220701000001500NNM   20220430171317    1W    00000150000000674000000000032P8    YIYTM   000000000000YT326073
BI00B32P8    TAPAW-2075     2022062918007703995              AVSS 0.5F L/R            CCN000001500000001500FN00000000020220701000001500NNM   20220430171317    1W    00000150000000674000000000032P8    YIYTM   000000000000YT326074
BI00B32P8    TAPAW-2074     2022062218007703940              AVSS 0.5F W              CCN000006000000006000FN00000000020220701000006000NNM   20220430171317    1W    00000150000000674000000000032P8    YIYTM   000000000000YT226071
BI00B32P8    TAPAW-2075     2022062918007703940              AVSS 0.5F W              CCN000010500000010500FN00000000020220701000010500NNM   20220430171317    1W    00000150000000674000000000032P8    YIYTM   000000000000YT326075
BI00B32P8    TAPAW-2074     2022062218007703945              AVSS 0.5F W/R            CCN000003000000003000FN00000000020220701000003000NNM   20220430171317    1W    00000150000000674000000000032P8    YIYTM   000000000000YT226072
BI00B32P8    TAPAW-2075     2022062918007703945              AVSS 0.5F W/R            CCN000004500000004500FN00000000020220701000004500NNM   20220430171317    1W    00000150000000674000000000032P8    YIYTM   000000000000YT326076
BI00B32P8    TAPAW-2075     2022062918007703973              AVSS 0.5F Y/B            CCN000003000000003000FN00000000020220701000003000NNM   20220430171317    1W    00000150000000674000000000032P8    YIYTM   000000000000YT326077
BI00B32P8    TAPAW-2075     2022062918007704039              AVSS 0.75F B/L           CCN000003000000003000FN00000000020220701000003000NNM   20220430171317    1W    00000100000000943000000000032P8    YIYTM   000000000000YT326078
BI00B32P8    TAPAW-2075     2022062918007704065              AVSS 0.75F G/R           CCN000005000000005000FN00000000020220701000005000NNM   20220430171317    1W    00000100000000943000000000032P8    YIYTM   000000000000YT326079
BI00B32P8    TAPAW-2074     2022062218007704061              AVSS 0.75F LG            CCN000001000000001000FN00000000020220701000001000NNM   20220430171317    1W    00000100000000943000000000032P8    YIYTM   000000000000YT226073
BI00B32P8    TAPAW-2075     2022062918007704061              AVSS 0.75F LG            CCN000002000000002000FN00000000020220701000002000NNM   20220430171317    1W    00000100000000943000000000032P8    YIYTM   000000000000YT326081
BI00B32P8    TAPAW-2074     2022062218007704053              AVSS 0.75F R/B           CCN000001000000001000FN00000000020220701000001000NNM   20220430171317    1W    00000100000000943000000000032P8    YIYTM   000000000000YT226074
BI00B32P8    TAPAW-2075     2022062918007704053              AVSS 0.75F R/B           CCN000003000000003000FN00000000020220701000003000NNM   20220430171317    1W    00000100000000943000000000032P8    YIYTM   000000000000YT326082
BI00B32P8    TAPAW-2075     2022062918007704057              AVSS 0.75F R/Y           CCN000004000000004000FN00000000020220701000004000NNM   20220430171317    1W    00000100000000943000000000032P8    YIYTM   000000000000YT326083
BI00B32P8    TAPAW-2074     2022062218007704092              AVSS 0.75F V             CCN000001000000001000FN00000000020220701000001000NNM   20220430171317    1W    00000100000000943000000000032P8    YIYTM   000000000000YT226075
BI00B32P8    TAPAW-2075     2022062918007704092              AVSS 0.75F V             CCN000006000000006000FN00000000020220701000006000NNM   20220430171317    1W    00000100000000943000000000032P8    YIYTM   000000000000YT326084
BI00B32P8    TAPAW-2075     2022062918007704130              AVSS 1.25F B             CCN000014400000014400FN00000000020220701000014400NNM   20220430171317    1W    00000080000001389000000000032P8    YIYTM   000000000000YT326085
BI00B32P8    TAPAW-2075     2022062918007704134              AVSS 1.25F B/W           CCN000003200000003200FN00000000020220701000003200NNM   20220430171317    1W    00000080000001389000000000032P8    YIYTM   000000000000YT326086
BI00B32P8    TAPAW-2075     2022062918007704152              AVSS 1.25F P             CCN000000800000000800FN00000000020220701000000800NNM   20220430171317    1W    00000080000001389000000000032P8    YIYTM   000000000000YT326087
BI00B32P8    TAPAW-2074     2022062218007704173              AVSS 1.25F Y/B           CCN000000800000000800FN00000000020220701000000800NNM   20220430171317    1W    00000080000001389000000000032P8    YIYTM   000000000000YT226076
BI00B32P8    TAPAW-2075     2022062918007704173              AVSS 1.25F Y/B           CCN000002400000002400FN00000000020220701000002400NNM   20220430171317    1W    00000080000001389000000000032P8    YIYTM   000000000000YT326089
BI00B32P8    TAPAW-2075     20220629180D0203930              AVSSH 0.5F B             CCN000007500000007500FN00000000020220701000007500NNM   20220430171317    1W    00000150000000689000000000032P8    YIYTM   000000000000YT326047
BI00B32P8    TAPAW-2072     20220608180D0203935              AVSSH 0.5F B/R           CCN000003000000003000FN00000000020220701000003000NNM   20220430171317    1W    00000150000000689000000000032P8    YIYTM   000000000000YT425025
BI00B32P8    TAPAW-2073     20220615180D0203935              AVSSH 0.5F B/R           CCN000003000000003000FN00000000020220701000003000NNM   20220430171317    1W    00000150000000689000000000032P8    YIYTM   000000000000YT126035
BI00B32P8    TAPAW-2074     20220622180D0203935              AVSSH 0.5F B/R           CCN000004500000004500FN00000000020220701000004500NNM   20220430171317    1W    00000150000000689000000000032P8    YIYTM   000000000000YT226044
BI00B32P8    TAPAW-2075     20220629180D0203935              AVSSH 0.5F B/R           CCN000003000000003000FN00000000020220701000003000NNM   20220430171317    1W    00000150000000689000000000032P8    YIYTM   000000000000YT326048
BI00B32P8    TAPAW-2072     20220608180D0203990              AVSSH 0.5F L             CCN000001500000001500FN00000000020220701000001500NNM   20220430171317    1W    00000150000000689000000000032P8    YIYTM   000000000000YT425026
BI00B32P8    TAPAW-2073     20220615180D0203990              AVSSH 0.5F L             CCN000007500000007500FN00000000020220701000007500NNM   20220430171317    1W    00000150000000689000000000032P8    YIYTM   000000000000YT126036
BI00B32P8    TAPAW-2074     20220622180D0203990              AVSSH 0.5F L             CCN000006000000006000FN00000000020220701000006000NNM   20220430171317    1W    00000150000000689000000000032P8    YIYTM   000000000000YT226045
BI00B32P8    TAPAW-2075     20220629180D0203990              AVSSH 0.5F L             CCN000007500000007500FN00000000020220701000007500NNM   20220430171317    1W    00000150000000689000000000032P8    YIYTM   000000000000YT326049
BI00B32P8    TAPAW-2071     20220601180D0203995              AVSSH 0.5F L/R           CCN000001500000001500FN00000000020220701000001500NNM   20220430171317    1W    00000150000000689000000000032P8    YIYTM   000000000000YT325014
BI00B32P8    TAPAW-2075     20220629180D0203995              AVSSH 0.5F L/R           CCN000001500000001500FN00000000020220701000001500NNM   20220430171317    1W    00000150000000689000000000032P8    YIYTM   000000000000YT326050
BI00B32P8    TAPAW-2073     20220615180D0203959              AVSSH 0.5F R/L           CCN000001500000001500FN00000000020220701000001500NNM   20220430171317    1W    00000150000000689000000000032P8    YIYTM   000000000000YT126037
BI00B32P8    TAPAW-2075     20220629180D0203959              AVSSH 0.5F R/L           CCN000001500000001500FN00000000020220701000001500NNM   20220430171317    1W    00000150000000689000000000032P8    YIYTM   000000000000YT326051
BI00B32P8    TAPAW-2072     20220608180D0203954              AVSSH 0.5F R/W           CCN000001500000001500FN00000000020220701000001500NNM   20220430171317    1W    00000150000000689000000000032P8    YIYTM   000000000000YT425027
BI00B32P8    TAPAW-2073     20220615180D0203954              AVSSH 0.5F R/W           CCN000004500000004500FN00000000020220701000004500NNM   20220430171317    1W    00000150000000689000000000032P8    YIYTM   000000000000YT126038
BI00B32P8    TAPAW-2074     20220622180D0203954              AVSSH 0.5F R/W           CCN000003000000003000FN00000000020220701000003000NNM   20220430171317    1W    00000150000000689000000000032P8    YIYTM   000000000000YT226046
BI00B32P8    TAPAW-2075     20220629180D0203954              AVSSH 0.5F R/W           CCN000003000000003000FN00000000020220701000003000NNM   20220430171317    1W    00000150000000689000000000032P8    YIYTM   000000000000YT326052
BI00B32P8    TAPAW-2072     20220608180D0203945              AVSSH 0.5F W/R           CCN000001500000001500FN00000000020220701000001500NNM   20220430171317    1W    00000150000000689000000000032P8    YIYTM   000000000000YT425028
BI00B32P8    TAPAW-2074     20220622180D0203945              AVSSH 0.5F W/R           CCN000001500000001500FN00000000020220701000001500NNM   20220430171317    1W    00000150000000689000000000032P8    YIYTM   000000000000YT226047
BI00B32P8    TAPAW-2071     20220601180D0203970              AVSSH 0.5F Y             CCN000003000000003000FN00000000020220701000003000NNM   20220430171317    1W    00000150000000689000000000032P8    YIYTM   000000000000YT325015
BI00B32P8    TAPAW-2072     20220608180D0203970              AVSSH 0.5F Y             CCN000006000000006000FN00000000020220701000006000NNM   20220430171317    1W    00000150000000689000000000032P8    YIYTM   000000000000YT425029
BI00B32P8    TAPAW-2073     20220615180D0203970              AVSSH 0.5F Y             CCN000007500000007500FN00000000020220701000007500NNM   20220430171317    1W    00000150000000689000000000032P8    YIYTM   000000000000YT126039
BI00B32P8    TAPAW-2074     20220622180D0203970              AVSSH 0.5F Y             CCN000006000000006000FN00000000020220701000006000NNM   20220430171317    1W    00000150000000689000000000032P8    YIYTM   000000000000YT226048
BI00B32P8    TAPAW-2075     20220629180D0203970              AVSSH 0.5F Y             CCN000006000000006000FN00000000020220701000006000NNM   20220430171317    1W    00000150000000689000000000032P8    YIYTM   000000000000YT326053
BI00B32P8    TAPAW-2074     20220622180D0203973              AVSSH 0.5F Y/B           CCN000001500000001500FN00000000020220701000001500NNM   20220430171317    1W    00000150000000689000000000032P8    YIYTM   000000000000YT226049
BI00B32P8    TAPAW-2072     20220608180D0203975              AVSSH 0.5F Y/R           CCN000001500000001500FN00000000020220701000001500NNM   20220430171317    1W    00000150000000689000000000032P8    YIYTM   000000000000YT425030
BI00B32P8    TAPAW-2074     20220622180D0203975              AVSSH 0.5F Y/R           CCN000001500000001500FN00000000020220701000001500NNM   20220430171317    1W    00000150000000689000000000032P8    YIYTM   000000000000YT226050
BI00B32P8    TAPAW-2072     20220608180D0204030              AVSSH 0.75F B            CCN000001000000001000FN00000000020220701000001000NNM   20220430171317    1W    00000100000000934000000000032P8    YIYTM   000000000000YT425031
BI00B32P8    TAPAW-2073     20220615180D0204030              AVSSH 0.75F B            CCN000001000000001000FN00000000020220701000001000NNM   20220430171317    1W    00000100000000934000000000032P8    YIYTM   000000000000YT126040
BI00B32P8    TAPAW-2074     20220622180D0204030              AVSSH 0.75F B            CCN000001000000001000FN00000000020220701000001000NNM   20220430171317    1W    00000100000000934000000000032P8    YIYTM   000000000000YT226051
BI00B32P8    TAPAW-2075     20220629180D0204030              AVSSH 0.75F B            CCN000001000000001000FN00000000020220701000001000NNM   20220430171317    1W    00000100000000934000000000032P8    YIYTM   000000000000YT326054
BI00B32P8    TAPAW-2073     20220615180D0204130              AVSSH 1.25F B            CCN000003200000003200FN00000000020220701000003200NNM   20220430171317    1W    00000080000001458000000000032P8    YIYTM   000000000000YT126041
BI00B32P8    TAPAW-2074     20220622180D0204130              AVSSH 1.25F B            CCN000006400000006400FN00000000020220701000006400NNM   20220430171317    1W    00000080000001458000000000032P8    YIYTM   000000000000YT226052
BI00B32P8    TAPAW-2075     20220629180D0204130              AVSSH 1.25F B            CCN000005600000005600FN00000000020220701000005600NNM   20220430171317    1W    00000080000001458000000000032P8    YIYTM   000000000000YT326055
BI00B32P8    TAPAW-2072     20220608180D0204180              AVSSH 1.25F BR           CCN000000800000000800FN00000000020220701000000800NNM   20220430171317    1W    00000080000001458000000000032P8    YIYTM   000000000000YT425032
BI00B32P8    TAPAW-2073     20220615180D0204180              AVSSH 1.25F BR           CCN000001600000001600FN00000000020220701000001600NNM   20220430171317    1W    00000080000001458000000000032P8    YIYTM   000000000000YT126042
BI00B32P8    TAPAW-2074     20220622180D0204180              AVSSH 1.25F BR           CCN000000800000000800FN00000000020220701000000800NNM   20220430171317    1W    00000080000001458000000000032P8    YIYTM   000000000000YT226053
BI00B32P8    TAPAW-2075     20220629180D0204180              AVSSH 1.25F BR           CCN000001600000001600FN00000000020220701000001600NNM   20220430171317    1W    00000080000001458000000000032P8    YIYTM   000000000000YT326056
BI00B32P8    TAPAW-2071     20220601180D0204160              AVSSH 1.25F G            CCN000008800000008800FN00000000020220701000008800NNM   20220430171317    1W    00000080000001458000000000032P8    YIYTM   000000000000YT325016
BI00B32P8    TAPAW-2072     20220608180D0204160              AVSSH 1.25F G            CCN000005600000005600FN00000000020220701000005600NNM   20220430171317    1W    00000080000001458000000000032P8    YIYTM   000000000000YT425033
BI00B32P8    TAPAW-2073     20220615180D0204160              AVSSH 1.25F G            CCN000005600000005600FN00000000020220701000005600NNM   20220430171317    1W    00000080000001458000000000032P8    YIYTM   000000000000YT126043
BI00B32P8    TAPAW-2074     20220622180D0204160              AVSSH 1.25F G            CCN000005600000005600FN00000000020220701000005600NNM   20220430171317    1W    00000080000001458000000000032P8    YIYTM   000000000000YT226054
BI00B32P8    TAPAW-2075     20220629180D0204160              AVSSH 1.25F G            CCN000005600000005600FN00000000020220701000005600NNM   20220430171317    1W    00000080000001458000000000032P8    YIYTM   000000000000YT326057
BI00B32P8    TAPAW-2071     20220601180D0204190              AVSSH 1.25F L            CCN000004800000004800FN00000000020220701000004800NNM   20220430171317    1W    00000080000001458000000000032P8    YIYTM   000000000000YT325017
BI00B32P8    TAPAW-2072     20220608180D0204190              AVSSH 1.25F L            CCN000004000000004000FN00000000020220701000004000NNM   20220430171317    1W    00000080000001458000000000032P8    YIYTM   000000000000YT425034
BI00B32P8    TAPAW-2073     20220615180D0204190              AVSSH 1.25F L            CCN000003200000003200FN00000000020220701000003200NNM   20220430171317    1W    00000080000001458000000000032P8    YIYTM   000000000000YT126044
BI00B32P8    TAPAW-2074     20220622180D0204190              AVSSH 1.25F L            CCN000004000000004000FN00000000020220701000004000NNM   20220430171317    1W    00000080000001458000000000032P8    YIYTM   000000000000YT226055
BI00B32P8    TAPAW-2075     20220629180D0204190              AVSSH 1.25F L            CCN000004000000004000FN00000000020220701000004000NNM   20220430171317    1W    00000080000001458000000000032P8    YIYTM   000000000000YT326058
BI00B32P8    TAPAW-2074     20220622180D0204150              AVSSH 1.25F R            CCN000000800000000800FN00000000020220701000000800NNM   20220430171317    1W    00000080000001458000000000032P8    YIYTM   000000000000YT226056
BI00B32P8    TAPAW-2071     20220601180D0204170              AVSSH 1.25F Y            CCN000005600000005600FN00000000020220701000005600NNM   20220430171317    1W    00000080000001458000000000032P8    YIYTM   000000000000YT325018
BI00B32P8    TAPAW-2072     20220608180D0204170              AVSSH 1.25F Y            CCN000003200000003200FN00000000020220701000003200NNM   20220430171317    1W    00000080000001458000000000032P8    YIYTM   000000000000YT425035
BI00B32P8    TAPAW-2073     20220615180D0204170              AVSSH 1.25F Y            CCN000004000000004000FN00000000020220701000004000NNM   20220430171317    1W    00000080000001458000000000032P8    YIYTM   000000000000YT126045
BI00B32P8    TAPAW-2074     20220622180D0204170              AVSSH 1.25F Y            CCN000003200000003200FN00000000020220701000003200NNM   20220430171317    1W    00000080000001458000000000032P8    YIYTM   000000000000YT226057
BI00B32P8    TAPAW-2075     20220629180D0204170              AVSSH 1.25F Y            CCN000003200000003200FN00000000020220701000003200NNM   20220430171317    1W    00000080000001458000000000032P8    YIYTM   000000000000YT326059
BI00B32P8    TAPAW-2071     202206011801W003980              IVSSH 0.5F BR            CCN000001800000001800FN00000000020220701000001800NNM   20220430171317    1W    00000180000000625000000000032P8    YIYTM   000000000000YT325024
BI00B32P8    TAPAW-2072     202206081801W003980              IVSSH 0.5F BR            CCN000007200000007200FN00000000020220701000007200NNM   20220430171317    1W    00000180000000625000000000032P8    YIYTM   000000000000YT425039
BI00B32P8    TAPAW-2073     202206151801W003980              IVSSH 0.5F BR            CCN000005400000005400FN00000000020220701000005400NNM   20220430171317    1W    00000180000000625000000000032P8    YIYTM   000000000000YT126053
BI00B32P8    TAPAW-2074     202206221801W003980              IVSSH 0.5F BR            CCN000007200000007200FN00000000020220701000007200NNM   20220430171317    1W    00000180000000625000000000032P8    YIYTM   000000000000YT226077
BI00B32P8    TAPAW-2075     202206291801W003980              IVSSH 0.5F BR            CCN000005400000005400FN00000000020220701000005400NNM   20220430171317    1W    00000180000000625000000000032P8    YIYTM   000000000000YT326090
BI00B32P8    TAPAW-2072     202206081801W003941              IVSSH 0.5F GY            CCN000001800000001800FN00000000020220701000001800NNM   20220430171317    1W    00000180000000625000000000032P8    YIYTM   000000000000YT425040
BI00B32P8    TAPAW-2073     202206151801W003941              IVSSH 0.5F GY            CCN000005400000005400FN00000000020220701000005400NNM   20220430171317    1W    00000180000000625000000000032P8    YIYTM   000000000000YT126054
BI00B32P8    TAPAW-2074     202206221801W003941              IVSSH 0.5F GY            CCN000005400000005400FN00000000020220701000005400NNM   20220430171317    1W    00000180000000625000000000032P8    YIYTM   000000000000YT226078
BI00B32P8    TAPAW-2075     202206291801W003941              IVSSH 0.5F GY            CCN000003600000003600FN00000000020220701000003600NNM   20220430171317    1W    00000180000000625000000000032P8    YIYTM   000000000000YT326091
BI00B32P8    TAPAW-2071     202206011801W003961              IVSSH 0.5F LG            CCN000003600000003600FN00000000020220701000003600NNM   20220430171317    1W    00000180000000625000000000032P8    YIYTM   000000000000YT325025
BI00B32P8    TAPAW-2072     202206081801W003961              IVSSH 0.5F LG            CCN000003600000003600FN00000000020220701000003600NNM   20220430171317    1W    00000180000000625000000000032P8    YIYTM   000000000000YT425041
BI00B32P8    TAPAW-2073     202206151801W003961              IVSSH 0.5F LG            CCN000001800000001800FN00000000020220701000001800NNM   20220430171317    1W    00000180000000625000000000032P8    YIYTM   000000000000YT126055
BI00B32P8    TAPAW-2074     202206221801W003961              IVSSH 0.5F LG            CCN000003600000003600FN00000000020220701000003600NNM   20220430171317    1W    00000180000000625000000000032P8    YIYTM   000000000000YT226079
BI00B32P8    TAPAW-2075     202206291801W003961              IVSSH 0.5F LG            CCN000001800000001800FN00000000020220701000001800NNM   20220430171317    1W    00000180000000625000000000032P8    YIYTM   000000000000YT326092
BI00B32P8    TAPAW-2072     202206081801W003970              IVSSH 0.5F Y             CCN000009000000009000FN00000000020220701000009000NNM   20220430171317    1W    00000180000000625000000000032P8    YIYTM   000000000000YT425042
BI00B32P8    TAPAW-2073     202206151801W003970              IVSSH 0.5F Y             CCN000009000000009000FN00000000020220701000009000NNM   20220430171317    1W    00000180000000625000000000032P8    YIYTM   000000000000YT126056
BI00B32P8    TAPAW-2074     202206221801W003970              IVSSH 0.5F Y             CCN000009000000009000FN00000000020220701000009000NNM   20220430171317    1W    00000180000000625000000000032P8    YIYTM   000000000000YT226080
BI00B32P8    TAPAW-2075     202206291801W003970              IVSSH 0.5F Y             CCN000009000000009000FN00000000020220701000009000NNM   20220430171317    1W    00000180000000625000000000032P8    YIYTM   000000000000YT326093
BI00B32P8    TAPAW-2074     202206221801W004090              IVSSH 0.75F L            CCN000002600000002600FN00000000020220701000002600NNM   20220430171317    1W    00000130000000882000000000032P8    YIYTM   000000000000YT226081
BI00B32P8    TAPAW-2075     202206291801W004090              IVSSH 0.75F L            CCN000003900000003900FN00000000020220701000003900NNM   20220430171317    1W    00000130000000882000000000032P8    YIYTM   000000000000YT326094
BI00B32P8    TAPAW-2071     202206011801W004050              IVSSH 0.75F R            CCN000002600000002600FN00000000020220701000002600NNM   20220430171317    1W    00000130000000882000000000032P8    YIYTM   000000000000YT325026
BI00B32P8    TAPAW-2072     202206081801W004050              IVSSH 0.75F R            CCN000001300000001300FN00000000020220701000001300NNM   20220430171317    1W    00000130000000882000000000032P8    YIYTM   000000000000YT425043
BI00B32P8    TAPAW-2073     202206151801W004050              IVSSH 0.75F R            CCN000001300000001300FN00000000020220701000001300NNM   20220430171317    1W    00000130000000882000000000032P8    YIYTM   000000000000YT126057
BI00B32P8    TAPAW-2074     202206221801W004050              IVSSH 0.75F R            CCN000001300000001300FN00000000020220701000001300NNM   20220430171317    1W    00000130000000882000000000032P8    YIYTM   000000000000YT226082
BI00B32P8    TAPAW-2075     202206291801W004050              IVSSH 0.75F R            CCN000001300000001300FN00000000020220701000001300NNM   20220430171317    1W    00000130000000882000000000032P8    YIYTM   000000000000YT326095
BI00B32P8    TAPAW-2074     2022062218000004590              AV 8 L                   CCN000010100000010100FN00000000020220701000010100NNM   20220430171317    1W    00000010000010466200000000032P8    YIYTM   000000000000YT226060
BI00B32P8    TAPAW-2075     2022062918000004590              AV 8 L                   CCN000012300000012300FN00000000020220701000012300NNM   20220430171317    1W    00000010000010466200000000032P8    YIYTM   000000000000YT326062
BI00B32P8    TAPAW-2073     2022061518000004570              AV 8 Y                   CCN000003100000003100FN00000000020220701000003100NNM   20220430171317    1W    00000010000010466200000000032P8    YIYTM   000000000000YT126048
BI00B32P8    TAPAW-2074     2022062218000004570              AV 8 Y                   CCN000008600000008600FN00000000020220701000008600NNM   20220430171317    1W    00000010000010466200000000032P8    YIYTM   000000000000YT226064
BI00B32P8    TAPAW-2075     2022062918000004570              AV 8 Y                   CCN000008700000008700FN00000000020220701000008700NNM   20220430171317    1W    00000010000010466200000000032P8    YIYTM   000000000000YT326066
BI00B32P8    TAPAW-2075     20220629180077040F0              AVSS 0.75F GY/B          CCN000002000000002000FN00000000020220701000002000NNM   20220430171317    1W    00000100000000943000000000032P8    YIYTM   000000000000YT326080
BI00B32P8    TAPAW-2075     2022062918007704156              AVSS 1.25F R/G           CCN000000800000000800FN00000000020220701000000800NNM   20220430171317    1W    00000080000001389000000000032P8    YIYTM   000000000000YT326088
BI00B32P8    TAPAW-2071     202206011801R706090              CIVUS 1 L                CCN000001200000001200FN00000000020220701000001200NNM   20220430171317    1W    00000120000001016000000000032P8    YIYTM   000000000000YT325023
BI00B32P8    TAPAW-2073     202206151801R706090              CIVUS 1 L                CCN000001200000001200FN00000000020220701000001200NNM   20220430171317    1W    00000120000001016000000000032P8    YIYTM   000000000000YT126052
BI00B32P8    TAPAW-2072     202206081801W006991              IVSSH 0.35F SB           CCN000005000000005000FN00000000020220701000005000NNM   20220430171317    1W    00000250000000452000000000032P8    YIYTM   000000000000YT425044
BI00B32P8    TAPAW-2073     202206151801W006991              IVSSH 0.35F SB           CCN000005000000005000FN00000000020220701000005000NNM   20220430171317    1W    00000250000000452000000000032P8    YIYTM   000000000000YT126058
BI00B32P8    TAPAW-2074     202206221801W006991              IVSSH 0.35F SB           CCN000005000000005000FN00000000020220701000005000NNM   20220430171317    1W    00000250000000452000000000032P8    YIYTM   000000000000YT226083
BI00B32P8    TAPAW-2075     202206291801W006991              IVSSH 0.35F SB           CCN000005000000005000FN00000000020220701000005000NNM   20220430171317    1W    00000250000000452000000000032P8    YIYTM   000000000000YT326096
BI00B32P8    TAPAW-2073     202206151801W006943              IVSSH 0.35F W/B          CCN000002500000002500FN00000000020220701000002500NNM   20220430171317    1W    00000250000000452000000000032P8    YIYTM   000000000000YT126059
BI00B32P8    TAPAW-2074     202206221801W006943              IVSSH 0.35F W/B          CCN000010000000010000FN00000000020220701000010000NNM   20220430171317    1W    00000250000000452000000000032P8    YIYTM   000000000000YT226084
BI00B32P8    TAPAW-2075     202206291801W006943              IVSSH 0.35F W/B          CCN000012500000012500FN00000000020220701000012500NNM   20220430171317    1W    00000250000000452000000000032P8    YIYTM   000000000000YT326097
BI00B32P8    @TAPAW-2071    20220601181E48027ZZ              CAVSAS-S 0.5X2 GY/P      CCN000000300000000300FN00000000020220701000000300NNM   20220430171314    1W    00000030000002561000000000032P8    YIYTM   000000000000YT325008
BI00B32P8    @TAPAW-2072    20220608181E48027ZZ              CAVSAS-S 0.5X2 GY/P      CCN000000900000000900FN00000000020220701000000900NNM   20220430171314    1W    00000030000002561000000000032P8    YIYTM   000000000000YT425017
BI00B32P8    @TAPAW-2073    20220615181E48027ZZ              CAVSAS-S 0.5X2 GY/P      CCN000000600000000600FN00000000020220701000000600NNM   20220430171314    1W    00000030000002561000000000032P8    YIYTM   000000000000YT126023
BI00B32P8    @TAPAW-2074    20220622181E48027ZZ              CAVSAS-S 0.5X2 GY/P      CCN000000900000000900FN00000000020220701000000900NNM   20220430171314    1W    00000030000002561000000000032P8    YIYTM   000000000000YT226030
BI00B32P8    @TAPAW-2075    20220629181E48027ZZ              CAVSAS-S 0.5X2 GY/P      CCN000000600000000600FN00000000020220701000000600NNM   20220430171314    1W    00000030000002561000000000032P8    YIYTM   000000000000YT326031
BI00B32P8    @TAPAW-2073    20220615181B32102Y7              AVSSCS 0.5FX2 DGY/Y      CCN000000300000000300FN00000000020220701000000300NNM   20220430171314    1W    00000030000002903000000000032P8    YIYTM   000000000000YT126022
BI00B32P8    @TAPAW-2074    20220622181B32102Y7              AVSSCS 0.5FX2 DGY/Y      CCN000000600000000600FN00000000020220701000000600NNM   20220430171314    1W    00000030000002903000000000032P8    YIYTM   000000000000YT226028
BI00B32P8    @TAPAW-2075    20220629181B32102Y7              AVSSCS 0.5FX2 DGY/Y      CCN000000300000000300FN00000000020220701000000300NNM   20220430171314    1W    00000030000002903000000000032P8    YIYTM   000000000000YT326029
BI00B32P8    @TAPAW-2075    20220629181E50012ZZ              AVSSCS-S 0.5FX2 DGY/G    CCN000000300000000300FN00000000020220701000000300NNM   20220430171314    1W    00000030000003096000000000032P8    YIYTM   000000000000YT326036
BI00B32P8    @TAPAW-2072    20220608181E50011ZZ              AVSSCS-S 0.5FX2 DGY/Y    CCN000000300000000300FN00000000020220701000000300NNM   20220430171314    1W    00000030000003096000000000032P8    YIYTM   000000000000YT425020
BI00B32P8    @TAPAW-2074    20220622181E50011ZZ              AVSSCS-S 0.5FX2 DGY/Y    CCN000000300000000300FN00000000020220701000000300NNM   20220430171314    1W    00000030000003096000000000032P8    YIYTM   000000000000YT226035
BI00B32P8    @TAPAW-2075    20220629181E50011ZZ              AVSSCS-S 0.5FX2 DGY/Y    CCN000000300000000300FN00000000020220701000000300NNM   20220430171314    1W    00000030000003096000000000032P8    YIYTM   000000000000YT326037
BI00B32P8    @TAPAW-2072    20220608181F21015ZZ              AVSSHCS-S 0.5FX2 B/P     CCN000000900000000900FN00000000020220701000000900NNM   20220430171314    1W    00000030000002531400000000032P8    YIYTM   000000000000YT425021
BI00B32P8    @TAPAW-2073    20220615181F21015ZZ              AVSSHCS-S 0.5FX2 B/P     CCN000001200000001200FN00000000020220701000001200NNM   20220430171314    1W    00000030000002531400000000032P8    YIYTM   000000000000YT126027
BI00B32P8    @TAPAW-2074    20220622181F21015ZZ              AVSSHCS-S 0.5FX2 B/P     CCN000000900000000900FN00000000020220701000000900NNM   20220430171314    1W    00000030000002531400000000032P8    YIYTM   000000000000YT226036
BI00B32P8    @TAPAW-2075    20220629181F21015ZZ              AVSSHCS-S 0.5FX2 B/P     CCN000000900000000900FN00000000020220701000000900NNM   20220430171314    1W    00000030000002531400000000032P8    YIYTM   000000000000YT326038
BI00B32P8    @TAPAW-2071    20220601181F21013ZZ              AVSSHCS-S 0.5FX2 B/Y     CCN000000300000000300FN00000000020220701000000300NNM   20220430171314    1W    00000030000002531400000000032P8    YIYTM   000000000000YT325012
BI00B32P8    @TAPAW-2072    20220608181F21013ZZ              AVSSHCS-S 0.5FX2 B/Y     CCN000001800000001800FN00000000020220701000001800NNM   20220430171314    1W    00000030000002531400000000032P8    YIYTM   000000000000YT425022
BI00B32P8    @TAPAW-2073    20220615181F21013ZZ              AVSSHCS-S 0.5FX2 B/Y     CCN000001800000001800FN00000000020220701000001800NNM   20220430171314    1W    00000030000002531400000000032P8    YIYTM   000000000000YT126028
BI00B32P8    @TAPAW-2074    20220622181F21013ZZ              AVSSHCS-S 0.5FX2 B/Y     CCN000001800000001800FN00000000020220701000001800NNM   20220430171314    1W    00000030000002531400000000032P8    YIYTM   000000000000YT226037
BI00B32P8    @TAPAW-2075    20220629181F21013ZZ              AVSSHCS-S 0.5FX2 B/Y     CCN000001800000001800FN00000000020220701000001800NNM   20220430171314    1W    00000030000002531400000000032P8    YIYTM   000000000000YT326039
BI00B32P8    @TAPAW-2071    20220601181F21028ZZ              AVSSHCS-S 1.25FX2 B/R    CCN000000600000000600FN00000000020220701000000600NNM   20220430171314    1W    00000020000004267300000000032P8    YIYTM   000000000000YT325013
BI00B32P8    @TAPAW-2072    20220608181F21028ZZ              AVSSHCS-S 1.25FX2 B/R    CCN000000600000000600FN00000000020220701000000600NNM   20220430171314    1W    00000020000004267300000000032P8    YIYTM   000000000000YT425023
BI00B32P8    @TAPAW-2073    20220615181F21028ZZ              AVSSHCS-S 1.25FX2 B/R    CCN000000600000000600FN00000000020220701000000600NNM   20220430171314    1W    00000020000004267300000000032P8    YIYTM   000000000000YT126029
BI00B32P8    @TAPAW-2074    20220622181F21028ZZ              AVSSHCS-S 1.25FX2 B/R    CCN000000800000000800FN00000000020220701000000800NNM   20220430171314    1W    00000020000004267300000000032P8    YIYTM   000000000000YT226038
BI00B32P8    @TAPAW-2075    20220629181F21028ZZ              AVSSHCS-S 1.25FX2 B/R    CCN000000600000000600FN00000000020220701000000600NNM   20220430171314    1W    00000020000004267300000000032P8    YIYTM   000000000000YT326040
BI00B32P8    @TAPAW-2072    20220608181F21029ZZ              AVSSHCS-S 1.25FX2 B/Y    CCN000001000000001000FN00000000020220701000001000NNM   20220430171314    1W    00000020000004267300000000032P8    YIYTM   000000000000YT425024
BI00B32P8    @TAPAW-2073    20220615181F21029ZZ              AVSSHCS-S 1.25FX2 B/Y    CCN000001200000001200FN00000000020220701000001200NNM   20220430171314    1W    00000020000004267300000000032P8    YIYTM   000000000000YT126030
BI00B32P8    @TAPAW-2074    20220622181F21029ZZ              AVSSHCS-S 1.25FX2 B/Y    CCN000001000000001000FN00000000020220701000001000NNM   20220430171314    1W    00000020000004267300000000032P8    YIYTM   000000000000YT226039
BI00B32P8    @TAPAW-2075    20220629181F21029ZZ              AVSSHCS-S 1.25FX2 B/Y    CCN000001200000001200FN00000000020220701000001200NNM   20220430171314    1W    00000020000004267300000000032P8    YIYTM   000000000000YT326041
BI00B32P8    @TAPAW-2071    20220601181E48035ZZ              CAVSAS-S 0.5X3 GY        CCN000003600000003600FN00000000020220701000003600NNM   20220430171314    1W    00000020000003795300000000032P8    YIYTM   000000000000YT325010
BI00B32P8    @TAPAW-2072    20220608181E48035ZZ              CAVSAS-S 0.5X3 GY        CCN000001800000001800FN00000000020220701000001800NNM   20220430171314    1W    00000020000003795300000000032P8    YIYTM   000000000000YT425019
BI00B32P8    @TAPAW-2073    20220615181E48035ZZ              CAVSAS-S 0.5X3 GY        CCN000001800000001800FN00000000020220701000001800NNM   20220430171314    1W    00000020000003795300000000032P8    YIYTM   000000000000YT126025
BI00B32P8    @TAPAW-2074    20220622181E48035ZZ              CAVSAS-S 0.5X3 GY        CCN000002000000002000FN00000000020220701000002000NNM   20220430171314    1W    00000020000003795300000000032P8    YIYTM   000000000000YT226032
BI00B32P8    @TAPAW-2075    20220629181E48035ZZ              CAVSAS-S 0.5X3 GY        CCN000001800000001800FN00000000020220701000001800NNM   20220430171314    1W    00000020000003795300000000032P8    YIYTM   000000000000YT326033
BI00B32P8    @TAPAW-2074    20220622181E48029ZZ              CAVSAS-S 0.5X4 GY        CCN000002200000002200FN00000000020220701000002200NNM   20220430171314    1W    00000020000003995000000000032P8    YIYTM   000000000000YT226033
BI00B32P8    @TAPAW-2075    20220629181E48029ZZ              CAVSAS-S 0.5X4 GY        CCN000002000000002000FN00000000020220701000002000NNM   20220430171314    1W    00000020000003995000000000032P8    YIYTM   000000000000YT326034
BI00B32P8    @TAPAW-2073    20220615181E48065ZZ              CAVSAS-S 0.5X4 GY/W      CCN000000200000000200FN00000000020220701000000200NNM   20220430171314    1W    00000020000003995000000000032P8    YIYTM   000000000000YT126026
BI00B32P8    @TAPAW-2074    20220622181E48065ZZ              CAVSAS-S 0.5X4 GY/W      CCN000001000000001000FN00000000020220701000001000NNM   20220430171314    1W    00000020000003995000000000032P8    YIYTM   000000000000YT226034
BI00B32P8    @TAPAW-2075    20220629181E48065ZZ              CAVSAS-S 0.5X4 GY/W      CCN000000800000000800FN00000000020220701000000800NNM   20220430171314    1W    00000020000003995000000000032P8    YIYTM   000000000000YT326035
BI00B32P8    @TAPAW-2071    20220601181E48037ZZ              CAVSAS-S 0.3X4 GY        CCN000000250000000250FN00000000020220701000000250NNM   20220430171314    1W    00000025000003262000000000032P8    YIYTM   000000000000YT325011
BI00B32P8    @TAPAW-2074    20220622181E48022ZZ              CAVSAS-S 0.5X2 GY        CCN000001800000001800FN00000000020220701000001800NNM   20220430171314    1W    00000030000002561000000000032P8    YIYTM   000000000000YT226029
BI00B32P8    @TAPAW-2075    20220629181E48022ZZ              CAVSAS-S 0.5X2 GY        CCN000001500000001500FN00000000020220701000001500NNM   20220430171314    1W    00000030000002561000000000032P8    YIYTM   000000000000YT326030
BI00B32P8    @TAPAW-2071    20220601181E48018ZZ              CAVSAS-S 0.5X2 GY/SB     CCN000000600000000600FN00000000020220701000000600NNM   20220430171314    1W    00000030000002561000000000032P8    YIYTM   000000000000YT325009
BI00B32P8    @TAPAW-2072    20220608181E48018ZZ              CAVSAS-S 0.5X2 GY/SB     CCN000000600000000600FN00000000020220701000000600NNM   20220430171314    1W    00000030000002561000000000032P8    YIYTM   000000000000YT425018
BI00B32P8    @TAPAW-2073    20220615181E48018ZZ              CAVSAS-S 0.5X2 GY/SB     CCN000000900000000900FN00000000020220701000000900NNM   20220430171314    1W    00000030000002561000000000032P8    YIYTM   000000000000YT126024
BI00B32P8    @TAPAW-2074    20220622181E48018ZZ              CAVSAS-S 0.5X2 GY/SB     CCN000000900000000900FN00000000020220701000000900NNM   20220430171314    1W    00000030000002561000000000032P8    YIYTM   000000000000YT226031
BI00B32P8    @TAPAW-2075    20220629181E48018ZZ              CAVSAS-S 0.5X2 GY/SB     CCN000000300000000300FN00000000020220701000000300NNM   20220430171314    1W    00000030000002561000000000032P8    YIYTM   000000000000YT326032
BI00B32P8    @TAPAW-2074    20220622181AD2002ZZ              CIVUSAS-S 0.35X2 B       CCN000045450000045450FN00000000020220701000045450NNM   20220430171314    1W    00000045000001713700000000032P8    YIYTM   000000000000YT226025
BI00B32P8    @TAPAW-2075    20220629181AD2002ZZ              CIVUSAS-S 0.35X2 B       CCN000043650000043650FN00000000020220701000043650NNM   20220430171314    1W    00000045000001713700000000032P8    YIYTM   000000000000YT326026
BI00B32P8    @TAPAW-2074    20220622181AD2003ZZ              CIVUSAS-S 0.35X3 B       CCN000010150000010150FN00000000020220701000010150NNM   20220430171314    1W    00000035000002172100000000032P8    YIYTM   000000000000YT226026
BI00B32P8    @TAPAW-2075    20220629181AD2003ZZ              CIVUSAS-S 0.35X3 B       CCN000021700000021700FN00000000020220701000021700NNM   20220430171314    1W    00000035000002172100000000032P8    YIYTM   000000000000YT326027
BI00B32P8    @TAPAW-2071    20220601181AD2007ZZ              CIVUSAS-S 0.5X1 B        CCN000005000000005000FN00000000020220701000005000NNM   20220430171314    1W    00000050000001639600000000032P8    YIYTM   000000000000YT325005
BI00B32P8    @TAPAW-2072    20220608181AD2007ZZ              CIVUSAS-S 0.5X1 B        CCN000004000000004000FN00000000020220701000004000NNM   20220430171314    1W    00000050000001639600000000032P8    YIYTM   000000000000YT425014
BI00B32P8    @TAPAW-2073    20220615181AD2007ZZ              CIVUSAS-S 0.5X1 B        CCN000003500000003500FN00000000020220701000003500NNM   20220430171314    1W    00000050000001639600000000032P8    YIYTM   000000000000YT126019
BI00B32P8    @TAPAW-2074    20220622181AD2007ZZ              CIVUSAS-S 0.5X1 B        CCN000004000000004000FN00000000020220701000004000NNM   20220430171314    1W    00000050000001639600000000032P8    YIYTM   000000000000YT226022
BI00B32P8    @TAPAW-2075    20220629181AD2007ZZ              CIVUSAS-S 0.5X1 B        CCN000003000000003000FN00000000020220701000003000NNM   20220430171314    1W    00000050000001639600000000032P8    YIYTM   000000000000YT326023
BI00B32P8    @TAPAW-2071    20220601181AD2008ZZ              CIVUSAS-S 0.5X2 B        CCN000000400000000400FN00000000020220701000000400NNM   20220430171314    1W    00000040000002028000000000032P8    YIYTM   000000000000YT325006
BI00B32P8    @TAPAW-2072    20220608181AD2008ZZ              CIVUSAS-S 0.5X2 B        CCN000037600000037600FN00000000020220701000037600NNM   20220430171314    1W    00000040000002028000000000032P8    YIYTM   000000000000YT425015
BI00B32P8    @TAPAW-2073    20220615181AD2008ZZ              CIVUSAS-S 0.5X2 B        CCN000037200000037200FN00000000020220701000037200NNM   20220430171314    1W    00000040000002028000000000032P8    YIYTM   000000000000YT126020
BI00B32P8    @TAPAW-2074    20220622181AD2008ZZ              CIVUSAS-S 0.5X2 B        CCN000037200000037200FN00000000020220701000037200NNM   20220430171314    1W    00000040000002028000000000032P8    YIYTM   000000000000YT226023
BI00B32P8    @TAPAW-2075    20220629181AD2008ZZ              CIVUSAS-S 0.5X2 B        CCN000031200000031200FN00000000020220701000031200NNM   20220430171314    1W    00000040000002028000000000032P8    YIYTM   000000000000YT326024
BI00B32P8    @TAPAW-2071    20220601181AD2009ZZ              CIVUSAS-S 0.5X3 B        CCN000009300000009300FN00000000020220701000009300NNM   20220430171314    1W    00000030000002716800000000032P8    YIYTM   000000000000YT325007
BI00B32P8    @TAPAW-2072    20220608181AD2009ZZ              CIVUSAS-S 0.5X3 B        CCN000004500000004500FN00000000020220701000004500NNM   20220430171314    1W    00000030000002716800000000032P8    YIYTM   000000000000YT425016
BI00B32P8    @TAPAW-2073    20220615181AD2009ZZ              CIVUSAS-S 0.5X3 B        CCN000004500000004500FN00000000020220701000004500NNM   20220430171314    1W    00000030000002716800000000032P8    YIYTM   000000000000YT126021
BI00B32P8    @TAPAW-2074    20220622181AD2009ZZ              CIVUSAS-S 0.5X3 B        CCN000004500000004500FN00000000020220701000004500NNM   20220430171314    1W    00000030000002716800000000032P8    YIYTM   000000000000YT226024
BI00B32P8    @TAPAW-2075    20220629181AD2009ZZ              CIVUSAS-S 0.5X3 B        CCN000003600000003600FN00000000020220701000003600NNM   20220430171314    1W    00000030000002716800000000032P8    YIYTM   000000000000YT326025
BI00B32P8    @TAPAW-2074    20220622181AD2011ZZ              CIVUSAS-S 0.75X2 B       CCN000003850000003850FN00000000020220701000003850NNM   20220430171314    1W    00000035000002761100000000032P8    YIYTM   000000000000YT226027
BI00B32P8    @TAPAW-2075    20220629181AD2011ZZ              CIVUSAS-S 0.75X2 B       CCN000003850000003850FN00000000020220701000003850NNM   20220430171314    1W    00000035000002761100000000032P8    YIYTM   000000000000YT326028
BI00B32Q8    EW2206F MW     202205251801R704141              CIVUS 1.25 GY            CCN000004000000004000FN00000000020220601000004000NNE   20220430172231    1W    00000100000001228000000000032Q8    EMEMI   000000000000MH225001
BI00B32Q8    @EW2206GTMW    20220525181E50028ZZ              AVSSCS-S 0.5FX3 DGY      CCN000007750000007750FN00000000020220601000007750NNE   20220430172230    1W    00000025000003265000000000032Q8    EMEMI   000000000000MG225001
BI00B32Q8    EW2207A MW     2022060118007703740              AVSS 0.3F W              CCN000006000000006000FN00000000020220701000006000NNE   20220430172310    1W    00000200000000496000000000032Q8    EMEMI   000000000000MO325009
BI00B32Q8    EW2207A MW     20220601180D0203937              AVSSH 0.5F B/Y           CCN000009000000009000FN00000000020220701000009000NNE   20220430172310    1W    00000150000000689000000000032Q8    EMEMI   000000000000MO325006
BI00B32Q8    EW2207A MW     20220601180D0203940              AVSSH 0.5F W             CCN000007500000007500FN00000000020220701000007500NNE   20220430172310    1W    00000150000000689000000000032Q8    EMEMI   000000000000MO325007
BI00B32Q8    EW2207A MW     20220601180D0204140              AVSSH 1.25F W            CCN000004800000004800FN00000000020220701000004800NNE   20220430172310    1W    00000080000001458000000000032Q8    EMEMI   000000000000MO325008
BI00B32Q8    EW2207A MW     202206011801R704190              CIVUS 1.25 L             CCN000018000000018000FN00000000020220701000018000NNE   20220430172310    1W    00000100000001228000000000032Q8    EMEMI   000000000000MO325010
BI00B32Q8    EW2207A MW     202206011801R704152              CIVUS 1.25 P             CCN000010000000010000FN00000000020220701000010000NNE   20220430172310    1W    00000100000001228000000000032Q8    EMEMI   000000000000MO325011
BI00B32Q8    @EW2207A MW    20220601181D6910237              AVSSHCS 0.5FX2 B/Y       CCN000000300000000300FN00000000020220701000000300NNE   20220430172307    1W    00000030000002385000000000032Q8    EMEMI   000000000000MO325003
BI00B32Q8    @EW2207A MW    20220601181E48013ZZ              CAVSAS-S 0.3X3 GY        CCN000001000000001000FN00000000020220701000001000NNE   20220430172307    1W    00000025000002778200000000032Q8    EMEMI   000000000000MO325005
BI00B32Q8    @EW2207A MW    20220601181E48041ZZ              CAVSAS-S 0.3X2 GY/R      CCN000001050000001050FN00000000020220701000001050NNE   20220430172307    1W    00000035000002008700000000032Q8    EMEMI   000000000000MO325004
BI00B32Q8    @EW2207ANMW    20220601181AD2008ZZ              CIVUSAS-S 0.5X2 B        CCN000000400000000400FN00000000020220701000000400NNE   20220430172309    1W    00000040000002028000000000032Q8    EMEMI   000000000000MP325003
BI00B32Q8    EW2207ATMW     20220601180D0204043              AVSSH 0.75F W/B          CCN000010000000010000FN00000000020220701000010000NNE   20220430172311    1W    00000100000000934000000000032Q8    EMEMI   000000000000MR325002
BI00B32Q8    EW2207ATMW     202206011801W006991              IVSSH 0.35F SB           CCN000052500000052500FN00000000020220701000052500NNE   20220430172311    1W    00000250000000452000000000032Q8    EMEMI   000000000000MR325010
BI00B32Q8    EW2207ATMW     202206011801W006970              IVSSH 0.35F Y            CCN000025000000025000FN00000000020220701000025000NNE   20220430172311    1W    00000250000000452000000000032Q8    EMEMI   000000000000MR325011
BI00B32Q8    EW2207ATMW     202206011801W003930              IVSSH 0.5F B             CCN000010800000010800FN00000000020220701000010800NNE   20220430172311    1W    00000180000000625000000000032Q8    EMEMI   000000000000MR325003
BI00B32Q8    EW2207ATMW     202206011801W00395U              IVSSH 0.5F BE            CCN000003600000003600FN00000000020220701000003600NNE   20220430172311    1W    00000180000000625000000000032Q8    EMEMI   000000000000MR325004
BI00B32Q8    EW2207ATMW     202206011801W003950              IVSSH 0.5F R             CCN000025200000025200FN00000000020220701000025200NNE   20220430172311    1W    00000180000000625000000000032Q8    EMEMI   000000000000MR325005
BI00B32Q8    EW2207ATMW     202206011801W003940              IVSSH 0.5F W             CCN000025200000025200FN00000000020220701000025200NNE   20220430172311    1W    00000180000000625000000000032Q8    EMEMI   000000000000MR325006
BI00B32Q8    EW2207ATMW     202206011801W003970              IVSSH 0.5F Y             CCN000045000000045000FN00000000020220701000045000NNE   20220430172311    1W    00000180000000625000000000032Q8    EMEMI   000000000000MR325007
BI00B32Q8    EW2207ATMW     202206011801W004043              IVSSH 0.75F W/B          CCN000001300000001300FN00000000020220701000001300NNE   20220430172311    1W    00000130000000882000000000032Q8    EMEMI   000000000000MR325008
BI00B32Q8    EW2207ATMW     202206011801W004070              IVSSH 0.75F Y            CCN000005200000005200FN00000000020220701000005200NNE   20220430172311    1W    00000130000000882000000000032Q8    EMEMI   000000000000MR325009
BI00B32Q8    @EW2207ATMW    20220601181E50028ZZ              AVSSCS-S 0.5FX3 DGY      CCN000004750000004750FN00000000020220701000004750NNE   20220430172310    1W    00000025000003265000000000032Q8    EMEMI   000000000000MR325001
BI00B32Q8    EW2207B MW     20220608180D0203930              AVSSH 0.5F B             CCN000009000000009000FN00000000020220701000009000NNE   20220430172431    1W    00000150000000689000000000032Q8    EMEMI   000000000000MS425003
BI00B32Q8    EW2207B MW     20220608180D0203980              AVSSH 0.5F BR            CCN000021000000021000FN00000000020220701000021000NNE   20220430172431    1W    00000150000000689000000000032Q8    EMEMI   000000000000MS425004
BI00B32Q8    EW2207B MW     20220608180D0204130              AVSSH 1.25F B            CCN000001600000001600FN00000000020220701000001600NNE   20220430172431    1W    00000080000001458000000000032Q8    EMEMI   000000000000MS425005
BI00B32Q8    EW2207B MW     20220608180D0204170              AVSSH 1.25F Y            CCN000008000000008000FN00000000020220701000008000NNE   20220430172431    1W    00000080000001458000000000032Q8    EMEMI   000000000000MS425006
BI00B32Q8    EW2207B MW     202206081801R704190              CIVUS 1.25 L             CCN000018000000018000FN00000000020220701000018000NNE   20220430172431    1W    00000100000001228000000000032Q8    EMEMI   000000000000MS425007
BI00B32Q8    EW2207BTMW     20220608180D0203750              AVSSH 0.3F R             CCN000002000000002000FN00000000020220701000002000NNE   20220430172432    1W    00000200000000515000000000032Q8    EMEMI   000000000000MV425001
BI00B32Q8    EW2207BTMW     202206081801W00695U              IVSSH 0.35F BE           CCN000012500000012500FN00000000020220701000012500NNE   20220430172432    1W    00000250000000452000000000032Q8    EMEMI   000000000000MV425005
BI00B32Q8    EW2207BTMW     202206081801W006941              IVSSH 0.35F GY           CCN000052500000052500FN00000000020220701000052500NNE   20220430172432    1W    00000250000000452000000000032Q8    EMEMI   000000000000MV425006
BI00B32Q8    EW2207BTMW     202206081801W003992              IVSSH 0.5F V             CCN000025200000025200FN00000000020220701000025200NNE   20220430172432    1W    00000180000000625000000000032Q8    EMEMI   000000000000MV425002
BI00B32Q8    EW2207BTMW     202206081801W004090              IVSSH 0.75F L            CCN000013000000013000FN00000000020220701000013000NNE   20220430172432    1W    00000130000000882000000000032Q8    EMEMI   000000000000MV425003
BI00B32Q8    EW2207BTMW     202206081801W004052              IVSSH 0.75F P            CCN000001300000001300FN00000000020220701000001300NNE   20220430172432    1W    00000130000000882000000000032Q8    EMEMI   000000000000MV425004
BI00B32Q8    EW2207C MW     20220615180D0203970              AVSSH 0.5F Y             CCN000004500000004500FN00000000020220701000004500NNE   20220430172437    1W    00000150000000689000000000032Q8    EMEMI   000000000000MC126001
BI00B32Q8    EW2207CNMW     20220601180D0204092              AVSSH 0.75F V            CCN000001000000001000FN00000000020220701000001000NNE   20220430172436    1W    00000100000000934000000000032Q8    EMEMI   000000000000MQ325001
BI00B32Q8    EW2207CTMW     20220615180D0204192              AVSSH 1.25F V            CCN000003200000003200FN00000000020220701000003200NNE   20220430172438    1W    00000080000001458000000000032Q8    EMEMI   000000000000ME126001
BI00B32W4    4500192999     2022053118001403960              AV 0.5F G                CCN000005000000005000FN00000000020220501000005000NNE   20220430185017W41 1W    00000100000000903000000000032W41   HJYHK-J 000000000000OJ325002
BI00B32W4    4500192999     2022053118001403964              AV 0.5F G/W              CCN000004000000004000FN00000000020220501000004000NNE   20220430185017W41 1W    00000100000000903000000000032W41   HJYHK-J 000000000000OJ325003
BI00B32W4    4500192999     2022053118001403930              AV 0.5F B                CCN000003000000003000FN00000000020220501000003000NNE   20220430185017W41 1W    00000100000000903000000000032W41   HJYHK-J 000000000000OJ325001
BI00B32W4    4500192999     2022053118001403946              AV 0.5F W/G              CCN000003000000003000FN00000000020220501000003000NNE   20220430185017W41 1W    00000100000000903000000000032W41   HJYHK-J 000000000000OJ325004
BI00B32W4    @4500192986    20220614181E50002ZZ              AVSSCS-S 0.3FX2 DGY/G    CCN000003150000003150FN00000000020220601000003150NNE   20220430185020W4591W    00000035000002165000000000032W459  HJYHK-J 000000000000OE126001
BI00B32W4    4500193002     2022062118018403730              CAVS 0.3 B               CCN000004000000004000FN00000000020220601000004000NNE   20220430185022W41 1W    00000200000000471000000000032W41   HJYHK-J 000000000000OM226001
BI00B32W4    4500193002     2022062118018403760              CAVS 0.3 G               CCN000008000000008000FN00000000020220601000008000NNE   20220430185022W41 1W    00000200000000471000000000032W41   HJYHK-J 000000000000OM226003
BI00B32W4    4500193002     2022062118018403780              CAVS 0.3 BR              CCN000008000000008000FN00000000020220601000008000NNE   20220430185022W41 1W    00000200000000471000000000032W41   HJYHK-J 000000000000OM226002
BI00B32W4    4500193002     2022062118018404030              CAVS 0.85 B              CCN000021000000021000FN00000000020220601000021000NNE   20220430185022W41 1W    00000100000000965000000000032W41   HJYHK-J 000000000000OM226004
BI00B32W4    4500193002     2022062118018404050              CAVS 0.85 R              CCN000008000000008000FN00000000020220601000008000NNE   20220430185022W41 1W    00000100000000965000000000032W41   HJYHK-J 000000000000OM226007
BI00B32W4    4500193002     2022062118018404052              CAVS 0.85 P              CCN000004000000004000FN00000000020220601000004000NNE   20220430185022W41 1W    00000100000000965000000000032W41   HJYHK-J 000000000000OM226006
BI00B32W4    4500193002     2022062118018404060              CAVS 0.85 G              CCN000009000000009000FN00000000020220601000009000NNE   20220430185022W41 1W    00000100000000965000000000032W41   HJYHK-J 000000000000OM226005
BI00B32W4    4500193002     2022062118018404070              CAVS 0.85 Y              CCN000012000000012000FN00000000020220601000012000NNE   20220430185022W41 1W    00000100000000965000000000032W41   HJYHK-J 000000000000OM226010
BI00B32W4    4500193002     2022062118018404091              CAVS 0.85 SB             CCN000008000000008000FN00000000020220601000008000NNE   20220430185022W41 1W    00000100000000965000000000032W41   HJYHK-J 000000000000OM226008
BI00B32W4    4500193002     2022062118018404092              CAVS 0.85 V              CCN000002000000002000FN00000000020220601000002000NNE   20220430185022W41 1W    00000100000000965000000000032W41   HJYHK-J 000000000000OM226009
BI00B32W4    4500193181     20220524180S7703950              ACAVSS 0.5F R            CCN000001500000001500FN00000000020220501000001500NNE   20220430185018W41 1W    00000150000000645400000000032W41   HJYHK-J 000000000000OT225002
BI00B32W4    4500193181     20220524180S7703930              ACAVSS 0.5F B            CCN000001500000001500FN00000000020220501000001500NNE   20220430185018W41 1W    00000150000000645400000000032W41   HJYHK-J 000000000000OT225001
BI00B32W4    4500193182     20220531180S7703950              ACAVSS 0.5F R            CCN000006000000006000FN00000000020220501000006000NNE   20220430185019W41 1W    00000150000000645400000000032W41   HJYHK-J 000000000000OI325002
BI00B32W4    4500193182     20220531180S7703930              ACAVSS 0.5F B            CCN000004500000004500FN00000000020220501000004500NNE   20220430185019W41 1W    00000150000000645400000000032W41   HJYHK-J 000000000000OI325001
BI00B32W4    @4500193168    20220614181D6910239              AVSSHCS 0.5FX2 B/L       CCN000032100000032100FN00000000020220601000032100NNE   20220430185021W4A21W    00000030000002385000000000032W4A2  HJYHK-J 000000000000OL126001
BI00B32W4    4500193186     2022062118018403940              CAVS 0.5 W               CCN000004500000004500FN00000000020220601000004500NNE   20220430185022W41 1W    00000150000000677000000000032W41   HJYHK-J 000000000000OR226002
BI00B32W4    4500193186     2022062118018403950              CAVS 0.5 R               CCN000003000000003000FN00000000020220601000003000NNE   20220430185022W41 1W    00000150000000677000000000032W41   HJYHK-J 000000000000OR226001
BI00B32W4    4500193241     20220621180D0203930              AVSSH 0.5F B             CCN000001500000001500FN00000000020220601000001500NNE   20220430185023W41 1W    00000150000000689000000000032W41   HJYHK-J 000000000000OS226001
BI00B32W4    4500193241     20220621180D0203940              AVSSH 0.5F W             CCN000001500000001500FN00000000020220601000001500NNE   20220430185023W41 1W    00000150000000689000000000032W41   HJYHK-J 000000000000OS226003
BI00B32W4    4500193241     20220621180D0203960              AVSSH 0.5F G             CCN000001500000001500FN00000000020220601000001500NNE   20220430185023W41 1W    00000150000000689000000000032W41   HJYHK-J 000000000000OS226002
BI00B32W4    4500193241     20220621180D0203970              AVSSH 0.5F Y             CCN000001500000001500FN00000000020220601000001500NNE   20220430185023W41 1W    00000150000000689000000000032W41   HJYHK-J 000000000000OS226004
BI00B32W4    4500193307     202206281801R703991              CIVUS 0.5 SB             CCN000022000000022000FN00000000020220601000022000NNE   20220430185024W4K81W    00000220000000525000000000032W4K8  HJYHK-J 000000000000OW326008
BI00B32W4    4500193307     202206281801R706930              CIVUS 0.35 B             CCN000027000000027000FN00000000020220601000027000NNE   20220430185024W4K81W    00000300000000386000000000032W4K8  HJYHK-J 000000000000OW326014
BI00B32W4    4500193307     202206281801R706960              CIVUS 0.35 G             CCN000030000000030000FN00000000020220601000030000NNE   20220430185024W4K81W    00000300000000386000000000032W4K8  HJYHK-J 000000000000OW326015
BI00B32W4    4500193307     202206281801R706990              CIVUS 0.35 L             CCN000033000000033000FN00000000020220601000033000NNE   20220430185024W4K81W    00000300000000386000000000032W4K8  HJYHK-J 000000000000OW326016
BI00B32W4    4500193307     202206281801R70395U              CIVUS 0.5 BE             CCN000013200000013200FN00000000020220601000013200NNE   20220430185024W4K81W    00000220000000525000000000032W4K8  HJYHK-J 000000000000OW326005
BI00B32W4    4500193307     202206281801R704140              CIVUS 1.25 W             CCN000006000000006000FN00000000020220601000006000NNE   20220430185024W4K81W    00000100000001228000000000032W4K8  HJYHK-J 000000000000OW326012
BI00B32W4    4500193307     202206281801R704143              CIVUS 1.25 W/B           CCN000017000000017000FN00000000020220601000017000NNE   20220430185024W4K81W    00000100000001228000000000032W4K8  HJYHK-J 000000000000OW326013
BI00B32W4    4500193307     202206281801R703980              CIVUS 0.5 BR             CCN000033000000033000FN00000000020220601000033000NNE   20220430185024W4K81W    00000220000000525000000000032W4K8  HJYHK-J 000000000000OW326006
BI00B32W4    4500193307     2022062818007704230              AVSS 2F B                CCN000003500000003500FN00000000020220601000003500NNE   20220430185024W4K81W    00000050000002126400000000032W4K8  HJYHK-J 000000000000OW326001
BI00B32W4    4500193307     202206281801R706973              CIVUS 0.35 Y/B           CCN000030000000030000FN00000000020220601000030000NNE   20220430185024W4K81W    00000300000000386000000000032W4K8  HJYHK-J 000000000000OW326017
BI00B32W4    4500193307     202206281801R703961              CIVUS 0.5 LG             CCN000019800000019800FN00000000020220601000019800NNE   20220430185024W4K81W    00000220000000525000000000032W4K8  HJYHK-J 000000000000OW326007
BI00B32W4    4500193307     202206281801R703943              CIVUS 0.5 W/B            CCN000055000000055000FN00000000020220601000055000NNE   20220430185024W4K81W    00000220000000525000000000032W4K8  HJYHK-J 000000000000OW326009
