BI00A1200    2399T51923     202201127289-5979-30             HOUSING FEMALE ASS'Y     PCN000034524000004032FN00000000020211101000004032NNMD0220211213160716    1N0N  0000002520000085470000106471200    YCYC    005400370024
BI00A1200    2399T51922     202201067289-5979-30             HOUSING FEMALE ASS'Y     PCN000011592000004032FN00000000020211101000004032NNMD0220211213154249    1N0N  0000002520000085470000106471200    YCYC    005400370024
BI00B1200    2399T51923     202201147289-5979-30             HOUSING FEMALE ASS'Y     CCN000011592000004032FN00000000020211101000004032NNMD0220211213160905    1N0N  0000002520000085470000106471200    YCYC    005400370024
BI00B1200    2399T51923     202201207289-5979-30             HOUSING FEMALE ASS'Y     CCN000011592000016884FN00000000020211101000016884NNMD0220211213161529    1N0N  0000002520000085470000106471200    YCYC    005400370024
BI00B1200    8640T51B02     202112227288-3340-30             HOUSING MALE             CCN000001500000001500FN00000000020220101000001500NNED0020211213122659    4N0N  0000015000000086150000100641200    YCYC    005400370024
BI00B1200    7360T51B03     202112227288-3334-30             HOUSING MALE             CCN000003000000003000FN00000000020220101000003000NNMD0020211213122659    4N0N  0000015000000086700000101201200    YCYC    005400370024
BI00B1200    7360T51B03     202112227288-3335-30             HOUSING MALE             CCN000007500000007500FN00000000020220101000007500NNMD0020211213122659    4N0N  0000015000000086700000101201200    YCYC    005400370024
BI00B1200    7360T51B03     202112227288-3338-30             HOUSING MALE             CCN000007500000007500FN00000000020220101000007500NNMD0020211213122659    4N0N  0000015000000086610000101201200    YCYC    005400370024
BI00B1200    7360T51B03     202112227288-3340-30             HOUSING MALE             CCN000003000000003000FN00000000020220101000003000NNMD0020211213122659    4N0N  0000015000000086150000100641200    YCYC    005400370024
BI00B1200    2399T51B12     202112237172-5403-30             SEALED PACKING           CCN000008000000008000FN00000000020220101000008000NNMD0420211213133929    1C0C  0000040000000065360000070171200    YCYC    004300270014
BI00A1200    QA-21-C136     202112147289-6524-30             HOUSING FEMALE ASS'Y     PNY000002880000002880FN00000000020211201000002880NNE   20211213122659    4N0N  0000002400000135120000166621200    YCYC    005500360039
BI00A1200    #7960T51C03    202201107172-5629-80             RUBBER STOPPER           CCN000040000000040000FN00000000020220101000040000NNE   20211213122659    2H0H  0000200000000006000000011111200    YCYC    004300270014
BI00A1200    #7960T51C04    202201107172-5627-60             RUBBER STOPPER           CCN000040000000040000FN00000000020220101000040000NNE   20211213122659    2H0H  0000200000000007040000012181200    YCYC    004300270014
BI00A1200    2399T51922     202201057289-5979-30             HOUSING FEMALE ASS'Y     PCN000012096000012096FN00000000020211101000012096NNMD0220211213154249    1N0N  0000002520000085470000106471200    YCYC    005400370024
BI00A1200    2399T51922     202201117289-5979-30             HOUSING FEMALE ASS'Y     PCN000012096000006552FN00000000020211101000006552NNMD0220211213154444    1N0N  0000002520000085470000106471200    YCYC    005400370024
BI00A1200    MKH2021-223    202112177195-1935-02             TERMINAL MALE            CCN000058500000058500FN00000000020211201000058500NNE   20211213155045    4P0P  0000195000000067080000096441200    YCYC    006400630015
BI00A1200    MKH2021-223    202112177195-1936-02             TERMINAL MALE            CCN000045000000045000FN00000000020211201000045000NNE   20211213155045    4P0P  0000150000000058950000088311200    YCYC    006400630015
BI00A1200    MKH2021-223    202112177195-1937-02             TERMINAL MALE            CCN000030000000030000FN00000000020211201000030000NNE   20211213155045    4P0P  0000150000000059400000088761200    YCYC    006400630015
BI00A1200    MKH2021-223    202112177196-1935-02             TERMINAL FEMALE          CCN000162000000162000FN00000000020211201000162000NNE   20211213155045    4P0P  0000180000000053460000081981200    YCYC    006400630015
BI00A1200    MKH2021-223    202112177196-1936-02             TERMINAL FEMALE          CCN000067500000067500FN00000000020211201000067500NNE   20211213155045    4P0P  0000135000000044150000072671200    YCYC    006400630015
BI00A1200    MKH2021-223    202112177196-1937-02             TERMINAL FEMALE          CCN000067500000067500FN00000000020211201000067500NNE   20211213155045    4P0P  0000135000000044690000073211200    YCYC    006400630015
BI00A1200    MKH2021-223    202112177196-1940-02             TERMINAL FEMALE          CCN000013500000013500FN00000000020211201000013500NNE   20211213155045    4P0P  0000135000000052920000081741200    YCYC    006400630015
BI00A1200    MKH2021-223    202112177196-1941-02             TERMINAL FEMALE          CCN000011400000011400FN00000000020211201000011400NNE   20211213155045    4P0P  0000114000000050620000079441200    YCYC    006400630015
BI00A1200    2399T51923     202201117289-5979-30             HOUSING FEMALE ASS'Y     PCN000005544000005544FN00000000020211101000005544NNMD0220211213160716    1N0N  0000002520000085470000106471200    YCYC    005400370024
BI00A1200    2399T51923     202201137289-5979-30             HOUSING FEMALE ASS'Y     PCN000004032000004032FN00000000020211101000004032NNMD0220211213160905    1N0N  0000002520000085470000106471200    YCYC    005400370024
BI00B32AF    JTB2013        202112247287-1915-30             CONNECTOR ASS'Y          CCN000004800000004800FN00000000020220101000004800NNMD0620211213131315    4N0N  00000240000000666500000923132AF    HBYHVTB 005500360039
BI00B32BF    TT2202AKMW     202201047114-1301                TERMINAL                 CCN000058500000058500FN00000000020220201000058500NNED0720211213122659    4P0P  00001950000000614300000907932BF    TTTJYCD 006400630015
BI00B32BG    YY22035CMW     202202107296-1025-02             TERMINAL ALUMINIUM       CCN000054000000054000FN00000000020220301000054000NNM   20211213122659    4P0P  00001800000000635400000920632BG    YGYYA   006400630015
BI00B32BG    YY22035NMW     202202107158-3169-40             SEALING PLUG             CCN000040000000040000FN00000000020220301000040000NNM   20211213130723    1C0C  00004000000000156000000204132BG    YGYYA   004300260014
BI00B32BG    #YY22031NMW    202201137158-3120-90             CONNECTOR WIRE SEAL      CCN000020000000020000FN00000000020220301000020000NNM   20211213130722    2C0C  00002000000000136000000194032BG    YGYYA   002700430014
BI00B32B1    A22009         202201287114-4032                TERMINAL                 CCN000007500000007500FN00000000020220401000007500NNM   20211213122659B1  4P0P  00000750000000735000001063632B1    AXARNE-M006400630017
BI00B32B1    A22009         202201287158-3166-60             WIRE SEAL                CCN000040000000040000FN00000000020220401000040000NNM   20211213122659B1  1C0C  00004000000000104000000152432B1    AXARNE-M002700430014
BI00B32B1    A22009         202201287158-3168-80             SEALED                   CCN000020000000020000FN00000000020220401000020000NNM   20211213122659B1  1C0C  00002000000000044000000092132B1    AXARNE-M004300260014
BI00B32B1    A22009         202201287282-5553-30             CONNECTOR                CCN000001000000001000FN00000000020220401000001000NNM   20211213122659B1  4N0N  00000100000001010000001187332B1    AXARNE-M005500360039
BI00B32B1    A22009         202201287282-5574-10             CONNECTOR                CCN000000800000000800FN00000000020220401000000800NNM   20211213122659B1  4N0N  00000080000001235000001423032B1    AXARNE-M005600390040
BI00B32B1    A22009         202201287282-6448-40             CONNECTOR                CCN000008000000008000FN00000000020220401000008000NNM   20211213122659B1  4N0N  00000080000000887000001152732B1    AXARNE-M005600390040
BI00B32B1    #A22009        202201287157-3891                RUBBER STOPPER           CCN000010000000010000FN00000000020220401000010000NNM   20211213122659B1  2H0H  00001000000000145000000241732B1    AXARNE-M004300270014
BI00B32B1    #A22009        202201287158-3376-50             CONNECTOR WIRE SEAL      CCN000120000000120000FN00000000020220401000120000NNM   20211213122659B1  2C0C  00002000000000184000000240732B1    AXARNE-M002700430014
BI00B32B1    #A22009        202201287283-8226-30             CONNECTOR                CCN000010000000010000FN00000000020220401000010000NNM   20211213122659B1  2N0N  00000200000000820000001008032B1    AXARNE-M005400370024
BI00B32B6    A72009         202201287116-4037                TERMINAL                 CCN000006000000006000FN00000000020220401000006000NNM   20211213122659B6  4P0P  00000600000000600000000894232B6    AXARNE-M006400630015
BI00B32B6    A72009         202201287017-1180-02             TERMINAL                 CCN000072000000072000FN00000000020220401000072000NNM   20211213122659B6  4P0P  00007200000001065600001229032B6    AXARNE-M005100280028
BI00B32B6    A72009         202201287287-0192-40             SEALED HOUSING ASS'Y     CCN000000960000000960FN00000000020220401000000960NNM   20211213122659B6  4N0N  00000048000001092000001322032B6    AXARNE-M005600390040
BI00B32B7    A82009         202201287158-3167-80             WIRE SEAL                CCN000040000000040000FN00000000020220401000040000NNM   20211213122659B7  1C0C  00002000000000048000000109032B7    AXARNE-M002700430014
BI00B32B7    A82009         202201287158-3168-80             SEALED                   CCN000040000000040000FN00000000020220401000040000NNM   20211213122659B7  1C0C  00002000000000044000000092132B7    AXARNE-M004300260014
BI00B32B7    A82009         202201287158-3169-40             SEALING PLUG             CCN000040000000040000FN00000000020220401000040000NNM   20211213122659B7  1C0C  00004000000000156000000204132B7    AXARNE-M004300260014
BI00B32B7    A82009         202201287282-6448-40             CONNECTOR                CCN000003200000003200FN00000000020220401000003200NNM   20211213122659B7  4N0N  00000080000000887000001152732B7    AXARNE-M005600390040
BI00B32B7    #A82009        202201287158-3376-50             CONNECTOR WIRE SEAL      CCN000020000000020000FN00000000020220401000020000NNM   20211213122659B7  2C0C  00002000000000184000000240732B7    AXARNE-M002700430014
BI00B32B7    #A82009        202201287282-8395-40             CONNECTOR                CCN000003000000003000FN00000000020220401000003000NNM   20211213122659B7  2N0N  00000100000001009000001188032B7    AXARNE-M005500360039
BI00B32B7    #A82009        202201287283-8398-40             CONNECTOR                CCN000006160000006160FN00000000020220401000006160NNM   20211213122659B7  2N0N  00000154000001007000001171332B7    AXARNE-M005600390023
BI00B32CG    S211016-M      202112227116-4120-02             TERMINAL                 CCN000006000000006000FN00000000020211201000006000NNED0020211213122659    4P0P  00000600000000780000001073632CG    ASASIACO006400630015
BI00A32CG    #S211027-S     202112167158-3121-80             WIRE SEAL                CCN000040000000040000FN00000000020220101000040000NNEM0020211213171347    2C0C  00002000000000118000000187332CG    ASASIACO002700430014
BI00B32CG    S211026-M      202201057116-4120-02             TERMINAL                 CCN000012000000006000FN00000000020220101000006000NNEQ0020211213171305    4P0P  00000600000000780000001073632CG    ASASIACO006400630015
BI00A32CG    S211026-M      202112167114-4111-02             TERMINAL                 CCN000012000000012000FN00000000020220101000012000NNEM0020211213171124    4P0P  00001200000000758400001087032CG    ASASIACO006400630017
BI00B32CG    #S211117-S     202201127158-3121-80             WIRE SEAL                CCN000040000000020000FN00000000020220101000020000NNEQ0020211213171429    2C0C  00002000000000118000000187332CG    ASASIACO002700430014
BI00A32CG    S211026-M      202112167116-4120-02             TERMINAL                 CCN000006000000006000FN00000000020220101000006000NNEM0020211213171310    4P0P  00000600000000780000001073632CG    ASASIACO006400630015
BI00A32CG    #S211117-S     202112167158-3121-80             WIRE SEAL                CCN000020000000020000FN00000000020220101000020000NNEM0020211213171435    2C0C  00002000000000118000000187332CG    ASASIACO002700430014
BI00A32CH    #SJ21114HMW    202112247298-2459-60             LIF FEMALE ASSEMBLY      PCN000011088000011088FN00000000020211101000011088NNMM0020211213141335    2N0N  00000016800000534000000729632CH    SJSAMIJF005400370024
BI00B32CJ    JQN1123        202112147289-6547                HOUSING FEMALE ASS'Y     CCN000002400000002400FN00000000020211201000002400NNM00020211213164356    1N0N  00000240000001152000001362032CJ    QNYHVQN 005500360039
BI00A32CJ    JQN111N        202112167289-3342-40             HOUSING FEMALE ASS'Y     CCN000004800000004800FN00000000020211101000004800NNEM0020211213133435    1N0N  00000240000000686400000901432CJ    QNYHVQN 005500360039
BI00B32DE    TCT2021        202201277283-4855-40             CONNECTOR HOUSING        CCN000004800000004800FN00000000020220201000004800NNMD0420211213165943    4N0N  00000240000001188400001400032DE    TVYEV-TV005600360039
BI00B32DE    TCT2024        202202037289-3342-30             HOUSING FEMALE ASS'Y     CCN000024000000024000FN00000000020220201000024000NNMD0420211213170219    1N0N  00000240000000686400000901432DE    TVYEV-TV005500360039
BI00B32DE    TCT2024        202202037289-3342-90             HOUSING FEMALE ASS'Y     CCN000002400000002400FN00000000020220201000002400NNMD0420211213170227    1N0N  00000240000000686400000901432DE    TVYEV-TV005500360039
BI00B32DE    TCT201A        202202037288-6547                CONNECTOR MALE ASS'Y     CCN000001500000001500FN00000000020220101000001500NNED0420211213122659    4N0N  00000075000001205300001340332DE    TVYEV-TV005400370024
BI00B32DE    TCT201A        202201137289-3342-30             HOUSING FEMALE ASS'Y     CCN000014400000014400FN00000000020220101000014400NNED0420211213122659    1N0N  00000240000000686400000901432DE    TVYEV-TV005500360039
BI00B32DE    TCT202A        202202107288-6547                CONNECTOR MALE ASS'Y     CCN000001500000001500FN00000000020220201000001500NNED0420211213122659    4N0N  00000075000001205300001340332DE    TVYEV-TV005400370024
BI00B32DE    TCT202A        202202107289-3342                HOUSING FEMALE ASS'Y     CCN000002400000002400FN00000000020220201000002400NNED0420211213122659    1N0N  00000240000000686400000901432DE    TVYEV-TV005500360039
BI00B32DE    TCT202A        202201277289-3342-30             HOUSING FEMALE ASS'Y     CCN000016800000016800FN00000000020220201000016800NNED0420211213122659    1N0N  00000240000000686400000901432DE    TVYEV-TV005500360039
BI00B32DE    TCT202A        202201207289-3342-90             HOUSING FEMALE ASS'Y     CCN000002400000002400FN00000000020220201000002400NNED0420211213122659    1N0N  00000240000000686400000901432DE    TVYEV-TV005500360039
BI00A32DG    RP2021         202112157116-4026                TERMINAL                 CCN000016000000016000FN00000000020220201000016000NNMM0020211213164022    4P0P  00001600000000664000000994332DG    BFSAIBF 006400630017
BI00A32DG    @RP2021        202112157282-1040                HOUSING SUB ASSEMBLY     CCN000004800000004800FN00000000020220201000004800NNMM0020211213164050    3N0N  00000240000001014400001256032DG    BFSAIBF 005500360039
BI00B32DJ    GHT2201B 2     202112237116-3153-02             TERMINAL FEMALE          CCN000567000000567000FN00000000020220101000567000NNMD0420211213133951    4P0P  00002700000000459000000744232DJ    RBYIPLRB006400630015
BI00B32D2    DGTC2152       202112177289-3342                HOUSING FEMALE ASS'Y     CCN000033600000033600FN00000000020211201000033600NNMD0420211213122659    1N0N  00000240000000686400000901432D2    TGYOT-G 005500360039
BI00B32D2    DGTC2210       202203177288-6547                CONNECTOR MALE ASS'Y     CCN000006750000006750FN00000000020220301000006750NNMD0420211213122659    4N0N  00000075000001205300001340332D2    TGYOT-G 005400370024
BI00B32D2    DGTC2210       202202037289-3342                HOUSING FEMALE ASS'Y     CCN000122400000040800FN00000000020220301000040800NNMD0420211213122659    1N0N  00000240000000686400000901432D2    TGYOT-G 005500360039
BI00B32D2    DGTC2210       202202037289-3342-30             HOUSING FEMALE ASS'Y     CCN000036000000036000FN00000000020220301000036000NNMD0420211213122659    1N0N  00000240000000686400000901432D2    TGYOT-G 005500360039
BI00B32D2    DGTC2210       202202107289-3342-40             HOUSING FEMALE ASS'Y     CCN000038400000038400FN00000000020220301000038400NNMD0420211213122659    1N0N  00000240000000686400000901432D2    TGYOT-G 005500360039
BI00B32D2    DGTC2210       202202177289-3342-90             HOUSING FEMALE ASS'Y     CCN000043200000043200FN00000000020220301000043200NNMD0420211213122659    1N0N  00000240000000686400000901432D2    TGYOT-G 005500360039
BI00B32D2    DGTC2210       202202107289-3342                HOUSING FEMALE ASS'Y     CCN000040800000040800FN00000000020220301000040800NNMD0420211213122659    1N0N  00000240000000686400000901432D2    TGYOT-G 005500360039
BI00B32D2    DGTC2210       202202177289-3342                HOUSING FEMALE ASS'Y     CCN000040800000040800FN00000000020220301000040800NNMD0420211213122659    1N0N  00000240000000686400000901432D2    TGYOT-G 005500360039
BI00B32EJ    4500185729     202201207116-2951-02             TERMINAL                 CCN000016200000016200FN00000000020220101000016200NNE   20211213122659EJ  4P0P  00000540000000817600001111832EJ    EJYKBO  006400630015
BI00B32EJ    4500185729     202201207116-4100-02             TERMINAL                 CCN000015000000015000FN00000000020220101000015000NNE   20211213122659EJ  4P0P  00001500000000696000000990232EJ    EJYKBO  006400630015
BI00B32EJ    4500185729     202201207116-4101-02             TERMINAL                 CCN000180000000180000FN00000000020220101000180000NNE   20211213122659EJ  4P0P  00001200000000582000000876232EJ    EJYKBO  006400630015
BI00B32EJ    4500185729     202201207116-4120-02             TERMINAL                 CCN000048000000048000FN00000000020220101000048000NNE   20211213122659EJ  4P0P  00000600000000780000001073632EJ    EJYKBO  006400630015
BI00B32EJ    4500185729     202201207116-4231-02             TERMINAL                 CCN000130000000130000FN00000000020220101000130000NNE   20211213122659EJ  4P0P  00002600000000683800001012532EJ    EJYKBO  006400630017
BI00B32EJ    4500185729     202201207116-5045-02             TERMINAL                 CCN000016000000016000FN00000000020220101000016000NNE   20211213122659EJ  4P0P  00001600000000678400001007132EJ    EJYKBO  006400630017
BI00B32EJ    4500185729     202201207116-5751-02             TERMINAL                 CCN000024000000024000FN00000000020220101000024000NNE   20211213122659EJ  4P0P  00001200000000379200000664432EJ    EJYKBO  006400630015
BI00B32EJ    4500185729     202201207158-3006-90             RUBBER STOPPER           CCN000260000000260000FN00000000020220101000260000NNE   20211213122659EJ  1C0C  00002000000000330600000386032EJ    EJYKBO  002700430014
BI00B32EJ    4500185729     202201207158-3070-80             RUBBER STOPPER           CCN000360000000360000FN00000000020220101000360000NNE   20211213122659EJ  1C0C  00004000000000276000000333332EJ    EJYKBO  002700430014
BI00B32EJ    4500185729     202201207222-7564-40             CONNECTOR                CCN000000500000000500FN00000000020220101000000500NNE   20211213122659EJ  1N0N  00000050000000967000001097032EJ    EJYKBO  005500360039
BI00B32EJ    4500185729     202201207283-1020                CONNECTOR                CCN000048000000048000FN00000000020220101000048000NNE   20211213122659EJ  4N0N  00000600000000840000001049332EJ    EJYKBO  005600390040
BI00B32EJ    4500185729     202201207283-5843                CONNECTOR                CCN000006000000006000FN00000000020220101000006000NNE   20211213122659EJ  1N0N  00000150000000889000001132032EJ    EJYKBO  005600390040
BI00B32EJ    #4500185729    202201207123-6423-30             CONNECTOR                CCN000012000000012000FN00000000020220101000012000NNE   20211213122659EJ  2F0F  00000200000001002000001167632EJ    EJYKBO  005600390023
BI00B32EJ    #4500185729    202201207157-3821                RUBBER STOPPER           CCN000040000000040000FN00000000020220101000040000NNE   20211213122659EJ  2C0C  00002000000000176000000238032EJ    EJYKBO  002700430014
BI00B32EJ    #4500185729    202201207283-8398-40             CONNECTOR                CCN000083160000083160FN00000000020220101000083160NNE   20211213122659EJ  2N0N  00000154000001007000001171332EJ    EJYKBO  005600390023
BI00B32EJ    #4500185728    202201067282-3042-90             CONNECTOR                CCN000018000000018000FN00000000020210101000018000NNED0020211213163714EJ  2N0N  00000090000001418000001584032EJ    EJYKBO  005500360039
BI00B32EJ    4500185740     202201067116-5045-02             TERMINAL                 CCN000016000000016000FN00000000020220101000016000NNE   20211213122659EJ  4P0P  00001600000000678400001007132EJ    EJYKBO  006400630017
BI00B32G0    TZ22011EMW     202112147288-6547                CONNECTOR MALE ASS'Y     CCN000016500000016500FN00000000020220101000016500NNM00020211213164954    4N0N  00000075000001205300001340332G0    TTTJY   005400370024
BI00B32G0    TZ22022EMW     202112217114-5748-02             TERMINAL                 CCN000012000000012000FN00000000020220201000012000NNMD0020211213122659    4P0P  00001200000000444000000737632G0    TTTJY   006400630015
BI00B32G0    TZ22022EMW     202112217116-5046-02             TERMINAL                 CCN000024000000024000FN00000000020220201000024000NNMD0020211213122659    4P0P  00001200000000544800000873532G0    TTTJY   006400630017
BI00B32G0    TZ22022EMW     202112217116-6042                TERMINAL                 CCN000033000000033000FN00000000020220201000033000NNMD0020211213122659    4P0P  00000300000000523800000856132G0    TTTJY   006400630015
BI00B32G0    TZ22022EMW     202112217126-8853-02             TERMINAL                 CCN000022500000022500FN00000000020220201000022500NNMD0020211213122659    4P0P  00000750000000562500000847732G0    TTTJY   006400630015
BI00B32G0    TZ22022EMW     202112217158-3070-80             RUBBER STOPPER           CCN000040000000040000FN00000000020220201000040000NNMD0020211213122659    1C0C  00004000000000276000000333332G0    TTTJY   002700430014
BI00B32G0    TZ22022EMW     202112217158-3165-90             WIRE SEAL                CCN000040000000040000FN00000000020220201000040000NNMD0020211213122659    1C0C  00004000000000124000000172432G0    TTTJY   004300270014
BI00B32G0    TZ22022EMW     202112217196-0396-02             TERMINAL                 CCN000015000000015000FN00000000020220201000015000NNMD0020211213122659    4P0P  00001500000000949500001112932G0    TTTJY   002800510028
BI00B32G0    TZ22022EMW     202112217196-0510-02             TERMINAL                 CCN000024000000024000FN00000000020220201000024000NNMD0020211213122659    4P0P  00002400000000871200001034632G0    TTTJY   002800510028
BI00B32G0    TZ22022EMW     202112217296-0784-02             TERMINAL ALUMINIUM       CCN000024000000024000FN00000000020220201000024000NNMD0020211213122659    4P0P  00002400000000480000000765232G0    TTTJY   006400630015
BI00B32G0    #TZ22022EMW    202112217183-1616                CONNECTOR HOUSING        CCN000002400000002400FN00000000020220201000002400NNMD0020211213122659    2F0F  00000240000000557500000823332G0    TTTJY   005500360039
BI00B32G0    #TZ22022EMW    202112217189-2978-30             HOUSING FEMALE           CCN000003000000003000FN00000000020220201000003000NNMD0020211213122659    2F0F  00000150000000966900001096932G0    TTTJY   005400370024
BI00B32G2    SA21114 MW     202112227283-4855                CONNECTOR HOUSING        CCN000012000000012000FN00000000020211101000012000NNM00020211213164600    4N0N  00000240000001188400001400032G2    AISUAI  005500360039
BI00B32G2    SA21121 MW     202112157158-3009-60             RUBBER STOPPER           CCN000160000000160000FN00000000020211201000160000NNM00020211213161323    1C0C  00002000000000338000000386232G2    AISUAI  002700430014
BI00B32G2    SA21121 MW     202112227283-4855                CONNECTOR HOUSING        CCN000004800000004800FN00000000020211201000004800NNM00020211213164534    4N0N  00000240000001188400001400032G2    AISUAI  005500360039
BI00A32G2    #QA-21-C122    202112147282-5845-30             HOUSING MALE ASS'Y       PNN000008000000008000FN00000000020211201000008000NNE   20211213122659    2N0N  00000400000001068000001178032G2    AISUAI  005400370024
BI00B32G7    JJ22013 MW     202112297287-1915                CONNECTOR ASS'Y          CCN000016800000016800FN00000000020220101000016800NNMD0020211213122659    4N0N  00000240000000666500000923132G7    JIJAI   005500360039
BI00B32G7    JJ22013 MW     202112297289-3342-30             HOUSING FEMALE ASS'Y     CCN000021600000021600FN00000000020220101000021600NNMD0020211213122659    1N0N  00000240000000686400000901432G7    JIJAI   005500360039
BI00B32G7    #JJ22013MMW    202112227183-1615                HOUSING                  CCN000004800000004800FN00000000020220101000004800NNMD0020211213122659    2F0F  00000480000000757000001042032G7    JIJAI   005500360039
BI00B32G7    #JJ22013MMW    202112237189-2978-30             HOUSING FEMALE           CCN000010500000010500FN00000000020220101000010500NNMD0020211213122659    2F0F  00000150000000966900001096932G7    JIJAI   005400370024
BI00B32G8    PATA2021       202201197470-5302                J/B COMPLETE ASS'Y       CCN000004200000004200FN00000000020220201000004200NNMD0420211213122659    4J0J  00000001000000494000000661032G8    PSPASI  005400370024
BI00B32G8    PATA2021       202201197470-5945                J/B COMPLETE ASS'Y       CCN000002400000002400FN00000000020220201000002400NNMD0420211213122659    4J0J  00000001000000494000000661032G8    PSPASI  005400370024
BI00B32G8    PATA2021       202201197470-5946                J/B COMPLETE ASS'Y       CCN000001350000001350FN00000000020220201000001350NNMD0420211213122659    4J0J  00000001000000494000000661032G8    PSPASI  005400370024
BI00B32H0    #TT22022VMW    202112217287-9155                HOUSING FEMALE ASS'Y     CCN000000960000000960FN00000000020220201000000960NNMD0020211213122659    2N0N  00000096000000853700001045232H0    TTTJY   005400370024
BI00B32H2    TIJ201F        202112247287-1915-30             CONNECTOR ASS'Y          CCN000004800000000000FY00000000020220101000000000NNEQ0820211213131115    4N0N  00000240000000666500000923132H2    HVYHV   005500360039
BI00A32H2    #QA-21-C122    202112157282-5845                HOUSING MALE ASS'Y       PNY000004478000004478FN00000000020211201000004478NNED0020211213122659    2N0N  00000400000001068000001178032H2    HVYHV   005400370024
BI00B32H2    TIJ202A        202201077114-4032                TERMINAL                 CCN000007500000007500FN00000000020220201000007500NNE   20211213130810    4P0P  00000750000000735000001063632H2    HVYHV   006400630017
BI00B32H2    TIJ202A        202201077114-4486-02             TERMINAL                 CCN000024000000024000FN00000000020220201000024000NNE   20211213130810    4P0P  00002400000000662400000956032H2    HVYHV   006400630015
BI00B32H2    TIJ202A        202201077114-4728-08             TERMINAL                 CCN000060000000060000FN00000000020220201000060000NNE   20211213130810    4P0P  00003000000000507000000801232H2    HVYHV   006400630015
BI00B32H2    TIJ202A        202201077114-5747-02             TERMINAL                 CCN000054000000054000FN00000000020220201000054000NNE   20211213130810    4P0P  00001800000000626400000920032H2    HVYHV   006400630015
BI00B32H2    TIJ202A        202201077114-5748-02             TERMINAL                 CCN000024000000024000FN00000000020220201000024000NNE   20211213130810    4P0P  00001200000000444000000737632H2    HVYHV   006400630015
BI00B32H2    TIJ202A        202201077114-6041                TERMINAL                 CCN000010800000010800FN00000000020220201000010800NNE   20211213130810    4P0P  00000360000000580700000824232H2    HVYHV   006400630015
BI00B32H2    TIJ202A        202201077116-4032                TERMINAL                 CCN000012000000012000FN00000000020220201000012000NNE   20211213130810    4P0P  00000600000000532800000818032H2    HVYHV   006400630015
BI00B32H2    TIJ202A        202201077116-5042-02             TERMINAL                 CCN000027000000027000FN00000000020220201000027000NNE   20211213130810    4P0P  00001350000000560300000845532H2    HVYHV   006400630015
BI00B32H2    TIJ202A        202201077116-5043-02             TERMINAL FEMALE          CCN000024000000024000FN00000000020220201000024000NNE   20211213130810    4P0P  00001200000000559200000844432H2    HVYHV   006400630015
BI00B32H2    TIJ202A        202201077116-5044-02             TERMINAL                 CCN000048000000048000FN00000000020220201000048000NNE   20211213130810    4P0P  00001600000000641600000986332H2    HVYHV   006400630017
BI00B32H2    TIJ202A        202201077116-5045-02             TERMINAL                 CCN000048000000048000FN00000000020220201000048000NNE   20211213130810    4P0P  00001600000000678400001007132H2    HVYHV   006400630017
BI00B32H2    TIJ202A        202201077158-3009-60             RUBBER STOPPER           CCN000100000000100000FN00000000020220201000100000NNE   20211213130810    1C0C  00002000000000338000000386232H2    HVYHV   002700430014
BI00B32H2    TIJ202A        202201077196-1936-02             TERMINAL FEMALE          CCN000013500000013500FN00000000020220201000013500NNE   20211213130810    4P0P  00001350000000441500000726732H2    HVYHV   006400630015
BI00B32H2    #TIJ202A       202201077114-4022                TERMINAL                 CCN000030000000030000FN00000000020220201000030000NNE   20211213130808    2F0P  00001500000000708000001120632H2    HVYHV   006400630015
BI00B32H2    TIJ202B        202201217114-4728-02             TERMINAL                 CCN000300000000300000FN00000000020220201000300000NNE   20211213130823    4P0P  00003000000000510000000804232H2    HVYHV   006400630015
BI00B32H2    TIJ202B        202201217116-3153-08             TERMINAL                 CCN000081000000081000FN00000000020220201000081000NNE   20211213130823    4P0P  00002700000000461700000746932H2    HVYHV   006400630015
BI00B32H2    TIJ202B        202201217116-3154-08             TERMINAL                 CCN000027000000027000FN00000000020220201000027000NNE   20211213130823    4P0P  00002700000000475200000760432H2    HVYHV   006400630015
BI00B32H2    TIJ202B        202201217116-4486-02             TERMINAL                 CCN000028000000028000FN00000000020220201000028000NNE   20211213130823    4P0P  00002800000000666400000995132H2    HVYHV   006400630017
BI00B32H2    TIJ202B        202201217116-5750-02             TERMINAL                 CCN000090000000090000FN00000000020220201000090000NNE   20211213130823    4P0P  00001500000000457500000742732H2    HVYHV   006400630015
BI00B32H2    TIJ202B        202201217126-8853-02             TERMINAL                 CCN000007500000007500FN00000000020220201000007500NNE   20211213130823    4P0P  00000750000000562500000847732H2    HVYHV   006400630015
BI00B32H2    TIJ202B        202201217195-1479-02             TERMINAL MALE            CCN000024000000024000FN00000000020220201000024000NNE   20211213130823    4P0P  00002400000000420000000714232H2    HVYHV   006400630015
BI00B32H2    TIJ202B        202201217196-1103-02             TERMINAL                 CCN000022500000022500FN00000000020220201000022500NNE   20211213130823    4P0P  00002250000000429800000715032H2    HVYHV   006400630015
BI00B32H2    TIJ202B        202201217196-1481-02             TERMINAL FEMALE          CCN000120000000120000FN00000000020220201000120000NNE   20211213130823    4P0P  00002400000000422400000707632H2    HVYHV   006400630015
BI00B32H2    TIJ202C        202201287114-4729-02             TERMINAL                 CCN000090000000090000FN00000000020220201000090000NNE   20211213130837    4P0P  00003000000000516000000810232H2    HVYHV   006400630015
BI00B32H2    TIJ202C        202201287114-5746-02             TERMINAL                 CCN000063000000063000FN00000000020220201000063000NNE   20211213130837    4P0P  00002100000000695100000988732H2    HVYHV   006400630015
BI00B32H2    TIJ202C        202201287116-4110-02             TERMINAL                 CCN000009000000009000FN00000000020220201000009000NNE   20211213130837    4P0P  00000900000000594000000882232H2    HVYHV   006400630015
BI00B32H2    TIJ202C        202201287126-8854-02             TERMINAL                 CCN000007500000007500FN00000000020220201000007500NNE   20211213130837    4P0P  00000750000000604500000889732H2    HVYHV   006400630015
BI00B32H2    TIJ202C        202201287196-1104-02             TERMINAL                 CCN000022500000022500FN00000000020220201000022500NNE   20211213130837    4P0P  00002250000000441000000726232H2    HVYHV   006400630015
BI00B32H2    TIJ202D        202202047116-6042                TERMINAL                 CCN000006000000006000FN00000000020220201000006000NNE   20211213130901    4P0P  00000300000000523800000856132H2    HVYHV   006400630015
BI00B32H7    FS22011DMW     202112177283-4855                CONNECTOR HOUSING        CCN000002400000002400FN00000000020220101000002400NNM00020211213144516    4N0N  00000240000001188400001400032H7    FYFSY   005500360039
BI00A32H7    #FS22011DMW    202112177172-5630-40             RUBBER STOPPER           PCN000260000000260000FN00000000020220101000260000NNMM0020211213140524    2H0H  00002000000000044000000095132H7    FYFSY   004300270014
BI00B32H8    #TY2202A MW    202112247183-2413                CONNECTOR HOUSING        CCN000009600000009600FN00000000020220201000009600NNE   20211213131717    2F0F  00000480000000478100000760032H8    TYTYC   005500360039
BI00B32H8    TY2202AKMW     202112247283-1156                CONNECTOR                CCN000001600000001600FN00000000020220201000001600NNE   20211213131851    4N0N  00000080000000877600001078032H8    TYTYC   005600390040
BI00B32H8    #TY2202AKMW    202112247035-5731                GROMMET                  CCN000003000000003000FN00000000020220201000003000NNE   20211213131849    2H0H  00000050000000808000000918032H8    TYTYC   005600390040
BI00B32H8    #TY2202AKMW    202112247183-2418-30             CONNECTOR HOUSING        CCN000004800000004800FN00000000020220201000004800NNE   20211213131849    2F0F  00000480000000917000001235332H8    TYTYC   005500360039
BI00B32H8    #TY2202AKMW    202112247282-1641                CONNECTOR                CCN000008000000008000FN00000000020220201000008000NNE   20211213131849    2N0N  00000200000000813000000986032H8    TYTYC   005500360039
BI00B32H8    #TY2202AKMW    202112247283-8123-30             CONNECTOR HOUSING        CCN000004000000004000FN00000000020220201000004000NNE   20211213131849    2N0N  00000400000000380000000530032H8    TYTYC   005600390023
BI00B32M1    TCV112B        202112237287-1915-30             CONNECTOR ASS'Y          CCN000007200000007200FN00000000020211201000007200NNED0620211213122659    4N0N  00000240000000666500000923132M1    VNYEV   005500360039
BI00B32M3    SM2201C MW     202201067116-6042                TERMINAL                 CCN000003000000003000FN00000000020220101000003000NNE   20211213134009    4P0P  00000300000000523800000856132M3    SASAMI  006400630015
BI00B32M3    SM2201C MW     202201067126-8854-02             TERMINAL                 CCN000007500000007500FN00000000020220101000007500NNE   20211213134009    4P0P  00000750000000604500000889732M3    SASAMI  006400630015
BI00B32M3    SM2201C MW     202201067283-7526-40             CONNECTOR HOUSING        CCN000001960000001960FN00000000020220101000001960NNE   20211213134009    4N0N  00000196000000989800001248632M3    SASAMI  005500360039
BI00B32M3    SM2201CHMW     202201067388-0313-30             CONNECTOR ASS'Y          CCN000002400000002400FN00000000020220101000002400NNE   20211213134027    4N0N  00000120000000995000001125032M3    SASAMI  005400370024
BI00B32M3    #SM2201CHMW    202201067188-0149                HLC HOUSING MALE         CCN000000900000000900FN00000000020220101000000900NNE   20211213134020    2F0F  00000090000000809100000923832M3    SASAMI  005400370024
BI00B32M4    TP2014         202112297283-1288                CONNECTOR HOUSING        CCN000001200000001200FN00000000020220101000001200NNMD0020211213122659    4N0N  00000120000001381000001637032M4    SISAI   005600390040
BI00B32M4    TP2014         202112297287-1915                CONNECTOR ASS'Y          CCN000004800000004800FN00000000020220101000004800NNMD0020211213122659    4N0N  00000240000000666500000923132M4    SISAI   005500360039
BI00B32M4    TP2014         202112297289-3342-30             HOUSING FEMALE ASS'Y     CCN000021600000021600FN00000000020220101000021600NNMD0020211213122659    1N0N  00000240000000686400000901432M4    SISAI   005500360039
BI00B32M4    TP2014         202112297388-2978-30             HOUSING MALE ASS'Y       CCN000022560000022560FN00000000020220101000022560NNMD0020211213122659    1N0N  00000048000000742000001122032M4    SISAI   005500360039
BI00B32M4    TP2014         202112297289-5979-30             HOUSING FEMALE ASS'Y     CCN000000252000000252FN00000000020220101000000252NNMD0020211213122659    1N0N  00000025200000854700001064732M4    SISAI   005400370024
BI00B32M4    TP2014         202112297289-3342                HOUSING FEMALE ASS'Y     CCN000004800000004800FN00000000020220101000004800NNMD0020211213122659    1N0N  00000240000000686400000901432M4    SISAI   005500360039
BI00B32M4    TP2014         202112297327-6731-3W             BATTERY FUSE             CCN000002368000002368FN00000000020220101000002368NNMD0020211213122659    4N0N  00000006400000697600000843032M4    SISAI   005400370024
BI00A32M4    #QA-21-C122    202112167282-5845-30             HOUSING MALE ASS'Y       PNN000008000000008000FN00000000020211201000008000NNEM0020211213122659    2N0N  00000400000001068000001178032M4    SISAI   005400370024
BI00A32M4    #QA-21-C122    202112167282-5845                HOUSING MALE ASS'Y       PNN000008000000008000FN00000000020211201000008000NNEM0020211213122659    2N0N  00000400000001068000001178032M4    SISAI   005400370024
BI00B32M8    PM22013 MW     202112297283-1288                CONNECTOR HOUSING        CCN000004800000004800FN00000000020220101000004800NNMD0020211213131022    4N0N  00000120000001381000001637032M8    PMPEMI  005600390040
BI00B32M8    PM22013 MW     202112297283-1288-40             CONNECTOR HOUSING        CCN000002400000002400FN00000000020220101000002400NNMD0020211213131022    4N0N  00000120000001382000001640732M8    PMPEMI  005600390040
BI00B32M8    PM22013 MW     202112297283-5845                CONNECTOR HOUSING        CCN000006000000006000FN00000000020220101000006000NNMD0020211213131031    1N0N  00000600000000444000000606332M8    PMPEMI  005400370024
BI00B32M8    PM22013 MW     202112297287-1915                CONNECTOR ASS'Y          CCN000014400000014400FN00000000020220101000014400NNMD0020211213131051    4N0N  00000240000000666500000923132M8    PMPEMI  005500360039
BI00B32M8    PM22013 MW     202112297289-3342-30             HOUSING FEMALE ASS'Y     CCN000012000000012000FN00000000020220101000012000NNMD0020211213131102    1N0N  00000240000000686400000901432M8    PMPEMI  005500360039
BI00B32M8    #PM22013 MW    202112227182-2410                CONNECTOR HOUSING        CCN000001200000001200FN00000000020220101000001200NNMD0020211213130100    2F0F  00000120000000959800001245632M8    PMPEMI  005500360039
BI00B32M8    #PM22013 MW    202112227183-1616                CONNECTOR HOUSING        CCN000002400000002400FN00000000020220101000002400NNMD0020211213130113    2F0F  00000240000000557500000823332M8    PMPEMI  005500360039
BI00B32M8    #PM22013 MW    202112227183-1616-30             CONNECTOR HOUSING        CCN000007200000007200FN00000000020220101000007200NNMD0020211213130130    2F0F  00000240000000557500000837132M8    PMPEMI  005500360039
BI00B32M8    #PM22013 MW    202112237183-2413                CONNECTOR HOUSING        CCN000019200000019200FN00000000020220101000019200NNMD0020211213130151    2F0F  00000480000000478100000760032M8    PMPEMI  005500360039
BI00B32M8    #PM22013 MW    202112237183-2413-30             CONNECTOR HOUSING        CCN000004800000004800FN00000000020220101000004800NNMD0020211213130203    2F0F  00000480000000477600000759532M8    PMPEMI  005500360039
BI00B32M8    #PM22013 MW    202112227183-2416                HOUSING                  CCN000002400000002400FN00000000020220101000002400NNMD0020211213130235    2F0F  00000240000001495200001771032M8    PMPEMI  005500360039
BI00B32M8    #PM22013 MW    202112237183-2419                HOUSING                  CCN000004800000004800FN00000000020220101000004800NNMD0020211213130307    2F0F  00000480000001065600001352732M8    PMPEMI  005500360039
BI00B32M8    #PM22013 MW    202112227183-8927                HOUSING                  CCN000004000000004000FN00000000020220101000004000NNMD0020211213130323    2F0F  00000400000000714000000912732M8    PMPEMI  005500360039
BI00B32M8    #PM22013 MW    202112227282-1030                CONNECTOR MALE ASS'Y     CCN000002000000002000FN00000000020220101000002000NNMD0020211213130356    2N0N  00000100000000365000000487532M8    PMPEMI  005400370024
BI00B32M8    #PM22013 MW    202112227283-8730-30             HOUSING FEMALE ASS'Y     CCN000004000000004000FN00000000020220101000004000NNMD0020211213130411    2N0N  00000200000000794000000906532M8    PMPEMI  005400370024
BI00B32M8    #PM22013JMW    202112237183-2419-40             CONNECTOR HOUSING        CCN000004800000004800FN00000000020220101000004800NNMD0020211213130439    2F0F  00000480000001066600001353732M8    PMPEMI  005500360039
BI00B32M8    #PM22013JMW    202112227187-3356                JOINT CONNECTOR          CCN000002400000002400FN00000000020220101000002400NNMD0020211213130455    2F0F  00000120000000759600001024432M8    PMPEMI  005600390040
BI00B32M8    #PM22013JMW    202112227187-3358-30             JOINT CONNECTOR          CCN000001200000001200FN00000000020220101000001200NNMD0020211213130508    2F0F  00000120000000673200000940432M8    PMPEMI  005600390040
BI00B32M8    #PM22013JMW    202112227187-3359-60             JOINT CONNECTOR          CCN000001200000001200FN00000000020220101000001200NNMD0020211213130525    2F0F  00000120000000763200001030432M8    PMPEMI  005600390040
BI00B32M8    PM22013RMW     202112227283-1289-10             CONNECTOR HOUSING        CCN000001200000001200FN00000000020220101000001200NNMD0020211213131218    1N0N  00000060000000676200000821232M8    PMPEMI  005400370024
BI00B32M8    #PM22013RMW    202112227282-1210                CONNECTOR MALE ASS'Y     CCN000002000000002000FN00000000020220101000002000NNMD0020211213130554    2N0N  00000100000000336000000458532M8    PMPEMI  005400370024
BI00B32M8    PM22013TMW     202112297288-6547                CONNECTOR MALE ASS'Y     CCN000003750000003750FN00000000020220101000003750NNMD0020211213131300    4N0N  00000075000001205300001340332M8    PMPEMI  005400370024
BI00B32M8    PM22013TMW     202112297289-3342                HOUSING FEMALE ASS'Y     CCN000004800000004800FN00000000020220101000004800NNMD0020211213131300    1N0N  00000240000000686400000901432M8    PMPEMI  005500360039
BI00B32M8    PM22013TMW     202112297289-6547                HOUSING FEMALE ASS'Y     CCN000002400000002400FN00000000020220101000002400NNMD0020211213131300    1N0N  00000240000001152000001362032M8    PMPEMI  005500360039
BI00B32M8    #PM22013TMW    202112227154-5597-30             CASSETTE R/B             CCN000004800000004800FN00000000020220101000004800NNMD0020211213130617    2F0F  00000080000000736000000952032M8    PMPEMI  005500360039
BI00B32N1    #NST2113ECU    202112167157-7812                SEAL RUBBER              CCN000410000000410000FN00000000020211201000410000NNE00020211213164635    2C0C  00001000000000137000000202032N1    TAYIPL  002700430014
BI00A32N1    #QA-21-C122    202112177282-5845-30             HOUSING MALE ASS'Y       PNN000004000000004000FN00000000020211201000004000NNE   20211213122659    2N0N  00000400000001068000001178032N1    TAYIPL  005400370024
BI00A32N1    #QA-21-C122    202112177282-5845                HOUSING MALE ASS'Y       PNN000004000000004000FN00000000020211201000004000NNE   20211213122659    2N0N  00000400000001068000001178032N1    TAYIPL  005400370024
BI00B32P8    TAPI-2015      202112297283-1968-30             CONNECTOR                CCN000002700000002700FN00000000020220101000002700NNMD0020211213131830    1N0N  00000090000001140000001318332P8    YIYTM   005600390040
BI00B32P8    TAPI-2015      202112297289-0269                HOUSING SUB ASSEMBLY     CCN000003200000003200FN00000000020220101000003200NNMD0020211213131850    1N0N  00000160000001002100001234532P8    YIYTM   005500360039
BI00B32P8    TAPI-2015      202112297289-3342-30             HOUSING FEMALE ASS'Y     CCN000007200000007200FN00000000020220101000007200NNMD0020211213131902    1N0N  00000240000000686400000901432P8    YIYTM   005500360039
BI00B32P8    #TAPI-2015     202112227183-1616                CONNECTOR HOUSING        CCN000004800000004800FN00000000020220101000004800NNMD0020211213131354    2F0F  00000240000000557500000823332P8    YIYTM   005500360039
BI00B32P8    #TAPI-2015     202112227183-2416                HOUSING                  CCN000002400000002400FN00000000020220101000002400NNMD0020211213131414    2F0F  00000240000001495200001771032P8    YIYTM   005500360039
BI00B32P8    #TAPI-2015     202112227183-2416-30             HOUSING                  CCN000004800000004800FN00000000020220101000004800NNMD0020211213131428    2F0F  00000240000001495200001770032P8    YIYTM   005500360039
BI00B32P8    #TAPI-2015     202112237183-2419                HOUSING                  CCN000009600000009600FN00000000020220101000009600NNMD0020211213131441    2F0F  00000480000001065600001352732P8    YIYTM   005500360039
BI00B32P8    #TAPI-2015     202112227187-3358-30             JOINT CONNECTOR          CCN000001200000001200FN00000000020220101000001200NNMD0020211213131454    2F0F  00000120000000673200000940432P8    YIYTM   005600390040
BI00B32P8    #TAPI-2015     202112227187-3359-60             JOINT CONNECTOR          CCN000001200000001200FN00000000020220101000001200NNMD0020211213131509    2F0F  00000120000000763200001030432P8    YIYTM   005600390040
BI00B32P8    #TAPI-2015     202112227187-3360                JOINT CONNECTOR          CCN000001200000001200FN00000000020220101000001200NNMD0020211213131523    2F0F  00000120000000759600001026832P8    YIYTM   005600390040
BI00B32P8    #TAPI-2015     202112227187-3361-40             JOINT CONNECTOR          CCN000001200000001200FN00000000020220101000001200NNMD0020211213131536    2F0F  00000120000000676800000944032P8    YIYTM   005600390040
BI00B32P8    #TAPI-2015     202112227282-7040-30             HOUSING MALE ASS'Y       CCN000002300000002400FN00000000020220101000002400NNMD0020211213131559    2N0N  00000120000000620400000731932P8    YIYTM   005400370024
BI00B32P8    #TAPI-2015     202112227283-1095                HOUSING FEMALE ASS'Y     CCN000001000000001000FN00000000020220101000001000NNMD0020211213131619    2N0N  00000100000000470000000652532P8    YIYTM   005400370024
BI00B32P8    #TAPI-2015     202112227283-5831                CONNECTOR                CCN000006000000006000FN00000000020220101000006000NNMD0020211213131633    2N0N  00000300000000750000000880032P8    YIYTM   005400370024
BI00B32P8    #TAPI-2015     202112227283-5834                CONNECTOR ASS'Y          CCN000003240000003240FN00000000020220101000003240NNMD0020211213131647    2N0N  00000324000001296000001849732P8    YIYTM   005600390040
BI00B32P8    #TAPI-2015     202112227154-5597-30             CASSETTE R/B             CCN000002400000002400FN00000000020220101000002400NNMD0020211213131332    2F0F  00000080000000736000000952032P8    YIYTM   005500360039
BI00A32Q8    #EU21112TMW    202111267172-5630-40             RUBBER STOPPER           PCN001060000001060000FN00106000020211101000000000NNM00020211213122659    2H0H  00002000000000044000000095132Q8    EMEMI   004300270014
BI00A32Q8    #EU21121TMW    202112147172-5630-40             RUBBER STOPPER           PCN000980000000980000FN00000000020211201000980000NNM00020211213122659    2H0H  00002000000000044000000095132Q8    EMEMI   004300270014
BI00B32Q8    #EU22013 MW    202112237183-2413                CONNECTOR HOUSING        CCN000004800000004800FN00000000020220101000004800NNMD0020211213131944    2F0F  00000480000000478100000760032Q8    EMEMI   005500360039
BI00B32Q8    #EU22013 MW    202112237183-6320                HOUSING                  CCN000004800000004800FN00000000020220101000004800NNMD0020211213131958    2F0F  00000480000000820800001103632Q8    EMEMI   005500360039
BI00B32Q8    #EU22013 MW    202112227283-5834-30             CONNECTOR ASS'Y          CCN000003240000003240FN00000000020220101000003240NNMD0020211213132029    2N0N  00000324000001296000001853432Q8    EMEMI   005600390040
BI00B32Q8    #EU22013NMW    202112227157-3992-90             CONNECTOR SEALED         CCN000040000000040000FN00000000020220101000040000NNMD0020211213154314    2C0C  00004000000000300000000363332Q8    EMEMI   002700430014
BI00B32Q8    #EU22013NMW    202112227182-9632-30             JOINT CONNECTOR          CCN000009000000009000FN00000000020220101000009000NNMD0020211213132224    2F0F  00000300000001320000001445532Q8    EMEMI   005400370024
BI00B32Q8    EU22012TMW     202112227196-1103-02             TERMINAL                 CCN001417500001417500FN00000000020220101001417500NNMD0020211213132403    4P0P  00002250000000429800000715032Q8    EMEMI   006400630015
BI00B32Q8    EU22013TMW     202112297283-1288-40             CONNECTOR HOUSING        CCN000003600000003600FN00000000020220101000003600NNMD0020211213132749    4N0N  00000120000001382000001640732Q8    EMEMI   005600390040
BI00B32Q8    EU22013TMW     202112297287-1915                CONNECTOR ASS'Y          CCN000007200000007200FN00000000020220101000007200NNMD0020211213132811    4N0N  00000240000000666500000923132Q8    EMEMI   005500360039
BI00B32Q8    EU22012TMW     202112237287-1917                CONNECTOR FEMALE         CCN000016800000016800FN00000000020220101000016800NNMD0220211213132447    4N0N  00000240000001060800001312532Q8    EMEMI   005500360039
BI00B32Q8    EU2202A MW     202201197282-1065                CONNECTOR                CCN000009000000009000FN00000000020220201000009000NNED0420211213155908    1N0N  00000150000000795000001012032Q8    EMEMI   005600390040
BI00B32Q8    EU2202A MW     202201127283-5845                CONNECTOR HOUSING        CCN000006000000006000FN00000000020220201000006000NNED0420211213122659    1N0N  00000600000000444000000606332Q8    EMEMI   005400370024
BI00B32Q8    EU2202FTMW     202202237283-4855                CONNECTOR HOUSING        CCN000002400000002400FN00000000020220201000002400NNED0420211213122659    4N0N  00000240000001188400001400032Q8    EMEMI   005500360039
BI00B32Q8    EU2202FTMW     202202237286-3885-40             CONNECTOR MALE ASS'Y     CCN000002400000002400FN00000000020220201000002400NNED0420211213122659    1N0N  00000120000000910600001130632Q8    EMEMI   005500360039
BI00B32Q8    EU2202FTMW     202201127287-1915                CONNECTOR ASS'Y          CCN000004800000004800FN00000000020220201000004800NNED0420211213122659    4N0N  00000240000000666500000923132Q8    EMEMI   005500360039
BI00B32Q8    EU2202FTMW     202201127287-3885                HYBRID FEMALE ASS'Y      CCN000002400000002400FN00000000020220201000002400NNED0420211213122659    1N0N  00000240000001029600001249632Q8    EMEMI   005500360039
BI00B32Q8    EU2202FTMW     202203027288-6547                CONNECTOR MALE ASS'Y     CCN000003000000003000FN00000000020220201000003000NNED0420211213122659    4N0N  00000075000001205300001340332Q8    EMEMI   005400370024
BI00B32Q8    EU22031TMW     202203027283-1144-90             CONNECTOR                CCN000002400000002400FN00000000020220301000002400NNMD0420211213122659    4N0N  00000240000000602200000866132Q8    EMEMI   005500360039
BI00B32Q8    EU22031TMW     202202237283-4855                CONNECTOR HOUSING        CCN000009600000009600FN00000000020220301000009600NNMD0420211213122659    4N0N  00000240000001188400001400032Q8    EMEMI   005500360039
BI00B32Q8    EU22032TMW     202203027283-4855                CONNECTOR HOUSING        CCN000009600000009600FN00000000020220301000009600NNMD0420211213122659    4N0N  00000240000001188400001400032Q8    EMEMI   005500360039
BI00B32Q8    EU22033TMW     202203097283-4855                CONNECTOR HOUSING        CCN000009600000009600FN00000000020220301000009600NNMD0420211213122659    4N0N  00000240000001188400001400032Q8    EMEMI   005500360039
BI00B32Q8    EU22034TMW     202203167283-4855                CONNECTOR HOUSING        CCN000012000000012000FN00000000020220301000012000NNMD0420211213122659    4N0N  00000240000001188400001400032Q8    EMEMI   005500360039
BI00B32Q8    EU22031TMW     202203097287-1917-30             CONNECTOR FEMALE         CCN000009600000009600FN00000000020220301000009600NNMD0420211213122659    4N0N  00000240000001060800001312532Q8    EMEMI   005500360039
BI00B32Q8    EU22032TMW     202203167287-1917-30             CONNECTOR FEMALE         CCN000009600000009600FN00000000020220301000009600NNMD0420211213122659    4N0N  00000240000001060800001312532Q8    EMEMI   005500360039
BI00B32Q8    EU22033TMW     202202237287-1917-30             CONNECTOR FEMALE         CCN000009600000009600FN00000000020220301000009600NNMD0420211213122659    4N0N  00000240000001060800001312532Q8    EMEMI   005500360039
BI00B32Q8    EU22034TMW     202203307287-1917-30             CONNECTOR FEMALE         CCN000009600000009600FN00000000020220301000009600NNMD0420211213122659    4N0N  00000240000001060800001312532Q8    EMEMI   005500360039
BI00B32Q8    EU22031TMW     202203097288-6547                CONNECTOR MALE ASS'Y     CCN000001500000001500FN00000000020220301000001500NNMD0420211213122659    4N0N  00000075000001205300001340332Q8    EMEMI   005400370024
BI00B32Q8    EU22032TMW     202203167288-6547                CONNECTOR MALE ASS'Y     CCN000001500000001500FN00000000020220301000001500NNMD0420211213122659    4N0N  00000075000001205300001340332Q8    EMEMI   005400370024
BI00B32Q8    EU22033TMW     202202237288-6547                CONNECTOR MALE ASS'Y     CCN000001500000001500FN00000000020220301000001500NNMD0420211213122659    4N0N  00000075000001205300001340332Q8    EMEMI   005400370024
BI00B32Q8    EU22034TMW     202203307288-6547                CONNECTOR MALE ASS'Y     CCN000001500000001500FN00000000020220301000001500NNMD0420211213122659    4N0N  00000075000001205300001340332Q8    EMEMI   005400370024
BI00B32Q8    EU22031TMW     202202237289-3342                HOUSING FEMALE ASS'Y     CCN000045600000045600FN00000000020220301000045600NNMD0420211213122659    1N0N  00000240000000686400000901432Q8    EMEMI   005500360039
BI00B32Q8    EU22032TMW     202202237289-3342                HOUSING FEMALE ASS'Y     CCN000045600000045600FN00000000020220301000045600NNMD0420211213122659    1N0N  00000240000000686400000901432Q8    EMEMI   005500360039
BI00B32Q8    EU22033TMW     202203027289-3342                HOUSING FEMALE ASS'Y     CCN000038400000038400FN00000000020220301000038400NNMD0420211213122659    1N0N  00000240000000686400000901432Q8    EMEMI   005500360039
BI00B32Q8    EU22034TMW     202203097289-3342                HOUSING FEMALE ASS'Y     CCN000038400000038400FN00000000020220301000038400NNMD0420211213122659    1N0N  00000240000000686400000901432Q8    EMEMI   005500360039
BI00B32Q8    EU22031TMW     202202237289-3342-30             HOUSING FEMALE ASS'Y     CCN000009600000009600FN00000000020220301000009600NNMD0420211213122659    1N0N  00000240000000686400000901432Q8    EMEMI   005500360039
BI00B32Q8    EU22032TMW     202202237289-3342-30             HOUSING FEMALE ASS'Y     CCN000009600000009600FN00000000020220301000009600NNMD0420211213122659    1N0N  00000240000000686400000901432Q8    EMEMI   005500360039
BI00B32Q8    EU22033TMW     202203027289-3342-30             HOUSING FEMALE ASS'Y     CCN000009600000009600FN00000000020220301000009600NNMD0420211213122659    1N0N  00000240000000686400000901432Q8    EMEMI   005500360039
BI00B32Q8    EU22034TMW     202203167289-3342-30             HOUSING FEMALE ASS'Y     CCN000004800000004800FN00000000020220301000004800NNMD0420211213122659    1N0N  00000240000000686400000901432Q8    EMEMI   005500360039
BI00B32R4    HZYBW2112003   202112167114-4728-02             TERMINAL                 PNN000030000000000000FY00000000020211201000000000NNE00020211213135402    4P0P  00003000000000510000000804232R4    HZHZYME 006400630015
BI00B32R4    HZYBW2112003   202112167114-4728-08             TERMINAL                 PNN000030000000030000FN00000000020211201000030000NNE00020211213143105    4P0P  00003000000000507000000801232R4    HZHZYME 006400630015
BI00B32R7    R-TAP210613    202201277298-1186-40             SQUIB SUB ASS'Y          CCN000100000000100000FN00000000020220101000100000NNED0420211213122659    4N0N  00001000000000650000000774532R7    IVYCIC  005400370024
BI00B32R7    #R-TAP210616   202201067186-8845-60             HOUSING MALE             CCN000006000000006000FN00000000020220101000006000NNE   20211213122659    2F0F  00000300000000690000000801532R7    IVYCIC  005400370024
BI00A32R8    TT22011TMW     202112237288-6547                CONNECTOR MALE ASS'Y     PCN000001500000001500FN00000000020220101000001500NNM00020211213142201    4N0N  00000075000001205300001340332R8    TTTJY   005400370024
BI00B32U5    DI2009         202201287116-4037                TERMINAL                 CCN000036000000036000FN00000000020220401000036000NNM   20211213122659U5  4P0P  00000600000000600000000894232U5    AMAMSD  006400630015
BI00B32U5    DI2009         202201287289-3342                HOUSING FEMALE ASS'Y     CCN000019200000019200FN00000000020220401000019200NNM   20211213122659U5  1N0N  00000240000000686400000901432U5    AMAMSD  005500360039
BI00B32U5    DI2009         202201287017-1180-02             TERMINAL                 CCN000216000000216000FN00000000020220401000216000NNM   20211213122659U5  4P0P  00007200000001065600001229032U5    AMAMSD  005100280028
BI00B32U5    DI2009         202201287017-1182-02             TERMINAL                 CCN000045000000045000FN00000000020220401000045000NNM   20211213122659U5  4P0P  00004500000001165500001318632U5    AMAMSD  005100280028
BI00B32U5    DI2009         202201287017-1183-02             TERMINAL                 CCN000054000000054000FN00000000020220401000054000NNM   20211213122659U5  4P0P  00002700000001139400001307432U5    AMAMSD  005100280028
BI00B32U5    DI2009         202201287114-4486-02             TERMINAL                 CCN000048000000048000FN00000000020220401000048000NNM   20211213122659U5  4P0P  00002400000000662400000956032U5    AMAMSD  006400630015
BI00B32U5    DI2009         202201287114-4624-02             TERMINAL                 CCN000072000000072000FN00000000020220401000072000NNM   20211213122659U5  4P0P  00002400000000895200001188832U5    AMAMSD  006400630015
BI00B32U5    DI2009         202201287116-1685-02             TERMINAL                 CCN000168000000168000FN00000000020220401000168000NNM   20211213122659U5  4P0P  00002400000000897600001065232U5    AMAMSD  005100280028
BI00B32U5    DI2009         202201287116-4486-02             TERMINAL                 CCN000168000000168000FN00000000020220401000168000NNM   20211213122659U5  4P0P  00002800000000666400000995132U5    AMAMSD  006400630017
BI00B32U5    DI2009         202201287116-5045-02             TERMINAL                 CCN000176000000176000FN00000000020220401000176000NNM   20211213122659U5  4P0P  00001600000000678400001007132U5    AMAMSD  006400630017
BI00B32U5    DI2009         202201287116-5046-02             TERMINAL                 CCN000060000000060000FN00000000020220401000060000NNM   20211213122659U5  4P0P  00001200000000544800000873532U5    AMAMSD  006400630017
BI00B32U5    DI2009         202201287158-3167-80             WIRE SEAL                CCN000020000000020000FN00000000020220401000020000NNM   20211213122659U5  1C0C  00002000000000048000000109032U5    AMAMSD  002700430014
BI00B32U5    DI2009         202201287196-1104-02             TERMINAL                 CCN000180000000180000FN00000000020220401000180000NNM   20211213122659U5  4P0P  00002250000000441000000726232U5    AMAMSD  006400630015
BI00B32U5    DI2009         202201287287-1915-40             CONNECTOR ASS'Y          CCN000004800000004800FN00000000020220401000004800NNM   20211213122659U5  4N0N  00000240000000666500000923132U5    AMAMSD  005500360039
BI00B32U5    DI2009         202201287288-3330-30             HOUSING MALE             CCN000001500000001500FN00000000020220401000001500NNM   20211213122659U5  4N0N  00000150000000866300001011232U5    AMAMSD  005400370024
BI00B32U5    DI2009         202201287288-3339-30             HOUSING MALE             CCN000001500000001500FN00000000020220401000001500NNM   20211213122659U5  4N0N  00000150000000867000001012032U5    AMAMSD  005400370024
BI00B32U5    DI2009         202201287289-3342-30             HOUSING FEMALE ASS'Y     CCN000048000000048000FN00000000020220401000048000NNM   20211213122659U5  1N0N  00000240000000686400000901432U5    AMAMSD  005500360039
BI00B32U5    DI2009         202201287289-4696-30             HOUSING FEMALE ASS'Y     CCN000006000000006000FN00000000020220401000006000NNM   20211213122659U5  4N0N  00000200000000913400001055432U5    AMAMSD  005400370024
BI00B32U5    DI2009         202201287296-1025-02             TERMINAL ALUMINIUM       CCN000018000000018000FN00000000020220401000018000NNM   20211213122659U5  4P0P  00001800000000635400000920632U5    AMAMSD  006400630015
BI00B32U5    DI2009         202201287388-2978-30             HOUSING MALE ASS'Y       CCN000001920000001920FN00000000020220401000001920NNM   20211213122659U5  1N0N  00000048000000742000001122032U5    AMAMSD  005500360039
BI00B32U5    DI2009         202201287327-6731-3W             BATTERY FUSE             CCN000002688000002688FN00000000020220401000002688NNM   20211213122659U5  4N0N  00000006400000697600000843032U5    AMAMSD  005400370024
BI00B32U5    DI2009         202201287B96-0805-02             TERMINAL FEMALE          CCN000022500000022500FN00000000020220401000022500NNM   20211213122659U5  4P0P  00002250000000558000000843232U5    AMAMSD  006400630015
BI00B32U5    DI2009         202201287C89-6868-30             SEALED ASSY FEMALE       CCN000012600000012600FN00000000020220401000012600NNM   20211213122659U5  4N0N  00000252000000839200001119232U5    AMAMSD  005500360039
BI00B32U5    #DI2009        202201287158-3017                RUBBER STOPPER           CCN000040000000040000FN00000000020220401000040000NNM   20211213122659U5  2C0C  00001000000000375500000435032U5    AMAMSD  002700430014
BI00B32U5    #DI2009        202201287287-7859                HYBRID FEMALE ASS'Y      CCN000014400000014400FN00000000020220401000014400NNM   20211213122659U5  2N0N  00000120000000461600000671632U5    AMAMSD  005500360039
BI00B32U5    #DI2009        202201287158-3003-90             RUBBER STOPPER           CCN000200000000200000FN00000000020220401000200000NNM   20211213122659U5  2C0C  00002000000000250000000306032U5    AMAMSD  002700430014
BI00B32U5    #DI2009        202201287158-3004-40             RUBBER STOPPER           CCN000020000000020000FN00000000020220401000020000NNM   20211213122659U5  2C0C  00002000000000234000000306332U5    AMAMSD  002700430014
BI00B32U5    #DI2009        202201287158-3005-80             RUBBER STOPPER           CCN000020000000020000FN00000000020220401000020000NNM   20211213122659U5  2H0H  00002000000000210000000268732U5    AMAMSD  002700430014
BI00B32U5    #DI2009        202201287158-3008-80             RUBBER STOPPER           CCN000040000000040000FN00000000020220401000040000NNM   20211213122659U5  2C0C  00002000000000288000000343032U5    AMAMSD  004300270014
BI00B32U5    #DI2009        202201287172-5626-90             RUBBER STOPPER           CCN000280000000280000FN00000000020220401000280000NNM   20211213122659U5  2H0H  00002000000000076400000127832U5    AMAMSD  004300270014
BI00B32U5    #DI2009        202201287172-5627-60             RUBBER STOPPER           CCN000200000000200000FN00000000020220401000200000NNM   20211213122659U5  2H0H  00002000000000070400000121832U5    AMAMSD  004300270014
BI00B32U5    #DI2009        202201287172-5628-80             DUMMY PLUG               CCN000120000000120000FN00000000020220401000120000NNM   20211213122659U5  2H0H  00002000000000110600000162032U5    AMAMSD  004300270014
BI00B32U5    #DI2009        202201287172-5629-80             RUBBER STOPPER           CCN000180000000180000FN00000000020220401000180000NNM   20211213122659U5  2H0H  00002000000000060000000111132U5    AMAMSD  004300270014
BI00B32U5    #DI2009        202201287172-5630-40             RUBBER STOPPER           CCN000360000000360000FN00000000020220401000360000NNM   20211213122659U5  2H0H  00002000000000044000000095132U5    AMAMSD  004300270014
BI00B32U5    #DI2009        202201287172-5631-60             RUBBER STOPPER           CCN000220000000220000FN00000000020220401000220000NNM   20211213122659U5  2H0H  00002000000000042000000093132U5    AMAMSD  004300270014
BI00B32U5    #DI2009        202201287172-5632-10             DUMMY PLUG               CCN000220000000220000FN00000000020220401000220000NNM   20211213122659U5  2H0H  00002000000000080400000131832U5    AMAMSD  004300270014
BI00B32U5    #DI2009        202201287182-8253-40             HOUSING                  CCN000001200000001200FN00000000020220401000001200NNM   20211213122659U5  2F0F  00000120000000573000000864032U5    AMAMSD  005600390040
BI00B32U5    #DI2009        202201287189-2978-30             HOUSING FEMALE           CCN000006000000006000FN00000000020220401000006000NNM   20211213122659U5  2F0F  00000150000000966900001096932U5    AMAMSD  005400370024
BI00B32U5    #DI2009        202201287282-6446-40             CONNECTOR                CCN000003000000003000FN00000000020220401000003000NNM   20211213122659U5  2N0N  00000150000001185000001368032U5    AMAMSD  005500360039
BI00B32U5    #DI2009        202201287289-4200-30             HOUSING FEMALE ASS'Y     CCN000006000000006000FN00000000020220401000006000NNM   20211213122659U5  2N0N  00000200000000926000001021032U5    AMAMSD  005400370024
BI00B32U9    TPA206         202201067114-6041                TERMINAL                 CCN000010800000010800FN00000000020220201000010800NNM   20211213122659U9  4P0P  00000360000000580700000824232U9    YNYNA-E 006400630015
BI00B32U9    TPA206         202201067289-0269                HOUSING SUB ASSEMBLY     CCN000003200000003200FN00000000020220201000003200NNM   20211213122659U9  1N0N  00000160000001002100001234532U9    YNYNA-E 005500360039
BI00B32U9    TPA206         202201067116-2951-02             TERMINAL                 CCN000081000000081000FN00000000020220201000081000NNM   20211213122659U9  4P0P  00000540000000817600001111832U9    YNYNA-E 006400630015
BI00B32U9    TPA206         202201067158-3165-90             WIRE SEAL                CCN000400000000400000FN00000000020220201000400000NNM   20211213122659U9  1C0C  00004000000000124000000172432U9    YNYNA-E 004300270014
BI00B32U9    TPA206         202201067158-3167-80             WIRE SEAL                CCN000620000000620000FN00000000020220201000620000NNM   20211213122659U9  1C0C  00002000000000048000000109032U9    YNYNA-E 002700430014
BI00B32U9    TPA206         202201067158-3168-80             SEALED                   CCN000120000000120000FN00000000020220201000120000NNM   20211213122659U9  1C0C  00002000000000044000000092132U9    YNYNA-E 004300260014
BI00B32U9    TPA206         202201067196-0805-02             TERMINAL FEMALE          CCN000045000000045000FN00000000020220201000045000NNM   20211213122659U9  4P0P  00002250000000558000000843232U9    YNYNA-E 006400630015
BI00B32U9    TPA206         202201067222-6244-40             CONNECTOR                CCN000002400000002400FN00000000020220201000002400NNM   20211213122659U9  4N0N  00000080000001239200001422032U9    YNYNA-E 005600390040
BI00B32U9    TPA206         202201067282-5574-10             CONNECTOR                CCN000004800000004800FN00000000020220201000004800NNM   20211213122659U9  4N0N  00000080000001235000001423032U9    YNYNA-E 005600390040
BI00B32U9    TPA206         202201067289-6868-30             SEALED ASSY FEMALE       CCN000010080000010080FN00000000020220201000010080NNM   20211213122659U9  4N0N  00000252000000839200001119232U9    YNYNA-E 005500360039
BI00B32U9    TPA206         202201067298-1186-40             SQUIB SUB ASS'Y          CCN000010000000010000FN00000000020220201000010000NNM   20211213122659U9  4N0N  00001000000000650000000774532U9    YNYNA-E 005400370024
BI00B32U9    TPA206         202201067298-1187-30             SHUNT RING ASSEMBLY      CCN000010000000010000FN00000000020220201000010000NNM   20211213122659U9  4N0N  00001000000000647000000769532U9    YNYNA-E 005400370024
BI00B32U9    #TPA206        202201067147-9094                RETAINER                 CCN000018000000018000FN00000000020220201000018000NNM   20211213122659U9  2F0F  00000300000000717000000872932U9    YNYNA-E 005500360039
BI00B32U9    #TPA206        202201067047-1611-30             CLIP                     CCN000002000000002000FN00000000020220201000002000NNM   20211213122659U9  2F0F  00000200000001600000001739032U9    YNYNA-E 005600390040
BI00B32U9    #TPA206        202201067158-3003-90             RUBBER STOPPER           CCN000020000000020000FN00000000020220201000020000NNM   20211213122659U9  2C0C  00002000000000250000000306032U9    YNYNA-E 002700430014
BI00B32U9    #TPA206        202201067158-3121-80             WIRE SEAL                CCN000020000000020000FN00000000020220201000020000NNM   20211213122659U9  2C0C  00002000000000118000000187332U9    YNYNA-E 002700430014
BI00B32U9    #TPA206        202201067282-6446-40             CONNECTOR                CCN000012000000012000FN00000000020220201000012000NNM   20211213122659U9  2N0N  00000150000001185000001368032U9    YNYNA-E 005500360039
BI00B32U9    #TPA206        202201067282-8395-40             CONNECTOR                CCN000022000000022000FN00000000020220201000022000NNM   20211213122659U9  2N0N  00000100000001009000001188032U9    YNYNA-E 005500360039
BI00B32U9    #TPA206        202201067283-8226-30             CONNECTOR                CCN000002000000002000FN00000000020220201000002000NNM   20211213122659U9  2N0N  00000200000000820000001008032U9    YNYNA-E 005400370024
BI00B32U9    #TPA206        202201067283-8397-40             CONNECTOR                CCN000009240000009240FN00000000020220201000009240NNM   20211213122659U9  2N0N  00000154000001007000001222732U9    YNYNA-E 005600390023
BI00B32W2    HN2201BNMW     202112217116-6041                TERMINAL                 CCN000009000000009000FN00000000020220101000009000NNE   20211213135952    4P0P  00000450000000716000001009632W2    HNHNY   006400630015
BI00B32W2    #HN2201BNMW    202112217157-7812                SEAL RUBBER              CCN000010000000010000FN00000000020220101000010000NNE   20211213132237    2C0C  00001000000000137000000202032W2    HNHNY   002700430014
BI00B32W2    #HN2201BNMW    202112217183-2413                CONNECTOR HOUSING        CCN000004800000004800FN00000000020220101000004800NNE   20211213132237    2F0F  00000480000000478100000760032W2    HNHNY   005500360039
BI00B32W2    #HN2201BNMW    202112217187-3357-40             JOINT CONNECTOR          CCN000002400000002400FN00000000020220101000002400NNE   20211213132237    2F0F  00000120000000762000001029232W2    HNHNY   005600390040
BI00B32W2    HN2201AWMW     202112217116-1685-02             TERMINAL                 CCN000096000000096000FN00000000020220101000096000NNE   20211213134108    4P0P  00002400000000897600001065232W2    HNHNY   005100280028
BI00B32W2    HN2201AWMW     202112217116-4415-02             TERMINAL                 CCN000190000000190000FN00000000020220101000190000NNE   20211213134108    4P0P  00003800000000596600000925732W2    HNHNY   006400630017
BI00B32W2    HN2201AWMW     202112217116-6041                TERMINAL                 CCN000009000000009000FN00000000020220101000009000NNE   20211213134108    4P0P  00000450000000716000001009632W2    HNHNY   006400630015
BI00B32W2    HN2201AWMW     202112217126-8853-02             TERMINAL                 CCN000015000000015000FN00000000020220101000015000NNE   20211213134108    4P0P  00000750000000562500000847732W2    HNHNY   006400630015
BI00B32W2    #HN2201AWMW    202112217186-8851                HOUSING MALE             CCN000003000000003000FN00000000020220101000003000NNE   20211213134100    2F0F  00000100000000782200000906232W2    HNHNY   005400370024
BI00A32W4    4500173993     202112227283-5574-10             CONNECTOR                CCN000000800000000800FN00000000020211201000000800NNED0020211213132853W4804N0N  00000080000001235000001435232W480  HJYHK-J 005500360039
BI00A32W4    4500175073     202112227283-5574-10             CONNECTOR                CCN000000800000000800FN00000000020211201000000800NNED0020211213132913W4804N0N  00000080000001235000001435232W480  HJYHK-J 005500360039
BI00B32W4    4500177600     202112227158-3167-80             WIRE SEAL                CCN000640000000640000FN00000000020211201000640000NNED0420211213132930W4B71C0C  00002000000000048000000109032W4B7  HJYHK-J 002700430014
BI00B32W4    4500180312     202112227116-2892-02             TERMINAL                 CCN000036000000036000FN00000000020211201000036000NNED0020211213132955W4564P0P  00001200000000818400000981832W456  HJYHK   005100280028
BI00B32W4    4500180312     202112227158-3168-80             SEALED                   CCN000440000000440000FN00000000020211201000440000NNED0020211213133007W4561C0C  00002000000000044000000092132W456  HJYHK   004300260014
BI00B32W4    4500180312     202112227158-3169-40             SEALING PLUG             CCN000200000000200000FN00000000020211201000200000NNED0020211213133020W4561C0C  00004000000000156000000204132W456  HJYHK   004300260014
BI00B32W4    4500180317     202112227158-3006-90             RUBBER STOPPER           CCN000140000000140000FN00000000020211201000140000NNED0020211213133046W4561C0C  00002000000000330600000386032W456  HJYHK   002700430014
BI00A32W4    #4500181181    202112207157-3821                RUBBER STOPPER           CCN000100000000100000FN00000000020211201000100000NNED0020211213154209W43 2C0C  00002000000000176000000238032W43   HJYHK   002700430014
BI00B32W4    4500181857     202112237116-2893-02             TERMINAL                 CCN000120000000120000FN00000000020220101000120000NNED0020211213122659W4N64P0P  00001200000000895200001058632W4N6  HJYHK-J 005100280028
BI00B32W4    4500181898     202112227116-1685                TERMINAL                 CCN000024000000024000FN00000000020211201000024000NNED0020211213133121W4244P0P  00002400000000892800001067232W424  HJYHK   005100280028
BI00B32W4    #4500182183    202112237147-3642-30             CLIP                     CCN000081000000081000FN00000000020211201000081000NNED0020211213133539W4172F0F  00000300000000542000000721332W417  HJYHK   005600390040
BI00B32W4    4500182195     202112237116-2893-02             TERMINAL                 CCN000156000000156000FN00000000020220101000156000NNED0020211213122659W4N64P0P  00001200000000895200001058632W4N6  HJYHK-J 005100280028
BI00B32W4    4500182278     202112297289-9553-30             SEALED ASSY FEMALE       CCN000047040000047040FN00000000020211201000047040NNED0020211213133155W4594N0N  00000294000001109000001521532W459  HJYHK   005500360039
BI00B32W4    #4500182681    202112227182-2410                CONNECTOR HOUSING        CCN000004800000004800FN00000000020211201000004800NNED0020211213133621W4K82F0F  00000120000000959800001245632W4K8  HJYHK-J 005500360039
BI00B32W4    #4500182681    202112237183-2413                CONNECTOR HOUSING        CCN000009600000009600FN00000000020211201000009600NNED0020211213133647W4K82F0F  00000480000000478100000760032W4K8  HJYHK-J 005500360039
BI00B32W4    #4500182681    202112237183-5068                CONNECTOR HOUSING        CCN000002000000002000FN00000000020211201000002000NNED0020211213133702W4K82F0F  00000200000001097600001267032W4K8  HJYHK-J 005600390040
BI00B32W4    #4500182681    202112227282-1030                CONNECTOR MALE ASS'Y     CCN000001000000001000FN00000000020211201000001000NNED0020211213133722W4K82N0N  00000100000000365000000487532W4K8  HJYHK-J 005400370024
BI00B32W4    #4500182681    202112237147-3642-30             CLIP                     CCN000009000000009000FN00000000020211201000009000NNED0020211213133601W4K82F0F  00000300000000542000000721332W4K8  HJYHK-J 005600390040
BI00A32W4    #4500183101    202112227183-7725-40             HOUSING                  CCN000006000000006000FN00000000020211201000006000NNED0020211213133739W4422F0F  00000600000000840000001040032W442  HJYHK   005600390040
BI00A32W4    #4500183548    202112227186-8845                HOUSING MALE             CCN000006000000006000FN00000000020211201000006000NNED0020211213133804W4H32F0F  00000300000000690000000801532W4H3  HJYHK-J 005400370024
BI00B32W4    #4500183601    202112217157-7812                SEAL RUBBER              CCN000050000000050000FN00000000020211101000050000NNE00020211213164922W42 2C0C  00001000000000137000000202032W42   HJYHK   002700430014
BI00A32W4    4500183950     202112207283-1156                CONNECTOR                CCN000008000000008000FN00000000020220101000008000NNED0020211213150211W4L64N0N  00000080000000877600001078032W4L6  HJYHK-K 005600390040
BI00A32W4    4500183951     202112207158-3169-40             SEALING PLUG             CCN000040000000040000FN00000000020220101000040000NNED0020211213150244W4L61C0C  00004000000000156000000204132W4L6  HJYHK-K 004300260014
BI00A32W4    @4500183955    202112207287-6634                HOUSING FEMALE ASS'Y     CCN000009600000009600FN00000000020220101000009600NNED0020211213155635W4L63N0N  00000240000001088400001337032W4L6  HJYHK-K 005500360039
BI00A32W4    @4500184110    202112207287-6634                HOUSING FEMALE ASS'Y     CCN000007200000007200FN00000000020220101000007200NNED0020211213160215W4L63N0N  00000240000001088400001337032W4L6  HJYHK-K 005500360039
BI00B32W4    #4500185540    202201047157-7812                SEAL RUBBER              CCN000040000000040000FN00000000020211201000040000NNED0420211213122659W42 2C0C  00001000000000137000000202032W42   HJYHK   002700430014
BI00B32W4    4500185549     202212227288-6547                CONNECTOR MALE ASS'Y     CCN000000750000000750FN00000000020220101000000750NNED0420211213122659W4D44N0N  00000075000001205300001340332W4D4  HJYHK-J 005400370024
BI00B32W4    4500185639     202202107283-1020                CONNECTOR                CCN000150000000078000FN00000000020220101000078000NNED0220211213161421W4514N0N  00000600000000840000001049332W451  HJ32W9  005600390040
BI00B32W4    4500185696     202201117116-1180                TERMINAL                 CCN000019500000019500FN00000000020220101000019500NNE   20211213122659W41 1P0P  00001950000000618200000903432W41   HJYHK   006400630015
BI00B32W4    4500185639     202202177283-1020                CONNECTOR                CCN000072000000072000FN00000000020220101000072000NNED0620211213161421W4514N0N  00000600000000840000001049332W451  HJ32W9  005600390040
BI00B32W6    SW21114QMW     202112157289-6597-70             HOUSING FEMALE ASS'Y     CCN000006480000006480FN00000000020211101000006480NNM00020211213122659    4N0N  00000216000001289500001539532W6    SYSYA-WJ005500360039
BI00B32W6    SW22012QMW     202112157289-6597-70             HOUSING FEMALE ASS'Y     CCN000006480000006480FN00000000020220101000006480NNM00020211213122659    4N0N  00000216000001289500001539532W6    SYSYA-WJ005500360039
BI00B32W6    SW2202AQMW     202201267327-6654-3W             BATTERY FUSE             CCN000001248000001248FN00000000020220201000001248NNE   20211213122659    4N0N  00000009600001132300001312432W6    SYSYA-WJ005500360039
BI00B32W6    #SW2202AQMW    202201267172-5630-40             RUBBER STOPPER           CCN000040000000040000FN00000000020220201000040000NNE   20211213122659    2H0H  00002000000000044000000095132W6    SYSYA-WJ004300270014
BI00B32W6    #SW2202AQMW    202201267189-3034-30             HOUSING FEMALE           CCN000001600000001600FN00000000020220201000001600NNE   20211213122659    2F0F  00000160000000972800001192832W6    SYSYA-WJ005500360039
BI00B32W7    SC21114JMW     202112157C89-6868-30             SEALED ASSY FEMALE       CCN000017640000017640FN00000000020211101000017640NNM00020211213122659    4N0N  00000252000000839200001119232W7    SYSYA-CH005500360039
BI00B32W9    #4500185682    202201187157-7811-80             SEAL RUBBER              CCN000020000000020000FN00000000020220101000020000NNE   20211213122659W9  2C0C  00001000000000105000000182732W9    HKYHK   002700430014
BI00B32W9    #4500185683    202201187157-7811-80             SEAL RUBBER              CCN000170000000170000FN00000000020220101000170000NNE   20211213122659W9  2C0C  00001000000000105000000182732W9    HKYHK   002700430014
BI00B32W9    #4500185683    202201187157-7812                SEAL RUBBER              CCN000200000000200000FN00000000020220101000200000NNE   20211213122659W9  2C0C  00001000000000137000000202032W9    HKYHK   002700430014
BI00B32W9    4500185706     202202017298-1145-4W             SQUIB SUB ASS'Y          CCN000050000000050000FN00000000020220201000050000NNE   20211213122659W9  4N0N  00001000000000787900000944932W9    HKYHK   005400370024
BI00B32W9    4500185706     202202017174-1849-70             COVER                    CCN000050000000050000FN00000000020220201000050000NNE   20211213122659W9  1F0F  00002500000000622500000761932W9    HKYHK   005400370024
BI00B32W9    4500185709     202201047283-7028-30             CONNECTOR                CCN000006000000006000FN00000000020220101000006000NNE   20211213122659W9  4N0N  00000300000001452000001681332W9    HKYHK   005600390040
BI00B32W9    #4500185709    202201047283-8397-40             CONNECTOR                CCN000001540000001540FN00000000020220101000001540NNE   20211213122659W9  2N0N  00000154000001007000001222732W9    HKYHK   005600390023
BI00B32W9    4500185739     202201047017-1180-02             TERMINAL                 CCN000072000000072000FN00000000020220101000072000NNE   20211213122659W9  4P0P  00007200000001065600001229032W9    HKYHK   005100280028
BI00B32X5    TIB1045        202112147289-6547                HOUSING FEMALE ASS'Y     CCN000014400000014400FN00000000020211201000014400NNM00020211213164303X5  1N0N  00000240000001152000001362032X5    EPYNA-E 005500360039
BI00B32X5    TIB1049        202112177289-6547                HOUSING FEMALE ASS'Y     CCN000016800000016800FN00000000020220101000016800NNM00020211213164223X5  1N0N  00000240000001152000001362032X5    EPYNA-E 005500360039
BI00B32X5    TIB1050        202112177289-6547                HOUSING FEMALE ASS'Y     CCN000016800000016800FN00000000020220201000016800NNM00020211213164114X5  1N0N  00000240000001152000001362032X5    EPYNA-E 005500360039
BI00B32X5    #TIB1051       202112177172-5629-80             RUBBER STOPPER           CCN000340000000340000FN00000000020220201000340000NNM00020211213165329X5  2H0H  00002000000000060000000111132X5    EPYNA-E 004300270014
BI00B32X5    TIB2009        202201287116-4037                TERMINAL                 CCN000024000000024000FN00000000020220401000024000NNM   20211213122659X5  4P0P  00000600000000600000000894232X5    EPYNA-E 006400630015
BI00B32X5    TIB2009        202201287287-8072                HOUSING FEMALE ASS'Y     CCN000002400000002400FN00000000020220401000002400NNM   20211213122659X5  1N0N  00000240000001221600001441632X5    EPYNA-E 005500360039
BI00B32X5    TIB2009        202201287288-6547                CONNECTOR MALE ASS'Y     CCN000003000000003000FN00000000020220401000003000NNM   20211213122659X5  4N0N  00000075000001205300001340332X5    EPYNA-E 005400370024
BI00B32X5    TIB2009        202201287289-6547                HOUSING FEMALE ASS'Y     CCN000007200000007200FN00000000020220401000007200NNM   20211213122659X5  1N0N  00000240000001152000001362032X5    EPYNA-E 005500360039
BI00B32X5    TIB2009        202201287017-1180-02             TERMINAL                 CCN000360000000360000FN00000000020220401000360000NNM   20211213122659X5  4P0P  00007200000001065600001229032X5    EPYNA-E 005100280028
BI00B32X5    TIB2009        202201287017-1182-02             TERMINAL                 CCN000045000000045000FN00000000020220401000045000NNM   20211213122659X5  4P0P  00004500000001165500001318632X5    EPYNA-E 005100280028
BI00B32X5    TIB2009        202201287114-4486-02             TERMINAL                 CCN000072000000072000FN00000000020220401000072000NNM   20211213122659X5  4P0P  00002400000000662400000956032X5    EPYNA-E 006400630015
BI00B32X5    TIB2009        202201287114-4624-02             TERMINAL                 CCN000024000000024000FN00000000020220401000024000NNM   20211213122659X5  4P0P  00002400000000895200001188832X5    EPYNA-E 006400630015
BI00B32X5    TIB2009        202201287116-1685-02             TERMINAL                 CCN000072000000072000FN00000000020220401000072000NNM   20211213122659X5  4P0P  00002400000000897600001065232X5    EPYNA-E 005100280028
BI00B32X5    TIB2009        202201287116-4486-02             TERMINAL                 CCN000112000000112000FN00000000020220401000112000NNM   20211213122659X5  4P0P  00002800000000666400000995132X5    EPYNA-E 006400630017
BI00B32X5    TIB2009        202201287116-5045-02             TERMINAL                 CCN000256000000256000FN00000000020220401000256000NNM   20211213122659X5  4P0P  00001600000000678400001007132X5    EPYNA-E 006400630017
BI00B32X5    TIB2009        202201287116-5046-02             TERMINAL                 CCN000036000000036000FN00000000020220401000036000NNM   20211213122659X5  4P0P  00001200000000544800000873532X5    EPYNA-E 006400630017
BI00B32X5    TIB2009        202201287137-3047-30             UNIT PACKING             CCN000010000000010000FN00000000020220401000010000NNM   20211213122659X5  1C0C  00000100000000170500000218932X5    EPYNA-E 002700430014
BI00B32X5    TIB2009        202201287172-5402-30             SEAL RUBBER              CCN000024000000024000FN00000000020220401000024000NNM   20211213122659X5  1C0C  00000800000000457600000506032X5    EPYNA-E 004300270014
BI00B32X5    TIB2009        202201287172-5403-30             SEALED PACKING           CCN000020000000020000FN00000000020220401000020000NNM   20211213122659X5  1C0C  00000400000000653600000701732X5    EPYNA-E 004300270014
BI00B32X5    TIB2009        202201287173-3291-40             LIF LEVER                CCN000004800000004800FN00000000020220401000004800NNM   20211213122659X5  1F0F  00000240000000867800001067832X5    EPYNA-E 005500360039
BI00B32X5    TIB2009        202201287195-0783-08             TERMINAL                 CCN000030000000030000FN00000000020220401000030000NNM   20211213122659X5  4P0P  00003000000000507000000801232X5    EPYNA-E 006400630015
BI00B32X5    TIB2009        202201287196-1104-02             TERMINAL                 CCN000067500000067500FN00000000020220401000067500NNM   20211213122659X5  4P0P  00002250000000441000000726232X5    EPYNA-E 006400630015
BI00B32X5    TIB2009        202201287196-1325-02             TERMINAL FEMALE          CCN000180000000180000FN00000000020220401000180000NNM   20211213122659X5  4P0P  00006000000000450000000778732X5    EPYNA-E 006400630017
BI00B32X5    TIB2009        202201287196-1326-02             TERMINAL FEMALE          CCN000420000000420000FN00000000020220401000420000NNM   20211213122659X5  4P0P  00006000000000456000000784732X5    EPYNA-E 006400630017
BI00B32X5    TIB2009        202201287282-4576-90             HOUSING MALE ASS'Y       CCN000002400000002400FN00000000020220401000002400NNM   20211213122659X5  4N0N  00000240000000808800001028832X5    EPYNA-E 005500360039
BI00B32X5    TIB2009        202201287282-5574-10             CONNECTOR                CCN000012000000012000FN00000000020220401000012000NNM   20211213122659X5  4N0N  00000080000001235000001423032X5    EPYNA-E 005600390040
BI00B32X5    TIB2009        202201287283-4855-40             CONNECTOR HOUSING        CCN000002400000002400FN00000000020220401000002400NNM   20211213122659X5  4N0N  00000240000001188400001400032X5    EPYNA-E 005600360039
BI00B32X5    TIB2009        202201287283-6568-40             CONNECTOR                CCN000002000000002000FN00000000020220401000002000NNM   20211213122659X5  4N0N  00000200000001090000001263032X5    EPYNA-E 005500360039
BI00B32X5    TIB2009        202201287288-6598-70             HOUSING MALE ASS'Y       CCN000004320000004320FN00000000020220401000004320NNM   20211213122659X5  4N0N  00000144000001074200001429232X5    EPYNA-E 005500360039
BI00B32X5    TIB2009        202201287289-3342-30             HOUSING FEMALE ASS'Y     CCN000088800000088800FN00000000020220401000088800NNM   20211213122659X5  1N0N  00000240000000686400000901432X5    EPYNA-E 005500360039
BI00B32X5    TIB2009        202201287289-3342-90             HOUSING FEMALE ASS'Y     CCN000009600000009600FN00000000020220401000009600NNM   20211213122659X5  1N0N  00000240000000686400000901432X5    EPYNA-E 005500360039
BI00B32X5    TIB2009        202201287289-5979-30             HOUSING FEMALE ASS'Y     CCN000002520000002520FN00000000020220401000002520NNM   20211213122659X5  1N0N  00000025200000854700001064732X5    EPYNA-E 005400370024
BI00B32X5    TIB2009        202201287289-6518-30             HOUSING FEMALE ASS'Y     CCN000002400000002400FN00000000020220401000002400NNM   20211213122659X5  1N0N  00000120000000829200001049232X5    EPYNA-E 005500360039
BI00B32X5    TIB2009        202201287295-0785-02             TERMINAL ALUMINIUM       CCN000025500000025500FN00000000020220401000025500NNM   20211213122659X5  4P0P  00002550000000510000000803632X5    EPYNA-E 006400630015
BI00B32X5    TIB2009        202201287296-0784-02             TERMINAL ALUMINIUM       CCN000120000000120000FN00000000020220401000120000NNM   20211213122659X5  4P0P  00002400000000480000000765232X5    EPYNA-E 006400630015
BI00B32X5    TIB2009        202201287388-2978-30             HOUSING MALE ASS'Y       CCN000001920000001920FN00000000020220401000001920NNM   20211213122659X5  1N0N  00000048000000742000001122032X5    EPYNA-E 005500360039
BI00B32X5    #TIB2009       202201287158-3017                RUBBER STOPPER           CCN000020000000020000FN00000000020220401000020000NNM   20211213122659X5  2C0C  00001000000000375500000435032X5    EPYNA-E 002700430014
BI00B32X5    #TIB2009       202201287287-7859                HYBRID FEMALE ASS'Y      CCN000015600000015600FN00000000020220401000015600NNM   20211213122659X5  2N0N  00000120000000461600000671632X5    EPYNA-E 005500360039
BI00B32X5    #TIB2009       202201287287-9155                HOUSING FEMALE ASS'Y     CCN000008640000008640FN00000000020220401000008640NNM   20211213122659X5  2N0N  00000096000000853700001045232X5    EPYNA-E 005400370024
BI00B32X5    #TIB2009       202201287158-3003-90             RUBBER STOPPER           CCN000140000000140000FN00000000020220401000140000NNM   20211213122659X5  2C0C  00002000000000250000000306032X5    EPYNA-E 002700430014
BI00B32X5    #TIB2009       202201287158-3004-40             RUBBER STOPPER           CCN000160000000160000FN00000000020220401000160000NNM   20211213122659X5  2C0C  00002000000000234000000306332X5    EPYNA-E 002700430014
BI00B32X5    #TIB2009       202201287158-3005-80             RUBBER STOPPER           CCN000040000000040000FN00000000020220401000040000NNM   20211213122659X5  2H0H  00002000000000210000000268732X5    EPYNA-E 002700430014
BI00B32X5    #TIB2009       202201287158-3007-10             RUBBER STOPPER           CCN000180000000180000FN00000000020220401000180000NNM   20211213122659X5  2H0H  00002000000000308000000362732X5    EPYNA-E 002700430014
BI00B32X5    #TIB2009       202201287158-3008-80             RUBBER STOPPER           CCN000020000000020000FN00000000020220401000020000NNM   20211213122659X5  2C0C  00002000000000288000000343032X5    EPYNA-E 004300270014
BI00B32X5    #TIB2009       202201287158-3610-80             RUBBER STOPPER           CCN000003000000003000FN00000000020220401000003000NNM   20211213122659X5  2H0H  00000300000000396900000438932X5    EPYNA-E 004300270014
BI00B32X5    #TIB2009       202201287172-5625-90             RUBBER STOPPER           CCN000060000000060000FN00000000020220401000060000NNM   20211213122659X5  2H0H  00002000000000082400000133832X5    EPYNA-E 004300270014
BI00B32X5    #TIB2009       202201287172-5626-90             RUBBER STOPPER           CCN000060000000060000FN00000000020220401000060000NNM   20211213122659X5  2H0H  00002000000000076400000127832X5    EPYNA-E 004300270014
BI00B32X5    #TIB2009       202201287172-5627-60             RUBBER STOPPER           CCN000040000000040000FN00000000020220401000040000NNM   20211213122659X5  2H0H  00002000000000070400000121832X5    EPYNA-E 004300270014
BI00B32X5    #TIB2009       202201287172-5628-80             DUMMY PLUG               CCN000020000000020000FN00000000020220401000020000NNM   20211213122659X5  2H0H  00002000000000110600000162032X5    EPYNA-E 004300270014
BI00B32X5    #TIB2009       202201287172-5629-80             RUBBER STOPPER           CCN000380000000380000FN00000000020220401000380000NNM   20211213122659X5  2H0H  00002000000000060000000111132X5    EPYNA-E 004300270014
BI00B32X5    #TIB2009       202201287172-5630-40             RUBBER STOPPER           CCN000260000000260000FN00000000020220401000260000NNM   20211213122659X5  2H0H  00002000000000044000000095132X5    EPYNA-E 004300270014
BI00B32X5    #TIB2009       202201287172-5631-60             RUBBER STOPPER           CCN000040000000040000FN00000000020220401000040000NNM   20211213122659X5  2H0H  00002000000000042000000093132X5    EPYNA-E 004300270014
BI00B32X5    #TIB2009       202201287172-5632-10             DUMMY PLUG               CCN000260000000260000FN00000000020220401000260000NNM   20211213122659X5  2H0H  00002000000000080400000131832X5    EPYNA-E 004300270014
BI00B32X5    #TIB2009       202201287173-3225-10             LIF LEVER                CCN000003200000003200FN00000000020220401000003200NNM   20211213122659X5  2F0F  00000080000000592000000712032X5    EPYNA-E 005500360039
BI00B32X5    #TIB2009       202201287183-8253-40             HOUSING                  CCN000004800000004800FN00000000020220401000004800NNM   20211213122659X5  2F0F  00000240000000528000000805032X5    EPYNA-E 005500360039
BI00B32X5    #TIB2009       202201287189-2978-30             HOUSING FEMALE           CCN000009000000009000FN00000000020220401000009000NNM   20211213122659X5  2F0F  00000150000000966900001096932X5    EPYNA-E 005400370024
BI00B32X5    #TIB2009       202201287189-3034-30             HOUSING FEMALE           CCN000001600000001600FN00000000020220401000001600NNM   20211213122659X5  2F0F  00000160000000972800001192832X5    EPYNA-E 005500360039
BI00B32X5    @TIB2009       202201287286-4098                CONNECTOR MALE ASS'Y     CCN000019200000019200FN00000000020220401000019200NNM   20211213122659X5  3N0N  00000160000000949100001163032X5    EPYNA-E 005500360039
BI00B32Y2    #TAU1154       202112167289-2918-40             HOUSING FEMALE ASS'Y     CCN000010000000000000FY00000000020220401000000000NNEQ0020211213101652    2N0N  00000100000001020000001147032Y2    YUYUY   005400360024
BI00A32Y2    #TAU1154       202112147289-2918-40             HOUSING FEMALE ASS'Y     CCN000007000000010000FN00000000020220401000010000NNEM0020211213122659    2N0N  00000100000001020000001147032Y2    YUYUY   005400360024
