BI00B1200    H322F50015     202206077116-4112-02             TERMINAL                 CCN000012000000012000FN00000000020220601000012000NNE   20220310152950    4P0P  0000060000000045000000073821200    YCYC    006400630015
BI00B1200    7504T52301     202204287154-7140-30             LOWER COVER              CCN000004800000004800FN00000000020220501000004800NNM   20220310153031    4F0F  0000000600000019900000041001200    YCYC    005600390040
BI00B1200    7504T52301     202204287254-5840-30             ENG R/B SUB ASS'Y        CCN000004800000004800FN00000000020220501000004800NNM   20220310153031    4J0J  0000000240000073200000095201200    YCYC    005600390040
BI00B32AF    JTB2024        202202287289-3342-30             HOUSING FEMALE ASS'Y     CCN000055200000028800FY00002880020220201000000000NNM00020220310102734    1N0N  00000240000000686400000901432AF    HBYHVTB 005500360039
BI00A32AF    JTB2024        202203237289-3342-30             HOUSING FEMALE ASS'Y     PCN000026400000026400FN00000000020220201000026400NNM00020220310123555    1N0N  00000240000000686400000901432AF    HBYHVTB 005500360039
BI00B32AG    XG22061CMW     202205067C89-6868-30             SEALED ASSY FEMALE       CCN000005040000005040FN00000000020220601000005040NNMD0420220310155640    4N0N  00000252000000839200001119232AG    XGXGY   005500360039
BI00B32AG    XG22062CMW     202205137C89-6868-30             SEALED ASSY FEMALE       CCN000010080000010080FN00000000020220601000010080NNMD0420220310155718    4N0N  00000252000000839200001119232AG    XGXGY   005500360039
BI00B32AG    XG22063CMW     202205207C89-6868-30             SEALED ASSY FEMALE       CCN000010080000010080FN00000000020220601000010080NNMD0420220310155744    4N0N  00000252000000839200001119232AG    XGXGY   005500360039
BI00B32AG    XG22064CMW     202205277C89-6868-30             SEALED ASSY FEMALE       CCN000010080000010080FN00000000020220601000010080NNMD0420220310155813    4N0N  00000252000000839200001119232AG    XGXGY   005500360039
BI00B32AG    XG22061CMW     202205067298-3822-70             HOUSING FEMALE ASS'Y     CCN000005040000005040FN00000000020220601000005040NNMD0420220310155654    4N0N  00000252000000776200001077032AG    XGXGY   005500360039
BI00B32AG    XG22062CMW     202205137298-3822-70             HOUSING FEMALE ASS'Y     CCN000010080000010080FN00000000020220601000010080NNMD0420220310155726    4N0N  00000252000000776200001077032AG    XGXGY   005500360039
BI00B32AG    XG22063CMW     202205207298-3822-70             HOUSING FEMALE ASS'Y     CCN000010080000010080FN00000000020220601000010080NNMD0420220310155751    4N0N  00000252000000776200001077032AG    XGXGY   005500360039
BI00B32AG    XG22064CMW     202205277298-3822-70             HOUSING FEMALE ASS'Y     CCN000010080000010080FN00000000020220601000010080NNMD0420220310155819    4N0N  00000252000000776200001077032AG    XGXGY   005500360039
BI00B32AG    XG22061CMW     202205067327-6884-30             MULTI FUSE               CCN000009216000009216FN00000000020220601000009216NNMD0420220310155654    4N0N  00000028800000988900001154832AG    XGXGY   005400370024
BI00B32AG    XG22062CMW     202205137327-6884-30             MULTI FUSE               CCN000000864000000864FN00000000020220601000000864NNMD0420220310155732    4N0N  00000028800000988900001154832AG    XGXGY   005400370024
BI00B32AG    XG22063CMW     202205207327-6884-30             MULTI FUSE               CCN000000576000000576FN00000000020220601000000576NNMD0420220310155802    4N0N  00000028800000988900001154832AG    XGXGY   005400370024
BI00B32AG    XG22064CMW     202205277327-6884-30             MULTI FUSE               CCN000004896000004896FN00000000020220601000004896NNMD0420220310155825    4N0N  00000028800000988900001154832AG    XGXGY   005400370024
BI00B32A7    ZZ2205ABMW     202204067172-5403-30             SEALED PACKING           CCN000020000000020000FN00000000020220501000020000NNE   20220310153107    1C0C  00000400000000653600000701732A7    ZZZZY   004300270014
BI00B32A7    ZZ2205ALMW     202204067116-4020                TERMINAL                 CCN000013500000013500FN00000000020220501000013500NNE   20220310153127    4P0P  00001350000000513000000798232A7    ZZZZY   006400630015
BI00B32A7    ZZ2205ALMW     202204067158-3169-40             SEALING PLUG             CCN000120000000120000FN00000000020220501000120000NNE   20220310153127    1C0C  00004000000000156000000204132A7    ZZZZY   004300260014
BI00B32BF    TT2204AKMW     202203107116-4025                TERMINAL                 CCN000032000000032000FY00003200020220401000000000NNE00020220310161718    4P0P  00001600000000644800000975132BF    TTTJYCD 006400630017
BI00B32BF    TT2204AKMW     202203207158-3006-90             RUBBER STOPPER           CCN000040000000040000FY00004000020220401000000000NNE00020220310161718    1C0C  00002000000000330600000386032BF    TTTJYCD 002700430014
BI00B32BF    @TT2204AKMW    202203107283-1100-60             CONNECTOR ASS'Y          CCN000001600000001600FY00000160020220401000000000NNE00020220310161718    3N0N  00000160000000567500000801432BF    TTTJYCD 005500360039
BI00B32B1    A22019A        202204087282-5553-30             CONNECTOR                CCN000002000000002000FN00000000020220601000002000NNED0020220310153256B1  4N0N  00000100000001010000001187332B1    AXARNE-M005500360039
BI00B32B1    A22019A        202204087282-5574-10             CONNECTOR                CCN000000800000000800FN00000000020220601000000800NNED0020220310153311B1  4N0N  00000080000001235000001423032B1    AXARNE-M005600390040
BI00B32B1    #A22019A       202204087158-3376-50             CONNECTOR WIRE SEAL      CCN000100000000100000FN00000000020220601000100000NNED0020220310155111B1  2C0C  00002000000000184000000240732B1    AXARNE-M002700430014
BI00A32B6    TAPP13C1E      202203307327-6994-3W             BATTERY FUSE             CCN000000500000000504FN00000000020220201000000504NNED0720220310123555B6  4N0N  00000007200001215100001430132B6    AXARNE-M005500360039
BI00B32B6    A72019A        202204087158-3166-60             WIRE SEAL                CCN000040000000040000FN00000000020220701000040000NNED0020220310150008B6  1C0C  00004000000000104000000152432B6    AXARNE-M002700430014
BI00B32B6    A72019A        202204087158-3169-40             SEALING PLUG             CCN000120000000120000FN00000000020220701000120000NNED0020220310150020B6  1C0C  00004000000000156000000204132B6    AXARNE-M004300260014
BI00B32B6    A72019A        202204087287-0192-40             SEALED HOUSING ASS'Y     CCN000000960000000960FN00000000020220701000000960NNED0020220310153331B6  4N0N  00000048000001092000001322032B6    AXARNE-M005600390040
BI00B32B6    #A72019A       202204087158-3017                RUBBER STOPPER           CCN000010000000010000FN00000000020220701000010000NNED0420220310155130B6  2C0C  00001000000000375500000435032B6    AXARNE-M002700430014
BI00B32B7    A82019A        202204087158-3169-40             SEALING PLUG             CCN000080000000080000FN00000000020220701000080000NNED0020220310150039B7  1C0C  00004000000000156000000204132B7    AXARNE-M004300260014
BI00B32B7    A82019A        202204087282-6448-40             CONNECTOR                CCN000012000000012000FN00000000020220701000012000NNED0020220310153430B7  4N0N  00000080000000887000001152732B7    AXARNE-M005600390040
BI00B32B7    A82019A        202204087283-8599-30             CONNECTOR                CCN000001540000001540FN00000000020220701000001540NNED0020220310153430B7  4N0N  00000154000000947100001157032B7    AXARNE-M005600390023
BI00B32B7    #A82019A       202204087135-7031                GROMMET                  CCN000003900000003900FN00000000020220701000003900NNED0020220310155204B7  2H0H  00000010000000634200000744232B7    AXARNE-M005400370024
BI00B32B7    #A82019A       202204087158-3376-50             CONNECTOR WIRE SEAL      CCN000040000000040000FN00000000020220701000040000NNED0020220310155222B7  2C0C  00002000000000184000000240732B7    AXARNE-M002700430014
BI00B32CA    PTA32061       202203177289-3342                HOUSING FEMALE ASS'Y     CCN000045600000045600FN00000000020220601000045600NNE00020220310165921    1N0N  00000240000000686400000901432CA    YPYPY   005500360039
BI00B32CA    PTA32061       202203177289-3342-30             HOUSING FEMALE ASS'Y     CCN000062400000062400FN00000000020220601000062400NNE00020220310165936    1N0N  00000240000000686400000901432CA    YPYPY   005500360039
BI00B32CA    PTA32061       202203177289-3342-90             HOUSING FEMALE ASS'Y     CCN000019200000019200FN00000000020220601000019200NNE00020220310165947    1N0N  00000240000000686400000901432CA    YPYPY   005500360039
BI00B32CC    CTA32058       202204217289-3342-30             HOUSING FEMALE ASS'Y     CCN000016800000016800FN00000000020220701000016800NNED0420220310123555    1N0N  00000240000000686400000901432CC    BIYABCBU005500360039
BI00B32CH    SJ22035HMW     202203177327-6884-30             MULTI FUSE               CCN000023328000011520FN00000000020220301000011520NNM00020220310170047    4N0N  00000028800000988900001154832CH    SJSAMIJF005400370024
BI00B32CH    SJ22035HMW     202203177327-6884-30             MULTI FUSE               CCN000011808000011808FN00000000020220301000011808NNM00020220310170047    4N0N  00000028800000988900001154832CH    SJSAMIJF005400370024
BI00A32DE    TCT204F        202203177196-0805-02             TERMINAL FEMALE          CCN000022500000022500FN00000000020220401000022500NNEM0020220310171106    4P0P  00002250000000558000000843232DE    TVYEV-TV006400630015
BI00A32DE    TCT204F        202203177298-4899-70             SEALED HOUSING ASS'Y     CCN000002310000002310FN00000000020220401000002310NNEM0020220310171145    4N0N  00000231000000766900001036932DE    TVYEV-TV005500360039
BI00A32DE    #TCT204F       202203177172-5626-90             RUBBER STOPPER           CCN000020000000020000FN00000000020220401000020000NNEM0020220310171014    2H0H  00002000000000076400000127832DE    TVYEV-TV004300270014
BI00A32DE    #TCT204F       202203177172-5628-80             DUMMY PLUG               CCN000020000000020000FN00000000020220401000020000NNEM0020220310171036    2H0H  00002000000000110600000162032DE    TVYEV-TV004300270014
BI00B32DG    RP2051         202204217288-3329-30             HOUSING MALE             CCN000003000000003000FN00000000020220501000003000NNMD0420220310123555    4N0N  00000150000000866100001011132DG    BFSAIBF 005400370024
BI00B32DG    RP2052         202204287288-3329-30             HOUSING MALE             CCN000001500000001500FN00000000020220501000001500NNMD0420220310123555    4N0N  00000150000000866100001011132DG    BFSAIBF 005400370024
BI00B32DG    RP2053         202205057288-3329-30             HOUSING MALE             CCN000001500000001500FN00000000020220501000001500NNMD0420220310123555    4N0N  00000150000000866100001011132DG    BFSAIBF 005400370024
BI00B32DG    RP2051         202204217289-3342-30             HOUSING FEMALE ASS'Y     CCN000014400000014400FN00000000020220501000014400NNMD0420220310123555    1N0N  00000240000000686400000901432DG    BFSAIBF 005500360039
BI00B32DG    RP2052         202204287289-3342-30             HOUSING FEMALE ASS'Y     CCN000007200000007200FN00000000020220501000007200NNMD0420220310123555    1N0N  00000240000000686400000901432DG    BFSAIBF 005500360039
BI00B32DG    RP2053         202205057289-3342-30             HOUSING FEMALE ASS'Y     CCN000007200000007200FN00000000020220501000007200NNMD0420220310123555    1N0N  00000240000000686400000901432DG    BFSAIBF 005500360039
BI00B32DG    RP2054         202205127289-3342-30             HOUSING FEMALE ASS'Y     CCN000004800000004800FN00000000020220501000004800NNMD0420220310123555    1N0N  00000240000000686400000901432DG    BFSAIBF 005500360039
BI00B32DG    RP2051         202204217288-3339-30             HOUSING MALE             CCN000001500000001500FN00000000020220501000001500NNMD0420220310123555    4N0N  00000150000000867000001012032DG    BFSAIBF 005400370024
BI00B32DG    RP2052         202204287288-3339-30             HOUSING MALE             CCN000001500000001500FN00000000020220501000001500NNMD0420220310123555    4N0N  00000150000000867000001012032DG    BFSAIBF 005400370024
BI00B32DG    RP2051         202204217288-3340-30             HOUSING MALE             CCN000009000000009000FN00000000020220501000009000NNMD0420220310123555    4N0N  00000150000000861500001006432DG    BFSAIBF 005400370024
BI00B32DG    RP2052         202204287288-3340-30             HOUSING MALE             CCN000004500000004500FN00000000020220501000004500NNMD0420220310123555    4N0N  00000150000000861500001006432DG    BFSAIBF 005400370024
BI00B32DG    RP2053         202205057288-3340-30             HOUSING MALE             CCN000004500000004500FN00000000020220501000004500NNMD0420220310123555    4N0N  00000150000000861500001006432DG    BFSAIBF 005400370024
BI00B32DG    RP2054         202205127288-3340-30             HOUSING MALE             CCN000003000000003000FN00000000020220501000003000NNMD0420220310123555    4N0N  00000150000000861500001006432DG    BFSAIBF 005400370024
BI00B32D1    DFTC2216       202203087289-3342-30             HOUSING FEMALE ASS'Y     CCN000081600000024000FY00002400020220401000000000NNM00020220309204028    1N0N  00000240000000686400000901432D1    TOYOT-K 005500360039
BI00B32D1    #DFTC2216      202203197172-5629-80             RUBBER STOPPER           CCN000200000000200000FN00000000020220401000200000NNM00020220310123555    2H0H  00002000000000060000000111132D1    TOYOT-K 004300270014
BI00B32D1    #DFTC2216      202203147172-5630-40             RUBBER STOPPER           CCN000020000000020000FN00000000020220401000020000NNM00020220310123555    2H0H  00002000000000044000000095132D1    TOYOT-K 004300270014
BI00B32D1    DFTC2217       202203147289-3342-90             HOUSING FEMALE ASS'Y     CCN000002400000002400FN00000000020220401000002400NNM00020220310123555    1N0N  00000240000000686400000901432D1    TOYOT-K 005500360039
BI00B32D1    #DFTC2217      202203177172-5629-80             RUBBER STOPPER           CCN000200000000200000FN00000000020220401000200000NNM00020220310123555    2H0H  00002000000000060000000111132D1    TOYOT-K 004300270014
BI00B32D1    DFTC2216       202203147289-3342-30             HOUSING FEMALE ASS'Y     CCN000057600000057600FN00000000020220401000057600NNM00020220310123555    1N0N  00000240000000686400000901432D1    TOYOT-K 005500360039
BI00B32D2    #DGTC2216      202203177172-5629-80             RUBBER STOPPER           CCN000340000000340000FN00000000020220401000340000NNM00020220310123555    2H0H  00002000000000060000000111132D2    TGYOT-G 004300270014
BI00B32D2    #DGTC2217      202203177172-5629-80             RUBBER STOPPER           CCN000100000000100000FN00000000020220401000100000NNM00020220310123555    2H0H  00002000000000060000000111132D2    TGYOT-G 004300270014
BI00B32D2    DGTC2222       202204077158-3165-90             WIRE SEAL                CCN000040000000000000FY00000000020220601000000000NNMQ0820220310084310    1C0C  00004000000000124000000172432D2    TGYOT-G 004300270014
BI00B32D9    I21404         202203177289-3342                HOUSING FEMALE ASS'Y     CCN000014400000014400FN00000000020220401000014400NNM00020220310170142    1N0N  00000240000000686400000901432D9    UEHESTO 005500360039
BI00B32D9    I21404         202203177289-3342-90             HOUSING FEMALE ASS'Y     CCN000009600000009600FN00000000020220401000009600NNM00020220310170149    1N0N  00000240000000686400000901432D9    UEHESTO 005500360039
BI00B32G0    @TZ2203BEMW    202203107286-4098                CONNECTOR MALE ASS'Y     CCN000000300000001600FY00000160020220301000000000NNE00020220310161742    3N0N  00000160000000949100001163032G0    TTTJY   005500360039
BI00B32G0    TZ2204AEMW     202203107283-1928-80             CONNECTOR                CCN000010000000010000FY00001000020220401000000000NNE00020220310161742    4N0N  00000200000001180000001358332G0    TTTJY   005500360039
BI00B32G2    SA2204CJMW     202203237289-5979-30             HOUSING FEMALE ASS'Y     CCN000000252000000252FN00000000020220401000000252NNE   20220310123555    1N0N  00000025200000854700001064732G2    AISUAI  005400370024
BI00B32G7    JJ22044 MW     202204217158-3006-90             RUBBER STOPPER           CCN000140000000140000FN00000000020220401000140000NNMD0020220310123555    1C0C  00002000000000330600000386032G7    JIJAI   002700430014
BI00B32G7    JJ22044 MW     202204217158-3009-60             RUBBER STOPPER           CCN000140000000140000FN00000000020220401000140000NNMD0020220310123555    1C0C  00002000000000338000000386232G7    JIJAI   002700430014
BI00B32G7    JJ22044 MW     202204217158-3167-80             WIRE SEAL                CCN000020000000020000FN00000000020220401000020000NNMD0020220310123555    1C0C  00002000000000048000000109032G7    JIJAI   002700430014
BI00B32G7    JJ22044 MW     202204217287-1915                CONNECTOR ASS'Y          CCN000016800000016800FN00000000020220401000016800NNMD0020220310123555    4N0N  00000240000000666500000923132G7    JIJAI   005500360039
BI00B32G7    #JJ22044 MW    202204217123-6347                CONNECTOR HOUSING        CCN000003200000003200FN00000000020220401000003200NNMD0020220310131133    2F0F  00000160000000647000000904832G7    JIJAI   005500360039
BI00B32G7    #JJ22044 MW    202204217158-3003-90             RUBBER STOPPER           CCN000260000000260000FN00000000020220401000260000NNMD0020220310143253    2C0C  00002000000000250000000306032G7    JIJAI   002700430014
BI00B32G7    #JJ22044 MW    202204217158-3004-40             RUBBER STOPPER           CCN000100000000100000FN00000000020220401000100000NNMD0020220310123555    2C0C  00002000000000234000000306332G7    JIJAI   002700430014
BI00B32G7    #JJ22044 MW    202204217158-3007-10             RUBBER STOPPER           CCN000080000000080000FN00000000020220401000080000NNMD0020220310123555    2H0H  00002000000000308000000362732G7    JIJAI   002700430014
BI00B32G7    #JJ22044 MW    202204217158-3008-80             RUBBER STOPPER           CCN000040000000040000FN00000000020220401000040000NNMD0020220310143314    2C0C  00002000000000288000000343032G7    JIJAI   004300270014
BI00B32G7    #JJ22044 MW    202204217158-3015-10             RUBBER STOPPER           CCN000040000000040000FN00000000020220401000040000NNMD0020220310143338    2C0C  00001000000000419500000474032G7    JIJAI   002700430014
BI00B32G7    #JJ22044 MW    202204217158-3017                RUBBER STOPPER           CCN000040000000040000FN00000000020220401000040000NNMD0020220310143403    2C0C  00001000000000375500000435032G7    JIJAI   002700430014
BI00B32G7    #JJ22044 MW    202204217158-3120-90             CONNECTOR WIRE SEAL      CCN000020000000020000FN00000000020220401000020000NNMD0020220310123555    2C0C  00002000000000136000000194032G7    JIJAI   002700430014
BI00B32G7    JJ22044KMW     202204217158-3165-90             WIRE SEAL                CCN000040000000040000FN00000000020220401000040000NNMD0020220310123555    1C0C  00004000000000124000000172432G7    JIJAI   004300270014
BI00B32G7    JJ22043KMW     202204217158-3169-40             SEALING PLUG             CCN000040000000040000FN00000000020220401000040000NNMD0020220310123555    1C0C  00004000000000156000000204132G7    JIJAI   004300260014
BI00B32G7    JJ22044MMW     202204217288-3338-30             HOUSING MALE             CCN000006000000006000FN00000000020220401000006000NNMD0020220310123555    4N0N  00000150000000866100001012032G7    JIJAI   005400370024
BI00B32G7    JJ22044MMW     202204217289-3342                HOUSING FEMALE ASS'Y     CCN000002400000002400FN00000000020220401000002400NNMD0020220310123555    1N0N  00000240000000686400000901432G7    JIJAI   005500360039
BI00B32G7    JJ22044MMW     202204217388-2978-30             HOUSING MALE ASS'Y       CCN000017280000017280FN00000000020220401000017280NNMD0020220310123555    1N0N  00000048000000742000001122032G7    JIJAI   005500360039
BI00B32G7    #JJ22044MMW    202204217158-3005-80             RUBBER STOPPER           CCN000040000000040000FN00000000020220401000040000NNMD0020220310123555    2H0H  00002000000000210000000268732G7    JIJAI   002700430014
BI00B32G7    #JJ22044MMW    202204217172-5627-60             RUBBER STOPPER           CCN000100000000100000FN00000000020220401000100000NNMD0020220310143428    2H0H  00002000000000070400000121832G7    JIJAI   004300270014
BI00B32G7    #JJ22044MMW    202204217172-5628-80             DUMMY PLUG               CCN000020000000020000FN00000000020220401000020000NNMD0020220310143451    2H0H  00002000000000110600000162032G7    JIJAI   004300270014
BI00B32G7    #JJ22044MMW    202204217172-5629-80             RUBBER STOPPER           CCN000060000000060000FN00000000020220401000060000NNMD0020220310123555    2H0H  00002000000000060000000111132G7    JIJAI   004300270014
BI00B32G7    #JJ22044MMW    202204217172-5630-40             RUBBER STOPPER           CCN000340000000340000FN00000000020220401000340000NNMD0020220310123555    2H0H  00002000000000044000000095132G7    JIJAI   004300270014
BI00B32G7    #JJ22044MMW    202204217172-5631-60             RUBBER STOPPER           CCN000080000000080000FN00000000020220401000080000NNMD0020220310123555    2H0H  00002000000000042000000093132G7    JIJAI   004300270014
BI00B32G7    #JJ22044MMW    202204217172-5632-10             DUMMY PLUG               CCN000180000000180000FN00000000020220401000180000NNMD0020220310144122    2H0H  00002000000000080400000131832G7    JIJAI   004300270014
BI00B32G7    #JJ22044MMW    202204217189-2978-30             HOUSING FEMALE           CCN000018000000018000FN00000000020220401000018000NNMD0020220310144258    2F0F  00000150000000966900001096932G7    JIJAI   005400370024
BI00B32G7    #JJ22044MMW    202204217289-3622-30             HOUSING FEMALE ASS'Y     CCN000001728000001728FN00000000020220401000001728NNMD0020220310123555    2N0N  00000043200000839400001038432G7    JIJAI   005400370024
BI00B32G7    @JJ22044MMW    202204217287-4098-40             CONNECTOR FEMALE         CCN000002400000002400FN00000000020220401000002400NNMD0020220310130805    3N0N  00000240000000672500000908032G7    JIJAI   005500360039
BI00A32G7    JJ2204CMMW     202203317297-3482                JOINT CONNECTOR          CCN000001600000000800FN00000000020220401000000800NNEM0020220310133655    4N0N  00000080000000621000000730532G7    JIJAI   005400370024
BI00B32G7    JJ2204CMMW     202203317297-3482                JOINT CONNECTOR          CCN000000800000000800FN00000000020220401000000800NNEQ0020220310133709    4N0N  00000080000000621000000730532G7    JIJAI   005400370024
BI00B32G9    TY22051TMW     202204087288-6547                CONNECTOR MALE ASS'Y     CCN000001500000001500FN00000000020220501000001500NNMD0420220310123555    4N0N  00000075000001205300001340332G9    TYTYC   005400370024
BI00B32G9    TY22051TMW     202204087289-3342                HOUSING FEMALE ASS'Y     CCN000002400000002400FN00000000020220501000002400NNMD0420220310123555    1N0N  00000240000000686400000901432G9    TYTYC   005500360039
BI00B32G9    TY22051TMW     202204087289-3342-30             HOUSING FEMALE ASS'Y     CCN000002400000002400FN00000000020220501000002400NNMD0420220310123555    1N0N  00000240000000686400000901432G9    TYTYC   005500360039
BI00B32G9    TY22052TMW     202204227289-3342-30             HOUSING FEMALE ASS'Y     CCN000002400000002400FN00000000020220501000002400NNMD0420220310123555    1N0N  00000240000000686400000901432G9    TYTYC   005500360039
BI00B32G9    TY22051TMW     202204087289-3342-40             HOUSING FEMALE ASS'Y     CCN000002400000002400FN00000000020220501000002400NNMD0420220310123555    1N0N  00000240000000686400000901432G9    TYTYC   005500360039
BI00B32H0    TT22023VMW     202203107288-6547                CONNECTOR MALE ASS'Y     CCN000000750000000750FY00000075020220201000000000NNM00020220310161742    4N0N  00000075000001205300001340332H0    TTTJY   005400370024
BI00B32H0    #TT22043VMW    202203157172-5629-80             RUBBER STOPPER           CCN000200000000200000FN00000000020220401000200000NNM00020220310123555    2H0H  00002000000000060000000111132H0    TTTJY   004300270014
BI00B32H0    TT2204AVMW     202203107327-6809                MULTI FUSE               CCN000000560000000560FY00000056020220401000000000NNE00020220310161742    4N0N  00000056000000849300001061732H0    TTTJY   005400370024
BI00B32H0    TT2204ADMW     202203107116-4116-02             TERMINAL                 CCN000006900000006900FY00000690020220401000000000NNE00020220310161742    4P0P  00000690000000517500000805732H0    TTTJY   006400630015
BI00B32H0    TT2204ADMW     202203107126-8853-02             TERMINAL                 CCN000022500000022500FY00002250020220401000000000NNE00020220310161742    4P0P  00000750000000562500000847732H0    TTTJY   006400630015
BI00B32H0    TT2205BVMW     202203297288-3206                HOUSING MALE ASS'Y       CCN000001020000001020FN00000000020220501000001020NNE   20220310123555    1N0N  00000102000000387600000787632H0    TTTJY   005500360039
BI00B32H0    TT2205BVMW     202203297288-6547                CONNECTOR MALE ASS'Y     CCN000000750000000750FN00000000020220501000000750NNE   20220310123555    4N0N  00000075000001205300001340332H0    TTTJY   005400370024
BI00B32H0    TT2205BVMW     202203297289-5979-30             HOUSING FEMALE ASS'Y     CCN000000252000000252FN00000000020220501000000252NNE   20220310123555    1N0N  00000025200000854700001064732H0    TTTJY   005400370024
BI00B32H0    #TT2205BVMW    202203297173-3225-10             LIF LEVER                CCN000000800000000800FN00000000020220501000000800NNE   20220310123555    2F0F  00000080000000592000000712032H0    TTTJY   005500360039
BI00B32H0    #TT2205BVMW    202203297198-4980-30             HOUSING FEMALE           CCN000001200000001200FN00000000020220501000001200NNE   20220310123555    2F0F  00000120000000840000000921032H0    TTTJY   005400370024
BI00B32H2    TIJ201F        202202287289-3342-30             HOUSING FEMALE ASS'Y     CCN000028800000024000FY00002400020220101000000000NNE00020220310093653    1N0N  00000240000000686400000901432H2    HVYHV   005500360039
BI00B32H2    TIJ2024        202202287289-3342-30             HOUSING FEMALE ASS'Y     CCN000100800000028800FY00002880020220201000000000NNM00020220310093630    1N0N  00000240000000686400000901432H2    HVYHV   005500360039
BI00B32H2    TIJ2031        202202287289-3342-30             HOUSING FEMALE ASS'Y     CCN000124800000045600FY00004560020220301000000000NNM00020220310094113    1N0N  00000240000000686400000901432H2    HVYHV   005500360039
BI00A32H2    TIJ2033        202203187289-3342-30             HOUSING FEMALE ASS'Y     PCN000120000000120000FN00000000020220301000120000NNM00020220310123555    1N0N  00000240000000686400000901432H2    HVYHV   005500360039
BI00A32H2    TIJ202T        202203287289-3342-30             HOUSING FEMALE ASS'Y     PCN000240000000120000FN00000000020220201000120000NNED0420220310123555    1N0N  00000240000000686400000901432H2    HVYHV   005500360039
BI00A32H2    TIJ202T        202204047289-3342-30             HOUSING FEMALE ASS'Y     PCN000120000000120000FN00000000020220201000120000NNED0420220310123555    1N0N  00000240000000686400000901432H2    HVYHV   005500360039
BI00A32H2    TIJ2024        202203167289-3342-30             HOUSING FEMALE ASS'Y     PCN000072000000072000FN00000000020220201000072000NNM00020220310123555    1N0N  00000240000000686400000901432H2    HVYHV   005500360039
BI00A32H2    TIJ201F        202203167289-3342-30             HOUSING FEMALE ASS'Y     PCN000004800000004800FN00000000020220101000004800NNE00020220310123555    1N0N  00000240000000686400000901432H2    HVYHV   005500360039
BI00A32H2    TIJ2031        202204117289-3342-30             HOUSING FEMALE ASS'Y     PCN000079200000079200FN00000000020220301000079200NNM00020220310123555    1N0N  00000240000000686400000901432H2    HVYHV   005500360039
BI00B32H7    #FS22042DMW    202203167172-5629-80             RUBBER STOPPER           CCN000300000000300000FN00000000020220401000300000NNM00020220310123555    2H0H  00002000000000060000000111132H7    FYFSY   004300270014
BI00B32H8    TY22051KMW     202204087289-3342                HOUSING FEMALE ASS'Y     CCN000007200000007200FN00000000020220501000007200NNMD0420220310123555    1N0N  00000240000000686400000901432H8    TYTYC   005500360039
BI00B32H8    TY22052KMW     202204227289-3342                HOUSING FEMALE ASS'Y     CCN000007200000007200FN00000000020220501000007200NNMD0420220310123555    1N0N  00000240000000686400000901432H8    TYTYC   005500360039
BI00B32H8    TY22053KMW     202204297289-3342                HOUSING FEMALE ASS'Y     CCN000007200000007200FN00000000020220501000007200NNMD0420220310123555    1N0N  00000240000000686400000901432H8    TYTYC   005500360039
BI00B32H8    TY22053KMW     202204227289-3342-30             HOUSING FEMALE ASS'Y     CCN000002400000002400FN00000000020220501000002400NNMD0420220310123555    1N0N  00000240000000686400000901432H8    TYTYC   005500360039
BI00B32H8    TY22054KMW     202204297289-3342-30             HOUSING FEMALE ASS'Y     CCN000002400000002400FN00000000020220501000002400NNMD0420220310123555    1N0N  00000240000000686400000901432H8    TYTYC   005500360039
BI00A32J1    #391980        202203107187-3357-40             JOINT CONNECTOR          CCN000001200000001200FY00000120020220201000000000NNE00020220310161958    2F0F  00000120000000762000001029232J1    UKYEL-BL005600390040
BI00B32M1    TCV2034        202203177289-3342-30             HOUSING FEMALE ASS'Y     CCN000050400000050400FN00000000020220301000050400NNM00020220310163357    1N0N  00000240000000686400000901432M1    VNYEV   005500360039
BI00B32M1    TCV2034        202203177289-3342-40             HOUSING FEMALE ASS'Y     CCN000038400000038400FN00000000020220301000038400NNM00020220310163406    1N0N  00000240000000686400000901432M1    VNYEV   005500360039
BI00B32M1    TCV204A        202203247116-5035-02             TERMINAL                 CCN000150000000150000FN00000000020220401000150000NNE   20220310123555    4P0P  00001500000000543000000828232M1    VNYEV   006400630015
BI00B32M1    TCV204B        202204077116-5035-02             TERMINAL                 CCN000150000000150000FN00000000020220401000150000NNE   20220310123555    4P0P  00001500000000543000000828232M1    VNYEV   006400630015
BI00A32M3    SM22041 MW     202203107283-1144                CONNECTOR                CCN000007200000000000FY00000000020220401000000000NNM00020220310164912    4N0N  00000240000000602200000866132M3    SASAMI  005500360039
BI00B32M4    TP2041         202203117327-6985-30             MULTI FUSE               CCN000000864000000864FN00000000020220401000000864NNM00020220310123555    4N0N  00000028800000886100001052032M4    SISAI   005400370024
BI00B32M4    TP2051         202204217288-3338-30             HOUSING MALE             CCN000010500000010500FN00000000020220501000010500NNMD0420220310123555    4N0N  00000150000000866100001012032M4    SISAI   005400370024
BI00B32M4    TP2052         202204287288-3338-30             HOUSING MALE             CCN000006000000006000FN00000000020220501000006000NNMD0420220310123555    4N0N  00000150000000866100001012032M4    SISAI   005400370024
BI00B32M4    TP2053         202205057288-3338-30             HOUSING MALE             CCN000006000000006000FN00000000020220501000006000NNMD0420220310123555    4N0N  00000150000000866100001012032M4    SISAI   005400370024
BI00B32M4    TP2054         202205127288-3338-30             HOUSING MALE             CCN000001500000001500FN00000000020220501000001500NNMD0420220310123555    4N0N  00000150000000866100001012032M4    SISAI   005400370024
BI00B32M4    TP2051         202204217289-3342-30             HOUSING FEMALE ASS'Y     CCN000038400000038400FN00000000020220501000038400NNMD0420220310123555    1N0N  00000240000000686400000901432M4    SISAI   005500360039
BI00B32M4    TP2052         202204287289-3342-30             HOUSING FEMALE ASS'Y     CCN000019200000019200FN00000000020220501000019200NNMD0420220310123555    1N0N  00000240000000686400000901432M4    SISAI   005500360039
BI00B32M4    TP2053         202205057289-3342-30             HOUSING FEMALE ASS'Y     CCN000019200000019200FN00000000020220501000019200NNMD0420220310123555    1N0N  00000240000000686400000901432M4    SISAI   005500360039
BI00B32M4    TP2054         202205127289-3342-30             HOUSING FEMALE ASS'Y     CCN000014400000014400FN00000000020220501000014400NNMD0420220310123555    1N0N  00000240000000686400000901432M4    SISAI   005500360039
BI00B32M4    TP2051         202204217288-3332-30             HOUSING MALE             CCN000006000000006000FN00000000020220501000006000NNMD0420220310123555    4N0N  00000150000000860700001005732M4    SISAI   005400370024
BI00B32M4    TP2052         202204287288-3332-30             HOUSING MALE             CCN000003000000003000FN00000000020220501000003000NNMD0420220310123555    4N0N  00000150000000860700001005732M4    SISAI   005400370024
BI00B32M4    TP2053         202205057288-3332-30             HOUSING MALE             CCN000003000000003000FN00000000020220501000003000NNMD0420220310123555    4N0N  00000150000000860700001005732M4    SISAI   005400370024
BI00B32M4    TP2054         202205127288-3332-30             HOUSING MALE             CCN000001500000001500FN00000000020220501000001500NNMD0420220310123555    4N0N  00000150000000860700001005732M4    SISAI   005400370024
BI00B32M4    TP2051         202204217288-3340-30             HOUSING MALE             CCN000031500000031500FN00000000020220501000031500NNMD0420220310123555    4N0N  00000150000000861500001006432M4    SISAI   005400370024
BI00B32M4    TP2052         202204287288-3340-30             HOUSING MALE             CCN000016500000016500FN00000000020220501000016500NNMD0420220310123555    4N0N  00000150000000861500001006432M4    SISAI   005400370024
BI00B32M4    TP2053         202205057288-3340-30             HOUSING MALE             CCN000016500000016500FN00000000020220501000016500NNMD0420220310123555    4N0N  00000150000000861500001006432M4    SISAI   005400370024
BI00B32M4    TP2054         202205127288-3340-30             HOUSING MALE             CCN000012000000012000FN00000000020220501000012000NNMD0420220310123555    4N0N  00000150000000861500001006432M4    SISAI   005400370024
BI00B32M4    TP2051         202204217288-3337-30             HOUSING MALE             CCN000001500000001500FN00000000020220501000001500NNMD0420220310123555    4N0N  00000150000000867000001012032M4    SISAI   005400370024
BI00B32M4    TP2052         202204287288-3337-30             HOUSING MALE             CCN000001500000001500FN00000000020220501000001500NNMD0420220310123555    4N0N  00000150000000867000001012032M4    SISAI   005400370024
BI00B32M4    TP2051         202204217289-3342                HOUSING FEMALE ASS'Y     CCN000014400000014400FN00000000020220501000014400NNMD0420220310123555    1N0N  00000240000000686400000901432M4    SISAI   005500360039
BI00B32M4    TP2052         202204287289-3342                HOUSING FEMALE ASS'Y     CCN000007200000007200FN00000000020220501000007200NNMD0420220310123555    1N0N  00000240000000686400000901432M4    SISAI   005500360039
BI00B32M4    TP2053         202205057289-3342                HOUSING FEMALE ASS'Y     CCN000007200000007200FN00000000020220501000007200NNMD0420220310123555    1N0N  00000240000000686400000901432M4    SISAI   005500360039
BI00B32M4    TP2054         202205127289-3342                HOUSING FEMALE ASS'Y     CCN000007200000007200FN00000000020220501000007200NNMD0420220310123555    1N0N  00000240000000686400000901432M4    SISAI   005500360039
BI00B32M4    TP2051         202204217288-3335-30             HOUSING MALE             CCN000003000000003000FN00000000020220501000003000NNMD0420220310123555    4N0N  00000150000000867000001012032M4    SISAI   005400370024
BI00B32M4    TP2052         202204287288-3335-30             HOUSING MALE             CCN000001500000001500FN00000000020220501000001500NNMD0420220310123555    4N0N  00000150000000867000001012032M4    SISAI   005400370024
BI00B32M4    TP2053         202205057288-3335-30             HOUSING MALE             CCN000001500000001500FN00000000020220501000001500NNMD0420220310123555    4N0N  00000150000000867000001012032M4    SISAI   005400370024
BI00B32M4    TP2051         202204217288-3334-30             HOUSING MALE             CCN000001500000001500FN00000000020220501000001500NNMD0420220310123555    4N0N  00000150000000867000001012032M4    SISAI   005400370024
BI00B32M4    TP2051         202204217288-3336-30             HOUSING MALE             CCN000004500000004500FN00000000020220501000004500NNMD0420220310123555    4N0N  00000150000000867000001012032M4    SISAI   005400370024
BI00B32M4    TP2052         202204287288-3336-30             HOUSING MALE             CCN000003000000003000FN00000000020220501000003000NNMD0420220310123555    4N0N  00000150000000867000001012032M4    SISAI   005400370024
BI00B32M4    TP2053         202205057288-3336-30             HOUSING MALE             CCN000003000000003000FN00000000020220501000003000NNMD0420220310123555    4N0N  00000150000000867000001012032M4    SISAI   005400370024
BI00B32M4    TP2051         202204217289-3342-90             HOUSING FEMALE ASS'Y     CCN000004800000004800FN00000000020220501000004800NNMD0420220310123555    1N0N  00000240000000686400000901432M4    SISAI   005500360039
BI00B32M4    TP2052         202204287289-3342-90             HOUSING FEMALE ASS'Y     CCN000002400000002400FN00000000020220501000002400NNMD0420220310123555    1N0N  00000240000000686400000901432M4    SISAI   005500360039
BI00B32M4    TP2053         202205057289-3342-90             HOUSING FEMALE ASS'Y     CCN000002400000002400FN00000000020220501000002400NNMD0420220310123555    1N0N  00000240000000686400000901432M4    SISAI   005500360039
BI00B32M4    TP2054         202205127289-3342-90             HOUSING FEMALE ASS'Y     CCN000002400000002400FN00000000020220501000002400NNMD0420220310123555    1N0N  00000240000000686400000901432M4    SISAI   005500360039
BI00B32M4    TP2051         202206027327-6983-30             MAIN FUSE                CCN000003600000003600FN00000000020220501000003600NNMD0420220310153828    4N0N  00000060000000748800000951532M4    SISAI   005400370024
BI00B32M4    TP2052         202206027327-6983-30             MAIN FUSE                CCN000001800000001800FN00000000020220501000001800NNMD0420220310153840    4N0N  00000060000000748800000951532M4    SISAI   005400370024
BI00B32M4    TP2053         202206027327-6983-30             MAIN FUSE                CCN000001800000001800FN00000000020220501000001800NNMD0420220310153853    4N0N  00000060000000748800000951532M4    SISAI   005400370024
BI00B32M4    TP2054         202206027327-6983-30             MAIN FUSE                CCN000000600000000600FN00000000020220501000000600NNMD0420220310153906    4N0N  00000060000000748800000951532M4    SISAI   005400370024
BI00B32M4    TP2051         202206027327-6985-30             MULTI FUSE               CCN000003456000003456FN00000000020220501000003456NNMD0420220310153926    4N0N  00000028800000886100001052032M4    SISAI   005400370024
BI00B32M4    TP2052         202206027327-6985-30             MULTI FUSE               CCN000001728000001728FN00000000020220501000001728NNMD0420220310153940    4N0N  00000028800000886100001052032M4    SISAI   005400370024
BI00B32M4    TP2053         202206027327-6985-30             MULTI FUSE               CCN000001728000001728FN00000000020220501000001728NNMD0420220310153954    4N0N  00000028800000886100001052032M4    SISAI   005400370024
BI00B32M4    TP2054         202206027327-6985-30             MULTI FUSE               CCN000001152000001152FN00000000020220501000001152NNMD0420220310154006    4N0N  00000028800000886100001052032M4    SISAI   005400370024
BI00B32M4    TP2051         202204217288-3333-30             HOUSING MALE             CCN000001500000001500FN00000000020220501000001500NNMD0420220310123555    4N0N  00000150000000867000001012032M4    SISAI   005400370024
BI00A32M4    TP2034         202203107287-3885-30             HYBRID FEMALE ASS'Y      CCN000024000000000000FY00000000020220301000000000NNM00020220310164933    1N0N  00000240000001029600001249632M4    SISAI   005500360039
BI00B32M8    PM2204B MW     202203307116-3154-08             TERMINAL                 CCN000027000000027000FN00000000020220401000027000NNE   20220310123555    4P0P  00002700000000475200000760432M8    PMPEMI  006400630015
BI00B32M8    PM2204B MW     202203307116-5043-02             TERMINAL FEMALE          CCN000012000000012000FN00000000020220401000012000NNE   20220310123555    4P0P  00001200000000559200000844432M8    PMPEMI  006400630015
BI00B32M8    PM2204B MW     202203307158-3006-90             RUBBER STOPPER           CCN000080000000080000FN00000000020220401000080000NNE   20220310123555    1C0C  00002000000000330600000386032M8    PMPEMI  002700430014
BI00B32N1    #NST2116C-1    202203117158-3007-10             RUBBER STOPPER           CCN000022500000040000FN00000000020220401000040000NNM00020220310123555    2H0H  00002000000000308000000362732N1    TAYIPL  002700430014
BI00B32P8    #TAPI-2031     202203167172-5629-80             RUBBER STOPPER           CCN000300000000300000FN00000000020220301000300000NNM00020220310123555    2H0H  00002000000000060000000111132P8    YIYTM   004300270014
BI00B32P8    TAPI-2043      202203237282-9391                HOUSING MALE ASS'Y       CCN000001200000001200FN00000000020220401000001200NNMD0420220310142000    4N0N  00000120000001017600001237632P8    YIYTM   005500360039
BI00B32P8    TAPI-2044      202203307282-9391                HOUSING MALE ASS'Y       CCN000002400000002400FN00000000020220401000002400NNMD0420220310142016    4N0N  00000120000001017600001237632P8    YIYTM   005500360039
BI00B32P8    TAPI-2051      202204067282-9391                HOUSING MALE ASS'Y       CCN000001200000001200FN00000000020220501000001200NNMD0420220310142037    4N0N  00000120000001017600001237632P8    YIYTM   005500360039
BI00A32P8    TAPI-201E      202203117327-6994-3W             BATTERY FUSE             CCN000000144000000144FN00000000020220301000000144NNE00020220310164740    4N0N  00000007200001215100001430132P8    YIYTM   005500360039
BI00B32R7    #R-TAP220115   202203247283-8397-40             CONNECTOR                CCN000015400000015400FN00000000020220401000015400NNE   20220310123555    2N0N  00000154000001007000001222732R7    IVYCIC  005600390023
BI00B32R7    R-TAP220116    202203247158-3169-40             SEALING PLUG             CCN000080000000080000FN00000000020220401000080000NNE   20220310123555    1C0C  00004000000000156000000204132R7    IVYCIC  004300260014
BI00B32R7    R-TAP220117    202203247158-3169-40             SEALING PLUG             CCN000040000000040000FN00000000020220401000040000NNE   20220310123555    1C0C  00004000000000156000000204132R7    IVYCIC  004300260014
BI00B32R7    R-TAP220118    202203247289-3342-30             HOUSING FEMALE ASS'Y     CCN000009600000009600FN00000000020220401000009600NNE   20220310123555    1N0N  00000240000000686400000901432R7    IVYCIC  005500360039
BI00B32R7    R-TAP220119    202203247298-1186-40             SQUIB SUB ASS'Y          CCN000080000000080000FN00000000020220401000080000NNE   20220310123555    4N0N  00001000000000650000000774532R7    IVYCIC  005400370024
BI00B32W2    @HN2203CNMW    202203157282-1040-30             HOUSING SUB ASSEMBLY     CCN000002400000002400FN00000000020220301000002400NNE00020220310170336    3N0N  00000240000001015900001258032W2    HNHNY   005500360039
BI00B32W2    HN22051WMW     202204197327-6870-30             MULTI FUSE               CCN000000288000000288FN00000000020220501000000288NNMD0420220310154025    4N0N  00000028800001015200001181132W2    HNHNY   005400370024
BI00B32W2    HN22052WMW     202204197327-6870-30             MULTI FUSE               CCN000000288000000288FN00000000020220501000000288NNMD0420220310154041    4N0N  00000028800001015200001181132W2    HNHNY   005400370024
BI00B32W2    HN22051WMW     202204197327-6880-30             MULTI FUSE               CCN000000288000000288FN00000000020220501000000288NNMD0420220310154101    4N0N  00000028800001012600001178532W2    HNHNY   005400370024
BI00B32W2    HN22052WMW     202204197327-6880-30             MULTI FUSE               CCN000000288000000288FN00000000020220501000000288NNMD0420220310154113    4N0N  00000028800001012600001178532W2    HNHNY   005400370024
BI00B32W2    HN22051WMW     202204197327-6884-30             MULTI FUSE               CCN000000864000000864FN00000000020220501000000864NNMD0420220310154127    4N0N  00000028800000988900001154832W2    HNHNY   005400370024
BI00B32W2    HN22052WMW     202204197327-6884-30             MULTI FUSE               CCN000000288000000288FN00000000020220501000000288NNMD0420220310154138    4N0N  00000028800000988900001154832W2    HNHNY   005400370024
BI00A32W2    #HN22051WMW    202203147287-8861                HOUSING FEMALE ASS'Y     CCN000001600000001600FN00000000020220501000001600NNMM0020220310162537    2N0N  00000160000000769000000929032W2    HNHNY   005400370024
BI00A32W2    HN2203CWMW     202203187116-4415-02             TERMINAL                 CCN000076000000076000FN00000000020220301000076000NNE   20220310153351    4P0P  00003800000000596600000925732W2    HNHNY   006400630017
BI00B32W2    HN2204CWMW     202203227327-6533-3W             BATTERY FUSE             CCN000003672000003672FN00000000020220401000003672NNE   20220310153413    4N0N  00000007200001230100001422632W2    HNHNY   005500360039
BI00B32W2    #HN2204CWMW    202203227186-8851                HOUSING MALE             CCN000009000000009000FN00000000020220401000009000NNE   20220310153410    2F0F  00000100000000782200000906232W2    HNHNY   005400370024
BI00A32W4    4500187535     202203117283-7028-30             CONNECTOR                CCN000003000000003000FN00000000020220301000003000NNED0020220310182947W4M54N0N  00000300000001452000001681332W4M5  HJYHK-J 005600390040
BI00B32W4    4500189237     202203117116-1685                TERMINAL                 CCN000024000000024000FN00000000020220301000024000NNE00020220310123555W45 4P0P  00002400000000892800001067232W45   HJYHK   005100280028
BI00A32W4    4500189775     202203147116-4100-02             TERMINAL                 CCN000045000000045000FN00000000020220401000045000NNED0020220310131525W4M54P0P  00001500000000696000000990232W4M5  HJYHK-J 006400630015
BI00A32W4    4500189788     202203147116-4101-02             TERMINAL                 CCN000036000000036000FN00000000020220501000036000NNED0020220310131516W4M54P0P  00001200000000582000000876232W4M5  HJYHK-J 006400630015
BI00B32W4    4500189790     202203117116-1685                TERMINAL                 CCN000048000000048000FN00000000020220301000048000NNE00020220310123555W45 4P0P  00002400000000892800001067232W45   HJYHK   005100280028
BI00A32W4    @4500189534    202203117282-1060                HOUSING SUB ASSEMBLY     CCN000017600000017600FN00000000020220301000017600NNE00020220310123555W4513N0N  00000160000000955500001169032W451  HJ32W9  005500360039
BI00B32W4    4500190304     202204287289-3342-90             HOUSING FEMALE ASS'Y     CCN000012000000012000FN00000000020220401000012000NNED0420220310123555W4D41N0N  00000240000000686400000901432W4D4  HJYHK-J 005500360039
BI00B32W4    4500190304     202204287289-3342-40             HOUSING FEMALE ASS'Y     CCN000002400000002400FN00000000020220401000002400NNED0420220310123555W4D41N0N  00000240000000686400000901432W4D4  HJYHK-J 005500360039
BI00A32W4    4500190627     202205097116-4100-02             TERMINAL                 CCN000060000000060000FN00000000020220501000060000NNE   20220310123555W4O24P0P  00001500000000696000000990232W4O2  HJYHK-J 006400630015
BI00A32W4    4500190627     202205097116-4112-02             TERMINAL                 CCN000012000000012000FN00000000020220501000012000NNE   20220310123555W4O24P0P  00000600000000450000000738232W4O2  HJYHK-J 006400630015
BI00A32W4    4500190627     202205097116-4102-02             TERMINAL                 CCN000072000000072000FN00000000020220501000072000NNE   20220310123555W4O24P0P  00001200000000553200000841432W4O2  HJYHK-J 006400630015
BI00A32W4    4500190627     202205097116-4025                TERMINAL                 CCN000016000000016000FN00000000020220501000016000NNE   20220310123555W4O24P0P  00001600000000644800000975132W4O2  HJYHK-J 006400630017
BI00A32W4    4500190627     202205097283-7028-30             CONNECTOR                CCN000012000000012000FN00000000020220501000012000NNE   20220310123555W4O24N0N  00000300000001452000001681332W4O2  HJYHK-J 005600390040
BI00A32W4    4500190627     202205097158-3166-60             WIRE SEAL                CCN000040000000040000FN00000000020220501000040000NNE   20220310123555W4O21C0C  00004000000000104000000152432W4O2  HJYHK-J 002700430014
BI00A32W4    4500190627     202205097158-3169-40             SEALING PLUG             CCN000040000000040000FN00000000020220501000040000NNE   20220310123555W4O21C0C  00004000000000156000000204132W4O2  HJYHK-J 004300260014
BI00A32W4    4500190627     202205097116-4101-02             TERMINAL                 CCN000012000000012000FN00000000020220501000012000NNE   20220310123555W4O24P0P  00001200000000582000000876232W4O2  HJYHK-J 006400630015
BI00A32W4    4500190627     202205097116-4110-02             TERMINAL                 CCN000027000000027000FN00000000020220501000027000NNE   20220310123555W4O24P0P  00000900000000594000000882232W4O2  HJYHK-J 006400630015
BI00A32W4    @4500190627    202205097183-8049                CONNECTOR HOUSING        CCN000008000000008000FN00000000020220501000008000NNE   20220310123555W4O23F0F  00000400000000583600000740032W4O2  HJYHK-J 005400370024
BI00A32W4    4500190636     202205267158-3167-80             WIRE SEAL                CCN000040000000040000FN00000000020220501000040000NNE   20220310123555W4761C0C  00002000000000048000000109032W476  HJYHK-J 002700430014
BI00A32W4    4500190636     202205267158-3169-40             SEALING PLUG             CCN000040000000040000FN00000000020220501000040000NNE   20220310123555W4761C0C  00004000000000156000000204132W476  HJYHK-J 004300260014
BI00B32W4    4500190650     202205127283-5623-60             CONNECTOR                CCN000001600000001600FN00000000020220501000001600NNE   20220310123555W4461N0N  00000160000001546000001846332W446  HJYHK   005600390040
BI00B32W4    4500190650     202205127116-4100-02             TERMINAL                 CCN000180000000180000FN00000000020220501000180000NNE   20220310123555W4464P0P  00001500000000696000000990232W446  HJYHK   006400630015
BI00B32W4    4500190650     202205127114-4112-02             TERMINAL                 CCN000090000000090000FN00000000020220501000090000NNE   20220310123555W4464P0P  00000900000000598500000927132W446  HJYHK   006400630017
BI00B32W4    4500190650     202205127116-4112-02             TERMINAL                 CCN000108000000108000FN00000000020220501000108000NNE   20220310123555W4464P0P  00000600000000450000000738232W446  HJYHK   006400630015
BI00B32W4    4500190650     202205127116-4102-02             TERMINAL                 CCN000228000000228000FN00000000020220501000228000NNE   20220310123555W4464P0P  00001200000000553200000841432W446  HJYHK   006400630015
BI00B32W4    4500190650     202205127116-4025                TERMINAL                 CCN000016000000016000FN00000000020220501000016000NNE   20220310123555W4464P0P  00001600000000644800000975132W446  HJYHK   006400630017
BI00B32W4    4500190650     202205127114-4100-02             TERMINAL                 CCN000036000000036000FN00000000020220501000036000NNE   20220310123555W4464P0P  00001800000000748800001077432W446  HJYHK   006400630017
BI00B32W4    4500190650     202205127158-3168-80             SEALED                   CCN000060000000060000FN00000000020220501000060000NNE   20220310123555W4461C0C  00002000000000044000000092132W446  HJYHK   004300260014
BI00B32W4    4500190650     202205127283-6448-40             CONNECTOR                CCN000004500000004500FN00000000020220501000004500NNE   20220310123555W4464N0N  00000150000001087000001329032W446  HJYHK   005600390040
BI00B32W4    4500190650     202205127158-3166-60             WIRE SEAL                CCN000120000000120000FN00000000020220501000120000NNE   20220310123555W4461C0C  00004000000000104000000152432W446  HJYHK   002700430014
BI00B32W4    4500190650     202205127158-3167-80             WIRE SEAL                CCN000120000000120000FN00000000020220501000120000NNE   20220310123555W4461C0C  00002000000000048000000109032W446  HJYHK   002700430014
BI00B32W4    4500190650     202205127116-4101-02             TERMINAL                 CCN000168000000168000FN00000000020220501000168000NNE   20220310123555W4464P0P  00001200000000582000000876232W446  HJYHK   006400630015
BI00B32W4    4500190650     202205127114-4101-02             TERMINAL                 CCN000015000000015000FN00000000020220501000015000NNE   20220310123555W4464P0P  00001500000000675000001003632W446  HJYHK   006400630017
BI00B32W4    4500190650     202205127158-3169-40             SEALING PLUG             CCN000040000000040000FN00000000020220501000040000NNE   20220310123555W4461C0C  00004000000000156000000204132W446  HJYHK   004300260014
BI00B32W4    4500190650     202205127116-4104-02             TERMINAL                 CCN000036000000036000FN00000000020220501000036000NNE   20220310123555W4464P0P  00001200000000580800000972432W446  HJYHK   006400630015
BI00B32W4    4500190650     202205127114-4110-02             TERMINAL                 CCN000030000000030000FN00000000020220501000030000NNE   20220310123555W4464P0P  00001500000000901500001230132W446  HJYHK   006400630017
BI00B32W4    4500190650     202205127116-4103-02             TERMINAL                 CCN000024000000024000FN00000000020220501000024000NNE   20220310123555W4464P0P  00001200000000571200000859432W446  HJYHK   006400630015
BI00B32W4    #4500190650    202205127158-3003-90             RUBBER STOPPER           CCN000020000000020000FN00000000020220501000020000NNE   20220310123555W4462C0C  00002000000000250000000306032W446  HJYHK   002700430014
BI00B32W4    #4500190650    202205127282-3243-40             CONNECTOR                CCN000000800000000800FN00000000020220501000000800NNE   20220310123555W4462N0N  00000080000001006000001282332W446  HJYHK   005600390040
BI00B32W4    #4500190650    202205127283-8123-40             CONNECTOR HOUSING        CCN000004000000004000FN00000000020220501000004000NNE   20220310123555W4462N0N  00000400000000380000000530032W446  HJYHK   005600390023
BI00B32W4    #4500190650    202205127047-5344                RETAINER                 CCN000010000000010000FN00000000020220501000010000NNE   20220310123555W4462F0F  00001000000000870000001016032W446  HJYHK   005600390023
BI00B32W4    4500190668     202205127283-5548-30             CONNECTOR                CCN000004500000004500FN00000000020220501000004500NNE   20220310123555W4664N0N  00000150000001109000001302032W466  HJYHK   005600390040
BI00B32W4    4500190668     202205127116-4101-02             TERMINAL                 CCN000144000000144000FN00000000020220501000144000NNE   20220310123555W4664P0P  00001200000000582000000876232W466  HJYHK   006400630015
BI00B32W4    4500190668     202205127114-4101-02             TERMINAL                 CCN000120000000120000FN00000000020220501000120000NNE   20220310123555W4664P0P  00001500000000675000001003632W466  HJYHK   006400630017
BI00B32W4    4500190668     202205127116-4104-02             TERMINAL                 CCN000132000000132000FN00000000020220501000132000NNE   20220310123555W4664P0P  00001200000000580800000972432W466  HJYHK   006400630015
BI00B32W4    4500190668     202205127114-4110-02             TERMINAL                 CCN000090000000090000FN00000000020220501000090000NNE   20220310123555W4664P0P  00001500000000901500001230132W466  HJYHK   006400630017
BI00B32W4    4500190668     202205127116-4110-02             TERMINAL                 CCN000063000000063000FN00000000020220501000063000NNE   20220310123555W4664P0P  00000900000000594000000882232W466  HJYHK   006400630015
BI00B32W4    4500190668     202205127116-4103-02             TERMINAL                 CCN000012000000012000FN00000000020220501000012000NNE   20220310123555W4664P0P  00001200000000571200000859432W466  HJYHK   006400630015
BI00B32W4    4500190670     202205127116-4100-02             TERMINAL                 CCN000480000000480000FN00000000020220501000480000NNE   20220310123555W4664P0P  00001500000000696000000990232W466  HJYHK   006400630015
BI00B32W4    4500190670     202205127114-4112-02             TERMINAL                 CCN000018000000018000FN00000000020220501000018000NNE   20220310123555W4664P0P  00000900000000598500000927132W466  HJYHK   006400630017
BI00B32W4    4500190670     202205127116-4111-02             TERMINAL                 CCN000060000000060000FN00000000020220501000060000NNE   20220310123555W4664P0P  00000750000000529500000817732W466  HJYHK   006400630015
BI00B32W4    4500190670     202205127116-4112-02             TERMINAL                 CCN000096000000096000FN00000000020220501000096000NNE   20220310123555W4664P0P  00000600000000450000000738232W466  HJYHK   006400630015
BI00B32W4    4500190670     202205127116-4102-02             TERMINAL                 CCN000228000000228000FN00000000020220501000228000NNE   20220310123555W4664P0P  00001200000000553200000841432W466  HJYHK   006400630015
BI00B32W4    4500190670     202205127116-4025                TERMINAL                 CCN000016000000016000FN00000000020220501000016000NNE   20220310123555W4664P0P  00001600000000644800000975132W466  HJYHK   006400630017
BI00B32W4    4500190670     202205127114-4100-02             TERMINAL                 CCN000432000000432000FN00000000020220501000432000NNE   20220310123555W4664P0P  00001800000000748800001077432W466  HJYHK   006400630017
BI00B32W4    4500190670     202205127116-5045-02             TERMINAL                 CCN000016000000016000FN00000000020220501000016000NNE   20220310123555W4664P0P  00001600000000678400001007132W466  HJYHK   006400630017
BI00B32W4    4500190670     202205127114-4111-02             TERMINAL                 CCN000048000000048000FN00000000020220501000048000NNE   20220310123555W4664P0P  00001200000000758400001087032W466  HJYHK   006400630017
BI00B32W4    #4500190670    202205127282-4190-30             CONNECTOR                CCN000007440000007440FN00000000020220501000007440NNE   20220310123555W4662N0N  00000024000000801000001071332W466  HJYHK   005600390040
BI00B32W4    #4500190670    202205127283-4190-30             CONNECTOR                CCN000007920000007920FN00000000020220501000007920NNE   20220310123555W4662N0N  00000024000000846000001115532W466  HJYHK   005600390040
BI00B32W4    #4500190670    202205127158-3003-90             RUBBER STOPPER           CCN000020000000020000FN00000000020220501000020000NNE   20220310123555W4662C0C  00002000000000250000000306032W466  HJYHK   002700430014
BI00A32W4    4500190673     202204257114-4100-02             TERMINAL                 CCN000018000000018000FN00000000020220401000018000NNE   20220310123555W4194P0P  00001800000000748800001077432W419  HJYHK   006400630017
BI00A32W4    4500190674     202205027116-4100-02             TERMINAL                 CCN000015000000015000FN00000000020220501000015000NNE   20220310123555W4194P0P  00001500000000696000000990232W419  HJYHK   006400630015
BI00A32W4    4500190674     202205027116-4102-02             TERMINAL                 CCN000012000000012000FN00000000020220501000012000NNE   20220310123555W4194P0P  00001200000000553200000841432W419  HJYHK   006400630015
BI00A32W4    4500190681     202205097116-4100-02             TERMINAL                 CCN000015000000015000FN00000000020220501000015000NNE   20220310123555W4194P0P  00001500000000696000000990232W419  HJYHK   006400630015
BI00A32W4    4500190681     202205097116-4026                TERMINAL                 CCN000016000000016000FN00000000020220501000016000NNE   20220310123555W4194P0P  00001600000000664000000994332W419  HJYHK   006400630017
BI00A32W4    4500190681     202205097116-4101-02             TERMINAL                 CCN000012000000012000FN00000000020220501000012000NNE   20220310123555W4194P0P  00001200000000582000000876232W419  HJYHK   006400630015
BI00A32W4    4500190681     202205097114-4110-02             TERMINAL                 CCN000015000000015000FN00000000020220501000015000NNE   20220310123555W4194P0P  00001500000000901500001230132W419  HJYHK   006400630017
BI00A32W4    @4500190681    202205097183-8049                CONNECTOR HOUSING        CCN000004000000004000FN00000000020220501000004000NNE   20220310123555W4193F0F  00000400000000583600000740032W419  HJYHK   005400370024
BI00A32W4    4500190693     202204077116-4231-02             TERMINAL                 CCN000130000000130000FN00000000020220401000130000NNE   20220310123555W4334P0P  00002600000000683800001012532W433  HJYHK   006400630017
BI00A32W4    4500190693     202204077116-4102-02             TERMINAL                 CCN000012000000012000FN00000000020220401000012000NNE   20220310123555W4334P0P  00001200000000553200000841432W433  HJYHK   006400630015
BI00A32W4    4500190693     202204077116-4112-02             TERMINAL                 CCN000012000000012000FN00000000020220401000012000NNE   20220310123555W4334P0P  00000600000000450000000738232W433  HJYHK   006400630015
BI00A32W4    4500190693     202204077114-4100-02             TERMINAL                 CCN000036000000036000FN00000000020220401000036000NNE   20220310123555W4334P0P  00001800000000748800001077432W433  HJYHK   006400630017
BI00B32W4    4500190700     202206027288-9556-30             SEALED ASSY MALE         CCN000018720000018720FN00000000020220601000018720NNE   20220310123555W4O14N0N  00000072000000537900000786332W4O1  HJYHK-J 005500360039
BI00B32W4    4500190701     202206307288-9556-30             SEALED ASSY MALE         CCN000101520000101520FN00000000020220601000101520NNE   20220310123555W4O14N0N  00000072000000537900000786332W4O1  HJYHK-J 005500360039
BI00B32W4    4500190703     202207287288-9556-30             SEALED ASSY MALE         CCN000059040000059040FN00000000020220701000059040NNE   20220310123555W4O14N0N  00000072000000537900000786332W4O1  HJYHK-J 005500360039
BI00B32W4    4500190704     202208257288-9556-30             SEALED ASSY MALE         CCN000109440000109440FN00000000020220801000109440NNE   20220310123555W4O14N0N  00000072000000537900000786332W4O1  HJYHK-J 005500360039
BI00A32W4    4500190711     202204217114-4112-02             TERMINAL                 CCN000036000000036000FN00000000020220401000036000NNE   20220310123555W4524P0P  00000900000000598500000927132W452  HJYHK   006400630017
BI00B32W4    4500190712     202204287283-1020                CONNECTOR                CCN000006000000006000FN00000000020220401000006000NNE   20220310123555W4654N0N  00000600000000840000001049332W465  HJYHK   005600390040
BI00B32W4    #4500190713    202205197289-4104-40             HOUSING FEMALE ASS'Y     CCN000020000000020000FN00000000020220501000020000NNE   20220310123555W4652NON  00000050000000606900000821132W465  HJYHK   005400370024
BI00B32W4    #4500190729    202204057157-7811-80             SEAL RUBBER              CCN000010000000010000FN00000000020220401000010000NNE   20220310123555W42 2C0C  00001000000000105000000182732W42   HJYHK   002700430014
BI00B32W4    #4500190729    202204057157-7812                SEAL RUBBER              CCN000040000000040000FN00000000020220401000040000NNE   20220310123555W42 2C0C  00001000000000137000000202032W42   HJYHK   002700430014
BI00B32W6    #SW2202BQMW    202203167172-5629-80             RUBBER STOPPER           CCN000200000000200000FN00000000020220201000200000NNE00020220310123555    2H0H  00002000000000060000000111132W6    SYSYA-WJ004300270014
BI00B32W6    #SW22042QMW    202203167172-5629-80             RUBBER STOPPER           CCN000280000000280000FN00000000020220401000280000NNM00020220310123555    2H0H  00002000000000060000000111132W6    SYSYA-WJ004300270014
BI00B32W6    SW22052QMW     202204207288-6547                CONNECTOR MALE ASS'Y     CCN000009750000009750FN00000000020220501000009750NNMD0420220310123555    4N0N  00000075000001205300001340332W6    SYSYA-WJ005400370024
BI00B32W6    SW22053QMW     202204277288-6547                CONNECTOR MALE ASS'Y     CCN000006750000006750FN00000000020220501000006750NNMD0420220310123555    4N0N  00000075000001205300001340332W6    SYSYA-WJ005400370024
BI00B32W6    SW22054QMW     202205047288-6547                CONNECTOR MALE ASS'Y     CCN000006000000006000FN00000000020220501000006000NNMD0420220310123555    4N0N  00000075000001205300001340332W6    SYSYA-WJ005400370024
BI00B32W6    SW22053QMW     202204277289-3342                HOUSING FEMALE ASS'Y     CCN000019200000019200FN00000000020220501000019200NNMD0420220310123555    1N0N  00000240000000686400000901432W6    SYSYA-WJ005500360039
BI00B32W6    SW22054QMW     202205047289-3342                HOUSING FEMALE ASS'Y     CCN000014400000014400FN00000000020220501000014400NNMD0420220310123555    1N0N  00000240000000686400000901432W6    SYSYA-WJ005500360039
BI00B32W6    SW22051QMW     202204067289-3342-30             HOUSING FEMALE ASS'Y     CCN000014400000014400FN00000000020220501000014400NNMD0420220310123555    1N0N  00000240000000686400000901432W6    SYSYA-WJ005500360039
BI00B32W6    SW22052QMW     202204207289-3342-30             HOUSING FEMALE ASS'Y     CCN000002400000002400FN00000000020220501000002400NNMD0420220310123555    1N0N  00000240000000686400000901432W6    SYSYA-WJ005500360039
BI00B32W6    SW22053QMW     202204277289-3342-30             HOUSING FEMALE ASS'Y     CCN000016800000016800FN00000000020220501000016800NNMD0420220310123555    1N0N  00000240000000686400000901432W6    SYSYA-WJ005500360039
BI00B32W6    SW22054QMW     202205047289-3342-30             HOUSING FEMALE ASS'Y     CCN000016800000016800FN00000000020220501000016800NNMD0420220310123555    1N0N  00000240000000686400000901432W6    SYSYA-WJ005500360039
BI00B32W6    SW22051QMW     202204067289-3342-90             HOUSING FEMALE ASS'Y     CCN000009600000009600FN00000000020220501000009600NNMD0420220310123555    1N0N  00000240000000686400000901432W6    SYSYA-WJ005500360039
BI00B32W6    SW22052QMW     202204207289-3342-90             HOUSING FEMALE ASS'Y     CCN000002400000002400FN00000000020220501000002400NNMD0420220310123555    1N0N  00000240000000686400000901432W6    SYSYA-WJ005500360039
BI00B32W6    SW22053QMW     202204277289-3342-90             HOUSING FEMALE ASS'Y     CCN000009600000009600FN00000000020220501000009600NNMD0420220310123555    1N0N  00000240000000686400000901432W6    SYSYA-WJ005500360039
BI00B32W6    SW22054QMW     202205047289-3342-90             HOUSING FEMALE ASS'Y     CCN000007200000007200FN00000000020220501000007200NNMD0420220310123555    1N0N  00000240000000686400000901432W6    SYSYA-WJ005500360039
BI00B32W6    SW22054QMW     202205047327-6874-30             MULTI FUSE               CCN000002592000002592FN00000000020220501000002592NNMD0420220310154203    4N0N  00000028800000991400001157332W6    SYSYA-WJ005400370024
BI00B32W6    SW22054QMW     202205047327-6884-30             MULTI FUSE               CCN000002880000002880FN00000000020220501000002880NNMD0420220310154220    4N0N  00000028800000988900001154832W6    SYSYA-WJ005400370024
BI00B32W7    SC22051JMW     202204207C89-6868-30             SEALED ASSY FEMALE       CCN000015120000015120FN00000000020220501000015120NNMD0420220310154241    4N0N  00000252000000839200001119232W7    SYSYA-CH005500360039
BI00B32W7    SC22052JMW     202204207C89-6868-30             SEALED ASSY FEMALE       CCN000015120000015120FN00000000020220501000015120NNMD0420220310154256    4N0N  00000252000000839200001119232W7    SYSYA-CH005500360039
BI00B32W7    SC22053JMW     202205047C89-6868-30             SEALED ASSY FEMALE       CCN000020160000020160FN00000000020220501000020160NNMD0420220310154311    4N0N  00000252000000839200001119232W7    SYSYA-CH005500360039
BI00B32W7    SC22054JMW     202205117C89-6868-30             SEALED ASSY FEMALE       CCN000015120000015120FN00000000020220501000015120NNMD0420220310154326    4N0N  00000252000000839200001119232W7    SYSYA-CH005500360039
BI00B32W9    #4500190634    202205037157-3950-80             SEAL RUBBER              CCN000040000000040000FN00000000020220501000040000NNE   20220310123555W9  2C0C  00004000000000154000000440332W9    HKYHK   002700430014
BI00B32W9    4500190645     202204057116-4102-02             TERMINAL                 CCN000024000000024000FN00000000020220401000024000NNE   20220310123555W9  4P0P  00001200000000553200000841432W9    HKYHK   006400630015
BI00B32W9    #4500190647    202204057186-8845                HOUSING MALE             CCN000003000000003000FN00000000020220401000003000NNE   20220310123555W9  2F0F  00000300000000690000000801532W9    HKYHK   005400370024
BI00B32W9    4500190725     202205037287-7975-4W             SQUIB SUB ASS'Y          CCN000020000000020000FN00000000020220501000020000NNE   20220310123555W9  4N0N  00001000000000837000001017032W9    HKYHK   005400370024
BI00B32W9    4500190726     202205247287-7975-4W             SQUIB SUB ASS'Y          CCN000020000000020000FN00000000020220501000020000NNE   20220310123555W9  4N0N  00001000000000837000001017032W9    HKYHK   005400370024
BI00B32W9    4500190726     202205247158-3022-80             RUBBER STOPPER           CCN000010000000010000FN00000000020220501000010000NNE   20220310123555W9  1C0C  00000500000000467500000524032W9    HKYHK   002700430014
BI00B32W9    4500190730     202204197298-7215-10             SEALED ASSY FEMALE       CCN000010920000010920FN00000000020220401000010920NNE   20220310123555W9  4N0N  00000218400000983000001291532W9    HKYHK   005500360039
BI00A32X5    TIB1046        202203117289-3342-30             HOUSING FEMALE ASS'Y     PCN000048000000048000FN00000000020220101000048000NNM00020220310123555X5  1N0N  00000240000000686400000901432X5    EPYNA-E 005500360039
BI00B32Y2    TAU1171        202203127289-3342-30             HOUSING FEMALE ASS'Y     CCN000098400000024000FN00000000020220601000024000NNM00020220310162053    1N0N  00000240000000686400000901432Y2    YUYUY   005500360039
BI00B32Y6    STAP32071      202203227116-1685-02             TERMINAL                 CCN000336000000336000FN00000000020220701000336000NNMD0020220310123555    4P0P  00002400000000897600001065232Y6    BSYBL-S 005100280028
BI00B32Y6    STAP32071      202203227116-1686-02             TERMINAL                 CCN000084000000084000FN00000000020220701000084000NNMD0020220310123555    4P0P  00002100000000869400001021632Y6    BSYBL-S 005100280028
BI00B32Y6    STAP32071      202203227116-5044-02             TERMINAL                 CCN000836000000848000FN00000000020220701000848000NNMD0020220310123555    4P0P  00001600000000641600000986332Y6    BSYBL-S 006400630017
