BI00B32DE    TT2044         20220317180D0203750              AVSSH 0.3F R             CCN000002000000002000FN00000000020220401000002000NNM22 20220310091751    1W    00000200000000515000000000032DE    TVYEV-TV000000000000VT323026
BI00B32DE    TT2043         20220317180D0203757              AVSSH 0.3F R/Y           CCN000002000000002000FN00000000020220401000002000NNM22 20220310091441    1W    00000200000000515000000000032DE    TVYEV-TV000000000000VT223031
BI00B32DE    TT2043         20220317180D0204195              AVSSH 1.25F L/R          CCN000000800000000800FN00000000020220401000000800NNM22 20220310091502    1W    00000080000001458000000000032DE    TVYEV-TV000000000000VT223048
BI00B32DE    TT2043         20220317180D0204159              AVSSH 1.25F R/L          CCN000000800000000800FN00000000020220401000000800NNM22 20220310091527    1W    00000080000001458000000000032DE    TVYEV-TV000000000000VT223050
BI00B32DE    @TT2043        20220317181F21015ZZ              AVSSHCS-S 0.5FX2 B/P     CCN000000900000000900FN00000000020220401000000900NNM22 20220310091605    1W    00000030000002531400000000032DE    TVYEV-TV000000000000VT223009
BI00B32DE    TT2051         20220317180D0203739              AVSSH 0.3F B/L           CCN000002000000002000FN00000000020220501000002000NNM21 20220310092019    1W    00000200000000515000000000032DE    TVYEV-TV000000000000VT423021
BI00B32DE    TT2053         20220317180D0203735              AVSSH 0.3F B/R           CCN000002000000002000FN00000000020220501000002000NNM21 20220310092723    1W    00000200000000515000000000032DE    TVYEV-TV000000000000VT224037
BI00B32DE    TT2053         20220317180D0203780              AVSSH 0.3F BR            CCN000002000000002000FN00000000020220501000002000NNM21 20220310092744    1W    00000200000000515000000000032DE    TVYEV-TV000000000000VT224038
BI00B32DE    TT2053         20220317180D0203752              AVSSH 0.3F P             CCN000002000000002000FN00000000020220501000002000NNM21 20220310092759    1W    00000200000000515000000000032DE    TVYEV-TV000000000000VT224041
BI00B32DE    TT2051         20220324180D0204195              AVSSH 1.25F L/R          CCN000000800000000800FN00000000020220501000000800NNM22 20220310092042    1W    00000080000001458000000000032DE    TVYEV-TV000000000000VT423043
BI00B32DE    TT2051         20220324180D0204159              AVSSH 1.25F R/L          CCN000000800000000800FN00000000020220501000000800NNM22 20220310092058    1W    00000080000001458000000000032DE    TVYEV-TV000000000000VT423046
BI00B32DE    TT2052         20220331180D0204159              AVSSH 1.25F R/L          CCN000000800000000800FN00000000020220501000000800NNM22 20220310092554    1W    00000080000001458000000000032DE    TVYEV-TV000000000000VT124063
BI00B32DE    TT2054         20220421180D0204159              AVSSH 1.25F R/L          CCN000000800000000800FN00000000020220501000000800NNM22 20220310133643    1W    00000080000001458000000000032DE    TVYEV-TV000000000000VT324081
BI00B32DE    TT2051         20220324180D0204143              AVSSH 1.25F W/B          CCN000057600000057600FN00000000020220501000057600NNM22 20220310092215    1W    00000080000001458000000000032DE    TVYEV-TV000000000000VT423047
BI00B32DE    TT2052         20220331180D0204143              AVSSH 1.25F W/B          CCN000025600000025600FN00000000020220501000025600NNM22 20220310092554    1W    00000080000001458000000000032DE    TVYEV-TV000000000000VT124065
BI00B32DE    TT2054         20220331180D0204143              AVSSH 1.25F W/B          CCN000023200000023200FN00000000020220501000023200NNM21 20220310093031    1W    00000080000001458000000000032DE    TVYEV-TV000000000000VT324083
BI00B32DE    @TT2052        20220331181F21015ZZ              AVSSHCS-S 0.5FX2 B/P     CCN000000600000000600FN00000000020220501000000600NNM21 20220310092450    1W    00000030000002531400000000032DE    TVYEV-TV000000000000VT124026
BI00B32H0    TT2204DVMW     20220322180D0203980              AVSSH 0.5F BR            CCN000004500000004500FN00000000020220401000004500NNE20 20220310162642    1W    00000150000000689000000000032H0    TTTJY   000000000000NL323005
BI00B32H0    TT2204DVMW     20220322180D0203950              AVSSH 0.5F R             CCN000030000000030000FN00000000020220401000030000NNE20 20220310162642    1W    00000150000000689000000000032H0    TTTJY   000000000000NL323006
BI00B32H0    TT2204DVMW     20220322180D0203992              AVSSH 0.5F V             CCN000003000000003000FN00000000020220401000003000NNE20 20220310162642    1W    00000150000000689000000000032H0    TTTJY   000000000000NL323007
BI00B32H0    TT2204DVMW     20220322180D0204130              AVSSH 1.25F B            CCN000000800000000800FN00000000020220401000000800NNE20 20220310162642    1W    00000080000001458000000000032H0    TTTJY   000000000000NL323008
BI00B32H0    TT2204DVMW     20220322180D0204160              AVSSH 1.25F G            CCN000001600000001600FN00000000020220401000001600NNE20 20220310162642    1W    00000080000001458000000000032H0    TTTJY   000000000000NL323009
BI00B32H0    TT2204DVMW     20220322180D0204190              AVSSH 1.25F L            CCN000001600000001600FN00000000020220401000001600NNE20 20220310162642    1W    00000080000001458000000000032H0    TTTJY   000000000000NL323010
BI00B32H0    TT2204DVMW     20220322180D0204192              AVSSH 1.25F V            CCN000000800000000800FN00000000020220401000000800NNE20 20220310162642    1W    00000080000001458000000000032H0    TTTJY   000000000000NL323011
BI00B32H0    TT2204DVMW     20220322180D0204140              AVSSH 1.25F W            CCN000002400000002400FN00000000020220401000002400NNE20 20220310162642    1W    00000080000001458000000000032H0    TTTJY   000000000000NL323012
BI00B32H0    TT2204DVMW     20220322180D0204143              AVSSH 1.25F W/B          CCN000000800000000800FN00000000020220401000000800NNE20 20220310162642    1W    00000080000001458000000000032H0    TTTJY   000000000000NL323013
BI00B32H0    TT2205AVMW     2022032218007703790              AVSS 0.3F L              CCN000030000000030000FN00000000020220501000030000NNE20 20220310163206    1W    00000200000000496000000000032H0    TTTJY   000000000000NN323001
BI00A32M1    @TV203E        20220311181B32117S1              AVSSCS 0.3FX3 DGY        CCN000000250000000250FN00000000020220301000000250NNE   20220310155000    1W    00000025000003023200000000032M1    VNYEV   000000000000VN422001
