BI00A1200    7360T51816     202112237288-3329-30             HOUSING MALE             CCN000036000000001500FN00000000020210901000001500NNED0420211214171234    4N0N  0000015000000086610000101111200    YCYC    005400370024
BI00A1200    7360T51816     202201067288-3329-30             HOUSING MALE             CCN000004500000004500FN00000000020210901000004500NNED0420211214171234    4N0N  0000015000000086610000101111200    YCYC    005400370024
BI00A1200    7360T51816     202201137288-3329-30             HOUSING MALE             CCN000004500000004500FN00000000020210901000004500NNED0420211214171234    4N0N  0000015000000086610000101111200    YCYC    005400370024
BI00A1200    7360T51816     202201207288-3329-30             HOUSING MALE             CCN000004500000004500FN00000000020210901000004500NNED0420211214171234    4N0N  0000015000000086610000101111200    YCYC    005400370024
BI00A1200    7360T51816     202201277288-3329-30             HOUSING MALE             CCN000004500000004500FN00000000020210901000004500NNED0420211214171311    4N0N  0000015000000086610000101111200    YCYC    005400370024
BI00A1200    7360T51816     202202037288-3329-30             HOUSING MALE             CCN000004500000004500FN00000000020210901000004500NNED0420211214171234    4N0N  0000015000000086610000101111200    YCYC    005400370024
BI00A1200    7360T51816     202202107288-3329-30             HOUSING MALE             CCN000004500000004500FN00000000020210901000004500NNED0420211214171234    4N0N  0000015000000086610000101111200    YCYC    005400370024
BI00A1200    7360T51816     202202177288-3329-30             HOUSING MALE             CCN000004500000004500FN00000000020210901000004500NNED0420211214171234    4N0N  0000015000000086610000101111200    YCYC    005400370024
BI00A1200    7360T51816     202202247288-3329-30             HOUSING MALE             CCN000004500000003000FN00000000020210901000003000NNED0420211214171234    4N0N  0000015000000086610000101111200    YCYC    005400370024
BI00A1200    #2399T51920    202112157289-4200-30             HOUSING FEMALE ASS'Y     PCN000082000000082000FN00000000020211101000082000NNM00 20211214161146    2N0N  0000020000000092600000102101200    YCYC    005400370024
BI00B1200    8100T51B03     202112097289-9553-30             SEALED ASSY FEMALE       CCN000002940000002940FY00000294020220101000000000NNM00020211214131806    4N0N  0000029400000110900000152151200    YCYC    005500360039
BI00B1200    2399T51B18     202112097289-9553-30             SEALED ASSY FEMALE       CCN000005880000005880FY00000588020220101000000000NNM00020211214131835    4N0N  0000029400000110900000152151200    YCYC    005500360039
BI00A1200    2399T51C27     202112037289-3342-30             HOUSING FEMALE ASS'Y     CCN000007200000007200FY00000720020211201000000000NNED0420211214141616    1N0N  0000024000000068640000090141200    YCYC    005500360039
BI00A1200    2399T51B20     202112157289-9612-30             HOUSING FEMALE ASS'Y     CCN000001920000001920FN00000000020220101000001920NNMQ0020211214133938    4N0N  0000002400000134880000166881200    YCYC    005500360039
BI00B1200    7504T51C01     202202037154-7140-30             LOWER COVER              CCN000004200000004200FN00000000020220301000004200NNM   20211214150135    4F0F  0000000600000019900000041001200    YCYC    005600390040
BI00B1200    7504T51C01     202202037254-5840-30             ENG R/B SUB ASS'Y        CCN000004200000004200FN00000000020220301000004200NNM   20211214150135    4J0J  0000000240000073200000095201200    YCYC    005600390040
BI00B1200    #H322C50025    202202177174-1760-50             CAP                      CCN000003000000003000FN00000000020220301000003000NNE   20211214150200    2F0F  0000030000000081360000092261200    YCYC    005400370024
BI00B1200    #Y022C50037    202202177154-5597-30             CASSETTE R/B             CCN000003200000003200FN00000000020220301000003200NNE   20211214150220    2F0F  0000008000000073600000095201200    YCYC    005500360039
BI00B1200    #Y022C50038    202202177289-2912-40             HOUSING FEMALE ASS'Y     CCN000002000000002000FN00000000020220301000002000NNE   20211214150240    2N0N  0000020000000080400000093101200    YCYC    005400370024
BI00B1200    CE21-MN-0157   202201067196-2024-02             TERMINAL FEMALE          CCN000024000000024000FN00000000020201201000024000NNE   20211214152341    4P0P  0000240000000000000000000001200    YCYC    000000000000
BI00B1200    CE21-MN-0157   202201067196-2027-02             TERMINAL FEMALE          CCN000024000000024000FN00000000020201201000024000NNE   20211214152341    4P0P  0000240000000000000000000001200    YCYC    000000000000
BI00B1200    CE21-MN-0157   202201067196-2030-02             TERMINAL FEMALE          CCN000015000000015000FN00000000020201201000015000NNE   20211214152341    4P0P  0000150000000000000000000001200    YCYC    000000000000
BI00B1200    CE21-MN-0157   202201067196-2032-02             TERMINAL FEMALE          CCN000015000000015000FN00000000020201201000015000NNE   20211214152341    4P0P  0000150000000000000000000001200    YCYC    000000000000
BI00B1200    #76013         202201067172-5629-80             RUBBER STOPPER           CCN000020000000020000FN00000000020220101000020000NNE   20211214155109    2H0H  0000200000000006000000011111200    YCYC    004300270014
BI00B32AF    #JTB2011       202112207282-5528-70             HOUSING MALE ASS'Y       CCN000015000000015000FN00000000020220101000015000NNM00020211214121448    2N0N  00000100000000230000000339032AF    HBYHVTB 005400370024
BI00B32AF    JTB2021        202201077283-4855                CONNECTOR HOUSING        CCN000009600000009600FN00000000020220201000009600NNMD0420211214121448    4N0N  00000240000001188400001400032AF    HBYHVTB 005500360039
BI00B32AF    JTB2023        202201217283-4855                CONNECTOR HOUSING        CCN000002400000002400FN00000000020220201000002400NNMD0420211214121448    4N0N  00000240000001188400001400032AF    HBYHVTB 005500360039
BI00B32AF    JTB2024        202201287283-4855                CONNECTOR HOUSING        CCN000002400000002400FN00000000020220201000002400NNMD0420211214121448    4N0N  00000240000001188400001400032AF    HBYHVTB 005500360039
BI00B32AF    JTB2023        202201217289-3342-30             HOUSING FEMALE ASS'Y     CCN000048000000048000FN00000000020220201000048000NNMD0420211214121448    1N0N  00000240000000686400000901432AF    HBYHVTB 005500360039
BI00B32AF    JTB2024        202201287289-3342-30             HOUSING FEMALE ASS'Y     CCN000055200000055200FN00000000020220201000055200NNMD0420211214121448    1N0N  00000240000000686400000901432AF    HBYHVTB 005500360039
BI00B32AF    JTB2025        202202047289-3342-30             HOUSING FEMALE ASS'Y     CCN000048000000048000FN00000000020220201000048000NNMD0420211214121448    1N0N  00000240000000686400000901432AF    HBYHVTB 005500360039
BI00B32AF    @JTB202A-I     202202107282-1060                HOUSING SUB ASSEMBLY     CCN000011200000011200FN00000000020220201000011200NNE   20211214121448    3N0N  00000160000000955500001169032AF    HBYHVTB 005500360039
BI00B32AG    XG2202CNMW     202201077126-8853-02             TERMINAL                 CCN000015000000015000FN00000000020220201000015000NNE   20211214121448    4P0P  00000750000000562500000847732AG    XGXGY   006400630015
BI00B32AG    XG2202CCMW     202201147C89-6868-30             SEALED ASSY FEMALE       CCN000005040000005040FN00000000020220201000005040NNE   20211214121448    4N0N  00000252000000839200001119232AG    XGXGY   005500360039
BI00B32AG    XG2202CCMW     202201147172-5540-80             SEALED WIRE SEAL         CCN000020000000020000FN00000000020220201000020000NNE   20211214121448    1C0C  00002000000000186000000234432AG    XGXGY   004300270014
BI00B32AG    XG2202CCMW     202201147298-3822-70             HOUSING FEMALE ASS'Y     CCN000007560000007560FN00000000020220201000007560NNE   20211214121448    4N0N  00000252000000776200001077032AG    XGXGY   005500360039
BI00B32AG    XG2202CCMW     202201147327-6832-60             MAIN FUSE                CCN000001200000001200FN00000000020220201000001200NNE   20211214121448    4N0N  00000060000000729200000930732AG    XGXGY   005400370024
BI00B32AG    XG2202CCMW     202201147388-0316-80             CONNECTOR ASS'Y          CCN000003600000003600FN00000000020220201000003600NNE   20211214121448    4N0N  00000120000001002500001132532AG    XGXGY   005400370024
BI00B32AG    XG2202CLMW     202201077289-4696-30             HOUSING FEMALE ASS'Y     CCN000006000000006000FN00000000020220201000006000NNE   20211214121448    4N0N  00000200000000913400001055432AG    XGXGY   005400370024
BI00B32AG    XG2202CLMW     202201077289-7615-30             HOUSING FEMALE ASS'Y     CCN000001280000001280FN00000000020220201000001280NNE   20211214121448    4N0N  00000032000000738000000948032AG    XGXGY   005400370024
BI00A32A7    ZZ22011BMW     202201047172-5403-30             SEALED PACKING           PCN000052000000052000FN00000000020220101000052000NNMD0420211214121448    1C0C  00000400000000653600000701732A7    ZZZZY   004300270014
BI00B32A7    ZZ2201DLMW     202112227123-1508                CONNECTOR                CCN000014000000014000FN00000000020220101000014000NNE   20211214150513    1F0F  00000100000000933000001174032A7    ZZZZY   005600390040
BI00B32A7    ZZ2202ALMW     202201127123-1508                CONNECTOR                CCN000015000000015000FN00000000020220201000015000NNE   20211214150520    1F0F  00000100000000933000001174032A7    ZZZZY   005600390040
BI00B32BF    #TT2201AKMW    202203017154-8349-30             COVER                    CCN000000240000000240FN00000000020220101000000240NNED0420211214163812    2F0F  00000008000000561000000691032BF    TTTJYCD 005600390040
BI00B32CG    #S211016-M     202112227282-6446-40             CONNECTOR                CCN000003000000003000FN00000000020211201000003000NNED0020211214140412    2N0N  00000150000001185000001368032CG    ASASIACO005500360039
BI00B32CG    S211206-S      202202097283-9457-3W             CONNECTOR                CCN000000720000000720FN00000000020220201000000720NNE   20211214160128    4N0N  00000012000000515000001067032CG    ASASIACO005600390023
BI00B32CG    S211206-S      202202097283-9458-30             CONNECTOR                CCN000000600000000600FN00000000020220201000000600NNE   20211214160128    4N0N  00000020000000792000000984332CG    ASASIACO005600390023
BI00B32CG    S211206-S      202202097116-4120-02             TERMINAL                 CCN000006000000006000FN00000000020220201000006000NNE   20211214160128    4P0P  00000600000000780000001073632CG    ASASIACO006400630015
BI00B32CG    S211206-S      202202097116-4121-02             TERMINAL                 CCN000013500000013500FN00000000020220201000013500NNE   20211214160128    4P0P  00000450000000618800000912432CG    ASASIACO006400630015
BI00B32CG    S211206-S      202202097114-4111-02             TERMINAL                 CCN000024000000024000FN00000000020220201000024000NNE   20211214160128    4P0P  00001200000000758400001087032CG    ASASIACO006400630017
BI00B32CG    S211206-M      202202097116-4025                TERMINAL                 CCN000016000000016000FN00000000020220201000016000NNE   20211214160300    4P0P  00001600000000644800000975132CG    ASASIACO006400630017
BI00B32CJ    #JQN1124       202112207172-5629-80             RUBBER STOPPER           CCN000080000000080000FN00000000020211201000080000NNM00020211214121448    2H0H  00002000000000060000000111132CJ    QNYHVQN 004300270014
BI00B32CJ    #JQN2011       202112207282-5528-70             HOUSING MALE ASS'Y       CCN000018000000018000FN00000000020220101000018000NNM00020211214121448    2N0N  00000100000000230000000339032CJ    QNYHVQN 005400370024
BI00B32CJ    JQN2021        202201077288-6547                CONNECTOR MALE ASS'Y     CCN000003000000003000FN00000000020220201000003000NNMD0420211214121448    4N0N  00000075000001205300001340332CJ    QNYHVQN 005400370024
BI00B32CJ    JQN2023        202201217288-6547                CONNECTOR MALE ASS'Y     CCN000003000000003000FN00000000020220201000003000NNMD0420211214121448    4N0N  00000075000001205300001340332CJ    QNYHVQN 005400370024
BI00B32CJ    JQN2024        202201287288-6547                CONNECTOR MALE ASS'Y     CCN000003000000003000FN00000000020220201000003000NNMD0420211214121448    4N0N  00000075000001205300001340332CJ    QNYHVQN 005400370024
BI00B32CJ    JQN2025        202202047288-6547                CONNECTOR MALE ASS'Y     CCN000003000000003000FN00000000020220201000003000NNMD0420211214121448    4N0N  00000075000001205300001340332CJ    QNYHVQN 005400370024
BI00B32CJ    JQN2021        202201077289-3342                HOUSING FEMALE ASS'Y     CCN000002400000002400FN00000000020220201000002400NNMD0420211214121448    1N0N  00000240000000686400000901432CJ    QNYHVQN 005500360039
BI00B32CJ    JQN2023        202201217289-3342                HOUSING FEMALE ASS'Y     CCN000004800000004800FN00000000020220201000004800NNMD0420211214121448    1N0N  00000240000000686400000901432CJ    QNYHVQN 005500360039
BI00B32CJ    JQN2024        202201287289-3342                HOUSING FEMALE ASS'Y     CCN000002400000002400FN00000000020220201000002400NNMD0420211214121448    1N0N  00000240000000686400000901432CJ    QNYHVQN 005500360039
BI00B32CJ    JQN2021        202201077289-3342-30             HOUSING FEMALE ASS'Y     CCN000024000000024000FN00000000020220201000024000NNMD0420211214121448    1N0N  00000240000000686400000901432CJ    QNYHVQN 005500360039
BI00B32CJ    JQN2023        202201217289-3342-30             HOUSING FEMALE ASS'Y     CCN000024000000024000FN00000000020220201000024000NNMD0420211214121448    1N0N  00000240000000686400000901432CJ    QNYHVQN 005500360039
BI00B32CJ    JQN2024        202201287289-3342-30             HOUSING FEMALE ASS'Y     CCN000024000000024000FN00000000020220201000024000NNMD0420211214121448    1N0N  00000240000000686400000901432CJ    QNYHVQN 005500360039
BI00B32CJ    JQN2025        202202047289-3342-30             HOUSING FEMALE ASS'Y     CCN000021600000021600FN00000000020220201000021600NNMD0420211214121448    1N0N  00000240000000686400000901432CJ    QNYHVQN 005500360039
BI00B32CJ    JQN2021        202201077289-3342-40             HOUSING FEMALE ASS'Y     CCN000004800000004800FN00000000020220201000004800NNMD0420211214121448    1N0N  00000240000000686400000901432CJ    QNYHVQN 005500360039
BI00B32CJ    JQN2023        202201217289-3342-40             HOUSING FEMALE ASS'Y     CCN000004800000004800FN00000000020220201000004800NNMD0420211214121448    1N0N  00000240000000686400000901432CJ    QNYHVQN 005500360039
BI00B32CJ    JQN2024        202201287289-3342-40             HOUSING FEMALE ASS'Y     CCN000004800000004800FN00000000020220201000004800NNMD0420211214121448    1N0N  00000240000000686400000901432CJ    QNYHVQN 005500360039
BI00B32CJ    JQN2025        202202047289-3342-40             HOUSING FEMALE ASS'Y     CCN000004800000004800FN00000000020220201000004800NNMD0420211214121448    1N0N  00000240000000686400000901432CJ    QNYHVQN 005500360039
BI00B32CJ    JQN2024        202201287289-3342-90             HOUSING FEMALE ASS'Y     CCN000004800000004800FN00000000020220201000004800NNMD0420211214121448    1N0N  00000240000000686400000901432CJ    QNYHVQN 005500360039
BI00B32CJ    JQN2025        202202047289-3342-90             HOUSING FEMALE ASS'Y     CCN000002400000002400FN00000000020220201000002400NNMD0420211214121448    1N0N  00000240000000686400000901432CJ    QNYHVQN 005500360039
BI00B32CJ    JQN2023        202201217289-6547                HOUSING FEMALE ASS'Y     CCN000002400000002400FN00000000020220201000002400NNMD0420211214121448    1N0N  00000240000001152000001362032CJ    QNYHVQN 005500360039
BI00B32CJ    JQN2024        202201287289-6547                HOUSING FEMALE ASS'Y     CCN000002400000002400FN00000000020220201000002400NNMD0420211214121448    1N0N  00000240000001152000001362032CJ    QNYHVQN 005500360039
BI00B32CJ    JQN2025        202202047289-6547                HOUSING FEMALE ASS'Y     CCN000002400000002400FN00000000020220201000002400NNMD0420211214121448    1N0N  00000240000001152000001362032CJ    QNYHVQN 005500360039
BI00B32DE    TCT1114        202112117116-3153-08             TERMINAL                 CCN000027000000027000FY00002700020211101000000000NNM00020211214131129    4P0P  00002700000000461700000746932DE    TVYEV-TV006400630015
BI00B32DE    TCT1115        202112117116-4114-02             TERMINAL                 CCN000042000000042000FY00004200020211101000000000NNM00020211214131347    4P0P  00001050000000693000000981232DE    TVYEV-TV006400630015
BI00B32DE    TCT1114        202112117116-4486-02             TERMINAL                 CCN000084000000084000FY00008400020211101000000000NNM00020211214131321    4P0P  00002800000000666400000995132DE    TVYEV-TV006400630017
BI00B32DE    TCT1114        202112117158-3070-80             RUBBER STOPPER           CCN000080000000080000FY00008000020211101000000000NNM00020211214131451    1C0C  00004000000000276000000333332DE    TVYEV-TV002700430014
BI00B32DE    TCT1115        202112117158-3165-90             WIRE SEAL                CCN000080000000080000FY00008000020211101000000000NNM00020211214131552    1C0C  00004000000000124000000172432DE    TVYEV-TV004300270014
BI00B32DE    TCT1115        202112117283-1289-30             CONNECTOR HOUSING        CCN000001200000001200FY00000120020211101000000000NNM00020211214131606    1N0N  00000060000000675600000820632DE    TVYEV-TV005400370024
BI00B32DE    TCT1114        202112117283-6120                CONNECTOR HOUSING        CCN000007500000007500FY00000750020211101000000000NNM00020211214131514    1N0N  00000150000000914000001143032DE    TVYEV-TV005600390040
BI00B32DE    TCT1114        202112117283-7023-30             CONNECTOR                CCN000002500000002500FY00000250020211101000000000NNM00020211214131526    4N0N  00000250000001358000001556032DE    TVYEV-TV005500360039
BI00B32DE    TCT1114        202112117283-7449-40             HOUSING FEMALE ASS'Y     CCN000009600000009600FY00000960020211101000000000NNM00020211214131537    4N0N  00000240000001200000001410032DE    TVYEV-TV005500360039
BI00B32DE    TCT1115        202112117287-1915-90             CONNECTOR ASS'Y          CCN000004800000004800FY00000480020211101000000000NNM00020211214131619    4N0N  00000240000000666500000923132DE    TVYEV-TV005500360039
BI00B32DJ    GHT2201B 1     202112097114-4415-02             TERMINAL MALE            CCN001188000001188000FY00118800020220101000000000NNM00020211214132948    4P0P  00002700000000429300000717532DJ    RBYIPLRB006400630015
BI00B32DJ    GHT2201B 1     202112097114-4416-02             TERMINAL MALE            CCN000918000000918000FY00091800020220101000000000NNM00020211214132948    4P0P  00002700000000442800000731032DJ    RBYIPLRB006400630015
BI00B32DJ    GHT2201B 1     202112097114-4624-02             TERMINAL                 CCN000192000000192000FY00019200020220101000000000NNM00020211214132948    4P0P  00002400000000895200001188832DJ    RBYIPLRB006400630015
BI00B32DJ    GHT2201B 1     202112097114-4728-02             TERMINAL                 CCN000480000000480000FY00048000020220101000000000NNM00020211214132948    4P0P  00003000000000510000000804232DJ    RBYIPLRB006400630015
BI00B32DJ    GHT2201B 1     202112097114-5746-02             TERMINAL                 CCN000084000000084000FY00008400020220101000000000NNM00020211214132948    4P0P  00002100000000695100000988732DJ    RBYIPLRB006400630015
BI00B32DJ    GHT2201B 1     202112097114-5748-02             TERMINAL                 CCN000108000000108000FY00010800020220101000000000NNM00020211214132948    4P0P  00001200000000444000000737632DJ    RBYIPLRB006400630015
BI00B32DJ    GHT2201B 1     202112097114-5753-02             TERMINAL                 CCN000027000000027000FY00002700020220101000000000NNM00020211214132948    4P0P  00002700000000847800001141432DJ    RBYIPLRB006400630015
BI00B32DJ    GHT2201B 1     202112097114-6041                TERMINAL                 CCN000010800000010800FY00001080020220101000000000NNM00020211214132948    4P0P  00000360000000580700000824232DJ    RBYIPLRB006400630015
BI00B32DJ    GHT2201B 1     202112097116-1180                TERMINAL                 CCN000214500000214500FY00021450020220101000000000NNM00020211214132948    1P0P  00001950000000618200000903432DJ    RBYIPLRB006400630015
BI00B32DJ    GHT2201B 1     202112097116-1257-02             TERMINAL                 CCN000024000000024000FY00002400020220101000000000NNM00020211214132948    1P0P  00002400000000518400000847132DJ    RBYIPLRB006400630017
BI00B32DJ    GHT2201B 1     202112097116-1685-02             TERMINAL                 CCN000936000000936000FY00093600020220101000000000NNM00020211214132948    4P0P  00002400000000897600001065232DJ    RBYIPLRB005100280028
BI00B32DJ    GHT2201B 1     202112097116-1686-02             TERMINAL                 CCN000147000000147000FY00014700020220101000000000NNM00020211214132948    4P0P  00002100000000869400001021632DJ    RBYIPLRB005100280028
BI00B32DJ    GHT2201B 1     202112097116-2891-02             TERMINAL                 CCN000210000000210000FY00021000020220101000000000NNM00020211214132948    4P0P  00001500000000982500001145932DJ    RBYIPLRB005100280028
BI00B32DJ    GHT2201B 1     202112097116-2892-02             TERMINAL                 CCN000192000000192000FY00019200020220101000000000NNM00020211214132948    4P0P  00001200000000818400000981832DJ    RBYIPLRB005100280028
BI00B32DJ    GHT2201B 1     202112097116-2893-02             TERMINAL                 CCN000552000000552000FY00055200020220101000000000NNM00020211214132948    4P0P  00001200000000895200001058632DJ    RBYIPLRB005100280028
BI00B32DJ    GHT2201B 1     202112097116-4020                TERMINAL                 CCN000324000000324000FY00032400020220101000000000NNM00020211214132948    4P0P  00001350000000513000000798232DJ    RBYIPLRB006400630015
BI00B32DJ    GHT2201B 1     202112097116-4025                TERMINAL                 CCN000480000000480000FY00048000020220101000000000NNM00020211214132948    4P0P  00001600000000644800000975132DJ    RBYIPLRB006400630017
BI00B32DJ    GHT2201B 1     202112097116-4026                TERMINAL                 CCN000256000000256000FY00025600020220101000000000NNM00020211214132948    4P0P  00001600000000664000000994332DJ    RBYIPLRB006400630017
BI00B32DJ    GHT2201B 1     202112097116-4032                TERMINAL                 CCN000462000000462000FY00046200020220101000000000NNM00020211214132948    4P0P  00000600000000532800000818032DJ    RBYIPLRB006400630015
BI00B32DJ    GHT2201B 1     202112097116-4037                TERMINAL                 CCN000132000000132000FY00013200020220101000000000NNM00020211214132948    4P0P  00000600000000600000000894232DJ    RBYIPLRB006400630015
BI00B32DJ    GHT2201B 1     202112097116-4415-02             TERMINAL                 CCN000266000000266000FY00026600020220101000000000NNM00020211214132948    4P0P  00003800000000596600000925732DJ    RBYIPLRB006400630017
BI00B32DJ    GHT2201B 1     202112097116-4416-02             TERMINAL                 CCN000096000000096000FY00009600020220101000000000NNM00020211214132948    4P0P  00003200000000518400000847132DJ    RBYIPLRB006400630017
BI00B32DJ    GHT2201B 1     202112097116-4486-02             TERMINAL                 CCN000140000000140000FY00014000020220101000000000NNM00020211214132948    4P0P  00002800000000666400000995132DJ    RBYIPLRB006400630017
BI00B32DJ    GHT2201B 1     202112097116-5042-02             TERMINAL                 CCN000108000000108000FY00010800020220101000000000NNM00020211214132948    4P0P  00001350000000560300000845532DJ    RBYIPLRB006400630015
BI00B32DJ    GHT2201B 1     202112097116-5750-02             TERMINAL                 CCN000240000000240000FY00024000020220101000000000NNM00020211214132948    4P0P  00001500000000457500000742732DJ    RBYIPLRB006400630015
BI00B32DJ    GHT2201B 1     202112097116-5752-02             TERMINAL                 CCN000126000000126000FY00012600020220101000000000NNM00020211214132948    4P0P  00002100000000571200000856432DJ    RBYIPLRB006400630015
BI00B32DJ    GHT2201B 1     202112097116-6041                TERMINAL                 CCN000058500000058500FY00005850020220101000000000NNM00020211214132948    4P0P  00000450000000716000001009632DJ    RBYIPLRB006400630015
BI00B32DJ    GHT2201B 1     202112097116-6042                TERMINAL                 CCN000027000000027000FY00002700020220101000000000NNM00020211214132948    4P0P  00000300000000523800000856132DJ    RBYIPLRB006400630015
BI00B32DJ    GHT2201B 1     202112097126-8853-02             TERMINAL                 CCN000472500000472500FY00047250020220101000000000NNM00020211214132948    4P0P  00000750000000562500000847732DJ    RBYIPLRB006400630015
BI00B32DJ    GHT2201B 1     202112097126-8854-02             TERMINAL                 CCN000240000000240000FY00024000020220101000000000NNM00020211214132948    4P0P  00000750000000604500000889732DJ    RBYIPLRB006400630015
BI00B32DJ    GHT2201B 1     202112097126-8855-02             TERMINAL                 CCN000216000000216000FY00021600020220101000000000NNM00020211214132948    4P0P  00000600000000510600000795832DJ    RBYIPLRB006400630015
BI00B32DJ    GHT2201B 1     202112097158-3006-90             RUBBER STOPPER           CCN000540000000540000FY00054000020220101000000000NNM00020211214132948    1C0C  00002000000000330600000386032DJ    RBYIPLRB002700430014
BI00B32DJ    GHT2201B 1     202112097158-3009-60             RUBBER STOPPER           CCN000500000000500000FY00050000020220101000000000NNM00020211214132948    1C0C  00002000000000338000000386232DJ    RBYIPLRB002700430014
BI00B32DJ    GHT2201B 1     202112097158-3165-90             WIRE SEAL                CCN000040000000040000FY00004000020220101000000000NNM00020211214132948    1C0C  00004000000000124000000172432DJ    RBYIPLRB004300270014
BI00B32DJ    GHT2201B 1     202112097158-3168-80             SEALED                   CCN000460000000460000FY00046000020220101000000000NNM00020211214132948    1C0C  00002000000000044000000092132DJ    RBYIPLRB004300260014
BI00B32DJ    GHT2201B 1     202112097158-3169-40             SEALING PLUG             CCN000200000000200000FY00020000020220101000000000NNM00020211214132948    1C0C  00004000000000156000000204132DJ    RBYIPLRB004300260014
BI00B32DJ    GHT2201B 1     202112097196-0805-02             TERMINAL FEMALE          CCN000112500000112500FY00011250020220101000000000NNM00020211214132948    4P0P  00002250000000558000000843232DJ    RBYIPLRB006400630015
BI00B32DJ    GHT2201B 1     202112097283-1144                CONNECTOR                CCN000007200000007200FY00000720020220101000000000NNM00020211214132948    4N0N  00000240000000602200000866132DJ    RBYIPLRB005500360039
BI00B32DJ    GHT2201B 1     202112097287-9234                JOINT CONNECTOR          CCN000038400000038400FY00003840020220101000000000NNM00020211214132948    4N0N  00000960000000893800001184832DJ    RBYIPLRB005500360039
BI00B32DJ    GHT2201B 1     202112097288-3329-30             HOUSING MALE             CCN000012000000012000FY00001200020220101000000000NNM00020211214132948    4N0N  00000150000000866100001011132DJ    RBYIPLRB005400370024
BI00B32DJ    GHT2201B 1     202112097288-3340-30             HOUSING MALE             CCN000015000000015000FY00001500020220101000000000NNM00020211214132948    4N0N  00000150000000861500001006432DJ    RBYIPLRB005400370024
BI00B32DJ    GHT2201B 1     202112097298-1853-10             HOUSING FEMALE ASS'Y     CCN000042900000042900FY00004290020220101000000000NNM00020211214132948    4N00  00000390000001240500001405832DJ    RBYIPLRB005400370024
BI00B32DJ    GHT2201B 1     202112097298-4094-10             HOUSING FEMALE ASS'Y     CCN000013520000013520FY00001352020220101000000000NNM00020211214132948    4N0N  00000338000001097400001358732DJ    RBYIPLRB005400370024
BI00B32DJ    GHT2201B 1     202112097327-6533-3W             BATTERY FUSE             CCN000008640000008640FY00000864020220101000000000NNM00020211214132948    4N0N  00000007200001230100001422632DJ    RBYIPLRB005500360039
BI00B32DJ    GHT2201B 1     202112097388-0317-60             CONNECTOR ASS'Y          CCN000013200000013200FY00001320020220101000000000NNM00020211214132948    4N0N  00000120000001034400001129332DJ    RBYIPLRB005400370024
BI00A32DJ    GHT2201B 1     202112097116-5751-02             TERMINAL                 CCN000048000000048000FY00004800020220101000000000NNM00020211214132948    4P0P  00001200000000379200000664432DJ    RBYIPLRB006400630015
BI00B32DJ    GHT2202B 1     202201067017-1180-02             TERMINAL                 CCN000144000000144000FN00000000020220201000144000NNMD0720211214131122    4P0P  00007200000001065600001229032DJ    RBYIPLRB005100280028
BI00B32DJ    GHT2202B 2     202201137017-1180-02             TERMINAL                 CCN000216000000216000FN00000000020220201000216000NNM   20211214131122    4P0P  00007200000001065600001229032DJ    RBYIPLRB005100280028
BI00B32DJ    GHT2202B 2     202201137017-1182-02             TERMINAL                 CCN000045000000045000FN00000000020220201000045000NNM   20211214131122    4P0P  00004500000001165500001318632DJ    RBYIPLRB005100280028
BI00B32DJ    GHT2202B 2     202201137114-4021                TERMINAL                 CCN000015000000015000FN00000000020220201000015000NNM   20211214131122    4P0P  00001500000000670500000964132DJ    RBYIPLRB006400630015
BI00B32DJ    GHT2202B 2     202201137114-4416-02             TERMINAL MALE            CCN000108000000108000FN00000000020220201000108000NNM   20211214131122    4P0P  00002700000000442800000731032DJ    RBYIPLRB006400630015
BI00B32DJ    GHT2202B 2     202201137114-4728-02             TERMINAL                 CCN000030000000030000FN00000000020220201000030000NNM   20211214131122    4P0P  00003000000000510000000804232DJ    RBYIPLRB006400630015
BI00B32DJ    GHT2202B 1     202201067114-4729-02             TERMINAL                 CCN000180000000180000FN00000000020220201000180000NNMD0720211214131122    4P0P  00003000000000516000000810232DJ    RBYIPLRB006400630015
BI00B32DJ    GHT2202B 2     202201137114-4729-02             TERMINAL                 CCN000030000000030000FN00000000020220201000030000NNM   20211214131122    4P0P  00003000000000516000000810232DJ    RBYIPLRB006400630015
BI00B32DJ    GHT2202B 1     202201067114-5746-02             TERMINAL                 CCN000189000000189000FN00000000020220201000189000NNMD0720211214131122    4P0P  00002100000000695100000988732DJ    RBYIPLRB006400630015
BI00B32DJ    GHT2202B 1     202201067114-6041                TERMINAL                 CCN000014400000014400FN00000000020220201000014400NNMD0720211214131122    4P0P  00000360000000580700000824232DJ    RBYIPLRB006400630015
BI00B32DJ    GHT2202B 2     202201137114-6041                TERMINAL                 CCN000003600000003600FN00000000020220201000003600NNM   20211214131122    4P0P  00000360000000580700000824232DJ    RBYIPLRB006400630015
BI00B32DJ    GHT2202B 2     202201137116-1180                TERMINAL                 CCN000019500000019500FN00000000020220201000019500NNM   20211214131122    1P0P  00001950000000618200000903432DJ    RBYIPLRB006400630015
BI00B32DJ    GHT2202B 2     202201137116-1686-02             TERMINAL                 CCN000021000000021000FN00000000020220201000021000NNM   20211214131122    4P0P  00002100000000869400001021632DJ    RBYIPLRB005100280028
BI00B32DJ    GHT2202B 1     202201067116-2640                TERMINAL                 CCN000018000000018000FN00000000020220201000018000NNMD0720211214131122    4P0P  00001800000001018800001196632DJ    RBYIPLRB005100280028
BI00B32DJ    GHT2202B 2     202201137116-2891-02             TERMINAL                 CCN000090000000090000FN00000000020220201000090000NNM   20211214131122    4P0P  00001500000000982500001145932DJ    RBYIPLRB005100280028
BI00B32DJ    GHT2202B 2     202201137116-2893-02             TERMINAL                 CCN000168000000168000FN00000000020220201000168000NNM   20211214131122    4P0P  00001200000000895200001058632DJ    RBYIPLRB005100280028
BI00B32DJ    GHT2202B 1     202201067116-3153-02             TERMINAL FEMALE          CCN000216000000216000FN00000000020220201000216000NNMD0720211214131122    4P0P  00002700000000459000000744232DJ    RBYIPLRB006400630015
BI00B32DJ    GHT2202B 2     202201137116-3153-02             TERMINAL FEMALE          CCN000486000000486000FN00000000020220201000486000NNM   20211214131122    4P0P  00002700000000459000000744232DJ    RBYIPLRB006400630015
BI00B32DJ    GHT2202B 2     202201137116-3154-02             TERMINAL FEMALE          CCN000108000000108000FN00000000020220201000108000NNM   20211214131122    4P0P  00002700000000469800000755032DJ    RBYIPLRB006400630015
BI00B32DJ    GHT2202B 2     202201137116-4020                TERMINAL                 CCN000094500000094500FN00000000020220201000094500NNM   20211214131122    4P0P  00001350000000513000000798232DJ    RBYIPLRB006400630015
BI00B32DJ    GHT2202B 2     202201137116-4025                TERMINAL                 CCN000176000000176000FN00000000020220201000176000NNM   20211214131122    4P0P  00001600000000644800000975132DJ    RBYIPLRB006400630017
BI00B32DJ    GHT2202B 2     202201137116-4026                TERMINAL                 CCN000032000000032000FN00000000020220201000032000NNM   20211214131122    4P0P  00001600000000664000000994332DJ    RBYIPLRB006400630017
BI00B32DJ    GHT2202B 1     202201067116-4037                TERMINAL                 CCN000006000000006000FN00000000020220201000006000NNMD0720211214131122    4P0P  00000600000000600000000894232DJ    RBYIPLRB006400630015
BI00B32DJ    GHT2202B 2     202201137116-4037                TERMINAL                 CCN000048000000048000FN00000000020220201000048000NNM   20211214131122    4P0P  00000600000000600000000894232DJ    RBYIPLRB006400630015
BI00B32DJ    GHT2202B 1     202201067116-4231-02             TERMINAL                 CCN000078000000078000FN00000000020220201000078000NNMD0720211214131122    4P0P  00002600000000683800001012532DJ    RBYIPLRB006400630017
BI00B32DJ    GHT2202B 1     202201067116-4415-02             TERMINAL                 CCN005700000005700000FN00000000020220201005700000NNMD0720211214131122    4P0P  00003800000000596600000925732DJ    RBYIPLRB006400630017
BI00B32DJ    GHT2202B 1     202201067116-4416-02             TERMINAL                 CCN000032000000032000FN00000000020220201000032000NNMD0720211214131122    4P0P  00003200000000518400000847132DJ    RBYIPLRB006400630017
BI00B32DJ    GHT2202B 2     202201137116-4416-02             TERMINAL                 CCN000032000000032000FN00000000020220201000032000NNM   20211214131122    4P0P  00003200000000518400000847132DJ    RBYIPLRB006400630017
BI00B32DJ    GHT2202B 2     202201137116-4486-02             TERMINAL                 CCN000056000000056000FN00000000020220201000056000NNM   20211214131122    4P0P  00002800000000666400000995132DJ    RBYIPLRB006400630017
BI00B32DJ    GHT2202B 2     202201137116-5750-02             TERMINAL                 CCN000030000000030000FN00000000020220201000030000NNM   20211214131122    4P0P  00001500000000457500000742732DJ    RBYIPLRB006400630015
BI00B32DJ    GHT2202B 1     202201067116-5752-02             TERMINAL                 CCN000126000000126000FN00000000020220201000126000NNMD0720211214131122    4P0P  00002100000000571200000856432DJ    RBYIPLRB006400630015
BI00B32DJ    GHT2202B 1     202201067116-6042                TERMINAL                 CCN000015000000015000FN00000000020220201000015000NNMD0720211214131122    4P0P  00000300000000523800000856132DJ    RBYIPLRB006400630015
BI00B32DJ    GHT2202B 2     202201137116-6042                TERMINAL                 CCN000009000000009000FN00000000020220201000009000NNM   20211214131122    4P0P  00000300000000523800000856132DJ    RBYIPLRB006400630015
BI00B32DJ    GHT2202B 2     202201137126-8853-02             TERMINAL                 CCN000007500000007500FN00000000020220201000007500NNM   20211214131122    4P0P  00000750000000562500000847732DJ    RBYIPLRB006400630015
BI00B32DJ    GHT2202B 2     202201137126-8854-02             TERMINAL                 CCN000022500000022500FN00000000020220201000022500NNM   20211214131122    4P0P  00000750000000604500000889732DJ    RBYIPLRB006400630015
BI00B32DJ    GHT2202B 2     202201137126-8855-02             TERMINAL                 CCN000006000000006000FN00000000020220201000006000NNM   20211214131122    4P0P  00000600000000510600000795832DJ    RBYIPLRB006400630015
BI00B32DJ    GHT2202B 1     202201067158-3165-90             WIRE SEAL                CCN000120000000120000FN00000000020220201000120000NNMD0720211214131122    1C0C  00004000000000124000000172432DJ    RBYIPLRB004300270014
BI00B32DJ    GHT2202B 2     202201137158-3165-90             WIRE SEAL                CCN000080000000080000FN00000000020220201000080000NNM   20211214131122    1C0C  00004000000000124000000172432DJ    RBYIPLRB004300270014
BI00B32DJ    GHT2202B 1     202201067158-3168-80             SEALED                   CCN000220000000220000FN00000000020220201000220000NNMD0720211214131122    1C0C  00002000000000044000000092132DJ    RBYIPLRB004300260014
BI00B32DJ    GHT2202B 2     202201137158-3168-80             SEALED                   CCN000040000000040000FN00000000020220201000040000NNM   20211214131122    1C0C  00002000000000044000000092132DJ    RBYIPLRB004300260014
BI00B32DJ    GHT2202B 1     202201067283-5830-30             CONNECTOR                CCN000012000000012000FN00000000020220201000012000NNMD0720211214131122    1N0N  00000600000000954000001104032DJ    RBYIPLRB005500360039
BI00B32DJ    GHT2202B 2     202201137283-5845                CONNECTOR HOUSING        CCN000006000000006000FN00000000020220201000006000NNM   20211214131122    1N0N  00000600000000444000000606332DJ    RBYIPLRB005400370024
BI00B32DJ    GHT2202B 1     202201067287-9234                JOINT CONNECTOR          CCN000019200000019200FN00000000020220201000019200NNMD0720211214131122    4N0N  00000960000000893800001184832DJ    RBYIPLRB005500360039
BI00B32DJ    GHT2202B 2     202201137287-9234                JOINT CONNECTOR          CCN000028800000028800FN00000000020220201000028800NNM   20211214131122    4N0N  00000960000000893800001184832DJ    RBYIPLRB005500360039
BI00B32DJ    GHT2202B 2     202201137288-3329-30             HOUSING MALE             CCN000006000000006000FN00000000020220201000006000NNM   20211214131122    4N0N  00000150000000866100001011132DJ    RBYIPLRB005400370024
BI00B32DJ    GHT2202B 2     202201137288-3340-30             HOUSING MALE             CCN000001500000001500FN00000000020220201000001500NNM   20211214131122    4N0N  00000150000000861500001006432DJ    RBYIPLRB005400370024
BI00B32DJ    GHT2202B 1     202201067298-1853-10             HOUSING FEMALE ASS'Y     CCN000015600000015600FN00000000020220201000015600NNMD0720211214131122    4N00  00000390000001240500001405832DJ    RBYIPLRB005400370024
BI00B32DJ    GHT2202B 2     202201137298-1853-10             HOUSING FEMALE ASS'Y     CCN000011700000011700FN00000000020220201000011700NNM   20211214131122    4N00  00000390000001240500001405832DJ    RBYIPLRB005400370024
BI00B32DJ    GHT2202B 1     202201067298-4094-10             HOUSING FEMALE ASS'Y     CCN000010140000010140FN00000000020220201000010140NNMD0720211214131122    4N0N  00000338000001097400001358732DJ    RBYIPLRB005400370024
BI00B32DJ    GHT2202B 2     202201137298-4094-10             HOUSING FEMALE ASS'Y     CCN000006760000006760FN00000000020220201000006760NNM   20211214131122    4N0N  00000338000001097400001358732DJ    RBYIPLRB005400370024
BI00B32DJ    GHT2202B 1     202201067327-6533-3W             BATTERY FUSE             CCN000007632000007632FN00000000020220201000007632NNMD0720211214131122    4N0N  00000007200001230100001422632DJ    RBYIPLRB005500360039
BI00B32DJ    GHT2202B 2     202201137327-6533-3W             BATTERY FUSE             CCN000003888000003888FN00000000020220201000003888NNM   20211214131122    4N0N  00000007200001230100001422632DJ    RBYIPLRB005500360039
BI00B32DJ    GHT2202B 2     202201137327-6553-3W             BATTERY FUSE             CCN000000144000000144FN00000000020220201000000144NNM   20211214131122    4N0N  00000007200001229200001421832DJ    RBYIPLRB005500360039
BI00B32DJ    GHT2202B 1     202201067388-0314                CONNECTOR ASS'Y          CCN000003600000003600FN00000000020220201000003600NNMD0720211214131122    4N0N  00000120000001038000001132332DJ    RBYIPLRB005400370024
BI00B32DJ    GHT2202B 2     202201137388-0314                CONNECTOR ASS'Y          CCN000002400000002400FN00000000020220201000002400NNM   20211214131122    4N0N  00000120000001038000001132332DJ    RBYIPLRB005400370024
BI00B32DJ    GHT2202B 1     202201067388-0317-60             CONNECTOR ASS'Y          CCN000008400000008400FN00000000020220201000008400NNMD0720211214131122    4N0N  00000120000001034400001129332DJ    RBYIPLRB005400370024
BI00B32DJ    GHT2202B 2     202201137388-0317-60             CONNECTOR ASS'Y          CCN000006000000006000FN00000000020220201000006000NNM   20211214131122    4N0N  00000120000001034400001129332DJ    RBYIPLRB005400370024
BI00B32DJ    GHT2202B 1     202201067B72-5540-80             SEALED WIRE SEAL         CCN000040000000040000FN00000000020220201000040000NNMD0720211214131122    1C0C  00002000000000186000000234432DJ    RBYIPLRB004300270014
BI00B32DJ    GHT2202B 2     202201137B72-5540-80             SEALED WIRE SEAL         CCN000020000000020000FN00000000020220201000020000NNM   20211214131122    1C0C  00002000000000186000000234432DJ    RBYIPLRB004300270014
BI00B32DJ    GHT2202B 1     202201067B74-1849-70             COVER                    CCN000025000000025000FN00000000020220201000025000NNMD0720211214131122    1F0F  00002500000000622500000761932DJ    RBYIPLRB005400370024
BI00B32DJ    GHT2202B 1     202201067B96-0805-02             TERMINAL FEMALE          CCN000045000000045000FN00000000020220201000045000NNMD0720211214131122    4P0P  00002250000000558000000843232DJ    RBYIPLRB006400630015
BI00B32DJ    GHT2202B 1     202201067C87-7975-4W             SQUIB SUB ASS'Y          CCN000020000000020000FN00000000020220201000020000NNMD0720211214131122    4N0N  00001000000000837000000991132DJ    RBYIPLRB005400370024
BI00B32DJ    GHT2202B 1     202201067C89-6868-30             SEALED ASSY FEMALE       CCN000032760000032760FN00000000020220201000032760NNMD0720211214131122    4N0N  00000252000000839200001119232DJ    RBYIPLRB005500360039
BI00B32DJ    GHT2202B 2     202201137C89-6868-30             SEALED ASSY FEMALE       CCN000007560000007560FN00000000020220201000007560NNM   20211214131122    4N0N  00000252000000839200001119232DJ    RBYIPLRB005500360039
BI00B32DJ    GHT2202B 1     202201067C98-1145-4W             SQUIB SUB ASS'Y          CCN000020000000020000FN00000000020220201000020000NNMD0720211214131122    4N0N  00001000000000787900000944932DJ    RBYIPLRB005400370024
BI00B32DJ    GHT2202B 2     202201137C98-1145-4W             SQUIB SUB ASS'Y          CCN000010000000010000FN00000000020220201000010000NNM   20211214131122    4N0N  00001000000000787900000944932DJ    RBYIPLRB005400370024
BI00B32DJ    GHT2202B 1     202201067158-3166-60             WIRE SEAL                CCN001120000001120000FN00000000020220201001120000NNMD0720211214131122    1C0C  00004000000000104000000152432DJ    RBYIPLRB002700430014
BI00B32DJ    GHT2202B 2     202201137158-3166-60             WIRE SEAL                CCN000080000000080000FN00000000020220201000080000NNM   20211214131122    1C0C  00004000000000104000000152432DJ    RBYIPLRB002700430014
BI00B32DJ    #GHT2202B 1    202201067183-2414-30             CONNECTOR HOUSING        CCN000004800000004800FN00000000020220201000004800NNMD0720211214131108    2F0F  00000480000000779500001061532DJ    RBYIPLRB005500360039
BI00B32DJ    #GHT2202B 1    202201067183-2414-40             CONNECTOR HOUSING        CCN000004800000004800FN00000000020220201000004800NNMD0720211214131108    2F0F  00000480000000777600000963632DJ    RBYIPLRB005500360039
BI00B32DJ    #GHT2202B 2    202201137183-2414-40             CONNECTOR HOUSING        CCN000004800000004800FN00000000020220201000004800NNM   20211214131108    2F0F  00000480000000777600000963632DJ    RBYIPLRB005500360039
BI00B32DJ    #GHT2202B 1    202201067183-8252-40             HOUSING                  CCN000021600000021600FN00000000020220201000021600NNMD0720211214131108    2F0F  00000240000000454000000729032DJ    RBYIPLRB005500360039
BI00B32DJ    #GHT2202B 2    202201137183-8252-40             HOUSING                  CCN000007200000007200FN00000000020220201000007200NNM   20211214131108    2F0F  00000240000000454000000729032DJ    RBYIPLRB005500360039
BI00B32DJ    #GHT2202B 1    202201067187-8856                HOUSING FEMALE           CCN000064000000064000FN00000000020220201000064000NNMD0720211214131108    2F0F  00000200000000820000000931532DJ    RBYIPLRB005400370024
BI00B32DJ    #GHT2202C 2    202201137114-4022                TERMINAL                 CCN000015000000015000FN00000000020220201000015000NNM   20211214133441    2F0P  00001500000000708000001120632DJ    RBYIPLRB006400630015
BI00B32DJ    #GHT2202C 2    202201137116-4021                TERMINAL                 CCN000067500000067500FN00000000020220201000067500NNM   20211214133441    2F0P  00001350000000534600000868832DJ    RBYIPLRB006400630015
BI00B32DJ    #GHT2202C 1    202201067158-3008-80             RUBBER STOPPER           CCN000020000000020000FN00000000020220201000020000NNM   20211214133441    2C0C  00002000000000288000000343032DJ    RBYIPLRB004300270014
BI00B32DJ    #GHT2202C 1    202201067158-3015-10             RUBBER STOPPER           CCN000110000000110000FN00000000020220201000110000NNM   20211214133441    2C0C  00001000000000419500000474032DJ    RBYIPLRB002700430014
BI00B32DJ    #GHT2202C 2    202201137158-3015-10             RUBBER STOPPER           CCN000050000000050000FN00000000020220201000050000NNM   20211214133441    2C0C  00001000000000419500000474032DJ    RBYIPLRB002700430014
BI00B32DJ    #GHT2202C 1    202201067158-3017                RUBBER STOPPER           CCN000040000000040000FN00000000020220201000040000NNM   20211214133441    2C0C  00001000000000375500000435032DJ    RBYIPLRB002700430014
BI00B32DJ    #GHT2202C 1    202201067183-7725-40             HOUSING                  CCN000018000000018000FN00000000020220201000018000NNM   20211214133441    2F0F  00000600000000840000001040032DJ    RBYIPLRB005600390040
BI00B32DJ    #GHT2202C 2    202201137183-7725-40             HOUSING                  CCN000006000000006000FN00000000020220201000006000NNM   20211214133441    2F0F  00000600000000840000001040032DJ    RBYIPLRB005600390040
BI00B32DJ    #GHT2202C 1    202201067183-8251-40             HOUSING                  CCN000048000000048000FN00000000020220201000048000NNM   20211214133441    2F0F  00000240000000357600000640032DJ    RBYIPLRB005500360039
BI00B32DJ    #GHT2202C 2    202201137183-8251-40             HOUSING                  CCN000007200000007200FN00000000020220201000007200NNM   20211214133441    2F0F  00000240000000357600000640032DJ    RBYIPLRB005500360039
BI00B32DJ    #GHT2202C 1    202201067183-8254-40             HOUSING                  CCN000002400000002400FN00000000020220201000002400NNM   20211214133441    2F0F  00000240000000776000001076332DJ    RBYIPLRB005500360039
BI00B32DJ    #GHT2202C 2    202201137183-8927                HOUSING                  CCN000008000000008000FN00000000020220201000008000NNM   20211214133441    2F0F  00000400000000714000000912732DJ    RBYIPLRB005500360039
BI00B32DJ    #GHT2202C 1    202201067283-8226-30             CONNECTOR                CCN000008000000008000FN00000000020220201000008000NNM   20211214133441    2N0N  00000200000000820000001008032DJ    RBYIPLRB005400370024
BI00B32DJ    #GHT2202C 2    202201137283-8226-30             CONNECTOR                CCN000002000000002000FN00000000020220201000002000NNM   20211214133441    2N0N  00000200000000820000001008032DJ    RBYIPLRB005400370024
BI00B32DJ    #GHT2202C 1    202201067283-8226-40             CONNECTOR                CCN000002000000002000FN00000000020220201000002000NNM   20211214133441    2N0N  00000200000000830000000957032DJ    RBYIPLRB005400370024
BI00B32DJ    #GHT2202C 2    202201137283-8226-40             CONNECTOR                CCN000002000000002000FN00000000020220201000002000NNM   20211214133441    2N0N  00000200000000830000000957032DJ    RBYIPLRB005400370024
BI00A32EJ    4500174465     202201047288-6547                CONNECTOR MALE ASS'Y     CCN000007500000007500FN00000000020210901000007500NNED0220211214121448EJ  4N0N  00000075000001205300001340332EJ    EJYKBO  005400370024
BI00B32EJ    4500184332     202112137158-3169-40             SEALING PLUG             CCN000200000000200000FY00020000020220101000000000NNE00020211214133122EJ  1C0C  00004000000000156000000204132EJ    EJYKBO  004300260014
BI00B32EJ    4500184384     202112137283-1020                CONNECTOR                CCN000030000000030000FY00003000020211201000000000NNED0220211214141143EJ  4N0N  00000600000000840000001049332EJ    EJYKBO  005600390040
BI00B32G0    TZ2112AEMW     202112217288-6547                CONNECTOR MALE ASS'Y     CCN000018000000009000FN00000000020211201000009000NNEQ0420211214161554    4N0N  00000075000001205300001340332G0    TTTJY   005400370024
BI00B32G0    TZ2112AEMW     202112217289-6547                HOUSING FEMALE ASS'Y     CCN000014400000014400FN00000000020211201000014400NNED0420211214161532    1N0N  00000240000001152000001362032G0    TTTJY   005500360039
BI00B32G0    TZ2112AEMW     202112217288-6547                CONNECTOR MALE ASS'Y     CCN000009000000009000FN00000000020211201000009000NNED0420211214161554    4N0N  00000075000001205300001340332G0    TTTJY   005400370024
BI00B32G0    #TZ22022EMW    202112287172-5630-40             RUBBER STOPPER           CCN000200000000200000FN00000000020220201000200000NNMD0020211214121448    2H0H  00002000000000044000000095132G0    TTTJY   004300270014
BI00B32G0    TZ22031EMW     202201187283-4855                CONNECTOR HOUSING        CCN000014400000014400FN00000000020220301000014400NNMD0020211214121448    4N0N  00000240000001188400001400032G0    TTTJY   005500360039
BI00B32G0    TZ22031EMW     202201187288-6547                CONNECTOR MALE ASS'Y     CCN000020250000020250FN00000000020220301000020250NNMD0020211214121448    4N0N  00000075000001205300001340332G0    TTTJY   005400370024
BI00B32G0    TZ22031EMW     202201187289-6597-70             HOUSING FEMALE ASS'Y     CCN000012960000012960FN00000000020220301000012960NNMD0020211214121448    4N0N  00000216000001289500001539532G0    TTTJY   005500360039
BI00B32G2    #SA22011 MW    202112107282-7424                CONNECTOR                CCN000012000000012000FY00001200020220101000000000NNMD0420211214141510    2N0N  00000400000001064000001243032G2    AISUAI  005500360039
BI00B32G2    #SA22011 MW    202112097282-7424                CONNECTOR                CCN000012000000012000FY00001200020220101000000000NNMD0420211214141510    2N0N  00000400000001064000001243032G2    AISUAI  005500360039
BI00B32G2    #SA22011 MW    202112137282-7424                CONNECTOR                CCN000020000000020000FY00002000020220101000000000NNMD0420211214141416    2N0N  00000400000001064000001243032G2    AISUAI  005500360039
BI00B32G7    #JJ22013 MW    202112297158-3007-10             RUBBER STOPPER           CCN000100000000100000FN00000000020220101000100000NNMD0020211214121448    2H0H  00002000000000308000000362732G7    JIJAI   002700430014
BI00B32G7    #JJ22013MMW    202112297172-5630-40             RUBBER STOPPER           CCN000300000000300000FN00000000020220101000300000NNMD0020211214121448    2H0H  00002000000000044000000095132G7    JIJAI   004300270014
BI00B32H0    TT22013VMW     202112217327-6731-3W             BATTERY FUSE             CCN000002176000002176FN00000000020220101000002176NNM00020211214161658    4N0N  00000006400000697600000843032H0    TTTJY   005400370024
BI00B32H2    TIJ2013        202112247287-1915-30             CONNECTOR ASS'Y          CCN000019200000007200FN00000000020220101000007200NNMD0620211214121448    4N0N  00000240000000666500000923132H2    HVYHV   005500360039
BI00B32H2    TIJ2013        202112177287-1915-30             CONNECTOR ASS'Y          CCN000012000000012000FN00000000020220101000012000NNMD0620211214121448    4N0N  00000240000000666500000923132H2    HVYHV   005500360039
BI00A32H7    #FS21122DMW    202112117172-5630-40             RUBBER STOPPER           PCN000240000000240000FY00024000020211201000000000NNM00020211214155710    2H0H  00002000000000044000000095132H7    FYFSY   004300270014
BI00A32J1    389412         202112207116-1685-02             TERMINAL                 CCN000024000000024000FN00000000020211201000024000NNED0720211214141921    4P0P  00002400000000897600001065232J1    UKYEL-BL005100280028
BI00B32M1    TCV112A        202112127283-5830                CONNECTOR                CCN000006000000006000FY00000600020211201000000000NNED0220211214133051    1N47  00000600000000954000001104032M1    VNYEV   005500360039
BI00B32M4    TP2021A        202201067283-1020                CONNECTOR                CCN000006000000006000FN00000000020220201000006000NNE   20211214144404    4N0N  00000600000000840000001049332M4    SISAI   005600390040
BI00B32M8    #PM22013RMW    202112227188-0149                HLC HOUSING MALE         CCN000003600000003600FN00000000020220101000003600NNM00020211214142725    2F0F  00000090000000809100000923832M8    PMPEMI  005400370024
BI00B32M8    #PM22013TMW    202112227189-3034-30             HOUSING FEMALE           CCN000003200000003200FN00000000020220101000003200NNM00020211214142832    2F0F  00000160000000972800001192832M8    PMPEMI  005500360039
BI00B32M8    #PM22013TMW    202112227189-3038                HOUSING FEMALE           CCN000001600000001600FN00000000020220101000001600NNM00020211214142832    2F0F  00000160000000817600000850132M8    PMPEMI  005500360039
BI00B32M8    #PM22013TMW    202112227289-2912-40             HOUSING FEMALE ASS'Y     CCN000004000000004000FN00000000020220101000004000NNM00020211214142832    2N0N  00000200000000804000000931032M8    PMPEMI  005400370024
BI00B32M8    PM2201ATMW     202112297298-4899-70             SEALED HOUSING ASS'Y     CCN000002310000002310FN00000000020220101000002310NNE   20211214143115    4N0N  00000231000000766900001036932M8    PMPEMI  005500360039
BI00A32N1    SBT2112        202112117158-3006-90             RUBBER STOPPER           PCN000180000000180000FY00018000020211201000000000NNMD0020211214141104    1C0C  00002000000000330600000386032N1    TAYIPL  002700430014
BI00B32N1    SBT2112        202112117286-3885-40             CONNECTOR MALE ASS'Y     CCN000007200000007200FY00000720020211201000000000NNMD0020211214130633    1N0N  00000120000000910600001130632N1    TAYIPL  005500360039
BI00B32N1    SBT2112        202112097286-3885-40             CONNECTOR MALE ASS'Y     CCN000007200000007200FY00000720020211201000000000NNM00020211214130621    1N0N  00000120000000910600001130632N1    TAYIPL  005500360039
BI00B32N1    SBT2201        202112097114-4020                TERMINAL                 CCN000021000000021000FY00002100020220101000000000NNM00020211214132124    4P0P  00002100000000875700001169332N1    TAYIPL  006400630015
BI00B32N1    SBT2201        202112097114-4021                TERMINAL                 CCN000045000000045000FY00004500020220101000000000NNM00020211214132124    4P0P  00001500000000670500000964132N1    TAYIPL  006400630015
BI00B32N1    SBT2201        202112097116-4020                TERMINAL                 CCN000013500000013500FY00001350020220101000000000NNM00020211214132124    4P0P  00001350000000513000000798232N1    TAYIPL  006400630015
BI00B32N1    SBT2201        202112097116-4025                TERMINAL                 CCN000096000000096000FY00009600020220101000000000NNM00020211214132124    4P0P  00001600000000644800000975132N1    TAYIPL  006400630017
BI00B32N1    SBT2201        202112097116-4026                TERMINAL                 CCN000048000000048000FY00004800020220101000000000NNM00020211214132124    4P0P  00001600000000664000000994332N1    TAYIPL  006400630017
BI00B32N1    SBT2201        202112097116-4032                TERMINAL                 CCN000024000000024000FY00002400020220101000000000NNM00020211214132124    4P0P  00000600000000532800000818032N1    TAYIPL  006400630015
BI00B32N1    SBT2201        202112097116-4037                TERMINAL                 CCN000018000000018000FY00001800020220101000000000NNM00020211214132124    4P0P  00000600000000600000000894232N1    TAYIPL  006400630015
BI00B32N1    SBT2201        202112097116-6042                TERMINAL                 CCN000009000000009000FY00000900020220101000000000NNM00020211214132124    4P0P  00000300000000523800000856132N1    TAYIPL  006400630015
BI00B32N1    SBT2201        202112097283-5830                CONNECTOR                CCN000006000000006000FY00000600020220101000000000NNM00020211214132124    1N47  00000600000000954000001104032N1    TAYIPL  005500360039
BI00B32N1    SBT2201        202112097283-5845                CONNECTOR HOUSING        CCN000006000000006000FY00000600020220101000000000NNM00020211214132124    1N0N  00000600000000444000000606332N1    TAYIPL  005400370024
BI00B32N1    SBT2201        202112097287-9234                JOINT CONNECTOR          CCN000028800000028800FY00002880020220101000000000NNM00020211214132124    4N0N  00000960000000893800001184832N1    TAYIPL  005500360039
BI00B32N1    SBT2201        202112097017-1180-02             TERMINAL                 CCN000072000000072000FY00007200020220101000000000NNM00020211214132124    4P0P  00007200000001065600001229032N1    TAYIPL  005100280028
BI00B32N1    SBT2201        202112097114-5746-02             TERMINAL                 CCN000042000000042000FY00004200020220101000000000NNM00020211214132124    4P0P  00002100000000695100000988732N1    TAYIPL  006400630015
BI00B32N1    SBT2201        202112097114-5747-02             TERMINAL                 CCN000036000000036000FY00003600020220101000000000NNM00020211214132124    4P0P  00001800000000626400000920032N1    TAYIPL  006400630015
BI00B32N1    SBT2201        202112097114-5748-02             TERMINAL                 CCN000048000000048000FY00004800020220101000000000NNM00020211214132124    4P0P  00001200000000444000000737632N1    TAYIPL  006400630015
BI00B32N1    SBT2201        202112097114-5753-02             TERMINAL                 CCN000054000000054000FY00005400020220101000000000NNM00020211214132124    4P0P  00002700000000847800001141432N1    TAYIPL  006400630015
BI00B32N1    SBT2201        202112097116-4486-02             TERMINAL                 CCN000084000000084000FY00008400020220101000000000NNM00020211214132124    4P0P  00002800000000666400000995132N1    TAYIPL  006400630017
BI00B32N1    SBT2201        202112097116-5045-02             TERMINAL                 CCN000016000000016000FY00001600020220101000000000NNM00020211214132124    4P0P  00001600000000678400001007132N1    TAYIPL  006400630017
BI00B32N1    SBT2201        202112097116-5750-02             TERMINAL                 CCN000140796000150000FY00015000020220101000000000NNM00020211214132124    4P0P  00001500000000457500000742732N1    TAYIPL  006400630015
BI00B32N1    SBT2201        202112097116-5751-02             TERMINAL                 CCN000036000000036000FY00003600020220101000000000NNM00020211214132124    4P0P  00001200000000379200000664432N1    TAYIPL  006400630015
BI00B32N1    SBT2201        202112097116-5752-02             TERMINAL                 CCN000105000000105000FY00010500020220101000000000NNM00020211214132124    4P0P  00002100000000571200000856432N1    TAYIPL  006400630015
BI00B32N1    SBT2201        202112097158-3006-90             RUBBER STOPPER           CCN000100000000100000FY00010000020220101000000000NNM00020211214132124    1C0C  00002000000000330600000386032N1    TAYIPL  002700430014
BI00B32N1    SBT2201        202112097158-3009-60             RUBBER STOPPER           CCN000060000000060000FY00006000020220101000000000NNM00020211214132124    1C0C  00002000000000338000000386232N1    TAYIPL  002700430014
BI00B32N1    SBT2201        202112097172-5540-80             SEALED WIRE SEAL         CCN000020000000020000FY00002000020220101000000000NNM00020211214132124    1C0C  00002000000000186000000234432N1    TAYIPL  004300270014
BI00B32N1    SBT2201        202112097283-5830-30             CONNECTOR                CCN000006000000006000FY00000600020220101000000000NNM00020211214132124    1N0N  00000600000000954000001104032N1    TAYIPL  005500360039
BI00B32N1    SBT2201        202112097288-3329-30             HOUSING MALE             CCN000007500000007500FY00000750020220101000000000NNM00020211214132124    4N0N  00000150000000866100001011132N1    TAYIPL  005400370024
BI00B32N1    SBT2201        202112097288-3331-30             HOUSING MALE             CCN000007500000007500FY00000750020220101000000000NNM00020211214132124    4N0N  00000150000000866000001010932N1    TAYIPL  005400370024
BI00B32N1    SBT2201        202112097288-3336-30             HOUSING MALE             CCN000007500000007500FY00000750020220101000000000NNM00020211214132124    4N0N  00000150000000867000001012032N1    TAYIPL  005400370024
BI00B32N1    SBT2201        202112097288-3337-30             HOUSING MALE             CCN000007500000007500FY00000750020220101000000000NNM00020211214132124    4N0N  00000150000000867000001012032N1    TAYIPL  005400370024
BI00B32N1    NST2113A 1     202112167283-1144                CONNECTOR                CCN000007200000007200FN00000000020220101000007200NNM00020211214140929    4N0N  00000240000000602200000866132N1    TAYIPL  005500360039
BI00B32N1    NST2113A 1     202112167283-1144-30             CONNECTOR                CCN000014400000014400FN00000000020220101000014400NNM00020211214140929    4N0N  00000240000000602200000866132N1    TAYIPL  005500360039
BI00B32N1    NST2115ECU     202201137116-1180                TERMINAL                 CCN000097500000097500FN00000000020220201000097500NNE   20211214121448    1P0P  00001950000000618200000903432N1    TAYIPL  006400630015
BI00B32N1    NST2115ECU     202201137116-1471                TERMINAL                 CCN000060000000060000FN00000000020220201000060000NNE   20211214121448    4P0P  00001500000000579000000867232N1    TAYIPL  006400630015
BI00B32N1    NST2115ECU     202201137116-1473                TERMINAL                 CCN000095040000108000FN00000000020220201000108000NNE   20211214121448    4P0P  00001350000000523800000809032N1    TAYIPL  006400630015
BI00B32N1    NST2115ECU     202201137116-1486-02             TERMINAL                 CCN000115500000115500FN00000000020220201000115500NNE   20211214121448    4P0P  00001650000000655100000940332N1    TAYIPL  006400630015
BI00B32N1    NST2115ECU     202201137116-2892-02             TERMINAL                 CCN000012000000012000FN00000000020220201000012000NNE   20211214121448    4P0P  00001200000000818400000981832N1    TAYIPL  005100280028
BI00B32N1    NST2115ECU     202201137116-4103-02             TERMINAL                 CCN000096000000096000FN00000000020220201000096000NNE   20211214121448    4P0P  00001200000000571200000859432N1    TAYIPL  006400630015
BI00B32N1    NST2115ECU     202201137116-4415-02             TERMINAL                 CCN000228000000228000FN00000000020220201000228000NNE   20211214121448    4P0P  00003800000000596600000925732N1    TAYIPL  006400630017
BI00B32N1    NST2115ECU     202201137116-4416-02             TERMINAL                 CCN000224000000224000FN00000000020220201000224000NNE   20211214121448    4P0P  00003200000000518400000847132N1    TAYIPL  006400630017
BI00B32N1    NST2115ECU     202201137116-5750-02             TERMINAL                 CCN000015000000015000FN00000000020220201000015000NNE   20211214121448    4P0P  00001500000000457500000742732N1    TAYIPL  006400630015
BI00B32N1    NST2115ECU     202201137158-3006-90             RUBBER STOPPER           CCN001160000001160000FN00000000020220201001160000NNE   20211214121448    1C0C  00002000000000330600000386032N1    TAYIPL  002700430014
BI00B32N1    NST2115ECU     202201137158-3070-80             RUBBER STOPPER           CCN000040000000040000FN00000000020220201000040000NNE   20211214121448    1C0C  00004000000000276000000333332N1    TAYIPL  002700430014
BI00B32N1    NST2115ECU     202201137158-3168-80             SEALED                   CCN000100000000100000FN00000000020220201000100000NNE   20211214121448    1C0C  00002000000000044000000092132N1    TAYIPL  004300260014
BI00B32N1    NST2115ECU     202201137158-3169-40             SEALING PLUG             CCN000040000000040000FN00000000020220201000040000NNE   20211214121448    1C0C  00004000000000156000000204132N1    TAYIPL  004300260014
BI00B32N1    NST2115ECU     202201137283-5830                CONNECTOR                CCN000007530000012000FN00000000020220201000012000NNE   20211214121448    1N47  00000600000000954000001104032N1    TAYIPL  005500360039
BI00B32N1    NST2115ECU     202201137288-3329-30             HOUSING MALE             CCN000025500000025500FN00000000020220201000025500NNE   20211214121448    4N0N  00000150000000866100001011132N1    TAYIPL  005400370024
BI00B32N1    NST2115ECU     202201137289-3342-30             HOUSING FEMALE ASS'Y     CCN000026400000026400FN00000000020220201000026400NNE   20211214121448    1N0N  00000240000000686400000901432N1    TAYIPL  005500360039
BI00B32N1    NST2115ECU     202201137289-4212-80             SEALED HOUSING ASS'Y     CCN000004000000004000FN00000000020220201000004000NNE   20211214121448    4N0N  00000200000000848600000978632N1    TAYIPL  005400370024
BI00B32N1    NST2115ECU     202201137B58-3070-80             RUBBER STOPPER           CCN000080000000080000FN00000000020220201000080000NNE   20211214121448    1C0C  00004000000000276000000333032N1    TAYIPL  004300270014
BI00B32N1    #NST2115ECU    202201137157-3790-90             WIRE SEAL                CCN000020000000020000FN00000000020220201000020000NNE   20211214121448    2C0C  00002000000000176000000232732N1    TAYIPL  002700430014
BI00B32N1    #NST2115ECU    202201137157-3950-80             SEAL RUBBER              CCN000040000000040000FN00000000020220201000040000NNE   20211214121448    2C0C  00004000000000154000000440332N1    TAYIPL  002700430014
BI00B32N1    #NST2115ECU    202201137157-7812                SEAL RUBBER              CCN000030000000030000FN00000000020220201000030000NNE   20211214121448    2C0C  00001000000000137000000202032N1    TAYIPL  002700430014
BI00B32N1    #NST2115ECU    202201137158-3003-90             RUBBER STOPPER           CCN000020000000020000FN00000000020220201000020000NNE   20211214121448    2C0C  00002000000000250000000306032N1    TAYIPL  002700430014
BI00B32N1    #NST2115ECU    202201137158-3008-80             RUBBER STOPPER           CCN000080000000080000FN00000000020220201000080000NNE   20211214121448    2C0C  00002000000000288000000343032N1    TAYIPL  004300270014
BI00B32N1    #NST2115ECU    202201137158-3120-90             CONNECTOR WIRE SEAL      CCN000120000000120000FN00000000020220201000120000NNE   20211214121448    2C0C  00002000000000136000000194032N1    TAYIPL  002700430014
BI00B32N1    #NST2115ECU    202201137158-3121-80             WIRE SEAL                CCN000180000000180000FN00000000020220201000180000NNE   20211214121448    2C0C  00002000000000118000000187332N1    TAYIPL  002700430014
BI00B32N1    #NST2115ECU    202201137183-2414                CONNECTOR HOUSING        CCN000000100000004800FN00000000020220201000004800NNE   20211214121448    2F0F  00000480000000779200001061032N1    TAYIPL  005500360039
BI00B32N1    #NST2115ECU    202201137183-7725-40             HOUSING                  CCN000018000000018000FN00000000020220201000018000NNE   20211214121448    2F0F  00000600000000840000001040032N1    TAYIPL  005600390040
BI00B32N1    #NST2115ECU    202201137283-5834-90             CONNECTOR ASS'Y          CCN000006480000006480FN00000000020220201000006480NNE   20211214121448    2N0N  00000324000001296000001736032N1    TAYIPL  005600390040
BI00B32N1    #NST2115ECU    202201137289-2912-30             HOUSING FEMALE ASS'Y     CCN000012000000012000FN00000000020220201000012000NNE   20211214121448    2N0N  00000200000000804000000929032N1    TAYIPL  005400370024
BI00B32N1    NST2114A 1     202201137116-4031                TERMINAL                 CCN000067500000067500FN00000000020220201000067500NNM   20211214121448    4P0P  00000750000000619500000904732N1    TAYIPL  006400630015
BI00B32N1    NST2114A 1     202201137017-1180-02             TERMINAL                 CCN000072000000072000FN00000000020220201000072000NNM   20211214121448    4P0P  00007200000001065600001229032N1    TAYIPL  005100280028
BI00B32N1    NST2114A 1     202201137116-4121-02             TERMINAL                 CCN000004500000004500FN00000000020220201000004500NNM   20211214121448    4P0P  00000450000000618800000912432N1    TAYIPL  006400630015
BI00B32N1    NST2114A 1     202201137114-4030                TERMINAL                 CCN000010500000010500FN00000000020220201000010500NNM   20211214121448    4P0P  00001050000000926100001254732N1    TAYIPL  006400630017
BI00B32N1    NST2114A 1     202201137116-4101-02             TERMINAL                 CCN000012000000012000FN00000000020220201000012000NNM   20211214121448    4P0P  00001200000000582000000876232N1    TAYIPL  006400630015
BI00B32N1    NST2114A 1     202201137116-4122-02             TERMINAL                 CCN000018000000018000FN00000000020220201000018000NNM   20211214121448    4P0P  00000450000000656600000950232N1    TAYIPL  006400630015
BI00B32N1    NST2114A 1     202201137282-6568-40             CONNECTOR                CCN000002000000002000FN00000000020220201000002000NNM   20211214121448    4N0N  00000100000001206000001370732N1    TAYIPL  005500360039
BI00B32N1    NST2114A 1     202201137282-4855                HOUSING MALE ASS'Y       CCN000006000000006000FN00000000020220201000006000NNM   20211214121448    4N0N  00000120000001063200001283232N1    TAYIPL  005500360039
BI00B32N1    NST2114A 1     202201137283-4855                CONNECTOR HOUSING        CCN000008000000009600FN00000000020220201000009600NNM   20211214121448    4N0N  00000240000001188400001400032N1    TAYIPL  005500360039
BI00B32N1    #NST2114A 1    202201137183-2418-30             CONNECTOR HOUSING        CCN000004800000004800FN00000000020220201000004800NNM   20211214121448    2F0F  00000480000000917000001235332N1    TAYIPL  005500360039
BI00B32N1    #NST2114A 1    202201137282-6458-40             CONNECTOR                CCN000001000000001000FN00000000020220201000001000NNM   20211214121448    2N0N  00000100000001206000001350532N1    TAYIPL  005500360039
BI00B32N1    @NST2114A 1    202201137123-2825                HOUSING                  CCN000084000000084000FN00000000020220201000084000NNM   20211214121448    3F0F  00000600000000958800001136432N1    TAYIPL  005500360039
BI00B32N1    NST2114A 2     202201207116-1301                TERMINAL                 CCN000045000000045000FN00000000020220201000045000NNM   20211214121448    4P0P  00001500000000487500000772732N1    TAYIPL  006400630015
BI00B32N1    NST2114A 2     202201207114-4100-02             TERMINAL                 CCN000090000000090000FN00000000020220201000090000NNM   20211214121448    4P0P  00001800000000748800001077432N1    TAYIPL  006400630017
BI00B32N1    NST2114A 2     202201207116-4031                TERMINAL                 CCN000052500000052500FN00000000020220201000052500NNM   20211214121448    4P0P  00000750000000619500000904732N1    TAYIPL  006400630015
BI00B32N1    NST2114A 2     202201207116-4100-02             TERMINAL                 CCN000060000000060000FN00000000020220201000060000NNM   20211214121448    4P0P  00001500000000696000000990232N1    TAYIPL  006400630015
BI00B32N1    NST2114A 2     202201207116-6042                TERMINAL                 CCN000006000000006000FN00000000020220201000006000NNM   20211214121448    4P0P  00000300000000523800000856132N1    TAYIPL  006400630015
BI00B32N1    NST2114A 2     202201207116-4103-02             TERMINAL                 CCN000012000000012000FN00000000020220201000012000NNM   20211214121448    4P0P  00001200000000571200000859432N1    TAYIPL  006400630015
BI00B32N1    NST2114A 2     202201207116-4121-02             TERMINAL                 CCN000013500000013500FN00000000020220201000013500NNM   20211214121448    4P0P  00000450000000618800000912432N1    TAYIPL  006400630015
BI00B32N1    NST2114A 2     202201207114-4112-02             TERMINAL                 CCN000027000000027000FN00000000020220201000027000NNM   20211214121448    4P0P  00000900000000598500000927132N1    TAYIPL  006400630017
BI00B32N1    NST2114A 2     202201207114-4111-02             TERMINAL                 CCN000048000000048000FN00000000020220201000048000NNM   20211214121448    4P0P  00001200000000758400001087032N1    TAYIPL  006400630017
BI00B32N1    NST2114A 2     202201207196-0396-02             TERMINAL                 CCN000015000000015000FN00000000020220201000015000NNM   20211214121448    4P0P  00001500000000949500001112932N1    TAYIPL  002800510028
BI00B32N1    NST2114A 2     202201207116-4112-02             TERMINAL                 CCN000006000000006000FN00000000020220201000006000NNM   20211214121448    4P0P  00000600000000450000000738232N1    TAYIPL  006400630015
BI00B32N1    NST2114A 2     202201207114-4030                TERMINAL                 CCN000010500000010500FN00000000020220201000010500NNM   20211214121448    4P0P  00001050000000926100001254732N1    TAYIPL  006400630017
BI00B32N1    NST2114A 2     202201207116-4101-02             TERMINAL                 CCN000036000000036000FN00000000020220201000036000NNM   20211214121448    4P0P  00001200000000582000000876232N1    TAYIPL  006400630015
BI00B32N1    NST2114A 2     202201207116-4104-02             TERMINAL                 CCN000012000000012000FN00000000020220201000012000NNM   20211214121448    4P0P  00001200000000580800000972432N1    TAYIPL  006400630015
BI00B32N1    NST2114A 2     202201207116-4032                TERMINAL                 CCN000012000000012000FN00000000020220201000012000NNM   20211214121448    4P0P  00000600000000532800000818032N1    TAYIPL  006400630015
BI00B32N1    NST2114A 2     202201207116-4122-02             TERMINAL                 CCN000054000000054000FN00000000020220201000054000NNM   20211214121448    4P0P  00000450000000656600000950232N1    TAYIPL  006400630015
BI00B32N1    NST2114A 2     202201207282-6568-40             CONNECTOR                CCN000004000000004000FN00000000020220201000004000NNM   20211214121448    4N0N  00000100000001206000001370732N1    TAYIPL  005500360039
BI00B32N1    NST2114A 2     202201207282-5574-10             CONNECTOR                CCN000001600000001600FN00000000020220201000001600NNM   20211214121448    4N0N  00000080000001235000001423032N1    TAYIPL  005600390040
BI00B32N1    NST2114A 2     202201207116-2893-02             TERMINAL                 CCN000012000000012000FN00000000020220201000012000NNM   20211214121448    4P0P  00001200000000895200001058632N1    TAYIPL  005100280028
BI00B32N1    NST2114A 2     202201207282-4855                HOUSING MALE ASS'Y       CCN000004000000004800FN00000000020220201000004800NNM   20211214121448    4N0N  00000120000001063200001283232N1    TAYIPL  005500360039
BI00B32N1    NST2114A 2     202201207283-4855                CONNECTOR HOUSING        CCN000004000000004800FN00000000020220201000004800NNM   20211214121448    4N0N  00000240000001188400001400032N1    TAYIPL  005500360039
BI00B32N1    #NST2114A 2    202201207157-3821                RUBBER STOPPER           CCN000220000000220000FN00000000020220201000220000NNM   20211214121448    2C0C  00002000000000176000000238032N1    TAYIPL  002700430014
BI00B32N1    #NST2114A 2    202201207157-3950-80             SEAL RUBBER              CCN000080000000080000FN00000000020220201000080000NNM   20211214121448    2C0C  00004000000000154000000440332N1    TAYIPL  002700430014
BI00B32N1    #NST2114A 2    202201207283-8397-40             CONNECTOR                CCN000004620000004620FN00000000020220201000004620NNM   20211214121448    2N0N  00000154000001007000001222732N1    TAYIPL  005600390023
BI00B32N1    #NST2114A 2    202201207158-3376-50             CONNECTOR WIRE SEAL      CCN000020000000020000FN00000000020220201000020000NNM   20211214121448    2C0C  00002000000000184000000240732N1    TAYIPL  002700430014
BI00B32N1    #NST2114A 2    202201207282-6458-40             CONNECTOR                CCN000002000000002000FN00000000020220201000002000NNM   20211214121448    2N0N  00000100000001206000001350532N1    TAYIPL  005500360039
BI00B32N1    #NST2114A 2    202201207114-4022                TERMINAL                 CCN000015000000015000FN00000000020220201000015000NNM   20211214121448    2F0P  00001500000000708000001120632N1    TAYIPL  006400630015
BI00B32N1    @NST2114A 2    202201207123-2825                HOUSING                  CCN000060000000060000FN00000000020220201000060000NNM   20211214121448    3F0F  00000600000000958800001136432N1    TAYIPL  005500360039
BI00B32N1    NST2114B-1     202112237183-7665-30             HOUSING                  CCN000001200000001200FN00000000020220101000001200NNE   20211214151334    1F0F  00000120000001103300001247832N1    TAYIPL  005500360039
BI00B32N1    NST2114B-1     202112237126-8853-02             TERMINAL                 CCN000002170000007500FN00000000020220101000007500NNE   20211214151942    4P0P  00000750000000562500000847732N1    TAYIPL  006400630015
BI00B32N1    NST2114B-1     202112237126-8854-02             TERMINAL                 CCN000013020000015000FN00000000020220101000015000NNE   20211214151942    4P0P  00000750000000604500000889732N1    TAYIPL  006400630015
BI00B32N1    NST2114B-2     202201137126-8854-02             TERMINAL                 CCN000006510000007500FN00000000020220101000007500NNE   20211214121448    4P0P  00000750000000604500000889732N1    TAYIPL  006400630015
BI00B32N1    NST2114B-1     202112237116-4031                TERMINAL                 CCN000030000000030000FN00000000020220101000030000NNE   20211214151942    4P0P  00000750000000619500000904732N1    TAYIPL  006400630015
BI00B32N1    NST2114B-1     202112237282-4855                HOUSING MALE ASS'Y       CCN000002000000002400FN00000000020220101000002400NNE   20211214151942    4N0N  00000120000001063200001283232N1    TAYIPL  005500360039
BI00B32N1    NST2114B-1     202201277283-4855                CONNECTOR HOUSING        CCN000002000000002400FN00000000020220101000002400NNED0420211214121448    4N0N  00000240000001188400001400032N1    TAYIPL  005500360039
BI00B32N1    #NST2114B-1    202112237154-3421                SPACER                   CCN000001000000010000FN00000000020220101000010000NNED0020211214121448    2F0F  00001000000000560000000781032N1    TAYIPL  005500360039
BI00B32N1    @NST2114B-1    202112237283-1100                CONNECTOR ASS'Y          CCN000001600000001600FN00000000020220101000001600NNE   20211214151547    3N0N  00000160000000566500000799632N1    TAYIPL  005500360039
BI00A32P8    #TAPI-1122     202112087157-7812                SEAL RUBBER              PCN000130000000130000FY00013000020211201000000000NNM00020211214130436    2C0C  00001000000000137000000202032P8    YIYTM   002700430014
BI00B32P8    #TAPI-2015     202112297172-5629-80             RUBBER STOPPER           CCN000140000000140000FN00000000020220101000140000NNMD0020211214121448    2H0H  00002000000000060000000111132P8    YIYTM   004300270014
BI00B32P8    #TAPI-2015     202112297172-5630-40             RUBBER STOPPER           CCN000160000000160000FN00000000020220101000160000NNMD0020211214121448    2H0H  00002000000000044000000095132P8    YIYTM   004300270014
BI00B32Q8    #EU22013 MW    202112297158-3007-10             RUBBER STOPPER           CCN000320000000320000FN00000000020220101000320000NNMD0020211214121448    2H0H  00002000000000308000000362732Q8    EMEMI   002700430014
BI00B32Q8    #EU22013 MW    202112297283-8123                CONNECTOR HOUSING        CCN000004000000004000FN00000000020220101000004000NNMD0020211214121448    2N0N  00000400000000380000000531732Q8    EMEMI   005600390023
BI00B32Q8    EU22012TMW     202112227287-1917                CONNECTOR FEMALE         CCN000033600000033600FN00000000020220101000033600NNMD0220211214121448    4N0N  00000240000001060800001312532Q8    EMEMI   005500360039
BI00B32Q8    EU22012TMW     202112237287-1917                CONNECTOR FEMALE         CCN000016800000000000FY00000000020220101000000000NNMD0220211214113033    4N0N  00000240000001060800001312532Q8    EMEMI   005500360039
BI00B32Q8    @EU2203A MW    202202167282-1040                HOUSING SUB ASSEMBLY     CCN000001000000002400FN00000000020220301000002400NNE   20211214152805    3N0N  00000240000001014400001256032Q8    EMEMI   005500360039
BI00B32R7    R-TAP210617    202201067158-3167-80             WIRE SEAL                CCN000160000000160000FN00000000020220101000160000NNED0720211214163640    1C0C  00002000000000048000000109032R7    IVYCIC  002700430014
BI00B32R8    #TT22022TMW    202112217172-5629-80             RUBBER STOPPER           CCN000020000000020000FN00000000020220201000020000NNM00020211214143722    2H0H  00002000000000060000000111132R8    TTTJY   004300270014
BI00B32R8    #TT22022TMW    202112217172-5630-40             RUBBER STOPPER           CCN000020000000020000FN00000000020220201000020000NNM00020211214143722    2H0H  00002000000000044000000095132R8    TTTJY   004300270014
BI00A32U5    #DI1045A       202112177289-4200-30             HOUSING FEMALE ASS'Y     CCN000018000000018000FN00000000020211201000018000NNEM0020211214165414U5  2N0N  00000200000000926000001021032U5    AMAMSD  005400370024
BI00A32U5    DI2003         202112177289-3342                HOUSING FEMALE ASS'Y     CCN000014400000014400FN00000000020220301000014400NNMM0020211214144553U5  1N0N  00000240000000686400000901432U5    AMAMSD  005500360039
BI00B32U5    DI2004         202201147289-3342                HOUSING FEMALE ASS'Y     CCN000016800000007200FN00000000020220301000007200NNMD0420211214144726U5  1N0N  00000240000000686400000901432U5    AMAMSD  005500360039
BI00A32U5    DI2004         202112177327-6731-3W             BATTERY FUSE             CCN000000640000000640FN00000000020220301000000640NNMM0020211214154258U5  4N0N  00000006400000697600000843032U5    AMAMSD  005400370024
BI00A32U5    #DI2005        202112177158-3017                RUBBER STOPPER           CCN000010000000010000FN00000000020220301000010000NNMM0020211214151617U5  2C0C  00001000000000375500000435032U5    AMAMSD  002700430014
BI00A32U5    #DI2005        202112177158-3008-80             RUBBER STOPPER           CCN000040000000040000FN00000000020220301000040000NNMM0020211214151753U5  2C0C  00002000000000288000000343032U5    AMAMSD  004300270014
BI00A32U5    #DI2005        202112147289-4200-30             HOUSING FEMALE ASS'Y     CCN000004000000004000FN00000000020220301000004000NNMM0020211214165327U5  2N0N  00000200000000926000001021032U5    AMAMSD  005400370024
BI00A32U5    #DI2006        202112177158-3017                RUBBER STOPPER           CCN000020000000020000FN00000000020220301000020000NNMM0020211214151636U5  2C0C  00001000000000375500000435032U5    AMAMSD  002700430014
BI00A32U5    #DI2006        202112177158-3008-80             RUBBER STOPPER           CCN000020000000020000FN00000000020220301000020000NNMM0020211214151816U5  2C0C  00002000000000288000000343032U5    AMAMSD  004300270014
BI00A32U5    #DI2006        202112177289-4200-30             HOUSING FEMALE ASS'Y     CCN000004000000004000FN00000000020220301000004000NNMM0020211214165344U5  2N0N  00000200000000926000001021032U5    AMAMSD  005400370024
BI00B32U5    #DI2007        202201147158-3005-80             RUBBER STOPPER           CCN000040000000020000FN00000000020220401000020000NNMQ0020211214165254U5  2H0H  00002000000000210000000268732U5    AMAMSD  002700430014
BI00B32U5    DI2008         202201217289-3342                HOUSING FEMALE ASS'Y     CCN000024000000024000FN00000000020220401000024000NNMD0020211214144349U5  1N0N  00000240000000686400000901432U5    AMAMSD  005500360039
BI00B32U5    DI2008         202201217287-1915-40             CONNECTOR ASS'Y          CCN000004800000004800FN00000000020220401000004800NNMD0020211214144349U5  4N0N  00000240000000666500000923132U5    AMAMSD  005500360039
BI00B32U5    DI2008         202201217289-3342-30             HOUSING FEMALE ASS'Y     CCN000026400000026400FN00000000020220401000026400NNMD0020211214144349U5  1N0N  00000240000000686400000901432U5    AMAMSD  005500360039
BI00A32U5    DI2004         202112177289-3342                HOUSING FEMALE ASS'Y     CCN000009600000009600FN00000000020220301000009600NNMM0020211214144731U5  1N0N  00000240000000686400000901432U5    AMAMSD  005500360039
BI00A32U5    #DI2007        202112177158-3005-80             RUBBER STOPPER           CCN000020000000020000FN00000000020220401000020000NNMM0020211214165300U5  2H0H  00002000000000210000000268732U5    AMAMSD  002700430014
BI00A32W4    #4500180440    202201047157-3821                RUBBER STOPPER           CCN000040000000040000FN00000000020220101000040000NNED0020211214121448W43 2C0C  00002000000000176000000238032W43   HJYHK   002700430014
BI00B32W4    4500181234     202112207116-4124-02             TERMINAL                 CCN000003000000003000FN00000000020220101000003000NNED0020211214121448W4184P0P  00000300000000459900000753532W418  HJYHK   006400630015
BI00B32W4    4500182681     202201117287-1917                CONNECTOR FEMALE         CCN000012000000012000FN00000000020211201000012000NNED0420211214121448W4K84N0N  00000240000001060800001312532W4K8  HJYHK-J 005500360039
BI00A32W4    4500184083     202201047116-4111-02             TERMINAL                 CCN000015000000015000FN00000000020220101000015000NNED0020211214121448W4N24P0P  00000750000000529500000817732W4N2  HJYHK-J 006400630015
BI00A32W4    4500184083     202201047114-4101-02             TERMINAL                 CCN000015000000015000FN00000000020220101000015000NNED0020211214121448W4N24P0P  00001500000000675000001003632W4N2  HJYHK-J 006400630017
BI00A32W4    4500184718     202201047116-4100-02             TERMINAL                 CCN000015000000015000FN00000000020220101000015000NNED0020211214121448W4L64P0P  00001500000000696000000990232W4L6  HJYHK-K 006400630015
BI00B32W9    4500176555     202112157289-6868-30             SEALED ASSY FEMALE       CCN000252000000252000FN00000000020211101000252000NNE00020211214160405W9  4N0N  00000252000000839200001119232W9    HKYHK   005500360039
BI00A32X5    TIB1036D       202112137289-3342-30             HOUSING FEMALE ASS'Y     CCN000115200000012000FY00001200020211001000000000NNE00 20211214162130X5  1N0N  00000240000000686400000901432X5    EPYNA-E 005500360039
BI00A32X5    #TIB2001       202112137172-5630-40             RUBBER STOPPER           CCN000200000000200000FY00020000020220201000000000NNM00 20211214131713X5  2H0H  00002000000000044000000095132X5    EPYNA-E 004300270014
BI00A32X5    TIB1036D       202112157289-3342-30             HOUSING FEMALE ASS'Y     CCN000012000000012000FN00000000020211001000012000NNEM0020211214162130X5  1N0N  00000240000000686400000901432X5    EPYNA-E 005500360039
BI00B32X5    TIB2008        202201217283-4855-40             CONNECTOR HOUSING        CCN000002400000002400FN00000000020220401000002400NNMD0020211214143752X5  4N0N  00000240000001188400001400032X5    EPYNA-E 005600360039
BI00B32X5    TIB2008        202201217289-3342-30             HOUSING FEMALE ASS'Y     CCN000084000000084000FN00000000020220401000084000NNMD0020211214143835X5  1N0N  00000240000000686400000901432X5    EPYNA-E 005500360039
BI00B32X5    TIB2008        202205137289-3342-30             HOUSING FEMALE ASS'Y     CCN000045600000000000FY00000000020220401000000000NNMQ0020211214143835X5  1N0N  00000240000000686400000901432X5    EPYNA-E 005500360039
BI00A32Y1    TA1121A        202112217158-3006-90             RUBBER STOPPER           PCN000420000000420000FN00000000020211201000420000NNM00 20211214141426    1C0C  00002000000000330600000386032Y1    YAYAS   002700430014
BI00B32Y2    TAU1151        202112167288-3206                HOUSING MALE ASS'Y       CCN000024480000008160FN00000000020220201000008160NNE00020211214132341    1N0N  00000102000000387600000787632Y2    YUYUY   005500360039
BI00B32Y2    TAU1151        202112097288-3206                HOUSING MALE ASS'Y       CCN000008160000008160FY00000816020220201000000000NNED0420211214132333    1N0N  00000102000000387600000787632Y2    YUYUY   005500360039
BI00B32Y5    TTA32031       202112167289-3342-30             HOUSING FEMALE ASS'Y     CCN000019200000019200FN00000000020220101000019200NNMD0420211214160024    1N0N  00000240000000686400000901432Y5    BZYBL   005500360039
BI00B32Y5    TTA32031       202112167289-3342-40             HOUSING FEMALE ASS'Y     CCN000024000000024000FN00000000020220101000024000NNMD0420211214160024    1N0N  00000240000000686400000901432Y5    BZYBL   005500360039
BI00B32Y5    TTA32031       202112167289-3342-90             HOUSING FEMALE ASS'Y     CCN000019200000019200FN00000000020220101000019200NNM00020211214160024    1N0N  00000240000000686400000901432Y5    BZYBL   005500360039
BI00A32Y6    #STAP32011     202112147289-4200-30             HOUSING FEMALE ASS'Y     PCN000022000000022000FY00002200020211101000000000NNM00020211214164549    2N0N  00000200000000926000001021032Y6    BSYBL-S 005400370024
BI00A32Y6    STAP32031      202112137388-2978-30             HOUSING MALE ASS'Y       PCN000014400000014400FY00001440020220301000000000NNM00 20211214141032    1N0N  00000048000000742000001122032Y6    BSYBL-S 005500360039
BI00B32Y8    TAIM2111A      202112237289-3342-30             HOUSING FEMALE ASS'Y     CCN000002400000002400FN00000000020220201000002400NNM00020211214132247Y8  1N0N  00000240000000686400000901432Y8    CLYCL   005500360039
BI00A32Y8    TAIM21111      202112097114-4031                TERMINAL                 CCN000010500000010500FY00001050020220401000000000NNED0020211214130741Y8  4P0P  00001050000000966000001294632Y8    CLYCL   006400630017
BI00A32Y8    TAIM21114      202112097114-4020                TERMINAL                 CCN000042000000042000FY00004200020220401000000000NNED0020211214131018Y8  4P0P  00002100000000875700001169332Y8    CLYCL   006400630015
BI00A32Y8    TAIM21114      202112097114-4021                TERMINAL                 CCN000015000000015000FY00001500020220401000000000NNED0020211214131007Y8  4P0P  00001500000000670500000964132Y8    CLYCL   006400630015
BI00A32Y8    TAIM21114      202112097114-4032                TERMINAL                 CCN000007500000007500FY00000750020220401000000000NNED0020211214130958Y8  4P0P  00000750000000735000001063632Y8    CLYCL   006400630017
BI00A32Y8    TAIM21114      202112097235-8662                DOOR GROMMET             CCN000002240000002240FY00000224020220401000000000NNED0020211214130927Y8  4N0N  00000016000000844000001010032Y8    CLYCL   005500360039
BI00A32Y8    TAIM21114      202112097017-1183-02             TERMINAL                 CCN000027000000027000FY00002700020220401000000000NNED0020211214131026Y8  4P0P  00002700000001139400001307432Y8    CLYCL   005100280028
BI00A32Y8    TAIM21114      202112097116-1685-02             TERMINAL                 CCN000024000000024000FY00002400020220401000000000NNED0020211214130943Y8  4P0P  00002400000000897600001065232Y8    CLYCL   005100280028
