BI00A1200    2399T51730     202201047288-6547                CONNECTOR MALE ASS'Y     PCN000150000000123000FN00000000020210901000123000NNMD0420211222181414    4N0N  0000007500000120530000134031200    YCYC    005400370024
BI00A1200    2399T51813     202201047288-6547                CONNECTOR MALE ASS'Y     PCN000085500000085500FN00000000020211001000085500NNMM0020211222181414    4N0N  0000007500000120530000134031200    YCYC    005400370024
BI00A1200    2399T51814     202201047288-6547                CONNECTOR MALE ASS'Y     PCN000085500000042000FN00000000020211001000042000NNMM0020211222181414    4N0N  0000007500000120530000134031200    YCYC    005400370024
BI00A1200    2399T51815     202201107288-6547                CONNECTOR MALE ASS'Y     PCN000085500000085500FN00000000020211001000085500NNMM0020211222181414    4N0N  0000007500000120530000134031200    YCYC    005400370024
BI00A1200    2399T51816     202201107288-6547                CONNECTOR MALE ASS'Y     PCN000085500000085500FN00000000020211001000085500NNMM0020211222181414    4N0N  0000007500000120530000134031200    YCYC    005400370024
BI00A1200    2399T51818     202201107288-6547                CONNECTOR MALE ASS'Y     PCN000084750000036000FN00000000020211101000036000NNMM0020211222181414    4N0N  0000007500000120530000134031200    YCYC    005400370024
BI00A1200    2399T51920     202201177288-6547                CONNECTOR MALE ASS'Y     PCN000216750000201750FN00000000020211101000201750NNM00020211222181414    4N0N  0000007500000120530000134031200    YCYC    005400370024
BI00A1200    2399T51921     202201247288-6547                CONNECTOR MALE ASS'Y     PCN000216750000216750FN00000000020211101000216750NNM00020211222181414    4N0N  0000007500000120530000134031200    YCYC    005400370024
BI00A1200    2399T51920     202112207289-5979-30             HOUSING FEMALE ASS'Y     PCN000011592000004032FY00000403220211101000000000NNM00020211222140917    1N0N  0000002520000085470000106471200    YCYC    005400370024
BI00A1200    2399T51A16     202201247288-6547                CONNECTOR MALE ASS'Y     PCN000311250000018750FN00000000020211201000018750NNMQ0420211222181414    4N0N  0000007500000120530000134031200    YCYC    005400370024
BI00B1200    7360T51A02     202202247289-3342-30             HOUSING FEMALE ASS'Y     CCN000040800000009600FN00000000020211201000009600NNMQ0420211222181414    1N0N  0000024000000068640000090141200    YCYC    005500360039
BI00B1200    7360T51A03     202203107289-3342-30             HOUSING FEMALE ASS'Y     CCN000040800000019200FN00000000020211201000019200NNMQ0420211222181414    1N0N  0000024000000068640000090141200    YCYC    005500360039
BI00B1200    7360T51A04     202203247289-3342-30             HOUSING FEMALE ASS'Y     CCN000040800000019200FN00000000020211201000019200NNMQ0420211222181414    1N0N  0000024000000068640000090141200    YCYC    005500360039
BI00A1200    7360T51A01     202112287289-3342-30             HOUSING FEMALE ASS'Y     CCN000021600000021600FN00000000020211201000021600NNMD0420211222181414    1N0N  0000024000000068640000090141200    YCYC    005500360039
BI00B1200    7360T51A02     202203037289-3342-30             HOUSING FEMALE ASS'Y     CCN000021600000021600FN00000000020211201000021600NNMD0420211222181414    1N0N  0000024000000068640000090141200    YCYC    005500360039
BI00B1200    7360T51A03     202203177289-3342-30             HOUSING FEMALE ASS'Y     CCN000021600000021600FN00000000020211201000021600NNMD0420211222181414    1N0N  0000024000000068640000090141200    YCYC    005500360039
BI00B1200    7360T51A04     202203317289-3342-30             HOUSING FEMALE ASS'Y     CCN000021600000021600FN00000000020211201000021600NNMD0420211222181414    1N0N  0000024000000068640000090141200    YCYC    005500360039
BI00A1200    2399T51730     202201117288-6547                CONNECTOR MALE ASS'Y     PCN000075000000000000FY00000000020210901000000000NNMD0420211222155800    4N0N  0000007500000120530000134031200    YCYC    005400370024
BI00A1200    2399T51C20     202112237298-2853-30             HOUSING FEMALE ASS'Y     CCN000000480000000480FN00000000020220101000000480NNMM0020211222181414    4N0N  0000002400000109490000136091200    YCYC    005500360039
BI00A1200    2399T51C21     202201067298-2853-30             HOUSING FEMALE ASS'Y     CCN000000480000000480FN00000000020220101000000480NNMM0020211222181414    4N0N  0000002400000109490000136091200    YCYC    005500360039
BI00B1200    7360T51C01     202205057289-3342-30             HOUSING FEMALE ASS'Y     CCN000021600000021600FN00000000020220101000021600NNMD0420211222181414    1N0N  0000024000000068640000090141200    YCYC    005500360039
BI00B1200    7360T51C02     202204217289-3342-30             HOUSING FEMALE ASS'Y     CCN000021600000021600FN00000000020220101000021600NNMD0420211222181414    1N0N  0000024000000068640000090141200    YCYC    005500360039
BI00B1200    7360T51C03     202204287289-3342-30             HOUSING FEMALE ASS'Y     CCN000021600000021600FN00000000020220101000021600NNMD0420211222181414    1N0N  0000024000000068640000090141200    YCYC    005500360039
BI00A1200    2399T51814     202201107288-6547                CONNECTOR MALE ASS'Y     PCN000043500000043500FN00000000020211001000043500NNMM0020211222181414    4N0N  0000007500000120530000134031200    YCYC    005400370024
BI00A1200    2399T51818     202201177288-6547                CONNECTOR MALE ASS'Y     PCN000048750000048750FN00000000020211101000048750NNMM0020211222181414    4N0N  0000007500000120530000134031200    YCYC    005400370024
BI00A1200    2399T51920     202201247288-6547                CONNECTOR MALE ASS'Y     PCN000015000000015000FN00000000020211101000015000NNM00020211222181414    4N0N  0000007500000120530000134031200    YCYC    005400370024
BI00B1200    Y022C50050     202202247298-1145-4W             SQUIB SUB ASS'Y          CCN000020000000020000FN00000000020220301000020000NNM   20211222181414    4N0N  0000100000000078790000094491200    YCYC    005400370024
BI00B1200    2399T51A16     202202047288-6547                CONNECTOR MALE ASS'Y     CCN000056250000056250FN00000000020211201000056250NNMQ0420211222181414    4N0N  0000007500000120530000134031200    YCYC    005400370024
BI00B1200    TAPC-211222    202201277196-0805-02             TERMINAL FEMALE          CCN000022500000022500FN00000000020220201000022500NNE   20211222181414    4P0P  0000225000000055800000084321200    YCYC    006400630015
BI00A1200    HIB21121301    202201257195-1480-02             TERMINAL MALE            CCN000024000000024000FN00000000020220101000024000NNE   20211222181414    4P0P  0000240000000042240000071661200    YCYC    006400630015
BI00A1200    HIB21121301    202201257196-2027-02             TERMINAL FEMALE          CCN000024000000024000FN00000000020220101000024000NNE   20211222181414    4P0P  0000240000000104400000120741200    YCYC    005100280028
BI00A1200    HIB21121301    202201257196-2032-02             TERMINAL FEMALE          CCN000015000000015000FN00000000020220101000015000NNE   20211222181414    4P0P  0000150000000107100000123441200    YCYC    005100280028
BI00A1200    HIB21121301    202201257126-8892-02             FUSE TERMINAL            CCN000006000000006000FN00000000020220101000006000NNE   20211222181414    4P0P  0000060000000049500000078021200    YCYC    006400630015
BI00A1200    HIB21121301    202201257195-2046-02             TERMINAL MALE            CCN000008400000008400FN00000000020220101000008400NNE   20211222181414    4P0P  0000084000000081820000111181200    YCYC    006400630015
BI00A1200    HIB21121301    202201257196-1941-02             TERMINAL FEMALE          CCN000011400000011400FN00000000020220101000011400NNE   20211222181414    4P0P  0000114000000050620000079441200    YCYC    006400630015
BI00B1200    CE21-MN-0166   202202037195-2046-02             TERMINAL MALE            CCN000007500000008400FN00000000020220201000008400NNE   20211222181414    4P0P  0000084000000081820000111181200    YCYC    006400630015
BI00B1200    CE21-MN-0166   202202037126-8889-02             FUSE TERMINAL            CCN000006000000006000FN00000000020220201000006000NNE   20211222181414    4P0P  0000060000000044820000073341200    YCYC    006400630015
BI00B1200    CE21-MN-0166   202202037126-8890-02             FUSE TERMINAL            CCN000006000000006000FN00000000020220201000006000NNE   20211222181414    4P0P  0000060000000046500000075021200    YCYC    006400630015
BI00B1200    CE21-MN-0166   202202037126-8891-02             FUSE TERMINAL            CCN000006000000006000FN00000000020220201000006000NNE   20211222181414    4P0P  0000060000000048180000076701200    YCYC    006400630015
BI00B1200    CE21-MN-0166   202202037126-8892-02             FUSE TERMINAL            CCN000006000000006000FN00000000020220201000006000NNE   20211222181414    4P0P  0000060000000049500000078021200    YCYC    006400630015
BI00A1200    QA-21-C136     202112237289-6524-30             HOUSING FEMALE ASS'Y     PNY000002400000002400FN00000000020211201000002400NNED0020211222181414    4N0N  0000002400000135120000166621200    YCYC    005500360039
BI00B32CC    CTA32021       202201067289-3342-30             HOUSING FEMALE ASS'Y     CCN000031200000031200FN00000000020211201000031200NNM00020211222181414    1N0N  00000240000000686400000901432CC    BIYABCBU005500360039
BI00B32CC    CTA32024       202201067289-3342                HOUSING FEMALE ASS'Y     CCN000007200000007200FN00000000020220101000007200NNM00020211222181414    1N0N  00000240000000686400000901432CC    BIYABCBU005500360039
BI00B32CC    CTA32024       202201067289-3342-30             HOUSING FEMALE ASS'Y     CCN000021600000021600FN00000000020220101000021600NNM00020211222181414    1N0N  00000240000000686400000901432CC    BIYABCBU005500360039
BI00B32CC    CTA32031       202201067289-3342-30             HOUSING FEMALE ASS'Y     CCN000024000000024000FN00000000020220301000024000NNE00020211222181414    1N0N  00000240000000686400000901432CC    BIYABCBU005500360039
BI00B32CC    CTA32043       202201207283-4855                CONNECTOR HOUSING        CCN000012000000012000FN00000000020211201000012000NNE   20211222181414    4N0N  00000240000001188400001400032CC    BIYABCBU005500360039
BI00B32CC    CTA32043       202201207289-3342                HOUSING FEMALE ASS'Y     CCN000004800000004800FN00000000020211201000004800NNE   20211222181414    1N0N  00000240000000686400000901432CC    BIYABCBU005500360039
BI00B32CC    CTA32043       202201207289-3342-30             HOUSING FEMALE ASS'Y     CCN000019200000019200FN00000000020211201000019200NNE   20211222181414    1N0N  00000240000000686400000901432CC    BIYABCBU005500360039
BI00B32CC    CTA32043       202201207289-6868-30             SEALED ASSY FEMALE       CCN000050400000050400FN00000000020211201000050400NNE   20211222181414    4N0N  00000252000000839200001119232CC    BIYABCBU005500360039
BI00B32CC    #CTA32043      202201207283-8226-30             CONNECTOR                CCN000050000000050000FN00000000020211201000050000NNE   20211222181414    2N0N  00000200000000820000001008032CC    BIYABCBU005400370024
BI00B32CC    #CTA32043      202201207157-7812                SEAL RUBBER              CCN000010000000010000FN00000000020211201000010000NNE   20211222181414    2C0C  00001000000000137000000202032CC    BIYABCBU002700430014
BI00B32CC    #CTA32043      202201207183-7725-40             HOUSING                  CCN000012000000012000FN00000000020211201000012000NNE   20211222181414    2F0F  00000600000000840000001040032CC    BIYABCBU005600390040
BI00B32CC    #CTA32043      202201207282-6457-40             CONNECTOR                CCN000000800000000800FN00000000020211201000000800NNE   20211222181414    2N0N  00000080000001137000001421332CC    BIYABCBU005600390040
BI00B32CH    SJ2202AHMW     202202037C89-6868-30             SEALED ASSY FEMALE       CCN000005040000005040FN00000000020220201000005040NNED0420211222181414    4N0N  00000252000000839200001119232CH    SJSAMIJF005500360039
BI00B32CH    SJ2202AHMW     202203247327-6870-30             MULTI FUSE               CCN000000576000000576FN00000000020220201000000576NNED0420211222181414    4N0N  00000028800001015200001181132CH    SJSAMIJF005400370024
BI00B32CH    SJ2202AHMW     202203247327-6872-30             MULTI FUSE               CCN000000864000000864FN00000000020220201000000864NNED0420211222181414    4N0N  00000028800000984500001150432CH    SJSAMIJF005400370024
BI00B32CH    SJ2202AHMW     202203247327-6878-30             MULTI FUSE               CCN000000576000000576FN00000000020220201000000576NNED0420211222181414    4N0N  00000028800000989700001155632CH    SJSAMIJF005400370024
BI00B32CH    SJ2202AHMW     202203247327-6882-30             MULTI FUSE               CCN000001152000001152FN00000000020220201000001152NNED0420211222181414    4N0N  00000028800001015900001181832CH    SJSAMIJF005400370024
BI00B32CH    SJ2202AHMW     202203247327-6884-30             MULTI FUSE               CCN000013248000013248FN00000000020220201000013248NNED0420211222181414    4N0N  00000028800000988900001154832CH    SJSAMIJF005400370024
BI00A32CJ    #JQN2014       202112247172-5629-80             RUBBER STOPPER           PCN000140000000140000FN00000000020220101000140000NNM00020211222183804    2H0H  00002000000000060000000111132CJ    QNYHVQN 004300270014
BI00B32DE    TCT1104        202112217114-5746-02             TERMINAL                 CCN000084000000084000FY00008400020211001000000000NNMD0020211222134230    4P0P  00002100000000695100000988732DE    TVYEV-TV006400630015
BI00B32DE    TCT1115        202112217116-4032                TERMINAL                 CCN000072000000072000FY00007200020211101000000000NNMD0020211222134258    4P0P  00000600000000532800000818032DE    TVYEV-TV006400630015
BI00B32DE    TCT1114        202112217116-4231-02             TERMINAL                 CCN000286000000130000FY00013000020211101000000000NNMQ0820211222134438    4P0P  00002600000000683800001012532DE    TVYEV-TV006400630017
BI00B32DE    TCT1114        202112217116-5041-02             TERMINAL                 CCN000300000000300000FY00030000020211101000000000NNMD0020211222134447    4P0P  00001500000000583500000868732DE    TVYEV-TV006400630015
BI00B32DE    TCT1115        202112217116-5043-02             TERMINAL FEMALE          CCN000096000000096000FY00009600020211101000000000NNMD0020211222134342    4P0P  00001200000000559200000844432DE    TVYEV-TV006400630015
BI00B32DE    TCT1114        202112217116-5044-02             TERMINAL                 CCN000352000000352000FY00035200020211101000000000NNMD0020211222134500    4P0P  00001600000000641600000986332DE    TVYEV-TV006400630017
BI00B32DE    TCT1115        202112217116-5752-02             TERMINAL                 CCN000042000000042000FY00004200020211101000000000NNMD0020211222134352    4P0P  00002100000000571200000856432DE    TVYEV-TV006400630015
BI00B32DE    TCT1115        202112217116-6041                TERMINAL                 CCN000009000000009000FY00000900020211101000000000NNMD0020211222134401    4P0P  00000450000000716000001009632DE    TVYEV-TV006400630015
BI00B32DE    TCT1115        202112217158-3006-90             RUBBER STOPPER           CCN000820000000820000FY00082000020211101000000000NNMD0020211222134328    1C0C  00002000000000330600000386032DE    TVYEV-TV002700430014
BI00B32DE    TCT1114        202112217283-7449-30             HOUSING FEMALE ASS'Y     CCN000014400000014400FY00001440020211101000000000NNMD0020211222134512    4N0N  00000240000001200000001410032DE    TVYEV-TV005500360039
BI00B32DE    TCT1115        202112217283-7449-40             HOUSING FEMALE ASS'Y     CCN000009600000009600FY00000960020211101000000000NNMD0020211222134410    4N0N  00000240000001200000001410032DE    TVYEV-TV005500360039
BI00B32DE    TCT1123        202112217196-1939-02             TERMINAL FEMALE          CCN000015000000015000FY00001500020211201000000000NNMD0020211222134648    4P0P  00001500000000574500000862732DE    TVYEV-TV006400630015
BI00B32DE    TCT1124        202112217286-1900                CONNECTOR HOUSING        CCN000024000000009600FY00000960020211201000000000NNMQ0820211222134710    4N0N  00000480000001161600001376632DE    TVYEV-TV005500360039
BI00B32DE    TCT112C        202201137283-6120                CONNECTOR HOUSING        CCN000001500000000000FY00000000020220101000000000NNEQ0820211222151741    1N0N  00000150000000914000001143032DE    TVYEV-TV005600390040
BI00B32DE    TCT2022        202201207158-3006-90             RUBBER STOPPER           CCN000160000000000000FY00000000020220201000000000NNMQ0820211222150638    1C0C  00002000000000330600000386032DE    TVYEV-TV002700430014
BI00B32DE    TCT2024        202202037158-3006-90             RUBBER STOPPER           CCN000640000000540000FN00000000020220201000540000NNMQ0820211222181414    1C0C  00002000000000330600000386032DE    TVYEV-TV002700430014
BI00B32DE    TCT2021        202201137158-3166-60             WIRE SEAL                CCN000040000000000000FY00000000020220201000000000NNMQ0820211222150758    1C0C  00004000000000104000000152432DE    TVYEV-TV002700430014
BI00B32DE    TCT2022        202201207158-3167-80             WIRE SEAL                CCN000020000000000000FY00000000020220201000000000NNMQ0820211222150823    1C0C  00002000000000048000000109032DE    TVYEV-TV002700430014
BI00B32DE    TCT2024        202202037283-1288-10             CONNECTOR HOUSING        CCN000022800000016800FN00000000020220201000016800NNMQ0820211222181414    4N0N  00000120000001381000001637032DE    TVYEV-TV005600390040
BI00B32DE    TCT2022        202201207288-3335-30             HOUSING MALE             CCN000001500000000000FY00000000020220201000000000NNMQ0820211222151806    4N0N  00000150000000867000001012032DE    TVYEV-TV005400370024
BI00B32DE    TCT2024        202202037288-3335-30             HOUSING MALE             CCN000004500000003000FN00000000020220201000003000NNMQ0820211222181414    4N0N  00000150000000867000001012032DE    TVYEV-TV005400370024
BI00B32DE    TCT202A        202201137283-1289-40             CONNECTOR HOUSING        CCN000000600000000000FY00000000020220201000000000NNEQ0820211222151652    1N0N  00000060000000679800000824832DE    TVYEV-TV005400370024
BI00A32DG    #QA-21-C122    202112217282-5845-30             HOUSING MALE ASS'Y       PNN000008000000008000FY00000800020211201000000000NNE00020211222141118    2N0N  00000400000001068000001178032DG    BFSAIBF 005400370024
BI00B32D2    DGTC2211       202203317288-6547                CONNECTOR MALE ASS'Y     CCN000011250000011250FN00000000020220301000011250NNMD0420211222181414    4N0N  00000075000001205300001340332D2    TGYOT-G 005400370024
BI00B32D2    DGTC2211       202202247289-3342                HOUSING FEMALE ASS'Y     CCN000026400000026400FN00000000020220301000026400NNMD0420211222181414    1N0N  00000240000000686400000901432D2    TGYOT-G 005500360039
BI00B32D2    DGTC2211       202202037289-3342-30             HOUSING FEMALE ASS'Y     CCN000004800000004800FN00000000020220301000004800NNMD0420211222181414    1N0N  00000240000000686400000901432D2    TGYOT-G 005500360039
BI00B32D2    DGTC2211       202203047289-3342-40             HOUSING FEMALE ASS'Y     CCN000009600000009600FN00000000020220301000009600NNMD0420211222181414    1N0N  00000240000000686400000901432D2    TGYOT-G 005500360039
BI00B32D2    DGTC2211       202202117289-3342-90             HOUSING FEMALE ASS'Y     CCN000007200000007200FN00000000020220301000007200NNMD0420211222181414    1N0N  00000240000000686400000901432D2    TGYOT-G 005500360039
BI00A32D9    I10353         202112237289-3342-30             HOUSING FEMALE ASS'Y     PCN000024000000024000FN00000000020220101000024000NNM00020211222181414    1N0N  00000240000000686400000901432D9    UEHESTO 005500360039
BI00B32D9    I21003         202202247327-6731-3W             BATTERY FUSE             CCN000000576000000576FN00000000020220301000000576NNMD0420211222181414    4N0N  00000006400000697600000843032D9    UEHESTO 005400370024
BI00B32D9    I21103         202203037327-6731-3W             BATTERY FUSE             CCN000000576000000576FN00000000020220301000000576NNMD0420211222181414    4N0N  00000006400000697600000843032D9    UEHESTO 005400370024
BI00B32D9    I21203         202203107327-6731-3W             BATTERY FUSE             CCN000000576000000576FN00000000020220301000000576NNMD0420211222181414    4N0N  00000006400000697600000843032D9    UEHESTO 005400370024
BI00B32D9    I21304         202203177327-6731-3W             BATTERY FUSE             CCN000000576000000576FN00000000020220301000000576NNMD0420211222181414    4N0N  00000006400000697600000843032D9    UEHESTO 005400370024
BI00B32EJ    4500186233     202202107289-9553-30             SEALED ASSY FEMALE       CCN000008820000008820FN00000000020220201000008820NNED0420211222181414EJ  4N0N  00000294000001109000001521532EJ    EJYKBO  005500360039
BI00B32EJ    T211221P01     202201207158-3070-80             RUBBER STOPPER           CCN000080000000080000FN00000000020220101000080000NNE   20211222181414EJ  1C0C  00004000000000276000000333332EJ    EJYKBO  002700430014
BI00B32EJ    T211221P02     202201207158-3070-80             RUBBER STOPPER           CCN000040000000040000FN00000000020220101000040000NNE   20211222181414EJ  1C0C  00004000000000276000000333332EJ    EJYKBO  002700430014
BI00B32EJ    T211221P02     202201207116-4101-02             TERMINAL                 CCN000024000000024000FN00000000020220101000024000NNE   20211222181414EJ  4P0P  00001200000000582000000876232EJ    EJYKBO  006400630015
BI00B32EJ    T211221P02     202201207158-3168-80             SEALED                   CCN000040000000040000FN00000000020220101000040000NNE   20211222181414EJ  1C0C  00002000000000044000000092132EJ    EJYKBO  004300260014
BI00B32EJ    #T211221P03    202201207158-3120-90             CONNECTOR WIRE SEAL      CCN000040000000040000FN00000000020220101000040000NNE   20211222181414EJ  2C0C  00002000000000136000000194032EJ    EJYKBO  002700430014
BI00B32G7    JJ2202B MW     202203177289-3342-30             HOUSING FEMALE ASS'Y     CCN000069600000069600FN00000000020220201000069600NNED0220211222181414    1N0N  00000240000000686400000901432G7    JIJAI   005500360039
BI00B32G7    JJ2202BMMW     202203177289-3342                HOUSING FEMALE ASS'Y     CCN000009600000009600FN00000000020220201000009600NNED0220211222181414    1N0N  00000240000000686400000901432G7    JIJAI   005500360039
BI00B32M1    #TCVL1122      202112217172-5629-80             RUBBER STOPPER           CCN000080000000080000FY00008000020211201000000000NNMD0220211222134615    2H0H  00002000000000060000000111132M1    VNYEV   004300270014
BI00B32M1    #TCVL1121      202112217172-5629-80             RUBBER STOPPER           CCN000160000000160000FY00016000020211201000000000NNM00020211222135034    2H0H  00002000000000060000000111132M1    VNYEV   004300270014
BI00B32M1    #TCVL2012      202112237172-5629-80             RUBBER STOPPER           CCN000040000000040000FN00000000020220101000040000NNM00020211222181414    2H0H  00002000000000060000000111132M1    VNYEV   004300270014
BI00B32M1    #TCVL2012      202112237172-5630-40             RUBBER STOPPER           CCN000040000000040000FN00000000020220101000040000NNM00020211222181414    2H0H  00002000000000044000000095132M1    VNYEV   004300270014
BI00B32M1    #TCV2013       202112217287-9155                HOUSING FEMALE ASS'Y     CCN000017280000017280FY00001728020220101000000000NNM00020211222140137    2N0N  00000096000000853700001045232M1    VNYEV   005400370024
BI00B32M8    PM21122 MW     202112237289-3342-30             HOUSING FEMALE ASS'Y     CCN000009600000009600FN00000000020211201000009600NNM00020211222181414    1N0N  00000240000000686400000901432M8    PMPEMI  005500360039
BI00B32M8    PM21124 MW     202112237289-3342-30             HOUSING FEMALE ASS'Y     CCN000012000000014400FN00000000020211201000014400NNM00020211222181414    1N0N  00000240000000686400000901432M8    PMPEMI  005500360039
BI00B32M8    PM21125 MW     202112237289-3342-30             HOUSING FEMALE ASS'Y     CCN000009600000009600FN00000000020211201000009600NNMD0420211222181414    1N0N  00000240000000686400000901432M8    PMPEMI  005500360039
BI00B32M8    PM21122TMW     202112237288-6547                CONNECTOR MALE ASS'Y     CCN000001500000001500FN00000000020211201000001500NNM00020211222181414    4N0N  00000075000001205300001340332M8    PMPEMI  005400370024
BI00B32M8    PM21123TMW     202112237288-6547                CONNECTOR MALE ASS'Y     CCN000001500000001500FN00000000020211201000001500NNM00020211222181414    4N0N  00000075000001205300001340332M8    PMPEMI  005400370024
BI00B32M8    PM21124TMW     202112237288-6547                CONNECTOR MALE ASS'Y     CCN000001500000001500FN00000000020211201000001500NNM00020211222181414    4N0N  00000075000001205300001340332M8    PMPEMI  005400370024
BI00B32M8    PM22011TMW     202112237288-6547                CONNECTOR MALE ASS'Y     CCN000000750000000750FN00000000020220101000000750NNM00020211222181414    4N0N  00000075000001205300001340332M8    PMPEMI  005400370024
BI00B32N3    NBT202 A4      202201137283-4576                HOUSING FEMALE ASS'Y     CCN000009600000000000FY00000000020220201000000000NNMQ0820211222113951    4N0N  00000480000000651300000871332N3    ABYIPL-B005500360039
BI00A32N3    #QA-21-C122    202112217282-5845                HOUSING MALE ASS'Y       PNN000004000000004000FY00000400020211201000000000NNE00020211222141102    2N0N  00000400000001068000001178032N3    ABYIPL-B005400370024
BI00A32N3    #QA-21-C122    202112217282-5845-30             HOUSING MALE ASS'Y       PNN000004000000004000FY00000400020211201000000000NNE00020211222141050    2N0N  00000400000001068000001178032N3    ABYIPL-B005400370024
BI00A32Q8    #EU21122TMW    202112207289-4200-30             HOUSING FEMALE ASS'Y     PCN000022000000022000FN00000000020211201000022000NNMM0020211222181414    2N0N  00000200000000926000001021032Q8    EMEMI   005400370024
BI00B32Q8    EU2202JTMW     202201127196-1064-02             TERMINAL FEMALE          CCN000006000000006000FN00000000020220201000006000NNE   20211222181414    4P0P  00000600000000570000000855232Q8    EMEMI   006400630015
BI00B32Q8    EU2202JTMW     202201127327-6950-30             MULTI FUSE               CCN000000864000000864FN00000000020220201000000864NNE   20211222181414    4N00  00000028800000888700001054632Q8    EMEMI   005400370024
BI00B32Q8    EU2202JTMW     202201127327-6952-30             MULTI FUSE               CCN000001120000001120FN00000000020220201000001120NNE   20211222181414    4N0N  00000056000000848500001031532Q8    EMEMI   005400370024
BI00B32Q8    EU2202JTMW     202201127327-6954-30             MULTI FUSE               CCN000000600000000600FN00000000020220201000000600NNE   20211222181414    4N00  00000060000000751600000954332Q8    EMEMI   005400370024
BI00B32Q8    #EU2202JTMW    202201127287-1918-40             HOUSING FEMALE ASS'Y     CCN000004800000005940FN00000000020220201000005940NNE   20211222181414    2N0N  00000198000001015500001212032Q8    EMEMI   005400370024
BI00B32Q8    EU2202KTMW     202201127196-1947-02             TERMINAL FEMALE          CCN000018000000018000FN00000000020220201000018000NNE   20211222181414    4POP  00000900000000407700000692932Q8    EMEMI   006400630015
BI00B32Q8    EU2202KTMW     202201127287-1915-40             CONNECTOR ASS'Y          CCN000002400000002400FN00000000020220201000002400NNE   20211222181414    4N0N  00000240000000666500000923132Q8    EMEMI   005500360039
BI00B32Q8    EU2202KTMW     202201127288-3335-30             HOUSING MALE             CCN000001500000001500FN00000000020220201000001500NNE   20211222181414    4N0N  00000150000000867000001012032Q8    EMEMI   005400370024
BI00B32Q8    EU2202KTMW     202201127288-3338-30             HOUSING MALE             CCN000001500000001500FN00000000020220201000001500NNE   20211222181414    4N0N  00000150000000866100001012032Q8    EMEMI   005400370024
BI00B32Q8    EU2202KTMW     202201127289-6597-70             HOUSING FEMALE ASS'Y     CCN000002160000002160FN00000000020220201000002160NNE   20211222181414    4N0N  00000216000001289500001539532Q8    EMEMI   005500360039
BI00B32Q8    EU2202KTMW     202201127327-6952-30             MULTI FUSE               CCN000000560000000560FN00000000020220201000000560NNE   20211222181414    4N0N  00000056000000848500001031532Q8    EMEMI   005400370024
BI00B32Q8    EU2202KTMW     202201127327-6954-30             MULTI FUSE               CCN000000600000000600FN00000000020220201000000600NNE   20211222181414    4N00  00000060000000751600000954332Q8    EMEMI   005400370024
BI00B32Q8    EU2202LTMW     202201197196-1326-02             TERMINAL FEMALE          CCN000060000000060000FN00000000020220201000060000NNE   20211222181414    4P0P  00006000000000456000000784732Q8    EMEMI   006400630017
BI00B32Q8    EU2202LTMW     202201197196-1947-02             TERMINAL FEMALE          CCN000018000000018000FN00000000020220201000018000NNE   20211222181414    4POP  00000900000000407700000692932Q8    EMEMI   006400630015
BI00B32Q8    EU2202LTMW     202201197288-3335-30             HOUSING MALE             CCN000004500000004500FN00000000020220201000004500NNE   20211222181414    4N0N  00000150000000867000001012032Q8    EMEMI   005400370024
BI00B32Q8    EU2202LTMW     202201197288-3338-30             HOUSING MALE             CCN000001500000001500FN00000000020220201000001500NNE   20211222181414    4N0N  00000150000000866100001012032Q8    EMEMI   005400370024
BI00B32Q8    EU2202LTMW     202201197327-6950-30             MULTI FUSE               CCN000000864000000864FN00000000020220201000000864NNE   20211222181414    4N00  00000028800000888700001054632Q8    EMEMI   005400370024
BI00B32Q8    EU2202LTMW     202201197327-6952-30             MULTI FUSE               CCN000001120000001120FN00000000020220201000001120NNE   20211222181414    4N0N  00000056000000848500001031532Q8    EMEMI   005400370024
BI00B32Q8    EU2202LTMW     202201197327-6954-30             MULTI FUSE               CCN000001200000001200FN00000000020220201000001200NNE   20211222181414    4N00  00000060000000751600000954332Q8    EMEMI   005400370024
BI00B32Q8    #EU2202LTMW    202201197189-3033-30             HOUSING FEMALE           CCN000001600000001600FN00000000020220201000001600NNE   20211222181414    2F0F  00000160000001208000001428032Q8    EMEMI   005500360039
BI00B32Q8    #EU2202LTMW    202201197287-1918-40             HOUSING FEMALE ASS'Y     CCN000000600000001980FN00000000020220201000001980NNE   20211222181414    2N0N  00000198000001015500001212032Q8    EMEMI   005400370024
BI00B32Q8    EU2203ATMW     202202167196-1325-02             TERMINAL FEMALE          CCN000060000000060000FN00000000020220301000060000NNE   20211222181414    4P0P  00006000000000450000000778732Q8    EMEMI   006400630017
BI00A32Q8    #EU21114TMW    202201037172-5630-40             RUBBER STOPPER           PCN000700000000700000FN00000000020211101000700000NNMM0020211222181414    2H0H  00002000000000044000000095132Q8    EMEMI   004300270014
BI00B32R7    R-TAP210627    202201137158-3167-80             WIRE SEAL                CCN000140000000140000FN00000000020220101000140000NNE   20211222181414    1C0C  00002000000000048000000109032R7    IVYCIC  002700430014
BI00B32R7    #R-TAP210628   202201137282-5545-10             CONNECTOR                CCN000009600000009600FN00000000020220101000009600NNED0720211222181414    2N0N  00000080000001293600001465332R7    IVYCIC  005500360039
BI00B32U5    DI2010         202202117289-3342-30             HOUSING FEMALE ASS'Y     CCN000043200000043200FN00000000020220401000043200NNMD0420211222181414U5  1N0N  00000240000000686400000901432U5    AMAMSD  005500360039
BI00B32U5    DI2010         202202117327-6731-3W             BATTERY FUSE             CCN000001920000001920FN00000000020220401000001920NNMD0420211222181414U5  4N0N  00000006400000697600000843032U5    AMAMSD  005400370024
BI00B32U5    DI2010         202202117C89-6868-30             SEALED ASSY FEMALE       CCN000007560000007560FN00000000020220401000007560NNMD0420211222181414U5  4N0N  00000252000000839200001119232U5    AMAMSD  005500360039
BI00B32U9    TP0380S        202201277298-1186-40             SQUIB SUB ASS'Y          CCN000010000000010000FN00000000020220201000010000NNED0420211222181414U9  4N0N  00001000000000650000000774532U9    YNYNA-E 005400370024
BI00B32U9    TPA207         202201277298-1186-40             SQUIB SUB ASS'Y          CCN000010000000010000FN00000000020220201000010000NNMD0420211222181414U9  4N0N  00001000000000650000000774532U9    YNYNA-E 005400370024
BI00B32W2    HN2201BWMW     202201117327-6870-30             MULTI FUSE               CCN000000288000000288FN00000000020220101000000288NNED0720211222181414    4N0N  00000028800001015200001181132W2    HNHNY   005400370024
BI00B32W2    HN2201BWMW     202201117327-6880-30             MULTI FUSE               CCN000000288000000288FN00000000020220101000000288NNED0720211222181414    4N0N  00000028800001012600001178532W2    HNHNY   005400370024
BI00B32W2    HN2201BWMW     202201117327-6884-30             MULTI FUSE               CCN000000576000000576FN00000000020220101000000576NNED0720211222181414    4N0N  00000028800000988900001154832W2    HNHNY   005400370024
BI00B32W2    #HN2201BWMW    202201117298-2459-60             LIF FEMALE ASSEMBLY      CCN000000336000000336FN00000000020220101000000336NNED0720211222181414    2N0N  00000016800000534000000729632W2    HNHNY   005400370024
BI00B32W2    #HN2201DNMW    202201117189-3031-30             HOUSING FEMALE           CCN000002400000002400FN00000000020220101000002400NNED0720211222181414    2F0F  00000240000000928800001365832W2    HNHNY   005500360039
BI00B32W2    #HN2201DNMW    202201117189-3031-90             HOUSING FEMALE           CCN000002400000002400FN00000000020220101000002400NNED0720211222181414    2F0F  00000240000000936000001373032W2    HNHNY   005500360039
BI00B32W4    4500182514     202112217283-5843                CONNECTOR                CCN000003000000003000FY00000300020211201000000000NNE00020211222134946W4171N0N  00000150000000889000001132032W417  HJYHK   005600390040
BI00B32W4    #4500182514    202112217282-3020                CONNECTOR                CCN000002000000002000FY00000200020211201000000000NNE00020211222134914W4172N0N  00000100000000984000001145432W417  HJYHK   005500360039
BI00B32W4    #4500182514    202112217287-1674                HYBRID FEMALE ASS'Y      CCN000002000000002000FY00000200020211201000000000NNE00020211222134914W4172N0N  00000200000000810800001002832W417  HJYHK   005400370024
BI00B32W4    4500183020     202112217283-5843                CONNECTOR                CCN000003000000003000FY00000300020211201000000000NNE00020211222135924W4171N0N  00000150000000889000001132032W417  HJYHK   005600390040
BI00B32W4    #4500183020    202112217282-3020                CONNECTOR                CCN000003000000003000FY00000300020211201000000000NNE00020211222135901W4172N0N  00000100000000984000001145432W417  HJYHK   005500360039
BI00B32W4    #4500183020    202112217287-2641                HOUSING FEMALE ASS'Y     CCN000005600000005600FY00000560020211201000000000NNE00020211222135901W4172N0N  00000280000001246000001356032W417  HJYHK   005400370024
BI00A32W4    4500184277     202112237287-7975-4W             SQUIB SUB ASS'Y          CCN000010000000010000FN00000000020211201000010000NNEM0020211222181414W4514N0N  00001000000000837000001017032W451  HJ32W9  005400370024
BI00A32W4    4500185657     202203037116-2893-02             TERMINAL                 CCN000024000000024000FN00000000020220301000024000NNEM0020211222181414W4N64P0P  00001200000000895200001058632W4N6  HJYHK-J 005100280028
BI00B32W6    SW21124QMW     202112257288-6547                CONNECTOR MALE ASS'Y     CCN000005250000005250FN00000000020211201000005250NNM00020211222181414    4N0N  00000075000001205300001340332W6    SYSYA-WJ005400370024
BI00B32W6    SW22013QMW     202112257289-3342-30             HOUSING FEMALE ASS'Y     CCN000016800000016800FN00000000020220101000016800NNM00020211222181414    1N0N  00000240000000686400000901432W6    SYSYA-WJ005500360039
BI00B32W6    SW22013QMW     202112257289-6547                HOUSING FEMALE ASS'Y     CCN000007200000007200FN00000000020220101000007200NNM00020211222181414    1N0N  00000240000001152000001362032W6    SYSYA-WJ005500360039
BI00B32W6    @SW22021QMW    202112257283-1556                CONNECTOR ASS'Y          CCN000012000000012000FN00000000020220201000012000NNM00020211222181414    3N0N  00000240000000755000001014032W6    SYSYA-WJ005500360039
BI00B32W6    SW2202BQMW     202202237C89-6868-30             SEALED ASSY FEMALE       CCN000025200000025200FN00000000020220201000025200NNED0420211222181414    4N0N  00000252000000839200001119232W6    SYSYA-WJ005500360039
BI00B32W7    SC21113JMW     202201057C89-6868-30             SEALED ASSY FEMALE       CCN000017640000017640FN00000000020211101000017640NNM00020211222181414    4N0N  00000252000000839200001119232W7    SYSYA-CH005500360039
BI00B32W7    SC21123JMW     202201057C89-6868-30             SEALED ASSY FEMALE       CCN000020160000020160FN00000000020211201000020160NNM00020211222181414    4N0N  00000252000000839200001119232W7    SYSYA-CH005500360039
BI00B32W7    SC21124JMW     202201057C89-6868-30             SEALED ASSY FEMALE       CCN000012600000012600FN00000000020211201000012600NNM00020211222181414    4N0N  00000252000000839200001119232W7    SYSYA-CH005500360039
BI00B32W7    SC22011JMW     202201057C89-6868-30             SEALED ASSY FEMALE       CCN000015120000015120FN00000000020220101000015120NNM00020211222181414    4N0N  00000252000000839200001119232W7    SYSYA-CH005500360039
BI00B32W9    4500168359     202112237289-6868-30             SEALED ASSY FEMALE       CCN000010080000010080FN00000000020210401000010080NNE00020211222181414W9  4N0N  00000252000000839200001119232W9    HKYHK   005500360039
BI00B32W9    4500168359     202112287289-6868-30             SEALED ASSY FEMALE       CCN000010080000010080FN00000000020210401000010080NNE00020211222181414W9  4N0N  00000252000000839200001119232W9    HKYHK   005500360039
BI00B32W9    4500183925     202112287298-1145-4W             SQUIB SUB ASS'Y          CCN000020000000020000FN00000000020211201000020000NNE00020211222181414W9  4N0N  00001000000000787900000944932W9    HKYHK   005400370024
BI00A32X5    TIB1036D       202112207289-3342-30             HOUSING FEMALE ASS'Y     CCN000012000000012000FY00001200020211001000000000NNEM0020211222140832X5  1N0N  00000240000000686400000901432X5    EPYNA-E 005500360039
BI00B32X5    TIB2010        202202187288-6547                CONNECTOR MALE ASS'Y     CCN000008250000008250FN00000000020220401000008250NNMD0420211222181414X5  4N0N  00000075000001205300001340332X5    EPYNA-E 005400370024
BI00B32X5    TIB2010        202207017289-3342                HOUSING FEMALE ASS'Y     CCN000028800000028800FN00000000020220401000028800NNMD0420211222181414X5  1N0N  00000240000000686400000901432X5    EPYNA-E 005500360039
BI00B32X5    TIB2010        202204297289-3342-30             HOUSING FEMALE ASS'Y     CCN000050400000050400FN00000000020220401000050400NNMD0420211222181414X5  1N0N  00000240000000686400000901432X5    EPYNA-E 005500360039
BI00B32X5    TIB2010        202203047289-3342-40             HOUSING FEMALE ASS'Y     CCN000002400000002400FN00000000020220401000002400NNMD0420211222181414X5  1N0N  00000240000000686400000901432X5    EPYNA-E 005500360039
BI00B32X5    TIB2010        202202117289-3342-90             HOUSING FEMALE ASS'Y     CCN000007200000007200FN00000000020220401000007200NNMD0420211222181414X5  1N0N  00000240000000686400000901432X5    EPYNA-E 005500360039
BI00B32X5    TIB2010        202202117327-6731-3W             BATTERY FUSE             CCN000000384000000384FN00000000020220401000000384NNMD0420211222181414X5  4N0N  00000006400000697600000843032X5    EPYNA-E 005400370024
BI00B32Y2    TAU1153        202112217288-3206                HOUSING MALE ASS'Y       CCN000012240000012240FY00001224020220401000000000NNE00020211222140644    1N0N  00000102000000387600000787632Y2    YUYUY   005500360039
