BI00A32AF    JTB2024        202203237289-3342-30             HOUSING FEMALE ASS'Y     PCN000026400000026400FY00002640020220201000000000NNM00020220323155040    1N0N  00000240000000686400000901432AF    HBYHVTB 005500360039
BI00B32B1    A22023         202205277289-3342-30             HOUSING FEMALE ASS'Y     CCN000002400000002400FN00000000020220701000002400NNMD0420220323130908B1  1N0N  00000240000000686400000901432B1    AXARNE-M005500360039
BI00B32B1    A22023         202205277289-3342-90             HOUSING FEMALE ASS'Y     CCN000002400000002400FN00000000020220701000002400NNMD0420220323130908B1  1N0N  00000240000000686400000901432B1    AXARNE-M005500360039
BI00B32B1    A22017A        202205207288-3339-30             HOUSING MALE             CCN000006000000006000FN00000000020220601000006000NNED0420220323130908B1  4N0N  00000150000000867000001012032B1    AXARNE-M005400370024
BI00A32B6    TAPP13C1K      202204017298-5955                CONNECTOR SUB ASSY       CCN000003000000007200FN00000000020220301000007200NNED0720220323130908B6  4N0N  00000720000001029600001253032B6    AXARNE-M005500360039
BI00B32CA    PTA32071       202203317196-0510-02             TERMINAL                 CCN000096000000096000FN00000000020220701000096000NNMD0020220323130908    4P0P  00002400000000871200001034632CA    YPYPY   002800510028
BI00B32CA    PTA32072       202203317196-0510-02             TERMINAL                 CCN000024000000024000FN00000000020220701000024000NNED0020220323130908    4P0P  00002400000000871200001034632CA    YPYPY   002800510028
BI00A32D1    DFTC2204       202203237289-3342-30             HOUSING FEMALE ASS'Y     PCN000062400000062400FY00006240020220101000000000NNM00020220323155302    1N0N  00000240000000686400000901432D1    TOYOT-K 005500360039
BI00B32D1    DFTC2225       202204287114-5748-02             TERMINAL                 CCN000012000000012000FN00000000020220601000012000NNM   20220323132041    4P0P  00001200000000444000000737632D1    TOYOT-K 006400630015
BI00B32D1    DFTC2225       202204287114-5753-02             TERMINAL                 CCN000081000000081000FN00000000020220601000081000NNM   20220323132041    4P0P  00002700000000847800001141432D1    TOYOT-K 006400630015
BI00B32D1    DFTC2225       202204287116-1685-02             TERMINAL                 CCN000024000000024000FN00000000020220601000024000NNM   20220323132041    4P0P  00002400000000897600001065232D1    TOYOT-K 005100280028
BI00B32D1    DFTC2225       202204287116-2891-02             TERMINAL                 CCN000030000000030000FN00000000020220601000030000NNM   20220323132041    4P0P  00001500000000982500001145932D1    TOYOT-K 005100280028
BI00B32D1    DFTC2225       202204287116-4111-02             TERMINAL                 CCN000007500000007500FN00000000020220601000007500NNM   20220323132041    4P0P  00000750000000529500000817732D1    TOYOT-K 006400630015
BI00B32D1    DFTC2225       202204287116-4112-02             TERMINAL                 CCN000018000000018000FN00000000020220601000018000NNM   20220323132041    4P0P  00000600000000450000000738232D1    TOYOT-K 006400630015
BI00B32D1    DFTC2225       202204287116-4486-02             TERMINAL                 CCN000028000000028000FN00000000020220601000028000NNM   20220323132041    4P0P  00002800000000666400000995132D1    TOYOT-K 006400630017
BI00B32D1    DFTC2225       202204287116-5045-02             TERMINAL                 CCN000032000000032000FN00000000020220601000032000NNM   20220323132041    4P0P  00001600000000678400001007132D1    TOYOT-K 006400630017
BI00B32D1    DFTC2225       202204287126-8853-02             TERMINAL                 CCN000067500000067500FN00000000020220601000067500NNM   20220323132041    4P0P  00000750000000562500000847732D1    TOYOT-K 006400630015
BI00B32D1    DFTC2225       202204287126-8854-02             TERMINAL                 CCN000052500000052500FN00000000020220601000052500NNM   20220323132041    4P0P  00000750000000604500000889732D1    TOYOT-K 006400630015
BI00B32D1    DFTC2225       202204287126-8855-02             TERMINAL                 CCN000054000000054000FN00000000020220601000054000NNM   20220323132041    4P0P  00000600000000510600000795832D1    TOYOT-K 006400630015
BI00B32D1    DFTC2225       202204287158-3070-80             RUBBER STOPPER           CCN000040000000040000FN00000000020220601000040000NNM   20220323132041    1C0C  00004000000000276000000333332D1    TOYOT-K 002700430014
BI00B32D1    DFTC2225       202204287196-0396-02             TERMINAL                 CCN000015000000015000FN00000000020220601000015000NNM   20220323132041    4P0P  00001500000000949500001112932D1    TOYOT-K 002800510028
BI00B32D1    DFTC2225       202204287196-0510-02             TERMINAL                 CCN000048000000048000FN00000000020220601000048000NNM   20220323132041    4P0P  00002400000000871200001034632D1    TOYOT-K 002800510028
BI00B32D1    DFTC2225       202204287282-4576                HOUSING MALE ASS'Y       CCN000004800000004800FN00000000020220601000004800NNM   20220323132041    4N0N  00000240000000808800001028832D1    TOYOT-K 005500360039
BI00B32D1    DFTC2225       202204287283-1156                CONNECTOR                CCN000000800000000800FN00000000020220601000000800NNM   20220323132041    4N0N  00000080000000877600001078032D1    TOYOT-K 005600390040
BI00B32D1    DFTC2225       202204287288-6547                CONNECTOR MALE ASS'Y     CCN000009000000009000FN00000000020220601000009000NNM   20220323132041    4N0N  00000075000001205300001340332D1    TOYOT-K 005400370024
BI00B32D1    DFTC2225       202204287289-3342                HOUSING FEMALE ASS'Y     CCN000028800000028800FN00000000020220601000028800NNM   20220323132041    1N0N  00000240000000686400000901432D1    TOYOT-K 005500360039
BI00B32D1    DFTC2225       202204287289-3342-30             HOUSING FEMALE ASS'Y     CCN000019200000019200FN00000000020220601000019200NNM   20220323132041    1N0N  00000240000000686400000901432D1    TOYOT-K 005500360039
BI00B32D1    DFTC2225       202204287289-3342-40             HOUSING FEMALE ASS'Y     CCN000002400000002400FN00000000020220601000002400NNM   20220323132041    1N0N  00000240000000686400000901432D1    TOYOT-K 005500360039
BI00B32D1    DFTC2225       202204287289-3342-90             HOUSING FEMALE ASS'Y     CCN000007200000007200FN00000000020220601000007200NNM   20220323132041    1N0N  00000240000000686400000901432D1    TOYOT-K 005500360039
BI00B32D1    DFTC2225       202204287289-6547                HOUSING FEMALE ASS'Y     CCN000009600000009600FN00000000020220601000009600NNM   20220323132041    1N0N  00000240000001152000001362032D1    TOYOT-K 005500360039
BI00B32D1    DFTC2225       202204287296-0784-02             TERMINAL ALUMINIUM       CCN000024000000024000FN00000000020220601000024000NNM   20220323132041    4P0P  00002400000000480000000765232D1    TOYOT-K 006400630015
BI00B32D1    DFTC2225       202204287327-6731-3W             BATTERY FUSE             CCN000000320000000320FN00000000020220601000000320NNM   20220323132041    4N0N  00000006400000697600000843032D1    TOYOT-K 005400370024
BI00B32D1    DFTC2225       202204287388-2978-30             HOUSING MALE ASS'Y       CCN000001920000001920FN00000000020220601000001920NNM   20220323132041    1N0N  00000048000000742000001122032D1    TOYOT-K 005500360039
BI00B32D1    #DFTC2225      202204287158-3003-90             RUBBER STOPPER           CCN000060000000060000FN00000000020220601000060000NNM   20220323132037    2C0C  00002000000000250000000306032D1    TOYOT-K 002700430014
BI00B32D1    #DFTC2225      202204287158-3004-40             RUBBER STOPPER           CCN000020000000020000FN00000000020220601000020000NNM   20220323132037    2C0C  00002000000000234000000306332D1    TOYOT-K 002700430014
BI00B32D1    #DFTC2225      202204287158-3005-80             RUBBER STOPPER           CCN000020000000020000FN00000000020220601000020000NNM   20220323132037    2H0H  00002000000000210000000268732D1    TOYOT-K 002700430014
BI00B32D1    #DFTC2225      202204287158-3008-80             RUBBER STOPPER           CCN000020000000020000FN00000000020220601000020000NNM   20220323132037    2C0C  00002000000000288000000343032D1    TOYOT-K 004300270014
BI00B32D1    #DFTC2225      202204287158-3015-10             RUBBER STOPPER           CCN000020000000020000FN00000000020220601000020000NNM   20220323132037    2C0C  00001000000000419500000474032D1    TOYOT-K 002700430014
BI00B32D1    #DFTC2225      202204287158-3017                RUBBER STOPPER           CCN000010000000010000FN00000000020220601000010000NNM   20220323132037    2C0C  00001000000000375500000435032D1    TOYOT-K 002700430014
BI00B32D1    #DFTC2225      202204287172-5629-80             RUBBER STOPPER           CCN000020000000020000FN00000000020220601000020000NNM   20220323132037    2H0H  00002000000000060000000111132D1    TOYOT-K 004300270014
BI00B32D1    #DFTC2225      202204287172-5630-40             RUBBER STOPPER           CCN000020000000020000FN00000000020220601000020000NNM   20220323132037    2H0H  00002000000000044000000095132D1    TOYOT-K 004300270014
BI00B32D1    #DFTC2225      202204287172-5631-60             RUBBER STOPPER           CCN000020000000020000FN00000000020220601000020000NNM   20220323132037    2H0H  00002000000000042000000093132D1    TOYOT-K 004300270014
BI00B32D1    #DFTC2225      202204287172-5632-10             DUMMY PLUG               CCN000020000000020000FN00000000020220601000020000NNM   20220323132037    2H0H  00002000000000080400000131832D1    TOYOT-K 004300270014
BI00B32D1    #DFTC2225      202204287189-2978-30             HOUSING FEMALE           CCN000001500000001500FN00000000020220601000001500NNM   20220323132037    2F0F  00000150000000966900001096932D1    TOYOT-K 005400370024
BI00B32D1    #DFTC2225      202204287189-3033                HOUSING FEMALE           CCN000001600000001600FN00000000020220601000001600NNM   20220323132037    2F0F  00000160000001211200001431232D1    TOYOT-K 005500360039
BI00B32D1    #DFTC2225      202204287189-3036                HOUSING FEMALE           CCN000001600000001600FN00000000020220601000001600NNM   20220323132037    2F0F  00000160000000921600001141632D1    TOYOT-K 005500360039
BI00B32D1    #DFTC2225      202204287282-1641                CONNECTOR                CCN000002000000002000FN00000000020220601000002000NNM   20220323132037    2N0N  00000200000000813000000986032D1    TOYOT-K 005500360039
BI00B32D1    #DFTC2225      202204287289-2912-40             HOUSING FEMALE ASS'Y     CCN000002000000002000FN00000000020220601000002000NNM   20220323132037    2N0N  00000200000000804000000931032D1    TOYOT-K 005400370024
BI00B32D1    #DFTC2225      202204287289-3622-30             HOUSING FEMALE ASS'Y     CCN000000432000000432FN00000000020220601000000432NNM   20220323132037    2N0N  00000043200000839400001038432D1    TOYOT-K 005400370024
BI00B32D1    #DFTC2225      202204287289-4200-30             HOUSING FEMALE ASS'Y     CCN000002000000002000FN00000000020220601000002000NNM   20220323132037    2N0N  00000200000000926000001021032D1    TOYOT-K 005400370024
BI00A32D2    #DGTC2206      202203237172-5630-40             RUBBER STOPPER           PCN000140000000140000FY00014000020220201000000000NNM00020220323154935    2H0H  00002000000000044000000095132D2    TGYOT-G 004300270014
BI00A32D2    #DGTC2207      202203257172-5630-40             RUBBER STOPPER           PCN000540000000540000FN00000000020220201000540000NNMD0420220323162014    2H0H  00002000000000044000000095132D2    TGYOT-G 004300270014
BI00A32D2    DGTC2219A      202203317327-6983-30             MAIN FUSE                CCN000001200000000600FN00000000020220301000000600NNEQ0420220323130908    4N0N  00000060000000748800000951532D2    TGYOT-G 005400370024
BI00A32D2    DGTC2219A      202203317327-6985-30             MULTI FUSE               CCN000001152000000288FN00000000020220301000000288NNEQ0420220323130908    4N0N  00000028800000886100001052032D2    TGYOT-G 005400370024
BI00A32D2    DGTC2219A      202203317327-6990-30             MULTI FUSE               CCN000001120000000560FN00000000020220301000000560NNEQ0420220323130908    4NON  00000056000000724000000907032D2    TGYOT-G 005400370024
BI00A32D2    DGTC2219A      202206027327-6983-30             MAIN FUSE                CCN000000600000000600FN00000000020220301000000600NNED0420220323130908    4N0N  00000060000000748800000951532D2    TGYOT-G 005400370024
BI00A32D2    DGTC2219A      202206027327-6985-30             MULTI FUSE               CCN000000864000000864FN00000000020220301000000864NNED0420220323130908    4N0N  00000028800000886100001052032D2    TGYOT-G 005400370024
BI00A32D2    DGTC2219A      202204077327-6990-30             MULTI FUSE               CCN000000560000000560FN00000000020220301000000560NNED0420220323130908    4NON  00000056000000724000000907032D2    TGYOT-G 005400370024
BI00B32D9    I20501         202203247289-3342-90             HOUSING FEMALE ASS'Y     CCN000028800000012000FN00000000020220101000012000NNMD0420220323130908    1N0N  00000240000000686400000901432D9    UEHESTO 005500360039
BI00A32D9    I20501         202203257289-3342-90             HOUSING FEMALE ASS'Y     PCN000016800000016800FN00000000020220101000016800NNMD0420220323140036    1N0N  00000240000000686400000901432D9    UEHESTO 005500360039
BI00A32E1    NC203E         202204017283-7023-10             CONNECTOR                CCN000000100000002500FN00000000020220301000002500NNED0720220323130908    4N0N  00000250000001360000001550032E1    SPYSE   005500360039
BI00A32E1    NC203E         202204017283-7029                CONNECTOR                CCN000006000000006000FN00000000020220301000006000NNED0720220323130908    1N0N  00000600000001060200001181032E1    SPYSE   005600390023
BI00B32H7    #FS22044DMW    202203307172-5629-80             RUBBER STOPPER           CCN000400000000400000FN00000000020220401000400000NNM00020220323153724    2H0H  00002000000000060000000111132H7    FYFSY   004300270014
BI00B32H8    TY22044 MW     202203237116-1473                TERMINAL                 CCN000094500000094500FY00009450020220401000000000NNM00020220323155415    4P0P  00001350000000523800000809032H8    TYTYC   006400630015
BI00B32H8    TY22044 MW     202203237116-4025                TERMINAL                 CCN000080000000080000FY00008000020220401000000000NNM00020220323155415    4P0P  00001600000000644800000975132H8    TYTYC   006400630017
BI00B32H8    TY22044 MW     202203237116-4032                TERMINAL                 CCN000042000000042000FY00004200020220401000000000NNM00020220323155415    4P0P  00000600000000532800000818032H8    TYTYC   006400630015
BI00B32H8    TY22044 MW     202203237116-4231-02             TERMINAL                 CCN000364000000364000FY00036400020220401000000000NNM00020220323155415    4P0P  00002600000000683800001012532H8    TYTYC   006400630017
BI00B32H8    TY22044 MW     202203237123-7500                CONNECTOR                CCN000003200000003200FY00000320020220401000000000NNM00020220323155415    1F0F  00000080000000710000000896732H8    TYTYC   005500360039
BI00B32H8    TY22044 MW     202203237222-7564-30             CONNECTOR                CCN000001000000001000FY00000100020220401000000000NNM00020220323155452    1N0N  00000050000000966500001125032H8    TYTYC   005500360039
BI00B32H8    TY22044 MW     202203237222-7564-40             CONNECTOR                CCN000000500000000500FY00000050020220401000000000NNM00020220323155452    1N0N  00000050000000967000001097032H8    TYTYC   005500360039
BI00B32H8    TY22044 MW     202203237283-1140                CONNECTOR HOUSING        CCN000001500000001500FY00000150020220401000000000NNM00020220323155452    4N0N  00000150000000669000000932732H8    TYTYC   005600390040
BI00B32H8    TY22044 MW     202203237283-1222-30             CONNECTOR HOUSING        CCN000001200000001200FY00000120020220401000000000NNM00020220323155452    4N0N  00000120000000855000001013032H8    TYTYC   005500360039
BI00B32H8    TY22044 MW     202203237283-5845                CONNECTOR HOUSING        CCN000006000000006000FY00000600020220401000000000NNM00020220323155452    1N0N  00000600000000444000000606332H8    TYTYC   005400370024
BI00B32H8    TY22044 MW     202203237283-6036                CONNECTOR HOUSING        CCN000001600000001600FY00000160020220401000000000NNM00020220323155452    1N0N  00000160000000678200000945332H8    TYTYC   005600390040
BI00B32H8    TY22044 MW     202203237283-6120                CONNECTOR HOUSING        CCN000001500000001500FY00000150020220401000000000NNM00020220323155452    1N0N  00000150000000914000001143032H8    TYTYC   005600390040
BI00B32H8    #TY22044 MW    202203237123-7564-30             CONNECTOR                CCN000001000000001000FY00000100020220401000000000NNM00020220323155226    2F0F  00000100000001310000001455632H8    TYTYC   005600390040
BI00B32H8    #TY22044 MW    202203237123-7564-40             CONNECTOR                CCN000002000000002000FY00000200020220401000000000NNM00020220323155226    2F0F  00000100000001301000001479032H8    TYTYC   005600390040
BI00B32H8    #TY22044 MW    202203237123-7923-40             CONNECTOR                CCN000001500000001500FY00000150020220401000000000NNM00020220323155226    2F0F  00000150000001492500001665932H8    TYTYC   005600390040
BI00B32H8    #TY22044 MW    202203237154-3456                REAR HOLDER              CCN000007000000007000FY00000700020220401000000000NNM00020220323155226    2F0F  00000700000000581700000752032H8    TYTYC   005500360039
BI00B32H8    #TY22044 MW    202203237158-7173-30             CONNECTOR                CCN000001600000001600FY00000160020220401000000000NNM00020220323155226    2F0F  00000160000001235200001444632H8    TYTYC   005600390040
BI00B32H8    #TY22044 MW    202203237183-1616                CONNECTOR HOUSING        CCN000002400000002400FY00000240020220401000000000NNM00020220323155226    2F0F  00000240000000557500000823332H8    TYTYC   005500360039
BI00B32H8    #TY22044 MW    202203237283-4861                CONNECTOR                CCN000001500000001500FY00000150020220401000000000NNM00020220323155226    2N0N  00000150000001200000001359932H8    TYTYC   005500360039
BI00B32H8    #TY22044 MW    202203237283-5833                CONNECTOR HOUSING        CCN000003640000003640FY00000364020220401000000000NNM00020220323155226    2N0N  00000364000001378000001686732H8    TYTYC   005500360039
BI00B32H8    @TY22044 MW    202203237283-1100-60             CONNECTOR ASS'Y          CCN000003200000003200FY00000320020220401000000000NNM00020220323155342    3N0N  00000160000000567500000801432H8    TYTYC   005500360039
BI00B32H8    @TY22044 MW    202203237283-1100-90             CONNECTOR ASS'Y          CCN000003200000003200FY00000320020220401000000000NNM00020220323155342    3N0N  00000160000000564800000806832H8    TYTYC   005500360039
BI00A32J1    392859         202204117298-2280-30             HOUSING FEMALE ASS'Y     CCN000001920000001920FN00000000020220401000001920NNED0720220323130908    4N0N  00000192000001068000001216032J1    UKYEL-BL005500360039
BI00A32J1    392859         202204117298-2507-30             HOUSING FEMALE ASS'Y     CCN000001200000001200FN00000000020220401000001200NNED0720220323130908    4N0N  00000120000000713200000914532J1    UKYEL-BL005500360039
BI00A32J1    392859         202204117298-2508-30             HOUSING FEMALE ASS'Y     CCN000001200000001200FN00000000020220401000001200NNED0720220323130908    4N0N  00000120000000822000001005032J1    UKYEL-BL005500360039
BI00A32J1    392859         202204117298-2509-30             HOUSING FEMALE ASS'Y     CCN000001200000001200FN00000000020220401000001200NNED0720220323130908    4N0N  00000120000000857500001062532J1    UKYEL-BL005500360039
BI00A32J1    #392859        202204117297-1907-30             HOUSING MALE ASS'Y       CCN000001500000001500FN00000000020220401000001500NNED0720220323130908    2N0N  00000150000000451800000568032J1    UKYEL-BL005400370024
BI00B32P8    #TAPI-2034     202203307172-5629-80             RUBBER STOPPER           CCN000300000000300000FN00000000020220301000300000NNM00020220323153759    2H0H  00002000000000060000000111132P8    YIYTM   004300270014
BI00B32P8    TAPI-2061      202205117288-3329-30             HOUSING MALE             CCN000004500000004500FN00000000020220601000004500NNMD0420220323130908    4N0N  00000150000000866100001011132P8    YIYTM   005400370024
BI00B32P8    TAPI-2062      202205187288-3329-30             HOUSING MALE             CCN000003000000003000FN00000000020220601000003000NNMD0420220323130908    4N0N  00000150000000866100001011132P8    YIYTM   005400370024
BI00B32P8    TAPI-2063      202205257288-3329-30             HOUSING MALE             CCN000001500000001500FN00000000020220601000001500NNMD0420220323130908    4N0N  00000150000000866100001011132P8    YIYTM   005400370024
BI00B32P8    TAPI-2061      202205117289-3342-30             HOUSING FEMALE ASS'Y     CCN000014400000014400FN00000000020220601000014400NNMD0420220323130908    1N0N  00000240000000686400000901432P8    YIYTM   005500360039
BI00B32P8    TAPI-2062      202205187289-3342-30             HOUSING FEMALE ASS'Y     CCN000007200000007200FN00000000020220601000007200NNMD0420220323130908    1N0N  00000240000000686400000901432P8    YIYTM   005500360039
BI00B32P8    TAPI-2063      202205257289-3342-30             HOUSING FEMALE ASS'Y     CCN000004800000004800FN00000000020220601000004800NNMD0420220323130908    1N0N  00000240000000686400000901432P8    YIYTM   005500360039
BI00B32Q8    EU22061TMW     202205117288-3334-30             HOUSING MALE             CCN000018000000018000FN00000000020220601000018000NNMD0420220323130908    4N0N  00000150000000867000001012032Q8    EMEMI   005400370024
BI00B32Q8    EU22062TMW     202205187288-3334-30             HOUSING MALE             CCN000024000000024000FN00000000020220601000024000NNMD0420220323130908    4N0N  00000150000000867000001012032Q8    EMEMI   005400370024
BI00B32Q8    EU22063TMW     202205257288-3334-30             HOUSING MALE             CCN000030000000030000FN00000000020220601000030000NNMD0420220323130908    4N0N  00000150000000867000001012032Q8    EMEMI   005400370024
BI00B32Q8    EU22061TMW     202205117288-3335-30             HOUSING MALE             CCN000007500000007500FN00000000020220601000007500NNMD0420220323130908    4N0N  00000150000000867000001012032Q8    EMEMI   005400370024
BI00B32Q8    EU22062TMW     202205187288-3335-30             HOUSING MALE             CCN000001500000001500FN00000000020220601000001500NNMD0420220323130908    4N0N  00000150000000867000001012032Q8    EMEMI   005400370024
BI00B32Q8    EU22063TMW     202205257288-3335-30             HOUSING MALE             CCN000004500000004500FN00000000020220601000004500NNMD0420220323130908    4N0N  00000150000000867000001012032Q8    EMEMI   005400370024
BI00B32Q8    EU22061TMW     202205117289-3342-30             HOUSING FEMALE ASS'Y     CCN000007200000007200FN00000000020220601000007200NNMD0420220323130908    1N0N  00000240000000686400000901432Q8    EMEMI   005500360039
BI00B32Q8    EU22062TMW     202205187289-3342-30             HOUSING FEMALE ASS'Y     CCN000007200000007200FN00000000020220601000007200NNMD0420220323130908    1N0N  00000240000000686400000901432Q8    EMEMI   005500360039
BI00B32Q8    EU22063TMW     202205257289-3342-30             HOUSING FEMALE ASS'Y     CCN000009600000009600FN00000000020220601000009600NNMD0420220323130908    1N0N  00000240000000686400000901432Q8    EMEMI   005500360039
BI00B32Q8    #EU22064TMW    202206087172-5630-40             RUBBER STOPPER           CCN001320000001320000FN00000000020220601001320000NNMD0220220323132209    2H0H  00002000000000044000000095132Q8    EMEMI   004300270014
BI00B32R7    R-TAP220029    202203317289-9553-50             SEALED ASSY FEMALE       CCN000020580000020580FN00000000020220201000020580NNE00020220323130908    4N0N  00000294000001108100001520632R7    IVYCIC  005500360039
BI00B32R7    R-TAP220094    202203317116-1257-02             TERMINAL                 CCN000024000000024000FN00000000020220401000024000NNE00020220323130908    1P0P  00002400000000518400000847132R7    IVYCIC  006400630017
BI00B32R7    R-TAP220095    202203317116-1686-02             TERMINAL                 CCN000021000000021000FN00000000020220401000021000NNE00020220323130908    4P0P  00002100000000869400001021632R7    IVYCIC  005100280028
BI00B32R7    R-TAP220116    202203317158-3169-40             SEALING PLUG             CCN000080000000080000FN00000000020220401000080000NNE00020220323130908    1C0C  00004000000000156000000204132R7    IVYCIC  004300260014
BI00B32R7    R-TAP220117    202203317158-3169-40             SEALING PLUG             CCN000040000000040000FN00000000020220401000040000NNE00020220323130908    1C0C  00004000000000156000000204132R7    IVYCIC  004300260014
BI00B32R7    R-TAP220123    202203317116-4025                TERMINAL                 CCN000048000000048000FN00000000020220401000048000NNE00020220323130908    4P0P  00001600000000644800000975132R7    IVYCIC  006400630017
BI00A32U5    DI2013         202203297289-3342-30             HOUSING FEMALE ASS'Y     PCN000031200000031200FN00000000020220501000031200NNM00020220323130908U5  1N0N  00000240000000686400000901432U5    AMAMSD  005500360039
BI00A32U5    #DI2014        202204017172-5630-40             RUBBER STOPPER           PCN000280000000280000FN00000000020220501000280000NNMM0020220323130908U5  2H0H  00002000000000044000000095132U5    AMAMSD  004300270014
BI00B32U5    DI2023         202205137289-3342                HOUSING FEMALE ASS'Y     CCN000016800000016800FN00000000020220701000016800NNMD0420220323130908U5  1N0N  00000240000000686400000901432U5    AMAMSD  005500360039
BI00B32U5    DI2017A        202205137289-3342                HOUSING FEMALE ASS'Y     CCN000016800000016800FN00000000020220601000016800NNED0420220323130908U5  1N0N  00000240000000686400000901432U5    AMAMSD  005500360039
BI00B32U5    DI2017A        202205207288-3330-30             HOUSING MALE             CCN000004500000004500FN00000000020220601000004500NNED0420220323130908U5  4N0N  00000150000000866300001011232U5    AMAMSD  005400370024
BI00B32U5    DI2017A        202205207288-3339-30             HOUSING MALE             CCN000003000000003000FN00000000020220601000003000NNED0420220323130908U5  4N0N  00000150000000867000001012032U5    AMAMSD  005400370024
BI00B32W4    4500188263     202206097158-3168-80             SEALED                   CCN002000000002000000FN00000000020220501002000000NNED0020220323131203W4561C0C  00002000000000044000000092132W456  HJYHK   004300260014
BI00B32W4    #4500188361    202203237123-6423-30             CONNECTOR                CCN000004000000004000FY00000400020220301000000000NNE00020220323155112W48 2F0F  00000200000001002000001167632W48   HJYHK   005600390023
BI00B32W4    4500189597     202205197158-3168-80             SEALED                   CCN001000000001000000FN00000000020220401001000000NNED0020220323131130W4B71C0C  00002000000000044000000092132W4B7  HJYHK-J 004300260014
BI00B32W4    4500190435     202206237158-3168-80             SEALED                   CCN002400000002400000FN00000000020220501002400000NNED0020220323131330W4B71C0C  00002000000000044000000092132W4B7  HJYHK-J 004300260014
BI00B32W4    4500190435     202206167158-3168-80             SEALED                   CCN001200000000000000FY00000000020220501000000000NNEQ0020220323131330W4B71C0C  00002000000000044000000092132W4B7  HJYHK-J 004300260014
BI00B32W4    4500191047     202208257289-9553-50             SEALED ASSY FEMALE       CCN000014700000014700FN00000000020220501000014700NNED0420220323141037W4N64N0N  00000294000001108100001520632W4N6  HJYHK-J 005500360039
BI00B32W4    4500191047     202208257289-9553-30             SEALED ASSY FEMALE       CCN000005880000005880FN00000000020220501000005880NNED0420220323141004W4N64N0N  00000294000001109000001521532W4N6  HJYHK-J 005500360039
BI00B32W4    4500191072     202208257289-9553-30             SEALED ASSY FEMALE       CCN000023520000023520FN00000000020220501000023520NNED0420220323140944W4O64N0N  00000294000001109000001521532W4O6  HJYHK-J 005500360039
BI00B32W4    4500191313     202205267116-4102-02             TERMINAL                 CCN000012000000012000FN00000000020220501000012000NNE   20220323130908W4464P0P  00001200000000553200000841432W446  HJYHK   006400630015
BI00B32W4    4500191313     202205267283-6448-40             CONNECTOR                CCN000001500000001500FN00000000020220501000001500NNE   20220323130908W4464N0N  00000150000001087000001329032W446  HJYHK   005600390040
BI00B32W4    4500191313     202205267158-3166-60             WIRE SEAL                CCN000040000000040000FN00000000020220501000040000NNE   20220323130908W4461C0C  00004000000000104000000152432W446  HJYHK   002700430014
BI00B32W4    4500191313     202205267116-4101-02             TERMINAL                 CCN000072000000072000FN00000000020220501000072000NNE   20220323130908W4464P0P  00001200000000582000000876232W446  HJYHK   006400630015
BI00B32W4    4500191313     202205267116-4104-02             TERMINAL                 CCN000012000000012000FN00000000020220501000012000NNE   20220323130908W4464P0P  00001200000000580800000972432W446  HJYHK   006400630015
BI00B32W4    4500191313     202205267114-4110-02             TERMINAL                 CCN000015000000015000FN00000000020220501000015000NNE   20220323130908W4464P0P  00001500000000901500001230132W446  HJYHK   006400630017
BI00B32W4    4500191313     202205267116-4103-02             TERMINAL                 CCN000024000000024000FN00000000020220501000024000NNE   20220323130908W4464P0P  00001200000000571200000859432W446  HJYHK   006400630015
BI00B32W4    #4500191313    202205267282-3243-40             CONNECTOR                CCN000000800000000800FN00000000020220501000000800NNE   20220323130908W4462N0N  00000080000001006000001282332W446  HJYHK   005600390040
BI00A32W4    4500191323     202206027158-3169-40             SEALING PLUG             CCN000040000000040000FN00000000020220601000040000NNE   20220323130908W4D31C0C  00004000000000156000000204132W4D3  HJYHK-J 004300260014
BI00A32W4    4500191326     202204087298-2280-30             HOUSING FEMALE ASS'Y     CCN000001920000001920FN00000000020220301000001920NNED0720220323130908W4284N0N  00000192000001068000001216032W428  HJYHK   005500360039
BI00B32W4    4500191328     202205267283-6448-40             CONNECTOR                CCN000001500000001500FN00000000020220501000001500NNE   20220323130908W4654N0N  00000150000001087000001329032W465  HJYHK   005600390040
BI00B32W4    4500191328     202205267158-3167-80             WIRE SEAL                CCN000060000000060000FN00000000020220501000060000NNE   20220323130908W4651C0C  00002000000000048000000109032W465  HJYHK   002700430014
BI00B32W4    4500191328     202205267283-1030                CONNECTOR                CCN000006000000006000FN00000000020220501000006000NNE   20220323130908W4654N0N  00000600000000988000001172032W465  HJYHK   005500360039
BI00A32W4    4500191340     202204087116-4111-02             TERMINAL                 CCN000007500000007500FN00000000020220301000007500NNED0720220323130908W4174P0P  00000750000000529500000817732W417  HJYHK   006400630015
BI00B32W4    4500191343     202205267283-5843                CONNECTOR                CCN000003000000003000FN00000000020220501000003000NNE   20220323130908W4171N0N  00000150000000889000001132032W417  HJYHK   005600390040
BI00B32W4    4500191343     202205267283-5832                CONNECTOR HOUSING        CCN000002400000002400FN00000000020220501000002400NNE   20220323130908W4171N47  00000240000000723800000873832W417  HJYHK   005500360039
BI00B32W4    #4500191343    202205267183-8927                HOUSING                  CCN000004000000004000FN00000000020220501000004000NNE   20220323130908W4172F0F  00000400000000714000000912732W417  HJYHK   005500360039
BI00B32W4    #4500191343    202205267282-3020                CONNECTOR                CCN000004000000004000FN00000000020220501000004000NNE   20220323130908W4172N0N  00000100000000984000001145432W417  HJYHK   005500360039
BI00B32W4    #4500191343    202205267287-1674                HYBRID FEMALE ASS'Y      CCN000002000000002000FN00000000020220501000002000NNE   20220323130908W4172N0N  00000200000000810800001002832W417  HJYHK   005400370024
BI00B32W4    #4500191344    202206097147-3642-30             CLIP                     CCN000048000000048000FN00000000020220601000048000NNE   20220323130908W4172F0F  00000300000000542000000721332W417  HJYHK   005600390040
BI00B32W6    SW22042QMW     202203247289-3342                HOUSING FEMALE ASS'Y     CCN000014400000014400FN00000000020220401000014400NNM00020220323153149    1N0N  00000240000000686400000901432W6    SYSYA-WJ005500360039
BI00B32W6    #SW22044QMW    202203307172-5630-40             RUBBER STOPPER           CCN000020000000020000FN00000000020220401000020000NNM00020220323153855    2H0H  00002000000000044000000095132W6    SYSYA-WJ004300270014
BI00B32W9    4500191347     202204267158-3070-80             RUBBER STOPPER           CCN000320000000320000FN00000000020220401000320000NNE   20220323130908W9  1C0C  00004000000000276000000333332W9    HKYHK   002700430014
BI00B32W9    4500191356     202205177116-4231-02             TERMINAL                 CCN000026000000026000FN00000000020220501000026000NNE   20220323130908W9  4P0P  00002600000000683800001012532W9    HKYHK   006400630017
BI00B32W9    4500191356     202205177116-4022                TERMINAL                 CCN000013500000013500FN00000000020220501000013500NNE   20220323130908W9  4P0P  00001350000000618300000903532W9    HKYHK   006400630015
BI00B32W9    4500191356     202205177114-4100-02             TERMINAL                 CCN000018000000018000FN00000000020220501000018000NNE   20220323130908W9  4P0P  00001800000000748800001077432W9    HKYHK   006400630017
BI00B32W9    4500191356     202205177283-5846                HOUSING                  CCN000001500000001500FN00000000020220501000001500NNE   20220323130908W9  1N0N  00000150000000885000001102032W9    HKYHK   005600390040
BI00A32X5    #TIB2005       202203287172-5630-40             RUBBER STOPPER           PCN000220000000220000FN00000000020220301000220000NNMD0420220323132305X5  2H0H  00002000000000044000000095132X5    EPYNA-E 004300270014
BI00B32X5    #TIB2012       202203177172-5630-40             RUBBER STOPPER           CCN000220000000220000FN00022000020220501000000000NNM00020220323132019X5  2H0H  00002000000000044000000095132X5    EPYNA-E 004300270014
BI00A32X5    #TIB2014       202203287172-5630-40             RUBBER STOPPER           PCN000220000000220000FN00000000020220501000220000NNMM0020220323130908X5  2H0H  00002000000000044000000095132X5    EPYNA-E 004300270014
BI00B32X5    TIB2023        202208267289-3342                HOUSING FEMALE ASS'Y     CCN000009600000009600FN00000000020220701000009600NNMD0420220323130908X5  1N0N  00000240000000686400000901432X5    EPYNA-E 005500360039
BI00B32X5    TIB2023        202206247289-3342-30             HOUSING FEMALE ASS'Y     CCN000052800000052800FN00000000020220701000052800NNMD0420220323130908X5  1N0N  00000240000000686400000901432X5    EPYNA-E 005500360039
BI00B32X5    TIB2023        202205277289-3342-40             HOUSING FEMALE ASS'Y     CCN000012000000012000FN00000000020220701000012000NNMD0420220323130908X5  1N0N  00000240000000686400000901432X5    EPYNA-E 005500360039
BI00A32Y8    TAIM22021A     202204047289-6547                HOUSING FEMALE ASS'Y     CCN000002400000002400FN00000000020220401000002400NNED0020220323130908Y8  1N0N  00000240000001152000001362032Y8    CLYCL   005500360039
