BI00B32BF    TT2112CBMW     20220222180D0203764              AVSSH 0.3F G/W           CCN000002000000002000FY00000200020211201000000000NNE00 20220323110732    1W    00000200000000515000000000032BF    TTTJY   000000000000NC222011
BI00B32BF    TT2112CBMW     20220222180D0203992              AVSSH 0.5F V             CCN000001500000001500FY00000150020211201000000000NNE00 20220323110732    1W    00000150000000689000000000032BF    TTTJY   000000000000NC222012
BI00B32BF    TT2112CBMW     20220222180D0204034              AVSSH 0.75F B/W          CCN000001000000001000FY00000100020211201000000000NNE00 20220323110732    1W    00000100000000934000000000032BF    TTTJY   000000000000NC222013
BI00B32BF    TT2112CBMW     20220222180D0204060              AVSSH 0.75F G            CCN000002000000002000FY00000200020211201000000000NNE00 20220323110732    1W    00000100000000934000000000032BF    TTTJY   000000000000NC222014
BI00B32BF    TT2112CBMW     20220222180D0204043              AVSSH 0.75F W/B          CCN000001000000001000FY00000100020211201000000000NNE00 20220323110732    1W    00000100000000934000000000032BF    TTTJY   000000000000NC222015
BI00B32BF    TT2112CBMW     20220222180D0204159              AVSSH 1.25F R/L          CCN000000800000000800FY00000080020211201000000000NNE00 20220323110732    1W    00000080000001458000000000032BF    TTTJY   000000000000NC222016
BI00B32R8    TT22071AMW     20220524180D0203935              AVSSH 0.5F B/R           CCN000001500000001500FN00000000020220701000001500NNM   20220323120253    1W    00000150000000689000000000032R8    TTTJY   000000000000NZ225001
BI00B32R8    TT22071AMW     20220524180D0203937              AVSSH 0.5F B/Y           CCN000001500000001500FN00000000020220701000001500NNM   20220323120253    1W    00000150000000689000000000032R8    TTTJY   000000000000NZ225002
BI00B32R8    TT22071AMW     20220524180D0203980              AVSSH 0.5F BR            CCN000010500000010500FN00000000020220701000010500NNM   20220323120253    1W    00000150000000689000000000032R8    TTTJY   000000000000NZ225003
BI00B32R8    TT22071AMW     20220524180D0203963              AVSSH 0.5F G/B           CCN000001500000001500FN00000000020220701000001500NNM   20220323120253    1W    00000150000000689000000000032R8    TTTJY   000000000000NZ225004
BI00B32R8    TT22071AMW     20220524180D0203993              AVSSH 0.5F L/B           CCN000003000000003000FN00000000020220701000003000NNM   20220323120253    1W    00000150000000689000000000032R8    TTTJY   000000000000NZ225005
BI00B32R8    TT22071AMW     20220524180D0203995              AVSSH 0.5F L/R           CCN000001500000001500FN00000000020220701000001500NNM   20220323120253    1W    00000150000000689000000000032R8    TTTJY   000000000000NZ225006
BI00B32R8    TT22071AMW     20220524180D02039G6              AVSSH 0.5F P/L           CCN000001500000001500FN00000000020220701000001500NNM   20220323120253    1W    00000150000000689000000000032R8    TTTJY   000000000000NZ225007
BI00B32R8    TT22071AMW     20220524180D0203950              AVSSH 0.5F R             CCN000001500000001500FN00000000020220701000001500NNM   20220323120253    1W    00000150000000689000000000032R8    TTTJY   000000000000NZ225008
BI00B32R8    TT22071AMW     20220524180D0203959              AVSSH 0.5F R/L           CCN000001500000001500FN00000000020220701000001500NNM   20220323120253    1W    00000150000000689000000000032R8    TTTJY   000000000000NZ225009
BI00B32R8    TT22071AMW     20220524180D0203943              AVSSH 0.5F W/B           CCN000009000000009000FN00000000020220701000009000NNM   20220323120253    1W    00000150000000689000000000032R8    TTTJY   000000000000NZ225010
BI00B32R8    TT22071AMW     20220524180D0203945              AVSSH 0.5F W/R           CCN000001500000001500FN00000000020220701000001500NNM   20220323120253    1W    00000150000000689000000000032R8    TTTJY   000000000000NZ225011
BI00B32R8    TT22071AMW     20220524180D0203973              AVSSH 0.5F Y/B           CCN000001500000001500FN00000000020220701000001500NNM   20220323120253    1W    00000150000000689000000000032R8    TTTJY   000000000000NZ225012
BI00B32R8    TT22071AMW     20220524180D0203976              AVSSH 0.5F Y/G           CCN000003000000003000FN00000000020220701000003000NNM   20220323120253    1W    00000150000000689000000000032R8    TTTJY   000000000000NZ225013
BI00B32R8    TT22071AMW     20220524180D0204034              AVSSH 0.75F B/W          CCN000001000000001000FN00000000020220701000001000NNM   20220323120253    1W    00000100000000934000000000032R8    TTTJY   000000000000NZ225014
BI00B32R8    TT22071AMW     20220524180D0204043              AVSSH 0.75F W/B          CCN000001000000001000FN00000000020220701000001000NNM   20220323120253    1W    00000100000000934000000000032R8    TTTJY   000000000000NZ225015
BI00B32R8    TT22071AMW     20220524180D0204045              AVSSH 0.75F W/R          CCN000001000000001000FN00000000020220701000001000NNM   20220323120253    1W    00000100000000934000000000032R8    TTTJY   000000000000NZ225016
BI00B32R8    TT22071AMW     20220524180D0204134              AVSSH 1.25F B/W          CCN000000800000000800FN00000000020220701000000800NNM   20220323120253    1W    00000080000001458000000000032R8    TTTJY   000000000000NZ225017
BI00B32R8    TT22071AMW     20220524180D0204180              AVSSH 1.25F BR           CCN000000800000000800FN00000000020220701000000800NNM   20220323120253    1W    00000080000001458000000000032R8    TTTJY   000000000000NZ225018
BI00B32R8    TT22071AMW     20220524180D0204159              AVSSH 1.25F R/L          CCN000000800000000800FN00000000020220701000000800NNM   20220323120253    1W    00000080000001458000000000032R8    TTTJY   000000000000NZ225019
BI00B32R8    TT22071AMW     20220524180D0204143              AVSSH 1.25F W/B          CCN000001600000001600FN00000000020220701000001600NNM   20220323120253    1W    00000080000001458000000000032R8    TTTJY   000000000000NZ225020
