BI00B32J1    @393454        20220503181AD2002ZZ              CIVUSAS-S 0.35X2 B       CCN000054000000054000FN00000000020220501000054000NNE   20220408130819    1W    00000045000001713700000000032J1    UKYEL-BL000000000000KG324001
BI00B32J1    @393454        20220503181E48012ZZ              CAVSAS-S 0.3X1 GY        CCN000001500000001500FN00000000020220501000001500NNE   20220408130819    1W    00000050000001529500000000032J1    UKYEL-BL000000000000KG324002
BI00B32J1    @393454        20220503181E48015ZZ              CAVSAS-S 0.5X1 GY        CCN000004000000004000FN00000000020220501000004000NNE   20220408130819    1W    00000040000001900600000000032J1    UKYEL-BL000000000000KG324003
BI00B32J1    @393454        20220503181E48029ZZ              CAVSAS-S 0.5X4 GY        CCN000002400000002400FN00000000020220501000002400NNE   20220408130819    1W    00000020000003995000000000032J1    UKYEL-BL000000000000KG324006
BI00B32J1    @393454        20220503181E48031ZZ              CAVSAS-S 0.3X2 GY        CCN000003150000003150FN00000000020220501000003150NNE   20220408130819    1W    00000035000002008700000000032J1    UKYEL-BL000000000000KG324008
BI00B32J1    @393454        20220503181E48033ZZ              CAVSAS-S 0.5X3 GY/B      CCN000004600000004600FN00000000020220501000004600NNE   20220408130819    1W    00000020000003795300000000032J1    UKYEL-BL000000000000KG324005
BI00B32J1    @393454        20220503181E48035ZZ              CAVSAS-S 0.5X3 GY        CCN000003600000003600FN00000000020220501000003600NNE   20220408130819    1W    00000020000003795300000000032J1    UKYEL-BL000000000000KG324004
BI00B32J1    @393454        20220503181E48065ZZ              CAVSAS-S 0.5X4 GY/W      CCN000002400000002400FN00000000020220501000002400NNE   20220408130819    1W    00000020000003995000000000032J1    UKYEL-BL000000000000KG324007
BI00B32M1    @TV205A        20220512181E48037ZZ              CAVSAS-S 0.3X4 GY        CCN000007500000007500FN00000000020220501000007500NNE   20220408160232    1W    00000025000003262000000000032M1    VNYEV   000000000000VK424001
BI00B32R8    @TT2206AYMW    20220426181E50036ZZ              AVSSCS-S 0.3FX2 DGY      CCN000001750000001750FN00000000020220601000001750NNE   20220408130619    1W    00000035000002165000000000032R8    TTTJY   000000000000NU224001
