BI00A1200    7200T52401     202204187174-2052-30             COVER                    CCN000001260000001260FN00000000020220501000001260NNE   20220408123506    1F0F  0000012600000055340000102431200    YCYC    005500360039
BI00B32CH    SJ22023HMW     202204087327-6874-30             MULTI FUSE               CCN000014688000014688FY00001468820220201000000000NNM00020220408144258    4N0N  00000028800000991400001157332CH    SJSAMIJF005400370024
BI00B32CH    SJ2202AHMW     202204087327-6870-30             MULTI FUSE               CCN000000576000000576FY00000057620220201000000000NNE00020220408144322    4N0N  00000028800001015200001181132CH    SJSAMIJF005400370024
BI00B32CH    SJ22044HMW     202204087C89-6868-30             SEALED ASSY FEMALE       CCN000012600000012600FY00001260020220401000000000NNM00020220408144338    4N0N  00000252000000839200001119232CH    SJSAMIJF005500360039
BI00B32CH    SJ22043HMW     202204087327-6870-30             MULTI FUSE               CCN000008928000008928FY00000892820220401000000000NNM00020220408144355    4N0N  00000028800001015200001181132CH    SJSAMIJF005400370024
BI00B32CH    SJ22043HMW     202204087327-6880-30             MULTI FUSE               CCN000006336000006336FY00000633620220401000000000NNM00020220408144408    4N0N  00000028800001012600001178532CH    SJSAMIJF005400370024
BI00B32CH    SJ2204AHMW     202204087327-6937-30             MULTI FUSE               CCN000000576000000288FY00000028820220401000000000NNE00020220408144552    4N0N  00000028800001013600001179532CH    SJSAMIJF005400370024
BI00B32CH    SJ22053DMW     202204087287-3885-30             HYBRID FEMALE ASS'Y      CCN000004800000004800FY00000480020220501000000000NNM00020220408144610    1N0N  00000240000001029600001249632CH    SJSAMIJF005500360039
BI00B32CH    SJ22053HMW     202204087B72-5540-80             SEALED WIRE SEAL         CCN000020000000020000FY00002000020220501000000000NNM00020220408144644    1C0C  00002000000000186000000234432CH    SJSAMIJF004300270014
BI00B32CH    SJ22053HMW     202204087298-3822-70             HOUSING FEMALE ASS'Y     CCN000001990000002520FY00000252020220501000000000NNM00020220408144644    4N0N  00000252000000776200001077032CH    SJSAMIJF005500360039
BI00B32CH    SJ22053HMW     202204087298-5993-30             SEALED ASSY FEMALE       CCN000002184000002184FY00000218420220501000000000NNM00020220408144644    4N0N  00000218400000981500001290032CH    SJSAMIJF005500360039
BI00B32CH    SJ22052MMW     202204087116-4115-02             TERMINAL                 CCN000008400000008400FY00000840020220501000000000NNM00020220408144744    4P0P  00000840000000593000000881232CH    SJSAMIJF006400630015
BI00B32CH    SJ22053MMW     202204087116-4116-02             TERMINAL                 CCN000006900000006900FY00000690020220501000000000NNM00020220408144805    4P0P  00000690000000517500000805732CH    SJSAMIJF006400630015
BI00B32CH    @SJ22053MMW    202204087183-8049                CONNECTOR HOUSING        CCN000004000000004000FY00000400020220501000000000NNM00020220408144725    3F0F  00000400000000583600000740032CH    SJSAMIJF005400370024
BI00B32CH    SJ22052SMW     202204087289-6868-30             SEALED ASSY FEMALE       CCN000002520000002520FY00000252020220501000000000NNM00020220408144823    4N0N  00000252000000839200001119232CH    SJSAMIJF005500360039
BI00B32CH    SJ22053SMW     202204087289-6868-30             SEALED ASSY FEMALE       CCN000002520000002520FY00000252020220501000000000NNM00020220408144834    4N0N  00000252000000839200001119232CH    SJSAMIJF005500360039
BI00A32CH    SJ2204AHMW     202204087327-6937-30             MULTI FUSE               CCN000000288000000288FY00000028820220401000000000NNE00020220408144552    4N0N  00000028800001013600001179532CH    SJSAMIJF005400370024
BI00B32D1    DFTC2226       202205057289-3342-30             HOUSING FEMALE ASS'Y     CCN000067200000067200FN00000000020220701000067200NNMD0020220408161504    1N0N  00000240000000686400000901432D1    TOYOT-K 005500360039
BI00B32D2    #DGTC2221      202204127172-5630-40             RUBBER STOPPER           CCN000480000000480000FN00000000020220501000480000NNM00020220408165139    2H0H  00002000000000044000000095132D2    TGYOT-G 004300270014
BI00B32G2    SA2205A MW     202206017254-5840-30             ENG R/B SUB ASS'Y        CCN000000048000000048FN00000000020220501000000048NNED0420220408132958    4J0J  00000002400000732000000952032G2    AISUAI  005600390040
BI00B32G2    SA22061 MW     202206157254-5840-30             ENG R/B SUB ASS'Y        CCN000000384000000384FN00000000020220601000000384NNMD0420220408133020    4J0J  00000002400000732000000952032G2    AISUAI  005600390040
BI00B32G2    SA22062 MW     202206227254-5840-30             ENG R/B SUB ASS'Y        CCN000000288000000288FN00000000020220601000000288NNMD0420220408133042    4J0J  00000002400000732000000952032G2    AISUAI  005600390040
BI00B32G2    SA22063 MW     202206297254-5840-30             ENG R/B SUB ASS'Y        CCN000000240000000240FN00000000020220601000000240NNMD0420220408133058    4J0J  00000002400000732000000952032G2    AISUAI  005600390040
BI00B32G2    SA22064 MW     202207067254-5840-30             ENG R/B SUB ASS'Y        CCN000000192000000192FN00000000020220601000000192NNMD0420220408133125    4J0J  00000002400000732000000952032G2    AISUAI  005600390040
BI00B32G7    JJ2206A MW     202205197114-5747-02             TERMINAL                 CCN000018000000018000FN00000000020220601000018000NNE   20220408123506    4P0P  00001800000000626400000920032G7    JIJAI   006400630015
BI00B32G7    JJ2206A MW     202205197116-5751-02             TERMINAL                 CCN000060000000060000FN00000000020220601000060000NNE   20220408123506    4P0P  00001200000000379200000664432G7    JIJAI   006400630015
BI00B32G7    JJ2206A MW     202205197126-8853-02             TERMINAL                 CCN000015000000015000FN00000000020220601000015000NNE   20220408123506    4P0P  00000750000000562500000847732G7    JIJAI   006400630015
BI00B32G7    JJ2206A MW     202205197288-3334-30             HOUSING MALE             CCN000001500000001500FN00000000020220601000001500NNE   20220408123506    4N0N  00000150000000867000001012032G7    JIJAI   005400370024
BI00B32G7    #JJ2206A MW    202205197158-3003-90             RUBBER STOPPER           CCN000040000000040000FN00000000020220601000040000NNE   20220408123506    2C0C  00002000000000250000000306032G7    JIJAI   002700430014
BI00B32G7    #JJ2206A MW    202205197158-3008-80             RUBBER STOPPER           CCN000020000000020000FN00000000020220601000020000NNE   20220408123506    2C0C  00002000000000288000000343032G7    JIJAI   004300270014
BI00B32G7    #JJ2206ALMW    202205197183-2414                CONNECTOR HOUSING        CCN000004800000004800FN00000000020220601000004800NNE   20220408144333    2F0F  00000480000000779200001061032G7    JIJAI   005500360039
BI00B32G7    JJ2206AMMW     202205197126-8892-02             FUSE TERMINAL            CCN000006000000006000FN00000000020220601000006000NNE   20220408144403    4P0P  00000600000000495000000780232G7    JIJAI   006400630015
BI00B32G7    JJ2206AMMW     202205197195-1936-02             TERMINAL MALE            CCN000015000000015000FN00000000020220601000015000NNE   20220408144403    4P0P  00001500000000589500000883132G7    JIJAI   006400630015
BI00B32G7    JJ2206AMMW     202205197196-0396-02             TERMINAL                 CCN000015000000015000FN00000000020220601000015000NNE   20220408144403    4P0P  00001500000000949500001112932G7    JIJAI   002800510028
BI00B32G7    JJ2206AMMW     202205197196-1102-02             TERMINAL                 CCN000022500000022500FN00000000020220601000022500NNE   20220408144403    4P0P  00002250000000405000000690232G7    JIJAI   006400630015
BI00B32G7    JJ2206AMMW     202205197196-1325-02             TERMINAL FEMALE          CCN000060000000060000FN00000000020220601000060000NNE   20220408144403    4P0P  00006000000000450000000778732G7    JIJAI   006400630017
BI00B32G7    JJ2206AMMW     202205197196-1481-02             TERMINAL FEMALE          CCN000024000000024000FN00000000020220601000024000NNE   20220408144403    4P0P  00002400000000422400000707632G7    JIJAI   006400630015
BI00B32G7    JJ2206AMMW     202205197196-1937-02             TERMINAL FEMALE          CCN000013500000013500FN00000000020220601000013500NNE   20220408144403    4P0P  00001350000000446900000732132G7    JIJAI   006400630015
BI00B32G7    JJ2206AMMW     202205197196-1944-02             TERMINAL FEMALE          CCN000012000000012000FN00000000020220601000012000NNE   20220408144403    4P0P  00001200000000501600000786832G7    JIJAI   006400630015
BI00B32G7    JJ2206AMMW     202205197289-5979-30             HOUSING FEMALE ASS'Y     CCN000000252000000252FN00000000020220601000000252NNE   20220408144403    1N0N  00000025200000854700001064732G7    JIJAI   005400370024
BI00B32G7    JJ2206AMMW     202205197297-3482                JOINT CONNECTOR          CCN000002400000002400FN00000000020220601000002400NNE   20220408144403    4N0N  00000080000000621000000730532G7    JIJAI   005400370024
BI00B32G7    JJ2206AMMW     202205197298-3484                HOUSING FEMALE ASS'Y     CCN000002700000002700FN00000000020220601000002700NNE   20220408144403    4N0N  00000270000000742500001028732G7    JIJAI   005400370024
BI00B32G7    #JJ2206AMMW    202205197172-5626-90             RUBBER STOPPER           CCN000020000000020000FN00000000020220601000020000NNE   20220408144356    2H0H  00002000000000076400000127832G7    JIJAI   004300270014
BI00B32G7    #JJ2206AMMW    202205197172-5628-80             DUMMY PLUG               CCN000020000000020000FN00000000020220601000020000NNE   20220408144356    2H0H  00002000000000110600000162032G7    JIJAI   004300270014
BI00B32G8    PATA2061       202205117017-1181-02             TERMINAL                 CCN000126000000126000FN00000000020220601000126000NNE   20220408141953    4P0P  00006300000001089900001266832G8    PSPASI  005100280028
BI00B32G8    PATA2061       202205117273-3570-0W             CASSETTE BRACKET         CCN000003600000003600FN00000000020220601000003600NNE   20220408141953    4N0N  00000010000000144100000196632G8    PSPASI  004300270014
BI00B32G8    PATA2061       202205117273-3573-0W             CASSETTE BRACKET         CCN000010200000010200FN00000000020220601000010200NNE   20220408141953    4N0N  00000010000000087700000140232G8    PSPASI  004300270014
BI00B32G8    PATA2061       202205117273-3571-0W             CASSETTE BRACKET         CCN000004200000004200FN00000000020220601000004200NNE   20220408141953    4N0N  00000010000000134600000187132G8    PSPASI  004300270014
BI00B32G8    PATA2061       202205117470-5302                J/B COMPLETE ASS'Y       CCN000002400000002400FN00000000020220601000002400NNE   20220408141953    4J0J  00000001000000494000000661032G8    PSPASI  005400370024
BI00B32G8    PATA2061       202205117470-5945                J/B COMPLETE ASS'Y       CCN000002340000002340FN00000000020220601000002340NNE   20220408141953    4J0J  00000001000000494000000661032G8    PSPASI  005400370024
BI00B32G8    PATA2061       202205117470-5946                J/B COMPLETE ASS'Y       CCN000000720000000720FN00000000020220601000000720NNE   20220408141953    4J0J  00000001000000494000000661032G8    PSPASI  005400370024
BI00B32G8    PATA2061       202205117470-5939                J/B COMPLETE ASS'Y       CCN000000110000000110FN00000000020220601000000110NNE   20220408141953    4J0J  00000001000000494000000661032G8    PSPASI  005400370024
BI00B32G8    PATA2061       202205117470-6156                J/B COMPLETE ASS'Y       CCN000000010000000010FN00000000020220601000000010NNE   20220408141953    4J00  00000001000000494000000661032G8    PSPASI  005400370024
BI00A32H2    TIJ2043        202204297289-3342-30             HOUSING FEMALE ASS'Y     PCN000048000000048000FN00000000020220401000048000NNM00020220408123506    1N0N  00000240000000686400000901432H2    HVYHV   005500360039
BI00B32H2    TIJ205T        202204297116-4110-02             TERMINAL                 CCN000009000000009000FN00000000020220501000009000NNE   20220408123506    4P0P  00000900000000594000000882232H2    HVYHV   006400630015
BI00B32H2    #TIJ205T       202204297283-8123-30             CONNECTOR HOUSING        CCN000004000000004000FN00000000020220501000004000NNE   20220408123506    2N0N  00000400000000380000000530032H2    HVYHV   005600390023
BI00B32H2    TIJ206A        202205137114-4486-02             TERMINAL                 CCN000048000000048000FN00000000020220601000048000NNE   20220408123506    4P0P  00002400000000662400000956032H2    HVYHV   006400630015
BI00B32H2    #TIJ206A       202205137183-6320-30             HOUSING                  CCN000004800000004800FN00000000020220601000004800NNE   20220408123506    2F0F  00000480000000819400001102232H2    HVYHV   005500360039
BI00B32H2    TIJ206B        202205207114-4486-02             TERMINAL                 CCN000024000000024000FN00000000020220601000024000NNE   20220408123506    4P0P  00002400000000662400000956032H2    HVYHV   006400630015
BI00B32H2    #TIJ206B       202205207183-6320-30             HOUSING                  CCN000004800000004800FN00000000020220601000004800NNE   20220408123506    2F0F  00000480000000819400001102232H2    HVYHV   005500360039
BI00B32H2    #TIJ206B       202205207287-7859                HYBRID FEMALE ASS'Y      CCN000003600000003600FN00000000020220601000003600NNE   20220408123506    2N0N  00000120000000461600000671632H2    HVYHV   005500360039
BI00B32H2    #TIJ206B       202205207287-7860-70             HYBRID FEMALE ASS'Y      CCN000001200000001200FN00000000020220601000001200NNE   20220408123506    2N0N  00000120000000464400000650432H2    HVYHV   005500360039
BI00B32H2    TIJ206C        202205277114-4486-02             TERMINAL                 CCN000024000000024000FN00000000020220601000024000NNE   20220408123506    4P0P  00002400000000662400000956032H2    HVYHV   006400630015
BI00B32H2    TIJ206C        202205277116-4037                TERMINAL                 CCN000006000000006000FN00000000020220601000006000NNE   20220408123506    4P0P  00000600000000600000000894232H2    HVYHV   006400630015
BI00B32H2    TIJ206C        202205277286-4097                CONNECTOR MALE ASS'Y     CCN000003200000003200FN00000000020220601000003200NNE   20220408123506    1N0N  00000160000000768000000978032H2    HVYHV   005500360039
BI00B32H2    TIJ206C        202205277289-3342-30             HOUSING FEMALE ASS'Y     CCN000012000000012000FN00000000020220601000012000NNE   20220408123506    1N0N  00000240000000686400000901432H2    HVYHV   005500360039
BI00B32H2    #TIJ206C       202205277158-3015-10             RUBBER STOPPER           CCN000010000000010000FN00000000020220601000010000NNE   20220408123506    2C0C  00001000000000419500000474032H2    HVYHV   002700430014
BI00B32H2    TIJ206D        202206037116-4110-02             TERMINAL                 CCN000009000000009000FN00000000020220601000009000NNE   20220408123506    4P0P  00000900000000594000000882232H2    HVYHV   006400630015
BI00B32H2    TIJ206D        202206037289-3342-30             HOUSING FEMALE ASS'Y     CCN000060000000060000FN00000000020220601000060000NNE   20220408123506    1N0N  00000240000000686400000901432H2    HVYHV   005500360039
BI00B32H2    #TIJ206D       202206037183-6320-30             HOUSING                  CCN000004800000004800FN00000000020220601000004800NNE   20220408123506    2F0F  00000480000000819400001102232H2    HVYHV   005500360039
BI00B32H2    #TIJ206D       202206037283-8123-30             CONNECTOR HOUSING        CCN000004000000004000FN00000000020220601000004000NNE   20220408123506    2N0N  00000400000000380000000530032H2    HVYHV   005600390023
BI00B32H2    #TIJ206D       202206037287-7860-70             HYBRID FEMALE ASS'Y      CCN000002400000002400FN00000000020220601000002400NNE   20220408123506    2N0N  00000120000000464400000650432H2    HVYHV   005500360039
BI00B32J1    @392393        202204187283-1100-60             CONNECTOR ASS'Y          CCN000001600000001600FN00000000020220401000001600NNED0020220408123506    3N0N  00000160000000567500000801432J1    UKYEL-BL005500360039
BI00B32J1    392772         202204187114-4231-02             TERMINAL                 CCN000018000000018000FN00000000020220401000018000NNED0020220408123506    4P0P  00001800000000554400000848032J1    UKYEL-BL006400630015
BI00B32J1    392772         202204187126-8850-02             TERMINAL                 CCN000018000000018000FN00000000020220401000018000NNED0020220408123506    1P0P  00000900000000672300000957532J1    UKYEL-BL006400630015
BI00B32J1    392772         202204187126-8852-02             TERMINAL                 CCN000007500000007500FN00000000020220401000007500NNED0020220408123506    1P0P  00000750000000648000000933232J1    UKYEL-BL006400630015
BI00B32J1    392772         202204187235-8662                DOOR GROMMET             CCN000000480000000480FN00000000020220401000000480NNED0020220408123506    4N0N  00000016000000844000001010032J1    UKYEL-BL005500360039
BI00B32J1    393213         202204187282-5574-10             CONNECTOR                CCN000008000000008000FN00000000020220401000008000NNMD0020220408123506    4N0N  00000080000001235000001423032J1    UKYEL-BL005600390040
BI00B32J1    393213         202204187283-1040                CONNECTOR                CCN000008000000008000FN00000000020220401000008000NNMD0020220408123506    4N0N  00000200000000396000000670032J1    UKYEL-BL005600390040
BI00B32J1    393213         202204187283-6388-40             CONNECTOR                CCN000006000000006000FN00000000020220401000006000NNMD0020220408123506    4N0N  00000200000001029000001173532J1    UKYEL-BL005500360039
BI00B32J1    393213         202204187283-6448-40             CONNECTOR                CCN000003000000003000FN00000000020220401000003000NNMD0020220408123506    4N0N  00000150000001087000001329032J1    UKYEL-BL005600390040
BI00B32J1    393213         202204257298-2507-30             HOUSING FEMALE ASS'Y     CCN000004800000004800FN00000000020220401000004800NNMD0020220408123506    4N0N  00000120000000713200000914532J1    UKYEL-BL005500360039
BI00B32J1    393213         202204187298-2508-30             HOUSING FEMALE ASS'Y     CCN000002400000002400FN00000000020220401000002400NNMD0020220408123506    4N0N  00000120000000822000001005032J1    UKYEL-BL005500360039
BI00B32J1    393213         202204257298-2509-30             HOUSING FEMALE ASS'Y     CCN000004800000004800FN00000000020220401000004800NNMD0020220408123506    4N0N  00000120000000857500001062532J1    UKYEL-BL005500360039
BI00B32J1    393253         202204187116-4020                TERMINAL                 CCN000405000000405000FN00000000020220501000405000NNED0020220408123506    4P0P  00001350000000513000000798232J1    UKYEL-BL006400630015
BI00B32J1    393258         202204187114-6041                TERMINAL                 CCN000032400000032400FN00000000020220501000032400NNED0020220408123506    4P0P  00000360000000580700000824232J1    UKYEL-BL006400630015
BI00B32J1    393254         202204187114-1475                TERMINAL                 CCN000013500000013500FN00000000020220501000013500NNED0020220408123506    4P0P  00001350000000480600000774232J1    UKYEL-BL006400630015
BI00B32J1    393254         202204187116-1257-02             TERMINAL                 CCN000048000000048000FN00000000020220501000048000NNED0020220408123506    1P0P  00002400000000518400000847132J1    UKYEL-BL006400630017
BI00B32J1    393254         202204187116-4020                TERMINAL                 CCN000013500000013500FN00000000020220501000013500NNED0020220408123506    4P0P  00001350000000513000000798232J1    UKYEL-BL006400630015
BI00B32J1    393306         202204187114-1670-02             TERMINAL                 CCN000024000000024000FN00000000020220601000024000NNED0020220408123506    1P0P  00002400000000357600000645832J1    UKYEL-BL006400630015
BI00B32J1    393326         202204187114-1475                TERMINAL                 CCN000013500000013500FN00000000020220501000013500NNED0020220408123506    4P0P  00001350000000480600000774232J1    UKYEL-BL006400630015
BI00B32J1    393326         202204187114-4231-02             TERMINAL                 CCN000018000000018000FN00000000020220501000018000NNED0020220408123506    4P0P  00001800000000554400000848032J1    UKYEL-BL006400630015
BI00B32J1    393326         202204187114-6041                TERMINAL                 CCN000003600000003600FN00000000020220501000003600NNED0020220408123506    4P0P  00000360000000580700000824232J1    UKYEL-BL006400630015
BI00B32J1    393326         202204187126-8850-02             TERMINAL                 CCN000027000000027000FN00000000020220501000027000NNED0020220408123506    1P0P  00000900000000672300000957532J1    UKYEL-BL006400630015
BI00B32J1    393326         202204187126-8852-02             TERMINAL                 CCN000015000000015000FN00000000020220501000015000NNED0020220408123506    1P0P  00000750000000648000000933232J1    UKYEL-BL006400630015
BI00B32J1    393326         202204187370-0309                J/B ASS'Y                CCN000000144000000144FN00000000020220501000000144NNED0020220408123506    1J0J  00000001600000870400001260032J1    UKYEL-BL005500360039
BI00B32J1    393452         202204187114-1475                TERMINAL                 CCN000013500000013500FN00000000020220501000013500NNMD0020220408123506    4P0P  00001350000000480600000774232J1    UKYEL-BL006400630015
BI00B32J1    393452         202204187114-4031                TERMINAL                 CCN000031500000031500FN00000000020220501000031500NNMD0020220408123506    4P0P  00001050000000966000001294632J1    UKYEL-BL006400630017
BI00B32J1    393452         202204187126-8850-02             TERMINAL                 CCN000009000000009000FN00000000020220501000009000NNMD0020220408123506    1P0P  00000900000000672300000957532J1    UKYEL-BL006400630015
BI00B32J1    393452         202205037158-3006-90             RUBBER STOPPER           CCN000060000000060000FN00000000020220501000060000NNM   20220408123506    1C0C  00002000000000330600000386032J1    UKYEL-BL002700430014
BI00B32J1    393452         202205037158-3165-90             WIRE SEAL                CCN000280000000280000FN00000000020220501000280000NNM   20220408123506    1C0C  00004000000000124000000172432J1    UKYEL-BL004300270014
BI00B32J1    393452         202205037158-3166-60             WIRE SEAL                CCN002160000002160000FN00000000020220501002160000NNM   20220408123506    1C0C  00004000000000104000000152432J1    UKYEL-BL002700430014
BI00B32J1    393452         202205037158-3167-61             WIRE SEAL                CCN000140000000140000FN00000000020220501000140000NNM   20220408123506    1C0C  00002000000000048000000096432J1    UKYEL-BL004300270014
BI00B32J1    393452         202205037158-3167-80             WIRE SEAL                CCN002640000002640000FN00000000020220501002640000NNM   20220408123506    1C0C  00002000000000048000000109032J1    UKYEL-BL002700430014
BI00B32J1    393452         202205037158-3168-80             SEALED                   CCN000300000000300000FN00000000020220501000300000NNM   20220408123506    1C0C  00002000000000044000000092132J1    UKYEL-BL004300260014
BI00B32J1    393452         202205037196-1461-02             TERMINAL FEMALE          CCN000504000000504000FN00000000020220501000504000NNM   20220408123506    4P0P  00002400000000386400000671632J1    UKYEL-BL006400630015
BI00B32J1    393452         202205037196-1461-06             TERMINAL FEMALE          CCN000096000000096000FN00000000020220501000096000NNM   20220408123506    4P0P  00002400000000386400000692932J1    UKYEL-BL006400630015
BI00B32J1    393452         202205037282-5574-10             CONNECTOR                CCN000007200000007200FN00000000020220501000007200NNM   20220408123506    4N0N  00000080000001235000001423032J1    UKYEL-BL005600390040
BI00B32J1    393452         202205037283-5846                HOUSING                  CCN000022500000022500FN00000000020220501000022500NNM   20220408123506    1N0N  00000150000000885000001102032J1    UKYEL-BL005600390040
BI00B32J1    393452         202205037283-6388-40             CONNECTOR                CCN000006000000006000FN00000000020220501000006000NNM   20220408123506    4N0N  00000200000001029000001173532J1    UKYEL-BL005500360039
BI00B32J1    393452         202205037289-5000                HOUSING FEMALE ASS'Y     CCN000001520000001520FN00000000020220501000001520NNM   20220408123506    1N0N  00000030400000549000000759032J1    UKYEL-BL005400370024
BI00B32J1    393452         202205037298-1865-30             HOUSING FEMALE ASS'Y     CCN000076800000076800FN00000000020220501000076800NNM   20220408123506    4N0N  00000240000001003200001204532J1    UKYEL-BL005500360039
BI00B32J1    393452         202205037298-1869-30             HOUSING FEMALE ASS'Y     CCN000031200000031200FN00000000020220501000031200NNM   20220408123506    4N0N  00000120000000737000000939832J1    UKYEL-BL005500360039
BI00B32J1    393452         202205037298-2278-30             HOUSING FEMALE ASS'Y     CCN000002400000002400FN00000000020220501000002400NNM   20220408123506    4N0N  00000240000001091700001295432J1    UKYEL-BL005500360039
BI00B32J1    393452         202205037298-2508-30             HOUSING FEMALE ASS'Y     CCN000001200000001200FN00000000020220501000001200NNM   20220408123506    4N0N  00000120000000822000001005032J1    UKYEL-BL005500360039
BI00B32J1    393452         202205037298-2509-30             HOUSING FEMALE ASS'Y     CCN000006000000006000FN00000000020220501000006000NNM   20220408123506    4N0N  00000120000000857500001062532J1    UKYEL-BL005500360039
BI00B32J1    #393452        202205037047-5344                RETAINER                 CCN000050000000050000FN00000000020220501000050000NNM   20220408123506    2F0F  00001000000000870000001016032J1    UKYEL-BL005600390023
BI00B32J1    #393452        202205037147-8717-30             CLIP                     CCN000005000000005000FN00000000020220501000005000NNM   20220408123506    2F0F  00000500000000660000000875032J1    UKYEL-BL005600390040
BI00B32J1    #393452        202205037157-3646                RUBBER STOPPER           CCN000020000000020000FN00000000020220501000020000NNM   20220408123506    2H0H  00002000000000184000000255232J1    UKYEL-BL002700430014
BI00B32J1    #393452        202205037183-7725-40             HOUSING                  CCN000012000000012000FN00000000020220501000012000NNM   20220408123506    2F0F  00000600000000840000001040032J1    UKYEL-BL005600390040
BI00B32J1    #393452        202205037282-4192-40             CONNECTOR                CCN000000960000000960FN00000000020220501000000960NNM   20220408123506    2N0N  00000024000000801000001083732J1    UKYEL-BL005600390040
BI00B32J1    #393452        202205037282-6446-30             CONNECTOR                CCN000003000000003000FN00000000020220501000003000NNM   20220408123506    2N0N  00000150000001185000001335032J1    UKYEL-BL005500360039
BI00B32J1    #393452        202205037282-6446-40             CONNECTOR                CCN000003000000003000FN00000000020220501000003000NNM   20220408123506    2N0N  00000150000001185000001368032J1    UKYEL-BL005500360039
BI00B32J1    #393452        202205037283-8226-30             CONNECTOR                CCN000008000000008000FN00000000020220501000008000NNM   20220408123506    2N0N  00000200000000820000001008032J1    UKYEL-BL005400370024
BI00B32J1    #393493        202205237282-5545-10             CONNECTOR                CCN000001600000001600FN00000000020220501000001600NNE   20220408123506    2N0N  00000080000001293600001465332J1    UKYEL-BL005500360039
BI00B32J1    393506         202205237114-4032                TERMINAL                 CCN000015000000015000FN00000000020220501000015000NNE   20220408162245    4P0P  00000750000000735000001063632J1    UKYEL-BL006400630017
BI00A32M1    TCV2041        202204257289-3342                HOUSING FEMALE ASS'Y     PCN000031200000031200FN00000000020220401000031200NNMD0420220408123506    1N0N  00000240000000686400000901432M1    VNYEV   005500360039
BI00B32M4    TP2061         202206097327-6983-30             MAIN FUSE                CCN000003600000003600FN00000000020220601000003600NNMD0420220408133206    4N0N  00000060000000748800000951532M4    SISAI   005400370024
BI00B32M4    TP2062         202206167327-6983-30             MAIN FUSE                CCN000001800000001800FN00000000020220601000001800NNMD0420220408133233    4N0N  00000060000000748800000951532M4    SISAI   005400370024
BI00B32M4    TP2063         202206237327-6983-30             MAIN FUSE                CCN000001800000001800FN00000000020220601000001800NNMD0420220408133246    4N0N  00000060000000748800000951532M4    SISAI   005400370024
BI00B32M4    TP2064         202206307327-6983-30             MAIN FUSE                CCN000001200000001200FN00000000020220601000001200NNMD0420220408133258    4N0N  00000060000000748800000951532M4    SISAI   005400370024
BI00B32M4    TP2061         202206097327-6985-30             MULTI FUSE               CCN000003456000003456FN00000000020220601000003456NNMD0420220408133321    4N0N  00000028800000886100001052032M4    SISAI   005400370024
BI00B32M4    TP2062         202206167327-6985-30             MULTI FUSE               CCN000001728000001728FN00000000020220601000001728NNMD0420220408133333    4N0N  00000028800000886100001052032M4    SISAI   005400370024
BI00B32M4    TP2063         202206237327-6985-30             MULTI FUSE               CCN000001728000001728FN00000000020220601000001728NNMD0420220408133350    4N0N  00000028800000886100001052032M4    SISAI   005400370024
BI00B32M4    TP2064         202206307327-6985-30             MULTI FUSE               CCN000001728000001728FN00000000020220601000001728NNMD0420220408133402    4N0N  00000028800000886100001052032M4    SISAI   005400370024
BI00B32M4    TP2061         202206097327-6990-30             MULTI FUSE               CCN000003920000003920FN00000000020220601000003920NNMD0420220408133416    4NON  00000056000000724000000907032M4    SISAI   005400370024
BI00B32M4    TP2062         202206167327-6990-30             MULTI FUSE               CCN000002240000002240FN00000000020220601000002240NNMD0420220408133428    4NON  00000056000000724000000907032M4    SISAI   005400370024
BI00B32M4    TP2063         202206237327-6990-30             MULTI FUSE               CCN000002240000002240FN00000000020220601000002240NNMD0420220408133440    4NON  00000056000000724000000907032M4    SISAI   005400370024
BI00B32M4    TP2064         202206307327-6990-30             MULTI FUSE               CCN000000560000000560FN00000000020220601000000560NNMD0420220408133453    4NON  00000056000000724000000907032M4    SISAI   005400370024
BI00B32M4    TP2061         202206097327-6998-30             MULTI FUSE               CCN000000864000000864FN00000000020220601000000864NNMD0420220408133508    4N0N  00000028800000886000001051932M4    SISAI   005400370024
BI00B32M4    TP2062         202206167327-6998-30             MULTI FUSE               CCN000000576000000576FN00000000020220601000000576NNMD0420220408133519    4N0N  00000028800000886000001051932M4    SISAI   005400370024
BI00B32M4    TP2063         202206237327-6998-30             MULTI FUSE               CCN000000288000000288FN00000000020220601000000288NNMD0420220408133531    4N0N  00000028800000886000001051932M4    SISAI   005400370024
BI00B32N1    #NST2118ICU    202204287158-3008-80             RUBBER STOPPER           CCN000060000000060000FN00000000020220501000060000NNED0420220408142614    2C0C  00002000000000288000000343032N1    TAYIPL  004300270014
BI00B32N3    NBT206 A1      202205057470-5940                J/B COMPLETE ASS'Y       CCN000001500000001500FN00000000020220601000001500NNMD0420220408132559    4J0J  00000001000000494000000661032N3    ABYIPL-B005400370024
BI00B32N3    NBT206 A1      202205057470-6015                J/B COMPLETE ASS'Y       CCN000001820000001820FN00000000020220601000001820NNMD0420220408132559    4J0J  00000001000000494000000661032N3    ABYIPL-B005400360024
BI00B32N3    NBT206 A1      202205057470-6016                J/B COMPLETE ASS'Y       CCN000000700000000700FN00000000020220601000000700NNMD0420220408132559    4J0J  00000001000000494000000661032N3    ABYIPL-B005400360024
BI00B32P8    TAPI-206B1     202205257283-4855-40             CONNECTOR HOUSING        CCN000002000000002400FN00000000020220601000002400NNM   20220408123506    4N0N  00000240000001188400001400032P8    YIYTM   005600360039
BI00B32Q8    #EU22023TMW    202204207172-5630-40             RUBBER STOPPER           CCN001500000001500000FN00000000020220201001500000NNMD0420220408123506    2H0H  00002000000000044000000095132Q8    EMEMI   004300270014
BI00B32Q8    #EU22024TMW    202204207172-5630-40             RUBBER STOPPER           CCN001840000001840000FN00000000020220201001840000NNMD0420220408123506    2H0H  00002000000000044000000095132Q8    EMEMI   004300270014
BI00B32Q8    #EU22043TMW    202204087172-5630-40             RUBBER STOPPER           CCN002260000001660000FY00166000020220401000000000NNMD0420220408163039    2H0H  00002000000000044000000095132Q8    EMEMI   004300270014
BI00B32Q8    #EU22044TMW    202204207172-5630-40             RUBBER STOPPER           CCN001340000001340000FN00000000020220401001340000NNMD0420220408123506    2H0H  00002000000000044000000095132Q8    EMEMI   004300270014
BI00B32Q8    EU2204E MW     202204207114-4100-02             TERMINAL                 CCN000054000000054000FN00000000020220401000054000NNEM0020220408151550    4P0P  00001800000000748800001077432Q8    EMEMI   006400630017
BI00B32Q8    EU2204E MW     202204207114-4111-02             TERMINAL                 CCN000036000000036000FN00000000020220401000036000NNEM0020220408150447    4P0P  00001200000000758400001087032Q8    EMEMI   006400630017
BI00B32Q8    EU2204E MW     202204207114-4112-02             TERMINAL                 CCN000018000000018000FN00000000020220401000018000NNEM0020220408150447    4P0P  00000900000000598500000927132Q8    EMEMI   006400630017
BI00B32Q8    EU2206CTMW     202205047196-0512-02             TERMINAL                 CCN000021000000021000FN00000000020220601000021000NNE   20220408144537    4P0P  00002100000000871500001034932Q8    EMEMI   002800510028
BI00B32Q8    #EU2206CTMW    202205047287-1670                HOUSING FEMALE ASS'Y     CCN000002800000002800FN00000000020220601000002800NNE   20220408144532    2N0N  00000280000000953100001145132Q8    EMEMI   005400370024
BI00B32Q8    EU2206DTMW     202205117196-1326-02             TERMINAL FEMALE          CCN000015000000060000FN00000000020220601000060000NNE   20220408144604    4P0P  00006000000000456000000784732Q8    EMEMI   006400630017
BI00B32Q8    EU2206DTMW     202205117327-6952-30             MULTI FUSE               CCN000000560000000560FN00000000020220601000000560NNE   20220408144604    4N0N  00000056000000848500001031532Q8    EMEMI   005400370024
BI00B32Q8    #EU2206DTMW    202205117287-1669                HOUSING FEMALE ASS'Y     CCN000002000000002000FN00000000020220601000002000NNE   20220408144552    2N0N  00000200000000788800000980832Q8    EMEMI   005400370024
BI00B32Q8    EU2206E MW     202205117116-3154-08             TERMINAL                 CCN000027000000027000FN00000000020220601000027000NNE   20220408144634    4P0P  00002700000000475200000760432Q8    EMEMI   006400630015
BI00B32Q8    EU2206E MW     202205117116-4102-02             TERMINAL                 CCN000024000000024000FN00000000020220601000024000NNE   20220408144634    4P0P  00001200000000553200000841432Q8    EMEMI   006400630015
BI00B32Q8    EU2206E MW     202205117116-6041                TERMINAL                 CCN000004500000004500FN00000000020220601000004500NNE   20220408144634    4P0P  00000450000000716000001009632Q8    EMEMI   006400630015
BI00B32Q8    #EU2206E MW    202205117183-2412                HOUSING                  CCN000004800000004800FN00000000020220601000004800NNE   20220408144630    2F0F  00000160000001059200001245632Q8    EMEMI   005500360039
BI00B32Q8    #EU2206E MW    202205117283-8123                CONNECTOR HOUSING        CCN000008000000008000FN00000000020220601000008000NNE   20220408144630    2N0N  00000400000000380000000531732Q8    EMEMI   005600390023
BI00B32Q8    EU2206F MW     202205187116-4121-02             TERMINAL                 CCN000027000000027000FN00000000020220601000027000NNE   20220408144648    4P0P  00000450000000618800000912432Q8    EMEMI   006400630015
BI00B32Q8    #EU2206F MW    202205187123-6423-30             CONNECTOR                CCN000010000000010000FN00000000020220601000010000NNE   20220408144646    2F0F  00000200000001002000001167632Q8    EMEMI   005600390023
BI00B32R7    R-TAP220173    202204287137-3047-30             UNIT PACKING             CCN000020000000020000FN00000000020220501000020000NNE   20220408123506    1C0C  00000100000000170500000218932R7    IVYCIC  002700430014
BI00B32R7    R-TAP220173    202204287172-5402-30             SEAL RUBBER              CCN000040000000040000FN00000000020220501000040000NNE   20220408123506    1C0C  00000800000000457600000506032R7    IVYCIC  004300270014
BI00B32R7    R-TAP220173    202204287172-5403-30             SEALED PACKING           CCN000020000000020000FN00000000020220501000020000NNE   20220408123506    1C0C  00000400000000653600000701732R7    IVYCIC  004300270014
BI00B32R7    R-TAP220174    202204287183-8255-40             HOUSING                  CCN000013200000013200FN00000000020220501000013200NNE   20220408123506    1F0F  00000120000000552000000853732R7    IVYCIC  005500360039
BI00B32R7    R-TAP220174    202204287183-8256-40             HOUSING                  CCN000013200000013200FN00000000020220501000013200NNE   20220408123506    1F0F  00000120000000937000001045732R7    IVYCIC  005500360039
BI00B32R7    R-TAP220175    202205057298-1186-40             SQUIB SUB ASS'Y          CCN000150000000150000FN00000000020220501000150000NNE   20220408123506    4N0N  00001000000000650000000774532R7    IVYCIC  005400370024
BI00A32U5    DI2014         202204297289-3342-30             HOUSING FEMALE ASS'Y     PCN000038400000038400FN00000000020220501000038400NNMD0420220408123506U5  1N0N  00000240000000686400000901432U5    AMAMSD  005500360039
BI00A32U5    DI2016D        202205137116-5046-02             TERMINAL                 CCN000060000000060000FN00000000020220401000060000NNED0720220408123506U5  4P0P  00001200000000544800000873532U5    AMAMSD  006400630017
BI00A32U5    #DI2016D       202205137189-3032                HOUSING FEMALE           CCN000006400000006400FN00000000020220401000006400NNED0720220408123506U5  2F0F  00000160000000788400001018432U5    AMAMSD  005500360039
BI00A32U5    #DI2016D       202205137158-3007-10             RUBBER STOPPER           CCN000100000000100000FN00000000020220401000100000NNED0720220408123506U5  2H0H  00002000000000308000000362732U5    AMAMSD  002700430014
BI00A32U5    #DI2016D       202205137158-3008-80             RUBBER STOPPER           CCN000060000000060000FN00000000020220401000060000NNED0720220408123506U5  2C0C  00002000000000288000000343032U5    AMAMSD  004300270014
BI00A32U5    #DI2016D       202205137289-4200-30             HOUSING FEMALE ASS'Y     CCN000020000000020000FN00000000020220401000020000NNED0720220408123506U5  2N0N  00000200000000926000001021032U5    AMAMSD  005400370024
BI00B32W4    4500185280     202204277289-9553-30             SEALED ASSY FEMALE       CCN000244020000244020FN00000000020220301000244020NNED0420220408151159W4564N0N  00000294000001109000001521532W456  HJYHK   005500360039
BI00B32W4    4500185280     202204207158-3167-80             WIRE SEAL                CCN000050000000500000FN00000000020220301000500000NNED0420220408151226W4561C0C  00002000000000048000000109032W456  HJYHK   002700430014
BI00B32W4    4500185280     202204277158-3167-80             WIRE SEAL                CCN000500000000500000FN00000000020220301000500000NNED0420220408151226W4561C0C  00002000000000048000000109032W456  HJYHK   002700430014
BI00B32W4    4500188075     202204277158-3167-80             WIRE SEAL                CCN001400000001400000FN00000000020220401001400000NNE00020220408151126W4561C0C  00002000000000048000000109032W456  HJYHK   002700430014
BI00B32W4    4500188075     202204277158-3168-80             SEALED                   CCN000080000000080000FN00000000020220401000080000NNE00020220408151126W4561C0C  00002000000000044000000092132W456  HJYHK   004300260014
BI00B32W4    4500188075     202205047158-3169-40             SEALING PLUG             CCN000400000000400000FN00000000020220401000400000NNED0020220408151140W4561C0C  00004000000000156000000204132W456  HJYHK   004300260014
BI00B32W4    4500188075     202205117289-9553-50             SEALED ASSY FEMALE       CCN000058800000058800FN00000000020220401000058800NNED0420220408151140W4564N0N  00000294000001108100001520632W456  HJYHK   005500360039
BI00A32W4    4500190761     202204087283-5548-30             CONNECTOR                CCN000003000000003000FY00000300020220401000000000NNED0020220408163040W4G34N0N  00000150000001109000001302032W4G3  HJYHK-J 005600390040
BI00A32W4    4500192017     202205137158-3167-80             WIRE SEAL                CCN000040000000040000FN00000000020220501000040000NNE   20220408123506W4G31C0C  00002000000000048000000109032W4G3  HJYHK-J 002700430014
BI00A32W4    4500192017     202205137283-5548-30             CONNECTOR                CCN000003000000003000FN00000000020220501000003000NNE   20220408123506W4G34N0N  00000150000001109000001302032W4G3  HJYHK-J 005600390040
BI00A32W4    4500192017     202205137116-4124-02             TERMINAL                 CCN000006000000006000FN00000000020220501000006000NNE   20220408123506W4G34P0P  00000300000000459900000753532W4G3  HJYHK-J 006400630015
BI00A32W4    4500192019     202205037116-4112-02             TERMINAL                 CCN000012000000012000FN00000000020220401000012000NNED0720220408123506W4174P0P  00000600000000450000000738232W417  HJYHK   006400630015
BI00A32W4    4500192024     202206067116-4026                TERMINAL                 CCN000016000000016000FN00000000020220601000016000NNE   20220408123506W4O24P0P  00001600000000664000000994332W4O2  HJYHK-J 006400630017
BI00A32W4    4500192024     202206067116-4101-02             TERMINAL                 CCN000012000000012000FN00000000020220601000012000NNE   20220408123506W4O24P0P  00001200000000582000000876232W4O2  HJYHK-J 006400630015
BI00A32W4    @4500192024    202206067183-8049                CONNECTOR HOUSING        CCN000004000000004000FN00000000020220601000004000NNE   20220408123506W4O23F0F  00000400000000583600000740032W4O2  HJYHK-J 005400370024
BI00B32W4    4500192037     202205037283-5545-10             CONNECTOR                CCN000001800000001800FN00000000020220501000001800NNE   20220408123506W41 4N0N  00000060000001279000001409232W41   HJYHK   005600390040
BI00B32W4    4500192039     202205177116-4102-02             TERMINAL                 CCN000036000000036000FN00000000020220501000036000NNE   20220408123506W41 4P0P  00001200000000553200000841432W41   HJYHK   006400630015
BI00B32W4    4500192041     202205317283-5545-10             CONNECTOR                CCN000001200000001200FN00000000020220501000001200NNE   20220408123506W41 4N0N  00000060000001279000001409232W41   HJYHK   005600390040
BI00B32W4    4500192047     202205037158-3167-80             WIRE SEAL                CCN000180000000180000FN00000000020220401000180000NNED0720220408123506W41 1C0C  00002000000000048000000109032W41   HJYHK   002700430014
BI00B32W4    4500192049     202205177158-3169-40             SEALING PLUG             CCN000120000000120000FN00000000020220501000120000NNE   20220408123506W41 1C0C  00004000000000156000000204132W41   HJYHK   004300260014
BI00B32W4    #4500192049    202205177172-5938-80             SEALED                   CCN000020000000020000FN00000000020220501000020000NNE   20220408123506W41 2H0H  00000500000000442500000490732W41   HJYHK   004300270014
BI00B32W4    4500192051     202205317158-3166-60             WIRE SEAL                CCN000160000000160000FN00000000020220501000160000NNE   20220408123506W41 1C0C  00004000000000104000000152432W41   HJYHK   002700430014
BI00A32W4    4500192065     202206027158-3167-80             WIRE SEAL                CCN000020000000020000FN00000000020220601000020000NNE   20220408123506W4141C0C  00002000000000048000000109032W414  HJYHK   002700430014
BI00A32W4    4500192069     202206067158-3166-60             WIRE SEAL                CCN000040000000040000FN00000000020220601000040000NNE   20220408123506W4M51C0C  00004000000000104000000152432W4M5  HJYHK-J 002700430014
BI00A32W4    #4500192070    202206137186-8845                HOUSING MALE             CCN000003000000003000FN00000000020220601000003000NNE   20220408123506W4M52F0F  00000300000000690000000801532W4M5  HJYHK-J 005400370024
BI00A32W4    4500192076     202206067158-3167-80             WIRE SEAL                CCN000240000000240000FN00000000020220601000240000NNE   20220408123506W4G91C0C  00002000000000048000000109032W4G9  HJYHK-J 002700430014
BI00A32W4    4500192076     202206067158-3168-80             SEALED                   CCN000080000000080000FN00000000020220601000080000NNE   20220408123506W4G91C0C  00002000000000044000000092132W4G9  HJYHK-J 004300260014
BI00A32W4    4500192076     202206067158-3169-40             SEALING PLUG             CCN000040000000040000FN00000000020220601000040000NNE   20220408123506W4G91C0C  00004000000000156000000204132W4G9  HJYHK-J 004300260014
BI00A32W4    #4500192076    202206067158-3120-90             CONNECTOR WIRE SEAL      CCN000020000000020000FN00000000020220601000020000NNE   20220408123506W4G92C0C  00002000000000136000000194032W4G9  HJYHK-J 002700430014
BI00A32W4    4500192078     202206067158-3166-60             WIRE SEAL                CCN000040000000040000FN00000000020220601000040000NNE   20220408123506W4P61C0C  00004000000000104000000152432W4P6  HJYHK-J 002700430014
BI00A32W4    4500192078     202206067158-3167-80             WIRE SEAL                CCN000080000000080000FN00000000020220601000080000NNE   20220408123506W4P61C0C  00002000000000048000000109032W4P6  HJYHK-J 002700430014
BI00B32W9    4500188807     202204087283-1030-30             CONNECTOR                CCN000006000000006000FY00000600020220401000000000NNE00020220408144930W9  4N0N  00000600000000988000001221032W9    HKYHK   005500360039
BI00B32W9    4500190147     202206147158-3166-60             WIRE SEAL                CCN000040000000040000FN00000000020220401000040000NNED0020220408123506W93 1C0C  00004000000000104000000152432W93   HKYHK   002700430014
BI00A32X5    TIB2016C       202205137116-5046-02             TERMINAL                 CCN000084000000084000FN00000000020220401000084000NNED0720220408123506X5  4P0P  00001200000000544800000873532X5    EPYNA-E 006400630017
BI00A32X5    #TIB2016C      202205137158-3007-10             RUBBER STOPPER           CCN000100000000100000FN00000000020220401000100000NNED0720220408123506X5  2H0H  00002000000000308000000362732X5    EPYNA-E 002700430014
BI00A32X5    #TIB2016C      202205137158-3008-80             RUBBER STOPPER           CCN000200000000200000FN00000000020220401000200000NNED0720220408123506X5  2C0C  00002000000000288000000343032X5    EPYNA-E 004300270014
BI00B32Y8    TAIM2204A      202205117047-5303                CLIP                     CCN000009000000009000FN00000000020220701000009000NNM   20220408123506Y8  1F0F  00000900000000783000001002032Y8    CLYCL   005500360039
BI00B32Y8    TAIM2204A      202205117114-4020                TERMINAL                 CCN000063000000063000FN00000000020220701000063000NNM   20220408123506Y8  4P0P  00002100000000875700001169332Y8    CLYCL   006400630015
BI00B32Y8    TAIM2204A      202205117114-4021                TERMINAL                 CCN000030000000030000FN00000000020220701000030000NNM   20220408123506Y8  4P0P  00001500000000670500000964132Y8    CLYCL   006400630015
BI00B32Y8    TAIM2204A      202205117114-4031                TERMINAL                 CCN000010500000010500FN00000000020220701000010500NNM   20220408123506Y8  4P0P  00001050000000966000001294632Y8    CLYCL   006400630017
BI00B32Y8    TAIM2204A      202205117114-4032                TERMINAL                 CCN000022500000022500FN00000000020220701000022500NNM   20220408123506Y8  4P0P  00000750000000735000001063632Y8    CLYCL   006400630017
BI00B32Y8    TAIM2204A      202205117114-6041                TERMINAL                 CCN000014400000014400FN00000000020220701000014400NNM   20220408123506Y8  4P0P  00000360000000580700000824232Y8    CLYCL   006400630015
BI00B32Y8    TAIM2204A      202205117116-1180                TERMINAL                 CCN000039000000039000FN00000000020220701000039000NNM   20220408123506Y8  1P0P  00001950000000618200000903432Y8    CLYCL   006400630015
BI00B32Y8    TAIM2204A      202205117116-1473                TERMINAL                 CCN000108000000108000FN00000000020220701000108000NNM   20220408123506Y8  4P0P  00001350000000523800000809032Y8    CLYCL   006400630015
BI00B32Y8    TAIM2204A      202205117116-1685                TERMINAL                 CCN000024000000024000FN00000000020220701000024000NNM   20220408123506Y8  4P0P  00002400000000892800001067232Y8    CLYCL   005100280028
BI00B32Y8    TAIM2204A      202205117116-6041                TERMINAL                 CCN000027000000027000FN00000000020220701000027000NNM   20220408123506Y8  4P0P  00000450000000716000001009632Y8    CLYCL   006400630015
BI00B32Y8    TAIM2204A      202205117116-6042                TERMINAL                 CCN000009000000009000FN00000000020220701000009000NNM   20220408123506Y8  4P0P  00000300000000523800000856132Y8    CLYCL   006400630015
BI00B32Y8    TAIM2204A      202205117123-7500                CONNECTOR                CCN000004000000004000FN00000000020220701000004000NNM   20220408123506Y8  1F0F  00000080000000710000000896732Y8    CLYCL   005500360039
BI00B32Y8    TAIM2204A      202205117235-8662                DOOR GROMMET             CCN000000960000000960FN00000000020220701000000960NNM   20220408123506Y8  4N0N  00000016000000844000001010032Y8    CLYCL   005500360039
BI00B32Y8    TAIM2204A      202205117283-1144                CONNECTOR                CCN000002400000002400FN00000000020220701000002400NNM   20220408123506Y8  4N0N  00000240000000602200000866132Y8    CLYCL   005500360039
BI00B32Y8    TAIM2204A      202205117283-5845                CONNECTOR HOUSING        CCN000006000000006000FN00000000020220701000006000NNM   20220408123506Y8  1N0N  00000600000000444000000606332Y8    CLYCL   005400370024
BI00B32Y8    TAIM2204A      202205117283-6120                CONNECTOR HOUSING        CCN000001500000001500FN00000000020220701000001500NNM   20220408123506Y8  1N0N  00000150000000914000001143032Y8    CLYCL   005600390040
BI00B32Y8    TAIM2204A      202205117286-3970                CONNECTOR HOUSING        CCN000000440000000440FN00000000020220701000000440NNM   20220408123506Y8  1N0N  00000011000000977300001164032Y8    CLYCL   005500360039
BI00B32Y8    TAIM2204A      202205117370-0309                J/B ASS'Y                CCN000001312000001312FN00000000020220701000001312NNM   20220408123506Y8  1J0J  00000001600000870400001260032Y8    CLYCL   005500360039
BI00B32Y8    TAIM2204A      202205117370-0310                J/B ASS'Y                CCN000001270000001270FN00000000020220701000001270NNM   20220408123506Y8  1J0J  00000001000000559000000809032Y8    CLYCL   005500360039
BI00B32Y8    TAIM2204A      202205117116-1685-02             TERMINAL                 CCN000024000000024000FN00000000020220701000024000NNM   20220408123506Y8  4P0P  00002400000000897600001065232Y8    CLYCL   005100280028
BI00B32Y8    TAIM2204A      202205117116-4231-02             TERMINAL                 CCN000442000000442000FN00000000020220701000442000NNM   20220408123506Y8  4P0P  00002600000000683800001012532Y8    CLYCL   006400630017
BI00B32Y8    TAIM2204A      202205117116-5044-02             TERMINAL                 CCN000128000000128000FN00000000020220701000128000NNM   20220408123506Y8  4P0P  00001600000000641600000986332Y8    CLYCL   006400630017
BI00B32Y8    TAIM2204A      202205117116-5045-02             TERMINAL                 CCN000032000000032000FN00000000020220701000032000NNM   20220408123506Y8  4P0P  00001600000000678400001007132Y8    CLYCL   006400630017
BI00B32Y8    TAIM2204A      202205117126-8850-02             TERMINAL                 CCN000018000000018000FN00000000020220701000018000NNM   20220408123506Y8  1P0P  00000900000000672300000957532Y8    CLYCL   006400630015
BI00B32Y8    TAIM2204A      202205117126-8851-02             TERMINAL                 CCN000009000000009000FN00000000020220701000009000NNM   20220408123506Y8  1P0P  00000900000000739800001025032Y8    CLYCL   006400630015
BI00B32Y8    TAIM2204A      202205117126-8852-02             TERMINAL                 CCN000007500000007500FN00000000020220701000007500NNM   20220408123506Y8  1P0P  00000750000000648000000933232Y8    CLYCL   006400630015
BI00B32Y8    TAIM2204A      202205117140-1977-30             UPPER COVER              CCN000001300000001300FN00000000020220701000001300NNM   20220408123506Y8  1F0F  00000001000000099500000249532Y8    CLYCL   005600390040
BI00B32Y8    TAIM2204A      202205117158-3006-90             RUBBER STOPPER           CCN000160000000160000FN00000000020220701000160000NNM   20220408123506Y8  1C0C  00002000000000330600000386032Y8    CLYCL   002700430014
BI00B32Y8    TAIM2204A      202205117158-3167-80             WIRE SEAL                CCN000460000000460000FN00000000020220701000460000NNM   20220408123506Y8  1C0C  00002000000000048000000109032Y8    CLYCL   002700430014
BI00B32Y8    TAIM2204A      202205117158-3168-80             SEALED                   CCN000080000000080000FN00000000020220701000080000NNM   20220408123506Y8  1C0C  00002000000000044000000092132Y8    CLYCL   004300260014
BI00B32Y8    TAIM2204A      202205117222-7923-40             CONNECTOR                CCN000000600000000600FN00000000020220701000000600NNM   20220408123506Y8  4N0N  00000060000000937000001123032Y8    CLYCL   005500360039
BI00B32Y8    TAIM2204A      202205117283-1968-30             CONNECTOR                CCN000001800000001800FN00000000020220701000001800NNM   20220408123506Y8  1N0N  00000090000001140000001318332Y8    CLYCL   005600390040
BI00B32Y8    TAIM2204A      202205117283-7028-30             CONNECTOR                CCN000006000000006000FN00000000020220701000006000NNM   20220408123506Y8  4N0N  00000300000001452000001681332Y8    CLYCL   005600390040
BI00B32Y8    TAIM2204A      202205117283-7029-40             CONNECTOR                CCN000006000000006000FN00000000020220701000006000NNM   20220408123506Y8  1N0N  00000600000001026000001200032Y8    CLYCL   005600390023
BI00B32Y8    TAIM2204A      202205117288-3329-30             HOUSING MALE             CCN000001500000001500FN00000000020220701000001500NNM   20220408123506Y8  4N0N  00000150000000866100001011132Y8    CLYCL   005400370024
BI00B32Y8    TAIM2204A      202205117289-3342-30             HOUSING FEMALE ASS'Y     CCN000002400000002400FN00000000020220701000002400NNM   20220408123506Y8  1N0N  00000240000000686400000901432Y8    CLYCL   005500360039
BI00B32Y8    #TAIM2204A     202205117035-2393                GROMMET                  CCN000001000000001000FN00000000020220701000001000NNM   20220408123506Y8  2H0H  00000010000001374000001581732Y8    CLYCL   005600390040
BI00B32Y8    #TAIM2204A     202205117157-7812                SEAL RUBBER              CCN000130000000130000FN00000000020220701000130000NNM   20220408123506Y8  2C0C  00001000000000137000000202032Y8    CLYCL   002700430014
BI00B32Y8    #TAIM2204A     202205117173-1070                CONNECTOR BRACKET        CCN000001200000001200FN00000000020220701000001200NNM   20220408123506Y8  2F0F  00000120000000592400000968332Y8    CLYCL   005500360039
BI00B32Y8    #TAIM2204A     202205117173-1071                BRACKET                  CCN000001200000001200FN00000000020220701000001200NNM   20220408123506Y8  2F0F  00000120000001156800001388232Y8    CLYCL   005600390040
BI00B32Y8    #TAIM2204A     202205117173-1516                SIDE BRACKET             CCN000001200000001200FN00000000020220701000001200NNM   20220408123506Y8  2F0F  00000060000000960000001090032Y8    CLYCL   005500360039
BI00B32Y8    #TAIM2204A     202205117174-0152                CONNECTOR                CCN000000350000000350FN00000000020220701000000350NNM   20220408123506Y8  2F0F  00000035000000746400000918632Y8    CLYCL   005500360039
BI00B32Y8    #TAIM2204A     202205117183-1616                CONNECTOR HOUSING        CCN000002400000002400FN00000000020220701000002400NNM   20220408123506Y8  2F0F  00000240000000557500000823332Y8    CLYCL   005500360039
BI00B32Y8    #TAIM2204A     202205117183-2413                CONNECTOR HOUSING        CCN000004800000004800FN00000000020220701000004800NNM   20220408123506Y8  2F0F  00000480000000478100000760032Y8    CLYCL   005500360039
BI00B32Y8    #TAIM2204A     202205117186-3973                CONNECTOR HOUSING        CCN000002400000002400FN00000000020220701000002400NNM   20220408123506Y8  2F0F  00000240000001061800001232932Y8    CLYCL   005500360039
BI00B32Y8    #TAIM2204A     202205117187-3356                JOINT CONNECTOR          CCN000004800000004800FN00000000020220701000004800NNM   20220408123506Y8  2F0F  00000120000000759600001024432Y8    CLYCL   005600390040
BI00B32Y8    #TAIM2204A     202205117187-3360                JOINT CONNECTOR          CCN000003600000003600FN00000000020220701000003600NNM   20220408123506Y8  2F0F  00000120000000759600001026832Y8    CLYCL   005600390040
BI00B32Y8    #TAIM2204A     202205117187-3970                CONNECTOR FLAME          CCN000001104000001104FN00000000020220701000001104NNM   20220408123506Y8  2F0F  00000036800001414000001737332Y8    CLYCL   005600390040
BI00B32Y8    #TAIM2204A     202205117187-3973                CONNECTOR HOUSING        CCN000002400000002400FN00000000020220701000002400NNM   20220408123506Y8  2F0F  00000240000000901900001073132Y8    CLYCL   005500360039
BI00B32Y8    #TAIM2204A     202205117283-1065                CONNECTOR                CCN000002500000002500FN00000000020220701000002500NNM   20220408123506Y8  2N0N  00000250000001152500001310432Y8    CLYCL   005500360039
BI00B32Y8    #TAIM2204A     202205117283-5833                CONNECTOR HOUSING        CCN000003640000003640FN00000000020220701000003640NNM   20220408123506Y8  2N0N  00000364000001378000001686732Y8    CLYCL   005500360039
BI00B32Y8    #TAIM2204A     202205117123-7484-40             CONNECTOR                CCN000002000000002000FN00000000020220701000002000NNM   20220408123506Y8  2F0F  00000200000001393800001541032Y8    CLYCL   005500360039
BI00B32Y8    #TAIM2204A     202205117123-7564-40             CONNECTOR                CCN000002000000002000FN00000000020220701000002000NNM   20220408123506Y8  2F0F  00000100000001301000001479032Y8    CLYCL   005600390040
BI00B32Y8    #TAIM2204A     202205117123-7923-30             CONNECTOR                CCN000001500000001500FN00000000020220701000001500NNM   20220408123506Y8  2F0F  00000150000001491000001657032Y8    CLYCL   005600390040
BI00B32Y8    #TAIM2204A     202205117140-1978-30             LOWER COVER              CCN000001272000001272FN00000000020220701000001272NNM   20220408123506Y8  2F0F  00000000800000207100000395132Y8    CLYCL   005500360039
BI00B32Y8    #TAIM2204A     202205117157-3952-80             RUBBER STOPPER           CCN000010000000010000FN00000000020220701000010000NNM   20220408123506Y8  2C0C  00001000000000117000000175032Y8    CLYCL   002700430014
BI00B32Y8    #TAIM2204A     202205117157-3992-90             CONNECTOR SEALED         CCN000040000000040000FN00000000020220701000040000NNM   20220408123506Y8  2C0C  00004000000000300000000363332Y8    CLYCL   002700430014
BI00B32Y8    #TAIM2204A     202205117157-7811-80             SEAL RUBBER              CCN000010000000010000FN00000000020220701000010000NNM   20220408123506Y8  2C0C  00001000000000105000000182732Y8    CLYCL   002700430014
BI00B32Y8    #TAIM2204A     202205117158-3007-10             RUBBER STOPPER           CCN000020000000020000FN00000000020220701000020000NNM   20220408123506Y8  2H0H  00002000000000308000000362732Y8    CLYCL   002700430014
BI00B32Y8    #TAIM2204A     202205117158-3120-90             CONNECTOR WIRE SEAL      CCN000040000000040000FN00000000020220701000040000NNM   20220408123506Y8  2C0C  00002000000000136000000194032Y8    CLYCL   002700430014
BI00B32Y8    #TAIM2204A     202205117187-3358-30             JOINT CONNECTOR          CCN000001200000001200FN00000000020220701000001200NNM   20220408123506Y8  2F0F  00000120000000673200000940432Y8    CLYCL   005600390040
BI00B32Y8    #TAIM2204A     202205117187-3359-60             JOINT CONNECTOR          CCN000002400000002400FN00000000020220701000002400NNM   20220408123506Y8  2F0F  00000120000000763200001030432Y8    CLYCL   005600390040
BI00B32Y8    #TAIM2204A     202205117187-3974-30             CONNECTOR HOUSING        CCN000002400000002400FN00000000020220701000002400NNM   20220408123506Y8  2F0F  00000240000000907400001078632Y8    CLYCL   005500360039
BI00B32Y8    #TAIM2204A     202205117187-3976-60             CONNECTOR HOUSING        CCN000002400000002400FN00000000020220701000002400NNM   20220408123506Y8  2F0F  00000240000000902200001073332Y8    CLYCL   005500360039
BI00B32Y8    @TAIM2204A     202205117283-3030                HOUSING FEMALE ASS'Y     CCN000003200000003200FN00000000020220701000003200NNM   20220408123506Y8  3N0N  00000160000001056300001275032Y8    CLYCL   005500360039
