BI00B1200    2399T51C17     202203177289-3342-30             HOUSING FEMALE ASS'Y     CCN000007200000007200FN00000000020220101000007200NNMD0420220308122735    1N0N  0000024000000068640000090141200    YCYC    005500360039
BI00B1200    2399T51C18     202203177289-3342-30             HOUSING FEMALE ASS'Y     CCN000004800000004800FN00000000020220201000004800NNMD0420220308122735    1N0N  0000024000000068640000090141200    YCYC    005500360039
BI00B1200    2399T51C19     202203247289-3342-30             HOUSING FEMALE ASS'Y     CCN000004800000004800FN00000000020220201000004800NNMD0420220308122735    1N0N  0000024000000068640000090141200    YCYC    005500360039
BI00B1200    2399T52113     202204077289-3342-30             HOUSING FEMALE ASS'Y     CCN000019200000019200FN00000000020220301000019200NNMD0420220308122735    1N0N  0000024000000068640000090141200    YCYC    005500360039
BI00B1200    2399T52114     202204217289-3342-30             HOUSING FEMALE ASS'Y     CCN000019200000019200FN00000000020220301000019200NNMD0420220308122735    1N0N  0000024000000068640000090141200    YCYC    005500360039
BI00B1200    2399T52115     202204217289-3342-30             HOUSING FEMALE ASS'Y     CCN000016800000016800FN00000000020220301000016800NNMD0420220308122735    1N0N  0000024000000068640000090141200    YCYC    005500360039
BI00B1200    2399T52116     202204287289-3342-30             HOUSING FEMALE ASS'Y     CCN000016800000016800FN00000000020220301000016800NNMD0420220308122735    1N0N  0000024000000068640000090141200    YCYC    005500360039
BI00B1200    7360T52201     202203177289-3342-30             HOUSING FEMALE ASS'Y     CCN000043200000043200FN00000000020220401000043200NNMS0020220308122735    1N0N  0000024000000068640000090141200    YCYC    005500360039
BI00B1200    7360T52202     202203247289-3342-30             HOUSING FEMALE ASS'Y     CCN000040800000040800FN00000000020220401000040800NNMS0020220308122735    1N0N  0000024000000068640000090141200    YCYC    005500360039
BI00B1200    7360T52203     202203247289-3342-30             HOUSING FEMALE ASS'Y     CCN000040800000040800FN00000000020220401000040800NNMS0020220308122735    1N0N  0000024000000068640000090141200    YCYC    005500360039
BI00B1200    7860T52205     202204217289-3342-30             HOUSING FEMALE ASS'Y     CCN000002400000002400FN00000000020220401000002400NNMS0020220308122735    1N0N  0000024000000068640000090141200    YCYC    005500360039
BI00A1200    CE22-MN-0047   202203107196-1327-02             TERMINAL FEMALE          CCN000052000000052000FN00000000020220401000052000NNEM0020220308122735    4P0P  0000520000000033600000073951200    YCYC    006400630017
BI00B1200    Y12C0401D      202203247288-3332-30             HOUSING MALE             CCN000001500000001500FN00000000020220401000001500NNE   20220308122735    4N0N  0000015000000086070000100571200    YCYC    005400370024
BI00B1200    Y022G50011     202206097288-9556-30             SEALED ASSY MALE         CCN000002880000002880FN00000000020220701000002880NNM   20220308122735    4N0N  0000007200000053790000078631200    YCYC    005500360039
BI00B1200    30DT-301       202203317196-1936-02             TERMINAL FEMALE          CCN000013500000013500FN00000000020220401000013500NNE   20220308122735    4P0P  0000135000000044150000072671200    YCYC    006400630015
BI00B1200    30DT-301       202203317196-1939-02             TERMINAL FEMALE          CCN000015000000015000FN00000000020220401000015000NNE   20220308122735    4P0P  0000150000000057450000086271200    YCYC    006400630015
BI00B1200    30DT-301       202203317196-1943-02             TERMINAL FEMALE          CCN000012000000012000FN00000000020220401000012000NNE   20220308122735    4P0P  0000120000000049200000077721200    YCYC    006400630015
BI00B1200    KIKAKU-0003    202204217298-1149-3W             SQUIB SUB ASS'Y          CCN000010000000010000FN00000000020220201000010000NNE   20220308122735    4N0N  0000100000000078500000092201200    YCYC    005400370024
BI00T32AF    @JTB2051-I     202205057183-2510                HOUSING                  CCN000009000000009000FN00000000020220501000009000NNM   20220308132932    3F0F  00000300000001063500001159032AF    HBYHVTB 005400370024
BI00T32AF    @JTB2051-I     202205057183-3190                JOINT CONNECTOR          CCN000061200000061200FN00000000020220501000061200NNM   20220308132932    3F0F  00000360000000457600000667832AF    HBYHVTB 005500360039
BI00T32AF    @JTB2051-I     202205057183-7770-40             HOUSING                  CCN000090000000090000FN00000000020220501000090000NNM   20220308132932    3F0F  00000600000001011000001161032AF    HBYHVTB 005400370024
BI00T32AF    @JTB2051-I     202205057283-5972                CONNECTOR FEMALE         CCN000009600000009600FN00000000020220501000009600NNM   20220308132932    3N0N  00000480000000550100000763032AF    HBYHVTB 005500360039
BI00T32AF    @JTB2051-I     202205057283-8179                CONNECTOR HOUSING        CCN000002400000002400FN00000000020220501000002400NNM   20220308132932    3N0N  00000240000000549600000804032AF    HBYHVTB 005500360039
BI00T32AF    @JTB2051-I     202205057287-6634                HOUSING FEMALE ASS'Y     CCN000012000000012000FN00000000020220501000012000NNM   20220308132932    3N0N  00000240000001088400001337032AF    HBYHVTB 005500360039
BI00B32AG    XG22061CMW     202205207C89-6868-30             SEALED ASSY FEMALE       CCN000005040000005040FN00000000020220601000005040NNMD0420220308162723    4N0N  00000252000000839200001119232AG    XGXGY   005500360039
BI00B32AG    XG22062CMW     202205277C89-6868-30             SEALED ASSY FEMALE       CCN000010080000010080FN00000000020220601000010080NNMD0420220308162739    4N0N  00000252000000839200001119232AG    XGXGY   005500360039
BI00B32AG    XG22063CMW     202206037C89-6868-30             SEALED ASSY FEMALE       CCN000010080000010080FN00000000020220601000010080NNMD0420220308162755    4N0N  00000252000000839200001119232AG    XGXGY   005500360039
BI00B32AG    XG22064CMW     202206107C89-6868-30             SEALED ASSY FEMALE       CCN000010080000010080FN00000000020220601000010080NNMD0420220308162826    4N0N  00000252000000839200001119232AG    XGXGY   005500360039
BI00B32AG    XG22061CMW     202205207298-3822-70             HOUSING FEMALE ASS'Y     CCN000005040000005040FN00000000020220601000005040NNMD0420220308162845    4N0N  00000252000000776200001077032AG    XGXGY   005500360039
BI00B32AG    XG22062CMW     202205277298-3822-70             HOUSING FEMALE ASS'Y     CCN000010080000010080FN00000000020220601000010080NNMD0420220308162902    4N0N  00000252000000776200001077032AG    XGXGY   005500360039
BI00B32AG    XG22063CMW     202206037298-3822-70             HOUSING FEMALE ASS'Y     CCN000010080000010080FN00000000020220601000010080NNMD0420220308162929    4N0N  00000252000000776200001077032AG    XGXGY   005500360039
BI00B32AG    XG22064CMW     202206107298-3822-70             HOUSING FEMALE ASS'Y     CCN000010080000010080FN00000000020220601000010080NNMD0420220308162948    4N0N  00000252000000776200001077032AG    XGXGY   005500360039
BI00B32AG    XG22061CMW     202205207327-6884-30             MULTI FUSE               CCN000009216000009216FN00000000020220601000009216NNMD0420220308163006    4N0N  00000028800000988900001154832AG    XGXGY   005400370024
BI00B32AG    XG22062CMW     202205277327-6884-30             MULTI FUSE               CCN000000864000000864FN00000000020220601000000864NNMD0420220308163035    4N0N  00000028800000988900001154832AG    XGXGY   005400370024
BI00B32AG    XG22063CMW     202206037327-6884-30             MULTI FUSE               CCN000000576000000576FN00000000020220601000000576NNMD0420220308163053    4N0N  00000028800000988900001154832AG    XGXGY   005400370024
BI00B32AG    XG22064CMW     202206107327-6884-30             MULTI FUSE               CCN000004896000004896FN00000000020220601000004896NNMD0420220308163113    4N0N  00000028800000988900001154832AG    XGXGY   005400370024
BI00B32CH    SJ22054HMW     202205057327-6870-30             MULTI FUSE               CCN000007776000007776FN00000000020220501000007776NNMD0420220308163343    4N0N  00000028800001015200001181132CH    SJSAMIJF005400370024
BI00B32CH    SJ22055HMW     202205127327-6870-30             MULTI FUSE               CCN000015552000015552FN00000000020220501000015552NNMD0420220308163402    4N0N  00000028800001015200001181132CH    SJSAMIJF005400370024
BI00B32CH    SJ22054HMW     202205057327-6880-30             MULTI FUSE               CCN000004896000004896FN00000000020220501000004896NNMD0420220308163425    4N0N  00000028800001012600001178532CH    SJSAMIJF005400370024
BI00B32CH    SJ22055HMW     202205127327-6880-30             MULTI FUSE               CCN000014688000014688FN00000000020220501000014688NNMD0420220308163442    4N0N  00000028800001012600001178532CH    SJSAMIJF005400370024
BI00B32CH    SJ22054HMW     202205057327-6884-30             MULTI FUSE               CCN000016992000016992FN00000000020220501000016992NNMD0420220308163500    4N0N  00000028800000988900001154832CH    SJSAMIJF005400370024
BI00B32CH    SJ22055HMW     202205127327-6884-30             MULTI FUSE               CCN000021024000021024FN00000000020220501000021024NNMD0420220308163520    4N0N  00000028800000988900001154832CH    SJSAMIJF005400370024
BI00B32CH    SJ22051HMW     202204077327-6937-30             MULTI FUSE               CCN000000288000000288FN00000000020220501000000288NNMD0420220308163543    4N0N  00000028800001013600001179532CH    SJSAMIJF005400370024
BI00B32CH    SJ22052HMW     202204217327-6937-30             MULTI FUSE               CCN000000288000000288FN00000000020220501000000288NNMD0420220308163602    4N0N  00000028800001013600001179532CH    SJSAMIJF005400370024
BI00B32CH    SJ22054HMW     202204287327-6937-30             MULTI FUSE               CCN000001152000001152FN00000000020220501000001152NNMD0420220308163620    4N0N  00000028800001013600001179532CH    SJSAMIJF005400370024
BI00B32CH    SJ22052HMW     202204217327-6939-30             MULTI FUSE               CCN000000864000000864FN00000000020220501000000864NNMD0420220308163645    4N00  00000028800000992200001158132CH    SJSAMIJF005400370024
BI00B32CH    SJ22053HMW     202204217327-6939-30             MULTI FUSE               CCN000000864000000864FN00000000020220501000000864NNMD0420220308163703    4N00  00000028800000992200001158132CH    SJSAMIJF005400370024
BI00B32CH    SJ22054HMW     202204287327-6939-30             MULTI FUSE               CCN000000576000000576FN00000000020220501000000576NNMD0420220308163721    4N00  00000028800000992200001158132CH    SJSAMIJF005400370024
BI00B32CH    SJ22055HMW     202205057327-6939-30             MULTI FUSE               CCN000000864000000864FN00000000020220501000000864NNMD0420220308163748    4N00  00000028800000992200001158132CH    SJSAMIJF005400370024
BI00B32CH    SJ22052HMW     202204217327-6941-30             MULTI FUSE               CCN000000864000000864FN00000000020220501000000864NNMD0420220308163806    4N00  00000028800001014400001180332CH    SJSAMIJF005400370024
BI00B32CH    SJ22053HMW     202204217327-6941-30             MULTI FUSE               CCN000000864000000864FN00000000020220501000000864NNMD0420220308163824    4N00  00000028800001014400001180332CH    SJSAMIJF005400370024
BI00B32CH    SJ22054HMW     202204287327-6941-30             MULTI FUSE               CCN000000576000000576FN00000000020220501000000576NNMD0420220308163841    4N00  00000028800001014400001180332CH    SJSAMIJF005400370024
BI00B32CH    SJ22055HMW     202205057327-6941-30             MULTI FUSE               CCN000000864000000864FN00000000020220501000000864NNMD0420220308163855    4N00  00000028800001014400001180332CH    SJSAMIJF005400370024
BI00T32CJ    @JQN2051-I     202205057183-2510                HOUSING                  CCN000003000000003000FN00000000020220501000003000NNM   20220308135239    3F0F  00000300000001063500001159032CJ    QNYHVQN 005400370024
BI00T32CJ    @JQN2051-I     202205057287-6634                HOUSING FEMALE ASS'Y     CCN000007200000007200FN00000000020220501000007200NNM   20220308135239    3N0N  00000240000001088400001337032CJ    QNYHVQN 005500360039
BI00B32DE    TCT204F        202203177114-5096-02             TERMINAL                 CCN000030000000030000FN00000000020220401000030000NNED0720220308122735    4P0P  00003000000000498000000792232DE    TVYEV-TV006400630015
BI00B32DE    TCT204F        202203177196-0805-02             TERMINAL FEMALE          CCN000022500000022500FN00000000020220401000022500NNED0720220308122735    4P0P  00002250000000558000000843232DE    TVYEV-TV006400630015
BI00B32DE    TCT204F        202203177196-1104-02             TERMINAL                 CCN000022500000022500FN00000000020220401000022500NNED0720220308122735    4P0P  00002250000000441000000726232DE    TVYEV-TV006400630015
BI00B32DE    TCT204F        202203177298-4899-70             SEALED HOUSING ASS'Y     CCN000002310000002310FN00000000020220401000002310NNED0720220308122735    4N0N  00000231000000766900001036932DE    TVYEV-TV005500360039
BI00B32DE    #TCT204F       202203177172-5626-90             RUBBER STOPPER           CCN000020000000020000FN00000000020220401000020000NNED0720220308122735    2H0H  00002000000000076400000127832DE    TVYEV-TV004300270014
BI00B32DE    #TCT204F       202203177172-5628-80             DUMMY PLUG               CCN000020000000020000FN00000000020220401000020000NNED0720220308122735    2H0H  00002000000000110600000162032DE    TVYEV-TV004300270014
BI00B32DE    #TCT204F       202203177172-5631-60             RUBBER STOPPER           CCN000020000000020000FN00000000020220401000020000NNED0720220308122735    2H0H  00002000000000042000000093132DE    TVYEV-TV004300270014
BI00B32DE    #TCT204F       202203177172-5632-10             DUMMY PLUG               CCN000020000000020000FN00000000020220401000020000NNED0720220308122735    2H0H  00002000000000080400000131832DE    TVYEV-TV004300270014
BI00B32DE    #TCT204F       202203177189-3033                HOUSING FEMALE           CCN000001600000001600FN00000000020220401000001600NNED0720220308122735    2F0F  00000160000001211200001431232DE    TVYEV-TV005500360039
BI00B32DE    #TCTL204C      202203177183-2419-30             HOUSING                  CCN000004800000004800FN00000000020220401000004800NNE   20220308122735    2F0F  00000480000001064600001351832DE    TVYEV-TV005500360039
BI00B32DJ    #GHT2205C 1    202204077114-4022                TERMINAL                 CCN000030000000030000FN00000000020220501000030000NNM   20220308154450    2F0P  00001500000000708000001120632DJ    RBYIPLRB006400630015
BI00B32DJ    #GHT2205C 2    202204287114-4022                TERMINAL                 CCN000030000000030000FN00000000020220501000030000NNM   20220308154450    2F0P  00001500000000708000001120632DJ    RBYIPLRB006400630015
BI00B32DJ    #GHT2205C 1    202204077116-4021                TERMINAL                 CCN000108000000108000FN00000000020220501000108000NNM   20220308154450    2F0P  00001350000000534600000868832DJ    RBYIPLRB006400630015
BI00B32DJ    #GHT2205C 2    202204287116-4021                TERMINAL                 CCN000040500000040500FN00000000020220501000040500NNM   20220308154450    2F0P  00001350000000534600000868832DJ    RBYIPLRB006400630015
BI00B32DJ    #GHT2205C 2    202204287158-3017                RUBBER STOPPER           CCN000020000000020000FN00000000020220501000020000NNM   20220308154450    2C0C  00001000000000375500000435032DJ    RBYIPLRB002700430014
BI00B32DJ    #GHT2205C 2    202204287183-7725-40             HOUSING                  CCN000030000000030000FN00000000020220501000030000NNM   20220308154450    2F0F  00000600000000840000001040032DJ    RBYIPLRB005600390040
BI00B32DJ    #GHT2205C 2    202204287158-3015-10             RUBBER STOPPER           CCN000010000000010000FN00000000020220501000010000NNM   20220308154450    2C0C  00001000000000419500000474032DJ    RBYIPLRB002700430014
BI00B32DJ    GHT2205B 1     202204077172-5540-80             SEALED WIRE SEAL         CCN000020000000020000FN00000000020220501000020000NNM   20220308154959    1C0C  00002000000000186000000234432DJ    RBYIPLRB004300270014
BI00B32DJ    GHT2205B 2     202204287172-5540-80             SEALED WIRE SEAL         CCN000080000000080000FN00000000020220501000080000NNM   20220308154959    1C0C  00002000000000186000000234432DJ    RBYIPLRB004300270014
BI00B32DJ    GHT2205B 1     202204077114-4021                TERMINAL                 CCN000135000000135000FN00000000020220501000135000NNM   20220308154959    4P0P  00001500000000670500000964132DJ    RBYIPLRB006400630015
BI00B32DJ    GHT2205B 2     202204287114-4021                TERMINAL                 CCN000120000000120000FN00000000020220501000120000NNM   20220308154959    4P0P  00001500000000670500000964132DJ    RBYIPLRB006400630015
BI00B32DJ    GHT2205B 1     202204077126-8855-02             TERMINAL                 CCN000198000000198000FN00000000020220501000198000NNM   20220308154959    4P0P  00000600000000510600000795832DJ    RBYIPLRB006400630015
BI00B32DJ    GHT2205B 2     202204287126-8855-02             TERMINAL                 CCN000120000000120000FN00000000020220501000120000NNM   20220308154959    4P0P  00000600000000510600000795832DJ    RBYIPLRB006400630015
BI00B32DJ    GHT2205B 1     202204077158-3006-90             RUBBER STOPPER           CCN000440000000440000FN00000000020220501000440000NNM   20220308154959    1C0C  00002000000000330600000386032DJ    RBYIPLRB002700430014
BI00B32DJ    GHT2205B 2     202204287158-3006-90             RUBBER STOPPER           CCN000480000000480000FN00000000020220501000480000NNM   20220308154959    1C0C  00002000000000330600000386032DJ    RBYIPLRB002700430014
BI00B32DJ    GHT2205B 1     202204077116-1686-02             TERMINAL                 CCN000105000000105000FN00000000020220501000105000NNM   20220308154959    4P0P  00002100000000869400001021632DJ    RBYIPLRB005100280028
BI00B32DJ    GHT2205B 2     202204287116-1686-02             TERMINAL                 CCN000084000000084000FN00000000020220501000084000NNM   20220308154959    4P0P  00002100000000869400001021632DJ    RBYIPLRB005100280028
BI00B32DJ    GHT2205B 1     202204077126-8854-02             TERMINAL                 CCN000277500000277500FN00000000020220501000277500NNM   20220308154959    4P0P  00000750000000604500000889732DJ    RBYIPLRB006400630015
BI00B32DJ    GHT2205B 2     202204287126-8854-02             TERMINAL                 CCN000285000000285000FN00000000020220501000285000NNM   20220308154959    4P0P  00000750000000604500000889732DJ    RBYIPLRB006400630015
BI00B32DJ    GHT2205B 1     202204077116-1180                TERMINAL                 CCN000039000000039000FN00000000020220501000039000NNM   20220308154959    1P0P  00001950000000618200000903432DJ    RBYIPLRB006400630015
BI00B32DJ    GHT2205B 2     202204287116-1180                TERMINAL                 CCN000039000000039000FN00000000020220501000039000NNM   20220308154959    1P0P  00001950000000618200000903432DJ    RBYIPLRB006400630015
BI00B32DJ    GHT2205B 2     202204287114-4415-02             TERMINAL MALE            CCN000432000000432000FN00000000020220501000432000NNM   20220308154959    4P0P  00002700000000429300000717532DJ    RBYIPLRB006400630015
BI00B32DJ    GHT2205B 1     202204077158-3009-60             RUBBER STOPPER           CCN000400000000400000FN00000000020220501000400000NNM   20220308154959    1C0C  00002000000000338000000386232DJ    RBYIPLRB002700430014
BI00B32DJ    GHT2205B 2     202204287158-3009-60             RUBBER STOPPER           CCN000700000000700000FN00000000020220501000700000NNM   20220308154959    1C0C  00002000000000338000000386232DJ    RBYIPLRB002700430014
BI00B32DJ    GHT2205B 2     202204287114-6041                TERMINAL                 CCN000007200000007200FN00000000020220501000007200NNM   20220308154959    4P0P  00000360000000580700000824232DJ    RBYIPLRB006400630015
BI00B32DJ    GHT2205B 1     202204077017-1182-02             TERMINAL                 CCN000045000000045000FN00000000020220501000045000NNM   20220308154959    4P0P  00004500000001165500001318632DJ    RBYIPLRB005100280028
BI00B32DJ    GHT2205B 2     202204287017-1182-02             TERMINAL                 CCN000090000000090000FN00000000020220501000090000NNM   20220308154959    4P0P  00004500000001165500001318632DJ    RBYIPLRB005100280028
BI00B32DJ    GHT2205B 1     202204077116-4025                TERMINAL                 CCN000224000000224000FN00000000020220501000224000NNM   20220308154959    4P0P  00001600000000644800000975132DJ    RBYIPLRB006400630017
BI00B32DJ    GHT2205B 2     202204287116-4025                TERMINAL                 CCN000608000000608000FN00000000020220501000608000NNM   20220308154959    4P0P  00001600000000644800000975132DJ    RBYIPLRB006400630017
BI00B32DJ    GHT2205B 1     202204077116-4026                TERMINAL                 CCN000208000000208000FN00000000020220501000208000NNM   20220308154959    4P0P  00001600000000664000000994332DJ    RBYIPLRB006400630017
BI00B32DJ    GHT2205B 2     202204287116-4026                TERMINAL                 CCN000400000000400000FN00000000020220501000400000NNM   20220308154959    4P0P  00001600000000664000000994332DJ    RBYIPLRB006400630017
BI00B32DJ    GHT2205B 2     202204287287-9234                JOINT CONNECTOR          CCN000028800000028800FN00000000020220501000028800NNM   20220308154959    4N0N  00000960000000893800001184832DJ    RBYIPLRB005500360039
BI00B32DJ    GHT2205B 1     202204077116-2892-02             TERMINAL                 CCN000168000000168000FN00000000020220501000168000NNM   20220308154959    4P0P  00001200000000818400000981832DJ    RBYIPLRB005100280028
BI00B32DJ    GHT2205B 2     202204287116-2892-02             TERMINAL                 CCN000180000000180000FN00000000020220501000180000NNM   20220308154959    4P0P  00001200000000818400000981832DJ    RBYIPLRB005100280028
BI00B32DJ    GHT2205B 2     202204287114-5753-02             TERMINAL                 CCN000054000000054000FN00000000020220501000054000NNM   20220308154959    4P0P  00002700000000847800001141432DJ    RBYIPLRB006400630015
BI00B32DJ    GHT2205B 1     202204077116-5751-02             TERMINAL                 CCN000060000000060000FN00000000020220501000060000NNM   20220308154959    4P0P  00001200000000379200000664432DJ    RBYIPLRB006400630015
BI00B32DJ    GHT2205B 2     202204287116-5751-02             TERMINAL                 CCN000036000000036000FN00000000020220501000036000NNM   20220308154959    4P0P  00001200000000379200000664432DJ    RBYIPLRB006400630015
BI00B32DJ    GHT2205B 2     202204287114-4729-02             TERMINAL                 CCN000090000000090000FN00000000020220501000090000NNM   20220308154959    4P0P  00003000000000516000000810232DJ    RBYIPLRB006400630015
BI00B32DJ    GHT2205B 1     202204077116-2893-02             TERMINAL                 CCN000216000000216000FN00000000020220501000216000NNM   20220308154959    4P0P  00001200000000895200001058632DJ    RBYIPLRB005100280028
BI00B32DJ    GHT2205B 2     202204287116-2893-02             TERMINAL                 CCN000528000000528000FN00000000020220501000528000NNM   20220308154959    4P0P  00001200000000895200001058632DJ    RBYIPLRB005100280028
BI00B32DJ    GHT2205B 1     202204077126-8853-02             TERMINAL                 CCN000157500000157500FN00000000020220501000157500NNM   20220308154959    4P0P  00000750000000562500000847732DJ    RBYIPLRB006400630015
BI00B32DJ    GHT2205B 2     202204287126-8853-02             TERMINAL                 CCN000195000000195000FN00000000020220501000195000NNM   20220308154959    4P0P  00000750000000562500000847732DJ    RBYIPLRB006400630015
BI00B32DJ    GHT2205B 1     202204077114-4032                TERMINAL                 CCN000075000000075000FN00000000020220501000075000NNM   20220308154959    4P0P  00000750000000735000001063632DJ    RBYIPLRB006400630017
BI00B32DJ    GHT2205B 2     202204287114-4032                TERMINAL                 CCN000060000000060000FN00000000020220501000060000NNM   20220308154959    4P0P  00000750000000735000001063632DJ    RBYIPLRB006400630017
BI00B32DJ    GHT2205B 1     202204077C98-1145-4W             SQUIB SUB ASS'Y          CCN000030000000030000FN00000000020220501000030000NNM   20220308154959    4N0N  00001000000000787900000944932DJ    RBYIPLRB005400370024
BI00B32DJ    GHT2205B 2     202204287C98-1145-4W             SQUIB SUB ASS'Y          CCN000020000000020000FN00000000020220501000020000NNM   20220308154959    4N0N  00001000000000787900000944932DJ    RBYIPLRB005400370024
BI00B32DJ    GHT2205B 1     202204077116-2891-02             TERMINAL                 CCN000135000000135000FN00000000020220501000135000NNM   20220308154959    4P0P  00001500000000982500001145932DJ    RBYIPLRB005100280028
BI00B32DJ    GHT2205B 2     202204287116-2891-02             TERMINAL                 CCN000270000000270000FN00000000020220501000270000NNM   20220308154959    4P0P  00001500000000982500001145932DJ    RBYIPLRB005100280028
BI00B32DJ    GHT2205B 1     202204077114-4728-02             TERMINAL                 CCN000180000000180000FN00000000020220501000180000NNM   20220308154959    4P0P  00003000000000510000000804232DJ    RBYIPLRB006400630015
BI00B32DJ    GHT2205B 2     202204287114-4728-02             TERMINAL                 CCN000120000000120000FN00000000020220501000120000NNM   20220308154959    4P0P  00003000000000510000000804232DJ    RBYIPLRB006400630015
BI00B32DJ    GHT2205B 2     202204287116-4037                TERMINAL                 CCN000132000000132000FN00000000020220501000132000NNM   20220308154959    4P0P  00000600000000600000000894232DJ    RBYIPLRB006400630015
BI00B32DJ    GHT2205B 1     202204077116-5042-02             TERMINAL                 CCN000027000000027000FN00000000020220501000027000NNM   20220308154959    4P0P  00001350000000560300000845532DJ    RBYIPLRB006400630015
BI00B32DJ    GHT2205B 1     202204077116-1685-02             TERMINAL                 CCN000576000000576000FN00000000020220501000576000NNM   20220308154959    4P0P  00002400000000897600001065232DJ    RBYIPLRB005100280028
BI00B32DJ    GHT2205B 2     202204287116-1685-02             TERMINAL                 CCN000936000000936000FN00000000020220501000936000NNM   20220308154959    4P0P  00002400000000897600001065232DJ    RBYIPLRB005100280028
BI00B32DJ    GHT2205B 2     202204287017-1180-02             TERMINAL                 CCN000288000000288000FN00000000020220501000288000NNM   20220308154959    4P0P  00007200000001065600001229032DJ    RBYIPLRB005100280028
BI00B32DJ    GHT2205B 1     202204077116-4020                TERMINAL                 CCN000013500000013500FN00000000020220501000013500NNM   20220308154959    4P0P  00001350000000513000000798232DJ    RBYIPLRB006400630015
BI00B32DJ    GHT2205B 2     202204287116-4020                TERMINAL                 CCN000148500000148500FN00000000020220501000148500NNM   20220308154959    4P0P  00001350000000513000000798232DJ    RBYIPLRB006400630015
BI00B32DJ    GHT2205B 1     202204077114-4624-02             TERMINAL                 CCN000096000000096000FN00000000020220501000096000NNM   20220308154959    4P0P  00002400000000895200001188832DJ    RBYIPLRB006400630015
BI00B32DJ    GHT2205B 2     202204287114-4624-02             TERMINAL                 CCN000120000000120000FN00000000020220501000120000NNM   20220308154959    4P0P  00002400000000895200001188832DJ    RBYIPLRB006400630015
BI00B32DJ    GHT2205B 1     202204077116-6041                TERMINAL                 CCN000022500000022500FN00000000020220501000022500NNM   20220308154959    4P0P  00000450000000716000001009632DJ    RBYIPLRB006400630015
BI00B32DJ    GHT2205B 2     202204287116-6041                TERMINAL                 CCN000063000000063000FN00000000020220501000063000NNM   20220308154959    4P0P  00000450000000716000001009632DJ    RBYIPLRB006400630015
BI00B32DJ    GHT2205B 2     202204287114-5748-02             TERMINAL                 CCN000036000000036000FN00000000020220501000036000NNM   20220308154959    4P0P  00001200000000444000000737632DJ    RBYIPLRB006400630015
BI00B32DJ    GHT2205B 1     202204077196-0805-02             TERMINAL FEMALE          CCN000022500000022500FN00000000020220501000022500NNM   20220308154959    4P0P  00002250000000558000000843232DJ    RBYIPLRB006400630015
BI00B32DJ    GHT2205B 2     202204287196-0805-02             TERMINAL FEMALE          CCN000067500000067500FN00000000020220501000067500NNM   20220308154959    4P0P  00002250000000558000000843232DJ    RBYIPLRB006400630015
BI00B32DJ    GHT2205B 2     202204287283-1144                CONNECTOR                CCN000002400000002400FN00000000020220501000002400NNM   20220308154959    4N0N  00000240000000602200000866132DJ    RBYIPLRB005500360039
BI00B32DJ    GHT2205B 1     202204077C89-6868-30             SEALED ASSY FEMALE       CCN000007560000007560FN00000000020220501000007560NNM   20220308154959    4N0N  00000252000000839200001119232DJ    RBYIPLRB005500360039
BI00B32DJ    GHT2205B 2     202204287C89-6868-30             SEALED ASSY FEMALE       CCN000012600000012600FN00000000020220501000012600NNM   20220308154959    4N0N  00000252000000839200001119232DJ    RBYIPLRB005500360039
BI00B32DJ    GHT2205B 2     202204287116-6042                TERMINAL                 CCN000048000000048000FN00000000020220501000048000NNM   20220308154959    4P0P  00000300000000523800000856132DJ    RBYIPLRB006400630015
BI00B32DJ    GHT2205B 2     202204287114-4020                TERMINAL                 CCN000084000000084000FN00000000020220501000084000NNM   20220308154959    4P0P  00002100000000875700001169332DJ    RBYIPLRB006400630015
BI00B32DJ    #GHT2205B 1    202204077183-2414                CONNECTOR HOUSING        CCN000038400000038400FN00000000020220501000038400NNM   20220308154956    2F0F  00000480000000779200001061032DJ    RBYIPLRB005500360039
BI00B32DJ    #GHT2205B 2    202204287183-2414                CONNECTOR HOUSING        CCN000004800000004800FN00000000020220501000004800NNM   20220308154956    2F0F  00000480000000779200001061032DJ    RBYIPLRB005500360039
BI00B32DJ    #GHT2205B 1    202204077189-3031-30             HOUSING FEMALE           CCN000004800000004800FN00000000020220501000004800NNM   20220308154956    2F0F  00000240000000928800001365832DJ    RBYIPLRB005500360039
BI00B32DJ    #GHT2205B 1    202204077189-3037                HOUSING FEMALE           CCN000014400000014400FN00000000020220501000014400NNM   20220308154956    2F0F  00000480000000806400001066432DJ    RBYIPLRB005500360039
BI00B32DJ    #GHT2205B 2    202204287189-3037                HOUSING FEMALE           CCN000038400000038400FN00000000020220501000038400NNM   20220308154956    2F0F  00000480000000806400001066432DJ    RBYIPLRB005500360039
BI00B32DJ    #GHT2205B 1    202204077183-1616                CONNECTOR HOUSING        CCN000004800000004800FN00000000020220501000004800NNM   20220308154956    2F0F  00000240000000557500000823332DJ    RBYIPLRB005500360039
BI00B32D2    DGTC2218       202203107196-1325-02             TERMINAL FEMALE          CCN000420000000060000FN00000000020220501000060000NNMQ0020220308122735    4P0P  00006000000000450000000778732D2    TGYOT-G 006400630017
BI00B32D2    DGTC2218       202203107327-6801-3W             BATTERY FUSE             CCN000006048000003744FN00000000020220501000003744NNMQ0020220308122735    4N0N  00000009600000928400001143432D2    TGYOT-G 005500360039
BI00B32D2    DGTC2218       202203107327-6806                MULTI FUSE               CCN000006160000003920FN00000000020220501000003920NNMQ0020220308122735    4N0N  00000056000000851500001063932D2    TGYOT-G 005400370024
BI00B32D2    DGTC2218       202203107327-6930                MULTI FUSE               CCN000005040000002800FN00000000020220501000002800NNMQ0020220308122735    4N0N  00000056000000848900001031932D2    TGYOT-G 005400370024
BI00A32D2    DGTC2218       202203107196-1325-02             TERMINAL FEMALE          CCN000360000000360000FN00000000020220501000360000NNMM0020220308122735    4P0P  00006000000000450000000778732D2    TGYOT-G 006400630017
BI00A32D2    DGTC2218       202203107327-6801-3W             BATTERY FUSE             CCN000002304000002304FN00000000020220501000002304NNMM0020220308122735    4N0N  00000009600000928400001143432D2    TGYOT-G 005500360039
BI00A32D2    DGTC2218       202203107327-6806                MULTI FUSE               CCN000002240000002240FN00000000020220501000002240NNMM0020220308122735    4N0N  00000056000000851500001063932D2    TGYOT-G 005400370024
BI00A32D2    DGTC2218       202203107327-6930                MULTI FUSE               CCN000002240000002240FN00000000020220501000002240NNMM0020220308122735    4N0N  00000056000000848900001031932D2    TGYOT-G 005400370024
BI00B32D9    I21905         202204217283-5830-30             CONNECTOR                CCN000012000000012000FN00000000020220501000012000NNMD0220220308160300    1N0N  00000600000000954000001104032D9    UEHESTO 005500360039
BI00B32D9    I22005         202204287283-5830-30             CONNECTOR                CCN000012000000012000FN00000000020220501000012000NNMD0220220308160319    1N0N  00000600000000954000001104032D9    UEHESTO 005500360039
BI00B32D9    I22106         202205057283-5830-30             CONNECTOR                CCN000006000000006000FN00000000020220501000006000NNMD0220220308160337    1N0N  00000600000000954000001104032D9    UEHESTO 005500360039
BI00B32D9    I21905         202204217288-3206                HOUSING MALE ASS'Y       CCN000015300000008160FN00000000020220501000008160NNMD0220220308160411    1N0N  00000102000000387600000787632D9    UEHESTO 005500360039
BI00B32D9    I22005         202205057288-3206                HOUSING MALE ASS'Y       CCN000015300000008160FN00000000020220501000008160NNMD0220220308160503    1N0N  00000102000000387600000787632D9    UEHESTO 005500360039
BI00B32D9    I22106         202205197288-3206                HOUSING MALE ASS'Y       CCN000015300000008160FN00000000020220501000008160NNMD0220220308160540    1N0N  00000102000000387600000787632D9    UEHESTO 005500360039
BI00B32D9    I22005         202204287370-0309                J/B ASS'Y                CCN000000480000000480FN00000000020220501000000480NNMD0220220308122735    1J0J  00000001600000870400001260032D9    UEHESTO 005500360039
BI00B32D9    I22005         202204287370-0310                J/B ASS'Y                CCN000000300000000300FN00000000020220501000000300NNMD0220220308122735    1J0J  00000001000000559000000809032D9    UEHESTO 005500360039
BI00B32D9    I21905         202204287288-3206                HOUSING MALE ASS'Y       CCN000007140000007140FN00000000020220501000007140NNMD0220220308160416    1N0N  00000102000000387600000787632D9    UEHESTO 005500360039
BI00B32D9    I22005         202205127288-3206                HOUSING MALE ASS'Y       CCN000007140000007140FN00000000020220501000007140NNMD0220220308160508    1N0N  00000102000000387600000787632D9    UEHESTO 005500360039
BI00B32D9    I22106         202205267288-3206                HOUSING MALE ASS'Y       CCN000007140000007140FN00000000020220501000007140NNMD0220220308160544    1N0N  00000102000000387600000787632D9    UEHESTO 005500360039
BI00B32EJ    T220307P02     202204077116-4101-02             TERMINAL                 CCN000024000000024000FN00000000020220401000024000NNE   20220308122735EJ  4P0P  00001200000000582000000876232EJ    EJYKBO  006400630015
BI00B32EJ    T220307P02     202204077158-3165-90             WIRE SEAL                CCN000080000000080000FN00000000020220401000080000NNE   20220308122735EJ  1C0C  00004000000000124000000172432EJ    EJYKBO  004300270014
BI00B32EJ    #T220307P02    202204077283-8397-40             CONNECTOR                CCN000007700000007700FN00000000020220401000007700NNE   20220308122735EJ  2N0N  00000154000001007000001222732EJ    EJYKBO  005600390023
BI00B32EJ    T220307P01     202204077158-3070-80             RUBBER STOPPER           CCN000040000000040000FN00000000020220401000040000NNE   20220308122735EJ  1C0C  00004000000000276000000333332EJ    EJYKBO  002700430014
BI00B32EJ    T220307P01     202204077116-4102-02             TERMINAL                 CCN000024000000024000FN00000000020220401000024000NNE   20220308122735EJ  4P0P  00001200000000553200000841432EJ    EJYKBO  006400630015
BI00B32EJ    #T220307P01    202204077158-3374-90             CONNECTOR WIRE SEAL      CCN000020000000020000FN00000000020220401000020000NNE   20220308122735EJ  2H0H  00002000000000172000000229332EJ    EJYKBO  002700430014
BI00B32EJ    #T220307P01    202204077157-3950-80             SEAL RUBBER              CCN000040000000040000FN00000000020220401000040000NNE   20220308122735EJ  2C0C  00004000000000154000000440332EJ    EJYKBO  002700430014
BI00B32EJ    #T220307P01    202204077158-3120-90             CONNECTOR WIRE SEAL      CCN000040000000040000FN00000000020220401000040000NNE   20220308122735EJ  2C0C  00002000000000136000000194032EJ    EJYKBO  002700430014
BI00B32EJ    #T220307P01    202204077283-8397-40             CONNECTOR                CCN000006160000006160FN00000000020220401000006160NNE   20220308122735EJ  2N0N  00000154000001007000001222732EJ    EJYKBO  005600390023
BI00B32EJ    #T220307P01    202204077283-8398-40             CONNECTOR                CCN000007700000007700FN00000000020220401000007700NNE   20220308122735EJ  2N0N  00000154000001007000001171332EJ    EJYKBO  005600390023
BI00B32H2    TIJ2051        202204227470-5304                J/B COMPLETE ASS'Y       CCN000000500000000500FN00000000020220501000000500NNMD0220220308122735    4J0J  00000001000000494000000661032H2    HVYHV   005400370024
BI00T32H2    @TIJ2052-I     202205127183-2510                HOUSING                  CCN000006000000006000FN00000000020220501000006000NNM   20220308132024    3F0F  00000300000001063500001159032H2    HVYHV   005400370024
BI00T32H2    @TIJ2053-I     202205197183-2510                HOUSING                  CCN000003000000003000FN00000000020220501000003000NNM   20220308132024    3F0F  00000300000001063500001159032H2    HVYHV   005400370024
BI00T32H2    @TIJ2054-I     202205267183-2510                HOUSING                  CCN000003000000003000FN00000000020220501000003000NNM   20220308132024    3F0F  00000300000001063500001159032H2    HVYHV   005400370024
BI00T32H2    @TIJ2051-I     202205057282-1064                CONNECTOR ASS'Y          CCN000006400000006400FN00000000020220501000006400NNM   20220308132024    3N0N  00000080000000907200001132432H2    HVYHV   005500360039
BI00T32H2    @TIJ2052-I     202205127282-1064                CONNECTOR ASS'Y          CCN000004800000004800FN00000000020220501000004800NNM   20220308132024    3N0N  00000080000000907200001132432H2    HVYHV   005500360039
BI00T32H2    @TIJ2053-I     202205197282-1064                CONNECTOR ASS'Y          CCN000006400000006400FN00000000020220501000006400NNM   20220308132024    3N0N  00000080000000907200001132432H2    HVYHV   005500360039
BI00T32H2    @TIJ2054-I     202205267282-1064                CONNECTOR ASS'Y          CCN000006400000006400FN00000000020220501000006400NNM   20220308132024    3N0N  00000080000000907200001132432H2    HVYHV   005500360039
BI00T32H2    @TIJ2051-I     202205057282-1148                CONNECTOR ASS'Y          CCN000004800000004800FN00000000020220501000004800NNM   20220308132024    3N0N  00000080000001165300001404032H2    HVYHV   005500360039
BI00T32H2    @TIJ2052-I     202205127282-1148                CONNECTOR ASS'Y          CCN000006400000006400FN00000000020220501000006400NNM   20220308132024    3N0N  00000080000001165300001404032H2    HVYHV   005500360039
BI00T32H2    @TIJ2053-I     202205197282-1148                CONNECTOR ASS'Y          CCN000006400000006400FN00000000020220501000006400NNM   20220308132024    3N0N  00000080000001165300001404032H2    HVYHV   005500360039
BI00T32H2    @TIJ2054-I     202205267282-1148                CONNECTOR ASS'Y          CCN000006400000006400FN00000000020220501000006400NNM   20220308132024    3N0N  00000080000001165300001404032H2    HVYHV   005500360039
BI00T32H2    @TIJ2051-I     202205057282-1148-40             CONNECTOR ASS'Y          CCN000004800000004800FN00000000020220501000004800NNM   20220308132024    3N0N  00000080000001171200001402032H2    HVYHV   005500360039
BI00T32H2    @TIJ2052-I     202205127282-1148-40             CONNECTOR ASS'Y          CCN000006400000006400FN00000000020220501000006400NNM   20220308132024    3N0N  00000080000001171200001402032H2    HVYHV   005500360039
BI00T32H2    @TIJ2053-I     202205197282-1148-40             CONNECTOR ASS'Y          CCN000006400000006400FN00000000020220501000006400NNM   20220308132024    3N0N  00000080000001171200001402032H2    HVYHV   005500360039
BI00T32H2    @TIJ2054-I     202205267282-1148-40             CONNECTOR ASS'Y          CCN000006400000006400FN00000000020220501000006400NNM   20220308132024    3N0N  00000080000001171200001402032H2    HVYHV   005500360039
BI00T32H2    @TIJ2052-I     202205127283-1556                CONNECTOR ASS'Y          CCN000016800000016800FN00000000020220501000016800NNM   20220308132024    3N0N  00000240000000755000001014032H2    HVYHV   005500360039
BI00T32H2    @TIJ2053-I     202205197283-1556                CONNECTOR ASS'Y          CCN000016800000016800FN00000000020220501000016800NNM   20220308132024    3N0N  00000240000000755000001014032H2    HVYHV   005500360039
BI00T32H2    @TIJ2054-I     202205267283-1556                CONNECTOR ASS'Y          CCN000031200000031200FN00000000020220501000031200NNM   20220308132024    3N0N  00000240000000755000001014032H2    HVYHV   005500360039
BI00T32H2    @TIJ2052-I     202205127287-6634                HOUSING FEMALE ASS'Y     CCN000019200000019200FN00000000020220501000019200NNM   20220308132024    3N0N  00000240000001088400001337032H2    HVYHV   005500360039
BI00T32H2    @TIJ2053-I     202205197287-6634                HOUSING FEMALE ASS'Y     CCN000019200000019200FN00000000020220501000019200NNM   20220308132024    3N0N  00000240000001088400001337032H2    HVYHV   005500360039
BI00T32H2    @TIJ2054-I     202205267287-6634                HOUSING FEMALE ASS'Y     CCN000019200000019200FN00000000020220501000019200NNM   20220308132024    3N0N  00000240000001088400001337032H2    HVYHV   005500360039
BI00B32H7    FS22053DMW     202204207327-6949-30             MULTI FUSE               CCN000000288000000288FN00000000020220501000000288NNMD0420220308163916    4N00  00000028800000886700001052632H7    FYFSY   005400370024
BI00B32H7    FS22053DMW     202204207327-6950-30             MULTI FUSE               CCN000000288000000288FN00000000020220501000000288NNMD0420220308163932    4N00  00000028800000888700001054632H7    FYFSY   005400370024
BI00B32H7    FS22053DMW     202204207327-6952-30             MULTI FUSE               CCN000000560000000560FN00000000020220501000000560NNMD0420220308163948    4N0N  00000056000000848500001031532H7    FYFSY   005400370024
BI00B32H7    FS22053DMW     202204207327-6954-30             MULTI FUSE               CCN000000600000000600FN00000000020220501000000600NNMD0420220308164005    4N00  00000060000000751600000954332H7    FYFSY   005400370024
BI00B32J1    391606         202203147327-6654-3W             BATTERY FUSE             CCN000019008000000000FY00000000020220301000000000NNMQ0820220308101727    4N0N  00000009600001132300001312432J1    UKYEL-BL005500360039
BI00B32J1    391908         202203217327-6654-3W             BATTERY FUSE             CCN000000096000000000FY00000000020220301000000000NNMQ0820220308101740    4N0N  00000009600001132300001312432J1    UKYEL-BL005500360039
BI00B32M1    TCV2043        202203177196-1103-02             TERMINAL                 CCN000022500000022500FN00000000020220401000022500NNMD0020220308164355    4P0P  00002250000000429800000715032M1    VNYEV   006400630015
BI00B32M1    TCV2044        202203177196-1103-02             TERMINAL                 CCN000022500000022500FN00000000020220401000022500NNMD0020220308164410    4P0P  00002250000000429800000715032M1    VNYEV   006400630015
BI00B32M1    TCV2051        202203247196-1103-02             TERMINAL                 CCN000202500000067500FN00000000020220501000067500NNMD0020220308164436    4P0P  00002250000000429800000715032M1    VNYEV   006400630015
BI00B32M1    TCV2051        202203317196-1103-02             TERMINAL                 CCN000045000000045000FN00000000020220501000045000NNMD0020220308164518    4P0P  00002250000000429800000715032M1    VNYEV   006400630015
BI00B32M1    TCV2051        202204077196-1103-02             TERMINAL                 CCN000090000000090000FN00000000020220501000090000NNMD0020220308164518    4P0P  00002250000000429800000715032M1    VNYEV   006400630015
BI00B32M3    SM2204AHMW     202203247298-1853-10             HOUSING FEMALE ASS'Y     CCN000003900000003900FN00000000020220401000003900NNE   20220308122735    4N00  00000390000001240500001405832M3    SASAMI  005400370024
BI00B32M3    #SM2204AHMW    202203247035-7982-30             DASH GROMMET             CCN000000480000000480FN00000000020220401000000480NNE   20220308122735    2H0H  00000012000001056000001179032M3    SASAMI  005600390040
BI00B32M3    #SM2204BDMW    202203247287-1669                HOUSING FEMALE ASS'Y     CCN000002000000002000FN00000000020220401000002000NNE   20220308122735    2N0N  00000200000000788800000980832M3    SASAMI  005400370024
BI00B32M3    @SM2204BDMW    202203247183-2510                HOUSING                  CCN000003000000003000FN00000000020220401000003000NNE   20220308122735    3F0F  00000300000001063500001159032M3    SASAMI  005400370024
BI00B32M3    SM22051 MW     202203317017-1180-02             TERMINAL                 CCN000072000000072000FN00000000020220501000072000NNM   20220308122735    4P0P  00007200000001065600001229032M3    SASAMI  005100280028
BI00B32M3    SM22054 MW     202204217017-1180-02             TERMINAL                 CCN000072000000072000FN00000000020220501000072000NNM   20220308122735    4P0P  00007200000001065600001229032M3    SASAMI  005100280028
BI00B32M3    SM22054 MW     202204217114-4020                TERMINAL                 CCN000021000000021000FN00000000020220501000021000NNM   20220308122735    4P0P  00002100000000875700001169332M3    SASAMI  006400630015
BI00B32M3    SM22054 MW     202204217114-4021                TERMINAL                 CCN000015000000015000FN00000000020220501000015000NNM   20220308122735    4P0P  00001500000000670500000964132M3    SASAMI  006400630015
BI00B32M3    SM22054 MW     202204217114-4030                TERMINAL                 CCN000010500000010500FN00000000020220501000010500NNM   20220308122735    4P0P  00001050000000926100001254732M3    SASAMI  006400630017
BI00B32M3    SM22051 MW     202203317114-4032                TERMINAL                 CCN000015000000015000FN00000000020220501000015000NNM   20220308122735    4P0P  00000750000000735000001063632M3    SASAMI  006400630017
BI00B32M3    SM22054 MW     202204217114-4032                TERMINAL                 CCN000015000000015000FN00000000020220501000015000NNM   20220308122735    4P0P  00000750000000735000001063632M3    SASAMI  006400630017
BI00B32M3    SM22051 MW     202203317114-4112-02             TERMINAL                 CCN000009000000009000FN00000000020220501000009000NNM   20220308122735    4P0P  00000900000000598500000927132M3    SASAMI  006400630017
BI00B32M3    SM22051 MW     202203317114-4728-02             TERMINAL                 CCN000390000000390000FN00000000020220501000390000NNM   20220308122735    4P0P  00003000000000510000000804232M3    SASAMI  006400630015
BI00B32M3    SM22054 MW     202204217114-4728-02             TERMINAL                 CCN000180000000180000FN00000000020220501000180000NNM   20220308122735    4P0P  00003000000000510000000804232M3    SASAMI  006400630015
BI00B32M3    SM22055 MW     202204287114-4728-02             TERMINAL                 CCN000120000000120000FN00000000020220501000120000NNM   20220308122735    4P0P  00003000000000510000000804232M3    SASAMI  006400630015
BI00B32M3    SM22051 MW     202203317114-4729-02             TERMINAL                 CCN000300000000300000FN00000000020220501000300000NNM   20220308122735    4P0P  00003000000000516000000810232M3    SASAMI  006400630015
BI00B32M3    SM22054 MW     202204217114-4729-02             TERMINAL                 CCN000120000000120000FN00000000020220501000120000NNM   20220308122735    4P0P  00003000000000516000000810232M3    SASAMI  006400630015
BI00B32M3    SM22055 MW     202204287114-4729-02             TERMINAL                 CCN000120000000120000FN00000000020220501000120000NNM   20220308122735    4P0P  00003000000000516000000810232M3    SASAMI  006400630015
BI00B32M3    SM22051 MW     202203317114-5746-02             TERMINAL                 CCN000021000000021000FN00000000020220501000021000NNM   20220308122735    4P0P  00002100000000695100000988732M3    SASAMI  006400630015
BI00B32M3    SM22054 MW     202204217114-5746-02             TERMINAL                 CCN000021000000021000FN00000000020220501000021000NNM   20220308122735    4P0P  00002100000000695100000988732M3    SASAMI  006400630015
BI00B32M3    SM22051 MW     202203317114-5747-02             TERMINAL                 CCN000036000000036000FN00000000020220501000036000NNM   20220308122735    4P0P  00001800000000626400000920032M3    SASAMI  006400630015
BI00B32M3    SM22054 MW     202204217114-5747-02             TERMINAL                 CCN000036000000036000FN00000000020220501000036000NNM   20220308122735    4P0P  00001800000000626400000920032M3    SASAMI  006400630015
BI00B32M3    SM22051 MW     202203317114-5748-02             TERMINAL                 CCN000084000000084000FN00000000020220501000084000NNM   20220308122735    4P0P  00001200000000444000000737632M3    SASAMI  006400630015
BI00B32M3    SM22054 MW     202204217114-5748-02             TERMINAL                 CCN000048000000048000FN00000000020220501000048000NNM   20220308122735    4P0P  00001200000000444000000737632M3    SASAMI  006400630015
BI00B32M3    SM22055 MW     202204287114-5748-02             TERMINAL                 CCN000036000000036000FN00000000020220501000036000NNM   20220308122735    4P0P  00001200000000444000000737632M3    SASAMI  006400630015
BI00B32M3    SM22051 MW     202203317114-5753-02             TERMINAL                 CCN000054000000054000FN00000000020220501000054000NNM   20220308122735    4P0P  00002700000000847800001141432M3    SASAMI  006400630015
BI00B32M3    SM22054 MW     202204217114-5753-02             TERMINAL                 CCN000027000000027000FN00000000020220501000027000NNM   20220308122735    4P0P  00002700000000847800001141432M3    SASAMI  006400630015
BI00B32M3    SM22051 MW     202203317114-6041                TERMINAL                 CCN000007200000007200FN00000000020220501000007200NNM   20220308122735    4P0P  00000360000000580700000824232M3    SASAMI  006400630015
BI00B32M3    SM22054 MW     202204217114-6041                TERMINAL                 CCN000003600000003600FN00000000020220501000003600NNM   20220308122735    4P0P  00000360000000580700000824232M3    SASAMI  006400630015
BI00B32M3    SM22055 MW     202204287114-6041                TERMINAL                 CCN000003600000003600FN00000000020220501000003600NNM   20220308122735    4P0P  00000360000000580700000824232M3    SASAMI  006400630015
BI00B32M3    SM22051 MW     202203317116-1685-02             TERMINAL                 CCN000480000000480000FN00000000020220501000480000NNM   20220308122735    4P0P  00002400000000897600001065232M3    SASAMI  005100280028
BI00B32M3    SM22054 MW     202204217116-1685-02             TERMINAL                 CCN000120000000120000FN00000000020220501000120000NNM   20220308122735    4P0P  00002400000000897600001065232M3    SASAMI  005100280028
BI00B32M3    SM22055 MW     202204287116-1685-02             TERMINAL                 CCN000120000000120000FN00000000020220501000120000NNM   20220308122735    4P0P  00002400000000897600001065232M3    SASAMI  005100280028
BI00B32M3    SM22051 MW     202203317116-1686-02             TERMINAL                 CCN000147000000147000FN00000000020220501000147000NNM   20220308122735    4P0P  00002100000000869400001021632M3    SASAMI  005100280028
BI00B32M3    SM22054 MW     202204217116-1686-02             TERMINAL                 CCN000042000000042000FN00000000020220501000042000NNM   20220308122735    4P0P  00002100000000869400001021632M3    SASAMI  005100280028
BI00B32M3    SM22055 MW     202204287116-1686-02             TERMINAL                 CCN000042000000042000FN00000000020220501000042000NNM   20220308122735    4P0P  00002100000000869400001021632M3    SASAMI  005100280028
BI00B32M3    SM22051 MW     202203317116-1688-02             TERMINAL FEMALE          CCN000021000000021000FN00000000020220501000021000NNM   20220308122735    4P0P  00002100000000299600000898832M3    SASAMI  005100280028
BI00B32M3    SM22051 MW     202203317116-2640                TERMINAL                 CCN000018000000018000FN00000000020220501000018000NNM   20220308122735    4P0P  00001800000001018800001196632M3    SASAMI  005100280028
BI00B32M3    SM22054 MW     202204217116-2640                TERMINAL                 CCN000018000000018000FN00000000020220501000018000NNM   20220308122735    4P0P  00001800000001018800001196632M3    SASAMI  005100280028
BI00B32M3    SM22051 MW     202203317116-2641                TERMINAL                 CCN000036000000036000FN00000000020220501000036000NNM   20220308122735    4P0P  00001800000001161000001344632M3    SASAMI  005100280028
BI00B32M3    SM22054 MW     202204217116-2641                TERMINAL                 CCN000018000000018000FN00000000020220501000018000NNM   20220308122735    4P0P  00001800000001161000001344632M3    SASAMI  005100280028
BI00B32M3    SM22051 MW     202203317116-3154-02             TERMINAL FEMALE          CCN000378000000378000FN00000000020220501000378000NNM   20220308122735    4P0P  00002700000000469800000755032M3    SASAMI  006400630015
BI00B32M3    SM22054 MW     202204217116-3154-02             TERMINAL FEMALE          CCN000162000000162000FN00000000020220501000162000NNM   20220308122735    4P0P  00002700000000469800000755032M3    SASAMI  006400630015
BI00B32M3    SM22055 MW     202204287116-3154-02             TERMINAL FEMALE          CCN000135000000135000FN00000000020220501000135000NNM   20220308122735    4P0P  00002700000000469800000755032M3    SASAMI  006400630015
BI00B32M3    SM22051 MW     202203317116-4020                TERMINAL                 CCN000027000000027000FN00000000020220501000027000NNM   20220308122735    4P0P  00001350000000513000000798232M3    SASAMI  006400630015
BI00B32M3    SM22054 MW     202204217116-4020                TERMINAL                 CCN000027000000027000FN00000000020220501000027000NNM   20220308122735    4P0P  00001350000000513000000798232M3    SASAMI  006400630015
BI00B32M3    SM22054 MW     202204217116-4022                TERMINAL                 CCN000013500000013500FN00000000020220501000013500NNM   20220308122735    4P0P  00001350000000618300000903532M3    SASAMI  006400630015
BI00B32M3    SM22051 MW     202203317116-4025                TERMINAL                 CCN000080000000080000FN00000000020220501000080000NNM   20220308122735    4P0P  00001600000000644800000975132M3    SASAMI  006400630017
BI00B32M3    SM22054 MW     202204217116-4025                TERMINAL                 CCN000032000000032000FN00000000020220501000032000NNM   20220308122735    4P0P  00001600000000644800000975132M3    SASAMI  006400630017
BI00B32M3    SM22051 MW     202203317116-4026                TERMINAL                 CCN000032000000032000FN00000000020220501000032000NNM   20220308122735    4P0P  00001600000000664000000994332M3    SASAMI  006400630017
BI00B32M3    SM22054 MW     202204217116-4026                TERMINAL                 CCN000032000000032000FN00000000020220501000032000NNM   20220308122735    4P0P  00001600000000664000000994332M3    SASAMI  006400630017
BI00B32M3    SM22051 MW     202203317116-4028-08             TERMINAL FEMALE          CCN000032000000032000FN00000000020220501000032000NNM   20220308122735    4P0P  00001600000000652800000981532M3    SASAMI  006400630017
BI00B32M3    SM22054 MW     202204217116-4028-08             TERMINAL FEMALE          CCN000016000000016000FN00000000020220501000016000NNM   20220308122735    4P0P  00001600000000652800000981532M3    SASAMI  006400630017
BI00B32M3    SM22055 MW     202204287116-4028-08             TERMINAL FEMALE          CCN000016000000016000FN00000000020220501000016000NNM   20220308122735    4P0P  00001600000000652800000981532M3    SASAMI  006400630017
BI00B32M3    SM22051 MW     202203317116-4031                TERMINAL                 CCN000007500000007500FN00000000020220501000007500NNM   20220308122735    4P0P  00000750000000619500000904732M3    SASAMI  006400630015
BI00B32M3    SM22051 MW     202203317116-4032                TERMINAL                 CCN000018000000018000FN00000000020220501000018000NNM   20220308122735    4P0P  00000600000000532800000818032M3    SASAMI  006400630015
BI00B32M3    SM22054 MW     202204217116-4032                TERMINAL                 CCN000018000000018000FN00000000020220501000018000NNM   20220308122735    4P0P  00000600000000532800000818032M3    SASAMI  006400630015
BI00B32M3    SM22051 MW     202203317116-4037                TERMINAL                 CCN000078000000078000FN00000000020220501000078000NNM   20220308122735    4P0P  00000600000000600000000894232M3    SASAMI  006400630015
BI00B32M3    SM22054 MW     202204217116-4037                TERMINAL                 CCN000030000000030000FN00000000020220501000030000NNM   20220308122735    4P0P  00000600000000600000000894232M3    SASAMI  006400630015
BI00B32M3    SM22051 MW     202203317116-4114-02             TERMINAL                 CCN000031500000031500FN00000000020220501000031500NNM   20220308122735    4P0P  00001050000000693000000981232M3    SASAMI  006400630015
BI00B32M3    SM22054 MW     202204217116-4114-02             TERMINAL                 CCN000010500000010500FN00000000020220501000010500NNM   20220308122735    4P0P  00001050000000693000000981232M3    SASAMI  006400630015
BI00B32M3    SM22051 MW     202203317116-4231-02             TERMINAL                 CCN000130000000130000FN00000000020220501000130000NNM   20220308122735    4P0P  00002600000000683800001012532M3    SASAMI  006400630017
BI00B32M3    SM22054 MW     202204217116-4231-02             TERMINAL                 CCN000078000000078000FN00000000020220501000078000NNM   20220308122735    4P0P  00002600000000683800001012532M3    SASAMI  006400630017
BI00B32M3    SM22055 MW     202204287116-4231-02             TERMINAL                 CCN000052000000052000FN00000000020220501000052000NNM   20220308122735    4P0P  00002600000000683800001012532M3    SASAMI  006400630017
BI00B32M3    SM22051 MW     202203317116-4415-02             TERMINAL                 CCN000228000000228000FN00000000020220501000228000NNM   20220308122735    4P0P  00003800000000596600000925732M3    SASAMI  006400630017
BI00B32M3    SM22054 MW     202204217116-4415-02             TERMINAL                 CCN000114000000114000FN00000000020220501000114000NNM   20220308122735    4P0P  00003800000000596600000925732M3    SASAMI  006400630017
BI00B32M3    SM22055 MW     202204287116-4415-02             TERMINAL                 CCN000076000000076000FN00000000020220501000076000NNM   20220308122735    4P0P  00003800000000596600000925732M3    SASAMI  006400630017
BI00B32M3    SM22051 MW     202203317116-4416-02             TERMINAL                 CCN000064000000064000FN00000000020220501000064000NNM   20220308122735    4P0P  00003200000000518400000847132M3    SASAMI  006400630017
BI00B32M3    SM22054 MW     202204217116-4416-02             TERMINAL                 CCN000032000000032000FN00000000020220501000032000NNM   20220308122735    4P0P  00003200000000518400000847132M3    SASAMI  006400630017
BI00B32M3    SM22051 MW     202203317116-4780-02             TERMINAL FEMALE          CCN000030000000030000FN00000000020220501000030000NNM   20220308122735    4P0P  00001500000000691500000985732M3    SASAMI  006400630015
BI00B32M3    SM22054 MW     202204217116-4780-02             TERMINAL FEMALE          CCN000015000000015000FN00000000020220501000015000NNM   20220308122735    4P0P  00001500000000691500000985732M3    SASAMI  006400630015
BI00B32M3    SM22051 MW     202203317116-5035-02             TERMINAL                 CCN000135000000135000FN00000000020220501000135000NNM   20220308122735    4P0P  00001500000000543000000828232M3    SASAMI  006400630015
BI00B32M3    SM22054 MW     202204217116-5035-02             TERMINAL                 CCN000075000000075000FN00000000020220501000075000NNM   20220308122735    4P0P  00001500000000543000000828232M3    SASAMI  006400630015
BI00B32M3    SM22055 MW     202204287116-5035-02             TERMINAL                 CCN000015000000015000FN00000000020220501000015000NNM   20220308122735    4P0P  00001500000000543000000828232M3    SASAMI  006400630015
BI00B32M3    SM22051 MW     202203317116-5041-02             TERMINAL                 CCN000075000000075000FN00000000020220501000075000NNM   20220308122735    4P0P  00001500000000583500000868732M3    SASAMI  006400630015
BI00B32M3    SM22054 MW     202204217116-5041-02             TERMINAL                 CCN000015000000015000FN00000000020220501000015000NNM   20220308122735    4P0P  00001500000000583500000868732M3    SASAMI  006400630015
BI00B32M3    SM22055 MW     202204287116-5041-02             TERMINAL                 CCN000015000000015000FN00000000020220501000015000NNM   20220308122735    4P0P  00001500000000583500000868732M3    SASAMI  006400630015
BI00B32M3    SM22051 MW     202203317116-5042-02             TERMINAL                 CCN000054000000054000FN00000000020220501000054000NNM   20220308122735    4P0P  00001350000000560300000845532M3    SASAMI  006400630015
BI00B32M3    SM22054 MW     202204217116-5042-02             TERMINAL                 CCN000013500000013500FN00000000020220501000013500NNM   20220308122735    4P0P  00001350000000560300000845532M3    SASAMI  006400630015
BI00B32M3    SM22055 MW     202204287116-5042-02             TERMINAL                 CCN000013500000013500FN00000000020220501000013500NNM   20220308122735    4P0P  00001350000000560300000845532M3    SASAMI  006400630015
BI00B32M3    SM22051 MW     202203317116-5044-02             TERMINAL                 CCN000096000000096000FN00000000020220501000096000NNM   20220308122735    4P0P  00001600000000641600000986332M3    SASAMI  006400630017
BI00B32M3    SM22054 MW     202204217116-5044-02             TERMINAL                 CCN000032000000032000FN00000000020220501000032000NNM   20220308122735    4P0P  00001600000000641600000986332M3    SASAMI  006400630017
BI00B32M3    SM22055 MW     202204287116-5044-02             TERMINAL                 CCN000032000000032000FN00000000020220501000032000NNM   20220308122735    4P0P  00001600000000641600000986332M3    SASAMI  006400630017
BI00B32M3    SM22051 MW     202203317116-5045-02             TERMINAL                 CCN000032000000032000FN00000000020220501000032000NNM   20220308122735    4P0P  00001600000000678400001007132M3    SASAMI  006400630017
BI00B32M3    SM22054 MW     202204217116-5045-02             TERMINAL                 CCN000016000000016000FN00000000020220501000016000NNM   20220308122735    4P0P  00001600000000678400001007132M3    SASAMI  006400630017
BI00B32M3    SM22055 MW     202204287116-5045-02             TERMINAL                 CCN000016000000016000FN00000000020220501000016000NNM   20220308122735    4P0P  00001600000000678400001007132M3    SASAMI  006400630017
BI00B32M3    SM22051 MW     202203317116-5750-02             TERMINAL                 CCN000060000000060000FN00000000020220501000060000NNM   20220308122735    4P0P  00001500000000457500000742732M3    SASAMI  006400630015
BI00B32M3    SM22054 MW     202204217116-5750-02             TERMINAL                 CCN000015000000015000FN00000000020220501000015000NNM   20220308122735    4P0P  00001500000000457500000742732M3    SASAMI  006400630015
BI00B32M3    SM22055 MW     202204287116-5750-02             TERMINAL                 CCN000015000000015000FN00000000020220501000015000NNM   20220308122735    4P0P  00001500000000457500000742732M3    SASAMI  006400630015
BI00B32M3    SM22051 MW     202203317116-5751-02             TERMINAL                 CCN000060000000060000FN00000000020220501000060000NNM   20220308122735    4P0P  00001200000000379200000664432M3    SASAMI  006400630015
BI00B32M3    SM22054 MW     202204217116-5751-02             TERMINAL                 CCN000024000000024000FN00000000020220501000024000NNM   20220308122735    4P0P  00001200000000379200000664432M3    SASAMI  006400630015
BI00B32M3    SM22055 MW     202204287116-5751-02             TERMINAL                 CCN000012000000012000FN00000000020220501000012000NNM   20220308122735    4P0P  00001200000000379200000664432M3    SASAMI  006400630015
BI00B32M3    SM22051 MW     202203317116-5752-02             TERMINAL                 CCN000084000000084000FN00000000020220501000084000NNM   20220308122735    4P0P  00002100000000571200000856432M3    SASAMI  006400630015
BI00B32M3    SM22054 MW     202204217116-5752-02             TERMINAL                 CCN000021000000021000FN00000000020220501000021000NNM   20220308122735    4P0P  00002100000000571200000856432M3    SASAMI  006400630015
BI00B32M3    SM22055 MW     202204287116-5752-02             TERMINAL                 CCN000021000000021000FN00000000020220501000021000NNM   20220308122735    4P0P  00002100000000571200000856432M3    SASAMI  006400630015
BI00B32M3    SM22051 MW     202203317116-6041                TERMINAL                 CCN000004500000004500FN00000000020220501000004500NNM   20220308122735    4P0P  00000450000000716000001009632M3    SASAMI  006400630015
BI00B32M3    SM22051 MW     202203317116-6042                TERMINAL                 CCN000006000000006000FN00000000020220501000006000NNM   20220308122735    4P0P  00000300000000523800000856132M3    SASAMI  006400630015
BI00B32M3    SM22054 MW     202204217116-6042                TERMINAL                 CCN000003000000003000FN00000000020220501000003000NNM   20220308122735    4P0P  00000300000000523800000856132M3    SASAMI  006400630015
BI00B32M3    SM22055 MW     202204287116-6042                TERMINAL                 CCN000003000000003000FN00000000020220501000003000NNM   20220308122735    4P0P  00000300000000523800000856132M3    SASAMI  006400630015
BI00B32M3    SM22051 MW     202203317126-8853-02             TERMINAL                 CCN000157500000157500FN00000000020220501000157500NNM   20220308122735    4P0P  00000750000000562500000847732M3    SASAMI  006400630015
BI00B32M3    SM22054 MW     202204217126-8853-02             TERMINAL                 CCN000030000000030000FN00000000020220501000030000NNM   20220308122735    4P0P  00000750000000562500000847732M3    SASAMI  006400630015
BI00B32M3    SM22055 MW     202204287126-8853-02             TERMINAL                 CCN000030000000030000FN00000000020220501000030000NNM   20220308122735    4P0P  00000750000000562500000847732M3    SASAMI  006400630015
BI00B32M3    SM22051 MW     202203317126-8854-02             TERMINAL                 CCN000135000000135000FN00000000020220501000135000NNM   20220308122735    4P0P  00000750000000604500000889732M3    SASAMI  006400630015
BI00B32M3    SM22054 MW     202204217126-8854-02             TERMINAL                 CCN000015000000015000FN00000000020220501000015000NNM   20220308122735    4P0P  00000750000000604500000889732M3    SASAMI  006400630015
BI00B32M3    SM22055 MW     202204287126-8854-02             TERMINAL                 CCN000015000000015000FN00000000020220501000015000NNM   20220308122735    4P0P  00000750000000604500000889732M3    SASAMI  006400630015
BI00B32M3    SM22051 MW     202203317126-8855-02             TERMINAL                 CCN000090000000090000FN00000000020220501000090000NNM   20220308122735    4P0P  00000600000000510600000795832M3    SASAMI  006400630015
BI00B32M3    SM22054 MW     202204217126-8855-02             TERMINAL                 CCN000012000000012000FN00000000020220501000012000NNM   20220308122735    4P0P  00000600000000510600000795832M3    SASAMI  006400630015
BI00B32M3    SM22055 MW     202204287126-8855-02             TERMINAL                 CCN000012000000012000FN00000000020220501000012000NNM   20220308122735    4P0P  00000600000000510600000795832M3    SASAMI  006400630015
BI00B32M3    SM22051 MW     202203317158-3006-90             RUBBER STOPPER           CCN000120000000120000FN00000000020220501000120000NNM   20220308122735    1C0C  00002000000000330600000386032M3    SASAMI  002700430014
BI00B32M3    SM22054 MW     202204217158-3006-90             RUBBER STOPPER           CCN000040000000040000FN00000000020220501000040000NNM   20220308122735    1C0C  00002000000000330600000386032M3    SASAMI  002700430014
BI00B32M3    SM22055 MW     202204287158-3006-90             RUBBER STOPPER           CCN000040000000040000FN00000000020220501000040000NNM   20220308122735    1C0C  00002000000000330600000386032M3    SASAMI  002700430014
BI00B32M3    SM22051 MW     202203317158-3009-60             RUBBER STOPPER           CCN000180000000180000FN00000000020220501000180000NNM   20220308122735    1C0C  00002000000000338000000386232M3    SASAMI  002700430014
BI00B32M3    SM22054 MW     202204217158-3009-60             RUBBER STOPPER           CCN000060000000060000FN00000000020220501000060000NNM   20220308122735    1C0C  00002000000000338000000386232M3    SASAMI  002700430014
BI00B32M3    SM22055 MW     202204287158-3009-60             RUBBER STOPPER           CCN000040000000040000FN00000000020220501000040000NNM   20220308122735    1C0C  00002000000000338000000386232M3    SASAMI  002700430014
BI00B32M3    SM22051 MW     202203317158-3165-90             WIRE SEAL                CCN000200000000200000FN00000000020220501000200000NNM   20220308122735    1C0C  00004000000000124000000172432M3    SASAMI  004300270014
BI00B32M3    SM22054 MW     202204217158-3165-90             WIRE SEAL                CCN000120000000120000FN00000000020220501000120000NNM   20220308122735    1C0C  00004000000000124000000172432M3    SASAMI  004300270014
BI00B32M3    SM22055 MW     202204287158-3165-90             WIRE SEAL                CCN000040000000040000FN00000000020220501000040000NNM   20220308122735    1C0C  00004000000000124000000172432M3    SASAMI  004300270014
BI00B32M3    SM22051 MW     202203317282-4576                HOUSING MALE ASS'Y       CCN000002400000002400FN00000000020220501000002400NNM   20220308122735    4N0N  00000240000000808800001028832M3    SASAMI  005500360039
BI00B32M3    SM22054 MW     202204217282-4576                HOUSING MALE ASS'Y       CCN000002400000002400FN00000000020220501000002400NNM   20220308122735    4N0N  00000240000000808800001028832M3    SASAMI  005500360039
BI00B32M3    SM22051 MW     202203317282-4577                HOUSING MALE ASS'Y       CCN000024000000024000FN00000000020220501000024000NNM   20220308122735    4N0N  00000240000000964800001174832M3    SASAMI  005500360039
BI00B32M3    SM22054 MW     202204217282-4577                HOUSING MALE ASS'Y       CCN000024000000024000FN00000000020220501000024000NNM   20220308122735    4N0N  00000240000000964800001174832M3    SASAMI  005500360039
BI00B32M3    SM22051 MW     202203317283-1110                CONNECTOR                CCN000008000000008000FN00000000020220501000008000NNM   20220308122735    4N0N  00000200000000878000001067532M3    SASAMI  005500360039
BI00B32M3    SM22054 MW     202204217283-1110                CONNECTOR                CCN000006000000006000FN00000000020220501000006000NNM   20220308122735    4N0N  00000200000000878000001067532M3    SASAMI  005500360039
BI00B32M3    SM22055 MW     202204287283-1110                CONNECTOR                CCN000004000000004000FN00000000020220501000004000NNM   20220308122735    4N0N  00000200000000878000001067532M3    SASAMI  005500360039
BI00B32M3    SM22051 MW     202203317283-1144                CONNECTOR                CCN000004800000004800FN00000000020220501000004800NNM   20220308122735    4N0N  00000240000000602200000866132M3    SASAMI  005500360039
BI00B32M3    SM22054 MW     202204217283-1144                CONNECTOR                CCN000004800000004800FN00000000020220501000004800NNM   20220308122735    4N0N  00000240000000602200000866132M3    SASAMI  005500360039
BI00B32M3    SM22051 MW     202203317283-1968-30             CONNECTOR                CCN000002700000002700FN00000000020220501000002700NNM   20220308122735    1N0N  00000090000001140000001318332M3    SASAMI  005600390040
BI00B32M3    SM22054 MW     202204217283-1968-30             CONNECTOR                CCN000001800000001800FN00000000020220501000001800NNM   20220308122735    1N0N  00000090000001140000001318332M3    SASAMI  005600390040
BI00B32M3    SM22051 MW     202203317283-4576                HOUSING FEMALE ASS'Y     CCN000004800000004800FN00000000020220501000004800NNM   20220308122735    4N0N  00000480000000651300000871332M3    SASAMI  005500360039
BI00B32M3    SM22054 MW     202204217283-4576                HOUSING FEMALE ASS'Y     CCN000004800000004800FN00000000020220501000004800NNM   20220308122735    4N0N  00000480000000651300000871332M3    SASAMI  005500360039
BI00B32M3    SM22051 MW     202203317283-4854                CONNECTOR HOUSING        CCN000004800000004800FN00000000020220501000004800NNM   20220308122735    4N0N  00000240000000694100000914132M3    SASAMI  005500360039
BI00B32M3    SM22054 MW     202204217283-4854                CONNECTOR HOUSING        CCN000002400000002400FN00000000020220501000002400NNM   20220308122735    4N0N  00000240000000694100000914132M3    SASAMI  005500360039
BI00B32M3    SM22051 MW     202203317283-7526-40             CONNECTOR HOUSING        CCN000005880000005880FN00000000020220501000005880NNM   20220308122735    4N0N  00000196000000989800001248632M3    SASAMI  005500360039
BI00B32M3    SM22054 MW     202204217283-7526-40             CONNECTOR HOUSING        CCN000001960000001960FN00000000020220501000001960NNM   20220308122735    4N0N  00000196000000989800001248632M3    SASAMI  005500360039
BI00B32M3    SM22055 MW     202204287283-7526-40             CONNECTOR HOUSING        CCN000001960000001960FN00000000020220501000001960NNM   20220308122735    4N0N  00000196000000989800001248632M3    SASAMI  005500360039
BI00B32M3    SM22051 MW     202203317286-3885                CONNECTOR MALE ASS'Y     CCN000016800000016800FN00000000020220501000016800NNM   20220308122735    1N0N  00000120000000910600001130632M3    SASAMI  005500360039
BI00B32M3    SM22054 MW     202204217286-3885                CONNECTOR MALE ASS'Y     CCN000009600000009600FN00000000020220501000009600NNM   20220308122735    1N0N  00000120000000910600001130632M3    SASAMI  005500360039
BI00B32M3    SM22055 MW     202204287286-3885                CONNECTOR MALE ASS'Y     CCN000003600000003600FN00000000020220501000003600NNM   20220308122735    1N0N  00000120000000910600001130632M3    SASAMI  005500360039
BI00B32M3    SM22051 MW     202203317286-3885-40             CONNECTOR MALE ASS'Y     CCN000003600000003600FN00000000020220501000003600NNM   20220308122735    1N0N  00000120000000910600001130632M3    SASAMI  005500360039
BI00B32M3    SM22054 MW     202204217286-3885-40             CONNECTOR MALE ASS'Y     CCN000002400000002400FN00000000020220501000002400NNM   20220308122735    1N0N  00000120000000910600001130632M3    SASAMI  005500360039
BI00B32M3    SM22055 MW     202204287286-3885-40             CONNECTOR MALE ASS'Y     CCN000001200000001200FN00000000020220501000001200NNM   20220308122735    1N0N  00000120000000910600001130632M3    SASAMI  005500360039
BI00B32M3    SM22051 MW     202203317287-3885                HYBRID FEMALE ASS'Y      CCN000002400000002400FN00000000020220501000002400NNM   20220308122735    1N0N  00000240000001029600001249632M3    SASAMI  005500360039
BI00B32M3    SM22054 MW     202204217287-3885                HYBRID FEMALE ASS'Y      CCN000002400000002400FN00000000020220501000002400NNM   20220308122735    1N0N  00000240000001029600001249632M3    SASAMI  005500360039
BI00B32M3    SM22055 MW     202204287287-3885                HYBRID FEMALE ASS'Y      CCN000002400000002400FN00000000020220501000002400NNM   20220308122735    1N0N  00000240000001029600001249632M3    SASAMI  005500360039
BI00B32M3    SM22051 MW     202203317287-3885-40             HYBRID FEMALE ASS'Y      CCN000004800000004800FN00000000020220501000004800NNM   20220308122735    1N0N  00000240000001029600001249632M3    SASAMI  005500360039
BI00B32M3    SM22054 MW     202204217287-3885-40             HYBRID FEMALE ASS'Y      CCN000004800000004800FN00000000020220501000004800NNM   20220308122735    1N0N  00000240000001029600001249632M3    SASAMI  005500360039
BI00B32M3    SM22051 MW     202203317287-9234                JOINT CONNECTOR          CCN000009600000009600FN00000000020220501000009600NNM   20220308122735    4N0N  00000960000000893800001184832M3    SASAMI  005500360039
BI00B32M3    #SM22051 MW    202203317116-4021                TERMINAL                 CCN000013500000013500FN00000000020220501000013500NNM   20220308122735    2F0P  00001350000000534600000868832M3    SASAMI  006400630015
BI00B32M3    #SM22054 MW    202204217157-3821                RUBBER STOPPER           CCN000020000000020000FN00000000020220501000020000NNM   20220308122735    2C0C  00002000000000176000000238032M3    SASAMI  002700430014
BI00B32M3    #SM22051 MW    202203317158-3003-90             RUBBER STOPPER           CCN000020000000020000FN00000000020220501000020000NNM   20220308122735    2C0C  00002000000000250000000306032M3    SASAMI  002700430014
BI00B32M3    #SM22051 MW    202203317158-3008-80             RUBBER STOPPER           CCN000020000000020000FN00000000020220501000020000NNM   20220308122735    2C0C  00002000000000288000000343032M3    SASAMI  004300270014
BI00B32M3    #SM22051 MW    202203317158-3015-10             RUBBER STOPPER           CCN000030000000030000FN00000000020220501000030000NNM   20220308122735    2C0C  00001000000000419500000474032M3    SASAMI  002700430014
BI00B32M3    #SM22054 MW    202204217158-3015-10             RUBBER STOPPER           CCN000020000000020000FN00000000020220501000020000NNM   20220308122735    2C0C  00001000000000419500000474032M3    SASAMI  002700430014
BI00B32M3    #SM22055 MW    202204287158-3015-10             RUBBER STOPPER           CCN000010000000010000FN00000000020220501000010000NNM   20220308122735    2C0C  00001000000000419500000474032M3    SASAMI  002700430014
BI00B32M3    #SM22051 MW    202203317183-2414                CONNECTOR HOUSING        CCN000004800000004800FN00000000020220501000004800NNM   20220308122735    2F0F  00000480000000779200001061032M3    SASAMI  005500360039
BI00B32M3    #SM22054 MW    202204217183-2414                CONNECTOR HOUSING        CCN000004800000004800FN00000000020220501000004800NNM   20220308122735    2F0F  00000480000000779200001061032M3    SASAMI  005500360039
BI00B32M3    #SM22051 MW    202203317183-2418                CONNECTOR HOUSING        CCN000004800000004800FN00000000020220501000004800NNM   20220308122735    2F0F  00000480000000917000001477032M3    SASAMI  005500360039
BI00B32M3    #SM22051 MW    202203317183-2419                HOUSING                  CCN000004800000004800FN00000000020220501000004800NNM   20220308122735    2F0F  00000480000001065600001352732M3    SASAMI  005500360039
BI00B32M3    #SM22054 MW    202204217186-8851                HOUSING MALE             CCN000002000000002000FN00000000020220501000002000NNM   20220308122735    2F0F  00000100000000782200000906232M3    SASAMI  005400370024
BI00B32M3    #SM22051 MW    202203317187-8856                HOUSING FEMALE           CCN000010000000010000FN00000000020220501000010000NNM   20220308122735    2F0F  00000200000000820000000931532M3    SASAMI  005400370024
BI00B32M3    #SM22054 MW    202204217187-8856                HOUSING FEMALE           CCN000006000000006000FN00000000020220501000006000NNM   20220308122735    2F0F  00000200000000820000000931532M3    SASAMI  005400370024
BI00B32M3    #SM22055 MW    202204287187-8856                HOUSING FEMALE           CCN000004000000004000FN00000000020220501000004000NNM   20220308122735    2F0F  00000200000000820000000931532M3    SASAMI  005400370024
BI00B32M3    #SM22051 MW    202203317189-0149                HLC HOUSING FEMALE       CCN000004000000004000FN00000000020220501000004000NNM   20220308122735    2F0F  00000200000000970000001078532M3    SASAMI  005400370024
BI00B32M3    #SM22054 MW    202204217189-0149                HLC HOUSING FEMALE       CCN000002000000002000FN00000000020220501000002000NNM   20220308122735    2F0F  00000200000000970000001078532M3    SASAMI  005400370024
BI00B32M3    #SM22055 MW    202204287189-0149                HLC HOUSING FEMALE       CCN000002000000002000FN00000000020220501000002000NNM   20220308122735    2F0F  00000200000000970000001078532M3    SASAMI  005400370024
BI00B32M3    @SM22054 MW    202204217123-2825                HOUSING                  CCN000006000000006000FN00000000020220501000006000NNM   20220308122735    3F0F  00000600000000958800001136432M3    SASAMI  005500360039
BI00B32M3    @SM22051 MW    202203317283-1100                CONNECTOR ASS'Y          CCN000001600000001600FN00000000020220501000001600NNM   20220308122735    3N0N  00000160000000566500000799632M3    SASAMI  005500360039
BI00B32M3    @SM22051 MW    202203317283-1223-30             HOUSING SUB ASSEMBLY     CCN000014400000014400FN00000000020220501000014400NNM   20220308122735    3N0N  00000480000000749300000998032M3    SASAMI  005500360039
BI00B32M3    @SM22054 MW    202204217283-1223-30             HOUSING SUB ASSEMBLY     CCN000004800000004800FN00000000020220501000004800NNM   20220308122735    3N0N  00000480000000749300000998032M3    SASAMI  005500360039
BI00B32M3    @SM22055 MW    202204287283-1223-30             HOUSING SUB ASSEMBLY     CCN000004800000004800FN00000000020220501000004800NNM   20220308122735    3N0N  00000480000000749300000998032M3    SASAMI  005500360039
BI00B32M3    SM22051DMW     202203317114-4728-08             TERMINAL                 CCN000030000000030000FN00000000020220501000030000NNM   20220308122735    4P0P  00003000000000507000000801232M3    SASAMI  006400630015
BI00B32M3    SM22054DMW     202204217114-4728-08             TERMINAL                 CCN000030000000030000FN00000000020220501000030000NNM   20220308122735    4P0P  00003000000000507000000801232M3    SASAMI  006400630015
BI00B32M3    SM22055DMW     202204287114-4728-08             TERMINAL                 CCN000030000000030000FN00000000020220501000030000NNM   20220308122735    4P0P  00003000000000507000000801232M3    SASAMI  006400630015
BI00B32M3    SM22051DMW     202203317114-4729-08             TERMINAL                 CCN000090000000090000FN00000000020220501000090000NNM   20220308122735    4P0P  00003000000000522000000816232M3    SASAMI  006400630015
BI00B32M3    SM22054DMW     202204217114-4729-08             TERMINAL                 CCN000030000000030000FN00000000020220501000030000NNM   20220308122735    4P0P  00003000000000522000000816232M3    SASAMI  006400630015
BI00B32M3    SM22055DMW     202204287114-4729-08             TERMINAL                 CCN000030000000030000FN00000000020220501000030000NNM   20220308122735    4P0P  00003000000000522000000816232M3    SASAMI  006400630015
BI00B32M3    SM22051DMW     202203317116-3153-08             TERMINAL                 CCN000027000000027000FN00000000020220501000027000NNM   20220308122735    4P0P  00002700000000461700000746932M3    SASAMI  006400630015
BI00B32M3    SM22054DMW     202204217116-3153-08             TERMINAL                 CCN000027000000027000FN00000000020220501000027000NNM   20220308122735    4P0P  00002700000000461700000746932M3    SASAMI  006400630015
BI00B32M3    SM22051DMW     202203317116-3154-08             TERMINAL                 CCN000162000000162000FN00000000020220501000162000NNM   20220308122735    4P0P  00002700000000475200000760432M3    SASAMI  006400630015
BI00B32M3    SM22054DMW     202204217116-3154-08             TERMINAL                 CCN000081000000081000FN00000000020220501000081000NNM   20220308122735    4P0P  00002700000000475200000760432M3    SASAMI  006400630015
BI00B32M3    SM22055DMW     202204287116-3154-08             TERMINAL                 CCN000054000000054000FN00000000020220501000054000NNM   20220308122735    4P0P  00002700000000475200000760432M3    SASAMI  006400630015
BI00B32M3    SM22051DMW     202203317116-4486-02             TERMINAL                 CCN000196000000196000FN00000000020220501000196000NNM   20220308122735    4P0P  00002800000000666400000995132M3    SASAMI  006400630017
BI00B32M3    SM22054DMW     202204217116-4486-02             TERMINAL                 CCN000168000000168000FN00000000020220501000168000NNM   20220308122735    4P0P  00002800000000666400000995132M3    SASAMI  006400630017
BI00B32M3    SM22055DMW     202204287116-4486-02             TERMINAL                 CCN000084000000084000FN00000000020220501000084000NNM   20220308122735    4P0P  00002800000000666400000995132M3    SASAMI  006400630017
BI00B32M3    SM22051DMW     202203317116-5043-02             TERMINAL FEMALE          CCN000048000000048000FN00000000020220501000048000NNM   20220308122735    4P0P  00001200000000559200000844432M3    SASAMI  006400630015
BI00B32M3    SM22054DMW     202204217116-5043-02             TERMINAL FEMALE          CCN000048000000048000FN00000000020220501000048000NNM   20220308122735    4P0P  00001200000000559200000844432M3    SASAMI  006400630015
BI00B32M3    SM22055DMW     202204287116-5043-02             TERMINAL FEMALE          CCN000024000000024000FN00000000020220501000024000NNM   20220308122735    4P0P  00001200000000559200000844432M3    SASAMI  006400630015
BI00B32M3    SM22051DMW     202203317137-3047-30             UNIT PACKING             CCN000014000000014000FN00000000020220501000014000NNM   20220308122735    1C0C  00000100000000170500000218932M3    SASAMI  002700430014
BI00B32M3    SM22054DMW     202204217137-3047-30             UNIT PACKING             CCN000014000000014000FN00000000020220501000014000NNM   20220308122735    1C0C  00000100000000170500000218932M3    SASAMI  002700430014
BI00B32M3    SM22055DMW     202204287137-3047-30             UNIT PACKING             CCN000005000000005000FN00000000020220501000005000NNM   20220308122735    1C0C  00000100000000170500000218932M3    SASAMI  002700430014
BI00B32M3    SM22054DMW     202204217158-3022-80             RUBBER STOPPER           CCN000005000000005000FN00000000020220501000005000NNM   20220308122735    1C0C  00000500000000467500000524032M3    SASAMI  002700430014
BI00B32M3    SM22051DMW     202203317172-5402-30             SEAL RUBBER              CCN000040000000040000FN00000000020220501000040000NNM   20220308122735    1C0C  00000800000000457600000506032M3    SASAMI  004300270014
BI00B32M3    SM22054DMW     202204217172-5402-30             SEAL RUBBER              CCN000016000000016000FN00000000020220501000016000NNM   20220308122735    1C0C  00000800000000457600000506032M3    SASAMI  004300270014
BI00B32M3    SM22055DMW     202204287172-5402-30             SEAL RUBBER              CCN000016000000016000FN00000000020220501000016000NNM   20220308122735    1C0C  00000800000000457600000506032M3    SASAMI  004300270014
BI00B32M3    SM22051DMW     202203317172-5403-30             SEALED PACKING           CCN000044000000044000FN00000000020220501000044000NNM   20220308122735    1C0C  00000400000000653600000701732M3    SASAMI  004300270014
BI00B32M3    SM22054DMW     202204217172-5403-30             SEALED PACKING           CCN000016000000016000FN00000000020220501000016000NNM   20220308122735    1C0C  00000400000000653600000701732M3    SASAMI  004300270014
BI00B32M3    SM22055DMW     202204287172-5403-30             SEALED PACKING           CCN000016000000016000FN00000000020220501000016000NNM   20220308122735    1C0C  00000400000000653600000701732M3    SASAMI  004300270014
BI00B32M3    SM22051DMW     202203317282-4578                HOUSING MALE ASS'Y       CCN000004800000004800FN00000000020220501000004800NNM   20220308122735    4N0N  00000120000000782600000992632M3    SASAMI  005500360039
BI00B32M3    SM22054DMW     202204217282-4578                HOUSING MALE ASS'Y       CCN000003600000003600FN00000000020220501000003600NNM   20220308122735    4N0N  00000120000000782600000992632M3    SASAMI  005500360039
BI00B32M3    SM22055DMW     202204287282-4578                HOUSING MALE ASS'Y       CCN000001200000001200FN00000000020220501000001200NNM   20220308122735    4N0N  00000120000000782600000992632M3    SASAMI  005500360039
BI00B32M3    SM22051DMW     202203317282-4578-40             HOUSING MALE ASS'Y       CCN000001200000001200FN00000000020220501000001200NNM   20220308122735    4N0N  00000120000000782600000992632M3    SASAMI  005500360039
BI00B32M3    SM22054DMW     202204217282-4578-40             HOUSING MALE ASS'Y       CCN000001200000001200FN00000000020220501000001200NNM   20220308122735    4N0N  00000120000000782600000992632M3    SASAMI  005500360039
BI00B32M3    SM22051DMW     202203317283-4577                CONNECTOR HOUSING        CCN000144000000144000FN00000000020220501000144000NNM   20220308122735    4N0N  00000480000000916800001136832M3    SASAMI  005500360039
BI00B32M3    SM22054DMW     202204217283-4577                CONNECTOR HOUSING        CCN000009600000009600FN00000000020220501000009600NNM   20220308122735    4N0N  00000480000000916800001136832M3    SASAMI  005500360039
BI00B32M3    SM22055DMW     202204287283-4577                CONNECTOR HOUSING        CCN000004800000004800FN00000000020220501000004800NNM   20220308122735    4N0N  00000480000000916800001136832M3    SASAMI  005500360039
BI00B32M3    SM22051DMW     202203317283-4577-40             CONNECTOR HOUSING        CCN000004800000004800FN00000000020220501000004800NNM   20220308122735    4N0N  00000480000000916800001136832M3    SASAMI  005500360039
BI00B32M3    SM22054DMW     202204217283-4577-40             CONNECTOR HOUSING        CCN000004800000004800FN00000000020220501000004800NNM   20220308122735    4N0N  00000480000000916800001136832M3    SASAMI  005500360039
BI00B32M3    SM22051DMW     202203317283-4855                CONNECTOR HOUSING        CCN000004800000004800FN00000000020220501000004800NNM   20220308122735    4N0N  00000240000001188400001400032M3    SASAMI  005500360039
BI00B32M3    SM22054DMW     202204217283-4855                CONNECTOR HOUSING        CCN000004800000004800FN00000000020220501000004800NNM   20220308122735    4N0N  00000240000001188400001400032M3    SASAMI  005500360039
BI00B32M3    SM22051DMW     202203317283-5832-30             CONNECTOR HOUSING        CCN000002400000002400FN00000000020220501000002400NNM   20220308122735    1N0N  00000240000000723800000873832M3    SASAMI  005500360039
BI00B32M3    SM22054DMW     202204217283-5832-30             CONNECTOR HOUSING        CCN000002400000002400FN00000000020220501000002400NNM   20220308122735    1N0N  00000240000000723800000873832M3    SASAMI  005500360039
BI00B32M3    SM22051DMW     202203317286-1899                HOUSING SUB ASSEMBLY     CCN000003024000003024FN00000000020220501000003024NNM   20220308122735    4N0N  00000033600000814800001010832M3    SASAMI  005400370024
BI00B32M3    SM22054DMW     202204217286-1899                HOUSING SUB ASSEMBLY     CCN000002688000002688FN00000000020220501000002688NNM   20220308122735    4N0N  00000033600000814800001010832M3    SASAMI  005400370024
BI00B32M3    SM22055DMW     202204287286-1899                HOUSING SUB ASSEMBLY     CCN000000672000000672FN00000000020220501000000672NNM   20220308122735    4N0N  00000033600000814800001010832M3    SASAMI  005400370024
BI00B32M3    SM22054DMW     202204217286-1900                CONNECTOR HOUSING        CCN000004800000004800FN00000000020220501000004800NNM   20220308122735    4N0N  00000480000001161600001376632M3    SASAMI  005500360039
BI00B32M3    SM22051DMW     202203317286-4097                CONNECTOR MALE ASS'Y     CCN000001600000001600FN00000000020220501000001600NNM   20220308122735    1N0N  00000160000000768000000978032M3    SASAMI  005500360039
BI00B32M3    SM22051DMW     202203317287-1915                CONNECTOR ASS'Y          CCN000002400000002400FN00000000020220501000002400NNM   20220308122735    4N0N  00000240000000666500000923132M3    SASAMI  005500360039
BI00B32M3    SM22054DMW     202204217287-1915                CONNECTOR ASS'Y          CCN000002400000002400FN00000000020220501000002400NNM   20220308122735    4N0N  00000240000000666500000923132M3    SASAMI  005500360039
BI00B32M3    SM22051DMW     202203317287-1915-30             CONNECTOR ASS'Y          CCN000002400000002400FN00000000020220501000002400NNM   20220308122735    4N0N  00000240000000666500000923132M3    SASAMI  005500360039
BI00B32M3    SM22054DMW     202204217287-1915-30             CONNECTOR ASS'Y          CCN000002400000002400FN00000000020220501000002400NNM   20220308122735    4N0N  00000240000000666500000923132M3    SASAMI  005500360039
BI00B32M3    SM22051DMW     202203317289-3342-30             HOUSING FEMALE ASS'Y     CCN000024000000024000FN00000000020220501000024000NNM   20220308122735    1N0N  00000240000000686400000901432M3    SASAMI  005500360039
BI00B32M3    SM22054DMW     202204217289-3342-30             HOUSING FEMALE ASS'Y     CCN000021600000021600FN00000000020220501000021600NNM   20220308122735    1N0N  00000240000000686400000901432M3    SASAMI  005500360039
BI00B32M3    SM22055DMW     202204287289-3342-30             HOUSING FEMALE ASS'Y     CCN000012000000012000FN00000000020220501000012000NNM   20220308122735    1N0N  00000240000000686400000901432M3    SASAMI  005500360039
BI00B32M3    SM22051DMW     202203317386-2747                CONNECTOR ASS'Y          CCN000002000000002000FN00000000020220501000002000NNM   20220308122735    4N0N  00000200000001162000001284532M3    SASAMI  005400370024
BI00B32M3    SM22054DMW     202204217386-2747                CONNECTOR ASS'Y          CCN000002000000002000FN00000000020220501000002000NNM   20220308122735    4N0N  00000200000001162000001284532M3    SASAMI  005400370024
BI00B32M3    SM22055DMW     202204287386-2747                CONNECTOR ASS'Y          CCN000002000000002000FN00000000020220501000002000NNM   20220308122735    4N0N  00000200000001162000001284532M3    SASAMI  005400370024
BI00B32M3    #SM22051DMW    202203317183-6320                HOUSING                  CCN000004800000004800FN00000000020220501000004800NNM   20220308122735    2F0F  00000480000000820800001103632M3    SASAMI  005500360039
BI00B32M3    #SM22051DMW    202203317187-1616                HOUSING FEMALE           CCN000004000000004000FN00000000020220501000004000NNM   20220308122735    2F0F  00000400000001152000001262032M3    SASAMI  005500360039
BI00B32M3    #SM22054DMW    202204217187-1616                HOUSING FEMALE           CCN000004000000004000FN00000000020220501000004000NNM   20220308122735    2F0F  00000400000001152000001262032M3    SASAMI  005500360039
BI00B32M3    #SM22051DMW    202203317282-5528-70             HOUSING MALE ASS'Y       CCN000004000000004000FN00000000020220501000004000NNM   20220308122735    2N0N  00000100000000230000000339032M3    SASAMI  005400370024
BI00B32M3    #SM22054DMW    202204217282-5528-70             HOUSING MALE ASS'Y       CCN000003000000003000FN00000000020220501000003000NNM   20220308122735    2N0N  00000100000000230000000339032M3    SASAMI  005400370024
BI00B32M3    #SM22055DMW    202204287282-5528-70             HOUSING MALE ASS'Y       CCN000002000000002000FN00000000020220501000002000NNM   20220308122735    2N0N  00000100000000230000000339032M3    SASAMI  005400370024
BI00B32M3    #SM22051DMW    202203317287-1669                HOUSING FEMALE ASS'Y     CCN000004000000004000FN00000000020220501000004000NNM   20220308122735    2N0N  00000200000000788800000980832M3    SASAMI  005400370024
BI00B32M3    #SM22054DMW    202204217287-1669                HOUSING FEMALE ASS'Y     CCN000002000000002000FN00000000020220501000002000NNM   20220308122735    2N0N  00000200000000788800000980832M3    SASAMI  005400370024
BI00B32M3    #SM22051DMW    202203317287-1671                HOUSING FEMALE ASS'Y     CCN000004000000004000FN00000000020220501000004000NNM   20220308122735    2N0N  00000200000000782600000974632M3    SASAMI  005400370024
BI00B32M3    #SM22054DMW    202204217287-1671                HOUSING FEMALE ASS'Y     CCN000002000000002000FN00000000020220501000002000NNM   20220308122735    2N0N  00000200000000782600000974632M3    SASAMI  005400370024
BI00B32M3    #SM22055DMW    202204287287-1671                HOUSING FEMALE ASS'Y     CCN000002000000002000FN00000000020220501000002000NNM   20220308122735    2N0N  00000200000000782600000974632M3    SASAMI  005400370024
BI00B32M3    @SM22054DMW    202204217283-1100-30             CONNECTOR ASS'Y          CCN000001600000001600FN00000000020220501000001600NNM   20220308122735    3N0N  00000160000000561600000803032M3    SASAMI  005500360039
BI00B32M3    @SM22051DMW    202203317283-7443-30             HOUSING SUB ASSEMBLY     CCN000009600000009600FN00000000020220501000009600NNM   20220308122735    3N0N  00000240000000683700000908032M3    SASAMI  005500360039
BI00B32M3    @SM22054DMW    202204217283-7443-30             HOUSING SUB ASSEMBLY     CCN000007200000007200FN00000000020220501000007200NNM   20220308122735    3N0N  00000240000000683700000908032M3    SASAMI  005500360039
BI00B32M3    @SM22055DMW    202204287283-7443-30             HOUSING SUB ASSEMBLY     CCN000004800000004800FN00000000020220501000004800NNM   20220308122735    3N0N  00000240000000683700000908032M3    SASAMI  005500360039
BI00B32M3    SM22054EMW     202204217289-7213-30             HOUSING FEMALE ASS'Y     CCN000000240000000240FN00000000020220501000000240NNM   20220308122735    4N0N  00000024000001352800001667832M3    SASAMI  005500360039
BI00B32M3    #SM22051EMW    202203317174-1315-30             SEALED COVER             CCN000000800000000800FN00000000020220501000000800NNM   20220308122735    2F0F  00000080000000782000000902032M3    SASAMI  005500360039
BI00B32M3    #SM22054EMW    202204217174-1315-30             SEALED COVER             CCN000000800000000800FN00000000020220501000000800NNM   20220308122735    2F0F  00000080000000782000000902032M3    SASAMI  005500360039
BI00B32M3    #SM22054EMW    202204217289-2915-30             HOUSING FEMALE ASS'Y     CCN000001500000001500FN00000000020220501000001500NNM   20220308122735    2N0N  00000150000000964500001091532M3    SASAMI  005400370024
BI00B32M3    SM22051HMW     202203317B72-5540-80             SEALED WIRE SEAL         CCN000020000000020000FN00000000020220501000020000NNM   20220308122735    1C0C  00002000000000186000000234432M3    SASAMI  004300270014
BI00B32M3    SM22054HMW     202204217B72-5540-80             SEALED WIRE SEAL         CCN000020000000020000FN00000000020220501000020000NNM   20220308122735    1C0C  00002000000000186000000234432M3    SASAMI  004300270014
BI00B32M3    SM22055HMW     202204287B72-5540-80             SEALED WIRE SEAL         CCN000020000000020000FN00000000020220501000020000NNM   20220308122735    1C0C  00002000000000186000000234432M3    SASAMI  004300270014
BI00B32M3    SM22051HMW     202203317B96-0805-02             TERMINAL FEMALE          CCN000022500000022500FN00000000020220501000022500NNM   20220308122735    4P0P  00002250000000558000000843232M3    SASAMI  006400630015
BI00B32M3    SM22054HMW     202204217B96-0805-02             TERMINAL FEMALE          CCN000022500000022500FN00000000020220501000022500NNM   20220308122735    4P0P  00002250000000558000000843232M3    SASAMI  006400630015
