BI00B32G9    22061TMW       20220506180D0203730              AVSSH 0.3F B             CCN000002000000002000FN00000000020220601000002000NNM   20220401113629    1W    00000200000000515000000000032G9    TYTYC   000000000000LT324023
BI00B32G9    22062TMW       20220513180D0203730              AVSSH 0.3F B             CCN000002000000002000FN00000000020220601000002000NNM   20220401113629    1W    00000200000000515000000000032G9    TYTYC   000000000000LT424010
BI00B32G9    22061TMW       20220506180D0203743              AVSSH 0.3F W/B           CCN000002000000002000FN00000000020220601000002000NNM   20220401113629    1W    00000200000000515000000000032G9    TYTYC   000000000000LT324031
BI00B32G9    22061TMW       20220506180D0203750              AVSSH 0.3F R             CCN000002000000002000FN00000000020220601000002000NNM   20220401113629    1W    00000200000000515000000000032G9    TYTYC   000000000000LT324029
BI00B32G9    22061TMW       20220506180D0203752              AVSSH 0.3F P             CCN000002000000002000FN00000000020220601000002000NNM   20220401113629    1W    00000200000000515000000000032G9    TYTYC   000000000000LT324028
BI00B32G9    22061TMW       20220506180D0203760              AVSSH 0.3F G             CCN000002000000002000FN00000000020220601000002000NNM   20220401113629    1W    00000200000000515000000000032G9    TYTYC   000000000000LT324025
BI00B32G9    22061TMW       20220506180D0203761              AVSSH 0.3F LG            CCN000002000000002000FN00000000020220601000002000NNM   20220401113629    1W    00000200000000515000000000032G9    TYTYC   000000000000LT324027
BI00B32G9    22061TMW       20220506180D0203770              AVSSH 0.3F Y             CCN000002000000002000FN00000000020220601000002000NNM   20220401113629    1W    00000200000000515000000000032G9    TYTYC   000000000000LT324032
BI00B32G9    22062TMW       20220513180D0203770              AVSSH 0.3F Y             CCN000002000000002000FN00000000020220601000002000NNM   20220401113629    1W    00000200000000515000000000032G9    TYTYC   000000000000LT424011
BI00B32G9    22061TMW       20220506180D0203780              AVSSH 0.3F BR            CCN000002000000002000FN00000000020220601000002000NNM   20220401113629    1W    00000200000000515000000000032G9    TYTYC   000000000000LT324024
BI00B32G9    22061TMW       20220506180D0203790              AVSSH 0.3F L             CCN000002000000002000FN00000000020220601000002000NNM   20220401113629    1W    00000200000000515000000000032G9    TYTYC   000000000000LT324026
BI00B32G9    22061TMW       20220506180D0203792              AVSSH 0.3F V             CCN000002000000002000FN00000000020220601000002000NNM   20220401113629    1W    00000200000000515000000000032G9    TYTYC   000000000000LT324030
BI00B32G9    22061TMW       20220506180D0203930              AVSSH 0.5F B             CCN000001500000001500FN00000000020220601000001500NNM   20220401113629    1W    00000150000000689000000000032G9    TYTYC   000000000000LT324033
BI00B32G9    22061TMW       20220506180D0203943              AVSSH 0.5F W/B           CCN000001500000001500FN00000000020220601000001500NNM   20220401113629    1W    00000150000000689000000000032G9    TYTYC   000000000000LT324038
BI00B32G9    22062TMW       20220513180D0203943              AVSSH 0.5F W/B           CCN000001500000001500FN00000000020220601000001500NNM   20220401113629    1W    00000150000000689000000000032G9    TYTYC   000000000000LT424012
BI00B32G9    22061TMW       20220506180D0203950              AVSSH 0.5F R             CCN000001500000001500FN00000000020220601000001500NNM   20220401113629    1W    00000150000000689000000000032G9    TYTYC   000000000000LT324036
BI00B32G9    22061TMW       20220506180D0203960              AVSSH 0.5F G             CCN000001500000001500FN00000000020220601000001500NNM   20220401113629    1W    00000150000000689000000000032G9    TYTYC   000000000000LT324035
BI00B32G9    22061TMW       20220506180D0203980              AVSSH 0.5F BR            CCN000001500000001500FN00000000020220601000001500NNM   20220401113629    1W    00000150000000689000000000032G9    TYTYC   000000000000LT324034
BI00B32G9    22061TMW       20220506180D0203992              AVSSH 0.5F V             CCN000001500000001500FN00000000020220601000001500NNM   20220401113629    1W    00000150000000689000000000032G9    TYTYC   000000000000LT324037
BI00B32G9    22061TMW       20220506180D0204140              AVSSH 1.25F W            CCN000000800000000800FN00000000020220601000000800NNM   20220401113629    1W    00000080000001458000000000032G9    TYTYC   000000000000LT324039
BI00B32G9    22062TMW       20220513180D0204140              AVSSH 1.25F W            CCN000000800000000800FN00000000020220601000000800NNM   20220401113629    1W    00000080000001458000000000032G9    TYTYC   000000000000LT424013
BI00B32G9    22061TMW       20220506180D0204143              AVSSH 1.25F W/B          CCN000000800000000800FN00000000020220601000000800NNM   20220401113629    1W    00000080000001458000000000032G9    TYTYC   000000000000LT324040
BI00B32G9    22062TMW       20220513180D0204143              AVSSH 1.25F W/B          CCN000000800000000800FN00000000020220601000000800NNM   20220401113629    1W    00000080000001458000000000032G9    TYTYC   000000000000LT424014
BI00B32G9    22061TMW       202205061801W003930              IVSSH 0.5F B             CCN000001800000001800FN00000000020220601000001800NNM   20220401113629    1W    00000180000000625000000000032G9    TYTYC   000000000000LT324041
BI00B32G9    22062TMW       202205131801W003930              IVSSH 0.5F B             CCN000001800000001800FN00000000020220601000001800NNM   20220401113629    1W    00000180000000625000000000032G9    TYTYC   000000000000LT424015
BI00B32G9    22061TMW       202205061801W003941              IVSSH 0.5F GY            CCN000001800000001800FN00000000020220601000001800NNM   20220401113629    1W    00000180000000625000000000032G9    TYTYC   000000000000LT324043
BI00B32G9    22061TMW       202205061801W003943              IVSSH 0.5F W/B           CCN000001800000001800FN00000000020220601000001800NNM   20220401113629    1W    00000180000000625000000000032G9    TYTYC   000000000000LT324047
BI00B32G9    22061TMW       202205061801W003960              IVSSH 0.5F G             CCN000001800000001800FN00000000020220601000001800NNM   20220401113629    1W    00000180000000625000000000032G9    TYTYC   000000000000LT324042
BI00B32G9    22061TMW       202205061801W003990              IVSSH 0.5F L             CCN000001800000001800FN00000000020220601000001800NNM   20220401113629    1W    00000180000000625000000000032G9    TYTYC   000000000000LT324044
BI00B32G9    22062TMW       202205131801W003990              IVSSH 0.5F L             CCN000001800000001800FN00000000020220601000001800NNM   20220401113629    1W    00000180000000625000000000032G9    TYTYC   000000000000LT424016
BI00B32G9    22061TMW       202205061801W003991              IVSSH 0.5F SB            CCN000001800000001800FN00000000020220601000001800NNM   20220401113629    1W    00000180000000625000000000032G9    TYTYC   000000000000LT324045
BI00B32G9    22061TMW       202205061801W003992              IVSSH 0.5F V             CCN000001800000001800FN00000000020220601000001800NNM   20220401113629    1W    00000180000000625000000000032G9    TYTYC   000000000000LT324046
BI00B32G9    22061TMW       202205061801W004060              IVSSH 0.75F G            CCN000001300000001300FN00000000020220601000001300NNM   20220401113629    1W    00000130000000882000000000032G9    TYTYC   000000000000LT324048
BI00B32G9    22062TMW       202205131801W004060              IVSSH 0.75F G            CCN000001300000001300FN00000000020220601000001300NNM   20220401113629    1W    00000130000000882000000000032G9    TYTYC   000000000000LT424017
BI00B32G9    22061TMW       202205061801W006930              IVSSH 0.35F B            CCN000002500000002500FN00000000020220601000002500NNM   20220401113629    1W    00000250000000452000000000032G9    TYTYC   000000000000LT324049
BI00B32G9    22062TMW       202205131801W006930              IVSSH 0.35F B            CCN000002500000002500FN00000000020220601000002500NNM   20220401113629    1W    00000250000000452000000000032G9    TYTYC   000000000000LT424018
BI00B32G9    22061TMW       202205061801W006940              IVSSH 0.35F W            CCN000002500000002500FN00000000020220601000002500NNM   20220401113629    1W    00000250000000452000000000032G9    TYTYC   000000000000LT324056
BI00B32G9    22062TMW       202205131801W006940              IVSSH 0.35F W            CCN000002500000002500FN00000000020220601000002500NNM   20220401113629    1W    00000250000000452000000000032G9    TYTYC   000000000000LT424022
BI00B32G9    22061TMW       202205061801W006941              IVSSH 0.35F GY           CCN000002500000002500FN00000000020220601000002500NNM   20220401113629    1W    00000250000000452000000000032G9    TYTYC   000000000000LT324052
BI00B32G9    22061TMW       202205061801W006950              IVSSH 0.35F R            CCN000002500000002500FN00000000020220601000002500NNM   20220401113629    1W    00000250000000452000000000032G9    TYTYC   000000000000LT324054
BI00B32G9    22062TMW       202205131801W006950              IVSSH 0.35F R            CCN000002500000002500FN00000000020220601000002500NNM   20220401113629    1W    00000250000000452000000000032G9    TYTYC   000000000000LT424021
BI00B32G9    22061TMW       202205061801W006960              IVSSH 0.35F G            CCN000002500000002500FN00000000020220601000002500NNM   20220401113629    1W    00000250000000452000000000032G9    TYTYC   000000000000LT324051
BI00B32G9    22062TMW       202205131801W006960              IVSSH 0.35F G            CCN000002500000002500FN00000000020220601000002500NNM   20220401113629    1W    00000250000000452000000000032G9    TYTYC   000000000000LT424019
BI00B32G9    22061TMW       202205061801W006970              IVSSH 0.35F Y            CCN000002500000002500FN00000000020220601000002500NNM   20220401113629    1W    00000250000000452000000000032G9    TYTYC   000000000000LT324057
BI00B32G9    22062TMW       202205131801W006970              IVSSH 0.35F Y            CCN000002500000002500FN00000000020220601000002500NNM   20220401113629    1W    00000250000000452000000000032G9    TYTYC   000000000000LT424023
BI00B32G9    22061TMW       202205061801W006980              IVSSH 0.35F BR           CCN000002500000002500FN00000000020220601000002500NNM   20220401113629    1W    00000250000000452000000000032G9    TYTYC   000000000000LT324050
BI00B32G9    22061TMW       202205061801W006990              IVSSH 0.35F L            CCN000002500000002500FN00000000020220601000002500NNM   20220401113629    1W    00000250000000452000000000032G9    TYTYC   000000000000LT324053
BI00B32G9    22062TMW       202205131801W006990              IVSSH 0.35F L            CCN000002500000002500FN00000000020220601000002500NNM   20220401113629    1W    00000250000000452000000000032G9    TYTYC   000000000000LT424020
BI00B32G9    22061TMW       202205061801W006992              IVSSH 0.35F V            CCN000002500000002500FN00000000020220601000002500NNM   20220401113629    1W    00000250000000452000000000032G9    TYTYC   000000000000LT324055
BI00B32G9    @22061TMW      20220506181E50004ZZ              AVSSCS-S 0.5FX1 DGY      CCN000000400000000400FN00000000020220601000000400NNM   20220401113620    1W    00000040000001909700000000032G9    TYTYC   000000000000LT324010
BI00B32G9    @22062TMW      20220513181E50004ZZ              AVSSCS-S 0.5FX1 DGY      CCN000000400000000400FN00000000020220601000000400NNM   20220401113620    1W    00000040000001909700000000032G9    TYTYC   000000000000LT424001
BI00B32H0    TT2206AVMW     20220426180D0203980              AVSSH 0.5F BR            CCN000003000000003000FN00000000020220601000003000NNE   20220401133535    1W    00000150000000689000000000032H0    TTTJY   000000000000NL224003
BI00B32H0    TT2206AVMW     20220426180D0203992              AVSSH 0.5F V             CCN000001500000001500FN00000000020220601000001500NNE   20220401133535    1W    00000150000000689000000000032H0    TTTJY   000000000000NL224004
BI00B32H0    TT2206AVMW     20220426180D0204130              AVSSH 1.25F B            CCN000000800000000800FN00000000020220601000000800NNE   20220401133535    1W    00000080000001458000000000032H0    TTTJY   000000000000NL224005
BI00B32H0    TT2206AVMW     20220426180D0204160              AVSSH 1.25F G            CCN000001600000001600FN00000000020220601000001600NNE   20220401133535    1W    00000080000001458000000000032H0    TTTJY   000000000000NL224006
BI00B32H0    TT2206AVMW     20220426180D0204190              AVSSH 1.25F L            CCN000000800000000800FN00000000020220601000000800NNE   20220401133535    1W    00000080000001458000000000032H0    TTTJY   000000000000NL224007
BI00B32H0    TT2206AVMW     20220426180D0204192              AVSSH 1.25F V            CCN000000800000000800FN00000000020220601000000800NNE   20220401133535    1W    00000080000001458000000000032H0    TTTJY   000000000000NL224008
BI00B32H0    TT2206AVMW     20220426180D0204140              AVSSH 1.25F W            CCN000000800000000800FN00000000020220601000000800NNE   20220401133535    1W    00000080000001458000000000032H0    TTTJY   000000000000NL224009
BI00B32H0    TT2206AVMW     20220426180D0204143              AVSSH 1.25F W/B          CCN000000800000000800FN00000000020220601000000800NNE   20220401133535    1W    00000080000001458000000000032H0    TTTJY   000000000000NL224010
BI00B32H2    @TAW2021       20220404181AD2004ZZ              CIVUSAS-S 0.35X4 B       CCN000059700000059700FN00000000020220201000059700NNM25 20220401085908    1W    00000030000002799900000000032H2    HVYHV   000000000000UH31C056
BI00B32H8    22062 MW       2022051318007703930              AVSS 0.5F B              CCN000004500000004500FN00000000020220601000004500NNM   20220401114629    1W    00000150000000674000000000032H8    TYTYC   000000000000LM424002
BI00B32H8    22063 MW       2022052018007703930              AVSS 0.5F B              CCN000004500000004500FN00000000020220601000004500NNM   20220401114629    1W    00000150000000674000000000032H8    TYTYC   000000000000LM125002
BI00B32H8    22062 MW       2022051318007703935              AVSS 0.5F B/R            CCN000001500000001500FN00000000020220601000001500NNM   20220401114629    1W    00000150000000674000000000032H8    TYTYC   000000000000LM424003
BI00B32H8    22062 MW       2022051318007703937              AVSS 0.5F B/Y            CCN000001500000001500FN00000000020220601000001500NNM   20220401114629    1W    00000150000000674000000000032H8    TYTYC   000000000000LM424004
BI00B32H8    22062 MW       2022051318007703941              AVSS 0.5F GY             CCN000001500000001500FN00000000020220601000001500NNM   20220401114629    1W    00000150000000674000000000032H8    TYTYC   000000000000LM424006
BI00B32H8    22062 MW       2022051318007703946              AVSS 0.5F W/G            CCN000001500000001500FN00000000020220601000001500NNM   20220401114629    1W    00000150000000674000000000032H8    TYTYC   000000000000LM424009
BI00B32H8    22062 MW       2022051318007703950              AVSS 0.5F R              CCN000001500000001500FN00000000020220601000001500NNM   20220401114629    1W    00000150000000674000000000032H8    TYTYC   000000000000LM424008
BI00B32H8    22063 MW       2022052018007703950              AVSS 0.5F R              CCN000001500000001500FN00000000020220601000001500NNM   20220401114629    1W    00000150000000674000000000032H8    TYTYC   000000000000LM125003
BI00B32H8    22062 MW       2022051318007703960              AVSS 0.5F G              CCN000001500000001500FN00000000020220601000001500NNM   20220401114629    1W    00000150000000674000000000032H8    TYTYC   000000000000LM424005
BI00B32H8    22061 MW       2022050618007703970              AVSS 0.5F Y              CCN000001500000001500FN00000000020220601000001500NNM   20220401114629    1W    00000150000000674000000000032H8    TYTYC   000000000000LM324002
BI00B32H8    22062 MW       2022051318007703970              AVSS 0.5F Y              CCN000001500000001500FN00000000020220601000001500NNM   20220401114629    1W    00000150000000674000000000032H8    TYTYC   000000000000LM424010
BI00B32H8    22062 MW       2022051318007703973              AVSS 0.5F Y/B            CCN000001500000001500FN00000000020220601000001500NNM   20220401114629    1W    00000150000000674000000000032H8    TYTYC   000000000000LM424011
BI00B32H8    22062 MW       2022051318007703990              AVSS 0.5F L              CCN000001500000001500FN00000000020220601000001500NNM   20220401114629    1W    00000150000000674000000000032H8    TYTYC   000000000000LM424007
BI00B32H8    22061 MW       2022050618007704030              AVSS 0.75F B             CCN000003000000003000FN00000000020220601000003000NNM   20220401114629    1W    00000100000000943000000000032H8    TYTYC   000000000000LM324003
BI00B32H8    22062 MW       2022051318007704030              AVSS 0.75F B             CCN000002000000002000FN00000000020220601000002000NNM   20220401114629    1W    00000100000000943000000000032H8    TYTYC   000000000000LM424012
BI00B32H8    22063 MW       2022052018007704030              AVSS 0.75F B             CCN000002000000002000FN00000000020220601000002000NNM   20220401114629    1W    00000100000000943000000000032H8    TYTYC   000000000000LM125004
BI00B32H8    22061 MW       2022050618007704037              AVSS 0.75F B/Y           CCN000002000000002000FN00000000020220601000002000NNM   20220401114629    1W    00000100000000943000000000032H8    TYTYC   000000000000LM324004
BI00B32H8    22062 MW       2022051318007704037              AVSS 0.75F B/Y           CCN000002000000002000FN00000000020220601000002000NNM   20220401114629    1W    00000100000000943000000000032H8    TYTYC   000000000000LM424013
BI00B32H8    22062 MW       2022051318007704060              AVSS 0.75F G             CCN000002000000002000FN00000000020220601000002000NNM   20220401114629    1W    00000100000000943000000000032H8    TYTYC   000000000000LM424014
BI00B32H8    22063 MW       2022052018007704060              AVSS 0.75F G             CCN000001000000001000FN00000000020220601000001000NNM   20220401114629    1W    00000100000000943000000000032H8    TYTYC   000000000000LM125005
BI00B32H8    22061 MW       2022050618007704063              AVSS 0.75F G/B           CCN000001000000001000FN00000000020220601000001000NNM   20220401114629    1W    00000100000000943000000000032H8    TYTYC   000000000000LM324005
BI00B32H8    @22061 MW      20220506181B32102S1              AVSSCS 0.5FX2 DGY        CCN000002700000002700FN00000000020220601000002700NNM   20220401114624    1W    00000030000002903000000000032H8    TYTYC   000000000000LM324001
BI00B32H8    @22062 MW      20220513181B32102S1              AVSSCS 0.5FX2 DGY        CCN000003000000003000FN00000000020220601000003000NNM   20220401114624    1W    00000030000002903000000000032H8    TYTYC   000000000000LM424001
BI00B32H8    @22063 MW      20220520181B32102S1              AVSSCS 0.5FX2 DGY        CCN000003000000003000FN00000000020220601000003000NNM   20220401114624    1W    00000030000002903000000000032H8    TYTYC   000000000000LM125001
BI00B32H8    22061IMW       2022050618007704036              AVSS 0.75F B/G           CCN000001000000001000FN00000000020220601000001000NNM   20220401114632    1W    00000100000000943000000000032H8    TYTYC   000000000000LI324008
BI00B32H8    22062IMW       2022051318007704036              AVSS 0.75F B/G           CCN000001000000001000FN00000000020220601000001000NNM   20220401114632    1W    00000100000000943000000000032H8    TYTYC   000000000000LI424003
BI00B32H8    22061IMW       2022050618007704039              AVSS 0.75F B/L           CCN000001000000001000FN00000000020220601000001000NNM   20220401114632    1W    00000100000000943000000000032H8    TYTYC   000000000000LI324009
BI00B32H8    22062IMW       2022051318007704135              AVSS 1.25F B/R           CCN000000800000000800FN00000000020220601000000800NNM   20220401114632    1W    00000080000001389000000000032H8    TYTYC   000000000000LI424004
BI00B32H8    22063IMW       2022052018007704135              AVSS 1.25F B/R           CCN000000800000000800FN00000000020220601000000800NNM   20220401114632    1W    00000080000001389000000000032H8    TYTYC   000000000000LI125003
BI00B32H8    22062IMW       2022051318007704140              AVSS 1.25F W             CCN000000800000000800FN00000000020220601000000800NNM   20220401114632    1W    00000080000001389000000000032H8    TYTYC   000000000000LI424005
BI00B32H8    22063IMW       2022052018007704140              AVSS 1.25F W             CCN000000800000000800FN00000000020220601000000800NNM   20220401114632    1W    00000080000001389000000000032H8    TYTYC   000000000000LI125004
BI00B32H8    @22061IMW      20220506181B32037Y5              AVSSCS 0.3FX1 DGY/W      CCN000000500000000500FN00000000020220601000000500NNM   20220401114626    1W    00000050000001780000000000032H8    TYTYC   000000000000LI324001
BI00B32H8    @22061IMW      20220506181B32039S1              AVSSCS 0.5FX1 DGY        CCN000000400000000400FN00000000020220601000000400NNM   20220401114626    1W    00000040000002289000000000032H8    TYTYC   000000000000LI324002
BI00B32H8    @22061IMW      20220506181B32039Y5              AVSSCS 0.5FX1 DGY/W      CCN000000400000000400FN00000000020220601000000400NNM   20220401114626    1W    00000040000002289000000000032H8    TYTYC   000000000000LI324004
BI00B32H8    @22061IMW      20220506181B32039Y6              AVSSCS 0.5FX1 DGY/G      CCN000000400000000400FN00000000020220601000000400NNM   20220401114626    1W    00000040000002289000000000032H8    TYTYC   000000000000LI324003
BI00B32H8    @22061IMW      20220506181B32102Y5              AVSSCS 0.5FX2 DGY/W      CCN000000300000000300FN00000000020220601000000300NNM   20220401114626    1W    00000030000002903000000000032H8    TYTYC   000000000000LI324006
BI00B32H8    @22062IMW      20220513181B32102Y5              AVSSCS 0.5FX2 DGY/W      CCN000000300000000300FN00000000020220601000000300NNM   20220401114626    1W    00000030000002903000000000032H8    TYTYC   000000000000LI424002
BI00B32H8    @22063IMW      20220520181B32102Y5              AVSSCS 0.5FX2 DGY/W      CCN000000300000000300FN00000000020220601000000300NNM   20220401114626    1W    00000030000002903000000000032H8    TYTYC   000000000000LI125002
BI00B32H8    @22061IMW      20220506181B32102Y6              AVSSCS 0.5FX2 DGY/G      CCN000001800000001800FN00000000020220601000001800NNM   20220401114626    1W    00000030000002903000000000032H8    TYTYC   000000000000LI324005
BI00B32H8    @22062IMW      20220513181B32102Y6              AVSSCS 0.5FX2 DGY/G      CCN000001500000001500FN00000000020220601000001500NNM   20220401114626    1W    00000030000002903000000000032H8    TYTYC   000000000000LI424001
BI00B32H8    @22063IMW      20220520181B32102Y6              AVSSCS 0.5FX2 DGY/G      CCN000001500000001500FN00000000020220601000001500NNM   20220401114626    1W    00000030000002903000000000032H8    TYTYC   000000000000LI125001
BI00B32H8    @22061IMW      20220506181E50001ZZ              AVSSCS-S 0.5FX2 DGY      CCN000000300000000300FN00000000020220601000000300NNM   20220401114626    1W    00000030000003096000000000032H8    TYTYC   000000000000LI324007
BI00B32H8    22061KMW       20220506180D0203730              AVSSH 0.3F B             CCN000002000000002000FN00000000020220601000002000NNM   20220401114633    1W    00000200000000515000000000032H8    TYTYC   000000000000LK324022
BI00B32H8    22062KMW       20220513180D0203730              AVSSH 0.3F B             CCN000004000000004000FN00000000020220601000004000NNM   20220401114633    1W    00000200000000515000000000032H8    TYTYC   000000000000LK424030
BI00B32H8    22063KMW       20220520180D0203730              AVSSH 0.3F B             CCN000002000000002000FN00000000020220601000002000NNM   20220401114633    1W    00000200000000515000000000032H8    TYTYC   000000000000LK125025
BI00B32H8    22061KMW       20220506180D0203750              AVSSH 0.3F R             CCN000002000000002000FN00000000020220601000002000NNM   20220401114633    1W    00000200000000515000000000032H8    TYTYC   000000000000LK324027
BI00B32H8    22063KMW       20220520180D0203750              AVSSH 0.3F R             CCN000002000000002000FN00000000020220601000002000NNM   20220401114633    1W    00000200000000515000000000032H8    TYTYC   000000000000LK125031
BI00B32H8    22061KMW       20220506180D0203752              AVSSH 0.3F P             CCN000002000000002000FN00000000020220601000002000NNM   20220401114633    1W    00000200000000515000000000032H8    TYTYC   000000000000LK324026
BI00B32H8    22062KMW       20220513180D0203752              AVSSH 0.3F P             CCN000002000000002000FN00000000020220601000002000NNM   20220401114633    1W    00000200000000515000000000032H8    TYTYC   000000000000LK424032
BI00B32H8    22063KMW       20220520180D0203752              AVSSH 0.3F P             CCN000002000000002000FN00000000020220601000002000NNM   20220401114633    1W    00000200000000515000000000032H8    TYTYC   000000000000LK125030
BI00B32H8    22061KMW       20220506180D0203760              AVSSH 0.3F G             CCN000002000000002000FN00000000020220601000002000NNM   20220401114633    1W    00000200000000515000000000032H8    TYTYC   000000000000LK324024
BI00B32H8    22063KMW       20220520180D0203760              AVSSH 0.3F G             CCN000002000000002000FN00000000020220601000002000NNM   20220401114633    1W    00000200000000515000000000032H8    TYTYC   000000000000LK125027
BI00B32H8    22063KMW       20220520180D0203761              AVSSH 0.3F LG            CCN000002000000002000FN00000000020220601000002000NNM   20220401114633    1W    00000200000000515000000000032H8    TYTYC   000000000000LK125029
BI00B32H8    22061KMW       20220506180D0203770              AVSSH 0.3F Y             CCN000002000000002000FN00000000020220601000002000NNM   20220401114633    1W    00000200000000515000000000032H8    TYTYC   000000000000LK324028
BI00B32H8    22062KMW       20220513180D0203770              AVSSH 0.3F Y             CCN000002000000002000FN00000000020220601000002000NNM   20220401114633    1W    00000200000000515000000000032H8    TYTYC   000000000000LK424034
BI00B32H8    22063KMW       20220520180D0203770              AVSSH 0.3F Y             CCN000002000000002000FN00000000020220601000002000NNM   20220401114633    1W    00000200000000515000000000032H8    TYTYC   000000000000LK125032
BI00B32H8    22061KMW       20220506180D0203780              AVSSH 0.3F BR            CCN000002000000002000FN00000000020220601000002000NNM   20220401114633    1W    00000200000000515000000000032H8    TYTYC   000000000000LK324023
BI00B32H8    22063KMW       20220520180D0203780              AVSSH 0.3F BR            CCN000002000000002000FN00000000020220601000002000NNM   20220401114633    1W    00000200000000515000000000032H8    TYTYC   000000000000LK125026
BI00B32H8    22061KMW       20220506180D0203790              AVSSH 0.3F L             CCN000002000000002000FN00000000020220601000002000NNM   20220401114633    1W    00000200000000515000000000032H8    TYTYC   000000000000LK324025
BI00B32H8    22062KMW       20220513180D0203790              AVSSH 0.3F L             CCN000002000000002000FN00000000020220601000002000NNM   20220401114633    1W    00000200000000515000000000032H8    TYTYC   000000000000LK424031
BI00B32H8    22063KMW       20220520180D0203790              AVSSH 0.3F L             CCN000002000000002000FN00000000020220601000002000NNM   20220401114633    1W    00000200000000515000000000032H8    TYTYC   000000000000LK125028
BI00B32H8    22062KMW       20220513180D0203792              AVSSH 0.3F V             CCN000002000000002000FN00000000020220601000002000NNM   20220401114633    1W    00000200000000515000000000032H8    TYTYC   000000000000LK424033
BI00B32H8    22063KMW       20220520180D0203903              AVSSH 0.5F B/O           CCN000001500000001500FN00000000020220601000001500NNM   20220401114633    1W    00000150000000689000000000032H8    TYTYC   000000000000LK125035
BI00B32H8    22062KMW       20220513180D0203930              AVSSH 0.5F B             CCN000003000000003000FN00000000020220601000003000NNM   20220401114633    1W    00000150000000689000000000032H8    TYTYC   000000000000LK424035
BI00B32H8    22063KMW       20220520180D0203930              AVSSH 0.5F B             CCN000004500000004500FN00000000020220601000004500NNM   20220401114633    1W    00000150000000689000000000032H8    TYTYC   000000000000LK125033
BI00B32H8    22063KMW       20220520180D0203937              AVSSH 0.5F B/Y           CCN000001500000001500FN00000000020220601000001500NNM   20220401114633    1W    00000150000000689000000000032H8    TYTYC   000000000000LK125036
BI00B32H8    22063KMW       20220520180D0203939              AVSSH 0.5F B/L           CCN000001500000001500FN00000000020220601000001500NNM   20220401114633    1W    00000150000000689000000000032H8    TYTYC   000000000000LK125034
BI00B32H8    22062KMW       20220513180D0203940              AVSSH 0.5F W             CCN000006000000006000FN00000000020220601000006000NNM   20220401114633    1W    00000150000000689000000000032H8    TYTYC   000000000000LK424044
BI00B32H8    22063KMW       20220520180D0203940              AVSSH 0.5F W             CCN000006000000006000FN00000000020220601000006000NNM   20220401114633    1W    00000150000000689000000000032H8    TYTYC   000000000000LK125047
BI00B32H8    22062KMW       20220513180D0203941              AVSSH 0.5F GY            CCN000001500000001500FN00000000020220601000001500NNM   20220401114633    1W    00000150000000689000000000032H8    TYTYC   000000000000LK424038
BI00B32H8    22062KMW       20220513180D0203943              AVSSH 0.5F W/B           CCN000003000000003000FN00000000020220601000003000NNM   20220401114633    1W    00000150000000689000000000032H8    TYTYC   000000000000LK424045
BI00B32H8    22063KMW       20220520180D0203943              AVSSH 0.5F W/B           CCN000004500000004500FN00000000020220601000004500NNM   20220401114633    1W    00000150000000689000000000032H8    TYTYC   000000000000LK125048
BI00B32H8    22063KMW       20220520180D0203945              AVSSH 0.5F W/R           CCN000001500000001500FN00000000020220601000001500NNM   20220401114633    1W    00000150000000689000000000032H8    TYTYC   000000000000LK125049
BI00B32H8    22062KMW       20220513180D0203949              AVSSH 0.5F W/L           CCN000001500000001500FN00000000020220601000001500NNM   20220401114633    1W    00000150000000689000000000032H8    TYTYC   000000000000LK424046
BI00B32H8    22062KMW       20220513180D0203950              AVSSH 0.5F R             CCN000006000000006000FN00000000020220601000006000NNM   20220401114633    1W    00000150000000689000000000032H8    TYTYC   000000000000LK424042
BI00B32H8    22063KMW       20220520180D0203950              AVSSH 0.5F R             CCN000004500000004500FN00000000020220601000004500NNM   20220401114633    1W    00000150000000689000000000032H8    TYTYC   000000000000LK125043
BI00B32H8    22061KMW       20220506180D0203952              AVSSH 0.5F P             CCN000001500000001500FN00000000020220601000001500NNM   20220401114633    1W    00000150000000689000000000032H8    TYTYC   000000000000LK324029
BI00B32H8    22062KMW       20220513180D0203952              AVSSH 0.5F P             CCN000001500000001500FN00000000020220601000001500NNM   20220401114633    1W    00000150000000689000000000032H8    TYTYC   000000000000LK424041
BI00B32H8    22063KMW       20220520180D0203952              AVSSH 0.5F P             CCN000003000000003000FN00000000020220601000003000NNM   20220401114633    1W    00000150000000689000000000032H8    TYTYC   000000000000LK125042
BI00B32H8    22063KMW       20220520180D0203954              AVSSH 0.5F R/W           CCN000001500000001500FN00000000020220601000001500NNM   20220401114633    1W    00000150000000689000000000032H8    TYTYC   000000000000LK125044
BI00B32H8    22063KMW       20220520180D0203957              AVSSH 0.5F R/Y           CCN000001500000001500FN00000000020220601000001500NNM   20220401114633    1W    00000150000000689000000000032H8    TYTYC   000000000000LK125045
BI00B32H8    22062KMW       20220513180D0203960              AVSSH 0.5F G             CCN000001500000001500FN00000000020220601000001500NNM   20220401114633    1W    00000150000000689000000000032H8    TYTYC   000000000000LK424037
BI00B32H8    22063KMW       20220520180D0203960              AVSSH 0.5F G             CCN000001500000001500FN00000000020220601000001500NNM   20220401114633    1W    00000150000000689000000000032H8    TYTYC   000000000000LK125038
BI00B32H8    22062KMW       20220513180D0203961              AVSSH 0.5F LG            CCN000001500000001500FN00000000020220601000001500NNM   20220401114633    1W    00000150000000689000000000032H8    TYTYC   000000000000LK424040
BI00B32H8    22063KMW       20220520180D0203961              AVSSH 0.5F LG            CCN000001500000001500FN00000000020220601000001500NNM   20220401114633    1W    00000150000000689000000000032H8    TYTYC   000000000000LK125041
BI00B32H8    22063KMW       20220520180D0203965              AVSSH 0.5F G/R           CCN000001500000001500FN00000000020220601000001500NNM   20220401114633    1W    00000150000000689000000000032H8    TYTYC   000000000000LK125039
BI00B32H8    22062KMW       20220513180D0203970              AVSSH 0.5F Y             CCN000004500000004500FN00000000020220601000004500NNM   20220401114633    1W    00000150000000689000000000032H8    TYTYC   000000000000LK424047
BI00B32H8    22063KMW       20220520180D0203970              AVSSH 0.5F Y             CCN000004500000004500FN00000000020220601000004500NNM   20220401114633    1W    00000150000000689000000000032H8    TYTYC   000000000000LK125050
BI00B32H8    22062KMW       20220513180D0203980              AVSSH 0.5F BR            CCN000001500000001500FN00000000020220601000001500NNM   20220401114633    1W    00000150000000689000000000032H8    TYTYC   000000000000LK424036
BI00B32H8    22063KMW       20220520180D0203980              AVSSH 0.5F BR            CCN000001500000001500FN00000000020220601000001500NNM   20220401114633    1W    00000150000000689000000000032H8    TYTYC   000000000000LK125037
BI00B32H8    22062KMW       20220513180D0203990              AVSSH 0.5F L             CCN000001500000001500FN00000000020220601000001500NNM   20220401114633    1W    00000150000000689000000000032H8    TYTYC   000000000000LK424039
BI00B32H8    22063KMW       20220520180D0203990              AVSSH 0.5F L             CCN000001500000001500FN00000000020220601000001500NNM   20220401114633    1W    00000150000000689000000000032H8    TYTYC   000000000000LK125040
BI00B32H8    22062KMW       20220513180D0203992              AVSSH 0.5F V             CCN000001500000001500FN00000000020220601000001500NNM   20220401114633    1W    00000150000000689000000000032H8    TYTYC   000000000000LK424043
BI00B32H8    22063KMW       20220520180D0203992              AVSSH 0.5F V             CCN000001500000001500FN00000000020220601000001500NNM   20220401114633    1W    00000150000000689000000000032H8    TYTYC   000000000000LK125046
BI00B32H8    22063KMW       20220520180D0204034              AVSSH 0.75F B/W          CCN000001000000001000FN00000000020220601000001000NNM   20220401114633    1W    00000100000000934000000000032H8    TYTYC   000000000000LK125051
BI00B32H8    22062KMW       20220513180D0204039              AVSSH 0.75F B/L          CCN000001000000001000FN00000000020220601000001000NNM   20220401114633    1W    00000100000000934000000000032H8    TYTYC   000000000000LK424048
BI00B32H8    22062KMW       20220513180D0204040              AVSSH 0.75F W            CCN000001000000001000FN00000000020220601000001000NNM   20220401114633    1W    00000100000000934000000000032H8    TYTYC   000000000000LK424051
BI00B32H8    22062KMW       20220513180D0204050              AVSSH 0.75F R            CCN000001000000001000FN00000000020220601000001000NNM   20220401114633    1W    00000100000000934000000000032H8    TYTYC   000000000000LK424050
BI00B32H8    22061KMW       20220506180D0204060              AVSSH 0.75F G            CCN000001000000001000FN00000000020220601000001000NNM   20220401114633    1W    00000100000000934000000000032H8    TYTYC   000000000000LK324030
BI00B32H8    22063KMW       20220520180D0204060              AVSSH 0.75F G            CCN000001000000001000FN00000000020220601000001000NNM   20220401114633    1W    00000100000000934000000000032H8    TYTYC   000000000000LK125052
BI00B32H8    22062KMW       20220513180D0204070              AVSSH 0.75F Y            CCN000001000000001000FN00000000020220601000001000NNM   20220401114633    1W    00000100000000934000000000032H8    TYTYC   000000000000LK424052
BI00B32H8    22063KMW       20220520180D0204070              AVSSH 0.75F Y            CCN000001000000001000FN00000000020220601000001000NNM   20220401114633    1W    00000100000000934000000000032H8    TYTYC   000000000000LK125055
BI00B32H8    22062KMW       20220513180D0204090              AVSSH 0.75F L            CCN000001000000001000FN00000000020220601000001000NNM   20220401114633    1W    00000100000000934000000000032H8    TYTYC   000000000000LK424049
BI00B32H8    22063KMW       20220520180D0204090              AVSSH 0.75F L            CCN000001000000001000FN00000000020220601000001000NNM   20220401114633    1W    00000100000000934000000000032H8    TYTYC   000000000000LK125053
BI00B32H8    22061KMW       20220506180D0204093              AVSSH 0.75F L/B          CCN000001000000001000FN00000000020220601000001000NNM   20220401114633    1W    00000100000000933600000000032H8    TYTYC   000000000000LK324031
BI00B32H8    22063KMW       20220520180D0204093              AVSSH 0.75F L/B          CCN000001000000001000FN00000000020220601000001000NNM   20220401114633    1W    00000100000000933600000000032H8    TYTYC   000000000000LK125054
BI00B32H8    22063KMW       20220520180D0204130              AVSSH 1.25F B            CCN000000800000000800FN00000000020220601000000800NNM   20220401114633    1W    00000080000001458000000000032H8    TYTYC   000000000000LK125056
BI00B32H8    22062KMW       20220513180D0204140              AVSSH 1.25F W            CCN000000800000000800FN00000000020220601000000800NNM   20220401114633    1W    00000080000001458000000000032H8    TYTYC   000000000000LK424055
BI00B32H8    22061KMW       20220506180D0204143              AVSSH 1.25F W/B          CCN000004000000004000FN00000000020220601000004000NNM   20220401114633    1W    00000080000001458000000000032H8    TYTYC   000000000000LK324033
BI00B32H8    22062KMW       20220513180D0204143              AVSSH 1.25F W/B          CCN000004000000004000FN00000000020220601000004000NNM   20220401114633    1W    00000080000001458000000000032H8    TYTYC   000000000000LK424056
BI00B32H8    22063KMW       20220520180D0204143              AVSSH 1.25F W/B          CCN000004800000004800FN00000000020220601000004800NNM   20220401114633    1W    00000080000001458000000000032H8    TYTYC   000000000000LK125061
BI00B32H8    22063KMW       20220520180D0204150              AVSSH 1.25F R            CCN000000800000000800FN00000000020220601000000800NNM   20220401114633    1W    00000080000001458000000000032H8    TYTYC   000000000000LK125058
BI00B32H8    22061KMW       20220506180D0204154              AVSSH 1.25F R/W          CCN000000800000000800FN00000000020220601000000800NNM   20220401114633    1W    00000080000001458000000000032H8    TYTYC   000000000000LK324032
BI00B32H8    22062KMW       20220513180D0204154              AVSSH 1.25F R/W          CCN000000800000000800FN00000000020220601000000800NNM   20220401114633    1W    00000080000001458000000000032H8    TYTYC   000000000000LK424054
BI00B32H8    22063KMW       20220520180D0204154              AVSSH 1.25F R/W          CCN000000800000000800FN00000000020220601000000800NNM   20220401114633    1W    00000080000001458000000000032H8    TYTYC   000000000000LK125060
BI00B32H8    22063KMW       20220520180D0204159              AVSSH 1.25F R/L          CCN000000800000000800FN00000000020220601000000800NNM   20220401114633    1W    00000080000001458000000000032H8    TYTYC   000000000000LK125059
BI00B32H8    22063KMW       20220520180D0204170              AVSSH 1.25F Y            CCN000000800000000800FN00000000020220601000000800NNM   20220401114633    1W    00000080000001458000000000032H8    TYTYC   000000000000LK125062
BI00B32H8    22063KMW       20220520180D0204180              AVSSH 1.25F BR           CCN000000800000000800FN00000000020220601000000800NNM   20220401114633    1W    00000080000001458000000000032H8    TYTYC   000000000000LK125057
BI00B32H8    22062KMW       20220513180D0204190              AVSSH 1.25F L            CCN000000800000000800FN00000000020220601000000800NNM   20220401114633    1W    00000080000001458000000000032H8    TYTYC   000000000000LK424053
BI00B32H8    22062KMW       2022051318007703940              AVSS 0.5F W              CCN000001500000001500FN00000000020220601000001500NNM   20220401114633    1W    00000150000000674000000000032H8    TYTYC   000000000000LK424058
BI00B32H8    22063KMW       2022052018007703940              AVSS 0.5F W              CCN000001500000001500FN00000000020220601000001500NNM   20220401114633    1W    00000150000000674000000000032H8    TYTYC   000000000000LK125066
BI00B32H8    22063KMW       2022052018007703961              AVSS 0.5F LG             CCN000001500000001500FN00000000020220601000001500NNM   20220401114633    1W    00000150000000674000000000032H8    TYTYC   000000000000LK125065
BI00B32H8    22063KMW       2022052018007703980              AVSS 0.5F BR             CCN000001500000001500FN00000000020220601000001500NNM   20220401114633    1W    00000150000000674000000000032H8    TYTYC   000000000000LK125063
BI00B32H8    22062KMW       2022051318007703992              AVSS 0.5F V              CCN000001500000001500FN00000000020220601000001500NNM   20220401114633    1W    00000150000000674000000000032H8    TYTYC   000000000000LK424057
BI00B32H8    22063KMW       2022052018007703997              AVSS 0.5F L/Y            CCN000001500000001500FN00000000020220601000001500NNM   20220401114633    1W    00000150000000674000000000032H8    TYTYC   000000000000LK125064
BI00B32H8    22062KMW       2022051318007704009              AVSS 0.75F LG/R          CCN000001000000001000FN00000000020220601000001000NNM   20220401114633    1W    00000100000000943000000000032H8    TYTYC   000000000000LK424062
BI00B32H8    22061KMW       2022050618007704040              AVSS 0.75F W             CCN000001000000001000FN00000000020220601000001000NNM   20220401114633    1W    00000100000000943000000000032H8    TYTYC   000000000000LK324034
BI00B32H8    22063KMW       2022052018007704040              AVSS 0.75F W             CCN000001000000001000FN00000000020220601000001000NNM   20220401114633    1W    00000100000000943000000000032H8    TYTYC   000000000000LK125068
BI00B32H8    22062KMW       2022051318007704049              AVSS 0.75F W/L           CCN000001000000001000FN00000000020220601000001000NNM   20220401114633    1W    00000100000000943000000000032H8    TYTYC   000000000000LK424063
BI00B32H8    22063KMW       2022052018007704050              AVSS 0.75F R             CCN000001000000001000FN00000000020220601000001000NNM   20220401114633    1W    00000100000000943000000000032H8    TYTYC   000000000000LK125067
BI00B32H8    22062KMW       2022051318007704061              AVSS 0.75F LG            CCN000001000000001000FN00000000020220601000001000NNM   20220401114633    1W    00000100000000943000000000032H8    TYTYC   000000000000LK424061
BI00B32H8    22062KMW       2022051318007704064              AVSS 0.75F G/W           CCN000001000000001000FN00000000020220601000001000NNM   20220401114633    1W    00000100000000943000000000032H8    TYTYC   000000000000LK424060
BI00B32H8    22062KMW       2022051318007704065              AVSS 0.75F G/R           CCN000001000000001000FN00000000020220601000001000NNM   20220401114633    1W    00000100000000943000000000032H8    TYTYC   000000000000LK424059
BI00B32H8    22062KMW       2022051318007704154              AVSS 1.25F R/W           CCN000000800000000800FN00000000020220601000000800NNM   20220401114633    1W    00000080000001389000000000032H8    TYTYC   000000000000LK424065
BI00B32H8    22062KMW       2022051318007704159              AVSS 1.25F R/L           CCN000000800000000800FN00000000020220601000000800NNM   20220401114633    1W    00000080000001389000000000032H8    TYTYC   000000000000LK424064
BI00B32H8    22061KMW       202205061801W003930              IVSSH 0.5F B             CCN000003600000003600FN00000000020220601000003600NNM   20220401114633    1W    00000180000000625000000000032H8    TYTYC   000000000000LK324035
BI00B32H8    22062KMW       202205131801W003930              IVSSH 0.5F B             CCN000003600000003600FN00000000020220601000003600NNM   20220401114633    1W    00000180000000625000000000032H8    TYTYC   000000000000LK424066
BI00B32H8    22063KMW       202205201801W003930              IVSSH 0.5F B             CCN000005400000005400FN00000000020220601000005400NNM   20220401114633    1W    00000180000000625000000000032H8    TYTYC   000000000000LK125069
BI00B32H8    22061KMW       202205061801W003940              IVSSH 0.5F W             CCN000001800000001800FN00000000020220601000001800NNM   20220401114633    1W    00000180000000625000000000032H8    TYTYC   000000000000LK324037
BI00B32H8    22062KMW       202205131801W003940              IVSSH 0.5F W             CCN000001800000001800FN00000000020220601000001800NNM   20220401114633    1W    00000180000000625000000000032H8    TYTYC   000000000000LK424072
BI00B32H8    22063KMW       202205201801W003940              IVSSH 0.5F W             CCN000001800000001800FN00000000020220601000001800NNM   20220401114633    1W    00000180000000625000000000032H8    TYTYC   000000000000LK125076
BI00B32H8    22062KMW       202205131801W003941              IVSSH 0.5F GY            CCN000001800000001800FN00000000020220601000001800NNM   20220401114633    1W    00000180000000625000000000032H8    TYTYC   000000000000LK424068
BI00B32H8    22063KMW       202205201801W003941              IVSSH 0.5F GY            CCN000001800000001800FN00000000020220601000001800NNM   20220401114633    1W    00000180000000625000000000032H8    TYTYC   000000000000LK125071
BI00B32H8    22062KMW       202205131801W003950              IVSSH 0.5F R             CCN000001800000001800FN00000000020220601000001800NNM   20220401114633    1W    00000180000000625000000000032H8    TYTYC   000000000000LK424070
BI00B32H8    22063KMW       202205201801W003950              IVSSH 0.5F R             CCN000003600000003600FN00000000020220601000003600NNM   20220401114633    1W    00000180000000625000000000032H8    TYTYC   000000000000LK125074
BI00B32H8    22063KMW       202205201801W003952              IVSSH 0.5F P             CCN000001800000001800FN00000000020220601000001800NNM   20220401114633    1W    00000180000000625000000000032H8    TYTYC   000000000000LK125073
BI00B32H8    22061KMW       202205061801W003960              IVSSH 0.5F G             CCN000001800000001800FN00000000020220601000001800NNM   20220401114633    1W    00000180000000625000000000032H8    TYTYC   000000000000LK324036
BI00B32H8    22062KMW       202205131801W003960              IVSSH 0.5F G             CCN000005400000005400FN00000000020220601000005400NNM   20220401114633    1W    00000180000000625000000000032H8    TYTYC   000000000000LK424067
BI00B32H8    22063KMW       202205201801W003960              IVSSH 0.5F G             CCN000005400000005400FN00000000020220601000005400NNM   20220401114633    1W    00000180000000625000000000032H8    TYTYC   000000000000LK125070
BI00B32H8    22062KMW       202205131801W003990              IVSSH 0.5F L             CCN000005400000005400FN00000000020220601000005400NNM   20220401114633    1W    00000180000000625000000000032H8    TYTYC   000000000000LK424069
BI00B32H8    22063KMW       202205201801W003990              IVSSH 0.5F L             CCN000003600000003600FN00000000020220601000003600NNM   20220401114633    1W    00000180000000625000000000032H8    TYTYC   000000000000LK125072
BI00B32H8    22063KMW       202205201801W003991              IVSSH 0.5F SB            CCN000001800000001800FN00000000020220601000001800NNM   20220401114633    1W    00000180000000625000000000032H8    TYTYC   000000000000LK125075
BI00B32H8    22062KMW       202205131801W003992              IVSSH 0.5F V             CCN000001800000001800FN00000000020220601000001800NNM   20220401114633    1W    00000180000000625000000000032H8    TYTYC   000000000000LK424071
BI00B32H8    22061KMW       202205061801W004060              IVSSH 0.75F G            CCN000001300000001300FN00000000020220601000001300NNM   20220401114633    1W    00000130000000882000000000032H8    TYTYC   000000000000LK324038
BI00B32H8    22062KMW       202205131801W004060              IVSSH 0.75F G            CCN000003900000003900FN00000000020220601000003900NNM   20220401114633    1W    00000130000000882000000000032H8    TYTYC   000000000000LK424073
BI00B32H8    22063KMW       202205201801W004060              IVSSH 0.75F G            CCN000002600000002600FN00000000020220601000002600NNM   20220401114633    1W    00000130000000882000000000032H8    TYTYC   000000000000LK125077
BI00B32H8    22063KMW       202205201801W004070              IVSSH 0.75F Y            CCN000001300000001300FN00000000020220601000001300NNM   20220401114633    1W    00000130000000882000000000032H8    TYTYC   000000000000LK125078
BI00B32H8    22061KMW       202205061801W006930              IVSSH 0.35F B            CCN000005000000005000FN00000000020220601000005000NNM   20220401114633    1W    00000250000000452000000000032H8    TYTYC   000000000000LK324039
BI00B32H8    22062KMW       202205131801W006930              IVSSH 0.35F B            CCN000005000000005000FN00000000020220601000005000NNM   20220401114633    1W    00000250000000452000000000032H8    TYTYC   000000000000LK424074
BI00B32H8    22063KMW       202205201801W006930              IVSSH 0.35F B            CCN000002500000002500FN00000000020220601000002500NNM   20220401114633    1W    00000250000000452000000000032H8    TYTYC   000000000000LK125079
BI00B32H8    22062KMW       202205131801W006940              IVSSH 0.35F W            CCN000002500000002500FN00000000020220601000002500NNM   20220401114633    1W    00000250000000452000000000032H8    TYTYC   000000000000LK424078
BI00B32H8    22063KMW       202205201801W006940              IVSSH 0.35F W            CCN000002500000002500FN00000000020220601000002500NNM   20220401114633    1W    00000250000000452000000000032H8    TYTYC   000000000000LK125085
BI00B32H8    22061KMW       202205061801W006950              IVSSH 0.35F R            CCN000002500000002500FN00000000020220601000002500NNM   20220401114633    1W    00000250000000452000000000032H8    TYTYC   000000000000LK324042
BI00B32H8    22062KMW       202205131801W006950              IVSSH 0.35F R            CCN000005000000005000FN00000000020220601000005000NNM   20220401114633    1W    00000250000000452000000000032H8    TYTYC   000000000000LK424077
BI00B32H8    22063KMW       202205201801W006950              IVSSH 0.35F R            CCN000005000000005000FN00000000020220601000005000NNM   20220401114633    1W    00000250000000452000000000032H8    TYTYC   000000000000LK125083
BI00B32H8    22061KMW       202205061801W006960              IVSSH 0.35F G            CCN000002500000002500FN00000000020220601000002500NNM   20220401114633    1W    00000250000000452000000000032H8    TYTYC   000000000000LK324040
BI00B32H8    22062KMW       202205131801W006960              IVSSH 0.35F G            CCN000005000000005000FN00000000020220601000005000NNM   20220401114633    1W    00000250000000452000000000032H8    TYTYC   000000000000LK424075
BI00B32H8    22063KMW       202205201801W006960              IVSSH 0.35F G            CCN000005000000005000FN00000000020220601000005000NNM   20220401114633    1W    00000250000000452000000000032H8    TYTYC   000000000000LK125081
BI00B32H8    22061KMW       202205061801W006970              IVSSH 0.35F Y            CCN000005000000005000FN00000000020220601000005000NNM   20220401114633    1W    00000250000000452000000000032H8    TYTYC   000000000000LK324043
BI00B32H8    22062KMW       202205131801W006970              IVSSH 0.35F Y            CCN000005000000005000FN00000000020220601000005000NNM   20220401114633    1W    00000250000000452000000000032H8    TYTYC   000000000000LK424079
BI00B32H8    22063KMW       202205201801W006970              IVSSH 0.35F Y            CCN000005000000005000FN00000000020220601000005000NNM   20220401114633    1W    00000250000000452000000000032H8    TYTYC   000000000000LK125086
BI00B32H8    22063KMW       202205201801W006980              IVSSH 0.35F BR           CCN000002500000002500FN00000000020220601000002500NNM   20220401114633    1W    00000250000000452000000000032H8    TYTYC   000000000000LK125080
BI00B32H8    22061KMW       202205061801W006990              IVSSH 0.35F L            CCN000002500000002500FN00000000020220601000002500NNM   20220401114633    1W    00000250000000452000000000032H8    TYTYC   000000000000LK324041
BI00B32H8    22062KMW       202205131801W006990              IVSSH 0.35F L            CCN000002500000002500FN00000000020220601000002500NNM   20220401114633    1W    00000250000000452000000000032H8    TYTYC   000000000000LK424076
BI00B32H8    22063KMW       202205201801W006990              IVSSH 0.35F L            CCN000005000000005000FN00000000020220601000005000NNM   20220401114633    1W    00000250000000452000000000032H8    TYTYC   000000000000LK125082
BI00B32H8    22063KMW       202205201801W006992              IVSSH 0.35F V            CCN000002500000002500FN00000000020220601000002500NNM   20220401114633    1W    00000250000000452000000000032H8    TYTYC   000000000000LK125084
BI00B32H8    @22061KMW      20220506181B0910241              CAVSAS 0.5X2 GY          CCN000000300000000300FN00000000020220601000000300NNM   20220401114628    1W    00000030000002680000000000032H8    TYTYC   000000000000LK324010
BI00B32H8    @22062KMW      20220513181B0910241              CAVSAS 0.5X2 GY          CCN000000300000000300FN00000000020220601000000300NNM   20220401114628    1W    00000030000002680000000000032H8    TYTYC   000000000000LK424013
BI00B32H8    @22063KMW      20220520181B0910241              CAVSAS 0.5X2 GY          CCN000000300000000300FN00000000020220601000000300NNM   20220401114628    1W    00000030000002680000000000032H8    TYTYC   000000000000LK125012
BI00B32H8    @22061KMW      20220506181B0911610              CAVSAS 0.3X2 GY/R        CCN000000700000000700FN00000000020220601000000700NNM   20220401114628    1W    00000035000002254000000000032H8    TYTYC   000000000000LK324011
BI00B32H8    @22062KMW      20220513181B0911610              CAVSAS 0.3X2 GY/R        CCN000000350000000350FN00000000020220601000000350NNM   20220401114628    1W    00000035000002254000000000032H8    TYTYC   000000000000LK424014
BI00B32H8    @22063KMW      20220520181B0911610              CAVSAS 0.3X2 GY/R        CCN000000350000000350FN00000000020220601000000350NNM   20220401114628    1W    00000035000002254000000000032H8    TYTYC   000000000000LK125013
BI00B32H8    @22061KMW      20220506181B32039Y8              AVSSCS 0.5FX1 DGY/R      CCN000000400000000400FN00000000020220601000000400NNM   20220401114628    1W    00000040000002289000000000032H8    TYTYC   000000000000LK324012
BI00B32H8    @22062KMW      20220513181B32039Y8              AVSSCS 0.5FX1 DGY/R      CCN000000400000000400FN00000000020220601000000400NNM   20220401114628    1W    00000040000002289000000000032H8    TYTYC   000000000000LK424016
BI00B32H8    @22063KMW      20220520181B32039Y8              AVSSCS 0.5FX1 DGY/R      CCN000000400000000400FN00000000020220601000000400NNM   20220401114628    1W    00000040000002289000000000032H8    TYTYC   000000000000LK125014
BI00B32H8    @22062KMW      20220513181B32039Z5              AVSSCS 0.5FX1 DGY/L      CCN000000400000000400FN00000000020220601000000400NNM   20220401114628    1W    00000040000002289000000000032H8    TYTYC   000000000000LK424015
BI00B32H8    @22061KMW      20220506181B32102Y7              AVSSCS 0.5FX2 DGY/Y      CCN000000300000000300FN00000000020220601000000300NNM   20220401114628    1W    00000030000002903000000000032H8    TYTYC   000000000000LK324013
BI00B32H8    @22062KMW      20220513181B32102Y9              AVSSCS 0.5FX2 DGY/P      CCN000000900000000900FN00000000020220601000000900NNM   20220401114628    1W    00000030000002779000000000032H8    TYTYC   000000000000LK424017
BI00B32H8    @22063KMW      20220520181B32102Y9              AVSSCS 0.5FX2 DGY/P      CCN000000600000000600FN00000000020220601000000600NNM   20220401114628    1W    00000030000002779000000000032H8    TYTYC   000000000000LK125015
BI00B32H8    @22061KMW      20220506181B32116Y8              AVSSCS 0.3FX2 DGY/R      CCN000000700000000700FN00000000020220601000000700NNM   20220401114628    1W    00000035000002276000000000032H8    TYTYC   000000000000LK324014
BI00B32H8    @22062KMW      20220513181B32116Y8              AVSSCS 0.3FX2 DGY/R      CCN000000350000000350FN00000000020220601000000350NNM   20220401114628    1W    00000035000002276000000000032H8    TYTYC   000000000000LK424018
BI00B32H8    @22061KMW      20220506181E50004ZZ              AVSSCS-S 0.5FX1 DGY      CCN000001200000001200FN00000000020220601000001200NNM   20220401114628    1W    00000040000001909700000000032H8    TYTYC   000000000000LK324015
BI00B32H8    @22062KMW      20220513181E50004ZZ              AVSSCS-S 0.5FX1 DGY      CCN000001600000001600FN00000000020220601000001600NNM   20220401114628    1W    00000040000001909700000000032H8    TYTYC   000000000000LK424019
BI00B32H8    @22063KMW      20220520181E50004ZZ              AVSSCS-S 0.5FX1 DGY      CCN000001600000001600FN00000000020220601000001600NNM   20220401114628    1W    00000040000001909700000000032H8    TYTYC   000000000000LK125016
BI00B32H8    @22062KMW      20220513181E50010ZZ              AVSSCS-S 0.5FX2 DGY/P    CCN000000300000000300FN00000000020220601000000300NNM   20220401114628    1W    00000030000003096000000000032H8    TYTYC   000000000000LK424020
BI00B32J1    @393214        20220425181E48012ZZ              CAVSAS-S 0.3X1 GY        CCN000003000000003000FN00000000020220401000003000NNE   20220401105931    1W    00000050000001529500000000032J1    UKYEL-BL000000000000KG224001
BI00B32J1    @393214        20220425181E48015ZZ              CAVSAS-S 0.5X1 GY        CCN000002800000002800FN00000000020220401000002800NNE   20220401105931    1W    00000040000001900600000000032J1    UKYEL-BL000000000000KG224002
BI00B32J1    @393214        20220425181E48029ZZ              CAVSAS-S 0.5X4 GY        CCN000001600000001600FN00000000020220401000001600NNE   20220401105931    1W    00000020000003995000000000032J1    UKYEL-BL000000000000KG224005
BI00B32J1    @393214        20220425181E48031ZZ              CAVSAS-S 0.3X2 GY        CCN000003500000003500FN00000000020220401000003500NNE   20220401105931    1W    00000035000002008700000000032J1    UKYEL-BL000000000000KG224007
BI00B32J1    @393214        20220425181E48033ZZ              CAVSAS-S 0.5X3 GY/B      CCN000002600000002600FN00000000020220401000002600NNE   20220401105931    1W    00000020000003795300000000032J1    UKYEL-BL000000000000KG224004
BI00B32J1    @393214        20220425181E48035ZZ              CAVSAS-S 0.5X3 GY        CCN000002000000002000FN00000000020220401000002000NNE   20220401105931    1W    00000020000003795300000000032J1    UKYEL-BL000000000000KG224003
BI00B32J1    @393214        20220425181E48065ZZ              CAVSAS-S 0.5X4 GY/W      CCN000002000000002000FN00000000020220401000002000NNE   20220401105931    1W    00000020000003995000000000032J1    UKYEL-BL000000000000KG224006
