BI00B1200    2399T52319     202204287289-7212-30             HOUSING FEMALE ASS'Y     CCN000008880000000000FY00000000020220501000000000NNMQ0820220401101049    4N0N  0000002400000138840000159341200    YCYC    005500360039
BI00B1200    2399T52319     202204287298-3990-30             HOUSING FEMALE ASS'Y     CCN000006720000000000FY00000000020220501000000000NNMQ0820220401100841    4NON  0000002400000120890000157391200    YCYC    005500360039
BI00B1200    2399T52422     202205057289-7212-30             HOUSING FEMALE ASS'Y     CCN000002880000000000FY00000000020220601000000000NNMQ0820220401101109    4N0N  0000002400000138840000159341200    YCYC    005500360039
BI00B1200    2399T52423     202205127289-7212-30             HOUSING FEMALE ASS'Y     CCN000002640000000000FY00000000020220601000000000NNMQ0820220401101121    4N0N  0000002400000138840000159341200    YCYC    005500360039
BI00B1200    2399T52424     202205197289-7212-30             HOUSING FEMALE ASS'Y     CCN000002640000000000FY00000000020220601000000000NNMQ0820220401101134    4N0N  0000002400000138840000159341200    YCYC    005500360039
BI00B1200    2399T52425     202205267289-7212-30             HOUSING FEMALE ASS'Y     CCN000002640000000000FY00000000020220601000000000NNMQ0820220401101153    4N0N  0000002400000138840000159341200    YCYC    005500360039
BI00B1200    2399T52422     202205057298-3990-30             HOUSING FEMALE ASS'Y     CCN000006960000000000FY00000000020220601000000000NNMQ0820220401100906    4NON  0000002400000120890000157391200    YCYC    005500360039
BI00B1200    2399T52423     202205127298-3990-30             HOUSING FEMALE ASS'Y     CCN000006960000000000FY00000000020220601000000000NNMQ0820220401100928    4NON  0000002400000120890000157391200    YCYC    005500360039
BI00B1200    2399T52424     202205197298-3990-30             HOUSING FEMALE ASS'Y     CCN000006960000000000FY00000000020220601000000000NNMQ0820220401100946    4NON  0000002400000120890000157391200    YCYC    005500360039
BI00B1200    2399T52425     202205267298-3990-30             HOUSING FEMALE ASS'Y     CCN000006720000000000FY00000000020220601000000000NNMQ0820220401101002    4NON  0000002400000120890000157391200    YCYC    005500360039
BI00B1200    #7360T52406    202204217189-2978-30             HOUSING FEMALE           CCN000003000000003000FN00000000020220501000003000NNE   20220401175146    2F0F  0000015000000096690000109691200    YCYC    005400370024
BI00B1200    7360T52407     202204287196-1104-02             TERMINAL                 CCN000022500000022500FN00000000020220501000022500NNE   20220401175146    4P0P  0000225000000044100000072621200    YCYC    006400630015
BI00B1200    7360T52407     202204287327-6809                MULTI FUSE               CCN000000560000000560FN00000000020220501000000560NNE   20220401175146    4N0N  0000005600000084930000106171200    YCYC    005400370024
BI00B1200    7360T52407     202204287388-2978-30             HOUSING MALE ASS'Y       CCN000003360000003360FN00000000020220501000003360NNE   20220401175146    1N0N  0000004800000074200000112201200    YCYC    005500360039
BI00B1200    #7360T52407    202204287172-5627-60             RUBBER STOPPER           CCN000020000000020000FN00000000020220501000020000NNE   20220401175146    2H0H  0000200000000007040000012181200    YCYC    004300270014
BI00B1200    #7360T52407    202204287172-5628-80             DUMMY PLUG               CCN000020000000020000FN00000000020220501000020000NNE   20220401175146    2H0H  0000200000000011060000016201200    YCYC    004300270014
BI00B1200    #7360T52407    202204287172-5629-80             RUBBER STOPPER           CCN000060000000060000FN00000000020220501000060000NNE   20220401175146    2H0H  0000200000000006000000011111200    YCYC    004300270014
BI00B1200    #7360T52407    202204287172-5630-40             RUBBER STOPPER           CCN000060000000060000FN00000000020220501000060000NNE   20220401175146    2H0H  0000200000000004400000009511200    YCYC    004300270014
BI00B1200    #7360T52407    202204287172-5632-10             DUMMY PLUG               CCN000020000000020000FN00000000020220501000020000NNE   20220401175146    2H0H  0000200000000008040000013181200    YCYC    004300270014
BI00B1200    TAPC-220331    202205057196-1103-02             TERMINAL                 CCN000022500000022500FN00000000020220501000022500NNE   20220401175146    4P0P  0000225000000042980000071501200    YCYC    006400630015
BI00B1200    #TAPC-220331   202205057172-5628-80             DUMMY PLUG               CCN000020000000020000FN00000000020220501000020000NNE   20220401175146    2H0H  0000200000000011060000016201200    YCYC    004300270014
BI00B1200    #TAPC-220331   202205057172-5625-90             RUBBER STOPPER           CCN000020000000020000FN00000000020220501000020000NNE   20220401175146    2H0H  0000200000000008240000013381200    YCYC    004300270014
BI00B1200    TAPC-220331-2  202205267196-1326-02             TERMINAL FEMALE          CCN000060000000060000FN00000000020220601000060000NNE   20220401175146    4P0P  0000600000000045600000078471200    YCYC    006400630017
BI00A32AF    JTB204A        202204117289-3342                HOUSING FEMALE ASS'Y     CCN000021600000021600FN00000000020220401000021600NNE   20220401175146    1N0N  00000240000000686400000901432AF    HBYHVTB 005500360039
BI00A32AF    JTB205A        202204257289-3342                HOUSING FEMALE ASS'Y     CCN000036000000036000FN00000000020220501000036000NNE   20220401175146    1N0N  00000240000000686400000901432AF    HBYHVTB 005500360039
BI00B32AF    JTB205B        202204227116-2891-02             TERMINAL                 CCN000015000000015000FN00000000020220501000015000NNE   20220401175146    4P0P  00001500000000982500001145932AF    HBYHVTB 005100280028
BI00B32AF    JTB205B        202204227116-3154-08             TERMINAL                 CCN000054000000054000FN00000000020220501000054000NNE   20220401175146    4P0P  00002700000000475200000760432AF    HBYHVTB 006400630015
BI00B32AF    JTB205B        202204227116-5046-02             TERMINAL                 CCN000012000000012000FN00000000020220501000012000NNE   20220401175146    4P0P  00001200000000544800000873532AF    HBYHVTB 006400630017
BI00B32AF    JTB205B        202204227126-8853-02             TERMINAL                 CCN000007500000007500FN00000000020220501000007500NNE   20220401175146    4P0P  00000750000000562500000847732AF    HBYHVTB 006400630015
BI00B32AF    JTB2064        202206037017-1180-02             TERMINAL                 CCN000216000000216000FN00000000020220601000216000NNM   20220401175146    4P0P  00007200000001065600001229032AF    HBYHVTB 005100280028
BI00B32AF    JTB2063        202205277017-1181-02             TERMINAL                 CCN000063000000063000FN00000000020220601000063000NNM   20220401175146    4P0P  00006300000001089900001266832AF    HBYHVTB 005100280028
BI00B32AF    JTB2064        202206037017-1183-02             TERMINAL                 CCN000027000000027000FN00000000020220601000027000NNM   20220401175146    4P0P  00002700000001139400001307432AF    HBYHVTB 005100280028
BI00B32AF    JTB2062        202205207114-1670-02             TERMINAL                 CCN000024000000024000FN00000000020220601000024000NNM   20220401175146    1P0P  00002400000000357600000645832AF    HBYHVTB 006400630015
BI00B32AF    JTB2064        202206037114-1670-02             TERMINAL                 CCN000024000000024000FN00000000020220601000024000NNM   20220401175146    1P0P  00002400000000357600000645832AF    HBYHVTB 006400630015
BI00B32AF    JTB2063        202205277114-4020                TERMINAL                 CCN000042000000042000FN00000000020220601000042000NNM   20220401175146    4P0P  00002100000000875700001169332AF    HBYHVTB 006400630015
BI00B32AF    JTB2064        202206037114-4020                TERMINAL                 CCN000105000000105000FN00000000020220601000105000NNM   20220401175146    4P0P  00002100000000875700001169332AF    HBYHVTB 006400630015
BI00B32AF    JTB2063        202205277114-4021                TERMINAL                 CCN000015000000015000FN00000000020220601000015000NNM   20220401175146    4P0P  00001500000000670500000964132AF    HBYHVTB 006400630015
BI00B32AF    JTB2064        202206037114-4021                TERMINAL                 CCN000045000000045000FN00000000020220601000045000NNM   20220401175146    4P0P  00001500000000670500000964132AF    HBYHVTB 006400630015
BI00B32AF    JTB2064        202206037114-4031                TERMINAL                 CCN000031500000031500FN00000000020220601000031500NNM   20220401175146    4P0P  00001050000000966000001294632AF    HBYHVTB 006400630017
BI00B32AF    JTB2062        202205207114-4032                TERMINAL                 CCN000007500000007500FN00000000020220601000007500NNM   20220401175146    4P0P  00000750000000735000001063632AF    HBYHVTB 006400630017
BI00B32AF    JTB2063        202205277114-4032                TERMINAL                 CCN000067500000067500FN00000000020220601000067500NNM   20220401175146    4P0P  00000750000000735000001063632AF    HBYHVTB 006400630017
BI00B32AF    JTB2064        202206037114-4032                TERMINAL                 CCN000075000000075000FN00000000020220601000075000NNM   20220401175146    4P0P  00000750000000735000001063632AF    HBYHVTB 006400630017
BI00B32AF    JTB2063        202205277114-4231-02             TERMINAL                 CCN000018000000018000FN00000000020220601000018000NNM   20220401175146    4P0P  00001800000000554400000848032AF    HBYHVTB 006400630015
BI00B32AF    JTB2064        202206037114-4231-02             TERMINAL                 CCN000234000000234000FN00000000020220601000234000NNM   20220401175146    4P0P  00001800000000554400000848032AF    HBYHVTB 006400630015
BI00B32AF    JTB2063        202205277114-4624-02             TERMINAL                 CCN000024000000024000FN00000000020220601000024000NNM   20220401175146    4P0P  00002400000000895200001188832AF    HBYHVTB 006400630015
BI00B32AF    JTB2062        202205207114-4728-02             TERMINAL                 CCN000300000000300000FN00000000020220601000300000NNM   20220401175146    4P0P  00003000000000510000000804232AF    HBYHVTB 006400630015
BI00B32AF    JTB2063        202205277114-4728-02             TERMINAL                 CCN000690000000690000FN00000000020220601000690000NNM   20220401175146    4P0P  00003000000000510000000804232AF    HBYHVTB 006400630015
BI00B32AF    JTB2064        202206037114-4728-02             TERMINAL                 CCN000600000000600000FN00000000020220601000600000NNM   20220401175146    4P0P  00003000000000510000000804232AF    HBYHVTB 006400630015
BI00B32AF    JTB2061        202205137114-4728-08             TERMINAL                 CCN000030000000030000FN00000000020220601000030000NNM   20220401175146    4P0P  00003000000000507000000801232AF    HBYHVTB 006400630015
BI00B32AF    JTB2062        202205207114-4728-08             TERMINAL                 CCN000030000000030000FN00000000020220601000030000NNM   20220401175146    4P0P  00003000000000507000000801232AF    HBYHVTB 006400630015
BI00B32AF    JTB2063        202205277114-4728-08             TERMINAL                 CCN000030000000030000FN00000000020220601000030000NNM   20220401175146    4P0P  00003000000000507000000801232AF    HBYHVTB 006400630015
BI00B32AF    JTB2062        202205207114-4729-02             TERMINAL                 CCN000150000000150000FN00000000020220601000150000NNM   20220401175146    4P0P  00003000000000516000000810232AF    HBYHVTB 006400630015
BI00B32AF    JTB2063        202205277114-4729-02             TERMINAL                 CCN000210000000210000FN00000000020220601000210000NNM   20220401175146    4P0P  00003000000000516000000810232AF    HBYHVTB 006400630015
BI00B32AF    JTB2064        202206037114-4729-02             TERMINAL                 CCN000180000000180000FN00000000020220601000180000NNM   20220401175146    4P0P  00003000000000516000000810232AF    HBYHVTB 006400630015
BI00B32AF    JTB2061        202205137114-5746-02             TERMINAL                 CCN000042000000042000FN00000000020220601000042000NNM   20220401175146    4P0P  00002100000000695100000988732AF    HBYHVTB 006400630015
BI00B32AF    JTB2062        202205207114-5746-02             TERMINAL                 CCN000042000000042000FN00000000020220601000042000NNM   20220401175146    4P0P  00002100000000695100000988732AF    HBYHVTB 006400630015
BI00B32AF    JTB2063        202205277114-5746-02             TERMINAL                 CCN000063000000063000FN00000000020220601000063000NNM   20220401175146    4P0P  00002100000000695100000988732AF    HBYHVTB 006400630015
BI00B32AF    JTB2064        202206037114-5746-02             TERMINAL                 CCN000084000000084000FN00000000020220601000084000NNM   20220401175146    4P0P  00002100000000695100000988732AF    HBYHVTB 006400630015
BI00B32AF    JTB2062        202205207114-5747-02             TERMINAL                 CCN000090000000090000FN00000000020220601000090000NNM   20220401175146    4P0P  00001800000000626400000920032AF    HBYHVTB 006400630015
BI00B32AF    JTB2063        202205277114-5747-02             TERMINAL                 CCN000252000000252000FN00000000020220601000252000NNM   20220401175146    4P0P  00001800000000626400000920032AF    HBYHVTB 006400630015
BI00B32AF    JTB2064        202206037114-5747-02             TERMINAL                 CCN000252000000252000FN00000000020220601000252000NNM   20220401175146    4P0P  00001800000000626400000920032AF    HBYHVTB 006400630015
BI00B32AF    JTB2062        202205207114-5748-02             TERMINAL                 CCN000084000000084000FN00000000020220601000084000NNM   20220401175146    4P0P  00001200000000444000000737632AF    HBYHVTB 006400630015
BI00B32AF    JTB2063        202205277114-5748-02             TERMINAL                 CCN000108000000108000FN00000000020220601000108000NNM   20220401175146    4P0P  00001200000000444000000737632AF    HBYHVTB 006400630015
BI00B32AF    JTB2064        202206037114-5748-02             TERMINAL                 CCN000108000000108000FN00000000020220601000108000NNM   20220401175146    4P0P  00001200000000444000000737632AF    HBYHVTB 006400630015
BI00B32AF    JTB2062        202205207114-5753-02             TERMINAL                 CCN000081000000081000FN00000000020220601000081000NNM   20220401175146    4P0P  00002700000000847800001141432AF    HBYHVTB 006400630015
BI00B32AF    JTB2063        202205277114-5753-02             TERMINAL                 CCN000135000000135000FN00000000020220601000135000NNM   20220401175146    4P0P  00002700000000847800001141432AF    HBYHVTB 006400630015
BI00B32AF    JTB2064        202206037114-5753-02             TERMINAL                 CCN000108000000108000FN00000000020220601000108000NNM   20220401175146    4P0P  00002700000000847800001141432AF    HBYHVTB 006400630015
BI00B32AF    JTB2063        202205277116-1180                TERMINAL                 CCN000019500000019500FN00000000020220601000019500NNM   20220401175146    1P0P  00001950000000618200000903432AF    HBYHVTB 006400630015
BI00B32AF    JTB2061        202205137116-2891-02             TERMINAL                 CCN000030000000030000FN00000000020220601000030000NNM   20220401175146    4P0P  00001500000000982500001145932AF    HBYHVTB 005100280028
BI00B32AF    JTB2062        202205207116-2891-02             TERMINAL                 CCN000015000000015000FN00000000020220601000015000NNM   20220401175146    4P0P  00001500000000982500001145932AF    HBYHVTB 005100280028
BI00B32AF    JTB2063        202205277116-2891-02             TERMINAL                 CCN000015000000015000FN00000000020220601000015000NNM   20220401175146    4P0P  00001500000000982500001145932AF    HBYHVTB 005100280028
BI00B32AF    JTB2061        202205137116-2892-02             TERMINAL                 CCN000012000000012000FN00000000020220601000012000NNM   20220401175146    4P0P  00001200000000818400000981832AF    HBYHVTB 005100280028
BI00B32AF    JTB2061        202205137116-3153-08             TERMINAL                 CCN000027000000027000FN00000000020220601000027000NNM   20220401175146    4P0P  00002700000000461700000746932AF    HBYHVTB 006400630015
BI00B32AF    JTB2062        202205207116-3153-08             TERMINAL                 CCN000054000000054000FN00000000020220601000054000NNM   20220401175146    4P0P  00002700000000461700000746932AF    HBYHVTB 006400630015
BI00B32AF    JTB2063        202205277116-3153-08             TERMINAL                 CCN000027000000027000FN00000000020220601000027000NNM   20220401175146    4P0P  00002700000000461700000746932AF    HBYHVTB 006400630015
BI00B32AF    JTB2064        202206037116-3153-08             TERMINAL                 CCN000027000000027000FN00000000020220601000027000NNM   20220401175146    4P0P  00002700000000461700000746932AF    HBYHVTB 006400630015
BI00B32AF    JTB2061        202205137116-3154-08             TERMINAL                 CCN000027000000027000FN00000000020220601000027000NNM   20220401175146    4P0P  00002700000000475200000760432AF    HBYHVTB 006400630015
BI00B32AF    JTB2062        202205207116-3154-08             TERMINAL                 CCN000027000000027000FN00000000020220601000027000NNM   20220401175146    4P0P  00002700000000475200000760432AF    HBYHVTB 006400630015
BI00B32AF    JTB2063        202205277116-3154-08             TERMINAL                 CCN000027000000027000FN00000000020220601000027000NNM   20220401175146    4P0P  00002700000000475200000760432AF    HBYHVTB 006400630015
BI00B32AF    JTB2064        202206037116-3154-08             TERMINAL                 CCN000027000000027000FN00000000020220601000027000NNM   20220401175146    4P0P  00002700000000475200000760432AF    HBYHVTB 006400630015
BI00B32AF    JTB2062        202205207116-4022                TERMINAL                 CCN000013500000013500FN00000000020220601000013500NNM   20220401175146    4P0P  00001350000000618300000903532AF    HBYHVTB 006400630015
BI00B32AF    JTB2064        202206037116-4025                TERMINAL                 CCN000016000000016000FN00000000020220601000016000NNM   20220401175146    4P0P  00001600000000644800000975132AF    HBYHVTB 006400630017
BI00B32AF    JTB2063        202205277116-4026                TERMINAL                 CCN000016000000016000FN00000000020220601000016000NNM   20220401175146    4P0P  00001600000000664000000994332AF    HBYHVTB 006400630017
BI00B32AF    JTB2063        202205277116-4031                TERMINAL                 CCN000022500000022500FN00000000020220601000022500NNM   20220401175146    4P0P  00000750000000619500000904732AF    HBYHVTB 006400630015
BI00B32AF    JTB2064        202206037116-4031                TERMINAL                 CCN000015000000015000FN00000000020220601000015000NNM   20220401175146    4P0P  00000750000000619500000904732AF    HBYHVTB 006400630015
BI00B32AF    JTB2062        202205207116-4032                TERMINAL                 CCN000012000000012000FN00000000020220601000012000NNM   20220401175146    4P0P  00000600000000532800000818032AF    HBYHVTB 006400630015
BI00B32AF    JTB2063        202205277116-4032                TERMINAL                 CCN000018000000018000FN00000000020220601000018000NNM   20220401175146    4P0P  00000600000000532800000818032AF    HBYHVTB 006400630015
BI00B32AF    JTB2064        202206037116-4032                TERMINAL                 CCN000012000000012000FN00000000020220601000012000NNM   20220401175146    4P0P  00000600000000532800000818032AF    HBYHVTB 006400630015
BI00B32AF    JTB2063        202205277116-4101-02             TERMINAL                 CCN000012000000012000FN00000000020220601000012000NNM   20220401175146    4P0P  00001200000000582000000876232AF    HBYHVTB 006400630015
BI00B32AF    JTB2062        202205207116-4112-02             TERMINAL                 CCN000006000000006000FN00000000020220601000006000NNM   20220401175146    4P0P  00000600000000450000000738232AF    HBYHVTB 006400630015
BI00B32AF    JTB2063        202205277116-4112-02             TERMINAL                 CCN000006000000006000FN00000000020220601000006000NNM   20220401175146    4P0P  00000600000000450000000738232AF    HBYHVTB 006400630015
BI00B32AF    JTB2064        202206037116-4112-02             TERMINAL                 CCN000006000000006000FN00000000020220601000006000NNM   20220401175146    4P0P  00000600000000450000000738232AF    HBYHVTB 006400630015
BI00B32AF    JTB2064        202206037116-4121-02             TERMINAL                 CCN000009000000009000FN00000000020220601000009000NNM   20220401175146    4P0P  00000450000000618800000912432AF    HBYHVTB 006400630015
BI00B32AF    JTB2064        202206037116-4415-02             TERMINAL                 CCN000114000000114000FN00000000020220601000114000NNM   20220401175146    4P0P  00003800000000596600000925732AF    HBYHVTB 006400630017
BI00B32AF    JTB2063        202205277116-4416-02             TERMINAL                 CCN000032000000032000FN00000000020220601000032000NNM   20220401175146    4P0P  00003200000000518400000847132AF    HBYHVTB 006400630017
BI00B32AF    JTB2062        202205207116-4486-02             TERMINAL                 CCN000056000000056000FN00000000020220601000056000NNM   20220401175146    4P0P  00002800000000666400000995132AF    HBYHVTB 006400630017
BI00B32AF    JTB2063        202205277116-4486-02             TERMINAL                 CCN000224000000224000FN00000000020220601000224000NNM   20220401175146    4P0P  00002800000000666400000995132AF    HBYHVTB 006400630017
BI00B32AF    JTB2064        202206037116-4486-02             TERMINAL                 CCN000364000000364000FN00000000020220601000364000NNM   20220401175146    4P0P  00002800000000666400000995132AF    HBYHVTB 006400630017
BI00B32AF    JTB2064        202206037116-5035-02             TERMINAL                 CCN000015000000015000FN00000000020220601000015000NNM   20220401175146    4P0P  00001500000000543000000828232AF    HBYHVTB 006400630015
BI00B32AF    JTB2062        202205207116-5042-02             TERMINAL                 CCN000081000000081000FN00000000020220601000081000NNM   20220401175146    4P0P  00001350000000560300000845532AF    HBYHVTB 006400630015
BI00B32AF    JTB2063        202205277116-5042-02             TERMINAL                 CCN000189000000189000FN00000000020220601000189000NNM   20220401175146    4P0P  00001350000000560300000845532AF    HBYHVTB 006400630015
BI00B32AF    JTB2064        202206037116-5042-02             TERMINAL                 CCN000216000000216000FN00000000020220601000216000NNM   20220401175146    4P0P  00001350000000560300000845532AF    HBYHVTB 006400630015
BI00B32AF    JTB2064        202206037116-5043-02             TERMINAL FEMALE          CCN000120000000120000FN00000000020220601000120000NNM   20220401175146    4P0P  00001200000000559200000844432AF    HBYHVTB 006400630015
BI00B32AF    JTB2062        202205207116-5044-02             TERMINAL                 CCN000080000000080000FN00000000020220601000080000NNM   20220401175146    4P0P  00001600000000641600000986332AF    HBYHVTB 006400630017
BI00B32AF    JTB2063        202205277116-5044-02             TERMINAL                 CCN000096000000096000FN00000000020220601000096000NNM   20220401175146    4P0P  00001600000000641600000986332AF    HBYHVTB 006400630017
BI00B32AF    JTB2064        202206037116-5044-02             TERMINAL                 CCN000080000000080000FN00000000020220601000080000NNM   20220401175146    4P0P  00001600000000641600000986332AF    HBYHVTB 006400630017
BI00B32AF    JTB2062        202205207116-5097-02             TERMINAL                 CCN000022500000022500FN00000000020220601000022500NNM   20220401175146    4P0P  00002250000000531000000816232AF    HBYHVTB 006400630015
BI00B32AF    JTB2063        202205277116-5097-02             TERMINAL                 CCN000022500000022500FN00000000020220601000022500NNM   20220401175146    4P0P  00002250000000531000000816232AF    HBYHVTB 006400630015
BI00B32AF    JTB2064        202206037116-5097-02             TERMINAL                 CCN000022500000022500FN00000000020220601000022500NNM   20220401175146    4P0P  00002250000000531000000816232AF    HBYHVTB 006400630015
BI00B32AF    JTB2062        202205207116-5750-02             TERMINAL                 CCN000375000000375000FN00000000020220601000375000NNM   20220401175146    4P0P  00001500000000457500000742732AF    HBYHVTB 006400630015
BI00B32AF    JTB2063        202205277116-5750-02             TERMINAL                 CCN000375000000375000FN00000000020220601000375000NNM   20220401175146    4P0P  00001500000000457500000742732AF    HBYHVTB 006400630015
BI00B32AF    JTB2064        202206037116-5750-02             TERMINAL                 CCN000390000000390000FN00000000020220601000390000NNM   20220401175146    4P0P  00001500000000457500000742732AF    HBYHVTB 006400630015
BI00B32AF    JTB2061        202205137116-5752-02             TERMINAL                 CCN000042000000042000FN00000000020220601000042000NNM   20220401175146    4P0P  00002100000000571200000856432AF    HBYHVTB 006400630015
BI00B32AF    JTB2062        202205207116-5752-02             TERMINAL                 CCN000168000000168000FN00000000020220601000168000NNM   20220401175146    4P0P  00002100000000571200000856432AF    HBYHVTB 006400630015
BI00B32AF    JTB2063        202205277116-5752-02             TERMINAL                 CCN000147000000147000FN00000000020220601000147000NNM   20220401175146    4P0P  00002100000000571200000856432AF    HBYHVTB 006400630015
BI00B32AF    JTB2064        202206037116-5752-02             TERMINAL                 CCN000168000000168000FN00000000020220601000168000NNM   20220401175146    4P0P  00002100000000571200000856432AF    HBYHVTB 006400630015
BI00B32AF    JTB2064        202206037116-6041                TERMINAL                 CCN000009000000009000FN00000000020220601000009000NNM   20220401175146    4P0P  00000450000000716000001009632AF    HBYHVTB 006400630015
BI00B32AF    JTB2064        202206037126-8855-02             TERMINAL                 CCN000006000000006000FN00000000020220601000006000NNM   20220401175146    4P0P  00000600000000510600000795832AF    HBYHVTB 006400630015
BI00B32AF    JTB2063        202205277158-3006-90             RUBBER STOPPER           CCN000020000000020000FN00000000020220601000020000NNM   20220401175146    1C0C  00002000000000330600000386032AF    HBYHVTB 002700430014
BI00B32AF    JTB2062        202205207158-3009-60             RUBBER STOPPER           CCN000120000000120000FN00000000020220601000120000NNM   20220401175146    1C0C  00002000000000338000000386232AF    HBYHVTB 002700430014
BI00B32AF    JTB2063        202205277158-3009-60             RUBBER STOPPER           CCN000100000000100000FN00000000020220601000100000NNM   20220401175146    1C0C  00002000000000338000000386232AF    HBYHVTB 002700430014
BI00B32AF    JTB2064        202206037158-3009-60             RUBBER STOPPER           CCN000100000000100000FN00000000020220601000100000NNM   20220401175146    1C0C  00002000000000338000000386232AF    HBYHVTB 002700430014
BI00B32AF    JTB2063        202205277158-3070-80             RUBBER STOPPER           CCN000080000000080000FN00000000020220601000080000NNM   20220401175146    1C0C  00004000000000276000000333332AF    HBYHVTB 002700430014
BI00B32AF    JTB2062        202205207158-3166-60             WIRE SEAL                CCN000040000000040000FN00000000020220601000040000NNM   20220401175146    1C0C  00004000000000104000000152432AF    HBYHVTB 002700430014
BI00B32AF    JTB2063        202205277158-3166-60             WIRE SEAL                CCN000040000000040000FN00000000020220601000040000NNM   20220401175146    1C0C  00004000000000104000000152432AF    HBYHVTB 002700430014
BI00B32AF    JTB2064        202206037158-3166-60             WIRE SEAL                CCN000040000000040000FN00000000020220601000040000NNM   20220401175146    1C0C  00004000000000104000000152432AF    HBYHVTB 002700430014
BI00B32AF    JTB2061        202205137158-3169-40             SEALING PLUG             CCN000120000000120000FN00000000020220601000120000NNM   20220401175146    1C0C  00004000000000156000000204132AF    HBYHVTB 004300260014
BI00B32AF    JTB2062        202205207158-3169-40             SEALING PLUG             CCN000120000000120000FN00000000020220601000120000NNM   20220401175146    1C0C  00004000000000156000000204132AF    HBYHVTB 004300260014
BI00B32AF    JTB2063        202205277158-3169-40             SEALING PLUG             CCN000080000000080000FN00000000020220601000080000NNM   20220401175146    1C0C  00004000000000156000000204132AF    HBYHVTB 004300260014
BI00B32AF    JTB2064        202206037158-3169-40             SEALING PLUG             CCN000080000000080000FN00000000020220601000080000NNM   20220401175146    1C0C  00004000000000156000000204132AF    HBYHVTB 004300260014
BI00B32AF    JTB2063        202205277195-1463-02             TERMINAL MALE            CCN000028500000028500FN00000000020220601000028500NNM   20220401175146    4P0P  00002850000000456000000741232AF    HBYHVTB 006400630015
BI00B32AF    JTB2064        202206037195-1463-02             TERMINAL MALE            CCN000028500000028500FN00000000020220601000028500NNM   20220401175146    4P0P  00002850000000456000000741232AF    HBYHVTB 006400630015
BI00B32AF    JTB2063        202205277196-1460-02             TERMINAL FEMALE          CCN000085500000085500FN00000000020220601000085500NNM   20220401175146    4P0P  00002850000000444600000729832AF    HBYHVTB 006400630015
BI00B32AF    JTB2064        202206037196-1460-02             TERMINAL FEMALE          CCN000142500000142500FN00000000020220601000142500NNM   20220401175146    4P0P  00002850000000444600000729832AF    HBYHVTB 006400630015
BI00B32AF    JTB2062        202205207196-1461-02             TERMINAL FEMALE          CCN000048000000048000FN00000000020220601000048000NNM   20220401175146    4P0P  00002400000000386400000671632AF    HBYHVTB 006400630015
BI00B32AF    JTB2063        202205277196-1461-02             TERMINAL FEMALE          CCN000048000000048000FN00000000020220601000048000NNM   20220401175146    4P0P  00002400000000386400000671632AF    HBYHVTB 006400630015
BI00B32AF    JTB2064        202206037196-1461-02             TERMINAL FEMALE          CCN000048000000048000FN00000000020220601000048000NNM   20220401175146    4P0P  00002400000000386400000671632AF    HBYHVTB 006400630015
BI00B32AF    JTB2061        202205137282-1024                HOUSING MALE             CCN000001000000001000FN00000000020220601000001000NNM   20220401175146    1N0N  00000100000000458000000580532AF    HBYHVTB 005400370024
BI00B32AF    JTB2062        202205207282-1024                HOUSING MALE             CCN000001000000001000FN00000000020220601000001000NNM   20220401175146    1N0N  00000100000000458000000580532AF    HBYHVTB 005400370024
BI00B32AF    JTB2061        202205137282-4576                HOUSING MALE ASS'Y       CCN000002400000002400FN00000000020220601000002400NNM   20220401175146    4N0N  00000240000000808800001028832AF    HBYHVTB 005500360039
BI00B32AF    JTB2062        202205207282-4576                HOUSING MALE ASS'Y       CCN000002400000002400FN00000000020220601000002400NNM   20220401175146    4N0N  00000240000000808800001028832AF    HBYHVTB 005500360039
BI00B32AF    JTB2063        202205277282-4576                HOUSING MALE ASS'Y       CCN000002400000002400FN00000000020220601000002400NNM   20220401175146    4N0N  00000240000000808800001028832AF    HBYHVTB 005500360039
BI00B32AF    JTB2062        202205207282-4577-90             HOUSING MALE ASS'Y       CCN000002400000002400FN00000000020220601000002400NNM   20220401175146    4N0N  00000240000000964800001174832AF    HBYHVTB 005500360039
BI00B32AF    JTB2063        202205277282-4577-90             HOUSING MALE ASS'Y       CCN000002400000002400FN00000000020220601000002400NNM   20220401175146    4N0N  00000240000000964800001174832AF    HBYHVTB 005500360039
BI00B32AF    JTB2061        202205137282-4578                HOUSING MALE ASS'Y       CCN000012000000012000FN00000000020220601000012000NNM   20220401175146    4N0N  00000120000000782600000992632AF    HBYHVTB 005500360039
BI00B32AF    JTB2062        202205207282-4578                HOUSING MALE ASS'Y       CCN000009600000009600FN00000000020220601000009600NNM   20220401175146    4N0N  00000120000000782600000992632AF    HBYHVTB 005500360039
BI00B32AF    JTB2063        202205277282-4578                HOUSING MALE ASS'Y       CCN000009600000009600FN00000000020220601000009600NNM   20220401175146    4N0N  00000120000000782600000992632AF    HBYHVTB 005500360039
BI00B32AF    JTB2064        202206037282-4578                HOUSING MALE ASS'Y       CCN000008400000008400FN00000000020220601000008400NNM   20220401175146    4N0N  00000120000000782600000992632AF    HBYHVTB 005500360039
BI00B32AF    JTB2061        202205137282-4854-40             HOUSING MALE ASS'Y       CCN000001200000001200FN00000000020220601000001200NNM   20220401175146    4N0N  00000120000000698900000908832AF    HBYHVTB 005500360039
BI00B32AF    JTB2061        202205137282-9391-30             HOUSING MALE ASS'Y       CCN000002400000002400FN00000000020220601000002400NNM   20220401175146    4N0N  00000120000001017600001237632AF    HBYHVTB 005500360039
BI00B32AF    JTB2062        202205207282-9391-30             HOUSING MALE ASS'Y       CCN000002400000002400FN00000000020220601000002400NNM   20220401175146    4N0N  00000120000001017600001237632AF    HBYHVTB 005500360039
BI00B32AF    JTB2063        202205277282-9391-30             HOUSING MALE ASS'Y       CCN000002400000002400FN00000000020220601000002400NNM   20220401175146    4N0N  00000120000001017600001237632AF    HBYHVTB 005500360039
BI00B32AF    JTB2064        202206037282-9391-30             HOUSING MALE ASS'Y       CCN000001200000001200FN00000000020220601000001200NNM   20220401175146    4N0N  00000120000001017600001237632AF    HBYHVTB 005500360039
BI00B32AF    JTB2062        202205207283-1156                CONNECTOR                CCN000002400000002400FN00000000020220601000002400NNM   20220401175146    4N0N  00000080000000877600001078032AF    HBYHVTB 005600390040
BI00B32AF    JTB2061        202205137283-4576                HOUSING FEMALE ASS'Y     CCN000009600000009600FN00000000020220601000009600NNM   20220401175146    4N0N  00000480000000651300000871332AF    HBYHVTB 005500360039
BI00B32AF    JTB2062        202205207283-4576                HOUSING FEMALE ASS'Y     CCN000019200000019200FN00000000020220601000019200NNM   20220401175146    4N0N  00000480000000651300000871332AF    HBYHVTB 005500360039
BI00B32AF    JTB2063        202205277283-4576                HOUSING FEMALE ASS'Y     CCN000019200000019200FN00000000020220601000019200NNM   20220401175146    4N0N  00000480000000651300000871332AF    HBYHVTB 005500360039
BI00B32AF    JTB2064        202206037283-4576                HOUSING FEMALE ASS'Y     CCN000019200000019200FN00000000020220601000019200NNM   20220401175146    4N0N  00000480000000651300000871332AF    HBYHVTB 005500360039
BI00B32AF    JTB2061        202205137283-4576-30             HOUSING FEMALE ASS'Y     CCN000004800000004800FN00000000020220601000004800NNM   20220401175146    4N0N  00000480000000651300000871332AF    HBYHVTB 005500360039
BI00B32AF    JTB2062        202205207283-4576-30             HOUSING FEMALE ASS'Y     CCN000004800000004800FN00000000020220601000004800NNM   20220401175146    4N0N  00000480000000651300000871332AF    HBYHVTB 005500360039
BI00B32AF    JTB2061        202205137283-4577                CONNECTOR HOUSING        CCN000004800000004800FN00000000020220601000004800NNM   20220401175146    4N0N  00000480000000916800001136832AF    HBYHVTB 005500360039
BI00B32AF    JTB2062        202205207283-4577                CONNECTOR HOUSING        CCN000004800000004800FN00000000020220601000004800NNM   20220401175146    4N0N  00000480000000916800001136832AF    HBYHVTB 005500360039
BI00B32AF    JTB2061        202205137283-4855                CONNECTOR HOUSING        CCN000007200000007200FN00000000020220601000007200NNM   20220401175146    4N0N  00000240000001188400001400032AF    HBYHVTB 005500360039
BI00B32AF    JTB2062        202205207283-4855                CONNECTOR HOUSING        CCN000004800000004800FN00000000020220601000004800NNM   20220401175146    4N0N  00000240000001188400001400032AF    HBYHVTB 005500360039
BI00B32AF    JTB2063        202205277283-4855                CONNECTOR HOUSING        CCN000004800000004800FN00000000020220601000004800NNM   20220401175146    4N0N  00000240000001188400001400032AF    HBYHVTB 005500360039
BI00B32AF    JTB2061        202205137283-5830-30             CONNECTOR                CCN000006000000006000FN00000000020220601000006000NNM   20220401175146    1N0N  00000600000000954000001104032AF    HBYHVTB 005500360039
BI00B32AF    JTB2062        202205207283-5830-30             CONNECTOR                CCN000006000000006000FN00000000020220601000006000NNM   20220401175146    1N0N  00000600000000954000001104032AF    HBYHVTB 005500360039
BI00B32AF    JTB2063        202205277283-5845                CONNECTOR HOUSING        CCN000018000000018000FN00000000020220601000018000NNM   20220401175146    1N0N  00000600000000444000000606332AF    HBYHVTB 005400370024
BI00B32AF    JTB2064        202206037283-5845                CONNECTOR HOUSING        CCN000018000000018000FN00000000020220601000018000NNM   20220401175146    1N0N  00000600000000444000000606332AF    HBYHVTB 005400370024
BI00B32AF    JTB2061        202205137283-5845-30             CONNECTOR HOUSING        CCN000006000000006000FN00000000020220601000006000NNM   20220401175146    1N0N  00000600000000444000000606332AF    HBYHVTB 005400370024
BI00B32AF    JTB2062        202205207283-5845-30             CONNECTOR HOUSING        CCN000006000000006000FN00000000020220601000006000NNM   20220401175146    1N0N  00000600000000444000000606332AF    HBYHVTB 005400370024
BI00B32AF    JTB2063        202205277283-5845-30             CONNECTOR HOUSING        CCN000006000000006000FN00000000020220601000006000NNM   20220401175146    1N0N  00000600000000444000000606332AF    HBYHVTB 005400370024
BI00B32AF    JTB2064        202206037283-5846                HOUSING                  CCN000001500000001500FN00000000020220601000001500NNM   20220401175146    1N0N  00000150000000885000001102032AF    HBYHVTB 005600390040
BI00B32AF    JTB2063        202205277286-1899                HOUSING SUB ASSEMBLY     CCN000003360000003360FN00000000020220601000003360NNM   20220401175146    4N0N  00000033600000814800001010832AF    HBYHVTB 005400370024
BI00B32AF    JTB2064        202206037286-1899                HOUSING SUB ASSEMBLY     CCN000005712000005712FN00000000020220601000005712NNM   20220401175146    4N0N  00000033600000814800001010832AF    HBYHVTB 005400370024
BI00B32AF    JTB2064        202206037286-1900                CONNECTOR HOUSING        CCN000009600000009600FN00000000020220601000009600NNM   20220401175146    4N0N  00000480000001161600001376632AF    HBYHVTB 005500360039
BI00B32AF    JTB2064        202206037286-4097                CONNECTOR MALE ASS'Y     CCN000006400000006400FN00000000020220601000006400NNM   20220401175146    1N0N  00000160000000768000000978032AF    HBYHVTB 005500360039
BI00B32AF    JTB2061        202205137286-4097-90             CONNECTOR MALE ASS'Y     CCN000003200000003200FN00000000020220601000003200NNM   20220401175146    1N0N  00000160000000768000000978032AF    HBYHVTB 005500360039
BI00B32AF    JTB2062        202205207286-4097-90             CONNECTOR MALE ASS'Y     CCN000001600000001600FN00000000020220601000001600NNM   20220401175146    1N0N  00000160000000768000000978032AF    HBYHVTB 005500360039
BI00B32AF    JTB2063        202205277286-4097-90             CONNECTOR MALE ASS'Y     CCN000001600000001600FN00000000020220601000001600NNM   20220401175146    1N0N  00000160000000768000000978032AF    HBYHVTB 005500360039
BI00B32AF    JTB2064        202206037286-4097-90             CONNECTOR MALE ASS'Y     CCN000001600000001600FN00000000020220601000001600NNM   20220401175146    1N0N  00000160000000768000000978032AF    HBYHVTB 005500360039
BI00B32AF    JTB2063        202205277287-1915                CONNECTOR ASS'Y          CCN000009600000009600FN00000000020220601000009600NNM   20220401175146    4N0N  00000240000000666500000923132AF    HBYHVTB 005500360039
BI00B32AF    JTB2064        202206037287-1915                CONNECTOR ASS'Y          CCN000007200000007200FN00000000020220601000007200NNM   20220401175146    4N0N  00000240000000666500000923132AF    HBYHVTB 005500360039
BI00B32AF    JTB2061        202205137287-1915-30             CONNECTOR ASS'Y          CCN000002400000002400FN00000000020220601000002400NNM   20220401175146    4N0N  00000240000000666500000923132AF    HBYHVTB 005500360039
BI00B32AF    JTB2062        202205207287-1915-30             CONNECTOR ASS'Y          CCN000004800000004800FN00000000020220601000004800NNM   20220401175146    4N0N  00000240000000666500000923132AF    HBYHVTB 005500360039
BI00B32AF    JTB2063        202205277287-1915-30             CONNECTOR ASS'Y          CCN000004800000004800FN00000000020220601000004800NNM   20220401175146    4N0N  00000240000000666500000923132AF    HBYHVTB 005500360039
BI00B32AF    JTB2064        202206037287-1915-30             CONNECTOR ASS'Y          CCN000002400000002400FN00000000020220601000002400NNM   20220401175146    4N0N  00000240000000666500000923132AF    HBYHVTB 005500360039
BI00B32AF    JTB2061        202205137287-1915-40             CONNECTOR ASS'Y          CCN000004800000004800FN00000000020220601000004800NNM   20220401175146    4N0N  00000240000000666500000923132AF    HBYHVTB 005500360039
BI00B32AF    JTB2062        202205207287-1915-40             CONNECTOR ASS'Y          CCN000002400000002400FN00000000020220601000002400NNM   20220401175146    4N0N  00000240000000666500000923132AF    HBYHVTB 005500360039
BI00B32AF    JTB2063        202205277287-1915-40             CONNECTOR ASS'Y          CCN000002400000002400FN00000000020220601000002400NNM   20220401175146    4N0N  00000240000000666500000923132AF    HBYHVTB 005500360039
BI00B32AF    JTB2064        202206037287-1915-40             CONNECTOR ASS'Y          CCN000002400000002400FN00000000020220601000002400NNM   20220401175146    4N0N  00000240000000666500000923132AF    HBYHVTB 005500360039
BI00B32AF    JTB2061        202205137287-1917-40             CONNECTOR FEMALE         CCN000002400000002400FN00000000020220601000002400NNM   20220401175146    4N0N  00000240000001060800001312532AF    HBYHVTB 005500360039
BI00B32AF    JTB2062        202205207287-1917-40             CONNECTOR FEMALE         CCN000002400000002400FN00000000020220601000002400NNM   20220401175146    4N0N  00000240000001060800001312532AF    HBYHVTB 005500360039
BI00B32AF    JTB2063        202205277287-1917-40             CONNECTOR FEMALE         CCN000002400000002400FN00000000020220601000002400NNM   20220401175146    4N0N  00000240000001060800001312532AF    HBYHVTB 005500360039
BI00B32AF    JTB2064        202206037287-1917-40             CONNECTOR FEMALE         CCN000002400000002400FN00000000020220601000002400NNM   20220401175146    4N0N  00000240000001060800001312532AF    HBYHVTB 005500360039
BI00B32AF    JTB2061        202205137287-3885                HYBRID FEMALE ASS'Y      CCN000004800000004800FN00000000020220601000004800NNM   20220401175146    1N0N  00000240000001029600001249632AF    HBYHVTB 005500360039
BI00B32AF    JTB2062        202205207287-3885                HYBRID FEMALE ASS'Y      CCN000004800000004800FN00000000020220601000004800NNM   20220401175146    1N0N  00000240000001029600001249632AF    HBYHVTB 005500360039
BI00B32AF    JTB2063        202205277287-3885                HYBRID FEMALE ASS'Y      CCN000004800000004800FN00000000020220601000004800NNM   20220401175146    1N0N  00000240000001029600001249632AF    HBYHVTB 005500360039
BI00B32AF    JTB2064        202206037287-3885                HYBRID FEMALE ASS'Y      CCN000002400000002400FN00000000020220601000002400NNM   20220401175146    1N0N  00000240000001029600001249632AF    HBYHVTB 005500360039
BI00B32AF    JTB2061        202205137287-3885-30             HYBRID FEMALE ASS'Y      CCN000002400000002400FN00000000020220601000002400NNM   20220401175146    1N0N  00000240000001029600001249632AF    HBYHVTB 005500360039
BI00B32AF    JTB2062        202205207287-3885-30             HYBRID FEMALE ASS'Y      CCN000002400000002400FN00000000020220601000002400NNM   20220401175146    1N0N  00000240000001029600001249632AF    HBYHVTB 005500360039
BI00B32AF    JTB2061        202205137287-9234                JOINT CONNECTOR          CCN000009600000009600FN00000000020220601000009600NNM   20220401175146    4N0N  00000960000000893800001184832AF    HBYHVTB 005500360039
BI00B32AF    JTB2061        202205137288-6547                CONNECTOR MALE ASS'Y     CCN000001500000001500FN00000000020220601000001500NNM   20220401175146    4N0N  00000075000001205300001340332AF    HBYHVTB 005400370024
BI00B32AF    JTB2062        202205207288-6547                CONNECTOR MALE ASS'Y     CCN000000750000000750FN00000000020220601000000750NNM   20220401175146    4N0N  00000075000001205300001340332AF    HBYHVTB 005400370024
BI00B32AF    JTB2061        202205137289-3342                HOUSING FEMALE ASS'Y     CCN000014400000014400FN00000000020220601000014400NNM   20220401175146    1N0N  00000240000000686400000901432AF    HBYHVTB 005500360039
BI00B32AF    JTB2062        202205207289-3342                HOUSING FEMALE ASS'Y     CCN000014400000014400FN00000000020220601000014400NNM   20220401175146    1N0N  00000240000000686400000901432AF    HBYHVTB 005500360039
BI00B32AF    JTB2061        202205137289-3342-30             HOUSING FEMALE ASS'Y     CCN000048000000048000FN00000000020220601000048000NNM   20220401175146    1N0N  00000240000000686400000901432AF    HBYHVTB 005500360039
BI00B32AF    JTB2062        202205207289-3342-30             HOUSING FEMALE ASS'Y     CCN000045600000045600FN00000000020220601000045600NNM   20220401175146    1N0N  00000240000000686400000901432AF    HBYHVTB 005500360039
BI00B32AF    JTB2063        202205277289-3342-30             HOUSING FEMALE ASS'Y     CCN000050400000050400FN00000000020220601000050400NNM   20220401175146    1N0N  00000240000000686400000901432AF    HBYHVTB 005500360039
BI00B32AF    JTB2064        202206037289-3342-30             HOUSING FEMALE ASS'Y     CCN000040800000040800FN00000000020220601000040800NNM   20220401175146    1N0N  00000240000000686400000901432AF    HBYHVTB 005500360039
BI00B32AF    JTB2063        202205277289-5011-30             HOUSING FEMALE ASS'Y     CCN000012000000012000FN00000000020220601000012000NNM   20220401175146    4N0N  00000240000001171700001368632AF    HBYHVTB 005500360039
BI00B32AF    JTB2064        202206037289-5011-30             HOUSING FEMALE ASS'Y     CCN000007200000007200FN00000000020220601000007200NNM   20220401175146    4N0N  00000240000001171700001368632AF    HBYHVTB 005500360039
BI00B32AF    JTB2061        202205137289-6547                HOUSING FEMALE ASS'Y     CCN000002400000002400FN00000000020220601000002400NNM   20220401175146    1N0N  00000240000001152000001362032AF    HBYHVTB 005500360039
BI00B32AF    JTB2061        202205137297-2287-30             HOUSING MALE ASS'Y       CCN000001200000001200FN00000000020220601000001200NNM   20220401175146    4N0N  00000120000000473900000590032AF    HBYHVTB 005400370024
BI00B32AF    JTB2063        202205277298-1865-30             HOUSING FEMALE ASS'Y     CCN000016800000016800FN00000000020220601000016800NNM   20220401175146    4N0N  00000240000001003200001204532AF    HBYHVTB 005500360039
BI00B32AF    JTB2064        202206037298-1865-30             HOUSING FEMALE ASS'Y     CCN000072000000072000FN00000000020220601000072000NNM   20220401175146    4N0N  00000240000001003200001204532AF    HBYHVTB 005500360039
BI00B32AF    JTB2061        202205137298-1869-30             HOUSING FEMALE ASS'Y     CCN000002400000002400FN00000000020220601000002400NNM   20220401175146    4N0N  00000120000000737000000939832AF    HBYHVTB 005500360039
BI00B32AF    JTB2062        202205207298-1869-30             HOUSING FEMALE ASS'Y     CCN000001200000001200FN00000000020220601000001200NNM   20220401175146    4N0N  00000120000000737000000939832AF    HBYHVTB 005500360039
BI00B32AF    JTB2063        202205277298-1869-30             HOUSING FEMALE ASS'Y     CCN000002400000002400FN00000000020220601000002400NNM   20220401175146    4N0N  00000120000000737000000939832AF    HBYHVTB 005500360039
BI00B32AF    JTB2063        202205277298-2278-30             HOUSING FEMALE ASS'Y     CCN000004800000004800FN00000000020220601000004800NNM   20220401175146    4N0N  00000240000001091700001295432AF    HBYHVTB 005500360039
BI00B32AF    JTB2064        202206037298-2278-30             HOUSING FEMALE ASS'Y     CCN000002400000002400FN00000000020220601000002400NNM   20220401175146    4N0N  00000240000001091700001295432AF    HBYHVTB 005500360039
BI00B32AF    JTB2063        202205277298-2509-30             HOUSING FEMALE ASS'Y     CCN000002400000002400FN00000000020220601000002400NNM   20220401175146    4N0N  00000120000000857500001062532AF    HBYHVTB 005500360039
BI00B32AF    JTB2064        202206037298-2509-30             HOUSING FEMALE ASS'Y     CCN000001200000001200FN00000000020220601000001200NNM   20220401175146    4N0N  00000120000000857500001062532AF    HBYHVTB 005500360039
BI00B32AF    JTB2062        202205207298-5955                CONNECTOR SUB ASSY       CCN000021600000021600FN00000000020220601000021600NNM   20220401175146    4N0N  00000720000001029600001253032AF    HBYHVTB 005500360039
BI00B32AF    JTB2063        202205277298-5955                CONNECTOR SUB ASSY       CCN000028800000028800FN00000000020220601000028800NNM   20220401175146    4N0N  00000720000001029600001253032AF    HBYHVTB 005500360039
BI00B32AF    JTB2064        202206037298-5955                CONNECTOR SUB ASSY       CCN000021600000021600FN00000000020220601000021600NNM   20220401175146    4N0N  00000720000001029600001253032AF    HBYHVTB 005500360039
BI00B32AF    JTB2063        202205277388-0314                CONNECTOR ASS'Y          CCN000004800000004800FN00000000020220601000004800NNM   20220401175146    4N0N  00000120000001038000001132332AF    HBYHVTB 005400370024
BI00B32AF    JTB2064        202206037388-0314                CONNECTOR ASS'Y          CCN000006000000006000FN00000000020220601000006000NNM   20220401175146    4N0N  00000120000001038000001132332AF    HBYHVTB 005400370024
BI00B32AF    JTB2063        202205277388-0317-60             CONNECTOR ASS'Y          CCN000004800000004800FN00000000020220601000004800NNM   20220401175146    4N0N  00000120000001034400001129332AF    HBYHVTB 005400370024
BI00B32AF    JTB2064        202206037388-0317-60             CONNECTOR ASS'Y          CCN000004800000004800FN00000000020220601000004800NNM   20220401175146    4N0N  00000120000001034400001129332AF    HBYHVTB 005400370024
BI00B32AF    #JTB2063       202205277047-5654-30             CLIP                     CCN000010000000010000FN00000000020220601000010000NNM   20220401175146    2F0F  00000500000000657000000825332AF    HBYHVTB 005500360039
BI00B32AF    #JTB2064       202206037047-5654-30             CLIP                     CCN000010000000010000FN00000000020220601000010000NNM   20220401175146    2F0F  00000500000000657000000825332AF    HBYHVTB 005500360039
BI00B32AF    #JTB2062       202205207123-6347                CONNECTOR HOUSING        CCN000006400000006400FN00000000020220601000006400NNM   20220401175146    2F0F  00000160000000647000000904832AF    HBYHVTB 005500360039
BI00B32AF    #JTB2063       202205277123-6347                CONNECTOR HOUSING        CCN000008000000008000FN00000000020220601000008000NNM   20220401175146    2F0F  00000160000000647000000904832AF    HBYHVTB 005500360039
BI00B32AF    #JTB2064       202206037123-6347                CONNECTOR HOUSING        CCN000008000000008000FN00000000020220601000008000NNM   20220401175146    2F0F  00000160000000647000000904832AF    HBYHVTB 005500360039
BI00B32AF    #JTB2063       202205277123-6423-30             CONNECTOR                CCN000004000000004000FN00000000020220601000004000NNM   20220401175146    2F0F  00000200000001002000001167632AF    HBYHVTB 005600390023
BI00B32AF    #JTB2064       202206037123-6423-30             CONNECTOR                CCN000004000000004000FN00000000020220601000004000NNM   20220401175146    2F0F  00000200000001002000001167632AF    HBYHVTB 005600390023
BI00B32AF    #JTB2062       202205207157-3992-90             CONNECTOR SEALED         CCN000040000000040000FN00000000020220601000040000NNM   20220401175146    2C0C  00004000000000300000000363332AF    HBYHVTB 002700430014
BI00B32AF    #JTB2061       202205137158-3007-10             RUBBER STOPPER           CCN000020000000020000FN00000000020220601000020000NNM   20220401175146    2H0H  00002000000000308000000362732AF    HBYHVTB 002700430014
BI00B32AF    #JTB2061       202205137158-3008-80             RUBBER STOPPER           CCN000020000000020000FN00000000020220601000020000NNM   20220401175146    2C0C  00002000000000288000000343032AF    HBYHVTB 004300270014
BI00B32AF    #JTB2062       202205207158-3008-80             RUBBER STOPPER           CCN000020000000020000FN00000000020220601000020000NNM   20220401175146    2C0C  00002000000000288000000343032AF    HBYHVTB 004300270014
BI00B32AF    #JTB2062       202205207158-3120-90             CONNECTOR WIRE SEAL      CCN000080000000080000FN00000000020220601000080000NNM   20220401175146    2C0C  00002000000000136000000194032AF    HBYHVTB 002700430014
BI00B32AF    #JTB2063       202205277158-3120-90             CONNECTOR WIRE SEAL      CCN000100000000100000FN00000000020220601000100000NNM   20220401175146    2C0C  00002000000000136000000194032AF    HBYHVTB 002700430014
BI00B32AF    #JTB2064       202206037158-3120-90             CONNECTOR WIRE SEAL      CCN000100000000100000FN00000000020220601000100000NNM   20220401175146    2C0C  00002000000000136000000194032AF    HBYHVTB 002700430014
BI00B32AF    #JTB2063       202205277158-3121-80             WIRE SEAL                CCN000040000000040000FN00000000020220601000040000NNM   20220401175146    2C0C  00002000000000118000000187332AF    HBYHVTB 002700430014
BI00B32AF    #JTB2064       202206037158-3121-80             WIRE SEAL                CCN000020000000020000FN00000000020220601000020000NNM   20220401175146    2C0C  00002000000000118000000187332AF    HBYHVTB 002700430014
BI00B32AF    #JTB2062       202205207183-1616-30             CONNECTOR HOUSING        CCN000002400000002400FN00000000020220601000002400NNM   20220401175146    2F0F  00000240000000557500000837132AF    HBYHVTB 005500360039
BI00B32AF    #JTB2063       202205277183-1616-30             CONNECTOR HOUSING        CCN000002400000002400FN00000000020220601000002400NNM   20220401175146    2F0F  00000240000000557500000837132AF    HBYHVTB 005500360039
BI00B32AF    #JTB2064       202206037183-1616-30             CONNECTOR HOUSING        CCN000002400000002400FN00000000020220601000002400NNM   20220401175146    2F0F  00000240000000557500000837132AF    HBYHVTB 005500360039
BI00B32AF    #JTB2061       202205137183-2413                CONNECTOR HOUSING        CCN000019200000019200FN00000000020220601000019200NNM   20220401175146    2F0F  00000480000000478100000760032AF    HBYHVTB 005500360039
BI00B32AF    #JTB2062       202205207183-2413                CONNECTOR HOUSING        CCN000019200000019200FN00000000020220601000019200NNM   20220401175146    2F0F  00000480000000478100000760032AF    HBYHVTB 005500360039
BI00B32AF    #JTB2063       202205277183-2413                CONNECTOR HOUSING        CCN000019200000019200FN00000000020220601000019200NNM   20220401175146    2F0F  00000480000000478100000760032AF    HBYHVTB 005500360039
BI00B32AF    #JTB2064       202206037183-2413                CONNECTOR HOUSING        CCN000024000000024000FN00000000020220601000024000NNM   20220401175146    2F0F  00000480000000478100000760032AF    HBYHVTB 005500360039
BI00B32AF    #JTB2061       202205137183-2413-30             CONNECTOR HOUSING        CCN000004800000004800FN00000000020220601000004800NNM   20220401175146    2F0F  00000480000000477600000759532AF    HBYHVTB 005500360039
BI00B32AF    #JTB2062       202205207183-2413-30             CONNECTOR HOUSING        CCN000004800000004800FN00000000020220601000004800NNM   20220401175146    2F0F  00000480000000477600000759532AF    HBYHVTB 005500360039
BI00B32AF    #JTB2063       202205277183-2413-30             CONNECTOR HOUSING        CCN000004800000004800FN00000000020220601000004800NNM   20220401175146    2F0F  00000480000000477600000759532AF    HBYHVTB 005500360039
BI00B32AF    #JTB2062       202205207183-2414                CONNECTOR HOUSING        CCN000004800000004800FN00000000020220601000004800NNM   20220401175146    2F0F  00000480000000779200001061032AF    HBYHVTB 005500360039
BI00B32AF    #JTB2063       202205277183-2414                CONNECTOR HOUSING        CCN000004800000004800FN00000000020220601000004800NNM   20220401175146    2F0F  00000480000000779200001061032AF    HBYHVTB 005500360039
BI00B32AF    #JTB2064       202206037183-2414                CONNECTOR HOUSING        CCN000004800000004800FN00000000020220601000004800NNM   20220401175146    2F0F  00000480000000779200001061032AF    HBYHVTB 005500360039
BI00B32AF    #JTB2064       202206037183-2415                CONNECTOR HOUSING        CCN000009600000009600FN00000000020220601000009600NNM   20220401175146    2F0F  00000480000000798200001091432AF    HBYHVTB 005500360039
BI00B32AF    #JTB2064       202206037183-2418                CONNECTOR HOUSING        CCN000009600000009600FN00000000020220601000009600NNM   20220401175146    2F0F  00000480000000917000001477032AF    HBYHVTB 005500360039
BI00B32AF    #JTB2064       202206037186-8851                HOUSING MALE             CCN000004000000004000FN00000000020220601000004000NNM   20220401175146    2F0F  00000100000000782200000906232AF    HBYHVTB 005400370024
BI00B32AF    #JTB2061       202205137187-1616                HOUSING FEMALE           CCN000004000000004000FN00000000020220601000004000NNM   20220401175146    2F0F  00000400000001152000001262032AF    HBYHVTB 005500360039
BI00B32AF    #JTB2062       202205207187-1616                HOUSING FEMALE           CCN000004000000004000FN00000000020220601000004000NNM   20220401175146    2F0F  00000400000001152000001262032AF    HBYHVTB 005500360039
BI00B32AF    #JTB2063       202205277187-1616                HOUSING FEMALE           CCN000004000000004000FN00000000020220601000004000NNM   20220401175146    2F0F  00000400000001152000001262032AF    HBYHVTB 005500360039
BI00B32AF    #JTB2064       202206037187-1616                HOUSING FEMALE           CCN000004000000004000FN00000000020220601000004000NNM   20220401175146    2F0F  00000400000001152000001262032AF    HBYHVTB 005500360039
BI00B32AF    #JTB2061       202205137189-3297                HOUSING FEMALE           CCN000006000000008000FN00000000020220601000008000NNM   20220401175146    2F0F  00000400000000893200001029032AF    HBYHVTB 005400370024
BI00B32AF    #JTB2062       202205207189-3297                HOUSING FEMALE           CCN000003000000004000FN00000000020220601000004000NNM   20220401175146    2F0F  00000400000000893200001029032AF    HBYHVTB 005400370024
BI00B32AF    #JTB2063       202205277189-3297                HOUSING FEMALE           CCN000003000000004000FN00000000020220601000004000NNM   20220401175146    2F0F  00000400000000893200001029032AF    HBYHVTB 005400370024
BI00B32AF    #JTB2064       202206037189-3297                HOUSING FEMALE           CCN000003000000004000FN00000000020220601000004000NNM   20220401175146    2F0F  00000400000000893200001029032AF    HBYHVTB 005400370024
BI00B32AF    #JTB2061       202205137282-5528-70             HOUSING MALE ASS'Y       CCN000010000000010000FN00000000020220601000010000NNM   20220401175146    2N0N  00000100000000230000000339032AF    HBYHVTB 005400370024
BI00B32AF    #JTB2062       202205207282-5528-70             HOUSING MALE ASS'Y       CCN000011000000011000FN00000000020220601000011000NNM   20220401175146    2N0N  00000100000000230000000339032AF    HBYHVTB 005400370024
BI00B32AF    #JTB2063       202205277282-5528-70             HOUSING MALE ASS'Y       CCN000010000000010000FN00000000020220601000010000NNM   20220401175146    2N0N  00000100000000230000000339032AF    HBYHVTB 005400370024
BI00B32AF    #JTB2064       202206037282-5528-70             HOUSING MALE ASS'Y       CCN000010000000010000FN00000000020220601000010000NNM   20220401175146    2N0N  00000100000000230000000339032AF    HBYHVTB 005400370024
BI00B32AF    #JTB2062       202205207283-8123                CONNECTOR HOUSING        CCN000004000000004000FN00000000020220601000004000NNM   20220401175146    2N0N  00000400000000380000000531732AF    HBYHVTB 005600390023
BI00B32AF    #JTB2061       202205137286-7860-70             HOUSING MALE ASS'Y       CCN000003600000004000FN00000000020220601000004000NNM   20220401175146    2N0N  00000080000000951700001139832AF    HBYHVTB 005400370024
BI00B32AF    #JTB2062       202205207286-7860-70             HOUSING MALE ASS'Y       CCN000002400000002400FN00000000020220601000002400NNM   20220401175146    2N0N  00000080000000951700001139832AF    HBYHVTB 005400370024
BI00B32AF    #JTB2063       202205277286-7860-70             HOUSING MALE ASS'Y       CCN000002400000002400FN00000000020220601000002400NNM   20220401175146    2N0N  00000080000000951700001139832AF    HBYHVTB 005400370024
BI00B32AF    #JTB2064       202206037286-7860-70             HOUSING MALE ASS'Y       CCN000002400000002400FN00000000020220601000002400NNM   20220401175146    2N0N  00000080000000951700001139832AF    HBYHVTB 005400370024
BI00B32AF    #JTB2061       202205137287-1669                HOUSING FEMALE ASS'Y     CCN000006000000006000FN00000000020220601000006000NNM   20220401175146    2N0N  00000200000000788800000980832AF    HBYHVTB 005400370024
BI00B32AF    #JTB2062       202205207287-1669                HOUSING FEMALE ASS'Y     CCN000010000000010000FN00000000020220601000010000NNM   20220401175146    2N0N  00000200000000788800000980832AF    HBYHVTB 005400370024
BI00B32AF    #JTB2063       202205277287-1669                HOUSING FEMALE ASS'Y     CCN000012000000012000FN00000000020220601000012000NNM   20220401175146    2N0N  00000200000000788800000980832AF    HBYHVTB 005400370024
BI00B32AF    #JTB2064       202206037287-1669                HOUSING FEMALE ASS'Y     CCN000008000000008000FN00000000020220601000008000NNM   20220401175146    2N0N  00000200000000788800000980832AF    HBYHVTB 005400370024
BI00B32AF    #JTB2062       202205207287-1670                HOUSING FEMALE ASS'Y     CCN000011200000011200FN00000000020220601000011200NNM   20220401175146    2N0N  00000280000000953100001145132AF    HBYHVTB 005400370024
BI00B32AF    #JTB2063       202205277287-1670                HOUSING FEMALE ASS'Y     CCN000014000000014000FN00000000020220601000014000NNM   20220401175146    2N0N  00000280000000953100001145132AF    HBYHVTB 005400370024
BI00B32AF    #JTB2064       202206037287-1670                HOUSING FEMALE ASS'Y     CCN000011200000011200FN00000000020220601000011200NNM   20220401175146    2N0N  00000280000000953100001145132AF    HBYHVTB 005400370024
BI00B32AF    #JTB2061       202205137287-1671                HOUSING FEMALE ASS'Y     CCN000006000000006000FN00000000020220601000006000NNM   20220401175146    2N0N  00000200000000782600000974632AF    HBYHVTB 005400370024
BI00B32AF    #JTB2062       202205207287-1671                HOUSING FEMALE ASS'Y     CCN000008000000008000FN00000000020220601000008000NNM   20220401175146    2N0N  00000200000000782600000974632AF    HBYHVTB 005400370024
BI00B32AF    #JTB2063       202205277287-1671                HOUSING FEMALE ASS'Y     CCN000012000000012000FN00000000020220601000012000NNM   20220401175146    2N0N  00000200000000782600000974632AF    HBYHVTB 005400370024
BI00B32AF    #JTB2064       202206037287-1671                HOUSING FEMALE ASS'Y     CCN000010000000010000FN00000000020220601000010000NNM   20220401175146    2N0N  00000200000000782600000974632AF    HBYHVTB 005400370024
BI00B32AF    #JTB2061       202205137287-1674                HYBRID FEMALE ASS'Y      CCN000006000000006000FN00000000020220601000006000NNM   20220401175146    2N0N  00000200000000810800001002832AF    HBYHVTB 005400370024
BI00B32AF    #JTB2062       202205207287-1674                HYBRID FEMALE ASS'Y      CCN000008000000008000FN00000000020220601000008000NNM   20220401175146    2N0N  00000200000000810800001002832AF    HBYHVTB 005400370024
BI00B32AF    #JTB2063       202205277287-1674                HYBRID FEMALE ASS'Y      CCN000012000000012000FN00000000020220601000012000NNM   20220401175146    2N0N  00000200000000810800001002832AF    HBYHVTB 005400370024
BI00B32AF    #JTB2064       202206037287-1674                HYBRID FEMALE ASS'Y      CCN000010000000010000FN00000000020220601000010000NNM   20220401175146    2N0N  00000200000000810800001002832AF    HBYHVTB 005400370024
BI00B32AF    #JTB2062       202205207287-7022                CONNECTOR FEMALE         CCN000001200000001200FN00000000020220601000001200NNM   20220401175146    2NON  00000120000000742800000853032AF    HBYHVTB 005400370024
BI00B32AF    #JTB2063       202205277287-7022                CONNECTOR FEMALE         CCN000002400000002400FN00000000020220601000002400NNM   20220401175146    2NON  00000120000000742800000853032AF    HBYHVTB 005400370024
BI00B32AF    #JTB2061       202205137297-1911-30             HOUSING MALE ASS'Y       CCN000001000000001000FN00000000020220601000001000NNM   20220401175146    2N0N  00000100000000486900000600132AF    HBYHVTB 005400370024
BI00T32AF    @JTB2061- I    202206097183-2510                HOUSING                  CCN000018000000018000FN00000000020220601000018000NNM   20220401175146    3F0F  00000300000001063500001159032AF    HBYHVTB 005400370024
BI00T32AF    @JTB2061- I    202206097183-3190                JOINT CONNECTOR          CCN000079200000079200FN00000000020220601000079200NNM   20220401175146    3F0F  00000360000000457600000667832AF    HBYHVTB 005500360039
BI00T32AF    @JTB2061- I    202206097183-7770-40             HOUSING                  CCN000012000000012000FN00000000020220601000012000NNM   20220401175146    3F0F  00000600000001011000001161032AF    HBYHVTB 005400370024
BI00T32AF    @JTB2061- I    202206097283-1556                CONNECTOR ASS'Y          CCN000028800000028800FN00000000020220601000028800NNM   20220401175146    3N0N  00000240000000755000001014032AF    HBYHVTB 005500360039
BI00T32AF    @JTB2061- I    202206097283-5972                CONNECTOR FEMALE         CCN000004800000004800FN00000000020220601000004800NNM   20220401175146    3N0N  00000480000000550100000763032AF    HBYHVTB 005500360039
BI00T32AF    @JTB2061- I    202206097283-5976                CONNECTOR ASS'Y          CCN000009600000009600FN00000000020220601000009600NNM   20220401175146    3N0N  00000480000000840000001083632AF    HBYHVTB 005500360039
BI00T32AF    @JTB2061- I    202206097283-8179                CONNECTOR HOUSING        CCN000002400000002400FN00000000020220601000002400NNM   20220401175146    3N0N  00000240000000549600000804032AF    HBYHVTB 005500360039
BI00T32AF    @JTB2061- I    202206097287-6634                HOUSING FEMALE ASS'Y     CCN000009600000009600FN00000000020220601000009600NNM   20220401175146    3N0N  00000240000001088400001337032AF    HBYHVTB 005500360039
BI00B32AG    XG2206ACMW     202205137327-6908                MAIN FUSE                CCN000000600000000600FN00000000020220601000000600NNE   20220401175146    4N0N  00000060000000730400000915432AG    XGXGY   005400370024
BI00B32AG    XG2206ALMW     202205067172-1372-10             FRONT HOLDER             CCN000003900000003900FN00000000020220601000003900NNE   20220401175146    4F0F  00000390000000655200000955232AG    XGXGY   005500360039
BI00B32AG    XG2206ALMW     202205067289-4696-30             HOUSING FEMALE ASS'Y     CCN000016000000016000FN00000000020220601000016000NNE   20220401175146    4N0N  00000200000000913400001055432AG    XGXGY   005400370024
BI00B32AG    XG2206ALMW     202205067289-7615-30             HOUSING FEMALE ASS'Y     CCN000004480000004480FN00000000020220601000004480NNE   20220401175146    4N0N  00000032000000738000000948032AG    XGXGY   005400370024
BI00B32AG    XG2206ALMW     202205067388-0314                CONNECTOR ASS'Y          CCN000001200000001200FN00000000020220601000001200NNE   20220401175146    4N0N  00000120000001038000001132332AG    XGXGY   005400370024
BI00B32AG    #XG2206ALMW    202205067158-3120-90             CONNECTOR WIRE SEAL      CCN000040000000040000FN00000000020220601000040000NNE   20220401175146    2C0C  00002000000000136000000194032AG    XGXGY   002700430014
BI00B32AG    #XG2206ALMW    202205067158-3121-80             WIRE SEAL                CCN000040000000040000FN00000000020220601000040000NNE   20220401175146    2C0C  00002000000000118000000187332AG    XGXGY   002700430014
BI00B32AG    XG2206ANMW     202205067116-4122-02             TERMINAL                 CCN000004500000004500FN00000000020220601000004500NNE   20220401175146    4P0P  00000450000000656600000950232AG    XGXGY   006400630015
BI00B32AG    XG2206ANMW     202205067126-8854-02             TERMINAL                 CCN000007500000007500FN00000000020220601000007500NNE   20220401175146    4P0P  00000750000000604500000889732AG    XGXGY   006400630015
BI00B32AG    XG2206ANMW     202205067158-3168-80             SEALED                   CCN000060000000060000FN00000000020220601000060000NNE   20220401175146    1C0C  00002000000000044000000092132AG    XGXGY   004300260014
BI00B32AG    #XG2206ANMW    202205067123-6423-30             CONNECTOR                CCN000004000000004000FN00000000020220601000004000NNE   20220401175146    2F0F  00000200000001002000001167632AG    XGXGY   005600390023
BI00B32AG    XG2206AQMW     202205067158-3022-80             RUBBER STOPPER           CCN000005000000005000FN00000000020220601000005000NNE   20220401175146    1C0C  00000500000000467500000524032AG    XGXGY   002700430014
BI00B32AG    #XG2206BLMW    202205137182-9631-40             JOINT CONNECTOR          CCN000006000000006000FN00000000020220601000006000NNE   20220401175146    2F0F  00000300000001182000001307432AG    XGXGY   005400370024
BI00B32AG    XG22074CMW     202206247C89-6868-30             SEALED ASSY FEMALE       CCN000010080000010080FN00000000020220701000010080NNM   20220401175146    4N0N  00000252000000839200001119232AG    XGXGY   005500360039
BI00B32AG    XG22074CMW     202206247116-1685-02             TERMINAL                 CCN000024000000024000FN00000000020220701000024000NNM   20220401175146    4P0P  00002400000000897600001065232AG    XGXGY   005100280028
BI00B32AG    XG22074CMW     202206247116-4032                TERMINAL                 CCN000012000000012000FN00000000020220701000012000NNM   20220401175146    4P0P  00000600000000532800000818032AG    XGXGY   006400630015
BI00B32AG    XG22074CMW     202206247116-6041                TERMINAL                 CCN000036000000036000FN00000000020220701000036000NNM   20220401175146    4P0P  00000450000000716000001009632AG    XGXGY   006400630015
BI00B32AG    XG22074CMW     202206247158-3070-80             RUBBER STOPPER           CCN000040000000040000FN00000000020220701000040000NNM   20220401175146    1C0C  00004000000000276000000333332AG    XGXGY   002700430014
BI00B32AG    XG22074CMW     202206247172-5540-80             SEALED WIRE SEAL         CCN000020000000020000FN00000000020220701000020000NNM   20220401175146    1C0C  00002000000000186000000234432AG    XGXGY   004300270014
BI00B32AG    XG22074CMW     202206247298-3822-70             HOUSING FEMALE ASS'Y     CCN000010080000010080FN00000000020220701000010080NNM   20220401175146    4N0N  00000252000000776200001077032AG    XGXGY   005500360039
BI00B32AG    XG22074CMW     202206247327-6832-60             MAIN FUSE                CCN000001200000001200FN00000000020220701000001200NNM   20220401175146    4N0N  00000060000000729200000930732AG    XGXGY   005400370024
BI00B32AG    XG22071CMW     202206037327-6908                MAIN FUSE                CCN000000600000000600FN00000000020220701000000600NNM   20220401175146    4N0N  00000060000000730400000915432AG    XGXGY   005400370024
BI00B32AG    XG22072CMW     202206107327-6908                MAIN FUSE                CCN000000600000000600FN00000000020220701000000600NNM   20220401175146    4N0N  00000060000000730400000915432AG    XGXGY   005400370024
BI00B32AG    XG22074CMW     202206247327-6908                MAIN FUSE                CCN000001200000001200FN00000000020220701000001200NNM   20220401175146    4N0N  00000060000000730400000915432AG    XGXGY   005400370024
BI00B32AG    XG22074CMW     202206247388-0316-80             CONNECTOR ASS'Y          CCN000001200000001200FN00000000020220701000001200NNM   20220401175146    4N0N  00000120000001002500001132532AG    XGXGY   005400370024
BI00B32AG    #XG22074CMW    202206247198-1371-60             HOUSING FEMALE           CCN000004000000004000FN00000000020220701000004000NNM   20220401175146    2F0F  00000200000000597800000721232AG    XGXGY   005400370024
BI00B32AG    #XG22074CMW    202206247198-1372                HOUSING FEMALE           CCN000004000000004000FN00000000020220701000004000NNM   20220401175146    2F0F  00000200000000857200000982232AG    XGXGY   005400370024
BI00B32AG    #XG22074CMW    202206247198-1373-60             HOUSING FEMALE           CCN000004000000004000FN00000000020220701000004000NNM   20220401175146    2F0F  00000200000000819400000947432AG    XGXGY   005400370024
BI00B32AG    #XG22074CMW    202206247198-2458                HOUSING FEMALE           CCN000005280000005280FN00000000020220701000005280NNM   20220401175146    2F0F  00000176000000869100001160532AG    XGXGY   005400370024
BI00B32AG    #XG22074CMW    202206247298-2459-60             LIF FEMALE ASSEMBLY      CCN000004200000004200FN00000000020220701000004200NNM   20220401175146    2N0N  00000016800000534000000729632AG    XGXGY   005400370024
BI00B32AG    XG22073GMW     202206177327-6840-3W             BATTERY FUSE             CCN000000144000000144FN00000000020220701000000144NNM   20220401175146    4N0N  00000007200001140900001355932AG    XGXGY   005500360039
BI00B32AG    XG22074GMW     202206247327-6840-3W             BATTERY FUSE             CCN000000216000000216FN00000000020220701000000216NNM   20220401175146    4N0N  00000007200001140900001355932AG    XGXGY   005500360039
BI00B32AG    #XG22071GMW    202206037282-1140-90             HOUSING MALE ASS'Y       CCN000001500000001500FN00000000020220701000001500NNM   20220401175146    2N0N  00000050000000467500000590032AG    XGXGY   005400370024
BI00B32AG    #XG22072GMW    202206107282-1140-90             HOUSING MALE ASS'Y       CCN000000500000000500FN00000000020220701000000500NNM   20220401175146    2N0N  00000050000000467500000590032AG    XGXGY   005400370024
BI00B32AG    #XG22073GMW    202206177282-1140-90             HOUSING MALE ASS'Y       CCN000001000000001000FN00000000020220701000001000NNM   20220401175146    2N0N  00000050000000467500000590032AG    XGXGY   005400370024
BI00B32AG    #XG22073HMW    202206177158-3005-80             RUBBER STOPPER           CCN000020000000020000FN00000000020220701000020000NNM   20220401175146    2H0H  00002000000000210000000268732AG    XGXGY   002700430014
BI00B32AG    XG22071IMW     202206037388-0317-60             CONNECTOR ASS'Y          CCN000002400000002400FN00000000020220701000002400NNM   20220401175146    4N0N  00000120000001034400001129332AG    XGXGY   005400370024
BI00B32AG    #XG22071IMW    202206037189-3031-30             HOUSING FEMALE           CCN000002400000002400FN00000000020220701000002400NNM   20220401175146    2F0F  00000240000000928800001365832AG    XGXGY   005500360039
BI00B32AG    XG22073KMW     202206177196-0104-02             TERMINAL                 CCN000038000000038000FN00000000020220701000038000NNM   20220401175146    4P0P  00003800000000570000000956432AG    XGXGY   006400630017
BI00B32AG    XG22072KMW     202206107327-6469-3W             BATTERY FUSE             CCN000000096000000096FN00000000020220701000000096NNM   20220401175146    4N0N  00000009600000832300001012332AG    XGXGY   005400370024
BI00B32AG    XG22073KMW     202206177327-6469-3W             BATTERY FUSE             CCN000000288000000288FN00000000020220701000000288NNM   20220401175146    4N0N  00000009600000832300001012332AG    XGXGY   005400370024
BI00B32AG    XG22074KMW     202206247327-6469-3W             BATTERY FUSE             CCN000000288000000288FN00000000020220701000000288NNM   20220401175146    4N0N  00000009600000832300001012332AG    XGXGY   005400370024
BI00B32AG    XG22071LMW     202206037017-1183-02             TERMINAL                 CCN000054000000054000FN00000000020220701000054000NNM   20220401175146    4P0P  00002700000001139400001307432AG    XGXGY   005100280028
BI00B32AG    XG22072LMW     202206107017-1183-02             TERMINAL                 CCN000027000000027000FN00000000020220701000027000NNM   20220401175146    4P0P  00002700000001139400001307432AG    XGXGY   005100280028
BI00B32AG    XG22073LMW     202206177017-1183-02             TERMINAL                 CCN000027000000027000FN00000000020220701000027000NNM   20220401175146    4P0P  00002700000001139400001307432AG    XGXGY   005100280028
BI00B32AG    XG22074LMW     202206247017-1183-02             TERMINAL                 CCN000027000000027000FN00000000020220701000027000NNM   20220401175146    4P0P  00002700000001139400001307432AG    XGXGY   005100280028
BI00B32AG    XG22071LMW     202206037116-4025                TERMINAL                 CCN000112000000112000FN00000000020220701000112000NNM   20220401175146    4P0P  00001600000000644800000975132AG    XGXGY   006400630017
BI00B32AG    XG22072LMW     202206107116-4025                TERMINAL                 CCN000064000000064000FN00000000020220701000064000NNM   20220401175146    4P0P  00001600000000644800000975132AG    XGXGY   006400630017
BI00B32AG    XG22073LMW     202206177116-4025                TERMINAL                 CCN000064000000064000FN00000000020220701000064000NNM   20220401175146    4P0P  00001600000000644800000975132AG    XGXGY   006400630017
BI00B32AG    XG22074LMW     202206247116-4025                TERMINAL                 CCN000064000000064000FN00000000020220701000064000NNM   20220401175146    4P0P  00001600000000644800000975132AG    XGXGY   006400630017
BI00B32AG    XG22071LMW     202206037116-4026                TERMINAL                 CCN000096000000096000FN00000000020220701000096000NNM   20220401175146    4P0P  00001600000000664000000994332AG    XGXGY   006400630017
BI00B32AG    XG22072LMW     202206107116-4026                TERMINAL                 CCN000048000000048000FN00000000020220701000048000NNM   20220401175146    4P0P  00001600000000664000000994332AG    XGXGY   006400630017
BI00B32AG    XG22073LMW     202206177116-4026                TERMINAL                 CCN000064000000064000FN00000000020220701000064000NNM   20220401175146    4P0P  00001600000000664000000994332AG    XGXGY   006400630017
BI00B32AG    XG22074LMW     202206247116-4026                TERMINAL                 CCN000064000000064000FN00000000020220701000064000NNM   20220401175146    4P0P  00001600000000664000000994332AG    XGXGY   006400630017
BI00B32AG    XG22071LMW     202206037172-1372-10             FRONT HOLDER             CCN000003900000003900FN00000000020220701000003900NNM   20220401175146    4F0F  00000390000000655200000955232AG    XGXGY   005500360039
BI00B32AG    XG22072LMW     202206107172-1372-10             FRONT HOLDER             CCN000003900000003900FN00000000020220701000003900NNM   20220401175146    4F0F  00000390000000655200000955232AG    XGXGY   005500360039
BI00B32AG    XG22073LMW     202206177172-1372-10             FRONT HOLDER             CCN000007800000007800FN00000000020220701000007800NNM   20220401175146    4F0F  00000390000000655200000955232AG    XGXGY   005500360039
BI00B32AG    XG22074LMW     202206247172-1372-10             FRONT HOLDER             CCN000003900000003900FN00000000020220701000003900NNM   20220401175146    4F0F  00000390000000655200000955232AG    XGXGY   005500360039
BI00B32AG    XG22072LMW     202206107283-1968-30             CONNECTOR                CCN000000900000000900FN00000000020220701000000900NNM   20220401175146    1N0N  00000090000001140000001318332AG    XGXGY   005600390040
BI00B32AG    XG22071LMW     202206037283-5843                CONNECTOR                CCN000001500000001500FN00000000020220701000001500NNM   20220401175146    1N0N  00000150000000889000001132032AG    XGXGY   005600390040
BI00B32AG    XG22072LMW     202206107283-5843                CONNECTOR                CCN000001500000001500FN00000000020220701000001500NNM   20220401175146    1N0N  00000150000000889000001132032AG    XGXGY   005600390040
BI00B32AG    XG22074LMW     202206247283-5843                CONNECTOR                CCN000001500000001500FN00000000020220701000001500NNM   20220401175146    1N0N  00000150000000889000001132032AG    XGXGY   005600390040
BI00B32AG    XG22071LMW     202206037289-4696-30             HOUSING FEMALE ASS'Y     CCN000018000000018000FN00000000020220701000018000NNM   20220401175146    4N0N  00000200000000913400001055432AG    XGXGY   005400370024
BI00B32AG    XG22072LMW     202206107289-4696-30             HOUSING FEMALE ASS'Y     CCN000018000000018000FN00000000020220701000018000NNM   20220401175146    4N0N  00000200000000913400001055432AG    XGXGY   005400370024
BI00B32AG    XG22073LMW     202206177289-4696-30             HOUSING FEMALE ASS'Y     CCN000018000000018000FN00000000020220701000018000NNM   20220401175146    4N0N  00000200000000913400001055432AG    XGXGY   005400370024
BI00B32AG    XG22074LMW     202206247289-4696-30             HOUSING FEMALE ASS'Y     CCN000016000000016000FN00000000020220701000016000NNM   20220401175146    4N0N  00000200000000913400001055432AG    XGXGY   005400370024
BI00B32AG    XG22071LMW     202206037289-7615-30             HOUSING FEMALE ASS'Y     CCN000004800000004800FN00000000020220701000004800NNM   20220401175146    4N0N  00000032000000738000000948032AG    XGXGY   005400370024
BI00B32AG    XG22072LMW     202206107289-7615-30             HOUSING FEMALE ASS'Y     CCN000004800000004800FN00000000020220701000004800NNM   20220401175146    4N0N  00000032000000738000000948032AG    XGXGY   005400370024
BI00B32AG    XG22073LMW     202206177289-7615-30             HOUSING FEMALE ASS'Y     CCN000004800000004800FN00000000020220701000004800NNM   20220401175146    4N0N  00000032000000738000000948032AG    XGXGY   005400370024
BI00B32AG    XG22074LMW     202206247289-7615-30             HOUSING FEMALE ASS'Y     CCN000005120000005120FN00000000020220701000005120NNM   20220401175146    4N0N  00000032000000738000000948032AG    XGXGY   005400370024
BI00B32AG    XG22071LMW     202206037388-0314                CONNECTOR ASS'Y          CCN000002400000002400FN00000000020220701000002400NNM   20220401175146    4N0N  00000120000001038000001132332AG    XGXGY   005400370024
BI00B32AG    XG22072LMW     202206107388-0314                CONNECTOR ASS'Y          CCN000001200000001200FN00000000020220701000001200NNM   20220401175146    4N0N  00000120000001038000001132332AG    XGXGY   005400370024
BI00B32AG    XG22073LMW     202206177388-0314                CONNECTOR ASS'Y          CCN000001200000001200FN00000000020220701000001200NNM   20220401175146    4N0N  00000120000001038000001132332AG    XGXGY   005400370024
BI00B32AG    XG22074LMW     202206247388-0314                CONNECTOR ASS'Y          CCN000001200000001200FN00000000020220701000001200NNM   20220401175146    4N0N  00000120000001038000001132332AG    XGXGY   005400370024
BI00B32AG    #XG22071LMW    202206037157-3992-90             CONNECTOR SEALED         CCN000040000000040000FN00000000020220701000040000NNM   20220401175146    2C0C  00004000000000300000000363332AG    XGXGY   002700430014
BI00B32AG    #XG22073LMW    202206177157-3992-90             CONNECTOR SEALED         CCN000040000000040000FN00000000020220701000040000NNM   20220401175146    2C0C  00004000000000300000000363332AG    XGXGY   002700430014
BI00B32AG    #XG22071LMW    202206037158-3003-90             RUBBER STOPPER           CCN000080000000080000FN00000000020220701000080000NNM   20220401175146    2C0C  00002000000000250000000306032AG    XGXGY   002700430014
BI00B32AG    #XG22072LMW    202206107158-3003-90             RUBBER STOPPER           CCN000080000000080000FN00000000020220701000080000NNM   20220401175146    2C0C  00002000000000250000000306032AG    XGXGY   002700430014
BI00B32AG    #XG22073LMW    202206177158-3003-90             RUBBER STOPPER           CCN000060000000060000FN00000000020220701000060000NNM   20220401175146    2C0C  00002000000000250000000306032AG    XGXGY   002700430014
BI00B32AG    #XG22074LMW    202206247158-3003-90             RUBBER STOPPER           CCN000080000000080000FN00000000020220701000080000NNM   20220401175146    2C0C  00002000000000250000000306032AG    XGXGY   002700430014
BI00B32AG    #XG22071LMW    202206037158-3008-80             RUBBER STOPPER           CCN000020000000020000FN00000000020220701000020000NNM   20220401175146    2C0C  00002000000000288000000343032AG    XGXGY   004300270014
BI00B32AG    #XG22073LMW    202206177158-3008-80             RUBBER STOPPER           CCN000020000000020000FN00000000020220701000020000NNM   20220401175146    2C0C  00002000000000288000000343032AG    XGXGY   004300270014
BI00B32AG    #XG22071LMW    202206037158-3120-90             CONNECTOR WIRE SEAL      CCN000120000000120000FN00000000020220701000120000NNM   20220401175146    2C0C  00002000000000136000000194032AG    XGXGY   002700430014
BI00B32AG    #XG22072LMW    202206107158-3120-90             CONNECTOR WIRE SEAL      CCN000080000000080000FN00000000020220701000080000NNM   20220401175146    2C0C  00002000000000136000000194032AG    XGXGY   002700430014
BI00B32AG    #XG22073LMW    202206177158-3120-90             CONNECTOR WIRE SEAL      CCN000060000000060000FN00000000020220701000060000NNM   20220401175146    2C0C  00002000000000136000000194032AG    XGXGY   002700430014
BI00B32AG    #XG22074LMW    202206247158-3120-90             CONNECTOR WIRE SEAL      CCN000080000000080000FN00000000020220701000080000NNM   20220401175146    2C0C  00002000000000136000000194032AG    XGXGY   002700430014
BI00B32AG    #XG22071LMW    202206037158-3121-80             WIRE SEAL                CCN000080000000080000FN00000000020220701000080000NNM   20220401175146    2C0C  00002000000000118000000187332AG    XGXGY   002700430014
BI00B32AG    #XG22072LMW    202206107158-3121-80             WIRE SEAL                CCN000040000000040000FN00000000020220701000040000NNM   20220401175146    2C0C  00002000000000118000000187332AG    XGXGY   002700430014
BI00B32AG    #XG22073LMW    202206177158-3121-80             WIRE SEAL                CCN000040000000040000FN00000000020220701000040000NNM   20220401175146    2C0C  00002000000000118000000187332AG    XGXGY   002700430014
BI00B32AG    #XG22074LMW    202206247158-3121-80             WIRE SEAL                CCN000020000000020000FN00000000020220701000020000NNM   20220401175146    2C0C  00002000000000118000000187332AG    XGXGY   002700430014
BI00B32AG    #XG22072LMW    202206107158-3654-80             WIRE TUBE                CCN000120000000120000FN00000000020220701000120000NNM   20220401175146    2H0H  00004000000000104000000152232AG    XGXGY   004300270014
BI00B32AG    #XG22073LMW    202206177158-3654-80             WIRE TUBE                CCN000120000000120000FN00000000020220701000120000NNM   20220401175146    2H0H  00004000000000104000000152232AG    XGXGY   004300270014
BI00B32AG    #XG22074LMW    202206247158-3654-80             WIRE TUBE                CCN000120000000120000FN00000000020220701000120000NNM   20220401175146    2H0H  00004000000000104000000152232AG    XGXGY   004300270014
BI00B32AG    #XG22071LMW    202206037182-9631-40             JOINT CONNECTOR          CCN000003000000003000FN00000000020220701000003000NNM   20220401175146    2F0F  00000300000001182000001307432AG    XGXGY   005400370024
BI00B32AG    #XG22072LMW    202206107182-9631-40             JOINT CONNECTOR          CCN000006000000006000FN00000000020220701000006000NNM   20220401175146    2F0F  00000300000001182000001307432AG    XGXGY   005400370024
BI00B32AG    #XG22073LMW    202206177182-9631-40             JOINT CONNECTOR          CCN000006000000006000FN00000000020220701000006000NNM   20220401175146    2F0F  00000300000001182000001307432AG    XGXGY   005400370024
BI00B32AG    #XG22074LMW    202206247182-9631-40             JOINT CONNECTOR          CCN000006000000006000FN00000000020220701000006000NNM   20220401175146    2F0F  00000300000001182000001307432AG    XGXGY   005400370024
BI00B32AG    #XG22071LMW    202206037182-9633-40             JOINT CONNECTOR          CCN000006000000006000FN00000000020220701000006000NNM   20220401175146    2F0F  00000300000001335000001460532AG    XGXGY   005400370024
BI00B32AG    #XG22072LMW    202206107182-9633-40             JOINT CONNECTOR          CCN000009000000009000FN00000000020220701000009000NNM   20220401175146    2F0F  00000300000001335000001460532AG    XGXGY   005400370024
BI00B32AG    #XG22073LMW    202206177182-9633-40             JOINT CONNECTOR          CCN000006000000006000FN00000000020220701000006000NNM   20220401175146    2F0F  00000300000001335000001460532AG    XGXGY   005400370024
BI00B32AG    #XG22074LMW    202206247182-9633-40             JOINT CONNECTOR          CCN000009000000009000FN00000000020220701000009000NNM   20220401175146    2F0F  00000300000001335000001460532AG    XGXGY   005400370024
BI00B32AG    XG22073NMW     202206177116-4120-02             TERMINAL                 CCN000012000000012000FN00000000020220701000012000NNM   20220401175146    4P0P  00000600000000780000001073632AG    XGXGY   006400630015
BI00B32AG    XG22074NMW     202206247116-4120-02             TERMINAL                 CCN000012000000012000FN00000000020220701000012000NNM   20220401175146    4P0P  00000600000000780000001073632AG    XGXGY   006400630015
BI00B32AG    XG22072NMW     202206107116-4121-02             TERMINAL                 CCN000058500000058500FN00000000020220701000058500NNM   20220401175146    4P0P  00000450000000618800000912432AG    XGXGY   006400630015
BI00B32AG    XG22073NMW     202206177116-4121-02             TERMINAL                 CCN000063000000063000FN00000000020220701000063000NNM   20220401175146    4P0P  00000450000000618800000912432AG    XGXGY   006400630015
BI00B32AG    XG22074NMW     202206247116-4121-02             TERMINAL                 CCN000058500000058500FN00000000020220701000058500NNM   20220401175146    4P0P  00000450000000618800000912432AG    XGXGY   006400630015
BI00B32AG    XG22071NMW     202206037116-4122-02             TERMINAL                 CCN000009000000009000FN00000000020220701000009000NNM   20220401175146    4P0P  00000450000000656600000950232AG    XGXGY   006400630015
BI00B32AG    XG22072NMW     202206107116-4122-02             TERMINAL                 CCN000009000000009000FN00000000020220701000009000NNM   20220401175146    4P0P  00000450000000656600000950232AG    XGXGY   006400630015
BI00B32AG    XG22073NMW     202206177116-4122-02             TERMINAL                 CCN000009000000009000FN00000000020220701000009000NNM   20220401175146    4P0P  00000450000000656600000950232AG    XGXGY   006400630015
BI00B32AG    XG22074NMW     202206247116-4122-02             TERMINAL                 CCN000009000000009000FN00000000020220701000009000NNM   20220401175146    4P0P  00000450000000656600000950232AG    XGXGY   006400630015
BI00B32AG    XG22071NMW     202206037116-4415-02             TERMINAL                 CCN000456000000456000FN00000000020220701000456000NNM   20220401175146    4P0P  00003800000000596600000925732AG    XGXGY   006400630017
BI00B32AG    XG22072NMW     202206107116-4415-02             TERMINAL                 CCN000646000000646000FN00000000020220701000646000NNM   20220401175146    4P0P  00003800000000596600000925732AG    XGXGY   006400630017
BI00B32AG    XG22073NMW     202206177116-4415-02             TERMINAL                 CCN000684000000684000FN00000000020220701000684000NNM   20220401175146    4P0P  00003800000000596600000925732AG    XGXGY   006400630017
BI00B32AG    XG22074NMW     202206247116-4415-02             TERMINAL                 CCN000646000000646000FN00000000020220701000646000NNM   20220401175146    4P0P  00003800000000596600000925732AG    XGXGY   006400630017
BI00B32AG    XG22074NMW     202206247126-8853-02             TERMINAL                 CCN000052500000052500FN00000000020220701000052500NNM   20220401175146    4P0P  00000750000000562500000847732AG    XGXGY   006400630015
BI00B32AG    XG22072NMW     202206107126-8854-02             TERMINAL                 CCN000007500000007500FN00000000020220701000007500NNM   20220401175146    4P0P  00000750000000604500000889732AG    XGXGY   006400630015
BI00B32AG    XG22073NMW     202206177126-8854-02             TERMINAL                 CCN000007500000007500FN00000000020220701000007500NNM   20220401175146    4P0P  00000750000000604500000889732AG    XGXGY   006400630015
BI00B32AG    XG22073NMW     202206177158-3165-90             WIRE SEAL                CCN000240000000240000FN00000000020220701000240000NNM   20220401175146    1C0C  00004000000000124000000172432AG    XGXGY   004300270014
BI00B32AG    XG22074NMW     202206247158-3165-90             WIRE SEAL                CCN000200000000200000FN00000000020220701000200000NNM   20220401175146    1C0C  00004000000000124000000172432AG    XGXGY   004300270014
BI00B32AG    XG22072NMW     202206107158-3166-60             WIRE SEAL                CCN000200000000200000FN00000000020220701000200000NNM   20220401175146    1C0C  00004000000000104000000152432AG    XGXGY   002700430014
BI00B32AG    XG22073NMW     202206177158-3166-60             WIRE SEAL                CCN000400000000400000FN00000000020220701000400000NNM   20220401175146    1C0C  00004000000000104000000152432AG    XGXGY   002700430014
BI00B32AG    XG22074NMW     202206247158-3166-60             WIRE SEAL                CCN000480000000480000FN00000000020220701000480000NNM   20220401175146    1C0C  00004000000000104000000152432AG    XGXGY   002700430014
BI00B32AG    XG22072NMW     202206107158-3167-80             WIRE SEAL                CCN000200000000200000FN00000000020220701000200000NNM   20220401175146    1C0C  00002000000000048000000109032AG    XGXGY   002700430014
BI00B32AG    XG22073NMW     202206177158-3167-80             WIRE SEAL                CCN000260000000260000FN00000000020220701000260000NNM   20220401175146    1C0C  00002000000000048000000109032AG    XGXGY   002700430014
BI00B32AG    XG22074NMW     202206247158-3167-80             WIRE SEAL                CCN000280000000280000FN00000000020220701000280000NNM   20220401175146    1C0C  00002000000000048000000109032AG    XGXGY   002700430014
BI00B32AG    XG22071NMW     202206037158-3168-80             SEALED                   CCN000040000000040000FN00000000020220701000040000NNM   20220401175146    1C0C  00002000000000044000000092132AG    XGXGY   004300260014
BI00B32AG    XG22072NMW     202206107158-3168-80             SEALED                   CCN000060000000060000FN00000000020220701000060000NNM   20220401175146    1C0C  00002000000000044000000092132AG    XGXGY   004300260014
BI00B32AG    XG22073NMW     202206177158-3168-80             SEALED                   CCN000040000000040000FN00000000020220701000040000NNM   20220401175146    1C0C  00002000000000044000000092132AG    XGXGY   004300260014
BI00B32AG    XG22074NMW     202206247158-3168-80             SEALED                   CCN000040000000040000FN00000000020220701000040000NNM   20220401175146    1C0C  00002000000000044000000092132AG    XGXGY   004300260014
BI00B32AG    XG22072NMW     202206107158-3169-40             SEALING PLUG             CCN000080000000080000FN00000000020220701000080000NNM   20220401175146    1C0C  00004000000000156000000204132AG    XGXGY   004300260014
BI00B32AG    XG22073NMW     202206177158-3169-40             SEALING PLUG             CCN000080000000080000FN00000000020220701000080000NNM   20220401175146    1C0C  00004000000000156000000204132AG    XGXGY   004300260014
BI00B32AG    XG22074NMW     202206247158-3169-40             SEALING PLUG             CCN000080000000080000FN00000000020220701000080000NNM   20220401175146    1C0C  00004000000000156000000204132AG    XGXGY   004300260014
BI00B32AG    #XG22071NMW    202206037123-6423-30             CONNECTOR                CCN000004000000004000FN00000000020220701000004000NNM   20220401175146    2F0F  00000200000001002000001167632AG    XGXGY   005600390023
BI00B32AG    #XG22072NMW    202206107123-6423-30             CONNECTOR                CCN000004000000004000FN00000000020220701000004000NNM   20220401175146    2F0F  00000200000001002000001167632AG    XGXGY   005600390023
BI00B32AG    #XG22073NMW    202206177123-6423-30             CONNECTOR                CCN000004000000004000FN00000000020220701000004000NNM   20220401175146    2F0F  00000200000001002000001167632AG    XGXGY   005600390023
BI00B32AG    #XG22074NMW    202206247123-6423-30             CONNECTOR                CCN000006000000006000FN00000000020220701000006000NNM   20220401175146    2F0F  00000200000001002000001167632AG    XGXGY   005600390023
BI00B32AG    XG22071QMW     202206037158-3022-80             RUBBER STOPPER           CCN000005000000005000FN00000000020220701000005000NNM   20220401175146    1C0C  00000500000000467500000524032AG    XGXGY   002700430014
BI00B32AG    XG22072QMW     202206107158-3022-80             RUBBER STOPPER           CCN000005000000005000FN00000000020220701000005000NNM   20220401175146    1C0C  00000500000000467500000524032AG    XGXGY   002700430014
BI00B32AG    XG22074QMW     202206247158-3022-80             RUBBER STOPPER           CCN000010000000010000FN00000000020220701000010000NNM   20220401175146    1C0C  00000500000000467500000524032AG    XGXGY   002700430014
BI00B32A7    ZZ22061BMW     202205047114-4032                TERMINAL                 CCN000007500000007500FN00000000020220601000007500NNM   20220401175146    4P0P  00000750000000735000001063632A7    ZZZZY   006400630017
BI00B32A7    ZZ22061BMW     202205047114-4729-08             TERMINAL                 CCN000060000000060000FN00000000020220601000060000NNM   20220401175146    4P0P  00003000000000522000000816232A7    ZZZZY   006400630015
BI00B32A7    ZZ22062BMW     202205117114-4729-08             TERMINAL                 CCN000060000000060000FN00000000020220601000060000NNM   20220401175146    4P0P  00003000000000522000000816232A7    ZZZZY   006400630015
BI00B32A7    ZZ22063BMW     202205187114-4729-08             TERMINAL                 CCN000090000000090000FN00000000020220601000090000NNM   20220401175146    4P0P  00003000000000522000000816232A7    ZZZZY   006400630015
BI00B32A7    ZZ22064BMW     202205257114-4729-08             TERMINAL                 CCN000030000000030000FN00000000020220601000030000NNM   20220401175146    4P0P  00003000000000522000000816232A7    ZZZZY   006400630015
BI00B32A7    ZZ22061BMW     202205047116-3154-08             TERMINAL                 CCN000054000000054000FN00000000020220601000054000NNM   20220401175146    4P0P  00002700000000475200000760432A7    ZZZZY   006400630015
BI00B32A7    ZZ22062BMW     202205117116-3154-08             TERMINAL                 CCN000054000000054000FN00000000020220601000054000NNM   20220401175146    4P0P  00002700000000475200000760432A7    ZZZZY   006400630015
BI00B32A7    ZZ22063BMW     202205187116-3154-08             TERMINAL                 CCN000108000000108000FN00000000020220601000108000NNM   20220401175146    4P0P  00002700000000475200000760432A7    ZZZZY   006400630015
