BI00B32AG    @XG2206ALMW    20220506181E48022ZZ              CAVSAS-S 0.5X2 GY        CCN000000600000000600FN00000000020220601000000600NNE20 20220422114200    1W    00000030000002561000000000032AG    XGXGY   000000000000XT424001
BI00B32AG    @XG22071LMW    20220506181E48022ZZ              CAVSAS-S 0.5X2 GY        CCN000000300000000300FN00000000020220701000000300NNM20 20220422132925    1W    00000030000002561000000000032AG    XGXGY   000000000000XY325001
BI00B32AG    @XG22072LMW    20220506181E48022ZZ              CAVSAS-S 0.5X2 GY        CCN000000300000000300FN00000000020220701000000300NNM20 20220422132123    1W    00000030000002561000000000032AG    XGXGY   000000000000XY425001
BI00B32AG    @XG22073LMW    20220506181E48022ZZ              CAVSAS-S 0.5X2 GY        CCN000000300000000300FN00000000020220701000000300NNM20 20220422132149    1W    00000030000002561000000000032AG    XGXGY   000000000000XY126001
BI00B32AG    @XG22074LMW    20220506181E48022ZZ              CAVSAS-S 0.5X2 GY        CCN000000300000000300FN00000000020220701000000300NNM20 20220422132218    1W    00000030000002561000000000032AG    XGXGY   000000000000XY226001
BI00B32A7    ZZ2205ALMW     2022051118000004560              AV 8 G                   CCN000005000000005000FN00000000020220501000005000NNE   20220422143252    1W    00000010000010466200000000032A7    ZZZZY   000000000000ZT424001
BI00B32A7    ZZ2205ALMW     2022051118000004550              AV 8 R                   CCN000005000000005000FN00000000020220501000005000NNE   20220422143252    1W    00000010000010466200000000032A7    ZZZZY   000000000000ZT424002
BI00B32A7    ZZ2205ALMW     2022051118000004540              AV 8 W                   CCN000005000000005000FN00000000020220501000005000NNE   20220422143252    1W    00000010000010466200000000032A7    ZZZZY   000000000000ZT424003
BI00B32A7    ZZ2205ALMW     2022051118000004570              AV 8 Y                   CCN000002000000002000FN00000000020220501000002000NNE   20220422143252    1W    00000010000010466200000000032A7    ZZZZY   000000000000ZT424004
BI00B32A7    @ZZ2205ALMW    20220518181E48018ZZ              CAVSAS-S 0.5X2 GY/SB     CCN000001800000001800FN00000000020220501000001800NNE   20220422143251    1W    00000030000002561000000000032A7    ZZZZY   000000000000ZS126002
BI00B32A7    @ZZ2205ALMW    20220518181E48027ZZ              CAVSAS-S 0.5X2 GY/P      CCN000002100000002100FN00000000020220501000002100NNE   20220422143251    1W    00000030000002561000000000032A7    ZZZZY   000000000000ZS126001
BI00B32A7    @ZZ2205ALMW    20220518181E48040ZZ              CAVSAS-S 0.3X2 GY/V      CCN000010500000010500FN00000000020220501000010500NNE   20220422143251    1W    00000035000002008700000000032A7    ZZZZY   000000000000ZS126003
BI00B32D2    DGTW2228       2022051918000004530              AV 8 B                   CCN000015900000015900FN00000000020220501000015900NNE   20220422164543    1W    00000010000010466200000000032D2    TGYOT-G 000000000000KR125046
BI00B32D2    DGTW2228       2022051918000004540              AV 8 W                   CCN000009500000009500FN00000000020220501000009500NNE   20220422164543    1W    00000010000010466200000000032D2    TGYOT-G 000000000000KR125048
BI00B32D2    DGTW2228       2022051918000004543              AV 8 W/B                 CCN000000600000000600FN00000000020220501000000600NNE   20220422164543    1W    00000010000010466200000000032D2    TGYOT-G 000000000000KR125049
BI00B32D2    DGTW2228       2022051918000004590              AV 8 L                   CCN000000500000000500FN00000000020220501000000500NNE   20220422164543    1W    00000010000010466200000000032D2    TGYOT-G 000000000000KR125047
BI00B32D2    @DGTW2228      20220519181AD2002ZZ              CIVUSAS-S 0.35X2 B       CCN000012150000012150FN00000000020220501000012150NNE   20220422164542    1W    00000045000001713700000000032D2    TGYOT-G 000000000000KR125020
BI00B32D2    @DGTW2228      20220519181AD2003ZZ              CIVUSAS-S 0.35X3 B       CCN000000700000000700FN00000000020220501000000700NNE   20220422164542    1W    00000035000002172100000000032D2    TGYOT-G 000000000000KR125021
BI00B32D2    @DGTW2228      20220519181AD2004ZZ              CIVUSAS-S 0.35X4 B       CCN000000600000000600FN00000000020220501000000600NNE   20220422164542    1W    00000030000002799900000000032D2    TGYOT-G 000000000000KR125022
BI00B32D2    @DGTW2228      20220519181E48037ZZ              CAVSAS-S 0.3X4 GY        CCN000001500000001500FN00000000020220501000001500NNE   20220422164542    1W    00000025000003262000000000032D2    TGYOT-G 000000000000KR125023
BI00B32D2    @DGTW2228      20220519181E50004ZZ              AVSSCS-S 0.5FX1 DGY      CCN000003600000003600FN00000000020220501000003600NNE   20220422164542    1W    00000040000001909700000000032D2    TGYOT-G 000000000000KR125024
BI00B32D2    @DGTW2228      20220519181E50005ZZ              AVSSCS-S 0.5FX1 DGY/W    CCN000002800000002800FN00000000020220501000002800NNE   20220422164542    1W    00000040000001909700000000032D2    TGYOT-G 000000000000KR125026
BI00B32D2    @DGTW2228      20220519181E50006ZZ              AVSSCS-S 0.5FX1 DGY/Y    CCN000001200000001200FN00000000020220501000001200NNE   20220422164542    1W    00000040000001909700000000032D2    TGYOT-G 000000000000KR125027
BI00B32D2    @DGTW2228      20220519181E50007ZZ              AVSSCS-S 0.5FX1 DGY/L    CCN000001200000001200FN00000000020220501000001200NNE   20220422164542    1W    00000040000001909700000000032D2    TGYOT-G 000000000000KR125025
BI00B32D2    @DGTW2228      20220519181E50016ZZ              AVSSCS-S 0.5FX2 DGY/R    CCN000001200000001200FN00000000020220501000001200NNE   20220422164542    1W    00000030000003096000000000032D2    TGYOT-G 000000000000KR125028
BI00B32D2    @DGTW2228      20220519181E50036ZZ              AVSSCS-S 0.3FX2 DGY      CCN000000350000000350FN00000000020220501000000350NNE   20220422164542    1W    00000035000002165000000000032D2    TGYOT-G 000000000000KR125029
BI00B32D2    @DGTW2228      20220519181F21014ZZ              AVSSHCS-S 0.5FX2 B/L     CCN000003600000003600FN00000000020220501000003600NNE   20220422164542    1W    00000030000002531400000000032D2    TGYOT-G 000000000000KR125031
BI00B32D2    @DGTW2228      20220519181F21016ZZ              AVSSHCS-S 0.5FX2 B/BR    CCN000001200000001200FN00000000020220501000001200NNE   20220422164542    1W    00000030000002531400000000032D2    TGYOT-G 000000000000KR125030
BI00B32D2    @DGTW2228      20220519181F21031ZZ              AVSSHCS-S 1.25FX2 B/P    CCN000001200000001200FN00000000020220501000001200NNE   20220422164542    1W    00000020000004267300000000032D2    TGYOT-G 000000000000KR125032
BI00B32E2    @WY206B        20220504181F21009ZZ              AVSSHCS-S 0.5FX2 B       CCN000000600000000600FN00000000020220601000000600NNE   20220422143804    1W    00000030000002531400000000032E2    SPYSE   000000000000KY324001
BI00B32H7    FS2206DDMW     20220504180D0204160              AVSSH 1.25F G            CCN000013600000013600FN00000000020220601000013600NNE   20220422082917    1W    00000080000001458000000000032H7    FYFSY   000000000000FN324001
BI00B32H7    FS2206DDMW     202205041801W006930              IVSSH 0.35F B            CCN000302500000302500FN00000000020220601000302500NNE   20220422082917    1W    00000250000000452000000000032H7    FYFSY   000000000000FN324010
BI00B32H7    FS2206DDMW     202205041801W00695U              IVSSH 0.35F BE           CCN000022500000022500FN00000000020220601000022500NNE   20220422082917    1W    00000250000000452000000000032H7    FYFSY   000000000000FN324011
BI00B32H7    FS2206DDMW     202205041801W006980              IVSSH 0.35F BR           CCN000025000000025000FN00000000020220601000025000NNE   20220422082917    1W    00000250000000452000000000032H7    FYFSY   000000000000FN324012
BI00B32H7    FS2206DDMW     202205041801W006960              IVSSH 0.35F G            CCN000222500000222500FN00000000020220601000222500NNE   20220422082917    1W    00000250000000452000000000032H7    FYFSY   000000000000FN324013
BI00B32H7    FS2206DDMW     202205041801W006941              IVSSH 0.35F GY           CCN000055000000055000FN00000000020220601000055000NNE   20220422082917    1W    00000250000000452000000000032H7    FYFSY   000000000000FN324014
BI00B32H7    FS2206DDMW     202205041801W006990              IVSSH 0.35F L            CCN000257500000257500FN00000000020220601000257500NNE   20220422082917    1W    00000250000000452000000000032H7    FYFSY   000000000000FN324015
BI00B32H7    FS2206DDMW     202205041801W006961              IVSSH 0.35F LG           CCN000142500000142500FN00000000020220601000142500NNE   20220422082917    1W    00000250000000452000000000032H7    FYFSY   000000000000FN324016
BI00B32H7    FS2206DDMW     202205041801W006952              IVSSH 0.35F P            CCN000167500000167500FN00000000020220601000167500NNE   20220422082917    1W    00000250000000452000000000032H7    FYFSY   000000000000FN324017
BI00B32H7    FS2206DDMW     202205041801W006950              IVSSH 0.35F R            CCN000135000000135000FN00000000020220601000135000NNE   20220422082917    1W    00000250000000452000000000032H7    FYFSY   000000000000FN324018
BI00B32H7    FS2206DDMW     202205041801W006991              IVSSH 0.35F SB           CCN000005000000005000FN00000000020220601000005000NNE   20220422082917    1W    00000250000000452000000000032H7    FYFSY   000000000000FN324019
BI00B32H7    FS2206DDMW     202205041801W006992              IVSSH 0.35F V            CCN000137500000137500FN00000000020220601000137500NNE   20220422082917    1W    00000250000000452000000000032H7    FYFSY   000000000000FN324020
BI00B32H7    FS2206DDMW     202205041801W006940              IVSSH 0.35F W            CCN000270000000270000FN00000000020220601000270000NNE   20220422082917    1W    00000250000000452000000000032H7    FYFSY   000000000000FN324021
BI00B32H7    FS2206DDMW     202205041801W006943              IVSSH 0.35F W/B          CCN000127500000127500FN00000000020220601000127500NNE   20220422082917    1W    00000250000000452000000000032H7    FYFSY   000000000000FN324022
BI00B32H7    FS2206DDMW     202205041801W006970              IVSSH 0.35F Y            CCN000055000000055000FN00000000020220601000055000NNE   20220422082917    1W    00000250000000452000000000032H7    FYFSY   000000000000FN324023
BI00B32H7    FS2206DDMW     202205041801W003930              IVSSH 0.5F B             CCN000009000000009000FN00000000020220601000009000NNE   20220422082917    1W    00000180000000625000000000032H7    FYFSY   000000000000FN324002
BI00B32H7    FS2206DDMW     202205041801W003960              IVSSH 0.5F G             CCN000072000000072000FN00000000020220601000072000NNE   20220422082917    1W    00000180000000625000000000032H7    FYFSY   000000000000FN324003
BI00B32H7    FS2206DDMW     202205041801W003941              IVSSH 0.5F GY            CCN000001800000001800FN00000000020220601000001800NNE   20220422082917    1W    00000180000000625000000000032H7    FYFSY   000000000000FN324004
BI00B32H7    FS2206DDMW     202205041801W003990              IVSSH 0.5F L             CCN000086400000086400FN00000000020220601000086400NNE   20220422082917    1W    00000180000000625000000000032H7    FYFSY   000000000000FN324005
BI00B32H7    FS2206DDMW     202205041801W003952              IVSSH 0.5F P             CCN000225000000225000FN00000000020220601000225000NNE   20220422082917    1W    00000180000000625000000000032H7    FYFSY   000000000000FN324006
BI00B32H7    FS2206DDMW     202205041801W003950              IVSSH 0.5F R             CCN000007200000007200FN00000000020220601000007200NNE   20220422082917    1W    00000180000000625000000000032H7    FYFSY   000000000000FN324007
BI00B32H7    FS2206DDMW     202205041801W003992              IVSSH 0.5F V             CCN000070200000070200FN00000000020220601000070200NNE   20220422082917    1W    00000180000000625000000000032H7    FYFSY   000000000000FN324008
BI00B32H7    FS2206DDMW     202205041801W003943              IVSSH 0.5F W/B           CCN000075600000075600FN00000000020220601000075600NNE   20220422082917    1W    00000180000000625000000000032H7    FYFSY   000000000000FN324009
BI00B32H7    FS2206EDMW     20220511180D0204160              AVSSH 1.25F G            CCN000038400000038400FN00000000020220601000038400NNE   20220422142352    1W    00000080000001458000000000032H7    FYFSY   000000000000FE424001
BI00B32H7    FS2206EDMW     20220511180D0204190              AVSSH 1.25F L            CCN000016800000016800FN00000000020220601000016800NNE   20220422142352    1W    00000080000001458000000000032H7    FYFSY   000000000000FE424002
BI00B32H7    FS2206EDMW     20220511180D0204150              AVSSH 1.25F R            CCN000019200000019200FN00000000020220601000019200NNE   20220422142352    1W    00000080000001458000000000032H7    FYFSY   000000000000FE424003
BI00B32H7    FS2206EDMW     20220511180D0204143              AVSSH 1.25F W/B          CCN000004800000004800FN00000000020220601000004800NNE   20220422142352    1W    00000080000001458000000000032H7    FYFSY   000000000000FE424004
BI00B32H7    FS2206EDMW     202205111801W006930              IVSSH 0.35F B            CCN000175000000175000FN00000000020220601000175000NNE   20220422142352    1W    00000250000000452000000000032H7    FYFSY   000000000000FE424013
BI00B32H7    FS2206EDMW     202205111801W00695U              IVSSH 0.35F BE           CCN000012500000012500FN00000000020220601000012500NNE   20220422142352    1W    00000250000000452000000000032H7    FYFSY   000000000000FE424014
BI00B32H7    FS2206EDMW     202205111801W006980              IVSSH 0.35F BR           CCN000015000000015000FN00000000020220601000015000NNE   20220422142352    1W    00000250000000452000000000032H7    FYFSY   000000000000FE424015
BI00B32H7    FS2206EDMW     202205111801W006960              IVSSH 0.35F G            CCN000122500000122500FN00000000020220601000122500NNE   20220422142352    1W    00000250000000452000000000032H7    FYFSY   000000000000FE424016
BI00B32H7    FS2206EDMW     202205111801W006941              IVSSH 0.35F GY           CCN000032500000032500FN00000000020220601000032500NNE   20220422142352    1W    00000250000000452000000000032H7    FYFSY   000000000000FE424017
BI00B32H7    FS2206EDMW     202205111801W006990              IVSSH 0.35F L            CCN000150000000150000FN00000000020220601000150000NNE   20220422142352    1W    00000250000000452000000000032H7    FYFSY   000000000000FE424018
BI00B32H7    FS2206EDMW     202205111801W006961              IVSSH 0.35F LG           CCN000080000000080000FN00000000020220601000080000NNE   20220422142352    1W    00000250000000452000000000032H7    FYFSY   000000000000FE424019
BI00B32H7    FS2206EDMW     202205111801W006952              IVSSH 0.35F P            CCN000095000000095000FN00000000020220601000095000NNE   20220422142352    1W    00000250000000452000000000032H7    FYFSY   000000000000FE424020
BI00B32H7    FS2206EDMW     202205111801W006950              IVSSH 0.35F R            CCN000080000000080000FN00000000020220601000080000NNE   20220422142352    1W    00000250000000452000000000032H7    FYFSY   000000000000FE424021
BI00B32H7    FS2206EDMW     202205111801W006991              IVSSH 0.35F SB           CCN000027500000027500FN00000000020220601000027500NNE   20220422142352    1W    00000250000000452000000000032H7    FYFSY   000000000000FE424022
BI00B32H7    FS2206EDMW     202205111801W006992              IVSSH 0.35F V            CCN000082500000082500FN00000000020220601000082500NNE   20220422142352    1W    00000250000000452000000000032H7    FYFSY   000000000000FE424023
BI00B32H7    FS2206EDMW     202205111801W006940              IVSSH 0.35F W            CCN000152500000152500FN00000000020220601000152500NNE   20220422142352    1W    00000250000000452000000000032H7    FYFSY   000000000000FE424024
BI00B32H7    FS2206EDMW     202205111801W006943              IVSSH 0.35F W/B          CCN000065000000065000FN00000000020220601000065000NNE   20220422142352    1W    00000250000000452000000000032H7    FYFSY   000000000000FE424025
BI00B32H7    FS2206EDMW     202205111801W006970              IVSSH 0.35F Y            CCN000030000000030000FN00000000020220601000030000NNE   20220422142352    1W    00000250000000452000000000032H7    FYFSY   000000000000FE424026
BI00B32H7    FS2206EDMW     202205111801W003930              IVSSH 0.5F B             CCN000005400000005400FN00000000020220601000005400NNE   20220422142352    1W    00000180000000625000000000032H7    FYFSY   000000000000FE424005
BI00B32H7    FS2206EDMW     202205111801W003960              IVSSH 0.5F G             CCN000039600000039600FN00000000020220601000039600NNE   20220422142352    1W    00000180000000625000000000032H7    FYFSY   000000000000FE424006
BI00B32H7    FS2206EDMW     202205111801W003941              IVSSH 0.5F GY            CCN000003600000003600FN00000000020220601000003600NNE   20220422142352    1W    00000180000000625000000000032H7    FYFSY   000000000000FE424007
BI00B32H7    FS2206EDMW     202205111801W003990              IVSSH 0.5F L             CCN000054000000054000FN00000000020220601000054000NNE   20220422142352    1W    00000180000000625000000000032H7    FYFSY   000000000000FE424008
BI00B32H7    FS2206EDMW     202205111801W003952              IVSSH 0.5F P             CCN000124200000124200FN00000000020220601000124200NNE   20220422142352    1W    00000180000000625000000000032H7    FYFSY   000000000000FE424009
BI00B32H7    FS2206EDMW     202205111801W003950              IVSSH 0.5F R             CCN000010800000010800FN00000000020220601000010800NNE   20220422142352    1W    00000180000000625000000000032H7    FYFSY   000000000000FE424010
BI00B32H7    FS2206EDMW     202205111801W003992              IVSSH 0.5F V             CCN000039600000039600FN00000000020220601000039600NNE   20220422142352    1W    00000180000000625000000000032H7    FYFSY   000000000000FE424011
BI00B32H7    FS2206EDMW     202205111801W003943              IVSSH 0.5F W/B           CCN000045000000045000FN00000000020220601000045000NNE   20220422142352    1W    00000180000000625000000000032H7    FYFSY   000000000000FE424012
BI00B32J1    @393930        20220517181E48012ZZ              CAVSAS-S 0.3X1 GY        CCN000003500000003500FN00000000020220501000003500NNM   20220422144444    1W    00000050000001529500000000032J1    UKYEL-BL000000000000KG125001
BI00B32J1    @393930        20220517181E48013ZZ              CAVSAS-S 0.3X3 GY        CCN000000500000000500FN00000000020220501000000500NNM   20220422144444    1W    00000025000002778200000000032J1    UKYEL-BL000000000000KG125010
BI00B32J1    @393930        20220517181E48015ZZ              CAVSAS-S 0.5X1 GY        CCN000004400000004400FN00000000020220501000004400NNM   20220422144444    1W    00000040000001900600000000032J1    UKYEL-BL000000000000KG125002
BI00B32J1    @393930        20220517181E48018ZZ              CAVSAS-S 0.5X2 GY/SB     CCN000001800000001800FN00000000020220501000001800NNM   20220422144444    1W    00000030000002561000000000032J1    UKYEL-BL000000000000KG125004
BI00B32J1    @393930        20220517181E48027ZZ              CAVSAS-S 0.5X2 GY/P      CCN000002100000002100FN00000000020220501000002100NNM   20220422144444    1W    00000030000002561000000000032J1    UKYEL-BL000000000000KG125003
BI00B32J1    @393930        20220517181E48029ZZ              CAVSAS-S 0.5X4 GY        CCN000002600000002600FN00000000020220501000002600NNM   20220422144444    1W    00000020000003995000000000032J1    UKYEL-BL000000000000KG125007
BI00B32J1    @393930        20220517181E48031ZZ              CAVSAS-S 0.3X2 GY        CCN000005250000005250FN00000000020220501000005250NNM   20220422144444    1W    00000035000002008700000000032J1    UKYEL-BL000000000000KG125009
BI00B32J1    @393930        20220517181E48033ZZ              CAVSAS-S 0.5X3 GY/B      CCN000004600000004600FN00000000020220501000004600NNM   20220422144444    1W    00000020000003795300000000032J1    UKYEL-BL000000000000KG125006
BI00B32J1    @393930        20220517181E48035ZZ              CAVSAS-S 0.5X3 GY        CCN000003200000003200FN00000000020220501000003200NNM   20220422144444    1W    00000020000003795300000000032J1    UKYEL-BL000000000000KG125005
BI00B32J1    @393930        20220517181E48065ZZ              CAVSAS-S 0.5X4 GY/W      CCN000002600000002600FN00000000020220501000002600NNM   20220422144444    1W    00000020000003995000000000032J1    UKYEL-BL000000000000KG125008
BI00B32M1    TV205B         2022051218000004540              AV 8 W                   CCN000017000000017000FN00000000020220501000017000NNE   20220422145452    1W    00000010000010466200000000032M1    VNYEV   000000000000VM424002
BI00B32M1    TV205B         2022051218000004543              AV 8 W/B                 CCN000011400000011400FN00000000020220501000011400NNE   20220422145452    1W    00000010000010466200000000032M1    VNYEV   000000000000VM424003
BI00B32M1    @TV205B        20220519181E48037ZZ              CAVSAS-S 0.3X4 GY        CCN000014000000014000FN00000000020220501000014000NNE   20220422145451    1W    00000025000003262000000000032M1    VNYEV   000000000000VB125002
BI00B32M1    @TV205B        20220519181AD2022ZZ              CIVUSAS-S 0.35X2 B(R,G)  CCN000001350000001350FN00000000020220501000001350NNE   20220422145451    1W    00000045000001714000000000032M1    VNYEV   000000000000VB125001
BI00B32N1    @NBT2118C      20220512181D6910239              AVSSHCS 0.5FX2 B/L       CCN000021000000000000FY00000000020220401000000000NNE10 20220422104500    1W    00000030000002385000000000032N1    TAYIPL  000000000000XO124001
BI00B32N1    @NST2118C      20220512181D6910239              AVSSHCS 0.5FX2 B/L       CCN000021000000021000FN00000000020220501000021000NNE   20220422104839    1W    00000030000002385000000000032N1    TAYIPL  000000000000XO424001
BI00B32N2    2152103955     2022051818007703930              AVSS 0.5F B              CCN000003000000003000FN00000000020220501000003000NNE   20220422151822    1W    00000150000000674000000000032N2    YWYIPLTC000000000000KU125002
BI00B32N2    2152103955     2022051818007703940              AVSS 0.5F W              CCN000001500000001500FN00000000020220501000001500NNE   20220422151822    1W    00000150000000674000000000032N2    YWYIPLTC000000000000KU125007
BI00B32N2    2152103955     2022051818007703954              AVSS 0.5F R/W            CCN000001500000001500FN00000000020220501000001500NNE   20220422151822    1W    00000150000000674000000000032N2    YWYIPLTC000000000000KU125006
BI00B32N2    2152103955     2022051818007703960              AVSS 0.5F G              CCN000001500000001500FN00000000020220501000001500NNE   20220422151822    1W    00000150000000674000000000032N2    YWYIPLTC000000000000KU125003
BI00B32N2    2152103955     2022051818007703977              AVSS 0.5F O/L            CCN000001500000001500FN00000000020220501000001500NNE   20220422151822    1W    00000150000000674000000000032N2    YWYIPLTC000000000000KU125005
BI00B32N2    2152103955     2022051818007703990              AVSS 0.5F L              CCN000001500000001500FN00000000020220501000001500NNE   20220422151822    1W    00000150000000674000000000032N2    YWYIPLTC000000000000KU125004
BI00B32N2    2152103955     2022051818007704183              AVSS 1.25F BR/B          CCN000000800000000800FN00000000020220501000000800NNE   20220422151822    1W    00000080000001389000000000032N2    YWYIPLTC000000000000KU125008
BI00B32N2    2152103955     20220518180D0204090              AVSSH 0.75F L            CCN000001000000001000FN00000000020220501000001000NNE   20220422151822    1W    00000100000000934000000000032N2    YWYIPLTC000000000000KU125001
BI00B32R8    TT2206AAMW     20220503180D0203934              AVSSH 0.5F B/W           CCN000001500000001500FN00000000020220601000001500NNE   20220422150215    1W    00000150000000689000000000032R8    TTTJY   000000000000NW324001
