BI00B1200    8670T51A02     202205057288-6547                CONNECTOR MALE ASS'Y     CCN000000750000000750FN00000000020220101000000750NNED0420220422161713    4N0N  0000007500000120530000134031200    YCYC    005400370024
BI00B1200    2399T52115     202204287288-6547                CONNECTOR MALE ASS'Y     CCN000173250000173250FN00000000020220301000173250NNMM0020220422155522    4N0N  0000007500000120530000134031200    YCYC    005400370024
BI00B1200    2399T52116     202204287288-6547                CONNECTOR MALE ASS'Y     CCN000173250000173250FN00000000020220301000173250NNMM0020220422155532    4N0N  0000007500000120530000134031200    YCYC    005400370024
BI00B1200    2399T52215     202205057288-6547                CONNECTOR MALE ASS'Y     CCN000160500000160500FN00000000020220401000160500NNMD0420220422161726    4N0N  0000007500000120530000134031200    YCYC    005400370024
BI00B1200    2399T52216     202205127288-6547                CONNECTOR MALE ASS'Y     CCN000159750000159750FN00000000020220401000159750NNMD0420220422161737    4N0N  0000007500000120530000134031200    YCYC    005400370024
BI00B1200    2399T52217     202205197288-6547                CONNECTOR MALE ASS'Y     CCN000159750000159750FN00000000020220401000159750NNMD0420220422161754    4N0N  0000007500000120530000134031200    YCYC    005400370024
BI00B1200    2399T52218     202205197288-6547                CONNECTOR MALE ASS'Y     CCN000159750000159750FN00000000020220401000159750NNMD0420220422161804    4N0N  0000007500000120530000134031200    YCYC    005400370024
BI00B1200    2399T52220     202205267288-6547                CONNECTOR MALE ASS'Y     CCN000159750000159750FN00000000020220401000159750NNMD0420220422161926    4N0N  0000007500000120530000134031200    YCYC    005400370024
BI00B1200    2399T52316     202205267288-6547                CONNECTOR MALE ASS'Y     CCN000267000000177750FN00000000020220501000177750NNMD0420220422161942    4N0N  0000007500000120530000134031200    YCYC    005400370024
BI00B1200    2399T52317     202206027288-6547                CONNECTOR MALE ASS'Y     CCN000267000000089250FN00000000020220501000089250NNMD0420220422162000    4N0N  0000007500000120530000134031200    YCYC    005400370024
BI00B1200    2399T52319     202206167288-6547                CONNECTOR MALE ASS'Y     CCN000266250000177750FN00000000020220501000177750NNMD0420220422162032    4N0N  0000007500000120530000134031200    YCYC    005400370024
BI00B1200    2399T52316     202206027288-6547                CONNECTOR MALE ASS'Y     CCN000089250000089250FN00000000020220501000089250NNMD0420220422162010    4N0N  0000007500000120530000134031200    YCYC    005400370024
BI00B1200    2399T52317     202206097288-6547                CONNECTOR MALE ASS'Y     CCN000177750000177750FN00000000020220501000177750NNMD0420220422162020    4N0N  0000007500000120530000134031200    YCYC    005400370024
BI00B1200    2399T52319     202206237288-6547                CONNECTOR MALE ASS'Y     CCN000088500000088500FN00000000020220501000088500NNMD0420220422162122    4N0N  0000007500000120530000134031200    YCYC    005400370024
BI00B1200    2399T52418     202206307288-6547                CONNECTOR MALE ASS'Y     CCN000100500000100500FN00000000020220601000100500NNMD0420220422162157    4N0N  0000007500000120530000134031200    YCYC    005400370024
BI00B1200    2399T52419     202206307288-6547                CONNECTOR MALE ASS'Y     CCN000100500000100500FN00000000020220601000100500NNMD0420220422162305    4N0N  0000007500000120530000134031200    YCYC    005400370024
BI00B1200    2399T52420     202206307288-6547                CONNECTOR MALE ASS'Y     CCN000099750000099750FN00000000020220601000099750NNMD0420220422162336    4N0N  0000007500000120530000134031200    YCYC    005400370024
BI00B1200    2399T52421     202206307288-6547                CONNECTOR MALE ASS'Y     CCN000099750000099750FN00000000020220601000099750NNMD0420220422162347    4N0N  0000007500000120530000134031200    YCYC    005400370024
BI00B1200    8100T52409     202206307288-6547                CONNECTOR MALE ASS'Y     CCN000001500000001500FN00000000020220601000001500NNMD0420220422162322    4N0N  0000007500000120530000134031200    YCYC    005400370024
BI00B1200    8670T52401     202206097288-6547                CONNECTOR MALE ASS'Y     CCN000000750000000750FN00000000020220701000000750NNED0020220422161840    4N0N  0000007500000120530000134031200    YCYC    005400370024
BI00B32AF    JTB206A        202205137172-5540-80             SEALED WIRE SEAL         CCN000020000000020000FN00000000020220601000020000NNE   20220422121720    1C0C  00002000000000186000000234432AF    HBYHVTB 004300270014
BI00B32AF    JTB206A        202205137289-6868-30             SEALED ASSY FEMALE       CCN000002520000002520FN00000000020220601000002520NNE   20220422121720    4N0N  00000252000000839200001119232AF    HBYHVTB 005500360039
BI00B32AF    JTB206A        202205137298-1869-30             HOUSING FEMALE ASS'Y     CCN000002400000002400FN00000000020220601000002400NNE   20220422121720    4N0N  00000120000000737000000939832AF    HBYHVTB 005500360039
BI00B32AF    JTB206A        202205137298-3822-70             HOUSING FEMALE ASS'Y     CCN000002520000002520FN00000000020220601000002520NNE   20220422121720    4N0N  00000252000000776200001077032AF    HBYHVTB 005500360039
BI00B32AF    #JTB206A       202205137189-3038-30             HOUSING                  CCN000001600000001600FN00000000020220601000001600NNE   20220422121720    2F0F  00000160000000921600001141632AF    HBYHVTB 005500360039
BI00B32AF    #JTB206A       202205137198-5394                HOUSING FEMALE           CCN000004800000004800FN00000000020220601000004800NNE   20220422121720    2F0F  00000480000000489700000688832AF    HBYHVTB 005500360039
BI00T32AF    @JTB2071- I    202207077183-2510                HOUSING                  CCN000042000000042000FN00000000020220701000042000NNM   20220422131555    3F0F  00000300000001063500001159032AF    HBYHVTB 005400370024
BI00T32AF    @JTB2071- I    202207077183-3190                JOINT CONNECTOR          CCN000252000000252000FN00000000020220701000252000NNM   20220422131555    3F0F  00000360000000457600000667832AF    HBYHVTB 005500360039
BI00T32AF    @JTB2071- I    202207077183-7770-40             HOUSING                  CCN000108000000108000FN00000000020220701000108000NNM   20220422131555    3F0F  00000600000001011000001161032AF    HBYHVTB 005400370024
BI00T32AF    @JTB2071- I    202207077283-1556                CONNECTOR ASS'Y          CCN000172800000172800FN00000000020220701000172800NNM   20220422131555    3N0N  00000240000000755000001014032AF    HBYHVTB 005500360039
BI00T32AF    @JTB2071- I    202207077283-5972                CONNECTOR FEMALE         CCN000048000000048000FN00000000020220701000048000NNM   20220422131555    3N0N  00000480000000550100000763032AF    HBYHVTB 005500360039
BI00T32AF    @JTB2071- I    202207077283-5976                CONNECTOR ASS'Y          CCN000052800000052800FN00000000020220701000052800NNM   20220422131555    3N0N  00000480000000840000001083632AF    HBYHVTB 005500360039
BI00T32AF    @JTB2071- I    202207077283-8179                CONNECTOR HOUSING        CCN000033600000033600FN00000000020220701000033600NNM   20220422131555    3N0N  00000240000000549600000804032AF    HBYHVTB 005500360039
BI00T32AF    @JTB2071- I    202207077287-6634                HOUSING FEMALE ASS'Y     CCN000002400000002400FN00000000020220701000002400NNM   20220422131555    3N0N  00000240000001088400001337032AF    HBYHVTB 005500360039
BI00A32A7    #ZZ2205CLMW    202204257123-6347                CONNECTOR HOUSING        CCN000064000000064000FN00000000020220501000064000NNE   20220422121720    2F0F  00000160000000647000000904832A7    ZZZZY   005500360039
BI00B32CJ    JQN2051        202205137327-6987-3W             BATTERY FUSE             CCN000002088000000144FN00000000020220501000000144NNMD0020220422170122    4N0N  00000007200000511300000711532CJ    QNYHVQN 005500360039
BI00B32CJ    JQN2054        202205137327-6987-3W             BATTERY FUSE             CCN000001008000001008FN00000000020220501000001008NNMD0020220422170141    4N0N  00000007200000511300000711532CJ    QNYHVQN 005500360039
BI00B32CJ    JQN2055        202205137327-6987-3W             BATTERY FUSE             CCN000001152000001152FN00000000020220501000001152NNMD0020220422170157    4N0N  00000007200000511300000711532CJ    QNYHVQN 005500360039
BI00B32CJ    JQN2061        202205137327-6987-3W             BATTERY FUSE             CCN000002808000002808FN00000000020220601000002808NNMD0020220422170215    4N0N  00000007200000511300000711532CJ    QNYHVQN 005500360039
BI00B32CJ    JQN2062        202205137327-6987-3W             BATTERY FUSE             CCN000001944000001944FN00000000020220601000001944NNMD0020220422170238    4N0N  00000007200000511300000711532CJ    QNYHVQN 005500360039
BI00B32CJ    JQN2063        202205137327-6987-3W             BATTERY FUSE             CCN000001944000001944FN00000000020220601000001944NNMD0020220422170304    4N0N  00000007200000511300000711532CJ    QNYHVQN 005500360039
BI00B32DE    TCT206A        202205127116-4031                TERMINAL                 CCN000007500000007500FN00000000020220601000007500NNE   20220422121720    4P0P  00000750000000619500000904732DE    TVYEV-TV006400630015
BI00B32DE    TCT206A        202205127116-6042                TERMINAL                 CCN000015000000015000FN00000000020220601000015000NNE   20220422121720    4P0P  00000300000000523800000856132DE    TVYEV-TV006400630015
BI00B32DE    TCT206A        202205127196-1103-02             TERMINAL                 CCN000022500000022500FN00000000020220601000022500NNE   20220422121720    4P0P  00002250000000429800000715032DE    TVYEV-TV006400630015
BI00T32DE    @ICT205A       202205097183-2510                HOUSING                  CCN000003000000003000FN00000000020220501000003000NNE   20220422121720    3F0F  00000300000001063500001159032DE    TVYEV-TV005400370024
BI00T32DE    @ICT205A       202205097283-1223-30             HOUSING SUB ASSEMBLY     CCN000004800000004800FN00000000020220501000004800NNE   20220422121720    3N0N  00000480000000749300000998032DE    TVYEV-TV005500360039
BI00A32D1    DFTC2226C      202204257196-1936-02             TERMINAL FEMALE          CCN000013500000013500FN00000000020220401000013500NNE   20220422160326    4P0P  00001350000000441500000726732D1    TOYOT-K 006400630015
BI00B32D2    DGTC2226       202205057289-3342-40             HOUSING FEMALE ASS'Y     CCN000002400000002400FN00000000020220701000002400NNMD0420220422130956    1N0N  00000240000000686400000901432D2    TGYOT-G 005500360039
BI00B32D2    DGTC2227       202205127289-3342-30             HOUSING FEMALE ASS'Y     CCN000028800000028800FN00000000020220701000028800NNMD0420220422130938    1N0N  00000240000000686400000901432D2    TGYOT-G 005500360039
BI00B32D2    DGTC2228       202205197017-1181-02             TERMINAL                 CCN000063000000063000FN00000000020220701000063000NNM   20220422133630    4P0P  00006300000001089900001266832D2    TGYOT-G 005100280028
BI00B32D2    DGTC2228       202205197114-4032                TERMINAL                 CCN000007500000007500FN00000000020220701000007500NNM   20220422133630    4P0P  00000750000000735000001063632D2    TGYOT-G 006400630017
BI00B32D2    DGTC2228       202205197114-4624-02             TERMINAL                 CCN000024000000024000FN00000000020220701000024000NNM   20220422133630    4P0P  00002400000000895200001188832D2    TGYOT-G 006400630015
BI00B32D2    DGTC2228       202205197114-5748-02             TERMINAL                 CCN000024000000024000FN00000000020220701000024000NNM   20220422133630    4P0P  00001200000000444000000737632D2    TGYOT-G 006400630015
BI00B32D2    DGTC2228       202205197114-5753-02             TERMINAL                 CCN000027000000027000FN00000000020220701000027000NNM   20220422133630    4P0P  00002700000000847800001141432D2    TGYOT-G 006400630015
BI00B32D2    DGTC2228       202205197116-2891-02             TERMINAL                 CCN000030000000030000FN00000000020220701000030000NNM   20220422133630    4P0P  00001500000000982500001145932D2    TGYOT-G 005100280028
BI00B32D2    DGTC2228       202205197116-4486-02             TERMINAL                 CCN000028000000028000FN00000000020220701000028000NNM   20220422133630    4P0P  00002800000000666400000995132D2    TGYOT-G 006400630017
BI00B32D2    DGTC2228       202205197116-5045-02             TERMINAL                 CCN000032000000032000FN00000000020220701000032000NNM   20220422133630    4P0P  00001600000000678400001007132D2    TGYOT-G 006400630017
BI00B32D2    DGTC2228       202205197116-5046-02             TERMINAL                 CCN000072000000072000FN00000000020220701000072000NNM   20220422133630    4P0P  00001200000000544800000873532D2    TGYOT-G 006400630017
BI00B32D2    DGTC2228       202205197116-6042                TERMINAL                 CCN000039000000039000FN00000000020220701000039000NNM   20220422133630    4P0P  00000300000000523800000856132D2    TGYOT-G 006400630015
BI00B32D2    DGTC2228       202205197126-8853-02             TERMINAL                 CCN000067500000067500FN00000000020220701000067500NNM   20220422133630    4P0P  00000750000000562500000847732D2    TGYOT-G 006400630015
BI00B32D2    DGTC2228       202205197126-8854-02             TERMINAL                 CCN000045000000045000FN00000000020220701000045000NNM   20220422133630    4P0P  00000750000000604500000889732D2    TGYOT-G 006400630015
BI00B32D2    DGTC2228       202205197126-8855-02             TERMINAL                 CCN000084000000084000FN00000000020220701000084000NNM   20220422133630    4P0P  00000600000000510600000795832D2    TGYOT-G 006400630015
BI00B32D2    DGTC2228       202205197158-3070-80             RUBBER STOPPER           CCN000040000000040000FN00000000020220701000040000NNM   20220422133630    1C0C  00004000000000276000000333332D2    TGYOT-G 002700430014
BI00B32D2    DGTC2228       202205197158-3166-60             WIRE SEAL                CCN000080000000080000FN00000000020220701000080000NNM   20220422133630    1C0C  00004000000000104000000152432D2    TGYOT-G 002700430014
BI00B32D2    DGTC2228       202205197158-3167-80             WIRE SEAL                CCN000060000000060000FN00000000020220701000060000NNM   20220422133630    1C0C  00002000000000048000000109032D2    TGYOT-G 002700430014
BI00B32D2    DGTC2228       202205197173-3291-40             LIF LEVER                CCN000004800000004800FN00000000020220701000004800NNM   20220422133630    1F0F  00000240000000867800001067832D2    TGYOT-G 005500360039
BI00B32D2    DGTC2228       202205197196-1325-02             TERMINAL FEMALE          CCN000060000000060000FN00000000020220701000060000NNM   20220422133630    4P0P  00006000000000450000000778732D2    TGYOT-G 006400630017
BI00B32D2    DGTC2228       202205197196-1326-02             TERMINAL FEMALE          CCN000060000000060000FN00000000020220701000060000NNM   20220422133630    4P0P  00006000000000456000000784732D2    TGYOT-G 006400630017
BI00B32D2    DGTC2228       202205197196-1936-02             TERMINAL FEMALE          CCN000027000000027000FN00000000020220701000027000NNM   20220422133630    4P0P  00001350000000441500000726732D2    TGYOT-G 006400630015
BI00B32D2    DGTC2228       202205197289-3342                HOUSING FEMALE ASS'Y     CCN000016800000016800FN00000000020220701000016800NNM   20220422133630    1N0N  00000240000000686400000901432D2    TGYOT-G 005500360039
BI00B32D2    DGTC2228       202205197289-3342-30             HOUSING FEMALE ASS'Y     CCN000002400000002400FN00000000020220701000002400NNM   20220422133630    1N0N  00000240000000686400000901432D2    TGYOT-G 005500360039
BI00B32D2    DGTC2228       202205197289-3342-40             HOUSING FEMALE ASS'Y     CCN000002400000002400FN00000000020220701000002400NNM   20220422133630    1N0N  00000240000000686400000901432D2    TGYOT-G 005500360039
BI00B32D2    DGTC2228       202205197289-3342-90             HOUSING FEMALE ASS'Y     CCN000002400000002400FN00000000020220701000002400NNM   20220422133630    1N0N  00000240000000686400000901432D2    TGYOT-G 005500360039
BI00B32D2    DGTC2228       202205197289-6518-30             HOUSING FEMALE ASS'Y     CCN000004800000004800FN00000000020220701000004800NNM   20220422133630    1N0N  00000120000000829200001049232D2    TGYOT-G 005500360039
BI00B32D2    DGTC2228       202205197296-0784-02             TERMINAL ALUMINIUM       CCN000024000000024000FN00000000020220701000024000NNM   20220422133630    4P0P  00002400000000480000000765232D2    TGYOT-G 006400630015
BI00B32D2    DGTC2228       202205197327-6801-3W             BATTERY FUSE             CCN000007680000007680FN00000000020220701000007680NNM   20220422133630    4N0N  00000009600000928400001143432D2    TGYOT-G 005500360039
BI00B32D2    DGTC2228       202205197327-6803                MULTI FUSE               CCN000002240000002240FN00000000020220701000002240NNM   20220422133630    4N0N  00000056000000854600001067032D2    TGYOT-G 005400370024
BI00B32D2    DGTC2228       202205197327-6806                MULTI FUSE               CCN000003360000003360FN00000000020220701000003360NNM   20220422133630    4N0N  00000056000000851500001063932D2    TGYOT-G 005400370024
BI00B32D2    DGTC2228       202205197327-6809                MULTI FUSE               CCN000002240000002240FN00000000020220701000002240NNM   20220422133630    4N0N  00000056000000849300001061732D2    TGYOT-G 005400370024
BI00B32D2    DGTC2228       202205197327-6930                MULTI FUSE               CCN000000560000000560FN00000000020220701000000560NNM   20220422133630    4N0N  00000056000000848900001031932D2    TGYOT-G 005400370024
BI00B32D2    DGTC2228       202205197388-2978-30             HOUSING MALE ASS'Y       CCN000012480000012480FN00000000020220701000012480NNM   20220422133630    1N0N  00000048000000742000001122032D2    TGYOT-G 005500360039
BI00B32D2    #DGTC2228      202205197158-3003-90             RUBBER STOPPER           CCN000100000000100000FN00000000020220701000100000NNM   20220422133626    2C0C  00002000000000250000000306032D2    TGYOT-G 002700430014
BI00B32D2    #DGTC2228      202205197158-3005-80             RUBBER STOPPER           CCN000002000000020000FN00000000020220701000020000NNM   20220422133626    2H0H  00002000000000210000000268732D2    TGYOT-G 002700430014
BI00B32D2    #DGTC2228      202205197158-3008-80             RUBBER STOPPER           CCN000060000000060000FN00000000020220701000060000NNM   20220422133626    2C0C  00002000000000288000000343032D2    TGYOT-G 004300270014
BI00B32D2    #DGTC2228      202205197158-3015-10             RUBBER STOPPER           CCN000010000000010000FN00000000020220701000010000NNM   20220422133626    2C0C  00001000000000419500000474032D2    TGYOT-G 002700430014
BI00B32D2    #DGTC2228      202205197158-3017                RUBBER STOPPER           CCN000010000000010000FN00000000020220701000010000NNM   20220422133626    2C0C  00001000000000375500000435032D2    TGYOT-G 002700430014
BI00B32D2    #DGTC2228      202205197172-5625-90             RUBBER STOPPER           CCN000020000000020000FN00000000020220701000020000NNM   20220422133626    2H0H  00002000000000082400000133832D2    TGYOT-G 004300270014
BI00B32D2    #DGTC2228      202205197172-5629-80             RUBBER STOPPER           CCN000260000000260000FN00000000020220701000260000NNM   20220422133626    2H0H  00002000000000060000000111132D2    TGYOT-G 004300270014
BI00B32D2    #DGTC2228      202205197172-5630-40             RUBBER STOPPER           CCN000300000000300000FN00000000020220701000300000NNM   20220422133626    2H0H  00002000000000044000000095132D2    TGYOT-G 004300270014
BI00B32D2    #DGTC2228      202205197172-5631-60             RUBBER STOPPER           CCN000060000000060000FN00000000020220701000060000NNM   20220422133626    2H0H  00002000000000042000000093132D2    TGYOT-G 004300270014
BI00B32D2    #DGTC2228      202205197172-5632-10             DUMMY PLUG               CCN000120000000120000FN00000000020220701000120000NNM   20220422133626    2H0H  00002000000000080400000131832D2    TGYOT-G 004300270014
BI00B32D2    #DGTC2228      202205197189-2978-30             HOUSING FEMALE           CCN000012000000012000FN00000000020220701000012000NNM   20220422133626    2F0F  00000150000000966900001096932D2    TGYOT-G 005400370024
BI00B32D2    #DGTC2228      202205197189-3033                HOUSING FEMALE           CCN000003200000003200FN00000000020220701000003200NNM   20220422133626    2F0F  00000160000001211200001431232D2    TGYOT-G 005500360039
BI00B32D2    #DGTC2228      202205197189-3036                HOUSING FEMALE           CCN000003200000003200FN00000000020220701000003200NNM   20220422133626    2F0F  00000160000000921600001141632D2    TGYOT-G 005500360039
BI00B32D2    #DGTC2228      202205197283-8226-30             CONNECTOR                CCN000004000000004000FN00000000020220701000004000NNM   20220422133626    2N0N  00000200000000820000001008032D2    TGYOT-G 005400370024
BI00B32D2    #DGTC2228      202205197289-2912-40             HOUSING FEMALE ASS'Y     CCN000002000000002000FN00000000020220701000002000NNM   20220422133626    2N0N  00000200000000804000000931032D2    TGYOT-G 005400370024
BI00B32D2    #DGTC2228      202205197289-3622-30             HOUSING FEMALE ASS'Y     CCN000000432000000432FN00000000020220701000000432NNM   20220422133626    2N0N  00000043200000839400001038432D2    TGYOT-G 005400370024
BI00T32H2    @TIJ206F-I     202206237282-1148                CONNECTOR ASS'Y          CCN000002400000002400FN00000000020220601000002400NNE   20220422121720    3N0N  00000080000001165300001404032H2    HVYHV   005500360039
BI00T32H2    @TIJ2071-I     202207077183-7770-40             HOUSING                  CCN000006000000006000FN00000000020220701000006000NNM   20220422121720    3F0F  00000600000001011000001161032H2    HVYHV   005400370024
BI00T32H2    @TIJ2075-I     202208047282-1025                HOUSING SUB ASSEMBLY     CCN000002400000002400FN00000000020220701000002400NNM   20220422121720    3N0N  00000240000001143800001390032H2    HVYHV   005500360039
BI00T32H2    @TIJ2071-I     202207077282-1064                CONNECTOR ASS'Y          CCN000001600000001600FN00000000020220701000001600NNM   20220422121720    3N0N  00000080000000907200001132432H2    HVYHV   005500360039
BI00T32H2    @TIJ2072-I     202207147282-1064                CONNECTOR ASS'Y          CCN000002400000002400FN00000000020220701000002400NNM   20220422121720    3N0N  00000080000000907200001132432H2    HVYHV   005500360039
BI00T32H2    @TIJ2073-I     202207217282-1064                CONNECTOR ASS'Y          CCN000002400000002400FN00000000020220701000002400NNM   20220422121720    3N0N  00000080000000907200001132432H2    HVYHV   005500360039
BI00T32H2    @TIJ2074-I     202207277282-1064                CONNECTOR ASS'Y          CCN000004800000004800FN00000000020220701000004800NNM   20220422121720    3N0N  00000080000000907200001132432H2    HVYHV   005500360039
BI00T32H2    @TIJ2075-I     202208047282-1064                CONNECTOR ASS'Y          CCN000002400000002400FN00000000020220701000002400NNM   20220422121720    3N0N  00000080000000907200001132432H2    HVYHV   005500360039
BI00T32H2    @TIJ2071-I     202207077282-1148                CONNECTOR ASS'Y          CCN000002400000002400FN00000000020220701000002400NNM   20220422121720    3N0N  00000080000001165300001404032H2    HVYHV   005500360039
BI00T32H2    @TIJ2072-I     202207147282-1148                CONNECTOR ASS'Y          CCN000002400000002400FN00000000020220701000002400NNM   20220422121720    3N0N  00000080000001165300001404032H2    HVYHV   005500360039
BI00T32H2    @TIJ2073-I     202207217282-1148                CONNECTOR ASS'Y          CCN000002400000002400FN00000000020220701000002400NNM   20220422121720    3N0N  00000080000001165300001404032H2    HVYHV   005500360039
BI00T32H2    @TIJ2074-I     202207277282-1148                CONNECTOR ASS'Y          CCN000004800000004800FN00000000020220701000004800NNM   20220422121720    3N0N  00000080000001165300001404032H2    HVYHV   005500360039
BI00T32H2    @TIJ2075-I     202208047282-1148                CONNECTOR ASS'Y          CCN000003200000003200FN00000000020220701000003200NNM   20220422121720    3N0N  00000080000001165300001404032H2    HVYHV   005500360039
BI00T32H2    @TIJ2073-I     202207217282-1148-40             CONNECTOR ASS'Y          CCN000003200000003200FN00000000020220701000003200NNM   20220422121720    3N0N  00000080000001171200001402032H2    HVYHV   005500360039
BI00T32H2    @TIJ2074-I     202207277282-1148-40             CONNECTOR ASS'Y          CCN000004800000004800FN00000000020220701000004800NNM   20220422121720    3N0N  00000080000001171200001402032H2    HVYHV   005500360039
BI00T32H2    @TIJ2075-I     202208047282-1148-40             CONNECTOR ASS'Y          CCN000002400000002400FN00000000020220701000002400NNM   20220422121720    3N0N  00000080000001171200001402032H2    HVYHV   005500360039
BI00T32H2    @TIJ2071-I     202207077283-1556                CONNECTOR ASS'Y          CCN000024000000024000FN00000000020220701000024000NNM   20220422121720    3N0N  00000240000000755000001014032H2    HVYHV   005500360039
BI00T32H2    @TIJ2072-I     202207147283-1556                CONNECTOR ASS'Y          CCN000024000000024000FN00000000020220701000024000NNM   20220422121720    3N0N  00000240000000755000001014032H2    HVYHV   005500360039
BI00T32H2    @TIJ2073-I     202207217283-1556                CONNECTOR ASS'Y          CCN000012000000012000FN00000000020220701000012000NNM   20220422121720    3N0N  00000240000000755000001014032H2    HVYHV   005500360039
BI00T32H2    @TIJ2074-I     202207277283-1556                CONNECTOR ASS'Y          CCN000012000000012000FN00000000020220701000012000NNM   20220422121720    3N0N  00000240000000755000001014032H2    HVYHV   005500360039
BI00T32H2    @TIJ2075-I     202208047283-1556                CONNECTOR ASS'Y          CCN000012000000012000FN00000000020220701000012000NNM   20220422121720    3N0N  00000240000000755000001014032H2    HVYHV   005500360039
BI00T32H2    @TIJ2074-I     202207277287-6634                HOUSING FEMALE ASS'Y     CCN000012000000012000FN00000000020220701000012000NNM   20220422121720    3N0N  00000240000001088400001337032H2    HVYHV   005500360039
BI00B32H2    TIJ2072        202206177017-1180-02             TERMINAL                 CCN000072000000072000FN00000000020220701000072000NNM   20220422133454    4P0P  00007200000001065600001229032H2    HVYHV   005100280028
BI00B32H2    TIJ2073        202206247017-1180-02             TERMINAL                 CCN000072000000072000FN00000000020220701000072000NNM   20220422133454    4P0P  00007200000001065600001229032H2    HVYHV   005100280028
BI00B32H2    TIJ2074        202207017017-1180-02             TERMINAL                 CCN000072000000072000FN00000000020220701000072000NNM   20220422133454    4P0P  00007200000001065600001229032H2    HVYHV   005100280028
BI00B32H2    TIJ2075        202207087017-1180-02             TERMINAL                 CCN000072000000072000FN00000000020220701000072000NNM   20220422133454    4P0P  00007200000001065600001229032H2    HVYHV   005100280028
BI00B32H2    TIJ2074        202207017017-1182-02             TERMINAL                 CCN000045000000045000FN00000000020220701000045000NNM   20220422133454    4P0P  00004500000001165500001318632H2    HVYHV   005100280028
BI00B32H2    TIJ2071        202206107017-1183-02             TERMINAL                 CCN000027000000027000FN00000000020220701000027000NNM   20220422133454    4P0P  00002700000001139400001307432H2    HVYHV   005100280028
BI00B32H2    TIJ2073        202206247017-1183-02             TERMINAL                 CCN000027000000027000FN00000000020220701000027000NNM   20220422133454    4P0P  00002700000001139400001307432H2    HVYHV   005100280028
BI00B32H2    TIJ2072        202206177114-4021                TERMINAL                 CCN000090000000090000FN00000000020220701000090000NNM   20220422133454    4P0P  00001500000000670500000964132H2    HVYHV   006400630015
BI00B32H2    TIJ2073        202206247114-4021                TERMINAL                 CCN000105000000105000FN00000000020220701000105000NNM   20220422133454    4P0P  00001500000000670500000964132H2    HVYHV   006400630015
BI00B32H2    TIJ2074        202207017114-4021                TERMINAL                 CCN000075000000075000FN00000000020220701000075000NNM   20220422133454    4P0P  00001500000000670500000964132H2    HVYHV   006400630015
BI00B32H2    TIJ2075        202207087114-4021                TERMINAL                 CCN000105000000105000FN00000000020220701000105000NNM   20220422133454    4P0P  00001500000000670500000964132H2    HVYHV   006400630015
BI00B32H2    TIJ2072        202206177114-4032                TERMINAL                 CCN000015000000015000FN00000000020220701000015000NNM   20220422133454    4P0P  00000750000000735000001063632H2    HVYHV   006400630017
BI00B32H2    TIJ2073        202206247114-4032                TERMINAL                 CCN000015000000015000FN00000000020220701000015000NNM   20220422133454    4P0P  00000750000000735000001063632H2    HVYHV   006400630017
BI00B32H2    TIJ2074        202207017114-4032                TERMINAL                 CCN000015000000015000FN00000000020220701000015000NNM   20220422133454    4P0P  00000750000000735000001063632H2    HVYHV   006400630017
BI00B32H2    TIJ2075        202207087114-4032                TERMINAL                 CCN000022500000022500FN00000000020220701000022500NNM   20220422133454    4P0P  00000750000000735000001063632H2    HVYHV   006400630017
BI00B32H2    TIJ2073        202206247114-4100-02             TERMINAL                 CCN000018000000018000FN00000000020220701000018000NNM   20220422133454    4P0P  00001800000000748800001077432H2    HVYHV   006400630017
BI00B32H2    TIJ2073        202206247114-4112-02             TERMINAL                 CCN000009000000009000FN00000000020220701000009000NNM   20220422133454    4P0P  00000900000000598500000927132H2    HVYHV   006400630017
BI00B32H2    TIJ2071        202206107114-4486-02             TERMINAL                 CCN000024000000024000FN00000000020220701000024000NNM   20220422133454    4P0P  00002400000000662400000956032H2    HVYHV   006400630015
BI00B32H2    TIJ2072        202206177114-4486-02             TERMINAL                 CCN000024000000024000FN00000000020220701000024000NNM   20220422133454    4P0P  00002400000000662400000956032H2    HVYHV   006400630015
BI00B32H2    TIJ2073        202206247114-4486-02             TERMINAL                 CCN000024000000024000FN00000000020220701000024000NNM   20220422133454    4P0P  00002400000000662400000956032H2    HVYHV   006400630015
BI00B32H2    TIJ2074        202207017114-4486-02             TERMINAL                 CCN000024000000024000FN00000000020220701000024000NNM   20220422133454    4P0P  00002400000000662400000956032H2    HVYHV   006400630015
BI00B32H2    TIJ2075        202207087114-4486-02             TERMINAL                 CCN000024000000024000FN00000000020220701000024000NNM   20220422133454    4P0P  00002400000000662400000956032H2    HVYHV   006400630015
BI00B32H2    TIJ2071        202206107114-4624-02             TERMINAL                 CCN000072000000072000FN00000000020220701000072000NNM   20220422133454    4P0P  00002400000000895200001188832H2    HVYHV   006400630015
BI00B32H2    TIJ2072        202206177114-4624-02             TERMINAL                 CCN000072000000072000FN00000000020220701000072000NNM   20220422133454    4P0P  00002400000000895200001188832H2    HVYHV   006400630015
BI00B32H2    TIJ2073        202206247114-4624-02             TERMINAL                 CCN000096000000096000FN00000000020220701000096000NNM   20220422133454    4P0P  00002400000000895200001188832H2    HVYHV   006400630015
BI00B32H2    TIJ2074        202207017114-4624-02             TERMINAL                 CCN000096000000096000FN00000000020220701000096000NNM   20220422133454    4P0P  00002400000000895200001188832H2    HVYHV   006400630015
BI00B32H2    TIJ2075        202207087114-4624-02             TERMINAL                 CCN000096000000096000FN00000000020220701000096000NNM   20220422133454    4P0P  00002400000000895200001188832H2    HVYHV   006400630015
BI00B32H2    TIJ2071        202206107114-4728-02             TERMINAL                 CCN000300000000300000FN00000000020220701000300000NNM   20220422133454    4P0P  00003000000000510000000804232H2    HVYHV   006400630015
BI00B32H2    TIJ2072        202206177114-4728-02             TERMINAL                 CCN001050000001050000FN00000000020220701001050000NNM   20220422133454    4P0P  00003000000000510000000804232H2    HVYHV   006400630015
BI00B32H2    TIJ2073        202206247114-4728-02             TERMINAL                 CCN001230000001230000FN00000000020220701001230000NNM   20220422133454    4P0P  00003000000000510000000804232H2    HVYHV   006400630015
BI00B32H2    TIJ2074        202207017114-4728-02             TERMINAL                 CCN001200000001200000FN00000000020220701001200000NNM   20220422133454    4P0P  00003000000000510000000804232H2    HVYHV   006400630015
BI00B32H2    TIJ2075        202207087114-4728-02             TERMINAL                 CCN001200000001200000FN00000000020220701001200000NNM   20220422133454    4P0P  00003000000000510000000804232H2    HVYHV   006400630015
BI00B32H2    TIJ2075        202207087114-4728-08             TERMINAL                 CCN000060000000060000FN00000000020220701000060000NNM   20220422133454    4P0P  00003000000000507000000801232H2    HVYHV   006400630015
BI00B32H2    TIJ2071        202206107114-4729-02             TERMINAL                 CCN000090000000090000FN00000000020220701000090000NNM   20220422133454    4P0P  00003000000000516000000810232H2    HVYHV   006400630015
BI00B32H2    TIJ2072        202206177114-4729-02             TERMINAL                 CCN000270000000270000FN00000000020220701000270000NNM   20220422133454    4P0P  00003000000000516000000810232H2    HVYHV   006400630015
BI00B32H2    TIJ2073        202206247114-4729-02             TERMINAL                 CCN000270000000270000FN00000000020220701000270000NNM   20220422133454    4P0P  00003000000000516000000810232H2    HVYHV   006400630015
BI00B32H2    TIJ2074        202207017114-4729-02             TERMINAL                 CCN000240000000240000FN00000000020220701000240000NNM   20220422133454    4P0P  00003000000000516000000810232H2    HVYHV   006400630015
BI00B32H2    TIJ2075        202207087114-4729-02             TERMINAL                 CCN000300000000300000FN00000000020220701000300000NNM   20220422133454    4P0P  00003000000000516000000810232H2    HVYHV   006400630015
BI00B32H2    TIJ2075        202207087114-5096-08             TERMINAL                 CCN000030000000030000FN00000000020220701000030000NNM   20220422133454    4P0P  00003000000000498000000792232H2    HVYHV   006400630015
BI00B32H2    TIJ2072        202206177114-5746-02             TERMINAL                 CCN000042000000042000FN00000000020220701000042000NNM   20220422133454    4P0P  00002100000000695100000988732H2    HVYHV   006400630015
BI00B32H2    TIJ2073        202206247114-5746-02             TERMINAL                 CCN000168000000168000FN00000000020220701000168000NNM   20220422133454    4P0P  00002100000000695100000988732H2    HVYHV   006400630015
BI00B32H2    TIJ2074        202207017114-5746-02             TERMINAL                 CCN000168000000168000FN00000000020220701000168000NNM   20220422133454    4P0P  00002100000000695100000988732H2    HVYHV   006400630015
BI00B32H2    TIJ2075        202207087114-5746-02             TERMINAL                 CCN000168000000168000FN00000000020220701000168000NNM   20220422133454    4P0P  00002100000000695100000988732H2    HVYHV   006400630015
BI00B32H2    TIJ2072        202206177114-5747-02             TERMINAL                 CCN000270000000270000FN00000000020220701000270000NNM   20220422133454    4P0P  00001800000000626400000920032H2    HVYHV   006400630015
BI00B32H2    TIJ2073        202206247114-5747-02             TERMINAL                 CCN000360000000360000FN00000000020220701000360000NNM   20220422133454    4P0P  00001800000000626400000920032H2    HVYHV   006400630015
BI00B32H2    TIJ2074        202207017114-5747-02             TERMINAL                 CCN000324000000324000FN00000000020220701000324000NNM   20220422133454    4P0P  00001800000000626400000920032H2    HVYHV   006400630015
BI00B32H2    TIJ2075        202207087114-5747-02             TERMINAL                 CCN000432000000432000FN00000000020220701000432000NNM   20220422133454    4P0P  00001800000000626400000920032H2    HVYHV   006400630015
BI00B32H2    TIJ2072        202206177114-5748-02             TERMINAL                 CCN000108000000108000FN00000000020220701000108000NNM   20220422133454    4P0P  00001200000000444000000737632H2    HVYHV   006400630015
BI00B32H2    TIJ2073        202206247114-5748-02             TERMINAL                 CCN000156000000156000FN00000000020220701000156000NNM   20220422133454    4P0P  00001200000000444000000737632H2    HVYHV   006400630015
BI00B32H2    TIJ2074        202207017114-5748-02             TERMINAL                 CCN000132000000132000FN00000000020220701000132000NNM   20220422133454    4P0P  00001200000000444000000737632H2    HVYHV   006400630015
BI00B32H2    TIJ2075        202207087114-5748-02             TERMINAL                 CCN000156000000156000FN00000000020220701000156000NNM   20220422133454    4P0P  00001200000000444000000737632H2    HVYHV   006400630015
BI00B32H2    TIJ2071        202206107114-5753-02             TERMINAL                 CCN000081000000081000FN00000000020220701000081000NNM   20220422133454    4P0P  00002700000000847800001141432H2    HVYHV   006400630015
BI00B32H2    TIJ2072        202206177114-5753-02             TERMINAL                 CCN000162000000162000FN00000000020220701000162000NNM   20220422133454    4P0P  00002700000000847800001141432H2    HVYHV   006400630015
BI00B32H2    TIJ2073        202206247114-5753-02             TERMINAL                 CCN000162000000162000FN00000000020220701000162000NNM   20220422133454    4P0P  00002700000000847800001141432H2    HVYHV   006400630015
BI00B32H2    TIJ2074        202207017114-5753-02             TERMINAL                 CCN000162000000162000FN00000000020220701000162000NNM   20220422133454    4P0P  00002700000000847800001141432H2    HVYHV   006400630015
BI00B32H2    TIJ2075        202207087114-5753-02             TERMINAL                 CCN000189000000189000FN00000000020220701000189000NNM   20220422133454    4P0P  00002700000000847800001141432H2    HVYHV   006400630015
BI00B32H2    TIJ2072        202206177116-1230                TERMINAL                 CCN000013500000013500FN00000000020220701000013500NNM   20220422133454    4P0P  00001350000000664200000952432H2    HVYHV   006400630015
BI00B32H2    TIJ2072        202206177116-1301                TERMINAL                 CCN000015000000015000FN00000000020220701000015000NNM   20220422133454    4P0P  00001500000000487500000772732H2    HVYHV   006400630015
BI00B32H2    TIJ2073        202206247116-2891-02             TERMINAL                 CCN000015000000015000FN00000000020220701000015000NNM   20220422133454    4P0P  00001500000000982500001145932H2    HVYHV   005100280028
BI00B32H2    TIJ2074        202207017116-2891-02             TERMINAL                 CCN000015000000015000FN00000000020220701000015000NNM   20220422133454    4P0P  00001500000000982500001145932H2    HVYHV   005100280028
BI00B32H2    TIJ2075        202207087116-2891-02             TERMINAL                 CCN000015000000015000FN00000000020220701000015000NNM   20220422133454    4P0P  00001500000000982500001145932H2    HVYHV   005100280028
BI00B32H2    TIJ2072        202206177116-2892-02             TERMINAL                 CCN000012000000012000FN00000000020220701000012000NNM   20220422133454    4P0P  00001200000000818400000981832H2    HVYHV   005100280028
BI00B32H2    TIJ2074        202207017116-2892-02             TERMINAL                 CCN000012000000012000FN00000000020220701000012000NNM   20220422133454    4P0P  00001200000000818400000981832H2    HVYHV   005100280028
BI00B32H2    TIJ2073        202206247116-2893-02             TERMINAL                 CCN000012000000012000FN00000000020220701000012000NNM   20220422133454    4P0P  00001200000000895200001058632H2    HVYHV   005100280028
BI00B32H2    TIJ2074        202207017116-2893-02             TERMINAL                 CCN000012000000012000FN00000000020220701000012000NNM   20220422133454    4P0P  00001200000000895200001058632H2    HVYHV   005100280028
BI00B32H2    TIJ2074        202207017116-3153-08             TERMINAL                 CCN000027000000027000FN00000000020220701000027000NNM   20220422133454    4P0P  00002700000000461700000746932H2    HVYHV   006400630015
BI00B32H2    TIJ2075        202207087116-3153-08             TERMINAL                 CCN000027000000027000FN00000000020220701000027000NNM   20220422133454    4P0P  00002700000000461700000746932H2    HVYHV   006400630015
BI00B32H2    TIJ2071        202206107116-3154-08             TERMINAL                 CCN000027000000027000FN00000000020220701000027000NNM   20220422133454    4P0P  00002700000000475200000760432H2    HVYHV   006400630015
BI00B32H2    TIJ2072        202206177116-3154-08             TERMINAL                 CCN000027000000027000FN00000000020220701000027000NNM   20220422133454    4P0P  00002700000000475200000760432H2    HVYHV   006400630015
BI00B32H2    TIJ2073        202206247116-3154-08             TERMINAL                 CCN000054000000054000FN00000000020220701000054000NNM   20220422133454    4P0P  00002700000000475200000760432H2    HVYHV   006400630015
BI00B32H2    TIJ2074        202207017116-3154-08             TERMINAL                 CCN000027000000027000FN00000000020220701000027000NNM   20220422133454    4P0P  00002700000000475200000760432H2    HVYHV   006400630015
BI00B32H2    TIJ2075        202207087116-3154-08             TERMINAL                 CCN000054000000054000FN00000000020220701000054000NNM   20220422133454    4P0P  00002700000000475200000760432H2    HVYHV   006400630015
BI00B32H2    TIJ2073        202206247116-4026                TERMINAL                 CCN000016000000016000FN00000000020220701000016000NNM   20220422133454    4P0P  00001600000000664000000994332H2    HVYHV   006400630017
BI00B32H2    TIJ2075        202207087116-4026                TERMINAL                 CCN000016000000016000FN00000000020220701000016000NNM   20220422133454    4P0P  00001600000000664000000994332H2    HVYHV   006400630017
BI00B32H2    TIJ2071        202206107116-4032                TERMINAL                 CCN000042000000042000FN00000000020220701000042000NNM   20220422133454    4P0P  00000600000000532800000818032H2    HVYHV   006400630015
BI00B32H2    TIJ2072        202206177116-4032                TERMINAL                 CCN000048000000048000FN00000000020220701000048000NNM   20220422133454    4P0P  00000600000000532800000818032H2    HVYHV   006400630015
BI00B32H2    TIJ2073        202206247116-4032                TERMINAL                 CCN000054000000054000FN00000000020220701000054000NNM   20220422133454    4P0P  00000600000000532800000818032H2    HVYHV   006400630015
BI00B32H2    TIJ2074        202207017116-4032                TERMINAL                 CCN000048000000048000FN00000000020220701000048000NNM   20220422133454    4P0P  00000600000000532800000818032H2    HVYHV   006400630015
BI00B32H2    TIJ2075        202207087116-4032                TERMINAL                 CCN000048000000048000FN00000000020220701000048000NNM   20220422133454    4P0P  00000600000000532800000818032H2    HVYHV   006400630015
BI00B32H2    TIJ2071        202206107116-4037                TERMINAL                 CCN000006000000006000FN00000000020220701000006000NNM   20220422133454    4P0P  00000600000000600000000894232H2    HVYHV   006400630015
BI00B32H2    TIJ2072        202206177116-4037                TERMINAL                 CCN000012000000012000FN00000000020220701000012000NNM   20220422133454    4P0P  00000600000000600000000894232H2    HVYHV   006400630015
BI00B32H2    TIJ2073        202206247116-4037                TERMINAL                 CCN000012000000012000FN00000000020220701000012000NNM   20220422133454    4P0P  00000600000000600000000894232H2    HVYHV   006400630015
BI00B32H2    TIJ2074        202207017116-4037                TERMINAL                 CCN000006000000006000FN00000000020220701000006000NNM   20220422133454    4P0P  00000600000000600000000894232H2    HVYHV   006400630015
BI00B32H2    TIJ2075        202207087116-4037                TERMINAL                 CCN000012000000012000FN00000000020220701000012000NNM   20220422133454    4P0P  00000600000000600000000894232H2    HVYHV   006400630015
BI00B32H2    TIJ2071        202206107116-4100-02             TERMINAL                 CCN000015000000015000FN00000000020220701000015000NNM   20220422133454    4P0P  00001500000000696000000990232H2    HVYHV   006400630015
BI00B32H2    TIJ2072        202206177116-4100-02             TERMINAL                 CCN000015000000015000FN00000000020220701000015000NNM   20220422133454    4P0P  00001500000000696000000990232H2    HVYHV   006400630015
BI00B32H2    TIJ2073        202206247116-4100-02             TERMINAL                 CCN000015000000015000FN00000000020220701000015000NNM   20220422133454    4P0P  00001500000000696000000990232H2    HVYHV   006400630015
BI00B32H2    TIJ2074        202207017116-4100-02             TERMINAL                 CCN000015000000015000FN00000000020220701000015000NNM   20220422133454    4P0P  00001500000000696000000990232H2    HVYHV   006400630015
BI00B32H2    TIJ2075        202207087116-4100-02             TERMINAL                 CCN000015000000015000FN00000000020220701000015000NNM   20220422133454    4P0P  00001500000000696000000990232H2    HVYHV   006400630015
BI00B32H2    TIJ2072        202206177116-4101-02             TERMINAL                 CCN000012000000012000FN00000000020220701000012000NNM   20220422133454    4P0P  00001200000000582000000876232H2    HVYHV   006400630015
BI00B32H2    TIJ2074        202207017116-4101-02             TERMINAL                 CCN000012000000012000FN00000000020220701000012000NNM   20220422133454    4P0P  00001200000000582000000876232H2    HVYHV   006400630015
BI00B32H2    TIJ2072        202206177116-4110-02             TERMINAL                 CCN000009000000009000FN00000000020220701000009000NNM   20220422133454    4P0P  00000900000000594000000882232H2    HVYHV   006400630015
BI00B32H2    TIJ2075        202207087116-4110-02             TERMINAL                 CCN000009000000009000FN00000000020220701000009000NNM   20220422133454    4P0P  00000900000000594000000882232H2    HVYHV   006400630015
BI00B32H2    TIJ2072        202206177116-4111-02             TERMINAL                 CCN000007500000007500FN00000000020220701000007500NNM   20220422133454    4P0P  00000750000000529500000817732H2    HVYHV   006400630015
BI00B32H2    TIJ2074        202207017116-4111-02             TERMINAL                 CCN000007500000007500FN00000000020220701000007500NNM   20220422133454    4P0P  00000750000000529500000817732H2    HVYHV   006400630015
BI00B32H2    TIJ2075        202207087116-4111-02             TERMINAL                 CCN000007500000007500FN00000000020220701000007500NNM   20220422133454    4P0P  00000750000000529500000817732H2    HVYHV   006400630015
BI00B32H2    TIJ2071        202206107116-4112-02             TERMINAL                 CCN000006000000006000FN00000000020220701000006000NNM   20220422133454    4P0P  00000600000000450000000738232H2    HVYHV   006400630015
BI00B32H2    TIJ2073        202206247116-4112-02             TERMINAL                 CCN000006000000006000FN00000000020220701000006000NNM   20220422133454    4P0P  00000600000000450000000738232H2    HVYHV   006400630015
BI00B32H2    TIJ2075        202207087116-4112-02             TERMINAL                 CCN000006000000006000FN00000000020220701000006000NNM   20220422133454    4P0P  00000600000000450000000738232H2    HVYHV   006400630015
BI00B32H2    TIJ2073        202206247116-4121-02             TERMINAL                 CCN000004500000004500FN00000000020220701000004500NNM   20220422133454    4P0P  00000450000000618800000912432H2    HVYHV   006400630015
BI00B32H2    TIJ2073        202206247116-4122-02             TERMINAL                 CCN000004500000004500FN00000000020220701000004500NNM   20220422133454    4P0P  00000450000000656600000950232H2    HVYHV   006400630015
BI00B32H2    TIJ2074        202207017116-4231-02             TERMINAL                 CCN000052000000052000FN00000000020220701000052000NNM   20220422133454    4P0P  00002600000000683800001012532H2    HVYHV   006400630017
BI00B32H2    TIJ2072        202206177116-4486-02             TERMINAL                 CCN000112000000112000FN00000000020220701000112000NNM   20220422133454    4P0P  00002800000000666400000995132H2    HVYHV   006400630017
BI00B32H2    TIJ2073        202206247116-4486-02             TERMINAL                 CCN000168000000168000FN00000000020220701000168000NNM   20220422133454    4P0P  00002800000000666400000995132H2    HVYHV   006400630017
BI00B32H2    TIJ2074        202207017116-4486-02             TERMINAL                 CCN000196000000196000FN00000000020220701000196000NNM   20220422133454    4P0P  00002800000000666400000995132H2    HVYHV   006400630017
BI00B32H2    TIJ2075        202207087116-4486-02             TERMINAL                 CCN000168000000168000FN00000000020220701000168000NNM   20220422133454    4P0P  00002800000000666400000995132H2    HVYHV   006400630017
BI00B32H2    TIJ2071        202206107116-5035-02             TERMINAL                 CCN000090000000090000FN00000000020220701000090000NNM   20220422133454    4P0P  00001500000000543000000828232H2    HVYHV   006400630015
BI00B32H2    TIJ2072        202206177116-5035-02             TERMINAL                 CCN000180000000180000FN00000000020220701000180000NNM   20220422133454    4P0P  00001500000000543000000828232H2    HVYHV   006400630015
BI00B32H2    TIJ2073        202206247116-5035-02             TERMINAL                 CCN000195000000195000FN00000000020220701000195000NNM   20220422133454    4P0P  00001500000000543000000828232H2    HVYHV   006400630015
BI00B32H2    TIJ2074        202207017116-5035-02             TERMINAL                 CCN000210000000210000FN00000000020220701000210000NNM   20220422133454    4P0P  00001500000000543000000828232H2    HVYHV   006400630015
BI00B32H2    TIJ2075        202207087116-5035-02             TERMINAL                 CCN000210000000210000FN00000000020220701000210000NNM   20220422133454    4P0P  00001500000000543000000828232H2    HVYHV   006400630015
BI00B32H2    TIJ2072        202206177116-5042-02             TERMINAL                 CCN000162000000162000FN00000000020220701000162000NNM   20220422133454    4P0P  00001350000000560300000845532H2    HVYHV   006400630015
BI00B32H2    TIJ2073        202206247116-5042-02             TERMINAL                 CCN000189000000189000FN00000000020220701000189000NNM   20220422133454    4P0P  00001350000000560300000845532H2    HVYHV   006400630015
BI00B32H2    TIJ2074        202207017116-5042-02             TERMINAL                 CCN000162000000162000FN00000000020220701000162000NNM   20220422133454    4P0P  00001350000000560300000845532H2    HVYHV   006400630015
BI00B32H2    TIJ2075        202207087116-5042-02             TERMINAL                 CCN000216000000216000FN00000000020220701000216000NNM   20220422133454    4P0P  00001350000000560300000845532H2    HVYHV   006400630015
BI00B32H2    TIJ2071        202206107116-5043-02             TERMINAL FEMALE          CCN000060000000060000FN00000000020220701000060000NNM   20220422133454    4P0P  00001200000000559200000844432H2    HVYHV   006400630015
BI00B32H2    TIJ2072        202206177116-5043-02             TERMINAL FEMALE          CCN000120000000120000FN00000000020220701000120000NNM   20220422133454    4P0P  00001200000000559200000844432H2    HVYHV   006400630015
BI00B32H2    TIJ2073        202206247116-5043-02             TERMINAL FEMALE          CCN000120000000120000FN00000000020220701000120000NNM   20220422133454    4P0P  00001200000000559200000844432H2    HVYHV   006400630015
BI00B32H2    TIJ2074        202207017116-5043-02             TERMINAL FEMALE          CCN000084000000084000FN00000000020220701000084000NNM   20220422133454    4P0P  00001200000000559200000844432H2    HVYHV   006400630015
BI00B32H2    TIJ2075        202207087116-5043-02             TERMINAL FEMALE          CCN000108000000108000FN00000000020220701000108000NNM   20220422133454    4P0P  00001200000000559200000844432H2    HVYHV   006400630015
BI00B32H2    TIJ2071        202206107116-5044-02             TERMINAL                 CCN000080000000080000FN00000000020220701000080000NNM   20220422133454    4P0P  00001600000000641600000986332H2    HVYHV   006400630017
BI00B32H2    TIJ2072        202206177116-5044-02             TERMINAL                 CCN000224000000224000FN00000000020220701000224000NNM   20220422133454    4P0P  00001600000000641600000986332H2    HVYHV   006400630017
BI00B32H2    TIJ2073        202206247116-5044-02             TERMINAL                 CCN000240000000240000FN00000000020220701000240000NNM   20220422133454    4P0P  00001600000000641600000986332H2    HVYHV   006400630017
BI00B32H2    TIJ2074        202207017116-5044-02             TERMINAL                 CCN000224000000224000FN00000000020220701000224000NNM   20220422133454    4P0P  00001600000000641600000986332H2    HVYHV   006400630017
BI00B32H2    TIJ2075        202207087116-5044-02             TERMINAL                 CCN000256000000256000FN00000000020220701000256000NNM   20220422133454    4P0P  00001600000000641600000986332H2    HVYHV   006400630017
BI00B32H2    TIJ2071        202206107116-5045-02             TERMINAL                 CCN000016000000016000FN00000000020220701000016000NNM   20220422133454    4P0P  00001600000000678400001007132H2    HVYHV   006400630017
BI00B32H2    TIJ2072        202206177116-5045-02             TERMINAL                 CCN000064000000064000FN00000000020220701000064000NNM   20220422133454    4P0P  00001600000000678400001007132H2    HVYHV   006400630017
BI00B32H2    TIJ2073        202206247116-5045-02             TERMINAL                 CCN000064000000064000FN00000000020220701000064000NNM   20220422133454    4P0P  00001600000000678400001007132H2    HVYHV   006400630017
BI00B32H2    TIJ2074        202207017116-5045-02             TERMINAL                 CCN000064000000064000FN00000000020220701000064000NNM   20220422133454    4P0P  00001600000000678400001007132H2    HVYHV   006400630017
BI00B32H2    TIJ2075        202207087116-5045-02             TERMINAL                 CCN000080000000080000FN00000000020220701000080000NNM   20220422133454    4P0P  00001600000000678400001007132H2    HVYHV   006400630017
BI00B32H2    TIJ2071        202206107116-5046-02             TERMINAL                 CCN000012000000012000FN00000000020220701000012000NNM   20220422133454    4P0P  00001200000000544800000873532H2    HVYHV   006400630017
BI00B32H2    TIJ2072        202206177116-5046-02             TERMINAL                 CCN000024000000024000FN00000000020220701000024000NNM   20220422133454    4P0P  00001200000000544800000873532H2    HVYHV   006400630017
BI00B32H2    TIJ2073        202206247116-5046-02             TERMINAL                 CCN000036000000036000FN00000000020220701000036000NNM   20220422133454    4P0P  00001200000000544800000873532H2    HVYHV   006400630017
BI00B32H2    TIJ2074        202207017116-5046-02             TERMINAL                 CCN000024000000024000FN00000000020220701000024000NNM   20220422133454    4P0P  00001200000000544800000873532H2    HVYHV   006400630017
BI00B32H2    TIJ2075        202207087116-5046-02             TERMINAL                 CCN000036000000036000FN00000000020220701000036000NNM   20220422133454    4P0P  00001200000000544800000873532H2    HVYHV   006400630017
BI00B32H2    TIJ2072        202206177116-5750-02             TERMINAL                 CCN000360000000360000FN00000000020220701000360000NNM   20220422133454    4P0P  00001500000000457500000742732H2    HVYHV   006400630015
BI00B32H2    TIJ2073        202206247116-5750-02             TERMINAL                 CCN000480000000480000FN00000000020220701000480000NNM   20220422133454    4P0P  00001500000000457500000742732H2    HVYHV   006400630015
BI00B32H2    TIJ2074        202207017116-5750-02             TERMINAL                 CCN000480000000480000FN00000000020220701000480000NNM   20220422133454    4P0P  00001500000000457500000742732H2    HVYHV   006400630015
BI00B32H2    TIJ2075        202207087116-5750-02             TERMINAL                 CCN000525000000525000FN00000000020220701000525000NNM   20220422133454    4P0P  00001500000000457500000742732H2    HVYHV   006400630015
BI00B32H2    TIJ2072        202206177116-5752-02             TERMINAL                 CCN000231000000231000FN00000000020220701000231000NNM   20220422133454    4P0P  00002100000000571200000856432H2    HVYHV   006400630015
BI00B32H2    TIJ2073        202206247116-5752-02             TERMINAL                 CCN000336000000336000FN00000000020220701000336000NNM   20220422133454    4P0P  00002100000000571200000856432H2    HVYHV   006400630015
BI00B32H2    TIJ2074        202207017116-5752-02             TERMINAL                 CCN000378000000378000FN00000000020220701000378000NNM   20220422133454    4P0P  00002100000000571200000856432H2    HVYHV   006400630015
BI00B32H2    TIJ2075        202207087116-5752-02             TERMINAL                 CCN000357000000357000FN00000000020220701000357000NNM   20220422133454    4P0P  00002100000000571200000856432H2    HVYHV   006400630015
BI00B32H2    TIJ2073        202206247116-6041                TERMINAL                 CCN000009000000009000FN00000000020220701000009000NNM   20220422133454    4P0P  00000450000000716000001009632H2    HVYHV   006400630015
BI00B32H2    TIJ2074        202207017116-6041                TERMINAL                 CCN000009000000009000FN00000000020220701000009000NNM   20220422133454    4P0P  00000450000000716000001009632H2    HVYHV   006400630015
BI00B32H2    TIJ2075        202207087116-6041                TERMINAL                 CCN000009000000009000FN00000000020220701000009000NNM   20220422133454    4P0P  00000450000000716000001009632H2    HVYHV   006400630015
BI00B32H2    TIJ2074        202207017116-6042                TERMINAL                 CCN000006000000006000FN00000000020220701000006000NNM   20220422133454    4P0P  00000300000000523800000856132H2    HVYHV   006400630015
BI00B32H2    TIJ2075        202207087116-6042                TERMINAL                 CCN000006000000006000FN00000000020220701000006000NNM   20220422133454    4P0P  00000300000000523800000856132H2    HVYHV   006400630015
BI00B32H2    TIJ2073        202206247126-8853-02             TERMINAL                 CCN000022500000022500FN00000000020220701000022500NNM   20220422133454    4P0P  00000750000000562500000847732H2    HVYHV   006400630015
BI00B32H2    TIJ2074        202207017126-8853-02             TERMINAL                 CCN000015000000015000FN00000000020220701000015000NNM   20220422133454    4P0P  00000750000000562500000847732H2    HVYHV   006400630015
BI00B32H2    TIJ2075        202207087126-8853-02             TERMINAL                 CCN000022500000022500FN00000000020220701000022500NNM   20220422133454    4P0P  00000750000000562500000847732H2    HVYHV   006400630015
BI00B32H2    TIJ2072        202206177126-8854-02             TERMINAL                 CCN000007500000007500FN00000000020220701000007500NNM   20220422133454    4P0P  00000750000000604500000889732H2    HVYHV   006400630015
BI00B32H2    TIJ2073        202206247126-8854-02             TERMINAL                 CCN000007500000007500FN00000000020220701000007500NNM   20220422133454    4P0P  00000750000000604500000889732H2    HVYHV   006400630015
BI00B32H2    TIJ2074        202207017126-8854-02             TERMINAL                 CCN000007500000007500FN00000000020220701000007500NNM   20220422133454    4P0P  00000750000000604500000889732H2    HVYHV   006400630015
BI00B32H2    TIJ2075        202207087126-8854-02             TERMINAL                 CCN000007500000007500FN00000000020220701000007500NNM   20220422133454    4P0P  00000750000000604500000889732H2    HVYHV   006400630015
BI00B32H2    TIJ2072        202206177126-8855-02             TERMINAL                 CCN000006000000006000FN00000000020220701000006000NNM   20220422133454    4P0P  00000600000000510600000795832H2    HVYHV   006400630015
BI00B32H2    TIJ2074        202207017126-8855-02             TERMINAL                 CCN000006000000006000FN00000000020220701000006000NNM   20220422133454    4P0P  00000600000000510600000795832H2    HVYHV   006400630015
BI00B32H2    TIJ2072        202206177158-3006-90             RUBBER STOPPER           CCN000060000000060000FN00000000020220701000060000NNM   20220422133454    1C0C  00002000000000330600000386032H2    HVYHV   002700430014
BI00B32H2    TIJ2073        202206247158-3006-90             RUBBER STOPPER           CCN000080000000080000FN00000000020220701000080000NNM   20220422133454    1C0C  00002000000000330600000386032H2    HVYHV   002700430014
BI00B32H2    TIJ2074        202207017158-3006-90             RUBBER STOPPER           CCN000060000000060000FN00000000020220701000060000NNM   20220422133454    1C0C  00002000000000330600000386032H2    HVYHV   002700430014
BI00B32H2    TIJ2075        202207087158-3006-90             RUBBER STOPPER           CCN000080000000080000FN00000000020220701000080000NNM   20220422133454    1C0C  00002000000000330600000386032H2    HVYHV   002700430014
BI00B32H2    TIJ2072        202206177158-3009-60             RUBBER STOPPER           CCN000280000000280000FN00000000020220701000280000NNM   20220422133454    1C0C  00002000000000338000000386232H2    HVYHV   002700430014
BI00B32H2    TIJ2073        202206247158-3009-60             RUBBER STOPPER           CCN000240000000240000FN00000000020220701000240000NNM   20220422133454    1C0C  00002000000000338000000386232H2    HVYHV   002700430014
BI00B32H2    TIJ2074        202207017158-3009-60             RUBBER STOPPER           CCN000260000000260000FN00000000020220701000260000NNM   20220422133454    1C0C  00002000000000338000000386232H2    HVYHV   002700430014
BI00B32H2    TIJ2075        202207087158-3009-60             RUBBER STOPPER           CCN000260000000260000FN00000000020220701000260000NNM   20220422133454    1C0C  00002000000000338000000386232H2    HVYHV   002700430014
BI00B32H2    TIJ2072        202206177158-3070-80             RUBBER STOPPER           CCN000080000000080000FN00000000020220701000080000NNM   20220422133454    1C0C  00004000000000276000000333332H2    HVYHV   002700430014
BI00B32H2    TIJ2073        202206247158-3070-80             RUBBER STOPPER           CCN000120000000120000FN00000000020220701000120000NNM   20220422133454    1C0C  00004000000000276000000333332H2    HVYHV   002700430014
BI00B32H2    TIJ2074        202207017158-3070-80             RUBBER STOPPER           CCN000120000000120000FN00000000020220701000120000NNM   20220422133454    1C0C  00004000000000276000000333332H2    HVYHV   002700430014
BI00B32H2    TIJ2075        202207087158-3070-80             RUBBER STOPPER           CCN000120000000120000FN00000000020220701000120000NNM   20220422133454    1C0C  00004000000000276000000333332H2    HVYHV   002700430014
BI00B32H2    TIJ2074        202207017158-3165-90             WIRE SEAL                CCN000240000000240000FN00000000020220701000240000NNM   20220422133454    1C0C  00004000000000124000000172432H2    HVYHV   004300270014
BI00B32H2    TIJ2075        202207087158-3165-90             WIRE SEAL                CCN000160000000160000FN00000000020220701000160000NNM   20220422133454    1C0C  00004000000000124000000172432H2    HVYHV   004300270014
BI00B32H2    TIJ2071        202206107158-3169-40             SEALING PLUG             CCN000080000000080000FN00000000020220701000080000NNM   20220422133454    1C0C  00004000000000156000000204132H2    HVYHV   004300260014
BI00B32H2    TIJ2073        202206247195-1479-02             TERMINAL MALE            CCN000096000000096000FN00000000020220701000096000NNM   20220422133454    4P0P  00002400000000420000000714232H2    HVYHV   006400630015
BI00B32H2    TIJ2074        202207017195-1479-02             TERMINAL MALE            CCN000120000000120000FN00000000020220701000120000NNM   20220422133454    4P0P  00002400000000420000000714232H2    HVYHV   006400630015
BI00B32H2    TIJ2075        202207087195-1479-02             TERMINAL MALE            CCN000120000000120000FN00000000020220701000120000NNM   20220422133454    4P0P  00002400000000420000000714232H2    HVYHV   006400630015
BI00B32H2    TIJ2073        202206247195-1480-02             TERMINAL MALE            CCN000024000000024000FN00000000020220701000024000NNM   20220422133454    4P0P  00002400000000422400000716632H2    HVYHV   006400630015
BI00B32H2    TIJ2074        202207017195-1480-02             TERMINAL MALE            CCN000024000000024000FN00000000020220701000024000NNM   20220422133454    4P0P  00002400000000422400000716632H2    HVYHV   006400630015
BI00B32H2    TIJ2073        202206247195-1933-02             TERMINAL MALE            CCN000024000000024000FN00000000020220701000024000NNM   20220422133454    4P0P  00002400000000777600001071232H2    HVYHV   006400630015
BI00B32H2    TIJ2075        202207087195-1933-02             TERMINAL MALE            CCN000024000000024000FN00000000020220701000024000NNM   20220422133454    4P0P  00002400000000777600001071232H2    HVYHV   006400630015
BI00B32H2    TIJ2073        202206247195-1934-02             TERMINAL MALE            CCN000024000000024000FN00000000020220701000024000NNM   20220422133454    4P0P  00002400000000801600001095232H2    HVYHV   006400630015
BI00B32H2    TIJ2075        202207087195-1934-02             TERMINAL MALE            CCN000024000000024000FN00000000020220701000024000NNM   20220422133454    4P0P  00002400000000801600001095232H2    HVYHV   006400630015
BI00B32H2    TIJ2071        202206107195-1935-02             TERMINAL MALE            CCN000019500000019500FN00000000020220701000019500NNM   20220422133454    4P0P  00001950000000670800000964432H2    HVYHV   006400630015
BI00B32H2    TIJ2072        202206177195-1936-02             TERMINAL MALE            CCN000015000000015000FN00000000020220701000015000NNM   20220422133454    4P0P  00001500000000589500000883132H2    HVYHV   006400630015
BI00B32H2    TIJ2073        202206247195-1936-02             TERMINAL MALE            CCN000030000000030000FN00000000020220701000030000NNM   20220422133454    4P0P  00001500000000589500000883132H2    HVYHV   006400630015
BI00B32H2    TIJ2074        202207017195-1936-02             TERMINAL MALE            CCN000030000000030000FN00000000020220701000030000NNM   20220422133454    4P0P  00001500000000589500000883132H2    HVYHV   006400630015
BI00B32H2    TIJ2072        202206177196-1103-02             TERMINAL                 CCN000180000000180000FN00000000020220701000180000NNM   20220422133454    4P0P  00002250000000429800000715032H2    HVYHV   006400630015
BI00B32H2    TIJ2073        202206247196-1103-02             TERMINAL                 CCN000225000000225000FN00000000020220701000225000NNM   20220422133454    4P0P  00002250000000429800000715032H2    HVYHV   006400630015
BI00B32H2    TIJ2074        202207017196-1103-02             TERMINAL                 CCN000270000000270000FN00000000020220701000270000NNM   20220422133454    4P0P  00002250000000429800000715032H2    HVYHV   006400630015
BI00B32H2    TIJ2075        202207087196-1103-02             TERMINAL                 CCN000270000000270000FN00000000020220701000270000NNM   20220422133454    4P0P  00002250000000429800000715032H2    HVYHV   006400630015
BI00B32H2    TIJ2075        202207087196-1104-02             TERMINAL                 CCN000022500000022500FN00000000020220701000022500NNM   20220422133454    4P0P  00002250000000441000000726232H2    HVYHV   006400630015
BI00B32H2    TIJ2071        202206107196-1325-02             TERMINAL FEMALE          CCN000060000000060000FN00000000020220701000060000NNM   20220422133454    4P0P  00006000000000450000000778732H2    HVYHV   006400630017
BI00B32H2    TIJ2072        202206177196-1325-02             TERMINAL FEMALE          CCN000180000000180000FN00000000020220701000180000NNM   20220422133454    4P0P  00006000000000450000000778732H2    HVYHV   006400630017
BI00B32H2    TIJ2073        202206247196-1325-02             TERMINAL FEMALE          CCN000300000000300000FN00000000020220701000300000NNM   20220422133454    4P0P  00006000000000450000000778732H2    HVYHV   006400630017
BI00B32H2    TIJ2074        202207017196-1325-02             TERMINAL FEMALE          CCN000240000000240000FN00000000020220701000240000NNM   20220422133454    4P0P  00006000000000450000000778732H2    HVYHV   006400630017
BI00B32H2    TIJ2075        202207087196-1325-02             TERMINAL FEMALE          CCN000300000000300000FN00000000020220701000300000NNM   20220422133454    4P0P  00006000000000450000000778732H2    HVYHV   006400630017
BI00B32H2    TIJ2072        202206177196-1326-02             TERMINAL FEMALE          CCN000180000000180000FN00000000020220701000180000NNM   20220422133454    4P0P  00006000000000456000000784732H2    HVYHV   006400630017
BI00B32H2    TIJ2073        202206247196-1326-02             TERMINAL FEMALE          CCN000240000000240000FN00000000020220701000240000NNM   20220422133454    4P0P  00006000000000456000000784732H2    HVYHV   006400630017
BI00B32H2    TIJ2074        202207017196-1326-02             TERMINAL FEMALE          CCN000240000000240000FN00000000020220701000240000NNM   20220422133454    4P0P  00006000000000456000000784732H2    HVYHV   006400630017
BI00B32H2    TIJ2075        202207087196-1326-02             TERMINAL FEMALE          CCN000240000000240000FN00000000020220701000240000NNM   20220422133454    4P0P  00006000000000456000000784732H2    HVYHV   006400630017
BI00B32H2    TIJ2073        202206247196-1327-02             TERMINAL FEMALE          CCN000052000000052000FN00000000020220701000052000NNM   20220422133454    4P0P  00005200000000336000000739532H2    HVYHV   006400630017
BI00B32H2    TIJ2074        202207017196-1327-02             TERMINAL FEMALE          CCN000052000000052000FN00000000020220701000052000NNM   20220422133454    4P0P  00005200000000336000000739532H2    HVYHV   006400630017
BI00B32H2    TIJ2075        202207087196-1327-02             TERMINAL FEMALE          CCN000052000000052000FN00000000020220701000052000NNM   20220422133454    4P0P  00005200000000336000000739532H2    HVYHV   006400630017
BI00B32H2    TIJ2072        202206177196-1460-02             TERMINAL FEMALE          CCN000028500000028500FN00000000020220701000028500NNM   20220422133454    4P0P  00002850000000444600000729832H2    HVYHV   006400630015
BI00B32H2    TIJ2073        202206247196-1460-02             TERMINAL FEMALE          CCN000057000000057000FN00000000020220701000057000NNM   20220422133454    4P0P  00002850000000444600000729832H2    HVYHV   006400630015
BI00B32H2    TIJ2074        202207017196-1460-02             TERMINAL FEMALE          CCN000028500000028500FN00000000020220701000028500NNM   20220422133454    4P0P  00002850000000444600000729832H2    HVYHV   006400630015
BI00B32H2    TIJ2075        202207087196-1460-02             TERMINAL FEMALE          CCN000028500000028500FN00000000020220701000028500NNM   20220422133454    4P0P  00002850000000444600000729832H2    HVYHV   006400630015
BI00B32H2    TIJ2074        202207017196-1466-02             TERMINAL MALE            CCN000114000000114000FN00000000020220701000114000NNM   20220422133454    4P0P  00002850000000427500000712732H2    HVYHV   006400630015
BI00B32H2    TIJ2075        202207087196-1466-02             TERMINAL MALE            CCN000114000000114000FN00000000020220701000114000NNM   20220422133454    4P0P  00002850000000427500000712732H2    HVYHV   006400630015
BI00B32H2    TIJ2072        202206177196-1481-02             TERMINAL FEMALE          CCN000168000000168000FN00000000020220701000168000NNM   20220422133454    4P0P  00002400000000422400000707632H2    HVYHV   006400630015
BI00B32H2    TIJ2073        202206247196-1481-02             TERMINAL FEMALE          CCN000384000000384000FN00000000020220701000384000NNM   20220422133454    4P0P  00002400000000422400000707632H2    HVYHV   006400630015
BI00B32H2    TIJ2074        202207017196-1481-02             TERMINAL FEMALE          CCN000432000000432000FN00000000020220701000432000NNM   20220422133454    4P0P  00002400000000422400000707632H2    HVYHV   006400630015
BI00B32H2    TIJ2075        202207087196-1481-02             TERMINAL FEMALE          CCN000408000000408000FN00000000020220701000408000NNM   20220422133454    4P0P  00002400000000422400000707632H2    HVYHV   006400630015
BI00B32H2    TIJ2071        202206107196-1482-02             TERMINAL FEMALE          CCN000024000000024000FN00000000020220701000024000NNM   20220422133454    4P0P  00002400000000424800000710032H2    HVYHV   006400630015
BI00B32H2    TIJ2072        202206177196-1482-02             TERMINAL FEMALE          CCN000048000000048000FN00000000020220701000048000NNM   20220422133454    4P0P  00002400000000424800000710032H2    HVYHV   006400630015
BI00B32H2    TIJ2073        202206247196-1482-02             TERMINAL FEMALE          CCN000096000000096000FN00000000020220701000096000NNM   20220422133454    4P0P  00002400000000424800000710032H2    HVYHV   006400630015
BI00B32H2    TIJ2074        202207017196-1482-02             TERMINAL FEMALE          CCN000096000000096000FN00000000020220701000096000NNM   20220422133454    4P0P  00002400000000424800000710032H2    HVYHV   006400630015
BI00B32H2    TIJ2075        202207087196-1482-02             TERMINAL FEMALE          CCN000072000000072000FN00000000020220701000072000NNM   20220422133454    4P0P  00002400000000424800000710032H2    HVYHV   006400630015
BI00B32H2    TIJ2072        202206177196-1933-02             TERMINAL FEMALE          CCN000021000000021000FN00000000020220701000021000NNM   20220422133454    4P0P  00002100000000590100000875332H2    HVYHV   006400630015
BI00B32H2    TIJ2074        202207017196-1933-02             TERMINAL FEMALE          CCN000021000000021000FN00000000020220701000021000NNM   20220422133454    4P0P  00002100000000590100000875332H2    HVYHV   006400630015
BI00B32H2    TIJ2073        202206247196-1934-02             TERMINAL FEMALE          CCN000058500000058500FN00000000020220701000058500NNM   20220422133454    4P0P  00001950000000561600000846832H2    HVYHV   006400630015
BI00B32H2    TIJ2074        202207017196-1934-02             TERMINAL FEMALE          CCN000078000000078000FN00000000020220701000078000NNM   20220422133454    4P0P  00001950000000561600000846832H2    HVYHV   006400630015
BI00B32H2    TIJ2075        202207087196-1934-02             TERMINAL FEMALE          CCN000097500000097500FN00000000020220701000097500NNM   20220422133454    4P0P  00001950000000561600000846832H2    HVYHV   006400630015
BI00B32H2    TIJ2073        202206247196-1935-02             TERMINAL FEMALE          CCN000054000000054000FN00000000020220701000054000NNM   20220422133454    4P0P  00001800000000534600000819832H2    HVYHV   006400630015
BI00B32H2    TIJ2074        202207017196-1935-02             TERMINAL FEMALE          CCN000054000000054000FN00000000020220701000054000NNM   20220422133454    4P0P  00001800000000534600000819832H2    HVYHV   006400630015
BI00B32H2    TIJ2075        202207087196-1935-02             TERMINAL FEMALE          CCN000036000000036000FN00000000020220701000036000NNM   20220422133454    4P0P  00001800000000534600000819832H2    HVYHV   006400630015
BI00B32H2    TIJ2071        202206107196-1936-02             TERMINAL FEMALE          CCN000013500000013500FN00000000020220701000013500NNM   20220422133454    4P0P  00001350000000441500000726732H2    HVYHV   006400630015
BI00B32H2    TIJ2072        202206177196-1936-02             TERMINAL FEMALE          CCN000148500000148500FN00000000020220701000148500NNM   20220422133454    4P0P  00001350000000441500000726732H2    HVYHV   006400630015
BI00B32H2    TIJ2073        202206247196-1936-02             TERMINAL FEMALE          CCN000175500000175500FN00000000020220701000175500NNM   20220422133454    4P0P  00001350000000441500000726732H2    HVYHV   006400630015
BI00B32H2    TIJ2074        202207017196-1936-02             TERMINAL FEMALE          CCN000175500000175500FN00000000020220701000175500NNM   20220422133454    4P0P  00001350000000441500000726732H2    HVYHV   006400630015
BI00B32H2    TIJ2075        202207087196-1936-02             TERMINAL FEMALE          CCN000175500000175500FN00000000020220701000175500NNM   20220422133454    4P0P  00001350000000441500000726732H2    HVYHV   006400630015
BI00B32H2    TIJ2072        202206177196-1937-02             TERMINAL FEMALE          CCN000013500000013500FN00000000020220701000013500NNM   20220422133454    4P0P  00001350000000446900000732132H2    HVYHV   006400630015
BI00B32H2    TIJ2073        202206247196-1937-02             TERMINAL FEMALE          CCN000040500000040500FN00000000020220701000040500NNM   20220422133454    4P0P  00001350000000446900000732132H2    HVYHV   006400630015
BI00B32H2    TIJ2074        202207017196-1937-02             TERMINAL FEMALE          CCN000027000000027000FN00000000020220701000027000NNM   20220422133454    4P0P  00001350000000446900000732132H2    HVYHV   006400630015
BI00B32H2    TIJ2075        202207087196-1937-02             TERMINAL FEMALE          CCN000027000000027000FN00000000020220701000027000NNM   20220422133454    4P0P  00001350000000446900000732132H2    HVYHV   006400630015
BI00B32H2    TIJ2073        202206247196-1940-02             TERMINAL FEMALE          CCN000013500000013500FN00000000020220701000013500NNM   20220422133454    4P0P  00001350000000529200000817432H2    HVYHV   006400630015
BI00B32H2    TIJ2074        202207017196-1940-02             TERMINAL FEMALE          CCN000013500000013500FN00000000020220701000013500NNM   20220422133454    4P0P  00001350000000529200000817432H2    HVYHV   006400630015
BI00B32H2    TIJ2075        202207087196-1940-02             TERMINAL FEMALE          CCN000013500000013500FN00000000020220701000013500NNM   20220422133454    4P0P  00001350000000529200000817432H2    HVYHV   006400630015
BI00B32H2    TIJ2073        202206247196-1941-02             TERMINAL FEMALE          CCN000034200000034200FN00000000020220701000034200NNM   20220422133454    4P0P  00001140000000506200000794432H2    HVYHV   006400630015
BI00B32H2    TIJ2074        202207017196-1941-02             TERMINAL FEMALE          CCN000034200000034200FN00000000020220701000034200NNM   20220422133454    4P0P  00001140000000506200000794432H2    HVYHV   006400630015
BI00B32H2    TIJ2075        202207087196-1941-02             TERMINAL FEMALE          CCN000034200000034200FN00000000020220701000034200NNM   20220422133454    4P0P  00001140000000506200000794432H2    HVYHV   006400630015
BI00B32H2    TIJ2071        202206107273-2982-0W             CASSETTE BRACKET         CCN000000600000000600FN00000000020220701000000600NNM   20220422133454    4N0N  00000060000000526000000726032H2    HVYHV   005500360039
BI00B32H2    TIJ2072        202206177273-2982-0W             CASSETTE BRACKET         CCN000000600000000600FN00000000020220701000000600NNM   20220422133454    4N0N  00000060000000526000000726032H2    HVYHV   005500360039
BI00B32H2    TIJ2073        202206247273-2982-0W             CASSETTE BRACKET         CCN000000600000000600FN00000000020220701000000600NNM   20220422133454    4N0N  00000060000000526000000726032H2    HVYHV   005500360039
BI00B32H2    TIJ2074        202207017273-2982-0W             CASSETTE BRACKET         CCN000000600000000600FN00000000020220701000000600NNM   20220422133454    4N0N  00000060000000526000000726032H2    HVYHV   005500360039
BI00B32H2    TIJ2071        202206107282-0517                HOUSING MALE ASS'Y       CCN000003600000003600FN00000000020220701000003600NNM   20220422133454    4N0N  00000036000000612000000832032H2    HVYHV   005600390040
BI00B32H2    TIJ2072        202206177282-0517                HOUSING MALE ASS'Y       CCN000006480000006480FN00000000020220701000006480NNM   20220422133454    4N0N  00000036000000612000000832032H2    HVYHV   005600390040
BI00B32H2    TIJ2073        202206247282-0517                HOUSING MALE ASS'Y       CCN000007920000007920FN00000000020220701000007920NNM   20220422133454    4N0N  00000036000000612000000832032H2    HVYHV   005600390040
BI00B32H2    TIJ2074        202207017282-0517                HOUSING MALE ASS'Y       CCN000006480000006480FN00000000020220701000006480NNM   20220422133454    4N0N  00000036000000612000000832032H2    HVYHV   005600390040
BI00B32H2    TIJ2075        202207087282-0517                HOUSING MALE ASS'Y       CCN000006480000006480FN00000000020220701000006480NNM   20220422133454    4N0N  00000036000000612000000832032H2    HVYHV   005600390040
BI00B32H2    TIJ2072        202206177282-1024                HOUSING MALE             CCN000002000000002000FN00000000020220701000002000NNM   20220422133454    1N0N  00000100000000458000000580532H2    HVYHV   005400370024
BI00B32H2    TIJ2073        202206247282-1024                HOUSING MALE             CCN000002000000002000FN00000000020220701000002000NNM   20220422133454    1N0N  00000100000000458000000580532H2    HVYHV   005400370024
BI00B32H2    TIJ2074        202207017282-1024                HOUSING MALE             CCN000002000000002000FN00000000020220701000002000NNM   20220422133454    1N0N  00000100000000458000000580532H2    HVYHV   005400370024
BI00B32H2    TIJ2075        202207087282-1024                HOUSING MALE             CCN000002000000002000FN00000000020220701000002000NNM   20220422133454    1N0N  00000100000000458000000580532H2    HVYHV   005400370024
BI00B32H2    TIJ2071        202206107282-4576                HOUSING MALE ASS'Y       CCN000007200000007200FN00000000020220701000007200NNM   20220422133454    4N0N  00000240000000808800001028832H2    HVYHV   005500360039
BI00B32H2    TIJ2072        202206177282-4576                HOUSING MALE ASS'Y       CCN000007200000007200FN00000000020220701000007200NNM   20220422133454    4N0N  00000240000000808800001028832H2    HVYHV   005500360039
BI00B32H2    TIJ2073        202206247282-4576                HOUSING MALE ASS'Y       CCN000007200000007200FN00000000020220701000007200NNM   20220422133454    4N0N  00000240000000808800001028832H2    HVYHV   005500360039
BI00B32H2    TIJ2074        202207017282-4576                HOUSING MALE ASS'Y       CCN000004800000004800FN00000000020220701000004800NNM   20220422133454    4N0N  00000240000000808800001028832H2    HVYHV   005500360039
BI00B32H2    TIJ2075        202207087282-4576                HOUSING MALE ASS'Y       CCN000007200000007200FN00000000020220701000007200NNM   20220422133454    4N0N  00000240000000808800001028832H2    HVYHV   005500360039
BI00B32H2    TIJ2071        202206107282-4577-30             HOUSING MALE ASS'Y       CCN000002400000002400FN00000000020220701000002400NNM   20220422133454    4N0N  00000240000000964800001174832H2    HVYHV   005500360039
BI00B32H2    TIJ2073        202206247282-4577-30             HOUSING MALE ASS'Y       CCN000002400000002400FN00000000020220701000002400NNM   20220422133454    4N0N  00000240000000964800001174832H2    HVYHV   005500360039
BI00B32H2    TIJ2075        202207087282-4577-30             HOUSING MALE ASS'Y       CCN000002400000002400FN00000000020220701000002400NNM   20220422133454    4N0N  00000240000000964800001174832H2    HVYHV   005500360039
BI00B32H2    TIJ2073        202206247282-4578                HOUSING MALE ASS'Y       CCN000012000000012000FN00000000020220701000012000NNM   20220422133454    4N0N  00000120000000782600000992632H2    HVYHV   005500360039
BI00B32H2    TIJ2074        202207017282-4578                HOUSING MALE ASS'Y       CCN000018000000018000FN00000000020220701000018000NNM   20220422133454    4N0N  00000120000000782600000992632H2    HVYHV   005500360039
BI00B32H2    TIJ2075        202207087282-4578                HOUSING MALE ASS'Y       CCN000019200000019200FN00000000020220701000019200NNM   20220422133454    4N0N  00000120000000782600000992632H2    HVYHV   005500360039
BI00B32H2    TIJ2073        202206247282-4578-30             HOUSING MALE ASS'Y       CCN000003600000003600FN00000000020220701000003600NNM   20220422133454    4N0N  00000120000000782600000992632H2    HVYHV   005500360039
BI00B32H2    TIJ2074        202207017282-4578-30             HOUSING MALE ASS'Y       CCN000002400000002400FN00000000020220701000002400NNM   20220422133454    4N0N  00000120000000782600000992632H2    HVYHV   005500360039
BI00B32H2    TIJ2075        202207087282-4578-30             HOUSING MALE ASS'Y       CCN000003600000003600FN00000000020220701000003600NNM   20220422133454    4N0N  00000120000000782600000992632H2    HVYHV   005500360039
BI00B32H2    TIJ2071        202206107282-4855                HOUSING MALE ASS'Y       CCN000010800000010800FN00000000020220701000010800NNM   20220422133454    4N0N  00000120000001063200001283232H2    HVYHV   005500360039
BI00B32H2    TIJ2072        202206177282-4855                HOUSING MALE ASS'Y       CCN000013200000013200FN00000000020220701000013200NNM   20220422133454    4N0N  00000120000001063200001283232H2    HVYHV   005500360039
BI00B32H2    TIJ2073        202206247282-4855                HOUSING MALE ASS'Y       CCN000016800000016800FN00000000020220701000016800NNM   20220422133454    4N0N  00000120000001063200001283232H2    HVYHV   005500360039
BI00B32H2    TIJ2074        202207017282-4855                HOUSING MALE ASS'Y       CCN000012000000012000FN00000000020220701000012000NNM   20220422133454    4N0N  00000120000001063200001283232H2    HVYHV   005500360039
BI00B32H2    TIJ2075        202207087282-4855                HOUSING MALE ASS'Y       CCN000014400000014400FN00000000020220701000014400NNM   20220422133454    4N0N  00000120000001063200001283232H2    HVYHV   005500360039
BI00B32H2    TIJ2072        202206177282-9391                HOUSING MALE ASS'Y       CCN000001200000001200FN00000000020220701000001200NNM   20220422133454    4N0N  00000120000001017600001237632H2    HVYHV   005500360039
BI00B32H2    TIJ2073        202206247282-9391                HOUSING MALE ASS'Y       CCN000001200000001200FN00000000020220701000001200NNM   20220422133454    4N0N  00000120000001017600001237632H2    HVYHV   005500360039
BI00B32H2    TIJ2074        202207017282-9391                HOUSING MALE ASS'Y       CCN000003600000003600FN00000000020220701000003600NNM   20220422133454    4N0N  00000120000001017600001237632H2    HVYHV   005500360039
BI00B32H2    TIJ2075        202207087282-9391                HOUSING MALE ASS'Y       CCN000003600000003600FN00000000020220701000003600NNM   20220422133454    4N0N  00000120000001017600001237632H2    HVYHV   005500360039
BI00B32H2    TIJ2071        202206107283-1156-30             CONNECTOR                CCN000004800000004800FN00000000020220701000004800NNM   20220422133454    4N0N  00000080000000877600001078032H2    HVYHV   005600390040
BI00B32H2    TIJ2072        202206177283-1156-30             CONNECTOR                CCN000005600000005600FN00000000020220701000005600NNM   20220422133454    4N0N  00000080000000877600001078032H2    HVYHV   005600390040
BI00B32H2    TIJ2073        202206247283-1156-30             CONNECTOR                CCN000003200000003200FN00000000020220701000003200NNM   20220422133454    4N0N  00000080000000877600001078032H2    HVYHV   005600390040
BI00B32H2    TIJ2074        202207017283-1156-30             CONNECTOR                CCN000005600000005600FN00000000020220701000005600NNM   20220422133454    4N0N  00000080000000877600001078032H2    HVYHV   005600390040
BI00B32H2    TIJ2075        202207087283-1156-30             CONNECTOR                CCN000005600000005600FN00000000020220701000005600NNM   20220422133454    4N0N  00000080000000877600001078032H2    HVYHV   005600390040
BI00B32H2    TIJ2071        202206107283-1222                CONNECTOR                CCN000002400000002400FN00000000020220701000002400NNM   20220422133454    4N0N  00000120000000852000001011032H2    HVYHV   005500360039
BI00B32H2    TIJ2072        202206177283-1222                CONNECTOR                CCN000003600000003600FN00000000020220701000003600NNM   20220422133454    4N0N  00000120000000852000001011032H2    HVYHV   005500360039
BI00B32H2    TIJ2073        202206247283-1222                CONNECTOR                CCN000003600000003600FN00000000020220701000003600NNM   20220422133454    4N0N  00000120000000852000001011032H2    HVYHV   005500360039
BI00B32H2    TIJ2074        202207017283-1222                CONNECTOR                CCN000003600000003600FN00000000020220701000003600NNM   20220422133454    4N0N  00000120000000852000001011032H2    HVYHV   005500360039
BI00B32H2    TIJ2075        202207087283-1222                CONNECTOR                CCN000002400000002400FN00000000020220701000002400NNM   20220422133454    4N0N  00000120000000852000001011032H2    HVYHV   005500360039
BI00B32H2    TIJ2073        202206247283-1289                CONNECTOR HOUSING        CCN000000600000000600FN00000000020220701000000600NNM   20220422133454    1N0N  00000060000000676200000817632H2    HVYHV   005400370024
BI00B32H2    TIJ2071        202206107283-1289-40             CONNECTOR HOUSING        CCN000002400000002400FN00000000020220701000002400NNM   20220422133454    1N0N  00000060000000679800000824832H2    HVYHV   005400370024
BI00B32H2    TIJ2072        202206177283-1289-40             CONNECTOR HOUSING        CCN000004200000004200FN00000000020220701000004200NNM   20220422133454    1N0N  00000060000000679800000824832H2    HVYHV   005400370024
BI00B32H2    TIJ2073        202206247283-1289-40             CONNECTOR HOUSING        CCN000004800000004800FN00000000020220701000004800NNM   20220422133454    1N0N  00000060000000679800000824832H2    HVYHV   005400370024
BI00B32H2    TIJ2074        202207017283-1289-40             CONNECTOR HOUSING        CCN000004200000004200FN00000000020220701000004200NNM   20220422133454    1N0N  00000060000000679800000824832H2    HVYHV   005400370024
BI00B32H2    TIJ2075        202207087283-1289-40             CONNECTOR HOUSING        CCN000003600000003600FN00000000020220701000003600NNM   20220422133454    1N0N  00000060000000679800000824832H2    HVYHV   005400370024
BI00B32H2    TIJ2072        202206177283-1927-30             CONNECTOR                CCN000002000000002000FN00000000020220701000002000NNM   20220422133454    4N0N  00000200000001190000001368032H2    HVYHV   005500360039
BI00B32H2    TIJ2072        202206177283-4576                HOUSING FEMALE ASS'Y     CCN000024000000024000FN00000000020220701000024000NNM   20220422133454    4N0N  00000480000000651300000871332H2    HVYHV   005500360039
BI00B32H2    TIJ2073        202206247283-4576                HOUSING FEMALE ASS'Y     CCN000067200000067200FN00000000020220701000067200NNM   20220422133454    4N0N  00000480000000651300000871332H2    HVYHV   005500360039
BI00B32H2    TIJ2074        202207017283-4576                HOUSING FEMALE ASS'Y     CCN000062400000062400FN00000000020220701000062400NNM   20220422133454    4N0N  00000480000000651300000871332H2    HVYHV   005500360039
BI00B32H2    TIJ2075        202207087283-4576                HOUSING FEMALE ASS'Y     CCN000067200000067200FN00000000020220701000067200NNM   20220422133454    4N0N  00000480000000651300000871332H2    HVYHV   005500360039
BI00B32H2    TIJ2071        202206107283-4576-30             HOUSING FEMALE ASS'Y     CCN000004800000004800FN00000000020220701000004800NNM   20220422133454    4N0N  00000480000000651300000871332H2    HVYHV   005500360039
BI00B32H2    TIJ2072        202206177283-4576-30             HOUSING FEMALE ASS'Y     CCN000004800000004800FN00000000020220701000004800NNM   20220422133454    4N0N  00000480000000651300000871332H2    HVYHV   005500360039
BI00B32H2    TIJ2073        202206247283-4576-30             HOUSING FEMALE ASS'Y     CCN000009600000009600FN00000000020220701000009600NNM   20220422133454    4N0N  00000480000000651300000871332H2    HVYHV   005500360039
BI00B32H2    TIJ2074        202207017283-4576-30             HOUSING FEMALE ASS'Y     CCN000004800000004800FN00000000020220701000004800NNM   20220422133454    4N0N  00000480000000651300000871332H2    HVYHV   005500360039
BI00B32H2    TIJ2075        202207087283-4576-30             HOUSING FEMALE ASS'Y     CCN000004800000004800FN00000000020220701000004800NNM   20220422133454    4N0N  00000480000000651300000871332H2    HVYHV   005500360039
BI00B32H2    TIJ2071        202206107283-4577                CONNECTOR HOUSING        CCN000004800000004800FN00000000020220701000004800NNM   20220422133454    4N0N  00000480000000916800001136832H2    HVYHV   005500360039
BI00B32H2    TIJ2072        202206177283-4577                CONNECTOR HOUSING        CCN000009600000009600FN00000000020220701000009600NNM   20220422133454    4N0N  00000480000000916800001136832H2    HVYHV   005500360039
BI00B32H2    TIJ2073        202206247283-4577                CONNECTOR HOUSING        CCN000004800000004800FN00000000020220701000004800NNM   20220422133454    4N0N  00000480000000916800001136832H2    HVYHV   005500360039
BI00B32H2    TIJ2074        202207017283-4577                CONNECTOR HOUSING        CCN000004800000004800FN00000000020220701000004800NNM   20220422133454    4N0N  00000480000000916800001136832H2    HVYHV   005500360039
BI00B32H2    TIJ2075        202207087283-4577                CONNECTOR HOUSING        CCN000004800000004800FN00000000020220701000004800NNM   20220422133454    4N0N  00000480000000916800001136832H2    HVYHV   005500360039
BI00B32H2    TIJ2073        202206247283-4577-30             CONNECTOR HOUSING        CCN000009600000009600FN00000000020220701000009600NNM   20220422133454    4N0N  00000480000000916800001136832H2    HVYHV   005500360039
BI00B32H2    TIJ2074        202207017283-4577-30             CONNECTOR HOUSING        CCN000004800000004800FN00000000020220701000004800NNM   20220422133454    4N0N  00000480000000916800001136832H2    HVYHV   005500360039
BI00B32H2    TIJ2075        202207087283-4577-30             CONNECTOR HOUSING        CCN000009600000009600FN00000000020220701000009600NNM   20220422133454    4N0N  00000480000000916800001136832H2    HVYHV   005500360039
BI00B32H2    TIJ2072        202206177283-4855                CONNECTOR HOUSING        CCN000002400000002400FN00000000020220701000002400NNM   20220422133454    4N0N  00000240000001188400001400032H2    HVYHV   005500360039
BI00B32H2    TIJ2073        202206247283-4855                CONNECTOR HOUSING        CCN000009600000009600FN00000000020220701000009600NNM   20220422133454    4N0N  00000240000001188400001400032H2    HVYHV   005500360039
BI00B32H2    TIJ2074        202207017283-4855                CONNECTOR HOUSING        CCN000004800000004800FN00000000020220701000004800NNM   20220422133454    4N0N  00000240000001188400001400032H2    HVYHV   005500360039
BI00B32H2    TIJ2075        202207087283-4855                CONNECTOR HOUSING        CCN000007200000007200FN00000000020220701000007200NNM   20220422133454    4N0N  00000240000001188400001400032H2    HVYHV   005500360039
BI00B32H2    TIJ2071        202206107283-5830-30             CONNECTOR                CCN000006000000006000FN00000000020220701000006000NNM   20220422133454    1N0N  00000600000000954000001104032H2    HVYHV   005500360039
BI00B32H2    TIJ2075        202207087283-5830-30             CONNECTOR                CCN000006000000006000FN00000000020220701000006000NNM   20220422133454    1N0N  00000600000000954000001104032H2    HVYHV   005500360039
BI00B32H2    TIJ2072        202206177283-5845                CONNECTOR HOUSING        CCN000018000000018000FN00000000020220701000018000NNM   20220422133454    1N0N  00000600000000444000000606332H2    HVYHV   005400370024
BI00B32H2    TIJ2073        202206247283-5845                CONNECTOR HOUSING        CCN000036000000036000FN00000000020220701000036000NNM   20220422133454    1N0N  00000600000000444000000606332H2    HVYHV   005400370024
BI00B32H2    TIJ2074        202207017283-5845                CONNECTOR HOUSING        CCN000036000000036000FN00000000020220701000036000NNM   20220422133454    1N0N  00000600000000444000000606332H2    HVYHV   005400370024
BI00B32H2    TIJ2075        202207087283-5845                CONNECTOR HOUSING        CCN000042000000042000FN00000000020220701000042000NNM   20220422133454    1N0N  00000600000000444000000606332H2    HVYHV   005400370024
BI00B32H2    TIJ2072        202206177283-5845-30             CONNECTOR HOUSING        CCN000012000000012000FN00000000020220701000012000NNM   20220422133454    1N0N  00000600000000444000000606332H2    HVYHV   005400370024
BI00B32H2    TIJ2073        202206247283-5845-30             CONNECTOR HOUSING        CCN000012000000012000FN00000000020220701000012000NNM   20220422133454    1N0N  00000600000000444000000606332H2    HVYHV   005400370024
BI00B32H2    TIJ2074        202207017283-5845-30             CONNECTOR HOUSING        CCN000018000000018000FN00000000020220701000018000NNM   20220422133454    1N0N  00000600000000444000000606332H2    HVYHV   005400370024
BI00B32H2    TIJ2075        202207087283-5845-30             CONNECTOR HOUSING        CCN000012000000012000FN00000000020220701000012000NNM   20220422133454    1N0N  00000600000000444000000606332H2    HVYHV   005400370024
BI00B32H2    TIJ2071        202206107283-7029-40             CONNECTOR                CCN000006000000006000FN00000000020220701000006000NNM   20220422133454    1N0N  00000600000001026000001200032H2    HVYHV   005600390023
BI00B32H2    TIJ2072        202206177283-7029-40             CONNECTOR                CCN000006000000006000FN00000000020220701000006000NNM   20220422133454    1N0N  00000600000001026000001200032H2    HVYHV   005600390023
BI00B32H2    TIJ2073        202206247283-7029-40             CONNECTOR                CCN000012000000012000FN00000000020220701000012000NNM   20220422133454    1N0N  00000600000001026000001200032H2    HVYHV   005600390023
BI00B32H2    TIJ2074        202207017283-7029-40             CONNECTOR                CCN000006000000006000FN00000000020220701000006000NNM   20220422133454    1N0N  00000600000001026000001200032H2    HVYHV   005600390023
BI00B32H2    TIJ2071        202206107283-8630                CONNECTOR ASS'Y          CCN000006000000006000FN00000000020220701000006000NNM   20220422133454    4N0N  00000600000000540000000701332H2    HVYHV   005400370024
BI00B32H2    TIJ2072        202206177286-1899                HOUSING SUB ASSEMBLY     CCN000003024000003024FN00000000020220701000003024NNM   20220422133454    4N0N  00000033600000814800001010832H2    HVYHV   005400370024
BI00B32H2    TIJ2073        202206247286-1899                HOUSING SUB ASSEMBLY     CCN000004368000004368FN00000000020220701000004368NNM   20220422133454    4N0N  00000033600000814800001010832H2    HVYHV   005400370024
BI00B32H2    TIJ2074        202207017286-1899                HOUSING SUB ASSEMBLY     CCN000003360000003360FN00000000020220701000003360NNM   20220422133454    4N0N  00000033600000814800001010832H2    HVYHV   005400370024
BI00B32H2    TIJ2075        202207087286-1899                HOUSING SUB ASSEMBLY     CCN000003360000003360FN00000000020220701000003360NNM   20220422133454    4N0N  00000033600000814800001010832H2    HVYHV   005400370024
