BI00B1200    2399T52114     202202187288-6598-70             HOUSING MALE ASS'Y       CCN000024480000017280FY00001728020220301000000000NNMD0320220222095517    4N0N  0000014400000107420000142921200    YCYC    005500360039
BI00B1200    2399T52113     202202187289-6868-30             SEALED ASSY FEMALE       CCN000065520000055440FY00005544020220301000000000NNMD0320220222095617    4N0N  0000025200000083920000111921200    YCYC    005500360039
BI00B1200    #8750T52202    202205127172-5630-40             RUBBER STOPPER           CCN000200000000200000FN00000000020220601000200000NNMD0420220222121213    2H0H  0000200000000004400000009511200    YCYC    004300270014
BI00B1200    #8750T52203    202205127172-5630-40             RUBBER STOPPER           CCN000200000000200000FN00000000020220501000200000NNMD0420220222121213    2H0H  0000200000000004400000009511200    YCYC    004300270014
BI00B1200    2399T52114     202202247288-6598-70             HOUSING MALE ASS'Y       CCN000007200000007200FN00000000020220301000007200NNMD0320220222121213    4N0N  0000014400000107420000142921200    YCYC    005500360039
BI00B1200    2399T52113     202202247289-6868-30             SEALED ASSY FEMALE       CCN000010080000010080FN00000000020220301000010080NNMD0320220222121213    4N0N  0000025200000083920000111921200    YCYC    005500360039
BI00B1200    8750T52301     202204077288-3340-30             HOUSING MALE             CCN000003000000003000FN00000000020220501000003000NNM   20220222121213    4N0N  0000015000000086150000100641200    YCYC    005400370024
BI00B1200    8750T52301     202204077289-3342                HOUSING FEMALE ASS'Y     CCN000002400000002400FN00000000020220501000002400NNM   20220222121213    1N0N  0000024000000068640000090141200    YCYC    005500360039
BI00B1200    #8750T52301    202204077189-3031-30             HOUSING FEMALE           CCN000002400000002400FN00000000020220501000002400NNM   20220222121213    2F0F  0000024000000092880000136581200    YCYC    005500360039
BI00B32AF    #JTB2033       202203047158-3008-80             RUBBER STOPPER           CCN000020000000020000FN00000000020220301000020000NNMD0620220222164644    2C0C  00002000000000288000000343032AF    HBYHVTB 004300270014
BI00B32A7    ZZ22034BMW     202202287114-4729-08             TERMINAL                 CCN000060000000060000FN00000000020220301000060000NNM00020220222133246    4P0P  00003000000000522000000816232A7    ZZZZY   006400630015
BI00B32A7    ZZ22034BMW     202202287116-3154-08             TERMINAL                 CCN000081000000081000FN00000000020220301000081000NNM00020220222133256    4P0P  00002700000000475200000760432A7    ZZZZY   006400630015
BI00B32A7    ZZ22034BMW     202202287137-3047-30             UNIT PACKING             CCN000013000000013000FN00000000020220301000013000NNM00020220222133224    1C0C  00000100000000170500000218932A7    ZZZZY   002700430014
BI00B32A7    ZZ22034BMW     202202287172-5402-30             SEAL RUBBER              CCN000032000000032000FN00000000020220301000032000NNM00020220222133234    1C0C  00000800000000457600000506032A7    ZZZZY   004300270014
BI00B32A7    ZZ22033LMW     202202287327-6769-3W             BATTERY FUSE             CCN000004800000004800FN00000000020220301000004800NNMD0420220222133147    4N0N  00000009600000933300001133332A7    ZZZZY   005500360039
BI00B32A7    ZZ22031LMW     202202287327-6769-3W             BATTERY FUSE             CCN000007008000007008FN00000000020220301000007008NNM00020220222133125    4N0N  00000009600000933300001133332A7    ZZZZY   005500360039
BI00B32BG    YY2203BCMW     202203037196-1935-02             TERMINAL FEMALE          CCN000002000000018000FN00000000020220301000018000NNE   20220222161640    4P0P  00001800000000534600000819832BG    YGYYA   006400630015
BI00B32B1    A22019         202204087282-5574-10             CONNECTOR                CCN000000800000000800FN00000000020220601000000800NNM   20220222121213B1  4N0N  00000080000001235000001423032B1    AXARNE-M005600390040
BI00B32B1    #A22019        202204087158-3376-50             CONNECTOR WIRE SEAL      CCN000120000000120000FN00000000020220601000120000NNM   20220222121213B1  2C0C  00002000000000184000000240732B1    AXARNE-M002700430014
BI00B32B1    #A22019        202204087282-6446-40             CONNECTOR                CCN000001500000001500FN00000000020220601000001500NNM   20220222121213B1  2N0N  00000150000001185000001368032B1    AXARNE-M005500360039
BI00B32B1    #A22019        202204087282-8395-40             CONNECTOR                CCN000003000000003000FN00000000020220601000003000NNM   20220222121213B1  2N0N  00000100000001009000001188032B1    AXARNE-M005500360039
BI00B32B6    A72019         202204087017-1183-02             TERMINAL                 CCN000027000000027000FN00000000020220701000027000NNM   20220222121213B6  4P0P  00002700000001139400001307432B6    AXARNE-M005100280028
BI00B32B6    A72019         202204087116-4486-02             TERMINAL                 CCN000028000000028000FN00000000020220701000028000NNM   20220222121213B6  4P0P  00002800000000666400000995132B6    AXARNE-M006400630017
BI00B32B6    A72019         202204087158-3168-80             SEALED                   CCN000020000000020000FN00000000020220701000020000NNM   20220222121213B6  1C0C  00002000000000044000000092132B6    AXARNE-M004300260014
BI00B32B6    A72019         202204087287-0192-40             SEALED HOUSING ASS'Y     CCN000001440000001440FN00000000020220701000001440NNM   20220222121213B6  4N0N  00000048000001092000001322032B6    AXARNE-M005600390040
BI00B32B7    A82019         202204087158-3166-60             WIRE SEAL                CCN000080000000080000FN00000000020220701000080000NNM   20220222121213B7  1C0C  00004000000000104000000152432B7    AXARNE-M002700430014
BI00B32B7    A82019         202204087158-3167-80             WIRE SEAL                CCN000120000000120000FN00000000020220701000120000NNM   20220222121213B7  1C0C  00002000000000048000000109032B7    AXARNE-M002700430014
BI00B32B7    A82019         202204087158-3168-80             SEALED                   CCN000040000000040000FN00000000020220701000040000NNM   20220222121213B7  1C0C  00002000000000044000000092132B7    AXARNE-M004300260014
BI00B32B7    A82019         202204087158-3169-40             SEALING PLUG             CCN000040000000040000FN00000000020220701000040000NNM   20220222121213B7  1C0C  00004000000000156000000204132B7    AXARNE-M004300260014
BI00B32B7    A82019         202204087282-6448-40             CONNECTOR                CCN000013600000013600FN00000000020220701000013600NNM   20220222121213B7  4N0N  00000080000000887000001152732B7    AXARNE-M005600390040
BI00B32B7    #A82019        202204087135-7031                GROMMET                  CCN000004000000004000FN00000000020220701000004000NNM   20220222121213B7  2H0H  00000010000000634200000744232B7    AXARNE-M005400370024
BI00B32B7    #A82019        202204087158-3376-50             CONNECTOR WIRE SEAL      CCN000040000000040000FN00000000020220701000040000NNM   20220222121213B7  2C0C  00002000000000184000000240732B7    AXARNE-M002700430014
BI00A32CH    SJ22022HMW     202202287327-6884-30             MULTI FUSE               CCN000002304000002304FN00000000020220201000002304NNMM0020220222162639    4N0N  00000028800000988900001154832CH    SJSAMIJF005400370024
BI00B32CH    SJ22033HMW     202202187327-6870-30             MULTI FUSE               CCN000014688000009504FN00000288020220301000006624NNM00020220222154858    4N0N  00000028800001015200001181132CH    SJSAMIJF005400370024
BI00B32CH    SJ22034HMW     202202247327-6880-30             MULTI FUSE               CCN000015552000003456FN00000000020220301000003456NNM00020220222155258    4N0N  00000028800001012600001178532CH    SJSAMIJF005400370024
BI00A32CH    SJ22033HMW     202202287327-6884-30             MULTI FUSE               CCN000018432000018432FN00000000020220301000018432NNMM0020220222162739    4N0N  00000028800000988900001154832CH    SJSAMIJF005400370024
BI00A32CH    SJ22034HMW     202202287327-6884-30             MULTI FUSE               CCN000020448000005472FN00000000020220301000005472NNMM0020220222162825    4N0N  00000028800000988900001154832CH    SJSAMIJF005400370024
BI00B32CH    SJ2204AMMW     202203177116-4116-02             TERMINAL                 CCN000006900000006900FN00000000020220401000006900NNE   20220222121213    4P0P  00000690000000517500000805732CH    SJSAMIJF006400630015
BI00A32CH    SJ22033HMW     202202287327-6870-30             MULTI FUSE               CCN000005184000005184FN00000000020220301000005184NNM00020220222162541    4N0N  00000028800001015200001181132CH    SJSAMIJF005400370024
BI00A32CH    SJ22034HMW     202202287327-6880-30             MULTI FUSE               CCN000012096000012096FN00000000020220301000012096NNMM0020220222162621    4N0N  00000028800001012600001178532CH    SJSAMIJF005400370024
BI00B32CJ    JQN2012        202205207289-3342-30             HOUSING FEMALE ASS'Y     CCN000028800000000000FY00000000020220101000000000NNMQ0820220222131939    1N0N  00000240000000686400000901432CJ    QNYHVQN 005500360039
BI00B32CJ    JQN2013        202207017289-3342-30             HOUSING FEMALE ASS'Y     CCN000028800000000000FY00000000020220101000000000NNMQ0820220222132140    1N0N  00000240000000686400000901432CJ    QNYHVQN 005500360039
BI00B32CJ    JQN2014        202208127289-3342-30             HOUSING FEMALE ASS'Y     CCN000028800000000000FY00000000020220101000000000NNMQ0820220222132354    1N0N  00000240000000686400000901432CJ    QNYHVQN 005500360039
BI00B32CJ    JQN2012        202205277289-3342-30             HOUSING FEMALE ASS'Y     CCN000004800000000000FY00000000020220101000000000NNMQ0820220222131939    1N0N  00000240000000686400000901432CJ    QNYHVQN 005500360039
BI00B32CJ    JQN2012        202206037289-3342-30             HOUSING FEMALE ASS'Y     CCN000004800000000000FY00000000020220101000000000NNMQ0820220222131939    1N0N  00000240000000686400000901432CJ    QNYHVQN 005500360039
BI00B32CJ    JQN2012        202206107289-3342-30             HOUSING FEMALE ASS'Y     CCN000004800000000000FY00000000020220101000000000NNMQ0820220222131939    1N0N  00000240000000686400000901432CJ    QNYHVQN 005500360039
BI00B32CJ    JQN2012        202206177289-3342-30             HOUSING FEMALE ASS'Y     CCN000004800000000000FY00000000020220101000000000NNMQ0820220222131939    1N0N  00000240000000686400000901432CJ    QNYHVQN 005500360039
BI00B32CJ    JQN2012        202206247289-3342-30             HOUSING FEMALE ASS'Y     CCN000004800000000000FY00000000020220101000000000NNMQ0820220222131939    1N0N  00000240000000686400000901432CJ    QNYHVQN 005500360039
BI00B32CJ    JQN2013        202207087289-3342-30             HOUSING FEMALE ASS'Y     CCN000004800000000000FY00000000020220101000000000NNMQ0820220222132140    1N0N  00000240000000686400000901432CJ    QNYHVQN 005500360039
BI00B32CJ    JQN2013        202207157289-3342-30             HOUSING FEMALE ASS'Y     CCN000004800000000000FY00000000020220101000000000NNMQ0820220222132140    1N0N  00000240000000686400000901432CJ    QNYHVQN 005500360039
BI00B32CJ    JQN2013        202207227289-3342-30             HOUSING FEMALE ASS'Y     CCN000004800000000000FY00000000020220101000000000NNMQ0820220222132140    1N0N  00000240000000686400000901432CJ    QNYHVQN 005500360039
BI00B32CJ    JQN2013        202207297289-3342-30             HOUSING FEMALE ASS'Y     CCN000004800000000000FY00000000020220101000000000NNMQ0820220222132140    1N0N  00000240000000686400000901432CJ    QNYHVQN 005500360039
BI00B32CJ    JQN2013        202208057289-3342-30             HOUSING FEMALE ASS'Y     CCN000004800000000000FY00000000020220101000000000NNMQ0820220222132140    1N0N  00000240000000686400000901432CJ    QNYHVQN 005500360039
BI00B32CJ    JQN2014        202208197289-3342-30             HOUSING FEMALE ASS'Y     CCN000004800000000000FY00000000020220101000000000NNMQ0820220222132354    1N0N  00000240000000686400000901432CJ    QNYHVQN 005500360039
BI00B32CJ    JQN2014        202208267289-3342-30             HOUSING FEMALE ASS'Y     CCN000004800000000000FY00000000020220101000000000NNMQ0820220222132354    1N0N  00000240000000686400000901432CJ    QNYHVQN 005500360039
BI00B32CJ    JQN2014        202209027289-3342-30             HOUSING FEMALE ASS'Y     CCN000004800000000000FY00000000020220101000000000NNMQ0820220222132354    1N0N  00000240000000686400000901432CJ    QNYHVQN 005500360039
BI00B32CJ    JQN2014        202209097289-3342-30             HOUSING FEMALE ASS'Y     CCN000004800000000000FY00000000020220101000000000NNMQ0820220222132354    1N0N  00000240000000686400000901432CJ    QNYHVQN 005500360039
BI00B32CJ    JQN2014        202209167289-3342-30             HOUSING FEMALE ASS'Y     CCN000004800000000000FY00000000020220101000000000NNMQ0820220222132354    1N0N  00000240000000686400000901432CJ    QNYHVQN 005500360039
BI00B32CJ    JQN2043        202203257017-1181-02             TERMINAL                 CCN000063000000000000FY00000000020220401000000000NNMQ0820220222151905    4P0P  00006300000001089900001266832CJ    QNYHVQN 005100280028
BI00B32CJ    JQN2043        202203257017-1182-02             TERMINAL                 CCN000045000000000000FY00000000020220401000000000NNMQ0820220222151917    4P0P  00004500000001165500001318632CJ    QNYHVQN 005100280028
BI00B32CJ    JQN2043        202203257114-4729-02             TERMINAL                 CCN000060000000000000FY00000000020220401000000000NNMQ0820220222151936    4P0P  00003000000000516000000810232CJ    QNYHVQN 006400630015
BI00B32CJ    JQN2043        202203257114-5753-02             TERMINAL                 CCN000027000000000000FY00000000020220401000000000NNMQ0820220222151958    4P0P  00002700000000847800001141432CJ    QNYHVQN 006400630015
BI00B32CJ    JQN2043        202203257116-1180                TERMINAL                 CCN000019500000000000FY00000000020220401000000000NNMQ0820220222152015    1P0P  00001950000000618200000903432CJ    QNYHVQN 006400630015
BI00B32CJ    JQN2043        202203257116-4037                TERMINAL                 CCN000030000000000000FY00000000020220401000000000NNMQ0820220222152035    4P0P  00000600000000600000000894232CJ    QNYHVQN 006400630015
BI00B32CJ    JQN2042        202203187116-4416-02             TERMINAL                 CCN000096000000000000FY00000000020220401000000000NNMQ0820220222151752    4P0P  00003200000000518400000847132CJ    QNYHVQN 006400630017
BI00B32CJ    JQN2043        202203257116-4416-02             TERMINAL                 CCN000096000000000000FY00000000020220401000000000NNMQ0820220222152102    4P0P  00003200000000518400000847132CJ    QNYHVQN 006400630017
BI00B32CJ    JQN2044        202204017116-4416-02             TERMINAL                 CCN000032000000000000FY00000000020220401000000000NNMQ0820220222152353    4P0P  00003200000000518400000847132CJ    QNYHVQN 006400630017
BI00B32CJ    JQN2044        202204017116-4486-02             TERMINAL                 CCN000084000000000000FY00000000020220401000000000NNMQ0820220222152419    4P0P  00002800000000666400000995132CJ    QNYHVQN 006400630017
BI00B32CJ    JQN2042        202203187116-5042-02             TERMINAL                 CCN000027000000000000FY00000000020220401000000000NNMQ0820220222151811    4P0P  00001350000000560300000845532CJ    QNYHVQN 006400630015
BI00B32CJ    JQN2043        202203257116-5042-02             TERMINAL                 CCN000027000000013500FN00000000020220401000013500NNMQ0820220222152127    4P0P  00001350000000560300000845532CJ    QNYHVQN 006400630015
BI00B32CJ    JQN2043        202203257126-8853-02             TERMINAL                 CCN000022500000000000FY00000000020220401000000000NNMQ0820220222152203    4P0P  00000750000000562500000847732CJ    QNYHVQN 006400630015
BI00B32CJ    JQN2044        202204017158-3006-90             RUBBER STOPPER           CCN000080000000000000FY00000000020220401000000000NNMQ0820220222151306    1C0C  00002000000000330600000386032CJ    QNYHVQN 002700430014
BI00B32DE    TCT203E        202203037289-4696-30             HOUSING FEMALE ASS'Y     CCN000002000000002000FN00000000020220301000002000NNE   20220222121213    4N0N  00000200000000913400001055432DE    TVYEV-TV005400370024
BI00B32DE    TCT204C        202203247289-4696-30             HOUSING FEMALE ASS'Y     CCN000002000000002000FN00000000020220401000002000NNE   20220222121213    4N0N  00000200000000913400001055432DE    TVYEV-TV005400370024
BI00B32DE    TCT204B        202203177289-4696-30             HOUSING FEMALE ASS'Y     CCN000002000000002000FN00000000020220401000002000NNE   20220222121213    4N0N  00000200000000913400001055432DE    TVYEV-TV005400370024
BI00B32DG    RP2043B        202203247114-4231-02             TERMINAL                 CCN000018000000018000FN00000000020220401000018000NNE   20220222121213    4P0P  00001800000000554400000848032DG    BFSAIBF 006400630015
BI00B32DG    RP2043B        202203247116-4486-02             TERMINAL                 CCN000084000000084000FN00000000020220401000084000NNE   20220222121213    4P0P  00002800000000666400000995132DG    BFSAIBF 006400630017
BI00B32DG    RP2043B        202203247282-4577                HOUSING MALE ASS'Y       CCN000002400000002400FN00000000020220401000002400NNE   20220222121213    4N0N  00000240000000964800001174832DG    BFSAIBF 005500360039
BI00B32DG    RP2043B        202203247116-6041                TERMINAL                 CCN000004500000004500FN00000000020220401000004500NNE   20220222121213    4P0P  00000450000000716000001009632DG    BFSAIBF 006400630015
BI00B32D1    #DFTC2215      202203037172-5629-80             RUBBER STOPPER           CCN000080000000080000FN00000000020220401000080000NNM00020220222163815    2H0H  00002000000000060000000111132D1    TOYOT-K 004300270014
BI00B32D1    #DFTC2215      202203037172-5630-40             RUBBER STOPPER           CCN000020000000020000FN00000000020220401000020000NNM00020220222154234    2H0H  00002000000000044000000095132D1    TOYOT-K 004300270014
BI00B32D2    #DGTC2215      202202247172-5630-40             RUBBER STOPPER           CCN000140000000140000FN00000000020220401000140000NNM00020220222154215    2H0H  00002000000000044000000095132D2    TGYOT-G 004300270014
BI00B32D2    DGTC2219       202203177288-6547                CONNECTOR MALE ASS'Y     CCN000018000000018000FN00000000020220501000018000NNMD0020220222135050    4N0N  00000075000001205300001340332D2    TGYOT-G 005400370024
BI00B32EJ    T220221P01     202203317116-4122-02             TERMINAL                 CCN000013500000013500FN00000000020220301000013500NNE   20220222121213EJ  4P0P  00000450000000656600000950232EJ    EJYKBO  006400630015
BI00B32EJ    T220221P02     202204077158-3169-40             SEALING PLUG             CCN000120000000120000FN00000000020220401000120000NNE   20220222121213EJ  1C0C  00004000000000156000000204132EJ    EJYKBO  004300260014
BI00B32EJ    T220221P03     202203317158-3006-90             RUBBER STOPPER           CCN000020000000020000FN00000000020220301000020000NNE   20220222121213EJ  1C0C  00002000000000330600000386032EJ    EJYKBO  002700430014
BI00B32EJ    T220221P03     202203317116-4022                TERMINAL                 CCN000013500000013500FN00000000020220301000013500NNE   20220222121213EJ  4P0P  00001350000000618300000903532EJ    EJYKBO  006400630015
BI00B32EJ    T220221P03     202203317158-3070-80             RUBBER STOPPER           CCN000080000000080000FN00000000020220301000080000NNE   20220222121213EJ  1C0C  00004000000000276000000333332EJ    EJYKBO  002700430014
BI00B32EJ    #T220221P03    202203317158-3121-80             WIRE SEAL                CCN000080000000080000FN00000000020220301000080000NNE   20220222121213EJ  2C0C  00002000000000118000000187332EJ    EJYKBO  002700430014
BI00B32EJ    #T220221P03    202203317157-3821                RUBBER STOPPER           CCN000020000000020000FN00000000020220301000020000NNE   20220222121213EJ  2C0C  00002000000000176000000238032EJ    EJYKBO  002700430014
BI00B32EJ    #T220221P04    202203317158-3120-90             CONNECTOR WIRE SEAL      CCN000020000000020000FN00000000020220301000020000NNE   20220222121213EJ  2C0C  00002000000000136000000194032EJ    EJYKBO  002700430014
BI00B32EJ    #T220221P04    202203317157-3950-80             SEAL RUBBER              CCN000040000000040000FN00000000020220301000040000NNE   20220222121213EJ  2C0C  00004000000000154000000440332EJ    EJYKBO  002700430014
BI00B32G0    #TZ22041EMW    202203017158-3007-10             RUBBER STOPPER           CCN000280000000280000FN00000000020220401000280000NNM00020220222154312    2H0H  00002000000000308000000362732G0    TTTJY   002700430014
BI00B32G7    JJ2204CMMW     202203177126-8889-02             FUSE TERMINAL            CCN000006000000006000FN00000000020220401000006000NNE   20220222121213    4P0P  00000600000000448200000733432G7    JIJAI   006400630015
BI00B32G7    JJ2204CMMW     202203177126-8890-02             FUSE TERMINAL            CCN000006000000006000FN00000000020220401000006000NNE   20220222121213    4P0P  00000600000000465000000750232G7    JIJAI   006400630015
BI00B32G7    JJ2204CMMW     202203177126-8891-02             FUSE TERMINAL            CCN000006000000006000FN00000000020220401000006000NNE   20220222121213    4P0P  00000600000000481800000767032G7    JIJAI   006400630015
BI00B32G7    JJ2204CMMW     202203177126-8892-02             FUSE TERMINAL            CCN000006000000006000FN00000000020220401000006000NNE   20220222121213    4P0P  00000600000000495000000780232G7    JIJAI   006400630015
BI00B32G7    JJ2204CMMW     202203177297-3482                JOINT CONNECTOR          CCN000001600000001600FN00000000020220401000001600NNE   20220222121213    4N0N  00000080000000621000000730532G7    JIJAI   005400370024
BI00B32H0    #TT22041VMW    202203017158-3007-10             RUBBER STOPPER           CCN000020000000020000FN00000000020220401000020000NNM00020220222154401    2H0H  00002000000000308000000362732H0    TTTJY   002700430014
BI00B32H2    TIJ203T        202203047283-1156-30             CONNECTOR                CCN000000800000000800FN00000000020220301000000800NNE   20220222121213    4N0N  00000080000000877600001078032H2    HVYHV   005600390040
BI00B32H7    #FS2203BDMW    202203027189-3034-30             HOUSING FEMALE           CCN000001600000001600FN00000000020220301000001600NNE   20220222121213    2F0F  00000160000000972800001192832H7    FYFSY   005500360039
BI00B32H7    FS2203CDMW     202203097288-6547                CONNECTOR MALE ASS'Y     CCN000025500000025500FN00000000020220301000025500NNE   20220222161744    4N0N  00000075000001205300001340332H7    FYFSY   005400370024
BI00B32H7    FS2204ADMW     202203097288-6547                CONNECTOR MALE ASS'Y     CCN000006000000006000FN00000000020220401000006000NNE   20220222161755    4N0N  00000075000001205300001340332H7    FYFSY   005400370024
BI00B32H7    FS2204BDMW     202203167288-6547                CONNECTOR MALE ASS'Y     CCN000006750000006750FN00000000020220401000006750NNE   20220222161813    4N0N  00000075000001205300001340332H7    FYFSY   005400370024
BI00B32J1    391358         202205097298-1187-30             SHUNT RING ASSEMBLY      CCN000080000000020000FN00000000020220301000020000NNMD0220220222152626    4N0N  00001000000000647000000769532J1    UKYEL-BL005400370024
BI00B32J1    #391358        202203077283-8226-30             CONNECTOR                CCN000012000000002000FN00000000020220301000002000NNMQ0020220222121213    2N0N  00000200000000820000001008032J1    UKYEL-BL005400370024
BI00B32J1    391358         202204047298-1187-30             SHUNT RING ASSEMBLY      CCN000040000000020000FN00000000020220301000020000NNMD0220220222152626    4N0N  00001000000000647000000769532J1    UKYEL-BL005400370024
BI00B32J1    #391817        202204047158-3376-50             CONNECTOR WIRE SEAL      CCN000020000000020000FN00000000020220401000020000NNE   20220222121213    2C0C  00002000000000184000000240732J1    UKYEL-BL002700430014
BI00A32J1    #391358        202202287283-8226-30             CONNECTOR                CCN000010000000010000FN00000000020220301000010000NNMM0020220222121213    2N0N  00000200000000820000001008032J1    UKYEL-BL005400370024
BI00B32J1    391358         202203217298-1187-30             SHUNT RING ASSEMBLY      CCN000020000000020000FN00000000020220301000020000NNMD0220220222152626    4N0N  00001000000000647000000769532J1    UKYEL-BL005400370024
BI00B32J1    391358         202206067298-1187-30             SHUNT RING ASSEMBLY      CCN000020000000020000FN00000000020220301000020000NNMD0220220222152626    4N0N  00001000000000647000000769532J1    UKYEL-BL005400370024
BI00B32K8    #K1220010401   202203187137-2200                CONNECTOR PACKING        CCN000005000000005000FN00000000020220501000005000NNM   20220222121213    2C0C  00000500000000136000000211332K8    ELELCOM 004300270014
BI00B32K8    #K1220010402   202203257137-2717-50             SEALED CONNECTOR         CCN000016000000016000FN00000000020220501000016000NNM   20220222121213    2C0C  00000400000000212800000284032K8    ELELCOM 002700430014
BI00B32M4    #TL2043A       202203247158-7586-30             BLOCK LIF                CCN000000800000000800FN00000000020220401000000800NNE   20220222121213    2F0F  00000080000000617400000844232M4    SISAI   005500360039
BI00B32M4    TP2043A        202203247017-1181-02             TERMINAL                 CCN000063000000063000FN00000000020220401000063000NNE   20220222121213    4P0P  00006300000001089900001266832M4    SISAI   005100280028
BI00B32M4    TP2043A        202203247283-8692                CONNECTOR HOUSING        CCN000001500000001500FN00000000020220401000001500NNE   20220222121213    1N0N  00000150000000795000001012032M4    SISAI   005600390040
BI00B32M4    TP2043A        202203247288-3337-30             HOUSING MALE             CCN000001500000001500FN00000000020220401000001500NNE   20220222121213    4N0N  00000150000000867000001012032M4    SISAI   005400370024
BI00B32M4    TP2043A        202203247327-6983-30             MAIN FUSE                CCN000000600000000600FN00000000020220401000000600NNE   20220222121213    4N0N  00000060000000748800000951532M4    SISAI   005400370024
BI00B32N2    2152103851     202203177114-4020                TERMINAL                 CCN000084000000084000FN00000000020220401000084000NNM   20220222160909    4P0P  00002100000000875700001169332N2    YWYIPLTC006400630015
BI00B32N2    2152103851     202203177114-4021                TERMINAL                 CCN000030000000030000FN00000000020220401000030000NNM   20220222160909    4P0P  00001500000000670500000964132N2    YWYIPLTC006400630015
BI00B32N2    2152103851     202203177114-4032                TERMINAL                 CCN000015000000015000FN00000000020220401000015000NNM   20220222160909    4P0P  00000750000000735000001063632N2    YWYIPLTC006400630017
BI00B32N2    2152103851     202203177116-1180                TERMINAL                 CCN000019500000019500FN00000000020220401000019500NNM   20220222160909    1P0P  00001950000000618200000903432N2    YWYIPLTC006400630015
BI00B32N2    2152103851     202203177116-1301                TERMINAL                 CCN000015000000015000FN00000000020220401000015000NNM   20220222160909    4P0P  00001500000000487500000772732N2    YWYIPLTC006400630015
BI00B32N2    2152103851     202203177116-1471                TERMINAL                 CCN000030000000030000FN00000000020220401000030000NNM   20220222160909    4P0P  00001500000000579000000867232N2    YWYIPLTC006400630015
BI00B32N2    2152103851     202203177116-4020                TERMINAL                 CCN000418500000418500FN00000000020220401000418500NNM   20220222160909    4P0P  00001350000000513000000798232N2    YWYIPLTC006400630015
BI00B32N2    2152103851     202203177116-4022                TERMINAL                 CCN000027000000027000FN00000000020220401000027000NNM   20220222160909    4P0P  00001350000000618300000903532N2    YWYIPLTC006400630015
BI00B32N2    2152103851     202203177116-4025                TERMINAL                 CCN000016000000016000FN00000000020220401000016000NNM   20220222160909    4P0P  00001600000000644800000975132N2    YWYIPLTC006400630017
BI00B32N2    2152103851     202203177116-4032                TERMINAL                 CCN000036000000036000FN00000000020220401000036000NNM   20220222160909    4P0P  00000600000000532800000818032N2    YWYIPLTC006400630015
BI00B32N2    2152103851     202203177116-6041                TERMINAL                 CCN000004500000004500FN00000000020220401000004500NNM   20220222160909    4P0P  00000450000000716000001009632N2    YWYIPLTC006400630015
BI00B32N2    2152103851     202203177183-2417                CONNECTOR HOUSING        CCN000002400000002400FN00000000020220401000002400NNM   20220222160909    4F0F  00000240000001137400001297732N2    YWYIPLTC005500360039
BI00B32N2    2152103851     202203177283-5845                CONNECTOR HOUSING        CCN000006000000006000FN00000000020220401000006000NNM   20220222160909    1N0N  00000600000000444000000606332N2    YWYIPLTC005400370024
BI00B32N2    2152103851     202203177283-5846                HOUSING                  CCN000001500000001500FN00000000020220401000001500NNM   20220222160909    1N0N  00000150000000885000001102032N2    YWYIPLTC005600390040
BI00B32N2    2152103851     202203177286-3970                CONNECTOR HOUSING        CCN000001540000001540FN00000000020220401000001540NNM   20220222160909    1N0N  00000011000000977300001164032N2    YWYIPLTC005500360039
BI00B32N2    2152103851     202203177370-0309                J/B ASS'Y                CCN000001568000001568FN00000000020220401000001568NNM   20220222160909    1J0J  00000001600000870400001260032N2    YWYIPLTC005500360039
BI00B32N2    2152103851     202203177370-0310                J/B ASS'Y                CCN000001790000001790FN00000000020220401000001790NNM   20220222160909    1J0J  00000001000000559000000809032N2    YWYIPLTC005500360039
BI00B32N2    2152103851     202203177017-1180-02             TERMINAL                 CCN000078000000144000FN00000000020220401000144000NNM   20220222160909    4P0P  00007200000001065600001229032N2    YWYIPLTC005100280028
BI00B32N2    2152103851     202203177114-4100-02             TERMINAL                 CCN000018000000018000FN00000000020220401000018000NNM   20220222160909    4P0P  00001800000000748800001077432N2    YWYIPLTC006400630017
BI00B32N2    2152103851     202203177114-4101-02             TERMINAL                 CCN000015000000015000FN00000000020220401000015000NNM   20220222160909    4P0P  00001500000000675000001003632N2    YWYIPLTC006400630017
BI00B32N2    2152103851     202203177114-4110-02             TERMINAL                 CCN000015000000015000FN00000000020220401000015000NNM   20220222160909    4P0P  00001500000000901500001230132N2    YWYIPLTC006400630017
BI00B32N2    2152103851     202203177114-4111-02             TERMINAL                 CCN000012000000012000FN00000000020220401000012000NNM   20220222160909    4P0P  00001200000000758400001087032N2    YWYIPLTC006400630017
BI00B32N2    2152103851     202203177114-4112-02             TERMINAL                 CCN000018000000018000FN00000000020220401000018000NNM   20220222160909    4P0P  00000900000000598500000927132N2    YWYIPLTC006400630017
BI00B32N2    2152103851     202203177114-4231-02             TERMINAL                 CCN000126000000126000FN00000000020220401000126000NNM   20220222160909    4P0P  00001800000000554400000848032N2    YWYIPLTC006400630015
BI00B32N2    2152103851     202203177116-1685-02             TERMINAL                 CCN000024000000024000FN00000000020220401000024000NNM   20220222160909    4P0P  00002400000000897600001065232N2    YWYIPLTC005100280028
BI00B32N2    2152103851     202203177116-2891-02             TERMINAL                 CCN000015000000015000FN00000000020220401000015000NNM   20220222160909    4P0P  00001500000000982500001145932N2    YWYIPLTC005100280028
BI00B32N2    2152103851     202203177116-2893-02             TERMINAL                 CCN000024000000024000FN00000000020220401000024000NNM   20220222160909    4P0P  00001200000000895200001058632N2    YWYIPLTC005100280028
BI00B32N2    2152103851     202203177116-4102-02             TERMINAL                 CCN000036000000036000FN00000000020220401000036000NNM   20220222160909    4P0P  00001200000000553200000841432N2    YWYIPLTC006400630015
BI00B32N2    2152103851     202203177116-4110-02             TERMINAL                 CCN000081000000081000FN00000000020220401000081000NNM   20220222160909    4P0P  00000900000000594000000882232N2    YWYIPLTC006400630015
BI00B32N2    2152103851     202203177116-4111-02             TERMINAL                 CCN000030000000030000FN00000000020220401000030000NNM   20220222160909    4P0P  00000750000000529500000817732N2    YWYIPLTC006400630015
BI00B32N2    2152103851     202203177116-4122-02             TERMINAL                 CCN000040500000040500FN00000000020220401000040500NNM   20220222160909    4P0P  00000450000000656600000950232N2    YWYIPLTC006400630015
BI00B32N2    2152103851     202203177116-4231-02             TERMINAL                 CCN000182000000182000FN00000000020220401000182000NNM   20220222160909    4P0P  00002600000000683800001012532N2    YWYIPLTC006400630017
BI00B32N2    2152103851     202203177116-4416-02             TERMINAL                 CCN000032000000032000FN00000000020220401000032000NNM   20220222160909    4P0P  00003200000000518400000847132N2    YWYIPLTC006400630017
BI00B32N2    2152103851     202203177116-4780-02             TERMINAL FEMALE          CCN000030000000030000FN00000000020220401000030000NNM   20220222160909    4P0P  00001500000000691500000985732N2    YWYIPLTC006400630015
BI00B32N2    2152103851     202203177116-5043-02             TERMINAL FEMALE          CCN000012000000012000FN00000000020220401000012000NNM   20220222160909    4P0P  00001200000000559200000844432N2    YWYIPLTC006400630015
BI00B32N2    2152103851     202203177126-8853-02             TERMINAL                 CCN000015000000015000FN00000000020220401000015000NNM   20220222160909    4P0P  00000750000000562500000847732N2    YWYIPLTC006400630015
BI00B32N2    2152103851     202203177126-8854-02             TERMINAL                 CCN000015000000015000FN00000000020220401000015000NNM   20220222160909    4P0P  00000750000000604500000889732N2    YWYIPLTC006400630015
BI00B32N2    2152103851     202203177126-8855-02             TERMINAL                 CCN000006000000006000FN00000000020220401000006000NNM   20220222160909    4P0P  00000600000000510600000795832N2    YWYIPLTC006400630015
BI00B32N2    2152103851     202203177140-1977-30             UPPER COVER              CCN000001840000001840FN00000000020220401000001840NNM   20220222160909    1F0F  00000001000000099500000249532N2    YWYIPLTC005600390040
BI00B32N2    2152103851     202203177158-3006-90             RUBBER STOPPER           CCN000020000000020000FN00000000020220401000020000NNM   20220222160909    1C0C  00002000000000330600000386032N2    YWYIPLTC002700430014
BI00B32N2    2152103851     202203177283-5574-10             CONNECTOR                CCN000011200000011200FN00000000020220401000011200NNM   20220222160909    4N0N  00000080000001235000001435232N2    YWYIPLTC005500360039
BI00B32N2    #2152103851    202203177114-4022                TERMINAL                 CCN000015000000015000FN00000000020220401000015000NNM   20220222160905    2F0P  00001500000000708000001120632N2    YWYIPLTC006400630015
BI00B32N2    #2152103851    202203177116-4021                TERMINAL                 CCN000067500000067500FN00000000020220401000067500NNM   20220222160905    2F0P  00001350000000534600000868832N2    YWYIPLTC006400630015
BI00B32N2    #2152103851    202203177147-9094                RETAINER                 CCN000003000000003000FN00000000020220401000003000NNM   20220222160905    2F0F  00000300000000717000000872932N2    YWYIPLTC005500360039
BI00B32N2    #2152103851    202203177154-3456                REAR HOLDER              CCN000007000000007000FN00000000020220401000007000NNM   20220222160905    2F0F  00000700000000581700000752032N2    YWYIPLTC005500360039
BI00B32N2    #2152103851    202203177157-3821                RUBBER STOPPER           CCN000040000000040000FN00000000020220401000040000NNM   20220222160905    2C0C  00002000000000176000000238032N2    YWYIPLTC002700430014
BI00B32N2    #2152103851    202203177157-7812                SEAL RUBBER              CCN000080000000080000FN00000000020220401000080000NNM   20220222160905    2C0C  00001000000000137000000202032N2    YWYIPLTC002700430014
BI00B32N2    #2152103851    202203177173-1070                CONNECTOR BRACKET        CCN000001200000001200FN00000000020220401000001200NNM   20220222160905    2F0F  00000120000000592400000968332N2    YWYIPLTC005500360039
BI00B32N2    #2152103851    202203177173-1071                BRACKET                  CCN000002400000002400FN00000000020220401000002400NNM   20220222160905    2F0F  00000120000001156800001388232N2    YWYIPLTC005600390040
BI00B32N2    #2152103851    202203177173-1516                SIDE BRACKET             CCN000002400000002400FN00000000020220401000002400NNM   20220222160905    2F0F  00000060000000960000001090032N2    YWYIPLTC005500360039
BI00B32N2    #2152103851    202203177174-0152                CONNECTOR                CCN000001400000001400FN00000000020220401000001400NNM   20220222160905    2F0F  00000035000000746400000918632N2    YWYIPLTC005500360039
BI00B32N2    #2152103851    202203177183-0521                HOUSING                  CCN000004800000004800FN00000000020220401000004800NNM   20220222160905    2F0F  00000480000001367500001585032N2    YWYIPLTC005500360039
BI00B32N2    #2152103851    202203177183-1616                CONNECTOR HOUSING        CCN000002400000002400FN00000000020220401000002400NNM   20220222160905    2F0F  00000240000000557500000823332N2    YWYIPLTC005500360039
BI00B32N2    #2152103851    202203177183-2412                HOUSING                  CCN000001600000001600FN00000000020220401000001600NNM   20220222160905    2F0F  00000160000001059200001245632N2    YWYIPLTC005500360039
BI00B32N2    #2152103851    202203177183-2414                CONNECTOR HOUSING        CCN000004800000004800FN00000000020220401000004800NNM   20220222160905    2F0F  00000480000000779200001061032N2    YWYIPLTC005500360039
BI00B32N2    #2152103851    202203177183-2419                HOUSING                  CCN000004800000004800FN00000000020220401000004800NNM   20220222160905    2F0F  00000480000001065600001352732N2    YWYIPLTC005500360039
BI00B32N2    #2152103851    202203177183-2511                HOUSING                  CCN000003200000003200FN00000000020220401000003200NNM   20220222160905    2F0F  00000160000000972200001242132N2    YWYIPLTC005500360039
BI00B32N2    #2152103851    202203177186-3973                CONNECTOR HOUSING        CCN000002400000002400FN00000000020220401000002400NNM   20220222160905    2F0F  00000240000001061800001232932N2    YWYIPLTC005500360039
BI00B32N2    #2152103851    202203177187-3356                JOINT CONNECTOR          CCN000013200000013200FN00000000020220401000013200NNM   20220222160905    2F0F  00000120000000759600001024432N2    YWYIPLTC005600390040
BI00B32N2    #2152103851    202203177187-3360                JOINT CONNECTOR          CCN000012000000012000FN00000000020220401000012000NNM   20220222160905    2F0F  00000120000000759600001026832N2    YWYIPLTC005600390040
BI00B32N2    #2152103851    202203177187-3970                CONNECTOR FLAME          CCN000001840000001840FN00000000020220401000001840NNM   20220222160905    2F0F  00000036800001414000001737332N2    YWYIPLTC005600390040
BI00B32N2    #2152103851    202203177187-3971                CONNECTOR HOUSING        CCN000002400000002400FN00000000020220401000002400NNM   20220222160905    2F0F  00000240000000928300001099532N2    YWYIPLTC005500360039
BI00B32N2    #2152103851    202203177282-3020                CONNECTOR                CCN000002000000002000FN00000000020220401000002000NNM   20220222160905    2N0N  00000100000000984000001145432N2    YWYIPLTC005500360039
BI00B32N2    #2152103851    202203177123-7564-40             CONNECTOR                CCN000001000000001000FN00000000020220401000001000NNM   20220222160905    2F0F  00000100000001301000001479032N2    YWYIPLTC005600390040
BI00B32N2    #2152103851    202203177140-1978-30             LOWER COVER              CCN000001992000001992FN00000000020220401000001992NNM   20220222160905    2F0F  00000000800000207100000395132N2    YWYIPLTC005500360039
BI00B32N2    #2152103851    202203177186-3974-30             CONNECTOR HOUSING        CCN000002400000002400FN00000000020220401000002400NNM   20220222160905    2F0F  00000240000001062200001233432N2    YWYIPLTC005500360039
BI00B32N2    #2152103851    202203177186-3976-60             CONNECTOR HOUSING        CCN000002400000002400FN00000000020220401000002400NNM   20220222160905    2F0F  00000240000001065100001236332N2    YWYIPLTC005500360039
BI00B32N2    #2152103851    202203177187-3358-30             JOINT CONNECTOR          CCN000001200000001200FN00000000020220401000001200NNM   20220222160905    2F0F  00000120000000673200000940432N2    YWYIPLTC005600390040
BI00B32N2    @2152103851    202203177183-3190                JOINT CONNECTOR          CCN000021600000021600FN00000000020220401000021600NNM   20220222160907    3F0F  00000360000000457600000667832N2    YWYIPLTC005500360039
BI00B32N2    @2152103851    202203177283-1100                CONNECTOR ASS'Y          CCN000004800000004800FN00000000020220401000004800NNM   20220222160907    3N0N  00000160000000566500000799632N2    YWYIPLTC005500360039
BI00B32Q8    #EU2203FTMW    202203097172-5632-10             DUMMY PLUG               CCN000600000000600000FN00000000020220301000600000NNED0420220222164345    2H0H  00002000000000080400000131832Q8    EMEMI   004300270014
BI00B32Q8    #EU2203GTMW    202203167172-5632-10             DUMMY PLUG               CCN000220000000220000FN00000000020220301000220000NNED0420220222164411    2H0H  00002000000000080400000131832Q8    EMEMI   004300270014
BI00B32Q8    #EU22053TMW    202205117172-5630-40             RUBBER STOPPER           CCN000700000000700000FN00000000020220501000700000NNMD0420220222121213    2H0H  00002000000000044000000095132Q8    EMEMI   004300270014
BI00B32Q8    #EU22054TMW    202205187172-5630-40             RUBBER STOPPER           CCN001780000001780000FN00000000020220501001780000NNMD0420220222121213    2H0H  00002000000000044000000095132Q8    EMEMI   004300270014
BI00B32Q8    EU2205ATMW     202204067327-6950-30             MULTI FUSE               CCN000001152000001152FN00000000020220501000001152NNE   20220222160215    4N00  00000028800000888700001054632Q8    EMEMI   005400370024
BI00B32Q8    EU2205ATMW     202204067327-6954-30             MULTI FUSE               CCN000001800000001800FN00000000020220501000001800NNE   20220222160215    4N00  00000060000000751600000954332Q8    EMEMI   005400370024
BI00B32Q8    EU2205BTMW     202204067327-6950-30             MULTI FUSE               CCN000001440000001440FN00000000020220501000001440NNE   20220222160238    4N00  00000028800000888700001054632Q8    EMEMI   005400370024
BI00B32Q8    EU2205BTMW     202204067327-6952-30             MULTI FUSE               CCN000001680000001680FN00000000020220501000001680NNE   20220222160238    4N0N  00000056000000848500001031532Q8    EMEMI   005400370024
BI00B32Q8    EU2205BTMW     202204067327-6954-30             MULTI FUSE               CCN000001800000001800FN00000000020220501000001800NNE   20220222160238    4N00  00000060000000751600000954332Q8    EMEMI   005400370024
BI00B32Q8    EU2205CTMW     202204207327-6950-30             MULTI FUSE               CCN000001728000001728FN00000000020220501000001728NNE   20220222160254    4N00  00000028800000888700001054632Q8    EMEMI   005400370024
BI00B32Q8    EU2205CTMW     202204207327-6952-30             MULTI FUSE               CCN000001680000001680FN00000000020220501000001680NNE   20220222160254    4N0N  00000056000000848500001031532Q8    EMEMI   005400370024
BI00B32Q8    EU2205CTMW     202204207327-6954-30             MULTI FUSE               CCN000001200000001200FN00000000020220501000001200NNE   20220222160254    4N00  00000060000000751600000954332Q8    EMEMI   005400370024
BI00B32Q8    EU2204C MW     202203097114-4100-02             TERMINAL                 CCN000198000000198000FN00000000020220401000198000NNE   20220222161848    4P0P  00001800000000748800001077432Q8    EMEMI   006400630017
BI00B32Q8    EU2204C MW     202203097114-4110-02             TERMINAL                 CCN000015000000015000FN00000000020220401000015000NNE   20220222161848    4P0P  00001500000000901500001230132Q8    EMEMI   006400630017
BI00B32Q8    EU2204C MW     202203097114-4111-02             TERMINAL                 CCN000072000000072000FN00000000020220401000072000NNE   20220222161848    4P0P  00001200000000758400001087032Q8    EMEMI   006400630017
BI00B32Q8    EU2204C MW     202203097114-4112-02             TERMINAL                 CCN000072000000072000FN00000000020220401000072000NNE   20220222161848    4P0P  00000900000000598500000927132Q8    EMEMI   006400630017
BI00B32Q8    EU2204C MW     202203097116-4026                TERMINAL                 CCN000208000000208000FN00000000020220401000208000NNE   20220222161848    4P0P  00001600000000664000000994332Q8    EMEMI   006400630017
BI00B32Q8    EU2204C MW     202203097116-4102-02             TERMINAL                 CCN000036000000036000FN00000000020220401000036000NNE   20220222161848    4P0P  00001200000000553200000841432Q8    EMEMI   006400630015
BI00B32Q8    EU2204C MW     202203097116-5751-02             TERMINAL                 CCN000108000000108000FN00000000020220401000108000NNE   20220222161848    4P0P  00001200000000379200000664432Q8    EMEMI   006400630015
BI00B32Q8    EU2204C MW     202203097158-3022-80             RUBBER STOPPER           CCN000005000000005000FN00000000020220401000005000NNE   20220222161848    1C0C  00000500000000467500000524032Q8    EMEMI   002700430014
BI00B32Q8    EU2204C MW     202203097283-6120                CONNECTOR HOUSING        CCN000001500000001500FN00000000020220401000001500NNE   20220222161848    1N0N  00000150000000914000001143032Q8    EMEMI   005600390040
BI00B32Q8    EU2204C MW     202203097283-7526-30             CONNECTOR HOUSING        CCN000001960000001960FN00000000020220401000001960NNE   20220222161848    4N0N  00000196000000989800001248632Q8    EMEMI   005500360039
BI00B32Q8    #EU2204C MW    202203097158-3121-80             WIRE SEAL                CCN000020000000020000FN00000000020220401000020000NNE   20220222161846    2C0C  00002000000000118000000187332Q8    EMEMI   002700430014
BI00B32Q8    #EU2204C MW    202203097283-8398-40             CONNECTOR                CCN000003080000003080FN00000000020220401000003080NNE   20220222161846    2N0N  00000154000001007000001171332Q8    EMEMI   005600390023
BI00B32Q8    #EU2204CDMW    202203097287-8860                HOUSING FEMALE ASS'Y     CCN000001600000001600FN00000000020220401000001600NNE   20220222161900    2N0N  00000160000000693400000853432Q8    EMEMI   005400370024
BI00B32Q8    EU2204CNMW     202203097283-7526-60             CONNECTOR HOUSING        CCN000001960000001960FN00000000020220401000001960NNE   20220222161917    4N0N  00000196000000989800001248632Q8    EMEMI   005500360039
BI00B32Q8    EU2204ETMW     202203097196-1064-02             TERMINAL FEMALE          CCN000006000000006000FN00000000020220401000006000NNE   20220222161949    4P0P  00000600000000570000000855232Q8    EMEMI   006400630015
BI00B32Q8    EU2204ETMW     202203097196-1947-02             TERMINAL FEMALE          CCN000018000000018000FN00000000020220401000018000NNE   20220222161949    4POP  00000900000000407700000692932Q8    EMEMI   006400630015
BI00B32Q8    EU2204ETMW     202203097283-4576-30             HOUSING FEMALE ASS'Y     CCN000004800000004800FN00000000020220401000004800NNE   20220222161949    4N0N  00000480000000651300000871332Q8    EMEMI   005500360039
BI00B32Q8    EU2204ETMW     202203097288-3335-30             HOUSING MALE             CCN000001500000001500FN00000000020220401000001500NNE   20220222161949    4N0N  00000150000000867000001012032Q8    EMEMI   005400370024
BI00B32Q8    EU2204ETMW     202203097288-3338-30             HOUSING MALE             CCN000001500000001500FN00000000020220401000001500NNE   20220222161949    4N0N  00000150000000866100001012032Q8    EMEMI   005400370024
BI00B32Q8    EU2204ETMW     202203097327-6949-30             MULTI FUSE               CCN000000288000000288FN00000000020220401000000288NNE   20220222161949    4N00  00000028800000886700001052632Q8    EMEMI   005400370024
BI00B32Q8    #EU2204ETMW    202203097172-5625-90             RUBBER STOPPER           CCN000100000000100000FN00000000020220401000100000NNE   20220222161947    2H0H  00002000000000082400000133832Q8    EMEMI   004300270014
BI00B32Q8    #EU2204ETMW    202203097189-3033-30             HOUSING FEMALE           CCN000001600000001600FN00000000020220401000001600NNE   20220222161947    2F0F  00000160000001208000001428032Q8    EMEMI   005500360039
BI00B32Q8    #EU2204ETMW    202203097289-4200-30             HOUSING FEMALE ASS'Y     CCN000054000000054000FN00000000020220401000054000NNE   20220222161947    2N0N  00000200000000926000001021032Q8    EMEMI   005400370024
BI00B32Q8    EU2204FTMW     202203097116-5752-02             TERMINAL                 CCN000210000000210000FN00000000020220401000210000NNE   20220222162010    4P0P  00002100000000571200000856432Q8    EMEMI   006400630015
BI00B32Q8    #EU2204FTMW    202203097154-5597-30             CASSETTE R/B             CCN000001600000001600FN00000000020220401000001600NNE   20220222162006    2F0F  00000080000000736000000952032Q8    EMEMI   005500360039
BI00B32R8    #TT22041AMW    202203017158-3007-10             RUBBER STOPPER           CCN000020000000020000FN00000000020220401000020000NNM00020220222154440    2H0H  00002000000000308000000362732R8    TTTJY   002700430014
BI00B32U5    DI2019         202204087116-4037                TERMINAL                 CCN000054000000054000FN00000000020220601000054000NNM   20220222121213U5  4P0P  00000600000000600000000894232U5    AMAMSD  006400630015
BI00B32U5    DI2019         202204087017-1180-02             TERMINAL                 CCN000144000000144000FN00000000020220601000144000NNM   20220222121213U5  4P0P  00007200000001065600001229032U5    AMAMSD  005100280028
BI00B32U5    DI2019         202204087017-1183-02             TERMINAL                 CCN000027000000027000FN00000000020220601000027000NNM   20220222121213U5  4P0P  00002700000001139400001307432U5    AMAMSD  005100280028
BI00B32U5    DI2019         202204087116-5045-02             TERMINAL                 CCN000240000000240000FN00000000020220601000240000NNM   20220222121213U5  4P0P  00001600000000678400001007132U5    AMAMSD  006400630017
BI00B32U5    DI2019         202204087116-5046-02             TERMINAL                 CCN000108000000108000FN00000000020220601000108000NNM   20220222121213U5  4P0P  00001200000000544800000873532U5    AMAMSD  006400630017
BI00B32U5    DI2019         202204087288-3330-30             HOUSING MALE             CCN000004500000004500FN00000000020220601000004500NNM   20220222121213U5  4N0N  00000150000000866300001011232U5    AMAMSD  005400370024
BI00B32U5    DI2019         202204087288-3339-30             HOUSING MALE             CCN000006000000006000FN00000000020220601000006000NNM   20220222121213U5  4N0N  00000150000000867000001012032U5    AMAMSD  005400370024
BI00B32U5    #DI2019        202204087158-3017                RUBBER STOPPER           CCN000030000000030000FN00000000020220601000030000NNM   20220222121213U5  2C0C  00001000000000375500000435032U5    AMAMSD  002700430014
BI00B32U5    #DI2019        202204087189-3032                HOUSING FEMALE           CCN000012800000012800FN00000000020220601000012800NNM   20220222121213U5  2F0F  00000160000000788400001018432U5    AMAMSD  005500360039
BI00B32U5    #DI2019        202204087154-5597-30             CASSETTE R/B             CCN000001600000001600FN00000000020220601000001600NNM   20220222121213U5  2F0F  00000080000000736000000952032U5    AMAMSD  005500360039
BI00B32U5    #DI2019        202204087158-3007-10             RUBBER STOPPER           CCN000140000000140000FN00000000020220601000140000NNM   20220222121213U5  2H0H  00002000000000308000000362732U5    AMAMSD  002700430014
BI00B32U5    #DI2019        202204087158-3008-80             RUBBER STOPPER           CCN000060000000060000FN00000000020220601000060000NNM   20220222121213U5  2C0C  00002000000000288000000343032U5    AMAMSD  004300270014
BI00B32U5    #DI2019        202204087158-3376-50             CONNECTOR WIRE SEAL      CCN000060000000060000FN00000000020220601000060000NNM   20220222121213U5  2C0C  00002000000000184000000240732U5    AMAMSD  002700430014
BI00B32U5    #DI2019        202204087182-8253-40             HOUSING                  CCN000002400000002400FN00000000020220601000002400NNM   20220222121213U5  2F0F  00000120000000573000000864032U5    AMAMSD  005600390040
BI00B32U5    #DI2019        202204087183-8252-40             HOUSING                  CCN000009600000009600FN00000000020220601000009600NNM   20220222121213U5  2F0F  00000240000000454000000729032U5    AMAMSD  005500360039
BI00B32U5    #DI2019        202204087289-4200-30             HOUSING FEMALE ASS'Y     CCN000002000000002000FN00000000020220601000002000NNM   20220222121213U5  2N0N  00000200000000926000001021032U5    AMAMSD  005400370024
BI00B32W2    #HN22034NMW    202202237116-4021                TERMINAL                 CCN000067500000067500FN00000000020220301000067500NNM00020220222154619    2F0P  00001350000000534600000868832W2    HNHNY   006400630015
BI00B32W2    #HN22034NMW    202202237187-3356                JOINT CONNECTOR          CCN000009600000009600FN00000000020220301000009600NNM00020220222154619    2F0F  00000120000000759600001024432W2    HNHNY   005600390040
BI00B32W2    #HN22034NMW    202202237187-3359-60             JOINT CONNECTOR          CCN000006000000006000FN00000000020220301000006000NNM00020220222154619    2F0F  00000120000000763200001030432W2    HNHNY   005600390040
BI00B32W2    #HN22034NMW    202202237187-3360                JOINT CONNECTOR          CCN000004800000004800FN00000000020220301000004800NNM00020220222154619    2F0F  00000120000000759600001026832W2    HNHNY   005600390040
BI00B32W2    #HN22034NMW    202202237282-1150-50             CONNECTOR MALE ASS'Y     CCN000001200000001200FN00000000020220301000001200NNM00020220222154619    2N0N  00000060000000688800000800032W2    HNHNY   005400370024
BI00B32W2    #HN22034NMW    202202237283-4861                CONNECTOR                CCN000003000000003000FN00000000020220301000003000NNM00020220222154619    2N0N  00000150000001200000001359932W2    HNHNY   005500360039
BI00B32W2    #HN22034NMW    202202237283-5833                CONNECTOR HOUSING        CCN000003640000003640FN00000000020220301000003640NNM00020220222154619    2N0N  00000364000001378000001686732W2    HNHNY   005500360039
BI00A32W4    #4500189062    202203177289-4104-40             HOUSING FEMALE ASS'Y     CCN000002500000002500FN00000000020220301000002500NNED0020220222130445W4652NON  00000050000000606900000821132W465  HJYHK   005400370024
BI00B32W4    4500189219     202204057158-3166-60             WIRE SEAL                CCN000040000000000000FY00000000020220401000000000NNEQ0820220222131515W41 1C0C  00004000000000104000000152432W41   HJYHK   002700430014
BI00B32W4    4500189678     202204217116-4120-02             TERMINAL                 CCN000006000000006000FN00000000020220401000006000NNE   20220222121213W48 4P0P  00000600000000780000001073632W48   HJYHK   006400630015
BI00B32W4    4500189678     202204217116-4121-02             TERMINAL                 CCN000022500000022500FN00000000020220401000022500NNE   20220222121213W48 4P0P  00000450000000618800000912432W48   HJYHK   006400630015
BI00B32W4    4500189678     202204217158-3166-60             WIRE SEAL                CCN000040000000040000FN00000000020220401000040000NNE   20220222121213W48 1C0C  00004000000000104000000152432W48   HJYHK   002700430014
BI00B32W4    @4500189678    202204217123-4312-80             HOUSING                  CCN000001600000001600FN00000000020220401000001600NNE   20220222121213W48 3F0F  00000080000000644200000794032W48   HJYHK   005500360039
BI00B32W4    4500189679     202204077116-4122-02             TERMINAL                 CCN000004500000004500FN00000000020220401000004500NNE   20220222121213W48 4P0P  00000450000000656600000950232W48   HJYHK   006400630015
BI00B32W4    4500189679     202204077116-5044-02             TERMINAL                 CCN000016000000016000FN00000000020220401000016000NNE   20220222121213W48 4P0P  00001600000000641600000986332W48   HJYHK   006400630017
BI00B32W4    4500189679     202204077222-6244-40             CONNECTOR                CCN000001600000001600FN00000000020220401000001600NNE   20220222121213W48 4N0N  00000080000001239200001422032W48   HJYHK   005600390040
BI00B32W4    4500189679     202204077289-7615-30             HOUSING FEMALE ASS'Y     CCN000001600000001600FN00000000020220401000001600NNE   20220222121213W48 4N0N  00000032000000738000000948032W48   HJYHK   005400370024
BI00B32W4    4500189679     202204077172-1372-10             FRONT HOLDER             CCN000003900000003900FN00000000020220401000003900NNE   20220222121213W48 4F0F  00000390000000655200000955232W48   HJYHK   005500360039
BI00B32W4    #4500189679    202204077157-3950-80             SEAL RUBBER              CCN000040000000040000FN00000000020220401000040000NNE   20220222121213W48 2C0C  00004000000000154000000440332W48   HJYHK   002700430014
BI00B32W4    #4500189680    202203247158-3003-90             RUBBER STOPPER           CCN000020000000020000FN00000000020220301000020000NNE   20220222121213W48 2C0C  00002000000000250000000306032W48   HJYHK   002700430014
BI00B32W4    4500189726     202203317287-1917                CONNECTOR FEMALE         CCN000019200000019200FN00000000020220301000019200NNE   20220222121213W4K84N0N  00000240000001060800001312532W4K8  HJYHK-J 005500360039
BI00B32W6    SW22041MMW     202203027116-4124-02             TERMINAL                 CCN000003000000000000FY00000000020220401000000000NNMQ0820220222161111    4P0P  00000300000000459900000753532W6    SYSYA-WJ006400630015
BI00B32W7    SC22033JMW     202202237158-3165-90             WIRE SEAL                CCN000386000000400000FN00000000020220301000400000NNM00020220222154730    1C0C  00004000000000124000000172432W7    SYSYA-CH004300270014
BI00B32W9    4500183732     202202227289-6868-30             SEALED ASSY FEMALE       CCN000151200000075600FY00007560020220201000000000NNEQ0420220222153853W9  4N0N  00000252000000839200001119232W9    HKYHK   005500360039
BI00B32W9    4500189721     202204057017-1180-02             TERMINAL                 CCN000216000000216000FN00000000020220401000216000NNE   20220222121213W9  4P0P  00007200000001065600001229032W9    HKYHK   005100280028
BI00B32W9    4500183732     202203017289-6868-30             SEALED ASSY FEMALE       CCN000075600000075600FN00000000020220201000075600NNED0420220222153853W9  4N0N  00000252000000839200001119232W9    HKYHK   005500360039
BI00B32X5    TIBAD25        202202257288-6547                CONNECTOR MALE ASS'Y     CCN000024750000024750FN00000000020211101000024750NNE00020220222132720X5  4N0N  00000075000001205300001340332X5    EPYNA-E 005400370024
BI00B32X5    TIB1045        202202257289-3342-40             HOUSING FEMALE ASS'Y     CCN000004800000004800FN00000000020211201000004800NNM00020220222132609X5  1N0N  00000240000000686400000901432X5    EPYNA-E 005500360039
BI00B32X5    TIB2007        202202257289-3342-30             HOUSING FEMALE ASS'Y     CCN000019200000019200FN00000000020220401000019200NNM00020220222132753X5  1N0N  00000240000000686400000901432X5    EPYNA-E 005500360039
BI00B32X5    TIB2008        202202257289-3342-30             HOUSING FEMALE ASS'Y     CCN000084000000084000FN00000000020220401000084000NNM00020220222132859X5  1N0N  00000240000000686400000901432X5    EPYNA-E 005500360039
BI00B32X5    TIB2019        202204087114-6041                TERMINAL                 CCN000003600000003600FN00000000020220601000003600NNM   20220222121213X5  4P0P  00000360000000580700000824232X5    EPYNA-E 006400630015
BI00B32X5    TIB2019        202204087270-8994                6P MODULE ASSEMBLY       CCN000000600000000600FN00000000020220601000000600NNM   20220222121213X5  4J0J  00000010000001098600001298632X5    EPYNA-E 005400370024
BI00B32X5    TIB2019        202204087287-8072                HOUSING FEMALE ASS'Y     CCN000002400000002400FN00000000020220601000002400NNM   20220222121213X5  1N0N  00000240000001221600001441632X5    EPYNA-E 005500360039
BI00B32X5    TIB2019        202204087289-3342                HOUSING FEMALE ASS'Y     CCN000024000000024000FN00000000020220601000024000NNM   20220222121213X5  1N0N  00000240000000686400000901432X5    EPYNA-E 005500360039
BI00B32X5    TIB2019        202204087017-1180-02             TERMINAL                 CCN000216000000216000FN00000000020220601000216000NNM   20220222121213X5  4P0P  00007200000001065600001229032X5    EPYNA-E 005100280028
BI00B32X5    TIB2019        202204087017-1182-02             TERMINAL                 CCN000045000000045000FN00000000020220601000045000NNM   20220222121213X5  4P0P  00004500000001165500001318632X5    EPYNA-E 005100280028
BI00B32X5    TIB2019        202204087114-4486-02             TERMINAL                 CCN000048000000048000FN00000000020220601000048000NNM   20220222121213X5  4P0P  00002400000000662400000956032X5    EPYNA-E 006400630015
BI00B32X5    TIB2019        202204087114-4624-02             TERMINAL                 CCN000024000000024000FN00000000020220601000024000NNM   20220222121213X5  4P0P  00002400000000895200001188832X5    EPYNA-E 006400630015
BI00B32X5    TIB2019        202204087116-1685-02             TERMINAL                 CCN000096000000096000FN00000000020220601000096000NNM   20220222121213X5  4P0P  00002400000000897600001065232X5    EPYNA-E 005100280028
BI00B32X5    TIB2019        202204087116-4486-02             TERMINAL                 CCN000028000000028000FN00000000020220601000028000NNM   20220222121213X5  4P0P  00002800000000666400000995132X5    EPYNA-E 006400630017
BI00B32X5    TIB2019        202204087116-5045-02             TERMINAL                 CCN000256000000256000FN00000000020220601000256000NNM   20220222121213X5  4P0P  00001600000000678400001007132X5    EPYNA-E 006400630017
BI00B32X5    TIB2019        202204087116-5046-02             TERMINAL                 CCN000072000000072000FN00000000020220601000072000NNM   20220222121213X5  4P0P  00001200000000544800000873532X5    EPYNA-E 006400630017
BI00B32X5    TIB2019        202204087158-3167-80             WIRE SEAL                CCN000020000000020000FN00000000020220601000020000NNM   20220222121213X5  1C0C  00002000000000048000000109032X5    EPYNA-E 002700430014
BI00B32X5    TIB2019        202204087172-5402-30             SEAL RUBBER              CCN000016000000016000FN00000000020220601000016000NNM   20220222121213X5  1C0C  00000800000000457600000506032X5    EPYNA-E 004300270014
BI00B32X5    TIB2019        202204087196-1325-02             TERMINAL FEMALE          CCN000180000000180000FN00000000020220601000180000NNM   20220222121213X5  4P0P  00006000000000450000000778732X5    EPYNA-E 006400630017
BI00B32X5    TIB2019        202204087282-5574-10             CONNECTOR                CCN000010400000010400FN00000000020220601000010400NNM   20220222121213X5  4N0N  00000080000001235000001423032X5    EPYNA-E 005600390040
BI00B32X5    TIB2019        202204087288-3330-30             HOUSING MALE             CCN000012000000012000FN00000000020220601000012000NNM   20220222121213X5  4N0N  00000150000000866300001011232X5    EPYNA-E 005400370024
BI00B32X5    TIB2019        202204087289-3342-40             HOUSING FEMALE ASS'Y     CCN000002400000002400FN00000000020220601000002400NNM   20220222121213X5  1N0N  00000240000000686400000901432X5    EPYNA-E 005500360039
BI00B32X5    TIB2019        202204087289-5979-30             HOUSING FEMALE ASS'Y     CCN000002016000002016FN00000000020220601000002016NNM   20220222121213X5  1N0N  00000025200000854700001064732X5    EPYNA-E 005400370024
BI00B32X5    TIB2019        202204087388-2978-30             HOUSING MALE ASS'Y       CCN000004800000004800FN00000000020220601000004800NNM   20220222121213X5  1N0N  00000048000000742000001122032X5    EPYNA-E 005500360039
BI00B32X5    #TIB2019       202204087287-7859                HYBRID FEMALE ASS'Y      CCN000007200000007200FN00000000020220601000007200NNM   20220222121213X5  2N0N  00000120000000461600000671632X5    EPYNA-E 005500360039
BI00B32X5    #TIB2019       202204087158-3007-10             RUBBER STOPPER           CCN000480000000480000FN00000000020220601000480000NNM   20220222121213X5  2H0H  00002000000000308000000362732X5    EPYNA-E 002700430014
BI00B32X5    #TIB2019       202204087172-5625-90             RUBBER STOPPER           CCN000060000000060000FN00000000020220601000060000NNM   20220222121213X5  2H0H  00002000000000082400000133832X5    EPYNA-E 004300270014
BI00B32X5    #TIB2019       202204087183-8253-40             HOUSING                  CCN000004800000004800FN00000000020220601000004800NNM   20220222121213X5  2F0F  00000240000000528000000805032X5    EPYNA-E 005500360039
BI00B32X5    #TIB2019       202204087189-2978-30             HOUSING FEMALE           CCN000001500000001500FN00000000020220601000001500NNM   20220222121213X5  2F0F  00000150000000966900001096932X5    EPYNA-E 005400370024
BI00B32X5    #TIB2019       202204087282-8395-40             CONNECTOR                CCN000002000000002000FN00000000020220601000002000NNM   20220222121213X5  2N0N  00000100000001009000001188032X5    EPYNA-E 005500360039
BI00B32X5    #TIB2019       202204087283-8397-40             CONNECTOR                CCN000003080000003080FN00000000020220601000003080NNM   20220222121213X5  2N0N  00000154000001007000001222732X5    EPYNA-E 005600390023
BI00B32X5    #TIB2019       202204087289-2913-30             HOUSING FEMALE ASS'Y     CCN000001500000001500FN00000000020220601000001500NNM   20220222121213X5  2N0N  00000150000000907500001034532X5    EPYNA-E 005400370024
