BI00A1200    #7360T52201    202203217172-5630-40             RUBBER STOPPER           PCN000140000000140000FN00000000020220401000140000NNM00020220309122515    2H0H  0000200000000004400000009511200    YCYC    004300270014
BI00B1200    #O022E50175    202204077282-6458-40             CONNECTOR                CCN000012000000012000FN00000000020220501000012000NNE   20220309122515    2N0N  0000010000000120600000135051200    YCYC    005500360039
BI00B1200    #O022E50176    202204077282-6458-40             CONNECTOR                CCN000012000000012000FN00000000020220501000012000NNE   20220309122515    2N0N  0000010000000120600000135051200    YCYC    005500360039
BI00B1200    #O022E50177    202204077282-6458-40             CONNECTOR                CCN000012000000012000FN00000000020220501000012000NNE   20220309122515    2N0N  0000010000000120600000135051200    YCYC    005500360039
BI00B1200    O022F50041     202206027116-4100-02             TERMINAL                 CCN000030000000030000FN00000000020220601000030000NNE   20220309122515    4P0P  0000150000000069600000099021200    YCYC    006400630015
BI00B1200    203107         202203317196-1461-02             TERMINAL FEMALE          CCN000024000000024000FN00000000020220401000024000NNE   20220309151908    4P0P  0000240000000038640000067161200    YCYC    006400630015
BI00B1200    203107         202203317196-1462-02             TERMINAL FEMALE          CCN000021000000021000FN00000000020220401000021000NNE   20220309151908    4P0P  0000210000000035280000063801200    YCYC    006400630015
BI00B1200    203107         202203317195-1464-02             TERMINAL MALE            CCN000025500000025500FN00000000020220401000025500NNE   20220309151908    4P0P  0000255000000042080000070601200    YCYC    006400630015
BI00B1200    203107         202203317195-1465-02             TERMINAL MALE            CCN000021000000021000FN00000000020220401000021000NNE   20220309151908    4P0P  0000210000000035910000064431200    YCYC    006400630015
BI00B32CH    QA-22-P03      202203177114-5747-02             TERMINAL                 PNY000006000000006000FN00000000020220301000006000NNE   20220309193459    4P0P  00001800000000626400000920032CH    SJSAMIJF006400630015
BI00B32DE    TCT2043        202203177116-4032                TERMINAL                 CCN000048000000048000FN00000000020220401000048000NNMD0020220309122515    4P0P  00000600000000532800000818032DE    TVYEV-TV006400630015
BI00B32DE    TCT2043        202203177116-4037                TERMINAL                 CCN000042000000042000FN00000000020220401000042000NNMD0020220309122515    4P0P  00000600000000600000000894232DE    TVYEV-TV006400630015
BI00B32DE    TCT2044        202203177283-4576                HOUSING FEMALE ASS'Y     CCN000004800000004800FN00000000020220401000004800NNMD0020220309122515    4N0N  00000480000000651300000871332DE    TVYEV-TV005500360039
BI00B32DE    TCT2043        202203177287-7599-10             HOUSING FEMALE ASS'Y     CCN000003200000003200FN00000000020220401000003200NNMD0020220309122515    4N0N  00000160000001233600001445632DE    TVYEV-TV005500360039
BI00B32DE    #TCTL2051      202203247154-5597-30             CASSETTE R/B             CCN000013600000013600FN00000000020220501000013600NNMD0020220309162455    2F0F  00000080000000736000000952032DE    TVYEV-TV005500360039
BI00B32DE    #TCTL2051      202203247189-3036                HOUSING FEMALE           CCN000006400000006400FN00000000020220501000006400NNMD0020220309170151    2F0F  00000160000000921600001141632DE    TVYEV-TV005500360039
BI00B32DE    #TCTL2051      202203247198-4980-30             HOUSING FEMALE           CCN000003600000003600FN00000000020220501000003600NNMD0020220309170212    2F0F  00000120000000840000000921032DE    TVYEV-TV005400370024
BI00B32DE    #TCTL2051      202204077283-1065                CONNECTOR                CCN000030000000015000FN00000000020220501000015000NNMD0020220309170258    2N0N  00000250000001152500001310432DE    TVYEV-TV005500360039
BI00B32DE    #TCTL2051      202203247289-2914                HOUSING FEMALE ASS'Y     CCN000003000000003000FN00000000020220501000003000NNMD0020220309122515    2N0N  00000150000000906000001033032DE    TVYEV-TV005400370024
BI00B32DE    TCT205A        202204077114-4020                TERMINAL                 CCN000042000000042000FN00000000020220501000042000NNE   20220309122515    4P0P  00002100000000875700001169332DE    TVYEV-TV006400630015
BI00B32DE    TCT205A        202204077114-4021                TERMINAL                 CCN000030000000030000FN00000000020220501000030000NNE   20220309122515    4P0P  00001500000000670500000964132DE    TVYEV-TV006400630015
BI00B32DE    TCT205A        202204077114-4032                TERMINAL                 CCN000007500000007500FN00000000020220501000007500NNE   20220309122515    4P0P  00000750000000735000001063632DE    TVYEV-TV006400630017
BI00B32DE    TCT205A        202204077114-4231-02             TERMINAL                 CCN000036000000036000FN00000000020220501000036000NNE   20220309122515    4P0P  00001800000000554400000848032DE    TVYEV-TV006400630015
BI00B32DE    TCT205A        202204077114-4624-02             TERMINAL                 CCN000024000000024000FN00000000020220501000024000NNE   20220309122515    4P0P  00002400000000895200001188832DE    TVYEV-TV006400630015
BI00B32DE    TCT205A        202204077114-4728-02             TERMINAL                 CCN000300000000300000FN00000000020220501000300000NNE   20220309122515    4P0P  00003000000000510000000804232DE    TVYEV-TV006400630015
BI00B32DE    TCT205A        202204077114-4729-02             TERMINAL                 CCN000060000000060000FN00000000020220501000060000NNE   20220309122515    4P0P  00003000000000516000000810232DE    TVYEV-TV006400630015
BI00B32DE    TCT205A        202204077114-5746-02             TERMINAL                 CCN000042000000042000FN00000000020220501000042000NNE   20220309122515    4P0P  00002100000000695100000988732DE    TVYEV-TV006400630015
BI00B32DE    TCT205A        202204077114-5748-02             TERMINAL                 CCN000024000000024000FN00000000020220501000024000NNE   20220309122515    4P0P  00001200000000444000000737632DE    TVYEV-TV006400630015
BI00B32DE    TCT205A        202204077114-5753-02             TERMINAL                 CCN000027000000027000FN00000000020220501000027000NNE   20220309122515    4P0P  00002700000000847800001141432DE    TVYEV-TV006400630015
BI00B32DE    TCT205A        202204077116-3153-08             TERMINAL                 CCN000027000000027000FN00000000020220501000027000NNE   20220309122515    4P0P  00002700000000461700000746932DE    TVYEV-TV006400630015
BI00B32DE    TCT205A        202204077116-4037                TERMINAL                 CCN000006000000006000FN00000000020220501000006000NNE   20220309122515    4P0P  00000600000000600000000894232DE    TVYEV-TV006400630015
BI00B32DE    TCT205A        202204077116-4115-02             TERMINAL                 CCN000008400000008400FN00000000020220501000008400NNE   20220309122515    4P0P  00000840000000593000000881232DE    TVYEV-TV006400630015
BI00B32DE    TCT205A        202204077116-4486-02             TERMINAL                 CCN000028000000028000FN00000000020220501000028000NNE   20220309122515    4P0P  00002800000000666400000995132DE    TVYEV-TV006400630017
BI00B32DE    TCT205A        202204077116-5035-02             TERMINAL                 CCN000015000000015000FN00000000020220501000015000NNE   20220309122515    4P0P  00001500000000543000000828232DE    TVYEV-TV006400630015
BI00B32DE    TCT205A        202204077116-5750-02             TERMINAL                 CCN000045000000045000FN00000000020220501000045000NNE   20220309122515    4P0P  00001500000000457500000742732DE    TVYEV-TV006400630015
BI00B32DE    TCT205A        202204077116-5752-02             TERMINAL                 CCN000042000000042000FN00000000020220501000042000NNE   20220309122515    4P0P  00002100000000571200000856432DE    TVYEV-TV006400630015
BI00B32DE    TCT205A        202204077116-6041                TERMINAL                 CCN000004500000004500FN00000000020220501000004500NNE   20220309122515    4P0P  00000450000000716000001009632DE    TVYEV-TV006400630015
BI00B32DE    TCT205A        202204077116-6042                TERMINAL                 CCN000009000000009000FN00000000020220501000009000NNE   20220309122515    4P0P  00000300000000523800000856132DE    TVYEV-TV006400630015
BI00B32DE    TCT205A        202205127158-3006-90             RUBBER STOPPER           CCN000480000000480000FN00000000020220501000480000NNED0420220309160936    1C0C  00002000000000330600000386032DE    TVYEV-TV002700430014
BI00B32DE    TCT205A        202204077195-1479-02             TERMINAL MALE            CCN000120000000120000FN00000000020220501000120000NNE   20220309122515    4P0P  00002400000000420000000714232DE    TVYEV-TV006400630015
BI00B32DE    TCT205A        202204077196-1103-02             TERMINAL                 CCN000022500000022500FN00000000020220501000022500NNE   20220309122515    4P0P  00002250000000429800000715032DE    TVYEV-TV006400630015
BI00B32DE    TCT205A        202204077196-1481-02             TERMINAL FEMALE          CCN000240000000240000FN00000000020220501000240000NNE   20220309122515    4P0P  00002400000000422400000707632DE    TVYEV-TV006400630015
BI00B32DE    TCT205A        202204077196-1934-02             TERMINAL FEMALE          CCN000058500000058500FN00000000020220501000058500NNE   20220309122515    4P0P  00001950000000561600000846832DE    TVYEV-TV006400630015
BI00B32DE    TCT205A        202204077196-1936-02             TERMINAL FEMALE          CCN000054000000054000FN00000000020220501000054000NNE   20220309122515    4P0P  00001350000000441500000726732DE    TVYEV-TV006400630015
BI00B32DE    TCT205A        202204077196-1939-02             TERMINAL FEMALE          CCN000015000000015000FN00000000020220501000015000NNE   20220309122515    4P0P  00001500000000574500000862732DE    TVYEV-TV006400630015
BI00B32DE    TCT205A        202204077282-4576                HOUSING MALE ASS'Y       CCN000002400000002400FN00000000020220501000002400NNE   20220309122515    4N0N  00000240000000808800001028832DE    TVYEV-TV005500360039
BI00B32DE    TCT205A        202204077282-4577                HOUSING MALE ASS'Y       CCN000007200000007200FN00000000020220501000007200NNE   20220309122515    4N0N  00000240000000964800001174832DE    TVYEV-TV005500360039
BI00B32DE    TCT205A        202204077283-1020-30             CONNECTOR                CCN000006000000006000FN00000000020220501000006000NNE   20220309122515    4N0N  00000600000000840000001064032DE    TVYEV-TV005600390040
BI00B32DE    TCT205A        202204077283-1289-30             CONNECTOR HOUSING        CCN000000600000000600FN00000000020220501000000600NNE   20220309122515    1N0N  00000060000000675600000820632DE    TVYEV-TV005400370024
BI00B32DE    TCT205A        202204077283-1289-40             CONNECTOR HOUSING        CCN000001200000001200FN00000000020220501000001200NNE   20220309122515    1N0N  00000060000000679800000824832DE    TVYEV-TV005400370024
BI00B32DE    TCT205A        202204077283-4576                HOUSING FEMALE ASS'Y     CCN000014400000014400FN00000000020220501000014400NNE   20220309122515    4N0N  00000480000000651300000871332DE    TVYEV-TV005500360039
BI00B32DE    TCT205A        202204077283-4577-30             CONNECTOR HOUSING        CCN000009600000009600FN00000000020220501000009600NNE   20220309122515    4N0N  00000480000000916800001136832DE    TVYEV-TV005500360039
BI00B32DE    TCT205A        202204077283-5832                CONNECTOR HOUSING        CCN000002400000002400FN00000000020220501000002400NNE   20220309122515    1N47  00000240000000723800000873832DE    TVYEV-TV005500360039
BI00B32DE    TCT205A        202204077283-7526-40             CONNECTOR HOUSING        CCN000001960000001960FN00000000020220501000001960NNE   20220309122515    4N0N  00000196000000989800001248632DE    TVYEV-TV005500360039
BI00B32DE    TCT205A        202204077286-1900                CONNECTOR HOUSING        CCN000004800000004800FN00000000020220501000004800NNE   20220309122515    4N0N  00000480000001161600001376632DE    TVYEV-TV005500360039
BI00B32DE    TCT205A        202204077287-1915                CONNECTOR ASS'Y          CCN000002400000002400FN00000000020220501000002400NNE   20220309122515    4N0N  00000240000000666500000923132DE    TVYEV-TV005500360039
BI00B32DE    TCT205A        202204077287-1915-40             CONNECTOR ASS'Y          CCN000004800000004800FN00000000020220501000004800NNE   20220309122515    4N0N  00000240000000666500000923132DE    TVYEV-TV005500360039
BI00B32DE    TCT205A        202204077287-1915-90             CONNECTOR ASS'Y          CCN000002400000002400FN00000000020220501000002400NNE   20220309122515    4N0N  00000240000000666500000923132DE    TVYEV-TV005500360039
BI00B32DE    TCT205A        202204077287-7599-10             HOUSING FEMALE ASS'Y     CCN000003200000003200FN00000000020220501000003200NNE   20220309122515    4N0N  00000160000001233600001445632DE    TVYEV-TV005500360039
BI00B32DE    TCT205A        202204077287-9234                JOINT CONNECTOR          CCN000009600000009600FN00000000020220501000009600NNE   20220309122515    4N0N  00000960000000893800001184832DE    TVYEV-TV005500360039
BI00B32DE    TCT205A        202204077288-6547                CONNECTOR MALE ASS'Y     CCN000002250000002250FN00000000020220501000002250NNE   20220309122515    4N0N  00000075000001205300001340332DE    TVYEV-TV005400370024
BI00B32DE    TCT205A        202204077289-3342-30             HOUSING FEMALE ASS'Y     CCN000033600000033600FN00000000020220501000033600NNE   20220309122515    1N0N  00000240000000686400000901432DE    TVYEV-TV005500360039
BI00B32DE    TCT205A        202204077289-3342-90             HOUSING FEMALE ASS'Y     CCN000007200000007200FN00000000020220501000007200NNE   20220309122515    1N0N  00000240000000686400000901432DE    TVYEV-TV005500360039
BI00B32DE    TCT205A        202204077289-6547                HOUSING FEMALE ASS'Y     CCN000002400000002400FN00000000020220501000002400NNE   20220309122515    1N0N  00000240000001152000001362032DE    TVYEV-TV005500360039
BI00B32DE    TCT205A        202204077382-1481-10             CONNECTOR                CCN000003200000003200FN00000000020220501000003200NNE   20220309122515    4N0N  00000080000001025000001183032DE    TVYEV-TV005600390040
BI00B32DE    #TCTL205A      202204077114-4022                TERMINAL                 CCN000015000000015000FN00000000020220501000015000NNE   20220309122515    2F0P  00001500000000708000001120632DE    TVYEV-TV006400630015
BI00B32DE    #TCTL205B      202204217114-4022                TERMINAL                 CCN000015000000015000FN00000000020220501000015000NNE   20220309122515    2F0P  00001500000000708000001120632DE    TVYEV-TV006400630015
BI00B32DE    #TCTL205A      202204077154-5597-30             CASSETTE R/B             CCN000008000000008000FN00000000020220501000008000NNE   20220309122515    2F0F  00000080000000736000000952032DE    TVYEV-TV005500360039
BI00B32DE    #TCTL205B      202204217157-8991-80             RUBBER STOPPER           CCN000060000000060000FN00000000020220501000060000NNE   20220309122515    2C0C  00002000000000214000000271032DE    TVYEV-TV002700430014
BI00B32DE    #TCTL205A      202204077158-3003-90             RUBBER STOPPER           CCN000200000000200000FN00000000020220501000200000NNE   20220309122515    2C0C  00002000000000250000000306032DE    TVYEV-TV002700430014
BI00B32DE    #TCTL205B      202204217158-3003-90             RUBBER STOPPER           CCN000120000000120000FN00000000020220501000120000NNE   20220309122515    2C0C  00002000000000250000000306032DE    TVYEV-TV002700430014
BI00B32DE    #TCTL205A      202204077158-3007-10             RUBBER STOPPER           CCN000020000000020000FN00000000020220501000020000NNE   20220309122515    2H0H  00002000000000308000000362732DE    TVYEV-TV002700430014
BI00B32DE    #TCTL205A      202204077158-3008-80             RUBBER STOPPER           CCN000020000000020000FN00000000020220501000020000NNE   20220309122515    2C0C  00002000000000288000000343032DE    TVYEV-TV004300270014
BI00B32DE    #TCTL205A      202204077158-3015-10             RUBBER STOPPER           CCN000010000000010000FN00000000020220501000010000NNE   20220309122515    2C0C  00001000000000419500000474032DE    TVYEV-TV002700430014
BI00B32DE    #TCTL205A      202204077172-5629-80             RUBBER STOPPER           CCN000040000000040000FN00000000020220501000040000NNE   20220309122515    2H0H  00002000000000060000000111132DE    TVYEV-TV004300270014
BI00B32DE    #TCTL205B      202204217172-5629-80             RUBBER STOPPER           CCN000020000000020000FN00000000020220501000020000NNE   20220309122515    2H0H  00002000000000060000000111132DE    TVYEV-TV004300270014
BI00B32DE    #TCTL205A      202204077183-1616-30             CONNECTOR HOUSING        CCN000002400000002400FN00000000020220501000002400NNE   20220309122515    2F0F  00000240000000557500000837132DE    TVYEV-TV005500360039
BI00B32DE    #TCTL205B      202204217183-7725-40             HOUSING                  CCN000006000000006000FN00000000020220501000006000NNE   20220309122515    2F0F  00000600000000840000001040032DE    TVYEV-TV005600390040
BI00B32DE    #TCTL205B      202204217187-8856                HOUSING FEMALE           CCN000002000000002000FN00000000020220501000002000NNE   20220309122515    2F0F  00000200000000820000000931532DE    TVYEV-TV005400370024
BI00B32DE    #TCTL205A      202204077189-3036                HOUSING FEMALE           CCN000003200000003200FN00000000020220501000003200NNE   20220309122515    2F0F  00000160000000921600001141632DE    TVYEV-TV005500360039
BI00B32DE    #TCTL205A      202204077198-4980-30             HOUSING FEMALE           CCN000003600000003600FN00000000020220501000003600NNE   20220309122515    2F0F  00000120000000840000000921032DE    TVYEV-TV005400370024
BI00B32DE    #TCTL205B      202204217198-4980-30             HOUSING FEMALE           CCN000002400000002400FN00000000020220501000002400NNE   20220309122515    2F0F  00000120000000840000000921032DE    TVYEV-TV005400370024
BI00B32DE    #TCTL205A      202204077283-1065                CONNECTOR                CCN000005000000005000FN00000000020220501000005000NNE   20220309122515    2N0N  00000250000001152500001310432DE    TVYEV-TV005500360039
BI00B32DE    #TCTL205A      202204077287-1670                HOUSING FEMALE ASS'Y     CCN000002800000002800FN00000000020220501000002800NNE   20220309122515    2N0N  00000280000000953100001145132DE    TVYEV-TV005400370024
BI00B32DE    #TCTL205B      202204217287-1670                HOUSING FEMALE ASS'Y     CCN000002800000002800FN00000000020220501000002800NNE   20220309122515    2N0N  00000280000000953100001145132DE    TVYEV-TV005400370024
BI00B32DE    #TCTL205A      202204077287-1671                HOUSING FEMALE ASS'Y     CCN000002000000002000FN00000000020220501000002000NNE   20220309122515    2N0N  00000200000000782600000974632DE    TVYEV-TV005400370024
BI00B32DE    #TCTL205B      202204217287-1671                HOUSING FEMALE ASS'Y     CCN000002000000002000FN00000000020220501000002000NNE   20220309122515    2N0N  00000200000000782600000974632DE    TVYEV-TV005400370024
BI00B32DE    #TCTL205A      202204077289-2914                HOUSING FEMALE ASS'Y     CCN000001500000001500FN00000000020220501000001500NNE   20220309122515    2N0N  00000150000000906000001033032DE    TVYEV-TV005400370024
BI00B32DE    #TCTL205A      202204077289-2915-30             HOUSING FEMALE ASS'Y     CCN000001500000001500FN00000000020220501000001500NNE   20220309122515    2N0N  00000150000000964500001091532DE    TVYEV-TV005400370024
BI00B32DE    #TCTL205A      202204077289-2916-30             HOUSING FEMALE ASS'Y     CCN000002000000002000FN00000000020220501000002000NNE   20220309122515    2N0N  00000100000000857000001084032DE    TVYEV-TV005400370024
BI00B32DE    #TCTL2051      202203247283-1065                CONNECTOR                CCN000015000000015000FN00000000020220501000015000NNMD0020220309170307    2N0N  00000250000001152500001310432DE    TVYEV-TV005500360039
BI00B32DG    #RL2044A       202203317183-2415                CONNECTOR HOUSING        CCN000004800000004800FN00000000020220401000004800NNE   20220309122515    2F0F  00000480000000798200001091432DG    BFSAIBF 005500360039
BI00B32DG    #RL2044A       202203317172-5631-60             RUBBER STOPPER           CCN000020000000020000FN00000000020220401000020000NNE   20220309122515    2H0H  00002000000000042000000093132DG    BFSAIBF 004300270014
BI00B32DG    #RL2044A       202203317157-3821                RUBBER STOPPER           CCN000020000000020000FN00000000020220401000020000NNE   20220309122515    2C0C  00002000000000176000000238032DG    BFSAIBF 002700430014
BI00B32DG    RP2044C        202203317116-5035-02             TERMINAL                 CCN000015000000015000FN00000000020220401000015000NNE   20220309122515    4P0P  00001500000000543000000828232DG    BFSAIBF 006400630015
BI00B32DG    RP2044C        202203317116-5752-02             TERMINAL                 CCN000021000000021000FN00000000020220401000021000NNE   20220309122515    4P0P  00002100000000571200000856432DG    BFSAIBF 006400630015
BI00B32DG    RP2044C        202203317286-4097                CONNECTOR MALE ASS'Y     CCN000001600000001600FN00000000020220401000001600NNE   20220309122515    1N0N  00000160000000768000000978032DG    BFSAIBF 005500360039
BI00B32DG    RP2044C        202203317288-3340-30             HOUSING MALE             CCN000006000000006000FN00000000020220401000006000NNE   20220309122515    4N0N  00000150000000861500001006432DG    BFSAIBF 005400370024
BI00B32DG    @RP2044C       202203317287-6634                HOUSING FEMALE ASS'Y     CCN000002400000002400FN00000000020220401000002400NNE   20220309122515    3N0N  00000240000001088400001337032DG    BFSAIBF 005500360039
BI00B32D1    #DFTC2222      202204217172-5629-80             RUBBER STOPPER           CCN000320000000320000FN00000000020220601000320000NNMD0420220309122515    2H0H  00002000000000060000000111132D1    TOYOT-K 004300270014
BI00B32D9    I21905         202204217158-3006-90             RUBBER STOPPER           CCN000680000000680000FN00000000020220501000680000NNMD0420220309161007    1C0C  00002000000000330600000386032D9    UEHESTO 002700430014
BI00B32D9    I22005         202204287158-3006-90             RUBBER STOPPER           CCN000680000000680000FN00000000020220501000680000NNMD0420220309161027    1C0C  00002000000000330600000386032D9    UEHESTO 002700430014
BI00B32D9    I22106         202205057158-3006-90             RUBBER STOPPER           CCN000680000000680000FN00000000020220501000680000NNMD0420220309161050    1C0C  00002000000000330600000386032D9    UEHESTO 002700430014
BI00A32D9    I334A          202203117114-4101-02             TERMINAL                 CCN000015000000015000FN00000000020220301000015000NNED0720220309131849    4P0P  00001500000000675000001003632D9    UEHESTO 006400630017
BI00B32EJ    T220308P01     202204077114-4100-02             TERMINAL                 CCN000180000000180000FN00000000020220401000180000NNE   20220309133459EJ  4P0P  00001800000000748800001077432EJ    EJYKBO  006400630017
BI00B32EJ    T220308P01     202204077116-4022                TERMINAL                 CCN000067500000067500FN00000000020220401000067500NNE   20220309133459EJ  4P0P  00001350000000618300000903532EJ    EJYKBO  006400630015
BI00B32EJ    T220308P01     202204077116-4121-02             TERMINAL                 CCN000112500000112500FN00000000020220401000112500NNE   20220309133459EJ  4P0P  00000450000000618800000912432EJ    EJYKBO  006400630015
BI00B32EJ    T220308P01     202204077116-4122-02             TERMINAL                 CCN000090000000090000FN00000000020220401000090000NNE   20220309133459EJ  4P0P  00000450000000656600000950232EJ    EJYKBO  006400630015
BI00B32EJ    T220308P02     202204077158-3166-60             WIRE SEAL                CCN000040000000040000FN00000000020220401000040000NNE   20220309133536EJ  1C0C  00004000000000104000000152432EJ    EJYKBO  002700430014
BI00B32EJ    T220308P02     202204077116-4022                TERMINAL                 CCN000013500000013500FN00000000020220401000013500NNE   20220309133536EJ  4P0P  00001350000000618300000903532EJ    EJYKBO  006400630015
BI00B32EJ    T220308P02     202204077116-4104-02             TERMINAL                 CCN000012000000012000FN00000000020220401000012000NNE   20220309133536EJ  4P0P  00001200000000580800000972432EJ    EJYKBO  006400630015
BI00B32EJ    T220308P02     202204077116-4122-02             TERMINAL                 CCN000013500000013500FN00000000020220401000013500NNE   20220309133536EJ  4P0P  00000450000000656600000950232EJ    EJYKBO  006400630015
BI00B32EJ    T220308P02     202204077158-3070-80             RUBBER STOPPER           CCN000120000000120000FN00000000020220401000120000NNE   20220309133536EJ  1C0C  00004000000000276000000333332EJ    EJYKBO  002700430014
BI00B32EJ    T220308P02     202204077283-1020                CONNECTOR                CCN000012000000012000FN00000000020220401000012000NNE   20220309133536EJ  4N0N  00000600000000840000001049332EJ    EJYKBO  005600390040
BI00B32EJ    T220308P02     202204077283-7028-30             CONNECTOR                CCN000003000000003000FN00000000020220401000003000NNE   20220309133536EJ  4N0N  00000300000001452000001681332EJ    EJYKBO  005600390040
BI00B32EJ    #T220308P02    202204077123-6423-30             CONNECTOR                CCN000010000000010000FN00000000020220401000010000NNE   20220309133532EJ  2F0F  00000200000001002000001167632EJ    EJYKBO  005600390023
BI00B32EJ    #T220308P02    202204077157-3821                RUBBER STOPPER           CCN000020000000020000FN00000000020220401000020000NNE   20220309133532EJ  2C0C  00002000000000176000000238032EJ    EJYKBO  002700430014
BI00B32EJ    #T220308P02    202204077158-3120-90             CONNECTOR WIRE SEAL      CCN000020000000020000FN00000000020220401000020000NNE   20220309133532EJ  2C0C  00002000000000136000000194032EJ    EJYKBO  002700430014
BI00B32E1    NC2071         202204207017-1180-02             TERMINAL                 CCN000072000000072000FN00000000020220601000072000NNM   20220309155444    4P0P  00007200000001065600001229032E1    SPYSE   005100280028
BI00B32E1    NC2074         202205117017-1183-02             TERMINAL                 CCN000027000000027000FN00000000020220601000027000NNM   20220309155444    4P0P  00002700000001139400001307432E1    SPYSE   005100280028
BI00B32E1    NC2074         202205117116-1257-02             TERMINAL                 CCN000024000000024000FN00000000020220601000024000NNM   20220309155444    1P0P  00002400000000518400000847132E1    SPYSE   006400630017
BI00B32E1    NC2074         202205117116-1685-02             TERMINAL                 CCN000024000000024000FN00000000020220601000024000NNM   20220309155444    4P0P  00002400000000897600001065232E1    SPYSE   005100280028
BI00B32E1    NC2071         202204207116-4121-02             TERMINAL                 CCN000009000000009000FN00000000020220601000009000NNM   20220309155444    4P0P  00000450000000618800000912432E1    SPYSE   006400630015
BI00B32E1    NC2072         202204277116-4121-02             TERMINAL                 CCN000009000000009000FN00000000020220601000009000NNM   20220309155444    4P0P  00000450000000618800000912432E1    SPYSE   006400630015
BI00B32E1    NC2073         202205047116-4121-02             TERMINAL                 CCN000009000000009000FN00000000020220601000009000NNM   20220309155444    4P0P  00000450000000618800000912432E1    SPYSE   006400630015
BI00B32E1    NC2074         202205117116-4121-02             TERMINAL                 CCN000004500000004500FN00000000020220601000004500NNM   20220309155444    4P0P  00000450000000618800000912432E1    SPYSE   006400630015
BI00B32E1    NC2071         202204207116-4122-02             TERMINAL                 CCN000009000000009000FN00000000020220601000009000NNM   20220309155444    4P0P  00000450000000656600000950232E1    SPYSE   006400630015
BI00B32E1    NC2072         202204277116-4122-02             TERMINAL                 CCN000004500000004500FN00000000020220601000004500NNM   20220309155444    4P0P  00000450000000656600000950232E1    SPYSE   006400630015
BI00B32E1    NC2073         202205047116-4122-02             TERMINAL                 CCN000004500000004500FN00000000020220601000004500NNM   20220309155444    4P0P  00000450000000656600000950232E1    SPYSE   006400630015
BI00B32E1    NC2074         202205117116-4122-02             TERMINAL                 CCN000004500000004500FN00000000020220601000004500NNM   20220309155444    4P0P  00000450000000656600000950232E1    SPYSE   006400630015
BI00B32E1    NC2071         202204207116-5045-02             TERMINAL                 CCN000016000000016000FN00000000020220601000016000NNM   20220309155444    4P0P  00001600000000678400001007132E1    SPYSE   006400630017
BI00B32E1    NC2071         202204207158-3006-90             RUBBER STOPPER           CCN000020000000020000FN00000000020220601000020000NNM   20220309155444    1C0C  00002000000000330600000386032E1    SPYSE   002700430014
BI00B32E1    NC2072         202204277158-3006-90             RUBBER STOPPER           CCN000020000000020000FN00000000020220601000020000NNM   20220309155444    1C0C  00002000000000330600000386032E1    SPYSE   002700430014
BI00B32E1    NC2073         202205047158-3006-90             RUBBER STOPPER           CCN000020000000020000FN00000000020220601000020000NNM   20220309155444    1C0C  00002000000000330600000386032E1    SPYSE   002700430014
BI00B32E1    NC2074         202205117158-3006-90             RUBBER STOPPER           CCN000020000000020000FN00000000020220601000020000NNM   20220309155444    1C0C  00002000000000330600000386032E1    SPYSE   002700430014
BI00B32E1    NC2074         202205117288-3329-30             HOUSING MALE             CCN000001500000001500FN00000000020220601000001500NNM   20220309155444    4N0N  00000150000000866100001011132E1    SPYSE   005400370024
BI00B32E1    NC2071         202204207289-3342-30             HOUSING FEMALE ASS'Y     CCN000002400000002400FN00000000020220601000002400NNM   20220309155444    1N0N  00000240000000686400000901432E1    SPYSE   005500360039
BI00B32E1    #NC2071        202204207158-3003-90             RUBBER STOPPER           CCN000020000000020000FN00000000020220601000020000NNM   20220309155442    2C0C  00002000000000250000000306032E1    SPYSE   002700430014
BI00B32E1    #NC2071        202204207182-2410                CONNECTOR HOUSING        CCN000001200000001200FN00000000020220601000001200NNM   20220309155442    2F0F  00000120000000959800001245632E1    SPYSE   005500360039
BI00A32E2    NY203C         202203117114-4032                TERMINAL                 CCN000007500000007500FN00000000020220301000007500NNED0720220309131937    4P0P  00000750000000735000001063632E2    SPYSE   006400630017
BI00B32E2    NY2074         202205117017-1181-02             TERMINAL                 CCN000063000000063000FN00000000020220601000063000NNM   20220309155507    4P0P  00006300000001089900001266832E2    SPYSE   005100280028
BI00B32E2    NY2071         202204207017-1183-02             TERMINAL                 CCN000054000000054000FN00000000020220601000054000NNM   20220309155507    4P0P  00002700000001139400001307432E2    SPYSE   005100280028
BI00B32E2    NY2072         202204277017-1183-02             TERMINAL                 CCN000027000000027000FN00000000020220601000027000NNM   20220309155507    4P0P  00002700000001139400001307432E2    SPYSE   005100280028
BI00B32E2    NY2074         202205117116-1473                TERMINAL                 CCN000027000000027000FN00000000020220601000027000NNM   20220309155507    4P0P  00001350000000523800000809032E2    SPYSE   006400630015
BI00B32E2    NY2074         202205117116-1685-02             TERMINAL                 CCN000024000000024000FN00000000020220601000024000NNM   20220309155507    4P0P  00002400000000897600001065232E2    SPYSE   005100280028
BI00B32E2    NY2071         202204207116-1686-02             TERMINAL                 CCN000021000000021000FN00000000020220601000021000NNM   20220309155507    4P0P  00002100000000869400001021632E2    SPYSE   005100280028
BI00B32E2    NY2071         202204207116-4122-02             TERMINAL                 CCN000045000000045000FN00000000020220601000045000NNM   20220309155507    4P0P  00000450000000656600000950232E2    SPYSE   006400630015
BI00B32E2    NY2072         202204277116-4122-02             TERMINAL                 CCN000031500000031500FN00000000020220601000031500NNM   20220309155507    4P0P  00000450000000656600000950232E2    SPYSE   006400630015
BI00B32E2    NY2073         202205047116-4122-02             TERMINAL                 CCN000027000000027000FN00000000020220601000027000NNM   20220309155507    4P0P  00000450000000656600000950232E2    SPYSE   006400630015
BI00B32E2    NY2074         202205117116-4122-02             TERMINAL                 CCN000013500000013500FN00000000020220601000013500NNM   20220309155507    4P0P  00000450000000656600000950232E2    SPYSE   006400630015
BI00B32E2    NY2074         202205117126-8851-02             TERMINAL                 CCN000018000000018000FN00000000020220601000018000NNM   20220309155507    1P0P  00000900000000739800001025032E2    SPYSE   006400630015
BI00B32E2    NY2071         202204207158-3006-90             RUBBER STOPPER           CCN000080000000080000FN00000000020220601000080000NNM   20220309155507    1C0C  00002000000000330600000386032E2    SPYSE   002700430014
BI00B32E2    NY2072         202204277158-3006-90             RUBBER STOPPER           CCN000020000000020000FN00000000020220601000020000NNM   20220309155507    1C0C  00002000000000330600000386032E2    SPYSE   002700430014
BI00B32E2    NY2073         202205047158-3006-90             RUBBER STOPPER           CCN000020000000020000FN00000000020220601000020000NNM   20220309155507    1C0C  00002000000000330600000386032E2    SPYSE   002700430014
BI00B32E2    NY2071         202204207158-3166-60             WIRE SEAL                CCN000040000000040000FN00000000020220601000040000NNM   20220309155507    1C0C  00004000000000104000000152432E2    SPYSE   002700430014
BI00B32E2    NY2072         202204277158-3166-60             WIRE SEAL                CCN000040000000040000FN00000000020220601000040000NNM   20220309155507    1C0C  00004000000000104000000152432E2    SPYSE   002700430014
BI00B32E2    NY2073         202205047158-3166-60             WIRE SEAL                CCN000040000000040000FN00000000020220601000040000NNM   20220309155507    1C0C  00004000000000104000000152432E2    SPYSE   002700430014
BI00B32E2    NY2074         202205117158-3168-80             SEALED                   CCN000020000000020000FN00000000020220601000020000NNM   20220309155507    1C0C  00002000000000044000000092132E2    SPYSE   004300260014
BI00B32E2    NY2071         202204207288-3337-30             HOUSING MALE             CCN000001500000001500FN00000000020220601000001500NNM   20220309155507    4N0N  00000150000000867000001012032E2    SPYSE   005400370024
BI00B32E2    #NY2074        202205117158-3003-90             RUBBER STOPPER           CCN000020000000020000FN00000000020220601000020000NNM   20220309155506    2C0C  00002000000000250000000306032E2    SPYSE   002700430014
BI00B32E2    #NY2071        202204207158-3121-80             WIRE SEAL                CCN000060000000060000FN00000000020220601000060000NNM   20220309155506    2C0C  00002000000000118000000187332E2    SPYSE   002700430014
BI00B32E2    #NY2072        202204277158-3121-80             WIRE SEAL                CCN000040000000040000FN00000000020220601000040000NNM   20220309155506    2C0C  00002000000000118000000187332E2    SPYSE   002700430014
BI00B32E2    #NY2074        202205117282-3243-40             CONNECTOR                CCN000000800000000800FN00000000020220601000000800NNM   20220309155506    2N0N  00000080000001006000001282332E2    SPYSE   005600390040
BI00B32G7    JJ22044 MW     202204077158-3070-80             RUBBER STOPPER           CCN000040000000000000FY00000000020220401000000000NNMQ0820220309155832    1C0C  00004000000000276000000333332G7    JIJAI   002700430014
BI00B32G7    JJ22044 MW     202204077158-3166-60             WIRE SEAL                CCN000040000000000000FY00000000020220401000000000NNMQ0820220309155857    1C0C  00004000000000104000000152432G7    JIJAI   002700430014
BI00B32G7    JJ22044MMW     202204077288-3330-30             HOUSING MALE             CCN000001500000000000FY00000000020220401000000000NNMQ0820220309160127    4N0N  00000150000000866300001011232G7    JIJAI   005400370024
BI00B32G7    JJ22044MMW     202204077288-3332-30             HOUSING MALE             CCN000006000000000000FY00000000020220401000000000NNMQ0820220309160232    4N0N  00000150000000860700001005732G7    JIJAI   005400370024
BI00B32G7    JJ22044MMW     202204077288-3339-30             HOUSING MALE             CCN000001500000000000FY00000000020220401000000000NNMQ0820220309160252    4N0N  00000150000000867000001012032G7    JIJAI   005400370024
BI00B32G7    JJ22044MMW     202204077327-6731-3W             BATTERY FUSE             CCN000004672000000000FY00000000020220401000000000NNMQ0820220309160403    4N0N  00000006400000697600000843032G7    JIJAI   005400370024
BI00A32G7    JJ2203G MW     202203107114-4112-02             TERMINAL                 CCN000009000000009000FN00000000020220301000009000NNE   20220309122515    4P0P  00000900000000598500000927132G7    JIJAI   006400630017
BI00A32G7    JJ2203G MW     202203107116-1685-02             TERMINAL                 CCN000168000000168000FN00000000020220301000168000NNE   20220309122515    4P0P  00002400000000897600001065232G7    JIJAI   005100280028
BI00A32G7    JJ2203G MW     202203107116-1686-02             TERMINAL                 CCN000021000000021000FN00000000020220301000021000NNE   20220309122515    4P0P  00002100000000869400001021632G7    JIJAI   005100280028
BI00A32G7    JJ2203G MW     202203107116-4025                TERMINAL                 CCN000064000000064000FN00000000020220301000064000NNE   20220309122515    4P0P  00001600000000644800000975132G7    JIJAI   006400630017
BI00A32G7    JJ2203G MW     202203107116-4026                TERMINAL                 CCN000032000000032000FN00000000020220301000032000NNE   20220309122515    4P0P  00001600000000664000000994332G7    JIJAI   006400630017
BI00B32H7    #FS22051DMW    202204207172-5630-40             RUBBER STOPPER           CCN000100000000100000FN00000000020220501000100000NNMD0420220309122515    2H0H  00002000000000044000000095132H7    FYFSY   004300270014
BI00B32H7    #FS22052DMW    202204277172-5630-40             RUBBER STOPPER           CCN000340000000340000FN00000000020220501000340000NNMD0420220309122515    2H0H  00002000000000044000000095132H7    FYFSY   004300270014
BI00B32H7    #FS22053DMW    202205047172-5630-40             RUBBER STOPPER           CCN000380000000380000FN00000000020220501000380000NNMD0420220309122515    2H0H  00002000000000044000000095132H7    FYFSY   004300270014
BI00B32H7    #FS22054DMW    202205117172-5630-40             RUBBER STOPPER           CCN000320000000320000FN00000000020220501000320000NNMD0420220309122515    2H0H  00002000000000044000000095132H7    FYFSY   004300270014
BI00B32J1    392328         202203217196-0648-02             TERMINAL                 CCN000000200000015000FN00000000020220301000015000NNE   20220309122515    4P0P  00001500000000355500000689732J1    UKYEL-BL006400630015
BI00B32J1    392328         202203217298-2278-30             HOUSING FEMALE ASS'Y     CCN000000020000002400FN00000000020220301000002400NNE   20220309122515    4N0N  00000240000001091700001295432J1    UKYEL-BL005500360039
BI00B32J1    392328         202203217298-2280-30             HOUSING FEMALE ASS'Y     CCN000000020000001920FN00000000020220301000001920NNE   20220309122515    4N0N  00000192000001068000001216032J1    UKYEL-BL005500360039
BI00B32J1    392328         202203217298-2509-30             HOUSING FEMALE ASS'Y     CCN000000015000001200FN00000000020220301000001200NNE   20220309122515    4N0N  00000120000000857500001062532J1    UKYEL-BL005500360039
BI00B32J1    #392328        202203217297-1911-30             HOUSING MALE ASS'Y       CCN000000120000001000FN00000000020220301000001000NNE   20220309122515    2N0N  00000100000000486900000600132J1    UKYEL-BL005400370024
BI00A32K8    #K1220010242   202203107137-2718-50             SEALED CONNECTOR         CCN000008000000008000FN00000000020220401000008000NNMM0020220309132104    2C0C  00000100000000118300000236632K8    ELELCOM 002700430014
BI00A32K8    #K1220010380   202203187137-2718-50             SEALED CONNECTOR         CCN000001000000001000FN00000000020220501000001000NNMM0020220309132104    2C0C  00000100000000118300000236632K8    ELELCOM 002700430014
BI00B32K8    #K1220010435   202204017137-2718-50             SEALED CONNECTOR         CCN000009000000009000FN00000000020220501000009000NNMQ0020220309122515    2C0C  00000100000000118300000236632K8    ELELCOM 002700430014
BI00A32K8    #K1220010488   202203187137-2718-50             SEALED CONNECTOR         CCN000010000000003000FN00000000020220501000003000NNMM0020220309132104    2C0C  00000100000000118300000236632K8    ELELCOM 002700430014
BI00A32K8    #K1220010435   202203187137-2718-50             SEALED CONNECTOR         CCN000001000000000000FY00000000020220501000000000NNMM0020220309113917    2C0C  00000100000000118300000236632K8    ELELCOM 002700430014
BI00B32K8    #K1220010488   202203257137-2718-50             SEALED CONNECTOR         CCN000007000000007000FN00000000020220501000007000NNMM0020220309122515    2C0C  00000100000000118300000236632K8    ELELCOM 002700430014
BI00B32M3    SM22043 MW     202203177114-4728-02             TERMINAL                 CCN000120000000090000FN00000000020220401000090000NNMQ0020220309165910    4P0P  00003000000000510000000804232M3    SASAMI  006400630015
BI00B32M3    SM22043 MW     202203177116-5750-02             TERMINAL                 CCN000030000000015000FN00000000020220401000015000NNMQ0020220309165910    4P0P  00001500000000457500000742732M3    SASAMI  006400630015
BI00B32M3    SM22043 MW     202203177158-3009-60             RUBBER STOPPER           CCN000060000000040000FN00000000020220401000040000NNMQ0020220309165531    1C0C  00002000000000338000000386232M3    SASAMI  002700430014
BI00A32M3    SM22041 MW     202203107283-1144                CONNECTOR                CCN000007200000007200FN00000000020220401000007200NNM00020220309144516    4N0N  00000240000000602200000866132M3    SASAMI  005500360039
BI00B32M3    #SMTAP220301   202204217158-3017                RUBBER STOPPER           CCN000020000000020000FN00000000020220501000020000NNE   20220309150127    2C0C  00001000000000375500000435032M3    SASAMI  002700430014
BI00A32M3    SM22043 MW     202203157114-4728-02             TERMINAL                 CCN000030000000030000FN00000000020220401000030000NNMM0020220309164226    4P0P  00003000000000510000000804232M3    SASAMI  006400630015
BI00A32M3    SM22043 MW     202203157116-5750-02             TERMINAL                 CCN000015000000015000FN00000000020220401000015000NNMM0020220309164317    4P0P  00001500000000457500000742732M3    SASAMI  006400630015
BI00A32M3    SM22043 MW     202203157158-3009-60             RUBBER STOPPER           CCN000020000000020000FN00000000020220401000020000NNMM0020220309164414    1C0C  00002000000000338000000386232M3    SASAMI  002700430014
BI00B32M4    TP2041         202203177327-6983-30             MAIN FUSE                CCN000000600000000600FN00000000020220401000000600NNMD0320220309165647    4N0N  00000060000000748800000951532M4    SISAI   005400370024
BI00B32M4    TP2041         202203177327-6985-30             MULTI FUSE               CCN000000864000000864FN00000000020220401000000864NNMD0320220309165734    4N0N  00000028800000886100001052032M4    SISAI   005400370024
BI00B32M4    TP2034D        202203177327-6983-30             MAIN FUSE                CCN000000600000000600FN00000000020220301000000600NNED0320220309165626    4N0N  00000060000000748800000951532M4    SISAI   005400370024
BI00B32M4    TP2034D        202203177327-6985-30             MULTI FUSE               CCN000000576000000576FN00000000020220301000000576NNED0320220309165713    4N0N  00000028800000886100001052032M4    SISAI   005400370024
BI00A32M4    TP2043A        202203107283-8692                CONNECTOR HOUSING        CCN000001500000001500FN00000000020220401000001500NNEM0020220309150424    1N0N  00000150000000795000001012032M4    SISAI   005600390040
BI00B32M4    #TL2044B       202203317125-3236                HEAD LAMP CONNECTOR      CCN000002800000002800FN00000000020220401000002800NNE   20220309122515    2F0F  00000280000000935200001075432M4    SISAI   005500360039
BI00B32M4    #TL2044B       202203317183-1615                HOUSING                  CCN000009600000009600FN00000000020220401000009600NNE   20220309122515    2F0F  00000480000000757000001042032M4    SISAI   005500360039
BI00B32M4    #TL2044B       202203317158-7586-30             BLOCK LIF                CCN000001600000001600FN00000000020220401000001600NNE   20220309122515    2F0F  00000080000000617400000844232M4    SISAI   005500360039
BI00B32M4    #TL2044B       202203317188-0149                HLC HOUSING MALE         CCN000024300000024300FN00000000020220401000024300NNE   20220309122515    2F0F  00000090000000809100000923832M4    SISAI   005400370024
BI00B32M4    TP2044B        202203317114-4032                TERMINAL                 CCN000060000000060000FN00000000020220401000060000NNE   20220309122515    4P0P  00000750000000735000001063632M4    SISAI   006400630017
BI00B32M4    TP2044B        202203317114-4112-02             TERMINAL                 CCN000027000000027000FN00000000020220401000027000NNE   20220309122515    4P0P  00000900000000598500000927132M4    SISAI   006400630017
BI00B32M4    TP2044B        202203317116-2640                TERMINAL                 CCN000090000000090000FN00000000020220401000090000NNE   20220309122515    4P0P  00001800000001018800001196632M4    SISAI   005100280028
BI00B32M4    TP2044B        202203317116-2641                TERMINAL                 CCN000054000000054000FN00000000020220401000054000NNE   20220309122515    4P0P  00001800000001161000001344632M4    SISAI   005100280028
BI00B32M4    TP2044B        202203317116-4020                TERMINAL                 CCN000027000000027000FN00000000020220401000027000NNE   20220309122515    4P0P  00001350000000513000000798232M4    SISAI   006400630015
BI00B32M4    TP2044B        202203317116-4025                TERMINAL                 CCN000048000000048000FN00000000020220401000048000NNE   20220309122515    4P0P  00001600000000644800000975132M4    SISAI   006400630017
BI00B32M4    TP2044B        202203317116-4115-02             TERMINAL                 CCN000067200000067200FN00000000020220401000067200NNE   20220309122515    4P0P  00000840000000593000000881232M4    SISAI   006400630015
BI00B32M4    TP2044B        202203317116-4116-02             TERMINAL                 CCN000041400000041400FN00000000020220401000041400NNE   20220309122515    4P0P  00000690000000517500000805732M4    SISAI   006400630015
BI00A32M4    TP2044B        202203107283-6039                CONNECTOR                CCN000001600000001600FN00000000020220401000001600NNEM0020220309160803    1N0N  00000160000000624000000881532M4    SISAI   005500360039
BI00B32M4    TP2044B        202203317283-7476                CONNECTOR                CCN000001500000001500FN00000000020220401000001500NNE   20220309122515    1N0N  00000150000000915000001132032M4    SISAI   005600390040
BI00B32M4    TP2044B        202203317283-8692                CONNECTOR HOUSING        CCN000001500000001500FN00000000020220401000001500NNE   20220309122515    1N0N  00000150000000795000001012032M4    SISAI   005600390040
BI00B32M4    TP2044B        202203317287-9234                JOINT CONNECTOR          CCN000019200000019200FN00000000020220401000019200NNE   20220309122515    4N0N  00000960000000893800001184832M4    SISAI   005500360039
BI00B32M4    TP2044B        202203317116-4022                TERMINAL                 CCN000108000000108000FN00000000020220401000108000NNE   20220309122515    4P0P  00001350000000618300000903532M4    SISAI   006400630015
BI00B32M4    TP2044B        202203317295-0785-02             TERMINAL ALUMINIUM       CCN000025500000025500FN00000000020220401000025500NNE   20220309122515    4P0P  00002550000000510000000803632M4    SISAI   006400630015
BI00B32M4    TP2044B        202203317196-0512-02             TERMINAL                 CCN000021000000021000FN00000000020220401000021000NNE   20220309122515    4P0P  00002100000000871500001034932M4    SISAI   002800510028
BI00B32M4    TP2044B        202203317116-4618-02             TERMINAL FEMALE          CCN000150000000150000FN00000000020220401000150000NNE   20220309122515    4P0P  00003000000000531000000859732M4    SISAI   006400630017
BI00B32M4    TP2044B        202203317116-4416-02             TERMINAL                 CCN000032000000032000FN00000000020220401000032000NNE   20220309122515    4P0P  00003200000000518400000847132M4    SISAI   006400630017
BI00B32M4    @TP2044B       202203317183-8049                CONNECTOR HOUSING        CCN000020000000020000FN00000000020220401000020000NNE   20220309122515    3F0F  00000400000000583600000740032M4    SISAI   005400370024
BI00A32M4    TP2034         202203107287-3885-30             HYBRID FEMALE ASS'Y      CCN000024000000024000FN00000000020220301000024000NNM00020220309144927    1N0N  00000240000001029600001249632M4    SISAI   005500360039
BI00B32N1    NST2118ECU     202204077158-3166-60             WIRE SEAL                CCN001360000000680000FN00000000020220401000680000NNED0420220309160852    1C0C  00004000000000104000000152432N1    TAYIPL  002700430014
BI00B32N1    NST2118ECU     202204217158-3167-80             WIRE SEAL                CCN003120000000780000FN00000000020220401000780000NNED0420220309160728    1C0C  00002000000000048000000109032N1    TAYIPL  002700430014
BI00B32N1    NST2118ECU     202204287158-3167-80             WIRE SEAL                CCN000780000000780000FN00000000020220401000780000NNED0420220309160728    1C0C  00002000000000048000000109032N1    TAYIPL  002700430014
BI00B32N1    NST2118ECU     202205057158-3167-80             WIRE SEAL                CCN000780000000780000FN00000000020220401000780000NNED0420220309160728    1C0C  00002000000000048000000109032N1    TAYIPL  002700430014
BI00B32N1    NST2118ECU     202205127158-3167-80             WIRE SEAL                CCN000780000000780000FN00000000020220401000780000NNED0420220309160728    1C0C  00002000000000048000000109032N1    TAYIPL  002700430014
BI00B32N1    NST2118ECU     202204217158-3166-60             WIRE SEAL                CCN000680000000680000FN00000000020220401000680000NNED0420220309160859    1C0C  00004000000000104000000152432N1    TAYIPL  002700430014
BI00B32N3    NBT205 A3      202204217286-3885                CONNECTOR MALE ASS'Y     CCN000004800000004800FN00000000020220501000004800NNMD0220220309171132    1N0N  00000120000000910600001130632N3    ABYIPL-B005500360039
BI00B32N3    NBT205 A4      202204287286-3885                CONNECTOR MALE ASS'Y     CCN000002400000002400FN00000000020220501000002400NNMD0220220309171150    1N0N  00000120000000910600001130632N3    ABYIPL-B005500360039
BI00B32N3    NBT205 A1      202203317286-3885-40             CONNECTOR MALE ASS'Y     CCN000004000000000000FY00000000020220501000000000NNMQ0820220309172249    1N0N  00000120000000910600001130632N3    ABYIPL-B005500360039
BI00B32N3    NBT205 A2      202204077286-3885-40             CONNECTOR MALE ASS'Y     CCN000002000000000000FY00000000020220501000000000NNMQ0820220309172258    1N0N  00000120000000910600001130632N3    ABYIPL-B005500360039
BI00B32N3    NBT205 A3      202204077286-3885-40             CONNECTOR MALE ASS'Y     CCN000004000000000000FY00000000020220501000000000NNMQ0820220309172309    1N0N  00000120000000910600001130632N3    ABYIPL-B005500360039
BI00B32N3    NBT205 A4      202204217286-3885-40             CONNECTOR MALE ASS'Y     CCN000002000000000000FY00000000020220501000000000NNMQ0820220309172319    1N0N  00000120000000910600001130632N3    ABYIPL-B005500360039
BI00B32N3    NBT205 A2      202204217470-6015                J/B COMPLETE ASS'Y       CCN000000570000000570FN00000000020220501000000570NNMD0220220309122515    4J0J  00000001000000494000000661032N3    ABYIPL-B005400360024
BI00B32N3    NBT205 A1      202204217470-6016                J/B COMPLETE ASS'Y       CCN000001800000001800FN00000000020220501000001800NNMD0220220309122515    4J0J  00000001000000494000000661032N3    ABYIPL-B005400360024
BI00A32P8    TAPI-201E      202203107327-6994-3W             BATTERY FUSE             CCN000000144000000144FN00000000020220301000000144NNE00020220309144849    4N0N  00000007200001215100001430132P8    YIYTM   005500360039
BI00A32Q8    EU22031TMW     202203227327-6950-30             MULTI FUSE               CCN000001440000001440FN00000000020220301000001440NNMM0020220309140856    4N00  00000028800000888700001054632Q8    EMEMI   005400370024
BI00A32Q8    EU22032TMW     202203227327-6950-30             MULTI FUSE               CCN000000288000000288FN00000000020220301000000288NNMM0020220309140948    4N00  00000028800000888700001054632Q8    EMEMI   005400370024
BI00A32Q8    EU22033TMW     202203227327-6950-30             MULTI FUSE               CCN000000576000000576FN00000000020220301000000576NNMM0020220309141053    4N00  00000028800000888700001054632Q8    EMEMI   005400370024
BI00A32Q8    EU22031TMW     202203167327-6952-30             MULTI FUSE               CCN000001680000001680FN00000000020220301000001680NNMM0020220309140912    4N0N  00000056000000848500001031532Q8    EMEMI   005400370024
BI00A32Q8    EU22031TMW     202203177327-6954-30             MULTI FUSE               CCN000001800000001800FN00000000020220301000001800NNMM0020220309140839    4N00  00000060000000751600000954332Q8    EMEMI   005400370024
BI00A32Q8    EU22032TMW     202203177327-6954-30             MULTI FUSE               CCN000000600000000600FN00000000020220301000000600NNMM0020220309141018    4N00  00000060000000751600000954332Q8    EMEMI   005400370024
BI00B32U9    TPA218         202204077158-3166-60             WIRE SEAL                CCN000760000000760000FN00000000020220501000760000NNMD0420220309161121U9  1C0C  00004000000000104000000152432U9    YNYNA-E 002700430014
BI00B32U9    TPA219         202204217158-3166-60             WIRE SEAL                CCN001640000000820000FN00000000020220501000820000NNMD0420220309161202U9  1C0C  00004000000000104000000152432U9    YNYNA-E 002700430014
BI00B32U9    TPA219         202204287158-3166-60             WIRE SEAL                CCN000820000000820000FN00000000020220501000820000NNMD0420220309161208U9  1C0C  00004000000000104000000152432U9    YNYNA-E 002700430014
BI00A32W4    #4500189169    202203167186-8845                HOUSING MALE             CCN000003000000003000FN00000000020220401000003000NNEM0020220309190705W4M52F0F  00000300000000690000000801532W4M5  HJYHK-J 005400370024
BI00A32W4    4500189170     202203167283-7028-30             CONNECTOR                CCN000012000000012000FN00000000020220401000012000NNEM0020220309190544W4M54N0N  00000300000001452000001681332W4M5  HJYHK-J 005600390040
BI00B32W4    4500190435     202206097158-3168-80             SEALED                   CCN002400000001200000FN00000000020220501001200000NNED0420220309161301W4B71C0C  00002000000000044000000092132W4B7  HJYHK-J 004300260014
BI00B32W4    4500190437     202206027283-1020                CONNECTOR                CCN000258000000126000FN00000000020220301000126000NNED0220220309170931W4514N0N  00000600000000840000001049332W451  HJ32W9  005600390040
BI00B32W4    4500190575     202204217116-4122-02             TERMINAL                 CCN000004500000004500FN00000000020220401000004500NNE   20220309132511W46 4P0P  00000450000000656600000950232W46   HJYHK   006400630015
BI00B32W4    4500190575     202204217116-4101-02             TERMINAL                 CCN000012000000012000FN00000000020220401000012000NNE   20220309132511W46 4P0P  00001200000000582000000876232W46   HJYHK   006400630015
BI00B32W4    4500190575     202204217116-4121-02             TERMINAL                 CCN000027000000027000FN00000000020220401000027000NNE   20220309132511W46 4P0P  00000450000000618800000912432W46   HJYHK   006400630015
BI00B32W4    4500190575     202204217116-4102-02             TERMINAL                 CCN000012000000012000FN00000000020220401000012000NNE   20220309132511W46 4P0P  00001200000000553200000841432W46   HJYHK   006400630015
BI00B32W4    4500190575     202204217158-3070-80             RUBBER STOPPER           CCN000040000000040000FN00000000020220401000040000NNE   20220309132511W46 1C0C  00004000000000276000000333332W46   HJYHK   002700430014
BI00B32W4    4500190578     202205127114-4032                TERMINAL                 CCN000007500000007500FN00000000020220501000007500NNE   20220309132600W4164P0P  00000750000000735000001063632W416  HJYHK   006400630017
BI00B32W4    4500190578     202205127116-4100-02             TERMINAL                 CCN000195000000195000FN00000000020220501000195000NNE   20220309132600W4164P0P  00001500000000696000000990232W416  HJYHK   006400630015
BI00B32W4    4500190578     202205127114-4112-02             TERMINAL                 CCN000027000000027000FN00000000020220501000027000NNE   20220309132600W4164P0P  00000900000000598500000927132W416  HJYHK   006400630017
BI00B32W4    4500190578     202205127116-4121-02             TERMINAL                 CCN000009000000009000FN00000000020220501000009000NNE   20220309132600W4164P0P  00000450000000618800000912432W416  HJYHK   006400630015
BI00B32W4    4500190578     202205127116-4111-02             TERMINAL                 CCN000007500000007500FN00000000020220501000007500NNE   20220309132600W4164P0P  00000750000000529500000817732W416  HJYHK   006400630015
BI00B32W4    4500190578     202205127116-4112-02             TERMINAL                 CCN000066000000066000FN00000000020220501000066000NNE   20220309132600W4164P0P  00000600000000450000000738232W416  HJYHK   006400630015
BI00B32W4    4500190578     202205127116-4102-02             TERMINAL                 CCN000060000000060000FN00000000020220501000060000NNE   20220309132600W4164P0P  00001200000000553200000841432W416  HJYHK   006400630015
BI00B32W4    4500190578     202205127283-7028-30             CONNECTOR                CCN000003000000003000FN00000000020220501000003000NNE   20220309132600W4164N0N  00000300000001452000001681332W416  HJYHK   005600390040
BI00B32W4    4500190578     202205127114-4100-02             TERMINAL                 CCN000108000000108000FN00000000020220501000108000NNE   20220309132600W4164P0P  00001800000000748800001077432W416  HJYHK   006400630017
BI00B32W4    4500190578     202205127116-4026                TERMINAL                 CCN000016000000016000FN00000000020220501000016000NNE   20220309132600W4164P0P  00001600000000664000000994332W416  HJYHK   006400630017
BI00B32W4    4500190578     202205127116-4124-02             TERMINAL                 CCN000006000000006000FN00000000020220501000006000NNE   20220309132600W4164P0P  00000300000000459900000753532W416  HJYHK   006400630015
BI00B32W4    4500190578     202205127116-5045-02             TERMINAL                 CCN000016000000016000FN00000000020220501000016000NNE   20220309132600W4164P0P  00001600000000678400001007132W416  HJYHK   006400630017
BI00B32W4    4500190578     202205127283-1156                CONNECTOR                CCN000008000000008000FN00000000020220501000008000NNE   20220309132600W4164N0N  00000080000000877600001078032W416  HJYHK   005600390040
BI00B32W4    4500190578     202205127288-6547                CONNECTOR MALE ASS'Y     CCN000012750000012750FN00000000020220501000012750NNE   20220309132600W4164N0N  00000075000001205300001340332W416  HJYHK   005400370024
BI00B32W4    4500190578     202205127289-6547                HOUSING FEMALE ASS'Y     CCN000012000000012000FN00000000020220501000012000NNE   20220309132600W4161N0N  00000240000001152000001362032W416  HJYHK   005500360039
BI00B32W4    4500190578     202205127283-5548-30             CONNECTOR                CCN000003000000003000FN00000000020220501000003000NNE   20220309132600W4164N0N  00000150000001109000001302032W416  HJYHK   005600390040
BI00B32W4    4500190578     202205127126-8853-02             TERMINAL                 CCN000007500000007500FN00000000020220501000007500NNE   20220309132600W4164P0P  00000750000000562500000847732W416  HJYHK   006400630015
BI00B32W4    4500190578     202205127126-8854-02             TERMINAL                 CCN000007500000007500FN00000000020220501000007500NNE   20220309132600W4164P0P  00000750000000604500000889732W416  HJYHK   006400630015
BI00B32W4    4500190578     202205127158-3169-40             SEALING PLUG             CCN000040000000040000FN00000000020220501000040000NNE   20220309132600W4161C0C  00004000000000156000000204132W416  HJYHK   004300260014
BI00B32W4    4500190578     202205127116-4101-02             TERMINAL                 CCN000072000000072000FN00000000020220501000072000NNE   20220309132600W4164P0P  00001200000000582000000876232W416  HJYHK   006400630015
BI00B32W4    4500190578     202205127116-4120-02             TERMINAL                 CCN000018000000018000FN00000000020220501000018000NNE   20220309132600W4164P0P  00000600000000780000001073632W416  HJYHK   006400630015
BI00B32W4    4500190578     202205127114-4101-02             TERMINAL                 CCN000015000000015000FN00000000020220501000015000NNE   20220309132600W4164P0P  00001500000000675000001003632W416  HJYHK   006400630017
BI00B32W4    4500190578     202205127116-4104-02             TERMINAL                 CCN000060000000060000FN00000000020220501000060000NNE   20220309132600W4164P0P  00001200000000580800000972432W416  HJYHK   006400630015
BI00B32W4    4500190578     202205127116-4103-02             TERMINAL                 CCN000012000000012000FN00000000020220501000012000NNE   20220309132600W4164P0P  00001200000000571200000859432W416  HJYHK   006400630015
BI00B32W4    4500190578     202205127283-1020                CONNECTOR                CCN000006000000006000FN00000000020220501000006000NNE   20220309132600W4164N0N  00000600000000840000001049332W416  HJYHK   005600390040
BI00B32W4    4500190578     202205127283-1024                CONNECTOR SUB ASSY       CCN000006000000006000FN00000000020220501000006000NNE   20220309132600W4164N0N  00000200000000400000000522532W416  HJYHK   005400370024
BI00B32W4    4500190578     202205127282-1024                HOUSING MALE             CCN000007000000007000FN00000000020220501000007000NNE   20220309132600W4161N0N  00000100000000458000000580532W416  HJYHK   005400370024
BI00B32W4    #4500190578    202205127282-4190-30             CONNECTOR                CCN000005280000005280FN00000000020220501000005280NNE   20220309132549W4162N0N  00000024000000801000001071332W416  HJYHK   005600390040
BI00B32W4    #4500190578    202205127283-4190-30             CONNECTOR                CCN000004320000004320FN00000000020220501000004320NNE   20220309132549W4162N0N  00000024000000846000001115532W416  HJYHK   005600390040
BI00B32W4    #4500190578    202205127158-3003-90             RUBBER STOPPER           CCN000020000000020000FN00000000020220501000020000NNE   20220309132549W4162C0C  00002000000000250000000306032W416  HJYHK   002700430014
BI00B32W4    #4500190578    202205127158-3004-40             RUBBER STOPPER           CCN000020000000020000FN00000000020220501000020000NNE   20220309132549W4162C0C  00002000000000234000000306332W416  HJYHK   002700430014
BI00B32W4    #4500190578    202205127187-1616                HOUSING FEMALE           CCN000004000000004000FN00000000020220501000004000NNE   20220309132549W4162F0F  00000400000001152000001262032W416  HJYHK   005500360039
BI00B32W4    @4500190578    202205127287-6634                HOUSING FEMALE ASS'Y     CCN000002400000002400FN00000000020220501000002400NNE   20220309132555W4163N0N  00000240000001088400001337032W416  HJYHK   005500360039
BI00B32W4    4500190583     202205127289-7615-30             HOUSING FEMALE ASS'Y     CCN000000320000000320FN00000000020220501000000320NNE   20220309132626W4284N0N  00000032000000738000000948032W428  HJYHK   005400370024
BI00B32W4    4500190583     202205127172-1372-10             FRONT HOLDER             CCN000003900000003900FN00000000020220501000003900NNE   20220309132626W4284F0F  00000390000000655200000955232W428  HJYHK   005500360039
BI00B32W4    4500190584     202205267298-2278-30             HOUSING FEMALE ASS'Y     CCN000110400000110400FN00000000020220501000110400NNE   20220309132654W4284N0N  00000240000001091700001295432W428  HJYHK   005500360039
BI00B32W4    4500190584     202205267298-2508-30             HOUSING FEMALE ASS'Y     CCN000028800000028800FN00000000020220501000028800NNE   20220309132654W4284N0N  00000120000000822000001005032W428  HJYHK   005500360039
BI00B32W4    4500190584     202205267298-1865-30             HOUSING FEMALE ASS'Y     CCN000103200000103200FN00000000020220501000103200NNE   20220309132654W4284N0N  00000240000001003200001204532W428  HJYHK   005500360039
BI00A32W4    4500190594     202205167283-1030                CONNECTOR                CCN000024000000024000FN00000000020220501000024000NNE   20220309132723W4M54N0N  00000600000000988000001172032W4M5  HJYHK-J 005500360039
BI00A32W4    4500190277     202204287158-3167-80             WIRE SEAL                CCN000040000000040000FN00000000020220401000040000NNE   20220309155646W9151C0C  00002000000000048000000109032W915  HJYHK   002700430014
BI00B32W4    4500190435     202206167158-3168-80             SEALED                   CCN001200000001200000FN00000000020220501001200000NNED0420220309161307W4B71C0C  00002000000000044000000092132W4B7  HJYHK-J 004300260014
BI00B32W4    4500190437     202206097283-1020                CONNECTOR                CCN000132000000132000FN00000000020220301000132000NNED0420220309170937W4514N0N  00000600000000840000001049332W451  HJ32W9  005600390040
BI00B32W6    SW22033QMW     202203307327-6874-30             MULTI FUSE               CCN000006624000006624FN00000000020220301000006624NNMD0020220309122515    4N0N  00000028800000991400001157332W6    SYSYA-WJ005400370024
BI00B32W6    SW22034QMW     202204127327-6874-30             MULTI FUSE               CCN000002592000002592FN00000000020220301000002592NNMD0020220309122515    4N0N  00000028800000991400001157332W6    SYSYA-WJ005400370024
BI00B32W6    SW22034QMW     202203237327-6884-30             MULTI FUSE               CCN000002304000002304FN00000000020220301000002304NNMD0020220309122515    4N0N  00000028800000988900001154832W6    SYSYA-WJ005400370024
BI00B32W6    SW22043QMW     202203237327-6874-30             MULTI FUSE               CCN000004032000004032FN00000000020220401000004032NNMD0020220309122515    4N0N  00000028800000991400001157332W6    SYSYA-WJ005400370024
BI00B32W6    SW22044QMW     202204067327-6874-30             MULTI FUSE               CCN000002880000002880FN00000000020220401000002880NNMD0020220309122515    4N0N  00000028800000991400001157332W6    SYSYA-WJ005400370024
BI00B32W6    SW22041QMW     202203167327-6884-30             MULTI FUSE               CCN000002304000002304FN00000000020220401000002304NNMD0020220309122515    4N0N  00000028800000988900001154832W6    SYSYA-WJ005400370024
BI00B32W6    SW22042QMW     202203167327-6884-30             MULTI FUSE               CCN000003168000003168FN00000000020220401000003168NNMD0020220309122515    4N0N  00000028800000988900001154832W6    SYSYA-WJ005400370024
BI00B32W6    SW22043QMW     202203307327-6884-30             MULTI FUSE               CCN000003744000003744FN00000000020220401000003744NNMD0020220309122515    4N0N  00000028800000988900001154832W6    SYSYA-WJ005400370024
BI00B32W6    SW22044QMW     202204067327-6884-30             MULTI FUSE               CCN000002880000002880FN00000000020220401000002880NNMD0020220309122515    4N0N  00000028800000988900001154832W6    SYSYA-WJ005400370024
BI00B32W9    #4500190530    202204267157-7812                SEAL RUBBER              CCN000270000000270000FN00000000020220301000270000NNED0420220309170704W9  2C0C  00001000000000137000000202032W9    HKYHK   002700430014
BI00B32W9    4500190595     202205037114-4100-02             TERMINAL                 CCN000018000000018000FN00000000020220501000018000NNE   20220309132755W9  4P0P  00001800000000748800001077432W9    HKYHK   006400630017
BI00B32W9    4500190600     202205037017-1180-02             TERMINAL                 CCN000288000000288000FN00000000020220501000288000NNE   20220309132821W9  4P0P  00007200000001065600001229032W9    HKYHK   005100280028
BI00B32W9    #4500190601    202205037158-3007-10             RUBBER STOPPER           CCN000600000000600000FN00000000020220501000600000NNE   20220309132846W9  2H0H  00002000000000308000000362732W9    HKYHK   002700430014
BI00B32W9    #4500190601    202205037157-7812                SEAL RUBBER              CCN000400000000400000FN00000000020220501000400000NNE   20220309132846W9  2C0C  00001000000000137000000202032W9    HKYHK   002700430014
BI00B32W9    #4500190602    202205037157-7812                SEAL RUBBER              CCN000300000000300000FN00000000020220501000300000NNE   20220309132908W9  2C0C  00001000000000137000000202032W9    HKYHK   002700430014
BI00A32X5    TAPMDX03A      202204047327-6876-30             MULTI FUSE               CCN000000288000000288FN00000000020220401000000288NNE   20220309155544X5  4N0N  00000028800001016400001182332X5    EPYNA-E 005400370024
