BI00B1200    2399T52206     202203177116-4100-02             TERMINAL                 CCN000255000000255000FN00000000020220401000255000NNM00020220311170549    4P0P  0000150000000069600000099021200    YCYC    006400630015
BI00B1200    2399T52208     202203247116-4100-02             TERMINAL                 CCN000255000000255000FN00000000020220401000255000NNM00020220311170623    4P0P  0000150000000069600000099021200    YCYC    006400630015
BI00B1200    #7360T52202    202203177172-5629-80             RUBBER STOPPER           CCN000460000000460000FN00000000020220401000460000NNM00020220311165337    2H0H  0000200000000006000000011111200    YCYC    004300270014
BI00B1200    7504T52210     202203177116-4120-02             TERMINAL                 CCN000060000000060000FN00000000020220301000060000NNM00020220311170602    4P0P  0000060000000078000000107361200    YCYC    006400630015
BI00B1200    7504T52211     202203247116-4120-02             TERMINAL                 CCN000060000000060000FN00000000020220301000060000NNM00020220311170643    4P0P  0000060000000078000000107361200    YCYC    006400630015
BI00B1200    7504T52210     202203177116-4122-02             TERMINAL                 CCN000121500000121500FN00000000020220301000121500NNM00020220311170608    4P0P  0000045000000065660000095021200    YCYC    006400630015
BI00B1200    7504T52211     202203247116-4122-02             TERMINAL                 CCN000121500000121500FN00000000020220301000121500NNM00020220311170654    4P0P  0000045000000065660000095021200    YCYC    006400630015
BI00B1200    2399T52309     202203317116-4100-02             TERMINAL                 CCN000330000000330000FN00000000020220501000330000NNM00020220311170710    4P0P  0000150000000069600000099021200    YCYC    006400630015
BI00B1200    Y12C0401D      202204287288-3332-30             HOUSING MALE             CCN000001500000001500FN00000000020220401000001500NNED0420220311151627    4N0N  0000015000000086070000100571200    YCYC    005400370024
BI00B1200    7504T52301     202205197154-7140-30             LOWER COVER              CCN000004800000004800FN00000000020220501000004800NNMD0120220311163040    4F0F  0000000600000019900000041001200    YCYC    005600390040
BI00B1200    QA-22-P04      202203177195-1463-06             TERMINAL MALE            PNN000028500000028500FN00000000020220301000028500NNE   20220311121600    4P0P  0000285000000057900000076251200    YCYC    006400630015
BI00B1200    7360T52310     202203247196-1103-02             TERMINAL                 CCN000652500000652500FN00000000020220401000652500NNE   20220311121600    4P0P  0000225000000042980000071501200    YCYC    006400630015
BI00B1200    7360T52311     202204217196-1103-02             TERMINAL                 CCN000337500000337500FN00000000020220501000337500NNE   20220311121600    4P0P  0000225000000042980000071501200    YCYC    006400630015
BI00B1200    O022E50217     202205127298-1187-30             SHUNT RING ASSEMBLY      CCN000040000000040000FN00000000020220601000040000NNE   20220311121600    4N0N  0000100000000064700000076951200    YCYC    005400370024
BI00B1200    O022E50218     202205127298-1187-30             SHUNT RING ASSEMBLY      CCN000040000000040000FN00000000020220601000040000NNE   20220311121600    4N0N  0000100000000064700000076951200    YCYC    005400370024
BI00B1200    Y022F50048     202205197116-4112-02             TERMINAL                 CCN000060000000060000FN00000000020220601000060000NNE   20220311121600    4P0P  0000060000000045000000073821200    YCYC    006400630015
BI00B32AF    JTB2051        202204227283-4855                CONNECTOR HOUSING        CCN000004800000004800FN00000000020220501000004800NNMD0420220311135829    4N0N  00000240000001188400001400032AF    HBYHVTB 005500360039
BI00B32AF    JTB2052        202204297283-4855                CONNECTOR HOUSING        CCN000002400000002400FN00000000020220501000002400NNMD0420220311135920    4N0N  00000240000001188400001400032AF    HBYHVTB 005500360039
BI00B32AF    JTB2053        202205067283-4855                CONNECTOR HOUSING        CCN000002400000002400FN00000000020220501000002400NNMD0420220311135935    4N0N  00000240000001188400001400032AF    HBYHVTB 005500360039
BI00B32AF    JTB2054        202205137283-4855                CONNECTOR HOUSING        CCN000004800000004800FN00000000020220501000004800NNMD0420220311140036    4N0N  00000240000001188400001400032AF    HBYHVTB 005500360039
BI00B32AF    JTB2051        202204087289-3342-30             HOUSING FEMALE ASS'Y     CCN000048000000024000FN00000000020220501000024000NNMD0420220311142453    1N0N  00000240000000686400000901432AF    HBYHVTB 005500360039
BI00B32AF    JTB2052        202204297289-3342-30             HOUSING FEMALE ASS'Y     CCN000055200000026400FN00000000020220501000026400NNMD0420220311142543    1N0N  00000240000000686400000901432AF    HBYHVTB 005500360039
BI00B32AF    JTB2053        202205137289-3342-30             HOUSING FEMALE ASS'Y     CCN000055200000026400FN00000000020220501000026400NNMD0420220311142633    1N0N  00000240000000686400000901432AF    HBYHVTB 005500360039
BI00B32AF    JTB2054        202205277289-3342-30             HOUSING FEMALE ASS'Y     CCN000052800000026400FN00000000020220501000026400NNMD0420220311142727    1N0N  00000240000000686400000901432AF    HBYHVTB 005500360039
BI00B32AF    JTB2051        202204227289-3342-30             HOUSING FEMALE ASS'Y     CCN000024000000024000FN00000000020220501000024000NNMD0420220311142502    1N0N  00000240000000686400000901432AF    HBYHVTB 005500360039
BI00B32AF    JTB2052        202205067289-3342-30             HOUSING FEMALE ASS'Y     CCN000028800000028800FN00000000020220501000028800NNMD0420220311142601    1N0N  00000240000000686400000901432AF    HBYHVTB 005500360039
BI00B32AF    JTB2053        202205207289-3342-30             HOUSING FEMALE ASS'Y     CCN000028800000028800FN00000000020220501000028800NNMD0420220311142640    1N0N  00000240000000686400000901432AF    HBYHVTB 005500360039
BI00B32AF    JTB2054        202206037289-3342-30             HOUSING FEMALE ASS'Y     CCN000026400000026400FN00000000020220501000026400NNMD0420220311142732    1N0N  00000240000000686400000901432AF    HBYHVTB 005500360039
BI00B32AG    XG22061CMW     202203257327-6908                MAIN FUSE                CCN000000600000000600FN00000000020220601000000600NNMD0020220311132747    4N0N  00000060000000730400000915432AG    XGXGY   005400370024
BI00B32B1    A22021         202205067289-3342-30             HOUSING FEMALE ASS'Y     CCN000002400000002400FN00000000020220701000002400NNMD0420220311142751B1  1N0N  00000240000000686400000901432B1    AXARNE-M005500360039
BI00B32CA    PTA32093       202207077289-3342                HOUSING FEMALE ASS'Y     CCN000045600000045600FN00000000020220901000045600NNED0420220311141430    1N0N  00000240000000686400000901432CA    YPYPY   005500360039
BI00B32CA    PTA32093       202207077289-3342-30             HOUSING FEMALE ASS'Y     CCN000062400000062400FN00000000020220901000062400NNED0420220311142812    1N0N  00000240000000686400000901432CA    YPYPY   005500360039
BI00B32CA    PTA32093       202207077289-3342-90             HOUSING FEMALE ASS'Y     CCN000021600000021600FN00000000020220901000021600NNED0420220311143429    1N0N  00000240000000686400000901432CA    YPYPY   005500360039
BI00B32CH    SJ22024HMW     202203177327-6884-30             MULTI FUSE               CCN000009792000009792FN00000000020220201000009792NNM00020220311165511    4N0N  00000028800000988900001154832CH    SJSAMIJF005400370024
BI00B32CH    SJ22035HMW     202203177327-6884-30             MULTI FUSE               CCN000023328000000000FY00000000020220301000000000NNM00020220311142123    4N0N  00000028800000988900001154832CH    SJSAMIJF005400370024
BI00A32CH    SJ22035HMW     202203187327-6884-30             MULTI FUSE               PCN000011808000023328FN00000000020220301000023328NNM00020220311145335    4N0N  00000028800000988900001154832CH    SJSAMIJF005400370024
BI00A32CH    SJ22051HMW     202204077327-6937-30             MULTI FUSE               CCN000000288000000288FN00000000020220501000000288NNMM0020220311152415    4N0N  00000028800001013600001179532CH    SJSAMIJF005400370024
BI00B32CH    #QA-22-C018    202203247289-2918-40             HOUSING FEMALE ASS'Y     PNN000002000000002000FN00000000020220301000002000NNED0020220311121600    2N0N  00000100000001020000001147032CH    SJSAMIJF005400370024
BI00B32CJ    JQN2055        202205137289-3342                HOUSING FEMALE ASS'Y     CCN000007200000007200FN00000000020220501000007200NNMD0420220311141512    1N0N  00000240000000686400000901432CJ    QNYHVQN 005500360039
BI00B32CJ    JQN2051        202210077289-3342-30             HOUSING FEMALE ASS'Y     CCN000009600000009600FN00000000020220501000009600NNMD0420220311142844    1N0N  00000240000000686400000901432CJ    QNYHVQN 005500360039
BI00B32CJ    JQN2053        202210077289-3342-30             HOUSING FEMALE ASS'Y     CCN000009600000009600FN00000000020220501000009600NNMD0420220311142902    1N0N  00000240000000686400000901432CJ    QNYHVQN 005500360039
BI00B32CJ    JQN2054        202210217289-3342-30             HOUSING FEMALE ASS'Y     CCN000009600000009600FN00000000020220501000009600NNMD0420220311142916    1N0N  00000240000000686400000901432CJ    QNYHVQN 005500360039
BI00B32CJ    JQN2055        202210217289-3342-30             HOUSING FEMALE ASS'Y     CCN000009600000009600FN00000000020220501000009600NNMD0420220311142930    1N0N  00000240000000686400000901432CJ    QNYHVQN 005500360039
BI00B32CJ    JQN2055        202205137289-3342-90             HOUSING FEMALE ASS'Y     CCN000002400000002400FN00000000020220501000002400NNMD0420220311143454    1N0N  00000240000000686400000901432CJ    QNYHVQN 005500360039
BI00B32CJ    JQN2051        202205267327-6987-3W             BATTERY FUSE             CCN000002088000002088FN00000000020220501000002088NNMD0420220311145028    4N0N  00000007200000511300000711532CJ    QNYHVQN 005500360039
BI00B32CJ    JQN2053        202205267327-6987-3W             BATTERY FUSE             CCN000001080000001080FN00000000020220501000001080NNMD0420220311145045    4N0N  00000007200000511300000711532CJ    QNYHVQN 005500360039
BI00B32CJ    JQN2054        202205267327-6987-3W             BATTERY FUSE             CCN000001008000001008FN00000000020220501000001008NNMD0420220311145100    4N0N  00000007200000511300000711532CJ    QNYHVQN 005500360039
BI00B32CJ    JQN2055        202205267327-6987-3W             BATTERY FUSE             CCN000001152000001152FN00000000020220501000001152NNMD0420220311145115    4N0N  00000007200000511300000711532CJ    QNYHVQN 005500360039
BI00A32DE    TCT204F        202203187196-0805-02             TERMINAL FEMALE          CCN000022500000022500FN00000000020220401000022500NNEM0020220311121600    4P0P  00002250000000558000000843232DE    TVYEV-TV006400630015
BI00A32DE    TCT204F        202203187298-4899-70             SEALED HOUSING ASS'Y     CCN000002310000002310FN00000000020220401000002310NNEM0020220311121600    4N0N  00000231000000766900001036932DE    TVYEV-TV005500360039
BI00A32DE    #TCT204F       202203187172-5626-90             RUBBER STOPPER           CCN000020000000020000FN00000000020220401000020000NNEM0020220311121600    2H0H  00002000000000076400000127832DE    TVYEV-TV004300270014
BI00A32DE    #TCT204F       202203187172-5628-80             DUMMY PLUG               CCN000020000000020000FN00000000020220401000020000NNEM0020220311121600    2H0H  00002000000000110600000162032DE    TVYEV-TV004300270014
BI00B32DE    TCT205A        202203317114-4020                TERMINAL                 CCN000042000000042000FN00000000020220501000042000NNE00020220311121600    4P0P  00002100000000875700001169332DE    TVYEV-TV006400630015
BI00B32DE    TCT205A        202203317114-4728-02             TERMINAL                 CCN000300000000300000FN00000000020220501000300000NNED0020220311121600    4P0P  00003000000000510000000804232DE    TVYEV-TV006400630015
BI00B32DE    TCT205A        202203317114-4729-02             TERMINAL                 CCN000060000000060000FN00000000020220501000060000NNED0020220311121600    4P0P  00003000000000516000000810232DE    TVYEV-TV006400630015
BI00B32DE    TCT205A        202203317116-4486-02             TERMINAL                 CCN000028000000028000FN00000000020220501000028000NNED0020220311121600    4P0P  00002800000000666400000995132DE    TVYEV-TV006400630017
BI00B32DE    TCT205A        202205127288-6547                CONNECTOR MALE ASS'Y     CCN000002250000002250FN00000000020220501000002250NNED0420220311162734    4N0N  00000075000001205300001340332DE    TVYEV-TV005400370024
BI00B32DE    TCT205A        202206097289-3342-30             HOUSING FEMALE ASS'Y     CCN000033600000033600FN00000000020220501000033600NNED0420220311162823    1N0N  00000240000000686400000901432DE    TVYEV-TV005500360039
BI00B32DE    TCT205A        202205197289-3342-90             HOUSING FEMALE ASS'Y     CCN000007200000007200FN00000000020220501000007200NNED0420220311162858    1N0N  00000240000000686400000901432DE    TVYEV-TV005500360039
BI00B32DG    RP2051         202203317114-4728-02             TERMINAL                 CCN000600000000600000FN00000000020220501000600000NNM00020220311172049    4P0P  00003000000000510000000804232DG    BFSAIBF 006400630015
BI00B32DG    RP2051         202203317116-4486-02             TERMINAL                 CCN000476000000476000FN00000000020220501000476000NNM00020220311172100    4P0P  00002800000000666400000995132DG    BFSAIBF 006400630017
BI00B32DG    RP2051         202203317116-5042-02             TERMINAL                 CCN000283500000283500FN00000000020220501000283500NNM00020220311172111    4P0P  00001350000000560300000845532DG    BFSAIBF 006400630015
BI00B32DG    RP2051         202203317116-5044-02             TERMINAL                 CCN000224000000224000FN00000000020220501000224000NNM00020220311172122    4P0P  00001600000000641600000986332DG    BFSAIBF 006400630017
BI00B32DG    RP2051         202203317116-5045-02             TERMINAL                 CCN000160000000160000FN00000000020220501000160000NNM00020220311172132    4P0P  00001600000000678400001007132DG    BFSAIBF 006400630017
BI00B32DG    RP2051         202203317116-5752-02             TERMINAL                 CCN000021000000021000FN00000000020220501000021000NNM00020220311172142    4P0P  00002100000000571200000856432DG    BFSAIBF 006400630015
BI00B32DG    RP2044C        202205197288-3340-30             HOUSING MALE             CCN000006000000006000FN00000000020220401000006000NNED0420220311162714    4N0N  00000150000000861500001006432DG    BFSAIBF 005400370024
BI00B32DJ    GHT2205B 1     202203317126-8855-02             TERMINAL                 CCN000198000000198000FN00000000020220501000198000NNMD0020220311121600    4P0P  00000600000000510600000795832DJ    RBYIPLRB006400630015
BI00B32DJ    GHT2205B 1     202203317126-8854-02             TERMINAL                 CCN000277500000277500FN00000000020220501000277500NNMD0020220311121600    4P0P  00000750000000604500000889732DJ    RBYIPLRB006400630015
BI00B32DJ    GHT2205B 1     202203317116-4025                TERMINAL                 CCN000224000000224000FN00000000020220501000224000NNMD0020220311121600    4P0P  00001600000000644800000975132DJ    RBYIPLRB006400630017
BI00B32DJ    GHT2205B 1     202203317116-4026                TERMINAL                 CCN000208000000208000FN00000000020220501000208000NNMD0020220311121600    4P0P  00001600000000664000000994332DJ    RBYIPLRB006400630017
BI00B32DJ    GHT2205B 1     202203317116-2892-02             TERMINAL                 CCN000168000000168000FN00000000020220501000168000NNMD0020220311121600    4P0P  00001200000000818400000981832DJ    RBYIPLRB005100280028
BI00B32DJ    GHT2205B 1     202203317116-2893-02             TERMINAL                 CCN000216000000216000FN00000000020220501000216000NNMD0020220311121600    4P0P  00001200000000895200001058632DJ    RBYIPLRB005100280028
BI00B32DJ    GHT2205B 1     202203317126-8853-02             TERMINAL                 CCN000157500000157500FN00000000020220501000157500NNMD0020220311121600    4P0P  00000750000000562500000847732DJ    RBYIPLRB006400630015
BI00B32DJ    GHT2205B 1     202203317114-4728-02             TERMINAL                 CCN000180000000180000FN00000000020220501000180000NNMD0020220311121600    4P0P  00003000000000510000000804232DJ    RBYIPLRB006400630015
BI00B32DJ    GHT2205B 1     202203317116-5042-02             TERMINAL                 CCN000027000000027000FN00000000020220501000027000NNMD0020220311121600    4P0P  00001350000000560300000845532DJ    RBYIPLRB006400630015
BI00B32DJ    GHT2205B 1     202203317116-1685-02             TERMINAL                 CCN000576000000576000FN00000000020220501000576000NNMD0020220311121600    4P0P  00002400000000897600001065232DJ    RBYIPLRB005100280028
BI00B32DJ    GHT2205B 1     202203317116-4020                TERMINAL                 CCN000013500000013500FN00000000020220501000013500NNMD0020220311121600    4P0P  00001350000000513000000798232DJ    RBYIPLRB006400630015
BI00A32D2    DGTC2212       202203217288-6547                CONNECTOR MALE ASS'Y     CCN000004500000000750FN00000000020220301000000750NNMD0420220311140854    4N0N  00000075000001205300001340332D2    TGYOT-G 005400370024
BI00A32D2    DGTC2219       202203147289-3342                HOUSING FEMALE ASS'Y     PCN000055200000055200FN00000000020220501000055200NNMM0020220311143123    1N0N  00000240000000686400000901432D2    TGYOT-G 005500360039
BI00B32D2    DGTC2220       202203247289-6547                HOUSING FEMALE ASS'Y     CCN000012000000007200FN00000000020220501000007200NNMQ0020220311140636    1N0N  00000240000001152000001362032D2    TGYOT-G 005500360039
BI00B32D2    DGTC2220       202203247327-6801-3W             BATTERY FUSE             CCN000002784000001824FN00000000020220501000001824NNMQ0020220311140457    4N0N  00000009600000928400001143432D2    TGYOT-G 005500360039
BI00B32D2    DGTC2220       202203247327-6806                MULTI FUSE               CCN000002800000002240FN00000000020220501000002240NNMQ0020220311140247    4N0N  00000056000000851500001063932D2    TGYOT-G 005400370024
BI00B32D2    DGTC2221       202203317289-6518-30             HOUSING FEMALE ASS'Y     CCN000015600000014400FN00000000020220501000014400NNMQ0020220311140750    1N0N  00000120000000829200001049232D2    TGYOT-G 005500360039
BI00B32D2    DGTC2222       202205267289-3342                HOUSING FEMALE ASS'Y     CCN000141600000012000FN00000000020220601000012000NNMD0420220311141938    1N0N  00000240000000686400000901432D2    TGYOT-G 005500360039
BI00B32D2    DGTC2222       202206027289-3342-30             HOUSING FEMALE ASS'Y     CCN000019200000019200FN00000000020220601000019200NNMD0420220311142954    1N0N  00000240000000686400000901432D2    TGYOT-G 005500360039
BI00B32D2    DGTC2222       202204077289-3342-90             HOUSING FEMALE ASS'Y     CCN000024000000012000FN00000000020220601000012000NNMD0420220311143552    1N0N  00000240000000686400000901432D2    TGYOT-G 005500360039
BI00B32D2    #DGTC2222      202204287172-5629-80             RUBBER STOPPER           CCN000700000000700000FN00000000020220601000700000NNMD0420220311121600    2H0H  00002000000000060000000111132D2    TGYOT-G 004300270014
BI00B32D2    #DGTC2222      202205197172-5630-40             RUBBER STOPPER           CCN000440000000440000FN00000000020220601000440000NNMD0420220311121600    2H0H  00002000000000044000000095132D2    TGYOT-G 004300270014
BI00A32D2    DGTC2220       202203217327-6806                MULTI FUSE               CCN000000560000000560FN00000000020220501000000560NNMM0020220311140247    4N0N  00000056000000851500001063932D2    TGYOT-G 005400370024
BI00A32D2    DGTC2220       202203217327-6801-3W             BATTERY FUSE             CCN000000960000000960FN00000000020220501000000960NNMM0020220311140457    4N0N  00000009600000928400001143432D2    TGYOT-G 005500360039
BI00A32D2    DGTC2220       202203187289-6547                HOUSING FEMALE ASS'Y     CCN000004800000004800FN00000000020220501000004800NNMM0020220311140636    1N0N  00000240000001152000001362032D2    TGYOT-G 005500360039
BI00A32D2    DGTC2221       202203217289-6518-30             HOUSING FEMALE ASS'Y     CCN000001200000001200FN00000000020220501000001200NNMM0020220311140750    1N0N  00000120000000829200001049232D2    TGYOT-G 005500360039
BI00A32D2    DGTC2222       202203187289-3342                HOUSING FEMALE ASS'Y     PCN000036000000036000FN00000000020220601000036000NNMM0020220311141510    1N0N  00000240000000686400000901432D2    TGYOT-G 005500360039
BI00B32D2    DGTC2222       202206027289-3342                HOUSING FEMALE ASS'Y     CCN000048000000048000FN00000000020220601000048000NNMD0420220311141957    1N0N  00000240000000686400000901432D2    TGYOT-G 005500360039
BI00B32D2    DGTC2222       202206097289-3342                HOUSING FEMALE ASS'Y     CCN000045600000045600FN00000000020220601000045600NNMD0420220311142003    1N0N  00000240000000686400000901432D2    TGYOT-G 005500360039
BI00B32D2    DGTC2222       202204217289-3342-90             HOUSING FEMALE ASS'Y     CCN000012000000012000FN00000000020220601000012000NNMD0420220311143558    1N0N  00000240000000686400000901432D2    TGYOT-G 005500360039
BI00B32D2    DGTC2224       202204217017-1180-02             TERMINAL                 CCN000072000000072000FN00000000020220601000072000NNM   20220311155951    4P0P  00007200000001065600001229032D2    TGYOT-G 005100280028
BI00B32D2    DGTC2224       202204217114-4032                TERMINAL                 CCN000030000000030000FN00000000020220601000030000NNM   20220311155951    4P0P  00000750000000735000001063632D2    TGYOT-G 006400630017
BI00B32D2    DGTC2224       202204217114-5748-02             TERMINAL                 CCN000036000000036000FN00000000020220601000036000NNM   20220311155951    4P0P  00001200000000444000000737632D2    TGYOT-G 006400630015
BI00B32D2    DGTC2224       202204217114-5753-02             TERMINAL                 CCN000081000000081000FN00000000020220601000081000NNM   20220311155951    4P0P  00002700000000847800001141432D2    TGYOT-G 006400630015
BI00B32D2    DGTC2224       202204217114-7842-02             TERMINAL MALE            CCN000012000000012000FN00000000020220601000012000NNM   20220311155951    4P0P  00001200000000460800000754432D2    TGYOT-G 006400630015
BI00B32D2    DGTC2224       202204217116-2891-02             TERMINAL                 CCN000030000000030000FN00000000020220601000030000NNM   20220311155951    4P0P  00001500000000982500001145932D2    TGYOT-G 005100280028
BI00B32D2    DGTC2224       202204217116-4486-02             TERMINAL                 CCN000084000000084000FN00000000020220601000084000NNM   20220311155951    4P0P  00002800000000666400000995132D2    TGYOT-G 006400630017
BI00B32D2    DGTC2224       202204217116-5045-02             TERMINAL                 CCN000032000000032000FN00000000020220601000032000NNM   20220311155951    4P0P  00001600000000678400001007132D2    TGYOT-G 006400630017
BI00B32D2    DGTC2224       202204217116-5046-02             TERMINAL                 CCN000072000000072000FN00000000020220601000072000NNM   20220311155951    4P0P  00001200000000544800000873532D2    TGYOT-G 006400630017
BI00B32D2    DGTC2224       202204217116-6042                TERMINAL                 CCN000042000000042000FN00000000020220601000042000NNM   20220311155951    4P0P  00000300000000523800000856132D2    TGYOT-G 006400630015
BI00B32D2    DGTC2224       202204217126-8853-02             TERMINAL                 CCN000082500000082500FN00000000020220601000082500NNM   20220311155951    4P0P  00000750000000562500000847732D2    TGYOT-G 006400630015
BI00B32D2    DGTC2224       202204217126-8854-02             TERMINAL                 CCN000060000000060000FN00000000020220601000060000NNM   20220311155951    4P0P  00000750000000604500000889732D2    TGYOT-G 006400630015
BI00B32D2    DGTC2224       202204217126-8855-02             TERMINAL                 CCN000096000000096000FN00000000020220601000096000NNM   20220311155951    4P0P  00000600000000510600000795832D2    TGYOT-G 006400630015
BI00B32D2    DGTC2224       202204217158-3070-80             RUBBER STOPPER           CCN000040000000040000FN00000000020220601000040000NNM   20220311155951    1C0C  00004000000000276000000333332D2    TGYOT-G 002700430014
BI00B32D2    DGTC2224       202204217173-3291-40             LIF LEVER                CCN000007200000007200FN00000000020220601000007200NNM   20220311155951    1F0F  00000240000000867800001067832D2    TGYOT-G 005500360039
BI00B32D2    DGTC2224       202204217196-1325-02             TERMINAL FEMALE          CCN000300000000300000FN00000000020220601000300000NNM   20220311155951    4P0P  00006000000000450000000778732D2    TGYOT-G 006400630017
BI00B32D2    DGTC2224       202204217196-1326-02             TERMINAL FEMALE          CCN000600000000600000FN00000000020220601000600000NNM   20220311155951    4P0P  00006000000000456000000784732D2    TGYOT-G 006400630017
BI00B32D2    DGTC2224       202204217196-1327-02             TERMINAL FEMALE          CCN000052000000052000FN00000000020220601000052000NNM   20220311155951    4P0P  00005200000000336000000739532D2    TGYOT-G 006400630017
BI00B32D2    DGTC2224       202204217283-6388-40             CONNECTOR                CCN000002000000002000FN00000000020220601000002000NNM   20220311155951    4N0N  00000200000001029000001173532D2    TGYOT-G 005500360039
BI00B32D2    DGTC2224       202204217288-6547                CONNECTOR MALE ASS'Y     CCN000005250000005250FN00000000020220601000005250NNM   20220311155951    4N0N  00000075000001205300001340332D2    TGYOT-G 005400370024
BI00B32D2    DGTC2224       202204217289-3342                HOUSING FEMALE ASS'Y     CCN000045600000045600FN00000000020220601000045600NNM   20220311155951    1N0N  00000240000000686400000901432D2    TGYOT-G 005500360039
BI00B32D2    DGTC2224       202204217289-3342-30             HOUSING FEMALE ASS'Y     CCN000014400000014400FN00000000020220601000014400NNM   20220311155951    1N0N  00000240000000686400000901432D2    TGYOT-G 005500360039
BI00B32D2    DGTC2224       202204217289-3342-40             HOUSING FEMALE ASS'Y     CCN000012000000012000FN00000000020220601000012000NNM   20220311155951    1N0N  00000240000000686400000901432D2    TGYOT-G 005500360039
BI00B32D2    DGTC2224       202204217289-3342-90             HOUSING FEMALE ASS'Y     CCN000014400000014400FN00000000020220601000014400NNM   20220311155951    1N0N  00000240000000686400000901432D2    TGYOT-G 005500360039
BI00B32D2    DGTC2224       202204217289-6518-30             HOUSING FEMALE ASS'Y     CCN000008400000008400FN00000000020220601000008400NNM   20220311155951    1N0N  00000120000000829200001049232D2    TGYOT-G 005500360039
BI00B32D2    DGTC2224       202204217289-6547                HOUSING FEMALE ASS'Y     CCN000004800000004800FN00000000020220601000004800NNM   20220311155951    1N0N  00000240000001152000001362032D2    TGYOT-G 005500360039
BI00B32D2    DGTC2224       202204217296-0784-02             TERMINAL ALUMINIUM       CCN000048000000048000FN00000000020220601000048000NNM   20220311155951    4P0P  00002400000000480000000765232D2    TGYOT-G 006400630015
BI00B32D2    DGTC2224       202204217296-1024-02             TERMINAL ALUMINIUM       CCN000018000000018000FN00000000020220601000018000NNM   20220311155951    4P0P  00001800000000698400000983632D2    TGYOT-G 006400630015
BI00B32D2    DGTC2224       202204217327-6801-3W             BATTERY FUSE             CCN000002208000002208FN00000000020220601000002208NNM   20220311155951    4N0N  00000009600000928400001143432D2    TGYOT-G 005500360039
BI00B32D2    DGTC2224       202204217327-6803                MULTI FUSE               CCN000001680000001680FN00000000020220601000001680NNM   20220311155951    4N0N  00000056000000854600001067032D2    TGYOT-G 005400370024
BI00B32D2    DGTC2224       202204217327-6806                MULTI FUSE               CCN000002240000002240FN00000000020220601000002240NNM   20220311155951    4N0N  00000056000000851500001063932D2    TGYOT-G 005400370024
BI00B32D2    DGTC2224       202204217327-6809                MULTI FUSE               CCN000005040000005040FN00000000020220601000005040NNM   20220311155951    4N0N  00000056000000849300001061732D2    TGYOT-G 005400370024
BI00B32D2    DGTC2224       202204217327-6930                MULTI FUSE               CCN000001680000001680FN00000000020220601000001680NNM   20220311155951    4N0N  00000056000000848900001031932D2    TGYOT-G 005400370024
BI00B32D2    DGTC2224       202204217388-2978-30             HOUSING MALE ASS'Y       CCN000015360000015360FN00000000020220601000015360NNM   20220311155951    1N0N  00000048000000742000001122032D2    TGYOT-G 005500360039
BI00B32D2    #DGTC2224      202204217158-3003-90             RUBBER STOPPER           CCN000140000000140000FN00000000020220601000140000NNM   20220311155953    2C0C  00002000000000250000000306032D2    TGYOT-G 002700430014
BI00B32D2    #DGTC2224      202204217158-3005-80             RUBBER STOPPER           CCN000020000000020000FN00000000020220601000020000NNM   20220311155953    2H0H  00002000000000210000000268732D2    TGYOT-G 002700430014
BI00B32D2    #DGTC2224      202204217158-3008-80             RUBBER STOPPER           CCN000040000000040000FN00000000020220601000040000NNM   20220311155953    2C0C  00002000000000288000000343032D2    TGYOT-G 004300270014
BI00B32D2    #DGTC2224      202204217158-3015-10             RUBBER STOPPER           CCN000010000000010000FN00000000020220601000010000NNM   20220311155953    2C0C  00001000000000419500000474032D2    TGYOT-G 002700430014
BI00B32D2    #DGTC2224      202204217158-3017                RUBBER STOPPER           CCN000010000000010000FN00000000020220601000010000NNM   20220311155953    2C0C  00001000000000375500000435032D2    TGYOT-G 002700430014
BI00B32D2    #DGTC2224      202204217158-3374-90             CONNECTOR WIRE SEAL      CCN000020000000020000FN00000000020220601000020000NNM   20220311155953    2H0H  00002000000000172000000229332D2    TGYOT-G 002700430014
BI00B32D2    #DGTC2224      202204217172-5627-60             RUBBER STOPPER           CCN000020000000020000FN00000000020220601000020000NNM   20220311155953    2H0H  00002000000000070400000121832D2    TGYOT-G 004300270014
BI00B32D2    #DGTC2224      202204217172-5629-80             RUBBER STOPPER           CCN000300000000300000FN00000000020220601000300000NNM   20220311155953    2H0H  00002000000000060000000111132D2    TGYOT-G 004300270014
BI00B32D2    #DGTC2224      202204217172-5630-40             RUBBER STOPPER           CCN000200000000200000FN00000000020220601000200000NNM   20220311155953    2H0H  00002000000000044000000095132D2    TGYOT-G 004300270014
BI00B32D2    #DGTC2224      202204217172-5631-60             RUBBER STOPPER           CCN000120000000120000FN00000000020220601000120000NNM   20220311155953    2H0H  00002000000000042000000093132D2    TGYOT-G 004300270014
BI00B32D2    #DGTC2224      202204217172-5632-10             DUMMY PLUG               CCN000160000000160000FN00000000020220601000160000NNM   20220311155953    2H0H  00002000000000080400000131832D2    TGYOT-G 004300270014
BI00B32D2    #DGTC2224      202204217189-2978-30             HOUSING FEMALE           CCN000015000000015000FN00000000020220601000015000NNM   20220311155953    2F0F  00000150000000966900001096932D2    TGYOT-G 005400370024
BI00B32D2    #DGTC2224      202204217189-3033                HOUSING FEMALE           CCN000006400000006400FN00000000020220601000006400NNM   20220311155953    2F0F  00000160000001211200001431232D2    TGYOT-G 005500360039
BI00B32D2    #DGTC2224      202204217189-3036                HOUSING FEMALE           CCN000003200000003200FN00000000020220601000003200NNM   20220311155953    2F0F  00000160000000921600001141632D2    TGYOT-G 005500360039
BI00B32D2    #DGTC2224      202204217189-3037                HOUSING FEMALE           CCN000004800000004800FN00000000020220601000004800NNM   20220311155953    2F0F  00000480000000806400001066432D2    TGYOT-G 005500360039
BI00B32D2    #DGTC2224      202204217289-2912-40             HOUSING FEMALE ASS'Y     CCN000002000000002000FN00000000020220601000002000NNM   20220311155953    2N0N  00000200000000804000000931032D2    TGYOT-G 005400370024
BI00B32D2    #DGTC2224      202204217289-4200-30             HOUSING FEMALE ASS'Y     CCN000002000000002000FN00000000020220601000002000NNM   20220311155953    2N0N  00000200000000926000001021032D2    TGYOT-G 005400370024
BI00B32D9    I21805         202204077289-3342                HOUSING FEMALE ASS'Y     CCN000043200000021600FN00000000020220501000021600NNMD0420220311142110    1N0N  00000240000000686400000901432D9    UEHESTO 005500360039
BI00B32D9    I21905         202204287289-3342                HOUSING FEMALE ASS'Y     CCN000043200000021600FN00000000020220501000021600NNMD0420220311142147    1N0N  00000240000000686400000901432D9    UEHESTO 005500360039
BI00B32D9    I22005         202205127289-3342                HOUSING FEMALE ASS'Y     CCN000043200000021600FN00000000020220501000021600NNMD0420220311142228    1N0N  00000240000000686400000901432D9    UEHESTO 005500360039
BI00B32D9    I22106         202205267289-3342                HOUSING FEMALE ASS'Y     CCN000043200000021600FN00000000020220501000021600NNMD0420220311142257    1N0N  00000240000000686400000901432D9    UEHESTO 005500360039
BI00B32D9    I21805         202204077289-3342-30             HOUSING FEMALE ASS'Y     CCN000093600000031200FN00000000020220501000031200NNMD0420220311143037    1N0N  00000240000000686400000901432D9    UEHESTO 005500360039
BI00B32D9    I21905         202205057289-3342-30             HOUSING FEMALE ASS'Y     CCN000093600000031200FN00000000020220501000031200NNMD0420220311143140    1N0N  00000240000000686400000901432D9    UEHESTO 005500360039
BI00B32D9    I22005         202205267289-3342-30             HOUSING FEMALE ASS'Y     CCN000093600000031200FN00000000020220501000031200NNMD0420220311143232    1N0N  00000240000000686400000901432D9    UEHESTO 005500360039
BI00B32D9    I22106         202206167289-3342-30             HOUSING FEMALE ASS'Y     CCN000093600000031200FN00000000020220501000031200NNMD0420220311143323    1N0N  00000240000000686400000901432D9    UEHESTO 005500360039
BI00B32D9    I21805         202204287289-3342-90             HOUSING FEMALE ASS'Y     CCN000024000000012000FN00000000020220501000012000NNMD0420220311143638    1N0N  00000240000000686400000901432D9    UEHESTO 005500360039
BI00B32D9    I21905         202205127289-3342-90             HOUSING FEMALE ASS'Y     CCN000024000000012000FN00000000020220501000012000NNMD0420220311143714    1N0N  00000240000000686400000901432D9    UEHESTO 005500360039
BI00B32D9    I22005         202205267289-3342-90             HOUSING FEMALE ASS'Y     CCN000024000000012000FN00000000020220501000012000NNMD0420220311143753    1N0N  00000240000000686400000901432D9    UEHESTO 005500360039
BI00B32D9    I22106         202206097289-3342-90             HOUSING FEMALE ASS'Y     CCN000024000000012000FN00000000020220501000012000NNMD0420220311143827    1N0N  00000240000000686400000901432D9    UEHESTO 005500360039
BI00B32D9    I21805         202204217289-3342                HOUSING FEMALE ASS'Y     CCN000021600000021600FN00000000020220501000021600NNMD0420220311142114    1N0N  00000240000000686400000901432D9    UEHESTO 005500360039
BI00B32D9    I21905         202205057289-3342                HOUSING FEMALE ASS'Y     CCN000021600000021600FN00000000020220501000021600NNMD0420220311142152    1N0N  00000240000000686400000901432D9    UEHESTO 005500360039
BI00B32D9    I22005         202205197289-3342                HOUSING FEMALE ASS'Y     CCN000021600000021600FN00000000020220501000021600NNMD0420220311142233    1N0N  00000240000000686400000901432D9    UEHESTO 005500360039
BI00B32D9    I22106         202206027289-3342                HOUSING FEMALE ASS'Y     CCN000021600000021600FN00000000020220501000021600NNMD0420220311142311    1N0N  00000240000000686400000901432D9    UEHESTO 005500360039
BI00B32D9    I21805         202204217289-3342-30             HOUSING FEMALE ASS'Y     CCN000031200000031200FN00000000020220501000031200NNMD0420220311143047    1N0N  00000240000000686400000901432D9    UEHESTO 005500360039
BI00B32D9    I21805         202204287289-3342-30             HOUSING FEMALE ASS'Y     CCN000031200000031200FN00000000020220501000031200NNMD0420220311143052    1N0N  00000240000000686400000901432D9    UEHESTO 005500360039
BI00B32D9    I21905         202205127289-3342-30             HOUSING FEMALE ASS'Y     CCN000031200000031200FN00000000020220501000031200NNMD0420220311143152    1N0N  00000240000000686400000901432D9    UEHESTO 005500360039
BI00B32D9    I21905         202205197289-3342-30             HOUSING FEMALE ASS'Y     CCN000031200000031200FN00000000020220501000031200NNMD0420220311143157    1N0N  00000240000000686400000901432D9    UEHESTO 005500360039
BI00B32D9    I22005         202206027289-3342-30             HOUSING FEMALE ASS'Y     CCN000031200000031200FN00000000020220501000031200NNMD0420220311143246    1N0N  00000240000000686400000901432D9    UEHESTO 005500360039
BI00B32D9    I22005         202206097289-3342-30             HOUSING FEMALE ASS'Y     CCN000031200000031200FN00000000020220501000031200NNMD0420220311143252    1N0N  00000240000000686400000901432D9    UEHESTO 005500360039
BI00B32D9    I22106         202206237289-3342-30             HOUSING FEMALE ASS'Y     CCN000031200000031200FN00000000020220501000031200NNMD0420220311143334    1N0N  00000240000000686400000901432D9    UEHESTO 005500360039
BI00B32D9    I22106         202206307289-3342-30             HOUSING FEMALE ASS'Y     CCN000031200000031200FN00000000020220501000031200NNMD0420220311143343    1N0N  00000240000000686400000901432D9    UEHESTO 005500360039
BI00B32D9    I21805         202205057289-3342-90             HOUSING FEMALE ASS'Y     CCN000012000000012000FN00000000020220501000012000NNMD0420220311143644    1N0N  00000240000000686400000901432D9    UEHESTO 005500360039
BI00B32D9    I21905         202205197289-3342-90             HOUSING FEMALE ASS'Y     CCN000012000000012000FN00000000020220501000012000NNMD0420220311143719    1N0N  00000240000000686400000901432D9    UEHESTO 005500360039
BI00B32D9    I22005         202206027289-3342-90             HOUSING FEMALE ASS'Y     CCN000012000000012000FN00000000020220501000012000NNMD0420220311143759    1N0N  00000240000000686400000901432D9    UEHESTO 005500360039
BI00B32D9    I22106         202206167289-3342-90             HOUSING FEMALE ASS'Y     CCN000012000000012000FN00000000020220501000012000NNMD0420220311143844    1N0N  00000240000000686400000901432D9    UEHESTO 005500360039
BI00B32EJ    T220308P01     202203317116-4022                TERMINAL                 CCN000067500000067500FN00000000020220401000067500NNED0020220311121600EJ  4P0P  00001350000000618300000903532EJ    EJYKBO  006400630015
BI00B32EJ    T220308P01     202203317116-4122-02             TERMINAL                 CCN000090000000090000FN00000000020220401000090000NNED0020220311121600EJ  4P0P  00000450000000656600000950232EJ    EJYKBO  006400630015
BI00B32EJ    T220308P02     202203317116-4022                TERMINAL                 CCN000013500000013500FN00000000020220401000013500NNED0020220311121600EJ  4P0P  00001350000000618300000903532EJ    EJYKBO  006400630015
BI00B32EJ    T220308P02     202203317116-4122-02             TERMINAL                 CCN000013500000013500FN00000000020220401000013500NNED0020220311121600EJ  4P0P  00000450000000656600000950232EJ    EJYKBO  006400630015
BI00B32E1    NC2071         202204277289-3342-30             HOUSING FEMALE ASS'Y     CCN000002400000002400FN00000000020220601000002400NNMD0420220311162838    1N0N  00000240000000686400000901432E1    SPYSE   005500360039
BI00A32E2    NY2071         202204207158-3006-90             RUBBER STOPPER           CCN000080000000080000FN00000000020220601000080000NNMM0020220311121600    1C0C  00002000000000330600000386032E2    SPYSE   002700430014
BI00A32E2    NY2072         202204277158-3006-90             RUBBER STOPPER           CCN000020000000020000FN00000000020220601000020000NNMM0020220311121600    1C0C  00002000000000330600000386032E2    SPYSE   002700430014
BI00A32E2    NY2073         202205047158-3006-90             RUBBER STOPPER           CCN000020000000020000FN00000000020220601000020000NNMM0020220311121600    1C0C  00002000000000330600000386032E2    SPYSE   002700430014
BI00B32E2    NY2071         202204277288-3337-30             HOUSING MALE             CCN000001500000001500FN00000000020220601000001500NNMD0420220311162647    4N0N  00000150000000867000001012032E2    SPYSE   005400370024
BI00B32G2    SA22043 MW     202203167017-1180-02             TERMINAL                 CCN000072000000072000FN00000000020220401000072000NNMD0020220311161036    4P0P  00007200000001065600001229032G2    AISUAI  005100280028
BI00B32G2    SA22043 MW     202203167114-4020                TERMINAL                 CCN000063000000063000FN00000000020220401000063000NNMD0020220311161057    4P0P  00002100000000875700001169332G2    AISUAI  006400630015
BI00B32G2    SA22044 MW     202203237114-4020                TERMINAL                 CCN000042000000042000FN00000000020220401000042000NNMD0020220311162742    4P0P  00002100000000875700001169332G2    AISUAI  006400630015
BI00B32G2    SA22043 MW     202203167114-4021                TERMINAL                 CCN000045000000045000FN00000000020220401000045000NNMD0020220311161114    4P0P  00001500000000670500000964132G2    AISUAI  006400630015
BI00B32G2    SA22044 MW     202203237114-4021                TERMINAL                 CCN000030000000030000FN00000000020220401000030000NNMD0020220311162757    4P0P  00001500000000670500000964132G2    AISUAI  006400630015
BI00B32G2    SA22043 MW     202203167114-4624-02             TERMINAL                 CCN000024000000024000FN00000000020220401000024000NNMD0020220311161129    4P0P  00002400000000895200001188832G2    AISUAI  006400630015
BI00B32G2    SA22044 MW     202203237114-4624-02             TERMINAL                 CCN000024000000024000FN00000000020220401000024000NNMD0020220311162817    4P0P  00002400000000895200001188832G2    AISUAI  006400630015
BI00B32G2    SA22043 MW     202203167114-4728-02             TERMINAL                 CCN000450000000450000FN00000000020220401000450000NNMD0020220311161147    4P0P  00003000000000510000000804232G2    AISUAI  006400630015
BI00B32G2    SA22044 MW     202203237114-4728-02             TERMINAL                 CCN000270000000270000FN00000000020220401000270000NNMD0020220311162835    4P0P  00003000000000510000000804232G2    AISUAI  006400630015
BI00B32G2    SA22043 MW     202203167114-4729-02             TERMINAL                 CCN000180000000180000FN00000000020220401000180000NNMD0020220311161201    4P0P  00003000000000516000000810232G2    AISUAI  006400630015
BI00B32G2    SA22044 MW     202203237114-4729-02             TERMINAL                 CCN000120000000120000FN00000000020220401000120000NNMD0020220311162848    4P0P  00003000000000516000000810232G2    AISUAI  006400630015
BI00B32G2    SA22043 MW     202203167114-5096-02             TERMINAL                 CCN000060000000060000FN00000000020220401000060000NNMD0020220311161219    4P0P  00003000000000498000000792232G2    AISUAI  006400630015
BI00B32G2    SA22044 MW     202203237114-5096-02             TERMINAL                 CCN000060000000060000FN00000000020220401000060000NNMD0020220311162903    4P0P  00003000000000498000000792232G2    AISUAI  006400630015
BI00B32G2    SA22043 MW     202203167114-5746-02             TERMINAL                 CCN000042000000042000FN00000000020220401000042000NNMD0020220311161234    4P0P  00002100000000695100000988732G2    AISUAI  006400630015
BI00B32G2    SA22044 MW     202203237114-5746-02             TERMINAL                 CCN000021000000021000FN00000000020220401000021000NNM00020220311162919    4P0P  00002100000000695100000988732G2    AISUAI  006400630015
BI00B32G2    SA22043 MW     202203167114-5747-02             TERMINAL                 CCN000054000000054000FN00000000020220401000054000NNMD0020220311161252    4P0P  00001800000000626400000920032G2    AISUAI  006400630015
BI00B32G2    SA22044 MW     202203237114-5747-02             TERMINAL                 CCN000054000000054000FN00000000020220401000054000NNMD0020220311162931    4P0P  00001800000000626400000920032G2    AISUAI  006400630015
BI00B32G2    SA22043 MW     202203167114-5753-02             TERMINAL                 CCN000054000000054000FN00000000020220401000054000NNMD0020220311161305    4P0P  00002700000000847800001141432G2    AISUAI  006400630015
BI00B32G2    SA22044 MW     202203237114-5753-02             TERMINAL                 CCN000027000000027000FN00000000020220401000027000NNMD0020220311162945    4P0P  00002700000000847800001141432G2    AISUAI  006400630015
BI00B32G2    SA22043 MW     202203167114-6041                TERMINAL                 CCN000003600000003600FN00000000020220401000003600NNMD0020220311161324    4P0P  00000360000000580700000824232G2    AISUAI  006400630015
BI00B32G2    SA22044 MW     202203237114-6041                TERMINAL                 CCN000003600000003600FN00000000020220401000003600NNM00020220311162959    4P0P  00000360000000580700000824232G2    AISUAI  006400630015
BI00B32G2    SA22043 MW     202203167116-1180                TERMINAL                 CCN000019500000019500FN00000000020220401000019500NNMD0020220311161338    1P0P  00001950000000618200000903432G2    AISUAI  006400630015
BI00B32G2    SA22044 MW     202203237116-1180                TERMINAL                 CCN000019500000019500FN00000000020220401000019500NNMD0020220311163017    1P0P  00001950000000618200000903432G2    AISUAI  006400630015
BI00B32G2    SA22043 MW     202203167116-1471                TERMINAL                 CCN000015000000015000FN00000000020220401000015000NNMD0020220311161351    4P0P  00001500000000579000000867232G2    AISUAI  006400630015
BI00B32G2    SA22044 MW     202203237116-1471                TERMINAL                 CCN000015000000015000FN00000000020220401000015000NNMD0020220311163032    4P0P  00001500000000579000000867232G2    AISUAI  006400630015
BI00B32G2    SA22043 MW     202203167116-1685-02             TERMINAL                 CCN000048000000048000FN00000000020220401000048000NNMD0020220311161413    4P0P  00002400000000897600001065232G2    AISUAI  005100280028
BI00B32G2    SA22044 MW     202203237116-1685-02             TERMINAL                 CCN000024000000024000FN00000000020220401000024000NNMD0020220311163044    4P0P  00002400000000897600001065232G2    AISUAI  005100280028
BI00B32G2    SA22043 MW     202203167116-2640                TERMINAL                 CCN000018000000018000FN00000000020220401000018000NNMD0020220311161427    4P0P  00001800000001018800001196632G2    AISUAI  005100280028
BI00B32G2    SA22043 MW     202203167116-2641                TERMINAL                 CCN000018000000018000FN00000000020220401000018000NNMD0020220311161440    4P0P  00001800000001161000001344632G2    AISUAI  005100280028
BI00B32G2    SA22044 MW     202203237116-2641                TERMINAL                 CCN000018000000018000FN00000000020220401000018000NNMD0020220311163100    4P0P  00001800000001161000001344632G2    AISUAI  005100280028
BI00B32G2    SA22043 MW     202203167116-2891-02             TERMINAL                 CCN000045000000045000FN00000000020220401000045000NNMD0020220311161458    4P0P  00001500000000982500001145932G2    AISUAI  005100280028
BI00B32G2    SA22044 MW     202203237116-2891-02             TERMINAL                 CCN000045000000045000FN00000000020220401000045000NNMD0020220311163118    4P0P  00001500000000982500001145932G2    AISUAI  005100280028
BI00B32G2    SA22043 MW     202203167116-2892-02             TERMINAL                 CCN000036000000036000FN00000000020220401000036000NNMD0020220311161513    4P0P  00001200000000818400000981832G2    AISUAI  005100280028
BI00B32G2    SA22044 MW     202203237116-2892-02             TERMINAL                 CCN000024000000024000FN00000000020220401000024000NNMD0020220311163124    4P0P  00001200000000818400000981832G2    AISUAI  005100280028
BI00B32G2    SA22043 MW     202203167116-2893-02             TERMINAL                 CCN000060000000060000FN00000000020220401000060000NNMD0020220311161526    4P0P  00001200000000895200001058632G2    AISUAI  005100280028
BI00B32G2    SA22044 MW     202203237116-2893-02             TERMINAL                 CCN000048000000048000FN00000000020220401000048000NNMD0020220311163132    4P0P  00001200000000895200001058632G2    AISUAI  005100280028
BI00B32G2    SA22043 MW     202203167116-4020                TERMINAL                 CCN000135000000135000FN00000000020220401000135000NNMD0020220311161552    4P0P  00001350000000513000000798232G2    AISUAI  006400630015
BI00B32G2    SA22044 MW     202203237116-4020                TERMINAL                 CCN000108000000108000FN00000000020220401000108000NNMD0020220311163143    4P0P  00001350000000513000000798232G2    AISUAI  006400630015
BI00B32G2    SA22043 MW     202203167116-4025                TERMINAL                 CCN000096000000096000FN00000000020220401000096000NNMD0020220311161613    4P0P  00001600000000644800000975132G2    AISUAI  006400630017
BI00B32G2    SA22044 MW     202203237116-4025                TERMINAL                 CCN000064000000064000FN00000000020220401000064000NNMD0020220311163200    4P0P  00001600000000644800000975132G2    AISUAI  006400630017
BI00B32G2    SA22043 MW     202203167116-4026                TERMINAL                 CCN000016000000016000FN00000000020220401000016000NNM00020220311161631    4P0P  00001600000000664000000994332G2    AISUAI  006400630017
BI00B32G2    SA22044 MW     202203237116-4026                TERMINAL                 CCN000016000000016000FN00000000020220401000016000NNMD0020220311163241    4P0P  00001600000000664000000994332G2    AISUAI  006400630017
BI00B32G2    SA22043 MW     202203167116-4031                TERMINAL                 CCN000007500000007500FN00000000020220401000007500NNMD0020220311161648    4P0P  00000750000000619500000904732G2    AISUAI  006400630015
BI00B32G2    SA22044 MW     202203237116-4031                TERMINAL                 CCN000007500000007500FN00000000020220401000007500NNMD0020220311163249    4P0P  00000750000000619500000904732G2    AISUAI  006400630015
BI00B32G2    SA22043 MW     202203167116-4032                TERMINAL                 CCN000048000000048000FN00000000020220401000048000NNMD0020220311161706    4P0P  00000600000000532800000818032G2    AISUAI  006400630015
BI00B32G2    SA22044 MW     202203237116-4032                TERMINAL                 CCN000036000000036000FN00000000020220401000036000NNMD0020220311163259    4P0P  00000600000000532800000818032G2    AISUAI  006400630015
BI00B32G2    SA22043 MW     202203167116-4037                TERMINAL                 CCN000036000000036000FN00000000020220401000036000NNMD0020220311161728    4P0P  00000600000000600000000894232G2    AISUAI  006400630015
BI00B32G2    SA22044 MW     202203237116-4037                TERMINAL                 CCN000024000000024000FN00000000020220401000024000NNMD0020220311163311    4P0P  00000600000000600000000894232G2    AISUAI  006400630015
BI00B32G2    SA22043 MW     202203167116-4231-02             TERMINAL                 CCN000052000000052000FN00000000020220401000052000NNMD0020220311161744    4P0P  00002600000000683800001012532G2    AISUAI  006400630017
BI00B32G2    SA22044 MW     202203237116-4231-02             TERMINAL                 CCN000052000000052000FN00000000020220401000052000NNMD0020220311163322    4P0P  00002600000000683800001012532G2    AISUAI  006400630017
BI00B32G2    SA22044 MW     202203237116-4486-02             TERMINAL                 CCN000056000000056000FN00000000020220401000056000NNMD0020220311163334    4P0P  00002800000000666400000995132G2    AISUAI  006400630017
BI00B32G2    SA22043 MW     202203167116-5041-02             TERMINAL                 CCN000225000000225000FN00000000020220401000225000NNMD0020220311161911    4P0P  00001500000000583500000868732G2    AISUAI  006400630015
BI00B32G2    SA22044 MW     202203237116-5041-02             TERMINAL                 CCN000150000000150000FN00000000020220401000150000NNMD0020220311163346    4P0P  00001500000000583500000868732G2    AISUAI  006400630015
BI00B32G2    SA22043 MW     202203167116-5042-02             TERMINAL                 CCN000121500000121500FN00000000020220401000121500NNMD0020220311161944    4P0P  00001350000000560300000845532G2    AISUAI  006400630015
BI00B32G2    SA22044 MW     202203237116-5042-02             TERMINAL                 CCN000108000000108000FN00000000020220401000108000NNMD0020220311163359    4P0P  00001350000000560300000845532G2    AISUAI  006400630015
BI00B32G2    SA22043 MW     202203167116-5043-02             TERMINAL FEMALE          CCN000072000000072000FN00000000020220401000072000NNMD0020220311162016    4P0P  00001200000000559200000844432G2    AISUAI  006400630015
BI00B32G2    SA22044 MW     202203237116-5043-02             TERMINAL FEMALE          CCN000048000000048000FN00000000020220401000048000NNMD0020220311163410    4P0P  00001200000000559200000844432G2    AISUAI  006400630015
BI00B32G2    SA22043 MW     202203167116-5044-02             TERMINAL                 CCN000160000000160000FN00000000020220401000160000NNMD0020220311162121    4P0P  00001600000000641600000986332G2    AISUAI  006400630017
BI00B32G2    SA22044 MW     202203237116-5044-02             TERMINAL                 CCN000144000000144000FN00000000020220401000144000NNM00020220311163423    4P0P  00001600000000641600000986332G2    AISUAI  006400630017
BI00B32G2    SA22043 MW     202203167116-5045-02             TERMINAL                 CCN000080000000080000FN00000000020220401000080000NNMD0020220311162139    4P0P  00001600000000678400001007132G2    AISUAI  006400630017
BI00B32G2    SA22044 MW     202203237116-5045-02             TERMINAL                 CCN000064000000064000FN00000000020220401000064000NNM00020220311163442    4P0P  00001600000000678400001007132G2    AISUAI  006400630017
BI00B32G2    SA22043 MW     202203167116-5046-02             TERMINAL                 CCN000024000000024000FN00000000020220401000024000NNMD0020220311162152    4P0P  00001200000000544800000873532G2    AISUAI  006400630017
BI00B32G2    SA22044 MW     202203237116-5046-02             TERMINAL                 CCN000012000000012000FN00000000020220401000012000NNM00020220311163448    4P0P  00001200000000544800000873532G2    AISUAI  006400630017
BI00B32G2    SA22043 MW     202203167116-5097-02             TERMINAL                 CCN000022500000022500FN00000000020220401000022500NNMD0020220311162205    4P0P  00002250000000531000000816232G2    AISUAI  006400630015
BI00B32G2    SA22044 MW     202203237116-5097-02             TERMINAL                 CCN000022500000022500FN00000000020220401000022500NNM00020220311163512    4P0P  00002250000000531000000816232G2    AISUAI  006400630015
BI00B32G2    SA22043 MW     202203167116-5750-02             TERMINAL                 CCN000195000000195000FN00000000020220401000195000NNMD0020220311162259    4P0P  00001500000000457500000742732G2    AISUAI  006400630015
BI00B32G2    SA22044 MW     202203237116-5750-02             TERMINAL                 CCN000135000000135000FN00000000020220401000135000NNM00020220311163525    4P0P  00001500000000457500000742732G2    AISUAI  006400630015
BI00B32G2    SA22043 MW     202203167116-5751-02             TERMINAL                 CCN000060000000060000FN00000000020220401000060000NNMD0020220311162309    4P0P  00001200000000379200000664432G2    AISUAI  006400630015
BI00B32G2    SA22044 MW     202203237116-5751-02             TERMINAL                 CCN000036000000036000FN00000000020220401000036000NNM00020220311163535    4P0P  00001200000000379200000664432G2    AISUAI  006400630015
BI00B32G2    SA22043 MW     202203167116-5752-02             TERMINAL                 CCN000126000000126000FN00000000020220401000126000NNMD0020220311162333    4P0P  00002100000000571200000856432G2    AISUAI  006400630015
BI00B32G2    SA22044 MW     202203237116-5752-02             TERMINAL                 CCN000084000000084000FN00000000020220401000084000NNMD0020220311163548    4P0P  00002100000000571200000856432G2    AISUAI  006400630015
BI00B32G2    SA22043 MW     202203167116-6041                TERMINAL                 CCN000009000000009000FN00000000020220401000009000NNMD0020220311162353    4P0P  00000450000000716000001009632G2    AISUAI  006400630015
BI00B32G2    SA22044 MW     202203237116-6041                TERMINAL                 CCN000009000000009000FN00000000020220401000009000NNM00020220311163600    4P0P  00000450000000716000001009632G2    AISUAI  006400630015
BI00B32G2    SA22043 MW     202203167116-6042                TERMINAL                 CCN000018000000018000FN00000000020220401000018000NNMD0020220311162408    4P0P  00000300000000523800000856132G2    AISUAI  006400630015
BI00B32G2    SA22044 MW     202203237116-6042                TERMINAL                 CCN000012000000012000FN00000000020220401000012000NNM00020220311163611    4P0P  00000300000000523800000856132G2    AISUAI  006400630015
BI00B32G2    SA22043 MW     202203167126-8850-02             TERMINAL                 CCN000009000000009000FN00000000020220401000009000NNM00020220311162434    1P0P  00000900000000672300000957532G2    AISUAI  006400630015
BI00B32G2    SA22043 MW     202203167126-8852-02             TERMINAL                 CCN000007500000007500FN00000000020220401000007500NNMD0020220311162449    1P0P  00000750000000648000000933232G2    AISUAI  006400630015
BI00B32G2    SA22044 MW     202203237126-8852-02             TERMINAL                 CCN000007500000007500FN00000000020220401000007500NNM00020220311163623    1P0P  00000750000000648000000933232G2    AISUAI  006400630015
BI00B32G2    SA22043 MW     202203167126-8853-02             TERMINAL                 CCN000090000000090000FN00000000020220401000090000NNMD0020220311162504    4P0P  00000750000000562500000847732G2    AISUAI  006400630015
BI00B32G2    SA22044 MW     202203237126-8853-02             TERMINAL                 CCN000067500000067500FN00000000020220401000067500NNM00020220311163629    4P0P  00000750000000562500000847732G2    AISUAI  006400630015
BI00B32G2    SA22043 MW     202203167126-8854-02             TERMINAL                 CCN000067500000067500FN00000000020220401000067500NNMD0020220311162516    4P0P  00000750000000604500000889732G2    AISUAI  006400630015
BI00B32G2    SA22044 MW     202203237126-8854-02             TERMINAL                 CCN000060000000060000FN00000000020220401000060000NNM00020220311163636    4P0P  00000750000000604500000889732G2    AISUAI  006400630015
BI00B32G2    SA22043 MW     202203167126-8855-02             TERMINAL                 CCN000036000000036000FN00000000020220401000036000NNMD0020220311162527    4P0P  00000600000000510600000795832G2    AISUAI  006400630015
BI00B32G2    SA22044 MW     202203237126-8855-02             TERMINAL                 CCN000024000000024000FN00000000020220401000024000NNM00020220311163647    4P0P  00000600000000510600000795832G2    AISUAI  006400630015
BI00B32G2    SA22043JMW     202203167116-5035-02             TERMINAL                 CCN000015000000015000FN00000000020220401000015000NNMD0020220311162553    4P0P  00001500000000543000000828232G2    AISUAI  006400630015
BI00B32G2    SA22044JMW     202203237116-5035-02             TERMINAL                 CCN000015000000015000FN00000000020220401000015000NNM00020220311163701    4P0P  00001500000000543000000828232G2    AISUAI  006400630015
BI00B32G2    SA22043JMW     202203167196-0510-02             TERMINAL                 CCN000024000000024000FN00000000020220401000024000NNMD0020220311162634    4P0P  00002400000000871200001034632G2    AISUAI  002800510028
BI00B32G2    SA22044JMW     202203237196-0510-02             TERMINAL                 CCN000024000000024000FN00000000020220401000024000NNMD0020220311163733    4P0P  00002400000000871200001034632G2    AISUAI  002800510028
BI00B32G2    SA2204AJMW     202203167116-3153-08             TERMINAL                 CCN000027000000027000FN00000000020220401000027000NNED0020220311162653    4P0P  00002700000000461700000746932G2    AISUAI  006400630015
BI00B32G2    SA2204C MW     202203167116-1257-02             TERMINAL                 CCN000024000000024000FN00000000020220401000024000NNED0020220311162725    1P0P  00002400000000518400000847132G2    AISUAI  006400630017
BI00B32G2    SA22051 MW     202203307017-1180-02             TERMINAL                 CCN000216000000216000FN00000000020220501000216000NNMD0020220311163749    4P0P  00007200000001065600001229032G2    AISUAI  005100280028
BI00B32G2    SA22051 MW     202203307017-1182-02             TERMINAL                 CCN000045000000045000FN00000000020220501000045000NNMD0020220311163759    4P0P  00004500000001165500001318632G2    AISUAI  005100280028
BI00B32G2    SA22051 MW     202203307017-1183-02             TERMINAL                 CCN000027000000027000FN00000000020220501000027000NNMD0020220311163812    4P0P  00002700000001139400001307432G2    AISUAI  005100280028
BI00B32G2    SA22051 MW     202203307114-1470                TERMINAL                 CCN000016500000016500FN00000000020220501000016500NNM00020220311163827    4P0P  00001650000000544500000838732G2    AISUAI  006400630015
BI00B32G2    SA22051 MW     202203307114-4020                TERMINAL                 CCN000420000000420000FN00000000020220501000420000NNMD0020220311163838    4P0P  00002100000000875700001169332G2    AISUAI  006400630015
BI00B32G2    SA22051 MW     202203307114-4021                TERMINAL                 CCN000330000000330000FN00000000020220501000330000NNM00020220311163846    4P0P  00001500000000670500000964132G2    AISUAI  006400630015
BI00B32G2    SA22051 MW     202203307114-4231-02             TERMINAL                 CCN000072000000072000FN00000000020220501000072000NNMD0020220311163908    4P0P  00001800000000554400000848032G2    AISUAI  006400630015
BI00B32G2    SA22051 MW     202203307114-4486-02             TERMINAL                 CCN000120000000120000FN00000000020220501000120000NNMD0020220311163927    4P0P  00002400000000662400000956032G2    AISUAI  006400630015
BI00B32G2    SA22051 MW     202203307114-4728-02             TERMINAL                 CCN001710000001710000FN00000000020220501001710000NNMD0020220311163949    4P0P  00003000000000510000000804232G2    AISUAI  006400630015
BI00B32G2    SA22051 MW     202203307114-4729-02             TERMINAL                 CCN000780000000780000FN00000000020220501000780000NNMD0020220311164004    4P0P  00003000000000516000000810232G2    AISUAI  006400630015
BI00B32G2    SA22051 MW     202203307114-5096-02             TERMINAL                 CCN000240000000240000FN00000000020220501000240000NNMD0020220311164034    4P0P  00003000000000498000000792232G2    AISUAI  006400630015
BI00B32G2    SA22051 MW     202203307114-5746-02             TERMINAL                 CCN000315000000315000FN00000000020220501000315000NNM00020220311164046    4P0P  00002100000000695100000988732G2    AISUAI  006400630015
BI00B32G2    SA22051 MW     202203307114-5747-02             TERMINAL                 CCN000288000000288000FN00000000020220501000288000NNM00020220311164057    4P0P  00001800000000626400000920032G2    AISUAI  006400630015
BI00B32G2    SA22051 MW     202203307114-5753-02             TERMINAL                 CCN000189000000189000FN00000000020220501000189000NNMD0020220311164108    4P0P  00002700000000847800001141432G2    AISUAI  006400630015
BI00B32G2    SA22051 MW     202203307114-6041                TERMINAL                 CCN000028800000028800FN00000000020220501000028800NNM00020220311164118    4P0P  00000360000000580700000824232G2    AISUAI  006400630015
BI00B32G2    SA22051 MW     202203307116-1257-02             TERMINAL                 CCN000048000000048000FN00000000020220501000048000NNMD0020220311163856    1P0P  00002400000000518400000847132G2    AISUAI  006400630017
BI00B32G2    SA22051 MW     202203307116-1471                TERMINAL                 CCN000045000000045000FN00000000020220501000045000NNMD0020220311164144    4P0P  00001500000000579000000867232G2    AISUAI  006400630015
BI00B32G2    SA22051 MW     202203307116-1473                TERMINAL                 CCN000027000000027000FN00000000020220501000027000NNM00020220311164155    4P0P  00001350000000523800000809032G2    AISUAI  006400630015
BI00B32G2    SA22051 MW     202203307116-1486-02             TERMINAL                 CCN000016500000016500FN00000000020220501000016500NNM00020220311164217    4P0P  00001650000000655100000940332G2    AISUAI  006400630015
BI00B32G2    SA22051 MW     202203307116-1685                TERMINAL                 CCN000024000000024000FN00000000020220501000024000NNM00020220311164228    4P0P  00002400000000892800001067232G2    AISUAI  005100280028
BI00B32G2    SA22051 MW     202203307116-1685-02             TERMINAL                 CCN000168000000168000FN00000000020220501000168000NNM00020220311164239    4P0P  00002400000000897600001065232G2    AISUAI  005100280028
BI00B32G2    SA22051 MW     202203307116-1686                TERMINAL                 CCN000021000000021000FN00000000020220501000021000NNM00020220311164321    4P0P  00002100000000861000001045632G2    AISUAI  005100280028
BI00B32G2    SA22051 MW     202203307116-1686-02             TERMINAL                 CCN000021000000021000FN00000000020220501000021000NNM00020220311164252    4P0P  00002100000000869400001021632G2    AISUAI  005100280028
BI00B32G2    SA22051 MW     202203307116-1688-02             TERMINAL FEMALE          CCN000021000000021000FN00000000020220501000021000NNM00020220311164342    4P0P  00002100000000299600000898832G2    AISUAI  005100280028
BI00B32G2    SA22051 MW     202203307116-2640                TERMINAL                 CCN000054000000054000FN00000000020220501000054000NNM00020220311164358    4P0P  00001800000001018800001196632G2    AISUAI  005100280028
BI00B32G2    SA22051 MW     202203307116-2641                TERMINAL                 CCN000090000000090000FN00000000020220501000090000NNM00020220311164408    4P0P  00001800000001161000001344632G2    AISUAI  005100280028
BI00B32G2    SA22051 MW     202203307116-2870                TERMINAL                 CCN000024000000024000FN00000000020220501000024000NNM00020220311164422    1P0P  00001200000000783600001020232G2    AISUAI  005100280028
BI00B32G2    SA22051 MW     202203307116-2871                TERMINAL                 CCN000024000000024000FN00000000020220501000024000NNM00020220311164430    1P0P  00001200000000842400001072632G2    AISUAI  005100280028
BI00B32G2    SA22051 MW     202203307116-2891-02             TERMINAL                 CCN000225000000225000FN00000000020220501000225000NNM00020220311164442    4P0P  00001500000000982500001145932G2    AISUAI  005100280028
BI00B32G2    SA22051 MW     202203307116-2892-02             TERMINAL                 CCN000084000000084000FN00000000020220501000084000NNM00020220311164450    4P0P  00001200000000818400000981832G2    AISUAI  005100280028
BI00B32G2    SA22051 MW     202203307116-2893-02             TERMINAL                 CCN000240000000240000FN00000000020220501000240000NNM00020220311164502    4P0P  00001200000000895200001058632G2    AISUAI  005100280028
BI00B32G2    SA22051 MW     202203307116-4020                TERMINAL                 CCN000459000000459000FN00000000020220501000459000NNM00020220311164529    4P0P  00001350000000513000000798232G2    AISUAI  006400630015
BI00B32G2    SA22051 MW     202203307116-4022                TERMINAL                 CCN000013500000013500FN00000000020220501000013500NNM00020220311164541    4P0P  00001350000000618300000903532G2    AISUAI  006400630015
BI00B32G2    SA22051 MW     202203307116-4025                TERMINAL                 CCN000240000000240000FN00000000020220501000240000NNM00020220311164551    4P0P  00001600000000644800000975132G2    AISUAI  006400630017
BI00B32G2    SA22051 MW     202203307116-4026                TERMINAL                 CCN000064000000064000FN00000000020220501000064000NNM00020220311164601    4P0P  00001600000000664000000994332G2    AISUAI  006400630017
BI00B32G2    SA22051 MW     202203307116-4029-08             TERMINAL FEMALE          CCN000016000000016000FN00000000020220501000016000NNM00020220311164615    4P0P  00001600000000670400000999132G2    AISUAI  006400630017
BI00B32G2    SA22051 MW     202203307116-4031                TERMINAL                 CCN000045000000045000FN00000000020220501000045000NNM00020220311164624    4P0P  00000750000000619500000904732G2    AISUAI  006400630015
BI00B32G2    SA22051 MW     202203307116-4032                TERMINAL                 CCN000180000000180000FN00000000020220501000180000NNM00020220311164634    4P0P  00000600000000532800000818032G2    AISUAI  006400630015
BI00B32G2    SA22051 MW     202203307116-4037                TERMINAL                 CCN000126000000126000FN00000000020220501000126000NNM00020220311164644    4P0P  00000600000000600000000894232G2    AISUAI  006400630015
BI00B32G2    SA22051 MW     202203307116-4231-02             TERMINAL                 CCN000390000000390000FN00000000020220501000390000NNM00020220311164658    4P0P  00002600000000683800001012532G2    AISUAI  006400630017
BI00B32G2    SA22051 MW     202203307116-4415-02             TERMINAL                 CCN000038000000038000FN00000000020220501000038000NNM00020220311164721    4P0P  00003800000000596600000925732G2    AISUAI  006400630017
BI00B32G2    SA22051 MW     202203307116-4416-02             TERMINAL                 CCN000032000000032000FN00000000020220501000032000NNM00020220311164721    4P0P  00003200000000518400000847132G2    AISUAI  006400630017
BI00B32G2    SA22051 MW     202203307116-4486-02             TERMINAL                 CCN000420000000420000FN00000000020220501000420000NNM00020220311164728    4P0P  00002800000000666400000995132G2    AISUAI  006400630017
BI00B32G2    SA22051 MW     202203307116-5041-02             TERMINAL                 CCN001200000001200000FN00000000020220501001200000NNMD0020220311163938    4P0P  00001500000000583500000868732G2    AISUAI  006400630015
BI00B32G2    SA22051 MW     202203307116-5042-02             TERMINAL                 CCN000810000000810000FN00000000020220501000810000NNM00020220311164751    4P0P  00001350000000560300000845532G2    AISUAI  006400630015
BI00B32G2    SA22051 MW     202203307116-5043-02             TERMINAL FEMALE          CCN000180000000180000FN00000000020220501000180000NNM00020220311164758    4P0P  00001200000000559200000844432G2    AISUAI  006400630015
BI00B32G2    SA22051 MW     202203307116-5044-02             TERMINAL                 CCN000960000000960000FN00000000020220501000960000NNM00020220311164804    4P0P  00001600000000641600000986332G2    AISUAI  006400630017
BI00B32G2    SA22051 MW     202203307116-5045-02             TERMINAL                 CCN000480000000480000FN00000000020220501000480000NNM00020220311164811    4P0P  00001600000000678400001007132G2    AISUAI  006400630017
BI00B32G2    SA22051 MW     202203307116-5046-02             TERMINAL                 CCN000120000000120000FN00000000020220501000120000NNM00020220311164830    4P0P  00001200000000544800000873532G2    AISUAI  006400630017
BI00B32G2    SA22051 MW     202203307116-5097-02             TERMINAL                 CCN000067500000067500FN00000000020220501000067500NNM00020220311164835    4P0P  00002250000000531000000816232G2    AISUAI  006400630015
BI00B32G2    SA22051 MW     202203307116-5750-02             TERMINAL                 CCN000900000000900000FN00000000020220501000900000NNM00020220311164841    4P0P  00001500000000457500000742732G2    AISUAI  006400630015
BI00B32G2    SA22051 MW     202203307116-5751-02             TERMINAL                 CCN000240000000240000FN00000000020220501000240000NNM00020220311164847    4P0P  00001200000000379200000664432G2    AISUAI  006400630015
BI00B32G2    SA22051 MW     202203307116-5752-02             TERMINAL                 CCN000525000000525000FN00000000020220501000525000NNM00020220311164854    4P0P  00002100000000571200000856432G2    AISUAI  006400630015
BI00B32G2    SA22051 MW     202203307116-6041                TERMINAL                 CCN000045000000045000FN00000000020220501000045000NNM00020220311164906    4P0P  00000450000000716000001009632G2    AISUAI  006400630015
BI00B32G2    SA22051 MW     202203307116-6042                TERMINAL                 CCN000075000000075000FN00000000020220501000075000NNM00020220311164914    4P0P  00000300000000523800000856132G2    AISUAI  006400630015
BI00B32G2    SA22051 MW     202203307126-8850-02             TERMINAL                 CCN000036000000036000FN00000000020220501000036000NNM00020220311164927    1P0P  00000900000000672300000957532G2    AISUAI  006400630015
BI00B32G2    SA22051 MW     202203307126-8851-02             TERMINAL                 CCN000027000000027000FN00000000020220501000027000NNM00020220311164935    1P0P  00000900000000739800001025032G2    AISUAI  006400630015
BI00B32G2    SA22051 MW     202203307126-8852-02             TERMINAL                 CCN000030000000030000FN00000000020220501000030000NNM00020220311164940    1P0P  00000750000000648000000933232G2    AISUAI  006400630015
BI00B32G2    SA22051 MW     202203307126-8853-02             TERMINAL                 CCN000277500000277500FN00000000020220501000277500NNM00 20220311164947    4P0P  00000750000000562500000847732G2    AISUAI  006400630015
BI00B32G2    SA22051 MW     202203307126-8854-02             TERMINAL                 CCN000172500000172500FN00000000020220501000172500NNM00020220311165003    4P0P  00000750000000604500000889732G2    AISUAI  006400630015
BI00B32G2    SA22051 MW     202203307126-8855-02             TERMINAL                 CCN000090000000090000FN00000000020220501000090000NNM00020220311165011    4P0P  00000600000000510600000795832G2    AISUAI  006400630015
BI00B32G2    SA22051 MW     202203307196-0396-02             TERMINAL                 CCN000015000000015000FN00000000020220501000015000NNM00020220311165025    4P0P  00001500000000949500001112932G2    AISUAI  002800510028
BI00B32G2    SA22051HMW     202203307196-0805-02             TERMINAL FEMALE          CCN000022500000022500FN00000000020220501000022500NNM00020220311165040    4P0P  00002250000000558000000843232G2    AISUAI  006400630015
BI00B32G2    SA22051JMW     202203307114-4728-08             TERMINAL                 CCN000030000000030000FN00000000020220501000030000NNM00020220311165101    4P0P  00003000000000507000000801232G2    AISUAI  006400630015
BI00B32G2    SA22051JMW     202203307114-5096-08             TERMINAL                 CCN000030000000030000FN00000000020220501000030000NNM00020220311165142    4P0P  00003000000000498000000792232G2    AISUAI  006400630015
BI00B32G2    SA22051JMW     202203307116-3153-08             TERMINAL                 CCN000054000000054000FN00000000020220501000054000NNM00020220311165114    4P0P  00002700000000461700000746932G2    AISUAI  006400630015
BI00B32G2    SA22051JMW     202203307116-3154-08             TERMINAL                 CCN000027000000027000FN00000000020220501000027000NNM00020220311165153    4P0P  00002700000000475200000760432G2    AISUAI  006400630015
BI00B32G2    SA22051JMW     202203307116-5035-02             TERMINAL                 CCN000120000000120000FN00000000020220501000120000NNM00020220311165204    4P0P  00001500000000543000000828232G2    AISUAI  006400630015
BI00B32G2    SA22051JMW     202203307196-0510-02             TERMINAL                 CCN000120000000120000FN00000000020220501000120000NNM00 20220311165215    4P0P  00002400000000871200001034632G2    AISUAI  002800510028
BI00B32G2    SA22051JMW     202203307196-0511-02             TERMINAL                 CCN000024000000024000FN00000000020220501000024000NNM00020220311165227    4P0P  00002400000000916800001080232G2    AISUAI  002800510028
BI00B32G7    JJ22053 MW     202205057288-3331-30             HOUSING MALE             CCN000003000000003000FN00000000020220501000003000NNMD0420220311141040    4N0N  00000150000000866000001010932G7    JIJAI   005400370024
BI00B32G7    JJ22053 MW     202205057288-3340-30             HOUSING MALE             CCN000001500000001500FN00000000020220501000001500NNMD0420220311141059    4N0N  00000150000000861500001006432G7    JIJAI   005400370024
BI00B32G7    JJ2205A MW     202204077017-1183-02             TERMINAL                 CCN000027000000027000FN00000000020220501000027000NNE   20220311152923    4P0P  00002700000001139400001307432G7    JIJAI   005100280028
BI00B32G7    JJ2205A MW     202204077116-2641                TERMINAL                 CCN000018000000018000FN00000000020220501000018000NNE   20220311152923    4P0P  00001800000001161000001344632G7    JIJAI   005100280028
BI00B32G7    JJ2205A MW     202204077116-2891-02             TERMINAL                 CCN000075000000075000FN00000000020220501000075000NNE   20220311152923    4P0P  00001500000000982500001145932G7    JIJAI   005100280028
BI00B32G7    JJ2205A MW     202204077116-2892-02             TERMINAL                 CCN000048000000048000FN00000000020220501000048000NNE   20220311152923    4P0P  00001200000000818400000981832G7    JIJAI   005100280028
BI00B32G7    JJ2205A MW     202204077116-2893-02             TERMINAL                 CCN000072000000072000FN00000000020220501000072000NNE   20220311152923    4P0P  00001200000000895200001058632G7    JIJAI   005100280028
BI00B32G7    JJ2205A MW     202204077116-4025                TERMINAL                 CCN000016000000016000FN00000000020220501000016000NNE   20220311152923    4P0P  00001600000000644800000975132G7    JIJAI   006400630017
BI00B32G7    JJ2205A MW     202204077116-4026                TERMINAL                 CCN000016000000016000FN00000000020220501000016000NNE   20220311152923    4P0P  00001600000000664000000994332G7    JIJAI   006400630017
BI00B32G7    JJ2205A MW     202204077116-4032                TERMINAL                 CCN000006000000006000FN00000000020220501000006000NNE   20220311152923    4P0P  00000600000000532800000818032G7    JIJAI   006400630015
BI00B32G7    JJ2205A MW     202204077116-4416-02             TERMINAL                 CCN000096000000096000FN00000000020220501000096000NNE   20220311152923    4P0P  00003200000000518400000847132G7    JIJAI   006400630017
BI00B32G7    JJ2205A MW     202204077116-6041                TERMINAL                 CCN000040500000040500FN00000000020220501000040500NNE   20220311152923    4P0P  00000450000000716000001009632G7    JIJAI   006400630015
BI00B32G7    JJ2205A MW     202204077126-8853-02             TERMINAL                 CCN000090000000090000FN00000000020220501000090000NNE   20220311152923    4P0P  00000750000000562500000847732G7    JIJAI   006400630015
BI00B32G7    JJ2205A MW     202204077126-8854-02             TERMINAL                 CCN000045000000045000FN00000000020220501000045000NNE   20220311152923    4P0P  00000750000000604500000889732G7    JIJAI   006400630015
BI00B32G7    JJ2205A MW     202204077126-8855-02             TERMINAL                 CCN000114000000114000FN00000000020220501000114000NNE   20220311152923    4P0P  00000600000000510600000795832G7    JIJAI   006400630015
BI00B32G7    JJ2205A MW     202204077158-3006-90             RUBBER STOPPER           CCN000100000000100000FN00000000020220501000100000NNE   20220311152923    1C0C  00002000000000330600000386032G7    JIJAI   002700430014
BI00B32G7    JJ2205A MW     202204077158-3070-80             RUBBER STOPPER           CCN000040000000040000FN00000000020220501000040000NNE   20220311152923    1C0C  00004000000000276000000333332G7    JIJAI   002700430014
BI00B32G7    JJ2205A MW     202204077287-9234                JOINT CONNECTOR          CCN000006000000009600FN00000000020220501000009600NNE   20220311152923    4N0N  00000960000000893800001184832G7    JIJAI   005500360039
BI00B32G7    #JJ2205A MW    202204077158-3003-90             RUBBER STOPPER           CCN000060000000060000FN00000000020220501000060000NNE   20220311152921    2C0C  00002000000000250000000306032G7    JIJAI   002700430014
BI00B32G7    #JJ2205A MW    202204077158-3015-10             RUBBER STOPPER           CCN000010000000010000FN00000000020220501000010000NNE   20220311152921    2C0C  00001000000000419500000474032G7    JIJAI   002700430014
BI00B32G7    JJ2205AMMW     202204077196-1103-02             TERMINAL                 CCN000045000000045000FN00000000020220501000045000NNE   20220311153409    4P0P  00002250000000429800000715032G7    JIJAI   006400630015
BI00B32G7    JJ2205AMMW     202204077288-3332-30             HOUSING MALE             CCN000006000000006000FN00000000020220501000006000NNE   20220311153409    4N0N  00000150000000860700001005732G7    JIJAI   005400370024
BI00B32G7    JJ2205AMMW     202204077289-3342                HOUSING FEMALE ASS'Y     CCN000002400000002400FN00000000020220501000002400NNE   20220311153409    1N0N  00000240000000686400000901432G7    JIJAI   005500360039
BI00B32G7    JJ2205AMMW     202204077296-1020-02             TERMINAL ALUMINIUM       CCN000022500000022500FN00000000020220501000022500NNE   20220311153409    4P0P  00002250000000699800000985032G7    JIJAI   006400630015
BI00B32G7    JJ2205AMMW     202204077327-6731-3W             BATTERY FUSE             CCN000000704000000704FN00000000020220501000000704NNE   20220311153409    4N0N  00000006400000697600000843032G7    JIJAI   005400370024
BI00B32G7    #JJ2205AMMW    202204077172-5626-90             RUBBER STOPPER           CCN000020000000020000FN00000000020220501000020000NNE   20220311153407    2H0H  00002000000000076400000127832G7    JIJAI   004300270014
BI00B32G7    #JJ2205AMMW    202204077172-5629-80             RUBBER STOPPER           CCN000240000000240000FN00000000020220501000240000NNE   20220311153407    2H0H  00002000000000060000000111132G7    JIJAI   004300270014
BI00B32G7    #JJ2205AMMW    202204077172-5630-40             RUBBER STOPPER           CCN000020000000020000FN00000000020220501000020000NNE   20220311153407    2H0H  00002000000000044000000095132G7    JIJAI   004300270014
BI00B32G7    #JJ2205AMMW    202204077172-5632-10             DUMMY PLUG               CCN000040000000040000FN00000000020220501000040000NNE   20220311153407    2H0H  00002000000000080400000131832G7    JIJAI   004300270014
BI00B32H0    TT2205BVMW     202204057288-6547                CONNECTOR MALE ASS'Y     CCN000000750000000750FN00000000020220501000000750NNED0420220311163102    4N0N  00000075000001205300001340332H0    TTTJY   005400370024
BI00B32H2    TIJ2053        202205067283-4855                CONNECTOR HOUSING        CCN000007200000007200FN00000000020220501000007200NNMD0420220311140056    4N0N  00000240000001188400001400032H2    HVYHV   005500360039
BI00B32H2    TIJ2054        202205137283-4855                CONNECTOR HOUSING        CCN000007200000007200FN00000000020220501000007200NNMD0420220311140125    4N0N  00000240000001188400001400032H2    HVYHV   005500360039
BI00B32H2    TIJ2054        202205137289-3342                HOUSING FEMALE ASS'Y     CCN000014400000014400FN00000000020220501000014400NNMD0420220311142342    1N0N  00000240000000686400000901432H2    HVYHV   005500360039
BI00B32H2    #TIJ204G       202203257286-7860                HOUSING MALE ASS'Y       CCN000024000000024000FN00000000020220401000024000NNE   20220311154959    2N0N  00000080000000951700001139832H2    HVYHV   005400370024
BI00B32H2    #TIJ204H       202203257286-7860                HOUSING MALE ASS'Y       CCN000008000000008000FN00000000020220401000008000NNE   20220311155033    2N0N  00000080000000951700001139832H2    HVYHV   005400370024
BI00B32H2    TIJ204J        202204017288-3206                HOUSING MALE ASS'Y       CCN000001020000001020FN00000000020220401000001020NNE   20220311155049    1N0N  00000102000000387600000787632H2    HVYHV   005500360039
BI00B32H2    TIJ205A        202204087114-4021                TERMINAL                 CCN000045000000045000FN00000000020220501000045000NNE   20220311155111    4P0P  00001500000000670500000964132H2    HVYHV   006400630015
BI00B32H2    TIJ205A        202204087116-4032                TERMINAL                 CCN000018000000018000FN00000000020220501000018000NNE   20220311155111    4P0P  00000600000000532800000818032H2    HVYHV   006400630015
BI00B32H2    TIJ205A        202204087116-5042-02             TERMINAL                 CCN000054000000054000FN00000000020220501000054000NNE   20220311155111    4P0P  00001350000000560300000845532H2    HVYHV   006400630015
BI00B32H2    TIJ205A        202204087126-8853-02             TERMINAL                 CCN000015000000015000FN00000000020220501000015000NNE   20220311155111    4P0P  00000750000000562500000847732H2    HVYHV   006400630015
BI00B32H2    TIJ205A        202204087126-8854-02             TERMINAL                 CCN000015000000015000FN00000000020220501000015000NNE   20220311155111    4P0P  00000750000000604500000889732H2    HVYHV   006400630015
BI00B32H2    TIJ205A        202204087126-8855-02             TERMINAL                 CCN000006000000006000FN00000000020220501000006000NNE   20220311155111    4P0P  00000600000000510600000795832H2    HVYHV   006400630015
BI00B32H2    TIJ205A        202204087273-2982-0W             CASSETTE BRACKET         CCN000000600000000600FN00000000020220501000000600NNE   20220311155111    4N0N  00000060000000526000000726032H2    HVYHV   005500360039
BI00B32H2    TIJ205A        202204087282-9391                HOUSING MALE ASS'Y       CCN000004800000004800FN00000000020220501000004800NNE   20220311155111    4N0N  00000120000001017600001237632H2    HVYHV   005500360039
BI00B32H2    TIJ205A        202204087287-8073                HOUSING FEMALE ASS'Y     CCN000002400000002400FN00000000020220501000002400NNE   20220311155111    1N0N  00000240000001166400001386432H2    HVYHV   005500360039
BI00B32H2    TIJ205A        202204087388-2978-30             HOUSING MALE ASS'Y       CCN000000960000000960FN00000000020220501000000960NNE   20220311155111    1N0N  00000048000000742000001122032H2    HVYHV   005500360039
BI00B32H2    TIJ205A        202204087470-5304                J/B COMPLETE ASS'Y       CCN000000650000000650FN00000000020220501000000650NNE   20220311155111    4J0J  00000001000000494000000661032H2    HVYHV   005400370024
BI00B32H2    #TIJ205A       202204087182-2410                CONNECTOR HOUSING        CCN000006000000006000FN00000000020220501000006000NNE   20220311155105    2F0F  00000120000000959800001245632H2    HVYHV   005500360039
BI00B32H2    #TIJ205A       202204087183-2416                HOUSING                  CCN000002400000002400FN00000000020220501000002400NNE   20220311155105    2F0F  00000240000001495200001771032H2    HVYHV   005500360039
BI00B32H2    #TIJ205A       202204087189-3034-30             HOUSING FEMALE           CCN000003200000003200FN00000000020220501000003200NNE   20220311155105    2F0F  00000160000000972800001192832H2    HVYHV   005500360039
BI00B32H2    #TIJ205A       202204087282-1214                CONNECTOR                CCN000002000000002000FN00000000020220501000002000NNE   20220311155105    2N0N  00000100000000900000001030032H2    HVYHV   005500360039
BI00B32H2    #TIJ205A       202204087283-1095-30             HOUSING FEMALE ASS'Y     CCN000001000000001000FN00000000020220501000001000NNE   20220311155105    2N0N  00000100000000470000000652532H2    HVYHV   005400370024
BI00B32H2    TIJ205B        202204227114-4624-02             TERMINAL                 CCN000024000000024000FN00000000020220501000024000NNE   20220311155126    4P0P  00002400000000895200001188832H2    HVYHV   006400630015
BI00B32H2    TIJ205B        202204227116-2891-02             TERMINAL                 CCN000015000000015000FN00000000020220501000015000NNE   20220311155126    4P0P  00001500000000982500001145932H2    HVYHV   005100280028
BI00B32H2    TIJ205B        202204227116-2892-02             TERMINAL                 CCN000012000000012000FN00000000020220501000012000NNE   20220311155126    4P0P  00001200000000818400000981832H2    HVYHV   005100280028
BI00B32H2    TIJ205B        202204227116-2893-02             TERMINAL                 CCN000012000000012000FN00000000020220501000012000NNE   20220311155126    4P0P  00001200000000895200001058632H2    HVYHV   005100280028
BI00B32H2    TIJ205B        202204227116-4037                TERMINAL                 CCN000006000000006000FN00000000020220501000006000NNE   20220311155126    4P0P  00000600000000600000000894232H2    HVYHV   006400630015
BI00B32H2    TIJ205B        202204227116-4231-02             TERMINAL                 CCN000026000000026000FN00000000020220501000026000NNE   20220311155126    4P0P  00002600000000683800001012532H2    HVYHV   006400630017
BI00B32H2    TIJ205B        202204227116-6041                TERMINAL                 CCN000004500000004500FN00000000020220501000004500NNE   20220311155126    4P0P  00000450000000716000001009632H2    HVYHV   006400630015
BI00B32H2    TIJ205B        202204227126-8853-02             TERMINAL                 CCN000015000000015000FN00000000020220501000015000NNE   20220311155126    4P0P  00000750000000562500000847732H2    HVYHV   006400630015
BI00B32H2    TIJ205B        202204227126-8854-02             TERMINAL                 CCN000007500000007500FN00000000020220501000007500NNE   20220311155126    4P0P  00000750000000604500000889732H2    HVYHV   006400630015
BI00B32H2    TIJ205B        202204227283-4576-30             HOUSING FEMALE ASS'Y     CCN000004800000004800FN00000000020220501000004800NNE   20220311155126    4N0N  00000480000000651300000871332H2    HVYHV   005500360039
BI00B32H2    TIJ205B        202204227283-4854                CONNECTOR HOUSING        CCN000002400000002400FN00000000020220501000002400NNE   20220311155126    4N0N  00000240000000694100000914132H2    HVYHV   005500360039
BI00B32H2    TIJ205B        202204227287-1915                CONNECTOR ASS'Y          CCN000002400000002400FN00000000020220501000002400NNE   20220311155126    4N0N  00000240000000666500000923132H2    HVYHV   005500360039
BI00B32H2    TIJ205B        202204227287-1917-40             CONNECTOR FEMALE         CCN000002400000002400FN00000000020220501000002400NNE   20220311155126    4N0N  00000240000001060800001312532H2    HVYHV   005500360039
BI00B32H2    TIJ205B        202204227287-7598-30             HOUSING FEMALE ASS'Y     CCN000001000000001000FN00000000020220501000001000NNE   20220311155126    4N0N  00000100000000508000000620532H2    HVYHV   005400370024
BI00B32H2    TIJ205B        202204227287-9000                HOUSING FEMALE ASS'Y     CCN000004800000004800FN00000000020220501000004800NNE   20220311155126    1N0N  00000480000001228800001448832H2    HVYHV   005500360039
BI00B32H2    TIJ205B        202204227288-3206                HOUSING MALE ASS'Y       CCN000001020000001020FN00000000020220501000001020NNE   20220311155126    1N0N  00000102000000387600000787632H2    HVYHV   005500360039
BI00B32H2    TIJ205B        202204227470-5304                J/B COMPLETE ASS'Y       CCN000000200000000200FN00000000020220501000000200NNE   20220311155126    4J0J  00000001000000494000000661032H2    HVYHV   005400370024
BI00B32H2    #TIJ205B       202204227182-2410                CONNECTOR HOUSING        CCN000002400000002400FN00000000020220501000002400NNE   20220311155121    2F0F  00000120000000959800001245632H2    HVYHV   005500360039
BI00B32H2    #TIJ205B       202204227189-2978-30             HOUSING FEMALE           CCN000001500000001500FN00000000020220501000001500NNE   20220311155121    2F0F  00000150000000966900001096932H2    HVYHV   005400370024
BI00B32H2    #TIJ205B       202204227189-3032                HOUSING FEMALE           CCN000001600000001600FN00000000020220501000001600NNE   20220311155121    2F0F  00000160000000788400001018432H2    HVYHV   005500360039
BI00B32H2    #TIJ205B       202204227189-3034-30             HOUSING FEMALE           CCN000001600000001600FN00000000020220501000001600NNE   20220311155121    2F0F  00000160000000972800001192832H2    HVYHV   005500360039
BI00B32H2    TIJ205C        202204297116-6041                TERMINAL                 CCN000004500000004500FN00000000020220501000004500NNE   20220311155142    4P0P  00000450000000716000001009632H2    HVYHV   006400630015
BI00B32H2    TIJ205C        202204297158-3165-90             WIRE SEAL                CCN000040000000040000FN00000000020220501000040000NNE   20220311155142    1C0C  00004000000000124000000172432H2    HVYHV   004300270014
BI00B32H2    TIJ205C        202204297196-1466-02             TERMINAL MALE            CCN000085500000085500FN00000000020220501000085500NNE   20220311155142    4P0P  00002850000000427500000712732H2    HVYHV   006400630015
BI00B32H2    TIJ205C        202204297282-4578-30             HOUSING MALE ASS'Y       CCN000002400000002400FN00000000020220501000002400NNE   20220311155142    4N0N  00000120000000782600000992632H2    HVYHV   005500360039
BI00B32H2    TIJ205C        202204297282-9391                HOUSING MALE ASS'Y       CCN000001200000001200FN00000000020220501000001200NNE   20220311155142    4N0N  00000120000001017600001237632H2    HVYHV   005500360039
BI00B32H2    TIJ205C        202204297283-4576-30             HOUSING FEMALE ASS'Y     CCN000009600000009600FN00000000020220501000009600NNE   20220311155142    4N0N  00000480000000651300000871332H2    HVYHV   005500360039
BI00B32H2    TIJ205C        202204297286-1900                CONNECTOR HOUSING        CCN000009600000009600FN00000000020220501000009600NNE   20220311155142    4N0N  00000480000001161600001376632H2    HVYHV   005500360039
BI00B32H2    TIJ205C        202204297288-3206                HOUSING MALE ASS'Y       CCN000001020000001020FN00000000020220501000001020NNE   20220311155142    1N0N  00000102000000387600000787632H2    HVYHV   005500360039
BI00B32H2    TIJ205C        202204297298-2278-30             HOUSING FEMALE ASS'Y     CCN000004800000004800FN00000000020220501000004800NNE   20220311155142    4N0N  00000240000001091700001295432H2    HVYHV   005500360039
BI00B32H2    TIJ205C        202204297470-5654                J/B COMPLETE ASS'Y       CCN000000040000000040FN00000000020220501000000040NNE   20220311155142    4J0J  00000001000000494000000661032H2    HVYHV   005400370024
BI00B32H2    #TIJ205C       202204297182-2410                CONNECTOR HOUSING        CCN000002400000002400FN00000000020220501000002400NNE   20220311155136    2F0F  00000120000000959800001245632H2    HVYHV   005500360039
BI00B32H2    #TIJ205C       202204297183-2416-30             HOUSING                  CCN000002400000002400FN00000000020220501000002400NNE   20220311155136    2F0F  00000240000001495200001770032H2    HVYHV   005500360039
BI00B32H2    #TIJ205C       202204297189-3036                HOUSING FEMALE           CCN000003200000003200FN00000000020220501000003200NNE   20220311155136    2F0F  00000160000000921600001141632H2    HVYHV   005500360039
BI00B32H2    #TIJ205C       202204297287-7860                HYBRID FEMALE ASS'Y      CCN000004800000004800FN00000000020220501000004800NNE   20220311155136    2N0N  00000120000000644000000650432H2    HVYHV   005500360039
BI00B32H2    #TIJ205C       202204297287-7860-70             HYBRID FEMALE ASS'Y      CCN000001200000001200FN00000000020220501000001200NNE   20220311155136    2N0N  00000120000000464400000650432H2    HVYHV   005500360039
BI00B32H2    TIJ205D        202205067116-4231-02             TERMINAL                 CCN000026000000026000FN00000000020220501000026000NNE   20220311155156    4P0P  00002600000000683800001012532H2    HVYHV   006400630017
BI00B32H2    TIJ205D        202205067126-8853-02             TERMINAL                 CCN000007500000007500FN00000000020220501000007500NNE   20220311155156    4P0P  00000750000000562500000847732H2    HVYHV   006400630015
BI00B32H2    TIJ205D        202205067126-8854-02             TERMINAL                 CCN000007500000007500FN00000000020220501000007500NNE   20220311155156    4P0P  00000750000000604500000889732H2    HVYHV   006400630015
BI00B32H2    TIJ205D        202205067196-1940-02             TERMINAL FEMALE          CCN000013500000013500FN00000000020220501000013500NNE   20220311155156    4P0P  00001350000000529200000817432H2    HVYHV   006400630015
BI00B32H2    TIJ205D        202205067283-4577-30             CONNECTOR HOUSING        CCN000009600000009600FN00000000020220501000009600NNE   20220311155156    4N0N  00000480000000916800001136832H2    HVYHV   005500360039
BI00B32H2    TIJ205D        202205067286-1900                CONNECTOR HOUSING        CCN000004800000004800FN00000000020220501000004800NNE   20220311155156    4N0N  00000480000001161600001376632H2    HVYHV   005500360039
BI00B32H2    TIJ205D        202205067287-1915                CONNECTOR ASS'Y          CCN000002400000002400FN00000000020220501000002400NNE   20220311155156    4N0N  00000240000000666500000923132H2    HVYHV   005500360039
BI00B32H2    TIJ205D        202205067287-9323-40             UNSEALED HOUSING SUB     CCN000002400000002400FN00000000020220501000002400NNE   20220311155156    1N0N  00000240000000537600000690032H2    HVYHV   005600390023
BI00B32H2    TIJ205D        202205067289-3342-90             HOUSING FEMALE ASS'Y     CCN000009600000009600FN00000000020220501000009600NNE   20220311155156    1N0N  00000240000000686400000901432H2    HVYHV   005500360039
BI00B32H2    TIJ205D        202205067298-1869-30             HOUSING FEMALE ASS'Y     CCN000001200000001200FN00000000020220501000001200NNE   20220311155156    4N0N  00000120000000737000000939832H2    HVYHV   005500360039
BI00B32H2    TIJ205D        202205067298-2509-30             HOUSING FEMALE ASS'Y     CCN000001200000001200FN00000000020220501000001200NNE   20220311155156    4N0N  00000120000000857500001062532H2    HVYHV   005500360039
BI00B32H2    #TIJ205D       202205067287-7859                HYBRID FEMALE ASS'Y      CCN000001200000001200FN00000000020220501000001200NNE   20220311155151    2N0N  00000120000000461600000671632H2    HVYHV   005500360039
BI00B32H2    #TIJ205D       202205067287-7860                HYBRID FEMALE ASS'Y      CCN000004800000004800FN00000000020220501000004800NNE   20220311155151    2N0N  00000120000000644000000650432H2    HVYHV   005500360039
BI00B32J1    392171         202203217196-1461-02             TERMINAL FEMALE          CCN000912000000912000FN00000000020220301000912000NNMD0020220311121600    4P0P  00002400000000386400000671632J1    UKYEL-BL006400630015
BI00B32J1    392353         202203287327-6654-3W             BATTERY FUSE             CCN000002880000002880FN00000000020220301000002880NNE   20220311121600    4N0N  00000009600001132300001312432J1    UKYEL-BL005500360039
BI00A32J1    392368         202203217116-4020                TERMINAL                 CCN000081000000081000FN00000000020220301000081000NNED0720220311132923    4P0P  00001350000000513000000798232J1    UKYEL-BL006400630015
BI00B32J1    #392393        202204257158-3008-80             RUBBER STOPPER           CCN000020000000020000FN00000000020220401000020000NNE   20220311121600    2C0C  00002000000000288000000343032J1    UKYEL-BL004300270014
BI00B32J1    #392393        202204257158-3120-90             CONNECTOR WIRE SEAL      CCN000020000000020000FN00000000020220401000020000NNE   20220311121600    2C0C  00002000000000136000000194032J1    UKYEL-BL002700430014
BI00B32J1    #392393        202204257158-3374-90             CONNECTOR WIRE SEAL      CCN000020000000020000FN00000000020220401000020000NNE   20220311121600    2H0H  00002000000000172000000229332J1    UKYEL-BL002700430014
BI00B32J1    #392393        202204257158-3376-50             CONNECTOR WIRE SEAL      CCN000020000000020000FN00000000020220401000020000NNE   20220311121600    2C0C  00002000000000184000000240732J1    UKYEL-BL002700430014
