BI00B32B6    W72028         202206091801W003930              IVSSH 0.5F B             CCN000019800000019800FN00000000020220901000019800NNE   20220423160704B6  1W    00000180000000625000000000032B6    AXARNE-M000000000000AW425009
BI00B32B6    W72028         202206091801W003943              IVSSH 0.5F W/B           CCN000001800000001800FN00000000020220901000001800NNE   20220423160704B6  1W    00000180000000625000000000032B6    AXARNE-M000000000000AW425018
BI00B32B6    W72028         202206091801W003950              IVSSH 0.5F R             CCN000012600000012600FN00000000020220901000012600NNE   20220423160704B6  1W    00000180000000625000000000032B6    AXARNE-M000000000000AW425016
BI00B32B6    W72028         202206091801W003952              IVSSH 0.5F P             CCN000012600000012600FN00000000020220901000012600NNE   20220423160704B6  1W    00000180000000625000000000032B6    AXARNE-M000000000000AW425015
BI00B32B6    W72028         202206091801W00395U              IVSSH 0.5F BE            CCN000019800000019800FN00000000020220901000019800NNE   20220423160704B6  1W    00000180000000625000000000032B6    AXARNE-M000000000000AW425010
BI00B32B6    W72028         202206091801W003960              IVSSH 0.5F G             CCN000016200000016200FN00000000020220901000016200NNE   20220423160704B6  1W    00000180000000625000000000032B6    AXARNE-M000000000000AW425012
BI00B32B6    W72028         202206091801W003961              IVSSH 0.5F LG            CCN000012600000012600FN00000000020220901000012600NNE   20220423160704B6  1W    00000180000000625000000000032B6    AXARNE-M000000000000AW425014
BI00B32B6    W72028         202206091801W003980              IVSSH 0.5F BR            CCN000009000000009000FN00000000020220901000009000NNE   20220423160704B6  1W    00000180000000625000000000032B6    AXARNE-M000000000000AW425011
BI00B32B6    W72028         202206091801W003990              IVSSH 0.5F L             CCN000009000000009000FN00000000020220901000009000NNE   20220423160704B6  1W    00000180000000625000000000032B6    AXARNE-M000000000000AW425013
BI00B32B6    W72028         202206091801W003991              IVSSH 0.5F SB            CCN000016200000016200FN00000000020220901000016200NNE   20220423160704B6  1W    00000180000000625000000000032B6    AXARNE-M000000000000AW425017
BI00B32B6    @W72028        20220609181B09039H7              CAVSAS 0.5X1 GY/W        CCN000001600000001600FN00000000020220901000001600NNE   20220423160703B6  1W    00000040000002263300000000032B6    AXARNE-M000000000000AW425008
BI00B32CH    @SJ2206ADMW    20220512181B32037Z5              AVSSCS 0.3FX1 DGY/L      CCN000000500000000500FN00000000020220601000000500NNE   20220423180126    1W    00000050000001780000000000032CH    SJSAMIJF000000000000QV424001
BI00B32CJ    TTQ206A        2022051318000004530              AV 8 B                   CCN000000400000000400FN00000000020220601000000400NNE   20220423113055    1W    00000010000010466200000000032CJ    QNYHVQN 000000000000UN424001
BI00B32CJ    TTQ206B        2022051318000004550              AV 8 R                   CCN000002500000002500FN00000000020220601000002500NNE   20220423113057    1W    00000010000010466200000000032CJ    QNYHVQN 000000000000UO424001
BI00B32CJ    TTQ2071        2022061018000004530              AV 8 B                   CCN000002600000002600FN00000000020220701000002600NNM   20220423132945    1W    00000010000010466200000000032CJ    QNYHVQN 000000000000UQ425017
BI00B32CJ    TTQ2072        2022061718000004530              AV 8 B                   CCN000001900000001900FN00000000020220701000001900NNM   20220423132945    1W    00000010000010466200000000032CJ    QNYHVQN 000000000000UQ126026
BI00B32CJ    TTQ2073        2022062418000004530              AV 8 B                   CCN000002400000002400FN00000000020220701000002400NNM   20220423132945    1W    00000010000010466200000000032CJ    QNYHVQN 000000000000UQ226042
BI00B32CJ    TTQ2074        2022070118000004530              AV 8 B                   CCN000001700000001700FN00000000020220701000001700NNM   20220423132945    1W    00000010000010466200000000032CJ    QNYHVQN 000000000000UQ326048
BI00B32CJ    TTQ2075        2022070818000004530              AV 8 B                   CCN000002500000002500FN00000000020220701000002500NNM   20220423132945    1W    00000010000010466200000000032CJ    QNYHVQN 000000000000UQ426048
BI00B32CJ    TTQ2071        2022061018000004550              AV 8 R                   CCN000002200000002200FN00000000020220701000002200NNM   20220423132945    1W    00000010000010466200000000032CJ    QNYHVQN 000000000000UQ425018
BI00B32CJ    TTQ2072        2022061718000004550              AV 8 R                   CCN000002000000002000FN00000000020220701000002000NNM   20220423132945    1W    00000010000010466200000000032CJ    QNYHVQN 000000000000UQ126027
BI00B32CJ    TTQ2073        2022062418000004550              AV 8 R                   CCN000001800000001800FN00000000020220701000001800NNM   20220423132945    1W    00000010000010466200000000032CJ    QNYHVQN 000000000000UQ226043
BI00B32CJ    TTQ2074        2022070118000004550              AV 8 R                   CCN000001600000001600FN00000000020220701000001600NNM   20220423132945    1W    00000010000010466200000000032CJ    QNYHVQN 000000000000UQ326049
BI00B32CJ    TTQ2075        2022070818000004550              AV 8 R                   CCN000002200000002200FN00000000020220701000002200NNM   20220423132945    1W    00000010000010466200000000032CJ    QNYHVQN 000000000000UQ426049
BI00B32CJ    TTQ2072        2022061718007704130              AVSS 1.25F B             CCN000000800000000800FN00000000020220701000000800NNM   20220423132945    1W    00000080000001389000000000032CJ    QNYHVQN 000000000000UQ126028
BI00B32CJ    TTQ2073        2022062418007704130              AVSS 1.25F B             CCN000000800000000800FN00000000020220701000000800NNM   20220423132945    1W    00000080000001389000000000032CJ    QNYHVQN 000000000000UQ226044
BI00B32CJ    TTQ2074        2022070118007704130              AVSS 1.25F B             CCN000000800000000800FN00000000020220701000000800NNM   20220423132945    1W    00000080000001389000000000032CJ    QNYHVQN 000000000000UQ326050
BI00B32CJ    TTQ2075        2022070818007704130              AVSS 1.25F B             CCN000000800000000800FN00000000020220701000000800NNM   20220423132945    1W    00000080000001389000000000032CJ    QNYHVQN 000000000000UQ426050
BI00B32CJ    TTQ2073        20220624180D0203730              AVSSH 0.3F B             CCN000004000000004000FN00000000020220701000004000NNM   20220423132945    1W    00000200000000515000000000032CJ    QNYHVQN 000000000000UQ226032
BI00B32CJ    TTQ2074        20220701180D0203730              AVSSH 0.3F B             CCN000004000000004000FN00000000020220701000004000NNM   20220423132945    1W    00000200000000515000000000032CJ    QNYHVQN 000000000000UQ326038
BI00B32CJ    TTQ2075        20220708180D0203730              AVSSH 0.3F B             CCN000004000000004000FN00000000020220701000004000NNM   20220423132945    1W    00000200000000515000000000032CJ    QNYHVQN 000000000000UQ426038
BI00B32CJ    TTQ2071        20220610180D0203780              AVSSH 0.3F BR            CCN000018000000018000FN00000000020220701000018000NNM   20220423132945    1W    00000200000000515000000000032CJ    QNYHVQN 000000000000UQ425016
BI00B32CJ    TTQ2072        20220617180D0203780              AVSSH 0.3F BR            CCN000026000000026000FN00000000020220701000026000NNM   20220423132945    1W    00000200000000515000000000032CJ    QNYHVQN 000000000000UQ126021
BI00B32CJ    TTQ2073        20220624180D0203780              AVSSH 0.3F BR            CCN000034000000034000FN00000000020220701000034000NNM   20220423132945    1W    00000200000000515000000000032CJ    QNYHVQN 000000000000UQ226033
BI00B32CJ    TTQ2074        20220701180D0203780              AVSSH 0.3F BR            CCN000026000000026000FN00000000020220701000026000NNM   20220423132945    1W    00000200000000515000000000032CJ    QNYHVQN 000000000000UQ326039
BI00B32CJ    TTQ2075        20220708180D0203780              AVSSH 0.3F BR            CCN000030000000030000FN00000000020220701000030000NNM   20220423132945    1W    00000200000000515000000000032CJ    QNYHVQN 000000000000UQ426039
BI00B32CJ    TTQ2073        20220624180D0203760              AVSSH 0.3F G             CCN000020000000020000FN00000000020220701000020000NNM   20220423132945    1W    00000200000000515000000000032CJ    QNYHVQN 000000000000UQ226034
BI00B32CJ    TTQ2074        20220701180D0203760              AVSSH 0.3F G             CCN000016000000016000FN00000000020220701000016000NNM   20220423132945    1W    00000200000000515000000000032CJ    QNYHVQN 000000000000UQ326040
BI00B32CJ    TTQ2075        20220708180D0203760              AVSSH 0.3F G             CCN000018000000018000FN00000000020220701000018000NNM   20220423132945    1W    00000200000000515000000000032CJ    QNYHVQN 000000000000UQ426040
BI00B32CJ    TTQ2072        20220617180D0203741              AVSSH 0.3F GY            CCN000004000000004000FN00000000020220701000004000NNM   20220423132945    1W    00000200000000515000000000032CJ    QNYHVQN 000000000000UQ126022
BI00B32CJ    TTQ2073        20220624180D0203741              AVSSH 0.3F GY            CCN000006000000006000FN00000000020220701000006000NNM   20220423132945    1W    00000200000000515000000000032CJ    QNYHVQN 000000000000UQ226035
BI00B32CJ    TTQ2074        20220701180D0203741              AVSSH 0.3F GY            CCN000006000000006000FN00000000020220701000006000NNM   20220423132945    1W    00000200000000515000000000032CJ    QNYHVQN 000000000000UQ326041
BI00B32CJ    TTQ2075        20220708180D0203741              AVSSH 0.3F GY            CCN000006000000006000FN00000000020220701000006000NNM   20220423132945    1W    00000200000000515000000000032CJ    QNYHVQN 000000000000UQ426041
BI00B32CJ    TTQ2073        20220624180D0203790              AVSSH 0.3F L             CCN000026000000026000FN00000000020220701000026000NNM   20220423132945    1W    00000200000000515000000000032CJ    QNYHVQN 000000000000UQ226036
BI00B32CJ    TTQ2074        20220701180D0203790              AVSSH 0.3F L             CCN000020000000020000FN00000000020220701000020000NNM   20220423132945    1W    00000200000000515000000000032CJ    QNYHVQN 000000000000UQ326042
BI00B32CJ    TTQ2075        20220708180D0203790              AVSSH 0.3F L             CCN000024000000024000FN00000000020220701000024000NNM   20220423132945    1W    00000200000000515000000000032CJ    QNYHVQN 000000000000UQ426042
BI00B32CJ    TTQ2072        20220617180D0203740              AVSSH 0.3F W             CCN000002000000002000FN00000000020220701000002000NNM   20220423132945    1W    00000200000000515000000000032CJ    QNYHVQN 000000000000UQ126023
BI00B32CJ    TTQ2073        20220624180D0203740              AVSSH 0.3F W             CCN000006000000006000FN00000000020220701000006000NNM   20220423132945    1W    00000200000000515000000000032CJ    QNYHVQN 000000000000UQ226037
BI00B32CJ    TTQ2074        20220701180D0203740              AVSSH 0.3F W             CCN000002000000002000FN00000000020220701000002000NNM   20220423132945    1W    00000200000000515000000000032CJ    QNYHVQN 000000000000UQ326043
BI00B32CJ    TTQ2075        20220708180D0203740              AVSSH 0.3F W             CCN000004000000004000FN00000000020220701000004000NNM   20220423132945    1W    00000200000000515000000000032CJ    QNYHVQN 000000000000UQ426043
BI00B32CJ    TTQ2073        20220624180D0203980              AVSSH 0.5F BR            CCN000010500000010500FN00000000020220701000010500NNM   20220423132945    1W    00000150000000689000000000032CJ    QNYHVQN 000000000000UQ226038
BI00B32CJ    TTQ2074        20220701180D0203980              AVSSH 0.5F BR            CCN000009000000009000FN00000000020220701000009000NNM   20220423132945    1W    00000150000000689000000000032CJ    QNYHVQN 000000000000UQ326044
BI00B32CJ    TTQ2075        20220708180D0203980              AVSSH 0.5F BR            CCN000010500000010500FN00000000020220701000010500NNM   20220423132945    1W    00000150000000689000000000032CJ    QNYHVQN 000000000000UQ426044
BI00B32CJ    TTQ2073        20220624180D0204040              AVSSH 0.75F W            CCN000015000000015000FN00000000020220701000015000NNM   20220423132945    1W    00000100000000934000000000032CJ    QNYHVQN 000000000000UQ226039
BI00B32CJ    TTQ2074        20220701180D0204040              AVSSH 0.75F W            CCN000012000000012000FN00000000020220701000012000NNM   20220423132945    1W    00000100000000934000000000032CJ    QNYHVQN 000000000000UQ326045
BI00B32CJ    TTQ2075        20220708180D0204040              AVSSH 0.75F W            CCN000014000000014000FN00000000020220701000014000NNM   20220423132945    1W    00000100000000934000000000032CJ    QNYHVQN 000000000000UQ426045
BI00B32CJ    TTQ2072        20220617180D0204130              AVSSH 1.25F B            CCN000033600000033600FN00000000020220701000033600NNM   20220423132945    1W    00000080000001458000000000032CJ    QNYHVQN 000000000000UQ126024
BI00B32CJ    TTQ2073        20220624180D0204130              AVSSH 1.25F B            CCN000074400000074400FN00000000020220701000074400NNM   20220423132945    1W    00000080000001458000000000032CJ    QNYHVQN 000000000000UQ226040
BI00B32CJ    TTQ2074        20220701180D0204130              AVSSH 1.25F B            CCN000058400000058400FN00000000020220701000058400NNM   20220423132945    1W    00000080000001458000000000032CJ    QNYHVQN 000000000000UQ326046
BI00B32CJ    TTQ2075        20220708180D0204130              AVSSH 1.25F B            CCN000068000000068000FN00000000020220701000068000NNM   20220423132945    1W    00000080000001458000000000032CJ    QNYHVQN 000000000000UQ426046
BI00B32CJ    TTQ2072        20220617180D0204180              AVSSH 1.25F BR           CCN000008000000008000FN00000000020220701000008000NNM   20220423132945    1W    00000080000001458000000000032CJ    QNYHVQN 000000000000UQ126025
BI00B32CJ    TTQ2073        20220624180D0204180              AVSSH 1.25F BR           CCN000012000000012000FN00000000020220701000012000NNM   20220423132945    1W    00000080000001458000000000032CJ    QNYHVQN 000000000000UQ226041
BI00B32CJ    TTQ2074        20220701180D0204180              AVSSH 1.25F BR           CCN000010400000010400FN00000000020220701000010400NNM   20220423132945    1W    00000080000001458000000000032CJ    QNYHVQN 000000000000UQ326047
BI00B32CJ    TTQ2075        20220708180D0204180              AVSSH 1.25F BR           CCN000010400000010400FN00000000020220701000010400NNM   20220423132945    1W    00000080000001458000000000032CJ    QNYHVQN 000000000000UQ426047
BI00B32CJ    TTQ2072        202206171801W006980              IVSSH 0.35F BR           CCN000005000000005000FN00000000020220701000005000NNM   20220423132945    1W    00000250000000452000000000032CJ    QNYHVQN 000000000000UQ126031
BI00B32CJ    TTQ2073        202206241801W006980              IVSSH 0.35F BR           CCN000010000000010000FN00000000020220701000010000NNM   20220423132945    1W    00000250000000452000000000032CJ    QNYHVQN 000000000000UQ226049
BI00B32CJ    TTQ2074        202207011801W006980              IVSSH 0.35F BR           CCN000010000000010000FN00000000020220701000010000NNM   20220423132945    1W    00000250000000452000000000032CJ    QNYHVQN 000000000000UQ326055
BI00B32CJ    TTQ2075        202207081801W006980              IVSSH 0.35F BR           CCN000010000000010000FN00000000020220701000010000NNM   20220423132945    1W    00000250000000452000000000032CJ    QNYHVQN 000000000000UQ426055
BI00B32CJ    TTQ2072        202206171801W006961              IVSSH 0.35F LG           CCN000010000000010000FN00000000020220701000010000NNM   20220423132945    1W    00000250000000452000000000032CJ    QNYHVQN 000000000000UQ126032
BI00B32CJ    TTQ2073        202206241801W006961              IVSSH 0.35F LG           CCN000030000000030000FN00000000020220701000030000NNM   20220423132945    1W    00000250000000452000000000032CJ    QNYHVQN 000000000000UQ226050
BI00B32CJ    TTQ2074        202207011801W006961              IVSSH 0.35F LG           CCN000020000000020000FN00000000020220701000020000NNM   20220423132945    1W    00000250000000452000000000032CJ    QNYHVQN 000000000000UQ326056
BI00B32CJ    TTQ2075        202207081801W006961              IVSSH 0.35F LG           CCN000020000000020000FN00000000020220701000020000NNM   20220423132945    1W    00000250000000452000000000032CJ    QNYHVQN 000000000000UQ426056
BI00B32CJ    TTQ2072        202206171801W006950              IVSSH 0.35F R            CCN000005000000005000FN00000000020220701000005000NNM   20220423132945    1W    00000250000000452000000000032CJ    QNYHVQN 000000000000UQ126033
BI00B32CJ    TTQ2073        202206241801W006950              IVSSH 0.35F R            CCN000005000000005000FN00000000020220701000005000NNM   20220423132945    1W    00000250000000452000000000032CJ    QNYHVQN 000000000000UQ226051
BI00B32CJ    TTQ2074        202207011801W006950              IVSSH 0.35F R            CCN000005000000005000FN00000000020220701000005000NNM   20220423132945    1W    00000250000000452000000000032CJ    QNYHVQN 000000000000UQ326057
BI00B32CJ    TTQ2075        202207081801W006950              IVSSH 0.35F R            CCN000005000000005000FN00000000020220701000005000NNM   20220423132945    1W    00000250000000452000000000032CJ    QNYHVQN 000000000000UQ426057
BI00B32CJ    TTQ2072        202206171801W006940              IVSSH 0.35F W            CCN000002500000002500FN00000000020220701000002500NNM   20220423132945    1W    00000250000000452000000000032CJ    QNYHVQN 000000000000UQ126034
BI00B32CJ    TTQ2073        202206241801W006940              IVSSH 0.35F W            CCN000010000000010000FN00000000020220701000010000NNM   20220423132945    1W    00000250000000452000000000032CJ    QNYHVQN 000000000000UQ226052
BI00B32CJ    TTQ2074        202207011801W006940              IVSSH 0.35F W            CCN000005000000005000FN00000000020220701000005000NNM   20220423132945    1W    00000250000000452000000000032CJ    QNYHVQN 000000000000UQ326058
BI00B32CJ    TTQ2075        202207081801W006940              IVSSH 0.35F W            CCN000010000000010000FN00000000020220701000010000NNM   20220423132945    1W    00000250000000452000000000032CJ    QNYHVQN 000000000000UQ426058
BI00B32CJ    TTQ2072        202206171801W003980              IVSSH 0.5F BR            CCN000001800000001800FN00000000020220701000001800NNM   20220423132945    1W    00000180000000625000000000032CJ    QNYHVQN 000000000000UQ126029
BI00B32CJ    TTQ2073        202206241801W003980              IVSSH 0.5F BR            CCN000005400000005400FN00000000020220701000005400NNM   20220423132945    1W    00000180000000625000000000032CJ    QNYHVQN 000000000000UQ226045
BI00B32CJ    TTQ2074        202207011801W003980              IVSSH 0.5F BR            CCN000005400000005400FN00000000020220701000005400NNM   20220423132945    1W    00000180000000625000000000032CJ    QNYHVQN 000000000000UQ326051
BI00B32CJ    TTQ2075        202207081801W003980              IVSSH 0.5F BR            CCN000005400000005400FN00000000020220701000005400NNM   20220423132945    1W    00000180000000625000000000032CJ    QNYHVQN 000000000000UQ426051
BI00B32CJ    TTQ2073        202206241801W004030              IVSSH 0.75F B            CCN000026000000026000FN00000000020220701000026000NNM   20220423132945    1W    00000130000000882000000000032CJ    QNYHVQN 000000000000UQ226046
BI00B32CJ    TTQ2074        202207011801W004030              IVSSH 0.75F B            CCN000024700000024700FN00000000020220701000024700NNM   20220423132945    1W    00000130000000882000000000032CJ    QNYHVQN 000000000000UQ326052
BI00B32CJ    TTQ2075        202207081801W004030              IVSSH 0.75F B            CCN000023400000023400FN00000000020220701000023400NNM   20220423132945    1W    00000130000000882000000000032CJ    QNYHVQN 000000000000UQ426052
BI00B32CJ    TTQ2072        202206171801W004050              IVSSH 0.75F R            CCN000013000000013000FN00000000020220701000013000NNM   20220423132945    1W    00000130000000882000000000032CJ    QNYHVQN 000000000000UQ126030
BI00B32CJ    TTQ2073        202206241801W004050              IVSSH 0.75F R            CCN000035100000035100FN00000000020220701000035100NNM   20220423132945    1W    00000130000000882000000000032CJ    QNYHVQN 000000000000UQ226047
BI00B32CJ    TTQ2074        202207011801W004050              IVSSH 0.75F R            CCN000026000000026000FN00000000020220701000026000NNM   20220423132945    1W    00000130000000882000000000032CJ    QNYHVQN 000000000000UQ326053
BI00B32CJ    TTQ2075        202207081801W004050              IVSSH 0.75F R            CCN000032500000032500FN00000000020220701000032500NNM   20220423132945    1W    00000130000000882000000000032CJ    QNYHVQN 000000000000UQ426053
BI00B32CJ    TTQ2073        202206241801W004091              IVSSH 0.75F SB           CCN000010400000010400FN00000000020220701000010400NNM   20220423132945    1W    00000130000000882000000000032CJ    QNYHVQN 000000000000UQ226048
BI00B32CJ    TTQ2074        202207011801W004091              IVSSH 0.75F SB           CCN000007800000007800FN00000000020220701000007800NNM   20220423132945    1W    00000130000000882000000000032CJ    QNYHVQN 000000000000UQ326054
BI00B32CJ    TTQ2075        202207081801W004091              IVSSH 0.75F SB           CCN000009100000009100FN00000000020220701000009100NNM   20220423132945    1W    00000130000000882000000000032CJ    QNYHVQN 000000000000UQ426054
BI00B32CJ    @TTQ2071       20220610181B32012ZZ              AVSSCS 0.3FX2 DGY/BR     CCN000001050000001050FN00000000020220701000001050NNM   20220423132940    1W    00000035000002276000000000032CJ    QNYHVQN 000000000000UQ425011
BI00B32CJ    @TTQ2072       20220617181B32012ZZ              AVSSCS 0.3FX2 DGY/BR     CCN000000350000000350FN00000000020220701000000350NNM   20220423132940    1W    00000035000002276000000000032CJ    QNYHVQN 000000000000UQ126016
BI00B32CJ    @TTQ2073       20220624181B32012ZZ              AVSSCS 0.3FX2 DGY/BR     CCN000000700000000700FN00000000020220701000000700NNM   20220423132940    1W    00000035000002276000000000032CJ    QNYHVQN 000000000000UQ226026
BI00B32CJ    @TTQ2074       20220701181B32012ZZ              AVSSCS 0.3FX2 DGY/BR     CCN000000350000000350FN00000000020220701000000350NNM   20220423132940    1W    00000035000002276000000000032CJ    QNYHVQN 000000000000UQ326031
BI00B32CJ    @TTQ2075       20220708181B32012ZZ              AVSSCS 0.3FX2 DGY/BR     CCN000000700000000700FN00000000020220701000000700NNM   20220423132940    1W    00000035000002276000000000032CJ    QNYHVQN 000000000000UQ426031
BI00B32CJ    @TTQ2071       20220610181E48011ZZ              CAVSAS-S 0.3X1 GY/W      CCN000003000000003000FN00000000020220701000003000NNM   20220423132940    1W    00000050000001529500000000032CJ    QNYHVQN 000000000000UQ425012
BI00B32CJ    @TTQ2072       20220617181E48011ZZ              CAVSAS-S 0.3X1 GY/W      CCN000003500000003500FN00000000020220701000003500NNM   20220423132940    1W    00000050000001529500000000032CJ    QNYHVQN 000000000000UQ126017
BI00B32CJ    @TTQ2073       20220624181E48011ZZ              CAVSAS-S 0.3X1 GY/W      CCN000003500000003500FN00000000020220701000003500NNM   20220423132940    1W    00000050000001529500000000032CJ    QNYHVQN 000000000000UQ226027
BI00B32CJ    @TTQ2074       20220701181E48011ZZ              CAVSAS-S 0.3X1 GY/W      CCN000003000000003000FN00000000020220701000003000NNM   20220423132940    1W    00000050000001529500000000032CJ    QNYHVQN 000000000000UQ326032
BI00B32CJ    @TTQ2075       20220708181E48011ZZ              CAVSAS-S 0.3X1 GY/W      CCN000003500000003500FN00000000020220701000003500NNM   20220423132940    1W    00000050000001529500000000032CJ    QNYHVQN 000000000000UQ426032
BI00B32CJ    @TTQ2071       20220610181E48013ZZ              CAVSAS-S 0.3X3 GY        CCN000020000000020000FN00000000020220701000020000NNM   20220423132940    1W    00000025000002778200000000032CJ    QNYHVQN 000000000000UQ425015
BI00B32CJ    @TTQ2072       20220617181E48013ZZ              CAVSAS-S 0.3X3 GY        CCN000017000000017000FN00000000020220701000017000NNM   20220423132940    1W    00000025000002778200000000032CJ    QNYHVQN 000000000000UQ126020
BI00B32CJ    @TTQ2073       20220624181E48013ZZ              CAVSAS-S 0.3X3 GY        CCN000016000000016000FN00000000020220701000016000NNM   20220423132940    1W    00000025000002778200000000032CJ    QNYHVQN 000000000000UQ226031
BI00B32CJ    @TTQ2074       20220701181E48013ZZ              CAVSAS-S 0.3X3 GY        CCN000018000000018000FN00000000020220701000018000NNM   20220423132940    1W    00000025000002778200000000032CJ    QNYHVQN 000000000000UQ326037
BI00B32CJ    @TTQ2075       20220708181E48013ZZ              CAVSAS-S 0.3X3 GY        CCN000015000000015000FN00000000020220701000015000NNM   20220423132940    1W    00000025000002778200000000032CJ    QNYHVQN 000000000000UQ426037
BI00B32CJ    @TTQ2073       20220624181E48027ZZ              CAVSAS-S 0.5X2 GY/P      CCN000000300000000300FN00000000020220701000000300NNM   20220423132940    1W    00000030000002561000000000032CJ    QNYHVQN 000000000000UQ226028
BI00B32CJ    @TTQ2074       20220701181E48027ZZ              CAVSAS-S 0.5X2 GY/P      CCN000001200000001200FN00000000020220701000001200NNM   20220423132940    1W    00000030000002561000000000032CJ    QNYHVQN 000000000000UQ326033
BI00B32CJ    @TTQ2075       20220708181E48027ZZ              CAVSAS-S 0.5X2 GY/P      CCN000000900000000900FN00000000020220701000000900NNM   20220423132940    1W    00000030000002561000000000032CJ    QNYHVQN 000000000000UQ426033
BI00B32CJ    @TTQ2074       20220701181E48029ZZ              CAVSAS-S 0.5X4 GY        CCN000001200000001200FN00000000020220701000001200NNM   20220423132940    1W    00000020000003995000000000032CJ    QNYHVQN 000000000000UQ326034
BI00B32CJ    @TTQ2075       20220708181E48029ZZ              CAVSAS-S 0.5X4 GY        CCN000000800000000800FN00000000020220701000000800NNM   20220423132940    1W    00000020000003995000000000032CJ    QNYHVQN 000000000000UQ426034
BI00B32CJ    @TTQ2071       20220610181E48031ZZ              CAVSAS-S 0.3X2 GY        CCN000004900000004900FN00000000020220701000004900NNM   20220423132940    1W    00000035000002008700000000032CJ    QNYHVQN 000000000000UQ425013
BI00B32CJ    @TTQ2072       20220617181E48031ZZ              CAVSAS-S 0.3X2 GY        CCN000011900000011900FN00000000020220701000011900NNM   20220423132940    1W    00000035000002008700000000032CJ    QNYHVQN 000000000000UQ126018
BI00B32CJ    @TTQ2073       20220624181E48031ZZ              CAVSAS-S 0.3X2 GY        CCN000009800000009800FN00000000020220701000009800NNM   20220423132940    1W    00000035000002008700000000032CJ    QNYHVQN 000000000000UQ226029
BI00B32CJ    @TTQ2074       20220701181E48031ZZ              CAVSAS-S 0.3X2 GY        CCN000011550000011550FN00000000020220701000011550NNM   20220423132940    1W    00000035000002008700000000032CJ    QNYHVQN 000000000000UQ326035
BI00B32CJ    @TTQ2075       20220708181E48031ZZ              CAVSAS-S 0.3X2 GY        CCN000009800000009800FN00000000020220701000009800NNM   20220423132940    1W    00000035000002008700000000032CJ    QNYHVQN 000000000000UQ426035
BI00B32CJ    @TTQ2071       20220610181E48032ZZ              CAVSAS-S 0.3X2 GY/P      CCN000001400000001400FN00000000020220701000001400NNM   20220423132940    1W    00000035000002008700000000032CJ    QNYHVQN 000000000000UQ425014
BI00B32CJ    @TTQ2072       20220617181E48032ZZ              CAVSAS-S 0.3X2 GY/P      CCN000001400000001400FN00000000020220701000001400NNM   20220423132940    1W    00000035000002008700000000032CJ    QNYHVQN 000000000000UQ126019
BI00B32CJ    @TTQ2073       20220624181E48032ZZ              CAVSAS-S 0.3X2 GY/P      CCN000001400000001400FN00000000020220701000001400NNM   20220423132940    1W    00000035000002008700000000032CJ    QNYHVQN 000000000000UQ226030
BI00B32CJ    @TTQ2074       20220701181E48032ZZ              CAVSAS-S 0.3X2 GY/P      CCN000001400000001400FN00000000020220701000001400NNM   20220423132940    1W    00000035000002008700000000032CJ    QNYHVQN 000000000000UQ326036
BI00B32CJ    @TTQ2075       20220708181E48032ZZ              CAVSAS-S 0.3X2 GY/P      CCN000001750000001750FN00000000020220701000001750NNM   20220423132940    1W    00000035000002008700000000032CJ    QNYHVQN 000000000000UQ426036
BI00B32CJ    @TTQ2072       20220617181AD2002ZZ              CIVUSAS-S 0.35X2 B       CCN000000900000000900FN00000000020220701000000900NNM   20220423132940    1W    00000045000001713700000000032CJ    QNYHVQN 000000000000UQ126013
BI00B32CJ    @TTQ2073       20220624181AD2002ZZ              CIVUSAS-S 0.35X2 B       CCN000000900000000900FN00000000020220701000000900NNM   20220423132940    1W    00000045000001713700000000032CJ    QNYHVQN 000000000000UQ226023
BI00B32CJ    @TTQ2074       20220701181AD2002ZZ              CIVUSAS-S 0.35X2 B       CCN000001350000001350FN00000000020220701000001350NNM   20220423132940    1W    00000045000001713700000000032CJ    QNYHVQN 000000000000UQ326028
BI00B32CJ    @TTQ2075       20220708181AD2002ZZ              CIVUSAS-S 0.35X2 B       CCN000001350000001350FN00000000020220701000001350NNM   20220423132940    1W    00000045000001713700000000032CJ    QNYHVQN 000000000000UQ426028
BI00B32CJ    @TTQ2071       20220610181AD2003ZZ              CIVUSAS-S 0.35X3 B       CCN000000700000000700FN00000000020220701000000700NNM   20220423132940    1W    00000035000002172100000000032CJ    QNYHVQN 000000000000UQ425010
BI00B32CJ    @TTQ2072       20220617181AD2003ZZ              CIVUSAS-S 0.35X3 B       CCN000001750000001750FN00000000020220701000001750NNM   20220423132940    1W    00000035000002172100000000032CJ    QNYHVQN 000000000000UQ126014
BI00B32CJ    @TTQ2073       20220624181AD2003ZZ              CIVUSAS-S 0.35X3 B       CCN000001050000001050FN00000000020220701000001050NNM   20220423132940    1W    00000035000002172100000000032CJ    QNYHVQN 000000000000UQ226024
BI00B32CJ    @TTQ2074       20220701181AD2003ZZ              CIVUSAS-S 0.35X3 B       CCN000001750000001750FN00000000020220701000001750NNM   20220423132940    1W    00000035000002172100000000032CJ    QNYHVQN 000000000000UQ326029
BI00B32CJ    @TTQ2075       20220708181AD2003ZZ              CIVUSAS-S 0.35X3 B       CCN000001750000001750FN00000000020220701000001750NNM   20220423132940    1W    00000035000002172100000000032CJ    QNYHVQN 000000000000UQ426029
BI00B32CJ    @TTQ2072       20220617181AD2004ZZ              CIVUSAS-S 0.35X4 B       CCN000029100000029100FN00000000020220701000029100NNM   20220423132940    1W    00000030000002799900000000032CJ    QNYHVQN 000000000000UQ126015
BI00B32CJ    @TTQ2073       20220624181AD2004ZZ              CIVUSAS-S 0.35X4 B       CCN000029100000029100FN00000000020220701000029100NNM   20220423132940    1W    00000030000002799900000000032CJ    QNYHVQN 000000000000UQ226025
BI00B32CJ    @TTQ2074       20220701181AD2004ZZ              CIVUSAS-S 0.35X4 B       CCN000033000000033000FN00000000020220701000033000NNM   20220423132940    1W    00000030000002799900000000032CJ    QNYHVQN 000000000000UQ326030
BI00B32CJ    @TTQ2075       20220708181AD2004ZZ              CIVUSAS-S 0.35X4 B       CCN000034500000034500FN00000000020220701000034500NNM   20220423132940    1W    00000030000002799900000000032CJ    QNYHVQN 000000000000UQ426030
BI00B32CJ    @TTQ2071       20220610181AD2007ZZ              CIVUSAS-S 0.5X1 B        CCN000001000000001000FN00000000020220701000001000NNM   20220423132940    1W    00000050000001639600000000032CJ    QNYHVQN 000000000000UQ425009
BI00B32CJ    @TTQ2072       20220617181AD2007ZZ              CIVUSAS-S 0.5X1 B        CCN000001000000001000FN00000000020220701000001000NNM   20220423132940    1W    00000050000001639600000000032CJ    QNYHVQN 000000000000UQ126012
BI00B32CJ    @TTQ2073       20220624181AD2007ZZ              CIVUSAS-S 0.5X1 B        CCN000001000000001000FN00000000020220701000001000NNM   20220423132940    1W    00000050000001639600000000032CJ    QNYHVQN 000000000000UQ226022
BI00B32CJ    @TTQ2074       20220701181AD2007ZZ              CIVUSAS-S 0.5X1 B        CCN000001000000001000FN00000000020220701000001000NNM   20220423132940    1W    00000050000001639600000000032CJ    QNYHVQN 000000000000UQ326027
BI00B32CJ    @TTQ2075       20220708181AD2007ZZ              CIVUSAS-S 0.5X1 B        CCN000001000000001000FN00000000020220701000001000NNM   20220423132940    1W    00000050000001639600000000032CJ    QNYHVQN 000000000000UQ426027
BI00B32G2    SA2206AJMW     202205111801W00695U              IVSSH 0.35F BE           CCN000002500000002500FN00000000020220601000002500NNE   20220423161114    1W    00000250000000452000000000032G2    AISUAI  000000000000IU424001
BI00B32G7    @JW2206ALMW    20220526181AD2020ZZ              CIVUSAS-S 0.5X2 B(R,G)   CCN000000800000000800FN00000000020220601000000800NNE   20220423160307    1W    00000040000002028000000000032G7    JIJAI   000000000000JH225001
BI00B32G7    @JW2206ALMW    20220526181AD2021ZZ              CIVUSAS-S 0.35X2 B(L,GY) CCN000000900000000900FN00000000020220601000000900NNE   20220423160307    1W    00000045000001714000000000032G7    JIJAI   000000000000JH225002
BI00B32G7    JW2206C MW     2022052618007703930              AVSS 0.5F B              CCN000001500000001500FN00000000020220601000001500NNE   20220423160309    1W    00000150000000674000000000032G7    JIJAI   000000000000JJ225002
BI00B32G7    @JW2206C MW    20220526181E48060ZZ              CAVSAS-S 0.5X2 GY/V      CCN000000300000000300FN00000000020220601000000300NNE   20220423160308    1W    00000030000002561000000000032G7    JIJAI   000000000000JJ225001
BI00B32G7    JW2206CMMW     202205261801W006952              IVSSH 0.35F P            CCN000005000000005000FN00000000020220601000005000NNE   20220423160310    1W    00000250000000452000000000032G7    JIJAI   000000000000JN225002
BI00B32H2    TAW2073        2022062418000004530              AV 8 B                   CCN000002200000002200FN00000000020220701000002200NNM   20220423145003    1W    00000010000010466200000000032H2    HVYHV   000000000000UH226014
BI00B32H2    TAW2074        2022070118000004530              AV 8 B                   CCN000002400000002400FN00000000020220701000002400NNM   20220423145003    1W    00000010000010466200000000032H2    HVYHV   000000000000UH326013
BI00B32H2    TAW2075        2022070818000004530              AV 8 B                   CCN000002400000002400FN00000000020220701000002400NNM   20220423145003    1W    00000010000010466200000000032H2    HVYHV   000000000000UH426017
BI00B32H2    TAW2072        2022061718000004540              AV 8 W                   CCN000001000000001000FN00000000020220701000001000NNM   20220423145003    1W    00000010000010466200000000032H2    HVYHV   000000000000UH126015
BI00B32H2    TAW2073        2022062418000004540              AV 8 W                   CCN000001600000001600FN00000000020220701000001600NNM   20220423145003    1W    00000010000010466200000000032H2    HVYHV   000000000000UH226015
BI00B32H2    TAW2074        2022070118000004540              AV 8 W                   CCN000001800000001800FN00000000020220701000001800NNM   20220423145003    1W    00000010000010466200000000032H2    HVYHV   000000000000UH326014
BI00B32H2    TAW2075        2022070818000004540              AV 8 W                   CCN000001700000001700FN00000000020220701000001700NNM   20220423145003    1W    00000010000010466200000000032H2    HVYHV   000000000000UH426018
BI00B32H2    TAW2075        2022070818007704130              AVSS 1.25F B             CCN000000800000000800FN00000000020220701000000800NNM   20220423145003    1W    00000080000001389000000000032H2    HVYHV   000000000000UH426019
BI00B32H2    TAW2072        2022061718007704160              AVSS 1.25F G             CCN000000800000000800FN00000000020220701000000800NNM   20220423145003    1W    00000080000001389000000000032H2    HVYHV   000000000000UH126016
BI00B32H2    TAW2072        2022061718007704190              AVSS 1.25F L             CCN000000800000000800FN00000000020220701000000800NNM   20220423145003    1W    00000080000001389000000000032H2    HVYHV   000000000000UH126017
BI00B32H2    TAW2071        2022061018007704150              AVSS 1.25F R             CCN000004800000004800FN00000000020220701000004800NNM   20220423145003    1W    00000080000001389000000000032H2    HVYHV   000000000000UH425017
BI00B32H2    TAW2072        2022061718007704150              AVSS 1.25F R             CCN000004000000004000FN00000000020220701000004000NNM   20220423145003    1W    00000080000001389000000000032H2    HVYHV   000000000000UH126018
BI00B32H2    TAW2073        2022062418007704150              AVSS 1.25F R             CCN000004000000004000FN00000000020220701000004000NNM   20220423145003    1W    00000080000001389000000000032H2    HVYHV   000000000000UH226016
BI00B32H2    TAW2074        2022070118007704150              AVSS 1.25F R             CCN000002400000002400FN00000000020220701000002400NNM   20220423145003    1W    00000080000001389000000000032H2    HVYHV   000000000000UH326015
BI00B32H2    TAW2075        2022070818007704150              AVSS 1.25F R             CCN000003200000003200FN00000000020220701000003200NNM   20220423145003    1W    00000080000001389000000000032H2    HVYHV   000000000000UH426020
BI00B32H2    TAW2071        2022061018007704140              AVSS 1.25F W             CCN000004000000004000FN00000000020220701000004000NNM   20220423145003    1W    00000080000001389000000000032H2    HVYHV   000000000000UH425018
BI00B32H2    TAW2072        2022061718007704140              AVSS 1.25F W             CCN000003200000003200FN00000000020220701000003200NNM   20220423145003    1W    00000080000001389000000000032H2    HVYHV   000000000000UH126019
BI00B32H2    TAW2073        2022062418007704140              AVSS 1.25F W             CCN000004000000004000FN00000000020220701000004000NNM   20220423145003    1W    00000080000001389000000000032H2    HVYHV   000000000000UH226017
BI00B32H2    TAW2074        2022070118007704140              AVSS 1.25F W             CCN000003200000003200FN00000000020220701000003200NNM   20220423145003    1W    00000080000001389000000000032H2    HVYHV   000000000000UH326016
BI00B32H2    TAW2075        2022070818007704140              AVSS 1.25F W             CCN000003200000003200FN00000000020220701000003200NNM   20220423145003    1W    00000080000001389000000000032H2    HVYHV   000000000000UH426021
BI00B32H2    TAW2075        2022070818007704143              AVSS 1.25F W/B           CCN000000800000000800FN00000000020220701000000800NNM   20220423145003    1W    00000080000001389000000000032H2    HVYHV   000000000000UH426022
BI00B32H2    TAW2071        20220610180D0203980              AVSSH 0.5F BR            CCN000001500000001500FN00000000020220701000001500NNM   20220423145003    1W    00000150000000689000000000032H2    HVYHV   000000000000UH425012
BI00B32H2    TAW2075        20220708180D0203960              AVSSH 0.5F G             CCN000001500000001500FN00000000020220701000001500NNM   20220423145003    1W    00000150000000689000000000032H2    HVYHV   000000000000UH426012
BI00B32H2    TAW2075        20220708180D0203990              AVSSH 0.5F L             CCN000001500000001500FN00000000020220701000001500NNM   20220423145003    1W    00000150000000689000000000032H2    HVYHV   000000000000UH426013
BI00B32H2    TAW2071        20220610180D0203961              AVSSH 0.5F LG            CCN000001500000001500FN00000000020220701000001500NNM   20220423145003    1W    00000150000000689000000000032H2    HVYHV   000000000000UH425013
BI00B32H2    TAW2075        20220708180D0203950              AVSSH 0.5F R             CCN000001500000001500FN00000000020220701000001500NNM   20220423145003    1W    00000150000000689000000000032H2    HVYHV   000000000000UH426014
BI00B32H2    TAW2071        20220610180D0203940              AVSSH 0.5F W             CCN000001500000001500FN00000000020220701000001500NNM   20220423145003    1W    00000150000000689000000000032H2    HVYHV   000000000000UH425014
BI00B32H2    TAW2075        20220708180D0203943              AVSSH 0.5F W/B           CCN000003000000003000FN00000000020220701000003000NNM   20220423145003    1W    00000150000000689000000000032H2    HVYHV   000000000000UH426015
BI00B32H2    TAW2075        20220708180D0203970              AVSSH 0.5F Y             CCN000001500000001500FN00000000020220701000001500NNM   20220423145003    1W    00000150000000689000000000032H2    HVYHV   000000000000UH426016
BI00B32H2    TAW2071        20220610180D0204043              AVSSH 0.75F W/B          CCN000001000000001000FN00000000020220701000001000NNM   20220423145003    1W    00000100000000934000000000032H2    HVYHV   000000000000UH425015
BI00B32H2    TAW2072        20220617180D0204180              AVSSH 1.25F BR           CCN000000800000000800FN00000000020220701000000800NNM   20220423145003    1W    00000080000001458000000000032H2    HVYHV   000000000000UH126013
BI00B32H2    TAW2071        20220610180D0204190              AVSSH 1.25F L            CCN000000800000000800FN00000000020220701000000800NNM   20220423145003    1W    00000080000001458000000000032H2    HVYHV   000000000000UH425016
BI00B32H2    TAW2073        20220624180D0204143              AVSSH 1.25F W/B          CCN000000800000000800FN00000000020220701000000800NNM   20220423145003    1W    00000080000001458000000000032H2    HVYHV   000000000000UH226013
BI00B32H2    TAW2072        20220617180D0204170              AVSSH 1.25F Y            CCN000000800000000800FN00000000020220701000000800NNM   20220423145003    1W    00000080000001458000000000032H2    HVYHV   000000000000UH126014
BI00B32H2    @TAW2071       20220610181B32102S1              AVSSCS 0.5FX2 DGY        CCN000009000000009000FN00000000020220701000009000NNM   20220423145000    1W    00000030000002903000000000032H2    HVYHV   000000000000UH425008
BI00B32H2    @TAW2072       20220617181B32102S1              AVSSCS 0.5FX2 DGY        CCN000008100000008100FN00000000020220701000008100NNM   20220423145000    1W    00000030000002903000000000032H2    HVYHV   000000000000UH126009
BI00B32H2    @TAW2073       20220624181B32102S1              AVSSCS 0.5FX2 DGY        CCN000009000000009000FN00000000020220701000009000NNM   20220423145000    1W    00000030000002903000000000032H2    HVYHV   000000000000UH226009
BI00B32H2    @TAW2074       20220701181B32102S1              AVSSCS 0.5FX2 DGY        CCN000007500000007500FN00000000020220701000007500NNM   20220423145000    1W    00000030000002903000000000032H2    HVYHV   000000000000UH326009
BI00B32H2    @TAW2075       20220708181B32102S1              AVSSCS 0.5FX2 DGY        CCN000008100000008100FN00000000020220701000008100NNM   20220423145000    1W    00000030000002903000000000032H2    HVYHV   000000000000UH426008
BI00B32H2    @TAW2071       20220610181E50014ZZ              AVSSCS-S 0.5FX1 DGY/R    CCN000002000000002000FN00000000020220701000002000NNM   20220423145000    1W    00000040000001909700000000032H2    HVYHV   000000000000UH425010
BI00B32H2    @TAW2072       20220617181E50014ZZ              AVSSCS-S 0.5FX1 DGY/R    CCN000002400000002400FN00000000020220701000002400NNM   20220423145000    1W    00000040000001909700000000032H2    HVYHV   000000000000UH126011
BI00B32H2    @TAW2073       20220624181E50014ZZ              AVSSCS-S 0.5FX1 DGY/R    CCN000003200000003200FN00000000020220701000003200NNM   20220423145000    1W    00000040000001909700000000032H2    HVYHV   000000000000UH226011
BI00B32H2    @TAW2074       20220701181E50014ZZ              AVSSCS-S 0.5FX1 DGY/R    CCN000002400000002400FN00000000020220701000002400NNM   20220423145000    1W    00000040000001909700000000032H2    HVYHV   000000000000UH326011
BI00B32H2    @TAW2075       20220708181E50014ZZ              AVSSCS-S 0.5FX1 DGY/R    CCN000002800000002800FN00000000020220701000002800NNM   20220423145000    1W    00000040000001909700000000032H2    HVYHV   000000000000UH426010
BI00B32H2    @TAW2071       20220610181D6910230              AVSSHCS 0.5FX2 B         CCN000000300000000300FN00000000020220701000000300NNM   20220423145000    1W    00000030000002385000000000032H2    HVYHV   000000000000UH425009
BI00B32H2    @TAW2072       20220617181D6910230              AVSSHCS 0.5FX2 B         CCN000000300000000300FN00000000020220701000000300NNM   20220423145000    1W    00000030000002385000000000032H2    HVYHV   000000000000UH126010
BI00B32H2    @TAW2073       20220624181D6910230              AVSSHCS 0.5FX2 B         CCN000000300000000300FN00000000020220701000000300NNM   20220423145000    1W    00000030000002385000000000032H2    HVYHV   000000000000UH226010
BI00B32H2    @TAW2074       20220701181D6910230              AVSSHCS 0.5FX2 B         CCN000000600000000600FN00000000020220701000000600NNM   20220423145000    1W    00000030000002385000000000032H2    HVYHV   000000000000UH326010
BI00B32H2    @TAW2075       20220708181D6910230              AVSSHCS 0.5FX2 B         CCN000000300000000300FN00000000020220701000000300NNM   20220423145000    1W    00000030000002385000000000032H2    HVYHV   000000000000UH426009
BI00B32H2    @TAW2071       20220610181F21002ZZ              AVSSHCS-S 0.5FX1 B       CCN000009200000009200FN00000000020220701000009200NNM   20220423145000    1W    00000040000001908400000000032H2    HVYHV   000000000000UH425011
BI00B32H2    @TAW2072       20220617181F21002ZZ              AVSSHCS-S 0.5FX1 B       CCN000008000000008000FN00000000020220701000008000NNM   20220423145000    1W    00000040000001908400000000032H2    HVYHV   000000000000UH126012
BI00B32H2    @TAW2073       20220624181F21002ZZ              AVSSHCS-S 0.5FX1 B       CCN000008400000008400FN00000000020220701000008400NNM   20220423145000    1W    00000040000001908400000000032H2    HVYHV   000000000000UH226012
BI00B32H2    @TAW2074       20220701181F21002ZZ              AVSSHCS-S 0.5FX1 B       CCN000008800000008800FN00000000020220701000008800NNM   20220423145000    1W    00000040000001908400000000032H2    HVYHV   000000000000UH326012
BI00B32H2    @TAW2075       20220708181F21002ZZ              AVSSHCS-S 0.5FX1 B       CCN000008000000008000FN00000000020220701000008000NNM   20220423145000    1W    00000040000001908400000000032H2    HVYHV   000000000000UH426011
BI00B32H2    @TAW2071       20220610181AD2001ZZ              CIVUSAS-S 0.35X1 B       CCN000012100000012100FN00000000020220701000012100NNM   20220423145000    1W    00000055000001540800000000032H2    HVYHV   000000000000UH425004
BI00B32H2    @TAW2072       20220617181AD2001ZZ              CIVUSAS-S 0.35X1 B       CCN000012100000012100FN00000000020220701000012100NNM   20220423145000    1W    00000055000001540800000000032H2    HVYHV   000000000000UH126005
BI00B32H2    @TAW2073       20220624181AD2001ZZ              CIVUSAS-S 0.35X1 B       CCN000023100000023100FN00000000020220701000023100NNM   20220423145000    1W    00000055000001540800000000032H2    HVYHV   000000000000UH226005
BI00B32H2    @TAW2074       20220701181AD2001ZZ              CIVUSAS-S 0.35X1 B       CCN000012650000012650FN00000000020220701000012650NNM   20220423145000    1W    00000055000001540800000000032H2    HVYHV   000000000000UH326005
BI00B32H2    @TAW2075       20220708181AD2001ZZ              CIVUSAS-S 0.35X1 B       CCN000017600000017600FN00000000020220701000017600NNM   20220423145000    1W    00000055000001540800000000032H2    HVYHV   000000000000UH426004
BI00B32H2    @TAW2071       20220610181AD2002ZZ              CIVUSAS-S 0.35X2 B       CCN000004500000004500FN00000000020220701000004500NNM   20220423145000    1W    00000045000001713700000000032H2    HVYHV   000000000000UH425006
BI00B32H2    @TAW2072       20220617181AD2002ZZ              CIVUSAS-S 0.35X2 B       CCN000012600000012600FN00000000020220701000012600NNM   20220423145000    1W    00000045000001713700000000032H2    HVYHV   000000000000UH126007
BI00B32H2    @TAW2073       20220624181AD2002ZZ              CIVUSAS-S 0.35X2 B       CCN000016650000016650FN00000000020220701000016650NNM   20220423145000    1W    00000045000001713700000000032H2    HVYHV   000000000000UH226007
BI00B32H2    @TAW2074       20220701181AD2002ZZ              CIVUSAS-S 0.35X2 B       CCN000016650000016650FN00000000020220701000016650NNM   20220423145000    1W    00000045000001713700000000032H2    HVYHV   000000000000UH326007
BI00B32H2    @TAW2075       20220708181AD2002ZZ              CIVUSAS-S 0.35X2 B       CCN000015750000015750FN00000000020220701000015750NNM   20220423145000    1W    00000045000001713700000000032H2    HVYHV   000000000000UH426006
BI00B32H2    @TAW2071       20220610181AD2003ZZ              CIVUSAS-S 0.35X3 B       CCN000014000000014000FN00000000020220701000014000NNM   20220423145000    1W    00000035000002172100000000032H2    HVYHV   000000000000UH425007
BI00B32H2    @TAW2072       20220617181AD2003ZZ              CIVUSAS-S 0.35X3 B       CCN000038500000038500FN00000000020220701000038500NNM   20220423145000    1W    00000035000002172100000000032H2    HVYHV   000000000000UH126008
BI00B32H2    @TAW2073       20220624181AD2003ZZ              CIVUSAS-S 0.35X3 B       CCN000052500000052500FN00000000020220701000052500NNM   20220423145000    1W    00000035000002172100000000032H2    HVYHV   000000000000UH226008
BI00B32H2    @TAW2074       20220701181AD2003ZZ              CIVUSAS-S 0.35X3 B       CCN000029750000029750FN00000000020220701000029750NNM   20220423145000    1W    00000035000002172100000000032H2    HVYHV   000000000000UH326008
BI00B32H2    @TAW2075       20220708181AD2003ZZ              CIVUSAS-S 0.35X3 B       CCN000045500000045500FN00000000020220701000045500NNM   20220423145000    1W    00000035000002172100000000032H2    HVYHV   000000000000UH426007
BI00B32H2    @TAW2071       20220610181AD2008ZZ              CIVUSAS-S 0.5X2 B        CCN000040000000040000FN00000000020220701000040000NNM   20220423145000    1W    00000040000002028000000000032H2    HVYHV   000000000000UH425005
BI00B32H2    @TAW2072       20220617181AD2008ZZ              CIVUSAS-S 0.5X2 B        CCN000016000000016000FN00000000020220701000016000NNM   20220423145000    1W    00000040000002028000000000032H2    HVYHV   000000000000UH126006
BI00B32H2    @TAW2073       20220624181AD2008ZZ              CIVUSAS-S 0.5X2 B        CCN000032000000032000FN00000000020220701000032000NNM   20220423145000    1W    00000040000002028000000000032H2    HVYHV   000000000000UH226006
BI00B32H2    @TAW2074       20220701181AD2008ZZ              CIVUSAS-S 0.5X2 B        CCN000020000000020000FN00000000020220701000020000NNM   20220423145000    1W    00000040000002028000000000032H2    HVYHV   000000000000UH326006
BI00B32H2    @TAW2075       20220708181AD2008ZZ              CIVUSAS-S 0.5X2 B        CCN000020000000020000FN00000000020220701000020000NNM   20220423145000    1W    00000040000002028000000000032H2    HVYHV   000000000000UH426005
BI00B32H2    @TAW2071       20220610181AD2023ZZ              CIVUSAS-S 0.13X2 B       CCN000001800000001800FN00000000020220701000001800NNM   20220423145000    1W    00000060000001031100000000032H2    HVYHV   000000000000UH425001
BI00B32H2    @TAW2072       20220617181AD2023ZZ              CIVUSAS-S 0.13X2 B       CCN000005400000005400FN00000000020220701000005400NNM   20220423145000    1W    00000060000001031100000000032H2    HVYHV   000000000000UH126001
BI00B32H2    @TAW2073       20220624181AD2023ZZ              CIVUSAS-S 0.13X2 B       CCN000009000000009000FN00000000020220701000009000NNM   20220423145000    1W    00000060000001031100000000032H2    HVYHV   000000000000UH226001
BI00B32H2    @TAW2074       20220701181AD2023ZZ              CIVUSAS-S 0.13X2 B       CCN000009000000009000FN00000000020220701000009000NNM   20220423145000    1W    00000060000001031100000000032H2    HVYHV   000000000000UH326001
BI00B32H2    @TAW2075       20220708181AD2023ZZ              CIVUSAS-S 0.13X2 B       CCN000009000000009000FN00000000020220701000009000NNM   20220423145000    1W    00000060000001031100000000032H2    HVYHV   000000000000UH426001
BI00B32H2    @TAW2071       20220610181AD2024ZZ              CIVUSAS-S 0.13X3 B       CCN000000500000000500FN00000000020220701000000500NNM   20220423145000    1W    00000050000001297300000000032H2    HVYHV   000000000000UH425002
BI00B32H2    @TAW2072       20220617181AD2024ZZ              CIVUSAS-S 0.13X3 B       CCN000002500000002500FN00000000020220701000002500NNM   20220423145000    1W    00000050000001297300000000032H2    HVYHV   000000000000UH126002
BI00B32H2    @TAW2073       20220624181AD2024ZZ              CIVUSAS-S 0.13X3 B       CCN000005000000005000FN00000000020220701000005000NNM   20220423145000    1W    00000050000001297300000000032H2    HVYHV   000000000000UH226002
BI00B32H2    @TAW2074       20220701181AD2024ZZ              CIVUSAS-S 0.13X3 B       CCN000004000000004000FN00000000020220701000004000NNM   20220423145000    1W    00000050000001297300000000032H2    HVYHV   000000000000UH326002
BI00B32H2    @TAW2075       20220708181AD2024ZZ              CIVUSAS-S 0.13X3 B       CCN000004500000004500FN00000000020220701000004500NNM   20220423145000    1W    00000050000001297300000000032H2    HVYHV   000000000000UH426002
BI00B32H2    @TAW2071       20220610181AD2025ZZ              CIVUSAS-S 0.13X4 B       CCN000000400000000400FN00000000020220701000000400NNM   20220423145000    1W    00000040000001661800000000032H2    HVYHV   000000000000UH425003
BI00B32H2    @TAW2072       20220617181AD2025ZZ              CIVUSAS-S 0.13X4 B       CCN000000400000000400FN00000000020220701000000400NNM   20220423145000    1W    00000040000001661800000000032H2    HVYHV   000000000000UH126003
BI00B32H2    @TAW2073       20220624181AD2025ZZ              CIVUSAS-S 0.13X4 B       CCN000001200000001200FN00000000020220701000001200NNM   20220423145000    1W    00000040000001661800000000032H2    HVYHV   000000000000UH226003
BI00B32H2    @TAW2074       20220701181AD2025ZZ              CIVUSAS-S 0.13X4 B       CCN000001200000001200FN00000000020220701000001200NNM   20220423145000    1W    00000040000001661800000000032H2    HVYHV   000000000000UH326003
BI00B32H2    @TAW2075       20220708181AD2025ZZ              CIVUSAS-S 0.13X4 B       CCN000001200000001200FN00000000020220701000001200NNM   20220423145000    1W    00000040000001661800000000032H2    HVYHV   000000000000UH426003
BI00B32H2    @TAW2072       20220617181AD2026ZZ              CIVUSAS-S 0.13X6 B       CCN000000300000000300FN00000000020220701000000300NNM   20220423145000    1W    00000030000002258300000000032H2    HVYHV   000000000000UH126004
BI00B32H2    @TAW2073       20220624181AD2026ZZ              CIVUSAS-S 0.13X6 B       CCN000000300000000300FN00000000020220701000000300NNM   20220423145000    1W    00000030000002258300000000032H2    HVYHV   000000000000UH226004
BI00B32H2    @TAW2074       20220701181AD2026ZZ              CIVUSAS-S 0.13X6 B       CCN000000300000000300FN00000000020220701000000300NNM   20220423145000    1W    00000030000002258300000000032H2    HVYHV   000000000000UH326004
BI00B32M8    @PM2205C MW    20220518181B32102G0              AVSSCS 0.5FX2 DGY/BR     CCN000001500000001500FN00000000020220501000001500NNE   20220423161014    1W    00000030000002903000000000032M8    PMPEMI  000000000000IC125001
BI00B32W4    4500192488     2022053118018403752              CAVS 0.3 P               CCN000006000000006000FN00000000020220501000006000NNE   20220423134539W41 1W    00000200000000471000000000032W41   HJYHK-J 000000000000OK325003
BI00B32W4    4500192488     2022053118018403770              CAVS 0.3 Y               CCN000002000000002000FN00000000020220501000002000NNE   20220423134539W41 1W    00000200000000471000000000032W41   HJYHK-J 000000000000OK325004
BI00B32W4    4500192488     2022053118018403991              CAVS 0.5 SB              CCN000004500000004500FN00000000020220501000004500NNE   20220423134539W41 1W    00000150000000677000000000032W41   HJYHK-J 000000000000OK325005
BI00B32W4    4500192488     2022053118018404141              CAVS 1.25 GY             CCN000001600000001600FN00000000020220501000001600NNE   20220423134539W41 1W    00000080000001378000000000032W41   HJYHK-J 000000000000OK325006
BI00B32W4    4500192488     2022053118018403739              CAVS 0.3 B/L             CCN000002000000002000FN00000000020220501000002000NNE   20220423134539W41 1W    00000200000000471000000000032W41   HJYHK-J 000000000000OK325002
BI00B32W4    @4500192488    20220531181B09116K2              CAVSAS 0.3X2 GY/V        CCN000003500000003500FN00000000020220501000003500NNE   20220423134537W41 1W    00000035000002254000000000032W41   HJYHK-J 000000000000OK325001
BI00B32W4    4500192489     2022053118018403752              CAVS 0.3 P               CCN000006000000006000FN00000000020220501000006000NNE   20220423134540W41 1W    00000200000000471000000000032W41   HJYHK-J 000000000000OU325003
BI00B32W4    4500192489     2022053118018403770              CAVS 0.3 Y               CCN000002000000002000FN00000000020220501000002000NNE   20220423134540W41 1W    00000200000000471000000000032W41   HJYHK-J 000000000000OU325004
BI00B32W4    4500192489     2022053118018403991              CAVS 0.5 SB              CCN000004500000004500FN00000000020220501000004500NNE   20220423134540W41 1W    00000150000000677000000000032W41   HJYHK-J 000000000000OU325005
BI00B32W4    4500192489     2022053118018404141              CAVS 1.25 GY             CCN000001600000001600FN00000000020220501000001600NNE   20220423134540W41 1W    00000080000001378000000000032W41   HJYHK-J 000000000000OU325006
BI00B32W4    4500192489     2022053118018403739              CAVS 0.3 B/L             CCN000002000000002000FN00000000020220501000002000NNE   20220423134540W41 1W    00000200000000471000000000032W41   HJYHK-J 000000000000OU325002
BI00B32W4    @4500192489    20220531181B09116K2              CAVSAS 0.3X2 GY/V        CCN000003500000003500FN00000000020220501000003500NNE   20220423134538W41 1W    00000035000002254000000000032W41   HJYHK-J 000000000000OU325001
BI00B32W4    4500192490     2022053118018403940              CAVS 0.5 W               CCN000003000000003000FN00000000020220501000003000NNE   20220423134541W41 1W    00000150000000677000000000032W41   HJYHK-J 000000000000OL325002
BI00B32W4    4500192490     2022053118018403991              CAVS 0.5 SB              CCN000010500000010500FN00000000020220501000010500NNE   20220423134541W41 1W    00000150000000677000000000032W41   HJYHK-J 000000000000OL325001
BI00B32W4    4500192478     2022061418018403940              CAVS 0.5 W               CCN000004500000004500FN00000000020220601000004500NNE   20220423160020W41 1W    00000150000000677000000000032W41   HJYHK-J 000000000000OC126009
BI00B32W4    4500192478     2022061418018403960              CAVS 0.5 G               CCN000003000000003000FN00000000020220601000003000NNE   20220423160020W41 1W    00000150000000677000000000032W41   HJYHK-J 000000000000OC126003
BI00B32W4    4500192478     2022061418018403961              CAVS 0.5 LG              CCN000007500000007500FN00000000020220601000007500NNE   20220423160020W41 1W    00000150000000677000000000032W41   HJYHK-J 000000000000OC126004
BI00B32W4    4500192478     2022061418018403991              CAVS 0.5 SB              CCN000013500000013500FN00000000020220601000013500NNE   20220423160020W41 1W    00000150000000677000000000032W41   HJYHK-J 000000000000OC126008
BI00B32W4    4500192478     2022061418018404090              CAVS 0.85 L              CCN000002000000002000FN00000000020220601000002000NNE   20220423160020W41 1W    00000100000000965000000000032W41   HJYHK-J 000000000000OC126010
BI00B32W4    4500192478     2022061418018404140              CAVS 1.25 W              CCN000004800000004800FN00000000020220601000004800NNE   20220423160020W41 1W    00000080000001378000000000032W41   HJYHK-J 000000000000OC126018
BI00B32W4    4500192478     2022061418018404170              CAVS 1.25 Y              CCN000005600000005600FN00000000020220601000005600NNE   20220423160020W41 1W    00000080000001378000000000032W41   HJYHK-J 000000000000OC126019
BI00B32W4    4500192478     2022061418018404130              CAVS 1.25 B              CCN000004000000004000FN00000000020220601000004000NNE   20220423160020W41 1W    00000080000001378000000000032W41   HJYHK-J 000000000000OC126011
BI00B32W4    4500192478     2022061418018404141              CAVS 1.25 GY             CCN000000800000000800FN00000000020220601000000800NNE   20220423160020W41 1W    00000080000001378000000000032W41   HJYHK-J 000000000000OC126013
BI00B32W4    4500192478     2022061418018404151              CAVS 1.25 O              CCN000001600000001600FN00000000020220601000001600NNE   20220423160020W41 1W    00000080000001378000000000032W41   HJYHK-J 000000000000OC126015
BI00B32W4    4500192478     2022061418018404152              CAVS 1.25 P              CCN000001600000001600FN00000000020220601000001600NNE   20220423160020W41 1W    00000080000001378000000000032W41   HJYHK-J 000000000000OC126016
BI00B32W4    4500192478     2022061418018404160              CAVS 1.25 G              CCN000004800000004800FN00000000020220601000004800NNE   20220423160020W41 1W    00000080000001378000000000032W41   HJYHK-J 000000000000OC126012
BI00B32W4    4500192478     2022061418018404190              CAVS 1.25 L              CCN000002400000002400FN00000000020220601000002400NNE   20220423160020W41 1W    00000080000001378000000000032W41   HJYHK-J 000000000000OC126014
BI00B32W4    4500192478     2022061418018404192              CAVS 1.25 V              CCN000001600000001600FN00000000020220601000001600NNE   20220423160020W41 1W    00000080000001378000000000032W41   HJYHK-J 000000000000OC126017
BI00B32W4    4500192478     2022061418018403953              CAVS 0.5 R/B             CCN000001500000001500FN00000000020220601000001500NNE   20220423160020W41 1W    00000150000000677000000000032W41   HJYHK-J 000000000000OC126005
BI00B32W4    4500192478     2022061418018403955              CAVS 0.5 R/LG            CCN000003000000003000FN00000000020220601000003000NNE   20220423160020W41 1W    00000150000000677000000000032W41   HJYHK-J 000000000000OC126006
BI00B32W4    4500192478     2022061418018403954              CAVS 0.5 R/W             CCN000001500000001500FN00000000020220601000001500NNE   20220423160020W41 1W    00000150000000677000000000032W41   HJYHK-J 000000000000OC126007
BI00B32W4    4500192478     2022061418018403983              CAVS 0.5 BR/B            CCN000001500000001500FN00000000020220601000001500NNE   20220423160020W41 1W    00000150000000677000000000032W41   HJYHK-J 000000000000OC126001
BI00B32W4    4500192478     2022061418018403985              CAVS 0.5 BR/R            CCN000001500000001500FN00000000020220601000001500NNE   20220423160020W41 1W    00000150000000677000000000032W41   HJYHK-J 000000000000OC126002
BI00B32W4    4500192485     2022061418018403735              CAVS 0.3 B/R             CCN000002000000002000FN00000000020220601000002000NNE   20220423160021W41 1W    00000200000000471000000000032W41   HJYHK-J 000000000000OD126007
BI00B32W4    4500192485     2022061418018403940              CAVS 0.5 W               CCN000001500000001500FN00000000020220601000001500NNE   20220423160021W41 1W    00000150000000677000000000032W41   HJYHK-J 000000000000OD126019
BI00B32W4    4500192485     2022061418018403960              CAVS 0.5 G               CCN000003000000003000FN00000000020220601000003000NNE   20220423160021W41 1W    00000150000000677000000000032W41   HJYHK-J 000000000000OD126012
BI00B32W4    4500192485     2022061418018403961              CAVS 0.5 LG              CCN000003000000003000FN00000000020220601000003000NNE   20220423160021W41 1W    00000150000000677000000000032W41   HJYHK-J 000000000000OD126013
BI00B32W4    4500192485     2022061418018403991              CAVS 0.5 SB              CCN000006000000006000FN00000000020220601000006000NNE   20220423160021W41 1W    00000150000000677000000000032W41   HJYHK-J 000000000000OD126015
BI00B32W4    4500192485     2022061418018403992              CAVS 0.5 V               CCN000004500000004500FN00000000020220601000004500NNE   20220423160021W41 1W    00000150000000677000000000032W41   HJYHK-J 000000000000OD126016
BI00B32W4    4500192485     202206141801R706950              CIVUS 0.35 R             CCN000003000000003000FN00000000020220601000003000NNE   20220423160021W41 1W    00000300000000386000000000032W41   HJYHK-J 000000000000OD126006
BI00B32W4    4500192485     2022061418018403769              CAVS 0.3 G/L             CCN000002000000002000FN00000000020220601000002000NNE   20220423160021W41 1W    00000200000000471000000000032W41   HJYHK-J 000000000000OD126009
BI00B32W4    4500192485     202206141801840375U              CAVS 0.3 BE              CCN000002000000002000FN00000000020220601000002000NNE   20220423160021W41 1W    00000200000000471000000000032W41   HJYHK-J 000000000000OD126008
BI00B32W4    4500192485     202206141801R703930              CIVUS 0.5 B              CCN000002200000002200FN00000000020220601000002200NNE   20220423160021W41 1W    00000220000000525000000000032W41   HJYHK-J 000000000000OD126004
BI00B32W4    4500192485     2022061418009604339              AVS 3 B/L                CCN000002000000002000FN00000000020220601000002000NNE   20220423160021W41 1W    00000040000003831600000000032W41   HJYHK-J 000000000000OD126003
BI00B32W4    4500192485     2022061418018403733              CAVS 0.3 V/W             CCN000002000000002000FN00000000020220601000002000NNE   20220423160021W41 1W    00000200000000471000000000032W41   HJYHK-J 000000000000OD126010
BI00B32W4    4500192485     2022061418018403933              CAVS 0.5 V/W             CCN000001500000001500FN00000000020220601000001500NNE   20220423160021W41 1W    00000150000000677000000000032W41   HJYHK-J 000000000000OD126018
BI00B32W4    4500192485     2022061418018403956              CAVS 0.5 R/G             CCN000001500000001500FN00000000020220601000001500NNE   20220423160021W41 1W    00000150000000677000000000032W41   HJYHK-J 000000000000OD126014
BI00B32W4    4500192485     20220614180184039G9              CAVS 0.5 V/G             CCN000003000000003000FN00000000020220601000003000NNE   20220423160021W41 1W    00000150000000677000000000032W41   HJYHK-J 000000000000OD126017
BI00B32W4    4500192485     202206141801R703970              CIVUS 0.5 Y              CCN000002200000002200FN00000000020220601000002200NNE   20220423160021W41 1W    00000220000000525000000000032W41   HJYHK-J 000000000000OD126005
BI00B32W4    4500192485     2022061418018403939              CAVS 0.5 B/L             CCN000001500000001500FN00000000020220601000001500NNE   20220423160021W41 1W    00000150000000677000000000032W41   HJYHK-J 000000000000OD126011
BI00B32W4    @4500192485    20220614181B09116K2              CAVSAS 0.3X2 GY/V        CCN000003500000003500FN00000000020220601000003500NNE   20220423134542W41 1W    00000035000002254000000000032W41   HJYHK-J 000000000000OD126002
BI00B32W4    @4500192485    20220614181B0911641              CAVSAS 0.3X2 GY          CCN000001400000001400FN00000000020220601000001400NNE   20220423134542W41 1W    00000035000002254000000000032W41   HJYHK-J 000000000000OD126001
BI00B32W4    @4500192536    20220607181E50002ZZ              AVSSCS-S 0.3FX2 DGY/G    CCN000006300000006300FN00000000020220601000006300NNE   20220423134543W4591W    00000035000002165000000000032W459  HJYHK-J 000000000000OX425001
BI00B32W4    @4500192610    20220705181B32116S1              AVSSCS 0.3FX2 DGY        CCN000003500000003500FN00000000020220701000003500NNE   20220423160024W4171W    00000035000002276000000000032W417  HJYHK-J 000000000000OT426002
BI00B32W4    @4500192610    20220705181B32037Y5              AVSSCS 0.3FX1 DGY/W      CCN000002000000002000FN00000000020220701000002000NNE   20220423160024W4171W    00000050000001780000000000032W417  HJYHK-J 000000000000OT426001
BI00A32W4    @4500192662    20220704181B09116K3              CAVSAS 0.3X2 GY/P        CCN000000700000000700FN00000000020220701000000700NNE   20220423160026W4N21W    00000035000002254000000000032W4N2  HJYHK-J 000000000000OU426001
BI00B32W4    4500192801     2022062118018403730              CAVS 0.3 B               CCN000014000000014000FN00000000020220601000014000NNE   20220423160022W41 1W    00000200000000471000000000032W41   HJYHK-J 000000000000OI226001
BI00B32W4    4500192801     2022062118018403780              CAVS 0.3 BR              CCN000006000000006000FN00000000020220601000006000NNE   20220423160022W41 1W    00000200000000471000000000032W41   HJYHK-J 000000000000OI226002
BI00B32W4    4500192801     2022062118018403792              CAVS 0.3 V               CCN000010000000010000FN00000000020220601000010000NNE   20220423160022W41 1W    00000200000000471000000000032W41   HJYHK-J 000000000000OI226003
BI00B32W4    4500192801     2022062118018403992              CAVS 0.5 V               CCN000010500000010500FN00000000020220601000010500NNE   20220423160022W41 1W    00000150000000677000000000032W41   HJYHK-J 000000000000OI226004
BI00B32W4    4500192801     2022062118018404030              CAVS 0.85 B              CCN000001000000001000FN00000000020220601000001000NNE   20220423160022W41 1W    00000100000000965000000000032W41   HJYHK-J 000000000000OI226005
BI00B32W4    4500192801     2022062118018404060              CAVS 0.85 G              CCN000030000000030000FN00000000020220601000030000NNE   20220423160022W41 1W    00000100000000965000000000032W41   HJYHK-J 000000000000OI226006
BI00B32W4    4500192801     2022062118018404070              CAVS 0.85 Y              CCN000021000000021000FN00000000020220601000021000NNE   20220423160022W41 1W    00000100000000965000000000032W41   HJYHK-J 000000000000OI226010
BI00B32W4    4500192801     2022062118018404090              CAVS 0.85 L              CCN000008000000008000FN00000000020220601000008000NNE   20220423160022W41 1W    00000100000000965000000000032W41   HJYHK-J 000000000000OI226007
BI00B32W4    4500192801     2022062118018404091              CAVS 0.85 SB             CCN000035000000035000FN00000000020220601000035000NNE   20220423160022W41 1W    00000100000000965000000000032W41   HJYHK-J 000000000000OI226008
BI00B32W4    4500192801     2022062118018404092              CAVS 0.85 V              CCN000008000000008000FN00000000020220601000008000NNE   20220423160022W41 1W    00000100000000965000000000032W41   HJYHK-J 000000000000OI226009
BI00B32W4    4500192809     2022062118018403730              CAVS 0.3 B               CCN000022000000022000FN00000000020220601000022000NNE   20220423160023W41 1W    00000200000000471000000000032W41   HJYHK-J 000000000000OJ226010
BI00B32W4    4500192809     2022062118018403750              CAVS 0.3 R               CCN000016000000016000FN00000000020220601000016000NNE   20220423160023W41 1W    00000200000000471000000000032W41   HJYHK-J 000000000000OJ226018
BI00B32W4    4500192809     2022062118018403770              CAVS 0.3 Y               CCN000014000000014000FN00000000020220601000014000NNE   20220423160023W41 1W    00000200000000471000000000032W41   HJYHK-J 000000000000OJ226021
BI00B32W4    4500192809     2022062118018403780              CAVS 0.3 BR              CCN000006000000006000FN00000000020220601000006000NNE   20220423160023W41 1W    00000200000000471000000000032W41   HJYHK-J 000000000000OJ226013
BI00B32W4    4500192809     2022062118018403792              CAVS 0.3 V               CCN000034000000034000FN00000000020220601000034000NNE   20220423160023W41 1W    00000200000000471000000000032W41   HJYHK-J 000000000000OJ226019
BI00B32W4    4500192809     2022062118018403761              CAVS 0.3 LG              CCN000016000000016000FN00000000020220601000016000NNE   20220423160023W41 1W    00000200000000471000000000032W41   HJYHK-J 000000000000OJ226016
BI00B32W4    4500192809     2022062118018403741              CAVS 0.3 GY              CCN000012000000012000FN00000000020220601000012000NNE   20220423160023W41 1W    00000200000000471000000000032W41   HJYHK-J 000000000000OJ226014
BI00B32W4    4500192809     2022062118018403751              CAVS 0.3 O               CCN000008000000008000FN00000000020220601000008000NNE   20220423160023W41 1W    00000200000000471000000000032W41   HJYHK-J 000000000000OJ226017
BI00B32W4    4500192809     2022062118018403793              CAVS 0.3 L/B             CCN000004000000004000FN00000000020220601000004000NNE   20220423160023W41 1W    00000200000000471000000000032W41   HJYHK-J 000000000000OJ226015
BI00B32W4    4500192809     2022062118018403937              CAVS 0.5 B/Y             CCN000003000000003000FN00000000020220601000003000NNE   20220423160023W41 1W    00000150000000677000000000032W41   HJYHK-J 000000000000OJ226023
BI00B32W4    4500192809     2022062118018403950              CAVS 0.5 R               CCN000006000000006000FN00000000020220601000006000NNE   20220423160023W41 1W    00000150000000677000000000032W41   HJYHK-J 000000000000OJ226024
BI00B32W4    4500192809     2022062118018403992              CAVS 0.5 V               CCN000004500000004500FN00000000020220601000004500NNE   20220423160023W41 1W    00000150000000677000000000032W41   HJYHK-J 000000000000OJ226026
BI00B32W4    4500192809     2022062118018404141              CAVS 1.25 GY             CCN000008000000008000FN00000000020220601000008000NNE   20220423160023W41 1W    00000080000001378000000000032W41   HJYHK-J 000000000000OJ226029
BI00B32W4    4500192809     202206211801R706950              CIVUS 0.35 R             CCN000003000000003000FN00000000020220601000003000NNE   20220423160023W41 1W    00000300000000386000000000032W41   HJYHK-J 000000000000OJ226008
BI00B32W4    4500192809     2022062118018403739              CAVS 0.3 B/L             CCN000004000000004000FN00000000020220601000004000NNE   20220423160023W41 1W    00000200000000471000000000032W41   HJYHK-J 000000000000OJ226011
BI00B32W4    4500192809     202206211801R706930              CIVUS 0.35 B             CCN000009000000009000FN00000000020220601000009000NNE   20220423160023W41 1W    00000300000000386000000000032W41   HJYHK-J 000000000000OJ226006
BI00B32W4    4500192809     202206211801R706970              CIVUS 0.35 Y             CCN000006000000006000FN00000000020220601000006000NNE   20220423160023W41 1W    00000300000000386000000000032W41   HJYHK-J 000000000000OJ226009
BI00B32W4    4500192809     202206211801R706990              CIVUS 0.35 L             CCN000006000000006000FN00000000020220601000006000NNE   20220423160023W41 1W    00000300000000386000000000032W41   HJYHK-J 000000000000OJ226007
BI00B32W4    4500192809     202206211801840375U              CAVS 0.3 BE              CCN000008000000008000FN00000000020220601000008000NNE   20220423160023W41 1W    00000200000000471000000000032W41   HJYHK-J 000000000000OJ226012
BI00B32W4    4500192809     202206211801R703930              CIVUS 0.5 B              CCN000002200000002200FN00000000020220601000002200NNE   20220423160023W41 1W    00000220000000525000000000032W41   HJYHK-J 000000000000OJ226004
BI00B32W4    4500192809     2022062118009604339              AVS 3 B/L                CCN000003200000003200FN00000000020220601000003200NNE   20220423160023W41 1W    00000040000003831600000000032W41   HJYHK-J 000000000000OJ226003
BI00B32W4    4500192809     2022062118018403733              CAVS 0.3 V/W             CCN000002000000002000FN00000000020220601000002000NNE   20220423160023W41 1W    00000200000000471000000000032W41   HJYHK-J 000000000000OJ226020
BI00B32W4    4500192809     2022062118018403933              CAVS 0.5 V/W             CCN000003000000003000FN00000000020220601000003000NNE   20220423160023W41 1W    00000150000000677000000000032W41   HJYHK-J 000000000000OJ226028
BI00B32W4    4500192809     2022062118018403956              CAVS 0.5 R/G             CCN000003000000003000FN00000000020220601000003000NNE   20220423160023W41 1W    00000150000000677000000000032W41   HJYHK-J 000000000000OJ226025
BI00B32W4    4500192809     20220621180184039G9              CAVS 0.5 V/G             CCN000004500000004500FN00000000020220601000004500NNE   20220423160023W41 1W    00000150000000677000000000032W41   HJYHK-J 000000000000OJ226027
BI00B32W4    4500192809     202206211801R703970              CIVUS 0.5 Y              CCN000002200000002200FN00000000020220601000002200NNE   20220423160023W41 1W    00000220000000525000000000032W41   HJYHK-J 000000000000OJ226005
BI00B32W4    4500192809     2022062118018403939              CAVS 0.5 B/L             CCN000001500000001500FN00000000020220601000001500NNE   20220423160023W41 1W    00000150000000677000000000032W41   HJYHK-J 000000000000OJ226022
BI00B32W4    @4500192809    20220621181B09116K2              CAVSAS 0.3X2 GY/V        CCN000008400000008400FN00000000020220601000008400NNE   20220423160019W41 1W    00000035000002254000000000032W41   HJYHK-J 000000000000OJ226002
BI00B32W4    @4500192809    20220621181B0911641              CAVSAS 0.3X2 GY          CCN000004900000004900FN00000000020220601000004900NNE   20220423160019W41 1W    00000035000002254000000000032W41   HJYHK-J 000000000000OJ226001
BI00B32W4    4500192813     20220531180D0203930              AVSSH 0.5F B             CCN000001500000001500FN00000000020220601000001500NNE   20220423160023W41 1W    00000150000000689000000000032W41   HJYHK-J 000000000000OH325001
BI00B32W4    4500192813     20220531180D0203940              AVSSH 0.5F W             CCN000001500000001500FN00000000020220601000001500NNE   20220423160023W41 1W    00000150000000689000000000032W41   HJYHK-J 000000000000OH325003
BI00B32W4    4500192813     20220531180D0203960              AVSSH 0.5F G             CCN000001500000001500FN00000000020220601000001500NNE   20220423160023W41 1W    00000150000000689000000000032W41   HJYHK-J 000000000000OH325002
BI00B32W4    4500192813     20220531180D0203970              AVSSH 0.5F Y             CCN000001500000001500FN00000000020220601000001500NNE   20220423160023W41 1W    00000150000000689000000000032W41   HJYHK-J 000000000000OH325004
BI00B32W9    4500192543     2022051018009604370              AVS 3 Y                  CCN000000400000000400FN00000000020220501000000400NNE   20220423134347W93 1W    00000040000003831600000000032W93   HKYHK   000000000000ZP424001
BI00B32W9    4500192546     2022051718009604330              AVS 3 B                  CCN000000800000000800FN00000000020220501000000800NNE   20220423134348W93 1W    00000040000003831600000000032W93   HKYHK   000000000000ZE125002
BI00B32W9    4500192546     2022051718009604230              AVS 2 B                  CCN000000500000000500FN00000000020220501000000500NNE   20220423134348W93 1W    00000050000002456500000000032W93   HKYHK   000000000000ZE125001
BI00B32W9    4500192546     2022051718009604370              AVS 3 Y                  CCN000000400000000400FN00000000020220501000000400NNE   20220423134348W93 1W    00000040000003831600000000032W93   HKYHK   000000000000ZE125004
BI00B32W9    4500192546     2022051718009604394              AVS 3 L/W                CCN000000400000000400FN00000000020220501000000400NNE   20220423134348W93 1W    00000040000003831600000000032W93   HKYHK   000000000000ZE125003
BI00B32W9    4500192546     2022051718018404153              CAVS 1.25 R/B            CCN000000800000000800FN00000000020220501000000800NNE   20220423134348W93 1W    00000080000001378000000000032W93   HKYHK   000000000000ZE125008
BI00B32W9    4500192546     2022051718018404190              CAVS 1.25 L              CCN000000800000000800FN00000000020220501000000800NNE   20220423134348W93 1W    00000080000001378000000000032W93   HKYHK   000000000000ZE125007
BI00B32W9    4500192546     2022051718018404009              CAVS 0.85 LG/R           CCN000001000000001000FN00000000020220501000001000NNE   20220423134348W93 1W    00000100000000965000000000032W93   HKYHK   000000000000ZE125005
BI00B32W9    4500192546     2022051718018404165              CAVS 1.25 G/R            CCN000000800000000800FN00000000020220501000000800NNE   20220423134348W93 1W    00000080000001378000000000032W93   HKYHK   000000000000ZE125006
BI00B32X5    TWB2028        202206091801W003943              IVSSH 0.5F W/B           CCN000001800000001800FN00000000020220801000001800NNE   20220423144329X5  1W    00000180000000625000000000032X5    EPYNA-E 000000000000AE425009
BI00B32X5    TWB2028        202206091801W003990              IVSSH 0.5F L             CCN000003600000003600FN00000000020220801000003600NNE   20220423144329X5  1W    00000180000000625000000000032X5    EPYNA-E 000000000000AE425008
BI00B32X5    TWB2028        202206091801W004030              IVSSH 0.75F B            CCN000001300000001300FN00000000020220801000001300NNE   20220423144329X5  1W    00000130000000882000000000032X5    EPYNA-E 000000000000AE425010
BI00B32X5    TWB2028        202206091801W004040              IVSSH 0.75F W            CCN000001300000001300FN00000000020220801000001300NNE   20220423144329X5  1W    00000130000000882000000000032X5    EPYNA-E 000000000000AE425012
BI00B32X5    TWB2028        202206091801W004052              IVSSH 0.75F P            CCN000001300000001300FN00000000020220801000001300NNE   20220423144329X5  1W    00000130000000882000000000032X5    EPYNA-E 000000000000AE425011
BI00B32X5    TWB2028        202206091801W006930              IVSSH 0.35F B            CCN000025000000025000FN00000000020220801000025000NNE   20220423144329X5  1W    00000250000000452000000000032X5    EPYNA-E 000000000000AE425013
BI00B32X5    TWB2028        202206091801W006940              IVSSH 0.35F W            CCN000012500000012500FN00000000020220801000012500NNE   20220423144329X5  1W    00000250000000452000000000032X5    EPYNA-E 000000000000AE425019
BI00B32X5    TWB2028        202206091801W006943              IVSSH 0.35F W/B          CCN000010000000010000FN00000000020220801000010000NNE   20220423144329X5  1W    00000250000000452000000000032X5    EPYNA-E 000000000000AE425020
BI00B32X5    TWB2028        202206091801W006950              IVSSH 0.35F R            CCN000017500000017500FN00000000020220801000017500NNE   20220423144329X5  1W    00000250000000452000000000032X5    EPYNA-E 000000000000AE425017
BI00B32X5    TWB2028        202206091801W006952              IVSSH 0.35F P            CCN000005000000005000FN00000000020220801000005000NNE   20220423144329X5  1W    00000250000000452000000000032X5    EPYNA-E 000000000000AE425016
BI00B32X5    TWB2028        202206091801W006960              IVSSH 0.35F G            CCN000002500000002500FN00000000020220801000002500NNE   20220423144329X5  1W    00000250000000452000000000032X5    EPYNA-E 000000000000AE425014
BI00B32X5    TWB2028        202206091801W006970              IVSSH 0.35F Y            CCN000010000000010000FN00000000020220801000010000NNE   20220423144329X5  1W    00000250000000452000000000032X5    EPYNA-E 000000000000AE425021
BI00B32X5    TWB2028        202206091801W006990              IVSSH 0.35F L            CCN000002500000002500FN00000000020220801000002500NNE   20220423144329X5  1W    00000250000000452000000000032X5    EPYNA-E 000000000000AE425015
BI00B32X5    TWB2028        202206091801W006992              IVSSH 0.35F V            CCN000002500000002500FN00000000020220801000002500NNE   20220423144329X5  1W    00000250000000452000000000032X5    EPYNA-E 000000000000AE425018
