BI00A1200    2399T51C15     202205047289-5979-30             HOUSING FEMALE ASS'Y     PCN000024192000007056FN00000000020220101000007056NNMD0420220423092915    1N0N  0000002520000085470000106471200    YCYC    005400370024
BI00A1200    2399T51C16     202205167289-5979-30             HOUSING FEMALE ASS'Y     PCN000024192000004032FN00000000020220101000004032NNMD0420220423105042    1N0N  0000002520000085470000106471200    YCYC    005400370024
BI00A1200    2399T51C15     202205107289-5979-30             HOUSING FEMALE ASS'Y     PCN000012096000004032FN00000000020220101000004032NNMD0420220423103846    1N0N  0000002520000085470000106471200    YCYC    005400370024
BI00A1200    2399T52115     202205097289-5979-30             HOUSING FEMALE ASS'Y     PCN000021420000004032FN00000000020220301000004032NNMD0420220423102534    1N0N  0000002520000085470000106471200    YCYC    005400370024
BI00A1200    2399T52115     202205127289-5979-30             HOUSING FEMALE ASS'Y     PCN000021672000004032FN00000000020220301000004032NNMD0420220423104139    1N0N  0000002520000085470000106471200    YCYC    005400370024
BI00A1200    2399T52115     202205137289-5979-30             HOUSING FEMALE ASS'Y     PCN000008064000004032FN00000000020220301000004032NNMD0420220423104139    1N0N  0000002520000085470000106471200    YCYC    005400370024
BI00B1200    2399T52115     202206097289-5979-30             HOUSING FEMALE ASS'Y     CCN000008064000013104FN00000000020220301000013104NNMD0420220423104139    1N0N  0000002520000085470000106471200    YCYC    005400370024
BI00A1200    2399T52115     202205067289-5979-30             HOUSING FEMALE ASS'Y     PCN000007056000004032FN00000000020220301000004032NNMD0420220423102534    1N0N  0000002520000085470000106471200    YCYC    005400370024
BI00A1200    2399T51C15     202205117289-5979-30             HOUSING FEMALE ASS'Y     PCN000008064000008064FN00000000020220101000008064NNMD0420220423103846    1N0N  0000002520000085470000106471200    YCYC    005400370024
BI00A1200    2399T51C16     202205177289-5979-30             HOUSING FEMALE ASS'Y     PCN000012096000004032FN00000000020220101000004032NNMD0420220423105100    1N0N  0000002520000085470000106471200    YCYC    005400370024
BI00A1200    2399T51C16     202205187289-5979-30             HOUSING FEMALE ASS'Y     PCN000004032000004032FN00000000020220101000004032NNMD0420220423105100    1N0N  0000002520000085470000106471200    YCYC    005400370024
BI00B32B7    A82022         202204297282-6448-40             CONNECTOR                CCN000015200000015200FN00000000020220701000015200NNMD0020220423163554B7  4N0N  00000080000000887000001152732B7    AXARNE-M005600390040
BI00A32H2    TIJ2034        202204297289-3342-30             HOUSING FEMALE ASS'Y     PCN000060000000057600FN00000000020220301000057600NNM00020220423082153    1N0N  00000240000000686400000901432H2    HVYHV   005500360039
BI00B32X5    TIB2006        202203257289-3342-30             HOUSING FEMALE ASS'Y     CCN000093600000000000FY00000000020220301000000000NNMD0420220423081918X5  1N0N  00000240000000686400000901432X5    EPYNA-E 005500360039
BI00B32X5    TIB2006        202204297289-3342-30             HOUSING FEMALE ASS'Y     CCN000024000000024000FN00000000020220301000024000NNMD0420220423081918X5  1N0N  00000240000000686400000901432X5    EPYNA-E 005500360039
BI00B32X5    TIB2006        202204277289-3342-30             HOUSING FEMALE ASS'Y     CCN000024000000048000FN00000000020220301000048000NNM00020220423081918X5  1N0N  00000240000000686400000901432X5    EPYNA-E 005500360039
BI00A32X5    TIB2012        202205187289-5979-30             HOUSING FEMALE ASS'Y     PCN000003528000003528FN00000000020220501000003528NNMM0420220423103920X5  1N0N  00000025200000854700001064732X5    EPYNA-E 005400370024
BI00A32X5    TIB2015        202205277289-5979-30             HOUSING FEMALE ASS'Y     PCN000002520000002520FN00000000020220501000002520NNMM0420220423100429X5  1N0N  00000025200000854700001064732X5    EPYNA-E 005400370024
