BI00B32AF    TTB2053        2022042918007704150              AVSS 1.25F R             CCN000004800000004800FN00000000020220501000004800NNM   20220306173643    1W    00000080000001389000000000032AF    HBYHVTB 000000000000UZ224028
BI00B32AF    TTB2054        2022050618007704150              AVSS 1.25F R             CCN000007200000007200FN00000000020220501000007200NNM   20220306173643    1W    00000080000001389000000000032AF    HBYHVTB 000000000000UZ324034
BI00B32AF    TTB2053        2022042918007704140              AVSS 1.25F W             CCN000004000000004000FN00000000020220501000004000NNM   20220306173643    1W    00000080000001389000000000032AF    HBYHVTB 000000000000UZ224029
BI00B32AF    TTB2054        2022050618007704140              AVSS 1.25F W             CCN000007200000007200FN00000000020220501000007200NNM   20220306173643    1W    00000080000001389000000000032AF    HBYHVTB 000000000000UZ324035
BI00B32AF    @TTB2054       20220506181B0911741              CAVSAS 0.3X3 GY          CCN000010500000010500FN00000000020220501000010500NNM   20220306173640    1W    00000025000002843000000000032AF    HBYHVTB 000000000000UZ324032
BI00B32AF    @TTB2052       20220422181E48013ZZ              CAVSAS-S 0.3X3 GY        CCN000003000000003000FN00000000020220501000003000NNM   20220306173640    1W    00000025000002778200000000032AF    HBYHVTB 000000000000UZ124022
BI00B32AF    @TTB2053       20220429181E48013ZZ              CAVSAS-S 0.3X3 GY        CCN000004500000004500FN00000000020220501000004500NNM   20220306173640    1W    00000025000002778200000000032AF    HBYHVTB 000000000000UZ224027
BI00B32AF    @TTB2054       20220506181E48013ZZ              CAVSAS-S 0.3X3 GY        CCN000003500000003500FN00000000020220501000003500NNM   20220306173640    1W    00000025000002778200000000032AF    HBYHVTB 000000000000UZ324033
BI00B32AF    @TTB2053       20220429181E48065ZZ              CAVSAS-S 0.5X4 GY/W      CCN000000200000000200FN00000000020220501000000200NNM   20220306173640    1W    00000020000003995000000000032AF    HBYHVTB 000000000000UZ224026
BI00B32AF    @TTB2051       20220408181AD2001ZZ              CIVUSAS-S 0.35X1 B       CCN000018700000018700FN00000000020220501000018700NNM   20220306173640    1W    00000055000001540800000000032AF    HBYHVTB 000000000000UZ423017
BI00B32AF    @TTB2052       20220422181AD2001ZZ              CIVUSAS-S 0.35X1 B       CCN000036850000036850FN00000000020220501000036850NNM   20220306173640    1W    00000055000001540800000000032AF    HBYHVTB 000000000000UZ124018
BI00B32AF    @TTB2053       20220429181AD2001ZZ              CIVUSAS-S 0.35X1 B       CCN000039600000039600FN00000000020220501000039600NNM   20220306173640    1W    00000055000001540800000000032AF    HBYHVTB 000000000000UZ224021
BI00B32AF    @TTB2054       20220506181AD2001ZZ              CIVUSAS-S 0.35X1 B       CCN000034650000034650FN00000000020220501000034650NNM   20220306173640    1W    00000055000001540800000000032AF    HBYHVTB 000000000000UZ324027
BI00B32AF    @TTB2051       20220408181AD2002ZZ              CIVUSAS-S 0.35X2 B       CCN000175050000175050FN00000000020220501000175050NNM   20220306173640    1W    00000045000001713700000000032AF    HBYHVTB 000000000000UZ423019
BI00B32AF    @TTB2052       20220422181AD2002ZZ              CIVUSAS-S 0.35X2 B       CCN000178200000178200FN00000000020220501000178200NNM   20220306173640    1W    00000045000001713700000000032AF    HBYHVTB 000000000000UZ124020
BI00B32AF    @TTB2053       20220429181AD2002ZZ              CIVUSAS-S 0.35X2 B       CCN000198000000198000FN00000000020220501000198000NNM   20220306173640    1W    00000045000001713700000000032AF    HBYHVTB 000000000000UZ224023
BI00B32AF    @TTB2054       20220506181AD2002ZZ              CIVUSAS-S 0.35X2 B       CCN000187200000187200FN00000000020220501000187200NNM   20220306173640    1W    00000045000001713700000000032AF    HBYHVTB 000000000000UZ324029
BI00B32AF    @TTB2052       20220422181AD2003ZZ              CIVUSAS-S 0.35X3 B       CCN000030800000030800FN00000000020220501000030800NNM   20220306173640    1W    00000035000002172100000000032AF    HBYHVTB 000000000000UZ124021
BI00B32AF    @TTB2053       20220429181AD2003ZZ              CIVUSAS-S 0.35X3 B       CCN000053550000053550FN00000000020220501000053550NNM   20220306173640    1W    00000035000002172100000000032AF    HBYHVTB 000000000000UZ224024
BI00B32AF    @TTB2054       20220506181AD2003ZZ              CIVUSAS-S 0.35X3 B       CCN000049700000049700FN00000000020220501000049700NNM   20220306173640    1W    00000035000002172100000000032AF    HBYHVTB 000000000000UZ324030
BI00B32AF    @TTB2053       20220429181AD2004ZZ              CIVUSAS-S 0.35X4 B       CCN000014400000014400FN00000000020220501000014400NNM   20220306173640    1W    00000030000002799900000000032AF    HBYHVTB 000000000000UZ224025
BI00B32AF    @TTB2054       20220506181AD2004ZZ              CIVUSAS-S 0.35X4 B       CCN000021300000021300FN00000000020220501000021300NNM   20220306173640    1W    00000030000002799900000000032AF    HBYHVTB 000000000000UZ324031
BI00B32AF    @TTB2051       20220408181AD2008ZZ              CIVUSAS-S 0.5X2 B        CCN000048800000048800FN00000000020220501000048800NNM   20220306173640    1W    00000040000002028000000000032AF    HBYHVTB 000000000000UZ423018
BI00B32AF    @TTB2052       20220422181AD2008ZZ              CIVUSAS-S 0.5X2 B        CCN000041600000041600FN00000000020220501000041600NNM   20220306173640    1W    00000040000002028000000000032AF    HBYHVTB 000000000000UZ124019
BI00B32AF    @TTB2053       20220429181AD2008ZZ              CIVUSAS-S 0.5X2 B        CCN000052000000052000FN00000000020220501000052000NNM   20220306173640    1W    00000040000002028000000000032AF    HBYHVTB 000000000000UZ224022
BI00B32AF    @TTB2054       20220506181AD2008ZZ              CIVUSAS-S 0.5X2 B        CCN000050800000050800FN00000000020220501000050800NNM   20220306173640    1W    00000040000002028000000000032AF    HBYHVTB 000000000000UZ324028
BI00B32CH    @SJ22052 MW    20220407181E50011ZZ              AVSSCS-S 0.5FX2 DGY/Y    CCN000000600000000600FN00000000020220501000000600NNM   20220306144311    1W    00000030000003096000000000032CH    SJSAMIJF000000000000QX423001
BI00B32CH    @SJ22053 MW    20220421181E50011ZZ              AVSSCS-S 0.5FX2 DGY/Y    CCN000001200000001200FN00000000020220501000001200NNM   20220306144311    1W    00000030000003096000000000032CH    SJSAMIJF000000000000QX124001
BI00B32CH    @SJ22054 MW    20220428181E50011ZZ              AVSSCS-S 0.5FX2 DGY/Y    CCN000001500000001500FN00000000020220501000001500NNM   20220306144311    1W    00000030000003096000000000032CH    SJSAMIJF000000000000QX224001
BI00B32CH    @SJ22055 MW    20220505181E50011ZZ              AVSSCS-S 0.5FX2 DGY/Y    CCN000000600000000600FN00000000020220501000000600NNM   20220306144311    1W    00000030000003096000000000032CH    SJSAMIJF000000000000QX324001
BI00B32CH    SJ22053HMW     2022042118007704130              AVSS 1.25F B             CCN000000800000000800FN00000000020220501000000800NNM   20220306144316    1W    00000080000001389000000000032CH    SJSAMIJF000000000000QW124001
BI00B32CH    SJ22054HMW     2022042818007704130              AVSS 1.25F B             CCN000004800000004800FN00000000020220501000004800NNM   20220306144316    1W    00000080000001389000000000032CH    SJSAMIJF000000000000QW224001
BI00B32CH    SJ22055HMW     2022050518007704130              AVSS 1.25F B             CCN000004800000004800FN00000000020220501000004800NNM   20220306144316    1W    00000080000001389000000000032CH    SJSAMIJF000000000000QW324001
BI00B32CJ    TTQ2051        2022040818000004530              AV 8 B                   CCN000002000000002000FN00000000020220501000002000NNM   20220306174720    1W    00000010000010466200000000032CJ    QNYHVQN 000000000000UQ423017
BI00B32CJ    TTQ2053        2022042218000004530              AV 8 B                   CCN000001500000001500FN00000000020220501000001500NNM   20220306174720    1W    00000010000010466200000000032CJ    QNYHVQN 000000000000UQ124021
BI00B32CJ    TTQ2054        2022042918000004530              AV 8 B                   CCN000001600000001600FN00000000020220501000001600NNM   20220306174720    1W    00000010000010466200000000032CJ    QNYHVQN 000000000000UQ224029
BI00B32CJ    TTQ2055        2022050618000004530              AV 8 B                   CCN000001300000001300FN00000000020220501000001300NNM   20220306174720    1W    00000010000010466200000000032CJ    QNYHVQN 000000000000UQ324035
BI00B32CJ    TTQ2054        2022042918000004550              AV 8 R                   CCN000003100000003100FN00000000020220501000003100NNM   20220306174720    1W    00000010000010466200000000032CJ    QNYHVQN 000000000000UQ224030
BI00B32CJ    TTQ2055        2022050618000004550              AV 8 R                   CCN000003500000003500FN00000000020220501000003500NNM   20220306174720    1W    00000010000010466200000000032CJ    QNYHVQN 000000000000UQ324036
BI00B32CJ    TTQ2054        2022042918007704130              AVSS 1.25F B             CCN000001600000001600FN00000000020220501000001600NNM   20220306174720    1W    00000080000001389000000000032CJ    QNYHVQN 000000000000UQ224031
BI00B32CJ    TTQ2055        2022050618007704130              AVSS 1.25F B             CCN000000800000000800FN00000000020220501000000800NNM   20220306174720    1W    00000080000001389000000000032CJ    QNYHVQN 000000000000UQ324037
BI00B32CJ    TTQ2053        20220422180D0203730              AVSSH 0.3F B             CCN000006000000006000FN00000000020220501000006000NNM   20220306174720    1W    00000200000000515000000000032CJ    QNYHVQN 000000000000UQ124017
BI00B32CJ    TTQ2054        20220429180D0203730              AVSSH 0.3F B             CCN000006000000006000FN00000000020220501000006000NNM   20220306174720    1W    00000200000000515000000000032CJ    QNYHVQN 000000000000UQ224020
BI00B32CJ    TTQ2055        20220506180D0203730              AVSSH 0.3F B             CCN000004000000004000FN00000000020220501000004000NNM   20220306174720    1W    00000200000000515000000000032CJ    QNYHVQN 000000000000UQ324026
BI00B32CJ    TTQ2054        20220429180D0203780              AVSSH 0.3F BR            CCN000024000000024000FN00000000020220501000024000NNM   20220306174720    1W    00000200000000515000000000032CJ    QNYHVQN 000000000000UQ224021
BI00B32CJ    TTQ2055        20220506180D0203780              AVSSH 0.3F BR            CCN000028000000028000FN00000000020220501000028000NNM   20220306174720    1W    00000200000000515000000000032CJ    QNYHVQN 000000000000UQ324027
BI00B32CJ    TTQ2053        20220422180D0203760              AVSSH 0.3F G             CCN000008000000008000FN00000000020220501000008000NNM   20220306174720    1W    00000200000000515000000000032CJ    QNYHVQN 000000000000UQ124018
BI00B32CJ    TTQ2054        20220429180D0203760              AVSSH 0.3F G             CCN000024000000024000FN00000000020220501000024000NNM   20220306174720    1W    00000200000000515000000000032CJ    QNYHVQN 000000000000UQ224022
BI00B32CJ    TTQ2055        20220506180D0203760              AVSSH 0.3F G             CCN000016000000016000FN00000000020220501000016000NNM   20220306174720    1W    00000200000000515000000000032CJ    QNYHVQN 000000000000UQ324028
BI00B32CJ    TTQ2054        20220429180D0203741              AVSSH 0.3F GY            CCN000004000000004000FN00000000020220501000004000NNM   20220306174720    1W    00000200000000515000000000032CJ    QNYHVQN 000000000000UQ224023
BI00B32CJ    TTQ2055        20220506180D0203741              AVSSH 0.3F GY            CCN000004000000004000FN00000000020220501000004000NNM   20220306174720    1W    00000200000000515000000000032CJ    QNYHVQN 000000000000UQ324029
BI00B32CJ    TTQ2054        20220429180D0203790              AVSSH 0.3F L             CCN000018000000018000FN00000000020220501000018000NNM   20220306174720    1W    00000200000000515000000000032CJ    QNYHVQN 000000000000UQ224024
BI00B32CJ    TTQ2055        20220506180D0203790              AVSSH 0.3F L             CCN000022000000022000FN00000000020220501000022000NNM   20220306174720    1W    00000200000000515000000000032CJ    QNYHVQN 000000000000UQ324030
BI00B32CJ    TTQ2051        20220408180D0203740              AVSSH 0.3F W             CCN000004000000004000FN00000000020220501000004000NNM   20220306174720    1W    00000200000000515000000000032CJ    QNYHVQN 000000000000UQ423015
BI00B32CJ    TTQ2053        20220422180D0203740              AVSSH 0.3F W             CCN000006000000006000FN00000000020220501000006000NNM   20220306174720    1W    00000200000000515000000000032CJ    QNYHVQN 000000000000UQ124019
BI00B32CJ    TTQ2054        20220429180D0203740              AVSSH 0.3F W             CCN000006000000006000FN00000000020220501000006000NNM   20220306174720    1W    00000200000000515000000000032CJ    QNYHVQN 000000000000UQ224025
BI00B32CJ    TTQ2055        20220506180D0203740              AVSSH 0.3F W             CCN000004000000004000FN00000000020220501000004000NNM   20220306174720    1W    00000200000000515000000000032CJ    QNYHVQN 000000000000UQ324031
BI00B32CJ    TTQ2051        20220408180D0204040              AVSSH 0.75F W            CCN000011000000011000FN00000000020220501000011000NNM   20220306174720    1W    00000100000000934000000000032CJ    QNYHVQN 000000000000UQ423016
BI00B32CJ    TTQ2053        20220422180D0204040              AVSSH 0.75F W            CCN000014000000014000FN00000000020220501000014000NNM   20220306174720    1W    00000100000000934000000000032CJ    QNYHVQN 000000000000UQ124020
BI00B32CJ    TTQ2054        20220429180D0204040              AVSSH 0.75F W            CCN000018000000018000FN00000000020220501000018000NNM   20220306174720    1W    00000100000000934000000000032CJ    QNYHVQN 000000000000UQ224026
BI00B32CJ    TTQ2055        20220506180D0204040              AVSSH 0.75F W            CCN000014000000014000FN00000000020220501000014000NNM   20220306174720    1W    00000100000000934000000000032CJ    QNYHVQN 000000000000UQ324032
BI00B32CJ    TTQ2054        20220429180D0204130              AVSSH 1.25F B            CCN000015200000015200FN00000000020220501000015200NNM   20220306174720    1W    00000080000001458000000000032CJ    QNYHVQN 000000000000UQ224027
BI00B32CJ    TTQ2055        20220506180D0204130              AVSSH 1.25F B            CCN000063200000063200FN00000000020220501000063200NNM   20220306174720    1W    00000080000001458000000000032CJ    QNYHVQN 000000000000UQ324033
BI00B32CJ    TTQ2054        20220429180D0204180              AVSSH 1.25F BR           CCN000003200000003200FN00000000020220501000003200NNM   20220306174720    1W    00000080000001458000000000032CJ    QNYHVQN 000000000000UQ224028
BI00B32CJ    TTQ2055        20220506180D0204180              AVSSH 1.25F BR           CCN000011200000011200FN00000000020220501000011200NNM   20220306174720    1W    00000080000001458000000000032CJ    QNYHVQN 000000000000UQ324034
BI00B32CJ    TTQ2055        202205061801W006961              IVSSH 0.35F LG           CCN000015000000015000FN00000000020220501000015000NNM   20220306174720    1W    00000250000000452000000000032CJ    QNYHVQN 000000000000UQ324041
BI00B32CJ    TTQ2054        202204291801W006940              IVSSH 0.35F W            CCN000007500000007500FN00000000020220501000007500NNM   20220306174720    1W    00000250000000452000000000032CJ    QNYHVQN 000000000000UQ224035
BI00B32CJ    TTQ2055        202205061801W006940              IVSSH 0.35F W            CCN000007500000007500FN00000000020220501000007500NNM   20220306174720    1W    00000250000000452000000000032CJ    QNYHVQN 000000000000UQ324042
BI00B32CJ    TTQ2054        202204291801W004030              IVSSH 0.75F B            CCN000035100000035100FN00000000020220501000035100NNM   20220306174720    1W    00000130000000882000000000032CJ    QNYHVQN 000000000000UQ224032
BI00B32CJ    TTQ2055        202205061801W004030              IVSSH 0.75F B            CCN000027300000027300FN00000000020220501000027300NNM   20220306174720    1W    00000130000000882000000000032CJ    QNYHVQN 000000000000UQ324038
BI00B32CJ    TTQ2054        202204291801W004050              IVSSH 0.75F R            CCN000005200000005200FN00000000020220501000005200NNM   20220306174720    1W    00000130000000882000000000032CJ    QNYHVQN 000000000000UQ224033
BI00B32CJ    TTQ2055        202205061801W004050              IVSSH 0.75F R            CCN000029900000029900FN00000000020220501000029900NNM   20220306174720    1W    00000130000000882000000000032CJ    QNYHVQN 000000000000UQ324039
BI00B32CJ    TTQ2054        202204291801W004091              IVSSH 0.75F SB           CCN000005200000005200FN00000000020220501000005200NNM   20220306174720    1W    00000130000000882000000000032CJ    QNYHVQN 000000000000UQ224034
BI00B32CJ    TTQ2055        202205061801W004091              IVSSH 0.75F SB           CCN000007800000007800FN00000000020220501000007800NNM   20220306174720    1W    00000130000000882000000000032CJ    QNYHVQN 000000000000UQ324040
BI00B32CJ    @TTQ2051       20220408181B32012ZZ              AVSSCS 0.3FX2 DGY/BR     CCN000001400000001400FN00000000020220501000001400NNM   20220306174717    1W    00000035000002276000000000032CJ    QNYHVQN 000000000000UQ423014
BI00B32CJ    @TTQ2053       20220422181B32012ZZ              AVSSCS 0.3FX2 DGY/BR     CCN000001050000001050FN00000000020220501000001050NNM   20220306174717    1W    00000035000002276000000000032CJ    QNYHVQN 000000000000UQ124016
BI00B32CJ    @TTQ2054       20220429181B32012ZZ              AVSSCS 0.3FX2 DGY/BR     CCN000000700000000700FN00000000020220501000000700NNM   20220306174717    1W    00000035000002276000000000032CJ    QNYHVQN 000000000000UQ224017
BI00B32CJ    @TTQ2055       20220506181B32012ZZ              AVSSCS 0.3FX2 DGY/BR     CCN000000700000000700FN00000000020220501000000700NNM   20220306174717    1W    00000035000002276000000000032CJ    QNYHVQN 000000000000UQ324022
BI00B32CJ    @TTQ2054       20220429181E48027ZZ              CAVSAS-S 0.5X2 GY/P      CCN000000300000000300FN00000000020220501000000300NNM   20220306174717    1W    00000030000002561000000000032CJ    QNYHVQN 000000000000UQ224018
BI00B32CJ    @TTQ2055       20220506181E48027ZZ              CAVSAS-S 0.5X2 GY/P      CCN000001200000001200FN00000000020220501000001200NNM   20220306174717    1W    00000030000002561000000000032CJ    QNYHVQN 000000000000UQ324023
BI00B32CJ    @TTQ2054       20220429181E48029ZZ              CAVSAS-S 0.5X4 GY        CCN000000200000000200FN00000000020220501000000200NNM   20220306174717    1W    00000020000003995000000000032CJ    QNYHVQN 000000000000UQ224019
BI00B32CJ    @TTQ2055       20220506181E48029ZZ              CAVSAS-S 0.5X4 GY        CCN000001200000001200FN00000000020220501000001200NNM   20220306174717    1W    00000020000003995000000000032CJ    QNYHVQN 000000000000UQ324024
BI00B32CJ    @TTQ2055       20220506181E48031ZZ              CAVSAS-S 0.3X2 GY        CCN000009100000009100FN00000000020220501000009100NNM   20220306174717    1W    00000035000002008700000000032CJ    QNYHVQN 000000000000UQ324025
BI00B32CJ    @TTQ2053       20220422181AD2004ZZ              CIVUSAS-S 0.35X4 B       CCN000021000000021000FN00000000020220501000021000NNM   20220306174717    1W    00000030000002799900000000032CJ    QNYHVQN 000000000000UQ124015
BI00B32CJ    @TTQ2054       20220429181AD2004ZZ              CIVUSAS-S 0.35X4 B       CCN000021000000021000FN00000000020220501000021000NNM   20220306174717    1W    00000030000002799900000000032CJ    QNYHVQN 000000000000UQ224016
BI00B32CJ    @TTQ2055       20220506181AD2004ZZ              CIVUSAS-S 0.35X4 B       CCN000021000000021000FN00000000020220501000021000NNM   20220306174717    1W    00000030000002799900000000032CJ    QNYHVQN 000000000000UQ324021
BI00B32DE    TT2051         2022040718000004530              AV 8 B                   CCN000014400000014400FN00000000020220501000014400NNM   20220306101316    1W    00000010000010466200000000032DE    TVYEV-TV000000000000VT423049
BI00B32DE    TT2052         2022042118000004530              AV 8 B                   CCN000019800000019800FN00000000020220501000019800NNM   20220306101316    1W    00000010000010466200000000032DE    TVYEV-TV000000000000VT124067
BI00B32DE    TT2053         2022042818000004530              AV 8 B                   CCN000018000000018000FN00000000020220501000018000NNM   20220306101316    1W    00000010000010466200000000032DE    TVYEV-TV000000000000VT224080
BI00B32DE    TT2054         2022050518000004530              AV 8 B                   CCN000016200000016200FN00000000020220501000016200NNM   20220306101316    1W    00000010000010466200000000032DE    TVYEV-TV000000000000VT324085
BI00B32DE    TT2054         2022050518000004535              AV 8 B/R                 CCN000001800000001800FN00000000020220501000001800NNM   20220306101316    1W    00000010000010466200000000032DE    TVYEV-TV000000000000VT324086
BI00B32DE    TT2051         2022040718000004540              AV 8 W                   CCN000009000000009000FN00000000020220501000009000NNM   20220306101316    1W    00000010000010466200000000032DE    TVYEV-TV000000000000VT423050
BI00B32DE    TT2052         2022042118000004540              AV 8 W                   CCN000005400000005400FN00000000020220501000005400NNM   20220306101316    1W    00000010000010466200000000032DE    TVYEV-TV000000000000VT124068
BI00B32DE    TT2053         2022042818000004540              AV 8 W                   CCN000005400000005400FN00000000020220501000005400NNM   20220306101316    1W    00000010000010466200000000032DE    TVYEV-TV000000000000VT224081
BI00B32DE    TT2054         2022050518000004540              AV 8 W                   CCN000005400000005400FN00000000020220501000005400NNM   20220306101316    1W    00000010000010466200000000032DE    TVYEV-TV000000000000VT324087
BI00B32DE    TT2051         2022040718007703960              AVSS 0.5F G              CCN000003000000003000FN00000000020220501000003000NNM   20220306101316    1W    00000150000000674000000000032DE    TVYEV-TV000000000000VT423051
BI00B32DE    TT2052         2022042118007703960              AVSS 0.5F G              CCN000006000000006000FN00000000020220501000006000NNM   20220306101316    1W    00000150000000674000000000032DE    TVYEV-TV000000000000VT124069
BI00B32DE    TT2053         2022042818007703960              AVSS 0.5F G              CCN000003000000003000FN00000000020220501000003000NNM   20220306101316    1W    00000150000000674000000000032DE    TVYEV-TV000000000000VT224082
BI00B32DE    TT2054         2022050518007703960              AVSS 0.5F G              CCN000004500000004500FN00000000020220501000004500NNM   20220306101316    1W    00000150000000674000000000032DE    TVYEV-TV000000000000VT324088
BI00B32DE    TT2051         2022040718007703941              AVSS 0.5F GY             CCN000006000000006000FN00000000020220501000006000NNM   20220306101316    1W    00000150000000674000000000032DE    TVYEV-TV000000000000VT423052
BI00B32DE    TT2052         2022042118007703941              AVSS 0.5F GY             CCN000003000000003000FN00000000020220501000003000NNM   20220306101316    1W    00000150000000674000000000032DE    TVYEV-TV000000000000VT124070
BI00B32DE    TT2053         2022042818007703941              AVSS 0.5F GY             CCN000001500000001500FN00000000020220501000001500NNM   20220306101316    1W    00000150000000674000000000032DE    TVYEV-TV000000000000VT224083
BI00B32DE    TT2054         2022050518007703941              AVSS 0.5F GY             CCN000003000000003000FN00000000020220501000003000NNM   20220306101316    1W    00000150000000674000000000032DE    TVYEV-TV000000000000VT324089
BI00B32DE    TT2051         2022040718007703990              AVSS 0.5F L              CCN000004500000004500FN00000000020220501000004500NNM   20220306101316    1W    00000150000000674000000000032DE    TVYEV-TV000000000000VT423053
BI00B32DE    TT2052         2022042118007703990              AVSS 0.5F L              CCN000001500000001500FN00000000020220501000001500NNM   20220306101316    1W    00000150000000674000000000032DE    TVYEV-TV000000000000VT124071
BI00B32DE    TT2053         2022042818007703990              AVSS 0.5F L              CCN000003000000003000FN00000000020220501000003000NNM   20220306101316    1W    00000150000000674000000000032DE    TVYEV-TV000000000000VT224084
BI00B32DE    TT2054         2022050518007703990              AVSS 0.5F L              CCN000001500000001500FN00000000020220501000001500NNM   20220306101316    1W    00000150000000674000000000032DE    TVYEV-TV000000000000VT324090
BI00B32DE    TT2051         2022040718007703940              AVSS 0.5F W              CCN000003000000003000FN00000000020220501000003000NNM   20220306101316    1W    00000150000000674000000000032DE    TVYEV-TV000000000000VT423054
BI00B32DE    TT2052         2022042118007703940              AVSS 0.5F W              CCN000004500000004500FN00000000020220501000004500NNM   20220306101316    1W    00000150000000674000000000032DE    TVYEV-TV000000000000VT124072
BI00B32DE    TT2053         2022042818007703940              AVSS 0.5F W              CCN000001500000001500FN00000000020220501000001500NNM   20220306101316    1W    00000150000000674000000000032DE    TVYEV-TV000000000000VT224085
BI00B32DE    TT2054         2022050518007703940              AVSS 0.5F W              CCN000003000000003000FN00000000020220501000003000NNM   20220306101316    1W    00000150000000674000000000032DE    TVYEV-TV000000000000VT324091
BI00B32DE    TT2053         20220428180D0203730              AVSSH 0.3F B             CCN000002000000002000FN00000000020220501000002000NNM   20220306101316    1W    00000200000000515000000000032DE    TVYEV-TV000000000000VT224036
BI00B32DE    TT2051         20220407180D0203739              AVSSH 0.3F B/L           CCN000002000000002000FN00000000020220501000002000NNM   20220306101316    1W    00000200000000515000000000032DE    TVYEV-TV000000000000VT423021
BI00B32DE    TT2053         20220428180D0203735              AVSSH 0.3F B/R           CCN000002000000002000FN00000000020220501000002000NNM   20220306101316    1W    00000200000000515000000000032DE    TVYEV-TV000000000000VT224037
BI00B32DE    TT2051         20220407180D0203780              AVSSH 0.3F BR            CCN000002000000002000FN00000000020220501000002000NNM   20220306101316    1W    00000200000000515000000000032DE    TVYEV-TV000000000000VT423022
BI00B32DE    TT2053         20220428180D0203780              AVSSH 0.3F BR            CCN000002000000002000FN00000000020220501000002000NNM   20220306101316    1W    00000200000000515000000000032DE    TVYEV-TV000000000000VT224038
BI00B32DE    TT2054         20220505180D0203780              AVSSH 0.3F BR            CCN000002000000002000FN00000000020220501000002000NNM   20220306101316    1W    00000200000000515000000000032DE    TVYEV-TV000000000000VT324039
BI00B32DE    TT2051         20220407180D0203764              AVSSH 0.3F G/W           CCN000002000000002000FN00000000020220501000002000NNM   20220306101316    1W    00000200000000515000000000032DE    TVYEV-TV000000000000VT423023
BI00B32DE    TT2053         20220428180D0203764              AVSSH 0.3F G/W           CCN000002000000002000FN00000000020220501000002000NNM   20220306101316    1W    00000200000000515000000000032DE    TVYEV-TV000000000000VT224039
BI00B32DE    TT2054         20220505180D0203764              AVSSH 0.3F G/W           CCN000002000000002000FN00000000020220501000002000NNM   20220306101316    1W    00000200000000515000000000032DE    TVYEV-TV000000000000VT324040
BI00B32DE    TT2052         20220421180D0203790              AVSSH 0.3F L             CCN000002000000002000FN00000000020220501000002000NNM   20220306101316    1W    00000200000000515000000000032DE    TVYEV-TV000000000000VT124031
BI00B32DE    TT2053         20220428180D0203790              AVSSH 0.3F L             CCN000002000000002000FN00000000020220501000002000NNM   20220306101316    1W    00000200000000515000000000032DE    TVYEV-TV000000000000VT224040
BI00B32DE    TT2054         20220505180D0203790              AVSSH 0.3F L             CCN000002000000002000FN00000000020220501000002000NNM   20220306101316    1W    00000200000000515000000000032DE    TVYEV-TV000000000000VT324041
BI00B32DE    TT2051         20220407180D0203793              AVSSH 0.3F L/B           CCN000002000000002000FN00000000020220501000002000NNM   20220306101316    1W    00000200000000515000000000032DE    TVYEV-TV000000000000VT423024
BI00B32DE    TT2052         20220421180D0203793              AVSSH 0.3F L/B           CCN000002000000002000FN00000000020220501000002000NNM   20220306101316    1W    00000200000000515000000000032DE    TVYEV-TV000000000000VT124032
BI00B32DE    TT2054         20220505180D0203793              AVSSH 0.3F L/B           CCN000002000000002000FN00000000020220501000002000NNM   20220306101316    1W    00000200000000515000000000032DE    TVYEV-TV000000000000VT324042
BI00B32DE    TT2053         20220428180D0203752              AVSSH 0.3F P             CCN000002000000002000FN00000000020220501000002000NNM   20220306101316    1W    00000200000000515000000000032DE    TVYEV-TV000000000000VT224041
BI00B32DE    TT2054         20220505180D0203752              AVSSH 0.3F P             CCN000002000000002000FN00000000020220501000002000NNM   20220306101316    1W    00000200000000515000000000032DE    TVYEV-TV000000000000VT324043
BI00B32DE    TT2051         20220407180D0203750              AVSSH 0.3F R             CCN000002000000002000FN00000000020220501000002000NNM   20220306101316    1W    00000200000000515000000000032DE    TVYEV-TV000000000000VT423025
BI00B32DE    TT2053         20220428180D0203750              AVSSH 0.3F R             CCN000002000000002000FN00000000020220501000002000NNM   20220306101316    1W    00000200000000515000000000032DE    TVYEV-TV000000000000VT224042
BI00B32DE    TT2051         20220407180D0203753              AVSSH 0.3F R/B           CCN000002000000002000FN00000000020220501000002000NNM   20220306101316    1W    00000200000000515000000000032DE    TVYEV-TV000000000000VT423026
BI00B32DE    TT2051         20220407180D0203757              AVSSH 0.3F R/Y           CCN000002000000002000FN00000000020220501000002000NNM   20220306101316    1W    00000200000000515000000000032DE    TVYEV-TV000000000000VT423027
BI00B32DE    TT2053         20220428180D0203792              AVSSH 0.3F V             CCN000002000000002000FN00000000020220501000002000NNM   20220306101316    1W    00000200000000515000000000032DE    TVYEV-TV000000000000VT224043
BI00B32DE    TT2051         20220407180D0203773              AVSSH 0.3F Y/B           CCN000002000000002000FN00000000020220501000002000NNM   20220306101316    1W    00000200000000515000000000032DE    TVYEV-TV000000000000VT423028
BI00B32DE    TT2052         20220421180D0203773              AVSSH 0.3F Y/B           CCN000002000000002000FN00000000020220501000002000NNM   20220306101316    1W    00000200000000515000000000032DE    TVYEV-TV000000000000VT124033
BI00B32DE    TT2054         20220505180D0203773              AVSSH 0.3F Y/B           CCN000002000000002000FN00000000020220501000002000NNM   20220306101316    1W    00000200000000515000000000032DE    TVYEV-TV000000000000VT324044
BI00B32DE    TT2051         20220407180D0203930              AVSSH 0.5F B             CCN000030000000030000FN00000000020220501000030000NNM   20220306101316    1W    00000150000000689000000000032DE    TVYEV-TV000000000000VT423029
BI00B32DE    TT2052         20220421180D0203930              AVSSH 0.5F B             CCN000016500000016500FN00000000020220501000016500NNM   20220306101316    1W    00000150000000689000000000032DE    TVYEV-TV000000000000VT124034
BI00B32DE    TT2053         20220428180D0203930              AVSSH 0.5F B             CCN000015000000015000FN00000000020220501000015000NNM   20220306101316    1W    00000150000000689000000000032DE    TVYEV-TV000000000000VT224044
BI00B32DE    TT2054         20220505180D0203930              AVSSH 0.5F B             CCN000015000000015000FN00000000020220501000015000NNM   20220306101316    1W    00000150000000689000000000032DE    TVYEV-TV000000000000VT324045
BI00B32DE    TT2051         20220407180D0203935              AVSSH 0.5F B/R           CCN000006000000006000FN00000000020220501000006000NNM   20220306101316    1W    00000150000000689000000000032DE    TVYEV-TV000000000000VT423030
BI00B32DE    TT2052         20220421180D0203935              AVSSH 0.5F B/R           CCN000003000000003000FN00000000020220501000003000NNM   20220306101316    1W    00000150000000689000000000032DE    TVYEV-TV000000000000VT124035
BI00B32DE    TT2053         20220428180D0203935              AVSSH 0.5F B/R           CCN000004500000004500FN00000000020220501000004500NNM   20220306101316    1W    00000150000000689000000000032DE    TVYEV-TV000000000000VT224045
BI00B32DE    TT2054         20220505180D0203935              AVSSH 0.5F B/R           CCN000003000000003000FN00000000020220501000003000NNM   20220306101316    1W    00000150000000689000000000032DE    TVYEV-TV000000000000VT324046
BI00B32DE    TT2052         20220421180D0203934              AVSSH 0.5F B/W           CCN000003000000003000FN00000000020220501000003000NNM   20220306101316    1W    00000150000000689000000000032DE    TVYEV-TV000000000000VT124036
BI00B32DE    TT2053         20220428180D0203934              AVSSH 0.5F B/W           CCN000001500000001500FN00000000020220501000001500NNM   20220306101316    1W    00000150000000689000000000032DE    TVYEV-TV000000000000VT224046
BI00B32DE    TT2054         20220505180D0203934              AVSSH 0.5F B/W           CCN000001500000001500FN00000000020220501000001500NNM   20220306101316    1W    00000150000000689000000000032DE    TVYEV-TV000000000000VT324047
BI00B32DE    TT2051         20220407180D0203937              AVSSH 0.5F B/Y           CCN000003000000003000FN00000000020220501000003000NNM   20220306101316    1W    00000150000000689000000000032DE    TVYEV-TV000000000000VT423031
BI00B32DE    TT2052         20220421180D0203937              AVSSH 0.5F B/Y           CCN000003000000003000FN00000000020220501000003000NNM   20220306101316    1W    00000150000000689000000000032DE    TVYEV-TV000000000000VT124037
BI00B32DE    TT2053         20220428180D0203937              AVSSH 0.5F B/Y           CCN000003000000003000FN00000000020220501000003000NNM   20220306101316    1W    00000150000000689000000000032DE    TVYEV-TV000000000000VT224047
BI00B32DE    TT2054         20220505180D0203937              AVSSH 0.5F B/Y           CCN000001500000001500FN00000000020220501000001500NNM   20220306101316    1W    00000150000000689000000000032DE    TVYEV-TV000000000000VT324048
BI00B32DE    TT2053         20220428180D0203980              AVSSH 0.5F BR            CCN000012000000012000FN00000000020220501000012000NNM   20220306101316    1W    00000150000000689000000000032DE    TVYEV-TV000000000000VT224048
BI00B32DE    TT2054         20220505180D0203980              AVSSH 0.5F BR            CCN000012000000012000FN00000000020220501000012000NNM   20220306101316    1W    00000150000000689000000000032DE    TVYEV-TV000000000000VT324049
BI00B32DE    TT2052         20220421180D0203960              AVSSH 0.5F G             CCN000015000000015000FN00000000020220501000015000NNM   20220306101316    1W    00000150000000689000000000032DE    TVYEV-TV000000000000VT124038
BI00B32DE    TT2053         20220428180D0203960              AVSSH 0.5F G             CCN000018000000018000FN00000000020220501000018000NNM   20220306101316    1W    00000150000000689000000000032DE    TVYEV-TV000000000000VT224049
BI00B32DE    TT2054         20220505180D0203960              AVSSH 0.5F G             CCN000018000000018000FN00000000020220501000018000NNM   20220306101316    1W    00000150000000689000000000032DE    TVYEV-TV000000000000VT324050
BI00B32DE    TT2054         20220505180D0203963              AVSSH 0.5F G/B           CCN000001500000001500FN00000000020220501000001500NNM   20220306101316    1W    00000150000000689000000000032DE    TVYEV-TV000000000000VT324051
BI00B32DE    TT2052         20220421180D0203965              AVSSH 0.5F G/R           CCN000003000000003000FN00000000020220501000003000NNM   20220306101316    1W    00000150000000689000000000032DE    TVYEV-TV000000000000VT124039
BI00B32DE    TT2053         20220428180D0203965              AVSSH 0.5F G/R           CCN000003000000003000FN00000000020220501000003000NNM   20220306101316    1W    00000150000000689000000000032DE    TVYEV-TV000000000000VT224050
BI00B32DE    TT2054         20220505180D0203965              AVSSH 0.5F G/R           CCN000003000000003000FN00000000020220501000003000NNM   20220306101316    1W    00000150000000689000000000032DE    TVYEV-TV000000000000VT324052
BI00B32DE    TT2053         20220428180D0203941              AVSSH 0.5F GY            CCN000015000000015000FN00000000020220501000015000NNM   20220306101316    1W    00000150000000689000000000032DE    TVYEV-TV000000000000VT224051
BI00B32DE    TT2054         20220505180D0203941              AVSSH 0.5F GY            CCN000016500000016500FN00000000020220501000016500NNM   20220306101316    1W    00000150000000689000000000032DE    TVYEV-TV000000000000VT324053
BI00B32DE    TT2052         20220421180D0203990              AVSSH 0.5F L             CCN000019500000019500FN00000000020220501000019500NNM   20220306101316    1W    00000150000000689000000000032DE    TVYEV-TV000000000000VT124040
BI00B32DE    TT2053         20220428180D0203990              AVSSH 0.5F L             CCN000027000000027000FN00000000020220501000027000NNM   20220306101316    1W    00000150000000689000000000032DE    TVYEV-TV000000000000VT224052
BI00B32DE    TT2054         20220505180D0203990              AVSSH 0.5F L             CCN000025500000025500FN00000000020220501000025500NNM   20220306101316    1W    00000150000000689000000000032DE    TVYEV-TV000000000000VT324054
BI00B32DE    TT2054         20220505180D0203993              AVSSH 0.5F L/B           CCN000001500000001500FN00000000020220501000001500NNM   20220306101316    1W    00000150000000689000000000032DE    TVYEV-TV000000000000VT324055
BI00B32DE    TT2054         20220505180D0203995              AVSSH 0.5F L/R           CCN000004500000004500FN00000000020220501000004500NNM   20220306101316    1W    00000150000000689000000000032DE    TVYEV-TV000000000000VT324056
BI00B32DE    TT2052         20220421180D0203994              AVSSH 0.5F L/W           CCN000006000000006000FN00000000020220501000006000NNM   20220306101316    1W    00000150000000689000000000032DE    TVYEV-TV000000000000VT124041
BI00B32DE    TT2053         20220428180D0203994              AVSSH 0.5F L/W           CCN000009000000009000FN00000000020220501000009000NNM   20220306101316    1W    00000150000000689000000000032DE    TVYEV-TV000000000000VT224053
BI00B32DE    TT2054         20220505180D0203994              AVSSH 0.5F L/W           CCN000007500000007500FN00000000020220501000007500NNM   20220306101316    1W    00000150000000689000000000032DE    TVYEV-TV000000000000VT324057
BI00B32DE    TT2052         20220421180D0203997              AVSSH 0.5F L/Y           CCN000001500000001500FN00000000020220501000001500NNM   20220306101316    1W    00000150000000689000000000032DE    TVYEV-TV000000000000VT124042
BI00B32DE    TT2053         20220428180D0203997              AVSSH 0.5F L/Y           CCN000001500000001500FN00000000020220501000001500NNM   20220306101316    1W    00000150000000689000000000032DE    TVYEV-TV000000000000VT224054
BI00B32DE    TT2054         20220505180D0203997              AVSSH 0.5F L/Y           CCN000001500000001500FN00000000020220501000001500NNM   20220306101316    1W    00000150000000689000000000032DE    TVYEV-TV000000000000VT324058
BI00B32DE    TT2052         20220421180D0203961              AVSSH 0.5F LG            CCN000001500000001500FN00000000020220501000001500NNM   20220306101316    1W    00000150000000689000000000032DE    TVYEV-TV000000000000VT124043
BI00B32DE    TT2053         20220428180D0203961              AVSSH 0.5F LG            CCN000019500000019500FN00000000020220501000019500NNM   20220306101316    1W    00000150000000689000000000032DE    TVYEV-TV000000000000VT224055
BI00B32DE    TT2054         20220505180D0203961              AVSSH 0.5F LG            CCN000019500000019500FN00000000020220501000019500NNM   20220306101316    1W    00000150000000689000000000032DE    TVYEV-TV000000000000VT324059
BI00B32DE    TT2053         20220428180D0203952              AVSSH 0.5F P             CCN000009000000009000FN00000000020220501000009000NNM   20220306101316    1W    00000150000000689000000000032DE    TVYEV-TV000000000000VT224056
BI00B32DE    TT2054         20220505180D0203952              AVSSH 0.5F P             CCN000015000000015000FN00000000020220501000015000NNM   20220306101316    1W    00000150000000689000000000032DE    TVYEV-TV000000000000VT324060
BI00B32DE    TT2053         20220428180D02039G6              AVSSH 0.5F P/L           CCN000001500000001500FN00000000020220501000001500NNM   20220306101316    1W    00000150000000689000000000032DE    TVYEV-TV000000000000VT224057
BI00B32DE    TT2052         20220421180D0203950              AVSSH 0.5F R             CCN000013500000013500FN00000000020220501000013500NNM   20220306101316    1W    00000150000000689000000000032DE    TVYEV-TV000000000000VT124044
BI00B32DE    TT2053         20220428180D0203950              AVSSH 0.5F R             CCN000012000000012000FN00000000020220501000012000NNM   20220306101316    1W    00000150000000689000000000032DE    TVYEV-TV000000000000VT224058
BI00B32DE    TT2054         20220505180D0203950              AVSSH 0.5F R             CCN000013500000013500FN00000000020220501000013500NNM   20220306101316    1W    00000150000000689000000000032DE    TVYEV-TV000000000000VT324061
BI00B32DE    TT2054         20220505180D0203954              AVSSH 0.5F R/W           CCN000001500000001500FN00000000020220501000001500NNM   20220306101316    1W    00000150000000689000000000032DE    TVYEV-TV000000000000VT324062
BI00B32DE    TT2052         20220421180D0203992              AVSSH 0.5F V             CCN000007500000007500FN00000000020220501000007500NNM   20220306101316    1W    00000150000000689000000000032DE    TVYEV-TV000000000000VT124045
BI00B32DE    TT2053         20220428180D0203992              AVSSH 0.5F V             CCN000007500000007500FN00000000020220501000007500NNM   20220306101316    1W    00000150000000689000000000032DE    TVYEV-TV000000000000VT224059
BI00B32DE    TT2054         20220505180D0203992              AVSSH 0.5F V             CCN000007500000007500FN00000000020220501000007500NNM   20220306101316    1W    00000150000000689000000000032DE    TVYEV-TV000000000000VT324063
BI00B32DE    TT2051         20220407180D0203940              AVSSH 0.5F W             CCN000013500000013500FN00000000020220501000013500NNM   20220306101316    1W    00000150000000689000000000032DE    TVYEV-TV000000000000VT423032
BI00B32DE    TT2052         20220421180D0203940              AVSSH 0.5F W             CCN000027000000027000FN00000000020220501000027000NNM   20220306101316    1W    00000150000000689000000000032DE    TVYEV-TV000000000000VT124046
BI00B32DE    TT2053         20220428180D0203940              AVSSH 0.5F W             CCN000021000000021000FN00000000020220501000021000NNM   20220306101316    1W    00000150000000689000000000032DE    TVYEV-TV000000000000VT224060
BI00B32DE    TT2054         20220505180D0203940              AVSSH 0.5F W             CCN000022500000022500FN00000000020220501000022500NNM   20220306101316    1W    00000150000000689000000000032DE    TVYEV-TV000000000000VT324064
BI00B32DE    TT2052         20220421180D0203943              AVSSH 0.5F W/B           CCN000001500000001500FN00000000020220501000001500NNM   20220306101316    1W    00000150000000689000000000032DE    TVYEV-TV000000000000VT124047
BI00B32DE    TT2053         20220428180D0203943              AVSSH 0.5F W/B           CCN000004500000004500FN00000000020220501000004500NNM   20220306101316    1W    00000150000000689000000000032DE    TVYEV-TV000000000000VT224061
BI00B32DE    TT2054         20220505180D0203943              AVSSH 0.5F W/B           CCN000006000000006000FN00000000020220501000006000NNM   20220306101316    1W    00000150000000689000000000032DE    TVYEV-TV000000000000VT324065
BI00B32DE    TT2051         20220407180D0203946              AVSSH 0.5F W/G           CCN000004500000004500FN00000000020220501000004500NNM   20220306101316    1W    00000150000000689000000000032DE    TVYEV-TV000000000000VT423033
BI00B32DE    TT2052         20220421180D0203946              AVSSH 0.5F W/G           CCN000001500000001500FN00000000020220501000001500NNM   20220306101316    1W    00000150000000689000000000032DE    TVYEV-TV000000000000VT124048
BI00B32DE    TT2053         20220428180D0203946              AVSSH 0.5F W/G           CCN000003000000003000FN00000000020220501000003000NNM   20220306101316    1W    00000150000000689000000000032DE    TVYEV-TV000000000000VT224062
BI00B32DE    TT2054         20220505180D0203946              AVSSH 0.5F W/G           CCN000001500000001500FN00000000020220501000001500NNM   20220306101316    1W    00000150000000689000000000032DE    TVYEV-TV000000000000VT324066
BI00B32DE    TT2052         20220421180D0203970              AVSSH 0.5F Y             CCN000012000000012000FN00000000020220501000012000NNM   20220306101316    1W    00000150000000689000000000032DE    TVYEV-TV000000000000VT124049
BI00B32DE    TT2053         20220428180D0203970              AVSSH 0.5F Y             CCN000012000000012000FN00000000020220501000012000NNM   20220306101316    1W    00000150000000689000000000032DE    TVYEV-TV000000000000VT224063
BI00B32DE    TT2054         20220505180D0203970              AVSSH 0.5F Y             CCN000013500000013500FN00000000020220501000013500NNM   20220306101316    1W    00000150000000689000000000032DE    TVYEV-TV000000000000VT324067
BI00B32DE    TT2051         20220407180D0203976              AVSSH 0.5F Y/G           CCN000007500000007500FN00000000020220501000007500NNM   20220306101316    1W    00000150000000689000000000032DE    TVYEV-TV000000000000VT423034
BI00B32DE    TT2052         20220421180D0203976              AVSSH 0.5F Y/G           CCN000004500000004500FN00000000020220501000004500NNM   20220306101316    1W    00000150000000689000000000032DE    TVYEV-TV000000000000VT124050
BI00B32DE    TT2053         20220428180D0203976              AVSSH 0.5F Y/G           CCN000004500000004500FN00000000020220501000004500NNM   20220306101316    1W    00000150000000689000000000032DE    TVYEV-TV000000000000VT224064
BI00B32DE    TT2054         20220505180D0203976              AVSSH 0.5F Y/G           CCN000003000000003000FN00000000020220501000003000NNM   20220306101316    1W    00000150000000689000000000032DE    TVYEV-TV000000000000VT324068
BI00B32DE    TT2052         20220421180D0204080              AVSSH 0.75F BR           CCN000008000000008000FN00000000020220501000008000NNM   20220306101316    1W    00000100000000934000000000032DE    TVYEV-TV000000000000VT124051
BI00B32DE    TT2053         20220428180D0204080              AVSSH 0.75F BR           CCN000009000000009000FN00000000020220501000009000NNM   20220306101316    1W    00000100000000934000000000032DE    TVYEV-TV000000000000VT224065
BI00B32DE    TT2054         20220505180D0204080              AVSSH 0.75F BR           CCN000008000000008000FN00000000020220501000008000NNM   20220306101316    1W    00000100000000934000000000032DE    TVYEV-TV000000000000VT324069
BI00B32DE    TT2051         20220407180D0204060              AVSSH 0.75F G            CCN000001000000001000FN00000000020220501000001000NNM   20220306101316    1W    00000100000000934000000000032DE    TVYEV-TV000000000000VT423035
BI00B32DE    TT2052         20220421180D0204060              AVSSH 0.75F G            CCN000001000000001000FN00000000020220501000001000NNM   20220306101316    1W    00000100000000934000000000032DE    TVYEV-TV000000000000VT124052
BI00B32DE    TT2053         20220428180D0204060              AVSSH 0.75F G            CCN000001000000001000FN00000000020220501000001000NNM   20220306101316    1W    00000100000000934000000000032DE    TVYEV-TV000000000000VT224066
BI00B32DE    TT2054         20220505180D0204060              AVSSH 0.75F G            CCN000002000000002000FN00000000020220501000002000NNM   20220306101316    1W    00000100000000934000000000032DE    TVYEV-TV000000000000VT324070
BI00B32DE    TT2052         20220421180D0204050              AVSSH 0.75F R            CCN000001000000001000FN00000000020220501000001000NNM   20220306101316    1W    00000100000000934000000000032DE    TVYEV-TV000000000000VT124053
BI00B32DE    TT2051         20220407180D0204043              AVSSH 0.75F W/B          CCN000007000000007000FN00000000020220501000007000NNM   20220306101316    1W    00000100000000934000000000032DE    TVYEV-TV000000000000VT423036
BI00B32DE    TT2052         20220421180D0204043              AVSSH 0.75F W/B          CCN000007000000007000FN00000000020220501000007000NNM   20220306101316    1W    00000100000000934000000000032DE    TVYEV-TV000000000000VT124054
BI00B32DE    TT2053         20220428180D0204043              AVSSH 0.75F W/B          CCN000006000000006000FN00000000020220501000006000NNM   20220306101316    1W    00000100000000934000000000032DE    TVYEV-TV000000000000VT224067
BI00B32DE    TT2054         20220505180D0204043              AVSSH 0.75F W/B          CCN000007000000007000FN00000000020220501000007000NNM   20220306101316    1W    00000100000000934000000000032DE    TVYEV-TV000000000000VT324071
BI00B32DE    TT2051         20220407180D0204130              AVSSH 1.25F B            CCN000023200000023200FN00000000020220501000023200NNM   20220306101316    1W    00000080000001458000000000032DE    TVYEV-TV000000000000VT423037
BI00B32DE    TT2052         20220421180D0204130              AVSSH 1.25F B            CCN000012000000012000FN00000000020220501000012000NNM   20220306101316    1W    00000080000001458000000000032DE    TVYEV-TV000000000000VT124055
BI00B32DE    TT2053         20220428180D0204130              AVSSH 1.25F B            CCN000011200000011200FN00000000020220501000011200NNM   20220306101316    1W    00000080000001458000000000032DE    TVYEV-TV000000000000VT224068
BI00B32DE    TT2054         20220505180D0204130              AVSSH 1.25F B            CCN000010400000010400FN00000000020220501000010400NNM   20220306101316    1W    00000080000001458000000000032DE    TVYEV-TV000000000000VT324072
BI00B32DE    TT2051         20220407180D0204135              AVSSH 1.25F B/R          CCN000001600000001600FN00000000020220501000001600NNM   20220306101316    1W    00000080000001458000000000032DE    TVYEV-TV000000000000VT423038
BI00B32DE    TT2052         20220421180D0204135              AVSSH 1.25F B/R          CCN000002400000002400FN00000000020220501000002400NNM   20220306101316    1W    00000080000001458000000000032DE    TVYEV-TV000000000000VT124056
BI00B32DE    TT2053         20220428180D0204135              AVSSH 1.25F B/R          CCN000002400000002400FN00000000020220501000002400NNM   20220306101316    1W    00000080000001458000000000032DE    TVYEV-TV000000000000VT224069
BI00B32DE    TT2054         20220505180D0204135              AVSSH 1.25F B/R          CCN000001600000001600FN00000000020220501000001600NNM   20220306101316    1W    00000080000001458000000000032DE    TVYEV-TV000000000000VT324073
BI00B32DE    TT2051         20220407180D0204134              AVSSH 1.25F B/W          CCN000001600000001600FN00000000020220501000001600NNM   20220306101316    1W    00000080000001458000000000032DE    TVYEV-TV000000000000VT423039
BI00B32DE    TT2052         20220421180D0204134              AVSSH 1.25F B/W          CCN000000800000000800FN00000000020220501000000800NNM   20220306101316    1W    00000080000001458000000000032DE    TVYEV-TV000000000000VT124057
BI00B32DE    TT2053         20220428180D0204134              AVSSH 1.25F B/W          CCN000000800000000800FN00000000020220501000000800NNM   20220306101316    1W    00000080000001458000000000032DE    TVYEV-TV000000000000VT224070
BI00B32DE    TT2054         20220505180D0204134              AVSSH 1.25F B/W          CCN000001600000001600FN00000000020220501000001600NNM   20220306101316    1W    00000080000001458000000000032DE    TVYEV-TV000000000000VT324074
BI00B32DE    TT2051         20220407180D0204180              AVSSH 1.25F BR           CCN000010400000010400FN00000000020220501000010400NNM   20220306101316    1W    00000080000001458000000000032DE    TVYEV-TV000000000000VT423040
BI00B32DE    TT2052         20220421180D0204180              AVSSH 1.25F BR           CCN000015200000015200FN00000000020220501000015200NNM   20220306101316    1W    00000080000001458000000000032DE    TVYEV-TV000000000000VT124058
BI00B32DE    TT2053         20220428180D0204180              AVSSH 1.25F BR           CCN000012000000012000FN00000000020220501000012000NNM   20220306101316    1W    00000080000001458000000000032DE    TVYEV-TV000000000000VT224071
BI00B32DE    TT2054         20220505180D0204180              AVSSH 1.25F BR           CCN000012800000012800FN00000000020220501000012800NNM   20220306101316    1W    00000080000001458000000000032DE    TVYEV-TV000000000000VT324075
BI00B32DE    TT2051         20220407180D0204160              AVSSH 1.25F G            CCN000000800000000800FN00000000020220501000000800NNM   20220306101316    1W    00000080000001458000000000032DE    TVYEV-TV000000000000VT423041
BI00B32DE    TT2052         20220421180D0204160              AVSSH 1.25F G            CCN000001600000001600FN00000000020220501000001600NNM   20220306101316    1W    00000080000001458000000000032DE    TVYEV-TV000000000000VT124059
BI00B32DE    TT2053         20220428180D0204160              AVSSH 1.25F G            CCN000001600000001600FN00000000020220501000001600NNM   20220306101316    1W    00000080000001458000000000032DE    TVYEV-TV000000000000VT224072
BI00B32DE    TT2054         20220505180D0204160              AVSSH 1.25F G            CCN000001600000001600FN00000000020220501000001600NNM   20220306101316    1W    00000080000001458000000000032DE    TVYEV-TV000000000000VT324076
BI00B32DE    TT2051         20220407180D0204190              AVSSH 1.25F L            CCN000012000000012000FN00000000020220501000012000NNM   20220306101316    1W    00000080000001458000000000032DE    TVYEV-TV000000000000VT423042
BI00B32DE    TT2052         20220421180D0204190              AVSSH 1.25F L            CCN000007200000007200FN00000000020220501000007200NNM   20220306101316    1W    00000080000001458000000000032DE    TVYEV-TV000000000000VT124060
BI00B32DE    TT2053         20220428180D0204190              AVSSH 1.25F L            CCN000006400000006400FN00000000020220501000006400NNM   20220306101316    1W    00000080000001458000000000032DE    TVYEV-TV000000000000VT224073
BI00B32DE    TT2054         20220505180D0204190              AVSSH 1.25F L            CCN000006400000006400FN00000000020220501000006400NNM   20220306101316    1W    00000080000001458000000000032DE    TVYEV-TV000000000000VT324077
BI00B32DE    TT2051         20220407180D0204195              AVSSH 1.25F L/R          CCN000000800000000800FN00000000020220501000000800NNM   20220306101316    1W    00000080000001458000000000032DE    TVYEV-TV000000000000VT423043
BI00B32DE    TT2053         20220428180D0204195              AVSSH 1.25F L/R          CCN000000800000000800FN00000000020220501000000800NNM   20220306101316    1W    00000080000001458000000000032DE    TVYEV-TV000000000000VT224074
BI00B32DE    TT2054         20220505180D0204195              AVSSH 1.25F L/R          CCN000000800000000800FN00000000020220501000000800NNM   20220306101316    1W    00000080000001458000000000032DE    TVYEV-TV000000000000VT324078
BI00B32DE    TT2051         20220407180D0204150              AVSSH 1.25F R            CCN000005600000005600FN00000000020220501000005600NNM   20220306101316    1W    00000080000001458000000000032DE    TVYEV-TV000000000000VT423044
BI00B32DE    TT2052         20220421180D0204150              AVSSH 1.25F R            CCN000004800000004800FN00000000020220501000004800NNM   20220306101316    1W    00000080000001458000000000032DE    TVYEV-TV000000000000VT124061
BI00B32DE    TT2053         20220428180D0204150              AVSSH 1.25F R            CCN000004000000004000FN00000000020220501000004000NNM   20220306101316    1W    00000080000001458000000000032DE    TVYEV-TV000000000000VT224075
BI00B32DE    TT2054         20220505180D0204150              AVSSH 1.25F R            CCN000004000000004000FN00000000020220501000004000NNM   20220306101316    1W    00000080000001458000000000032DE    TVYEV-TV000000000000VT324079
BI00B32DE    TT2051         20220407180D0204153              AVSSH 1.25F R/B          CCN000005600000005600FN00000000020220501000005600NNM   20220306101316    1W    00000080000001458000000000032DE    TVYEV-TV000000000000VT423045
BI00B32DE    TT2052         20220421180D0204153              AVSSH 1.25F R/B          CCN000003200000003200FN00000000020220501000003200NNM   20220306101316    1W    00000080000001458000000000032DE    TVYEV-TV000000000000VT124062
BI00B32DE    TT2053         20220428180D0204153              AVSSH 1.25F R/B          CCN000002400000002400FN00000000020220501000002400NNM   20220306101316    1W    00000080000001458000000000032DE    TVYEV-TV000000000000VT224076
BI00B32DE    TT2054         20220505180D0204153              AVSSH 1.25F R/B          CCN000002400000002400FN00000000020220501000002400NNM   20220306101316    1W    00000080000001458000000000032DE    TVYEV-TV000000000000VT324080
BI00B32DE    TT2051         20220407180D0204159              AVSSH 1.25F R/L          CCN000000800000000800FN00000000020220501000000800NNM   20220306101316    1W    00000080000001458000000000032DE    TVYEV-TV000000000000VT423046
BI00B32DE    TT2052         20220421180D0204159              AVSSH 1.25F R/L          CCN000000800000000800FN00000000020220501000000800NNM   20220306101316    1W    00000080000001458000000000032DE    TVYEV-TV000000000000VT124063
BI00B32DE    TT2054         20220505180D0204159              AVSSH 1.25F R/L          CCN000000800000000800FN00000000020220501000000800NNM   20220306101316    1W    00000080000001458000000000032DE    TVYEV-TV000000000000VT324081
BI00B32DE    TT2052         20220421180D0204140              AVSSH 1.25F W            CCN000000800000000800FN00000000020220501000000800NNM   20220306101316    1W    00000080000001458000000000032DE    TVYEV-TV000000000000VT124064
BI00B32DE    TT2053         20220428180D0204140              AVSSH 1.25F W            CCN000000800000000800FN00000000020220501000000800NNM   20220306101316    1W    00000080000001458000000000032DE    TVYEV-TV000000000000VT224077
BI00B32DE    TT2054         20220505180D0204140              AVSSH 1.25F W            CCN000001600000001600FN00000000020220501000001600NNM   20220306101316    1W    00000080000001458000000000032DE    TVYEV-TV000000000000VT324082
BI00B32DE    TT2051         20220407180D0204143              AVSSH 1.25F W/B          CCN000057600000057600FN00000000020220501000057600NNM   20220306101316    1W    00000080000001458000000000032DE    TVYEV-TV000000000000VT423047
BI00B32DE    TT2052         20220421180D0204143              AVSSH 1.25F W/B          CCN000025600000025600FN00000000020220501000025600NNM   20220306101316    1W    00000080000001458000000000032DE    TVYEV-TV000000000000VT124065
BI00B32DE    TT2053         20220428180D0204143              AVSSH 1.25F W/B          CCN000022400000022400FN00000000020220501000022400NNM   20220306101316    1W    00000080000001458000000000032DE    TVYEV-TV000000000000VT224078
BI00B32DE    TT2054         20220505180D0204143              AVSSH 1.25F W/B          CCN000023200000023200FN00000000020220501000023200NNM   20220306101316    1W    00000080000001458000000000032DE    TVYEV-TV000000000000VT324083
BI00B32DE    TT2051         20220407180D0204170              AVSSH 1.25F Y            CCN000000800000000800FN00000000020220501000000800NNM   20220306101316    1W    00000080000001458000000000032DE    TVYEV-TV000000000000VT423048
BI00B32DE    TT2052         20220421180D0204170              AVSSH 1.25F Y            CCN000001600000001600FN00000000020220501000001600NNM   20220306101316    1W    00000080000001458000000000032DE    TVYEV-TV000000000000VT124066
BI00B32DE    TT2053         20220428180D0204170              AVSSH 1.25F Y            CCN000000800000000800FN00000000020220501000000800NNM   20220306101316    1W    00000080000001458000000000032DE    TVYEV-TV000000000000VT224079
BI00B32DE    TT2054         20220505180D0204170              AVSSH 1.25F Y            CCN000000800000000800FN00000000020220501000000800NNM   20220306101316    1W    00000080000001458000000000032DE    TVYEV-TV000000000000VT324084
BI00B32DE    @TT2053        20220428181E50000ZZ              AVSSCS-S 0.5FX1 DGY/BR   CCN000000800000000800FN00000000020220501000000800NNM   20220306101319    1W    00000040000001909700000000032DE    TVYEV-TV000000000000VT224018
BI00B32DE    @TT2054        20220505181E50000ZZ              AVSSCS-S 0.5FX1 DGY/BR   CCN000000800000000800FN00000000020220501000000800NNM   20220306101319    1W    00000040000001909700000000032DE    TVYEV-TV000000000000VT324019
BI00B32DE    @TT2051        20220407181E50003ZZ              AVSSCS-S 0.3FX2 DGY/BR   CCN000038850000038850FN00000000020220501000038850NNM   20220306101319    1W    00000035000002165000000000032DE    TVYEV-TV000000000000VT423011
BI00B32DE    @TT2052        20220421181E50003ZZ              AVSSCS-S 0.3FX2 DGY/BR   CCN000028700000028700FN00000000020220501000028700NNM   20220306101319    1W    00000035000002165000000000032DE    TVYEV-TV000000000000VT124021
BI00B32DE    @TT2053        20220428181E50003ZZ              AVSSCS-S 0.3FX2 DGY/BR   CCN000024500000024500FN00000000020220501000024500NNM   20220306101319    1W    00000035000002165000000000032DE    TVYEV-TV000000000000VT224025
BI00B32DE    @TT2054        20220505181E50003ZZ              AVSSCS-S 0.3FX2 DGY/BR   CCN000023800000023800FN00000000020220501000023800NNM   20220306101319    1W    00000035000002165000000000032DE    TVYEV-TV000000000000VT324026
BI00B32DE    @TT2052        20220421181E50005ZZ              AVSSCS-S 0.5FX1 DGY/W    CCN000002800000002800FN00000000020220501000002800NNM   20220306101319    1W    00000040000001909700000000032DE    TVYEV-TV000000000000VT124016
BI00B32DE    @TT2053        20220428181E50005ZZ              AVSSCS-S 0.5FX1 DGY/W    CCN000002000000002000FN00000000020220501000002000NNM   20220306101319    1W    00000040000001909700000000032DE    TVYEV-TV000000000000VT224020
BI00B32DE    @TT2054        20220505181E50005ZZ              AVSSCS-S 0.5FX1 DGY/W    CCN000001600000001600FN00000000020220501000001600NNM   20220306101319    1W    00000040000001909700000000032DE    TVYEV-TV000000000000VT324021
BI00B32DE    @TT2052        20220421181E50006ZZ              AVSSCS-S 0.5FX1 DGY/Y    CCN000001600000001600FN00000000020220501000001600NNM   20220306101319    1W    00000040000001909700000000032DE    TVYEV-TV000000000000VT124017
BI00B32DE    @TT2053        20220428181E50006ZZ              AVSSCS-S 0.5FX1 DGY/Y    CCN000000800000000800FN00000000020220501000000800NNM   20220306101319    1W    00000040000001909700000000032DE    TVYEV-TV000000000000VT224021
BI00B32DE    @TT2054        20220505181E50006ZZ              AVSSCS-S 0.5FX1 DGY/Y    CCN000000400000000400FN00000000020220501000000400NNM   20220306101319    1W    00000040000001909700000000032DE    TVYEV-TV000000000000VT324022
BI00B32DE    @TT2051        20220407181E50007ZZ              AVSSCS-S 0.5FX1 DGY/L    CCN000000400000000400FN00000000020220501000000400NNM   20220306101319    1W    00000040000001909700000000032DE    TVYEV-TV000000000000VT423007
BI00B32DE    @TT2052        20220421181E50007ZZ              AVSSCS-S 0.5FX1 DGY/L    CCN000001200000001200FN00000000020220501000001200NNM   20220306101319    1W    00000040000001909700000000032DE    TVYEV-TV000000000000VT124015
BI00B32DE    @TT2053        20220428181E50007ZZ              AVSSCS-S 0.5FX1 DGY/L    CCN000000800000000800FN00000000020220501000000800NNM   20220306101319    1W    00000040000001909700000000032DE    TVYEV-TV000000000000VT224019
BI00B32DE    @TT2054        20220505181E50007ZZ              AVSSCS-S 0.5FX1 DGY/L    CCN000000800000000800FN00000000020220501000000800NNM   20220306101319    1W    00000040000001909700000000032DE    TVYEV-TV000000000000VT324020
BI00B32DE    @TT2051        20220407181E50010ZZ              AVSSCS-S 0.5FX2 DGY/P    CCN000002700000002700FN00000000020220501000002700NNM   20220306101319    1W    00000030000003096000000000032DE    TVYEV-TV000000000000VT423008
BI00B32DE    @TT2052        20220421181E50010ZZ              AVSSCS-S 0.5FX2 DGY/P    CCN000004500000004500FN00000000020220501000004500NNM   20220306101319    1W    00000030000003096000000000032DE    TVYEV-TV000000000000VT124018
BI00B32DE    @TT2053        20220428181E50010ZZ              AVSSCS-S 0.5FX2 DGY/P    CCN000003000000003000FN00000000020220501000003000NNM   20220306101319    1W    00000030000003096000000000032DE    TVYEV-TV000000000000VT224022
BI00B32DE    @TT2054        20220505181E50010ZZ              AVSSCS-S 0.5FX2 DGY/P    CCN000003600000003600FN00000000020220501000003600NNM   20220306101319    1W    00000030000003096000000000032DE    TVYEV-TV000000000000VT324023
BI00B32DE    @TT2051        20220407181E50027ZZ              AVSSCS-S 0.5FX3 DGY/G    CCN000003000000003000FN00000000020220501000003000NNM   20220306101319    1W    00000025000003265000000000032DE    TVYEV-TV000000000000VT423010
BI00B32DE    @TT2052        20220421181E50027ZZ              AVSSCS-S 0.5FX3 DGY/G    CCN000004500000004500FN00000000020220501000004500NNM   20220306101319    1W    00000025000003265000000000032DE    TVYEV-TV000000000000VT124020
BI00B32DE    @TT2053        20220428181E50027ZZ              AVSSCS-S 0.5FX3 DGY/G    CCN000003500000003500FN00000000020220501000003500NNM   20220306101319    1W    00000025000003265000000000032DE    TVYEV-TV000000000000VT224024
BI00B32DE    @TT2054        20220505181E50027ZZ              AVSSCS-S 0.5FX3 DGY/G    CCN000004750000004750FN00000000020220501000004750NNM   20220306101319    1W    00000025000003265000000000032DE    TVYEV-TV000000000000VT324025
BI00B32DE    @TT2051        20220407181E50028ZZ              AVSSCS-S 0.5FX3 DGY      CCN000020500000020500FN00000000020220501000020500NNM   20220306101319    1W    00000025000003265000000000032DE    TVYEV-TV000000000000VT423009
BI00B32DE    @TT2052        20220421181E50028ZZ              AVSSCS-S 0.5FX3 DGY      CCN000010750000010750FN00000000020220501000010750NNM   20220306101319    1W    00000025000003265000000000032DE    TVYEV-TV000000000000VT124019
BI00B32DE    @TT2053        20220428181E50028ZZ              AVSSCS-S 0.5FX3 DGY      CCN000010750000010750FN00000000020220501000010750NNM   20220306101319    1W    00000025000003265000000000032DE    TVYEV-TV000000000000VT224023
BI00B32DE    @TT2054        20220505181E50028ZZ              AVSSCS-S 0.5FX3 DGY      CCN000009500000009500FN00000000020220501000009500NNM   20220306101319    1W    00000025000003265000000000032DE    TVYEV-TV000000000000VT324024
BI00B32DE    @TT2051        20220407181F21002ZZ              AVSSHCS-S 0.5FX1 B       CCN000003200000003200FN00000000020220501000003200NNM   20220306101319    1W    00000040000001908400000000032DE    TVYEV-TV000000000000VT423012
BI00B32DE    @TT2052        20220421181F21002ZZ              AVSSHCS-S 0.5FX1 B       CCN000002000000002000FN00000000020220501000002000NNM   20220306101319    1W    00000040000001908400000000032DE    TVYEV-TV000000000000VT124022
BI00B32DE    @TT2053        20220428181F21002ZZ              AVSSHCS-S 0.5FX1 B       CCN000002000000002000FN00000000020220501000002000NNM   20220306101319    1W    00000040000001908400000000032DE    TVYEV-TV000000000000VT224026
BI00B32DE    @TT2054        20220505181F21002ZZ              AVSSHCS-S 0.5FX1 B       CCN000002000000002000FN00000000020220501000002000NNM   20220306101319    1W    00000040000001908400000000032DE    TVYEV-TV000000000000VT324027
BI00B32DE    @TT2054        20220505181F21003ZZ              AVSSHCS-S 0.5FX1 B/W     CCN000005200000005200FN00000000020220501000005200NNM   20220306101319    1W    00000040000001908400000000032DE    TVYEV-TV000000000000VT324028
BI00B32DE    @TT2051        20220407181F21009ZZ              AVSSHCS-S 0.5FX2 B       CCN000011100000011100FN00000000020220501000011100NNM   20220306101319    1W    00000030000002531400000000032DE    TVYEV-TV000000000000VT423013
BI00B32DE    @TT2052        20220421181F21009ZZ              AVSSHCS-S 0.5FX2 B       CCN000006900000006900FN00000000020220501000006900NNM   20220306101319    1W    00000030000002531400000000032DE    TVYEV-TV000000000000VT124023
BI00B32DE    @TT2053        20220428181F21009ZZ              AVSSHCS-S 0.5FX2 B       CCN000005700000005700FN00000000020220501000005700NNM   20220306101319    1W    00000030000002531400000000032DE    TVYEV-TV000000000000VT224027
BI00B32DE    @TT2054        20220505181F21009ZZ              AVSSHCS-S 0.5FX2 B       CCN000006000000006000FN00000000020220501000006000NNM   20220306101319    1W    00000030000002531400000000032DE    TVYEV-TV000000000000VT324029
BI00B32DE    @TT2051        20220407181F21010ZZ              AVSSHCS-S 0.5FX2 B/W     CCN000000300000000300FN00000000020220501000000300NNM   20220306101319    1W    00000030000002531400000000032DE    TVYEV-TV000000000000VT423017
BI00B32DE    @TT2053        20220428181F21011ZZ              AVSSHCS-S 0.5FX2 B/R     CCN000003000000003000FN00000000020220501000003000NNM   20220306101319    1W    00000030000002531400000000032DE    TVYEV-TV000000000000VT224031
BI00B32DE    @TT2054        20220505181F21011ZZ              AVSSHCS-S 0.5FX2 B/R     CCN000003300000003300FN00000000020220501000003300NNM   20220306101319    1W    00000030000002531400000000032DE    TVYEV-TV000000000000VT324033
BI00B32DE    @TT2054        20220505181F21013ZZ              AVSSHCS-S 0.5FX2 B/Y     CCN000002400000002400FN00000000020220501000002400NNM   20220306101319    1W    00000030000002531400000000032DE    TVYEV-TV000000000000VT324034
BI00B32DE    @TT2051        20220407181F21014ZZ              AVSSHCS-S 0.5FX2 B/L     CCN000001800000001800FN00000000020220501000001800NNM   20220306101319    1W    00000030000002531400000000032DE    TVYEV-TV000000000000VT423015
BI00B32DE    @TT2052        20220421181F21014ZZ              AVSSHCS-S 0.5FX2 B/L     CCN000002700000002700FN00000000020220501000002700NNM   20220306101319    1W    00000030000002531400000000032DE    TVYEV-TV000000000000VT124025
BI00B32DE    @TT2053        20220428181F21014ZZ              AVSSHCS-S 0.5FX2 B/L     CCN000002100000002100FN00000000020220501000002100NNM   20220306101319    1W    00000030000002531400000000032DE    TVYEV-TV000000000000VT224029
BI00B32DE    @TT2054        20220505181F21014ZZ              AVSSHCS-S 0.5FX2 B/L     CCN000002100000002100FN00000000020220501000002100NNM   20220306101319    1W    00000030000002531400000000032DE    TVYEV-TV000000000000VT324031
BI00B32DE    @TT2051        20220407181F21015ZZ              AVSSHCS-S 0.5FX2 B/P     CCN000001200000001200FN00000000020220501000001200NNM   20220306101319    1W    00000030000002531400000000032DE    TVYEV-TV000000000000VT423016
BI00B32DE    @TT2052        20220421181F21015ZZ              AVSSHCS-S 0.5FX2 B/P     CCN000000600000000600FN00000000020220501000000600NNM   20220306101319    1W    00000030000002531400000000032DE    TVYEV-TV000000000000VT124026
BI00B32DE    @TT2053        20220428181F21015ZZ              AVSSHCS-S 0.5FX2 B/P     CCN000000600000000600FN00000000020220501000000600NNM   20220306101319    1W    00000030000002531400000000032DE    TVYEV-TV000000000000VT224030
BI00B32DE    @TT2054        20220505181F21015ZZ              AVSSHCS-S 0.5FX2 B/P     CCN000000600000000600FN00000000020220501000000600NNM   20220306101319    1W    00000030000002531400000000032DE    TVYEV-TV000000000000VT324032
BI00B32DE    @TT2051        20220407181F21016ZZ              AVSSHCS-S 0.5FX2 B/BR    CCN000002100000002100FN00000000020220501000002100NNM   20220306101319    1W    00000030000002531400000000032DE    TVYEV-TV000000000000VT423014
BI00B32DE    @TT2052        20220421181F21016ZZ              AVSSHCS-S 0.5FX2 B/BR    CCN000003600000003600FN00000000020220501000003600NNM   20220306101319    1W    00000030000002531400000000032DE    TVYEV-TV000000000000VT124024
BI00B32DE    @TT2053        20220428181F21016ZZ              AVSSHCS-S 0.5FX2 B/BR    CCN000003000000003000FN00000000020220501000003000NNM   20220306101319    1W    00000030000002531400000000032DE    TVYEV-TV000000000000VT224028
BI00B32DE    @TT2054        20220505181F21016ZZ              AVSSHCS-S 0.5FX2 B/BR    CCN000003000000003000FN00000000020220501000003000NNM   20220306101319    1W    00000030000002531400000000032DE    TVYEV-TV000000000000VT324030
BI00B32DE    @TT2052        20220421181F21027ZZ              AVSSHCS-S 1.25FX2 B      CCN000002400000002400FN00000000020220501000002400NNM   20220306101319    1W    00000020000004267300000000032DE    TVYEV-TV000000000000VT124027
BI00B32DE    @TT2053        20220428181F21027ZZ              AVSSHCS-S 1.25FX2 B      CCN000002200000002200FN00000000020220501000002200NNM   20220306101319    1W    00000020000004267300000000032DE    TVYEV-TV000000000000VT224032
BI00B32DE    @TT2054        20220505181F21027ZZ              AVSSHCS-S 1.25FX2 B      CCN000002200000002200FN00000000020220501000002200NNM   20220306101319    1W    00000020000004267300000000032DE    TVYEV-TV000000000000VT324035
BI00B32DE    @TT2051        20220407181F21028ZZ              AVSSHCS-S 1.25FX2 B/R    CCN000002800000002800FN00000000020220501000002800NNM   20220306101319    1W    00000020000004267300000000032DE    TVYEV-TV000000000000VT423019
BI00B32DE    @TT2052        20220421181F21028ZZ              AVSSHCS-S 1.25FX2 B/R    CCN000002200000002200FN00000000020220501000002200NNM   20220306101319    1W    00000020000004267300000000032DE    TVYEV-TV000000000000VT124029
BI00B32DE    @TT2053        20220428181F21028ZZ              AVSSHCS-S 1.25FX2 B/R    CCN000002000000002000FN00000000020220501000002000NNM   20220306101319    1W    00000020000004267300000000032DE    TVYEV-TV000000000000VT224034
BI00B32DE    @TT2054        20220505181F21028ZZ              AVSSHCS-S 1.25FX2 B/R    CCN000002200000002200FN00000000020220501000002200NNM   20220306101319    1W    00000020000004267300000000032DE    TVYEV-TV000000000000VT324037
BI00B32DE    @TT2051        20220407181F21029ZZ              AVSSHCS-S 1.25FX2 B/Y    CCN000000800000000800FN00000000020220501000000800NNM   20220306101319    1W    00000020000004267300000000032DE    TVYEV-TV000000000000VT423020
BI00B32DE    @TT2052        20220421181F21029ZZ              AVSSHCS-S 1.25FX2 B/Y    CCN000000600000000600FN00000000020220501000000600NNM   20220306101319    1W    00000020000004267300000000032DE    TVYEV-TV000000000000VT124030
BI00B32DE    @TT2053        20220428181F21029ZZ              AVSSHCS-S 1.25FX2 B/Y    CCN000000600000000600FN00000000020220501000000600NNM   20220306101319    1W    00000020000004267300000000032DE    TVYEV-TV000000000000VT224035
BI00B32DE    @TT2054        20220505181F21029ZZ              AVSSHCS-S 1.25FX2 B/Y    CCN000000800000000800FN00000000020220501000000800NNM   20220306101319    1W    00000020000004267300000000032DE    TVYEV-TV000000000000VT324038
BI00B32DE    @TT2051        20220407181F21031ZZ              AVSSHCS-S 1.25FX2 B/P    CCN000000400000000400FN00000000020220501000000400NNM   20220306101319    1W    00000020000004267300000000032DE    TVYEV-TV000000000000VT423018
BI00B32DE    @TT2052        20220421181F21031ZZ              AVSSHCS-S 1.25FX2 B/P    CCN000000200000000200FN00000000020220501000000200NNM   20220306101319    1W    00000020000004267300000000032DE    TVYEV-TV000000000000VT124028
BI00B32DE    @TT2053        20220428181F21031ZZ              AVSSHCS-S 1.25FX2 B/P    CCN000000200000000200FN00000000020220501000000200NNM   20220306101319    1W    00000020000004267300000000032DE    TVYEV-TV000000000000VT224033
BI00B32DE    @TT2054        20220505181F21031ZZ              AVSSHCS-S 1.25FX2 B/P    CCN000000200000000200FN00000000020220501000000200NNM   20220306101319    1W    00000020000004267300000000032DE    TVYEV-TV000000000000VT324036
BI00B32DE    @TT2051        20220407181AD2002ZZ              CIVUSAS-S 0.35X2 B       CCN000006300000006300FN00000000020220501000006300NNM   20220306101319    1W    00000045000001713700000000032DE    TVYEV-TV000000000000VT423004
BI00B32DE    @TT2052        20220421181AD2002ZZ              CIVUSAS-S 0.35X2 B       CCN000011250000011250FN00000000020220501000011250NNM   20220306101319    1W    00000045000001713700000000032DE    TVYEV-TV000000000000VT124012
BI00B32DE    @TT2053        20220428181AD2002ZZ              CIVUSAS-S 0.35X2 B       CCN000010800000010800FN00000000020220501000010800NNM   20220306101319    1W    00000045000001713700000000032DE    TVYEV-TV000000000000VT224015
BI00B32DE    @TT2054        20220505181AD2002ZZ              CIVUSAS-S 0.35X2 B       CCN000008550000008550FN00000000020220501000008550NNM   20220306101319    1W    00000045000001713700000000032DE    TVYEV-TV000000000000VT324016
BI00B32DE    @TT2051        20220407181AD2003ZZ              CIVUSAS-S 0.35X3 B       CCN000007350000007350FN00000000020220501000007350NNM   20220306101319    1W    00000035000002172100000000032DE    TVYEV-TV000000000000VT423005
BI00B32DE    @TT2052        20220421181AD2003ZZ              CIVUSAS-S 0.35X3 B       CCN000009100000009100FN00000000020220501000009100NNM   20220306101319    1W    00000035000002172100000000032DE    TVYEV-TV000000000000VT124013
BI00B32DE    @TT2053        20220428181AD2003ZZ              CIVUSAS-S 0.35X3 B       CCN000008050000008050FN00000000020220501000008050NNM   20220306101319    1W    00000035000002172100000000032DE    TVYEV-TV000000000000VT224016
BI00B32DE    @TT2054        20220505181AD2003ZZ              CIVUSAS-S 0.35X3 B       CCN000006650000006650FN00000000020220501000006650NNM   20220306101319    1W    00000035000002172100000000032DE    TVYEV-TV000000000000VT324017
BI00B32DE    @TT2051        20220407181AD2004ZZ              CIVUSAS-S 0.35X4 B       CCN000003900000003900FN00000000020220501000003900NNM   20220306101319    1W    00000030000002799900000000032DE    TVYEV-TV000000000000VT423006
BI00B32DE    @TT2052        20220421181AD2004ZZ              CIVUSAS-S 0.35X4 B       CCN000007200000007200FN00000000020220501000007200NNM   20220306101319    1W    00000030000002799900000000032DE    TVYEV-TV000000000000VT124014
BI00B32DE    @TT2053        20220428181AD2004ZZ              CIVUSAS-S 0.35X4 B       CCN000006300000006300FN00000000020220501000006300NNM   20220306101319    1W    00000030000002799900000000032DE    TVYEV-TV000000000000VT224017
BI00B32DE    @TT2054        20220505181AD2004ZZ              CIVUSAS-S 0.35X4 B       CCN000004800000004800FN00000000020220501000004800NNM   20220306101319    1W    00000030000002799900000000032DE    TVYEV-TV000000000000VT324018
BI00B32DG    @RH2051        20220407181E48048ZZ              CAVSAS-S 0.3X2 GY/O      CCN000003150000003150FN00000000020220501000003150NNM   20220306190641    1W    00000035000002008700000000032DG    BFSAIBF 000000000000GY423002
BI00B32DG    @RH2052        20220421181E48048ZZ              CAVSAS-S 0.3X2 GY/O      CCN000001750000001750FN00000000020220501000001750NNM   20220306190641    1W    00000035000002008700000000032DG    BFSAIBF 000000000000GY124002
BI00B32DG    @RH2053        20220428181E48048ZZ              CAVSAS-S 0.3X2 GY/O      CCN000001750000001750FN00000000020220501000001750NNM   20220306190641    1W    00000035000002008700000000032DG    BFSAIBF 000000000000GY224002
BI00B32DG    @RH2054        20220505181E48048ZZ              CAVSAS-S 0.3X2 GY/O      CCN000000700000000700FN00000000020220501000000700NNM   20220306190641    1W    00000035000002008700000000032DG    BFSAIBF 000000000000GY324002
BI00B32DG    @RH2051        20220407181E50009ZZ              AVSSCS-S 0.5FX2 DGY/W    CCN000001500000001500FN00000000020220501000001500NNM   20220306190641    1W    00000030000003096000000000032DG    BFSAIBF 000000000000GY423004
BI00B32DG    @RH2052        20220421181E50009ZZ              AVSSCS-S 0.5FX2 DGY/W    CCN000000900000000900FN00000000020220501000000900NNM   20220306190641    1W    00000030000003096000000000032DG    BFSAIBF 000000000000GY124004
BI00B32DG    @RH2053        20220428181E50009ZZ              AVSSCS-S 0.5FX2 DGY/W    CCN000000900000000900FN00000000020220501000000900NNM   20220306190641    1W    00000030000003096000000000032DG    BFSAIBF 000000000000GY224003
BI00B32DG    @RH2054        20220505181E50009ZZ              AVSSCS-S 0.5FX2 DGY/W    CCN000000300000000300FN00000000020220501000000300NNM   20220306190641    1W    00000030000003096000000000032DG    BFSAIBF 000000000000GY324003
BI00B32DG    @RH2051        20220407181E48010ZZ              CAVSAS-S 0.3X1 GY/R      CCN000005000000005000FN00000000020220501000005000NNM   20220306190641    1W    00000050000001529500000000032DG    BFSAIBF 000000000000GY423001
BI00B32DG    @RH2052        20220421181E48010ZZ              CAVSAS-S 0.3X1 GY/R      CCN000002500000002500FN00000000020220501000002500NNM   20220306190641    1W    00000050000001529500000000032DG    BFSAIBF 000000000000GY124001
BI00B32DG    @RH2053        20220428181E48010ZZ              CAVSAS-S 0.3X1 GY/R      CCN000002500000002500FN00000000020220501000002500NNM   20220306190641    1W    00000050000001529500000000032DG    BFSAIBF 000000000000GY224001
BI00B32DG    @RH2054        20220505181E48010ZZ              CAVSAS-S 0.3X1 GY/R      CCN000002000000002000FN00000000020220501000002000NNM   20220306190641    1W    00000050000001529500000000032DG    BFSAIBF 000000000000GY324001
BI00B32DG    @RH2051        20220407181E50016ZZ              AVSSCS-S 0.5FX2 DGY/R    CCN000000600000000600FN00000000020220501000000600NNM   20220306190641    1W    00000030000003096000000000032DG    BFSAIBF 000000000000GY423003
BI00B32DG    @RH2052        20220421181E50016ZZ              AVSSCS-S 0.5FX2 DGY/R    CCN000000300000000300FN00000000020220501000000300NNM   20220306190641    1W    00000030000003096000000000032DG    BFSAIBF 000000000000GY124003
BI00B32DG    @RH2051        20220407181E50011ZZ              AVSSCS-S 0.5FX2 DGY/Y    CCN000003600000003600FN00000000020220501000003600NNM   20220306190641    1W    00000030000003096000000000032DG    BFSAIBF 000000000000GY423005
BI00B32DG    @RH2052        20220421181E50011ZZ              AVSSCS-S 0.5FX2 DGY/Y    CCN000001800000001800FN00000000020220501000001800NNM   20220306190641    1W    00000030000003096000000000032DG    BFSAIBF 000000000000GY124005
BI00B32DG    @RH2053        20220428181E50011ZZ              AVSSCS-S 0.5FX2 DGY/Y    CCN000001800000001800FN00000000020220501000001800NNM   20220306190641    1W    00000030000003096000000000032DG    BFSAIBF 000000000000GY224004
BI00B32DG    @RH2054        20220505181E50011ZZ              AVSSCS-S 0.5FX2 DGY/Y    CCN000001800000001800FN00000000020220501000001800NNM   20220306190641    1W    00000030000003096000000000032DG    BFSAIBF 000000000000GY324004
BI00B32DG    RW2051         202204071801W006930              IVSSH 0.35F B            CCN000045000000045000FN00000000020220501000045000NNM   20220306190646    1W    00000250000000452000000000032DG    BFSAIBF 000000000000GZ423030
BI00B32DG    RW2052         202204211801W006930              IVSSH 0.35F B            CCN000022500000022500FN00000000020220501000022500NNM   20220306190646    1W    00000250000000452000000000032DG    BFSAIBF 000000000000GZ124024
BI00B32DG    RW2053         202204281801W006930              IVSSH 0.35F B            CCN000022500000022500FN00000000020220501000022500NNM   20220306190646    1W    00000250000000452000000000032DG    BFSAIBF 000000000000GZ224022
BI00B32DG    RW2054         202205051801W006930              IVSSH 0.35F B            CCN000017500000017500FN00000000020220501000017500NNM   20220306190646    1W    00000250000000452000000000032DG    BFSAIBF 000000000000GZ324016
BI00B32DG    RW2051         202204071801W00695U              IVSSH 0.35F BE           CCN000042500000042500FN00000000020220501000042500NNM   20220306190646    1W    00000250000000452000000000032DG    BFSAIBF 000000000000GZ423031
BI00B32DG    RW2052         202204211801W00695U              IVSSH 0.35F BE           CCN000022500000022500FN00000000020220501000022500NNM   20220306190646    1W    00000250000000452000000000032DG    BFSAIBF 000000000000GZ124025
BI00B32DG    RW2053         202204281801W00695U              IVSSH 0.35F BE           CCN000022500000022500FN00000000020220501000022500NNM   20220306190646    1W    00000250000000452000000000032DG    BFSAIBF 000000000000GZ224023
BI00B32DG    RW2054         202205051801W00695U              IVSSH 0.35F BE           CCN000015000000015000FN00000000020220501000015000NNM   20220306190646    1W    00000250000000452000000000032DG    BFSAIBF 000000000000GZ324017
BI00B32DG    RW2051         202204071801W006980              IVSSH 0.35F BR           CCN000022500000022500FN00000000020220501000022500NNM   20220306190646    1W    00000250000000452000000000032DG    BFSAIBF 000000000000GZ423032
BI00B32DG    RW2052         202204211801W006980              IVSSH 0.35F BR           CCN000012500000012500FN00000000020220501000012500NNM   20220306190646    1W    00000250000000452000000000032DG    BFSAIBF 000000000000GZ124026
BI00B32DG    RW2053         202204281801W006980              IVSSH 0.35F BR           CCN000012500000012500FN00000000020220501000012500NNM   20220306190646    1W    00000250000000452000000000032DG    BFSAIBF 000000000000GZ224024
BI00B32DG    RW2054         202205051801W006980              IVSSH 0.35F BR           CCN000005000000005000FN00000000020220501000005000NNM   20220306190646    1W    00000250000000452000000000032DG    BFSAIBF 000000000000GZ324018
BI00B32DG    RW2051         202204071801W006960              IVSSH 0.35F G            CCN000047500000047500FN00000000020220501000047500NNM   20220306190646    1W    00000250000000452000000000032DG    BFSAIBF 000000000000GZ423033
BI00B32DG    RW2052         202204211801W006960              IVSSH 0.35F G            CCN000025000000025000FN00000000020220501000025000NNM   20220306190646    1W    00000250000000452000000000032DG    BFSAIBF 000000000000GZ124027
BI00B32DG    RW2053         202204281801W006960              IVSSH 0.35F G            CCN000025000000025000FN00000000020220501000025000NNM   20220306190646    1W    00000250000000452000000000032DG    BFSAIBF 000000000000GZ224025
BI00B32DG    RW2054         202205051801W006960              IVSSH 0.35F G            CCN000017500000017500FN00000000020220501000017500NNM   20220306190646    1W    00000250000000452000000000032DG    BFSAIBF 000000000000GZ324019
BI00B32DG    RW2051         202204071801W006941              IVSSH 0.35F GY           CCN000032500000032500FN00000000020220501000032500NNM   20220306190646    1W    00000250000000452000000000032DG    BFSAIBF 000000000000GZ423034
BI00B32DG    RW2052         202204211801W006941              IVSSH 0.35F GY           CCN000017500000017500FN00000000020220501000017500NNM   20220306190646    1W    00000250000000452000000000032DG    BFSAIBF 000000000000GZ124028
BI00B32DG    RW2053         202204281801W006941              IVSSH 0.35F GY           CCN000017500000017500FN00000000020220501000017500NNM   20220306190646    1W    00000250000000452000000000032DG    BFSAIBF 000000000000GZ224026
BI00B32DG    RW2054         202205051801W006941              IVSSH 0.35F GY           CCN000010000000010000FN00000000020220501000010000NNM   20220306190646    1W    00000250000000452000000000032DG    BFSAIBF 000000000000GZ324020
BI00B32DG    RW2051         202204071801W006990              IVSSH 0.35F L            CCN000065000000065000FN00000000020220501000065000NNM   20220306190646    1W    00000250000000452000000000032DG    BFSAIBF 000000000000GZ423035
BI00B32DG    RW2052         202204211801W006990              IVSSH 0.35F L            CCN000032500000032500FN00000000020220501000032500NNM   20220306190646    1W    00000250000000452000000000032DG    BFSAIBF 000000000000GZ124029
BI00B32DG    RW2053         202204281801W006990              IVSSH 0.35F L            CCN000032500000032500FN00000000020220501000032500NNM   20220306190646    1W    00000250000000452000000000032DG    BFSAIBF 000000000000GZ224027
BI00B32DG    RW2054         202205051801W006990              IVSSH 0.35F L            CCN000027500000027500FN00000000020220501000027500NNM   20220306190646    1W    00000250000000452000000000032DG    BFSAIBF 000000000000GZ324021
BI00B32DG    RW2051         202204071801W006961              IVSSH 0.35F LG           CCN000045000000045000FN00000000020220501000045000NNM   20220306190646    1W    00000250000000452000000000032DG    BFSAIBF 000000000000GZ423036
BI00B32DG    RW2052         202204211801W006961              IVSSH 0.35F LG           CCN000022500000022500FN00000000020220501000022500NNM   20220306190646    1W    00000250000000452000000000032DG    BFSAIBF 000000000000GZ124030
BI00B32DG    RW2053         202204281801W006961              IVSSH 0.35F LG           CCN000022500000022500FN00000000020220501000022500NNM   20220306190646    1W    00000250000000452000000000032DG    BFSAIBF 000000000000GZ224028
BI00B32DG    RW2054         202205051801W006961              IVSSH 0.35F LG           CCN000017500000017500FN00000000020220501000017500NNM   20220306190646    1W    00000250000000452000000000032DG    BFSAIBF 000000000000GZ324022
BI00B32DG    RW2051         202204071801W006952              IVSSH 0.35F P            CCN000052500000052500FN00000000020220501000052500NNM   20220306190646    1W    00000250000000452000000000032DG    BFSAIBF 000000000000GZ423037
BI00B32DG    RW2052         202204211801W006952              IVSSH 0.35F P            CCN000027500000027500FN00000000020220501000027500NNM   20220306190646    1W    00000250000000452000000000032DG    BFSAIBF 000000000000GZ124031
BI00B32DG    RW2053         202204281801W006952              IVSSH 0.35F P            CCN000027500000027500FN00000000020220501000027500NNM   20220306190646    1W    00000250000000452000000000032DG    BFSAIBF 000000000000GZ224029
BI00B32DG    RW2054         202205051801W006952              IVSSH 0.35F P            CCN000020000000020000FN00000000020220501000020000NNM   20220306190646    1W    00000250000000452000000000032DG    BFSAIBF 000000000000GZ324023
BI00B32DG    RW2051         202204071801W006950              IVSSH 0.35F R            CCN000060000000060000FN00000000020220501000060000NNM   20220306190646    1W    00000250000000452000000000032DG    BFSAIBF 000000000000GZ423038
BI00B32DG    RW2052         202204211801W006950              IVSSH 0.35F R            CCN000030000000030000FN00000000020220501000030000NNM   20220306190646    1W    00000250000000452000000000032DG    BFSAIBF 000000000000GZ124032
BI00B32DG    RW2053         202204281801W006950              IVSSH 0.35F R            CCN000030000000030000FN00000000020220501000030000NNM   20220306190646    1W    00000250000000452000000000032DG    BFSAIBF 000000000000GZ224030
BI00B32DG    RW2054         202205051801W006950              IVSSH 0.35F R            CCN000030000000030000FN00000000020220501000030000NNM   20220306190646    1W    00000250000000452000000000032DG    BFSAIBF 000000000000GZ324024
BI00B32DG    RW2051         202204071801W006991              IVSSH 0.35F SB           CCN000065000000065000FN00000000020220501000065000NNM   20220306190646    1W    00000250000000452000000000032DG    BFSAIBF 000000000000GZ423039
BI00B32DG    RW2052         202204211801W006991              IVSSH 0.35F SB           CCN000032500000032500FN00000000020220501000032500NNM   20220306190646    1W    00000250000000452000000000032DG    BFSAIBF 000000000000GZ124033
BI00B32DG    RW2053         202204281801W006991              IVSSH 0.35F SB           CCN000032500000032500FN00000000020220501000032500NNM   20220306190646    1W    00000250000000452000000000032DG    BFSAIBF 000000000000GZ224031
BI00B32DG    RW2054         202205051801W006991              IVSSH 0.35F SB           CCN000027500000027500FN00000000020220501000027500NNM   20220306190646    1W    00000250000000452000000000032DG    BFSAIBF 000000000000GZ324025
BI00B32DG    RW2051         202204071801W006992              IVSSH 0.35F V            CCN000077500000077500FN00000000020220501000077500NNM   20220306190646    1W    00000250000000452000000000032DG    BFSAIBF 000000000000GZ423040
BI00B32DG    RW2052         202204211801W006992              IVSSH 0.35F V            CCN000040000000040000FN00000000020220501000040000NNM   20220306190646    1W    00000250000000452000000000032DG    BFSAIBF 000000000000GZ124034
BI00B32DG    RW2053         202204281801W006992              IVSSH 0.35F V            CCN000040000000040000FN00000000020220501000040000NNM   20220306190646    1W    00000250000000452000000000032DG    BFSAIBF 000000000000GZ224032
BI00B32DG    RW2054         202205051801W006992              IVSSH 0.35F V            CCN000032500000032500FN00000000020220501000032500NNM   20220306190646    1W    00000250000000452000000000032DG    BFSAIBF 000000000000GZ324026
BI00B32DG    RW2051         202204071801W006940              IVSSH 0.35F W            CCN000060000000060000FN00000000020220501000060000NNM   20220306190646    1W    00000250000000452000000000032DG    BFSAIBF 000000000000GZ423041
BI00B32DG    RW2052         202204211801W006940              IVSSH 0.35F W            CCN000030000000030000FN00000000020220501000030000NNM   20220306190646    1W    00000250000000452000000000032DG    BFSAIBF 000000000000GZ124035
BI00B32DG    RW2053         202204281801W006940              IVSSH 0.35F W            CCN000030000000030000FN00000000020220501000030000NNM   20220306190646    1W    00000250000000452000000000032DG    BFSAIBF 000000000000GZ224033
BI00B32DG    RW2054         202205051801W006940              IVSSH 0.35F W            CCN000027500000027500FN00000000020220501000027500NNM   20220306190646    1W    00000250000000452000000000032DG    BFSAIBF 000000000000GZ324027
BI00B32DG    RW2051         202204071801W006943              IVSSH 0.35F W/B          CCN000047500000047500FN00000000020220501000047500NNM   20220306190646    1W    00000250000000452000000000032DG    BFSAIBF 000000000000GZ423042
BI00B32DG    RW2052         202204211801W006943              IVSSH 0.35F W/B          CCN000025000000025000FN00000000020220501000025000NNM   20220306190646    1W    00000250000000452000000000032DG    BFSAIBF 000000000000GZ124036
BI00B32DG    RW2053         202204281801W006943              IVSSH 0.35F W/B          CCN000025000000025000FN00000000020220501000025000NNM   20220306190646    1W    00000250000000452000000000032DG    BFSAIBF 000000000000GZ224034
BI00B32DG    RW2054         202205051801W006943              IVSSH 0.35F W/B          CCN000017500000017500FN00000000020220501000017500NNM   20220306190646    1W    00000250000000452000000000032DG    BFSAIBF 000000000000GZ324028
BI00B32DG    RW2051         202204071801W006970              IVSSH 0.35F Y            CCN000010000000010000FN00000000020220501000010000NNM   20220306190646    1W    00000250000000452000000000032DG    BFSAIBF 000000000000GZ423043
BI00B32DG    RW2052         202204211801W006970              IVSSH 0.35F Y            CCN000005000000005000FN00000000020220501000005000NNM   20220306190646    1W    00000250000000452000000000032DG    BFSAIBF 000000000000GZ124037
BI00B32DG    RW2053         202204281801W006970              IVSSH 0.35F Y            CCN000005000000005000FN00000000020220501000005000NNM   20220306190646    1W    00000250000000452000000000032DG    BFSAIBF 000000000000GZ224035
BI00B32DG    RW2051         202204071801W003960              IVSSH 0.5F G             CCN000054000000054000FN00000000020220501000054000NNM   20220306190646    1W    00000180000000625000000000032DG    BFSAIBF 000000000000GZ423020
BI00B32DG    RW2052         202204211801W003960              IVSSH 0.5F G             CCN000027000000027000FN00000000020220501000027000NNM   20220306190646    1W    00000180000000625000000000032DG    BFSAIBF 000000000000GZ124014
BI00B32DG    RW2053         202204281801W003960              IVSSH 0.5F G             CCN000027000000027000FN00000000020220501000027000NNM   20220306190646    1W    00000180000000625000000000032DG    BFSAIBF 000000000000GZ224012
BI00B32DG    RW2054         202205051801W003960              IVSSH 0.5F G             CCN000025200000025200FN00000000020220501000025200NNM   20220306190646    1W    00000180000000625000000000032DG    BFSAIBF 000000000000GZ324008
BI00B32DG    RW2051         202204071801W003941              IVSSH 0.5F GY            CCN000023400000023400FN00000000020220501000023400NNM   20220306190646    1W    00000180000000625000000000032DG    BFSAIBF 000000000000GZ423021
BI00B32DG    RW2052         202204211801W003941              IVSSH 0.5F GY            CCN000012600000012600FN00000000020220501000012600NNM   20220306190646    1W    00000180000000625000000000032DG    BFSAIBF 000000000000GZ124015
BI00B32DG    RW2053         202204281801W003941              IVSSH 0.5F GY            CCN000012600000012600FN00000000020220501000012600NNM   20220306190646    1W    00000180000000625000000000032DG    BFSAIBF 000000000000GZ224013
BI00B32DG    RW2054         202205051801W003941              IVSSH 0.5F GY            CCN000007200000007200FN00000000020220501000007200NNM   20220306190646    1W    00000180000000625000000000032DG    BFSAIBF 000000000000GZ324009
BI00B32DG    RW2051         202204071801W003990              IVSSH 0.5F L             CCN000023400000023400FN00000000020220501000023400NNM   20220306190646    1W    00000180000000625000000000032DG    BFSAIBF 000000000000GZ423022
BI00B32DG    RW2052         202204211801W003990              IVSSH 0.5F L             CCN000012600000012600FN00000000020220501000012600NNM   20220306190646    1W    00000180000000625000000000032DG    BFSAIBF 000000000000GZ124016
BI00B32DG    RW2053         202204281801W003990              IVSSH 0.5F L             CCN000012600000012600FN00000000020220501000012600NNM   20220306190646    1W    00000180000000625000000000032DG    BFSAIBF 000000000000GZ224014
BI00B32DG    RW2054         202205051801W003990              IVSSH 0.5F L             CCN000007200000007200FN00000000020220501000007200NNM   20220306190646    1W    00000180000000625000000000032DG    BFSAIBF 000000000000GZ324010
BI00B32DG    RW2051         202204071801W003952              IVSSH 0.5F P             CCN000010800000010800FN00000000020220501000010800NNM   20220306190646    1W    00000180000000625000000000032DG    BFSAIBF 000000000000GZ423024
BI00B32DG    RW2052         202204211801W003952              IVSSH 0.5F P             CCN000005400000005400FN00000000020220501000005400NNM   20220306190646    1W    00000180000000625000000000032DG    BFSAIBF 000000000000GZ124018
BI00B32DG    RW2053         202204281801W003952              IVSSH 0.5F P             CCN000005400000005400FN00000000020220501000005400NNM   20220306190646    1W    00000180000000625000000000032DG    BFSAIBF 000000000000GZ224016
BI00B32DG    RW2054         202205051801W003952              IVSSH 0.5F P             CCN000001800000001800FN00000000020220501000001800NNM   20220306190646    1W    00000180000000625000000000032DG    BFSAIBF 000000000000GZ324012
BI00B32DG    RW2051         202204071801W003992              IVSSH 0.5F V             CCN000014400000014400FN00000000020220501000014400NNM   20220306190646    1W    00000180000000625000000000032DG    BFSAIBF 000000000000GZ423026
BI00B32DG    RW2052         202204211801W003992              IVSSH 0.5F V             CCN000007200000007200FN00000000020220501000007200NNM   20220306190646    1W    00000180000000625000000000032DG    BFSAIBF 000000000000GZ124020
