BI00B32A7    ZZ22053BMW     202204277289-3342                HOUSING FEMALE ASS'Y     CCN000002400000002400FN00000000020220501000002400NNMD0420220306191854    1N0N  00000240000000686400000901432A7    ZZZZY   005500360039
BI00B32DA    SBT2205        202204287288-3329-30             HOUSING MALE             CCN000018000000018000FN00000000020220501000018000NNMD0420220306191157    4N0N  00000150000000866100001011132DA    GBYIPLGB005400370024
BI00B32DA    SBT2205A       202205057288-3329-30             HOUSING MALE             CCN000018000000018000FN00000000020220501000018000NNMD0420220306191212    4N0N  00000150000000866100001011132DA    GBYIPLGB005400370024
BI00B32DA    SBT2205        202204287288-3331-30             HOUSING MALE             CCN000018750000019500FN00000000020220501000019500NNMD0420220306191308    4N0N  00000150000000866000001010932DA    GBYIPLGB005400370024
BI00B32DA    SBT2205A       202205057288-3331-30             HOUSING MALE             CCN000018750000019500FN00000000020220501000019500NNMD0420220306191323    4N0N  00000150000000866000001010932DA    GBYIPLGB005400370024
BI00B32DA    SBT2205        202204287288-3336-30             HOUSING MALE             CCN000019500000019500FN00000000020220501000019500NNMD0420220306191457    4N0N  00000150000000867000001012032DA    GBYIPLGB005400370024
BI00B32DA    SBT2205A       202205057288-3336-30             HOUSING MALE             CCN000019500000019500FN00000000020220501000019500NNMD0420220306191518    4N0N  00000150000000867000001012032DA    GBYIPLGB005400370024
BI00B32DA    SBT2205        202204287288-3337-30             HOUSING MALE             CCN000018750000019500FN00000000020220501000019500NNMD0420220306191554    4N0N  00000150000000867000001012032DA    GBYIPLGB005400370024
BI00B32DA    SBT2205A       202205057288-3337-30             HOUSING MALE             CCN000018750000019500FN00000000020220501000019500NNMD0420220306191609    4N0N  00000150000000867000001012032DA    GBYIPLGB005400370024
BI00B32DA    SBT2205        202208047289-3342-30             HOUSING FEMALE ASS'Y     CCN000114000000028800FN00000000020220501000028800NNMD0420220306192126    1N0N  00000240000000686400000901432DA    GBYIPLGB005500360039
BI00B32DA    SBT2205A       202209017289-3342-30             HOUSING FEMALE ASS'Y     CCN000114000000028800FN00000000020220501000028800NNMD0420220306192233    1N0N  00000240000000686400000901432DA    GBYIPLGB005500360039
BI00B32DA    SBT2205        202208117289-3342-30             HOUSING FEMALE ASS'Y     CCN000028800000028800FN00000000020220501000028800NNMD0420220306192141    1N0N  00000240000000686400000901432DA    GBYIPLGB005500360039
BI00B32DA    SBT2205        202208187289-3342-30             HOUSING FEMALE ASS'Y     CCN000028800000028800FN00000000020220501000028800NNMD0420220306192152    1N0N  00000240000000686400000901432DA    GBYIPLGB005500360039
BI00B32DA    SBT2205        202208257289-3342-30             HOUSING FEMALE ASS'Y     CCN000028800000028800FN00000000020220501000028800NNMD0420220306192157    1N0N  00000240000000686400000901432DA    GBYIPLGB005500360039
BI00B32DA    SBT2205A       202209087289-3342-30             HOUSING FEMALE ASS'Y     CCN000028800000028800FN00000000020220501000028800NNMD0420220306192250    1N0N  00000240000000686400000901432DA    GBYIPLGB005500360039
BI00B32DA    SBT2205A       202209157289-3342-30             HOUSING FEMALE ASS'Y     CCN000028800000028800FN00000000020220501000028800NNMD0420220306192302    1N0N  00000240000000686400000901432DA    GBYIPLGB005500360039
BI00B32DA    SBT2205A       202209227289-3342-30             HOUSING FEMALE ASS'Y     CCN000028800000028800FN00000000020220501000028800NNMD0420220306192307    1N0N  00000240000000686400000901432DA    GBYIPLGB005500360039
BI00B32DE    TCT2052        202204287288-3335-30             HOUSING MALE             CCN000006000000006000FN00000000020220501000006000NNMD0420220306194239    4N0N  00000150000000867000001012032DE    TVYEV-TV005400370024
BI00B32DE    TCT2053        202205057288-3335-30             HOUSING MALE             CCN000004500000004500FN00000000020220501000004500NNMD0420220306194251    4N0N  00000150000000867000001012032DE    TVYEV-TV005400370024
BI00B32DE    TCT2054        202205127288-3335-30             HOUSING MALE             CCN000006000000006000FN00000000020220501000006000NNMD0420220306194305    4N0N  00000150000000867000001012032DE    TVYEV-TV005400370024
BI00B32DE    TCT2051        202204217288-6547                CONNECTOR MALE ASS'Y     CCN000003000000003000FN00000000020220501000003000NNMD0420220306194325    4N0N  00000075000001205300001340332DE    TVYEV-TV005400370024
BI00B32DE    TCT2051        202204077289-3342-30             HOUSING FEMALE ASS'Y     CCN000052800000026400FN00000000020220501000026400NNMD0420220306194940    1N0N  00000240000000686400000901432DE    TVYEV-TV005500360039
BI00B32DE    TCT2052        202204287289-3342-30             HOUSING FEMALE ASS'Y     CCN000057600000028800FN00000000020220501000028800NNMD0420220306195018    1N0N  00000240000000686400000901432DE    TVYEV-TV005500360039
BI00B32DE    TCT2053        202205127289-3342-30             HOUSING FEMALE ASS'Y     CCN000055200000028800FN00000000020220501000028800NNMD0420220306195049    1N0N  00000240000000686400000901432DE    TVYEV-TV005500360039
BI00B32DE    TCT2054        202205267289-3342-30             HOUSING FEMALE ASS'Y     CCN000043200000021600FN00000000020220501000021600NNMD0420220306195122    1N0N  00000240000000686400000901432DE    TVYEV-TV005500360039
BI00B32DE    TCT2051        202204217289-3342-90             HOUSING FEMALE ASS'Y     CCN000007200000007200FN00000000020220501000007200NNMD0420220306200403    1N0N  00000240000000686400000901432DE    TVYEV-TV005500360039
BI00B32DE    TCT2052        202204287289-3342-90             HOUSING FEMALE ASS'Y     CCN000007200000007200FN00000000020220501000007200NNMD0420220306200416    1N0N  00000240000000686400000901432DE    TVYEV-TV005500360039
BI00B32DE    TCT2053        202205057289-3342-90             HOUSING FEMALE ASS'Y     CCN000007200000007200FN00000000020220501000007200NNMD0420220306200427    1N0N  00000240000000686400000901432DE    TVYEV-TV005500360039
BI00B32DE    TCT2054        202205127289-3342-90             HOUSING FEMALE ASS'Y     CCN000004800000004800FN00000000020220501000004800NNMD0420220306200439    1N0N  00000240000000686400000901432DE    TVYEV-TV005500360039
BI00B32DE    TCT2051        202204077289-6547                HOUSING FEMALE ASS'Y     CCN000002400000002400FN00000000020220501000002400NNMD0020220306195945    1N0N  00000240000001152000001362032DE    TVYEV-TV005500360039
BI00B32DE    TCT2052        202204217289-6547                HOUSING FEMALE ASS'Y     CCN000004800000004800FN00000000020220501000004800NNMD0020220306195934    1N0N  00000240000001152000001362032DE    TVYEV-TV005500360039
BI00B32DE    TCT2053        202204287289-6547                HOUSING FEMALE ASS'Y     CCN000004800000004800FN00000000020220501000004800NNMD0020220306195921    1N0N  00000240000001152000001362032DE    TVYEV-TV005500360039
BI00B32DE    TCT2054        202205057289-6547                HOUSING FEMALE ASS'Y     CCN000002400000002400FN00000000020220501000002400NNMD0020220306195906    1N0N  00000240000001152000001362032DE    TVYEV-TV005500360039
BI00B32DE    TCT2051        202204217289-3342-30             HOUSING FEMALE ASS'Y     CCN000026400000026400FN00000000020220501000026400NNMD0420220306194940    1N0N  00000240000000686400000901432DE    TVYEV-TV005500360039
BI00B32DE    TCT2052        202205057289-3342-30             HOUSING FEMALE ASS'Y     CCN000028800000028800FN00000000020220501000028800NNMD0420220306195018    1N0N  00000240000000686400000901432DE    TVYEV-TV005500360039
BI00B32DE    TCT2053        202205197289-3342-30             HOUSING FEMALE ASS'Y     CCN000026400000026400FN00000000020220501000026400NNMD0420220306195049    1N0N  00000240000000686400000901432DE    TVYEV-TV005500360039
BI00B32DE    TCT2054        202206027289-3342-30             HOUSING FEMALE ASS'Y     CCN000021600000021600FN00000000020220501000021600NNMD0420220306195122    1N0N  00000240000000686400000901432DE    TVYEV-TV005500360039
BI00B32D1    DFTC2222       202204077288-6547                CONNECTOR MALE ASS'Y     CCN000013500000006000FN00000000020220601000006000NNMQ0420220306193220    4N0N  00000075000001205300001340332D1    TOYOT-K 005400370024
BI00B32D1    DFTC2222       202204217289-3342                HOUSING FEMALE ASS'Y     CCN000045600000021600FN00000000020220601000021600NNMD0420220306193301    1N0N  00000240000000686400000901432D1    TOYOT-K 005500360039
BI00B32D1    DFTC2222       202204287289-3342-30             HOUSING FEMALE ASS'Y     CCN000132000000036000FN00000000020220601000036000NNMD0420220306193337    1N0N  00000240000000686400000901432D1    TOYOT-K 005500360039
BI00B32D1    DFTC2222       202204217289-3342-40             HOUSING FEMALE ASS'Y     CCN000016800000009600FN00000000020220601000009600NNMD0420220306193514    1N0N  00000240000000686400000901432D1    TOYOT-K 005500360039
BI00B32D1    DFTC2222       202204217289-3342-90             HOUSING FEMALE ASS'Y     CCN000012000000007200FN00000000020220601000007200NNMD0420220306193548    1N0N  00000240000000686400000901432D1    TOYOT-K 005500360039
BI00B32D1    DFTC2222       202204217288-6547                CONNECTOR MALE ASS'Y     CCN000007500000007500FN00000000020220601000007500NNMD0420220306193225    4N0N  00000075000001205300001340332D1    TOYOT-K 005400370024
BI00B32D1    DFTC2222       202204287289-3342                HOUSING FEMALE ASS'Y     CCN000024000000024000FN00000000020220601000024000NNMD0420220306193305    1N0N  00000240000000686400000901432D1    TOYOT-K 005500360039
BI00B32D1    DFTC2222       202205057289-3342-30             HOUSING FEMALE ASS'Y     CCN000036000000036000FN00000000020220601000036000NNMD0420220306193350    1N0N  00000240000000686400000901432D1    TOYOT-K 005500360039
BI00B32D1    DFTC2222       202205127289-3342-30             HOUSING FEMALE ASS'Y     CCN000036000000036000FN00000000020220601000036000NNMD0420220306193404    1N0N  00000240000000686400000901432D1    TOYOT-K 005500360039
BI00B32D1    DFTC2222       202205197289-3342-30             HOUSING FEMALE ASS'Y     CCN000024000000024000FN00000000020220601000024000NNMD0420220306193409    1N0N  00000240000000686400000901432D1    TOYOT-K 005500360039
BI00B32D1    DFTC2222       202204287289-3342-40             HOUSING FEMALE ASS'Y     CCN000007200000007200FN00000000020220601000007200NNMD0420220306193519    1N0N  00000240000000686400000901432D1    TOYOT-K 005500360039
BI00B32D1    DFTC2222       202204287289-3342-90             HOUSING FEMALE ASS'Y     CCN000004800000004800FN00000000020220601000004800NNMD0420220306193554    1N0N  00000240000000686400000901432D1    TOYOT-K 005500360039
BI00B32G0    TZ2204BEMW     202205107283-4855                CONNECTOR HOUSING        CCN000016800000016800FN00000000020220401000016800NNED0420220306191056    4N0N  00000240000001188400001400032G0    TTTJY   005500360039
BI00B32G0    TZ2204BEMW     202205107288-6547                CONNECTOR MALE ASS'Y     CCN000018000000018000FN00000000020220401000018000NNED0420220306191731    4N0N  00000075000001205300001340332G0    TTTJY   005400370024
BI00B32G2    SA22051 MW     202204067283-4855                CONNECTOR HOUSING        CCN000024000000012000FN00000000020220501000012000NNMD0420220306194104    4N0N  00000240000001188400001400032G2    AISUAI  005500360039
BI00B32G2    SA22051 MW     202204067289-3342                HOUSING FEMALE ASS'Y     CCN000036000000012000FN00000000020220501000012000NNMD0420220306194714    1N0N  00000240000000686400000901432G2    AISUAI  005500360039
BI00B32G2    SA22054 MW     202205047289-3342                HOUSING FEMALE ASS'Y     CCN000028800000014400FN00000000020220501000014400NNMD0420220306194807    1N0N  00000240000000686400000901432G2    AISUAI  005500360039
BI00B32G2    SA22051 MW     202204067289-3342-30             HOUSING FEMALE ASS'Y     CCN000144000000072000FN00000000020220501000072000NNMD0420220306195156    1N0N  00000240000000686400000901432G2    AISUAI  005500360039
BI00B32G2    SA22054 MW     202204277289-3342-30             HOUSING FEMALE ASS'Y     CCN000141600000072000FN00000000020220501000072000NNMD0420220306195249    1N0N  00000240000000686400000901432G2    AISUAI  005500360039
BI00B32G2    SA22051 MW     202204207289-3342-40             HOUSING FEMALE ASS'Y     CCN000007200000007200FN00000000020220501000007200NNMD0420220306195633    1N0N  00000240000000686400000901432G2    AISUAI  005500360039
BI00B32G2    SA22051JMW     202204277289-3342-90             HOUSING FEMALE ASS'Y     CCN000012000000012000FN00000000020220501000012000NNMD0420220306200457    1N0N  00000240000000686400000901432G2    AISUAI  005500360039
BI00B32G2    SA22054JMW     202205057289-3342-90             HOUSING FEMALE ASS'Y     CCN000012000000012000FN00000000020220501000012000NNMD0420220306200513    1N0N  00000240000000686400000901432G2    AISUAI  005500360039
BI00B32G2    SA22051 MW     202204207283-4855                CONNECTOR HOUSING        CCN000012000000012000FN00000000020220501000012000NNMD0420220306194110    4N0N  00000240000001188400001400032G2    AISUAI  005500360039
BI00B32G2    SA22051 MW     202204207289-3342                HOUSING FEMALE ASS'Y     CCN000012000000012000FN00000000020220501000012000NNMD0420220306194727    1N0N  00000240000000686400000901432G2    AISUAI  005500360039
BI00B32G2    SA22051 MW     202204277289-3342                HOUSING FEMALE ASS'Y     CCN000012000000012000FN00000000020220501000012000NNMD0420220306194732    1N0N  00000240000000686400000901432G2    AISUAI  005500360039
BI00B32G2    SA22054 MW     202205117289-3342                HOUSING FEMALE ASS'Y     CCN000014400000014400FN00000000020220501000014400NNMD0420220306194807    1N0N  00000240000000686400000901432G2    AISUAI  005500360039
BI00B32G2    SA22051 MW     202204217289-3342-30             HOUSING FEMALE ASS'Y     CCN000072000000072000FN00000000020220501000072000NNMD0420220306195156    1N0N  00000240000000686400000901432G2    AISUAI  005500360039
BI00B32G2    SA22054 MW     202205047289-3342-30             HOUSING FEMALE ASS'Y     CCN000069600000069600FN00000000020220501000069600NNMD0420220306195249    1N0N  00000240000000686400000901432G2    AISUAI  005500360039
BI00B32H0    TT2205AVMW     202205177283-4855                CONNECTOR HOUSING        CCN000002400000002400FN00000000020220501000002400NNED0420220306191114    4N0N  00000240000001188400001400032H0    TTTJY   005500360039
BI00B32H7    FS2203DDMW     202205117288-6547                CONNECTOR MALE ASS'Y     CCN000022500000011250FN00000000020220301000011250NNED0420220306194527    4N0N  00000075000001205300001340332H7    FYFSY   005400370024
BI00B32H7    FS22051DMW     202204067283-4855                CONNECTOR HOUSING        CCN000012000000012000FN00000000020220501000012000NNMD0420220306194129    4N0N  00000240000001188400001400032H7    FYFSY   005500360039
BI00B32H7    FS22052DMW     202204207283-4855                CONNECTOR HOUSING        CCN000014400000014400FN00000000020220501000014400NNMD0420220306194147    4N0N  00000240000001188400001400032H7    FYFSY   005500360039
BI00B32H7    FS22053DMW     202204277283-4855                CONNECTOR HOUSING        CCN000012000000012000FN00000000020220501000012000NNMD0420220306194204    4N0N  00000240000001188400001400032H7    FYFSY   005500360039
BI00B32H7    FS22054DMW     202205047283-4855                CONNECTOR HOUSING        CCN000012000000012000FN00000000020220501000012000NNMD0420220306194218    4N0N  00000240000001188400001400032H7    FYFSY   005500360039
BI00B32H7    FS22051DMW     202204207288-6547                CONNECTOR MALE ASS'Y     CCN000009750000009750FN00000000020220501000009750NNMD0420220306194345    4N0N  00000075000001205300001340332H7    FYFSY   005400370024
BI00B32H7    FS22052DMW     202204277288-6547                CONNECTOR MALE ASS'Y     CCN000006750000006750FN00000000020220501000006750NNMD0420220306194400    4N0N  00000075000001205300001340332H7    FYFSY   005400370024
BI00B32H7    FS22053DMW     202205047288-6547                CONNECTOR MALE ASS'Y     CCN000006750000006750FN00000000020220501000006750NNMD0420220306194412    4N0N  00000075000001205300001340332H7    FYFSY   005400370024
BI00B32H7    FS22054DMW     202205257288-6547                CONNECTOR MALE ASS'Y     CCN000004500000004500FN00000000020220501000004500NNMD0420220306194550    4N0N  00000075000001205300001340332H7    FYFSY   005400370024
BI00B32H7    FS2203DDMW     202205187288-6547                CONNECTOR MALE ASS'Y     CCN000011250000011250FN00000000020220301000011250NNED0420220306194532    4N0N  00000075000001205300001340332H7    FYFSY   005400370024
BI00B32M1    TCV2053        202205057289-3342                HOUSING FEMALE ASS'Y     CCN000057600000057600FN00000000020220501000057600NNMD0420220306194825    1N0N  00000240000000686400000901432M1    VNYEV   005500360039
BI00B32M1    TCV2054        202205127289-3342                HOUSING FEMALE ASS'Y     CCN000122400000062400FN00000000020220501000062400NNMD0420220306194903    1N0N  00000240000000686400000901432M1    VNYEV   005500360039
BI00B32M1    TCV2053        202204287289-3342-30             HOUSING FEMALE ASS'Y     CCN000050400000026400FN00000000020220501000026400NNMD0420220306195329    1N0N  00000240000000686400000901432M1    VNYEV   005500360039
BI00B32M1    TCV2054        202205127289-3342-30             HOUSING FEMALE ASS'Y     CCN000050400000026400FN00000000020220501000026400NNMD0420220306195406    1N0N  00000240000000686400000901432M1    VNYEV   005500360039
BI00B32M1    TCV2054        202205117289-3342-40             HOUSING FEMALE ASS'Y     CCN000048000000048000FN00000000020220501000048000NNMD0420220306200342    1N0N  00000240000000686400000901432M1    VNYEV   005500360039
BI00B32M1    TCV2054        202205117289-3342-90             HOUSING FEMALE ASS'Y     CCN000024000000024000FN00000000020220501000024000NNMD0420220306200529    1N0N  00000240000000686400000901432M1    VNYEV   005500360039
BI00B32M1    TCV2054        202205057289-6547                HOUSING FEMALE ASS'Y     CCN000019200000019200FN00000000020220501000019200NNMD0020220306200018    1N0N  00000240000001152000001362032M1    VNYEV   005500360039
BI00B32M1    TCV2054        202205197289-3342                HOUSING FEMALE ASS'Y     CCN000060000000060000FN00000000020220501000060000NNMD0420220306194903    1N0N  00000240000000686400000901432M1    VNYEV   005500360039
BI00B32M1    TCV2053        202205057289-3342-30             HOUSING FEMALE ASS'Y     CCN000024000000024000FN00000000020220501000024000NNMD0420220306195329    1N0N  00000240000000686400000901432M1    VNYEV   005500360039
BI00B32M1    TCV2054        202205197289-3342-30             HOUSING FEMALE ASS'Y     CCN000024000000024000FN00000000020220501000024000NNMD0420220306195406    1N0N  00000240000000686400000901432M1    VNYEV   005500360039
BI00B32N1    NST2117FCU     202204287157-6287-70             SPACER                   CCN000070000000070000FN00000000020220401000070000NNED0420220306191032    1F0F  00007000000000700000000963032N1    TAYIPL  005500360039
BI00B32N3    NBT204 K       202203317283-4855                CONNECTOR HOUSING        CCN000012000000012000FN00000000020220401000012000NNED0420220306191133    4N0N  00000240000001188400001400032N3    ABYIPL-B005500360039
BI00B32N3    NBT204 K       202204077289-3342                HOUSING FEMALE ASS'Y     CCN000007200000007200FN00000000020220401000007200NNED0420220306191911    1N0N  00000240000000686400000901432N3    ABYIPL-B005500360039
BI00B32N3    NBT204 K       202203317288-3329-30             HOUSING MALE             CCN000009000000009000FN00000000020220401000009000NNED0420220306191230    4N0N  00000150000000866100001011132N3    ABYIPL-B005400370024
BI00B32N3    NBT204 K       202203317288-3330-30             HOUSING MALE             CCN000001500000001500FN00000000020220401000001500NNED0420220306191248    4N0N  00000150000000866300001011232N3    ABYIPL-B005400370024
BI00B32N3    NBT204 K       202203317288-3331-30             HOUSING MALE             CCN000001500000001500FN00000000020220401000001500NNED0420220306191344    4N0N  00000150000000866000001010932N3    ABYIPL-B005400370024
BI00B32N3    NBT204 K       202203317288-3332-30             HOUSING MALE             CCN000010500000010500FN00000000020220401000010500NNED0420220306191402    4N0N  00000150000000860700001005732N3    ABYIPL-B005400370024
BI00B32N3    NBT204 K       202203317288-3334-30             HOUSING MALE             CCN000006000000006000FN00000000020220401000006000NNED0420220306191414    4N0N  00000150000000867000001012032N3    ABYIPL-B005400370024
BI00B32N3    NBT204 K       202203317288-3335-30             HOUSING MALE             CCN000001500000001500FN00000000020220401000001500NNED0420220306191425    4N0N  00000150000000867000001012032N3    ABYIPL-B005400370024
BI00B32N3    NBT204 K       202203317288-3336-30             HOUSING MALE             CCN000001500000001500FN00000000020220401000001500NNED0420220306191534    4N0N  00000150000000867000001012032N3    ABYIPL-B005400370024
BI00B32N3    NBT204 K       202203317288-3337-30             HOUSING MALE             CCN000001500000001500FN00000000020220401000001500NNED0420220306191636    4N0N  00000150000000867000001012032N3    ABYIPL-B005400370024
BI00B32N3    NBT204 K       202203317288-3338-30             HOUSING MALE             CCN000003000000003000FN00000000020220401000003000NNED0420220306191650    4N0N  00000150000000866100001012032N3    ABYIPL-B005400370024
BI00B32N3    NBT204 K       202203317288-3339-30             HOUSING MALE             CCN000007500000007500FN00000000020220401000007500NNED0420220306191700    4N0N  00000150000000867000001012032N3    ABYIPL-B005400370024
BI00B32N3    NBT204 K       202203317288-3340-30             HOUSING MALE             CCN000003000000003000FN00000000020220401000003000NNED0420220306191713    4N0N  00000150000000861500001006432N3    ABYIPL-B005400370024
BI00B32N3    NBT204 K       202209297289-3342-30             HOUSING FEMALE ASS'Y     CCN000069600000033600FN00000000020220401000033600NNED0420220306192354    1N0N  00000240000000686400000901432N3    ABYIPL-B005500360039
BI00B32N3    NBT204 K       202204077289-3342-40             HOUSING FEMALE ASS'Y     CCN000002400000002400FN00000000020220401000002400NNED0420220306192504    1N0N  00000240000000686400000901432N3    ABYIPL-B005500360039
BI00B32N3    NBT204 K       202204077289-3342-90             HOUSING FEMALE ASS'Y     CCN000007200000007200FN00000000020220401000007200NNED0420220306192859    1N0N  00000240000000686400000901432N3    ABYIPL-B005500360039
BI00B32N3    NBT204 K       202210067289-3342-30             HOUSING FEMALE ASS'Y     CCN000036000000036000FN00000000020220401000036000NNED0420220306192359    1N0N  00000240000000686400000901432N3    ABYIPL-B005500360039
BI00B32W9    4500190084     202204197289-3342-40             HOUSING FEMALE ASS'Y     CCN000043200000004800FN00000000020220301000004800NNED0420220306192526W9  1N0N  00000240000000686400000901432W9    HKYHK   005500360039
BI00B32W9    4500190084     202204267289-3342-40             HOUSING FEMALE ASS'Y     CCN000004800000004800FN00000000020220301000004800NNED0420220306192545W9  1N0N  00000240000000686400000901432W9    HKYHK   005500360039
BI00B32W9    4500190084     202205037289-3342-40             HOUSING FEMALE ASS'Y     CCN000004800000004800FN00000000020220301000004800NNED0420220306192600W9  1N0N  00000240000000686400000901432W9    HKYHK   005500360039
BI00B32W9    4500190084     202205107289-3342-40             HOUSING FEMALE ASS'Y     CCN000004800000004800FN00000000020220301000004800NNED0420220306192612W9  1N0N  00000240000000686400000901432W9    HKYHK   005500360039
BI00B32W9    4500190084     202205177289-3342-40             HOUSING FEMALE ASS'Y     CCN000004800000004800FN00000000020220301000004800NNED0420220306192632W9  1N0N  00000240000000686400000901432W9    HKYHK   005500360039
BI00B32W9    4500190084     202205247289-3342-40             HOUSING FEMALE ASS'Y     CCN000004800000004800FN00000000020220301000004800NNED0420220306192646W9  1N0N  00000240000000686400000901432W9    HKYHK   005500360039
BI00B32W9    4500190084     202205317289-3342-40             HOUSING FEMALE ASS'Y     CCN000004800000004800FN00000000020220301000004800NNED0420220306192711W9  1N0N  00000240000000686400000901432W9    HKYHK   005500360039
BI00B32W9    4500190084     202206077289-3342-40             HOUSING FEMALE ASS'Y     CCN000004800000004800FN00000000020220301000004800NNED0420220306192725W9  1N0N  00000240000000686400000901432W9    HKYHK   005500360039
BI00B32W9    4500190084     202206177289-3342-40             HOUSING FEMALE ASS'Y     CCN000004800000004800FN00000000020220301000004800NNED0420220306192733W9  1N0N  00000240000000686400000901432W9    HKYHK   005500360039
BI00B32Y1    TA2051A        202204187289-3342-30             HOUSING FEMALE ASS'Y     CCN000021600000021600FN00000000020210501000021600NNMD0420220306195438    1N0N  00000240000000686400000901432Y1    YAYAS   005500360039
BI00B32Y1    TA2052A        202205027289-3342-30             HOUSING FEMALE ASS'Y     CCN000019200000019200FN00000000020210501000019200NNMD0420220306195510    1N0N  00000240000000686400000901432Y1    YAYAS   005500360039
BI00B32Y2    TAU1191        202205057289-3342-30             HOUSING FEMALE ASS'Y     CCN000096000000024000FN00000000020220801000024000NNMD0420220306195545    1N0N  00000240000000686400000901432Y2    YUYUY   005500360039
BI00B32Y2    TAU1191        202205127289-3342-30             HOUSING FEMALE ASS'Y     CCN000024000000024000FN00000000020220801000024000NNMD0420220306195545    1N0N  00000240000000686400000901432Y2    YUYUY   005500360039
BI00B32Y2    TAU1191        202205197289-3342-30             HOUSING FEMALE ASS'Y     CCN000024000000024000FN00000000020220801000024000NNMD0420220306195554    1N0N  00000240000000686400000901432Y2    YUYUY   005500360039
BI00B32Y2    TAU1191        202205267289-3342-30             HOUSING FEMALE ASS'Y     CCN000024000000024000FN00000000020220801000024000NNMD0420220306195602    1N0N  00000240000000686400000901432Y2    YUYUY   005500360039
BI00B32Y5    TTA32082       202205177C89-3342-30             HOUSING FEMALE ASS'Y     CCN000002400000002400FN00000000020220801000002400NNMD0420220306193007    1N0N  00000240000000686400000901432Y5    BZYBL   005500360039
BI00B32Y5    TTA32083       202206077C89-3342-30             HOUSING FEMALE ASS'Y     CCN000002400000002400FN00000000020220801000002400NNMD0420220306193020    1N0N  00000240000000686400000901432Y5    BZYBL   005500360039
BI00B32Y5    TTA32084       202206217C89-3342-30             HOUSING FEMALE ASS'Y     CCN000002400000002400FN00000000020220801000002400NNMD0420220306193032    1N0N  00000240000000686400000901432Y5    BZYBL   005500360039
BI00B32Y5    TTA32082       202205177288-6547                CONNECTOR MALE ASS'Y     CCN000006000000006000FN00000000020220801000006000NNMD0420220306191754    4N0N  00000075000001205300001340332Y5    BZYBL   005400370024
BI00B32Y5    TTA32083       202206077288-6547                CONNECTOR MALE ASS'Y     CCN000006000000006000FN00000000020220801000006000NNMD0420220306191818    4N0N  00000075000001205300001340332Y5    BZYBL   005400370024
BI00B32Y5    TTA32084       202206217288-6547                CONNECTOR MALE ASS'Y     CCN000006000000006000FN00000000020220801000006000NNMD0420220306191836    4N0N  00000075000001205300001340332Y5    BZYBL   005400370024
BI00B32Y5    TTA32082       202205177289-3342                HOUSING FEMALE ASS'Y     CCN000012000000012000FN00000000020220801000012000NNMD0420220306191935    1N0N  00000240000000686400000901432Y5    BZYBL   005500360039
BI00B32Y5    TTA32083       202206077289-3342                HOUSING FEMALE ASS'Y     CCN000012000000012000FN00000000020220801000012000NNMD0420220306191947    1N0N  00000240000000686400000901432Y5    BZYBL   005500360039
BI00B32Y5    TTA32084       202206217289-3342                HOUSING FEMALE ASS'Y     CCN000012000000012000FN00000000020220801000012000NNMD0420220306191959    1N0N  00000240000000686400000901432Y5    BZYBL   005500360039
BI00B32Y5    TTA32082       202205177289-3342-30             HOUSING FEMALE ASS'Y     CCN000007200000007200FN00000000020220801000007200NNMD0420220306192418    1N0N  00000240000000686400000901432Y5    BZYBL   005500360039
BI00B32Y5    TTA32083       202206077289-3342-30             HOUSING FEMALE ASS'Y     CCN000004800000004800FN00000000020220801000004800NNMD0420220306192429    1N0N  00000240000000686400000901432Y5    BZYBL   005500360039
BI00B32Y5    TTA32084       202206217289-3342-30             HOUSING FEMALE ASS'Y     CCN000004800000004800FN00000000020220801000004800NNMD0420220306192439    1N0N  00000240000000686400000901432Y5    BZYBL   005500360039
BI00B32Y5    TTA32082       202205177289-3342-40             HOUSING FEMALE ASS'Y     CCN000004800000004800FN00000000020220801000004800NNMD0420220306192809    1N0N  00000240000000686400000901432Y5    BZYBL   005500360039
BI00B32Y5    TTA32083       202206077289-3342-40             HOUSING FEMALE ASS'Y     CCN000004800000004800FN00000000020220801000004800NNMD0420220306192823    1N0N  00000240000000686400000901432Y5    BZYBL   005500360039
BI00B32Y5    TTA32084       202206217289-3342-40             HOUSING FEMALE ASS'Y     CCN000004800000004800FN00000000020220801000004800NNMD0420220306192839    1N0N  00000240000000686400000901432Y5    BZYBL   005500360039
BI00B32Y5    TTA32082       202205177289-3342-90             HOUSING FEMALE ASS'Y     CCN000004800000004800FN00000000020220801000004800NNMD0420220306192915    1N0N  00000240000000686400000901432Y5    BZYBL   005500360039
BI00B32Y5    TTA32083       202206077289-3342-90             HOUSING FEMALE ASS'Y     CCN000004800000004800FN00000000020220801000004800NNMD0420220306192928    1N0N  00000240000000686400000901432Y5    BZYBL   005500360039
BI00B32Y5    TTA32084       202206217289-3342-90             HOUSING FEMALE ASS'Y     CCN000004800000004800FN00000000020220801000004800NNMD0420220306192939    1N0N  00000240000000686400000901432Y5    BZYBL   005500360039
BI00B32Y8    TAIM2203A      202204277289-3342-30             HOUSING FEMALE ASS'Y     CCN000002400000002400FN00000000020220601000002400NNMD0420220306193430Y8  1N0N  00000240000000686400000901432Y8    CLYCL   005500360039
