BI00B32B6    W71036         202110081801W004061              IVSSH 0.75F LG           CCN000002600000001300FY00000130020211001000000000NNM20 20211229150800B6  1W    00000130000000882000000000032B6    AXARNE-M000000000000AW417027
BI00B32B6    W71036         202201141801W004090              IVSSH 0.75F L            CCN000002600000002600FN00000000020211001000002600NNM21 20211229150800B6  1W    00000130000000882000000000032B6    AXARNE-M000000000000AW417026
BI00B32B6    W71037         202110081801W003950              IVSSH 0.5F R             CCN000018000000014400FY00001440020211001000000000NNM20 20211229150334B6  1W    00000180000000625000000000032B6    AXARNE-M000000000000AW118017
BI00B32B6    W71037         202110081801W00395U              IVSSH 0.5F BE            CCN000027000000007200FY00000720020211001000000000NNM20 20211229150301B6  1W    00000180000000625000000000032B6    AXARNE-M000000000000AW118010
BI00B32B6    W71037         202201141801W003961              IVSSH 0.5F LG            CCN000023400000023400FN00000000020211001000023400NNM23 20211229150453B6  1W    00000180000000625000000000032B6    AXARNE-M000000000000AW118015
BI00B32B6    W71037         202201141801W003970              IVSSH 0.5F Y             CCN000019800000019800FN00000000020211001000019800NNM23 20211229150624B6  1W    00000180000000625000000000032B6    AXARNE-M000000000000AW118021
BI00B32B6    W71037         202201141801W003980              IVSSH 0.5F BR            CCN000010800000010800FN00000000020211001000010800NNM23 20211229150624B6  1W    00000180000000625000000000032B6    AXARNE-M000000000000AW118011
BI00B32B6    W71037         202201141801W003991              IVSSH 0.5F SB            CCN000019800000019800FN00000000020211001000019800NNM23 20211229150624B6  1W    00000180000000625000000000032B6    AXARNE-M000000000000AW118018
BI00B32B6    W71037         202201141801W003992              IVSSH 0.5F V             CCN000009000000009000FN00000000020211001000009000NNM23 20211229150624B6  1W    00000180000000625000000000032B6    AXARNE-M000000000000AW118019
BI00B32B6    W71037         202201141801W004052              IVSSH 0.75F P            CCN000002600000002600FN00000000020211001000002600NNM23 20211229150624B6  1W    00000130000000882000000000032B6    AXARNE-M000000000000AW118027
BI00B32B6    W71037         202201141801W00405U              IVSSH 0.75F BE           CCN000002600000002600FN00000000020211001000002600NNM23 20211229150624B6  1W    00000130000000882000000000032B6    AXARNE-M000000000000AW118023
BI00B32B6    W71037         202201141801W004061              IVSSH 0.75F LG           CCN000002600000002600FN00000000020211001000002600NNM23 20211229150624B6  1W    00000130000000882000000000032B6    AXARNE-M000000000000AW118026
BI00B32B6    W71037         202201141801W004090              IVSSH 0.75F L            CCN000002600000002600FN00000000020211001000002600NNM23 20211229150624B6  1W    00000130000000882000000000032B6    AXARNE-M000000000000AW118025
BI00B32B6    W71042         202201211801W003930              IVSSH 0.5F B             CCN000041400000028800FN00000000020211201000028800NNM24 20211229145515B6  1W    00000180000000625000000000032B6    AXARNE-M000000000000AW31A011
BI00B32B6    W71042         202201211801W003940              IVSSH 0.5F W             CCN000050400000050400FN00000000020211201000050400NNM24 20211229145534B6  1W    00000180000000625000000000032B6    AXARNE-M000000000000AW31A022
BI00B32B6    W71042         202201211801W003941              IVSSH 0.5F GY            CCN000028800000028800FN00000000020211201000028800NNM24 20211229145534B6  1W    00000180000000625000000000032B6    AXARNE-M000000000000AW31A015
BI00B32B6    W71042         202201211801W00395U              IVSSH 0.5F BE            CCN000005400000005400FN00000000020211201000005400NNM24 20211229145546B6  1W    00000180000000625000000000032B6    AXARNE-M000000000000AW31A012
BI00B32B6    W71042         202201211801W003961              IVSSH 0.5F LG            CCN000010800000010800FN00000000020211201000010800NNM24 20211229145607B6  1W    00000180000000625000000000032B6    AXARNE-M000000000000AW31A017
BI00B32B6    W71042         202201211801W003970              IVSSH 0.5F Y             CCN000021600000021600FN00000000020211201000021600NNM24 20211229145636B6  1W    00000180000000625000000000032B6    AXARNE-M000000000000AW31A023
BI00B32B6    W71042         202201211801W003980              IVSSH 0.5F BR            CCN000030600000030600FN00000000020211201000030600NNM24 20211229145636B6  1W    00000180000000625000000000032B6    AXARNE-M000000000000AW31A013
BI00B32B6    W71042         202201211801W003991              IVSSH 0.5F SB            CCN000001800000001800FN00000000020211201000001800NNM24 20211229145742B6  1W    00000180000000625000000000032B6    AXARNE-M000000000000AW31A020
BI00B32B6    W71042         202201211801W003992              IVSSH 0.5F V             CCN000023400000023400FN00000000020211201000023400NNM24 20211229145742B6  1W    00000180000000625000000000032B6    AXARNE-M000000000000AW31A021
BI00B32B6    W71042         202201211801W004040              IVSSH 0.75F W            CCN000002600000002600FN00000000020211201000002600NNM24 20211229145742B6  1W    00000130000000882000000000032B6    AXARNE-M000000000000AW31A030
BI00B32B6    W71042         202201211801W004052              IVSSH 0.75F P            CCN000002600000002600FN00000000020211201000002600NNM24 20211229145742B6  1W    00000130000000882000000000032B6    AXARNE-M000000000000AW31A029
BI00B32B6    W71042         202201211801W00405U              IVSSH 0.75F BE           CCN000003900000003900FN00000000020211201000003900NNM24 20211229145742B6  1W    00000130000000882000000000032B6    AXARNE-M000000000000AW31A025
BI00B32B6    W71042         202201211801W004060              IVSSH 0.75F G            CCN000006500000006500FN00000000020211201000006500NNM24 20211229145742B6  1W    00000130000000882000000000032B6    AXARNE-M000000000000AW31A026
BI00B32B6    W71042         202201211801W004061              IVSSH 0.75F LG           CCN000002600000002600FN00000000020211201000002600NNM24 20211229145806B6  1W    00000130000000882000000000032B6    AXARNE-M000000000000AW31A028
BI00B32B6    W71042         202201211801W004090              IVSSH 0.75F L            CCN000002600000002600FN00000000020211201000002600NNM24 20211229145806B6  1W    00000130000000882000000000032B6    AXARNE-M000000000000AW31A027
BI00B32B6    W71037         202201141801W003990              IVSSH 0.5F L             CCN000018000000018000FN00000000020211001000018000NNM23 20211229150624B6  1W    00000180000000625000000000032B6    AXARNE-M000000000000AW118014
BI00A32B6    W71042         202112241801W003930              IVSSH 0.5F B             PCN000014400000000000FY00000000020211201000000000NNM10 20211229145507B6  1W    00000180000000625000000000032B6    AXARNE-M000000000000AW31A011
BI00B32B6    W71037         202201141801W00395U              IVSSH 0.5F BE            CCN000019800000019800FN00000000020211001000019800NNM23 20211229150401B6  1W    00000180000000625000000000032B6    AXARNE-M000000000000AW118010
BI00B32B6    W71037         202201141801W003950              IVSSH 0.5F R             CCN000003600000003600FN00000000020211001000003600NNM23 20211229150401B6  1W    00000180000000625000000000032B6    AXARNE-M000000000000AW118017
BI00B32B6    W71036         202201141801W004061              IVSSH 0.75F LG           CCN000001300000001300FN00000000020211001000001300NNM21 20211229150800B6  1W    00000130000000882000000000032B6    AXARNE-M000000000000AW417027
BI00B32CJ    TTQ1103        202201211801W006961              IVSSH 0.35F LG           CCN000015000000015000FN00000000020211001000015000NNM30 20211229111749    1W    00000250000000452000000000032CJ    QNYHVQN 000000000000UQ31A061
BI00B32N2    2152103734     2022011918007703930              AVSS 0.5F B              CCN000001500000001500FN00000000020220101000001500NNE   20211229130414    1W    00000150000000674000000000032N2    YWYIPLTC000000000000KU121003
BI00B32N2    2152103734     20220119180D0204090              AVSSH 0.75F L            CCN000001000000001000FN00000000020220101000001000NNE   20211229130414    1W    00000100000000934000000000032N2    YWYIPLTC000000000000KU121001
BI00B32N2    2152103734     20220119180D0204097              AVSSH 0.75F L/Y          CCN000001000000001000FN00000000020220101000001000NNE   20211229130414    1W    00000100000000933600000000032N2    YWYIPLTC000000000000KU121002
BI00B32N2    2152103741     2022012618007703918              AVSS 0.5F G/O            CCN000001500000001500FN00000000020220101000001500NNE   20211229130416    1W    00000150000000674000000000032N2    YWYIPLTC000000000000KU221007
BI00B32N2    2152103741     2022012618007703930              AVSS 0.5F B              CCN000003000000003000FN00000000020220101000003000NNE   20211229130416    1W    00000150000000674000000000032N2    YWYIPLTC000000000000KU221005
BI00B32N2    2152103741     2022012618007703940              AVSS 0.5F W              CCN000001500000001500FN00000000020220101000001500NNE   20211229130416    1W    00000150000000674000000000032N2    YWYIPLTC000000000000KU221012
BI00B32N2    2152103741     2022012618007703941              AVSS 0.5F GY             CCN000001500000001500FN00000000020220101000001500NNE   20211229130416    1W    00000150000000674000000000032N2    YWYIPLTC000000000000KU221009
BI00B32N2    2152103741     2022012618007703951              AVSS 0.5F O              CCN000001500000001500FN00000000020220101000001500NNE   20211229130416    1W    00000150000000674000000000032N2    YWYIPLTC000000000000KU221011
BI00B32N2    2152103741     2022012618007703960              AVSS 0.5F G              CCN000001500000001500FN00000000020220101000001500NNE   20211229130416    1W    00000150000000674000000000032N2    YWYIPLTC000000000000KU221006
BI00B32N2    2152103741     2022012618007703965              AVSS 0.5F G/R            CCN000001500000001500FN00000000020220101000001500NNE   20211229130416    1W    00000150000000674000000000032N2    YWYIPLTC000000000000KU221008
BI00B32N2    2152103741     2022012618007703970              AVSS 0.5F Y              CCN000001500000001500FN00000000020220101000001500NNE   20211229130416    1W    00000150000000674000000000032N2    YWYIPLTC000000000000KU221013
BI00B32N2    2152103741     2022012618007703990              AVSS 0.5F L              CCN000003000000003000FN00000000020220101000003000NNE   20211229130416    1W    00000150000000674000000000032N2    YWYIPLTC000000000000KU221010
BI00B32N2    2152103741     2022012618007704050              AVSS 0.75F R             CCN000001000000001000FN00000000020220101000001000NNE   20211229130416    1W    00000100000000943000000000032N2    YWYIPLTC000000000000KU221014
BI00B32N2    2152103741     2022012618007704183              AVSS 1.25F BR/B          CCN000001600000001600FN00000000020220101000001600NNE   20211229130416    1W    00000080000001389000000000032N2    YWYIPLTC000000000000KU221015
BI00B32N2    2152103741     2022012618007704190              AVSS 1.25F L             CCN000002400000002400FN00000000020220101000002400NNE   20211229130416    1W    00000080000001389000000000032N2    YWYIPLTC000000000000KU221016
BI00B32N2    2152103741     2022012618007704194              AVSS 1.25F L/W           CCN000000800000000800FN00000000020220101000000800NNE   20211229130416    1W    00000080000001389000000000032N2    YWYIPLTC000000000000KU221018
BI00B32N2    2152103741     2022012618007704195              AVSS 1.25F L/R           CCN000002400000002400FN00000000020220101000002400NNE   20211229130416    1W    00000080000001389000000000032N2    YWYIPLTC000000000000KU221017
BI00B32N2    2152103741     20220126180D0204040              AVSSH 0.75F W            CCN000002000000002000FN00000000020220101000002000NNE   20211229130416    1W    00000100000000934000000000032N2    YWYIPLTC000000000000KU221004
BI00B32N2    2152103741     20220126180D0204060              AVSSH 0.75F G            CCN000001000000001000FN00000000020220101000001000NNE   20211229130416    1W    00000100000000934000000000032N2    YWYIPLTC000000000000KU221002
BI00B32N2    2152103741     20220126180D0204080              AVSSH 0.75F BR           CCN000001000000001000FN00000000020220101000001000NNE   20211229130416    1W    00000100000000934000000000032N2    YWYIPLTC000000000000KU221001
BI00B32N2    2152103741     20220126180D0204090              AVSSH 0.75F L            CCN000001000000001000FN00000000020220101000001000NNE   20211229130416    1W    00000100000000934000000000032N2    YWYIPLTC000000000000KU221003
BI00B32W2    HN2202ANMW     2022011818000004560              AV 8 G                   CCN000000300000000300FN00000000020220201000000300NNE   20211229083933    1W    00000010000010466200000000032W2    HNHNY   000000000000HA121001
BI00B32W2    HN2202AWMW     2022011818000004530              AV 8 B                   CCN000003500000003500FN00000000020220201000003500NNE   20211229083935    1W    00000010000010466200000000032W2    HNHNY   000000000000HB121001
BI00B32W2    HN2202AWMW     2022011818000004550              AV 8 R                   CCN000001700000001700FN00000000020220201000001700NNE   20211229083935    1W    00000010000010466200000000032W2    HNHNY   000000000000HB121002
BI00B32W2    HN2202AWMW     2022011818000004540              AV 8 W                   CCN000000200000000200FN00000000020220201000000200NNE   20211229083935    1W    00000010000010466200000000032W2    HNHNY   000000000000HB121003
BI00B32W9    4500186361     2022012518001403960              AV 0.5F G                CCN000002000000002000FN00000000020220101000002000NNE   20211229103712W93 1W    00000100000000903000000000032W93   HKYHK   000000000000ZK221001
BI00B32W9    4500186361     2022012518001403964              AV 0.5F G/W              CCN000002000000002000FN00000000020220101000002000NNE   20211229103712W93 1W    00000100000000903000000000032W93   HKYHK   000000000000ZK221002
BI00B32W9    4500186361     2022012518009604453              AVS 5 R/B                CCN000000200000000200FN00000000020220101000000200NNE   20211229103712W93 1W    00000020000005981000000000032W93   HKYHK   000000000000ZK221003
BI00B32W9    4500186517     2022011818000004554              AV 8 R/W                 CCN000000100000000100FN00000000020220101000000100NNE   20211229103714W93 1W    00000010000010466200000000032W93   HKYHK   000000000000ZA121001
BI00B32W9    4500186517     2022011818001403960              AV 0.5F G                CCN000001000000001000FN00000000020220101000001000NNE   20211229103714W93 1W    00000100000000903000000000032W93   HKYHK   000000000000ZA121002
BI00B32W9    4500186362     2022020118000004543              AV 8 W/B                 CCN000000100000000100FN00000000020220201000000100NNE   20211229103715W93 1W    00000010000010466200000000032W93   HKYHK   000000000000ZH321001
BI00B32W9    4500186362     2022020118009604470              AVS 5 Y                  CCN000000200000000200FN00000000020220201000000200NNE   20211229103715W93 1W    00000020000005981000000000032W93   HKYHK   000000000000ZH321003
BI00B32W9    4500186362     2022020118009604453              AVS 5 R/B                CCN000000200000000200FN00000000020220201000000200NNE   20211229103715W93 1W    00000020000005981000000000032W93   HKYHK   000000000000ZH321002
BI00B32W9    4500186363     2022020818000004543              AV 8 W/B                 CCN000000100000000100FN00000000020220201000000100NNE   20211229103716W93 1W    00000010000010466200000000032W93   HKYHK   000000000000ZN421002
BI00B32W9    4500186363     2022020818000004545              AV 8 W/R                 CCN000000100000000100FN00000000020220201000000100NNE   20211229103716W93 1W    00000010000010466200000000032W93   HKYHK   000000000000ZN421003
BI00B32W9    4500186363     2022020818018403989              CAVS 0.5 BR/L            CCN000001500000001500FN00000000020220201000001500NNE   20211229103716W93 1W    00000150000000677000000000032W93   HKYHK   000000000000ZN421025
BI00B32W9    4500186363     2022020818018404089              CAVS 0.85 BR/L           CCN000001000000001000FN00000000020220201000001000NNE   20211229103716W93 1W    00000100000000965000000000032W93   HKYHK   000000000000ZN421031
BI00B32W9    4500186363     20220208180184041G1              CAVS 1.25 Y/V            CCN000000800000000800FN00000000020220201000000800NNE   20211229103716W93 1W    00000080000001378000000000032W93   HKYHK   000000000000ZN421041
BI00B32W9    4500186363     2022020818009604470              AVS 5 Y                  CCN000000200000000200FN00000000020220201000000200NNE   20211229103716W93 1W    00000020000005981000000000032W93   HKYHK   000000000000ZN421018
BI00B32W9    4500186363     2022020818000004540              AV 8 W                   CCN000000100000000100FN00000000020220201000000100NNE   20211229103716W93 1W    00000010000010466200000000032W93   HKYHK   000000000000ZN421001
BI00B32W9    4500186363     2022020818009604430              AVS 5 B                  CCN000000200000000200FN00000000020220201000000200NNE   20211229103716W93 1W    00000020000005981000000000032W93   HKYHK   000000000000ZN421013
BI00B32W9    4500186363     2022020818009604450              AVS 5 R                  CCN000001000000001000FN00000000020220201000001000NNE   20211229103716W93 1W    00000020000005981000000000032W93   HKYHK   000000000000ZN421014
BI00B32W9    4500186363     2022020818009604345              AVS 3 W/R                CCN000000800000000800FN00000000020220201000000800NNE   20211229103716W93 1W    00000040000003831600000000032W93   HKYHK   000000000000ZN421010
BI00B32W9    4500186363     2022020818009604445              AVS 5 W/R                CCN000000200000000200FN00000000020220201000000200NNE   20211229103716W93 1W    00000020000005981000000000032W93   HKYHK   000000000000ZN421017
BI00B32W9    4500186363     2022020818009604354              AVS 3 R/W                CCN000000800000000800FN00000000020220201000000800NNE   20211229103716W93 1W    00000040000003831600000000032W93   HKYHK   000000000000ZN421009
BI00B32W9    4500186363     2022020818009604045              AVS 0.85 W/R             CCN000001000000001000FN00000000020220201000001000NNE   20211229103716W93 1W    00000100000001167700000000032W93   HKYHK   000000000000ZN421007
BI00B32W9    4500186363     2022020818009604334              AVS 3 B/W                CCN000000400000000400FN00000000020220201000000400NNE   20211229103716W93 1W    00000040000003831600000000032W93   HKYHK   000000000000ZN421008
BI00B32W9    4500186363     2022020818009604373              AVS 3 Y/B                CCN000000400000000400FN00000000020220201000000400NNE   20211229103716W93 1W    00000040000003831600000000032W93   HKYHK   000000000000ZN421011
BI00B32W9    4500186363     2022020818009604375              AVS 3 Y/R                CCN000000400000000400FN00000000020220201000000400NNE   20211229103716W93 1W    00000040000003831600000000032W93   HKYHK   000000000000ZN421012
BI00B32W9    4500186363     2022020818009604453              AVS 5 R/B                CCN000000200000000200FN00000000020220201000000200NNE   20211229103716W93 1W    00000020000005981000000000032W93   HKYHK   000000000000ZN421015
BI00B32W9    4500186363     2022020818009604454              AVS 5 R/W                CCN000000200000000200FN00000000020220201000000200NNE   20211229103716W93 1W    00000020000005981000000000032W93   HKYHK   000000000000ZN421016
BI00B32W9    4500186363     2022020818007704254              AVSS 2F R/W              CCN000001000000001000FN00000000020220201000001000NNE   20211229103716W93 1W    00000050000002126400000000032W93   HKYHK   000000000000ZN421006
BI00B32W9    4500186363     2022020818007704045              AVSS 0.75F W/R           CCN000001000000001000FN00000000020220201000001000NNE   20211229103716W93 1W    00000100000000943000000000032W93   HKYHK   000000000000ZN421004
BI00B32W9    4500186363     2022020818007704259              AVSS 2F R/L              CCN000001000000001000FN00000000020220201000001000NNE   20211229103716W93 1W    00000050000002126400000000032W93   HKYHK   000000000000ZN421005
BI00B32W9    4500186363     2022020818018403953              CAVS 0.5 R/B             CCN000001500000001500FN00000000020220201000001500NNE   20211229103716W93 1W    00000150000000677000000000032W93   HKYHK   000000000000ZN421026
BI00B32W9    4500186363     2022020818018403956              CAVS 0.5 R/G             CCN000003000000003000FN00000000020220201000003000NNE   20211229103716W93 1W    00000150000000677000000000032W93   HKYHK   000000000000ZN421027
BI00B32W9    4500186363     2022020818018403959              CAVS 0.5 R/L             CCN000001500000001500FN00000000020220201000001500NNE   20211229103716W93 1W    00000150000000677000000000032W93   HKYHK   000000000000ZN421028
BI00B32W9    4500186363     2022020818018404170              CAVS 1.25 Y              CCN000000800000000800FN00000000020220201000000800NNE   20211229103716W93 1W    00000080000001378000000000032W93   HKYHK   000000000000ZN421040
BI00B32W9    4500186363     2022020818018403734              CAVS 0.3 B/W             CCN000002000000002000FN00000000020220201000002000NNE   20211229103716W93 1W    00000200000000471000000000032W93   HKYHK   000000000000ZN421019
BI00B32W9    4500186363     2022020818018403767              CAVS 0.3 G/Y             CCN000002000000002000FN00000000020220201000002000NNE   20211229103716W93 1W    00000200000000471000000000032W93   HKYHK   000000000000ZN421021
BI00B32W9    4500186363     2022020818018403757              CAVS 0.3 R/Y             CCN000002000000002000FN00000000020220201000002000NNE   20211229103716W93 1W    00000200000000471000000000032W93   HKYHK   000000000000ZN421023
BI00B32W9    4500186363     2022020818018403775              CAVS 0.3 Y/R             CCN000002000000002000FN00000000020220201000002000NNE   20211229103716W93 1W    00000200000000471000000000032W93   HKYHK   000000000000ZN421024
BI00B32W9    4500186363     2022020818018403949              CAVS 0.5 W/L             CCN000001500000001500FN00000000020220201000001500NNE   20211229103716W93 1W    00000150000000677000000000032W93   HKYHK   000000000000ZN421029
BI00B32W9    4500186363     2022020818018403754              CAVS 0.3 R/W             CCN000002000000002000FN00000000020220201000002000NNE   20211229103716W93 1W    00000200000000471000000000032W93   HKYHK   000000000000ZN421022
BI00B32W9    4500186363     2022020818018404192              CAVS 1.25 V              CCN000001600000001600FN00000000020220201000001600NNE   20211229103716W93 1W    00000080000001378000000000032W93   HKYHK   000000000000ZN421039
BI00B32W9    4500186363     2022020818018404090              CAVS 0.85 L              CCN000001000000001000FN00000000020220201000001000NNE   20211229103716W93 1W    00000100000000965000000000032W93   HKYHK   000000000000ZN421035
BI00B32W9    4500186363     2022020818018404053              CAVS 0.85 R/B            CCN000001000000001000FN00000000020220201000001000NNE   20211229103716W93 1W    00000100000000965000000000032W93   HKYHK   000000000000ZN421037
BI00B32W9    4500186363     2022020818018404193              CAVS 1.25 L/B            CCN000000800000000800FN00000000020220201000000800NNE   20211229103716W93 1W    00000080000001378000000000032W93   HKYHK   000000000000ZN421038
BI00B32W9    4500186363     2022020818018404035              CAVS 0.85 B/R            CCN000001000000001000FN00000000020220201000001000NNE   20211229103716W93 1W    00000100000000965000000000032W93   HKYHK   000000000000ZN421030
BI00B32W9    4500186363     2022020818018404065              CAVS 0.85 G/R            CCN000003000000003000FN00000000020220201000003000NNE   20211229103716W93 1W    00000100000000965000000000032W93   HKYHK   000000000000ZN421033
BI00B32W9    4500186363     2022020818018404017              CAVS 0.85 LG/B           CCN000001000000001000FN00000000020220201000001000NNE   20211229103716W93 1W    00000100000000965000000000032W93   HKYHK   000000000000ZN421036
BI00B32W9    4500186363     2022020818018404041              CAVS 0.85 GY             CCN000001000000001000FN00000000020220201000001000NNE   20211229103716W93 1W    00000100000000965000000000032W93   HKYHK   000000000000ZN421034
BI00B32W9    4500186363     2022020818018403718              CAVS 0.3 G/O             CCN000002000000002000FN00000000020220201000002000NNE   20211229103716W93 1W    00000200000000471000000000032W93   HKYHK   000000000000ZN421020
BI00B32W9    4500186363     2022020818018404063              CAVS 0.85 G/B            CCN000001000000001000FN00000000020220201000001000NNE   20211229103716W93 1W    00000100000000965000000000032W93   HKYHK   000000000000ZN421032
BI00B32W9    4500186453     2022020818018403918              CAVS 0.5 G/O             CCN000001500000001500FN00000000020220201000001500NNE   20211229103717W93 1W    00000150000000677000000000032W93   HKYHK   000000000000ZO421005
BI00B32W9    4500186453     2022020818018403968              CAVS 0.5 G/BR            CCN000003000000003000FN00000000020220201000003000NNE   20211229103717W93 1W    00000150000000677000000000032W93   HKYHK   000000000000ZO421004
BI00B32W9    4500186453     2022020818018403989              CAVS 0.5 BR/L            CCN000001500000001500FN00000000020220201000001500NNE   20211229103717W93 1W    00000150000000677000000000032W93   HKYHK   000000000000ZO421003
BI00B32W9    4500186453     2022020818009604450              AVS 5 R                  CCN000000400000000400FN00000000020220201000000400NNE   20211229103717W93 1W    00000020000005981000000000032W93   HKYHK   000000000000ZO421002
BI00B32W9    4500186453     2022020818009604354              AVS 3 R/W                CCN000000400000000400FN00000000020220201000000400NNE   20211229103717W93 1W    00000040000003831600000000032W93   HKYHK   000000000000ZO421001
BI00B32W9    4500186453     2022020818018404170              CAVS 1.25 Y              CCN000000800000000800FN00000000020220201000000800NNE   20211229103717W93 1W    00000080000001378000000000032W93   HKYHK   000000000000ZO421012
BI00B32W9    4500186453     2022020818018403990              CAVS 0.5 L               CCN000001500000001500FN00000000020220201000001500NNE   20211229103717W93 1W    00000150000000677000000000032W93   HKYHK   000000000000ZO421007
BI00B32W9    4500186453     2022020818018403967              CAVS 0.5 G/Y             CCN000001500000001500FN00000000020220201000001500NNE   20211229103717W93 1W    00000150000000677000000000032W93   HKYHK   000000000000ZO421006
BI00B32W9    4500186453     2022020818018403954              CAVS 0.5 R/W             CCN000001500000001500FN00000000020220201000001500NNE   20211229103717W93 1W    00000150000000677000000000032W93   HKYHK   000000000000ZO421008
BI00B32W9    4500186453     2022020818018403975              CAVS 0.5 Y/R             CCN000001500000001500FN00000000020220201000001500NNE   20211229103717W93 1W    00000150000000677000000000032W93   HKYHK   000000000000ZO421009
BI00B32W9    4500186453     2022020818018404017              CAVS 0.85 LG/B           CCN000001000000001000FN00000000020220201000001000NNE   20211229103717W93 1W    00000100000000965000000000032W93   HKYHK   000000000000ZO421011
BI00B32W9    4500186453     20220208180184039G1              CAVS 0.5 Y/V             CCN000001500000001500FN00000000020220201000001500NNE   20211229103717W93 1W    00000150000000677000000000032W93   HKYHK   000000000000ZO421010
