BI00A1200    HIB21121301    202202107196-2027-02             TERMINAL FEMALE          CCN000024000000024000FN00000000020220101000024000NNED0420211229200538    4P0P  0000240000000104400000120741200    YCYC    005100280028
BI00A1200    HIB21121301    202202107196-2032-02             TERMINAL FEMALE          CCN000015000000015000FN00000000020220101000015000NNED0420211229200538    4P0P  0000150000000107100000123441200    YCYC    005100280028
BI00A1200    HIB21121301    202202107126-8892-02             FUSE TERMINAL            CCN000006000000006000FN00000000020220101000006000NNED0420211229200538    4P0P  0000060000000049500000078021200    YCYC    006400630015
BI00A1200    HIB21121301    202202107195-2046-02             TERMINAL MALE            CCN000008400000008400FN00000000020220101000008400NNED0420211229200538    4P0P  0000084000000081820000111181200    YCYC    006400630015
BI00B1200    CE21-MN-0166   202202107195-2046-02             TERMINAL MALE            CCN000007500000008400FN00000000020220201000008400NNED0420211229200538    4P0P  0000084000000081820000111181200    YCYC    006400630015
BI00B1200    CE21-MN-0166   202202107126-8889-02             FUSE TERMINAL            CCN000006000000006000FN00000000020220201000006000NNED0420211229200538    4P0P  0000060000000044820000073341200    YCYC    006400630015
BI00B1200    CE21-MN-0166   202202107126-8890-02             FUSE TERMINAL            CCN000006000000006000FN00000000020220201000006000NNED0420211229200538    4P0P  0000060000000046500000075021200    YCYC    006400630015
BI00B1200    CE21-MN-0166   202202107126-8891-02             FUSE TERMINAL            CCN000006000000006000FN00000000020220201000006000NNED0420211229200538    4P0P  0000060000000048180000076701200    YCYC    006400630015
BI00B1200    CE21-MN-0166   202202107126-8892-02             FUSE TERMINAL            CCN000006000000006000FN00000000020220201000006000NNED0420211229200538    4P0P  0000060000000049500000078021200    YCYC    006400630015
BI00B1200    8670T52102     202203247172-5403-30             SEALED PACKING           CCN000004000000004000FN00000000020220401000004000NNED0420211229200538    1C0C  0000040000000065360000070171200    YCYC    004300270014
BI00B1200    8670T52103     202203317172-5403-30             SEALED PACKING           CCN000004000000004000FN00000000020220401000004000NNED0420211229200538    1C0C  0000040000000065360000070171200    YCYC    004300270014
BI00B1200    8670T52104     202204077172-5403-30             SEALED PACKING           CCN000008000000008000FN00000000020220401000008000NNED0420211229200538    1C0C  0000040000000065360000070171200    YCYC    004300270014
BI00B1200    2399T52105     202202037116-4100-02             TERMINAL                 CCN000090000000090000FN00000000020220301000090000NNM   20211229200538    4P0P  0000150000000069600000099021200    YCYC    006400630015
BI00B1200    2399T52106     202202107116-4100-02             TERMINAL                 CCN000090000000090000FN00000000020220301000090000NNM   20211229200538    4P0P  0000150000000069600000099021200    YCYC    006400630015
BI00B1200    2399T52107     202202177116-4100-02             TERMINAL                 CCN000090000000090000FN00000000020220301000090000NNM   20211229200538    4P0P  0000150000000069600000099021200    YCYC    006400630015
BI00B1200    2399T52105     202202037137-3047-30             UNIT PACKING             CCN000001000000001000FN00000000020220301000001000NNM   20211229200538    1C0C  0000010000000017050000021891200    YCYC    002700430014
BI00B1200    2399T52106     202202107137-3047-30             UNIT PACKING             CCN000001000000001000FN00000000020220301000001000NNM   20211229200538    1C0C  0000010000000017050000021891200    YCYC    002700430014
BI00B1200    2399T52107     202202177137-3047-30             UNIT PACKING             CCN000001000000001000FN00000000020220301000001000NNM   20211229200538    1C0C  0000010000000017050000021891200    YCYC    002700430014
BI00B1200    2399T52105     202202037158-3022-80             RUBBER STOPPER           CCN000015000000015000FN00000000020220301000015000NNM   20211229200538    1C0C  0000050000000046750000052401200    YCYC    002700430014
BI00B1200    2399T52106     202202107158-3022-80             RUBBER STOPPER           CCN000015000000015000FN00000000020220301000015000NNM   20211229200538    1C0C  0000050000000046750000052401200    YCYC    002700430014
BI00B1200    2399T52107     202202177158-3022-80             RUBBER STOPPER           CCN000015000000015000FN00000000020220301000015000NNM   20211229200538    1C0C  0000050000000046750000052401200    YCYC    002700430014
BI00B1200    2399T52105     202202037172-5402-30             SEAL RUBBER              CCN000008000000008000FN00000000020220301000008000NNM   20211229200538    1C0C  0000080000000045760000050601200    YCYC    004300270014
BI00B1200    2399T52105     202202037172-5403-30             SEALED PACKING           CCN000004000000004000FN00000000020220301000004000NNM   20211229200538    1C0C  0000040000000065360000070171200    YCYC    004300270014
BI00B1200    2399T52106     202202107172-5403-30             SEALED PACKING           CCN000004000000004000FN00000000020220301000004000NNM   20211229200538    1C0C  0000040000000065360000070171200    YCYC    004300270014
BI00B1200    2399T52105     202202037172-5540-80             SEALED WIRE SEAL         CCN000080000000080000FN00000000020220301000080000NNM   20211229200538    1C0C  0000200000000018600000023441200    YCYC    004300270014
BI00B1200    2399T52106     202202107172-5540-80             SEALED WIRE SEAL         CCN000080000000080000FN00000000020220301000080000NNM   20211229200538    1C0C  0000200000000018600000023441200    YCYC    004300270014
BI00B1200    2399T52107     202202177172-5540-80             SEALED WIRE SEAL         CCN000080000000080000FN00000000020220301000080000NNM   20211229200538    1C0C  0000200000000018600000023441200    YCYC    004300270014
BI00B1200    2399T52105     202202037173-3291-40             LIF LEVER                CCN000002400000002400FN00000000020220301000002400NNM   20211229200538    1F0F  0000024000000086780000106781200    YCYC    005500360039
BI00B1200    2399T52106     202202107173-3291-40             LIF LEVER                CCN000002400000002400FN00000000020220301000002400NNM   20211229200538    1F0F  0000024000000086780000106781200    YCYC    005500360039
BI00B1200    2399T52107     202202177173-3291-40             LIF LEVER                CCN000002400000002400FN00000000020220301000002400NNM   20211229200538    1F0F  0000024000000086780000106781200    YCYC    005500360039
BI00B1200    #2399T52105    202202037124-1026-30             PROTECTOR                CCN000003000000003000FN00000000020220301000003000NNM   20211229200538    2F0F  0000030000000082800000098601200    YCYC    005500360039
BI00B1200    #2399T52106    202202107124-1026-30             PROTECTOR                CCN000003000000003000FN00000000020220301000003000NNM   20211229200538    2F0F  0000030000000082800000098601200    YCYC    005500360039
BI00B1200    #2399T52107    202202177124-1026-30             PROTECTOR                CCN000003000000003000FN00000000020220301000003000NNM   20211229200538    2F0F  0000030000000082800000098601200    YCYC    005500360039
BI00B1200    #2399T52105    202202037154-5597-30             CASSETTE R/B             CCN000141600000141600FN00000000020220301000141600NNM   20211229200538    2F0F  0000008000000073600000095201200    YCYC    005500360039
BI00B1200    #2399T52106    202202107154-5597-30             CASSETTE R/B             CCN000141600000141600FN00000000020220301000141600NNM   20211229200538    2F0F  0000008000000073600000095201200    YCYC    005500360039
BI00B1200    #2399T52107    202202177154-5597-30             CASSETTE R/B             CCN000140800000140800FN00000000020220301000140800NNM   20211229200538    2F0F  0000008000000073600000095201200    YCYC    005500360039
BI00B1200    #2399T52105    202202037173-3225-10             LIF LEVER                CCN000049600000049600FN00000000020220301000049600NNM   20211229200538    2F0F  0000008000000059200000071201200    YCYC    005500360039
BI00B1200    #2399T52106    202202107173-3225-10             LIF LEVER                CCN000049600000049600FN00000000020220301000049600NNM   20211229200538    2F0F  0000008000000059200000071201200    YCYC    005500360039
BI00B1200    #2399T52107    202202177173-3225-10             LIF LEVER                CCN000049600000049600FN00000000020220301000049600NNM   20211229200538    2F0F  0000008000000059200000071201200    YCYC    005500360039
BI00B1200    #2399T52105    202202037174-1271-30             SEALED COVER             CCN000000640000000640FN00000000020220301000000640NNM   20211229200538    2F0F  0000003200000038370000050211200    YCYC    005500360039
BI00B1200    #2399T52106    202202107174-1271-30             SEALED COVER             CCN000000640000000640FN00000000020220301000000640NNM   20211229200538    2F0F  0000003200000038370000050211200    YCYC    005500360039
BI00B1200    #2399T52107    202202177174-1271-30             SEALED COVER             CCN000000640000000640FN00000000020220301000000640NNM   20211229200538    2F0F  0000003200000038370000050211200    YCYC    005500360039
BI00B1200    #2399T52105    202202037174-1314-30             SEALED COVER             CCN000004800000004800FN00000000020220301000004800NNM   20211229200538    2F0F  0000008000000076930000088931200    YCYC    005500360039
BI00B1200    #2399T52106    202202107174-1314-30             SEALED COVER             CCN000004800000004800FN00000000020220301000004800NNM   20211229200538    2F0F  0000008000000076930000088931200    YCYC    005500360039
BI00B1200    #2399T52107    202202177174-1314-30             SEALED COVER             CCN000004800000004800FN00000000020220301000004800NNM   20211229200538    2F0F  0000008000000076930000088931200    YCYC    005500360039
BI00B1200    2399T52108     202202247116-4100-02             TERMINAL                 CCN000075000000075000FN00000000020220301000075000NNM   20211229200538    4P0P  0000150000000069600000099021200    YCYC    006400630015
BI00B1200    2399T52108     202202247137-3047-30             UNIT PACKING             CCN000001000000001000FN00000000020220301000001000NNM   20211229200538    1C0C  0000010000000017050000021891200    YCYC    002700430014
BI00B1200    2399T52108     202202247158-3022-80             RUBBER STOPPER           CCN000010000000010000FN00000000020220301000010000NNM   20211229200538    1C0C  0000050000000046750000052401200    YCYC    002700430014
BI00B1200    2399T52108     202202247172-5540-80             SEALED WIRE SEAL         CCN000080000000080000FN00000000020220301000080000NNM   20211229200538    1C0C  0000200000000018600000023441200    YCYC    004300270014
BI00B1200    2399T52108     202202247173-3291-40             LIF LEVER                CCN000002400000002400FN00000000020220301000002400NNM   20211229200538    1F0F  0000024000000086780000106781200    YCYC    005500360039
BI00B1200    #2399T52108    202202247154-5597-30             CASSETTE R/B             CCN000140800000140800FN00000000020220301000140800NNM   20211229200538    2F0F  0000008000000073600000095201200    YCYC    005500360039
BI00B1200    #2399T52108    202202247173-3225-10             LIF LEVER                CCN000049600000049600FN00000000020220301000049600NNM   20211229200538    2F0F  0000008000000059200000071201200    YCYC    005500360039
BI00B1200    #2399T52108    202202247174-1271-30             SEALED COVER             CCN000000320000000320FN00000000020220301000000320NNM   20211229200538    2F0F  0000003200000038370000050211200    YCYC    005500360039
BI00B1200    #2399T52108    202202247174-1314-30             SEALED COVER             CCN000004800000004800FN00000000020220301000004800NNM   20211229200538    2F0F  0000008000000076930000088931200    YCYC    005500360039
BI00B1200    2399T52109     202202037174-1849-70             COVER                    CCN000050000000050000FN00000000020220301000050000NNM   20211229200538    1F0F  0000250000000062250000076191200    YCYC    005400370024
BI00B1200    2399T52110     202202107174-1849-70             COVER                    CCN000050000000050000FN00000000020220301000050000NNM   20211229200538    1F0F  0000250000000062250000076191200    YCYC    005400370024
BI00B1200    2399T52111     202202177174-1849-70             COVER                    CCN000025000000025000FN00000000020220301000025000NNM   20211229200538    1F0F  0000250000000062250000076191200    YCYC    005400370024
BI00B1200    2399T52109     202202037195-0546-02             TERMINAL ALUMINIUM       CCN000025500000025500FN00000000020220301000025500NNM   20211229200538    4P0P  0000255000000040920000074491200    YCYC    006400630015
BI00B1200    2399T52110     202202107195-0546-02             TERMINAL ALUMINIUM       CCN000025500000025500FN00000000020220301000025500NNM   20211229200538    4P0P  0000255000000040920000074491200    YCYC    006400630015
BI00B1200    2399T52111     202202177195-0546-02             TERMINAL ALUMINIUM       CCN000025500000025500FN00000000020220301000025500NNM   20211229200538    4P0P  0000255000000040920000074491200    YCYC    006400630015
BI00B1200    2399T52109     202202037195-0547-02             TERMINAL ALUMINIUM       CCN000025500000025500FN00000000020220301000025500NNM   20211229200538    4P0P  0000255000000041820000076021200    YCYC    006400630015
BI00B1200    2399T52109     202202037196-0549-02             TERMINAL ALUMINIUM       CCN000038000000038000FN00000000020220301000038000NNM   20211229200538    4P0P  0000380000000059280000097921200    YCYC    006400630017
BI00B1200    2399T52110     202202107196-0549-02             TERMINAL ALUMINIUM       CCN000038000000038000FN00000000020220301000038000NNM   20211229200538    4P0P  0000380000000059280000097921200    YCYC    006400630017
BI00B1200    2399T52111     202202177196-0549-02             TERMINAL ALUMINIUM       CCN000038000000038000FN00000000020220301000038000NNM   20211229200538    4P0P  0000380000000059280000097921200    YCYC    006400630017
BI00B1200    2399T52109     202202037196-0551-02             TERMINAL ALUMINIUM       CCN000028000000028000FN00000000020220301000028000NNM   20211229200538    4P0P  0000280000000046480000085121200    YCYC    006400630017
BI00B1200    2399T52109     202202037196-0648-02             TERMINAL                 CCN000135000000135000FN00000000020220301000135000NNM   20211229200538    4P0P  0000150000000035550000068971200    YCYC    006400630015
BI00B1200    2399T52110     202202107196-0648-02             TERMINAL                 CCN000120000000120000FN00000000020220301000120000NNM   20211229200538    4P0P  0000150000000035550000068971200    YCYC    006400630015
BI00B1200    2399T52111     202202177196-0648-02             TERMINAL                 CCN000120000000120000FN00000000020220301000120000NNM   20211229200538    4P0P  0000150000000035550000068971200    YCYC    006400630015
BI00B1200    2399T52109     202202037196-0805-02             TERMINAL FEMALE          CCN000067500000067500FN00000000020220301000067500NNM   20211229200538    4P0P  0000225000000055800000084321200    YCYC    006400630015
BI00B1200    2399T52110     202202107196-0805-02             TERMINAL FEMALE          CCN000045000000045000FN00000000020220301000045000NNM   20211229200538    4P0P  0000225000000055800000084321200    YCYC    006400630015
BI00B1200    2399T52111     202202177196-0805-02             TERMINAL FEMALE          CCN000045000000045000FN00000000020220301000045000NNM   20211229200538    4P0P  0000225000000055800000084321200    YCYC    006400630015
BI00B1200    2399T52109     202202037287-9323                UNSEALED HOUSING SUB     CCN000007200000007200FN00000000020220301000007200NNM   20211229200538    1N0N  0000024000000053760000069001200    YCYC    005600390023
BI00B1200    2399T52110     202202107287-9323                UNSEALED HOUSING SUB     CCN000007200000007200FN00000000020220301000007200NNM   20211229200538    1N0N  0000024000000053760000069001200    YCYC    005600390023
BI00B1200    2399T52111     202202177287-9323                UNSEALED HOUSING SUB     CCN000007200000007200FN00000000020220301000007200NNM   20211229200538    1N0N  0000024000000053760000069001200    YCYC    005600390023
BI00B1200    #2399T52109    202202037174-1515                FRONT DOOR COVER         CCN000004200000004200FN00000000020220301000004200NNM   20211229200538    2F0F  0000006000000049020000061021200    YCYC    005500360039
BI00B1200    #2399T52110    202202107174-1515                FRONT DOOR COVER         CCN000003600000003600FN00000000020220301000003600NNM   20211229200538    2F0F  0000006000000049020000061021200    YCYC    005500360039
BI00B1200    #2399T52111    202202177174-1515                FRONT DOOR COVER         CCN000003600000003600FN00000000020220301000003600NNM   20211229200538    2F0F  0000006000000049020000061021200    YCYC    005500360039
BI00B1200    #2399T52109    202202037174-1760-50             CAP                      CCN000033000000033000FN00000000020220301000033000NNM   20211229200538    2F0F  0000030000000081360000092261200    YCYC    005400370024
BI00B1200    #2399T52110    202202107174-1760-50             CAP                      CCN000033000000033000FN00000000020220301000033000NNM   20211229200538    2F0F  0000030000000081360000092261200    YCYC    005400370024
BI00B1200    #2399T52111    202202177174-1760-50             CAP                      CCN000030000000030000FN00000000020220301000030000NNM   20211229200538    2F0F  0000030000000081360000092261200    YCYC    005400370024
BI00B1200    #2399T52109    202202037189-3033                HOUSING FEMALE           CCN000036800000036800FN00000000020220301000036800NNM   20211229200538    2F0F  0000016000000121120000143121200    YCYC    005500360039
BI00B1200    #2399T52110    202202107189-3033                HOUSING FEMALE           CCN000035200000035200FN00000000020220301000035200NNM   20211229200538    2F0F  0000016000000121120000143121200    YCYC    005500360039
BI00B1200    #2399T52111    202202177189-3033                HOUSING FEMALE           CCN000035200000035200FN00000000020220301000035200NNM   20211229200538    2F0F  0000016000000121120000143121200    YCYC    005500360039
BI00B1200    #2399T52109    202202037189-3034-30             HOUSING FEMALE           CCN000006400000006400FN00000000020220301000006400NNM   20211229200538    2F0F  0000016000000097280000119281200    YCYC    005500360039
BI00B1200    #2399T52110    202202107189-3034-30             HOUSING FEMALE           CCN000004800000004800FN00000000020220301000004800NNM   20211229200538    2F0F  0000016000000097280000119281200    YCYC    005500360039
BI00B1200    #2399T52111    202202177189-3034-30             HOUSING FEMALE           CCN000004800000004800FN00000000020220301000004800NNM   20211229200538    2F0F  0000016000000097280000119281200    YCYC    005500360039
BI00B1200    #2399T52109    202202037189-3036                HOUSING FEMALE           CCN000025600000025600FN00000000020220301000025600NNM   20211229200538    2F0F  0000016000000092160000114161200    YCYC    005500360039
BI00B1200    #2399T52110    202202107189-3036                HOUSING FEMALE           CCN000024000000024000FN00000000020220301000024000NNM   20211229200538    2F0F  0000016000000092160000114161200    YCYC    005500360039
BI00B1200    #2399T52111    202202177189-3036                HOUSING FEMALE           CCN000024000000024000FN00000000020220301000024000NNM   20211229200538    2F0F  0000016000000092160000114161200    YCYC    005500360039
BI00B1200    #2399T52109    202202037189-3036-30             HOUSING FEMALE           CCN000001600000001600FN00000000020220301000001600NNM   20211229200538    2F0F  0000016000000092000000114001200    YCYC    005500360039
BI00B1200    #2399T52109    202202037198-1371-60             HOUSING FEMALE           CCN000002000000002000FN00000000020220301000002000NNM   20211229200538    2F0F  0000020000000059780000072121200    YCYC    005400370024
BI00B1200    #2399T52109    202202037198-1372-60             HOUSING FEMALE           CCN000002000000002000FN00000000020220301000002000NNM   20211229200538    2F0F  0000020000000085720000099521200    YCYC    005400370024
BI00B1200    #2399T52110    202202107198-1372-60             HOUSING FEMALE           CCN000002000000002000FN00000000020220301000002000NNM   20211229200538    2F0F  0000020000000085720000099521200    YCYC    005400370024
BI00B1200    2399T52112     202202247174-1849-70             COVER                    CCN000025000000025000FN00000000020220301000025000NNM   20211229200538    1F0F  0000250000000062250000076191200    YCYC    005400370024
BI00B1200    2399T52112     202202247195-0546-02             TERMINAL ALUMINIUM       CCN000025500000025500FN00000000020220301000025500NNM   20211229200538    4P0P  0000255000000040920000074491200    YCYC    006400630015
BI00B1200    2399T52112     202202247196-0648-02             TERMINAL                 CCN000120000000120000FN00000000020220301000120000NNM   20211229200538    4P0P  0000150000000035550000068971200    YCYC    006400630015
BI00B1200    2399T52112     202202247196-0805-02             TERMINAL FEMALE          CCN000045000000045000FN00000000020220301000045000NNM   20211229200538    4P0P  0000225000000055800000084321200    YCYC    006400630015
BI00B1200    #2399T52112    202202247174-1515                FRONT DOOR COVER         CCN000003600000003600FN00000000020220301000003600NNM   20211229200538    2F0F  0000006000000049020000061021200    YCYC    005500360039
BI00B1200    #2399T52112    202202247174-1760-50             CAP                      CCN000030000000030000FN00000000020220301000030000NNM   20211229200538    2F0F  0000030000000081360000092261200    YCYC    005400370024
BI00B1200    #2399T52112    202202247189-3033                HOUSING FEMALE           CCN000035200000035200FN00000000020220301000035200NNM   20211229200538    2F0F  0000016000000121120000143121200    YCYC    005500360039
BI00B1200    #2399T52112    202202247189-3034-30             HOUSING FEMALE           CCN000004800000004800FN00000000020220301000004800NNM   20211229200538    2F0F  0000016000000097280000119281200    YCYC    005500360039
BI00B1200    #2399T52112    202202247189-3036                HOUSING FEMALE           CCN000024000000024000FN00000000020220301000024000NNM   20211229200538    2F0F  0000016000000092160000114161200    YCYC    005500360039
BI00B1200    2399T52113     202202037287-9323-30             UNSEALED HOUSING SUB     CCN000004800000004800FN00000000020220301000004800NNM   20211229200538    1N0N  0000024000000053760000069001200    YCYC    005600390023
BI00B1200    2399T52114     202202107287-9323-30             UNSEALED HOUSING SUB     CCN000002400000002400FN00000000020220301000002400NNM   20211229200538    1N0N  0000024000000053760000069001200    YCYC    005600390023
BI00B1200    2399T52115     202202177287-9323-30             UNSEALED HOUSING SUB     CCN000002400000002400FN00000000020220301000002400NNM   20211229200538    1N0N  0000024000000053760000069001200    YCYC    005600390023
BI00B1200    2399T52116     202202247287-9323-30             UNSEALED HOUSING SUB     CCN000002400000002400FN00000000020220301000002400NNM   20211229200538    1N0N  0000024000000053760000069001200    YCYC    005600390023
BI00B1200    2399T52113     202202037288-3339-30             HOUSING MALE             CCN000006000000006000FN00000000020220301000006000NNM   20211229200538    4N0N  0000015000000086700000101201200    YCYC    005400370024
BI00B1200    2399T52114     202202107288-3339-30             HOUSING MALE             CCN000006000000006000FN00000000020220301000006000NNM   20211229200538    4N0N  0000015000000086700000101201200    YCYC    005400370024
BI00B1200    2399T52115     202202177288-3339-30             HOUSING MALE             CCN000006000000006000FN00000000020220301000006000NNM   20211229200538    4N0N  0000015000000086700000101201200    YCYC    005400370024
BI00B1200    2399T52116     202202247288-3339-30             HOUSING MALE             CCN000004500000004500FN00000000020220301000004500NNM   20211229200538    4N0N  0000015000000086700000101201200    YCYC    005400370024
BI00B1200    2399T52113     202202037288-6547                CONNECTOR MALE ASS'Y     CCN000173250000173250FN00000000020220301000173250NNM   20211229200538    4N0N  0000007500000120530000134031200    YCYC    005400370024
BI00B1200    2399T52114     202202107288-6547                CONNECTOR MALE ASS'Y     CCN000173250000173250FN00000000020220301000173250NNM   20211229200538    4N0N  0000007500000120530000134031200    YCYC    005400370024
BI00B1200    2399T52115     202202177288-6547                CONNECTOR MALE ASS'Y     CCN000173250000173250FN00000000020220301000173250NNM   20211229200538    4N0N  0000007500000120530000134031200    YCYC    005400370024
BI00B1200    2399T52116     202202247288-6547                CONNECTOR MALE ASS'Y     CCN000173250000173250FN00000000020220301000173250NNM   20211229200538    4N0N  0000007500000120530000134031200    YCYC    005400370024
BI00B1200    2399T52113     202202037288-6598-70             HOUSING MALE ASS'Y       CCN000025920000025920FN00000000020220301000025920NNM   20211229200538    4N0N  0000014400000107420000142921200    YCYC    005500360039
BI00B1200    2399T52114     202202107288-6598-70             HOUSING MALE ASS'Y       CCN000024480000024480FN00000000020220301000024480NNM   20211229200538    4N0N  0000014400000107420000142921200    YCYC    005500360039
BI00B1200    2399T52115     202202177288-6598-70             HOUSING MALE ASS'Y       CCN000024480000024480FN00000000020220301000024480NNM   20211229200538    4N0N  0000014400000107420000142921200    YCYC    005500360039
BI00B1200    2399T52116     202202247288-6598-70             HOUSING MALE ASS'Y       CCN000024480000024480FN00000000020220301000024480NNM   20211229200538    4N0N  0000014400000107420000142921200    YCYC    005500360039
BI00B1200    2399T52113     202202037289-0269                HOUSING SUB ASSEMBLY     CCN000003200000003200FN00000000020220301000003200NNM   20211229200538    1N0N  0000016000000100210000123451200    YCYC    005500360039
BI00B1200    2399T52114     202202107289-0269                HOUSING SUB ASSEMBLY     CCN000003200000003200FN00000000020220301000003200NNM   20211229200538    1N0N  0000016000000100210000123451200    YCYC    005500360039
BI00B1200    2399T52115     202202177289-0269                HOUSING SUB ASSEMBLY     CCN000003200000003200FN00000000020220301000003200NNM   20211229200538    1N0N  0000016000000100210000123451200    YCYC    005500360039
BI00B1200    2399T52116     202202247289-0269                HOUSING SUB ASSEMBLY     CCN000001600000001600FN00000000020220301000001600NNM   20211229200538    1N0N  0000016000000100210000123451200    YCYC    005500360039
BI00B1200    2399T52113     202202037289-3342                HOUSING FEMALE ASS'Y     CCN000004800000004800FN00000000020220301000004800NNM   20211229200538    1N0N  0000024000000068640000090141200    YCYC    005500360039
BI00B1200    2399T52114     202202107289-3342                HOUSING FEMALE ASS'Y     CCN000002400000002400FN00000000020220301000002400NNM   20211229200538    1N0N  0000024000000068640000090141200    YCYC    005500360039
BI00B1200    2399T52115     202202177289-3342                HOUSING FEMALE ASS'Y     CCN000002400000002400FN00000000020220301000002400NNM   20211229200538    1N0N  0000024000000068640000090141200    YCYC    005500360039
BI00B1200    2399T52116     202202247289-3342                HOUSING FEMALE ASS'Y     CCN000002400000002400FN00000000020220301000002400NNM   20211229200538    1N0N  0000024000000068640000090141200    YCYC    005500360039
BI00B1200    2399T52113     202202037289-3342-30             HOUSING FEMALE ASS'Y     CCN000019200000019200FN00000000020220301000019200NNM   20211229200538    1N0N  0000024000000068640000090141200    YCYC    005500360039
BI00B1200    2399T52114     202202107289-3342-30             HOUSING FEMALE ASS'Y     CCN000019200000019200FN00000000020220301000019200NNM   20211229200538    1N0N  0000024000000068640000090141200    YCYC    005500360039
BI00B1200    2399T52115     202202177289-3342-30             HOUSING FEMALE ASS'Y     CCN000016800000016800FN00000000020220301000016800NNM   20211229200538    1N0N  0000024000000068640000090141200    YCYC    005500360039
BI00B1200    2399T52116     202202247289-3342-30             HOUSING FEMALE ASS'Y     CCN000016800000016800FN00000000020220301000016800NNM   20211229200538    1N0N  0000024000000068640000090141200    YCYC    005500360039
BI00B1200    2399T52113     202202037289-4212-80             SEALED HOUSING ASS'Y     CCN000016000000016000FN00000000020220301000016000NNM   20211229200538    4N0N  0000020000000084860000097861200    YCYC    005400370024
BI00B1200    2399T52114     202202107289-4212-80             SEALED HOUSING ASS'Y     CCN000016000000016000FN00000000020220301000016000NNM   20211229200538    4N0N  0000020000000084860000097861200    YCYC    005400370024
BI00B1200    2399T52115     202202177289-4212-80             SEALED HOUSING ASS'Y     CCN000014000000014000FN00000000020220301000014000NNM   20211229200538    4N0N  0000020000000084860000097861200    YCYC    005400370024
BI00B1200    2399T52116     202202247289-4212-80             SEALED HOUSING ASS'Y     CCN000014000000014000FN00000000020220301000014000NNM   20211229200538    4N0N  0000020000000084860000097861200    YCYC    005400370024
BI00B1200    2399T52113     202202037289-5979-30             HOUSING FEMALE ASS'Y     CCN000064764000064764FN00000000020220301000064764NNM   20211229200538    1N0N  0000002520000085470000106471200    YCYC    005400370024
BI00B1200    2399T52114     202202107289-5979-30             HOUSING FEMALE ASS'Y     CCN000064512000064512FN00000000020220301000064512NNM   20211229200538    1N0N  0000002520000085470000106471200    YCYC    005400370024
BI00B1200    2399T52115     202202177289-5979-30             HOUSING FEMALE ASS'Y     CCN000064512000064512FN00000000020220301000064512NNM   20211229200538    1N0N  0000002520000085470000106471200    YCYC    005400370024
BI00B1200    2399T52116     202202247289-5979-30             HOUSING FEMALE ASS'Y     CCN000064512000064512FN00000000020220301000064512NNM   20211229200538    1N0N  0000002520000085470000106471200    YCYC    005400370024
BI00B1200    2399T52113     202202037289-6159-30             HOUSING FEMALE ASS'Y     CCN000000240000000240FN00000000020220301000000240NNM   20211229200538    4N0N  0000002400000109500000137501200    YCYC    005500360039
BI00B1200    2399T52114     202202107289-6159-30             HOUSING FEMALE ASS'Y     CCN000000240000000240FN00000000020220301000000240NNM   20211229200538    4N0N  0000002400000109500000137501200    YCYC    005500360039
BI00B1200    2399T52115     202202177289-6159-30             HOUSING FEMALE ASS'Y     CCN000000240000000240FN00000000020220301000000240NNM   20211229200538    4N0N  0000002400000109500000137501200    YCYC    005500360039
BI00B1200    2399T52113     202202037289-6518-30             HOUSING FEMALE ASS'Y     CCN000016800000016800FN00000000020220301000016800NNM   20211229200538    1N0N  0000012000000082920000104921200    YCYC    005500360039
BI00B1200    2399T52114     202202107289-6518-30             HOUSING FEMALE ASS'Y     CCN000016800000016800FN00000000020220301000016800NNM   20211229200538    1N0N  0000012000000082920000104921200    YCYC    005500360039
BI00B1200    2399T52115     202202177289-6518-30             HOUSING FEMALE ASS'Y     CCN000016800000016800FN00000000020220301000016800NNM   20211229200538    1N0N  0000012000000082920000104921200    YCYC    005500360039
BI00B1200    2399T52116     202202247289-6518-30             HOUSING FEMALE ASS'Y     CCN000016800000016800FN00000000020220301000016800NNM   20211229200538    1N0N  0000012000000082920000104921200    YCYC    005500360039
BI00B1200    2399T52113     202202037289-6523-30             HOUSING FEMALE ASS'Y     CCN000003840000003840FN00000000020220301000003840NNM   20211229200538    4N0N  0000002400000129050000162051200    YCYC    005500360039
BI00B1200    2399T52114     202202107289-6523-30             HOUSING FEMALE ASS'Y     CCN000003600000003600FN00000000020220301000003600NNM   20211229200538    4N0N  0000002400000129050000162051200    YCYC    005500360039
BI00B1200    2399T52115     202202177289-6523-30             HOUSING FEMALE ASS'Y     CCN000003600000003600FN00000000020220301000003600NNM   20211229200538    4N0N  0000002400000129050000162051200    YCYC    005500360039
BI00B1200    2399T52116     202202247289-6523-30             HOUSING FEMALE ASS'Y     CCN000003600000003600FN00000000020220301000003600NNM   20211229200538    4N0N  0000002400000129050000162051200    YCYC    005500360039
BI00B1200    2399T52113     202202037289-6524-30             HOUSING FEMALE ASS'Y     CCN000003360000003360FN00000000020220301000003360NNM   20211229200538    4N0N  0000002400000135120000166621200    YCYC    005500360039
BI00B1200    2399T52114     202202107289-6524-30             HOUSING FEMALE ASS'Y     CCN000003360000003360FN00000000020220301000003360NNM   20211229200538    4N0N  0000002400000135120000166621200    YCYC    005500360039
BI00B1200    2399T52115     202202177289-6524-30             HOUSING FEMALE ASS'Y     CCN000003360000003360FN00000000020220301000003360NNM   20211229200538    4N0N  0000002400000135120000166621200    YCYC    005500360039
BI00B1200    2399T52116     202202247289-6524-30             HOUSING FEMALE ASS'Y     CCN000003360000003360FN00000000020220301000003360NNM   20211229200538    4N0N  0000002400000135120000166621200    YCYC    005500360039
BI00B1200    2399T52113     202202037289-6547                HOUSING FEMALE ASS'Y     CCN000103200000103200FN00000000020220301000103200NNM   20211229200538    1N0N  0000024000000115200000136201200    YCYC    005500360039
BI00B1200    2399T52114     202202107289-6547                HOUSING FEMALE ASS'Y     CCN000103200000103200FN00000000020220301000103200NNM   20211229200538    1N0N  0000024000000115200000136201200    YCYC    005500360039
BI00B1200    2399T52115     202202177289-6547                HOUSING FEMALE ASS'Y     CCN000103200000103200FN00000000020220301000103200NNM   20211229200538    1N0N  0000024000000115200000136201200    YCYC    005500360039
BI00B1200    2399T52116     202202247289-6547                HOUSING FEMALE ASS'Y     CCN000103200000103200FN00000000020220301000103200NNM   20211229200538    1N0N  0000024000000115200000136201200    YCYC    005500360039
BI00B1200    2399T52113     202202037289-6597-70             HOUSING FEMALE ASS'Y     CCN000028080000028080FN00000000020220301000028080NNM   20211229200538    4N0N  0000021600000128950000153951200    YCYC    005500360039
BI00B1200    2399T52114     202202107289-6597-70             HOUSING FEMALE ASS'Y     CCN000028080000028080FN00000000020220301000028080NNM   20211229200538    4N0N  0000021600000128950000153951200    YCYC    005500360039
BI00B1200    2399T52115     202202177289-6597-70             HOUSING FEMALE ASS'Y     CCN000028080000028080FN00000000020220301000028080NNM   20211229200538    4N0N  0000021600000128950000153951200    YCYC    005500360039
BI00B1200    2399T52116     202202247289-6597-70             HOUSING FEMALE ASS'Y     CCN000028080000028080FN00000000020220301000028080NNM   20211229200538    4N0N  0000021600000128950000153951200    YCYC    005500360039
BI00B1200    2399T52113     202202037289-6868-30             SEALED ASSY FEMALE       CCN000065520000065520FN00000000020220301000065520NNM   20211229200538    4N0N  0000025200000083920000111921200    YCYC    005500360039
BI00B1200    2399T52114     202202107289-6868-30             SEALED ASSY FEMALE       CCN000065520000065520FN00000000020220301000065520NNM   20211229200538    4N0N  0000025200000083920000111921200    YCYC    005500360039
BI00B1200    2399T52115     202202177289-6868-30             SEALED ASSY FEMALE       CCN000065520000065520FN00000000020220301000065520NNM   20211229200538    4N0N  0000025200000083920000111921200    YCYC    005500360039
BI00B1200    2399T52116     202202247289-6868-30             SEALED ASSY FEMALE       CCN000065520000065520FN00000000020220301000065520NNM   20211229200538    4N0N  0000025200000083920000111921200    YCYC    005500360039
BI00B1200    2399T52113     202202037289-7615-30             HOUSING FEMALE ASS'Y     CCN000000320000000320FN00000000020220301000000320NNM   20211229200538    4N0N  0000003200000073800000094801200    YCYC    005400370024
BI00B1200    2399T52113     202202037289-7970                HYBRID FEMALE ASS'Y      CCN000026240000026240FN00000000020220301000026240NNM   20211229200538    1N0N  0000003200000073820000096471200    YCYC    005400370024
BI00B1200    2399T52114     202202107289-7970                HYBRID FEMALE ASS'Y      CCN000026240000026240FN00000000020220301000026240NNM   20211229200538    1N0N  0000003200000073820000096471200    YCYC    005400370024
BI00B1200    2399T52115     202202177289-7970                HYBRID FEMALE ASS'Y      CCN000026240000026240FN00000000020220301000026240NNM   20211229200538    1N0N  0000003200000073820000096471200    YCYC    005400370024
BI00B1200    2399T52116     202202247289-7970                HYBRID FEMALE ASS'Y      CCN000025920000025920FN00000000020220301000025920NNM   20211229200538    1N0N  0000003200000073820000096471200    YCYC    005400370024
BI00B1200    2399T52113     202202037289-9553-30             SEALED ASSY FEMALE       CCN000008820000008820FN00000000020220301000008820NNM   20211229200538    4N0N  0000029400000110900000152151200    YCYC    005500360039
BI00B1200    2399T52114     202202107289-9553-30             SEALED ASSY FEMALE       CCN000008820000008820FN00000000020220301000008820NNM   20211229200538    4N0N  0000029400000110900000152151200    YCYC    005500360039
BI00B1200    2399T52115     202202177289-9553-30             SEALED ASSY FEMALE       CCN000005880000005880FN00000000020220301000005880NNM   20211229200538    4N0N  0000029400000110900000152151200    YCYC    005500360039
BI00B1200    2399T52116     202202247289-9553-30             SEALED ASSY FEMALE       CCN000005880000005880FN00000000020220301000005880NNM   20211229200538    4N0N  0000029400000110900000152151200    YCYC    005500360039
BI00B1200    2399T52113     202202037289-9553-50             SEALED ASSY FEMALE       CCN000052920000052920FN00000000020220301000052920NNM   20211229200538    4N0N  0000029400000110810000152061200    YCYC    005500360039
BI00B1200    2399T52114     202202107289-9553-50             SEALED ASSY FEMALE       CCN000052920000052920FN00000000020220301000052920NNM   20211229200538    4N0N  0000029400000110810000152061200    YCYC    005500360039
BI00B1200    2399T52115     202202177289-9553-50             SEALED ASSY FEMALE       CCN000049980000049980FN00000000020220301000049980NNM   20211229200538    4N0N  0000029400000110810000152061200    YCYC    005500360039
BI00B1200    2399T52116     202202247289-9553-50             SEALED ASSY FEMALE       CCN000049980000049980FN00000000020220301000049980NNM   20211229200538    4N0N  0000029400000110810000152061200    YCYC    005500360039
BI00B1200    2399T52113     202202037289-9612-30             HOUSING FEMALE ASS'Y     CCN000002640000002640FN00000000020220301000002640NNM   20211229200538    4N0N  0000002400000134880000166881200    YCYC    005500360039
BI00B1200    2399T52114     202202107289-9612-30             HOUSING FEMALE ASS'Y     CCN000002640000002640FN00000000020220301000002640NNM   20211229200538    4N0N  0000002400000134880000166881200    YCYC    005500360039
BI00B1200    2399T52115     202202177289-9612-30             HOUSING FEMALE ASS'Y     CCN000002640000002640FN00000000020220301000002640NNM   20211229200538    4N0N  0000002400000134880000166881200    YCYC    005500360039
BI00B1200    2399T52116     202202247289-9612-30             HOUSING FEMALE ASS'Y     CCN000002640000002640FN00000000020220301000002640NNM   20211229200538    4N0N  0000002400000134880000166881200    YCYC    005500360039
BI00B1200    2399T52113     202202037289-9613-30             HOUSING FEMALE ASS'Y     CCN000002160000002160FN00000000020220301000002160NNM   20211229200538    4N0N  0000002400000126990000154371200    YCYC    005500360039
BI00B1200    2399T52114     202202107289-9613-30             HOUSING FEMALE ASS'Y     CCN000001920000001920FN00000000020220301000001920NNM   20211229200538    4N0N  0000002400000126990000154371200    YCYC    005500360039
BI00B1200    2399T52115     202202177289-9613-30             HOUSING FEMALE ASS'Y     CCN000001920000001920FN00000000020220301000001920NNM   20211229200538    4N0N  0000002400000126990000154371200    YCYC    005500360039
BI00B1200    2399T52116     202202247289-9613-30             HOUSING FEMALE ASS'Y     CCN000001920000001920FN00000000020220301000001920NNM   20211229200538    4N0N  0000002400000126990000154371200    YCYC    005500360039
BI00B1200    2399T52113     202202037298-1145-4W             SQUIB SUB ASS'Y          CCN000110000000110000FN00000000020220301000110000NNM   20211229200538    4N0N  0000100000000078790000094491200    YCYC    005400370024
BI00B1200    2399T52114     202202107298-1145-4W             SQUIB SUB ASS'Y          CCN000110000000110000FN00000000020220301000110000NNM   20211229200538    4N0N  0000100000000078790000094491200    YCYC    005400370024
BI00B1200    2399T52115     202202177298-1145-4W             SQUIB SUB ASS'Y          CCN000100000000100000FN00000000020220301000100000NNM   20211229200538    4N0N  0000100000000078790000094491200    YCYC    005400370024
BI00B1200    2399T52116     202202247298-1145-4W             SQUIB SUB ASS'Y          CCN000100000000100000FN00000000020220301000100000NNM   20211229200538    4N0N  0000100000000078790000094491200    YCYC    005400370024
BI00B1200    2399T52113     202202037298-2853-30             HOUSING FEMALE ASS'Y     CCN000001440000001440FN00000000020220301000001440NNM   20211229200538    4N0N  0000002400000109490000136091200    YCYC    005500360039
BI00B1200    2399T52114     202202107298-2853-30             HOUSING FEMALE ASS'Y     CCN000001200000001200FN00000000020220301000001200NNM   20211229200538    4N0N  0000002400000109490000136091200    YCYC    005500360039
BI00B1200    2399T52115     202202177298-2853-30             HOUSING FEMALE ASS'Y     CCN000001200000001200FN00000000020220301000001200NNM   20211229200538    4N0N  0000002400000109490000136091200    YCYC    005500360039
BI00B1200    2399T52116     202202247298-2853-30             HOUSING FEMALE ASS'Y     CCN000001200000001200FN00000000020220301000001200NNM   20211229200538    4N0N  0000002400000109490000136091200    YCYC    005500360039
BI00B1200    2399T52113     202202037298-3990-30             HOUSING FEMALE ASS'Y     CCN000007440000007440FN00000000020220301000007440NNM   20211229200538    4NON  0000002400000120890000157391200    YCYC    005500360039
BI00B1200    2399T52114     202202107298-3990-30             HOUSING FEMALE ASS'Y     CCN000007440000007440FN00000000020220301000007440NNM   20211229200538    4NON  0000002400000120890000157391200    YCYC    005500360039
BI00B1200    2399T52115     202202177298-3990-30             HOUSING FEMALE ASS'Y     CCN000007440000007440FN00000000020220301000007440NNM   20211229200538    4NON  0000002400000120890000157391200    YCYC    005500360039
BI00B1200    2399T52116     202202247298-3990-30             HOUSING FEMALE ASS'Y     CCN000007440000007440FN00000000020220301000007440NNM   20211229200538    4NON  0000002400000120890000157391200    YCYC    005500360039
BI00B1200    2399T52113     202202037298-4094-10             HOUSING FEMALE ASS'Y     CCN000027040000027040FN00000000020220301000027040NNM   20211229200538    4N0N  0000033800000109740000135871200    YCYC    005400370024
BI00B1200    2399T52114     202202107298-4094-10             HOUSING FEMALE ASS'Y     CCN000027040000027040FN00000000020220301000027040NNM   20211229200538    4N0N  0000033800000109740000135871200    YCYC    005400370024
BI00B1200    2399T52115     202202177298-4094-10             HOUSING FEMALE ASS'Y     CCN000027040000027040FN00000000020220301000027040NNM   20211229200538    4N0N  0000033800000109740000135871200    YCYC    005400370024
BI00B1200    2399T52116     202202247298-4094-10             HOUSING FEMALE ASS'Y     CCN000023660000023660FN00000000020220301000023660NNM   20211229200538    4N0N  0000033800000109740000135871200    YCYC    005400370024
BI00B1200    2399T52116     202202247287-9323                UNSEALED HOUSING SUB     CCN000004800000004800FN00000000020220301000004800NNM   20211229200538    1N0N  0000024000000053760000069001200    YCYC    005600390023
BI00B1200    #2399T52113    202202037289-2912-40             HOUSING FEMALE ASS'Y     CCN000024000000024000FN00000000020220301000024000NNM   20211229200538    2N0N  0000020000000080400000093101200    YCYC    005400370024
BI00B1200    #2399T52114    202202107289-2912-40             HOUSING FEMALE ASS'Y     CCN000024000000024000FN00000000020220301000024000NNM   20211229200538    2N0N  0000020000000080400000093101200    YCYC    005400370024
BI00B1200    #2399T52115    202202177289-2912-40             HOUSING FEMALE ASS'Y     CCN000024000000024000FN00000000020220301000024000NNM   20211229200538    2N0N  0000020000000080400000093101200    YCYC    005400370024
BI00B1200    #2399T52116    202202247289-2912-40             HOUSING FEMALE ASS'Y     CCN000024000000024000FN00000000020220301000024000NNM   20211229200538    2N0N  0000020000000080400000093101200    YCYC    005400370024
BI00B1200    #2399T52113    202202037289-2913-30             HOUSING FEMALE ASS'Y     CCN000004500000004500FN00000000020220301000004500NNM   20211229200538    2N0N  0000015000000090750000103451200    YCYC    005400360024
BI00B1200    #2399T52114    202202107289-2913-30             HOUSING FEMALE ASS'Y     CCN000004500000004500FN00000000020220301000004500NNM   20211229200538    2N0N  0000015000000090750000103451200    YCYC    005400360024
BI00B1200    #2399T52115    202202177289-2913-30             HOUSING FEMALE ASS'Y     CCN000004500000004500FN00000000020220301000004500NNM   20211229200538    2N0N  0000015000000090750000103451200    YCYC    005400360024
BI00B1200    #2399T52116    202202247289-2913-30             HOUSING FEMALE ASS'Y     CCN000004500000004500FN00000000020220301000004500NNM   20211229200538    2N0N  0000015000000090750000103451200    YCYC    005400360024
BI00B1200    #2399T52113    202202037289-4200-30             HOUSING FEMALE ASS'Y     CCN000092000000092000FN00000000020220301000092000NNM   20211229200538    2N0N  0000020000000092600000102101200    YCYC    005400370024
BI00B1200    #2399T52114    202202107289-4200-30             HOUSING FEMALE ASS'Y     CCN000090000000090000FN00000000020220301000090000NNM   20211229200538    2N0N  0000020000000092600000102101200    YCYC    005400370024
BI00B1200    #2399T52115    202202177289-4200-30             HOUSING FEMALE ASS'Y     CCN000090000000090000FN00000000020220301000090000NNM   20211229200538    2N0N  0000020000000092600000102101200    YCYC    005400370024
BI00B1200    #2399T52116    202202247289-4200-30             HOUSING FEMALE ASS'Y     CCN000090000000090000FN00000000020220301000090000NNM   20211229200538    2N0N  0000020000000092600000102101200    YCYC    005400370024
BI00B1200    7242T52103     202202177289-4696-30             HOUSING FEMALE ASS'Y     CCN000002000000002000FN00000000020220301000002000NNM   20211229200538    4N0N  0000020000000091340000105541200    YCYC    005400370024
BI00B1200    7242T52104     202202247158-3022-80             RUBBER STOPPER           CCN000005000000005000FN00000000020220301000005000NNM   20211229200538    1C0C  0000050000000046750000052401200    YCYC    002700430014
BI00B1200    #7242T52101    202202037154-3421                SPACER                   CCN000010000000010000FN00000000020220301000010000NNM   20211229200538    2F0F  0000100000000056000000078101200    YCYC    005500360039
BI00B1200    #7242T52102    202202107154-5597-30             CASSETTE R/B             CCN000000800000000800FN00000000020220301000000800NNM   20211229200538    2F0F  0000008000000073600000095201200    YCYC    005500360039
BI00B1200    #7242T52103    202202177187-3360                JOINT CONNECTOR          CCN000003600000003600FN00000000020220301000003600NNM   20211229200538    2F0F  0000012000000075960000102681200    YCYC    005600390040
BI00B1200    #7242T52104    202202247187-3356                JOINT CONNECTOR          CCN000006000000006000FN00000000020220301000006000NNM   20211229200538    2F0F  0000012000000075960000102441200    YCYC    005600390040
BI00B1200    #7242T52104    202202247187-3358-30             JOINT CONNECTOR          CCN000004800000004800FN00000000020220301000004800NNM   20211229200538    2F0F  0000012000000067320000094041200    YCYC    005600390040
BI00B1200    7360T52101     202202037195-0783-08             TERMINAL                 CCN000060000000060000FN00000000020220301000060000NNM   20211229200538    4P0P  0000300000000050700000080121200    YCYC    006400630015
BI00B1200    7360T52103     202202107195-0783-08             TERMINAL                 CCN000030000000030000FN00000000020220301000030000NNM   20211229200538    4P0P  0000300000000050700000080121200    YCYC    006400630015
BI00B1200    7360T52104     202202177195-0783-08             TERMINAL                 CCN000030000000030000FN00000000020220301000030000NNM   20211229200538    4P0P  0000300000000050700000080121200    YCYC    006400630015
BI00B1200    7360T52101     202202037196-1103-02             TERMINAL                 CCN000180000000180000FN00000000020220301000180000NNM   20211229200538    4P0P  0000225000000042980000071501200    YCYC    006400630015
BI00B1200    7360T52103     202202107196-1103-02             TERMINAL                 CCN000157500000157500FN00000000020220301000157500NNM   20211229200538    4P0P  0000225000000042980000071501200    YCYC    006400630015
BI00B1200    7360T52104     202202177196-1103-02             TERMINAL                 CCN000157500000157500FN00000000020220301000157500NNM   20211229200538    4P0P  0000225000000042980000071501200    YCYC    006400630015
BI00B1200    7360T52101     202202037288-3335-30             HOUSING MALE             CCN000001500000001500FN00000000020220301000001500NNM   20211229200538    4N0N  0000015000000086700000101201200    YCYC    005400370024
BI00B1200    7360T52102     202202037288-3335-30             HOUSING MALE             CCN000006000000006000FN00000000020220301000006000NNM   20211229200538    4N0N  0000015000000086700000101201200    YCYC    005400370024
BI00B1200    7360T52103     202202107288-3335-30             HOUSING MALE             CCN000006000000006000FN00000000020220301000006000NNM   20211229200538    4N0N  0000015000000086700000101201200    YCYC    005400370024
BI00B1200    7360T52104     202202177288-3335-30             HOUSING MALE             CCN000006000000006000FN00000000020220301000006000NNM   20211229200538    4N0N  0000015000000086700000101201200    YCYC    005400370024
BI00B1200    7360T52101     202202037288-3336-30             HOUSING MALE             CCN000001500000001500FN00000000020220301000001500NNM   20211229200538    4N0N  0000015000000086700000101201200    YCYC    005400370024
BI00B1200    7360T52101     202202037288-3337-30             HOUSING MALE             CCN000006000000006000FN00000000020220301000006000NNM   20211229200538    4N0N  0000015000000086700000101201200    YCYC    005400370024
BI00B1200    7360T52103     202202107288-3337-30             HOUSING MALE             CCN000006000000006000FN00000000020220301000006000NNM   20211229200538    4N0N  0000015000000086700000101201200    YCYC    005400370024
BI00B1200    7360T52104     202202177288-3337-30             HOUSING MALE             CCN000006000000006000FN00000000020220301000006000NNM   20211229200538    4N0N  0000015000000086700000101201200    YCYC    005400370024
BI00B1200    7360T52101     202202037288-3338-30             HOUSING MALE             CCN000001500000001500FN00000000020220301000001500NNM   20211229200538    4N0N  0000015000000086610000101201200    YCYC    005400370024
BI00B1200    7360T52103     202202107288-3338-30             HOUSING MALE             CCN000001500000001500FN00000000020220301000001500NNM   20211229200538    4N0N  0000015000000086610000101201200    YCYC    005400370024
BI00B1200    7360T52101     202202037288-3340-30             HOUSING MALE             CCN000007500000007500FN00000000020220301000007500NNM   20211229200538    4N0N  0000015000000086150000100641200    YCYC    005400370024
BI00B1200    7360T52103     202202107288-3340-30             HOUSING MALE             CCN000007500000007500FN00000000020220301000007500NNM   20211229200538    4N0N  0000015000000086150000100641200    YCYC    005400370024
BI00B1200    7360T52104     202202177288-3340-30             HOUSING MALE             CCN000007500000007500FN00000000020220301000007500NNM   20211229200538    4N0N  0000015000000086150000100641200    YCYC    005400370024
BI00B1200    7360T52101     202202037288-6598-70             HOUSING MALE ASS'Y       CCN000007200000007200FN00000000020220301000007200NNM   20211229200538    4N0N  0000014400000107420000142921200    YCYC    005500360039
BI00B1200    7360T52103     202202107288-6598-70             HOUSING MALE ASS'Y       CCN000005760000005760FN00000000020220301000005760NNM   20211229200538    4N0N  0000014400000107420000142921200    YCYC    005500360039
BI00B1200    7360T52104     202202177288-6598-70             HOUSING MALE ASS'Y       CCN000005760000005760FN00000000020220301000005760NNM   20211229200538    4N0N  0000014400000107420000142921200    YCYC    005500360039
BI00B1200    7360T52101     202202037289-3342-30             HOUSING FEMALE ASS'Y     CCN000014400000014400FN00000000020220301000014400NNM   20211229200538    1N0N  0000024000000068640000090141200    YCYC    005500360039
BI00B1200    7360T52103     202202107289-3342-30             HOUSING FEMALE ASS'Y     CCN000014400000014400FN00000000020220301000014400NNM   20211229200538    1N0N  0000024000000068640000090141200    YCYC    005500360039
BI00B1200    7360T52104     202202177289-3342-30             HOUSING FEMALE ASS'Y     CCN000014400000014400FN00000000020220301000014400NNM   20211229200538    1N0N  0000024000000068640000090141200    YCYC    005500360039
BI00B1200    #7360T52101    202202037172-5625-90             RUBBER STOPPER           CCN000020000000020000FN00000000020220301000020000NNM   20211229200538    2H0H  0000200000000008240000013381200    YCYC    004300270014
BI00B1200    #7360T52101    202202037172-5627-60             RUBBER STOPPER           CCN000020000000020000FN00000000020220301000020000NNM   20211229200538    2H0H  0000200000000007040000012181200    YCYC    004300270014
BI00B1200    #7360T52103    202202107172-5627-60             RUBBER STOPPER           CCN000020000000020000FN00000000020220301000020000NNM   20211229200538    2H0H  0000200000000007040000012181200    YCYC    004300270014
BI00B1200    #7360T52104    202202177172-5627-60             RUBBER STOPPER           CCN000020000000020000FN00000000020220301000020000NNM   20211229200538    2H0H  0000200000000007040000012181200    YCYC    004300270014
BI00B1200    #7360T52101    202202037172-5629-80             RUBBER STOPPER           CCN000140000000140000FN00000000020220301000140000NNM   20211229200538    2H0H  0000200000000006000000011111200    YCYC    004300270014
BI00B1200    #7360T52103    202202107172-5629-80             RUBBER STOPPER           CCN000120000000120000FN00000000020220301000120000NNM   20211229200538    2H0H  0000200000000006000000011111200    YCYC    004300270014
BI00B1200    #7360T52104    202202177172-5629-80             RUBBER STOPPER           CCN000120000000120000FN00000000020220301000120000NNM   20211229200538    2H0H  0000200000000006000000011111200    YCYC    004300270014
BI00B1200    #7360T52101    202202037172-5630-40             RUBBER STOPPER           CCN000060000000060000FN00000000020220301000060000NNM   20211229200538    2H0H  0000200000000004400000009511200    YCYC    004300270014
BI00B1200    #7360T52103    202202107172-5630-40             RUBBER STOPPER           CCN000060000000060000FN00000000020220301000060000NNM   20211229200538    2H0H  0000200000000004400000009511200    YCYC    004300270014
BI00B1200    #7360T52101    202202037172-5631-60             RUBBER STOPPER           CCN000020000000020000FN00000000020220301000020000NNM   20211229200538    2H0H  0000200000000004200000009311200    YCYC    004300270014
BI00B1200    #7360T52103    202202107172-5631-60             RUBBER STOPPER           CCN000020000000020000FN00000000020220301000020000NNM   20211229200538    2H0H  0000200000000004200000009311200    YCYC    004300270014
BI00B1200    #7360T52104    202202177172-5631-60             RUBBER STOPPER           CCN000020000000020000FN00000000020220301000020000NNM   20211229200538    2H0H  0000200000000004200000009311200    YCYC    004300270014
BI00B1200    #7360T52101    202202037172-5632-10             DUMMY PLUG               CCN000180000000180000FN00000000020220301000180000NNM   20211229200538    2H0H  0000200000000008040000013181200    YCYC    004300270014
BI00B1200    #7360T52103    202202107172-5632-10             DUMMY PLUG               CCN000180000000180000FN00000000020220301000180000NNM   20211229200538    2H0H  0000200000000008040000013181200    YCYC    004300270014
BI00B1200    #7360T52104    202202177172-5632-10             DUMMY PLUG               CCN000180000000180000FN00000000020220301000180000NNM   20211229200538    2H0H  0000200000000008040000013181200    YCYC    004300270014
BI00B1200    #7360T52101    202202037189-3031                HOUSING FEMALE           CCN000002400000002400FN00000000020220301000002400NNM   20211229200538    2F0F  0000024000000092880000136581200    YCYC    005500360039
BI00B1200    #7360T52101    202202037189-3032                HOUSING FEMALE           CCN000001600000001600FN00000000020220301000001600NNM   20211229200538    2F0F  0000016000000078840000101841200    YCYC    005500360039
BI00B1200    #7360T52101    202202037189-3032-30             HOUSING FEMALE           CCN000001600000001600FN00000000020220301000001600NNM   20211229200538    2F0F  0000016000000080160000102161200    YCYC    005500360039
BI00B1200    #7360T52101    202202037289-2912-30             HOUSING FEMALE ASS'Y     CCN000002000000002000FN00000000020220301000002000NNM   20211229200538    2N0N  0000020000000080400000092901200    YCYC    005400370024
BI00B1200    #7360T52101    202202037289-2913-30             HOUSING FEMALE ASS'Y     CCN000001500000001500FN00000000020220301000001500NNM   20211229200538    2N0N  0000015000000090750000103451200    YCYC    005400360024
BI00B1200    #7360T52101    202202037289-2914                HOUSING FEMALE ASS'Y     CCN000001500000001500FN00000000020220301000001500NNM   20211229200538    2N0N  0000015000000090600000103301200    YCYC    005400370024
BI00B1200    #7360T52103    202202107289-2914                HOUSING FEMALE ASS'Y     CCN000001500000001500FN00000000020220301000001500NNM   20211229200538    2N0N  0000015000000090600000103301200    YCYC    005400370024
BI00B1200    #7360T52101    202202037289-2914-40             HOUSING FEMALE ASS'Y     CCN000001500000001500FN00000000020220301000001500NNM   20211229200538    2N0N  0000015000000090450000103151200    YCYC    005400370024
BI00B1200    #7360T52103    202202107289-2914-40             HOUSING FEMALE ASS'Y     CCN000001500000001500FN00000000020220301000001500NNM   20211229200538    2N0N  0000015000000090450000103151200    YCYC    005400370024
BI00B1200    #7360T52101    202202037289-2915-30             HOUSING FEMALE ASS'Y     CCN000001500000001500FN00000000020220301000001500NNM   20211229200538    2N0N  0000015000000096450000109151200    YCYC    005400360024
BI00B1200    #7360T52103    202202107289-2915-30             HOUSING FEMALE ASS'Y     CCN000001500000001500FN00000000020220301000001500NNM   20211229200538    2N0N  0000015000000096450000109151200    YCYC    005400360024
BI00B1200    #7360T52104    202202177289-2915-30             HOUSING FEMALE ASS'Y     CCN000001500000001500FN00000000020220301000001500NNM   20211229200538    2N0N  0000015000000096450000109151200    YCYC    005400360024
BI00B1200    #7360T52101    202202037289-2918-30             HOUSING FEMALE ASS'Y     CCN000001000000001000FN00000000020220301000001000NNM   20211229200538    2N0N  0000010000000101800000114501200    YCYC    005400360024
BI00B1200    #7360T52103    202202107289-2918-30             HOUSING FEMALE ASS'Y     CCN000001000000001000FN00000000020220301000001000NNM   20211229200538    2N0N  0000010000000101800000114501200    YCYC    005400360024
BI00B1200    #7360T52104    202202177289-2918-30             HOUSING FEMALE ASS'Y     CCN000001000000001000FN00000000020220301000001000NNM   20211229200538    2N0N  0000010000000101800000114501200    YCYC    005400360024
BI00B1200    #7360T52101    202202037289-2918-40             HOUSING FEMALE ASS'Y     CCN000001000000001000FN00000000020220301000001000NNM   20211229200538    2N0N  0000010000000102000000114701200    YCYC    005400360024
BI00B1200    7360T52106     202201137195-0783-08             TERMINAL                 CCN000030000000030000FN00000000020220201000030000NNE   20211229200538    4P0P  0000300000000050700000080121200    YCYC    006400630015
BI00B1200    7360T52106     202201137288-3335-30             HOUSING MALE             CCN000009000000009000FN00000000020220201000009000NNE   20211229200538    4N0N  0000015000000086700000101201200    YCYC    005400370024
BI00B1200    7360T52106     202201137288-3337-30             HOUSING MALE             CCN000027000000027000FN00000000020220201000027000NNE   20211229200538    4N0N  0000015000000086700000101201200    YCYC    005400370024
BI00B1200    7360T52106     202201137288-3340-30             HOUSING MALE             CCN000001500000001500FN00000000020220201000001500NNE   20211229200538    4N0N  0000015000000086150000100641200    YCYC    005400370024
BI00B1200    7360T52106     202201137288-6598-70             HOUSING MALE ASS'Y       CCN000004320000004320FN00000000020220201000004320NNE   20211229200538    4N0N  0000014400000107420000142921200    YCYC    005500360039
BI00B1200    #7360T52106    202201137289-2916-30             HOUSING FEMALE ASS'Y     CCN000002000000002000FN00000000020220201000002000NNE   20211229200538    2N0N  0000010000000085700000108401200    YCYC    005400360024
BI00B1200    #7360T52106    202201137289-2918-30             HOUSING FEMALE ASS'Y     CCN000001000000001000FN00000000020220201000001000NNE   20211229200538    2N0N  0000010000000101800000114501200    YCYC    005400360024
BI00B1200    #7360T52106    202201137289-2918-40             HOUSING FEMALE ASS'Y     CCN000001000000001000FN00000000020220201000001000NNE   20211229200538    2N0N  0000010000000102000000114701200    YCYC    005400360024
BI00B1200    8100T52102     202202107289-9553-30             SEALED ASSY FEMALE       CCN000002940000002940FN00000000020220301000002940NNM   20211229200538    4N0N  0000029400000110900000152151200    YCYC    005500360039
BI00B1200    8100T52102     202202107289-9553-50             SEALED ASSY FEMALE       CCN000002940000002940FN00000000020220301000002940NNM   20211229200538    4N0N  0000029400000110810000152061200    YCYC    005500360039
BI00B1200    #8100T52103    202202037174-1760-50             CAP                      CCN000003000000003000FN00000000020220301000003000NNM   20211229200538    2F0F  0000030000000081360000092261200    YCYC    005400370024
BI00B1200    #8100T52104    202202107174-1760-50             CAP                      CCN000003000000003000FN00000000020220301000003000NNM   20211229200538    2F0F  0000030000000081360000092261200    YCYC    005400370024
BI00B1200    #8100T52105    202202177174-1760-50             CAP                      CCN000003000000003000FN00000000020220301000003000NNM   20211229200538    2F0F  0000030000000081360000092261200    YCYC    005400370024
BI00B1200    #8100T52106    202202247174-1760-50             CAP                      CCN000003000000003000FN00000000020220301000003000NNM   20211229200538    2F0F  0000030000000081360000092261200    YCYC    005400370024
BI00B1200    8870T52102     202202247289-3342                HOUSING FEMALE ASS'Y     CCN000002400000002400FN00000000020220301000002400NNE   20211229200538    1N0N  0000024000000068640000090141200    YCYC    005500360039
BI00B1200    H722D50001     202203037297-1861-30             HOUSING MALE ASS'Y       CCN000003000000003000FN00000000020220401000003000NNE   20211229200538    4N0N  0000015000000070220000082731200    YCYC    005400370024
BI00B1200    #O022B50470    202202107154-7040                RELAY BLOCK              CCN000006000000006000FN00000000020220301000006000NNE   20211229200538    2F0F  0000030000000060300000074491200    YCYC    005500360039
BI00B1200    #O022B50471    202202177154-8273                RELAY BLOCK              CCN000003000000003000FN00000000020220301000003000NNE   20211229200538    2F0F  0000010000000052300000067251200    YCYC    005500360039
BI00B1200    #O022B50472    202202107154-5328-30             RELAY BLOCK              CCN000003000000003000FN00000000020220301000003000NNE   20211229200538    2F0F  0000010000000121200000136191200    YCYC    005600390040
BI00B32AF    JTB2031        202202187289-3342-30             HOUSING FEMALE ASS'Y     CCN000057600000057600FN00000000020220301000057600NNMD0420211229200538    1N0N  00000240000000686400000901432AF    HBYHVTB 005500360039
BI00B32AF    JTB2032        202202257289-3342-30             HOUSING FEMALE ASS'Y     CCN000055200000055200FN00000000020220301000055200NNMD0420211229200538    1N0N  00000240000000686400000901432AF    HBYHVTB 005500360039
BI00B32AF    JTB2033        202203047289-3342-30             HOUSING FEMALE ASS'Y     CCN000064800000064800FN00000000020220301000064800NNMD0420211229200538    1N0N  00000240000000686400000901432AF    HBYHVTB 005500360039
BI00B32AF    JTB2034        202203117289-3342-30             HOUSING FEMALE ASS'Y     CCN000031200000031200FN00000000020220301000031200NNMD0420211229200538    1N0N  00000240000000686400000901432AF    HBYHVTB 005500360039
BI00B32AF    JTK203A        202202117114-4020                TERMINAL                 CCN000168000000168000FN00000000020220201000168000NNE   20211229200538    4P0P  00002100000000875700001169332AF    HBYHVTB 006400630015
BI00B32AF    JTK203A        202202117116-4020                TERMINAL                 CCN000135000000135000FN00000000020220201000135000NNE   20211229200538    4P0P  00001350000000513000000798232AF    HBYHVTB 006400630015
BI00B32BF    TT22041BMW     202202227114-4032                TERMINAL                 CCN000007500000007500FN00000000020220401000007500NNM   20211229200538    4P0P  00000750000000735000001063632BF    TTTJYCD 006400630017
BI00B32BF    TT22041BMW     202202227114-4624-02             TERMINAL                 CCN000024000000024000FN00000000020220401000024000NNM   20211229200538    4P0P  00002400000000895200001188832BF    TTTJYCD 006400630015
BI00B32BF    TT22042BMW     202203017114-4624-02             TERMINAL                 CCN000024000000024000FN00000000020220401000024000NNM   20211229200538    4P0P  00002400000000895200001188832BF    TTTJYCD 006400630015
BI00B32BF    TT22043BMW     202203087114-4624-02             TERMINAL                 CCN000024000000024000FN00000000020220401000024000NNM   20211229200538    4P0P  00002400000000895200001188832BF    TTTJYCD 006400630015
BI00B32BF    TT22041BMW     202202227114-4728-08             TERMINAL                 CCN000030000000030000FN00000000020220401000030000NNM   20211229200538    4P0P  00003000000000507000000801232BF    TTTJYCD 006400630015
BI00B32BF    TT22042BMW     202203017114-4728-08             TERMINAL                 CCN000030000000030000FN00000000020220401000030000NNM   20211229200538    4P0P  00003000000000507000000801232BF    TTTJYCD 006400630015
BI00B32BF    TT22041BMW     202202227114-5748-02             TERMINAL                 CCN000012000000012000FN00000000020220401000012000NNM   20211229200538    4P0P  00001200000000444000000737632BF    TTTJYCD 006400630015
BI00B32BF    TT22041BMW     202202227114-6041                TERMINAL                 CCN000003600000003600FN00000000020220401000003600NNM   20211229200538    4P0P  00000360000000580700000824232BF    TTTJYCD 006400630015
BI00B32BF    TT22042BMW     202203017114-6041                TERMINAL                 CCN000003600000003600FN00000000020220401000003600NNM   20211229200538    4P0P  00000360000000580700000824232BF    TTTJYCD 006400630015
BI00B32BF    TT22044BMW     202203157114-6041                TERMINAL                 CCN000003600000003600FN00000000020220401000003600NNM   20211229200538    4P0P  00000360000000580700000824232BF    TTTJYCD 006400630015
BI00B32BF    TT22041BMW     202202227116-3153-08             TERMINAL                 CCN000027000000027000FN00000000020220401000027000NNM   20211229200538    4P0P  00002700000000461700000746932BF    TTTJYCD 006400630015
BI00B32BF    TT22041BMW     202202227116-4028-08             TERMINAL FEMALE          CCN000016000000016000FN00000000020220401000016000NNM   20211229200538    4P0P  00001600000000652800000981532BF    TTTJYCD 006400630017
BI00B32BF    TT22041BMW     202202227126-8852-02             TERMINAL                 CCN000007500000007500FN00000000020220401000007500NNM   20211229200538    1P0P  00000750000000648000000933232BF    TTTJYCD 006400630015
BI00B32BF    TT22041BMW     202202227126-8853-02             TERMINAL                 CCN000015000000015000FN00000000020220401000015000NNM   20211229200538    4P0P  00000750000000562500000847732BF    TTTJYCD 006400630015
BI00B32BF    TT22042BMW     202203017126-8853-02             TERMINAL                 CCN000007500000007500FN00000000020220401000007500NNM   20211229200538    4P0P  00000750000000562500000847732BF    TTTJYCD 006400630015
BI00B32BF    TT22043BMW     202203087126-8853-02             TERMINAL                 CCN000007500000007500FN00000000020220401000007500NNM   20211229200538    4P0P  00000750000000562500000847732BF    TTTJYCD 006400630015
BI00B32BF    TT22044BMW     202203157126-8853-02             TERMINAL                 CCN000007500000007500FN00000000020220401000007500NNM   20211229200538    4P0P  00000750000000562500000847732BF    TTTJYCD 006400630015
BI00B32BF    TT22041BMW     202202227158-3006-90             RUBBER STOPPER           CCN000020000000020000FN00000000020220401000020000NNM   20211229200538    1C0C  00002000000000330600000386032BF    TTTJYCD 002700430014
BI00B32BF    TT22042BMW     202203017158-3006-90             RUBBER STOPPER           CCN000020000000020000FN00000000020220401000020000NNM   20211229200538    1C0C  00002000000000330600000386032BF    TTTJYCD 002700430014
BI00B32BF    TT22043BMW     202203087158-3006-90             RUBBER STOPPER           CCN000020000000020000FN00000000020220401000020000NNM   20211229200538    1C0C  00002000000000330600000386032BF    TTTJYCD 002700430014
BI00B32BF    TT22041BMW     202202227196-0396-02             TERMINAL                 CCN000015000000015000FN00000000020220401000015000NNM   20211229200538    4P0P  00001500000000949500001112932BF    TTTJYCD 002800510028
BI00B32BF    TT22041BMW     202202227196-0510-02             TERMINAL                 CCN000096000000096000FN00000000020220401000096000NNM   20211229200538    4P0P  00002400000000871200001034632BF    TTTJYCD 002800510028
BI00B32BF    TT22042BMW     202203017196-0510-02             TERMINAL                 CCN000048000000048000FN00000000020220401000048000NNM   20211229200538    4P0P  00002400000000871200001034632BF    TTTJYCD 002800510028
BI00B32BF    TT22043BMW     202203087196-0510-02             TERMINAL                 CCN000024000000024000FN00000000020220401000024000NNM   20211229200538    4P0P  00002400000000871200001034632BF    TTTJYCD 002800510028
BI00B32BF    TT22041BMW     202202227283-1289-40             CONNECTOR HOUSING        CCN000000600000000600FN00000000020220401000000600NNM   20211229200538    1N0N  00000060000000679800000824832BF    TTTJYCD 005400370024
BI00B32BF    TT22041BMW     202202227283-4855                CONNECTOR HOUSING        CCN000007200000007200FN00000000020220401000007200NNM   20211229200538    4N0N  00000240000001188400001400032BF    TTTJYCD 005500360039
BI00B32BF    TT22042BMW     202203017283-4855                CONNECTOR HOUSING        CCN000004800000004800FN00000000020220401000004800NNM   20211229200538    4N0N  00000240000001188400001400032BF    TTTJYCD 005500360039
BI00B32BF    TT22043BMW     202203087283-4855                CONNECTOR HOUSING        CCN000002400000002400FN00000000020220401000002400NNM   20211229200538    4N0N  00000240000001188400001400032BF    TTTJYCD 005500360039
BI00B32BF    TT22044BMW     202203157283-4855                CONNECTOR HOUSING        CCN000007200000007200FN00000000020220401000007200NNM   20211229200538    4N0N  00000240000001188400001400032BF    TTTJYCD 005500360039
BI00B32BF    TT22041BMW     202202227295-0785-02             TERMINAL ALUMINIUM       CCN000051000000051000FN00000000020220401000051000NNM   20211229200538    4P0P  00002550000000510000000803632BF    TTTJYCD 006400630015
BI00B32BF    TT22042BMW     202203017295-0785-02             TERMINAL ALUMINIUM       CCN000025500000025500FN00000000020220401000025500NNM   20211229200538    4P0P  00002550000000510000000803632BF    TTTJYCD 006400630015
BI00B32BF    #TT22041BMW    202202227158-3008-80             RUBBER STOPPER           CCN000020000000020000FN00000000020220401000020000NNM   20211229200538    2C0C  00002000000000288000000343032BF    TTTJYCD 004300270014
BI00B32BF    #TT22041BMW    202202227158-3017                RUBBER STOPPER           CCN000010000000010000FN00000000020220401000010000NNM   20211229200538    2C0C  00001000000000375500000435032BF    TTTJYCD 002700430014
BI00B32BF    #TT22041BMW    202202227282-1140                HOUSING MALE ASS'Y       CCN000000500000000500FN00000000020220401000000500NNM   20211229200538    2N0N  00000050000000467500000590032BF    TTTJYCD 005400370024
BI00B32BF    #TT22041BMW    202202227283-1194                CONNECTOR FEMALE         CCN000001000000001000FN00000000020220401000001000NNM   20211229200538    2N0N  00000100000000947000001069532BF    TTTJYCD 005400370024
BI00B32BF    #TT22041BMW    202202227283-1262-30             CONNECTOR HOUSING        CCN000002000000002500FN00000000020220401000002500NNM   20211229200538    2N0N  00000250000000575000000687532BF    TTTJYCD 005400370024
BI00B32BF    @TT22041BMW    202202227282-1064-30             CONNECTOR ASS'Y          CCN000000800000000800FN00000000020220401000000800NNM   20211229200538    3N0N  00000080000000907300001140132BF    TTTJYCD 005500360039
BI00B32CH    SJ22031 MW     202202107327-6832-60             MAIN FUSE                CCN000004800000004800FN00000000020220301000004800NNMD0420211229200538    4N0N  00000060000000729200000930732CH    SJSAMIJF005400370024
BI00B32CH    SJ22032 MW     202202177327-6832-60             MAIN FUSE                CCN000013800000013800FN00000000020220301000013800NNMD0420211229200538    4N0N  00000060000000729200000930732CH    SJSAMIJF005400370024
BI00B32CH    SJ22033 MW     202202247327-6832-60             MAIN FUSE                CCN000015000000015000FN00000000020220301000015000NNMD0420211229200538    4N0N  00000060000000729200000930732CH    SJSAMIJF005400370024
BI00B32CH    SJ22034 MW     202203037327-6832-60             MAIN FUSE                CCN000015000000015000FN00000000020220301000015000NNMD0420211229200538    4N0N  00000060000000729200000930732CH    SJSAMIJF005400370024
BI00B32CH    SJ22035 MW     202203107327-6832-60             MAIN FUSE                CCN000017400000017400FN00000000020220301000017400NNMD0420211229200538    4N0N  00000060000000729200000930732CH    SJSAMIJF005400370024
BI00B32CH    SJ22031HMW     202202177C89-6868-30             SEALED ASSY FEMALE       CCN000022680000022680FN00000000020220301000022680NNMD0420211229200538    4N0N  00000252000000839200001119232CH    SJSAMIJF005500360039
BI00B32CH    SJ22032HMW     202202247C89-6868-30             SEALED ASSY FEMALE       CCN000040320000040320FN00000000020220301000040320NNMD0420211229200538    4N0N  00000252000000839200001119232CH    SJSAMIJF005500360039
BI00B32CH    SJ22033HMW     202203037C89-6868-30             SEALED ASSY FEMALE       CCN000045360000045360FN00000000020220301000045360NNMD0420211229200538    4N0N  00000252000000839200001119232CH    SJSAMIJF005500360039
BI00B32CH    SJ22034HMW     202203107C89-6868-30             SEALED ASSY FEMALE       CCN000040320000040320FN00000000020220301000040320NNMD0420211229200538    4N0N  00000252000000839200001119232CH    SJSAMIJF005500360039
BI00B32CH    SJ22035HMW     202203107C89-6868-30             SEALED ASSY FEMALE       CCN000040320000040320FN00000000020220301000040320NNMD0420211229200538    4N0N  00000252000000839200001119232CH    SJSAMIJF005500360039
BI00B32CH    SJ22031HMW     202202247327-6834-80             MAIN FUSE                CCN000003000000003000FN00000000020220301000003000NNMD0420211229200538    4N0N  00000060000000736800000938332CH    SJSAMIJF005400370024
BI00B32CH    SJ22032HMW     202202177327-6834-80             MAIN FUSE                CCN000005400000005400FN00000000020220301000005400NNMD0420211229200538    4N0N  00000060000000736800000938332CH    SJSAMIJF005400370024
BI00B32CH    SJ22033HMW     202202247327-6834-80             MAIN FUSE                CCN000006600000006600FN00000000020220301000006600NNMD0420211229200538    4N0N  00000060000000736800000938332CH    SJSAMIJF005400370024
BI00B32CH    SJ22034HMW     202203037327-6834-80             MAIN FUSE                CCN000003600000003600FN00000000020220301000003600NNMD0420211229200538    4N0N  00000060000000736800000938332CH    SJSAMIJF005400370024
BI00B32CH    SJ22035HMW     202203107327-6834-80             MAIN FUSE                CCN000001800000001800FN00000000020220301000001800NNMD0420211229200538    4N0N  00000060000000736800000938332CH    SJSAMIJF005400370024
BI00B32CH    SJ22031HMW     202202247327-6868-30             MULTI FUSE               CCN000001152000001152FN00000000020220301000001152NNMD0420211229200538    4N0N  00000028800001013500001179432CH    SJSAMIJF005400370024
BI00B32CH    SJ22032HMW     202203037327-6868-30             MULTI FUSE               CCN000001152000001152FN00000000020220301000001152NNMD0420211229200538    4N0N  00000028800001013500001179432CH    SJSAMIJF005400370024
BI00B32CH    SJ22033HMW     202203107327-6868-30             MULTI FUSE               CCN000001440000001440FN00000000020220301000001440NNMD0420211229200538    4N0N  00000028800001013500001179432CH    SJSAMIJF005400370024
BI00B32CH    SJ22034HMW     202203177327-6868-30             MULTI FUSE               CCN000000864000000864FN00000000020220301000000864NNMD0420211229200538    4N0N  00000028800001013500001179432CH    SJSAMIJF005400370024
BI00B32CH    SJ22035HMW     202203247327-6868-30             MULTI FUSE               CCN000000288000000288FN00000000020220301000000288NNMD0420211229200538    4N0N  00000028800001013500001179432CH    SJSAMIJF005400370024
BI00B32CH    SJ22031HMW     202202247327-6870-30             MULTI FUSE               CCN000005184000005184FN00000000020220301000005184NNMD0420211229200538    4N0N  00000028800001015200001181132CH    SJSAMIJF005400370024
BI00B32CH    SJ22032HMW     202203037327-6870-30             MULTI FUSE               CCN000014112000014112FN00000000020220301000014112NNMD0420211229200538    4N0N  00000028800001015200001181132CH    SJSAMIJF005400370024
BI00B32CH    SJ22033HMW     202203107327-6870-30             MULTI FUSE               CCN000014688000014688FN00000000020220301000014688NNMD0420211229200538    4N0N  00000028800001015200001181132CH    SJSAMIJF005400370024
BI00B32CH    SJ22034HMW     202203177327-6870-30             MULTI FUSE               CCN000015552000015552FN00000000020220301000015552NNMD0420211229200538    4N0N  00000028800001015200001181132CH    SJSAMIJF005400370024
BI00B32CH    SJ22035HMW     202203247327-6870-30             MULTI FUSE               CCN000016992000016992FN00000000020220301000016992NNMD0420211229200538    4N0N  00000028800001015200001181132CH    SJSAMIJF005400370024
BI00B32CH    SJ22031HMW     202202247327-6872-30             MULTI FUSE               CCN000006912000006912FN00000000020220301000006912NNMD0420211229200538    4N0N  00000028800000984500001150432CH    SJSAMIJF005400370024
BI00B32CH    SJ22032HMW     202203037327-6872-30             MULTI FUSE               CCN000006048000006048FN00000000020220301000006048NNMD0420211229200538    4N0N  00000028800000984500001150432CH    SJSAMIJF005400370024
BI00B32CH    SJ22033HMW     202203107327-6872-30             MULTI FUSE               CCN000008064000008064FN00000000020220301000008064NNMD0420211229200538    4N0N  00000028800000984500001150432CH    SJSAMIJF005400370024
BI00B32CH    SJ22034HMW     202203177327-6872-30             MULTI FUSE               CCN000004608000004608FN00000000020220301000004608NNMD0420211229200538    4N0N  00000028800000984500001150432CH    SJSAMIJF005400370024
BI00B32CH    SJ22035HMW     202203247327-6872-30             MULTI FUSE               CCN000002592000002592FN00000000020220301000002592NNMD0420211229200538    4N0N  00000028800000984500001150432CH    SJSAMIJF005400370024
BI00B32CH    SJ22032HMW     202203037327-6874-30             MULTI FUSE               CCN000005760000005760FN00000000020220301000005760NNMD0420211229200538    4N0N  00000028800000991400001157332CH    SJSAMIJF005400370024
BI00B32CH    SJ22033HMW     202203107327-6874-30             MULTI FUSE               CCN000010944000010944FN00000000020220301000010944NNMD0420211229200538    4N0N  00000028800000991400001157332CH    SJSAMIJF005400370024
BI00B32CH    SJ22034HMW     202203177327-6874-30             MULTI FUSE               CCN000010656000010656FN00000000020220301000010656NNMD0420211229200538    4N0N  00000028800000991400001157332CH    SJSAMIJF005400370024
BI00B32CH    SJ22035HMW     202203247327-6874-30             MULTI FUSE               CCN000010656000010656FN00000000020220301000010656NNMD0420211229200538    4N0N  00000028800000991400001157332CH    SJSAMIJF005400370024
BI00B32CH    SJ22031HMW     202202247327-6876-30             MULTI FUSE               CCN000002880000002880FN00000000020220301000002880NNMD0420211229200538    4N0N  00000028800001016400001182332CH    SJSAMIJF005400370024
BI00B32CH    SJ22032HMW     202203037327-6876-30             MULTI FUSE               CCN000004896000004896FN00000000020220301000004896NNMD0420211229200538    4N0N  00000028800001016400001182332CH    SJSAMIJF005400370024
BI00B32CH    SJ22033HMW     202203107327-6876-30             MULTI FUSE               CCN000006624000006624FN00000000020220301000006624NNMD0420211229200538    4N0N  00000028800001016400001182332CH    SJSAMIJF005400370024
BI00B32CH    SJ22034HMW     202203177327-6876-30             MULTI FUSE               CCN000004032000004032FN00000000020220301000004032NNMD0420211229200538    4N0N  00000028800001016400001182332CH    SJSAMIJF005400370024
BI00B32CH    SJ22035HMW     202203247327-6876-30             MULTI FUSE               CCN000002016000002016FN00000000020220301000002016NNMD0420211229200538    4N0N  00000028800001016400001182332CH    SJSAMIJF005400370024
BI00B32CH    SJ22031HMW     202202247327-6878-30             MULTI FUSE               CCN000007200000007200FN00000000020220301000007200NNMD0420211229200538    4N0N  00000028800000989700001155632CH    SJSAMIJF005400370024
BI00B32CH    SJ22032HMW     202203037327-6878-30             MULTI FUSE               CCN000006048000006048FN00000000020220301000006048NNMD0420211229200538    4N0N  00000028800000989700001155632CH    SJSAMIJF005400370024
BI00B32CH    SJ22033HMW     202203107327-6878-30             MULTI FUSE               CCN000008352000008352FN00000000020220301000008352NNMD0420211229200538    4N0N  00000028800000989700001155632CH    SJSAMIJF005400370024
BI00B32CH    SJ22034HMW     202203177327-6878-30             MULTI FUSE               CCN000004608000004608FN00000000020220301000004608NNMD0420211229200538    4N0N  00000028800000989700001155632CH    SJSAMIJF005400370024
BI00B32CH    SJ22035HMW     202203247327-6878-30             MULTI FUSE               CCN000002304000002304FN00000000020220301000002304NNMD0420211229200538    4N0N  00000028800000989700001155632CH    SJSAMIJF005400370024
BI00B32CH    SJ22031HMW     202202247327-6880-30             MULTI FUSE               CCN000005760000005760FN00000000020220301000005760NNMD0420211229200538    4N0N  00000028800001012600001178532CH    SJSAMIJF005400370024
BI00B32CH    SJ22032HMW     202203037327-6880-30             MULTI FUSE               CCN000014112000014112FN00000000020220301000014112NNMD0420211229200538    4N0N  00000028800001012600001178532CH    SJSAMIJF005400370024
BI00B32CH    SJ22033HMW     202203107327-6880-30             MULTI FUSE               CCN000014688000014688FN00000000020220301000014688NNMD0420211229200538    4N0N  00000028800001012600001178532CH    SJSAMIJF005400370024
BI00B32CH    SJ22034HMW     202203177327-6880-30             MULTI FUSE               CCN000015552000015552FN00000000020220301000015552NNMD0420211229200538    4N0N  00000028800001012600001178532CH    SJSAMIJF005400370024
BI00B32CH    SJ22035HMW     202203247327-6880-30             MULTI FUSE               CCN000016992000016992FN00000000020220301000016992NNMD0420211229200538    4N0N  00000028800001012600001178532CH    SJSAMIJF005400370024
BI00B32CH    SJ22031HMW     202202247327-6882-30             MULTI FUSE               CCN000006912000006912FN00000000020220301000006912NNMD0420211229200538    4N0N  00000028800001015900001181832CH    SJSAMIJF005400370024
BI00B32CH    SJ22032HMW     202203037327-6882-30             MULTI FUSE               CCN000006048000006048FN00000000020220301000006048NNMD0420211229200538    4N0N  00000028800001015900001181832CH    SJSAMIJF005400370024
BI00B32CH    SJ22033HMW     202203107327-6882-30             MULTI FUSE               CCN000008352000008352FN00000000020220301000008352NNMD0420211229200538    4N0N  00000028800001015900001181832CH    SJSAMIJF005400370024
BI00B32CH    SJ22034HMW     202203177327-6882-30             MULTI FUSE               CCN000004608000004608FN00000000020220301000004608NNMD0420211229200538    4N0N  00000028800001015900001181832CH    SJSAMIJF005400370024
BI00B32CH    SJ22035HMW     202203247327-6882-30             MULTI FUSE               CCN000002304000002304FN00000000020220301000002304NNMD0420211229200538    4N0N  00000028800001015900001181832CH    SJSAMIJF005400370024
BI00B32CH    SJ22031HMW     202202247327-6884-30             MULTI FUSE               CCN000010080000010080FN00000000020220301000010080NNMD0420211229200538    4N0N  00000028800000988900001154832CH    SJSAMIJF005400370024
BI00B32CH    SJ22032HMW     202203037327-6884-30             MULTI FUSE               CCN000017856000017856FN00000000020220301000017856NNMD0420211229200538    4N0N  00000028800000988900001154832CH    SJSAMIJF005400370024
BI00B32CH    SJ22033HMW     202203107327-6884-30             MULTI FUSE               CCN000018432000018432FN00000000020220301000018432NNMD0420211229200538    4N0N  00000028800000988900001154832CH    SJSAMIJF005400370024
BI00B32CH    SJ22034HMW     202203177327-6884-30             MULTI FUSE               CCN000020448000020448FN00000000020220301000020448NNMD0420211229200538    4N0N  00000028800000988900001154832CH    SJSAMIJF005400370024
BI00B32CH    SJ22035HMW     202203247327-6884-30             MULTI FUSE               CCN000023328000023328FN00000000020220301000023328NNMD0420211229200538    4N0N  00000028800000988900001154832CH    SJSAMIJF005400370024
BI00B32CH    SJ22035SMW     202202247289-3342-30             HOUSING FEMALE ASS'Y     CCN000012000000012000FN00000000020220301000012000NNMD0420211229200538    1N0N  00000240000000686400000901432CH    SJSAMIJF005500360039
BI00B32CH    SJ2203A MW     202202037282-4576                HOUSING MALE ASS'Y       CCN000002400000002400FN00000000020220301000002400NNE   20211229200538    4N0N  00000240000000808800001028832CH    SJSAMIJF005500360039
BI00B32CJ    JQN2031        202205277288-6547                CONNECTOR MALE ASS'Y     CCN000003000000003000FN00000000020220301000003000NNMD0420211229200538    4N0N  00000075000001205300001340332CJ    QNYHVQN 005400370024
BI00B32CJ    JQN2031        202209237289-3342-30             HOUSING FEMALE ASS'Y     CCN000019200000019200FN00000000020220301000019200NNMD0420211229200538    1N0N  00000240000000686400000901432CJ    QNYHVQN 005500360039
BI00B32CJ    JQN2032        202209307289-3342-30             HOUSING FEMALE ASS'Y     CCN000019200000019200FN00000000020220301000019200NNMD0420211229200538    1N0N  00000240000000686400000901432CJ    QNYHVQN 005500360039
BI00B32DA    SBT2203        202201277114-4020                TERMINAL                 CCN000063000000063000FN00000000020220301000063000NNM   20211229200538    4P0P  00002100000000875700001169332DA    GBYIPLGB006400630015
BI00B32DA    SBT2203A       202202037114-4020                TERMINAL                 CCN000021000000021000FN00000000020220301000021000NNM   20211229200538    4P0P  00002100000000875700001169332DA    GBYIPLGB006400630015
BI00B32DA    SBT2203        202201277114-4021                TERMINAL                 CCN000165000000165000FN00000000020220301000165000NNM   20211229200538    4P0P  00001500000000670500000964132DA    GBYIPLGB006400630015
BI00B32DA    SBT2203A       202202037114-4021                TERMINAL                 CCN000060000000060000FN00000000020220301000060000NNM   20211229200538    4P0P  00001500000000670500000964132DA    GBYIPLGB006400630015
BI00B32DA    SBT2203        202201277114-4032                TERMINAL                 CCN000015000000015000FN00000000020220301000015000NNM   20211229200538    4P0P  00000750000000735000001063632DA    GBYIPLGB006400630017
BI00B32DA    SBT2203A       202202037114-4032                TERMINAL                 CCN000007500000007500FN00000000020220301000007500NNM   20211229200538    4P0P  00000750000000735000001063632DA    GBYIPLGB006400630017
BI00B32DA    SBT2203        202201277116-1301                TERMINAL                 CCN000015000000015000FN00000000020220301000015000NNM   20211229200538    4P0P  00001500000000487500000772732DA    GBYIPLGB006400630015
BI00B32DA    SBT2203        202201277116-4020                TERMINAL                 CCN000067500000067500FN00000000020220301000067500NNM   20211229200538    4P0P  00001350000000513000000798232DA    GBYIPLGB006400630015
BI00B32DA    SBT2203A       202202037116-4020                TERMINAL                 CCN000027000000027000FN00000000020220301000027000NNM   20211229200538    4P0P  00001350000000513000000798232DA    GBYIPLGB006400630015
BI00B32DA    SBT2203        202201277116-4022                TERMINAL                 CCN000040500000040500FN00000000020220301000040500NNM   20211229200538    4P0P  00001350000000618300000903532DA    GBYIPLGB006400630015
BI00B32DA    SBT2203A       202202037116-4022                TERMINAL                 CCN000013500000013500FN00000000020220301000013500NNM   20211229200538    4P0P  00001350000000618300000903532DA    GBYIPLGB006400630015
BI00B32DA    SBT2203        202201277116-4025                TERMINAL                 CCN000400000000400000FN00000000020220301000400000NNM   20211229200538    4P0P  00001600000000644800000975132DA    GBYIPLGB006400630017
BI00B32DA    SBT2203A       202202037116-4025                TERMINAL                 CCN000112000000112000FN00000000020220301000112000NNM   20211229200538    4P0P  00001600000000644800000975132DA    GBYIPLGB006400630017
BI00B32DA    SBT2203        202201277116-4026                TERMINAL                 CCN000176000000176000FN00000000020220301000176000NNM   20211229200538    4P0P  00001600000000664000000994332DA    GBYIPLGB006400630017
BI00B32DA    SBT2203A       202202037116-4026                TERMINAL                 CCN000048000000048000FN00000000020220301000048000NNM   20211229200538    4P0P  00001600000000664000000994332DA    GBYIPLGB006400630017
BI00B32DA    SBT2203        202201277116-4032                TERMINAL                 CCN000090000000090000FN00000000020220301000090000NNM   20211229200538    4P0P  00000600000000532800000818032DA    GBYIPLGB006400630015
BI00B32DA    SBT2203A       202202037116-4032                TERMINAL                 CCN000024000000024000FN00000000020220301000024000NNM   20211229200538    4P0P  00000600000000532800000818032DA    GBYIPLGB006400630015
BI00B32DA    SBT2203        202201277116-4037                TERMINAL                 CCN000090000000090000FN00000000020220301000090000NNM   20211229200538    4P0P  00000600000000600000000894232DA    GBYIPLGB006400630015
BI00B32DA    SBT2203A       202202037116-4037                TERMINAL                 CCN000024000000024000FN00000000020220301000024000NNM   20211229200538    4P0P  00000600000000600000000894232DA    GBYIPLGB006400630015
BI00B32DA    SBT2203        202201277116-6042                TERMINAL                 CCN000036000000036000FN00000000020220301000036000NNM   20211229200538    4P0P  00000300000000523800000856132DA    GBYIPLGB006400630015
BI00B32DA    SBT2203A       202202037116-6042                TERMINAL                 CCN000015000000015000FN00000000020220301000015000NNM   20211229200538    4P0P  00000300000000523800000856132DA    GBYIPLGB006400630015
BI00B32DA    SBT2203        202201277283-5830                CONNECTOR                CCN000024000000024000FN00000000020220301000024000NNM   20211229200538    1N47  00000600000000954000001104032DA    GBYIPLGB005500360039
BI00B32DA    SBT2203A       202202037283-5830                CONNECTOR                CCN000012000000012000FN00000000020220301000012000NNM   20211229200538    1N47  00000600000000954000001104032DA    GBYIPLGB005500360039
BI00B32DA    SBT2203        202201277283-5845                CONNECTOR HOUSING        CCN000030000000030000FN00000000020220301000030000NNM   20211229200538    1N0N  00000600000000444000000606332DA    GBYIPLGB005400370024
BI00B32DA    SBT2203A       202202037283-5845                CONNECTOR HOUSING        CCN000006000000006000FN00000000020220301000006000NNM   20211229200538    1N0N  00000600000000444000000606332DA    GBYIPLGB005400370024
BI00B32DA    SBT2203        202201277287-9234                JOINT CONNECTOR          CCN000096000000096000FN00000000020220301000096000NNM   20211229200538    4N0N  00000960000000893800001184832DA    GBYIPLGB005500360039
BI00B32DA    SBT2203        202201277017-1180-02             TERMINAL                 CCN000144000000144000FN00000000020220301000144000NNM   20211229200538    4P0P  00007200000001065600001229032DA    GBYIPLGB005100280028
BI00B32DA    SBT2203A       202202037017-1180-02             TERMINAL                 CCN000072000000072000FN00000000020220301000072000NNM   20211229200538    4P0P  00007200000001065600001229032DA    GBYIPLGB005100280028
BI00B32DA    SBT2203        202201277114-4624-02             TERMINAL                 CCN000024000000024000FN00000000020220301000024000NNM   20211229200538    4P0P  00002400000000895200001188832DA    GBYIPLGB006400630015
BI00B32DA    SBT2203        202201277114-4728-02             TERMINAL                 CCN001020000001020000FN00000000020220301001020000NNM   20211229200538    4P0P  00003000000000510000000804232DA    GBYIPLGB006400630015
BI00B32DA    SBT2203A       202202037114-4728-02             TERMINAL                 CCN000300000000300000FN00000000020220301000300000NNM   20211229200538    4P0P  00003000000000510000000804232DA    GBYIPLGB006400630015
BI00B32DA    SBT2203        202201277114-4729-02             TERMINAL                 CCN000090000000090000FN00000000020220301000090000NNM   20211229200538    4P0P  00003000000000516000000810232DA    GBYIPLGB006400630015
BI00B32DA    SBT2203A       202202037114-4729-02             TERMINAL                 CCN000030000000030000FN00000000020220301000030000NNM   20211229200538    4P0P  00003000000000516000000810232DA    GBYIPLGB006400630015
BI00B32DA    SBT2203        202201277114-5746-02             TERMINAL                 CCN000126000000126000FN00000000020220301000126000NNM   20211229200538    4P0P  00002100000000695100000988732DA    GBYIPLGB006400630015
BI00B32DA    SBT2203A       202202037114-5746-02             TERMINAL                 CCN000021000000021000FN00000000020220301000021000NNM   20211229200538    4P0P  00002100000000695100000988732DA    GBYIPLGB006400630015
BI00B32DA    SBT2203        202201277114-5747-02             TERMINAL                 CCN000162000000162000FN00000000020220301000162000NNM   20211229200538    4P0P  00001800000000626400000920032DA    GBYIPLGB006400630015
BI00B32DA    SBT2203A       202202037114-5747-02             TERMINAL                 CCN000054000000054000FN00000000020220301000054000NNM   20211229200538    4P0P  00001800000000626400000920032DA    GBYIPLGB006400630015
BI00B32DA    SBT2203        202201277114-5748-02             TERMINAL                 CCN000180000000180000FN00000000020220301000180000NNM   20211229200538    4P0P  00001200000000444000000737632DA    GBYIPLGB006400630015
BI00B32DA    SBT2203A       202202037114-5748-02             TERMINAL                 CCN000048000000048000FN00000000020220301000048000NNM   20211229200538    4P0P  00001200000000444000000737632DA    GBYIPLGB006400630015
BI00B32DA    SBT2203        202201277114-5753-02             TERMINAL                 CCN000135000000135000FN00000000020220301000135000NNM   20211229200538    4P0P  00002700000000847800001141432DA    GBYIPLGB006400630015
BI00B32DA    SBT2203A       202202037114-5753-02             TERMINAL                 CCN000027000000027000FN00000000020220301000027000NNM   20211229200538    4P0P  00002700000000847800001141432DA    GBYIPLGB006400630015
BI00B32DA    SBT2203        202201277116-1257-02             TERMINAL                 CCN000048000000048000FN00000000020220301000048000NNM   20211229200538    1P0P  00002400000000518400000847132DA    GBYIPLGB006400630017
BI00B32DA    SBT2203A       202202037116-4231-02             TERMINAL                 CCN000026000000026000FN00000000020220301000026000NNM   20211229200538    4P0P  00002600000000683800001012532DA    GBYIPLGB006400630017
BI00B32DA    SBT2203        202201277116-4415-02             TERMINAL                 CCN000038000000038000FN00000000020220301000038000NNM   20211229200538    4P0P  00003800000000596600000925732DA    GBYIPLGB006400630017
BI00B32DA    SBT2203        202201277116-4486-02             TERMINAL                 CCN000308000000308000FN00000000020220301000308000NNM   20211229200538    4P0P  00002800000000666400000995132DA    GBYIPLGB006400630017
BI00B32DA    SBT2203A       202202037116-4486-02             TERMINAL                 CCN000112000000112000FN00000000020220301000112000NNM   20211229200538    4P0P  00002800000000666400000995132DA    GBYIPLGB006400630017
BI00B32DA    SBT2203        202201277116-5045-02             TERMINAL                 CCN000048000000048000FN00000000020220301000048000NNM   20211229200538    4P0P  00001600000000678400001007132DA    GBYIPLGB006400630017
BI00B32DA    SBT2203A       202202037116-5750-02             TERMINAL                 CCN000120000000120000FN00000000020220301000120000NNM   20211229200538    4P0P  00001500000000457500000742732DA    GBYIPLGB006400630015
