BI00A1200    #2399T51730    202112097289-4200-30             HOUSING FEMALE ASS'Y     PCN000088000000088000FN00000000020210901000088000NNM00020211207161530    2N0N  0000020000000092600000102101200    YCYC    005400370024
BI00B1200    7860T51A06     202112237289-3342                HOUSING FEMALE ASS'Y     CCN000002400000002400FN00000000020211201000002400NNMD0420211207162804    1N0N  0000024000000068640000090141200    YCYC    005500360039
BI00B1200    7360T51A03     202206267288-3337-30             HOUSING MALE             CCN000006000000001500FN00000000020211201000001500NNMD0420211207122100    4N0N  0000015000000086700000101201200    YCYC    005400370024
BI00B1200    8750T51B02     202201137289-3342                HOUSING FEMALE ASS'Y     CCN000002400000002400FN00000000020211201000002400NNMD0420211207162819    1N0N  0000024000000068640000090141200    YCYC    005500360039
BI00B1200    8750T51C01     202201277289-3342                HOUSING FEMALE ASS'Y     CCN000004800000004800FN00000000020220101000004800NNMD0420211207162836    1N0N  0000024000000068640000090141200    YCYC    005500360039
BI00T32AF    @JTB2021-I     202202077183-2510                HOUSING                  CCN000018000000018000FN00000000020220201000018000NNM   20211207155820    3F0F  00000300000001063500001159032AF    HBYHVTB 005400370024
BI00T32AF    @JTB2021-I     202202077183-3190                JOINT CONNECTOR          CCN000021600000021600FN00000000020220201000021600NNM   20211207155820    3F0F  00000360000000457600000667832AF    HBYHVTB 005500360039
BI00T32AF    @JTB2021-I     202202077183-7770-40             HOUSING                  CCN000018000000018000FN00000000020220201000018000NNM   20211207155820    3F0F  00000600000001011000001161032AF    HBYHVTB 005400370024
BI00T32AF    @JTB2021-I     202202077282-1060                HOUSING SUB ASSEMBLY     CCN000003200000003200FN00000000020220201000003200NNM   20211207155820    3N0N  00000160000000955500001169032AF    HBYHVTB 005500360039
BI00T32AF    @JTB2021-I     202202077283-5972                CONNECTOR FEMALE         CCN000009600000009600FN00000000020220201000009600NNM   20211207155820    3N0N  00000480000000550100000763032AF    HBYHVTB 005500360039
BI00T32AF    @JTB2021-I     202202077283-5976                CONNECTOR ASS'Y          CCN000004800000004800FN00000000020220201000004800NNM   20211207155820    3N0N  00000480000000840000001083632AF    HBYHVTB 005500360039
BI00T32AF    @JTB2021-I     202202077283-8179                CONNECTOR HOUSING        CCN000007200000007200FN00000000020220201000007200NNM   20211207155820    3N0N  00000240000000549600000804032AF    HBYHVTB 005500360039
BI00T32AF    @JTB2021-I     202202077287-6634                HOUSING FEMALE ASS'Y     CCN000007200000007200FN00000000020220201000007200NNM   20211207155820    3N0N  00000240000001088400001337032AF    HBYHVTB 005500360039
BI00B32BF    #TT2201AKMW    202112147154-8349-30             COVER                    CCN000000240000000240FN00000000020220101000000240NNED0420211207154217    2F0F  00000008000000561000000691032BF    TTTJYCD 005600390040
BI00B32BF    TT22031BMW     202201257283-4855                CONNECTOR HOUSING        CCN000004800000004800FN00000000020220301000004800NNMD0420211207122100    4N0N  00000240000001188400001400032BF    TTTJYCD 005500360039
BI00B32B1    A22008         202201217158-3168-80             SEALED                   CCN000020000000020000FN00000000020220401000020000NNM   20211207141749B1  1C0C  00002000000000044000000092132B1    AXARNE-M004300260014
BI00B32B1    A22008         202201217282-6448-40             CONNECTOR                CCN000003200000003200FN00000000020220401000003200NNM   20211207141749B1  4N0N  00000080000000887000001152732B1    AXARNE-M005600390040
BI00B32B1    #A22008        202201217158-3376-50             CONNECTOR WIRE SEAL      CCN000020000000020000FN00000000020220401000020000NNM   20211207141732B1  2C0C  00002000000000184000000240732B1    AXARNE-M002700430014
BI00B32B1    #A22008        202201217283-8226-30             CONNECTOR                CCN000010000000010000FN00000000020220401000010000NNM   20211207141732B1  2N0N  00000200000000820000001008032B1    AXARNE-M005400370024
BI00B32B6    A72008         202201217116-4037                TERMINAL                 CCN000006000000006000FN00000000020220401000006000NNM   20211207141906B6  4P0P  00000600000000600000000894232B6    AXARNE-M006400630015
BI00B32B6    A72008         202201217288-5000                HOUSING MALE ASS'Y       CCN000014448000014448FN00000000020220401000014448NNM   20211207141906B6  1N0N  00000033600000825200001035232B6    AXARNE-M005400370024
BI00B32B6    A72008         202201217289-5000                HOUSING FEMALE ASS'Y     CCN000013680000013680FN00000000020220401000013680NNM   20211207141906B6  1N0N  00000030400000549000000759032B6    AXARNE-M005400370024
BI00B32B6    A72008         202201217017-1183-02             TERMINAL                 CCN000027000000027000FN00000000020220401000027000NNM   20211207141906B6  4P0P  00002700000001139400001307432B6    AXARNE-M005100280028
BI00B32B6    A72008         202201217287-0192-40             SEALED HOUSING ASS'Y     CCN000000960000000960FN00000000020220401000000960NNM   20211207141906B6  4N0N  00000048000001092000001322032B6    AXARNE-M005600390040
BI00B32B7    A82008         202201217283-8599-30             CONNECTOR                CCN000001540000001540FN00000000020220401000001540NNM   20211207142010B7  4N0N  00000154000000947100001157032B7    AXARNE-M005600390023
BI00B32B7    #A82008        202201217158-3376-50             CONNECTOR WIRE SEAL      CCN000060000000060000FN00000000020220401000060000NNM   20211207141953B7  2C0C  00002000000000184000000240732B7    AXARNE-M002700430014
BI00B32B7    #A82008        202201217282-8395-40             CONNECTOR                CCN000006000000006000FN00000000020220401000006000NNM   20211207141953B7  2N0N  00000100000001009000001188032B7    AXARNE-M005500360039
BI00B32CC    CTA32021       202112167283-4855                CONNECTOR HOUSING        CCN000016800000016800FN00000000020211201000016800NNM00020211207122100    4N0N  00000240000001188400001400032CC    BIYABCBU005500360039
BI00B32CC    CTA32021       202112167289-3342                HOUSING FEMALE ASS'Y     CCN000016800000016800FN00000000020211201000016800NNMD0420211207122100    1N0N  00000240000000686400000901432CC    BIYABCBU005500360039
BI00B32CC    CTA32021       202112167289-3342-30             HOUSING FEMALE ASS'Y     CCN000031200000031200FN00000000020211201000031200NNMD0420211207122100    1N0N  00000240000000686400000901432CC    BIYABCBU005500360039
BI00B32CC    CTA32024       202112167283-4855                CONNECTOR HOUSING        CCN000012000000012000FN00000000020220101000012000NNMD0420211207122100    4N0N  00000240000001188400001400032CC    BIYABCBU005500360039
BI00B32CC    CTA32024       202112167289-3342                HOUSING FEMALE ASS'Y     CCN000007200000007200FN00000000020220101000007200NNMD0420211207122100    1N0N  00000240000000686400000901432CC    BIYABCBU005500360039
BI00B32CC    CTA32024       202112167289-3342-30             HOUSING FEMALE ASS'Y     CCN000021600000021600FN00000000020220101000021600NNMD0420211207122100    1N0N  00000240000000686400000901432CC    BIYABCBU005500360039
BI00B32CC    CTA32034       202112167283-4855                CONNECTOR HOUSING        CCN000019800000012000FN00000000020220301000012000NNED0420211207122100    4N0N  00000240000001188400001400032CC    BIYABCBU005500360039
BI00B32CH    SJ22012 MW     202112237158-3006-90             RUBBER STOPPER           CCN000480000000240000FN00000000020220101000240000NNMD0420211207134107    1C0C  00002000000000330600000386032CH    SJSAMIJF002700430014
BI00B32CH    SJ22021DMW     202201137287-3885-30             HYBRID FEMALE ASS'Y      CCN000024000000024000FN00000000020220201000024000NNMD0420211207122100    1N0N  00000240000001029600001249632CH    SJSAMIJF005500360039
BI00B32CH    SJ22022DMW     202201207287-3885-30             HYBRID FEMALE ASS'Y      CCN000028800000028800FN00000000020220201000028800NNMD0420211207122100    1N0N  00000240000001029600001249632CH    SJSAMIJF005500360039
BI00B32CH    SJ22023DMW     202201277287-3885-30             HYBRID FEMALE ASS'Y      CCN000028800000028800FN00000000020220201000028800NNMD0420211207122100    1N0N  00000240000001029600001249632CH    SJSAMIJF005500360039
BI00B32CH    SJ22024DMW     202202037287-3885-30             HYBRID FEMALE ASS'Y      CCN000026400000026400FN00000000020220201000026400NNMD0420211207122100    1N0N  00000240000001029600001249632CH    SJSAMIJF005500360039
BI00A32CH    SJ22012 MW     202112097158-3006-90             RUBBER STOPPER           PCN000240000000240000FN00000000020220101000240000NNMD0420211207134107    1C0C  00002000000000330600000386032CH    SJSAMIJF002700430014
BI00B32CJ    JQN2023        202202047289-6547                HOUSING FEMALE ASS'Y     CCN000002400000002400FN00000000020220201000002400NNMD0420211207122100    1N0N  00000240000001152000001362032CJ    QNYHVQN 005500360039
BI00B32CJ    JQN2024        202202117289-6547                HOUSING FEMALE ASS'Y     CCN000002400000002400FN00000000020220201000002400NNMD0420211207122100    1N0N  00000240000001152000001362032CJ    QNYHVQN 005500360039
BI00B32CJ    JQN2025        202202117289-6547                HOUSING FEMALE ASS'Y     CCN000002400000002400FN00000000020220201000002400NNMD0420211207122100    1N0N  00000240000001152000001362032CJ    QNYHVQN 005500360039
BI00T32CJ    @JQN2021-I     202202107183-2510                HOUSING                  CCN000003000000003000FN00000000020220201000003000NNM   20211207154555    3F0F  00000300000001063500001159032CJ    QNYHVQN 005400370024
BI00T32CJ    @JQN2021-I     202202107183-3190                JOINT CONNECTOR          CCN000093600000093600FN00000000020220201000093600NNM   20211207154555    3F0F  00000360000000457600000667832CJ    QNYHVQN 005500360039
BI00T32CJ    @JQN2021-I     202202107183-7770-40             HOUSING                  CCN000036000000036000FN00000000020220201000036000NNM   20211207154555    3F0F  00000600000001011000001161032CJ    QNYHVQN 005400370024
BI00T32CJ    @JQN2021-I     202202107282-1025                HOUSING SUB ASSEMBLY     CCN000009600000009600FN00000000020220201000009600NNM   20211207154555    3N0N  00000240000001143800001390032CJ    QNYHVQN 005500360039
BI00T32CJ    @JQN2021-I     202202107282-1040                HOUSING SUB ASSEMBLY     CCN000015000000016800FN00000000020220201000016800NNM   20211207154555    3N0N  00000240000001014400001256032CJ    QNYHVQN 005500360039
BI00T32CJ    @JQN2021-I     202202107283-1223-30             HOUSING SUB ASSEMBLY     CCN000024000000024000FN00000000020220201000024000NNM   20211207154555    3N0N  00000480000000749300000998032CJ    QNYHVQN 005500360039
BI00T32CJ    @JQN2021-I     202202107283-7443-30             HOUSING SUB ASSEMBLY     CCN000021600000021600FN00000000020220201000021600NNM   20211207154555    3N0N  00000240000000683700000908032CJ    QNYHVQN 005500360039
BI00T32CJ    @JQN2021-I     202202107287-6634                HOUSING FEMALE ASS'Y     CCN000014400000014400FN00000000020220201000014400NNM   20211207154555    3N0N  00000240000001088400001337032CJ    QNYHVQN 005500360039
BI00A32DE    TCT112B        202112107283-4855-40             CONNECTOR HOUSING        CCN000004800000004800FN00000000020220101000004800NNEM0020211207151028    4N0N  00000240000001188400001400032DE    TVYEV-TV005600360039
BI00B32DG    #RL2021        202201067116-4021                TERMINAL                 CCN000027000000027000FN00000000020210201000027000NNM   20211207122100    2F0P  00001350000000534600000868832DG    BFSAIBF 006400630015
BI00B32DG    #RL2022        202201137116-4021                TERMINAL                 CCN000027000000027000FN00000000020210201000027000NNM   20211207122100    2F0P  00001350000000534600000868832DG    BFSAIBF 006400630015
BI00B32DG    #RL2023        202201207116-4021                TERMINAL                 CCN000013500000013500FN00000000020210201000013500NNM   20211207122100    2F0P  00001350000000534600000868832DG    BFSAIBF 006400630015
BI00B32DG    #RL2021        202201067283-8123-40             CONNECTOR HOUSING        CCN000004000000004000FN00000000020210201000004000NNM   20211207122100    2N0N  00000400000000380000000530032DG    BFSAIBF 005600390023
BI00B32DG    #RL2022        202201137283-8123-40             CONNECTOR HOUSING        CCN000004000000004000FN00000000020210201000004000NNM   20211207122100    2N0N  00000400000000380000000530032DG    BFSAIBF 005600390023
BI00B32DG    #RL2023        202201207283-8123-40             CONNECTOR HOUSING        CCN000004000000004000FN00000000020210201000004000NNM   20211207122100    2N0N  00000400000000380000000530032DG    BFSAIBF 005600390023
BI00B32DG    #RL2021        202201067035-5731                GROMMET                  CCN000001000000001000FN00000000020210201000001000NNM   20211207122100    2H0H  00000050000000808000000918032DG    BFSAIBF 005600390040
BI00B32DG    #RL2022        202201137035-5731                GROMMET                  CCN000001000000001000FN00000000020210201000001000NNM   20211207122100    2H0H  00000050000000808000000918032DG    BFSAIBF 005600390040
BI00B32DG    #RL2023        202201207035-5731                GROMMET                  CCN000001000000001000FN00000000020210201000001000NNM   20211207122100    2H0H  00000050000000808000000918032DG    BFSAIBF 005600390040
BI00B32DG    #RL2024        202201277035-5731                GROMMET                  CCN000000500000000500FN00000000020210201000000500NNM   20211207122100    2H0H  00000050000000808000000918032DG    BFSAIBF 005600390040
BI00B32DG    #RL2021        202201067158-3004-40             RUBBER STOPPER           CCN000020000000020000FN00000000020210201000020000NNM   20211207122100    2C0C  00002000000000234000000306332DG    BFSAIBF 002700430014
BI00B32DG    #RL2022        202201137158-3004-40             RUBBER STOPPER           CCN000020000000020000FN00000000020210201000020000NNM   20211207122100    2C0C  00002000000000234000000306332DG    BFSAIBF 002700430014
BI00B32DG    #RL2023        202201207158-3004-40             RUBBER STOPPER           CCN000020000000020000FN00000000020210201000020000NNM   20211207122100    2C0C  00002000000000234000000306332DG    BFSAIBF 002700430014
BI00B32DG    #RL2021        202201067183-6320                HOUSING                  CCN000009600000009600FN00000000020210201000009600NNM   20211207122100    2F0F  00000480000000820800001103632DG    BFSAIBF 005500360039
BI00B32DG    #RL2022        202201137183-6320                HOUSING                  CCN000009600000009600FN00000000020210201000009600NNM   20211207122100    2F0F  00000480000000820800001103632DG    BFSAIBF 005500360039
BI00B32DG    #RL2023        202201207183-6320                HOUSING                  CCN000009600000009600FN00000000020210201000009600NNM   20211207122100    2F0F  00000480000000820800001103632DG    BFSAIBF 005500360039
BI00B32DG    #RL2021        202201067183-1615                HOUSING                  CCN000004800000004800FN00000000020210201000004800NNM   20211207122100    2F0F  00000480000000757000001042032DG    BFSAIBF 005500360039
BI00B32DG    #RL2022        202201137183-1615                HOUSING                  CCN000004800000004800FN00000000020210201000004800NNM   20211207122100    2F0F  00000480000000757000001042032DG    BFSAIBF 005500360039
BI00B32DG    #RL2023        202201207183-1615                HOUSING                  CCN000004800000004800FN00000000020210201000004800NNM   20211207122100    2F0F  00000480000000757000001042032DG    BFSAIBF 005500360039
BI00B32DG    #RL2021        202201067183-2415                CONNECTOR HOUSING        CCN000009600000009600FN00000000020210201000009600NNM   20211207122100    2F0F  00000480000000798200001091432DG    BFSAIBF 005500360039
BI00B32DG    #RL2022        202201137183-2415                CONNECTOR HOUSING        CCN000009600000009600FN00000000020210201000009600NNM   20211207122100    2F0F  00000480000000798200001091432DG    BFSAIBF 005500360039
BI00B32DG    #RL2023        202201207183-2415                CONNECTOR HOUSING        CCN000004800000004800FN00000000020210201000004800NNM   20211207122100    2F0F  00000480000000798200001091432DG    BFSAIBF 005500360039
BI00B32DG    #RL2021        202201067183-2413-30             CONNECTOR HOUSING        CCN000004800000004800FN00000000020210201000004800NNM   20211207122100    2F0F  00000480000000477600000759532DG    BFSAIBF 005500360039
BI00B32DG    #RL2022        202201137183-2413-30             CONNECTOR HOUSING        CCN000004800000004800FN00000000020210201000004800NNM   20211207122100    2F0F  00000480000000477600000759532DG    BFSAIBF 005500360039
BI00B32DG    #RL2021        202201067114-4022                TERMINAL                 CCN000030000000030000FN00000000020210201000030000NNM   20211207122100    2F0P  00001500000000708000001120632DG    BFSAIBF 006400630015
BI00B32DG    #RL2022        202201137114-4022                TERMINAL                 CCN000030000000030000FN00000000020210201000030000NNM   20211207122100    2F0P  00001500000000708000001120632DG    BFSAIBF 006400630015
BI00B32DG    #RL2023        202201207114-4022                TERMINAL                 CCN000030000000030000FN00000000020210201000030000NNM   20211207122100    2F0P  00001500000000708000001120632DG    BFSAIBF 006400630015
BI00B32DG    #RL2021        202201067158-3008-80             RUBBER STOPPER           CCN000080000000080000FN00000000020210201000080000NNM   20211207122100    2C0C  00002000000000288000000343032DG    BFSAIBF 004300270014
BI00B32DG    #RL2022        202201137158-3008-80             RUBBER STOPPER           CCN000080000000080000FN00000000020210201000080000NNM   20211207122100    2C0C  00002000000000288000000343032DG    BFSAIBF 004300270014
BI00B32DG    #RL2023        202201207158-3008-80             RUBBER STOPPER           CCN000060000000060000FN00000000020210201000060000NNM   20211207122100    2C0C  00002000000000288000000343032DG    BFSAIBF 004300270014
BI00B32DG    #RL2024        202201277158-3008-80             RUBBER STOPPER           CCN000060000000060000FN00000000020210201000060000NNM   20211207122100    2C0C  00002000000000288000000343032DG    BFSAIBF 004300270014
BI00B32DG    #RL2025        202202037158-3008-80             RUBBER STOPPER           CCN000020000000020000FN00000000020210201000020000NNM   20211207122100    2C0C  00002000000000288000000343032DG    BFSAIBF 004300270014
BI00B32DG    #RL2021        202201067158-3007-10             RUBBER STOPPER           CCN000060000000060000FN00000000020210201000060000NNM   20211207122100    2H0H  00002000000000308000000362732DG    BFSAIBF 002700430014
BI00B32DG    #RL2022        202201137158-3007-10             RUBBER STOPPER           CCN000060000000060000FN00000000020210201000060000NNM   20211207122100    2H0H  00002000000000308000000362732DG    BFSAIBF 002700430014
BI00B32DG    #RL2023        202201207158-3007-10             RUBBER STOPPER           CCN000060000000060000FN00000000020210201000060000NNM   20211207122100    2H0H  00002000000000308000000362732DG    BFSAIBF 002700430014
BI00B32DG    #RL2024        202201277158-3007-10             RUBBER STOPPER           CCN000040000000040000FN00000000020210201000040000NNM   20211207122100    2H0H  00002000000000308000000362732DG    BFSAIBF 002700430014
BI00B32DG    #RL2025        202202037158-3007-10             RUBBER STOPPER           CCN000020000000020000FN00000000020210201000020000NNM   20211207122100    2H0H  00002000000000308000000362732DG    BFSAIBF 002700430014
BI00B32DG    #RL2021        202201067282-5845                HOUSING MALE ASS'Y       CCN000004000000004000FN00000000020210201000004000NNM   20211207122100    2N0N  00000400000001068000001178032DG    BFSAIBF 005400370024
BI00B32DG    #RL2022        202201137282-5845                HOUSING MALE ASS'Y       CCN000004000000004000FN00000000020210201000004000NNM   20211207122100    2N0N  00000400000001068000001178032DG    BFSAIBF 005400370024
BI00B32DG    #RL2021        202201067282-5845-30             HOUSING MALE ASS'Y       CCN000004000000004000FN00000000020210201000004000NNM   20211207122100    2N0N  00000400000001068000001178032DG    BFSAIBF 005400370024
BI00B32DG    #RL2021        202201067282-1026                CONNECTOR HOUSING        CCN000004000000004000FN00000000020210201000004000NNM   20211207122100    2N0N  00000200000000696000000808532DG    BFSAIBF 005400370024
BI00B32DG    #RL2022        202201137282-1026                CONNECTOR HOUSING        CCN000004000000004000FN00000000020210201000004000NNM   20211207122100    2N0N  00000200000000696000000808532DG    BFSAIBF 005400370024
BI00B32DG    #RL2023        202201207282-1026                CONNECTOR HOUSING        CCN000004000000004000FN00000000020210201000004000NNM   20211207122100    2N0N  00000200000000696000000808532DG    BFSAIBF 005400370024
BI00B32DG    #RL2021        202201067158-3003-90             RUBBER STOPPER           CCN000020000000020000FN00000000020210201000020000NNM   20211207122100    2C0C  00002000000000250000000306032DG    BFSAIBF 002700430014
BI00B32DG    #RL2022        202201137158-3003-90             RUBBER STOPPER           CCN000020000000020000FN00000000020210201000020000NNM   20211207122100    2C0C  00002000000000250000000306032DG    BFSAIBF 002700430014
BI00B32DG    #RL2023        202201207158-3003-90             RUBBER STOPPER           CCN000020000000020000FN00000000020210201000020000NNM   20211207122100    2C0C  00002000000000250000000306032DG    BFSAIBF 002700430014
BI00B32DG    #RL2024        202201277158-3003-90             RUBBER STOPPER           CCN000020000000020000FN00000000020210201000020000NNM   20211207122100    2C0C  00002000000000250000000306032DG    BFSAIBF 002700430014
BI00B32DG    #RL2021        202201067282-3020                CONNECTOR                CCN000001000000001000FN00000000020210201000001000NNM   20211207122100    2N0N  00000100000000984000001145432DG    BFSAIBF 005500360039
BI00B32DG    #RL2022        202201137282-3020                CONNECTOR                CCN000001000000001000FN00000000020210201000001000NNM   20211207122100    2N0N  00000100000000984000001145432DG    BFSAIBF 005500360039
BI00B32DG    #RL2023        202201207282-3020                CONNECTOR                CCN000001000000001000FN00000000020210201000001000NNM   20211207122100    2N0N  00000100000000984000001145432DG    BFSAIBF 005500360039
BI00B32DG    #RL2024        202201277282-3020                CONNECTOR                CCN000001000000001000FN00000000020210201000001000NNM   20211207122100    2N0N  00000100000000984000001145432DG    BFSAIBF 005500360039
BI00B32DG    #RL2021        202201067158-3075-10             SEALED CONNECTOR         CCN000040000000040000FN00000000020210201000040000NNM   20211207122100    2C0C  00004000000000376000000429732DG    BFSAIBF 002700430014
BI00B32DG    #RL2021        202201067183-1616                CONNECTOR HOUSING        CCN000004800000004800FN00000000020210201000004800NNM   20211207122100    2F0F  00000240000000557500000823332DG    BFSAIBF 005500360039
BI00B32DG    #RL2022        202201137183-1616                CONNECTOR HOUSING        CCN000004800000004800FN00000000020210201000004800NNM   20211207122100    2F0F  00000240000000557500000823332DG    BFSAIBF 005500360039
BI00B32DG    #RL2023        202201207183-1616                CONNECTOR HOUSING        CCN000004800000004800FN00000000020210201000004800NNM   20211207122100    2F0F  00000240000000557500000823332DG    BFSAIBF 005500360039
BI00B32DG    #RL2024        202201277183-1616                CONNECTOR HOUSING        CCN000002400000002400FN00000000020210201000002400NNM   20211207122100    2F0F  00000240000000557500000823332DG    BFSAIBF 005500360039
BI00B32DG    RP2021         202201067017-1180-02             TERMINAL                 CCN000072000000072000FN00000000020220201000072000NNM   20211207122100    4P0P  00007200000001065600001229032DG    BFSAIBF 005100280028
BI00B32DG    RP2021         202201067017-1183-02             TERMINAL                 CCN000027000000027000FN00000000020220201000027000NNM   20211207122100    4P0P  00002700000001139400001307432DG    BFSAIBF 005100280028
BI00B32DG    RP2021         202201067114-4020                TERMINAL                 CCN000063000000063000FN00000000020220201000063000NNM   20211207122100    4P0P  00002100000000875700001169332DG    BFSAIBF 006400630015
BI00B32DG    RP2022         202201137114-4020                TERMINAL                 CCN000063000000063000FN00000000020220201000063000NNM   20211207122100    4P0P  00002100000000875700001169332DG    BFSAIBF 006400630015
BI00B32DG    RP2023         202201207114-4020                TERMINAL                 CCN000042000000042000FN00000000020220201000042000NNM   20211207122100    4P0P  00002100000000875700001169332DG    BFSAIBF 006400630015
BI00B32DG    RP2024         202201277114-4020                TERMINAL                 CCN000042000000042000FN00000000020220201000042000NNM   20211207122100    4P0P  00002100000000875700001169332DG    BFSAIBF 006400630015
BI00B32DG    RP2021         202201067114-4021                TERMINAL                 CCN000060000000060000FN00000000020220201000060000NNM   20211207122100    4P0P  00001500000000670500000964132DG    BFSAIBF 006400630015
BI00B32DG    RP2022         202201137114-4021                TERMINAL                 CCN000060000000060000FN00000000020220201000060000NNM   20211207122100    4P0P  00001500000000670500000964132DG    BFSAIBF 006400630015
BI00B32DG    RP2023         202201207114-4021                TERMINAL                 CCN000045000000045000FN00000000020220201000045000NNM   20211207122100    4P0P  00001500000000670500000964132DG    BFSAIBF 006400630015
BI00B32DG    RP2024         202201277114-4021                TERMINAL                 CCN000030000000030000FN00000000020220201000030000NNM   20211207122100    4P0P  00001500000000670500000964132DG    BFSAIBF 006400630015
BI00B32DG    RP2021         202201067114-4032                TERMINAL                 CCN000007500000007500FN00000000020220201000007500NNM   20211207122100    4P0P  00000750000000735000001063632DG    BFSAIBF 006400630017
BI00B32DG    RP2022         202201137114-4032                TERMINAL                 CCN000007500000007500FN00000000020220201000007500NNM   20211207122100    4P0P  00000750000000735000001063632DG    BFSAIBF 006400630017
BI00B32DG    RP2023         202201207114-4032                TERMINAL                 CCN000007500000007500FN00000000020220201000007500NNM   20211207122100    4P0P  00000750000000735000001063632DG    BFSAIBF 006400630017
BI00B32DG    RP2024         202201277114-4032                TERMINAL                 CCN000007500000007500FN00000000020220201000007500NNM   20211207122100    4P0P  00000750000000735000001063632DG    BFSAIBF 006400630017
BI00B32DG    RP2021         202201067114-4231-02             TERMINAL                 CCN000054000000054000FN00000000020220201000054000NNM   20211207122100    4P0P  00001800000000554400000848032DG    BFSAIBF 006400630015
BI00B32DG    RP2022         202201137114-4231-02             TERMINAL                 CCN000054000000054000FN00000000020220201000054000NNM   20211207122100    4P0P  00001800000000554400000848032DG    BFSAIBF 006400630015
BI00B32DG    RP2023         202201207114-4231-02             TERMINAL                 CCN000054000000054000FN00000000020220201000054000NNM   20211207122100    4P0P  00001800000000554400000848032DG    BFSAIBF 006400630015
BI00B32DG    RP2024         202201277114-4231-02             TERMINAL                 CCN000036000000036000FN00000000020220201000036000NNM   20211207122100    4P0P  00001800000000554400000848032DG    BFSAIBF 006400630015
BI00B32DG    RP2021         202201067114-4486-02             TERMINAL                 CCN000024000000024000FN00000000020220201000024000NNM   20211207122100    4P0P  00002400000000662400000956032DG    BFSAIBF 006400630015
BI00B32DG    RP2022         202201137114-4486-02             TERMINAL                 CCN000024000000024000FN00000000020220201000024000NNM   20211207122100    4P0P  00002400000000662400000956032DG    BFSAIBF 006400630015
BI00B32DG    RP2021         202201067114-4624-02             TERMINAL                 CCN000024000000024000FN00000000020220201000024000NNM   20211207122100    4P0P  00002400000000895200001188832DG    BFSAIBF 006400630015
BI00B32DG    RP2022         202201137114-4624-02             TERMINAL                 CCN000024000000024000FN00000000020220201000024000NNM   20211207122100    4P0P  00002400000000895200001188832DG    BFSAIBF 006400630015
BI00B32DG    RP2023         202201207114-4624-02             TERMINAL                 CCN000024000000024000FN00000000020220201000024000NNM   20211207122100    4P0P  00002400000000895200001188832DG    BFSAIBF 006400630015
BI00B32DG    RP2024         202201277114-4624-02             TERMINAL                 CCN000024000000024000FN00000000020220201000024000NNM   20211207122100    4P0P  00002400000000895200001188832DG    BFSAIBF 006400630015
BI00B32DG    RP2021         202201067114-4728-02             TERMINAL                 CCN000360000000360000FN00000000020220201000360000NNM   20211207122100    4P0P  00003000000000510000000804232DG    BFSAIBF 006400630015
BI00B32DG    RP2022         202201137114-4728-02             TERMINAL                 CCN000360000000360000FN00000000020220201000360000NNM   20211207122100    4P0P  00003000000000510000000804232DG    BFSAIBF 006400630015
BI00B32DG    RP2023         202201207114-4728-02             TERMINAL                 CCN000300000000300000FN00000000020220201000300000NNM   20211207122100    4P0P  00003000000000510000000804232DG    BFSAIBF 006400630015
BI00B32DG    RP2024         202201277114-4728-02             TERMINAL                 CCN000240000000240000FN00000000020220201000240000NNM   20211207122100    4P0P  00003000000000510000000804232DG    BFSAIBF 006400630015
BI00B32DG    RP2025         202202037114-4728-02             TERMINAL                 CCN000150000000150000FN00000000020220201000150000NNM   20211207122100    4P0P  00003000000000510000000804232DG    BFSAIBF 006400630015
BI00B32DG    RP2021         202201067114-4729-02             TERMINAL                 CCN000060000000060000FN00000000020220201000060000NNM   20211207122100    4P0P  00003000000000516000000810232DG    BFSAIBF 006400630015
BI00B32DG    RP2022         202201137114-4729-02             TERMINAL                 CCN000060000000060000FN00000000020220201000060000NNM   20211207122100    4P0P  00003000000000516000000810232DG    BFSAIBF 006400630015
BI00B32DG    RP2023         202201207114-4729-02             TERMINAL                 CCN000060000000060000FN00000000020220201000060000NNM   20211207122100    4P0P  00003000000000516000000810232DG    BFSAIBF 006400630015
BI00B32DG    RP2024         202201277114-4729-02             TERMINAL                 CCN000030000000030000FN00000000020220201000030000NNM   20211207122100    4P0P  00003000000000516000000810232DG    BFSAIBF 006400630015
BI00B32DG    RP2021         202201067114-5746-02             TERMINAL                 CCN000084000000084000FN00000000020220201000084000NNM   20211207122100    4P0P  00002100000000695100000988732DG    BFSAIBF 006400630015
BI00B32DG    RP2022         202201137114-5746-02             TERMINAL                 CCN000084000000084000FN00000000020220201000084000NNM   20211207122100    4P0P  00002100000000695100000988732DG    BFSAIBF 006400630015
BI00B32DG    RP2023         202201207114-5746-02             TERMINAL                 CCN000063000000063000FN00000000020220201000063000NNM   20211207122100    4P0P  00002100000000695100000988732DG    BFSAIBF 006400630015
BI00B32DG    RP2024         202201277114-5746-02             TERMINAL                 CCN000063000000063000FN00000000020220201000063000NNM   20211207122100    4P0P  00002100000000695100000988732DG    BFSAIBF 006400630015
BI00B32DG    RP2021         202201067114-5747-02             TERMINAL                 CCN000126000000126000FN00000000020220201000126000NNM   20211207122100    4P0P  00001800000000626400000920032DG    BFSAIBF 006400630015
BI00B32DG    RP2022         202201137114-5747-02             TERMINAL                 CCN000126000000126000FN00000000020220201000126000NNM   20211207122100    4P0P  00001800000000626400000920032DG    BFSAIBF 006400630015
BI00B32DG    RP2023         202201207114-5747-02             TERMINAL                 CCN000108000000108000FN00000000020220201000108000NNM   20211207122100    4P0P  00001800000000626400000920032DG    BFSAIBF 006400630015
BI00B32DG    RP2024         202201277114-5747-02             TERMINAL                 CCN000090000000090000FN00000000020220201000090000NNM   20211207122100    4P0P  00001800000000626400000920032DG    BFSAIBF 006400630015
BI00B32DG    RP2025         202202037114-5747-02             TERMINAL                 CCN000036000000036000FN00000000020220201000036000NNM   20211207122100    4P0P  00001800000000626400000920032DG    BFSAIBF 006400630015
BI00B32DG    RP2021         202201067114-5748-02             TERMINAL                 CCN000036000000036000FN00000000020220201000036000NNM   20211207122100    4P0P  00001200000000444000000737632DG    BFSAIBF 006400630015
BI00B32DG    RP2022         202201137114-5748-02             TERMINAL                 CCN000036000000036000FN00000000020220201000036000NNM   20211207122100    4P0P  00001200000000444000000737632DG    BFSAIBF 006400630015
BI00B32DG    RP2023         202201207114-5748-02             TERMINAL                 CCN000024000000024000FN00000000020220201000024000NNM   20211207122100    4P0P  00001200000000444000000737632DG    BFSAIBF 006400630015
BI00B32DG    RP2024         202201277114-5748-02             TERMINAL                 CCN000024000000024000FN00000000020220201000024000NNM   20211207122100    4P0P  00001200000000444000000737632DG    BFSAIBF 006400630015
BI00B32DG    RP2021         202201067114-5753-02             TERMINAL                 CCN000108000000108000FN00000000020220201000108000NNM   20211207122100    4P0P  00002700000000847800001141432DG    BFSAIBF 006400630015
BI00B32DG    RP2022         202201137114-5753-02             TERMINAL                 CCN000108000000108000FN00000000020220201000108000NNM   20211207122100    4P0P  00002700000000847800001141432DG    BFSAIBF 006400630015
BI00B32DG    RP2023         202201207114-5753-02             TERMINAL                 CCN000081000000081000FN00000000020220201000081000NNM   20211207122100    4P0P  00002700000000847800001141432DG    BFSAIBF 006400630015
BI00B32DG    RP2024         202201277114-5753-02             TERMINAL                 CCN000054000000054000FN00000000020220201000054000NNM   20211207122100    4P0P  00002700000000847800001141432DG    BFSAIBF 006400630015
BI00B32DG    RP2021         202201067116-4026                TERMINAL                 CCN000016000000016000FN00000000020220201000016000NNM   20211207122100    4P0P  00001600000000664000000994332DG    BFSAIBF 006400630017
BI00B32DG    RP2021         202201067116-4032                TERMINAL                 CCN000012000000012000FN00000000020220201000012000NNM   20211207122100    4P0P  00000600000000532800000818032DG    BFSAIBF 006400630015
BI00B32DG    RP2022         202201137116-4032                TERMINAL                 CCN000012000000012000FN00000000020220201000012000NNM   20211207122100    4P0P  00000600000000532800000818032DG    BFSAIBF 006400630015
BI00B32DG    RP2023         202201207116-4032                TERMINAL                 CCN000012000000012000FN00000000020220201000012000NNM   20211207122100    4P0P  00000600000000532800000818032DG    BFSAIBF 006400630015
BI00B32DG    RP2024         202201277116-4032                TERMINAL                 CCN000012000000012000FN00000000020220201000012000NNM   20211207122100    4P0P  00000600000000532800000818032DG    BFSAIBF 006400630015
BI00B32DG    RP2021         202201067116-4231-02             TERMINAL                 CCN000104000000104000FN00000000020220201000104000NNM   20211207122100    4P0P  00002600000000683800001012532DG    BFSAIBF 006400630017
BI00B32DG    RP2022         202201137116-4231-02             TERMINAL                 CCN000104000000104000FN00000000020220201000104000NNM   20211207122100    4P0P  00002600000000683800001012532DG    BFSAIBF 006400630017
BI00B32DG    RP2023         202201207116-4231-02             TERMINAL                 CCN000078000000078000FN00000000020220201000078000NNM   20211207122100    4P0P  00002600000000683800001012532DG    BFSAIBF 006400630017
BI00B32DG    RP2024         202201277116-4231-02             TERMINAL                 CCN000078000000078000FN00000000020220201000078000NNM   20211207122100    4P0P  00002600000000683800001012532DG    BFSAIBF 006400630017
BI00B32DG    RP2025         202202037116-4231-02             TERMINAL                 CCN000026000000026000FN00000000020220201000026000NNM   20211207122100    4P0P  00002600000000683800001012532DG    BFSAIBF 006400630017
BI00B32DG    RP2021         202201067116-4486-02             TERMINAL                 CCN000336000000336000FN00000000020220201000336000NNM   20211207122100    4P0P  00002800000000666400000995132DG    BFSAIBF 006400630017
BI00B32DG    RP2022         202201137116-4486-02             TERMINAL                 CCN000336000000336000FN00000000020220201000336000NNM   20211207122100    4P0P  00002800000000666400000995132DG    BFSAIBF 006400630017
BI00B32DG    RP2023         202201207116-4486-02             TERMINAL                 CCN000280000000280000FN00000000020220201000280000NNM   20211207122100    4P0P  00002800000000666400000995132DG    BFSAIBF 006400630017
BI00B32DG    RP2024         202201277116-4486-02             TERMINAL                 CCN000196000000196000FN00000000020220201000196000NNM   20211207122100    4P0P  00002800000000666400000995132DG    BFSAIBF 006400630017
BI00B32DG    RP2025         202202037116-4486-02             TERMINAL                 CCN000140000000140000FN00000000020220201000140000NNM   20211207122100    4P0P  00002800000000666400000995132DG    BFSAIBF 006400630017
BI00B32DG    RP2021         202201067116-5035-02             TERMINAL                 CCN000075000000075000FN00000000020220201000075000NNM   20211207122100    4P0P  00001500000000543000000828232DG    BFSAIBF 006400630015
BI00B32DG    RP2022         202201137116-5035-02             TERMINAL                 CCN000075000000075000FN00000000020220201000075000NNM   20211207122100    4P0P  00001500000000543000000828232DG    BFSAIBF 006400630015
BI00B32DG    RP2023         202201207116-5035-02             TERMINAL                 CCN000060000000060000FN00000000020220201000060000NNM   20211207122100    4P0P  00001500000000543000000828232DG    BFSAIBF 006400630015
BI00B32DG    RP2024         202201277116-5035-02             TERMINAL                 CCN000045000000045000FN00000000020220201000045000NNM   20211207122100    4P0P  00001500000000543000000828232DG    BFSAIBF 006400630015
BI00B32DG    RP2025         202202037116-5035-02             TERMINAL                 CCN000015000000015000FN00000000020220201000015000NNM   20211207122100    4P0P  00001500000000543000000828232DG    BFSAIBF 006400630015
BI00B32DG    RP2021         202201067116-5036-02             TERMINAL                 CCN000013500000013500FN00000000020220201000013500NNM   20211207122100    4P0P  00001350000000618300001042232DG    BFSAIBF 006400630015
BI00B32DG    RP2021         202201067116-5041-02             TERMINAL                 CCN000015000000015000FN00000000020220201000015000NNM   20211207122100    4P0P  00001500000000583500000868732DG    BFSAIBF 006400630015
BI00B32DG    RP2022         202201137116-5041-02             TERMINAL                 CCN000015000000015000FN00000000020220201000015000NNM   20211207122100    4P0P  00001500000000583500000868732DG    BFSAIBF 006400630015
BI00B32DG    RP2023         202201207116-5041-02             TERMINAL                 CCN000015000000015000FN00000000020220201000015000NNM   20211207122100    4P0P  00001500000000583500000868732DG    BFSAIBF 006400630015
BI00B32DG    RP2021         202201067116-5042-02             TERMINAL                 CCN000175500000175500FN00000000020220201000175500NNM   20211207122100    4P0P  00001350000000560300000845532DG    BFSAIBF 006400630015
BI00B32DG    RP2022         202201137116-5042-02             TERMINAL                 CCN000175500000175500FN00000000020220201000175500NNM   20211207122100    4P0P  00001350000000560300000845532DG    BFSAIBF 006400630015
BI00B32DG    RP2023         202201207116-5042-02             TERMINAL                 CCN000148500000148500FN00000000020220201000148500NNM   20211207122100    4P0P  00001350000000560300000845532DG    BFSAIBF 006400630015
BI00B32DG    RP2024         202201277116-5042-02             TERMINAL                 CCN000108000000108000FN00000000020220201000108000NNM   20211207122100    4P0P  00001350000000560300000845532DG    BFSAIBF 006400630015
BI00B32DG    RP2025         202202037116-5042-02             TERMINAL                 CCN000094500000094500FN00000000020220201000094500NNM   20211207122100    4P0P  00001350000000560300000845532DG    BFSAIBF 006400630015
BI00B32DG    RP2021         202201067116-5044-02             TERMINAL                 CCN000160000000160000FN00000000020220201000160000NNM   20211207122100    4P0P  00001600000000641600000986332DG    BFSAIBF 006400630017
BI00B32DG    RP2022         202201137116-5044-02             TERMINAL                 CCN000160000000160000FN00000000020220201000160000NNM   20211207122100    4P0P  00001600000000641600000986332DG    BFSAIBF 006400630017
BI00B32DG    RP2023         202201207116-5044-02             TERMINAL                 CCN000128000000128000FN00000000020220201000128000NNM   20211207122100    4P0P  00001600000000641600000986332DG    BFSAIBF 006400630017
BI00B32DG    RP2024         202201277116-5044-02             TERMINAL                 CCN000096000000096000FN00000000020220201000096000NNM   20211207122100    4P0P  00001600000000641600000986332DG    BFSAIBF 006400630017
BI00B32DG    RP2025         202202037116-5044-02             TERMINAL                 CCN000080000000080000FN00000000020220201000080000NNM   20211207122100    4P0P  00001600000000641600000986332DG    BFSAIBF 006400630017
BI00B32DG    RP2021         202201067116-5045-02             TERMINAL                 CCN000080000000080000FN00000000020220201000080000NNM   20211207122100    4P0P  00001600000000678400001007132DG    BFSAIBF 006400630017
BI00B32DG    RP2022         202201137116-5045-02             TERMINAL                 CCN000080000000080000FN00000000020220201000080000NNM   20211207122100    4P0P  00001600000000678400001007132DG    BFSAIBF 006400630017
BI00B32DG    RP2023         202201207116-5045-02             TERMINAL                 CCN000064000000064000FN00000000020220201000064000NNM   20211207122100    4P0P  00001600000000678400001007132DG    BFSAIBF 006400630017
BI00B32DG    RP2024         202201277116-5045-02             TERMINAL                 CCN000048000000048000FN00000000020220201000048000NNM   20211207122100    4P0P  00001600000000678400001007132DG    BFSAIBF 006400630017
BI00B32DG    RP2025         202202037116-5045-02             TERMINAL                 CCN000048000000048000FN00000000020220201000048000NNM   20211207122100    4P0P  00001600000000678400001007132DG    BFSAIBF 006400630017
BI00B32DG    RP2021         202201067116-5046-02             TERMINAL                 CCN000036000000036000FN00000000020220201000036000NNM   20211207122100    4P0P  00001200000000544800000873532DG    BFSAIBF 006400630017
BI00B32DG    RP2022         202201137116-5046-02             TERMINAL                 CCN000036000000036000FN00000000020220201000036000NNM   20211207122100    4P0P  00001200000000544800000873532DG    BFSAIBF 006400630017
BI00B32DG    RP2023         202201207116-5046-02             TERMINAL                 CCN000036000000036000FN00000000020220201000036000NNM   20211207122100    4P0P  00001200000000544800000873532DG    BFSAIBF 006400630017
BI00B32DG    RP2024         202201277116-5046-02             TERMINAL                 CCN000024000000024000FN00000000020220201000024000NNM   20211207122100    4P0P  00001200000000544800000873532DG    BFSAIBF 006400630017
BI00B32DG    RP2021         202201067158-3006-90             RUBBER STOPPER           CCN000080000000080000FN00000000020220201000080000NNM   20211207122100    1C0C  00002000000000330600000386032DG    BFSAIBF 002700430014
BI00B32DG    RP2022         202201137158-3006-90             RUBBER STOPPER           CCN000080000000080000FN00000000020220201000080000NNM   20211207122100    1C0C  00002000000000330600000386032DG    BFSAIBF 002700430014
BI00B32DG    RP2023         202201207158-3006-90             RUBBER STOPPER           CCN000080000000080000FN00000000020220201000080000NNM   20211207122100    1C0C  00002000000000330600000386032DG    BFSAIBF 002700430014
BI00B32DG    RP2024         202201277158-3006-90             RUBBER STOPPER           CCN000060000000060000FN00000000020220201000060000NNM   20211207122100    1C0C  00002000000000330600000386032DG    BFSAIBF 002700430014
BI00B32DG    RP2025         202202037158-3006-90             RUBBER STOPPER           CCN000020000000020000FN00000000020220201000020000NNM   20211207122100    1C0C  00002000000000330600000386032DG    BFSAIBF 002700430014
BI00B32DG    RP2021         202201067114-4728-08             TERMINAL                 CCN000030000000030000FN00000000020220201000030000NNM   20211207122100    4P0P  00003000000000507000000801232DG    BFSAIBF 006400630015
BI00B32DG    RP2021         202201067116-5750-02             TERMINAL                 CCN000090000000090000FN00000000020220201000090000NNM   20211207122100    4P0P  00001500000000457500000742732DG    BFSAIBF 006400630015
BI00B32DG    RP2022         202201137116-5750-02             TERMINAL                 CCN000090000000090000FN00000000020220201000090000NNM   20211207122100    4P0P  00001500000000457500000742732DG    BFSAIBF 006400630015
BI00B32DG    RP2023         202201207116-5750-02             TERMINAL                 CCN000075000000075000FN00000000020220201000075000NNM   20211207122100    4P0P  00001500000000457500000742732DG    BFSAIBF 006400630015
BI00B32DG    RP2024         202201277116-5750-02             TERMINAL                 CCN000060000000060000FN00000000020220201000060000NNM   20211207122100    4P0P  00001500000000457500000742732DG    BFSAIBF 006400630015
BI00B32DG    RP2025         202202037116-5750-02             TERMINAL                 CCN000030000000030000FN00000000020220201000030000NNM   20211207122100    4P0P  00001500000000457500000742732DG    BFSAIBF 006400630015
BI00B32DG    RP2021         202201067116-5751-02             TERMINAL                 CCN000036000000036000FN00000000020220201000036000NNM   20211207122100    4P0P  00001200000000379200000664432DG    BFSAIBF 006400630015
BI00B32DG    RP2022         202201137116-5751-02             TERMINAL                 CCN000036000000036000FN00000000020220201000036000NNM   20211207122100    4P0P  00001200000000379200000664432DG    BFSAIBF 006400630015
BI00B32DG    RP2023         202201207116-5751-02             TERMINAL                 CCN000024000000024000FN00000000020220201000024000NNM   20211207122100    4P0P  00001200000000379200000664432DG    BFSAIBF 006400630015
BI00B32DG    RP2024         202201277116-5751-02             TERMINAL                 CCN000012000000012000FN00000000020220201000012000NNM   20211207122100    4P0P  00001200000000379200000664432DG    BFSAIBF 006400630015
BI00B32DG    RP2021         202201067283-1156                CONNECTOR                CCN000000800000000800FN00000000020220201000000800NNM   20211207122100    4N0N  00000080000000877600001078032DG    BFSAIBF 005600390040
BI00B32DG    RP2022         202201137283-1156                CONNECTOR                CCN000000800000000800FN00000000020220201000000800NNM   20211207122100    4N0N  00000080000000877600001078032DG    BFSAIBF 005600390040
BI00B32DG    RP2023         202201207283-1156                CONNECTOR                CCN000000800000000800FN00000000020220201000000800NNM   20211207122100    4N0N  00000080000000877600001078032DG    BFSAIBF 005600390040
BI00B32DG    RP2024         202201277283-1156                CONNECTOR                CCN000000800000000800FN00000000020220201000000800NNM   20211207122100    4N0N  00000080000000877600001078032DG    BFSAIBF 005600390040
BI00B32DG    RP2021         202201067287-9234                JOINT CONNECTOR          CCN000019200000019200FN00000000020220201000019200NNM   20211207122100    4N0N  00000960000000893800001184832DG    BFSAIBF 005500360039
BI00B32DG    RP2022         202201137287-9234                JOINT CONNECTOR          CCN000019200000019200FN00000000020220201000019200NNM   20211207122100    4N0N  00000960000000893800001184832DG    BFSAIBF 005500360039
BI00B32DG    RP2023         202201207287-9234                JOINT CONNECTOR          CCN000019200000019200FN00000000020220201000019200NNM   20211207122100    4N0N  00000960000000893800001184832DG    BFSAIBF 005500360039
BI00B32DG    RP2024         202201277287-9234                JOINT CONNECTOR          CCN000009600000009600FN00000000020220201000009600NNM   20211207122100    4N0N  00000960000000893800001184832DG    BFSAIBF 005500360039
BI00B32DG    RP2021         202201067114-5096-02             TERMINAL                 CCN000030000000030000FN00000000020220201000030000NNM   20211207122100    4P0P  00003000000000498000000792232DG    BFSAIBF 006400630015
BI00B32DG    RP2021         202201067288-3329-30             HOUSING MALE             CCN000003000000003000FN00000000020220201000003000NNM   20211207122100    4N0N  00000150000000866100001011132DG    BFSAIBF 005400370024
BI00B32DG    RP2022         202201137288-3329-30             HOUSING MALE             CCN000003000000003000FN00000000020220201000003000NNM   20211207122100    4N0N  00000150000000866100001011132DG    BFSAIBF 005400370024
BI00B32DG    RP2023         202201207288-3329-30             HOUSING MALE             CCN000003000000003000FN00000000020220201000003000NNM   20211207122100    4N0N  00000150000000866100001011132DG    BFSAIBF 005400370024
BI00B32DG    RP2024         202201277288-3329-30             HOUSING MALE             CCN000003000000003000FN00000000020220201000003000NNM   20211207122100    4N0N  00000150000000866100001011132DG    BFSAIBF 005400370024
BI00B32DG    RP2021         202201067289-3342-30             HOUSING FEMALE ASS'Y     CCN000009600000009600FN00000000020220201000009600NNM   20211207122100    1N0N  00000240000000686400000901432DG    BFSAIBF 005500360039
BI00B32DG    RP2022         202201137289-3342-30             HOUSING FEMALE ASS'Y     CCN000009600000009600FN00000000020220201000009600NNM   20211207122100    1N0N  00000240000000686400000901432DG    BFSAIBF 005500360039
BI00B32DG    RP2023         202201207289-3342-30             HOUSING FEMALE ASS'Y     CCN000009600000009600FN00000000020220201000009600NNM   20211207122100    1N0N  00000240000000686400000901432DG    BFSAIBF 005500360039
BI00B32DG    RP2024         202201277289-3342-30             HOUSING FEMALE ASS'Y     CCN000007200000007200FN00000000020220201000007200NNM   20211207122100    1N0N  00000240000000686400000901432DG    BFSAIBF 005500360039
BI00B32DG    RP2025         202202037289-3342-30             HOUSING FEMALE ASS'Y     CCN000002400000002400FN00000000020220201000002400NNM   20211207122100    1N0N  00000240000000686400000901432DG    BFSAIBF 005500360039
BI00B32DG    RP2021         202201067158-3009-60             RUBBER STOPPER           CCN000060000000060000FN00000000020220201000060000NNM   20211207122100    1C0C  00002000000000338000000386232DG    BFSAIBF 002700430014
BI00B32DG    RP2022         202201137158-3009-60             RUBBER STOPPER           CCN000060000000060000FN00000000020220201000060000NNM   20211207122100    1C0C  00002000000000338000000386232DG    BFSAIBF 002700430014
BI00B32DG    RP2023         202201207158-3009-60             RUBBER STOPPER           CCN000060000000060000FN00000000020220201000060000NNM   20211207122100    1C0C  00002000000000338000000386232DG    BFSAIBF 002700430014
BI00B32DG    RP2024         202201277158-3009-60             RUBBER STOPPER           CCN000040000000040000FN00000000020220201000040000NNM   20211207122100    1C0C  00002000000000338000000386232DG    BFSAIBF 002700430014
BI00B32DG    RP2021         202201067283-4576                HOUSING FEMALE ASS'Y     CCN000004800000004800FN00000000020220201000004800NNM   20211207122100    4N0N  00000480000000651300000871332DG    BFSAIBF 005500360039
BI00B32DG    RP2022         202201137283-4576                HOUSING FEMALE ASS'Y     CCN000004800000004800FN00000000020220201000004800NNM   20211207122100    4N0N  00000480000000651300000871332DG    BFSAIBF 005500360039
BI00B32DG    RP2021         202201067116-4415-02             TERMINAL                 CCN000152000000152000FN00000000020220201000152000NNM   20211207122100    4P0P  00003800000000596600000925732DG    BFSAIBF 006400630017
BI00B32DG    RP2022         202201137116-4415-02             TERMINAL                 CCN000152000000152000FN00000000020220201000152000NNM   20211207122100    4P0P  00003800000000596600000925732DG    BFSAIBF 006400630017
BI00B32DG    RP2023         202201207116-4415-02             TERMINAL                 CCN000114000000114000FN00000000020220201000114000NNM   20211207122100    4P0P  00003800000000596600000925732DG    BFSAIBF 006400630017
BI00B32DG    RP2024         202201277116-4415-02             TERMINAL                 CCN000114000000114000FN00000000020220201000114000NNM   20211207122100    4P0P  00003800000000596600000925732DG    BFSAIBF 006400630017
BI00B32DG    RP2025         202202037116-4415-02             TERMINAL                 CCN000038000000038000FN00000000020220201000038000NNM   20211207122100    4P0P  00003800000000596600000925732DG    BFSAIBF 006400630017
BI00B32DG    RP2021         202201067282-4576                HOUSING MALE ASS'Y       CCN000002400000002400FN00000000020220201000002400NNM   20211207122100    4N0N  00000240000000808800001028832DG    BFSAIBF 005500360039
BI00B32DG    RP2021         202201067283-5845-40             CONNECTOR HOUSING        CCN000006000000006000FN00000000020220201000006000NNM   20211207122100    1N0N  00000600000000444000000606332DG    BFSAIBF 005400370024
BI00B32DG    RP2021         202201067288-3339-30             HOUSING MALE             CCN000001500000001500FN00000000020220201000001500NNM   20211207122100    4N0N  00000150000000867000001012032DG    BFSAIBF 005400370024
BI00B32DG    RP2022         202201137288-3339-30             HOUSING MALE             CCN000001500000001500FN00000000020220201000001500NNM   20211207122100    4N0N  00000150000000867000001012032DG    BFSAIBF 005400370024
BI00B32DG    RP2021         202201067116-3154-08             TERMINAL                 CCN000054000000054000FN00000000020220201000054000NNM   20211207122100    4P0P  00002700000000475200000760432DG    BFSAIBF 006400630015
BI00B32DG    RP2022         202201137116-3154-08             TERMINAL                 CCN000054000000054000FN00000000020220201000054000NNM   20211207122100    4P0P  00002700000000475200000760432DG    BFSAIBF 006400630015
BI00B32DG    RP2023         202201207116-3154-08             TERMINAL                 CCN000054000000054000FN00000000020220201000054000NNM   20211207122100    4P0P  00002700000000475200000760432DG    BFSAIBF 006400630015
BI00B32DG    RP2021         202201067116-5752-02             TERMINAL                 CCN000021000000021000FN00000000020220201000021000NNM   20211207122100    4P0P  00002100000000571200000856432DG    BFSAIBF 006400630015
BI00B32DG    RP2022         202201137116-5752-02             TERMINAL                 CCN000021000000021000FN00000000020220201000021000NNM   20211207122100    4P0P  00002100000000571200000856432DG    BFSAIBF 006400630015
BI00B32DG    RP2021         202201067286-1915                CONNECTOR SUB ASSY       CCN000001600000001600FN00000000020220201000001600NNM   20211207122100    4N0N  00000160000000965600001165632DG    BFSAIBF 005500360039
BI00B32DG    RP2021         202201067158-3070-80             RUBBER STOPPER           CCN000120000000120000FN00000000020220201000120000NNM   20211207122100    1C0C  00004000000000276000000333332DG    BFSAIBF 002700430014
BI00B32DG    RP2022         202201137158-3070-80             RUBBER STOPPER           CCN000120000000120000FN00000000020220201000120000NNM   20211207122100    1C0C  00004000000000276000000333332DG    BFSAIBF 002700430014
BI00B32DG    RP2023         202201207158-3070-80             RUBBER STOPPER           CCN000080000000080000FN00000000020220201000080000NNM   20211207122100    1C0C  00004000000000276000000333332DG    BFSAIBF 002700430014
BI00B32DG    RP2024         202201277158-3070-80             RUBBER STOPPER           CCN000040000000040000FN00000000020220201000040000NNM   20211207122100    1C0C  00004000000000276000000333332DG    BFSAIBF 002700430014
BI00B32DG    RP2021         202201067287-1917                CONNECTOR FEMALE         CCN000004800000004800FN00000000020220201000004800NNM   20211207122100    4N0N  00000240000001060800001312532DG    BFSAIBF 005500360039
BI00B32DG    RP2022         202201137287-1917                CONNECTOR FEMALE         CCN000004800000004800FN00000000020220201000004800NNM   20211207122100    4N0N  00000240000001060800001312532DG    BFSAIBF 005500360039
BI00B32DG    RP2023         202201207287-1917                CONNECTOR FEMALE         CCN000004800000004800FN00000000020220201000004800NNM   20211207122100    4N0N  00000240000001060800001312532DG    BFSAIBF 005500360039
BI00B32DG    RP2021         202201067116-5043-02             TERMINAL FEMALE          CCN000048000000048000FN00000000020220201000048000NNM   20211207122100    4P0P  00001200000000559200000844432DG    BFSAIBF 006400630015
BI00B32DG    RP2022         202201137116-5043-02             TERMINAL FEMALE          CCN000048000000048000FN00000000020220201000048000NNM   20211207122100    4P0P  00001200000000559200000844432DG    BFSAIBF 006400630015
BI00B32DG    RP2023         202201207116-5043-02             TERMINAL FEMALE          CCN000036000000036000FN00000000020220201000036000NNM   20211207122100    4P0P  00001200000000559200000844432DG    BFSAIBF 006400630015
BI00B32DG    RP2024         202201277116-5043-02             TERMINAL FEMALE          CCN000036000000036000FN00000000020220201000036000NNM   20211207122100    4P0P  00001200000000559200000844432DG    BFSAIBF 006400630015
BI00B32DG    RP2021         202201067116-3153-02             TERMINAL FEMALE          CCN000513000000513000FN00000000020220201000513000NNM   20211207122100    4P0P  00002700000000459000000744232DG    BFSAIBF 006400630015
BI00B32DG    RP2022         202201137116-3153-02             TERMINAL FEMALE          CCN000513000000513000FN00000000020220201000513000NNM   20211207122100    4P0P  00002700000000459000000744232DG    BFSAIBF 006400630015
BI00B32DG    RP2023         202201207116-3153-02             TERMINAL FEMALE          CCN000405000000405000FN00000000020220201000405000NNM   20211207122100    4P0P  00002700000000459000000744232DG    BFSAIBF 006400630015
BI00B32DG    RP2024         202201277116-3153-02             TERMINAL FEMALE          CCN000324000000324000FN00000000020220201000324000NNM   20211207122100    4P0P  00002700000000459000000744232DG    BFSAIBF 006400630015
BI00B32DG    RP2025         202202037116-3153-02             TERMINAL FEMALE          CCN000243000000243000FN00000000020220201000243000NNM   20211207122100    4P0P  00002700000000459000000744232DG    BFSAIBF 006400630015
BI00B32DG    RP2021         202201067116-3154-02             TERMINAL FEMALE          CCN000270000000270000FN00000000020220201000270000NNM   20211207122100    4P0P  00002700000000469800000755032DG    BFSAIBF 006400630015
BI00B32DG    RP2022         202201137116-3154-02             TERMINAL FEMALE          CCN000270000000270000FN00000000020220201000270000NNM   20211207122100    4P0P  00002700000000469800000755032DG    BFSAIBF 006400630015
BI00B32DG    RP2023         202201207116-3154-02             TERMINAL FEMALE          CCN000216000000216000FN00000000020220201000216000NNM   20211207122100    4P0P  00002700000000469800000755032DG    BFSAIBF 006400630015
BI00B32DG    RP2024         202201277116-3154-02             TERMINAL FEMALE          CCN000162000000162000FN00000000020220201000162000NNM   20211207122100    4P0P  00002700000000469800000755032DG    BFSAIBF 006400630015
BI00B32DG    RP2025         202202037116-3154-02             TERMINAL FEMALE          CCN000135000000135000FN00000000020220201000135000NNM   20211207122100    4P0P  00002700000000469800000755032DG    BFSAIBF 006400630015
BI00B32DG    RP2021         202201067116-4416-02             TERMINAL                 CCN000064000000064000FN00000000020220201000064000NNM   20211207122100    4P0P  00003200000000518400000847132DG    BFSAIBF 006400630017
BI00B32DG    RP2022         202201137116-4416-02             TERMINAL                 CCN000064000000064000FN00000000020220201000064000NNM   20211207122100    4P0P  00003200000000518400000847132DG    BFSAIBF 006400630017
BI00B32DG    RP2023         202201207116-4416-02             TERMINAL                 CCN000032000000032000FN00000000020220201000032000NNM   20211207122100    4P0P  00003200000000518400000847132DG    BFSAIBF 006400630017
BI00B32DG    RP2021         202201067114-6041                TERMINAL                 CCN000007200000007200FN00000000020220201000007200NNM   20211207122100    4P0P  00000360000000580700000824232DG    BFSAIBF 006400630015
BI00B32DG    RP2022         202201137114-6041                TERMINAL                 CCN000007200000007200FN00000000020220201000007200NNM   20211207122100    4P0P  00000360000000580700000824232DG    BFSAIBF 006400630015
BI00B32DG    RP2023         202201207114-6041                TERMINAL                 CCN000003600000003600FN00000000020220201000003600NNM   20211207122100    4P0P  00000360000000580700000824232DG    BFSAIBF 006400630015
BI00B32DG    RP2021         202201067286-4097                CONNECTOR MALE ASS'Y     CCN000001600000001600FN00000000020220201000001600NNM   20211207122100    1N0N  00000160000000768000000978032DG    BFSAIBF 005500360039
BI00B32DG    RP2022         202201137286-4097                CONNECTOR MALE ASS'Y     CCN000001600000001600FN00000000020220201000001600NNM   20211207122100    1N0N  00000160000000768000000978032DG    BFSAIBF 005500360039
BI00B32DG    RP2021         202201067288-3340-30             HOUSING MALE             CCN000006000000006000FN00000000020220201000006000NNM   20211207122100    4N0N  00000150000000861500001006432DG    BFSAIBF 005400370024
BI00B32DG    RP2022         202201137288-3340-30             HOUSING MALE             CCN000006000000006000FN00000000020220201000006000NNM   20211207122100    4N0N  00000150000000861500001006432DG    BFSAIBF 005400370024
BI00B32DG    RP2023         202201207288-3340-30             HOUSING MALE             CCN000004500000004500FN00000000020220201000004500NNM   20211207122100    4N0N  00000150000000861500001006432DG    BFSAIBF 005400370024
BI00B32DG    RP2024         202201277288-3340-30             HOUSING MALE             CCN000004500000004500FN00000000020220201000004500NNM   20211207122100    4N0N  00000150000000861500001006432DG    BFSAIBF 005400370024
BI00B32DG    RP2021         202201067283-1289                CONNECTOR HOUSING        CCN000007200000007200FN00000000020220201000007200NNM   20211207122100    1N0N  00000060000000676200000817632DG    BFSAIBF 005400370024
BI00B32DG    RP2022         202201137283-1289                CONNECTOR HOUSING        CCN000007200000007200FN00000000020220201000007200NNM   20211207122100    1N0N  00000060000000676200000817632DG    BFSAIBF 005400370024
BI00B32DG    RP2023         202201207283-1289                CONNECTOR HOUSING        CCN000005400000005400FN00000000020220201000005400NNM   20211207122100    1N0N  00000060000000676200000817632DG    BFSAIBF 005400370024
BI00B32DG    RP2024         202201277283-1289                CONNECTOR HOUSING        CCN000004200000004200FN00000000020220201000004200NNM   20211207122100    1N0N  00000060000000676200000817632DG    BFSAIBF 005400370024
BI00B32DG    RP2025         202202037283-1289                CONNECTOR HOUSING        CCN000003000000003000FN00000000020220201000003000NNM   20211207122100    1N0N  00000060000000676200000817632DG    BFSAIBF 005400370024
BI00B32DG    RP2021         202201067116-2640                TERMINAL                 CCN000018000000018000FN00000000020220201000018000NNM   20211207122100    4P0P  00001800000001018800001196632DG    BFSAIBF 005100280028
BI00B32DG    RP2021         202201067116-2641                TERMINAL                 CCN000018000000018000FN00000000020220201000018000NNM   20211207122100    4P0P  00001800000001161000001344632DG    BFSAIBF 005100280028
BI00B32DG    RP2021         202201067116-4114-02             TERMINAL                 CCN000010500000010500FN00000000020220201000010500NNM   20211207122100    4P0P  00001050000000693000000981232DG    BFSAIBF 006400630015
BI00B32DG    RP2022         202201137116-4114-02             TERMINAL                 CCN000010500000010500FN00000000020220201000010500NNM   20211207122100    4P0P  00001050000000693000000981232DG    BFSAIBF 006400630015
BI00B32DG    RP2023         202201207116-4114-02             TERMINAL                 CCN000010500000010500FN00000000020220201000010500NNM   20211207122100    4P0P  00001050000000693000000981232DG    BFSAIBF 006400630015
BI00B32DG    RP2021         202201067116-4115-02             TERMINAL                 CCN000008400000008400FN00000000020220201000008400NNM   20211207122100    4P0P  00000840000000593000000881232DG    BFSAIBF 006400630015
BI00B32DG    RP2022         202201137116-4115-02             TERMINAL                 CCN000008400000008400FN00000000020220201000008400NNM   20211207122100    4P0P  00000840000000593000000881232DG    BFSAIBF 006400630015
BI00B32DG    RP2021         202201067116-4116-02             TERMINAL                 CCN000006900000006900FN00000000020220201000006900NNM   20211207122100    4P0P  00000690000000517500000805732DG    BFSAIBF 006400630015
BI00B32DG    RP2021         202201067126-8853-02             TERMINAL                 CCN000007500000007500FN00000000020220201000007500NNM   20211207122100    4P0P  00000750000000562500000847732DG    BFSAIBF 006400630015
BI00B32DG    RP2022         202201137126-8853-02             TERMINAL                 CCN000007500000007500FN00000000020220201000007500NNM   20211207122100    4P0P  00000750000000562500000847732DG    BFSAIBF 006400630015
BI00B32DG    RP2023         202201207126-8853-02             TERMINAL                 CCN000007500000007500FN00000000020220201000007500NNM   20211207122100    4P0P  00000750000000562500000847732DG    BFSAIBF 006400630015
BI00B32DG    RP2024         202201277126-8853-02             TERMINAL                 CCN000007500000007500FN00000000020220201000007500NNM   20211207122100    4P0P  00000750000000562500000847732DG    BFSAIBF 006400630015
BI00B32DG    RP2021         202201067126-8854-02             TERMINAL                 CCN000007500000007500FN00000000020220201000007500NNM   20211207122100    4P0P  00000750000000604500000889732DG    BFSAIBF 006400630015
BI00B32DG    RP2022         202201137126-8854-02             TERMINAL                 CCN000007500000007500FN00000000020220201000007500NNM   20211207122100    4P0P  00000750000000604500000889732DG    BFSAIBF 006400630015
BI00B32DG    RP2023         202201207126-8854-02             TERMINAL                 CCN000007500000007500FN00000000020220201000007500NNM   20211207122100    4P0P  00000750000000604500000889732DG    BFSAIBF 006400630015
BI00B32DG    RP2021         202201067126-8855-02             TERMINAL                 CCN000006000000006000FN00000000020220201000006000NNM   20211207122100    4P0P  00000600000000510600000795832DG    BFSAIBF 006400630015
BI00B32DG    RP2022         202201137126-8855-02             TERMINAL                 CCN000006000000006000FN00000000020220201000006000NNM   20211207122100    4P0P  00000600000000510600000795832DG    BFSAIBF 006400630015
BI00B32DG    RP2021         202201067288-3337-30             HOUSING MALE             CCN000001500000001500FN00000000020220201000001500NNM   20211207122100    4N0N  00000150000000867000001012032DG    BFSAIBF 005400370024
BI00B32DG    #RP2021        202201067172-5632-10             DUMMY PLUG               CCN000060000000060000FN00000000020220201000060000NNM   20211207122100    2H0H  00002000000000080400000131832DG    BFSAIBF 004300270014
BI00B32DG    #RP2022        202201137172-5632-10             DUMMY PLUG               CCN000060000000060000FN00000000020220201000060000NNM   20211207122100    2H0H  00002000000000080400000131832DG    BFSAIBF 004300270014
BI00B32DG    #RP2023        202201207172-5632-10             DUMMY PLUG               CCN000040000000040000FN00000000020220201000040000NNM   20211207122100    2H0H  00002000000000080400000131832DG    BFSAIBF 004300270014
BI00B32DG    #RP2024        202201277172-5632-10             DUMMY PLUG               CCN000020000000020000FN00000000020220201000020000NNM   20211207122100    2H0H  00002000000000080400000131832DG    BFSAIBF 004300270014
BI00B32DG    #RP2021        202201067183-2418                CONNECTOR HOUSING        CCN000004800000004800FN00000000020220201000004800NNM   20211207122100    2F0F  00000480000000917000001477032DG    BFSAIBF 005500360039
BI00B32DG    #RP2022        202201137183-2418                CONNECTOR HOUSING        CCN000004800000004800FN00000000020220201000004800NNM   20211207122100    2F0F  00000480000000917000001477032DG    BFSAIBF 005500360039
BI00B32DG    @RP2021        202201067283-1556                CONNECTOR ASS'Y          CCN000043200000043200FN00000000020220201000043200NNM   20211207122100    3N0N  00000240000000755000001014032DG    BFSAIBF 005500360039
BI00B32DG    @RP2022        202201137283-1556                CONNECTOR ASS'Y          CCN000043200000043200FN00000000020220201000043200NNM   20211207122100    3N0N  00000240000000755000001014032DG    BFSAIBF 005500360039
BI00B32DG    @RP2023        202201207283-1556                CONNECTOR ASS'Y          CCN000033600000033600FN00000000020220201000033600NNM   20211207122100    3N0N  00000240000000755000001014032DG    BFSAIBF 005500360039
BI00B32DG    @RP2024        202201277283-1556                CONNECTOR ASS'Y          CCN000026400000026400FN00000000020220201000026400NNM   20211207122100    3N0N  00000240000000755000001014032DG    BFSAIBF 005500360039
BI00B32DG    @RP2025        202202037283-1556                CONNECTOR ASS'Y          CCN000021600000021600FN00000000020220201000021600NNM   20211207122100    3N0N  00000240000000755000001014032DG    BFSAIBF 005500360039
BI00B32DG    @RP2021        202201067282-1040                HOUSING SUB ASSEMBLY     CCN000004800000004800FN00000000020220201000004800NNM   20211207122100    3N0N  00000240000001014400001256032DG    BFSAIBF 005500360039
BI00B32DG    @RP2022        202201137282-1040                HOUSING SUB ASSEMBLY     CCN000004800000004800FN00000000020220201000004800NNM   20211207122100    3N0N  00000240000001014400001256032DG    BFSAIBF 005500360039
BI00B32DG    @RP2023        202201207282-1040                HOUSING SUB ASSEMBLY     CCN000004800000004800FN00000000020220201000004800NNM   20211207122100    3N0N  00000240000001014400001256032DG    BFSAIBF 005500360039
BI00B32DG    @RP2021        202201067282-1025                HOUSING SUB ASSEMBLY     CCN000004800000004800FN00000000020220201000004800NNM   20211207122100    3N0N  00000240000001143800001390032DG    BFSAIBF 005500360039
BI00B32DG    @RP2022        202201137282-1025                HOUSING SUB ASSEMBLY     CCN000004800000004800FN00000000020220201000004800NNM   20211207122100    3N0N  00000240000001143800001390032DG    BFSAIBF 005500360039
BI00B32DG    @RP2023        202201207282-1025                HOUSING SUB ASSEMBLY     CCN000002400000002400FN00000000020220201000002400NNM   20211207122100    3N0N  00000240000001143800001390032DG    BFSAIBF 005500360039
BI00B32DG    @RP2021        202201067287-6634                HOUSING FEMALE ASS'Y     CCN000002400000002400FN00000000020220201000002400NNM   20211207122100    3N0N  00000240000001088400001337032DG    BFSAIBF 005500360039
BI00B32DG    @RP2021        202201067183-8049-30             CONNECTOR HOUSING        CCN000004000000004000FN00000000020220201000004000NNM   20211207122100    3F0F  00000400000000588800000714432DG    BFSAIBF 005400370024
BI00B32DG    @RP2021        202201067183-8049                CONNECTOR HOUSING        CCN000004000000004000FN00000000020220201000004000NNM   20211207122100    3F0F  00000400000000583600000740032DG    BFSAIBF 005400370024
BI00A32DJ    GHT2201B 1     202112087116-5751-02             TERMINAL                 CCN000048000000048000FN00000000020220101000048000NNM00020211207155553    4P0P  00001200000000379200000664432DJ    RBYIPLRB006400630015
BI00B32D1    DFTC2209       202203177288-6547                CONNECTOR MALE ASS'Y     CCN000006750000006750FN00000000020220301000006750NNMD0420211207122100    4N0N  00000075000001205300001340332D1    TOYOT-K 005400370024
BI00B32D1    DFTC2209       202202107289-3342                HOUSING FEMALE ASS'Y     CCN000021600000021600FN00000000020220301000021600NNMD0420211207122100    1N0N  00000240000000686400000901432D1    TOYOT-K 005500360039
BI00B32D1    DFTC2209       202203317289-3342-30             HOUSING FEMALE ASS'Y     CCN000060000000060000FN00000000020220301000060000NNMD0420211207122100    1N0N  00000240000000686400000901432D1    TOYOT-K 005500360039
BI00B32D1    DFTC2209       202203247289-3342-40             HOUSING FEMALE ASS'Y     CCN000004800000004800FN00000000020220301000004800NNMD0420211207122100    1N0N  00000240000000686400000901432D1    TOYOT-K 005500360039
BI00B32D1    DFTC2209       202203107289-3342-90             HOUSING FEMALE ASS'Y     CCN000004800000004800FN00000000020220301000004800NNMD0420211207122100    1N0N  00000240000000686400000901432D1    TOYOT-K 005500360039
BI00B32D1    #DFTC2209      202202247172-5629-80             RUBBER STOPPER           CCN000140000000140000FN00000000020220301000140000NNMD0420211207122100    2H0H  00002000000000060000000111132D1    TOYOT-K 004300270014
BI00B32D2    DGTC2209       202202107289-6547                HOUSING FEMALE ASS'Y     CCN000012000000012000FN00000000020220301000012000NNMD0420211207122100    1N0N  00000240000001152000001362032D2    TGYOT-G 005500360039
BI00B32D9    I20702         202202177289-3342-30             HOUSING FEMALE ASS'Y     CCN000007200000007200FN00000000020220201000007200NNMD0420211207122100    1N0N  00000240000000686400000901432D9    UEHESTO 005500360039
BI00B32D9    I20902         202202177289-3342-30             HOUSING FEMALE ASS'Y     CCN000007200000007200FN00000000020220201000007200NNMD0420211207122100    1N0N  00000240000000686400000901432D9    UEHESTO 005500360039
BI00B32EJ    4500185247     202201067158-3169-40             SEALING PLUG             CCN000320000000320000FN00000000020220101000320000NNE   20211207122100EJ  1C0C  00004000000000156000000204132EJ    EJYKBO  004300260014
BI00B32EJ    #4500185247    202201067157-7812                SEAL RUBBER              CCN000060000000060000FN00000000020220101000060000NNE   20211207122100EJ  2C0C  00001000000000137000000202032EJ    EJYKBO  002700430014
BI00B32EJ    #4500185247    202201067158-3120-90             CONNECTOR WIRE SEAL      CCN000060000000060000FN00000000020220101000060000NNE   20211207122100EJ  2C0C  00002000000000136000000194032EJ    EJYKBO  002700430014
BI00B32EJ    4500185249     202201067158-3167-80             WIRE SEAL                CCN000060000000060000FN00000000020220101000060000NNE   20211207122100EJ  1C0C  00002000000000048000000109032EJ    EJYKBO  002700430014
BI00A32E1    NC112E         202112167254-1884-30             PRIMARY PDB BASE         CCN000000072000000072FN00000000020211201000000072NNED0720211207144115    4N0N  00000003600001160000001390732E1    SPYSE   005600390040
BI00A32E1    NC112E         202112167283-6568-40             CONNECTOR                CCN000002000000002000FN00000000020211201000002000NNED0720211207144115    4N0N  00000200000001090000001263032E1    SPYSE   005500360039
BI00A32E1    #NC112E        202112167154-3486-30             TOP COVER                CCN000002000000002000FN00000000020211201000002000NNED0720211207144030    2F0F  00000200000000260000000429632E1    SPYSE   005500360039
BI00A32E2    NY112A         202112167116-5045-02             TERMINAL                 CCN000016000000016000FN00000000020211201000016000NNED0720211207144213    4P0P  00001600000000678400001007132E2    SPYSE   006400630017
BI00B32G0    TZ21122EMW     202111097283-4855                CONNECTOR HOUSING        CCN000014400000014400FN00000720020211201000007200NNM00020211207154047    4N0N  00000240000001188400001400032G0    TTTJY   005500360039
BI00A32G0    TZ22012EMW     202112247288-6547                CONNECTOR MALE ASS'Y     PCN000015000000015000FN00000000020220101000015000NNM00020211207155014    4N0N  00000075000001205300001340332G0    TTTJY   005400370024
BI00B32G0    TZ22011EMW     202112097289-6547                HOUSING FEMALE ASS'Y     CCN000016800000016800FN00000000020220101000016800NNM00020211207154105    1N0N  00000240000001152000001362032G0    TTTJY   005500360039
BI00B32G0    #TZ22011EMW    202111097158-3007-10             RUBBER STOPPER           CCN000140000000140000FN00000000020220101000140000NNM00020211207153713    2H0H  00002000000000308000000362732G0    TTTJY   002700430014
BI00A32G0    #TZ22011EMW    202112207172-5630-40             RUBBER STOPPER           PCN000440000000440000FN00000000020220101000440000NNM00020211207155120    2H0H  00002000000000044000000095132G0    TTTJY   004300270014
BI00A32G0    #TZ22012EMW    202112137172-5630-40             RUBBER STOPPER           PCN000400000000400000FN00000000020220101000400000NNMD0020211207154933    2H0H  00002000000000044000000095132G0    TTTJY   004300270014
BI00B32G2    SA22021JMW     202201127289-3342-90             HOUSING FEMALE ASS'Y     CCN000004800000004800FN00000000020220201000004800NNMD0420211207122100    1N0N  00000240000000686400000901432G2    AISUAI  005500360039
BI00B32G2    SA22022JMW     202201197289-3342-90             HOUSING FEMALE ASS'Y     CCN000002400000002400FN00000000020220201000002400NNMD0420211207122100    1N0N  00000240000000686400000901432G2    AISUAI  005500360039
BI00B32G2    SA22023JMW     202201267289-3342-90             HOUSING FEMALE ASS'Y     CCN000002400000002400FN00000000020220201000002400NNMD0420211207122100    1N0N  00000240000000686400000901432G2    AISUAI  005500360039
BI00B32G2    SA22024JMW     202202027289-3342-90             HOUSING FEMALE ASS'Y     CCN000002400000002400FN00000000020220201000002400NNMD0420211207122100    1N0N  00000240000000686400000901432G2    AISUAI  005500360039
BI00B32G2    SA22021 MW     202201127283-4577                CONNECTOR HOUSING        CCN000033600000033600FN00000000020220201000033600NNMD0420211207122100    4N0N  00000480000000916800001136832G2    AISUAI  005500360039
BI00B32G2    SA22022 MW     202201197283-4577                CONNECTOR HOUSING        CCN000024000000024000FN00000000020220201000024000NNMD0420211207122100    4N0N  00000480000000916800001136832G2    AISUAI  005500360039
BI00B32G2    SA22023 MW     202201267283-4577                CONNECTOR HOUSING        CCN000014400000014400FN00000000020220201000014400NNMD0420211207122100    4N0N  00000480000000916800001136832G2    AISUAI  005500360039
BI00B32G2    SA22024 MW     202202027283-4577                CONNECTOR HOUSING        CCN000009600000009600FN00000000020220201000009600NNMD0420211207122100    4N0N  00000480000000916800001136832G2    AISUAI  005500360039
BI00B32G2    SA22021 MW     202201127283-4855                CONNECTOR HOUSING        CCN000012000000012000FN00000000020220201000012000NNMD0420211207122100    4N0N  00000240000001188400001400032G2    AISUAI  005500360039
BI00B32G2    SA22022 MW     202201197283-4855                CONNECTOR HOUSING        CCN000007200000007200FN00000000020220201000007200NNMD0420211207122100    4N0N  00000240000001188400001400032G2    AISUAI  005500360039
BI00B32G2    SA22023 MW     202201267283-4855                CONNECTOR HOUSING        CCN000007200000007200FN00000000020220201000007200NNMD0420211207122100    4N0N  00000240000001188400001400032G2    AISUAI  005500360039
BI00B32G2    SA22024 MW     202202027283-4855                CONNECTOR HOUSING        CCN000004800000004800FN00000000020220201000004800NNMD0420211207122100    4N0N  00000240000001188400001400032G2    AISUAI  005500360039
BI00B32G2    SA22021 MW     202202027287-1917                CONNECTOR FEMALE         CCN000019200000009600FN00000000020220201000009600NNMD0420211207122100    4N0N  00000240000001060800001312532G2    AISUAI  005500360039
BI00B32G2    SA22022 MW     202202157287-1917                CONNECTOR FEMALE         CCN000014400000014400FN00000000020220201000014400NNMD0420211207122100    4N0N  00000240000001060800001312532G2    AISUAI  005500360039
BI00B32G2    SA22023 MW     202202157287-1917                CONNECTOR FEMALE         CCN000012000000012000FN00000000020220201000012000NNMD0420211207122100    4N0N  00000240000001060800001312532G2    AISUAI  005500360039
BI00B32G2    SA22024 MW     202202237287-1917                CONNECTOR FEMALE         CCN000007200000007200FN00000000020220201000007200NNMD0420211207122100    4N0N  00000240000001060800001312532G2    AISUAI  005500360039
BI00B32G2    SA22021 MW     202201127289-3342                HOUSING FEMALE ASS'Y     CCN000014400000014400FN00000000020220201000014400NNMD0420211207122100    1N0N  00000240000000686400000901432G2    AISUAI  005500360039
BI00B32G2    SA22022 MW     202201197289-3342                HOUSING FEMALE ASS'Y     CCN000009600000009600FN00000000020220201000009600NNMD0420211207122100    1N0N  00000240000000686400000901432G2    AISUAI  005500360039
BI00B32G2    SA22023 MW     202201267289-3342                HOUSING FEMALE ASS'Y     CCN000009600000009600FN00000000020220201000009600NNMD0420211207122100    1N0N  00000240000000686400000901432G2    AISUAI  005500360039
BI00B32G2    SA22024 MW     202202027289-3342                HOUSING FEMALE ASS'Y     CCN000004800000004800FN00000000020220201000004800NNMD0420211207122100    1N0N  00000240000000686400000901432G2    AISUAI  005500360039
BI00B32G2    SA22021 MW     202201127289-3342-30             HOUSING FEMALE ASS'Y     CCN000048000000048000FN00000000020220201000048000NNMD0420211207122100    1N0N  00000240000000686400000901432G2    AISUAI  005500360039
BI00B32G2    SA22022 MW     202201197289-3342-30             HOUSING FEMALE ASS'Y     CCN000043200000043200FN00000000020220201000043200NNMD0420211207122100    1N0N  00000240000000686400000901432G2    AISUAI  005500360039
BI00B32G2    SA22023 MW     202201267289-3342-30             HOUSING FEMALE ASS'Y     CCN000040800000040800FN00000000020220201000040800NNMD0420211207122100    1N0N  00000240000000686400000901432G2    AISUAI  005500360039
BI00B32G2    SA22024 MW     202202027289-3342-30             HOUSING FEMALE ASS'Y     CCN000031200000031200FN00000000020220201000031200NNMD0420211207122100    1N0N  00000240000000686400000901432G2    AISUAI  005500360039
BI00B32G2    SA22021 MW     202201127289-3342-40             HOUSING FEMALE ASS'Y     CCN000004800000004800FN00000000020220201000004800NNMD0420211207122100    1N0N  00000240000000686400000901432G2    AISUAI  005500360039
BI00B32G2    SA22022 MW     202201197289-3342-40             HOUSING FEMALE ASS'Y     CCN000004800000004800FN00000000020220201000004800NNMD0420211207122100    1N0N  00000240000000686400000901432G2    AISUAI  005500360039
BI00B32G2    SA22023 MW     202201267289-3342-40             HOUSING FEMALE ASS'Y     CCN000004800000004800FN00000000020220201000004800NNMD0420211207122100    1N0N  00000240000000686400000901432G2    AISUAI  005500360039
BI00B32G2    SA22024 MW     202202027289-3342-40             HOUSING FEMALE ASS'Y     CCN000002400000002400FN00000000020220201000002400NNMD0420211207122100    1N0N  00000240000000686400000901432G2    AISUAI  005500360039
BI00B32G2    SA22021 MW     202202097287-1917                CONNECTOR FEMALE         CCN000009600000009600FN00000000020220201000009600NNMD0420211207122100    4N0N  00000240000001060800001312532G2    AISUAI  005500360039
BI00B32H0    TT2202AVMW     202201187288-6547                CONNECTOR MALE ASS'Y     CCN000000750000000750FN00000000020220201000000750NNED0420211207122100    4N0N  00000075000001205300001340332H0    TTTJY   005400370024
BI00B32H0    TT22031VMW     202201257288-6547                CONNECTOR MALE ASS'Y     CCN000001500000001500FN00000000020220301000001500NNMD0420211207122100    4N0N  00000075000001205300001340332H0    TTTJY   005400370024
BI00B32H0    #TT22031VMW    202202087172-5629-80             RUBBER STOPPER           CCN000120000000120000FN00000000020220301000120000NNMD0420211207122100    2H0H  00002000000000060000000111132H0    TTTJY   004300270014
BI00B32H0    #TT22032VMW    202202157172-5629-80             RUBBER STOPPER           CCN000220000000220000FN00000000020220301000220000NNMD0420211207122100    2H0H  00002000000000060000000111132H0    TTTJY   004300270014
BI00B32H0    #TT22033VMW    202202157172-5629-80             RUBBER STOPPER           CCN000220000000220000FN00000000020220301000220000NNMD0420211207122100    2H0H  00002000000000060000000111132H0    TTTJY   004300270014
BI00B32H0    #TT22034VMW    202202157172-5629-80             RUBBER STOPPER           CCN000100000000100000FN00000000020220301000100000NNMD0420211207122100    2H0H  00002000000000060000000111132H0    TTTJY   004300270014
BI00A32H2    TIJ1124        202112087288-6547                CONNECTOR MALE ASS'Y     PCN000006750000003000FN00000000020211201000003000NNM00020211207160434    4N0N  00000075000001205300001340332H2    HVYHV   005400370024
BI00A32H2    TIJ1124        202112087289-3342-30             HOUSING FEMALE ASS'Y     PCN000108000000055200FN00000000020211201000055200NNM00020211207160500    1N0N  00000240000000686400000901432H2    HVYHV   005500360039
BI00A32H2    #TIJ1123       202112207172-5629-80             RUBBER STOPPER           PCN000140000000140000FN00000000020211201000140000NNMM0020211207160649    2H0H  00002000000000060000000111132H2    HVYHV   004300270014
BI00A32H2    #TIJ1123       202112207172-5630-40             RUBBER STOPPER           PCN000100000000100000FN00000000020211201000100000NNMM0020211207160649    2H0H  00002000000000044000000095132H2    HVYHV   004300270014
BI00A32H2    TIJ1124        202112137289-3342-30             HOUSING FEMALE ASS'Y     PCN000052800000052800FN00000000020211201000052800NNM00020211207160500    1N0N  00000240000000686400000901432H2    HVYHV   005500360039
BI00A32H2    TIJ112D        202112107288-6547                CONNECTOR MALE ASS'Y     PCN000002250000002250FN00000000020211201000002250NNE00020211207160728    4N0N  00000075000001205300001340332H2    HVYHV   005400370024
BI00B32H2    TIJ2014        202112177116-3154-08             TERMINAL                 CCN000054000000054000FN00000000020220101000054000NNMD0020211207122100    4P0P  00002700000000475200000760432H2    HVYHV   006400630015
BI00B32H2    TIJ201M        202112177116-3154-08             TERMINAL                 CCN000027000000027000FN00000000020220101000027000NNED0020211207122100    4P0P  00002700000000475200000760432H2    HVYHV   006400630015
BI00B32H2    TIJ201P        202112177114-4231-02             TERMINAL                 CCN000036000000036000FN00000000020220101000036000NNE   20211207122100    4P0P  00001800000000554400000848032H2    HVYHV   006400630015
BI00B32H2    TIJ201P        202112177116-3154-08             TERMINAL                 CCN000081000000081000FN00000000020220101000081000NNE   20211207122100    4P0P  00002700000000475200000760432H2    HVYHV   006400630015
BI00B32H2    TIJ201Q        202112247116-3154-08             TERMINAL                 CCN000027000000027000FN00000000020220101000027000NNE   20211207122100    4P0P  00002700000000475200000760432H2    HVYHV   006400630015
BI00B32H2    #TIJ201Q       202112247158-3005-80             RUBBER STOPPER           CCN000020000000020000FN00000000020220101000020000NNE   20211207122100    2H0H  00002000000000210000000268732H2    HVYHV   002700430014
BI00B32H2    #TIJ201Q       202112247158-3008-80             RUBBER STOPPER           CCN000020000000020000FN00000000020220101000020000NNE   20211207122100    2C0C  00002000000000288000000343032H2    HVYHV   004300270014
BI00B32H2    TIJ2025        202202047017-1180-02             TERMINAL                 CCN000072000000072000FN00000000020220201000072000NNM   20211207122100    4P0P  00007200000001065600001229032H2    HVYHV   005100280028
BI00B32H2    TIJ2025        202202047017-1182-02             TERMINAL                 CCN000045000000045000FN00000000020220201000045000NNM   20211207122100    4P0P  00004500000001165500001318632H2    HVYHV   005100280028
BI00B32H2    TIJ2021        202201077017-1183-02             TERMINAL                 CCN000027000000027000FN00000000020220201000027000NNM   20211207122100    4P0P  00002700000001139400001307432H2    HVYHV   005100280028
BI00B32H2    TIJ2021        202201077114-4020                TERMINAL                 CCN000189000000189000FN00000000020220201000189000NNM   20211207122100    4P0P  00002100000000875700001169332H2    HVYHV   006400630015
BI00B32H2    TIJ2023        202201217114-4020                TERMINAL                 CCN000168000000168000FN00000000020220201000168000NNM   20211207122100    4P0P  00002100000000875700001169332H2    HVYHV   006400630015
BI00B32H2    TIJ2024        202201287114-4020                TERMINAL                 CCN000147000000147000FN00000000020220201000147000NNM   20211207122100    4P0P  00002100000000875700001169332H2    HVYHV   006400630015
BI00B32H2    TIJ2025        202202047114-4020                TERMINAL                 CCN000147000000147000FN00000000020220201000147000NNM   20211207122100    4P0P  00002100000000875700001169332H2    HVYHV   006400630015
BI00B32H2    TIJ2021        202201077114-4021                TERMINAL                 CCN000060000000060000FN00000000020220201000060000NNM   20211207122100    4P0P  00001500000000670500000964132H2    HVYHV   006400630015
BI00B32H2    TIJ2023        202201217114-4021                TERMINAL                 CCN000105000000105000FN00000000020220201000105000NNM   20211207122100    4P0P  00001500000000670500000964132H2    HVYHV   006400630015
BI00B32H2    TIJ2024        202201287114-4021                TERMINAL                 CCN000105000000105000FN00000000020220201000105000NNM   20211207122100    4P0P  00001500000000670500000964132H2    HVYHV   006400630015
BI00B32H2    TIJ2025        202202047114-4021                TERMINAL                 CCN000090000000090000FN00000000020220201000090000NNM   20211207122100    4P0P  00001500000000670500000964132H2    HVYHV   006400630015
BI00B32H2    TIJ2021        202201077114-4032                TERMINAL                 CCN000022500000022500FN00000000020220201000022500NNM   20211207122100    4P0P  00000750000000735000001063632H2    HVYHV   006400630017
BI00B32H2    TIJ2023        202201217114-4032                TERMINAL                 CCN000030000000030000FN00000000020220201000030000NNM   20211207122100    4P0P  00000750000000735000001063632H2    HVYHV   006400630017
BI00B32H2    TIJ2024        202201287114-4032                TERMINAL                 CCN000022500000022500FN00000000020220201000022500NNM   20211207122100    4P0P  00000750000000735000001063632H2    HVYHV   006400630017
BI00B32H2    TIJ2025        202202047114-4032                TERMINAL                 CCN000022500000022500FN00000000020220201000022500NNM   20211207122100    4P0P  00000750000000735000001063632H2    HVYHV   006400630017
BI00B32H2    TIJ2023        202201217114-4100-02             TERMINAL                 CCN000018000000018000FN00000000020220201000018000NNM   20211207122100    4P0P  00001800000000748800001077432H2    HVYHV   006400630017
BI00B32H2    TIJ2021        202201077114-4110-02             TERMINAL                 CCN000015000000015000FN00000000020220201000015000NNM   20211207122100    4P0P  00001500000000901500001230132H2    HVYHV   006400630017
BI00B32H2    TIJ2021        202201077114-4231-02             TERMINAL                 CCN000018000000018000FN00000000020220201000018000NNM   20211207122100    4P0P  00001800000000554400000848032H2    HVYHV   006400630015
BI00B32H2    TIJ2023        202201217114-4231-02             TERMINAL                 CCN000018000000018000FN00000000020220201000018000NNM   20211207122100    4P0P  00001800000000554400000848032H2    HVYHV   006400630015
BI00B32H2    TIJ2024        202201287114-4231-02             TERMINAL                 CCN000018000000018000FN00000000020220201000018000NNM   20211207122100    4P0P  00001800000000554400000848032H2    HVYHV   006400630015
BI00B32H2    TIJ2021        202201077114-4486-02             TERMINAL                 CCN000048000000048000FN00000000020220201000048000NNM   20211207122100    4P0P  00002400000000662400000956032H2    HVYHV   006400630015
BI00B32H2    TIJ2023        202201217114-4486-02             TERMINAL                 CCN000048000000048000FN00000000020220201000048000NNM   20211207122100    4P0P  00002400000000662400000956032H2    HVYHV   006400630015
BI00B32H2    TIJ2024        202201287114-4486-02             TERMINAL                 CCN000048000000048000FN00000000020220201000048000NNM   20211207122100    4P0P  00002400000000662400000956032H2    HVYHV   006400630015
BI00B32H2    TIJ2025        202202047114-4486-02             TERMINAL                 CCN000024000000024000FN00000000020220201000024000NNM   20211207122100    4P0P  00002400000000662400000956032H2    HVYHV   006400630015
BI00B32H2    TIJ2021        202201077114-4624-02             TERMINAL                 CCN000048000000048000FN00000000020220201000048000NNM   20211207122100    4P0P  00002400000000895200001188832H2    HVYHV   006400630015
BI00B32H2    TIJ2023        202201217114-4624-02             TERMINAL                 CCN000168000000168000FN00000000020220201000168000NNM   20211207122100    4P0P  00002400000000895200001188832H2    HVYHV   006400630015
BI00B32H2    TIJ2024        202201287114-4624-02             TERMINAL                 CCN000144000000144000FN00000000020220201000144000NNM   20211207122100    4P0P  00002400000000895200001188832H2    HVYHV   006400630015
BI00B32H2    TIJ2025        202202047114-4624-02             TERMINAL                 CCN000144000000144000FN00000000020220201000144000NNM   20211207122100    4P0P  00002400000000895200001188832H2    HVYHV   006400630015
BI00B32H2    TIJ2023        202201217114-4728-02             TERMINAL                 CCN000390000000390000FN00000000020220201000390000NNM   20211207122100    4P0P  00003000000000510000000804232H2    HVYHV   006400630015
BI00B32H2    TIJ2024        202201287114-4728-02             TERMINAL                 CCN001440000001440000FN00000000020220201001440000NNM   20211207122100    4P0P  00003000000000510000000804232H2    HVYHV   006400630015
BI00B32H2    TIJ2025        202202047114-4728-02             TERMINAL                 CCN001440000001440000FN00000000020220201001440000NNM   20211207122100    4P0P  00003000000000510000000804232H2    HVYHV   006400630015
BI00B32H2    TIJ2023        202201217114-4728-08             TERMINAL                 CCN000150000000150000FN00000000020220201000150000NNM   20211207122100    4P0P  00003000000000507000000801232H2    HVYHV   006400630015
BI00B32H2    TIJ2024        202201287114-4728-08             TERMINAL                 CCN000120000000120000FN00000000020220201000120000NNM   20211207122100    4P0P  00003000000000507000000801232H2    HVYHV   006400630015
BI00B32H2    TIJ2025        202202047114-4728-08             TERMINAL                 CCN000120000000120000FN00000000020220201000120000NNM   20211207122100    4P0P  00003000000000507000000801232H2    HVYHV   006400630015
BI00B32H2    TIJ2024        202201287114-4729-02             TERMINAL                 CCN000240000000240000FN00000000020220201000240000NNM   20211207122100    4P0P  00003000000000516000000810232H2    HVYHV   006400630015
BI00B32H2    TIJ2025        202202047114-4729-02             TERMINAL                 CCN000300000000300000FN00000000020220201000300000NNM   20211207122100    4P0P  00003000000000516000000810232H2    HVYHV   006400630015
BI00B32H2    TIJ2024        202201287114-5746-02             TERMINAL                 CCN000084000000084000FN00000000020220201000084000NNM   20211207122100    4P0P  00002100000000695100000988732H2    HVYHV   006400630015
BI00B32H2    TIJ2025        202202047114-5746-02             TERMINAL                 CCN000189000000189000FN00000000020220201000189000NNM   20211207122100    4P0P  00002100000000695100000988732H2    HVYHV   006400630015
BI00B32H2    TIJ2021        202201077114-5747-02             TERMINAL                 CCN000108000000108000FN00000000020220201000108000NNM   20211207122100    4P0P  00001800000000626400000920032H2    HVYHV   006400630015
BI00B32H2    TIJ2023        202201217114-5747-02             TERMINAL                 CCN000396000000396000FN00000000020220201000396000NNM   20211207122100    4P0P  00001800000000626400000920032H2    HVYHV   006400630015
BI00B32H2    TIJ2024        202201287114-5747-02             TERMINAL                 CCN000414000000414000FN00000000020220201000414000NNM   20211207122100    4P0P  00001800000000626400000920032H2    HVYHV   006400630015
BI00B32H2    TIJ2025        202202047114-5747-02             TERMINAL                 CCN000360000000360000FN00000000020220201000360000NNM   20211207122100    4P0P  00001800000000626400000920032H2    HVYHV   006400630015
BI00B32H2    TIJ2023        202201217114-5748-02             TERMINAL                 CCN000204000000204000FN00000000020220201000204000NNM   20211207122100    4P0P  00001200000000444000000737632H2    HVYHV   006400630015
BI00B32H2    TIJ2024        202201287114-5748-02             TERMINAL                 CCN000180000000180000FN00000000020220201000180000NNM   20211207122100    4P0P  00001200000000444000000737632H2    HVYHV   006400630015
BI00B32H2    TIJ2025        202202047114-5748-02             TERMINAL                 CCN000180000000180000FN00000000020220201000180000NNM   20211207122100    4P0P  00001200000000444000000737632H2    HVYHV   006400630015
BI00B32H2    TIJ2024        202201287114-5753-02             TERMINAL                 CCN000135000000135000FN00000000020220201000135000NNM   20211207122100    4P0P  00002700000000847800001141432H2    HVYHV   006400630015
BI00B32H2    TIJ2025        202202047114-5753-02             TERMINAL                 CCN000162000000162000FN00000000020220201000162000NNM   20211207122100    4P0P  00002700000000847800001141432H2    HVYHV   006400630015
BI00B32H2    TIJ2021        202201077114-6041                TERMINAL                 CCN000028800000028800FN00000000020220201000028800NNM   20211207122100    4P0P  00000360000000580700000824232H2    HVYHV   006400630015
BI00B32H2    TIJ2023        202201217114-6041                TERMINAL                 CCN000039600000039600FN00000000020220201000039600NNM   20211207122100    4P0P  00000360000000580700000824232H2    HVYHV   006400630015
