BI00B1200    #H322F50023    202205267172-5938-80             SEALED                   CCN000010000000010000FN00000000020220601000010000NNE   20220316123132    2H0H  0000050000000044250000049071200    YCYC    004300270014
BI00B1200    H722F50004     202205197282-5553-10             CONNECTOR                CCN000001000000001000FN00000000020220601000001000NNE   20220316123132    4N0N  0000010000000101800000118301200    YCYC    005500360039
BI00B32DE    #TCTL205C      202203317172-5629-80             RUBBER STOPPER           CCN000020000000020000FN00000000020220501000020000NNE   20220316123132    2H0H  00002000000000060000000111132DE    TVYEV-TV004300270014
BI00B32DE    #TCTL205C      202203317189-3036                HOUSING FEMALE           CCN000001600000001600FN00000000020220501000001600NNE   20220316123132    2F0F  00000160000000921600001141632DE    TVYEV-TV005500360039
BI00B32DE    #TCTL205C      202203317198-4980-30             HOUSING FEMALE           CCN000001200000001200FN00000000020220501000001200NNE   20220316123132    2F0F  00000120000000840000000921032DE    TVYEV-TV005400370024
BI00B32DE    #TCTL205C      202203317287-1671                HOUSING FEMALE ASS'Y     CCN000002000000002000FN00000000020220501000002000NNE   20220316123132    2N0N  00000200000000782600000974632DE    TVYEV-TV005400370024
BI00B32DE    #TCTL205C      202203317158-3015-10             RUBBER STOPPER           CCN000030000000030000FN00000000020220501000030000NNE   20220316123132    2C0C  00001000000000419500000474032DE    TVYEV-TV002700430014
BI00B32D9    I21504         202203177289-3342-90             HOUSING FEMALE ASS'Y     CCN000009600000009600FN00000000020220401000009600NNM00020220316123132    1N0N  00000240000000686400000901432D9    UEHESTO 005500360039
BI00B32G7    JJ22053 MW     202205057288-3331-30             HOUSING MALE             CCN000003000000003000FN00000000020220501000003000NNMD0420220316155757    4N0N  00000150000000866000001010932G7    JIJAI   005400370024
BI00B32G7    JJ22053 MW     202205057288-3340-30             HOUSING MALE             CCN000001500000001500FN00000000020220501000001500NNMD0420220316155757    4N0N  00000150000000861500001006432G7    JIJAI   005400370024
BI00B32H7    #FS22051DMW    202203307172-5630-40             RUBBER STOPPER           CCN000100000000100000FN00000000020220501000100000NNMD0420220316172528    2H0H  00002000000000044000000095132H7    FYFSY   004300270014
BI00B32H7    #FS22052DMW    202204067172-5630-40             RUBBER STOPPER           CCN000340000000340000FN00000000020220501000340000NNMD0420220316172604    2H0H  00002000000000044000000095132H7    FYFSY   004300270014
BI00B32H7    #FS22053DMW    202204067172-5630-40             RUBBER STOPPER           CCN000380000000380000FN00000000020220501000380000NNMD0420220316172638    2H0H  00002000000000044000000095132H7    FYFSY   004300270014
BI00B32H7    #FS22054DMW    202204207172-5630-40             RUBBER STOPPER           CCN000320000000320000FN00000000020220501000320000NNMD0420220316172652    2H0H  00002000000000044000000095132H7    FYFSY   004300270014
BI00B32M1    TCV2054        202205127289-3342                HOUSING FEMALE ASS'Y     CCN000122400000062400FN00000000020220501000062400NNMD0420220316161325    1N0N  00000240000000686400000901432M1    VNYEV   005500360039
BI00B32M1    TCV2054        202205127289-3342-30             HOUSING FEMALE ASS'Y     CCN000050400000026400FN00000000020220501000026400NNMD0420220316161401    1N0N  00000240000000686400000901432M1    VNYEV   005500360039
BI00B32M1    TCV2054        202205197289-3342                HOUSING FEMALE ASS'Y     CCN000060000000060000FN00000000020220501000060000NNMD0420220316161319    1N0N  00000240000000686400000901432M1    VNYEV   005500360039
BI00B32M1    TCV2054        202205197289-3342-30             HOUSING FEMALE ASS'Y     CCN000024000000024000FN00000000020220501000024000NNMD0420220316161401    1N0N  00000240000000686400000901432M1    VNYEV   005500360039
BI00B32M3    SM22051DMW     202203317283-4577                CONNECTOR HOUSING        CCN000144000000043200FN00000000020220501000043200NNMQ0820220316123132    4N0N  00000480000000916800001136832M3    SASAMI  005500360039
BI00B32M3    SM22051DMW     202204077283-4855                CONNECTOR HOUSING        CCN000004800000004800FN00000000020220501000004800NNMD0420220316160442    4N0N  00000240000001188400001400032M3    SASAMI  005500360039
BI00B32M3    SM22054DMW     202204287283-4855                CONNECTOR HOUSING        CCN000004800000004800FN00000000020220501000004800NNMD0420220316160615    4N0N  00000240000001188400001400032M3    SASAMI  005500360039
BI00B32M3    SM22051DMW     202203317289-3342-30             HOUSING FEMALE ASS'Y     CCN000024000000004800FN00000000020220501000004800NNMD0420220316160531    1N0N  00000240000000686400000901432M3    SASAMI  005500360039
BI00B32M3    SM22054DMW     202205127289-3342-30             HOUSING FEMALE ASS'Y     CCN000021600000004800FN00000000020220501000004800NNMD0420220316160703    1N0N  00000240000000686400000901432M3    SASAMI  005500360039
BI00B32M3    SM22055DMW     202206097289-3342-30             HOUSING FEMALE ASS'Y     CCN000012000000002400FN00000000020220501000002400NNMD0420220316160930    1N0N  00000240000000686400000901432M3    SASAMI  005500360039
BI00B32M3    SM22051DMW     202204077289-3342-30             HOUSING FEMALE ASS'Y     CCN000004800000004800FN00000000020220501000004800NNMD0420220316160531    1N0N  00000240000000686400000901432M3    SASAMI  005500360039
BI00B32M3    SM22051DMW     202204217289-3342-30             HOUSING FEMALE ASS'Y     CCN000004800000004800FN00000000020220501000004800NNMD0420220316160531    1N0N  00000240000000686400000901432M3    SASAMI  005500360039
BI00B32M3    SM22051DMW     202204287289-3342-30             HOUSING FEMALE ASS'Y     CCN000004800000004800FN00000000020220501000004800NNMD0420220316160531    1N0N  00000240000000686400000901432M3    SASAMI  005500360039
BI00B32M3    SM22051DMW     202205057289-3342-30             HOUSING FEMALE ASS'Y     CCN000004800000004800FN00000000020220501000004800NNMD0420220316160531    1N0N  00000240000000686400000901432M3    SASAMI  005500360039
BI00B32M3    SM22054DMW     202205197289-3342-30             HOUSING FEMALE ASS'Y     CCN000004800000004800FN00000000020220501000004800NNMD0420220316160703    1N0N  00000240000000686400000901432M3    SASAMI  005500360039
BI00B32M3    SM22054DMW     202205267289-3342-30             HOUSING FEMALE ASS'Y     CCN000004800000004800FN00000000020220501000004800NNMD0420220316160703    1N0N  00000240000000686400000901432M3    SASAMI  005500360039
BI00B32M3    SM22054DMW     202206037289-3342-30             HOUSING FEMALE ASS'Y     CCN000004800000004800FN00000000020220501000004800NNMD0420220316160703    1N0N  00000240000000686400000901432M3    SASAMI  005500360039
BI00B32M3    SM22054DMW     202206097289-3342-30             HOUSING FEMALE ASS'Y     CCN000002400000002400FN00000000020220501000002400NNMD0420220316160703    1N0N  00000240000000686400000901432M3    SASAMI  005500360039
BI00B32M3    SM22055DMW     202206167289-3342-30             HOUSING FEMALE ASS'Y     CCN000004800000004800FN00000000020220501000004800NNMD0420220316160930    1N0N  00000240000000686400000901432M3    SASAMI  005500360039
BI00B32M3    SM22055DMW     202206237289-3342-30             HOUSING FEMALE ASS'Y     CCN000004800000004800FN00000000020220501000004800NNMD0420220316160930    1N0N  00000240000000686400000901432M3    SASAMI  005500360039
BI00B32N1    NST2118FCU     202204077116-1473                TERMINAL                 CCN000013500000013500FN00000000020220501000013500NNE   20220316141938    4P0P  00001350000000523800000809032N1    TAYIPL  006400630015
BI00B32N1    NST2118FCU     202204077116-4020                TERMINAL                 CCN000013500000013500FN00000000020220501000013500NNE   20220316141938    4P0P  00001350000000513000000798232N1    TAYIPL  006400630015
BI00B32N1    NST2118FCU     202204077114-5747-02             TERMINAL                 CCN000018000000018000FN00000000020220501000018000NNE   20220316141938    4P0P  00001800000000626400000920032N1    TAYIPL  006400630015
BI00B32N1    NST2118FCU     202204077116-1486-02             TERMINAL                 CCN000033000000033000FN00000000020220501000033000NNE   20220316141938    4P0P  00001650000000655100000940332N1    TAYIPL  006400630015
BI00B32N1    NST2118FCU     202204077116-1685-02             TERMINAL                 CCN000072000000072000FN00000000020220501000072000NNE   20220316141938    4P0P  00002400000000897600001065232N1    TAYIPL  005100280028
BI00B32N1    NST2118FCU     202204077116-4103-02             TERMINAL                 CCN000036000000036000FN00000000020220501000036000NNE   20220316141938    4P0P  00001200000000571200000859432N1    TAYIPL  006400630015
BI00B32N1    NST2118FCU     202204077116-4121-02             TERMINAL                 CCN000009000000009000FN00000000020220501000009000NNE   20220316141938    4P0P  00000450000000618800000912432N1    TAYIPL  006400630015
BI00B32N1    NST2118FCU     202204077116-4416-02             TERMINAL                 CCN000032000000032000FN00000000020220501000032000NNE   20220316141938    4P0P  00003200000000518400000847132N1    TAYIPL  006400630017
BI00B32N1    NST2118FCU     202204077116-5041-02             TERMINAL                 CCN000030000000030000FN00000000020220501000030000NNE   20220316141938    4P0P  00001500000000583500000868732N1    TAYIPL  006400630015
BI00B32N1    NST2118FCU     202204077158-3006-90             RUBBER STOPPER           CCN000260000000260000FN00000000020220501000260000NNE   20220316141938    1C0C  00002000000000330600000386032N1    TAYIPL  002700430014
BI00B32N1    NST2118FCU     202204077158-3166-60             WIRE SEAL                CCN000520000000520000FN00000000020220501000520000NNE   20220316141938    1C0C  00004000000000104000000152432N1    TAYIPL  002700430014
BI00B32N1    NST2118FCU     202204077158-3167-80             WIRE SEAL                CCN000200000000200000FN00000000020220501000200000NNE   20220316141938    1C0C  00002000000000048000000109032N1    TAYIPL  002700430014
BI00B32N1    NST2118FCU     202204077282-7028-30             CONNECTOR                CCN000014000000014000FN00000000020220501000014000NNE   20220316141938    1N0N  00000200000001124000001212532N1    TAYIPL  005600390040
BI00B32N1    NST2118FCU     202204077283-1057-30             CONNECTOR HOUSING        CCN000001920000001920FN00000000020220501000001920NNE   20220316141938    4N0N  00000096000000925400001075432N1    TAYIPL  005500360039
BI00B32N1    #NST2118FCU    202204077223-3615                CONNECTOR                CCN000002000000002000FN00000000020220501000002000NNE   20220316141933    2N0N  00000200000001118000001304132N1    TAYIPL  005500360039
BI00B32N1    #NST2118FCU    202204077157-3950-80             SEAL RUBBER              CCN000040000000040000FN00000000020220501000040000NNE   20220316141933    2C0C  00004000000000154000000440332N1    TAYIPL  002700430014
BI00B32N1    #NST2118FCU    202204077157-3952-80             RUBBER STOPPER           CCN000010000000010000FN00000000020220501000010000NNE   20220316141933    2C0C  00001000000000117000000175032N1    TAYIPL  002700430014
BI00B32N1    #NST2118FCU    202204077158-3003-90             RUBBER STOPPER           CCN000020000000020000FN00000000020220501000020000NNE   20220316141933    2C0C  00002000000000250000000306032N1    TAYIPL  002700430014
BI00B32N1    #NST2118FCU    202204077158-3007-10             RUBBER STOPPER           CCN000020000000020000FN00000000020220501000020000NNE   20220316141933    2H0H  00002000000000308000000362732N1    TAYIPL  002700430014
BI00B32N1    #NST2118FCU    202204077158-3008-80             RUBBER STOPPER           CCN000080000000080000FN00000000020220501000080000NNE   20220316141933    2C0C  00002000000000288000000343032N1    TAYIPL  004300270014
BI00B32N1    #NST2118FCU    202204077158-3121-80             WIRE SEAL                CCN000320000000320000FN00000000020220501000320000NNE   20220316141933    2C0C  00002000000000118000000187332N1    TAYIPL  002700430014
BI00B32N1    #NST2118FCU    202204077183-7725-40             HOUSING                  CCN000012000000012000FN00000000020220501000012000NNE   20220316141933    2F0F  00000600000000840000001040032N1    TAYIPL  005600390040
BI00B32N1    #NST2118FCU    202204077289-2912-30             HOUSING FEMALE ASS'Y     CCN000004000000004000FN00000000020220501000004000NNE   20220316141933    2N0N  00000200000000804000000929032N1    TAYIPL  005400370024
BI00A32W4    4500190950     202205167158-3167-80             WIRE SEAL                CCN000040000000040000FN00000000020220501000040000NNE   20220316123132W4G91C0C  00002000000000048000000109032W4G9  HJYHK-J 002700430014
BI00A32W4    4500190952     202204287116-4100-02             TERMINAL                 CCN000015000000015000FN00000000020220401000015000NNE   20220316123132W4494P0P  00001500000000696000000990232W449  HJYHK   006400630015
BI00A32W4    4500190953     202204117116-4110-02             TERMINAL                 CCN000009000000009000FN00000000020220401000009000NNE   20220316123132W4494P0P  00000900000000594000000882232W449  HJYHK   006400630015
BI00A32W4    4500190953     202204117116-4111-02             TERMINAL                 CCN000007500000007500FN00000000020220401000007500NNE   20220316123132W4494P0P  00000750000000529500000817732W449  HJYHK   006400630015
BI00A32W4    #4500190953    202204117157-3821                RUBBER STOPPER           CCN000020000000020000FN00000000020220401000020000NNE   20220316123132W4492C0C  00002000000000176000000238032W449  HJYHK   002700430014
BI00A32W4    #4500190953    202204117183-2414                CONNECTOR HOUSING        CCN000004800000004800FN00000000020220401000004800NNE   20220316123132W4492F0F  00000480000000779200001061032W449  HJYHK   005500360039
BI00A32W4    4500190954     202203317116-4022                TERMINAL                 CCN000013500000013500FN00000000020220301000013500NNE   20220316123132W4494P0P  00001350000000618300000903532W449  HJYHK   006400630015
BI00A32W4    #4500190959    202205237186-8845                HOUSING MALE             CCN000003000000003000FN00000000020220501000003000NNE   20220316123132W4M52F0F  00000300000000690000000801532W4M5  HJYHK-J 005400370024
BI00B32W4    4500190964     202205127289-9553-30             SEALED ASSY FEMALE       CCN000132300000132300FN00000000020220501000132300NNE   20220316123132W4594N0N  00000294000001109000001521532W459  HJYHK   005500360039
BI00B32W4    4500190965     202206167289-9553-30             SEALED ASSY FEMALE       CCN000167580000167580FN00000000020220601000167580NNE   20220316123132W4594N0N  00000294000001109000001521532W459  HJYHK   005500360039
BI00B32W4    4500190966     202207147289-9553-30             SEALED ASSY FEMALE       CCN000123480000123480FN00000000020220701000123480NNE   20220316123132W4594N0N  00000294000001109000001521532W459  HJYHK   005500360039
BI00A32W4    4500190977     202205267158-3167-80             WIRE SEAL                CCN000040000000040000FN00000000020220501000040000NNE   20220316123132W4761C0C  00002000000000048000000109032W476  HJYHK-J 002700430014
BI00B32W4    4500190978     202203317282-8120-40             CONNECTOR HOUSING        CCN000003000000003000FN00000000020220301000003000NNE   20220316123132W4D41N0N  00000300000001356000001520032W4D4  HJYHK-J 005500360039
BI00B32W6    SW22052QMW     202204207288-6547                CONNECTOR MALE ASS'Y     CCN000009750000009750FN00000000020220501000009750NNMD0420220316161900    4N0N  00000075000001205300001340332W6    SYSYA-WJ005400370024
BI00B32W6    SW22053QMW     202204277288-6547                CONNECTOR MALE ASS'Y     CCN000006750000006750FN00000000020220501000006750NNMD0420220316161945    4N0N  00000075000001205300001340332W6    SYSYA-WJ005400370024
BI00B32W6    SW22054QMW     202205047288-6547                CONNECTOR MALE ASS'Y     CCN000006000000006000FN00000000020220501000006000NNMD0420220316162023    4N0N  00000075000001205300001340332W6    SYSYA-WJ005400370024
BI00B32W6    SW22053QMW     202204277289-3342                HOUSING FEMALE ASS'Y     CCN000019200000019200FN00000000020220501000019200NNMD0420220316161945    1N0N  00000240000000686400000901432W6    SYSYA-WJ005500360039
BI00B32W6    SW22054QMW     202205047289-3342                HOUSING FEMALE ASS'Y     CCN000014400000014400FN00000000020220501000014400NNMD0420220316162023    1N0N  00000240000000686400000901432W6    SYSYA-WJ005500360039
BI00B32W6    SW22051QMW     202204067289-3342-30             HOUSING FEMALE ASS'Y     CCN000014400000014400FN00000000020220501000014400NNMD0420220316161818    1N0N  00000240000000686400000901432W6    SYSYA-WJ005500360039
BI00B32W6    SW22052QMW     202204207289-3342-30             HOUSING FEMALE ASS'Y     CCN000002400000002400FN00000000020220501000002400NNMD0420220316161900    1N0N  00000240000000686400000901432W6    SYSYA-WJ005500360039
BI00B32W6    SW22053QMW     202204277289-3342-30             HOUSING FEMALE ASS'Y     CCN000016800000016800FN00000000020220501000016800NNMD0420220316161945    1N0N  00000240000000686400000901432W6    SYSYA-WJ005500360039
BI00B32W6    SW22054QMW     202205047289-3342-30             HOUSING FEMALE ASS'Y     CCN000016800000016800FN00000000020220501000016800NNMD0420220316162023    1N0N  00000240000000686400000901432W6    SYSYA-WJ005500360039
BI00B32W6    SW22051QMW     202204067289-3342-90             HOUSING FEMALE ASS'Y     CCN000009600000009600FN00000000020220501000009600NNMD0420220316161827    1N0N  00000240000000686400000901432W6    SYSYA-WJ005500360039
BI00B32W6    SW22052QMW     202204207289-3342-90             HOUSING FEMALE ASS'Y     CCN000002400000002400FN00000000020220501000002400NNMD0420220316161900    1N0N  00000240000000686400000901432W6    SYSYA-WJ005500360039
BI00B32W6    SW22053QMW     202204277289-3342-90             HOUSING FEMALE ASS'Y     CCN000009600000009600FN00000000020220501000009600NNMD0420220316161945    1N0N  00000240000000686400000901432W6    SYSYA-WJ005500360039
BI00B32W6    SW22054QMW     202205047289-3342-90             HOUSING FEMALE ASS'Y     CCN000007200000007200FN00000000020220501000007200NNMD0420220316162023    1N0N  00000240000000686400000901432W6    SYSYA-WJ005500360039
BI00B32W6    SW22054QMW     202205047327-6874-30             MULTI FUSE               CCN000002592000002592FN00000000020220501000002592NNMD0420220316162034    4N0N  00000028800000991400001157332W6    SYSYA-WJ005400370024
BI00B32W6    SW22054QMW     202205047327-6884-30             MULTI FUSE               CCN000002880000002880FN00000000020220501000002880NNMD0420220316162034    4N0N  00000028800000988900001154832W6    SYSYA-WJ005400370024
