BI00B1200    8750T52102     202203177196-1104-02             TERMINAL                 CCN000067500000067500FN00000000020220401000067500NNM   20220118121934    4P0P  0000225000000044100000072621200    YCYC    006400630015
BI00B1200    #8750T52102    202203177172-5630-40             RUBBER STOPPER           CCN000200000000200000FN00000000020220401000200000NNM   20220118121934    2H0H  0000200000000004400000009511200    YCYC    004300270014
BI00B1200    #8750T52102    202203177172-5631-60             RUBBER STOPPER           CCN000300000000300000FN00000000020220401000300000NNM   20220118121934    2H0H  0000200000000004200000009311200    YCYC    004300270014
BI00B1200    Y022D50037     202203247289-6524-30             HOUSING FEMALE ASS'Y     CCN000000480000000480FN00000000020220401000000480NNM   20220118121934    4N0N  0000002400000135120000166621200    YCYC    005500360039
BI00B32AF    JTB202L        202203047287-3885-30             HYBRID FEMALE ASS'Y      CCN000002400000002400FN00000000020220201000002400NNED0220220118164841    1N0N  00000240000001029600001249632AF    HBYHVTB 005500360039
BI00A32AG    XG22013CMW     202201247327-6870-30             MULTI FUSE               PCN000000864000000000FY00000000020220101000000000NNMQ0820220118142821    4N0N  00000028800001015200001181132AG    XGXGY   005400370024
BI00B32AG    XG2203ALMW     202202047289-7615-30             HOUSING FEMALE ASS'Y     CCN000006080000002560FN00000000020220301000002560NNEQ0020220118121934    4N0N  00000032000000738000000948032AG    XGXGY   005400370024
BI00A32AG    #XG2203ALMW    202201217158-3120-90             CONNECTOR WIRE SEAL      CCN000080000000080000FN00000000020220301000080000NNEM0020220118131101    2C0C  00002000000000136000000194032AG    XGXGY   002700430014
BI00A32AG    XG2203BLMW     202201217289-4696-30             HOUSING FEMALE ASS'Y     CCN000014000000014000FN00000000020220301000014000NNEM0020220118130436    4N0N  00000200000000913400001055432AG    XGXGY   005400370024
BI00B32AG    XG2202DCMW     202203117327-6832-60             MAIN FUSE                CCN000004200000004200FN00000000020220201000004200NNED0420220118121934    4N0N  00000060000000729200000930732AG    XGXGY   005400370024
BI00A32AG    XG2203ALMW     202201217289-7615-30             HOUSING FEMALE ASS'Y     CCN000003520000003520FN00000000020220301000003520NNEM0020220118130436    4N0N  00000032000000738000000948032AG    XGXGY   005400370024
BI00B32A7    ZZ22031BMW     202202157172-5403-30             SEALED PACKING           CCN000136000000068000FN00000000020220301000068000NNMD0320220118141348    1C0C  00000400000000653600000701732A7    ZZZZY   004300270014
BI00B32A7    ZZ22031BMW     202203027172-5403-30             SEALED PACKING           CCN000068000000068000FN00000000020220301000068000NNMD0420220118141332    1C0C  00000400000000653600000701732A7    ZZZZY   004300270014
BI00B32CC    CTA32041       202202037289-3342-30             HOUSING FEMALE ASS'Y     CCN000012000000012000FN00000000020220401000012000NNED0420220118121934    1N0N  00000240000000686400000901432CC    BIYABCBU005500360039
BI00B32CC    CTA32043       202202037289-3342                HOUSING FEMALE ASS'Y     CCN000004800000004800FN00000000020211201000004800NNED0420220118121934    1N0N  00000240000000686400000901432CC    BIYABCBU005500360039
BI00B32CC    CTA32043       202203177289-3342-30             HOUSING FEMALE ASS'Y     CCN000019200000019200FN00000000020211201000019200NNED0420220118130210    1N0N  00000240000000686400000901432CC    BIYABCBU005500360039
BI00B32CC    CTA32051       202202037289-3342                HOUSING FEMALE ASS'Y     CCN000007200000007200FN00000000020220501000007200NNED0420220118121934    1N0N  00000240000000686400000901432CC    BIYABCBU005500360039
BI00B32CC    CTA32051       202202177289-3342-30             HOUSING FEMALE ASS'Y     CCN000024000000012000FN00000000020220501000012000NNED0420220118130147    1N0N  00000240000000686400000901432CC    BIYABCBU005500360039
BI00B32CC    CTA32051       202203037289-3342-30             HOUSING FEMALE ASS'Y     CCN000012000000012000FN00000000020220501000012000NNED0420220118130147    1N0N  00000240000000686400000901432CC    BIYABCBU005500360039
BI00B32CH    SJ2202BHMW     202203177327-6939-30             MULTI FUSE               CCN000000576000000576FN00000000020220201000000576NNED0420220118121934    4N00  00000028800000992200001158132CH    SJSAMIJF005400370024
BI00B32CH    SJ2202BHMW     202203177327-6941-30             MULTI FUSE               CCN000000576000000576FN00000000020220201000000576NNED0420220118121934    4N00  00000028800001014400001180332CH    SJSAMIJF005400370024
BI00B32D1    DFTC2214       202202107289-6547                HOUSING FEMALE ASS'Y     CCN000014400000014400FN00000000020220401000014400NNMD0020220118151838    1N0N  00000240000001152000001362032D1    TOYOT-K 005500360039
BI00B32D2    DGTC2213       202202037288-6547                CONNECTOR MALE ASS'Y     CCN000010500000010500FN00000000020220401000010500NNMD0020220118143744    4N0N  00000075000001205300001340332D2    TGYOT-G 005400370024
BI00B32D2    DGTC2213       202202037289-3342                HOUSING FEMALE ASS'Y     CCN000038400000038400FN00000000020220401000038400NNMD0020220118143744    1N0N  00000240000000686400000901432D2    TGYOT-G 005500360039
BI00B32D2    DGTC2213       202202037289-3342-30             HOUSING FEMALE ASS'Y     CCN000019200000019200FN00000000020220401000019200NNMD0020220118143744    1N0N  00000240000000686400000901432D2    TGYOT-G 005500360039
BI00B32D2    DGTC2213       202202037289-3342-40             HOUSING FEMALE ASS'Y     CCN000024000000024000FN00000000020220401000024000NNMD0020220118143744    1N0N  00000240000000686400000901432D2    TGYOT-G 005500360039
BI00B32D2    DGTC2213       202202037289-3342-90             HOUSING FEMALE ASS'Y     CCN000026400000026400FN00000000020220401000026400NNMD0020220118143744    1N0N  00000240000000686400000901432D2    TGYOT-G 005500360039
BI00B32D2    DGTC2213       202202037289-6547                HOUSING FEMALE ASS'Y     CCN000012000000012000FN00000000020220401000012000NNMD0020220118143744    1N0N  00000240000001152000001362032D2    TGYOT-G 005500360039
BI00B32D2    DGTC2214       202202107288-6547                CONNECTOR MALE ASS'Y     CCN000010500000010500FN00000000020220401000010500NNMD0020220118144130    4N0N  00000075000001205300001340332D2    TGYOT-G 005400370024
BI00B32D2    DGTC2214       202202107289-3342                HOUSING FEMALE ASS'Y     CCN000100800000100800FN00000000020220401000100800NNMD0020220118144130    1N0N  00000240000000686400000901432D2    TGYOT-G 005500360039
BI00B32D2    DGTC2214       202202107289-3342-30             HOUSING FEMALE ASS'Y     CCN000014400000014400FN00000000020220401000014400NNMD0020220118144130    1N0N  00000240000000686400000901432D2    TGYOT-G 005500360039
BI00B32D2    DGTC2214       202202107289-3342-40             HOUSING FEMALE ASS'Y     CCN000007200000007200FN00000000020220401000007200NNMD0020220118144130    1N0N  00000240000000686400000901432D2    TGYOT-G 005500360039
BI00B32D2    DGTC2214       202202107289-3342-90             HOUSING FEMALE ASS'Y     CCN000014400000014400FN00000000020220401000014400NNMD0020220118144130    1N0N  00000240000000686400000901432D2    TGYOT-G 005500360039
BI00B32D2    DGTC2214       202202107289-6547                HOUSING FEMALE ASS'Y     CCN000009600000009600FN00000000020220401000009600NNMD0020220118144130    1N0N  00000240000001152000001362032D2    TGYOT-G 005500360039
BI00B32D2    DGTC2214       202302097289-3342                HOUSING FEMALE ASS'Y     CCN000050400000000000FY00000000020220401000000000NNMQ0020220118144130    1N0N  00000240000000686400000901432D2    TGYOT-G 005500360039
BI00B32D2    DGTC2215       202203107327-6801-3W             BATTERY FUSE             CCN000001344000001344FN00000000020220401000001344NNMD0420220118121934    4N0N  00000009600000928400001143432D2    TGYOT-G 005500360039
BI00B32D2    DGTC2215       202203107327-6806                MULTI FUSE               CCN000001680000001680FN00000000020220401000001680NNMD0420220118121934    4N0N  00000056000000851500001063932D2    TGYOT-G 005400370024
BI00B32D2    DGTC2215       202203107327-6809                MULTI FUSE               CCN000002800000002800FN00000000020220401000002800NNMD0420220118121934    4N0N  00000056000000849300001061732D2    TGYOT-G 005400370024
BI00B32D2    DGTC2215       202203107327-6930                MULTI FUSE               CCN000001120000001120FN00000000020220401000001120NNMD0420220118121934    4N0N  00000056000000848900001031932D2    TGYOT-G 005400370024
BI00B32EJ    4500185729     202202037283-1020                CONNECTOR                CCN000048000000048000FN00000000020220101000048000NNED0020220118161831EJ  4N0N  00000600000000840000001049332EJ    EJYKBO  005600390040
BI00B32EJ    4500186233     202202177289-9553-30             SEALED ASSY FEMALE       CCN000008820000008820FN00000000020220201000008820NNED0020220118162110EJ  4N0N  00000294000001109000001521532EJ    EJYKBO  005500360039
BI00B32EJ    4500186233     202202177283-5843                CONNECTOR                CCN000010500000010500FN00000000020220201000010500NNED0020220118162029EJ  1N0N  00000150000000889000001132032EJ    EJYKBO  005600390040
BI00B32EJ    T211229P03     202202177283-1020                CONNECTOR                CCN000048000000048000FN00000000020220201000048000NNED0020220118162308EJ  4N0N  00000600000000840000001049332EJ    EJYKBO  005600390040
BI00B32EJ    T211228P01     202203177289-3342-30             HOUSING FEMALE ASS'Y     CCN000002400000002400FN00000000020220101000002400NNED0020220118162238EJ  1N0N  00000240000000686400000901432EJ    EJYKBO  005500360039
BI00B32EJ    T220107P02     202203037158-3070-80             RUBBER STOPPER           CCN000160000000160000FN00000000020220201000160000NNED0020220118162518EJ  1C0C  00004000000000276000000333332EJ    EJYKBO  002700430014
BI00B32EJ    T220107P03     202203177283-5843                CONNECTOR                CCN000013500000013500FN00000000020220201000013500NNED0020220118162600EJ  1N0N  00000150000000889000001132032EJ    EJYKBO  005600390040
BI00B32EJ    T220107P01     202202177158-3169-40             SEALING PLUG             CCN000560000000560000FN00000000020220201000560000NNED0020220118162638EJ  1C0C  00004000000000156000000204132EJ    EJYKBO  004300260014
BI00B32EJ    T220117P03     202202177116-4102-02             TERMINAL                 CCN000024000000024000FN00000000020220201000024000NNE   20220118121934EJ  4P0P  00001200000000553200000841432EJ    EJYKBO  006400630015
BI00B32EJ    T220117P03     202202177283-5574-10             CONNECTOR                CCN000005600000005600FN00000000020220201000005600NNE   20220118121934EJ  4N0N  00000080000001235000001435232EJ    EJYKBO  005500360039
BI00B32EJ    T220117P03     202202177158-3070-80             RUBBER STOPPER           CCN000040000000040000FN00000000020220201000040000NNE   20220118121934EJ  1C0C  00004000000000276000000333332EJ    EJYKBO  002700430014
BI00B32EJ    T220117P03     202202177116-4022                TERMINAL                 CCN000027000000027000FN00000000020220201000027000NNE   20220118121934EJ  4P0P  00001350000000618300000903532EJ    EJYKBO  006400630015
BI00B32EJ    #T220117P03    202202177283-8397-40             CONNECTOR                CCN000006160000006160FN00000000020220201000006160NNE   20220118121934EJ  2N0N  00000154000001007000001222732EJ    EJYKBO  005600390023
BI00B32EJ    #T220117P03    202202177157-3950-80             SEAL RUBBER              CCN000080000000080000FN00000000020220201000080000NNE   20220118121934EJ  2C0C  00004000000000154000000440332EJ    EJYKBO  002700430014
BI00B32EJ    #T220117P03    202202177158-3120-90             CONNECTOR WIRE SEAL      CCN000020000000020000FN00000000020220201000020000NNE   20220118121934EJ  2C0C  00002000000000136000000194032EJ    EJYKBO  002700430014
BI00B32EJ    T220117P04     202202037116-4122-02             TERMINAL                 CCN000036000000036000FN00000000020220201000036000NNE   20220118121934EJ  4P0P  00000450000000656600000950232EJ    EJYKBO  006400630015
BI00B32EJ    T220117P05     202203037116-4231-02             TERMINAL                 CCN000026000000026000FN00000000020220301000026000NNE   20220118121934EJ  4P0P  00002600000000683800001012532EJ    EJYKBO  006400630017
BI00B32EJ    T220117P05     202203037158-3166-60             WIRE SEAL                CCN000280000000280000FN00000000020220301000280000NNE   20220118121934EJ  1C0C  00004000000000104000000152432EJ    EJYKBO  002700430014
BI00B32EJ    T220117P01     202202177158-3169-40             SEALING PLUG             CCN001040000001040000FN00000000020220201001040000NNE   20220118121934EJ  1C0C  00004000000000156000000204132EJ    EJYKBO  004300260014
BI00B32EJ    T220117P02     202203037283-5574-10             CONNECTOR                CCN000005600000005600FN00000000020220301000005600NNE   20220118121934EJ  4N0N  00000080000001235000001435232EJ    EJYKBO  005500360039
BI00B32EJ    T220117P02     202203037158-3070-80             RUBBER STOPPER           CCN000120000000120000FN00000000020220301000120000NNE   20220118121934EJ  1C0C  00004000000000276000000333332EJ    EJYKBO  002700430014
BI00B32G7    JJ2203A MW     202203107287-1915                CONNECTOR ASS'Y          CCN000012000000012000FN00000000020220301000012000NNED0220220118164901    4N0N  00000240000000666500000923132G7    JIJAI   005500360039
BI00B32G7    JJ2203A MW     202203247289-3342-30             HOUSING FEMALE ASS'Y     CCN000021600000021600FN00000000020220301000021600NNED0420220118152123    1N0N  00000240000000686400000901432G7    JIJAI   005500360039
BI00B32G7    JJ2203AMMW     202203247289-3342                HOUSING FEMALE ASS'Y     CCN000004800000004800FN00000000020220301000004800NNED0420220118152038    1N0N  00000240000000686400000901432G7    JIJAI   005500360039
BI00B32H0    TT2203DVMW     202202087283-4855                CONNECTOR HOUSING        CCN000002400000002400FN00000000020220301000002400NNE   20220118142928    4N0N  00000240000001188400001400032H0    TTTJY   005500360039
BI00B32H0    TT2203DVMW     202202087288-6547                CONNECTOR MALE ASS'Y     CCN000000750000000750FN00000000020220301000000750NNE   20220118142928    4N0N  00000075000001205300001340332H0    TTTJY   005400370024
BI00B32H0    TT2203DVMW     202202087289-6547                HOUSING FEMALE ASS'Y     CCN000002400000002400FN00000000020220301000002400NNE   20220118142928    1N0N  00000240000001152000001362032H0    TTTJY   005500360039
BI00B32J1    #388946        202201247282-6446-30             CONNECTOR                CCN000001500000001500FN00000000020220101000001500NNED0020220118152714    2N0N  00000150000001185000001335032J1    UKYEL-BL005500360039
BI00B32J1    #388947        202201247282-6446-30             CONNECTOR                CCN000003000000003000FN00000000020220201000003000NNED0020220118153013    2N0N  00000150000001185000001335032J1    UKYEL-BL005500360039
BI00B32J1    389442         202201247235-8662                DOOR GROMMET             CCN000003040000003040FN00000000020220101000003040NNED0020220118121934    4N0N  00000016000000844000001010032J1    UKYEL-BL005500360039
BI00B32J1    #390112        202201247157-3821                RUBBER STOPPER           CCN000020000000020000FN00000000020220101000020000NNMD0020220118130803    2C0C  00002000000000176000000238032J1    UKYEL-BL002700430014
BI00B32J1    #390112        202201247158-3003-90             RUBBER STOPPER           CCN000120000000120000FN00000000020220101000120000NNMD0020220118163125    2C0C  00002000000000250000000306032J1    UKYEL-BL002700430014
BI00B32J1    #390112        202201247158-3004-40             RUBBER STOPPER           CCN000060000000060000FN00000000020220101000060000NNMD0020220118130820    2C0C  00002000000000234000000306332J1    UKYEL-BL002700430014
BI00B32J1    #390112        202201247158-3008-80             RUBBER STOPPER           CCN000020000000020000FN00000000020220101000020000NNMD0020220118140731    2C0C  00002000000000288000000343032J1    UKYEL-BL004300270014
BI00B32J1    #390112        202201247158-3120-90             CONNECTOR WIRE SEAL      CCN000200000000200000FN00000000020220101000200000NNMD0020220118130925    2C0C  00002000000000136000000194032J1    UKYEL-BL002700430014
BI00B32J1    #390112        202201247158-3121-80             WIRE SEAL                CCN000040000000040000FN00000000020220101000040000NNMD0020220118163115    2C0C  00002000000000118000000187332J1    UKYEL-BL002700430014
BI00B32J1    #390112        202201247158-3376-50             CONNECTOR WIRE SEAL      CCN000040000000040000FN00000000020220101000040000NNMD0020220118130836    2C0C  00002000000000184000000240732J1    UKYEL-BL002700430014
BI00B32J1    #390112        202201247283-8226-30             CONNECTOR                CCN000006000000006000FN00000000020220101000006000NNMD0020220118130943    2N0N  00000200000000820000001008032J1    UKYEL-BL005400370024
BI00B32J1    #390382        202201247157-3646                RUBBER STOPPER           CCN000020000000020000FN00000000020220201000020000NNMD0020220118131049    2H0H  00002000000000184000000255232J1    UKYEL-BL002700430014
BI00B32J1    #390382        202201247157-3821                RUBBER STOPPER           CCN000060000000060000FN00000000020220201000060000NNMD0020220118131003    2C0C  00002000000000176000000238032J1    UKYEL-BL002700430014
BI00B32J1    #390382        202201247158-3004-40             RUBBER STOPPER           CCN000020000000020000FN00000000020220201000020000NNMD0420220118131018    2C0C  00002000000000234000000306332J1    UKYEL-BL002700430014
BI00B32J1    #390382        202201247158-3120-90             CONNECTOR WIRE SEAL      CCN000140000000140000FN00000000020220201000140000NNMD0420220118131034    2C0C  00002000000000136000000194032J1    UKYEL-BL002700430014
BI00B32J1    #390382        202201247158-3374-90             CONNECTOR WIRE SEAL      CCN000020000000020000FN00000000020220201000020000NNMD0020220118131104    2H0H  00002000000000172000000229332J1    UKYEL-BL002700430014
BI00B32J1    #390382        202201247174-1164                COVER                    CCN000000800000000800FN00000000020220201000000800NNMD0020220118121934    2F0F  00000080000000592000000712032J1    UKYEL-BL005500360039
BI00B32J1    #390382        202201247283-8226-30             CONNECTOR                CCN000016000000016000FN00000000020220201000016000NNMD0020220118131122    2N0N  00000200000000820000001008032J1    UKYEL-BL005400370024
BI00B32M1    QA-22-C001     202201207289-3342                HOUSING FEMALE ASS'Y     PNY000024000000024000FN00000000020220101000024000NNE00020220118131346    1N0N  00000240000000686400000901432M1    VNYEV   005500360039
BI00B32M1    #QA-22-S002    202201207158-3008-80             RUBBER STOPPER           PNN000100000000100000FN00000000020220101000100000NNE   20220118154813    2C0C  00002000000000288000000343032M1    VNYEV   004300270014
BI00B32N1    NST2114B-1     202201277283-4855                CONNECTOR HOUSING        CCN000002000000000000FY00000000020220101000000000NNEQ0820220118154235    4N0N  00000240000001188400001400032N1    TAYIPL  005500360039
BI00B32N1    NST2116ECU     202202107114-4021                TERMINAL                 CCN000090000000090000FN00000000020220301000090000NNE   20220118150046    4P0P  00001500000000670500000964132N1    TAYIPL  006400630015
BI00B32N1    NST2116ECU     202202107116-1180                TERMINAL                 CCN000117000000117000FN00000000020220301000117000NNE   20220118150046    1P0P  00001950000000618200000903432N1    TAYIPL  006400630015
BI00B32N1    NST2116ECU     202202107116-1473                TERMINAL                 CCN000162000000162000FN00000000020220301000162000NNE   20220118150046    4P0P  00001350000000523800000809032N1    TAYIPL  006400630015
BI00B32N1    NST2116ECU     202202107283-1222                CONNECTOR                CCN000006000000006000FN00000000020220301000006000NNE   20220118150046    4N0N  00000120000000852000001011032N1    TAYIPL  005500360039
BI00B32N1    NST2116ECU     202202107283-5830                CONNECTOR                CCN000024000000024000FN00000000020220301000024000NNE   20220118150046    1N47  00000600000000954000001104032N1    TAYIPL  005500360039
BI00B32N1    NST2116ECU     202202107283-5845                CONNECTOR HOUSING        CCN000006000000006000FN00000000020220301000006000NNE   20220118150046    1N0N  00000600000000444000000606332N1    TAYIPL  005400370024
BI00B32N1    NST2116ECU     202202107283-8630                CONNECTOR ASS'Y          CCN000042000000042000FN00000000020220301000042000NNE   20220118150046    4N0N  00000600000000540000000701332N1    TAYIPL  005400370024
BI00B32N1    NST2116ECU     202202107114-4415-02             TERMINAL MALE            CCN000243000000243000FN00000000020220301000243000NNE   20220118150046    4P0P  00002700000000429300000717532N1    TAYIPL  006400630015
BI00B32N1    NST2116ECU     202202107116-1486-02             TERMINAL                 CCN000016500000016500FN00000000020220301000016500NNE   20220118150046    4P0P  00001650000000655100000940332N1    TAYIPL  006400630015
BI00B32N1    NST2116ECU     202202107116-4415-02             TERMINAL                 CCN001482000001482000FN00000000020220301001482000NNE   20220118150046    4P0P  00003800000000596600000925732N1    TAYIPL  006400630017
BI00B32N1    NST2116ECU     202202107158-3006-90             RUBBER STOPPER           CCN000080000000080000FN00000000020220301000080000NNE   20220118150046    1C0C  00002000000000330600000386032N1    TAYIPL  002700430014
BI00B32N1    NST2116ECU     202202107158-3070-80             RUBBER STOPPER           CCN000320000000320000FN00000000020220301000320000NNE   20220118150046    1C0C  00004000000000276000000333332N1    TAYIPL  002700430014
BI00B32N1    NST2116ECU     202202107158-3166-60             WIRE SEAL                CCN002040000002040000FN00000000020220301002040000NNE   20220118150046    1C0C  00004000000000104000000152432N1    TAYIPL  002700430014
BI00B32N1    NST2116ECU     202202107158-3167-80             WIRE SEAL                CCN001360000001360000FN00000000020220301001360000NNE   20220118150046    1C0C  00002000000000048000000109032N1    TAYIPL  002700430014
BI00B32N1    NST2116ECU     202202107158-3168-80             SEALED                   CCN000800000000800000FN00000000020220301000800000NNE   20220118150046    1C0C  00002000000000044000000092132N1    TAYIPL  004300260014
BI00B32N1    NST2116ECU     202202107283-5830-30             CONNECTOR                CCN000036000000036000FN00000000020220301000036000NNE   20220118150046    1N0N  00000600000000954000001104032N1    TAYIPL  005500360039
BI00B32N1    NST2116ECU     202202107288-3335-30             HOUSING MALE             CCN000010500000010500FN00000000020220301000010500NNE   20220118150046    4N0N  00000150000000867000001012032N1    TAYIPL  005400370024
BI00B32N1    NST2116ECU     202202107B58-3070-80             RUBBER STOPPER           CCN000240000000240000FN00000000020220301000240000NNE   20220118150046    1C0C  00004000000000276000000333032N1    TAYIPL  004300270014
BI00B32N1    #NST2116ECU    202202107116-4021                TERMINAL                 CCN000094500000094500FN00000000020220301000094500NNE   20220118150041    2F0P  00001350000000534600000868832N1    TAYIPL  006400630015
BI00B32N1    #NST2116ECU    202202107157-7812                SEAL RUBBER              CCN000050000000050000FN00000000020220301000050000NNE   20220118150041    2C0C  00001000000000137000000202032N1    TAYIPL  002700430014
BI00B32N1    #NST2116ECU    202202107183-1616                CONNECTOR HOUSING        CCN000016800000016800FN00000000020220301000016800NNE   20220118150041    2F0F  00000240000000557500000823332N1    TAYIPL  005500360039
BI00B32N1    #NST2116ECU    202202107282-7424                CONNECTOR                CCN000012000000012000FN00000000020220301000012000NNE   20220118150041    2N0N  00000400000001064000001243032N1    TAYIPL  005500360039
BI00B32N1    #NST2116ECU    202202107283-5831                CONNECTOR                CCN000012000000012000FN00000000020220301000012000NNE   20220118150041    2N0N  00000300000000750000000880032N1    TAYIPL  005400370024
BI00B32N1    #NST2116ECU    202202107157-3950-80             SEAL RUBBER              CCN000240000000240000FN00000000020220301000240000NNE   20220118150041    2C0C  00004000000000154000000440332N1    TAYIPL  002700430014
BI00B32N1    #NST2116ECU    202202107157-3952-80             RUBBER STOPPER           CCN000010000000010000FN00000000020220301000010000NNE   20220118150041    2C0C  00001000000000117000000175032N1    TAYIPL  002700430014
BI00B32N1    #NST2116ECU    202202107158-3005-80             RUBBER STOPPER           CCN000040000000040000FN00000000020220301000040000NNE   20220118150041    2H0H  00002000000000210000000268732N1    TAYIPL  002700430014
BI00B32N1    #NST2116ECU    202202107158-3121-80             WIRE SEAL                CCN000040000000040000FN00000000020220301000040000NNE   20220118150041    2C0C  00002000000000118000000187332N1    TAYIPL  002700430014
BI00B32N1    #NST2116ECU    202202107183-7725-40             HOUSING                  CCN000006000000006000FN00000000020220301000006000NNE   20220118150041    2F0F  00000600000000840000001040032N1    TAYIPL  005600390040
BI00B32N1    #NST2116ECU    202202107283-5834-90             CONNECTOR ASS'Y          CCN000003240000003240FN00000000020220301000003240NNE   20220118150041    2N0N  00000324000001296000001736032N1    TAYIPL  005600390040
BI00B32N1    #NST2116ECU    202202107283-8730-30             HOUSING FEMALE ASS'Y     CCN000006000000006000FN00000000020220301000006000NNE   20220118150041    2N0N  00000200000000794000000906532N1    TAYIPL  005400370024
BI00B32N1    @NST2116ECU    202202107283-3030                HOUSING FEMALE ASS'Y     CCN000059200000059200FN00000000020220301000059200NNE   20220118150044    3N0N  00000160000001056300001303032N1    TAYIPL  005500360039
BI00A32P8    TAPI-201B1     202201197116-4114-02             TERMINAL                 CCN000010500000010500FN00000000020220101000010500NNM   20220118121934    4P0P  00001050000000693000000981232P8    YIYTM   006400630015
BI00B32Q8    EU2202MTMW     202202157327-6949-30             MULTI FUSE               CCN000000576000000576FN00000000020220201000000576NNED0420220118121934    4N00  00000028800000886700001052632Q8    EMEMI   005400370024
BI00B32Q8    EU2203DTMW     202203027327-6949-30             MULTI FUSE               CCN000000288000000288FN00000000020220301000000288NNED0420220118121934    4N00  00000028800000886700001052632Q8    EMEMI   005400370024
BI00B32Q8    EU22041TMW     202203167327-6949-30             MULTI FUSE               CCN000000576000000576FN00000000020220401000000576NNMD0420220118121934    4N00  00000028800000886700001052632Q8    EMEMI   005400370024
BI00B32Q8    EU22042TMW     202203237327-6949-30             MULTI FUSE               CCN000000864000000864FN00000000020220401000000864NNMD0420220118121934    4N00  00000028800000886700001052632Q8    EMEMI   005400370024
BI00B32Q8    EU22043TMW     202203307327-6949-30             MULTI FUSE               CCN000000576000000576FN00000000020220401000000576NNMD0420220118121934    4N00  00000028800000886700001052632Q8    EMEMI   005400370024
BI00B32Q8    EU22044TMW     202204207327-6949-30             MULTI FUSE               CCN000000288000000288FN00000000020220401000000288NNMD0420220118121934    4N00  00000028800000886700001052632Q8    EMEMI   005400370024
BI00B32Q8    EU22041TMW     202203157327-6950-30             MULTI FUSE               CCN000001728000001728FN00000000020220401000001728NNMD0420220118121934    4N00  00000028800000888700001054632Q8    EMEMI   005400370024
BI00B32Q8    EU22042TMW     202203237327-6950-30             MULTI FUSE               CCN000002304000002304FN00000000020220401000002304NNMD0420220118121934    4N00  00000028800000888700001054632Q8    EMEMI   005400370024
BI00B32Q8    EU22043TMW     202203307327-6950-30             MULTI FUSE               CCN000002304000002304FN00000000020220401000002304NNMD0420220118121934    4N00  00000028800000888700001054632Q8    EMEMI   005400370024
BI00B32Q8    QA-21-C134     202201267289-3342                HOUSING FEMALE ASS'Y     PNY000009115000009115FN00000000020220101000009115NNEQ0020220118121934    1N0N  00000240000000686400000901432Q8    EMEMI   005500360039
BI00B32R4    HZYSW2203018   202202157116-1230                TERMINAL                 CCN000013500000013500FN00000000020220301000013500NNM   20220118121934    4P0P  00001350000000664200000952432R4    HZHZYME 006400630015
BI00B32R7    R-TAP220027    202202037158-3169-40             SEALING PLUG             CCN000040000000040000FN00000000020220201000040000NNED0720220118121934    1C0C  00004000000000156000000204132R7    IVYCIC  004300260014
BI00B32U5    DI2006         202202047289-3342                HOUSING FEMALE ASS'Y     CCN000016800000016800FN00000000020220301000016800NNMD0420220118121934U5  1N0N  00000240000000686400000901432U5    AMAMSD  005500360039
BI00B32U5    DI2006         202202047289-3342-30             HOUSING FEMALE ASS'Y     CCN000028800000028800FN00000000020220301000028800NNMD0420220118121934U5  1N0N  00000240000000686400000901432U5    AMAMSD  005500360039
BI00B32U5    DI2009         202202117289-3342                HOUSING FEMALE ASS'Y     CCN000019200000019200FN00000000020220401000019200NNMD0420220118121934U5  1N0N  00000240000000686400000901432U5    AMAMSD  005500360039
BI00B32U5    DI2009         202202117289-3342-30             HOUSING FEMALE ASS'Y     CCN000048000000048000FN00000000020220401000048000NNMD0420220118121934U5  1N0N  00000240000000686400000901432U5    AMAMSD  005500360039
BI00B32U5    DI2010         202202187289-3342                HOUSING FEMALE ASS'Y     CCN000009600000009600FN00000000020220401000009600NNMD0420220118121934U5  1N0N  00000240000000686400000901432U5    AMAMSD  005500360039
BI00B32U5    DI2010         202202187289-3342-30             HOUSING FEMALE ASS'Y     CCN000043200000043200FN00000000020220401000043200NNMD0420220118121934U5  1N0N  00000240000000686400000901432U5    AMAMSD  005500360039
BI00B32U5    DI2011         202202257289-3342                HOUSING FEMALE ASS'Y     CCN000019200000019200FN00000000020220401000019200NNMD0420220118121934U5  1N0N  00000240000000686400000901432U5    AMAMSD  005500360039
BI00B32U5    DI2011         202202257289-3342-30             HOUSING FEMALE ASS'Y     CCN000033600000033600FN00000000020220401000033600NNMD0420220118121934U5  1N0N  00000240000000686400000901432U5    AMAMSD  005500360039
BI00B32U5    DI2012         202202257289-3342                HOUSING FEMALE ASS'Y     CCN000024000000024000FN00000000020220501000024000NNMD0420220118121934U5  1N0N  00000240000000686400000901432U5    AMAMSD  005500360039
BI00B32U5    DI2012         202203117289-3342-30             HOUSING FEMALE ASS'Y     CCN000036000000036000FN00000000020220501000036000NNMD0420220118121934U5  1N0N  00000240000000686400000901432U5    AMAMSD  005500360039
BI00B32U5    DI2006A        202203047289-3342-30             HOUSING FEMALE ASS'Y     CCN000028800000028800FN00000000020220301000028800NNED0420220118121934U5  1N0N  00000240000000686400000901432U5    AMAMSD  005500360039
BI00B32U5    DI2007B        202203187289-3342-30             HOUSING FEMALE ASS'Y     CCN000048000000048000FN00000000020220401000048000NNED0420220118121934U5  1N0N  00000240000000686400000901432U5    AMAMSD  005500360039
BI00B32U5    DI2007C        202203047289-3342                HOUSING FEMALE ASS'Y     CCN000024000000024000FN00000000020220401000024000NNED0420220118121934U5  1N0N  00000240000000686400000901432U5    AMAMSD  005500360039
BI00B32U5    DI2008A        202203117289-3342                HOUSING FEMALE ASS'Y     CCN000019200000019200FN00000000020220401000019200NNED0420220118121934U5  1N0N  00000240000000686400000901432U5    AMAMSD  005500360039
BI00B32U5    DI2008A        202203257289-3342-30             HOUSING FEMALE ASS'Y     CCN000043200000043200FN00000000020220401000043200NNED0420220118121934U5  1N0N  00000240000000686400000901432U5    AMAMSD  005500360039
BI00B32U5    DI2014         202203187289-3342                HOUSING FEMALE ASS'Y     CCN000024000000024000FN00000000020220501000024000NNMD0420220118152057U5  1N0N  00000240000000686400000901432U5    AMAMSD  005500360039
BI00B32U5    DI2014         202203257289-3342-30             HOUSING FEMALE ASS'Y     CCN000038400000038400FN00000000020220501000038400NNMD0420220118152145U5  1N0N  00000240000000686400000901432U5    AMAMSD  005500360039
BI00B32U5    DI2014         202204087C89-6868-30             SEALED ASSY FEMALE       CCN000005040000005040FN00000000020220501000005040NNMD0420220118121934U5  4N0N  00000252000000839200001119232U5    AMAMSD  005500360039
BI00B32U9    TPA211         202203177289-6868-30             SEALED ASSY FEMALE       CCN000020160000020160FN00000000020220301000020160NNMD0420220118121934U9  4N0N  00000252000000839200001119232U9    YNYNA-E 005500360039
BI00B32W4    4500184529     202201197282-4855                HOUSING MALE ASS'Y       CCN000001200000001200FN00000000020220101000001200NNE00020220118154944W4K84N0N  00000120000001063200001283232W4K8  HJYHK-J 005500360039
BI00A32W4    4500186724     202201247283-1020                CONNECTOR                CCN000006000000006000FN00000000020220201000006000NNEM0020220118121934W4654N0N  00000600000000840000001049332W465  HJYHK   005600390040
BI00B32W4    #4500187362    202201277289-4104-40             HOUSING FEMALE ASS'Y     CCN000019000000019000FN00000000020220201000019000NNED0020220118121934W4652NON  00000050000000606900000821132W465  HJYHK   005400370024
BI00A32W4    4500187674     202201247283-1020                CONNECTOR                CCN000006000000006000FN00000000020220301000006000NNEM0020220118121934W4654N0N  00000600000000840000001049332W465  HJYHK   005600390040
BI00B32W4    4500187827     202204077289-6547                HOUSING FEMALE ASS'Y     CCN000002400000002400FN00000000020220301000002400NNED0420220118164930W4D41N0N  00000240000001152000001362032W4D4  HJYHK-J 005500360039
BI00B32W4    4500187827     202204077289-9553-50             SEALED ASSY FEMALE       CCN000002940000002940FN00000000020220301000002940NNED0420220118121934W4D44N0N  00000294000001108100001520632W4D4  HJYHK-J 005500360039
BI00B32W4    4500187827     202204077289-6868-30             SEALED ASSY FEMALE       CCN000005040000005040FN00000000020220301000005040NNED0420220118121934W4D44N0N  00000252000000839200001119232W4D4  HJYHK-J 005500360039
BI00B32W4    4500187827     202204077298-1145-4W             SQUIB SUB ASS'Y          CCN000010000000010000FN00000000020220301000010000NNED0420220118121934W4D44N0N  00001000000000787900000944932W4D4  HJYHK-J 005400370024
BI00B32W4    4500187827     202203107289-3342-30             HOUSING FEMALE ASS'Y     CCN000012000000012000FN00000000020220301000012000NNED0420220118152204W4D41N0N  00000240000000686400000901432W4D4  HJYHK-J 005500360039
BI00B32W4    4500187915     202202247116-1685                TERMINAL                 CCN000024000000024000FN00000000020220201000024000NNE   20220118121934W4244P0P  00002400000000892800001067232W424  HJYHK   005100280028
BI00B32W4    4500187915     202202247116-1686                TERMINAL                 CCN000021000000021000FN00000000020220201000021000NNE   20220118121934W4244P0P  00002100000000861000001045632W424  HJYHK   005100280028
BI00B32W4    4500187919     202203317440-9108-0W             I/PNL J/B COMPLETE       CCN000000408000000408FN00000000020220301000000408NNE   20220118121934W4241J0J  00000002400001214000001497332W424  HJYHK   005500360039
BI00B32W4    4500187921     202203317116-1685                TERMINAL                 CCN000024000000024000FN00000000020220301000024000NNE   20220118121934W4244P0P  00002400000000892800001067232W424  HJYHK   005100280028
BI00B32W4    4500187924     202203247282-4855                HOUSING MALE ASS'Y       CCN000002400000002400FN00000000020220301000002400NNE   20220118121934W4594N0N  00000120000001063200001283232W459  HJYHK   005500360039
BI00B32W4    4500187926     202203177114-5096-02             TERMINAL                 CCN000030000000030000FN00000000020220301000030000NNE   20220118121934W4594P0P  00003000000000498000000792232W459  HJYHK   006400630015
BI00B32W4    4500187926     202203177282-4855                HOUSING MALE ASS'Y       CCN000004800000004800FN00000000020220301000004800NNE   20220118121934W4594N0N  00000120000001063200001283232W459  HJYHK   005500360039
BI00B32W4    4500187926     202203177283-7029-40             CONNECTOR                CCN000018000000018000FN00000000020220301000018000NNE   20220118121934W4591N0N  00000600000001026000001200032W459  HJYHK   005600390023
BI00B32W4    4500187926     202203177158-3006-90             RUBBER STOPPER           CCN000100000000100000FN00000000020220301000100000NNE   20220118121934W4591C0C  00002000000000330600000386032W459  HJYHK   002700430014
BI00B32W4    #4500187926    202203177282-1030                CONNECTOR MALE ASS'Y     CCN000003000000003000FN00000000020220301000003000NNE   20220118121934W4592N0N  00000100000000365000000487532W459  HJYHK   005400370024
BI00B32W4    #4500187926    202203177157-3821                RUBBER STOPPER           CCN000020000000020000FN00000000020220301000020000NNE   20220118121934W4592C0C  00002000000000176000000238032W459  HJYHK   002700430014
BI00B32W4    4500187939     202203157158-3167-80             WIRE SEAL                CCN000400000000400000FN00000000020220301000400000NNE   20220118121934W41 1C0C  00002000000000048000000109032W41   HJYHK   002700430014
BI00B32W4    4500187939     202203157158-3169-40             SEALING PLUG             CCN000400000000400000FN00000000020220301000400000NNE   20220118121934W41 1C0C  00004000000000156000000204132W41   HJYHK   004300260014
BI00B32W4    4500187939     202203157158-3166-60             WIRE SEAL                CCN000520000000520000FN00000000020220301000520000NNE   20220118121934W41 1C0C  00004000000000104000000152432W41   HJYHK   002700430014
BI00B32W4    #4500187939    202203157172-5938-80             SEALED                   CCN000075000000075000FN00000000020220301000075000NNE   20220118121934W41 2H0H  00000500000000442500000490732W41   HJYHK   004300270014
BI00B32W4    4500187946     202203157017-1181-02             TERMINAL                 CCN000063000000063000FN00000000020220301000063000NNE   20220118121934W41 4P0P  00006300000001089900001266832W41   HJYHK   005100280028
BI00B32W4    4500187946     202203157017-1180-02             TERMINAL                 CCN000144000000144000FN00000000020220301000144000NNE   20220118121934W41 4P0P  00007200000001065600001229032W41   HJYHK   005100280028
BI00B32W4    4500187946     202203157283-8630                CONNECTOR ASS'Y          CCN000024000000024000FN00000000020220301000024000NNE   20220118121934W41 4N0N  00000600000000540000000701332W41   HJYHK   005400370024
BI00B32W4    4500187946     202203157114-1670-02             TERMINAL                 CCN000024000000024000FN00000000020220301000024000NNE   20220118121934W41 1P0P  00002400000000357600000645832W41   HJYHK   006400630015
BI00A32W4    4500187935     202203247116-4102-02             TERMINAL                 CCN000036000000036000FN00000000020220301000036000NNE   20220118121934W4L74P0P  00001200000000553200000841432W4L7  HJYHK-J 006400630015
BI00B32X5    TIB2014        202205277289-3342-30             HOUSING FEMALE ASS'Y     CCN000038400000038400FN00000000020220501000038400NNMD0420220118152236X5  1N0N  00000240000000686400000901432X5    EPYNA-E 005500360039
BI00B32X5    TIB2014        202203187289-3342-40             HOUSING FEMALE ASS'Y     CCN000012000000012000FN00000000020220501000012000NNMD0420220118152251X5  1N0N  00000240000000686400000901432X5    EPYNA-E 005500360039
BI00B32Y5    TTA32044       202202017288-6547                CONNECTOR MALE ASS'Y     CCN000002250000002250FN00000000020220401000002250NNMD0420220118134324    4N0N  00000075000001205300001340332Y5    BZYBL   005400370024
BI00B32Y5    TTA32044       202202157289-3342-30             HOUSING FEMALE ASS'Y     CCN000004800000004800FN00000000020220401000004800NNMD0420220118134600    1N0N  00000240000000686400000901432Y5    BZYBL   005500360039
BI00B32Y5    TTA32044       202202157289-3342-40             HOUSING FEMALE ASS'Y     CCN000002400000002400FN00000000020220401000002400NNMD0420220118134625    1N0N  00000240000000686400000901432Y5    BZYBL   005500360039
BI00B32Y5    TTA32041       202202157289-6547                HOUSING FEMALE ASS'Y     CCN000002400000002400FN00000000020220401000002400NNMD0420220118134611    1N0N  00000240000001152000001362032Y5    BZYBL   005500360039
BI00B32Y5    TTA32042       202202157289-6547                HOUSING FEMALE ASS'Y     CCN000002400000002400FN00000000020220401000002400NNMD0420220118134537    1N0N  00000240000001152000001362032Y5    BZYBL   005500360039
BI00B32Y5    TTA32043       202202157289-6547                HOUSING FEMALE ASS'Y     CCN000002400000002400FN00000000020220401000002400NNMD0420220118134530    1N0N  00000240000001152000001362032Y5    BZYBL   005500360039
BI00B32Y5    TTA32044       202202157289-6547                HOUSING FEMALE ASS'Y     CCN000002400000002400FN00000000020220401000002400NNMD0420220118134546    1N0N  00000240000001152000001362032Y5    BZYBL   005500360039
BI00B32Y5    TTA32041       202202157283-5845-40             CONNECTOR HOUSING        CCN000012000000012000FN00000000020220401000012000NNMD0420220118151622    1N0N  00000600000000444000000606332Y5    BZYBL   005400370024
