BI00B32AF    @TTB202D       20220218181B0911741              CAVSAS 0.3X3 GY          CCN000002750000002750FN00000000020220201000002750NNE   20220118142650    1W    00000025000002843000000000032AF    HBYHVTB 000000000000UT122001
BI00B32AG    @XG2203ALMW    20220202181E48031ZZ              CAVSAS-S 0.3X2 GY        CCN000006300000002100FN00000000020220301000002100NNE00 20220118112452    1W    00000035000002008700000000032AG    XGXGY   000000000000XV321001
BI00A32AG    @XG2203ALMW    20220120181E48031ZZ              CAVSAS-S 0.3X2 GY        CCN000004200000004200FN00000000020220301000004200NNE20 20220118114108    1W    00000035000002008700000000032AG    XGXGY   000000000000XV321001
BI00B32B6    W72012         202202181801W003940              IVSSH 0.5F W             CCN000025200000025200FN00000000020220501000025200NNE   20220118142738B6  1W    00000180000000625000000000032B6    AXARNE-M000000000000AW122009
BI00B32B6    W72012         202202181801W003941              IVSSH 0.5F GY            CCN000016200000016200FN00000000020220501000016200NNE   20220118142738B6  1W    00000180000000625000000000032B6    AXARNE-M000000000000AW122006
BI00B32B6    W72012         202202181801W003990              IVSSH 0.5F L             CCN000016200000016200FN00000000020220501000016200NNE   20220118142738B6  1W    00000180000000625000000000032B6    AXARNE-M000000000000AW122007
BI00B32B6    W72012         202202181801W003992              IVSSH 0.5F V             CCN000016200000016200FN00000000020220501000016200NNE   20220118142738B6  1W    00000180000000625000000000032B6    AXARNE-M000000000000AW122008
BI00B32B6    W72012         202202181801W004030              IVSSH 0.75F B            CCN000002600000002600FN00000000020220501000002600NNE   20220118142738B6  1W    00000130000000882000000000032B6    AXARNE-M000000000000AW122010
BI00B32B6    W72012         202202181801W004040              IVSSH 0.75F W            CCN000002600000002600FN00000000020220501000002600NNE   20220118142738B6  1W    00000130000000882000000000032B6    AXARNE-M000000000000AW122011
BI00B32B6    @W72012        20220218181B09039H7              CAVSAS 0.5X1 GY/W        CCN000002400000002400FN00000000020220501000002400NNE   20220118142736B6  1W    00000040000002263300000000032B6    AXARNE-M000000000000AW122005
BI00B32B6    W72013         202202251801W003950              IVSSH 0.5F R             CCN000009000000009000FN00000000020220501000009000NNM   20220118151616B6  1W    00000180000000625000000000032B6    AXARNE-M000000000000AW222003
BI00B32B6    W72013         202202251801W003961              IVSSH 0.5F LG            CCN000010800000010800FN00000000020220501000010800NNM   20220118151616B6  1W    00000180000000625000000000032B6    AXARNE-M000000000000AW222002
BI00B32B6    W72013         202202251801W003970              IVSSH 0.5F Y             CCN000012600000012600FN00000000020220501000012600NNM   20220118151616B6  1W    00000180000000625000000000032B6    AXARNE-M000000000000AW222004
BI00B32B6    W72013         202202251801W003990              IVSSH 0.5F L             CCN000012600000012600FN00000000020220501000012600NNM   20220118151616B6  1W    00000180000000625000000000032B6    AXARNE-M000000000000AW222001
BI00B32M4    TW2024B        202202241801W006930              IVSSH 0.35F B            CCN000017500000002500FN00000000020220201000002500NNE20 20220118103826    1W    00000250000000452000000000032M4    SISAI   000000000000GB222023
BI00A32M4    TW2024B        202201241801W006941              IVSSH 0.35F GY           CCN000007500000007500FN00000000020220201000007500NNE21 20220118104101    1W    00000250000000452000000000032M4    SISAI   000000000000GB222025
BI00B32M4    TW2024B        202202241801W006990              IVSSH 0.35F L            CCN000012500000005000FN00000000020220201000005000NNE20 20220118104432    1W    00000250000000452000000000032M4    SISAI   000000000000GB222026
BI00B32M4    TW2024B        202202241801W006950              IVSSH 0.35F R            CCN000012500000002500FN00000000020220201000002500NNE20 20220118104321    1W    00000250000000452000000000032M4    SISAI   000000000000GB222028
BI00B32M4    TW2024B        202202241801W006991              IVSSH 0.35F SB           CCN000007500000002500FN00000000020220201000002500NNE20 20220118104453    1W    00000250000000452000000000032M4    SISAI   000000000000GB222029
BI00A32M4    TW2024B        202201241801W006940              IVSSH 0.35F W            CCN000007500000007500FN00000000020220201000007500NNE21 20220118103841    1W    00000250000000452000000000032M4    SISAI   000000000000GB222030
BI00A32M4    TW2024B        202201241801W003930              IVSSH 0.5F B             CCN000019800000019800FN00000000020220201000019800NNE21 20220118104510    1W    00000180000000625000000000032M4    SISAI   000000000000GB222004
BI00B32M4    TW2024B        202202241801W003941              IVSSH 0.5F GY            CCN000009000000001800FN00000000020220201000001800NNE20 20220118104731    1W    00000180000000625000000000032M4    SISAI   000000000000GB222007
BI00B32M4    TW2024B        202202241801W003990              IVSSH 0.5F L             CCN000032400000009000FN00000000020220201000009000NNE20 20220118103750    1W    00000180000000625000000000032M4    SISAI   000000000000GB222008
BI00A32M4    TW2024B        202201241801W003961              IVSSH 0.5F LG            CCN000010800000010800FN00000000020220201000010800NNE21 20220118103639    1W    00000180000000625000000000032M4    SISAI   000000000000GB222009
BI00B32M4    TW2024B        202202241801W003952              IVSSH 0.5F P             CCN000010800000003600FN00000000020220201000003600NNE20 20220118104829    1W    00000180000000625000000000032M4    SISAI   000000000000GB222010
BI00B32M4    TW2024B        202202241801W003950              IVSSH 0.5F R             CCN000027000000001800FN00000000020220201000001800NNE20 20220118104758    1W    00000180000000625000000000032M4    SISAI   000000000000GB222011
BI00A32M4    TW2024B        202201241801W003991              IVSSH 0.5F SB            CCN000005400000005400FN00000000020220201000005400NNE21 20220118104523    1W    00000180000000625000000000032M4    SISAI   000000000000GB222012
BI00A32M4    TW2024B        202201241801W003940              IVSSH 0.5F W             CCN000016200000016200FN00000000020220201000016200NNE21 20220118104707    1W    00000180000000625000000000032M4    SISAI   000000000000GB222014
BI00B32M4    TW2024B        202202241801W003970              IVSSH 0.5F Y             CCN000030600000007200FN00000000020220201000007200NNE20 20220118103716    1W    00000180000000625000000000032M4    SISAI   000000000000GB222016
BI00A32M4    TW2024B        202201241801W004030              IVSSH 0.75F B            CCN000006500000006500FN00000000020220201000006500NNE21 20220118104617    1W    00000130000000882000000000032M4    SISAI   000000000000GB222017
BI00B32M4    TW2024B        202202241801W004040              IVSSH 0.75F W            CCN000003900000001300FN00000000020220201000001300NNE20 20220118104645    1W    00000130000000882000000000032M4    SISAI   000000000000GB222022
BI00B32M4    TW2025C        202202101801W006941              IVSSH 0.35F GY           CCN000005000000002500FN00000000020220201000002500NNE20 20220118104043    1W    00000250000000452000000000032M4    SISAI   000000000000GO421018
BI00B32M4    TW2025C        202202101801W006950              IVSSH 0.35F R            CCN000007500000007500FN00000000020220201000007500NNE00 20220118104201    1W    00000250000000452000000000032M4    SISAI   000000000000GO421020
BI00B32M4    TW2025C        202202101801W006940              IVSSH 0.35F W            CCN000005000000002500FN00000000020220201000002500NNE20 20220118103926    1W    00000250000000452000000000032M4    SISAI   000000000000GO421022
BI00A32M4    TW2025C        202201241801W006970              IVSSH 0.35F Y            CCN000007500000007500FN00000000020220201000007500NNE21 20220118104353    1W    00000250000000452000000000032M4    SISAI   000000000000GO421023
BI00A32M4    TW2025C        202201241801W003960              IVSSH 0.5F G             CCN000007200000007200FN00000000020220201000007200NNE21 20220118104915    1W    00000180000000625000000000032M4    SISAI   000000000000GO421004
BI00B32M4    TW2025C        202202101801W003991              IVSSH 0.5F SB            CCN000003600000001800FN00000000020220201000001800NNE20 20220118104550    1W    00000180000000625000000000032M4    SISAI   000000000000GO421010
BI00A32M4    TW2025C        202201241801W003943              IVSSH 0.5F W/B           CCN000007200000007200FN00000000020220201000007200NNE21 20220118104857    1W    00000180000000625000000000032M4    SISAI   000000000000GO421012
BI00A32M4    TW2024B        202201241801W003970              IVSSH 0.5F Y             CCN000023400000023400FN00000000020220201000023400NNE21 20220118103716    1W    00000180000000625000000000032M4    SISAI   000000000000GB222016
BI00A32M4    TW2024B        202201241801W003990              IVSSH 0.5F L             CCN000023400000023400FN00000000020220201000023400NNE21 20220118103750    1W    00000180000000625000000000032M4    SISAI   000000000000GB222008
BI00A32M4    TW2024B        202201241801W006930              IVSSH 0.35F B            CCN000015000000015000FN00000000020220201000015000NNE21 20220118103826    1W    00000250000000452000000000032M4    SISAI   000000000000GB222023
BI00A32M4    TW2025C        202201241801W006940              IVSSH 0.35F W            CCN000002500000002500FN00000000020220201000002500NNE21 20220118103926    1W    00000250000000452000000000032M4    SISAI   000000000000GO421022
BI00A32M4    TW2025C        202201241801W006941              IVSSH 0.35F GY           CCN000002500000002500FN00000000020220201000002500NNE21 20220118104043    1W    00000250000000452000000000032M4    SISAI   000000000000GO421018
BI00A32M4    TW2024B        202201241801W006950              IVSSH 0.35F R            CCN000010000000010000FN00000000020220201000010000NNE21 20220118104321    1W    00000250000000452000000000032M4    SISAI   000000000000GB222028
BI00A32M4    TW2024B        202201241801W006990              IVSSH 0.35F L            CCN000007500000007500FN00000000020220201000007500NNE21 20220118104432    1W    00000250000000452000000000032M4    SISAI   000000000000GB222026
BI00A32M4    TW2024B        202201241801W006991              IVSSH 0.35F SB           CCN000005000000005000FN00000000020220201000005000NNE21 20220118104453    1W    00000250000000452000000000032M4    SISAI   000000000000GB222029
BI00A32M4    TW2025C        202201241801W003991              IVSSH 0.5F SB            CCN000001800000001800FN00000000020220201000001800NNE21 20220118104550    1W    00000180000000625000000000032M4    SISAI   000000000000GO421010
BI00A32M4    TW2024B        202201241801W004040              IVSSH 0.75F W            CCN000002600000002600FN00000000020220201000002600NNE21 20220118104645    1W    00000130000000882000000000032M4    SISAI   000000000000GB222022
BI00A32M4    TW2024B        202201241801W003941              IVSSH 0.5F GY            CCN000007200000007200FN00000000020220201000007200NNE21 20220118104731    1W    00000180000000625000000000032M4    SISAI   000000000000GB222007
BI00A32M4    TW2024B        202201241801W003950              IVSSH 0.5F R             CCN000025200000025200FN00000000020220201000025200NNE21 20220118104758    1W    00000180000000625000000000032M4    SISAI   000000000000GB222011
BI00A32M4    TW2024B        202201241801W003952              IVSSH 0.5F P             CCN000007200000007200FN00000000020220201000007200NNE21 20220118104829    1W    00000180000000625000000000032M4    SISAI   000000000000GB222010
BI00B32X5    TWB2007A       202202111801W006940              IVSSH 0.35F W            CCN000030000000030000FN00000000020220401000030000NNE   20220118154437X5  1W    00000250000000452000000000032X5    EPYNA-E 000000000000AD421001
BI00B32X5    TWB2007B       202202181801W006940              IVSSH 0.35F W            CCN000030000000030000FN00000000020220401000030000NNE   20220118154439X5  1W    00000250000000452000000000032X5    EPYNA-E 000000000000AH122001
BI00B32X5    TWB2012        202202181801W00395U              IVSSH 0.5F BE            CCN000003600000003600FN00000000020220501000003600NNE   20220118154441X5  1W    00000180000000625000000000032X5    EPYNA-E 000000000000AE122001
BI00B32X5    TWB2012        202202181801W003961              IVSSH 0.5F LG            CCN000001800000001800FN00000000020220501000001800NNE   20220118154441X5  1W    00000180000000625000000000032X5    EPYNA-E 000000000000AE122003
BI00B32X5    TWB2012        202202181801W003990              IVSSH 0.5F L             CCN000007200000007200FN00000000020220501000007200NNE   20220118154441X5  1W    00000180000000625000000000032X5    EPYNA-E 000000000000AE122002
BI00B32X5    TWB2012        202202181801W004030              IVSSH 0.75F B            CCN000002600000002600FN00000000020220501000002600NNE   20220118154441X5  1W    00000130000000882000000000032X5    EPYNA-E 000000000000AE122004
BI00B32X5    TWB2012        202202181801W004052              IVSSH 0.75F P            CCN000002600000002600FN00000000020220501000002600NNE   20220118154441X5  1W    00000130000000882000000000032X5    EPYNA-E 000000000000AE122007
BI00B32X5    TWB2012        202202181801W004060              IVSSH 0.75F G            CCN000001300000001300FN00000000020220501000001300NNE   20220118154441X5  1W    00000130000000882000000000032X5    EPYNA-E 000000000000AE122005
BI00B32X5    TWB2012        202202181801W004070              IVSSH 0.75F Y            CCN000002600000002600FN00000000020220501000002600NNE   20220118154441X5  1W    00000130000000882000000000032X5    EPYNA-E 000000000000AE122009
BI00B32X5    TWB2012        202202181801W004090              IVSSH 0.75F L            CCN000002600000002600FN00000000020220501000002600NNE   20220118154441X5  1W    00000130000000882000000000032X5    EPYNA-E 000000000000AE122006
BI00B32X5    TWB2012        202202181801W004092              IVSSH 0.75F V            CCN000002600000002600FN00000000020220501000002600NNE   20220118154441X5  1W    00000130000000882000000000032X5    EPYNA-E 000000000000AE122008
BI00B32X5    TWB2012        202202181801W006930              IVSSH 0.35F B            CCN000025000000025000FN00000000020220501000025000NNE   20220118154441X5  1W    00000250000000452000000000032X5    EPYNA-E 000000000000AE122010
BI00B32X5    TWB2012        202202181801W006940              IVSSH 0.35F W            CCN000035000000035000FN00000000020220501000035000NNE   20220118154441X5  1W    00000250000000452000000000032X5    EPYNA-E 000000000000AE122016
BI00B32X5    TWB2012        202202181801W006943              IVSSH 0.35F W/B          CCN000012500000012500FN00000000020220501000012500NNE   20220118154441X5  1W    00000250000000452000000000032X5    EPYNA-E 000000000000AE122017
BI00B32X5    TWB2012        202202181801W006950              IVSSH 0.35F R            CCN000020000000020000FN00000000020220501000020000NNE   20220118154441X5  1W    00000250000000452000000000032X5    EPYNA-E 000000000000AE122014
BI00B32X5    TWB2012        202202181801W006952              IVSSH 0.35F P            CCN000002500000002500FN00000000020220501000002500NNE   20220118154441X5  1W    00000250000000452000000000032X5    EPYNA-E 000000000000AE122013
BI00B32X5    TWB2012        202202181801W006980              IVSSH 0.35F BR           CCN000002500000002500FN00000000020220501000002500NNE   20220118154441X5  1W    00000250000000452000000000032X5    EPYNA-E 000000000000AE122011
BI00B32X5    TWB2012        202202181801W006990              IVSSH 0.35F L            CCN000002500000002500FN00000000020220501000002500NNE   20220118154441X5  1W    00000250000000452000000000032X5    EPYNA-E 000000000000AE122012
BI00B32X5    TWB2012        202202181801W006992              IVSSH 0.35F V            CCN000005000000005000FN00000000020220501000005000NNE   20220118154441X5  1W    00000250000000452000000000032X5    EPYNA-E 000000000000AE122015
BI00B32X5    TWB2013        202202251801W003943              IVSSH 0.5F W/B           CCN000001800000001800FN00000000020220501000001800NNM   20220118154443X5  1W    00000180000000625000000000032X5    EPYNA-E 000000000000AE222002
BI00B32X5    TWB2013        202202251801W00395U              IVSSH 0.5F BE            CCN000001800000001800FN00000000020220501000001800NNM   20220118154443X5  1W    00000180000000625000000000032X5    EPYNA-E 000000000000AE222001
BI00B32X5    TWB2013        202202251801W004060              IVSSH 0.75F G            CCN000001300000001300FN00000000020220501000001300NNM   20220118154443X5  1W    00000130000000882000000000032X5    EPYNA-E 000000000000AE222003
BI00B32X5    TWB2013        202202251801W006930              IVSSH 0.35F B            CCN000032500000032500FN00000000020220501000032500NNM   20220118154443X5  1W    00000250000000452000000000032X5    EPYNA-E 000000000000AE222004
BI00B32X5    TWB2013        202202251801W006940              IVSSH 0.35F W            CCN000035000000035000FN00000000020220501000035000NNM   20220118154443X5  1W    00000250000000452000000000032X5    EPYNA-E 000000000000AE222010
BI00B32X5    TWB2013        202202251801W006943              IVSSH 0.35F W/B          CCN000012500000012500FN00000000020220501000012500NNM   20220118154443X5  1W    00000250000000452000000000032X5    EPYNA-E 000000000000AE222011
BI00B32X5    TWB2013        202202251801W006950              IVSSH 0.35F R            CCN000020000000020000FN00000000020220501000020000NNM   20220118154443X5  1W    00000250000000452000000000032X5    EPYNA-E 000000000000AE222008
BI00B32X5    TWB2013        202202251801W006952              IVSSH 0.35F P            CCN000002500000002500FN00000000020220501000002500NNM   20220118154443X5  1W    00000250000000452000000000032X5    EPYNA-E 000000000000AE222007
BI00B32X5    TWB2013        202202251801W006970              IVSSH 0.35F Y            CCN000010000000010000FN00000000020220501000010000NNM   20220118154443X5  1W    00000250000000452000000000032X5    EPYNA-E 000000000000AE222012
BI00B32X5    TWB2013        202202251801W006980              IVSSH 0.35F BR           CCN000002500000002500FN00000000020220501000002500NNM   20220118154443X5  1W    00000250000000452000000000032X5    EPYNA-E 000000000000AE222005
BI00B32X5    TWB2013        202202251801W006990              IVSSH 0.35F L            CCN000005000000005000FN00000000020220501000005000NNM   20220118154443X5  1W    00000250000000452000000000032X5    EPYNA-E 000000000000AE222006
BI00B32X5    TWB2013        202202251801W006992              IVSSH 0.35F V            CCN000002500000002500FN00000000020220501000002500NNM   20220118154443X5  1W    00000250000000452000000000032X5    EPYNA-E 000000000000AE222009
BI00B32X5    TWB2014        202203041801W003930              IVSSH 0.5F B             CCN000003600000003600FN00000000020220501000003600NNE   20220118154442X5  1W    00000180000000625000000000032X5    EPYNA-E 000000000000AE322001
BI00B32X5    TWB2014        202203041801W003943              IVSSH 0.5F W/B           CCN000001800000001800FN00000000020220501000001800NNE   20220118154442X5  1W    00000180000000625000000000032X5    EPYNA-E 000000000000AE322002
BI00B32X5    TWB2014        202203041801W004040              IVSSH 0.75F W            CCN000001300000001300FN00000000020220501000001300NNE   20220118154442X5  1W    00000130000000882000000000032X5    EPYNA-E 000000000000AE322006
BI00B32X5    TWB2014        202203041801W004060              IVSSH 0.75F G            CCN000001300000001300FN00000000020220501000001300NNE   20220118154442X5  1W    00000130000000882000000000032X5    EPYNA-E 000000000000AE322003
BI00B32X5    TWB2014        202203041801W004090              IVSSH 0.75F L            CCN000002600000002600FN00000000020220501000002600NNE   20220118154442X5  1W    00000130000000882000000000032X5    EPYNA-E 000000000000AE322004
BI00B32X5    TWB2014        202203041801W004092              IVSSH 0.75F V            CCN000001300000001300FN00000000020220501000001300NNE   20220118154442X5  1W    00000130000000882000000000032X5    EPYNA-E 000000000000AE322005
BI00B32X5    TWB2014        202203041801W006930              IVSSH 0.35F B            CCN000025000000025000FN00000000020220501000025000NNE   20220118154442X5  1W    00000250000000452000000000032X5    EPYNA-E 000000000000AE322007
BI00B32X5    TWB2014        202203041801W006940              IVSSH 0.35F W            CCN000035000000035000FN00000000020220501000035000NNE   20220118154442X5  1W    00000250000000452000000000032X5    EPYNA-E 000000000000AE322012
BI00B32X5    TWB2014        202203041801W006943              IVSSH 0.35F W/B          CCN000010000000010000FN00000000020220501000010000NNE   20220118154442X5  1W    00000250000000452000000000032X5    EPYNA-E 000000000000AE322013
BI00B32X5    TWB2014        202203041801W006950              IVSSH 0.35F R            CCN000017500000017500FN00000000020220501000017500NNE   20220118154442X5  1W    00000250000000452000000000032X5    EPYNA-E 000000000000AE322010
BI00B32X5    TWB2014        202203041801W006952              IVSSH 0.35F P            CCN000002500000002500FN00000000020220501000002500NNE   20220118154442X5  1W    00000250000000452000000000032X5    EPYNA-E 000000000000AE322009
BI00B32X5    TWB2014        202203041801W006970              IVSSH 0.35F Y            CCN000012500000012500FN00000000020220501000012500NNE   20220118154442X5  1W    00000250000000452000000000032X5    EPYNA-E 000000000000AE322014
BI00B32X5    TWB2014        202203041801W006990              IVSSH 0.35F L            CCN000002500000002500FN00000000020220501000002500NNE   20220118154442X5  1W    00000250000000452000000000032X5    EPYNA-E 000000000000AE322008
BI00B32X5    TWB2014        202203041801W006992              IVSSH 0.35F V            CCN000002500000002500FN00000000020220501000002500NNE   20220118154442X5  1W    00000250000000452000000000032X5    EPYNA-E 000000000000AE322011
