BI00B32CH    @SJ2205AMMW    20220428181E48062ZZ              CAVSAS-S 0.5X2 GY/BR     CCN000000300000000300FN00000000020220501000000300NNE   20220325220157    1W    00000030000002561000000000032CH    SJSAMIJF000000000000QU224001
BI00B32G7    @JW2205ALMW    20220428181AD2021ZZ              CIVUSAS-S 0.35X2 B(L,GY) CCN000000450000000450FN00000000020220501000000450NNE   20220325220202    1W    00000045000001714000000000032G7    JIJAI   000000000000JN224001
BI00B32G7    @JW2205ALMW    20220428181AD2022ZZ              CIVUSAS-S 0.35X2 B(R,G)  CCN000000450000000450FN00000000020220501000000450NNE   20220325220202    1W    00000045000001714000000000032G7    JIJAI   000000000000JN224002
BI00B32Q8    EW2205A MW     2022042718007703750              AVSS 0.3F R              CCN000002000000002000FN00000000020220501000002000NNE   20220325220214    1W    00000200000000496000000000032Q8    EMEMI   000000000000MG224003
BI00B32Q8    EW2205A MW     2022042718007703941              AVSS 0.5F GY             CCN000013500000013500FN00000000020220501000013500NNE   20220325220214    1W    00000150000000674000000000032Q8    EMEMI   000000000000MG224004
BI00B32Q8    EW2205A MW     20220427180D0204030              AVSSH 0.75F B            CCN000002000000002000FN00000000020220501000002000NNE   20220325220214    1W    00000100000000934000000000032Q8    EMEMI   000000000000MG224002
BI00B32Q8    @EW2205A MW    20220427181E48041ZZ              CAVSAS-S 0.3X2 GY/R      CCN000001050000001050FN00000000020220501000001050NNE   20220325220212    1W    00000035000002008700000000032Q8    EMEMI   000000000000MG224001
BI00B32W4    4500189218     2022050318018403730              CAVS 0.3 B               CCN000028000000028000FN00000000020220401000028000NNE20 20220325214402W41 1W    00000200000000471000000000032W41   HJYHK-J 000000000000OW523006
BI00B32W4    4500189218     2022041218018403930              CAVS 0.5 B               CCN000036000000009000FN00000000020220401000009000NNE00 20220325214520W41 1W    00000150000000677000000000032W41   HJYHK-J 000000000000OW523015
BI00B32W4    4500189218     2022041218018403960              CAVS 0.5 G               CCN000013500000004500FN00000000020220401000004500NNE00 20220325214643W41 1W    00000150000000677000000000032W41   HJYHK-J 000000000000OW523019
BI00B32W4    4500189218     2022041218018403991              CAVS 0.5 SB              CCN000025500000012000FN00000000020220401000012000NNE00 20220325214900W41 1W    00000150000000677000000000032W41   HJYHK-J 000000000000OW523029
BI00B32W4    4500189218     2022050318018404030              CAVS 0.85 B              CCN000034000000034000FN00000000020220401000034000NNE20 20220325214921W41 1W    00000100000000965000000000032W41   HJYHK-J 000000000000OW523032
BI00B32W4    4500189218     2022041218018404050              CAVS 0.85 R              CCN000081000000050000FN00000000020220401000050000NNE00 20220325215104W41 1W    00000100000000965000000000032W41   HJYHK-J 000000000000OW523040
BI00B32W4    4500189218     2022050318018404051              CAVS 0.85 O              CCN000035000000035000FN00000000020220401000035000NNE20 20220325215750W41 1W    00000100000000965000000000032W41   HJYHK-J 000000000000OW523038
BI00B32W4    4500189218     2022050318018404052              CAVS 0.85 P              CCN000028000000028000FN00000000020220401000028000NNE20 20220325215750W41 1W    00000100000000965000000000032W41   HJYHK-J 000000000000OW523039
BI00B32W4    4500189218     2022050318018404060              CAVS 0.85 G              CCN000049000000049000FN00000000020220401000049000NNE20 20220325215750W41 1W    00000100000000965000000000032W41   HJYHK-J 000000000000OW523034
BI00B32W4    4500189218     2022050318018404070              CAVS 0.85 Y              CCN000065000000065000FN00000000020220401000065000NNE20 20220325215750W41 1W    00000100000000965000000000032W41   HJYHK-J 000000000000OW523044
BI00B32W4    4500189218     2022050318018404091              CAVS 0.85 SB             CCN000045000000045000FN00000000020220401000045000NNE20 20220325215750W41 1W    00000100000000965000000000032W41   HJYHK-J 000000000000OW523041
BI00B32W4    4500189218     2022050318018404092              CAVS 0.85 V              CCN000019000000019000FN00000000020220401000019000NNE20 20220325215750W41 1W    00000100000000965000000000032W41   HJYHK-J 000000000000OW523042
BI00B32W4    4500189218     2022050318018404140              CAVS 1.25 W              CCN000015200000015200FN00000000020220401000015200NNE20 20220325215750W41 1W    00000080000001378000000000032W41   HJYHK-J 000000000000OW523053
BI00B32W4    4500189218     2022050318018404170              CAVS 1.25 Y              CCN000016800000016800FN00000000020220401000016800NNE20 20220325215750W41 1W    00000080000001378000000000032W41   HJYHK-J 000000000000OW523054
BI00B32W4    4500189218     2022050318018403930              CAVS 0.5 B               CCN000027000000027000FN00000000020220401000027000NNE20 20220325214520W41 1W    00000150000000677000000000032W41   HJYHK-J 000000000000OW523015
BI00B32W4    4500189218     2022050318018403960              CAVS 0.5 G               CCN000009000000009000FN00000000020220401000009000NNE20 20220325214643W41 1W    00000150000000677000000000032W41   HJYHK-J 000000000000OW523019
BI00B32W4    4500189218     2022050318018403991              CAVS 0.5 SB              CCN000013500000013500FN00000000020220401000013500NNE20 20220325214900W41 1W    00000150000000677000000000032W41   HJYHK-J 000000000000OW523029
BI00B32W4    4500189218     2022050318018404050              CAVS 0.85 R              CCN000031000000031000FN00000000020220401000031000NNE20 20220325215104W41 1W    00000100000000965000000000032W41   HJYHK-J 000000000000OW523040
