BI00A1200    2399T51A24     202204257289-5979-30             HOUSING FEMALE ASS'Y     PCN000016632000008064FN00000000020211201000008064NNMD0420220326183751    1N0N  0000002520000085470000106471200    YCYC    005400370024
BI00A1200    2399T52115     202204287289-5979-30             HOUSING FEMALE ASS'Y     PCN000064512000004032FN00000000020220301000004032NNMD0420220326183925    1N0N  0000002520000085470000106471200    YCYC    005400370024
BI00A1200    2399T52114     202204217289-5979-30             HOUSING FEMALE ASS'Y     PCN000005796000002268FN00000000020220301000002268NNMD0420220326183215    1N0N  0000002520000085470000106471200    YCYC    005400370024
BI00B1200    2399T52316     202205057289-3342-30             HOUSING FEMALE ASS'Y     CCN000019200000019200FN00000000020220501000019200NNMD0420220326143739    1N0N  0000024000000068640000090141200    YCYC    005500360039
BI00A1200    2399T51A24     202204217289-5979-30             HOUSING FEMALE ASS'Y     PCN000009828000001764FN00000000020211201000001764NNMD0420220326182619    1N0N  0000002520000085470000106471200    YCYC    005400370024
BI00A1200    2399T51A24     202204197289-5979-30             HOUSING FEMALE ASS'Y     PCN000004032000004032FN00000000020211201000004032NNMD0420220326182444    1N0N  0000002520000085470000106471200    YCYC    005400370024
BI00A1200    2399T51A24     202204207289-5979-30             HOUSING FEMALE ASS'Y     PCN000004032000004032FN00000000020211201000004032NNMD0420220326182619    1N0N  0000002520000085470000106471200    YCYC    005400370024
BI00A1200    2399T52114     202204227289-5979-30             HOUSING FEMALE ASS'Y     PCN000003528000003528FN00000000020220301000003528NNMD0420220326183215    1N0N  0000002520000085470000106471200    YCYC    005400370024
BI00A1200    2399T51A24     202204227289-5979-30             HOUSING FEMALE ASS'Y     PCN000000504000000504FN00000000020211201000000504NNMD0420220326183751    1N0N  0000002520000085470000106471200    YCYC    005400370024
BI00A1200    2399T51A24     202204267289-5979-30             HOUSING FEMALE ASS'Y     PCN000004032000004032FN00000000020211201000004032NNMD0420220326183759    1N0N  0000002520000085470000106471200    YCYC    005400370024
BI00A1200    2399T51A24     202204277289-5979-30             HOUSING FEMALE ASS'Y     PCN000004032000004032FN00000000020211201000004032NNMD0420220326183812    1N0N  0000002520000085470000106471200    YCYC    005400370024
BI00A1200    2399T52115     202204297289-5979-30             HOUSING FEMALE ASS'Y     PCN000004032000004032FN00000000020220301000004032NNMD0420220326183925    1N0N  0000002520000085470000106471200    YCYC    005400370024
BI00B32C8    #4502146831    202204087254-8799-30             TOP COVER ASS'Y          CCN000000150000000150FN00000000020220401000000150NNMD0720220326152144    2N0N  00000003000000286500000489132C8    NAYNA   005600390040
BI00A32J1    392921         202203287114-4030                TERMINAL                 CCN000021000000021000FN00000000020220301000021000NNED0720220326120643    4P0P  00001050000000926100001254732J1    UKYEL-BL006400630017
BI00B32M1    TCV2033        202203307289-3342                HOUSING FEMALE ASS'Y     CCN000057600000057600FN00000000020220301000057600NNM00020220326093340    1N0N  00000240000000686400000901432M1    VNYEV   005500360039
BI00A32Q8    #EU22022TMW    202204047172-5630-40             RUBBER STOPPER           PCN001260000000200000FN00000000020220201000200000NNMD0420220326191551    2H0H  00002000000000044000000095132Q8    EMEMI   004300270014
BI00B32Q8    #EU22043TMW    202203167172-5630-40             RUBBER STOPPER           CCN002260000001660000FN00000000020220401001660000NNMD0420220326191924    2H0H  00002000000000044000000095132Q8    EMEMI   004300270014
BI00A32Q8    #EU22022TMW    202204187172-5630-40             RUBBER STOPPER           PCN001060000001060000FN00000000020220201001060000NNMD0420220326191551    2H0H  00002000000000044000000095132Q8    EMEMI   004300270014
BI00A32Q8    #EU22043TMW    202204187172-5630-40             RUBBER STOPPER           PCN000600000000600000FN00000000020220401000600000NNMM0020220326191924    2H0H  00002000000000044000000095132Q8    EMEMI   004300270014
BI00B32X5    TIB2004        202203057289-3342-30             HOUSING FEMALE ASS'Y     CCN000093600000045600FY00004560020220301000000000NNM00020220326095125X5  1N0N  00000240000000686400000901432X5    EPYNA-E 005500360039
BI00B32X5    TIB2004        202203177289-3342-30             HOUSING FEMALE ASS'Y     CCN000045600000048000FN00000000020220301000048000NNM00020220326095125X5  1N0N  00000240000000686400000901432X5    EPYNA-E 005500360039
BI00A32X5    TIB2005        202204047289-3342-30             HOUSING FEMALE ASS'Y     PCN000026400000026400FN00000000020220301000026400NNMD0420220326120859X5  1N0N  00000240000000686400000901432X5    EPYNA-E 005500360039
BI00B32X5    TIB2016        202203057289-3342-30             HOUSING FEMALE ASS'Y     CCN000084000000036000FY00003600020220601000000000NNM00020220326094700X5  1N0N  00000240000000686400000901432X5    EPYNA-E 005500360039
BI00A32X5    TIB2016        202204047289-3342-30             HOUSING FEMALE ASS'Y     PCN000048000000048000FN00000000020220601000048000NNM00020220326094700X5  1N0N  00000240000000686400000901432X5    EPYNA-E 005500360039
