BI00A32CJ    TTQ1103        202111261801W006950              IVSSH 0.35F R            PCN000002500000000000FY00000000020211001000000000NNM11 20220307160742    1W    00000250000000452000000000032CJ    QNYHVQN 000000000000UQ31A062
BI00B32DE    TT2044         20220317180D0203773              AVSSH 0.3F Y/B           CCN000002000000002000FN00000000020220401000002000NNM21 20220307153953    1W    00000200000000515000000000032DE    TVYEV-TV000000000000VT323027
BI00B32DE    TT2043         20220317180D0204135              AVSSH 1.25F B/R          CCN000002400000002400FN00000000020220401000002400NNM21 20220307145232    1W    00000080000001458000000000032DE    TVYEV-TV000000000000VT223044
BI00B32DE    TT2043         20220317180D0204134              AVSSH 1.25F B/W          CCN000001600000001600FN00000000020220401000001600NNM21 20220307145232    1W    00000080000001458000000000032DE    TVYEV-TV000000000000VT223045
BI00B32DE    @TT2043        20220317181E50028ZZ              AVSSCS-S 0.5FX3 DGY      CCN000002750000002750FN00000000020220401000002750NNM21 20220307154240    1W    00000025000003265000000000032DE    TVYEV-TV000000000000VT223006
BI00B32DE    @TT2044        20220317181E50028ZZ              AVSSCS-S 0.5FX3 DGY      CCN000003000000003000FN00000000020220401000003000NNM20 20220307153535    1W    00000025000003265000000000032DE    TVYEV-TV000000000000VT323006
BI00B32DE    @TT204F        20220317181E50028ZZ              AVSSCS-S 0.5FX3 DGY      CCN000003750000003750FN00000000020220401000003750NNE20 20220307153513    1W    00000025000003265000000000032DE    TVYEV-TV000000000000VY223001
BI00B32DE    TT2052         20220407180D0203934              AVSSH 0.5F B/W           CCN000003000000003000FN00000000020220501000003000NNM21 20220307153847    1W    00000150000000689000000000032DE    TVYEV-TV000000000000VT124036
BI00B32DE    TT2051         20220317180D0204135              AVSSH 1.25F B/R          CCN000001600000001600FN00000000020220501000001600NNM20 20220307145014    1W    00000080000001458000000000032DE    TVYEV-TV000000000000VT423038
BI00B32DE    TT2052         20220317180D0204135              AVSSH 1.25F B/R          CCN000002400000002400FN00000000020220501000002400NNM20 20220307145023    1W    00000080000001458000000000032DE    TVYEV-TV000000000000VT124056
BI00B32DE    TT2053         20220317180D0204135              AVSSH 1.25F B/R          CCN000002400000002400FN00000000020220501000002400NNM20 20220307145046    1W    00000080000001458000000000032DE    TVYEV-TV000000000000VT224069
BI00B32DE    TT2054         20220317180D0204135              AVSSH 1.25F B/R          CCN000001600000001600FN00000000020220501000001600NNM20 20220307145054    1W    00000080000001458000000000032DE    TVYEV-TV000000000000VT324073
BI00B32DE    TT2051         20220317180D0204134              AVSSH 1.25F B/W          CCN000001600000001600FN00000000020220501000001600NNM20 20220307144801    1W    00000080000001458000000000032DE    TVYEV-TV000000000000VT423039
BI00B32DE    TT2052         20220317180D0204134              AVSSH 1.25F B/W          CCN000000800000000800FN00000000020220501000000800NNM20 20220307144824    1W    00000080000001458000000000032DE    TVYEV-TV000000000000VT124057
BI00B32DE    TT2053         20220317180D0204134              AVSSH 1.25F B/W          CCN000000800000000800FN00000000020220501000000800NNM20 20220307144847    1W    00000080000001458000000000032DE    TVYEV-TV000000000000VT224070
BI00B32DE    TT2054         20220317180D0204134              AVSSH 1.25F B/W          CCN000001600000001600FN00000000020220501000001600NNM20 20220307144910    1W    00000080000001458000000000032DE    TVYEV-TV000000000000VT324074
BI00B32DE    @TT2051        20220324181E50028ZZ              AVSSCS-S 0.5FX3 DGY      CCN000020500000020500FN00000000020220501000020500NNM20 20220307153625    1W    00000025000003265000000000032DE    TVYEV-TV000000000000VT423009
BI00B32DE    @TT2052        20220324181E50028ZZ              AVSSCS-S 0.5FX3 DGY      CCN000010750000010750FN00000000020220501000010750NNM20 20220307153646    1W    00000025000003265000000000032DE    TVYEV-TV000000000000VT124019
BI00B32DE    @TT2053        20220324181E50028ZZ              AVSSCS-S 0.5FX3 DGY      CCN000010750000010750FN00000000020220501000010750NNM20 20220307153730    1W    00000025000003265000000000032DE    TVYEV-TV000000000000VT224023
BI00B32DE    @TT2054        20220324181E50028ZZ              AVSSCS-S 0.5FX3 DGY      CCN000009500000009500FN00000000020220501000009500NNM20 20220307153752    1W    00000025000003265000000000032DE    TVYEV-TV000000000000VT324024
BI00B32DJ    GHT2205-1      2022040718009604330              AVS 3 B                  CCN000137600000137600FN00000000020220101000137600NNM   20220307102444    1W    00000040000003831600000000032DJ    RBYIPLRB000000000000XH423013
BI00B32DJ    GHT2205-2      2022042818009604330              AVS 3 B                  CCN000141600000141600FN00000000020220101000141600NNM   20220307102444    1W    00000040000003831600000000032DJ    RBYIPLRB000000000000XH224008
BI00B32DJ    GHT2205-1      2022040718009604490              AVS 5 L                  CCN000019000000019000FN00000000020220101000019000NNM   20220307102444    1W    00000020000005981000000000032DJ    RBYIPLRB000000000000XH423026
BI00B32DJ    GHT2205-2      2022042818009604490              AVS 5 L                  CCN000027800000027800FN00000000020220101000027800NNM   20220307102444    1W    00000020000005981000000000032DJ    RBYIPLRB000000000000XH224021
BI00B32DJ    GHT2205-1      2022040718009604360              AVS 3 G                  CCN000086000000086000FN00000000020220101000086000NNM   20220307102444    1W    00000040000003831600000000032DJ    RBYIPLRB000000000000XH423015
BI00B32DJ    GHT2205-2      2022042818009604360              AVS 3 G                  CCN000133200000133200FN00000000020220101000133200NNM   20220307102444    1W    00000040000003831600000000032DJ    RBYIPLRB000000000000XH224010
BI00B32DJ    GHT2205-1      2022040718009604430              AVS 5 B                  CCN000011000000011000FN00000000020220101000011000NNM   20220307102444    1W    00000020000005981000000000032DJ    RBYIPLRB000000000000XH423024
BI00B32DJ    GHT2205-2      2022042818009604430              AVS 5 B                  CCN000004400000004400FN00000000020220101000004400NNM   20220307102444    1W    00000020000005981000000000032DJ    RBYIPLRB000000000000XH224019
BI00B32DJ    GHT2205-1      2022040718009604340              AVS 3 W                  CCN000028400000028400FN00000000020220101000028400NNM   20220307102444    1W    00000040000003831600000000032DJ    RBYIPLRB000000000000XH423021
BI00B32DJ    GHT2205-2      2022042818009604340              AVS 3 W                  CCN000015200000015200FN00000000020220101000015200NNM   20220307102444    1W    00000040000003831600000000032DJ    RBYIPLRB000000000000XH224016
BI00B32DJ    GHT2205-1      2022040718009604350              AVS 3 R                  CCN000115200000115200FN00000000020220101000115200NNM   20220307102444    1W    00000040000003831600000000032DJ    RBYIPLRB000000000000XH423020
BI00B32DJ    GHT2205-2      2022042818009604350              AVS 3 R                  CCN000034800000034800FN00000000020220101000034800NNM   20220307102444    1W    00000040000003831600000000032DJ    RBYIPLRB000000000000XH224014
BI00B32DJ    GHT2205-1      2022040718009604347              AVS 3 W/Y                CCN000009200000009200FN00000000020220101000009200NNM   20220307102444    1W    00000040000003831600000000032DJ    RBYIPLRB000000000000XH423022
BI00B32DJ    GHT2205-2      2022042818009604347              AVS 3 W/Y                CCN000002000000002000FN00000000020220101000002000NNM   20220307102444    1W    00000040000003831600000000032DJ    RBYIPLRB000000000000XH224017
BI00B32DJ    GHT2205-1      2022040718009604440              AVS 5 W                  CCN000016800000016800FN00000000020220101000016800NNM   20220307102444    1W    00000020000005981000000000032DJ    RBYIPLRB000000000000XH423029
BI00B32DJ    GHT2205-2      2022042818009604440              AVS 5 W                  CCN000006800000006800FN00000000020220101000006800NNM   20220307102444    1W    00000020000005981000000000032DJ    RBYIPLRB000000000000XH224024
BI00B32DJ    GHT2205-1      2022040718000004590              AV 8 L                   CCN000000200000000200FN00000000020220101000000200NNM   20220307102444    1W    00000010000010466200000000032DJ    RBYIPLRB000000000000XH423010
BI00B32DJ    GHT2205-2      2022042818000004590              AV 8 L                   CCN000000500000000500FN00000000020220101000000500NNM   20220307102444    1W    00000010000010466200000000032DJ    RBYIPLRB000000000000XH224005
BI00B32DJ    GHT2205-1      2022040718009604390              AVS 3 L                  CCN000032800000032800FN00000000020220101000032800NNM   20220307102444    1W    00000040000003831600000000032DJ    RBYIPLRB000000000000XH423017
BI00B32DJ    GHT2205-2      2022042818009604390              AVS 3 L                  CCN000068800000068800FN00000000020220101000068800NNM   20220307102444    1W    00000040000003831600000000032DJ    RBYIPLRB000000000000XH224012
BI00B32DJ    GHT2205-1      2022040718009604452              AVS 5 P                  CCN000001400000001400FN00000000020220101000001400NNM   20220307102444    1W    00000020000005981000000000032DJ    RBYIPLRB000000000000XH423027
BI00B32DJ    GHT2205-2      2022042818009604452              AVS 5 P                  CCN000002000000002000FN00000000020220101000002000NNM   20220307102444    1W    00000020000005981000000000032DJ    RBYIPLRB000000000000XH224022
BI00B32DJ    GHT2205-1      2022040718009604370              AVS 3 Y                  CCN000018800000018800FN00000000020220101000018800NNM   20220307102444    1W    00000040000003831600000000032DJ    RBYIPLRB000000000000XH423023
BI00B32DJ    GHT2205-2      2022042818009604370              AVS 3 Y                  CCN000040000000040000FN00000000020220101000040000NNM   20220307102444    1W    00000040000003831600000000032DJ    RBYIPLRB000000000000XH224018
BI00B32DJ    GHT2205-1      2022040718009604380              AVS 3 BR                 CCN000011600000011600FN00000000020220101000011600NNM   20220307102444    1W    00000040000003831600000000032DJ    RBYIPLRB000000000000XH423014
BI00B32DJ    GHT2205-2      2022042818009604380              AVS 3 BR                 CCN000018000000018000FN00000000020220101000018000NNM   20220307102444    1W    00000040000003831600000000032DJ    RBYIPLRB000000000000XH224009
BI00B32DJ    GHT2205-1      2022040718000004530              AV 8 B                   CCN000015900000015900FN00000000020220101000015900NNM   20220307102444    1W    00000010000010466200000000032DJ    RBYIPLRB000000000000XH423008
BI00B32DJ    GHT2205-2      2022042818000004530              AV 8 B                   CCN000021200000021200FN00000000020220101000021200NNM   20220307102444    1W    00000010000010466200000000032DJ    RBYIPLRB000000000000XH224003
BI00B32DJ    GHT2205-1      2022040718009604450              AVS 5 R                  CCN000027000000027000FN00000000020220101000027000NNM   20220307102444    1W    00000020000005981000000000032DJ    RBYIPLRB000000000000XH423028
BI00B32DJ    GHT2205-2      2022042818009604450              AVS 5 R                  CCN000053800000053800FN00000000020220101000053800NNM   20220307102444    1W    00000020000005981000000000032DJ    RBYIPLRB000000000000XH224023
BI00B32DJ    GHT2205-1      2022040718000004560              AV 8 G                   CCN000003300000003300FN00000000020220101000003300NNM   20220307102444    1W    00000010000010466200000000032DJ    RBYIPLRB000000000000XH423009
BI00B32DJ    GHT2205-2      2022042818000004560              AV 8 G                   CCN000009800000009800FN00000000020220101000009800NNM   20220307102444    1W    00000010000010466200000000032DJ    RBYIPLRB000000000000XH224004
BI00B32DJ    GHT2205-1      2022040718000004550              AV 8 R                   CCN000000400000000400FN00000000020220101000000400NNM   20220307102444    1W    00000010000010466200000000032DJ    RBYIPLRB000000000000XH423011
BI00B32DJ    GHT2205-2      2022042818000004550              AV 8 R                   CCN000004700000004700FN00000000020220101000004700NNM   20220307102444    1W    00000010000010466200000000032DJ    RBYIPLRB000000000000XH224006
BI00B32DJ    GHT2205-1      2022040718009604460              AVS 5 G                  CCN000000200000000200FN00000000020220101000000200NNM   20220307102444    1W    00000020000005981000000000032DJ    RBYIPLRB000000000000XH423025
BI00B32DJ    GHT2205-2      2022042818009604460              AVS 5 G                  CCN000001200000001200FN00000000020220101000001200NNM   20220307102444    1W    00000020000005981000000000032DJ    RBYIPLRB000000000000XH224020
BI00B32DJ    GHT2205-1      20220407180D0203980              AVSSH 0.5F BR            CCN000004500000004500FN00000000020220101000004500NNM   20220307102444    1W    00000150000000689000000000032DJ    RBYIPLRB000000000000XH423003
BI00B32DJ    GHT2205-1      2022040718009604470              AVS 5 Y                  CCN000000600000000600FN00000000020220101000000600NNM   20220307102444    1W    00000020000005981000000000032DJ    RBYIPLRB000000000000XH423030
BI00B32DJ    GHT2205-1      2022040718009604341              AVS 3 GY                 CCN000016000000016000FN00000000020220101000016000NNM   20220307102444    1W    00000040000003831600000000032DJ    RBYIPLRB000000000000XH423016
BI00B32DJ    GHT2205-2      2022042818009604341              AVS 3 GY                 CCN000036800000036800FN00000000020220101000036800NNM   20220307102444    1W    00000040000003831600000000032DJ    RBYIPLRB000000000000XH224011
BI00B32DJ    GHT2205-1      20220407180D0203960              AVSSH 0.5F G             CCN000013500000013500FN00000000020220101000013500NNM   20220307102444    1W    00000150000000689000000000032DJ    RBYIPLRB000000000000XH423004
BI00B32DJ    GHT2205-1      2022040718009604352              AVS 3 P                  CCN000000400000000400FN00000000020220101000000400NNM   20220307102444    1W    00000040000003831600000000032DJ    RBYIPLRB000000000000XH423019
BI00B32DJ    GHT2205-1      20220407180D0203750              AVSSH 0.3F R             CCN000046000000046000FN00000000020220101000046000NNM   20220307102444    1W    00000200000000515000000000032DJ    RBYIPLRB000000000000XH423002
BI00B32DJ    GHT2205-1      20220407180D0203990              AVSSH 0.5F L             CCN000063000000063000FN00000000020220101000063000NNM   20220307102444    1W    00000150000000689000000000032DJ    RBYIPLRB000000000000XH423005
BI00B32DJ    GHT2205-1      20220407180D0203730              AVSSH 0.3F B             CCN000024000000024000FN00000000020220101000024000NNM   20220307102444    1W    00000200000000515000000000032DJ    RBYIPLRB000000000000XH423001
BI00B32DJ    GHT2205-1      20220407180D0204070              AVSSH 0.75F Y            CCN000038000000038000FN00000000020220101000038000NNM   20220307102444    1W    00000100000000934000000000032DJ    RBYIPLRB000000000000XH423007
BI00B32DJ    GHT2205-1      20220407180D0203961              AVSSH 0.5F LG            CCN000013500000013500FN00000000020220101000013500NNM   20220307102444    1W    00000150000000689000000000032DJ    RBYIPLRB000000000000XH423006
BI00B32DJ    GHT2205-2      20220428180D0203770              AVSSH 0.3F Y             CCN000002000000002000FN00000000020220101000002000NNM   20220307102444    1W    00000200000000515000000000032DJ    RBYIPLRB000000000000XH224002
BI00B32DJ    GHT2205-2      20220428180D0203740              AVSSH 0.3F W             CCN000002000000002000FN00000000020220101000002000NNM   20220307102444    1W    00000200000000515000000000032DJ    RBYIPLRB000000000000XH224001
BI00B32DJ    GHT2205-1      2022040718007704140              AVSS 1.25F W             CCN000002400000002400FN00000000020220101000002400NNM   20220307102444    1W    00000080000001389000000000032DJ    RBYIPLRB000000000000XH423012
BI00B32DJ    GHT2205-2      2022042818007704140              AVSS 1.25F W             CCN000001600000001600FN00000000020220101000001600NNM   20220307102444    1W    00000080000001389000000000032DJ    RBYIPLRB000000000000XH224007
BI00B32DJ    GHT2205-2      2022042818009604391              AVS 3 SB                 CCN000000400000000400FN00000000020220101000000400NNM   20220307102444    1W    00000040000003831600000000032DJ    RBYIPLRB000000000000XH224015
BI00B32DJ    GHT2205-1      2022040718009604361              AVS 3 LG                 CCN000002000000002000FN00000000020220101000002000NNM   20220307102444    1W    00000040000003831600000000032DJ    RBYIPLRB000000000000XH423018
BI00B32DJ    GHT2205-2      2022042818009604361              AVS 3 LG                 CCN000000400000000400FN00000000020220101000000400NNM   20220307102444    1W    00000040000003831600000000032DJ    RBYIPLRB000000000000XH224013
BI00B32M8    @PM2204A MW    20220323181B09102K3              CAVSAS 0.5X2 GY/P        CCN000000300000000300FN00000000020220401000000300NNE   20220307140753    1W    00000030000002680000000000032M8    PMPEMI  000000000000IA223014
BI00B32M8    @PM2204AJMW    20220323181B32102Y5              AVSSCS 0.5FX2 DGY/W      CCN000000600000000600FN00000000020220401000000600NNE   20220307140754    1W    00000030000002903000000000032M8    PMPEMI  000000000000IB223001
BI00B32M8    @PM2204ATMW    20220323181D69001ZZ              AVSSHCS 0.5FX2 B/BR      CCN000000300000000300FN00000000020220401000000300NNE   20220307140755    1W    00000030000002385000000000032M8    PMPEMI  000000000000IG223002
BI00B32N3    NBT204 I       2022032418007704140              AVSS 1.25F W             CCN000002400000002400FN00000000020220301000002400NNE   20220307102619    1W    00000080000001389000000000032N3    ABYIPL-B000000000000XI223004
BI00B32N3    NBT204 I       2022032418007704143              AVSS 1.25F W/B           CCN000001600000001600FN00000000020220301000001600NNE   20220307102619    1W    00000080000001389000000000032N3    ABYIPL-B000000000000XI223005
BI00B32N3    NBT204 I       2022032418007704160              AVSS 1.25F G             CCN000001600000001600FN00000000020220301000001600NNE   20220307102619    1W    00000080000001389000000000032N3    ABYIPL-B000000000000XI223003
BI00B32N3    NBT204 I       20220324180D0203940              AVSSH 0.5F W             CCN000001500000001500FN00000000020220301000001500NNE   20220307102619    1W    00000150000000689000000000032N3    ABYIPL-B000000000000XI223001
BI00B32N3    NBT204 I       20220324180D0204190              AVSSH 1.25F L            CCN000002400000002400FN00000000020220301000002400NNE   20220307102619    1W    00000080000001458000000000032N3    ABYIPL-B000000000000XI223002
BI00B32N3    @NBT204 I      20220324181B0911941              CAVSAS 0.3X4 GY          CCN000001250000001250FN00000000020220301000001250NNE   20220307140756    1W    00000025000003262300000000032N3    ABYIPL-B000000000000XI223006
BI00B32N3    @NBT204 I      20220324181B32103S1              AVSSCS 0.5FX3 DGY        CCN000007250000007250FN00000000020220301000007250NNE   20220307140756    1W    00000025000003585500000000032N3    ABYIPL-B000000000000XI223007
BI00A32W2    HN2203AWMW     2022030918000004540              AV 8 W                   CCN000000800000000800FN00000000020220301000000800NNE   20220307154506    1W    00000010000010466200000000032W2    HNHNY   000000000000HG422001
