BI00A1200    2399T51A22     202203107289-5979-30             HOUSING FEMALE ASS'Y     PCN000004032000003528FN00000000020211201000003528NNMM0020220307155402    1N0N  0000002520000085470000106471200    YCYC    005400370024
BI00B1200    CE22-MN-0045   202203107116-4110-02             TERMINAL                 CCN000009000000009000FN00000000020220401000009000NNE   20220307121924    4P0P  0000090000000059400000088221200    YCYC    006400630015
BI00B1200    CE22-MN-0045   202203107116-4111-02             TERMINAL                 CCN000007500000007500FN00000000020220401000007500NNE   20220307121924    4P0P  0000075000000052950000081771200    YCYC    006400630015
BI00B1200    CE22-MN-0045   202203107116-4112-02             TERMINAL                 CCN000006000000006000FN00000000020220401000006000NNE   20220307121924    4P0P  0000060000000045000000073821200    YCYC    006400630015
BI00B1200    CE22-MN-0047   202203107196-1327-02             TERMINAL FEMALE          CCN000052000000052000FN00000000020220401000052000NNE   20220307121924    4P0P  0000520000000033600000073951200    YCYC    006400630017
BI00B1200    H322F50011     202205127289-9553-30             SEALED ASSY FEMALE       CCN000002940000002940FN00000000020220601000002940NNE   20220307121924    4N0N  0000029400000110900000152151200    YCYC    005500360039
BI00B1200    H322F50012     202205127289-9553-50             SEALED ASSY FEMALE       CCN000002940000002940FN00000000020220601000002940NNE   20220307121924    4N0N  0000029400000110810000152061200    YCYC    005500360039
BI00B1200    H722F50003     202205127297-1861-30             HOUSING MALE ASS'Y       CCN000009000000009000FN00000000020220601000009000NNE   20220307121924    4N0N  0000015000000070220000082731200    YCYC    005400370024
BI00B1200    Y022F50043     202205127288-9556-30             SEALED ASSY MALE         CCN000004320000004320FN00000000020220601000004320NNM   20220307121924    4N0N  0000007200000053790000078631200    YCYC    005500360039
BI00B1200    Y022F50044     202205127288-9556-30             SEALED ASSY MALE         CCN000007920000007920FN00000000020220601000007920NNM   20220307121924    4N0N  0000007200000053790000078631200    YCYC    005500360039
BI00B1200    Y022F50046     202205267288-9556-30             SEALED ASSY MALE         CCN000007200000007200FN00000000020220601000007200NNM   20220307121924    4N0N  0000007200000053790000078631200    YCYC    005500360039
BI00A1200    MKH2022-042    202203157288-3206                HOUSING MALE ASS'Y       CCN000001020000001020FN00000000020220301000001020NNE   20220307152003    1N0N  0000010200000038760000078761200    YCYC    005500360039
BI00A1200    Y21-056        202203117298-7215-10             SEALED ASSY FEMALE       CCN000002184000002184FN00000000020220301000002184NNE   20220307151909    4N0N  0000021840000098300000129151200    YCYC    005500360039
BI00B32AF    JTB2053        202204297017-1180-02             TERMINAL                 CCN000144000000144000FN00000000020220501000144000NNMD0020220307164444    4P0P  00007200000001065600001229032AF    HBYHVTB 005100280028
BI00B32AF    JTB2054        202205067017-1180-02             TERMINAL                 CCN000648000000648000FN00000000020220501000648000NNMD0020220307165129    4P0P  00007200000001065600001229032AF    HBYHVTB 005100280028
BI00B32AF    JTB2053        202204297017-1181-02             TERMINAL                 CCN000063000000063000FN00000000020220501000063000NNMD0020220307164444    4P0P  00006300000001089900001266832AF    HBYHVTB 005100280028
BI00B32AF    JTB2053        202204297017-1182-02             TERMINAL                 CCN000090000000090000FN00000000020220501000090000NNMD0020220307164444    4P0P  00004500000001165500001318632AF    HBYHVTB 005100280028
BI00B32AF    JTB2054        202205067017-1183-02             TERMINAL                 CCN000054000000054000FN00000000020220501000054000NNMD0020220307165129    4P0P  00002700000001139400001307432AF    HBYHVTB 005100280028
BI00B32AF    JTB2053        202204297114-4020                TERMINAL                 CCN000042000000042000FN00000000020220501000042000NNMD0020220307164444    4P0P  00002100000000875700001169332AF    HBYHVTB 006400630015
BI00B32AF    JTB2054        202205067114-4020                TERMINAL                 CCN000126000000126000FN00000000020220501000126000NNMD0020220307165129    4P0P  00002100000000875700001169332AF    HBYHVTB 006400630015
BI00B32AF    JTB2054        202205067114-4231-02             TERMINAL                 CCN000234000000234000FN00000000020220501000234000NNMD0020220307165129    4P0P  00001800000000554400000848032AF    HBYHVTB 006400630015
BI00B32AF    JTB2053        202204297114-4728-02             TERMINAL                 CCN000150000000150000FN00000000020220501000150000NNMD0020220307164444    4P0P  00003000000000510000000804232AF    HBYHVTB 006400630015
BI00B32AF    JTB2054        202205067114-4728-02             TERMINAL                 CCN000990000000990000FN00000000020220501000990000NNMD0020220307165129    4P0P  00003000000000510000000804232AF    HBYHVTB 006400630015
BI00B32AF    JTB2052        202204227114-4728-08             TERMINAL                 CCN000030000000030000FN00000000020220501000030000NNMD0020220307163421    4P0P  00003000000000507000000801232AF    HBYHVTB 006400630015
BI00B32AF    JTB2053        202204297114-4728-08             TERMINAL                 CCN000030000000030000FN00000000020220501000030000NNMD0020220307164444    4P0P  00003000000000507000000801232AF    HBYHVTB 006400630015
BI00B32AF    JTB2054        202205067114-4728-08             TERMINAL                 CCN000030000000030000FN00000000020220501000030000NNMD0020220307165129    4P0P  00003000000000507000000801232AF    HBYHVTB 006400630015
BI00B32AF    JTB2054        202205067114-4729-02             TERMINAL                 CCN000300000000300000FN00000000020220501000300000NNMD0020220307165129    4P0P  00003000000000516000000810232AF    HBYHVTB 006400630015
BI00B32AF    JTB2054        202205067114-5746-02             TERMINAL                 CCN000105000000105000FN00000000020220501000105000NNMD0020220307165129    4P0P  00002100000000695100000988732AF    HBYHVTB 006400630015
BI00B32AF    JTB2054        202205067114-5747-02             TERMINAL                 CCN000252000000252000FN00000000020220501000252000NNMD0020220307165129    4P0P  00001800000000626400000920032AF    HBYHVTB 006400630015
BI00B32AF    JTB2054        202205067114-5748-02             TERMINAL                 CCN000120000000120000FN00000000020220501000120000NNMD0020220307165129    4P0P  00001200000000444000000737632AF    HBYHVTB 006400630015
BI00B32AF    JTB2053        202204297114-5753-02             TERMINAL                 CCN000081000000081000FN00000000020220501000081000NNMD0020220307164444    4P0P  00002700000000847800001141432AF    HBYHVTB 006400630015
BI00B32AF    JTB2054        202205067114-5753-02             TERMINAL                 CCN000216000000216000FN00000000020220501000216000NNMD0020220307165129    4P0P  00002700000000847800001141432AF    HBYHVTB 006400630015
BI00B32AF    JTB2054        202205067116-1180                TERMINAL                 CCN000019500000019500FN00000000020220501000019500NNMD0020220307165129    1P0P  00001950000000618200000903432AF    HBYHVTB 006400630015
BI00B32AF    JTB2053        202204297116-2892-02             TERMINAL                 CCN000012000000012000FN00000000020220501000012000NNMD0020220307164444    4P0P  00001200000000818400000981832AF    HBYHVTB 005100280028
BI00B32AF    JTB2053        202204297116-3153-08             TERMINAL                 CCN000027000000027000FN00000000020220501000027000NNMD0020220307164444    4P0P  00002700000000461700000746932AF    HBYHVTB 006400630015
BI00B32AF    JTB2054        202205067116-3153-08             TERMINAL                 CCN000054000000054000FN00000000020220501000054000NNMD0020220307165129    4P0P  00002700000000461700000746932AF    HBYHVTB 006400630015
BI00B32AF    JTB2054        202205067116-3154-08             TERMINAL                 CCN000027000000027000FN00000000020220501000027000NNMD0020220307165129    4P0P  00002700000000475200000760432AF    HBYHVTB 006400630015
BI00B32AF    JTB2051        202204087116-4020                TERMINAL                 CCN000027000000027000FN00000000020220501000027000NNM   20220307152707    4P0P  00001350000000513000000798232AF    HBYHVTB 006400630015
BI00B32AF    JTB2052        202204227116-4020                TERMINAL                 CCN000108000000108000FN00000000020220501000108000NNMD0020220307163421    4P0P  00001350000000513000000798232AF    HBYHVTB 006400630015
BI00B32AF    JTB2053        202204297116-4020                TERMINAL                 CCN000135000000135000FN00000000020220501000135000NNMD0020220307164444    4P0P  00001350000000513000000798232AF    HBYHVTB 006400630015
BI00B32AF    JTB2054        202205067116-4020                TERMINAL                 CCN000027000000027000FN00000000020220501000027000NNMD0020220307165129    4P0P  00001350000000513000000798232AF    HBYHVTB 006400630015
BI00B32AF    JTB2052        202204227116-4025                TERMINAL                 CCN000016000000016000FN00000000020220501000016000NNMD0020220307163421    4P0P  00001600000000644800000975132AF    HBYHVTB 006400630017
BI00B32AF    JTB2054        202205067116-4025                TERMINAL                 CCN000016000000016000FN00000000020220501000016000NNMD0020220307165129    4P0P  00001600000000644800000975132AF    HBYHVTB 006400630017
BI00B32AF    JTB2053        202204297116-4026                TERMINAL                 CCN000016000000016000FN00000000020220501000016000NNMD0020220307164444    4P0P  00001600000000664000000994332AF    HBYHVTB 006400630017
BI00B32AF    JTB2054        202205067116-4032                TERMINAL                 CCN000012000000012000FN00000000020220501000012000NNMD0020220307165129    4P0P  00000600000000532800000818032AF    HBYHVTB 006400630015
BI00B32AF    JTB2052        202204227116-4112-02             TERMINAL                 CCN000006000000006000FN00000000020220501000006000NNMD0020220307163421    4P0P  00000600000000450000000738232AF    HBYHVTB 006400630015
BI00B32AF    JTB2053        202204297116-4112-02             TERMINAL                 CCN000012000000012000FN00000000020220501000012000NNMD0020220307164444    4P0P  00000600000000450000000738232AF    HBYHVTB 006400630015
BI00B32AF    JTB2054        202205067116-4112-02             TERMINAL                 CCN000024000000024000FN00000000020220501000024000NNMD0020220307165129    4P0P  00000600000000450000000738232AF    HBYHVTB 006400630015
BI00B32AF    JTB2054        202205067116-4415-02             TERMINAL                 CCN000190000000190000FN00000000020220501000190000NNMD0020220307165129    4P0P  00003800000000596600000925732AF    HBYHVTB 006400630017
BI00B32AF    JTB2052        202204227116-4416-02             TERMINAL                 CCN000064000000064000FN00000000020220501000064000NNMD0020220307163421    4P0P  00003200000000518400000847132AF    HBYHVTB 006400630017
BI00B32AF    JTB2053        202204297116-4416-02             TERMINAL                 CCN000032000000032000FN00000000020220501000032000NNMD0020220307164444    4P0P  00003200000000518400000847132AF    HBYHVTB 006400630017
BI00B32AF    JTB2054        202205067116-4416-02             TERMINAL                 CCN000064000000064000FN00000000020220501000064000NNMD0020220307165129    4P0P  00003200000000518400000847132AF    HBYHVTB 006400630017
BI00B32AF    JTB2054        202205067116-5042-02             TERMINAL                 CCN000054000000054000FN00000000020220501000054000NNMD0020220307165129    4P0P  00001350000000560300000845532AF    HBYHVTB 006400630015
BI00B32AF    JTB2053        202204297116-5044-02             TERMINAL                 CCN000048000000048000FN00000000020220501000048000NNMD0020220307164444    4P0P  00001600000000641600000986332AF    HBYHVTB 006400630017
BI00B32AF    JTB2054        202205067116-5044-02             TERMINAL                 CCN000144000000144000FN00000000020220501000144000NNMD0020220307165129    4P0P  00001600000000641600000986332AF    HBYHVTB 006400630017
BI00B32AF    JTB2053        202204297116-5045-02             TERMINAL                 CCN000016000000016000FN00000000020220501000016000NNMD0020220307164444    4P0P  00001600000000678400001007132AF    HBYHVTB 006400630017
BI00B32AF    JTB2054        202205067116-5045-02             TERMINAL                 CCN000032000000032000FN00000000020220501000032000NNMD0020220307165129    4P0P  00001600000000678400001007132AF    HBYHVTB 006400630017
BI00B32AF    JTB2054        202205067116-5046-02             TERMINAL                 CCN000012000000012000FN00000000020220501000012000NNMD0020220307165129    4P0P  00001200000000544800000873532AF    HBYHVTB 006400630017
BI00B32AF    JTB2054        202205067116-5097-02             TERMINAL                 CCN000022500000022500FN00000000020220501000022500NNMD0020220307165129    4P0P  00002250000000531000000816232AF    HBYHVTB 006400630015
BI00B32AF    JTB2053        202204297116-5750-02             TERMINAL                 CCN000030000000030000FN00000000020220501000030000NNMD0020220307164444    4P0P  00001500000000457500000742732AF    HBYHVTB 006400630015
BI00B32AF    JTB2054        202205067116-5752-02             TERMINAL                 CCN000168000000168000FN00000000020220501000168000NNMD0020220307165129    4P0P  00002100000000571200000856432AF    HBYHVTB 006400630015
BI00B32AF    JTB2054        202205067126-8853-02             TERMINAL                 CCN000007500000007500FN00000000020220501000007500NNMD0020220307165129    4P0P  00000750000000562500000847732AF    HBYHVTB 006400630015
BI00B32AF    JTB2052        202204227158-3006-90             RUBBER STOPPER           CCN000020000000020000FN00000000020220501000020000NNMD0020220307163421    1C0C  00002000000000330600000386032AF    HBYHVTB 002700430014
BI00B32AF    JTB2053        202204297158-3006-90             RUBBER STOPPER           CCN000020000000020000FN00000000020220501000020000NNMD0020220307164444    1C0C  00002000000000330600000386032AF    HBYHVTB 002700430014
BI00B32AF    JTB2054        202205067158-3006-90             RUBBER STOPPER           CCN000020000000020000FN00000000020220501000020000NNMD0020220307165129    1C0C  00002000000000330600000386032AF    HBYHVTB 002700430014
BI00B32AF    JTB2053        202204297158-3009-60             RUBBER STOPPER           CCN000040000000040000FN00000000020220501000040000NNMD0020220307164444    1C0C  00002000000000338000000386232AF    HBYHVTB 002700430014
BI00B32AF    JTB2054        202205067158-3009-60             RUBBER STOPPER           CCN000180000000180000FN00000000020220501000180000NNMD0020220307165129    1C0C  00002000000000338000000386232AF    HBYHVTB 002700430014
BI00B32AF    JTB2052        202204227158-3165-90             WIRE SEAL                CCN000120000000120000FN00000000020220501000120000NNMD0020220307163421    1C0C  00004000000000124000000172432AF    HBYHVTB 004300270014
BI00B32AF    JTB2053        202204297158-3165-90             WIRE SEAL                CCN000440000000440000FN00000000020220501000440000NNMD0020220307164444    1C0C  00004000000000124000000172432AF    HBYHVTB 004300270014
BI00B32AF    JTB2054        202205067158-3165-90             WIRE SEAL                CCN000720000000720000FN00000000020220501000720000NNMD0020220307165129    1C0C  00004000000000124000000172432AF    HBYHVTB 004300270014
BI00B32AF    JTB2054        202205067158-3166-60             WIRE SEAL                CCN000080000000080000FN00000000020220501000080000NNMD0020220307165129    1C0C  00004000000000104000000152432AF    HBYHVTB 002700430014
BI00B32AF    JTB2053        202204297195-1463-02             TERMINAL MALE            CCN000114000000114000FN00000000020220501000114000NNMD0020220307164444    4P0P  00002850000000456000000741232AF    HBYHVTB 006400630015
BI00B32AF    JTB2054        202205067195-1463-02             TERMINAL MALE            CCN000171000000171000FN00000000020220501000171000NNMD0020220307165129    4P0P  00002850000000456000000741232AF    HBYHVTB 006400630015
BI00B32AF    JTB2054        202205067196-1460-02             TERMINAL FEMALE          CCN000228000000228000FN00000000020220501000228000NNMD0020220307165129    4P0P  00002850000000444600000729832AF    HBYHVTB 006400630015
BI00B32AF    JTB2052        202204227196-1466-02             TERMINAL MALE            CCN000057000000057000FN00000000020220501000057000NNMD0020220307163421    4P0P  00002850000000427500000712732AF    HBYHVTB 006400630015
BI00B32AF    JTB2053        202204297196-1466-02             TERMINAL MALE            CCN000057000000057000FN00000000020220501000057000NNMD0020220307164444    4P0P  00002850000000427500000712732AF    HBYHVTB 006400630015
BI00B32AF    JTB2054        202205067196-1466-02             TERMINAL MALE            CCN000085500000085500FN00000000020220501000085500NNMD0020220307165129    4P0P  00002850000000427500000712732AF    HBYHVTB 006400630015
BI00B32AF    JTB2052        202204227282-1024                HOUSING MALE             CCN000001000000001000FN00000000020220501000001000NNMD0020220307163421    1N0N  00000100000000458000000580532AF    HBYHVTB 005400370024
BI00B32AF    JTB2053        202204297282-1024                HOUSING MALE             CCN000001000000001000FN00000000020220501000001000NNMD0020220307164444    1N0N  00000100000000458000000580532AF    HBYHVTB 005400370024
BI00B32AF    JTB2051        202204087282-4576                HOUSING MALE ASS'Y       CCN000002400000002400FN00000000020220501000002400NNM   20220307152707    4N0N  00000240000000808800001028832AF    HBYHVTB 005500360039
BI00B32AF    JTB2052        202204227282-4576                HOUSING MALE ASS'Y       CCN000002400000002400FN00000000020220501000002400NNMD0020220307163421    4N0N  00000240000000808800001028832AF    HBYHVTB 005500360039
BI00B32AF    JTB2053        202204297282-4576                HOUSING MALE ASS'Y       CCN000002400000002400FN00000000020220501000002400NNMD0020220307164444    4N0N  00000240000000808800001028832AF    HBYHVTB 005500360039
BI00B32AF    JTB2053        202204297282-4577-90             HOUSING MALE ASS'Y       CCN000002400000002400FN00000000020220501000002400NNMD0020220307164444    4N0N  00000240000000964800001174832AF    HBYHVTB 005500360039
BI00B32AF    JTB2054        202205067282-4577-90             HOUSING MALE ASS'Y       CCN000002400000002400FN00000000020220501000002400NNMD0020220307165129    4N0N  00000240000000964800001174832AF    HBYHVTB 005500360039
BI00B32AF    JTB2051        202204087282-4578                HOUSING MALE ASS'Y       CCN000016800000016800FN00000000020220501000016800NNM   20220307152707    4N0N  00000120000000782600000992632AF    HBYHVTB 005500360039
BI00B32AF    JTB2052        202204227282-4578                HOUSING MALE ASS'Y       CCN000012000000012000FN00000000020220501000012000NNMD0020220307163421    4N0N  00000120000000782600000992632AF    HBYHVTB 005500360039
BI00B32AF    JTB2053        202204297282-4578                HOUSING MALE ASS'Y       CCN000010800000010800FN00000000020220501000010800NNMD0020220307164444    4N0N  00000120000000782600000992632AF    HBYHVTB 005500360039
BI00B32AF    JTB2054        202205067282-4578                HOUSING MALE ASS'Y       CCN000012000000012000FN00000000020220501000012000NNMD0020220307165129    4N0N  00000120000000782600000992632AF    HBYHVTB 005500360039
BI00B32AF    JTB2051        202204087282-9391-30             HOUSING MALE ASS'Y       CCN000002400000002400FN00000000020220501000002400NNM   20220307152707    4N0N  00000120000001017600001237632AF    HBYHVTB 005500360039
BI00B32AF    JTB2052        202204227282-9391-30             HOUSING MALE ASS'Y       CCN000001200000001200FN00000000020220501000001200NNMD0020220307163421    4N0N  00000120000001017600001237632AF    HBYHVTB 005500360039
BI00B32AF    JTB2053        202204297282-9391-30             HOUSING MALE ASS'Y       CCN000002400000002400FN00000000020220501000002400NNMD0020220307164444    4N0N  00000120000001017600001237632AF    HBYHVTB 005500360039
BI00B32AF    JTB2054        202205067282-9391-30             HOUSING MALE ASS'Y       CCN000002400000002400FN00000000020220501000002400NNMD0020220307165129    4N0N  00000120000001017600001237632AF    HBYHVTB 005500360039
BI00B32AF    JTB2053        202204297283-1028                CONNECTOR HOUSING        CCN000006000000006000FN00000000020220501000006000NNMD0020220307164444    4N0N  00000600000000779000001019332AF    HBYHVTB 005600390040
BI00B32AF    JTB2054        202205067283-1028                CONNECTOR HOUSING        CCN000006000000006000FN00000000020220501000006000NNMD0020220307165129    4N0N  00000600000000779000001019332AF    HBYHVTB 005600390040
BI00B32AF    JTB2051        202204087283-1156                CONNECTOR                CCN000008800000008800FN00000000020220501000008800NNM   20220307152707    4N0N  00000080000000877600001078032AF    HBYHVTB 005600390040
BI00B32AF    JTB2052        202204227283-1156                CONNECTOR                CCN000008800000008800FN00000000020220501000008800NNMD0020220307163421    4N0N  00000080000000877600001078032AF    HBYHVTB 005600390040
BI00B32AF    JTB2053        202204297283-1156                CONNECTOR                CCN000007200000007200FN00000000020220501000007200NNMD0020220307164444    4N0N  00000080000000877600001078032AF    HBYHVTB 005600390040
BI00B32AF    JTB2054        202205067283-1156                CONNECTOR                CCN000008800000008800FN00000000020220501000008800NNMD0020220307165129    4N0N  00000080000000877600001078032AF    HBYHVTB 005600390040
BI00B32AF    JTB2051        202204087283-4576                HOUSING FEMALE ASS'Y     CCN000019200000019200FN00000000020220501000019200NNM   20220307152707    4N0N  00000480000000651300000871332AF    HBYHVTB 005500360039
BI00B32AF    JTB2052        202204227283-4576                HOUSING FEMALE ASS'Y     CCN000019200000019200FN00000000020220501000019200NNMD0020220307163421    4N0N  00000480000000651300000871332AF    HBYHVTB 005500360039
BI00B32AF    JTB2053        202204297283-4576                HOUSING FEMALE ASS'Y     CCN000019200000019200FN00000000020220501000019200NNMD0020220307164444    4N0N  00000480000000651300000871332AF    HBYHVTB 005500360039
BI00B32AF    JTB2054        202205067283-4576                HOUSING FEMALE ASS'Y     CCN000024000000024000FN00000000020220501000024000NNMD0020220307165129    4N0N  00000480000000651300000871332AF    HBYHVTB 005500360039
BI00B32AF    JTB2051        202204087283-4577                CONNECTOR HOUSING        CCN000004800000004800FN00000000020220501000004800NNM   20220307152707    4N0N  00000480000000916800001136832AF    HBYHVTB 005500360039
BI00B32AF    JTB2052        202204227283-4577                CONNECTOR HOUSING        CCN000004800000004800FN00000000020220501000004800NNMD0020220307163421    4N0N  00000480000000916800001136832AF    HBYHVTB 005500360039
BI00B32AF    JTB2053        202204297283-4577                CONNECTOR HOUSING        CCN000004800000004800FN00000000020220501000004800NNMD0020220307164444    4N0N  00000480000000916800001136832AF    HBYHVTB 005500360039
BI00B32AF    JTB2051        202204087283-4855                CONNECTOR HOUSING        CCN000004800000004800FN00000000020220501000004800NNM   20220307152707    4N0N  00000240000001188400001400032AF    HBYHVTB 005500360039
BI00B32AF    JTB2052        202204227283-4855                CONNECTOR HOUSING        CCN000002400000002400FN00000000020220501000002400NNMD0020220307163421    4N0N  00000240000001188400001400032AF    HBYHVTB 005500360039
BI00B32AF    JTB2053        202204297283-4855                CONNECTOR HOUSING        CCN000002400000002400FN00000000020220501000002400NNMD0020220307164444    4N0N  00000240000001188400001400032AF    HBYHVTB 005500360039
BI00B32AF    JTB2054        202205067283-4855                CONNECTOR HOUSING        CCN000004800000004800FN00000000020220501000004800NNMD0020220307165129    4N0N  00000240000001188400001400032AF    HBYHVTB 005500360039
BI00B32AF    JTB2052        202204227283-5830                CONNECTOR                CCN000006000000006000FN00000000020220501000006000NNMD0020220307163421    1N47  00000600000000954000001104032AF    HBYHVTB 005500360039
BI00B32AF    JTB2052        202204227283-5830-30             CONNECTOR                CCN000006000000006000FN00000000020220501000006000NNMD0020220307163421    1N0N  00000600000000954000001104032AF    HBYHVTB 005500360039
BI00B32AF    JTB2053        202204297283-5830-30             CONNECTOR                CCN000006000000006000FN00000000020220501000006000NNMD0020220307164444    1N0N  00000600000000954000001104032AF    HBYHVTB 005500360039
BI00B32AF    JTB2051        202204087283-5845                CONNECTOR HOUSING        CCN000018000000018000FN00000000020220501000018000NNM   20220307152707    1N0N  00000600000000444000000606332AF    HBYHVTB 005400370024
BI00B32AF    JTB2052        202204227283-5845                CONNECTOR HOUSING        CCN000024000000024000FN00000000020220501000024000NNMD0020220307163421    1N0N  00000600000000444000000606332AF    HBYHVTB 005400370024
BI00B32AF    JTB2053        202204297283-5845                CONNECTOR HOUSING        CCN000024000000024000FN00000000020220501000024000NNMD0020220307164444    1N0N  00000600000000444000000606332AF    HBYHVTB 005400370024
BI00B32AF    JTB2054        202205067283-5845                CONNECTOR HOUSING        CCN000024000000024000FN00000000020220501000024000NNMD0020220307165129    1N0N  00000600000000444000000606332AF    HBYHVTB 005400370024
BI00B32AF    JTB2051        202204087283-5845-30             CONNECTOR HOUSING        CCN000006000000006000FN00000000020220501000006000NNM   20220307152707    1N0N  00000600000000444000000606332AF    HBYHVTB 005400370024
BI00B32AF    JTB2052        202204227283-5845-30             CONNECTOR HOUSING        CCN000006000000006000FN00000000020220501000006000NNMD0020220307163421    1N0N  00000600000000444000000606332AF    HBYHVTB 005400370024
BI00B32AF    JTB2053        202204297283-5845-30             CONNECTOR HOUSING        CCN000006000000006000FN00000000020220501000006000NNMD0020220307164444    1N0N  00000600000000444000000606332AF    HBYHVTB 005400370024
BI00B32AF    JTB2054        202205067283-5845-30             CONNECTOR HOUSING        CCN000006000000006000FN00000000020220501000006000NNMD0020220307165129    1N0N  00000600000000444000000606332AF    HBYHVTB 005400370024
BI00B32AF    JTB2053        202204297286-4097-90             CONNECTOR MALE ASS'Y     CCN000003200000003200FN00000000020220501000003200NNMD0020220307164444    1N0N  00000160000000768000000978032AF    HBYHVTB 005500360039
BI00B32AF    JTB2054        202205067286-4097-90             CONNECTOR MALE ASS'Y     CCN000001600000001600FN00000000020220501000001600NNMD0020220307165129    1N0N  00000160000000768000000978032AF    HBYHVTB 005500360039
BI00B32AF    JTB2054        202205067287-1915                CONNECTOR ASS'Y          CCN000012000000012000FN00000000020220501000012000NNMD0020220307165129    4N0N  00000240000000666500000923132AF    HBYHVTB 005500360039
BI00B32AF    JTB2051        202204087287-1915-30             CONNECTOR ASS'Y          CCN000002400000002400FN00000000020220501000002400NNM   20220307152707    4N0N  00000240000000666500000923132AF    HBYHVTB 005500360039
BI00B32AF    JTB2052        202204227287-1915-30             CONNECTOR ASS'Y          CCN000004800000004800FN00000000020220501000004800NNMD0020220307163421    4N0N  00000240000000666500000923132AF    HBYHVTB 005500360039
BI00B32AF    JTB2053        202204297287-1915-30             CONNECTOR ASS'Y          CCN000004800000004800FN00000000020220501000004800NNMD0020220307164444    4N0N  00000240000000666500000923132AF    HBYHVTB 005500360039
BI00B32AF    JTB2054        202205067287-1915-30             CONNECTOR ASS'Y          CCN000004800000004800FN00000000020220501000004800NNMD0020220307165129    4N0N  00000240000000666500000923132AF    HBYHVTB 005500360039
BI00B32AF    JTB2052        202204227287-1915-40             CONNECTOR ASS'Y          CCN000002400000002400FN00000000020220501000002400NNMD0020220307163421    4N0N  00000240000000666500000923132AF    HBYHVTB 005500360039
BI00B32AF    JTB2053        202204297287-1915-40             CONNECTOR ASS'Y          CCN000002400000002400FN00000000020220501000002400NNMD0020220307164444    4N0N  00000240000000666500000923132AF    HBYHVTB 005500360039
BI00B32AF    JTB2054        202205067287-1915-40             CONNECTOR ASS'Y          CCN000002400000002400FN00000000020220501000002400NNMD0020220307165129    4N0N  00000240000000666500000923132AF    HBYHVTB 005500360039
BI00B32AF    JTB2053        202204297287-1917-40             CONNECTOR FEMALE         CCN000002400000002400FN00000000020220501000002400NNMD0020220307164444    4N0N  00000240000001060800001312532AF    HBYHVTB 005500360039
BI00B32AF    JTB2054        202205067287-1917-40             CONNECTOR FEMALE         CCN000002400000002400FN00000000020220501000002400NNMD0020220307165129    4N0N  00000240000001060800001312532AF    HBYHVTB 005500360039
BI00B32AF    JTB2051        202204087287-3885                HYBRID FEMALE ASS'Y      CCN000004800000004800FN00000000020220501000004800NNM   20220307152707    1N0N  00000240000001029600001249632AF    HBYHVTB 005500360039
BI00B32AF    JTB2052        202204227287-3885                HYBRID FEMALE ASS'Y      CCN000004800000004800FN00000000020220501000004800NNMD0020220307163421    1N0N  00000240000001029600001249632AF    HBYHVTB 005500360039
BI00B32AF    JTB2053        202204297287-3885                HYBRID FEMALE ASS'Y      CCN000004800000004800FN00000000020220501000004800NNMD0020220307164444    1N0N  00000240000001029600001249632AF    HBYHVTB 005500360039
BI00B32AF    JTB2054        202205067287-3885                HYBRID FEMALE ASS'Y      CCN000007200000007200FN00000000020220501000007200NNMD0020220307165129    1N0N  00000240000001029600001249632AF    HBYHVTB 005500360039
BI00B32AF    JTB2051        202204087287-9234                JOINT CONNECTOR          CCN000009600000009600FN00000000020220501000009600NNM   20220307152707    4N0N  00000960000000893800001184832AF    HBYHVTB 005500360039
BI00B32AF    JTB2051        202204087289-3342-30             HOUSING FEMALE ASS'Y     CCN000048000000048000FN00000000020220501000048000NNM   20220307152707    1N0N  00000240000000686400000901432AF    HBYHVTB 005500360039
BI00B32AF    JTB2052        202204227289-3342-30             HOUSING FEMALE ASS'Y     CCN000055200000055200FN00000000020220501000055200NNMD0020220307163421    1N0N  00000240000000686400000901432AF    HBYHVTB 005500360039
BI00B32AF    JTB2053        202204297289-3342-30             HOUSING FEMALE ASS'Y     CCN000055200000055200FN00000000020220501000055200NNMD0020220307164444    1N0N  00000240000000686400000901432AF    HBYHVTB 005500360039
BI00B32AF    JTB2054        202205067289-3342-30             HOUSING FEMALE ASS'Y     CCN000052800000052800FN00000000020220501000052800NNMD0020220307165129    1N0N  00000240000000686400000901432AF    HBYHVTB 005500360039
BI00B32AF    JTB2051        202204087289-5011-30             HOUSING FEMALE ASS'Y     CCN000007200000007200FN00000000020220501000007200NNM   20220307152707    4N0N  00000240000001171700001368632AF    HBYHVTB 005500360039
BI00B32AF    JTB2052        202204227289-5011-30             HOUSING FEMALE ASS'Y     CCN000031200000031200FN00000000020220501000031200NNMD0020220307163421    4N0N  00000240000001171700001368632AF    HBYHVTB 005500360039
BI00B32AF    JTB2053        202204297289-5011-30             HOUSING FEMALE ASS'Y     CCN000031200000031200FN00000000020220501000031200NNMD0020220307164444    4N0N  00000240000001171700001368632AF    HBYHVTB 005500360039
BI00B32AF    JTB2054        202205067289-5011-30             HOUSING FEMALE ASS'Y     CCN000036000000036000FN00000000020220501000036000NNMD0020220307165129    4N0N  00000240000001171700001368632AF    HBYHVTB 005500360039
BI00B32AF    JTB2053        202204297298-1865-30             HOUSING FEMALE ASS'Y     CCN000009600000009600FN00000000020220501000009600NNMD0020220307164444    4N0N  00000240000001003200001204532AF    HBYHVTB 005500360039
BI00B32AF    JTB2054        202205067298-1865-30             HOUSING FEMALE ASS'Y     CCN000024000000024000FN00000000020220501000024000NNMD0020220307165129    4N0N  00000240000001003200001204532AF    HBYHVTB 005500360039
BI00B32AF    JTB2053        202204297298-1869-30             HOUSING FEMALE ASS'Y     CCN000001200000001200FN00000000020220501000001200NNMD0020220307164444    4N0N  00000120000000737000000939832AF    HBYHVTB 005500360039
BI00B32AF    JTB2053        202204297298-2278-30             HOUSING FEMALE ASS'Y     CCN000002400000002400FN00000000020220501000002400NNMD0020220307164444    4N0N  00000240000001091700001295432AF    HBYHVTB 005500360039
BI00B32AF    JTB2054        202205067298-2278-30             HOUSING FEMALE ASS'Y     CCN000004800000004800FN00000000020220501000004800NNMD0020220307165129    4N0N  00000240000001091700001295432AF    HBYHVTB 005500360039
BI00B32AF    JTB2051        202204087298-2280-30             HOUSING FEMALE ASS'Y     CCN000001920000001920FN00000000020220501000001920NNM   20220307152707    4N0N  00000192000001068000001216032AF    HBYHVTB 005500360039
BI00B32AF    JTB2051        202204087298-2507-30             HOUSING FEMALE ASS'Y     CCN000002400000002400FN00000000020220501000002400NNM   20220307152707    4N0N  00000120000000713200000914532AF    HBYHVTB 005500360039
BI00B32AF    JTB2053        202204297298-2507-30             HOUSING FEMALE ASS'Y     CCN000002400000002400FN00000000020220501000002400NNMD0020220307164444    4N0N  00000120000000713200000914532AF    HBYHVTB 005500360039
BI00B32AF    JTB2051        202204087298-2508-30             HOUSING FEMALE ASS'Y     CCN000002400000002400FN00000000020220501000002400NNM   20220307152707    4N0N  00000120000000822000001005032AF    HBYHVTB 005500360039
BI00B32AF    JTB2054        202205067298-5955                CONNECTOR SUB ASSY       CCN000007200000007200FN00000000020220501000007200NNMD0020220307165129    4N0N  00000720000001029600001253032AF    HBYHVTB 005500360039
BI00B32AF    JTB2054        202205067388-0314                CONNECTOR ASS'Y          CCN000009600000009600FN00000000020220501000009600NNMD0020220307165129    4N0N  00000120000001038000001132332AF    HBYHVTB 005400370024
BI00B32AF    JTB2051        202204087388-0316-80             CONNECTOR ASS'Y          CCN000001200000001200FN00000000020220501000001200NNM   20220307152707    4N0N  00000120000001002500001132532AF    HBYHVTB 005400370024
BI00B32AF    JTB2052        202204227388-0316-80             CONNECTOR ASS'Y          CCN000001200000001200FN00000000020220501000001200NNMD0020220307163421    4N0N  00000120000001002500001132532AF    HBYHVTB 005400370024
BI00B32AF    JTB2053        202204297388-0316-80             CONNECTOR ASS'Y          CCN000001200000001200FN00000000020220501000001200NNMD0020220307164444    4N0N  00000120000001002500001132532AF    HBYHVTB 005400370024
BI00B32AF    JTB2054        202205067388-0316-80             CONNECTOR ASS'Y          CCN000001200000001200FN00000000020220501000001200NNMD0020220307165129    4N0N  00000120000001002500001132532AF    HBYHVTB 005400370024
BI00B32AF    JTB2053        202204297388-0317-60             CONNECTOR ASS'Y          CCN000003600000003600FN00000000020220501000003600NNMD0020220307164444    4N0N  00000120000001034400001129332AF    HBYHVTB 005400370024
BI00B32AF    JTB2054        202205067388-0317-60             CONNECTOR ASS'Y          CCN000010800000010800FN00000000020220501000010800NNMD0020220307165129    4N0N  00000120000001034400001129332AF    HBYHVTB 005400370024
BI00B32AF    #JTB2051       202204087116-4021                TERMINAL                 CCN000013500000013500FN00000000020220501000013500NNM   20220307152653    2F0P  00001350000000534600000868832AF    HBYHVTB 006400630015
BI00B32AF    #JTB2052       202204227116-4021                TERMINAL                 CCN000027000000027000FN00000000020220501000027000NNMD0020220307163549    2F0P  00001350000000534600000868832AF    HBYHVTB 006400630015
BI00B32AF    #JTB2053       202204297116-4021                TERMINAL                 CCN000040500000040500FN00000000020220501000040500NNMD0020220307164106    2F0P  00001350000000534600000868832AF    HBYHVTB 006400630015
BI00B32AF    #JTB2054       202205067116-4021                TERMINAL                 CCN000054000000054000FN00000000020220501000054000NNMD0020220307164835    2F0P  00001350000000534600000868832AF    HBYHVTB 006400630015
BI00B32AF    #JTB2054       202205067123-6347                CONNECTOR HOUSING        CCN000006400000006400FN00000000020220501000006400NNMD0020220307164835    2F0F  00000160000000647000000904832AF    HBYHVTB 005500360039
BI00B32AF    #JTB2054       202205067123-6423-30             CONNECTOR                CCN000008000000008000FN00000000020220501000008000NNMD0020220307164835    2F0F  00000200000001002000001167632AF    HBYHVTB 005600390023
BI00B32AF    #JTB2054       202205067158-3005-80             RUBBER STOPPER           CCN000020000000020000FN00000000020220501000020000NNMD0020220307164835    2H0H  00002000000000210000000268732AF    HBYHVTB 002700430014
BI00B32AF    #JTB2052       202204227158-3007-10             RUBBER STOPPER           CCN000020000000020000FN00000000020220501000020000NNMD0020220307163549    2H0H  00002000000000308000000362732AF    HBYHVTB 002700430014
BI00B32AF    #JTB2053       202204297158-3008-80             RUBBER STOPPER           CCN000020000000020000FN00000000020220501000020000NNMD0020220307164106    2C0C  00002000000000288000000343032AF    HBYHVTB 004300270014
BI00B32AF    #JTB2054       202205067158-3008-80             RUBBER STOPPER           CCN000020000000020000FN00000000020220501000020000NNMD0020220307164835    2C0C  00002000000000288000000343032AF    HBYHVTB 004300270014
BI00B32AF    #JTB2053       202204297158-3120-90             CONNECTOR WIRE SEAL      CCN000020000000020000FN00000000020220501000020000NNMD0020220307164106    2C0C  00002000000000136000000194032AF    HBYHVTB 002700430014
BI00B32AF    #JTB2054       202205067158-3120-90             CONNECTOR WIRE SEAL      CCN000180000000180000FN00000000020220501000180000NNMD0020220307164835    2C0C  00002000000000136000000194032AF    HBYHVTB 002700430014
BI00B32AF    #JTB2053       202204297158-3121-80             WIRE SEAL                CCN000040000000040000FN00000000020220501000040000NNMD0020220307164106    2C0C  00002000000000118000000187332AF    HBYHVTB 002700430014
BI00B32AF    #JTB2054       202205067158-3121-80             WIRE SEAL                CCN000040000000040000FN00000000020220501000040000NNMD0020220307164835    2C0C  00002000000000118000000187332AF    HBYHVTB 002700430014
BI00B32AF    #JTB2051       202204087183-1616-30             CONNECTOR HOUSING        CCN000002400000002400FN00000000020220501000002400NNM   20220307152653    2F0F  00000240000000557500000837132AF    HBYHVTB 005500360039
BI00B32AF    #JTB2052       202204227183-1616-30             CONNECTOR HOUSING        CCN000002400000002400FN00000000020220501000002400NNMD0020220307163549    2F0F  00000240000000557500000837132AF    HBYHVTB 005500360039
BI00B32AF    #JTB2053       202204297183-1616-30             CONNECTOR HOUSING        CCN000002400000002400FN00000000020220501000002400NNMD0020220307164106    2F0F  00000240000000557500000837132AF    HBYHVTB 005500360039
BI00B32AF    #JTB2054       202205067183-1616-30             CONNECTOR HOUSING        CCN000002400000002400FN00000000020220501000002400NNMD0020220307164835    2F0F  00000240000000557500000837132AF    HBYHVTB 005500360039
BI00B32AF    #JTB2052       202204227183-2413                CONNECTOR HOUSING        CCN000009600000009600FN00000000020220501000009600NNMD0020220307163549    2F0F  00000480000000478100000760032AF    HBYHVTB 005500360039
BI00B32AF    #JTB2053       202204297183-2413                CONNECTOR HOUSING        CCN000014400000014400FN00000000020220501000014400NNMD0020220307164106    2F0F  00000480000000478100000760032AF    HBYHVTB 005500360039
BI00B32AF    #JTB2054       202205067183-2413                CONNECTOR HOUSING        CCN000019200000019200FN00000000020220501000019200NNMD0020220307164835    2F0F  00000480000000478100000760032AF    HBYHVTB 005500360039
BI00B32AF    #JTB2052       202204227183-2413-30             CONNECTOR HOUSING        CCN000004800000004800FN00000000020220501000004800NNMD0020220307163549    2F0F  00000480000000477600000759532AF    HBYHVTB 005500360039
BI00B32AF    #JTB2053       202204297183-2413-30             CONNECTOR HOUSING        CCN000004800000004800FN00000000020220501000004800NNMD0020220307164106    2F0F  00000480000000477600000759532AF    HBYHVTB 005500360039
BI00B32AF    #JTB2054       202205067183-2413-30             CONNECTOR HOUSING        CCN000004800000004800FN00000000020220501000004800NNMD0020220307164835    2F0F  00000480000000477600000759532AF    HBYHVTB 005500360039
BI00B32AF    #JTB2054       202205067183-2414                CONNECTOR HOUSING        CCN000004800000004800FN00000000020220501000004800NNMD0020220307164835    2F0F  00000480000000779200001061032AF    HBYHVTB 005500360039
BI00B32AF    #JTB2054       202205067183-2418                CONNECTOR HOUSING        CCN000019200000019200FN00000000020220501000019200NNMD0020220307164835    2F0F  00000480000000917000001477032AF    HBYHVTB 005500360039
BI00B32AF    #JTB2053       202204297183-2419-30             HOUSING                  CCN000004800000004800FN00000000020220501000004800NNMD0020220307164106    2F0F  00000480000001064600001351832AF    HBYHVTB 005500360039
BI00B32AF    #JTB2054       202205067186-8851                HOUSING MALE             CCN000002000000002000FN00000000020220501000002000NNMD0020220307164835    2F0F  00000100000000782200000906232AF    HBYHVTB 005400370024
BI00B32AF    #JTB2053       202204297187-1616                HOUSING FEMALE           CCN000004000000004000FN00000000020220501000004000NNMD0020220307164106    2F0F  00000400000001152000001262032AF    HBYHVTB 005500360039
BI00B32AF    #JTB2054       202205067187-1616                HOUSING FEMALE           CCN000004000000004000FN00000000020220501000004000NNMD0020220307164835    2F0F  00000400000001152000001262032AF    HBYHVTB 005500360039
BI00B32AF    #JTB2051       202204087187-8856-60             HLC HOUSING FEMALE       CCN000004000000004000FN00000000020220501000004000NNM   20220307152653    2F0F  00000200000000820000000931532AF    HBYHVTB 005400370024
BI00B32AF    #JTB2052       202204227187-8856-60             HLC HOUSING FEMALE       CCN000004000000004000FN00000000020220501000004000NNMD0020220307163549    2F0F  00000200000000820000000931532AF    HBYHVTB 005400370024
BI00B32AF    #JTB2053       202204297187-8856-60             HLC HOUSING FEMALE       CCN000004000000004000FN00000000020220501000004000NNMD0020220307164106    2F0F  00000200000000820000000931532AF    HBYHVTB 005400370024
BI00B32AF    #JTB2054       202205067187-8856-60             HLC HOUSING FEMALE       CCN000002000000002000FN00000000020220501000002000NNMD0020220307164835    2F0F  00000200000000820000000931532AF    HBYHVTB 005400370024
BI00B32AF    #JTB2051       202204087189-3031                HOUSING FEMALE           CCN000000300000002400FN00000000020220501000002400NNM   20220307152653    2F0F  00000240000000928800001365832AF    HBYHVTB 005500360039
BI00B32AF    #JTB2053       202204297189-3031                HOUSING FEMALE           CCN000000600000002400FN00000000020220501000002400NNMD0020220307164106    2F0F  00000240000000928800001365832AF    HBYHVTB 005500360039
BI00B32AF    #JTB2053       202204297282-1030                CONNECTOR MALE ASS'Y     CCN000004000000004000FN00000000020220501000004000NNMD0020220307164106    2N0N  00000100000000365000000487532AF    HBYHVTB 005400370024
BI00B32AF    #JTB2054       202205067282-1030                CONNECTOR MALE ASS'Y     CCN000006000000006000FN00000000020220501000006000NNMD0020220307164835    2N0N  00000100000000365000000487532AF    HBYHVTB 005400370024
BI00B32AF    #JTB2054       202205067282-5528-70             HOUSING MALE ASS'Y       CCN000011000000011000FN00000000020220501000011000NNMD0020220307164835    2N0N  00000100000000230000000339032AF    HBYHVTB 005400370024
BI00B32AF    #JTB2051       202204087283-1150                HOUSING FEMALE ASS'Y     CCN000002000000002000FN00000000020220501000002000NNM   20220307152653    2N0N  00000100000000607000000719532AF    HBYHVTB 005400370024
BI00B32AF    #JTB2052       202204227283-1150                HOUSING FEMALE ASS'Y     CCN000002000000002000FN00000000020220501000002000NNMD0020220307163549    2N0N  00000100000000607000000719532AF    HBYHVTB 005400370024
BI00B32AF    #JTB2053       202204297283-1150                HOUSING FEMALE ASS'Y     CCN000002000000002000FN00000000020220501000002000NNMD0020220307164106    2N0N  00000100000000607000000719532AF    HBYHVTB 005400370024
BI00B32AF    #JTB2054       202205067283-1150                HOUSING FEMALE ASS'Y     CCN000002000000002000FN00000000020220501000002000NNMD0020220307164835    2N0N  00000100000000607000000719532AF    HBYHVTB 005400370024
BI00B32AF    #JTB2053       202204297283-8123                CONNECTOR HOUSING        CCN000004000000004000FN00000000020220501000004000NNMD0020220307164106    2N0N  00000400000000380000000531732AF    HBYHVTB 005600390023
BI00B32AF    #JTB2054       202205067283-8123                CONNECTOR HOUSING        CCN000004000000004000FN00000000020220501000004000NNMD0020220307164835    2N0N  00000400000000380000000531732AF    HBYHVTB 005600390023
BI00B32AF    #JTB2051       202204087286-7860-70             HOUSING MALE ASS'Y       CCN000004800000004800FN00000000020220501000004800NNM   20220307152653    2N0N  00000080000000000000000000032AF    HBYHVTB 000000000000
BI00B32AF    #JTB2052       202204227286-7860-70             HOUSING MALE ASS'Y       CCN000004200000004800FN00000000020220501000004800NNMD0020220307163549    2N0N  00000080000000000000000000032AF    HBYHVTB 000000000000
BI00B32AF    #JTB2053       202204297286-7860-70             HOUSING MALE ASS'Y       CCN000004200000004800FN00000000020220501000004800NNMD0020220307164106    2N0N  00000080000000000000000000032AF    HBYHVTB 000000000000
BI00B32AF    #JTB2054       202205067286-7860-70             HOUSING MALE ASS'Y       CCN000004200000004800FN00000000020220501000004800NNMD0020220307164835    2N0N  00000080000000000000000000032AF    HBYHVTB 000000000000
BI00B32AF    #JTB2054       202205067287-1669                HOUSING FEMALE ASS'Y     CCN000010000000010000FN00000000020220501000010000NNMD0020220307164835    2N0N  00000200000000788800000980832AF    HBYHVTB 005400370024
BI00B32AF    #JTB2054       202205067287-1670                HOUSING FEMALE ASS'Y     CCN000011200000011200FN00000000020220501000011200NNMD0020220307164835    2N0N  00000280000000953100001145132AF    HBYHVTB 005400370024
BI00B32AF    #JTB2054       202205067287-1671                HOUSING FEMALE ASS'Y     CCN000010000000010000FN00000000020220501000010000NNMD0020220307164835    2N0N  00000200000000782600000974632AF    HBYHVTB 005400370024
BI00B32AF    #JTB2054       202205067287-1674                HYBRID FEMALE ASS'Y      CCN000010000000010000FN00000000020220501000010000NNMD0020220307164835    2N0N  00000200000000810800001002832AF    HBYHVTB 005400370024
BI00B32A7    ZZ22051BMW     202204207137-3047-30             UNIT PACKING             CCN000037000000037000FN00000000020220501000037000NNMD0420220307121924    1C0C  00000100000000170500000218932A7    ZZZZY   002700430014
BI00B32A7    ZZ22052BMW     202204197137-3047-30             UNIT PACKING             CCN000023000000023000FN00000000020220501000023000NNMD0420220307121924    1C0C  00000100000000170500000218932A7    ZZZZY   002700430014
BI00B32A7    ZZ22053BMW     202204277137-3047-30             UNIT PACKING             CCN000022000000022000FN00000000020220501000022000NNMD0420220307121924    1C0C  00000100000000170500000218932A7    ZZZZY   002700430014
BI00B32A7    ZZ22054BMW     202205047137-3047-30             UNIT PACKING             CCN000012000000012000FN00000000020220501000012000NNMD0420220307121924    1C0C  00000100000000170500000218932A7    ZZZZY   002700430014
BI00B32A7    ZZ22051BMW     202204207172-5402-30             SEAL RUBBER              CCN000072000000072000FN00000000020220501000072000NNMD0420220307121924    1C0C  00000800000000457600000506032A7    ZZZZY   004300270014
BI00B32A7    ZZ22052BMW     202204197172-5402-30             SEAL RUBBER              CCN000080000000080000FN00000000020220501000080000NNMD0420220307121924    1C0C  00000800000000457600000506032A7    ZZZZY   004300270014
BI00B32A7    ZZ22051BMW     202204207172-5403-30             SEALED PACKING           CCN000068000000068000FN00000000020220501000068000NNMD0420220307121924    1C0C  00000400000000653600000701732A7    ZZZZY   004300270014
BI00B32A7    ZZ22052BMW     202204197172-5403-30             SEALED PACKING           CCN000088000000088000FN00000000020220501000088000NNMD0420220307121924    1C0C  00000400000000653600000701732A7    ZZZZY   004300270014
BI00B32A7    ZZ22053BMW     202204277172-5403-30             SEALED PACKING           CCN000044000000044000FN00000000020220501000044000NNMD0420220307121924    1C0C  00000400000000653600000701732A7    ZZZZY   004300270014
BI00B32A7    ZZ22054BMW     202205047172-5403-30             SEALED PACKING           CCN000028000000028000FN00000000020220501000028000NNMD0420220307121924    1C0C  00000400000000653600000701732A7    ZZZZY   004300270014
BI00B32A7    ZZ22052LMW     202204197158-3166-60             WIRE SEAL                CCN000360000000360000FN00000000020220501000360000NNMD0420220307121924    1C0C  00004000000000104000000152432A7    ZZZZY   002700430014
BI00B32A7    ZZ22053LMW     202204277158-3166-60             WIRE SEAL                CCN000360000000360000FN00000000020220501000360000NNMD0420220307121924    1C0C  00004000000000104000000152432A7    ZZZZY   002700430014
BI00B32A7    ZZ22051LMW     202204207158-3167-80             WIRE SEAL                CCN000200000000200000FN00000000020220501000200000NNMD0420220307121924    1C0C  00002000000000048000000109032A7    ZZZZY   002700430014
BI00B32A7    ZZ22052LMW     202204197158-3167-80             WIRE SEAL                CCN000360000000360000FN00000000020220501000360000NNMD0420220307121924    1C0C  00002000000000048000000109032A7    ZZZZY   002700430014
BI00B32A7    ZZ22053LMW     202204277158-3167-80             WIRE SEAL                CCN000360000000360000FN00000000020220501000360000NNMD0420220307121924    1C0C  00002000000000048000000109032A7    ZZZZY   002700430014
BI00B32A7    ZZ22054LMW     202205047158-3167-80             WIRE SEAL                CCN000200000000200000FN00000000020220501000200000NNMD0420220307121924    1C0C  00002000000000048000000109032A7    ZZZZY   002700430014
BI00B32B1    A22021         202204227114-4032                TERMINAL                 CCN000015000000015000FN00000000020220701000015000NNM   20220307121924B1  4P0P  00000750000000735000001063632B1    AXARNE-M006400630017
BI00B32B1    A22021         202204227282-5553-30             CONNECTOR                CCN000002000000002000FN00000000020220701000002000NNM   20220307121924B1  4N0N  00000100000001010000001187332B1    AXARNE-M005500360039
BI00B32B1    A22021         202204227282-5574-10             CONNECTOR                CCN000001600000001600FN00000000020220701000001600NNM   20220307121924B1  4N0N  00000080000001235000001423032B1    AXARNE-M005600390040
BI00B32B1    A22021         202204227288-3339-30             HOUSING MALE             CCN000001500000001500FN00000000020220701000001500NNM   20220307121924B1  4N0N  00000150000000867000001012032B1    AXARNE-M005400370024
BI00B32B1    A22021         202204227289-3342-30             HOUSING FEMALE ASS'Y     CCN000002400000002400FN00000000020220701000002400NNM   20220307121924B1  1N0N  00000240000000686400000901432B1    AXARNE-M005500360039
BI00B32B1    #A22021        202204227158-3376-50             CONNECTOR WIRE SEAL      CCN000020000000020000FN00000000020220701000020000NNM   20220307121924B1  2C0C  00002000000000184000000240732B1    AXARNE-M002700430014
BI00B32B1    #A22021        202204227282-8395-40             CONNECTOR                CCN000003000000003000FN00000000020220701000003000NNM   20220307121924B1  2N0N  00000100000001009000001188032B1    AXARNE-M005500360039
BI00B32B1    #A22021        202204227283-8226-30             CONNECTOR                CCN000008000000008000FN00000000020220701000008000NNM   20220307121924B1  2N0N  00000200000000820000001008032B1    AXARNE-M005400370024
BI00B32B1    #A22021        202204227283-8397-40             CONNECTOR                CCN000001540000001540FN00000000020220701000001540NNM   20220307121924B1  2N0N  00000154000001007000001222732B1    AXARNE-M005600390023
BI00B32B6    A72021         202204227116-4037                TERMINAL                 CCN000006000000006000FN00000000020220701000006000NNM   20220307121924B6  4P0P  00000600000000600000000894232B6    AXARNE-M006400630015
BI00B32B6    A72021         202204227017-1180-02             TERMINAL                 CCN000072000000072000FN00000000020220701000072000NNM   20220307121924B6  4P0P  00007200000001065600001229032B6    AXARNE-M005100280028
BI00B32B6    A72021         202204227017-1183-02             TERMINAL                 CCN000027000000027000FN00000000020220701000027000NNM   20220307121924B6  4P0P  00002700000001139400001307432B6    AXARNE-M005100280028
BI00B32B6    A72021         202204227116-4486-02             TERMINAL                 CCN000028000000028000FN00000000020220701000028000NNM   20220307121924B6  4P0P  00002800000000666400000995132B6    AXARNE-M006400630017
BI00B32B6    A72021         202204227116-5045-02             TERMINAL                 CCN000016000000016000FN00000000020220701000016000NNM   20220307121924B6  4P0P  00001600000000678400001007132B6    AXARNE-M006400630017
BI00B32B6    A72021         202204227158-3166-60             WIRE SEAL                CCN000120000000120000FN00000000020220701000120000NNM   20220307121924B6  1C0C  00004000000000104000000152432B6    AXARNE-M002700430014
BI00B32B6    A72021         202204227158-3169-40             SEALING PLUG             CCN000040000000040000FN00000000020220701000040000NNM   20220307121924B6  1C0C  00004000000000156000000204132B6    AXARNE-M004300260014
BI00B32B6    A72021         202204227287-0192-40             SEALED HOUSING ASS'Y     CCN000000480000000480FN00000000020220701000000480NNM   20220307121924B6  4N0N  00000048000001092000001322032B6    AXARNE-M005600390040
BI00B32B6    #A72021        202204227158-3015-10             RUBBER STOPPER           CCN000010000000010000FN00000000020220701000010000NNM   20220307121924B6  2C0C  00001000000000419500000474032B6    AXARNE-M002700430014
BI00B32B6    #A72021        202204227289-2915-30             HOUSING FEMALE ASS'Y     CCN000001500000001500FN00000000020220701000001500NNM   20220307121924B6  2N0N  00000150000000964500001091532B6    AXARNE-M005400370024
BI00B32B7    A82019A        202205207158-3167-80             WIRE SEAL                CCN000160000000160000FN00000000020220701000160000NNED0420220307121924B7  1C0C  00002000000000048000000109032B7    AXARNE-M002700430014
BI00B32B7    A82021         202204227158-3167-80             WIRE SEAL                CCN000160000000160000FN00000000020220701000160000NNM   20220307121924B7  1C0C  00002000000000048000000109032B7    AXARNE-M002700430014
BI00B32B7    A82021         202204227158-3169-40             SEALING PLUG             CCN000160000000160000FN00000000020220701000160000NNM   20220307121924B7  1C0C  00004000000000156000000204132B7    AXARNE-M004300260014
BI00B32B7    A82021         202204227282-6448-40             CONNECTOR                CCN000012800000012800FN00000000020220701000012800NNM   20220307121924B7  4N0N  00000080000000887000001152732B7    AXARNE-M005600390040
BI00B32B7    A82021         202204227283-8599-30             CONNECTOR                CCN000001540000001540FN00000000020220701000001540NNM   20220307121924B7  4N0N  00000154000000947100001157032B7    AXARNE-M005600390023
BI00B32B7    #A82021        202204227135-7031                GROMMET                  CCN000003000000003000FN00000000020220701000003000NNM   20220307121924B7  2H0H  00000010000000634200000744232B7    AXARNE-M005400370024
BI00B32B7    #A82021        202204227283-8398-40             CONNECTOR                CCN000010780000010780FN00000000020220701000010780NNM   20220307121924B7  2N0N  00000154000001007000001171332B7    AXARNE-M005600390023
BI00B32CA    PTA32091       202206027116-3153-02             TERMINAL FEMALE          CCN001980000001998000FN00000000020220901001998000NNE   20220307121924    4P0P  00002700000000459000000744232CA    YPYPY   006400630015
BI00B32CA    PTA32091       202206027116-3154-02             TERMINAL FEMALE          CCN000660000000675000FN00000000020220901000675000NNE   20220307121924    4P0P  00002700000000469800000755032CA    YPYPY   006400630015
BI00B32CA    PTA32091       202206027158-3167-80             WIRE SEAL                CCN000440000000440000FN00000000020220901000440000NNE   20220307121924    1C0C  00002000000000048000000109032CA    YPYPY   002700430014
BI00B32CA    PTA32091       202206027158-3168-80             SEALED                   CCN000040000000040000FN00000000020220901000040000NNE   20220307121924    1C0C  00002000000000044000000092132CA    YPYPY   004300260014
BI00B32CA    PTA32091       202206027158-3169-40             SEALING PLUG             CCN000040000000040000FN00000000020220901000040000NNE   20220307121924    1C0C  00004000000000156000000204132CA    YPYPY   004300260014
BI00B32CA    PTA32091       202206027196-0510-02             TERMINAL                 CCN000120000000120000FN00000000020220901000120000NNE   20220307121924    4P0P  00002400000000871200001034632CA    YPYPY   002800510028
BI00B32CA    PTA32091       202206027196-0512-02             TERMINAL                 CCN000015000000021000FN00000000020220901000021000NNE   20220307121924    4P0P  00002100000000871500001034932CA    YPYPY   002800510028
BI00B32CA    PTA32091       202206027287-9323                UNSEALED HOUSING SUB     CCN000009600000009600FN00000000020220901000009600NNE   20220307121924    1N0N  00000240000000537600000690032CA    YPYPY   005600390023
BI00B32CA    PTA32091       202206027289-3342                HOUSING FEMALE ASS'Y     CCN000045600000045600FN00000000020220901000045600NNE   20220307121924    1N0N  00000240000000686400000901432CA    YPYPY   005500360039
BI00B32CA    PTA32091       202206027289-3342-30             HOUSING FEMALE ASS'Y     CCN000067200000067200FN00000000020220901000067200NNE   20220307121924    1N0N  00000240000000686400000901432CA    YPYPY   005500360039
BI00B32CA    PTA32091       202206027289-3342-90             HOUSING FEMALE ASS'Y     CCN000021600000021600FN00000000020220901000021600NNE   20220307121924    1N0N  00000240000000686400000901432CA    YPYPY   005500360039
BI00B32CA    #PTA32091      202206027154-5597-30             CASSETTE R/B             CCN000007200000007200FN00000000020220901000007200NNE   20220307121924    2F0F  00000080000000736000000952032CA    YPYPY   005500360039
BI00B32CA    #PTA32091      202206027183-2414-30             CONNECTOR HOUSING        CCN000007500000009600FN00000000020220901000009600NNE   20220307121924    2F0F  00000480000000779500001061532CA    YPYPY   005500360039
BI00B32CA    #PTA32091      202206027189-3032-30             HOUSING FEMALE           CCN000009600000009600FN00000000020220901000009600NNE   20220307121924    2F0F  00000160000000801600001021632CA    YPYPY   005500360039
BI00B32CA    #PTA32091      202206027189-3034-30             HOUSING FEMALE           CCN000008000000008000FN00000000020220901000008000NNE   20220307121924    2F0F  00000160000000972800001192832CA    YPYPY   005500360039
BI00B32CA    #PTA32091      202206027189-3036                HOUSING FEMALE           CCN000001600000001600FN00000000020220901000001600NNE   20220307121924    2F0F  00000160000000921600001141632CA    YPYPY   005500360039
BI00B32CA    PTA32093       202206167116-3153-02             TERMINAL FEMALE          CCN001650000001674000FN00000000020220901001674000NNE   20220307121924    4P0P  00002700000000459000000744232CA    YPYPY   006400630015
BI00B32CA    PTA32093       202206167116-3154-02             TERMINAL FEMALE          CCN000462000000486000FN00000000020220901000486000NNE   20220307121924    4P0P  00002700000000469800000755032CA    YPYPY   006400630015
BI00B32CA    PTA32093       202206167158-3167-80             WIRE SEAL                CCN000200000000200000FN00000000020220901000200000NNE   20220307121924    1C0C  00002000000000048000000109032CA    YPYPY   002700430014
BI00B32CA    PTA32093       202206167196-0510-02             TERMINAL                 CCN000120000000120000FN00000000020220901000120000NNE   20220307121924    4P0P  00002400000000871200001034632CA    YPYPY   002800510028
BI00B32CA    PTA32093       202206167196-0512-02             TERMINAL                 CCN000015000000021000FN00000000020220901000021000NNE   20220307121924    4P0P  00002100000000871500001034932CA    YPYPY   002800510028
BI00B32CA    PTA32093       202206167287-9323                UNSEALED HOUSING SUB     CCN000004800000004800FN00000000020220901000004800NNE   20220307121924    1N0N  00000240000000537600000690032CA    YPYPY   005600390023
BI00B32CA    PTA32093       202206167289-3342                HOUSING FEMALE ASS'Y     CCN000045600000045600FN00000000020220901000045600NNE   20220307121924    1N0N  00000240000000686400000901432CA    YPYPY   005500360039
BI00B32CA    PTA32093       202206167289-3342-30             HOUSING FEMALE ASS'Y     CCN000062400000062400FN00000000020220901000062400NNE   20220307121924    1N0N  00000240000000686400000901432CA    YPYPY   005500360039
BI00B32CA    PTA32093       202206167289-3342-90             HOUSING FEMALE ASS'Y     CCN000021600000021600FN00000000020220901000021600NNE   20220307121924    1N0N  00000240000000686400000901432CA    YPYPY   005500360039
BI00B32CA    #PTA32093      202206167154-5597-30             CASSETTE R/B             CCN000007200000007200FN00000000020220901000007200NNE   20220307121924    2F0F  00000080000000736000000952032CA    YPYPY   005500360039
BI00B32CA    #PTA32093      202206167183-2414-30             CONNECTOR HOUSING        CCN000003750000004800FN00000000020220901000004800NNE   20220307121924    2F0F  00000480000000779500001061532CA    YPYPY   005500360039
BI00B32CA    #PTA32093      202206167189-3032-30             HOUSING FEMALE           CCN000006400000006400FN00000000020220901000006400NNE   20220307121924    2F0F  00000160000000801600001021632CA    YPYPY   005500360039
BI00B32CA    #PTA32093      202206167189-3034-30             HOUSING FEMALE           CCN000003200000003200FN00000000020220901000003200NNE   20220307121924    2F0F  00000160000000972800001192832CA    YPYPY   005500360039
BI00A32CJ    JQN203C        202203047126-8889-02             FUSE TERMINAL            CCN000000800000006000FY00000600020220301000000000NNE00020220307142311    4P0P  00000600000000448200000733432CJ    QNYHVQN 006400630015
BI00A32CJ    JQN203C        202203047126-8891-02             FUSE TERMINAL            CCN000000600000006000FY00000600020220301000000000NNE00020220307142319    4P0P  00000600000000481800000767032CJ    QNYHVQN 006400630015
BI00A32CJ    JQN203C        202203047126-8892-02             FUSE TERMINAL            CCN000000600000006000FY00000600020220301000000000NNE00020220307142335    4P0P  00000600000000495000000780232CJ    QNYHVQN 006400630015
BI00A32CJ    JQN203C        202203047195-2046-02             TERMINAL MALE            CCN000000350000008400FY00000840020220301000000000NNE00020220307142335    4P0P  00000840000000818200001111832CJ    QNYHVQN 006400630015
BI00B32CJ    JQN204A        202204017298-4094-10             HOUSING FEMALE ASS'Y     CCN000003380000003380FN00000000020220401000003380NNE   20220307160437    4N0N  00000338000001097400001358732CJ    QNYHVQN 005400370024
BI00B32CJ    JQN2055        202205067017-1181-02             TERMINAL                 CCN000063000000063000FN00000000020220501000063000NNM   20220307161711    4P0P  00006300000001089900001266832CJ    QNYHVQN 005100280028
BI00B32CJ    JQN2053        202204297114-4021                TERMINAL                 CCN000015000000015000FN00000000020220501000015000NNM   20220307161711    4P0P  00001500000000670500000964132CJ    QNYHVQN 006400630015
BI00B32CJ    JQN2055        202205067114-4021                TERMINAL                 CCN000015000000015000FN00000000020220501000015000NNM   20220307161711    4P0P  00001500000000670500000964132CJ    QNYHVQN 006400630015
BI00B32CJ    JQN2053        202204297114-4032                TERMINAL                 CCN000007500000007500FN00000000020220501000007500NNM   20220307161711    4P0P  00000750000000735000001063632CJ    QNYHVQN 006400630017
BI00B32CJ    JQN2055        202205067114-4032                TERMINAL                 CCN000007500000007500FN00000000020220501000007500NNM   20220307161711    4P0P  00000750000000735000001063632CJ    QNYHVQN 006400630017
BI00B32CJ    JQN2053        202204297114-4624-02             TERMINAL                 CCN000024000000024000FN00000000020220501000024000NNM   20220307161711    4P0P  00002400000000895200001188832CJ    QNYHVQN 006400630015
BI00B32CJ    JQN2055        202205067114-4624-02             TERMINAL                 CCN000024000000024000FN00000000020220501000024000NNM   20220307161711    4P0P  00002400000000895200001188832CJ    QNYHVQN 006400630015
BI00B32CJ    JQN2053        202204297114-4728-02             TERMINAL                 CCN000270000000270000FN00000000020220501000270000NNM   20220307161711    4P0P  00003000000000510000000804232CJ    QNYHVQN 006400630015
BI00B32CJ    JQN2054        202205067114-4728-02             TERMINAL                 CCN000270000000270000FN00000000020220501000270000NNM   20220307161711    4P0P  00003000000000510000000804232CJ    QNYHVQN 006400630015
BI00B32CJ    JQN2055        202205067114-4728-02             TERMINAL                 CCN000210000000210000FN00000000020220501000210000NNM   20220307161711    4P0P  00003000000000510000000804232CJ    QNYHVQN 006400630015
BI00B32CJ    JQN2053        202204297114-4728-08             TERMINAL                 CCN000030000000030000FN00000000020220501000030000NNM   20220307161711    4P0P  00003000000000507000000801232CJ    QNYHVQN 006400630015
BI00B32CJ    JQN2054        202205067114-4728-08             TERMINAL                 CCN000060000000060000FN00000000020220501000060000NNM   20220307161711    4P0P  00003000000000507000000801232CJ    QNYHVQN 006400630015
BI00B32CJ    JQN2055        202205067114-4728-08             TERMINAL                 CCN000030000000030000FN00000000020220501000030000NNM   20220307161711    4P0P  00003000000000507000000801232CJ    QNYHVQN 006400630015
BI00B32CJ    JQN2055        202205067114-4729-02             TERMINAL                 CCN000030000000030000FN00000000020220501000030000NNM   20220307161711    4P0P  00003000000000516000000810232CJ    QNYHVQN 006400630015
BI00B32CJ    JQN2055        202205067114-5746-02             TERMINAL                 CCN000021000000021000FN00000000020220501000021000NNM   20220307161711    4P0P  00002100000000695100000988732CJ    QNYHVQN 006400630015
BI00B32CJ    JQN2053        202204297114-5747-02             TERMINAL                 CCN000054000000054000FN00000000020220501000054000NNM   20220307161711    4P0P  00001800000000626400000920032CJ    QNYHVQN 006400630015
BI00B32CJ    JQN2054        202205067114-5747-02             TERMINAL                 CCN000126000000126000FN00000000020220501000126000NNM   20220307161711    4P0P  00001800000000626400000920032CJ    QNYHVQN 006400630015
BI00B32CJ    JQN2053        202204297114-5748-02             TERMINAL                 CCN000024000000024000FN00000000020220501000024000NNM   20220307161711    4P0P  00001200000000444000000737632CJ    QNYHVQN 006400630015
BI00B32CJ    JQN2054        202205067114-5748-02             TERMINAL                 CCN000024000000024000FN00000000020220501000024000NNM   20220307161711    4P0P  00001200000000444000000737632CJ    QNYHVQN 006400630015
BI00B32CJ    JQN2055        202205067114-5748-02             TERMINAL                 CCN000012000000012000FN00000000020220501000012000NNM   20220307161711    4P0P  00001200000000444000000737632CJ    QNYHVQN 006400630015
BI00B32CJ    JQN2054        202205067114-5753-02             TERMINAL                 CCN000027000000027000FN00000000020220501000027000NNM   20220307161711    4P0P  00002700000000847800001141432CJ    QNYHVQN 006400630015
BI00B32CJ    JQN2053        202204297114-6041                TERMINAL                 CCN000007200000007200FN00000000020220501000007200NNM   20220307161711    4P0P  00000360000000580700000824232CJ    QNYHVQN 006400630015
BI00B32CJ    JQN2054        202205067114-6041                TERMINAL                 CCN000007200000007200FN00000000020220501000007200NNM   20220307161711    4P0P  00000360000000580700000824232CJ    QNYHVQN 006400630015
BI00B32CJ    JQN2055        202205067114-6041                TERMINAL                 CCN000003600000003600FN00000000020220501000003600NNM   20220307161711    4P0P  00000360000000580700000824232CJ    QNYHVQN 006400630015
BI00B32CJ    JQN2054        202205067116-1685-02             TERMINAL                 CCN000024000000024000FN00000000020220501000024000NNM   20220307161711    4P0P  00002400000000897600001065232CJ    QNYHVQN 005100280028
BI00B32CJ    JQN2055        202205067116-1685-02             TERMINAL                 CCN000048000000048000FN00000000020220501000048000NNM   20220307161711    4P0P  00002400000000897600001065232CJ    QNYHVQN 005100280028
BI00B32CJ    JQN2054        202205067116-1686-02             TERMINAL                 CCN000021000000021000FN00000000020220501000021000NNM   20220307161711    4P0P  00002100000000869400001021632CJ    QNYHVQN 005100280028
BI00B32CJ    JQN2054        202205067116-3153-08             TERMINAL                 CCN000027000000027000FN00000000020220501000027000NNM   20220307161711    4P0P  00002700000000461700000746932CJ    QNYHVQN 006400630015
BI00B32CJ    JQN2055        202205067116-3153-08             TERMINAL                 CCN000027000000027000FN00000000020220501000027000NNM   20220307161711    4P0P  00002700000000461700000746932CJ    QNYHVQN 006400630015
BI00B32CJ    JQN2055        202205067116-4037                TERMINAL                 CCN000024000000024000FN00000000020220501000024000NNM   20220307161711    4P0P  00000600000000600000000894232CJ    QNYHVQN 006400630015
BI00B32CJ    JQN2054        202205067116-4415-02             TERMINAL                 CCN000038000000038000FN00000000020220501000038000NNM   20220307161711    4P0P  00003800000000596600000925732CJ    QNYHVQN 006400630017
BI00B32CJ    JQN2055        202205067116-4415-02             TERMINAL                 CCN000114000000114000FN00000000020220501000114000NNM   20220307161711    4P0P  00003800000000596600000925732CJ    QNYHVQN 006400630017
BI00B32CJ    JQN2053        202204297116-4416-02             TERMINAL                 CCN000096000000096000FN00000000020220501000096000NNM   20220307161711    4P0P  00003200000000518400000847132CJ    QNYHVQN 006400630017
BI00B32CJ    JQN2054        202205067116-4416-02             TERMINAL                 CCN000096000000096000FN00000000020220501000096000NNM   20220307161711    4P0P  00003200000000518400000847132CJ    QNYHVQN 006400630017
BI00B32CJ    JQN2055        202205067116-4416-02             TERMINAL                 CCN000064000000064000FN00000000020220501000064000NNM   20220307161711    4P0P  00003200000000518400000847132CJ    QNYHVQN 006400630017
BI00B32CJ    JQN2055        202205067116-4486-02             TERMINAL                 CCN000028000000028000FN00000000020220501000028000NNM   20220307161711    4P0P  00002800000000666400000995132CJ    QNYHVQN 006400630017
BI00B32CJ    JQN2055        202205067116-5035-02             TERMINAL                 CCN000045000000045000FN00000000020220501000045000NNM   20220307161711    4P0P  00001500000000543000000828232CJ    QNYHVQN 006400630015
BI00B32CJ    JQN2053        202204297116-5042-02             TERMINAL                 CCN000013500000013500FN00000000020220501000013500NNM   20220307161711    4P0P  00001350000000560300000845532CJ    QNYHVQN 006400630015
BI00B32CJ    JQN2054        202205067116-5042-02             TERMINAL                 CCN000027000000027000FN00000000020220501000027000NNM   20220307161711    4P0P  00001350000000560300000845532CJ    QNYHVQN 006400630015
BI00B32CJ    JQN2055        202205067116-5042-02             TERMINAL                 CCN000027000000027000FN00000000020220501000027000NNM   20220307161711    4P0P  00001350000000560300000845532CJ    QNYHVQN 006400630015
BI00B32CJ    JQN2053        202204297116-5043-02             TERMINAL FEMALE          CCN000012000000012000FN00000000020220501000012000NNM   20220307161711    4P0P  00001200000000559200000844432CJ    QNYHVQN 006400630015
BI00B32CJ    JQN2054        202205067116-5043-02             TERMINAL FEMALE          CCN000024000000024000FN00000000020220501000024000NNM   20220307161711    4P0P  00001200000000559200000844432CJ    QNYHVQN 006400630015
BI00B32CJ    JQN2055        202205067116-5043-02             TERMINAL FEMALE          CCN000012000000012000FN00000000020220501000012000NNM   20220307161711    4P0P  00001200000000559200000844432CJ    QNYHVQN 006400630015
BI00B32CJ    JQN2051        202204087116-5044-02             TERMINAL                 CCN000016000000016000FN00000000020220501000016000NNM   20220307161711    4P0P  00001600000000641600000986332CJ    QNYHVQN 006400630017
BI00B32CJ    JQN2053        202204297116-5044-02             TERMINAL                 CCN000160000000160000FN00000000020220501000160000NNM   20220307161711    4P0P  00001600000000641600000986332CJ    QNYHVQN 006400630017
BI00B32CJ    JQN2054        202205067116-5044-02             TERMINAL                 CCN000128000000128000FN00000000020220501000128000NNM   20220307161711    4P0P  00001600000000641600000986332CJ    QNYHVQN 006400630017
BI00B32CJ    JQN2055        202205067116-5044-02             TERMINAL                 CCN000128000000128000FN00000000020220501000128000NNM   20220307161711    4P0P  00001600000000641600000986332CJ    QNYHVQN 006400630017
BI00B32CJ    JQN2051        202204087116-5045-02             TERMINAL                 CCN000016000000016000FN00000000020220501000016000NNM   20220307161711    4P0P  00001600000000678400001007132CJ    QNYHVQN 006400630017
BI00B32CJ    JQN2053        202204297116-6041                TERMINAL                 CCN000004500000004500FN00000000020220501000004500NNM   20220307161711    4P0P  00000450000000716000001009632CJ    QNYHVQN 006400630015
BI00B32CJ    JQN2055        202205067116-6041                TERMINAL                 CCN000004500000004500FN00000000020220501000004500NNM   20220307161711    4P0P  00000450000000716000001009632CJ    QNYHVQN 006400630015
BI00B32CJ    JQN2051        202204087116-6042                TERMINAL                 CCN000006000000006000FN00000000020220501000006000NNM   20220307161711    4P0P  00000300000000523800000856132CJ    QNYHVQN 006400630015
BI00B32CJ    JQN2053        202204297116-6042                TERMINAL                 CCN000003000000003000FN00000000020220501000003000NNM   20220307161711    4P0P  00000300000000523800000856132CJ    QNYHVQN 006400630015
BI00B32CJ    JQN2054        202205067116-6042                TERMINAL                 CCN000003000000003000FN00000000020220501000003000NNM   20220307161711    4P0P  00000300000000523800000856132CJ    QNYHVQN 006400630015
BI00B32CJ    JQN2055        202205067116-6042                TERMINAL                 CCN000006000000006000FN00000000020220501000006000NNM   20220307161711    4P0P  00000300000000523800000856132CJ    QNYHVQN 006400630015
BI00B32CJ    JQN2055        202205067126-8853-02             TERMINAL                 CCN000022500000022500FN00000000020220501000022500NNM   20220307161711    4P0P  00000750000000562500000847732CJ    QNYHVQN 006400630015
BI00B32CJ    JQN2054        202205067158-3006-90             RUBBER STOPPER           CCN000020000000020000FN00000000020220501000020000NNM   20220307161711    1C0C  00002000000000330600000386032CJ    QNYHVQN 002700430014
BI00B32CJ    JQN2055        202205067158-3006-90             RUBBER STOPPER           CCN000040000000040000FN00000000020220501000040000NNM   20220307161711    1C0C  00002000000000330600000386032CJ    QNYHVQN 002700430014
BI00B32CJ    JQN2053        202204297158-3070-80             RUBBER STOPPER           CCN000040000000040000FN00000000020220501000040000NNM   20220307161711    1C0C  00004000000000276000000333332CJ    QNYHVQN 002700430014
BI00B32CJ    JQN2054        202205067158-3070-80             RUBBER STOPPER           CCN000040000000040000FN00000000020220501000040000NNM   20220307161711    1C0C  00004000000000276000000333332CJ    QNYHVQN 002700430014
BI00B32CJ    JQN2055        202205067158-3070-80             RUBBER STOPPER           CCN000040000000040000FN00000000020220501000040000NNM   20220307161711    1C0C  00004000000000276000000333332CJ    QNYHVQN 002700430014
BI00B32CJ    JQN2054        202205067158-3165-90             WIRE SEAL                CCN000200000000200000FN00000000020220501000200000NNM   20220307161711    1C0C  00004000000000124000000172432CJ    QNYHVQN 004300270014
BI00B32CJ    JQN2051        202204087158-3167-80             WIRE SEAL                CCN000060000000060000FN00000000020220501000060000NNM   20220307161711    1C0C  00002000000000048000000109032CJ    QNYHVQN 002700430014
BI00B32CJ    JQN2053        202204297158-3167-80             WIRE SEAL                CCN000040000000040000FN00000000020220501000040000NNM   20220307161711    1C0C  00002000000000048000000109032CJ    QNYHVQN 002700430014
BI00B32CJ    JQN2054        202205067158-3167-80             WIRE SEAL                CCN000060000000060000FN00000000020220501000060000NNM   20220307161711    1C0C  00002000000000048000000109032CJ    QNYHVQN 002700430014
BI00B32CJ    JQN2055        202205067158-3167-80             WIRE SEAL                CCN000040000000040000FN00000000020220501000040000NNM   20220307161711    1C0C  00002000000000048000000109032CJ    QNYHVQN 002700430014
BI00B32CJ    JQN2051        202204087196-1103-02             TERMINAL                 CCN000045000000045000FN00000000020220501000045000NNM   20220307161711    4P0P  00002250000000429800000715032CJ    QNYHVQN 006400630015
BI00B32CJ    JQN2053        202204297196-1103-02             TERMINAL                 CCN000090000000090000FN00000000020220501000090000NNM   20220307161711    4P0P  00002250000000429800000715032CJ    QNYHVQN 006400630015
BI00B32CJ    JQN2054        202205067196-1103-02             TERMINAL                 CCN000090000000090000FN00000000020220501000090000NNM   20220307161711    4P0P  00002250000000429800000715032CJ    QNYHVQN 006400630015
BI00B32CJ    JQN2051        202204087196-1104-02             TERMINAL                 CCN000022500000022500FN00000000020220501000022500NNM   20220307161711    4P0P  00002250000000441000000726232CJ    QNYHVQN 006400630015
BI00B32CJ    JQN2053        202204297196-1104-02             TERMINAL                 CCN000022500000022500FN00000000020220501000022500NNM   20220307161711    4P0P  00002250000000441000000726232CJ    QNYHVQN 006400630015
BI00B32CJ    JQN2054        202205067196-1104-02             TERMINAL                 CCN000022500000022500FN00000000020220501000022500NNM   20220307161711    4P0P  00002250000000441000000726232CJ    QNYHVQN 006400630015
BI00B32CJ    JQN2051        202204087282-4576                HOUSING MALE ASS'Y       CCN000007200000007200FN00000000020220501000007200NNM   20220307161711    4N0N  00000240000000808800001028832CJ    QNYHVQN 005500360039
BI00B32CJ    JQN2053        202204297282-4576                HOUSING MALE ASS'Y       CCN000004800000004800FN00000000020220501000004800NNM   20220307161711    4N0N  00000240000000808800001028832CJ    QNYHVQN 005500360039
BI00B32CJ    JQN2054        202205067282-4576                HOUSING MALE ASS'Y       CCN000004800000004800FN00000000020220501000004800NNM   20220307161711    4N0N  00000240000000808800001028832CJ    QNYHVQN 005500360039
BI00B32CJ    JQN2053        202204297282-4578                HOUSING MALE ASS'Y       CCN000002400000002400FN00000000020220501000002400NNM   20220307161711    4N0N  00000120000000782600000992632CJ    QNYHVQN 005500360039
BI00B32CJ    JQN2054        202205067282-4578                HOUSING MALE ASS'Y       CCN000003600000003600FN00000000020220501000003600NNM   20220307161711    4N0N  00000120000000782600000992632CJ    QNYHVQN 005500360039
BI00B32CJ    JQN2055        202205067282-4578                HOUSING MALE ASS'Y       CCN000003600000003600FN00000000020220501000003600NNM   20220307161711    4N0N  00000120000000782600000992632CJ    QNYHVQN 005500360039
BI00B32CJ    JQN2053        202204297283-1156                CONNECTOR                CCN000008800000008800FN00000000020220501000008800NNM   20220307161711    4N0N  00000080000000877600001078032CJ    QNYHVQN 005600390040
BI00B32CJ    JQN2054        202205067283-1156                CONNECTOR                CCN000009600000009600FN00000000020220501000009600NNM   20220307161711    4N0N  00000080000000877600001078032CJ    QNYHVQN 005600390040
BI00B32CJ    JQN2055        202205067283-1156                CONNECTOR                CCN000001600000001600FN00000000020220501000001600NNM   20220307161711    4N0N  00000080000000877600001078032CJ    QNYHVQN 005600390040
BI00B32CJ    JQN2054        202205067283-4576                HOUSING FEMALE ASS'Y     CCN000014400000014400FN00000000020220501000014400NNM   20220307161711    4N0N  00000480000000651300000871332CJ    QNYHVQN 005500360039
BI00B32CJ    JQN2054        202205067283-4577                CONNECTOR HOUSING        CCN000004800000004800FN00000000020220501000004800NNM   20220307161711    4N0N  00000480000000916800001136832CJ    QNYHVQN 005500360039
BI00B32CJ    JQN2051        202204087287-3885                HYBRID FEMALE ASS'Y      CCN000004800000004800FN00000000020220501000004800NNM   20220307161711    1N0N  00000240000001029600001249632CJ    QNYHVQN 005500360039
BI00B32CJ    JQN2053        202204297287-3885                HYBRID FEMALE ASS'Y      CCN000002400000002400FN00000000020220501000002400NNM   20220307161711    1N0N  00000240000001029600001249632CJ    QNYHVQN 005500360039
BI00B32CJ    JQN2054        202205067287-3885                HYBRID FEMALE ASS'Y      CCN000004800000004800FN00000000020220501000004800NNM   20220307161711    1N0N  00000240000001029600001249632CJ    QNYHVQN 005500360039
BI00B32CJ    JQN2055        202205067287-3885                HYBRID FEMALE ASS'Y      CCN000002400000002400FN00000000020220501000002400NNM   20220307161711    1N0N  00000240000001029600001249632CJ    QNYHVQN 005500360039
BI00B32CJ    JQN2054        202205067287-9234                JOINT CONNECTOR          CCN000009600000009600FN00000000020220501000009600NNM   20220307161711    4N0N  00000960000000893800001184832CJ    QNYHVQN 005500360039
BI00B32CJ    JQN2054        202205067289-3342                HOUSING FEMALE ASS'Y     CCN000002400000002400FN00000000020220501000002400NNM   20220307161711    1N0N  00000240000000686400000901432CJ    QNYHVQN 005500360039
BI00B32CJ    JQN2055        202205067289-3342                HOUSING FEMALE ASS'Y     CCN000007200000007200FN00000000020220501000007200NNM   20220307161711    1N0N  00000240000000686400000901432CJ    QNYHVQN 005500360039
BI00B32CJ    JQN2051        202204087289-3342-30             HOUSING FEMALE ASS'Y     CCN000009600000009600FN00000000020220501000009600NNM   20220307161711    1N0N  00000240000000686400000901432CJ    QNYHVQN 005500360039
BI00B32CJ    JQN2053        202204297289-3342-30             HOUSING FEMALE ASS'Y     CCN000009600000009600FN00000000020220501000009600NNM   20220307161711    1N0N  00000240000000686400000901432CJ    QNYHVQN 005500360039
BI00B32CJ    JQN2054        202205067289-3342-30             HOUSING FEMALE ASS'Y     CCN000009600000009600FN00000000020220501000009600NNM   20220307161711    1N0N  00000240000000686400000901432CJ    QNYHVQN 005500360039
BI00B32CJ    JQN2055        202205067289-3342-30             HOUSING FEMALE ASS'Y     CCN000009600000009600FN00000000020220501000009600NNM   20220307161711    1N0N  00000240000000686400000901432CJ    QNYHVQN 005500360039
BI00B32CJ    JQN2055        202205067289-3342-90             HOUSING FEMALE ASS'Y     CCN000002400000002400FN00000000020220501000002400NNM   20220307161711    1N0N  00000240000000686400000901432CJ    QNYHVQN 005500360039
BI00B32CJ    JQN2055        202205067289-6547                HOUSING FEMALE ASS'Y     CCN000002400000002400FN00000000020220501000002400NNM   20220307161711    1N0N  00000240000001152000001362032CJ    QNYHVQN 005500360039
BI00B32CJ    JQN2051        202204087298-4094-10             HOUSING FEMALE ASS'Y     CCN000003380000003380FN00000000020220501000003380NNM   20220307161711    4N0N  00000338000001097400001358732CJ    QNYHVQN 005400370024
BI00B32CJ    JQN2054        202205067298-4094-10             HOUSING FEMALE ASS'Y     CCN000003380000003380FN00000000020220501000003380NNM   20220307161711    4N0N  00000338000001097400001358732CJ    QNYHVQN 005400370024
BI00B32CJ    JQN2051        202204087327-6987-3W             BATTERY FUSE             CCN000002088000002088FN00000000020220501000002088NNM   20220307161711    4N0N  00000007200000000000000000032CJ    QNYHVQN 000000000000
BI00B32CJ    JQN2053        202204297327-6987-3W             BATTERY FUSE             CCN000001080000001080FN00000000020220501000001080NNM   20220307161711    4N0N  00000007200000000000000000032CJ    QNYHVQN 000000000000
BI00B32CJ    JQN2054        202205067327-6987-3W             BATTERY FUSE             CCN000001008000001008FN00000000020220501000001008NNM   20220307161711    4N0N  00000007200000000000000000032CJ    QNYHVQN 000000000000
BI00B32CJ    JQN2055        202205067327-6987-3W             BATTERY FUSE             CCN000001152000001152FN00000000020220501000001152NNM   20220307161711    4N0N  00000007200000000000000000032CJ    QNYHVQN 000000000000
BI00B32CJ    JQN2052        202204227158-3009-60             RUBBER STOPPER           CCN000060000000060000FN00000000020220501000060000NNM   20220307161711    1C0C  00002000000000338000000386232CJ    QNYHVQN 002700430014
BI00B32CJ    JQN2053        202204297158-3009-60             RUBBER STOPPER           CCN000060000000060000FN00000000020220501000060000NNM   20220307161711    1C0C  00002000000000338000000386232CJ    QNYHVQN 002700430014
BI00B32CJ    JQN2054        202205067158-3009-60             RUBBER STOPPER           CCN000060000000060000FN00000000020220501000060000NNM   20220307161711    1C0C  00002000000000338000000386232CJ    QNYHVQN 002700430014
BI00B32CJ    #JQN2054       202205067157-3992-90             CONNECTOR SEALED         CCN000040000000040000FN00000000020220501000040000NNM   20220307161709    2C0C  00004000000000300000000363332CJ    QNYHVQN 002700430014
BI00B32CJ    #JQN2054       202205067158-3008-80             RUBBER STOPPER           CCN000020000000020000FN00000000020220501000020000NNM   20220307161709    2C0C  00002000000000288000000343032CJ    QNYHVQN 004300270014
BI00B32CJ    #JQN2054       202205067158-3015-10             RUBBER STOPPER           CCN000010000000010000FN00000000020220501000010000NNM   20220307161709    2C0C  00001000000000419500000474032CJ    QNYHVQN 002700430014
BI00B32CJ    #JQN2051       202204087172-5629-80             RUBBER STOPPER           CCN000080000000080000FN00000000020220501000080000NNM   20220307161709    2H0H  00002000000000060000000111132CJ    QNYHVQN 004300270014
BI00B32CJ    #JQN2053       202204297172-5629-80             RUBBER STOPPER           CCN000140000000140000FN00000000020220501000140000NNM   20220307161709    2H0H  00002000000000060000000111132CJ    QNYHVQN 004300270014
BI00B32CJ    #JQN2054       202205067172-5629-80             RUBBER STOPPER           CCN000160000000160000FN00000000020220501000160000NNM   20220307161709    2H0H  00002000000000060000000111132CJ    QNYHVQN 004300270014
BI00B32CJ    #JQN2055       202205067172-5629-80             RUBBER STOPPER           CCN000140000000140000FN00000000020220501000140000NNM   20220307161709    2H0H  00002000000000060000000111132CJ    QNYHVQN 004300270014
BI00B32CJ    #JQN2053       202204297172-5630-40             RUBBER STOPPER           CCN000020000000020000FN00000000020220501000020000NNM   20220307161709    2H0H  00002000000000044000000095132CJ    QNYHVQN 004300270014
BI00B32CJ    #JQN2054       202205067172-5630-40             RUBBER STOPPER           CCN000040000000040000FN00000000020220501000040000NNM   20220307161709    2H0H  00002000000000044000000095132CJ    QNYHVQN 004300270014
BI00B32CJ    #JQN2055       202205067172-5630-40             RUBBER STOPPER           CCN000020000000020000FN00000000020220501000020000NNM   20220307161709    2H0H  00002000000000044000000095132CJ    QNYHVQN 004300270014
BI00B32CJ    #JQN2054       202205067172-5631-60             RUBBER STOPPER           CCN000020000000020000FN00000000020220501000020000NNM   20220307161709    2H0H  00002000000000042000000093132CJ    QNYHVQN 004300270014
BI00B32CJ    #JQN2051       202204087172-5632-10             DUMMY PLUG               CCN000060000000060000FN00000000020220501000060000NNM   20220307161709    2H0H  00002000000000080400000131832CJ    QNYHVQN 004300270014
BI00B32CJ    #JQN2053       202204297172-5632-10             DUMMY PLUG               CCN000080000000080000FN00000000020220501000080000NNM   20220307161709    2H0H  00002000000000080400000131832CJ    QNYHVQN 004300270014
BI00B32CJ    #JQN2054       202205067172-5632-10             DUMMY PLUG               CCN000060000000060000FN00000000020220501000060000NNM   20220307161709    2H0H  00002000000000080400000131832CJ    QNYHVQN 004300270014
BI00B32CJ    #JQN2055       202205067172-5632-10             DUMMY PLUG               CCN000060000000060000FN00000000020220501000060000NNM   20220307161709    2H0H  00002000000000080400000131832CJ    QNYHVQN 004300270014
BI00B32CJ    #JQN2051       202204087183-1615                HOUSING                  CCN000004800000004800FN00000000020220501000004800NNM   20220307161709    2F0F  00000480000000757000001042032CJ    QNYHVQN 005500360039
BI00B32CJ    #JQN2055       202205067183-2413                CONNECTOR HOUSING        CCN000009600000009600FN00000000020220501000009600NNM   20220307161709    2F0F  00000480000000478100000760032CJ    QNYHVQN 005500360039
BI00B32CJ    #JQN2053       202204297183-2413-30             CONNECTOR HOUSING        CCN000004800000004800FN00000000020220501000004800NNM   20220307161709    2F0F  00000480000000477600000759532CJ    QNYHVQN 005500360039
BI00B32CJ    #JQN2054       202205067183-2413-30             CONNECTOR HOUSING        CCN000004800000004800FN00000000020220501000004800NNM   20220307161709    2F0F  00000480000000477600000759532CJ    QNYHVQN 005500360039
BI00B32CJ    #JQN2055       202205067183-2413-30             CONNECTOR HOUSING        CCN000009600000009600FN00000000020220501000009600NNM   20220307161709    2F0F  00000480000000477600000759532CJ    QNYHVQN 005500360039
BI00B32CJ    #JQN2054       202205067183-2415                CONNECTOR HOUSING        CCN000004800000004800FN00000000020220501000004800NNM   20220307161709    2F0F  00000480000000798200001091432CJ    QNYHVQN 005500360039
BI00B32CJ    #JQN2055       202205067183-2415                CONNECTOR HOUSING        CCN000004800000004800FN00000000020220501000004800NNM   20220307161709    2F0F  00000480000000798200001091432CJ    QNYHVQN 005500360039
BI00B32CJ    #JQN2051       202204087183-2419                HOUSING                  CCN000004800000004800FN00000000020220501000004800NNM   20220307161709    2F0F  00000480000001065600001352732CJ    QNYHVQN 005500360039
BI00B32CJ    #JQN2053       202204297183-2419                HOUSING                  CCN000004800000004800FN00000000020220501000004800NNM   20220307161709    2F0F  00000480000001065600001352732CJ    QNYHVQN 005500360039
BI00B32CJ    #JQN2055       202205067183-2419                HOUSING                  CCN000004800000004800FN00000000020220501000004800NNM   20220307161709    2F0F  00000480000001065600001352732CJ    QNYHVQN 005500360039
BI00B32CJ    #JQN2054       202205067187-1616                HOUSING FEMALE           CCN000004000000004000FN00000000020220501000004000NNM   20220307161709    2F0F  00000400000001152000001262032CJ    QNYHVQN 005500360039
BI00B32CJ    #JQN2051       202204087189-3038                HOUSING FEMALE           CCN000001600000001600FN00000000020220501000001600NNM   20220307161709    2F0F  00000160000000817600000850132CJ    QNYHVQN 005500360039
BI00B32CJ    #JQN2054       202205067189-3038                HOUSING FEMALE           CCN000001600000001600FN00000000020220501000001600NNM   20220307161709    2F0F  00000160000000817600000850132CJ    QNYHVQN 005500360039
BI00B32CJ    #JQN2051       202204087198-5394                HOUSING FEMALE           CCN000004800000004800FN00000000020220501000004800NNM   20220307161709    2F0F  00000480000000489700000688832CJ    QNYHVQN 005500360039
BI00B32CJ    #JQN2054       202205067282-1210                CONNECTOR MALE ASS'Y     CCN000001000000001000FN00000000020220501000001000NNM   20220307161709    2N0N  00000100000000336000000458532CJ    QNYHVQN 005400370024
BI00B32CJ    #JQN2055       202205067282-5528-70             HOUSING MALE ASS'Y       CCN000004000000004000FN00000000020220501000004000NNM   20220307161709    2N0N  00000100000000230000000339032CJ    QNYHVQN 005400370024
BI00B32CJ    #JQN2054       202205067283-8123                CONNECTOR HOUSING        CCN000004000000004000FN00000000020220501000004000NNM   20220307161709    2N0N  00000400000000380000000531732CJ    QNYHVQN 005600390023
BI00B32CJ    #JQN2055       202205067283-8123                CONNECTOR HOUSING        CCN000004000000004000FN00000000020220501000004000NNM   20220307161709    2N0N  00000400000000380000000531732CJ    QNYHVQN 005600390023
BI00B32CJ    #JQN2055       202205067287-1669                HOUSING FEMALE ASS'Y     CCN000008000000008000FN00000000020220501000008000NNM   20220307161709    2N0N  00000200000000788800000980832CJ    QNYHVQN 005400370024
BI00B32CJ    #JQN2051       202204087287-7022                CONNECTOR FEMALE         CCN000001200000001200FN00000000020220501000001200NNM   20220307161709    2NON  00000120000000742800000853032CJ    QNYHVQN 005400370024
BI00B32CJ    #JQN2053       202204297287-7022                CONNECTOR FEMALE         CCN000001200000001200FN00000000020220501000001200NNM   20220307161709    2NON  00000120000000742800000853032CJ    QNYHVQN 005400370024
BI00B32CJ    #JQN2054       202205067287-7022                CONNECTOR FEMALE         CCN000001200000001200FN00000000020220501000001200NNM   20220307161709    2NON  00000120000000742800000853032CJ    QNYHVQN 005400370024
BI00B32DA    SBT2205        202204077158-3006-90             RUBBER STOPPER           CCN000380000000380000FN00000000020220501000380000NNMD0420220307121924    1C0C  00002000000000330600000386032DA    GBYIPLGB002700430014
BI00B32DA    SBT2205A       202204217158-3006-90             RUBBER STOPPER           CCN000380000000380000FN00000000020220501000380000NNMD0420220307121924    1C0C  00002000000000330600000386032DA    GBYIPLGB002700430014
BI00B32DA    SBT2205        202204077158-3009-60             RUBBER STOPPER           CCN000270000000280000FN00000000020220501000280000NNMD0420220307121924    1C0C  00002000000000338000000386232DA    GBYIPLGB002700430014
BI00B32DA    SBT2205A       202204217158-3009-60             RUBBER STOPPER           CCN000270000000280000FN00000000020220501000280000NNMD0420220307121924    1C0C  00002000000000338000000386232DA    GBYIPLGB002700430014
BI00A32D1    DFTC2204       202203247289-3342-30             HOUSING FEMALE ASS'Y     PCN000062400000062400FN00000000020220101000062400NNMD0420220307154747    1N0N  00000240000000686400000901432D1    TOYOT-K 005500360039
BI00A32D2    DGTC2219       202203247289-3342-30             HOUSING FEMALE ASS'Y     PCN000009600000009600FN00000000020220501000009600NNMM0020220307160522    1N0N  00000240000000686400000901432D2    TGYOT-G 005500360039
BI00B32D2    DGTC2222       202204077017-1180-02             TERMINAL                 CCN000072000000072000FN00000000020220601000072000NNM   20220307134020    4P0P  00007200000001065600001229032D2    TGYOT-G 005100280028
BI00B32D2    DGTC2222       202204077114-4032                TERMINAL                 CCN000037500000037500FN00000000020220601000037500NNM   20220307134020    4P0P  00000750000000735000001063632D2    TGYOT-G 006400630017
BI00B32D2    DGTC2222       202204077114-5748-02             TERMINAL                 CCN000084000000084000FN00000000020220601000084000NNM   20220307134020    4P0P  00001200000000444000000737632D2    TGYOT-G 006400630015
BI00B32D2    DGTC2222       202204077114-5753-02             TERMINAL                 CCN000162000000162000FN00000000020220601000162000NNM   20220307134020    4P0P  00002700000000847800001141432D2    TGYOT-G 006400630015
BI00B32D2    DGTC2222       202204077114-7842-02             TERMINAL MALE            CCN000012000000012000FN00000000020220601000012000NNM   20220307134020    4P0P  00001200000000460800000754432D2    TGYOT-G 006400630015
BI00B32D2    DGTC2222       202204077116-2891-02             TERMINAL                 CCN000060000000060000FN00000000020220601000060000NNM   20220307134020    4P0P  00001500000000982500001145932D2    TGYOT-G 005100280028
BI00B32D2    DGTC2222       202204077116-4486-02             TERMINAL                 CCN000168000000168000FN00000000020220601000168000NNM   20220307134020    4P0P  00002800000000666400000995132D2    TGYOT-G 006400630017
BI00B32D2    DGTC2222       202204077116-5045-02             TERMINAL                 CCN000112000000112000FN00000000020220601000112000NNM   20220307134020    4P0P  00001600000000678400001007132D2    TGYOT-G 006400630017
BI00B32D2    DGTC2222       202204077116-5046-02             TERMINAL                 CCN000156000000156000FN00000000020220601000156000NNM   20220307134020    4P0P  00001200000000544800000873532D2    TGYOT-G 006400630017
BI00B32D2    DGTC2222       202204077116-6042                TERMINAL                 CCN000096000000096000FN00000000020220601000096000NNM   20220307134020    4P0P  00000300000000523800000856132D2    TGYOT-G 006400630015
BI00B32D2    DGTC2222       202204077126-8853-02             TERMINAL                 CCN000195000000195000FN00000000020220601000195000NNM   20220307134020    4P0P  00000750000000562500000847732D2    TGYOT-G 006400630015
BI00B32D2    DGTC2222       202204077126-8854-02             TERMINAL                 CCN000157500000157500FN00000000020220601000157500NNM   20220307134020    4P0P  00000750000000604500000889732D2    TGYOT-G 006400630015
BI00B32D2    DGTC2222       202204077126-8855-02             TERMINAL                 CCN000222000000222000FN00000000020220601000222000NNM   20220307134020    4P0P  00000600000000510600000795832D2    TGYOT-G 006400630015
BI00B32D2    DGTC2222       202204077158-3070-80             RUBBER STOPPER           CCN000080000000080000FN00000000020220601000080000NNM   20220307134020    1C0C  00004000000000276000000333332D2    TGYOT-G 002700430014
