BI00B1200    2399T52114     202202187288-6598-70             HOUSING MALE ASS'Y       CCN000024480000017280FY00001728020220301000000000NNM00020220218163021    4N0N  0000014400000107420000142921200    YCYC    005500360039
BI00B1200    2399T52113     202202187289-6868-30             SEALED ASSY FEMALE       CCN000065520000055440FY00005544020220301000000000NNM00020220218163121    4N0N  0000025200000083920000111921200    YCYC    005500360039
BI00A1200    7360T52206     202203247288-3334-30             HOUSING MALE             CCN000003000000003000FN00000000020220301000003000NNEM0020220218165917    4N0N  0000015000000086700000101201200    YCYC    005400370024
BI00A1200    7360T52206     202203247288-3338-30             HOUSING MALE             CCN000012000000012000FN00000000020220301000012000NNEM0020220218165937    4N0N  0000015000000086610000101201200    YCYC    005400370024
BI00A1200    7360T52206     202205127288-3340-30             HOUSING MALE             CCN000007500000007500FN00000000020220301000007500NNEM0020220218165959    4N0N  0000015000000086150000100641200    YCYC    005400370024
BI00B1200    7360T52206     202202247388-2978-30             HOUSING MALE ASS'Y       CCN000003840000003840FN00000000020220301000003840NNED0420220218170100    1N0N  0000004800000074200000112201200    YCYC    005500360039
BI00A1200    #7360T52206    202202247289-2914-40             HOUSING FEMALE ASS'Y     CCN000001500000001500FN00000000020220301000001500NNEM0020220218170118    2N0N  0000015000000090450000103151200    YCYC    005400370024
BI00A1200    #7360T52206    202202247289-2915-30             HOUSING FEMALE ASS'Y     CCN000001500000001500FN00000000020220301000001500NNEM0020220218170133    2N0N  0000015000000096450000109151200    YCYC    005400370024
BI00A1200    #7360T52206    202202247289-2918-30             HOUSING FEMALE ASS'Y     CCN000001000000001000FN00000000020220301000001000NNEM0020220218170148    2N0N  0000010000000101800000114501200    YCYC    005400370024
BI00A1200    #7360T52206    202202247289-2919-30             HOUSING FEMALE ASS'Y     CCN000006000000006000FN00000000020220301000006000NNEM0020220218170223    2N0N  0000015000000090750000103451200    YCYC    005400370024
BI00A1200    7360T52207     202202247195-1933-02             TERMINAL MALE            CCN000024000000024000FN00000000020220301000024000NNEM0020220218170245    4P0P  0000240000000067080000000001200    YCYC    006400630015
BI00A1200    7360T52207     202202247195-1934-02             TERMINAL MALE            CCN000024000000024000FN00000000020220301000024000NNEM0020220218170259    4P0P  0000240000000080160000109521200    YCYC    006400630015
BI00A1200    7360T52207     202202247196-1325-02             TERMINAL FEMALE          CCN000240000000240000FN00000000020220301000240000NNEM0020220218170328    4P0P  0000600000000045000000077871200    YCYC    006400630017
BI00A1200    7360T52207     202202247196-1326-02             TERMINAL FEMALE          CCN000120000000120000FN00000000020220301000120000NNEM0020220218170347    4P0P  0000600000000045600000078471200    YCYC    006400630017
BI00A1200    7360T52207     202202247196-1327-02             TERMINAL FEMALE          CCN000052000000052000FN00000000020220301000052000NNEM0020220218170406    4P0P  0000520000000033600000073951200    YCYC    006400630017
BI00A1200    7360T52207     202202247196-1933-02             TERMINAL FEMALE          CCN000042000000042000FN00000000020220301000042000NNEM0020220218170436    4P0P  0000210000000067080000000001200    YCYC    006400630015
BI00A1200    7360T52207     202202247196-1934-02             TERMINAL FEMALE          CCN000019500000019500FN00000000020220301000019500NNEM0020220218170449    4P0P  0000195000000056160000084681200    YCYC    006400630015
BI00A1200    7360T52207     202202247196-1936-02             TERMINAL FEMALE          CCN000040500000040500FN00000000020220301000040500NNEM0020220218170507    4P0P  0000135000000044150000072671200    YCYC    006400630015
BI00B1200    2399T52232     202204287116-4100-02             TERMINAL                 CCN000360000000360000FN00000000020220501000360000NNED0020220218165354    4P0P  0000150000000069600000099021200    YCYC    006400630015
BI00B1200    2399T52233     202204077289-4696-30             HOUSING FEMALE ASS'Y     CCN000002000000002000FN00000000020220501000002000NNE   20220218120735    4N0N  0000020000000091340000105541200    YCYC    005400370024
BI00B1200    8750T52202     202205057196-1104-02             TERMINAL                 CCN000067500000067500FN00000000020220601000067500NNM   20220218120735    4P0P  0000225000000044100000072621200    YCYC    006400630015
BI00B1200    #8750T52202    202205057172-5630-40             RUBBER STOPPER           CCN000200000000200000FN00000000020220601000200000NNM   20220218120735    2H0H  0000200000000004400000009511200    YCYC    004300270014
BI00B1200    #8750T52202    202205057172-5631-60             RUBBER STOPPER           CCN000300000000300000FN00000000020220601000300000NNM   20220218120735    2H0H  0000200000000004200000009311200    YCYC    004300270014
BI00B1200    8750T52203     202204217196-1104-02             TERMINAL                 CCN000067500000067500FN00000000020220501000067500NNM   20220218120735    4P0P  0000225000000044100000072621200    YCYC    006400630015
BI00B1200    #8750T52203    202204217172-5630-40             RUBBER STOPPER           CCN000200000000200000FN00000000020220501000200000NNM   20220218120735    2H0H  0000200000000004400000009511200    YCYC    004300270014
BI00B1200    #8750T52203    202204217172-5631-60             RUBBER STOPPER           CCN000300000000300000FN00000000020220501000300000NNM   20220218120735    2H0H  0000200000000004200000009311200    YCYC    004300270014
BI00B1200    KBVBK17        202203037282-5574-10             CONNECTOR                CCN000000800000000800FN00000000020220301000000800NNE   20220218120735    4N0N  0000008000000123500000142301200    YCYC    005600390040
BI00B1200    O022D50406     202203317289-4696-30             HOUSING FEMALE ASS'Y     CCN000002000000002000FN00000000020220401000002000NNE   20220218120735    4N0N  0000020000000091340000105541200    YCYC    005400370024
BI00B1200    2399T52114     202202217288-6598-70             HOUSING MALE ASS'Y       CCN000007200000007200FN00000000020220301000007200NNM00020220218163021    4N0N  0000014400000107420000142921200    YCYC    005500360039
BI00B1200    2399T52113     202202217289-6868-30             SEALED ASSY FEMALE       CCN000010080000010080FN00000000020220301000010080NNM00020220218163121    4N0N  0000025200000083920000111921200    YCYC    005500360039
BI00B32AG    XG22033CMW     202202257327-6874-30             MULTI FUSE               CCN000002304000002304FN00000000020220301000002304NNM00020220218161346    4N0N  00000028800000991400001157332AG    XGXGY   005400370024
BI00A32AG    XG22031CMW     202202237327-6884-30             MULTI FUSE               CCN000006912000006912FN00000000020220301000006912NNMM0020220218120735    4N0N  00000028800000988900001154832AG    XGXGY   005400370024
BI00B32AG    XG22034CMW     202202257327-6884-30             MULTI FUSE               CCN000000576000000576FN00000000020220301000000576NNM00020220218161317    4N0N  00000028800000988900001154832AG    XGXGY   005400370024
BI00B32AG    #XG22034LMW    202202257158-3007-10             RUBBER STOPPER           CCN000020000000020000FN00000000020220301000020000NNM00020220218161240    2H0H  00002000000000308000000362732AG    XGXGY   002700430014
BI00B32AG    XG22041LMW     202202257172-1372-10             FRONT HOLDER             CCN000007800000007800FN00000000020220401000007800NNMD0020220218120735    4F0F  00000390000000655200000955232AG    XGXGY   005500360039
BI00B32AG    #XG22041LMW    202202257182-9631-40             JOINT CONNECTOR          CCN000009000000009000FN00000000020220401000009000NNMD0020220218120735    2F0F  00000300000001182000001307432AG    XGXGY   005400370024
BI00B32AG    #XG22051HMW    202203187158-3005-80             RUBBER STOPPER           CCN000020000000020000FN00000000020220501000020000NNMD0020220218120735    2H0H  00002000000000210000000268732AG    XGXGY   002700430014
BI00B32AG    #XG22051LMW    202203257158-3003-90             RUBBER STOPPER           CCN000100000000100000FN00000000020220501000100000NNMD0020220218153641    2C0C  00002000000000250000000306032AG    XGXGY   002700430014
BI00B32AG    XG22032CMW     202202257327-6874-30             MULTI FUSE               CCN000002592000002592FN00000000020220301000002592NNM00020220218161204    4N0N  00000028800000991400001157332AG    XGXGY   005400370024
BI00B32AG    XG2204CLMW     202203187116-4025                TERMINAL                 CCN000032000000032000FN00000000020220401000032000NNE   20220218120735    4P0P  00001600000000644800000975132AG    XGXGY   006400630017
BI00B32AG    #XG2205ALMW    202204227158-3008-80             RUBBER STOPPER           CCN000020000000020000FN00000000020220501000020000NNE   20220218120735    2C0C  00002000000000288000000343032AG    XGXGY   004300270014
BI00B32AG    #XG2205ALMW    202204227158-3121-80             WIRE SEAL                CCN000020000000020000FN00000000020220501000020000NNE   20220218120735    2C0C  00002000000000118000000187332AG    XGXGY   002700430014
BI00B32AG    XG2204DNMW     202203187158-3168-80             SEALED                   CCN000040000000040000FN00000000020220401000040000NNE   20220218120735    1C0C  00002000000000044000000092132AG    XGXGY   004300260014
BI00B32AG    XG2205BNMW     202204087116-4121-02             TERMINAL                 CCN000045000000045000FN00000000020220501000045000NNE   20220218120735    4P0P  00000450000000618800000912432AG    XGXGY   006400630015
BI00B32B1    #A22012        202202247158-3376-50             CONNECTOR WIRE SEAL      CCN000040000000040000FN00000000020220501000040000NNM00020220218161119B1  2C0C  00002000000000184000000240732B1    AXARNE-M002700430014
BI00B32B1    #A22012        202202247283-8226-30             CONNECTOR                CCN000016000000016000FN00000000020220501000016000NNM00020220218161119B1  2N0N  00000200000000820000001008032B1    AXARNE-M005400370024
BI00B32B1    #A22012        202202247283-8397-40             CONNECTOR                CCN000003080000003080FN00000000020220501000003080NNM00020220218161119B1  2N0N  00000154000001007000001222732B1    AXARNE-M005600390023
BI00B32B6    #A72012        202202247158-3015-10             RUBBER STOPPER           CCN000010000000010000FN00000000020220501000010000NNM00020220218161015B6  2C0C  00001000000000419500000474032B6    AXARNE-M002700430014
BI00B32CA    PTA32084       202205197289-3342                HOUSING FEMALE ASS'Y     CCN000012000000012000FN00000000020220801000012000NNED0420220218151321    1N0N  00000240000000686400000901432CA    YPYPY   005500360039
BI00B32CA    PTA32084       202205197289-3342-30             HOUSING FEMALE ASS'Y     CCN000012000000012000FN00000000020220801000012000NNED0420220218151344    1N0N  00000240000000686400000901432CA    YPYPY   005500360039
BI00B32CA    PTA32084       202205197289-3342-90             HOUSING FEMALE ASS'Y     CCN000012000000012000FN00000000020220801000012000NNED0420220218151400    1N0N  00000240000000686400000901432CA    YPYPY   005500360039
BI00B32CH    SJ22034HMW     202202247327-6880-30             MULTI FUSE               CCN000015552000015552FN00000000020220301000015552NNM00020220218160729    4N0N  00000028800001012600001178532CH    SJSAMIJF005400370024
BI00B32CH    SJ22033HMW     202202247327-6884-30             MULTI FUSE               CCN000018432000018432FN00000000020220301000018432NNM00020220218160913    4N0N  00000028800000988900001154832CH    SJSAMIJF005400370024
BI00B32CH    SJ22034HMW     202202247327-6884-30             MULTI FUSE               CCN000020448000005472FN00000000020220301000005472NNM00020220218160752    4N0N  00000028800000988900001154832CH    SJSAMIJF005400370024
BI00B32DA    SBT2204C       202204217288-3329-30             HOUSING MALE             CCN000012000000012000FN00000000020220401000012000NNMD0420220218151556    4N0N  00000150000000866100001011132DA    GBYIPLGB005400370024
BI00B32DA    SBT2204C       202204217288-3331-30             HOUSING MALE             CCN000013500000013500FN00000000020220401000013500NNMD0420220218151612    4N0N  00000150000000866000001010932DA    GBYIPLGB005400370024
BI00B32DA    SBT2204C       202204217288-3336-30             HOUSING MALE             CCN000010500000010500FN00000000020220401000010500NNMD0420220218151626    4N0N  00000150000000867000001012032DA    GBYIPLGB005400370024
BI00B32DA    SBT2204C       202204217288-3337-30             HOUSING MALE             CCN000010500000010500FN00000000020220401000010500NNMD0420220218151640    4N0N  00000150000000867000001012032DA    GBYIPLGB005400370024
BI00B32DA    SBT2204C       202207217289-3342-30             HOUSING FEMALE ASS'Y     CCN000021600000021600FN00000000020220401000021600NNMD0420220218151707    1N0N  00000240000000686400000901432DA    GBYIPLGB005500360039
BI00B32DE    TCT2034        202203037114-4486-02             TERMINAL                 CCN000024000000000000FY00000000020220301000000000NNMQ0820220218105308    4P0P  00002400000000662400000956032DE    TVYEV-TV006400630015
BI00B32DE    TCT2034        202203037116-1686-02             TERMINAL                 CCN000021000000000000FY00000000020220301000000000NNMQ0820220218105331    4P0P  00002100000000869400001021632DE    TVYEV-TV005100280028
BI00B32DE    TCT2034        202203037116-2893-02             TERMINAL                 CCN000036000000000000FY00000000020220301000000000NNMQ0820220218105410    4P0P  00001200000000895200001058632DE    TVYEV-TV005100280028
BI00B32DE    TCT2034        202203037126-8853-02             TERMINAL                 CCN000037500000000000FY00000000020220301000000000NNMQ0820220218105429    4P0P  00000750000000562500000847732DE    TVYEV-TV006400630015
BI00B32DE    TCT2034        202203037195-1479-02             TERMINAL MALE            CCN000072000000000000FY00000000020220301000000000NNMQ0820220218105453    4P0P  00002400000000420000000714232DE    TVYEV-TV006400630015
BI00B32DE    TCT2034        202203037286-1900                CONNECTOR HOUSING        CCN000004800000000000FY00000000020220301000000000NNMQ0820220218100335    4N0N  00000480000001161600001376632DE    TVYEV-TV005500360039
BI00B32DE    TCT2044        202203317114-4021                TERMINAL                 CCN000015000000000000FY00000000020220401000000000NNMQ0820220218104536    4P0P  00001500000000670500000964132DE    TVYEV-TV006400630015
BI00B32DE    TCT2044        202203317114-4728-02             TERMINAL                 CCN000180000000000000FY00000000020220401000000000NNMQ0820220218104555    4P0P  00003000000000510000000804232DE    TVYEV-TV006400630015
BI00B32DE    TCT2044        202203317114-4729-02             TERMINAL                 CCN000060000000030000FN00000000020220401000030000NNMQ0820220218120735    4P0P  00003000000000516000000810232DE    TVYEV-TV006400630015
BI00B32DE    TCT2044        202203317114-5746-02             TERMINAL                 CCN000021000000000000FY00000000020220401000000000NNMQ0820220218104645    4P0P  00002100000000695100000988732DE    TVYEV-TV006400630015
BI00B32DE    TCT2044        202203317116-1685-02             TERMINAL                 CCN000240000000120000FN00000000020220401000120000NNMQ0820220218120735    4P0P  00002400000000897600001065232DE    TVYEV-TV005100280028
BI00B32DE    TCT2044        202203317116-3153-08             TERMINAL                 CCN000027000000000000FY00000000020220401000000000NNMQ0820220218104753    4P0P  00002700000000461700000746932DE    TVYEV-TV006400630015
BI00B32DE    TCT2044        202203317116-4026                TERMINAL                 CCN000048000000000000FY00000000020220401000000000NNMQ0820220218104823    4P0P  00001600000000664000000994332DE    TVYEV-TV006400630017
BI00B32DE    TCT2044        202203317116-4116-02             TERMINAL                 CCN000006900000000000FY00000000020220401000000000NNMQ0820220218104845    4P0P  00000690000000517500000805732DE    TVYEV-TV006400630015
BI00B32DE    TCT2044        202203317116-4231-02             TERMINAL                 CCN000104000000000000FY00000000020220401000000000NNMQ0820220218104905    4P0P  00002600000000683800001012532DE    TVYEV-TV006400630017
BI00B32DE    TCT2044        202203317116-4486-02             TERMINAL                 CCN000028000000000000FY00000000020220401000000000NNMQ0820220218104926    4P0P  00002800000000666400000995132DE    TVYEV-TV006400630017
BI00B32DE    TCT2044        202203317116-5041-02             TERMINAL                 CCN000090000000045000FN00000000020220401000045000NNMQ0820220218120735    4P0P  00001500000000583500000868732DE    TVYEV-TV006400630015
BI00B32DE    TCT2042        202203177116-5043-02             TERMINAL FEMALE          CCN000012000000000000FY00000000020220401000000000NNMQ0820220218105526    4P0P  00001200000000559200000844432DE    TVYEV-TV006400630015
BI00B32DE    TCT2044        202203317116-5750-02             TERMINAL                 CCN000030000000000000FY00000000020220401000000000NNMQ0820220218105010    4P0P  00001500000000457500000742732DE    TVYEV-TV006400630015
BI00B32DE    TCT2044        202203317126-8854-02             TERMINAL                 CCN000097500000000000FY00000000020220401000000000NNMQ0820220218105030    4P0P  00000750000000604500000889732DE    TVYEV-TV006400630015
BI00B32DE    TCT2044        202203317126-8855-02             TERMINAL                 CCN000102000000054000FN00000000020220401000054000NNMQ0820220218120735    4P0P  00000600000000510600000795832DE    TVYEV-TV006400630015
BI00B32DE    TCT2044        202203317158-3022-80             RUBBER STOPPER           CCN000005000000000000FY00000000020220401000000000NNMQ0820220218105121    1C0C  00000500000000467500000524032DE    TVYEV-TV002700430014
BI00B32DE    TCT2044        202203317196-1481-02             TERMINAL FEMALE          CCN000072000000000000FY00000000020220401000000000NNMQ0820220218105153    4P0P  00002400000000422400000707632DE    TVYEV-TV006400630015
BI00B32DE    TCT2044        202203317283-4576-30             HOUSING FEMALE ASS'Y     CCN000004800000000000FY00000000020220401000000000NNMQ0820220218103246    4N0N  00000480000000651300000871332DE    TVYEV-TV005500360039
BI00B32DE    TCT2044        202203317283-7526-30             CONNECTOR HOUSING        CCN000001960000000000FY00000000020220401000000000NNMQ0820220218100312    4N0N  00000196000000989800001248632DE    TVYEV-TV005500360039
BI00B32DE    TCT2043        202203247287-1915-40             CONNECTOR ASS'Y          CCN000002400000000000FY00000000020220401000000000NNMQ0820220218103314    4N0N  00000240000000666500000923132DE    TVYEV-TV005500360039
BI00B32DE    TCT204A        202204077288-3335-30             HOUSING MALE             CCN000001500000001500FN00000000020220401000001500NNED0420220218151732    4N0N  00000150000000867000001012032DE    TVYEV-TV005400370024
BI00A32DE    #QA-22-C026    202202217198-4980-30             HOUSING FEMALE           PNN000003600000003600FN00000000020220201000003600NNE   20220218120735    2F0F  00000120000000840000000921032DE    TVYEV-TV005400370024
BI00B32DG    #RL2033        202203037158-3008-80             RUBBER STOPPER           CCN000080000000080000FN00000000020210301000080000NNMD0420220218154447    2C0C  00002000000000288000000343032DG    BFSAIBF 004300270014
BI00B32D1    DFTC2220       202203247114-4624-02             TERMINAL                 CCN000024000000024000FN00000000020220501000024000NNM   20220218120735    4P0P  00002400000000895200001188832D1    TOYOT-K 006400630015
BI00B32D1    DFTC2220       202203247114-5748-02             TERMINAL                 CCN000012000000012000FN00000000020220501000012000NNM   20220218120735    4P0P  00001200000000444000000737632D1    TOYOT-K 006400630015
BI00B32D1    DFTC2220       202203247114-5753-02             TERMINAL                 CCN000027000000027000FN00000000020220501000027000NNM   20220218120735    4P0P  00002700000000847800001141432D1    TOYOT-K 006400630015
BI00B32D1    DFTC2220       202203247116-2891-02             TERMINAL                 CCN000030000000030000FN00000000020220501000030000NNM   20220218120735    4P0P  00001500000000982500001145932D1    TOYOT-K 005100280028
BI00B32D1    DFTC2220       202203247116-4101-02             TERMINAL                 CCN000012000000012000FN00000000020220501000012000NNM   20220218120735    4P0P  00001200000000582000000876232D1    TOYOT-K 006400630015
BI00B32D1    DFTC2220       202203247116-4110-02             TERMINAL                 CCN000018000000018000FN00000000020220501000018000NNM   20220218120735    4P0P  00000900000000594000000882232D1    TOYOT-K 006400630015
BI00B32D1    DFTC2220       202203247116-4111-02             TERMINAL                 CCN000022500000022500FN00000000020220501000022500NNM   20220218120735    4P0P  00000750000000529500000817732D1    TOYOT-K 006400630015
BI00B32D1    DFTC2220       202203247116-4112-02             TERMINAL                 CCN000042000000042000FN00000000020220501000042000NNM   20220218120735    4P0P  00000600000000450000000738232D1    TOYOT-K 006400630015
BI00B32D1    DFTC2220       202203247116-4415-02             TERMINAL                 CCN000009500000038000FN00000000020220501000038000NNM   20220218120735    4P0P  00003800000000596600000925732D1    TOYOT-K 006400630017
BI00B32D1    DFTC2220       202203247116-4486-02             TERMINAL                 CCN000028000000028000FN00000000020220501000028000NNM   20220218120735    4P0P  00002800000000666400000995132D1    TOYOT-K 006400630017
BI00B32D1    DFTC2220       202203247116-5045-02             TERMINAL                 CCN000016000000016000FN00000000020220501000016000NNM   20220218120735    4P0P  00001600000000678400001007132D1    TOYOT-K 006400630017
BI00B32D1    DFTC2220       202203247126-8853-02             TERMINAL                 CCN000007500000007500FN00000000020220501000007500NNM   20220218120735    4P0P  00000750000000562500000847732D1    TOYOT-K 006400630015
BI00B32D1    DFTC2220       202203247126-8854-02             TERMINAL                 CCN000030000000030000FN00000000020220501000030000NNM   20220218120735    4P0P  00000750000000604500000889732D1    TOYOT-K 006400630015
BI00B32D1    DFTC2220       202203247126-8855-02             TERMINAL                 CCN000018000000018000FN00000000020220501000018000NNM   20220218120735    4P0P  00000600000000510600000795832D1    TOYOT-K 006400630015
BI00B32D1    DFTC2220       202203247158-3070-80             RUBBER STOPPER           CCN000040000000040000FN00000000020220501000040000NNM   20220218120735    1C0C  00004000000000276000000333332D1    TOYOT-K 002700430014
BI00B32D1    DFTC2220       202203247196-0396-02             TERMINAL                 CCN000015000000015000FN00000000020220501000015000NNM   20220218120735    4P0P  00001500000000949500001112932D1    TOYOT-K 002800510028
BI00B32D1    DFTC2220       202203247282-4576                HOUSING MALE ASS'Y       CCN000002400000002400FN00000000020220501000002400NNM   20220218120735    4N0N  00000240000000808800001028832D1    TOYOT-K 005500360039
BI00B32D1    DFTC2220       202203247283-1156                CONNECTOR                CCN000000800000000800FN00000000020220501000000800NNM   20220218120735    4N0N  00000080000000877600001078032D1    TOYOT-K 005600390040
BI00B32D1    DFTC2220       202203247283-5830                CONNECTOR                CCN000006000000006000FN00000000020220501000006000NNM   20220218120735    1N47  00000600000000954000001104032D1    TOYOT-K 005500360039
BI00B32D1    DFTC2220       202203247289-3342                HOUSING FEMALE ASS'Y     CCN000002400000002400FN00000000020220501000002400NNM   20220218120735    1N0N  00000240000000686400000901432D1    TOYOT-K 005500360039
BI00B32D1    DFTC2220       202203247289-3342-30             HOUSING FEMALE ASS'Y     CCN000009600000009600FN00000000020220501000009600NNM   20220218120735    1N0N  00000240000000686400000901432D1    TOYOT-K 005500360039
BI00B32D1    DFTC2220       202203247289-3342-40             HOUSING FEMALE ASS'Y     CCN000002400000002400FN00000000020220501000002400NNM   20220218120735    1N0N  00000240000000686400000901432D1    TOYOT-K 005500360039
BI00B32D1    DFTC2220       202203247289-3342-90             HOUSING FEMALE ASS'Y     CCN000002400000002400FN00000000020220501000002400NNM   20220218120735    1N0N  00000240000000686400000901432D1    TOYOT-K 005500360039
BI00B32D1    DFTC2220       202203247289-6547                HOUSING FEMALE ASS'Y     CCN000002400000002400FN00000000020220501000002400NNM   20220218120735    1N0N  00000240000001152000001362032D1    TOYOT-K 005500360039
BI00B32D1    DFTC2220       202203247296-1025-02             TERMINAL ALUMINIUM       CCN000018000000018000FN00000000020220501000018000NNM   20220218120735    4P0P  00001800000000635400000920632D1    TOYOT-K 006400630015
BI00B32D1    DFTC2220       202203247327-6731-3W             BATTERY FUSE             CCN000000128000000128FN00000000020220501000000128NNM   20220218120735    4N0N  00000006400000697600000843032D1    TOYOT-K 005400370024
BI00B32D1    DFTC2220       202203247388-2978-30             HOUSING MALE ASS'Y       CCN000000480000000480FN00000000020220501000000480NNM   20220218120735    1N0N  00000048000000742000001122032D1    TOYOT-K 005500360039
BI00B32D1    #DFTC2220      202203247047-5344                RETAINER                 CCN000010000000010000FN00000000020220501000010000NNM   20220218120735    2F0F  00001000000000870000001016032D1    TOYOT-K 005600390023
BI00B32D1    #DFTC2220      202203247158-3003-90             RUBBER STOPPER           CCN000020000000020000FN00000000020220501000020000NNM   20220218120735    2C0C  00002000000000250000000306032D1    TOYOT-K 002700430014
BI00B32D1    #DFTC2220      202203247158-3004-40             RUBBER STOPPER           CCN000020000000020000FN00000000020220501000020000NNM   20220218120735    2C0C  00002000000000234000000306332D1    TOYOT-K 002700430014
BI00B32D1    #DFTC2220      202203247158-3005-80             RUBBER STOPPER           CCN000020000000020000FN00000000020220501000020000NNM   20220218120735    2H0H  00002000000000210000000268732D1    TOYOT-K 002700430014
BI00B32D1    #DFTC2220      202203247158-3008-80             RUBBER STOPPER           CCN000020000000020000FN00000000020220501000020000NNM   20220218120735    2C0C  00002000000000288000000343032D1    TOYOT-K 004300270014
BI00B32D1    #DFTC2220      202203247158-3015-10             RUBBER STOPPER           CCN000010000000010000FN00000000020220501000010000NNM   20220218120735    2C0C  00001000000000419500000474032D1    TOYOT-K 002700430014
BI00B32D1    #DFTC2220      202203247158-3017                RUBBER STOPPER           CCN000010000000010000FN00000000020220501000010000NNM   20220218120735    2C0C  00001000000000375500000435032D1    TOYOT-K 002700430014
BI00B32D1    #DFTC2220      202203247172-5629-80             RUBBER STOPPER           CCN000020000000020000FN00000000020220501000020000NNM   20220218120735    2H0H  00002000000000060000000111132D1    TOYOT-K 004300270014
BI00B32D1    #DFTC2220      202203247172-5632-10             DUMMY PLUG               CCN000020000000020000FN00000000020220501000020000NNM   20220218120735    2H0H  00002000000000080400000131832D1    TOYOT-K 004300270014
BI00B32D1    #DFTC2220      202203247183-2415-90             CONNECTOR HOUSING        CCN000004800000004800FN00000000020220501000004800NNM   20220218120735    2F0F  00000480000000798200001091432D1    TOYOT-K 005500360039
BI00B32D1    #DFTC2220      202203247189-2978-30             HOUSING FEMALE           CCN000001500000001500FN00000000020220501000001500NNM   20220218120735    2F0F  00000150000000966900001096932D1    TOYOT-K 005400370024
BI00B32D1    #DFTC2220      202203247189-3033                HOUSING FEMALE           CCN000001600000001600FN00000000020220501000001600NNM   20220218120735    2F0F  00000160000001211200001431232D1    TOYOT-K 005500360039
BI00B32D1    #DFTC2220      202203247189-3036                HOUSING FEMALE           CCN000001600000001600FN00000000020220501000001600NNM   20220218120735    2F0F  00000160000000921600001141632D1    TOYOT-K 005500360039
BI00B32D1    #DFTC2220      202203247282-1641                CONNECTOR                CCN000002000000002000FN00000000020220501000002000NNM   20220218120735    2N0N  00000200000000813000000986032D1    TOYOT-K 005500360039
BI00B32D1    #DFTC2220      202203247282-7424                CONNECTOR                CCN000040000000040000FN00000000020220501000040000NNM   20220218120735    2N0N  00000400000001064000001243032D1    TOYOT-K 005500360039
BI00B32D1    #DFTC2220      202203247289-3622-30             HOUSING FEMALE ASS'Y     CCN000000864000000864FN00000000020220501000000864NNM   20220218120735    2N0N  00000043200000839400001038432D1    TOYOT-K 005400370024
BI00B32D2    DGTC2220       202205197288-6547                CONNECTOR MALE ASS'Y     CCN000012000000012000FN00000000020220501000012000NNMD0420220218151422    4N0N  00000075000001205300001340332D2    TGYOT-G 005400370024
BI00B32D2    DGTC2220       202205197289-3342                HOUSING FEMALE ASS'Y     CCN000079200000079200FN00000000020220501000079200NNMD0420220218151440    1N0N  00000240000000686400000901432D2    TGYOT-G 005500360039
BI00B32D2    DGTC2220       202205267289-3342-30             HOUSING FEMALE ASS'Y     CCN000019200000019200FN00000000020220501000019200NNMD0420220218151455    1N0N  00000240000000686400000901432D2    TGYOT-G 005500360039
BI00B32D2    DGTC2220       202205057289-3342-40             HOUSING FEMALE ASS'Y     CCN000033600000033600FN00000000020220501000033600NNMD0420220218151508    1N0N  00000240000000686400000901432D2    TGYOT-G 005500360039
BI00B32D2    DGTC2220       202205057289-3342-90             HOUSING FEMALE ASS'Y     CCN000033600000033600FN00000000020220501000033600NNMD0420220218151521    1N0N  00000240000000686400000901432D2    TGYOT-G 005500360039
BI00A32EJ    T220128P03     202202217289-9553-30             SEALED ASSY FEMALE       CCN000005880000005880FN00000000020220301000005880NNEM0020220218135921EJ  4N0N  00000294000001109000001521532EJ    EJYKBO  005500360039
BI00B32EJ    T220217P01     202203177116-4231-02             TERMINAL                 CCN000026000000026000FN00000000020220301000026000NNE   20220218120735EJ  4P0P  00002600000000683800001012532EJ    EJYKBO  006400630017
BI00B32EJ    T220217P01     202203177116-1231                TERMINAL                 CCN000024000000024000FN00000000020220301000024000NNE   20220218120735EJ  4P0P  00001200000000633600000921832EJ    EJYKBO  006400630015
BI00B32EJ    T220217P01     202203177158-3167-80             WIRE SEAL                CCN000100000000100000FN00000000020220301000100000NNE   20220218120735EJ  1C0C  00002000000000048000000109032EJ    EJYKBO  002700430014
BI00B32E2    NY204B         202203097289-3342-30             HOUSING FEMALE ASS'Y     CCN000002400000002400FN00000000020220401000002400NNED0720220218120735    1N0N  00000240000000686400000901432E2    SPYSE   005500360039
BI00B32E2    #NY204B        202203097158-3121-80             WIRE SEAL                CCN000060000000060000FN00000000020220401000060000NNED0720220218120735    2C0C  00002000000000118000000187332E2    SPYSE   002700430014
BI00B32G7    #JJ22034 MW    202203177158-3003-90             RUBBER STOPPER           CCN000280000000280000FN00000000020220301000280000NNMD0020220218154045    2C0C  00002000000000250000000306032G7    JIJAI   002700430014
BI00B32G7    #JJ22033 MW    202203037158-3008-80             RUBBER STOPPER           CCN000020000000020000FN00000000020220301000020000NNMD0420220218155021    2C0C  00002000000000288000000343032G7    JIJAI   004300270014
BI00B32G7    #JJ22034 MW    202203177158-3008-80             RUBBER STOPPER           CCN000040000000040000FN00000000020220301000040000NNMD0020220218120735    2C0C  00002000000000288000000343032G7    JIJAI   004300270014
BI00B32G7    #JJ22034 MW    202203177158-3015-10             RUBBER STOPPER           CCN000040000000040000FN00000000020220301000040000NNMD0020220218120735    2C0C  00001000000000419500000474032G7    JIJAI   002700430014
BI00B32G7    #JJ22033 MW    202203037158-3017                RUBBER STOPPER           CCN000050000000050000FN00000000020220301000050000NNMD0420220218154949    2C0C  00001000000000375500000435032G7    JIJAI   002700430014
BI00B32G7    #JJ22034 MW    202203177158-3017                RUBBER STOPPER           CCN000050000000050000FN00000000020220301000050000NNMD0020220218120735    2C0C  00001000000000375500000435032G7    JIJAI   002700430014
BI00B32G7    #JJ22034MMW    202203177172-5625-90             RUBBER STOPPER           CCN000020000000020000FN00000000020220301000020000NNMD0020220218120735    2H0H  00002000000000082400000133832G7    JIJAI   004300270014
BI00B32G7    #JJ22034MMW    202203177172-5626-90             RUBBER STOPPER           CCN000120000000120000FN00000000020220301000120000NNMD0020220218120735    2H0H  00002000000000076400000127832G7    JIJAI   004300270014
BI00B32G7    #JJ22034MMW    202203177172-5627-60             RUBBER STOPPER           CCN000100000000100000FN00000000020220301000100000NNMD0020220218120735    2H0H  00002000000000070400000121832G7    JIJAI   004300270014
BI00B32G7    #JJ22034MMW    202203177172-5628-80             DUMMY PLUG               CCN000020000000020000FN00000000020220301000020000NNMD0020220218120735    2H0H  00002000000000110600000162032G7    JIJAI   004300270014
BI00A32G7    #JJ22031MMW    202203077172-5630-40             RUBBER STOPPER           PCN000640000000640000FN00000000020220301000640000NNMM0020220218162942    2H0H  00002000000000044000000095132G7    JIJAI   004300270014
BI00B32G7    #JJ22033MMW    202202247172-5630-40             RUBBER STOPPER           CCN000320000000320000FN00000000020220301000320000NNM00020220218154856    2H0H  00002000000000044000000095132G7    JIJAI   004300270014
BI00B32G7    #JJ22033MMW    202203037172-5632-10             DUMMY PLUG               CCN000200000000200000FN00000000020220301000200000NNMD0020220218154922    2H0H  00002000000000080400000131832G7    JIJAI   004300270014
BI00B32G7    #JJ22034MMW    202203177172-5632-10             DUMMY PLUG               CCN000180000000180000FN00000000020220301000180000NNMD0020220218120735    2H0H  00002000000000080400000131832G7    JIJAI   004300270014
BI00B32H0    #TT2204BVMW    202203157158-3007-10             RUBBER STOPPER           CCN000020000000020000FN00000000020220401000020000NNE   20220218142550    2H0H  00002000000000308000000362732H0    TTTJY   002700430014
BI00B32H2    TIJ2032        202202227114-4020                TERMINAL                 CCN000189000000189000FN00000000020220301000189000NNM00020220218141257    4P0P  00002100000000875700001169332H2    HVYHV   006400630015
BI00B32H2    TIJ2032        202202227114-4021                TERMINAL                 CCN000090000000090000FN00000000020220301000090000NNM00020220218141257    4P0P  00001500000000670500000964132H2    HVYHV   006400630015
BI00B32H2    TIJ2032        202202227114-4032                TERMINAL                 CCN000022500000022500FN00000000020220301000022500NNM00020220218141257    4P0P  00000750000000735000001063632H2    HVYHV   006400630017
BI00B32H2    TIJ2032        202202227114-4231-02             TERMINAL                 CCN000018000000018000FN00000000020220301000018000NNM00020220218141325    4P0P  00001800000000554400000848032H2    HVYHV   006400630015
BI00B32H2    TIJ2032        202202227114-4486-02             TERMINAL                 CCN000048000000048000FN00000000020220301000048000NNM00020220218141334    4P0P  00002400000000662400000956032H2    HVYHV   006400630015
BI00B32H2    TIJ2032        202202227114-4624-02             TERMINAL                 CCN000144000000144000FN00000000020220301000144000NNM00020220218141439    4P0P  00002400000000895200001188832H2    HVYHV   006400630015
BI00B32H2    TIJ2032        202202227114-4728-02             TERMINAL                 CCN001440000001440000FN00000000020220301001440000NNM00020220218141439    4P0P  00003000000000510000000804232H2    HVYHV   006400630015
BI00B32H2    TIJ2032        202202227114-4728-08             TERMINAL                 CCN000120000000120000FN00000000020220301000120000NNM00020220218141439    4P0P  00003000000000507000000801232H2    HVYHV   006400630015
BI00B32H2    TIJ2032        202202227114-4729-02             TERMINAL                 CCN000330000000330000FN00000000020220301000330000NNM00020220218141439    4P0P  00003000000000516000000810232H2    HVYHV   006400630015
BI00B32H2    TIJ2032        202202227114-5746-02             TERMINAL                 CCN000231000000231000FN00000000020220301000231000NNM00020220218141439    4P0P  00002100000000695100000988732H2    HVYHV   006400630015
BI00B32H2    TIJ2032        202202227114-5747-02             TERMINAL                 CCN000414000000414000FN00000000020220301000414000NNM00020220218141439    4P0P  00001800000000626400000920032H2    HVYHV   006400630015
BI00B32H2    TIJ2032        202202227114-5748-02             TERMINAL                 CCN000192000000192000FN00000000020220301000192000NNM00020220218141439    4P0P  00001200000000444000000737632H2    HVYHV   006400630015
BI00B32H2    TIJ2032        202202227114-5753-02             TERMINAL                 CCN000162000000162000FN00000000020220301000162000NNM00020220218141439    4P0P  00002700000000847800001141432H2    HVYHV   006400630015
BI00B32H2    TIJ2032        202202227114-6041                TERMINAL                 CCN000046800000046800FN00000000020220301000046800NNM00020220218141439    4P0P  00000360000000580700000824232H2    HVYHV   006400630015
BI00B32H2    TIJ2032        202202227116-2893-02             TERMINAL                 CCN000012000000012000FN00000000020220301000012000NNM00020220218141843    4P0P  00001200000000895200001058632H2    HVYHV   005100280028
BI00B32H2    TIJ2032        202202227116-3153-08             TERMINAL                 CCN000162000000162000FN00000000020220301000162000NNM00020220218141448    4P0P  00002700000000461700000746932H2    HVYHV   006400630015
BI00B32H2    TIJ2032        202202227116-3154-08             TERMINAL                 CCN000054000000054000FN00000000020220301000054000NNM00020220218141456    4P0P  00002700000000475200000760432H2    HVYHV   006400630015
BI00B32H2    TIJ2032        202202227116-4026                TERMINAL                 CCN000016000000000000FY00000000020220301000000000NNM00020220218142241    4P0P  00001600000000664000000994332H2    HVYHV   006400630017
BI00B32H2    TIJ2032        202202227116-4032                TERMINAL                 CCN000060000000036000FN00000000020220301000036000NNM00020220218141512    4P0P  00000600000000532800000818032H2    HVYHV   006400630015
BI00B32H2    TIJ2032        202202227116-4037                TERMINAL                 CCN000012000000012000FN00000000020220301000012000NNM00020220218141512    4P0P  00000600000000600000000894232H2    HVYHV   006400630015
BI00B32H2    TIJ2032        202202227116-4100-02             TERMINAL                 CCN000015000000015000FN00000000020220301000015000NNM00020220218141526    4P0P  00001500000000696000000990232H2    HVYHV   006400630015
BI00B32H2    TIJ2032        202202227116-4110-02             TERMINAL                 CCN000009000000009000FN00000000020220301000009000NNM00020220218141526    4P0P  00000900000000594000000882232H2    HVYHV   006400630015
BI00B32H2    TIJ2032        202202227116-4231-02             TERMINAL                 CCN000052000000052000FN00000000020220301000052000NNM00020220218141538    4P0P  00002600000000683800001012532H2    HVYHV   006400630017
BI00B32H2    TIJ2032        202202227116-4486-02             TERMINAL                 CCN000168000000168000FN00000000020220301000168000NNM00020220218141538    4P0P  00002800000000666400000995132H2    HVYHV   006400630017
BI00B32H2    TIJ2032        202202227116-5035-02             TERMINAL                 CCN000195000000195000FN00000000020220301000195000NNM00020220218141553    4P0P  00001500000000543000000828232H2    HVYHV   006400630015
BI00B32H2    TIJ2032        202202227116-5042-02             TERMINAL                 CCN000243000000243000FN00000000020220301000243000NNM00020220218141604    4P0P  00001350000000560300000845532H2    HVYHV   006400630015
BI00B32H2    TIJ2032        202202227116-5043-02             TERMINAL FEMALE          CCN000180000000180000FN00000000020220301000180000NNM00020220218141611    4P0P  00001200000000559200000844432H2    HVYHV   006400630015
BI00B32H2    TIJ2032        202202227116-5044-02             TERMINAL                 CCN000256000000256000FN00000000020220301000256000NNM00020220218141622    4P0P  00001600000000641600000986332H2    HVYHV   006400630017
BI00B32H2    TIJ2032        202202227116-5045-02             TERMINAL                 CCN000096000000096000FN00000000020220301000096000NNM00020220218141622    4P0P  00001600000000678400001007132H2    HVYHV   006400630017
BI00B32H2    TIJ2032        202202227116-5046-02             TERMINAL                 CCN000024000000024000FN00000000020220301000024000NNM00020220218141632    4P0P  00001200000000544800000873532H2    HVYHV   006400630017
BI00B32H2    TIJ2032        202202227116-5750-02             TERMINAL                 CCN000600000000600000FN00000000020220301000600000NNM00020220218141649    4P0P  00001500000000457500000742732H2    HVYHV   006400630015
BI00B32H2    TIJ2032        202202227116-5752-02             TERMINAL                 CCN000336000000336000FN00000000020220301000336000NNM00020220218141658    4P0P  00002100000000571200000856432H2    HVYHV   006400630015
BI00B32H2    TIJ2032        202202227116-6041                TERMINAL                 CCN000013500000013500FN00000000020220301000013500NNM00020220218141730    4P0P  00000450000000716000001009632H2    HVYHV   006400630015
BI00B32H2    TIJ2032        202202227116-6042                TERMINAL                 CCN000009000000009000FN00000000020220301000009000NNM00020220218141730    4P0P  00000300000000523800000856132H2    HVYHV   006400630015
BI00B32H2    TIJ2032        202202227126-8853-02             TERMINAL                 CCN000015000000015000FN00000000020220301000015000NNM00020220218141730    4P0P  00000750000000562500000847732H2    HVYHV   006400630015
BI00B32H2    TIJ2032        202202227126-8854-02             TERMINAL                 CCN000015000000015000FN00000000020220301000015000NNM00020220218141730    4P0P  00000750000000604500000889732H2    HVYHV   006400630015
BI00B32H2    TIJ2032        202202227126-8855-02             TERMINAL                 CCN000006000000006000FN00000000020220301000006000NNM00020220218141730    4P0P  00000600000000510600000795832H2    HVYHV   006400630015
BI00B32H2    TIJ2032        202202227158-3006-90             RUBBER STOPPER           CCN000100000000100000FN00000000020220301000100000NNM00020220218140938    1C0C  00002000000000330600000386032H2    HVYHV   002700430014
BI00B32H2    TIJ2032        202202227158-3009-60             RUBBER STOPPER           CCN000300000000300000FN00000000020220301000300000NNM00020220218140938    1C0C  00002000000000338000000386232H2    HVYHV   002700430014
BI00B32H2    TIJ2032        202202227158-3070-80             RUBBER STOPPER           CCN000160000000160000FN00000000020220301000160000NNM00020220218140938    1C0C  00004000000000276000000333332H2    HVYHV   002700430014
BI00B32H2    TIJ2032        202202227158-3165-90             WIRE SEAL                CCN000080000000000000FY00000000020220301000000000NNM00020220218142241    1C0C  00004000000000124000000172432H2    HVYHV   004300270014
BI00B32H2    TIJ2032        202202227195-1479-02             TERMINAL MALE            CCN000048000000048000FN00000000020220301000048000NNM00020220218141804    4P0P  00002400000000420000000714232H2    HVYHV   006400630015
BI00B32H2    TIJ2032        202202227196-1020-02             TERMINAL ALUMINIUM       CCN000023700000023700FN00000000020220301000023700NNM00020220218141804    4P0P  00002370000000722900001008132H2    HVYHV   006400630015
BI00B32H2    TIJ2032        202202227196-1102-02             TERMINAL                 CCN000067500000067500FN00000000020220301000067500NNM00020220218141804    4P0P  00002250000000405000000690232H2    HVYHV   006400630015
BI00B32H2    TIJ2032        202202227196-1103-02             TERMINAL                 CCN000202500000157500FN00000000020220301000157500NNM00020220218141804    4P0P  00002250000000429800000715032H2    HVYHV   006400630015
BI00B32H2    TIJ2032        202202227196-1104-02             TERMINAL                 CCN000067500000067500FN00000000020220301000067500NNM00020220218141804    4P0P  00002250000000441000000726232H2    HVYHV   006400630015
BI00B32H2    TIJ2032        202202227196-1326-02             TERMINAL FEMALE          CCN000060000000000000FY00000000020220301000000000NNM00020220218142241    4P0P  00006000000000456000000784732H2    HVYHV   006400630017
BI00B32H2    TIJ2032        202202227196-1466-02             TERMINAL MALE            CCN000057000000000000FY00000000020220301000000000NNM00020220218142241    4P0P  00002850000000427500000712732H2    HVYHV   006400630015
BI00B32H2    TIJ2032        202202227196-1481-02             TERMINAL FEMALE          CCN000288000000288000FN00000000020220301000288000NNM00020220218141831    4P0P  00002400000000422400000707632H2    HVYHV   006400630015
BI00B32H2    TIJ2032        202202227196-1934-02             TERMINAL FEMALE          CCN000058500000058500FN00000000020220301000058500NNM00020220218141831    4P0P  00001950000000561600000846832H2    HVYHV   006400630015
BI00B32H2    TIJ2032        202202227196-1936-02             TERMINAL FEMALE          CCN000081000000081000FN00000000020220301000081000NNM00020220218141831    4P0P  00001350000000441500000726732H2    HVYHV   006400630015
BI00B32H2    TIJ2032        202202227273-2982-0W             CASSETTE BRACKET         CCN000000600000000600FN00000000020220301000000600NNM00020220218141911    4N0N  00000060000000526000000726032H2    HVYHV   005500360039
BI00B32H2    TIJ2032        202202227282-0517                HOUSING MALE ASS'Y       CCN000008640000008640FN00000000020220301000008640NNM00020220218141936    4N0N  00000036000000612000000832032H2    HVYHV   005600390040
BI00B32H2    TIJ2032        202202227282-1024                HOUSING MALE             CCN000002000000002000FN00000000020220301000002000NNM00020220218140950    1N0N  00000100000000458000000580532H2    HVYHV   005400370024
BI00B32H2    TIJ2032        202202227282-4576                HOUSING MALE ASS'Y       CCN000012000000012000FN00000000020220301000012000NNM00020220218142241    4N0N  00000240000000808800001028832H2    HVYHV   005500360039
BI00B32H2    TIJ2032        202202227282-4578                HOUSING MALE ASS'Y       CCN000016800000016800FN00000000020220301000016800NNM00020220218142241    4N0N  00000120000000782600000992632H2    HVYHV   005500360039
BI00B32H2    TIJ2032        202202227282-4578-30             HOUSING MALE ASS'Y       CCN000002400000002400FN00000000020220301000002400NNM00020220218142241    4N0N  00000120000000782600000992632H2    HVYHV   005500360039
BI00B32H2    TIJ2032        202202227282-4855                HOUSING MALE ASS'Y       CCN000014400000014400FN00000000020220301000014400NNM00020220218142241    4N0N  00000120000001063200001283232H2    HVYHV   005500360039
BI00B32H2    TIJ2032        202202227282-9391                HOUSING MALE ASS'Y       CCN000003600000003600FN00000000020220301000003600NNM00020220218142241    4N0N  00000120000001017600001237632H2    HVYHV   005500360039
BI00B32H2    TIJ2032        202202227283-1156                CONNECTOR                CCN000015200000015200FN00000000020220301000015200NNM00020220218142241    4N0N  00000080000000877600001078032H2    HVYHV   005600390040
BI00B32H2    TIJ2032        202202227283-1222                CONNECTOR                CCN000004800000004800FN00000000020220301000004800NNM00020220218142241    4N0N  00000120000000852000001011032H2    HVYHV   005500360039
BI00B32H2    TIJ2032        202202227283-1289-40             CONNECTOR HOUSING        CCN000004800000004800FN00000000020220301000004800NNM00020220218141004    1N0N  00000060000000679800000824832H2    HVYHV   005400370024
BI00B32H2    TIJ2032        202202227283-4576                HOUSING FEMALE ASS'Y     CCN000072000000072000FN00000000020220301000072000NNM00020220218142241    4N0N  00000480000000651300000871332H2    HVYHV   005500360039
BI00B32H2    TIJ2032        202202227283-4576-30             HOUSING FEMALE ASS'Y     CCN000009600000009600FN00000000020220301000009600NNM00020220218142241    4N0N  00000480000000651300000871332H2    HVYHV   005500360039
BI00B32H2    TIJ2032        202202227283-4577                CONNECTOR HOUSING        CCN000014400000014400FN00000000020220301000014400NNM00020220218142241    4N0N  00000480000000916800001136832H2    HVYHV   005500360039
BI00B32H2    TIJ2032        202202227283-4577-30             CONNECTOR HOUSING        CCN000014400000014400FN00000000020220301000014400NNM00020220218142241    4N0N  00000480000000916800001136832H2    HVYHV   005500360039
BI00B32H2    TIJ2032        202202227283-4855                CONNECTOR HOUSING        CCN000007200000007200FN00000000020220301000007200NNM00020220218142241    4N0N  00000240000001188400001400032H2    HVYHV   005500360039
BI00B32H2    TIJ2032        202202227283-5845                CONNECTOR HOUSING        CCN000024000000024000FN00000000020220301000024000NNM00020220218142241    1N0N  00000600000000444000000606332H2    HVYHV   005400370024
BI00B32H2    TIJ2032        202202227283-5845-30             CONNECTOR HOUSING        CCN000018000000018000FN00000000020220301000018000NNM00020220218141022    1N0N  00000600000000444000000606332H2    HVYHV   005400370024
BI00B32H2    TIJ2032        202202227283-7029-40             CONNECTOR                CCN000006000000006000FN00000000020220301000006000NNM00020220218141022    1N0N  00000600000001026000001200032H2    HVYHV   005600390023
BI00B32H2    TIJ2032        202202227283-7526-30             CONNECTOR HOUSING        CCN000001960000001960FN00000000020220301000001960NNM00020220218142241    4N0N  00000196000000989800001248632H2    HVYHV   005500360039
BI00B32H2    TIJ2032        202202227283-8630                CONNECTOR ASS'Y          CCN000006000000006000FN00000000020220301000006000NNM00020220218142241    4N0N  00000600000000540000000701332H2    HVYHV   005400370024
BI00B32H2    TIJ2032        202202227286-1899                HOUSING SUB ASSEMBLY     CCN000004032000004032FN00000000020220301000004032NNM00020220218142241    4N0N  00000033600000814800001010832H2    HVYHV   005400370024
BI00B32H2    TIJ2032        202202227286-1900                CONNECTOR HOUSING        CCN000014400000014400FN00000000020220301000014400NNM00020220218142241    4N0N  00000480000001161600001376632H2    HVYHV   005500360039
BI00B32H2    TIJ2032        202202227287-1915                CONNECTOR ASS'Y          CCN000007200000007200FN00000000020220301000007200NNM00020220218142241    4N0N  00000240000000666500000923132H2    HVYHV   005500360039
BI00B32H2    TIJ2032        202202227287-1915-30             CONNECTOR ASS'Y          CCN000014400000014400FN00000000020220301000014400NNM00020220218142241    4N0N  00000240000000666500000923132H2    HVYHV   005500360039
BI00B32H2    TIJ2032        202202227287-1915-40             CONNECTOR ASS'Y          CCN000007200000007200FN00000000020220301000007200NNM00020220218142241    4N0N  00000240000000666500000923132H2    HVYHV   005500360039
BI00B32H2    TIJ2032        202202227287-1915-90             CONNECTOR ASS'Y          CCN000002400000002400FN00000000020220301000002400NNM00020220218142241    4N0N  00000240000000666500000923132H2    HVYHV   005500360039
BI00B32H2    TIJ2032        202202227287-3885                HYBRID FEMALE ASS'Y      CCN000009600000009600FN00000000020220301000009600NNM00020220218141035    1N0N  00000240000001029600001249632H2    HVYHV   005500360039
BI00B32H2    TIJ2032        202202227287-7598-30             HOUSING FEMALE ASS'Y     CCN000001000000001000FN00000000020220301000001000NNM00020220218142241    4N0N  00000100000000508000000620532H2    HVYHV   005400370024
BI00B32H2    TIJ2032        202202227287-7599                HOUSING FEMALE ASS'Y     CCN000004800000004800FN00000000020220301000004800NNM00020220218142241    4N0N  00000160000001233600001445632H2    HVYHV   005500360039
BI00B32H2    TIJ2032        202202227287-8999                HOUSING FEMALE ASS'Y     CCN000004800000004800FN00000000020220301000004800NNM00020220218141045    1N0N  00000480000001228800001448832H2    HVYHV   005500360039
BI00B32H2    TIJ2032        202202227288-6547                CONNECTOR MALE ASS'Y     CCN000006750000006750FN00000000020220301000006750NNM00020220218142241    4N0N  00000075000001205300001340332H2    HVYHV   005400370024
BI00B32H2    TIJ2032        202202227289-3342                HOUSING FEMALE ASS'Y     CCN000024000000024000FN00000000020220301000024000NNM00020220218141203    1N0N  00000240000000686400000901432H2    HVYHV   005500360039
BI00B32H2    TIJ2032        202202227289-3342-90             HOUSING FEMALE ASS'Y     CCN000016800000016800FN00000000020220301000016800NNM00020220218141203    1N0N  00000240000000686400000901432H2    HVYHV   005500360039
BI00B32H2    TIJ2032        202202227289-6547                HOUSING FEMALE ASS'Y     CCN000007200000007200FN00000000020220301000007200NNM00020220218141211    1N0N  00000240000001152000001362032H2    HVYHV   005500360039
BI00B32H2    TIJ2032        202202227298-1869-30             HOUSING FEMALE ASS'Y     CCN000001200000001200FN00000000020220301000001200NNM00020220218142241    4N0N  00000120000000737000000939832H2    HVYHV   005500360039
BI00B32H2    TIJ2032        202202227298-2278-30             HOUSING FEMALE ASS'Y     CCN000004800000004800FN00000000020220301000004800NNM00020220218142241    4N0N  00000240000001091700001295432H2    HVYHV   005500360039
BI00B32H2    TIJ2032        202202227298-2509-30             HOUSING FEMALE ASS'Y     CCN000001200000001200FN00000000020220301000001200NNM00020220218142241    4N0N  00000120000000857500001062532H2    HVYHV   005500360039
BI00B32H2    TIJ2032        202202227382-7524-40             JOINT CONNECTOR          CCN000004800000004800FN00000000020220301000004800NNM00020220218141235    4N0N  00000120000000943200001056732H2    HVYHV   005400370024
BI00B32H2    TIJ2032        202202227386-2747                CONNECTOR ASS'Y          CCN000004000000004000FN00000000020220301000004000NNM00020220218141220    4N0N  00000200000001162000001284532H2    HVYHV   005400370024
BI00B32H2    TIJ2032        202202227470-5304                J/B COMPLETE ASS'Y       CCN000000550000000550FN00000000020220301000000550NNM00020220218141853    4J0J  00000001000000494000000661032H2    HVYHV   005400370024
BI00B32H7    #FS22032DMW    202203027172-5630-40             RUBBER STOPPER           CCN000360000000360000FN00000000020220301000360000NNMD0020220218150441    2H0H  00002000000000044000000095132H7    FYFSY   004300270014
BI00B32H7    #FS22033DMW    202203027172-5630-40             RUBBER STOPPER           CCN000300000000300000FN00000000020220301000300000NNMD0020220218150627    2H0H  00002000000000044000000095132H7    FYFSY   004300270014
BI00B32H7    #FS22034DMW    202203097172-5630-40             RUBBER STOPPER           CCN000320000000320000FN00000000020220301000320000NNMD0020220218150729    2H0H  00002000000000044000000095132H7    FYFSY   004300270014
BI00B32H8    #TY22033 MW    202202257158-3007-10             RUBBER STOPPER           CCN000020000000020000FN00000000020220301000020000NNM00020220218160458    2H0H  00002000000000308000000362732H8    TYTYC   002700430014
BI00B32H8    #TY22033KMW    202202257172-5629-80             RUBBER STOPPER           CCN000060000000060000FN00000000020220301000060000NNM00020220218160425    2H0H  00002000000000060000000111132H8    TYTYC   004300270014
BI00B32H8    TY2204A MW     202203117116-1471                TERMINAL                 CCN000600000000600000FN00000000020220401000600000NNE   20220218120735    4P0P  00001500000000579000000867232H8    TYTYC   006400630015
BI00B32H8    TY2204A MW     202203117116-4026                TERMINAL                 CCN000080000000080000FN00000000020220401000080000NNE   20220218120735    4P0P  00001600000000664000000994332H8    TYTYC   006400630017
BI00B32H8    TY2204A MW     202203117116-4416-02             TERMINAL                 CCN000064000000064000FN00000000020220401000064000NNE   20220218120735    4P0P  00003200000000518400000847132H8    TYTYC   006400630017
BI00B32H8    TY2204A MW     202203117116-6041                TERMINAL                 CCN000009000000009000FN00000000020220401000009000NNE   20220218120735    4P0P  00000450000000716000001009632H8    TYTYC   006400630015
BI00B32H8    TY2204A MW     202203117126-8853-02             TERMINAL                 CCN000022500000022500FN00000000020220401000022500NNE   20220218120735    4P0P  00000750000000562500000847732H8    TYTYC   006400630015
BI00B32H8    TY2204A MW     202203117126-8854-02             TERMINAL                 CCN000015000000015000FN00000000020220401000015000NNE   20220218120735    4P0P  00000750000000604500000889732H8    TYTYC   006400630015
BI00B32H8    TY2204A MW     202203117158-3006-90             RUBBER STOPPER           CCN000040000000040000FN00000000020220401000040000NNE   20220218120735    1C0C  00002000000000330600000386032H8    TYTYC   002700430014
BI00B32H8    #TY2204A MW    202203117157-7811-80             SEAL RUBBER              CCN000050000000050000FN00000000020220401000050000NNE   20220218120735    2C0C  00001000000000105000000182732H8    TYTYC   002700430014
BI00B32H8    #TY2204A MW    202203117157-7812                SEAL RUBBER              CCN000500000000500000FN00000000020220401000500000NNE   20220218120735    2C0C  00001000000000137000000202032H8    TYTYC   002700430014
BI00B32H8    #TY2204A MW    202203117158-3003-90             RUBBER STOPPER           CCN000080000000080000FN00000000020220401000080000NNE   20220218120735    2C0C  00002000000000250000000306032H8    TYTYC   002700430014
BI00B32H8    #TY2204A MW    202203117158-3004-40             RUBBER STOPPER           CCN000020000000020000FN00000000020220401000020000NNE   20220218120735    2C0C  00002000000000234000000306332H8    TYTYC   002700430014
BI00B32H8    #TY2204A MW    202203117158-3005-80             RUBBER STOPPER           CCN000020000000020000FN00000000020220401000020000NNE   20220218120735    2H0H  00002000000000210000000268732H8    TYTYC   002700430014
BI00B32H8    #TY2204A MW    202203117183-2416                HOUSING                  CCN000002400000002400FN00000000020220401000002400NNE   20220218120735    2F0F  00000240000001495200001771032H8    TYTYC   005500360039
BI00B32H8    #TY2204AIMW    202203117282-1150-30             CONNECTOR MALE ASS'Y     CCN000001800000001800FN00000000020220401000001800NNE   20220218120735    2N0N  00000060000000688800000800032H8    TYTYC   005400370024
BI00A32J1    #391561        202202287297-1911-30             HOUSING MALE ASS'Y       CCN000007000000007000FN00000000020211201000007000NNED0720220218154416    2N0N  00000100000000486900000600132J1    UKYEL-BL005400370024
BI00A32J1    391628         202202287298-1865-30             HOUSING FEMALE ASS'Y     CCN000002400000002400FN00000000020220201000002400NNED0720220218142645    4N0N  00000240000001003200001204532J1    UKYEL-BL005500360039
BI00B32J1    391606         202203147114-1475                TERMINAL                 CCN000067500000067500FN00000000020220301000067500NNM   20220218120735    4P0P  00001350000000480600000774232J1    UKYEL-BL006400630015
BI00B32J1    391606         202203147116-4020                TERMINAL                 CCN000135000000135000FN00000000020220301000135000NNM   20220218120735    4P0P  00001350000000513000000798232J1    UKYEL-BL006400630015
BI00B32J1    391606         202203147116-5045-02             TERMINAL                 CCN000016000000016000FN00000000020220301000016000NNM   20220218120735    4P0P  00001600000000678400001007132J1    UKYEL-BL006400630017
BI00B32J1    391606         202203147126-8850-02             TERMINAL                 CCN000009000000009000FN00000000020220301000009000NNM   20220218120735    1P0P  00000900000000672300000957532J1    UKYEL-BL006400630015
BI00B32J1    391606         202203147158-3166-60             WIRE SEAL                CCN002160000002160000FN00000000020220301002160000NNM   20220218120735    1C0C  00004000000000104000000152432J1    UKYEL-BL002700430014
BI00B32J1    391606         202203147158-3167-61             WIRE SEAL                CCN000140000000140000FN00000000020220301000140000NNM   20220218120735    1C0C  00002000000000048000000096432J1    UKYEL-BL004300270014
BI00B32J1    391606         202203147158-3167-80             WIRE SEAL                CCN002640000002640000FN00000000020220301002640000NNM   20220218120735    1C0C  00002000000000048000000109032J1    UKYEL-BL002700430014
BI00B32J1    391606         202203147158-3168-80             SEALED                   CCN001340000001340000FN00000000020220301001340000NNM   20220218120735    1C0C  00002000000000044000000092132J1    UKYEL-BL004300260014
BI00B32J1    391606         202203147196-0104-02             TERMINAL                 CCN000038000000038000FN00000000020220301000038000NNM   20220218120735    4P0P  00003800000000570000000956432J1    UKYEL-BL006400630017
BI00B32J1    391606         202203147196-1461-02             TERMINAL FEMALE          CCN001608000001608000FN00000000020220301001608000NNM   20220218120735    4P0P  00002400000000386400000671632J1    UKYEL-BL006400630015
BI00B32J1    391606         202203147282-5574-10             CONNECTOR                CCN000019600000020000FN00000000020220301000020000NNM   20220218120735    4N0N  00000080000001235000001423032J1    UKYEL-BL005600390040
BI00B32J1    391606         202203147282-5684-10             CONNECTOR                CCN000002400000002400FN00000000020220301000002400NNM   20220218120735    4N0N  00000120000001477000001656032J1    UKYEL-BL005600390040
BI00B32J1    391606         202203147282-6448-40             CONNECTOR                CCN000002400000002400FN00000000020220301000002400NNM   20220218120735    4N0N  00000080000000887000001152732J1    UKYEL-BL005600390040
BI00B32J1    391606         202203147283-1040                CONNECTOR                CCN000008000000008000FN00000000020220301000008000NNM   20220218120735    4N0N  00000200000000396000000670032J1    UKYEL-BL005600390040
BI00B32J1    391606         202203147283-5545-10             CONNECTOR                CCN000000600000000600FN00000000020220301000000600NNM   20220218120735    4N0N  00000060000001279000001409232J1    UKYEL-BL005600390040
BI00B32J1    391606         202203147283-5830                CONNECTOR                CCN000012000000012000FN00000000020220301000012000NNM   20220218120735    1N47  00000600000000954000001104032J1    UKYEL-BL005500360039
BI00B32J1    391606         202203147283-5846                HOUSING                  CCN000003000000003000FN00000000020220301000003000NNM   20220218120735    1N0N  00000150000000885000001102032J1    UKYEL-BL005600390040
BI00B32J1    391606         202203147283-6388-40             CONNECTOR                CCN000002000000002000FN00000000020220301000002000NNM   20220218120735    4N0N  00000200000001029000001173532J1    UKYEL-BL005500360039
BI00B32J1    391606         202203147288-7969                HYBRID MALE ASS'Y        CCN000020160000020160FN00000000020220301000020160NNM   20220218120735    1N0N  00000032000000876200001101732J1    UKYEL-BL005400370024
BI00B32J1    391606         202203147289-4696-30             HOUSING FEMALE ASS'Y     CCN000004000000004000FN00000000020220301000004000NNM   20220218120735    4N0N  00000200000000913400001055432J1    UKYEL-BL005400370024
BI00B32J1    391606         202203147289-5000                HOUSING FEMALE ASS'Y     CCN000000608000000608FN00000000020220301000000608NNM   20220218120735    1N0N  00000030400000549000000759032J1    UKYEL-BL005400370024
BI00B32J1    391606         202203147298-1865-30             HOUSING FEMALE ASS'Y     CCN000153600000153600FN00000000020220301000153600NNM   20220218120735    4N0N  00000240000001003200001204532J1    UKYEL-BL005500360039
BI00B32J1    391606         202203147298-1869-30             HOUSING FEMALE ASS'Y     CCN000012000000012000FN00000000020220301000012000NNM   20220218120735    4N0N  00000120000000737000000939832J1    UKYEL-BL005500360039
BI00B32J1    391606         202203147298-2278-30             HOUSING FEMALE ASS'Y     CCN000048000000048000FN00000000020220301000048000NNM   20220218120735    4N0N  00000240000001091700001295432J1    UKYEL-BL005500360039
BI00B32J1    391606         202203147298-2509-30             HOUSING FEMALE ASS'Y     CCN000008400000008400FN00000000020220301000008400NNM   20220218120735    4N0N  00000120000000857500001062532J1    UKYEL-BL005500360039
BI00B32J1    391606         202203147327-6654-3W             BATTERY FUSE             CCN000019008000019008FN00000000020220301000019008NNM   20220218120735    4N0N  00000009600001132300001312432J1    UKYEL-BL005500360039
BI00B32J1    #391606        202203147047-5344                RETAINER                 CCN000230000000230000FN00000000020220301000230000NNM   20220218120735    2F0F  00001000000000870000001016032J1    UKYEL-BL005600390023
BI00B32J1    #391606        202203147134-4547-30             COVER                    CCN000007500000007500FN00000000020220301000007500NNM   20220218120735    2F0F  00000250000000989000001156732J1    UKYEL-BL005600390040
BI00B32J1    #391606        202203147157-3646                RUBBER STOPPER           CCN000020000000020000FN00000000020220301000020000NNM   20220218120735    2H0H  00002000000000184000000255232J1    UKYEL-BL002700430014
BI00B32J1    #391606        202203147158-3004-40             RUBBER STOPPER           CCN000020000000020000FN00000000020220301000020000NNM   20220218120735    2C0C  00002000000000234000000306332J1    UKYEL-BL002700430014
BI00B32J1    #391606        202203147174-1515                FRONT DOOR COVER         CCN000027000000027000FN00000000020220301000027000NNM   20220218120735    2F0F  00000060000000490200000610232J1    UKYEL-BL005500360039
BI00B32J1    #391606        202203147282-3243-40             CONNECTOR                CCN000025600000025600FN00000000020220301000025600NNM   20220218120735    2N0N  00000080000001006000001282332J1    UKYEL-BL005600390040
BI00B32J1    #391606        202203147282-4192-40             CONNECTOR                CCN000000240000000240FN00000000020220301000000240NNM   20220218120735    2N0N  00000024000000801000001083732J1    UKYEL-BL005600390040
BI00B32J1    #391606        202203147282-6446-30             CONNECTOR                CCN000001500000001500FN00000000020220301000001500NNM   20220218120735    2N0N  00000150000001185000001335032J1    UKYEL-BL005500360039
BI00B32J1    #391606        202203147282-6446-40             CONNECTOR                CCN000007500000007500FN00000000020220301000007500NNM   20220218120735    2N0N  00000150000001185000001368032J1    UKYEL-BL005500360039
BI00B32J1    #391606        202203147282-6457-40             CONNECTOR                CCN000001600000001600FN00000000020220301000001600NNM   20220218120735    2N0N  00000080000001137000001421332J1    UKYEL-BL005600390040
BI00B32J1    #391606        202203147283-4192-40             CONNECTOR                CCN000008400000008400FN00000000020220301000008400NNM   20220218120735    2N0N  00000024000000846000000986032J1    UKYEL-BL005600390040
BI00B32J1    #391606        202203147283-8226-30             CONNECTOR                CCN000036000000036000FN00000000020220301000036000NNM   20220218120735    2N0N  00000200000000820000001008032J1    UKYEL-BL005400370024
BI00B32J1    #391606        202203147283-8397-40             CONNECTOR                CCN000001540000001540FN00000000020220301000001540NNM   20220218120735    2N0N  00000154000001007000001222732J1    UKYEL-BL005600390023
BI00B32K8    #K1220010118   202202247137-2717-50             SEALED CONNECTOR         CCN000024000000024000FN00000000020220401000024000NNMD0020220218160352    2C0C  00000400000000212800000284032K8    ELELCOM 002700430014
BI00B32K8    #K1220010380   202203257137-2717-50             SEALED CONNECTOR         CCN000012000000012000FN00000000020220501000012000NNM   20220218120735    2C0C  00000400000000212800000284032K8    ELELCOM 002700430014
BI00B32K8    #K1220010380   202203257137-2718-50             SEALED CONNECTOR         CCN000001000000001000FN00000000020220501000001000NNM   20220218120735    2C0C  00000100000000118300000236632K8    ELELCOM 002700430014
BI00B32M1    TCV2041        202202247116-3154-08             TERMINAL                 CCN000027000000027000FN00000000020220401000027000NNMD0020220218133035    4P0P  00002700000000475200000760432M1    VNYEV   006400630015
BI00B32M1    #QA-22-S006    202202247158-3008-80             RUBBER STOPPER           PNN000400000000400000FN00000000020220201000400000NNE   20220218120735    2C0C  00002000000000288000000343032M1    VNYEV   004300270014
BI00B32M4    #TL2033        202203037158-3017                RUBBER STOPPER           CCN000060000000060000FN00000000020220301000060000NNMD0420220218154641    2C0C  00001000000000375500000435032M4    SISAI   002700430014
BI00B32M4    #TL2033        202203037172-5632-10             DUMMY PLUG               CCN000160000000160000FN00000000020220301000160000NNMD0420220218154708    2H0H  00002000000000080400000131832M4    SISAI   004300270014
BI00B32N1    NST2116C-1     202203037282-5574-10             CONNECTOR                CCN000168000000001600FN00000000020220401000001600NNMQ0820220218164603    4N0N  00000080000001235000001423032N1    TAYIPL  005600390040
BI00B32N1    NST2116C-1     202203037116-4124-02             TERMINAL                 CCN000156000000003000FN00000000020220401000003000NNMQ0820220218164531    4P0P  00000300000000459900000753532N1    TAYIPL  006400630015
BI00A32N2    2152103801     202202217289-9553-50             SEALED ASSY FEMALE       CCN000002940000002940FN00000000020220201000002940NNED0020220218143543    4N0N  00000294000001108100001520632N2    YWYIPLTC005500360039
BI00A32N2    2152103801     202202217297-1861-30             HOUSING MALE ASS'Y       CCN000001500000001500FN00000000020220201000001500NNED0020220218142442    4N0N  00000150000000702200000827332N2    YWYIPLTC005400370024
BI00B32R7    R-TAP220078    202205267298-1186-40             SQUIB SUB ASS'Y          CCN000200000000200000FN00000000020220301000200000NNED0220220218151843    4N0N  00001000000000650000000774532R7    IVYCIC  005400370024
BI00B32R7    R-TAP220079    202206097298-1186-40             SQUIB SUB ASS'Y          CCN000030000000030000FN00000000020220401000030000NNED0220220218151831    4N0N  00001000000000650000000774532R7    IVYCIC  005400370024
BI00B32R7    R-TAP220080    202203107116-4120-02             TERMINAL                 CCN000006000000006000FN00000000020220301000006000NNE   20220218120735    4P0P  00000600000000780000001073632R7    IVYCIC  006400630015
BI00B32R7    R-TAP220080    202203107158-3167-80             WIRE SEAL                CCN000100000000100000FN00000000020220301000100000NNE   20220218120735    1C0C  00002000000000048000000109032R7    IVYCIC  002700430014
BI00B32U5    #DI2010        202202247172-5629-80             RUBBER STOPPER           CCN000080000000080000FN00000000020220401000080000NNM00020220218160256U5  2H0H  00002000000000060000000111132U5    AMAMSD  004300270014
BI00B32W4    #4500186786    202202177123-6423-30             CONNECTOR                CCN000004000000004000FY00000400020220201000000000NNED0020220218105346W48 2F0F  00000200000001002000001167632W48   HJYHK   005600390023
BI00A32W4    #4500188658    202202227187-1616                HOUSING FEMALE           CCN000004000000004000FN00000000020220201000004000NNEM0020220218120735W4512F0F  00000400000001152000001262032W451  HJ32W9  005500360039
BI00B32W4    4500189400     202206027288-6547                CONNECTOR MALE ASS'Y     CCN000015000000015000FN00000000020220401000015000NNED0420220218151909W4164N0N  00000075000001205300001340332W416  HJYHK   005400370024
BI00A32W4    4500189479     202204187282-4855                HOUSING MALE ASS'Y       CCN000001200000001200FN00000000020220401000001200NNE   20220218120735W4M54N0N  00000120000001063200001283232W4M5  HJYHK-J 005500360039
BI00B32W4    4500189485     202204217116-4100-02             TERMINAL                 CCN000075000000075000FN00000000020220401000075000NNE   20220218120735W4464P0P  00001500000000696000000990232W446  HJYHK   006400630015
BI00B32W4    4500189485     202204217116-4112-02             TERMINAL                 CCN000036000000036000FN00000000020220401000036000NNE   20220218120735W4464P0P  00000600000000450000000738232W446  HJYHK   006400630015
BI00B32W4    4500189485     202204217116-4102-02             TERMINAL                 CCN000060000000060000FN00000000020220401000060000NNE   20220218120735W4464P0P  00001200000000553200000841432W446  HJYHK   006400630015
BI00B32W4    4500189485     202204217114-4100-02             TERMINAL                 CCN000036000000036000FN00000000020220401000036000NNE   20220218120735W4464P0P  00001800000000748800001077432W446  HJYHK   006400630017
BI00B32W4    4500189485     202204217158-3168-80             SEALED                   CCN000020000000020000FN00000000020220401000020000NNE   20220218120735W4461C0C  00002000000000044000000092132W446  HJYHK   004300260014
BI00B32W4    4500189485     202204217158-3166-60             WIRE SEAL                CCN000040000000040000FN00000000020220401000040000NNE   20220218120735W4461C0C  00004000000000104000000152432W446  HJYHK   002700430014
BI00B32W4    4500189485     202204217158-3167-80             WIRE SEAL                CCN000040000000040000FN00000000020220401000040000NNE   20220218120735W4461C0C  00002000000000048000000109032W446  HJYHK   002700430014
BI00B32W4    4500189485     202204217116-4101-02             TERMINAL                 CCN000072000000072000FN00000000020220401000072000NNE   20220218120735W4464P0P  00001200000000582000000876232W446  HJYHK   006400630015
BI00B32W4    4500189485     202204217283-5545-10             CONNECTOR                CCN000000600000000600FN00000000020220401000000600NNE   20220218120735W4464N0N  00000060000001279000001409232W446  HJYHK   005600390040
BI00B32W4    4500189485     202204217116-4104-02             TERMINAL                 CCN000012000000012000FN00000000020220401000012000NNE   20220218120735W4464P0P  00001200000000580800000972432W446  HJYHK   006400630015
BI00B32W4    4500189485     202204217116-4103-02             TERMINAL                 CCN000012000000012000FN00000000020220401000012000NNE   20220218120735W4464P0P  00001200000000571200000859432W446  HJYHK   006400630015
BI00B32W4    #4500189485    202204217158-3003-90             RUBBER STOPPER           CCN000020000000020000FN00000000020220401000020000NNE   20220218120735W4462C0C  00002000000000250000000306032W446  HJYHK   002700430014
BI00B32W4    #4500189485    202204217283-8123-40             CONNECTOR HOUSING        CCN000004000000004000FN00000000020220401000004000NNE   20220218120735W4462N0N  00000400000000380000000530032W446  HJYHK   005600390023
BI00B32W4    #4500189485    202204217047-5344                RETAINER                 CCN000010000000010000FN00000000020220401000010000NNE   20220218120735W4462F0F  00001000000000870000001016032W446  HJYHK   005600390023
BI00A32W4    4500189491     202208087283-5574-10             CONNECTOR                CCN000001600000001600FN00000000020220801000001600NNE   20220218120735W4464N0N  00000080000001235000001435232W446  HJYHK   005500360039
BI00A32W4    4500189494     202204117116-4026                TERMINAL                 CCN000016000000016000FN00000000020220401000016000NNE   20220218120735W4194P0P  00001600000000664000000994332W419  HJYHK   006400630017
BI00A32W4    4500189495     202204187116-4103-02             TERMINAL                 CCN000012000000012000FN00000000020220401000012000NNE   20220218120735W4194P0P  00001200000000571200000859432W419  HJYHK   006400630015
BI00A32W4    4500189499     202204047158-3167-80             WIRE SEAL                CCN000040000000040000FN00000000020220401000040000NNE   20220218120735W4A21C0C  00002000000000048000000109032W4A2  HJYHK-J 002700430014
BI00A32W4    4500189499     202204047116-4111-02             TERMINAL                 CCN000015000000015000FN00000000020220401000015000NNE   20220218120735W4A24P0P  00000750000000529500000817732W4A2  HJYHK-J 006400630015
BI00A32W4    #4500189499    202204047158-3121-80             WIRE SEAL                CCN000020000000020000FN00000000020220401000020000NNE   20220218120735W4A22C0C  00002000000000118000000187332W4A2  HJYHK-J 002700430014
BI00A32W4    #4500189499    202204047147-3642-30             CLIP                     CCN000012000000012000FN00000000020220401000012000NNE   20220218120735W4A22F0F  00000300000000542000000721332W4A2  HJYHK-J 005600390040
BI00A32W4    #4500189499    202204047283-4190-30             CONNECTOR                CCN000002400000002400FN00000000020220401000002400NNE   20220218120735W4A22N0N  00000024000000846000001115532W4A2  HJYHK-J 005600390040
BI00A32W4    4500189500     202204117116-4026                TERMINAL                 CCN000032000000032000FN00000000020220401000032000NNE   20220218120735W4A24P0P  00001600000000664000000994332W4A2  HJYHK-J 006400630017
BI00A32W4    #4500189500    202204117283-8226-30             CONNECTOR                CCN000008000000008000FN00000000020220401000008000NNE   20220218120735W4A22N0N  00000200000000820000001008032W4A2  HJYHK-J 005400370024
BI00A32W4    #4500189500    202204117157-3646                RUBBER STOPPER           CCN000020000000020000FN00000000020220401000020000NNE   20220218120735W4A22H0H  00002000000000184000000255232W4A2  HJYHK-J 002700430014
BI00A32W4    4500189501     202204187116-4115-02             TERMINAL                 CCN000008400000008400FN00000000020220401000008400NNE   20220218120735W4L64P0P  00000840000000593000000881232W4L6  HJYHK-K 006400630015
BI00A32W4    4500189501     202204187282-4855                HOUSING MALE ASS'Y       CCN000008400000008400FN00000000020220401000008400NNE   20220218120735W4L64N0N  00000120000001063200001283232W4L6  HJYHK-K 005500360039
BI00A32W4    4500189501     202204187114-6041                TERMINAL                 CCN000043200000043200FN00000000020220401000043200NNE   20220218120735W4L64P0P  00000360000000580700000824232W4L6  HJYHK-K 006400630015
BI00A32W4    4500189501     202204187283-1156                CONNECTOR                CCN000013600000013600FN00000000020220401000013600NNE   20220218120735W4L64N0N  00000080000000877600001078032W4L6  HJYHK-K 005600390040
BI00A32W4    @4500189501    202204187287-6634                HOUSING FEMALE ASS'Y     CCN000012000000012000FN00000000020220401000012000NNE   20220218120735W4L63N0N  00000240000001088400001337032W4L6  HJYHK-K 005500360039
BI00A32W4    4500189502     202204187116-4102-02             TERMINAL                 CCN000012000000012000FN00000000020220401000012000NNE   20220218120735W4A24P0P  00001200000000553200000841432W4A2  HJYHK-J 006400630015
BI00A32W4    4500189502     202204187116-4112-02             TERMINAL                 CCN000006000000006000FN00000000020220401000006000NNE   20220218120735W4A24P0P  00000600000000450000000738232W4A2  HJYHK-J 006400630015
BI00A32W4    4500189509     202203037116-4102-02             TERMINAL                 CCN000012000000012000FN00000000020220301000012000NNE   20220218120735W4334P0P  00001200000000553200000841432W433  HJYHK   006400630015
BI00A32W4    4500189510     202204187158-3167-80             WIRE SEAL                CCN000040000000040000FN00000000020220401000040000NNE   20220218120735W4G91C0C  00002000000000048000000109032W4G9  HJYHK-J 002700430014
BI00B32W4    4500189512     202204217283-5843                CONNECTOR                CCN000003000000003000FN00000000020220401000003000NNE   20220218120735W4171N0N  00000150000000889000001132032W417  HJYHK   005600390040
BI00B32W4    4500189512     202204217116-5751-02             TERMINAL                 CCN000012000000012000FN00000000020220401000012000NNE   20220218120735W4174P0P  00001200000000379200000664432W417  HJYHK   006400630015
BI00B32W4    #4500189512    202204217183-8927                HOUSING                  CCN000004000000004000FN00000000020220401000004000NNE   20220218120735W4172F0F  00000400000000714000000912732W417  HJYHK   005500360039
BI00B32W4    #4500189512    202204217282-3020                CONNECTOR                CCN000004000000004000FN00000000020220401000004000NNE   20220218120735W4172N0N  00000100000000984000001145432W417  HJYHK   005500360039
BI00B32W4    #4500189514    202205057147-3642-30             CLIP                     CCN000072000000072000FN00000000020220501000072000NNE   20220218120735W4172F0F  00000300000000542000000721332W417  HJYHK   005600390040
BI00A32W4    4500189515     202204187158-3167-80             WIRE SEAL                CCN000040000000040000FN00000000020220401000040000NNE   20220218120735W4P61C0C  00002000000000048000000109032W4P6  HJYHK-J 002700430014
BI00A32W4    4500189515     202204187158-3168-80             SEALED                   CCN000040000000040000FN00000000020220401000040000NNE   20220218120735W4P61C0C  00002000000000044000000092132W4P6  HJYHK-J 004300260014
BI00B32W4    4500189517     202207147288-9556-30             SEALED ASSY MALE         CCN000061200000061200FN00000000020220701000061200NNE   20220218120735W4O14N0N  00000072000000537900000786332W4O1  HJYHK-J 005500360039
BI00A32W4    4500189525     202204187114-4111-02             TERMINAL                 CCN000012000000012000FN00000000020220401000012000NNE   20220218120735W4144P0P  00001200000000758400001087032W414  HJYHK   006400630017
BI00B32W4    4500189534     202203247116-4022                TERMINAL                 CCN000553500000553500FN00000000020220301000553500NNE   20220218120735W4514P0P  00001350000000618300000903532W451  HJ32W9  006400630015
BI00B32W4    4500189534     202203247116-4026                TERMINAL                 CCN000048000000048000FN00000000020220301000048000NNE   20220218120735W4514P0P  00001600000000664000000994332W451  HJ32W9  006400630017
BI00B32W4    4500189534     202203247116-4231-02             TERMINAL                 CCN001378000001378000FN00000000020220301001378000NNE   20220218120735W4514P0P  00002600000000683800001012532W451  HJ32W9  006400630017
BI00B32W4    4500189534     202203247116-6041                TERMINAL                 CCN000009000000009000FN00000000020220301000009000NNE   20220218120735W4514P0P  00000450000000716000001009632W451  HJ32W9  006400630015
BI00B32W4    4500189534     202203247283-1020                CONNECTOR                CCN000210000000210000FN00000000020220301000210000NNE   20220218120735W4514N0N  00000600000000840000001049332W451  HJ32W9  005600390040
BI00B32W4    4500189534     202203247283-7028-30             CONNECTOR                CCN000057000000057000FN00000000020220301000057000NNE   20220218120735W4514N0N  00000300000001452000001681332W451  HJ32W9  005600390040
BI00B32W4    #4500189534    202203247157-3821                RUBBER STOPPER           CCN000020000000020000FN00000000020220301000020000NNE   20220218120735W4512C0C  00002000000000176000000238032W451  HJ32W9  002700430014
BI00B32W4    #4500189534    202203247186-8845                HOUSING MALE             CCN000051000000051000FN00000000020220301000051000NNE   20220218120735W4512F0F  00000300000000690000000801532W451  HJ32W9  005400370024
BI00B32W4    #4500189534    202203247283-4190-30             CONNECTOR                CCN000001680000001680FN00000000020220301000001680NNE   20220218120735W4512N0N  00000024000000846000001115532W451  HJ32W9  005600390040
BI00B32W4    @4500189534    202203247183-2510                HOUSING                  CCN000006000000006000FN00000000020220301000006000NNE   20220218120735W4513F0F  00000300000001063500001159032W451  HJ32W9  005400370024
BI00B32W4    @4500189534    202203247282-1060                HOUSING SUB ASSEMBLY     CCN000054400000054400FN00000000020220301000054400NNE   20220218120735W4513N0N  00000160000000955500001169032W451  HJ32W9  005500360039
BI00B32W9    4500189288     202204267289-3342-30             HOUSING FEMALE ASS'Y     CCN000012000000012000FN00000000020220301000012000NNED0420220218131558W9  1N0N  00000240000000686400000901432W9    HKYHK   005500360039
BI00B32W9    4500189387     202206027289-3342-30             HOUSING FEMALE ASS'Y     CCN000009600000009600FN00000000020220401000009600NNED0420220218151930W9  1N0N  00000240000000686400000901432W9    HKYHK   005500360039
BI00B32W9    4500189528     202203157283-1968-30             CONNECTOR                CCN000005400000005400FN00000000020220301000005400NNE   20220218120735W9  1N0N  00000090000001140000001318332W9    HKYHK   005600390040
BI00B32W9    4500189531     202203017116-4100-02             TERMINAL                 CCN000105000000105000FN00000000020220301000105000NNE   20220218120735W9  4P0P  00001500000000696000000990232W9    HKYHK   006400630015
BI00B32W9    4500189531     202203017283-7028-30             CONNECTOR                CCN000006000000006000FN00000000020220301000006000NNE   20220218120735W9  4N0N  00000300000001452000001681332W9    HKYHK   005600390040
BI00B32W9    #4500189531    202203017283-8397-40             CONNECTOR                CCN000018480000018480FN00000000020220301000018480NNE   20220218120735W9  2N0N  00000154000001007000001222732W9    HKYHK   005600390023
BI00B32X5    #TIB2010       202202247158-3007-10             RUBBER STOPPER           CCN000160000000160000FN00000000020220401000160000NNM00020220218160146X5  2H0H  00002000000000308000000362732X5    EPYNA-E 002700430014
BI00B32X5    TIB2012        202202247289-6547                HOUSING FEMALE ASS'Y     CCN000028800000014400FN00000000020220501000014400NNM00020220218160047X5  1N0N  00000240000001152000001362032X5    EPYNA-E 005500360039
BI00A32X5    #TAPPLT02A     202202217298-2459-60             LIF FEMALE ASSEMBLY      CCN000000336000000336FN00000000020220201000000336NNE00020220218153427X5  2N0N  00000016800000534000000729632X5    EPYNA-E 005400370024
BI00B32X5    TIB2018        202204087288-6547                CONNECTOR MALE ASS'Y     CCN000014250000014250FN00000000020220601000014250NNMD0420220218131158X5  4N0N  00000075000001205300001340332X5    EPYNA-E 005400370024
BI00B32X5    TIB2018        202208057289-3342                HOUSING FEMALE ASS'Y     CCN000024000000024000FN00000000020220601000024000NNMD0420220218131252X5  1N0N  00000240000000686400000901432X5    EPYNA-E 005500360039
BI00B32X5    TIB2018        202206107289-3342-30             HOUSING FEMALE ASS'Y     CCN000019200000019200FN00000000020220601000019200NNMD0420220218131630X5  1N0N  00000240000000686400000901432X5    EPYNA-E 005500360039
BI00B32X5    TIB2018        202204087289-3342-40             HOUSING FEMALE ASS'Y     CCN000012000000012000FN00000000020220601000012000NNMD0420220218131653X5  1N0N  00000240000000686400000901432X5    EPYNA-E 005500360039
BI00B32Y4    #STH32064      202202217282-8395-40             CONNECTOR                CCN000006000000006000FN00000000020211201000006000NNE00020220218155736    2N0N  00000100000001009000001188032Y4    BIYAB-I 005500360039
BI00B32Y4    #STH32064      202202217283-8398-40             CONNECTOR                CCN000009240000009240FN00000000020211201000009240NNE00020220218155743    2N0N  00000154000001007000001171332Y4    BIYAB-I 005600390023
BI00B32Y4    #ITA32052      202202217183-7725-40             HOUSING                  CCN000006000000006000FN00000000020220501000006000NNE00020220218155649    2F0F  00000600000000840000001040032Y4    BIYAB-I 005600390040
BI00B32Y4    #ITA32054      202202217282-6446-40             CONNECTOR                CCN000001500000001500FN00000000020220501000001500NNE00020220218155700    2N0N  00000150000001185000001368032Y4    BIYAB-I 005500360039
BI00B32Y6    #STAP32041     202202217172-5629-80             RUBBER STOPPER           CCN000100000000100000FN00000000020220401000100000NNM00020220218161517    2H0H  00002000000000060000000111132Y6    BSYBL-S 004300270014
