BI00B32DE    TCT1123        202202087289-3342-30             HOUSING FEMALE ASS'Y     CCN000038400000038400FN00000000020211201000038400NNM00020220205192641    1N0N  00000240000000686400000901432DE    TVYEV-TV005500360039
BI00B32D1    #DFTC2206      202202117172-5629-80             RUBBER STOPPER           CCN000180000000180000FN00000000020220201000180000NNM00020220205191914    2H0H  00002000000000060000000111132D1    TOYOT-K 004300270014
BI00A32D2    #DGTC2209      202202097172-5630-40             RUBBER STOPPER           PCN000280000000280000FN00000000020220301000280000NNMD0020220205090947    2H0H  00002000000000044000000095132D2    TGYOT-G 004300270014
BI00A32D9    #I20802        202202147172-5630-40             RUBBER STOPPER           PCN000020000000020000FN00000000020220201000020000NNMD0020220205103203    2H0H  00002000000000044000000095132D9    UEHESTO 004300270014
BI00B32U5    DI1048         202112297289-3342-30             HOUSING FEMALE ASS'Y     CCN000024000000004800FY00000480020220101000000000NNM00020220205192029U5  1N0N  00000240000000686400000901432U5    AMAMSD  005500360039
BI00B32U5    DI1049         202202117289-3342-30             HOUSING FEMALE ASS'Y     CCN000007200000007200FN00000000020220101000007200NNM00020220205192048U5  1N0N  00000240000000686400000901432U5    AMAMSD  005500360039
BI00B32U5    DI1051         202202117289-3342-30             HOUSING FEMALE ASS'Y     CCN000024000000024000FN00000000020220201000024000NNMD0420220205192103U5  1N0N  00000240000000686400000901432U5    AMAMSD  005500360039
BI00B32U5    #DI1051        202202117172-5630-40             RUBBER STOPPER           CCN000340000000340000FN00000000020220201000340000NNMD0720220205191711U5  2H0H  00002000000000044000000095132U5    AMAMSD  004300270014
BI00B32U5    DI2002         202202117289-3342-30             HOUSING FEMALE ASS'Y     CCN000043200000043200FN00000000020220201000043200NNM00020220205192125U5  1N0N  00000240000000686400000901432U5    AMAMSD  005500360039
BI00A32U5    #DI2002        202202157172-5630-40             RUBBER STOPPER           PCN000280000000280000FN00000000020220201000280000NNMD0720220205094119U5  2H0H  00002000000000044000000095132U5    AMAMSD  004300270014
BI00A32U5    #DI2003        202202227172-5630-40             RUBBER STOPPER           PCN000380000000380000FN00000000020220301000380000NNMD0720220205094200U5  2H0H  00002000000000044000000095132U5    AMAMSD  004300270014
BI00A32U5    #DI2004        202203017172-5630-40             RUBBER STOPPER           PCN000380000000380000FN00000000020220301000380000NNM00020220205094348U5  2H0H  00002000000000044000000095132U5    AMAMSD  004300270014
BI00B32U5    DI1048         202202117289-3342-30             HOUSING FEMALE ASS'Y     CCN000019200000019200FN00000000020220101000019200NNM00020220205192036U5  1N0N  00000240000000686400000901432U5    AMAMSD  005500360039
BI00A32W6    SW2112CQMW     202202237327-6874-30             MULTI FUSE               PCN000008928000008928FN00000000020211201000008928NNED0420220205090034    4N0N  00000028800000991400001157332W6    SYSYA-WJ005400370024
BI00A32W6    SW2112CQMW     202202157327-6880-30             MULTI FUSE               PCN000008640000008640FN00000000020211201000008640NNED0420220205090034    4N0N  00000028800001012600001178532W6    SYSYA-WJ005400370024
BI00B32W6    SW2112CQMW     202202157327-6884-30             MULTI FUSE               CCN000008640000008640FN00000000020211201000008640NNED0420220205093415    4N0N  00000028800000988900001154832W6    SYSYA-WJ005400370024
BI00B32W6    SW22012QMW     202203027327-6874-30             MULTI FUSE               CCN000009504000009504FN00000000020220101000009504NNM00020220205090000    4N0N  00000028800000991400001157332W6    SYSYA-WJ005400370024
BI00B32W6    SW22013QMW     202203097327-6874-30             MULTI FUSE               CCN000009792000009792FN00000000020220101000009792NNM00020220205090124    4N0N  00000028800000991400001157332W6    SYSYA-WJ005400370024
BI00B32W6    SW22014QMW     202203157327-6874-30             MULTI FUSE               CCN000006624000006624FN00000000020220101000006624NNM00020220205090331    4N0N  00000028800000991400001157332W6    SYSYA-WJ005400370024
BI00A32W6    SW22013QMW     202202117327-6880-30             MULTI FUSE               PCN000009792000009792FN00000000020220101000009792NNM00020220205090124    4N0N  00000028800001012600001178532W6    SYSYA-WJ005400370024
BI00B32W6    SW22012QMW     202202237327-6884-30             MULTI FUSE               CCN000009504000009504FN00000000020220101000009504NNM00020220205090000    4N0N  00000028800000988900001154832W6    SYSYA-WJ005400370024
BI00B32W6    SW22013QMW     202202237327-6884-30             MULTI FUSE               CCN000009792000009792FN00000000020220101000009792NNM00020220205090124    4N0N  00000028800000988900001154832W6    SYSYA-WJ005400370024
BI00A32W6    SW22014QMW     202203027327-6884-30             MULTI FUSE               PCN000006624000006624FN00000000020220101000006624NNM00020220205090331    4N0N  00000028800000988900001154832W6    SYSYA-WJ005400370024
BI00B32W6    #SW22014QMW    202202097172-5630-40             RUBBER STOPPER           CCN000040000000040000FN00000000020220101000040000NNM00020220205191834    2H0H  00002000000000044000000095132W6    SYSYA-WJ004300270014
BI00B32W6    SW22033QMW     202203237327-6874-30             MULTI FUSE               CCN000006624000006624FN00000000020220301000006624NNMD0420220205090402    4N0N  00000028800000991400001157332W6    SYSYA-WJ005400370024
BI00B32W6    SW22034QMW     202203307327-6874-30             MULTI FUSE               CCN000002592000002592FN00000000020220301000002592NNMD0420220205090439    4N0N  00000028800000991400001157332W6    SYSYA-WJ005400370024
BI00B32W6    SW22033QMW     202203097327-6884-30             MULTI FUSE               CCN000006624000006624FN00000000020220301000006624NNMD0420220205090402    4N0N  00000028800000988900001154832W6    SYSYA-WJ005400370024
BI00B32W6    SW22034QMW     202203157327-6884-30             MULTI FUSE               CCN000002304000002304FN00000000020220301000002304NNMD0420220205090439    4N0N  00000028800000988900001154832W6    SYSYA-WJ005400370024
BI00A32X5    TIB1046        202202247288-6547                CONNECTOR MALE ASS'Y     PCN000024750000024750FN00000000020220101000024750NNM00020220205094503X5  4N0N  00000075000001205300001340332X5    EPYNA-E 005400370024
BI00B32X5    #TIB2003       202202117172-5629-80             RUBBER STOPPER           CCN000400000000400000FN00000000020220301000400000NNMD0720220205191802X5  2H0H  00002000000000060000000111132X5    EPYNA-E 004300270014
