BI00B1200    H322F50015     202205197116-4112-02             TERMINAL                 CCN000012000000012000FN00000000020220601000012000NNED0020220317122530    4P0P  0000060000000045000000073821200    YCYC    006400630015
BI00B1200    Y022F50052     202205267116-4100-02             TERMINAL                 CCN000015000000015000FN00000000020220601000015000NNE   20220317122530    4P0P  0000150000000069600000099021200    YCYC    006400630015
BI00B1200    Y022F50059     202205267116-4112-02             TERMINAL                 CCN000072000000072000FN00000000020220601000072000NNE   20220317122530    4P0P  0000060000000045000000073821200    YCYC    006400630015
BI00A1200    HIB22031601    202203187196-1935-02             TERMINAL FEMALE          CCN000000003000018000FN00000000020220301000018000NNE   20220317180721    4P0P  0000180000000053460000081981200    YCYC    006400630015
BI00A1200    HIB22031601    202203187196-1937-02             TERMINAL FEMALE          CCN000000003000013500FN00000000020220301000013500NNE   20220317180721    4P0P  0000135000000044690000073211200    YCYC    006400630015
BI00A1200    HIB22031601    202203187196-1934-02             TERMINAL FEMALE          CCN000000003000019500FN00000000020220301000019500NNE   20220317180721    4P0P  0000195000000056160000084681200    YCYC    006400630015
BI00A1200    HIB22031601    202203187195-1934-02             TERMINAL MALE            CCN000000003000024000FN00000000020220301000024000NNE   20220317180721    4P0P  0000240000000080160000109521200    YCYC    006400630015
BI00A1200    HIB22031601    202203187195-1935-02             TERMINAL MALE            CCN000000003000019500FN00000000020220301000019500NNE   20220317180721    4P0P  0000195000000067080000096441200    YCYC    006400630015
BI00A1200    HIB22031601    202203187195-1936-02             TERMINAL MALE            CCN000000003000015000FN00000000020220301000015000NNE   20220317180721    4P0P  0000150000000058950000088311200    YCYC    006400630015
BI00A1200    HIB22031601    202203187196-2024-02             TERMINAL FEMALE          CCN000000003000024000FN00000000020220301000024000NNE   20220317131708    4P0P  0000240000000091920000108261200    YCYC    005100280028
BI00A1200    HIB22031601    202203187126-8889-02             FUSE TERMINAL            CCN000000003000006000FN00000000020220301000006000NNE   20220317180721    4P0P  0000060000000044820000073341200    YCYC    006400630015
BI00A1200    HIB22031601    202203187126-8890-02             FUSE TERMINAL            CCN000000003000006000FN00000000020220301000006000NNE   20220317180721    4P0P  0000060000000046500000075021200    YCYC    006400630015
BI00A1200    HIB22031601    202203187126-8891-02             FUSE TERMINAL            CCN000000003000006000FN00000000020220301000006000NNE   20220317180721    4P0P  0000060000000048180000076701200    YCYC    006400630015
BI00B32AF    JTB2041        202203187289-3342-30             HOUSING FEMALE ASS'Y     CCN000060000000030000FN00000000020220401000030000NNM00020220317164450    1N0N  00000240000000686400000901432AF    HBYHVTB 005500360039
BI00B32AF    JTB2041        202203257289-3342-30             HOUSING FEMALE ASS'Y     CCN000030000000030000FN00000000020220401000030000NNM00020220317164450    1N0N  00000240000000686400000901432AF    HBYHVTB 005500360039
BI00B32AG    XG22061CMW     202205067C89-6868-30             SEALED ASSY FEMALE       CCN000005040000005040FN00000000020220601000005040NNMD0420220317122530    4N0N  00000252000000839200001119232AG    XGXGY   005500360039
BI00B32AG    XG22061CMW     202205067298-3822-70             HOUSING FEMALE ASS'Y     CCN000005040000005040FN00000000020220601000005040NNMD0420220317122530    4N0N  00000252000000776200001077032AG    XGXGY   005500360039
BI00B32A7    ZZ22051BMW     202204067137-3047-30             UNIT PACKING             CCN000037000000037000FN00000000020220501000037000NNMD0420220317173635    1C0C  00000100000000170500000218932A7    ZZZZY   002700430014
BI00B32A7    ZZ22052BMW     202204127137-3047-30             UNIT PACKING             CCN000023000000023000FN00000000020220501000023000NNMD0420220317173749    1C0C  00000100000000170500000218932A7    ZZZZY   002700430014
BI00B32A7    ZZ22053BMW     202204207137-3047-30             UNIT PACKING             CCN000022000000022000FN00000000020220501000022000NNMD0420220317173930    1C0C  00000100000000170500000218932A7    ZZZZY   002700430014
BI00B32A7    ZZ22054BMW     202204277137-3047-30             UNIT PACKING             CCN000012000000012000FN00000000020220501000012000NNMD0420220317173958    1C0C  00000100000000170500000218932A7    ZZZZY   002700430014
BI00B32A7    ZZ22051BMW     202204067172-5402-30             SEAL RUBBER              CCN000072000000072000FN00000000020220501000072000NNMD0420220317173643    1C0C  00000800000000457600000506032A7    ZZZZY   004300270014
BI00B32A7    ZZ22052BMW     202204127172-5402-30             SEAL RUBBER              CCN000080000000080000FN00000000020220501000080000NNMD0420220317173749    1C0C  00000800000000457600000506032A7    ZZZZY   004300270014
BI00B32A7    ZZ22051BMW     202204067172-5403-30             SEALED PACKING           CCN000068000000068000FN00000000020220501000068000NNMD0420220317173643    1C0C  00000400000000653600000701732A7    ZZZZY   004300270014
BI00B32A7    ZZ22052BMW     202204127172-5403-30             SEALED PACKING           CCN000088000000088000FN00000000020220501000088000NNMD0420220317173749    1C0C  00000400000000653600000701732A7    ZZZZY   004300270014
BI00B32A7    ZZ22053BMW     202204207172-5403-30             SEALED PACKING           CCN000044000000044000FN00000000020220501000044000NNMD0420220317173935    1C0C  00000400000000653600000701732A7    ZZZZY   004300270014
BI00B32A7    ZZ22054BMW     202204277172-5403-30             SEALED PACKING           CCN000028000000028000FN00000000020220501000028000NNMD0420220317174005    1C0C  00000400000000653600000701732A7    ZZZZY   004300270014
BI00B32A7    ZZ22053BMW     202204207289-3342                HOUSING FEMALE ASS'Y     CCN000002400000002400FN00000000020220501000002400NNMD0420220317174101    1N0N  00000240000000686400000901432A7    ZZZZY   005500360039
BI00B32CC    CTA32059       202204217158-3167-80             WIRE SEAL                CCN000040000000040000FN00000000020220701000040000NNE   20220317122530    1C0C  00002000000000048000000109032CC    BIYABCBU002700430014
BI00B32CH    SJ22054HMW     202204217327-6870-30             MULTI FUSE               CCN000007776000007776FN00000000020220501000007776NNMD0420220317122530    4N0N  00000028800001015200001181132CH    SJSAMIJF005400370024
BI00B32CH    SJ22055HMW     202204287327-6870-30             MULTI FUSE               CCN000015552000015552FN00000000020220501000015552NNMD0420220317122530    4N0N  00000028800001015200001181132CH    SJSAMIJF005400370024
BI00B32CH    SJ22054HMW     202204217327-6880-30             MULTI FUSE               CCN000004896000004896FN00000000020220501000004896NNMD0420220317122530    4N0N  00000028800001012600001178532CH    SJSAMIJF005400370024
BI00B32CH    SJ22055HMW     202204287327-6880-30             MULTI FUSE               CCN000014688000014688FN00000000020220501000014688NNMD0420220317122530    4N0N  00000028800001012600001178532CH    SJSAMIJF005400370024
BI00B32CH    SJ22054HMW     202204217327-6884-30             MULTI FUSE               CCN000016992000016992FN00000000020220501000016992NNMD0420220317122530    4N0N  00000028800000988900001154832CH    SJSAMIJF005400370024
BI00B32CH    SJ22055HMW     202204287327-6884-30             MULTI FUSE               CCN000021024000021024FN00000000020220501000021024NNMD0420220317122530    4N0N  00000028800000988900001154832CH    SJSAMIJF005400370024
BI00B32CH    SJ22052HMW     202204077327-6937-30             MULTI FUSE               CCN000000288000000288FN00000000020220501000000288NNMD0420220317122530    4N0N  00000028800001013600001179532CH    SJSAMIJF005400370024
BI00B32CH    SJ22054HMW     202204217327-6937-30             MULTI FUSE               CCN000001152000001152FN00000000020220501000001152NNMD0420220317122530    4N0N  00000028800001013600001179532CH    SJSAMIJF005400370024
BI00B32CH    SJ22052HMW     202204077327-6939-30             MULTI FUSE               CCN000000864000000864FN00000000020220501000000864NNMD0420220317122530    4N00  00000028800000992200001158132CH    SJSAMIJF005400370024
BI00B32CH    SJ22053HMW     202204077327-6939-30             MULTI FUSE               CCN000000864000000864FN00000000020220501000000864NNMD0420220317122530    4N00  00000028800000992200001158132CH    SJSAMIJF005400370024
BI00B32CH    SJ22054HMW     202204217327-6939-30             MULTI FUSE               CCN000000576000000576FN00000000020220501000000576NNMD0420220317122530    4N00  00000028800000992200001158132CH    SJSAMIJF005400370024
BI00B32CH    SJ22055HMW     202204287327-6939-30             MULTI FUSE               CCN000000864000000864FN00000000020220501000000864NNMD0420220317122530    4N00  00000028800000992200001158132CH    SJSAMIJF005400370024
BI00B32CH    SJ22052HMW     202204077327-6941-30             MULTI FUSE               CCN000000864000000864FN00000000020220501000000864NNMD0420220317122530    4N00  00000028800001014400001180332CH    SJSAMIJF005400370024
BI00B32CH    SJ22053HMW     202204077327-6941-30             MULTI FUSE               CCN000000864000000864FN00000000020220501000000864NNMD0420220317122530    4N00  00000028800001014400001180332CH    SJSAMIJF005400370024
BI00B32CH    SJ22054HMW     202204217327-6941-30             MULTI FUSE               CCN000000576000000576FN00000000020220501000000576NNMD0420220317122530    4N00  00000028800001014400001180332CH    SJSAMIJF005400370024
BI00B32CH    SJ22055HMW     202204287327-6941-30             MULTI FUSE               CCN000000864000000864FN00000000020220501000000864NNMD0420220317122530    4N00  00000028800001014400001180332CH    SJSAMIJF005400370024
BI00B32D1    DFTC2224       202204217017-1180-02             TERMINAL                 CCN000072000000072000FN00000000020220601000072000NNM   20220317122530    4P0P  00007200000001065600001229032D1    TOYOT-K 005100280028
BI00B32D1    DFTC2224       202204217114-4032                TERMINAL                 CCN000007500000007500FN00000000020220601000007500NNM   20220317122530    4P0P  00000750000000735000001063632D1    TOYOT-K 006400630017
BI00B32D1    DFTC2224       202204217114-4231-02             TERMINAL                 CCN000018000000018000FN00000000020220601000018000NNM   20220317122530    4P0P  00001800000000554400000848032D1    TOYOT-K 006400630015
BI00B32D1    DFTC2224       202204217114-5748-02             TERMINAL                 CCN000048000000048000FN00000000020220601000048000NNM   20220317122530    4P0P  00001200000000444000000737632D1    TOYOT-K 006400630015
BI00B32D1    DFTC2224       202204217114-5753-02             TERMINAL                 CCN000108000000108000FN00000000020220601000108000NNM   20220317122530    4P0P  00002700000000847800001141432D1    TOYOT-K 006400630015
BI00B32D1    DFTC2224       202204217116-1685-02             TERMINAL                 CCN000048000000048000FN00000000020220601000048000NNM   20220317122530    4P0P  00002400000000897600001065232D1    TOYOT-K 005100280028
BI00B32D1    DFTC2224       202204217116-2891-02             TERMINAL                 CCN000060000000060000FN00000000020220601000060000NNM   20220317122530    4P0P  00001500000000982500001145932D1    TOYOT-K 005100280028
BI00B32D1    DFTC2224       202204217116-4100-02             TERMINAL                 CCN000015000000015000FN00000000020220601000015000NNM   20220317122530    4P0P  00001500000000696000000990232D1    TOYOT-K 006400630015
BI00B32D1    DFTC2224       202204217116-4110-02             TERMINAL                 CCN000018000000018000FN00000000020220601000018000NNM   20220317122530    4P0P  00000900000000594000000882232D1    TOYOT-K 006400630015
BI00B32D1    DFTC2224       202204217116-4111-02             TERMINAL                 CCN000015000000015000FN00000000020220601000015000NNM   20220317122530    4P0P  00000750000000529500000817732D1    TOYOT-K 006400630015
BI00B32D1    DFTC2224       202204217116-4112-02             TERMINAL                 CCN000030000000030000FN00000000020220601000030000NNM   20220317122530    4P0P  00000600000000450000000738232D1    TOYOT-K 006400630015
BI00B32D1    DFTC2224       202204217116-4486-02             TERMINAL                 CCN000084000000084000FN00000000020220601000084000NNM   20220317122530    4P0P  00002800000000666400000995132D1    TOYOT-K 006400630017
BI00B32D1    DFTC2224       202204217116-5045-02             TERMINAL                 CCN000064000000064000FN00000000020220601000064000NNM   20220317122530    4P0P  00001600000000678400001007132D1    TOYOT-K 006400630017
BI00B32D1    DFTC2224       202204217126-8853-02             TERMINAL                 CCN000060000000060000FN00000000020220601000060000NNM   20220317122530    4P0P  00000750000000562500000847732D1    TOYOT-K 006400630015
BI00B32D1    DFTC2224       202204217126-8854-02             TERMINAL                 CCN000037500000037500FN00000000020220601000037500NNM   20220317122530    4P0P  00000750000000604500000889732D1    TOYOT-K 006400630015
BI00B32D1    DFTC2224       202204217126-8855-02             TERMINAL                 CCN000048000000048000FN00000000020220601000048000NNM   20220317122530    4P0P  00000600000000510600000795832D1    TOYOT-K 006400630015
BI00B32D1    DFTC2224       202204217158-3070-80             RUBBER STOPPER           CCN000040000000040000FN00000000020220601000040000NNM   20220317122530    1C0C  00004000000000276000000333332D1    TOYOT-K 002700430014
BI00B32D1    DFTC2224       202204217196-0510-02             TERMINAL                 CCN000024000000024000FN00000000020220601000024000NNM   20220317122530    4P0P  00002400000000871200001034632D1    TOYOT-K 002800510028
BI00B32D1    DFTC2224       202204217282-4576                HOUSING MALE ASS'Y       CCN000004800000004800FN00000000020220601000004800NNM   20220317122530    4N0N  00000240000000808800001028832D1    TOYOT-K 005500360039
BI00B32D1    DFTC2224       202204217283-1156                CONNECTOR                CCN000001600000001600FN00000000020220601000001600NNM   20220317122530    4N0N  00000080000000877600001078032D1    TOYOT-K 005600390040
BI00B32D1    DFTC2224       202204217288-6547                CONNECTOR MALE ASS'Y     CCN000006000000006000FN00000000020220601000006000NNM   20220317122530    4N0N  00000075000001205300001340332D1    TOYOT-K 005400370024
BI00B32D1    DFTC2224       202204217289-3342                HOUSING FEMALE ASS'Y     CCN000019200000019200FN00000000020220601000019200NNM   20220317122530    1N0N  00000240000000686400000901432D1    TOYOT-K 005500360039
BI00B32D1    DFTC2224       202204217289-3342-30             HOUSING FEMALE ASS'Y     CCN000048000000048000FN00000000020220601000048000NNM   20220317122530    1N0N  00000240000000686400000901432D1    TOYOT-K 005500360039
BI00B32D1    DFTC2224       202204217289-3342-40             HOUSING FEMALE ASS'Y     CCN000002400000002400FN00000000020220601000002400NNM   20220317122530    1N0N  00000240000000686400000901432D1    TOYOT-K 005500360039
BI00B32D1    DFTC2224       202204217289-3342-90             HOUSING FEMALE ASS'Y     CCN000002400000002400FN00000000020220601000002400NNM   20220317122530    1N0N  00000240000000686400000901432D1    TOYOT-K 005500360039
BI00B32D1    DFTC2224       202204217289-6547                HOUSING FEMALE ASS'Y     CCN000004800000004800FN00000000020220601000004800NNM   20220317122530    1N0N  00000240000001152000001362032D1    TOYOT-K 005500360039
BI00B32D1    DFTC2224       202204217296-0784-02             TERMINAL ALUMINIUM       CCN000024000000024000FN00000000020220601000024000NNM   20220317122530    4P0P  00002400000000480000000765232D1    TOYOT-K 006400630015
BI00B32D1    DFTC2224       202204217327-6731-3W             BATTERY FUSE             CCN000001216000001216FN00000000020220601000001216NNM   20220317122530    4N0N  00000006400000697600000843032D1    TOYOT-K 005400370024
BI00B32D1    DFTC2224       202204217388-2978-30             HOUSING MALE ASS'Y       CCN000006720000006720FN00000000020220601000006720NNM   20220317122530    1N0N  00000048000000742000001122032D1    TOYOT-K 005500360039
BI00B32D1    #DFTC2224      202204217047-5344                RETAINER                 CCN000010000000010000FN00000000020220601000010000NNM   20220317122530    2F0F  00001000000000870000001016032D1    TOYOT-K 005600390023
BI00B32D1    #DFTC2224      202204217158-3003-90             RUBBER STOPPER           CCN000060000000060000FN00000000020220601000060000NNM   20220317122530    2C0C  00002000000000250000000306032D1    TOYOT-K 002700430014
BI00B32D1    #DFTC2224      202204217158-3005-80             RUBBER STOPPER           CCN000040000000040000FN00000000020220601000040000NNM   20220317122530    2H0H  00002000000000210000000268732D1    TOYOT-K 002700430014
BI00B32D1    #DFTC2224      202204217158-3008-80             RUBBER STOPPER           CCN000040000000040000FN00000000020220601000040000NNM   20220317122530    2C0C  00002000000000288000000343032D1    TOYOT-K 004300270014
BI00B32D1    #DFTC2224      202204217158-3015-10             RUBBER STOPPER           CCN000020000000020000FN00000000020220601000020000NNM   20220317122530    2C0C  00001000000000419500000474032D1    TOYOT-K 002700430014
BI00B32D1    #DFTC2224      202204217158-3017                RUBBER STOPPER           CCN000020000000020000FN00000000020220601000020000NNM   20220317122530    2C0C  00001000000000375500000435032D1    TOYOT-K 002700430014
BI00B32D1    #DFTC2224      202204217172-5625-90             RUBBER STOPPER           CCN000020000000020000FN00000000020220601000020000NNM   20220317122530    2H0H  00002000000000082400000133832D1    TOYOT-K 004300270014
BI00B32D1    #DFTC2224      202204217172-5627-60             RUBBER STOPPER           CCN000020000000020000FN00000000020220601000020000NNM   20220317122530    2H0H  00002000000000070400000121832D1    TOYOT-K 004300270014
BI00B32D1    #DFTC2224      202204217172-5629-80             RUBBER STOPPER           CCN000080000000080000FN00000000020220601000080000NNM   20220317122530    2H0H  00002000000000060000000111132D1    TOYOT-K 004300270014
BI00B32D1    #DFTC2224      202204217172-5630-40             RUBBER STOPPER           CCN000020000000020000FN00000000020220601000020000NNM   20220317122530    2H0H  00002000000000044000000095132D1    TOYOT-K 004300270014
BI00B32D1    #DFTC2224      202204217172-5631-60             RUBBER STOPPER           CCN000040000000040000FN00000000020220601000040000NNM   20220317122530    2H0H  00002000000000042000000093132D1    TOYOT-K 004300270014
BI00B32D1    #DFTC2224      202204217172-5632-10             DUMMY PLUG               CCN000020000000020000FN00000000020220601000020000NNM   20220317122530    2H0H  00002000000000080400000131832D1    TOYOT-K 004300270014
BI00B32D1    #DFTC2224      202204217183-2418-30             CONNECTOR HOUSING        CCN000004800000004800FN00000000020220601000004800NNM   20220317122530    2F0F  00000480000000917000001235332D1    TOYOT-K 005500360039
BI00B32D1    #DFTC2224      202204217189-2978-30             HOUSING FEMALE           CCN000007500000007500FN00000000020220601000007500NNM   20220317122530    2F0F  00000150000000966900001096932D1    TOYOT-K 005400370024
BI00B32D1    #DFTC2224      202204217189-3033                HOUSING FEMALE           CCN000003200000003200FN00000000020220601000003200NNM   20220317122530    2F0F  00000160000001211200001431232D1    TOYOT-K 005500360039
BI00B32D1    #DFTC2224      202204217189-3036                HOUSING FEMALE           CCN000001600000001600FN00000000020220601000001600NNM   20220317122530    2F0F  00000160000000921600001141632D1    TOYOT-K 005500360039
BI00B32D1    #DFTC2224      202204217282-1641                CONNECTOR                CCN000006000000006000FN00000000020220601000006000NNM   20220317122530    2N0N  00000200000000813000000986032D1    TOYOT-K 005500360039
BI00B32D1    #DFTC2224      202204217289-2912-40             HOUSING FEMALE ASS'Y     CCN000002000000002000FN00000000020220601000002000NNM   20220317122530    2N0N  00000200000000804000000931032D1    TOYOT-K 005400370024
BI00B32D1    #DFTC2224      202204217289-3622-30             HOUSING FEMALE ASS'Y     CCN000002160000002160FN00000000020220601000002160NNM   20220317122530    2N0N  00000043200000839400001038432D1    TOYOT-K 005400370024
BI00B32D1    #DFTC2224      202204217289-4200-30             HOUSING FEMALE ASS'Y     CCN000002000000002000FN00000000020220601000002000NNM   20220317122530    2N0N  00000200000000926000001021032D1    TOYOT-K 005400370024
BI00B32D2    #DGTC2224      202205267172-5630-40             RUBBER STOPPER           CCN000200000000200000FN00000000020220601000200000NNMD0220220317153120    2H0H  00002000000000044000000095132D2    TGYOT-G 004300270014
BI00A32D2    DGTC2219A      202203317327-6983-30             MAIN FUSE                CCN000001200000001200FN00000000020220301000001200NNED0720220317155244    4N0N  00000060000000748800000951532D2    TGYOT-G 005400370024
BI00A32D2    DGTC2219A      202203317327-6985-30             MULTI FUSE               CCN000001152000001152FN00000000020220301000001152NNED0720220317155244    4N0N  00000028800000886100001052032D2    TGYOT-G 005400370024
BI00A32D2    DGTC2219A      202203317327-6990-30             MULTI FUSE               CCN000001120000001120FN00000000020220301000001120NNED0720220317155244    4NON  00000056000000724000000907032D2    TGYOT-G 005400370024
BI00A32D2    DGTC2219A      202203317327-6998-30             MULTI FUSE               CCN000001200000001440FN00000000020220301000001440NNED0720220317155244    4N0N  00000028800000000000000000032D2    TGYOT-G 000000000000
BI00B32D9    I230A          202203317283-7062-40             CONNECTOR HOUSING        CCN000000600000000000FY00000000020220501000000000NNED0620220317175610    1N0N  00000060000000500400000645432D9    UEHESTO 005400370024
BI00B32EJ    #T220316P01    202204077282-3020                CONNECTOR                CCN000008000000008000FN00000000020220401000008000NNE   20220317122530EJ  2N0N  00000100000000984000001145432EJ    EJYKBO  005500360039
BI00B32E1    NC205B         202203307116-4121-02             TERMINAL                 CCN000027000000027000FN00000000020220501000027000NNED0720220317133329    4P0P  00000450000000618800000912432E1    SPYSE   006400630015
BI00B32E1    NC205B         202203307116-4122-02             TERMINAL                 CCN000009000000009000FN00000000020220501000009000NNED0720220317133329    4P0P  00000450000000656600000950232E1    SPYSE   006400630015
BI00A32E2    NY203E         202203317158-3006-90             RUBBER STOPPER           CCN000080000000080000FN00000000020220301000080000NNED0720220317133017    1C0C  00002000000000330600000386032E2    SPYSE   002700430014
BI00B32E2    NY205B         202203307017-1180-02             TERMINAL                 CCN000144000000144000FN00000000020220501000144000NNED0720220317133156    4P0P  00007200000001065600001229032E2    SPYSE   005100280028
BI00B32E2    NY205B         202203307116-4037                TERMINAL                 CCN000012000000012000FN00000000020220501000012000NNED0720220317133156    4P0P  00000600000000600000000894232E2    SPYSE   006400630015
BI00B32E2    #NY205B        202203307158-3015-10             RUBBER STOPPER           CCN000010000000010000FN00000000020220501000010000NNED0720220317133138    2C0C  00001000000000419500000474032E2    SPYSE   002700430014
BI00B32E2    #NY205B        202203307289-2913-30             HOUSING FEMALE ASS'Y     CCN000001500000001500FN00000000020220501000001500NNED0720220317133138    2N0N  00000150000000907500001034532E2    SPYSE   005400370024
BI00B32G7    #JJ2205AMMW    202204287172-5629-80             RUBBER STOPPER           CCN000240000000240000FN00000000020220501000240000NNED0420220317153148    2H0H  00002000000000060000000111132G7    JIJAI   004300270014
BI00B32G7    JJ2205AKMW     202204287116-4415-02             TERMINAL                 CCN000038000000038000FN00000000020220501000038000NNE   20220317161820    4P0P  00003800000000596600000925732G7    JIJAI   006400630017
BI00B32G7    #JJ2205AKMW    202204287182-9631-40             JOINT CONNECTOR          CCN000003000000003000FN00000000020220501000003000NNE   20220317161814    2F0F  00000300000001182000001307432G7    JIJAI   005400370024
BI00B32G7    JJ2205B MW     202204287114-5746-02             TERMINAL                 CCN000021000000021000FN00000000020220501000021000NNE   20220317161844    4P0P  00002100000000695100000988732G7    JIJAI   006400630015
BI00B32G7    JJ2205B MW     202204287114-5747-02             TERMINAL                 CCN000018000000018000FN00000000020220501000018000NNE   20220317161844    4P0P  00001800000000626400000920032G7    JIJAI   006400630015
BI00B32G7    JJ2205B MW     202204287116-2891-02             TERMINAL                 CCN000015000000015000FN00000000020220501000015000NNE   20220317161844    4P0P  00001500000000982500001145932G7    JIJAI   005100280028
BI00B32G7    JJ2205B MW     202204287116-2892-02             TERMINAL                 CCN000024000000024000FN00000000020220501000024000NNE   20220317161844    4P0P  00001200000000818400000981832G7    JIJAI   005100280028
BI00B32G7    JJ2205B MW     202204287116-2893-02             TERMINAL                 CCN000036000000036000FN00000000020220501000036000NNE   20220317161844    4P0P  00001200000000895200001058632G7    JIJAI   005100280028
BI00B32G7    JJ2205B MW     202204287116-4028-08             TERMINAL FEMALE          CCN000016000000016000FN00000000020220501000016000NNE   20220317161844    4P0P  00001600000000652800000981532G7    JIJAI   006400630017
BI00B32G7    JJ2205B MW     202204287116-4037                TERMINAL                 CCN000030000000030000FN00000000020220501000030000NNE   20220317161844    4P0P  00000600000000600000000894232G7    JIJAI   006400630015
BI00B32G7    JJ2205B MW     202204287116-5044-02             TERMINAL                 CCN000128000000128000FN00000000020220501000128000NNE   20220317161844    4P0P  00001600000000641600000986332G7    JIJAI   006400630017
BI00B32G7    JJ2205B MW     202204287116-5045-02             TERMINAL                 CCN000176000000176000FN00000000020220501000176000NNE   20220317161844    4P0P  00001600000000678400001007132G7    JIJAI   006400630017
BI00B32G7    JJ2205B MW     202204287116-5046-02             TERMINAL                 CCN000036000000036000FN00000000020220501000036000NNE   20220317161844    4P0P  00001200000000544800000873532G7    JIJAI   006400630017
BI00B32G7    JJ2205B MW     202204287116-5750-02             TERMINAL                 CCN000015000000015000FN00000000020220501000015000NNE   20220317161844    4P0P  00001500000000457500000742732G7    JIJAI   006400630015
BI00B32G7    JJ2205B MW     202204287116-5751-02             TERMINAL                 CCN000024000000024000FN00000000020220501000024000NNE   20220317161844    4P0P  00001200000000379200000664432G7    JIJAI   006400630015
BI00B32G7    JJ2205B MW     202204287116-5752-02             TERMINAL                 CCN000063000000063000FN00000000020220501000063000NNE   20220317161844    4P0P  00002100000000571200000856432G7    JIJAI   006400630015
BI00B32G7    JJ2205B MW     202204287126-8853-02             TERMINAL                 CCN000075000000075000FN00000000020220501000075000NNE   20220317161844    4P0P  00000750000000562500000847732G7    JIJAI   006400630015
BI00B32G7    JJ2205B MW     202204287126-8854-02             TERMINAL                 CCN000022500000022500FN00000000020220501000022500NNE   20220317161844    4P0P  00000750000000604500000889732G7    JIJAI   006400630015
BI00B32G7    JJ2205B MW     202204287126-8855-02             TERMINAL                 CCN000060000000060000FN00000000020220501000060000NNE   20220317161844    4P0P  00000600000000510600000795832G7    JIJAI   006400630015
BI00B32G7    JJ2205B MW     202204287158-3006-90             RUBBER STOPPER           CCN000080000000080000FN00000000020220501000080000NNE   20220317161844    1C0C  00002000000000330600000386032G7    JIJAI   002700430014
BI00B32G7    JJ2205B MW     202204287158-3009-60             RUBBER STOPPER           CCN000100000000100000FN00000000020220501000100000NNE   20220317161844    1C0C  00002000000000338000000386232G7    JIJAI   002700430014
BI00B32G7    JJ2205B MW     202204287288-3334-30             HOUSING MALE             CCN000001500000001500FN00000000020220501000001500NNE   20220317161844    4N0N  00000150000000867000001012032G7    JIJAI   005400370024
BI00B32G7    #JJ2205B MW    202204287158-3003-90             RUBBER STOPPER           CCN000120000000120000FN00000000020220501000120000NNE   20220317161840    2C0C  00002000000000250000000306032G7    JIJAI   002700430014
BI00B32G7    #JJ2205B MW    202204287158-3004-40             RUBBER STOPPER           CCN000060000000060000FN00000000020220501000060000NNE   20220317161840    2C0C  00002000000000234000000306332G7    JIJAI   002700430014
BI00B32G7    #JJ2205B MW    202204287158-3007-10             RUBBER STOPPER           CCN000060000000060000FN00000000020220501000060000NNE   20220317161840    2H0H  00002000000000308000000362732G7    JIJAI   002700430014
BI00B32G7    #JJ2205B MW    202204287158-3015-10             RUBBER STOPPER           CCN000010000000010000FN00000000020220501000010000NNE   20220317161840    2C0C  00001000000000419500000474032G7    JIJAI   002700430014
BI00B32G7    #JJ2205B MW    202204287158-3120-90             CONNECTOR WIRE SEAL      CCN000020000000020000FN00000000020220501000020000NNE   20220317161840    2C0C  00002000000000136000000194032G7    JIJAI   002700430014
BI00B32G7    JJ2205BMMW     202204287114-4728-02             TERMINAL                 CCN000030000000030000FN00000000020220501000030000NNE   20220317161909    4P0P  00003000000000510000000804232G7    JIJAI   006400630015
BI00B32G7    JJ2205BMMW     202204287158-3023                RUBBER STOPPER           CCN000005000000005000FN00000000020220501000005000NNE   20220317161909    1C0C  00000500000000443500000502032G7    JIJAI   002700430014
BI00B32G7    JJ2205BMMW     202204287196-0510-02             TERMINAL                 CCN000024000000024000FN00000000020220501000024000NNE   20220317161909    4P0P  00002400000000871200001034632G7    JIJAI   002800510028
BI00B32G7    JJ2205BMMW     202204287196-1103-02             TERMINAL                 CCN000045000000045000FN00000000020220501000045000NNE   20220317161909    4P0P  00002250000000429800000715032G7    JIJAI   006400630015
BI00B32G7    JJ2205BMMW     202204287196-1104-02             TERMINAL                 CCN000022500000022500FN00000000020220501000022500NNE   20220317161909    4P0P  00002250000000441000000726232G7    JIJAI   006400630015
BI00B32G7    JJ2205BMMW     202204287288-3330-30             HOUSING MALE             CCN000003000000003000FN00000000020220501000003000NNE   20220317161909    4N0N  00000150000000866300001011232G7    JIJAI   005400370024
BI00B32G7    JJ2205BMMW     202204287288-3332-30             HOUSING MALE             CCN000001500000001500FN00000000020220501000001500NNE   20220317161909    4N0N  00000150000000860700001005732G7    JIJAI   005400370024
BI00B32G7    JJ2205BMMW     202204287327-6731-3W             BATTERY FUSE             CCN000002176000002176FN00000000020220501000002176NNE   20220317161909    4N0N  00000006400000697600000843032G7    JIJAI   005400370024
BI00B32G7    #JJ2205BMMW    202204287158-3005-80             RUBBER STOPPER           CCN000020000000020000FN00000000020220501000020000NNE   20220317161905    2H0H  00002000000000210000000268732G7    JIJAI   002700430014
BI00B32G7    #JJ2205BMMW    202204287172-5631-60             RUBBER STOPPER           CCN000020000000020000FN00000000020220501000020000NNE   20220317161905    2H0H  00002000000000042000000093132G7    JIJAI   004300270014
BI00B32G7    #JJ2205BMMW    202204287289-2913-40             HOUSING FEMALE ASS'Y     CCN000001500000001500FN00000000020220501000001500NNE   20220317161905    2N0N  00000150000000910500001037532G7    JIJAI   005400370024
BI00B32G7    #JJ2205BMMW    202204287289-3622-30             HOUSING FEMALE ASS'Y     CCN000000432000000432FN00000000020220501000000432NNE   20220317161905    2N0N  00000043200000839400001038432G7    JIJAI   005400370024
BI00B32G8    PATA2041A      202203217124-2700                RELAY BLOCK              CCN000000050000000072FN00000000020220401000000072NNE00020220317122530    4F0F  00000007200000974000001149032G8    PSPASI  005600390040
BI00B32H0    TT2205BVMW     202205107289-5979-30             HOUSING FEMALE ASS'Y     CCN000000252000000252FN00000000020220501000000252NNED0720220317122530    1N0N  00000025200000854700001064732H0    TTTJY   005400370024
BI00B32H2    #TIJ2051       202203257286-7860                HOUSING MALE ASS'Y       CCN000064800000016800FN00000000020220501000016800NNMD0020220317164622    2N0N  00000080000000951700001139832H2    HVYHV   005400370024
BI00B32H2    #TIJ204K       202204017172-5625-90             RUBBER STOPPER           CCN000020000000020000FN00000000020220401000020000NNE   20220317132512    2H0H  00002000000000082400000133832H2    HVYHV   004300270014
BI00B32H2    #TIJ2051       202204017286-7860                HOUSING MALE ASS'Y       CCN000020000000020000FN00000000020220501000020000NNMD0020220317162522    2N0N  00000080000000951700001139832H2    HVYHV   005400370024
BI00B32H2    #TIJ2051       202204087286-7860                HOUSING MALE ASS'Y       CCN000028000000028000FN00000000020220501000028000NNMD0020220317162522    2N0N  00000080000000951700001139832H2    HVYHV   005400370024
BI00A32H7    #FS22043DMW    202204017172-5630-40             RUBBER STOPPER           PCN000300000000300000FN00000000020220401000300000NNMM0020220317143446    2H0H  00002000000000044000000095132H7    FYFSY   004300270014
BI00A32H7    #FS22044DMW    202204017172-5630-40             RUBBER STOPPER           PCN000280000000280000FN00000000020220401000280000NNMM0020220317143507    2H0H  00002000000000044000000095132H7    FYFSY   004300270014
BI00A32H8    #TY2203AKMW    202203187189-3032-30             HOUSING FEMALE           CCN000008000000008000FN00000000020220301000008000NNE   20220317181003    2F0F  00000160000000801600001021632H8    TYTYC   005500360039
BI00B32H8    TY2204B MW     202204017116-6041                TERMINAL                 CCN000018000000018000FN00000000020220401000018000NNE   20220317145936    4P0P  00000450000000716000001009632H8    TYTYC   006400630015
BI00B32H8    #TY2204B MW    202204017158-3017                RUBBER STOPPER           CCN000020000000020000FN00000000020220401000020000NNE   20220317145932    2C0C  00001000000000375500000435032H8    TYTYC   002700430014
BI00B32J1    392171         202203287174-2052-30             COVER                    CCN000001260000000000FY00000000020220301000000000NNMQ0820220317194306    1F0F  00000126000000553400001024332J1    UKYEL-BL005500360039
BI00A32M1    TCV2032        202203247289-3342                HOUSING FEMALE ASS'Y     PCN000043200000043200FN00000000020220301000043200NNM00020220317165922    1N0N  00000240000000686400000901432M1    VNYEV   005500360039
BI00B32M1    TCV2054        202205127289-3342                HOUSING FEMALE ASS'Y     CCN000122400000122400FN00000000020220501000122400NNMD0420220317172657    1N0N  00000240000000686400000901432M1    VNYEV   005500360039
BI00B32M1    TCV2054        202205127289-3342-30             HOUSING FEMALE ASS'Y     CCN000050400000050400FN00000000020220501000050400NNMD0420220317172718    1N0N  00000240000000686400000901432M1    VNYEV   005500360039
BI00B32M1    TCV2054        202205197289-3342                HOUSING FEMALE ASS'Y     CCN000060000000000000FY00000000020220501000000000NNMD0420220317172657    1N0N  00000240000000686400000901432M1    VNYEV   005500360039
BI00B32M1    TCV2054        202205197289-3342-30             HOUSING FEMALE ASS'Y     CCN000024000000000000FY00000000020220501000000000NNMD0420220317172718    1N0N  00000240000000686400000901432M1    VNYEV   005500360039
BI00B32M1    QA-22-C010     202203247289-3342                HOUSING FEMALE ASS'Y     PNN000016800000016800FN00000000020220301000016800NNE00020220317131150    1N0N  00000240000000686400000901432M1    VNYEV   005500360039
BI00B32M3    SM22051DMW     202203317289-3342-30             HOUSING FEMALE ASS'Y     CCN000024000000024000FN00000000020220501000024000NNMD0420220317171738    1N0N  00000240000000686400000901432M3    SASAMI  005500360039
BI00B32M3    SM22054DMW     202204217289-3342-30             HOUSING FEMALE ASS'Y     CCN000021600000021600FN00000000020220501000021600NNMD0420220317171829    1N0N  00000240000000686400000901432M3    SASAMI  005500360039
BI00B32M3    SM22055DMW     202204287289-3342-30             HOUSING FEMALE ASS'Y     CCN000012000000012000FN00000000020220501000012000NNMD0420220317171903    1N0N  00000240000000686400000901432M3    SASAMI  005500360039
BI00B32M3    SM22051DMW     202204077289-3342-30             HOUSING FEMALE ASS'Y     CCN000004800000000000FY00000000020220501000000000NNMD0420220317171738    1N0N  00000240000000686400000901432M3    SASAMI  005500360039
BI00B32M3    SM22051DMW     202204217289-3342-30             HOUSING FEMALE ASS'Y     CCN000004800000000000FY00000000020220501000000000NNMD0420220317171738    1N0N  00000240000000686400000901432M3    SASAMI  005500360039
BI00B32M3    SM22051DMW     202204287289-3342-30             HOUSING FEMALE ASS'Y     CCN000004800000000000FY00000000020220501000000000NNMD0420220317171738    1N0N  00000240000000686400000901432M3    SASAMI  005500360039
BI00B32M3    SM22051DMW     202205057289-3342-30             HOUSING FEMALE ASS'Y     CCN000004800000000000FY00000000020220501000000000NNMD0420220317171738    1N0N  00000240000000686400000901432M3    SASAMI  005500360039
BI00B32M3    SM22054DMW     202205197289-3342-30             HOUSING FEMALE ASS'Y     CCN000004800000000000FY00000000020220501000000000NNMD0420220317171829    1N0N  00000240000000686400000901432M3    SASAMI  005500360039
BI00B32M3    SM22054DMW     202205267289-3342-30             HOUSING FEMALE ASS'Y     CCN000004800000000000FY00000000020220501000000000NNMD0420220317171829    1N0N  00000240000000686400000901432M3    SASAMI  005500360039
BI00B32M3    SM22054DMW     202206037289-3342-30             HOUSING FEMALE ASS'Y     CCN000004800000000000FY00000000020220501000000000NNMD0420220317171829    1N0N  00000240000000686400000901432M3    SASAMI  005500360039
BI00B32M3    SM22054DMW     202206097289-3342-30             HOUSING FEMALE ASS'Y     CCN000002400000000000FY00000000020220501000000000NNMD0420220317171829    1N0N  00000240000000686400000901432M3    SASAMI  005500360039
BI00B32M3    SM22055DMW     202206167289-3342-30             HOUSING FEMALE ASS'Y     CCN000004800000000000FY00000000020220501000000000NNMD0420220317171903    1N0N  00000240000000686400000901432M3    SASAMI  005500360039
BI00B32M3    SM22055DMW     202206237289-3342-30             HOUSING FEMALE ASS'Y     CCN000004800000000000FY00000000020220501000000000NNMD0420220317171903    1N0N  00000240000000686400000901432M3    SASAMI  005500360039
BI00B32P8    #TAPI-201A1    202203167172-5629-80             RUBBER STOPPER           CCN000780000000480000FN00000000020220101000480000NNMP0820220317122530    2H0H  00002000000000060000000111132P8    YIYTM   004300270014
BI00A32P8    #TAPI-2043     202203187172-5630-40             RUBBER STOPPER           CCN000120000000120000FN00000000020220401000120000NNMM0020220317122530    2H0H  00002000000000044000000095132P8    YIYTM   004300270014
BI00B32P8    #TAPI-2044     202203237172-5630-40             RUBBER STOPPER           CCN000180000000080000FN00000000020220401000080000NNMQ0020220317122530    2H0H  00002000000000044000000095132P8    YIYTM   004300270014
BI00A32P8    TAPI-201E      202203307327-6994-3W             BATTERY FUSE             CCN000000144000000072FN00000000020220301000000072NNED0720220317122530    4N0N  00000007200001215100001430132P8    YIYTM   005500360039
BI00A32P8    TAPI-201E      202203217327-6994-3W             BATTERY FUSE             CCN000000072000000072FN00000000020220301000000072NNED0020220317122530    4N0N  00000007200001215100001430132P8    YIYTM   005500360039
BI00A32P8    #TAPI-201A1    202203187172-5629-80             RUBBER STOPPER           CCN000300000000300000FN00000000020220101000300000NNMM0020220317122530    2H0H  00002000000000060000000111132P8    YIYTM   004300270014
BI00A32P8    #TAPI-2044     202203187172-5630-40             RUBBER STOPPER           CCN000100000000100000FN00000000020220401000100000NNMM0020220317122530    2H0H  00002000000000044000000095132P8    YIYTM   004300270014
BI00A32U5    #DI2014        202204057172-5630-40             RUBBER STOPPER           PCN000280000000280000FN00000000020220501000280000NNMM0020220317145430U5  2H0H  00002000000000044000000095132U5    AMAMSD  004300270014
BI00B32U5    DI2021         202204227288-3330-30             HOUSING MALE             CCN000004500000004500FN00000000020220701000004500NNMD0020220317122530U5  4N0N  00000150000000866300001011232U5    AMAMSD  005400370024
BI00A32U5    PU5TAC203C     202204017327-6983-30             MAIN FUSE                CCN000000100000000600FN00000000020220301000000600NNED0720220317155444U5  4N0N  00000060000000748800000951532U5    AMAMSD  005400370024
BI00A32U5    PU5TAC203C     202204017327-6985-30             MULTI FUSE               CCN000000100000000288FN00000000020220301000000288NNED0720220317155444U5  4N0N  00000028800000886100001052032U5    AMAMSD  005400370024
BI00A32U5    PU5TAC203C     202204017327-6990-30             MULTI FUSE               CCN000000200000000560FN00000000020220301000000560NNED0720220317155444U5  4NON  00000056000000724000000907032U5    AMAMSD  005400370024
BI00A32U9    TP0389S        202203247298-1186-40             SQUIB SUB ASS'Y          CCN000020000000020000FN00000000020220401000020000NNEM0020220317133542U9  4N0N  00001000000000650000000774532U9    YNYNA-E 005400370024
BI00A32U9    TPA219         202204077298-1187-30             SHUNT RING ASSEMBLY      CCN000010000000010000FN00000000020220501000010000NNMM0020220317122530U9  4N0N  00001000000000647000000769532U9    YNYNA-E 005400370024
BI00B32W2    HN22051WMW     202204057327-6870-30             MULTI FUSE               CCN000000288000000288FN00000000020220501000000288NNMD0420220317122530    4N0N  00000028800001015200001181132W2    HNHNY   005400370024
BI00B32W2    HN22052WMW     202204127327-6870-30             MULTI FUSE               CCN000000288000000288FN00000000020220501000000288NNMD0420220317122530    4N0N  00000028800001015200001181132W2    HNHNY   005400370024
BI00B32W2    HN22051WMW     202204057327-6880-30             MULTI FUSE               CCN000000288000000288FN00000000020220501000000288NNMD0420220317122530    4N0N  00000028800001012600001178532W2    HNHNY   005400370024
BI00B32W2    HN22052WMW     202204127327-6880-30             MULTI FUSE               CCN000000288000000288FN00000000020220501000000288NNMD0420220317122530    4N0N  00000028800001012600001178532W2    HNHNY   005400370024
BI00B32W2    HN22051WMW     202204057327-6884-30             MULTI FUSE               CCN000000864000000864FN00000000020220501000000864NNMD0420220317122530    4N0N  00000028800000988900001154832W2    HNHNY   005400370024
BI00B32W2    HN22052WMW     202204127327-6884-30             MULTI FUSE               CCN000000288000000288FN00000000020220501000000288NNMD0420220317122530    4N0N  00000028800000988900001154832W2    HNHNY   005400370024
BI00B32W2    HN2204DWMW     202204267C89-6868-30             SEALED ASSY FEMALE       CCN000002520000002520FN00000000020220401000002520NNED0420220317122530    4N0N  00000252000000839200001119232W2    HNHNY   005500360039
BI00B32W2    HN2204DWMW     202205037327-6832-60             MAIN FUSE                CCN000001200000001200FN00000000020220401000001200NNED0420220317122530    4N0N  00000060000000729200000930732W2    HNHNY   005400370024
BI00B32W2    HN2204DWMW     202205037327-6870-30             MULTI FUSE               CCN000001152000001152FN00000000020220401000001152NNED0420220317122530    4N0N  00000028800001015200001181132W2    HNHNY   005400370024
BI00B32W2    HN2204DWMW     202205037327-6880-30             MULTI FUSE               CCN000001440000001440FN00000000020220401000001440NNED0420220317122530    4N0N  00000028800001012600001178532W2    HNHNY   005400370024
BI00B32W2    HN2204DWMW     202205037327-6884-30             MULTI FUSE               CCN000002880000002880FN00000000020220401000002880NNED0420220317122530    4N0N  00000028800000988900001154832W2    HNHNY   005400370024
BI00B32W2    HN2204DWMW     202205037388-0313-30             CONNECTOR ASS'Y          CCN000001200000001200FN00000000020220401000001200NNED0420220317122530    4N0N  00000120000000995000001125032W2    HNHNY   005400370024
BI00A32W4    4500188014     202203247283-5545-10             CONNECTOR                CCN000000600000000600FN00000000020220301000000600NNEM0020220317155954W4464N0N  00000060000001279000001409232W446  HJYHK   005600390040
BI00B32W4    4500188218     202203217116-4102-02             TERMINAL                 CCN000036000000036000FN00000000020220301000036000NNEM0020220317164119W4N24P0P  00001200000000553200000841432W4N2  HJYHK-J 006400630015
BI00B32W4    4500188218     202203217114-4100-02             TERMINAL                 CCN000018000000018000FN00000000020220301000018000NNEM0020220317164119W4N24P0P  00001800000000748800001077432W4N2  HJYHK-J 006400630017
BI00B32W4    4500188737     202203287114-4112-02             TERMINAL                 CCN000009000000009000FN00000000020220301000009000NNEM0020220317161417W4N24P0P  00000900000000598500000927132W4N2  HJYHK-J 006400630017
BI00B32W4    4500188737     202203287116-4111-02             TERMINAL                 CCN000007500000007500FN00000000020220301000007500NNEM0020220317161417W4N24P0P  00000750000000529500000817732W4N2  HJYHK-J 006400630015
BI00B32W4    4500188738     202203217116-4112-02             TERMINAL                 CCN000006000000006000FN00000000020220301000006000NNEM0020220317161200W4N24P0P  00000600000000450000000738232W4N2  HJYHK-J 006400630015
BI00B32W4    4500188738     202203217116-4110-02             TERMINAL                 CCN000009000000009000FN00000000020220301000009000NNEM0020220317161200W4N24P0P  00000900000000594000000882232W4N2  HJYHK-J 006400630015
BI00B32W4    4500188741     202204047116-4100-02             TERMINAL                 CCN000015000000015000FN00000000020220401000015000NNEM0020220317161351W4N24P0P  00001500000000696000000990232W4N2  HJYHK-J 006400630015
BI00B32W4    4500188741     202204047116-4101-02             TERMINAL                 CCN000012000000012000FN00000000020220401000012000NNEM0020220317161351W4N24P0P  00001200000000582000000876232W4N2  HJYHK-J 006400630015
BI00B32W4    4500188742     202203287116-4102-02             TERMINAL                 CCN000024000000024000FN00000000020220301000024000NNEM0020220317161255W4N24P0P  00001200000000553200000841432W4N2  HJYHK-J 006400630015
BI00B32W4    4500188742     202203287114-4100-02             TERMINAL                 CCN000018000000018000FN00000000020220301000018000NNEM0020220317161325W4N24P0P  00001800000000748800001077432W4N2  HJYHK-J 006400630017
BI00B32W4    4500188742     202203287116-4101-02             TERMINAL                 CCN000024000000024000FN00000000020220301000024000NNEM0020220317161314W4N24P0P  00001200000000582000000876232W4N2  HJYHK-J 006400630015
BI00B32W4    4500188743     202203217114-4112-02             TERMINAL                 CCN000009000000009000FN00000000020220301000009000NNEM0020220317161106W4N24P0P  00000900000000598500000927132W4N2  HJYHK-J 006400630017
BI00B32W4    4500188743     202203217116-4111-02             TERMINAL                 CCN000030000000030000FN00000000020220301000030000NNEM0020220317161106W4N24P0P  00000750000000529500000817732W4N2  HJYHK-J 006400630015
BI00B32W4    4500189249     202203287116-4112-02             TERMINAL                 CCN000006000000006000FN00000000020220301000006000NNEM0020220317161443W4N24P0P  00000600000000450000000738232W4N2  HJYHK-J 006400630015
BI00B32W4    4500189249     202203287116-4111-02             TERMINAL                 CCN000015000000015000FN00000000020220301000015000NNEM0020220317161443W4N24P0P  00000750000000529500000817732W4N2  HJYHK-J 006400630015
BI00B32W4    4500189274     202204117116-4025                TERMINAL                 CCN000016000000016000FN00000000020220401000016000NNEM0020220317161501W4N24P0P  00001600000000644800000975132W4N2  HJYHK-J 006400630017
BI00B32W4    4500189856     202204187114-4101-02             TERMINAL                 CCN000015000000015000FN00000000020220401000015000NNEM0020220317161516W4N24P0P  00001500000000675000001003632W4N2  HJYHK-J 006400630017
BI00B32W4    4500190774     202205027116-4104-02             TERMINAL                 CCN000012000000012000FN00000000020220501000012000NNEM0020220317161530W4N24P0P  00001200000000580800000972432W4N2  HJYHK-J 006400630015
BI00B32W4    4500188810     202203187116-1685-02             TERMINAL                 CCN000168000000168000FN00000000020220301000168000NNE00020220317122530W4D44P0P  00002400000000897600001065232W4D4  HJYHK-J 005100280028
BI00B32W4    4500190964     202207277289-9553-30             SEALED ASSY FEMALE       CCN000132300000132300FN00000000020220501000132300NNED0420220317122530W4594N0N  00000294000001109000001521532W459  HJYHK   005500360039
BI00B32W4    4500190965     202208117289-9553-30             SEALED ASSY FEMALE       CCN000167580000167580FN00000000020220601000167580NNED0420220317122530W4594N0N  00000294000001109000001521532W459  HJYHK   005500360039
BI00B32W4    4500190966     202208187289-9553-30             SEALED ASSY FEMALE       CCN000123480000123480FN00000000020220701000123480NNED0420220317122530W4594N0N  00000294000001109000001521532W459  HJYHK   005500360039
BI00B32W4    4500190983     202205197116-4100-02             TERMINAL                 CCN000030000000030000FN00000000020220501000030000NNE   20220317122530W4464P0P  00001500000000696000000990232W446  HJYHK   006400630015
BI00B32W4    4500190983     202205197116-4102-02             TERMINAL                 CCN000012000000012000FN00000000020220501000012000NNE   20220317122530W4464P0P  00001200000000553200000841432W446  HJYHK   006400630015
BI00B32W4    4500190983     202205197116-4101-02             TERMINAL                 CCN000036000000036000FN00000000020220501000036000NNE   20220317122530W4464P0P  00001200000000582000000876232W446  HJYHK   006400630015
BI00B32W4    4500190983     202205197116-4103-02             TERMINAL                 CCN000024000000024000FN00000000020220501000024000NNE   20220317122530W4464P0P  00001200000000571200000859432W446  HJYHK   006400630015
BI00A32W4    4500190991     202205167116-4112-02             TERMINAL                 CCN000006000000006000FN00000000020220501000006000NNE   20220317122530W4O24P0P  00000600000000450000000738232W4O2  HJYHK-J 006400630015
BI00A32W4    4500190991     202205167116-4025                TERMINAL                 CCN000016000000016000FN00000000020220501000016000NNE   20220317122530W4O24P0P  00001600000000644800000975132W4O2  HJYHK-J 006400630017
BI00A32W4    4500190991     202205167158-3166-60             WIRE SEAL                CCN000080000000080000FN00000000020220501000080000NNE   20220317122530W4O21C0C  00004000000000104000000152432W4O2  HJYHK-J 002700430014
BI00A32W4    4500190991     202205167158-3167-80             WIRE SEAL                CCN000040000000040000FN00000000020220501000040000NNE   20220317122530W4O21C0C  00002000000000048000000109032W4O2  HJYHK-J 002700430014
BI00A32W4    4500190991     202205167116-4101-02             TERMINAL                 CCN000012000000012000FN00000000020220501000012000NNE   20220317122530W4O24P0P  00001200000000582000000876232W4O2  HJYHK-J 006400630015
BI00A32W4    4500190991     202205167157-6240-30             REAR HOLDER              CCN000005000000005000FN00000000020220501000005000NNE   20220317122530W4O21F0F  00000500000000545000000716032W4O2  HJYHK-J 005500360039
BI00A32W4    4500190991     202205167116-4110-02             TERMINAL                 CCN000018000000018000FN00000000020220501000018000NNE   20220317122530W4O24P0P  00000900000000594000000882232W4O2  HJYHK-J 006400630015
BI00A32W4    @4500190991    202205167183-8049                CONNECTOR HOUSING        CCN000012000000012000FN00000000020220501000012000NNE   20220317122530W4O23F0F  00000400000000583600000740032W4O2  HJYHK-J 005400370024
BI00B32W4    4500190994     202205037114-6041                TERMINAL                 CCN000010800000010800FN00000000020220501000010800NNE   20220317122530W4324P0P  00000360000000580700000824232W432  HJYHK   006400630015
BI00B32W4    4500190994     202205037116-6041                TERMINAL                 CCN000018000000018000FN00000000020220501000018000NNE   20220317122530W4324P0P  00000450000000716000001009632W432  HJYHK   006400630015
BI00B32W4    @4500190994    202205037283-3030                HOUSING FEMALE ASS'Y     CCN000003200000003200FN00000000020220501000003200NNE   20220317122530W4323N0N  00000160000001056300001275032W432  HJYHK   005500360039
BI00A32W4    4500191002     202205097116-4100-02             TERMINAL                 CCN000015000000015000FN00000000020220501000015000NNE   20220317122530W4194P0P  00001500000000696000000990232W419  HJYHK   006400630015
BI00A32W4    4500191002     202205097114-4112-02             TERMINAL                 CCN000009000000009000FN00000000020220501000009000NNE   20220317122530W4194P0P  00000900000000598500000927132W419  HJYHK   006400630017
BI00A32W4    4500191002     202205097283-6568-40             CONNECTOR                CCN000002000000002000FN00000000020220501000002000NNE   20220317122530W4194N0N  00000200000001090000001263032W419  HJYHK   005500360039
BI00A32W4    4500191004     202205167116-4111-02             TERMINAL                 CCN000007500000007500FN00000000020220501000007500NNE   20220317122530W4194P0P  00000750000000529500000817732W419  HJYHK   006400630015
BI00A32W4    4500191004     202205167116-4101-02             TERMINAL                 CCN000012000000012000FN00000000020220501000012000NNE   20220317122530W4194P0P  00001200000000582000000876232W419  HJYHK   006400630015
BI00A32W4    4500191004     202205167116-4103-02             TERMINAL                 CCN000012000000012000FN00000000020220501000012000NNE   20220317122530W4194P0P  00001200000000571200000859432W419  HJYHK   006400630015
BI00A32W4    4500191004     202205167283-6568-40             CONNECTOR                CCN000002000000002000FN00000000020220501000002000NNE   20220317122530W4194N0N  00000200000001090000001263032W419  HJYHK   005500360039
BI00A32W4    4500191012     202205197158-3169-40             SEALING PLUG             CCN000040000000040000FN00000000020220501000040000NNE   20220317122530W4D31C0C  00004000000000156000000204132W4D3  HJYHK-J 004300260014
BI00A32W4    4500191013     202205267158-3169-40             SEALING PLUG             CCN000040000000040000FN00000000020220501000040000NNE   20220317122530W4D31C0C  00004000000000156000000204132W4D3  HJYHK-J 004300260014
BI00B32W4    4500191015     202205057158-3166-60             WIRE SEAL                CCN001000000001000000FN00000000020220501001000000NNE   20220317122530W4B71C0C  00004000000000104000000152432W4B7  HJYHK-J 002700430014
BI00B32W4    4500191015     202205057158-3169-40             SEALING PLUG             CCN001000000001000000FN00000000020220501001000000NNE   20220317122530W4B71C0C  00004000000000156000000204132W4B7  HJYHK-J 004300260014
BI00B32W4    4500191015     202205057158-3167-80             WIRE SEAL                CCN001000000001000000FN00000000020220501001000000NNE   20220317122530W4B71C0C  00002000000000048000000109032W4B7  HJYHK-J 002700430014
BI00B32W4    4500191015     202205057158-3168-80             SEALED                   CCN001000000001000000FN00000000020220501001000000NNE   20220317122530W4B71C0C  00002000000000044000000092132W4B7  HJYHK-J 004300260014
BI00B32W4    4500191016     202205127158-3166-60             WIRE SEAL                CCN000080000000080000FN00000000020220501000080000NNE   20220317122530W4371C0C  00004000000000104000000152432W437  HJYHK   002700430014
BI00B32W4    #4500191027    202204057157-7812                SEAL RUBBER              CCN000010000000010000FN00000000020220401000010000NNE   20220317122530W42 2C0C  00001000000000137000000202032W42   HJYHK   002700430014
BI00B32W4    #4500191027    202204057158-3003-90             RUBBER STOPPER           CCN000020000000020000FN00000000020220401000020000NNE   20220317122530W42 2C0C  00002000000000250000000306032W42   HJYHK   002700430014
BI00B32W4    4500191030     202204287116-1685                TERMINAL                 CCN000024000000024000FN00000000020220401000024000NNE   20220317122530W4244P0P  00002400000000892800001067232W424  HJYHK   005100280028
BI00B32W4    4500191044     202206027158-3167-80             WIRE SEAL                CCN000440000000440000FN00000000020220601000440000NNE   20220317122530W4N61C0C  00002000000000048000000109032W4N6  HJYHK-J 002700430014
BI00B32W4    4500191045     202205267158-3167-80             WIRE SEAL                CCN000480000000480000FN00000000020220501000480000NNE   20220317122530W4N61C0C  00002000000000048000000109032W4N6  HJYHK-J 002700430014
BI00B32W4    4500191047     202205267158-3167-80             WIRE SEAL                CCN000160000000160000FN00000000020220501000160000NNE   20220317122530W4N61C0C  00002000000000048000000109032W4N6  HJYHK-J 002700430014
BI00B32W4    4500191047     202205267289-9553-50             SEALED ASSY FEMALE       CCN000014700000014700FN00000000020220501000014700NNE   20220317122530W4N64N0N  00000294000001108100001520632W4N6  HJYHK-J 005500360039
BI00B32W4    4500191047     202205267289-9553-30             SEALED ASSY FEMALE       CCN000005880000005880FN00000000020220501000005880NNE   20220317122530W4N64N0N  00000294000001109000001521532W4N6  HJYHK-J 005500360039
BI00B32W4    4500191047     202205267116-2893-02             TERMINAL                 CCN000012000000012000FN00000000020220501000012000NNE   20220317122530W4N64P0P  00001200000000895200001058632W4N6  HJYHK-J 005100280028
BI00B32W4    4500191048     202205197158-3167-80             WIRE SEAL                CCN000080000000080000FN00000000020220501000080000NNE   20220317122530W4651C0C  00002000000000048000000109032W465  HJYHK   002700430014
BI00B32W4    #4500191048    202205197158-3003-90             RUBBER STOPPER           CCN000020000000020000FN00000000020220501000020000NNE   20220317122530W4652C0C  00002000000000250000000306032W465  HJYHK   002700430014
BI00B32W4    #4500191049    202205267289-4104-40             HOUSING FEMALE ASS'Y     CCN000010000000010000FN00000000020220501000010000NNE   20220317122530W4652NON  00000050000000606900000821132W465  HJYHK   005400370024
BI00B32W4    4500191055     202205127158-3167-80             WIRE SEAL                CCN002000000002000000FN00000000020220501002000000NNE   20220317122530W4B71C0C  00002000000000048000000109032W4B7  HJYHK-J 002700430014
BI00B32W4    4500191055     202205127116-1686-02             TERMINAL                 CCN000168000000168000FN00000000020220501000168000NNE   20220317122530W4B74P0P  00002100000000869400001021632W4B7  HJYHK-J 005100280028
BI00B32W4    4500191058     202205037158-3070-80             RUBBER STOPPER           CCN000040000000040000FN00000000020220601000040000NNE   20220317122530W46 1C0C  00004000000000276000000333332W46   HJYHK   002700430014
BI00B32W4    4500191072     202205127289-9553-30             SEALED ASSY FEMALE       CCN000023520000023520FN00000000020220501000023520NNE   20220317122530W4O64N0N  00000294000001109000001521532W4O6  HJYHK-J 005500360039
BI00A32W4    4500191073     202206207116-4231-02             TERMINAL                 CCN000026000000026000FN00000000020220601000026000NNE   20220317122530W4L94P0P  00002600000000683800001012532W4L9  HJYHK-J 006400630017
BI00A32W4    4500191073     202206207283-5845                CONNECTOR HOUSING        CCN000006000000006000FN00000000020220601000006000NNE   20220317122530W4L91N0N  00000600000000444000000606332W4L9  HJYHK-J 005400370024
BI00B32W9    4500191020     202204197116-4100-02             TERMINAL                 CCN000015000000015000FN00000000020220401000015000NNE   20220317122530W9  4P0P  00001500000000696000000990232W9    HKYHK   006400630015
BI00B32W9    4500191023     202204057116-4100-02             TERMINAL                 CCN000030000000030000FN00000000020220401000030000NNE   20220317122530W9  4P0P  00001500000000696000000990232W9    HKYHK   006400630015
BI00B32W9    4500191071     202204057158-3169-40             SEALING PLUG             CCN000080000000080000FN00000000020220401000080000NNE   20220317122530W9  1C0C  00004000000000156000000204132W9    HKYHK   004300260014
BI00A32X5    #TIB2012       202204017172-5630-40             RUBBER STOPPER           PCN000220000000220000FN00000000020220501000220000NNM00020220317145515X5  2H0H  00002000000000044000000095132X5    EPYNA-E 004300270014
BI00A32X5    TIB2006A       202203257289-5979-30             HOUSING FEMALE ASS'Y     PCN000002772000002772FN00000000020220301000002772NNEM0020220317150105X5  1N0N  00000025200000854700001064732X5    EPYNA-E 005400370024
BI00A32X5    TIB2014        202203257289-5979-30             HOUSING FEMALE ASS'Y     PCN000003024000003024FN00000000020220501000003024NNMM0420220317150048X5  1N0N  00000025200000854700001064732X5    EPYNA-E 005400370024
BI00A32X5    #TIB2014       202204017172-5630-40             RUBBER STOPPER           PCN000220000000220000FN00000000020220501000220000NNMM0020220317145501X5  2H0H  00002000000000044000000095132X5    EPYNA-E 004300270014
BI00B32X5    TIB2021        202204227289-3342                HOUSING FEMALE ASS'Y     CCN000024000000024000FN00000000020220701000024000NNMD0020220317122530X5  1N0N  00000240000000686400000901432X5    EPYNA-E 005500360039
BI00B32X5    TIB2021        202204227288-3330-30             HOUSING MALE             CCN000015000000015000FN00000000020220701000015000NNMD0020220317122530X5  4N0N  00000150000000866300001011232X5    EPYNA-E 005400370024
BI00B32X5    TIB2021        202204227289-3342-40             HOUSING FEMALE ASS'Y     CCN000012000000012000FN00000000020220701000012000NNMD0020220317122530X5  1N0N  00000240000000686400000901432X5    EPYNA-E 005500360039
BI00B32X5    TIB2021        202204227289-3342-90             HOUSING FEMALE ASS'Y     CCN000009600000009600FN00000000020220701000009600NNMD0020220317122530X5  1N0N  00000240000000686400000901432X5    EPYNA-E 005500360039
BI00B32Y2    TAU1193        202204217158-3070-80             RUBBER STOPPER           CCN000040000000040000FN00000000020220801000040000NNE   20220317122530    1C0C  00004000000000276000000333332Y2    YUYUY   002700430014
BI00B32Y2    TAU1193        202204217288-3206                HOUSING MALE ASS'Y       CCN000001020000001020FN00000000020220801000001020NNE   20220317122530    1N0N  00000102000000387600000787632Y2    YUYUY   005500360039
BI00B32Y2    TAU1193        202204217289-3342-30             HOUSING FEMALE ASS'Y     CCN000004800000004800FN00000000020220801000004800NNE   20220317122530    1N0N  00000240000000686400000901432Y2    YUYUY   005500360039
BI00A32Y8    TAIM22032      202204217116-1301                TERMINAL                 CCN000015000000015000FN00000000020220701000015000NNE   20220317122530Y8  4P0P  00001500000000487500000772732Y8    CLYCL   006400630015
BI00A32Y8    TAIM22032      202204217235-8662                DOOR GROMMET             CCN000001600000001600FN00000000020220701000001600NNE   20220317122530Y8  4N0N  00000016000000844000001010032Y8    CLYCL   005500360039
BI00A32Y8    TAIM22032      202204217286-3970                CONNECTOR HOUSING        CCN000000770000000770FN00000000020220701000000770NNE   20220317122530Y8  1N0N  00000011000000977300001164032Y8    CLYCL   005500360039
BI00A32Y8    #TAIM22032     202204217035-2393                GROMMET                  CCN000001500000001500FN00000000020220701000001500NNE   20220317122530Y8  2H0H  00000010000001374000001581732Y8    CLYCL   005600390040
BI00A32Y8    #TAIM22032     202204217154-3456                REAR HOLDER              CCN000007000000007000FN00000000020220701000007000NNE   20220317122530Y8  2F0F  00000700000000581700000752032Y8    CLYCL   005500360039
BI00A32Y8    #TAIM22032     202204217174-0152                CONNECTOR                CCN000001050000001050FN00000000020220701000001050NNE   20220317122530Y8  2F0F  00000035000000746400000918632Y8    CLYCL   005500360039
BI00A32Y8    #TAIM22032     202204217187-3356                JOINT CONNECTOR          CCN000007200000007200FN00000000020220701000007200NNE   20220317122530Y8  2F0F  00000120000000759600001024432Y8    CLYCL   005600390040
BI00A32Y8    #TAIM22032     202204217187-3360                JOINT CONNECTOR          CCN000004800000004800FN00000000020220701000004800NNE   20220317122530Y8  2F0F  00000120000000759600001026832Y8    CLYCL   005600390040
BI00A32Y8    #TAIM22032     202204217283-4861                CONNECTOR                CCN000003000000003000FN00000000020220701000003000NNE   20220317122530Y8  2N0N  00000150000001200000001359932Y8    CLYCL   005500360039
BI00A32Y8    TAIM22031      202204297283-5092                CONNECTOR HOUSING        CCN000001600000001600FN00000000020220401000001600NNED0020220317122530Y8  4N0N  00000160000000856000001126732Y8    CLYCL   005500360039
BI00A32Y8    TAIM22031      202204297196-0510-02             TERMINAL                 CCN000024000000024000FN00000000020220401000024000NNED0020220317122530Y8  4P0P  00002400000000871200001034632Y8    CLYCL   002800510028
BI00A32Y8    TAIM22031      202204297196-0512-02             TERMINAL                 CCN000021000000021000FN00000000020220401000021000NNED0020220317122530Y8  4P0P  00002100000000871500001034932Y8    CLYCL   002800510028
