BI00B32B6    W72022         202204291801W003930              IVSSH 0.5F B             CCN000019800000019800FN00000000020220701000019800NNE   20220317153110B6  1W    00000180000000625000000000032B6    AXARNE-M000000000000AW224004
BI00B32B6    W72022         202204291801W003940              IVSSH 0.5F W             CCN000019800000019800FN00000000020220701000019800NNE   20220317153110B6  1W    00000180000000625000000000032B6    AXARNE-M000000000000AW224015
BI00B32B6    W72022         202204291801W003941              IVSSH 0.5F GY            CCN000012600000012600FN00000000020220701000012600NNE   20220317153110B6  1W    00000180000000625000000000032B6    AXARNE-M000000000000AW224008
BI00B32B6    W72022         202204291801W003950              IVSSH 0.5F R             CCN000010800000010800FN00000000020220701000010800NNE   20220317153110B6  1W    00000180000000625000000000032B6    AXARNE-M000000000000AW224012
BI00B32B6    W72022         202204291801W003952              IVSSH 0.5F P             CCN000005400000005400FN00000000020220701000005400NNE   20220317153110B6  1W    00000180000000625000000000032B6    AXARNE-M000000000000AW224011
BI00B32B6    W72022         202204291801W00395U              IVSSH 0.5F BE            CCN000016200000016200FN00000000020220701000016200NNE   20220317153110B6  1W    00000180000000625000000000032B6    AXARNE-M000000000000AW224005
BI00B32B6    W72022         202204291801W003960              IVSSH 0.5F G             CCN000012600000012600FN00000000020220701000012600NNE   20220317153110B6  1W    00000180000000625000000000032B6    AXARNE-M000000000000AW224007
BI00B32B6    W72022         202204291801W003961              IVSSH 0.5F LG            CCN000010800000010800FN00000000020220701000010800NNE   20220317153110B6  1W    00000180000000625000000000032B6    AXARNE-M000000000000AW224010
BI00B32B6    W72022         202204291801W003970              IVSSH 0.5F Y             CCN000009000000009000FN00000000020220701000009000NNE   20220317153110B6  1W    00000180000000625000000000032B6    AXARNE-M000000000000AW224016
BI00B32B6    W72022         202204291801W003980              IVSSH 0.5F BR            CCN000012600000012600FN00000000020220701000012600NNE   20220317153110B6  1W    00000180000000625000000000032B6    AXARNE-M000000000000AW224006
BI00B32B6    W72022         202204291801W003990              IVSSH 0.5F L             CCN000018000000018000FN00000000020220701000018000NNE   20220317153110B6  1W    00000180000000625000000000032B6    AXARNE-M000000000000AW224009
BI00B32B6    W72022         202204291801W003991              IVSSH 0.5F SB            CCN000010800000010800FN00000000020220701000010800NNE   20220317153110B6  1W    00000180000000625000000000032B6    AXARNE-M000000000000AW224013
BI00B32B6    W72022         202204291801W003992              IVSSH 0.5F V             CCN000010800000010800FN00000000020220701000010800NNE   20220317153110B6  1W    00000180000000625000000000032B6    AXARNE-M000000000000AW224014
BI00B32B6    W72022         202204291801W004030              IVSSH 0.75F B            CCN000001300000001300FN00000000020220701000001300NNE   20220317153110B6  1W    00000130000000882000000000032B6    AXARNE-M000000000000AW224017
BI00B32B6    W72022         202204291801W004040              IVSSH 0.75F W            CCN000001300000001300FN00000000020220701000001300NNE   20220317153110B6  1W    00000130000000882000000000032B6    AXARNE-M000000000000AW224021
BI00B32B6    W72022         202204291801W00405U              IVSSH 0.75F BE           CCN000002600000002600FN00000000020220701000002600NNE   20220317153110B6  1W    00000130000000882000000000032B6    AXARNE-M000000000000AW224018
BI00B32B6    W72022         202204291801W004060              IVSSH 0.75F G            CCN000002600000002600FN00000000020220701000002600NNE   20220317153110B6  1W    00000130000000882000000000032B6    AXARNE-M000000000000AW224019
BI00B32B6    W72022         202204291801W004061              IVSSH 0.75F LG           CCN000001300000001300FN00000000020220701000001300NNE   20220317153110B6  1W    00000130000000882000000000032B6    AXARNE-M000000000000AW224020
BI00B32B6    @W72022        20220429181B09039H7              CAVSAS 0.5X1 GY/W        CCN000004800000004800FN00000000020220701000004800NNE   20220317153109B6  1W    00000040000002263300000000032B6    AXARNE-M000000000000AW224003
BI00B32DE    TT205D         2022042818000004540              AV 8 W                   CCN000001800000001800FN00000000020220501000001800NNE   20220317125458    1W    00000010000010466200000000032DE    TVYEV-TV000000000000VV224006
BI00B32DE    @TT205D        20220428181AD2002ZZ              CIVUSAS-S 0.35X2 B       CCN000004050000004050FN00000000020220501000004050NNE   20220317125457    1W    00000045000001713700000000032DE    TVYEV-TV000000000000VV224003
BI00B32DE    @TT205D        20220428181AD2003ZZ              CIVUSAS-S 0.35X3 B       CCN000003500000003500FN00000000020220501000003500NNE   20220317125457    1W    00000035000002172100000000032DE    TVYEV-TV000000000000VV224004
BI00B32DE    @TT205D        20220428181AD2004ZZ              CIVUSAS-S 0.35X4 B       CCN000002100000002100FN00000000020220501000002100NNE   20220317125457    1W    00000030000002799900000000032DE    TVYEV-TV000000000000VV224005
BI00B32D1    DFTW2224       2022042118000004534              AV 8 B/W                 CCN000003700000003700FN00000000020220601000003700NNE   20220317161947    1W    00000010000010466200000000032D1    TOYOT-K 000000000000KO124051
BI00B32D1    DFTW2224       2022042118000004535              AV 8 B/R                 CCN000003000000003000FN00000000020220601000003000NNE   20220317161947    1W    00000010000010466200000000032D1    TOYOT-K 000000000000KO124050
BI00B32D1    DFTW2224       2022042118000004540              AV 8 W                   CCN000005700000005700FN00000000020220601000005700NNE   20220317161947    1W    00000010000010466200000000032D1    TOYOT-K 000000000000KO124053
BI00B32D1    DFTW2224       2022042118000004543              AV 8 W/B                 CCN000005700000005700FN00000000020220601000005700NNE   20220317161947    1W    00000010000010466200000000032D1    TOYOT-K 000000000000KO124054
BI00B32D1    DFTW2224       2022042118000004550              AV 8 R                   CCN000000300000000300FN00000000020220601000000300NNE   20220317161947    1W    00000010000010466200000000032D1    TOYOT-K 000000000000KO124052
BI00B32D1    @DFTW2224      20220421181AD2002ZZ              CIVUSAS-S 0.35X2 B       CCN000006750000006750FN00000000020220601000006750NNE   20220317161945    1W    00000045000001713700000000032D1    TOYOT-K 000000000000KO124023
BI00B32D1    @DFTW2224      20220421181AD2003ZZ              CIVUSAS-S 0.35X3 B       CCN000002450000002450FN00000000020220601000002450NNE   20220317161945    1W    00000035000002172100000000032D1    TOYOT-K 000000000000KO124024
BI00B32D1    @DFTW2224      20220421181AD2004ZZ              CIVUSAS-S 0.35X4 B       CCN000010800000010800FN00000000020220601000010800NNE   20220317161945    1W    00000030000002799900000000032D1    TOYOT-K 000000000000KO124025
BI00B32D1    @DFTW2224      20220421181E48031ZZ              CAVSAS-S 0.3X2 GY        CCN000002450000002450FN00000000020220601000002450NNE   20220317161945    1W    00000035000002008700000000032D1    TOYOT-K 000000000000KO124026
BI00B32D1    @DFTW2224      20220421181E48037ZZ              CAVSAS-S 0.3X4 GY        CCN000005250000005250FN00000000020220601000005250NNE   20220317161945    1W    00000025000003262000000000032D1    TOYOT-K 000000000000KO124028
BI00B32D1    @DFTW2224      20220421181E48041ZZ              CAVSAS-S 0.3X2 GY/R      CCN000004200000004200FN00000000020220601000004200NNE   20220317161945    1W    00000035000002008700000000032D1    TOYOT-K 000000000000KO124027
BI00B32D1    @DFTW2224      20220421181E50002ZZ              AVSSCS-S 0.3FX2 DGY/G    CCN000006300000006300FN00000000020220601000006300NNE   20220317161945    1W    00000035000002165000000000032D1    TOYOT-K 000000000000KO124034
BI00B32D1    @DFTW2224      20220421181E50004ZZ              AVSSCS-S 0.5FX1 DGY      CCN000006000000006000FN00000000020220601000006000NNE   20220317161945    1W    00000040000001909700000000032D1    TOYOT-K 000000000000KO124029
BI00B32D1    @DFTW2224      20220421181E50005ZZ              AVSSCS-S 0.5FX1 DGY/W    CCN000002000000002000FN00000000020220601000002000NNE   20220317161945    1W    00000040000001909700000000032D1    TOYOT-K 000000000000KO124032
BI00B32D1    @DFTW2224      20220421181E50007ZZ              AVSSCS-S 0.5FX1 DGY/L    CCN000003200000003200FN00000000020220601000003200NNE   20220317161945    1W    00000040000001909700000000032D1    TOYOT-K 000000000000KO124030
BI00B32D1    @DFTW2224      20220421181E50014ZZ              AVSSCS-S 0.5FX1 DGY/R    CCN000000400000000400FN00000000020220601000000400NNE   20220317161945    1W    00000040000001909700000000032D1    TOYOT-K 000000000000KO124031
BI00B32D1    @DFTW2224      20220421181E50020ZZ              AVSSCS-S 0.3FX2 DGY/R    CCN000003850000003850FN00000000020220601000003850NNE   20220317161945    1W    00000035000002165000000000032D1    TOYOT-K 000000000000KO124036
BI00B32D1    @DFTW2224      20220421181E50021ZZ              AVSSCS-S 0.3FX2 DGY/P    CCN000004200000004200FN00000000020220601000004200NNE   20220317161945    1W    00000035000002165000000000032D1    TOYOT-K 000000000000KO124035
BI00B32D1    @DFTW2224      20220421181E50036ZZ              AVSSCS-S 0.3FX2 DGY      CCN000004200000004200FN00000000020220601000004200NNE   20220317161945    1W    00000035000002165000000000032D1    TOYOT-K 000000000000KO124033
BI00A32H8    2203BKMW       20220318180D0204030              AVSSH 0.75F B            CCN000006000000006000FN00000000020220301000006000NNE   20220317132610    1W    00000100000000934000000000032H8    TYTYC   000000000000LE223001
BI00A32H8    2203BKMW       20220318180D0204043              AVSSH 0.75F W/B          CCN000010000000010000FN00000000020220301000010000NNE   20220317132610    1W    00000100000000934000000000032H8    TYTYC   000000000000LE223002
BI00B32H8    2204AKMW       20220401180D0204030              AVSSH 0.75F B            CCN000001000000001000FN00000000020220401000001000NNE   20220317132638    1W    00000100000000934000000000032H8    TYTYC   000000000000LF323001
BI00B32H8    2204AKMW       20220401180D0204043              AVSSH 0.75F W/B          CCN000001000000001000FN00000000020220401000001000NNE   20220317132638    1W    00000100000000934000000000032H8    TYTYC   000000000000LF323002
BI00B32N1    NST2117B       20220407180D0203950              AVSSH 0.5F R             CCN000006000000006000FN00000000020220301000006000NNE   20220317110320    1W    00000150000000689000000000032N1    TAYIPL  000000000000XP223002
BI00B32N1    NST2117B       20220407180D0203990              AVSSH 0.5F L             CCN000004500000004500FN00000000020220301000004500NNE   20220317110320    1W    00000150000000689000000000032N1    TAYIPL  000000000000XP223001
BI00B32N1    @NST2117B      20220407181D6910239              AVSSHCS 0.5FX2 B/L       CCN000008400000008400FN00000000020220301000008400NNE   20220317110319    1W    00000030000002385000000000032N1    TAYIPL  000000000000XP423001
BI00B32P8    TAPAW-1124     20220323180D0204170              AVSSH 1.25F Y            CCN000000800000000800FN00000000020211201000000800NNM24 20220317093354    1W    00000080000001458000000000032P8    YIYTM   000000000000YM21B136
BI00B32U5    DW2022         202204291801W003990              IVSSH 0.5F L             CCN000037800000037800FN00000000020220701000037800NNE   20220317152345U5  1W    00000180000000625000000000032U5    ASAMSD  000000000000AM224011
BI00B32U5    DW2022         202204291801W004040              IVSSH 0.75F W            CCN000002600000002600FN00000000020220701000002600NNE   20220317152345U5  1W    00000130000000882000000000032U5    ASAMSD  000000000000AM224014
BI00B32U5    DW2022         202204291801W004050              IVSSH 0.75F R            CCN000003900000003900FN00000000020220701000003900NNE   20220317152345U5  1W    00000130000000882000000000032U5    ASAMSD  000000000000AM224013
BI00B32U5    DW2022         202204291801W004052              IVSSH 0.75F P            CCN000002600000002600FN00000000020220701000002600NNE   20220317152345U5  1W    00000130000000882000000000032U5    ASAMSD  000000000000AM224012
BI00B32U5    DW2022         202204291801W006940              IVSSH 0.35F W            CCN000075000000075000FN00000000020220701000075000NNE   20220317152345U5  1W    00000250000000452000000000032U5    ASAMSD  000000000000AM224019
BI00B32U5    DW2022         202204291801W006952              IVSSH 0.35F P            CCN000047500000047500FN00000000020220701000047500NNE   20220317152345U5  1W    00000250000000452000000000032U5    ASAMSD  000000000000AM224017
BI00B32U5    DW2022         202204291801W006980              IVSSH 0.35F BR           CCN000005000000005000FN00000000020220701000005000NNE   20220317152345U5  1W    00000250000000452000000000032U5    ASAMSD  000000000000AM224015
BI00B32U5    DW2022         202204291801W006990              IVSSH 0.35F L            CCN000105000000105000FN00000000020220701000105000NNE   20220317152345U5  1W    00000250000000452000000000032U5    ASAMSD  000000000000AM224016
BI00B32U5    DW2022         202204291801W006992              IVSSH 0.35F V            CCN000017500000017500FN00000000020220701000017500NNE   20220317152345U5  1W    00000250000000452000000000032U5    ASAMSD  000000000000AM224018
BI00B32U5    @DW2022        20220429181E48011ZZ              CAVSAS-S 0.3X1 GY/W      CCN000002500000002500FN00000000020220701000002500NNE   20220317152344U5  1W    00000050000001529500000000032U5    ASAMSD  000000000000AM224010
BI00B32W2    @HN2204DWMW    20220329181B32116Z5              AVSSCS 0.3FX2 DGY/L      CCN000001050000001050FN00000000020220401000001050NNE   20220317160121    1W    00000035000002276000000000032W2    HNHNY   000000000000HK323001
BI00A32W2    HN2203CWMW     2022032118000004550              AV 8 R                   CCN000002700000002700FN00000000020220301000002700NNE   20220317142634    1W    00000010000010466200000000032W2    HNHNY   000000000000HG223001
BI00A32W2    HN2203CWMW     2022032118000004540              AV 8 W                   CCN000000800000000800FN00000000020220301000000800NNE   20220317142634    1W    00000010000010466200000000032W2    HNHNY   000000000000HG223002
BI00B32W4    4500190926     2022042618018403952              CAVS 0.5 P               CCN000003000000003000FN00000000020220401000003000NNE   20220317130743W41 1W    00000150000000677000000000032W41   HJYHK-J 000000000000OV224003
BI00B32W4    4500190926     2022042618018403980              CAVS 0.5 BR              CCN000001500000001500FN00000000020220401000001500NNE   20220317130743W41 1W    00000150000000677000000000032W41   HJYHK-J 000000000000OV224001
BI00B32W4    4500190926     2022042618018403990              CAVS 0.5 L               CCN000003000000003000FN00000000020220401000003000NNE   20220317130743W41 1W    00000150000000677000000000032W41   HJYHK-J 000000000000OV224002
BI00B32W4    4500190926     2022042618018403992              CAVS 0.5 V               CCN000003000000003000FN00000000020220401000003000NNE   20220317130743W41 1W    00000150000000677000000000032W41   HJYHK-J 000000000000OV224004
BI00B32W4    4500190926     2022042618018404040              CAVS 0.85 W              CCN000002000000002000FN00000000020220401000002000NNE   20220317130743W41 1W    00000100000000965000000000032W41   HJYHK-J 000000000000OV224010
BI00B32W4    4500190926     2022042618018404041              CAVS 0.85 GY             CCN000004000000004000FN00000000020220401000004000NNE   20220317130743W41 1W    00000100000000965000000000032W41   HJYHK-J 000000000000OV224007
BI00B32W4    4500190926     2022042618018404050              CAVS 0.85 R              CCN000002000000002000FN00000000020220401000002000NNE   20220317130743W41 1W    00000100000000965000000000032W41   HJYHK-J 000000000000OV224009
BI00B32W4    4500190926     2022042618018404051              CAVS 0.85 O              CCN000002000000002000FN00000000020220401000002000NNE   20220317130743W41 1W    00000100000000965000000000032W41   HJYHK-J 000000000000OV224008
BI00B32W4    4500190926     2022042618018404060              CAVS 0.85 G              CCN000001000000001000FN00000000020220401000001000NNE   20220317130743W41 1W    00000100000000965000000000032W41   HJYHK-J 000000000000OV224006
BI00B32W4    4500190926     2022042618018404070              CAVS 0.85 Y              CCN000001000000001000FN00000000020220401000001000NNE   20220317130743W41 1W    00000100000000965000000000032W41   HJYHK-J 000000000000OV224011
BI00B32W4    4500190926     2022042618018404080              CAVS 0.85 BR             CCN000002000000002000FN00000000020220401000002000NNE   20220317130743W41 1W    00000100000000965000000000032W41   HJYHK-J 000000000000OV224005
BI00B32W4    4500190930     2022042618018403952              CAVS 0.5 P               CCN000001500000001500FN00000000020220401000001500NNE   20220317130744W41 1W    00000150000000677000000000032W41   HJYHK-J 000000000000OU224002
BI00B32W4    4500190930     2022042618018403980              CAVS 0.5 BR              CCN000001500000001500FN00000000020220401000001500NNE   20220317130744W41 1W    00000150000000677000000000032W41   HJYHK-J 000000000000OU224001
BI00B32W4    @4500190963    20220412181E50002ZZ              AVSSCS-S 0.3FX2 DGY/G    CCN000002450000002450FN00000000020220401000002450NNE   20220317130742W4591W    00000035000002165000000000032W459  HJYHK-J 000000000000OO523001
BI00B32W4    4500191026     2022041218009603930              AVS 0.5 B                CCN000002000000002000FN00000000020220401000002000NNE   20220317130745W42 1W    00000100000000850000000000032W42   HJYHK-J 000000000000ON523002
BI00B32W4    4500191026     2022041218009603940              AVS 0.5 W                CCN000001000000001000FN00000000020220401000001000NNE   20220317130745W42 1W    00000100000000850000000000032W42   HJYHK-J 000000000000ON523003
BI00B32W4    4500191026     2022041218009604030              AVS 0.85 B               CCN000005000000005000FN00000000020220401000005000NNE   20220317130745W42 1W    00000100000001167700000000032W42   HJYHK-J 000000000000ON523004
BI00B32W4    4500191026     2022041218009604090              AVS 0.85 L               CCN000002000000002000FN00000000020220401000002000NNE   20220317130745W42 1W    00000100000001167700000000032W42   HJYHK-J 000000000000ON523005
BI00B32W4    4500191026     2022041218009604094              AVS 0.85 L/W             CCN000002000000002000FN00000000020220401000002000NNE   20220317130745W42 1W    00000100000001167700000000032W42   HJYHK-J 000000000000ON523006
BI00B32W4    4500191026     2022041218009604052              AVS 0.85 P               CCN000001000000001000FN00000000020220401000001000NNE   20220317130745W42 1W    00000100000001167700000000032W42   HJYHK-J 000000000000ON523007
BI00B32W4    4500191026     2022041218009604050              AVS 0.85 R               CCN000002000000002000FN00000000020220401000002000NNE   20220317130745W42 1W    00000100000001167700000000032W42   HJYHK-J 000000000000ON523008
BI00B32W4    4500191026     2022041218009604040              AVS 0.85 W               CCN000002000000002000FN00000000020220401000002000NNE   20220317130745W42 1W    00000100000001167700000000032W42   HJYHK-J 000000000000ON523009
BI00B32W4    4500191026     2022041218009604130              AVS 1.25 B               CCN000002400000002400FN00000000020220401000002400NNE   20220317130745W42 1W    00000080000001643000000000032W42   HJYHK-J 000000000000ON523010
BI00B32W4    4500191026     2022041218009604230              AVS 2 B                  CCN000001500000001500FN00000000020220401000001500NNE   20220317130745W42 1W    00000050000002456500000000032W42   HJYHK-J 000000000000ON523011
BI00B32W4    4500191026     2022041218009604250              AVS 2 R                  CCN000001500000001500FN00000000020220401000001500NNE   20220317130745W42 1W    00000050000002456500000000032W42   HJYHK-J 000000000000ON523012
BI00B32W4    4500191026     2022041218009604330              AVS 3 B                  CCN000002000000002000FN00000000020220401000002000NNE   20220317130745W42 1W    00000040000003831600000000032W42   HJYHK-J 000000000000ON523013
BI00B32W4    4500191026     2022041218007704230              AVSS 2F B                CCN000002500000002500FN00000000020220401000002500NNE   20220317130745W42 1W    00000050000002126400000000032W42   HJYHK-J 000000000000ON523001
BI00B32W4    4500191026     2022041218018403930              CAVS 0.5 B               CCN000007500000007500FN00000000020220401000007500NNE   20220317130745W42 1W    00000150000000677000000000032W42   HJYHK-J 000000000000ON523014
BI00B32W4    4500191026     2022041218018403935              CAVS 0.5 B/R             CCN000001500000001500FN00000000020220401000001500NNE   20220317130745W42 1W    00000150000000677000000000032W42   HJYHK-J 000000000000ON523015
BI00B32W4    4500191026     2022041218018403934              CAVS 0.5 B/W             CCN000007500000007500FN00000000020220401000007500NNE   20220317130745W42 1W    00000150000000677000000000032W42   HJYHK-J 000000000000ON523016
BI00B32W4    4500191026     2022041218018403980              CAVS 0.5 BR              CCN000001500000001500FN00000000020220401000001500NNE   20220317130745W42 1W    00000150000000677000000000032W42   HJYHK-J 000000000000ON523017
BI00B32W4    4500191026     2022041218018403984              CAVS 0.5 BR/W            CCN000001500000001500FN00000000020220401000001500NNE   20220317130745W42 1W    00000150000000677000000000032W42   HJYHK-J 000000000000ON523018
BI00B32W4    4500191026     2022041218018403960              CAVS 0.5 G               CCN000004500000004500FN00000000020220401000004500NNE   20220317130745W42 1W    00000150000000677000000000032W42   HJYHK-J 000000000000ON523019
BI00B32W4    4500191026     2022041218018403965              CAVS 0.5 G/R             CCN000001500000001500FN00000000020220401000001500NNE   20220317130745W42 1W    00000150000000677000000000032W42   HJYHK-J 000000000000ON523020
BI00B32W4    4500191026     2022041218018403964              CAVS 0.5 G/W             CCN000003000000003000FN00000000020220401000003000NNE   20220317130745W42 1W    00000150000000677000000000032W42   HJYHK-J 000000000000ON523021
BI00B32W4    4500191026     2022041218018403990              CAVS 0.5 L               CCN000004500000004500FN00000000020220401000004500NNE   20220317130745W42 1W    00000150000000677000000000032W42   HJYHK-J 000000000000ON523022
BI00B32W4    4500191026     2022041218018403995              CAVS 0.5 L/R             CCN000003000000003000FN00000000020220401000003000NNE   20220317130745W42 1W    00000150000000677000000000032W42   HJYHK-J 000000000000ON523023
BI00B32W4    4500191026     2022041218018403994              CAVS 0.5 L/W             CCN000001500000001500FN00000000020220401000001500NNE   20220317130745W42 1W    00000150000000677000000000032W42   HJYHK-J 000000000000ON523024
BI00B32W4    4500191026     2022041218018403961              CAVS 0.5 LG              CCN000001500000001500FN00000000020220401000001500NNE   20220317130745W42 1W    00000150000000677000000000032W42   HJYHK-J 000000000000ON523025
BI00B32W4    4500191026     2022041218018403951              CAVS 0.5 O               CCN000003000000003000FN00000000020220401000003000NNE   20220317130745W42 1W    00000150000000677000000000032W42   HJYHK-J 000000000000ON523026
BI00B32W4    4500191026     2022041218018403952              CAVS 0.5 P               CCN000003000000003000FN00000000020220401000003000NNE   20220317130745W42 1W    00000150000000677000000000032W42   HJYHK-J 000000000000ON523027
BI00B32W4    4500191026     2022041218018403950              CAVS 0.5 R               CCN000004500000004500FN00000000020220401000004500NNE   20220317130745W42 1W    00000150000000677000000000032W42   HJYHK-J 000000000000ON523028
BI00B32W4    4500191026     2022041218018403954              CAVS 0.5 R/W             CCN000004500000004500FN00000000020220401000004500NNE   20220317130745W42 1W    00000150000000677000000000032W42   HJYHK-J 000000000000ON523029
BI00B32W4    4500191026     2022041218018403957              CAVS 0.5 R/Y             CCN000001500000001500FN00000000020220401000001500NNE   20220317130745W42 1W    00000150000000677000000000032W42   HJYHK-J 000000000000ON523030
BI00B32W4    4500191026     2022041218018403940              CAVS 0.5 W               CCN000004500000004500FN00000000020220401000004500NNE   20220317130745W42 1W    00000150000000677000000000032W42   HJYHK-J 000000000000ON523031
BI00B32W4    4500191026     2022041218018403943              CAVS 0.5 W/B             CCN000003000000003000FN00000000020220401000003000NNE   20220317130745W42 1W    00000150000000677000000000032W42   HJYHK-J 000000000000ON523032
BI00B32W4    4500191026     2022041218018403970              CAVS 0.5 Y               CCN000006000000006000FN00000000020220401000006000NNE   20220317130745W42 1W    00000150000000677000000000032W42   HJYHK-J 000000000000ON523033
BI00B32W4    4500191026     2022041218018403975              CAVS 0.5 Y/R             CCN000003000000003000FN00000000020220401000003000NNE   20220317130745W42 1W    00000150000000677000000000032W42   HJYHK-J 000000000000ON523034
BI00B32W4    4500191026     2022041218018404030              CAVS 0.85 B              CCN000001000000001000FN00000000020220401000001000NNE   20220317130745W42 1W    00000100000000965000000000032W42   HJYHK-J 000000000000ON523035
BI00B32W4    4500191026     2022041218018404130              CAVS 1.25 B              CCN000006400000006400FN00000000020220401000006400NNE   20220317130745W42 1W    00000080000001378000000000032W42   HJYHK-J 000000000000ON523036
BI00B32W4    4500191026     2022041218018404190              CAVS 1.25 L              CCN000002400000002400FN00000000020220401000002400NNE   20220317130745W42 1W    00000080000001378000000000032W42   HJYHK-J 000000000000ON523037
BI00B32W4    4500191026     2022041218018404150              CAVS 1.25 R              CCN000002400000002400FN00000000020220401000002400NNE   20220317130745W42 1W    00000080000001378000000000032W42   HJYHK-J 000000000000ON523038
BI00B32W4    4500191026     2022041218018404140              CAVS 1.25 W              CCN000001600000001600FN00000000020220401000001600NNE   20220317130745W42 1W    00000080000001378000000000032W42   HJYHK-J 000000000000ON523039
BI00B32W9    4500190914     2022032918007704280              AVSS 2F BR               CCN000000500000000500FN00000000020220301000000500NNE   20220317130409W93 1W    00000050000002126400000000032W93   HKYHK   000000000000ZH323001
BI00B32X5    TWB2022        202204291801W003943              IVSSH 0.5F W/B           CCN000005400000005400FN00000000020220701000005400NNE   20220317154502X5  1W    00000180000000625000000000032X5    EPYNA-E 000000000000AE224009
BI00B32X5    TWB2022        202204291801W006930              IVSSH 0.35F B            CCN000062500000062500FN00000000020220701000062500NNE   20220317154502X5  1W    00000250000000452000000000032X5    EPYNA-E 000000000000AE224010
BI00B32X5    TWB2022        202204291801W006940              IVSSH 0.35F W            CCN000025000000025000FN00000000020220701000025000NNE   20220317154502X5  1W    00000250000000452000000000032X5    EPYNA-E 000000000000AE224015
BI00B32X5    TWB2022        202204291801W006943              IVSSH 0.35F W/B          CCN000017500000017500FN00000000020220701000017500NNE   20220317154502X5  1W    00000250000000452000000000032X5    EPYNA-E 000000000000AE224016
BI00B32X5    TWB2022        202204291801W006950              IVSSH 0.35F R            CCN000025000000025000FN00000000020220701000025000NNE   20220317154502X5  1W    00000250000000452000000000032X5    EPYNA-E 000000000000AE224013
BI00B32X5    TWB2022        202204291801W006952              IVSSH 0.35F P            CCN000027500000027500FN00000000020220701000027500NNE   20220317154502X5  1W    00000250000000452000000000032X5    EPYNA-E 000000000000AE224012
BI00B32X5    TWB2022        202204291801W006990              IVSSH 0.35F L            CCN000050000000050000FN00000000020220701000050000NNE   20220317154502X5  1W    00000250000000452000000000032X5    EPYNA-E 000000000000AE224011
BI00B32X5    TWB2022        202204291801W006992              IVSSH 0.35F V            CCN000025000000025000FN00000000020220701000025000NNE   20220317154502X5  1W    00000250000000452000000000032X5    EPYNA-E 000000000000AE224014
