BI00B32CH    SJ22064 MW     2022060218007703941              AVSS 0.5F GY             CCN000001500000001500FN00000000020220601000001500NNM   20220406170155    1W    00000150000000674000000000032CH    SJSAMIJF000000000000QX325006
BI00B32CH    @SJ22062 MW    20220512181E50011ZZ              AVSSCS-S 0.5FX2 DGY/Y    CCN000001800000001800FN00000000020220601000001800NNM   20220406170155    1W    00000030000003096000000000032CH    SJSAMIJF000000000000QX125001
BI00B32CH    @SJ22063 MW    20220519181E50011ZZ              AVSSCS-S 0.5FX2 DGY/Y    CCN000003900000003900FN00000000020220601000003900NNM   20220406170155    1W    00000030000003096000000000032CH    SJSAMIJF000000000000QX225001
BI00B32CH    @SJ22064 MW    20220526181E50011ZZ              AVSSCS-S 0.5FX2 DGY/Y    CCN000003000000003000FN00000000020220601000003000NNM   20220406170155    1W    00000030000003096000000000032CH    SJSAMIJF000000000000QX325001
BI00B32CH    @SJ22064 MW    20220526181F21009ZZ              AVSSHCS-S 0.5FX2 B       CCN000004800000004800FN00000000020220601000004800NNM   20220406170155    1W    00000030000002531400000000032CH    SJSAMIJF000000000000QX325002
BI00B32CH    @SJ22062DMW    20220519181B32037Z5              AVSSCS 0.3FX1 DGY/L      CCN000002500000002500FN00000000020220601000002500NNM   20220406170155    1W    00000050000001780000000000032CH    SJSAMIJF000000000000QY125001
BI00B32CH    @SJ22063DMW    20220526181B32037Z5              AVSSCS 0.3FX1 DGY/L      CCN000004000000004000FN00000000020220601000004000NNM   20220406170155    1W    00000050000001780000000000032CH    SJSAMIJF000000000000QY225001
BI00B32CH    @SJ22064DMW    20220602181B32037Z5              AVSSCS 0.3FX1 DGY/L      CCN000002500000002500FN00000000020220601000002500NNM   20220406170155    1W    00000050000001780000000000032CH    SJSAMIJF000000000000QY325001
BI00B32CH    @SJ22064MMW    20220602181E48022ZZ              CAVSAS-S 0.5X2 GY        CCN000001500000001500FN00000000020220601000001500NNM   20220406170155    1W    00000030000002561000000000032CH    SJSAMIJF000000000000QS325001
BI00B32CH    @SJ22063MMW    20220526181E48062ZZ              CAVSAS-S 0.5X2 GY/BR     CCN000000900000000900FN00000000020220601000000900NNM   20220406170155    1W    00000030000002561000000000032CH    SJSAMIJF000000000000QS225001
BI00B32CH    @SJ22064MMW    20220602181E48062ZZ              CAVSAS-S 0.5X2 GY/BR     CCN000000600000000600FN00000000020220601000000600NNM   20220406170155    1W    00000030000002561000000000032CH    SJSAMIJF000000000000QS325002
BI00B32CH    @SJ22064SMW    20220602181E48011ZZ              CAVSAS-S 0.3X1 GY/W      CCN000003000000003000FN00000000020220601000003000NNM   20220406170155    1W    00000050000001529500000000032CH    SJSAMIJF000000000000QS325003
BI00B32DE    TT2061         2022051218000004530              AV 8 B                   CCN000007200000007200FN00000000020220601000007200NNM   20220406170155    1W    00000010000010466200000000032DE    TVYEV-TV000000000000VT424045
BI00B32DE    TT2062         2022051918000004530              AV 8 B                   CCN000019800000019800FN00000000020220601000019800NNM   20220406170155    1W    00000010000010466200000000032DE    TVYEV-TV000000000000VT125084
BI00B32DE    TT2063         2022052618000004530              AV 8 B                   CCN000016200000016200FN00000000020220601000016200NNM   20220406170155    1W    00000010000010466200000000032DE    TVYEV-TV000000000000VT225097
BI00B32DE    TT2064         2022060218000004530              AV 8 B                   CCN000014400000014400FN00000000020220601000014400NNM   20220406170155    1W    00000010000010466200000000032DE    TVYEV-TV000000000000VT325100
BI00B32DE    TT2061         2022051218000004540              AV 8 W                   CCN000001800000001800FN00000000020220601000001800NNM   20220406170155    1W    00000010000010466200000000032DE    TVYEV-TV000000000000VT424046
BI00B32DE    TT2062         2022051918000004540              AV 8 W                   CCN000007200000007200FN00000000020220601000007200NNM   20220406170155    1W    00000010000010466200000000032DE    TVYEV-TV000000000000VT125085
BI00B32DE    TT2063         2022052618000004540              AV 8 W                   CCN000005400000005400FN00000000020220601000005400NNM   20220406170155    1W    00000010000010466200000000032DE    TVYEV-TV000000000000VT225098
BI00B32DE    TT2064         2022060218000004540              AV 8 W                   CCN000005400000005400FN00000000020220601000005400NNM   20220406170155    1W    00000010000010466200000000032DE    TVYEV-TV000000000000VT325101
BI00B32DE    TT2064         2022060218007703760              AVSS 0.3F G              CCN000002000000002000FN00000000020220601000002000NNM   20220406170155    1W    00000200000000496000000000032DE    TVYEV-TV000000000000VT325102
BI00B32DE    TT2062         2022051918007703741              AVSS 0.3F GY             CCN000002000000002000FN00000000020220601000002000NNM   20220406170155    1W    00000200000000496000000000032DE    TVYEV-TV000000000000VT125086
BI00B32DE    TT2063         2022052618007703741              AVSS 0.3F GY             CCN000002000000002000FN00000000020220601000002000NNM   20220406170155    1W    00000200000000496000000000032DE    TVYEV-TV000000000000VT225099
BI00B32DE    TT2064         2022060218007703741              AVSS 0.3F GY             CCN000002000000002000FN00000000020220601000002000NNM   20220406170155    1W    00000200000000496000000000032DE    TVYEV-TV000000000000VT325103
BI00B32DE    TT2063         2022052618007703750              AVSS 0.3F R              CCN000004000000004000FN00000000020220601000004000NNM   20220406170155    1W    00000200000000496000000000032DE    TVYEV-TV000000000000VT225100
BI00B32DE    TT2064         2022060218007703750              AVSS 0.3F R              CCN000002000000002000FN00000000020220601000002000NNM   20220406170155    1W    00000200000000496000000000032DE    TVYEV-TV000000000000VT325104
BI00B32DE    TT2061         2022051218007703960              AVSS 0.5F G              CCN000003000000003000FN00000000020220601000003000NNM   20220406170155    1W    00000150000000674000000000032DE    TVYEV-TV000000000000VT424047
BI00B32DE    TT2062         2022051918007703960              AVSS 0.5F G              CCN000006000000006000FN00000000020220601000006000NNM   20220406170155    1W    00000150000000674000000000032DE    TVYEV-TV000000000000VT125087
BI00B32DE    TT2063         2022052618007703960              AVSS 0.5F G              CCN000004500000004500FN00000000020220601000004500NNM   20220406170155    1W    00000150000000674000000000032DE    TVYEV-TV000000000000VT225101
BI00B32DE    TT2064         2022060218007703960              AVSS 0.5F G              CCN000004500000004500FN00000000020220601000004500NNM   20220406170155    1W    00000150000000674000000000032DE    TVYEV-TV000000000000VT325105
BI00B32DE    TT2061         2022051218007703941              AVSS 0.5F GY             CCN000003000000003000FN00000000020220601000003000NNM   20220406170155    1W    00000150000000674000000000032DE    TVYEV-TV000000000000VT424048
BI00B32DE    TT2062         2022051918007703941              AVSS 0.5F GY             CCN000004500000004500FN00000000020220601000004500NNM   20220406170155    1W    00000150000000674000000000032DE    TVYEV-TV000000000000VT125088
BI00B32DE    TT2063         2022052618007703941              AVSS 0.5F GY             CCN000001500000001500FN00000000020220601000001500NNM   20220406170155    1W    00000150000000674000000000032DE    TVYEV-TV000000000000VT225102
BI00B32DE    TT2064         2022060218007703941              AVSS 0.5F GY             CCN000004500000004500FN00000000020220601000004500NNM   20220406170155    1W    00000150000000674000000000032DE    TVYEV-TV000000000000VT325106
BI00B32DE    TT2061         2022051218007703990              AVSS 0.5F L              CCN000001500000001500FN00000000020220601000001500NNM   20220406170155    1W    00000150000000674000000000032DE    TVYEV-TV000000000000VT424049
BI00B32DE    TT2062         2022051918007703990              AVSS 0.5F L              CCN000003000000003000FN00000000020220601000003000NNM   20220406170155    1W    00000150000000674000000000032DE    TVYEV-TV000000000000VT125089
BI00B32DE    TT2063         2022052618007703990              AVSS 0.5F L              CCN000003000000003000FN00000000020220601000003000NNM   20220406170155    1W    00000150000000674000000000032DE    TVYEV-TV000000000000VT225103
BI00B32DE    TT2064         2022060218007703990              AVSS 0.5F L              CCN000003000000003000FN00000000020220601000003000NNM   20220406170155    1W    00000150000000674000000000032DE    TVYEV-TV000000000000VT325107
BI00B32DE    TT2064         2022060218007703952              AVSS 0.5F P              CCN000001500000001500FN00000000020220601000001500NNM   20220406170155    1W    00000150000000674000000000032DE    TVYEV-TV000000000000VT325108
BI00B32DE    TT2064         2022060218007703950              AVSS 0.5F R              CCN000001500000001500FN00000000020220601000001500NNM   20220406170155    1W    00000150000000674000000000032DE    TVYEV-TV000000000000VT325109
BI00B32DE    TT2063         2022052618007703992              AVSS 0.5F V              CCN000001500000001500FN00000000020220601000001500NNM   20220406170155    1W    00000150000000674000000000032DE    TVYEV-TV000000000000VT225104
BI00B32DE    TT2064         2022060218007703992              AVSS 0.5F V              CCN000001500000001500FN00000000020220601000001500NNM   20220406170155    1W    00000150000000674000000000032DE    TVYEV-TV000000000000VT325110
BI00B32DE    TT2061         2022051218007703940              AVSS 0.5F W              CCN000003000000003000FN00000000020220601000003000NNM   20220406170155    1W    00000150000000674000000000032DE    TVYEV-TV000000000000VT424050
BI00B32DE    TT2062         2022051918007703940              AVSS 0.5F W              CCN000004500000004500FN00000000020220601000004500NNM   20220406170155    1W    00000150000000674000000000032DE    TVYEV-TV000000000000VT125090
BI00B32DE    TT2063         2022052618007703940              AVSS 0.5F W              CCN000003000000003000FN00000000020220601000003000NNM   20220406170155    1W    00000150000000674000000000032DE    TVYEV-TV000000000000VT225105
BI00B32DE    TT2064         2022060218007703940              AVSS 0.5F W              CCN000004500000004500FN00000000020220601000004500NNM   20220406170155    1W    00000150000000674000000000032DE    TVYEV-TV000000000000VT325111
BI00B32DE    TT2063         2022052618007703945              AVSS 0.5F W/R            CCN000001500000001500FN00000000020220601000001500NNM   20220406170155    1W    00000150000000674000000000032DE    TVYEV-TV000000000000VT225106
BI00B32DE    TT2064         2022060218007703945              AVSS 0.5F W/R            CCN000001500000001500FN00000000020220601000001500NNM   20220406170155    1W    00000150000000674000000000032DE    TVYEV-TV000000000000VT325112
BI00B32DE    TT2064         2022060218007703973              AVSS 0.5F Y/B            CCN000001500000001500FN00000000020220601000001500NNM   20220406170155    1W    00000150000000674000000000032DE    TVYEV-TV000000000000VT325113
BI00B32DE    TT2062         2022051918007704180              AVSS 1.25F BR            CCN000000800000000800FN00000000020220601000000800NNM   20220406170155    1W    00000080000001389000000000032DE    TVYEV-TV000000000000VT125091
BI00B32DE    TT2063         2022052618007704180              AVSS 1.25F BR            CCN000003200000003200FN00000000020220601000003200NNM   20220406170155    1W    00000080000001389000000000032DE    TVYEV-TV000000000000VT225107
BI00B32DE    TT2064         2022060218007704180              AVSS 1.25F BR            CCN000003200000003200FN00000000020220601000003200NNM   20220406170155    1W    00000080000001389000000000032DE    TVYEV-TV000000000000VT325114
BI00B32DE    TT2063         2022052618007704160              AVSS 1.25F G             CCN000000800000000800FN00000000020220601000000800NNM   20220406170155    1W    00000080000001389000000000032DE    TVYEV-TV000000000000VT225108
BI00B32DE    TT2064         2022060218007704160              AVSS 1.25F G             CCN000002400000002400FN00000000020220601000002400NNM   20220406170155    1W    00000080000001389000000000032DE    TVYEV-TV000000000000VT325115
BI00B32DE    TT2063         2022052618007704140              AVSS 1.25F W             CCN000004800000004800FN00000000020220601000004800NNM   20220406170155    1W    00000080000001389000000000032DE    TVYEV-TV000000000000VT225109
BI00B32DE    TT2064         2022060218007704140              AVSS 1.25F W             CCN000004000000004000FN00000000020220601000004000NNM   20220406170155    1W    00000080000001389000000000032DE    TVYEV-TV000000000000VT325116
BI00B32DE    TT2063         2022052618007704143              AVSS 1.25F W/B           CCN000001600000001600FN00000000020220601000001600NNM   20220406170155    1W    00000080000001389000000000032DE    TVYEV-TV000000000000VT225110
BI00B32DE    TT2064         2022060218007704143              AVSS 1.25F W/B           CCN000000800000000800FN00000000020220601000000800NNM   20220406170155    1W    00000080000001389000000000032DE    TVYEV-TV000000000000VT325117
BI00B32DE    TT2064         20220602180D0203730              AVSSH 0.3F B             CCN000002000000002000FN00000000020220601000002000NNM   20220406170155    1W    00000200000000515000000000032DE    TVYEV-TV000000000000VT325044
BI00B32DE    TT2062         20220519180D0203735              AVSSH 0.3F B/R           CCN000002000000002000FN00000000020220601000002000NNM   20220406170155    1W    00000200000000515000000000032DE    TVYEV-TV000000000000VT125037
BI00B32DE    TT2062         20220519180D0203780              AVSSH 0.3F BR            CCN000002000000002000FN00000000020220601000002000NNM   20220406170155    1W    00000200000000515000000000032DE    TVYEV-TV000000000000VT125038
BI00B32DE    TT2063         20220526180D0203780              AVSSH 0.3F BR            CCN000002000000002000FN00000000020220601000002000NNM   20220406170155    1W    00000200000000515000000000032DE    TVYEV-TV000000000000VT225042
BI00B32DE    TT2064         20220602180D0203780              AVSSH 0.3F BR            CCN000002000000002000FN00000000020220601000002000NNM   20220406170155    1W    00000200000000515000000000032DE    TVYEV-TV000000000000VT325045
BI00B32DE    TT2061         20220512180D0203760              AVSSH 0.3F G             CCN000002000000002000FN00000000020220601000002000NNM   20220406170155    1W    00000200000000515000000000032DE    TVYEV-TV000000000000VT424021
BI00B32DE    TT2062         20220519180D0203760              AVSSH 0.3F G             CCN000002000000002000FN00000000020220601000002000NNM   20220406170155    1W    00000200000000515000000000032DE    TVYEV-TV000000000000VT125039
BI00B32DE    TT2062         20220519180D0203764              AVSSH 0.3F G/W           CCN000002000000002000FN00000000020220601000002000NNM   20220406170155    1W    00000200000000515000000000032DE    TVYEV-TV000000000000VT125040
BI00B32DE    TT2063         20220526180D0203764              AVSSH 0.3F G/W           CCN000002000000002000FN00000000020220601000002000NNM   20220406170155    1W    00000200000000515000000000032DE    TVYEV-TV000000000000VT225043
BI00B32DE    TT2064         20220602180D0203764              AVSSH 0.3F G/W           CCN000002000000002000FN00000000020220601000002000NNM   20220406170155    1W    00000200000000515000000000032DE    TVYEV-TV000000000000VT325046
BI00B32DE    TT2061         20220512180D0203790              AVSSH 0.3F L             CCN000004000000004000FN00000000020220601000004000NNM   20220406170155    1W    00000200000000515000000000032DE    TVYEV-TV000000000000VT424022
BI00B32DE    TT2062         20220519180D0203790              AVSSH 0.3F L             CCN000004000000004000FN00000000020220601000004000NNM   20220406170155    1W    00000200000000515000000000032DE    TVYEV-TV000000000000VT125041
BI00B32DE    TT2063         20220526180D0203790              AVSSH 0.3F L             CCN000002000000002000FN00000000020220601000002000NNM   20220406170155    1W    00000200000000515000000000032DE    TVYEV-TV000000000000VT225044
BI00B32DE    TT2064         20220602180D0203790              AVSSH 0.3F L             CCN000002000000002000FN00000000020220601000002000NNM   20220406170155    1W    00000200000000515000000000032DE    TVYEV-TV000000000000VT325047
BI00B32DE    TT2063         20220526180D0203793              AVSSH 0.3F L/B           CCN000002000000002000FN00000000020220601000002000NNM   20220406170155    1W    00000200000000515000000000032DE    TVYEV-TV000000000000VT225045
BI00B32DE    TT2064         20220602180D0203795              AVSSH 0.3F L/R           CCN000002000000002000FN00000000020220601000002000NNM   20220406170155    1W    00000200000000515000000000032DE    TVYEV-TV000000000000VT325048
BI00B32DE    TT2062         20220519180D0203752              AVSSH 0.3F P             CCN000002000000002000FN00000000020220601000002000NNM   20220406170155    1W    00000200000000515000000000032DE    TVYEV-TV000000000000VT125042
BI00B32DE    TT2063         20220526180D0203752              AVSSH 0.3F P             CCN000002000000002000FN00000000020220601000002000NNM   20220406170155    1W    00000200000000515000000000032DE    TVYEV-TV000000000000VT225046
BI00B32DE    TT2064         20220602180D0203750              AVSSH 0.3F R             CCN000002000000002000FN00000000020220601000002000NNM   20220406170155    1W    00000200000000515000000000032DE    TVYEV-TV000000000000VT325049
BI00B32DE    TT2064         20220602180D0203753              AVSSH 0.3F R/B           CCN000002000000002000FN00000000020220601000002000NNM   20220406170155    1W    00000200000000515000000000032DE    TVYEV-TV000000000000VT325050
BI00B32DE    TT2063         20220526180D0203757              AVSSH 0.3F R/Y           CCN000002000000002000FN00000000020220601000002000NNM   20220406170155    1W    00000200000000515000000000032DE    TVYEV-TV000000000000VT225047
BI00B32DE    TT2063         20220526180D0203792              AVSSH 0.3F V             CCN000002000000002000FN00000000020220601000002000NNM   20220406170155    1W    00000200000000515000000000032DE    TVYEV-TV000000000000VT225048
BI00B32DE    TT2061         20220512180D0203773              AVSSH 0.3F Y/B           CCN000002000000002000FN00000000020220601000002000NNM   20220406170155    1W    00000200000000515000000000032DE    TVYEV-TV000000000000VT424023
BI00B32DE    TT2063         20220526180D0203773              AVSSH 0.3F Y/B           CCN000002000000002000FN00000000020220601000002000NNM   20220406170155    1W    00000200000000515000000000032DE    TVYEV-TV000000000000VT225049
BI00B32DE    TT2064         20220602180D0203773              AVSSH 0.3F Y/B           CCN000002000000002000FN00000000020220601000002000NNM   20220406170155    1W    00000200000000515000000000032DE    TVYEV-TV000000000000VT325051
BI00B32DE    TT2061         20220512180D0203930              AVSSH 0.5F B             CCN000009000000009000FN00000000020220601000009000NNM   20220406170155    1W    00000150000000689000000000032DE    TVYEV-TV000000000000VT424024
BI00B32DE    TT2062         20220519180D0203930              AVSSH 0.5F B             CCN000019500000019500FN00000000020220601000019500NNM   20220406170155    1W    00000150000000689000000000032DE    TVYEV-TV000000000000VT125043
BI00B32DE    TT2063         20220526180D0203930              AVSSH 0.5F B             CCN000013500000013500FN00000000020220601000013500NNM   20220406170155    1W    00000150000000689000000000032DE    TVYEV-TV000000000000VT225050
BI00B32DE    TT2064         20220602180D0203930              AVSSH 0.5F B             CCN000012000000012000FN00000000020220601000012000NNM   20220406170155    1W    00000150000000689000000000032DE    TVYEV-TV000000000000VT325052
BI00B32DE    TT2062         20220519180D0203935              AVSSH 0.5F B/R           CCN000004500000004500FN00000000020220601000004500NNM   20220406170155    1W    00000150000000689000000000032DE    TVYEV-TV000000000000VT125044
BI00B32DE    TT2063         20220526180D0203935              AVSSH 0.5F B/R           CCN000004500000004500FN00000000020220601000004500NNM   20220406170155    1W    00000150000000689000000000032DE    TVYEV-TV000000000000VT225051
BI00B32DE    TT2064         20220602180D0203935              AVSSH 0.5F B/R           CCN000003000000003000FN00000000020220601000003000NNM   20220406170155    1W    00000150000000689000000000032DE    TVYEV-TV000000000000VT325053
BI00B32DE    TT2062         20220519180D0203934              AVSSH 0.5F B/W           CCN000001500000001500FN00000000020220601000001500NNM   20220406170155    1W    00000150000000689000000000032DE    TVYEV-TV000000000000VT125045
BI00B32DE    TT2063         20220526180D0203934              AVSSH 0.5F B/W           CCN000001500000001500FN00000000020220601000001500NNM   20220406170155    1W    00000150000000689000000000032DE    TVYEV-TV000000000000VT225052
BI00B32DE    TT2064         20220602180D0203934              AVSSH 0.5F B/W           CCN000001500000001500FN00000000020220601000001500NNM   20220406170155    1W    00000150000000689000000000032DE    TVYEV-TV000000000000VT325054
BI00B32DE    TT2062         20220519180D0203937              AVSSH 0.5F B/Y           CCN000001500000001500FN00000000020220601000001500NNM   20220406170155    1W    00000150000000689000000000032DE    TVYEV-TV000000000000VT125046
BI00B32DE    TT2063         20220526180D0203937              AVSSH 0.5F B/Y           CCN000001500000001500FN00000000020220601000001500NNM   20220406170155    1W    00000150000000689000000000032DE    TVYEV-TV000000000000VT225053
BI00B32DE    TT2064         20220602180D0203937              AVSSH 0.5F B/Y           CCN000001500000001500FN00000000020220601000001500NNM   20220406170155    1W    00000150000000689000000000032DE    TVYEV-TV000000000000VT325055
BI00B32DE    TT2062         20220519180D0203980              AVSSH 0.5F BR            CCN000013500000013500FN00000000020220601000013500NNM   20220406170155    1W    00000150000000689000000000032DE    TVYEV-TV000000000000VT125047
BI00B32DE    TT2063         20220526180D0203980              AVSSH 0.5F BR            CCN000013500000013500FN00000000020220601000013500NNM   20220406170155    1W    00000150000000689000000000032DE    TVYEV-TV000000000000VT225054
BI00B32DE    TT2064         20220602180D0203980              AVSSH 0.5F BR            CCN000012000000012000FN00000000020220601000012000NNM   20220406170155    1W    00000150000000689000000000032DE    TVYEV-TV000000000000VT325056
BI00B32DE    TT2061         20220512180D0203960              AVSSH 0.5F G             CCN000018000000018000FN00000000020220601000018000NNM   20220406170155    1W    00000150000000689000000000032DE    TVYEV-TV000000000000VT424025
BI00B32DE    TT2062         20220519180D0203960              AVSSH 0.5F G             CCN000025500000025500FN00000000020220601000025500NNM   20220406170155    1W    00000150000000689000000000032DE    TVYEV-TV000000000000VT125048
BI00B32DE    TT2063         20220526180D0203960              AVSSH 0.5F G             CCN000019500000019500FN00000000020220601000019500NNM   20220406170155    1W    00000150000000689000000000032DE    TVYEV-TV000000000000VT225055
BI00B32DE    TT2064         20220602180D0203960              AVSSH 0.5F G             CCN000021000000021000FN00000000020220601000021000NNM   20220406170155    1W    00000150000000689000000000032DE    TVYEV-TV000000000000VT325057
BI00B32DE    TT2062         20220519180D0203963              AVSSH 0.5F G/B           CCN000001500000001500FN00000000020220601000001500NNM   20220406170155    1W    00000150000000689000000000032DE    TVYEV-TV000000000000VT125049
BI00B32DE    TT2063         20220526180D0203963              AVSSH 0.5F G/B           CCN000001500000001500FN00000000020220601000001500NNM   20220406170155    1W    00000150000000689000000000032DE    TVYEV-TV000000000000VT225056
BI00B32DE    TT2064         20220602180D0203963              AVSSH 0.5F G/B           CCN000001500000001500FN00000000020220601000001500NNM   20220406170155    1W    00000150000000689000000000032DE    TVYEV-TV000000000000VT325058
BI00B32DE    TT2062         20220519180D0203965              AVSSH 0.5F G/R           CCN000003000000003000FN00000000020220601000003000NNM   20220406170155    1W    00000150000000689000000000032DE    TVYEV-TV000000000000VT125050
BI00B32DE    TT2063         20220526180D0203965              AVSSH 0.5F G/R           CCN000003000000003000FN00000000020220601000003000NNM   20220406170155    1W    00000150000000689000000000032DE    TVYEV-TV000000000000VT225057
BI00B32DE    TT2064         20220602180D0203965              AVSSH 0.5F G/R           CCN000003000000003000FN00000000020220601000003000NNM   20220406170155    1W    00000150000000689000000000032DE    TVYEV-TV000000000000VT325059
BI00B32DE    TT2064         20220602180D0203967              AVSSH 0.5F G/Y           CCN000001500000001500FN00000000020220601000001500NNM   20220406170155    1W    00000150000000689000000000032DE    TVYEV-TV000000000000VT325060
BI00B32DE    TT2061         20220512180D0203941              AVSSH 0.5F GY            CCN000010500000010500FN00000000020220601000010500NNM   20220406170155    1W    00000150000000689000000000032DE    TVYEV-TV000000000000VT424026
BI00B32DE    TT2062         20220519180D0203941              AVSSH 0.5F GY            CCN000024000000024000FN00000000020220601000024000NNM   20220406170155    1W    00000150000000689000000000032DE    TVYEV-TV000000000000VT125051
BI00B32DE    TT2063         20220526180D0203941              AVSSH 0.5F GY            CCN000019500000019500FN00000000020220601000019500NNM   20220406170155    1W    00000150000000689000000000032DE    TVYEV-TV000000000000VT225058
BI00B32DE    TT2064         20220602180D0203941              AVSSH 0.5F GY            CCN000019500000019500FN00000000020220601000019500NNM   20220406170155    1W    00000150000000689000000000032DE    TVYEV-TV000000000000VT325061
BI00B32DE    TT2061         20220512180D0203990              AVSSH 0.5F L             CCN000009000000009000FN00000000020220601000009000NNM   20220406170155    1W    00000150000000689000000000032DE    TVYEV-TV000000000000VT424027
BI00B32DE    TT2062         20220519180D0203990              AVSSH 0.5F L             CCN000037500000037500FN00000000020220601000037500NNM   20220406170155    1W    00000150000000689000000000032DE    TVYEV-TV000000000000VT125052
BI00B32DE    TT2063         20220526180D0203990              AVSSH 0.5F L             CCN000028500000028500FN00000000020220601000028500NNM   20220406170155    1W    00000150000000689000000000032DE    TVYEV-TV000000000000VT225059
BI00B32DE    TT2064         20220602180D0203990              AVSSH 0.5F L             CCN000028500000028500FN00000000020220601000028500NNM   20220406170155    1W    00000150000000689000000000032DE    TVYEV-TV000000000000VT325062
BI00B32DE    TT2064         20220602180D0203993              AVSSH 0.5F L/B           CCN000001500000001500FN00000000020220601000001500NNM   20220406170155    1W    00000150000000689000000000032DE    TVYEV-TV000000000000VT325063
BI00B32DE    TT2062         20220519180D0203995              AVSSH 0.5F L/R           CCN000003000000003000FN00000000020220601000003000NNM   20220406170155    1W    00000150000000689000000000032DE    TVYEV-TV000000000000VT125053
BI00B32DE    TT2063         20220526180D0203995              AVSSH 0.5F L/R           CCN000006000000006000FN00000000020220601000006000NNM   20220406170155    1W    00000150000000689000000000032DE    TVYEV-TV000000000000VT225060
BI00B32DE    TT2064         20220602180D0203995              AVSSH 0.5F L/R           CCN000004500000004500FN00000000020220601000004500NNM   20220406170155    1W    00000150000000689000000000032DE    TVYEV-TV000000000000VT325064
BI00B32DE    TT2062         20220519180D0203994              AVSSH 0.5F L/W           CCN000010500000010500FN00000000020220601000010500NNM   20220406170155    1W    00000150000000689000000000032DE    TVYEV-TV000000000000VT125054
BI00B32DE    TT2063         20220526180D0203994              AVSSH 0.5F L/W           CCN000007500000007500FN00000000020220601000007500NNM   20220406170155    1W    00000150000000689000000000032DE    TVYEV-TV000000000000VT225061
BI00B32DE    TT2064         20220602180D0203994              AVSSH 0.5F L/W           CCN000007500000007500FN00000000020220601000007500NNM   20220406170155    1W    00000150000000689000000000032DE    TVYEV-TV000000000000VT325065
BI00B32DE    TT2063         20220526180D0203997              AVSSH 0.5F L/Y           CCN000001500000001500FN00000000020220601000001500NNM   20220406170155    1W    00000150000000689000000000032DE    TVYEV-TV000000000000VT225062
BI00B32DE    TT2064         20220602180D0203997              AVSSH 0.5F L/Y           CCN000001500000001500FN00000000020220601000001500NNM   20220406170155    1W    00000150000000689000000000032DE    TVYEV-TV000000000000VT325066
BI00B32DE    TT2061         20220512180D0203961              AVSSH 0.5F LG            CCN000013500000013500FN00000000020220601000013500NNM   20220406170155    1W    00000150000000689000000000032DE    TVYEV-TV000000000000VT424028
BI00B32DE    TT2062         20220519180D0203961              AVSSH 0.5F LG            CCN000028500000028500FN00000000020220601000028500NNM   20220406170155    1W    00000150000000689000000000032DE    TVYEV-TV000000000000VT125055
BI00B32DE    TT2063         20220526180D0203961              AVSSH 0.5F LG            CCN000021000000021000FN00000000020220601000021000NNM   20220406170155    1W    00000150000000689000000000032DE    TVYEV-TV000000000000VT225063
BI00B32DE    TT2064         20220602180D0203961              AVSSH 0.5F LG            CCN000022500000022500FN00000000020220601000022500NNM   20220406170155    1W    00000150000000689000000000032DE    TVYEV-TV000000000000VT325067
BI00B32DE    TT2061         20220512180D0203952              AVSSH 0.5F P             CCN000006000000006000FN00000000020220601000006000NNM   20220406170155    1W    00000150000000689000000000032DE    TVYEV-TV000000000000VT424029
BI00B32DE    TT2062         20220519180D0203952              AVSSH 0.5F P             CCN000024000000024000FN00000000020220601000024000NNM   20220406170155    1W    00000150000000689000000000032DE    TVYEV-TV000000000000VT125056
BI00B32DE    TT2063         20220526180D0203952              AVSSH 0.5F P             CCN000018000000018000FN00000000020220601000018000NNM   20220406170155    1W    00000150000000689000000000032DE    TVYEV-TV000000000000VT225064
BI00B32DE    TT2064         20220602180D0203952              AVSSH 0.5F P             CCN000019500000019500FN00000000020220601000019500NNM   20220406170155    1W    00000150000000689000000000032DE    TVYEV-TV000000000000VT325068
BI00B32DE    TT2061         20220512180D0203950              AVSSH 0.5F R             CCN000004500000004500FN00000000020220601000004500NNM   20220406170155    1W    00000150000000689000000000032DE    TVYEV-TV000000000000VT424030
BI00B32DE    TT2062         20220519180D0203950              AVSSH 0.5F R             CCN000016500000016500FN00000000020220601000016500NNM   20220406170155    1W    00000150000000689000000000032DE    TVYEV-TV000000000000VT125057
BI00B32DE    TT2063         20220526180D0203950              AVSSH 0.5F R             CCN000013500000013500FN00000000020220601000013500NNM   20220406170155    1W    00000150000000689000000000032DE    TVYEV-TV000000000000VT225065
BI00B32DE    TT2064         20220602180D0203950              AVSSH 0.5F R             CCN000012000000012000FN00000000020220601000012000NNM   20220406170155    1W    00000150000000689000000000032DE    TVYEV-TV000000000000VT325069
BI00B32DE    TT2062         20220519180D0203953              AVSSH 0.5F R/B           CCN000001500000001500FN00000000020220601000001500NNM   20220406170155    1W    00000150000000689000000000032DE    TVYEV-TV000000000000VT125058
BI00B32DE    TT2063         20220526180D0203953              AVSSH 0.5F R/B           CCN000001500000001500FN00000000020220601000001500NNM   20220406170155    1W    00000150000000689000000000032DE    TVYEV-TV000000000000VT225066
BI00B32DE    TT2064         20220602180D0203953              AVSSH 0.5F R/B           CCN000003000000003000FN00000000020220601000003000NNM   20220406170155    1W    00000150000000689000000000032DE    TVYEV-TV000000000000VT325070
BI00B32DE    TT2063         20220526180D0203959              AVSSH 0.5F R/L           CCN000001500000001500FN00000000020220601000001500NNM   20220406170155    1W    00000150000000689000000000032DE    TVYEV-TV000000000000VT225067
BI00B32DE    TT2064         20220602180D0203959              AVSSH 0.5F R/L           CCN000001500000001500FN00000000020220601000001500NNM   20220406170155    1W    00000150000000689000000000032DE    TVYEV-TV000000000000VT325071
BI00B32DE    TT2062         20220519180D0203954              AVSSH 0.5F R/W           CCN000003000000003000FN00000000020220601000003000NNM   20220406170155    1W    00000150000000689000000000032DE    TVYEV-TV000000000000VT125059
BI00B32DE    TT2063         20220526180D0203954              AVSSH 0.5F R/W           CCN000001500000001500FN00000000020220601000001500NNM   20220406170155    1W    00000150000000689000000000032DE    TVYEV-TV000000000000VT225068
BI00B32DE    TT2064         20220602180D0203954              AVSSH 0.5F R/W           CCN000001500000001500FN00000000020220601000001500NNM   20220406170155    1W    00000150000000689000000000032DE    TVYEV-TV000000000000VT325072
BI00B32DE    TT2063         20220526180D0203957              AVSSH 0.5F R/Y           CCN000001500000001500FN00000000020220601000001500NNM   20220406170155    1W    00000150000000689000000000032DE    TVYEV-TV000000000000VT225069
BI00B32DE    TT2064         20220602180D0203957              AVSSH 0.5F R/Y           CCN000001500000001500FN00000000020220601000001500NNM   20220406170155    1W    00000150000000689000000000032DE    TVYEV-TV000000000000VT325073
BI00B32DE    TT2061         20220512180D0203992              AVSSH 0.5F V             CCN000003000000003000FN00000000020220601000003000NNM   20220406170155    1W    00000150000000689000000000032DE    TVYEV-TV000000000000VT424031
BI00B32DE    TT2062         20220519180D0203992              AVSSH 0.5F V             CCN000010500000010500FN00000000020220601000010500NNM   20220406170155    1W    00000150000000689000000000032DE    TVYEV-TV000000000000VT125060
BI00B32DE    TT2063         20220526180D0203992              AVSSH 0.5F V             CCN000009000000009000FN00000000020220601000009000NNM   20220406170155    1W    00000150000000689000000000032DE    TVYEV-TV000000000000VT225070
BI00B32DE    TT2064         20220602180D0203992              AVSSH 0.5F V             CCN000009000000009000FN00000000020220601000009000NNM   20220406170155    1W    00000150000000689000000000032DE    TVYEV-TV000000000000VT325074
BI00B32DE    TT2061         20220512180D0203940              AVSSH 0.5F W             CCN000016500000016500FN00000000020220601000016500NNM   20220406170155    1W    00000150000000689000000000032DE    TVYEV-TV000000000000VT424032
BI00B32DE    TT2062         20220519180D0203940              AVSSH 0.5F W             CCN000033000000033000FN00000000020220601000033000NNM   20220406170155    1W    00000150000000689000000000032DE    TVYEV-TV000000000000VT125061
BI00B32DE    TT2063         20220526180D0203940              AVSSH 0.5F W             CCN000024000000024000FN00000000020220601000024000NNM   20220406170155    1W    00000150000000689000000000032DE    TVYEV-TV000000000000VT225071
BI00B32DE    TT2064         20220602180D0203940              AVSSH 0.5F W             CCN000025500000025500FN00000000020220601000025500NNM   20220406170155    1W    00000150000000689000000000032DE    TVYEV-TV000000000000VT325075
BI00B32DE    TT2062         20220519180D0203943              AVSSH 0.5F W/B           CCN000006000000006000FN00000000020220601000006000NNM   20220406170155    1W    00000150000000689000000000032DE    TVYEV-TV000000000000VT125062
BI00B32DE    TT2063         20220526180D0203943              AVSSH 0.5F W/B           CCN000004500000004500FN00000000020220601000004500NNM   20220406170155    1W    00000150000000689000000000032DE    TVYEV-TV000000000000VT225072
BI00B32DE    TT2064         20220602180D0203943              AVSSH 0.5F W/B           CCN000006000000006000FN00000000020220601000006000NNM   20220406170155    1W    00000150000000689000000000032DE    TVYEV-TV000000000000VT325076
BI00B32DE    TT2063         20220526180D0203946              AVSSH 0.5F W/G           CCN000001500000001500FN00000000020220601000001500NNM   20220406170155    1W    00000150000000689000000000032DE    TVYEV-TV000000000000VT225073
BI00B32DE    TT2064         20220602180D0203946              AVSSH 0.5F W/G           CCN000001500000001500FN00000000020220601000001500NNM   20220406170155    1W    00000150000000689000000000032DE    TVYEV-TV000000000000VT325077
BI00B32DE    TT2062         20220519180D0203949              AVSSH 0.5F W/L           CCN000001500000001500FN00000000020220601000001500NNM   20220406170155    1W    00000150000000689000000000032DE    TVYEV-TV000000000000VT125063
BI00B32DE    TT2063         20220526180D0203949              AVSSH 0.5F W/L           CCN000003000000003000FN00000000020220601000003000NNM   20220406170155    1W    00000150000000689000000000032DE    TVYEV-TV000000000000VT225074
BI00B32DE    TT2064         20220602180D0203949              AVSSH 0.5F W/L           CCN000003000000003000FN00000000020220601000003000NNM   20220406170155    1W    00000150000000689000000000032DE    TVYEV-TV000000000000VT325078
BI00B32DE    TT2063         20220526180D0203945              AVSSH 0.5F W/R           CCN000001500000001500FN00000000020220601000001500NNM   20220406170155    1W    00000150000000689000000000032DE    TVYEV-TV000000000000VT225075
BI00B32DE    TT2064         20220602180D0203945              AVSSH 0.5F W/R           CCN000003000000003000FN00000000020220601000003000NNM   20220406170155    1W    00000150000000689000000000032DE    TVYEV-TV000000000000VT325079
BI00B32DE    TT2061         20220512180D0203970              AVSSH 0.5F Y             CCN000003000000003000FN00000000020220601000003000NNM   20220406170155    1W    00000150000000689000000000032DE    TVYEV-TV000000000000VT424033
BI00B32DE    TT2062         20220519180D0203970              AVSSH 0.5F Y             CCN000018000000018000FN00000000020220601000018000NNM   20220406170155    1W    00000150000000689000000000032DE    TVYEV-TV000000000000VT125064
BI00B32DE    TT2063         20220526180D0203970              AVSSH 0.5F Y             CCN000013500000013500FN00000000020220601000013500NNM   20220406170155    1W    00000150000000689000000000032DE    TVYEV-TV000000000000VT225076
BI00B32DE    TT2064         20220602180D0203970              AVSSH 0.5F Y             CCN000015000000015000FN00000000020220601000015000NNM   20220406170155    1W    00000150000000689000000000032DE    TVYEV-TV000000000000VT325080
BI00B32DE    TT2062         20220519180D0203976              AVSSH 0.5F Y/G           CCN000003000000003000FN00000000020220601000003000NNM   20220406170155    1W    00000150000000689000000000032DE    TVYEV-TV000000000000VT125065
BI00B32DE    TT2063         20220526180D0203976              AVSSH 0.5F Y/G           CCN000003000000003000FN00000000020220601000003000NNM   20220406170155    1W    00000150000000689000000000032DE    TVYEV-TV000000000000VT225077
BI00B32DE    TT2064         20220602180D0203976              AVSSH 0.5F Y/G           CCN000004500000004500FN00000000020220601000004500NNM   20220406170155    1W    00000150000000689000000000032DE    TVYEV-TV000000000000VT325081
BI00B32DE    TT2062         20220519180D0203975              AVSSH 0.5F Y/R           CCN000001500000001500FN00000000020220601000001500NNM   20220406170155    1W    00000150000000689000000000032DE    TVYEV-TV000000000000VT125066
BI00B32DE    TT2063         20220526180D0203975              AVSSH 0.5F Y/R           CCN000001500000001500FN00000000020220601000001500NNM   20220406170155    1W    00000150000000689000000000032DE    TVYEV-TV000000000000VT225078
BI00B32DE    TT2064         20220602180D0203975              AVSSH 0.5F Y/R           CCN000001500000001500FN00000000020220601000001500NNM   20220406170155    1W    00000150000000689000000000032DE    TVYEV-TV000000000000VT325082
BI00B32DE    TT2063         20220526180D0204030              AVSSH 0.75F B            CCN000001000000001000FN00000000020220601000001000NNM   20220406170155    1W    00000100000000934000000000032DE    TVYEV-TV000000000000VT225079
BI00B32DE    TT2061         20220512180D0204080              AVSSH 0.75F BR           CCN000001000000001000FN00000000020220601000001000NNM   20220406170155    1W    00000100000000934000000000032DE    TVYEV-TV000000000000VT424034
BI00B32DE    TT2062         20220519180D0204080              AVSSH 0.75F BR           CCN000012000000012000FN00000000020220601000012000NNM   20220406170155    1W    00000100000000934000000000032DE    TVYEV-TV000000000000VT125067
BI00B32DE    TT2063         20220526180D0204080              AVSSH 0.75F BR           CCN000009000000009000FN00000000020220601000009000NNM   20220406170155    1W    00000100000000934000000000032DE    TVYEV-TV000000000000VT225080
BI00B32DE    TT2064         20220602180D0204080              AVSSH 0.75F BR           CCN000010000000010000FN00000000020220601000010000NNM   20220406170155    1W    00000100000000934000000000032DE    TVYEV-TV000000000000VT325083
BI00B32DE    TT2061         20220512180D0204060              AVSSH 0.75F G            CCN000002000000002000FN00000000020220601000002000NNM   20220406170155    1W    00000100000000934000000000032DE    TVYEV-TV000000000000VT424035
BI00B32DE    TT2062         20220519180D0204060              AVSSH 0.75F G            CCN000003000000003000FN00000000020220601000003000NNM   20220406170155    1W    00000100000000934000000000032DE    TVYEV-TV000000000000VT125068
BI00B32DE    TT2063         20220526180D0204060              AVSSH 0.75F G            CCN000002000000002000FN00000000020220601000002000NNM   20220406170155    1W    00000100000000934000000000032DE    TVYEV-TV000000000000VT225081
BI00B32DE    TT2064         20220602180D0204060              AVSSH 0.75F G            CCN000002000000002000FN00000000020220601000002000NNM   20220406170155    1W    00000100000000934000000000032DE    TVYEV-TV000000000000VT325084
BI00B32DE    TT2064         20220602180D0204059              AVSSH 0.75F R/L          CCN000002000000002000FN00000000020220601000002000NNM   20220406170155    1W    00000100000000934000000000032DE    TVYEV-TV000000000000VT325085
BI00B32DE    TT2064         20220602180D0204092              AVSSH 0.75F V            CCN000001000000001000FN00000000020220601000001000NNM   20220406170155    1W    00000100000000934000000000032DE    TVYEV-TV000000000000VT325086
BI00B32DE    TT2061         20220512180D0204043              AVSSH 0.75F W/B          CCN000004000000004000FN00000000020220601000004000NNM   20220406170155    1W    00000100000000934000000000032DE    TVYEV-TV000000000000VT424036
BI00B32DE    TT2062         20220519180D0204043              AVSSH 0.75F W/B          CCN000008000000008000FN00000000020220601000008000NNM   20220406170155    1W    00000100000000934000000000032DE    TVYEV-TV000000000000VT125069
BI00B32DE    TT2063         20220526180D0204043              AVSSH 0.75F W/B          CCN000006000000006000FN00000000020220601000006000NNM   20220406170155    1W    00000100000000934000000000032DE    TVYEV-TV000000000000VT225082
BI00B32DE    TT2064         20220602180D0204043              AVSSH 0.75F W/B          CCN000005000000005000FN00000000020220601000005000NNM   20220406170155    1W    00000100000000934000000000032DE    TVYEV-TV000000000000VT325087
BI00B32DE    TT2061         20220512180D0204130              AVSSH 1.25F B            CCN000008800000008800FN00000000020220601000008800NNM   20220406170155    1W    00000080000001458000000000032DE    TVYEV-TV000000000000VT424037
BI00B32DE    TT2062         20220519180D0204130              AVSSH 1.25F B            CCN000014400000014400FN00000000020220601000014400NNM   20220406170155    1W    00000080000001458000000000032DE    TVYEV-TV000000000000VT125070
BI00B32DE    TT2063         20220526180D0204130              AVSSH 1.25F B            CCN000010400000010400FN00000000020220601000010400NNM   20220406170155    1W    00000080000001458000000000032DE    TVYEV-TV000000000000VT225083
BI00B32DE    TT2064         20220602180D0204130              AVSSH 1.25F B            CCN000010400000010400FN00000000020220601000010400NNM   20220406170155    1W    00000080000001458000000000032DE    TVYEV-TV000000000000VT325088
BI00B32DE    TT2061         20220512180D0204135              AVSSH 1.25F B/R          CCN000000800000000800FN00000000020220601000000800NNM   20220406170155    1W    00000080000001458000000000032DE    TVYEV-TV000000000000VT424038
BI00B32DE    TT2062         20220519180D0204135              AVSSH 1.25F B/R          CCN000002400000002400FN00000000020220601000002400NNM   20220406170155    1W    00000080000001458000000000032DE    TVYEV-TV000000000000VT125071
BI00B32DE    TT2063         20220526180D0204135              AVSSH 1.25F B/R          CCN000001600000001600FN00000000020220601000001600NNM   20220406170155    1W    00000080000001458000000000032DE    TVYEV-TV000000000000VT225084
BI00B32DE    TT2064         20220602180D0204135              AVSSH 1.25F B/R          CCN000001600000001600FN00000000020220601000001600NNM   20220406170155    1W    00000080000001458000000000032DE    TVYEV-TV000000000000VT325089
BI00B32DE    TT2062         20220519180D0204134              AVSSH 1.25F B/W          CCN000001600000001600FN00000000020220601000001600NNM   20220406170155    1W    00000080000001458000000000032DE    TVYEV-TV000000000000VT125072
BI00B32DE    TT2063         20220526180D0204134              AVSSH 1.25F B/W          CCN000000800000000800FN00000000020220601000000800NNM   20220406170155    1W    00000080000001458000000000032DE    TVYEV-TV000000000000VT225085
BI00B32DE    TT2064         20220602180D0204134              AVSSH 1.25F B/W          CCN000000800000000800FN00000000020220601000000800NNM   20220406170155    1W    00000080000001458000000000032DE    TVYEV-TV000000000000VT325090
BI00B32DE    TT2061         20220512180D0204180              AVSSH 1.25F BR           CCN000009600000009600FN00000000020220601000009600NNM   20220406170155    1W    00000080000001458000000000032DE    TVYEV-TV000000000000VT424039
BI00B32DE    TT2062         20220519180D0204180              AVSSH 1.25F BR           CCN000016800000016800FN00000000020220601000016800NNM   20220406170155    1W    00000080000001458000000000032DE    TVYEV-TV000000000000VT125073
BI00B32DE    TT2063         20220526180D0204180              AVSSH 1.25F BR           CCN000012000000012000FN00000000020220601000012000NNM   20220406170155    1W    00000080000001458000000000032DE    TVYEV-TV000000000000VT225086
BI00B32DE    TT2064         20220602180D0204180              AVSSH 1.25F BR           CCN000012800000012800FN00000000020220601000012800NNM   20220406170155    1W    00000080000001458000000000032DE    TVYEV-TV000000000000VT325091
BI00B32DE    TT2061         20220512180D0204160              AVSSH 1.25F G            CCN000000800000000800FN00000000020220601000000800NNM   20220406170155    1W    00000080000001458000000000032DE    TVYEV-TV000000000000VT424040
BI00B32DE    TT2062         20220519180D0204160              AVSSH 1.25F G            CCN000001600000001600FN00000000020220601000001600NNM   20220406170155    1W    00000080000001458000000000032DE    TVYEV-TV000000000000VT125074
BI00B32DE    TT2063         20220526180D0204160              AVSSH 1.25F G            CCN000001600000001600FN00000000020220601000001600NNM   20220406170155    1W    00000080000001458000000000032DE    TVYEV-TV000000000000VT225087
BI00B32DE    TT2064         20220602180D0204160              AVSSH 1.25F G            CCN000000800000000800FN00000000020220601000000800NNM   20220406170155    1W    00000080000001458000000000032DE    TVYEV-TV000000000000VT325092
BI00B32DE    TT2061         20220512180D0204190              AVSSH 1.25F L            CCN000004000000004000FN00000000020220601000004000NNM   20220406170155    1W    00000080000001458000000000032DE    TVYEV-TV000000000000VT424041
BI00B32DE    TT2062         20220519180D0204190              AVSSH 1.25F L            CCN000008800000008800FN00000000020220601000008800NNM   20220406170155    1W    00000080000001458000000000032DE    TVYEV-TV000000000000VT125075
BI00B32DE    TT2063         20220526180D0204190              AVSSH 1.25F L            CCN000006400000006400FN00000000020220601000006400NNM   20220406170155    1W    00000080000001458000000000032DE    TVYEV-TV000000000000VT225088
BI00B32DE    TT2064         20220602180D0204190              AVSSH 1.25F L            CCN000005600000005600FN00000000020220601000005600NNM   20220406170155    1W    00000080000001458000000000032DE    TVYEV-TV000000000000VT325093
BI00B32DE    TT2062         20220519180D0204195              AVSSH 1.25F L/R          CCN000000800000000800FN00000000020220601000000800NNM   20220406170155    1W    00000080000001458000000000032DE    TVYEV-TV000000000000VT125076
BI00B32DE    TT2063         20220526180D0204195              AVSSH 1.25F L/R          CCN000000800000000800FN00000000020220601000000800NNM   20220406170155    1W    00000080000001458000000000032DE    TVYEV-TV000000000000VT225089
BI00B32DE    TT2062         20220519180D0204150              AVSSH 1.25F R            CCN000004800000004800FN00000000020220601000004800NNM   20220406170155    1W    00000080000001458000000000032DE    TVYEV-TV000000000000VT125077
BI00B32DE    TT2063         20220526180D0204150              AVSSH 1.25F R            CCN000004000000004000FN00000000020220601000004000NNM   20220406170155    1W    00000080000001458000000000032DE    TVYEV-TV000000000000VT225090
BI00B32DE    TT2064         20220602180D0204150              AVSSH 1.25F R            CCN000003200000003200FN00000000020220601000003200NNM   20220406170155    1W    00000080000001458000000000032DE    TVYEV-TV000000000000VT325094
BI00B32DE    TT2062         20220519180D0204153              AVSSH 1.25F R/B          CCN000000800000000800FN00000000020220601000000800NNM   20220406170155    1W    00000080000001458000000000032DE    TVYEV-TV000000000000VT125078
BI00B32DE    TT2063         20220526180D0204153              AVSSH 1.25F R/B          CCN000002400000002400FN00000000020220601000002400NNM   20220406170155    1W    00000080000001458000000000032DE    TVYEV-TV000000000000VT225091
BI00B32DE    TT2064         20220602180D0204153              AVSSH 1.25F R/B          CCN000002400000002400FN00000000020220601000002400NNM   20220406170155    1W    00000080000001458000000000032DE    TVYEV-TV000000000000VT325095
BI00B32DE    TT2061         20220512180D0204159              AVSSH 1.25F R/L          CCN000000800000000800FN00000000020220601000000800NNM   20220406170155    1W    00000080000001458000000000032DE    TVYEV-TV000000000000VT424042
BI00B32DE    TT2062         20220519180D0204159              AVSSH 1.25F R/L          CCN000000800000000800FN00000000020220601000000800NNM   20220406170155    1W    00000080000001458000000000032DE    TVYEV-TV000000000000VT125079
BI00B32DE    TT2063         20220526180D0204159              AVSSH 1.25F R/L          CCN000000800000000800FN00000000020220601000000800NNM   20220406170155    1W    00000080000001458000000000032DE    TVYEV-TV000000000000VT225092
BI00B32DE    TT2062         20220519180D0204140              AVSSH 1.25F W            CCN000000800000000800FN00000000020220601000000800NNM   20220406170155    1W    00000080000001458000000000032DE    TVYEV-TV000000000000VT125080
BI00B32DE    TT2063         20220526180D0204140              AVSSH 1.25F W            CCN000001600000001600FN00000000020220601000001600NNM   20220406170155    1W    00000080000001458000000000032DE    TVYEV-TV000000000000VT225093
BI00B32DE    TT2064         20220602180D0204140              AVSSH 1.25F W            CCN000000800000000800FN00000000020220601000000800NNM   20220406170155    1W    00000080000001458000000000032DE    TVYEV-TV000000000000VT325096
BI00B32DE    TT2061         20220512180D0204143              AVSSH 1.25F W/B          CCN000012800000012800FN00000000020220601000012800NNM   20220406170155    1W    00000080000001458000000000032DE    TVYEV-TV000000000000VT424043
BI00B32DE    TT2062         20220519180D0204143              AVSSH 1.25F W/B          CCN000031200000031200FN00000000020220601000031200NNM   20220406170155    1W    00000080000001458000000000032DE    TVYEV-TV000000000000VT125081
BI00B32DE    TT2063         20220526180D0204143              AVSSH 1.25F W/B          CCN000022400000022400FN00000000020220601000022400NNM   20220406170155    1W    00000080000001458000000000032DE    TVYEV-TV000000000000VT225094
BI00B32DE    TT2064         20220602180D0204143              AVSSH 1.25F W/B          CCN000021600000021600FN00000000020220601000021600NNM   20220406170155    1W    00000080000001458000000000032DE    TVYEV-TV000000000000VT325097
BI00B32DE    TT2062         20220519180D0204149              AVSSH 1.25F W/L          CCN000000800000000800FN00000000020220601000000800NNM   20220406170155    1W    00000080000001458000000000032DE    TVYEV-TV000000000000VT125082
BI00B32DE    TT2063         20220526180D0204149              AVSSH 1.25F W/L          CCN000002400000002400FN00000000020220601000002400NNM   20220406170155    1W    00000080000001458000000000032DE    TVYEV-TV000000000000VT225095
BI00B32DE    TT2064         20220602180D0204149              AVSSH 1.25F W/L          CCN000003200000003200FN00000000020220601000003200NNM   20220406170155    1W    00000080000001458000000000032DE    TVYEV-TV000000000000VT325098
BI00B32DE    TT2061         20220512180D0204170              AVSSH 1.25F Y            CCN000000800000000800FN00000000020220601000000800NNM   20220406170155    1W    00000080000001458000000000032DE    TVYEV-TV000000000000VT424044
BI00B32DE    TT2062         20220519180D0204170              AVSSH 1.25F Y            CCN000001600000001600FN00000000020220601000001600NNM   20220406170155    1W    00000080000001458000000000032DE    TVYEV-TV000000000000VT125083
BI00B32DE    TT2063         20220526180D0204170              AVSSH 1.25F Y            CCN000000800000000800FN00000000020220601000000800NNM   20220406170155    1W    00000080000001458000000000032DE    TVYEV-TV000000000000VT225096
BI00B32DE    TT2064         20220602180D0204170              AVSSH 1.25F Y            CCN000000800000000800FN00000000020220601000000800NNM   20220406170155    1W    00000080000001458000000000032DE    TVYEV-TV000000000000VT325099
BI00B32DE    @TT2063        20220526181E50000ZZ              AVSSCS-S 0.5FX1 DGY/BR   CCN000000800000000800FN00000000020220601000000800NNM   20220406170155    1W    00000040000001909700000000032DE    TVYEV-TV000000000000VT225019
BI00B32DE    @TT2064        20220602181E50000ZZ              AVSSCS-S 0.5FX1 DGY/BR   CCN000001200000001200FN00000000020220601000001200NNM   20220406170155    1W    00000040000001909700000000032DE    TVYEV-TV000000000000VT325022
BI00B32DE    @TT2061        20220512181E50003ZZ              AVSSCS-S 0.3FX2 DGY/BR   CCN000007350000007350FN00000000020220601000007350NNM   20220406170155    1W    00000035000002165000000000032DE    TVYEV-TV000000000000VT424014
BI00B32DE    @TT2062        20220519181E50003ZZ              AVSSCS-S 0.3FX2 DGY/BR   CCN000031500000031500FN00000000020220601000031500NNM   20220406170155    1W    00000035000002165000000000032DE    TVYEV-TV000000000000VT125024
BI00B32DE    @TT2063        20220526181E50003ZZ              AVSSCS-S 0.3FX2 DGY/BR   CCN000022750000022750FN00000000020220601000022750NNM   20220406170155    1W    00000035000002165000000000032DE    TVYEV-TV000000000000VT225027
BI00B32DE    @TT2064        20220602181E50003ZZ              AVSSCS-S 0.3FX2 DGY/BR   CCN000022400000022400FN00000000020220601000022400NNM   20220406170155    1W    00000035000002165000000000032DE    TVYEV-TV000000000000VT325030
BI00B32DE    @TT2062        20220519181E50005ZZ              AVSSCS-S 0.5FX1 DGY/W    CCN000001600000001600FN00000000020220601000001600NNM   20220406170155    1W    00000040000001909700000000032DE    TVYEV-TV000000000000VT125020
BI00B32DE    @TT2063        20220526181E50005ZZ              AVSSCS-S 0.5FX1 DGY/W    CCN000002400000002400FN00000000020220601000002400NNM   20220406170155    1W    00000040000001909700000000032DE    TVYEV-TV000000000000VT225022
BI00B32DE    @TT2064        20220602181E50005ZZ              AVSSCS-S 0.5FX1 DGY/W    CCN000002800000002800FN00000000020220601000002800NNM   20220406170155    1W    00000040000001909700000000032DE    TVYEV-TV000000000000VT325025
BI00B32DE    @TT2063        20220526181E50006ZZ              AVSSCS-S 0.5FX1 DGY/Y    CCN000000400000000400FN00000000020220601000000400NNM   20220406170155    1W    00000040000001909700000000032DE    TVYEV-TV000000000000VT225023
BI00B32DE    @TT2064        20220602181E50006ZZ              AVSSCS-S 0.5FX1 DGY/Y    CCN000001200000001200FN00000000020220601000001200NNM   20220406170155    1W    00000040000001909700000000032DE    TVYEV-TV000000000000VT325026
BI00B32DE    @TT2062        20220519181E50007ZZ              AVSSCS-S 0.5FX1 DGY/L    CCN000000400000000400FN00000000020220601000000400NNM   20220406170155    1W    00000040000001909700000000032DE    TVYEV-TV000000000000VT125019
BI00B32DE    @TT2063        20220526181E50007ZZ              AVSSCS-S 0.5FX1 DGY/L    CCN000000800000000800FN00000000020220601000000800NNM   20220406170155    1W    00000040000001909700000000032DE    TVYEV-TV000000000000VT225021
BI00B32DE    @TT2064        20220602181E50007ZZ              AVSSCS-S 0.5FX1 DGY/L    CCN000000800000000800FN00000000020220601000000800NNM   20220406170155    1W    00000040000001909700000000032DE    TVYEV-TV000000000000VT325024
BI00B32DE    @TT2061        20220512181E50010ZZ              AVSSCS-S 0.5FX2 DGY/P    CCN000001500000001500FN00000000020220601000001500NNM   20220406170155    1W    00000030000003096000000000032DE    TVYEV-TV000000000000VT424013
BI00B32DE    @TT2062        20220519181E50010ZZ              AVSSCS-S 0.5FX2 DGY/P    CCN000005100000005100FN00000000020220601000005100NNM   20220406170155    1W    00000030000003096000000000032DE    TVYEV-TV000000000000VT125021
BI00B32DE    @TT2063        20220526181E50010ZZ              AVSSCS-S 0.5FX2 DGY/P    CCN000003600000003600FN00000000020220601000003600NNM   20220406170155    1W    00000030000003096000000000032DE    TVYEV-TV000000000000VT225024
BI00B32DE    @TT2064        20220602181E50010ZZ              AVSSCS-S 0.5FX2 DGY/P    CCN000003900000003900FN00000000020220601000003900NNM   20220406170155    1W    00000030000003096000000000032DE    TVYEV-TV000000000000VT325027
BI00B32DE    @TT2063        20220526181E50013ZZ              AVSSCS-S 0.5FX1 DGY/G    CCN000000400000000400FN00000000020220601000000400NNM   20220406170155    1W    00000040000001909700000000032DE    TVYEV-TV000000000000VT225020
BI00B32DE    @TT2064        20220602181E50013ZZ              AVSSCS-S 0.5FX1 DGY/G    CCN000000400000000400FN00000000020220601000000400NNM   20220406170155    1W    00000040000001909700000000032DE    TVYEV-TV000000000000VT325023
BI00B32DE    @TT2062        20220519181E50027ZZ              AVSSCS-S 0.5FX3 DGY/G    CCN000003250000003250FN00000000020220601000003250NNM   20220406170155    1W    00000025000003265000000000032DE    TVYEV-TV000000000000VT125023
BI00B32DE    @TT2063        20220526181E50027ZZ              AVSSCS-S 0.5FX3 DGY/G    CCN000004500000004500FN00000000020220601000004500NNM   20220406170155    1W    00000025000003265000000000032DE    TVYEV-TV000000000000VT225026
BI00B32DE    @TT2064        20220602181E50027ZZ              AVSSCS-S 0.5FX3 DGY/G    CCN000004750000004750FN00000000020220601000004750NNM   20220406170155    1W    00000025000003265000000000032DE    TVYEV-TV000000000000VT325029
BI00B32DE    @TT2062        20220519181E50028ZZ              AVSSCS-S 0.5FX3 DGY      CCN000003750000003750FN00000000020220601000003750NNM   20220406170155    1W    00000025000003265000000000032DE    TVYEV-TV000000000000VT125022
BI00B32DE    @TT2063        20220526181E50028ZZ              AVSSCS-S 0.5FX3 DGY      CCN000009500000009500FN00000000020220601000009500NNM   20220406170155    1W    00000025000003265000000000032DE    TVYEV-TV000000000000VT225025
BI00B32DE    @TT2064        20220602181E50028ZZ              AVSSCS-S 0.5FX3 DGY      CCN000008250000008250FN00000000020220601000008250NNM   20220406170155    1W    00000025000003265000000000032DE    TVYEV-TV000000000000VT325028
BI00B32DE    @TT2064        20220602181D6910235              AVSSHCS 0.5FX2 B/R       CCN000000300000000300FN00000000020220601000000300NNM   20220406170155    1W    00000030000002385000000000032DE    TVYEV-TV000000000000VT325021
BI00B32DE    @TT2061        20220512181F21002ZZ              AVSSHCS-S 0.5FX1 B       CCN000001200000001200FN00000000020220601000001200NNM   20220406170155    1W    00000040000001908400000000032DE    TVYEV-TV000000000000VT424015
BI00B32DE    @TT2062        20220519181F21002ZZ              AVSSHCS-S 0.5FX1 B       CCN000002800000002800FN00000000020220601000002800NNM   20220406170155    1W    00000040000001908400000000032DE    TVYEV-TV000000000000VT125025
BI00B32DE    @TT2063        20220526181F21002ZZ              AVSSHCS-S 0.5FX1 B       CCN000002400000002400FN00000000020220601000002400NNM   20220406170155    1W    00000040000001908400000000032DE    TVYEV-TV000000000000VT225028
BI00B32DE    @TT2064        20220602181F21002ZZ              AVSSHCS-S 0.5FX1 B       CCN000002400000002400FN00000000020220601000002400NNM   20220406170155    1W    00000040000001908400000000032DE    TVYEV-TV000000000000VT325031
BI00B32DE    @TT2061        20220512181F21003ZZ              AVSSHCS-S 0.5FX1 B/W     CCN000004800000004800FN00000000020220601000004800NNM   20220406170155    1W    00000040000001908400000000032DE    TVYEV-TV000000000000VT424016
BI00B32DE    @TT2062        20220519181F21003ZZ              AVSSHCS-S 0.5FX1 B/W     CCN000009200000009200FN00000000020220601000009200NNM   20220406170155    1W    00000040000001908400000000032DE    TVYEV-TV000000000000VT125026
BI00B32DE    @TT2063        20220526181F21003ZZ              AVSSHCS-S 0.5FX1 B/W     CCN000006800000006800FN00000000020220601000006800NNM   20220406170155    1W    00000040000001908400000000032DE    TVYEV-TV000000000000VT225030
BI00B32DE    @TT2064        20220602181F21003ZZ              AVSSHCS-S 0.5FX1 B/W     CCN000008400000008400FN00000000020220601000008400NNM   20220406170155    1W    00000040000001908400000000032DE    TVYEV-TV000000000000VT325033
BI00B32DE    @TT2063        20220526181F21004ZZ              AVSSHCS-S 0.5FX1 B/R     CCN000000400000000400FN00000000020220601000000400NNM   20220406170155    1W    00000040000001908400000000032DE    TVYEV-TV000000000000VT225029
BI00B32DE    @TT2064        20220602181F21004ZZ              AVSSHCS-S 0.5FX1 B/R     CCN000000800000000800FN00000000020220601000000800NNM   20220406170155    1W    00000040000001908400000000032DE    TVYEV-TV000000000000VT325032
BI00B32DE    @TT2063        20220526181F21006ZZ              AVSSHCS-S 0.5FX1 B/Y     CCN000000800000000800FN00000000020220601000000800NNM   20220406170155    1W    00000040000001908400000000032DE    TVYEV-TV000000000000VT225031
BI00B32DE    @TT2064        20220602181F21006ZZ              AVSSHCS-S 0.5FX1 B/Y     CCN000001200000001200FN00000000020220601000001200NNM   20220406170155    1W    00000040000001908400000000032DE    TVYEV-TV000000000000VT325034
BI00B32DE    @TT2062        20220519181F21009ZZ              AVSSHCS-S 0.5FX2 B       CCN000004800000004800FN00000000020220601000004800NNM   20220406170155    1W    00000030000002531400000000032DE    TVYEV-TV000000000000VT125027
BI00B32DE    @TT2063        20220526181F21009ZZ              AVSSHCS-S 0.5FX2 B       CCN000005100000005100FN00000000020220601000005100NNM   20220406170155    1W    00000030000002531400000000032DE    TVYEV-TV000000000000VT225032
BI00B32DE    @TT2064        20220602181F21009ZZ              AVSSHCS-S 0.5FX2 B       CCN000005100000005100FN00000000020220601000005100NNM   20220406170155    1W    00000030000002531400000000032DE    TVYEV-TV000000000000VT325035
BI00B32DE    @TT2062        20220519181F21011ZZ              AVSSHCS-S 0.5FX2 B/R     CCN000004200000004200FN00000000020220601000004200NNM   20220406170155    1W    00000030000002531400000000032DE    TVYEV-TV000000000000VT125031
BI00B32DE    @TT2063        20220526181F21011ZZ              AVSSHCS-S 0.5FX2 B/R     CCN000003300000003300FN00000000020220601000003300NNM   20220406170155    1W    00000030000002531400000000032DE    TVYEV-TV000000000000VT225036
BI00B32DE    @TT2064        20220602181F21011ZZ              AVSSHCS-S 0.5FX2 B/R     CCN000003000000003000FN00000000020220601000003000NNM   20220406170155    1W    00000030000002531400000000032DE    TVYEV-TV000000000000VT325039
BI00B32DE    @TT2062        20220519181F21013ZZ              AVSSHCS-S 0.5FX2 B/Y     CCN000002700000002700FN00000000020220601000002700NNM   20220406170155    1W    00000030000002531400000000032DE    TVYEV-TV000000000000VT125032
BI00B32DE    @TT2063        20220526181F21013ZZ              AVSSHCS-S 0.5FX2 B/Y     CCN000002100000002100FN00000000020220601000002100NNM   20220406170155    1W    00000030000002531400000000032DE    TVYEV-TV000000000000VT225037
BI00B32DE    @TT2064        20220602181F21013ZZ              AVSSHCS-S 0.5FX2 B/Y     CCN000002100000002100FN00000000020220601000002100NNM   20220406170155    1W    00000030000002531400000000032DE    TVYEV-TV000000000000VT325040
BI00B32DE    @TT2062        20220519181F21014ZZ              AVSSHCS-S 0.5FX2 B/L     CCN000000900000000900FN00000000020220601000000900NNM   20220406170155    1W    00000030000002531400000000032DE    TVYEV-TV000000000000VT125029
BI00B32DE    @TT2063        20220526181F21014ZZ              AVSSHCS-S 0.5FX2 B/L     CCN000001800000001800FN00000000020220601000001800NNM   20220406170155    1W    00000030000002531400000000032DE    TVYEV-TV000000000000VT225034
BI00B32DE    @TT2064        20220602181F21014ZZ              AVSSHCS-S 0.5FX2 B/L     CCN000002100000002100FN00000000020220601000002100NNM   20220406170155    1W    00000030000002531400000000032DE    TVYEV-TV000000000000VT325037
BI00B32DE    @TT2062        20220519181F21015ZZ              AVSSHCS-S 0.5FX2 B/P     CCN000000300000000300FN00000000020220601000000300NNM   20220406170155    1W    00000030000002531400000000032DE    TVYEV-TV000000000000VT125030
BI00B32DE    @TT2063        20220526181F21015ZZ              AVSSHCS-S 0.5FX2 B/P     CCN000000600000000600FN00000000020220601000000600NNM   20220406170155    1W    00000030000002531400000000032DE    TVYEV-TV000000000000VT225035
BI00B32DE    @TT2064        20220602181F21015ZZ              AVSSHCS-S 0.5FX2 B/P     CCN000000600000000600FN00000000020220601000000600NNM   20220406170155    1W    00000030000002531400000000032DE    TVYEV-TV000000000000VT325038
BI00B32DE    @TT2061        20220512181F21016ZZ              AVSSHCS-S 0.5FX2 B/BR    CCN000000300000000300FN00000000020220601000000300NNM   20220406170155    1W    00000030000002531400000000032DE    TVYEV-TV000000000000VT424017
BI00B32DE    @TT2062        20220519181F21016ZZ              AVSSHCS-S 0.5FX2 B/BR    CCN000004200000004200FN00000000020220601000004200NNM   20220406170155    1W    00000030000002531400000000032DE    TVYEV-TV000000000000VT125028
BI00B32DE    @TT2063        20220526181F21016ZZ              AVSSHCS-S 0.5FX2 B/BR    CCN000003000000003000FN00000000020220601000003000NNM   20220406170155    1W    00000030000002531400000000032DE    TVYEV-TV000000000000VT225033
BI00B32DE    @TT2064        20220602181F21016ZZ              AVSSHCS-S 0.5FX2 B/BR    CCN000003000000003000FN00000000020220601000003000NNM   20220406170155    1W    00000030000002531400000000032DE    TVYEV-TV000000000000VT325036
BI00B32DE    @TT2062        20220519181F21027ZZ              AVSSHCS-S 1.25FX2 B      CCN000001600000001600FN00000000020220601000001600NNM   20220406170155    1W    00000020000004267300000000032DE    TVYEV-TV000000000000VT125033
BI00B32DE    @TT2063        20220526181F21027ZZ              AVSSHCS-S 1.25FX2 B      CCN000002200000002200FN00000000020220601000002200NNM   20220406170155    1W    00000020000004267300000000032DE    TVYEV-TV000000000000VT225038
BI00B32DE    @TT2064        20220602181F21027ZZ              AVSSHCS-S 1.25FX2 B      CCN000002000000002000FN00000000020220601000002000NNM   20220406170155    1W    00000020000004267300000000032DE    TVYEV-TV000000000000VT325041
BI00B32DE    @TT2061        20220512181F21028ZZ              AVSSHCS-S 1.25FX2 B/R    CCN000002600000002600FN00000000020220601000002600NNM   20220406170155    1W    00000020000004267300000000032DE    TVYEV-TV000000000000VT424019
BI00B32DE    @TT2062        20220519181F21028ZZ              AVSSHCS-S 1.25FX2 B/R    CCN000002800000002800FN00000000020220601000002800NNM   20220406170155    1W    00000020000004267300000000032DE    TVYEV-TV000000000000VT125035
BI00B32DE    @TT2063        20220526181F21028ZZ              AVSSHCS-S 1.25FX2 B/R    CCN000001800000001800FN00000000020220601000001800NNM   20220406170155    1W    00000020000004267300000000032DE    TVYEV-TV000000000000VT225040
BI00B32DE    @TT2064        20220602181F21028ZZ              AVSSHCS-S 1.25FX2 B/R    CCN000001600000001600FN00000000020220601000001600NNM   20220406170155    1W    00000020000004267300000000032DE    TVYEV-TV000000000000VT325042
BI00B32DE    @TT2061        20220512181F21029ZZ              AVSSHCS-S 1.25FX2 B/Y    CCN000001200000001200FN00000000020220601000001200NNM   20220406170155    1W    00000020000004267300000000032DE    TVYEV-TV000000000000VT424020
BI00B32DE    @TT2062        20220519181F21029ZZ              AVSSHCS-S 1.25FX2 B/Y    CCN000001000000001000FN00000000020220601000001000NNM   20220406170155    1W    00000020000004267300000000032DE    TVYEV-TV000000000000VT125036
BI00B32DE    @TT2063        20220526181F21029ZZ              AVSSHCS-S 1.25FX2 B/Y    CCN000000800000000800FN00000000020220601000000800NNM   20220406170155    1W    00000020000004267300000000032DE    TVYEV-TV000000000000VT225041
BI00B32DE    @TT2064        20220602181F21029ZZ              AVSSHCS-S 1.25FX2 B/Y    CCN000000800000000800FN00000000020220601000000800NNM   20220406170155    1W    00000020000004267300000000032DE    TVYEV-TV000000000000VT325043
BI00B32DE    @TT2061        20220512181F21031ZZ              AVSSHCS-S 1.25FX2 B/P    CCN000000200000000200FN00000000020220601000000200NNM   20220406170155    1W    00000020000004267300000000032DE    TVYEV-TV000000000000VT424018
BI00B32DE    @TT2062        20220519181F21031ZZ              AVSSHCS-S 1.25FX2 B/P    CCN000000200000000200FN00000000020220601000000200NNM   20220406170155    1W    00000020000004267300000000032DE    TVYEV-TV000000000000VT125034
BI00B32DE    @TT2063        20220526181F21031ZZ              AVSSHCS-S 1.25FX2 B/P    CCN000000200000000200FN00000000020220601000000200NNM   20220406170155    1W    00000020000004267300000000032DE    TVYEV-TV000000000000VT225039
BI00B32DE    @TT2062        20220519181AD2002ZZ              CIVUSAS-S 0.35X2 B       CCN000002250000002250FN00000000020220601000002250NNM   20220406170155    1W    00000045000001713700000000032DE    TVYEV-TV000000000000VT125018
BI00B32DE    @TT2063        20220526181AD2002ZZ              CIVUSAS-S 0.35X2 B       CCN000006750000006750FN00000000020220601000006750NNM   20220406170155    1W    00000045000001713700000000032DE    TVYEV-TV000000000000VT225017
BI00B32DE    @TT2064        20220602181AD2002ZZ              CIVUSAS-S 0.35X2 B       CCN000006300000006300FN00000000020220601000006300NNM   20220406170155    1W    00000045000001713700000000032DE    TVYEV-TV000000000000VT325018
BI00B32DE    @TT2063        20220526181AD2003ZZ              CIVUSAS-S 0.35X3 B       CCN000003500000003500FN00000000020220601000003500NNM   20220406170155    1W    00000035000002172100000000032DE    TVYEV-TV000000000000VT225018
BI00B32DE    @TT2064        20220602181AD2003ZZ              CIVUSAS-S 0.35X3 B       CCN000004550000004550FN00000000020220601000004550NNM   20220406170155    1W    00000035000002172100000000032DE    TVYEV-TV000000000000VT325019
BI00B32DE    @TT2064        20220602181AD2004ZZ              CIVUSAS-S 0.35X4 B       CCN000000600000000600FN00000000020220601000000600NNM   20220406170155    1W    00000030000002799900000000032DE    TVYEV-TV000000000000VT325020
BI00B32DG    @RH2061        20220512181E48048ZZ              CAVSAS-S 0.3X2 GY/O      CCN000002100000002100FN00000000020220601000002100NNM   20220406170155    1W    00000035000002008700000000032DG    BFSAIBF 000000000000GY424002
BI00B32DG    @RH2062        20220519181E48048ZZ              CAVSAS-S 0.3X2 GY/O      CCN000002100000002100FN00000000020220601000002100NNM   20220406170155    1W    00000035000002008700000000032DG    BFSAIBF 000000000000GY125002
BI00B32DG    @RH2063        20220526181E48048ZZ              CAVSAS-S 0.3X2 GY/O      CCN000002100000002100FN00000000020220601000002100NNM   20220406170155    1W    00000035000002008700000000032DG    BFSAIBF 000000000000GY225002
BI00B32DG    @RH2064        20220602181E48048ZZ              CAVSAS-S 0.3X2 GY/O      CCN000001050000001050FN00000000020220601000001050NNM   20220406170155    1W    00000035000002008700000000032DG    BFSAIBF 000000000000GY325002
BI00B32DG    @RH2061        20220512181E50009ZZ              AVSSCS-S 0.5FX2 DGY/W    CCN000000600000000600FN00000000020220601000000600NNM   20220406170155    1W    00000030000003096000000000032DG    BFSAIBF 000000000000GY424004
BI00B32DG    @RH2062        20220519181E50009ZZ              AVSSCS-S 0.5FX2 DGY/W    CCN000000600000000600FN00000000020220601000000600NNM   20220406170155    1W    00000030000003096000000000032DG    BFSAIBF 000000000000GY125004
BI00B32DG    @RH2063        20220526181E50009ZZ              AVSSCS-S 0.5FX2 DGY/W    CCN000000600000000600FN00000000020220601000000600NNM   20220406170155    1W    00000030000003096000000000032DG    BFSAIBF 000000000000GY225004
BI00B32DG    @RH2061        20220512181E48010ZZ              CAVSAS-S 0.3X1 GY/R      CCN000002000000002000FN00000000020220601000002000NNM   20220406170155    1W    00000050000001529500000000032DG    BFSAIBF 000000000000GY424001
BI00B32DG    @RH2062        20220519181E48010ZZ              CAVSAS-S 0.3X1 GY/R      CCN000002000000002000FN00000000020220601000002000NNM   20220406170155    1W    00000050000001529500000000032DG    BFSAIBF 000000000000GY125001
BI00B32DG    @RH2063        20220526181E48010ZZ              CAVSAS-S 0.3X1 GY/R      CCN000002000000002000FN00000000020220601000002000NNM   20220406170155    1W    00000050000001529500000000032DG    BFSAIBF 000000000000GY225001
BI00B32DG    @RH2064        20220602181E48010ZZ              CAVSAS-S 0.3X1 GY/R      CCN000001000000001000FN00000000020220601000001000NNM   20220406170155    1W    00000050000001529500000000032DG    BFSAIBF 000000000000GY325001
BI00B32DG    @RH2061        20220512181E50016ZZ              AVSSCS-S 0.5FX2 DGY/R    CCN000000600000000600FN00000000020220601000000600NNM   20220406170155    1W    00000030000003096000000000032DG    BFSAIBF 000000000000GY424003
BI00B32DG    @RH2062        20220519181E50016ZZ              AVSSCS-S 0.5FX2 DGY/R    CCN000000600000000600FN00000000020220601000000600NNM   20220406170155    1W    00000030000003096000000000032DG    BFSAIBF 000000000000GY125003
BI00B32DG    @RH2063        20220526181E50016ZZ              AVSSCS-S 0.5FX2 DGY/R    CCN000000600000000600FN00000000020220601000000600NNM   20220406170155    1W    00000030000003096000000000032DG    BFSAIBF 000000000000GY225003
BI00B32DG    @RH2064        20220602181E50016ZZ              AVSSCS-S 0.5FX2 DGY/R    CCN000000600000000600FN00000000020220601000000600NNM   20220406170155    1W    00000030000003096000000000032DG    BFSAIBF 000000000000GY325003
BI00B32DG    @RH2061        20220512181E50011ZZ              AVSSCS-S 0.5FX2 DGY/Y    CCN000002700000002700FN00000000020220601000002700NNM   20220406170155    1W    00000030000003096000000000032DG    BFSAIBF 000000000000GY424005
BI00B32DG    @RH2062        20220519181E50011ZZ              AVSSCS-S 0.5FX2 DGY/Y    CCN000002700000002700FN00000000020220601000002700NNM   20220406170155    1W    00000030000003096000000000032DG    BFSAIBF 000000000000GY125005
BI00B32DG    @RH2063        20220526181E50011ZZ              AVSSCS-S 0.5FX2 DGY/Y    CCN000002700000002700FN00000000020220601000002700NNM   20220406170155    1W    00000030000003096000000000032DG    BFSAIBF 000000000000GY225005
BI00B32DG    @RH2064        20220602181E50011ZZ              AVSSCS-S 0.5FX2 DGY/Y    CCN000002400000002400FN00000000020220601000002400NNM   20220406170155    1W    00000030000003096000000000032DG    BFSAIBF 000000000000GY325004
BI00B32DG    RW2061         202205121801W006980              IVSSH 0.35F BR           CCN000012500000012500FN00000000020220601000012500NNM   20220406170155    1W    00000250000000452000000000032DG    BFSAIBF 000000000000GZ424021
BI00B32DG    RW2062         202205191801W006980              IVSSH 0.35F BR           CCN000012500000012500FN00000000020220601000012500NNM   20220406170155    1W    00000250000000452000000000032DG    BFSAIBF 000000000000GZ125020
BI00B32DG    RW2063         202205261801W006980              IVSSH 0.35F BR           CCN000012500000012500FN00000000020220601000012500NNM   20220406170155    1W    00000250000000452000000000032DG    BFSAIBF 000000000000GZ225017
BI00B32DG    RW2064         202206021801W006980              IVSSH 0.35F BR           CCN000010000000010000FN00000000020220601000010000NNM   20220406170155    1W    00000250000000452000000000032DG    BFSAIBF 000000000000GZ325012
BI00B32DG    RW2061         202205121801W006960              IVSSH 0.35F G            CCN000007500000007500FN00000000020220601000007500NNM   20220406170155    1W    00000250000000452000000000032DG    BFSAIBF 000000000000GZ424022
BI00B32DG    RW2062         202205191801W006960              IVSSH 0.35F G            CCN000007500000007500FN00000000020220601000007500NNM   20220406170155    1W    00000250000000452000000000032DG    BFSAIBF 000000000000GZ125021
BI00B32DG    RW2063         202205261801W006960              IVSSH 0.35F G            CCN000007500000007500FN00000000020220601000007500NNM   20220406170155    1W    00000250000000452000000000032DG    BFSAIBF 000000000000GZ225018
BI00B32DG    RW2064         202206021801W006960              IVSSH 0.35F G            CCN000005000000005000FN00000000020220601000005000NNM   20220406170155    1W    00000250000000452000000000032DG    BFSAIBF 000000000000GZ325013
BI00B32DG    RW2061         202205121801W006941              IVSSH 0.35F GY           CCN000012500000012500FN00000000020220601000012500NNM   20220406170155    1W    00000250000000452000000000032DG    BFSAIBF 000000000000GZ424023
BI00B32DG    RW2062         202205191801W006941              IVSSH 0.35F GY           CCN000012500000012500FN00000000020220601000012500NNM   20220406170155    1W    00000250000000452000000000032DG    BFSAIBF 000000000000GZ125022
BI00B32DG    RW2063         202205261801W006941              IVSSH 0.35F GY           CCN000012500000012500FN00000000020220601000012500NNM   20220406170155    1W    00000250000000452000000000032DG    BFSAIBF 000000000000GZ225019
BI00B32DG    RW2064         202206021801W006941              IVSSH 0.35F GY           CCN000005000000005000FN00000000020220601000005000NNM   20220406170155    1W    00000250000000452000000000032DG    BFSAIBF 000000000000GZ325014
BI00B32DG    RW2061         202205121801W006990              IVSSH 0.35F L            CCN000017500000017500FN00000000020220601000017500NNM   20220406170155    1W    00000250000000452000000000032DG    BFSAIBF 000000000000GZ424024
BI00B32DG    RW2062         202205191801W006990              IVSSH 0.35F L            CCN000017500000017500FN00000000020220601000017500NNM   20220406170155    1W    00000250000000452000000000032DG    BFSAIBF 000000000000GZ125023
BI00B32DG    RW2063         202205261801W006990              IVSSH 0.35F L            CCN000017500000017500FN00000000020220601000017500NNM   20220406170155    1W    00000250000000452000000000032DG    BFSAIBF 000000000000GZ225020
BI00B32DG    RW2064         202206021801W006990              IVSSH 0.35F L            CCN000015000000015000FN00000000020220601000015000NNM   20220406170155    1W    00000250000000452000000000032DG    BFSAIBF 000000000000GZ325015
BI00B32DG    RW2061         202205121801W006961              IVSSH 0.35F LG           CCN000007500000007500FN00000000020220601000007500NNM   20220406170155    1W    00000250000000452000000000032DG    BFSAIBF 000000000000GZ424025
BI00B32DG    RW2062         202205191801W006961              IVSSH 0.35F LG           CCN000007500000007500FN00000000020220601000007500NNM   20220406170155    1W    00000250000000452000000000032DG    BFSAIBF 000000000000GZ125024
BI00B32DG    RW2063         202205261801W006961              IVSSH 0.35F LG           CCN000007500000007500FN00000000020220601000007500NNM   20220406170155    1W    00000250000000452000000000032DG    BFSAIBF 000000000000GZ225021
BI00B32DG    RW2064         202206021801W006961              IVSSH 0.35F LG           CCN000005000000005000FN00000000020220601000005000NNM   20220406170155    1W    00000250000000452000000000032DG    BFSAIBF 000000000000GZ325016
BI00B32DG    RW2061         202205121801W006952              IVSSH 0.35F P            CCN000007500000007500FN00000000020220601000007500NNM   20220406170155    1W    00000250000000452000000000032DG    BFSAIBF 000000000000GZ424026
BI00B32DG    RW2062         202205191801W006952              IVSSH 0.35F P            CCN000007500000007500FN00000000020220601000007500NNM   20220406170155    1W    00000250000000452000000000032DG    BFSAIBF 000000000000GZ125025
BI00B32DG    RW2063         202205261801W006952              IVSSH 0.35F P            CCN000007500000007500FN00000000020220601000007500NNM   20220406170155    1W    00000250000000452000000000032DG    BFSAIBF 000000000000GZ225022
BI00B32DG    RW2064         202206021801W006952              IVSSH 0.35F P            CCN000005000000005000FN00000000020220601000005000NNM   20220406170155    1W    00000250000000452000000000032DG    BFSAIBF 000000000000GZ325017
BI00B32DG    RW2061         202205121801W006950              IVSSH 0.35F R            CCN000015000000015000FN00000000020220601000015000NNM   20220406170155    1W    00000250000000452000000000032DG    BFSAIBF 000000000000GZ424027
BI00B32DG    RW2062         202205191801W006950              IVSSH 0.35F R            CCN000015000000015000FN00000000020220601000015000NNM   20220406170155    1W    00000250000000452000000000032DG    BFSAIBF 000000000000GZ125026
BI00B32DG    RW2063         202205261801W006950              IVSSH 0.35F R            CCN000015000000015000FN00000000020220601000015000NNM   20220406170155    1W    00000250000000452000000000032DG    BFSAIBF 000000000000GZ225023
BI00B32DG    RW2064         202206021801W006950              IVSSH 0.35F R            CCN000010000000010000FN00000000020220601000010000NNM   20220406170155    1W    00000250000000452000000000032DG    BFSAIBF 000000000000GZ325018
BI00B32DG    RW2061         202205121801W006991              IVSSH 0.35F SB           CCN000015000000015000FN00000000020220601000015000NNM   20220406170155    1W    00000250000000452000000000032DG    BFSAIBF 000000000000GZ424028
BI00B32DG    RW2062         202205191801W006991              IVSSH 0.35F SB           CCN000015000000015000FN00000000020220601000015000NNM   20220406170155    1W    00000250000000452000000000032DG    BFSAIBF 000000000000GZ125027
BI00B32DG    RW2063         202205261801W006991              IVSSH 0.35F SB           CCN000015000000015000FN00000000020220601000015000NNM   20220406170155    1W    00000250000000452000000000032DG    BFSAIBF 000000000000GZ225024
BI00B32DG    RW2064         202206021801W006991              IVSSH 0.35F SB           CCN000007500000007500FN00000000020220601000007500NNM   20220406170155    1W    00000250000000452000000000032DG    BFSAIBF 000000000000GZ325019
BI00B32DG    RW2061         202205121801W006992              IVSSH 0.35F V            CCN000012500000012500FN00000000020220601000012500NNM   20220406170155    1W    00000250000000452000000000032DG    BFSAIBF 000000000000GZ424029
BI00B32DG    RW2062         202205191801W006992              IVSSH 0.35F V            CCN000012500000012500FN00000000020220601000012500NNM   20220406170155    1W    00000250000000452000000000032DG    BFSAIBF 000000000000GZ125028
BI00B32DG    RW2063         202205261801W006992              IVSSH 0.35F V            CCN000012500000012500FN00000000020220601000012500NNM   20220406170155    1W    00000250000000452000000000032DG    BFSAIBF 000000000000GZ225025
BI00B32DG    RW2064         202206021801W006992              IVSSH 0.35F V            CCN000005000000005000FN00000000020220601000005000NNM   20220406170155    1W    00000250000000452000000000032DG    BFSAIBF 000000000000GZ325020
BI00B32DG    RW2061         202205121801W006940              IVSSH 0.35F W            CCN000005000000005000FN00000000020220601000005000NNM   20220406170155    1W    00000250000000452000000000032DG    BFSAIBF 000000000000GZ424030
BI00B32DG    RW2062         202205191801W006940              IVSSH 0.35F W            CCN000005000000005000FN00000000020220601000005000NNM   20220406170155    1W    00000250000000452000000000032DG    BFSAIBF 000000000000GZ125029
BI00B32DG    RW2063         202205261801W006940              IVSSH 0.35F W            CCN000002500000002500FN00000000020220601000002500NNM   20220406170155    1W    00000250000000452000000000032DG    BFSAIBF 000000000000GZ225026
BI00B32DG    RW2061         202205121801W006943              IVSSH 0.35F W/B          CCN000002500000002500FN00000000020220601000002500NNM   20220406170155    1W    00000250000000452000000000032DG    BFSAIBF 000000000000GZ424031
BI00B32DG    RW2062         202205191801W006943              IVSSH 0.35F W/B          CCN000002500000002500FN00000000020220601000002500NNM   20220406170155    1W    00000250000000452000000000032DG    BFSAIBF 000000000000GZ125030
BI00B32DG    RW2061         202205121801W006970              IVSSH 0.35F Y            CCN000005000000005000FN00000000020220601000005000NNM   20220406170155    1W    00000250000000452000000000032DG    BFSAIBF 000000000000GZ424032
BI00B32DG    RW2062         202205191801W006970              IVSSH 0.35F Y            CCN000005000000005000FN00000000020220601000005000NNM   20220406170155    1W    00000250000000452000000000032DG    BFSAIBF 000000000000GZ125031
BI00B32DG    RW2063         202205261801W006970              IVSSH 0.35F Y            CCN000002500000002500FN00000000020220601000002500NNM   20220406170155    1W    00000250000000452000000000032DG    BFSAIBF 000000000000GZ225027
BI00B32DG    RW2061         202205121801W003960              IVSSH 0.5F G             CCN000016200000016200FN00000000020220601000016200NNM   20220406170155    1W    00000180000000625000000000032DG    BFSAIBF 000000000000GZ424011
BI00B32DG    RW2062         202205191801W003960              IVSSH 0.5F G             CCN000016200000016200FN00000000020220601000016200NNM   20220406170155    1W    00000180000000625000000000032DG    BFSAIBF 000000000000GZ125010
BI00B32DG    RW2063         202205261801W003960              IVSSH 0.5F G             CCN000016200000016200FN00000000020220601000016200NNM   20220406170155    1W    00000180000000625000000000032DG    BFSAIBF 000000000000GZ225007
BI00B32DG    RW2064         202206021801W003960              IVSSH 0.5F G             CCN000010800000010800FN00000000020220601000010800NNM   20220406170155    1W    00000180000000625000000000032DG    BFSAIBF 000000000000GZ325002
BI00B32DG    RW2061         202205121801W003941              IVSSH 0.5F GY            CCN000005400000005400FN00000000020220601000005400NNM   20220406170155    1W    00000180000000625000000000032DG    BFSAIBF 000000000000GZ424012
BI00B32DG    RW2062         202205191801W003941              IVSSH 0.5F GY            CCN000005400000005400FN00000000020220601000005400NNM   20220406170155    1W    00000180000000625000000000032DG    BFSAIBF 000000000000GZ125011
BI00B32DG    RW2063         202205261801W003941              IVSSH 0.5F GY            CCN000005400000005400FN00000000020220601000005400NNM   20220406170155    1W    00000180000000625000000000032DG    BFSAIBF 000000000000GZ225008
BI00B32DG    RW2064         202206021801W003941              IVSSH 0.5F GY            CCN000003600000003600FN00000000020220601000003600NNM   20220406170155    1W    00000180000000625000000000032DG    BFSAIBF 000000000000GZ325003
BI00B32DG    RW2061         202205121801W003990              IVSSH 0.5F L             CCN000009000000009000FN00000000020220601000009000NNM   20220406170155    1W    00000180000000625000000000032DG    BFSAIBF 000000000000GZ424013
BI00B32DG    RW2062         202205191801W003990              IVSSH 0.5F L             CCN000009000000009000FN00000000020220601000009000NNM   20220406170155    1W    00000180000000625000000000032DG    BFSAIBF 000000000000GZ125012
BI00B32DG    RW2063         202205261801W003990              IVSSH 0.5F L             CCN000009000000009000FN00000000020220601000009000NNM   20220406170155    1W    00000180000000625000000000032DG    BFSAIBF 000000000000GZ225009
BI00B32DG    RW2064         202206021801W003990              IVSSH 0.5F L             CCN000005400000005400FN00000000020220601000005400NNM   20220406170155    1W    00000180000000625000000000032DG    BFSAIBF 000000000000GZ325004
BI00B32DG    RW2061         202205121801W003952              IVSSH 0.5F P             CCN000003600000003600FN00000000020220601000003600NNM   20220406170155    1W    00000180000000625000000000032DG    BFSAIBF 000000000000GZ424015
BI00B32DG    RW2062         202205191801W003952              IVSSH 0.5F P             CCN000003600000003600FN00000000020220601000003600NNM   20220406170155    1W    00000180000000625000000000032DG    BFSAIBF 000000000000GZ125014
BI00B32DG    RW2063         202205261801W003952              IVSSH 0.5F P             CCN000003600000003600FN00000000020220601000003600NNM   20220406170155    1W    00000180000000625000000000032DG    BFSAIBF 000000000000GZ225011
BI00B32DG    RW2064         202206021801W003952              IVSSH 0.5F P             CCN000001800000001800FN00000000020220601000001800NNM   20220406170155    1W    00000180000000625000000000032DG    BFSAIBF 000000000000GZ325006
BI00B32DG    RW2061         202205121801W003992              IVSSH 0.5F V             CCN000005400000005400FN00000000020220601000005400NNM   20220406170155    1W    00000180000000625000000000032DG    BFSAIBF 000000000000GZ424017
BI00B32DG    RW2062         202205191801W003992              IVSSH 0.5F V             CCN000005400000005400FN00000000020220601000005400NNM   20220406170155    1W    00000180000000625000000000032DG    BFSAIBF 000000000000GZ125016
BI00B32DG    RW2063         202205261801W003992              IVSSH 0.5F V             CCN000005400000005400FN00000000020220601000005400NNM   20220406170155    1W    00000180000000625000000000032DG    BFSAIBF 000000000000GZ225013
BI00B32DG    RW2064         202206021801W003992              IVSSH 0.5F V             CCN000001800000001800FN00000000020220601000001800NNM   20220406170155    1W    00000180000000625000000000032DG    BFSAIBF 000000000000GZ325008
BI00B32DG    RW2061         202205121801W003940              IVSSH 0.5F W             CCN000007200000007200FN00000000020220601000007200NNM   20220406170155    1W    00000180000000625000000000032DG    BFSAIBF 000000000000GZ424018
BI00B32DG    RW2062         202205191801W003940              IVSSH 0.5F W             CCN000007200000007200FN00000000020220601000007200NNM   20220406170155    1W    00000180000000625000000000032DG    BFSAIBF 000000000000GZ125017
BI00B32DG    RW2063         202205261801W003940              IVSSH 0.5F W             CCN000007200000007200FN00000000020220601000007200NNM   20220406170155    1W    00000180000000625000000000032DG    BFSAIBF 000000000000GZ225014
BI00B32DG    RW2064         202206021801W003940              IVSSH 0.5F W             CCN000005400000005400FN00000000020220601000005400NNM   20220406170155    1W    00000180000000625000000000032DG    BFSAIBF 000000000000GZ325009
BI00B32DG    RW2061         202205121801W003970              IVSSH 0.5F Y             CCN000001800000001800FN00000000020220601000001800NNM   20220406170155    1W    00000180000000625000000000032DG    BFSAIBF 000000000000GZ424020
BI00B32DG    RW2062         202205191801W003970              IVSSH 0.5F Y             CCN000001800000001800FN00000000020220601000001800NNM   20220406170155    1W    00000180000000625000000000032DG    BFSAIBF 000000000000GZ125019
BI00B32DG    RW2063         202205261801W003970              IVSSH 0.5F Y             CCN000001800000001800FN00000000020220601000001800NNM   20220406170155    1W    00000180000000625000000000032DG    BFSAIBF 000000000000GZ225016
BI00B32DG    RW2064         202206021801W003970              IVSSH 0.5F Y             CCN000001800000001800FN00000000020220601000001800NNM   20220406170155    1W    00000180000000625000000000032DG    BFSAIBF 000000000000GZ325011
BI00B32DG    RW2061         202205121801W00395U              IVSSH 0.5F BE            CCN000005400000005400FN00000000020220601000005400NNM   20220406170155    1W    00000180000000625000000000032DG    BFSAIBF 000000000000GZ424009
BI00B32DG    RW2062         202205191801W00395U              IVSSH 0.5F BE            CCN000005400000005400FN00000000020220601000005400NNM   20220406170155    1W    00000180000000625000000000032DG    BFSAIBF 000000000000GZ125008
BI00B32DG    RW2063         202205261801W00395U              IVSSH 0.5F BE            CCN000005400000005400FN00000000020220601000005400NNM   20220406170155    1W    00000180000000625000000000032DG    BFSAIBF 000000000000GZ225005
BI00B32DG    RW2061         202205121801W003950              IVSSH 0.5F R             CCN000001800000001800FN00000000020220601000001800NNM   20220406170155    1W    00000180000000625000000000032DG    BFSAIBF 000000000000GZ424016
BI00B32DG    RW2062         202205191801W003950              IVSSH 0.5F R             CCN000001800000001800FN00000000020220601000001800NNM   20220406170155    1W    00000180000000625000000000032DG    BFSAIBF 000000000000GZ125015
BI00B32DG    RW2063         202205261801W003950              IVSSH 0.5F R             CCN000001800000001800FN00000000020220601000001800NNM   20220406170155    1W    00000180000000625000000000032DG    BFSAIBF 000000000000GZ225012
BI00B32DG    RW2064         202206021801W003950              IVSSH 0.5F R             CCN000001800000001800FN00000000020220601000001800NNM   20220406170155    1W    00000180000000625000000000032DG    BFSAIBF 000000000000GZ325007
BI00B32DG    RW2061         202205121801W003943              IVSSH 0.5F W/B           CCN000001800000001800FN00000000020220601000001800NNM   20220406170155    1W    00000180000000625000000000032DG    BFSAIBF 000000000000GZ424019
BI00B32DG    RW2062         202205191801W003943              IVSSH 0.5F W/B           CCN000001800000001800FN00000000020220601000001800NNM   20220406170155    1W    00000180000000625000000000032DG    BFSAIBF 000000000000GZ125018
BI00B32DG    RW2063         202205261801W003943              IVSSH 0.5F W/B           CCN000001800000001800FN00000000020220601000001800NNM   20220406170155    1W    00000180000000625000000000032DG    BFSAIBF 000000000000GZ225015
BI00B32DG    RW2064         202206021801W003943              IVSSH 0.5F W/B           CCN000001800000001800FN00000000020220601000001800NNM   20220406170155    1W    00000180000000625000000000032DG    BFSAIBF 000000000000GZ325010
BI00B32DG    RW2061         202205121801W003980              IVSSH 0.5F BR            CCN000005400000005400FN00000000020220601000005400NNM   20220406170155    1W    00000180000000625000000000032DG    BFSAIBF 000000000000GZ424010
BI00B32DG    RW2062         202205191801W003980              IVSSH 0.5F BR            CCN000005400000005400FN00000000020220601000005400NNM   20220406170155    1W    00000180000000625000000000032DG    BFSAIBF 000000000000GZ125009
BI00B32DG    RW2063         202205261801W003980              IVSSH 0.5F BR            CCN000005400000005400FN00000000020220601000005400NNM   20220406170155    1W    00000180000000625000000000032DG    BFSAIBF 000000000000GZ225006
BI00B32DG    RW2061         202205121801W003961              IVSSH 0.5F LG            CCN000007200000007200FN00000000020220601000007200NNM   20220406170155    1W    00000180000000625000000000032DG    BFSAIBF 000000000000GZ424014
BI00B32DG    RW2062         202205191801W003961              IVSSH 0.5F LG            CCN000007200000007200FN00000000020220601000007200NNM   20220406170155    1W    00000180000000625000000000032DG    BFSAIBF 000000000000GZ125013
BI00B32DG    RW2063         202205261801W003961              IVSSH 0.5F LG            CCN000007200000007200FN00000000020220601000007200NNM   20220406170155    1W    00000180000000625000000000032DG    BFSAIBF 000000000000GZ225010
BI00B32DG    RW2064         202206021801W003961              IVSSH 0.5F LG            CCN000005400000005400FN00000000020220601000005400NNM   20220406170155    1W    00000180000000625000000000032DG    BFSAIBF 000000000000GZ325005
BI00B32G0    TZ22071EMW     2022052418007703730              AVSS 0.3F B              CCN000010000000010000FN00000000020220701000010000NNM   20220406170155    1W    00000200000000496000000000032G0    TTTJY   000000000000NE225050
BI00B32G0    TZ22071EMW     2022052418007703760              AVSS 0.3F G              CCN000002000000002000FN00000000020220701000002000NNM   20220406170155    1W    00000200000000496000000000032G0    TTTJY   000000000000NE225051
BI00B32G0    TZ22072EMW     2022053118007703760              AVSS 0.3F G              CCN000002000000002000FN00000000020220701000002000NNM   20220406170155    1W    00000200000000496000000000032G0    TTTJY   000000000000NE325043
BI00B32G0    TZ22071EMW     2022052418007703752              AVSS 0.3F P              CCN000010000000010000FN00000000020220701000010000NNM   20220406170155    1W    00000200000000496000000000032G0    TTTJY   000000000000NE225052
BI00B32G0    TZ22071EMW     2022052418007703750              AVSS 0.3F R              CCN000008000000008000FN00000000020220701000008000NNM   20220406170155    1W    00000200000000496000000000032G0    TTTJY   000000000000NE225053
BI00B32G0    TZ22071EMW     2022052418007703792              AVSS 0.3F V              CCN000014000000014000FN00000000020220701000014000NNM   20220406170155    1W    00000200000000496000000000032G0    TTTJY   000000000000NE225054
BI00B32G0    TZ22072EMW     2022053118007703792              AVSS 0.3F V              CCN000008000000008000FN00000000020220701000008000NNM   20220406170155    1W    00000200000000496000000000032G0    TTTJY   000000000000NE325044
BI00B32G0    TZ22071EMW     20220524180D0203760              AVSSH 0.3F G             CCN000016000000016000FN00000000020220701000016000NNM   20220406170155    1W    00000200000000515000000000032G0    TTTJY   000000000000NE225037
BI00B32G0    TZ22072EMW     20220531180D0203760              AVSSH 0.3F G             CCN000016000000016000FN00000000020220701000016000NNM   20220406170155    1W    00000200000000515000000000032G0    TTTJY   000000000000NE325034
