BI00A1200    7360T52301     202205127288-3329-30             HOUSING MALE             CCN000006000000006000FN00000000020220501000006000NNMM0020220406144247    4N0N  0000015000000086610000101111200    YCYC    005400370024
BI00A1200    7360T52302     202205197288-3329-30             HOUSING MALE             CCN000006000000006000FN00000000020220501000006000NNMM0020220406144321    4N0N  0000015000000086610000101111200    YCYC    005400370024
BI00A1200    7360T52302     202205057288-3334-30             HOUSING MALE             CCN000003000000003000FN00000000020220501000003000NNMM0020220406144357    4N0N  0000015000000086700000101201200    YCYC    005400370024
BI00A1200    7360T52303     202205197288-3334-30             HOUSING MALE             CCN000003000000003000FN00000000020220501000003000NNMM0020220406144430    4N0N  0000015000000086700000101201200    YCYC    005400370024
BI00A1200    7360T52301     202205197288-3340-30             HOUSING MALE             CCN000001500000001500FN00000000020220501000001500NNMM0020220406144459    4N0N  0000015000000086150000100641200    YCYC    005400370024
BI00A1200    7360T52302     202205267288-3340-30             HOUSING MALE             CCN000001500000001500FN00000000020220501000001500NNMM0020220406144523    4N0N  0000015000000086150000100641200    YCYC    005400370024
BI00B1200    8000T52401     202204287137-3047-30             UNIT PACKING             CCN000015000000015000FN00000000020220501000015000NNM   20220406133115    1C0C  0000010000000017050000021891200    YCYC    002700430014
BI00B1200    8000T52403     202205197137-3047-30             UNIT PACKING             CCN000020000000020000FN00000000020220501000020000NNM   20220406133115    1C0C  0000010000000017050000021891200    YCYC    002700430014
BI00B1200    8000T52401     202204287172-5402-30             SEAL RUBBER              CCN000016000000016000FN00000000020220501000016000NNM   20220406133115    1C0C  0000080000000045760000050601200    YCYC    004300270014
BI00B1200    8000T52402     202205057172-5402-30             SEAL RUBBER              CCN000016000000016000FN00000000020220501000016000NNM   20220406133115    1C0C  0000080000000045760000050601200    YCYC    004300270014
BI00B1200    8000T52403     202205197172-5402-30             SEAL RUBBER              CCN000016000000016000FN00000000020220501000016000NNM   20220406133115    1C0C  0000080000000045760000050601200    YCYC    004300270014
BI00B1200    8000T52404     202205267172-5402-30             SEAL RUBBER              CCN000016000000016000FN00000000020220501000016000NNM   20220406133115    1C0C  0000080000000045760000050601200    YCYC    004300270014
BI00B1200    8000T52405     202206027172-5402-30             SEAL RUBBER              CCN000008000000008000FN00000000020220501000008000NNM   20220406133115    1C0C  0000080000000045760000050601200    YCYC    004300270014
BI00B1200    8000T52401     202204287172-5403-30             SEALED PACKING           CCN000016000000016000FN00000000020220501000016000NNM   20220406133115    1C0C  0000040000000065360000070171200    YCYC    004300270014
BI00B1200    8000T52402     202205057172-5403-30             SEALED PACKING           CCN000016000000016000FN00000000020220501000016000NNM   20220406133115    1C0C  0000040000000065360000070171200    YCYC    004300270014
BI00B1200    8000T52403     202205197172-5403-30             SEALED PACKING           CCN000016000000016000FN00000000020220501000016000NNM   20220406133115    1C0C  0000040000000065360000070171200    YCYC    004300270014
BI00B1200    8000T52404     202205267172-5403-30             SEALED PACKING           CCN000016000000016000FN00000000020220501000016000NNM   20220406133115    1C0C  0000040000000065360000070171200    YCYC    004300270014
BI00B1200    8000T52405     202206027172-5403-30             SEALED PACKING           CCN000008000000008000FN00000000020220501000008000NNM   20220406133115    1C0C  0000040000000065360000070171200    YCYC    004300270014
BI00B1200    8000T52406     202206167137-3047-30             UNIT PACKING             CCN000015000000015000FN00000000020220701000015000NNM   20220406133141    1C0C  0000010000000017050000021891200    YCYC    002700430014
BI00B1200    8000T52406     202206167172-5402-30             SEAL RUBBER              CCN000016000000016000FN00000000020220701000016000NNM   20220406133141    1C0C  0000080000000045760000050601200    YCYC    004300270014
BI00B1200    8000T52407     202206237172-5402-30             SEAL RUBBER              CCN000016000000016000FN00000000020220701000016000NNM   20220406133141    1C0C  0000080000000045760000050601200    YCYC    004300270014
BI00B1200    8000T52406     202206167172-5403-30             SEALED PACKING           CCN000016000000016000FN00000000020220701000016000NNM   20220406133141    1C0C  0000040000000065360000070171200    YCYC    004300270014
BI00B1200    8000T52407     202206237172-5403-30             SEALED PACKING           CCN000016000000016000FN00000000020220701000016000NNM   20220406133141    1C0C  0000040000000065360000070171200    YCYC    004300270014
BI00B1200    O022F50280     202205197289-4696-30             HOUSING FEMALE ASS'Y     CCN000006000000006000FN00000000020220601000006000NNE   20220406133235    4N0N  0000020000000091340000105541200    YCYC    005400370024
BI00B1200    O022H50013     202207077116-4100-02             TERMINAL                 CCN000030000000030000FN00000000020220801000030000NNE   20220406133318    4P0P  0000150000000069600000099021200    YCYC    006400630015
BI00B32CJ    JQN2014        202204227288-6547                CONNECTOR MALE ASS'Y     CCN000003000000000750FN00000000020220101000000750NNMQ0420220406121433    4N0N  00000075000001205300001340332CJ    QNYHVQN 005400370024
BI00B32DE    TCT205D        202204287283-4855-40             CONNECTOR HOUSING        CCN000002400000002400FN00000000020220501000002400NNE   20220406151256    4N0N  00000240000001188400001400032DE    TVYEV-TV005600360039
BI00B32DE    TCT2063        202205267017-1180-02             TERMINAL                 CCN000072000000072000FN00000000020220601000072000NNM   20220406151906    4P0P  00007200000001065600001229032DE    TVYEV-TV005100280028
BI00B32DE    TCT2064        202206027017-1180-02             TERMINAL                 CCN000072000000072000FN00000000020220601000072000NNM   20220406151906    4P0P  00007200000001065600001229032DE    TVYEV-TV005100280028
BI00B32DE    TCT2063        202205267017-1181-02             TERMINAL                 CCN000063000000063000FN00000000020220601000063000NNM   20220406151906    4P0P  00006300000001089900001266832DE    TVYEV-TV005100280028
BI00B32DE    TCT2062        202205197114-4020                TERMINAL                 CCN000042000000042000FN00000000020220601000042000NNM   20220406151906    4P0P  00002100000000875700001169332DE    TVYEV-TV006400630015
BI00B32DE    TCT2063        202205267114-4020                TERMINAL                 CCN000042000000042000FN00000000020220601000042000NNM   20220406151906    4P0P  00002100000000875700001169332DE    TVYEV-TV006400630015
BI00B32DE    TCT2064        202206027114-4020                TERMINAL                 CCN000042000000042000FN00000000020220601000042000NNM   20220406151906    4P0P  00002100000000875700001169332DE    TVYEV-TV006400630015
BI00B32DE    TCT2061        202205127114-4021                TERMINAL                 CCN000030000000030000FN00000000020220601000030000NNM   20220406151906    4P0P  00001500000000670500000964132DE    TVYEV-TV006400630015
BI00B32DE    TCT2062        202205197114-4021                TERMINAL                 CCN000060000000060000FN00000000020220601000060000NNM   20220406151906    4P0P  00001500000000670500000964132DE    TVYEV-TV006400630015
BI00B32DE    TCT2063        202205267114-4021                TERMINAL                 CCN000030000000030000FN00000000020220601000030000NNM   20220406151906    4P0P  00001500000000670500000964132DE    TVYEV-TV006400630015
BI00B32DE    TCT2064        202206027114-4021                TERMINAL                 CCN000045000000045000FN00000000020220601000045000NNM   20220406151906    4P0P  00001500000000670500000964132DE    TVYEV-TV006400630015
BI00B32DE    TCT2061        202205127114-4032                TERMINAL                 CCN000007500000007500FN00000000020220601000007500NNM   20220406151906    4P0P  00000750000000735000001063632DE    TVYEV-TV006400630017
BI00B32DE    TCT2062        202205197114-4032                TERMINAL                 CCN000007500000007500FN00000000020220601000007500NNM   20220406151906    4P0P  00000750000000735000001063632DE    TVYEV-TV006400630017
BI00B32DE    TCT2063        202205267114-4032                TERMINAL                 CCN000007500000007500FN00000000020220601000007500NNM   20220406151906    4P0P  00000750000000735000001063632DE    TVYEV-TV006400630017
BI00B32DE    TCT2064        202206027114-4032                TERMINAL                 CCN000007500000007500FN00000000020220601000007500NNM   20220406151906    4P0P  00000750000000735000001063632DE    TVYEV-TV006400630017
BI00B32DE    TCT2064        202206027114-4110-02             TERMINAL                 CCN000015000000015000FN00000000020220601000015000NNM   20220406151906    4P0P  00001500000000901500001230132DE    TVYEV-TV006400630017
BI00B32DE    TCT2063        202205267114-4112-02             TERMINAL                 CCN000009000000009000FN00000000020220601000009000NNM   20220406151906    4P0P  00000900000000598500000927132DE    TVYEV-TV006400630017
BI00B32DE    TCT2063        202205267114-4231-02             TERMINAL                 CCN000036000000036000FN00000000020220601000036000NNM   20220406151906    4P0P  00001800000000554400000848032DE    TVYEV-TV006400630015
BI00B32DE    TCT2064        202206027114-4231-02             TERMINAL                 CCN000036000000036000FN00000000020220601000036000NNM   20220406151906    4P0P  00001800000000554400000848032DE    TVYEV-TV006400630015
BI00B32DE    TCT2063        202205267114-4624-02             TERMINAL                 CCN000024000000024000FN00000000020220601000024000NNM   20220406151906    4P0P  00002400000000895200001188832DE    TVYEV-TV006400630015
BI00B32DE    TCT2064        202206027114-4624-02             TERMINAL                 CCN000024000000024000FN00000000020220601000024000NNM   20220406151906    4P0P  00002400000000895200001188832DE    TVYEV-TV006400630015
BI00B32DE    TCT2063        202205267114-4728-02             TERMINAL                 CCN000450000000450000FN00000000020220601000450000NNM   20220406151906    4P0P  00003000000000510000000804232DE    TVYEV-TV006400630015
BI00B32DE    TCT2064        202206027114-4728-02             TERMINAL                 CCN000450000000450000FN00000000020220601000450000NNM   20220406151906    4P0P  00003000000000510000000804232DE    TVYEV-TV006400630015
BI00B32DE    TCT2061        202205127114-4729-02             TERMINAL                 CCN000150000000150000FN00000000020220601000150000NNM   20220406151906    4P0P  00003000000000516000000810232DE    TVYEV-TV006400630015
BI00B32DE    TCT2062        202205197114-4729-02             TERMINAL                 CCN000210000000210000FN00000000020220601000210000NNM   20220406151906    4P0P  00003000000000516000000810232DE    TVYEV-TV006400630015
BI00B32DE    TCT2063        202205267114-4729-02             TERMINAL                 CCN000150000000150000FN00000000020220601000150000NNM   20220406151906    4P0P  00003000000000516000000810232DE    TVYEV-TV006400630015
BI00B32DE    TCT2064        202206027114-4729-02             TERMINAL                 CCN000150000000150000FN00000000020220601000150000NNM   20220406151906    4P0P  00003000000000516000000810232DE    TVYEV-TV006400630015
BI00B32DE    TCT2061        202205127114-5746-02             TERMINAL                 CCN000042000000042000FN00000000020220601000042000NNM   20220406151906    4P0P  00002100000000695100000988732DE    TVYEV-TV006400630015
BI00B32DE    TCT2062        202205197114-5746-02             TERMINAL                 CCN000105000000105000FN00000000020220601000105000NNM   20220406151906    4P0P  00002100000000695100000988732DE    TVYEV-TV006400630015
BI00B32DE    TCT2063        202205267114-5746-02             TERMINAL                 CCN000084000000084000FN00000000020220601000084000NNM   20220406151906    4P0P  00002100000000695100000988732DE    TVYEV-TV006400630015
BI00B32DE    TCT2064        202206027114-5746-02             TERMINAL                 CCN000063000000063000FN00000000020220601000063000NNM   20220406151906    4P0P  00002100000000695100000988732DE    TVYEV-TV006400630015
BI00B32DE    TCT2062        202205197114-5747-02             TERMINAL                 CCN000018000000018000FN00000000020220601000018000NNM   20220406151906    4P0P  00001800000000626400000920032DE    TVYEV-TV006400630015
BI00B32DE    TCT2063        202205267114-5747-02             TERMINAL                 CCN000018000000018000FN00000000020220601000018000NNM   20220406151906    4P0P  00001800000000626400000920032DE    TVYEV-TV006400630015
BI00B32DE    TCT2064        202206027114-5747-02             TERMINAL                 CCN000018000000018000FN00000000020220601000018000NNM   20220406151906    4P0P  00001800000000626400000920032DE    TVYEV-TV006400630015
BI00B32DE    TCT2063        202205267114-5748-02             TERMINAL                 CCN000024000000024000FN00000000020220601000024000NNM   20220406151906    4P0P  00001200000000444000000737632DE    TVYEV-TV006400630015
BI00B32DE    TCT2064        202206027114-5748-02             TERMINAL                 CCN000024000000024000FN00000000020220601000024000NNM   20220406151906    4P0P  00001200000000444000000737632DE    TVYEV-TV006400630015
BI00B32DE    TCT2062        202205197114-5753-02             TERMINAL                 CCN000054000000054000FN00000000020220601000054000NNM   20220406151906    4P0P  00002700000000847800001141432DE    TVYEV-TV006400630015
BI00B32DE    TCT2063        202205267114-5753-02             TERMINAL                 CCN000054000000054000FN00000000020220601000054000NNM   20220406151906    4P0P  00002700000000847800001141432DE    TVYEV-TV006400630015
BI00B32DE    TCT2064        202206027114-5753-02             TERMINAL                 CCN000027000000027000FN00000000020220601000027000NNM   20220406151906    4P0P  00002700000000847800001141432DE    TVYEV-TV006400630015
BI00B32DE    TCT2062        202205197116-1685-02             TERMINAL                 CCN000264000000264000FN00000000020220601000264000NNM   20220406151906    4P0P  00002400000000897600001065232DE    TVYEV-TV005100280028
BI00B32DE    TCT2063        202205267116-1685-02             TERMINAL                 CCN000576000000576000FN00000000020220601000576000NNM   20220406151906    4P0P  00002400000000897600001065232DE    TVYEV-TV005100280028
BI00B32DE    TCT2064        202206027116-1685-02             TERMINAL                 CCN000552000000552000FN00000000020220601000552000NNM   20220406151906    4P0P  00002400000000897600001065232DE    TVYEV-TV005100280028
BI00B32DE    TCT2062        202205197116-1686-02             TERMINAL                 CCN000021000000021000FN00000000020220601000021000NNM   20220406151906    4P0P  00002100000000869400001021632DE    TVYEV-TV005100280028
BI00B32DE    TCT2063        202205267116-1686-02             TERMINAL                 CCN000063000000063000FN00000000020220601000063000NNM   20220406151906    4P0P  00002100000000869400001021632DE    TVYEV-TV005100280028
BI00B32DE    TCT2064        202206027116-1686-02             TERMINAL                 CCN000063000000063000FN00000000020220601000063000NNM   20220406151906    4P0P  00002100000000869400001021632DE    TVYEV-TV005100280028
BI00B32DE    TCT2062        202205197116-1688-02             TERMINAL FEMALE          CCN000021000000021000FN00000000020220601000021000NNM   20220406151906    4P0P  00002100000000299600000898832DE    TVYEV-TV005100280028
BI00B32DE    TCT2064        202206027116-1688-02             TERMINAL FEMALE          CCN000021000000021000FN00000000020220601000021000NNM   20220406151906    4P0P  00002100000000299600000898832DE    TVYEV-TV005100280028
BI00B32DE    TCT2063        202205267116-2640                TERMINAL                 CCN000018000000018000FN00000000020220601000018000NNM   20220406151906    4P0P  00001800000001018800001196632DE    TVYEV-TV005100280028
BI00B32DE    TCT2064        202206027116-2640                TERMINAL                 CCN000036000000036000FN00000000020220601000036000NNM   20220406151906    4P0P  00001800000001018800001196632DE    TVYEV-TV005100280028
BI00B32DE    TCT2063        202205267116-2641                TERMINAL                 CCN000054000000054000FN00000000020220601000054000NNM   20220406151906    4P0P  00001800000001161000001344632DE    TVYEV-TV005100280028
BI00B32DE    TCT2064        202206027116-2641                TERMINAL                 CCN000036000000036000FN00000000020220601000036000NNM   20220406151906    4P0P  00001800000001161000001344632DE    TVYEV-TV005100280028
BI00B32DE    TCT2062        202205197116-2891-02             TERMINAL                 CCN000105000000105000FN00000000020220601000105000NNM   20220406151906    4P0P  00001500000000982500001145932DE    TVYEV-TV005100280028
BI00B32DE    TCT2063        202205267116-2891-02             TERMINAL                 CCN000180000000180000FN00000000020220601000180000NNM   20220406151906    4P0P  00001500000000982500001145932DE    TVYEV-TV005100280028
BI00B32DE    TCT2064        202206027116-2891-02             TERMINAL                 CCN000195000000195000FN00000000020220601000195000NNM   20220406151906    4P0P  00001500000000982500001145932DE    TVYEV-TV005100280028
BI00B32DE    TCT2062        202205197116-2892-02             TERMINAL                 CCN000096000000096000FN00000000020220601000096000NNM   20220406151906    4P0P  00001200000000818400000981832DE    TVYEV-TV005100280028
BI00B32DE    TCT2063        202205267116-2892-02             TERMINAL                 CCN000180000000180000FN00000000020220601000180000NNM   20220406151906    4P0P  00001200000000818400000981832DE    TVYEV-TV005100280028
BI00B32DE    TCT2064        202206027116-2892-02             TERMINAL                 CCN000180000000180000FN00000000020220601000180000NNM   20220406151906    4P0P  00001200000000818400000981832DE    TVYEV-TV005100280028
BI00B32DE    TCT2062        202205197116-2893-02             TERMINAL                 CCN000228000000228000FN00000000020220601000228000NNM   20220406151906    4P0P  00001200000000895200001058632DE    TVYEV-TV005100280028
BI00B32DE    TCT2063        202205267116-2893-02             TERMINAL                 CCN000312000000312000FN00000000020220601000312000NNM   20220406151906    4P0P  00001200000000895200001058632DE    TVYEV-TV005100280028
BI00B32DE    TCT2064        202206027116-2893-02             TERMINAL                 CCN000324000000324000FN00000000020220601000324000NNM   20220406151906    4P0P  00001200000000895200001058632DE    TVYEV-TV005100280028
BI00B32DE    TCT2064        202206027116-3153-08             TERMINAL                 CCN000027000000027000FN00000000020220601000027000NNM   20220406151906    4P0P  00002700000000461700000746932DE    TVYEV-TV006400630015
BI00B32DE    TCT2064        202206027116-3154-08             TERMINAL                 CCN000027000000027000FN00000000020220601000027000NNM   20220406151906    4P0P  00002700000000475200000760432DE    TVYEV-TV006400630015
BI00B32DE    TCT2063        202205267116-4025                TERMINAL                 CCN000128000000128000FN00000000020220601000128000NNM   20220406151906    4P0P  00001600000000644800000975132DE    TVYEV-TV006400630017
BI00B32DE    TCT2064        202206027116-4025                TERMINAL                 CCN000144000000144000FN00000000020220601000144000NNM   20220406151906    4P0P  00001600000000644800000975132DE    TVYEV-TV006400630017
BI00B32DE    TCT2063        202205267116-4026                TERMINAL                 CCN000064000000064000FN00000000020220601000064000NNM   20220406151906    4P0P  00001600000000664000000994332DE    TVYEV-TV006400630017
BI00B32DE    TCT2064        202206027116-4026                TERMINAL                 CCN000096000000096000FN00000000020220601000096000NNM   20220406151906    4P0P  00001600000000664000000994332DE    TVYEV-TV006400630017
BI00B32DE    TCT2062        202205197116-4028-08             TERMINAL FEMALE          CCN000112000000112000FN00000000020220601000112000NNM   20220406151906    4P0P  00001600000000652800000981532DE    TVYEV-TV006400630017
BI00B32DE    TCT2063        202205267116-4028-08             TERMINAL FEMALE          CCN000160000000160000FN00000000020220601000160000NNM   20220406151906    4P0P  00001600000000652800000981532DE    TVYEV-TV006400630017
BI00B32DE    TCT2064        202206027116-4028-08             TERMINAL FEMALE          CCN000112000000112000FN00000000020220601000112000NNM   20220406151906    4P0P  00001600000000652800000981532DE    TVYEV-TV006400630017
BI00B32DE    TCT2061        202205127116-4031                TERMINAL                 CCN000007500000007500FN00000000020220601000007500NNM   20220406151906    4P0P  00000750000000619500000904732DE    TVYEV-TV006400630015
BI00B32DE    TCT2062        202205197116-4031                TERMINAL                 CCN000007500000007500FN00000000020220601000007500NNM   20220406151906    4P0P  00000750000000619500000904732DE    TVYEV-TV006400630015
BI00B32DE    TCT2063        202205267116-4031                TERMINAL                 CCN000007500000007500FN00000000020220601000007500NNM   20220406151906    4P0P  00000750000000619500000904732DE    TVYEV-TV006400630015
BI00B32DE    TCT2062        202205197116-4032                TERMINAL                 CCN000042000000042000FN00000000020220601000042000NNM   20220406151906    4P0P  00000600000000532800000818032DE    TVYEV-TV006400630015
BI00B32DE    TCT2063        202205267116-4032                TERMINAL                 CCN000042000000042000FN00000000020220601000042000NNM   20220406151906    4P0P  00000600000000532800000818032DE    TVYEV-TV006400630015
BI00B32DE    TCT2064        202206027116-4032                TERMINAL                 CCN000042000000042000FN00000000020220601000042000NNM   20220406151906    4P0P  00000600000000532800000818032DE    TVYEV-TV006400630015
BI00B32DE    TCT2062        202205197116-4037                TERMINAL                 CCN000042000000042000FN00000000020220601000042000NNM   20220406151906    4P0P  00000600000000600000000894232DE    TVYEV-TV006400630015
BI00B32DE    TCT2063        202205267116-4037                TERMINAL                 CCN000036000000036000FN00000000020220601000036000NNM   20220406151906    4P0P  00000600000000600000000894232DE    TVYEV-TV006400630015
BI00B32DE    TCT2064        202206027116-4037                TERMINAL                 CCN000036000000036000FN00000000020220601000036000NNM   20220406151906    4P0P  00000600000000600000000894232DE    TVYEV-TV006400630015
BI00B32DE    TCT2062        202205197116-4102-02             TERMINAL                 CCN000012000000012000FN00000000020220601000012000NNM   20220406151906    4P0P  00001200000000553200000841432DE    TVYEV-TV006400630015
BI00B32DE    TCT2063        202205267116-4102-02             TERMINAL                 CCN000012000000012000FN00000000020220601000012000NNM   20220406151906    4P0P  00001200000000553200000841432DE    TVYEV-TV006400630015
BI00B32DE    TCT2064        202206027116-4102-02             TERMINAL                 CCN000012000000012000FN00000000020220601000012000NNM   20220406151906    4P0P  00001200000000553200000841432DE    TVYEV-TV006400630015
BI00B32DE    TCT2064        202205127116-4103-02             TERMINAL                 CCN000012000000012000FN00000000020220601000012000NNMD0020220406164133    4P0P  00001200000000571200000859432DE    TVYEV-TV006400630015
BI00B32DE    TCT2062        202205197116-4114-02             TERMINAL                 CCN000010500000010500FN00000000020220601000010500NNM   20220406151906    4P0P  00001050000000693000000981232DE    TVYEV-TV006400630015
BI00B32DE    TCT2063        202205267116-4114-02             TERMINAL                 CCN000021000000021000FN00000000020220601000021000NNM   20220406151906    4P0P  00001050000000693000000981232DE    TVYEV-TV006400630015
BI00B32DE    TCT2064        202206027116-4114-02             TERMINAL                 CCN000021000000021000FN00000000020220601000021000NNM   20220406151906    4P0P  00001050000000693000000981232DE    TVYEV-TV006400630015
BI00B32DE    TCT2064        202206027116-4115-02             TERMINAL                 CCN000008400000008400FN00000000020220601000008400NNM   20220406151906    4P0P  00000840000000593000000881232DE    TVYEV-TV006400630015
BI00B32DE    TCT2062        202205197116-4116-02             TERMINAL                 CCN000013800000013800FN00000000020220601000013800NNM   20220406151906    4P0P  00000690000000517500000805732DE    TVYEV-TV006400630015
BI00B32DE    TCT2063        202205267116-4116-02             TERMINAL                 CCN000013800000013800FN00000000020220601000013800NNM   20220406151906    4P0P  00000690000000517500000805732DE    TVYEV-TV006400630015
BI00B32DE    TCT2064        202206027116-4116-02             TERMINAL                 CCN000013800000013800FN00000000020220601000013800NNM   20220406151906    4P0P  00000690000000517500000805732DE    TVYEV-TV006400630015
BI00B32DE    TCT2061        202205127116-4231-02             TERMINAL                 CCN000130000000130000FN00000000020220601000130000NNM   20220406151906    4P0P  00002600000000683800001012532DE    TVYEV-TV006400630017
BI00B32DE    TCT2062        202205197116-4231-02             TERMINAL                 CCN000234000000234000FN00000000020220601000234000NNM   20220406151906    4P0P  00002600000000683800001012532DE    TVYEV-TV006400630017
BI00B32DE    TCT2063        202205267116-4231-02             TERMINAL                 CCN000156000000156000FN00000000020220601000156000NNM   20220406151906    4P0P  00002600000000683800001012532DE    TVYEV-TV006400630017
BI00B32DE    TCT2064        202206027116-4231-02             TERMINAL                 CCN000182000000182000FN00000000020220601000182000NNM   20220406151906    4P0P  00002600000000683800001012532DE    TVYEV-TV006400630017
BI00B32DE    TCT2061        202205127116-4415-02             TERMINAL                 CCN000038000000038000FN00000000020220601000038000NNM   20220406151906    4P0P  00003800000000596600000925732DE    TVYEV-TV006400630017
BI00B32DE    TCT2062        202205197116-4415-02             TERMINAL                 CCN000190000000190000FN00000000020220601000190000NNM   20220406151906    4P0P  00003800000000596600000925732DE    TVYEV-TV006400630017
BI00B32DE    TCT2063        202205267116-4415-02             TERMINAL                 CCN000114000000114000FN00000000020220601000114000NNM   20220406151906    4P0P  00003800000000596600000925732DE    TVYEV-TV006400630017
BI00B32DE    TCT2064        202206027116-4415-02             TERMINAL                 CCN000152000000152000FN00000000020220601000152000NNM   20220406151906    4P0P  00003800000000596600000925732DE    TVYEV-TV006400630017
BI00B32DE    TCT2062        202205197116-4416-02             TERMINAL                 CCN000032000000032000FN00000000020220601000032000NNM   20220406151906    4P0P  00003200000000518400000847132DE    TVYEV-TV006400630017
BI00B32DE    TCT2063        202205267116-4416-02             TERMINAL                 CCN000064000000064000FN00000000020220601000064000NNM   20220406151906    4P0P  00003200000000518400000847132DE    TVYEV-TV006400630017
BI00B32DE    TCT2064        202206027116-4416-02             TERMINAL                 CCN000032000000032000FN00000000020220601000032000NNM   20220406151906    4P0P  00003200000000518400000847132DE    TVYEV-TV006400630017
BI00B32DE    TCT2063        202205267116-4486-02             TERMINAL                 CCN000084000000084000FN00000000020220601000084000NNM   20220406151906    4P0P  00002800000000666400000995132DE    TVYEV-TV006400630017
BI00B32DE    TCT2064        202206027116-4486-02             TERMINAL                 CCN000056000000056000FN00000000020220601000056000NNM   20220406151906    4P0P  00002800000000666400000995132DE    TVYEV-TV006400630017
BI00B32DE    TCT2062        202205197116-5035-02             TERMINAL                 CCN000120000000120000FN00000000020220601000120000NNM   20220406151906    4P0P  00001500000000543000000828232DE    TVYEV-TV006400630015
BI00B32DE    TCT2063        202205267116-5035-02             TERMINAL                 CCN000090000000090000FN00000000020220601000090000NNM   20220406151906    4P0P  00001500000000543000000828232DE    TVYEV-TV006400630015
BI00B32DE    TCT2064        202206027116-5035-02             TERMINAL                 CCN000075000000075000FN00000000020220601000075000NNM   20220406151906    4P0P  00001500000000543000000828232DE    TVYEV-TV006400630015
BI00B32DE    TCT2061        202205127116-5041-02             TERMINAL                 CCN000090000000090000FN00000000020220601000090000NNM   20220406151906    4P0P  00001500000000583500000868732DE    TVYEV-TV006400630015
BI00B32DE    TCT2062        202205197116-5041-02             TERMINAL                 CCN000300000000300000FN00000000020220601000300000NNM   20220406151906    4P0P  00001500000000583500000868732DE    TVYEV-TV006400630015
BI00B32DE    TCT2063        202205267116-5041-02             TERMINAL                 CCN000210000000210000FN00000000020220601000210000NNM   20220406151906    4P0P  00001500000000583500000868732DE    TVYEV-TV006400630015
BI00B32DE    TCT2064        202206027116-5041-02             TERMINAL                 CCN000210000000210000FN00000000020220601000210000NNM   20220406151906    4P0P  00001500000000583500000868732DE    TVYEV-TV006400630015
BI00B32DE    TCT2061        202205127116-5042-02             TERMINAL                 CCN000040500000040500FN00000000020220601000040500NNM   20220406151906    4P0P  00001350000000560300000845532DE    TVYEV-TV006400630015
BI00B32DE    TCT2062        202205197116-5042-02             TERMINAL                 CCN000135000000135000FN00000000020220601000135000NNM   20220406151906    4P0P  00001350000000560300000845532DE    TVYEV-TV006400630015
BI00B32DE    TCT2063        202205267116-5042-02             TERMINAL                 CCN000094500000094500FN00000000020220601000094500NNM   20220406151906    4P0P  00001350000000560300000845532DE    TVYEV-TV006400630015
BI00B32DE    TCT2064        202206027116-5042-02             TERMINAL                 CCN000094500000094500FN00000000020220601000094500NNM   20220406151906    4P0P  00001350000000560300000845532DE    TVYEV-TV006400630015
BI00B32DE    TCT2062        202205197116-5043-02             TERMINAL FEMALE          CCN000012000000012000FN00000000020220601000012000NNM   20220406151906    4P0P  00001200000000559200000844432DE    TVYEV-TV006400630015
BI00B32DE    TCT2063        202205267116-5043-02             TERMINAL FEMALE          CCN000096000000096000FN00000000020220601000096000NNM   20220406151906    4P0P  00001200000000559200000844432DE    TVYEV-TV006400630015
BI00B32DE    TCT2064        202206027116-5043-02             TERMINAL FEMALE          CCN000084000000084000FN00000000020220601000084000NNM   20220406151906    4P0P  00001200000000559200000844432DE    TVYEV-TV006400630015
BI00B32DE    TCT2062        202205197116-5044-02             TERMINAL                 CCN000208000000208000FN00000000020220601000208000NNM   20220406151906    4P0P  00001600000000641600000986332DE    TVYEV-TV006400630017
BI00B32DE    TCT2063        202205267116-5044-02             TERMINAL                 CCN000208000000208000FN00000000020220601000208000NNM   20220406151906    4P0P  00001600000000641600000986332DE    TVYEV-TV006400630017
BI00B32DE    TCT2064        202206027116-5044-02             TERMINAL                 CCN000208000000208000FN00000000020220601000208000NNM   20220406151906    4P0P  00001600000000641600000986332DE    TVYEV-TV006400630017
BI00B32DE    TCT2062        202205197116-5045-02             TERMINAL                 CCN000128000000128000FN00000000020220601000128000NNM   20220406151906    4P0P  00001600000000678400001007132DE    TVYEV-TV006400630017
BI00B32DE    TCT2063        202205267116-5045-02             TERMINAL                 CCN000144000000144000FN00000000020220601000144000NNM   20220406151906    4P0P  00001600000000678400001007132DE    TVYEV-TV006400630017
BI00B32DE    TCT2064        202206027116-5045-02             TERMINAL                 CCN000128000000128000FN00000000020220601000128000NNM   20220406151906    4P0P  00001600000000678400001007132DE    TVYEV-TV006400630017
BI00B32DE    TCT2062        202205197116-5046-02             TERMINAL                 CCN000048000000048000FN00000000020220601000048000NNM   20220406151906    4P0P  00001200000000544800000873532DE    TVYEV-TV006400630017
BI00B32DE    TCT2063        202205267116-5046-02             TERMINAL                 CCN000024000000024000FN00000000020220601000024000NNM   20220406151906    4P0P  00001200000000544800000873532DE    TVYEV-TV006400630017
BI00B32DE    TCT2064        202206027116-5046-02             TERMINAL                 CCN000036000000036000FN00000000020220601000036000NNM   20220406151906    4P0P  00001200000000544800000873532DE    TVYEV-TV006400630017
BI00B32DE    TCT2063        202205267116-5750-02             TERMINAL                 CCN000045000000045000FN00000000020220601000045000NNM   20220406151906    4P0P  00001500000000457500000742732DE    TVYEV-TV006400630015
BI00B32DE    TCT2064        202206027116-5750-02             TERMINAL                 CCN000060000000060000FN00000000020220601000060000NNM   20220406151906    4P0P  00001500000000457500000742732DE    TVYEV-TV006400630015
BI00B32DE    TCT2064        202206027116-5751-02             TERMINAL                 CCN000024000000024000FN00000000020220601000024000NNM   20220406151906    4P0P  00001200000000379200000664432DE    TVYEV-TV006400630015
BI00B32DE    TCT2064        202206027116-5752-02             TERMINAL                 CCN000042000000042000FN00000000020220601000042000NNM   20220406151906    4P0P  00002100000000571200000856432DE    TVYEV-TV006400630015
BI00B32DE    TCT2062        202205197116-6041                TERMINAL                 CCN000004500000004500FN00000000020220601000004500NNM   20220406151906    4P0P  00000450000000716000001009632DE    TVYEV-TV006400630015
BI00B32DE    TCT2063        202205267116-6041                TERMINAL                 CCN000004500000004500FN00000000020220601000004500NNM   20220406151906    4P0P  00000450000000716000001009632DE    TVYEV-TV006400630015
BI00B32DE    TCT2064        202206027116-6041                TERMINAL                 CCN000009000000009000FN00000000020220601000009000NNM   20220406151906    4P0P  00000450000000716000001009632DE    TVYEV-TV006400630015
BI00B32DE    TCT2062        202205197126-8853-02             TERMINAL                 CCN000157500000157500FN00000000020220601000157500NNM   20220406151906    4P0P  00000750000000562500000847732DE    TVYEV-TV006400630015
BI00B32DE    TCT2063        202205267126-8853-02             TERMINAL                 CCN000187500000187500FN00000000020220601000187500NNM   20220406151906    4P0P  00000750000000562500000847732DE    TVYEV-TV006400630015
BI00B32DE    TCT2064        202206027126-8853-02             TERMINAL                 CCN000202500000202500FN00000000020220601000202500NNM   20220406151906    4P0P  00000750000000562500000847732DE    TVYEV-TV006400630015
BI00B32DE    TCT2062        202205197126-8854-02             TERMINAL                 CCN000142500000142500FN00000000020220601000142500NNM   20220406151906    4P0P  00000750000000604500000889732DE    TVYEV-TV006400630015
BI00B32DE    TCT2063        202205267126-8854-02             TERMINAL                 CCN000225000000225000FN00000000020220601000225000NNM   20220406151906    4P0P  00000750000000604500000889732DE    TVYEV-TV006400630015
BI00B32DE    TCT2064        202206027126-8854-02             TERMINAL                 CCN000232500000232500FN00000000020220601000232500NNM   20220406151906    4P0P  00000750000000604500000889732DE    TVYEV-TV006400630015
BI00B32DE    TCT2062        202205197126-8855-02             TERMINAL                 CCN000168000000168000FN00000000020220601000168000NNM   20220406151906    4P0P  00000600000000510600000795832DE    TVYEV-TV006400630015
BI00B32DE    TCT2063        202205267126-8855-02             TERMINAL                 CCN000240000000240000FN00000000020220601000240000NNM   20220406151906    4P0P  00000600000000510600000795832DE    TVYEV-TV006400630015
BI00B32DE    TCT2064        202206027126-8855-02             TERMINAL                 CCN000252000000252000FN00000000020220601000252000NNM   20220406151906    4P0P  00000600000000510600000795832DE    TVYEV-TV006400630015
BI00B32DE    TCT2061        202205127158-3006-90             RUBBER STOPPER           CCN000200000000200000FN00000000020220601000200000NNM   20220406151906    1C0C  00002000000000330600000386032DE    TVYEV-TV002700430014
BI00B32DE    TCT2062        202205197158-3006-90             RUBBER STOPPER           CCN000660000000660000FN00000000020220601000660000NNM   20220406151906    1C0C  00002000000000330600000386032DE    TVYEV-TV002700430014
BI00B32DE    TCT2063        202205267158-3006-90             RUBBER STOPPER           CCN000500000000500000FN00000000020220601000500000NNM   20220406151906    1C0C  00002000000000330600000386032DE    TVYEV-TV002700430014
BI00B32DE    TCT2064        202206027158-3006-90             RUBBER STOPPER           CCN000460000000460000FN00000000020220601000460000NNM   20220406151906    1C0C  00002000000000330600000386032DE    TVYEV-TV002700430014
BI00B32DE    TCT2062        202205197158-3070-80             RUBBER STOPPER           CCN000040000000040000FN00000000020220601000040000NNM   20220406151906    1C0C  00004000000000276000000333332DE    TVYEV-TV002700430014
BI00B32DE    TCT2063        202205267158-3070-80             RUBBER STOPPER           CCN000040000000040000FN00000000020220601000040000NNM   20220406151906    1C0C  00004000000000276000000333332DE    TVYEV-TV002700430014
BI00B32DE    TCT2064        202206027158-3070-80             RUBBER STOPPER           CCN000080000000080000FN00000000020220601000080000NNM   20220406151906    1C0C  00004000000000276000000333332DE    TVYEV-TV002700430014
BI00B32DE    TCT2061        202205127158-3165-90             WIRE SEAL                CCN000040000000040000FN00000000020220601000040000NNM   20220406151906    1C0C  00004000000000124000000172432DE    TVYEV-TV004300270014
BI00B32DE    TCT2062        202205197158-3165-90             WIRE SEAL                CCN000120000000120000FN00000000020220601000120000NNM   20220406151906    1C0C  00004000000000124000000172432DE    TVYEV-TV004300270014
BI00B32DE    TCT2063        202205267158-3165-90             WIRE SEAL                CCN000080000000080000FN00000000020220601000080000NNM   20220406151906    1C0C  00004000000000124000000172432DE    TVYEV-TV004300270014
BI00B32DE    TCT2064        202206027158-3165-90             WIRE SEAL                CCN000080000000080000FN00000000020220601000080000NNM   20220406151906    1C0C  00004000000000124000000172432DE    TVYEV-TV004300270014
BI00B32DE    TCT2061        202205127158-3166-60             WIRE SEAL                CCN000040000000040000FN00000000020220601000040000NNM   20220406151906    1C0C  00004000000000104000000152432DE    TVYEV-TV002700430014
BI00B32DE    TCT2062        202205197158-3166-60             WIRE SEAL                CCN000080000000080000FN00000000020220601000080000NNM   20220406151906    1C0C  00004000000000104000000152432DE    TVYEV-TV002700430014
BI00B32DE    TCT2063        202205267158-3166-60             WIRE SEAL                CCN000040000000040000FN00000000020220601000040000NNM   20220406151906    1C0C  00004000000000104000000152432DE    TVYEV-TV002700430014
BI00B32DE    TCT2064        202206027158-3166-60             WIRE SEAL                CCN000080000000080000FN00000000020220601000080000NNM   20220406151906    1C0C  00004000000000104000000152432DE    TVYEV-TV002700430014
BI00B32DE    TCT2061        202205127158-3167-80             WIRE SEAL                CCN000020000000020000FN00000000020220601000020000NNM   20220406151906    1C0C  00002000000000048000000109032DE    TVYEV-TV002700430014
BI00B32DE    TCT2062        202205197158-3167-80             WIRE SEAL                CCN000060000000060000FN00000000020220601000060000NNM   20220406151906    1C0C  00002000000000048000000109032DE    TVYEV-TV002700430014
BI00B32DE    TCT2063        202205267158-3167-80             WIRE SEAL                CCN000040000000040000FN00000000020220601000040000NNM   20220406151906    1C0C  00002000000000048000000109032DE    TVYEV-TV002700430014
BI00B32DE    TCT2064        202206027158-3167-80             WIRE SEAL                CCN000040000000040000FN00000000020220601000040000NNM   20220406151906    1C0C  00002000000000048000000109032DE    TVYEV-TV002700430014
BI00B32DE    TCT2063        202205267195-1479-02             TERMINAL MALE            CCN000024000000024000FN00000000020220601000024000NNM   20220406151906    4P0P  00002400000000420000000714232DE    TVYEV-TV006400630015
BI00B32DE    TCT2064        202206027195-1479-02             TERMINAL MALE            CCN000072000000072000FN00000000020220601000072000NNM   20220406151906    4P0P  00002400000000420000000714232DE    TVYEV-TV006400630015
BI00B32DE    TCT2061        202205127196-0510-02             TERMINAL                 CCN000072000000072000FN00000000020220601000072000NNM   20220406151906    4P0P  00002400000000871200001034632DE    TVYEV-TV002800510028
BI00B32DE    TCT2062        202205197196-0510-02             TERMINAL                 CCN000048000000048000FN00000000020220601000048000NNM   20220406151906    4P0P  00002400000000871200001034632DE    TVYEV-TV002800510028
BI00B32DE    TCT2063        202205267196-0510-02             TERMINAL                 CCN000048000000048000FN00000000020220601000048000NNM   20220406151906    4P0P  00002400000000871200001034632DE    TVYEV-TV002800510028
BI00B32DE    TCT2064        202206027196-0510-02             TERMINAL                 CCN000024000000024000FN00000000020220601000024000NNM   20220406151906    4P0P  00002400000000871200001034632DE    TVYEV-TV002800510028
BI00B32DE    TCT2061        202205127196-0511-02             TERMINAL                 CCN000024000000024000FN00000000020220601000024000NNM   20220406151906    4P0P  00002400000000916800001080232DE    TVYEV-TV002800510028
BI00B32DE    TCT2062        202205197196-0550-02             TERMINAL ALUMINIUM       CCN000032000000032000FN00000000020220601000032000NNM   20220406151906    4P0P  00003200000000515200000901632DE    TVYEV-TV006400630017
BI00B32DE    TCT2064        202206027196-1481-02             TERMINAL FEMALE          CCN000216000000216000FN00000000020220601000216000NNM   20220406151906    4P0P  00002400000000422400000707632DE    TVYEV-TV006400630015
BI00B32DE    TCT2064        202206027196-1934-02             TERMINAL FEMALE          CCN000019500000019500FN00000000020220601000019500NNM   20220406151906    4P0P  00001950000000561600000846832DE    TVYEV-TV006400630015
BI00B32DE    TCT2064        202206027196-1936-02             TERMINAL FEMALE          CCN000054000000054000FN00000000020220601000054000NNM   20220406151906    4P0P  00001350000000441500000726732DE    TVYEV-TV006400630015
BI00B32DE    TCT2064        202206027196-1939-02             TERMINAL FEMALE          CCN000015000000015000FN00000000020220601000015000NNM   20220406151906    4P0P  00001500000000574500000862732DE    TVYEV-TV006400630015
BI00B32DE    TCT2063        202205267282-4576                HOUSING MALE ASS'Y       CCN000002400000002400FN00000000020220601000002400NNM   20220406151906    4N0N  00000240000000808800001028832DE    TVYEV-TV005500360039
BI00B32DE    TCT2064        202206027282-4576                HOUSING MALE ASS'Y       CCN000002400000002400FN00000000020220601000002400NNM   20220406151906    4N0N  00000240000000808800001028832DE    TVYEV-TV005500360039
BI00B32DE    TCT2062        202205197282-4577                HOUSING MALE ASS'Y       CCN000004800000004800FN00000000020220601000004800NNM   20220406151906    4N0N  00000240000000964800001174832DE    TVYEV-TV005500360039
BI00B32DE    TCT2063        202205267282-4577                HOUSING MALE ASS'Y       CCN000004800000004800FN00000000020220601000004800NNM   20220406151906    4N0N  00000240000000964800001174832DE    TVYEV-TV005500360039
BI00B32DE    TCT2064        202206027282-4577                HOUSING MALE ASS'Y       CCN000004800000004800FN00000000020220601000004800NNM   20220406151906    4N0N  00000240000000964800001174832DE    TVYEV-TV005500360039
BI00B32DE    TCT2061        202205127283-1057-30             CONNECTOR HOUSING        CCN000000960000000960FN00000000020220601000000960NNM   20220406151906    4N0N  00000096000000925400001075432DE    TVYEV-TV005500360039
BI00B32DE    TCT2063        202205267283-1057-30             CONNECTOR HOUSING        CCN000000960000000960FN00000000020220601000000960NNM   20220406151906    4N0N  00000096000000925400001075432DE    TVYEV-TV005500360039
BI00B32DE    TCT2061        202205127283-1288-10             CONNECTOR HOUSING        CCN000014400000014400FN00000000020220601000014400NNM   20220406151906    4N0N  00000120000001381000001637032DE    TVYEV-TV005600390040
BI00B32DE    TCT2062        202205197283-1288-10             CONNECTOR HOUSING        CCN000013200000013200FN00000000020220601000013200NNM   20220406151906    4N0N  00000120000001381000001637032DE    TVYEV-TV005600390040
BI00B32DE    TCT2063        202205267283-1288-10             CONNECTOR HOUSING        CCN000014400000014400FN00000000020220601000014400NNM   20220406151906    4N0N  00000120000001381000001637032DE    TVYEV-TV005600390040
BI00B32DE    TCT2064        202206027283-1288-10             CONNECTOR HOUSING        CCN000014400000014400FN00000000020220601000014400NNM   20220406151906    4N0N  00000120000001381000001637032DE    TVYEV-TV005600390040
BI00B32DE    TCT2061        202205127283-1288-40             CONNECTOR HOUSING        CCN000002400000002400FN00000000020220601000002400NNM   20220406151906    4N0N  00000120000001382000001640732DE    TVYEV-TV005600390040
BI00B32DE    TCT2062        202205197283-1288-40             CONNECTOR HOUSING        CCN000001200000001200FN00000000020220601000001200NNM   20220406151906    4N0N  00000120000001382000001640732DE    TVYEV-TV005600390040
BI00B32DE    TCT2063        202205267283-1288-40             CONNECTOR HOUSING        CCN000002400000002400FN00000000020220601000002400NNM   20220406151906    4N0N  00000120000001382000001640732DE    TVYEV-TV005600390040
BI00B32DE    TCT2064        202206027283-1288-40             CONNECTOR HOUSING        CCN000002400000002400FN00000000020220601000002400NNM   20220406151906    4N0N  00000120000001382000001640732DE    TVYEV-TV005600390040
BI00B32DE    TCT2063        202205267283-1289-30             CONNECTOR HOUSING        CCN000000600000000600FN00000000020220601000000600NNM   20220406151906    1N0N  00000060000000675600000820632DE    TVYEV-TV005400370024
BI00B32DE    TCT2064        202206027283-1289-30             CONNECTOR HOUSING        CCN000001200000001200FN00000000020220601000001200NNM   20220406151906    1N0N  00000060000000675600000820632DE    TVYEV-TV005400370024
BI00B32DE    TCT2062        202205197283-1289-40             CONNECTOR HOUSING        CCN000003000000003000FN00000000020220601000003000NNM   20220406151906    1N0N  00000060000000679800000824832DE    TVYEV-TV005400370024
BI00B32DE    TCT2063        202205267283-1289-40             CONNECTOR HOUSING        CCN000003600000003600FN00000000020220601000003600NNM   20220406151906    1N0N  00000060000000679800000824832DE    TVYEV-TV005400370024
BI00B32DE    TCT2064        202206027283-1289-40             CONNECTOR HOUSING        CCN000003600000003600FN00000000020220601000003600NNM   20220406151906    1N0N  00000060000000679800000824832DE    TVYEV-TV005400370024
BI00B32DE    TCT2063        202205267283-3013-30             CONNECTOR                CCN000002000000002000FN00000000020220601000002000NNM   20220406151906    4N0N  00000200000001138000001284032DE    TVYEV-TV005600390040
BI00B32DE    TCT2064        202206027283-4576                HOUSING FEMALE ASS'Y     CCN000009600000009600FN00000000020220601000009600NNM   20220406151906    4N0N  00000480000000651300000871332DE    TVYEV-TV005500360039
BI00B32DE    TCT2062        202205197283-4576-30             HOUSING FEMALE ASS'Y     CCN000004800000004800FN00000000020220601000004800NNM   20220406151906    4N0N  00000480000000651300000871332DE    TVYEV-TV005500360039
BI00B32DE    TCT2063        202205267283-4576-30             HOUSING FEMALE ASS'Y     CCN000004800000004800FN00000000020220601000004800NNM   20220406151906    4N0N  00000480000000651300000871332DE    TVYEV-TV005500360039
BI00B32DE    TCT2064        202206027283-4576-30             HOUSING FEMALE ASS'Y     CCN000004800000004800FN00000000020220601000004800NNM   20220406151906    4N0N  00000480000000651300000871332DE    TVYEV-TV005500360039
BI00B32DE    TCT2062        202205197283-4576-90             HOUSING FEMALE ASS'Y     CCN000004800000004800FN00000000020220601000004800NNM   20220406151906    4N0N  00000480000000651300000871332DE    TVYEV-TV005500360039
BI00B32DE    TCT2063        202205267283-4577                CONNECTOR HOUSING        CCN000004800000004800FN00000000020220601000004800NNM   20220406151906    4N0N  00000480000000916800001136832DE    TVYEV-TV005500360039
BI00B32DE    TCT2063        202205267283-4577-30             CONNECTOR HOUSING        CCN000004800000004800FN00000000020220601000004800NNM   20220406151906    4N0N  00000480000000916800001136832DE    TVYEV-TV005500360039
BI00B32DE    TCT2064        202206027283-4577-30             CONNECTOR HOUSING        CCN000009600000009600FN00000000020220601000009600NNM   20220406151906    4N0N  00000480000000916800001136832DE    TVYEV-TV005500360039
BI00B32DE    TCT2061        202205127283-4855-40             CONNECTOR HOUSING        CCN000007200000007200FN00000000020220601000007200NNM   20220406151906    4N0N  00000240000001188400001400032DE    TVYEV-TV005600360039
BI00B32DE    TCT2062        202205197283-4855-40             CONNECTOR HOUSING        CCN000004800000004800FN00000000020220601000004800NNM   20220406151906    4N0N  00000240000001188400001400032DE    TVYEV-TV005600360039
BI00B32DE    TCT2063        202205267283-4855-40             CONNECTOR HOUSING        CCN000002400000002400FN00000000020220601000002400NNM   20220406151906    4N0N  00000240000001188400001400032DE    TVYEV-TV005600360039
BI00B32DE    TCT2064        202206027283-4855-40             CONNECTOR HOUSING        CCN000004800000004800FN00000000020220601000004800NNM   20220406151906    4N0N  00000240000001188400001400032DE    TVYEV-TV005600360039
BI00B32DE    TCT2062        202205197283-5830                CONNECTOR                CCN000006000000006000FN00000000020220601000006000NNM   20220406151906    1N47  00000600000000954000001104032DE    TVYEV-TV005500360039
BI00B32DE    TCT2061        202205127283-5830-30             CONNECTOR                CCN000006000000006000FN00000000020220601000006000NNM   20220406151906    1N0N  00000600000000954000001104032DE    TVYEV-TV005500360039
BI00B32DE    TCT2064        202206027283-5830-30             CONNECTOR                CCN000006000000006000FN00000000020220601000006000NNM   20220406151906    1N0N  00000600000000954000001104032DE    TVYEV-TV005500360039
BI00B32DE    TCT2063        202205267283-5832                CONNECTOR HOUSING        CCN000002400000002400FN00000000020220601000002400NNM   20220406151906    1N47  00000240000000723800000873832DE    TVYEV-TV005500360039
BI00B32DE    TCT2064        202206027283-5843                CONNECTOR                CCN000001500000001500FN00000000020220601000001500NNM   20220406151906    1N0N  00000150000000889000001132032DE    TVYEV-TV005600390040
BI00B32DE    TCT2062        202205197283-5846                HOUSING                  CCN000001500000001500FN00000000020220601000001500NNM   20220406151906    1N0N  00000150000000885000001102032DE    TVYEV-TV005600390040
BI00B32DE    TCT2062        202205197283-6120                CONNECTOR HOUSING        CCN000004500000004500FN00000000020220601000004500NNM   20220406151906    1N0N  00000150000000914000001143032DE    TVYEV-TV005600390040
BI00B32DE    TCT2063        202205267283-6120                CONNECTOR HOUSING        CCN000004500000004500FN00000000020220601000004500NNM   20220406151906    1N0N  00000150000000914000001143032DE    TVYEV-TV005600390040
BI00B32DE    TCT2064        202206027283-6120                CONNECTOR HOUSING        CCN000004500000004500FN00000000020220601000004500NNM   20220406151906    1N0N  00000150000000914000001143032DE    TVYEV-TV005600390040
BI00B32DE    TCT2062        202205197283-7449-30             HOUSING FEMALE ASS'Y     CCN000012000000012000FN00000000020220601000012000NNM   20220406151906    4N0N  00000240000001200000001410032DE    TVYEV-TV005500360039
BI00B32DE    TCT2063        202205267283-7449-30             HOUSING FEMALE ASS'Y     CCN000007200000007200FN00000000020220601000007200NNM   20220406151906    4N0N  00000240000001200000001410032DE    TVYEV-TV005500360039
BI00B32DE    TCT2064        202206027283-7449-30             HOUSING FEMALE ASS'Y     CCN000007200000007200FN00000000020220601000007200NNM   20220406151906    4N0N  00000240000001200000001410032DE    TVYEV-TV005500360039
BI00B32DE    TCT2061        202205127283-7449-40             HOUSING FEMALE ASS'Y     CCN000004800000004800FN00000000020220601000004800NNM   20220406151906    4N0N  00000240000001200000001410032DE    TVYEV-TV005500360039
BI00B32DE    TCT2062        202205197283-7449-40             HOUSING FEMALE ASS'Y     CCN000007200000007200FN00000000020220601000007200NNM   20220406151906    4N0N  00000240000001200000001410032DE    TVYEV-TV005500360039
BI00B32DE    TCT2063        202205267283-7449-40             HOUSING FEMALE ASS'Y     CCN000004800000004800FN00000000020220601000004800NNM   20220406151906    4N0N  00000240000001200000001410032DE    TVYEV-TV005500360039
BI00B32DE    TCT2064        202206027283-7449-40             HOUSING FEMALE ASS'Y     CCN000004800000004800FN00000000020220601000004800NNM   20220406151906    4N0N  00000240000001200000001410032DE    TVYEV-TV005500360039
BI00B32DE    TCT2062        202205197286-1900                CONNECTOR HOUSING        CCN000004800000004800FN00000000020220601000004800NNM   20220406151906    4N0N  00000480000001161600001376632DE    TVYEV-TV005500360039
BI00B32DE    TCT2063        202205267286-1900                CONNECTOR HOUSING        CCN000004800000004800FN00000000020220601000004800NNM   20220406151906    4N0N  00000480000001161600001376632DE    TVYEV-TV005500360039
BI00B32DE    TCT2064        202206027287-1915                CONNECTOR ASS'Y          CCN000002400000002400FN00000000020220601000002400NNM   20220406151906    4N0N  00000240000000666500000923132DE    TVYEV-TV005500360039
BI00B32DE    TCT2064        202206027287-1915-40             CONNECTOR ASS'Y          CCN000002400000002400FN00000000020220601000002400NNM   20220406151906    4N0N  00000240000000666500000923132DE    TVYEV-TV005500360039
BI00B32DE    TCT2064        202206027287-7599-10             HOUSING FEMALE ASS'Y     CCN000003200000003200FN00000000020220601000003200NNM   20220406151906    4N0N  00000160000001233600001445632DE    TVYEV-TV005500360039
BI00B32DE    TCT2061        202205127287-9234                JOINT CONNECTOR          CCN000048000000048000FN00000000020220601000048000NNM   20220406151906    4N0N  00000960000000893800001184832DE    TVYEV-TV005500360039
BI00B32DE    TCT2062        202205197287-9234                JOINT CONNECTOR          CCN000048000000048000FN00000000020220601000048000NNM   20220406151906    4N0N  00000960000000893800001184832DE    TVYEV-TV005500360039
BI00B32DE    TCT2063        202205267287-9234                JOINT CONNECTOR          CCN000067200000067200FN00000000020220601000067200NNM   20220406151906    4N0N  00000960000000893800001184832DE    TVYEV-TV005500360039
BI00B32DE    TCT2064        202206027287-9234                JOINT CONNECTOR          CCN000067200000067200FN00000000020220601000067200NNM   20220406151906    4N0N  00000960000000893800001184832DE    TVYEV-TV005500360039
BI00B32DE    TCT2062        202205197288-3335-30             HOUSING MALE             CCN000006000000006000FN00000000020220601000006000NNM   20220406151906    4N0N  00000150000000867000001012032DE    TVYEV-TV005400370024
BI00B32DE    TCT2063        202205267288-3335-30             HOUSING MALE             CCN000004500000004500FN00000000020220601000004500NNM   20220406151906    4N0N  00000150000000867000001012032DE    TVYEV-TV005400370024
BI00B32DE    TCT2064        202206027288-3335-30             HOUSING MALE             CCN000004500000004500FN00000000020220601000004500NNM   20220406151906    4N0N  00000150000000867000001012032DE    TVYEV-TV005400370024
BI00B32DE    TCT2061        202205127288-6547                CONNECTOR MALE ASS'Y     CCN000001500000001500FN00000000020220601000001500NNM   20220406151906    4N0N  00000075000001205300001340332DE    TVYEV-TV005400370024
BI00B32DE    TCT2062        202205197288-6547                CONNECTOR MALE ASS'Y     CCN000001500000001500FN00000000020220601000001500NNM   20220406151906    4N0N  00000075000001205300001340332DE    TVYEV-TV005400370024
BI00B32DE    TCT2063        202205267288-6547                CONNECTOR MALE ASS'Y     CCN000001500000001500FN00000000020220601000001500NNM   20220406151906    4N0N  00000075000001205300001340332DE    TVYEV-TV005400370024
BI00B32DE    TCT2064        202206027288-6547                CONNECTOR MALE ASS'Y     CCN000002250000002250FN00000000020220601000002250NNM   20220406151906    4N0N  00000075000001205300001340332DE    TVYEV-TV005400370024
BI00B32DE    TCT2064        202206027289-3342                HOUSING FEMALE ASS'Y     CCN000002400000002400FN00000000020220601000002400NNM   20220406151906    1N0N  00000240000000686400000901432DE    TVYEV-TV005500360039
BI00B32DE    TCT2061        202205127289-3342-30             HOUSING FEMALE ASS'Y     CCN000036000000036000FN00000000020220601000036000NNM   20220406151906    1N0N  00000240000000686400000901432DE    TVYEV-TV005500360039
BI00B32DE    TCT2062        202205197289-3342-30             HOUSING FEMALE ASS'Y     CCN000036000000036000FN00000000020220601000036000NNM   20220406151906    1N0N  00000240000000686400000901432DE    TVYEV-TV005500360039
BI00B32DE    TCT2063        202205267289-3342-30             HOUSING FEMALE ASS'Y     CCN000036000000036000FN00000000020220601000036000NNM   20220406151906    1N0N  00000240000000686400000901432DE    TVYEV-TV005500360039
BI00B32DE    TCT2064        202206027289-3342-30             HOUSING FEMALE ASS'Y     CCN000048000000048000FN00000000020220601000048000NNM   20220406151906    1N0N  00000240000000686400000901432DE    TVYEV-TV005500360039
BI00B32DE    TCT2061        202205127289-3342-90             HOUSING FEMALE ASS'Y     CCN000004800000004800FN00000000020220601000004800NNM   20220406151906    1N0N  00000240000000686400000901432DE    TVYEV-TV005500360039
BI00B32DE    TCT2062        202205197289-3342-90             HOUSING FEMALE ASS'Y     CCN000004800000004800FN00000000020220601000004800NNM   20220406151906    1N0N  00000240000000686400000901432DE    TVYEV-TV005500360039
BI00B32DE    TCT2063        202205267289-3342-90             HOUSING FEMALE ASS'Y     CCN000004800000004800FN00000000020220601000004800NNM   20220406151906    1N0N  00000240000000686400000901432DE    TVYEV-TV005500360039
BI00B32DE    TCT2064        202206027289-3342-90             HOUSING FEMALE ASS'Y     CCN000004800000004800FN00000000020220601000004800NNM   20220406151906    1N0N  00000240000000686400000901432DE    TVYEV-TV005500360039
BI00B32DE    TCT2061        202205127289-4696-30             HOUSING FEMALE ASS'Y     CCN000004000000004000FN00000000020220601000004000NNM   20220406151906    4N0N  00000200000000913400001055432DE    TVYEV-TV005400370024
BI00B32DE    TCT2062        202205197289-4696-30             HOUSING FEMALE ASS'Y     CCN000002000000002000FN00000000020220601000002000NNM   20220406151906    4N0N  00000200000000913400001055432DE    TVYEV-TV005400370024
BI00B32DE    TCT2063        202205267289-4696-30             HOUSING FEMALE ASS'Y     CCN000002000000002000FN00000000020220601000002000NNM   20220406151906    4N0N  00000200000000913400001055432DE    TVYEV-TV005400370024
BI00B32DE    TCT2062        202205197289-6547                HOUSING FEMALE ASS'Y     CCN000002400000002400FN00000000020220601000002400NNM   20220406151906    1N0N  00000240000001152000001362032DE    TVYEV-TV005500360039
BI00B32DE    TCT2063        202205267289-6547                HOUSING FEMALE ASS'Y     CCN000002400000002400FN00000000020220601000002400NNM   20220406151906    1N0N  00000240000001152000001362032DE    TVYEV-TV005500360039
BI00B32DE    TCT2064        202206027289-6547                HOUSING FEMALE ASS'Y     CCN000002400000002400FN00000000020220601000002400NNM   20220406151906    1N0N  00000240000001152000001362032DE    TVYEV-TV005500360039
BI00B32DE    TCT2062        202205197382-1481-10             CONNECTOR                CCN000016000000016000FN00000000020220601000016000NNM   20220406151906    4N0N  00000080000001025000001183032DE    TVYEV-TV005600390040
BI00B32DE    TCT2063        202205267382-1481-10             CONNECTOR                CCN000016800000016800FN00000000020220601000016800NNM   20220406151906    4N0N  00000080000001025000001183032DE    TVYEV-TV005600390040
BI00B32DE    TCT2064        202206027382-1481-10             CONNECTOR                CCN000016000000016000FN00000000020220601000016000NNM   20220406151906    4N0N  00000080000001025000001183032DE    TVYEV-TV005600390040
BI00A32D1    DFTC2226A      202204187196-1933-02             TERMINAL FEMALE          CCN000021000000021000FN00000000020220401000021000NNE   20220406135736    4P0P  00002100000000590100000875332D1    TOYOT-K 006400630015
BI00A32D1    DFTC2226A      202204187196-1936-02             TERMINAL FEMALE          CCN000013500000013500FN00000000020220401000013500NNE   20220406135736    4P0P  00001350000000441500000726732D1    TOYOT-K 006400630015
BI00A32D1    DFTC2226A      202204187196-1944-02             TERMINAL FEMALE          CCN000012000000012000FN00000000020220401000012000NNE   20220406135736    4P0P  00001200000000501600000786832D1    TOYOT-K 006400630015
BI00A32D1    #DFTC2226A     202204187198-4979-30             HOUSING FEMALE           CCN000004000000004000FN00000000020220401000004000NNE   20220406135729    2F0F  00000400000000707200000876032D1    TOYOT-K 005400370024
BI00B32D2    DGTC2226       202205057116-2891-02             TERMINAL                 CCN000015000000015000FN00000000020220701000015000NNM   20220406121433    4P0P  00001500000000982500001145932D2    TGYOT-G 005100280028
BI00B32D2    DGTC2226       202205057116-4104-02             TERMINAL                 CCN000012000000012000FN00000000020220701000012000NNM   20220406121433    4P0P  00001200000000580800000972432D2    TGYOT-G 006400630015
BI00B32D2    DGTC2226       202205057116-5045-02             TERMINAL                 CCN000016000000016000FN00000000020220701000016000NNM   20220406121433    4P0P  00001600000000678400001007132D2    TGYOT-G 006400630017
BI00B32D2    DGTC2226       202205057116-5046-02             TERMINAL                 CCN000012000000012000FN00000000020220701000012000NNM   20220406121433    4P0P  00001200000000544800000873532D2    TGYOT-G 006400630017
BI00B32D2    DGTC2226       202205057126-8853-02             TERMINAL                 CCN000022500000022500FN00000000020220701000022500NNM   20220406121433    4P0P  00000750000000562500000847732D2    TGYOT-G 006400630015
BI00B32D2    DGTC2226       202205057126-8854-02             TERMINAL                 CCN000015000000015000FN00000000020220701000015000NNM   20220406121433    4P0P  00000750000000604500000889732D2    TGYOT-G 006400630015
BI00B32D2    DGTC2226       202205057126-8855-02             TERMINAL                 CCN000018000000018000FN00000000020220701000018000NNM   20220406121433    4P0P  00000600000000510600000795832D2    TGYOT-G 006400630015
BI00B32D2    DGTC2226       202205057158-3166-60             WIRE SEAL                CCN000080000000080000FN00000000020220701000080000NNM   20220406121433    1C0C  00004000000000104000000152432D2    TGYOT-G 002700430014
BI00B32D2    DGTC2226       202205057173-3291-40             LIF LEVER                CCN000002400000002400FN00000000020220701000002400NNM   20220406121433    1F0F  00000240000000867800001067832D2    TGYOT-G 005500360039
BI00B32D2    DGTC2226       202205057283-6388-40             CONNECTOR                CCN000004000000004000FN00000000020220701000004000NNM   20220406121433    4N0N  00000200000001029000001173532D2    TGYOT-G 005500360039
BI00B32D2    DGTC2226       202205057289-3342                HOUSING FEMALE ASS'Y     CCN000002400000002400FN00000000020220701000002400NNM   20220406121433    1N0N  00000240000000686400000901432D2    TGYOT-G 005500360039
BI00B32D2    DGTC2226       202205057289-3342-40             HOUSING FEMALE ASS'Y     CCN000002400000002400FN00000000020220701000002400NNM   20220406121433    1N0N  00000240000000686400000901432D2    TGYOT-G 005500360039
BI00B32D2    DGTC2226       202205057289-6518-30             HOUSING FEMALE ASS'Y     CCN000002400000002400FN00000000020220701000002400NNM   20220406121433    1N0N  00000120000000829200001049232D2    TGYOT-G 005500360039
BI00B32D2    DGTC2226       202205057327-6806                MULTI FUSE               CCN000002240000002240FN00000000020220701000002240NNM   20220406121433    4N0N  00000056000000851500001063932D2    TGYOT-G 005400370024
BI00B32D2    DGTC2226       202205057327-6930                MULTI FUSE               CCN000001680000001680FN00000000020220701000001680NNM   20220406121433    4N0N  00000056000000848900001031932D2    TGYOT-G 005400370024
BI00B32D2    DGTC2226       202205057388-2978-30             HOUSING MALE ASS'Y       CCN000004800000004800FN00000000020220701000004800NNM   20220406121433    1N0N  00000048000000742000001122032D2    TGYOT-G 005500360039
BI00B32D2    #DGTC2226      202205057158-3003-90             RUBBER STOPPER           CCN000040000000040000FN00000000020220701000040000NNM   20220406121433    2C0C  00002000000000250000000306032D2    TGYOT-G 002700430014
BI00B32D2    #DGTC2226      202205057158-3017                RUBBER STOPPER           CCN000010000000010000FN00000000020220701000010000NNM   20220406121433    2C0C  00001000000000375500000435032D2    TGYOT-G 002700430014
BI00B32D2    #DGTC2226      202205057158-3374-90             CONNECTOR WIRE SEAL      CCN000020000000020000FN00000000020220701000020000NNM   20220406121433    2H0H  00002000000000172000000229332D2    TGYOT-G 002700430014
BI00B32D2    #DGTC2226      202205057172-5629-80             RUBBER STOPPER           CCN000020000000020000FN00000000020220701000020000NNM   20220406121433    2H0H  00002000000000060000000111132D2    TGYOT-G 004300270014
BI00B32D2    #DGTC2226      202205057172-5630-40             RUBBER STOPPER           CCN000040000000040000FN00000000020220701000040000NNM   20220406121433    2H0H  00002000000000044000000095132D2    TGYOT-G 004300270014
BI00B32D2    #DGTC2226      202205057172-5631-60             RUBBER STOPPER           CCN000020000000020000FN00000000020220701000020000NNM   20220406121433    2H0H  00002000000000042000000093132D2    TGYOT-G 004300270014
BI00B32D2    #DGTC2226      202205057189-2978-30             HOUSING FEMALE           CCN000004500000004500FN00000000020220701000004500NNM   20220406121433    2F0F  00000150000000966900001096932D2    TGYOT-G 005400370024
BI00B32D2    #DGTC2226      202205057189-3033                HOUSING FEMALE           CCN000001600000001600FN00000000020220701000001600NNM   20220406121433    2F0F  00000160000001211200001431232D2    TGYOT-G 005500360039
BI00B32D2    #DGTC2226      202205057283-8226-30             CONNECTOR                CCN000002000000002000FN00000000020220701000002000NNM   20220406121433    2N0N  00000200000000820000001008032D2    TGYOT-G 005400370024
BI00B32EJ    T220405P01     202205127116-4037                TERMINAL                 CCN000012000000012000FN00000000020220501000012000NNE   20220406121433EJ  4P0P  00000600000000600000000894232EJ    EJYKBO  006400630015
BI00B32EJ    T220405P01     202205127116-4104-02             TERMINAL                 CCN000012000000012000FN00000000020220501000012000NNE   20220406121433EJ  4P0P  00001200000000580800000972432EJ    EJYKBO  006400630015
BI00B32EJ    T220405P01     202205127116-2871                TERMINAL                 CCN000012000000012000FN00000000020220501000012000NNE   20220406121433EJ  1P0P  00001200000000842400001072632EJ    EJYKBO  005100280028
BI00B32EJ    T220405P01     202205127283-1968-30             CONNECTOR                CCN000001800000001800FN00000000020220501000001800NNE   20220406121433EJ  1N0N  00000090000001140000001318332EJ    EJYKBO  005600390040
BI00B32EJ    T220405P01     202205127116-4124-02             TERMINAL                 CCN000015000000015000FN00000000020220501000015000NNE   20220406121433EJ  4P0P  00000300000000459900000753532EJ    EJYKBO  006400630015
BI00B32EJ    T220405P01     202205127196-1461-06             TERMINAL FEMALE          CCN000144000000144000FN00000000020220501000144000NNE   20220406121433EJ  4P0P  00002400000000386400000692932EJ    EJYKBO  006400630015
BI00B32EJ    T220405P01     202205127114-4111-02             TERMINAL                 CCN000012000000012000FN00000000020220501000012000NNE   20220406121433EJ  4P0P  00001200000000758400001087032EJ    EJYKBO  006400630017
BI00B32EJ    T220405P01     202205127116-4100-02             TERMINAL                 CCN000030000000030000FN00000000020220501000030000NNE   20220406121433EJ  4P0P  00001500000000696000000990232EJ    EJYKBO  006400630015
BI00B32EJ    T220405P01     202205127116-4101-02             TERMINAL                 CCN000012000000012000FN00000000020220501000012000NNE   20220406121433EJ  4P0P  00001200000000582000000876232EJ    EJYKBO  006400630015
BI00B32EJ    T220405P01     202205127116-4120-02             TERMINAL                 CCN000006000000006000FN00000000020220501000006000NNE   20220406121433EJ  4P0P  00000600000000780000001073632EJ    EJYKBO  006400630015
BI00B32EJ    T220405P01     202205127116-4122-02             TERMINAL                 CCN000036000000036000FN00000000020220501000036000NNE   20220406121433EJ  4P0P  00000450000000656600000950232EJ    EJYKBO  006400630015
BI00B32EJ    T220405P01     202205127116-4121-02             TERMINAL                 CCN000063000000063000FN00000000020220501000063000NNE   20220406121433EJ  4P0P  00000450000000618800000912432EJ    EJYKBO  006400630015
BI00B32EJ    T220405P01     202205127116-4111-02             TERMINAL                 CCN000007500000007500FN00000000020220501000007500NNE   20220406121433EJ  4P0P  00000750000000529500000817732EJ    EJYKBO  006400630015
BI00B32EJ    T220405P01     202205127126-8854-02             TERMINAL                 CCN000015000000015000FN00000000020220501000015000NNE   20220406121433EJ  4P0P  00000750000000604500000889732EJ    EJYKBO  006400630015
BI00B32EJ    T220405P01     202205127126-8855-02             TERMINAL                 CCN000012000000012000FN00000000020220501000012000NNE   20220406121433EJ  4P0P  00000600000000510600000795832EJ    EJYKBO  006400630015
BI00B32EJ    T220405P01     202205127158-3166-60             WIRE SEAL                CCN001200000001200000FN00000000020220501001200000NNE   20220406121433EJ  1C0C  00004000000000104000000152432EJ    EJYKBO  002700430014
BI00B32EJ    T220405P01     202205127158-3167-80             WIRE SEAL                CCN001220000001220000FN00000000020220501001220000NNE   20220406121433EJ  1C0C  00002000000000048000000109032EJ    EJYKBO  002700430014
BI00B32EJ    T220405P01     202205127158-3168-80             SEALED                   CCN000060000000060000FN00000000020220501000060000NNE   20220406121433EJ  1C0C  00002000000000044000000092132EJ    EJYKBO  004300260014
BI00B32EJ    T220405P01     202205127158-3169-40             SEALING PLUG             CCN000480000000480000FN00000000020220501000480000NNE   20220406121433EJ  1C0C  00004000000000156000000204132EJ    EJYKBO  004300260014
BI00B32EJ    T220405P01     202205127B58-3070-80             RUBBER STOPPER           CCN000040000000040000FN00000000020220501000040000NNE   20220406121433EJ  1C0C  00004000000000276000000333032EJ    EJYKBO  004300270014
BI00B32EJ    T220405P01     202205127158-3167-61             WIRE SEAL                CCN000180000000180000FN00000000020220501000180000NNE   20220406121433EJ  1C0C  00002000000000048000000096432EJ    EJYKBO  004300270014
BI00B32EJ    #T220405P01    202205127158-3120-90             CONNECTOR WIRE SEAL      CCN000120000000120000FN00000000020220501000120000NNE   20220406121433EJ  2C0C  00002000000000136000000194032EJ    EJYKBO  002700430014
BI00B32EJ    #T220405P01    202205127123-6423-30             CONNECTOR                CCN000004000000004000FN00000000020220501000004000NNE   20220406121433EJ  2F0F  00000200000001002000001167632EJ    EJYKBO  005600390023
BI00B32EJ    #T220405P01    202205127282-6458-40             CONNECTOR                CCN000001000000001000FN00000000020220501000001000NNE   20220406121433EJ  2N0N  00000100000001206000001350532EJ    EJYKBO  005500360039
BI00B32EJ    #T220405P01    202205127157-3952-80             RUBBER STOPPER           CCN000010000000010000FN00000000020220501000010000NNE   20220406121433EJ  2C0C  00001000000000117000000175032EJ    EJYKBO  002700430014
BI00B32EJ    @T220405P01    202205127123-4312-80             HOUSING                  CCN000001600000001600FN00000000020220501000001600NNE   20220406121433EJ  3F0F  00000080000000644200000794032EJ    EJYKBO  005500360039
BI00B32G7    JJ22064 MW     202206097114-4021                TERMINAL                 CCN000015000000015000FN00000000020220601000015000NNM   20220406132304    4P0P  00001500000000670500000964132G7    JIJAI   006400630015
BI00B32G7    JJ22063 MW     202206027114-4032                TERMINAL                 CCN000007500000007500FN00000000020220601000007500NNM   20220406132304    4P0P  00000750000000735000001063632G7    JIJAI   006400630017
BI00B32G7    JJ22064 MW     202206097114-5746-02             TERMINAL                 CCN000021000000021000FN00000000020220601000021000NNM   20220406132304    4P0P  00002100000000695100000988732G7    JIJAI   006400630015
BI00B32G7    JJ22062 MW     202205267114-5747-02             TERMINAL                 CCN000072000000072000FN00000000020220601000072000NNM   20220406132304    4P0P  00001800000000626400000920032G7    JIJAI   006400630015
BI00B32G7    JJ22063 MW     202206027114-5747-02             TERMINAL                 CCN000018000000018000FN00000000020220601000018000NNM   20220406132304    4P0P  00001800000000626400000920032G7    JIJAI   006400630015
BI00B32G7    JJ22064 MW     202206097114-5747-02             TERMINAL                 CCN000018000000018000FN00000000020220601000018000NNM   20220406132304    4P0P  00001800000000626400000920032G7    JIJAI   006400630015
BI00B32G7    JJ22061 MW     202205197114-5748-02             TERMINAL                 CCN000012000000012000FN00000000020220601000012000NNM   20220406132304    4P0P  00001200000000444000000737632G7    JIJAI   006400630015
BI00B32G7    JJ22062 MW     202205267114-5748-02             TERMINAL                 CCN000060000000060000FN00000000020220601000060000NNM   20220406132304    4P0P  00001200000000444000000737632G7    JIJAI   006400630015
BI00B32G7    JJ22063 MW     202206027114-5748-02             TERMINAL                 CCN000012000000012000FN00000000020220601000012000NNM   20220406132304    4P0P  00001200000000444000000737632G7    JIJAI   006400630015
BI00B32G7    JJ22064 MW     202206097114-5748-02             TERMINAL                 CCN000012000000012000FN00000000020220601000012000NNM   20220406132304    4P0P  00001200000000444000000737632G7    JIJAI   006400630015
BI00B32G7    JJ22063 MW     202206027114-5753-02             TERMINAL                 CCN000027000000027000FN00000000020220601000027000NNM   20220406132304    4P0P  00002700000000847800001141432G7    JIJAI   006400630015
BI00B32G7    JJ22064 MW     202206097114-5753-02             TERMINAL                 CCN000027000000027000FN00000000020220601000027000NNM   20220406132304    4P0P  00002700000000847800001141432G7    JIJAI   006400630015
BI00B32G7    JJ22064 MW     202206097116-2640                TERMINAL                 CCN000036000000036000FN00000000020220601000036000NNM   20220406132304    4P0P  00001800000001018800001196632G7    JIJAI   005100280028
BI00B32G7    JJ22061 MW     202205197116-2891-02             TERMINAL                 CCN000015000000015000FN00000000020220601000015000NNM   20220406132304    4P0P  00001500000000982500001145932G7    JIJAI   005100280028
BI00B32G7    JJ22062 MW     202205267116-2891-02             TERMINAL                 CCN000045000000045000FN00000000020220601000045000NNM   20220406132304    4P0P  00001500000000982500001145932G7    JIJAI   005100280028
BI00B32G7    JJ22063 MW     202206027116-2891-02             TERMINAL                 CCN000015000000015000FN00000000020220601000015000NNM   20220406132304    4P0P  00001500000000982500001145932G7    JIJAI   005100280028
BI00B32G7    JJ22064 MW     202206097116-2891-02             TERMINAL                 CCN000030000000030000FN00000000020220601000030000NNM   20220406132304    4P0P  00001500000000982500001145932G7    JIJAI   005100280028
BI00B32G7    JJ22061 MW     202205197116-2892-02             TERMINAL                 CCN000024000000024000FN00000000020220601000024000NNM   20220406132304    4P0P  00001200000000818400000981832G7    JIJAI   005100280028
BI00B32G7    JJ22062 MW     202205267116-2892-02             TERMINAL                 CCN000024000000024000FN00000000020220601000024000NNM   20220406132304    4P0P  00001200000000818400000981832G7    JIJAI   005100280028
BI00B32G7    JJ22063 MW     202206027116-2892-02             TERMINAL                 CCN000012000000012000FN00000000020220601000012000NNM   20220406132304    4P0P  00001200000000818400000981832G7    JIJAI   005100280028
BI00B32G7    JJ22064 MW     202206097116-2892-02             TERMINAL                 CCN000012000000012000FN00000000020220601000012000NNM   20220406132304    4P0P  00001200000000818400000981832G7    JIJAI   005100280028
BI00B32G7    JJ22061 MW     202205197116-2893-02             TERMINAL                 CCN000060000000060000FN00000000020220601000060000NNM   20220406132304    4P0P  00001200000000895200001058632G7    JIJAI   005100280028
BI00B32G7    JJ22062 MW     202205267116-2893-02             TERMINAL                 CCN000108000000108000FN00000000020220601000108000NNM   20220406132304    4P0P  00001200000000895200001058632G7    JIJAI   005100280028
BI00B32G7    JJ22063 MW     202206027116-2893-02             TERMINAL                 CCN000072000000072000FN00000000020220601000072000NNM   20220406132304    4P0P  00001200000000895200001058632G7    JIJAI   005100280028
BI00B32G7    JJ22064 MW     202206097116-2893-02             TERMINAL                 CCN000072000000072000FN00000000020220601000072000NNM   20220406132304    4P0P  00001200000000895200001058632G7    JIJAI   005100280028
BI00B32G7    JJ22064 MW     202206097116-4020                TERMINAL                 CCN000108000000108000FN00000000020220601000108000NNM   20220406132304    4P0P  00001350000000513000000798232G7    JIJAI   006400630015
BI00B32G7    JJ22063 MW     202206027116-4022                TERMINAL                 CCN000013500000013500FN00000000020220601000013500NNM   20220406132304    4P0P  00001350000000618300000903532G7    JIJAI   006400630015
BI00B32G7    JJ22064 MW     202206097116-4022                TERMINAL                 CCN000040500000040500FN00000000020220601000040500NNM   20220406132304    4P0P  00001350000000618300000903532G7    JIJAI   006400630015
BI00B32G7    JJ22063 MW     202206027116-4032                TERMINAL                 CCN000030000000030000FN00000000020220601000030000NNM   20220406132304    4P0P  00000600000000532800000818032G7    JIJAI   006400630015
BI00B32G7    JJ22064 MW     202206097116-4032                TERMINAL                 CCN000024000000024000FN00000000020220601000024000NNM   20220406132304    4P0P  00000600000000532800000818032G7    JIJAI   006400630015
BI00B32G7    JJ22061 MW     202205197116-4037                TERMINAL                 CCN000030000000030000FN00000000020220601000030000NNM   20220406132304    4P0P  00000600000000600000000894232G7    JIJAI   006400630015
BI00B32G7    JJ22062 MW     202205267116-4037                TERMINAL                 CCN000030000000030000FN00000000020220601000030000NNM   20220406132304    4P0P  00000600000000600000000894232G7    JIJAI   006400630015
BI00B32G7    JJ22063 MW     202206027116-4037                TERMINAL                 CCN000036000000036000FN00000000020220601000036000NNM   20220406132304    4P0P  00000600000000600000000894232G7    JIJAI   006400630015
BI00B32G7    JJ22064 MW     202206097116-4037                TERMINAL                 CCN000054000000054000FN00000000020220601000054000NNM   20220406132304    4P0P  00000600000000600000000894232G7    JIJAI   006400630015
BI00B32G7    JJ22062 MW     202205267116-4416-02             TERMINAL                 CCN000032000000032000FN00000000020220601000032000NNM   20220406132304    4P0P  00003200000000518400000847132G7    JIJAI   006400630017
BI00B32G7    JJ22063 MW     202206027116-4416-02             TERMINAL                 CCN000032000000032000FN00000000020220601000032000NNM   20220406132304    4P0P  00003200000000518400000847132G7    JIJAI   006400630017
BI00B32G7    JJ22064 MW     202206097116-4416-02             TERMINAL                 CCN000032000000032000FN00000000020220601000032000NNM   20220406132304    4P0P  00003200000000518400000847132G7    JIJAI   006400630017
BI00B32G7    JJ22062 MW     202205267116-4780-02             TERMINAL FEMALE          CCN000030000000030000FN00000000020220601000030000NNM   20220406132304    4P0P  00001500000000691500000985732G7    JIJAI   006400630015
BI00B32G7    JJ22063 MW     202206027116-4780-02             TERMINAL FEMALE          CCN000090000000090000FN00000000020220601000090000NNM   20220406132304    4P0P  00001500000000691500000985732G7    JIJAI   006400630015
BI00B32G7    JJ22064 MW     202206097116-4780-02             TERMINAL FEMALE          CCN000105000000105000FN00000000020220601000105000NNM   20220406132304    4P0P  00001500000000691500000985732G7    JIJAI   006400630015
BI00B32G7    JJ22061 MW     202205197116-5044-02             TERMINAL                 CCN000096000000096000FN00000000020220601000096000NNM   20220406132304    4P0P  00001600000000641600000986332G7    JIJAI   006400630017
BI00B32G7    JJ22062 MW     202205267116-5044-02             TERMINAL                 CCN000176000000176000FN00000000020220601000176000NNM   20220406132304    4P0P  00001600000000641600000986332G7    JIJAI   006400630017
BI00B32G7    JJ22063 MW     202206027116-5044-02             TERMINAL                 CCN000176000000176000FN00000000020220601000176000NNM   20220406132304    4P0P  00001600000000641600000986332G7    JIJAI   006400630017
BI00B32G7    JJ22064 MW     202206097116-5044-02             TERMINAL                 CCN000176000000176000FN00000000020220601000176000NNM   20220406132304    4P0P  00001600000000641600000986332G7    JIJAI   006400630017
BI00B32G7    JJ22063 MW     202206027116-5045-02             TERMINAL                 CCN000096000000096000FN00000000020220601000096000NNM   20220406132304    4P0P  00001600000000678400001007132G7    JIJAI   006400630017
BI00B32G7    JJ22064 MW     202206097116-5045-02             TERMINAL                 CCN000192000000192000FN00000000020220601000192000NNM   20220406132304    4P0P  00001600000000678400001007132G7    JIJAI   006400630017
BI00B32G7    JJ22061 MW     202205197116-5046-02             TERMINAL                 CCN000060000000060000FN00000000020220601000060000NNM   20220406132304    4P0P  00001200000000544800000873532G7    JIJAI   006400630017
BI00B32G7    JJ22062 MW     202205267116-5046-02             TERMINAL                 CCN000120000000120000FN00000000020220601000120000NNM   20220406132304    4P0P  00001200000000544800000873532G7    JIJAI   006400630017
BI00B32G7    JJ22063 MW     202206027116-5046-02             TERMINAL                 CCN000072000000072000FN00000000020220601000072000NNM   20220406132304    4P0P  00001200000000544800000873532G7    JIJAI   006400630017
BI00B32G7    JJ22064 MW     202206097116-5046-02             TERMINAL                 CCN000072000000072000FN00000000020220601000072000NNM   20220406132304    4P0P  00001200000000544800000873532G7    JIJAI   006400630017
BI00B32G7    JJ22061 MW     202205197116-5750-02             TERMINAL                 CCN000045000000045000FN00000000020220601000045000NNM   20220406132304    4P0P  00001500000000457500000742732G7    JIJAI   006400630015
BI00B32G7    JJ22062 MW     202205267116-5750-02             TERMINAL                 CCN000060000000060000FN00000000020220601000060000NNM   20220406132304    4P0P  00001500000000457500000742732G7    JIJAI   006400630015
BI00B32G7    JJ22063 MW     202206027116-5750-02             TERMINAL                 CCN000045000000045000FN00000000020220601000045000NNM   20220406132304    4P0P  00001500000000457500000742732G7    JIJAI   006400630015
BI00B32G7    JJ22064 MW     202206097116-5750-02             TERMINAL                 CCN000060000000060000FN00000000020220601000060000NNM   20220406132304    4P0P  00001500000000457500000742732G7    JIJAI   006400630015
BI00B32G7    JJ22061 MW     202205197116-5751-02             TERMINAL                 CCN000024000000024000FN00000000020220601000024000NNM   20220406132304    4P0P  00001200000000379200000664432G7    JIJAI   006400630015
BI00B32G7    JJ22062 MW     202205267116-5751-02             TERMINAL                 CCN000084000000084000FN00000000020220601000084000NNM   20220406132304    4P0P  00001200000000379200000664432G7    JIJAI   006400630015
BI00B32G7    JJ22063 MW     202206027116-5751-02             TERMINAL                 CCN000084000000084000FN00000000020220601000084000NNM   20220406132304    4P0P  00001200000000379200000664432G7    JIJAI   006400630015
BI00B32G7    JJ22064 MW     202206097116-5751-02             TERMINAL                 CCN000084000000084000FN00000000020220601000084000NNM   20220406132304    4P0P  00001200000000379200000664432G7    JIJAI   006400630015
BI00B32G7    JJ22061 MW     202205197116-5752-02             TERMINAL                 CCN000063000000063000FN00000000020220601000063000NNM   20220406132304    4P0P  00002100000000571200000856432G7    JIJAI   006400630015
BI00B32G7    JJ22062 MW     202205267116-5752-02             TERMINAL                 CCN000126000000126000FN00000000020220601000126000NNM   20220406132304    4P0P  00002100000000571200000856432G7    JIJAI   006400630015
BI00B32G7    JJ22063 MW     202206027116-5752-02             TERMINAL                 CCN000105000000105000FN00000000020220601000105000NNM   20220406132304    4P0P  00002100000000571200000856432G7    JIJAI   006400630015
BI00B32G7    JJ22064 MW     202206097116-5752-02             TERMINAL                 CCN000084000000084000FN00000000020220601000084000NNM   20220406132304    4P0P  00002100000000571200000856432G7    JIJAI   006400630015
BI00B32G7    JJ22061 MW     202205197116-6041                TERMINAL                 CCN000009000000009000FN00000000020220601000009000NNM   20220406132304    4P0P  00000450000000716000001009632G7    JIJAI   006400630015
BI00B32G7    JJ22062 MW     202205267116-6041                TERMINAL                 CCN000036000000036000FN00000000020220601000036000NNM   20220406132304    4P0P  00000450000000716000001009632G7    JIJAI   006400630015
BI00B32G7    JJ22063 MW     202206027116-6041                TERMINAL                 CCN000036000000036000FN00000000020220601000036000NNM   20220406132304    4P0P  00000450000000716000001009632G7    JIJAI   006400630015
BI00B32G7    JJ22064 MW     202206097116-6041                TERMINAL                 CCN000036000000036000FN00000000020220601000036000NNM   20220406132304    4P0P  00000450000000716000001009632G7    JIJAI   006400630015
BI00B32G7    JJ22061 MW     202205197116-6042                TERMINAL                 CCN000033000000033000FN00000000020220601000033000NNM   20220406132304    4P0P  00000300000000523800000856132G7    JIJAI   006400630015
BI00B32G7    JJ22062 MW     202205267116-6042                TERMINAL                 CCN000027000000027000FN00000000020220601000027000NNM   20220406132304    4P0P  00000300000000523800000856132G7    JIJAI   006400630015
BI00B32G7    JJ22063 MW     202206027116-6042                TERMINAL                 CCN000015000000015000FN00000000020220601000015000NNM   20220406132304    4P0P  00000300000000523800000856132G7    JIJAI   006400630015
BI00B32G7    JJ22064 MW     202206097116-6042                TERMINAL                 CCN000012000000012000FN00000000020220601000012000NNM   20220406132304    4P0P  00000300000000523800000856132G7    JIJAI   006400630015
BI00B32G7    JJ22061 MW     202205197126-8853-02             TERMINAL                 CCN000067500000067500FN00000000020220601000067500NNM   20220406132304    4P0P  00000750000000562500000847732G7    JIJAI   006400630015
BI00B32G7    JJ22062 MW     202205267126-8853-02             TERMINAL                 CCN000105000000105000FN00000000020220601000105000NNM   20220406132304    4P0P  00000750000000562500000847732G7    JIJAI   006400630015
BI00B32G7    JJ22063 MW     202206027126-8853-02             TERMINAL                 CCN000082500000082500FN00000000020220601000082500NNM   20220406132304    4P0P  00000750000000562500000847732G7    JIJAI   006400630015
BI00B32G7    JJ22064 MW     202206097126-8853-02             TERMINAL                 CCN000082500000082500FN00000000020220601000082500NNM   20220406132304    4P0P  00000750000000562500000847732G7    JIJAI   006400630015
BI00B32G7    JJ22061 MW     202205197126-8854-02             TERMINAL                 CCN000037500000037500FN00000000020220601000037500NNM   20220406132304    4P0P  00000750000000604500000889732G7    JIJAI   006400630015
BI00B32G7    JJ22062 MW     202205267126-8854-02             TERMINAL                 CCN000037500000037500FN00000000020220601000037500NNM   20220406132304    4P0P  00000750000000604500000889732G7    JIJAI   006400630015
BI00B32G7    JJ22063 MW     202206027126-8854-02             TERMINAL                 CCN000045000000045000FN00000000020220601000045000NNM   20220406132304    4P0P  00000750000000604500000889732G7    JIJAI   006400630015
BI00B32G7    JJ22064 MW     202206097126-8854-02             TERMINAL                 CCN000045000000045000FN00000000020220601000045000NNM   20220406132304    4P0P  00000750000000604500000889732G7    JIJAI   006400630015
BI00B32G7    JJ22061 MW     202205197126-8855-02             TERMINAL                 CCN000072000000072000FN00000000020220601000072000NNM   20220406132304    4P0P  00000600000000510600000795832G7    JIJAI   006400630015
BI00B32G7    JJ22062 MW     202205267126-8855-02             TERMINAL                 CCN000144000000144000FN00000000020220601000144000NNM   20220406132304    4P0P  00000600000000510600000795832G7    JIJAI   006400630015
BI00B32G7    JJ22063 MW     202206027126-8855-02             TERMINAL                 CCN000072000000072000FN00000000020220601000072000NNM   20220406132304    4P0P  00000600000000510600000795832G7    JIJAI   006400630015
BI00B32G7    JJ22064 MW     202206097126-8855-02             TERMINAL                 CCN000078000000078000FN00000000020220601000078000NNM   20220406132304    4P0P  00000600000000510600000795832G7    JIJAI   006400630015
BI00B32G7    JJ22061 MW     202205197158-3006-90             RUBBER STOPPER           CCN000080000000080000FN00000000020220601000080000NNM   20220406132304    1C0C  00002000000000330600000386032G7    JIJAI   002700430014
BI00B32G7    JJ22062 MW     202205267158-3006-90             RUBBER STOPPER           CCN000100000000100000FN00000000020220601000100000NNM   20220406132304    1C0C  00002000000000330600000386032G7    JIJAI   002700430014
BI00B32G7    JJ22063 MW     202206027158-3006-90             RUBBER STOPPER           CCN000120000000120000FN00000000020220601000120000NNM   20220406132304    1C0C  00002000000000330600000386032G7    JIJAI   002700430014
BI00B32G7    JJ22064 MW     202206097158-3006-90             RUBBER STOPPER           CCN000100000000100000FN00000000020220601000100000NNM   20220406132304    1C0C  00002000000000330600000386032G7    JIJAI   002700430014
BI00B32G7    JJ22061 MW     202205197158-3009-60             RUBBER STOPPER           CCN000060000000060000FN00000000020220601000060000NNM   20220406132304    1C0C  00002000000000338000000386232G7    JIJAI   002700430014
BI00B32G7    JJ22062 MW     202205267158-3009-60             RUBBER STOPPER           CCN000180000000180000FN00000000020220601000180000NNM   20220406132304    1C0C  00002000000000338000000386232G7    JIJAI   002700430014
BI00B32G7    JJ22063 MW     202206027158-3009-60             RUBBER STOPPER           CCN000120000000120000FN00000000020220601000120000NNM   20220406132304    1C0C  00002000000000338000000386232G7    JIJAI   002700430014
BI00B32G7    JJ22064 MW     202206097158-3009-60             RUBBER STOPPER           CCN000120000000120000FN00000000020220601000120000NNM   20220406132304    1C0C  00002000000000338000000386232G7    JIJAI   002700430014
BI00B32G7    JJ22061 MW     202205197158-3070-80             RUBBER STOPPER           CCN000040000000040000FN00000000020220601000040000NNM   20220406132304    1C0C  00004000000000276000000333332G7    JIJAI   002700430014
BI00B32G7    JJ22063 MW     202206027158-3070-80             RUBBER STOPPER           CCN000040000000040000FN00000000020220601000040000NNM   20220406132304    1C0C  00004000000000276000000333332G7    JIJAI   002700430014
BI00B32G7    JJ22064 MW     202206097158-3070-80             RUBBER STOPPER           CCN000040000000040000FN00000000020220601000040000NNM   20220406132304    1C0C  00004000000000276000000333332G7    JIJAI   002700430014
BI00B32G7    JJ22063 MW     202206027283-7526-30             CONNECTOR HOUSING        CCN000001960000001960FN00000000020220601000001960NNM   20220406132304    4N0N  00000196000000989800001248632G7    JIJAI   005500360039
BI00B32G7    JJ22061 MW     202205197286-1915                CONNECTOR SUB ASSY       CCN000003200000003200FN00000000020220601000003200NNM   20220406132304    4N0N  00000160000000965600001165632G7    JIJAI   005500360039
BI00B32G7    JJ22062 MW     202205267286-1915                CONNECTOR SUB ASSY       CCN000006400000006400FN00000000020220601000006400NNM   20220406132304    4N0N  00000160000000965600001165632G7    JIJAI   005500360039
BI00B32G7    JJ22063 MW     202206027286-1915                CONNECTOR SUB ASSY       CCN000006400000006400FN00000000020220601000006400NNM   20220406132304    4N0N  00000160000000965600001165632G7    JIJAI   005500360039
BI00B32G7    JJ22064 MW     202206097286-1915                CONNECTOR SUB ASSY       CCN000006400000006400FN00000000020220601000006400NNM   20220406132304    4N0N  00000160000000965600001165632G7    JIJAI   005500360039
BI00B32G7    JJ22061 MW     202205197287-1915                CONNECTOR ASS'Y          CCN000004800000004800FN00000000020220601000004800NNM   20220406132304    4N0N  00000240000000666500000923132G7    JIJAI   005500360039
BI00B32G7    JJ22062 MW     202205267287-1915                CONNECTOR ASS'Y          CCN000007200000007200FN00000000020220601000007200NNM   20220406132304    4N0N  00000240000000666500000923132G7    JIJAI   005500360039
BI00B32G7    JJ22063 MW     202206027287-1915                CONNECTOR ASS'Y          CCN000009600000009600FN00000000020220601000009600NNM   20220406132304    4N0N  00000240000000666500000923132G7    JIJAI   005500360039
BI00B32G7    JJ22064 MW     202206097287-1915                CONNECTOR ASS'Y          CCN000009600000009600FN00000000020220601000009600NNM   20220406132304    4N0N  00000240000000666500000923132G7    JIJAI   005500360039
BI00B32G7    JJ22064 MW     202206097287-9234                JOINT CONNECTOR          CCN000006000000009600FN00000000020220601000009600NNM   20220406132304    4N0N  00000960000000893800001184832G7    JIJAI   005500360039
BI00B32G7    JJ22061 MW     202205197288-3329-30             HOUSING MALE             CCN000004500000004500FN00000000020220601000004500NNM   20220406132304    4N0N  00000150000000866100001011132G7    JIJAI   005400370024
BI00B32G7    JJ22062 MW     202205267288-3329-30             HOUSING MALE             CCN000003000000003000FN00000000020220601000003000NNM   20220406132304    4N0N  00000150000000866100001011132G7    JIJAI   005400370024
BI00B32G7    JJ22063 MW     202206027288-3329-30             HOUSING MALE             CCN000003000000003000FN00000000020220601000003000NNM   20220406132304    4N0N  00000150000000866100001011132G7    JIJAI   005400370024
BI00B32G7    JJ22064 MW     202206097288-3329-30             HOUSING MALE             CCN000003000000003000FN00000000020220601000003000NNM   20220406132304    4N0N  00000150000000866100001011132G7    JIJAI   005400370024
BI00B32G7    JJ22061 MW     202205197288-3334-30             HOUSING MALE             CCN000003000000003000FN00000000020220601000003000NNM   20220406132304    4N0N  00000150000000867000001012032G7    JIJAI   005400370024
BI00B32G7    JJ22062 MW     202205267288-3334-30             HOUSING MALE             CCN000001500000001500FN00000000020220601000001500NNM   20220406132304    4N0N  00000150000000867000001012032G7    JIJAI   005400370024
BI00B32G7    JJ22063 MW     202206027288-3334-30             HOUSING MALE             CCN000001500000001500FN00000000020220601000001500NNM   20220406132304    4N0N  00000150000000867000001012032G7    JIJAI   005400370024
BI00B32G7    JJ22064 MW     202206097288-3334-30             HOUSING MALE             CCN000001500000001500FN00000000020220601000001500NNM   20220406132304    4N0N  00000150000000867000001012032G7    JIJAI   005400370024
BI00B32G7    JJ22061 MW     202205197288-3335-30             HOUSING MALE             CCN000007500000007500FN00000000020220601000007500NNM   20220406132304    4N0N  00000150000000867000001012032G7    JIJAI   005400370024
BI00B32G7    JJ22062 MW     202205267288-3335-30             HOUSING MALE             CCN000004500000004500FN00000000020220601000004500NNM   20220406132304    4N0N  00000150000000867000001012032G7    JIJAI   005400370024
BI00B32G7    JJ22063 MW     202206027288-3335-30             HOUSING MALE             CCN000006000000006000FN00000000020220601000006000NNM   20220406132304    4N0N  00000150000000867000001012032G7    JIJAI   005400370024
BI00B32G7    JJ22064 MW     202206097288-3335-30             HOUSING MALE             CCN000006000000006000FN00000000020220601000006000NNM   20220406132304    4N0N  00000150000000867000001012032G7    JIJAI   005400370024
BI00B32G7    JJ22061 MW     202205197288-3340-30             HOUSING MALE             CCN000021000000021000FN00000000020220601000021000NNM   20220406132304    4N0N  00000150000000861500001006432G7    JIJAI   005400370024
