BI00B1200    8670T51A02     202205197288-6547                CONNECTOR MALE ASS'Y     CCN000000750000000750FN00000000020220101000000750NNED0420220319174246    4N0N  0000007500000120530000134031200    YCYC    005400370024
BI00B1200    2399T51C18     202203317288-6547                CONNECTOR MALE ASS'Y     CCN000240000000120000FN00000000020220201000120000NNMM0020220319164309    4N0N  0000007500000120530000134031200    YCYC    005400370024
BI00B1200    2399T51C19     202203317288-6547                CONNECTOR MALE ASS'Y     CCN000240000000100500FN00000000020220201000100500NNMM0020220319164343    4N0N  0000007500000120530000134031200    YCYC    005400370024
BI00B1200    2399T51C17     202203317288-6547                CONNECTOR MALE ASS'Y     CCN000120000000163500FN00000000020220101000163500NNMM0020220319164327    4N0N  0000007500000120530000134031200    YCYC    005400370024
BI00B1200    2399T51C18     202204077288-6547                CONNECTOR MALE ASS'Y     CCN000120000000120000FN00000000020220201000120000NNMM0020220319174024    4N0N  0000007500000120530000134031200    YCYC    005400370024
BI00B1200    2399T51C19     202204077288-6547                CONNECTOR MALE ASS'Y     CCN000120000000139500FN00000000020220201000139500NNMM0020220319174043    4N0N  0000007500000120530000134031200    YCYC    005400370024
BI00B1200    2399T52113     202204217288-6547                CONNECTOR MALE ASS'Y     CCN000173250000173250FN00000000020220301000173250NNMM0020220319174102    4N0N  0000007500000120530000134031200    YCYC    005400370024
BI00B1200    2399T52114     202204287288-6547                CONNECTOR MALE ASS'Y     CCN000173250000173250FN00000000020220301000173250NNMM0020220319174143    4N0N  0000007500000120530000134031200    YCYC    005400370024
BI00B1200    2399T52115     202205057288-6547                CONNECTOR MALE ASS'Y     CCN000173250000173250FN00000000020220301000173250NNMM0020220319174158    4N0N  0000007500000120530000134031200    YCYC    005400370024
BI00A1200    2399T52116     202205127288-6547                CONNECTOR MALE ASS'Y     PCN000173250000173250FN00000000020220301000173250NNMM0020220319174215    4N0N  0000007500000120530000134031200    YCYC    005400370024
BI00B1200    2399T52215     202205197288-6547                CONNECTOR MALE ASS'Y     CCN000160500000160500FN00000000020220401000160500NNMD0420220319174231    4N0N  0000007500000120530000134031200    YCYC    005400370024
BI00B1200    2399T52216     202205267288-6547                CONNECTOR MALE ASS'Y     CCN000159750000159750FN00000000020220401000159750NNMD0420220319174258    4N0N  0000007500000120530000134031200    YCYC    005400370024
BI00B1200    2399T52217     202206027288-6547                CONNECTOR MALE ASS'Y     CCN000159750000159750FN00000000020220401000159750NNMD0420220319174312    4N0N  0000007500000120530000134031200    YCYC    005400370024
BI00B1200    2399T52218     202206097288-6547                CONNECTOR MALE ASS'Y     CCN000159750000159750FN00000000020220401000159750NNMD0420220319174324    4N0N  0000007500000120530000134031200    YCYC    005400370024
BI00B1200    2399T52220     202206167288-6547                CONNECTOR MALE ASS'Y     CCN000159750000159750FN00000000020220401000159750NNMD0420220319174403    4N0N  0000007500000120530000134031200    YCYC    005400370024
BI00B1200    2399T52316     202206237288-6547                CONNECTOR MALE ASS'Y     CCN000267000000177750FN00000000020220501000177750NNMD0420220319174421    4N0N  0000007500000120530000134031200    YCYC    005400370024
BI00B1200    2399T52317     202206307288-6547                CONNECTOR MALE ASS'Y     CCN000267000000089250FN00000000020220501000089250NNMD0420220319174433    4N0N  0000007500000120530000134031200    YCYC    005400370024
BI00B1200    2399T52319     202207217288-6547                CONNECTOR MALE ASS'Y     CCN000266250000177750FN00000000020220501000177750NNMD0420220319174517    4N0N  0000007500000120530000134031200    YCYC    005400370024
BI00B1200    2399T52316     202207077288-6547                CONNECTOR MALE ASS'Y     CCN000089250000089250FN00000000020220501000089250NNMD0420220319174446    4N0N  0000007500000120530000134031200    YCYC    005400370024
BI00B1200    2399T52317     202207147288-6547                CONNECTOR MALE ASS'Y     CCN000177750000177750FN00000000020220501000177750NNMD0420220319174457    4N0N  0000007500000120530000134031200    YCYC    005400370024
BI00B1200    2399T52319     202207277288-6547                CONNECTOR MALE ASS'Y     CCN000088500000088500FN00000000020220501000088500NNMD0420220319174517    4N0N  0000007500000120530000134031200    YCYC    005400370024
BI00B32CH    SJ22032HMW     202203047327-6884-30             MULTI FUSE               CCN000017856000010656FY00001065620220301000000000NNM00020220319170051    4N0N  00000028800000988900001154832CH    SJSAMIJF005400370024
BI00B32CH    SJ22032HMW     202203247327-6884-30             MULTI FUSE               CCN000007200000007200FN00000000020220301000007200NNM00020220319170051    4N0N  00000028800000988900001154832CH    SJSAMIJF005400370024
BI00B32G0    #TZ22042EMW    202203227172-5630-40             RUBBER STOPPER           CCN000300000000300000FN00000000020220401000300000NNMD0420220319165952    2H0H  00002000000000044000000095132G0    TTTJY   004300270014
BI00A32H2    TIJ2032        202203287289-3342-30             HOUSING FEMALE ASS'Y     PCN000084000000084000FN00000000020220301000084000NNM00020220319165828    1N0N  00000240000000686400000901432H2    HVYHV   005500360039
BI00A32M4    #TL2042        202204077172-5630-40             RUBBER STOPPER           PCN000040000000040000FN00000000020220401000040000NNMM0020220319165558    2H0H  00002000000000044000000095132M4    SISAI   004300270014
BI00A32U5    DI2008A        202203237289-3342                HOUSING FEMALE ASS'Y     PCN000019200000019200FN00000000020220401000019200NNED0420220319163222U5  1N0N  00000240000000686400000901432U5    AMAMSD  005500360039
BI00A32U5    #DI2015        202203287172-5630-40             RUBBER STOPPER           PCN000360000000360000FN00000000020220501000360000NNM00020220319165403U5  2H0H  00002000000000044000000095132U5    AMAMSD  004300270014
