BI00B32AF    @TTB202A       20220204181E48018ZZ              CAVSAS-S 0.5X2 GY/SB     CCN000000300000000300FN00000000020220201000000300NNE   20220106163007    1W    00000030000002561000000000032AF    HBYHVTB 000000000000UV321002
BI00B32AF    @TTB202A       20220204181E48065ZZ              CAVSAS-S 0.5X4 GY/W      CCN000000200000000200FN00000000020220201000000200NNE   20220106163007    1W    00000020000003995000000000032AF    HBYHVTB 000000000000UV321003
BI00B32AF    @TTB202A       20220204181AD2004ZZ              CIVUSAS-S 0.35X4 B       CCN000032100000032100FN00000000020220201000032100NNE   20220106163007    1W    00000030000002799900000000032AF    HBYHVTB 000000000000UV321001
BI00B32AF    TTB2032        2022021818007704150              AVSS 1.25F R             CCN000006400000006400FN00000000020220301000006400NNM   20220106163009    1W    00000080000001389000000000032AF    HBYHVTB 000000000000UZ122017
BI00B32AF    TTB2033        2022022518007704150              AVSS 1.25F R             CCN000008800000008800FN00000000020220301000008800NNM   20220106163009    1W    00000080000001389000000000032AF    HBYHVTB 000000000000UZ222033
BI00B32AF    TTB2034        2022030418007704150              AVSS 1.25F R             CCN000008800000008800FN00000000020220301000008800NNM   20220106163009    1W    00000080000001389000000000032AF    HBYHVTB 000000000000UZ322040
BI00B32AF    TTB2032        2022021818007704140              AVSS 1.25F W             CCN000006400000006400FN00000000020220301000006400NNM   20220106163009    1W    00000080000001389000000000032AF    HBYHVTB 000000000000UZ122018
BI00B32AF    TTB2033        2022022518007704140              AVSS 1.25F W             CCN000008800000008800FN00000000020220301000008800NNM   20220106163009    1W    00000080000001389000000000032AF    HBYHVTB 000000000000UZ222034
BI00B32AF    TTB2034        2022030418007704140              AVSS 1.25F W             CCN000008800000008800FN00000000020220301000008800NNM   20220106163009    1W    00000080000001389000000000032AF    HBYHVTB 000000000000UZ322041
BI00B32AF    @TTB2033       20220225181B0911741              CAVSAS 0.3X3 GY          CCN000003250000003250FN00000000020220301000003250NNM   20220106163009    1W    00000025000002843000000000032AF    HBYHVTB 000000000000UZ222020
BI00B32AF    @TTB2034       20220304181B0911741              CAVSAS 0.3X3 GY          CCN000004500000004500FN00000000020220301000004500NNM   20220106163009    1W    00000025000002843000000000032AF    HBYHVTB 000000000000UZ322025
BI00B32AF    @TTB2031       20220211181E48023ZZ              CAVSAS-S 0.5X2 GY/W      CCN000000300000000300FN00000000020220301000000300NNM   20220106163009    1W    00000030000002561000000000032AF    HBYHVTB 000000000000UZ421005
BI00B32AF    @TTB2031       20220211181E48026ZZ              CAVSAS-S 0.5X2 GY/LG     CCN000000300000000300FN00000000020220301000000300NNM   20220106163009    1W    00000030000002561000000000032AF    HBYHVTB 000000000000UZ421003
BI00B32AF    @TTB2031       20220211181E48035ZZ              CAVSAS-S 0.5X3 GY        CCN000000200000000200FN00000000020220301000000200NNM   20220106163009    1W    00000020000003795300000000032AF    HBYHVTB 000000000000UZ421007
BI00B32AF    @TTB2031       20220211181E48058ZZ              CAVSAS-S 0.5X2 GY/O      CCN000000300000000300FN00000000020220301000000300NNM   20220106163009    1W    00000030000002561000000000032AF    HBYHVTB 000000000000UZ421004
BI00B32AF    @TTB2031       20220211181E48061ZZ              CAVSAS-S 0.5X2 W/L       CCN000000300000000300FN00000000020220301000000300NNM   20220106163009    1W    00000030000002561000000000032AF    HBYHVTB 000000000000UZ421006
BI00B32AF    @TTB2032       20220218181E48063ZZ              CAVSAS-S 0.5X2 GY/L      CCN000000300000000300FN00000000020220301000000300NNM   20220106163009    1W    00000030000002561000000000032AF    HBYHVTB 000000000000UZ122008
BI00B32AF    @TTB2031       20220211181E48065ZZ              CAVSAS-S 0.5X4 GY/W      CCN000000400000000400FN00000000020220301000000400NNM   20220106163009    1W    00000020000003995000000000032AF    HBYHVTB 000000000000UZ421008
BI00B32AF    @TTB2034       20220304181E48065ZZ              CAVSAS-S 0.5X4 GY/W      CCN000000200000000200FN00000000020220301000000200NNM   20220106163009    1W    00000020000003995000000000032AF    HBYHVTB 000000000000UZ322026
BI00B32AF    @TTB2033       20220225181AD2001ZZ              CIVUSAS-S 0.35X1 B       CCN000009900000009900FN00000000020220301000009900NNM   20220106163009    1W    00000055000001540800000000032AF    HBYHVTB 000000000000UZ222016
BI00B32AF    @TTB2034       20220304181AD2001ZZ              CIVUSAS-S 0.35X1 B       CCN000014850000014850FN00000000020220301000014850NNM   20220106163009    1W    00000055000001540800000000032AF    HBYHVTB 000000000000UZ322021
BI00B32AF    @TTB2033       20220225181AD2002ZZ              CIVUSAS-S 0.35X2 B       CCN000180000000180000FN00000000020220301000180000NNM   20220106163009    1W    00000045000001713700000000032AF    HBYHVTB 000000000000UZ222018
BI00B32AF    @TTB2034       20220304181AD2002ZZ              CIVUSAS-S 0.35X2 B       CCN000450000000450000FN00000000020220301000450000NNM   20220106163009    1W    00000045000001713700000000032AF    HBYHVTB 000000000000UZ322023
BI00B32AF    @TTB2031       20220211181AD2004ZZ              CIVUSAS-S 0.35X4 B       CCN000036900000036900FN00000000020220301000036900NNM   20220106163009    1W    00000030000002799900000000032AF    HBYHVTB 000000000000UZ421002
BI00B32AF    @TTB2032       20220218181AD2004ZZ              CIVUSAS-S 0.35X4 B       CCN000022800000022800FN00000000020220301000022800NNM   20220106163009    1W    00000030000002799900000000032AF    HBYHVTB 000000000000UZ122007
BI00B32AF    @TTB2033       20220225181AD2004ZZ              CIVUSAS-S 0.35X4 B       CCN000024000000024000FN00000000020220301000024000NNM   20220106163009    1W    00000030000002799900000000032AF    HBYHVTB 000000000000UZ222019
BI00B32AF    @TTB2034       20220304181AD2004ZZ              CIVUSAS-S 0.35X4 B       CCN000009000000009000FN00000000020220301000009000NNM   20220106163009    1W    00000030000002799900000000032AF    HBYHVTB 000000000000UZ322024
BI00B32AF    @TTB2033       20220225181AD2008ZZ              CIVUSAS-S 0.5X2 B        CCN000012800000012800FN00000000020220301000012800NNM   20220106163009    1W    00000040000002028000000000032AF    HBYHVTB 000000000000UZ222017
BI00B32AF    @TTB2034       20220304181AD2008ZZ              CIVUSAS-S 0.5X2 B        CCN000012000000012000FN00000000020220301000012000NNM   20220106163009    1W    00000040000002028000000000032AF    HBYHVTB 000000000000UZ322022
BI00B32AG    @XG2202ALMW    20220119181E48031ZZ              CAVSAS-S 0.3X2 GY        CCN000004200000004200FN00000000020220201000004200NNE20 20220106132655    1W    00000035000002008700000000032AG    XGXGY   000000000000XU321001
BI00B32AG    @XG2203ALMW    20220202181E48031ZZ              CAVSAS-S 0.3X2 GY        CCN000006300000006300FN00000000020220301000006300NNE   20220106100904    1W    00000035000002008700000000032AG    XGXGY   000000000000XV321001
BI00B32CH    SJ2202A MW     2022012718007703930              AVSS 0.5F B              CCN000012000000012000FN00000000020220201000012000NNE   20220106095343    1W    00000150000000674000000000032CH    SJSAMIJF000000000000QT221002
BI00B32CH    SJ2202ADMW     202201201801W006980              IVSSH 0.35F BR           CCN000010000000010000FN00000000020220201000010000NNE20 20220106090809    1W    00000250000000452000000000032CH    SJSAMIJF000000000000QV121014
BI00B32CH    SJ2202ADMW     202201201801W006941              IVSSH 0.35F GY           CCN000005000000005000FN00000000020220201000005000NNE20 20220106090809    1W    00000250000000452000000000032CH    SJSAMIJF000000000000QV121015
BI00B32CH    SJ2202ADMW     202201201801W003930              IVSSH 0.5F B             CCN000064800000036000FN00000000020220201000036000NNE20 20220106090809    1W    00000180000000625000000000032CH    SJSAMIJF000000000000QV121001
BI00B32CH    SJ2202ADMW     202201201801W003980              IVSSH 0.5F BR            CCN000027000000018000FN00000000020220201000018000NNE20 20220106090809    1W    00000180000000625000000000032CH    SJSAMIJF000000000000QV121002
BI00B32CH    SJ2202ADMW     202201201801W003960              IVSSH 0.5F G             CCN000021600000021600FN00000000020220201000021600NNE20 20220106090809    1W    00000180000000625000000000032CH    SJSAMIJF000000000000QV121003
BI00B32CH    SJ2202ADMW     202201201801W003961              IVSSH 0.5F LG            CCN000005400000005400FN00000000020220201000005400NNE20 20220106090809    1W    00000180000000625000000000032CH    SJSAMIJF000000000000QV121004
BI00B32CH    SJ2202ADMW     202201201801W003952              IVSSH 0.5F P             CCN000036000000021600FN00000000020220201000021600NNE20 20220106090809    1W    00000180000000625000000000032CH    SJSAMIJF000000000000QV121005
BI00B32CH    SJ2202ADMW     202201201801W003950              IVSSH 0.5F R             CCN000048600000048600FN00000000020220201000048600NNE20 20220106090809    1W    00000180000000625000000000032CH    SJSAMIJF000000000000QV121006
BI00B32CH    SJ2202ADMW     202201201801W003992              IVSSH 0.5F V             CCN000021600000014400FN00000000020220201000014400NNE20 20220106090809    1W    00000180000000625000000000032CH    SJSAMIJF000000000000QV121007
BI00B32CH    SJ2202ADMW     202201201801W003940              IVSSH 0.5F W             CCN000043200000043200FN00000000020220201000043200NNE20 20220106090809    1W    00000180000000625000000000032CH    SJSAMIJF000000000000QV121008
BI00B32CH    SJ2202ADMW     202201201801W003970              IVSSH 0.5F Y             CCN000036000000023400FN00000000020220201000023400NNE20 20220106090809    1W    00000180000000625000000000032CH    SJSAMIJF000000000000QV121009
BI00B32CH    SJ2202ADMW     202201201801W004030              IVSSH 0.75F B            CCN000016900000016900FN00000000020220201000016900NNE20 20220106090809    1W    00000130000000882000000000032CH    SJSAMIJF000000000000QV121010
BI00B32CH    SJ2202ADMW     202201201801W004090              IVSSH 0.75F L            CCN000005200000005200FN00000000020220201000005200NNE20 20220106090809    1W    00000130000000882000000000032CH    SJSAMIJF000000000000QV121011
BI00B32CH    SJ2202ADMW     202201201801W004050              IVSSH 0.75F R            CCN000013000000007800FN00000000020220201000007800NNE20 20220106090809    1W    00000130000000882000000000032CH    SJSAMIJF000000000000QV121012
BI00B32CH    SJ2202ADMW     202201201801W004070              IVSSH 0.75F Y            CCN000006500000006500FN00000000020220201000006500NNE20 20220106090809    1W    00000130000000882000000000032CH    SJSAMIJF000000000000QV121013
BI00B32CH    SJ2202AHMW     2022012718007704130              AVSS 1.25F B             CCN000003200000003200FN00000000020220201000003200NNE   20220106095344    1W    00000080000001389000000000032CH    SJSAMIJF000000000000QU221001
BI00B32DE    TT202D         20220127180D0204060              AVSSH 0.75F G            CCN000001000000001000FN00000000020220201000001000NNE   20220106130237    1W    00000100000000934000000000032DE    TVYEV-TV000000000000VR221001
BI00B32DE    TT202D         20220127180D0204140              AVSSH 1.25F W            CCN000003200000003200FN00000000020220201000003200NNE   20220106130237    1W    00000080000001458000000000032DE    TVYEV-TV000000000000VR221002
BI00B32DE    @TT202D        20220203181E50027ZZ              AVSSCS-S 0.5FX3 DGY/G    CCN000000750000000750FN00000000020220201000000750NNE   20220106130238    1W    00000025000003265000000000032DE    TVYEV-TV000000000000VX421001
BI00B32DE    @TT202D        20220203181F21014ZZ              AVSSHCS-S 0.5FX2 B/L     CCN000000300000000300FN00000000020220201000000300NNE   20220106130238    1W    00000030000002531400000000032DE    TVYEV-TV000000000000VX421003
BI00B32DE    @TT202D        20220203181F21016ZZ              AVSSHCS-S 0.5FX2 B/BR    CCN000002400000002400FN00000000020220201000002400NNE   20220106130238    1W    00000030000002531400000000032DE    TVYEV-TV000000000000VX421002
BI00B32DE    @TT202D        20220203181F21027ZZ              AVSSHCS-S 1.25FX2 B      CCN000001200000001200FN00000000020220201000001200NNE   20220106130238    1W    00000020000004267300000000032DE    TVYEV-TV000000000000VX421004
BI00B32DJ    GHT2202-2      2022011318007703930              AVSS 0.5F B              CCN000006000000000000FY00000000020220201000000000NNM10 20220106080732    1W    00000150000000674000000000032DJ    RBYIPLRB000000000000XH41C015
BI00B32DJ    GHT2202-2      2022011318007704030              AVSS 0.75F B             CCN000006000000000000FY00000000020220201000000000NNM10 20220106080732    1W    00000100000000943000000000032DJ    RBYIPLRB000000000000XH41C016
BI00B32DJ    GHT2202-2      2022011318007704130              AVSS 1.25F B             CCN000004000000000000FY00000000020220201000000000NNM10 20220106080732    1W    00000080000001389000000000032DJ    RBYIPLRB000000000000XH41C017
BI00B32DJ    GHT2202-2      2022011318007704152              AVSS 1.25F P             CCN000005600000000000FY00000000020220201000000000NNM10 20220106080732    1W    00000080000001389000000000032DJ    RBYIPLRB000000000000XH41C019
BI00B32DJ    GHT2202-2      2022011318007704190              AVSS 1.25F L             CCN000010400000000000FY00000000020220201000000000NNM10 20220106080732    1W    00000080000001389000000000032DJ    RBYIPLRB000000000000XH41C018
BI00B32D1    DFTW2213       2022020318000004534              AV 8 B/W                 CCN000003900000003900FN00000000020220401000003900NNE   20220106143327    1W    00000010000010466200000000032D1    TOYOT-K 000000000000KO321047
BI00B32D1    DFTW2213       2022020318000004535              AV 8 B/R                 CCN000005700000005700FN00000000020220401000005700NNE   20220106143327    1W    00000010000010466200000000032D1    TOYOT-K 000000000000KO321046
BI00B32D1    DFTW2213       2022020318000004540              AV 8 W                   CCN000003300000003300FN00000000020220401000003300NNE   20220106143327    1W    00000010000010466200000000032D1    TOYOT-K 000000000000KO321048
BI00B32D1    DFTW2213       2022020318000004543              AV 8 W/B                 CCN000003600000003600FN00000000020220401000003600NNE   20220106143327    1W    00000010000010466200000000032D1    TOYOT-K 000000000000KO321049
BI00B32D1    @DFTW2213      20220203181AD2002ZZ              CIVUSAS-S 0.35X2 B       CCN000009900000009900FN00000000020220401000009900NNE   20220106143323    1W    00000045000001713700000000032D1    TOYOT-K 000000000000KO321019
BI00B32D1    @DFTW2213      20220203181AD2003ZZ              CIVUSAS-S 0.35X3 B       CCN000001400000001400FN00000000020220401000001400NNE   20220106143323    1W    00000035000002172100000000032D1    TOYOT-K 000000000000KO321020
BI00B32D1    @DFTW2213      20220203181AD2004ZZ              CIVUSAS-S 0.35X4 B       CCN000004200000004200FN00000000020220401000004200NNE   20220106143323    1W    00000030000002799900000000032D1    TOYOT-K 000000000000KO321021
BI00B32D1    @DFTW2213      20220203181E48031ZZ              CAVSAS-S 0.3X2 GY        CCN000002800000002800FN00000000020220401000002800NNE   20220106143323    1W    00000035000002008700000000032D1    TOYOT-K 000000000000KO321022
BI00B32D1    @DFTW2213      20220203181E48037ZZ              CAVSAS-S 0.3X4 GY        CCN000004250000004250FN00000000020220401000004250NNE   20220106143323    1W    00000025000003262000000000032D1    TOYOT-K 000000000000KO321024
BI00B32D1    @DFTW2213      20220203181E48041ZZ              CAVSAS-S 0.3X2 GY/R      CCN000002100000002100FN00000000020220401000002100NNE   20220106143323    1W    00000035000002008700000000032D1    TOYOT-K 000000000000KO321023
BI00B32D1    @DFTW2213      20220203181E50002ZZ              AVSSCS-S 0.3FX2 DGY/G    CCN000007000000007000FN00000000020220401000007000NNE   20220106143323    1W    00000035000002165000000000032D1    TOYOT-K 000000000000KO321030
BI00B32D1    @DFTW2213      20220203181E50004ZZ              AVSSCS-S 0.5FX1 DGY      CCN000006400000006400FN00000000020220401000006400NNE   20220106143323    1W    00000040000001909700000000032D1    TOYOT-K 000000000000KO321025
BI00B32D1    @DFTW2213      20220203181E50005ZZ              AVSSCS-S 0.5FX1 DGY/W    CCN000001200000001200FN00000000020220401000001200NNE   20220106143323    1W    00000040000001909700000000032D1    TOYOT-K 000000000000KO321028
BI00B32D1    @DFTW2213      20220203181E50007ZZ              AVSSCS-S 0.5FX1 DGY/L    CCN000002800000002800FN00000000020220401000002800NNE   20220106143323    1W    00000040000001909700000000032D1    TOYOT-K 000000000000KO321026
BI00B32D1    @DFTW2213      20220203181E50014ZZ              AVSSCS-S 0.5FX1 DGY/R    CCN000000400000000400FN00000000020220401000000400NNE   20220106143323    1W    00000040000001909700000000032D1    TOYOT-K 000000000000KO321027
BI00B32D1    @DFTW2213      20220203181E50020ZZ              AVSSCS-S 0.3FX2 DGY/R    CCN000003150000003150FN00000000020220401000003150NNE   20220106143323    1W    00000035000002165000000000032D1    TOYOT-K 000000000000KO321032
BI00B32D1    @DFTW2213      20220203181E50021ZZ              AVSSCS-S 0.3FX2 DGY/P    CCN000003500000003500FN00000000020220401000003500NNE   20220106143323    1W    00000035000002165000000000032D1    TOYOT-K 000000000000KO321031
BI00B32D1    @DFTW2213      20220203181E50036ZZ              AVSSCS-S 0.3FX2 DGY      CCN000004200000004200FN00000000020220401000004200NNE   20220106143323    1W    00000035000002165000000000032D1    TOYOT-K 000000000000KO321029
BI00B32D2    DGTW2213       2022020318000004530              AV 8 B                   CCN000025600000025600FN00000000020220401000025600NNE   20220106142130    1W    00000010000010466200000000032D2    TGYOT-G 000000000000KR321037
BI00B32D2    DGTW2213       2022020318000004540              AV 8 W                   CCN000010700000010700FN00000000020220401000010700NNE   20220106142130    1W    00000010000010466200000000032D2    TGYOT-G 000000000000KR321039
BI00B32D2    DGTW2213       2022020318000004543              AV 8 W/B                 CCN000006800000006800FN00000000020220401000006800NNE   20220106142130    1W    00000010000010466200000000032D2    TGYOT-G 000000000000KR321040
BI00B32D2    DGTW2213       2022020318000004590              AV 8 L                   CCN000008800000008800FN00000000020220401000008800NNE   20220106142130    1W    00000010000010466200000000032D2    TGYOT-G 000000000000KR321038
BI00B32D2    @DGTW2213      20220203181AD2002ZZ              CIVUSAS-S 0.35X2 B       CCN000020250000020250FN00000000020220401000020250NNE   20220106142128    1W    00000045000001713700000000032D2    TGYOT-G 000000000000KR321012
BI00B32D2    @DGTW2213      20220203181AD2003ZZ              CIVUSAS-S 0.35X3 B       CCN000012950000012950FN00000000020220401000012950NNE   20220106142128    1W    00000035000002172100000000032D2    TGYOT-G 000000000000KR321013
BI00B32D2    @DGTW2213      20220203181AD2004ZZ              CIVUSAS-S 0.35X4 B       CCN000012600000012600FN00000000020220401000012600NNE   20220106142128    1W    00000030000002799900000000032D2    TGYOT-G 000000000000KR321014
BI00B32D2    @DGTW2213      20220203181E48037ZZ              CAVSAS-S 0.3X4 GY        CCN000006500000006500FN00000000020220401000006500NNE   20220106142128    1W    00000025000003262000000000032D2    TGYOT-G 000000000000KR321015
BI00B32D2    @DGTW2213      20220203181E50004ZZ              AVSSCS-S 0.5FX1 DGY      CCN000012800000012800FN00000000020220401000012800NNE   20220106142128    1W    00000040000001909700000000032D2    TGYOT-G 000000000000KR321016
BI00B32D2    @DGTW2213      20220203181E50005ZZ              AVSSCS-S 0.5FX1 DGY/W    CCN000008800000008800FN00000000020220401000008800NNE   20220106142128    1W    00000040000001909700000000032D2    TGYOT-G 000000000000KR321018
BI00B32D2    @DGTW2213      20220203181E50007ZZ              AVSSCS-S 0.5FX1 DGY/L    CCN000002400000002400FN00000000020220401000002400NNE   20220106142128    1W    00000040000001909700000000032D2    TGYOT-G 000000000000KR321017
BI00B32D2    @DGTW2213      20220203181E50016ZZ              AVSSCS-S 0.5FX2 DGY/R    CCN000002400000002400FN00000000020220401000002400NNE   20220106142128    1W    00000030000003096000000000032D2    TGYOT-G 000000000000KR321019
BI00B32D2    @DGTW2213      20220203181E50036ZZ              AVSSCS-S 0.3FX2 DGY      CCN000002450000002450FN00000000020220401000002450NNE   20220106142128    1W    00000035000002165000000000032D2    TGYOT-G 000000000000KR321020
BI00B32D2    @DGTW2213      20220203181F21014ZZ              AVSSHCS-S 0.5FX2 B/L     CCN000004500000004500FN00000000020220401000004500NNE   20220106142128    1W    00000030000002531400000000032D2    TGYOT-G 000000000000KR321022
BI00B32D2    @DGTW2213      20220203181F21016ZZ              AVSSHCS-S 0.5FX2 B/BR    CCN000002400000002400FN00000000020220401000002400NNE   20220106142128    1W    00000030000002531400000000032D2    TGYOT-G 000000000000KR321021
BI00B32D2    @DGTW2213      20220203181F21031ZZ              AVSSHCS-S 1.25FX2 B/P    CCN000002600000002600FN00000000020220401000002600NNE   20220106142128    1W    00000020000004267300000000032D2    TGYOT-G 000000000000KR321023
BI00B32G7    JW2202C MW     2022022418007703992              AVSS 0.5F V              CCN000003000000003000FN00000000020220201000003000NNE   20220106081326    1W    00000150000000674000000000032G7    JIJAI   000000000000JG222003
BI00B32G7    @JW2202C MW    20220127181E48060ZZ              CAVSAS-S 0.5X2 GY/V      CCN000000600000000600FN00000000020220201000000600NNE   20220106081323    1W    00000030000002561000000000032G7    JIJAI   000000000000JG221001
BI00B32G7    JW2202DMMW     202201271801W003990              IVSSH 0.5F L             CCN000001800000001800FN00000000020220201000001800NNE   20220106081328    1W    00000180000000625000000000032G7    JIJAI   000000000000JH221001
BI00B32G7    JW2202DMMW     202201271801W006940              IVSSH 0.35F W            CCN000002500000002500FN00000000020220201000002500NNE   20220106081328    1W    00000250000000452000000000032G7    JIJAI   000000000000JH221004
BI00B32G7    JW2202DMMW     202201271801W006990              IVSSH 0.35F L            CCN000007500000007500FN00000000020220201000007500NNE   20220106081328    1W    00000250000000452000000000032G7    JIJAI   000000000000JH221002
BI00B32G7    JW2202DMMW     202201271801W006992              IVSSH 0.35F V            CCN000005000000005000FN00000000020220201000005000NNE   20220106081328    1W    00000250000000452000000000032G7    JIJAI   000000000000JH221003
BI00B32G7    @JW2202BLMW    20220203181AD2021ZZ              CIVUSAS-S 0.35X2 B(L,GY) CCN000001800000001800FN00000000020220201000001800NNE   20220106084540    1W    00000045000001714000000000032G7    JIJAI   000000000000JN321001
BI00B32G7    @JW2202BLMW    20220203181AD2022ZZ              CIVUSAS-S 0.35X2 B(R,G)  CCN000000900000000900FN00000000020220201000000900NNE   20220106084540    1W    00000045000001714000000000032G7    JIJAI   000000000000JN321002
BI00B32G7    JW2202D MW     2022022418007703930              AVSS 0.5F B              CCN000001500000001500FN00000000020220201000001500NNE   20220106084542    1W    00000150000000674000000000032G7    JIJAI   000000000000JH222004
BI00B32G7    @JW2202D MW    20220203181E48060ZZ              CAVSAS-S 0.5X2 GY/V      CCN000001500000001500FN00000000020220201000001500NNE   20220106084541    1W    00000030000002561000000000032G7    JIJAI   000000000000JO321001
BI00B32G7    JW2202EMMW     202201271801W003990              IVSSH 0.5F L             CCN000005400000005400FN00000000020220201000005400NNE   20220106084543    1W    00000180000000625000000000032G7    JIJAI   000000000000JF221001
BI00B32G7    JW2202EMMW     202201271801W006960              IVSSH 0.35F G            CCN000002500000002500FN00000000020220201000002500NNE   20220106084543    1W    00000250000000452000000000032G7    JIJAI   000000000000JF221002
BI00B32G7    JW2202EMMW     202201271801W006970              IVSSH 0.35F Y            CCN000002500000002500FN00000000020220201000002500NNE   20220106084543    1W    00000250000000452000000000032G7    JIJAI   000000000000JF221004
BI00B32G7    JW2202EMMW     202201271801W006992              IVSSH 0.35F V            CCN000002500000002500FN00000000020220201000002500NNE   20220106084543    1W    00000250000000452000000000032G7    JIJAI   000000000000JF221003
BI00B32J1    @389904        20220124181AD2002ZZ              CIVUSAS-S 0.35X2 B       CCN000042300000042300FN00000000020220101000042300NNM   20220106132858    1W    00000045000001713700000000032J1    UKYEL-BL000000000000KG221001
BI00B32J1    @389904        20220124181AD2003ZZ              CIVUSAS-S 0.35X3 B       CCN000012950000012950FN00000000020220101000012950NNM   20220106132858    1W    00000035000002172100000000032J1    UKYEL-BL000000000000KG221002
BI00B32J1    @389904        20220124181E48013ZZ              CAVSAS-S 0.3X3 GY        CCN000002000000002000FN00000000020220101000002000NNM   20220106132858    1W    00000025000002778200000000032J1    UKYEL-BL000000000000KG221005
BI00B32J1    @389904        20220124181E48022ZZ              CAVSAS-S 0.5X2 GY        CCN000018300000018300FN00000000020220101000018300NNM   20220106132858    1W    00000030000002561000000000032J1    UKYEL-BL000000000000KG221003
BI00B32J1    @389904        20220124181E48027ZZ              CAVSAS-S 0.5X2 GY/P      CCN000001800000001800FN00000000020220101000001800NNM   20220106132858    1W    00000030000002561000000000032J1    UKYEL-BL000000000000KG221004
BI00B32M1    @TV201C        20220120181AD2007ZZ              CIVUSAS-S 0.5X1 B        CCN000001000000001000FN00000000020220101000001000NNE   20220106115155    1W    00000050000001639600000000032M1    VNYEV   000000000000VC121001
