BI00A1200    2399T51920     202201177288-6547                CONNECTOR MALE ASS'Y     PCN000216750000078750FN00000000020211101000078750NNM00020220106152127    4N0N  0000007500000120530000134031200    YCYC    005400370024
BI00B1200    2399T52113     202202107288-6598-70             HOUSING MALE ASS'Y       CCN000025920000025920FN00000000020220301000025920NNMD0420220106132735    4N0N  0000014400000107420000142921200    YCYC    005500360039
BI00B1200    2399T52114     202202177288-6598-70             HOUSING MALE ASS'Y       CCN000024480000024480FN00000000020220301000024480NNMD0420220106132735    4N0N  0000014400000107420000142921200    YCYC    005500360039
BI00B1200    2399T52115     202202247288-6598-70             HOUSING MALE ASS'Y       CCN000024480000024480FN00000000020220301000024480NNMD0420220106132735    4N0N  0000014400000107420000142921200    YCYC    005500360039
BI00B1200    2399T52116     202203037288-6598-70             HOUSING MALE ASS'Y       CCN000024480000024480FN00000000020220301000024480NNMD0420220106132735    4N0N  0000014400000107420000142921200    YCYC    005500360039
BI00B1200    2399T52113     202202107289-5979-30             HOUSING FEMALE ASS'Y     CCN000064764000021420FN00000000020220301000021420NNMD0420220106132735    1N0N  0000002520000085470000106471200    YCYC    005400370024
BI00B1200    2399T52114     202203037289-5979-30             HOUSING FEMALE ASS'Y     CCN000064512000021420FN00000000020220301000021420NNMD0420220106132735    1N0N  0000002520000085470000106471200    YCYC    005400370024
BI00B1200    2399T52115     202203247289-5979-30             HOUSING FEMALE ASS'Y     CCN000064512000021420FN00000000020220301000021420NNMD0420220106132735    1N0N  0000002520000085470000106471200    YCYC    005400370024
BI00B1200    2399T52116     202204217289-5979-30             HOUSING FEMALE ASS'Y     CCN000064512000021420FN00000000020220301000021420NNMD0420220106132735    1N0N  0000002520000085470000106471200    YCYC    005400370024
BI00B1200    2399T52113     202202177289-6868-30             SEALED ASSY FEMALE       CCN000065520000065520FN00000000020220301000065520NNMD0420220106132735    4N0N  0000025200000083920000111921200    YCYC    005500360039
BI00B1200    2399T52114     202202247289-6868-30             SEALED ASSY FEMALE       CCN000065520000065520FN00000000020220301000065520NNMD0420220106132735    4N0N  0000025200000083920000111921200    YCYC    005500360039
BI00B1200    2399T52115     202203037289-6868-30             SEALED ASSY FEMALE       CCN000065520000065520FN00000000020220301000065520NNMD0420220106132735    4N0N  0000025200000083920000111921200    YCYC    005500360039
BI00B1200    2399T52116     202203107289-6868-30             SEALED ASSY FEMALE       CCN000065520000065520FN00000000020220301000065520NNMD0420220106132735    4N0N  0000025200000083920000111921200    YCYC    005500360039
BI00B1200    2399T52113     202202177289-9553-50             SEALED ASSY FEMALE       CCN000052920000052920FN00000000020220301000052920NNMD0420220106132735    4N0N  0000029400000110810000152061200    YCYC    005500360039
BI00B1200    2399T52114     202202247289-9553-50             SEALED ASSY FEMALE       CCN000052920000052920FN00000000020220301000052920NNMD0420220106132735    4N0N  0000029400000110810000152061200    YCYC    005500360039
BI00B1200    2399T52115     202203037289-9553-50             SEALED ASSY FEMALE       CCN000049980000049980FN00000000020220301000049980NNMD0420220106132735    4N0N  0000029400000110810000152061200    YCYC    005500360039
BI00B1200    2399T52116     202203107289-9553-50             SEALED ASSY FEMALE       CCN000049980000049980FN00000000020220301000049980NNMD0420220106132735    4N0N  0000029400000110810000152061200    YCYC    005500360039
BI00B1200    2399T52113     202202247298-1145-4W             SQUIB SUB ASS'Y          CCN000110000000110000FN00000000020220301000110000NNMD0420220106132735    4N0N  0000100000000078790000094491200    YCYC    005400370024
BI00B1200    2399T52114     202203037298-1145-4W             SQUIB SUB ASS'Y          CCN000110000000110000FN00000000020220301000110000NNMD0420220106132735    4N0N  0000100000000078790000094491200    YCYC    005400370024
BI00B1200    2399T52115     202203107298-1145-4W             SQUIB SUB ASS'Y          CCN000100000000100000FN00000000020220301000100000NNMD0420220106132735    4N0N  0000100000000078790000094491200    YCYC    005400370024
BI00B1200    2399T52116     202203177298-1145-4W             SQUIB SUB ASS'Y          CCN000100000000100000FN00000000020220301000100000NNMD0420220106132735    4N0N  0000100000000078790000094491200    YCYC    005400370024
BI00B1200    7504T211216    202201137340-9416-0W             J/B ASS'Y                CCN000000010000000010FN00000000020220101000000010NNED0720220106135113    4J0J  0000000100000054860000073401200    YCYC    005400370024
BI00B1200    2399T52113     202202177289-5979-30             HOUSING FEMALE ASS'Y     CCN000021420000021420FN00000000020220301000021420NNMD0420220106132735    1N0N  0000002520000085470000106471200    YCYC    005400370024
BI00B1200    2399T52113     202202247289-5979-30             HOUSING FEMALE ASS'Y     CCN000021420000021924FN00000000020220301000021924NNMD0420220106132735    1N0N  0000002520000085470000106471200    YCYC    005400370024
BI00B1200    2399T52114     202203107289-5979-30             HOUSING FEMALE ASS'Y     CCN000021420000021420FN00000000020220301000021420NNMD0420220106132735    1N0N  0000002520000085470000106471200    YCYC    005400370024
BI00B1200    2399T52114     202203177289-5979-30             HOUSING FEMALE ASS'Y     CCN000021672000021672FN00000000020220301000021672NNMD0420220106132735    1N0N  0000002520000085470000106471200    YCYC    005400370024
BI00B1200    2399T52115     202203317289-5979-30             HOUSING FEMALE ASS'Y     CCN000021420000021420FN00000000020220301000021420NNMD0420220106132735    1N0N  0000002520000085470000106471200    YCYC    005400370024
BI00B1200    2399T52115     202204077289-5979-30             HOUSING FEMALE ASS'Y     CCN000021672000021672FN00000000020220301000021672NNMD0420220106132735    1N0N  0000002520000085470000106471200    YCYC    005400370024
BI00B1200    2399T52116     202204217289-5979-30             HOUSING FEMALE ASS'Y     CCN000021420000021420FN00000000020220301000021420NNMD0420220106132735    1N0N  0000002520000085470000106471200    YCYC    005400370024
BI00B1200    2399T52116     202204287289-5979-30             HOUSING FEMALE ASS'Y     CCN000021672000021672FN00000000020220301000021672NNMD0420220106132735    1N0N  0000002520000085470000106471200    YCYC    005400370024
BI00B32A7    ZZ22031BMW     202202027114-4728-08             TERMINAL                 CCN000060000000060000FN00000000020220301000060000NNM   20220106144652    4P0P  00003000000000507000000801232A7    ZZZZY   006400630015
BI00B32A7    ZZ22031BMW     202202027114-4729-08             TERMINAL                 CCN000150000000150000FN00000000020220301000150000NNM   20220106144652    4P0P  00003000000000522000000816232A7    ZZZZY   006400630015
BI00B32A7    ZZ22032BMW     202202097114-4729-08             TERMINAL                 CCN000060000000060000FN00000000020220301000060000NNM   20220106144652    4P0P  00003000000000522000000816232A7    ZZZZY   006400630015
BI00B32A7    ZZ22033BMW     202202097114-4729-08             TERMINAL                 CCN000120000000120000FN00000000020220301000120000NNM   20220106144652    4P0P  00003000000000522000000816232A7    ZZZZY   006400630015
BI00B32A7    ZZ22034BMW     202202237114-4729-08             TERMINAL                 CCN000060000000060000FN00000000020220301000060000NNM   20220106144652    4P0P  00003000000000522000000816232A7    ZZZZY   006400630015
BI00B32A7    ZZ22031BMW     202202027116-3153-08             TERMINAL                 CCN000054000000054000FN00000000020220301000054000NNM   20220106144652    4P0P  00002700000000461700000746932A7    ZZZZY   006400630015
BI00B32A7    ZZ22033BMW     202202097116-3153-08             TERMINAL                 CCN000027000000027000FN00000000020220301000027000NNM   20220106144652    4P0P  00002700000000461700000746932A7    ZZZZY   006400630015
BI00B32A7    ZZ22031BMW     202202027116-3154-08             TERMINAL                 CCN000243000000243000FN00000000020220301000243000NNM   20220106144652    4P0P  00002700000000475200000760432A7    ZZZZY   006400630015
BI00B32A7    ZZ22032BMW     202202097116-3154-08             TERMINAL                 CCN000027000000027000FN00000000020220301000027000NNM   20220106144652    4P0P  00002700000000475200000760432A7    ZZZZY   006400630015
BI00B32A7    ZZ22033BMW     202202097116-3154-08             TERMINAL                 CCN000162000000162000FN00000000020220301000162000NNM   20220106144652    4P0P  00002700000000475200000760432A7    ZZZZY   006400630015
BI00B32A7    ZZ22034BMW     202202237116-3154-08             TERMINAL                 CCN000081000000081000FN00000000020220301000081000NNM   20220106144652    4P0P  00002700000000475200000760432A7    ZZZZY   006400630015
BI00B32A7    ZZ22031BMW     202202027137-3047-30             UNIT PACKING             CCN000055000000055000FN00000000020220301000055000NNM   20220106144652    1C0C  00000100000000170500000218932A7    ZZZZY   002700430014
BI00B32A7    ZZ22033BMW     202202097137-3047-30             UNIT PACKING             CCN000023000000023000FN00000000020220301000023000NNM   20220106144652    1C0C  00000100000000170500000218932A7    ZZZZY   002700430014
BI00B32A7    ZZ22034BMW     202202237137-3047-30             UNIT PACKING             CCN000013000000013000FN00000000020220301000013000NNM   20220106144652    1C0C  00000100000000170500000218932A7    ZZZZY   002700430014
BI00B32A7    ZZ22031BMW     202202027158-3006-90             RUBBER STOPPER           CCN000060000000060000FN00000000020220301000060000NNM   20220106144652    1C0C  00002000000000330600000386032A7    ZZZZY   002700430014
BI00B32A7    ZZ22032BMW     202202097158-3006-90             RUBBER STOPPER           CCN000020000000020000FN00000000020220301000020000NNM   20220106144652    1C0C  00002000000000330600000386032A7    ZZZZY   002700430014
BI00B32A7    ZZ22033BMW     202202097158-3006-90             RUBBER STOPPER           CCN000080000000080000FN00000000020220301000080000NNM   20220106144652    1C0C  00002000000000330600000386032A7    ZZZZY   002700430014
BI00B32A7    ZZ22031BMW     202202027158-3166-60             WIRE SEAL                CCN000040000000040000FN00000000020220301000040000NNM   20220106144652    1C0C  00004000000000104000000152432A7    ZZZZY   002700430014
BI00B32A7    ZZ22031BMW     202202027158-3167-80             WIRE SEAL                CCN000080000000080000FN00000000020220301000080000NNM   20220106144652    1C0C  00002000000000048000000109032A7    ZZZZY   002700430014
BI00B32A7    ZZ22031BMW     202202027172-5402-30             SEAL RUBBER              CCN000128000000128000FN00000000020220301000128000NNM   20220106144652    1C0C  00000800000000457600000506032A7    ZZZZY   004300270014
BI00B32A7    ZZ22033BMW     202202097172-5402-30             SEAL RUBBER              CCN000048000000048000FN00000000020220301000048000NNM   20220106144652    1C0C  00000800000000457600000506032A7    ZZZZY   004300270014
BI00B32A7    ZZ22034BMW     202202237172-5402-30             SEAL RUBBER              CCN000032000000032000FN00000000020220301000032000NNM   20220106144652    1C0C  00000800000000457600000506032A7    ZZZZY   004300270014
BI00B32A7    ZZ22031BMW     202202027172-5403-30             SEALED PACKING           CCN000136000000136000FN00000000020220301000136000NNM   20220106144652    1C0C  00000400000000653600000701732A7    ZZZZY   004300270014
BI00B32A7    ZZ22033BMW     202202097172-5403-30             SEALED PACKING           CCN000052000000052000FN00000000020220301000052000NNM   20220106144652    1C0C  00000400000000653600000701732A7    ZZZZY   004300270014
BI00B32A7    ZZ22034BMW     202202237172-5403-30             SEALED PACKING           CCN000028000000028000FN00000000020220301000028000NNM   20220106144652    1C0C  00000400000000653600000701732A7    ZZZZY   004300270014
BI00B32A7    ZZ22031BMW     202202027289-3342                HOUSING FEMALE ASS'Y     CCN000004800000004800FN00000000020220301000004800NNM   20220106144652    1N0N  00000240000000686400000901432A7    ZZZZY   005500360039
BI00B32A7    ZZ22033BMW     202202097289-3342                HOUSING FEMALE ASS'Y     CCN000002400000002400FN00000000020220301000002400NNM   20220106144652    1N0N  00000240000000686400000901432A7    ZZZZY   005500360039
BI00B32A7    #ZZ22031BMW    202202027158-3003-90             RUBBER STOPPER           CCN000020000000020000FN00000000020220301000020000NNM   20220106144648    2C0C  00002000000000250000000306032A7    ZZZZY   002700430014
BI00B32A7    #ZZ22031BMW    202202027172-5937-90             SEAL RUBBER              CCN000005000000005000FN00000000020220301000005000NNM   20220106144648    2H0H  00000100000000620000000666832A7    ZZZZY   004300270014
BI00B32A7    #ZZ22032BMW    202202097172-5937-90             SEAL RUBBER              CCN000004000000004000FN00000000020220301000004000NNM   20220106144648    2H0H  00000100000000620000000666832A7    ZZZZY   004300270014
BI00B32A7    #ZZ22033BMW    202202097172-5937-90             SEAL RUBBER              CCN000002000000002000FN00000000020220301000002000NNM   20220106144648    2H0H  00000100000000620000000666832A7    ZZZZY   004300270014
BI00B32A7    #ZZ22034BMW    202202237172-5937-90             SEAL RUBBER              CCN000002000000002000FN00000000020220301000002000NNM   20220106144648    2H0H  00000100000000620000000666832A7    ZZZZY   004300270014
BI00B32A7    #ZZ22031BMW    202202027182-9632-30             JOINT CONNECTOR          CCN000006000000006000FN00000000020220301000006000NNM   20220106144648    2F0F  00000300000001320000001445532A7    ZZZZY   005400370024
BI00B32A7    #ZZ22033BMW    202202097182-9632-30             JOINT CONNECTOR          CCN000003000000003000FN00000000020220301000003000NNM   20220106144648    2F0F  00000300000001320000001445532A7    ZZZZY   005400370024
BI00B32A7    ZZ22033LMW     202202097017-1180-02             TERMINAL                 CCN000072000000072000FN00000000020220301000072000NNM   20220106144725    4P0P  00007200000001065600001229032A7    ZZZZY   005100280028
BI00B32A7    ZZ22034LMW     202202237017-1180-02             TERMINAL                 CCN000072000000072000FN00000000020220301000072000NNM   20220106144725    4P0P  00007200000001065600001229032A7    ZZZZY   005100280028
BI00B32A7    ZZ22031LMW     202202027017-1182-02             TERMINAL                 CCN000045000000045000FN00000000020220301000045000NNM   20220106144725    4P0P  00004500000001165500001318632A7    ZZZZY   005100280028
BI00B32A7    ZZ22033LMW     202202097017-1182-02             TERMINAL                 CCN000090000000090000FN00000000020220301000090000NNM   20220106144725    4P0P  00004500000001165500001318632A7    ZZZZY   005100280028
BI00B32A7    ZZ22031LMW     202202027017-1183-02             TERMINAL                 CCN000135000000135000FN00000000020220301000135000NNM   20220106144725    4P0P  00002700000001139400001307432A7    ZZZZY   005100280028
BI00B32A7    ZZ22033LMW     202202097017-1183-02             TERMINAL                 CCN000054000000054000FN00000000020220301000054000NNM   20220106144725    4P0P  00002700000001139400001307432A7    ZZZZY   005100280028
BI00B32A7    ZZ22034LMW     202202237017-1183-02             TERMINAL                 CCN000027000000027000FN00000000020220301000027000NNM   20220106144725    4P0P  00002700000001139400001307432A7    ZZZZY   005100280028
BI00B32A7    ZZ22031LMW     202202027116-1685-02             TERMINAL                 CCN000120000000120000FN00000000020220301000120000NNM   20220106144725    4P0P  00002400000000897600001065232A7    ZZZZY   005100280028
BI00B32A7    ZZ22033LMW     202202097116-1685-02             TERMINAL                 CCN000024000000024000FN00000000020220301000024000NNM   20220106144725    4P0P  00002400000000897600001065232A7    ZZZZY   005100280028
BI00B32A7    ZZ22034LMW     202202237116-1685-02             TERMINAL                 CCN000048000000048000FN00000000020220301000048000NNM   20220106144725    4P0P  00002400000000897600001065232A7    ZZZZY   005100280028
BI00B32A7    ZZ22032LMW     202202097116-4020                TERMINAL                 CCN000013500000013500FN00000000020220301000013500NNM   20220106144725    4P0P  00001350000000513000000798232A7    ZZZZY   006400630015
BI00B32A7    ZZ22031LMW     202202027116-4025                TERMINAL                 CCN000032000000032000FN00000000020220301000032000NNM   20220106144725    4P0P  00001600000000644800000975132A7    ZZZZY   006400630017
BI00B32A7    ZZ22032LMW     202202097116-4025                TERMINAL                 CCN000032000000032000FN00000000020220301000032000NNM   20220106144725    4P0P  00001600000000644800000975132A7    ZZZZY   006400630017
BI00B32A7    ZZ22033LMW     202202097116-4025                TERMINAL                 CCN000048000000048000FN00000000020220301000048000NNM   20220106144725    4P0P  00001600000000644800000975132A7    ZZZZY   006400630017
BI00B32A7    ZZ22031LMW     202202027116-4026                TERMINAL                 CCN000112000000112000FN00000000020220301000112000NNM   20220106144725    4P0P  00001600000000664000000994332A7    ZZZZY   006400630017
BI00B32A7    ZZ22033LMW     202202097116-4026                TERMINAL                 CCN000048000000048000FN00000000020220301000048000NNM   20220106144725    4P0P  00001600000000664000000994332A7    ZZZZY   006400630017
BI00B32A7    ZZ22034LMW     202202237116-4026                TERMINAL                 CCN000016000000016000FN00000000020220301000016000NNM   20220106144725    4P0P  00001600000000664000000994332A7    ZZZZY   006400630017
BI00B32A7    ZZ22031LMW     202202027116-4028-08             TERMINAL FEMALE          CCN000016000000016000FN00000000020220301000016000NNM   20220106144725    4P0P  00001600000000652800000981532A7    ZZZZY   006400630017
BI00B32A7    ZZ22031LMW     202202027116-4121-02             TERMINAL                 CCN000013500000013500FN00000000020220301000013500NNM   20220106144725    4P0P  00000450000000618800000912432A7    ZZZZY   006400630015
BI00B32A7    ZZ22033LMW     202202097116-4121-02             TERMINAL                 CCN000004500000004500FN00000000020220301000004500NNM   20220106144725    4P0P  00000450000000618800000912432A7    ZZZZY   006400630015
BI00B32A7    ZZ22034LMW     202202237116-4121-02             TERMINAL                 CCN000004500000004500FN00000000020220301000004500NNM   20220106144725    4P0P  00000450000000618800000912432A7    ZZZZY   006400630015
BI00B32A7    ZZ22031LMW     202202027116-4122-02             TERMINAL                 CCN000027000000027000FN00000000020220301000027000NNM   20220106144725    4P0P  00000450000000656600000950232A7    ZZZZY   006400630015
BI00B32A7    ZZ22033LMW     202202097116-4122-02             TERMINAL                 CCN000009000000009000FN00000000020220301000009000NNM   20220106144725    4P0P  00000450000000656600000950232A7    ZZZZY   006400630015
BI00B32A7    ZZ22034LMW     202202237116-4122-02             TERMINAL                 CCN000004500000004500FN00000000020220301000004500NNM   20220106144725    4P0P  00000450000000656600000950232A7    ZZZZY   006400630015
BI00B32A7    ZZ22031LMW     202202027123-1508                CONNECTOR                CCN000021000000021000FN00000000020220301000021000NNM   20220106144725    1F0F  00000100000000933000001174032A7    ZZZZY   005600390040
BI00B32A7    ZZ22032LMW     202202097123-1508                CONNECTOR                CCN000001000000001000FN00000000020220301000001000NNM   20220106144725    1F0F  00000100000000933000001174032A7    ZZZZY   005600390040
BI00B32A7    ZZ22033LMW     202202097123-1508                CONNECTOR                CCN000009000000009000FN00000000020220301000009000NNM   20220106144725    1F0F  00000100000000933000001174032A7    ZZZZY   005600390040
BI00B32A7    ZZ22034LMW     202202237123-1508                CONNECTOR                CCN000004000000004000FN00000000020220301000004000NNM   20220106144725    1F0F  00000100000000933000001174032A7    ZZZZY   005600390040
BI00B32A7    ZZ22031LMW     202202027126-8853-02             TERMINAL                 CCN000067500000067500FN00000000020220301000067500NNM   20220106144725    4P0P  00000750000000562500000847732A7    ZZZZY   006400630015
BI00B32A7    ZZ22033LMW     202202097126-8853-02             TERMINAL                 CCN000015000000015000FN00000000020220301000015000NNM   20220106144725    4P0P  00000750000000562500000847732A7    ZZZZY   006400630015
BI00B32A7    ZZ22034LMW     202202237126-8853-02             TERMINAL                 CCN000030000000030000FN00000000020220301000030000NNM   20220106144725    4P0P  00000750000000562500000847732A7    ZZZZY   006400630015
BI00B32A7    ZZ22031LMW     202202027126-8854-02             TERMINAL                 CCN000082500000082500FN00000000020220301000082500NNM   20220106144725    4P0P  00000750000000604500000889732A7    ZZZZY   006400630015
BI00B32A7    ZZ22033LMW     202202097126-8854-02             TERMINAL                 CCN000015000000015000FN00000000020220301000015000NNM   20220106144725    4P0P  00000750000000604500000889732A7    ZZZZY   006400630015
BI00B32A7    ZZ22034LMW     202202237126-8854-02             TERMINAL                 CCN000030000000030000FN00000000020220301000030000NNM   20220106144725    4P0P  00000750000000604500000889732A7    ZZZZY   006400630015
BI00B32A7    ZZ22031LMW     202202027126-8855-02             TERMINAL                 CCN000066000000066000FN00000000020220301000066000NNM   20220106144725    4P0P  00000600000000510600000795832A7    ZZZZY   006400630015
BI00B32A7    ZZ22033LMW     202202097126-8855-02             TERMINAL                 CCN000012000000012000FN00000000020220301000012000NNM   20220106144725    4P0P  00000600000000510600000795832A7    ZZZZY   006400630015
BI00B32A7    ZZ22034LMW     202202237126-8855-02             TERMINAL                 CCN000030000000030000FN00000000020220301000030000NNM   20220106144725    4P0P  00000600000000510600000795832A7    ZZZZY   006400630015
BI00B32A7    ZZ22031LMW     202202027158-3006-90             RUBBER STOPPER           CCN000080000000080000FN00000000020220301000080000NNM   20220106144725    1C0C  00002000000000330600000386032A7    ZZZZY   002700430014
BI00B32A7    ZZ22032LMW     202202097158-3006-90             RUBBER STOPPER           CCN000020000000020000FN00000000020220301000020000NNM   20220106144725    1C0C  00002000000000330600000386032A7    ZZZZY   002700430014
BI00B32A7    ZZ22033LMW     202202097158-3006-90             RUBBER STOPPER           CCN000020000000020000FN00000000020220301000020000NNM   20220106144725    1C0C  00002000000000330600000386032A7    ZZZZY   002700430014
BI00B32A7    ZZ22031LMW     202202027158-3070-80             RUBBER STOPPER           CCN000040000000040000FN00000000020220301000040000NNM   20220106144725    1C0C  00004000000000276000000333332A7    ZZZZY   002700430014
BI00B32A7    ZZ22031LMW     202202027158-3166-60             WIRE SEAL                CCN000720000000720000FN00000000020220301000720000NNM   20220106144725    1C0C  00004000000000104000000152432A7    ZZZZY   002700430014
BI00B32A7    ZZ22033LMW     202202097158-3166-60             WIRE SEAL                CCN000280000000280000FN00000000020220301000280000NNM   20220106144725    1C0C  00004000000000104000000152432A7    ZZZZY   002700430014
BI00B32A7    ZZ22034LMW     202202237158-3166-60             WIRE SEAL                CCN000160000000160000FN00000000020220301000160000NNM   20220106144725    1C0C  00004000000000104000000152432A7    ZZZZY   002700430014
BI00B32A7    ZZ22031LMW     202202027158-3167-80             WIRE SEAL                CCN000640000000640000FN00000000020220301000640000NNM   20220106144725    1C0C  00002000000000048000000109032A7    ZZZZY   002700430014
BI00B32A7    ZZ22033LMW     202202097158-3167-80             WIRE SEAL                CCN000240000000240000FN00000000020220301000240000NNM   20220106144725    1C0C  00002000000000048000000109032A7    ZZZZY   002700430014
BI00B32A7    ZZ22031LMW     202202027158-3168-80             SEALED                   CCN000080000000080000FN00000000020220301000080000NNM   20220106144725    1C0C  00002000000000044000000092132A7    ZZZZY   004300260014
BI00B32A7    ZZ22031LMW     202202027158-3169-40             SEALING PLUG             CCN000120000000120000FN00000000020220301000120000NNM   20220106144725    1C0C  00004000000000156000000204132A7    ZZZZY   004300260014
BI00B32A7    ZZ22034LMW     202202237158-3169-40             SEALING PLUG             CCN000040000000040000FN00000000020220301000040000NNM   20220106144725    1C0C  00004000000000156000000204132A7    ZZZZY   004300260014
BI00B32A7    ZZ22033LMW     202202097172-5402-30             SEAL RUBBER              CCN000008000000008000FN00000000020220301000008000NNM   20220106144725    1C0C  00000800000000457600000506032A7    ZZZZY   004300270014
BI00B32A7    ZZ22034LMW     202202237172-5402-30             SEAL RUBBER              CCN000008000000008000FN00000000020220301000008000NNM   20220106144725    1C0C  00000800000000457600000506032A7    ZZZZY   004300270014
BI00B32A7    ZZ22033LMW     202202097196-0550-02             TERMINAL ALUMINIUM       CCN000032000000032000FN00000000020220301000032000NNM   20220106144725    4P0P  00003200000000515200000901632A7    ZZZZY   006400630017
BI00B32A7    ZZ22031LMW     202202027289-4696-30             HOUSING FEMALE ASS'Y     CCN000088000000088000FN00000000020220301000088000NNM   20220106144725    4N0N  00000200000000913400001055432A7    ZZZZY   005400370024
BI00B32A7    ZZ22033LMW     202202097289-4696-30             HOUSING FEMALE ASS'Y     CCN000026000000026000FN00000000020220301000026000NNM   20220106144725    4N0N  00000200000000913400001055432A7    ZZZZY   005400370024
BI00B32A7    ZZ22033LMW     202202097289-5000                HOUSING FEMALE ASS'Y     CCN000001216000001216FN00000000020220301000001216NNM   20220106144725    1N0N  00000030400000549000000759032A7    ZZZZY   005400370024
BI00B32A7    ZZ22034LMW     202202237289-5000                HOUSING FEMALE ASS'Y     CCN000000608000000608FN00000000020220301000000608NNM   20220106144725    1N0N  00000030400000549000000759032A7    ZZZZY   005400370024
BI00B32A7    ZZ22031LMW     202202027327-6769-3W             BATTERY FUSE             CCN000014016000014016FN00000000020220301000014016NNM   20220106144725    4N0N  00000009600000933300001133332A7    ZZZZY   005500360039
BI00B32A7    ZZ22033LMW     202202097327-6769-3W             BATTERY FUSE             CCN000004800000004800FN00000000020220301000004800NNM   20220106144725    4N0N  00000009600000933300001133332A7    ZZZZY   005500360039
BI00B32A7    #ZZ22031LMW    202202027123-6423-30             CONNECTOR                CCN000020000000020000FN00000000020220301000020000NNM   20220106144721    2F0F  00000200000001002000001167632A7    ZZZZY   005600390023
BI00B32A7    #ZZ22032LMW    202202097123-6423-30             CONNECTOR                CCN000002000000002000FN00000000020220301000002000NNM   20220106144721    2F0F  00000200000001002000001167632A7    ZZZZY   005600390023
BI00B32A7    #ZZ22033LMW    202202097123-6423-30             CONNECTOR                CCN000010000000010000FN00000000020220301000010000NNM   20220106144721    2F0F  00000200000001002000001167632A7    ZZZZY   005600390023
BI00B32A7    #ZZ22034LMW    202202237123-6423-30             CONNECTOR                CCN000002000000002000FN00000000020220301000002000NNM   20220106144721    2F0F  00000200000001002000001167632A7    ZZZZY   005600390023
BI00B32A7    #ZZ22031LMW    202202027157-3952-80             RUBBER STOPPER           CCN000020000000020000FN00000000020220301000020000NNM   20220106144721    2C0C  00001000000000117000000175032A7    ZZZZY   002700430014
BI00B32A7    #ZZ22033LMW    202202097157-3952-80             RUBBER STOPPER           CCN000010000000010000FN00000000020220301000010000NNM   20220106144721    2C0C  00001000000000117000000175032A7    ZZZZY   002700430014
BI00B32A7    #ZZ22031LMW    202202027157-3992-90             CONNECTOR SEALED         CCN000040000000040000FN00000000020220301000040000NNM   20220106144721    2C0C  00004000000000300000000363332A7    ZZZZY   002700430014
BI00B32A7    #ZZ22031LMW    202202027157-7812                SEAL RUBBER              CCN000030000000030000FN00000000020220301000030000NNM   20220106144721    2C0C  00001000000000137000000202032A7    ZZZZY   002700430014
BI00B32A7    #ZZ22031LMW    202202027158-3003-90             RUBBER STOPPER           CCN000040000000040000FN00000000020220301000040000NNM   20220106144721    2C0C  00002000000000250000000306032A7    ZZZZY   002700430014
BI00B32A7    #ZZ22033LMW    202202097158-3003-90             RUBBER STOPPER           CCN000020000000020000FN00000000020220301000020000NNM   20220106144721    2C0C  00002000000000250000000306032A7    ZZZZY   002700430014
BI00B32A7    #ZZ22031LMW    202202027158-3007-10             RUBBER STOPPER           CCN000020000000020000FN00000000020220301000020000NNM   20220106144721    2H0H  00002000000000308000000362732A7    ZZZZY   002700430014
BI00B32A7    #ZZ22033LMW    202202097158-3007-10             RUBBER STOPPER           CCN000020000000020000FN00000000020220301000020000NNM   20220106144721    2H0H  00002000000000308000000362732A7    ZZZZY   002700430014
BI00B32A7    #ZZ22031LMW    202202027158-3008-80             RUBBER STOPPER           CCN000060000000060000FN00000000020220301000060000NNM   20220106144721    2C0C  00002000000000288000000343032A7    ZZZZY   004300270014
BI00B32A7    #ZZ22033LMW    202202097158-3008-80             RUBBER STOPPER           CCN000020000000020000FN00000000020220301000020000NNM   20220106144721    2C0C  00002000000000288000000343032A7    ZZZZY   004300270014
BI00B32A7    #ZZ22034LMW    202202237158-3008-80             RUBBER STOPPER           CCN000020000000020000FN00000000020220301000020000NNM   20220106144721    2C0C  00002000000000288000000343032A7    ZZZZY   004300270014
BI00B32A7    #ZZ22031LMW    202202027158-3120-90             CONNECTOR WIRE SEAL      CCN000220000000220000FN00000000020220301000220000NNM   20220106144721    2C0C  00002000000000136000000194032A7    ZZZZY   002700430014
BI00B32A7    #ZZ22033LMW    202202097158-3120-90             CONNECTOR WIRE SEAL      CCN000080000000080000FN00000000020220301000080000NNM   20220106144721    2C0C  00002000000000136000000194032A7    ZZZZY   002700430014
BI00B32A7    #ZZ22031LMW    202202027158-3121-80             WIRE SEAL                CCN000320000000320000FN00000000020220301000320000NNM   20220106144721    2C0C  00002000000000118000000187332A7    ZZZZY   002700430014
BI00B32A7    #ZZ22033LMW    202202097158-3121-80             WIRE SEAL                CCN000120000000120000FN00000000020220301000120000NNM   20220106144721    2C0C  00002000000000118000000187332A7    ZZZZY   002700430014
BI00B32A7    #ZZ22034LMW    202202237158-3121-80             WIRE SEAL                CCN000020000000020000FN00000000020220301000020000NNM   20220106144721    2C0C  00002000000000118000000187332A7    ZZZZY   002700430014
BI00B32A7    #ZZ22031LMW    202202027158-3654-80             WIRE TUBE                CCN000160000000160000FN00000000020220301000160000NNM   20220106144721    2H0H  00004000000000104000000152232A7    ZZZZY   004300270014
BI00B32A7    #ZZ22033LMW    202202097158-3654-80             WIRE TUBE                CCN000080000000080000FN00000000020220301000080000NNM   20220106144721    2H0H  00004000000000104000000152232A7    ZZZZY   004300270014
BI00B32A7    #ZZ22031LMW    202202027182-9632-30             JOINT CONNECTOR          CCN000018000000018000FN00000000020220301000018000NNM   20220106144721    2F0F  00000300000001320000001445532A7    ZZZZY   005400370024
BI00B32A7    #ZZ22033LMW    202202097182-9632-30             JOINT CONNECTOR          CCN000003000000003000FN00000000020220301000003000NNM   20220106144721    2F0F  00000300000001320000001445532A7    ZZZZY   005400370024
BI00B32CC    CTA32051       202201207283-4855                CONNECTOR HOUSING        CCN000012000000012000FN00000000020220501000012000NNE   20220106132735    4N0N  00000240000001188400001400032CC    BIYABCBU005500360039
BI00B32CC    CTA32051       202201207289-3342                HOUSING FEMALE ASS'Y     CCN000007200000007200FN00000000020220501000007200NNE   20220106132735    1N0N  00000240000000686400000901432CC    BIYABCBU005500360039
BI00B32CC    CTA32051       202201207289-3342-30             HOUSING FEMALE ASS'Y     CCN000024000000024000FN00000000020220501000024000NNE   20220106132735    1N0N  00000240000000686400000901432CC    BIYABCBU005500360039
BI00B32CG    S220106-S      202203167283-9457-3W             CONNECTOR                CCN000000720000000720FN00000000020220301000000720NNE   20220106155844    4N0N  00000012000000515000001067032CG    ASASIACO005600390023
BI00B32CG    S220106-S      202203167116-4025                TERMINAL                 CCN000016000000016000FN00000000020220301000016000NNE   20220106155844    4P0P  00001600000000644800000975132CG    ASASIACO006400630017
BI00B32CG    S220106-S      202203167116-4120-02             TERMINAL                 CCN000006000000006000FN00000000020220301000006000NNE   20220106155844    4P0P  00000600000000780000001073632CG    ASASIACO006400630015
BI00B32CG    S220106-S      202203167116-4121-02             TERMINAL                 CCN000013500000013500FN00000000020220301000013500NNE   20220106155844    4P0P  00000450000000618800000912432CG    ASASIACO006400630015
BI00A32CH    SJ22024DMW     202201077286-4097                CONNECTOR MALE ASS'Y     CCN000003200000003200FN00000000020220201000003200NNMM0020220106132735    1N0N  00000160000000768000000978032CH    SJSAMIJF005500360039
BI00T32DE    @ICT2021       202202147283-1556                CONNECTOR ASS'Y          CCN000019200000019200FN00000000020220201000019200NNM   20220106162652    3N0N  00000240000000755000001014032DE    TVYEV-TV005500360039
BI00A32D1    #DFTC2205      202201207172-5629-80             RUBBER STOPPER           PCN000280000000280000FN00000000020220201000280000NNM00020220106132735    2H0H  00002000000000060000000111132D1    TOYOT-K 004300270014
BI00A32D1    #DFTC2207      202201277172-5629-80             RUBBER STOPPER           PCN000360000000360000FN00000000020220201000360000NNM00020220106132735    2H0H  00002000000000060000000111132D1    TOYOT-K 004300270014
BI00B32D1    DFTC2214       202202107017-1180-02             TERMINAL                 CCN000072000000072000FN00000000020220401000072000NNM   20220106132735    4P0P  00007200000001065600001229032D1    TOYOT-K 005100280028
BI00B32D1    DFTC2214       202202107114-4032                TERMINAL                 CCN000007500000007500FN00000000020220401000007500NNM   20220106132735    4P0P  00000750000000735000001063632D1    TOYOT-K 006400630017
BI00B32D1    DFTC2214       202202107114-5748-02             TERMINAL                 CCN000096000000096000FN00000000020220401000096000NNM   20220106132735    4P0P  00001200000000444000000737632D1    TOYOT-K 006400630015
BI00B32D1    DFTC2214       202202107114-5753-02             TERMINAL                 CCN000297000000297000FN00000000020220401000297000NNM   20220106132735    4P0P  00002700000000847800001141432D1    TOYOT-K 006400630015
BI00B32D1    DFTC2214       202202107116-1685-02             TERMINAL                 CCN000072000000072000FN00000000020220401000072000NNM   20220106132735    4P0P  00002400000000897600001065232D1    TOYOT-K 005100280028
BI00B32D1    DFTC2214       202202107116-2891-02             TERMINAL                 CCN000135000000135000FN00000000020220401000135000NNM   20220106132735    4P0P  00001500000000982500001145932D1    TOYOT-K 005100280028
BI00B32D1    DFTC2214       202202107116-4100-02             TERMINAL                 CCN000015000000015000FN00000000020220401000015000NNM   20220106132735    4P0P  00001500000000696000000990232D1    TOYOT-K 006400630015
BI00B32D1    DFTC2214       202202107116-4101-02             TERMINAL                 CCN000024000000024000FN00000000020220401000024000NNM   20220106132735    4P0P  00001200000000582000000876232D1    TOYOT-K 006400630015
BI00B32D1    DFTC2214       202202107116-4110-02             TERMINAL                 CCN000054000000054000FN00000000020220401000054000NNM   20220106132735    4P0P  00000900000000594000000882232D1    TOYOT-K 006400630015
BI00B32D1    DFTC2214       202202107116-4111-02             TERMINAL                 CCN000045000000045000FN00000000020220401000045000NNM   20220106132735    4P0P  00000750000000529500000817732D1    TOYOT-K 006400630015
BI00B32D1    DFTC2214       202202107116-4112-02             TERMINAL                 CCN000090000000090000FN00000000020220401000090000NNM   20220106132735    4P0P  00000600000000450000000738232D1    TOYOT-K 006400630015
BI00B32D1    DFTC2214       202202107116-4486-02             TERMINAL                 CCN000168000000168000FN00000000020220401000168000NNM   20220106132735    4P0P  00002800000000666400000995132D1    TOYOT-K 006400630017
BI00B32D1    DFTC2214       202202107116-5045-02             TERMINAL                 CCN000096000000096000FN00000000020220401000096000NNM   20220106132735    4P0P  00001600000000678400001007132D1    TOYOT-K 006400630017
BI00B32D1    DFTC2214       202202107126-8853-02             TERMINAL                 CCN000097500000097500FN00000000020220401000097500NNM   20220106132735    4P0P  00000750000000562500000847732D1    TOYOT-K 006400630015
BI00B32D1    DFTC2214       202202107126-8854-02             TERMINAL                 CCN000090000000090000FN00000000020220401000090000NNM   20220106132735    4P0P  00000750000000604500000889732D1    TOYOT-K 006400630015
BI00B32D1    DFTC2214       202202107126-8855-02             TERMINAL                 CCN000090000000090000FN00000000020220401000090000NNM   20220106132735    4P0P  00000600000000510600000795832D1    TOYOT-K 006400630015
BI00B32D1    DFTC2214       202202107158-3070-80             RUBBER STOPPER           CCN000080000000080000FN00000000020220401000080000NNM   20220106132735    1C0C  00004000000000276000000333332D1    TOYOT-K 002700430014
BI00B32D1    DFTC2214       202202107158-3166-60             WIRE SEAL                CCN000040000000040000FN00000000020220401000040000NNM   20220106132735    1C0C  00004000000000104000000152432D1    TOYOT-K 002700430014
BI00B32D1    DFTC2214       202202107158-3167-80             WIRE SEAL                CCN000020000000020000FN00000000020220401000020000NNM   20220106132735    1C0C  00002000000000048000000109032D1    TOYOT-K 002700430014
BI00B32D1    DFTC2214       202202107196-0396-02             TERMINAL                 CCN000015000000015000FN00000000020220401000015000NNM   20220106132735    4P0P  00001500000000949500001112932D1    TOYOT-K 002800510028
BI00B32D1    DFTC2214       202202107196-0510-02             TERMINAL                 CCN000072000000072000FN00000000020220401000072000NNM   20220106132735    4P0P  00002400000000871200001034632D1    TOYOT-K 002800510028
BI00B32D1    DFTC2214       202202107282-4576                HOUSING MALE ASS'Y       CCN000007200000007200FN00000000020220401000007200NNM   20220106132735    4N0N  00000240000000808800001028832D1    TOYOT-K 005500360039
BI00B32D1    DFTC2214       202202107283-1156                CONNECTOR                CCN000005600000005600FN00000000020220401000005600NNM   20220106132735    4N0N  00000080000000877600001078032D1    TOYOT-K 005600390040
BI00B32D1    DFTC2214       202202107288-6547                CONNECTOR MALE ASS'Y     CCN000015000000015000FN00000000020220401000015000NNM   20220106132735    4N0N  00000075000001205300001340332D1    TOYOT-K 005400370024
BI00B32D1    DFTC2214       202202107289-3342                HOUSING FEMALE ASS'Y     CCN000040800000040800FN00000000020220401000040800NNM   20220106132735    1N0N  00000240000000686400000901432D1    TOYOT-K 005500360039
BI00B32D1    DFTC2214       202202107289-3342-30             HOUSING FEMALE ASS'Y     CCN000093600000093600FN00000000020220401000093600NNM   20220106132735    1N0N  00000240000000686400000901432D1    TOYOT-K 005500360039
BI00B32D1    DFTC2214       202202107289-3342-40             HOUSING FEMALE ASS'Y     CCN000012000000012000FN00000000020220401000012000NNM   20220106132735    1N0N  00000240000000686400000901432D1    TOYOT-K 005500360039
BI00B32D1    DFTC2214       202202107289-3342-90             HOUSING FEMALE ASS'Y     CCN000009600000009600FN00000000020220401000009600NNM   20220106132735    1N0N  00000240000000686400000901432D1    TOYOT-K 005500360039
BI00B32D1    DFTC2214       202202107289-6547                HOUSING FEMALE ASS'Y     CCN000014400000014400FN00000000020220401000014400NNM   20220106132735    1N0N  00000240000001152000001362032D1    TOYOT-K 005500360039
BI00B32D1    DFTC2214       202202107296-0784-02             TERMINAL ALUMINIUM       CCN000048000000048000FN00000000020220401000048000NNM   20220106132735    4P0P  00002400000000480000000765232D1    TOYOT-K 006400630015
BI00B32D1    DFTC2214       202202107327-6731-3W             BATTERY FUSE             CCN000000512000000512FN00000000020220401000000512NNM   20220106132735    4N0N  00000006400000697600000843032D1    TOYOT-K 005400370024
BI00B32D1    DFTC2214       202202107388-2978-30             HOUSING MALE ASS'Y       CCN000012480000012480FN00000000020220401000012480NNM   20220106132735    1N0N  00000048000000742000001122032D1    TOYOT-K 005500360039
BI00B32D1    #DFTC2214      202202107047-5344                RETAINER                 CCN000010000000010000FN00000000020220401000010000NNM   20220106132735    2F0F  00001000000000870000001016032D1    TOYOT-K 005600390023
BI00B32D1    #DFTC2214      202202107158-3003-90             RUBBER STOPPER           CCN000140000000140000FN00000000020220401000140000NNM   20220106132735    2C0C  00002000000000250000000306032D1    TOYOT-K 002700430014
BI00B32D1    #DFTC2214      202202107158-3004-40             RUBBER STOPPER           CCN000020000000020000FN00000000020220401000020000NNM   20220106132735    2C0C  00002000000000234000000306332D1    TOYOT-K 002700430014
BI00B32D1    #DFTC2214      202202107158-3005-80             RUBBER STOPPER           CCN000060000000060000FN00000000020220401000060000NNM   20220106132735    2H0H  00002000000000210000000268732D1    TOYOT-K 002700430014
BI00B32D1    #DFTC2214      202202107158-3008-80             RUBBER STOPPER           CCN000080000000080000FN00000000020220401000080000NNM   20220106132735    2C0C  00002000000000288000000343032D1    TOYOT-K 004300270014
BI00B32D1    #DFTC2214      202202107158-3015-10             RUBBER STOPPER           CCN000030000000030000FN00000000020220401000030000NNM   20220106132735    2C0C  00001000000000419500000474032D1    TOYOT-K 002700430014
BI00B32D1    #DFTC2214      202202107158-3017                RUBBER STOPPER           CCN000050000000050000FN00000000020220401000050000NNM   20220106132735    2C0C  00001000000000375500000435032D1    TOYOT-K 002700430014
BI00B32D1    #DFTC2214      202202107172-5627-60             RUBBER STOPPER           CCN000020000000020000FN00000000020220401000020000NNM   20220106132735    2H0H  00002000000000070400000121832D1    TOYOT-K 004300270014
BI00B32D1    #DFTC2214      202202107172-5629-80             RUBBER STOPPER           CCN000200000000200000FN00000000020220401000200000NNM   20220106132735    2H0H  00002000000000060000000111132D1    TOYOT-K 004300270014
BI00B32D1    #DFTC2214      202202107172-5630-40             RUBBER STOPPER           CCN000040000000040000FN00000000020220401000040000NNM   20220106132735    2H0H  00002000000000044000000095132D1    TOYOT-K 004300270014
BI00B32D1    #DFTC2214      202202107172-5631-60             RUBBER STOPPER           CCN000040000000040000FN00000000020220401000040000NNM   20220106132735    2H0H  00002000000000042000000093132D1    TOYOT-K 004300270014
BI00B32D1    #DFTC2214      202202107172-5632-10             DUMMY PLUG               CCN000080000000080000FN00000000020220401000080000NNM   20220106132735    2H0H  00002000000000080400000131832D1    TOYOT-K 004300270014
BI00B32D1    #DFTC2214      202202107183-2418-30             CONNECTOR HOUSING        CCN000009600000009600FN00000000020220401000009600NNM   20220106132735    2F0F  00000480000000917000001235332D1    TOYOT-K 005500360039
BI00B32D1    #DFTC2214      202202107189-2978-30             HOUSING FEMALE           CCN000012000000012000FN00000000020220401000012000NNM   20220106132735    2F0F  00000150000000966900001096932D1    TOYOT-K 005400370024
BI00B32D1    #DFTC2214      202202107189-3033                HOUSING FEMALE           CCN000009600000009600FN00000000020220401000009600NNM   20220106132735    2F0F  00000160000001211200001431232D1    TOYOT-K 005500360039
BI00B32D1    #DFTC2214      202202107189-3036                HOUSING FEMALE           CCN000004800000004800FN00000000020220401000004800NNM   20220106132735    2F0F  00000160000000921600001141632D1    TOYOT-K 005500360039
BI00B32D1    #DFTC2214      202202107282-1641                CONNECTOR                CCN000010000000010000FN00000000020220401000010000NNM   20220106132735    2N0N  00000200000000813000000986032D1    TOYOT-K 005500360039
BI00B32D1    #DFTC2214      202202107282-7424                CONNECTOR                CCN000004000000004000FN00000000020220401000004000NNM   20220106132735    2N0N  00000400000001064000001243032D1    TOYOT-K 005500360039
BI00B32D1    #DFTC2214      202202107289-2912-40             HOUSING FEMALE ASS'Y     CCN000002000000002000FN00000000020220401000002000NNM   20220106132735    2N0N  00000200000000804000000931032D1    TOYOT-K 005400370024
BI00B32D1    #DFTC2214      202202107289-3622-30             HOUSING FEMALE ASS'Y     CCN000003024000003024FN00000000020220401000003024NNM   20220106132735    2N0N  00000043200000839400001038432D1    TOYOT-K 005400370024
BI00B32D1    #DFTC2214      202202107289-4200-30             HOUSING FEMALE ASS'Y     CCN000004000000004000FN00000000020220401000004000NNM   20220106132735    2N0N  00000200000000926000001021032D1    TOYOT-K 005400370024
BI00B32D2    DGTC2205       202201137289-3342-30             HOUSING FEMALE ASS'Y     CCN000007200000007200FN00000000020220201000007200NNM00020220106144741    1N0N  00000240000000686400000901432D2    TGYOT-G 005500360039
BI00B32D2    DGTC2213       202203037289-6547                HOUSING FEMALE ASS'Y     CCN000012000000012000FN00000000020220401000012000NNMD0420220106132735    1N0N  00000240000001152000001362032D2    TGYOT-G 005500360039
BI00B32EJ    T211229P03     202202107283-1020                CONNECTOR                CCN000048000000048000FN00000000020220201000048000NNED0420220106134732EJ  4N0N  00000600000000840000001049332EJ    EJYKBO  005600390040
BI00B32E1    NC203B         202201267116-4121-02             TERMINAL                 CCN000009000000009000FN00000000020220301000009000NNE   20220106132735    4P0P  00000450000000618800000912432E1    SPYSE   006400630015
BI00B32E1    NC203B         202201267116-4122-02             TERMINAL                 CCN000004500000004500FN00000000020220301000004500NNE   20220106132735    4P0P  00000450000000656600000950232E1    SPYSE   006400630015
BI00A32G7    #JJ21124MMW    202201177172-5630-40             RUBBER STOPPER           PCN000320000000320000FN00000000020211201000320000NNM00020220106155744    2H0H  00002000000000044000000095132G7    JIJAI   004300270014
BI00B32G7    #JJ22014 MW    202201137158-3007-10             RUBBER STOPPER           CCN000120000000120000FN00000000020220101000120000NNM00020220106161401    2H0H  00002000000000308000000362732G7    JIJAI   002700430014
BI00B32G7    JJ2202E MW     202201207114-4020                TERMINAL                 CCN000021000000000000FY00000000020220201000000000NNEQ0820220106153941    4P0P  00002100000000875700001169332G7    JIJAI   006400630015
BI00B32G7    JJ22034 MW     202203037114-4020                TERMINAL                 CCN000021000000000000FY00000000020220301000000000NNMQ0820220106112330    4P0P  00002100000000875700001169332G7    JIJAI   006400630015
BI00B32G7    #JJ22034 MW    202203037158-3120-90             CONNECTOR WIRE SEAL      CCN000020000000000000FY00000000020220301000000000NNMQ0820220106165133    2C0C  00002000000000136000000194032G7    JIJAI   002700430014
BI00B32H7    FS22031DMW     202202027017-1180-02             TERMINAL                 CCN000072000000072000FN00000000020220301000072000NNM   20220106155445    4P0P  00007200000001065600001229032H7    FYFSY   005100280028
BI00B32H7    FS22033DMW     202202157017-1180-02             TERMINAL                 CCN000072000000072000FN00000000020220301000072000NNM   20220106155445    4P0P  00007200000001065600001229032H7    FYFSY   005100280028
BI00B32H7    FS22031DMW     202202027114-4624-02             TERMINAL                 CCN000120000000120000FN00000000020220301000120000NNM   20220106155445    4P0P  00002400000000895200001188832H7    FYFSY   006400630015
BI00B32H7    FS22032DMW     202202097114-4624-02             TERMINAL                 CCN000120000000120000FN00000000020220301000120000NNM   20220106155445    4P0P  00002400000000895200001188832H7    FYFSY   006400630015
BI00B32H7    FS22033DMW     202202157114-4624-02             TERMINAL                 CCN000120000000120000FN00000000020220301000120000NNM   20220106155445    4P0P  00002400000000895200001188832H7    FYFSY   006400630015
BI00B32H7    FS22034DMW     202202237114-4624-02             TERMINAL                 CCN000096000000096000FN00000000020220301000096000NNM   20220106155445    4P0P  00002400000000895200001188832H7    FYFSY   006400630015
BI00B32H7    FS22031DMW     202202027114-4728-08             TERMINAL                 CCN000030000000030000FN00000000020220301000030000NNM   20220106155445    4P0P  00003000000000507000000801232H7    FYFSY   006400630015
BI00B32H7    FS22032DMW     202202097114-4728-08             TERMINAL                 CCN000060000000060000FN00000000020220301000060000NNM   20220106155445    4P0P  00003000000000507000000801232H7    FYFSY   006400630015
BI00B32H7    FS22033DMW     202202157114-4728-08             TERMINAL                 CCN000060000000060000FN00000000020220301000060000NNM   20220106155445    4P0P  00003000000000507000000801232H7    FYFSY   006400630015
BI00B32H7    FS22034DMW     202202237114-4728-08             TERMINAL                 CCN000030000000030000FN00000000020220301000030000NNM   20220106155445    4P0P  00003000000000507000000801232H7    FYFSY   006400630015
BI00B32H7    FS22031DMW     202202027114-5748-02             TERMINAL                 CCN000048000000048000FN00000000020220301000048000NNM   20220106155445    4P0P  00001200000000444000000737632H7    FYFSY   006400630015
BI00B32H7    FS22032DMW     202202097114-5748-02             TERMINAL                 CCN000072000000072000FN00000000020220301000072000NNM   20220106155445    4P0P  00001200000000444000000737632H7    FYFSY   006400630015
BI00B32H7    FS22033DMW     202202157114-5748-02             TERMINAL                 CCN000072000000072000FN00000000020220301000072000NNM   20220106155445    4P0P  00001200000000444000000737632H7    FYFSY   006400630015
BI00B32H7    FS22034DMW     202202237114-5748-02             TERMINAL                 CCN000060000000060000FN00000000020220301000060000NNM   20220106155445    4P0P  00001200000000444000000737632H7    FYFSY   006400630015
BI00B32H7    FS22031DMW     202202027116-1685-02             TERMINAL                 CCN000024000000024000FN00000000020220301000024000NNM   20220106155445    4P0P  00002400000000897600001065232H7    FYFSY   005100280028
BI00B32H7    FS22032DMW     202202097116-1685-02             TERMINAL                 CCN000024000000024000FN00000000020220301000024000NNM   20220106155445    4P0P  00002400000000897600001065232H7    FYFSY   005100280028
BI00B32H7    FS22034DMW     202202237116-1685-02             TERMINAL                 CCN000024000000024000FN00000000020220301000024000NNM   20220106155445    4P0P  00002400000000897600001065232H7    FYFSY   005100280028
BI00B32H7    FS22031DMW     202202027116-1686-02             TERMINAL                 CCN000021000000021000FN00000000020220301000021000NNM   20220106155445    4P0P  00002100000000869400001021632H7    FYFSY   005100280028
BI00B32H7    FS22032DMW     202202097116-3153-08             TERMINAL                 CCN000081000000081000FN00000000020220301000081000NNM   20220106155445    4P0P  00002700000000461700000746932H7    FYFSY   006400630015
BI00B32H7    FS22033DMW     202202157116-3153-08             TERMINAL                 CCN000135000000135000FN00000000020220301000135000NNM   20220106155445    4P0P  00002700000000461700000746932H7    FYFSY   006400630015
BI00B32H7    FS22034DMW     202202237116-3153-08             TERMINAL                 CCN000135000000135000FN00000000020220301000135000NNM   20220106155445    4P0P  00002700000000461700000746932H7    FYFSY   006400630015
BI00B32H7    FS22031DMW     202202027116-4028-08             TERMINAL FEMALE          CCN000064000000064000FN00000000020220301000064000NNM   20220106155445    4P0P  00001600000000652800000981532H7    FYFSY   006400630017
BI00B32H7    FS22032DMW     202202097116-4028-08             TERMINAL FEMALE          CCN000064000000064000FN00000000020220301000064000NNM   20220106155445    4P0P  00001600000000652800000981532H7    FYFSY   006400630017
BI00B32H7    FS22033DMW     202202157116-4028-08             TERMINAL FEMALE          CCN000048000000048000FN00000000020220301000048000NNM   20220106155445    4P0P  00001600000000652800000981532H7    FYFSY   006400630017
BI00B32H7    FS22034DMW     202202237116-4028-08             TERMINAL FEMALE          CCN000048000000048000FN00000000020220301000048000NNM   20220106155445    4P0P  00001600000000652800000981532H7    FYFSY   006400630017
BI00B32H7    FS22031DMW     202202027116-4032                TERMINAL                 CCN000012000000012000FN00000000020220301000012000NNM   20220106155445    4P0P  00000600000000532800000818032H7    FYFSY   006400630015
BI00B32H7    FS22032DMW     202202097116-4032                TERMINAL                 CCN000036000000036000FN00000000020220301000036000NNM   20220106155445    4P0P  00000600000000532800000818032H7    FYFSY   006400630015
BI00B32H7    FS22033DMW     202202157116-4032                TERMINAL                 CCN000036000000036000FN00000000020220301000036000NNM   20220106155445    4P0P  00000600000000532800000818032H7    FYFSY   006400630015
BI00B32H7    FS22034DMW     202202237116-4032                TERMINAL                 CCN000030000000030000FN00000000020220301000030000NNM   20220106155445    4P0P  00000600000000532800000818032H7    FYFSY   006400630015
BI00B32H7    FS22031DMW     202202027116-4037                TERMINAL                 CCN000072000000072000FN00000000020220301000072000NNM   20220106155445    4P0P  00000600000000600000000894232H7    FYFSY   006400630015
BI00B32H7    FS22032DMW     202202097116-4037                TERMINAL                 CCN000066000000066000FN00000000020220301000066000NNM   20220106155445    4P0P  00000600000000600000000894232H7    FYFSY   006400630015
BI00B32H7    FS22033DMW     202202157116-4037                TERMINAL                 CCN000072000000072000FN00000000020220301000072000NNM   20220106155445    4P0P  00000600000000600000000894232H7    FYFSY   006400630015
BI00B32H7    FS22034DMW     202202237116-4037                TERMINAL                 CCN000072000000072000FN00000000020220301000072000NNM   20220106155445    4P0P  00000600000000600000000894232H7    FYFSY   006400630015
BI00B32H7    FS22031DMW     202202027116-5045-02             TERMINAL                 CCN000240000000240000FN00000000020220301000240000NNM   20220106155445    4P0P  00001600000000678400001007132H7    FYFSY   006400630017
BI00B32H7    FS22032DMW     202202097116-5045-02             TERMINAL                 CCN000272000000272000FN00000000020220301000272000NNM   20220106155445    4P0P  00001600000000678400001007132H7    FYFSY   006400630017
BI00B32H7    FS22033DMW     202202157116-5045-02             TERMINAL                 CCN000224000000224000FN00000000020220301000224000NNM   20220106155445    4P0P  00001600000000678400001007132H7    FYFSY   006400630017
BI00B32H7    FS22034DMW     202202237116-5045-02             TERMINAL                 CCN000272000000272000FN00000000020220301000272000NNM   20220106155445    4P0P  00001600000000678400001007132H7    FYFSY   006400630017
BI00B32H7    FS22031DMW     202202027116-5046-02             TERMINAL                 CCN000168000000168000FN00000000020220301000168000NNM   20220106155445    4P0P  00001200000000544800000873532H7    FYFSY   006400630017
BI00B32H7    FS22032DMW     202202097116-5046-02             TERMINAL                 CCN000168000000168000FN00000000020220301000168000NNM   20220106155445    4P0P  00001200000000544800000873532H7    FYFSY   006400630017
BI00B32H7    FS22033DMW     202202157116-5046-02             TERMINAL                 CCN000168000000168000FN00000000020220301000168000NNM   20220106155445    4P0P  00001200000000544800000873532H7    FYFSY   006400630017
BI00B32H7    FS22034DMW     202202237116-5046-02             TERMINAL                 CCN000168000000168000FN00000000020220301000168000NNM   20220106155445    4P0P  00001200000000544800000873532H7    FYFSY   006400630017
BI00B32H7    FS22034DMW     202202237116-6041                TERMINAL                 CCN000022500000022500FN00000000020220301000022500NNM   20220106155445    4P0P  00000450000000716000001009632H7    FYFSY   006400630015
BI00B32H7    FS22033DMW     202202157116-6042                TERMINAL                 CCN000012000000012000FN00000000020220301000012000NNM   20220106155445    4P0P  00000300000000523800000856132H7    FYFSY   006400630015
BI00B32H7    FS22034DMW     202202237116-6042                TERMINAL                 CCN000042000000042000FN00000000020220301000042000NNM   20220106155445    4P0P  00000300000000523800000856132H7    FYFSY   006400630015
BI00B32H7    FS22031DMW     202202027126-8853-02             TERMINAL                 CCN000037500000037500FN00000000020220301000037500NNM   20220106155445    4P0P  00000750000000562500000847732H7    FYFSY   006400630015
BI00B32H7    FS22032DMW     202202097126-8853-02             TERMINAL                 CCN000097500000097500FN00000000020220301000097500NNM   20220106155445    4P0P  00000750000000562500000847732H7    FYFSY   006400630015
BI00B32H7    FS22033DMW     202202157126-8853-02             TERMINAL                 CCN000127500000127500FN00000000020220301000127500NNM   20220106155445    4P0P  00000750000000562500000847732H7    FYFSY   006400630015
BI00B32H7    FS22034DMW     202202237126-8853-02             TERMINAL                 CCN000150000000150000FN00000000020220301000150000NNM   20220106155445    4P0P  00000750000000562500000847732H7    FYFSY   006400630015
BI00B32H7    FS22031DMW     202202027158-3006-90             RUBBER STOPPER           CCN000200000000200000FN00000000020220301000200000NNM   20220106155445    1C0C  00002000000000330600000386032H7    FYFSY   002700430014
BI00B32H7    FS22032DMW     202202097158-3006-90             RUBBER STOPPER           CCN000240000000240000FN00000000020220301000240000NNM   20220106155445    1C0C  00002000000000330600000386032H7    FYFSY   002700430014
BI00B32H7    FS22033DMW     202202157158-3006-90             RUBBER STOPPER           CCN000220000000220000FN00000000020220301000220000NNM   20220106155445    1C0C  00002000000000330600000386032H7    FYFSY   002700430014
BI00B32H7    FS22034DMW     202202237158-3006-90             RUBBER STOPPER           CCN000220000000220000FN00000000020220301000220000NNM   20220106155445    1C0C  00002000000000330600000386032H7    FYFSY   002700430014
BI00B32H7    FS22031DMW     202202027158-3009-60             RUBBER STOPPER           CCN000160000000160000FN00000000020220301000160000NNM   20220106155445    1C0C  00002000000000338000000386232H7    FYFSY   002700430014
BI00B32H7    FS22032DMW     202202097158-3009-60             RUBBER STOPPER           CCN000360000000360000FN00000000020220301000360000NNM   20220106155445    1C0C  00002000000000338000000386232H7    FYFSY   002700430014
BI00B32H7    FS22033DMW     202202157158-3009-60             RUBBER STOPPER           CCN000360000000360000FN00000000020220301000360000NNM   20220106155445    1C0C  00002000000000338000000386232H7    FYFSY   002700430014
BI00B32H7    FS22034DMW     202202237158-3009-60             RUBBER STOPPER           CCN000380000000380000FN00000000020220301000380000NNM   20220106155445    1C0C  00002000000000338000000386232H7    FYFSY   002700430014
BI00B32H7    FS22031DMW     202202027158-3070-80             RUBBER STOPPER           CCN000040000000040000FN00000000020220301000040000NNM   20220106155445    1C0C  00004000000000276000000333332H7    FYFSY   002700430014
BI00B32H7    FS22032DMW     202202097158-3070-80             RUBBER STOPPER           CCN000080000000080000FN00000000020220301000080000NNM   20220106155445    1C0C  00004000000000276000000333332H7    FYFSY   002700430014
BI00B32H7    FS22033DMW     202202157158-3070-80             RUBBER STOPPER           CCN000080000000080000FN00000000020220301000080000NNM   20220106155445    1C0C  00004000000000276000000333332H7    FYFSY   002700430014
BI00B32H7    FS22034DMW     202202237158-3070-80             RUBBER STOPPER           CCN000040000000040000FN00000000020220301000040000NNM   20220106155445    1C0C  00004000000000276000000333332H7    FYFSY   002700430014
BI00B32H7    FS22031DMW     202202027158-3165-90             WIRE SEAL                CCN000040000000040000FN00000000020220301000040000NNM   20220106155445    1C0C  00004000000000124000000172432H7    FYFSY   004300270014
BI00B32H7    FS22031DMW     202202027173-3291-40             LIF LEVER                CCN000002400000002400FN00000000020220301000002400NNM   20220106155445    1F0F  00000240000000867800001067832H7    FYFSY   005500360039
BI00B32H7    FS22033DMW     202202157173-3291-40             LIF LEVER                CCN000002400000002400FN00000000020220301000002400NNM   20220106155445    1F0F  00000240000000867800001067832H7    FYFSY   005500360039
BI00B32H7    FS22031DMW     202202027195-0783-08             TERMINAL                 CCN000030000000030000FN00000000020220301000030000NNM   20220106155445    4P0P  00003000000000507000000801232H7    FYFSY   006400630015
BI00B32H7    FS22033DMW     202202157195-0783-08             TERMINAL                 CCN000030000000030000FN00000000020220301000030000NNM   20220106155445    4P0P  00003000000000507000000801232H7    FYFSY   006400630015
BI00B32H7    FS22033DMW     202202157196-0510-02             TERMINAL                 CCN000024000000024000FN00000000020220301000024000NNM   20220106155445    4P0P  00002400000000871200001034632H7    FYFSY   002800510028
BI00B32H7    FS22034DMW     202202237196-0510-02             TERMINAL                 CCN000024000000024000FN00000000020220301000024000NNM   20220106155445    4P0P  00002400000000871200001034632H7    FYFSY   002800510028
BI00B32H7    FS22031DMW     202202027196-0511-02             TERMINAL                 CCN000024000000024000FN00000000020220301000024000NNM   20220106155445    4P0P  00002400000000916800001080232H7    FYFSY   002800510028
BI00B32H7    FS22031DMW     202202027196-0805-02             TERMINAL FEMALE          CCN000022500000022500FN00000000020220301000022500NNM   20220106155445    4P0P  00002250000000558000000843232H7    FYFSY   006400630015
BI00B32H7    FS22034DMW     202202237196-0805-02             TERMINAL FEMALE          CCN000022500000022500FN00000000020220301000022500NNM   20220106155445    4P0P  00002250000000558000000843232H7    FYFSY   006400630015
BI00B32H7    FS22031DMW     202202027196-1064-02             TERMINAL FEMALE          CCN000006000000006000FN00000000020220301000006000NNM   20220106155445    4P0P  00000600000000570000000855232H7    FYFSY   006400630015
BI00B32H7    FS22031DMW     202202027196-1325-02             TERMINAL FEMALE          CCN000180000000180000FN00000000020220301000180000NNM   20220106155445    4P0P  00006000000000450000000778732H7    FYFSY   006400630017
BI00B32H7    FS22032DMW     202202097196-1325-02             TERMINAL FEMALE          CCN000120000000120000FN00000000020220301000120000NNM   20220106155445    4P0P  00006000000000450000000778732H7    FYFSY   006400630017
BI00B32H7    FS22033DMW     202202157196-1325-02             TERMINAL FEMALE          CCN000120000000120000FN00000000020220301000120000NNM   20220106155445    4P0P  00006000000000450000000778732H7    FYFSY   006400630017
BI00B32H7    FS22034DMW     202202237196-1325-02             TERMINAL FEMALE          CCN000120000000120000FN00000000020220301000120000NNM   20220106155445    4P0P  00006000000000450000000778732H7    FYFSY   006400630017
BI00B32H7    FS22031DMW     202202027196-1326-02             TERMINAL FEMALE          CCN000180000000180000FN00000000020220301000180000NNM   20220106155445    4P0P  00006000000000456000000784732H7    FYFSY   006400630017
BI00B32H7    FS22032DMW     202202097196-1326-02             TERMINAL FEMALE          CCN000240000000240000FN00000000020220301000240000NNM   20220106155445    4P0P  00006000000000456000000784732H7    FYFSY   006400630017
BI00B32H7    FS22033DMW     202202157196-1326-02             TERMINAL FEMALE          CCN000240000000240000FN00000000020220301000240000NNM   20220106155445    4P0P  00006000000000456000000784732H7    FYFSY   006400630017
BI00B32H7    FS22034DMW     202202237196-1326-02             TERMINAL FEMALE          CCN000240000000240000FN00000000020220301000240000NNM   20220106155445    4P0P  00006000000000456000000784732H7    FYFSY   006400630017
BI00B32H7    FS22031DMW     202202027196-1327-02             TERMINAL FEMALE          CCN000052000000052000FN00000000020220301000052000NNM   20220106155445    4P0P  00005200000000336000000739532H7    FYFSY   006400630017
BI00B32H7    FS22031DMW     202202027196-1947-02             TERMINAL FEMALE          CCN000009000000009000FN00000000020220301000009000NNM   20220106155445    4POP  00000900000000407700000692932H7    FYFSY   006400630015
BI00B32H7    FS22031DMW     202202027283-1156                CONNECTOR                CCN000002400000002400FN00000000020220301000002400NNM   20220106155445    4N0N  00000080000000877600001078032H7    FYFSY   005600390040
BI00B32H7    FS22032DMW     202202097283-1156                CONNECTOR                CCN000001600000001600FN00000000020220301000001600NNM   20220106155445    4N0N  00000080000000877600001078032H7    FYFSY   005600390040
BI00B32H7    FS22033DMW     202202157283-1156                CONNECTOR                CCN000002400000002400FN00000000020220301000002400NNM   20220106155445    4N0N  00000080000000877600001078032H7    FYFSY   005600390040
BI00B32H7    FS22034DMW     202202237283-1156                CONNECTOR                CCN000001600000001600FN00000000020220301000001600NNM   20220106155445    4N0N  00000080000000877600001078032H7    FYFSY   005600390040
BI00B32H7    FS22032DMW     202202097283-1289-40             CONNECTOR HOUSING        CCN000001200000001200FN00000000020220301000001200NNM   20220106155445    1N0N  00000060000000679800000824832H7    FYFSY   005400370024
BI00B32H7    FS22033DMW     202202157283-1289-40             CONNECTOR HOUSING        CCN000002400000002400FN00000000020220301000002400NNM   20220106155445    1N0N  00000060000000679800000824832H7    FYFSY   005400370024
BI00B32H7    FS22034DMW     202202237283-1289-40             CONNECTOR HOUSING        CCN000004200000004200FN00000000020220301000004200NNM   20220106155445    1N0N  00000060000000679800000824832H7    FYFSY   005400370024
BI00B32H7    FS22031DMW     202202027283-4855                CONNECTOR HOUSING        CCN000012000000012000FN00000000020220301000012000NNM   20220106155445    4N0N  00000240000001188400001400032H7    FYFSY   005500360039
BI00B32H7    FS22032DMW     202202097283-4855                CONNECTOR HOUSING        CCN000012000000012000FN00000000020220301000012000NNM   20220106155445    4N0N  00000240000001188400001400032H7    FYFSY   005500360039
BI00B32H7    FS22033DMW     202202157283-4855                CONNECTOR HOUSING        CCN000012000000012000FN00000000020220301000012000NNM   20220106155445    4N0N  00000240000001188400001400032H7    FYFSY   005500360039
BI00B32H7    FS22034DMW     202202237283-4855                CONNECTOR HOUSING        CCN000012000000012000FN00000000020220301000012000NNM   20220106155445    4N0N  00000240000001188400001400032H7    FYFSY   005500360039
BI00B32H7    FS22031DMW     202202027286-3885                CONNECTOR MALE ASS'Y     CCN000005500000006000FN00000000020220301000006000NNM   20220106155445    1N0N  00000120000000910600001130632H7    FYFSY   005500360039
BI00B32H7    FS22032DMW     202202097286-3885                CONNECTOR MALE ASS'Y     CCN000006500000007200FN00000000020220301000007200NNM   20220106155445    1N0N  00000120000000910600001130632H7    FYFSY   005500360039
BI00B32H7    FS22033DMW     202202157286-3885                CONNECTOR MALE ASS'Y     CCN000006000000006000FN00000000020220301000006000NNM   20220106155445    1N0N  00000120000000910600001130632H7    FYFSY   005500360039
BI00B32H7    FS22034DMW     202202237286-3885                CONNECTOR MALE ASS'Y     CCN000005500000006000FN00000000020220301000006000NNM   20220106155445    1N0N  00000120000000910600001130632H7    FYFSY   005500360039
BI00B32H7    FS22032DMW     202202097286-3885-40             CONNECTOR MALE ASS'Y     CCN000001500000002400FN00000000020220301000002400NNM   20220106155445    1N0N  00000120000000910600001130632H7    FYFSY   005500360039
BI00B32H7    FS22033DMW     202202157286-3885-40             CONNECTOR MALE ASS'Y     CCN000001500000002400FN00000000020220301000002400NNM   20220106155445    1N0N  00000120000000910600001130632H7    FYFSY   005500360039
BI00B32H7    FS22034DMW     202202237286-3885-40             CONNECTOR MALE ASS'Y     CCN000001500000002400FN00000000020220301000002400NNM   20220106155445    1N0N  00000120000000910600001130632H7    FYFSY   005500360039
BI00B32H7    FS22033DMW     202202157287-9323-40             UNSEALED HOUSING SUB     CCN000002400000002400FN00000000020220301000002400NNM   20220106155445    1N0N  00000240000000537600000690032H7    FYFSY   005600390023
BI00B32H7    FS22034DMW     202202237287-9323-40             UNSEALED HOUSING SUB     CCN000002400000002400FN00000000020220301000002400NNM   20220106155445    1N0N  00000240000000537600000690032H7    FYFSY   005600390023
BI00B32H7    FS22031DMW     202202027288-6598-70             HOUSING MALE ASS'Y       CCN000004320000004320FN00000000020220301000004320NNM   20220106155445    4N0N  00000144000001074200001429232H7    FYFSY   005500360039
BI00B32H7    FS22032DMW     202202097288-6598-70             HOUSING MALE ASS'Y       CCN000002880000002880FN00000000020220301000002880NNM   20220106155445    4N0N  00000144000001074200001429232H7    FYFSY   005500360039
BI00B32H7    FS22033DMW     202202157288-6598-70             HOUSING MALE ASS'Y       CCN000004320000004320FN00000000020220301000004320NNM   20220106155445    4N0N  00000144000001074200001429232H7    FYFSY   005500360039
BI00B32H7    FS22034DMW     202202237288-6598-70             HOUSING MALE ASS'Y       CCN000002880000002880FN00000000020220301000002880NNM   20220106155445    4N0N  00000144000001074200001429232H7    FYFSY   005500360039
BI00B32H7    FS22031DMW     202202027289-6518-30             HOUSING FEMALE ASS'Y     CCN000001200000001200FN00000000020220301000001200NNM   20220106155445    1N0N  00000120000000829200001049232H7    FYFSY   005500360039
BI00B32H7    FS22032DMW     202202097289-6518-30             HOUSING FEMALE ASS'Y     CCN000001200000001200FN00000000020220301000001200NNM   20220106155445    1N0N  00000120000000829200001049232H7    FYFSY   005500360039
BI00B32H7    FS22033DMW     202202157289-6518-30             HOUSING FEMALE ASS'Y     CCN000002400000002400FN00000000020220301000002400NNM   20220106155445    1N0N  00000120000000829200001049232H7    FYFSY   005500360039
BI00B32H7    FS22034DMW     202202237289-6518-30             HOUSING FEMALE ASS'Y     CCN000001200000001200FN00000000020220301000001200NNM   20220106155445    1N0N  00000120000000829200001049232H7    FYFSY   005500360039
BI00B32H7    FS22032DMW     202202097289-6547                HOUSING FEMALE ASS'Y     CCN000007200000007200FN00000000020220301000007200NNM   20220106155445    1N0N  00000240000001152000001362032H7    FYFSY   005500360039
BI00B32H7    FS22033DMW     202202157289-6547                HOUSING FEMALE ASS'Y     CCN000007200000007200FN00000000020220301000007200NNM   20220106155445    1N0N  00000240000001152000001362032H7    FYFSY   005500360039
BI00B32H7    FS22034DMW     202202237289-6547                HOUSING FEMALE ASS'Y     CCN000007200000007200FN00000000020220301000007200NNM   20220106155445    1N0N  00000240000001152000001362032H7    FYFSY   005500360039
BI00B32H7    FS22031DMW     202202027295-0785-02             TERMINAL ALUMINIUM       CCN000051000000051000FN00000000020220301000051000NNM   20220106155445    4P0P  00002550000000510000000803632H7    FYFSY   006400630015
BI00B32H7    FS22032DMW     202202097295-0785-02             TERMINAL ALUMINIUM       CCN000025500000025500FN00000000020220301000025500NNM   20220106155445    4P0P  00002550000000510000000803632H7    FYFSY   006400630015
BI00B32H7    FS22033DMW     202202157295-0785-02             TERMINAL ALUMINIUM       CCN000051000000051000FN00000000020220301000051000NNM   20220106155445    4P0P  00002550000000510000000803632H7    FYFSY   006400630015
BI00B32H7    FS22034DMW     202202237295-0785-02             TERMINAL ALUMINIUM       CCN000025500000025500FN00000000020220301000025500NNM   20220106155445    4P0P  00002550000000510000000803632H7    FYFSY   006400630015
BI00B32H7    FS22031DMW     202202027296-0784-02             TERMINAL ALUMINIUM       CCN000192000000192000FN00000000020220301000192000NNM   20220106155445    4P0P  00002400000000480000000765232H7    FYFSY   006400630015
BI00B32H7    FS22032DMW     202202097296-0784-02             TERMINAL ALUMINIUM       CCN000096000000096000FN00000000020220301000096000NNM   20220106155445    4P0P  00002400000000480000000765232H7    FYFSY   006400630015
BI00B32H7    FS22033DMW     202202157296-0784-02             TERMINAL ALUMINIUM       CCN000096000000096000FN00000000020220301000096000NNM   20220106155445    4P0P  00002400000000480000000765232H7    FYFSY   006400630015
BI00B32H7    FS22034DMW     202202237296-0784-02             TERMINAL ALUMINIUM       CCN000120000000120000FN00000000020220301000120000NNM   20220106155445    4P0P  00002400000000480000000765232H7    FYFSY   006400630015
BI00B32H7    FS22031DMW     202202027296-1018-02             TERMINAL ALUMINIUM       CCN000084000000084000FN00000000020220301000084000NNM   20220106155445    4P0P  00001200000000595200000880432H7    FYFSY   006400630015
BI00B32H7    FS22032DMW     202202097296-1018-02             TERMINAL ALUMINIUM       CCN000048000000048000FN00000000020220301000048000NNM   20220106155445    4P0P  00001200000000595200000880432H7    FYFSY   006400630015
BI00B32H7    FS22033DMW     202202157296-1018-02             TERMINAL ALUMINIUM       CCN000048000000048000FN00000000020220301000048000NNM   20220106155445    4P0P  00001200000000595200000880432H7    FYFSY   006400630015
BI00B32H7    FS22034DMW     202202237296-1018-02             TERMINAL ALUMINIUM       CCN000048000000048000FN00000000020220301000048000NNM   20220106155445    4P0P  00001200000000595200000880432H7    FYFSY   006400630015
BI00B32H7    FS22031DMW     202202027296-1024-02             TERMINAL ALUMINIUM       CCN000018000000018000FN00000000020220301000018000NNM   20220106155445    4P0P  00001800000000698400000983632H7    FYFSY   006400630015
BI00B32H7    FS22032DMW     202202097296-1024-02             TERMINAL ALUMINIUM       CCN000036000000036000FN00000000020220301000036000NNM   20220106155445    4P0P  00001800000000698400000983632H7    FYFSY   006400630015
BI00B32H7    FS22033DMW     202202157296-1024-02             TERMINAL ALUMINIUM       CCN000018000000018000FN00000000020220301000018000NNM   20220106155445    4P0P  00001800000000698400000983632H7    FYFSY   006400630015
BI00B32H7    FS22034DMW     202202237296-1024-02             TERMINAL ALUMINIUM       CCN000018000000018000FN00000000020220301000018000NNM   20220106155445    4P0P  00001800000000698400000983632H7    FYFSY   006400630015
BI00B32H7    FS22031DMW     202202027297-3482                JOINT CONNECTOR          CCN000001600000001600FN00000000020220301000001600NNM   20220106155445    4N0N  00000080000000621000000730532H7    FYFSY   005400370024
BI00B32H7    FS22031DMW     202202027298-3484                HOUSING FEMALE ASS'Y     CCN000002700000002700FN00000000020220301000002700NNM   20220106155445    4N0N  00000270000000742500001028732H7    FYFSY   005400370024
BI00B32H7    FS22031DMW     202202027327-6627-3W             BATTERY FUSE             CCN000001248000001248FN00000000020220301000001248NNM   20220106155445    4N0N  00000009600001332300001534632H7    FYFSY   005500360039
BI00B32H7    FS22032DMW     202202097327-6627-3W             BATTERY FUSE             CCN000001536000001536FN00000000020220301000001536NNM   20220106155445    4N0N  00000009600001332300001534632H7    FYFSY   005500360039
BI00B32H7    FS22033DMW     202202157327-6627-3W             BATTERY FUSE             CCN000001632000001632FN00000000020220301000001632NNM   20220106155445    4N0N  00000009600001332300001534632H7    FYFSY   005500360039
BI00B32H7    FS22034DMW     202202237327-6627-3W             BATTERY FUSE             CCN000001728000001728FN00000000020220301000001728NNM   20220106155445    4N0N  00000009600001332300001534632H7    FYFSY   005500360039
BI00B32H7    FS22034DMW     202202237327-6731-3W             BATTERY FUSE             CCN000006400000006400FN00000000020220301000006400NNM   20220106155445    4N0N  00000006400000697600000843032H7    FYFSY   005400370024
BI00B32H7    FS22031DMW     202202027327-6949-30             MULTI FUSE               CCN000000576000000576FN00000000020220301000000576NNM   20220106155445    4N00  00000028800000886700001052632H7    FYFSY   005400370024
BI00B32H7    FS22031DMW     202202027327-6950-30             MULTI FUSE               CCN000000576000000576FN00000000020220301000000576NNM   20220106155445    4N00  00000028800000888700001054632H7    FYFSY   005400370024
BI00B32H7    FS22031DMW     202202027327-6952-30             MULTI FUSE               CCN000000560000000560FN00000000020220301000000560NNM   20220106155445    4N0N  00000056000000848500001031532H7    FYFSY   005400370024
BI00B32H7    FS22031DMW     202202027327-6954-30             MULTI FUSE               CCN000000600000000600FN00000000020220301000000600NNM   20220106155445    4N00  00000060000000751600000954332H7    FYFSY   005400370024
BI00B32H7    FS22032DMW     202202097386-9155                CONNECTOR MALE ASS'Y     CCN000005400000005400FN00000000020220301000005400NNM   20220106155445    4N0N  00000060000001244400001369932H7    FYFSY   005400370024
BI00B32H7    FS22033DMW     202202157386-9155                CONNECTOR MALE ASS'Y     CCN000004800000004800FN00000000020220301000004800NNM   20220106155445    4N0N  00000060000001244400001369932H7    FYFSY   005400370024
BI00B32H7    FS22034DMW     202202237386-9155                CONNECTOR MALE ASS'Y     CCN000004800000004800FN00000000020220301000004800NNM   20220106155445    4N0N  00000060000001244400001369932H7    FYFSY   005400370024
BI00B32H7    FS22032DMW     202202097388-2978-30             HOUSING MALE ASS'Y       CCN000018720000018720FN00000000020220301000018720NNM   20220106155445    1N0N  00000048000000742000001122032H7    FYFSY   005500360039
BI00B32H7    FS22033DMW     202202157388-2978-30             HOUSING MALE ASS'Y       CCN000023040000023040FN00000000020220301000023040NNM   20220106155445    1N0N  00000048000000742000001122032H7    FYFSY   005500360039
BI00B32H7    FS22034DMW     202202237388-2978-30             HOUSING MALE ASS'Y       CCN000019200000019200FN00000000020220301000019200NNM   20220106155445    1N0N  00000048000000742000001122032H7    FYFSY   005500360039
BI00B32H7    #FS22031DMW    202202027114-4022                TERMINAL                 CCN000015000000015000FN00000000020220301000015000NNM   20220106155433    2F0P  00001500000000708000001120632H7    FYFSY   006400630015
BI00B32H7    #FS22032DMW    202202097114-4022                TERMINAL                 CCN000030000000030000FN00000000020220301000030000NNM   20220106155433    2F0P  00001500000000708000001120632H7    FYFSY   006400630015
BI00B32H7    #FS22033DMW    202202157114-4022                TERMINAL                 CCN000015000000015000FN00000000020220301000015000NNM   20220106155433    2F0P  00001500000000708000001120632H7    FYFSY   006400630015
BI00B32H7    #FS22034DMW    202202237114-4022                TERMINAL                 CCN000015000000015000FN00000000020220301000015000NNM   20220106155433    2F0P  00001500000000708000001120632H7    FYFSY   006400630015
BI00B32H7    #FS22031DMW    202202027158-3004-40             RUBBER STOPPER           CCN000080000000080000FN00000000020220301000080000NNM   20220106155433    2C0C  00002000000000234000000306332H7    FYFSY   002700430014
BI00B32H7    #FS22032DMW    202202097158-3004-40             RUBBER STOPPER           CCN000080000000080000FN00000000020220301000080000NNM   20220106155433    2C0C  00002000000000234000000306332H7    FYFSY   002700430014
BI00B32H7    #FS22033DMW    202202157158-3004-40             RUBBER STOPPER           CCN000060000000060000FN00000000020220301000060000NNM   20220106155433    2C0C  00002000000000234000000306332H7    FYFSY   002700430014
BI00B32H7    #FS22034DMW    202202237158-3004-40             RUBBER STOPPER           CCN000080000000080000FN00000000020220301000080000NNM   20220106155433    2C0C  00002000000000234000000306332H7    FYFSY   002700430014
BI00B32H7    #FS22031DMW    202202027158-3005-80             RUBBER STOPPER           CCN000040000000040000FN00000000020220301000040000NNM   20220106155433    2H0H  00002000000000210000000268732H7    FYFSY   002700430014
BI00B32H7    #FS22032DMW    202202097158-3005-80             RUBBER STOPPER           CCN000080000000080000FN00000000020220301000080000NNM   20220106155433    2H0H  00002000000000210000000268732H7    FYFSY   002700430014
BI00B32H7    #FS22033DMW    202202157158-3005-80             RUBBER STOPPER           CCN000040000000040000FN00000000020220301000040000NNM   20220106155433    2H0H  00002000000000210000000268732H7    FYFSY   002700430014
BI00B32H7    #FS22034DMW    202202237158-3005-80             RUBBER STOPPER           CCN000080000000080000FN00000000020220301000080000NNM   20220106155433    2H0H  00002000000000210000000268732H7    FYFSY   002700430014
BI00B32H7    #FS22031DMW    202202027158-3007-10             RUBBER STOPPER           CCN000180000000180000FN00000000020220301000180000NNM   20220106155433    2H0H  00002000000000308000000362732H7    FYFSY   002700430014
BI00B32H7    #FS22032DMW    202202097158-3007-10             RUBBER STOPPER           CCN000180000000180000FN00000000020220301000180000NNM   20220106155433    2H0H  00002000000000308000000362732H7    FYFSY   002700430014
BI00B32H7    #FS22033DMW    202202157158-3007-10             RUBBER STOPPER           CCN000100000000100000FN00000000020220301000100000NNM   20220106155433    2H0H  00002000000000308000000362732H7    FYFSY   002700430014
BI00B32H7    #FS22034DMW    202202237158-3007-10             RUBBER STOPPER           CCN000160000000160000FN00000000020220301000160000NNM   20220106155433    2H0H  00002000000000308000000362732H7    FYFSY   002700430014
BI00B32H7    #FS22031DMW    202202027172-5625-90             RUBBER STOPPER           CCN000100000000100000FN00000000020220301000100000NNM   20220106155433    2H0H  00002000000000082400000133832H7    FYFSY   004300270014
BI00B32H7    #FS22032DMW    202202097172-5625-90             RUBBER STOPPER           CCN000060000000060000FN00000000020220301000060000NNM   20220106155433    2H0H  00002000000000082400000133832H7    FYFSY   004300270014
BI00B32H7    #FS22033DMW    202202157172-5625-90             RUBBER STOPPER           CCN000040000000040000FN00000000020220301000040000NNM   20220106155433    2H0H  00002000000000082400000133832H7    FYFSY   004300270014
BI00B32H7    #FS22034DMW    202202237172-5625-90             RUBBER STOPPER           CCN000060000000060000FN00000000020220301000060000NNM   20220106155433    2H0H  00002000000000082400000133832H7    FYFSY   004300270014
BI00B32H7    #FS22031DMW    202202027172-5626-90             RUBBER STOPPER           CCN000180000000180000FN00000000020220301000180000NNM   20220106155433    2H0H  00002000000000076400000127832H7    FYFSY   004300270014
BI00B32H7    #FS22032DMW    202202097172-5626-90             RUBBER STOPPER           CCN000160000000160000FN00000000020220301000160000NNM   20220106155433    2H0H  00002000000000076400000127832H7    FYFSY   004300270014
BI00B32H7    #FS22033DMW    202202157172-5626-90             RUBBER STOPPER           CCN000120000000120000FN00000000020220301000120000NNM   20220106155433    2H0H  00002000000000076400000127832H7    FYFSY   004300270014
BI00B32H7    #FS22034DMW    202202237172-5626-90             RUBBER STOPPER           CCN000160000000160000FN00000000020220301000160000NNM   20220106155433    2H0H  00002000000000076400000127832H7    FYFSY   004300270014
BI00B32H7    #FS22031DMW    202202027172-5627-60             RUBBER STOPPER           CCN000040000000040000FN00000000020220301000040000NNM   20220106155433    2H0H  00002000000000070400000121832H7    FYFSY   004300270014
BI00B32H7    #FS22032DMW    202202097172-5627-60             RUBBER STOPPER           CCN000040000000040000FN00000000020220301000040000NNM   20220106155433    2H0H  00002000000000070400000121832H7    FYFSY   004300270014
BI00B32H7    #FS22033DMW    202202157172-5627-60             RUBBER STOPPER           CCN000040000000040000FN00000000020220301000040000NNM   20220106155433    2H0H  00002000000000070400000121832H7    FYFSY   004300270014
BI00B32H7    #FS22034DMW    202202237172-5627-60             RUBBER STOPPER           CCN000040000000040000FN00000000020220301000040000NNM   20220106155433    2H0H  00002000000000070400000121832H7    FYFSY   004300270014
BI00B32H7    #FS22031DMW    202202027172-5628-80             DUMMY PLUG               CCN000040000000040000FN00000000020220301000040000NNM   20220106155433    2H0H  00002000000000110600000162032H7    FYFSY   004300270014
BI00B32H7    #FS22032DMW    202202097172-5628-80             DUMMY PLUG               CCN000060000000060000FN00000000020220301000060000NNM   20220106155433    2H0H  00002000000000110600000162032H7    FYFSY   004300270014
BI00B32H7    #FS22033DMW    202202157172-5628-80             DUMMY PLUG               CCN000040000000040000FN00000000020220301000040000NNM   20220106155433    2H0H  00002000000000110600000162032H7    FYFSY   004300270014
BI00B32H7    #FS22034DMW    202202237172-5628-80             DUMMY PLUG               CCN000040000000040000FN00000000020220301000040000NNM   20220106155433    2H0H  00002000000000110600000162032H7    FYFSY   004300270014
BI00B32H7    #FS22031DMW    202202027172-5629-80             RUBBER STOPPER           CCN000240000000240000FN00000000020220301000240000NNM   20220106155433    2H0H  00002000000000060000000111132H7    FYFSY   004300270014
BI00B32H7    #FS22032DMW    202202097172-5629-80             RUBBER STOPPER           CCN000260000000260000FN00000000020220301000260000NNM   20220106155433    2H0H  00002000000000060000000111132H7    FYFSY   004300270014
BI00B32H7    #FS22033DMW    202202157172-5629-80             RUBBER STOPPER           CCN000260000000260000FN00000000020220301000260000NNM   20220106155433    2H0H  00002000000000060000000111132H7    FYFSY   004300270014
BI00B32H7    #FS22034DMW    202202237172-5629-80             RUBBER STOPPER           CCN000260000000260000FN00000000020220301000260000NNM   20220106155433    2H0H  00002000000000060000000111132H7    FYFSY   004300270014
BI00B32H7    #FS22031DMW    202202027172-5630-40             RUBBER STOPPER           CCN000360000000360000FN00000000020220301000360000NNM   20220106155433    2H0H  00002000000000044000000095132H7    FYFSY   004300270014
BI00B32H7    #FS22032DMW    202202097172-5630-40             RUBBER STOPPER           CCN000360000000360000FN00000000020220301000360000NNM   20220106155433    2H0H  00002000000000044000000095132H7    FYFSY   004300270014
BI00B32H7    #FS22033DMW    202202157172-5630-40             RUBBER STOPPER           CCN000300000000300000FN00000000020220301000300000NNM   20220106155433    2H0H  00002000000000044000000095132H7    FYFSY   004300270014
BI00B32H7    #FS22034DMW    202202237172-5630-40             RUBBER STOPPER           CCN000320000000320000FN00000000020220301000320000NNM   20220106155433    2H0H  00002000000000044000000095132H7    FYFSY   004300270014
BI00B32H7    #FS22031DMW    202202027172-5631-60             RUBBER STOPPER           CCN000220000000220000FN00000000020220301000220000NNM   20220106155433    2H0H  00002000000000042000000093132H7    FYFSY   004300270014
BI00B32H7    #FS22032DMW    202202097172-5631-60             RUBBER STOPPER           CCN000180000000180000FN00000000020220301000180000NNM   20220106155433    2H0H  00002000000000042000000093132H7    FYFSY   004300270014
BI00B32H7    #FS22033DMW    202202157172-5631-60             RUBBER STOPPER           CCN000160000000160000FN00000000020220301000160000NNM   20220106155433    2H0H  00002000000000042000000093132H7    FYFSY   004300270014
BI00B32H7    #FS22034DMW    202202237172-5631-60             RUBBER STOPPER           CCN000180000000180000FN00000000020220301000180000NNM   20220106155433    2H0H  00002000000000042000000093132H7    FYFSY   004300270014
BI00B32H7    #FS22031DMW    202202027172-5632-10             DUMMY PLUG               CCN000180000000180000FN00000000020220301000180000NNM   20220106155433    2H0H  00002000000000080400000131832H7    FYFSY   004300270014
BI00B32H7    #FS22032DMW    202202097172-5632-10             DUMMY PLUG               CCN000180000000180000FN00000000020220301000180000NNM   20220106155433    2H0H  00002000000000080400000131832H7    FYFSY   004300270014
BI00B32H7    #FS22033DMW    202202157172-5632-10             DUMMY PLUG               CCN000180000000180000FN00000000020220301000180000NNM   20220106155433    2H0H  00002000000000080400000131832H7    FYFSY   004300270014
BI00B32H7    #FS22034DMW    202202237172-5632-10             DUMMY PLUG               CCN000180000000180000FN00000000020220301000180000NNM   20220106155433    2H0H  00002000000000080400000131832H7    FYFSY   004300270014
BI00B32H7    #FS22031DMW    202202027183-2418-30             CONNECTOR HOUSING        CCN000019200000019200FN00000000020220301000019200NNM   20220106155433    2F0F  00000480000000917000001235332H7    FYFSY   005500360039
BI00B32H7    #FS22032DMW    202202097183-2418-30             CONNECTOR HOUSING        CCN000014400000014400FN00000000020220301000014400NNM   20220106155433    2F0F  00000480000000917000001235332H7    FYFSY   005500360039
BI00B32H7    #FS22033DMW    202202157183-2418-30             CONNECTOR HOUSING        CCN000014400000014400FN00000000020220301000014400NNM   20220106155433    2F0F  00000480000000917000001235332H7    FYFSY   005500360039
BI00B32H7    #FS22034DMW    202202237183-2418-30             CONNECTOR HOUSING        CCN000009600000009600FN00000000020220301000009600NNM   20220106155433    2F0F  00000480000000917000001235332H7    FYFSY   005500360039
BI00B32H7    #FS22031DMW    202202027187-1616                HOUSING FEMALE           CCN000001000000004000FN00000000020220301000004000NNM   20220106155433    2F0F  00000400000001152000001262032H7    FYFSY   005500360039
BI00B32H7    #FS22032DMW    202202097189-2978-30             HOUSING FEMALE           CCN000004500000004500FN00000000020220301000004500NNM   20220106155433    2F0F  00000150000000966900001096932H7    FYFSY   005400370024
BI00B32H7    #FS22033DMW    202202157189-2978-30             HOUSING FEMALE           CCN000019500000019500FN00000000020220301000019500NNM   20220106155433    2F0F  00000150000000966900001096932H7    FYFSY   005400370024
BI00B32H7    #FS22034DMW    202202237189-2978-30             HOUSING FEMALE           CCN000019500000019500FN00000000020220301000019500NNM   20220106155433    2F0F  00000150000000966900001096932H7    FYFSY   005400370024
BI00B32H7    #FS22031DMW    202202027189-3032                HOUSING FEMALE           CCN000008000000008000FN00000000020220301000008000NNM   20220106155433    2F0F  00000160000000788400001018432H7    FYFSY   005500360039
BI00B32H7    #FS22032DMW    202202097189-3032                HOUSING FEMALE           CCN000006400000006400FN00000000020220301000006400NNM   20220106155433    2F0F  00000160000000788400001018432H7    FYFSY   005500360039
BI00B32H7    #FS22033DMW    202202157189-3032                HOUSING FEMALE           CCN000004800000004800FN00000000020220301000004800NNM   20220106155433    2F0F  00000160000000788400001018432H7    FYFSY   005500360039
BI00B32H7    #FS22034DMW    202202237189-3032                HOUSING FEMALE           CCN000006400000006400FN00000000020220301000006400NNM   20220106155433    2F0F  00000160000000788400001018432H7    FYFSY   005500360039
BI00B32H7    #FS22031DMW    202202027189-3033-30             HOUSING FEMALE           CCN000001600000001600FN00000000020220301000001600NNM   20220106155433    2F0F  00000160000001208000001428032H7    FYFSY   005500360039
BI00B32H7    #FS22031DMW    202202027189-3036-40             HOUSING FEMALE           CCN000001600000001600FN00000000020220301000001600NNM   20220106155433    2F0F  00000160000000923200001143232H7    FYFSY   005500360039
BI00B32H7    #FS22031DMW    202202027198-4979-30             HOUSING FEMALE           CCN000004000000004000FN00000000020220301000004000NNM   20220106155433    2F0F  00000400000000707200000876032H7    FYFSY   005400370024
BI00B32H7    #FS22032DMW    202202097198-4979-30             HOUSING FEMALE           CCN000008000000008000FN00000000020220301000008000NNM   20220106155433    2F0F  00000400000000707200000876032H7    FYFSY   005400370024
BI00B32H7    #FS22033DMW    202202157198-4979-30             HOUSING FEMALE           CCN000004000000004000FN00000000020220301000004000NNM   20220106155433    2F0F  00000400000000707200000876032H7    FYFSY   005400370024
BI00B32H7    #FS22034DMW    202202237198-4979-30             HOUSING FEMALE           CCN000004000000004000FN00000000020220301000004000NNM   20220106155433    2F0F  00000400000000707200000876032H7    FYFSY   005400370024
BI00B32H7    #FS22031DMW    202202027198-4980-30             HOUSING FEMALE           CCN000001200000001200FN00000000020220301000001200NNM   20220106155433    2F0F  00000120000000840000000921032H7    FYFSY   005400370024
BI00B32H7    #FS22031DMW    202202027289-3622-30             HOUSING FEMALE ASS'Y     CCN000001296000001296FN00000000020220301000001296NNM   20220106155433    2N0N  00000043200000839400001038432H7    FYFSY   005400370024
BI00B32H7    #FS22032DMW    202202097289-3622-30             HOUSING FEMALE ASS'Y     CCN000001296000001296FN00000000020220301000001296NNM   20220106155433    2N0N  00000043200000839400001038432H7    FYFSY   005400370024
BI00B32H7    #FS22033DMW    202202157289-3622-30             HOUSING FEMALE ASS'Y     CCN000001728000001728FN00000000020220301000001728NNM   20220106155433    2N0N  00000043200000839400001038432H7    FYFSY   005400370024
BI00B32H7    #FS22034DMW    202202237289-3622-30             HOUSING FEMALE ASS'Y     CCN000001296000001296FN00000000020220301000001296NNM   20220106155433    2N0N  00000043200000839400001038432H7    FYFSY   005400370024
BI00B32H7    #FS22031DMW    202202027289-4200-30             HOUSING FEMALE ASS'Y     CCN000010000000010000FN00000000020220301000010000NNM   20220106155433    2N0N  00000200000000926000001021032H7    FYFSY   005400370024
BI00B32H7    #FS22032DMW    202202097289-4200-30             HOUSING FEMALE ASS'Y     CCN000010000000010000FN00000000020220301000010000NNM   20220106155433    2N0N  00000200000000926000001021032H7    FYFSY   005400370024
BI00B32H7    #FS22033DMW    202202157289-4200-30             HOUSING FEMALE ASS'Y     CCN000010000000010000FN00000000020220301000010000NNM   20220106155433    2N0N  00000200000000926000001021032H7    FYFSY   005400370024
BI00B32H7    #FS22034DMW    202202237289-4200-30             HOUSING FEMALE ASS'Y     CCN000010000000010000FN00000000020220301000010000NNM   20220106155433    2N0N  00000200000000926000001021032H7    FYFSY   005400370024
BI00B32H7    @FS22031DMW    202202027283-1223-30             HOUSING SUB ASSEMBLY     CCN000019200000019200FN00000000020220301000019200NNM   20220106155440    3N0N  00000480000000749300000998032H7    FYFSY   005500360039
BI00B32H7    @FS22032DMW    202202097283-1223-30             HOUSING SUB ASSEMBLY     CCN000014400000014400FN00000000020220301000014400NNM   20220106155440    3N0N  00000480000000749300000998032H7    FYFSY   005500360039
BI00B32H7    @FS22033DMW    202202157283-1223-30             HOUSING SUB ASSEMBLY     CCN000009600000009600FN00000000020220301000009600NNM   20220106155440    3N0N  00000480000000749300000998032H7    FYFSY   005500360039
BI00B32H7    @FS22034DMW    202202237283-1223-30             HOUSING SUB ASSEMBLY     CCN000014400000014400FN00000000020220301000014400NNM   20220106155440    3N0N  00000480000000749300000998032H7    FYFSY   005500360039
BI00B32H7    @FS22031DMW    202202027286-4098                CONNECTOR MALE ASS'Y     CCN000003200000003200FN00000000020220301000003200NNM   20220106155440    3N0N  00000160000000949100001163032H7    FYFSY   005500360039
BI00B32H7    @FS22032DMW    202202097286-4098                CONNECTOR MALE ASS'Y     CCN000006400000006400FN00000000020220301000006400NNM   20220106155440    3N0N  00000160000000949100001163032H7    FYFSY   005500360039
BI00B32H7    @FS22033DMW    202202157286-4098                CONNECTOR MALE ASS'Y     CCN000006400000006400FN00000000020220301000006400NNM   20220106155440    3N0N  00000160000000949100001163032H7    FYFSY   005500360039
BI00B32H7    @FS22034DMW    202202237286-4098                CONNECTOR MALE ASS'Y     CCN000006400000006400FN00000000020220301000006400NNM   20220106155440    3N0N  00000160000000949100001163032H7    FYFSY   005500360039
BI00B32H8    TY2202B MW     202201077114-1230                TERMINAL                 CCN000013500000013500FN00000000020220201000013500NNE00020220106132735    4P0P  00001350000000799200001092832H8    TYTYC   006400630015
BI00A32J1    390038         202201247114-4100-02             TERMINAL                 CCN001800000001800000FN00000000020220101001800000NNED0720220106132735    4P0P  00001800000000748800001077432J1    UKYEL-BL006400630017
BI00A32J1    390038         202201247114-4101-02             TERMINAL                 CCN000375000000375000FN00000000020220101000375000NNED0720220106132735    4P0P  00001500000000675000001003632J1    UKYEL-BL006400630017
BI00B32J1    390047         202201317114-4032                TERMINAL                 CCN000007500000007500FN00000000020220101000007500NNED0720220106162134    4P0P  00000750000000735000001063632J1    UKYEL-BL006400630017
