BI00A1200    2399T51614     202112137289-6547                HOUSING FEMALE ASS'Y     PCN000103200000091200FN00000000020210801000091200NNMD0420211126143023    1N0N  0000024000000115200000136201200    YCYC    005500360039
BI00A1200    2399T51727     202112147289-6547                HOUSING FEMALE ASS'Y     PCN000240000000050400FN00000000020210901000050400NNMD0420211126143454    1N0N  0000024000000115200000136201200    YCYC    005500360039
BI00A1200    2399T51728     202112207289-6547                HOUSING FEMALE ASS'Y     PCN000240000000103200FN00000000020210901000103200NNMD0420211126143704    1N0N  0000024000000115200000136201200    YCYC    005500360039
BI00A1200    2399T51729     202112257289-6547                HOUSING FEMALE ASS'Y     PCN000240000000103200FN00000000020210901000103200NNMD0420211126143757    1N0N  0000024000000115200000136201200    YCYC    005500360039
BI00A1200    2399T51727     202112187289-6547                HOUSING FEMALE ASS'Y     PCN000120000000189600FN00000000020210901000189600NNMD0420211126143454    1N0N  0000024000000115200000136201200    YCYC    005500360039
BI00A1200    2399T51728     202112237289-6547                HOUSING FEMALE ASS'Y     PCN000100800000136800FN00000000020210901000136800NNMD0420211126143704    1N0N  0000024000000115200000136201200    YCYC    005500360039
BI00B1200    2399T51729     202201137289-6547                HOUSING FEMALE ASS'Y     CCN000139200000136800FN00000000020210901000136800NNMD0420211126143757    1N0N  0000024000000115200000136201200    YCYC    005500360039
BI00B1200    #2399T51C15    202202107289-4200-30             HOUSING FEMALE ASS'Y     CCN000050000000050000FN00000000020220101000050000NNMD0420211126162847    2N0N  0000020000000092600000102101200    YCYC    005400370024
BI00B1200    #2399T51C16    202204217289-4200-30             HOUSING FEMALE ASS'Y     CCN000050000000050000FN00000000020220101000050000NNMD0420211126162929    2N0N  0000020000000092600000102101200    YCYC    005400370024
BI00B1200    #2399T51C17    202204217289-4200-30             HOUSING FEMALE ASS'Y     CCN000050000000050000FN00000000020220101000050000NNMD0420211126162943    2N0N  0000020000000092600000102101200    YCYC    005400370024
BI00B1200    2399T51C20     202201067289-6547                HOUSING FEMALE ASS'Y     CCN000172800000086400FN00000000020220101000086400NNMD0420211126122734    1N0N  0000024000000115200000136201200    YCYC    005500360039
BI00B1200    2399T51C21     202201207289-6547                HOUSING FEMALE ASS'Y     CCN000172800000096000FN00000000020220101000096000NNMD0420211126122734    1N0N  0000024000000115200000136201200    YCYC    005500360039
BI00B1200    2399T51C22     202202037289-6547                HOUSING FEMALE ASS'Y     CCN000172800000086400FN00000000020220101000086400NNMD0420211126122734    1N0N  0000024000000115200000136201200    YCYC    005500360039
BI00B1200    2399T51C23     202202177289-6547                HOUSING FEMALE ASS'Y     CCN000172800000086400FN00000000020220101000086400NNMD0420211126122734    1N0N  0000024000000115200000136201200    YCYC    005500360039
BI00B1200    #2399T51C18    202204287289-4200-30             HOUSING FEMALE ASS'Y     CCN000050000000050000FN00000000020220201000050000NNMD0420211126163005    2N0N  0000020000000092600000102101200    YCYC    005400370024
BI00B1200    #2399T51C19    202205057289-4200-30             HOUSING FEMALE ASS'Y     CCN000050000000050000FN00000000020220201000050000NNMD0420211126163022    2N0N  0000020000000092600000102101200    YCYC    005400370024
BI00B1200    2399T51C25     202203037289-6547                HOUSING FEMALE ASS'Y     CCN000170400000086400FN00000000020220201000086400NNMD0420211126122734    1N0N  0000024000000115200000136201200    YCYC    005500360039
BI00A1200    #2399T51C26    202111307173-3225-10             LIF LEVER                CCN000046400000046400FN00000000020211201000046400NNE   20211126122734    2F0F  0000008000000059200000071201200    YCYC    005500360039
BI00B1200    #7360T51C06    202112237172-5630-40             RUBBER STOPPER           CCN000040000000040000FN00000000020220101000040000NNE   20211126122734    2H0H  0000200000000004400000009511200    YCYC    004300270014
BI00B1200    #7360T51C06    202112237172-5631-60             RUBBER STOPPER           CCN000060000000060000FN00000000020220101000060000NNE   20211126122734    2H0H  0000200000000004200000009311200    YCYC    004300270014
BI00B1200    #7360T51C07    202201067172-5631-60             RUBBER STOPPER           CCN000040000000040000FN00000000020220201000040000NNE   20211126122734    2H0H  0000200000000004200000009311200    YCYC    004300270014
BI00B1200    #7360T51C08    202201137172-5631-60             RUBBER STOPPER           CCN000040000000040000FN00000000020220201000040000NNE   20211126122734    2H0H  0000200000000004200000009311200    YCYC    004300270014
BI00B1200    8670T51C01     202201277196-1104-02             TERMINAL                 CCN000022500000022500FN00000000020220201000022500NNE   20211126122734    4P0P  0000225000000044100000072621200    YCYC    006400630015
BI00B1200    #H322C50001    202202037174-1760-50             CAP                      CCN000036000000036000FN00000000020220301000036000NNE   20211126122734    2F0F  0000030000000081360000092261200    YCYC    005400370024
BI00B1200    2399T51C20     202201137289-6547                HOUSING FEMALE ASS'Y     CCN000086400000086400FN00000000020220101000086400NNMD0420211126122734    1N0N  0000024000000115200000136201200    YCYC    005500360039
BI00B1200    2399T51C21     202201277289-6547                HOUSING FEMALE ASS'Y     CCN000076800000076800FN00000000020220101000076800NNMD0420211126122734    1N0N  0000024000000115200000136201200    YCYC    005500360039
BI00B1200    2399T51C22     202202107289-6547                HOUSING FEMALE ASS'Y     CCN000086400000086400FN00000000020220101000086400NNMD0420211126122734    1N0N  0000024000000115200000136201200    YCYC    005500360039
BI00B1200    2399T51C23     202202247289-6547                HOUSING FEMALE ASS'Y     CCN000086400000086400FN00000000020220101000086400NNMD0420211126122734    1N0N  0000024000000115200000136201200    YCYC    005500360039
BI00B1200    2399T51C25     202203107289-6547                HOUSING FEMALE ASS'Y     CCN000084000000084000FN00000000020220201000084000NNMD0420211126122734    1N0N  0000024000000115200000136201200    YCYC    005500360039
BI00B32AG    #XG22013LMW    202112037158-3004-40             RUBBER STOPPER           CCN000020000000020000FN00000000020220101000020000NNMD0020211126145712    2C0C  00002000000000234000000306332AG    XGXGY   002700430014
BI00B32AG    #XG22023LMW    202112247158-3008-80             RUBBER STOPPER           CCN000020000000020000FN00000000020220201000020000NNMD0020211126151233    2C0C  00002000000000288000000343032AG    XGXGY   004300270014
BI00B32A7    ZZ21123BMW     202112017158-3006-90             RUBBER STOPPER           CCN000040000000040000FN00000000020211201000040000NNM00020211126163125    1C0C  00002000000000330600000386032A7    ZZZZY   002700430014
BI00B32A7    ZZ21124BMW     202112017158-3006-90             RUBBER STOPPER           CCN000040000000040000FN00000000020211201000040000NNM00020211126163141    1C0C  00002000000000330600000386032A7    ZZZZY   002700430014
BI00B32A7    ZZ21123LMW     202112017158-3006-90             RUBBER STOPPER           CCN000020000000020000FN00000000020211201000020000NNM00020211126163246    1C0C  00002000000000330600000386032A7    ZZZZY   002700430014
BI00B32A7    ZZ21124LMW     202112017158-3006-90             RUBBER STOPPER           CCN000020000000020000FN00000000020211201000020000NNM00020211126163300    1C0C  00002000000000330600000386032A7    ZZZZY   002700430014
BI00B32BF    TT22011KMW     202111307158-3006-90             RUBBER STOPPER           CCN000040000000040000FN00000000020220101000040000NNM00020211126163401    1C0C  00002000000000330600000386032BF    TTTJYCD 002700430014
BI00B32BG    #YY22011CMW    202112027172-5630-40             RUBBER STOPPER           CCN000040000000040000FN00000000020220101000040000NNM00020211126122734    2H0H  00002000000000044000000095132BG    YGYYA   004300270014
BI00A32B6    TAPJC112Z      202111297114-1670-02             TERMINAL                 CCN000192000000192000FN00000000020211201000192000NNE   20211126132917B6  1P0P  00002400000000357600000645832B6    AXARNE-M006400630015
BI00B32CC    CTA32034       202112167283-4855                CONNECTOR HOUSING        CCN000019800000021600FN00000000020220301000021600NNE   20211126122734    4N0N  00000240000001188400001400032CC    BIYABCBU005500360039
BI00B32CC    #CTA32034      202112167283-8226-30             CONNECTOR                CCN000024000000024000FN00000000020220301000024000NNED0020211126122734    2N0N  00000200000000820000001008032CC    BIYABCBU005400370024
BI00B32CC    #CTA32034      202112167282-6457-40             CONNECTOR                CCN000000800000000800FN00000000020220301000000800NNED0020211126122734    2N0N  00000080000001137000001421332CC    BIYABCBU005600390040
BI00A32CH    SJ21115HMW     202111297327-6874-30             MULTI FUSE               PCN000008640000008640FN00000000020211101000008640NNM00020211126165231    4N0N  00000028800000991400001157332CH    SJSAMIJF005400370024
BI00A32CH    SJ22012 MW     202111307114-4020                TERMINAL                 CCN000063000000063000FN00000000020220101000063000NNMM0020211126162110    4P0P  00002100000000875700001169332CH    SJSAMIJF006400630015
BI00B32CH    SJ22013 MW     202112237114-4020                TERMINAL                 CCN000042000000021000FN00000000020220101000021000NNMQ0020211126155021    4P0P  00002100000000875700001169332CH    SJSAMIJF006400630015
BI00A32CH    SJ22011 MW     202111307114-4728-02             TERMINAL                 CCN000030000000030000FN00000000020220101000030000NNMM0020211126161952    4P0P  00003000000000510000000804232CH    SJSAMIJF006400630015
BI00A32CH    SJ22012 MW     202111307114-4728-02             TERMINAL                 CCN000060000000060000FN00000000020220101000060000NNMM0020211126162116    4P0P  00003000000000510000000804232CH    SJSAMIJF006400630015
BI00B32CH    SJ22013 MW     202112237114-4728-02             TERMINAL                 CCN000090000000030000FN00000000020220101000030000NNMQ0020211126155238    4P0P  00003000000000510000000804232CH    SJSAMIJF006400630015
BI00B32CH    SJ22011 MW     202112097116-4028-08             TERMINAL FEMALE          CCN000096000000048000FN00000000020220101000048000NNMQ0020211126155537    4P0P  00001600000000652800000981532CH    SJSAMIJF006400630017
BI00B32CH    SJ22011 MW     202112097116-5041-02             TERMINAL                 CCN000165000000075000FN00000000020220101000075000NNMQ0020211126160705    4P0P  00001500000000583500000868732CH    SJSAMIJF006400630015
BI00A32CH    SJ22011 MW     202111307116-5752-02             TERMINAL                 CCN000021000000021000FN00000000020220101000021000NNMM0020211126162052    4P0P  00002100000000571200000856432CH    SJSAMIJF006400630015
BI00B32CH    SJ22011 MW     202112097158-3006-90             RUBBER STOPPER           CCN000260000000140000FN00000000020220101000140000NNMQ0020211126160821    1C0C  00002000000000330600000386032CH    SJSAMIJF002700430014
BI00A32CH    SJ22013 MW     202111307114-4020                TERMINAL                 CCN000021000000021000FN00000000020220101000021000NNMM0020211126162146    4P0P  00002100000000875700001169332CH    SJSAMIJF006400630015
BI00A32CH    SJ22013 MW     202111307114-4728-02             TERMINAL                 CCN000060000000060000FN00000000020220101000060000NNMM0020211126162152    4P0P  00003000000000510000000804232CH    SJSAMIJF006400630015
BI00A32CH    SJ22011 MW     202111307116-4028-08             TERMINAL FEMALE          CCN000048000000048000FN00000000020220101000048000NNMM0020211126162012    4P0P  00001600000000652800000981532CH    SJSAMIJF006400630017
BI00A32CH    SJ22011 MW     202111307116-5041-02             TERMINAL                 CCN000090000000090000FN00000000020220101000090000NNMM0020211126162024    4P0P  00001500000000583500000868732CH    SJSAMIJF006400630015
BI00A32CH    SJ22011 MW     202111307158-3006-90             RUBBER STOPPER           CCN000120000000120000FN00000000020220101000120000NNMM0020211126162052    1C0C  00002000000000330600000386032CH    SJSAMIJF002700430014
BI00A32CJ    JQN1114        202111247289-3342-30             HOUSING FEMALE ASS'Y     PCN000002400000002400FY00000480020211101000000000NNM00020211126163949    1N0N  00000240000000686400000901432CJ    QNYHVQN 005500360039
BI00T32CJ    @JQN112F-I     202112027183-2510                HOUSING                  CCN000003000000003000FN00000000020211201000003000NNE   20211126141238    3F0F  00000300000001063500001159032CJ    QNYHVQN 005400370024
BI00T32CJ    @JQN112F-I     202112027183-3190                JOINT CONNECTOR          CCN000032400000032400FN00000000020211201000032400NNE   20211126141238    3F0F  00000360000000457600000667832CJ    QNYHVQN 005500360039
BI00T32CJ    @JQN112F-I     202112027183-7770-40             HOUSING                  CCN000006000000006000FN00000000020211201000006000NNE   20211126141238    3F0F  00000600000001011000001161032CJ    QNYHVQN 005400370024
BI00B32D1    #DFTC2151      202111297289-4200-30             HOUSING FEMALE ASS'Y     CCN000004000000004000FN00000000020211201000004000NNM00020211126154417    2N0N  00000200000000926000001021032D1    TOYOT-K 005400370024
BI00B32D2    #QA-21-C124    202112027189-2978-30             HOUSING FEMALE           PNN000007500000007500FN00000000020211201000007500NNE   20211126160822    2F0F  00000150000000966900001096932D2    TGYOT-G 005400370024
BI00B32D9    I10353         202111257283-1288-40             CONNECTOR HOUSING        CCN000012000000012000FN00001080020220101000001200NNM00020211126132333    4N0N  00000120000001382000001640732D9    UEHESTO 005600390040
BI00B32D9    I10353         202112027289-3342                HOUSING FEMALE ASS'Y     CCN000012000000012000FN00000000020220101000012000NNM00020211126132315    1N0N  00000240000000686400000901432D9    UEHESTO 005500360039
BI00B32D9    I10353         202112027327-6731-3W             BATTERY FUSE             CCN000000832000000832FN00000000020220101000000832NNM00020211126132433    4N0N  00000006400000697600000843032D9    UEHESTO 005400370024
BI00B32D9    I10353         202111267289-3342-30             HOUSING FEMALE ASS'Y     CCN000024000000024000FN00000000020220101000024000NNM00020211126132543    1N0N  00000240000000686400000901432D9    UEHESTO 005500360039
BI00B32D9    I10353         202112027289-3342-40             HOUSING FEMALE ASS'Y     CCN000004800000004800FN00000000020220101000004800NNM00020211126132306    1N0N  00000240000000686400000901432D9    UEHESTO 005500360039
BI00A32EJ    4500173646     202111297288-6547                CONNECTOR MALE ASS'Y     CCN000007500000013500FN00000000020210601000013500NNED0420211126151815EJ  4N0N  00000075000001205300001340332EJ    EJYKBO  005400370024
BI00A32EJ    4500173646     202208227288-6547                CONNECTOR MALE ASS'Y     CCN000007500000000000FY00000000020210601000000000NNED0420211126151200EJ  4N0N  00000075000001205300001340332EJ    EJYKBO  005400370024
BI00A32EJ    4500173646     202208157288-6547                CONNECTOR MALE ASS'Y     CCN000003750000000000FY00000000020210601000000000NNED0420211126151200EJ  4N0N  00000075000001205300001340332EJ    EJYKBO  005400370024
BI00B32G0    TZ22011EMW     202111307114-5748-02             TERMINAL                 CCN000048000000048000FN00000000020220101000048000NNM00020211126163813    4P0P  00001200000000444000000737632G0    TTTJY   006400630015
BI00B32G0    TZ22011EMW     202111307158-3006-90             RUBBER STOPPER           CCN000100000000100000FN00000000020220101000100000NNM00020211126163805    1C0C  00002000000000330600000386032G0    TTTJY   002700430014
BI00B32G7    JJ2201C MW     202112237116-2892-02             TERMINAL                 CCN000024000000024000FN00000000020220101000024000NNE   20211126140924    4P0P  00001200000000818400000981832G7    JIJAI   005100280028
BI00B32G7    JJ2201C MW     202112237116-4780-02             TERMINAL FEMALE          CCN000015000000015000FN00000000020220101000015000NNE   20211126140924    4P0P  00001500000000691500000985732G7    JIJAI   006400630015
BI00B32G7    JJ2201C MW     202112237116-5750-02             TERMINAL                 CCN000015000000015000FN00000000020220101000015000NNE   20211126140924    4P0P  00001500000000457500000742732G7    JIJAI   006400630015
BI00B32G7    JJ2201C MW     202112237116-5752-02             TERMINAL                 CCN000042000000042000FN00000000020220101000042000NNE   20211126140924    4P0P  00002100000000571200000856432G7    JIJAI   006400630015
BI00B32G7    JJ2201C MW     202112237116-6041                TERMINAL                 CCN000018000000018000FN00000000020220101000018000NNE   20211126140924    4P0P  00000450000000716000001009632G7    JIJAI   006400630015
BI00B32G7    JJ2201C MW     202112237116-6042                TERMINAL                 CCN000003000000003000FN00000000020220101000003000NNE   20211126140924    4P0P  00000300000000523800000856132G7    JIJAI   006400630015
BI00B32G7    JJ2201C MW     202112237126-8853-02             TERMINAL                 CCN000037500000037500FN00000000020220101000037500NNE   20211126140924    4P0P  00000750000000562500000847732G7    JIJAI   006400630015
BI00B32G7    JJ2201C MW     202112237286-1915                CONNECTOR SUB ASSY       CCN000004800000004800FN00000000020220101000004800NNE   20211126140924    4N0N  00000160000000965600001165632G7    JIJAI   005500360039
BI00B32G7    JJ2201C MW     202112237287-1915                CONNECTOR ASS'Y          CCN000004800000004800FN00000000020220101000004800NNE   20211126140924    4N0N  00000240000000666500000923132G7    JIJAI   005500360039
BI00B32G7    JJ2201C MW     202112237288-3335-30             HOUSING MALE             CCN000004500000004500FN00000000020220101000004500NNE   20211126140924    4N0N  00000150000000867000001012032G7    JIJAI   005400370024
BI00B32G7    JJ2201C MW     202112237289-3342-30             HOUSING FEMALE ASS'Y     CCN000007200000007200FN00000000020220101000007200NNE   20211126140924    1N0N  00000240000000686400000901432G7    JIJAI   005500360039
BI00B32G7    #JJ2201C MW    202112237158-3003-90             RUBBER STOPPER           CCN000060000000060000FN00000000020220101000060000NNE   20211126140907    2C0C  00002000000000250000000306032G7    JIJAI   002700430014
BI00B32G7    #JJ2201C MW    202112237158-3015-10             RUBBER STOPPER           CCN000010000000010000FN00000000020220101000010000NNE   20211126140907    2C0C  00001000000000419500000474032G7    JIJAI   002700430014
BI00B32G7    @JJ2201C MW    202112237282-1040                HOUSING SUB ASSEMBLY     CCN000002400000002400FN00000000020220101000002400NNE   20211126140916    3N0N  00000240000001014400001256032G7    JIJAI   005500360039
BI00B32G7    JJ2201CMMW     202112237196-0396-02             TERMINAL                 CCN000015000000015000FN00000000020220101000015000NNE   20211126152251    4P0P  00001500000000949500001112932G7    JIJAI   002800510028
BI00B32G7    JJ2201CMMW     202112237287-1915-40             CONNECTOR ASS'Y          CCN000004800000004800FN00000000020220101000004800NNE   20211126152251    4N0N  00000240000000666500000923132G7    JIJAI   005500360039
BI00B32G7    JJ2201CMMW     202112237287-1915-90             CONNECTOR ASS'Y          CCN000002400000002400FN00000000020220101000002400NNE   20211126152251    4N0N  00000240000000666500000923132G7    JIJAI   005500360039
BI00B32G7    JJ2201CMMW     202112237288-3332-30             HOUSING MALE             CCN000004500000004500FN00000000020220101000004500NNE   20211126152251    4N0N  00000150000000860700001005732G7    JIJAI   005400370024
BI00B32G7    JJ2201CMMW     202112237288-3338-30             HOUSING MALE             CCN000003000000003000FN00000000020220101000003000NNE   20211126152251    4N0N  00000150000000866100001012032G7    JIJAI   005400370024
BI00B32G7    JJ2201CMMW     202112237289-3342                HOUSING FEMALE ASS'Y     CCN000002400000002400FN00000000020220101000002400NNE   20211126152251    1N0N  00000240000000686400000901432G7    JIJAI   005500360039
BI00B32G7    JJ2201CMMW     202112237327-6731-3W             BATTERY FUSE             CCN000001408000001408FN00000000020220101000001408NNE   20211126152251    4N0N  00000006400000697600000843032G7    JIJAI   005400370024
BI00B32G7    JJ2201CMMW     202112237388-2978-30             HOUSING MALE ASS'Y       CCN000008640000008640FN00000000020220101000008640NNE   20211126152251    1N0N  00000048000000742000001122032G7    JIJAI   005500360039
BI00B32G7    #JJ2201CMMW    202112237189-2978-30             HOUSING FEMALE           CCN000007500000007500FN00000000020220101000007500NNE   20211126140911    2F0F  00000150000000966900001096932G7    JIJAI   005400370024
BI00B32G7    #JJ2201CMMW    202112237189-3033                HOUSING FEMALE           CCN000006400000006400FN00000000020220101000006400NNE   20211126140911    2F0F  00000160000001211200001431232G7    JIJAI   005500360039
BI00B32G7    @JJ2201CMMW    202112237287-4098                CONNECTOR FEMALE         CCN000005800000007200FN00000000020220101000007200NNE   20211126140920    3N0N  00000240000000668600000908032G7    JIJAI   005500360039
BI00B32G8    PATA2011B      202112087470-5946                J/B COMPLETE ASS'Y       CCN000000100000000100FN00000000020201101000000100NNE   20211126135903    4J0J  00000001000000494000000661032G8    PSPASI  005400370024
BI00B32H0    TT22011DMW     202111307158-3006-90             RUBBER STOPPER           CCN000040000000040000FN00000000020220101000040000NNM00020211126163912    1C0C  00002000000000330600000386032H0    TTTJY   002700430014
BI00B32H0    TT22011VMW     202111307158-3006-90             RUBBER STOPPER           CCN000040000000040000FN00000000020220101000040000NNM00020211126163950    1C0C  00002000000000330600000386032H0    TTTJY   002700430014
BI00A32H0    TT2112FVMW     202112037327-6950-30             MULTI FUSE               CCN000000288000000288FN00000000020211201000000288NNED0020211126144317    4N00  00000028800000888700001054632H0    TTTJY   005400370024
BI00A32H2    TIJ1114        202111247289-6547                HOUSING FEMALE ASS'Y     PCN000007200000007200FY00000720020211101000000000NNM00020211126131247    1N0N  00000240000001152000001362032H2    HVYHV   005500360039
BI00B32H2    TIJ1122        202111297158-3006-90             RUBBER STOPPER           CCN000120000000120000FN00000000020211201000120000NNM00020211126122734    1C0C  00002000000000330600000386032H2    HVYHV   002700430014
BI00B32H2    TIJ1123        202111297158-3006-90             RUBBER STOPPER           CCN000100000000100000FN00000000020211201000100000NNM00020211126122734    1C0C  00002000000000330600000386032H2    HVYHV   002700430014
BI00B32H2    TIJ1123        202111297158-3009-60             RUBBER STOPPER           CCN000160000000160000FN00000000020211201000160000NNM00020211126122734    1C0C  00002000000000338000000386232H2    HVYHV   002700430014
BI00B32H2    TIJ1122        202111297196-1103-02             TERMINAL                 CCN000180000000180000FN00000000020211201000180000NNM00020211126122734    4P0P  00002250000000429800000715032H2    HVYHV   006400630015
BI00B32H2    TIJ1123        202111297196-1103-02             TERMINAL                 CCN000022500000022500FN00000000020211201000022500NNM00020211126122734    4P0P  00002250000000429800000715032H2    HVYHV   006400630015
BI00B32H2    TIJ1123        202111297196-1104-02             TERMINAL                 CCN000045000000045000FN00000000020211201000045000NNM00020211126122734    4P0P  00002250000000441000000726232H2    HVYHV   006400630015
BI00B32H2    #TIJ112D       202111297172-5630-40             RUBBER STOPPER           CCN000040000000040000FN00000000020211201000040000NNE00020211126122734    2H0H  00002000000000044000000095132H2    HVYHV   004300270014
BI00B32H2    #TIJ112H       202111297172-5630-40             RUBBER STOPPER           CCN000040000000040000FN00000000020211201000040000NNE00020211126122734    2H0H  00002000000000044000000095132H2    HVYHV   004300270014
BI00B32H2    TIJ112J        202111297196-1104-02             TERMINAL                 CCN000022500000022500FN00000000020211201000022500NNE00020211126122734    4P0P  00002250000000441000000726232H2    HVYHV   006400630015
BI00B32H2    TIJ201L        202112177196-1482-02             TERMINAL FEMALE          CCN000024000000024000FN00000000020220101000024000NNE   20211126122734    4P0P  00002400000000424800000710032H2    HVYHV   006400630015
BI00B32H2    TIJ201L        202112177273-2982-0W             CASSETTE BRACKET         CCN000000600000000600FN00000000020220101000000600NNE   20211126122734    4N0N  00000060000000526000000726032H2    HVYHV   005500360039
BI00B32H2    TIJ201L        202112177470-5304                J/B COMPLETE ASS'Y       CCN000000600000000600FN00000000020220101000000600NNE   20211126122734    4J0J  00000001000000494000000661032H2    HVYHV   005400370024
BI00B32H2    TIJ201M        202112247116-3154-08             TERMINAL                 CCN000027000000027000FN00000000020220101000027000NNE   20211126122734    4P0P  00002700000000475200000760432H2    HVYHV   006400630015
BI00B32H8    TY21124KMW     202112037196-1103-02             TERMINAL                 CCN000045000000045000FN00000000020211201000045000NNM00020211126164410    4P0P  00002250000000429800000715032H8    TYTYC   006400630015
BI00B32J1    388034         202111297327-6890-3W             BATTERY FUSE             CCN000001224000001224FN00000000020211101000001224NNMD0020211126122734    4N0N  00000007200001140800001355632J1    UKYEL-BL005500360039
BI00B32J1    388280         202111297327-6890-3W             BATTERY FUSE             CCN000000432000000432FN00000000020211201000000432NNMD0020211126122734    4N0N  00000007200001140800001355632J1    UKYEL-BL005500360039
BI00B32J1    388785         202201107158-3070-80             RUBBER STOPPER           CCN000040000000040000FN00000000020220101000040000NNE   20211126122734    1C0C  00004000000000276000000333332J1    UKYEL-BL002700430014
BI00B32J1    388785         202201107283-1968-30             CONNECTOR                CCN000000900000000900FN00000000020220101000000900NNE   20211126122734    1N0N  00000090000001140000001318332J1    UKYEL-BL005600390040
BI00B32J1    388785         202201107283-5846                HOUSING                  CCN000001500000001500FN00000000020220101000001500NNE   20211126122734    1N0N  00000150000000885000001102032J1    UKYEL-BL005600390040
BI00B32J1    #388785        202201107158-3374-90             CONNECTOR WIRE SEAL      CCN000020000000020000FN00000000020220101000020000NNE   20211126122734    2H0H  00002000000000172000000229332J1    UKYEL-BL002700430014
BI00B32J1    388784         202201047282-6568-40             CONNECTOR                CCN000001000000001000FN00000000020220101000001000NNE   20211126122734    4N0N  00000100000001206000001370732J1    UKYEL-BL005500360039
BI00B32J1    #388784        202201047158-3374-90             CONNECTOR WIRE SEAL      CCN000020000000020000FN00000000020220101000020000NNE   20211126122734    2H0H  00002000000000172000000229332J1    UKYEL-BL002700430014
BI00B32J1    #388784        202201047158-3376-50             CONNECTOR WIRE SEAL      CCN000020000000020000FN00000000020220101000020000NNE   20211126122734    2C0C  00002000000000184000000240732J1    UKYEL-BL002700430014
BI00B32J1    388754         202112207114-1475                TERMINAL                 CCN000013500000013500FN00000000020211201000013500NNM   20211126122734    4P0P  00001350000000480600000774232J1    UKYEL-BL006400630015
BI00B32J1    388754         202112207114-4231-02             TERMINAL                 CCN000018000000018000FN00000000020211201000018000NNM   20211126122734    4P0P  00001800000000554400000848032J1    UKYEL-BL006400630015
BI00B32J1    388754         202112207116-4020                TERMINAL                 CCN000256500000256500FN00000000020211201000256500NNM   20211126122734    4P0P  00001350000000513000000798232J1    UKYEL-BL006400630015
BI00B32J1    388754         202112207116-5045-02             TERMINAL                 CCN000016000000016000FN00000000020211201000016000NNM   20211126122734    4P0P  00001600000000678400001007132J1    UKYEL-BL006400630017
BI00B32J1    388754         202112207116-6042                TERMINAL                 CCN000012000000012000FN00000000020211201000012000NNM   20211126122734    4P0P  00000300000000523800000856132J1    UKYEL-BL006400630015
BI00B32J1    388754         202112207126-8851-02             TERMINAL                 CCN000009000000009000FN00000000020211201000009000NNM   20211126122734    1P0P  00000900000000739800001025032J1    UKYEL-BL006400630015
BI00B32J1    388754         202112207158-3070-80             RUBBER STOPPER           CCN000080000000080000FN00000000020211201000080000NNM   20211126122734    1C0C  00004000000000276000000333332J1    UKYEL-BL002700430014
BI00B32J1    388754         202112207158-3165-90             WIRE SEAL                CCN000040000000040000FN00000000020211201000040000NNM   20211126122734    1C0C  00004000000000124000000172432J1    UKYEL-BL004300270014
BI00B32J1    388754         202112207158-3166-60             WIRE SEAL                CCN002160000002160000FN00000000020211201002160000NNM   20211126122734    1C0C  00004000000000104000000152432J1    UKYEL-BL002700430014
BI00B32J1    388754         202112207158-3167-80             WIRE SEAL                CCN002640000002640000FN00000000020211201002640000NNM   20211126122734    1C0C  00002000000000048000000109032J1    UKYEL-BL002700430014
BI00B32J1    388754         202112207158-3168-80             SEALED                   CCN001140000001140000FN00000000020211201001140000NNM   20211126122734    1C0C  00002000000000044000000092132J1    UKYEL-BL004300260014
BI00B32J1    388754         202112207282-5574-10             CONNECTOR                CCN000015200000015200FN00000000020211201000015200NNM   20211126122734    4N0N  00000080000001235000001423032J1    UKYEL-BL005600390040
BI00B32J1    388754         202112207282-6448-40             CONNECTOR                CCN000004000000004000FN00000000020211201000004000NNM   20211126122734    4N0N  00000080000000887000001152732J1    UKYEL-BL005600390040
BI00B32J1    388754         202112207283-1040                CONNECTOR                CCN000020000000020000FN00000000020211201000020000NNM   20211126122734    4N0N  00000200000000396000000670032J1    UKYEL-BL005600390040
BI00B32J1    388754         202112207283-1968-30             CONNECTOR                CCN000000900000000900FN00000000020211201000000900NNM   20211126122734    1N0N  00000090000001140000001318332J1    UKYEL-BL005600390040
BI00B32J1    388754         202112207283-5545-10             CONNECTOR                CCN000007200000007200FN00000000020211201000007200NNM   20211126122734    4N0N  00000060000001279000001409232J1    UKYEL-BL005600390040
BI00B32J1    388754         202112207283-5830                CONNECTOR                CCN000006000000006000FN00000000020211201000006000NNM   20211126122734    1N47  00000600000000954000001104032J1    UKYEL-BL005500360039
BI00B32J1    388754         202112207288-7969                HYBRID MALE ASS'Y        CCN000013120000013120FN00000000020211201000013120NNM   20211126122734    1N0N  00000032000000876200001101732J1    UKYEL-BL005400370024
BI00B32J1    388754         202112207289-5000                HOUSING FEMALE ASS'Y     CCN000001216000001216FN00000000020211201000001216NNM   20211126122734    1N0N  00000030400000549000000759032J1    UKYEL-BL005400370024
BI00B32J1    #388754        202112207047-5344                RETAINER                 CCN000080000000080000FN00000000020211201000080000NNM   20211126122734    2F0F  00001000000000870000001016032J1    UKYEL-BL005600390023
BI00B32J1    #388754        202112207147-8717-30             CLIP                     CCN000005000000005000FN00000000020211201000005000NNM   20211126122734    2F0F  00000500000000660000000875032J1    UKYEL-BL005600390040
BI00B32J1    #388754        202112207157-3821                RUBBER STOPPER           CCN000040000000040000FN00000000020211201000040000NNM   20211126122734    2C0C  00002000000000176000000238032J1    UKYEL-BL002700430014
BI00B32J1    #388754        202112207158-3003-90             RUBBER STOPPER           CCN000080000000080000FN00000000020211201000080000NNM   20211126122734    2C0C  00002000000000250000000306032J1    UKYEL-BL002700430014
BI00B32J1    #388754        202112207158-3120-90             CONNECTOR WIRE SEAL      CCN000240000000240000FN00000000020211201000240000NNM   20211126122734    2C0C  00002000000000136000000194032J1    UKYEL-BL002700430014
BI00B32J1    #388754        202112207174-1515                FRONT DOOR COVER         CCN000014400000014400FN00000000020211201000014400NNM   20211126122734    2F0F  00000060000000490200000610232J1    UKYEL-BL005500360039
BI00B32J1    #388754        202112207282-3243-40             CONNECTOR                CCN000029600000029600FN00000000020211201000029600NNM   20211126122734    2N0N  00000080000001006000001282332J1    UKYEL-BL005600390040
BI00B32J1    #388754        202112207282-5545-10             CONNECTOR                CCN000002400000002400FN00000000020211201000002400NNM   20211126122734    2N0N  00000080000001293600001465332J1    UKYEL-BL005500360039
BI00B32J1    #388754        202112207282-6446-40             CONNECTOR                CCN000006000000006000FN00000000020211201000006000NNM   20211126122734    2N0N  00000150000001185000001368032J1    UKYEL-BL005500360039
BI00B32J1    #388754        202112207282-8395-40             CONNECTOR                CCN000002000000002000FN00000000020211201000002000NNM   20211126122734    2N0N  00000100000001009000001188032J1    UKYEL-BL005500360039
BI00B32J1    #388754        202112207283-4192-40             CONNECTOR                CCN000006240000006240FN00000000020211201000006240NNM   20211126122734    2N0N  00000024000000846000000986032J1    UKYEL-BL005600390040
BI00B32J1    #388754        202112207283-8397-40             CONNECTOR                CCN000007700000007700FN00000000020211201000007700NNM   20211126122734    2N0N  00000154000001007000001222732J1    UKYEL-BL005600390023
BI00B32K8    #K1210013027   202112247137-2718-50             SEALED CONNECTOR         CCN000007000000007000FN00000000020210201000007000NNM   20211126122734    2C0C  00000100000000118300000236632K8    ELELCOM 002700430014
BI00B32M1    TCV111E        202112237196-1933-02             TERMINAL FEMALE          CCN000021000000021000FN00000000020211101000021000NNED0720211126163407    4P0P  00002100000000670800000000032M1    VNYEV   006400630015
BI00B32M1    TCV111E        202112237196-1938-02             TERMINAL FEMALE          CCN000005000000013500FN00000000020211101000013500NNED0720211126163407    4P0P  00001350000000507600000795832M1    VNYEV   006400630015
BI00A32M8    PM21113 MW     202111247116-3154-02             TERMINAL FEMALE          PCN000648000000648000FY00064800020211101000000000NNM00020211126131419    4P0P  00002700000000469800000755032M8    PMPEMI  006400630015
BI00B32M8    #PM21123 MW    202111267158-3007-10             RUBBER STOPPER           CCN000060000000060000FN00000000020211201000060000NNM00020211126132638    2H0H  00002000000000308000000362732M8    PMPEMI  002700430014
BI00B32N1    #NST2113B-1    202112167282-3020                CONNECTOR                CCN000001000000001000FN00000000020220101000001000NNE   20211126152307    2N0N  00000100000000984000001145432N1    TAYIPL  005500360039
BI00B32N1    NST2113B-2     202112167116-6041                TERMINAL                 CCN000004370000004500FN00000000020220101000004500NNE   20211126152735    4P0P  00000450000000716000001009632N1    TAYIPL  006400630015
BI00B32N1    NST2113B-2     202112167126-8853-02             TERMINAL                 CCN000002170000007500FN00000000020220101000007500NNE   20211126152735    4P0P  00000750000000562500000847732N1    TAYIPL  006400630015
BI00B32N1    NST2113B-2     202112167126-8854-02             TERMINAL                 CCN000026040000030000FN00000000020220101000030000NNE   20211126152735    4P0P  00000750000000604500000889732N1    TAYIPL  006400630015
BI00B32N1    NST2113B-2     202112167126-8855-02             TERMINAL                 CCN000023300000024000FN00000000020220101000024000NNE   20211126152735    4P0P  00000600000000510600000795832N1    TAYIPL  006400630015
BI00B32N1    #NST2113B-2    202112167282-8395-40             CONNECTOR                CCN000007000000007000FN00000000020220101000007000NNE   20211126152731    2N0N  00000100000001009000001188032N1    TAYIPL  005500360039
BI00B32N1    @NST2113B-2    202112167283-1100                CONNECTOR ASS'Y          CCN000001600000001600FN00000000020220101000001600NNE   20211126152733    3N0N  00000160000000566500000799632N1    TAYIPL  005500360039
BI00B32P8    TAPI-1124      202112017158-3009-60             RUBBER STOPPER           CCN000220000000220000FN00000000020211201000220000NNM00020211126131921    1C0C  00002000000000338000000386232P8    YIYTM   002700430014
BI00B32P8    TAPI-1124      202112017196-1103-02             TERMINAL                 CCN000270000000270000FN00000000020211201000270000NNM00020211126131935    4P0P  00002250000000429800000715032P8    YIYTM   006400630015
BI00B32P8    TAPI-1124      202112017196-1104-02             TERMINAL                 CCN000135000000135000FN00000000020211201000135000NNM00020211126131948    4P0P  00002250000000441000000726232P8    YIYTM   006400630015
BI00B32P8    TAPI-1124      202112017196-1461-02             TERMINAL FEMALE          CCN000096000000096000FN00000000020211201000096000NNM00020211126132003    4P0P  00002400000000386400000671632P8    YIYTM   006400630015
BI00B32P8    TAPI-1124      202112017283-4855                CONNECTOR HOUSING        CCN000002400000002400FN00000000020211201000002400NNM00020211126132011    4N0N  00000240000001188400001400032P8    YIYTM   005500360039
BI00B32P8    TAPI-1123      202111247298-1865-30             HOUSING FEMALE ASS'Y     CCN000011400000012000FY00001200020211201000000000NNM00020211126132139    4N0N  00000240000001003200001204532P8    YIYTM   005500360039
BI00A32P8    #TAPI-1122     202111257289-4200-30             HOUSING FEMALE ASS'Y     PCN000006000000006000FN00000600020211201000000000NNM00020211126131550    2N0N  00000200000000926000001021032P8    YIYTM   005400370024
BI00B32P8    TAPI-108F      202111247298-5955                CONNECTOR SUB ASSY       CCN000007200000007200FY00000720020211101000000000NNED0620211126132218    4N0N  00000720000001029600001253032P8    YIYTM   005500360039
BI00A32Q8    EU21124TMW     202111237286-3885-40             CONNECTOR MALE ASS'Y     CCN000002400000002400FY00000240020211201000000000NNM00020211126131715    1N0N  00000120000000910600001130632Q8    EMEMI   005500360039
BI00B32R7    R-TAP210582    202201067298-1186-40             SQUIB SUB ASS'Y          CCN000040000000040000FN00000000020220101000040000NNE   20211126122734    4N0N  00001000000000650000000774532R7    IVYCIC  005400370024
BI00B32R7    R-TAP210583    202112097116-4120-02             TERMINAL                 CCN000030000000030000FN00000000020211201000030000NNE   20211126122734    4P0P  00000600000000780000001073632R7    IVYCIC  006400630015
BI00B32R7    R-TAP210583    202112097116-4122-02             TERMINAL                 CCN000067500000067500FN00000000020211201000067500NNE   20211126122734    4P0P  00000450000000656600000950232R7    IVYCIC  006400630015
BI00B32R7    R-TAP210584    202112097116-4121-02             TERMINAL                 CCN000018000000018000FN00000000020211201000018000NNE   20211126122734    4P0P  00000450000000618800000912432R7    IVYCIC  006400630015
BI00B32R7    #R-TAP210585   202112097283-8397-40             CONNECTOR                CCN000007700000007700FN00000000020211201000007700NNE   20211126122734    2N0N  00000154000001007000001222732R7    IVYCIC  005600390023
BI00B32R7    R-TAP210586    202112097116-1685-02             TERMINAL                 CCN000024000000024000FN00000000020211201000024000NNE   20211126122734    4P0P  00002400000000897600001065232R7    IVYCIC  005100280028
BI00B32R7    R-TAP210586    202112097126-8851-02             TERMINAL                 CCN000072000000072000FN00000000020211201000072000NNE   20211126122734    1P0P  00000900000000739800001025032R7    IVYCIC  006400630015
BI00B32R7    R-TAP210587    202112167116-1471                TERMINAL                 CCN000015000000015000FN00000000020220101000015000NNE   20211126122734    4P0P  00001500000000579000000867232R7    IVYCIC  006400630015
BI00B32R7    R-TAP210587    202112167116-1685-02             TERMINAL                 CCN000024000000024000FN00000000020220101000024000NNE   20211126122734    4P0P  00002400000000897600001065232R7    IVYCIC  005100280028
BI00B32R7    R-TAP210587    202112167116-1686-02             TERMINAL                 CCN000021000000021000FN00000000020220101000021000NNE   20211126122734    4P0P  00002100000000869400001021632R7    IVYCIC  005100280028
BI00B32R7    R-TAP210587    202112167126-8851-02             TERMINAL                 CCN000027000000027000FN00000000020220101000027000NNE   20211126122734    1P0P  00000900000000739800001025032R7    IVYCIC  006400630015
BI00B32R7    R-TAP210587    202112167283-1968-30             CONNECTOR                CCN000000900000000900FN00000000020220101000000900NNE   20211126122734    1N0N  00000090000001140000001318332R7    IVYCIC  005600390040
BI00B32R8    TT22011AMW     202111307158-3006-90             RUBBER STOPPER           CCN000040000000040000FN00000000020220101000040000NNM00020211126164511    1C0C  00002000000000330600000386032R8    TTTJY   002700430014
BI00B32W4    4500183339     202112167283-1156                CONNECTOR                CCN000020000000020000FN00000000020220101000020000NNED0020211126142038W4164N0N  00000080000000877600001078032W416  HJYHK   005600390040
BI00B32W4    #4500184219    202112167282-4190-30             CONNECTOR                CCN000007680000007680FN00000000020220101000007680NNED0020211126144948W4162N0N  00000024000000801000001071332W416  HJYHK   005600390040
BI00B32W4    4500184518     202202107287-1917                CONNECTOR FEMALE         CCN000019200000004800FN00000000020220101000004800NNED0220211126122734W4K84N0N  00000240000001060800001312532W4K8  HJYHK-J 005500360039
BI00A32W4    4500184627     202201247283-7028-30             CONNECTOR                CCN000003000000003000FN00000000020220101000003000NNE   20211126122734W4N24N0N  00000300000001452000001681332W4N2  HJYHK-J 005600390040
BI00B32W4    4500184518     202203037287-1917                CONNECTOR FEMALE         CCN000014400000014400FN00000000020220101000014400NNED0220211126122734W4K84N0N  00000240000001060800001312532W4K8  HJYHK-J 005500360039
BI00A32W4    4500184628     202112277114-4112-02             TERMINAL                 CCN000009000000009000FN00000000020211201000009000NNE   20211126131004W4N24P0P  00000900000000598500000927132W4N2  HJYHK-J 006400630017
BI00A32W4    4500184630     202201207114-4100-02             TERMINAL                 CCN000450000000450000FN00000000020220101000450000NNE   20211126131038W4M94P0P  00001800000000748800001077432W4M9  HJYHK-J 006400630017
BI00B32W4    4500184633     202112237116-4022                TERMINAL                 CCN000189000000189000FN00000000020211201000189000NNE   20211126131432W4514P0P  00001350000000618300000903532W451  HJ32W9  006400630015
BI00B32W4    4500184633     202112237116-4231-02             TERMINAL                 CCN000442000000442000FN00000000020211201000442000NNE   20211126131432W4514P0P  00002600000000683800001012532W451  HJ32W9  006400630017
BI00B32W4    4500184633     202112237158-3168-80             SEALED                   CCN000040000000040000FN00000000020211201000040000NNE   20211126131432W4511C0C  00002000000000044000000092132W451  HJ32W9  004300260014
BI00B32W4    4500184633     202112237282-1248                HOUSING SUB ASSEMBLY     CCN000003600000003600FN00000000020211201000003600NNE   20211126131432W4511N0N  00000060000001167000001372032W451  HJ32W9  005500360039
BI00B32W4    #4500184633    202112237157-3821                RUBBER STOPPER           CCN000080000000080000FN00000000020211201000080000NNE   20211126131420W4512C0C  00002000000000176000000238032W451  HJ32W9  002700430014
BI00B32W4    #4500184633    202112237158-3121-80             WIRE SEAL                CCN000040000000040000FN00000000020211201000040000NNE   20211126131420W4512C0C  00002000000000118000000187332W451  HJ32W9  002700430014
BI00B32W4    #4500184633    202112237183-2415-40             CONNECTOR HOUSING        CCN000019200000019200FN00000000020211201000019200NNE   20211126131420W4512F0F  00000480000000798200001091432W451  HJ32W9  005500360039
BI00B32W4    #4500184633    202112237282-6458-40             CONNECTOR                CCN000001000000001000FN00000000020211201000001000NNE   20211126131420W4512N0N  00000100000001206000001350532W451  HJ32W9  005500360039
BI00B32W4    @4500184633    202112237183-8049                CONNECTOR HOUSING        CCN000040000000040000FN00000000020211201000040000NNE   20211126131425W4513F0F  00000400000000583600000740032W451  HJ32W9  005400370024
BI00B32W4    @4500184633    202112237283-1061                CONNECTOR SUB ASSY       CCN000007200000007200FN00000000020211201000007200NNE   20211126131425W4513N0N  00000240000000829700001065032W451  HJ32W9  005500360039
BI00A32W4    4500184653     202201247158-3166-60             WIRE SEAL                CCN000040000000040000FN00000000020220101000040000NNE   20211126131805W4141C0C  00004000000000104000000152432W414  HJYHK   002700430014
BI00A32W4    4500184653     202201247116-1473                TERMINAL                 CCN000013500000013500FN00000000020220101000013500NNE   20211126131805W4144P0P  00001350000000523800000809032W414  HJYHK   006400630015
BI00A32W4    4500184653     202201247158-3169-40             SEALING PLUG             CCN000040000000040000FN00000000020220101000040000NNE   20211126131805W4141C0C  00004000000000156000000204132W414  HJYHK   004300260014
BI00B32W4    4500184677     202201067289-9553-50             SEALED ASSY FEMALE       CCN000002940000002940FN00000000020220101000002940NNE   20211126131838W4D44N0N  00000294000001108100001520632W4D4  HJYHK-J 005500360039
BI00B32W4    4500184677     202201067287-9323                UNSEALED HOUSING SUB     CCN000002400000002400FN00000000020220101000002400NNE   20211126131838W4D41N0N  00000240000000537600000690032W4D4  HJYHK-J 005600390023
BI00B32W4    4500184677     202201067289-3342-30             HOUSING FEMALE ASS'Y     CCN000012000000012000FN00000000020220101000012000NNE   20211126131838W4D41N0N  00000240000000686400000901432W4D4  HJYHK-J 005500360039
BI00B32W4    4500184677     202201067286-4097                CONNECTOR MALE ASS'Y     CCN000001600000001600FN00000000020220101000001600NNE   20211126131838W4D41N0N  00000160000000768000000978032W4D4  HJYHK-J 005500360039
BI00B32W4    4500184677     202201067289-3342-90             HOUSING FEMALE ASS'Y     CCN000004800000004800FN00000000020220101000004800NNE   20211126131838W4D41N0N  00000240000000686400000901432W4D4  HJYHK-J 005500360039
BI00B32W4    4500184677     202201067388-2978-30             HOUSING MALE ASS'Y       CCN000001440000001440FN00000000020220101000001440NNE   20211126131838W4D41N0N  00000048000000742000001122032W4D4  HJYHK-J 005500360039
BI00B32W4    4500184677     202201067288-5000                HOUSING MALE ASS'Y       CCN000000336000000336FN00000000020220101000000336NNE   20211126131838W4D41N0N  00000033600000825200001035232W4D4  HJYHK-J 005400370024
BI00B32W4    4500184677     202201067289-6547                HOUSING FEMALE ASS'Y     CCN000002400000002400FN00000000020220101000002400NNE   20211126131838W4D41N0N  00000240000001152000001362032W4D4  HJYHK-J 005500360039
BI00B32W4    4500184677     202201067289-3342                HOUSING FEMALE ASS'Y     CCN000004800000004800FN00000000020220101000004800NNE   20211126131838W4D41N0N  00000240000000686400000901432W4D4  HJYHK-J 005500360039
BI00B32W4    4500184677     202201067288-6547                CONNECTOR MALE ASS'Y     CCN000000750000000750FN00000000020220101000000750NNE   20211126131838W4D44N0N  00000075000001205300001340332W4D4  HJYHK-J 005400370024
BI00B32W4    4500184677     202201067289-5000                HOUSING FEMALE ASS'Y     CCN000000304000000304FN00000000020220101000000304NNE   20211126131838W4D41N0N  00000030400000549000000759032W4D4  HJYHK-J 005400370024
BI00B32W4    4500184677     202201067289-3342-40             HOUSING FEMALE ASS'Y     CCN000002400000002400FN00000000020220101000002400NNE   20211126131838W4D41N0N  00000240000000686400000901432W4D4  HJYHK-J 005500360039
BI00B32W4    #4500184677    202201067189-2978-30             HOUSING FEMALE           CCN000001500000001500FN00000000020220101000001500NNE   20211126131833W4D42F0F  00000150000000966900001096932W4D4  HJYHK-J 005400370024
BI00B32W4    #4500184677    202201067174-1164                COVER                    CCN000000800000000800FN00000000020220101000000800NNE   20211126131833W4D42F0F  00000080000000592000000712032W4D4  HJYHK-J 005500360039
BI00B32W4    4500184682     202201227116-1685-02             TERMINAL                 CCN000192000000192000FN00000000020220101000192000NNE   20211126131907W4594P0P  00002400000000897600001065232W459  HJYHK   005100280028
BI00B32W4    4500184682     202201227126-8853-02             TERMINAL                 CCN000292500000292500FN00000000020220101000292500NNE   20211126131907W4594P0P  00000750000000562500000847732W459  HJYHK   006400630015
BI00B32W4    4500184682     202201227126-8854-02             TERMINAL                 CCN000195000000195000FN00000000020220101000195000NNE   20211126131907W4594P0P  00000750000000604500000889732W459  HJYHK   006400630015
BI00B32W4    4500184682     202201227126-8855-02             TERMINAL                 CCN000234000000234000FN00000000020220101000234000NNE   20211126131907W4594P0P  00000600000000510600000795832W459  HJYHK   006400630015
BI00B32W4    4500184682     202201227116-2892-02             TERMINAL                 CCN000096000000096000FN00000000020220101000096000NNE   20211126131907W4594P0P  00001200000000818400000981832W459  HJYHK   005100280028
BI00B32W4    4500184682     202201227116-2893-02             TERMINAL                 CCN000180000000180000FN00000000020220101000180000NNE   20211126131907W4594P0P  00001200000000895200001058632W459  HJYHK   005100280028
BI00B32W4    4500184682     202201227116-1686-02             TERMINAL                 CCN000105000000105000FN00000000020220101000105000NNE   20211126131907W4594P0P  00002100000000869400001021632W459  HJYHK   005100280028
BI00B32W4    #4500184682    202201227283-8226                CONNECTOR                CCN000002000000002000FN00000000020220101000002000NNE   20211126131902W4592N0N  00000200000000820000001008032W459  HJYHK   005400370024
BI00B32W4    4500184686     202201207158-3006-90             RUBBER STOPPER           CCN000020000000020000FN00000000020220101000020000NNE   20211126131933W4591C0C  00002000000000330600000386032W459  HJYHK   002700430014
BI00B32W4    4500184691     202201277288-6547                CONNECTOR MALE ASS'Y     CCN000052500000052500FN00000000020220101000052500NNE   20211126132029W4164N0N  00000075000001205300001340332W416  HJYHK   005400370024
BI00B32W4    4500184691     202201277283-1024                CONNECTOR SUB ASSY       CCN000020000000020000FN00000000020220101000020000NNE   20211126132029W4164N0N  00000200000000400000000522532W416  HJYHK   005400370024
BI00B32W4    4500184691     202201277282-1024                HOUSING MALE             CCN000021000000021000FN00000000020220101000021000NNE   20211126132029W4161N0N  00000100000000458000000580532W416  HJYHK   005400370024
BI00B32W4    4500184691     202201277283-1030                CONNECTOR                CCN000024000000024000FN00000000020220101000024000NNE   20211126132029W4164N0N  00000600000000988000001172032W416  HJYHK   005500360039
BI00B32W4    4500184691     202201277116-4100-02             TERMINAL                 CCN000120000000120000FN00000000020220101000120000NNE   20211126132029W4164P0P  00001500000000696000000990232W416  HJYHK   006400630015
BI00B32W4    4500184691     202201277116-4121-02             TERMINAL                 CCN000004500000004500FN00000000020220101000004500NNE   20211126132029W4164P0P  00000450000000618800000912432W416  HJYHK   006400630015
BI00B32W4    4500184691     202201277116-4112-02             TERMINAL                 CCN000024000000024000FN00000000020220101000024000NNE   20211126132029W4164P0P  00000600000000450000000738232W416  HJYHK   006400630015
BI00B32W4    4500184691     202201277116-4102-02             TERMINAL                 CCN000036000000036000FN00000000020220101000036000NNE   20211126132029W4164P0P  00001200000000553200000841432W416  HJYHK   006400630015
BI00B32W4    4500184691     202201277114-4100-02             TERMINAL                 CCN000072000000072000FN00000000020220101000072000NNE   20211126132029W4164P0P  00001800000000748800001077432W416  HJYHK   006400630017
BI00B32W4    4500184691     202201277116-4026                TERMINAL                 CCN000016000000016000FN00000000020220101000016000NNE   20211126132029W4164P0P  00001600000000664000000994332W416  HJYHK   006400630017
BI00B32W4    4500184691     202201277283-1156                CONNECTOR                CCN000010400000010400FN00000000020220101000010400NNE   20211126132029W4164N0N  00000080000000877600001078032W416  HJYHK   005600390040
BI00B32W4    4500184691     202201277289-6547                HOUSING FEMALE ASS'Y     CCN000009600000009600FN00000000020220101000009600NNE   20211126132029W4161N0N  00000240000001152000001362032W416  HJYHK   005500360039
BI00B32W4    4500184691     202201277126-8853-02             TERMINAL                 CCN000007500000007500FN00000000020220101000007500NNE   20211126132029W4164P0P  00000750000000562500000847732W416  HJYHK   006400630015
BI00B32W4    4500184691     202201277116-4101-02             TERMINAL                 CCN000036000000036000FN00000000020220101000036000NNE   20211126132029W4164P0P  00001200000000582000000876232W416  HJYHK   006400630015
BI00B32W4    4500184691     202201277114-4101-02             TERMINAL                 CCN000015000000015000FN00000000020220101000015000NNE   20211126132029W4164P0P  00001500000000675000001003632W416  HJYHK   006400630017
BI00B32W4    4500184691     202201277116-4104-02             TERMINAL                 CCN000036000000036000FN00000000020220101000036000NNE   20211126132029W4164P0P  00001200000000580800000972432W416  HJYHK   006400630015
BI00B32W4    4500184691     202201277116-4103-02             TERMINAL                 CCN000012000000012000FN00000000020220101000012000NNE   20211126132029W4164P0P  00001200000000571200000859432W416  HJYHK   006400630015
BI00B32W4    #4500184691    202201277187-1616                HOUSING FEMALE           CCN000012000000012000FN00000000020220101000012000NNE   20211126132002W4162F0F  00000400000001152000001262032W416  HJYHK   005500360039
BI00B32W4    #4500184691    202201277282-4190-30             CONNECTOR                CCN000001920000001920FN00000000020220101000001920NNE   20211126132002W4162N0N  00000024000000801000001071332W416  HJYHK   005600390040
BI00B32W4    #4500184691    202201277283-4190-30             CONNECTOR                CCN000003360000003360FN00000000020220101000003360NNE   20211126132002W4162N0N  00000024000000846000001115532W416  HJYHK   005600390040
BI00B32W4    #4500184691    202201277158-3003-90             RUBBER STOPPER           CCN000020000000020000FN00000000020220101000020000NNE   20211126132002W4162C0C  00002000000000250000000306032W416  HJYHK   002700430014
BI00B32W4    #4500184691    202201277158-3004-40             RUBBER STOPPER           CCN000020000000020000FN00000000020220101000020000NNE   20211126132002W4162C0C  00002000000000234000000306332W416  HJYHK   002700430014
BI00B32W4    @4500184691    202201277287-6634                HOUSING FEMALE ASS'Y     CCN000004800000004800FN00000000020220101000004800NNE   20211126132021W4163N0N  00000240000001088400001337032W416  HJYHK   005500360039
BI00B32W4    4500184692     202201137116-4100-02             TERMINAL                 CCN000345000000345000FN00000000020220101000345000NNE   20211126132053W46 4P0P  00001500000000696000000990232W46   HJYHK   006400630015
BI00B32W4    4500184692     202201137114-4112-02             TERMINAL                 CCN000099000000099000FN00000000020220101000099000NNE   20211126132053W46 4P0P  00000900000000598500000927132W46   HJYHK   006400630017
BI00B32W4    4500184692     202201137116-4111-02             TERMINAL                 CCN000300000000300000FN00000000020220101000300000NNE   20211126132053W46 4P0P  00000750000000529500000817732W46   HJYHK   006400630015
BI00B32W4    4500184692     202201137116-4112-02             TERMINAL                 CCN000300000000300000FN00000000020220101000300000NNE   20211126132053W46 4P0P  00000600000000450000000738232W46   HJYHK   006400630015
BI00B32W4    4500184693     202112167116-4100-02             TERMINAL                 CCN001140000001140000FN00000000020211201001140000NNE   20211126132125W46 4P0P  00001500000000696000000990232W46   HJYHK   006400630015
BI00B32W4    4500184693     202112167114-4112-02             TERMINAL                 CCN000153000000153000FN00000000020211201000153000NNE   20211126132125W46 4P0P  00000900000000598500000927132W46   HJYHK   006400630017
BI00B32W4    4500184693     202112167116-4111-02             TERMINAL                 CCN011925000011925000FN00000000020211201011925000NNE   20211126132125W46 4P0P  00000750000000529500000817732W46   HJYHK   006400630015
BI00B32W4    4500184693     202112167116-4112-02             TERMINAL                 CCN001194000001194000FN00000000020211201001194000NNE   20211126132125W46 4P0P  00000600000000450000000738232W46   HJYHK   006400630015
BI00B32W4    4500184693     202112167116-4102-02             TERMINAL                 CCN000240000000240000FN00000000020211201000240000NNE   20211126132125W46 4P0P  00001200000000553200000841432W46   HJYHK   006400630015
BI00A32W4    4500184718     202201037116-4100-02             TERMINAL                 CCN000015000000015000FN00000000020220101000015000NNE   20211126132545W4L64P0P  00001500000000696000000990232W4L6  HJYHK-K 006400630015
BI00A32W4    4500184719     202201177116-4115-02             TERMINAL                 CCN000008400000008400FN00000000020220101000008400NNE   20211126132631W4L64P0P  00000840000000593000000881232W4L6  HJYHK-K 006400630015
BI00A32W4    4500184719     202201177282-4855                HOUSING MALE ASS'Y       CCN000009600000009600FN00000000020220101000009600NNE   20211126132631W4L64N0N  00000120000001063200001283232W4L6  HJYHK-K 005500360039
BI00A32W4    4500184719     202201177114-6041                TERMINAL                 CCN000018000000018000FN00000000020220101000018000NNE   20211126132631W4L64P0P  00000360000000580700000824232W4L6  HJYHK-K 006400630015
BI00A32W4    4500184719     202201177283-1156                CONNECTOR                CCN000006400000006400FN00000000020220101000006400NNE   20211126132631W4L64N0N  00000080000000877600001078032W4L6  HJYHK-K 005600390040
BI00A32W4    @4500184719    202201177287-6634                HOUSING FEMALE ASS'Y     CCN000007200000007200FN00000000020220101000007200NNE   20211126132622W4L63N0N  00000240000001088400001337032W4L6  HJYHK-K 005500360039
BI00A32W4    4500184724     202112137158-3167-80             WIRE SEAL                CCN000040000000040000FN00000000020211201000040000NNE   20211126132659W4L61C0C  00002000000000048000000109032W4L6  HJYHK-K 002700430014
BI00A32W6    SW21114QMW     202111247289-3342-30             HOUSING FEMALE ASS'Y     PCN000026400000026400FY00002640020211101000000000NNM00020211126131631    1N0N  00000240000000686400000901432W6    SYSYA-WJ005500360039
BI00B32W6    SW21112QMW     202111247289-4212-80             SEALED HOUSING ASS'Y     CCN000002000000002000FY00000200020211101000000000NNM00020211126131141    4N0N  00000200000000848600000978632W6    SYSYA-WJ005400370024
BI00A32W6    SW21113QMW     202111277327-6870-30             MULTI FUSE               CCN000006624000006624FN00000000020211101000006624NNMD0420211126164705    4N0N  00000028800001015200001181132W6    SYSYA-WJ005400370024
BI00B32W6    SW21121QMW     202112017158-3006-90             RUBBER STOPPER           CCN000040000000040000FN00000000020211201000040000NNM00020211126164732    1C0C  00002000000000330600000386032W6    SYSYA-WJ002700430014
BI00B32W6    SW21122QMW     202112017289-3342-30             HOUSING FEMALE ASS'Y     CCN000019200000000000FY00000000020211201000000000NNM00020211126134507    1N0N  00000240000000686400000901432W6    SYSYA-WJ005500360039
BI00B32W6    SW21123QMW     202112017289-3342-30             HOUSING FEMALE ASS'Y     CCN000024000000000000FY00000000020211201000000000NNM00020211126134522    1N0N  00000240000000686400000901432W6    SYSYA-WJ005500360039
BI00B32W6    SW21124QMW     202212087289-3342-30             HOUSING FEMALE ASS'Y     CCN000016800000016800FN00000000020211201000016800NNMD0020211126134730    1N0N  00000240000000686400000901432W6    SYSYA-WJ005500360039
BI00B32W6    SW21124QMW     202111247327-6533-3W             BATTERY FUSE             CCN000001440000001440FY00000144020211201000000000NNM00020211126131219    4N0N  00000007200001230100001422632W6    SYSYA-WJ005500360039
BI00B32W9    4500184709     202201117158-3165-90             WIRE SEAL                CCN000040000000040000FN00000000020220101000040000NNE   20211126132418W9  1C0C  00004000000000124000000172432W9    HKYHK   004300270014
BI00B32W9    4500184712     202112147158-3165-90             WIRE SEAL                CCN000080000000080000FN00000000020211201000080000NNE   20211126132520W9  1C0C  00004000000000124000000172432W9    HKYHK   004300270014
BI00B32W9    4500184729     202201187282-5574-10             CONNECTOR                CCN000009600000009600FN00000000020220101000009600NNE   20211126132728W9  4N0N  00000080000001235000001423032W9    HKYHK   005600390040
BI00B32W9    4500184732     202112077114-4030                TERMINAL                 CCN000042000000042000FN00000000020211101000042000NNED0720211126132821W93 4P0P  00001050000000926100001254732W93   HKYHK   006400630017
BI00B32Y5    TAT32032       202112217116-3153-02             TERMINAL FEMALE          CCN003837000003861000FN00000000020220301003861000NNE   20211126122734    4P0P  00002700000000459000000744232Y5    BZYBL   006400630015
BI00B32Y5    TAT32032       202112217196-1325-02             TERMINAL FEMALE          CCN000200000000240000FN00000000020220301000240000NNE   20211126122734    4P0P  00006000000000450000000778732Y5    BZYBL   006400630017
BI00B32Y5    TAT32032       202112217196-1326-02             TERMINAL FEMALE          CCN000400000000420000FN00000000020220301000420000NNE   20211126122734    4P0P  00006000000000456000000784732Y5    BZYBL   006400630017
BI00B32Y5    TAT32032       202112217196-1327-02             TERMINAL FEMALE          CCN000005000000052000FN00000000020220301000052000NNE   20211126122734    4P0P  00005200000000336000000739532Y5    BZYBL   006400630017
BI00B32Y5    TTA32045       202201047C89-3342-30             HOUSING FEMALE ASS'Y     CCN000002400000002400FN00000000020220401000002400NNE   20211126122734    1N0N  00000240000000686400000901432Y5    BZYBL   005500360039
BI00B32Y5    TTA32045       202201047288-6547                CONNECTOR MALE ASS'Y     CCN000001500000001500FN00000000020220401000001500NNE   20211126122734    4N0N  00000075000001205300001340332Y5    BZYBL   005400370024
BI00B32Y5    TTA32045       202201047289-3342-30             HOUSING FEMALE ASS'Y     CCN000004800000004800FN00000000020220401000004800NNE   20211126122734    1N0N  00000240000000686400000901432Y5    BZYBL   005500360039
BI00B32Y5    TTA32045       202201047289-3342-90             HOUSING FEMALE ASS'Y     CCN000002400000002400FN00000000020220401000002400NNE   20211126122734    1N0N  00000240000000686400000901432Y5    BZYBL   005500360039
BI00A32Y8    #TAIM21114     202112297157-7812                SEAL RUBBER              CCN000040000000040000FN00000000020220401000040000NNED0420211126163055Y8  2C0C  00001000000000137000000202032Y8    CLYCL   002700430014
