BI00A32AF    @TTB1104       20211129181AD2002ZZ              CIVUSAS-S 0.35X2 B       PCN000110250000006750FN00000000020211001000006750NNM24 20211126135345    1W    00000045000001714000000000032AF    HBYHVTB 000000000000UZ41A032
BI00A32AF    @TTB1102       20211201181AD2002ZZ              CIVUSAS-S 0.35X2 B       PCN000045450000045450FN00000000020211001000045450NNM23 20211126115704    1W    00000045000001714000000000032AF    HBYHVTB 000000000000UZ21A028
BI00B32A7    @ZZ2201BLMW    20211222181E48018ZZ              CAVSAS-S 0.5X2 GY/SB     CCN000002100000002100FN00000000020220101000002100NNE   20211126131127    1W    00000030000002493000000000032A7    ZZZZY   000000000000ZU11C002
BI00B32A7    @ZZ2201BLMW    20211222181E48040ZZ              CAVSAS-S 0.3X2 GY/V      CCN000008050000008050FN00000000020220101000008050NNE   20211126131127    1W    00000035000001998600000000032A7    ZZZZY   000000000000ZU11C003
BI00B32A7    @ZZ2201BLMW    20211222181E48062ZZ              CAVSAS-S 0.5X2 GY/BR     CCN000000300000000300FN00000000020220101000000300NNE   20211126131127    1W    00000030000002493000000000032A7    ZZZZY   000000000000ZU11C001
BI00A32CH    @SJ21124 MW    20211127181E50011ZZ              AVSSCS-S 0.5FX2 DGY/Y    CCN000001800000001800FN00000000020211201000001800NNM20 20211126143558    1W    00000030000002072000000000032CH    SJSAMIJF000000000000QQ31B001
BI00B32CH    SJ21124DMW     202112021801W003940              IVSSH 0.5F W             CCN000016200000009000FN00000000020211201000009000NNM20 20211126135530    1W    00000180000000625000000000032CH    SJSAMIJF000000000000QR31B008
BI00A32CH    SJ21124DMW     202112011801W004090              IVSSH 0.75F L            CCN000007800000007800FN00000000020211201000007800NNM23 20211126135539    1W    00000130000000882000000000032CH    SJSAMIJF000000000000QR31B012
BI00A32CH    SJ21124DMW     202112011801W003940              IVSSH 0.5F W             CCN000007200000007200FN00000000020211201000007200NNM23 20211126135530    1W    00000180000000625000000000032CH    SJSAMIJF000000000000QR31B008
BI00B32J1    @388760        20211220181E48015ZZ              CAVSAS-S 0.5X1 GY        CCN000005600000005600FN00000000020211201000005600NNE   20211126114934    1W    00000040000001932600000000032J1    UKYEL-BL000000000000KG11C001
BI00B32J1    @388760        20211220181E48031ZZ              CAVSAS-S 0.3X2 GY        CCN000002450000002450FN00000000020211201000002450NNE   20211126114934    1W    00000035000001998600000000032J1    UKYEL-BL000000000000KG11C002
BI00B32M3    SM2112AHMW     2021121618007704030              AVSS 0.75F B             CCN000005000000005000FN00000000020211201000005000NNE   20211126091252    1W    00000100000000943000000000032M3    SASAMI  000000000000QI51B001
BI00B32M3    SM2112B MW     2021121618007703930              AVSS 0.5F B              CCN000034500000034500FN00000000020211201000034500NNE   20211126091253    1W    00000150000000674000000000032M3    SASAMI  000000000000QK51B002
BI00B32M3    SM2112B MW     20211216180D0204030              AVSSH 0.75F B            CCN000007000000007000FN00000000020211201000007000NNE   20211126091253    1W    00000100000000968000000000032M3    SASAMI  000000000000QK51B001
BI00A32Q8    @EW21104TMW    20211008181D69001ZZ              AVSSHCS 0.5FX2 B/BR      PCN000005700000000300FY00000030020211001000000000NNM22 20211126140725    1W    00000030000002792600000000032Q8    EMEMI   000000000000MT41A003
BI00B32Q8    EW21111 MW     2021102018007704140              AVSS 1.25F W             CCN000077600000001600FY00000160020211101000000000NNM00 20211126134212    1W    00000080000001389000000000032Q8    EMEMI   000000000000MI11B057
BI00A32Q8    EW21111 MW     20211129180D0203970              AVSSH 0.5F Y             PCN000006000000006000FN00000000020211101000006000NNM26 20211126134605    1W    00000150000000689000000000032Q8    EMEMI   000000000000MI11B025
BI00B32Q8    EW21113 MW     202110201801R704190              CIVUS 1.25 L             CCN000006000000002000FY00000200020211101000000000NNM00 20211126142020    1W    00000100000001228000000000032Q8    EMEMI   000000000000MI31B044
BI00B32Q8    EW21111 MW     202110201801R704150              CIVUS 1.25 R             CCN000050000000047000FY00004700020211101000000000NNM00 20211126163237    1W    00000100000001228000000000032Q8    EMEMI   000000000000MI11B070
BI00B32Q8    EW21111TMW     202110201801W006992              IVSSH 0.35F V            CCN000485000000342500FY00034250020211101000000000NNM00 20211126140503    1W    00000250000000452000000000032Q8    EMEMI   000000000000MT11B067
BI00A32Q8    @EW21111TMW    20211129181D69001ZZ              AVSSHCS 0.5FX2 B/BR      PCN000010800000010800FN00000000020211101000010800NNM25 20211126140821    1W    00000030000002792600000000032Q8    EMEMI   000000000000MT11B003
BI00B32Q8    EW21122 MW     2021102718007704190              AVSS 1.25F L             CCN000056000000032000FY00003200020211201000000000NNM00 20211126140326    1W    00000080000001389000000000032Q8    EMEMI   000000000000MV21A027
BI00B32Q8    EW21121 MW     202110201801R704130              CIVUS 1.25 B             CCN000141000000139000FY00013900020211201000000000NNM00 20211126162712    1W    00000100000001228000000000032Q8    EMEMI   000000000000MV11A046
BI00B32Q8    EW21121 MW     202110201801R704170              CIVUS 1.25 Y             CCN000061000000057000FY00005700020211201000000000NNM00 20211126160345    1W    00000100000001228000000000032Q8    EMEMI   000000000000MV11A056
BI00B32Q8    EW21121TMW     202112011801W004030              IVSSH 0.75F B            CCN000007800000007800FN00000000020211201000007800NNM21 20211126164000    1W    00000130000000882000000000032Q8    EMEMI   000000000000MU11A039
BI00B32Q8    EW21121TMW     202112011801W004080              IVSSH 0.75F BR           CCN000007800000007800FN00000000020211201000007800NNM21 20211126164000    1W    00000130000000882000000000032Q8    EMEMI   000000000000MU11A040
BI00B32Q8    EW21121TMW     202111291801W004060              IVSSH 0.75F G            CCN000005200000005200FN00000000020211201000005200NNM20 20211126140106    1W    00000130000000882000000000032Q8    EMEMI   000000000000MU11A041
BI00A32Q8    EW21121TMW     202111291801W004052              IVSSH 0.75F P            PCN000010400000010400FN00000000020211201000010400NNM20 20211126140106    1W    00000130000000882000000000032Q8    EMEMI   000000000000MU11A043
BI00B32Q8    EW21121TMW     202110201801W004050              IVSSH 0.75F R            CCN000092300000071500FY00007150020211201000000000NNM00 20211126140150    1W    00000130000000882000000000032Q8    EMEMI   000000000000MU11A044
BI00B32Q8    EW22013 MW     2021120818007704160              AVSS 1.25F G             CCN000040000000030400FN00000000020220101000030400NNM00 20211126150358    1W    00000080000001389000000000032Q8    EMEMI   000000000000MV41B031
BI00A32Q8    EW21112TMW     202111011801W006952              IVSSH 0.35F P            PCN000027500000000000FY00000000020211101000000000NNM10 20211126143040    1W    00000250000000452000000000032Q8    EMEMI   000000000000MT21B045
BI00A32Q8    EW21111 MW     2021112918007704140              AVSS 1.25F W             PCN000036000000036000FN00000000020211101000036000NNM26 20211126134212    1W    00000080000001389000000000032Q8    EMEMI   000000000000MI11B057
BI00A32Q8    EW21121TMW     202111291801W004050              IVSSH 0.75F R            PCN000020800000020800FN00000000020211201000020800NNM20 20211126140150    1W    00000130000000882000000000032Q8    EMEMI   000000000000MU11A044
BI00A32Q8    EW21122 MW     2021112918007704190              AVSS 1.25F L             PCN000024000000024000FN00000000020211201000024000NNM26 20211126140326    1W    00000080000001389000000000032Q8    EMEMI   000000000000MV21A027
BI00A32Q8    EW21111TMW     202111291801W006992              IVSSH 0.35F V            PCN000142500000142500FN00000000020211101000142500NNM21 20211126143215    1W    00000250000000452000000000032Q8    EMEMI   000000000000MT11B067
BI00A32Q8    @EW21104TMW    20211129181D69001ZZ              AVSSHCS 0.5FX2 B/BR      PCN000002700000002700FN00000000020211001000002700NNM29 20211126140725    1W    00000030000002792600000000032Q8    EMEMI   000000000000MT41A003
BI00B32Q8    EW21113 MW     202112011801R704190              CIVUS 1.25 L             CCN000004000000004000FN00000000020211101000004000NNM29 20211126142148    1W    00000100000001228000000000032Q8    EMEMI   000000000000MI31B044
BI00A32Q8    EW22013 MW     2021112918007704160              AVSS 1.25F G             CCN000009600000009600FN00000000020220101000009600NNM20 20211126150358    1W    00000080000001389000000000032Q8    EMEMI   000000000000MV41B031
BI00B32Q8    EW21121 MW     202112011801R704170              CIVUS 1.25 Y             CCN000004000000004000FN00000000020211201000004000NNM23 20211126161611    1W    00000100000001228000000000032Q8    EMEMI   000000000000MV11A056
BI00B32Q8    EW21121 MW     202112011801R704130              CIVUS 1.25 B             CCN000002000000002000FN00000000020211201000002000NNM23 20211126162942    1W    00000100000001228000000000032Q8    EMEMI   000000000000MV11A046
BI00B32Q8    EW21111 MW     202112011801R704150              CIVUS 1.25 R             CCN000003000000003000FN00000000020211101000003000NNM29 20211126163328    1W    00000100000001228000000000032Q8    EMEMI   000000000000MI11B070
