BI00B32A7    @ZZ22023LMW    20220127181E48018ZZ              CAVSAS-S 0.5X2 GY/SB     CCN000003600000000600FN00000000020220201000000600NNM00 20211224131813    1W    00000030000002493000000000032A7    ZZZZY   000000000000ZZ221020
BI00B32A7    @ZZ22023LMW    20220127181E48027ZZ              CAVSAS-S 0.5X2 GY/P      CCN000003600000000600FN00000000020220201000000600NNM00 20211224131917    1W    00000030000002493000000000032A7    ZZZZY   000000000000ZZ221019
BI00B32A7    @ZZ22023LMW    20220127181E48040ZZ              CAVSAS-S 0.3X2 GY/V      CCN000007700000004200FN00000000020220201000004200NNM00 20211224132103    1W    00000035000001998600000000032A7    ZZZZY   000000000000ZZ221021
BI00A32A7    @ZZ22023LMW    20211228181E48018ZZ              CAVSAS-S 0.5X2 GY/SB     CCN000003000000003000FN00000000020220201000003000NNM20 20211224140654    1W    00000030000002493000000000032A7    ZZZZY   000000000000ZZ221020
BI00A32A7    @ZZ22023LMW    20211228181E48027ZZ              CAVSAS-S 0.5X2 GY/P      CCN000003000000003000FN00000000020220201000003000NNM20 20211224140654    1W    00000030000002493000000000032A7    ZZZZY   000000000000ZZ221019
BI00A32A7    @ZZ22023LMW    20211228181E48040ZZ              CAVSAS-S 0.3X2 GY/V      CCN000003500000003500FN00000000020220201000003500NNM20 20211224140654    1W    00000035000001998600000000032A7    ZZZZY   000000000000ZZ221021
BI00A32G7    JW2201C MW     2021122718007703990              AVSS 0.5F L              CCN000001500000001500FN00000000020220101000001500NNE20 20211224130839    1W    00000150000000674000000000032G7    JIJAI   000000000000JD221005
BI00A32G7    JW2202A MW     2021122718007703991              AVSS 0.5F SB             CCN000001500000001500FN00000000020220201000001500NNE20 20211224130906    1W    00000150000000674000000000032G7    JIJAI   000000000000JR41C004
BI00A32H2    @TAW1112       20211015181E48013ZZ              CAVSAS-S 0.3X3 GY        PCN000000750000000750FY00000075020211101000000000NNM20 20211224102027    1W    00000025000002685000000000032H2    HVYHV   000000000000UJ11A011
BI00A32H2    @TAW1112       20211015181E48018ZZ              CAVSAS-S 0.5X2 GY/SB     PCN000000300000000300FY00000030020211101000000000NNM20 20211224102032    1W    00000030000002493000000000032H2    HVYHV   000000000000UJ11A009
BI00B32H2    @TAW1112       20211022181AD2004ZZ              CIVUSAS-S 0.35X4 B       CCN000094200000026700FY00002670020211101000000000NNM20 20211224101949    1W    00000030000002784000000000032H2    HVYHV   000000000000UJ11A006
BI00A32H2    @TAW1112       20210923181AD2008ZZ              CIVUSAS-S 0.5X2 B        PCN000027200000027200FY00002720020211101000000000NNM20 20211224102027    1W    00000040000002028000000000032H2    HVYHV   000000000000UJ11A003
BI00A32H2    @TAW1112       20211227181AD2004ZZ              CIVUSAS-S 0.35X4 B       PCN000027000000027000FN00000000020211101000027000NNM21 20211224134244    1W    00000030000002784000000000032H2    HVYHV   000000000000UJ11A006
BI00A32H2    @TAW1112       20220105181AD2004ZZ              CIVUSAS-S 0.35X4 B       PCN000023400000023400FN00000000020211101000023400NNM22 20211224135752    1W    00000030000002784000000000032H2    HVYHV   000000000000UJ11A006
