BI00A1200    2399T51729     202112297289-6547                HOUSING FEMALE ASS'Y     PCN000240000000103200FN00000000020210901000103200NNM00020211224144120    1N0N  0000024000000115200000136201200    YCYC    005500360039
BI00A1200    2399T51728     202112277289-6547                HOUSING FEMALE ASS'Y     PCN000100800000136800FN00000000020210901000136800NNM00020211224155703    1N0N  0000024000000115200000136201200    YCYC    005500360039
BI00A1200    8750T51801     202201077288-6547                CONNECTOR MALE ASS'Y     PCN000001500000001500FN00000000020211001000001500NNMD0020211224122208    4N0N  0000007500000120530000134031200    YCYC    005400370024
BI00B1200    2399T51B20     202201067289-6597-70             HOUSING FEMALE ASS'Y     CCN000015120000015120FN00000000020220101000015120NNM00020211224155747    4N0N  0000021600000128950000153951200    YCYC    005500360039
BI00B1200    2399T51B21     202201067289-6597-70             HOUSING FEMALE ASS'Y     CCN000015120000015120FN00000000020220101000015120NNM00020211224155812    4N0N  0000021600000128950000153951200    YCYC    005500360039
BI00B1200    8750T52101     202202037288-3340-30             HOUSING MALE             CCN000010500000010500FN00000000020220301000010500NNM   20211224122208    4N0N  0000015000000086150000100641200    YCYC    005400370024
BI00B1200    8750T52101     202202037289-3342                HOUSING FEMALE ASS'Y     CCN000009600000009600FN00000000020220301000009600NNM   20211224122208    1N0N  0000024000000068640000090141200    YCYC    005500360039
BI00B1200    #8750T52101    202202037189-3031-30             HOUSING FEMALE           CCN000007200000007200FN00000000020220301000007200NNM   20211224122208    2F0F  0000024000000092880000136581200    YCYC    005500360039
BI00B1200    CE22-MN-0002   202201137196-0805-02             TERMINAL FEMALE          CCN000022500000022500FN00000000020220201000022500NNE   20211224145139    4P0P  0000225000000055800000084321200    YCYC    006400630015
BI00B32AF    JTB2013        202112277287-1915-30             CONNECTOR ASS'Y          CCN000004800000004800FN00000000020220101000004800NNM00020211224135034    4N0N  00000240000000666500000923132AF    HBYHVTB 005500360039
BI00B32AF    JTB202C        202201217114-4624-02             TERMINAL                 CCN000024000000024000FN00000000020220201000024000NNE   20211224150418    4P0P  00002400000000895200001188832AF    HBYHVTB 006400630015
BI00B32AF    JTB202C        202201217114-4728-02             TERMINAL                 CCN000480000000480000FN00000000020220201000480000NNE   20211224150418    4P0P  00003000000000510000000804232AF    HBYHVTB 006400630015
BI00B32AF    JTB202C        202201217114-4728-08             TERMINAL                 CCN000060000000060000FN00000000020220201000060000NNE   20211224150418    4P0P  00003000000000507000000801232AF    HBYHVTB 006400630015
BI00B32AF    JTB202C        202201217114-5747-02             TERMINAL                 CCN000270000000270000FN00000000020220201000270000NNE   20211224150418    4P0P  00001800000000626400000920032AF    HBYHVTB 006400630015
BI00B32AF    JTB202C        202201217114-5748-02             TERMINAL                 CCN000228000000228000FN00000000020220201000228000NNE   20211224150418    4P0P  00001200000000444000000737632AF    HBYHVTB 006400630015
BI00B32AF    JTB202C        202201217114-5753-02             TERMINAL                 CCN000081000000081000FN00000000020220201000081000NNE   20211224150418    4P0P  00002700000000847800001141432AF    HBYHVTB 006400630015
BI00B32AF    JTB202C        202201217116-1685-02             TERMINAL                 CCN000024000000024000FN00000000020220201000024000NNE   20211224150418    4P0P  00002400000000897600001065232AF    HBYHVTB 005100280028
BI00B32AF    JTB202C        202201217116-2892-02             TERMINAL                 CCN000012000000012000FN00000000020220201000012000NNE   20211224150418    4P0P  00001200000000818400000981832AF    HBYHVTB 005100280028
BI00B32AF    JTB202C        202201217116-3153-08             TERMINAL                 CCN000054000000054000FN00000000020220201000054000NNE   20211224150418    4P0P  00002700000000461700000746932AF    HBYHVTB 006400630015
BI00B32AF    JTB202C        202201217116-4415-02             TERMINAL                 CCN000076000000076000FN00000000020220201000076000NNE   20211224150418    4P0P  00003800000000596600000925732AF    HBYHVTB 006400630017
BI00B32AF    JTB202C        202201217116-5752-02             TERMINAL                 CCN000168000000168000FN00000000020220201000168000NNE   20211224150418    4P0P  00002100000000571200000856432AF    HBYHVTB 006400630015
BI00B32AF    JTB202C        202201217126-8855-02             TERMINAL                 CCN000018000000018000FN00000000020220201000018000NNE   20211224150418    4P0P  00000600000000510600000795832AF    HBYHVTB 006400630015
BI00B32AF    JTB202C        202201217282-4577-90             HOUSING MALE ASS'Y       CCN000004800000004800FN00000000020220201000004800NNE   20211224150418    4N0N  00000240000000964800001174832AF    HBYHVTB 005500360039
BI00B32AF    JTB202C        202201217282-4578                HOUSING MALE ASS'Y       CCN000012000000012000FN00000000020220201000012000NNE   20211224150418    4N0N  00000120000000782600000992632AF    HBYHVTB 005500360039
BI00B32AF    JTB202C        202201217282-9391-30             HOUSING MALE ASS'Y       CCN000001200000001200FN00000000020220201000001200NNE   20211224150418    4N0N  00000120000001017600001237632AF    HBYHVTB 005500360039
BI00B32AF    JTB202C        202201217283-5845-30             CONNECTOR HOUSING        CCN000006000000006000FN00000000020220201000006000NNE   20211224150418    1N0N  00000600000000444000000606332AF    HBYHVTB 005400370024
BI00B32AF    JTB202C        202201217286-4097-90             CONNECTOR MALE ASS'Y     CCN000001600000001600FN00000000020220201000001600NNE   20211224150418    1N0N  00000160000000768000000978032AF    HBYHVTB 005500360039
BI00B32AF    JTB202C        202201217287-1915-30             CONNECTOR ASS'Y          CCN000004800000004800FN00000000020220201000004800NNE   20211224150418    4N0N  00000240000000666500000923132AF    HBYHVTB 005500360039
BI00B32AF    JTB202C        202201217287-1915-40             CONNECTOR ASS'Y          CCN000004800000004800FN00000000020220201000004800NNE   20211224150418    4N0N  00000240000000666500000923132AF    HBYHVTB 005500360039
BI00B32AF    JTB202C        202201217287-1917-40             CONNECTOR FEMALE         CCN000004800000004800FN00000000020220201000004800NNE   20211224150418    4N0N  00000240000001060800001312532AF    HBYHVTB 005500360039
BI00B32AF    JTB202C        202201217287-3885                HYBRID FEMALE ASS'Y      CCN000004800000004800FN00000000020220201000004800NNE   20211224150418    1N0N  00000240000001029600001249632AF    HBYHVTB 005500360039
BI00B32AF    #JTB202C       202201217116-4021                TERMINAL                 CCN000027000000027000FN00000000020220201000027000NNE   20211224150416    2F0P  00001350000000534600000868832AF    HBYHVTB 006400630015
BI00B32AF    #JTB202C       202201217158-3007-10             RUBBER STOPPER           CCN000020000000020000FN00000000020220201000020000NNE   20211224150416    2H0H  00002000000000308000000362732AF    HBYHVTB 002700430014
BI00B32AF    #JTB202C       202201217183-1616-30             CONNECTOR HOUSING        CCN000004800000004800FN00000000020220201000004800NNE   20211224150416    2F0F  00000240000000557500000837132AF    HBYHVTB 005500360039
BI00B32AF    #JTB202C       202201217183-2413-30             CONNECTOR HOUSING        CCN000004800000004800FN00000000020220201000004800NNE   20211224150416    2F0F  00000480000000477600000759532AF    HBYHVTB 005500360039
BI00B32AF    JTB2031        202202117017-1180-02             TERMINAL                 CCN000072000000072000FN00000000020220301000072000NNM   20211224150720    4P0P  00007200000001065600001229032AF    HBYHVTB 005100280028
BI00B32AF    JTB2032        202202187017-1180-02             TERMINAL                 CCN000360000000360000FN00000000020220301000360000NNM   20211224150720    4P0P  00007200000001065600001229032AF    HBYHVTB 005100280028
BI00B32AF    JTB2033        202202257017-1180-02             TERMINAL                 CCN000360000000360000FN00000000020220301000360000NNM   20211224150720    4P0P  00007200000001065600001229032AF    HBYHVTB 005100280028
BI00B32AF    JTB2034        202203047017-1180-02             TERMINAL                 CCN000144000000144000FN00000000020220301000144000NNM   20211224150720    4P0P  00007200000001065600001229032AF    HBYHVTB 005100280028
BI00B32AF    JTB2034        202203047017-1181-02             TERMINAL                 CCN000063000000063000FN00000000020220301000063000NNM   20211224150720    4P0P  00006300000001089900001266832AF    HBYHVTB 005100280028
BI00B32AF    JTB2032        202202187017-1183-02             TERMINAL                 CCN000054000000054000FN00000000020220301000054000NNM   20211224150720    4P0P  00002700000001139400001307432AF    HBYHVTB 005100280028
BI00B32AF    JTB2033        202202257017-1183-02             TERMINAL                 CCN000054000000054000FN00000000020220301000054000NNM   20211224150720    4P0P  00002700000001139400001307432AF    HBYHVTB 005100280028
BI00B32AF    JTB2034        202203047017-1183-02             TERMINAL                 CCN000027000000027000FN00000000020220301000027000NNM   20211224150720    4P0P  00002700000001139400001307432AF    HBYHVTB 005100280028
BI00B32AF    JTB2032        202202187114-1670-02             TERMINAL                 CCN000024000000024000FN00000000020220301000024000NNM   20211224150720    1P0P  00002400000000357600000645832AF    HBYHVTB 006400630015
BI00B32AF    JTB2034        202203047114-1670-02             TERMINAL                 CCN000024000000024000FN00000000020220301000024000NNM   20211224150720    1P0P  00002400000000357600000645832AF    HBYHVTB 006400630015
BI00B32AF    JTB2031        202202117114-4020                TERMINAL                 CCN000042000000042000FN00000000020220301000042000NNM   20211224150720    4P0P  00002100000000875700001169332AF    HBYHVTB 006400630015
BI00B32AF    JTB2032        202202187114-4020                TERMINAL                 CCN000105000000105000FN00000000020220301000105000NNM   20211224150720    4P0P  00002100000000875700001169332AF    HBYHVTB 006400630015
BI00B32AF    JTB2033        202202257114-4020                TERMINAL                 CCN000105000000105000FN00000000020220301000105000NNM   20211224150720    4P0P  00002100000000875700001169332AF    HBYHVTB 006400630015
BI00B32AF    JTB2034        202203047114-4020                TERMINAL                 CCN000042000000042000FN00000000020220301000042000NNM   20211224150720    4P0P  00002100000000875700001169332AF    HBYHVTB 006400630015
BI00B32AF    JTB2031        202202117114-4030                TERMINAL                 CCN000010500000010500FN00000000020220301000010500NNM   20211224150720    4P0P  00001050000000926100001254732AF    HBYHVTB 006400630017
BI00B32AF    JTB2033        202202257114-4030                TERMINAL                 CCN000010500000010500FN00000000020220301000010500NNM   20211224150720    4P0P  00001050000000926100001254732AF    HBYHVTB 006400630017
BI00B32AF    JTB2031        202202117114-4031                TERMINAL                 CCN000042000000042000FN00000000020220301000042000NNM   20211224150720    4P0P  00001050000000966000001294632AF    HBYHVTB 006400630017
BI00B32AF    JTB2032        202202187114-4031                TERMINAL                 CCN000031500000031500FN00000000020220301000031500NNM   20211224150720    4P0P  00001050000000966000001294632AF    HBYHVTB 006400630017
BI00B32AF    JTB2033        202202257114-4031                TERMINAL                 CCN000031500000031500FN00000000020220301000031500NNM   20211224150720    4P0P  00001050000000966000001294632AF    HBYHVTB 006400630017
BI00B32AF    JTB2034        202203047114-4031                TERMINAL                 CCN000010500000010500FN00000000020220301000010500NNM   20211224150720    4P0P  00001050000000966000001294632AF    HBYHVTB 006400630017
BI00B32AF    JTB2031        202202117114-4032                TERMINAL                 CCN000075000000075000FN00000000020220301000075000NNM   20211224150720    4P0P  00000750000000735000001063632AF    HBYHVTB 006400630017
BI00B32AF    JTB2032        202202187114-4032                TERMINAL                 CCN000082500000082500FN00000000020220301000082500NNM   20211224150720    4P0P  00000750000000735000001063632AF    HBYHVTB 006400630017
BI00B32AF    JTB2033        202202257114-4032                TERMINAL                 CCN000075000000075000FN00000000020220301000075000NNM   20211224150720    4P0P  00000750000000735000001063632AF    HBYHVTB 006400630017
BI00B32AF    JTB2034        202203047114-4032                TERMINAL                 CCN000037500000037500FN00000000020220301000037500NNM   20211224150720    4P0P  00000750000000735000001063632AF    HBYHVTB 006400630017
BI00B32AF    JTB2033        202202257114-4231-02             TERMINAL                 CCN000108000000108000FN00000000020220301000108000NNM   20211224150720    4P0P  00001800000000554400000848032AF    HBYHVTB 006400630015
BI00B32AF    JTB2031        202202117114-4624-02             TERMINAL                 CCN000024000000024000FN00000000020220301000024000NNM   20211224150720    4P0P  00002400000000895200001188832AF    HBYHVTB 006400630015
BI00B32AF    JTB2032        202202187114-4624-02             TERMINAL                 CCN000024000000024000FN00000000020220301000024000NNM   20211224150720    4P0P  00002400000000895200001188832AF    HBYHVTB 006400630015
BI00B32AF    JTB2033        202202257114-4624-02             TERMINAL                 CCN000024000000024000FN00000000020220301000024000NNM   20211224150720    4P0P  00002400000000895200001188832AF    HBYHVTB 006400630015
BI00B32AF    JTB2031        202202117114-4728-02             TERMINAL                 CCN001020000001020000FN00000000020220301001020000NNM   20211224150720    4P0P  00003000000000510000000804232AF    HBYHVTB 006400630015
BI00B32AF    JTB2032        202202187114-4728-02             TERMINAL                 CCN000750000000750000FN00000000020220301000750000NNM   20211224150720    4P0P  00003000000000510000000804232AF    HBYHVTB 006400630015
BI00B32AF    JTB2033        202202257114-4728-02             TERMINAL                 CCN000600000000600000FN00000000020220301000600000NNM   20211224150720    4P0P  00003000000000510000000804232AF    HBYHVTB 006400630015
BI00B32AF    JTB2034        202203047114-4728-02             TERMINAL                 CCN000300000000300000FN00000000020220301000300000NNM   20211224150720    4P0P  00003000000000510000000804232AF    HBYHVTB 006400630015
BI00B32AF    JTB2031        202202117114-4728-08             TERMINAL                 CCN000060000000060000FN00000000020220301000060000NNM   20211224150720    4P0P  00003000000000507000000801232AF    HBYHVTB 006400630015
BI00B32AF    JTB2033        202202257114-4728-08             TERMINAL                 CCN000030000000030000FN00000000020220301000030000NNM   20211224150720    4P0P  00003000000000507000000801232AF    HBYHVTB 006400630015
BI00B32AF    JTB2033        202202257114-4729-02             TERMINAL                 CCN000150000000150000FN00000000020220301000150000NNM   20211224150720    4P0P  00003000000000516000000810232AF    HBYHVTB 006400630015
BI00B32AF    JTB2034        202203047114-4729-02             TERMINAL                 CCN000120000000120000FN00000000020220301000120000NNM   20211224150720    4P0P  00003000000000516000000810232AF    HBYHVTB 006400630015
BI00B32AF    JTB2031        202202117114-5747-02             TERMINAL                 CCN000378000000378000FN00000000020220301000378000NNM   20211224150720    4P0P  00001800000000626400000920032AF    HBYHVTB 006400630015
BI00B32AF    JTB2032        202202187114-5747-02             TERMINAL                 CCN000288000000288000FN00000000020220301000288000NNM   20211224150720    4P0P  00001800000000626400000920032AF    HBYHVTB 006400630015
BI00B32AF    JTB2033        202202257114-5747-02             TERMINAL                 CCN000234000000234000FN00000000020220301000234000NNM   20211224150720    4P0P  00001800000000626400000920032AF    HBYHVTB 006400630015
BI00B32AF    JTB2034        202203047114-5747-02             TERMINAL                 CCN000108000000108000FN00000000020220301000108000NNM   20211224150720    4P0P  00001800000000626400000920032AF    HBYHVTB 006400630015
BI00B32AF    JTB2031        202202117114-5748-02             TERMINAL                 CCN000108000000108000FN00000000020220301000108000NNM   20211224150720    4P0P  00001200000000444000000737632AF    HBYHVTB 006400630015
BI00B32AF    JTB2032        202202187114-5748-02             TERMINAL                 CCN000132000000132000FN00000000020220301000132000NNM   20211224150720    4P0P  00001200000000444000000737632AF    HBYHVTB 006400630015
BI00B32AF    JTB2033        202202257114-5748-02             TERMINAL                 CCN000108000000108000FN00000000020220301000108000NNM   20211224150720    4P0P  00001200000000444000000737632AF    HBYHVTB 006400630015
BI00B32AF    JTB2034        202203047114-5748-02             TERMINAL                 CCN000048000000048000FN00000000020220301000048000NNM   20211224150720    4P0P  00001200000000444000000737632AF    HBYHVTB 006400630015
BI00B32AF    JTB2031        202202117114-5753-02             TERMINAL                 CCN000189000000189000FN00000000020220301000189000NNM   20211224150720    4P0P  00002700000000847800001141432AF    HBYHVTB 006400630015
BI00B32AF    JTB2032        202202187114-5753-02             TERMINAL                 CCN000162000000162000FN00000000020220301000162000NNM   20211224150720    4P0P  00002700000000847800001141432AF    HBYHVTB 006400630015
BI00B32AF    JTB2033        202202257114-5753-02             TERMINAL                 CCN000108000000108000FN00000000020220301000108000NNM   20211224150720    4P0P  00002700000000847800001141432AF    HBYHVTB 006400630015
BI00B32AF    JTB2034        202203047114-5753-02             TERMINAL                 CCN000054000000054000FN00000000020220301000054000NNM   20211224150720    4P0P  00002700000000847800001141432AF    HBYHVTB 006400630015
BI00B32AF    JTB2033        202202257116-1180                TERMINAL                 CCN000019500000019500FN00000000020220301000019500NNM   20211224150720    1P0P  00001950000000618200000903432AF    HBYHVTB 006400630015
BI00B32AF    JTB2031        202202117116-1685-02             TERMINAL                 CCN000024000000024000FN00000000020220301000024000NNM   20211224150720    4P0P  00002400000000897600001065232AF    HBYHVTB 005100280028
BI00B32AF    JTB2031        202202117116-2891-02             TERMINAL                 CCN000015000000015000FN00000000020220301000015000NNM   20211224150720    4P0P  00001500000000982500001145932AF    HBYHVTB 005100280028
BI00B32AF    JTB2032        202202187116-2891-02             TERMINAL                 CCN000015000000015000FN00000000020220301000015000NNM   20211224150720    4P0P  00001500000000982500001145932AF    HBYHVTB 005100280028
BI00B32AF    JTB2033        202202257116-2891-02             TERMINAL                 CCN000015000000015000FN00000000020220301000015000NNM   20211224150720    4P0P  00001500000000982500001145932AF    HBYHVTB 005100280028
BI00B32AF    JTB2032        202202187116-2892-02             TERMINAL                 CCN000012000000012000FN00000000020220301000012000NNM   20211224150720    4P0P  00001200000000818400000981832AF    HBYHVTB 005100280028
BI00B32AF    JTB2031        202202117116-3153-08             TERMINAL                 CCN000054000000054000FN00000000020220301000054000NNM   20211224150720    4P0P  00002700000000461700000746932AF    HBYHVTB 006400630015
BI00B32AF    JTB2032        202202187116-3153-08             TERMINAL                 CCN000027000000027000FN00000000020220301000027000NNM   20211224150720    4P0P  00002700000000461700000746932AF    HBYHVTB 006400630015
BI00B32AF    JTB2033        202202257116-3153-08             TERMINAL                 CCN000027000000027000FN00000000020220301000027000NNM   20211224150720    4P0P  00002700000000461700000746932AF    HBYHVTB 006400630015
BI00B32AF    JTB2034        202203047116-3153-08             TERMINAL                 CCN000027000000027000FN00000000020220301000027000NNM   20211224150720    4P0P  00002700000000461700000746932AF    HBYHVTB 006400630015
BI00B32AF    JTB2032        202202187116-4020                TERMINAL                 CCN000040500000040500FN00000000020220301000040500NNM   20211224150720    4P0P  00001350000000513000000798232AF    HBYHVTB 006400630015
BI00B32AF    JTB2033        202202257116-4020                TERMINAL                 CCN000067500000067500FN00000000020220301000067500NNM   20211224150720    4P0P  00001350000000513000000798232AF    HBYHVTB 006400630015
BI00B32AF    JTB2034        202203047116-4020                TERMINAL                 CCN000040500000040500FN00000000020220301000040500NNM   20211224150720    4P0P  00001350000000513000000798232AF    HBYHVTB 006400630015
BI00B32AF    JTB2031        202202117116-4025                TERMINAL                 CCN000016000000016000FN00000000020220301000016000NNM   20211224150720    4P0P  00001600000000644800000975132AF    HBYHVTB 006400630017
BI00B32AF    JTB2033        202202257116-4026                TERMINAL                 CCN000016000000016000FN00000000020220301000016000NNM   20211224150720    4P0P  00001600000000664000000994332AF    HBYHVTB 006400630017
BI00B32AF    JTB2031        202202117116-4031                TERMINAL                 CCN000015000000015000FN00000000020220301000015000NNM   20211224150720    4P0P  00000750000000619500000904732AF    HBYHVTB 006400630015
BI00B32AF    JTB2032        202202187116-4031                TERMINAL                 CCN000015000000015000FN00000000020220301000015000NNM   20211224150720    4P0P  00000750000000619500000904732AF    HBYHVTB 006400630015
BI00B32AF    JTB2033        202202257116-4031                TERMINAL                 CCN000015000000015000FN00000000020220301000015000NNM   20211224150720    4P0P  00000750000000619500000904732AF    HBYHVTB 006400630015
BI00B32AF    JTB2034        202203047116-4031                TERMINAL                 CCN000007500000007500FN00000000020220301000007500NNM   20211224150720    4P0P  00000750000000619500000904732AF    HBYHVTB 006400630015
BI00B32AF    JTB2031        202202117116-4100-02             TERMINAL                 CCN000015000000015000FN00000000020220301000015000NNM   20211224150720    4P0P  00001500000000696000000990232AF    HBYHVTB 006400630015
BI00B32AF    JTB2032        202202187116-4100-02             TERMINAL                 CCN000015000000015000FN00000000020220301000015000NNM   20211224150720    4P0P  00001500000000696000000990232AF    HBYHVTB 006400630015
BI00B32AF    JTB2033        202202257116-4100-02             TERMINAL                 CCN000015000000015000FN00000000020220301000015000NNM   20211224150720    4P0P  00001500000000696000000990232AF    HBYHVTB 006400630015
BI00B32AF    JTB2031        202202117116-4101-02             TERMINAL                 CCN000012000000012000FN00000000020220301000012000NNM   20211224150720    4P0P  00001200000000582000000876232AF    HBYHVTB 006400630015
BI00B32AF    JTB2032        202202187116-4101-02             TERMINAL                 CCN000012000000012000FN00000000020220301000012000NNM   20211224150720    4P0P  00001200000000582000000876232AF    HBYHVTB 006400630015
BI00B32AF    JTB2031        202202117116-4112-02             TERMINAL                 CCN000006000000006000FN00000000020220301000006000NNM   20211224150720    4P0P  00000600000000450000000738232AF    HBYHVTB 006400630015
BI00B32AF    JTB2032        202202187116-4112-02             TERMINAL                 CCN000006000000006000FN00000000020220301000006000NNM   20211224150720    4P0P  00000600000000450000000738232AF    HBYHVTB 006400630015
BI00B32AF    JTB2033        202202257116-4112-02             TERMINAL                 CCN000012000000012000FN00000000020220301000012000NNM   20211224150720    4P0P  00000600000000450000000738232AF    HBYHVTB 006400630015
BI00B32AF    JTB2031        202202117116-4121-02             TERMINAL                 CCN000009000000009000FN00000000020220301000009000NNM   20211224150720    4P0P  00000450000000618800000912432AF    HBYHVTB 006400630015
BI00B32AF    JTB2032        202202187116-4121-02             TERMINAL                 CCN000004500000004500FN00000000020220301000004500NNM   20211224150720    4P0P  00000450000000618800000912432AF    HBYHVTB 006400630015
BI00B32AF    JTB2033        202202257116-4121-02             TERMINAL                 CCN000013500000013500FN00000000020220301000013500NNM   20211224150720    4P0P  00000450000000618800000912432AF    HBYHVTB 006400630015
BI00B32AF    JTB2034        202203047116-4121-02             TERMINAL                 CCN000004500000004500FN00000000020220301000004500NNM   20211224150720    4P0P  00000450000000618800000912432AF    HBYHVTB 006400630015
BI00B32AF    JTB2031        202202117116-4415-02             TERMINAL                 CCN000152000000152000FN00000000020220301000152000NNM   20211224150720    4P0P  00003800000000596600000925732AF    HBYHVTB 006400630017
BI00B32AF    JTB2032        202202187116-4415-02             TERMINAL                 CCN000114000000114000FN00000000020220301000114000NNM   20211224150720    4P0P  00003800000000596600000925732AF    HBYHVTB 006400630017
BI00B32AF    JTB2033        202202257116-4415-02             TERMINAL                 CCN000114000000114000FN00000000020220301000114000NNM   20211224150720    4P0P  00003800000000596600000925732AF    HBYHVTB 006400630017
BI00B32AF    JTB2034        202203047116-4415-02             TERMINAL                 CCN000038000000038000FN00000000020220301000038000NNM   20211224150720    4P0P  00003800000000596600000925732AF    HBYHVTB 006400630017
BI00B32AF    JTB2031        202202117116-4416-02             TERMINAL                 CCN000032000000032000FN00000000020220301000032000NNM   20211224150720    4P0P  00003200000000518400000847132AF    HBYHVTB 006400630017
BI00B32AF    JTB2032        202202187116-4416-02             TERMINAL                 CCN000032000000032000FN00000000020220301000032000NNM   20211224150720    4P0P  00003200000000518400000847132AF    HBYHVTB 006400630017
BI00B32AF    JTB2033        202202257116-4416-02             TERMINAL                 CCN000064000000064000FN00000000020220301000064000NNM   20211224150720    4P0P  00003200000000518400000847132AF    HBYHVTB 006400630017
BI00B32AF    JTB2031        202202117116-4486-02             TERMINAL                 CCN000504000000504000FN00000000020220301000504000NNM   20211224150720    4P0P  00002800000000666400000995132AF    HBYHVTB 006400630017
BI00B32AF    JTB2032        202202187116-4486-02             TERMINAL                 CCN000420000000420000FN00000000020220301000420000NNM   20211224150720    4P0P  00002800000000666400000995132AF    HBYHVTB 006400630017
BI00B32AF    JTB2033        202202257116-4486-02             TERMINAL                 CCN000364000000364000FN00000000020220301000364000NNM   20211224150720    4P0P  00002800000000666400000995132AF    HBYHVTB 006400630017
BI00B32AF    JTB2034        202203047116-4486-02             TERMINAL                 CCN000168000000168000FN00000000020220301000168000NNM   20211224150720    4P0P  00002800000000666400000995132AF    HBYHVTB 006400630017
BI00B32AF    JTB2031        202202117116-5042-02             TERMINAL                 CCN000121500000121500FN00000000020220301000121500NNM   20211224150720    4P0P  00001350000000560300000845532AF    HBYHVTB 006400630015
BI00B32AF    JTB2032        202202187116-5042-02             TERMINAL                 CCN000189000000189000FN00000000020220301000189000NNM   20211224150720    4P0P  00001350000000560300000845532AF    HBYHVTB 006400630015
BI00B32AF    JTB2033        202202257116-5042-02             TERMINAL                 CCN000162000000162000FN00000000020220301000162000NNM   20211224150720    4P0P  00001350000000560300000845532AF    HBYHVTB 006400630015
BI00B32AF    JTB2034        202203047116-5042-02             TERMINAL                 CCN000081000000081000FN00000000020220301000081000NNM   20211224150720    4P0P  00001350000000560300000845532AF    HBYHVTB 006400630015
BI00B32AF    JTB2032        202202187116-5043-02             TERMINAL FEMALE          CCN000108000000108000FN00000000020220301000108000NNM   20211224150720    4P0P  00001200000000559200000844432AF    HBYHVTB 006400630015
BI00B32AF    JTB2033        202202257116-5043-02             TERMINAL FEMALE          CCN000084000000084000FN00000000020220301000084000NNM   20211224150720    4P0P  00001200000000559200000844432AF    HBYHVTB 006400630015
BI00B32AF    JTB2034        202203047116-5043-02             TERMINAL FEMALE          CCN000060000000060000FN00000000020220301000060000NNM   20211224150720    4P0P  00001200000000559200000844432AF    HBYHVTB 006400630015
BI00B32AF    JTB2031        202202117116-5044-02             TERMINAL                 CCN000128000000128000FN00000000020220301000128000NNM   20211224150720    4P0P  00001600000000641600000986332AF    HBYHVTB 006400630017
BI00B32AF    JTB2032        202202187116-5044-02             TERMINAL                 CCN000080000000080000FN00000000020220301000080000NNM   20211224150720    4P0P  00001600000000641600000986332AF    HBYHVTB 006400630017
BI00B32AF    JTB2033        202202257116-5044-02             TERMINAL                 CCN000080000000080000FN00000000020220301000080000NNM   20211224150720    4P0P  00001600000000641600000986332AF    HBYHVTB 006400630017
BI00B32AF    JTB2034        202203047116-5044-02             TERMINAL                 CCN000032000000032000FN00000000020220301000032000NNM   20211224150720    4P0P  00001600000000641600000986332AF    HBYHVTB 006400630017
BI00B32AF    JTB2031        202202117116-5045-02             TERMINAL                 CCN000016000000016000FN00000000020220301000016000NNM   20211224150720    4P0P  00001600000000678400001007132AF    HBYHVTB 006400630017
BI00B32AF    JTB2032        202202187116-5045-02             TERMINAL                 CCN000016000000016000FN00000000020220301000016000NNM   20211224150720    4P0P  00001600000000678400001007132AF    HBYHVTB 006400630017
BI00B32AF    JTB2033        202202257116-5045-02             TERMINAL                 CCN000016000000016000FN00000000020220301000016000NNM   20211224150720    4P0P  00001600000000678400001007132AF    HBYHVTB 006400630017
BI00B32AF    JTB2034        202203047116-5045-02             TERMINAL                 CCN000016000000016000FN00000000020220301000016000NNM   20211224150720    4P0P  00001600000000678400001007132AF    HBYHVTB 006400630017
BI00B32AF    JTB2031        202202117116-5046-02             TERMINAL                 CCN000012000000012000FN00000000020220301000012000NNM   20211224150720    4P0P  00001200000000544800000873532AF    HBYHVTB 006400630017
BI00B32AF    JTB2034        202203047116-5046-02             TERMINAL                 CCN000012000000012000FN00000000020220301000012000NNM   20211224150720    4P0P  00001200000000544800000873532AF    HBYHVTB 006400630017
BI00B32AF    JTB2032        202202187116-5097-02             TERMINAL                 CCN000045000000045000FN00000000020220301000045000NNM   20211224150720    4P0P  00002250000000531000000816232AF    HBYHVTB 006400630015
BI00B32AF    JTB2033        202202257116-5097-02             TERMINAL                 CCN000045000000045000FN00000000020220301000045000NNM   20211224150720    4P0P  00002250000000531000000816232AF    HBYHVTB 006400630015
BI00B32AF    JTB2034        202203047116-5097-02             TERMINAL                 CCN000067500000067500FN00000000020220301000067500NNM   20211224150720    4P0P  00002250000000531000000816232AF    HBYHVTB 006400630015
BI00B32AF    JTB2031        202202117116-5750-02             TERMINAL                 CCN000630000000630000FN00000000020220301000630000NNM   20211224150720    4P0P  00001500000000457500000742732AF    HBYHVTB 006400630015
BI00B32AF    JTB2032        202202187116-5750-02             TERMINAL                 CCN000405000000405000FN00000000020220301000405000NNM   20211224150720    4P0P  00001500000000457500000742732AF    HBYHVTB 006400630015
BI00B32AF    JTB2033        202202257116-5750-02             TERMINAL                 CCN000390000000390000FN00000000020220301000390000NNM   20211224150720    4P0P  00001500000000457500000742732AF    HBYHVTB 006400630015
BI00B32AF    JTB2034        202203047116-5750-02             TERMINAL                 CCN000195000000195000FN00000000020220301000195000NNM   20211224150720    4P0P  00001500000000457500000742732AF    HBYHVTB 006400630015
BI00B32AF    JTB2031        202202117116-5752-02             TERMINAL                 CCN000126000000126000FN00000000020220301000126000NNM   20211224150720    4P0P  00002100000000571200000856432AF    HBYHVTB 006400630015
BI00B32AF    JTB2032        202202187116-5752-02             TERMINAL                 CCN000126000000126000FN00000000020220301000126000NNM   20211224150720    4P0P  00002100000000571200000856432AF    HBYHVTB 006400630015
BI00B32AF    JTB2033        202202257116-5752-02             TERMINAL                 CCN000105000000105000FN00000000020220301000105000NNM   20211224150720    4P0P  00002100000000571200000856432AF    HBYHVTB 006400630015
BI00B32AF    JTB2034        202203047116-5752-02             TERMINAL                 CCN000042000000042000FN00000000020220301000042000NNM   20211224150720    4P0P  00002100000000571200000856432AF    HBYHVTB 006400630015
BI00B32AF    JTB2031        202202117116-6041                TERMINAL                 CCN000004500000004500FN00000000020220301000004500NNM   20211224150720    4P0P  00000450000000716000001009632AF    HBYHVTB 006400630015
BI00B32AF    JTB2032        202202187116-6041                TERMINAL                 CCN000009000000009000FN00000000020220301000009000NNM   20211224150720    4P0P  00000450000000716000001009632AF    HBYHVTB 006400630015
BI00B32AF    JTB2033        202202257116-6041                TERMINAL                 CCN000009000000009000FN00000000020220301000009000NNM   20211224150720    4P0P  00000450000000716000001009632AF    HBYHVTB 006400630015
BI00B32AF    JTB2034        202203047116-6041                TERMINAL                 CCN000009000000009000FN00000000020220301000009000NNM   20211224150720    4P0P  00000450000000716000001009632AF    HBYHVTB 006400630015
BI00B32AF    JTB2031        202202117126-8853-02             TERMINAL                 CCN000007500000007500FN00000000020220301000007500NNM   20211224150720    4P0P  00000750000000562500000847732AF    HBYHVTB 006400630015
BI00B32AF    JTB2031        202202117126-8855-02             TERMINAL                 CCN000036000000036000FN00000000020220301000036000NNM   20211224150720    4P0P  00000600000000510600000795832AF    HBYHVTB 006400630015
BI00B32AF    JTB2032        202202187126-8855-02             TERMINAL                 CCN000030000000030000FN00000000020220301000030000NNM   20211224150720    4P0P  00000600000000510600000795832AF    HBYHVTB 006400630015
BI00B32AF    JTB2033        202202257126-8855-02             TERMINAL                 CCN000030000000030000FN00000000020220301000030000NNM   20211224150720    4P0P  00000600000000510600000795832AF    HBYHVTB 006400630015
BI00B32AF    JTB2034        202203047126-8855-02             TERMINAL                 CCN000012000000012000FN00000000020220301000012000NNM   20211224150720    4P0P  00000600000000510600000795832AF    HBYHVTB 006400630015
BI00B32AF    JTB2031        202202117158-3009-60             RUBBER STOPPER           CCN000160000000160000FN00000000020220301000160000NNM   20211224150720    1C0C  00002000000000338000000386232AF    HBYHVTB 002700430014
BI00B32AF    JTB2032        202202187158-3009-60             RUBBER STOPPER           CCN000100000000100000FN00000000020220301000100000NNM   20211224150720    1C0C  00002000000000338000000386232AF    HBYHVTB 002700430014
BI00B32AF    JTB2033        202202257158-3009-60             RUBBER STOPPER           CCN000120000000120000FN00000000020220301000120000NNM   20211224150720    1C0C  00002000000000338000000386232AF    HBYHVTB 002700430014
BI00B32AF    JTB2034        202203047158-3009-60             RUBBER STOPPER           CCN000040000000040000FN00000000020220301000040000NNM   20211224150720    1C0C  00002000000000338000000386232AF    HBYHVTB 002700430014
BI00B32AF    JTB2031        202202117158-3070-80             RUBBER STOPPER           CCN000040000000040000FN00000000020220301000040000NNM   20211224150720    1C0C  00004000000000276000000333332AF    HBYHVTB 002700430014
BI00B32AF    JTB2032        202202187158-3070-80             RUBBER STOPPER           CCN000040000000040000FN00000000020220301000040000NNM   20211224150720    1C0C  00004000000000276000000333332AF    HBYHVTB 002700430014
BI00B32AF    JTB2033        202202257158-3070-80             RUBBER STOPPER           CCN000040000000040000FN00000000020220301000040000NNM   20211224150720    1C0C  00004000000000276000000333332AF    HBYHVTB 002700430014
BI00B32AF    JTB2031        202202117158-3165-90             WIRE SEAL                CCN000160000000160000FN00000000020220301000160000NNM   20211224150720    1C0C  00004000000000124000000172432AF    HBYHVTB 004300270014
BI00B32AF    JTB2032        202202187158-3165-90             WIRE SEAL                CCN000320000000320000FN00000000020220301000320000NNM   20211224150720    1C0C  00004000000000124000000172432AF    HBYHVTB 004300270014
BI00B32AF    JTB2033        202202257158-3165-90             WIRE SEAL                CCN000320000000320000FN00000000020220301000320000NNM   20211224150720    1C0C  00004000000000124000000172432AF    HBYHVTB 004300270014
BI00B32AF    JTB2034        202203047158-3165-90             WIRE SEAL                CCN000160000000160000FN00000000020220301000160000NNM   20211224150720    1C0C  00004000000000124000000172432AF    HBYHVTB 004300270014
BI00B32AF    JTB2032        202202187158-3166-60             WIRE SEAL                CCN000080000000080000FN00000000020220301000080000NNM   20211224150720    1C0C  00004000000000104000000152432AF    HBYHVTB 002700430014
BI00B32AF    JTB2033        202202257158-3166-60             WIRE SEAL                CCN000040000000040000FN00000000020220301000040000NNM   20211224150720    1C0C  00004000000000104000000152432AF    HBYHVTB 002700430014
BI00B32AF    JTB2034        202203047158-3166-60             WIRE SEAL                CCN000040000000040000FN00000000020220301000040000NNM   20211224150720    1C0C  00004000000000104000000152432AF    HBYHVTB 002700430014
BI00B32AF    JTB2031        202202117158-3169-40             SEALING PLUG             CCN000080000000080000FN00000000020220301000080000NNM   20211224150720    1C0C  00004000000000156000000204132AF    HBYHVTB 004300260014
BI00B32AF    JTB2032        202202187158-3169-40             SEALING PLUG             CCN000080000000080000FN00000000020220301000080000NNM   20211224150720    1C0C  00004000000000156000000204132AF    HBYHVTB 004300260014
BI00B32AF    JTB2033        202202257158-3169-40             SEALING PLUG             CCN000040000000040000FN00000000020220301000040000NNM   20211224150720    1C0C  00004000000000156000000204132AF    HBYHVTB 004300260014
BI00B32AF    JTB2034        202203047158-3169-40             SEALING PLUG             CCN000040000000040000FN00000000020220301000040000NNM   20211224150720    1C0C  00004000000000156000000204132AF    HBYHVTB 004300260014
BI00B32AF    JTB2033        202202257195-1463-02             TERMINAL MALE            CCN000085500000085500FN00000000020220301000085500NNM   20211224150720    4P0P  00002850000000456000000741232AF    HBYHVTB 006400630015
BI00B32AF    JTB2034        202203047195-1463-02             TERMINAL MALE            CCN000057000000057000FN00000000020220301000057000NNM   20211224150720    4P0P  00002850000000456000000741232AF    HBYHVTB 006400630015
BI00B32AF    JTB2032        202202187195-1467-02             TERMINAL MALE            CCN000028500000028500FN00000000020220301000028500NNM   20211224150720    4P0P  00002850000000438900000724132AF    HBYHVTB 006400630015
BI00B32AF    JTB2031        202202117196-1460-02             TERMINAL FEMALE          CCN000085500000085500FN00000000020220301000085500NNM   20211224150720    4P0P  00002850000000444600000729832AF    HBYHVTB 006400630015
BI00B32AF    JTB2032        202202187196-1460-02             TERMINAL FEMALE          CCN000114000000114000FN00000000020220301000114000NNM   20211224150720    4P0P  00002850000000444600000729832AF    HBYHVTB 006400630015
BI00B32AF    JTB2033        202202257196-1460-02             TERMINAL FEMALE          CCN000142500000142500FN00000000020220301000142500NNM   20211224150720    4P0P  00002850000000444600000729832AF    HBYHVTB 006400630015
BI00B32AF    JTB2034        202203047196-1460-02             TERMINAL FEMALE          CCN000057000000057000FN00000000020220301000057000NNM   20211224150720    4P0P  00002850000000444600000729832AF    HBYHVTB 006400630015
BI00B32AF    JTB2031        202202117196-1461-02             TERMINAL FEMALE          CCN000048000000048000FN00000000020220301000048000NNM   20211224150720    4P0P  00002400000000386400000671632AF    HBYHVTB 006400630015
BI00B32AF    JTB2032        202202187196-1461-02             TERMINAL FEMALE          CCN000048000000048000FN00000000020220301000048000NNM   20211224150720    4P0P  00002400000000386400000671632AF    HBYHVTB 006400630015
BI00B32AF    JTB2031        202202117282-1024                HOUSING MALE             CCN000002000000002000FN00000000020220301000002000NNM   20211224150720    1N0N  00000100000000458000000580532AF    HBYHVTB 005400370024
BI00B32AF    JTB2034        202203047282-1024                HOUSING MALE             CCN000001000000001000FN00000000020220301000001000NNM   20211224150720    1N0N  00000100000000458000000580532AF    HBYHVTB 005400370024
BI00B32AF    JTB2031        202202117282-4576                HOUSING MALE ASS'Y       CCN000004800000004800FN00000000020220301000004800NNM   20211224150720    4N0N  00000240000000808800001028832AF    HBYHVTB 005500360039
BI00B32AF    JTB2032        202202187282-4576                HOUSING MALE ASS'Y       CCN000002400000002400FN00000000020220301000002400NNM   20211224150720    4N0N  00000240000000808800001028832AF    HBYHVTB 005500360039
BI00B32AF    JTB2033        202202257282-4576                HOUSING MALE ASS'Y       CCN000002400000002400FN00000000020220301000002400NNM   20211224150720    4N0N  00000240000000808800001028832AF    HBYHVTB 005500360039
BI00B32AF    JTB2034        202203047282-4576                HOUSING MALE ASS'Y       CCN000002400000002400FN00000000020220301000002400NNM   20211224150720    4N0N  00000240000000808800001028832AF    HBYHVTB 005500360039
BI00B32AF    JTB2031        202202117282-4577-90             HOUSING MALE ASS'Y       CCN000004800000004800FN00000000020220301000004800NNM   20211224150720    4N0N  00000240000000964800001174832AF    HBYHVTB 005500360039
BI00B32AF    JTB2032        202202187282-4577-90             HOUSING MALE ASS'Y       CCN000002400000002400FN00000000020220301000002400NNM   20211224150720    4N0N  00000240000000964800001174832AF    HBYHVTB 005500360039
BI00B32AF    JTB2033        202202257282-4577-90             HOUSING MALE ASS'Y       CCN000002400000002400FN00000000020220301000002400NNM   20211224150720    4N0N  00000240000000964800001174832AF    HBYHVTB 005500360039
BI00B32AF    JTB2034        202203047282-4577-90             HOUSING MALE ASS'Y       CCN000002400000002400FN00000000020220301000002400NNM   20211224150720    4N0N  00000240000000964800001174832AF    HBYHVTB 005500360039
BI00B32AF    JTB2031        202202117282-4578                HOUSING MALE ASS'Y       CCN000022800000022800FN00000000020220301000022800NNM   20211224150720    4N0N  00000120000000782600000992632AF    HBYHVTB 005500360039
BI00B32AF    JTB2032        202202187282-4578                HOUSING MALE ASS'Y       CCN000012000000012000FN00000000020220301000012000NNM   20211224150720    4N0N  00000120000000782600000992632AF    HBYHVTB 005500360039
BI00B32AF    JTB2033        202202257282-4578                HOUSING MALE ASS'Y       CCN000010800000010800FN00000000020220301000010800NNM   20211224150720    4N0N  00000120000000782600000992632AF    HBYHVTB 005500360039
BI00B32AF    JTB2034        202203047282-4578                HOUSING MALE ASS'Y       CCN000009600000009600FN00000000020220301000009600NNM   20211224150720    4N0N  00000120000000782600000992632AF    HBYHVTB 005500360039
BI00B32AF    JTB2031        202202117282-9391-30             HOUSING MALE ASS'Y       CCN000004800000004800FN00000000020220301000004800NNM   20211224150720    4N0N  00000120000001017600001237632AF    HBYHVTB 005500360039
BI00B32AF    JTB2032        202202187282-9391-30             HOUSING MALE ASS'Y       CCN000002400000002400FN00000000020220301000002400NNM   20211224150720    4N0N  00000120000001017600001237632AF    HBYHVTB 005500360039
BI00B32AF    JTB2033        202202257282-9391-30             HOUSING MALE ASS'Y       CCN000002400000002400FN00000000020220301000002400NNM   20211224150720    4N0N  00000120000001017600001237632AF    HBYHVTB 005500360039
BI00B32AF    JTB2034        202203047282-9391-30             HOUSING MALE ASS'Y       CCN000001200000001200FN00000000020220301000001200NNM   20211224150720    4N0N  00000120000001017600001237632AF    HBYHVTB 005500360039
BI00B32AF    JTB2033        202202257283-1028                CONNECTOR HOUSING        CCN000006000000006000FN00000000020220301000006000NNM   20211224150720    4N0N  00000600000000779000001019332AF    HBYHVTB 005600390040
BI00B32AF    JTB2032        202202187283-1156                CONNECTOR                CCN000001600000001600FN00000000020220301000001600NNM   20211224150720    4N0N  00000080000000877600001078032AF    HBYHVTB 005600390040
BI00B32AF    JTB2033        202202257283-1156                CONNECTOR                CCN000006400000006400FN00000000020220301000006400NNM   20211224150720    4N0N  00000080000000877600001078032AF    HBYHVTB 005600390040
BI00B32AF    JTB2034        202203047283-1156                CONNECTOR                CCN000005600000005600FN00000000020220301000005600NNM   20211224150720    4N0N  00000080000000877600001078032AF    HBYHVTB 005600390040
BI00B32AF    JTB2031        202202117283-4576                HOUSING FEMALE ASS'Y     CCN000019200000019200FN00000000020220301000019200NNM   20211224150720    4N0N  00000480000000651300000871332AF    HBYHVTB 005500360039
BI00B32AF    JTB2032        202202187283-4576                HOUSING FEMALE ASS'Y     CCN000019200000019200FN00000000020220301000019200NNM   20211224150720    4N0N  00000480000000651300000871332AF    HBYHVTB 005500360039
BI00B32AF    JTB2033        202202257283-4576                HOUSING FEMALE ASS'Y     CCN000024000000024000FN00000000020220301000024000NNM   20211224150720    4N0N  00000480000000651300000871332AF    HBYHVTB 005500360039
BI00B32AF    JTB2034        202203047283-4576                HOUSING FEMALE ASS'Y     CCN000019200000019200FN00000000020220301000019200NNM   20211224150720    4N0N  00000480000000651300000871332AF    HBYHVTB 005500360039
BI00B32AF    JTB2031        202202117283-4576-30             HOUSING FEMALE ASS'Y     CCN000004800000004800FN00000000020220301000004800NNM   20211224150720    4N0N  00000480000000651300000871332AF    HBYHVTB 005500360039
BI00B32AF    JTB2032        202202187283-4576-30             HOUSING FEMALE ASS'Y     CCN000004800000004800FN00000000020220301000004800NNM   20211224150720    4N0N  00000480000000651300000871332AF    HBYHVTB 005500360039
BI00B32AF    JTB2031        202202117283-4577                CONNECTOR HOUSING        CCN000004800000004800FN00000000020220301000004800NNM   20211224150720    4N0N  00000480000000916800001136832AF    HBYHVTB 005500360039
BI00B32AF    JTB2032        202202187283-4577                CONNECTOR HOUSING        CCN000004800000004800FN00000000020220301000004800NNM   20211224150720    4N0N  00000480000000916800001136832AF    HBYHVTB 005500360039
BI00B32AF    JTB2033        202202257283-4577                CONNECTOR HOUSING        CCN000004800000004800FN00000000020220301000004800NNM   20211224150720    4N0N  00000480000000916800001136832AF    HBYHVTB 005500360039
BI00B32AF    JTB2031        202202117283-4855                CONNECTOR HOUSING        CCN000002400000002400FN00000000020220301000002400NNM   20211224150720    4N0N  00000240000001188400001400032AF    HBYHVTB 005500360039
BI00B32AF    JTB2032        202202187283-4855                CONNECTOR HOUSING        CCN000002400000002400FN00000000020220301000002400NNM   20211224150720    4N0N  00000240000001188400001400032AF    HBYHVTB 005500360039
BI00B32AF    JTB2033        202202257283-4855                CONNECTOR HOUSING        CCN000002400000002400FN00000000020220301000002400NNM   20211224150720    4N0N  00000240000001188400001400032AF    HBYHVTB 005500360039
BI00B32AF    JTB2034        202203047283-4855                CONNECTOR HOUSING        CCN000002400000002400FN00000000020220301000002400NNM   20211224150720    4N0N  00000240000001188400001400032AF    HBYHVTB 005500360039
BI00B32AF    JTB2031        202202117283-5830-30             CONNECTOR                CCN000006000000006000FN00000000020220301000006000NNM   20211224150720    1N0N  00000600000000954000001104032AF    HBYHVTB 005500360039
BI00B32AF    JTB2031        202202117283-5845                CONNECTOR HOUSING        CCN000006000000006000FN00000000020220301000006000NNM   20211224150720    1N0N  00000600000000444000000606332AF    HBYHVTB 005400370024
BI00B32AF    JTB2032        202202187283-5845                CONNECTOR HOUSING        CCN000024000000024000FN00000000020220301000024000NNM   20211224150720    1N0N  00000600000000444000000606332AF    HBYHVTB 005400370024
BI00B32AF    JTB2033        202202257283-5845                CONNECTOR HOUSING        CCN000030000000030000FN00000000020220301000030000NNM   20211224150720    1N0N  00000600000000444000000606332AF    HBYHVTB 005400370024
BI00B32AF    JTB2034        202203047283-5845                CONNECTOR HOUSING        CCN000024000000024000FN00000000020220301000024000NNM   20211224150720    1N0N  00000600000000444000000606332AF    HBYHVTB 005400370024
BI00B32AF    JTB2031        202202117283-5845-30             CONNECTOR HOUSING        CCN000012000000012000FN00000000020220301000012000NNM   20211224150720    1N0N  00000600000000444000000606332AF    HBYHVTB 005400370024
BI00B32AF    JTB2032        202202187283-5845-30             CONNECTOR HOUSING        CCN000006000000006000FN00000000020220301000006000NNM   20211224150720    1N0N  00000600000000444000000606332AF    HBYHVTB 005400370024
BI00B32AF    JTB2033        202202257283-5845-30             CONNECTOR HOUSING        CCN000006000000006000FN00000000020220301000006000NNM   20211224150720    1N0N  00000600000000444000000606332AF    HBYHVTB 005400370024
BI00B32AF    JTB2033        202202257283-5846                HOUSING                  CCN000004500000004500FN00000000020220301000004500NNM   20211224150720    1N0N  00000150000000885000001102032AF    HBYHVTB 005600390040
BI00B32AF    JTB2031        202202117286-1899                HOUSING SUB ASSEMBLY     CCN000005376000005376FN00000000020220301000005376NNM   20211224150720    4N0N  00000033600000814800001010832AF    HBYHVTB 005400370024
BI00B32AF    JTB2032        202202187286-1899                HOUSING SUB ASSEMBLY     CCN000009072000009072FN00000000020220301000009072NNM   20211224150720    4N0N  00000033600000814800001010832AF    HBYHVTB 005400370024
BI00B32AF    JTB2033        202202257286-1899                HOUSING SUB ASSEMBLY     CCN000009408000009408FN00000000020220301000009408NNM   20211224150720    4N0N  00000033600000814800001010832AF    HBYHVTB 005400370024
BI00B32AF    JTB2034        202203047286-1899                HOUSING SUB ASSEMBLY     CCN000008400000008400FN00000000020220301000008400NNM   20211224150720    4N0N  00000033600000814800001010832AF    HBYHVTB 005400370024
BI00B32AF    JTB2031        202202117286-1900                CONNECTOR HOUSING        CCN000004800000004800FN00000000020220301000004800NNM   20211224150720    4N0N  00000480000001161600001376632AF    HBYHVTB 005500360039
BI00B32AF    JTB2032        202202187286-1900                CONNECTOR HOUSING        CCN000009600000009600FN00000000020220301000009600NNM   20211224150720    4N0N  00000480000001161600001376632AF    HBYHVTB 005500360039
BI00B32AF    JTB2033        202202257286-1900                CONNECTOR HOUSING        CCN000009600000009600FN00000000020220301000009600NNM   20211224150720    4N0N  00000480000001161600001376632AF    HBYHVTB 005500360039
BI00B32AF    JTB2034        202203047286-1900                CONNECTOR HOUSING        CCN000009600000009600FN00000000020220301000009600NNM   20211224150720    4N0N  00000480000001161600001376632AF    HBYHVTB 005500360039
BI00B32AF    JTB2031        202202117286-4097                CONNECTOR MALE ASS'Y     CCN000004800000004800FN00000000020220301000004800NNM   20211224150720    1N0N  00000160000000768000000978032AF    HBYHVTB 005500360039
BI00B32AF    JTB2032        202202187286-4097                CONNECTOR MALE ASS'Y     CCN000008000000008000FN00000000020220301000008000NNM   20211224150720    1N0N  00000160000000768000000978032AF    HBYHVTB 005500360039
BI00B32AF    JTB2033        202202257286-4097                CONNECTOR MALE ASS'Y     CCN000004800000004800FN00000000020220301000004800NNM   20211224150720    1N0N  00000160000000768000000978032AF    HBYHVTB 005500360039
BI00B32AF    JTB2034        202203047286-4097                CONNECTOR MALE ASS'Y     CCN000004800000004800FN00000000020220301000004800NNM   20211224150720    1N0N  00000160000000768000000978032AF    HBYHVTB 005500360039
BI00B32AF    JTB2031        202202117286-4097-90             CONNECTOR MALE ASS'Y     CCN000004800000004800FN00000000020220301000004800NNM   20211224150720    1N0N  00000160000000768000000978032AF    HBYHVTB 005500360039
BI00B32AF    JTB2032        202202187286-4097-90             CONNECTOR MALE ASS'Y     CCN000003200000003200FN00000000020220301000003200NNM   20211224150720    1N0N  00000160000000768000000978032AF    HBYHVTB 005500360039
BI00B32AF    JTB2033        202202257286-4097-90             CONNECTOR MALE ASS'Y     CCN000003200000003200FN00000000020220301000003200NNM   20211224150720    1N0N  00000160000000768000000978032AF    HBYHVTB 005500360039
BI00B32AF    JTB2031        202202117287-1915                CONNECTOR ASS'Y          CCN000014400000014400FN00000000020220301000014400NNM   20211224150720    4N0N  00000240000000666500000923132AF    HBYHVTB 005500360039
BI00B32AF    JTB2032        202202187287-1915                CONNECTOR ASS'Y          CCN000009600000009600FN00000000020220301000009600NNM   20211224150720    4N0N  00000240000000666500000923132AF    HBYHVTB 005500360039
BI00B32AF    JTB2033        202202257287-1915                CONNECTOR ASS'Y          CCN000009600000009600FN00000000020220301000009600NNM   20211224150720    4N0N  00000240000000666500000923132AF    HBYHVTB 005500360039
BI00B32AF    JTB2034        202203047287-1915                CONNECTOR ASS'Y          CCN000007200000007200FN00000000020220301000007200NNM   20211224150720    4N0N  00000240000000666500000923132AF    HBYHVTB 005500360039
BI00B32AF    JTB2031        202202117287-1915-30             CONNECTOR ASS'Y          CCN000007200000007200FN00000000020220301000007200NNM   20211224150720    4N0N  00000240000000666500000923132AF    HBYHVTB 005500360039
BI00B32AF    JTB2032        202202187287-1915-30             CONNECTOR ASS'Y          CCN000004800000004800FN00000000020220301000004800NNM   20211224150720    4N0N  00000240000000666500000923132AF    HBYHVTB 005500360039
BI00B32AF    JTB2033        202202257287-1915-30             CONNECTOR ASS'Y          CCN000002400000002400FN00000000020220301000002400NNM   20211224150720    4N0N  00000240000000666500000923132AF    HBYHVTB 005500360039
BI00B32AF    JTB2034        202203047287-1915-30             CONNECTOR ASS'Y          CCN000002400000002400FN00000000020220301000002400NNM   20211224150720    4N0N  00000240000000666500000923132AF    HBYHVTB 005500360039
BI00B32AF    JTB2031        202202117287-1915-40             CONNECTOR ASS'Y          CCN000004800000004800FN00000000020220301000004800NNM   20211224150720    4N0N  00000240000000666500000923132AF    HBYHVTB 005500360039
BI00B32AF    JTB2032        202202187287-1915-40             CONNECTOR ASS'Y          CCN000004800000004800FN00000000020220301000004800NNM   20211224150720    4N0N  00000240000000666500000923132AF    HBYHVTB 005500360039
BI00B32AF    JTB2033        202202257287-1915-40             CONNECTOR ASS'Y          CCN000002400000002400FN00000000020220301000002400NNM   20211224150720    4N0N  00000240000000666500000923132AF    HBYHVTB 005500360039
BI00B32AF    JTB2034        202203047287-1915-40             CONNECTOR ASS'Y          CCN000002400000002400FN00000000020220301000002400NNM   20211224150720    4N0N  00000240000000666500000923132AF    HBYHVTB 005500360039
BI00B32AF    JTB2031        202202117287-1917-40             CONNECTOR FEMALE         CCN000004800000004800FN00000000020220301000004800NNM   20211224150720    4N0N  00000240000001060800001312532AF    HBYHVTB 005500360039
BI00B32AF    JTB2032        202202187287-1917-40             CONNECTOR FEMALE         CCN000002400000002400FN00000000020220301000002400NNM   20211224150720    4N0N  00000240000001060800001312532AF    HBYHVTB 005500360039
BI00B32AF    JTB2033        202202257287-1917-40             CONNECTOR FEMALE         CCN000002400000002400FN00000000020220301000002400NNM   20211224150720    4N0N  00000240000001060800001312532AF    HBYHVTB 005500360039
BI00B32AF    JTB2034        202203047287-1917-40             CONNECTOR FEMALE         CCN000002400000002400FN00000000020220301000002400NNM   20211224150720    4N0N  00000240000001060800001312532AF    HBYHVTB 005500360039
BI00B32AF    JTB2031        202202117287-3885                HYBRID FEMALE ASS'Y      CCN000009600000009600FN00000000020220301000009600NNM   20211224150720    1N0N  00000240000001029600001249632AF    HBYHVTB 005500360039
BI00B32AF    JTB2032        202202187287-3885                HYBRID FEMALE ASS'Y      CCN000004800000004800FN00000000020220301000004800NNM   20211224150720    1N0N  00000240000001029600001249632AF    HBYHVTB 005500360039
BI00B32AF    JTB2033        202202257287-3885                HYBRID FEMALE ASS'Y      CCN000004800000004800FN00000000020220301000004800NNM   20211224150720    1N0N  00000240000001029600001249632AF    HBYHVTB 005500360039
BI00B32AF    JTB2034        202203047287-3885                HYBRID FEMALE ASS'Y      CCN000004800000004800FN00000000020220301000004800NNM   20211224150720    1N0N  00000240000001029600001249632AF    HBYHVTB 005500360039
BI00B32AF    JTB2031        202202117287-3885-30             HYBRID FEMALE ASS'Y      CCN000002400000002400FN00000000020220301000002400NNM   20211224150720    1N0N  00000240000001029600001249632AF    HBYHVTB 005500360039
BI00B32AF    JTB2032        202202187287-3885-30             HYBRID FEMALE ASS'Y      CCN000002400000002400FN00000000020220301000002400NNM   20211224150720    1N0N  00000240000001029600001249632AF    HBYHVTB 005500360039
BI00B32AF    JTB2033        202202257287-3885-30             HYBRID FEMALE ASS'Y      CCN000002400000002400FN00000000020220301000002400NNM   20211224150720    1N0N  00000240000001029600001249632AF    HBYHVTB 005500360039
BI00B32AF    JTB2031        202202117289-3342                HOUSING FEMALE ASS'Y     CCN000002400000002400FN00000000020220301000002400NNM   20211224150720    1N0N  00000240000000686400000901432AF    HBYHVTB 005500360039
BI00B32AF    JTB2031        202202117289-3342-30             HOUSING FEMALE ASS'Y     CCN000057600000057600FN00000000020220301000057600NNM   20211224150720    1N0N  00000240000000686400000901432AF    HBYHVTB 005500360039
BI00B32AF    JTB2032        202202187289-3342-30             HOUSING FEMALE ASS'Y     CCN000055200000055200FN00000000020220301000055200NNM   20211224150720    1N0N  00000240000000686400000901432AF    HBYHVTB 005500360039
BI00B32AF    JTB2033        202202257289-3342-30             HOUSING FEMALE ASS'Y     CCN000064800000064800FN00000000020220301000064800NNM   20211224150720    1N0N  00000240000000686400000901432AF    HBYHVTB 005500360039
BI00B32AF    JTB2034        202203047289-3342-30             HOUSING FEMALE ASS'Y     CCN000031200000031200FN00000000020220301000031200NNM   20211224150720    1N0N  00000240000000686400000901432AF    HBYHVTB 005500360039
BI00B32AF    JTB2032        202202187289-5011-30             HOUSING FEMALE ASS'Y     CCN000002400000002400FN00000000020220301000002400NNM   20211224150720    4N0N  00000240000001171700001368632AF    HBYHVTB 005500360039
BI00B32AF    JTB2033        202202257289-5011-30             HOUSING FEMALE ASS'Y     CCN000019200000019200FN00000000020220301000019200NNM   20211224150720    4N0N  00000240000001171700001368632AF    HBYHVTB 005500360039
BI00B32AF    JTB2034        202203047289-5011-30             HOUSING FEMALE ASS'Y     CCN000014400000014400FN00000000020220301000014400NNM   20211224150720    4N0N  00000240000001171700001368632AF    HBYHVTB 005500360039
BI00B32AF    JTB2031        202202117298-1865-30             HOUSING FEMALE ASS'Y     CCN000004800000004800FN00000000020220301000004800NNM   20211224150720    4N0N  00000240000001003200001204532AF    HBYHVTB 005500360039
BI00B32AF    JTB2032        202202187298-1865-30             HOUSING FEMALE ASS'Y     CCN000004800000004800FN00000000020220301000004800NNM   20211224150720    4N0N  00000240000001003200001204532AF    HBYHVTB 005500360039
BI00B32AF    JTB2033        202202257298-1865-30             HOUSING FEMALE ASS'Y     CCN000004800000004800FN00000000020220301000004800NNM   20211224150720    4N0N  00000240000001003200001204532AF    HBYHVTB 005500360039
BI00B32AF    JTB2034        202203047298-1865-30             HOUSING FEMALE ASS'Y     CCN000002400000002400FN00000000020220301000002400NNM   20211224150720    4N0N  00000240000001003200001204532AF    HBYHVTB 005500360039
BI00B32AF    JTB2031        202202117298-1869-30             HOUSING FEMALE ASS'Y     CCN000001200000001200FN00000000020220301000001200NNM   20211224150720    4N0N  00000120000000737000000939832AF    HBYHVTB 005500360039
BI00B32AF    JTB2032        202202187298-1869-30             HOUSING FEMALE ASS'Y     CCN000001200000001200FN00000000020220301000001200NNM   20211224150720    4N0N  00000120000000737000000939832AF    HBYHVTB 005500360039
BI00B32AF    JTB2033        202202257298-1869-30             HOUSING FEMALE ASS'Y     CCN000002400000002400FN00000000020220301000002400NNM   20211224150720    4N0N  00000120000000737000000939832AF    HBYHVTB 005500360039
BI00B32AF    JTB2034        202203047298-1869-30             HOUSING FEMALE ASS'Y     CCN000001200000001200FN00000000020220301000001200NNM   20211224150720    4N0N  00000120000000737000000939832AF    HBYHVTB 005500360039
BI00B32AF    JTB2031        202202117298-2278-30             HOUSING FEMALE ASS'Y     CCN000002400000002400FN00000000020220301000002400NNM   20211224150720    4N0N  00000240000001091700001295432AF    HBYHVTB 005500360039
BI00B32AF    JTB2031        202202117298-2509-30             HOUSING FEMALE ASS'Y     CCN000002400000002400FN00000000020220301000002400NNM   20211224150720    4N0N  00000120000000857500001062532AF    HBYHVTB 005500360039
BI00B32AF    JTB2032        202202187298-2509-30             HOUSING FEMALE ASS'Y     CCN000002400000002400FN00000000020220301000002400NNM   20211224150720    4N0N  00000120000000857500001062532AF    HBYHVTB 005500360039
BI00B32AF    JTB2033        202202257298-2509-30             HOUSING FEMALE ASS'Y     CCN000001200000001200FN00000000020220301000001200NNM   20211224150720    4N0N  00000120000000857500001062532AF    HBYHVTB 005500360039
BI00B32AF    JTB2031        202202117298-5955                CONNECTOR SUB ASSY       CCN000014400000014400FN00000000020220301000014400NNM   20211224150720    4N0N  00000720000001029600001253032AF    HBYHVTB 005500360039
BI00B32AF    JTB2032        202202187298-5955                CONNECTOR SUB ASSY       CCN000014400000014400FN00000000020220301000014400NNM   20211224150720    4N0N  00000720000001029600001253032AF    HBYHVTB 005500360039
BI00B32AF    JTB2033        202202257298-5955                CONNECTOR SUB ASSY       CCN000014400000014400FN00000000020220301000014400NNM   20211224150720    4N0N  00000720000001029600001253032AF    HBYHVTB 005500360039
BI00B32AF    JTB2034        202203047298-5955                CONNECTOR SUB ASSY       CCN000014400000014400FN00000000020220301000014400NNM   20211224150720    4N0N  00000720000001029600001253032AF    HBYHVTB 005500360039
BI00B32AF    JTB2031        202202117388-0314                CONNECTOR ASS'Y          CCN000004800000004800FN00000000020220301000004800NNM   20211224150720    4N0N  00000120000001038000001132332AF    HBYHVTB 005400370024
BI00B32AF    JTB2032        202202187388-0314                CONNECTOR ASS'Y          CCN000012000000012000FN00000000020220301000012000NNM   20211224150720    4N0N  00000120000001038000001132332AF    HBYHVTB 005400370024
BI00B32AF    JTB2033        202202257388-0314                CONNECTOR ASS'Y          CCN000010800000010800FN00000000020220301000010800NNM   20211224150720    4N0N  00000120000001038000001132332AF    HBYHVTB 005400370024
BI00B32AF    JTB2034        202203047388-0314                CONNECTOR ASS'Y          CCN000008400000008400FN00000000020220301000008400NNM   20211224150720    4N0N  00000120000001038000001132332AF    HBYHVTB 005400370024
BI00B32AF    JTB2031        202202117388-0317-60             CONNECTOR ASS'Y          CCN000008400000008400FN00000000020220301000008400NNM   20211224150720    4N0N  00000120000001034400001129332AF    HBYHVTB 005400370024
BI00B32AF    JTB2032        202202187388-0317-60             CONNECTOR ASS'Y          CCN000012000000012000FN00000000020220301000012000NNM   20211224150720    4N0N  00000120000001034400001129332AF    HBYHVTB 005400370024
BI00B32AF    JTB2033        202202257388-0317-60             CONNECTOR ASS'Y          CCN000010800000010800FN00000000020220301000010800NNM   20211224150720    4N0N  00000120000001034400001129332AF    HBYHVTB 005400370024
BI00B32AF    JTB2034        202203047388-0317-60             CONNECTOR ASS'Y          CCN000009600000009600FN00000000020220301000009600NNM   20211224150720    4N0N  00000120000001034400001129332AF    HBYHVTB 005400370024
BI00B32AF    #JTB2031       202202117047-5654-30             CLIP                     CCN000010000000010000FN00000000020220301000010000NNM   20211224150713    2F0F  00000500000000657000000825332AF    HBYHVTB 005500360039
BI00B32AF    #JTB2032       202202187047-5654-30             CLIP                     CCN000010000000010000FN00000000020220301000010000NNM   20211224150713    2F0F  00000500000000657000000825332AF    HBYHVTB 005500360039
BI00B32AF    #JTB2033       202202257047-5654-30             CLIP                     CCN000010000000010000FN00000000020220301000010000NNM   20211224150713    2F0F  00000500000000657000000825332AF    HBYHVTB 005500360039
BI00B32AF    #JTB2034       202203047047-5654-30             CLIP                     CCN000005000000005000FN00000000020220301000005000NNM   20211224150713    2F0F  00000500000000657000000825332AF    HBYHVTB 005500360039
BI00B32AF    #JTB2031       202202117116-4021                TERMINAL                 CCN000040500000040500FN00000000020220301000040500NNM   20211224150713    2F0P  00001350000000534600000868832AF    HBYHVTB 006400630015
BI00B32AF    #JTB2032       202202187116-4021                TERMINAL                 CCN000027000000027000FN00000000020220301000027000NNM   20211224150713    2F0P  00001350000000534600000868832AF    HBYHVTB 006400630015
BI00B32AF    #JTB2033       202202257116-4021                TERMINAL                 CCN000027000000027000FN00000000020220301000027000NNM   20211224150713    2F0P  00001350000000534600000868832AF    HBYHVTB 006400630015
BI00B32AF    #JTB2032       202202187123-6347                CONNECTOR HOUSING        CCN000001600000001600FN00000000020220301000001600NNM   20211224150713    2F0F  00000160000000647000000904832AF    HBYHVTB 005500360039
BI00B32AF    #JTB2033       202202257123-6347                CONNECTOR HOUSING        CCN000009600000009600FN00000000020220301000009600NNM   20211224150713    2F0F  00000160000000647000000904832AF    HBYHVTB 005500360039
BI00B32AF    #JTB2034       202203047123-6347                CONNECTOR HOUSING        CCN000008000000008000FN00000000020220301000008000NNM   20211224150713    2F0F  00000160000000647000000904832AF    HBYHVTB 005500360039
BI00B32AF    #JTB2032       202202187123-6423-30             CONNECTOR                CCN000006000000006000FN00000000020220301000006000NNM   20211224150713    2F0F  00000200000001002000001167632AF    HBYHVTB 005600390023
BI00B32AF    #JTB2033       202202257123-6423-30             CONNECTOR                CCN000006000000006000FN00000000020220301000006000NNM   20211224150713    2F0F  00000200000001002000001167632AF    HBYHVTB 005600390023
BI00B32AF    #JTB2034       202203047123-6423-30             CONNECTOR                CCN000004000000004000FN00000000020220301000004000NNM   20211224150713    2F0F  00000200000001002000001167632AF    HBYHVTB 005600390023
BI00B32AF    #JTB2031       202202117157-3992-90             CONNECTOR SEALED         CCN000040000000040000FN00000000020220301000040000NNM   20211224150713    2C0C  00004000000000300000000363332AF    HBYHVTB 002700430014
BI00B32AF    #JTB2033       202202257157-3992-90             CONNECTOR SEALED         CCN000040000000040000FN00000000020220301000040000NNM   20211224150713    2C0C  00004000000000300000000363332AF    HBYHVTB 002700430014
BI00B32AF    #JTB2032       202202187158-3003-90             RUBBER STOPPER           CCN000020000000020000FN00000000020220301000020000NNM   20211224150713    2C0C  00002000000000250000000306032AF    HBYHVTB 002700430014
BI00B32AF    #JTB2031       202202117158-3005-80             RUBBER STOPPER           CCN000020000000020000FN00000000020220301000020000NNM   20211224150713    2H0H  00002000000000210000000268732AF    HBYHVTB 002700430014
BI00B32AF    #JTB2032       202202187158-3007-10             RUBBER STOPPER           CCN000020000000020000FN00000000020220301000020000NNM   20211224150713    2H0H  00002000000000308000000362732AF    HBYHVTB 002700430014
BI00B32AF    #JTB2031       202202117158-3008-80             RUBBER STOPPER           CCN000020000000020000FN00000000020220301000020000NNM   20211224150713    2C0C  00002000000000288000000343032AF    HBYHVTB 004300270014
BI00B32AF    #JTB2032       202202187158-3008-80             RUBBER STOPPER           CCN000020000000020000FN00000000020220301000020000NNM   20211224150713    2C0C  00002000000000288000000343032AF    HBYHVTB 004300270014
BI00B32AF    #JTB2033       202202257158-3008-80             RUBBER STOPPER           CCN000020000000020000FN00000000020220301000020000NNM   20211224150713    2C0C  00002000000000288000000343032AF    HBYHVTB 004300270014
BI00B32AF    #JTB2032       202202187158-3120-90             CONNECTOR WIRE SEAL      CCN000080000000080000FN00000000020220301000080000NNM   20211224150713    2C0C  00002000000000136000000194032AF    HBYHVTB 002700430014
BI00B32AF    #JTB2033       202202257158-3120-90             CONNECTOR WIRE SEAL      CCN000100000000100000FN00000000020220301000100000NNM   20211224150713    2C0C  00002000000000136000000194032AF    HBYHVTB 002700430014
BI00B32AF    #JTB2034       202203047158-3120-90             CONNECTOR WIRE SEAL      CCN000040000000040000FN00000000020220301000040000NNM   20211224150713    2C0C  00002000000000136000000194032AF    HBYHVTB 002700430014
BI00B32AF    #JTB2031       202202117158-3121-80             WIRE SEAL                CCN000020000000020000FN00000000020220301000020000NNM   20211224150713    2C0C  00002000000000118000000187332AF    HBYHVTB 002700430014
BI00B32AF    #JTB2032       202202187158-3121-80             WIRE SEAL                CCN000020000000020000FN00000000020220301000020000NNM   20211224150713    2C0C  00002000000000118000000187332AF    HBYHVTB 002700430014
BI00B32AF    #JTB2033       202202257158-3121-80             WIRE SEAL                CCN000020000000020000FN00000000020220301000020000NNM   20211224150713    2C0C  00002000000000118000000187332AF    HBYHVTB 002700430014
BI00B32AF    #JTB2031       202202117183-1615                HOUSING                  CCN000004800000004800FN00000000020220301000004800NNM   20211224150713    2F0F  00000480000000757000001042032AF    HBYHVTB 005500360039
BI00B32AF    #JTB2031       202202117183-1616-30             CONNECTOR HOUSING        CCN000004800000004800FN00000000020220301000004800NNM   20211224150713    2F0F  00000240000000557500000837132AF    HBYHVTB 005500360039
BI00B32AF    #JTB2032       202202187183-1616-30             CONNECTOR HOUSING        CCN000002400000002400FN00000000020220301000002400NNM   20211224150713    2F0F  00000240000000557500000837132AF    HBYHVTB 005500360039
BI00B32AF    #JTB2033       202202257183-1616-30             CONNECTOR HOUSING        CCN000002400000002400FN00000000020220301000002400NNM   20211224150713    2F0F  00000240000000557500000837132AF    HBYHVTB 005500360039
BI00B32AF    #JTB2034       202203047183-1616-30             CONNECTOR HOUSING        CCN000002400000002400FN00000000020220301000002400NNM   20211224150713    2F0F  00000240000000557500000837132AF    HBYHVTB 005500360039
BI00B32AF    #JTB2031       202202117183-2413                CONNECTOR HOUSING        CCN000033600000033600FN00000000020220301000033600NNM   20211224150713    2F0F  00000480000000478100000760032AF    HBYHVTB 005500360039
BI00B32AF    #JTB2032       202202187183-2413                CONNECTOR HOUSING        CCN000019200000019200FN00000000020220301000019200NNM   20211224150713    2F0F  00000480000000478100000760032AF    HBYHVTB 005500360039
BI00B32AF    #JTB2033       202202257183-2413                CONNECTOR HOUSING        CCN000019200000019200FN00000000020220301000019200NNM   20211224150713    2F0F  00000480000000478100000760032AF    HBYHVTB 005500360039
BI00B32AF    #JTB2034       202203047183-2413                CONNECTOR HOUSING        CCN000019200000019200FN00000000020220301000019200NNM   20211224150713    2F0F  00000480000000478100000760032AF    HBYHVTB 005500360039
BI00B32AF    #JTB2031       202202117183-2413-30             CONNECTOR HOUSING        CCN000009600000009600FN00000000020220301000009600NNM   20211224150713    2F0F  00000480000000477600000759532AF    HBYHVTB 005500360039
BI00B32AF    #JTB2032       202202187183-2413-30             CONNECTOR HOUSING        CCN000004800000004800FN00000000020220301000004800NNM   20211224150713    2F0F  00000480000000477600000759532AF    HBYHVTB 005500360039
BI00B32AF    #JTB2033       202202257183-2413-30             CONNECTOR HOUSING        CCN000004800000004800FN00000000020220301000004800NNM   20211224150713    2F0F  00000480000000477600000759532AF    HBYHVTB 005500360039
BI00B32AF    #JTB2034       202203047183-2413-30             CONNECTOR HOUSING        CCN000004800000004800FN00000000020220301000004800NNM   20211224150713    2F0F  00000480000000477600000759532AF    HBYHVTB 005500360039
BI00B32AF    #JTB2032       202202187183-2414                CONNECTOR HOUSING        CCN000004800000004800FN00000000020220301000004800NNM   20211224150713    2F0F  00000480000000779200001061032AF    HBYHVTB 005500360039
BI00B32AF    #JTB2033       202202257183-2414                CONNECTOR HOUSING        CCN000009600000009600FN00000000020220301000009600NNM   20211224150713    2F0F  00000480000000779200001061032AF    HBYHVTB 005500360039
BI00B32AF    #JTB2034       202203047183-2414                CONNECTOR HOUSING        CCN000004800000004800FN00000000020220301000004800NNM   20211224150713    2F0F  00000480000000779200001061032AF    HBYHVTB 005500360039
BI00B32AF    #JTB2031       202202117183-2415                CONNECTOR HOUSING        CCN000019200000019200FN00000000020220301000019200NNM   20211224150713    2F0F  00000480000000798200001091432AF    HBYHVTB 005500360039
BI00B32AF    #JTB2032       202202187183-2415                CONNECTOR HOUSING        CCN000009600000009600FN00000000020220301000009600NNM   20211224150713    2F0F  00000480000000798200001091432AF    HBYHVTB 005500360039
BI00B32AF    #JTB2033       202202257183-2415                CONNECTOR HOUSING        CCN000014400000014400FN00000000020220301000014400NNM   20211224150713    2F0F  00000480000000798200001091432AF    HBYHVTB 005500360039
BI00B32AF    #JTB2034       202203047183-2415                CONNECTOR HOUSING        CCN000004800000004800FN00000000020220301000004800NNM   20211224150713    2F0F  00000480000000798200001091432AF    HBYHVTB 005500360039
BI00B32AF    #JTB2034       202203047183-2418-30             CONNECTOR HOUSING        CCN000004800000004800FN00000000020220301000004800NNM   20211224150713    2F0F  00000480000000917000001235332AF    HBYHVTB 005500360039
BI00B32AF    #JTB2033       202202257186-8851                HOUSING MALE             CCN000004000000004000FN00000000020220301000004000NNM   20211224150713    2F0F  00000100000000782200000906232AF    HBYHVTB 005400370024
BI00B32AF    #JTB2034       202203047186-8851                HOUSING MALE             CCN000004000000004000FN00000000020220301000004000NNM   20211224150713    2F0F  00000100000000782200000906232AF    HBYHVTB 005400370024
BI00B32AF    #JTB2031       202202117187-1616                HOUSING FEMALE           CCN000008000000008000FN00000000020220301000008000NNM   20211224150713    2F0F  00000400000001152000001262032AF    HBYHVTB 005500360039
BI00B32AF    #JTB2032       202202187187-1616                HOUSING FEMALE           CCN000004000000004000FN00000000020220301000004000NNM   20211224150713    2F0F  00000400000001152000001262032AF    HBYHVTB 005500360039
BI00B32AF    #JTB2033       202202257187-1616                HOUSING FEMALE           CCN000004000000004000FN00000000020220301000004000NNM   20211224150713    2F0F  00000400000001152000001262032AF    HBYHVTB 005500360039
BI00B32AF    #JTB2033       202202257282-1030                CONNECTOR MALE ASS'Y     CCN000005000000005000FN00000000020220301000005000NNM   20211224150713    2N0N  00000100000000365000000487532AF    HBYHVTB 005400370024
BI00B32AF    #JTB2034       202203047282-1030                CONNECTOR MALE ASS'Y     CCN000005000000005000FN00000000020220301000005000NNM   20211224150713    2N0N  00000100000000365000000487532AF    HBYHVTB 005400370024
BI00B32AF    #JTB2031       202202117282-5528-70             HOUSING MALE ASS'Y       CCN000005000000005000FN00000000020220301000005000NNM   20211224150713    2N0N  00000100000000230000000339032AF    HBYHVTB 005400370024
BI00B32AF    #JTB2032       202202187282-5528-70             HOUSING MALE ASS'Y       CCN000008000000008000FN00000000020220301000008000NNM   20211224150713    2N0N  00000100000000230000000339032AF    HBYHVTB 005400370024
BI00B32AF    #JTB2033       202202257282-5528-70             HOUSING MALE ASS'Y       CCN000010000000010000FN00000000020220301000010000NNM   20211224150713    2N0N  00000100000000230000000339032AF    HBYHVTB 005400370024
BI00B32AF    #JTB2034       202203047282-5528-70             HOUSING MALE ASS'Y       CCN000004000000004000FN00000000020220301000004000NNM   20211224150713    2N0N  00000100000000230000000339032AF    HBYHVTB 005400370024
BI00B32AF    #JTB2031       202202117283-1150                HOUSING FEMALE ASS'Y     CCN000002000000002000FN00000000020220301000002000NNM   20211224150713    2N0N  00000100000000607000000719532AF    HBYHVTB 005400370024
BI00B32AF    #JTB2032       202202187283-1150                HOUSING FEMALE ASS'Y     CCN000002000000002000FN00000000020220301000002000NNM   20211224150713    2N0N  00000100000000607000000719532AF    HBYHVTB 005400370024
BI00B32AF    #JTB2033       202202257283-1150                HOUSING FEMALE ASS'Y     CCN000001000000001000FN00000000020220301000001000NNM   20211224150713    2N0N  00000100000000607000000719532AF    HBYHVTB 005400370024
BI00B32AF    #JTB2034       202203047283-1150                HOUSING FEMALE ASS'Y     CCN000001000000001000FN00000000020220301000001000NNM   20211224150713    2N0N  00000100000000607000000719532AF    HBYHVTB 005400370024
BI00B32AF    #JTB2032       202202187283-8123                CONNECTOR HOUSING        CCN000004000000004000FN00000000020220301000004000NNM   20211224150713    2N0N  00000400000000380000000531732AF    HBYHVTB 005600390023
BI00B32AF    #JTB2033       202202257283-8123                CONNECTOR HOUSING        CCN000004000000004000FN00000000020220301000004000NNM   20211224150713    2N0N  00000400000000380000000531732AF    HBYHVTB 005600390023
BI00B32AF    #JTB2034       202203047283-8123                CONNECTOR HOUSING        CCN000004000000004000FN00000000020220301000004000NNM   20211224150713    2N0N  00000400000000380000000531732AF    HBYHVTB 005600390023
BI00B32AF    #JTB2032       202202187287-1669                HOUSING FEMALE ASS'Y     CCN000006000000006000FN00000000020220301000006000NNM   20211224150713    2N0N  00000200000000788800000980832AF    HBYHVTB 005400370024
BI00B32AF    #JTB2033       202202257287-1669                HOUSING FEMALE ASS'Y     CCN000010000000010000FN00000000020220301000010000NNM   20211224150713    2N0N  00000200000000788800000980832AF    HBYHVTB 005400370024
BI00B32AF    #JTB2034       202203047287-1669                HOUSING FEMALE ASS'Y     CCN000004000000004000FN00000000020220301000004000NNM   20211224150713    2N0N  00000200000000788800000980832AF    HBYHVTB 005400370024
BI00B32AF    #JTB2032       202202187287-1670                HOUSING FEMALE ASS'Y     CCN000002800000002800FN00000000020220301000002800NNM   20211224150713    2N0N  00000280000000953100001145132AF    HBYHVTB 005400370024
BI00B32AF    #JTB2033       202202257287-1670                HOUSING FEMALE ASS'Y     CCN000005600000005600FN00000000020220301000005600NNM   20211224150713    2N0N  00000280000000953100001145132AF    HBYHVTB 005400370024
BI00B32AF    #JTB2034       202203047287-1670                HOUSING FEMALE ASS'Y     CCN000008400000008400FN00000000020220301000008400NNM   20211224150713    2N0N  00000280000000953100001145132AF    HBYHVTB 005400370024
BI00B32AF    #JTB2033       202202257287-1671                HOUSING FEMALE ASS'Y     CCN000010000000010000FN00000000020220301000010000NNM   20211224150713    2N0N  00000200000000782600000974632AF    HBYHVTB 005400370024
BI00B32AF    #JTB2034       202203047287-1671                HOUSING FEMALE ASS'Y     CCN000008000000008000FN00000000020220301000008000NNM   20211224150713    2N0N  00000200000000782600000974632AF    HBYHVTB 005400370024
BI00B32AF    #JTB2033       202202257287-1674                HYBRID FEMALE ASS'Y      CCN000010000000010000FN00000000020220301000010000NNM   20211224150713    2N0N  00000200000000810800001002832AF    HBYHVTB 005400370024
BI00B32AF    #JTB2034       202203047287-1674                HYBRID FEMALE ASS'Y      CCN000008000000008000FN00000000020220301000008000NNM   20211224150713    2N0N  00000200000000810800001002832AF    HBYHVTB 005400370024
BI00B32AF    #JTB2031       202202117287-7022                CONNECTOR FEMALE         CCN000001200000001200FN00000000020220301000001200NNM   20211224150713    2NON  00000120000000742800000853032AF    HBYHVTB 005400370024
BI00B32AF    #JTB2032       202202187287-7022                CONNECTOR FEMALE         CCN000001200000001200FN00000000020220301000001200NNM   20211224150713    2NON  00000120000000742800000853032AF    HBYHVTB 005400370024
BI00B32AF    #JTB2033       202202257287-7022                CONNECTOR FEMALE         CCN000002400000002400FN00000000020220301000002400NNM   20211224150713    2NON  00000120000000742800000853032AF    HBYHVTB 005400370024
BI00B32AF    #JTB2034       202203047287-7022                CONNECTOR FEMALE         CCN000001200000001200FN00000000020220301000001200NNM   20211224150713    2NON  00000120000000742800000853032AF    HBYHVTB 005400370024
BI00B32AF    #JTB2031       202202117297-1907-30             HOUSING MALE ASS'Y       CCN000003000000003000FN00000000020220301000003000NNM   20211224150713    2N0N  00000150000000451800000568032AF    HBYHVTB 005400370024
BI00B32AF    #JTB2032       202202187297-1907-30             HOUSING MALE ASS'Y       CCN000004500000004500FN00000000020220301000004500NNM   20211224150713    2N0N  00000150000000451800000568032AF    HBYHVTB 005400370024
BI00B32AF    #JTB2033       202202257297-1907-30             HOUSING MALE ASS'Y       CCN000003000000003000FN00000000020220301000003000NNM   20211224150713    2N0N  00000150000000451800000568032AF    HBYHVTB 005400370024
BI00B32AF    #JTB2034       202203047297-1907-30             HOUSING MALE ASS'Y       CCN000001500000001500FN00000000020220301000001500NNM   20211224150713    2N0N  00000150000000451800000568032AF    HBYHVTB 005400370024
BI00B32AF    #JTB2031       202202117297-1911-30             HOUSING MALE ASS'Y       CCN000001000000001000FN00000000020220301000001000NNM   20211224150713    2N0N  00000100000000486900000600132AF    HBYHVTB 005400370024
BI00B32AF    #JTB2032       202202187297-1911-30             HOUSING MALE ASS'Y       CCN000001000000001000FN00000000020220301000001000NNM   20211224150713    2N0N  00000100000000486900000600132AF    HBYHVTB 005400370024
BI00B32AF    #JTB2033       202202257297-1911-30             HOUSING MALE ASS'Y       CCN000002000000002000FN00000000020220301000002000NNM   20211224150713    2N0N  00000100000000486900000600132AF    HBYHVTB 005400370024
BI00A32CH    SJ21115HMW     202112277327-6884-30             MULTI FUSE               PCN000009504000009504FN00000000020211101000009504NNM00020211224144157    4N0N  00000028800000988900001154832CH    SJSAMIJF005400370024
BI00B32CH    #SJ2202AMMW    202201137283-8123-30             CONNECTOR HOUSING        CCN000004000000004000FN00000000020220201000004000NNE   20211224152145    2N0N  00000400000000380000000530032CH    SJSAMIJF005600390023
BI00B32CH    SJ2202B MW     202201137114-5746-02             TERMINAL                 CCN000021000000021000FN00000000020220201000021000NNE   20211224152215    4P0P  00002100000000695100000988732CH    SJSAMIJF006400630015
BI00B32CH    SJ2202B MW     202201137114-5748-02             TERMINAL                 CCN000012000000012000FN00000000020220201000012000NNE   20211224152215    4P0P  00001200000000444000000737632CH    SJSAMIJF006400630015
BI00B32CH    SJ22032 MW     202202037017-1180-02             TERMINAL                 CCN000288000000288000FN00000000020220301000288000NNM   20211224153025    4P0P  00007200000001065600001229032CH    SJSAMIJF005100280028
BI00B32CH    SJ22033 MW     202202107017-1180-02             TERMINAL                 CCN000504000000504000FN00000000020220301000504000NNM   20211224153025    4P0P  00007200000001065600001229032CH    SJSAMIJF005100280028
BI00B32CH    SJ22034 MW     202202177017-1180-02             TERMINAL                 CCN000432000000432000FN00000000020220301000432000NNM   20211224153025    4P0P  00007200000001065600001229032CH    SJSAMIJF005100280028
BI00B32CH    SJ22035 MW     202202177017-1180-02             TERMINAL                 CCN000288000000288000FN00000000020220301000288000NNM   20211224153025    4P0P  00007200000001065600001229032CH    SJSAMIJF005100280028
BI00B32CH    SJ22034 MW     202202177017-1182-02             TERMINAL                 CCN000135000000135000FN00000000020220301000135000NNM   20211224153025    4P0P  00004500000001165500001318632CH    SJSAMIJF005100280028
BI00B32CH    SJ22035 MW     202202177017-1182-02             TERMINAL                 CCN000135000000135000FN00000000020220301000135000NNM   20211224153025    4P0P  00004500000001165500001318632CH    SJSAMIJF005100280028
BI00B32CH    SJ22034 MW     202202177017-1183-02             TERMINAL                 CCN000027000000027000FN00000000020220301000027000NNM   20211224153025    4P0P  00002700000001139400001307432CH    SJSAMIJF005100280028
BI00B32CH    SJ22035 MW     202202177017-1183-02             TERMINAL                 CCN000054000000054000FN00000000020220301000054000NNM   20211224153025    4P0P  00002700000001139400001307432CH    SJSAMIJF005100280028
BI00B32CH    SJ22032 MW     202202037114-4020                TERMINAL                 CCN000021000000021000FN00000000020220301000021000NNM   20211224153025    4P0P  00002100000000875700001169332CH    SJSAMIJF006400630015
BI00B32CH    SJ22033 MW     202202107114-4020                TERMINAL                 CCN000042000000042000FN00000000020220301000042000NNM   20211224153025    4P0P  00002100000000875700001169332CH    SJSAMIJF006400630015
BI00B32CH    SJ22034 MW     202202177114-4020                TERMINAL                 CCN000042000000042000FN00000000020220301000042000NNM   20211224153025    4P0P  00002100000000875700001169332CH    SJSAMIJF006400630015
BI00B32CH    SJ22035 MW     202202177114-4020                TERMINAL                 CCN000021000000021000FN00000000020220301000021000NNM   20211224153025    4P0P  00002100000000875700001169332CH    SJSAMIJF006400630015
BI00B32CH    SJ22034 MW     202202177114-4030                TERMINAL                 CCN000010500000010500FN00000000020220301000010500NNM   20211224153025    4P0P  00001050000000926100001254732CH    SJSAMIJF006400630017
BI00B32CH    SJ22035 MW     202202177114-4030                TERMINAL                 CCN000021000000021000FN00000000020220301000021000NNM   20211224153025    4P0P  00001050000000926100001254732CH    SJSAMIJF006400630017
BI00B32CH    SJ22034 MW     202202177114-4032                TERMINAL                 CCN000007500000007500FN00000000020220301000007500NNM   20211224153025    4P0P  00000750000000735000001063632CH    SJSAMIJF006400630017
BI00B32CH    SJ22035 MW     202202177114-4032                TERMINAL                 CCN000022500000022500FN00000000020220301000022500NNM   20211224153025    4P0P  00000750000000735000001063632CH    SJSAMIJF006400630017
BI00B32CH    SJ22034 MW     202202177114-4111-02             TERMINAL                 CCN000012000000012000FN00000000020220301000012000NNM   20211224153025    4P0P  00001200000000758400001087032CH    SJSAMIJF006400630017
BI00B32CH    SJ22035 MW     202202177114-4111-02             TERMINAL                 CCN000012000000012000FN00000000020220301000012000NNM   20211224153025    4P0P  00001200000000758400001087032CH    SJSAMIJF006400630017
BI00B32CH    SJ22034 MW     202202177114-4112-02             TERMINAL                 CCN000009000000009000FN00000000020220301000009000NNM   20211224153025    4P0P  00000900000000598500000927132CH    SJSAMIJF006400630017
BI00B32CH    SJ22035 MW     202202177114-4112-02             TERMINAL                 CCN000009000000009000FN00000000020220301000009000NNM   20211224153025    4P0P  00000900000000598500000927132CH    SJSAMIJF006400630017
BI00B32CH    SJ22031 MW     202201277114-4728-02             TERMINAL                 CCN000060000000060000FN00000000020220301000060000NNM   20211224153025    4P0P  00003000000000510000000804232CH    SJSAMIJF006400630015
BI00B32CH    SJ22032 MW     202202037114-4728-02             TERMINAL                 CCN000090000000090000FN00000000020220301000090000NNM   20211224153025    4P0P  00003000000000510000000804232CH    SJSAMIJF006400630015
BI00B32CH    SJ22033 MW     202202107114-4728-02             TERMINAL                 CCN000060000000060000FN00000000020220301000060000NNM   20211224153025    4P0P  00003000000000510000000804232CH    SJSAMIJF006400630015
BI00B32CH    SJ22034 MW     202202177114-4728-02             TERMINAL                 CCN000090000000090000FN00000000020220301000090000NNM   20211224153025    4P0P  00003000000000510000000804232CH    SJSAMIJF006400630015
BI00B32CH    SJ22035 MW     202202177114-4728-02             TERMINAL                 CCN000060000000060000FN00000000020220301000060000NNM   20211224153025    4P0P  00003000000000510000000804232CH    SJSAMIJF006400630015
BI00B32CH    SJ22033 MW     202202107114-4729-02             TERMINAL                 CCN000024000000030000FN00000000020220301000030000NNM   20211224153025    4P0P  00003000000000516000000810232CH    SJSAMIJF006400630015
BI00B32CH    SJ22034 MW     202202177114-4729-02             TERMINAL                 CCN000024000000030000FN00000000020220301000030000NNM   20211224153025    4P0P  00003000000000516000000810232CH    SJSAMIJF006400630015
BI00B32CH    SJ22035 MW     202202177114-4729-02             TERMINAL                 CCN000024000000030000FN00000000020220301000030000NNM   20211224153025    4P0P  00003000000000516000000810232CH    SJSAMIJF006400630015
BI00B32CH    SJ22031 MW     202201277114-5746-02             TERMINAL                 CCN000021000000021000FN00000000020220301000021000NNM   20211224153025    4P0P  00002100000000695100000988732CH    SJSAMIJF006400630015
BI00B32CH    SJ22032 MW     202202037114-5746-02             TERMINAL                 CCN000021000000021000FN00000000020220301000021000NNM   20211224153025    4P0P  00002100000000695100000988732CH    SJSAMIJF006400630015
BI00B32CH    SJ22033 MW     202202107114-5746-02             TERMINAL                 CCN000021000000021000FN00000000020220301000021000NNM   20211224153025    4P0P  00002100000000695100000988732CH    SJSAMIJF006400630015
BI00B32CH    SJ22034 MW     202202177114-5746-02             TERMINAL                 CCN000021000000021000FN00000000020220301000021000NNM   20211224153025    4P0P  00002100000000695100000988732CH    SJSAMIJF006400630015
BI00B32CH    SJ22035 MW     202202177114-5746-02             TERMINAL                 CCN000021000000021000FN00000000020220301000021000NNM   20211224153025    4P0P  00002100000000695100000988732CH    SJSAMIJF006400630015
BI00B32CH    SJ22031 MW     202201277114-5747-02             TERMINAL                 CCN000018000000018000FN00000000020220301000018000NNM   20211224153025    4P0P  00001800000000626400000920032CH    SJSAMIJF006400630015
BI00B32CH    SJ22032 MW     202202037114-5747-02             TERMINAL                 CCN000072000000072000FN00000000020220301000072000NNM   20211224153025    4P0P  00001800000000626400000920032CH    SJSAMIJF006400630015
BI00B32CH    SJ22033 MW     202202107114-5747-02             TERMINAL                 CCN000054000000054000FN00000000020220301000054000NNM   20211224153025    4P0P  00001800000000626400000920032CH    SJSAMIJF006400630015
BI00B32CH    SJ22034 MW     202202177114-5747-02             TERMINAL                 CCN000072000000072000FN00000000020220301000072000NNM   20211224153025    4P0P  00001800000000626400000920032CH    SJSAMIJF006400630015
BI00B32CH    SJ22035 MW     202202177114-5747-02             TERMINAL                 CCN000054000000054000FN00000000020220301000054000NNM   20211224153025    4P0P  00001800000000626400000920032CH    SJSAMIJF006400630015
BI00B32CH    SJ22032 MW     202202037114-5748-02             TERMINAL                 CCN000012000000012000FN00000000020220301000012000NNM   20211224153025    4P0P  00001200000000444000000737632CH    SJSAMIJF006400630015
BI00B32CH    SJ22033 MW     202202107114-5748-02             TERMINAL                 CCN000012000000012000FN00000000020220301000012000NNM   20211224153025    4P0P  00001200000000444000000737632CH    SJSAMIJF006400630015
BI00B32CH    SJ22034 MW     202202177114-5748-02             TERMINAL                 CCN000012000000012000FN00000000020220301000012000NNM   20211224153025    4P0P  00001200000000444000000737632CH    SJSAMIJF006400630015
BI00B32CH    SJ22035 MW     202202177114-5748-02             TERMINAL                 CCN000012000000012000FN00000000020220301000012000NNM   20211224153025    4P0P  00001200000000444000000737632CH    SJSAMIJF006400630015
BI00B32CH    SJ22033 MW     202202107114-5753-02             TERMINAL                 CCN000027000000027000FN00000000020220301000027000NNM   20211224153025    4P0P  00002700000000847800001141432CH    SJSAMIJF006400630015
BI00B32CH    SJ22035 MW     202202177116-2641                TERMINAL                 CCN000018000000018000FN00000000020220301000018000NNM   20211224153025    4P0P  00001800000001161000001344632CH    SJSAMIJF005100280028
BI00B32CH    SJ22031 MW     202201277116-4020                TERMINAL                 CCN000013500000013500FN00000000020220301000013500NNM   20211224153025    4P0P  00001350000000513000000798232CH    SJSAMIJF006400630015
BI00B32CH    SJ22032 MW     202202037116-4020                TERMINAL                 CCN000013500000013500FN00000000020220301000013500NNM   20211224153025    4P0P  00001350000000513000000798232CH    SJSAMIJF006400630015
BI00B32CH    SJ22034 MW     202202177116-4020                TERMINAL                 CCN000027000000027000FN00000000020220301000027000NNM   20211224153025    4P0P  00001350000000513000000798232CH    SJSAMIJF006400630015
BI00B32CH    SJ22035 MW     202202177116-4020                TERMINAL                 CCN000027000000027000FN00000000020220301000027000NNM   20211224153025    4P0P  00001350000000513000000798232CH    SJSAMIJF006400630015
BI00B32CH    SJ22035 MW     202202177116-4025                TERMINAL                 CCN000016000000016000FN00000000020220301000016000NNM   20211224153025    4P0P  00001600000000644800000975132CH    SJSAMIJF006400630017
BI00B32CH    SJ22032 MW     202202037116-4028-08             TERMINAL FEMALE          CCN000144000000144000FN00000000020220301000144000NNM   20211224153025    4P0P  00001600000000652800000981532CH    SJSAMIJF006400630017
BI00B32CH    SJ22033 MW     202202107116-4028-08             TERMINAL FEMALE          CCN000160000000160000FN00000000020220301000160000NNM   20211224153025    4P0P  00001600000000652800000981532CH    SJSAMIJF006400630017
BI00B32CH    SJ22034 MW     202202177116-4028-08             TERMINAL FEMALE          CCN000176000000176000FN00000000020220301000176000NNM   20211224153025    4P0P  00001600000000652800000981532CH    SJSAMIJF006400630017
BI00B32CH    SJ22035 MW     202202177116-4028-08             TERMINAL FEMALE          CCN000144000000144000FN00000000020220301000144000NNM   20211224153025    4P0P  00001600000000652800000981532CH    SJSAMIJF006400630017
BI00B32CH    SJ22034 MW     202202177116-4031                TERMINAL                 CCN000030000000030000FN00000000020220301000030000NNM   20211224153025    4P0P  00000750000000619500000904732CH    SJSAMIJF006400630015
BI00B32CH    SJ22035 MW     202202177116-4031                TERMINAL                 CCN000037500000037500FN00000000020220301000037500NNM   20211224153025    4P0P  00000750000000619500000904732CH    SJSAMIJF006400630015
BI00B32CH    SJ22033 MW     202202107116-4032                TERMINAL                 CCN000030000000030000FN00000000020220301000030000NNM   20211224153025    4P0P  00000600000000532800000818032CH    SJSAMIJF006400630015
BI00B32CH    SJ22034 MW     202202177116-4032                TERMINAL                 CCN000168000000168000FN00000000020220301000168000NNM   20211224153025    4P0P  00000600000000532800000818032CH    SJSAMIJF006400630015
BI00B32CH    SJ22035 MW     202202177116-4032                TERMINAL                 CCN000162000000162000FN00000000020220301000162000NNM   20211224153025    4P0P  00000600000000532800000818032CH    SJSAMIJF006400630015
