BI00B1200    #7860T51C08    202203247172-5630-40             RUBBER STOPPER           CCN000020000000020000FN00000000020220301000020000NNM00020220215161005    2H0H  0000200000000004400000009511200    YCYC    004300270014
BI00A1200    #7360T52103    202203017172-5630-40             RUBBER STOPPER           PCN000060000000060000FN00000000020220301000060000NNM00020220215122249    2H0H  0000200000000004400000009511200    YCYC    004300270014
BI00A1200    2399T52113     202202127289-5979-30             HOUSING FEMALE ASS'Y     PCN000004032000004032FY00000403220220301000000000NNMD0420220215155524    1N0N  0000002520000085470000106471200    YCYC    005400370024
BI00A1200    2399T52113     202202157289-5979-30             HOUSING FEMALE ASS'Y     PCN000004032000000000FY00000000020220301000000000NNM00020220215155524    1N0N  0000002520000085470000106471200    YCYC    005400370024
BI00A1200    2399T52113     202202177289-5979-30             HOUSING FEMALE ASS'Y     PCN000004032000008064FN00000000020220301000008064NNMD0420220215155524    1N0N  0000002520000085470000106471200    YCYC    005400370024
BI00B1200    #7360T52205    202202247172-5630-40             RUBBER STOPPER           CCN000140000000140000FN00000000020220301000140000NNE00020220215161035    2H0H  0000200000000004400000009511200    YCYC    004300270014
BI00B1200    CHCC32T001     202202247298-2280-30             HOUSING FEMALE ASS'Y     CCN000001920000001920FN00000000020220301000001920NNE   20220215135150    4N0N  0000019200000106800000121601200    YCYC    005500360039
BI00A1200    MKH2022-027    202202187196-1944-02             TERMINAL FEMALE          CCN000012000000012000FN00000000020220201000012000NNE   20220215135555    4P0P  0000120000000050160000078681200    YCYC    006400630015
BI00A1200    MKH2022-027    202202187196-2024-02             TERMINAL FEMALE          CCN000024000000024000FN00000000020220201000024000NNE   20220215135555    4P0P  0000240000000091920000108261200    YCYC    005100280028
BI00B1200    30DT-300       202203247126-8889-02             FUSE TERMINAL            CCN000006000000006000FN00000000020220201000006000NNE   20220215141048    4P0P  0000060000000044820000073341200    YCYC    006400630015
BI00B1200    30DT-300       202203247126-8891-02             FUSE TERMINAL            CCN000006000000006000FN00000000020220201000006000NNE   20220215141048    4P0P  0000060000000048180000076701200    YCYC    006400630015
BI00B1200    30DT-300       202203247126-8892-02             FUSE TERMINAL            CCN000006000000006000FN00000000020220201000006000NNE   20220215141048    4P0P  0000060000000049500000078021200    YCYC    006400630015
BI00B1200    30DT-300       202203247195-2046-02             TERMINAL MALE            CCN000008400000008400FN00000000020220201000008400NNE   20220215141048    4P0P  0000084000000081820000111181200    YCYC    006400630015
BI00B1200    MKH2022-026    202203177126-8889-02             FUSE TERMINAL            CCN000006000000006000FN00000000020220401000006000NNE   20220215141834    4P0P  0000060000000044820000073341200    YCYC    006400630015
BI00B1200    MKH2022-026    202203177126-8890-02             FUSE TERMINAL            CCN000006000000006000FN00000000020220401000006000NNE   20220215141834    4P0P  0000060000000046500000075021200    YCYC    006400630015
BI00B1200    MKH2022-026    202203177126-8891-02             FUSE TERMINAL            CCN000006000000006000FN00000000020220401000006000NNE   20220215141834    4P0P  0000060000000048180000076701200    YCYC    006400630015
BI00B1200    MKH2022-026    202203177126-8892-02             FUSE TERMINAL            CCN000006000000006000FN00000000020220401000006000NNE   20220215141834    4P0P  0000060000000049500000078021200    YCYC    006400630015
BI00B1200    MKH2022-026    202203177195-1480-02             TERMINAL MALE            CCN000024000000024000FN00000000020220401000024000NNE   20220215141834    4P0P  0000240000000042240000071661200    YCYC    006400630015
BI00B1200    MKH2022-026    202203177195-1938-02             TERMINAL MALE            CCN000027000000042000FN00000000020220401000042000NNE   20220215141834    4P0P  0000210000000085050000117911200    YCYC    006400630017
BI00B1200    MKH2022-026    202203177195-2046-02             TERMINAL MALE            CCN000008400000008400FN00000000020220401000008400NNE   20220215141834    4P0P  0000084000000081820000111181200    YCYC    006400630015
BI00B1200    MKH2022-026    202203177195-2047-02             TERMINAL MALE            CCN000005400000005400FN00000000020220401000005400NNE   20220215141834    4P0P  0000054000000059780000089141200    YCYC    006400630015
BI00B1200    MKH2022-026    202203177196-0805-02             TERMINAL FEMALE          CCN000022500000022500FN00000000020220401000022500NNE   20220215141834    4P0P  0000225000000055800000084321200    YCYC    006400630015
BI00B1200    MKH2022-026    202203177196-1938-02             TERMINAL FEMALE          CCN000013500000013500FN00000000020220401000013500NNE   20220215141834    4P0P  0000135000000050760000079581200    YCYC    006400630015
BI00B1200    MKH2022-026    202203177196-1943-02             TERMINAL FEMALE          CCN000024000000024000FN00000000020220401000024000NNE   20220215141834    4P0P  0000120000000049200000077721200    YCYC    006400630015
BI00B1200    MKH2022-026    202203177196-1947-02             TERMINAL FEMALE          CCN000018000000018000FN00000000020220401000018000NNE   20220215141834    4POP  0000090000000040770000069291200    YCYC    006400630015
BI00B1200    MKH2022-026    202203177196-2024-02             TERMINAL FEMALE          CCN000048000000048000FN00000000020220401000048000NNE   20220215141834    4P0P  0000240000000091920000108261200    YCYC    005100280028
BI00B1200    MKH2022-026    202203177196-2027-02             TERMINAL FEMALE          CCN000036000000036000FN00000000020220401000036000NNE   20220215141834    4P0P  0000180000000078300000094641200    YCYC    005100280028
BI00B1200    MKH2022-026    202203177196-2032-02             TERMINAL FEMALE          CCN000015000000015000FN00000000020220401000015000NNE   20220215141834    4P0P  0000150000000107100000123441200    YCYC    005100280028
BI00B1200    MKH2022-026    202203177196-2038-02             TERMINAL FEMALE          CCN000003600000003600FN00000000020220401000003600NNE   20220215141834    4P0P  0000036000000059000000088361200    YCYC    006400630015
BI00B1200    MKH2022-026    202203177196-1944-02             TERMINAL FEMALE          CCN000024000000024000FN00000000020220401000024000NNE   20220215141834    4P0P  0000120000000050160000078681200    YCYC    006400630015
BI00B32AF    JTB2023        202202147289-3342-30             HOUSING FEMALE ASS'Y     CCN000024000000024000FY00002400020220201000000000NNMD0420220215141258    1N0N  00000240000000686400000901432AF    HBYHVTB 005500360039
BI00B32AG    XG22031CMW     202202187327-6884-30             MULTI FUSE               CCN000006912000006912FN00000000020220301000006912NNM00020220215154614    4N0N  00000028800000988900001154832AG    XGXGY   005400370024
BI00B32AG    #XG2204CNMW    202203187123-6423-30             CONNECTOR                CCN000002000000002000FN00000000020220401000002000NNE   20220215122249    2F0F  00000200000001002000001167632AG    XGXGY   005600390023
BI00B32AG    XG2205ANMW     202204087116-4122-02             TERMINAL                 CCN000009000000009000FN00000000020220501000009000NNE   20220215122249    4P0P  00000450000000656600000950232AG    XGXGY   006400630015
BI00B32CH    SJ22033HMW     202202117388-0313-30             CONNECTOR ASS'Y          CCN000031200000031200FY00003120020220301000000000NNM00020220215140510    4N0N  00000120000000995000001125032CH    SJSAMIJF005400370024
BI00B32CH    SJ22032HMW     202202117327-6878-30             MULTI FUSE               CCN000005184000005184FY00000518420220301000000000NNM00020220215141217    4N0N  00000028800000989700001155632CH    SJSAMIJF005400370024
BI00T32CJ    @JQN203C       202203107187-1769-30             HOUSING FEMALE           CCN000000500000002000FN00000000020220301000002000NNED0020220215122249    3F0F  00000200000001032600001179032CJ    QNYHVQN 005500360039
BI00B32DA    SBT2203A       202202147287-3885-40             HYBRID FEMALE ASS'Y      CCN000005625000007200FY00000720020220301000000000NNM00020220215140855    1N0N  00000240000001029600001249632DA    GBYIPLGB005500360039
BI00B32DA    SBT2203A       202202157286-3885-40             CONNECTOR MALE ASS'Y     CCN000008400000008400FY00000840020220301000000000NNMD0420220215140812    1N0N  00000120000000910600001130632DA    GBYIPLGB005500360039
BI00B32DE    QA-22-S005     202202187158-3006-90             RUBBER STOPPER           PNN000260000000260000FN00000000020220201000260000NNED0020220215161051    1C0C  00002000000000330600000386032DE    TVYEV-TV002700430014
BI00B32DG    #RP2032C       202202247286-7860                HOUSING MALE ASS'Y       CCN000003200000003200FN00000000020220301000003200NNED0720220215122249    2N0N  00000080000000951700001139832DG    BFSAIBF 005400370024
BI00B32DG    #RP2033D       202202247286-7860                HOUSING MALE ASS'Y       CCN000012800000012800FN00000000020220301000012800NNE   20220215122249    2N0N  00000080000000951700001139832DG    BFSAIBF 005400370024
BI00B32DJ    GHT2112B 2     202202147289-3342-30             HOUSING FEMALE ASS'Y     CCN000019200000004800FY00000480020211201000000000NNMD0420220215140438    1N0N  00000240000000686400000901432DJ    RBYIPLRB005500360039
BI00B32DJ    GHT2203B 2     202202147298-1853-10             HOUSING FEMALE ASS'Y     CCN000011700000011700FY00001170020220201000000000NNMQ0020220215140944    4N00  00000390000001240500001405832DJ    RBYIPLRB005400370024
BI00B32DJ    GHT2203B 1     202202157283-5830-30             CONNECTOR                CCN000006000000006000FY00000600020220201000000000NNMD0220220215141030    1N0N  00000600000000954000001104032DJ    RBYIPLRB005500360039
BI00B32DJ    GHT2203B 1     202202157283-5845                CONNECTOR HOUSING        CCN000006000000006000FY00000600020220201000000000NNMD0220220215141107    1N0N  00000600000000444000000606332DJ    RBYIPLRB005400370024
BI00B32D2    #DGTC2212      202202177172-5629-80             RUBBER STOPPER           CCN000920000000460000FN00000000020220301000460000NNM00020220215122249    2H0H  00002000000000060000000111132D2    TGYOT-G 004300270014
BI00B32D2    DGTC2214       202202147327-6801-3W             BATTERY FUSE             CCN000008928000005856FY00000585620220401000000000NNM00020220215110355    4N0N  00000009600000928400001143432D2    TGYOT-G 005500360039
BI00B32D2    DGTC2215       202202147158-3167-80             WIRE SEAL                CCN000060000000060000FY00006000020220401000000000NNM00020220215141138    1C0C  00002000000000048000000109032D2    TGYOT-G 002700430014
BI00B32D2    DGTC2214       202202177327-6801-3W             BATTERY FUSE             CCN000003072000003072FN00000000020220401000003072NNM00020220215122249    4N0N  00000009600000928400001143432D2    TGYOT-G 005500360039
BI00A32D2    #DGTC2212      202202157172-5629-80             RUBBER STOPPER           PCN000460000000460000FY00046000020220301000000000NNM00020220215153158    2H0H  00002000000000060000000111132D2    TGYOT-G 004300270014
BI00B32EJ    T220214P01     202203177B58-3070-80             RUBBER STOPPER           CCN000040000000040000FN00000000020220301000040000NNE   20220215122249EJ  1C0C  00004000000000276000000333032EJ    EJYKBO  004300270014
BI00B32EJ    T220214P01     202203177116-4100-02             TERMINAL                 CCN000015000000015000FN00000000020220301000015000NNE   20220215122249EJ  4P0P  00001500000000696000000990232EJ    EJYKBO  006400630015
BI00B32EJ    T220214P01     202203177158-3070-80             RUBBER STOPPER           CCN000040000000040000FN00000000020220301000040000NNE   20220215122249EJ  1C0C  00004000000000276000000333332EJ    EJYKBO  002700430014
BI00B32EJ    T220214P01     202203177116-4102-02             TERMINAL                 CCN000024000000024000FN00000000020220301000024000NNE   20220215122249EJ  4P0P  00001200000000553200000841432EJ    EJYKBO  006400630015
BI00B32EJ    #T220214P01    202203177283-8397-40             CONNECTOR                CCN000003080000003080FN00000000020220301000003080NNE   20220215122249EJ  2N0N  00000154000001007000001222732EJ    EJYKBO  005600390023
BI00B32EJ    #T220214P01    202203177158-3120-90             CONNECTOR WIRE SEAL      CCN000100000000100000FN00000000020220301000100000NNE   20220215122249EJ  2C0C  00002000000000136000000194032EJ    EJYKBO  002700430014
BI00B32EJ    T220214P02     202203177158-3070-80             RUBBER STOPPER           CCN000120000000120000FN00000000020220301000120000NNE   20220215122249EJ  1C0C  00004000000000276000000333332EJ    EJYKBO  002700430014
BI00B32EJ    #T220214P02    202203177158-3120-90             CONNECTOR WIRE SEAL      CCN000060000000060000FN00000000020220301000060000NNE   20220215122249EJ  2C0C  00002000000000136000000194032EJ    EJYKBO  002700430014
BI00B32EJ    #T220214P02    202203177283-8398-40             CONNECTOR                CCN000023100000023100FN00000000020220301000023100NNE   20220215122249EJ  2N0N  00000154000001007000001171332EJ    EJYKBO  005600390023
BI00B32EJ    T220214P03     202203317116-4037                TERMINAL                 CCN000006000000006000FN00000000020220301000006000NNE   20220215122249EJ  4P0P  00000600000000600000000894232EJ    EJYKBO  006400630015
BI00B32EJ    T220214P03     202203317116-4025                TERMINAL                 CCN000016000000016000FN00000000020220301000016000NNE   20220215122249EJ  4P0P  00001600000000644800000975132EJ    EJYKBO  006400630017
BI00B32EJ    T220214P03     202203317116-4103-02             TERMINAL                 CCN000012000000012000FN00000000020220301000012000NNE   20220215122249EJ  4P0P  00001200000000571200000859432EJ    EJYKBO  006400630015
BI00B32EJ    T220214P03     202203317116-4102-02             TERMINAL                 CCN000024000000024000FN00000000020220301000024000NNE   20220215122249EJ  4P0P  00001200000000553200000841432EJ    EJYKBO  006400630015
BI00B32EJ    T220214P03     202203317158-3070-80             RUBBER STOPPER           CCN000040000000040000FN00000000020220301000040000NNE   20220215122249EJ  1C0C  00004000000000276000000333332EJ    EJYKBO  002700430014
BI00B32EJ    T220214P03     202203317283-7449-40             HOUSING FEMALE ASS'Y     CCN000002400000002400FN00000000020220301000002400NNE   20220215122249EJ  4N0N  00000240000001200000001410032EJ    EJYKBO  005500360039
BI00B32EJ    T220214P03     202203317283-1968-30             CONNECTOR                CCN000002700000002700FN00000000020220301000002700NNE   20220215122249EJ  1N0N  00000090000001140000001318332EJ    EJYKBO  005600390040
BI00B32EJ    T220214P03     202203317298-1869-30             HOUSING FEMALE ASS'Y     CCN000001200000001200FN00000000020220301000001200NNE   20220215122249EJ  4N0N  00000120000000737000000939832EJ    EJYKBO  005500360039
BI00B32EJ    T220214P03     202203317116-4124-02             TERMINAL                 CCN000009000000009000FN00000000020220301000009000NNE   20220215122249EJ  4P0P  00000300000000459900000753532EJ    EJYKBO  006400630015
BI00B32EJ    T220214P03     202203317196-1461-06             TERMINAL FEMALE          CCN000120000000120000FN00000000020220301000120000NNE   20220215122249EJ  4P0P  00002400000000386400000692932EJ    EJYKBO  006400630015
BI00B32EJ    T220214P03     202203317114-4101-02             TERMINAL                 CCN000015000000015000FN00000000020220301000015000NNE   20220215122249EJ  4P0P  00001500000000675000001003632EJ    EJYKBO  006400630017
BI00B32EJ    T220214P03     202203317114-4110-02             TERMINAL                 CCN000030000000030000FN00000000020220301000030000NNE   20220215122249EJ  4P0P  00001500000000901500001230132EJ    EJYKBO  006400630017
BI00B32EJ    T220214P03     202203317114-4112-02             TERMINAL                 CCN000045000000045000FN00000000020220301000045000NNE   20220215122249EJ  4P0P  00000900000000598500000927132EJ    EJYKBO  006400630017
BI00B32EJ    T220214P03     202203317114-4100-02             TERMINAL                 CCN000036000000036000FN00000000020220301000036000NNE   20220215122249EJ  4P0P  00001800000000748800001077432EJ    EJYKBO  006400630017
BI00B32EJ    T220214P03     202203317116-4100-02             TERMINAL                 CCN000060000000060000FN00000000020220301000060000NNE   20220215122249EJ  4P0P  00001500000000696000000990232EJ    EJYKBO  006400630015
BI00B32EJ    T220214P03     202203317116-4101-02             TERMINAL                 CCN000012000000012000FN00000000020220301000012000NNE   20220215122249EJ  4P0P  00001200000000582000000876232EJ    EJYKBO  006400630015
BI00B32EJ    T220214P03     202203317116-4120-02             TERMINAL                 CCN000006000000006000FN00000000020220301000006000NNE   20220215122249EJ  4P0P  00000600000000780000001073632EJ    EJYKBO  006400630015
BI00B32EJ    T220214P03     202203317116-4122-02             TERMINAL                 CCN000027000000027000FN00000000020220301000027000NNE   20220215122249EJ  4P0P  00000450000000656600000950232EJ    EJYKBO  006400630015
BI00B32EJ    T220214P03     202203317116-4121-02             TERMINAL                 CCN000049500000049500FN00000000020220301000049500NNE   20220215122249EJ  4P0P  00000450000000618800000912432EJ    EJYKBO  006400630015
BI00B32EJ    T220214P03     202203317116-4112-02             TERMINAL                 CCN000102000000102000FN00000000020220301000102000NNE   20220215122249EJ  4P0P  00000600000000450000000738232EJ    EJYKBO  006400630015
BI00B32EJ    T220214P03     202203317116-4110-02             TERMINAL                 CCN000054000000054000FN00000000020220301000054000NNE   20220215122249EJ  4P0P  00000900000000594000000882232EJ    EJYKBO  006400630015
BI00B32EJ    T220214P03     202203317116-4111-02             TERMINAL                 CCN000022500000022500FN00000000020220301000022500NNE   20220215122249EJ  4P0P  00000750000000529500000817732EJ    EJYKBO  006400630015
BI00B32EJ    T220214P03     202203317126-8854-02             TERMINAL                 CCN000015000000015000FN00000000020220301000015000NNE   20220215122249EJ  4P0P  00000750000000604500000889732EJ    EJYKBO  006400630015
BI00B32EJ    T220214P03     202203317126-8855-02             TERMINAL                 CCN000006000000006000FN00000000020220301000006000NNE   20220215122249EJ  4P0P  00000600000000510600000795832EJ    EJYKBO  006400630015
BI00B32EJ    T220214P03     202203317116-2951-02             TERMINAL                 CCN000005400000005400FN00000000020220301000005400NNE   20220215122249EJ  4P0P  00000540000000817600001111832EJ    EJYKBO  006400630015
BI00B32EJ    T220214P03     202203317158-3166-60             WIRE SEAL                CCN000720000000720000FN00000000020220301000720000NNE   20220215122249EJ  1C0C  00004000000000104000000152432EJ    EJYKBO  002700430014
BI00B32EJ    T220214P03     202203317158-3167-80             WIRE SEAL                CCN000860000000860000FN00000000020220301000860000NNE   20220215122249EJ  1C0C  00002000000000048000000109032EJ    EJYKBO  002700430014
BI00B32EJ    T220214P03     202203317158-3169-40             SEALING PLUG             CCN000520000000520000FN00000000020220301000520000NNE   20220215122249EJ  1C0C  00004000000000156000000204132EJ    EJYKBO  004300260014
BI00B32EJ    T220214P03     202203317158-3167-61             WIRE SEAL                CCN000120000000120000FN00000000020220301000120000NNE   20220215122249EJ  1C0C  00002000000000048000000096432EJ    EJYKBO  004300270014
BI00B32EJ    #T220214P03    202203317158-3120-90             CONNECTOR WIRE SEAL      CCN000060000000060000FN00000000020220301000060000NNE   20220215122249EJ  2C0C  00002000000000136000000194032EJ    EJYKBO  002700430014
BI00B32EJ    #T220214P03    202203317282-6458-40             CONNECTOR                CCN000003000000003000FN00000000020220301000003000NNE   20220215122249EJ  2N0N  00000100000001206000001350532EJ    EJYKBO  005500360039
BI00B32EJ    #T220214P03    202203317157-7916-80             REAR HOLDER              CCN000008000000008000FN00000000020220301000008000NNE   20220215122249EJ  2F0F  00000800000001100800001263032EJ    EJYKBO  003600540039
BI00B32EJ    #T220214P03    202203317157-3952-80             RUBBER STOPPER           CCN000010000000010000FN00000000020220301000010000NNE   20220215122249EJ  2C0C  00001000000000117000000175032EJ    EJYKBO  002700430014
BI00B32EJ    @T220214P03    202203317123-4312-80             HOUSING                  CCN000002400000002400FN00000000020220301000002400NNE   20220215122249EJ  3F0F  00000080000000644200000794032EJ    EJYKBO  005500360039
BI00A32E2    NY202G         202202177116-4060-02             TERMINAL                 CCN000024000000024000FN00000000020220201000024000NNE   20220215122249    1P0P  00002400000000511200000984232E2    SPYSE   006400630017
BI00A32G7    JJ2203CMMW     202202247289-5979-30             HOUSING FEMALE ASS'Y     CCN000000100000000252FN00000000020220301000000252NNEM0020220215151247    1N0N  00000025200000854700001064732G7    JIJAI   005400370024
BI00B32J1    390627         202202177298-2507-30             HOUSING FEMALE ASS'Y     CCN000002400000002400FN00000000020220201000002400NNM00020220215160528    4N0N  00000120000000713200000914532J1    UKYEL-BL005500360039
BI00B32M1    TCV203A        202202247196-1935-02             TERMINAL FEMALE          CCN000036000000036000FN00000000020220301000036000NNE   20220215122249    4P0P  00001800000000534600000819832M1    VNYEV   006400630015
BI00B32M1    TCV203A        202203037283-1289-40             CONNECTOR HOUSING        CCN000003000000003000FN00000000020220301000003000NNED0720220215122249    1N0N  00000060000000679800000824832M1    VNYEV   005400370024
BI00B32M1    TCV203A        202202247296-1025-02             TERMINAL ALUMINIUM       CCN000018000000018000FN00000000020220301000018000NNE   20220215122249    4P0P  00001800000000635400000920632M1    VNYEV   006400630015
BI00B32M8    #PM22034 MW    202203027158-3007-10             RUBBER STOPPER           CCN000080000000020000FN00000000020220301000020000NNMQ0820220215122249    2H0H  00002000000000308000000362732M8    PMPEMI  002700430014
BI00B32N1    NST2116C-1     202203037116-4026                TERMINAL                 CCN000252000000256000FN00000000020220401000256000NNM   20220215143828    4P0P  00001600000000664000000994332N1    TAYIPL  006400630017
BI00B32N1    NST2116C-1     202203037116-6042                TERMINAL                 CCN000030000000030000FN00000000020220401000030000NNM   20220215143828    4P0P  00000300000000523800000856132N1    TAYIPL  006400630015
BI00B32N1    NST2116C-1     202203037126-8852-02             TERMINAL                 CCN000169470000172500FN00000000020220401000172500NNM   20220215143828    1P0P  00000750000000648000000933232N1    TAYIPL  006400630015
BI00B32N1    NST2116C-1     202203037116-4122-02             TERMINAL                 CCN000240000000243000FN00000000020220401000243000NNM   20220215143828    4P0P  00000450000000656600000950232N1    TAYIPL  006400630015
BI00B32N1    NST2116C-1     202203037116-4111-02             TERMINAL                 CCN000330000000330000FN00000000020220401000330000NNM   20220215143828    4P0P  00000750000000529500000817732N1    TAYIPL  006400630015
BI00B32N1    NST2116C-1     202203037282-5574-10             CONNECTOR                CCN000168000000168000FN00000000020220401000168000NNM   20220215143828    4N0N  00000080000001235000001423032N1    TAYIPL  005600390040
BI00B32N1    NST2116C-1     202203037116-4124-02             TERMINAL                 CCN000156000000156000FN00000000020220401000156000NNM   20220215143828    4P0P  00000300000000459900000753532N1    TAYIPL  006400630015
BI00B32N1    NST2116C-1     202203037114-4101-02             TERMINAL                 CCN000310500000315000FN00000000020220401000315000NNM   20220215143828    4P0P  00001500000000675000001003632N1    TAYIPL  006400630017
BI00B32N1    NST2116C-1     202203037116-1180                TERMINAL                 CCN000390000000390000FN00000000020220401000390000NNM   20220215143828    1P0P  00001950000000618200000903432N1    TAYIPL  006400630015
BI00B32N1    NST2116C-1     202203037116-1686-02             TERMINAL                 CCN000084000000084000FN00000000020220401000084000NNM   20220215143828    4P0P  00002100000000869400001021632N1    TAYIPL  005100280028
BI00B32N1    NST2116C-1     202203037282-1248-30             HOUSING SUB ASSEMBLY     CCN000003000000003000FN00000000020220401000003000NNM   20220215143828    1N0N  00000060000001167000001372032N1    TAYIPL  005500360039
BI00B32N1    NST2116C-1     202203037116-4121-02             TERMINAL                 CCN000012000000013500FN00000000020220401000013500NNM   20220215143828    4P0P  00000450000000618800000912432N1    TAYIPL  006400630015
BI00B32N1    NST2116C-1     202203037196-0396-02             TERMINAL                 CCN000020000000030000FN00000000020220401000030000NNM   20220215143828    4P0P  00001500000000949500001112932N1    TAYIPL  002800510028
BI00B32N1    #NST2116C-1    202203037158-3007-10             RUBBER STOPPER           CCN000022500000040000FN00000000020220401000040000NNM   20220215143822    2H0H  00002000000000308000000362732N1    TAYIPL  002700430014
BI00B32N1    #NST2116C-1    202203037157-3790-90             WIRE SEAL                CCN000020000000020000FN00000000020220401000020000NNM   20220215143822    2C0C  00002000000000176000000232732N1    TAYIPL  002700430014
BI00B32N1    NST2116C       202203037114-1470                TERMINAL                 CCN000016500000016500FN00000000020220401000016500NNMD0720220215145447    4P0P  00001650000000544500000838732N1    TAYIPL  006400630015
BI00B32N1    NST2116C       202203037114-4020                TERMINAL                 CCN000252000000252000FN00000000020220401000252000NNMD0720220215145447    4P0P  00002100000000875700001169332N1    TAYIPL  006400630015
BI00B32N1    NST2116C       202203037114-4021                TERMINAL                 CCN000030000000030000FN00000000020220401000030000NNMD0720220215145447    4P0P  00001500000000670500000964132N1    TAYIPL  006400630015
BI00B32N1    NST2116C       202203037114-4030                TERMINAL                 CCN000031500000031500FN00000000020220401000031500NNMD0720220215145447    4P0P  00001050000000926100001254732N1    TAYIPL  006400630017
BI00B32N1    NST2116C       202203037114-4032                TERMINAL                 CCN000022500000022500FN00000000020220401000022500NNMD0720220215145447    4P0P  00000750000000735000001063632N1    TAYIPL  006400630017
BI00B32N1    NST2116C       202203037116-1301                TERMINAL                 CCN000300000000300000FN00000000020220401000300000NNMD0720220215145447    4P0P  00001500000000487500000772732N1    TAYIPL  006400630015
BI00B32N1    NST2116C       202203037116-4020                TERMINAL                 CCN000310500000310500FN00000000020220401000310500NNMD0720220215145447    4P0P  00001350000000513000000798232N1    TAYIPL  006400630015
BI00B32N1    NST2116C       202203037116-4022                TERMINAL                 CCN000013500000013500FN00000000020220401000013500NNMD0720220215145447    4P0P  00001350000000618300000903532N1    TAYIPL  006400630015
BI00B32N1    NST2116C       202203037116-4032                TERMINAL                 CCN000024000000024000FN00000000020220401000024000NNMD0720220215145447    4P0P  00000600000000532800000818032N1    TAYIPL  006400630015
BI00B32N1    NST2116C       202203037282-1248                HOUSING SUB ASSEMBLY     CCN000012000000012000FN00000000020220401000012000NNMD0720220215145447    1N0N  00000060000001167000001372032N1    TAYIPL  005500360039
BI00B32N1    NST2116C       202203037114-4100-02             TERMINAL                 CCN000558000000558000FN00000000020220401000558000NNMD0720220215145447    4P0P  00001800000000748800001077432N1    TAYIPL  006400630017
BI00B32N1    NST2116C       202203037114-4111-02             TERMINAL                 CCN000072000000072000FN00000000020220401000072000NNMD0720220215145447    4P0P  00001200000000758400001087032N1    TAYIPL  006400630017
BI00B32N1    NST2116C       202203037114-4112-02             TERMINAL                 CCN000045000000045000FN00000000020220401000045000NNMD0720220215145447    4P0P  00000900000000598500000927132N1    TAYIPL  006400630017
BI00B32N1    NST2116C       202203037114-4729-02             TERMINAL                 CCN000169470000180000FN00000000020220401000180000NNMD0720220215145447    4P0P  00003000000000516000000810232N1    TAYIPL  006400630015
BI00B32N1    NST2116C       202203037116-1685-02             TERMINAL                 CCN000240000000240000FN00000000020220401000240000NNMD0720220215145447    4P0P  00002400000000897600001065232N1    TAYIPL  005100280028
BI00B32N1    NST2116C       202203037116-2891-02             TERMINAL                 CCN000330000000330000FN00000000020220401000330000NNMD0720220215145447    4P0P  00001500000000982500001145932N1    TAYIPL  005100280028
BI00B32N1    NST2116C       202203037116-2892-02             TERMINAL                 CCN000168000000168000FN00000000020220401000168000NNMD0720220215145447    4P0P  00001200000000818400000981832N1    TAYIPL  005100280028
BI00B32N1    NST2116C       202203037116-2893-02             TERMINAL                 CCN000156000000156000FN00000000020220401000156000NNMD0720220215145447    4P0P  00001200000000895200001058632N1    TAYIPL  005100280028
BI00B32N1    NST2116C       202203037116-4100-02             TERMINAL                 CCN000120000000120000FN00000000020220401000120000NNMD0720220215145447    4P0P  00001500000000696000000990232N1    TAYIPL  006400630015
BI00B32N1    NST2116C       202203037116-4101-02             TERMINAL                 CCN000048000000048000FN00000000020220401000048000NNMD0720220215145447    4P0P  00001200000000582000000876232N1    TAYIPL  006400630015
BI00B32N1    NST2116C       202203037116-4102-02             TERMINAL                 CCN000012000000012000FN00000000020220401000012000NNMD0720220215145447    4P0P  00001200000000553200000841432N1    TAYIPL  006400630015
BI00B32N1    NST2116C       202203037116-4110-02             TERMINAL                 CCN000045000000045000FN00000000020220401000045000NNMD0720220215145447    4P0P  00000900000000594000000882232N1    TAYIPL  006400630015
BI00B32N1    NST2116C       202203037116-4112-02             TERMINAL                 CCN000036000000036000FN00000000020220401000036000NNMD0720220215145447    4P0P  00000600000000450000000738232N1    TAYIPL  006400630015
BI00B32N1    NST2116C       202203037116-4114-02             TERMINAL                 CCN000010500000010500FN00000000020220401000010500NNMD0720220215145447    4P0P  00001050000000693000000981232N1    TAYIPL  006400630015
BI00B32N1    NST2116C       202203037126-8850-02             TERMINAL                 CCN000297000000297000FN00000000020220401000297000NNMD0720220215145447    1P0P  00000900000000672300000957532N1    TAYIPL  006400630015
BI00B32N1    NST2116C       202203037126-8851-02             TERMINAL                 CCN000423000000423000FN00000000020220401000423000NNMD0720220215145447    1P0P  00000900000000739800001025032N1    TAYIPL  006400630015
BI00B32N1    NST2116C       202203037157-6287-70             SPACER                   CCN000070000000070000FN00000000020220401000070000NNMD0720220215145447    1F0F  00007000000000700000000963032N1    TAYIPL  005500360039
BI00B32N1    NST2116C       202203037282-6568-40             CONNECTOR                CCN000003000000003000FN00000000020220401000003000NNMD0720220215145447    4N0N  00000100000001206000001370732N1    TAYIPL  005500360039
BI00B32N1    NST2116C       202203037283-1144-30             CONNECTOR                CCN000026400000026400FN00000000020220401000026400NNMD0720220215145447    4N0N  00000240000000602200000866132N1    TAYIPL  005500360039
BI00B32N1    #NST2116C      202203037116-4021                TERMINAL                 CCN000054000000054000FN00000000020220401000054000NNMD0720220215145439    2F0P  00001350000000534600000868832N1    TAYIPL  006400630015
BI00B32N1    #NST2116C      202203037157-3646                RUBBER STOPPER           CCN000180000000180000FN00000000020220401000180000NNMD0720220215145439    2H0H  00002000000000184000000255232N1    TAYIPL  002700430014
BI00B32N1    #NST2116C      202203037157-3821                RUBBER STOPPER           CCN000260000000260000FN00000000020220401000260000NNMD0720220215145439    2C0C  00002000000000176000000238032N1    TAYIPL  002700430014
BI00B32N1    #NST2116C      202203037183-2419                HOUSING                  CCN000004800000004800FN00000000020220401000004800NNMD0720220215145439    2F0F  00000480000001065600001352732N1    TAYIPL  005500360039
BI00B32N1    #NST2116C      202203037283-5831                CONNECTOR                CCN000000700000003000FN00000000020220401000003000NNMD0720220215145439    2N0N  00000300000000750000000880032N1    TAYIPL  005400370024
BI00B32N1    #NST2116C      202203037157-3950-80             SEAL RUBBER              CCN000320000000320000FN00000000020220401000320000NNMD0720220215145439    2C0C  00004000000000154000000440332N1    TAYIPL  002700430014
BI00B32N1    #NST2116C      202203037157-3952-80             RUBBER STOPPER           CCN000020000000020000FN00000000020220401000020000NNMD0720220215145439    2C0C  00001000000000117000000175032N1    TAYIPL  002700430014
BI00B32N1    #NST2116C      202203037158-3120-90             CONNECTOR WIRE SEAL      CCN000100000000100000FN00000000020220401000100000NNMD0720220215145439    2C0C  00002000000000136000000194032N1    TAYIPL  002700430014
BI00B32N1    #NST2116C      202203037183-2418-30             CONNECTOR HOUSING        CCN000004800000004800FN00000000020220401000004800NNMD0720220215145439    2F0F  00000480000000917000001235332N1    TAYIPL  005500360039
BI00B32N1    #NST2116C      202203037183-7725-40             HOUSING                  CCN000006000000006000FN00000000020220401000006000NNMD0720220215145439    2F0F  00000600000000840000001040032N1    TAYIPL  005600390040
BI00B32N1    #NST2116C      202203037282-6458-40             CONNECTOR                CCN000002000000002000FN00000000020220401000002000NNMD0720220215145439    2N0N  00000100000001206000001350532N1    TAYIPL  005500360039
BI00B32N1    #NST2116C      202203037283-8397-40             CONNECTOR                CCN000004620000004620FN00000000020220401000004620NNMD0720220215145439    2N0N  00000154000001007000001222732N1    TAYIPL  005600390023
BI00B32N1    NST2116B       202203037116-1180                TERMINAL                 CCN000487500000487500FN00000000020220401000487500NNM   20220215150745    1P0P  00001950000000618200000903432N1    TAYIPL  006400630015
BI00B32N1    NST2116B       202203037116-1686-02             TERMINAL                 CCN000105000000105000FN00000000020220401000105000NNM   20220215150745    4P0P  00002100000000869400001021632N1    TAYIPL  005100280028
BI00B32N1    NST2116B       202203037282-1248-30             HOUSING SUB ASSEMBLY     CCN000003000000003000FN00000000020220401000003000NNM   20220215150745    1N0N  00000060000001167000001372032N1    TAYIPL  005500360039
BI00B32N1    NST2116B       202203037116-4121-02             TERMINAL                 CCN000006000000009000FN00000000020220401000009000NNM   20220215150745    4P0P  00000450000000618800000912432N1    TAYIPL  006400630015
BI00B32N1    NST2116B       202203037196-0396-02             TERMINAL                 CCN000040000000045000FN00000000020220401000045000NNM   20220215150745    4P0P  00001500000000949500001112932N1    TAYIPL  002800510028
BI00B32N1    NST2116B       202203037126-8855-02             TERMINAL                 CCN000072230000078000FN00000000020220401000078000NNM   20220215150745    4P0P  00000600000000510600000795832N1    TAYIPL  006400630015
BI00B32N1    NST2116B       202203037126-8854-02             TERMINAL                 CCN000197470000202500FN00000000020220401000202500NNM   20220215150745    4P0P  00000750000000604500000889732N1    TAYIPL  006400630015
BI00B32N1    #NST2116B      202203037157-3790-90             WIRE SEAL                CCN000020000000020000FN00000000020220401000020000NNM   20220215150732    2C0C  00002000000000176000000232732N1    TAYIPL  002700430014
BI00B32Q8    EU22033DMW     202202177B74-1849-70             COVER                    CCN000025000000025000FN00000000020220301000025000NNM00020220215160559    1F0F  00002500000000622500000761932Q8    EMEMI   005400370024
BI00B32R7    R-TAP220075    202203037116-4122-02             TERMINAL                 CCN000004500000004500FN00000000020220301000004500NNE   20220215122249    4P0P  00000450000000656600000950232R7    IVYCIC  006400630015
BI00B32R7    #R-TAP220075   202203037186-8845-60             HOUSING MALE             CCN000003000000003000FN00000000020220301000003000NNE   20220215122249    2F0F  00000300000000690000000801532R7    IVYCIC  005400370024
BI00B32R7    R-TAP220076    202203107158-3167-80             WIRE SEAL                CCN000500000000500000FN00000000020220301000500000NNE   20220215122249    1C0C  00002000000000048000000109032R7    IVYCIC  002700430014
BI00B32R7    R-TAP220077    202203037283-1968-30             CONNECTOR                CCN000007200000007200FN00000000020220301000007200NNE   20220215122249    1N0N  00000090000001140000001318332R7    IVYCIC  005600390040
BI00B32R8    #TT2203BYMW    202202227158-3007-10             RUBBER STOPPER           CCN000020000000020000FN00000000020220301000020000NNE00020220215160635    2H0H  00002000000000308000000362732R8    TTTJY   002700430014
BI00B32U5    #DI2010        202202187172-5629-80             RUBBER STOPPER           CCN000080000000080000FN00000000020220401000080000NNM00020220215160728U5  2H0H  00002000000000060000000111132U5    AMAMSD  004300270014
BI00B32U5    #DI2010        202202257172-5630-40             RUBBER STOPPER           CCN000080000000080000FN00000000020220401000080000NNM00020220215160745U5  2H0H  00002000000000044000000095132U5    AMAMSD  004300270014
BI00B32U5    #DI2011        202202257172-5629-80             RUBBER STOPPER           CCN000160000000160000FN00000000020220401000160000NNM00020220215160804U5  2H0H  00002000000000060000000111132U5    AMAMSD  004300270014
BI00B32U9    #TPA213        202202247157-3646                RUBBER STOPPER           CCN000100000000080000FN00000000020220401000080000NNMQ0020220215122249U9  2H0H  00002000000000184000000255232U9    YNYNA-E 002700430014
BI00B32U9    #TPA214        202203037157-3821                RUBBER STOPPER           CCN000040000000020000FN00000000020220401000020000NNMQ0020220215122249U9  2C0C  00002000000000176000000238032U9    YNYNA-E 002700430014
BI00A32U9    #TPA213        202202217157-3646                RUBBER STOPPER           CCN000020000000020000FN00000000020220401000020000NNMM0020220215122249U9  2H0H  00002000000000184000000255232U9    YNYNA-E 002700430014
BI00A32U9    #TPA214        202202217157-3821                RUBBER STOPPER           CCN000020000000020000FN00000000020220401000020000NNMM0020220215122249U9  2C0C  00002000000000176000000238032U9    YNYNA-E 002700430014
BI00A32W4    #4500187255    202202177147-3642-30             CLIP                     CCN000024000000024000FN00000000020220201000024000NNED0020220215165158W4A22F0F  00000300000000542000000721332W4A2  HJYHK-J 005600390040
BI00B32W4    #4500189336    202203017157-7811-80             SEAL RUBBER              CCN000010000000010000FN00000000020220301000010000NNE   20220215122249W42 2C0C  00001000000000105000000182732W42   HJYHK   002700430014
BI00B32W4    #4500189336    202203017157-7812                SEAL RUBBER              CCN000020000000020000FN00000000020220301000020000NNE   20220215122249W42 2C0C  00001000000000137000000202032W42   HJYHK   002700430014
BI00A32W4    #4500189349    202203077289-4104-40             HOUSING FEMALE ASS'Y     CCN000050000000050000FN00000000020220301000050000NNE   20220215122249W4652NON  00000050000000606900000821132W465  HJYHK   005400370024
BI00A32W4    #4500189350    202203217289-4104-40             HOUSING FEMALE ASS'Y     CCN000049000000049000FN00000000020220301000049000NNE   20220215122249W4652NON  00000050000000606900000821132W465  HJYHK   005400370024
BI00A32W4    4500189358     202206237158-3006-90             RUBBER STOPPER           CCN000040000000040000FN00000000020220601000040000NNE   20220215122249W4H31C0C  00002000000000330600000386032W4H3  HJYHK-J 002700430014
BI00A32W4    4500189359     202206237116-4231-02             TERMINAL                 CCN000078000000078000FN00000000020220601000078000NNE   20220215122249W4H34P0P  00002600000000683800001012532W4H3  HJYHK-J 006400630017
BI00A32W4    4500189360     202206237283-1020                CONNECTOR                CCN000012000000012000FN00000000020220601000012000NNE   20220215122249W4H34N0N  00000600000000840000001049332W4H3  HJYHK-J 005600390040
BI00A32W4    4500189361     202206237283-5846                HOUSING                  CCN000004500000004500FN00000000020220601000004500NNE   20220215122249W4H31N0N  00000150000000885000001102032W4H3  HJYHK-J 005600390040
BI00B32W4    QA-22-C015     202202187283-4577-30             CONNECTOR HOUSING        PNN000004800000004800FN00000000020220201000004800NNED0020220215122249W4K84N0N  00000480000000916800001136832W4K8  HJYHK-J 005500360039
BI00B32W6    #SW22033QMW    202202237158-3007-10             RUBBER STOPPER           CCN000040000000040000FN00000000020220301000040000NNM00020220215160852    2H0H  00002000000000308000000362732W6    SYSYA-WJ002700430014
BI00B32W6    #SW22033QMW    202202237172-5629-80             RUBBER STOPPER           CCN000220000000220000FN00000000020220301000220000NNM00020220215160836    2H0H  00002000000000060000000111132W6    SYSYA-WJ004300270014
BI00B32W6    QA-22-C010     202202177289-3342                HOUSING FEMALE ASS'Y     PNY000014600000014600FN00000000020220201000014600NNE00020220215160934    1N0N  00000240000000686400000901432W6    SYSYA-WJ005500360039
BI00B32W6    QA-22-C024     202202177288-5000                HOUSING MALE ASS'Y       PNN000001344000001344FN00000000020220201000001344NNE00020220215160955    1N0N  00000033600000825200001035232W6    SYSYA-WJ005400370024
BI00B32W9    4500189344     202203087116-4111-02             TERMINAL                 CCN000007500000007500FN00000000020220301000007500NNE   20220215122249W9  4P0P  00000750000000529500000817732W9    HKYHK   006400630015
BI00B32X5    TIB1048        202202187289-3342-30             HOUSING FEMALE ASS'Y     CCN000134400000134400FN00000000020220101000134400NNM00020220215161027X5  1N0N  00000240000000686400000901432X5    EPYNA-E 005500360039
BI00B32X5    TIB2010        202202187289-5979-30             HOUSING FEMALE ASS'Y     CCN000000756000000756FN00000000020220401000000756NNM00020220215161146X5  1N0N  00000025200000854700001064732X5    EPYNA-E 005400370024
BI00B32X5    #TIB2010       202202187158-3007-10             RUBBER STOPPER           CCN000160000000160000FN00000000020220401000160000NNM00020220215161055X5  2H0H  00002000000000308000000362732X5    EPYNA-E 002700430014
BI00B32X5    TIB2011        202202187289-5979-30             HOUSING FEMALE ASS'Y     CCN000002520000002520FN00000000020220401000002520NNM00020220215161256X5  1N0N  00000025200000854700001064732X5    EPYNA-E 005400370024
BI00B32X5    #TIB2011       202202257158-3007-10             RUBBER STOPPER           CCN000260000000260000FN00000000020220401000260000NNM00020220215161224X5  2H0H  00002000000000308000000362732X5    EPYNA-E 002700430014
BI00B32X5    TIB2006A       202202187289-5979-30             HOUSING FEMALE ASS'Y     CCN000002772000002772FN00000000020220301000002772NNE00020220215161343X5  1N0N  00000025200000854700001064732X5    EPYNA-E 005400370024
BI00B32Y4    ITA32053       202202187158-3167-80             WIRE SEAL                CCN000240000000240000FN00000000020220501000240000NNE00020220215144403    1C0C  00002000000000048000000109032Y4    BIYAB-I 002700430014
BI00B32Y4    ITA32052       202202187158-3167-80             WIRE SEAL                CCN000080000000080000FN00000000020220501000080000NNED0720220215144342    1C0C  00002000000000048000000109032Y4    BIYAB-I 002700430014
BI00B32Y4    ITA32052       202202187289-4696-30             HOUSING FEMALE ASS'Y     CCN000004000000004000FN00000000020220501000004000NNE00020220215144332    4N0N  00000200000000913400001055432Y4    BIYAB-I 005400370024
BI00B32Y4    ITA32052       202202187327-6654-3W             BATTERY FUSE             CCN000001250000001344FN00000000020220501000001344NNE00020220215144322    4N0N  00000009600001132300001312432Y4    BIYAB-I 005500360039
BI00B32Y6    #STAP32041     202202187172-5630-40             RUBBER STOPPER           CCN000180000000180000FN00000000020220401000180000NNM00020220215152725    2H0H  00002000000000044000000095132Y6    BSYBL-S 004300270014
BI00B32Y6    #STAP32051     202202187172-5629-80             RUBBER STOPPER           CCN000560000000560000FN00000000020220501000560000NNM00020220215152734    2H0H  00002000000000060000000111132Y6    BSYBL-S 004300270014
BI00B32Y6    #STAP32051     202203037172-5630-40             RUBBER STOPPER           CCN000700000000700000FN00000000020220501000700000NNM00020220215140639    2H0H  00002000000000044000000095132Y6    BSYBL-S 004300270014
BI00B32Y6    STAP32051      202202187289-6868-30             SEALED ASSY FEMALE       CCN000010080000010080FN00000000020220501000010080NNMD0420220215144453    4N0N  00000252000000839200001119232Y6    BSYBL-S 005500360039
BI00B32Y6    STAP32051      202202187298-1145-4W             SQUIB SUB ASS'Y          CCN000010000000010000FN00000000020220501000010000NNMD0420220215144437    4N0N  00001000000000787900000944932Y6    BSYBL-S 005400370024
