BI00B32DJ    GHT2203-2      2022021718007704140              AVSS 1.25F W             CCN000000800000000000FY00000000020220101000000000NNM10 20220126134116    1W    00000080000001389000000000032DJ    RBYIPLRB000000000000XH122032
BI00B32DJ    GHT2203-2      20220217180D0203730              AVSSH 0.3F B             CCN000014000000000000FY00000000020220101000000000NNM10 20220126134116    1W    00000200000000515000000000032DJ    RBYIPLRB000000000000XH122002
BI00B32DJ    GHT2203-2      20220217180D0203750              AVSSH 0.3F R             CCN000022000000000000FY00000000020220101000000000NNM10 20220126134116    1W    00000200000000515000000000032DJ    RBYIPLRB000000000000XH122007
BI00B32DJ    GHT2203-2      20220217180D0203760              AVSSH 0.3F G             CCN000002000000000000FY00000000020220101000000000NNM10 20220126134116    1W    00000200000000515000000000032DJ    RBYIPLRB000000000000XH122004
BI00B32DJ    GHT2203-2      20220217180D0203761              AVSSH 0.3F LG            CCN000002000000000000FY00000000020220101000000000NNM10 20220126134116    1W    00000200000000515000000000032DJ    RBYIPLRB000000000000XH122006
BI00B32DJ    GHT2203-2      20220217180D0203770              AVSSH 0.3F Y             CCN000002000000000000FY00000000020220101000000000NNM10 20220126134116    1W    00000200000000515000000000032DJ    RBYIPLRB000000000000XH122009
BI00B32DJ    GHT2203-2      20220217180D0203780              AVSSH 0.3F BR            CCN000002000000000000FY00000000020220101000000000NNM10 20220126134116    1W    00000200000000515000000000032DJ    RBYIPLRB000000000000XH122003
BI00B32DJ    GHT2203-2      20220217180D0203790              AVSSH 0.3F L             CCN000004000000000000FY00000000020220101000000000NNM10 20220126134116    1W    00000200000000515000000000032DJ    RBYIPLRB000000000000XH122005
BI00B32DJ    GHT2203-2      20220217180D0203792              AVSSH 0.3F V             CCN000002000000000000FY00000000020220101000000000NNM10 20220126134116    1W    00000200000000515000000000032DJ    RBYIPLRB000000000000XH122008
BI00B32DJ    GHT2203-2      20220217180D0203940              AVSSH 0.5F W             CCN000001500000000000FY00000000020220101000000000NNM10 20220126134116    1W    00000150000000689000000000032DJ    RBYIPLRB000000000000XH122016
BI00B32DJ    GHT2203-2      20220217180D0203950              AVSSH 0.5F R             CCN000003000000000000FY00000000020220101000000000NNM10 20220126134116    1W    00000150000000689000000000032DJ    RBYIPLRB000000000000XH122015
BI00B32DJ    GHT2203-2      20220217180D0203952              AVSSH 0.5F P             CCN000003000000000000FY00000000020220101000000000NNM10 20220126134116    1W    00000150000000689000000000032DJ    RBYIPLRB000000000000XH122014
BI00B32DJ    GHT2203-2      20220217180D0203960              AVSSH 0.5F G             CCN000016500000000000FY00000000020220101000000000NNM10 20220126134116    1W    00000150000000689000000000032DJ    RBYIPLRB000000000000XH122011
BI00B32DJ    GHT2203-2      20220217180D0203961              AVSSH 0.5F LG            CCN000012000000000000FY00000000020220101000000000NNM10 20220126134116    1W    00000150000000689000000000032DJ    RBYIPLRB000000000000XH122013
BI00B32DJ    GHT2203-2      20220217180D0203970              AVSSH 0.5F Y             CCN000001500000000000FY00000000020220101000000000NNM10 20220126134116    1W    00000150000000689000000000032DJ    RBYIPLRB000000000000XH122017
BI00B32DJ    GHT2203-2      20220217180D0203980              AVSSH 0.5F BR            CCN000004500000000000FY00000000020220101000000000NNM10 20220126134116    1W    00000150000000689000000000032DJ    RBYIPLRB000000000000XH122010
BI00B32DJ    GHT2203-2      20220217180D0203990              AVSSH 0.5F L             CCN000030000000000000FY00000000020220101000000000NNM10 20220126134116    1W    00000150000000689000000000032DJ    RBYIPLRB000000000000XH122012
BI00B32DJ    GHT2203-2      20220217180D0204040              AVSSH 0.75F W            CCN000001000000000000FY00000000020220101000000000NNM10 20220126134116    1W    00000100000000934000000000032DJ    RBYIPLRB000000000000XH122024
BI00B32DJ    GHT2203-2      20220217180D0204050              AVSSH 0.75F R            CCN000003000000000000FY00000000020220101000000000NNM10 20220126134116    1W    00000100000000934000000000032DJ    RBYIPLRB000000000000XH122022
BI00B32DJ    GHT2203-2      20220217180D0204052              AVSSH 0.75F P            CCN000001000000000000FY00000000020220101000000000NNM10 20220126134116    1W    00000100000000934000000000032DJ    RBYIPLRB000000000000XH122021
BI00B32DJ    GHT2203-2      20220217180D0204060              AVSSH 0.75F G            CCN000001000000000000FY00000000020220101000000000NNM10 20220126134116    1W    00000100000000934000000000032DJ    RBYIPLRB000000000000XH122019
BI00B32DJ    GHT2203-2      20220217180D0204061              AVSSH 0.75F LG           CCN000008000000000000FY00000000020220101000000000NNM10 20220126134116    1W    00000100000000934000000000032DJ    RBYIPLRB000000000000XH122020
BI00B32DJ    GHT2203-2      20220217180D0204070              AVSSH 0.75F Y            CCN000047000000000000FY00000000020220101000000000NNM10 20220126134116    1W    00000100000000934000000000032DJ    RBYIPLRB000000000000XH122025
BI00B32DJ    GHT2203-2      20220217180D0204080              AVSSH 0.75F BR           CCN000029000000000000FY00000000020220101000000000NNM10 20220126134116    1W    00000100000000934000000000032DJ    RBYIPLRB000000000000XH122018
BI00B32DJ    GHT2203-2      20220217180D0204091              AVSSH 0.75F SB           CCN000046000000000000FY00000000020220101000000000NNM10 20220126134116    1W    00000100000000934000000000032DJ    RBYIPLRB000000000000XH122023
BI00B32DJ    GHT2203-2      20220217180D0204140              AVSSH 1.25F W            CCN000000800000000000FY00000000020220101000000000NNM10 20220126134116    1W    00000080000001458000000000032DJ    RBYIPLRB000000000000XH122029
BI00B32DJ    GHT2203-2      20220217180D0204150              AVSSH 1.25F R            CCN000000800000000000FY00000000020220101000000000NNM10 20220126134116    1W    00000080000001458000000000032DJ    RBYIPLRB000000000000XH122028
BI00B32DJ    GHT2203-2      20220217180D0204161              AVSSH 1.25F LG           CCN000001600000000000FY00000000020220101000000000NNM10 20220126134116    1W    00000080000001458000000000032DJ    RBYIPLRB000000000000XH122027
BI00B32DJ    GHT2203-2      20220217180D0204170              AVSSH 1.25F Y            CCN000001600000000000FY00000000020220101000000000NNM10 20220126134116    1W    00000080000001458000000000032DJ    RBYIPLRB000000000000XH122030
BI00B32DJ    GHT2203-2      20220217180D0204190              AVSSH 1.25F L            CCN000000800000000000FY00000000020220101000000000NNM10 20220126134116    1W    00000080000001458000000000032DJ    RBYIPLRB000000000000XH122026
BI00B32DJ    GHT2203-2      20220217180T8403991              ACCAVS 0.5 SB            CCN000000060000000000FY00000000020220101000000000NNM10 20220126134116    1W    00000150000000674300000000032DJ    RBYIPLRB000000000000XH122031
BI00B32DJ    @GHT2203-2     20220217181AD2017ZZ              CIVUSAS-S 0.22X3 B       CCN000019780000000000FY00000000020220101000000000NNM10 20220126134311    1W    00000043000001678200000000032DJ    RBYIPLRB000000000000XH122001
BI00B32M4    @TH2033A       20220224181E50016ZZ              AVSSCS-S 0.5FX2 DGY/R    CCN000000900000000900FN00000000020220301000000900NNE   20220126170151    1W    00000030000003096000000000032M4    SISAI   000000000000GC222001
BI00B32M4    TW2033A        202202241801W006930              IVSSH 0.35F B            CCN000012500000012500FN00000000020220301000012500NNE   20220126170151    1W    00000250000000452000000000032M4    SISAI   000000000000GD222004
BI00B32M4    TW2033A        202202241801W006992              IVSSH 0.35F V            CCN000002500000002500FN00000000020220301000002500NNE   20220126170151    1W    00000250000000452000000000032M4    SISAI   000000000000GD222005
BI00B32M4    TW2033A        202202241801W006940              IVSSH 0.35F W            CCN000002500000002500FN00000000020220301000002500NNE   20220126170151    1W    00000250000000452000000000032M4    SISAI   000000000000GD222006
BI00B32M4    TW2033A        202202241801W004080              IVSSH 0.75F BR           CCN000001300000001300FN00000000020220301000001300NNE   20220126170151    1W    00000130000000882000000000032M4    SISAI   000000000000GD222003
BI00B32Q8    EW22033 MW     202202091801R704130              CIVUS 1.25 B             CCN000082000000077000FN00000000020220301000077000NNM00 20220126170151    1W    00000100000001228000000000032Q8    EMEMI   000000000000MI421047
BI00A32Q8    EW22033TMW     20220127180D0203741              AVSSH 0.3F GY            CCN000010000000010000FN00000000020220301000010000NNM21 20220126170151    1W    00000200000000515000000000032Q8    EMEMI   000000000000MT421025
BI00B32Q8    EW22034TMW     20220215180D0203741              AVSSH 0.3F GY            CCN000008000000006000FN00000000020220301000006000NNM00 20220126170151    1W    00000200000000515000000000032Q8    EMEMI   000000000000MT122026
BI00A32Q8    EW22033 MW     202201271801R704130              CIVUS 1.25 B             CCN000005000000005000FN00000000020220301000005000NNM20 20220126170151    1W    00000100000001228000000000032Q8    EMEMI   000000000000MI421047
BI00A32Q8    EW22034TMW     20220127180D0203741              AVSSH 0.3F GY            CCN000002000000002000FN00000000020220301000002000NNM20 20220126170151    1W    00000200000000515000000000032Q8    EMEMI   000000000000MT122026
