BI00B1200    7360T51A03     202206237288-3337-30             HOUSING MALE             CCN000006000000001500FN00000000020211201000001500NNMD0420220126122840    4N0N  0000015000000086700000101201200    YCYC    005400370024
BI00B1200    2399T51C19     202202107289-0269                HOUSING SUB ASSEMBLY     CCN000014400000014400FN00000000020220201000014400NNMD0320220126142057    1N0N  0000016000000100210000123451200    YCYC    005500360039
BI00B1200    #2399T52105    202203177173-3225-10             LIF LEVER                CCN000049600000049600FN00000000020220301000049600NNMD0220220126142803    2F0F  0000008000000059200000071201200    YCYC    005500360039
BI00B1200    #2399T52106    202204077173-3225-10             LIF LEVER                CCN000049600000049600FN00000000020220301000049600NNMD0220220126142835    2F0F  0000008000000059200000071201200    YCYC    005500360039
BI00B1200    #2399T52107    202204217173-3225-10             LIF LEVER                CCN000049600000049600FN00000000020220301000049600NNMD0220220126142916    2F0F  0000008000000059200000071201200    YCYC    005500360039
BI00B1200    #2399T52108    202204217173-3225-10             LIF LEVER                CCN000049600000049600FN00000000020220301000049600NNMD0220220126142948    2F0F  0000008000000059200000071201200    YCYC    005500360039
BI00B1200    2399T52113     202202107289-0269                HOUSING SUB ASSEMBLY     CCN000003200000003200FN00000000020220301000003200NNMD0320220126142121    1N0N  0000016000000100210000123451200    YCYC    005500360039
BI00B1200    2399T52203     202203037116-4100-02             TERMINAL                 CCN000255000000255000FN00000000020220401000255000NNM   20220126145333    4P0P  0000150000000069600000099021200    YCYC    006400630015
BI00B1200    2399T52204     202203107116-4100-02             TERMINAL                 CCN000255000000255000FN00000000020220401000255000NNM   20220126145333    4P0P  0000150000000069600000099021200    YCYC    006400630015
BI00B1200    2399T52205     202203177116-4100-02             TERMINAL                 CCN000255000000255000FN00000000020220401000255000NNM   20220126145333    4P0P  0000150000000069600000099021200    YCYC    006400630015
BI00B1200    2399T52206     202203247116-4100-02             TERMINAL                 CCN000255000000255000FN00000000020220401000255000NNM   20220126145333    4P0P  0000150000000069600000099021200    YCYC    006400630015
BI00B1200    2399T52203     202203037116-4111-02             TERMINAL                 CCN000015000000015000FN00000000020220401000015000NNM   20220126145333    4P0P  0000075000000052950000081771200    YCYC    006400630015
BI00B1200    2399T52204     202203107116-4111-02             TERMINAL                 CCN000015000000015000FN00000000020220401000015000NNM   20220126145333    4P0P  0000075000000052950000081771200    YCYC    006400630015
BI00B1200    2399T52205     202203177116-4111-02             TERMINAL                 CCN000015000000015000FN00000000020220401000015000NNM   20220126145333    4P0P  0000075000000052950000081771200    YCYC    006400630015
BI00B1200    2399T52203     202203037172-1372-10             FRONT HOLDER             CCN000003900000003900FN00000000020220401000003900NNM   20220126145333    4F0F  0000039000000065520000095521200    YCYC    005500360039
BI00B1200    2399T52203     202203037172-5540-80             SEALED WIRE SEAL         CCN000080000000080000FN00000000020220401000080000NNM   20220126145333    1C0C  0000200000000018600000023441200    YCYC    004300270014
BI00B1200    2399T52204     202203107172-5540-80             SEALED WIRE SEAL         CCN000080000000080000FN00000000020220401000080000NNM   20220126145333    1C0C  0000200000000018600000023441200    YCYC    004300270014
BI00B1200    2399T52205     202203177172-5540-80             SEALED WIRE SEAL         CCN000080000000080000FN00000000020220401000080000NNM   20220126145333    1C0C  0000200000000018600000023441200    YCYC    004300270014
BI00B1200    2399T52203     202203037173-3291-40             LIF LEVER                CCN000014400000014400FN00000000020220401000014400NNM   20220126145333    1F0F  0000024000000086780000106781200    YCYC    005500360039
BI00B1200    2399T52204     202203107173-3291-40             LIF LEVER                CCN000012000000012000FN00000000020220401000012000NNM   20220126145333    1F0F  0000024000000086780000106781200    YCYC    005500360039
BI00B1200    2399T52205     202203177173-3291-40             LIF LEVER                CCN000012000000012000FN00000000020220401000012000NNM   20220126145333    1F0F  0000024000000086780000106781200    YCYC    005500360039
BI00B1200    #2399T52203    202203037124-1026-30             PROTECTOR                CCN000003000000003000FN00000000020220401000003000NNM   20220126145320    2F0F  0000030000000082800000098601200    YCYC    005500360039
BI00B1200    #2399T52204    202203107124-1026-30             PROTECTOR                CCN000003000000003000FN00000000020220401000003000NNM   20220126145320    2F0F  0000030000000082800000098601200    YCYC    005500360039
BI00B1200    #2399T52205    202203177124-1026-30             PROTECTOR                CCN000003000000003000FN00000000020220401000003000NNM   20220126145320    2F0F  0000030000000082800000098601200    YCYC    005500360039
BI00B1200    #2399T52203    202203037173-3225-10             LIF LEVER                CCN000016800000016800FN00000000020220401000016800NNM   20220126145320    2F0F  0000008000000059200000071201200    YCYC    005500360039
BI00B1200    #2399T52204    202203107173-3225-10             LIF LEVER                CCN000016800000016800FN00000000020220401000016800NNM   20220126145320    2F0F  0000008000000059200000071201200    YCYC    005500360039
BI00B1200    #2399T52205    202203177173-3225-10             LIF LEVER                CCN000016800000016800FN00000000020220401000016800NNM   20220126145320    2F0F  0000008000000059200000071201200    YCYC    005500360039
BI00B1200    #2399T52203    202203037174-1270-30             SEALED COVER             CCN000001600000001600FN00000000020220401000001600NNM   20220126145320    2F0F  0000008000000056070000067911200    YCYC    005500360039
BI00B1200    #2399T52204    202203107174-1270-30             SEALED COVER             CCN000001600000001600FN00000000020220401000001600NNM   20220126145320    2F0F  0000008000000056070000067911200    YCYC    005500360039
BI00B1200    #2399T52205    202203177174-1270-30             SEALED COVER             CCN000000800000000800FN00000000020220401000000800NNM   20220126145320    2F0F  0000008000000056070000067911200    YCYC    005500360039
BI00B1200    #2399T52203    202203037174-1314-30             SEALED COVER             CCN000006400000006400FN00000000020220401000006400NNM   20220126145320    2F0F  0000008000000076930000088931200    YCYC    005500360039
BI00B1200    #2399T52204    202203107174-1314-30             SEALED COVER             CCN000005600000005600FN00000000020220401000005600NNM   20220126145320    2F0F  0000008000000076930000088931200    YCYC    005500360039
BI00B1200    #2399T52205    202203177174-1314-30             SEALED COVER             CCN000005600000005600FN00000000020220401000005600NNM   20220126145320    2F0F  0000008000000076930000088931200    YCYC    005500360039
BI00B1200    #2399T52203    202203037174-1315-30             SEALED COVER             CCN000002400000002400FN00000000020220401000002400NNM   20220126145320    2F0F  0000008000000078200000090201200    YCYC    005500360039
BI00B1200    #2399T52204    202203107174-1315-30             SEALED COVER             CCN000002400000002400FN00000000020220401000002400NNM   20220126145320    2F0F  0000008000000078200000090201200    YCYC    005500360039
BI00B1200    #2399T52205    202203177174-1315-30             SEALED COVER             CCN000002400000002400FN00000000020220401000002400NNM   20220126145320    2F0F  0000008000000078200000090201200    YCYC    005500360039
BI00B1200    2399T52207     202203247116-4111-02             TERMINAL                 CCN000015000000015000FN00000000020220401000015000NNM   20220126145519    4P0P  0000075000000052950000081771200    YCYC    006400630015
BI00B1200    2399T52208     202203317116-4111-02             TERMINAL                 CCN000015000000015000FN00000000020220401000015000NNM   20220126145519    4P0P  0000075000000052950000081771200    YCYC    006400630015
BI00B1200    2399T52207     202203247172-5540-80             SEALED WIRE SEAL         CCN000080000000080000FN00000000020220401000080000NNM   20220126145519    1C0C  0000200000000018600000023441200    YCYC    004300270014
BI00B1200    2399T52208     202203317172-5540-80             SEALED WIRE SEAL         CCN000080000000080000FN00000000020220401000080000NNM   20220126145519    1C0C  0000200000000018600000023441200    YCYC    004300270014
BI00B1200    2399T52207     202203247173-3291-40             LIF LEVER                CCN000012000000012000FN00000000020220401000012000NNM   20220126145519    1F0F  0000024000000086780000106781200    YCYC    005500360039
BI00B1200    2399T52208     202203317173-3291-40             LIF LEVER                CCN000012000000012000FN00000000020220401000012000NNM   20220126145519    1F0F  0000024000000086780000106781200    YCYC    005500360039
BI00B1200    2399T52208     202203317116-4100-02             TERMINAL                 CCN000255000000255000FN00000000020220401000255000NNM   20220126145519    4P0P  0000150000000069600000099021200    YCYC    006400630015
BI00B1200    #2399T52207    202203247124-1026-30             PROTECTOR                CCN000003000000003000FN00000000020220401000003000NNM   20220126145518    2F0F  0000030000000082800000098601200    YCYC    005500360039
BI00B1200    #2399T52207    202203247173-3225-10             LIF LEVER                CCN000016000000016000FN00000000020220401000016000NNM   20220126145518    2F0F  0000008000000059200000071201200    YCYC    005500360039
BI00B1200    #2399T52208    202203317173-3225-10             LIF LEVER                CCN000016000000016000FN00000000020220401000016000NNM   20220126145518    2F0F  0000008000000059200000071201200    YCYC    005500360039
BI00B1200    #2399T52207    202203247174-1270-30             SEALED COVER             CCN000000800000000800FN00000000020220401000000800NNM   20220126145518    2F0F  0000008000000056070000067911200    YCYC    005500360039
BI00B1200    #2399T52208    202203317174-1270-30             SEALED COVER             CCN000000800000000800FN00000000020220401000000800NNM   20220126145518    2F0F  0000008000000056070000067911200    YCYC    005500360039
BI00B1200    #2399T52207    202203247174-1314-30             SEALED COVER             CCN000005600000005600FN00000000020220401000005600NNM   20220126145518    2F0F  0000008000000076930000088931200    YCYC    005500360039
BI00B1200    #2399T52208    202203317174-1314-30             SEALED COVER             CCN000005600000005600FN00000000020220401000005600NNM   20220126145518    2F0F  0000008000000076930000088931200    YCYC    005500360039
BI00B1200    #2399T52207    202203247174-1315-30             SEALED COVER             CCN000002400000002400FN00000000020220401000002400NNM   20220126145518    2F0F  0000008000000078200000090201200    YCYC    005500360039
BI00B1200    #2399T52208    202203317174-1315-30             SEALED COVER             CCN000001600000001600FN00000000020220401000001600NNM   20220126145518    2F0F  0000008000000078200000090201200    YCYC    005500360039
BI00B1200    2399T52209     202203037174-1849-70             COVER                    CCN000125000000125000FN00000000020220401000125000NNM   20220126145645    1F0F  0000250000000062250000076191200    YCYC    005400370024
BI00B1200    2399T52210     202203107174-1849-70             COVER                    CCN000125000000125000FN00000000020220401000125000NNM   20220126145645    1F0F  0000250000000062250000076191200    YCYC    005400370024
BI00B1200    2399T52211     202203177174-1849-70             COVER                    CCN000125000000125000FN00000000020220401000125000NNM   20220126145645    1F0F  0000250000000062250000076191200    YCYC    005400370024
BI00B1200    2399T52209     202203037195-0547-02             TERMINAL ALUMINIUM       CCN000025500000025500FN00000000020220401000025500NNM   20220126145645    4P0P  0000255000000041820000076021200    YCYC    006400630015
BI00B1200    2399T52209     202203037195-0783-08             TERMINAL                 CCN000090000000090000FN00000000020220401000090000NNM   20220126145645    4P0P  0000300000000050700000080121200    YCYC    006400630015
BI00B1200    2399T52210     202203107195-0783-08             TERMINAL                 CCN000090000000090000FN00000000020220401000090000NNM   20220126145645    4P0P  0000300000000050700000080121200    YCYC    006400630015
BI00B1200    2399T52211     202203177195-0783-08             TERMINAL                 CCN000090000000090000FN00000000020220401000090000NNM   20220126145645    4P0P  0000300000000050700000080121200    YCYC    006400630015
BI00B1200    2399T52209     202203037196-0549-02             TERMINAL ALUMINIUM       CCN000038000000038000FN00000000020220401000038000NNM   20220126145645    4P0P  0000380000000059280000097921200    YCYC    006400630017
BI00B1200    2399T52209     202203037196-0550-02             TERMINAL ALUMINIUM       CCN000032000000032000FN00000000020220401000032000NNM   20220126145645    4P0P  0000320000000051520000090161200    YCYC    006400630017
BI00B1200    2399T52210     202203107196-0550-02             TERMINAL ALUMINIUM       CCN000032000000032000FN00000000020220401000032000NNM   20220126145645    4P0P  0000320000000051520000090161200    YCYC    006400630017
BI00B1200    2399T52209     202203037196-0648-02             TERMINAL                 CCN000150000000150000FN00000000020220401000150000NNM   20220126145645    4P0P  0000150000000035550000068971200    YCYC    006400630015
BI00B1200    2399T52210     202203107196-0648-02             TERMINAL                 CCN000150000000150000FN00000000020220401000150000NNM   20220126145645    4P0P  0000150000000035550000068971200    YCYC    006400630015
BI00B1200    2399T52211     202203177196-0648-02             TERMINAL                 CCN000135000000135000FN00000000020220401000135000NNM   20220126145645    4P0P  0000150000000035550000068971200    YCYC    006400630015
BI00B1200    2399T52209     202203037196-0805-02             TERMINAL FEMALE          CCN000247500000247500FN00000000020220401000247500NNM   20220126145645    4P0P  0000225000000055800000084321200    YCYC    006400630015
BI00B1200    2399T52210     202203107196-0805-02             TERMINAL FEMALE          CCN000247500000247500FN00000000020220401000247500NNM   20220126145645    4P0P  0000225000000055800000084321200    YCYC    006400630015
BI00B1200    2399T52211     202203177196-0805-02             TERMINAL FEMALE          CCN000247500000247500FN00000000020220401000247500NNM   20220126145645    4P0P  0000225000000055800000084321200    YCYC    006400630015
BI00B1200    2399T52209     202203037282-5574-10             CONNECTOR                CCN000000800000000800FN00000000020220401000000800NNM   20220126145645    4N0N  0000008000000123500000142301200    YCYC    005600390040
BI00B1200    2399T52210     202203107282-5574-10             CONNECTOR                CCN000000800000000800FN00000000020220401000000800NNM   20220126145645    4N0N  0000008000000123500000142301200    YCYC    005600390040
BI00B1200    2399T52211     202203177282-5574-10             CONNECTOR                CCN000000800000000800FN00000000020220401000000800NNM   20220126145645    4N0N  0000008000000123500000142301200    YCYC    005600390040
BI00B1200    #2399T52209    202203037174-1515                FRONT DOOR COVER         CCN000001800000001800FN00000000020220401000001800NNM   20220126145637    2F0F  0000006000000049020000061021200    YCYC    005500360039
BI00B1200    #2399T52210    202203107174-1515                FRONT DOOR COVER         CCN000001800000001800FN00000000020220401000001800NNM   20220126145637    2F0F  0000006000000049020000061021200    YCYC    005500360039
BI00B1200    #2399T52211    202203177174-1515                FRONT DOOR COVER         CCN000001800000001800FN00000000020220401000001800NNM   20220126145637    2F0F  0000006000000049020000061021200    YCYC    005500360039
BI00B1200    #2399T52212    202203247174-1515                FRONT DOOR COVER         CCN000001200000001200FN00000000020220401000001200NNM   20220126145637    2F0F  0000006000000049020000061021200    YCYC    005500360039
BI00B1200    #2399T52209    202203037174-1760-50             CAP                      CCN000006000000006000FN00000000020220401000006000NNM   20220126145637    2F0F  0000030000000081360000092261200    YCYC    005400370024
BI00B1200    #2399T52210    202203107174-1760-50             CAP                      CCN000006000000006000FN00000000020220401000006000NNM   20220126145637    2F0F  0000030000000081360000092261200    YCYC    005400370024
BI00B1200    #2399T52211    202203177174-1760-50             CAP                      CCN000006000000006000FN00000000020220401000006000NNM   20220126145637    2F0F  0000030000000081360000092261200    YCYC    005400370024
BI00B1200    #2399T52209    202203037189-3033                HOUSING FEMALE           CCN000006400000006400FN00000000020220401000006400NNM   20220126145637    2F0F  0000016000000121120000143121200    YCYC    005500360039
BI00B1200    #2399T52210    202203107189-3033                HOUSING FEMALE           CCN000006400000006400FN00000000020220401000006400NNM   20220126145637    2F0F  0000016000000121120000143121200    YCYC    005500360039
BI00B1200    #2399T52211    202203177189-3033                HOUSING FEMALE           CCN000006400000006400FN00000000020220401000006400NNM   20220126145637    2F0F  0000016000000121120000143121200    YCYC    005500360039
BI00B1200    #2399T52209    202203037189-3034-30             HOUSING FEMALE           CCN000014400000014400FN00000000020220401000014400NNM   20220126145637    2F0F  0000016000000097280000119281200    YCYC    005500360039
BI00B1200    #2399T52210    202203107189-3034-30             HOUSING FEMALE           CCN000012800000012800FN00000000020220401000012800NNM   20220126145637    2F0F  0000016000000097280000119281200    YCYC    005500360039
BI00B1200    #2399T52211    202203177189-3034-30             HOUSING FEMALE           CCN000012800000012800FN00000000020220401000012800NNM   20220126145637    2F0F  0000016000000097280000119281200    YCYC    005500360039
BI00B1200    #2399T52209    202203037189-3036                HOUSING FEMALE           CCN000006400000006400FN00000000020220401000006400NNM   20220126145637    2F0F  0000016000000092160000114161200    YCYC    005500360039
BI00B1200    #2399T52210    202203107189-3036                HOUSING FEMALE           CCN000006400000006400FN00000000020220401000006400NNM   20220126145637    2F0F  0000016000000092160000114161200    YCYC    005500360039
BI00B1200    #2399T52211    202203177189-3036                HOUSING FEMALE           CCN000006400000006400FN00000000020220401000006400NNM   20220126145637    2F0F  0000016000000092160000114161200    YCYC    005500360039
BI00B1200    #2399T52209    202203037189-3036-30             HOUSING FEMALE           CCN000001600000001600FN00000000020220401000001600NNM   20220126145637    2F0F  0000016000000092000000114001200    YCYC    005500360039
BI00B1200    #2399T52210    202203107189-3036-30             HOUSING FEMALE           CCN000001600000001600FN00000000020220401000001600NNM   20220126145637    2F0F  0000016000000092000000114001200    YCYC    005500360039
BI00B1200    #2399T52211    202203177189-3036-30             HOUSING FEMALE           CCN000001600000001600FN00000000020220401000001600NNM   20220126145637    2F0F  0000016000000092000000114001200    YCYC    005500360039
BI00B1200    #2399T52209    202203037198-1372-60             HOUSING FEMALE           CCN000004000000004000FN00000000020220401000004000NNM   20220126145637    2F0F  0000020000000085720000099521200    YCYC    005400370024
BI00B1200    #2399T52210    202203107198-1372-60             HOUSING FEMALE           CCN000004000000004000FN00000000020220401000004000NNM   20220126145637    2F0F  0000020000000085720000099521200    YCYC    005400370024
BI00B1200    #2399T52211    202203177198-1372-60             HOUSING FEMALE           CCN000004000000004000FN00000000020220401000004000NNM   20220126145637    2F0F  0000020000000085720000099521200    YCYC    005400370024
BI00B1200    #2399T52209    202203037198-1373-60             HOUSING FEMALE           CCN000014000000014000FN00000000020220401000014000NNM   20220126145637    2F0F  0000020000000081940000094741200    YCYC    005400370024
BI00B1200    #2399T52210    202203107198-1373-60             HOUSING FEMALE           CCN000014000000014000FN00000000020220401000014000NNM   20220126145637    2F0F  0000020000000081940000094741200    YCYC    005400370024
BI00B1200    #2399T52211    202203177198-1373-60             HOUSING FEMALE           CCN000014000000014000FN00000000020220401000014000NNM   20220126145637    2F0F  0000020000000081940000094741200    YCYC    005400370024
BI00B1200    2399T52213     202203247174-1849-70             COVER                    CCN000125000000125000FN00000000020220401000125000NNM   20220126145739    1F0F  0000250000000062250000076191200    YCYC    005400370024
BI00B1200    2399T52214     202203317174-1849-70             COVER                    CCN000125000000125000FN00000000020220401000125000NNM   20220126145739    1F0F  0000250000000062250000076191200    YCYC    005400370024
BI00B1200    2399T52213     202203247195-0783-08             TERMINAL                 CCN000090000000090000FN00000000020220401000090000NNM   20220126145739    4P0P  0000300000000050700000080121200    YCYC    006400630015
BI00B1200    2399T52214     202203317195-0783-08             TERMINAL                 CCN000060000000060000FN00000000020220401000060000NNM   20220126145739    4P0P  0000300000000050700000080121200    YCYC    006400630015
BI00B1200    2399T52213     202203247196-0648-02             TERMINAL                 CCN000135000000135000FN00000000020220401000135000NNM   20220126145739    4P0P  0000150000000035550000068971200    YCYC    006400630015
BI00B1200    2399T52214     202203317196-0648-02             TERMINAL                 CCN000135000000135000FN00000000020220401000135000NNM   20220126145739    4P0P  0000150000000035550000068971200    YCYC    006400630015
BI00B1200    2399T52213     202203247196-0805-02             TERMINAL FEMALE          CCN000225000000225000FN00000000020220401000225000NNM   20220126145739    4P0P  0000225000000055800000084321200    YCYC    006400630015
BI00B1200    2399T52214     202203317196-0805-02             TERMINAL FEMALE          CCN000225000000225000FN00000000020220401000225000NNM   20220126145739    4P0P  0000225000000055800000084321200    YCYC    006400630015
BI00B1200    2399T52213     202203247282-5574-10             CONNECTOR                CCN000000800000000800FN00000000020220401000000800NNM   20220126145739    4N0N  0000008000000123500000142301200    YCYC    005600390040
BI00B1200    #2399T52213    202203247174-1760-50             CAP                      CCN000006000000006000FN00000000020220401000006000NNM   20220126145736    2F0F  0000030000000081360000092261200    YCYC    005400370024
BI00B1200    #2399T52214    202203317174-1760-50             CAP                      CCN000006000000006000FN00000000020220401000006000NNM   20220126145736    2F0F  0000030000000081360000092261200    YCYC    005400370024
BI00B1200    #2399T52213    202203247189-3033                HOUSING FEMALE           CCN000006400000006400FN00000000020220401000006400NNM   20220126145736    2F0F  0000016000000121120000143121200    YCYC    005500360039
BI00B1200    #2399T52214    202203317189-3033                HOUSING FEMALE           CCN000004800000004800FN00000000020220401000004800NNM   20220126145736    2F0F  0000016000000121120000143121200    YCYC    005500360039
BI00B1200    #2399T52213    202203247189-3034-30             HOUSING FEMALE           CCN000012800000012800FN00000000020220401000012800NNM   20220126145736    2F0F  0000016000000097280000119281200    YCYC    005500360039
BI00B1200    #2399T52214    202203317189-3034-30             HOUSING FEMALE           CCN000012800000012800FN00000000020220401000012800NNM   20220126145736    2F0F  0000016000000097280000119281200    YCYC    005500360039
BI00B1200    #2399T52213    202203247189-3036                HOUSING FEMALE           CCN000006400000006400FN00000000020220401000006400NNM   20220126145736    2F0F  0000016000000092160000114161200    YCYC    005500360039
BI00B1200    #2399T52214    202203317189-3036                HOUSING FEMALE           CCN000004800000004800FN00000000020220401000004800NNM   20220126145736    2F0F  0000016000000092160000114161200    YCYC    005500360039
BI00B1200    #2399T52213    202203247189-3036-30             HOUSING FEMALE           CCN000001600000001600FN00000000020220401000001600NNM   20220126145736    2F0F  0000016000000092000000114001200    YCYC    005500360039
BI00B1200    #2399T52214    202203317189-3036-30             HOUSING FEMALE           CCN000001600000001600FN00000000020220401000001600NNM   20220126145736    2F0F  0000016000000092000000114001200    YCYC    005500360039
BI00B1200    #2399T52213    202203247198-1372-60             HOUSING FEMALE           CCN000002000000002000FN00000000020220401000002000NNM   20220126145736    2F0F  0000020000000085720000099521200    YCYC    005400370024
BI00B1200    #2399T52214    202203317198-1372-60             HOUSING FEMALE           CCN000002000000002000FN00000000020220401000002000NNM   20220126145736    2F0F  0000020000000085720000099521200    YCYC    005400370024
BI00B1200    #2399T52213    202203247198-1373-60             HOUSING FEMALE           CCN000012000000012000FN00000000020220401000012000NNM   20220126145736    2F0F  0000020000000081940000094741200    YCYC    005400370024
BI00B1200    #2399T52214    202203317198-1373-60             HOUSING FEMALE           CCN000012000000012000FN00000000020220401000012000NNM   20220126145736    2F0F  0000020000000081940000094741200    YCYC    005400370024
BI00B1200    #2399T52214    202203317174-1515                FRONT DOOR COVER         CCN000001200000001200FN00000000020220401000001200NNM   20220126145736    2F0F  0000006000000049020000061021200    YCYC    005500360039
BI00B1200    2399T52215     202203037287-9323                UNSEALED HOUSING SUB     CCN000002400000002400FN00000000020220401000002400NNM   20220126145853    1N0N  0000024000000053760000069001200    YCYC    005600390023
BI00B1200    2399T52216     202203107287-9323                UNSEALED HOUSING SUB     CCN000002400000002400FN00000000020220401000002400NNM   20220126145853    1N0N  0000024000000053760000069001200    YCYC    005600390023
BI00B1200    2399T52215     202203037288-3334-30             HOUSING MALE             CCN000001500000001500FN00000000020220401000001500NNM   20220126145853    4N0N  0000015000000086700000101201200    YCYC    005400370024
BI00B1200    2399T52216     202203107288-3334-30             HOUSING MALE             CCN000001500000001500FN00000000020220401000001500NNM   20220126145853    4N0N  0000015000000086700000101201200    YCYC    005400370024
BI00B1200    2399T52217     202203177288-3334-30             HOUSING MALE             CCN000001500000001500FN00000000020220401000001500NNM   20220126145853    4N0N  0000015000000086700000101201200    YCYC    005400370024
BI00B1200    2399T52215     202203037288-3340-30             HOUSING MALE             CCN000001500000001500FN00000000020220401000001500NNM   20220126145853    4N0N  0000015000000086150000100641200    YCYC    005400370024
BI00B1200    2399T52215     202203037288-6547                CONNECTOR MALE ASS'Y     CCN000160500000160500FN00000000020220401000160500NNM   20220126145853    4N0N  0000007500000120530000134031200    YCYC    005400370024
BI00B1200    2399T52216     202203107288-6547                CONNECTOR MALE ASS'Y     CCN000159750000159750FN00000000020220401000159750NNM   20220126145853    4N0N  0000007500000120530000134031200    YCYC    005400370024
BI00B1200    2399T52217     202203177288-6547                CONNECTOR MALE ASS'Y     CCN000159750000159750FN00000000020220401000159750NNM   20220126145853    4N0N  0000007500000120530000134031200    YCYC    005400370024
BI00B1200    2399T52218     202203247288-6547                CONNECTOR MALE ASS'Y     CCN000159750000159750FN00000000020220401000159750NNM   20220126145853    4N0N  0000007500000120530000134031200    YCYC    005400370024
BI00B1200    2399T52215     202203037288-6598-70             HOUSING MALE ASS'Y       CCN000020160000020160FN00000000020220401000020160NNM   20220126145853    4N0N  0000014400000107420000142921200    YCYC    005500360039
BI00B1200    2399T52216     202203107288-6598-70             HOUSING MALE ASS'Y       CCN000020160000020160FN00000000020220401000020160NNM   20220126145853    4N0N  0000014400000107420000142921200    YCYC    005500360039
BI00B1200    2399T52217     202203177288-6598-70             HOUSING MALE ASS'Y       CCN000020160000020160FN00000000020220401000020160NNM   20220126145853    4N0N  0000014400000107420000142921200    YCYC    005500360039
BI00B1200    2399T52215     202203037288-7969                HYBRID MALE ASS'Y        CCN000016960000016960FN00000000020220401000016960NNM   20220126145853    1N0N  0000003200000087620000110171200    YCYC    005400370024
BI00B1200    2399T52216     202203107288-7969                HYBRID MALE ASS'Y        CCN000016960000016960FN00000000020220401000016960NNM   20220126145853    1N0N  0000003200000087620000110171200    YCYC    005400370024
BI00B1200    2399T52217     202203177288-7969                HYBRID MALE ASS'Y        CCN000016960000016960FN00000000020220401000016960NNM   20220126145853    1N0N  0000003200000087620000110171200    YCYC    005400370024
BI00B1200    2399T52215     202203037289-0269                HOUSING SUB ASSEMBLY     CCN000004800000004800FN00000000020220401000004800NNM   20220126145853    1N0N  0000016000000100210000123451200    YCYC    005500360039
BI00B1200    2399T52216     202203107289-0269                HOUSING SUB ASSEMBLY     CCN000004800000004800FN00000000020220401000004800NNM   20220126145853    1N0N  0000016000000100210000123451200    YCYC    005500360039
BI00B1200    2399T52217     202203177289-0269                HOUSING SUB ASSEMBLY     CCN000004800000004800FN00000000020220401000004800NNM   20220126145853    1N0N  0000016000000100210000123451200    YCYC    005500360039
BI00B1200    2399T52215     202203037289-3342                HOUSING FEMALE ASS'Y     CCN000002400000002400FN00000000020220401000002400NNM   20220126145853    1N0N  0000024000000068640000090141200    YCYC    005500360039
BI00B1200    2399T52216     202203107289-3342                HOUSING FEMALE ASS'Y     CCN000002400000002400FN00000000020220401000002400NNM   20220126145853    1N0N  0000024000000068640000090141200    YCYC    005500360039
BI00B1200    2399T52217     202203177289-3342                HOUSING FEMALE ASS'Y     CCN000002400000002400FN00000000020220401000002400NNM   20220126145853    1N0N  0000024000000068640000090141200    YCYC    005500360039
BI00B1200    2399T52215     202203037289-4212-80             SEALED HOUSING ASS'Y     CCN000012000000012000FN00000000020220401000012000NNM   20220126145853    4N0N  0000020000000084860000097861200    YCYC    005400370024
BI00B1200    2399T52216     202203107289-4212-80             SEALED HOUSING ASS'Y     CCN000012000000012000FN00000000020220401000012000NNM   20220126145853    4N0N  0000020000000084860000097861200    YCYC    005400370024
BI00B1200    2399T52217     202203177289-4212-80             SEALED HOUSING ASS'Y     CCN000012000000012000FN00000000020220401000012000NNM   20220126145853    4N0N  0000020000000084860000097861200    YCYC    005400370024
BI00B1200    2399T52215     202203037289-6159-30             HOUSING FEMALE ASS'Y     CCN000001440000001440FN00000000020220401000001440NNM   20220126145853    4N0N  0000002400000109500000137501200    YCYC    005500360039
BI00B1200    2399T52216     202203107289-6159-30             HOUSING FEMALE ASS'Y     CCN000001440000001440FN00000000020220401000001440NNM   20220126145853    4N0N  0000002400000109500000137501200    YCYC    005500360039
BI00B1200    2399T52217     202203177289-6159-30             HOUSING FEMALE ASS'Y     CCN000001200000001200FN00000000020220401000001200NNM   20220126145853    4N0N  0000002400000109500000137501200    YCYC    005500360039
BI00B1200    2399T52215     202203037289-6160-30             HOUSING FEMALE ASS'Y     CCN000000320000000320FN00000000020220401000000320NNM   20220126145853    4N0N  0000001600000103740000132041200    YCYC    005500360039
BI00B1200    2399T52216     202203107289-6160-30             HOUSING FEMALE ASS'Y     CCN000000320000000320FN00000000020220401000000320NNM   20220126145853    4N0N  0000001600000103740000132041200    YCYC    005500360039
BI00B1200    2399T52217     202203177289-6160-30             HOUSING FEMALE ASS'Y     CCN000000320000000320FN00000000020220401000000320NNM   20220126145853    4N0N  0000001600000103740000132041200    YCYC    005500360039
BI00B1200    2399T52215     202203037289-6518-30             HOUSING FEMALE ASS'Y     CCN000004800000004800FN00000000020220401000004800NNM   20220126145853    1N0N  0000012000000082920000104921200    YCYC    005500360039
BI00B1200    2399T52216     202203107289-6518-30             HOUSING FEMALE ASS'Y     CCN000004800000004800FN00000000020220401000004800NNM   20220126145853    1N0N  0000012000000082920000104921200    YCYC    005500360039
BI00B1200    2399T52217     202203177289-6518-30             HOUSING FEMALE ASS'Y     CCN000003600000003600FN00000000020220401000003600NNM   20220126145853    1N0N  0000012000000082920000104921200    YCYC    005500360039
BI00B1200    2399T52215     202203037289-6523-30             HOUSING FEMALE ASS'Y     CCN000001200000001200FN00000000020220401000001200NNM   20220126145853    4N0N  0000002400000129050000162051200    YCYC    005500360039
BI00B1200    2399T52216     202203107289-6523-30             HOUSING FEMALE ASS'Y     CCN000001200000001200FN00000000020220401000001200NNM   20220126145853    4N0N  0000002400000129050000162051200    YCYC    005500360039
BI00B1200    2399T52217     202203177289-6523-30             HOUSING FEMALE ASS'Y     CCN000001200000001200FN00000000020220401000001200NNM   20220126145853    4N0N  0000002400000129050000162051200    YCYC    005500360039
BI00B1200    2399T52215     202203037289-6547                HOUSING FEMALE ASS'Y     CCN000144000000144000FN00000000020220401000144000NNM   20220126145853    1N0N  0000024000000115200000136201200    YCYC    005500360039
BI00B1200    2399T52216     202203107289-6547                HOUSING FEMALE ASS'Y     CCN000144000000144000FN00000000020220401000144000NNM   20220126145853    1N0N  0000024000000115200000136201200    YCYC    005500360039
BI00B1200    2399T52217     202203177289-6547                HOUSING FEMALE ASS'Y     CCN000144000000144000FN00000000020220401000144000NNM   20220126145853    1N0N  0000024000000115200000136201200    YCYC    005500360039
BI00B1200    2399T52215     202203037289-6597-70             HOUSING FEMALE ASS'Y     CCN000006480000006480FN00000000020220401000006480NNM   20220126145853    4N0N  0000021600000128950000153951200    YCYC    005500360039
BI00B1200    2399T52216     202203107289-6597-70             HOUSING FEMALE ASS'Y     CCN000006480000006480FN00000000020220401000006480NNM   20220126145853    4N0N  0000021600000128950000153951200    YCYC    005500360039
BI00B1200    2399T52217     202203177289-6597-70             HOUSING FEMALE ASS'Y     CCN000004320000004320FN00000000020220401000004320NNM   20220126145853    4N0N  0000021600000128950000153951200    YCYC    005500360039
BI00B1200    2399T52215     202203037289-6868-30             SEALED ASSY FEMALE       CCN000010080000010080FN00000000020220401000010080NNM   20220126145853    4N0N  0000025200000083920000111921200    YCYC    005500360039
BI00B1200    2399T52216     202203107289-6868-30             SEALED ASSY FEMALE       CCN000010080000010080FN00000000020220401000010080NNM   20220126145853    4N0N  0000025200000083920000111921200    YCYC    005500360039
BI00B1200    2399T52217     202203177289-6868-30             SEALED ASSY FEMALE       CCN000010080000010080FN00000000020220401000010080NNM   20220126145853    4N0N  0000025200000083920000111921200    YCYC    005500360039
BI00B1200    2399T52215     202203037289-7212-30             HOUSING FEMALE ASS'Y     CCN000004320000004320FN00000000020220401000004320NNM   20220126145853    4N0N  0000002400000138840000159341200    YCYC    005500360039
BI00B1200    2399T52216     202203107289-7212-30             HOUSING FEMALE ASS'Y     CCN000004320000004320FN00000000020220401000004320NNM   20220126145853    4N0N  0000002400000138840000159341200    YCYC    005500360039
BI00B1200    2399T52217     202203177289-7212-30             HOUSING FEMALE ASS'Y     CCN000004320000004320FN00000000020220401000004320NNM   20220126145853    4N0N  0000002400000138840000159341200    YCYC    005500360039
BI00B1200    2399T52215     202203037289-7615-30             HOUSING FEMALE ASS'Y     CCN000000320000000320FN00000000020220401000000320NNM   20220126145853    4N0N  0000003200000073800000094801200    YCYC    005400370024
BI00B1200    2399T52216     202203107289-7615-30             HOUSING FEMALE ASS'Y     CCN000000320000000320FN00000000020220401000000320NNM   20220126145853    4N0N  0000003200000073800000094801200    YCYC    005400370024
BI00B1200    2399T52215     202203037289-7970                HYBRID FEMALE ASS'Y      CCN000004480000004480FN00000000020220401000004480NNM   20220126145853    1N0N  0000003200000073820000096471200    YCYC    005400370024
BI00B1200    2399T52216     202203107289-7970                HYBRID FEMALE ASS'Y      CCN000004480000004480FN00000000020220401000004480NNM   20220126145853    1N0N  0000003200000073820000096471200    YCYC    005400370024
BI00B1200    2399T52217     202203177289-7970                HYBRID FEMALE ASS'Y      CCN000004480000004480FN00000000020220401000004480NNM   20220126145853    1N0N  0000003200000073820000096471200    YCYC    005400370024
BI00B1200    2399T52215     202203037289-9613-30             HOUSING FEMALE ASS'Y     CCN000001680000001680FN00000000020220401000001680NNM   20220126145853    4N0N  0000002400000126990000154371200    YCYC    005500360039
BI00B1200    2399T52216     202203107289-9613-30             HOUSING FEMALE ASS'Y     CCN000001680000001680FN00000000020220401000001680NNM   20220126145853    4N0N  0000002400000126990000154371200    YCYC    005500360039
BI00B1200    2399T52217     202203177289-9613-30             HOUSING FEMALE ASS'Y     CCN000001680000001680FN00000000020220401000001680NNM   20220126145853    4N0N  0000002400000126990000154371200    YCYC    005500360039
BI00B1200    2399T52215     202203037298-1145-4W             SQUIB SUB ASS'Y          CCN000130000000130000FN00000000020220401000130000NNM   20220126145853    4N0N  0000100000000078790000094491200    YCYC    005400370024
BI00B1200    2399T52216     202203107298-1145-4W             SQUIB SUB ASS'Y          CCN000130000000130000FN00000000020220401000130000NNM   20220126145853    4N0N  0000100000000078790000094491200    YCYC    005400370024
BI00B1200    2399T52217     202203177298-1145-4W             SQUIB SUB ASS'Y          CCN000120000000120000FN00000000020220401000120000NNM   20220126145853    4N0N  0000100000000078790000094491200    YCYC    005400370024
BI00B1200    #2399T52215    202203037289-2912-40             HOUSING FEMALE ASS'Y     CCN000028000000028000FN00000000020220401000028000NNM   20220126145850    2N0N  0000020000000080400000093101200    YCYC    005400370024
BI00B1200    #2399T52216    202203107289-2912-40             HOUSING FEMALE ASS'Y     CCN000028000000028000FN00000000020220401000028000NNM   20220126145850    2N0N  0000020000000080400000093101200    YCYC    005400370024
BI00B1200    #2399T52217    202203177289-2912-40             HOUSING FEMALE ASS'Y     CCN000028000000028000FN00000000020220401000028000NNM   20220126145850    2N0N  0000020000000080400000093101200    YCYC    005400370024
BI00B1200    #2399T52215    202203037289-2913-30             HOUSING FEMALE ASS'Y     CCN000001500000001500FN00000000020220401000001500NNM   20220126145850    2N0N  0000015000000090750000103451200    YCYC    005400360024
BI00B1200    #2399T52216    202203107289-2913-30             HOUSING FEMALE ASS'Y     CCN000001500000001500FN00000000020220401000001500NNM   20220126145850    2N0N  0000015000000090750000103451200    YCYC    005400360024
BI00B1200    #2399T52217    202203177289-2913-30             HOUSING FEMALE ASS'Y     CCN000001500000001500FN00000000020220401000001500NNM   20220126145850    2N0N  0000015000000090750000103451200    YCYC    005400360024
BI00B1200    #2399T52215    202203037289-3622-30             HOUSING FEMALE ASS'Y     CCN000010368000010368FN00000000020220401000010368NNM   20220126145850    2N0N  0000004320000083940000103841200    YCYC    005400370024
BI00B1200    #2399T52216    202203107289-3622-30             HOUSING FEMALE ASS'Y     CCN000009936000009936FN00000000020220401000009936NNM   20220126145850    2N0N  0000004320000083940000103841200    YCYC    005400370024
BI00B1200    #2399T52217    202203177289-3622-30             HOUSING FEMALE ASS'Y     CCN000009936000009936FN00000000020220401000009936NNM   20220126145850    2N0N  0000004320000083940000103841200    YCYC    005400370024
BI00B1200    2399T52219     202203247288-6598-70             HOUSING MALE ASS'Y       CCN000020160000020160FN00000000020220401000020160NNM   20220126145958    4N0N  0000014400000107420000142921200    YCYC    005500360039
BI00B1200    2399T52220     202203317288-6598-70             HOUSING MALE ASS'Y       CCN000020160000020160FN00000000020220401000020160NNM   20220126145958    4N0N  0000014400000107420000142921200    YCYC    005500360039
BI00B1200    2399T52219     202203247288-7969                HYBRID MALE ASS'Y        CCN000016960000016960FN00000000020220401000016960NNM   20220126145958    1N0N  0000003200000087620000110171200    YCYC    005400370024
BI00B1200    2399T52220     202203317288-7969                HYBRID MALE ASS'Y        CCN000016640000016640FN00000000020220401000016640NNM   20220126145958    1N0N  0000003200000087620000110171200    YCYC    005400370024
BI00B1200    2399T52219     202203247289-0269                HOUSING SUB ASSEMBLY     CCN000004800000004800FN00000000020220401000004800NNM   20220126145958    1N0N  0000016000000100210000123451200    YCYC    005500360039
BI00B1200    2399T52220     202203317289-0269                HOUSING SUB ASSEMBLY     CCN000003200000003200FN00000000020220401000003200NNM   20220126145958    1N0N  0000016000000100210000123451200    YCYC    005500360039
BI00B1200    2399T52219     202203247289-3342                HOUSING FEMALE ASS'Y     CCN000002400000002400FN00000000020220401000002400NNM   20220126145958    1N0N  0000024000000068640000090141200    YCYC    005500360039
BI00B1200    2399T52219     202203247289-4212-80             SEALED HOUSING ASS'Y     CCN000010000000010000FN00000000020220401000010000NNM   20220126145958    4N0N  0000020000000084860000097861200    YCYC    005400370024
BI00B1200    2399T52220     202203317289-4212-80             SEALED HOUSING ASS'Y     CCN000010000000010000FN00000000020220401000010000NNM   20220126145958    4N0N  0000020000000084860000097861200    YCYC    005400370024
BI00B1200    2399T52219     202203247289-6159-30             HOUSING FEMALE ASS'Y     CCN000001200000001200FN00000000020220401000001200NNM   20220126145958    4N0N  0000002400000109500000137501200    YCYC    005500360039
BI00B1200    2399T52220     202203317289-6159-30             HOUSING FEMALE ASS'Y     CCN000001200000001200FN00000000020220401000001200NNM   20220126145958    4N0N  0000002400000109500000137501200    YCYC    005500360039
BI00B1200    2399T52219     202203247289-6160-30             HOUSING FEMALE ASS'Y     CCN000000320000000320FN00000000020220401000000320NNM   20220126145958    4N0N  0000001600000103740000132041200    YCYC    005500360039
BI00B1200    2399T52220     202203317289-6160-30             HOUSING FEMALE ASS'Y     CCN000000160000000160FN00000000020220401000000160NNM   20220126145958    4N0N  0000001600000103740000132041200    YCYC    005500360039
BI00B1200    2399T52219     202203247289-6518-30             HOUSING FEMALE ASS'Y     CCN000003600000003600FN00000000020220401000003600NNM   20220126145958    1N0N  0000012000000082920000104921200    YCYC    005500360039
BI00B1200    2399T52220     202203317289-6518-30             HOUSING FEMALE ASS'Y     CCN000003600000003600FN00000000020220401000003600NNM   20220126145958    1N0N  0000012000000082920000104921200    YCYC    005500360039
BI00B1200    2399T52219     202203247289-6523-30             HOUSING FEMALE ASS'Y     CCN000001200000001200FN00000000020220401000001200NNM   20220126145958    4N0N  0000002400000129050000162051200    YCYC    005500360039
BI00B1200    2399T52220     202203317289-6523-30             HOUSING FEMALE ASS'Y     CCN000001200000001200FN00000000020220401000001200NNM   20220126145958    4N0N  0000002400000129050000162051200    YCYC    005500360039
BI00B1200    2399T52219     202203247289-6547                HOUSING FEMALE ASS'Y     CCN000144000000144000FN00000000020220401000144000NNM   20220126145958    1N0N  0000024000000115200000136201200    YCYC    005500360039
BI00B1200    2399T52220     202203317289-6547                HOUSING FEMALE ASS'Y     CCN000144000000144000FN00000000020220401000144000NNM   20220126145958    1N0N  0000024000000115200000136201200    YCYC    005500360039
BI00B1200    2399T52219     202203247289-6597-70             HOUSING FEMALE ASS'Y     CCN000004320000004320FN00000000020220401000004320NNM   20220126145958    4N0N  0000021600000128950000153951200    YCYC    005500360039
BI00B1200    2399T52220     202203317289-6597-70             HOUSING FEMALE ASS'Y     CCN000004320000004320FN00000000020220401000004320NNM   20220126145958    4N0N  0000021600000128950000153951200    YCYC    005500360039
BI00B1200    2399T52219     202203247289-6868-30             SEALED ASSY FEMALE       CCN000007560000007560FN00000000020220401000007560NNM   20220126145958    4N0N  0000025200000083920000111921200    YCYC    005500360039
BI00B1200    2399T52220     202203317289-6868-30             SEALED ASSY FEMALE       CCN000007560000007560FN00000000020220401000007560NNM   20220126145958    4N0N  0000025200000083920000111921200    YCYC    005500360039
BI00B1200    2399T52219     202203247289-7212-30             HOUSING FEMALE ASS'Y     CCN000004320000004320FN00000000020220401000004320NNM   20220126145958    4N0N  0000002400000138840000159341200    YCYC    005500360039
BI00B1200    2399T52220     202203317289-7212-30             HOUSING FEMALE ASS'Y     CCN000004320000004320FN00000000020220401000004320NNM   20220126145958    4N0N  0000002400000138840000159341200    YCYC    005500360039
BI00B1200    2399T52219     202203247289-7970                HYBRID FEMALE ASS'Y      CCN000004160000004160FN00000000020220401000004160NNM   20220126145958    1N0N  0000003200000073820000096471200    YCYC    005400370024
BI00B1200    2399T52220     202203317289-7970                HYBRID FEMALE ASS'Y      CCN000004160000004160FN00000000020220401000004160NNM   20220126145958    1N0N  0000003200000073820000096471200    YCYC    005400370024
BI00B1200    2399T52219     202203247289-9613-30             HOUSING FEMALE ASS'Y     CCN000001440000001440FN00000000020220401000001440NNM   20220126145958    4N0N  0000002400000126990000154371200    YCYC    005500360039
BI00B1200    2399T52220     202203317289-9613-30             HOUSING FEMALE ASS'Y     CCN000001440000001440FN00000000020220401000001440NNM   20220126145958    4N0N  0000002400000126990000154371200    YCYC    005500360039
BI00B1200    2399T52219     202203247298-1145-4W             SQUIB SUB ASS'Y          CCN000120000000120000FN00000000020220401000120000NNM   20220126145958    4N0N  0000100000000078790000094491200    YCYC    005400370024
BI00B1200    2399T52220     202203317288-6547                CONNECTOR MALE ASS'Y     CCN000159750000159750FN00000000020220401000159750NNM   20220126145958    4N0N  0000007500000120530000134031200    YCYC    005400370024
BI00B1200    #2399T52219    202203247289-2912-40             HOUSING FEMALE ASS'Y     CCN000026000000026000FN00000000020220401000026000NNM   20220126145956    2N0N  0000020000000080400000093101200    YCYC    005400370024
BI00B1200    #2399T52220    202203317289-2912-40             HOUSING FEMALE ASS'Y     CCN000026000000026000FN00000000020220401000026000NNM   20220126145956    2N0N  0000020000000080400000093101200    YCYC    005400370024
BI00B1200    #2399T52219    202203247289-2913-30             HOUSING FEMALE ASS'Y     CCN000001500000001500FN00000000020220401000001500NNM   20220126145956    2N0N  0000015000000090750000103451200    YCYC    005400360024
BI00B1200    #2399T52219    202203247289-3622-30             HOUSING FEMALE ASS'Y     CCN000009936000009936FN00000000020220401000009936NNM   20220126145956    2N0N  0000004320000083940000103841200    YCYC    005400370024
BI00B1200    #2399T52220    202203317289-3622-30             HOUSING FEMALE ASS'Y     CCN000009936000009936FN00000000020220401000009936NNM   20220126145956    2N0N  0000004320000083940000103841200    YCYC    005400370024
BI00B1200    2399T52221     202203037298-2853-30             HOUSING FEMALE ASS'Y     CCN000000480000000480FN00000000020220401000000480NNM   20220126150155    4N0N  0000002400000109490000136091200    YCYC    005500360039
BI00B1200    2399T52222     202203107298-2853-30             HOUSING FEMALE ASS'Y     CCN000000480000000480FN00000000020220401000000480NNM   20220126150155    4N0N  0000002400000109490000136091200    YCYC    005500360039
BI00B1200    2399T52223     202203177298-2853-30             HOUSING FEMALE ASS'Y     CCN000000240000000240FN00000000020220401000000240NNM   20220126150155    4N0N  0000002400000109490000136091200    YCYC    005500360039
BI00B1200    2399T52224     202203247298-2853-30             HOUSING FEMALE ASS'Y     CCN000000240000000240FN00000000020220401000000240NNM   20220126150155    4N0N  0000002400000109490000136091200    YCYC    005500360039
BI00B1200    2399T52221     202203037298-3990-30             HOUSING FEMALE ASS'Y     CCN000001440000001440FN00000000020220401000001440NNM   20220126150155    4NON  0000002400000120890000157391200    YCYC    005500360039
BI00B1200    2399T52222     202203107298-3990-30             HOUSING FEMALE ASS'Y     CCN000001440000001440FN00000000020220401000001440NNM   20220126150155    4NON  0000002400000120890000157391200    YCYC    005500360039
BI00B1200    2399T52223     202203177298-3990-30             HOUSING FEMALE ASS'Y     CCN000001440000001440FN00000000020220401000001440NNM   20220126150155    4NON  0000002400000120890000157391200    YCYC    005500360039
BI00B1200    2399T52224     202203247298-3990-30             HOUSING FEMALE ASS'Y     CCN000001440000001440FN00000000020220401000001440NNM   20220126150155    4NON  0000002400000120890000157391200    YCYC    005500360039
BI00B1200    2399T52221     202203037298-4094-10             HOUSING FEMALE ASS'Y     CCN000003380000003380FN00000000020220401000003380NNM   20220126150155    4N0N  0000033800000109740000135871200    YCYC    005400370024
BI00B1200    2399T52222     202203107298-4094-10             HOUSING FEMALE ASS'Y     CCN000003380000003380FN00000000020220401000003380NNM   20220126150155    4N0N  0000033800000109740000135871200    YCYC    005400370024
BI00B1200    2399T52223     202203177298-4094-10             HOUSING FEMALE ASS'Y     CCN000003380000003380FN00000000020220401000003380NNM   20220126150155    4N0N  0000033800000109740000135871200    YCYC    005400370024
BI00B1200    2399T52224     202203247298-4094-10             HOUSING FEMALE ASS'Y     CCN000003380000003380FN00000000020220401000003380NNM   20220126150155    4N0N  0000033800000109740000135871200    YCYC    005400370024
BI00B1200    2399T52225     202203317298-1145-4W             SQUIB SUB ASS'Y          CCN000120000000120000FN00000000020220401000120000NNM   20220126150155    4N0N  0000100000000078790000094491200    YCYC    005400370024
BI00B1200    2399T52226     202203317298-2853-30             HOUSING FEMALE ASS'Y     CCN000000240000000240FN00000000020220501000000240NNM   20220126150311    4N0N  0000002400000109490000136091200    YCYC    005500360039
BI00B1200    2399T52226     202203317298-3990-30             HOUSING FEMALE ASS'Y     CCN000001440000001440FN00000000020220501000001440NNM   20220126150311    4NON  0000002400000120890000157391200    YCYC    005500360039
BI00B1200    7360T52201     202203037195-0783-08             TERMINAL                 CCN000030000000030000FN00000000020220401000030000NNM   20220126150438    4P0P  0000300000000050700000080121200    YCYC    006400630015
BI00B1200    7360T52202     202203107195-0783-08             TERMINAL                 CCN000030000000030000FN00000000020220401000030000NNM   20220126150438    4P0P  0000300000000050700000080121200    YCYC    006400630015
BI00B1200    7360T52203     202203177195-0783-08             TERMINAL                 CCN000030000000030000FN00000000020220401000030000NNM   20220126150438    4P0P  0000300000000050700000080121200    YCYC    006400630015
BI00B1200    7360T52201     202203037196-1102-02             TERMINAL                 CCN000022500000022500FN00000000020220401000022500NNM   20220126150438    4P0P  0000225000000040500000069021200    YCYC    006400630015
BI00B1200    7360T52201     202203037196-1103-02             TERMINAL                 CCN000450000000450000FN00000000020220401000450000NNM   20220126150438    4P0P  0000225000000042980000071501200    YCYC    006400630015
BI00B1200    7360T52202     202203107196-1103-02             TERMINAL                 CCN000405000000405000FN00000000020220401000405000NNM   20220126150438    4P0P  0000225000000042980000071501200    YCYC    006400630015
BI00B1200    7360T52203     202203177196-1103-02             TERMINAL                 CCN000405000000405000FN00000000020220401000405000NNM   20220126150438    4P0P  0000225000000042980000071501200    YCYC    006400630015
BI00B1200    7360T52201     202203037196-1104-02             TERMINAL                 CCN000135000000135000FN00000000020220401000135000NNM   20220126150438    4P0P  0000225000000044100000072621200    YCYC    006400630015
BI00B1200    7360T52202     202203107196-1104-02             TERMINAL                 CCN000112500000112500FN00000000020220401000112500NNM   20220126150438    4P0P  0000225000000044100000072621200    YCYC    006400630015
BI00B1200    7360T52203     202203177196-1104-02             TERMINAL                 CCN000112500000112500FN00000000020220401000112500NNM   20220126150438    4P0P  0000225000000044100000072621200    YCYC    006400630015
BI00B1200    7360T52201     202203037288-3334-30             HOUSING MALE             CCN000010500000010500FN00000000020220401000010500NNM   20220126150438    4N0N  0000015000000086700000101201200    YCYC    005400370024
BI00B1200    7360T52202     202203107288-3334-30             HOUSING MALE             CCN000007500000007500FN00000000020220401000007500NNM   20220126150438    4N0N  0000015000000086700000101201200    YCYC    005400370024
BI00B1200    7360T52203     202203177288-3334-30             HOUSING MALE             CCN000007500000007500FN00000000020220401000007500NNM   20220126150438    4N0N  0000015000000086700000101201200    YCYC    005400370024
BI00B1200    7360T52201     202203037288-3338-30             HOUSING MALE             CCN000012000000012000FN00000000020220401000012000NNM   20220126150438    4N0N  0000015000000086610000101201200    YCYC    005400370024
BI00B1200    7360T52202     202203107288-3338-30             HOUSING MALE             CCN000009000000009000FN00000000020220401000009000NNM   20220126150438    4N0N  0000015000000086610000101201200    YCYC    005400370024
BI00B1200    7360T52203     202203177288-3338-30             HOUSING MALE             CCN000009000000009000FN00000000020220401000009000NNM   20220126150438    4N0N  0000015000000086610000101201200    YCYC    005400370024
BI00B1200    7360T52201     202203037288-3340-30             HOUSING MALE             CCN000010500000010500FN00000000020220401000010500NNM   20220126150438    4N0N  0000015000000086150000100641200    YCYC    005400370024
BI00B1200    7360T52202     202203107288-3340-30             HOUSING MALE             CCN000009000000009000FN00000000020220401000009000NNM   20220126150438    4N0N  0000015000000086150000100641200    YCYC    005400370024
BI00B1200    7360T52203     202203177288-3340-30             HOUSING MALE             CCN000009000000009000FN00000000020220401000009000NNM   20220126150438    4N0N  0000015000000086150000100641200    YCYC    005400370024
BI00B1200    7360T52201     202203037288-6598-70             HOUSING MALE ASS'Y       CCN000007200000007200FN00000000020220401000007200NNM   20220126150438    4N0N  0000014400000107420000142921200    YCYC    005500360039
BI00B1200    7360T52202     202203107288-6598-70             HOUSING MALE ASS'Y       CCN000007200000007200FN00000000020220401000007200NNM   20220126150438    4N0N  0000014400000107420000142921200    YCYC    005500360039
BI00B1200    7360T52203     202203177288-6598-70             HOUSING MALE ASS'Y       CCN000007200000007200FN00000000020220401000007200NNM   20220126150438    4N0N  0000014400000107420000142921200    YCYC    005500360039
BI00B1200    7360T52201     202203037289-3342-30             HOUSING FEMALE ASS'Y     CCN000043200000043200FN00000000020220401000043200NNM   20220126150438    1N0N  0000024000000068640000090141200    YCYC    005500360039
BI00B1200    7360T52202     202203107289-3342-30             HOUSING FEMALE ASS'Y     CCN000040800000040800FN00000000020220401000040800NNM   20220126150438    1N0N  0000024000000068640000090141200    YCYC    005500360039
BI00B1200    7360T52203     202203177289-3342-30             HOUSING FEMALE ASS'Y     CCN000040800000040800FN00000000020220401000040800NNM   20220126150438    1N0N  0000024000000068640000090141200    YCYC    005500360039
BI00B1200    7360T52201     202203037388-2978-30             HOUSING MALE ASS'Y       CCN000001920000001920FN00000000020220401000001920NNM   20220126150438    1N0N  0000004800000074200000112201200    YCYC    005500360039
BI00B1200    7360T52202     202203107388-2978-30             HOUSING MALE ASS'Y       CCN000001440000001440FN00000000020220401000001440NNM   20220126150438    1N0N  0000004800000074200000112201200    YCYC    005500360039
BI00B1200    7360T52203     202203177388-2978-30             HOUSING MALE ASS'Y       CCN000001440000001440FN00000000020220401000001440NNM   20220126150438    1N0N  0000004800000074200000112201200    YCYC    005500360039
BI00B1200    #7360T52201    202203037158-8627                GROMMET INNER            CCN000002000000002000FN00000000020220401000002000NNM   20220126150435    2F0F  0000020000000065620000084001200    YCYC    005600390040
BI00B1200    #7360T52201    202203037172-5625-90             RUBBER STOPPER           CCN000020000000020000FN00000000020220401000020000NNM   20220126150435    2H0H  0000200000000008240000013381200    YCYC    004300270014
BI00B1200    #7360T52201    202203037172-5626-90             RUBBER STOPPER           CCN000020000000020000FN00000000020220401000020000NNM   20220126150435    2H0H  0000200000000007640000012781200    YCYC    004300270014
BI00B1200    #7360T52202    202203107172-5626-90             RUBBER STOPPER           CCN000020000000020000FN00000000020220401000020000NNM   20220126150435    2H0H  0000200000000007640000012781200    YCYC    004300270014
BI00B1200    #7360T52201    202203037172-5627-60             RUBBER STOPPER           CCN000040000000040000FN00000000020220401000040000NNM   20220126150435    2H0H  0000200000000007040000012181200    YCYC    004300270014
BI00B1200    #7360T52202    202203107172-5627-60             RUBBER STOPPER           CCN000020000000020000FN00000000020220401000020000NNM   20220126150435    2H0H  0000200000000007040000012181200    YCYC    004300270014
BI00B1200    #7360T52201    202203037172-5629-80             RUBBER STOPPER           CCN000460000000460000FN00000000020220401000460000NNM   20220126150435    2H0H  0000200000000006000000011111200    YCYC    004300270014
BI00B1200    #7360T52202    202203107172-5629-80             RUBBER STOPPER           CCN000460000000460000FN00000000020220401000460000NNM   20220126150435    2H0H  0000200000000006000000011111200    YCYC    004300270014
BI00B1200    #7360T52203    202203177172-5629-80             RUBBER STOPPER           CCN000460000000460000FN00000000020220401000460000NNM   20220126150435    2H0H  0000200000000006000000011111200    YCYC    004300270014
BI00B1200    #7360T52201    202203037172-5630-40             RUBBER STOPPER           CCN000140000000140000FN00000000020220401000140000NNM   20220126150435    2H0H  0000200000000004400000009511200    YCYC    004300270014
BI00B1200    #7360T52202    202203107172-5630-40             RUBBER STOPPER           CCN000120000000120000FN00000000020220401000120000NNM   20220126150435    2H0H  0000200000000004400000009511200    YCYC    004300270014
BI00B1200    #7360T52203    202203177172-5630-40             RUBBER STOPPER           CCN000120000000120000FN00000000020220401000120000NNM   20220126150435    2H0H  0000200000000004400000009511200    YCYC    004300270014
BI00B1200    #7360T52201    202203037172-5631-60             RUBBER STOPPER           CCN000100000000100000FN00000000020220401000100000NNM   20220126150435    2H0H  0000200000000004200000009311200    YCYC    004300270014
BI00B1200    #7360T52202    202203107172-5631-60             RUBBER STOPPER           CCN000080000000080000FN00000000020220401000080000NNM   20220126150435    2H0H  0000200000000004200000009311200    YCYC    004300270014
BI00B1200    #7360T52203    202203177172-5631-60             RUBBER STOPPER           CCN000080000000080000FN00000000020220401000080000NNM   20220126150435    2H0H  0000200000000004200000009311200    YCYC    004300270014
BI00B1200    #7360T52201    202203037172-5632-10             DUMMY PLUG               CCN000300000000300000FN00000000020220401000300000NNM   20220126150435    2H0H  0000200000000008040000013181200    YCYC    004300270014
BI00B1200    #7360T52202    202203107172-5632-10             DUMMY PLUG               CCN000300000000300000FN00000000020220401000300000NNM   20220126150435    2H0H  0000200000000008040000013181200    YCYC    004300270014
BI00B1200    #7360T52203    202203177172-5632-10             DUMMY PLUG               CCN000300000000300000FN00000000020220401000300000NNM   20220126150435    2H0H  0000200000000008040000013181200    YCYC    004300270014
BI00B1200    #7360T52201    202203037189-2978-30             HOUSING FEMALE           CCN000003000000003000FN00000000020220401000003000NNM   20220126150435    2F0F  0000015000000096690000109691200    YCYC    005400370024
BI00B1200    #7360T52202    202203107189-2978-30             HOUSING FEMALE           CCN000003000000003000FN00000000020220401000003000NNM   20220126150435    2F0F  0000015000000096690000109691200    YCYC    005400370024
BI00B1200    #7360T52203    202203177189-2978-30             HOUSING FEMALE           CCN000003000000003000FN00000000020220401000003000NNM   20220126150435    2F0F  0000015000000096690000109691200    YCYC    005400370024
BI00B1200    #7360T52201    202203037289-2913-30             HOUSING FEMALE ASS'Y     CCN000001500000001500FN00000000020220401000001500NNM   20220126150435    2N0N  0000015000000090750000103451200    YCYC    005400360024
BI00B1200    #7360T52201    202203037289-2914                HOUSING FEMALE ASS'Y     CCN000001500000001500FN00000000020220401000001500NNM   20220126150435    2N0N  0000015000000090600000103301200    YCYC    005400370024
BI00B1200    #7360T52201    202203037289-2914-40             HOUSING FEMALE ASS'Y     CCN000001500000001500FN00000000020220401000001500NNM   20220126150435    2N0N  0000015000000090450000103151200    YCYC    005400370024
BI00B1200    #7360T52202    202203107289-2914-40             HOUSING FEMALE ASS'Y     CCN000001500000001500FN00000000020220401000001500NNM   20220126150435    2N0N  0000015000000090450000103151200    YCYC    005400370024
BI00B1200    #7360T52203    202203177289-2914-40             HOUSING FEMALE ASS'Y     CCN000001500000001500FN00000000020220401000001500NNM   20220126150435    2N0N  0000015000000090450000103151200    YCYC    005400370024
BI00B1200    #7360T52201    202203037289-2915-30             HOUSING FEMALE ASS'Y     CCN000001500000001500FN00000000020220401000001500NNM   20220126150435    2N0N  0000015000000096450000109151200    YCYC    005400360024
BI00B1200    #7360T52202    202203107289-2915-30             HOUSING FEMALE ASS'Y     CCN000001500000001500FN00000000020220401000001500NNM   20220126150435    2N0N  0000015000000096450000109151200    YCYC    005400360024
BI00B1200    #7360T52203    202203177289-2915-30             HOUSING FEMALE ASS'Y     CCN000001500000001500FN00000000020220401000001500NNM   20220126150435    2N0N  0000015000000096450000109151200    YCYC    005400360024
BI00B1200    #7360T52201    202203037289-2916-30             HOUSING FEMALE ASS'Y     CCN000001000000001000FN00000000020220401000001000NNM   20220126150435    2N0N  0000010000000085700000108401200    YCYC    005400360024
BI00B1200    #7360T52201    202203037289-2917-30             HOUSING FEMALE ASS'Y     CCN000001000000001000FN00000000020220401000001000NNM   20220126150435    2N0N  0000010000000096400000109101200    YCYC    005400370024
BI00B1200    #7360T52201    202203037289-2918-30             HOUSING FEMALE ASS'Y     CCN000002000000002000FN00000000020220401000002000NNM   20220126150435    2N0N  0000010000000101800000114501200    YCYC    005400360024
BI00B1200    #7360T52202    202203107289-2918-30             HOUSING FEMALE ASS'Y     CCN000001000000001000FN00000000020220401000001000NNM   20220126150435    2N0N  0000010000000101800000114501200    YCYC    005400360024
BI00B1200    #7360T52203    202203177289-2918-30             HOUSING FEMALE ASS'Y     CCN000001000000001000FN00000000020220401000001000NNM   20220126150435    2N0N  0000010000000101800000114501200    YCYC    005400360024
BI00B1200    #7360T52201    202203037289-2919-30             HOUSING FEMALE ASS'Y     CCN000001500000001500FN00000000020220401000001500NNM   20220126150435    2N0N  0000015000000090750000103451200    YCYC    005400360024
BI00B1200    #7360T52201    202203037289-3622-30             HOUSING FEMALE ASS'Y     CCN000001728000001728FN00000000020220401000001728NNM   20220126150435    2N0N  0000004320000083940000103841200    YCYC    005400370024
BI00B1200    #7360T52202    202203107289-3622-30             HOUSING FEMALE ASS'Y     CCN000001296000001296FN00000000020220401000001296NNM   20220126150435    2N0N  0000004320000083940000103841200    YCYC    005400370024
BI00B1200    #7360T52203    202203177289-3622-30             HOUSING FEMALE ASS'Y     CCN000001296000001296FN00000000020220401000001296NNM   20220126150435    2N0N  0000004320000083940000103841200    YCYC    005400370024
BI00B1200    7360T52205     202202107196-1104-02             TERMINAL                 CCN000022500000022500FN00000000020220301000022500NNE   20220126150648    4P0P  0000225000000044100000072621200    YCYC    006400630015
BI00B1200    7360T52205     202202107288-3334-30             HOUSING MALE             CCN000012000000012000FN00000000020220301000012000NNE   20220126150648    4N0N  0000015000000086700000101201200    YCYC    005400370024
BI00B1200    7360T52205     202202107289-5979-30             HOUSING FEMALE ASS'Y     CCN000000252000000252FN00000000020220301000000252NNE   20220126150648    1N0N  0000002520000085470000106471200    YCYC    005400370024
BI00B1200    #7360T52205    202202107172-5626-90             RUBBER STOPPER           CCN000040000000040000FN00000000020220301000040000NNE   20220126150645    2H0H  0000200000000007640000012781200    YCYC    004300270014
BI00B1200    #7360T52205    202202107172-5630-40             RUBBER STOPPER           CCN000140000000140000FN00000000020220301000140000NNE   20220126150645    2H0H  0000200000000004400000009511200    YCYC    004300270014
BI00B1200    #7360T52205    202202107172-5632-10             DUMMY PLUG               CCN000120000000120000FN00000000020220301000120000NNE   20220126150645    2H0H  0000200000000008040000013181200    YCYC    004300270014
BI00B1200    #7360T52205    202202107173-3225-10             LIF LEVER                CCN000000800000000800FN00000000020220301000000800NNE   20220126150645    2F0F  0000008000000059200000071201200    YCYC    005500360039
BI00B1200    #7360T52205    202202107289-2919-30             HOUSING FEMALE ASS'Y     CCN000001500000001500FN00000000020220301000001500NNE   20220126150645    2N0N  0000015000000090750000103451200    YCYC    005400360024
BI00B1200    7860T52201     202203037158-3022-80             RUBBER STOPPER           CCN000015000000015000FN00000000020220401000015000NNM   20220126151223    1C0C  0000050000000046750000052401200    YCYC    002700430014
BI00B1200    7860T52202     202203107158-3022-80             RUBBER STOPPER           CCN000010000000010000FN00000000020220401000010000NNM   20220126151223    1C0C  0000050000000046750000052401200    YCYC    002700430014
BI00B1200    7860T52201     202203037288-3332-30             HOUSING MALE             CCN000001500000001500FN00000000020220401000001500NNM   20220126151223    4N0N  0000015000000086070000100571200    YCYC    005400370024
BI00B1200    7860T52205     202203317289-3342-30             HOUSING FEMALE ASS'Y     CCN000002400000002400FN00000000020220401000002400NNM   20220126151223    1N0N  0000024000000068640000090141200    YCYC    005500360039
BI00B1200    #7860T52201    202203037172-5632-10             DUMMY PLUG               CCN000060000000060000FN00000000020220401000060000NNM   20220126151212    2H0H  0000200000000008040000013181200    YCYC    004300270014
BI00B1200    #7860T52202    202203107172-5632-10             DUMMY PLUG               CCN000040000000040000FN00000000020220401000040000NNM   20220126151212    2H0H  0000200000000008040000013181200    YCYC    004300270014
BI00B1200    #7860T52204    202203247172-5632-10             DUMMY PLUG               CCN000040000000040000FN00000000020220401000040000NNM   20220126151212    2H0H  0000200000000008040000013181200    YCYC    004300270014
BI00B1200    #7860T52205    202203317172-5632-10             DUMMY PLUG               CCN000040000000040000FN00000000020220401000040000NNM   20220126151212    2H0H  0000200000000008040000013181200    YCYC    004300270014
BI00B1200    #7860T52201    202203037189-3031                HOUSING FEMALE           CCN000004800000004800FN00000000020220401000004800NNM   20220126151212    2F0F  0000024000000092880000136581200    YCYC    005500360039
BI00B1200    #7860T52202    202203107189-3031                HOUSING FEMALE           CCN000004800000004800FN00000000020220401000004800NNM   20220126151212    2F0F  0000024000000092880000136581200    YCYC    005500360039
BI00B1200    #7860T52203    202203177189-3031                HOUSING FEMALE           CCN000004800000004800FN00000000020220401000004800NNM   20220126151212    2F0F  0000024000000092880000136581200    YCYC    005500360039
BI00B1200    #7860T52204    202203247189-3031                HOUSING FEMALE           CCN000004800000004800FN00000000020220401000004800NNM   20220126151212    2F0F  0000024000000092880000136581200    YCYC    005500360039
BI00B1200    #7860T52205    202203317189-3031                HOUSING FEMALE           CCN000004800000004800FN00000000020220401000004800NNM   20220126151212    2F0F  0000024000000092880000136581200    YCYC    005500360039
BI00B1200    8100T52202     202203107137-3047-30             UNIT PACKING             CCN000001000000001000FN00000000020220401000001000NNM   20220126151413    1C0C  0000010000000017050000021891200    YCYC    002700430014
BI00B1200    #8100T52201    202203037154-5597-30             CASSETTE R/B             CCN000001600000001600FN00000000020220401000001600NNM   20220126151356    2F0F  0000008000000073600000095201200    YCYC    005500360039
BI00B1200    #8100T52202    202203107154-5597-30             CASSETTE R/B             CCN000001600000001600FN00000000020220401000001600NNM   20220126151356    2F0F  0000008000000073600000095201200    YCYC    005500360039
BI00B1200    #8100T52203    202203177154-5597-30             CASSETTE R/B             CCN000001600000001600FN00000000020220401000001600NNM   20220126151356    2F0F  0000008000000073600000095201200    YCYC    005500360039
BI00B1200    8100T52204     202203107289-9553-30             SEALED ASSY FEMALE       CCN000002940000002940FN00000000020220401000002940NNM   20220126151507    4N0N  0000029400000110900000152151200    YCYC    005500360039
BI00B1200    8100T52204     202203107289-9553-50             SEALED ASSY FEMALE       CCN000002940000002940FN00000000020220401000002940NNM   20220126151507    4N0N  0000029400000110810000152061200    YCYC    005500360039
BI00B1200    8100T52205     202203247289-9553-30             SEALED ASSY FEMALE       CCN000002940000002940FN00000000020220401000002940NNM   20220126151715    4N0N  0000029400000110900000152151200    YCYC    005500360039
BI00B1200    8100T52205     202203247289-9553-50             SEALED ASSY FEMALE       CCN000002940000002940FN00000000020220401000002940NNM   20220126151715    4N0N  0000029400000110810000152061200    YCYC    005500360039
BI00B1200    #8100T52206    202203037174-1760-50             CAP                      CCN000003000000003000FN00000000020220401000003000NNM   20220126151818    2F0F  0000030000000081360000092261200    YCYC    005400370024
BI00B1200    #8100T52207    202203107174-1760-50             CAP                      CCN000003000000003000FN00000000020220401000003000NNM   20220126151914    2F0F  0000030000000081360000092261200    YCYC    005400370024
BI00B1200    #8100T52208    202203177174-1760-50             CAP                      CCN000003000000003000FN00000000020220401000003000NNM   20220126152012    2F0F  0000030000000081360000092261200    YCYC    005400370024
BI00B1200    #8100T52209    202203247174-1760-50             CAP                      CCN000003000000003000FN00000000020220401000003000NNM   20220126153221    2F0F  0000030000000081360000092261200    YCYC    005400370024
BI00B1200    8750T52201     202202247288-3340-30             HOUSING MALE             CCN000007500000007500FN00000000020220301000007500NNM   20220126153211    4N0N  0000015000000086150000100641200    YCYC    005400370024
BI00B1200    8750T52201     202202247289-3342                HOUSING FEMALE ASS'Y     CCN000007200000007200FN00000000020220301000007200NNM   20220126153211    1N0N  0000024000000068640000090141200    YCYC    005500360039
BI00B1200    #8750T52201    202202247189-3031-30             HOUSING FEMALE           CCN000004800000004800FN00000000020220301000004800NNM   20220126153144    2F0F  0000024000000092880000136581200    YCYC    005500360039
BI00B1200    H322E50002     202203317116-4111-02             TERMINAL                 CCN000015000000015000FN00000000020220501000015000NNE   20220126153224    4P0P  0000075000000052950000081771200    YCYC    006400630015
BI00B1200    #H322E50003    202203317147-8717-30             CLIP                     CCN000030000000030000FN00000000020220501000030000NNE   20220126153249    2F0F  0000050000000066000000087501200    YCYC    005600390040
BI00B32A7    ZZ22033BMW     202202157172-5402-30             SEAL RUBBER              CCN000048000000048000FN00000000020220301000048000NNMD0320220126143855    1C0C  00000800000000457600000506032A7    ZZZZY   004300270014
BI00B32A7    ZZ22033LMW     202202157172-5402-30             SEAL RUBBER              CCN000008000000008000FN00000000020220301000008000NNMD0320220126143920    1C0C  00000800000000457600000506032A7    ZZZZY   004300270014
BI00B32CC    CTA32034       202202037283-4855                CONNECTOR HOUSING        CCN000021600000009600FN00000000020220301000009600NNE00020220126162643    4N0N  00000240000001188400001400032CC    BIYABCBU005500360039
BI00B32CC    CTA32041       202202037283-4855                CONNECTOR HOUSING        CCN000006600000007200FN00000000020220401000007200NNE00020220126162621    4N0N  00000240000001188400001400032CC    BIYABCBU005500360039
BI00B32CH    SJ22023HMW     202203177327-6868-30             MULTI FUSE               CCN000000288000000288FN00000000020220201000000288NNMD0420220126131653    4N0N  00000028800001013500001179432CH    SJSAMIJF005400370024
BI00B32CH    SJ22024HMW     202203177327-6868-30             MULTI FUSE               CCN000000288000000288FN00000000020220201000000288NNMD0420220126131700    4N0N  00000028800001013500001179432CH    SJSAMIJF005400370024
BI00B32CH    SJ22024HMW     202203107327-6870-30             MULTI FUSE               CCN000009216000009216FN00000000020220201000009216NNMD0420220126132104    4N0N  00000028800001015200001181132CH    SJSAMIJF005400370024
BI00B32CH    SJ22023HMW     202204077327-6874-30             MULTI FUSE               CCN000014688000014688FN00000000020220201000014688NNMD0420220126132409    4N0N  00000028800000991400001157332CH    SJSAMIJF005400370024
BI00B32CH    SJ22024HMW     202203107327-6874-30             MULTI FUSE               CCN000008640000008640FN00000000020220201000008640NNMD0420220126132357    4N0N  00000028800000991400001157332CH    SJSAMIJF005400370024
BI00B32CH    SJ22024HMW     202203107327-6880-30             MULTI FUSE               CCN000008928000008928FN00000000020220201000008928NNMD0420220126132534    4N0N  00000028800001012600001178532CH    SJSAMIJF005400370024
BI00B32CH    SJ22024HMW     202203107327-6884-30             MULTI FUSE               CCN000009792000009792FN00000000020220201000009792NNMD0420220126132644    4N0N  00000028800000988900001154832CH    SJSAMIJF005400370024
BI00B32CH    SJ2202AHMW     202204077327-6870-30             MULTI FUSE               CCN000000576000000576FN00000000020220201000000576NNED0420220126132124    4N0N  00000028800001015200001181132CH    SJSAMIJF005400370024
BI00B32CH    SJ2202AHMW     202203177327-6872-30             MULTI FUSE               CCN000000864000000864FN00000000020220201000000864NNED0420220126132312    4N0N  00000028800000984500001150432CH    SJSAMIJF005400370024
BI00B32CH    SJ22033HMW     202203037327-6868-30             MULTI FUSE               CCN000001440000001440FN00000000020220301000001440NNMD0020220126131615    4N0N  00000028800001013500001179432CH    SJSAMIJF005400370024
BI00B32CH    SJ22035HMW     202203107327-6868-30             MULTI FUSE               CCN000000288000000288FN00000000020220301000000288NNMD0020220126131636    4N0N  00000028800001013500001179432CH    SJSAMIJF005400370024
BI00B32CH    SJ22035HMW     202203037327-6870-30             MULTI FUSE               CCN000016992000016992FN00000000020220301000016992NNMD0020220126132043    4N0N  00000028800001015200001181132CH    SJSAMIJF005400370024
BI00B32CH    SJ22032HMW     202202107327-6872-30             MULTI FUSE               CCN000006048000006048FN00000000020220301000006048NNMD0020220126132225    4N0N  00000028800000984500001150432CH    SJSAMIJF005400370024
BI00B32CH    SJ22033HMW     202203037327-6872-30             MULTI FUSE               CCN000008064000008064FN00000000020220301000008064NNMD0020220126132237    4N0N  00000028800000984500001150432CH    SJSAMIJF005400370024
BI00B32CH    SJ22034HMW     202203107327-6872-30             MULTI FUSE               CCN000004608000004608FN00000000020220301000004608NNMD0020220126132252    4N0N  00000028800000984500001150432CH    SJSAMIJF005400370024
BI00B32CH    SJ22032HMW     202203037327-6874-30             MULTI FUSE               CCN000005760000005760FN00000000020220301000005760NNMD0020220126132331    4N0N  00000028800000991400001157332CH    SJSAMIJF005400370024
BI00B32CH    SJ22033HMW     202203037327-6876-30             MULTI FUSE               CCN000006624000006624FN00000000020220301000006624NNMD0020220126132426    4N0N  00000028800001016400001182332CH    SJSAMIJF005400370024
BI00B32CH    SJ22034HMW     202203247327-6876-30             MULTI FUSE               CCN000004032000004032FN00000000020220301000004032NNMD0020220126132441    4N0N  00000028800001016400001182332CH    SJSAMIJF005400370024
BI00B32CH    SJ22033HMW     202203037327-6878-30             MULTI FUSE               CCN000008352000008352FN00000000020220301000008352NNMD0020220126132455    4N0N  00000028800000989700001155632CH    SJSAMIJF005400370024
BI00B32CH    SJ22032HMW     202203037327-6880-30             MULTI FUSE               CCN000014112000014112FN00000000020220301000014112NNMD0020220126132522    4N0N  00000028800001012600001178532CH    SJSAMIJF005400370024
BI00B32CH    SJ22032HMW     202203037327-6882-30             MULTI FUSE               CCN000006048000006048FN00000000020220301000006048NNMD0020220126132601    4N0N  00000028800001015900001181832CH    SJSAMIJF005400370024
BI00B32CH    SJ22035HMW     202203107327-6882-30             MULTI FUSE               CCN000002304000002304FN00000000020220301000002304NNMD0020220126132621    4N0N  00000028800001015900001181832CH    SJSAMIJF005400370024
BI00B32CH    SJ22032HMW     202203037327-6884-30             MULTI FUSE               CCN000017856000017856FN00000000020220301000017856NNMD0020220126132634    4N0N  00000028800000988900001154832CH    SJSAMIJF005400370024
BI00A32D1    DFTC2206       202201277289-3342-30             HOUSING FEMALE ASS'Y     PCN000081600000081600FN00000000020220201000081600NNM00020220126170021    1N0N  00000240000000686400000901432D1    TOYOT-K 005500360039
BI00A32D1    DFTC2210       202201277288-6547                CONNECTOR MALE ASS'Y     PCN000011250000011250FN00000000020220301000011250NNM00020220126170225    4N0N  00000075000001205300001340332D1    TOYOT-K 005400370024
BI00A32D2    #DGTC2152      202201287172-5630-40             RUBBER STOPPER           CCN000300000000300000FN00000000020211201000300000NNMM0020220126133227    2H0H  00002000000000044000000095132D2    TGYOT-G 004300270014
BI00A32D2    #DGTC2206      202201287172-5629-80             RUBBER STOPPER           CCN000080000000080000FN00000000020220201000080000NNMM0020220126133237    2H0H  00002000000000060000000111132D2    TGYOT-G 004300270014
BI00B32D2    DGTC2207       202201257289-3342-40             HOUSING FEMALE ASS'Y     CCN000048000000014400FY00001440020220201000000000NNM00020220126092513    1N0N  00000240000000686400000901432D2    TGYOT-G 005500360039
BI00A32D2    DGTC2207       202201287289-3342-40             HOUSING FEMALE ASS'Y     CCN000016800000016800FN00000000020220201000016800NNMM0020220126141402    1N0N  00000240000000686400000901432D2    TGYOT-G 005500360039
BI00B32D2    DGTC2211       202201277288-6547                CONNECTOR MALE ASS'Y     CCN000011250000011250FN00000000020220301000011250NNM00020220126162048    4N0N  00000075000001205300001340332D2    TGYOT-G 005400370024
BI00B32D2    DGTC2211       202201277289-3342-30             HOUSING FEMALE ASS'Y     CCN000004800000004800FN00000000020220301000004800NNM00020220126162109    1N0N  00000240000000686400000901432D2    TGYOT-G 005500360039
BI00B32D2    #DGTC2212      202201257172-5625-90             RUBBER STOPPER           CCN000020000000020000FY00002000020220301000000000NNM00020220126104923    2H0H  00002000000000082400000133832D2    TGYOT-G 004300270014
BI00A32D2    #DGTC2212      202201287172-5630-40             RUBBER STOPPER           CCN000600000000600000FN00000000020220301000600000NNMM0020220126143035    2H0H  00002000000000044000000095132D2    TGYOT-G 004300270014
BI00A32D2    DGTC2213       202201287158-3166-60             WIRE SEAL                CCN000040000000040000FN00000000020220401000040000NNMM0020220126141226    1C0C  00004000000000104000000152432D2    TGYOT-G 002700430014
BI00A32D2    DGTC2213       202202037288-6547                CONNECTOR MALE ASS'Y     CCN000010500000010500FN00000000020220401000010500NNMM0020220126122840    4N0N  00000075000001205300001340332D2    TGYOT-G 005400370024
BI00A32D2    DGTC2213       202201287289-3342-30             HOUSING FEMALE ASS'Y     CCN000019200000019200FN00000000020220401000019200NNMM0020220126141248    1N0N  00000240000000686400000901432D2    TGYOT-G 005500360039
BI00A32G2    SA22011 MW     202201317287-1917                CONNECTOR FEMALE         CCN000012000000012000FN00000000020220101000012000NNMM0020220126122840    4N0N  00000240000001060800001312532G2    AISUAI  005500360039
BI00A32G2    SA22013 MW     202201317287-1917                CONNECTOR FEMALE         CCN000004800000004800FN00000000020220101000004800NNMM0020220126122840    4N0N  00000240000001060800001312532G2    AISUAI  005500360039
BI00A32G2    SA22014 MW     202201317287-1917                CONNECTOR FEMALE         CCN000004800000004800FN00000000020220101000004800NNMM0020220126122840    4N0N  00000240000001060800001312532G2    AISUAI  005500360039
BI00A32G7    #JJ22022MMW    202202077172-5629-80             RUBBER STOPPER           CCN000260000000260000FN00000000020220201000260000NNMM0020220126142340    2H0H  00002000000000060000000111132G7    JIJAI   004300270014
BI00B32G7    JJ2202C MW     202201207289-3342-30             HOUSING FEMALE ASS'Y     CCN000004800000002400FY00000240020220201000000000NNE00020220126135550    1N0N  00000240000000686400000901432G7    JIJAI   005500360039
BI00A32G7    #JJ2202DMMW    202202077172-5630-40             RUBBER STOPPER           PCN000020000000020000FN00000000020220201000020000NNEM0020220126142416    2H0H  00002000000000044000000095132G7    JIJAI   004300270014
BI00A32G7    JJ2202FMMW     202202107126-8889-02             FUSE TERMINAL            CCN000006000000006000FN00000000020220201000006000NNEM0020220126153724    4P0P  00000600000000448200000733432G7    JIJAI   006400630015
BI00A32G7    JJ2202FMMW     202202107126-8890-02             FUSE TERMINAL            CCN000006000000006000FN00000000020220201000006000NNEM0020220126153808    4P0P  00000600000000465000000750232G7    JIJAI   006400630015
BI00A32G7    JJ2202FMMW     202202107126-8891-02             FUSE TERMINAL            CCN000006000000006000FN00000000020220201000006000NNEM0020220126153824    4P0P  00000600000000481800000767032G7    JIJAI   006400630015
BI00A32G7    JJ2202FMMW     202202107126-8892-02             FUSE TERMINAL            CCN000006000000006000FN00000000020220201000006000NNEM0020220126153904    4P0P  00000600000000495000000780232G7    JIJAI   006400630015
BI00A32G7    JJ2202FMMW     202202107195-2046-02             TERMINAL MALE            CCN000008400000008400FN00000000020220201000008400NNEM0020220126153904    4P0P  00000840000000818200001111832G7    JIJAI   006400630015
BI00A32G7    JJ2202C MW     202202077289-3342-30             HOUSING FEMALE ASS'Y     PCN000002400000002400FN00000000020220201000002400NNE00020220126135550    1N0N  00000240000000686400000901432G7    JIJAI   005500360039
BI00B32H0    TT22051VMW     202203227114-5096-08             TERMINAL                 CCN000030000000030000FN00000000020220501000030000NNM   20220126135224    4P0P  00003000000000498000000792232H0    TTTJY   006400630015
BI00B32H0    TT22051VMW     202203227114-5748-02             TERMINAL                 CCN000036000000036000FN00000000020220501000036000NNM   20220126135224    4P0P  00001200000000444000000737632H0    TTTJY   006400630015
BI00B32H0    TT22051VMW     202203227116-3153-08             TERMINAL                 CCN000081000000081000FN00000000020220501000081000NNM   20220126135224    4P0P  00002700000000461700000746932H0    TTTJY   006400630015
BI00B32H0    TT22051VMW     202203227116-5045-02             TERMINAL                 CCN000096000000096000FN00000000020220501000096000NNM   20220126135224    4P0P  00001600000000678400001007132H0    TTTJY   006400630017
BI00B32H0    TT22051VMW     202203227116-5046-02             TERMINAL                 CCN000096000000096000FN00000000020220501000096000NNM   20220126135224    4P0P  00001200000000544800000873532H0    TTTJY   006400630017
BI00B32H0    TT22051VMW     202203227116-6041                TERMINAL                 CCN000063000000063000FN00000000020220501000063000NNM   20220126135224    4P0P  00000450000000716000001009632H0    TTTJY   006400630015
BI00B32H0    TT22051VMW     202203227116-6042                TERMINAL                 CCN000027000000027000FN00000000020220501000027000NNM   20220126135224    4P0P  00000300000000523800000856132H0    TTTJY   006400630015
BI00B32H0    TT22051VMW     202203227126-8853-02             TERMINAL                 CCN000150000000150000FN00000000020220501000150000NNM   20220126135224    4P0P  00000750000000562500000847732H0    TTTJY   006400630015
BI00B32H0    TT22051VMW     202203227158-3006-90             RUBBER STOPPER           CCN000100000000100000FN00000000020220501000100000NNM   20220126135224    1C0C  00002000000000330600000386032H0    TTTJY   002700430014
BI00B32H0    TT22051VMW     202203227158-3070-80             RUBBER STOPPER           CCN000040000000040000FN00000000020220501000040000NNM   20220126135224    1C0C  00004000000000276000000333332H0    TTTJY   002700430014
BI00B32H0    TT22051VMW     202203227196-0396-02             TERMINAL                 CCN000045000000045000FN00000000020220501000045000NNM   20220126135224    4P0P  00001500000000949500001112932H0    TTTJY   002800510028
BI00B32H0    TT22051VMW     202203227196-1326-02             TERMINAL FEMALE          CCN000060000000060000FN00000000020220501000060000NNM   20220126135224    4P0P  00006000000000456000000784732H0    TTTJY   006400630017
BI00B32H0    TT22051VMW     202203227270-8994                6P MODULE ASSEMBLY       CCN000010900000010900FN00000000020220501000010900NNM   20220126135224    4J0J  00000010000001098600001298632H0    TTTJY   005400370024
BI00B32H0    TT22051VMW     202203227283-1289-40             CONNECTOR HOUSING        CCN000004800000004800FN00000000020220501000004800NNM   20220126135224    1N0N  00000060000000679800000824832H0    TTTJY   005400370024
BI00B32H0    TT22052VMW     202203297283-1289-40             CONNECTOR HOUSING        CCN000001800000001800FN00000000020220501000001800NNM   20220126135224    1N0N  00000060000000679800000824832H0    TTTJY   005400370024
BI00B32H0    TT22051VMW     202203227283-1928-80             CONNECTOR                CCN000016000000016000FN00000000020220501000016000NNM   20220126135224    4N0N  00000200000001180000001358332H0    TTTJY   005500360039
BI00B32H0    TT22051VMW     202203227288-6547                CONNECTOR MALE ASS'Y     CCN000002250000002250FN00000000020220501000002250NNM   20220126135224    4N0N  00000075000001205300001340332H0    TTTJY   005400370024
BI00B32H0    TT22051VMW     202203227289-6518-30             HOUSING FEMALE ASS'Y     CCN000001200000001200FN00000000020220501000001200NNM   20220126135224    1N0N  00000120000000829200001049232H0    TTTJY   005500360039
BI00B32H0    TT22051VMW     202203227289-6597-70             HOUSING FEMALE ASS'Y     CCN000002160000002160FN00000000020220501000002160NNM   20220126135224    4N0N  00000216000001289500001539532H0    TTTJY   005500360039
BI00B32H0    TT22051VMW     202203227327-6731-3W             BATTERY FUSE             CCN000011008000011008FN00000000020220501000011008NNM   20220126135224    4N0N  00000006400000697600000843032H0    TTTJY   005400370024
BI00B32H0    TT22051VMW     202203227327-6949-30             MULTI FUSE               CCN000000288000000288FN00000000020220501000000288NNM   20220126135224    4N00  00000028800000886700001052632H0    TTTJY   005400370024
BI00B32H0    TT22051VMW     202203227327-6950-30             MULTI FUSE               CCN000000288000000288FN00000000020220501000000288NNM   20220126135224    4N00  00000028800000888700001054632H0    TTTJY   005400370024
BI00B32H0    TT22051VMW     202203227327-6952-30             MULTI FUSE               CCN000000560000000560FN00000000020220501000000560NNM   20220126135224    4N0N  00000056000000848500001031532H0    TTTJY   005400370024
BI00B32H0    TT22051VMW     202203227386-9155                CONNECTOR MALE ASS'Y     CCN000001800000001800FN00000000020220501000001800NNM   20220126135224    4N0N  00000060000001244400001369932H0    TTTJY   005400370024
BI00B32H0    TT22051VMW     202203227388-2978-30             HOUSING MALE ASS'Y       CCN000025920000025920FN00000000020220501000025920NNM   20220126135224    1N0N  00000048000000742000001122032H0    TTTJY   005500360039
BI00B32H0    #TT22051VMW    202203227157-6826-80             REAR HOLDER              CCN000015000000015000FN00000000020220501000015000NNM   20220126135220    2F0F  00001500000001234500001394132H0    TTTJY   005600390040
BI00B32H0    #TT22051VMW    202203227158-3003-90             RUBBER STOPPER           CCN000140000000140000FN00000000020220501000140000NNM   20220126135220    2C0C  00002000000000250000000306032H0    TTTJY   002700430014
BI00B32H0    #TT22051VMW    202203227158-3005-80             RUBBER STOPPER           CCN000060000000060000FN00000000020220501000060000NNM   20220126135220    2H0H  00002000000000210000000268732H0    TTTJY   002700430014
BI00B32H0    #TT22051VMW    202203227158-3008-80             RUBBER STOPPER           CCN000040000000040000FN00000000020220501000040000NNM   20220126135220    2C0C  00002000000000288000000343032H0    TTTJY   004300270014
BI00B32H0    #TT22051VMW    202203227158-3015-10             RUBBER STOPPER           CCN000050000000050000FN00000000020220501000050000NNM   20220126135220    2C0C  00001000000000419500000474032H0    TTTJY   002700430014
BI00B32H0    #TT22051VMW    202203227158-3017                RUBBER STOPPER           CCN000020000000020000FN00000000020220501000020000NNM   20220126135220    2C0C  00001000000000375500000435032H0    TTTJY   002700430014
BI00B32H0    #TT22051VMW    202203227172-5625-90             RUBBER STOPPER           CCN000080000000080000FN00000000020220501000080000NNM   20220126135220    2H0H  00002000000000082400000133832H0    TTTJY   004300270014
BI00B32H0    #TT22051VMW    202203227172-5626-90             RUBBER STOPPER           CCN000040000000040000FN00000000020220501000040000NNM   20220126135220    2H0H  00002000000000076400000127832H0    TTTJY   004300270014
BI00B32H0    #TT22051VMW    202203227172-5627-60             RUBBER STOPPER           CCN000040000000040000FN00000000020220501000040000NNM   20220126135220    2H0H  00002000000000070400000121832H0    TTTJY   004300270014
BI00B32H0    #TT22051VMW    202203227172-5628-80             DUMMY PLUG               CCN000040000000040000FN00000000020220501000040000NNM   20220126135220    2H0H  00002000000000110600000162032H0    TTTJY   004300270014
BI00B32H0    #TT22051VMW    202203227172-5629-80             RUBBER STOPPER           CCN000320000000320000FN00000000020220501000320000NNM   20220126135220    2H0H  00002000000000060000000111132H0    TTTJY   004300270014
BI00B32H0    #TT22052VMW    202203297172-5629-80             RUBBER STOPPER           CCN000020000000020000FN00000000020220501000020000NNM   20220126135220    2H0H  00002000000000060000000111132H0    TTTJY   004300270014
BI00B32H0    #TT22051VMW    202203227172-5630-40             RUBBER STOPPER           CCN000060000000060000FN00000000020220501000060000NNM   20220126135220    2H0H  00002000000000044000000095132H0    TTTJY   004300270014
BI00B32H0    #TT22052VMW    202203297172-5630-40             RUBBER STOPPER           CCN000020000000020000FN00000000020220501000020000NNM   20220126135220    2H0H  00002000000000044000000095132H0    TTTJY   004300270014
BI00B32H0    #TT22051VMW    202203227172-5631-60             RUBBER STOPPER           CCN000020000000020000FN00000000020220501000020000NNM   20220126135220    2H0H  00002000000000042000000093132H0    TTTJY   004300270014
BI00B32H0    #TT22051VMW    202203227172-5632-10             DUMMY PLUG               CCN000100000000100000FN00000000020220501000100000NNM   20220126135220    2H0H  00002000000000080400000131832H0    TTTJY   004300270014
BI00B32H0    #TT22051VMW    202203227189-2978-30             HOUSING FEMALE           CCN000025500000025500FN00000000020220501000025500NNM   20220126135220    2F0F  00000150000000966900001096932H0    TTTJY   005400370024
BI00B32H0    #TT22051VMW    202203227189-3033                HOUSING FEMALE           CCN000011200000011200FN00000000020220501000011200NNM   20220126135220    2F0F  00000160000001211200001431232H0    TTTJY   005500360039
BI00B32H0    #TT22052VMW    202203297189-3033                HOUSING FEMALE           CCN000003200000003200FN00000000020220501000003200NNM   20220126135220    2F0F  00000160000001211200001431232H0    TTTJY   005500360039
BI00B32H0    #TT22051VMW    202203227287-9155                HOUSING FEMALE ASS'Y     CCN000001920000001920FN00000000020220501000001920NNM   20220126135220    2N0N  00000096000000853700001045232H0    TTTJY   005400370024
BI00B32H0    #TT22051VMW    202203227289-3622-30             HOUSING FEMALE ASS'Y     CCN000001728000001728FN00000000020220501000001728NNM   20220126135220    2N0N  00000043200000839400001038432H0    TTTJY   005400370024
BI00B32H0    #TT22052VMW    202203297289-3622-30             HOUSING FEMALE ASS'Y     CCN000000864000000864FN00000000020220501000000864NNM   20220126135220    2N0N  00000043200000839400001038432H0    TTTJY   005400370024
BI00B32H0    TT2203EVMW     202202157114-5748-02             TERMINAL                 CCN000060000000060000FN00000000020220301000060000NNE   20220126135319    4P0P  00001200000000444000000737632H0    TTTJY   006400630015
BI00B32H0    TT2203EVMW     202202157116-3153-08             TERMINAL                 CCN000081000000081000FN00000000020220301000081000NNE   20220126135319    4P0P  00002700000000461700000746932H0    TTTJY   006400630015
BI00B32H0    TT2203EVMW     202202157116-5045-02             TERMINAL                 CCN000128000000128000FN00000000020220301000128000NNE   20220126135319    4P0P  00001600000000678400001007132H0    TTTJY   006400630017
BI00B32H0    TT2203EVMW     202202157116-5046-02             TERMINAL                 CCN000132000000132000FN00000000020220301000132000NNE   20220126135319    4P0P  00001200000000544800000873532H0    TTTJY   006400630017
BI00B32H0    TT2203EVMW     202202157116-6041                TERMINAL                 CCN000081000000081000FN00000000020220301000081000NNE   20220126135319    4P0P  00000450000000716000001009632H0    TTTJY   006400630015
BI00B32H0    TT2203EVMW     202202157116-6042                TERMINAL                 CCN000036000000036000FN00000000020220301000036000NNE   20220126135319    4P0P  00000300000000523800000856132H0    TTTJY   006400630015
BI00B32H0    TT2203EVMW     202202157126-8853-02             TERMINAL                 CCN000232500000232500FN00000000020220301000232500NNE   20220126135319    4P0P  00000750000000562500000847732H0    TTTJY   006400630015
BI00B32H0    TT2203EVMW     202202157158-3006-90             RUBBER STOPPER           CCN000140000000140000FN00000000020220301000140000NNE   20220126135319    1C0C  00002000000000330600000386032H0    TTTJY   002700430014
BI00B32H0    TT2203EVMW     202202157158-3070-80             RUBBER STOPPER           CCN000080000000080000FN00000000020220301000080000NNE   20220126135319    1C0C  00004000000000276000000333332H0    TTTJY   002700430014
