BI00A1200    2399T51923     202201157289-5979-30             HOUSING FEMALE ASS'Y     PCN000011592000000000FY00000000020211101000000000NNMD0220220115131308    1N0N  0000002520000085470000106471200    YCYC    005400370024
BI00A1200    2399T51A21     202201207289-5979-30             HOUSING FEMALE ASS'Y     PCN000046368000004032FN00000000020211201000004032NNMD0420220115131356    1N0N  0000002520000085470000106471200    YCYC    005400370024
BI00A1200    2399T51A21     202201317289-5979-30             HOUSING FEMALE ASS'Y     PCN000016632000010836FN00000000020211201000010836NNMD0420220115131517    1N0N  0000002520000085470000106471200    YCYC    005400370024
BI00A1200    2399T51923     202201187289-5979-30             HOUSING FEMALE ASS'Y     PCN000000756000004032FN00000000020211101000004032NNMD0220220115131322    1N0N  0000002520000085470000106471200    YCYC    005400370024
BI00A1200    2399T51923     202201197289-5979-30             HOUSING FEMALE ASS'Y     PCN000004032000000756FN00000000020211101000000756NNMD0220220115131329    1N0N  0000002520000085470000106471200    YCYC    005400370024
BI00A1200    2399T51A21     202201197289-5979-30             HOUSING FEMALE ASS'Y     PCN000003276000003276FN00000000020211201000003276NNMD0420220115131346    1N0N  0000002520000085470000106471200    YCYC    005400370024
BI00A1200    2399T51A21     202201257289-5979-30             HOUSING FEMALE ASS'Y     PCN000012096000016128FN00000000020211201000016128NNMD0420220115131500    1N0N  0000002520000085470000106471200    YCYC    005400370024
BI00A1200    2399T51A21     202202017289-5979-30             HOUSING FEMALE ASS'Y     PCN000004032000000000FY00000000020211201000000000NNMD0420220115131523    1N0N  0000002520000085470000106471200    YCYC    005400370024
BI00A1200    2399T51A22     202201317289-5979-30             HOUSING FEMALE ASS'Y     PCN000001260000001260FN00000000020211201000001260NNMD0420220115131541    1N0N  0000002520000085470000106471200    YCYC    005400370024
