BI00A1200    2399T52114     202204047289-5979-30             HOUSING FEMALE ASS'Y     PCN000001764000001764FY00000176420220301000000000NNM00020220405144723    1N0N  0000002520000085470000106471200    YCYC    005400370024
BI00B1200    7504T220323    202204087340-9416-0W             J/B ASS'Y                CCN000000040000000040FN00000000020220401000000040NNED0720220405145742    4J0J  0000000100000054860000073401200    YCYC    005400370024
BI00B1200    7504T220323    202204087340-9147-0W             J/B ASS'Y                CCN000000020000000020FN00000000020220401000000020NNED0720220405145742    4J0J  0000000100000053400000071831200    YCYC    005400370024
BI00B1200    2399T52422     202205197289-3342                HOUSING FEMALE ASS'Y     CCN000002400000002400FN00000000020220601000002400NNMD0020220405120710    1N0N  0000024000000068640000090141200    YCYC    005500360039
BI00B1200    #O022F50278    202205197154-5597-30             CASSETTE R/B             CCN000001600000001600FN00000000020220601000001600NNE   20220405120710    2F0F  0000008000000073600000095201200    YCYC    005500360039
BI00B1200    H722G50008     202206097289-9553-30             SEALED ASSY FEMALE       CCN000017640000017640FN00000000020220701000017640NNE   20220405120710    4N0N  0000029400000110900000152151200    YCYC    005500360039
BI00B1200    #BY02806       202205267154-5597-30             CASSETTE R/B             CCN000000800000000800FN00000000020220601000000800NNE   20220405133320    2F0F  0000008000000073600000095201200    YCYC    005500360039
BI00B1200    O022G50022     202206237116-4100-02             TERMINAL                 CCN000075000000075000FN00000000020220701000075000NNE   20220405133352    4P0P  0000150000000069600000099021200    YCYC    006400630015
BI00B1200    O022G50023     202206237116-4100-02             TERMINAL                 CCN000090000000090000FN00000000020220701000090000NNE   20220405133409    4P0P  0000150000000069600000099021200    YCYC    006400630015
BI00B1200    #Y022H50004    202207077174-1314-30             SEALED COVER             CCN000004000000004000FN00000000020220801000004000NNM   20220405133543    2F0F  0000008000000076930000088931200    YCYC    005500360039
BI00B1200    Y022H50005     202207077196-0648-02             TERMINAL                 CCN000060000000060000FN00000000020220801000060000NNM   20220405133602    4P0P  0000150000000035550000068971200    YCYC    006400630015
BI00B1200    Y022H50006     202207077289-6524-30             HOUSING FEMALE ASS'Y     CCN000000960000000960FN00000000020220801000000960NNM   20220405133708    4N0N  0000002400000135120000166621200    YCYC    005500360039
BI00B32AF    JTB2052        202204227282-1024                HOUSING MALE             CCN000001000000001000FN00000000020220501000001000NNM00020220405142243    1N0N  00000100000000458000000580532AF    HBYHVTB 005400370024
BI00B32AF    JTB2052        202204227282-9391-30             HOUSING MALE ASS'Y       CCN000001200000001200FN00000000020220501000001200NNM00020220405142439    4N0N  00000120000001017600001237632AF    HBYHVTB 005500360039
BI00B32AF    #JTB2052       202204227286-7860-70             HOUSING MALE ASS'Y       CCN000004200000004800FN00000000020220501000004800NNM00020220405143350    2N0N  00000080000000951700001139832AF    HBYHVTB 005400370024
BI00B32AF    JTB2051        202204227289-3342-30             HOUSING FEMALE ASS'Y     CCN000024000000024000FN00000000020220501000024000NNM00020220405120710    1N0N  00000240000000686400000901432AF    HBYHVTB 005500360039
BI00B32BF    TT22052BMW     202204047158-3006-90             RUBBER STOPPER           CCN000020000000020000FY00002000020220501000000000NNM00020220405131429    1C0C  00002000000000330600000386032BF    TTTJYCD 002700430014
BI00B32BF    TT22053KMW     202204047114-1301                TERMINAL                 CCN000039000000039000FY00003900020220501000000000NNM00020220405131622    4P0P  00001950000000614300000907932BF    TTTJYCD 006400630015
BI00B32B1    A22024         202205137288-3339-30             HOUSING MALE             CCN000003000000000000FY00000000020220701000000000NNMQ0020220405113612B1  4N0N  00000150000000867000001012032B1    AXARNE-M005400370024
BI00B32B1    A22024         202205137289-3342-30             HOUSING FEMALE ASS'Y     CCN000002400000000000FY00000000020220701000000000NNMQ0020220405113612B1  1N0N  00000240000000686400000901432B1    AXARNE-M005500360039
BI00B32B1    A22024         202205137289-3342-90             HOUSING FEMALE ASS'Y     CCN000002400000002400FN00000000020220701000002400NNMQ0020220405120710B1  1N0N  00000240000000686400000901432B1    AXARNE-M005500360039
BI00B32CJ    JQN2011        202204227289-3342-30             HOUSING FEMALE ASS'Y     CCN000024000000004800FN00000000020220101000004800NNM00020220405120710    1N0N  00000240000000686400000901432CJ    QNYHVQN 005500360039
BI00A32DA    SBT2203A       202204227289-3342-30             HOUSING FEMALE ASS'Y     CCN000019200000019200FN00000000020220301000019200NNMD0420220405161334    1N0N  00000240000000686400000901432DA    GBYIPLGB005500360039
BI00B32DE    #TCTL2061      202205127114-4022                TERMINAL                 CCN000045000000045000FN00000000020220601000045000NNM00020220405151324    2F0P  00001500000000708000001120632DE    TVYEV-TV006400630015
BI00B32DE    #TCTL2062      202205267114-4022                TERMINAL                 CCN000060000000060000FN00000000020220601000060000NNM00020220405151455    2F0P  00001500000000708000001120632DE    TVYEV-TV006400630015
BI00B32DE    #TCTL2061      202205127125-3236-30             HEAD LAMP CONNECTOR      CCN000002800000002800FN00000000020220601000002800NNM00020220405151324    2F0F  00000280000000945000001085932DE    TVYEV-TV005500360039
BI00B32DE    #TCTL2062      202205267125-3236-30             HEAD LAMP CONNECTOR      CCN000002800000002800FN00000000020220601000002800NNM00020220405151455    2F0F  00000280000000945000001085932DE    TVYEV-TV005500360039
BI00B32DE    #TCTL2061      202205127157-8991-80             RUBBER STOPPER           CCN000040000000040000FN00000000020220601000040000NNM00020220405151324    2C0C  00002000000000214000000271032DE    TVYEV-TV002700430014
BI00B32DE    #TCTL2062      202205267157-8991-80             RUBBER STOPPER           CCN000080000000080000FN00000000020220601000080000NNM00020220405151455    2C0C  00002000000000214000000271032DE    TVYEV-TV002700430014
BI00B32DE    #TCTL2061      202205127158-3003-90             RUBBER STOPPER           CCN000100000000100000FN00000000020220601000100000NNM00020220405151324    2C0C  00002000000000250000000306032DE    TVYEV-TV002700430014
BI00B32DE    #TCTL2062      202205267158-3003-90             RUBBER STOPPER           CCN000260000000260000FN00000000020220601000260000NNM00020220405151455    2C0C  00002000000000250000000306032DE    TVYEV-TV002700430014
BI00B32DE    #TCTL2061      202205127158-3004-40             RUBBER STOPPER           CCN000040000000040000FN00000000020220601000040000NNM00020220405151324    2C0C  00002000000000234000000306332DE    TVYEV-TV002700430014
BI00B32DE    #TCTL2062      202205267158-3004-40             RUBBER STOPPER           CCN000060000000060000FN00000000020220601000060000NNM00020220405151455    2C0C  00002000000000234000000306332DE    TVYEV-TV002700430014
BI00B32DE    #TCTL2061      202205127158-3005-80             RUBBER STOPPER           CCN000020000000020000FN00000000020220601000020000NNM00020220405151324    2H0H  00002000000000210000000268732DE    TVYEV-TV002700430014
BI00B32DE    #TCTL2062      202205267158-3005-80             RUBBER STOPPER           CCN000020000000020000FN00000000020220601000020000NNM00020220405151455    2H0H  00002000000000210000000268732DE    TVYEV-TV002700430014
BI00B32DE    #TCTL2061      202205127158-3007-10             RUBBER STOPPER           CCN000020000000020000FN00000000020220601000020000NNM00020220405151324    2H0H  00002000000000308000000362732DE    TVYEV-TV002700430014
BI00B32DE    #TCTL2062      202205267158-3007-10             RUBBER STOPPER           CCN000080000000080000FN00000000020220601000080000NNM00020220405151455    2H0H  00002000000000308000000362732DE    TVYEV-TV002700430014
BI00B32DE    #TCTL2061      202205127158-3008-80             RUBBER STOPPER           CCN000020000000020000FN00000000020220601000020000NNM00020220405151324    2C0C  00002000000000288000000343032DE    TVYEV-TV004300270014
BI00B32DE    #TCTL2062      202205267158-3008-80             RUBBER STOPPER           CCN000040000000040000FN00000000020220601000040000NNM00020220405151455    2C0C  00002000000000288000000343032DE    TVYEV-TV004300270014
BI00B32DE    #TCTL2061      202205127158-3015-10             RUBBER STOPPER           CCN000040000000040000FN00000000020220601000040000NNM00020220405151324    2C0C  00001000000000419500000474032DE    TVYEV-TV002700430014
BI00B32DE    #TCTL2062      202205267158-3015-10             RUBBER STOPPER           CCN000060000000060000FN00000000020220601000060000NNM00020220405151455    2C0C  00001000000000419500000474032DE    TVYEV-TV002700430014
BI00B32DE    #TCTL2061      202205127158-3017                RUBBER STOPPER           CCN000020000000020000FN00000000020220601000020000NNM00020220405151324    2C0C  00001000000000375500000435032DE    TVYEV-TV002700430014
BI00B32DE    #TCTL2062      202205267158-3017                RUBBER STOPPER           CCN000030000000030000FN00000000020220601000030000NNM00020220405151455    2C0C  00001000000000375500000435032DE    TVYEV-TV002700430014
BI00B32DE    #TCTL2061      202205127158-3120-90             CONNECTOR WIRE SEAL      CCN000060000000060000FN00000000020220601000060000NNM00020220405151324    2C0C  00002000000000136000000194032DE    TVYEV-TV002700430014
BI00B32DE    #TCTL2062      202205267158-3120-90             CONNECTOR WIRE SEAL      CCN000100000000100000FN00000000020220601000100000NNM00020220405151455    2C0C  00002000000000136000000194032DE    TVYEV-TV002700430014
BI00B32DE    #TCTL2061      202205127158-7584-30             BLOCK LIF                CCN000000800000000800FN00000000020220601000000800NNM00020220405151324    2F0F  00000080000000534500000688532DE    TVYEV-TV005500360039
BI00B32DE    #TCTL2062      202205267158-7584-30             BLOCK LIF                CCN000000800000000800FN00000000020220601000000800NNM00020220405151455    2F0F  00000080000000534500000688532DE    TVYEV-TV005500360039
BI00B32DE    #TCTL2062      202205267158-7586-30             BLOCK LIF                CCN000004000000004000FN00000000020220601000004000NNM00020220405151455    2F0F  00000080000000617400000844232DE    TVYEV-TV005500360039
BI00B32DE    #TCTL2062      202205267172-5629-80             RUBBER STOPPER           CCN000020000000020000FN00000000020220601000020000NNM00020220405151455    2H0H  00002000000000060000000111132DE    TVYEV-TV004300270014
BI00B32DE    #TCTL2061      202205127172-5630-40             RUBBER STOPPER           CCN000020000000020000FN00000000020220601000020000NNM00020220405151324    2H0H  00002000000000044000000095132DE    TVYEV-TV004300270014
BI00B32DE    #TCTL2062      202205267182-2410                CONNECTOR HOUSING        CCN000001200000001200FN00000000020220601000001200NNM00020220405151455    2F0F  00000120000000959800001245632DE    TVYEV-TV005500360039
BI00B32DE    #TCTL2061      202205127183-0520                HOUSING FEMALE           CCN000003000000003000FN00000000020220601000003000NNM00020220405151324    2F0F  00000300000000729000000874032DE    TVYEV-TV005400370024
BI00B32DE    #TCTL2061      202205127183-0521                HOUSING                  CCN000004800000004800FN00000000020220601000004800NNM00020220405151324    2F0F  00000480000001367500001585032DE    TVYEV-TV005500360039
BI00B32DE    #TCTL2062      202205267183-0521                HOUSING                  CCN000004800000004800FN00000000020220601000004800NNM00020220405151455    2F0F  00000480000001367500001585032DE    TVYEV-TV005500360039
BI00B32DE    #TCTL2061      202205127183-1616-30             CONNECTOR HOUSING        CCN000002400000002400FN00000000020220601000002400NNM00020220405151324    2F0F  00000240000000557500000837132DE    TVYEV-TV005500360039
BI00B32DE    #TCTL2062      202205267183-1616-30             CONNECTOR HOUSING        CCN000002400000002400FN00000000020220601000002400NNM00020220405151455    2F0F  00000240000000557500000837132DE    TVYEV-TV005500360039
BI00B32DE    #TCTL2061      202205127183-2412                HOUSING                  CCN000001600000001600FN00000000020220601000001600NNM00020220405151324    2F0F  00000160000001059200001245632DE    TVYEV-TV005500360039
BI00B32DE    #TCTL2062      202205267183-2412                HOUSING                  CCN000001600000001600FN00000000020220601000001600NNM00020220405151455    2F0F  00000160000001059200001245632DE    TVYEV-TV005500360039
BI00B32DE    #TCTL2061      202205127183-2413                CONNECTOR HOUSING        CCN000004800000004800FN00000000020220601000004800NNM00020220405151324    2F0F  00000480000000478100000760032DE    TVYEV-TV005500360039
BI00B32DE    #TCTL2061      202205127183-2416-90             HOUSING                  CCN000009600000009600FN00000000020220601000009600NNM00020220405151324    2F0F  00000240000001489700001765832DE    TVYEV-TV005500360039
BI00B32DE    #TCTL2062      202205267183-2416-90             HOUSING                  CCN000007200000007200FN00000000020220601000007200NNM00020220405151455    2F0F  00000240000001489700001765832DE    TVYEV-TV005500360039
BI00B32DE    #TCTL2061      202205127183-2419                HOUSING                  CCN000004800000004800FN00000000020220601000004800NNM00020220405151324    2F0F  00000480000001065600001352732DE    TVYEV-TV005500360039
BI00B32DE    #TCTL2061      202205127183-7725-40             HOUSING                  CCN000006000000006000FN00000000020220601000006000NNM00020220405151324    2F0F  00000600000000840000001040032DE    TVYEV-TV005600390040
BI00B32DE    #TCTL2062      202205267183-7725-40             HOUSING                  CCN000012000000012000FN00000000020220601000012000NNM00020220405151455    2F0F  00000600000000840000001040032DE    TVYEV-TV005600390040
BI00B32DE    #TCTL2061      202205127187-8856                HOUSING FEMALE           CCN000006000000006000FN00000000020220601000006000NNM00020220405151324    2F0F  00000200000000820000000931532DE    TVYEV-TV005400370024
BI00B32DE    #TCTL2062      202205267187-8856                HOUSING FEMALE           CCN000010000000010000FN00000000020220601000010000NNM00020220405151455    2F0F  00000200000000820000000931532DE    TVYEV-TV005400370024
BI00B32DE    #TCTL2061      202205127188-0149                HLC HOUSING MALE         CCN000018900000018900FN00000000020220601000018900NNM00020220405151324    2F0F  00000090000000809100000923832DE    TVYEV-TV005400370024
BI00B32DE    #TCTL2062      202205267188-0149                HLC HOUSING MALE         CCN000023400000023400FN00000000020220601000023400NNM00020220405151455    2F0F  00000090000000809100000923832DE    TVYEV-TV005400370024
BI00B32DE    #TCTL2061      202205127189-0149                HLC HOUSING FEMALE       CCN000008000000008000FN00000000020220601000008000NNM00020220405151324    2F0F  00000200000000970000001078532DE    TVYEV-TV005400370024
BI00B32DE    #TCTL2062      202205267189-0149                HLC HOUSING FEMALE       CCN000024000000024000FN00000000020220601000024000NNM00020220405151455    2F0F  00000200000000970000001078532DE    TVYEV-TV005400370024
BI00B32DE    #TCTL2062      202205267189-3031-30             HOUSING FEMALE           CCN000004800000004800FN00000000020220601000004800NNM00020220405151455    2F0F  00000240000000928800001365832DE    TVYEV-TV005500360039
BI00B32DE    #TCTL2062      202205267189-3036                HOUSING FEMALE           CCN000001600000001600FN00000000020220601000001600NNM00020220405151455    2F0F  00000160000000921600001141632DE    TVYEV-TV005500360039
BI00B32DE    #TCTL2062      202205267198-4980-30             HOUSING FEMALE           CCN000001200000001200FN00000000020220601000001200NNM00020220405151455    2F0F  00000120000000840000000921032DE    TVYEV-TV005400370024
BI00B32DE    #TCTL2062      202205267283-1065                CONNECTOR                CCN000017500000017500FN00000000020220601000017500NNM00020220405151455    2N0N  00000250000001152500001310432DE    TVYEV-TV005500360039
BI00B32DE    #TCTL2062      202205267283-1485                CONNECTOR                CCN000002000000002000FN00000000020220601000002000NNM00020220405151455    2N0N  00000200000001160000001340732DE    TVYEV-TV005500360039
BI00B32DE    #TCTL2061      202205127283-5833                CONNECTOR HOUSING        CCN000003640000003640FN00000000020220601000003640NNM00020220405151324    2N0N  00000364000001378000001686732DE    TVYEV-TV005500360039
BI00B32DE    #TCTL2061      202205127283-5834                CONNECTOR ASS'Y          CCN000003240000003240FN00000000020220601000003240NNM00020220405151324    2N0N  00000324000001296000001849732DE    TVYEV-TV005600390040
BI00B32DE    #TCTL2062      202205267283-5834                CONNECTOR ASS'Y          CCN000003240000003240FN00000000020220601000003240NNM00020220405151455    2N0N  00000324000001296000001849732DE    TVYEV-TV005600390040
BI00B32DE    #TCTL2061      202205127283-5834-30             CONNECTOR ASS'Y          CCN000006480000006480FN00000000020220601000006480NNM00020220405151324    2N0N  00000324000001296000001853432DE    TVYEV-TV005600390040
BI00B32DE    #TCTL2062      202205267283-5834-30             CONNECTOR ASS'Y          CCN000003240000003240FN00000000020220601000003240NNM00020220405151455    2N0N  00000324000001296000001853432DE    TVYEV-TV005600390040
BI00B32DE    #TCTL2062      202205267287-1670                HOUSING FEMALE ASS'Y     CCN000002800000002800FN00000000020220601000002800NNM00020220405151455    2N0N  00000280000000953100001145132DE    TVYEV-TV005400370024
BI00B32DE    #TCTL2062      202205267289-2914                HOUSING FEMALE ASS'Y     CCN000001500000001500FN00000000020220601000001500NNM00020220405151455    2N0N  00000150000000906000001033032DE    TVYEV-TV005400370024
BI00B32DE    #TCTL2062      202205267289-2915-30             HOUSING FEMALE ASS'Y     CCN000001500000001500FN00000000020220601000001500NNM00020220405151455    2N0N  00000150000000964500001091532DE    TVYEV-TV005400370024
BI00B32DE    #TCTL2062      202205267289-2916-30             HOUSING FEMALE ASS'Y     CCN000001000000001000FN00000000020220601000001000NNM00020220405151455    2N0N  00000100000000857000001084032DE    TVYEV-TV005400370024
BI00T32DE    @ICT2051       202205097183-2510                HOUSING                  CCN000009000000009000FN00000000020220501000009000NNM   20220405155214    3F0F  00000300000001063500001159032DE    TVYEV-TV005400370024
BI00T32DE    @ICT2051       202205097183-3190                JOINT CONNECTOR          CCN000043200000043200FN00000000020220501000043200NNM   20220405155214    3F0F  00000360000000457600000667832DE    TVYEV-TV005500360039
BI00T32DE    @ICT2051       202205097283-1061                CONNECTOR SUB ASSY       CCN000002400000002400FN00000000020220501000002400NNM   20220405155214    3N0N  00000240000000829700001065032DE    TVYEV-TV005500360039
BI00T32DE    @ICT2051       202205097283-1223-30             HOUSING SUB ASSEMBLY     CCN000004800000004800FN00000000020220501000004800NNM   20220405155214    3N0N  00000480000000749300000998032DE    TVYEV-TV005500360039
BI00T32DE    @ICT2051       202205097283-1556                CONNECTOR ASS'Y          CCN000002400000002400FN00000000020220501000002400NNM   20220405155214    3N0N  00000240000000755000001014032DE    TVYEV-TV005500360039
BI00T32DE    @ICT2051       202205097283-7443-30             HOUSING SUB ASSEMBLY     CCN000009600000009600FN00000000020220501000009600NNM   20220405155214    3N0N  00000240000000683700000908032DE    TVYEV-TV005500360039
BI00B32DG    RP2054C        202205057116-5097-02             TERMINAL                 CCN000022500000022500FN00000000020220501000022500NNE   20220405120710    4P0P  00002250000000531000000816232DG    BFSAIBF 006400630015
BI00B32DG    #RL2061        202205127116-4021                TERMINAL                 CCN000054000000054000FN00000000020220601000054000NNM   20220405120710    2F0P  00001350000000534600000868832DG    BFSAIBF 006400630015
BI00B32DG    #RL2062        202205197116-4021                TERMINAL                 CCN000027000000027000FN00000000020220601000027000NNM   20220405120710    2F0P  00001350000000534600000868832DG    BFSAIBF 006400630015
BI00B32DG    #RL2063        202205267116-4021                TERMINAL                 CCN000027000000027000FN00000000020220601000027000NNM   20220405120710    2F0P  00001350000000534600000868832DG    BFSAIBF 006400630015
BI00B32DG    #RL2064        202206027116-4021                TERMINAL                 CCN000027000000027000FN00000000020220601000027000NNM   20220405120710    2F0P  00001350000000534600000868832DG    BFSAIBF 006400630015
BI00B32DG    #RL2061        202205127283-8123-40             CONNECTOR HOUSING        CCN000008000000008000FN00000000020220601000008000NNM   20220405120710    2N0N  00000400000000380000000530032DG    BFSAIBF 005600390023
BI00B32DG    #RL2062        202205197283-8123-40             CONNECTOR HOUSING        CCN000004000000004000FN00000000020220601000004000NNM   20220405120710    2N0N  00000400000000380000000530032DG    BFSAIBF 005600390023
BI00B32DG    #RL2061        202205127035-5731                GROMMET                  CCN000000500000000500FN00000000020220601000000500NNM   20220405120710    2H0H  00000050000000808000000918032DG    BFSAIBF 005600390040
BI00B32DG    #RL2062        202205197035-5731                GROMMET                  CCN000000500000000500FN00000000020220601000000500NNM   20220405120710    2H0H  00000050000000808000000918032DG    BFSAIBF 005600390040
BI00B32DG    #RL2061        202205127183-6320                HOUSING                  CCN000009600000009600FN00000000020220601000009600NNM   20220405120710    2F0F  00000480000000820800001103632DG    BFSAIBF 005500360039
BI00B32DG    #RL2062        202205197183-6320                HOUSING                  CCN000004800000004800FN00000000020220601000004800NNM   20220405120710    2F0F  00000480000000820800001103632DG    BFSAIBF 005500360039
BI00B32DG    #RL2061        202205127183-1615                HOUSING                  CCN000009600000009600FN00000000020220601000009600NNM   20220405120710    2F0F  00000480000000757000001042032DG    BFSAIBF 005500360039
BI00B32DG    #RL2062        202205197183-1615                HOUSING                  CCN000004800000004800FN00000000020220601000004800NNM   20220405120710    2F0F  00000480000000757000001042032DG    BFSAIBF 005500360039
BI00B32DG    #RL2061        202205127114-4022                TERMINAL                 CCN000015000000015000FN00000000020220601000015000NNM   20220405120710    2F0P  00001500000000708000001120632DG    BFSAIBF 006400630015
BI00B32DG    #RL2062        202205197114-4022                TERMINAL                 CCN000015000000015000FN00000000020220601000015000NNM   20220405120710    2F0P  00001500000000708000001120632DG    BFSAIBF 006400630015
BI00B32DG    #RL2061        202205127158-3007-10             RUBBER STOPPER           CCN000040000000040000FN00000000020220601000040000NNM   20220405120710    2H0H  00002000000000308000000362732DG    BFSAIBF 002700430014
BI00B32DG    #RL2062        202205197158-3007-10             RUBBER STOPPER           CCN000020000000020000FN00000000020220601000020000NNM   20220405120710    2H0H  00002000000000308000000362732DG    BFSAIBF 002700430014
BI00B32DG    #RL2063        202205267158-3007-10             RUBBER STOPPER           CCN000020000000020000FN00000000020220601000020000NNM   20220405120710    2H0H  00002000000000308000000362732DG    BFSAIBF 002700430014
BI00B32DG    #RL2061        202205127189-3031                HOUSING FEMALE           CCN000002400000002400FN00000000020220601000002400NNM   20220405120710    2F0F  00000240000000928800001365832DG    BFSAIBF 005500360039
BI00B32DG    #RL2062        202205197189-3031                HOUSING FEMALE           CCN000002400000002400FN00000000020220601000002400NNM   20220405120710    2F0F  00000240000000928800001365832DG    BFSAIBF 005500360039
BI00B32DG    #RL2061        202205127282-1026                CONNECTOR HOUSING        CCN000010000000010000FN00000000020220601000010000NNM   20220405120710    2N0N  00000200000000696000000808532DG    BFSAIBF 005400370024
BI00B32DG    #RL2062        202205197282-1026                CONNECTOR HOUSING        CCN000006000000006000FN00000000020220601000006000NNM   20220405120710    2N0N  00000200000000696000000808532DG    BFSAIBF 005400370024
BI00B32DG    #RL2063        202205267282-1026                CONNECTOR HOUSING        CCN000006000000006000FN00000000020220601000006000NNM   20220405120710    2N0N  00000200000000696000000808532DG    BFSAIBF 005400370024
BI00B32DG    #RL2061        202205127158-3003-90             RUBBER STOPPER           CCN000040000000040000FN00000000020220601000040000NNM   20220405120710    2C0C  00002000000000250000000306032DG    BFSAIBF 002700430014
BI00B32DG    #RL2062        202205197158-3003-90             RUBBER STOPPER           CCN000020000000020000FN00000000020220601000020000NNM   20220405120710    2C0C  00002000000000250000000306032DG    BFSAIBF 002700430014
BI00B32DG    #RL2061        202205127282-3020                CONNECTOR                CCN000001000000001000FN00000000020220601000001000NNM   20220405120710    2N0N  00000100000000984000001145432DG    BFSAIBF 005500360039
BI00B32DG    #RL2061        202205127158-3075-10             SEALED CONNECTOR         CCN000040000000040000FN00000000020220601000040000NNM   20220405120710    2C0C  00004000000000376000000429732DG    BFSAIBF 002700430014
BI00B32DG    #RL2061        202205127183-1616                CONNECTOR HOUSING        CCN000007200000007200FN00000000020220601000007200NNM   20220405120710    2F0F  00000240000000557500000823332DG    BFSAIBF 005500360039
BI00B32DG    #RL2062        202205197183-1616                CONNECTOR HOUSING        CCN000004800000004800FN00000000020220601000004800NNM   20220405120710    2F0F  00000240000000557500000823332DG    BFSAIBF 005500360039
BI00B32DG    #RL2063        202205267183-1616                CONNECTOR HOUSING        CCN000004800000004800FN00000000020220601000004800NNM   20220405120710    2F0F  00000240000000557500000823332DG    BFSAIBF 005500360039
BI00B32DG    RP2061         202205127017-1182-02             TERMINAL                 CCN000045000000045000FN00000000020220601000045000NNM   20220405120710    4P0P  00004500000001165500001318632DG    BFSAIBF 005100280028
BI00B32DG    RP2061         202205127017-1183-02             TERMINAL                 CCN000027000000027000FN00000000020220601000027000NNM   20220405120710    4P0P  00002700000001139400001307432DG    BFSAIBF 005100280028
BI00B32DG    RP2061         202205127114-4020                TERMINAL                 CCN000042000000042000FN00000000020220601000042000NNM   20220405120710    4P0P  00002100000000875700001169332DG    BFSAIBF 006400630015
BI00B32DG    RP2062         202205197114-4020                TERMINAL                 CCN000021000000021000FN00000000020220601000021000NNM   20220405120710    4P0P  00002100000000875700001169332DG    BFSAIBF 006400630015
BI00B32DG    RP2061         202205127114-4021                TERMINAL                 CCN000045000000045000FN00000000020220601000045000NNM   20220405120710    4P0P  00001500000000670500000964132DG    BFSAIBF 006400630015
BI00B32DG    RP2062         202205197114-4021                TERMINAL                 CCN000030000000030000FN00000000020220601000030000NNM   20220405120710    4P0P  00001500000000670500000964132DG    BFSAIBF 006400630015
BI00B32DG    RP2063         202205267114-4021                TERMINAL                 CCN000015000000015000FN00000000020220601000015000NNM   20220405120710    4P0P  00001500000000670500000964132DG    BFSAIBF 006400630015
BI00B32DG    RP2061         202205127114-4032                TERMINAL                 CCN000015000000015000FN00000000020220601000015000NNM   20220405120710    4P0P  00000750000000735000001063632DG    BFSAIBF 006400630017
BI00B32DG    RP2062         202205197114-4032                TERMINAL                 CCN000007500000007500FN00000000020220601000007500NNM   20220405120710    4P0P  00000750000000735000001063632DG    BFSAIBF 006400630017
BI00B32DG    RP2061         202205127114-4231-02             TERMINAL                 CCN000036000000036000FN00000000020220601000036000NNM   20220405120710    4P0P  00001800000000554400000848032DG    BFSAIBF 006400630015
BI00B32DG    RP2062         202205197114-4231-02             TERMINAL                 CCN000018000000018000FN00000000020220601000018000NNM   20220405120710    4P0P  00001800000000554400000848032DG    BFSAIBF 006400630015
BI00B32DG    RP2061         202205127114-4486-02             TERMINAL                 CCN000024000000024000FN00000000020220601000024000NNM   20220405120710    4P0P  00002400000000662400000956032DG    BFSAIBF 006400630015
BI00B32DG    RP2061         202205127114-4624-02             TERMINAL                 CCN000048000000048000FN00000000020220601000048000NNM   20220405120710    4P0P  00002400000000895200001188832DG    BFSAIBF 006400630015
BI00B32DG    RP2062         202205197114-4624-02             TERMINAL                 CCN000024000000024000FN00000000020220601000024000NNM   20220405120710    4P0P  00002400000000895200001188832DG    BFSAIBF 006400630015
BI00B32DG    RP2061         202205127114-4728-02             TERMINAL                 CCN000300000000300000FN00000000020220601000300000NNM   20220405120710    4P0P  00003000000000510000000804232DG    BFSAIBF 006400630015
BI00B32DG    RP2062         202205197114-4728-02             TERMINAL                 CCN000150000000150000FN00000000020220601000150000NNM   20220405120710    4P0P  00003000000000510000000804232DG    BFSAIBF 006400630015
BI00B32DG    RP2063         202205267114-4728-02             TERMINAL                 CCN000150000000150000FN00000000020220601000150000NNM   20220405120710    4P0P  00003000000000510000000804232DG    BFSAIBF 006400630015
BI00B32DG    RP2064         202206027114-4728-02             TERMINAL                 CCN000090000000090000FN00000000020220601000090000NNM   20220405120710    4P0P  00003000000000510000000804232DG    BFSAIBF 006400630015
BI00B32DG    RP2061         202205127114-4729-02             TERMINAL                 CCN000090000000090000FN00000000020220601000090000NNM   20220405120710    4P0P  00003000000000516000000810232DG    BFSAIBF 006400630015
BI00B32DG    RP2062         202205197114-4729-02             TERMINAL                 CCN000060000000060000FN00000000020220601000060000NNM   20220405120710    4P0P  00003000000000516000000810232DG    BFSAIBF 006400630015
BI00B32DG    RP2063         202205267114-4729-02             TERMINAL                 CCN000030000000030000FN00000000020220601000030000NNM   20220405120710    4P0P  00003000000000516000000810232DG    BFSAIBF 006400630015
BI00B32DG    RP2061         202205127114-5746-02             TERMINAL                 CCN000084000000084000FN00000000020220601000084000NNM   20220405120710    4P0P  00002100000000695100000988732DG    BFSAIBF 006400630015
BI00B32DG    RP2062         202205197114-5746-02             TERMINAL                 CCN000042000000042000FN00000000020220601000042000NNM   20220405120710    4P0P  00002100000000695100000988732DG    BFSAIBF 006400630015
BI00B32DG    RP2063         202205267114-5746-02             TERMINAL                 CCN000042000000042000FN00000000020220601000042000NNM   20220405120710    4P0P  00002100000000695100000988732DG    BFSAIBF 006400630015
BI00B32DG    RP2061         202205127114-5747-02             TERMINAL                 CCN000144000000144000FN00000000020220601000144000NNM   20220405120710    4P0P  00001800000000626400000920032DG    BFSAIBF 006400630015
BI00B32DG    RP2062         202205197114-5747-02             TERMINAL                 CCN000072000000072000FN00000000020220601000072000NNM   20220405120710    4P0P  00001800000000626400000920032DG    BFSAIBF 006400630015
BI00B32DG    RP2063         202205267114-5747-02             TERMINAL                 CCN000072000000072000FN00000000020220601000072000NNM   20220405120710    4P0P  00001800000000626400000920032DG    BFSAIBF 006400630015
BI00B32DG    RP2064         202206027114-5747-02             TERMINAL                 CCN000036000000036000FN00000000020220601000036000NNM   20220405120710    4P0P  00001800000000626400000920032DG    BFSAIBF 006400630015
BI00B32DG    RP2061         202205127114-5748-02             TERMINAL                 CCN000024000000024000FN00000000020220601000024000NNM   20220405120710    4P0P  00001200000000444000000737632DG    BFSAIBF 006400630015
BI00B32DG    RP2062         202205197114-5748-02             TERMINAL                 CCN000012000000012000FN00000000020220601000012000NNM   20220405120710    4P0P  00001200000000444000000737632DG    BFSAIBF 006400630015
BI00B32DG    RP2061         202205127114-5753-02             TERMINAL                 CCN000108000000108000FN00000000020220601000108000NNM   20220405120710    4P0P  00002700000000847800001141432DG    BFSAIBF 006400630015
BI00B32DG    RP2062         202205197114-5753-02             TERMINAL                 CCN000054000000054000FN00000000020220601000054000NNM   20220405120710    4P0P  00002700000000847800001141432DG    BFSAIBF 006400630015
BI00B32DG    RP2063         202205267114-5753-02             TERMINAL                 CCN000054000000054000FN00000000020220601000054000NNM   20220405120710    4P0P  00002700000000847800001141432DG    BFSAIBF 006400630015
BI00B32DG    RP2061         202205127116-4020                TERMINAL                 CCN000027000000027000FN00000000020220601000027000NNM   20220405120710    4P0P  00001350000000513000000798232DG    BFSAIBF 006400630015
BI00B32DG    RP2062         202205197116-4020                TERMINAL                 CCN000013500000013500FN00000000020220601000013500NNM   20220405120710    4P0P  00001350000000513000000798232DG    BFSAIBF 006400630015
BI00B32DG    RP2063         202205267116-4020                TERMINAL                 CCN000013500000013500FN00000000020220601000013500NNM   20220405120710    4P0P  00001350000000513000000798232DG    BFSAIBF 006400630015
BI00B32DG    RP2064         202206027116-4020                TERMINAL                 CCN000013500000013500FN00000000020220601000013500NNM   20220405120710    4P0P  00001350000000513000000798232DG    BFSAIBF 006400630015
BI00B32DG    RP2061         202205127116-4025                TERMINAL                 CCN000032000000032000FN00000000020220601000032000NNM   20220405120710    4P0P  00001600000000644800000975132DG    BFSAIBF 006400630017
BI00B32DG    RP2062         202205197116-4025                TERMINAL                 CCN000016000000016000FN00000000020220601000016000NNM   20220405120710    4P0P  00001600000000644800000975132DG    BFSAIBF 006400630017
BI00B32DG    RP2063         202205267116-4025                TERMINAL                 CCN000016000000016000FN00000000020220601000016000NNM   20220405120710    4P0P  00001600000000644800000975132DG    BFSAIBF 006400630017
BI00B32DG    RP2061         202205127116-4032                TERMINAL                 CCN000018000000018000FN00000000020220601000018000NNM   20220405120710    4P0P  00000600000000532800000818032DG    BFSAIBF 006400630015
BI00B32DG    RP2062         202205197116-4032                TERMINAL                 CCN000012000000012000FN00000000020220601000012000NNM   20220405120710    4P0P  00000600000000532800000818032DG    BFSAIBF 006400630015
BI00B32DG    RP2063         202205267116-4032                TERMINAL                 CCN000006000000006000FN00000000020220601000006000NNM   20220405120710    4P0P  00000600000000532800000818032DG    BFSAIBF 006400630015
BI00B32DG    RP2061         202205127116-4231-02             TERMINAL                 CCN000234000000234000FN00000000020220601000234000NNM   20220405120710    4P0P  00002600000000683800001012532DG    BFSAIBF 006400630017
BI00B32DG    RP2062         202205197116-4231-02             TERMINAL                 CCN000130000000130000FN00000000020220601000130000NNM   20220405120710    4P0P  00002600000000683800001012532DG    BFSAIBF 006400630017
BI00B32DG    RP2063         202205267116-4231-02             TERMINAL                 CCN000130000000130000FN00000000020220601000130000NNM   20220405120710    4P0P  00002600000000683800001012532DG    BFSAIBF 006400630017
BI00B32DG    RP2064         202206027116-4231-02             TERMINAL                 CCN000078000000078000FN00000000020220601000078000NNM   20220405120710    4P0P  00002600000000683800001012532DG    BFSAIBF 006400630017
BI00B32DG    RP2061         202205127116-4486-02             TERMINAL                 CCN000084000000084000FN00000000020220601000084000NNM   20220405120710    4P0P  00002800000000666400000995132DG    BFSAIBF 006400630017
BI00B32DG    RP2062         202205197116-4486-02             TERMINAL                 CCN000056000000056000FN00000000020220601000056000NNM   20220405120710    4P0P  00002800000000666400000995132DG    BFSAIBF 006400630017
BI00B32DG    RP2063         202205267116-4486-02             TERMINAL                 CCN000028000000028000FN00000000020220601000028000NNM   20220405120710    4P0P  00002800000000666400000995132DG    BFSAIBF 006400630017
BI00B32DG    RP2061         202205127116-5035-02             TERMINAL                 CCN000045000000045000FN00000000020220601000045000NNM   20220405120710    4P0P  00001500000000543000000828232DG    BFSAIBF 006400630015
BI00B32DG    RP2062         202205197116-5035-02             TERMINAL                 CCN000030000000030000FN00000000020220601000030000NNM   20220405120710    4P0P  00001500000000543000000828232DG    BFSAIBF 006400630015
BI00B32DG    RP2063         202205267116-5035-02             TERMINAL                 CCN000015000000015000FN00000000020220601000015000NNM   20220405120710    4P0P  00001500000000543000000828232DG    BFSAIBF 006400630015
BI00B32DG    RP2061         202205127116-5041-02             TERMINAL                 CCN000030000000030000FN00000000020220601000030000NNM   20220405120710    4P0P  00001500000000583500000868732DG    BFSAIBF 006400630015
BI00B32DG    RP2062         202205197116-5041-02             TERMINAL                 CCN000015000000015000FN00000000020220601000015000NNM   20220405120710    4P0P  00001500000000583500000868732DG    BFSAIBF 006400630015
BI00B32DG    RP2061         202205127116-5042-02             TERMINAL                 CCN000121500000121500FN00000000020220601000121500NNM   20220405120710    4P0P  00001350000000560300000845532DG    BFSAIBF 006400630015
BI00B32DG    RP2062         202205197116-5042-02             TERMINAL                 CCN000067500000067500FN00000000020220601000067500NNM   20220405120710    4P0P  00001350000000560300000845532DG    BFSAIBF 006400630015
BI00B32DG    RP2063         202205267116-5042-02             TERMINAL                 CCN000067500000067500FN00000000020220601000067500NNM   20220405120710    4P0P  00001350000000560300000845532DG    BFSAIBF 006400630015
BI00B32DG    RP2064         202206027116-5042-02             TERMINAL                 CCN000040500000040500FN00000000020220601000040500NNM   20220405120710    4P0P  00001350000000560300000845532DG    BFSAIBF 006400630015
BI00B32DG    RP2061         202205127116-5044-02             TERMINAL                 CCN000064000000064000FN00000000020220601000064000NNM   20220405120710    4P0P  00001600000000641600000986332DG    BFSAIBF 006400630017
BI00B32DG    RP2062         202205197116-5044-02             TERMINAL                 CCN000032000000032000FN00000000020220601000032000NNM   20220405120710    4P0P  00001600000000641600000986332DG    BFSAIBF 006400630017
BI00B32DG    RP2063         202205267116-5044-02             TERMINAL                 CCN000032000000032000FN00000000020220601000032000NNM   20220405120710    4P0P  00001600000000641600000986332DG    BFSAIBF 006400630017
BI00B32DG    RP2064         202206027116-5044-02             TERMINAL                 CCN000016000000016000FN00000000020220601000016000NNM   20220405120710    4P0P  00001600000000641600000986332DG    BFSAIBF 006400630017
BI00B32DG    RP2061         202205127116-5045-02             TERMINAL                 CCN000080000000080000FN00000000020220601000080000NNM   20220405120710    4P0P  00001600000000678400001007132DG    BFSAIBF 006400630017
BI00B32DG    RP2062         202205197116-5045-02             TERMINAL                 CCN000048000000048000FN00000000020220601000048000NNM   20220405120710    4P0P  00001600000000678400001007132DG    BFSAIBF 006400630017
BI00B32DG    RP2063         202205267116-5045-02             TERMINAL                 CCN000048000000048000FN00000000020220601000048000NNM   20220405120710    4P0P  00001600000000678400001007132DG    BFSAIBF 006400630017
BI00B32DG    RP2061         202205127158-3006-90             RUBBER STOPPER           CCN000040000000040000FN00000000020220601000040000NNM   20220405120710    1C0C  00002000000000330600000386032DG    BFSAIBF 002700430014
BI00B32DG    RP2062         202205197158-3006-90             RUBBER STOPPER           CCN000020000000020000FN00000000020220601000020000NNM   20220405120710    1C0C  00002000000000330600000386032DG    BFSAIBF 002700430014
BI00B32DG    RP2063         202205267158-3006-90             RUBBER STOPPER           CCN000020000000020000FN00000000020220601000020000NNM   20220405120710    1C0C  00002000000000330600000386032DG    BFSAIBF 002700430014
BI00B32DG    RP2064         202206027158-3006-90             RUBBER STOPPER           CCN000020000000020000FN00000000020220601000020000NNM   20220405120710    1C0C  00002000000000330600000386032DG    BFSAIBF 002700430014
BI00B32DG    RP2061         202205127114-4728-08             TERMINAL                 CCN000030000000030000FN00000000020220601000030000NNM   20220405120710    4P0P  00003000000000507000000801232DG    BFSAIBF 006400630015
BI00B32DG    RP2061         202205127116-5750-02             TERMINAL                 CCN000030000000030000FN00000000020220601000030000NNM   20220405120710    4P0P  00001500000000457500000742732DG    BFSAIBF 006400630015
BI00B32DG    RP2062         202205197116-5750-02             TERMINAL                 CCN000015000000015000FN00000000020220601000015000NNM   20220405120710    4P0P  00001500000000457500000742732DG    BFSAIBF 006400630015
BI00B32DG    RP2063         202205267116-5750-02             TERMINAL                 CCN000015000000015000FN00000000020220601000015000NNM   20220405120710    4P0P  00001500000000457500000742732DG    BFSAIBF 006400630015
BI00B32DG    RP2064         202206027116-5750-02             TERMINAL                 CCN000015000000015000FN00000000020220601000015000NNM   20220405120710    4P0P  00001500000000457500000742732DG    BFSAIBF 006400630015
BI00B32DG    RP2061         202205127116-5751-02             TERMINAL                 CCN000024000000024000FN00000000020220601000024000NNM   20220405120710    4P0P  00001200000000379200000664432DG    BFSAIBF 006400630015
BI00B32DG    RP2062         202205197116-5751-02             TERMINAL                 CCN000012000000012000FN00000000020220601000012000NNM   20220405120710    4P0P  00001200000000379200000664432DG    BFSAIBF 006400630015
BI00B32DG    RP2061         202205127283-1156                CONNECTOR                CCN000000800000000800FN00000000020220601000000800NNM   20220405120710    4N0N  00000080000000877600001078032DG    BFSAIBF 005600390040
BI00B32DG    RP2061         202205127114-5096-02             TERMINAL                 CCN000030000000030000FN00000000020220601000030000NNM   20220405120710    4P0P  00003000000000498000000792232DG    BFSAIBF 006400630015
BI00B32DG    RP2062         202205197114-5096-02             TERMINAL                 CCN000030000000030000FN00000000020220601000030000NNM   20220405120710    4P0P  00003000000000498000000792232DG    BFSAIBF 006400630015
BI00B32DG    RP2061         202205127288-3329-30             HOUSING MALE             CCN000003000000003000FN00000000020220601000003000NNM   20220405120710    4N0N  00000150000000866100001011132DG    BFSAIBF 005400370024
BI00B32DG    RP2062         202205197288-3329-30             HOUSING MALE             CCN000001500000001500FN00000000020220601000001500NNM   20220405120710    4N0N  00000150000000866100001011132DG    BFSAIBF 005400370024
BI00B32DG    RP2063         202205267288-3329-30             HOUSING MALE             CCN000001500000001500FN00000000020220601000001500NNM   20220405120710    4N0N  00000150000000866100001011132DG    BFSAIBF 005400370024
BI00B32DG    RP2061         202205127289-3342-30             HOUSING FEMALE ASS'Y     CCN000009600000009600FN00000000020220601000009600NNM   20220405120710    1N0N  00000240000000686400000901432DG    BFSAIBF 005500360039
BI00B32DG    RP2062         202205197289-3342-30             HOUSING FEMALE ASS'Y     CCN000004800000004800FN00000000020220601000004800NNM   20220405120710    1N0N  00000240000000686400000901432DG    BFSAIBF 005500360039
BI00B32DG    RP2063         202205267289-3342-30             HOUSING FEMALE ASS'Y     CCN000004800000004800FN00000000020220601000004800NNM   20220405120710    1N0N  00000240000000686400000901432DG    BFSAIBF 005500360039
BI00B32DG    RP2061         202205127158-3009-60             RUBBER STOPPER           CCN000060000000060000FN00000000020220601000060000NNM   20220405120710    1C0C  00002000000000338000000386232DG    BFSAIBF 002700430014
BI00B32DG    RP2062         202205197158-3009-60             RUBBER STOPPER           CCN000040000000040000FN00000000020220601000040000NNM   20220405120710    1C0C  00002000000000338000000386232DG    BFSAIBF 002700430014
BI00B32DG    RP2063         202205267158-3009-60             RUBBER STOPPER           CCN000020000000020000FN00000000020220601000020000NNM   20220405120710    1C0C  00002000000000338000000386232DG    BFSAIBF 002700430014
BI00B32DG    RP2061         202205127283-4576                HOUSING FEMALE ASS'Y     CCN000004800000004800FN00000000020220601000004800NNM   20220405120710    4N0N  00000480000000651300000871332DG    BFSAIBF 005500360039
BI00B32DG    RP2061         202205127116-4415-02             TERMINAL                 CCN000152000000152000FN00000000020220601000152000NNM   20220405120710    4P0P  00003800000000596600000925732DG    BFSAIBF 006400630017
BI00B32DG    RP2062         202205197116-4415-02             TERMINAL                 CCN000076000000076000FN00000000020220601000076000NNM   20220405120710    4P0P  00003800000000596600000925732DG    BFSAIBF 006400630017
BI00B32DG    RP2063         202205267116-4415-02             TERMINAL                 CCN000076000000076000FN00000000020220601000076000NNM   20220405120710    4P0P  00003800000000596600000925732DG    BFSAIBF 006400630017
BI00B32DG    RP2061         202205127283-5845-40             CONNECTOR HOUSING        CCN000006000000006000FN00000000020220601000006000NNM   20220405120710    1N0N  00000600000000444000000606332DG    BFSAIBF 005400370024
BI00B32DG    RP2061         202205127282-4577                HOUSING MALE ASS'Y       CCN000009600000009600FN00000000020220601000009600NNM   20220405120710    4N0N  00000240000000964800001174832DG    BFSAIBF 005500360039
BI00B32DG    RP2062         202205197282-4577                HOUSING MALE ASS'Y       CCN000004800000004800FN00000000020220601000004800NNM   20220405120710    4N0N  00000240000000964800001174832DG    BFSAIBF 005500360039
BI00B32DG    RP2063         202205267282-4577                HOUSING MALE ASS'Y       CCN000004800000004800FN00000000020220601000004800NNM   20220405120710    4N0N  00000240000000964800001174832DG    BFSAIBF 005500360039
BI00B32DG    RP2061         202205127116-5097-02             TERMINAL                 CCN000022500000022500FN00000000020220601000022500NNM   20220405120710    4P0P  00002250000000531000000816232DG    BFSAIBF 006400630015
BI00B32DG    RP2061         202205127288-3339-30             HOUSING MALE             CCN000001500000001500FN00000000020220601000001500NNM   20220405120710    4N0N  00000150000000867000001012032DG    BFSAIBF 005400370024
BI00B32DG    RP2061         202205127116-5752-02             TERMINAL                 CCN000021000000021000FN00000000020220601000021000NNM   20220405120710    4P0P  00002100000000571200000856432DG    BFSAIBF 006400630015
BI00B32DG    RP2061         202205127282-4578                HOUSING MALE ASS'Y       CCN000001200000001200FN00000000020220601000001200NNM   20220405120710    4N0N  00000120000000782600000992632DG    BFSAIBF 005500360039
BI00B32DG    RP2061         202205127286-1915                CONNECTOR SUB ASSY       CCN000001600000001600FN00000000020220601000001600NNM   20220405120710    4N0N  00000160000000965600001165632DG    BFSAIBF 005500360039
BI00B32DG    RP2061         202205127158-3070-80             RUBBER STOPPER           CCN000040000000040000FN00000000020220601000040000NNM   20220405120710    1C0C  00004000000000276000000333332DG    BFSAIBF 002700430014
BI00B32DG    RP2061         202205127287-1917                CONNECTOR FEMALE         CCN000004800000004800FN00000000020220601000004800NNM   20220405120710    4N0N  00000240000001060800001312532DG    BFSAIBF 005500360039
BI00B32DG    RP2062         202205197287-1917                CONNECTOR FEMALE         CCN000002400000002400FN00000000020220601000002400NNM   20220405120710    4N0N  00000240000001060800001312532DG    BFSAIBF 005500360039
BI00B32DG    RP2063         202205267287-1917                CONNECTOR FEMALE         CCN000002400000002400FN00000000020220601000002400NNM   20220405120710    4N0N  00000240000001060800001312532DG    BFSAIBF 005500360039
BI00B32DG    RP2061         202205127116-5043-02             TERMINAL FEMALE          CCN000012000000012000FN00000000020220601000012000NNM   20220405120710    4P0P  00001200000000559200000844432DG    BFSAIBF 006400630015
BI00B32DG    RP2061         202205127116-3153-02             TERMINAL FEMALE          CCN000378000000378000FN00000000020220601000378000NNM   20220405120710    4P0P  00002700000000459000000744232DG    BFSAIBF 006400630015
BI00B32DG    RP2062         202205197116-3153-02             TERMINAL FEMALE          CCN000189000000189000FN00000000020220601000189000NNM   20220405120710    4P0P  00002700000000459000000744232DG    BFSAIBF 006400630015
BI00B32DG    RP2063         202205267116-3153-02             TERMINAL FEMALE          CCN000189000000189000FN00000000020220601000189000NNM   20220405120710    4P0P  00002700000000459000000744232DG    BFSAIBF 006400630015
BI00B32DG    RP2064         202206027116-3153-02             TERMINAL FEMALE          CCN000189000000189000FN00000000020220601000189000NNM   20220405120710    4P0P  00002700000000459000000744232DG    BFSAIBF 006400630015
BI00B32DG    RP2061         202205127116-3154-02             TERMINAL FEMALE          CCN000270000000270000FN00000000020220601000270000NNM   20220405120710    4P0P  00002700000000469800000755032DG    BFSAIBF 006400630015
BI00B32DG    RP2062         202205197116-3154-02             TERMINAL FEMALE          CCN000135000000135000FN00000000020220601000135000NNM   20220405120710    4P0P  00002700000000469800000755032DG    BFSAIBF 006400630015
BI00B32DG    RP2063         202205267116-3154-02             TERMINAL FEMALE          CCN000135000000135000FN00000000020220601000135000NNM   20220405120710    4P0P  00002700000000469800000755032DG    BFSAIBF 006400630015
BI00B32DG    RP2064         202206027116-3154-02             TERMINAL FEMALE          CCN000081000000081000FN00000000020220601000081000NNM   20220405120710    4P0P  00002700000000469800000755032DG    BFSAIBF 006400630015
BI00B32DG    RP2061         202205127116-4416-02             TERMINAL                 CCN000032000000032000FN00000000020220601000032000NNM   20220405120710    4P0P  00003200000000518400000847132DG    BFSAIBF 006400630017
BI00B32DG    RP2062         202205197116-4416-02             TERMINAL                 CCN000032000000032000FN00000000020220601000032000NNM   20220405120710    4P0P  00003200000000518400000847132DG    BFSAIBF 006400630017
BI00B32DG    RP2061         202205127114-6041                TERMINAL                 CCN000003600000003600FN00000000020220601000003600NNM   20220405120710    4P0P  00000360000000580700000824232DG    BFSAIBF 006400630015
BI00B32DG    RP2062         202205197114-6041                TERMINAL                 CCN000003600000003600FN00000000020220601000003600NNM   20220405120710    4P0P  00000360000000580700000824232DG    BFSAIBF 006400630015
BI00B32DG    RP2061         202205127288-3340-30             HOUSING MALE             CCN000003000000003000FN00000000020220601000003000NNM   20220405120710    4N0N  00000150000000861500001006432DG    BFSAIBF 005400370024
BI00B32DG    RP2062         202205197288-3340-30             HOUSING MALE             CCN000001500000001500FN00000000020220601000001500NNM   20220405120710    4N0N  00000150000000861500001006432DG    BFSAIBF 005400370024
BI00B32DG    RP2063         202205267288-3340-30             HOUSING MALE             CCN000001500000001500FN00000000020220601000001500NNM   20220405120710    4N0N  00000150000000861500001006432DG    BFSAIBF 005400370024
BI00B32DG    RP2061         202205127283-1289                CONNECTOR HOUSING        CCN000004800000004800FN00000000020220601000004800NNM   20220405120710    1N0N  00000060000000676200000817632DG    BFSAIBF 005400370024
BI00B32DG    RP2062         202205197283-1289                CONNECTOR HOUSING        CCN000002400000002400FN00000000020220601000002400NNM   20220405120710    1N0N  00000060000000676200000817632DG    BFSAIBF 005400370024
BI00B32DG    RP2063         202205267283-1289                CONNECTOR HOUSING        CCN000002400000002400FN00000000020220601000002400NNM   20220405120710    1N0N  00000060000000676200000817632DG    BFSAIBF 005400370024
BI00B32DG    RP2064         202206027283-1289                CONNECTOR HOUSING        CCN000001800000001800FN00000000020220601000001800NNM   20220405120710    1N0N  00000060000000676200000817632DG    BFSAIBF 005400370024
BI00B32DG    RP2061         202205127116-2640                TERMINAL                 CCN000018000000018000FN00000000020220601000018000NNM   20220405120710    4P0P  00001800000001018800001196632DG    BFSAIBF 005100280028
BI00B32DG    RP2062         202205197116-2640                TERMINAL                 CCN000018000000018000FN00000000020220601000018000NNM   20220405120710    4P0P  00001800000001018800001196632DG    BFSAIBF 005100280028
BI00B32DG    RP2061         202205127116-4114-02             TERMINAL                 CCN000021000000021000FN00000000020220601000021000NNM   20220405120710    4P0P  00001050000000693000000981232DG    BFSAIBF 006400630015
BI00B32DG    RP2062         202205197116-4114-02             TERMINAL                 CCN000010500000010500FN00000000020220601000010500NNM   20220405120710    4P0P  00001050000000693000000981232DG    BFSAIBF 006400630015
BI00B32DG    RP2061         202205127116-4115-02             TERMINAL                 CCN000016800000016800FN00000000020220601000016800NNM   20220405120710    4P0P  00000840000000593000000881232DG    BFSAIBF 006400630015
BI00B32DG    RP2062         202205197116-4115-02             TERMINAL                 CCN000008400000008400FN00000000020220601000008400NNM   20220405120710    4P0P  00000840000000593000000881232DG    BFSAIBF 006400630015
BI00B32DG    RP2061         202205127126-8853-02             TERMINAL                 CCN000015000000015000FN00000000020220601000015000NNM   20220405120710    4P0P  00000750000000562500000847732DG    BFSAIBF 006400630015
BI00B32DG    RP2062         202205197126-8853-02             TERMINAL                 CCN000007500000007500FN00000000020220601000007500NNM   20220405120710    4P0P  00000750000000562500000847732DG    BFSAIBF 006400630015
BI00B32DG    RP2061         202205127126-8854-02             TERMINAL                 CCN000015000000015000FN00000000020220601000015000NNM   20220405120710    4P0P  00000750000000604500000889732DG    BFSAIBF 006400630015
BI00B32DG    RP2062         202205197126-8854-02             TERMINAL                 CCN000007500000007500FN00000000020220601000007500NNM   20220405120710    4P0P  00000750000000604500000889732DG    BFSAIBF 006400630015
BI00B32DG    RP2063         202205267126-8854-02             TERMINAL                 CCN000007500000007500FN00000000020220601000007500NNM   20220405120710    4P0P  00000750000000604500000889732DG    BFSAIBF 006400630015
BI00B32DG    RP2061         202205127126-8855-02             TERMINAL                 CCN000012000000012000FN00000000020220601000012000NNM   20220405120710    4P0P  00000600000000510600000795832DG    BFSAIBF 006400630015
BI00B32DG    RP2062         202205197126-8855-02             TERMINAL                 CCN000006000000006000FN00000000020220601000006000NNM   20220405120710    4P0P  00000600000000510600000795832DG    BFSAIBF 006400630015
BI00B32DG    RP2061         202205127288-3337-30             HOUSING MALE             CCN000001500000001500FN00000000020220601000001500NNM   20220405120710    4N0N  00000150000000867000001012032DG    BFSAIBF 005400370024
BI00B32DG    RP2062         202205197288-3337-30             HOUSING MALE             CCN000001500000001500FN00000000020220601000001500NNM   20220405120710    4N0N  00000150000000867000001012032DG    BFSAIBF 005400370024
BI00B32DG    #RP2061        202205127283-1065                CONNECTOR                CCN000002500000002500FN00000000020220601000002500NNM   20220405120710    2N0N  00000250000001152500001310432DG    BFSAIBF 005500360039
BI00B32DG    @RP2061        202205127283-1100                CONNECTOR ASS'Y          CCN000001600000001600FN00000000020220601000001600NNM   20220405120710    3N0N  00000160000000566500000799632DG    BFSAIBF 005500360039
BI00B32DG    @RP2062        202205197283-1100                CONNECTOR ASS'Y          CCN000001600000001600FN00000000020220601000001600NNM   20220405120710    3N0N  00000160000000566500000799632DG    BFSAIBF 005500360039
BI00B32DG    @RP2061        202205127283-1556                CONNECTOR ASS'Y          CCN000024000000024000FN00000000020220601000024000NNM   20220405120710    3N0N  00000240000000755000001014032DG    BFSAIBF 005500360039
BI00B32DG    @RP2062        202205197283-1556                CONNECTOR ASS'Y          CCN000012000000012000FN00000000020220601000012000NNM   20220405120710    3N0N  00000240000000755000001014032DG    BFSAIBF 005500360039
BI00B32DG    @RP2063        202205267283-1556                CONNECTOR ASS'Y          CCN000012000000012000FN00000000020220601000012000NNM   20220405120710    3N0N  00000240000000755000001014032DG    BFSAIBF 005500360039
BI00B32DG    @RP2064        202206027283-1556                CONNECTOR ASS'Y          CCN000009600000009600FN00000000020220601000009600NNM   20220405120710    3N0N  00000240000000755000001014032DG    BFSAIBF 005500360039
BI00B32DG    @RP2061        202205127282-1025                HOUSING SUB ASSEMBLY     CCN000004800000004800FN00000000020220601000004800NNM   20220405120710    3N0N  00000240000001143800001390032DG    BFSAIBF 005500360039
BI00B32DG    @RP2062        202205197282-1025                HOUSING SUB ASSEMBLY     CCN000002400000002400FN00000000020220601000002400NNM   20220405120710    3N0N  00000240000001143800001390032DG    BFSAIBF 005500360039
BI00B32DG    @RP2063        202205267282-1025                HOUSING SUB ASSEMBLY     CCN000002400000002400FN00000000020220601000002400NNM   20220405120710    3N0N  00000240000001143800001390032DG    BFSAIBF 005500360039
BI00B32DG    @RP2064        202206027282-1025                HOUSING SUB ASSEMBLY     CCN000002400000002400FN00000000020220601000002400NNM   20220405120710    3N0N  00000240000001143800001390032DG    BFSAIBF 005500360039
BI00B32DG    @RP2061        202205127183-8049-30             CONNECTOR HOUSING        CCN000004000000004000FN00000000020220601000004000NNM   20220405120710    3F0F  00000400000000588800000714432DG    BFSAIBF 005400370024
BI00B32DJ    GHT2206B 1     202205057116-5751-02             TERMINAL                 CCN000060000000060000FN00000000020220601000060000NNM   20220405120710    4P0P  00001200000000379200000664432DJ    RBYIPLRB006400630015
BI00B32DJ    GHT2206B 2     202205197116-5751-02             TERMINAL                 CCN000036000000036000FN00000000020220601000036000NNM   20220405120710    4P0P  00001200000000379200000664432DJ    RBYIPLRB006400630015
BI00B32DJ    GHT2206B 1     202205057116-1257-02             TERMINAL                 CCN000024000000024000FN00000000020220601000024000NNM   20220405120710    1P0P  00002400000000518400000847132DJ    RBYIPLRB006400630017
BI00B32DJ    GHT2206B 1     202205057158-3006-90             RUBBER STOPPER           CCN000040000000040000FN00000000020220601000040000NNM   20220405120710    1C0C  00002000000000330600000386032DJ    RBYIPLRB002700430014
BI00B32DJ    GHT2206B 2     202205197158-3006-90             RUBBER STOPPER           CCN000480000000480000FN00000000020220601000480000NNM   20220405120710    1C0C  00002000000000330600000386032DJ    RBYIPLRB002700430014
BI00B32DJ    GHT2206B 1     202205057114-4021                TERMINAL                 CCN000030000000030000FN00000000020220601000030000NNM   20220405120710    4P0P  00001500000000670500000964132DJ    RBYIPLRB006400630015
BI00B32DJ    GHT2206B 2     202205197114-4021                TERMINAL                 CCN000090000000090000FN00000000020220601000090000NNM   20220405120710    4P0P  00001500000000670500000964132DJ    RBYIPLRB006400630015
BI00B32DJ    GHT2206B 1     202205057196-0805-02             TERMINAL FEMALE          CCN000090000000090000FN00000000020220601000090000NNM   20220405120710    4P0P  00002250000000558000000843232DJ    RBYIPLRB006400630015
BI00B32DJ    GHT2206B 2     202205197196-0805-02             TERMINAL FEMALE          CCN000045000000045000FN00000000020220601000045000NNM   20220405120710    4P0P  00002250000000558000000843232DJ    RBYIPLRB006400630015
BI00B32DJ    GHT2206B 1     202205057116-2892-02             TERMINAL                 CCN000012000000012000FN00000000020220601000012000NNM   20220405120710    4P0P  00001200000000818400000981832DJ    RBYIPLRB005100280028
BI00B32DJ    GHT2206B 2     202205197116-2892-02             TERMINAL                 CCN000156000000156000FN00000000020220601000156000NNM   20220405120710    4P0P  00001200000000818400000981832DJ    RBYIPLRB005100280028
BI00B32DJ    GHT2206B 2     202205197126-8855-02             TERMINAL                 CCN000078000000078000FN00000000020220601000078000NNM   20220405120710    4P0P  00000600000000510600000795832DJ    RBYIPLRB006400630015
BI00B32DJ    GHT2206B 2     202205197116-1686-02             TERMINAL                 CCN000042000000042000FN00000000020220601000042000NNM   20220405120710    4P0P  00002100000000869400001021632DJ    RBYIPLRB005100280028
BI00B32DJ    GHT2206B 2     202205197114-4032                TERMINAL                 CCN000067500000067500FN00000000020220601000067500NNM   20220405120710    4P0P  00000750000000735000001063632DJ    RBYIPLRB006400630017
BI00B32DJ    GHT2206B 1     202205057116-3153-02             TERMINAL FEMALE          CCN000621000000621000FN00000000020220601000621000NNM   20220405120710    4P0P  00002700000000459000000744232DJ    RBYIPLRB006400630015
BI00B32DJ    GHT2206B 2     202205197116-3153-02             TERMINAL FEMALE          CCN000567000000567000FN00000000020220601000567000NNM   20220405120710    4P0P  00002700000000459000000744232DJ    RBYIPLRB006400630015
BI00B32DJ    GHT2206B 2     202205197126-8854-02             TERMINAL                 CCN000150000000150000FN00000000020220601000150000NNM   20220405120710    4P0P  00000750000000604500000889732DJ    RBYIPLRB006400630015
BI00B32DJ    GHT2206B 1     202205057114-4624-02             TERMINAL                 CCN000024000000024000FN00000000020220601000024000NNM   20220405120710    4P0P  00002400000000895200001188832DJ    RBYIPLRB006400630015
BI00B32DJ    GHT2206B 2     202205197114-4624-02             TERMINAL                 CCN000120000000120000FN00000000020220601000120000NNM   20220405120710    4P0P  00002400000000895200001188832DJ    RBYIPLRB006400630015
BI00B32DJ    GHT2206B 2     202205197158-3009-60             RUBBER STOPPER           CCN000380000000380000FN00000000020220601000380000NNM   20220405120710    1C0C  00002000000000338000000386232DJ    RBYIPLRB002700430014
BI00B32DJ    GHT2206B 1     202205057116-4026                TERMINAL                 CCN000016000000016000FN00000000020220601000016000NNM   20220405120710    4P0P  00001600000000664000000994332DJ    RBYIPLRB006400630017
BI00B32DJ    GHT2206B 2     202205197116-4026                TERMINAL                 CCN000288000000288000FN00000000020220601000288000NNM   20220405120710    4P0P  00001600000000664000000994332DJ    RBYIPLRB006400630017
BI00B32DJ    GHT2206B 1     202205057116-4020                TERMINAL                 CCN000040500000040500FN00000000020220601000040500NNM   20220405120710    4P0P  00001350000000513000000798232DJ    RBYIPLRB006400630015
BI00B32DJ    GHT2206B 2     202205197116-4020                TERMINAL                 CCN000189000000189000FN00000000020220601000189000NNM   20220405120710    4P0P  00001350000000513000000798232DJ    RBYIPLRB006400630015
BI00B32DJ    GHT2206B 2     202205197116-1685-02             TERMINAL                 CCN000648000000648000FN00000000020220601000648000NNM   20220405120710    4P0P  00002400000000897600001065232DJ    RBYIPLRB005100280028
BI00B32DJ    GHT2206B 2     202205197116-6041                TERMINAL                 CCN000040500000040500FN00000000020220601000040500NNM   20220405120710    4P0P  00000450000000716000001009632DJ    RBYIPLRB006400630015
BI00B32DJ    GHT2206B 2     202205197116-1180                TERMINAL                 CCN000039000000039000FN00000000020220601000039000NNM   20220405120710    1P0P  00001950000000618200000903432DJ    RBYIPLRB006400630015
BI00B32DJ    GHT2206B 2     202205197126-8853-02             TERMINAL                 CCN000105000000105000FN00000000020220601000105000NNM   20220405120710    4P0P  00000750000000562500000847732DJ    RBYIPLRB006400630015
BI00B32DJ    GHT2206B 2     202205197116-2891-02             TERMINAL                 CCN000195000000195000FN00000000020220601000195000NNM   20220405120710    4P0P  00001500000000982500001145932DJ    RBYIPLRB005100280028
BI00B32DJ    GHT2206B 2     202205197114-4728-02             TERMINAL                 CCN000090000000090000FN00000000020220601000090000NNM   20220405120710    4P0P  00003000000000510000000804232DJ    RBYIPLRB006400630015
BI00B32DJ    GHT2206B 2     202205197116-4025                TERMINAL                 CCN000496000000496000FN00000000020220601000496000NNM   20220405120710    4P0P  00001600000000644800000975132DJ    RBYIPLRB006400630017
BI00B32DJ    GHT2206B 2     202205197116-2893-02             TERMINAL                 CCN000360000000360000FN00000000020220601000360000NNM   20220405120710    4P0P  00001200000000895200001058632DJ    RBYIPLRB005100280028
BI00B32DJ    GHT2206B 2     202205197287-9234                JOINT CONNECTOR          CCN000048000000048000FN00000000020220601000048000NNM   20220405120710    4N0N  00000960000000893800001184832DJ    RBYIPLRB005500360039
BI00B32DJ    GHT2206B 2     202205197017-1180-02             TERMINAL                 CCN000216000000216000FN00000000020220601000216000NNM   20220405120710    4P0P  00007200000001065600001229032DJ    RBYIPLRB005100280028
BI00B32DJ    GHT2206B 2     202205197116-4037                TERMINAL                 CCN000090000000090000FN00000000020220601000090000NNM   20220405120710    4P0P  00000600000000600000000894232DJ    RBYIPLRB006400630015
BI00B32DJ    GHT2206B 1     202205057116-3154-02             TERMINAL FEMALE          CCN000189000000189000FN00000000020220601000189000NNM   20220405120710    4P0P  00002700000000469800000755032DJ    RBYIPLRB006400630015
BI00B32DJ    GHT2206B 2     202205197116-3154-02             TERMINAL FEMALE          CCN000216000000216000FN00000000020220601000216000NNM   20220405120710    4P0P  00002700000000469800000755032DJ    RBYIPLRB006400630015
BI00B32DJ    GHT2206B 1     202205057116-6042                TERMINAL                 CCN000018000000018000FN00000000020220601000018000NNM   20220405120710    4P0P  00000300000000523800000856132DJ    RBYIPLRB006400630015
BI00B32DJ    GHT2206B 2     202205197116-6042                TERMINAL                 CCN000030000000030000FN00000000020220601000030000NNM   20220405120710    4P0P  00000300000000523800000856132DJ    RBYIPLRB006400630015
BI00B32DJ    GHT2206B 1     202205057114-6041                TERMINAL                 CCN000003600000003600FN00000000020220601000003600NNM   20220405120710    4P0P  00000360000000580700000824232DJ    RBYIPLRB006400630015
BI00B32DJ    GHT2206B 2     202205197114-6041                TERMINAL                 CCN000010800000010800FN00000000020220601000010800NNM   20220405120710    4P0P  00000360000000580700000824232DJ    RBYIPLRB006400630015
BI00B32DJ    GHT2206B 1     202205057114-4729-02             TERMINAL                 CCN000030000000030000FN00000000020220601000030000NNM   20220405120710    4P0P  00003000000000516000000810232DJ    RBYIPLRB006400630015
BI00B32DJ    GHT2206B 2     202205197114-4729-02             TERMINAL                 CCN000210000000210000FN00000000020220601000210000NNM   20220405120710    4P0P  00003000000000516000000810232DJ    RBYIPLRB006400630015
BI00B32DJ    GHT2206B 2     202205197116-5750-02             TERMINAL                 CCN000105000000105000FN00000000020220601000105000NNM   20220405120710    4P0P  00001500000000457500000742732DJ    RBYIPLRB006400630015
BI00B32DJ    GHT2206B 2     202205197172-5540-80             SEALED WIRE SEAL         CCN000040000000040000FN00000000020220601000040000NNM   20220405120710    1C0C  00002000000000186000000234432DJ    RBYIPLRB004300270014
BI00B32DJ    GHT2206B 2     202205197283-1144                CONNECTOR                CCN000004800000004800FN00000000020220601000004800NNM   20220405120710    4N0N  00000240000000602200000866132DJ    RBYIPLRB005500360039
BI00B32DJ    GHT2206B 2     202205197114-5748-02             TERMINAL                 CCN000036000000036000FN00000000020220601000036000NNM   20220405120710    4P0P  00001200000000444000000737632DJ    RBYIPLRB006400630015
BI00B32DJ    GHT2206B 2     202205197114-5747-02             TERMINAL                 CCN000162000000162000FN00000000020220601000162000NNM   20220405120710    4P0P  00001800000000626400000920032DJ    RBYIPLRB006400630015
BI00B32DJ    GHT2206B 2     202205197B96-0805-02             TERMINAL FEMALE          CCN000022500000022500FN00000000020220601000022500NNM   20220405120710    4P0P  00002250000000558000000843232DJ    RBYIPLRB006400630015
BI00B32DJ    GHT2206B 1     202205057114-4020                TERMINAL                 CCN000021000000021000FN00000000020220601000021000NNM   20220405120710    4P0P  00002100000000875700001169332DJ    RBYIPLRB006400630015
BI00B32DJ    GHT2206B 2     202205197114-4020                TERMINAL                 CCN000105000000105000FN00000000020220601000105000NNM   20220405120710    4P0P  00002100000000875700001169332DJ    RBYIPLRB006400630015
BI00B32DJ    GHT2206B 2     202205197017-1181-02             TERMINAL                 CCN000063000000063000FN00000000020220601000063000NNM   20220405120710    4P0P  00006300000001089900001266832DJ    RBYIPLRB005100280028
BI00B32DJ    GHT2206B 1     202205057289-3342-30             HOUSING FEMALE ASS'Y     CCN000004800000004800FN00000000020220601000004800NNM   20220405120710    1N0N  00000240000000686400000901432DJ    RBYIPLRB005500360039
BI00B32DJ    GHT2206B 2     202205197289-3342-30             HOUSING FEMALE ASS'Y     CCN000004800000004800FN00000000020220601000004800NNM   20220405120710    1N0N  00000240000000686400000901432DJ    RBYIPLRB005500360039
BI00B32DJ    #GHT2206B 1    202205057183-1616                CONNECTOR HOUSING        CCN000004800000004800FN00000000020220601000004800NNM   20220405120710    2F0F  00000240000000557500000823332DJ    RBYIPLRB005500360039
BI00B32DJ    #GHT2206B 2    202205197183-1616                CONNECTOR HOUSING        CCN000004800000004800FN00000000020220601000004800NNM   20220405120710    2F0F  00000240000000557500000823332DJ    RBYIPLRB005500360039
BI00B32DJ    #GHT2206B 2    202205197189-3037                HOUSING FEMALE           CCN000019200000019200FN00000000020220601000019200NNM   20220405120710    2F0F  00000480000000806400001066432DJ    RBYIPLRB005500360039
BI00B32DJ    #GHT2206C 1    202205057157-3821                RUBBER STOPPER           CCN000020000000020000FN00000000020220601000020000NNM   20220405120710    2C0C  00002000000000176000000238032DJ    RBYIPLRB002700430014
BI00B32DJ    #GHT2206C 2    202205197114-4022                TERMINAL                 CCN000015000000015000FN00000000020220601000015000NNM   20220405120710    2F0P  00001500000000708000001120632DJ    RBYIPLRB006400630015
BI00B32DJ    #GHT2206C 2    202205197183-7725-40             HOUSING                  CCN000018000000018000FN00000000020220601000018000NNM   20220405120710    2F0F  00000600000000840000001040032DJ    RBYIPLRB005600390040
BI00B32DJ    #GHT2206C 1    202205057158-3017                RUBBER STOPPER           CCN000010000000010000FN00000000020220601000010000NNM   20220405120710    2C0C  00001000000000375500000435032DJ    RBYIPLRB002700430014
BI00B32DJ    #GHT2206C 2    202205197158-3017                RUBBER STOPPER           CCN000030000000030000FN00000000020220601000030000NNM   20220405120710    2C0C  00001000000000375500000435032DJ    RBYIPLRB002700430014
BI00B32DJ    #GHT2206C 1    202205057183-8254-40             HOUSING                  CCN000002400000002400FN00000000020220601000002400NNM   20220405120710    2F0F  00000240000000776000001076332DJ    RBYIPLRB005500360039
BI00B32D1    DFTC2222B      202205057327-6983-30             MAIN FUSE                CCN000000600000000600FN00000000020220601000000600NNE   20220405120710    4N0N  00000060000000748800000951532D1    TOYOT-K 005400370024
BI00B32D1    DFTC2222B      202205057327-6985-30             MULTI FUSE               CCN000000576000000576FN00000000020220601000000576NNE   20220405120710    4N0N  00000028800000886100001052032D1    TOYOT-K 005400370024
BI00B32D1    DFTC2222B      202205057327-6990-30             MULTI FUSE               CCN000000560000000560FN00000000020220601000000560NNE   20220405120710    4NON  00000056000000724000000907032D1    TOYOT-K 005400370024
BI00B32D1    DFTC2222B      202205057327-6998-30             MULTI FUSE               CCN000000864000000864FN00000000020220601000000864NNE   20220405120710    4N0N  00000028800000886000001051932D1    TOYOT-K 005400370024
BI00A32D1    DFTC2222A      202205037195-1933-02             TERMINAL MALE            CCN000024000000024000FN00000000020220401000024000NNED0720220405120710    4P0P  00002400000000670800000000032D1    TOYOT-K 006400630015
BI00A32D1    DFTC2222A      202205037196-1934-02             TERMINAL FEMALE          CCN000019500000019500FN00000000020220401000019500NNED0720220405120710    4P0P  00001950000000561600000846832D1    TOYOT-K 006400630015
BI00A32D1    DFTC2222A      202205037196-1935-02             TERMINAL FEMALE          CCN000018000000018000FN00000000020220401000018000NNED0720220405120710    4P0P  00001800000000534600000819832D1    TOYOT-K 006400630015
BI00A32D1    DFTC2222A      202205037196-1937-02             TERMINAL FEMALE          CCN000013500000013500FN00000000020220401000013500NNED0720220405120710    4P0P  00001350000000446900000732132D1    TOYOT-K 006400630015
BI00A32D1    DFTC2222A      202205037196-1939-02             TERMINAL FEMALE          CCN000015000000015000FN00000000020220401000015000NNED0720220405120710    4P0P  00001500000000574500000862732D1    TOYOT-K 006400630015
BI00A32D1    DFTC2222A      202205037196-1940-02             TERMINAL FEMALE          CCN000013500000013500FN00000000020220401000013500NNED0720220405120710    4P0P  00001350000000529200000817432D1    TOYOT-K 006400630015
BI00B32D2    #DGTC2221      202204087172-5630-40             RUBBER STOPPER           CCN000480000000480000FN00000000020220501000480000NNM00020220405161429    2H0H  00002000000000044000000095132D2    TGYOT-G 004300270014
BI00A32D9    I21605         202204077289-3342-30             HOUSING FEMALE ASS'Y     PCN000028800000028800FN00000000020220401000028800NNMM0020220405120710    1N0N  00000240000000686400000901432D9    UEHESTO 005500360039
BI00A32D9    I21605         202204077289-3342-90             HOUSING FEMALE ASS'Y     PCN000009600000009600FN00000000020220401000009600NNMM0020220405120710    1N0N  00000240000000686400000901432D9    UEHESTO 005500360039
BI00A32D9    I21705         202204077289-3342-90             HOUSING FEMALE ASS'Y     PCN000014400000014400FN00000000020220401000014400NNMM0020220405120710    1N0N  00000240000000686400000901432D9    UEHESTO 005500360039
BI00B32D9    I22306         202206097289-3342                HOUSING FEMALE ASS'Y     CCN000014400000014400FN00000000020220601000014400NNMD0420220405120710    1N0N  00000240000000686400000901432D9    UEHESTO 005500360039
BI00B32D9    I22406         202206167289-3342                HOUSING FEMALE ASS'Y     CCN000014400000014400FN00000000020220601000014400NNMD0420220405120710    1N0N  00000240000000686400000901432D9    UEHESTO 005500360039
BI00B32D9    I22507         202206237289-3342                HOUSING FEMALE ASS'Y     CCN000014400000014400FN00000000020220601000014400NNMD0420220405120710    1N0N  00000240000000686400000901432D9    UEHESTO 005500360039
BI00B32D9    I22607         202206307289-3342                HOUSING FEMALE ASS'Y     CCN000014400000014400FN00000000020220601000014400NNMD0420220405120710    1N0N  00000240000000686400000901432D9    UEHESTO 005500360039
BI00B32D9    I22306         202207077289-3342-30             HOUSING FEMALE ASS'Y     CCN000043200000043200FN00000000020220601000043200NNMD0420220405120710    1N0N  00000240000000686400000901432D9    UEHESTO 005500360039
BI00B32D9    I22406         202207147289-3342-30             HOUSING FEMALE ASS'Y     CCN000036000000036000FN00000000020220601000036000NNMD0420220405120710    1N0N  00000240000000686400000901432D9    UEHESTO 005500360039
BI00B32D9    I22507         202207217289-3342-30             HOUSING FEMALE ASS'Y     CCN000043200000043200FN00000000020220601000043200NNMD0420220405120710    1N0N  00000240000000686400000901432D9    UEHESTO 005500360039
BI00B32D9    I22607         202207277289-3342-30             HOUSING FEMALE ASS'Y     CCN000036000000036000FN00000000020220601000036000NNMD0420220405120710    1N0N  00000240000000686400000901432D9    UEHESTO 005500360039
BI00B32D9    I22306         202206237289-3342-90             HOUSING FEMALE ASS'Y     CCN000019200000019200FN00000000020220601000019200NNMD0420220405120710    1N0N  00000240000000686400000901432D9    UEHESTO 005500360039
BI00B32D9    I22406         202206307289-3342-90             HOUSING FEMALE ASS'Y     CCN000019200000019200FN00000000020220601000019200NNMD0420220405120710    1N0N  00000240000000686400000901432D9    UEHESTO 005500360039
BI00B32D9    I22507         202207077289-3342-90             HOUSING FEMALE ASS'Y     CCN000019200000019200FN00000000020220601000019200NNMD0420220405120710    1N0N  00000240000000686400000901432D9    UEHESTO 005500360039
BI00B32D9    I22607         202207147289-3342-90             HOUSING FEMALE ASS'Y     CCN000019200000019200FN00000000020220601000019200NNMD0420220405120710    1N0N  00000240000000686400000901432D9    UEHESTO 005500360039
BI00B32EJ    T220404P01     202204287116-4022                TERMINAL                 CCN000027000000027000FN00000000020220401000027000NNE   20220405120710EJ  4P0P  00001350000000618300000903532EJ    EJYKBO  006400630015
BI00B32EJ    T220404P01     202204287158-3006-90             RUBBER STOPPER           CCN000060000000060000FN00000000020220401000060000NNE   20220405120710EJ  1C0C  00002000000000330600000386032EJ    EJYKBO  002700430014
BI00B32EJ    T220404P01     202204287158-3070-80             RUBBER STOPPER           CCN000120000000120000FN00000000020220401000120000NNE   20220405120710EJ  1C0C  00004000000000276000000333332EJ    EJYKBO  002700430014
BI00B32EJ    #T220404P02    202205127158-3120-90             CONNECTOR WIRE SEAL      CCN000260000000260000FN00000000020220501000260000NNE   20220405120710EJ  2C0C  00002000000000136000000194032EJ    EJYKBO  002700430014
BI00B32EJ    T220404P03     202205127116-1231                TERMINAL                 CCN000144000000144000FN00000000020220501000144000NNE   20220405120710EJ  4P0P  00001200000000633600000921832EJ    EJYKBO  006400630015
BI00B32EJ    #T220404P03    202205127157-3646                RUBBER STOPPER           CCN000040000000040000FN00000000020220501000040000NNE   20220405120710EJ  2H0H  00002000000000184000000255232EJ    EJYKBO  002700430014
BI00B32G2    SA22051 MW     202204207289-3342-30             HOUSING FEMALE ASS'Y     CCN000072000000072000FN00000000020220501000072000NNMD0420220405142039    1N0N  00000240000000686400000901432G2    AISUAI  005500360039
BI00B32G2    SA2205A MW     202204277114-4486-02             TERMINAL                 CCN000024000000024000FN00000000020220501000024000NNE   20220405134555    4P0P  00002400000000662400000956032G2    AISUAI  006400630015
BI00B32G2    SA2205A MW     202204277116-1257-02             TERMINAL                 CCN000024000000024000FN00000000020220501000024000NNE   20220405134555    1P0P  00002400000000518400000847132G2    AISUAI  006400630017
BI00B32G2    SA2205A MW     202204277116-2951-02             TERMINAL                 CCN000005400000005400FN00000000020220501000005400NNE   20220405134555    4P0P  00000540000000817600001111832G2    AISUAI  006400630015
BI00B32G2    SA2205A MW     202204277154-7136-30             LOWER COVER              CCN000000060000000060FN00000000020220501000000060NNE   20220405134555    4F0F  00000006000000199000000408032G2    AISUAI  005600390040
BI00B32G2    SA2205A MW     202204277254-5840-30             ENG R/B SUB ASS'Y        CCN000000048000000048FN00000000020220501000000048NNE   20220405134555    4J0J  00000002400000732000000952032G2    AISUAI  005600390040
BI00B32G2    SA2205A MW     202204277283-1156-30             CONNECTOR                CCN000004800000004800FN00000000020220501000004800NNE   20220405134555    4N0N  00000080000000877600001078032G2    AISUAI  005600390040
BI00B32G2    #SA2205A MW    202204277157-7897-60             SEAL RUBBER              CCN000010000000010000FN00000000020220501000010000NNE   20220405134548    2C0C  00001000000000132000000214732G2    AISUAI  002700430014
BI00B32G2    SA22061 MW     202205117B58-3070-80             RUBBER STOPPER           CCN000040000000040000FN00000000020220601000040000NNM   20220405134800    1C0C  00004000000000276000000333032G2    AISUAI  004300270014
BI00B32G2    SA22062 MW     202205187B58-3070-80             RUBBER STOPPER           CCN000040000000040000FN00000000020220601000040000NNM   20220405134800    1C0C  00004000000000276000000333032G2    AISUAI  004300270014
BI00B32G2    SA22061 MW     202205117017-1180-02             TERMINAL                 CCN000072000000072000FN00000000020220601000072000NNM   20220405134800    4P0P  00007200000001065600001229032G2    AISUAI  005100280028
BI00B32G2    SA22062 MW     202205187017-1180-02             TERMINAL                 CCN000072000000072000FN00000000020220601000072000NNM   20220405134800    4P0P  00007200000001065600001229032G2    AISUAI  005100280028
BI00B32G2    SA22063 MW     202205257017-1180-02             TERMINAL                 CCN000072000000072000FN00000000020220601000072000NNM   20220405134800    4P0P  00007200000001065600001229032G2    AISUAI  005100280028
BI00B32G2    SA22064 MW     202206017017-1180-02             TERMINAL                 CCN000072000000072000FN00000000020220601000072000NNM   20220405134800    4P0P  00007200000001065600001229032G2    AISUAI  005100280028
BI00B32G2    SA22061 MW     202205117017-1182-02             TERMINAL                 CCN000045000000045000FN00000000020220601000045000NNM   20220405134800    4P0P  00004500000001165500001318632G2    AISUAI  005100280028
BI00B32G2    SA22062 MW     202205187017-1182-02             TERMINAL                 CCN000045000000045000FN00000000020220601000045000NNM   20220405134800    4P0P  00004500000001165500001318632G2    AISUAI  005100280028
BI00B32G2    SA22061 MW     202205117017-1183-02             TERMINAL                 CCN000027000000027000FN00000000020220601000027000NNM   20220405134800    4P0P  00002700000001139400001307432G2    AISUAI  005100280028
BI00B32G2    SA22062 MW     202205187017-1183-02             TERMINAL                 CCN000027000000027000FN00000000020220601000027000NNM   20220405134800    4P0P  00002700000001139400001307432G2    AISUAI  005100280028
BI00B32G2    SA22061 MW     202205117114-1470                TERMINAL                 CCN000016500000016500FN00000000020220601000016500NNM   20220405134800    4P0P  00001650000000544500000838732G2    AISUAI  006400630015
BI00B32G2    SA22062 MW     202205187114-1470                TERMINAL                 CCN000016500000016500FN00000000020220601000016500NNM   20220405134800    4P0P  00001650000000544500000838732G2    AISUAI  006400630015
BI00B32G2    SA22061 MW     202205117114-4020                TERMINAL                 CCN000294000000294000FN00000000020220601000294000NNM   20220405134800    4P0P  00002100000000875700001169332G2    AISUAI  006400630015
BI00B32G2    SA22062 MW     202205187114-4020                TERMINAL                 CCN000210000000210000FN00000000020220601000210000NNM   20220405134800    4P0P  00002100000000875700001169332G2    AISUAI  006400630015
BI00B32G2    SA22063 MW     202205257114-4020                TERMINAL                 CCN000168000000168000FN00000000020220601000168000NNM   20220405134800    4P0P  00002100000000875700001169332G2    AISUAI  006400630015
BI00B32G2    SA22064 MW     202206017114-4020                TERMINAL                 CCN000126000000126000FN00000000020220601000126000NNM   20220405134800    4P0P  00002100000000875700001169332G2    AISUAI  006400630015
BI00B32G2    SA22061 MW     202205117114-4021                TERMINAL                 CCN000180000000180000FN00000000020220601000180000NNM   20220405134800    4P0P  00001500000000670500000964132G2    AISUAI  006400630015
BI00B32G2    SA22062 MW     202205187114-4021                TERMINAL                 CCN000150000000150000FN00000000020220601000150000NNM   20220405134800    4P0P  00001500000000670500000964132G2    AISUAI  006400630015
BI00B32G2    SA22063 MW     202205257114-4021                TERMINAL                 CCN000120000000120000FN00000000020220601000120000NNM   20220405134800    4P0P  00001500000000670500000964132G2    AISUAI  006400630015
BI00B32G2    SA22064 MW     202206017114-4021                TERMINAL                 CCN000090000000090000FN00000000020220601000090000NNM   20220405134800    4P0P  00001500000000670500000964132G2    AISUAI  006400630015
BI00B32G2    SA22061 MW     202205117114-4030                TERMINAL                 CCN000010500000010500FN00000000020220601000010500NNM   20220405134800    4P0P  00001050000000926100001254732G2    AISUAI  006400630017
BI00B32G2    SA22061 MW     202205117114-4031                TERMINAL                 CCN000010500000010500FN00000000020220601000010500NNM   20220405134800    4P0P  00001050000000966000001294632G2    AISUAI  006400630017
BI00B32G2    SA22061 MW     202205117114-4032                TERMINAL                 CCN000015000000015000FN00000000020220601000015000NNM   20220405134800    4P0P  00000750000000735000001063632G2    AISUAI  006400630017
BI00B32G2    SA22062 MW     202205187114-4032                TERMINAL                 CCN000015000000015000FN00000000020220601000015000NNM   20220405134800    4P0P  00000750000000735000001063632G2    AISUAI  006400630017
BI00B32G2    SA22063 MW     202205257114-4032                TERMINAL                 CCN000007500000007500FN00000000020220601000007500NNM   20220405134800    4P0P  00000750000000735000001063632G2    AISUAI  006400630017
BI00B32G2    SA22064 MW     202206017114-4032                TERMINAL                 CCN000007500000007500FN00000000020220601000007500NNM   20220405134800    4P0P  00000750000000735000001063632G2    AISUAI  006400630017
BI00B32G2    SA22061 MW     202205117114-4231-02             TERMINAL                 CCN000072000000072000FN00000000020220601000072000NNM   20220405134800    4P0P  00001800000000554400000848032G2    AISUAI  006400630015
BI00B32G2    SA22062 MW     202205187114-4231-02             TERMINAL                 CCN000054000000054000FN00000000020220601000054000NNM   20220405134800    4P0P  00001800000000554400000848032G2    AISUAI  006400630015
BI00B32G2    SA22063 MW     202205257114-4231-02             TERMINAL                 CCN000036000000036000FN00000000020220601000036000NNM   20220405134800    4P0P  00001800000000554400000848032G2    AISUAI  006400630015
BI00B32G2    SA22064 MW     202206017114-4231-02             TERMINAL                 CCN000036000000036000FN00000000020220601000036000NNM   20220405134800    4P0P  00001800000000554400000848032G2    AISUAI  006400630015
BI00B32G2    SA22061 MW     202205117114-4486-02             TERMINAL                 CCN000072000000072000FN00000000020220601000072000NNM   20220405134800    4P0P  00002400000000662400000956032G2    AISUAI  006400630015
BI00B32G2    SA22062 MW     202205187114-4486-02             TERMINAL                 CCN000072000000072000FN00000000020220601000072000NNM   20220405134800    4P0P  00002400000000662400000956032G2    AISUAI  006400630015
BI00B32G2    SA22063 MW     202205257114-4486-02             TERMINAL                 CCN000048000000048000FN00000000020220601000048000NNM   20220405134800    4P0P  00002400000000662400000956032G2    AISUAI  006400630015
BI00B32G2    SA22064 MW     202206017114-4486-02             TERMINAL                 CCN000024000000024000FN00000000020220601000024000NNM   20220405134800    4P0P  00002400000000662400000956032G2    AISUAI  006400630015
BI00B32G2    SA22061 MW     202205117114-4624-02             TERMINAL                 CCN000096000000096000FN00000000020220601000096000NNM   20220405134800    4P0P  00002400000000895200001188832G2    AISUAI  006400630015
BI00B32G2    SA22062 MW     202205187114-4624-02             TERMINAL                 CCN000072000000072000FN00000000020220601000072000NNM   20220405134800    4P0P  00002400000000895200001188832G2    AISUAI  006400630015
BI00B32G2    SA22063 MW     202205257114-4624-02             TERMINAL                 CCN000048000000048000FN00000000020220601000048000NNM   20220405134800    4P0P  00002400000000895200001188832G2    AISUAI  006400630015
BI00B32G2    SA22064 MW     202206017114-4624-02             TERMINAL                 CCN000048000000048000FN00000000020220601000048000NNM   20220405134800    4P0P  00002400000000895200001188832G2    AISUAI  006400630015
BI00B32G2    SA22061 MW     202205117114-4728-02             TERMINAL                 CCN001260000001260000FN00000000020220601001260000NNM   20220405134800    4P0P  00003000000000510000000804232G2    AISUAI  006400630015
BI00B32G2    SA22062 MW     202205187114-4728-02             TERMINAL                 CCN000960000000960000FN00000000020220601000960000NNM   20220405134800    4P0P  00003000000000510000000804232G2    AISUAI  006400630015
BI00B32G2    SA22063 MW     202205257114-4728-02             TERMINAL                 CCN000660000000660000FN00000000020220601000660000NNM   20220405134800    4P0P  00003000000000510000000804232G2    AISUAI  006400630015
BI00B32G2    SA22064 MW     202206017114-4728-02             TERMINAL                 CCN000450000000450000FN00000000020220601000450000NNM   20220405134800    4P0P  00003000000000510000000804232G2    AISUAI  006400630015
BI00B32G2    SA22061 MW     202205117114-4729-02             TERMINAL                 CCN000510000000510000FN00000000020220601000510000NNM   20220405134800    4P0P  00003000000000516000000810232G2    AISUAI  006400630015
BI00B32G2    SA22062 MW     202205187114-4729-02             TERMINAL                 CCN000390000000390000FN00000000020220601000390000NNM   20220405134800    4P0P  00003000000000516000000810232G2    AISUAI  006400630015
BI00B32G2    SA22063 MW     202205257114-4729-02             TERMINAL                 CCN000300000000300000FN00000000020220601000300000NNM   20220405134800    4P0P  00003000000000516000000810232G2    AISUAI  006400630015
BI00B32G2    SA22064 MW     202206017114-4729-02             TERMINAL                 CCN000240000000240000FN00000000020220601000240000NNM   20220405134800    4P0P  00003000000000516000000810232G2    AISUAI  006400630015
BI00B32G2    SA22061 MW     202205117114-5096-02             TERMINAL                 CCN000120000000120000FN00000000020220601000120000NNM   20220405134800    4P0P  00003000000000498000000792232G2    AISUAI  006400630015
BI00B32G2    SA22062 MW     202205187114-5096-02             TERMINAL                 CCN000090000000090000FN00000000020220601000090000NNM   20220405134800    4P0P  00003000000000498000000792232G2    AISUAI  006400630015
BI00B32G2    SA22063 MW     202205257114-5096-02             TERMINAL                 CCN000090000000090000FN00000000020220601000090000NNM   20220405134800    4P0P  00003000000000498000000792232G2    AISUAI  006400630015
BI00B32G2    SA22064 MW     202206017114-5096-02             TERMINAL                 CCN000060000000060000FN00000000020220601000060000NNM   20220405134800    4P0P  00003000000000498000000792232G2    AISUAI  006400630015
BI00B32G2    SA22061 MW     202205117114-5746-02             TERMINAL                 CCN000210000000210000FN00000000020220601000210000NNM   20220405134800    4P0P  00002100000000695100000988732G2    AISUAI  006400630015
BI00B32G2    SA22062 MW     202205187114-5746-02             TERMINAL                 CCN000168000000168000FN00000000020220601000168000NNM   20220405134800    4P0P  00002100000000695100000988732G2    AISUAI  006400630015
BI00B32G2    SA22063 MW     202205257114-5746-02             TERMINAL                 CCN000126000000126000FN00000000020220601000126000NNM   20220405134800    4P0P  00002100000000695100000988732G2    AISUAI  006400630015
BI00B32G2    SA22064 MW     202206017114-5746-02             TERMINAL                 CCN000084000000084000FN00000000020220601000084000NNM   20220405134800    4P0P  00002100000000695100000988732G2    AISUAI  006400630015
BI00B32G2    SA22061 MW     202205117114-5747-02             TERMINAL                 CCN000270000000270000FN00000000020220601000270000NNM   20220405134800    4P0P  00001800000000626400000920032G2    AISUAI  006400630015
BI00B32G2    SA22062 MW     202205187114-5747-02             TERMINAL                 CCN000198000000198000FN00000000020220601000198000NNM   20220405134800    4P0P  00001800000000626400000920032G2    AISUAI  006400630015
BI00B32G2    SA22063 MW     202205257114-5747-02             TERMINAL                 CCN000162000000162000FN00000000020220601000162000NNM   20220405134800    4P0P  00001800000000626400000920032G2    AISUAI  006400630015
BI00B32G2    SA22064 MW     202206017114-5747-02             TERMINAL                 CCN000126000000126000FN00000000020220601000126000NNM   20220405134800    4P0P  00001800000000626400000920032G2    AISUAI  006400630015
BI00B32G2    SA22061 MW     202205117114-5753-02             TERMINAL                 CCN000189000000189000FN00000000020220601000189000NNM   20220405134800    4P0P  00002700000000847800001141432G2    AISUAI  006400630015
BI00B32G2    SA22062 MW     202205187114-5753-02             TERMINAL                 CCN000162000000162000FN00000000020220601000162000NNM   20220405134800    4P0P  00002700000000847800001141432G2    AISUAI  006400630015
BI00B32G2    SA22063 MW     202205257114-5753-02             TERMINAL                 CCN000135000000135000FN00000000020220601000135000NNM   20220405134800    4P0P  00002700000000847800001141432G2    AISUAI  006400630015
BI00B32G2    SA22064 MW     202206017114-5753-02             TERMINAL                 CCN000081000000081000FN00000000020220601000081000NNM   20220405134800    4P0P  00002700000000847800001141432G2    AISUAI  006400630015
BI00B32G2    SA22061 MW     202205117114-6041                TERMINAL                 CCN000010800000010800FN00000000020220601000010800NNM   20220405134800    4P0P  00000360000000580700000824232G2    AISUAI  006400630015
BI00B32G2    SA22062 MW     202205187114-6041                TERMINAL                 CCN000010800000010800FN00000000020220601000010800NNM   20220405134800    4P0P  00000360000000580700000824232G2    AISUAI  006400630015
BI00B32G2    SA22063 MW     202205257114-6041                TERMINAL                 CCN000007200000007200FN00000000020220601000007200NNM   20220405134800    4P0P  00000360000000580700000824232G2    AISUAI  006400630015
BI00B32G2    SA22064 MW     202206017114-6041                TERMINAL                 CCN000003600000003600FN00000000020220601000003600NNM   20220405134800    4P0P  00000360000000580700000824232G2    AISUAI  006400630015
BI00B32G2    SA22061 MW     202205117116-1180                TERMINAL                 CCN000039000000039000FN00000000020220601000039000NNM   20220405134800    1P0P  00001950000000618200000903432G2    AISUAI  006400630015
BI00B32G2    SA22062 MW     202205187116-1180                TERMINAL                 CCN000019500000019500FN00000000020220601000019500NNM   20220405134800    1P0P  00001950000000618200000903432G2    AISUAI  006400630015
BI00B32G2    SA22063 MW     202205257116-1180                TERMINAL                 CCN000019500000019500FN00000000020220601000019500NNM   20220405134800    1P0P  00001950000000618200000903432G2    AISUAI  006400630015
BI00B32G2    SA22064 MW     202206017116-1180                TERMINAL                 CCN000019500000019500FN00000000020220601000019500NNM   20220405134800    1P0P  00001950000000618200000903432G2    AISUAI  006400630015
BI00B32G2    SA22061 MW     202205117116-1257-02             TERMINAL                 CCN000048000000048000FN00000000020220601000048000NNM   20220405134800    1P0P  00002400000000518400000847132G2    AISUAI  006400630017
BI00B32G2    SA22062 MW     202205187116-1257-02             TERMINAL                 CCN000024000000024000FN00000000020220601000024000NNM   20220405134800    1P0P  00002400000000518400000847132G2    AISUAI  006400630017
BI00B32G2    SA22063 MW     202205257116-1257-02             TERMINAL                 CCN000024000000024000FN00000000020220601000024000NNM   20220405134800    1P0P  00002400000000518400000847132G2    AISUAI  006400630017
BI00B32G2    SA22064 MW     202206017116-1257-02             TERMINAL                 CCN000024000000024000FN00000000020220601000024000NNM   20220405134800    1P0P  00002400000000518400000847132G2    AISUAI  006400630017
BI00B32G2    SA22061 MW     202205117116-1471                TERMINAL                 CCN000030000000030000FN00000000020220601000030000NNM   20220405134800    4P0P  00001500000000579000000867232G2    AISUAI  006400630015
BI00B32G2    SA22062 MW     202205187116-1471                TERMINAL                 CCN000030000000030000FN00000000020220601000030000NNM   20220405134800    4P0P  00001500000000579000000867232G2    AISUAI  006400630015
