BI00B32A7    ZZ22061LMW     2022050418000004530              AV 8 B                   CCN000014400000014400FN00000000020220601000014400NNM   20220405165151    1W    00000010000010466200000000032A7    ZZZZY   000000000000ZZ324012
BI00B32A7    ZZ22062LMW     2022051118000004530              AV 8 B                   CCN000009000000009000FN00000000020220601000009000NNM   20220405165151    1W    00000010000010466200000000032A7    ZZZZY   000000000000ZZ424013
BI00B32A7    ZZ22063LMW     2022051818000004530              AV 8 B                   CCN000005900000005900FN00000000020220601000005900NNM   20220405165151    1W    00000010000010466200000000032A7    ZZZZY   000000000000ZZ125016
BI00B32A7    ZZ22064LMW     2022052518000004530              AV 8 B                   CCN000002000000002000FN00000000020220601000002000NNM   20220405165151    1W    00000010000010466200000000032A7    ZZZZY   000000000000ZZ225017
BI00B32A7    ZZ22061LMW     2022050418000004560              AV 8 G                   CCN000013700000013700FN00000000020220601000013700NNM   20220405165151    1W    00000010000010466200000000032A7    ZZZZY   000000000000ZZ324013
BI00B32A7    ZZ22062LMW     2022051118000004560              AV 8 G                   CCN000007800000007800FN00000000020220601000007800NNM   20220405165151    1W    00000010000010466200000000032A7    ZZZZY   000000000000ZZ424014
BI00B32A7    ZZ22063LMW     2022051818000004560              AV 8 G                   CCN000006900000006900FN00000000020220601000006900NNM   20220405165151    1W    00000010000010466200000000032A7    ZZZZY   000000000000ZZ125017
BI00B32A7    ZZ22064LMW     2022052518000004560              AV 8 G                   CCN000001500000001500FN00000000020220601000001500NNM   20220405165151    1W    00000010000010466200000000032A7    ZZZZY   000000000000ZZ225018
BI00B32A7    ZZ22061LMW     2022050418000004550              AV 8 R                   CCN000031400000031400FN00000000020220601000031400NNM   20220405165151    1W    00000010000010466200000000032A7    ZZZZY   000000000000ZZ324014
BI00B32A7    ZZ22062LMW     2022051118000004550              AV 8 R                   CCN000012000000012000FN00000000020220601000012000NNM   20220405165151    1W    00000010000010466200000000032A7    ZZZZY   000000000000ZZ424015
BI00B32A7    ZZ22063LMW     2022051818000004550              AV 8 R                   CCN000015400000015400FN00000000020220601000015400NNM   20220405165151    1W    00000010000010466200000000032A7    ZZZZY   000000000000ZZ125018
BI00B32A7    ZZ22064LMW     2022052518000004550              AV 8 R                   CCN000003300000003300FN00000000020220601000003300NNM   20220405165151    1W    00000010000010466200000000032A7    ZZZZY   000000000000ZZ225019
BI00B32A7    ZZ22061LMW     2022050418000004540              AV 8 W                   CCN000021200000021200FN00000000020220601000021200NNM   20220405165151    1W    00000010000010466200000000032A7    ZZZZY   000000000000ZZ324015
BI00B32A7    ZZ22062LMW     2022051118000004540              AV 8 W                   CCN000009100000009100FN00000000020220601000009100NNM   20220405165151    1W    00000010000010466200000000032A7    ZZZZY   000000000000ZZ424016
BI00B32A7    ZZ22063LMW     2022051818000004540              AV 8 W                   CCN000010100000010100FN00000000020220601000010100NNM   20220405165151    1W    00000010000010466200000000032A7    ZZZZY   000000000000ZZ125019
BI00B32A7    ZZ22064LMW     2022052518000004540              AV 8 W                   CCN000002100000002100FN00000000020220601000002100NNM   20220405165151    1W    00000010000010466200000000032A7    ZZZZY   000000000000ZZ225020
BI00B32A7    ZZ22061LMW     2022050418000004570              AV 8 Y                   CCN000006600000006600FN00000000020220601000006600NNM   20220405165151    1W    00000010000010466200000000032A7    ZZZZY   000000000000ZZ324016
BI00B32A7    ZZ22062LMW     2022051118000004570              AV 8 Y                   CCN000003100000003100FN00000000020220601000003100NNM   20220405165151    1W    00000010000010466200000000032A7    ZZZZY   000000000000ZZ424017
BI00B32A7    ZZ22063LMW     2022051818000004570              AV 8 Y                   CCN000002500000002500FN00000000020220601000002500NNM   20220405165151    1W    00000010000010466200000000032A7    ZZZZY   000000000000ZZ125020
BI00B32A7    ZZ22064LMW     2022052518000004570              AV 8 Y                   CCN000000600000000600FN00000000020220601000000600NNM   20220405165151    1W    00000010000010466200000000032A7    ZZZZY   000000000000ZZ225021
BI00B32A7    @ZZ22063LMW    20220518181E48018ZZ              CAVSAS-S 0.5X2 GY/SB     CCN000002700000002700FN00000000020220601000002700NNM   20220405165150    1W    00000030000002561000000000032A7    ZZZZY   000000000000ZZ125015
BI00B32A7    @ZZ22064LMW    20220525181E48018ZZ              CAVSAS-S 0.5X2 GY/SB     CCN000001200000001200FN00000000020220601000001200NNM   20220405165150    1W    00000030000002561000000000032A7    ZZZZY   000000000000ZZ225015
BI00B32A7    @ZZ22062LMW    20220511181E48027ZZ              CAVSAS-S 0.5X2 GY/P      CCN000000300000000300FN00000000020220601000000300NNM   20220405165150    1W    00000030000002561000000000032A7    ZZZZY   000000000000ZZ424012
BI00B32A7    @ZZ22063LMW    20220518181E48027ZZ              CAVSAS-S 0.5X2 GY/P      CCN000003300000003300FN00000000020220601000003300NNM   20220405165150    1W    00000030000002561000000000032A7    ZZZZY   000000000000ZZ125014
BI00B32A7    @ZZ22064LMW    20220525181E48027ZZ              CAVSAS-S 0.5X2 GY/P      CCN000001200000001200FN00000000020220601000001200NNM   20220405165150    1W    00000030000002561000000000032A7    ZZZZY   000000000000ZZ225014
BI00B32A7    @ZZ22064LMW    20220525181E48040ZZ              CAVSAS-S 0.3X2 GY/V      CCN000000350000000350FN00000000020220601000000350NNM   20220405165150    1W    00000035000002008700000000032A7    ZZZZY   000000000000ZZ225016
BI00A32DJ    @GHT2205E      20220421181AD2018ZZ              CIVUSAS-S 0.22X4 B       CCN000001440000001440FN00000000020220401000001440NNE   20220405155513    1W    00000036000002028000000000032DJ    RBYIPLRB000000000000XK124001
BI00B32D1    @DFTW2222B     20220421181AD2022ZZ              CIVUSAS-S 0.35X2 B(R,G)  CCN000000900000000900FN00000000020220601000000900NNE   20220405140150    1W    00000045000001714000000000032D1    TOYOT-K 000000000000KK124001
BI00B32D1    @DFTW2222B     20220421181B32039S1              AVSSCS 0.5FX1 DGY        CCN000000400000000400FN00000000020220601000000400NNE   20220405140150    1W    00000040000002289000000000032D1    TOYOT-K 000000000000KK124002
BI00B32D1    @DFTW2222B     20220421181B32039Y5              AVSSCS 0.5FX1 DGY/W      CCN000000400000000400FN00000000020220601000000400NNE   20220405140150    1W    00000040000002289000000000032D1    TOYOT-K 000000000000KK124004
BI00B32D1    @DFTW2222B     20220421181B32039Z5              AVSSCS 0.5FX1 DGY/L      CCN000000400000000400FN00000000020220601000000400NNE   20220405140150    1W    00000040000002289000000000032D1    TOYOT-K 000000000000KK124003
BI00B32G2    @SA2205A MW    20220427181B32102Y6              AVSSCS 0.5FX2 DGY/G      CCN000000300000000300FN00000000020220501000000300NNE   20220405154139    1W    00000030000002903000000000032G2    AISUAI  000000000000IQ224001
BI00B32G2    @SA2205A MW    20220427181F21009ZZ              AVSSHCS-S 0.5FX2 B       CCN000001200000001200FN00000000020220501000001200NNE   20220405154139    1W    00000030000002531400000000032G2    AISUAI  000000000000IQ224002
BI00B32G2    SA22061 MW     20220504180D0203790              AVSSH 0.3F L             CCN000002000000002000FN00000000020220601000002000NNM   20220405154146    1W    00000200000000515000000000032G2    AISUAI  000000000000IX324025
BI00B32G2    SA22061 MW     2022050418007704040              AVSS 0.75F W             CCN000002000000002000FN00000000020220601000002000NNM   20220405154146    1W    00000100000000943000000000032G2    AISUAI  000000000000IX324026
BI00B32G2    SA22062 MW     2022051118007704040              AVSS 0.75F W             CCN000001000000001000FN00000000020220601000001000NNM   20220405154146    1W    00000100000000943000000000032G2    AISUAI  000000000000IX424023
BI00B32G2    SA22063 MW     2022051818007704040              AVSS 0.75F W             CCN000001000000001000FN00000000020220601000001000NNM   20220405154146    1W    00000100000000943000000000032G2    AISUAI  000000000000IX125020
BI00B32G2    SA22064 MW     2022052518007704040              AVSS 0.75F W             CCN000001000000001000FN00000000020220601000001000NNM   20220405154146    1W    00000100000000943000000000032G2    AISUAI  000000000000IX225020
BI00B32G2    SA22061 MW     202205041801W003960              IVSSH 0.5F G             CCN000019800000019800FN00000000020220601000019800NNM   20220405154146    1W    00000180000000625000000000032G2    AISUAI  000000000000IX324027
BI00B32G2    SA22062 MW     202205111801W003960              IVSSH 0.5F G             CCN000014400000014400FN00000000020220601000014400NNM   20220405154146    1W    00000180000000625000000000032G2    AISUAI  000000000000IX424024
BI00B32G2    SA22063 MW     202205181801W003960              IVSSH 0.5F G             CCN000010800000010800FN00000000020220601000010800NNM   20220405154146    1W    00000180000000625000000000032G2    AISUAI  000000000000IX125021
BI00B32G2    SA22064 MW     202205251801W003960              IVSSH 0.5F G             CCN000007200000007200FN00000000020220601000007200NNM   20220405154146    1W    00000180000000625000000000032G2    AISUAI  000000000000IX225021
BI00B32G2    SA22061 MW     202205041801W003990              IVSSH 0.5F L             CCN000021600000021600FN00000000020220601000021600NNM   20220405154146    1W    00000180000000625000000000032G2    AISUAI  000000000000IX324028
BI00B32G2    SA22062 MW     202205111801W003990              IVSSH 0.5F L             CCN000019800000019800FN00000000020220601000019800NNM   20220405154146    1W    00000180000000625000000000032G2    AISUAI  000000000000IX424025
BI00B32G2    SA22063 MW     202205181801W003990              IVSSH 0.5F L             CCN000016200000016200FN00000000020220601000016200NNM   20220405154146    1W    00000180000000625000000000032G2    AISUAI  000000000000IX125022
BI00B32G2    SA22064 MW     202205251801W003990              IVSSH 0.5F L             CCN000012600000012600FN00000000020220601000012600NNM   20220405154146    1W    00000180000000625000000000032G2    AISUAI  000000000000IX225022
BI00B32G2    SA22061 MW     202205041801W004030              IVSSH 0.75F B            CCN000010400000010400FN00000000020220601000010400NNM   20220405154146    1W    00000130000000882000000000032G2    AISUAI  000000000000IX324029
BI00B32G2    SA22062 MW     202205111801W004030              IVSSH 0.75F B            CCN000007800000007800FN00000000020220601000007800NNM   20220405154146    1W    00000130000000882000000000032G2    AISUAI  000000000000IX424026
BI00B32G2    SA22063 MW     202205181801W004030              IVSSH 0.75F B            CCN000007800000007800FN00000000020220601000007800NNM   20220405154146    1W    00000130000000882000000000032G2    AISUAI  000000000000IX125023
BI00B32G2    SA22064 MW     202205251801W004030              IVSSH 0.75F B            CCN000006500000006500FN00000000020220601000006500NNM   20220405154146    1W    00000130000000882000000000032G2    AISUAI  000000000000IX225023
BI00B32G2    SA22061 MW     202205041801W004041              IVSSH 0.75F GY           CCN000003900000003900FN00000000020220601000003900NNM   20220405154146    1W    00000130000000882000000000032G2    AISUAI  000000000000IX324030
BI00B32G2    SA22062 MW     202205111801W004041              IVSSH 0.75F GY           CCN000002600000002600FN00000000020220601000002600NNM   20220405154146    1W    00000130000000882000000000032G2    AISUAI  000000000000IX424027
BI00B32G2    SA22063 MW     202205181801W004041              IVSSH 0.75F GY           CCN000002600000002600FN00000000020220601000002600NNM   20220405154146    1W    00000130000000882000000000032G2    AISUAI  000000000000IX125024
BI00B32G2    SA22064 MW     202205251801W004041              IVSSH 0.75F GY           CCN000001300000001300FN00000000020220601000001300NNM   20220405154146    1W    00000130000000882000000000032G2    AISUAI  000000000000IX225024
BI00B32G2    SA22061 MW     202205041801W004043              IVSSH 0.75F W/B          CCN000009100000009100FN00000000020220601000009100NNM   20220405154146    1W    00000130000000882000000000032G2    AISUAI  000000000000IX324031
BI00B32G2    SA22062 MW     202205111801W004043              IVSSH 0.75F W/B          CCN000007800000007800FN00000000020220601000007800NNM   20220405154146    1W    00000130000000882000000000032G2    AISUAI  000000000000IX424028
BI00B32G2    SA22063 MW     202205181801W004043              IVSSH 0.75F W/B          CCN000005200000005200FN00000000020220601000005200NNM   20220405154146    1W    00000130000000882000000000032G2    AISUAI  000000000000IX125025
BI00B32G2    SA22064 MW     202205251801W004043              IVSSH 0.75F W/B          CCN000003900000003900FN00000000020220601000003900NNM   20220405154146    1W    00000130000000882000000000032G2    AISUAI  000000000000IX225025
BI00B32G2    SA22061 MW     202205041801W006930              IVSSH 0.35F B            CCN000010000000010000FN00000000020220601000010000NNM   20220405154146    1W    00000250000000452000000000032G2    AISUAI  000000000000IX324032
BI00B32G2    SA22062 MW     202205111801W006930              IVSSH 0.35F B            CCN000007500000007500FN00000000020220601000007500NNM   20220405154146    1W    00000250000000452000000000032G2    AISUAI  000000000000IX424029
BI00B32G2    SA22063 MW     202205181801W006930              IVSSH 0.35F B            CCN000007500000007500FN00000000020220601000007500NNM   20220405154146    1W    00000250000000452000000000032G2    AISUAI  000000000000IX125026
BI00B32G2    SA22064 MW     202205251801W006930              IVSSH 0.35F B            CCN000005000000005000FN00000000020220601000005000NNM   20220405154146    1W    00000250000000452000000000032G2    AISUAI  000000000000IX225026
BI00B32G2    SA22061 MW     202205041801W006941              IVSSH 0.35F GY           CCN000012500000012500FN00000000020220601000012500NNM   20220405154146    1W    00000250000000452000000000032G2    AISUAI  000000000000IX324034
BI00B32G2    SA22062 MW     202205111801W006941              IVSSH 0.35F GY           CCN000010000000010000FN00000000020220601000010000NNM   20220405154146    1W    00000250000000452000000000032G2    AISUAI  000000000000IX424031
BI00B32G2    SA22063 MW     202205181801W006941              IVSSH 0.35F GY           CCN000007500000007500FN00000000020220601000007500NNM   20220405154146    1W    00000250000000452000000000032G2    AISUAI  000000000000IX125028
BI00B32G2    SA22064 MW     202205251801W006941              IVSSH 0.35F GY           CCN000005000000005000FN00000000020220601000005000NNM   20220405154146    1W    00000250000000452000000000032G2    AISUAI  000000000000IX225028
BI00B32G2    SA22061 MW     202205041801W006943              IVSSH 0.35F W/B          CCN000002500000002500FN00000000020220601000002500NNM   20220405154146    1W    00000250000000452000000000032G2    AISUAI  000000000000IX324037
BI00B32G2    SA22062 MW     202205111801W006943              IVSSH 0.35F W/B          CCN000002500000002500FN00000000020220601000002500NNM   20220405154146    1W    00000250000000452000000000032G2    AISUAI  000000000000IX424034
BI00B32G2    SA22063 MW     202205181801W006943              IVSSH 0.35F W/B          CCN000002500000002500FN00000000020220601000002500NNM   20220405154146    1W    00000250000000452000000000032G2    AISUAI  000000000000IX125031
BI00B32G2    SA22061 MW     202205041801W006960              IVSSH 0.35F G            CCN000010000000010000FN00000000020220601000010000NNM   20220405154146    1W    00000250000000452000000000032G2    AISUAI  000000000000IX324033
BI00B32G2    SA22062 MW     202205111801W006960              IVSSH 0.35F G            CCN000007500000007500FN00000000020220601000007500NNM   20220405154146    1W    00000250000000452000000000032G2    AISUAI  000000000000IX424030
BI00B32G2    SA22063 MW     202205181801W006960              IVSSH 0.35F G            CCN000005000000005000FN00000000020220601000005000NNM   20220405154146    1W    00000250000000452000000000032G2    AISUAI  000000000000IX125027
BI00B32G2    SA22064 MW     202205251801W006960              IVSSH 0.35F G            CCN000002500000002500FN00000000020220601000002500NNM   20220405154146    1W    00000250000000452000000000032G2    AISUAI  000000000000IX225027
BI00B32G2    SA22061 MW     202205041801W006990              IVSSH 0.35F L            CCN000012500000012500FN00000000020220601000012500NNM   20220405154146    1W    00000250000000452000000000032G2    AISUAI  000000000000IX324035
BI00B32G2    SA22062 MW     202205111801W006990              IVSSH 0.35F L            CCN000010000000010000FN00000000020220601000010000NNM   20220405154146    1W    00000250000000452000000000032G2    AISUAI  000000000000IX424032
BI00B32G2    SA22063 MW     202205181801W006990              IVSSH 0.35F L            CCN000007500000007500FN00000000020220601000007500NNM   20220405154146    1W    00000250000000452000000000032G2    AISUAI  000000000000IX125029
BI00B32G2    SA22064 MW     202205251801W006990              IVSSH 0.35F L            CCN000007500000007500FN00000000020220601000007500NNM   20220405154146    1W    00000250000000452000000000032G2    AISUAI  000000000000IX225029
BI00B32G2    SA22061 MW     202205041801W006992              IVSSH 0.35F V            CCN000005000000005000FN00000000020220601000005000NNM   20220405154146    1W    00000250000000452000000000032G2    AISUAI  000000000000IX324036
BI00B32G2    SA22062 MW     202205111801W006992              IVSSH 0.35F V            CCN000005000000005000FN00000000020220601000005000NNM   20220405154146    1W    00000250000000452000000000032G2    AISUAI  000000000000IX424033
BI00B32G2    SA22063 MW     202205181801W006992              IVSSH 0.35F V            CCN000005000000005000FN00000000020220601000005000NNM   20220405154146    1W    00000250000000452000000000032G2    AISUAI  000000000000IX125030
BI00B32G2    SA22064 MW     202205251801W006992              IVSSH 0.35F V            CCN000002500000002500FN00000000020220601000002500NNM   20220405154146    1W    00000250000000452000000000032G2    AISUAI  000000000000IX225030
BI00B32G2    @SA22061 MW    20220504181B32102S1              AVSSCS 0.5FX2 DGY        CCN000000300000000300FN00000000020220601000000300NNM   20220405154141    1W    00000030000002903000000000032G2    AISUAI  000000000000IX324004
BI00B32G2    @SA22061 MW    20220504181B32102Y6              AVSSCS 0.5FX2 DGY/G      CCN000000300000000300FN00000000020220601000000300NNM   20220405154141    1W    00000030000002903000000000032G2    AISUAI  000000000000IX324005
BI00B32G2    @SA22062 MW    20220511181B32102Y6              AVSSCS 0.5FX2 DGY/G      CCN000000300000000300FN00000000020220601000000300NNM   20220405154141    1W    00000030000002903000000000032G2    AISUAI  000000000000IX424004
BI00B32G2    @SA22061 MW    20220504181D6903930              AVSSHCS 0.5FX1 B         CCN000000400000000400FN00000000020220601000000400NNM   20220405154141    1W    00000040000002285000000000032G2    AISUAI  000000000000IX324006
BI00B32G2    @SA22061 MW    20220504181D6910230              AVSSHCS 0.5FX2 B         CCN000004500000004500FN00000000020220601000004500NNM   20220405154141    1W    00000030000002385000000000032G2    AISUAI  000000000000IX324007
BI00B32G2    @SA22062 MW    20220511181D6910230              AVSSHCS 0.5FX2 B         CCN000003600000003600FN00000000020220601000003600NNM   20220405154141    1W    00000030000002385000000000032G2    AISUAI  000000000000IX424005
BI00B32G2    @SA22063 MW    20220518181D6910230              AVSSHCS 0.5FX2 B         CCN000003000000003000FN00000000020220601000003000NNM   20220405154141    1W    00000030000002385000000000032G2    AISUAI  000000000000IX125004
BI00B32G2    @SA22064 MW    20220525181D6910230              AVSSHCS 0.5FX2 B         CCN000002400000002400FN00000000020220601000002400NNM   20220405154141    1W    00000030000002385000000000032G2    AISUAI  000000000000IX225004
BI00B32G2    @SA22061 MW    20220504181D6910235              AVSSHCS 0.5FX2 B/R       CCN000000300000000300FN00000000020220601000000300NNM   20220405154141    1W    00000030000002385000000000032G2    AISUAI  000000000000IX324008
BI00B32G2    @SA22062 MW    20220511181D6910235              AVSSHCS 0.5FX2 B/R       CCN000000300000000300FN00000000020220601000000300NNM   20220405154141    1W    00000030000002385000000000032G2    AISUAI  000000000000IX424006
BI00B32G2    @SA22061 MW    20220504181D6910237              AVSSHCS 0.5FX2 B/Y       CCN000000300000000300FN00000000020220601000000300NNM   20220405154141    1W    00000030000002385000000000032G2    AISUAI  000000000000IX324009
BI00B32G2    @SA22062 MW    20220511181D6910237              AVSSHCS 0.5FX2 B/Y       CCN000000300000000300FN00000000020220601000000300NNM   20220405154141    1W    00000030000002385000000000032G2    AISUAI  000000000000IX424007
BI00B32G2    @SA22061 MW    20220504181E50007ZZ              AVSSCS-S 0.5FX1 DGY/L    CCN000007600000007600FN00000000020220601000007600NNM   20220405154141    1W    00000040000001909700000000032G2    AISUAI  000000000000IX324010
BI00B32G2    @SA22062 MW    20220511181E50007ZZ              AVSSCS-S 0.5FX1 DGY/L    CCN000006000000006000FN00000000020220601000006000NNM   20220405154141    1W    00000040000001909700000000032G2    AISUAI  000000000000IX424008
BI00B32G2    @SA22063 MW    20220518181E50007ZZ              AVSSCS-S 0.5FX1 DGY/L    CCN000004000000004000FN00000000020220601000004000NNM   20220405154141    1W    00000040000001909700000000032G2    AISUAI  000000000000IX125005
BI00B32G2    @SA22064 MW    20220525181E50007ZZ              AVSSCS-S 0.5FX1 DGY/L    CCN000002400000002400FN00000000020220601000002400NNM   20220405154141    1W    00000040000001909700000000032G2    AISUAI  000000000000IX225005
BI00B32G2    @SA22061 MW    20220504181E50016ZZ              AVSSCS-S 0.5FX2 DGY/R    CCN000005100000005100FN00000000020220601000005100NNM   20220405154141    1W    00000030000003096000000000032G2    AISUAI  000000000000IX324011
BI00B32G2    @SA22062 MW    20220511181E50016ZZ              AVSSCS-S 0.5FX2 DGY/R    CCN000003600000003600FN00000000020220601000003600NNM   20220405154141    1W    00000030000003096000000000032G2    AISUAI  000000000000IX424009
BI00B32G2    @SA22063 MW    20220518181E50016ZZ              AVSSCS-S 0.5FX2 DGY/R    CCN000003000000003000FN00000000020220601000003000NNM   20220405154141    1W    00000030000003096000000000032G2    AISUAI  000000000000IX125006
BI00B32G2    @SA22064 MW    20220525181E50016ZZ              AVSSCS-S 0.5FX2 DGY/R    CCN000002400000002400FN00000000020220601000002400NNM   20220405154141    1W    00000030000003096000000000032G2    AISUAI  000000000000IX225006
BI00B32G2    @SA22061 MW    20220504181F21009ZZ              AVSSHCS-S 0.5FX2 B       CCN000012000000012000FN00000000020220601000012000NNM   20220405154141    1W    00000030000002531400000000032G2    AISUAI  000000000000IX324012
BI00B32G2    @SA22062 MW    20220511181F21009ZZ              AVSSHCS-S 0.5FX2 B       CCN000009000000009000FN00000000020220601000009000NNM   20220405154141    1W    00000030000002531400000000032G2    AISUAI  000000000000IX424010
BI00B32G2    @SA22063 MW    20220518181F21009ZZ              AVSSHCS-S 0.5FX2 B       CCN000006000000006000FN00000000020220601000006000NNM   20220405154141    1W    00000030000002531400000000032G2    AISUAI  000000000000IX125007
BI00B32G2    @SA22064 MW    20220525181F21009ZZ              AVSSHCS-S 0.5FX2 B       CCN000004200000004200FN00000000020220601000004200NNM   20220405154141    1W    00000030000002531400000000032G2    AISUAI  000000000000IX225007
BI00B32G2    SA22061HMW     202205041801W006980              IVSSH 0.35F BR           CCN000010000000010000FN00000000020220601000010000NNM   20220405154147    1W    00000250000000452000000000032G2    AISUAI  000000000000IY324005
BI00B32G2    SA22062HMW     202205111801W006980              IVSSH 0.35F BR           CCN000007500000007500FN00000000020220601000007500NNM   20220405154147    1W    00000250000000452000000000032G2    AISUAI  000000000000IY424005
BI00B32G2    SA22063HMW     202205181801W006980              IVSSH 0.35F BR           CCN000005000000005000FN00000000020220601000005000NNM   20220405154147    1W    00000250000000452000000000032G2    AISUAI  000000000000IY125005
BI00B32G2    SA22064HMW     202205251801W006980              IVSSH 0.35F BR           CCN000005000000005000FN00000000020220601000005000NNM   20220405154147    1W    00000250000000452000000000032G2    AISUAI  000000000000IY225005
BI00B32G2    SA22061JMW     2022050418007704170              AVSS 1.25F Y             CCN000000800000000800FN00000000020220601000000800NNM   20220405154148    1W    00000080000001389000000000032G2    AISUAI  000000000000IZ324010
BI00B32G2    SA22061JMW     202205041801W003930              IVSSH 0.5F B             CCN000037800000037800FN00000000020220601000037800NNM   20220405154148    1W    00000180000000625000000000032G2    AISUAI  000000000000IZ324011
BI00B32G2    SA22062JMW     202205111801W003930              IVSSH 0.5F B             CCN000032400000032400FN00000000020220601000032400NNM   20220405154148    1W    00000180000000625000000000032G2    AISUAI  000000000000IZ424009
BI00B32G2    SA22063JMW     202205181801W003930              IVSSH 0.5F B             CCN000027000000027000FN00000000020220601000027000NNM   20220405154148    1W    00000180000000625000000000032G2    AISUAI  000000000000IZ125008
BI00B32G2    SA22064JMW     202205251801W003930              IVSSH 0.5F B             CCN000019800000019800FN00000000020220601000019800NNM   20220405154148    1W    00000180000000625000000000032G2    AISUAI  000000000000IZ225008
BI00B32G2    SA22061JMW     202205041801W003940              IVSSH 0.5F W             CCN000032400000032400FN00000000020220601000032400NNM   20220405154148    1W    00000180000000625000000000032G2    AISUAI  000000000000IZ324019
BI00B32G2    SA22062JMW     202205111801W003940              IVSSH 0.5F W             CCN000027000000027000FN00000000020220601000027000NNM   20220405154148    1W    00000180000000625000000000032G2    AISUAI  000000000000IZ424016
BI00B32G2    SA22063JMW     202205181801W003940              IVSSH 0.5F W             CCN000023400000023400FN00000000020220601000023400NNM   20220405154148    1W    00000180000000625000000000032G2    AISUAI  000000000000IZ125015
BI00B32G2    SA22064JMW     202205251801W003940              IVSSH 0.5F W             CCN000019800000019800FN00000000020220601000019800NNM   20220405154148    1W    00000180000000625000000000032G2    AISUAI  000000000000IZ225014
BI00B32G2    SA22061JMW     202205041801W003941              IVSSH 0.5F GY            CCN000005400000005400FN00000000020220601000005400NNM   20220405154148    1W    00000180000000625000000000032G2    AISUAI  000000000000IZ324013
BI00B32G2    SA22062JMW     202205111801W003941              IVSSH 0.5F GY            CCN000005400000005400FN00000000020220601000005400NNM   20220405154148    1W    00000180000000625000000000032G2    AISUAI  000000000000IZ424011
BI00B32G2    SA22063JMW     202205181801W003941              IVSSH 0.5F GY            CCN000003600000003600FN00000000020220601000003600NNM   20220405154148    1W    00000180000000625000000000032G2    AISUAI  000000000000IZ125010
BI00B32G2    SA22064JMW     202205251801W003941              IVSSH 0.5F GY            CCN000001800000001800FN00000000020220601000001800NNM   20220405154148    1W    00000180000000625000000000032G2    AISUAI  000000000000IZ225010
BI00B32G2    SA22061JMW     202205041801W003943              IVSSH 0.5F W/B           CCN000007200000007200FN00000000020220601000007200NNM   20220405154148    1W    00000180000000625000000000032G2    AISUAI  000000000000IZ324020
BI00B32G2    SA22062JMW     202205111801W003943              IVSSH 0.5F W/B           CCN000007200000007200FN00000000020220601000007200NNM   20220405154148    1W    00000180000000625000000000032G2    AISUAI  000000000000IZ424017
BI00B32G2    SA22063JMW     202205181801W003943              IVSSH 0.5F W/B           CCN000005400000005400FN00000000020220601000005400NNM   20220405154148    1W    00000180000000625000000000032G2    AISUAI  000000000000IZ125016
BI00B32G2    SA22064JMW     202205251801W003943              IVSSH 0.5F W/B           CCN000003600000003600FN00000000020220601000003600NNM   20220405154148    1W    00000180000000625000000000032G2    AISUAI  000000000000IZ225015
BI00B32G2    SA22061JMW     202205041801W003950              IVSSH 0.5F R             CCN000032400000032400FN00000000020220601000032400NNM   20220405154148    1W    00000180000000625000000000032G2    AISUAI  000000000000IZ324016
BI00B32G2    SA22062JMW     202205111801W003950              IVSSH 0.5F R             CCN000027000000027000FN00000000020220601000027000NNM   20220405154148    1W    00000180000000625000000000032G2    AISUAI  000000000000IZ424014
BI00B32G2    SA22063JMW     202205181801W003950              IVSSH 0.5F R             CCN000023400000023400FN00000000020220601000023400NNM   20220405154148    1W    00000180000000625000000000032G2    AISUAI  000000000000IZ125013
BI00B32G2    SA22064JMW     202205251801W003950              IVSSH 0.5F R             CCN000018000000018000FN00000000020220601000018000NNM   20220405154148    1W    00000180000000625000000000032G2    AISUAI  000000000000IZ225012
BI00B32G2    SA22061JMW     202205041801W003952              IVSSH 0.5F P             CCN000009000000009000FN00000000020220601000009000NNM   20220405154148    1W    00000180000000625000000000032G2    AISUAI  000000000000IZ324015
BI00B32G2    SA22062JMW     202205111801W003952              IVSSH 0.5F P             CCN000007200000007200FN00000000020220601000007200NNM   20220405154148    1W    00000180000000625000000000032G2    AISUAI  000000000000IZ424013
BI00B32G2    SA22063JMW     202205181801W003952              IVSSH 0.5F P             CCN000007200000007200FN00000000020220601000007200NNM   20220405154148    1W    00000180000000625000000000032G2    AISUAI  000000000000IZ125012
BI00B32G2    SA22064JMW     202205251801W003952              IVSSH 0.5F P             CCN000005400000005400FN00000000020220601000005400NNM   20220405154148    1W    00000180000000625000000000032G2    AISUAI  000000000000IZ225011
BI00B32G2    SA22061JMW     202205041801W003961              IVSSH 0.5F LG            CCN000001800000001800FN00000000020220601000001800NNM   20220405154148    1W    00000180000000625000000000032G2    AISUAI  000000000000IZ324014
BI00B32G2    SA22062JMW     202205111801W003961              IVSSH 0.5F LG            CCN000001800000001800FN00000000020220601000001800NNM   20220405154148    1W    00000180000000625000000000032G2    AISUAI  000000000000IZ424012
BI00B32G2    SA22063JMW     202205181801W003961              IVSSH 0.5F LG            CCN000001800000001800FN00000000020220601000001800NNM   20220405154148    1W    00000180000000625000000000032G2    AISUAI  000000000000IZ125011
BI00B32G2    SA22061JMW     202205041801W003970              IVSSH 0.5F Y             CCN000019800000019800FN00000000020220601000019800NNM   20220405154148    1W    00000180000000625000000000032G2    AISUAI  000000000000IZ324021
BI00B32G2    SA22062JMW     202205111801W003970              IVSSH 0.5F Y             CCN000016200000016200FN00000000020220601000016200NNM   20220405154148    1W    00000180000000625000000000032G2    AISUAI  000000000000IZ424018
BI00B32G2    SA22063JMW     202205181801W003970              IVSSH 0.5F Y             CCN000014400000014400FN00000000020220601000014400NNM   20220405154148    1W    00000180000000625000000000032G2    AISUAI  000000000000IZ125017
BI00B32G2    SA22064JMW     202205251801W003970              IVSSH 0.5F Y             CCN000010800000010800FN00000000020220601000010800NNM   20220405154148    1W    00000180000000625000000000032G2    AISUAI  000000000000IZ225016
BI00B32G2    SA22061JMW     202205041801W003980              IVSSH 0.5F BR            CCN000009000000009000FN00000000020220601000009000NNM   20220405154148    1W    00000180000000625000000000032G2    AISUAI  000000000000IZ324012
BI00B32G2    SA22062JMW     202205111801W003980              IVSSH 0.5F BR            CCN000007200000007200FN00000000020220601000007200NNM   20220405154148    1W    00000180000000625000000000032G2    AISUAI  000000000000IZ424010
BI00B32G2    SA22063JMW     202205181801W003980              IVSSH 0.5F BR            CCN000005400000005400FN00000000020220601000005400NNM   20220405154148    1W    00000180000000625000000000032G2    AISUAI  000000000000IZ125009
BI00B32G2    SA22064JMW     202205251801W003980              IVSSH 0.5F BR            CCN000005400000005400FN00000000020220601000005400NNM   20220405154148    1W    00000180000000625000000000032G2    AISUAI  000000000000IZ225009
BI00B32G2    SA22061JMW     202205041801W003991              IVSSH 0.5F SB            CCN000001800000001800FN00000000020220601000001800NNM   20220405154148    1W    00000180000000625000000000032G2    AISUAI  000000000000IZ324017
BI00B32G2    SA22061JMW     202205041801W003992              IVSSH 0.5F V             CCN000009000000009000FN00000000020220601000009000NNM   20220405154148    1W    00000180000000625000000000032G2    AISUAI  000000000000IZ324018
BI00B32G2    SA22062JMW     202205111801W003992              IVSSH 0.5F V             CCN000007200000007200FN00000000020220601000007200NNM   20220405154148    1W    00000180000000625000000000032G2    AISUAI  000000000000IZ424015
BI00B32G2    SA22063JMW     202205181801W003992              IVSSH 0.5F V             CCN000005400000005400FN00000000020220601000005400NNM   20220405154148    1W    00000180000000625000000000032G2    AISUAI  000000000000IZ125014
BI00B32G2    SA22064JMW     202205251801W003992              IVSSH 0.5F V             CCN000003600000003600FN00000000020220601000003600NNM   20220405154148    1W    00000180000000625000000000032G2    AISUAI  000000000000IZ225013
BI00B32G2    SA22061JMW     202205041801W004050              IVSSH 0.75F R            CCN000001300000001300FN00000000020220601000001300NNM   20220405154148    1W    00000130000000882000000000032G2    AISUAI  000000000000IZ324026
BI00B32G2    SA22062JMW     202205111801W004050              IVSSH 0.75F R            CCN000001300000001300FN00000000020220601000001300NNM   20220405154148    1W    00000130000000882000000000032G2    AISUAI  000000000000IZ424023
BI00B32G2    SA22063JMW     202205181801W004050              IVSSH 0.75F R            CCN000001300000001300FN00000000020220601000001300NNM   20220405154148    1W    00000130000000882000000000032G2    AISUAI  000000000000IZ125022
BI00B32G2    SA22061JMW     202205041801W004060              IVSSH 0.75F G            CCN000006500000006500FN00000000020220601000006500NNM   20220405154148    1W    00000130000000882000000000032G2    AISUAI  000000000000IZ324023
BI00B32G2    SA22062JMW     202205111801W004060              IVSSH 0.75F G            CCN000005200000005200FN00000000020220601000005200NNM   20220405154148    1W    00000130000000882000000000032G2    AISUAI  000000000000IZ424020
BI00B32G2    SA22063JMW     202205181801W004060              IVSSH 0.75F G            CCN000005200000005200FN00000000020220601000005200NNM   20220405154148    1W    00000130000000882000000000032G2    AISUAI  000000000000IZ125019
BI00B32G2    SA22064JMW     202205251801W004060              IVSSH 0.75F G            CCN000003900000003900FN00000000020220601000003900NNM   20220405154148    1W    00000130000000882000000000032G2    AISUAI  000000000000IZ225018
BI00B32G2    SA22061JMW     202205041801W004061              IVSSH 0.75F LG           CCN000001300000001300FN00000000020220601000001300NNM   20220405154148    1W    00000130000000882000000000032G2    AISUAI  000000000000IZ324025
BI00B32G2    SA22062JMW     202205111801W004061              IVSSH 0.75F LG           CCN000001300000001300FN00000000020220601000001300NNM   20220405154148    1W    00000130000000882000000000032G2    AISUAI  000000000000IZ424022
BI00B32G2    SA22063JMW     202205181801W004061              IVSSH 0.75F LG           CCN000001300000001300FN00000000020220601000001300NNM   20220405154148    1W    00000130000000882000000000032G2    AISUAI  000000000000IZ125021
BI00B32G2    SA22064JMW     202205251801W004061              IVSSH 0.75F LG           CCN000001300000001300FN00000000020220601000001300NNM   20220405154148    1W    00000130000000882000000000032G2    AISUAI  000000000000IZ225020
BI00B32G2    SA22061JMW     202205041801W004070              IVSSH 0.75F Y            CCN000001300000001300FN00000000020220601000001300NNM   20220405154148    1W    00000130000000882000000000032G2    AISUAI  000000000000IZ324027
BI00B32G2    SA22061JMW     202205041801W004080              IVSSH 0.75F BR           CCN000001300000001300FN00000000020220601000001300NNM   20220405154148    1W    00000130000000882000000000032G2    AISUAI  000000000000IZ324022
BI00B32G2    SA22062JMW     202205111801W004080              IVSSH 0.75F BR           CCN000001300000001300FN00000000020220601000001300NNM   20220405154148    1W    00000130000000882000000000032G2    AISUAI  000000000000IZ424019
BI00B32G2    SA22063JMW     202205181801W004080              IVSSH 0.75F BR           CCN000001300000001300FN00000000020220601000001300NNM   20220405154148    1W    00000130000000882000000000032G2    AISUAI  000000000000IZ125018
BI00B32G2    SA22064JMW     202205251801W004080              IVSSH 0.75F BR           CCN000001300000001300FN00000000020220601000001300NNM   20220405154148    1W    00000130000000882000000000032G2    AISUAI  000000000000IZ225017
BI00B32G2    SA22061JMW     202205041801W004090              IVSSH 0.75F L            CCN000001300000001300FN00000000020220601000001300NNM   20220405154148    1W    00000130000000882000000000032G2    AISUAI  000000000000IZ324024
BI00B32G2    SA22062JMW     202205111801W004090              IVSSH 0.75F L            CCN000001300000001300FN00000000020220601000001300NNM   20220405154148    1W    00000130000000882000000000032G2    AISUAI  000000000000IZ424021
BI00B32G2    SA22063JMW     202205181801W004090              IVSSH 0.75F L            CCN000001300000001300FN00000000020220601000001300NNM   20220405154148    1W    00000130000000882000000000032G2    AISUAI  000000000000IZ125020
BI00B32G2    SA22064JMW     202205251801W004090              IVSSH 0.75F L            CCN000001300000001300FN00000000020220601000001300NNM   20220405154148    1W    00000130000000882000000000032G2    AISUAI  000000000000IZ225019
BI00B32G2    SA22061JMW     202205041801W006940              IVSSH 0.35F W            CCN000012500000012500FN00000000020220601000012500NNM   20220405154148    1W    00000250000000452000000000032G2    AISUAI  000000000000IZ324032
BI00B32G2    SA22062JMW     202205111801W006940              IVSSH 0.35F W            CCN000010000000010000FN00000000020220601000010000NNM   20220405154148    1W    00000250000000452000000000032G2    AISUAI  000000000000IZ424028
BI00B32G2    SA22063JMW     202205181801W006940              IVSSH 0.35F W            CCN000007500000007500FN00000000020220601000007500NNM   20220405154148    1W    00000250000000452000000000032G2    AISUAI  000000000000IZ125027
BI00B32G2    SA22064JMW     202205251801W006940              IVSSH 0.35F W            CCN000005000000005000FN00000000020220601000005000NNM   20220405154148    1W    00000250000000452000000000032G2    AISUAI  000000000000IZ225025
BI00B32G2    SA22061JMW     202205041801W006950              IVSSH 0.35F R            CCN000005000000005000FN00000000020220601000005000NNM   20220405154148    1W    00000250000000452000000000032G2    AISUAI  000000000000IZ324030
BI00B32G2    SA22062JMW     202205111801W006950              IVSSH 0.35F R            CCN000005000000005000FN00000000020220601000005000NNM   20220405154148    1W    00000250000000452000000000032G2    AISUAI  000000000000IZ424026
BI00B32G2    SA22063JMW     202205181801W006950              IVSSH 0.35F R            CCN000002500000002500FN00000000020220601000002500NNM   20220405154148    1W    00000250000000452000000000032G2    AISUAI  000000000000IZ125025
BI00B32G2    SA22064JMW     202205251801W006950              IVSSH 0.35F R            CCN000002500000002500FN00000000020220601000002500NNM   20220405154148    1W    00000250000000452000000000032G2    AISUAI  000000000000IZ225023
BI00B32G2    SA22061JMW     202205041801W006952              IVSSH 0.35F P            CCN000002500000002500FN00000000020220601000002500NNM   20220405154148    1W    00000250000000452000000000032G2    AISUAI  000000000000IZ324029
BI00B32G2    SA22062JMW     202205111801W006952              IVSSH 0.35F P            CCN000002500000002500FN00000000020220601000002500NNM   20220405154148    1W    00000250000000452000000000032G2    AISUAI  000000000000IZ424025
BI00B32G2    SA22063JMW     202205181801W006952              IVSSH 0.35F P            CCN000002500000002500FN00000000020220601000002500NNM   20220405154148    1W    00000250000000452000000000032G2    AISUAI  000000000000IZ125024
BI00B32G2    SA22064JMW     202205251801W006952              IVSSH 0.35F P            CCN000002500000002500FN00000000020220601000002500NNM   20220405154148    1W    00000250000000452000000000032G2    AISUAI  000000000000IZ225022
BI00B32G2    SA22061JMW     202205041801W006961              IVSSH 0.35F LG           CCN000005000000005000FN00000000020220601000005000NNM   20220405154148    1W    00000250000000452000000000032G2    AISUAI  000000000000IZ324028
BI00B32G2    SA22062JMW     202205111801W006961              IVSSH 0.35F LG           CCN000002500000002500FN00000000020220601000002500NNM   20220405154148    1W    00000250000000452000000000032G2    AISUAI  000000000000IZ424024
BI00B32G2    SA22063JMW     202205181801W006961              IVSSH 0.35F LG           CCN000002500000002500FN00000000020220601000002500NNM   20220405154148    1W    00000250000000452000000000032G2    AISUAI  000000000000IZ125023
BI00B32G2    SA22064JMW     202205251801W006961              IVSSH 0.35F LG           CCN000002500000002500FN00000000020220601000002500NNM   20220405154148    1W    00000250000000452000000000032G2    AISUAI  000000000000IZ225021
BI00B32G2    SA22061JMW     202205041801W006970              IVSSH 0.35F Y            CCN000002500000002500FN00000000020220601000002500NNM   20220405154148    1W    00000250000000452000000000032G2    AISUAI  000000000000IZ324033
BI00B32G2    SA22061JMW     202205041801W006991              IVSSH 0.35F SB           CCN000005000000005000FN00000000020220601000005000NNM   20220405154148    1W    00000250000000452000000000032G2    AISUAI  000000000000IZ324031
BI00B32G2    SA22062JMW     202205111801W006991              IVSSH 0.35F SB           CCN000002500000002500FN00000000020220601000002500NNM   20220405154148    1W    00000250000000452000000000032G2    AISUAI  000000000000IZ424027
BI00B32G2    SA22063JMW     202205181801W006991              IVSSH 0.35F SB           CCN000002500000002500FN00000000020220601000002500NNM   20220405154148    1W    00000250000000452000000000032G2    AISUAI  000000000000IZ125026
BI00B32G2    SA22064JMW     202205251801W006991              IVSSH 0.35F SB           CCN000002500000002500FN00000000020220601000002500NNM   20220405154148    1W    00000250000000452000000000032G2    AISUAI  000000000000IZ225024
BI00B32G2    @SA22061JMW    20220504181F21027ZZ              AVSSHCS-S 1.25FX2 B      CCN000000600000000600FN00000000020220601000000600NNM   20220405154144    1W    00000020000004267300000000032G2    AISUAI  000000000000IZ324008
BI00B32G2    SA22061NMW     2022050418007704061              AVSS 0.75F LG            CCN000001000000001000FN00000000020220601000001000NNM   20220405154149    1W    00000100000000943000000000032G2    AISUAI  000000000000IW324003
BI00B32G2    SA22062NMW     2022051118007704061              AVSS 0.75F LG            CCN000001000000001000FN00000000020220601000001000NNM   20220405154149    1W    00000100000000943000000000032G2    AISUAI  000000000000IW424003
BI00B32G2    @SA22061NMW    20220504181B32102Z8              AVSSCS 0.5FX2 DGY/O      CCN000000900000000900FN00000000020220601000000900NNM   20220405154145    1W    00000030000002779000000000032G2    AISUAI  000000000000IW324001
BI00B32G2    @SA22062NMW    20220511181B32102Z8              AVSSCS 0.5FX2 DGY/O      CCN000000600000000600FN00000000020220601000000600NNM   20220405154145    1W    00000030000002779000000000032G2    AISUAI  000000000000IW424001
BI00B32G2    @SA22063NMW    20220518181B32102Z8              AVSSCS 0.5FX2 DGY/O      CCN000000600000000600FN00000000020220601000000600NNM   20220405154145    1W    00000030000002779000000000032G2    AISUAI  000000000000IW125001
BI00B32G2    @SA22064NMW    20220525181B32102Z8              AVSSCS 0.5FX2 DGY/O      CCN000000300000000300FN00000000020220601000000300NNM   20220405154145    1W    00000030000002779000000000032G2    AISUAI  000000000000IW225001
BI00B32G2    @SA22061NMW    20220504181E50012ZZ              AVSSCS-S 0.5FX2 DGY/G    CCN000000300000000300FN00000000020220601000000300NNM   20220405154145    1W    00000030000003096000000000032G2    AISUAI  000000000000IW324002
BI00B32G2    @SA22062NMW    20220511181E50012ZZ              AVSSCS-S 0.5FX2 DGY/G    CCN000000300000000300FN00000000020220601000000300NNM   20220405154145    1W    00000030000003096000000000032G2    AISUAI  000000000000IW424002
BI00B32G7    JW22034MMW     202204071801W004030              IVSSH 0.75F B            CCN000002600000002600FN00000000020220301000002600NNM21 20220405161113    1W    00000130000000882000000000032G7    JIJAI   000000000000JM322019
BI00B32M3    SM2205B MW     20220428180D0203792              AVSSH 0.3F V             CCN000002000000002000FN00000000020220501000002000NNE   20220405162106    1W    00000200000000515000000000032M3    SASAMI  000000000000QC224001
BI00B32M3    SM22061 MW     2022050518007703780              AVSS 0.3F BR             CCN000002000000002000FN00000000020220601000002000NNM   20220405162109    1W    00000200000000496000000000032M3    SASAMI  000000000000QM324013
BI00B32M3    SM22062 MW     2022051218007703780              AVSS 0.3F BR             CCN000002000000002000FN00000000020220601000002000NNM   20220405162109    1W    00000200000000496000000000032M3    SASAMI  000000000000QM424019
BI00B32M3    SM22063 MW     2022051918007703780              AVSS 0.3F BR             CCN000002000000002000FN00000000020220601000002000NNM   20220405162109    1W    00000200000000496000000000032M3    SASAMI  000000000000QM125017
BI00B32M3    SM22064 MW     2022052618007703780              AVSS 0.3F BR             CCN000002000000002000FN00000000020220601000002000NNM   20220405162109    1W    00000200000000496000000000032M3    SASAMI  000000000000QM225021
BI00B32M3    SM22061 MW     2022050518007703761              AVSS 0.3F LG             CCN000004000000004000FN00000000020220601000004000NNM   20220405162109    1W    00000200000000496000000000032M3    SASAMI  000000000000QM324014
BI00B32M3    SM22062 MW     2022051218007703761              AVSS 0.3F LG             CCN000002000000002000FN00000000020220601000002000NNM   20220405162109    1W    00000200000000496000000000032M3    SASAMI  000000000000QM424020
BI00B32M3    SM22063 MW     2022051918007703761              AVSS 0.3F LG             CCN000002000000002000FN00000000020220601000002000NNM   20220405162109    1W    00000200000000496000000000032M3    SASAMI  000000000000QM125018
BI00B32M3    SM22061 MW     2022050518007703752              AVSS 0.3F P              CCN000002000000002000FN00000000020220601000002000NNM   20220405162109    1W    00000200000000496000000000032M3    SASAMI  000000000000QM324015
BI00B32M3    SM22062 MW     2022051218007703752              AVSS 0.3F P              CCN000002000000002000FN00000000020220601000002000NNM   20220405162109    1W    00000200000000496000000000032M3    SASAMI  000000000000QM424021
BI00B32M3    SM22063 MW     2022051918007703752              AVSS 0.3F P              CCN000002000000002000FN00000000020220601000002000NNM   20220405162109    1W    00000200000000496000000000032M3    SASAMI  000000000000QM125019
BI00B32M3    SM22061 MW     2022050518007703791              AVSS 0.3F SB             CCN000002000000002000FN00000000020220601000002000NNM   20220405162109    1W    00000200000000496000000000032M3    SASAMI  000000000000QM324016
BI00B32M3    SM22061 MW     2022050518007703792              AVSS 0.3F V              CCN000002000000002000FN00000000020220601000002000NNM   20220405162109    1W    00000200000000496000000000032M3    SASAMI  000000000000QM324017
BI00B32M3    SM22062 MW     2022051218007703792              AVSS 0.3F V              CCN000002000000002000FN00000000020220601000002000NNM   20220405162109    1W    00000200000000496000000000032M3    SASAMI  000000000000QM424022
BI00B32M3    SM22063 MW     2022051918007703792              AVSS 0.3F V              CCN000002000000002000FN00000000020220601000002000NNM   20220405162109    1W    00000200000000496000000000032M3    SASAMI  000000000000QM125020
BI00B32M3    SM22064 MW     2022052618007703792              AVSS 0.3F V              CCN000002000000002000FN00000000020220601000002000NNM   20220405162109    1W    00000200000000496000000000032M3    SASAMI  000000000000QM225022
BI00B32M3    SM22061 MW     2022050518007703740              AVSS 0.3F W              CCN000002000000002000FN00000000020220601000002000NNM   20220405162109    1W    00000200000000496000000000032M3    SASAMI  000000000000QM324018
BI00B32M3    SM22062 MW     2022051218007703740              AVSS 0.3F W              CCN000002000000002000FN00000000020220601000002000NNM   20220405162109    1W    00000200000000496000000000032M3    SASAMI  000000000000QM424023
BI00B32M3    SM22063 MW     2022051918007703930              AVSS 0.5F B              CCN000009000000009000FN00000000020220601000009000NNM   20220405162109    1W    00000150000000674000000000032M3    SASAMI  000000000000QM125021
BI00B32M3    SM22064 MW     2022052618007703930              AVSS 0.5F B              CCN000009000000009000FN00000000020220601000009000NNM   20220405162109    1W    00000150000000674000000000032M3    SASAMI  000000000000QM225023
BI00B32M3    SM22061 MW     2022050518007703960              AVSS 0.5F G              CCN000001500000001500FN00000000020220601000001500NNM   20220405162109    1W    00000150000000674000000000032M3    SASAMI  000000000000QM324019
BI00B32M3    SM22061 MW     2022050518007703941              AVSS 0.5F GY             CCN000001500000001500FN00000000020220601000001500NNM   20220405162109    1W    00000150000000674000000000032M3    SASAMI  000000000000QM324020
BI00B32M3    SM22061 MW     2022050518007703990              AVSS 0.5F L              CCN000012000000012000FN00000000020220601000012000NNM   20220405162109    1W    00000150000000674000000000032M3    SASAMI  000000000000QM324021
BI00B32M3    SM22062 MW     2022051218007703990              AVSS 0.5F L              CCN000010500000010500FN00000000020220601000010500NNM   20220405162109    1W    00000150000000674000000000032M3    SASAMI  000000000000QM424024
BI00B32M3    SM22063 MW     2022051918007703990              AVSS 0.5F L              CCN000009000000009000FN00000000020220601000009000NNM   20220405162109    1W    00000150000000674000000000032M3    SASAMI  000000000000QM125022
BI00B32M3    SM22064 MW     2022052618007703990              AVSS 0.5F L              CCN000006000000006000FN00000000020220601000006000NNM   20220405162109    1W    00000150000000674000000000032M3    SASAMI  000000000000QM225024
BI00B32M3    SM22061 MW     2022050518007703952              AVSS 0.5F P              CCN000009000000009000FN00000000020220601000009000NNM   20220405162109    1W    00000150000000674000000000032M3    SASAMI  000000000000QM324022
BI00B32M3    SM22062 MW     2022051218007703952              AVSS 0.5F P              CCN000006000000006000FN00000000020220601000006000NNM   20220405162109    1W    00000150000000674000000000032M3    SASAMI  000000000000QM424025
BI00B32M3    SM22063 MW     2022051918007703952              AVSS 0.5F P              CCN000004500000004500FN00000000020220601000004500NNM   20220405162109    1W    00000150000000674000000000032M3    SASAMI  000000000000QM125023
BI00B32M3    SM22064 MW     2022052618007703952              AVSS 0.5F P              CCN000004500000004500FN00000000020220601000004500NNM   20220405162109    1W    00000150000000674000000000032M3    SASAMI  000000000000QM225025
BI00B32M3    SM22061 MW     2022050518007703900              AVSS 0.5F P/W            CCN000006000000006000FN00000000020220601000006000NNM   20220405162109    1W    00000150000000674000000000032M3    SASAMI  000000000000QM324023
BI00B32M3    SM22062 MW     2022051218007703900              AVSS 0.5F P/W            CCN000004500000004500FN00000000020220601000004500NNM   20220405162109    1W    00000150000000674000000000032M3    SASAMI  000000000000QM424026
BI00B32M3    SM22063 MW     2022051918007703900              AVSS 0.5F P/W            CCN000003000000003000FN00000000020220601000003000NNM   20220405162109    1W    00000150000000674000000000032M3    SASAMI  000000000000QM125024
BI00B32M3    SM22061 MW     2022050518007703950              AVSS 0.5F R              CCN000004500000004500FN00000000020220601000004500NNM   20220405162109    1W    00000150000000674000000000032M3    SASAMI  000000000000QM324024
BI00B32M3    SM22062 MW     2022051218007703950              AVSS 0.5F R              CCN000003000000003000FN00000000020220601000003000NNM   20220405162109    1W    00000150000000674000000000032M3    SASAMI  000000000000QM424027
BI00B32M3    SM22061 MW     2022050518007703991              AVSS 0.5F SB             CCN000001500000001500FN00000000020220601000001500NNM   20220405162109    1W    00000150000000674000000000032M3    SASAMI  000000000000QM324025
BI00B32M3    SM22062 MW     2022051218007703991              AVSS 0.5F SB             CCN000001500000001500FN00000000020220601000001500NNM   20220405162109    1W    00000150000000674000000000032M3    SASAMI  000000000000QM424028
BI00B32M3    SM22063 MW     2022051918007703991              AVSS 0.5F SB             CCN000001500000001500FN00000000020220601000001500NNM   20220405162109    1W    00000150000000674000000000032M3    SASAMI  000000000000QM125025
BI00B32M3    SM22061 MW     2022050518007703992              AVSS 0.5F V              CCN000003000000003000FN00000000020220601000003000NNM   20220405162109    1W    00000150000000674000000000032M3    SASAMI  000000000000QM324026
BI00B32M3    SM22064 MW     2022052618007703940              AVSS 0.5F W              CCN000001500000001500FN00000000020220601000001500NNM   20220405162109    1W    00000150000000674000000000032M3    SASAMI  000000000000QM225026
BI00B32M3    SM22061 MW     2022050518007703970              AVSS 0.5F Y              CCN000003000000003000FN00000000020220601000003000NNM   20220405162109    1W    00000150000000674000000000032M3    SASAMI  000000000000QM324027
BI00B32M3    SM22062 MW     2022051218007703970              AVSS 0.5F Y              CCN000001500000001500FN00000000020220601000001500NNM   20220405162109    1W    00000150000000674000000000032M3    SASAMI  000000000000QM424029
BI00B32M3    SM22063 MW     2022051918007703970              AVSS 0.5F Y              CCN000001500000001500FN00000000020220601000001500NNM   20220405162109    1W    00000150000000674000000000032M3    SASAMI  000000000000QM125026
BI00B32M3    SM22064 MW     2022052618007703970              AVSS 0.5F Y              CCN000001500000001500FN00000000020220601000001500NNM   20220405162109    1W    00000150000000674000000000032M3    SASAMI  000000000000QM225027
BI00B32M3    SM22061 MW     2022050518007704180              AVSS 1.25F BR            CCN000003200000003200FN00000000020220601000003200NNM   20220405162109    1W    00000080000001389000000000032M3    SASAMI  000000000000QM324028
BI00B32M3    SM22062 MW     2022051218007704180              AVSS 1.25F BR            CCN000001600000001600FN00000000020220601000001600NNM   20220405162109    1W    00000080000001389000000000032M3    SASAMI  000000000000QM424030
BI00B32M3    SM22063 MW     2022051918007704180              AVSS 1.25F BR            CCN000001600000001600FN00000000020220601000001600NNM   20220405162109    1W    00000080000001389000000000032M3    SASAMI  000000000000QM125027
BI00B32M3    SM22064 MW     2022052618007704180              AVSS 1.25F BR            CCN000001600000001600FN00000000020220601000001600NNM   20220405162109    1W    00000080000001389000000000032M3    SASAMI  000000000000QM225028
BI00B32M3    SM22061 MW     2022050518007704160              AVSS 1.25F G             CCN000001600000001600FN00000000020220601000001600NNM   20220405162109    1W    00000080000001389000000000032M3    SASAMI  000000000000QM324029
BI00B32M3    SM22062 MW     2022051218007704160              AVSS 1.25F G             CCN000001600000001600FN00000000020220601000001600NNM   20220405162109    1W    00000080000001389000000000032M3    SASAMI  000000000000QM424031
BI00B32M3    SM22061 MW     2022050518007704190              AVSS 1.25F L             CCN000001600000001600FN00000000020220601000001600NNM   20220405162109    1W    00000080000001389000000000032M3    SASAMI  000000000000QM324030
BI00B32M3    SM22062 MW     2022051218007704190              AVSS 1.25F L             CCN000000800000000800FN00000000020220601000000800NNM   20220405162109    1W    00000080000001389000000000032M3    SASAMI  000000000000QM424032
BI00B32M3    SM22063 MW     2022051918007704190              AVSS 1.25F L             CCN000000800000000800FN00000000020220601000000800NNM   20220405162109    1W    00000080000001389000000000032M3    SASAMI  000000000000QM125028
BI00B32M3    SM22064 MW     2022052618007704190              AVSS 1.25F L             CCN000000800000000800FN00000000020220601000000800NNM   20220405162109    1W    00000080000001389000000000032M3    SASAMI  000000000000QM225029
BI00B32M3    SM22061 MW     2022050518007704161              AVSS 1.25F LG            CCN000003200000003200FN00000000020220601000003200NNM   20220405162109    1W    00000080000001389000000000032M3    SASAMI  000000000000QM324031
BI00B32M3    SM22062 MW     2022051218007704161              AVSS 1.25F LG            CCN000001600000001600FN00000000020220601000001600NNM   20220405162109    1W    00000080000001389000000000032M3    SASAMI  000000000000QM424033
BI00B32M3    SM22063 MW     2022051918007704161              AVSS 1.25F LG            CCN000000800000000800FN00000000020220601000000800NNM   20220405162109    1W    00000080000001389000000000032M3    SASAMI  000000000000QM125029
BI00B32M3    SM22064 MW     2022052618007704161              AVSS 1.25F LG            CCN000000800000000800FN00000000020220601000000800NNM   20220405162109    1W    00000080000001389000000000032M3    SASAMI  000000000000QM225030
BI00B32M3    SM22062 MW     2022051218007704150              AVSS 1.25F R             CCN000000800000000800FN00000000020220601000000800NNM   20220405162109    1W    00000080000001389000000000032M3    SASAMI  000000000000QM424034
BI00B32M3    SM22063 MW     2022051918007704150              AVSS 1.25F R             CCN000000800000000800FN00000000020220601000000800NNM   20220405162109    1W    00000080000001389000000000032M3    SASAMI  000000000000QM125030
BI00B32M3    SM22061 MW     20220505180D0203760              AVSSH 0.3F G             CCN000004000000004000FN00000000020220601000004000NNM   20220405162109    1W    00000200000000515000000000032M3    SASAMI  000000000000QM324003
BI00B32M3    SM22062 MW     20220512180D0203760              AVSSH 0.3F G             CCN000002000000002000FN00000000020220601000002000NNM   20220405162109    1W    00000200000000515000000000032M3    SASAMI  000000000000QM424006
BI00B32M3    SM22063 MW     20220519180D0203760              AVSSH 0.3F G             CCN000002000000002000FN00000000020220601000002000NNM   20220405162109    1W    00000200000000515000000000032M3    SASAMI  000000000000QM125004
BI00B32M3    SM22064 MW     20220526180D0203760              AVSSH 0.3F G             CCN000002000000002000FN00000000020220601000002000NNM   20220405162109    1W    00000200000000515000000000032M3    SASAMI  000000000000QM225003
BI00B32M3    SM22061 MW     20220505180D0203741              AVSSH 0.3F GY            CCN000004000000004000FN00000000020220601000004000NNM   20220405162109    1W    00000200000000515000000000032M3    SASAMI  000000000000QM324004
BI00B32M3    SM22062 MW     20220512180D0203741              AVSSH 0.3F GY            CCN000002000000002000FN00000000020220601000002000NNM   20220405162109    1W    00000200000000515000000000032M3    SASAMI  000000000000QM424007
BI00B32M3    SM22063 MW     20220519180D0203741              AVSSH 0.3F GY            CCN000002000000002000FN00000000020220601000002000NNM   20220405162109    1W    00000200000000515000000000032M3    SASAMI  000000000000QM125005
BI00B32M3    SM22064 MW     20220526180D0203741              AVSSH 0.3F GY            CCN000002000000002000FN00000000020220601000002000NNM   20220405162109    1W    00000200000000515000000000032M3    SASAMI  000000000000QM225004
BI00B32M3    SM22061 MW     20220505180D0203790              AVSSH 0.3F L             CCN000004000000004000FN00000000020220601000004000NNM   20220405162109    1W    00000200000000515000000000032M3    SASAMI  000000000000QM324005
BI00B32M3    SM22062 MW     20220512180D0203790              AVSSH 0.3F L             CCN000002000000002000FN00000000020220601000002000NNM   20220405162109    1W    00000200000000515000000000032M3    SASAMI  000000000000QM424008
BI00B32M3    SM22063 MW     20220519180D0203790              AVSSH 0.3F L             CCN000002000000002000FN00000000020220601000002000NNM   20220405162109    1W    00000200000000515000000000032M3    SASAMI  000000000000QM125006
BI00B32M3    SM22064 MW     20220526180D0203790              AVSSH 0.3F L             CCN000002000000002000FN00000000020220601000002000NNM   20220405162109    1W    00000200000000515000000000032M3    SASAMI  000000000000QM225005
BI00B32M3    SM22062 MW     20220512180D0203750              AVSSH 0.3F R             CCN000002000000002000FN00000000020220601000002000NNM   20220405162109    1W    00000200000000515000000000032M3    SASAMI  000000000000QM424009
BI00B32M3    SM22063 MW     20220519180D0203750              AVSSH 0.3F R             CCN000002000000002000FN00000000020220601000002000NNM   20220405162109    1W    00000200000000515000000000032M3    SASAMI  000000000000QM125007
BI00B32M3    SM22061 MW     20220505180D0203791              AVSSH 0.3F SB            CCN000002000000002000FN00000000020220601000002000NNM   20220405162109    1W    00000200000000515000000000032M3    SASAMI  000000000000QM324006
BI00B32M3    SM22062 MW     20220512180D0203791              AVSSH 0.3F SB            CCN000002000000002000FN00000000020220601000002000NNM   20220405162109    1W    00000200000000515000000000032M3    SASAMI  000000000000QM424010
BI00B32M3    SM22063 MW     20220519180D0203791              AVSSH 0.3F SB            CCN000002000000002000FN00000000020220601000002000NNM   20220405162109    1W    00000200000000515000000000032M3    SASAMI  000000000000QM125008
BI00B32M3    SM22064 MW     20220526180D0203791              AVSSH 0.3F SB            CCN000002000000002000FN00000000020220601000002000NNM   20220405162109    1W    00000200000000515000000000032M3    SASAMI  000000000000QM225006
BI00B32M3    SM22061 MW     20220505180D0203792              AVSSH 0.3F V             CCN000002000000002000FN00000000020220601000002000NNM   20220405162109    1W    00000200000000515000000000032M3    SASAMI  000000000000QM324007
BI00B32M3    SM22062 MW     20220512180D0203792              AVSSH 0.3F V             CCN000002000000002000FN00000000020220601000002000NNM   20220405162109    1W    00000200000000515000000000032M3    SASAMI  000000000000QM424011
BI00B32M3    SM22061 MW     20220505180D0203740              AVSSH 0.3F W             CCN000002000000002000FN00000000020220601000002000NNM   20220405162109    1W    00000200000000515000000000032M3    SASAMI  000000000000QM324008
BI00B32M3    SM22062 MW     20220512180D0203740              AVSSH 0.3F W             CCN000002000000002000FN00000000020220601000002000NNM   20220405162109    1W    00000200000000515000000000032M3    SASAMI  000000000000QM424012
BI00B32M3    SM22063 MW     20220519180D0203990              AVSSH 0.5F L             CCN000001500000001500FN00000000020220601000001500NNM   20220405162109    1W    00000150000000689000000000032M3    SASAMI  000000000000QM125009
BI00B32M3    SM22064 MW     20220526180D0203990              AVSSH 0.5F L             CCN000001500000001500FN00000000020220601000001500NNM   20220405162109    1W    00000150000000689000000000032M3    SASAMI  000000000000QM225007
BI00B32M3    SM22064 MW     20220526180D0203961              AVSSH 0.5F LG            CCN000001500000001500FN00000000020220601000001500NNM   20220405162109    1W    00000150000000689000000000032M3    SASAMI  000000000000QM225008
BI00B32M3    SM22064 MW     20220526180D0203991              AVSSH 0.5F SB            CCN000001500000001500FN00000000020220601000001500NNM   20220405162109    1W    00000150000000689000000000032M3    SASAMI  000000000000QM225009
BI00B32M3    SM22064 MW     20220526180D0203992              AVSSH 0.5F V             CCN000001500000001500FN00000000020220601000001500NNM   20220405162109    1W    00000150000000689000000000032M3    SASAMI  000000000000QM225010
BI00B32M3    SM22064 MW     20220526180D0203940              AVSSH 0.5F W             CCN000001500000001500FN00000000020220601000001500NNM   20220405162109    1W    00000150000000689000000000032M3    SASAMI  000000000000QM225011
BI00B32M3    SM22061 MW     20220505180D0204030              AVSSH 0.75F B            CCN000002000000002000FN00000000020220601000002000NNM   20220405162109    1W    00000100000000934000000000032M3    SASAMI  000000000000QM324009
BI00B32M3    SM22062 MW     20220512180D0204030              AVSSH 0.75F B            CCN000002000000002000FN00000000020220601000002000NNM   20220405162109    1W    00000100000000934000000000032M3    SASAMI  000000000000QM424013
BI00B32M3    SM22063 MW     20220519180D0204030              AVSSH 0.75F B            CCN000002000000002000FN00000000020220601000002000NNM   20220405162109    1W    00000100000000934000000000032M3    SASAMI  000000000000QM125010
BI00B32M3    SM22064 MW     20220526180D0204080              AVSSH 0.75F BR           CCN000001000000001000FN00000000020220601000001000NNM   20220405162109    1W    00000100000000934000000000032M3    SASAMI  000000000000QM225012
BI00B32M3    SM22062 MW     20220512180D0204060              AVSSH 0.75F G            CCN000002000000002000FN00000000020220601000002000NNM   20220405162109    1W    00000100000000934000000000032M3    SASAMI  000000000000QM424014
BI00B32M3    SM22063 MW     20220519180D0204060              AVSSH 0.75F G            CCN000001000000001000FN00000000020220601000001000NNM   20220405162109    1W    00000100000000934000000000032M3    SASAMI  000000000000QM125011
BI00B32M3    SM22063 MW     20220519180D0204041              AVSSH 0.75F GY           CCN000001000000001000FN00000000020220601000001000NNM   20220405162109    1W    00000100000000934000000000032M3    SASAMI  000000000000QM125012
BI00B32M3    SM22064 MW     20220526180D0204041              AVSSH 0.75F GY           CCN000002000000002000FN00000000020220601000002000NNM   20220405162109    1W    00000100000000934000000000032M3    SASAMI  000000000000QM225013
BI00B32M3    SM22061 MW     20220505180D0204090              AVSSH 0.75F L            CCN000003000000003000FN00000000020220601000003000NNM   20220405162109    1W    00000100000000934000000000032M3    SASAMI  000000000000QM324010
BI00B32M3    SM22062 MW     20220512180D0204090              AVSSH 0.75F L            CCN000002000000002000FN00000000020220601000002000NNM   20220405162109    1W    00000100000000934000000000032M3    SASAMI  000000000000QM424015
BI00B32M3    SM22061 MW     20220505180D0204052              AVSSH 0.75F P            CCN000004000000004000FN00000000020220601000004000NNM   20220405162109    1W    00000100000000934000000000032M3    SASAMI  000000000000QM324011
BI00B32M3    SM22062 MW     20220512180D0204052              AVSSH 0.75F P            CCN000003000000003000FN00000000020220601000003000NNM   20220405162109    1W    00000100000000934000000000032M3    SASAMI  000000000000QM424016
BI00B32M3    SM22063 MW     20220519180D0204052              AVSSH 0.75F P            CCN000002000000002000FN00000000020220601000002000NNM   20220405162109    1W    00000100000000934000000000032M3    SASAMI  000000000000QM125013
BI00B32M3    SM22064 MW     20220526180D0204052              AVSSH 0.75F P            CCN000001000000001000FN00000000020220601000001000NNM   20220405162109    1W    00000100000000934000000000032M3    SASAMI  000000000000QM225014
BI00B32M3    SM22064 MW     20220526180D0204050              AVSSH 0.75F R            CCN000002000000002000FN00000000020220601000002000NNM   20220405162109    1W    00000100000000934000000000032M3    SASAMI  000000000000QM225015
BI00B32M3    SM22064 MW     20220526180D0204091              AVSSH 0.75F SB           CCN000001000000001000FN00000000020220601000001000NNM   20220405162109    1W    00000100000000934000000000032M3    SASAMI  000000000000QM225016
BI00B32M3    SM22062 MW     20220512180D0204092              AVSSH 0.75F V            CCN000003000000003000FN00000000020220601000003000NNM   20220405162109    1W    00000100000000934000000000032M3    SASAMI  000000000000QM424017
BI00B32M3    SM22063 MW     20220519180D0204092              AVSSH 0.75F V            CCN000001000000001000FN00000000020220601000001000NNM   20220405162109    1W    00000100000000934000000000032M3    SASAMI  000000000000QM125014
BI00B32M3    SM22064 MW     20220526180D0204092              AVSSH 0.75F V            CCN000001000000001000FN00000000020220601000001000NNM   20220405162109    1W    00000100000000934000000000032M3    SASAMI  000000000000QM225017
BI00B32M3    SM22063 MW     20220519180D0204040              AVSSH 0.75F W            CCN000001000000001000FN00000000020220601000001000NNM   20220405162109    1W    00000100000000934000000000032M3    SASAMI  000000000000QM125015
BI00B32M3    SM22064 MW     20220526180D0204040              AVSSH 0.75F W            CCN000002000000002000FN00000000020220601000002000NNM   20220405162109    1W    00000100000000934000000000032M3    SASAMI  000000000000QM225018
BI00B32M3    SM22064 MW     20220526180D0204070              AVSSH 0.75F Y            CCN000001000000001000FN00000000020220601000001000NNM   20220405162109    1W    00000100000000934000000000032M3    SASAMI  000000000000QM225019
BI00B32M3    SM22061 MW     20220505180D0204130              AVSSH 1.25F B            CCN000002400000002400FN00000000020220601000002400NNM   20220405162109    1W    00000080000001458000000000032M3    SASAMI  000000000000QM324012
BI00B32M3    SM22062 MW     20220512180D0204130              AVSSH 1.25F B            CCN000001600000001600FN00000000020220601000001600NNM   20220405162109    1W    00000080000001458000000000032M3    SASAMI  000000000000QM424018
BI00B32M3    SM22063 MW     20220519180D0204130              AVSSH 1.25F B            CCN000000800000000800FN00000000020220601000000800NNM   20220405162109    1W    00000080000001458000000000032M3    SASAMI  000000000000QM125016
BI00B32M3    SM22064 MW     20220526180D0204140              AVSSH 1.25F W            CCN000000800000000800FN00000000020220601000000800NNM   20220405162109    1W    00000080000001458000000000032M3    SASAMI  000000000000QM225020
BI00B32M3    SM22061EMW     202205051800770375U              AVSS 0.3F BE             CCN000004000000004000FN00000000020220601000004000NNM   20220405162111    1W    00000200000000496000000000032M3    SASAMI  000000000000QE324002
BI00B32M3    SM22062EMW     202205121800770375U              AVSS 0.3F BE             CCN000004000000004000FN00000000020220601000004000NNM   20220405162111    1W    00000200000000496000000000032M3    SASAMI  000000000000QE424001
BI00B32M3    SM22063EMW     202205191800770375U              AVSS 0.3F BE             CCN000004000000004000FN00000000020220601000004000NNM   20220405162111    1W    00000200000000496000000000032M3    SASAMI  000000000000QE125001
BI00B32M3    SM22061EMW     2022050518007703743              AVSS 0.3F W/B            CCN000004000000004000FN00000000020220601000004000NNM   20220405162111    1W    00000200000000496000000000032M3    SASAMI  000000000000QE324003
BI00B32M3    SM22061EMW     2022050518007704192              AVSS 1.25F V             CCN000001600000001600FN00000000020220601000001600NNM   20220405162111    1W    00000080000001389000000000032M3    SASAMI  000000000000QE324004
BI00B32M3    SM22062EMW     2022051218007704192              AVSS 1.25F V             CCN000001600000001600FN00000000020220601000001600NNM   20220405162111    1W    00000080000001389000000000032M3    SASAMI  000000000000QE424002
BI00B32M3    SM22061EMW     2022050518007704140              AVSS 1.25F W             CCN000001600000001600FN00000000020220601000001600NNM   20220405162111    1W    00000080000001389000000000032M3    SASAMI  000000000000QE324005
BI00B32M3    SM22062EMW     2022051218007704140              AVSS 1.25F W             CCN000001600000001600FN00000000020220601000001600NNM   20220405162111    1W    00000080000001389000000000032M3    SASAMI  000000000000QE424003
BI00B32M3    SM22063EMW     2022051918007704140              AVSS 1.25F W             CCN000000800000000800FN00000000020220601000000800NNM   20220405162111    1W    00000080000001389000000000032M3    SASAMI  000000000000QE125002
BI00B32M3    SM22064EMW     2022052618007704140              AVSS 1.25F W             CCN000000800000000800FN00000000020220601000000800NNM   20220405162111    1W    00000080000001389000000000032M3    SASAMI  000000000000QE225001
BI00B32M3    SM22064HMW     2022052618007704030              AVSS 0.75F B             CCN000005000000005000FN00000000020220601000005000NNM   20220405162112    1W    00000100000000943000000000032M3    SASAMI  000000000000QH225001
BI00B32M3    @SM22061MMW    20220505181E50011ZZ              AVSSCS-S 0.5FX2 DGY/Y    CCN000003300000003300FN00000000020220601000003300NNM   20220405162108    1W    00000030000003096000000000032M3    SASAMI  000000000000QN324002
BI00B32M3    @SM22062MMW    20220512181E50011ZZ              AVSSCS-S 0.5FX2 DGY/Y    CCN000002700000002700FN00000000020220601000002700NNM   20220405162108    1W    00000030000003096000000000032M3    SASAMI  000000000000QN424001
BI00B32M3    @SM22063MMW    20220519181E50011ZZ              AVSSCS-S 0.5FX2 DGY/Y    CCN000001500000001500FN00000000020220601000001500NNM   20220405162108    1W    00000030000003096000000000032M3    SASAMI  000000000000QN125002
BI00B32M3    @SM22064MMW    20220526181E50011ZZ              AVSSCS-S 0.5FX2 DGY/Y    CCN000001500000001500FN00000000020220601000001500NNM   20220405162108    1W    00000030000003096000000000032M3    SASAMI  000000000000QN225001
BI00B32M3    @SM22061MMW    20220505181E48041ZZ              CAVSAS-S 0.3X2 GY/R      CCN000000350000000350FN00000000020220601000000350NNM   20220405162108    1W    00000035000002008700000000032M3    SASAMI  000000000000QN324001
BI00B32M3    @SM22063MMW    20220519181E48041ZZ              CAVSAS-S 0.3X2 GY/R      CCN000000350000000350FN00000000020220601000000350NNM   20220405162108    1W    00000035000002008700000000032M3    SASAMI  000000000000QN125001
BI00B32M8    PM2205B MW     2022042718007703961              AVSS 0.5F LG             CCN000001500000001500FN00000000020220501000001500NNE   20220405162541    1W    00000150000000674000000000032M8    PMPEMI  000000000000IF224001
BI00B32M8    @PM2205B MW    20220504181B32039S1              AVSSCS 0.5FX1 DGY        CCN000002400000002400FN00000000020220501000002400NNE   20220405162540    1W    00000040000002289000000000032M8    PMPEMI  000000000000IH324001
BI00B32M8    @PM2205B MW    20220504181D6910230              AVSSHCS 0.5FX2 B         CCN000004500000004500FN00000000020220501000004500NNE   20220405162540    1W    00000030000002385000000000032M8    PMPEMI  000000000000IH324002
BI00B32M8    @PM2205B MW    20220504181D6910235              AVSSHCS 0.5FX2 B/R       CCN000002100000002100FN00000000020220501000002100NNE   20220405162540    1W    00000030000002385000000000032M8    PMPEMI  000000000000IH324004
BI00B32M8    @PM2205B MW    20220504181D6910239              AVSSHCS 0.5FX2 B/L       CCN000001800000001800FN00000000020220501000001800NNE   20220405162540    1W    00000030000002385000000000032M8    PMPEMI  000000000000IH324003
BI00B32M8    PM2205BTMW     202204271801W004092              IVSSH 0.75F V            CCN000002600000002600FN00000000020220501000002600NNE   20220405162542    1W    00000130000000882000000000032M8    PMPEMI  000000000000IG224001
BI00B32M8    PM2205BTMW     202204271801W006940              IVSSH 0.35F W            CCN000002500000002500FN00000000020220501000002500NNE   20220405162542    1W    00000250000000452000000000032M8    PMPEMI  000000000000IG224004
BI00B32M8    PM2205BTMW     202204271801W006961              IVSSH 0.35F LG           CCN000002500000002500FN00000000020220501000002500NNE   20220405162542    1W    00000250000000452000000000032M8    PMPEMI  000000000000IG224003
BI00B32M8    PM2205BTMW     202204271801W006970              IVSSH 0.35F Y            CCN000017500000017500FN00000000020220501000017500NNE   20220405162542    1W    00000250000000452000000000032M8    PMPEMI  000000000000IG224005
BI00B32M8    PM2205BTMW     202204271801W006980              IVSSH 0.35F BR           CCN000007500000007500FN00000000020220501000007500NNE   20220405162542    1W    00000250000000452000000000032M8    PMPEMI  000000000000IG224002
BI00B32M8    PM22061 MW     2022050418007703992              AVSS 0.5F V              CCN000004500000004500FN00000000020220601000004500NNM   20220405164223    1W    00000150000000674000000000032M8    PMPEMI  000000000000IM324033
BI00B32M8    PM22062 MW     2022051118007703992              AVSS 0.5F V              CCN000007500000007500FN00000000020220601000007500NNM   20220405164223    1W    00000150000000674000000000032M8    PMPEMI  000000000000IM424027
BI00B32M8    PM22063 MW     2022051818007703992              AVSS 0.5F V              CCN000007500000007500FN00000000020220601000007500NNM   20220405164223    1W    00000150000000674000000000032M8    PMPEMI  000000000000IM125027
BI00B32M8    PM22064 MW     2022052518007703992              AVSS 0.5F V              CCN000004500000004500FN00000000020220601000004500NNM   20220405164223    1W    00000150000000674000000000032M8    PMPEMI  000000000000IM225022
BI00B32M8    PM22061 MW     2022050418007703930              AVSS 0.5F B              CCN000003000000003000FN00000000020220601000003000NNM   20220405164223    1W    00000150000000674000000000032M8    PMPEMI  000000000000IM324025
BI00B32M8    PM22062 MW     2022051118007703930              AVSS 0.5F B              CCN000006000000006000FN00000000020220601000006000NNM   20220405164223    1W    00000150000000674000000000032M8    PMPEMI  000000000000IM424019
BI00B32M8    PM22063 MW     2022051818007703930              AVSS 0.5F B              CCN000006000000006000FN00000000020220601000006000NNM   20220405164223    1W    00000150000000674000000000032M8    PMPEMI  000000000000IM125019
BI00B32M8    PM22064 MW     2022052518007703930              AVSS 0.5F B              CCN000004500000004500FN00000000020220601000004500NNM   20220405164223    1W    00000150000000674000000000032M8    PMPEMI  000000000000IM225014
BI00B32M8    PM22061 MW     2022050418007703940              AVSS 0.5F W              CCN000007500000007500FN00000000020220601000007500NNM   20220405164223    1W    00000150000000674000000000032M8    PMPEMI  000000000000IM324034
BI00B32M8    PM22062 MW     2022051118007703940              AVSS 0.5F W              CCN000012000000012000FN00000000020220601000012000NNM   20220405164223    1W    00000150000000674000000000032M8    PMPEMI  000000000000IM424028
BI00B32M8    PM22063 MW     2022051818007703940              AVSS 0.5F W              CCN000012000000012000FN00000000020220601000012000NNM   20220405164223    1W    00000150000000674000000000032M8    PMPEMI  000000000000IM125028
BI00B32M8    PM22064 MW     2022052518007703940              AVSS 0.5F W              CCN000007500000007500FN00000000020220601000007500NNM   20220405164223    1W    00000150000000674000000000032M8    PMPEMI  000000000000IM225023
BI00B32M8    PM22061 MW     2022050418007703941              AVSS 0.5F GY             CCN000001500000001500FN00000000020220601000001500NNM   20220405164223    1W    00000150000000674000000000032M8    PMPEMI  000000000000IM324028
BI00B32M8    PM22062 MW     2022051118007703941              AVSS 0.5F GY             CCN000001500000001500FN00000000020220601000001500NNM   20220405164223    1W    00000150000000674000000000032M8    PMPEMI  000000000000IM424022
BI00B32M8    PM22063 MW     2022051818007703941              AVSS 0.5F GY             CCN000001500000001500FN00000000020220601000001500NNM   20220405164223    1W    00000150000000674000000000032M8    PMPEMI  000000000000IM125022
BI00B32M8    PM22064 MW     2022052518007703941              AVSS 0.5F GY             CCN000001500000001500FN00000000020220601000001500NNM   20220405164223    1W    00000150000000674000000000032M8    PMPEMI  000000000000IM225017
BI00B32M8    PM22061 MW     2022050418007703943              AVSS 0.5F W/B            CCN000001500000001500FN00000000020220601000001500NNM   20220405164223    1W    00000150000000674000000000032M8    PMPEMI  000000000000IM324035
BI00B32M8    PM22061 MW     2022050418007703950              AVSS 0.5F R              CCN000004500000004500FN00000000020220601000004500NNM   20220405164223    1W    00000150000000674000000000032M8    PMPEMI  000000000000IM324032
BI00B32M8    PM22062 MW     2022051118007703950              AVSS 0.5F R              CCN000012000000012000FN00000000020220601000012000NNM   20220405164223    1W    00000150000000674000000000032M8    PMPEMI  000000000000IM424026
BI00B32M8    PM22063 MW     2022051818007703950              AVSS 0.5F R              CCN000012000000012000FN00000000020220601000012000NNM   20220405164223    1W    00000150000000674000000000032M8    PMPEMI  000000000000IM125026
BI00B32M8    PM22064 MW     2022052518007703950              AVSS 0.5F R              CCN000009000000009000FN00000000020220601000009000NNM   20220405164223    1W    00000150000000674000000000032M8    PMPEMI  000000000000IM225021
BI00B32M8    PM22061 MW     2022050418007703952              AVSS 0.5F P              CCN000001500000001500FN00000000020220601000001500NNM   20220405164223    1W    00000150000000674000000000032M8    PMPEMI  000000000000IM324031
BI00B32M8    PM22062 MW     2022051118007703952              AVSS 0.5F P              CCN000003000000003000FN00000000020220601000003000NNM   20220405164223    1W    00000150000000674000000000032M8    PMPEMI  000000000000IM424025
BI00B32M8    PM22063 MW     2022051818007703952              AVSS 0.5F P              CCN000001500000001500FN00000000020220601000001500NNM   20220405164223    1W    00000150000000674000000000032M8    PMPEMI  000000000000IM125025
BI00B32M8    PM22064 MW     2022052518007703952              AVSS 0.5F P              CCN000003000000003000FN00000000020220601000003000NNM   20220405164223    1W    00000150000000674000000000032M8    PMPEMI  000000000000IM225020
BI00B32M8    PM22061 MW     2022050418007703960              AVSS 0.5F G              CCN000004500000004500FN00000000020220601000004500NNM   20220405164223    1W    00000150000000674000000000032M8    PMPEMI  000000000000IM324027
BI00B32M8    PM22062 MW     2022051118007703960              AVSS 0.5F G              CCN000007500000007500FN00000000020220601000007500NNM   20220405164223    1W    00000150000000674000000000032M8    PMPEMI  000000000000IM424021
BI00B32M8    PM22063 MW     2022051818007703960              AVSS 0.5F G              CCN000007500000007500FN00000000020220601000007500NNM   20220405164223    1W    00000150000000674000000000032M8    PMPEMI  000000000000IM125021
BI00B32M8    PM22064 MW     2022052518007703960              AVSS 0.5F G              CCN000006000000006000FN00000000020220601000006000NNM   20220405164223    1W    00000150000000674000000000032M8    PMPEMI  000000000000IM225016
BI00B32M8    PM22061 MW     2022050418007703961              AVSS 0.5F LG             CCN000004500000004500FN00000000020220601000004500NNM   20220405164223    1W    00000150000000674000000000032M8    PMPEMI  000000000000IM324030
BI00B32M8    PM22062 MW     2022051118007703961              AVSS 0.5F LG             CCN000004500000004500FN00000000020220601000004500NNM   20220405164223    1W    00000150000000674000000000032M8    PMPEMI  000000000000IM424024
BI00B32M8    PM22063 MW     2022051818007703961              AVSS 0.5F LG             CCN000004500000004500FN00000000020220601000004500NNM   20220405164223    1W    00000150000000674000000000032M8    PMPEMI  000000000000IM125024
BI00B32M8    PM22064 MW     2022052518007703961              AVSS 0.5F LG             CCN000003000000003000FN00000000020220601000003000NNM   20220405164223    1W    00000150000000674000000000032M8    PMPEMI  000000000000IM225019
BI00B32M8    PM22061 MW     2022050418007703970              AVSS 0.5F Y              CCN000004500000004500FN00000000020220601000004500NNM   20220405164223    1W    00000150000000674000000000032M8    PMPEMI  000000000000IM324036
BI00B32M8    PM22062 MW     2022051118007703970              AVSS 0.5F Y              CCN000004500000004500FN00000000020220601000004500NNM   20220405164223    1W    00000150000000674000000000032M8    PMPEMI  000000000000IM424029
BI00B32M8    PM22063 MW     2022051818007703970              AVSS 0.5F Y              CCN000004500000004500FN00000000020220601000004500NNM   20220405164223    1W    00000150000000674000000000032M8    PMPEMI  000000000000IM125029
BI00B32M8    PM22064 MW     2022052518007703970              AVSS 0.5F Y              CCN000004500000004500FN00000000020220601000004500NNM   20220405164223    1W    00000150000000674000000000032M8    PMPEMI  000000000000IM225024
BI00B32M8    PM22061 MW     2022050418007703980              AVSS 0.5F BR             CCN000001500000001500FN00000000020220601000001500NNM   20220405164223    1W    00000150000000674000000000032M8    PMPEMI  000000000000IM324026
BI00B32M8    PM22062 MW     2022051118007703980              AVSS 0.5F BR             CCN000003000000003000FN00000000020220601000003000NNM   20220405164223    1W    00000150000000674000000000032M8    PMPEMI  000000000000IM424020
BI00B32M8    PM22063 MW     2022051818007703980              AVSS 0.5F BR             CCN000003000000003000FN00000000020220601000003000NNM   20220405164223    1W    00000150000000674000000000032M8    PMPEMI  000000000000IM125020
BI00B32M8    PM22064 MW     2022052518007703980              AVSS 0.5F BR             CCN000001500000001500FN00000000020220601000001500NNM   20220405164223    1W    00000150000000674000000000032M8    PMPEMI  000000000000IM225015
BI00B32M8    PM22061 MW     2022050418007703990              AVSS 0.5F L              CCN000001500000001500FN00000000020220601000001500NNM   20220405164223    1W    00000150000000674000000000032M8    PMPEMI  000000000000IM324029
BI00B32M8    PM22062 MW     2022051118007703990              AVSS 0.5F L              CCN000004500000004500FN00000000020220601000004500NNM   20220405164223    1W    00000150000000674000000000032M8    PMPEMI  000000000000IM424023
BI00B32M8    PM22063 MW     2022051818007703990              AVSS 0.5F L              CCN000004500000004500FN00000000020220601000004500NNM   20220405164223    1W    00000150000000674000000000032M8    PMPEMI  000000000000IM125023
BI00B32M8    PM22064 MW     2022052518007703990              AVSS 0.5F L              CCN000003000000003000FN00000000020220601000003000NNM   20220405164223    1W    00000150000000674000000000032M8    PMPEMI  000000000000IM225018
BI00B32M8    PM22061 MW     2022050418007704040              AVSS 0.75F W             CCN000001000000001000FN00000000020220601000001000NNM   20220405164223    1W    00000100000000943000000000032M8    PMPEMI  000000000000IM324038
BI00B32M8    PM22062 MW     2022051118007704040              AVSS 0.75F W             CCN000001000000001000FN00000000020220601000001000NNM   20220405164223    1W    00000100000000943000000000032M8    PMPEMI  000000000000IM424031
BI00B32M8    PM22063 MW     2022051818007704040              AVSS 0.75F W             CCN000001000000001000FN00000000020220601000001000NNM   20220405164223    1W    00000100000000943000000000032M8    PMPEMI  000000000000IM125031
BI00B32M8    PM22061 MW     2022050418007704050              AVSS 0.75F R             CCN000001000000001000FN00000000020220601000001000NNM   20220405164223    1W    00000100000000943000000000032M8    PMPEMI  000000000000IM324037
BI00B32M8    PM22062 MW     2022051118007704050              AVSS 0.75F R             CCN000001000000001000FN00000000020220601000001000NNM   20220405164223    1W    00000100000000943000000000032M8    PMPEMI  000000000000IM424030
BI00B32M8    PM22063 MW     2022051818007704050              AVSS 0.75F R             CCN000001000000001000FN00000000020220601000001000NNM   20220405164223    1W    00000100000000943000000000032M8    PMPEMI  000000000000IM125030
BI00B32M8    PM22064 MW     2022052518007704050              AVSS 0.75F R             CCN000001000000001000FN00000000020220601000001000NNM   20220405164223    1W    00000100000000943000000000032M8    PMPEMI  000000000000IM225025
BI00B32M8    PM22061 MW     2022050418007704152              AVSS 1.25F P             CCN000001600000001600FN00000000020220601000001600NNM   20220405164223    1W    00000080000001389000000000032M8    PMPEMI  000000000000IM324039
BI00B32M8    PM22062 MW     2022051118007704152              AVSS 1.25F P             CCN000002400000002400FN00000000020220601000002400NNM   20220405164223    1W    00000080000001389000000000032M8    PMPEMI  000000000000IM424032
BI00B32M8    PM22063 MW     2022051818007704152              AVSS 1.25F P             CCN000002400000002400FN00000000020220601000002400NNM   20220405164223    1W    00000080000001389000000000032M8    PMPEMI  000000000000IM125032
BI00B32M8    PM22064 MW     2022052518007704152              AVSS 1.25F P             CCN000002400000002400FN00000000020220601000002400NNM   20220405164223    1W    00000080000001389000000000032M8    PMPEMI  000000000000IM225026
BI00B32M8    PM22061 MW     2022050418007704170              AVSS 1.25F Y             CCN000000800000000800FN00000000020220601000000800NNM   20220405164223    1W    00000080000001389000000000032M8    PMPEMI  000000000000IM324040
BI00B32M8    PM22062 MW     2022051118007704170              AVSS 1.25F Y             CCN000001600000001600FN00000000020220601000001600NNM   20220405164223    1W    00000080000001389000000000032M8    PMPEMI  000000000000IM424033
BI00B32M8    PM22063 MW     2022051818007704170              AVSS 1.25F Y             CCN000000800000000800FN00000000020220601000000800NNM   20220405164223    1W    00000080000001389000000000032M8    PMPEMI  000000000000IM125033
BI00B32M8    @PM22061 MW    20220504181B0910241              CAVSAS 0.5X2 GY          CCN000035100000035100FN00000000020220601000035100NNM   20220405164220    1W    00000030000002680000000000032M8    PMPEMI  000000000000IM324004
BI00B32M8    @PM22062 MW    20220511181B0910241              CAVSAS 0.5X2 GY          CCN000043800000043800FN00000000020220601000043800NNM   20220405164220    1W    00000030000002680000000000032M8    PMPEMI  000000000000IM424001
BI00B32M8    @PM22063 MW    20220518181B0910241              CAVSAS 0.5X2 GY          CCN000043800000043800FN00000000020220601000043800NNM   20220405164220    1W    00000030000002680000000000032M8    PMPEMI  000000000000IM125001
BI00B32M8    @PM22064 MW    20220525181B0910241              CAVSAS 0.5X2 GY          CCN000035100000035100FN00000000020220601000035100NNM   20220405164220    1W    00000030000002680000000000032M8    PMPEMI  000000000000IM225001
BI00B32M8    @PM22061 MW    20220504181B32037Z5              AVSSCS 0.3FX1 DGY/L      CCN000002000000002000FN00000000020220601000002000NNM   20220405164220    1W    00000050000001780000000000032M8    PMPEMI  000000000000IM324005
BI00B32M8    @PM22061 MW    20220504181B32039S1              AVSSCS 0.5FX1 DGY        CCN000001200000001200FN00000000020220601000001200NNM   20220405164220    1W    00000040000002289000000000032M8    PMPEMI  000000000000IM324006
BI00B32M8    @PM22062 MW    20220511181B32039S1              AVSSCS 0.5FX1 DGY        CCN000002000000002000FN00000000020220601000002000NNM   20220405164220    1W    00000040000002289000000000032M8    PMPEMI  000000000000IM424002
BI00B32M8    @PM22063 MW    20220518181B32039S1              AVSSCS 0.5FX1 DGY        CCN000002000000002000FN00000000020220601000002000NNM   20220405164220    1W    00000040000002289000000000032M8    PMPEMI  000000000000IM125002
BI00B32M8    @PM22064 MW    20220525181B32039S1              AVSSCS 0.5FX1 DGY        CCN000002000000002000FN00000000020220601000002000NNM   20220405164220    1W    00000040000002289000000000032M8    PMPEMI  000000000000IM225002
BI00B32M8    @PM22061 MW    20220504181B32102G0              AVSSCS 0.5FX2 DGY/BR     CCN000001500000001500FN00000000020220601000001500NNM   20220405164220    1W    00000030000002903000000000032M8    PMPEMI  000000000000IM324007
BI00B32M8    @PM22061 MW    20220504181B32102Y8              AVSSCS 0.5FX2 DGY/R      CCN000000300000000300FN00000000020220601000000300NNM   20220405164220    1W    00000030000002779000000000032M8    PMPEMI  000000000000IM324008
BI00B32M8    @PM22061 MW    20220504181D6910230              AVSSHCS 0.5FX2 B         CCN000021900000021900FN00000000020220601000021900NNM   20220405164220    1W    00000030000002385000000000032M8    PMPEMI  000000000000IM324009
BI00B32M8    @PM22062 MW    20220511181D6910230              AVSSHCS 0.5FX2 B         CCN000013200000013200FN00000000020220601000013200NNM   20220405164220    1W    00000030000002385000000000032M8    PMPEMI  000000000000IM424003
BI00B32M8    @PM22063 MW    20220518181D6910230              AVSSHCS 0.5FX2 B         CCN000018000000018000FN00000000020220601000018000NNM   20220405164220    1W    00000030000002385000000000032M8    PMPEMI  000000000000IM125003
BI00B32M8    @PM22064 MW    20220525181D6910230              AVSSHCS 0.5FX2 B         CCN000013200000013200FN00000000020220601000013200NNM   20220405164220    1W    00000030000002385000000000032M8    PMPEMI  000000000000IM225003
BI00B32M8    @PM22061 MW    20220504181D6910235              AVSSHCS 0.5FX2 B/R       CCN000001500000001500FN00000000020220601000001500NNM   20220405164220    1W    00000030000002385000000000032M8    PMPEMI  000000000000IM324011
BI00B32M8    @PM22062 MW    20220511181D6910235              AVSSHCS 0.5FX2 B/R       CCN000002100000002100FN00000000020220601000002100NNM   20220405164220    1W    00000030000002385000000000032M8    PMPEMI  000000000000IM424005
BI00B32M8    @PM22063 MW    20220518181D6910235              AVSSHCS 0.5FX2 B/R       CCN000002100000002100FN00000000020220601000002100NNM   20220405164220    1W    00000030000002385000000000032M8    PMPEMI  000000000000IM125005
BI00B32M8    @PM22064 MW    20220525181D6910235              AVSSHCS 0.5FX2 B/R       CCN000001500000001500FN00000000020220601000001500NNM   20220405164220    1W    00000030000002385000000000032M8    PMPEMI  000000000000IM225005
BI00B32M8    @PM22061 MW    20220504181D6910239              AVSSHCS 0.5FX2 B/L       CCN000002400000002400FN00000000020220601000002400NNM   20220405164220    1W    00000030000002385000000000032M8    PMPEMI  000000000000IM324010
BI00B32M8    @PM22062 MW    20220511181D6910239              AVSSHCS 0.5FX2 B/L       CCN000001500000001500FN00000000020220601000001500NNM   20220405164220    1W    00000030000002385000000000032M8    PMPEMI  000000000000IM424004
BI00B32M8    @PM22063 MW    20220518181D6910239              AVSSHCS 0.5FX2 B/L       CCN000001500000001500FN00000000020220601000001500NNM   20220405164220    1W    00000030000002385000000000032M8    PMPEMI  000000000000IM125004
BI00B32M8    @PM22064 MW    20220525181D6910239              AVSSHCS 0.5FX2 B/L       CCN000002400000002400FN00000000020220601000002400NNM   20220405164220    1W    00000030000002385000000000032M8    PMPEMI  000000000000IM225004
BI00B32M8    @PM22061 MW    20220504181F21009ZZ              AVSSHCS-S 0.5FX2 B       CCN000003300000003300FN00000000020220601000003300NNM   20220405164220    1W    00000030000002531400000000032M8    PMPEMI  000000000000IM324012
BI00B32M8    @PM22062 MW    20220511181F21009ZZ              AVSSHCS-S 0.5FX2 B       CCN000003300000003300FN00000000020220601000003300NNM   20220405164220    1W    00000030000002531400000000032M8    PMPEMI  000000000000IM424006
BI00B32M8    @PM22063 MW    20220518181F21009ZZ              AVSSHCS-S 0.5FX2 B       CCN000001500000001500FN00000000020220601000001500NNM   20220405164220    1W    00000030000002531400000000032M8    PMPEMI  000000000000IM125006
BI00B32M8    PM22061TMW     202205041801W003930              IVSSH 0.5F B             CCN000036000000036000FN00000000020220601000036000NNM   20220405164224    1W    00000180000000625000000000032M8    PMPEMI  000000000000IT324006
BI00B32M8    PM22062TMW     202205111801W003930              IVSSH 0.5F B             CCN000046800000046800FN00000000020220601000046800NNM   20220405164224    1W    00000180000000625000000000032M8    PMPEMI  000000000000IT424005
BI00B32M8    PM22063TMW     202205181801W003930              IVSSH 0.5F B             CCN000046800000046800FN00000000020220601000046800NNM   20220405164224    1W    00000180000000625000000000032M8    PMPEMI  000000000000IT125004
BI00B32M8    PM22064TMW     202205251801W003930              IVSSH 0.5F B             CCN000046800000046800FN00000000020220601000046800NNM   20220405164224    1W    00000180000000625000000000032M8    PMPEMI  000000000000IT225002
BI00B32M8    PM22061TMW     202205041801W003940              IVSSH 0.5F W             CCN000021600000021600FN00000000020220601000021600NNM   20220405164224    1W    00000180000000625000000000032M8    PMPEMI  000000000000IT324017
BI00B32M8    PM22062TMW     202205111801W003940              IVSSH 0.5F W             CCN000023400000023400FN00000000020220601000023400NNM   20220405164224    1W    00000180000000625000000000032M8    PMPEMI  000000000000IT424016
BI00B32M8    PM22063TMW     202205181801W003940              IVSSH 0.5F W             CCN000023400000023400FN00000000020220601000023400NNM   20220405164224    1W    00000180000000625000000000032M8    PMPEMI  000000000000IT125015
BI00B32M8    PM22064TMW     202205251801W003940              IVSSH 0.5F W             CCN000023400000023400FN00000000020220601000023400NNM   20220405164224    1W    00000180000000625000000000032M8    PMPEMI  000000000000IT225013
BI00B32M8    PM22061TMW     202205041801W003941              IVSSH 0.5F GY            CCN000021600000021600FN00000000020220601000021600NNM   20220405164224    1W    00000180000000625000000000032M8    PMPEMI  000000000000IT324010
