BI00B32AG    @XG22041LMW    20220302181E48031ZZ              CAVSAS-S 0.3X2 GY        CCN000009450000009450FN00000000020220401000009450NNM   20220109191713    1W    00000035000002008700000000032AG    XGXGY   000000000000XY322001
BI00B32AG    @XG22042LMW    20220309181E48031ZZ              CAVSAS-S 0.3X2 GY        CCN000003500000003500FN00000000020220401000003500NNM   20220109191713    1W    00000035000002008700000000032AG    XGXGY   000000000000XY422001
BI00B32AG    @XG22043LMW    20220316181E48031ZZ              CAVSAS-S 0.3X2 GY        CCN000003500000003500FN00000000020220401000003500NNM   20220109191713    1W    00000035000002008700000000032AG    XGXGY   000000000000XY123001
BI00B32AG    @XG22044LMW    20220323181E48031ZZ              CAVSAS-S 0.3X2 GY        CCN000001750000001750FN00000000020220401000001750NNM   20220109191713    1W    00000035000002008700000000032AG    XGXGY   000000000000XY223001
BI00B32AG    @XG2204ALMW    20220309181E48022ZZ              CAVSAS-S 0.5X2 GY        CCN000000300000000300FN00000000020220401000000300NNE   20220109191707    1W    00000030000002561000000000032AG    XGXGY   000000000000XU422001
BI00B32BF    TT22041BMW     20220222180D0203734              AVSSH 0.3F B/W           CCN000002000000002000FN00000000020220401000002000NNM   20220109182501    1W    00000200000000515000000000032BF    TTTJY   000000000000NB222025
BI00B32BF    TT22042BMW     20220301180D0203734              AVSSH 0.3F B/W           CCN000002000000002000FN00000000020220401000002000NNM   20220109182501    1W    00000200000000515000000000032BF    TTTJY   000000000000NB322024
BI00B32BF    TT22041BMW     20220222180D0203763              AVSSH 0.3F G/B           CCN000002000000002000FN00000000020220401000002000NNM   20220109182501    1W    00000200000000515000000000032BF    TTTJY   000000000000NB222026
BI00B32BF    TT22041BMW     20220222180D0203767              AVSSH 0.3F G/Y           CCN000002000000002000FN00000000020220401000002000NNM   20220109182501    1W    00000200000000515000000000032BF    TTTJY   000000000000NB222027
BI00B32BF    TT22042BMW     20220301180D0203767              AVSSH 0.3F G/Y           CCN000002000000002000FN00000000020220401000002000NNM   20220109182501    1W    00000200000000515000000000032BF    TTTJY   000000000000NB322025
BI00B32BF    TT22041BMW     20220222180D0203790              AVSSH 0.3F L             CCN000002000000002000FN00000000020220401000002000NNM   20220109182501    1W    00000200000000515000000000032BF    TTTJY   000000000000NB222028
BI00B32BF    TT22041BMW     20220222180D0203795              AVSSH 0.3F L/R           CCN000002000000002000FN00000000020220401000002000NNM   20220109182501    1W    00000200000000515000000000032BF    TTTJY   000000000000NB222029
BI00B32BF    TT22042BMW     20220301180D0203795              AVSSH 0.3F L/R           CCN000002000000002000FN00000000020220401000002000NNM   20220109182501    1W    00000200000000515000000000032BF    TTTJY   000000000000NB322026
BI00B32BF    TT22041BMW     20220222180D0203750              AVSSH 0.3F R             CCN000002000000002000FN00000000020220401000002000NNM   20220109182501    1W    00000200000000515000000000032BF    TTTJY   000000000000NB222030
BI00B32BF    TT22041BMW     20220222180D0203740              AVSSH 0.3F W             CCN000002000000002000FN00000000020220401000002000NNM   20220109182501    1W    00000200000000515000000000032BF    TTTJY   000000000000NB222031
BI00B32BF    TT22041BMW     20220222180D0203746              AVSSH 0.3F W/G           CCN000002000000002000FN00000000020220401000002000NNM   20220109182501    1W    00000200000000515000000000032BF    TTTJY   000000000000NB222032
BI00B32BF    TT22041BMW     20220222180D0203773              AVSSH 0.3F Y/B           CCN000002000000002000FN00000000020220401000002000NNM   20220109182501    1W    00000200000000515000000000032BF    TTTJY   000000000000NB222033
BI00B32BF    TT22042BMW     20220301180D0203773              AVSSH 0.3F Y/B           CCN000002000000002000FN00000000020220401000002000NNM   20220109182501    1W    00000200000000515000000000032BF    TTTJY   000000000000NB322027
BI00B32BF    TT22041BMW     20220222180D0203775              AVSSH 0.3F Y/R           CCN000002000000002000FN00000000020220401000002000NNM   20220109182501    1W    00000200000000515000000000032BF    TTTJY   000000000000NB222034
BI00B32BF    TT22041BMW     20220222180D0203930              AVSSH 0.5F B             CCN000003000000003000FN00000000020220401000003000NNM   20220109182501    1W    00000150000000689000000000032BF    TTTJY   000000000000NB222035
BI00B32BF    TT22042BMW     20220301180D0203930              AVSSH 0.5F B             CCN000001500000001500FN00000000020220401000001500NNM   20220109182501    1W    00000150000000689000000000032BF    TTTJY   000000000000NB322028
BI00B32BF    TT22041BMW     20220222180D0203935              AVSSH 0.5F B/R           CCN000001500000001500FN00000000020220401000001500NNM   20220109182501    1W    00000150000000689000000000032BF    TTTJY   000000000000NB222036
BI00B32BF    TT22042BMW     20220301180D0203935              AVSSH 0.5F B/R           CCN000001500000001500FN00000000020220401000001500NNM   20220109182501    1W    00000150000000689000000000032BF    TTTJY   000000000000NB322029
BI00B32BF    TT22041BMW     20220222180D0203980              AVSSH 0.5F BR            CCN000001500000001500FN00000000020220401000001500NNM   20220109182501    1W    00000150000000689000000000032BF    TTTJY   000000000000NB222037
BI00B32BF    TT22041BMW     20220222180D0203960              AVSSH 0.5F G             CCN000001500000001500FN00000000020220401000001500NNM   20220109182501    1W    00000150000000689000000000032BF    TTTJY   000000000000NB222038
BI00B32BF    TT22042BMW     20220301180D0203960              AVSSH 0.5F G             CCN000003000000003000FN00000000020220401000003000NNM   20220109182501    1W    00000150000000689000000000032BF    TTTJY   000000000000NB322030
BI00B32BF    TT22041BMW     20220222180D0203963              AVSSH 0.5F G/B           CCN000001500000001500FN00000000020220401000001500NNM   20220109182501    1W    00000150000000689000000000032BF    TTTJY   000000000000NB222039
BI00B32BF    TT22042BMW     20220301180D0203963              AVSSH 0.5F G/B           CCN000001500000001500FN00000000020220401000001500NNM   20220109182501    1W    00000150000000689000000000032BF    TTTJY   000000000000NB322031
BI00B32BF    TT22041BMW     20220222180D0203965              AVSSH 0.5F G/R           CCN000001500000001500FN00000000020220401000001500NNM   20220109182501    1W    00000150000000689000000000032BF    TTTJY   000000000000NB222040
BI00B32BF    TT22042BMW     20220301180D0203965              AVSSH 0.5F G/R           CCN000001500000001500FN00000000020220401000001500NNM   20220109182501    1W    00000150000000689000000000032BF    TTTJY   000000000000NB322032
BI00B32BF    TT22041BMW     20220222180D0203941              AVSSH 0.5F GY            CCN000003000000003000FN00000000020220401000003000NNM   20220109182501    1W    00000150000000689000000000032BF    TTTJY   000000000000NB222041
BI00B32BF    TT22042BMW     20220301180D0203941              AVSSH 0.5F GY            CCN000001500000001500FN00000000020220401000001500NNM   20220109182501    1W    00000150000000689000000000032BF    TTTJY   000000000000NB322033
BI00B32BF    TT22041BMW     20220222180D0203990              AVSSH 0.5F L             CCN000004500000004500FN00000000020220401000004500NNM   20220109182501    1W    00000150000000689000000000032BF    TTTJY   000000000000NB222042
BI00B32BF    TT22042BMW     20220301180D0203990              AVSSH 0.5F L             CCN000001500000001500FN00000000020220401000001500NNM   20220109182501    1W    00000150000000689000000000032BF    TTTJY   000000000000NB322034
BI00B32BF    TT22043BMW     20220308180D0203990              AVSSH 0.5F L             CCN000001500000001500FN00000000020220401000001500NNM   20220109182501    1W    00000150000000689000000000032BF    TTTJY   000000000000NB422025
BI00B32BF    TT22041BMW     20220222180D0203995              AVSSH 0.5F L/R           CCN000001500000001500FN00000000020220401000001500NNM   20220109182501    1W    00000150000000689000000000032BF    TTTJY   000000000000NB222043
BI00B32BF    TT22041BMW     20220222180D0203961              AVSSH 0.5F LG            CCN000001500000001500FN00000000020220401000001500NNM   20220109182501    1W    00000150000000689000000000032BF    TTTJY   000000000000NB222044
BI00B32BF    TT22041BMW     20220222180D0203952              AVSSH 0.5F P             CCN000001500000001500FN00000000020220401000001500NNM   20220109182501    1W    00000150000000689000000000032BF    TTTJY   000000000000NB222045
BI00B32BF    TT22042BMW     20220301180D0203952              AVSSH 0.5F P             CCN000001500000001500FN00000000020220401000001500NNM   20220109182501    1W    00000150000000689000000000032BF    TTTJY   000000000000NB322035
BI00B32BF    TT22041BMW     20220222180D02039G6              AVSSH 0.5F P/L           CCN000001500000001500FN00000000020220401000001500NNM   20220109182501    1W    00000150000000689000000000032BF    TTTJY   000000000000NB222046
BI00B32BF    TT22042BMW     20220301180D02039G6              AVSSH 0.5F P/L           CCN000001500000001500FN00000000020220401000001500NNM   20220109182501    1W    00000150000000689000000000032BF    TTTJY   000000000000NB322036
BI00B32BF    TT22041BMW     20220222180D0203950              AVSSH 0.5F R             CCN000003000000003000FN00000000020220401000003000NNM   20220109182501    1W    00000150000000689000000000032BF    TTTJY   000000000000NB222047
BI00B32BF    TT22042BMW     20220301180D0203950              AVSSH 0.5F R             CCN000001500000001500FN00000000020220401000001500NNM   20220109182501    1W    00000150000000689000000000032BF    TTTJY   000000000000NB322037
BI00B32BF    TT22041BMW     20220222180D0203953              AVSSH 0.5F R/B           CCN000001500000001500FN00000000020220401000001500NNM   20220109182501    1W    00000150000000689000000000032BF    TTTJY   000000000000NB222048
BI00B32BF    TT22041BMW     20220222180D0203959              AVSSH 0.5F R/L           CCN000001500000001500FN00000000020220401000001500NNM   20220109182501    1W    00000150000000689000000000032BF    TTTJY   000000000000NB222049
BI00B32BF    TT22041BMW     20220222180D0203957              AVSSH 0.5F R/Y           CCN000001500000001500FN00000000020220401000001500NNM   20220109182501    1W    00000150000000689000000000032BF    TTTJY   000000000000NB222050
BI00B32BF    TT22041BMW     20220222180D0203992              AVSSH 0.5F V             CCN000001500000001500FN00000000020220401000001500NNM   20220109182501    1W    00000150000000689000000000032BF    TTTJY   000000000000NB222051
BI00B32BF    TT22041BMW     20220222180D0203940              AVSSH 0.5F W             CCN000001500000001500FN00000000020220401000001500NNM   20220109182501    1W    00000150000000689000000000032BF    TTTJY   000000000000NB222052
BI00B32BF    TT22041BMW     20220222180D0203943              AVSSH 0.5F W/B           CCN000001500000001500FN00000000020220401000001500NNM   20220109182501    1W    00000150000000689000000000032BF    TTTJY   000000000000NB222053
BI00B32BF    TT22042BMW     20220301180D0203943              AVSSH 0.5F W/B           CCN000001500000001500FN00000000020220401000001500NNM   20220109182501    1W    00000150000000689000000000032BF    TTTJY   000000000000NB322038
BI00B32BF    TT22041BMW     20220222180D0203949              AVSSH 0.5F W/L           CCN000001500000001500FN00000000020220401000001500NNM   20220109182501    1W    00000150000000689000000000032BF    TTTJY   000000000000NB222054
BI00B32BF    TT22042BMW     20220301180D0203949              AVSSH 0.5F W/L           CCN000001500000001500FN00000000020220401000001500NNM   20220109182501    1W    00000150000000689000000000032BF    TTTJY   000000000000NB322039
BI00B32BF    TT22041BMW     20220222180D0203945              AVSSH 0.5F W/R           CCN000003000000003000FN00000000020220401000003000NNM   20220109182501    1W    00000150000000689000000000032BF    TTTJY   000000000000NB222055
BI00B32BF    TT22042BMW     20220301180D0203945              AVSSH 0.5F W/R           CCN000001500000001500FN00000000020220401000001500NNM   20220109182501    1W    00000150000000689000000000032BF    TTTJY   000000000000NB322040
BI00B32BF    TT22041BMW     20220222180D0203970              AVSSH 0.5F Y             CCN000001500000001500FN00000000020220401000001500NNM   20220109182501    1W    00000150000000689000000000032BF    TTTJY   000000000000NB222056
BI00B32BF    TT22042BMW     20220301180D0203970              AVSSH 0.5F Y             CCN000001500000001500FN00000000020220401000001500NNM   20220109182501    1W    00000150000000689000000000032BF    TTTJY   000000000000NB322041
BI00B32BF    TT22041BMW     20220222180D0203973              AVSSH 0.5F Y/B           CCN000001500000001500FN00000000020220401000001500NNM   20220109182501    1W    00000150000000689000000000032BF    TTTJY   000000000000NB222057
BI00B32BF    TT22041BMW     20220222180D0203976              AVSSH 0.5F Y/G           CCN000001500000001500FN00000000020220401000001500NNM   20220109182501    1W    00000150000000689000000000032BF    TTTJY   000000000000NB222058
BI00B32BF    TT22041BMW     20220222180D0204030              AVSSH 0.75F B            CCN000001000000001000FN00000000020220401000001000NNM   20220109182501    1W    00000100000000934000000000032BF    TTTJY   000000000000NB222059
BI00B32BF    TT22041BMW     20220222180D0204035              AVSSH 0.75F B/R          CCN000001000000001000FN00000000020220401000001000NNM   20220109182501    1W    00000100000000934000000000032BF    TTTJY   000000000000NB222060
BI00B32BF    TT22042BMW     20220301180D0204035              AVSSH 0.75F B/R          CCN000001000000001000FN00000000020220401000001000NNM   20220109182501    1W    00000100000000934000000000032BF    TTTJY   000000000000NB322042
BI00B32BF    TT22041BMW     20220222180D0204060              AVSSH 0.75F G            CCN000003000000003000FN00000000020220401000003000NNM   20220109182501    1W    00000100000000934000000000032BF    TTTJY   000000000000NB222061
BI00B32BF    TT22042BMW     20220301180D0204060              AVSSH 0.75F G            CCN000001000000001000FN00000000020220401000001000NNM   20220109182501    1W    00000100000000934000000000032BF    TTTJY   000000000000NB322043
BI00B32BF    TT22043BMW     20220308180D0204060              AVSSH 0.75F G            CCN000001000000001000FN00000000020220401000001000NNM   20220109182501    1W    00000100000000934000000000032BF    TTTJY   000000000000NB422026
BI00B32BF    TT22044BMW     20220315180D0204060              AVSSH 0.75F G            CCN000002000000002000FN00000000020220401000002000NNM   20220109182501    1W    00000100000000934000000000032BF    TTTJY   000000000000NB123021
BI00B32BF    TT22041BMW     20220222180D0204050              AVSSH 0.75F R            CCN000001000000001000FN00000000020220401000001000NNM   20220109182501    1W    00000100000000934000000000032BF    TTTJY   000000000000NB222062
BI00B32BF    TT22042BMW     20220301180D0204050              AVSSH 0.75F R            CCN000001000000001000FN00000000020220401000001000NNM   20220109182501    1W    00000100000000934000000000032BF    TTTJY   000000000000NB322044
BI00B32BF    TT22041BMW     20220222180D0204043              AVSSH 0.75F W/B          CCN000001000000001000FN00000000020220401000001000NNM   20220109182501    1W    00000100000000934000000000032BF    TTTJY   000000000000NB222063
BI00B32BF    TT22041BMW     20220222180D0204130              AVSSH 1.25F B            CCN000001600000001600FN00000000020220401000001600NNM   20220109182501    1W    00000080000001458000000000032BF    TTTJY   000000000000NB222064
BI00B32BF    TT22042BMW     20220301180D0204130              AVSSH 1.25F B            CCN000000800000000800FN00000000020220401000000800NNM   20220109182501    1W    00000080000001458000000000032BF    TTTJY   000000000000NB322045
BI00B32BF    TT22043BMW     20220308180D0204130              AVSSH 1.25F B            CCN000000800000000800FN00000000020220401000000800NNM   20220109182501    1W    00000080000001458000000000032BF    TTTJY   000000000000NB422027
BI00B32BF    TT22041BMW     20220222180D0204134              AVSSH 1.25F B/W          CCN000000800000000800FN00000000020220401000000800NNM   20220109182501    1W    00000080000001458000000000032BF    TTTJY   000000000000NB222065
BI00B32BF    TT22041BMW     20220222180D0204180              AVSSH 1.25F BR           CCN000000800000000800FN00000000020220401000000800NNM   20220109182501    1W    00000080000001458000000000032BF    TTTJY   000000000000NB222066
BI00B32BF    TT22041BMW     20220222180D0204190              AVSSH 1.25F L            CCN000000800000000800FN00000000020220401000000800NNM   20220109182501    1W    00000080000001458000000000032BF    TTTJY   000000000000NB222067
BI00B32BF    TT22041BMW     20220222180D0204150              AVSSH 1.25F R            CCN000001600000001600FN00000000020220401000001600NNM   20220109182501    1W    00000080000001458000000000032BF    TTTJY   000000000000NB222068
BI00B32BF    TT22042BMW     20220301180D0204150              AVSSH 1.25F R            CCN000001600000001600FN00000000020220401000001600NNM   20220109182501    1W    00000080000001458000000000032BF    TTTJY   000000000000NB322046
BI00B32BF    TT22041BMW     20220222180D0204159              AVSSH 1.25F R/L          CCN000002400000002400FN00000000020220401000002400NNM   20220109182501    1W    00000080000001458000000000032BF    TTTJY   000000000000NB222069
BI00B32BF    TT22042BMW     20220301180D0204159              AVSSH 1.25F R/L          CCN000000800000000800FN00000000020220401000000800NNM   20220109182501    1W    00000080000001458000000000032BF    TTTJY   000000000000NB322047
BI00B32BF    TT22041BMW     20220222180D0204143              AVSSH 1.25F W/B          CCN000002400000002400FN00000000020220401000002400NNM   20220109182501    1W    00000080000001458000000000032BF    TTTJY   000000000000NB222070
BI00B32BF    TT22042BMW     20220301180D0204143              AVSSH 1.25F W/B          CCN000000800000000800FN00000000020220401000000800NNM   20220109182501    1W    00000080000001458000000000032BF    TTTJY   000000000000NB322048
BI00B32BF    TT22043BMW     20220308180D0204143              AVSSH 1.25F W/B          CCN000000800000000800FN00000000020220401000000800NNM   20220109182501    1W    00000080000001458000000000032BF    TTTJY   000000000000NB422028
BI00B32BF    TT22044BMW     20220315180D0204143              AVSSH 1.25F W/B          CCN000000800000000800FN00000000020220401000000800NNM   20220109182501    1W    00000080000001458000000000032BF    TTTJY   000000000000NB123022
BI00B32BF    TT22041BMW     20220222180D0204170              AVSSH 1.25F Y            CCN000001600000001600FN00000000020220401000001600NNM   20220109182501    1W    00000080000001458000000000032BF    TTTJY   000000000000NB222071
BI00B32BF    TT22042BMW     20220301180D0204170              AVSSH 1.25F Y            CCN000000800000000800FN00000000020220401000000800NNM   20220109182501    1W    00000080000001458000000000032BF    TTTJY   000000000000NB322049
BI00B32BF    TT22043BMW     20220308180D0204170              AVSSH 1.25F Y            CCN000000800000000800FN00000000020220401000000800NNM   20220109182501    1W    00000080000001458000000000032BF    TTTJY   000000000000NB422029
BI00B32BF    TT22041KMW     2022022218009603930              AVS 0.5 B                CCN000004000000004000FN00000000020220401000004000NNM   20220109182503    1W    00000100000000850000000000032BF    TTTJY   000000000000NK222019
BI00B32BF    TT22042KMW     2022030118009603930              AVS 0.5 B                CCN000002000000002000FN00000000020220401000002000NNM   20220109182503    1W    00000100000000850000000000032BF    TTTJY   000000000000NK322001
BI00B32BF    TT22043KMW     2022030818009603930              AVS 0.5 B                CCN000001000000001000FN00000000020220401000001000NNM   20220109182503    1W    00000100000000850000000000032BF    TTTJY   000000000000NK422001
BI00B32BF    TT22041KMW     2022022218009603940              AVS 0.5 W                CCN000003000000003000FN00000000020220401000003000NNM   20220109182503    1W    00000100000000850000000000032BF    TTTJY   000000000000NK222020
BI00B32BF    TT22042KMW     2022030118009603940              AVS 0.5 W                CCN000002000000002000FN00000000020220401000002000NNM   20220109182503    1W    00000100000000850000000000032BF    TTTJY   000000000000NK322002
BI00B32BF    TT22041KMW     2022022218009604050              AVS 0.85 R               CCN000006000000006000FN00000000020220401000006000NNM   20220109182503    1W    00000100000001167700000000032BF    TTTJY   000000000000NK222021
BI00B32BF    TT22042KMW     2022030118009604050              AVS 0.85 R               CCN000003000000003000FN00000000020220401000003000NNM   20220109182503    1W    00000100000001167700000000032BF    TTTJY   000000000000NK322003
BI00B32BF    TT22043KMW     2022030818009604050              AVS 0.85 R               CCN000002000000002000FN00000000020220401000002000NNM   20220109182503    1W    00000100000001167700000000032BF    TTTJY   000000000000NK422002
BI00B32BF    TT22041KMW     2022022218009604056              AVS 0.85 R/G             CCN000007000000007000FN00000000020220401000007000NNM   20220109182503    1W    00000100000001167700000000032BF    TTTJY   000000000000NK222022
BI00B32BF    TT22042KMW     2022030118009604056              AVS 0.85 R/G             CCN000007000000007000FN00000000020220401000007000NNM   20220109182503    1W    00000100000001167700000000032BF    TTTJY   000000000000NK322004
BI00B32BF    TT22043KMW     2022030818009604056              AVS 0.85 R/G             CCN000002000000002000FN00000000020220401000002000NNM   20220109182503    1W    00000100000001167700000000032BF    TTTJY   000000000000NK422003
BI00B32BF    TT22041KMW     2022022218009604059              AVS 0.85 R/L             CCN000004000000004000FN00000000020220401000004000NNM   20220109182503    1W    00000100000001167700000000032BF    TTTJY   000000000000NK222023
BI00B32BF    TT22042KMW     2022030118009604059              AVS 0.85 R/L             CCN000004000000004000FN00000000020220401000004000NNM   20220109182503    1W    00000100000001167700000000032BF    TTTJY   000000000000NK322005
BI00B32BF    TT22043KMW     2022030818009604059              AVS 0.85 R/L             CCN000002000000002000FN00000000020220401000002000NNM   20220109182503    1W    00000100000001167700000000032BF    TTTJY   000000000000NK422004
BI00B32BF    TT22041KMW     20220222180D0203934              AVSSH 0.5F B/W           CCN000001500000001500FN00000000020220401000001500NNM   20220109182503    1W    00000150000000689000000000032BF    TTTJY   000000000000NK222001
BI00B32BF    TT22041KMW     20220222180D0203960              AVSSH 0.5F G             CCN000001500000001500FN00000000020220401000001500NNM   20220109182503    1W    00000150000000689000000000032BF    TTTJY   000000000000NK222002
BI00B32BF    TT22041KMW     20220222180D0203965              AVSSH 0.5F G/R           CCN000001500000001500FN00000000020220401000001500NNM   20220109182503    1W    00000150000000689000000000032BF    TTTJY   000000000000NK222003
BI00B32BF    TT22041KMW     20220222180D0203941              AVSSH 0.5F GY            CCN000001500000001500FN00000000020220401000001500NNM   20220109182503    1W    00000150000000689000000000032BF    TTTJY   000000000000NK222004
BI00B32BF    TT22041KMW     20220222180D0203990              AVSSH 0.5F L             CCN000001500000001500FN00000000020220401000001500NNM   20220109182503    1W    00000150000000689000000000032BF    TTTJY   000000000000NK222005
BI00B32BF    TT22041KMW     20220222180D0203993              AVSSH 0.5F L/B           CCN000001500000001500FN00000000020220401000001500NNM   20220109182503    1W    00000150000000689000000000032BF    TTTJY   000000000000NK222006
BI00B32BF    TT22041KMW     20220222180D0203961              AVSSH 0.5F LG            CCN000001500000001500FN00000000020220401000001500NNM   20220109182503    1W    00000150000000689000000000032BF    TTTJY   000000000000NK222007
BI00B32BF    TT22041KMW     20220222180D0203950              AVSSH 0.5F R             CCN000001500000001500FN00000000020220401000001500NNM   20220109182503    1W    00000150000000689000000000032BF    TTTJY   000000000000NK222008
BI00B32BF    TT22041KMW     20220222180D0203992              AVSSH 0.5F V             CCN000001500000001500FN00000000020220401000001500NNM   20220109182503    1W    00000150000000689000000000032BF    TTTJY   000000000000NK222009
BI00B32BF    TT22041KMW     20220222180D0203940              AVSSH 0.5F W             CCN000001500000001500FN00000000020220401000001500NNM   20220109182503    1W    00000150000000689000000000032BF    TTTJY   000000000000NK222010
BI00B32BF    TT22041KMW     20220222180D0204094              AVSSH 0.75F L/W          CCN000001000000001000FN00000000020220401000001000NNM   20220109182503    1W    00000100000000933600000000032BF    TTTJY   000000000000NK222011
BI00B32BF    TT22041KMW     20220222180D0204130              AVSSH 1.25F B            CCN000000800000000800FN00000000020220401000000800NNM   20220109182503    1W    00000080000001458000000000032BF    TTTJY   000000000000NK222012
BI00B32BF    TT22041KMW     20220222180D0204139              AVSSH 1.25F B/L          CCN000000800000000800FN00000000020220401000000800NNM   20220109182503    1W    00000080000001458000000000032BF    TTTJY   000000000000NK222013
BI00B32BF    TT22041KMW     20220222180D0204190              AVSSH 1.25F L            CCN000000800000000800FN00000000020220401000000800NNM   20220109182503    1W    00000080000001458000000000032BF    TTTJY   000000000000NK222014
BI00B32BF    TT22041KMW     20220222180D0204161              AVSSH 1.25F LG           CCN000000800000000800FN00000000020220401000000800NNM   20220109182503    1W    00000080000001458000000000032BF    TTTJY   000000000000NK222015
BI00B32BF    TT22041KMW     20220222180D0204150              AVSSH 1.25F R            CCN000001600000001600FN00000000020220401000001600NNM   20220109182503    1W    00000080000001458000000000032BF    TTTJY   000000000000NK222016
BI00B32BF    TT22041KMW     20220222180D0204192              AVSSH 1.25F V            CCN000000800000000800FN00000000020220401000000800NNM   20220109182503    1W    00000080000001458000000000032BF    TTTJY   000000000000NK222017
BI00B32BF    TT22041KMW     20220222180D0204170              AVSSH 1.25F Y            CCN000000800000000800FN00000000020220401000000800NNM   20220109182503    1W    00000080000001458000000000032BF    TTTJY   000000000000NK222018
BI00B32CH    SJ22031 MW     2022020318007703930              AVSS 0.5F B              CCN000012000000012000FN00000000020220301000012000NNM   20220109175746    1W    00000150000000674000000000032CH    SJSAMIJF000000000000QX321001
BI00B32CH    SJ22032 MW     2022021018007703930              AVSS 0.5F B              CCN000025500000025500FN00000000020220301000025500NNM   20220109175746    1W    00000150000000674000000000032CH    SJSAMIJF000000000000QX421002
BI00B32CH    SJ22033 MW     2022021718007703930              AVSS 0.5F B              CCN000030000000030000FN00000000020220301000030000NNM   20220109175746    1W    00000150000000674000000000032CH    SJSAMIJF000000000000QX122005
BI00B32CH    SJ22034 MW     2022022418007703930              AVSS 0.5F B              CCN000025500000025500FN00000000020220301000025500NNM   20220109175746    1W    00000150000000674000000000032CH    SJSAMIJF000000000000QX222006
BI00B32CH    SJ22035 MW     2022030318007703930              AVSS 0.5F B              CCN000024000000024000FN00000000020220301000024000NNM   20220109175746    1W    00000150000000674000000000032CH    SJSAMIJF000000000000QX322006
BI00B32CH    SJ22031 MW     2022020318007703941              AVSS 0.5F GY             CCN000003000000003000FN00000000020220301000003000NNM   20220109175746    1W    00000150000000674000000000032CH    SJSAMIJF000000000000QX321002
BI00B32CH    SJ22032 MW     2022021018007703941              AVSS 0.5F GY             CCN000003000000003000FN00000000020220301000003000NNM   20220109175746    1W    00000150000000674000000000032CH    SJSAMIJF000000000000QX421003
BI00B32CH    SJ22033 MW     2022021718007703941              AVSS 0.5F GY             CCN000003000000003000FN00000000020220301000003000NNM   20220109175746    1W    00000150000000674000000000032CH    SJSAMIJF000000000000QX122006
BI00B32CH    SJ22034 MW     2022022418007703941              AVSS 0.5F GY             CCN000003000000003000FN00000000020220301000003000NNM   20220109175746    1W    00000150000000674000000000032CH    SJSAMIJF000000000000QX222007
BI00B32CH    SJ22035 MW     2022030318007703941              AVSS 0.5F GY             CCN000001500000001500FN00000000020220301000001500NNM   20220109175746    1W    00000150000000674000000000032CH    SJSAMIJF000000000000QX322007
BI00B32CH    @SJ22032 MW    20220210181E50011ZZ              AVSSCS-S 0.5FX2 DGY/Y    CCN000000600000000600FN00000000020220301000000600NNM   20220109175742    1W    00000030000003096000000000032CH    SJSAMIJF000000000000QX421001
BI00B32CH    @SJ22033 MW    20220217181E50011ZZ              AVSSCS-S 0.5FX2 DGY/Y    CCN000003300000003300FN00000000020220301000003300NNM   20220109175742    1W    00000030000003096000000000032CH    SJSAMIJF000000000000QX122001
BI00B32CH    @SJ22034 MW    20220224181E50011ZZ              AVSSCS-S 0.5FX2 DGY/Y    CCN000003300000003300FN00000000020220301000003300NNM   20220109175742    1W    00000030000003096000000000032CH    SJSAMIJF000000000000QX222001
BI00B32CH    @SJ22035 MW    20220303181E50011ZZ              AVSSCS-S 0.5FX2 DGY/Y    CCN000003600000003600FN00000000020220301000003600NNM   20220109175742    1W    00000030000003096000000000032CH    SJSAMIJF000000000000QX322001
BI00B32CH    @SJ22034 MW    20220224181F21009ZZ              AVSSHCS-S 0.5FX2 B       CCN000020400000020400FN00000000020220301000020400NNM   20220109175742    1W    00000030000002531400000000032CH    SJSAMIJF000000000000QX222002
BI00B32CH    @SJ22035 MW    20220303181F21009ZZ              AVSSHCS-S 0.5FX2 B       CCN000030900000030900FN00000000020220301000030900NNM   20220109175742    1W    00000030000002531400000000032CH    SJSAMIJF000000000000QX322002
BI00B32CH    SJ22033DMW     202202171801W006980              IVSSH 0.35F BR           CCN000002500000002500FN00000000020220301000002500NNM   20220109175748    1W    00000250000000452000000000032CH    SJSAMIJF000000000000QY122016
BI00B32CH    SJ22034DMW     202202241801W006980              IVSSH 0.35F BR           CCN000002500000002500FN00000000020220301000002500NNM   20220109175748    1W    00000250000000452000000000032CH    SJSAMIJF000000000000QY222017
BI00B32CH    SJ22031DMW     202202031801W006941              IVSSH 0.35F GY           CCN000002500000002500FN00000000020220301000002500NNM   20220109175748    1W    00000250000000452000000000032CH    SJSAMIJF000000000000QY321008
BI00B32CH    SJ22032DMW     202202101801W006941              IVSSH 0.35F GY           CCN000002500000002500FN00000000020220301000002500NNM   20220109175748    1W    00000250000000452000000000032CH    SJSAMIJF000000000000QY421011
BI00B32CH    SJ22033DMW     202202171801W006941              IVSSH 0.35F GY           CCN000002500000002500FN00000000020220301000002500NNM   20220109175748    1W    00000250000000452000000000032CH    SJSAMIJF000000000000QY122017
BI00B32CH    SJ22034DMW     202202241801W006941              IVSSH 0.35F GY           CCN000002500000002500FN00000000020220301000002500NNM   20220109175748    1W    00000250000000452000000000032CH    SJSAMIJF000000000000QY222018
BI00B32CH    SJ22032DMW     202202101801W003930              IVSSH 0.5F B             CCN000005400000005400FN00000000020220301000005400NNM   20220109175748    1W    00000180000000625000000000032CH    SJSAMIJF000000000000QY421003
BI00B32CH    SJ22033DMW     202202171801W003930              IVSSH 0.5F B             CCN000019800000019800FN00000000020220301000019800NNM   20220109175748    1W    00000180000000625000000000032CH    SJSAMIJF000000000000QY122003
BI00B32CH    SJ22034DMW     202202241801W003930              IVSSH 0.5F B             CCN000014400000014400FN00000000020220301000014400NNM   20220109175748    1W    00000180000000625000000000032CH    SJSAMIJF000000000000QY222003
BI00B32CH    SJ22033DMW     202202171801W003980              IVSSH 0.5F BR            CCN000005400000005400FN00000000020220301000005400NNM   20220109175748    1W    00000180000000625000000000032CH    SJSAMIJF000000000000QY122004
BI00B32CH    SJ22034DMW     202202241801W003980              IVSSH 0.5F BR            CCN000003600000003600FN00000000020220301000003600NNM   20220109175748    1W    00000180000000625000000000032CH    SJSAMIJF000000000000QY222004
BI00B32CH    SJ22031DMW     202202031801W003960              IVSSH 0.5F G             CCN000003600000003600FN00000000020220301000003600NNM   20220109175748    1W    00000180000000625000000000032CH    SJSAMIJF000000000000QY321002
BI00B32CH    SJ22032DMW     202202101801W003960              IVSSH 0.5F G             CCN000003600000003600FN00000000020220301000003600NNM   20220109175748    1W    00000180000000625000000000032CH    SJSAMIJF000000000000QY421004
BI00B32CH    SJ22033DMW     202202171801W003960              IVSSH 0.5F G             CCN000005400000005400FN00000000020220301000005400NNM   20220109175748    1W    00000180000000625000000000032CH    SJSAMIJF000000000000QY122005
BI00B32CH    SJ22034DMW     202202241801W003960              IVSSH 0.5F G             CCN000005400000005400FN00000000020220301000005400NNM   20220109175748    1W    00000180000000625000000000032CH    SJSAMIJF000000000000QY222005
BI00B32CH    SJ22031DMW     202202031801W003990              IVSSH 0.5F L             CCN000001800000001800FN00000000020220301000001800NNM   20220109175748    1W    00000180000000625000000000032CH    SJSAMIJF000000000000QY321003
BI00B32CH    SJ22032DMW     202202101801W003990              IVSSH 0.5F L             CCN000003600000003600FN00000000020220301000003600NNM   20220109175748    1W    00000180000000625000000000032CH    SJSAMIJF000000000000QY421005
BI00B32CH    SJ22033DMW     202202171801W003990              IVSSH 0.5F L             CCN000003600000003600FN00000000020220301000003600NNM   20220109175748    1W    00000180000000625000000000032CH    SJSAMIJF000000000000QY122006
BI00B32CH    SJ22034DMW     202202241801W003990              IVSSH 0.5F L             CCN000003600000003600FN00000000020220301000003600NNM   20220109175748    1W    00000180000000625000000000032CH    SJSAMIJF000000000000QY222006
BI00B32CH    SJ22031DMW     202202031801W003961              IVSSH 0.5F LG            CCN000001800000001800FN00000000020220301000001800NNM   20220109175748    1W    00000180000000625000000000032CH    SJSAMIJF000000000000QY321004
BI00B32CH    SJ22033DMW     202202171801W003961              IVSSH 0.5F LG            CCN000001800000001800FN00000000020220301000001800NNM   20220109175748    1W    00000180000000625000000000032CH    SJSAMIJF000000000000QY122007
BI00B32CH    SJ22034DMW     202202241801W003961              IVSSH 0.5F LG            CCN000001800000001800FN00000000020220301000001800NNM   20220109175748    1W    00000180000000625000000000032CH    SJSAMIJF000000000000QY222007
BI00B32CH    SJ22031DMW     202202031801W003952              IVSSH 0.5F P             CCN000001800000001800FN00000000020220301000001800NNM   20220109175748    1W    00000180000000625000000000032CH    SJSAMIJF000000000000QY321005
BI00B32CH    SJ22032DMW     202202101801W003952              IVSSH 0.5F P             CCN000005400000005400FN00000000020220301000005400NNM   20220109175748    1W    00000180000000625000000000032CH    SJSAMIJF000000000000QY421006
BI00B32CH    SJ22033DMW     202202171801W003952              IVSSH 0.5F P             CCN000007200000007200FN00000000020220301000007200NNM   20220109175748    1W    00000180000000625000000000032CH    SJSAMIJF000000000000QY122008
BI00B32CH    SJ22034DMW     202202241801W003952              IVSSH 0.5F P             CCN000007200000007200FN00000000020220301000007200NNM   20220109175748    1W    00000180000000625000000000032CH    SJSAMIJF000000000000QY222008
BI00B32CH    SJ22032DMW     202202101801W003950              IVSSH 0.5F R             CCN000001800000001800FN00000000020220301000001800NNM   20220109175748    1W    00000180000000625000000000032CH    SJSAMIJF000000000000QY421007
BI00B32CH    SJ22033DMW     202202171801W003950              IVSSH 0.5F R             CCN000014400000014400FN00000000020220301000014400NNM   20220109175748    1W    00000180000000625000000000032CH    SJSAMIJF000000000000QY122009
BI00B32CH    SJ22034DMW     202202241801W003950              IVSSH 0.5F R             CCN000012600000012600FN00000000020220301000012600NNM   20220109175748    1W    00000180000000625000000000032CH    SJSAMIJF000000000000QY222009
BI00B32CH    SJ22033DMW     202202171801W003992              IVSSH 0.5F V             CCN000007200000007200FN00000000020220301000007200NNM   20220109175748    1W    00000180000000625000000000032CH    SJSAMIJF000000000000QY122010
BI00B32CH    SJ22034DMW     202202241801W003992              IVSSH 0.5F V             CCN000005400000005400FN00000000020220301000005400NNM   20220109175748    1W    00000180000000625000000000032CH    SJSAMIJF000000000000QY222010
BI00B32CH    SJ22031DMW     202202031801W003940              IVSSH 0.5F W             CCN000001800000001800FN00000000020220301000001800NNM   20220109175748    1W    00000180000000625000000000032CH    SJSAMIJF000000000000QY321006
BI00B32CH    SJ22032DMW     202202101801W003940              IVSSH 0.5F W             CCN000007200000007200FN00000000020220301000007200NNM   20220109175748    1W    00000180000000625000000000032CH    SJSAMIJF000000000000QY421008
BI00B32CH    SJ22033DMW     202202171801W003940              IVSSH 0.5F W             CCN000012600000012600FN00000000020220301000012600NNM   20220109175748    1W    00000180000000625000000000032CH    SJSAMIJF000000000000QY122011
BI00B32CH    SJ22034DMW     202202241801W003940              IVSSH 0.5F W             CCN000009000000009000FN00000000020220301000009000NNM   20220109175748    1W    00000180000000625000000000032CH    SJSAMIJF000000000000QY222011
BI00B32CH    SJ22032DMW     202202101801W003970              IVSSH 0.5F Y             CCN000001800000001800FN00000000020220301000001800NNM   20220109175748    1W    00000180000000625000000000032CH    SJSAMIJF000000000000QY421009
BI00B32CH    SJ22033DMW     202202171801W003970              IVSSH 0.5F Y             CCN000010800000010800FN00000000020220301000010800NNM   20220109175748    1W    00000180000000625000000000032CH    SJSAMIJF000000000000QY122012
BI00B32CH    SJ22034DMW     202202241801W003970              IVSSH 0.5F Y             CCN000009000000009000FN00000000020220301000009000NNM   20220109175748    1W    00000180000000625000000000032CH    SJSAMIJF000000000000QY222012
BI00B32CH    SJ22033DMW     202202171801W004030              IVSSH 0.75F B            CCN000001300000001300FN00000000020220301000001300NNM   20220109175748    1W    00000130000000882000000000032CH    SJSAMIJF000000000000QY122013
BI00B32CH    SJ22034DMW     202202241801W004030              IVSSH 0.75F B            CCN000003900000003900FN00000000020220301000003900NNM   20220109175748    1W    00000130000000882000000000032CH    SJSAMIJF000000000000QY222013
BI00B32CH    SJ22031DMW     202202031801W004090              IVSSH 0.75F L            CCN000002600000002600FN00000000020220301000002600NNM   20220109175748    1W    00000130000000882000000000032CH    SJSAMIJF000000000000QY321007
BI00B32CH    SJ22032DMW     202202101801W004090              IVSSH 0.75F L            CCN000001300000001300FN00000000020220301000001300NNM   20220109175748    1W    00000130000000882000000000032CH    SJSAMIJF000000000000QY421010
BI00B32CH    SJ22033DMW     202202171801W004090              IVSSH 0.75F L            CCN000003900000003900FN00000000020220301000003900NNM   20220109175748    1W    00000130000000882000000000032CH    SJSAMIJF000000000000QY122014
BI00B32CH    SJ22034DMW     202202241801W004090              IVSSH 0.75F L            CCN000003900000003900FN00000000020220301000003900NNM   20220109175748    1W    00000130000000882000000000032CH    SJSAMIJF000000000000QY222014
BI00B32CH    SJ22033DMW     202202171801W004050              IVSSH 0.75F R            CCN000002600000002600FN00000000020220301000002600NNM   20220109175748    1W    00000130000000882000000000032CH    SJSAMIJF000000000000QY122015
BI00B32CH    SJ22034DMW     202202241801W004050              IVSSH 0.75F R            CCN000003900000003900FN00000000020220301000003900NNM   20220109175748    1W    00000130000000882000000000032CH    SJSAMIJF000000000000QY222015
BI00B32CH    SJ22034DMW     202202241801W004070              IVSSH 0.75F Y            CCN000001300000001300FN00000000020220301000001300NNM   20220109175748    1W    00000130000000882000000000032CH    SJSAMIJF000000000000QY222016
BI00B32CH    @SJ22031DMW    20220203181B32037Z5              AVSSCS 0.3FX1 DGY/L      CCN000000500000000500FN00000000020220301000000500NNM   20220109175743    1W    00000050000001780000000000032CH    SJSAMIJF000000000000QY321001
BI00B32CH    @SJ22032DMW    20220210181B32037Z5              AVSSCS 0.3FX1 DGY/L      CCN000006000000006000FN00000000020220301000006000NNM   20220109175743    1W    00000050000001780000000000032CH    SJSAMIJF000000000000QY421001
BI00B32CH    @SJ22033DMW    20220217181B32037Z5              AVSSCS 0.3FX1 DGY/L      CCN000006500000006500FN00000000020220301000006500NNM   20220109175743    1W    00000050000001780000000000032CH    SJSAMIJF000000000000QY122001
BI00B32CH    @SJ22034DMW    20220224181B32037Z5              AVSSCS 0.3FX1 DGY/L      CCN000006000000006000FN00000000020220301000006000NNM   20220109175743    1W    00000050000001780000000000032CH    SJSAMIJF000000000000QY222001
BI00B32CH    @SJ22035DMW    20220303181B32037Z5              AVSSCS 0.3FX1 DGY/L      CCN000006500000006500FN00000000020220301000006500NNM   20220109175743    1W    00000050000001780000000000032CH    SJSAMIJF000000000000QY322001
BI00B32CH    SJ22031HMW     2022020318007704030              AVSS 0.75F B             CCN000003000000003000FN00000000020220301000003000NNM   20220109175749    1W    00000100000000943000000000032CH    SJSAMIJF000000000000QW321001
BI00B32CH    SJ22032HMW     2022021018007704030              AVSS 0.75F B             CCN000005000000005000FN00000000020220301000005000NNM   20220109175749    1W    00000100000000943000000000032CH    SJSAMIJF000000000000QW421001
BI00B32CH    SJ22033HMW     2022021718007704030              AVSS 0.75F B             CCN000005000000005000FN00000000020220301000005000NNM   20220109175749    1W    00000100000000943000000000032CH    SJSAMIJF000000000000QW122001
BI00B32CH    SJ22034HMW     2022022418007704030              AVSS 0.75F B             CCN000003000000003000FN00000000020220301000003000NNM   20220109175749    1W    00000100000000943000000000032CH    SJSAMIJF000000000000QW222001
BI00B32CH    SJ22035HMW     2022030318007704030              AVSS 0.75F B             CCN000002000000002000FN00000000020220301000002000NNM   20220109175749    1W    00000100000000943000000000032CH    SJSAMIJF000000000000QW322001
BI00B32CH    SJ22031HMW     2022020318007704130              AVSS 1.25F B             CCN000001600000001600FN00000000020220301000001600NNM   20220109175749    1W    00000080000001389000000000032CH    SJSAMIJF000000000000QW321002
BI00B32CH    SJ22032HMW     2022021018007704130              AVSS 1.25F B             CCN000004000000004000FN00000000020220301000004000NNM   20220109175749    1W    00000080000001389000000000032CH    SJSAMIJF000000000000QW421002
BI00B32CH    SJ22033HMW     2022021718007704130              AVSS 1.25F B             CCN000004000000004000FN00000000020220301000004000NNM   20220109175749    1W    00000080000001389000000000032CH    SJSAMIJF000000000000QW122002
BI00B32CH    SJ22034HMW     2022022418007704130              AVSS 1.25F B             CCN000004800000004800FN00000000020220301000004800NNM   20220109175749    1W    00000080000001389000000000032CH    SJSAMIJF000000000000QW222002
BI00B32CH    SJ22035HMW     2022030318007704130              AVSS 1.25F B             CCN000004800000004800FN00000000020220301000004800NNM   20220109175749    1W    00000080000001389000000000032CH    SJSAMIJF000000000000QW322002
BI00B32CH    @SJ22032MMW    20220210181E48022ZZ              CAVSAS-S 0.5X2 GY        CCN000000600000000600FN00000000020220301000000600NNM   20220109175744    1W    00000030000002561000000000032CH    SJSAMIJF000000000000QZ421001
BI00B32CH    @SJ22033MMW    20220217181E48022ZZ              CAVSAS-S 0.5X2 GY        CCN000001200000001200FN00000000020220301000001200NNM   20220109175744    1W    00000030000002561000000000032CH    SJSAMIJF000000000000QZ122001
BI00B32CH    @SJ22034MMW    20220224181E48022ZZ              CAVSAS-S 0.5X2 GY        CCN000001800000001800FN00000000020220301000001800NNM   20220109175744    1W    00000030000002561000000000032CH    SJSAMIJF000000000000QZ222001
BI00B32CH    @SJ22035MMW    20220303181E48022ZZ              CAVSAS-S 0.5X2 GY        CCN000001500000001500FN00000000020220301000001500NNM   20220109175744    1W    00000030000002561000000000032CH    SJSAMIJF000000000000QZ322001
BI00B32CH    @SJ22033MMW    20220217181E48062ZZ              CAVSAS-S 0.5X2 GY/BR     CCN000000300000000300FN00000000020220301000000300NNM   20220109175744    1W    00000030000002561000000000032CH    SJSAMIJF000000000000QZ122002
BI00B32CH    @SJ22034MMW    20220224181E48062ZZ              CAVSAS-S 0.5X2 GY/BR     CCN000000900000000900FN00000000020220301000000900NNM   20220109175744    1W    00000030000002561000000000032CH    SJSAMIJF000000000000QZ222002
BI00B32CH    @SJ22035MMW    20220303181E48062ZZ              CAVSAS-S 0.5X2 GY/BR     CCN000000600000000600FN00000000020220301000000600NNM   20220109175744    1W    00000030000002561000000000032CH    SJSAMIJF000000000000QZ322002
BI00B32CH    @SJ22034SMW    20220224181E48011ZZ              CAVSAS-S 0.3X1 GY/W      CCN000007500000007500FN00000000020220301000007500NNM   20220109175745    1W    00000050000001529500000000032CH    SJSAMIJF000000000000QS222001
BI00B32CH    @SJ22035SMW    20220303181E48011ZZ              CAVSAS-S 0.3X1 GY/W      CCN000014500000014500FN00000000020220301000014500NNM   20220109175745    1W    00000050000001529500000000032CH    SJSAMIJF000000000000QS322001
BI00B32CJ    TTQ2033        2022022518000004550              AV 8 R                   CCN000003000000003000FN00000000020220301000003000NNM   20220109194800    1W    00000010000010466200000000032CJ    QNYHVQN 000000000000UQ222039
BI00B32CJ    TTQ2034        2022030418000004550              AV 8 R                   CCN000002500000002500FN00000000020220301000002500NNM   20220109194800    1W    00000010000010466200000000032CJ    QNYHVQN 000000000000UQ322041
BI00B32CJ    TTQ2033        2022022518007704130              AVSS 1.25F B             CCN000001600000001600FN00000000020220301000001600NNM   20220109194800    1W    00000080000001389000000000032CJ    QNYHVQN 000000000000UQ222040
BI00B32CJ    TTQ2032        20220218180D0203730              AVSSH 0.3F B             CCN000002000000002000FN00000000020220301000002000NNM   20220109194800    1W    00000200000000515000000000032CJ    QNYHVQN 000000000000UQ122029
BI00B32CJ    TTQ2033        20220225180D0203730              AVSSH 0.3F B             CCN000006000000006000FN00000000020220301000006000NNM   20220109194800    1W    00000200000000515000000000032CJ    QNYHVQN 000000000000UQ222030
BI00B32CJ    TTQ2034        20220304180D0203730              AVSSH 0.3F B             CCN000006000000006000FN00000000020220301000006000NNM   20220109194800    1W    00000200000000515000000000032CJ    QNYHVQN 000000000000UQ322031
BI00B32CJ    TTQ2033        20220225180D0203780              AVSSH 0.3F BR            CCN000060000000060000FN00000000020220301000060000NNM   20220109194800    1W    00000200000000515000000000032CJ    QNYHVQN 000000000000UQ222031
BI00B32CJ    TTQ2034        20220304180D0203780              AVSSH 0.3F BR            CCN000050000000050000FN00000000020220301000050000NNM   20220109194800    1W    00000200000000515000000000032CJ    QNYHVQN 000000000000UQ322032
BI00B32CJ    TTQ2032        20220218180D0203760              AVSSH 0.3F G             CCN000020000000020000FN00000000020220301000020000NNM   20220109194800    1W    00000200000000515000000000032CJ    QNYHVQN 000000000000UQ122030
BI00B32CJ    TTQ2033        20220225180D0203760              AVSSH 0.3F G             CCN000030000000030000FN00000000020220301000030000NNM   20220109194800    1W    00000200000000515000000000032CJ    QNYHVQN 000000000000UQ222032
BI00B32CJ    TTQ2034        20220304180D0203760              AVSSH 0.3F G             CCN000030000000030000FN00000000020220301000030000NNM   20220109194800    1W    00000200000000515000000000032CJ    QNYHVQN 000000000000UQ322033
BI00B32CJ    TTQ2034        20220304180D0203741              AVSSH 0.3F GY            CCN000010000000010000FN00000000020220301000010000NNM   20220109194800    1W    00000200000000515000000000032CJ    QNYHVQN 000000000000UQ322034
BI00B32CJ    TTQ2032        20220218180D0203790              AVSSH 0.3F L             CCN000040000000040000FN00000000020220301000040000NNM   20220109194800    1W    00000200000000515000000000032CJ    QNYHVQN 000000000000UQ122031
BI00B32CJ    TTQ2033        20220225180D0203790              AVSSH 0.3F L             CCN000040000000040000FN00000000020220301000040000NNM   20220109194800    1W    00000200000000515000000000032CJ    QNYHVQN 000000000000UQ222033
BI00B32CJ    TTQ2034        20220304180D0203790              AVSSH 0.3F L             CCN000046000000046000FN00000000020220301000046000NNM   20220109194800    1W    00000200000000515000000000032CJ    QNYHVQN 000000000000UQ322035
BI00B32CJ    TTQ2031        20220211180D0203740              AVSSH 0.3F W             CCN000004000000004000FN00000000020220301000004000NNM   20220109194800    1W    00000200000000515000000000032CJ    QNYHVQN 000000000000UQ421024
BI00B32CJ    TTQ2032        20220218180D0203740              AVSSH 0.3F W             CCN000004000000004000FN00000000020220301000004000NNM   20220109194800    1W    00000200000000515000000000032CJ    QNYHVQN 000000000000UQ122032
BI00B32CJ    TTQ2033        20220225180D0203740              AVSSH 0.3F W             CCN000006000000006000FN00000000020220301000006000NNM   20220109194800    1W    00000200000000515000000000032CJ    QNYHVQN 000000000000UQ222034
BI00B32CJ    TTQ2034        20220304180D0203740              AVSSH 0.3F W             CCN000006000000006000FN00000000020220301000006000NNM   20220109194800    1W    00000200000000515000000000032CJ    QNYHVQN 000000000000UQ322036
BI00B32CJ    TTQ2032        20220218180D0203980              AVSSH 0.5F BR            CCN000010500000010500FN00000000020220301000010500NNM   20220109194800    1W    00000150000000689000000000032CJ    QNYHVQN 000000000000UQ122033
BI00B32CJ    TTQ2033        20220225180D0203980              AVSSH 0.5F BR            CCN000027000000027000FN00000000020220301000027000NNM   20220109194800    1W    00000150000000689000000000032CJ    QNYHVQN 000000000000UQ222035
BI00B32CJ    TTQ2034        20220304180D0203980              AVSSH 0.5F BR            CCN000027000000027000FN00000000020220301000027000NNM   20220109194800    1W    00000150000000689000000000032CJ    QNYHVQN 000000000000UQ322037
BI00B32CJ    TTQ2032        20220218180D0204040              AVSSH 0.75F W            CCN000013000000013000FN00000000020220301000013000NNM   20220109194800    1W    00000100000000934000000000032CJ    QNYHVQN 000000000000UQ122034
BI00B32CJ    TTQ2033        20220225180D0204040              AVSSH 0.75F W            CCN000016000000016000FN00000000020220301000016000NNM   20220109194800    1W    00000100000000934000000000032CJ    QNYHVQN 000000000000UQ222036
BI00B32CJ    TTQ2034        20220304180D0204040              AVSSH 0.75F W            CCN000018000000018000FN00000000020220301000018000NNM   20220109194800    1W    00000100000000934000000000032CJ    QNYHVQN 000000000000UQ322038
BI00B32CJ    TTQ2033        20220225180D0204130              AVSSH 1.25F B            CCN000164000000164000FN00000000020220301000164000NNM   20220109194800    1W    00000080000001458000000000032CJ    QNYHVQN 000000000000UQ222037
BI00B32CJ    TTQ2034        20220304180D0204130              AVSSH 1.25F B            CCN000160000000160000FN00000000020220301000160000NNM   20220109194800    1W    00000080000001458000000000032CJ    QNYHVQN 000000000000UQ322039
BI00B32CJ    TTQ2032        20220218180D0204180              AVSSH 1.25F BR           CCN000016000000016000FN00000000020220301000016000NNM   20220109194800    1W    00000080000001458000000000032CJ    QNYHVQN 000000000000UQ122035
BI00B32CJ    TTQ2033        20220225180D0204180              AVSSH 1.25F BR           CCN000024000000024000FN00000000020220301000024000NNM   20220109194800    1W    00000080000001458000000000032CJ    QNYHVQN 000000000000UQ222038
BI00B32CJ    TTQ2034        20220304180D0204180              AVSSH 1.25F BR           CCN000024000000024000FN00000000020220301000024000NNM   20220109194800    1W    00000080000001458000000000032CJ    QNYHVQN 000000000000UQ322040
BI00B32CJ    TTQ2033        202202251801W006980              IVSSH 0.35F BR           CCN000027500000027500FN00000000020220301000027500NNM   20220109194800    1W    00000250000000452000000000032CJ    QNYHVQN 000000000000UQ222046
BI00B32CJ    TTQ2034        202203041801W006980              IVSSH 0.35F BR           CCN000025000000025000FN00000000020220301000025000NNM   20220109194800    1W    00000250000000452000000000032CJ    QNYHVQN 000000000000UQ322047
BI00B32CJ    TTQ2032        202202181801W006961              IVSSH 0.35F LG           CCN000037500000037500FN00000000020220301000037500NNM   20220109194800    1W    00000250000000452000000000032CJ    QNYHVQN 000000000000UQ122039
BI00B32CJ    TTQ2033        202202251801W006961              IVSSH 0.35F LG           CCN000045000000045000FN00000000020220301000045000NNM   20220109194800    1W    00000250000000452000000000032CJ    QNYHVQN 000000000000UQ222047
BI00B32CJ    TTQ2034        202203041801W006961              IVSSH 0.35F LG           CCN000047500000047500FN00000000020220301000047500NNM   20220109194800    1W    00000250000000452000000000032CJ    QNYHVQN 000000000000UQ322048
BI00B32CJ    TTQ2033        202202251801W006950              IVSSH 0.35F R            CCN000012500000012500FN00000000020220301000012500NNM   20220109194800    1W    00000250000000452000000000032CJ    QNYHVQN 000000000000UQ222048
BI00B32CJ    TTQ2034        202203041801W006950              IVSSH 0.35F R            CCN000015000000015000FN00000000020220301000015000NNM   20220109194800    1W    00000250000000452000000000032CJ    QNYHVQN 000000000000UQ322049
BI00B32CJ    TTQ2032        202202181801W006940              IVSSH 0.35F W            CCN000015000000015000FN00000000020220301000015000NNM   20220109194800    1W    00000250000000452000000000032CJ    QNYHVQN 000000000000UQ122040
BI00B32CJ    TTQ2033        202202251801W006940              IVSSH 0.35F W            CCN000017500000017500FN00000000020220301000017500NNM   20220109194800    1W    00000250000000452000000000032CJ    QNYHVQN 000000000000UQ222049
BI00B32CJ    TTQ2034        202203041801W006940              IVSSH 0.35F W            CCN000017500000017500FN00000000020220301000017500NNM   20220109194800    1W    00000250000000452000000000032CJ    QNYHVQN 000000000000UQ322050
BI00B32CJ    TTQ2033        202202251801W003980              IVSSH 0.5F BR            CCN000014400000014400FN00000000020220301000014400NNM   20220109194800    1W    00000180000000625000000000032CJ    QNYHVQN 000000000000UQ222041
BI00B32CJ    TTQ2034        202203041801W003980              IVSSH 0.5F BR            CCN000014400000014400FN00000000020220301000014400NNM   20220109194800    1W    00000180000000625000000000032CJ    QNYHVQN 000000000000UQ322042
BI00B32CJ    TTQ2033        202202251801W003940              IVSSH 0.5F W             CCN000030600000030600FN00000000020220301000030600NNM   20220109194800    1W    00000180000000625000000000032CJ    QNYHVQN 000000000000UQ222042
BI00B32CJ    TTQ2034        202203041801W003940              IVSSH 0.5F W             CCN000030600000030600FN00000000020220301000030600NNM   20220109194800    1W    00000180000000625000000000032CJ    QNYHVQN 000000000000UQ322043
BI00B32CJ    TTQ2031        202202111801W004030              IVSSH 0.75F B            CCN000019500000019500FN00000000020220301000019500NNM   20220109194800    1W    00000130000000882000000000032CJ    QNYHVQN 000000000000UQ421025
BI00B32CJ    TTQ2032        202202181801W004030              IVSSH 0.75F B            CCN000048100000048100FN00000000020220301000048100NNM   20220109194800    1W    00000130000000882000000000032CJ    QNYHVQN 000000000000UQ122036
BI00B32CJ    TTQ2033        202202251801W004030              IVSSH 0.75F B            CCN000041600000041600FN00000000020220301000041600NNM   20220109194800    1W    00000130000000882000000000032CJ    QNYHVQN 000000000000UQ222043
BI00B32CJ    TTQ2034        202203041801W004030              IVSSH 0.75F B            CCN000046800000046800FN00000000020220301000046800NNM   20220109194800    1W    00000130000000882000000000032CJ    QNYHVQN 000000000000UQ322044
BI00B32CJ    TTQ2032        202202181801W004050              IVSSH 0.75F R            CCN000044200000044200FN00000000020220301000044200NNM   20220109194800    1W    00000130000000882000000000032CJ    QNYHVQN 000000000000UQ122037
BI00B32CJ    TTQ2033        202202251801W004050              IVSSH 0.75F R            CCN000063700000063700FN00000000020220301000063700NNM   20220109194800    1W    00000130000000882000000000032CJ    QNYHVQN 000000000000UQ222044
BI00B32CJ    TTQ2034        202203041801W004050              IVSSH 0.75F R            CCN000068900000068900FN00000000020220301000068900NNM   20220109194800    1W    00000130000000882000000000032CJ    QNYHVQN 000000000000UQ322045
BI00B32CJ    TTQ2032        202202181801W004091              IVSSH 0.75F SB           CCN000009100000009100FN00000000020220301000009100NNM   20220109194800    1W    00000130000000882000000000032CJ    QNYHVQN 000000000000UQ122038
BI00B32CJ    TTQ2033        202202251801W004091              IVSSH 0.75F SB           CCN000019500000019500FN00000000020220301000019500NNM   20220109194800    1W    00000130000000882000000000032CJ    QNYHVQN 000000000000UQ222045
BI00B32CJ    TTQ2034        202203041801W004091              IVSSH 0.75F SB           CCN000020800000020800FN00000000020220301000020800NNM   20220109194800    1W    00000130000000882000000000032CJ    QNYHVQN 000000000000UQ322046
BI00B32CJ    @TTQ2032       20220218181B32012ZZ              AVSSCS 0.3FX2 DGY/BR     CCN000000350000000350FN00000000020220301000000350NNM   20220109194759    1W    00000035000002276000000000032CJ    QNYHVQN 000000000000UQ122013
BI00B32CJ    @TTQ2033       20220225181B32012ZZ              AVSSCS 0.3FX2 DGY/BR     CCN000000700000000700FN00000000020220301000000700NNM   20220109194759    1W    00000035000002276000000000032CJ    QNYHVQN 000000000000UQ222014
BI00B32CJ    @TTQ2034       20220304181B32012ZZ              AVSSCS 0.3FX2 DGY/BR     CCN000000700000000700FN00000000020220301000000700NNM   20220109194759    1W    00000035000002276000000000032CJ    QNYHVQN 000000000000UQ322014
BI00B32CJ    @TTQ2031       20220211181E48011ZZ              CAVSAS-S 0.3X1 GY/W      CCN000002000000002000FN00000000020220301000002000NNM   20220109194759    1W    00000050000001529500000000032CJ    QNYHVQN 000000000000UQ421012
BI00B32CJ    @TTQ2032       20220218181E48011ZZ              CAVSAS-S 0.3X1 GY/W      CCN000002000000002000FN00000000020220301000002000NNM   20220109194759    1W    00000050000001529500000000032CJ    QNYHVQN 000000000000UQ122014
BI00B32CJ    @TTQ2033       20220225181E48011ZZ              CAVSAS-S 0.3X1 GY/W      CCN000001000000001000FN00000000020220301000001000NNM   20220109194759    1W    00000050000001529500000000032CJ    QNYHVQN 000000000000UQ222015
BI00B32CJ    @TTQ2034       20220304181E48011ZZ              CAVSAS-S 0.3X1 GY/W      CCN000001000000001000FN00000000020220301000001000NNM   20220109194759    1W    00000050000001529500000000032CJ    QNYHVQN 000000000000UQ322015
BI00B32CJ    @TTQ2031       20220211181E48013ZZ              CAVSAS-S 0.3X3 GY        CCN000004000000004000FN00000000020220301000004000NNM   20220109194759    1W    00000025000002778200000000032CJ    QNYHVQN 000000000000UQ421014
BI00B32CJ    @TTQ2032       20220218181E48013ZZ              CAVSAS-S 0.3X3 GY        CCN000020000000020000FN00000000020220301000020000NNM   20220109194759    1W    00000025000002778200000000032CJ    QNYHVQN 000000000000UQ122019
BI00B32CJ    @TTQ2033       20220225181E48013ZZ              CAVSAS-S 0.3X3 GY        CCN000013000000013000FN00000000020220301000013000NNM   20220109194759    1W    00000025000002778200000000032CJ    QNYHVQN 000000000000UQ222020
BI00B32CJ    @TTQ2034       20220304181E48013ZZ              CAVSAS-S 0.3X3 GY        CCN000015000000015000FN00000000020220301000015000NNM   20220109194759    1W    00000025000002778200000000032CJ    QNYHVQN 000000000000UQ322020
BI00B32CJ    @TTQ2032       20220218181E48027ZZ              CAVSAS-S 0.5X2 GY/P      CCN000000300000000300FN00000000020220301000000300NNM   20220109194759    1W    00000030000002561000000000032CJ    QNYHVQN 000000000000UQ122015
BI00B32CJ    @TTQ2033       20220225181E48027ZZ              CAVSAS-S 0.5X2 GY/P      CCN000000600000000600FN00000000020220301000000600NNM   20220109194759    1W    00000030000002561000000000032CJ    QNYHVQN 000000000000UQ222016
BI00B32CJ    @TTQ2034       20220304181E48027ZZ              CAVSAS-S 0.5X2 GY/P      CCN000000600000000600FN00000000020220301000000600NNM   20220109194759    1W    00000030000002561000000000032CJ    QNYHVQN 000000000000UQ322016
BI00B32CJ    @TTQ2032       20220218181E48029ZZ              CAVSAS-S 0.5X4 GY        CCN000000400000000400FN00000000020220301000000400NNM   20220109194759    1W    00000020000003995000000000032CJ    QNYHVQN 000000000000UQ122016
BI00B32CJ    @TTQ2033       20220225181E48029ZZ              CAVSAS-S 0.5X4 GY        CCN000000600000000600FN00000000020220301000000600NNM   20220109194759    1W    00000020000003995000000000032CJ    QNYHVQN 000000000000UQ222017
BI00B32CJ    @TTQ2034       20220304181E48029ZZ              CAVSAS-S 0.5X4 GY        CCN000000600000000600FN00000000020220301000000600NNM   20220109194759    1W    00000020000003995000000000032CJ    QNYHVQN 000000000000UQ322017
BI00B32CJ    @TTQ2032       20220218181E48031ZZ              CAVSAS-S 0.3X2 GY        CCN000008400000008400FN00000000020220301000008400NNM   20220109194759    1W    00000035000002008700000000032CJ    QNYHVQN 000000000000UQ122017
BI00B32CJ    @TTQ2033       20220225181E48031ZZ              CAVSAS-S 0.3X2 GY        CCN000012600000012600FN00000000020220301000012600NNM   20220109194759    1W    00000035000002008700000000032CJ    QNYHVQN 000000000000UQ222018
BI00B32CJ    @TTQ2034       20220304181E48031ZZ              CAVSAS-S 0.3X2 GY        CCN000011200000011200FN00000000020220301000011200NNM   20220109194759    1W    00000035000002008700000000032CJ    QNYHVQN 000000000000UQ322018
BI00B32CJ    @TTQ2031       20220211181E48032ZZ              CAVSAS-S 0.3X2 GY/P      CCN000000700000000700FN00000000020220301000000700NNM   20220109194759    1W    00000035000002008700000000032CJ    QNYHVQN 000000000000UQ421013
BI00B32CJ    @TTQ2032       20220218181E48032ZZ              CAVSAS-S 0.3X2 GY/P      CCN000001400000001400FN00000000020220301000001400NNM   20220109194759    1W    00000035000002008700000000032CJ    QNYHVQN 000000000000UQ122018
BI00B32CJ    @TTQ2033       20220225181E48032ZZ              CAVSAS-S 0.3X2 GY/P      CCN000000350000000350FN00000000020220301000000350NNM   20220109194759    1W    00000035000002008700000000032CJ    QNYHVQN 000000000000UQ222019
BI00B32CJ    @TTQ2034       20220304181E48032ZZ              CAVSAS-S 0.3X2 GY/P      CCN000000700000000700FN00000000020220301000000700NNM   20220109194759    1W    00000035000002008700000000032CJ    QNYHVQN 000000000000UQ322019
BI00B32CJ    @TTQ2031       20220211181AD2002ZZ              CIVUSAS-S 0.35X2 B       CCN000000900000000900FN00000000020220301000000900NNM   20220109194759    1W    00000045000001713700000000032CJ    QNYHVQN 000000000000UQ421010
BI00B32CJ    @TTQ2032       20220218181AD2002ZZ              CIVUSAS-S 0.35X2 B       CCN000001800000001800FN00000000020220301000001800NNM   20220109194759    1W    00000045000001713700000000032CJ    QNYHVQN 000000000000UQ122011
BI00B32CJ    @TTQ2033       20220225181AD2002ZZ              CIVUSAS-S 0.35X2 B       CCN000001350000001350FN00000000020220301000001350NNM   20220109194759    1W    00000045000001713700000000032CJ    QNYHVQN 000000000000UQ222012
BI00B32CJ    @TTQ2034       20220304181AD2002ZZ              CIVUSAS-S 0.35X2 B       CCN000001350000001350FN00000000020220301000001350NNM   20220109194759    1W    00000045000001713700000000032CJ    QNYHVQN 000000000000UQ322012
BI00B32CJ    @TTQ2031       20220211181AD2004ZZ              CIVUSAS-S 0.35X4 B       CCN000024000000024000FN00000000020220301000024000NNM   20220109194759    1W    00000030000002799900000000032CJ    QNYHVQN 000000000000UQ421011
BI00B32CJ    @TTQ2032       20220218181AD2004ZZ              CIVUSAS-S 0.35X4 B       CCN000019800000019800FN00000000020220301000019800NNM   20220109194759    1W    00000030000002799900000000032CJ    QNYHVQN 000000000000UQ122012
BI00B32CJ    @TTQ2033       20220225181AD2004ZZ              CIVUSAS-S 0.35X4 B       CCN000017700000017700FN00000000020220301000017700NNM   20220109194759    1W    00000030000002799900000000032CJ    QNYHVQN 000000000000UQ222013
BI00B32CJ    @TTQ2034       20220304181AD2004ZZ              CIVUSAS-S 0.35X4 B       CCN000017100000017100FN00000000020220301000017100NNM   20220109194759    1W    00000030000002799900000000032CJ    QNYHVQN 000000000000UQ322013
BI00B32CJ    @TTQ2033       20220225181AD2007ZZ              CIVUSAS-S 0.5X1 B        CCN000001000000001000FN00000000020220301000001000NNM   20220109194759    1W    00000050000001639600000000032CJ    QNYHVQN 000000000000UQ222011
BI00B32CJ    @TTQ2034       20220304181AD2007ZZ              CIVUSAS-S 0.5X1 B        CCN000001000000001000FN00000000020220301000001000NNM   20220109194759    1W    00000050000001639600000000032CJ    QNYHVQN 000000000000UQ322011
BI00B32CJ    @TTQ202C       20220204181B32012ZZ              AVSSCS 0.3FX2 DGY/BR     CCN000001400000001400FN00000000020220201000001400NNE   20220109194757    1W    00000035000002276000000000032CJ    QNYHVQN 000000000000UO321002
BI00B32CJ    @TTQ202C       20220204181E48011ZZ              CAVSAS-S 0.3X1 GY/W      CCN000002500000002500FN00000000020220201000002500NNE   20220109194757    1W    00000050000001529500000000032CJ    QNYHVQN 000000000000UO321003
BI00B32CJ    @TTQ202C       20220204181E48013ZZ              CAVSAS-S 0.3X3 GY        CCN000010000000010000FN00000000020220201000010000NNE   20220109194757    1W    00000025000002778200000000032CJ    QNYHVQN 000000000000UO321005
BI00B32CJ    @TTQ202C       20220204181E48032ZZ              CAVSAS-S 0.3X2 GY/P      CCN000003500000003500FN00000000020220201000003500NNE   20220109194757    1W    00000035000002008700000000032CJ    QNYHVQN 000000000000UO321004
BI00B32CJ    @TTQ202C       20220204181AD2007ZZ              CIVUSAS-S 0.5X1 B        CCN000001000000001000FN00000000020220201000001000NNE   20220109194757    1W    00000050000001639600000000032CJ    QNYHVQN 000000000000UO321001
BI00B32DE    TT2034         2022030318000004530              AV 8 B                   CCN000019800000019800FN00000000020220301000019800NNM   20220109193207    1W    00000010000010466200000000032DE    TVYEV-TV000000000000VT322075
BI00B32DE    TT2033         2022022418000004535              AV 8 B/R                 CCN000001800000001800FN00000000020220301000001800NNM   20220109193207    1W    00000010000010466200000000032DE    TVYEV-TV000000000000VT222059
BI00B32DE    TT2033         2022022418000004534              AV 8 B/W                 CCN000001800000001800FN00000000020220301000001800NNM   20220109193207    1W    00000010000010466200000000032DE    TVYEV-TV000000000000VT222060
BI00B32DE    TT2033         2022022418000004540              AV 8 W                   CCN000001800000001800FN00000000020220301000001800NNM   20220109193207    1W    00000010000010466200000000032DE    TVYEV-TV000000000000VT222061
BI00B32DE    TT2034         2022030318000004540              AV 8 W                   CCN000003600000003600FN00000000020220301000003600NNM   20220109193207    1W    00000010000010466200000000032DE    TVYEV-TV000000000000VT322076
BI00B32DE    TT2032         2022021718007703760              AVSS 0.3F G              CCN000002000000002000FN00000000020220301000002000NNM   20220109193207    1W    00000200000000496000000000032DE    TVYEV-TV000000000000VT122043
BI00B32DE    TT2033         2022022418007703760              AVSS 0.3F G              CCN000002000000002000FN00000000020220301000002000NNM   20220109193207    1W    00000200000000496000000000032DE    TVYEV-TV000000000000VT222062
BI00B32DE    TT2034         2022030318007703760              AVSS 0.3F G              CCN000002000000002000FN00000000020220301000002000NNM   20220109193207    1W    00000200000000496000000000032DE    TVYEV-TV000000000000VT322077
BI00B32DE    TT2032         2022021718007703741              AVSS 0.3F GY             CCN000002000000002000FN00000000020220301000002000NNM   20220109193207    1W    00000200000000496000000000032DE    TVYEV-TV000000000000VT122044
BI00B32DE    TT2033         2022022418007703741              AVSS 0.3F GY             CCN000002000000002000FN00000000020220301000002000NNM   20220109193207    1W    00000200000000496000000000032DE    TVYEV-TV000000000000VT222063
BI00B32DE    TT2034         2022030318007703741              AVSS 0.3F GY             CCN000002000000002000FN00000000020220301000002000NNM   20220109193207    1W    00000200000000496000000000032DE    TVYEV-TV000000000000VT322078
BI00B32DE    TT2032         2022021718007703750              AVSS 0.3F R              CCN000004000000004000FN00000000020220301000004000NNM   20220109193207    1W    00000200000000496000000000032DE    TVYEV-TV000000000000VT122045
BI00B32DE    TT2033         2022022418007703750              AVSS 0.3F R              CCN000002000000002000FN00000000020220301000002000NNM   20220109193207    1W    00000200000000496000000000032DE    TVYEV-TV000000000000VT222064
BI00B32DE    TT2034         2022030318007703750              AVSS 0.3F R              CCN000004000000004000FN00000000020220301000004000NNM   20220109193207    1W    00000200000000496000000000032DE    TVYEV-TV000000000000VT322079
BI00B32DE    TT2033         2022022418007703960              AVSS 0.5F G              CCN000007500000007500FN00000000020220301000007500NNM   20220109193207    1W    00000150000000674000000000032DE    TVYEV-TV000000000000VT222065
BI00B32DE    TT2034         2022030318007703960              AVSS 0.5F G              CCN000009000000009000FN00000000020220301000009000NNM   20220109193207    1W    00000150000000674000000000032DE    TVYEV-TV000000000000VT322080
BI00B32DE    TT2033         2022022418007703941              AVSS 0.5F GY             CCN000001500000001500FN00000000020220301000001500NNM   20220109193207    1W    00000150000000674000000000032DE    TVYEV-TV000000000000VT222066
BI00B32DE    TT2034         2022030318007703941              AVSS 0.5F GY             CCN000006000000006000FN00000000020220301000006000NNM   20220109193207    1W    00000150000000674000000000032DE    TVYEV-TV000000000000VT322081
BI00B32DE    TT2034         2022030318007703990              AVSS 0.5F L              CCN000004500000004500FN00000000020220301000004500NNM   20220109193207    1W    00000150000000674000000000032DE    TVYEV-TV000000000000VT322082
BI00B32DE    TT2031         2022021018007703950              AVSS 0.5F R              CCN000001500000001500FN00000000020220301000001500NNM   20220109193207    1W    00000150000000674000000000032DE    TVYEV-TV000000000000VT421024
BI00B32DE    TT2032         2022021718007703950              AVSS 0.5F R              CCN000003000000003000FN00000000020220301000003000NNM   20220109193207    1W    00000150000000674000000000032DE    TVYEV-TV000000000000VT122046
BI00B32DE    TT2033         2022022418007703950              AVSS 0.5F R              CCN000001500000001500FN00000000020220301000001500NNM   20220109193207    1W    00000150000000674000000000032DE    TVYEV-TV000000000000VT222067
BI00B32DE    TT2034         2022030318007703950              AVSS 0.5F R              CCN000003000000003000FN00000000020220301000003000NNM   20220109193207    1W    00000150000000674000000000032DE    TVYEV-TV000000000000VT322083
BI00B32DE    TT2031         2022021018007703992              AVSS 0.5F V              CCN000001500000001500FN00000000020220301000001500NNM   20220109193207    1W    00000150000000674000000000032DE    TVYEV-TV000000000000VT421025
BI00B32DE    TT2032         2022021718007703992              AVSS 0.5F V              CCN000003000000003000FN00000000020220301000003000NNM   20220109193207    1W    00000150000000674000000000032DE    TVYEV-TV000000000000VT122047
BI00B32DE    TT2033         2022022418007703992              AVSS 0.5F V              CCN000001500000001500FN00000000020220301000001500NNM   20220109193207    1W    00000150000000674000000000032DE    TVYEV-TV000000000000VT222068
BI00B32DE    TT2034         2022030318007703992              AVSS 0.5F V              CCN000001500000001500FN00000000020220301000001500NNM   20220109193207    1W    00000150000000674000000000032DE    TVYEV-TV000000000000VT322084
BI00B32DE    TT2033         2022022418007703940              AVSS 0.5F W              CCN000004500000004500FN00000000020220301000004500NNM   20220109193207    1W    00000150000000674000000000032DE    TVYEV-TV000000000000VT222069
BI00B32DE    TT2034         2022030318007703940              AVSS 0.5F W              CCN000006000000006000FN00000000020220301000006000NNM   20220109193207    1W    00000150000000674000000000032DE    TVYEV-TV000000000000VT322085
BI00B32DE    TT2031         2022021018007703945              AVSS 0.5F W/R            CCN000003000000003000FN00000000020220301000003000NNM   20220109193207    1W    00000150000000674000000000032DE    TVYEV-TV000000000000VT421026
BI00B32DE    TT2032         2022021718007703945              AVSS 0.5F W/R            CCN000003000000003000FN00000000020220301000003000NNM   20220109193207    1W    00000150000000674000000000032DE    TVYEV-TV000000000000VT122048
BI00B32DE    TT2033         2022022418007703945              AVSS 0.5F W/R            CCN000003000000003000FN00000000020220301000003000NNM   20220109193207    1W    00000150000000674000000000032DE    TVYEV-TV000000000000VT222070
BI00B32DE    TT2034         2022030318007703945              AVSS 0.5F W/R            CCN000003000000003000FN00000000020220301000003000NNM   20220109193207    1W    00000150000000674000000000032DE    TVYEV-TV000000000000VT322086
BI00B32DE    TT2031         2022021018007703973              AVSS 0.5F Y/B            CCN000001500000001500FN00000000020220301000001500NNM   20220109193207    1W    00000150000000674000000000032DE    TVYEV-TV000000000000VT421027
BI00B32DE    TT2032         2022021718007703973              AVSS 0.5F Y/B            CCN000001500000001500FN00000000020220301000001500NNM   20220109193207    1W    00000150000000674000000000032DE    TVYEV-TV000000000000VT122049
BI00B32DE    TT2033         2022022418007703973              AVSS 0.5F Y/B            CCN000001500000001500FN00000000020220301000001500NNM   20220109193207    1W    00000150000000674000000000032DE    TVYEV-TV000000000000VT222071
BI00B32DE    TT2034         2022030318007703973              AVSS 0.5F Y/B            CCN000003000000003000FN00000000020220301000003000NNM   20220109193207    1W    00000150000000674000000000032DE    TVYEV-TV000000000000VT322087
BI00B32DE    TT2031         2022021018007704180              AVSS 1.25F BR            CCN000003200000003200FN00000000020220301000003200NNM   20220109193207    1W    00000080000001389000000000032DE    TVYEV-TV000000000000VT421028
BI00B32DE    TT2032         2022021718007704180              AVSS 1.25F BR            CCN000006400000006400FN00000000020220301000006400NNM   20220109193207    1W    00000080000001389000000000032DE    TVYEV-TV000000000000VT122050
BI00B32DE    TT2033         2022022418007704180              AVSS 1.25F BR            CCN000004000000004000FN00000000020220301000004000NNM   20220109193207    1W    00000080000001389000000000032DE    TVYEV-TV000000000000VT222072
BI00B32DE    TT2034         2022030318007704180              AVSS 1.25F BR            CCN000005600000005600FN00000000020220301000005600NNM   20220109193207    1W    00000080000001389000000000032DE    TVYEV-TV000000000000VT322088
BI00B32DE    TT2031         2022021018007704160              AVSS 1.25F G             CCN000003200000003200FN00000000020220301000003200NNM   20220109193207    1W    00000080000001389000000000032DE    TVYEV-TV000000000000VT421029
BI00B32DE    TT2032         2022021718007704160              AVSS 1.25F G             CCN000004800000004800FN00000000020220301000004800NNM   20220109193207    1W    00000080000001389000000000032DE    TVYEV-TV000000000000VT122051
BI00B32DE    TT2033         2022022418007704160              AVSS 1.25F G             CCN000003200000003200FN00000000020220301000003200NNM   20220109193207    1W    00000080000001389000000000032DE    TVYEV-TV000000000000VT222073
BI00B32DE    TT2034         2022030318007704160              AVSS 1.25F G             CCN000004800000004800FN00000000020220301000004800NNM   20220109193207    1W    00000080000001389000000000032DE    TVYEV-TV000000000000VT322089
BI00B32DE    TT2032         2022021718007704190              AVSS 1.25F L             CCN000002400000002400FN00000000020220301000002400NNM   20220109193207    1W    00000080000001389000000000032DE    TVYEV-TV000000000000VT122052
BI00B32DE    TT2033         2022022418007704190              AVSS 1.25F L             CCN000001600000001600FN00000000020220301000001600NNM   20220109193207    1W    00000080000001389000000000032DE    TVYEV-TV000000000000VT222074
BI00B32DE    TT2034         2022030318007704190              AVSS 1.25F L             CCN000002400000002400FN00000000020220301000002400NNM   20220109193207    1W    00000080000001389000000000032DE    TVYEV-TV000000000000VT322090
BI00B32DE    TT2031         2022021018007704152              AVSS 1.25F P             CCN000000800000000800FN00000000020220301000000800NNM   20220109193207    1W    00000080000001389000000000032DE    TVYEV-TV000000000000VT421030
BI00B32DE    TT2032         2022021718007704152              AVSS 1.25F P             CCN000004800000004800FN00000000020220301000004800NNM   20220109193207    1W    00000080000001389000000000032DE    TVYEV-TV000000000000VT122053
BI00B32DE    TT2033         2022022418007704152              AVSS 1.25F P             CCN000003200000003200FN00000000020220301000003200NNM   20220109193207    1W    00000080000001389000000000032DE    TVYEV-TV000000000000VT222075
BI00B32DE    TT2034         2022030318007704152              AVSS 1.25F P             CCN000004800000004800FN00000000020220301000004800NNM   20220109193207    1W    00000080000001389000000000032DE    TVYEV-TV000000000000VT322091
BI00B32DE    TT2032         2022021718007704192              AVSS 1.25F V             CCN000002400000002400FN00000000020220301000002400NNM   20220109193207    1W    00000080000001389000000000032DE    TVYEV-TV000000000000VT122054
BI00B32DE    TT2033         2022022418007704192              AVSS 1.25F V             CCN000001600000001600FN00000000020220301000001600NNM   20220109193207    1W    00000080000001389000000000032DE    TVYEV-TV000000000000VT222076
BI00B32DE    TT2034         2022030318007704192              AVSS 1.25F V             CCN000002400000002400FN00000000020220301000002400NNM   20220109193207    1W    00000080000001389000000000032DE    TVYEV-TV000000000000VT322092
BI00B32DE    TT2031         2022021018007704140              AVSS 1.25F W             CCN000004000000004000FN00000000020220301000004000NNM   20220109193207    1W    00000080000001389000000000032DE    TVYEV-TV000000000000VT421031
BI00B32DE    TT2032         2022021718007704140              AVSS 1.25F W             CCN000007200000007200FN00000000020220301000007200NNM   20220109193207    1W    00000080000001389000000000032DE    TVYEV-TV000000000000VT122055
BI00B32DE    TT2033         2022022418007704140              AVSS 1.25F W             CCN000005600000005600FN00000000020220301000005600NNM   20220109193207    1W    00000080000001389000000000032DE    TVYEV-TV000000000000VT222077
BI00B32DE    TT2034         2022030318007704140              AVSS 1.25F W             CCN000007200000007200FN00000000020220301000007200NNM   20220109193207    1W    00000080000001389000000000032DE    TVYEV-TV000000000000VT322093
BI00B32DE    TT2031         2022021018007704143              AVSS 1.25F W/B           CCN000001600000001600FN00000000020220301000001600NNM   20220109193207    1W    00000080000001389000000000032DE    TVYEV-TV000000000000VT421032
BI00B32DE    TT2032         2022021718007704143              AVSS 1.25F W/B           CCN000002400000002400FN00000000020220301000002400NNM   20220109193207    1W    00000080000001389000000000032DE    TVYEV-TV000000000000VT122056
BI00B32DE    TT2033         2022022418007704143              AVSS 1.25F W/B           CCN000001600000001600FN00000000020220301000001600NNM   20220109193207    1W    00000080000001389000000000032DE    TVYEV-TV000000000000VT222078
BI00B32DE    TT2034         2022030318007704143              AVSS 1.25F W/B           CCN000002400000002400FN00000000020220301000002400NNM   20220109193207    1W    00000080000001389000000000032DE    TVYEV-TV000000000000VT322094
BI00B32DE    TT2034         20220303180D0203764              AVSSH 0.3F G/W           CCN000002000000002000FN00000000020220301000002000NNM   20220109193207    1W    00000200000000515000000000032DE    TVYEV-TV000000000000VT322028
BI00B32DE    TT2034         20220303180D0203790              AVSSH 0.3F L             CCN000004000000004000FN00000000020220301000004000NNM   20220109193207    1W    00000200000000515000000000032DE    TVYEV-TV000000000000VT322029
BI00B32DE    TT2033         20220224180D0203752              AVSSH 0.3F P             CCN000002000000002000FN00000000020220301000002000NNM   20220109193207    1W    00000200000000515000000000032DE    TVYEV-TV000000000000VT222018
BI00B32DE    TT2034         20220303180D0203752              AVSSH 0.3F P             CCN000002000000002000FN00000000020220301000002000NNM   20220109193207    1W    00000200000000515000000000032DE    TVYEV-TV000000000000VT322030
BI00B32DE    TT2031         20220210180D0203792              AVSSH 0.3F V             CCN000002000000002000FN00000000020220301000002000NNM   20220109193207    1W    00000200000000515000000000032DE    TVYEV-TV000000000000VT421005
BI00B32DE    TT2034         20220303180D0203930              AVSSH 0.5F B             CCN000018000000018000FN00000000020220301000018000NNM   20220109193207    1W    00000150000000689000000000032DE    TVYEV-TV000000000000VT322031
BI00B32DE    TT2033         20220224180D0203935              AVSSH 0.5F B/R           CCN000003000000003000FN00000000020220301000003000NNM   20220109193207    1W    00000150000000689000000000032DE    TVYEV-TV000000000000VT222019
BI00B32DE    TT2034         20220303180D0203935              AVSSH 0.5F B/R           CCN000006000000006000FN00000000020220301000006000NNM   20220109193207    1W    00000150000000689000000000032DE    TVYEV-TV000000000000VT322032
BI00B32DE    TT2033         20220224180D0203934              AVSSH 0.5F B/W           CCN000003000000003000FN00000000020220301000003000NNM   20220109193207    1W    00000150000000689000000000032DE    TVYEV-TV000000000000VT222020
BI00B32DE    TT2034         20220303180D0203934              AVSSH 0.5F B/W           CCN000001500000001500FN00000000020220301000001500NNM   20220109193207    1W    00000150000000689000000000032DE    TVYEV-TV000000000000VT322033
BI00B32DE    TT2033         20220224180D0203937              AVSSH 0.5F B/Y           CCN000003000000003000FN00000000020220301000003000NNM   20220109193207    1W    00000150000000689000000000032DE    TVYEV-TV000000000000VT222021
BI00B32DE    TT2034         20220303180D0203937              AVSSH 0.5F B/Y           CCN000003000000003000FN00000000020220301000003000NNM   20220109193207    1W    00000150000000689000000000032DE    TVYEV-TV000000000000VT322034
BI00B32DE    TT2031         20220210180D0203980              AVSSH 0.5F BR            CCN000003000000003000FN00000000020220301000003000NNM   20220109193207    1W    00000150000000689000000000032DE    TVYEV-TV000000000000VT421006
BI00B32DE    TT2032         20220217180D0203980              AVSSH 0.5F BR            CCN000024000000024000FN00000000020220301000024000NNM   20220109193207    1W    00000150000000689000000000032DE    TVYEV-TV000000000000VT122012
BI00B32DE    TT2033         20220224180D0203980              AVSSH 0.5F BR            CCN000016500000016500FN00000000020220301000016500NNM   20220109193207    1W    00000150000000689000000000032DE    TVYEV-TV000000000000VT222022
BI00B32DE    TT2034         20220303180D0203980              AVSSH 0.5F BR            CCN000022500000022500FN00000000020220301000022500NNM   20220109193207    1W    00000150000000689000000000032DE    TVYEV-TV000000000000VT322035
BI00B32DE    TT2033         20220224180D0203960              AVSSH 0.5F G             CCN000006000000006000FN00000000020220301000006000NNM   20220109193207    1W    00000150000000689000000000032DE    TVYEV-TV000000000000VT222023
BI00B32DE    TT2034         20220303180D0203960              AVSSH 0.5F G             CCN000033000000033000FN00000000020220301000033000NNM   20220109193207    1W    00000150000000689000000000032DE    TVYEV-TV000000000000VT322036
BI00B32DE    TT2031         20220210180D0203963              AVSSH 0.5F G/B           CCN000001500000001500FN00000000020220301000001500NNM   20220109193207    1W    00000150000000689000000000032DE    TVYEV-TV000000000000VT421007
BI00B32DE    TT2032         20220217180D0203963              AVSSH 0.5F G/B           CCN000003000000003000FN00000000020220301000003000NNM   20220109193207    1W    00000150000000689000000000032DE    TVYEV-TV000000000000VT122013
BI00B32DE    TT2033         20220224180D0203963              AVSSH 0.5F G/B           CCN000001500000001500FN00000000020220301000001500NNM   20220109193207    1W    00000150000000689000000000032DE    TVYEV-TV000000000000VT222024
BI00B32DE    TT2034         20220303180D0203963              AVSSH 0.5F G/B           CCN000003000000003000FN00000000020220301000003000NNM   20220109193207    1W    00000150000000689000000000032DE    TVYEV-TV000000000000VT322037
BI00B32DE    TT2031         20220210180D0203965              AVSSH 0.5F G/R           CCN000001500000001500FN00000000020220301000001500NNM   20220109193207    1W    00000150000000689000000000032DE    TVYEV-TV000000000000VT421008
BI00B32DE    TT2032         20220217180D0203965              AVSSH 0.5F G/R           CCN000006000000006000FN00000000020220301000006000NNM   20220109193207    1W    00000150000000689000000000032DE    TVYEV-TV000000000000VT122014
BI00B32DE    TT2033         20220224180D0203965              AVSSH 0.5F G/R           CCN000004500000004500FN00000000020220301000004500NNM   20220109193207    1W    00000150000000689000000000032DE    TVYEV-TV000000000000VT222025
BI00B32DE    TT2034         20220303180D0203965              AVSSH 0.5F G/R           CCN000004500000004500FN00000000020220301000004500NNM   20220109193207    1W    00000150000000689000000000032DE    TVYEV-TV000000000000VT322038
BI00B32DE    TT2032         20220217180D0203964              AVSSH 0.5F G/W           CCN000001500000001500FN00000000020220301000001500NNM   20220109193207    1W    00000150000000689000000000032DE    TVYEV-TV000000000000VT122015
BI00B32DE    TT2034         20220303180D0203964              AVSSH 0.5F G/W           CCN000003000000003000FN00000000020220301000003000NNM   20220109193207    1W    00000150000000689000000000032DE    TVYEV-TV000000000000VT322039
BI00B32DE    TT2031         20220210180D0203967              AVSSH 0.5F G/Y           CCN000003000000003000FN00000000020220301000003000NNM   20220109193207    1W    00000150000000689000000000032DE    TVYEV-TV000000000000VT421009
BI00B32DE    TT2032         20220217180D0203967              AVSSH 0.5F G/Y           CCN000004500000004500FN00000000020220301000004500NNM   20220109193207    1W    00000150000000689000000000032DE    TVYEV-TV000000000000VT122016
BI00B32DE    TT2033         20220224180D0203967              AVSSH 0.5F G/Y           CCN000003000000003000FN00000000020220301000003000NNM   20220109193207    1W    00000150000000689000000000032DE    TVYEV-TV000000000000VT222026
BI00B32DE    TT2034         20220303180D0203967              AVSSH 0.5F G/Y           CCN000003000000003000FN00000000020220301000003000NNM   20220109193207    1W    00000150000000689000000000032DE    TVYEV-TV000000000000VT322040
BI00B32DE    TT2032         20220217180D0203941              AVSSH 0.5F GY            CCN000013500000013500FN00000000020220301000013500NNM   20220109193207    1W    00000150000000689000000000032DE    TVYEV-TV000000000000VT122017
BI00B32DE    TT2033         20220224180D0203941              AVSSH 0.5F GY            CCN000033000000033000FN00000000020220301000033000NNM   20220109193207    1W    00000150000000689000000000032DE    TVYEV-TV000000000000VT222027
BI00B32DE    TT2034         20220303180D0203941              AVSSH 0.5F GY            CCN000036000000036000FN00000000020220301000036000NNM   20220109193207    1W    00000150000000689000000000032DE    TVYEV-TV000000000000VT322041
BI00B32DE    TT2032         20220217180D0203990              AVSSH 0.5F L             CCN000018000000018000FN00000000020220301000018000NNM   20220109193207    1W    00000150000000689000000000032DE    TVYEV-TV000000000000VT122018
BI00B32DE    TT2033         20220224180D0203990              AVSSH 0.5F L             CCN000037500000037500FN00000000020220301000037500NNM   20220109193207    1W    00000150000000689000000000032DE    TVYEV-TV000000000000VT222028
BI00B32DE    TT2034         20220303180D0203990              AVSSH 0.5F L             CCN000048000000048000FN00000000020220301000048000NNM   20220109193207    1W    00000150000000689000000000032DE    TVYEV-TV000000000000VT322042
BI00B32DE    TT2031         20220210180D0203995              AVSSH 0.5F L/R           CCN000006000000006000FN00000000020220301000006000NNM   20220109193207    1W    00000150000000689000000000032DE    TVYEV-TV000000000000VT421010
BI00B32DE    TT2032         20220217180D0203995              AVSSH 0.5F L/R           CCN000010500000010500FN00000000020220301000010500NNM   20220109193207    1W    00000150000000689000000000032DE    TVYEV-TV000000000000VT122019
BI00B32DE    TT2033         20220224180D0203995              AVSSH 0.5F L/R           CCN000009000000009000FN00000000020220301000009000NNM   20220109193207    1W    00000150000000689000000000032DE    TVYEV-TV000000000000VT222029
BI00B32DE    TT2034         20220303180D0203995              AVSSH 0.5F L/R           CCN000009000000009000FN00000000020220301000009000NNM   20220109193207    1W    00000150000000689000000000032DE    TVYEV-TV000000000000VT322043
BI00B32DE    TT2032         20220217180D0203994              AVSSH 0.5F L/W           CCN000013500000013500FN00000000020220301000013500NNM   20220109193207    1W    00000150000000689000000000032DE    TVYEV-TV000000000000VT122020
BI00B32DE    TT2033         20220224180D0203994              AVSSH 0.5F L/W           CCN000010500000010500FN00000000020220301000010500NNM   20220109193207    1W    00000150000000689000000000032DE    TVYEV-TV000000000000VT222030
BI00B32DE    TT2034         20220303180D0203994              AVSSH 0.5F L/W           CCN000013500000013500FN00000000020220301000013500NNM   20220109193207    1W    00000150000000689000000000032DE    TVYEV-TV000000000000VT322044
BI00B32DE    TT2031         20220210180D0203997              AVSSH 0.5F L/Y           CCN000001500000001500FN00000000020220301000001500NNM   20220109193207    1W    00000150000000689000000000032DE    TVYEV-TV000000000000VT421011
BI00B32DE    TT2032         20220217180D0203997              AVSSH 0.5F L/Y           CCN000003000000003000FN00000000020220301000003000NNM   20220109193207    1W    00000150000000689000000000032DE    TVYEV-TV000000000000VT122021
BI00B32DE    TT2033         20220224180D0203997              AVSSH 0.5F L/Y           CCN000003000000003000FN00000000020220301000003000NNM   20220109193207    1W    00000150000000689000000000032DE    TVYEV-TV000000000000VT222031
BI00B32DE    TT2034         20220303180D0203997              AVSSH 0.5F L/Y           CCN000003000000003000FN00000000020220301000003000NNM   20220109193207    1W    00000150000000689000000000032DE    TVYEV-TV000000000000VT322045
BI00B32DE    TT2032         20220217180D0203961              AVSSH 0.5F LG            CCN000006000000006000FN00000000020220301000006000NNM   20220109193207    1W    00000150000000689000000000032DE    TVYEV-TV000000000000VT122022
BI00B32DE    TT2033         20220224180D0203961              AVSSH 0.5F LG            CCN000033000000033000FN00000000020220301000033000NNM   20220109193207    1W    00000150000000689000000000032DE    TVYEV-TV000000000000VT222032
BI00B32DE    TT2034         20220303180D0203961              AVSSH 0.5F LG            CCN000037500000037500FN00000000020220301000037500NNM   20220109193207    1W    00000150000000689000000000032DE    TVYEV-TV000000000000VT322046
BI00B32DE    TT2033         20220224180D0203952              AVSSH 0.5F P             CCN000009000000009000FN00000000020220301000009000NNM   20220109193207    1W    00000150000000689000000000032DE    TVYEV-TV000000000000VT222033
BI00B32DE    TT2034         20220303180D0203952              AVSSH 0.5F P             CCN000033000000033000FN00000000020220301000033000NNM   20220109193207    1W    00000150000000689000000000032DE    TVYEV-TV000000000000VT322047
BI00B32DE    TT2033         20220224180D02039G6              AVSSH 0.5F P/L           CCN000001500000001500FN00000000020220301000001500NNM   20220109193207    1W    00000150000000689000000000032DE    TVYEV-TV000000000000VT222034
BI00B32DE    TT2032         20220217180D0203950              AVSSH 0.5F R             CCN000007500000007500FN00000000020220301000007500NNM   20220109193207    1W    00000150000000689000000000032DE    TVYEV-TV000000000000VT122023
BI00B32DE    TT2033         20220224180D0203950              AVSSH 0.5F R             CCN000019500000019500FN00000000020220301000019500NNM   20220109193207    1W    00000150000000689000000000032DE    TVYEV-TV000000000000VT222035
BI00B32DE    TT2034         20220303180D0203950              AVSSH 0.5F R             CCN000024000000024000FN00000000020220301000024000NNM   20220109193207    1W    00000150000000689000000000032DE    TVYEV-TV000000000000VT322048
BI00B32DE    TT2031         20220210180D0203953              AVSSH 0.5F R/B           CCN000003000000003000FN00000000020220301000003000NNM   20220109193207    1W    00000150000000689000000000032DE    TVYEV-TV000000000000VT421012
BI00B32DE    TT2032         20220217180D0203953              AVSSH 0.5F R/B           CCN000004500000004500FN00000000020220301000004500NNM   20220109193207    1W    00000150000000689000000000032DE    TVYEV-TV000000000000VT122024
BI00B32DE    TT2033         20220224180D0203953              AVSSH 0.5F R/B           CCN000003000000003000FN00000000020220301000003000NNM   20220109193207    1W    00000150000000689000000000032DE    TVYEV-TV000000000000VT222036
BI00B32DE    TT2034         20220303180D0203953              AVSSH 0.5F R/B           CCN000003000000003000FN00000000020220301000003000NNM   20220109193207    1W    00000150000000689000000000032DE    TVYEV-TV000000000000VT322049
BI00B32DE    TT2032         20220217180D0203959              AVSSH 0.5F R/L           CCN000003000000003000FN00000000020220301000003000NNM   20220109193207    1W    00000150000000689000000000032DE    TVYEV-TV000000000000VT122025
BI00B32DE    TT2033         20220224180D0203959              AVSSH 0.5F R/L           CCN000001500000001500FN00000000020220301000001500NNM   20220109193207    1W    00000150000000689000000000032DE    TVYEV-TV000000000000VT222037
BI00B32DE    TT2034         20220303180D0203959              AVSSH 0.5F R/L           CCN000003000000003000FN00000000020220301000003000NNM   20220109193207    1W    00000150000000689000000000032DE    TVYEV-TV000000000000VT322050
BI00B32DE    TT2031         20220210180D0203954              AVSSH 0.5F R/W           CCN000001500000001500FN00000000020220301000001500NNM   20220109193207    1W    00000150000000689000000000032DE    TVYEV-TV000000000000VT421013
BI00B32DE    TT2032         20220217180D0203954              AVSSH 0.5F R/W           CCN000003000000003000FN00000000020220301000003000NNM   20220109193207    1W    00000150000000689000000000032DE    TVYEV-TV000000000000VT122026
BI00B32DE    TT2033         20220224180D0203954              AVSSH 0.5F R/W           CCN000003000000003000FN00000000020220301000003000NNM   20220109193207    1W    00000150000000689000000000032DE    TVYEV-TV000000000000VT222038
BI00B32DE    TT2034         20220303180D0203954              AVSSH 0.5F R/W           CCN000003000000003000FN00000000020220301000003000NNM   20220109193207    1W    00000150000000689000000000032DE    TVYEV-TV000000000000VT322051
BI00B32DE    TT2031         20220210180D0203957              AVSSH 0.5F R/Y           CCN000001500000001500FN00000000020220301000001500NNM   20220109193207    1W    00000150000000689000000000032DE    TVYEV-TV000000000000VT421014
BI00B32DE    TT2032         20220217180D0203957              AVSSH 0.5F R/Y           CCN000003000000003000FN00000000020220301000003000NNM   20220109193207    1W    00000150000000689000000000032DE    TVYEV-TV000000000000VT122027
BI00B32DE    TT2033         20220224180D0203957              AVSSH 0.5F R/Y           CCN000001500000001500FN00000000020220301000001500NNM   20220109193207    1W    00000150000000689000000000032DE    TVYEV-TV000000000000VT222039
BI00B32DE    TT2034         20220303180D0203957              AVSSH 0.5F R/Y           CCN000001500000001500FN00000000020220301000001500NNM   20220109193207    1W    00000150000000689000000000032DE    TVYEV-TV000000000000VT322052
BI00B32DE    TT2032         20220217180D0203992              AVSSH 0.5F V             CCN000001500000001500FN00000000020220301000001500NNM   20220109193207    1W    00000150000000689000000000032DE    TVYEV-TV000000000000VT122028
BI00B32DE    TT2033         20220224180D0203992              AVSSH 0.5F V             CCN000015000000015000FN00000000020220301000015000NNM   20220109193207    1W    00000150000000689000000000032DE    TVYEV-TV000000000000VT222040
BI00B32DE    TT2034         20220303180D0203992              AVSSH 0.5F V             CCN000015000000015000FN00000000020220301000015000NNM   20220109193207    1W    00000150000000689000000000032DE    TVYEV-TV000000000000VT322053
