BI00A32DG    RW2023         202201121801W006961              IVSSH 0.35F LG           PCN000010000000010000FN00000000020220201000010000NNM22 20220111114151    1W    00000250000000452000000000032DG    BFSAIBF 000000000000GZ121016
BI00A32DG    RW2023         202201121801W006952              IVSSH 0.35F P            PCN000010000000010000FN00000000020220201000010000NNM22 20220111114151    1W    00000250000000452000000000032DG    BFSAIBF 000000000000GZ121017
BI00A32DG    RW2023         202201121801W006991              IVSSH 0.35F SB           PCN000007500000007500FN00000000020220201000007500NNM22 20220111114151    1W    00000250000000452000000000032DG    BFSAIBF 000000000000GZ121019
BI00A32DG    RW2023         202201121801W006992              IVSSH 0.35F V            PCN000022500000022500FN00000000020220201000022500NNM22 20220111114151    1W    00000250000000452000000000032DG    BFSAIBF 000000000000GZ121020
BI00A32DG    RW2023         202201121801W003940              IVSSH 0.5F W             PCN000007200000007200FN00000000020220201000007200NNM22 20220111114151    1W    00000180000000625000000000032DG    BFSAIBF 000000000000GZ121010
BI00B32G2    SA2202A MW     202204201801W006941              IVSSH 0.35F GY           CCN000022500000022500FN00000000020220201000022500NNE   20220111111930    1W    00000250000000452000000000032G2    AISUAI  000000000000IO124010
BI00B32G2    SA2202AJMW     202203021801W003970              IVSSH 0.5F Y             CCN000041400000041400FN00000000020220201000041400NNE   20220111111930    1W    00000180000000625000000000032G2    AISUAI  000000000000IP322002
BI00B32G2    SA2202AJMW     202203021801W004080              IVSSH 0.75F BR           CCN000003900000003900FN00000000020220201000003900NNE   20220111111930    1W    00000130000000882000000000032G2    AISUAI  000000000000IP322003
BI00B32G2    SA2202AJMW     202203021801W006940              IVSSH 0.35F W            CCN000025000000025000FN00000000020220201000025000NNE   20220111111930    1W    00000250000000452000000000032G2    AISUAI  000000000000IP322004
BI00B32G2    SA2202B MW     2022032318007704040              AVSS 0.75F W             CCN000002000000002000FN00000000020220201000002000NNE   20220111111931    1W    00000100000000943000000000032G2    AISUAI  000000000000IQ223004
BI00B32G2    SA2202B MW     202203231801W003960              IVSSH 0.5F G             CCN000082800000082800FN00000000020220201000082800NNE   20220111111931    1W    00000180000000625000000000032G2    AISUAI  000000000000IQ223005
BI00B32G2    SA2202B MW     202203231801W003990              IVSSH 0.5F L             CCN000061200000061200FN00000000020220201000061200NNE   20220111111931    1W    00000180000000625000000000032G2    AISUAI  000000000000IQ223006
BI00B32G2    SA2202B MW     202203231801W004030              IVSSH 0.75F B            CCN000011700000011700FN00000000020220201000011700NNE   20220111111931    1W    00000130000000882000000000032G2    AISUAI  000000000000IQ223007
BI00B32G2    SA2202B MW     202203231801W004041              IVSSH 0.75F GY           CCN000003900000003900FN00000000020220201000003900NNE   20220111111931    1W    00000130000000882000000000032G2    AISUAI  000000000000IQ223008
BI00B32G2    SA2202B MW     202203231801W004043              IVSSH 0.75F W/B          CCN000007800000007800FN00000000020220201000007800NNE   20220111111931    1W    00000130000000882000000000032G2    AISUAI  000000000000IQ223009
BI00B32G2    SA2202B MW     202203231801W006930              IVSSH 0.35F B            CCN000020000000020000FN00000000020220201000020000NNE   20220111111931    1W    00000250000000452000000000032G2    AISUAI  000000000000IQ223010
BI00B32G2    SA2202B MW     202203231801W006960              IVSSH 0.35F G            CCN000010000000010000FN00000000020220201000010000NNE   20220111111931    1W    00000250000000452000000000032G2    AISUAI  000000000000IQ223011
BI00B32G2    SA2202B MW     202203231801W006990              IVSSH 0.35F L            CCN000022500000022500FN00000000020220201000022500NNE   20220111111931    1W    00000250000000452000000000032G2    AISUAI  000000000000IQ223012
BI00B32G2    SA2202B MW     202203231801W006992              IVSSH 0.35F V            CCN000012500000012500FN00000000020220201000012500NNE   20220111111931    1W    00000250000000452000000000032G2    AISUAI  000000000000IQ223013
BI00A32G7    @JW2201E MW    20220111181E48016ZZ              CAVSAS-S 0.5X1 GY/O      CCN000000400000000400FN00000000020220101000000400NNE   20220111083650    1W    00000040000001900600000000032G7    JIJAI   000000000000JB121002
BI00B32M4    @TH2024A       20220210181B32039S1              AVSSCS 0.5FX1 DGY        CCN000004000000004000FN00000000020220201000004000NNE   20220111161940    1W    00000040000002289000000000032M4    SISAI   000000000000GN421001
BI00B32M4    @TH2024A       20220210181B32039Y6              AVSSCS 0.5FX1 DGY/G      CCN000015600000015600FN00000000020220201000015600NNE   20220111161940    1W    00000040000002289000000000032M4    SISAI   000000000000GN421002
BI00B32M4    @TH2024A       20220210181CQ7003ZZ              IVSSHCS-S 0.5FX2 B(B,W)  CCN000006300000006300FN00000000020220201000006300NNE   20220111161940    1W    00000030000002350200000000032M4    SISAI   000000000000GN421003
BI00B32U5    DW2010         202202041801W003930              IVSSH 0.5F B             CCN000127800000127800FN00000000020220401000127800NNM   20220111081002U5  1W    00000180000000625000000000032U5    ASAMSD  000000000000AV321034
BI00B32U5    DW2010         202202041801W003940              IVSSH 0.5F W             CCN000046800000046800FN00000000020220401000046800NNM   20220111081002U5  1W    00000180000000625000000000032U5    ASAMSD  000000000000AV321043
BI00B32U5    DW2010         202202041801W003941              IVSSH 0.5F GY            CCN000014400000014400FN00000000020220401000014400NNM   20220111081002U5  1W    00000180000000625000000000032U5    ASAMSD  000000000000AV321038
BI00B32U5    DW2010         202202041801W003950              IVSSH 0.5F R             CCN000030600000030600FN00000000020220401000030600NNM   20220111081002U5  1W    00000180000000625000000000032U5    ASAMSD  000000000000AV321041
BI00B32U5    DW2010         202202041801W003952              IVSSH 0.5F P             CCN000030600000030600FN00000000020220401000030600NNM   20220111081002U5  1W    00000180000000625000000000032U5    ASAMSD  000000000000AV321040
BI00B32U5    DW2010         202202041801W00395U              IVSSH 0.5F BE            CCN000005400000005400FN00000000020220401000005400NNM   20220111081002U5  1W    00000180000000625000000000032U5    ASAMSD  000000000000AV321035
BI00B32U5    DW2010         202202041801W003960              IVSSH 0.5F G             CCN000093600000093600FN00000000020220401000093600NNM   20220111081002U5  1W    00000180000000625000000000032U5    ASAMSD  000000000000AV321037
BI00B32U5    DW2010         202202041801W003970              IVSSH 0.5F Y             CCN000016200000016200FN00000000020220401000016200NNM   20220111081002U5  1W    00000180000000625000000000032U5    ASAMSD  000000000000AV321044
BI00B32U5    DW2010         202202041801W003980              IVSSH 0.5F BR            CCN000001800000001800FN00000000020220401000001800NNM   20220111081002U5  1W    00000180000000625000000000032U5    ASAMSD  000000000000AV321036
BI00B32U5    DW2010         202202041801W003990              IVSSH 0.5F L             CCN000100800000100800FN00000000020220401000100800NNM   20220111081002U5  1W    00000180000000625000000000032U5    ASAMSD  000000000000AV321039
BI00B32U5    DW2010         202202041801W003992              IVSSH 0.5F V             CCN000027000000027000FN00000000020220401000027000NNM   20220111081002U5  1W    00000180000000625000000000032U5    ASAMSD  000000000000AV321042
BI00B32U5    DW2010         202202041801W004030              IVSSH 0.75F B            CCN000014300000014300FN00000000020220401000014300NNM   20220111081002U5  1W    00000130000000882000000000032U5    ASAMSD  000000000000AV321045
BI00B32U5    DW2010         202202041801W004040              IVSSH 0.75F W            CCN000006500000006500FN00000000020220401000006500NNM   20220111081002U5  1W    00000130000000882000000000032U5    ASAMSD  000000000000AV321050
BI00B32U5    DW2010         202202041801W004043              IVSSH 0.75F W/B          CCN000015600000015600FN00000000020220401000015600NNM   20220111081002U5  1W    00000130000000882000000000032U5    ASAMSD  000000000000AV321051
BI00B32U5    DW2010         202202041801W004050              IVSSH 0.75F R            CCN000003900000003900FN00000000020220401000003900NNM   20220111081002U5  1W    00000130000000882000000000032U5    ASAMSD  000000000000AV321049
BI00B32U5    DW2010         202202041801W004052              IVSSH 0.75F P            CCN000005200000005200FN00000000020220401000005200NNM   20220111081002U5  1W    00000130000000882000000000032U5    ASAMSD  000000000000AV321048
BI00B32U5    DW2010         202202041801W004060              IVSSH 0.75F G            CCN000005200000005200FN00000000020220401000005200NNM   20220111081002U5  1W    00000130000000882000000000032U5    ASAMSD  000000000000AV321046
BI00B32U5    DW2010         202202041801W004090              IVSSH 0.75F L            CCN000007800000007800FN00000000020220401000007800NNM   20220111081002U5  1W    00000130000000882000000000032U5    ASAMSD  000000000000AV321047
BI00B32U5    DW2010         202202041801W006930              IVSSH 0.35F B            CCN000117500000117500FN00000000020220401000117500NNM   20220111081002U5  1W    00000250000000452000000000032U5    ASAMSD  000000000000AV321052
BI00B32U5    DW2010         202202041801W006940              IVSSH 0.35F W            CCN000065000000065000FN00000000020220401000065000NNM   20220111081002U5  1W    00000250000000452000000000032U5    ASAMSD  000000000000AV321062
BI00B32U5    DW2010         202202041801W006941              IVSSH 0.35F GY           CCN000015000000015000FN00000000020220401000015000NNM   20220111081002U5  1W    00000250000000452000000000032U5    ASAMSD  000000000000AV321056
BI00B32U5    DW2010         202202041801W006950              IVSSH 0.35F R            CCN000122500000122500FN00000000020220401000122500NNM   20220111081002U5  1W    00000250000000452000000000032U5    ASAMSD  000000000000AV321060
BI00B32U5    DW2010         202202041801W006952              IVSSH 0.35F P            CCN000050000000050000FN00000000020220401000050000NNM   20220111081002U5  1W    00000250000000452000000000032U5    ASAMSD  000000000000AV321059
BI00B32U5    DW2010         202202041801W00695U              IVSSH 0.35F BE           CCN000002500000002500FN00000000020220401000002500NNM   20220111081002U5  1W    00000250000000452000000000032U5    ASAMSD  000000000000AV321053
BI00B32U5    DW2010         202202041801W006960              IVSSH 0.35F G            CCN000077500000077500FN00000000020220401000077500NNM   20220111081002U5  1W    00000250000000452000000000032U5    ASAMSD  000000000000AV321055
BI00B32U5    DW2010         202202041801W006961              IVSSH 0.35F LG           CCN000030000000030000FN00000000020220401000030000NNM   20220111081002U5  1W    00000250000000452000000000032U5    ASAMSD  000000000000AV321058
BI00B32U5    DW2010         202202041801W006970              IVSSH 0.35F Y            CCN000007500000007500FN00000000020220401000007500NNM   20220111081002U5  1W    00000250000000452000000000032U5    ASAMSD  000000000000AV321063
BI00B32U5    DW2010         202202041801W006980              IVSSH 0.35F BR           CCN000035000000035000FN00000000020220401000035000NNM   20220111081002U5  1W    00000250000000452000000000032U5    ASAMSD  000000000000AV321054
BI00B32U5    DW2010         202202041801W006990              IVSSH 0.35F L            CCN000075000000075000FN00000000020220401000075000NNM   20220111081002U5  1W    00000250000000452000000000032U5    ASAMSD  000000000000AV321057
BI00B32U5    DW2010         202202041801W006991              IVSSH 0.35F SB           CCN000030000000030000FN00000000020220401000030000NNM   20220111081002U5  1W    00000250000000452000000000032U5    ASAMSD  000000000000AV321061
BI00B32U5    @DW2010        20220204181AD2013ZZ              CIVUSAS-S 1.25X2 B       CCN000003080000003080FN00000000020220401000003080NNM   20220111080959U5  1W    00000022000003840000000000032U5    ASAMSD  000000000000AV321032
BI00B32U5    @DW2010        20220204181F21027ZZ              AVSSHCS-S 1.25FX2 B      CCN000007200000007200FN00000000020220401000007200NNM   20220111080959U5  1W    00000020000004267300000000032U5    ASAMSD  000000000000AV321033
BI00B32X5    TWB2011        202202111801W003943              IVSSH 0.5F W/B           CCN000001800000001800FN00000000020220401000001800NNM   20220111163832X5  1W    00000180000000625000000000032X5    EPYNA-E 000000000000AE421014
BI00B32X5    TWB2011        202202111801W00395U              IVSSH 0.5F BE            CCN000001800000001800FN00000000020220401000001800NNM   20220111163832X5  1W    00000180000000625000000000032X5    EPYNA-E 000000000000AE421012
BI00B32X5    TWB2011        202202111801W003990              IVSSH 0.5F L             CCN000009000000009000FN00000000020220401000009000NNM   20220111163832X5  1W    00000180000000625000000000032X5    EPYNA-E 000000000000AE421013
BI00B32X5    TWB2011        202202111801W004052              IVSSH 0.75F P            CCN000002600000002600FN00000000020220401000002600NNM   20220111163832X5  1W    00000130000000882000000000032X5    EPYNA-E 000000000000AE421017
BI00B32X5    TWB2011        202202111801W004060              IVSSH 0.75F G            CCN000001300000001300FN00000000020220401000001300NNM   20220111163832X5  1W    00000130000000882000000000032X5    EPYNA-E 000000000000AE421015
BI00B32X5    TWB2011        202202111801W004070              IVSSH 0.75F Y            CCN000002600000002600FN00000000020220401000002600NNM   20220111163832X5  1W    00000130000000882000000000032X5    EPYNA-E 000000000000AE421019
BI00B32X5    TWB2011        202202111801W004090              IVSSH 0.75F L            CCN000001300000001300FN00000000020220401000001300NNM   20220111163832X5  1W    00000130000000882000000000032X5    EPYNA-E 000000000000AE421016
BI00B32X5    TWB2011        202202111801W004092              IVSSH 0.75F V            CCN000002600000002600FN00000000020220401000002600NNM   20220111163832X5  1W    00000130000000882000000000032X5    EPYNA-E 000000000000AE421018
BI00B32X5    TWB2011        202202111801W006930              IVSSH 0.35F B            CCN000030000000030000FN00000000020220401000030000NNM   20220111163832X5  1W    00000250000000452000000000032X5    EPYNA-E 000000000000AE421020
BI00B32X5    TWB2011        202202111801W006940              IVSSH 0.35F W            CCN000035000000035000FN00000000020220401000035000NNM   20220111163832X5  1W    00000250000000452000000000032X5    EPYNA-E 000000000000AE421025
BI00B32X5    TWB2011        202202111801W006943              IVSSH 0.35F W/B          CCN000010000000010000FN00000000020220401000010000NNM   20220111163832X5  1W    00000250000000452000000000032X5    EPYNA-E 000000000000AE421026
BI00B32X5    TWB2011        202202111801W006950              IVSSH 0.35F R            CCN000020000000020000FN00000000020220401000020000NNM   20220111163832X5  1W    00000250000000452000000000032X5    EPYNA-E 000000000000AE421023
BI00B32X5    TWB2011        202202111801W006970              IVSSH 0.35F Y            CCN000015000000015000FN00000000020220401000015000NNM   20220111163832X5  1W    00000250000000452000000000032X5    EPYNA-E 000000000000AE421027
BI00B32X5    TWB2011        202202111801W006980              IVSSH 0.35F BR           CCN000002500000002500FN00000000020220401000002500NNM   20220111163832X5  1W    00000250000000452000000000032X5    EPYNA-E 000000000000AE421021
BI00B32X5    TWB2011        202202111801W006990              IVSSH 0.35F L            CCN000002500000002500FN00000000020220401000002500NNM   20220111163832X5  1W    00000250000000452000000000032X5    EPYNA-E 000000000000AE421022
BI00B32X5    TWB2011        202202111801W006992              IVSSH 0.35F V            CCN000005000000005000FN00000000020220401000005000NNM   20220111163832X5  1W    00000250000000452000000000032X5    EPYNA-E 000000000000AE421024
