BI00A1200    2399T51C22     202201137289-7970                HYBRID FEMALE ASS'Y      CCN000005120000005120FN00000000020220101000005120NNMM0020220111140828    1N0N  0000003200000073820000096471200    YCYC    005400370024
BI00A1200    2399T51C23     202201207289-7970                HYBRID FEMALE ASS'Y      CCN000005120000005120FN00000000020220101000005120NNMM0020220111162528    1N0N  0000003200000073820000096471200    YCYC    005400370024
BI00A1200    2399T51C25     202201277289-7970                HYBRID FEMALE ASS'Y      CCN000005120000005120FN00000000020220201000005120NNMM0020220111162548    1N0N  0000003200000073820000096471200    YCYC    005400370024
BI00B1200    7504T52101     202203037154-7140-30             LOWER COVER              CCN000004200000004200FN00000000020220401000004200NNM   20220111121643    4F0F  0000000600000019900000041001200    YCYC    005600390040
BI00B1200    7504T52101     202203037254-5840-30             ENG R/B SUB ASS'Y        CCN000004200000004200FN00000000020220401000004200NNM   20220111121643    4J0J  0000000240000073200000095201200    YCYC    005600390040
BI00B1200    7800T52103     202202247440-9184-0W             I/PNL J/B COMPLETE       CCN000000024000000024FN00000000020220301000000024NNE   20220111121643    1J0J  0000000240000121400000138501200    YCYC    005500360039
BI00B1200    #H322D50012    202203177174-1760-50             CAP                      CCN000036000000036000FN00000000020220401000036000NNE   20220111121643    2F0F  0000030000000081360000092261200    YCYC    005400370024
BI00B1200    H322D50014     202203177116-4111-02             TERMINAL                 CCN000007500000007500FN00000000020220401000007500NNE   20220111121643    4P0P  0000075000000052950000081771200    YCYC    006400630015
BI00B1200    H722D50005     202203177297-1861-30             HOUSING MALE ASS'Y       CCN000004500000004500FN00000000020220401000004500NNE   20220111121643    4N0N  0000015000000070220000082731200    YCYC    005400370024
BI00T32AF    @JTB203J-I     202203107183-7770-40             HOUSING                  CCN000048000000048000FN00000000020220301000048000NNE   20220111143003    3F0F  00000600000001011000001161032AF    HBYHVTB 005400370024
BI00T32AF    @JTB203J-I     202203107282-1025                HOUSING SUB ASSEMBLY     CCN000002400000002400FN00000000020220301000002400NNE   20220111143003    3N0N  00000240000001143800001390032AF    HBYHVTB 005500360039
BI00T32AF    @JTB203J-I     202203107282-1060                HOUSING SUB ASSEMBLY     CCN000006400000006400FN00000000020220301000006400NNE   20220111143003    3N0N  00000160000000955500001169032AF    HBYHVTB 005500360039
BI00T32AF    @JTB203J-I     202203107283-1556                CONNECTOR ASS'Y          CCN000024000000024000FN00000000020220301000024000NNE   20220111143003    3N0N  00000240000000755000001014032AF    HBYHVTB 005500360039
BI00T32AF    @JTB203J-I     202203107283-5976                CONNECTOR ASS'Y          CCN000014400000014400FN00000000020220301000014400NNE   20220111143003    3N0N  00000480000000840000001083632AF    HBYHVTB 005500360039
BI00B32AG    XG2202FLMW     202201287172-1372-10             FRONT HOLDER             CCN000003900000003900FN00000000020220201000003900NNE   20220111121643    4F0F  00000390000000655200000955232AG    XGXGY   005500360039
BI00B32AG    XG2202FLMW     202201287289-7615-30             HOUSING FEMALE ASS'Y     CCN000003520000003520FN00000000020220201000003520NNE   20220111121643    4N0N  00000032000000738000000948032AG    XGXGY   005400370024
BI00B32AG    #XG2202FLMW    202201287158-3120-90             CONNECTOR WIRE SEAL      CCN000100000000100000FN00000000020220201000100000NNE   20220111121643    2C0C  00002000000000136000000194032AG    XGXGY   002700430014
BI00B32AG    XG2202FNMW     202201287158-3165-90             WIRE SEAL                CCN000080000000080000FN00000000020220201000080000NNE   20220111121643    1C0C  00004000000000124000000172432AG    XGXGY   004300270014
BI00B32AG    XG2203BNMW     202201287116-4120-02             TERMINAL                 CCN000012000000012000FN00000000020220301000012000NNE   20220111121643    4P0P  00000600000000780000001073632AG    XGXGY   006400630015
BI00B32AG    XG2203BNMW     202201287116-4121-02             TERMINAL                 CCN000022500000022500FN00000000020220301000022500NNE   20220111121643    4P0P  00000450000000618800000912432AG    XGXGY   006400630015
BI00B32AG    XG2203BNMW     202201287158-3167-80             WIRE SEAL                CCN000080000000080000FN00000000020220301000080000NNE   20220111121643    1C0C  00002000000000048000000109032AG    XGXGY   002700430014
BI00B32AG    XG2203BNMW     202201287158-3168-80             SEALED                   CCN000040000000040000FN00000000020220301000040000NNE   20220111121643    1C0C  00002000000000044000000092132AG    XGXGY   004300260014
BI00B32AG    XG2203CNMW     202202117116-4415-02             TERMINAL                 CCN000228000000228000FN00000000020220301000228000NNE   20220111121643    4P0P  00003800000000596600000925732AG    XGXGY   006400630017
BI00B32AG    XG2203DLMW     202201287289-4696-30             HOUSING FEMALE ASS'Y     CCN000010000000010000FN00000000020220301000010000NNE   20220111121643    4N0N  00000200000000913400001055432AG    XGXGY   005400370024
BI00B32AG    #XG2203DLMW    202201287158-3003-90             RUBBER STOPPER           CCN000060000000060000FN00000000020220301000060000NNE   20220111121643    2C0C  00002000000000250000000306032AG    XGXGY   002700430014
BI00B32AG    #XG2203DLMW    202201287158-3121-80             WIRE SEAL                CCN000020000000020000FN00000000020220301000020000NNE   20220111121643    2C0C  00002000000000118000000187332AG    XGXGY   002700430014
BI00B32AG    #XG2203DLMW    202201287182-9631-40             JOINT CONNECTOR          CCN000003000000003000FN00000000020220301000003000NNE   20220111121643    2F0F  00000300000001182000001307432AG    XGXGY   005400370024
BI00B32AG    XG2203ELMW     202202117017-1183-02             TERMINAL                 CCN000027000000027000FN00000000020220301000027000NNE   20220111121643    4P0P  00002700000001139400001307432AG    XGXGY   005100280028
BI00B32AG    #XG2203ELMW    202202117158-3008-80             RUBBER STOPPER           CCN000020000000020000FN00000000020220301000020000NNE   20220111121643    2C0C  00002000000000288000000343032AG    XGXGY   004300270014
BI00B32AG    #XG2203ELMW    202202117158-3654-80             WIRE TUBE                CCN000040000000040000FN00000000020220301000040000NNE   20220111121643    2H0H  00004000000000104000000152232AG    XGXGY   004300270014
BI00B32AG    XG2204ALMW     202203117116-4025                TERMINAL                 CCN000032000000032000FN00000000020220401000032000NNE   20220111121643    4P0P  00001600000000644800000975132AG    XGXGY   006400630017
BI00B32AG    XG2204ANMW     202203117116-4122-02             TERMINAL                 CCN000009000000009000FN00000000020220401000009000NNE   20220111121643    4P0P  00000450000000656600000950232AG    XGXGY   006400630015
BI00B32AG    #XG2204ANMW    202203117123-6423-30             CONNECTOR                CCN000002000000002000FN00000000020220401000002000NNE   20220111121643    2F0F  00000200000001002000001167632AG    XGXGY   005600390023
BI00A32A7    ZZ22014BMW     202201197172-5403-30             SEALED PACKING           PCN000064000000064000FN00000000020220101000064000NNMD0420220111162235    1C0C  00000400000000653600000701732A7    ZZZZY   004300270014
BI00B32CC    CTA32051       202203037283-4855                CONNECTOR HOUSING        CCN000012000000012000FN00000000020220501000012000NNED0420220111121643    4N0N  00000240000001188400001400032CC    BIYABCBU005500360039
BI00B32CJ    JQN202B        202203257289-3342                HOUSING FEMALE ASS'Y     CCN000002400000002400FN00000000020220201000002400NNED0420220111121643    1N0N  00000240000000686400000901432CJ    QNYHVQN 005500360039
BI00B32DE    TCT202B        202202037114-4728-02             TERMINAL                 CCN000090000000090000FN00000000020220201000090000NNE   20220111121643    4P0P  00003000000000510000000804232DE    TVYEV-TV006400630015
BI00B32DE    TCT202B        202202037114-5746-02             TERMINAL                 CCN000042000000042000FN00000000020220201000042000NNE   20220111121643    4P0P  00002100000000695100000988732DE    TVYEV-TV006400630015
BI00B32DE    TCT202B        202202037114-5747-02             TERMINAL                 CCN000018000000018000FN00000000020220201000018000NNE   20220111121643    4P0P  00001800000000626400000920032DE    TVYEV-TV006400630015
BI00B32DE    TCT202B        202202037116-1685-02             TERMINAL                 CCN000336000000336000FN00000000020220201000336000NNE   20220111121643    4P0P  00002400000000897600001065232DE    TVYEV-TV005100280028
BI00B32DE    TCT202B        202202037116-1686-02             TERMINAL                 CCN000021000000021000FN00000000020220201000021000NNE   20220111121643    4P0P  00002100000000869400001021632DE    TVYEV-TV005100280028
BI00B32DE    TCT202B        202202037116-2640                TERMINAL                 CCN000018000000018000FN00000000020220201000018000NNE   20220111121643    4P0P  00001800000001018800001196632DE    TVYEV-TV005100280028
BI00B32DE    TCT202B        202202037116-2891-02             TERMINAL                 CCN000105000000105000FN00000000020220201000105000NNE   20220111121643    4P0P  00001500000000982500001145932DE    TVYEV-TV005100280028
BI00B32DE    TCT202B        202202037116-2892-02             TERMINAL                 CCN000084000000084000FN00000000020220201000084000NNE   20220111121643    4P0P  00001200000000818400000981832DE    TVYEV-TV005100280028
BI00B32DE    TCT202B        202202037116-2893-02             TERMINAL                 CCN000180000000180000FN00000000020220201000180000NNE   20220111121643    4P0P  00001200000000895200001058632DE    TVYEV-TV005100280028
BI00B32DE    TCT202B        202202037116-4025                TERMINAL                 CCN000064000000064000FN00000000020220201000064000NNE   20220111121643    4P0P  00001600000000644800000975132DE    TVYEV-TV006400630017
BI00B32DE    TCT202B        202202037116-4026                TERMINAL                 CCN000096000000096000FN00000000020220201000096000NNE   20220111121643    4P0P  00001600000000664000000994332DE    TVYEV-TV006400630017
BI00B32DE    TCT202B        202202037116-4116-02             TERMINAL                 CCN000027600000027600FN00000000020220201000027600NNE   20220111121643    4P0P  00000690000000517500000805732DE    TVYEV-TV006400630015
BI00B32DE    TCT202B        202202037116-5035-02             TERMINAL                 CCN000015000000015000FN00000000020220201000015000NNE   20220111121643    4P0P  00001500000000543000000828232DE    TVYEV-TV006400630015
BI00B32DE    TCT202B        202202037116-5041-02             TERMINAL                 CCN000015000000015000FN00000000020220201000015000NNE   20220111121643    4P0P  00001500000000583500000868732DE    TVYEV-TV006400630015
BI00B32DE    TCT202B        202202037116-5042-02             TERMINAL                 CCN000027000000027000FN00000000020220201000027000NNE   20220111121643    4P0P  00001350000000560300000845532DE    TVYEV-TV006400630015
BI00B32DE    TCT202B        202202037116-5044-02             TERMINAL                 CCN000016000000016000FN00000000020220201000016000NNE   20220111121643    4P0P  00001600000000641600000986332DE    TVYEV-TV006400630017
BI00B32DE    TCT202B        202202037116-5046-02             TERMINAL                 CCN000012000000012000FN00000000020220201000012000NNE   20220111121643    4P0P  00001200000000544800000873532DE    TVYEV-TV006400630017
BI00B32DE    TCT202B        202202037116-5750-02             TERMINAL                 CCN000030000000030000FN00000000020220201000030000NNE   20220111121643    4P0P  00001500000000457500000742732DE    TVYEV-TV006400630015
BI00B32DE    TCT202B        202202037116-6041                TERMINAL                 CCN000009000000009000FN00000000020220201000009000NNE   20220111121643    4P0P  00000450000000716000001009632DE    TVYEV-TV006400630015
BI00B32DE    TCT202B        202202037116-6042                TERMINAL                 CCN000018000000018000FN00000000020220201000018000NNE   20220111121643    4P0P  00000300000000523800000856132DE    TVYEV-TV006400630015
BI00B32DE    TCT202B        202202037126-8853-02             TERMINAL                 CCN000105000000105000FN00000000020220201000105000NNE   20220111121643    4P0P  00000750000000562500000847732DE    TVYEV-TV006400630015
BI00B32DE    TCT202B        202202037126-8854-02             TERMINAL                 CCN000127500000127500FN00000000020220201000127500NNE   20220111121643    4P0P  00000750000000604500000889732DE    TVYEV-TV006400630015
BI00B32DE    TCT202B        202202037126-8855-02             TERMINAL                 CCN000108000000108000FN00000000020220201000108000NNE   20220111121643    4P0P  00000600000000510600000795832DE    TVYEV-TV006400630015
BI00B32DE    TCT202B        202202037158-3165-90             WIRE SEAL                CCN000120000000120000FN00000000020220201000120000NNE   20220111121643    1C0C  00004000000000124000000172432DE    TVYEV-TV004300270014
BI00B32DE    TCT202B        202202037158-3166-60             WIRE SEAL                CCN000120000000120000FN00000000020220201000120000NNE   20220111121643    1C0C  00004000000000104000000152432DE    TVYEV-TV002700430014
BI00B32DE    TCT202B        202202037196-0550-02             TERMINAL ALUMINIUM       CCN000032000000032000FN00000000020220201000032000NNE   20220111121643    4P0P  00003200000000515200000901632DE    TVYEV-TV006400630017
BI00B32DE    TCT202B        202202037282-4577                HOUSING MALE ASS'Y       CCN000002400000002400FN00000000020220201000002400NNE   20220111121643    4N0N  00000240000000964800001174832DE    TVYEV-TV005500360039
BI00B32DE    TCT202B        202202037283-1288-10             CONNECTOR HOUSING        CCN000008400000008400FN00000000020220201000008400NNE   20220111121643    4N0N  00000120000001381000001637032DE    TVYEV-TV005600390040
BI00B32DE    TCT202B        202202037283-1288-40             CONNECTOR HOUSING        CCN000001200000001200FN00000000020220201000001200NNE   20220111121643    4N0N  00000120000001382000001640732DE    TVYEV-TV005600390040
BI00B32DE    TCT202B        202202037283-1289-30             CONNECTOR HOUSING        CCN000000600000000600FN00000000020220201000000600NNE   20220111121643    1N0N  00000060000000675600000820632DE    TVYEV-TV005400370024
BI00B32DE    TCT202B        202202037283-1289-40             CONNECTOR HOUSING        CCN000001200000001200FN00000000020220201000001200NNE   20220111121643    1N0N  00000060000000679800000824832DE    TVYEV-TV005400370024
BI00B32DE    TCT202B        202202037286-1900                CONNECTOR HOUSING        CCN000004800000004800FN00000000020220201000004800NNE   20220111121643    4N0N  00000480000001161600001376632DE    TVYEV-TV005500360039
BI00B32DE    TCT202B        202202037287-9234                JOINT CONNECTOR          CCN000048000000048000FN00000000020220201000048000NNE   20220111121643    4N0N  00000960000000893800001184832DE    TVYEV-TV005500360039
BI00B32DE    TCT202B        202202037288-3335-30             HOUSING MALE             CCN000003000000003000FN00000000020220201000003000NNE   20220111121643    4N0N  00000150000000867000001012032DE    TVYEV-TV005400370024
BI00B32DE    TCT202B        202202037289-3342                HOUSING FEMALE ASS'Y     CCN000002400000002400FN00000000020220201000002400NNE   20220111121643    1N0N  00000240000000686400000901432DE    TVYEV-TV005500360039
BI00B32DE    TCT202B        202202037289-3342-30             HOUSING FEMALE ASS'Y     CCN000004800000004800FN00000000020220201000004800NNE   20220111121643    1N0N  00000240000000686400000901432DE    TVYEV-TV005500360039
BI00B32DE    #TCT202B       202202037154-5597-30             CASSETTE R/B             CCN000003200000003200FN00000000020220201000003200NNE   20220111121643    2F0F  00000080000000736000000952032DE    TVYEV-TV005500360039
BI00B32DE    TCT203A        202202107114-5753-02             TERMINAL                 CCN000027000000027000FN00000000020220301000027000NNE   20220111121643    4P0P  00002700000000847800001141432DE    TVYEV-TV006400630015
BI00B32DE    TCT203A        202202107116-1685-02             TERMINAL                 CCN000360000000360000FN00000000020220301000360000NNE   20220111121643    4P0P  00002400000000897600001065232DE    TVYEV-TV005100280028
BI00B32DE    TCT203A        202202107116-1686-02             TERMINAL                 CCN000042000000042000FN00000000020220301000042000NNE   20220111121643    4P0P  00002100000000869400001021632DE    TVYEV-TV005100280028
BI00B32DE    TCT203A        202202107116-2640                TERMINAL                 CCN000018000000018000FN00000000020220301000018000NNE   20220111121643    4P0P  00001800000001018800001196632DE    TVYEV-TV005100280028
BI00B32DE    TCT203A        202202107116-2891-02             TERMINAL                 CCN000120000000120000FN00000000020220301000120000NNE   20220111121643    4P0P  00001500000000982500001145932DE    TVYEV-TV005100280028
BI00B32DE    TCT203A        202202107116-2892-02             TERMINAL                 CCN000096000000096000FN00000000020220301000096000NNE   20220111121643    4P0P  00001200000000818400000981832DE    TVYEV-TV005100280028
BI00B32DE    TCT203A        202202107116-2893-02             TERMINAL                 CCN000180000000180000FN00000000020220301000180000NNE   20220111121643    4P0P  00001200000000895200001058632DE    TVYEV-TV005100280028
BI00B32DE    TCT203A        202202107116-3153-08             TERMINAL                 CCN000027000000027000FN00000000020220301000027000NNE   20220111121643    4P0P  00002700000000461700000746932DE    TVYEV-TV006400630015
BI00B32DE    TCT203A        202202107116-4025                TERMINAL                 CCN000064000000064000FN00000000020220301000064000NNE   20220111121643    4P0P  00001600000000644800000975132DE    TVYEV-TV006400630017
BI00B32DE    TCT203A        202202107116-4032                TERMINAL                 CCN000024000000024000FN00000000020220301000024000NNE   20220111121643    4P0P  00000600000000532800000818032DE    TVYEV-TV006400630015
BI00B32DE    TCT203A        202202107116-4037                TERMINAL                 CCN000036000000036000FN00000000020220301000036000NNE   20220111121643    4P0P  00000600000000600000000894232DE    TVYEV-TV006400630015
BI00B32DE    TCT203A        202202107116-4114-02             TERMINAL                 CCN000010500000010500FN00000000020220301000010500NNE   20220111121643    4P0P  00001050000000693000000981232DE    TVYEV-TV006400630015
BI00B32DE    TCT203A        202202107116-4231-02             TERMINAL                 CCN000104000000104000FN00000000020220301000104000NNE   20220111121643    4P0P  00002600000000683800001012532DE    TVYEV-TV006400630017
BI00B32DE    TCT203A        202202107116-4415-02             TERMINAL                 CCN000152000000152000FN00000000020220301000152000NNE   20220111121643    4P0P  00003800000000596600000925732DE    TVYEV-TV006400630017
BI00B32DE    TCT203A        202202107116-4416-02             TERMINAL                 CCN000064000000064000FN00000000020220301000064000NNE   20220111121643    4P0P  00003200000000518400000847132DE    TVYEV-TV006400630017
BI00B32DE    TCT203A        202202107126-8853-02             TERMINAL                 CCN000097500000097500FN00000000020220301000097500NNE   20220111121643    4P0P  00000750000000562500000847732DE    TVYEV-TV006400630015
BI00B32DE    TCT203A        202202107126-8854-02             TERMINAL                 CCN000127500000127500FN00000000020220301000127500NNE   20220111121643    4P0P  00000750000000604500000889732DE    TVYEV-TV006400630015
BI00B32DE    TCT203A        202202107126-8855-02             TERMINAL                 CCN000102000000102000FN00000000020220301000102000NNE   20220111121643    4P0P  00000600000000510600000795832DE    TVYEV-TV006400630015
BI00B32DE    TCT203A        202202107158-3006-90             RUBBER STOPPER           CCN000060000000060000FN00000000020220301000060000NNE   20220111121643    1C0C  00002000000000330600000386032DE    TVYEV-TV002700430014
BI00B32DE    TCT203A        202202107158-3070-80             RUBBER STOPPER           CCN000040000000040000FN00000000020220301000040000NNE   20220111121643    1C0C  00004000000000276000000333332DE    TVYEV-TV002700430014
BI00B32DE    TCT203A        202202107158-3167-80             WIRE SEAL                CCN000040000000040000FN00000000020220301000040000NNE   20220111121643    1C0C  00002000000000048000000109032DE    TVYEV-TV002700430014
BI00B32DE    TCT203A        202202107196-0510-02             TERMINAL                 CCN000024000000024000FN00000000020220301000024000NNE   20220111121643    4P0P  00002400000000871200001034632DE    TVYEV-TV002800510028
BI00B32DE    TCT203A        202202107196-0511-02             TERMINAL                 CCN000024000000024000FN00000000020220301000024000NNE   20220111121643    4P0P  00002400000000916800001080232DE    TVYEV-TV002800510028
BI00B32DE    TCT203A        202202107196-1934-02             TERMINAL FEMALE          CCN000019500000019500FN00000000020220301000019500NNE   20220111121643    4P0P  00001950000000561600000846832DE    TVYEV-TV006400630015
BI00B32DE    TCT203A        202202107283-1222-40             CONNECTOR HOUSING        CCN000001200000001200FN00000000020220301000001200NNE   20220111121643    4N0N  00000120000000858000001032732DE    TVYEV-TV005500360039
BI00B32DE    TCT203A        202202107283-1288-10             CONNECTOR HOUSING        CCN000007200000007200FN00000000020220301000007200NNE   20220111121643    4N0N  00000120000001381000001637032DE    TVYEV-TV005600390040
BI00B32DE    TCT203A        202202107283-1289-40             CONNECTOR HOUSING        CCN000001800000001800FN00000000020220301000001800NNE   20220111121643    1N0N  00000060000000679800000824832DE    TVYEV-TV005400370024
BI00B32DE    TCT203A        202202107283-4577-30             CONNECTOR HOUSING        CCN000004800000004800FN00000000020220301000004800NNE   20220111121643    4N0N  00000480000000916800001136832DE    TVYEV-TV005500360039
BI00B32DE    TCT203A        202202107283-4855-40             CONNECTOR HOUSING        CCN000002400000002400FN00000000020220301000002400NNE   20220111121643    4N0N  00000240000001188400001400032DE    TVYEV-TV005600360039
BI00B32DE    TCT203A        202202107283-6120                CONNECTOR HOUSING        CCN000001500000001500FN00000000020220301000001500NNE   20220111121643    1N0N  00000150000000914000001143032DE    TVYEV-TV005600390040
BI00B32DE    TCT203A        202202107286-1900                CONNECTOR HOUSING        CCN000004800000004800FN00000000020220301000004800NNE   20220111121643    4N0N  00000480000001161600001376632DE    TVYEV-TV005500360039
BI00B32DE    TCT203A        202202107287-1915-40             CONNECTOR ASS'Y          CCN000002400000002400FN00000000020220301000002400NNE   20220111121643    4N0N  00000240000000666500000923132DE    TVYEV-TV005500360039
BI00B32DE    TCT203A        202202107288-3335-30             HOUSING MALE             CCN000003000000003000FN00000000020220301000003000NNE   20220111121643    4N0N  00000150000000867000001012032DE    TVYEV-TV005400370024
BI00B32DE    TCT203A        202202107289-3342-30             HOUSING FEMALE ASS'Y     CCN000007200000007200FN00000000020220301000007200NNE   20220111121643    1N0N  00000240000000686400000901432DE    TVYEV-TV005500360039
BI00B32DE    TCT203A        202202107382-1481-10             CONNECTOR                CCN000015200000015200FN00000000020220301000015200NNE   20220111121643    4N0N  00000080000001025000001183032DE    TVYEV-TV005600390040
BI00B32DE    #TCT203A       202202107154-5597-30             CASSETTE R/B             CCN000003200000003200FN00000000020220301000003200NNE   20220111121643    2F0F  00000080000000736000000952032DE    TVYEV-TV005500360039
BI00B32DE    #TCT203A       202202107172-5629-80             RUBBER STOPPER           CCN000020000000020000FN00000000020220301000020000NNE   20220111121643    2H0H  00002000000000060000000111132DE    TVYEV-TV004300270014
BI00B32DG    RP2031         202202177289-3342-30             HOUSING FEMALE ASS'Y     CCN000009600000009600FN00000000020220301000009600NNMD0420220111121643    1N0N  00000240000000686400000901432DG    BFSAIBF 005500360039
BI00B32DG    RP2032         202202247289-3342-30             HOUSING FEMALE ASS'Y     CCN000009600000009600FN00000000020220301000009600NNMD0420220111121643    1N0N  00000240000000686400000901432DG    BFSAIBF 005500360039
BI00B32DG    RP2033         202203037289-3342-30             HOUSING FEMALE ASS'Y     CCN000009600000009600FN00000000020220301000009600NNMD0420220111121643    1N0N  00000240000000686400000901432DG    BFSAIBF 005500360039
BI00B32DG    RP2034         202203107289-3342-30             HOUSING FEMALE ASS'Y     CCN000004800000004800FN00000000020220301000004800NNMD0420220111121643    1N0N  00000240000000686400000901432DG    BFSAIBF 005500360039
BI00B32DJ    GHT2203B 1     202202037017-1180-02             TERMINAL                 CCN000576000000576000FN00000000020220201000576000NNM   20220111155151    4P0P  00007200000001065600001229032DJ    RBYIPLRB005100280028
BI00B32DJ    GHT2203B 2     202202177017-1180-02             TERMINAL                 CCN000144000000144000FN00000000020220201000144000NNM   20220111155151    4P0P  00007200000001065600001229032DJ    RBYIPLRB005100280028
BI00B32DJ    GHT2203B 1     202202037017-1182-02             TERMINAL                 CCN000270000000270000FN00000000020220201000270000NNM   20220111155151    4P0P  00004500000001165500001318632DJ    RBYIPLRB005100280028
BI00B32DJ    GHT2203B 2     202202177017-1182-02             TERMINAL                 CCN000090000000090000FN00000000020220201000090000NNM   20220111155151    4P0P  00004500000001165500001318632DJ    RBYIPLRB005100280028
BI00B32DJ    GHT2203B 2     202202177114-4020                TERMINAL                 CCN000042000000042000FN00000000020220201000042000NNM   20220111155151    4P0P  00002100000000875700001169332DJ    RBYIPLRB006400630015
BI00B32DJ    GHT2203B 1     202202037114-4021                TERMINAL                 CCN000090000000090000FN00000000020220201000090000NNM   20220111155151    4P0P  00001500000000670500000964132DJ    RBYIPLRB006400630015
BI00B32DJ    GHT2203B 2     202202177114-4021                TERMINAL                 CCN000045000000045000FN00000000020220201000045000NNM   20220111155151    4P0P  00001500000000670500000964132DJ    RBYIPLRB006400630015
BI00B32DJ    GHT2203B 1     202202037114-4032                TERMINAL                 CCN000045000000045000FN00000000020220201000045000NNM   20220111155151    4P0P  00000750000000735000001063632DJ    RBYIPLRB006400630017
BI00B32DJ    GHT2203B 2     202202177114-4032                TERMINAL                 CCN000037500000037500FN00000000020220201000037500NNM   20220111155151    4P0P  00000750000000735000001063632DJ    RBYIPLRB006400630017
BI00B32DJ    GHT2203B 1     202202037114-4624-02             TERMINAL                 CCN000048000000048000FN00000000020220201000048000NNM   20220111155151    4P0P  00002400000000895200001188832DJ    RBYIPLRB006400630015
BI00B32DJ    GHT2203B 2     202202177114-4624-02             TERMINAL                 CCN000072000000072000FN00000000020220201000072000NNM   20220111155151    4P0P  00002400000000895200001188832DJ    RBYIPLRB006400630015
BI00B32DJ    GHT2203B 1     202202037114-4728-02             TERMINAL                 CCN000120000000120000FN00000000020220201000120000NNM   20220111155151    4P0P  00003000000000510000000804232DJ    RBYIPLRB006400630015
BI00B32DJ    GHT2203B 2     202202177114-4728-02             TERMINAL                 CCN000150000000150000FN00000000020220201000150000NNM   20220111155151    4P0P  00003000000000510000000804232DJ    RBYIPLRB006400630015
BI00B32DJ    GHT2203B 1     202202037114-4729-02             TERMINAL                 CCN000480000000480000FN00000000020220201000480000NNM   20220111155151    4P0P  00003000000000516000000810232DJ    RBYIPLRB006400630015
BI00B32DJ    GHT2203B 2     202202177114-4729-02             TERMINAL                 CCN000120000000120000FN00000000020220201000120000NNM   20220111155151    4P0P  00003000000000516000000810232DJ    RBYIPLRB006400630015
BI00B32DJ    GHT2203B 1     202202037114-5746-02             TERMINAL                 CCN000315000000315000FN00000000020220201000315000NNM   20220111155151    4P0P  00002100000000695100000988732DJ    RBYIPLRB006400630015
BI00B32DJ    GHT2203B 2     202202177114-5746-02             TERMINAL                 CCN000063000000063000FN00000000020220201000063000NNM   20220111155151    4P0P  00002100000000695100000988732DJ    RBYIPLRB006400630015
BI00B32DJ    GHT2203B 2     202202177114-5747-02             TERMINAL                 CCN000090000000090000FN00000000020220201000090000NNM   20220111155151    4P0P  00001800000000626400000920032DJ    RBYIPLRB006400630015
BI00B32DJ    GHT2203B 1     202202037114-5748-02             TERMINAL                 CCN000048000000048000FN00000000020220201000048000NNM   20220111155151    4P0P  00001200000000444000000737632DJ    RBYIPLRB006400630015
BI00B32DJ    GHT2203B 2     202202177114-5748-02             TERMINAL                 CCN000012000000012000FN00000000020220201000012000NNM   20220111155151    4P0P  00001200000000444000000737632DJ    RBYIPLRB006400630015
BI00B32DJ    GHT2203B 1     202202037114-5753-02             TERMINAL                 CCN000027000000027000FN00000000020220201000027000NNM   20220111155151    4P0P  00002700000000847800001141432DJ    RBYIPLRB006400630015
BI00B32DJ    GHT2203B 1     202202037114-6041                TERMINAL                 CCN000032400000032400FN00000000020220201000032400NNM   20220111155151    4P0P  00000360000000580700000824232DJ    RBYIPLRB006400630015
BI00B32DJ    GHT2203B 2     202202177114-6041                TERMINAL                 CCN000007200000007200FN00000000020220201000007200NNM   20220111155151    4P0P  00000360000000580700000824232DJ    RBYIPLRB006400630015
BI00B32DJ    GHT2203B 1     202202037116-1180                TERMINAL                 CCN000312000000312000FN00000000020220201000312000NNM   20220111155151    1P0P  00001950000000618200000903432DJ    RBYIPLRB006400630015
BI00B32DJ    GHT2203B 2     202202177116-1180                TERMINAL                 CCN000078000000078000FN00000000020220201000078000NNM   20220111155151    1P0P  00001950000000618200000903432DJ    RBYIPLRB006400630015
BI00B32DJ    GHT2203B 1     202202037116-1685-02             TERMINAL                 CCN000768000000768000FN00000000020220201000768000NNM   20220111155151    4P0P  00002400000000897600001065232DJ    RBYIPLRB005100280028
BI00B32DJ    GHT2203B 2     202202177116-1685-02             TERMINAL                 CCN000336000000336000FN00000000020220201000336000NNM   20220111155151    4P0P  00002400000000897600001065232DJ    RBYIPLRB005100280028
BI00B32DJ    GHT2203B 1     202202037116-1686-02             TERMINAL                 CCN000126000000126000FN00000000020220201000126000NNM   20220111155151    4P0P  00002100000000869400001021632DJ    RBYIPLRB005100280028
BI00B32DJ    GHT2203B 2     202202177116-1686-02             TERMINAL                 CCN000042000000042000FN00000000020220201000042000NNM   20220111155151    4P0P  00002100000000869400001021632DJ    RBYIPLRB005100280028
BI00B32DJ    GHT2203B 1     202202037116-2640                TERMINAL                 CCN000018000000018000FN00000000020220201000018000NNM   20220111155151    4P0P  00001800000001018800001196632DJ    RBYIPLRB005100280028
BI00B32DJ    GHT2203B 1     202202037116-2891-02             TERMINAL                 CCN000300000000300000FN00000000020220201000300000NNM   20220111155151    4P0P  00001500000000982500001145932DJ    RBYIPLRB005100280028
BI00B32DJ    GHT2203B 2     202202177116-2891-02             TERMINAL                 CCN000090000000090000FN00000000020220201000090000NNM   20220111155151    4P0P  00001500000000982500001145932DJ    RBYIPLRB005100280028
BI00B32DJ    GHT2203B 1     202202037116-2892-02             TERMINAL                 CCN000132000000132000FN00000000020220201000132000NNM   20220111155151    4P0P  00001200000000818400000981832DJ    RBYIPLRB005100280028
BI00B32DJ    GHT2203B 2     202202177116-2892-02             TERMINAL                 CCN000060000000060000FN00000000020220201000060000NNM   20220111155151    4P0P  00001200000000818400000981832DJ    RBYIPLRB005100280028
BI00B32DJ    GHT2203B 1     202202037116-2893-02             TERMINAL                 CCN000660000000660000FN00000000020220201000660000NNM   20220111155151    4P0P  00001200000000895200001058632DJ    RBYIPLRB005100280028
BI00B32DJ    GHT2203B 2     202202177116-2893-02             TERMINAL                 CCN000204000000204000FN00000000020220201000204000NNM   20220111155151    4P0P  00001200000000895200001058632DJ    RBYIPLRB005100280028
BI00B32DJ    GHT2203B 1     202202037116-3153-02             TERMINAL FEMALE          CCN001431000001431000FN00000000020220201001431000NNM   20220111155151    4P0P  00002700000000459000000744232DJ    RBYIPLRB006400630015
BI00B32DJ    GHT2203B 2     202202177116-3153-02             TERMINAL FEMALE          CCN000459000000459000FN00000000020220201000459000NNM   20220111155151    4P0P  00002700000000459000000744232DJ    RBYIPLRB006400630015
BI00B32DJ    GHT2203B 1     202202037116-3154-02             TERMINAL FEMALE          CCN000378000000378000FN00000000020220201000378000NNM   20220111155151    4P0P  00002700000000469800000755032DJ    RBYIPLRB006400630015
BI00B32DJ    GHT2203B 2     202202177116-3154-02             TERMINAL FEMALE          CCN000108000000108000FN00000000020220201000108000NNM   20220111155151    4P0P  00002700000000469800000755032DJ    RBYIPLRB006400630015
BI00B32DJ    GHT2203B 1     202202037116-4020                TERMINAL                 CCN000270000000270000FN00000000020220201000270000NNM   20220111155151    4P0P  00001350000000513000000798232DJ    RBYIPLRB006400630015
BI00B32DJ    GHT2203B 2     202202177116-4020                TERMINAL                 CCN000108000000108000FN00000000020220201000108000NNM   20220111155151    4P0P  00001350000000513000000798232DJ    RBYIPLRB006400630015
BI00B32DJ    GHT2203B 1     202202037116-4025                TERMINAL                 CCN000704000000704000FN00000000020220201000704000NNM   20220111155151    4P0P  00001600000000644800000975132DJ    RBYIPLRB006400630017
BI00B32DJ    GHT2203B 2     202202177116-4025                TERMINAL                 CCN000224000000224000FN00000000020220201000224000NNM   20220111155151    4P0P  00001600000000644800000975132DJ    RBYIPLRB006400630017
BI00B32DJ    GHT2203B 1     202202037116-4026                TERMINAL                 CCN000240000000240000FN00000000020220201000240000NNM   20220111155151    4P0P  00001600000000664000000994332DJ    RBYIPLRB006400630017
BI00B32DJ    GHT2203B 2     202202177116-4026                TERMINAL                 CCN000080000000080000FN00000000020220201000080000NNM   20220111155151    4P0P  00001600000000664000000994332DJ    RBYIPLRB006400630017
BI00B32DJ    GHT2203B 1     202202037116-4032                TERMINAL                 CCN000126000000126000FN00000000020220201000126000NNM   20220111155151    4P0P  00000600000000532800000818032DJ    RBYIPLRB006400630015
BI00B32DJ    GHT2203B 2     202202177116-4032                TERMINAL                 CCN000108000000108000FN00000000020220201000108000NNM   20220111155151    4P0P  00000600000000532800000818032DJ    RBYIPLRB006400630015
BI00B32DJ    GHT2203B 1     202202037116-4037                TERMINAL                 CCN000162000000162000FN00000000020220201000162000NNM   20220111155151    4P0P  00000600000000600000000894232DJ    RBYIPLRB006400630015
BI00B32DJ    GHT2203B 2     202202177116-4037                TERMINAL                 CCN000048000000048000FN00000000020220201000048000NNM   20220111155151    4P0P  00000600000000600000000894232DJ    RBYIPLRB006400630015
BI00B32DJ    GHT2203B 1     202202037116-4231-02             TERMINAL                 CCN000156000000156000FN00000000020220201000156000NNM   20220111155151    4P0P  00002600000000683800001012532DJ    RBYIPLRB006400630017
BI00B32DJ    GHT2203B 2     202202177116-4231-02             TERMINAL                 CCN000026000000026000FN00000000020220201000026000NNM   20220111155151    4P0P  00002600000000683800001012532DJ    RBYIPLRB006400630017
BI00B32DJ    GHT2203B 1     202202037116-4415-02             TERMINAL                 CCN005624000005624000FN00000000020220201005624000NNM   20220111155151    4P0P  00003800000000596600000925732DJ    RBYIPLRB006400630017
BI00B32DJ    GHT2203B 2     202202177116-4415-02             TERMINAL                 CCN000532000000532000FN00000000020220201000532000NNM   20220111155151    4P0P  00003800000000596600000925732DJ    RBYIPLRB006400630017
BI00B32DJ    GHT2203B 1     202202037116-4416-02             TERMINAL                 CCN000064000000064000FN00000000020220201000064000NNM   20220111155151    4P0P  00003200000000518400000847132DJ    RBYIPLRB006400630017
BI00B32DJ    GHT2203B 2     202202177116-4416-02             TERMINAL                 CCN000032000000032000FN00000000020220201000032000NNM   20220111155151    4P0P  00003200000000518400000847132DJ    RBYIPLRB006400630017
BI00B32DJ    GHT2203B 1     202202037116-4486-02             TERMINAL                 CCN000140000000140000FN00000000020220201000140000NNM   20220111155151    4P0P  00002800000000666400000995132DJ    RBYIPLRB006400630017
BI00B32DJ    GHT2203B 2     202202177116-4486-02             TERMINAL                 CCN000056000000056000FN00000000020220201000056000NNM   20220111155151    4P0P  00002800000000666400000995132DJ    RBYIPLRB006400630017
BI00B32DJ    GHT2203B 2     202202177116-5042-02             TERMINAL                 CCN000013500000013500FN00000000020220201000013500NNM   20220111155151    4P0P  00001350000000560300000845532DJ    RBYIPLRB006400630015
BI00B32DJ    GHT2203B 1     202202037116-5750-02             TERMINAL                 CCN000120000000120000FN00000000020220201000120000NNM   20220111155151    4P0P  00001500000000457500000742732DJ    RBYIPLRB006400630015
BI00B32DJ    GHT2203B 2     202202177116-5750-02             TERMINAL                 CCN000075000000075000FN00000000020220201000075000NNM   20220111155151    4P0P  00001500000000457500000742732DJ    RBYIPLRB006400630015
BI00B32DJ    GHT2203B 2     202202177116-5751-02             TERMINAL                 CCN000024000000024000FN00000000020220201000024000NNM   20220111155151    4P0P  00001200000000379200000664432DJ    RBYIPLRB006400630015
BI00B32DJ    GHT2203B 1     202202037116-5752-02             TERMINAL                 CCN000021000000021000FN00000000020220201000021000NNM   20220111155151    4P0P  00002100000000571200000856432DJ    RBYIPLRB006400630015
BI00B32DJ    GHT2203B 2     202202177116-5752-02             TERMINAL                 CCN000042000000042000FN00000000020220201000042000NNM   20220111155151    4P0P  00002100000000571200000856432DJ    RBYIPLRB006400630015
BI00B32DJ    GHT2203B 1     202202037116-6041                TERMINAL                 CCN000036000000036000FN00000000020220201000036000NNM   20220111155151    4P0P  00000450000000716000001009632DJ    RBYIPLRB006400630015
BI00B32DJ    GHT2203B 2     202202177116-6041                TERMINAL                 CCN000018000000018000FN00000000020220201000018000NNM   20220111155151    4P0P  00000450000000716000001009632DJ    RBYIPLRB006400630015
BI00B32DJ    GHT2203B 1     202202037116-6042                TERMINAL                 CCN000021000000021000FN00000000020220201000021000NNM   20220111155151    4P0P  00000300000000523800000856132DJ    RBYIPLRB006400630015
BI00B32DJ    GHT2203B 2     202202177116-6042                TERMINAL                 CCN000009000000009000FN00000000020220201000009000NNM   20220111155151    4P0P  00000300000000523800000856132DJ    RBYIPLRB006400630015
BI00B32DJ    GHT2203B 1     202202037126-8850-02             TERMINAL                 CCN000009000000009000FN00000000020220201000009000NNM   20220111155151    1P0P  00000900000000672300000957532DJ    RBYIPLRB006400630015
BI00B32DJ    GHT2203B 1     202202037126-8853-02             TERMINAL                 CCN000435000000435000FN00000000020220201000435000NNM   20220111155151    4P0P  00000750000000562500000847732DJ    RBYIPLRB006400630015
BI00B32DJ    GHT2203B 2     202202177126-8853-02             TERMINAL                 CCN000172500000172500FN00000000020220201000172500NNM   20220111155151    4P0P  00000750000000562500000847732DJ    RBYIPLRB006400630015
BI00B32DJ    GHT2203B 1     202202037126-8854-02             TERMINAL                 CCN000292500000292500FN00000000020220201000292500NNM   20220111155151    4P0P  00000750000000604500000889732DJ    RBYIPLRB006400630015
BI00B32DJ    GHT2203B 2     202202177126-8854-02             TERMINAL                 CCN000097500000097500FN00000000020220201000097500NNM   20220111155151    4P0P  00000750000000604500000889732DJ    RBYIPLRB006400630015
BI00B32DJ    GHT2203B 1     202202037126-8855-02             TERMINAL                 CCN000240000000240000FN00000000020220201000240000NNM   20220111155151    4P0P  00000600000000510600000795832DJ    RBYIPLRB006400630015
BI00B32DJ    GHT2203B 2     202202177126-8855-02             TERMINAL                 CCN000078000000078000FN00000000020220201000078000NNM   20220111155151    4P0P  00000600000000510600000795832DJ    RBYIPLRB006400630015
BI00B32DJ    GHT2203B 1     202202037158-3006-90             RUBBER STOPPER           CCN000300000000300000FN00000000020220201000300000NNM   20220111155151    1C0C  00002000000000330600000386032DJ    RBYIPLRB002700430014
BI00B32DJ    GHT2203B 2     202202177158-3006-90             RUBBER STOPPER           CCN000200000000200000FN00000000020220201000200000NNM   20220111155151    1C0C  00002000000000330600000386032DJ    RBYIPLRB002700430014
BI00B32DJ    GHT2203B 1     202202037158-3009-60             RUBBER STOPPER           CCN000200000000200000FN00000000020220201000200000NNM   20220111155151    1C0C  00002000000000338000000386232DJ    RBYIPLRB002700430014
BI00B32DJ    GHT2203B 2     202202177158-3009-60             RUBBER STOPPER           CCN000120000000120000FN00000000020220201000120000NNM   20220111155151    1C0C  00002000000000338000000386232DJ    RBYIPLRB002700430014
BI00B32DJ    GHT2203B 1     202202037158-3165-90             WIRE SEAL                CCN000480000000480000FN00000000020220201000480000NNM   20220111155151    1C0C  00004000000000124000000172432DJ    RBYIPLRB004300270014
BI00B32DJ    GHT2203B 2     202202177158-3165-90             WIRE SEAL                CCN000080000000080000FN00000000020220201000080000NNM   20220111155151    1C0C  00004000000000124000000172432DJ    RBYIPLRB004300270014
BI00B32DJ    GHT2203B 1     202202037158-3168-80             SEALED                   CCN000280000000280000FN00000000020220201000280000NNM   20220111155151    1C0C  00002000000000044000000092132DJ    RBYIPLRB004300260014
BI00B32DJ    GHT2203B 2     202202177158-3168-80             SEALED                   CCN000160000000160000FN00000000020220201000160000NNM   20220111155151    1C0C  00002000000000044000000092132DJ    RBYIPLRB004300260014
BI00B32DJ    GHT2203B 2     202202177158-3169-40             SEALING PLUG             CCN000040000000040000FN00000000020220201000040000NNM   20220111155151    1C0C  00004000000000156000000204132DJ    RBYIPLRB004300260014
BI00B32DJ    GHT2203B 1     202202037172-5540-80             SEALED WIRE SEAL         CCN000240000000240000FN00000000020220201000240000NNM   20220111155151    1C0C  00002000000000186000000234432DJ    RBYIPLRB004300270014
BI00B32DJ    GHT2203B 2     202202177172-5540-80             SEALED WIRE SEAL         CCN000020000000020000FN00000000020220201000020000NNM   20220111155151    1C0C  00002000000000186000000234432DJ    RBYIPLRB004300270014
BI00B32DJ    GHT2203B 1     202202037196-0805-02             TERMINAL FEMALE          CCN000022500000022500FN00000000020220201000022500NNM   20220111155151    4P0P  00002250000000558000000843232DJ    RBYIPLRB006400630015
BI00B32DJ    GHT2203B 2     202202177196-0805-02             TERMINAL FEMALE          CCN000022500000022500FN00000000020220201000022500NNM   20220111155151    4P0P  00002250000000558000000843232DJ    RBYIPLRB006400630015
BI00B32DJ    GHT2203B 1     202202037283-5830-30             CONNECTOR                CCN000024000000024000FN00000000020220201000024000NNM   20220111155151    1N0N  00000600000000954000001104032DJ    RBYIPLRB005500360039
BI00B32DJ    GHT2203B 1     202202037283-5845                CONNECTOR HOUSING        CCN000030000000030000FN00000000020220201000030000NNM   20220111155151    1N0N  00000600000000444000000606332DJ    RBYIPLRB005400370024
BI00B32DJ    GHT2203B 2     202202177283-5845                CONNECTOR HOUSING        CCN000006000000006000FN00000000020220201000006000NNM   20220111155151    1N0N  00000600000000444000000606332DJ    RBYIPLRB005400370024
BI00B32DJ    GHT2203B 1     202202037287-9234                JOINT CONNECTOR          CCN000115200000115200FN00000000020220201000115200NNM   20220111155151    4N0N  00000960000000893800001184832DJ    RBYIPLRB005500360039
BI00B32DJ    GHT2203B 2     202202177287-9234                JOINT CONNECTOR          CCN000028800000028800FN00000000020220201000028800NNM   20220111155151    4N0N  00000960000000893800001184832DJ    RBYIPLRB005500360039
BI00B32DJ    GHT2203B 1     202202037288-3329-30             HOUSING MALE             CCN000012000000012000FN00000000020220201000012000NNM   20220111155151    4N0N  00000150000000866100001011132DJ    RBYIPLRB005400370024
BI00B32DJ    GHT2203B 2     202202177288-3329-30             HOUSING MALE             CCN000006000000006000FN00000000020220201000006000NNM   20220111155151    4N0N  00000150000000866100001011132DJ    RBYIPLRB005400370024
BI00B32DJ    GHT2203B 1     202202037288-3337-30             HOUSING MALE             CCN000001500000001500FN00000000020220201000001500NNM   20220111155151    4N0N  00000150000000867000001012032DJ    RBYIPLRB005400370024
BI00B32DJ    GHT2203B 2     202202177288-3340-30             HOUSING MALE             CCN000003000000003000FN00000000020220201000003000NNM   20220111155151    4N0N  00000150000000861500001006432DJ    RBYIPLRB005400370024
BI00B32DJ    GHT2203B 1     202202037298-1853-10             HOUSING FEMALE ASS'Y     CCN000050700000050700FN00000000020220201000050700NNM   20220111155151    4N00  00000390000001240500001405832DJ    RBYIPLRB005400370024
BI00B32DJ    GHT2203B 2     202202177298-1853-10             HOUSING FEMALE ASS'Y     CCN000011700000011700FN00000000020220201000011700NNM   20220111155151    4N00  00000390000001240500001405832DJ    RBYIPLRB005400370024
BI00B32DJ    GHT2203B 1     202202037298-4094-10             HOUSING FEMALE ASS'Y     CCN000037180000037180FN00000000020220201000037180NNM   20220111155151    4N0N  00000338000001097400001358732DJ    RBYIPLRB005400370024
BI00B32DJ    GHT2203B 2     202202177298-4094-10             HOUSING FEMALE ASS'Y     CCN000003380000003380FN00000000020220201000003380NNM   20220111155151    4N0N  00000338000001097400001358732DJ    RBYIPLRB005400370024
BI00B32DJ    GHT2203B 1     202202037327-6533-3W             BATTERY FUSE             CCN000020880000020880FN00000000020220201000020880NNM   20220111155151    4N0N  00000007200001230100001422632DJ    RBYIPLRB005500360039
BI00B32DJ    GHT2203B 2     202202177327-6533-3W             BATTERY FUSE             CCN000003816000003816FN00000000020220201000003816NNM   20220111155151    4N0N  00000007200001230100001422632DJ    RBYIPLRB005500360039
BI00B32DJ    GHT2203B 1     202202037327-6553-3W             BATTERY FUSE             CCN000000072000000072FN00000000020220201000000072NNM   20220111155151    4N0N  00000007200001229200001421832DJ    RBYIPLRB005500360039
BI00B32DJ    GHT2203B 2     202202177327-6553-3W             BATTERY FUSE             CCN000000144000000144FN00000000020220201000000144NNM   20220111155151    4N0N  00000007200001229200001421832DJ    RBYIPLRB005500360039
BI00B32DJ    GHT2203B 1     202202037388-0314                CONNECTOR ASS'Y          CCN000009600000009600FN00000000020220201000009600NNM   20220111155151    4N0N  00000120000001038000001132332DJ    RBYIPLRB005400370024
BI00B32DJ    GHT2203B 2     202202177388-0314                CONNECTOR ASS'Y          CCN000002400000002400FN00000000020220201000002400NNM   20220111155151    4N0N  00000120000001038000001132332DJ    RBYIPLRB005400370024
BI00B32DJ    GHT2203B 1     202202037388-0317-60             CONNECTOR ASS'Y          CCN000030000000030000FN00000000020220201000030000NNM   20220111155151    4N0N  00000120000001034400001129332DJ    RBYIPLRB005400370024
BI00B32DJ    GHT2203B 2     202202177388-0317-60             CONNECTOR ASS'Y          CCN000006000000006000FN00000000020220201000006000NNM   20220111155151    4N0N  00000120000001034400001129332DJ    RBYIPLRB005400370024
BI00B32DJ    GHT2203B 1     202202037B72-5540-80             SEALED WIRE SEAL         CCN000100000000100000FN00000000020220201000100000NNM   20220111155151    1C0C  00002000000000186000000234432DJ    RBYIPLRB004300270014
BI00B32DJ    GHT2203B 2     202202177B72-5540-80             SEALED WIRE SEAL         CCN000020000000020000FN00000000020220201000020000NNM   20220111155151    1C0C  00002000000000186000000234432DJ    RBYIPLRB004300270014
BI00B32DJ    GHT2203B 1     202202037B74-1849-70             COVER                    CCN000050000000050000FN00000000020220201000050000NNM   20220111155151    1F0F  00002500000000622500000761932DJ    RBYIPLRB005400370024
BI00B32DJ    GHT2203B 1     202202037B96-0805-02             TERMINAL FEMALE          CCN000090000000090000FN00000000020220201000090000NNM   20220111155151    4P0P  00002250000000558000000843232DJ    RBYIPLRB006400630015
BI00B32DJ    GHT2203B 2     202202177B96-0805-02             TERMINAL FEMALE          CCN000022500000022500FN00000000020220201000022500NNM   20220111155151    4P0P  00002250000000558000000843232DJ    RBYIPLRB006400630015
BI00B32DJ    GHT2203B 1     202202037C87-7975-4W             SQUIB SUB ASS'Y          CCN000040000000040000FN00000000020220201000040000NNM   20220111155151    4N0N  00001000000000837000000991132DJ    RBYIPLRB005400370024
BI00B32DJ    GHT2203B 2     202202177C87-7975-4W             SQUIB SUB ASS'Y          CCN000010000000010000FN00000000020220201000010000NNM   20220111155151    4N0N  00001000000000837000000991132DJ    RBYIPLRB005400370024
BI00B32DJ    GHT2203B 1     202202037C89-6868-30             SEALED ASSY FEMALE       CCN000050400000050400FN00000000020220201000050400NNM   20220111155151    4N0N  00000252000000839200001119232DJ    RBYIPLRB005500360039
BI00B32DJ    GHT2203B 2     202202177C89-6868-30             SEALED ASSY FEMALE       CCN000010080000010080FN00000000020220201000010080NNM   20220111155151    4N0N  00000252000000839200001119232DJ    RBYIPLRB005500360039
BI00B32DJ    GHT2203B 1     202202037C98-1145-4W             SQUIB SUB ASS'Y          CCN000060000000060000FN00000000020220201000060000NNM   20220111155151    4N0N  00001000000000787900000944932DJ    RBYIPLRB005400370024
BI00B32DJ    GHT2203B 2     202202177C98-1145-4W             SQUIB SUB ASS'Y          CCN000010000000010000FN00000000020220201000010000NNM   20220111155151    4N0N  00001000000000787900000944932DJ    RBYIPLRB005400370024
BI00B32DJ    GHT2203B 1     202202037158-3023                RUBBER STOPPER           CCN000010000000010000FN00000000020220201000010000NNM   20220111155151    1C0C  00000500000000443500000502032DJ    RBYIPLRB002700430014
BI00B32DJ    GHT2203B 1     202202037126-8852-02             TERMINAL                 CCN000007500000007500FN00000000020220201000007500NNM   20220111155151    1P0P  00000750000000648000000933232DJ    RBYIPLRB006400630015
BI00B32DJ    GHT2203B 1     202202037158-3166-60             WIRE SEAL                CCN001480000001480000FN00000000020220201001480000NNM   20220111155151    1C0C  00004000000000104000000152432DJ    RBYIPLRB002700430014
BI00B32DJ    GHT2203B 2     202202177158-3166-60             WIRE SEAL                CCN000200000000200000FN00000000020220201000200000NNM   20220111155151    1C0C  00004000000000104000000152432DJ    RBYIPLRB002700430014
BI00B32DJ    #GHT2203B 2    202202177183-1616                CONNECTOR HOUSING        CCN000004800000004800FN00000000020220201000004800NNM   20220111155148    2F0F  00000240000000557500000823332DJ    RBYIPLRB005500360039
BI00B32DJ    #GHT2203B 1    202202037183-2414                CONNECTOR HOUSING        CCN000014400000014400FN00000000020220201000014400NNM   20220111155148    2F0F  00000480000000779200001061032DJ    RBYIPLRB005500360039
BI00B32DJ    #GHT2203B 2    202202177183-2414                CONNECTOR HOUSING        CCN000019200000019200FN00000000020220201000019200NNM   20220111155148    2F0F  00000480000000779200001061032DJ    RBYIPLRB005500360039
BI00B32DJ    #GHT2203B 1    202202037183-2414-30             CONNECTOR HOUSING        CCN000004800000004800FN00000000020220201000004800NNM   20220111155148    2F0F  00000480000000779500001061532DJ    RBYIPLRB005500360039
BI00B32DJ    #GHT2203B 2    202202177183-2414-30             CONNECTOR HOUSING        CCN000004800000004800FN00000000020220201000004800NNM   20220111155148    2F0F  00000480000000779500001061532DJ    RBYIPLRB005500360039
BI00B32DJ    #GHT2203B 1    202202037183-2414-40             CONNECTOR HOUSING        CCN000019200000019200FN00000000020220201000019200NNM   20220111155148    2F0F  00000480000000777600000963632DJ    RBYIPLRB005500360039
BI00B32DJ    #GHT2203B 1    202202037183-8252-40             HOUSING                  CCN000050400000050400FN00000000020220201000050400NNM   20220111155148    2F0F  00000240000000454000000729032DJ    RBYIPLRB005500360039
BI00B32DJ    #GHT2203B 2    202202177183-8252-40             HOUSING                  CCN000009600000009600FN00000000020220201000009600NNM   20220111155148    2F0F  00000240000000454000000729032DJ    RBYIPLRB005500360039
BI00B32DJ    #GHT2203B 1    202202037189-3031-30             HOUSING FEMALE           CCN000002400000002400FN00000000020220201000002400NNM   20220111155148    2F0F  00000240000000928800001365832DJ    RBYIPLRB005500360039
BI00B32DJ    #GHT2203B 2    202202177189-3031-30             HOUSING FEMALE           CCN000004800000004800FN00000000020220201000004800NNM   20220111155148    2F0F  00000240000000928800001365832DJ    RBYIPLRB005500360039
BI00B32DJ    #GHT2203B 1    202202037189-3032                HOUSING FEMALE           CCN000011200000011200FN00000000020220201000011200NNM   20220111155148    2F0F  00000160000000788400001018432DJ    RBYIPLRB005500360039
BI00B32DJ    #GHT2203B 2    202202177189-3032                HOUSING FEMALE           CCN000003200000003200FN00000000020220201000003200NNM   20220111155148    2F0F  00000160000000788400001018432DJ    RBYIPLRB005500360039
BI00B32DJ    #GHT2203B 1    202202037189-3037                HOUSING FEMALE           CCN000009600000009600FN00000000020220201000009600NNM   20220111155148    2F0F  00000480000000806400001066432DJ    RBYIPLRB005500360039
BI00B32DJ    #GHT2203B 2    202202177189-3037                HOUSING FEMALE           CCN000004800000004800FN00000000020220201000004800NNM   20220111155148    2F0F  00000480000000806400001066432DJ    RBYIPLRB005500360039
BI00B32DJ    #GHT2203B 1    202202037187-8856                HOUSING FEMALE           CCN000046000000046000FN00000000020220201000046000NNM   20220111155148    2F0F  00000200000000820000000931532DJ    RBYIPLRB005400370024
BI00B32DJ    #GHT2203B 2    202202177187-8856                HOUSING FEMALE           CCN000006000000006000FN00000000020220201000006000NNM   20220111155148    2F0F  00000200000000820000000931532DJ    RBYIPLRB005400370024
BI00B32DJ    #GHT2203C 1    202202037114-4022                TERMINAL                 CCN000045000000045000FN00000000020220301000045000NNM   20220111160517    2F0P  00001500000000708000001120632DJ    RBYIPLRB006400630015
BI00B32DJ    #GHT2203C 2    202202177114-4022                TERMINAL                 CCN000015000000015000FN00000000020220301000015000NNM   20220111160517    2F0P  00001500000000708000001120632DJ    RBYIPLRB006400630015
BI00B32DJ    #GHT2203C 1    202202037116-4021                TERMINAL                 CCN000175500000175500FN00000000020220301000175500NNM   20220111160517    2F0P  00001350000000534600000868832DJ    RBYIPLRB006400630015
BI00B32DJ    #GHT2203C 2    202202177116-4021                TERMINAL                 CCN000054000000054000FN00000000020220301000054000NNM   20220111160517    2F0P  00001350000000534600000868832DJ    RBYIPLRB006400630015
BI00B32DJ    #GHT2203C 1    202202037158-3008-80             RUBBER STOPPER           CCN000040000000040000FN00000000020220301000040000NNM   20220111160517    2C0C  00002000000000288000000343032DJ    RBYIPLRB004300270014
BI00B32DJ    #GHT2203C 1    202202037158-3015-10             RUBBER STOPPER           CCN000390000000390000FN00000000020220301000390000NNM   20220111160517    2C0C  00001000000000419500000474032DJ    RBYIPLRB002700430014
BI00B32DJ    #GHT2203C 2    202202177158-3015-10             RUBBER STOPPER           CCN000090000000090000FN00000000020220301000090000NNM   20220111160517    2C0C  00001000000000419500000474032DJ    RBYIPLRB002700430014
BI00B32DJ    #GHT2203C 1    202202037158-3017                RUBBER STOPPER           CCN000070000000070000FN00000000020220301000070000NNM   20220111160517    2C0C  00001000000000375500000435032DJ    RBYIPLRB002700430014
BI00B32DJ    #GHT2203C 1    202202037183-7725-40             HOUSING                  CCN000048000000048000FN00000000020220301000048000NNM   20220111160517    2F0F  00000600000000840000001040032DJ    RBYIPLRB005600390040
BI00B32DJ    #GHT2203C 2    202202177183-7725-40             HOUSING                  CCN000012000000012000FN00000000020220301000012000NNM   20220111160517    2F0F  00000600000000840000001040032DJ    RBYIPLRB005600390040
BI00B32DJ    #GHT2203C 1    202202037183-8251-40             HOUSING                  CCN000096000000096000FN00000000020220301000096000NNM   20220111160517    2F0F  00000240000000357600000640032DJ    RBYIPLRB005500360039
BI00B32DJ    #GHT2203C 2    202202177183-8251-40             HOUSING                  CCN000014400000014400FN00000000020220301000014400NNM   20220111160517    2F0F  00000240000000357600000640032DJ    RBYIPLRB005500360039
BI00B32DJ    #GHT2203C 1    202202037183-8254-40             HOUSING                  CCN000004800000004800FN00000000020220301000004800NNM   20220111160517    2F0F  00000240000000776000001076332DJ    RBYIPLRB005500360039
BI00B32DJ    #GHT2203C 1    202202037183-8927                HOUSING                  CCN000032000000032000FN00000000020220301000032000NNM   20220111160517    2F0F  00000400000000714000000912732DJ    RBYIPLRB005500360039
BI00B32DJ    #GHT2203C 2    202202177183-8927                HOUSING                  CCN000008000000008000FN00000000020220301000008000NNM   20220111160517    2F0F  00000400000000714000000912732DJ    RBYIPLRB005500360039
BI00B32DJ    #GHT2203C 1    202202037283-8226-30             CONNECTOR                CCN000028000000028000FN00000000020220301000028000NNM   20220111160517    2N0N  00000200000000820000001008032DJ    RBYIPLRB005400370024
BI00B32DJ    #GHT2203C 2    202202177283-8226-30             CONNECTOR                CCN000004000000004000FN00000000020220301000004000NNM   20220111160517    2N0N  00000200000000820000001008032DJ    RBYIPLRB005400370024
BI00B32DJ    #GHT2203C 1    202202037283-8226-40             CONNECTOR                CCN000004000000004000FN00000000020220301000004000NNM   20220111160517    2N0N  00000200000000830000000957032DJ    RBYIPLRB005400370024
BI00B32D1    DFTC2213       202202037288-6547                CONNECTOR MALE ASS'Y     CCN000004500000004500FN00000000020220401000004500NNMD0020220111121643    4N0N  00000075000001205300001340332D1    TOYOT-K 005400370024
BI00B32D1    DFTC2213       202202037289-3342                HOUSING FEMALE ASS'Y     CCN000009600000009600FN00000000020220401000009600NNMD0020220111121643    1N0N  00000240000000686400000901432D1    TOYOT-K 005500360039
BI00B32D1    DFTC2213       202202037289-3342-30             HOUSING FEMALE ASS'Y     CCN000040800000040800FN00000000020220401000040800NNMD0020220111121643    1N0N  00000240000000686400000901432D1    TOYOT-K 005500360039
BI00B32D2    DGTC2214       202206027288-6547                CONNECTOR MALE ASS'Y     CCN000010500000010500FN00000000020220401000010500NNMD0420220111121643    4N0N  00000075000001205300001340332D2    TGYOT-G 005400370024
BI00B32D2    DGTC2214       202301127289-3342                HOUSING FEMALE ASS'Y     CCN000100800000050400FN00000000020220401000050400NNMD0420220111121643    1N0N  00000240000000686400000901432D2    TGYOT-G 005500360039
BI00B32D2    DGTC2214       202207147289-3342-30             HOUSING FEMALE ASS'Y     CCN000014400000014400FN00000000020220401000014400NNMD0420220111121643    1N0N  00000240000000686400000901432D2    TGYOT-G 005500360039
BI00B32D2    DGTC2214       202204287289-3342-40             HOUSING FEMALE ASS'Y     CCN000007200000007200FN00000000020220401000007200NNMD0420220111121643    1N0N  00000240000000686400000901432D2    TGYOT-G 005500360039
BI00B32D2    DGTC2214       202205127289-3342-90             HOUSING FEMALE ASS'Y     CCN000014400000014400FN00000000020220401000014400NNMD0420220111121643    1N0N  00000240000000686400000901432D2    TGYOT-G 005500360039
BI00B32D2    DGTC2214       202302097289-3342                HOUSING FEMALE ASS'Y     CCN000050400000050400FN00000000020220401000050400NNMD0420220111121643    1N0N  00000240000000686400000901432D2    TGYOT-G 005500360039
BI00B32EJ    T220107P03     202202177283-5843                CONNECTOR                CCN000039000000012000FN00000000020220201000012000NNEQ0220220111142706EJ  1N0N  00000150000000889000001132032EJ    EJYKBO  005600390040
BI00B32EJ    #T220110D01    202201277283-8398-40             CONNECTOR                CCN000001540000001540FN00000000020220101000001540NNE   20220111121643EJ  2N0N  00000154000001007000001171332EJ    EJYKBO  005600390023
BI00B32EJ    #T220110P01    202203177282-3020                CONNECTOR                CCN000004000000004000FN00000000020220301000004000NNE   20220111121643EJ  2N0N  00000100000000984000001145432EJ    EJYKBO  005500360039
BI00B32EJ    #T220110P03    202202177282-3020                CONNECTOR                CCN000004000000004000FN00000000020220201000004000NNE   20220111121643EJ  2N0N  00000100000000984000001145432EJ    EJYKBO  005500360039
BI00B32EJ    T220107P03     202203037283-5843                CONNECTOR                CCN000013500000013500FN00000000020220201000013500NNED0220220111142706EJ  1N0N  00000150000000889000001132032EJ    EJYKBO  005600390040
BI00B32EJ    T220107P03     202203107283-5843                CONNECTOR                CCN000013500000013500FN00000000020220201000013500NNED0220220111142706EJ  1N0N  00000150000000889000001132032EJ    EJYKBO  005600390040
BI00A32G2    #QA-21-C122    202201147282-5845-30             HOUSING MALE ASS'Y       PNY000000993000000993FN00000000020220101000000993NNE   20220111121643    2N0N  00000400000001068000001178032G2    AISUAI  005400370024
BI00B32G7    JJ22031 MW     202202247289-3342-30             HOUSING FEMALE ASS'Y     CCN000033600000033600FN00000000020220301000033600NNMD0420220111121643    1N0N  00000240000000686400000901432G7    JIJAI   005500360039
BI00B32G7    JJ22032 MW     202202247289-3342-30             HOUSING FEMALE ASS'Y     CCN000038400000038400FN00000000020220301000038400NNMD0420220111121643    1N0N  00000240000000686400000901432G7    JIJAI   005500360039
BI00B32G7    JJ22033 MW     202203107289-3342-30             HOUSING FEMALE ASS'Y     CCN000004800000004800FN00000000020220301000004800NNMD0420220111121643    1N0N  00000240000000686400000901432G7    JIJAI   005500360039
BI00B32G7    JJ22034 MW     202203107289-3342-30             HOUSING FEMALE ASS'Y     CCN000028800000028800FN00000000020220301000028800NNMD0420220111121643    1N0N  00000240000000686400000901432G7    JIJAI   005500360039
BI00B32G8    PATA2031       202202157017-1181-02             TERMINAL                 CCN000126000000126000FN00000000020220301000126000NNM   20220111121643    4P0P  00006300000001089900001266832G8    PSPASI  005100280028
BI00B32G8    PATA2031       202202157273-3570-0W             CASSETTE BRACKET         CCN000004000000004000FN00000000020220301000004000NNM   20220111121643    4N0N  00000010000000144100000196632G8    PSPASI  004300270014
BI00B32G8    PATA2031       202202157273-3573-0W             CASSETTE BRACKET         CCN000015900000015900FN00000000020220301000015900NNM   20220111121643    4N0N  00000010000000087700000140232G8    PSPASI  004300270014
BI00B32G8    PATA2031       202202157273-3571-0W             CASSETTE BRACKET         CCN000009500000009500FN00000000020220301000009500NNM   20220111121643    4N0N  00000010000000134600000187132G8    PSPASI  004300270014
BI00B32G8    PATA2031       202202157470-5302                J/B COMPLETE ASS'Y       CCN000003100000003100FN00000000020220301000003100NNM   20220111121643    4J0J  00000001000000494000000661032G8    PSPASI  005400370024
BI00B32G8    PATA2031       202202157470-5945                J/B COMPLETE ASS'Y       CCN000004050000004050FN00000000020220301000004050NNM   20220111121643    4J0J  00000001000000494000000661032G8    PSPASI  005400370024
BI00B32G8    PATA2031       202202157470-5938                J/B COMPLETE ASS'Y       CCN000000170000000170FN00000000020220301000000170NNM   20220111121643    4J0J  00000001000000494000000661032G8    PSPASI  005400370024
BI00B32G8    PATA2031       202202157470-5946                J/B COMPLETE ASS'Y       CCN000000060000000060FN00000000020220301000000060NNM   20220111121643    4J0J  00000001000000494000000661032G8    PSPASI  005400370024
BI00B32G8    PATA2031       202202157470-5939                J/B COMPLETE ASS'Y       CCN000000080000000080FN00000000020220301000000080NNM   20220111121643    4J0J  00000001000000494000000661032G8    PSPASI  005400370024
BI00B32G9    TY22031TMW     202202117288-6547                CONNECTOR MALE ASS'Y     CCN000001500000001500FN00000000020220301000001500NNMD0420220111121643    4N0N  00000075000001205300001340332G9    TYTYC   005400370024
BI00B32G9    TY22032TMW     202202257288-6547                CONNECTOR MALE ASS'Y     CCN000001500000001500FN00000000020220301000001500NNMD0420220111121643    4N0N  00000075000001205300001340332G9    TYTYC   005400370024
BI00B32H7    FS22031DMW     202202097283-4855                CONNECTOR HOUSING        CCN000012000000012000FN00000000020220301000012000NNMD0420220111121643    4N0N  00000240000001188400001400032H7    FYFSY   005500360039
BI00B32H7    FS22032DMW     202202157283-4855                CONNECTOR HOUSING        CCN000012000000012000FN00000000020220301000012000NNMD0420220111121643    4N0N  00000240000001188400001400032H7    FYFSY   005500360039
BI00B32H7    FS22033DMW     202202237283-4855                CONNECTOR HOUSING        CCN000012000000012000FN00000000020220301000012000NNMD0420220111121643    4N0N  00000240000001188400001400032H7    FYFSY   005500360039
BI00B32H7    FS22034DMW     202203027283-4855                CONNECTOR HOUSING        CCN000012000000012000FN00000000020220301000012000NNMD0420220111121643    4N0N  00000240000001188400001400032H7    FYFSY   005500360039
BI00A32J1    390245         202201247116-4020                TERMINAL                 CCN000013500000013500FN00000000020220101000013500NNE   20220111121643    4P0P  00001350000000513000000798232J1    UKYEL-BL006400630015
BI00B32M1    TCV2032        202203037289-3342                HOUSING FEMALE ASS'Y     CCN000043200000043200FN00000000020220301000043200NNMD0420220111121643    1N0N  00000240000000686400000901432M1    VNYEV   005500360039
BI00B32M1    TCV2033        202203107289-3342                HOUSING FEMALE ASS'Y     CCN000134400000134400FN00000000020220301000134400NNMD0420220111121643    1N0N  00000240000000686400000901432M1    VNYEV   005500360039
BI00B32M1    TCV2034        202203247289-3342                HOUSING FEMALE ASS'Y     CCN000117600000117600FN00000000020220301000117600NNMD0420220111121643    1N0N  00000240000000686400000901432M1    VNYEV   005500360039
BI00B32M1    TCV2032        202202247289-3342-40             HOUSING FEMALE ASS'Y     CCN000043200000043200FN00000000020220301000043200NNMD0420220111121643    1N0N  00000240000000686400000901432M1    VNYEV   005500360039
BI00B32M1    TCV2033        202203037289-3342-40             HOUSING FEMALE ASS'Y     CCN000055200000055200FN00000000020220301000055200NNMD0420220111121643    1N0N  00000240000000686400000901432M1    VNYEV   005500360039
BI00B32M1    TCV2034        202203107289-3342-40             HOUSING FEMALE ASS'Y     CCN000038400000038400FN00000000020220301000038400NNMD0420220111121643    1N0N  00000240000000686400000901432M1    VNYEV   005500360039
BI00B32M1    TCV2032        202202247289-3342-90             HOUSING FEMALE ASS'Y     CCN000031200000031200FN00000000020220301000031200NNMD0420220111121643    1N0N  00000240000000686400000901432M1    VNYEV   005500360039
BI00B32M1    TCV2033        202203037289-3342-90             HOUSING FEMALE ASS'Y     CCN000048000000048000FN00000000020220301000048000NNMD0420220111121643    1N0N  00000240000000686400000901432M1    VNYEV   005500360039
BI00B32M1    TCV2034        202203107289-3342-90             HOUSING FEMALE ASS'Y     CCN000050400000050400FN00000000020220301000050400NNMD0420220111121643    1N0N  00000240000000686400000901432M1    VNYEV   005500360039
BI00B32M1    QA-22-C001     202201137289-3342                HOUSING FEMALE ASS'Y     PNN000008060000009600FN00000000020220101000009600NNE   20220111121643    1N0N  00000240000000686400000901432M1    VNYEV   005500360039
BI00B32M4    TP2031         202202177289-3342                HOUSING FEMALE ASS'Y     CCN000016800000016800FN00000000020220301000016800NNMD0420220111121643    1N0N  00000240000000686400000901432M4    SISAI   005500360039
BI00B32M4    TP2032         202203247289-3342                HOUSING FEMALE ASS'Y     CCN000016800000016800FN00000000020220301000016800NNMD0420220111121643    1N0N  00000240000000686400000901432M4    SISAI   005500360039
BI00B32M4    TP2033         202203037289-3342                HOUSING FEMALE ASS'Y     CCN000016800000016800FN00000000020220301000016800NNMD0420220111121643    1N0N  00000240000000686400000901432M4    SISAI   005500360039
BI00B32M4    TP2034         202203107289-3342                HOUSING FEMALE ASS'Y     CCN000014400000014400FN00000000020220301000014400NNMD0420220111121643    1N0N  00000240000000686400000901432M4    SISAI   005500360039
BI00B32M4    TP2024D        202203107289-3342-30             HOUSING FEMALE ASS'Y     CCN000012000000012000FN00000000020220201000012000NNED0420220111121643    1N0N  00000240000000686400000901432M4    SISAI   005500360039
BI00B32M4    TP2025E        202203107289-3342-30             HOUSING FEMALE ASS'Y     CCN000007200000007200FN00000000020220201000007200NNED0420220111121643    1N0N  00000240000000686400000901432M4    SISAI   005500360039
BI00B32M4    TP2024D        202203107289-3342                HOUSING FEMALE ASS'Y     CCN000004800000004800FN00000000020220201000004800NNED0420220111121643    1N0N  00000240000000686400000901432M4    SISAI   005500360039
BI00B32M4    TP2025E        202203107289-3342                HOUSING FEMALE ASS'Y     CCN000002400000002400FN00000000020220201000002400NNED0420220111121643    1N0N  00000240000000686400000901432M4    SISAI   005500360039
BI00B32M4    TP2024D        202203107289-3342-90             HOUSING FEMALE ASS'Y     CCN000004800000004800FN00000000020220201000004800NNED0420220111121643    1N0N  00000240000000686400000901432M4    SISAI   005500360039
BI00B32M4    TP2025E        202203177289-3342-90             HOUSING FEMALE ASS'Y     CCN000002400000002400FN00000000020220201000002400NNED0420220111121643    1N0N  00000240000000686400000901432M4    SISAI   005500360039
BI00B32N1    #NST2115GCU    202202177158-3007-10             RUBBER STOPPER           CCN000720000000720000FN00000000020220201000720000NNED0220220111121643    2H0H  00002000000000308000000362732N1    TAYIPL  002700430014
BI00B32N1    #NST2115V      202201277183-2419                HOUSING                  CCN000020000000000000FY00000000020220201000000000NNEQ0820220111145246    2F0F  00000480000001065600001352732N1    TAYIPL  005500360039
BI00B32N1    NST2114B-3     202201277283-5574-10             CONNECTOR                CCN000000700000000800FN00000000020220101000000800NNED0720220111161942    4N0N  00000080000001235000001435232N1    TAYIPL  005500360039
BI00B32N1    NST2114B-3     202201277283-6388-40             CONNECTOR                CCN000004000000004000FN00000000020220101000004000NNED0720220111161942    4N0N  00000200000001029000001173532N1    TAYIPL  005500360039
BI00B32N3    NBT203 A3      202202247289-3342                HOUSING FEMALE ASS'Y     CCN000004800000004800FN00000000020220301000004800NNMD0420220111121643    1N0N  00000240000000686400000901432N3    ABYIPL-B005500360039
BI00B32N3    NBT203 A1      202203037289-3342-30             HOUSING FEMALE ASS'Y     CCN000014400000014400FN00000000020220301000014400NNMD0420220111121643    1N0N  00000240000000686400000901432N3    ABYIPL-B005500360039
BI00B32N3    NBT203 A2      202203107289-3342-30             HOUSING FEMALE ASS'Y     CCN000019200000009600FN00000000020220301000009600NNMD0420220111121643    1N0N  00000240000000686400000901432N3    ABYIPL-B005500360039
BI00B32N3    NBT203 A3      202203247289-3342-30             HOUSING FEMALE ASS'Y     CCN000007200000007200FN00000000020220301000007200NNMD0420220111121643    1N0N  00000240000000686400000901432N3    ABYIPL-B005500360039
BI00B32N3    NBT203 A4      202204077289-3342-30             HOUSING FEMALE ASS'Y     CCN000055200000007200FN00000000020220301000007200NNMD0420220111121643    1N0N  00000240000000686400000901432N3    ABYIPL-B005500360039
BI00B32N3    NBT203 A2      202203177289-3342-30             HOUSING FEMALE ASS'Y     CCN000009600000009600FN00000000020220301000009600NNMD0420220111121643    1N0N  00000240000000686400000901432N3    ABYIPL-B005500360039
BI00B32N3    NBT203 A4      202204217289-3342-30             HOUSING FEMALE ASS'Y     CCN000009600000009600FN00000000020220301000009600NNMD0420220111121643    1N0N  00000240000000686400000901432N3    ABYIPL-B005500360039
BI00B32N3    NBT203 A4      202204287289-3342-30             HOUSING FEMALE ASS'Y     CCN000009600000009600FN00000000020220301000009600NNMD0420220111121643    1N0N  00000240000000686400000901432N3    ABYIPL-B005500360039
BI00B32N3    NBT203 A4      202205057289-3342-30             HOUSING FEMALE ASS'Y     CCN000009600000009600FN00000000020220301000009600NNMD0420220111121643    1N0N  00000240000000686400000901432N3    ABYIPL-B005500360039
BI00B32N3    NBT203 A4      202205127289-3342-30             HOUSING FEMALE ASS'Y     CCN000009600000009600FN00000000020220301000009600NNMD0420220111121643    1N0N  00000240000000686400000901432N3    ABYIPL-B005500360039
BI00B32N3    NBT203 A4      202205197289-3342-30             HOUSING FEMALE ASS'Y     CCN000009600000009600FN00000000020220301000009600NNMD0420220111121643    1N0N  00000240000000686400000901432N3    ABYIPL-B005500360039
BI00B32Q8    EU2201ATMW     202201197289-6547                HOUSING FEMALE ASS'Y     CCN000002400000002400FN00000000020220101000002400NNED0420220111141309    1N0N  00000240000001152000001362032Q8    EMEMI   005500360039
BI00B32Q8    EU2203BTMW     202203307283-4855                CONNECTOR HOUSING        CCN000026400000026400FN00000000020220301000026400NNED0420220111121643    4N0N  00000240000001188400001400032Q8    EMEMI   005500360039
BI00B32Q8    EU2203BTMW     202204067288-6547                CONNECTOR MALE ASS'Y     CCN000009750000001500FN00000000020220301000001500NNED0420220111121643    4N0N  00000075000001205300001340332Q8    EMEMI   005400370024
BI00B32Q8    EU2203BTMW     202203167289-3342                HOUSING FEMALE ASS'Y     CCN000105600000033600FN00000000020220301000033600NNED0420220111121643    1N0N  00000240000000686400000901432Q8    EMEMI   005500360039
BI00B32Q8    QA-21-C134     202201127289-3342                HOUSING FEMALE ASS'Y     PNY000011368000011368FN00000000020220101000011368NNE   20220111121643    1N0N  00000240000000686400000901432Q8    EMEMI   005500360039
BI00B32Q8    EU2203BTMW     202204207288-6547                CONNECTOR MALE ASS'Y     CCN000001500000001500FN00000000020220301000001500NNED0420220111121643    4N0N  00000075000001205300001340332Q8    EMEMI   005400370024
BI00B32Q8    EU2203BTMW     202204277288-6547                CONNECTOR MALE ASS'Y     CCN000001500000001500FN00000000020220301000001500NNED0420220111121643    4N0N  00000075000001205300001340332Q8    EMEMI   005400370024
BI00B32Q8    EU2203BTMW     202205047288-6547                CONNECTOR MALE ASS'Y     CCN000001500000001500FN00000000020220301000001500NNED0420220111121643    4N0N  00000075000001205300001340332Q8    EMEMI   005400370024
BI00B32Q8    EU2203BTMW     202205117288-6547                CONNECTOR MALE ASS'Y     CCN000001500000001500FN00000000020220301000001500NNED0420220111121643    4N0N  00000075000001205300001340332Q8    EMEMI   005400370024
BI00B32Q8    EU2203BTMW     202205187288-6547                CONNECTOR MALE ASS'Y     CCN000001500000001500FN00000000020220301000001500NNED0420220111121643    4N0N  00000075000001205300001340332Q8    EMEMI   005400370024
BI00B32Q8    EU2203BTMW     202205257288-6547                CONNECTOR MALE ASS'Y     CCN000000750000000750FN00000000020220301000000750NNED0420220111121643    4N0N  00000075000001205300001340332Q8    EMEMI   005400370024
BI00B32Q8    EU2203BTMW     202203237289-3342                HOUSING FEMALE ASS'Y     CCN000036000000036000FN00000000020220301000036000NNED0420220111121643    1N0N  00000240000000686400000901432Q8    EMEMI   005500360039
BI00B32Q8    EU2203BTMW     202203307289-3342                HOUSING FEMALE ASS'Y     CCN000036000000036000FN00000000020220301000036000NNED0420220111121643    1N0N  00000240000000686400000901432Q8    EMEMI   005500360039
BI00B32R7    #R-TAP220017   202201277186-8845                HOUSING MALE             CCN000006000000006000FN00000000020220101000006000NNED0720220111121643    2F0F  00000300000000690000000801532R7    IVYCIC  005400370024
BI00B32R7    R-TAP220018    202202247298-1186-40             SQUIB SUB ASS'Y          CCN000010000000010000FN00000000020220301000010000NNE   20220111121643    4N0N  00001000000000650000000774532R7    IVYCIC  005400370024
BI00B32R7    R-TAP220018    202202247298-1186-70             SQUIB SUB ASS'Y          CCN000010000000010000FN00000000020220301000010000NNE   20220111121643    4N0N  00001000000000650000000774532R7    IVYCIC  005400370024
BI00A32U5    DI2009         202201147116-5045-02             TERMINAL                 CCN000176000000176000FN00000000020220401000176000NNMM0020220111152905U5  4P0P  00001600000000678400001007132U5    AMAMSD  006400630017
BI00A32U5    DI2009         202201147116-5046-02             TERMINAL                 CCN000060000000060000FN00000000020220401000060000NNMM0020220111153031U5  4P0P  00001200000000544800000873532U5    AMAMSD  006400630017
BI00A32U5    #DI2009        202201147289-4200-30             HOUSING FEMALE ASS'Y     CCN000006000000006000FN00000000020220401000006000NNMM0020220111155056U5  2N0N  00000200000000926000001021032U5    AMAMSD  005400370024
BI00B32U5    DI2010         202202047116-5045-02             TERMINAL                 CCN000160000000128000FN00000000020220401000128000NNMQ0020220111152941U5  4P0P  00001600000000678400001007132U5    AMAMSD  006400630017
BI00A32U5    DI2010         202201147116-5046-02             TERMINAL                 CCN000048000000048000FN00000000020220401000048000NNMM0020220111153051U5  4P0P  00001200000000544800000873532U5    AMAMSD  006400630017
BI00A32U5    #DI2010        202201147289-4200-30             HOUSING FEMALE ASS'Y     CCN000002000000002000FN00000000020220401000002000NNMM0020220111155111U5  2N0N  00000200000000926000001021032U5    AMAMSD  005400370024
BI00A32U5    DI2011         202201147116-5046-02             TERMINAL                 CCN000048000000048000FN00000000020220401000048000NNMM0020220111153110U5  4P0P  00001200000000544800000873532U5    AMAMSD  006400630017
BI00A32U5    #DI2011        202201147289-4200-30             HOUSING FEMALE ASS'Y     CCN000006000000006000FN00000000020220401000006000NNMM0020220111155129U5  2N0N  00000200000000926000001021032U5    AMAMSD  005400370024
BI00A32U5    #DI2006A       202201147189-3032                HOUSING FEMALE           CCN000012800000012800FN00000000020220301000012800NNEM0020220111150420U5  2F0F  00000160000000788400001018432U5    AMAMSD  005500360039
BI00A32U5    DI2010         202201147116-5045-02             TERMINAL                 CCN000032000000032000FN00000000020220401000032000NNMM0020220111152947U5  4P0P  00001600000000678400001007132U5    AMAMSD  006400630017
BI00B32W4    4500182299     202201137158-3166-60             WIRE SEAL                CCN000400000000400000FN00000000020211201000400000NNED0020220111132652W41 1C0C  00004000000000104000000152432W41   HJYHK   002700430014
BI00A32W4    4500184653     202201177116-1473                TERMINAL                 CCN000013500000013500FN00000000020220101000013500NNED0020220111160253W4144P0P  00001350000000523800000809032W414  HJYHK   006400630015
BI00B32W4    @4500185345    202201137283-1223-30             HOUSING SUB ASSEMBLY     CCN000019200000009600FN00000000020220101000009600NNEQ0020220111130855W4283N0N  00000480000000749300000998032W428  HJYHK   005500360039
BI00B32W4    4500185346     202201207289-7615-30             HOUSING FEMALE ASS'Y     CCN000003840000000320FN00000000020220101000000320NNEQ0020220111130940W4284N0N  00000032000000738000000948032W428  HJYHK   005400370024
BI00B32W4    4500187002     202203037289-3342-30             HOUSING FEMALE ASS'Y     CCN000009600000009600FN00000000020220201000009600NNED0420220111121643W4D41N0N  00000240000000686400000901432W4D4  HJYHK-J 005500360039
BI00B32W4    4500187002     202202177289-3342                HOUSING FEMALE ASS'Y     CCN000002400000002400FN00000000020220201000002400NNED0420220111121643W4D41N0N  00000240000000686400000901432W4D4  HJYHK-J 005500360039
BI00B32W4    4500187465     202203107158-3166-60             WIRE SEAL                CCN001000000001000000FN00000000020220301001000000NNED0020220111121643W4B71C0C  00004000000000104000000152432W4B7  HJYHK-J 002700430014
BI00B32W4    4500187465     202203107158-3169-40             SEALING PLUG             CCN001000000001000000FN00000000020220301001000000NNED0020220111121643W4B71C0C  00004000000000156000000204132W4B7  HJYHK-J 004300260014
BI00B32W4    4500187465     202203107158-3167-80             WIRE SEAL                CCN001000000001000000FN00000000020220301001000000NNED0020220111121643W4B71C0C  00002000000000048000000109032W4B7  HJYHK-J 002700430014
BI00B32W4    4500187465     202203107158-3168-80             SEALED                   CCN001000000001000000FN00000000020220301001000000NNED0020220111121643W4B71C0C  00002000000000044000000092132W4B7  HJYHK-J 004300260014
BI00B32W4    4500187466     202203017288-9556-30             SEALED ASSY MALE         CCN000021600000021600FN00000000020220301000021600NNE   20220111121643W4O74N0N  00000072000000537900000786332W4O7  H YHK-J 005500360039
BI00B32W4    4500187472     202202107116-2951-02             TERMINAL                 CCN000016200000016200FN00000000020220201000016200NNE   20220111121643W4284P0P  00000540000000817600001111832W428  HJYHK   006400630015
BI00B32W4    4500187474     202203107116-4120-02             TERMINAL                 CCN000012000000012000FN00000000020220301000012000NNE   20220111121643W48 4P0P  00000600000000780000001073632W48   HJYHK   006400630015
BI00B32W4    4500187474     202203107116-1230                TERMINAL                 CCN000013500000013500FN00000000020220301000013500NNE   20220111121643W48 4P0P  00001350000000664200000952432W48   HJYHK   006400630015
BI00B32W4    4500187474     202203107116-4025                TERMINAL                 CCN000032000000032000FN00000000020220301000032000NNE   20220111121643W48 4P0P  00001600000000644800000975132W48   HJYHK   006400630017
BI00B32W4    4500187474     202203107116-4121-02             TERMINAL                 CCN000031500000031500FN00000000020220301000031500NNE   20220111121643W48 4P0P  00000450000000618800000912432W48   HJYHK   006400630015
BI00B32W4    4500187474     202203107158-3165-90             WIRE SEAL                CCN000080000000080000FN00000000020220301000080000NNE   20220111121643W48 1C0C  00004000000000124000000172432W48   HJYHK   004300270014
BI00B32W4    4500187474     202203107158-3006-90             RUBBER STOPPER           CCN000020000000020000FN00000000020220301000020000NNE   20220111121643W48 1C0C  00002000000000330600000386032W48   HJYHK   002700430014
BI00B32W4    4500187474     202203107158-3166-60             WIRE SEAL                CCN000080000000080000FN00000000020220301000080000NNE   20220111121643W48 1C0C  00004000000000104000000152432W48   HJYHK   002700430014
BI00B32W4    #4500187474    202203107158-3121-80             WIRE SEAL                CCN000040000000040000FN00000000020220301000040000NNE   20220111121643W48 2C0C  00002000000000118000000187332W48   HJYHK   002700430014
BI00B32W4    #4500187474    202203107123-6423-30             CONNECTOR                CCN000004000000004000FN00000000020220301000004000NNE   20220111121643W48 2F0F  00000200000001002000001167632W48   HJYHK   005600390023
BI00B32W4    #4500187474    202203107158-3004-40             RUBBER STOPPER           CCN000020000000020000FN00000000020220301000020000NNE   20220111121643W48 2C0C  00002000000000234000000306332W48   HJYHK   002700430014
BI00B32W4    @4500187474    202203107123-4312-80             HOUSING                  CCN000004800000004800FN00000000020220301000004800NNE   20220111121643W48 3F0F  00000080000000644200000794032W48   HJYHK   005500360039
BI00B32W4    4500187475     202203037116-4122-02             TERMINAL                 CCN000004500000004500FN00000000020220301000004500NNE   20220111121643W48 4P0P  00000450000000656600000950232W48   HJYHK   006400630015
BI00B32W4    4500187475     202203037222-6244-40             CONNECTOR                CCN000003200000003200FN00000000020220301000003200NNE   20220111121643W48 4N0N  00000080000001239200001422032W48   HJYHK   005600390040
BI00B32W4    4500187475     202203037289-7615-30             HOUSING FEMALE ASS'Y     CCN000003200000003200FN00000000020220301000003200NNE   20220111121643W48 4N0N  00000032000000738000000948032W48   HJYHK   005400370024
BI00B32W4    4500187475     202203037172-1372-10             FRONT HOLDER             CCN000003900000003900FN00000000020220301000003900NNE   20220111121643W48 4F0F  00000390000000655200000955232W48   HJYHK   005500360039
BI00B32W4    4500187475     202203037283-1156                CONNECTOR                CCN000000800000000800FN00000000020220301000000800NNE   20220111121643W48 4N0N  00000080000000877600001078032W48   HJYHK   005600390040
BI00B32W4    #4500187475    202203037157-3952-80             RUBBER STOPPER           CCN000010000000010000FN00000000020220301000010000NNE   20220111121643W48 2C0C  00001000000000117000000175032W48   HJYHK   002700430014
BI00B32W4    @4500187475    202203037123-4312-80             HOUSING                  CCN000004800000004800FN00000000020220301000004800NNE   20220111121643W48 3F0F  00000080000000644200000794032W48   HJYHK   005500360039
BI00B32W4    #4500187476    202202107158-3003-90             RUBBER STOPPER           CCN000040000000040000FN00000000020220201000040000NNE   20220111121643W48 2C0C  00002000000000250000000306032W48   HJYHK   002700430014
BI00A32W4    4500187500     202203177158-3167-80             WIRE SEAL                CCN000040000000040000FN00000000020220301000040000NNE   20220111121643W4L71C0C  00002000000000048000000109032W4L7  HJYHK-J 002700430014
BI00A32W4    4500187525     202201247196-0805-02             TERMINAL FEMALE          CCN000022500000022500FN00000000020220101000022500NNED0720220111121643W4L64P0P  00002250000000558000000843232W4L6  HJYHK-K 006400630015
BI00B32W4    4500187527     202204217283-1020                CONNECTOR                CCN000006000000006000FN00000000020220401000006000NNE   20220111121643W4P84N0N  00000600000000840000001049332W4P8  HJYHK-J 005600390040
BI00A32W4    4500187535     202203177116-4025                TERMINAL                 CCN000016000000016000FN00000000020220301000016000NNE   20220111121643W4M54P0P  00001600000000644800000975132W4M5  HJYHK-J 006400630017
BI00A32W4    4500187535     202203177283-7028-30             CONNECTOR                CCN000003000000003000FN00000000020220301000003000NNE   20220111121643W4M54N0N  00000300000001452000001681332W4M5  HJYHK-J 005600390040
BI00A32W4    4500187535     202203177282-4855                HOUSING MALE ASS'Y       CCN000003600000003600FN00000000020220301000003600NNE   20220111121643W4M54N0N  00000120000001063200001283232W4M5  HJYHK-J 005500360039
BI00A32W4    4500187536     202203247283-1030                CONNECTOR                CCN000018000000018000FN00000000020220301000018000NNE   20220111121643W4M54N0N  00000600000000988000001172032W4M5  HJYHK-J 005500360039
BI00B32W4    #4500187537    202202037198-1372-60             HOUSING FEMALE           CCN000002000000002000FN00000000020220201000002000NNE   20220111121643W4D42F0F  00000200000000857200000995232W4D4  HJYHK-J 005400370024
BI00A32W4    4500187538     202203177158-3167-80             WIRE SEAL                CCN000080000000080000FN00000000020220301000080000NNE   20220111121643W4G91C0C  00002000000000048000000109032W4G9  HJYHK-J 002700430014
BI00A32W4    #4500187538    202203177157-3992-90             CONNECTOR SEALED         CCN000040000000040000FN00000000020220301000040000NNE   20220111121643W4G92C0C  00004000000000300000000363332W4G9  HJYHK-J 002700430014
BI00A32W4    #4500187538    202203177158-3120-90             CONNECTOR WIRE SEAL      CCN000020000000020000FN00000000020220301000020000NNE   20220111121643W4G92C0C  00002000000000136000000194032W4G9  HJYHK-J 002700430014
BI00A32W4    @4500185345    202201137283-1223-30             HOUSING SUB ASSEMBLY     CCN000009600000009600FN00000000020220101000009600NNEM0020220111132332W4283N0N  00000480000000749300000998032W428  HJYHK   005500360039
BI00A32W4    4500185346     202201207289-7615-30             HOUSING FEMALE ASS'Y     CCN000003520000003520FN00000000020220101000003520NNEM0020220111132429W4284N0N  00000032000000738000000948032W428  HJYHK   005400370024
BI00B32W6    SW22031QMW     202202027288-6547                CONNECTOR MALE ASS'Y     CCN000008250000002250FN00000000020220301000002250NNMD0420220111121643    4N0N  00000075000001205300001340332W6    SYSYA-WJ005400370024
BI00B32W6    SW22032QMW     202202237288-6547                CONNECTOR MALE ASS'Y     CCN000008250000002250FN00000000020220301000002250NNMD0420220111121643    4N0N  00000075000001205300001340332W6    SYSYA-WJ005400370024
BI00B32W6    SW22033QMW     202203167288-6547                CONNECTOR MALE ASS'Y     CCN000007500000002250FN00000000020220301000002250NNMD0420220111121643    4N0N  00000075000001205300001340332W6    SYSYA-WJ005400370024
BI00B32W6    SW22034QMW     202204067288-6547                CONNECTOR MALE ASS'Y     CCN000007500000002250FN00000000020220301000002250NNMD0420220111121643    4N0N  00000075000001205300001340332W6    SYSYA-WJ005400370024
BI00B32W6    SW22032QMW     202202157289-3342                HOUSING FEMALE ASS'Y     CCN000016800000016800FN00000000020220301000016800NNMD0420220111121643    1N0N  00000240000000686400000901432W6    SYSYA-WJ005500360039
BI00B32W6    SW22033QMW     202203167289-3342                HOUSING FEMALE ASS'Y     CCN000019200000019200FN00000000020220301000019200NNMD0420220111121643    1N0N  00000240000000686400000901432W6    SYSYA-WJ005500360039
BI00B32W6    SW22034QMW     202204207289-3342                HOUSING FEMALE ASS'Y     CCN000024000000024000FN00000000020220301000024000NNMD0420220111121643    1N0N  00000240000000686400000901432W6    SYSYA-WJ005500360039
BI00B32W6    SW22031QMW     202202157289-3342-30             HOUSING FEMALE ASS'Y     CCN000024000000024000FN00000000020220301000024000NNMD0420220111121643    1N0N  00000240000000686400000901432W6    SYSYA-WJ005500360039
BI00B32W6    SW22032QMW     202202237289-3342-30             HOUSING FEMALE ASS'Y     CCN000021600000021600FN00000000020220301000021600NNMD0420220111121643    1N0N  00000240000000686400000901432W6    SYSYA-WJ005500360039
BI00B32W6    SW22033QMW     202203097289-3342-30             HOUSING FEMALE ASS'Y     CCN000019200000019200FN00000000020220301000019200NNMD0420220111121643    1N0N  00000240000000686400000901432W6    SYSYA-WJ005500360039
BI00B32W6    SW22034QMW     202203167289-3342-30             HOUSING FEMALE ASS'Y     CCN000021600000021600FN00000000020220301000021600NNMD0420220111121643    1N0N  00000240000000686400000901432W6    SYSYA-WJ005500360039
BI00B32W6    SW22031QMW     202202097288-6547                CONNECTOR MALE ASS'Y     CCN000003000000003000FN00000000020220301000003000NNMD0420220111121643    4N0N  00000075000001205300001340332W6    SYSYA-WJ005400370024
BI00B32W6    SW22031QMW     202202167288-6547                CONNECTOR MALE ASS'Y     CCN000003000000003000FN00000000020220301000003000NNMD0420220111121643    4N0N  00000075000001205300001340332W6    SYSYA-WJ005400370024
BI00B32W6    SW22032QMW     202203027288-6547                CONNECTOR MALE ASS'Y     CCN000003000000003000FN00000000020220301000003000NNMD0420220111121643    4N0N  00000075000001205300001340332W6    SYSYA-WJ005400370024
BI00B32W6    SW22032QMW     202203097288-6547                CONNECTOR MALE ASS'Y     CCN000003000000003000FN00000000020220301000003000NNMD0420220111121643    4N0N  00000075000001205300001340332W6    SYSYA-WJ005400370024
BI00B32W6    SW22033QMW     202203237288-6547                CONNECTOR MALE ASS'Y     CCN000002250000002250FN00000000020220301000002250NNMD0420220111121643    4N0N  00000075000001205300001340332W6    SYSYA-WJ005400370024
BI00B32W6    SW22033QMW     202203307288-6547                CONNECTOR MALE ASS'Y     CCN000003000000003000FN00000000020220301000003000NNMD0420220111121643    4N0N  00000075000001205300001340332W6    SYSYA-WJ005400370024
BI00B32W6    SW22034QMW     202204207288-6547                CONNECTOR MALE ASS'Y     CCN000002250000002250FN00000000020220301000002250NNMD0420220111121643    4N0N  00000075000001205300001340332W6    SYSYA-WJ005400370024
BI00B32W6    SW22034QMW     202204277288-6547                CONNECTOR MALE ASS'Y     CCN000003000000003000FN00000000020220301000003000NNMD0420220111121643    4N0N  00000075000001205300001340332W6    SYSYA-WJ005400370024
BI00B32Y2    TAU1171        202203037289-3342-30             HOUSING FEMALE ASS'Y     CCN000098400000019200FN00000000020220601000019200NNMD0420220111121643    1N0N  00000240000000686400000901432Y2    YUYUY   005500360039
BI00B32Y2    TAU1171        202203107289-3342-30             HOUSING FEMALE ASS'Y     CCN000019200000019200FN00000000020220601000019200NNMD0420220111121643    1N0N  00000240000000686400000901432Y2    YUYUY   005500360039
BI00B32Y2    TAU1171        202203177289-3342-30             HOUSING FEMALE ASS'Y     CCN000019200000019200FN00000000020220601000019200NNMD0420220111121643    1N0N  00000240000000686400000901432Y2    YUYUY   005500360039
BI00B32Y2    TAU1171        202203247289-3342-30             HOUSING FEMALE ASS'Y     CCN000019200000019200FN00000000020220601000019200NNMD0420220111121643    1N0N  00000240000000686400000901432Y2    YUYUY   005500360039
BI00B32Y2    TAU1171        202203317289-3342-30             HOUSING FEMALE ASS'Y     CCN000021600000021600FN00000000020220601000021600NNMD0420220111121643    1N0N  00000240000000686400000901432Y2    YUYUY   005500360039
BI00B32Y5    TTA32061       202204057283-5845-40             CONNECTOR HOUSING        CCN000018000000012000FN00000000020220601000012000NNMD0220220111142724    1N0N  00000600000000444000000606332Y5    BZYBL   005400370024
BI00B32Y5    TTA32061       202204057289-6547                HOUSING FEMALE ASS'Y     CCN000026400000014400FN00000000020220601000014400NNMD0220220111142743    1N0N  00000240000001152000001362032Y5    BZYBL   005500360039
BI00B32Y5    TTA32062       202205037289-6547                HOUSING FEMALE ASS'Y     CCN000004800000004800FN00000000020220601000004800NNMD0220220111142521    1N0N  00000240000001152000001362032Y5    BZYBL   005500360039
BI00B32Y5    TTA32063       202205037289-6547                HOUSING FEMALE ASS'Y     CCN000004800000004800FN00000000020220601000004800NNMD0220220111142555    1N0N  00000240000001152000001362032Y5    BZYBL   005500360039
BI00B32Y5    TTA32064       202205037289-6547                HOUSING FEMALE ASS'Y     CCN000004800000004800FN00000000020220601000004800NNMD0220220111142614    1N0N  00000240000001152000001362032Y5    BZYBL   005500360039
BI00B32Y5    TTA32061       202204197283-5845-40             CONNECTOR HOUSING        CCN000006000000006000FN00000000020220601000006000NNMD0220220111142724    1N0N  00000600000000444000000606332Y5    BZYBL   005400370024
BI00B32Y5    TTA32061       202204197289-6547                HOUSING FEMALE ASS'Y     CCN000012000000012000FN00000000020220601000012000NNMD0220220111142743    1N0N  00000240000001152000001362032Y5    BZYBL   005500360039
BI00B32Y6    STAP32051      202202247289-3342                HOUSING FEMALE ASS'Y     CCN000024000000024000FN00000000020220501000024000NNMD0420220111121643    1N0N  00000240000000686400000901432Y6    BSYBL-S 005500360039
BI00B32Y6    STAP32051      202202177289-3342-30             HOUSING FEMALE ASS'Y     CCN000036000000036000FN00000000020220501000036000NNMD0420220111121643    1N0N  00000240000000686400000901432Y6    BSYBL-S 005500360039
