BI00B32AF    @TTB202D       20220128181B0911741              CAVSAS 0.3X3 GY          CCN000002750000002750FN00000000020220201000002750NNE20 20220119132633    1W    00000025000002843000000000032AF    HBYHVTB 000000000000UT122001
BI00B32CH    SJ22033DMW     202201261801W006980              IVSSH 0.35F BR           CCN000002500000002500FN00000000020220301000002500NNM20 20220119192251    1W    00000250000000452000000000032CH    SJSAMIJF000000000000QY122016
BI00A32CH    SJ22034DMW     202201261801W006980              IVSSH 0.35F BR           CCN000002500000002500FN00000000020220301000002500NNM21 20220119193416    1W    00000250000000452000000000032CH    SJSAMIJF000000000000QY222017
BI00A32CH    SJ22033DMW     202201261801W003980              IVSSH 0.5F BR            CCN000005400000005400FN00000000020220301000005400NNM20 20220119192223    1W    00000180000000625000000000032CH    SJSAMIJF000000000000QY122004
BI00A32CH    SJ22034DMW     202201261801W003980              IVSSH 0.5F BR            CCN000003600000003600FN00000000020220301000003600NNM21 20220119193348    1W    00000180000000625000000000032CH    SJSAMIJF000000000000QY222004
BI00A32CH    SJ22031DMW     202201261801W003960              IVSSH 0.5F G             CCN000003600000003600FN00000000020220301000003600NNM20 20220119191819    1W    00000180000000625000000000032CH    SJSAMIJF000000000000QY321002
BI00A32CH    SJ22032DMW     202201261801W003960              IVSSH 0.5F G             CCN000003600000003600FN00000000020220301000003600NNM20 20220119192001    1W    00000180000000625000000000032CH    SJSAMIJF000000000000QY421004
BI00A32CH    SJ22033DMW     202201261801W003960              IVSSH 0.5F G             CCN000005400000005400FN00000000020220301000005400NNM20 20220119192150    1W    00000180000000625000000000032CH    SJSAMIJF000000000000QY122005
BI00A32CH    SJ22031DMW     202201261801W003961              IVSSH 0.5F LG            CCN000001800000001800FN00000000020220301000001800NNM20 20220119191832    1W    00000180000000625000000000032CH    SJSAMIJF000000000000QY321004
BI00A32CH    SJ22033DMW     202201261801W003961              IVSSH 0.5F LG            CCN000001800000001800FN00000000020220301000001800NNM20 20220119192200    1W    00000180000000625000000000032CH    SJSAMIJF000000000000QY122007
BI00A32CH    SJ22034DMW     202201261801W003961              IVSSH 0.5F LG            CCN000001800000001800FN00000000020220301000001800NNM21 20220119193242    1W    00000180000000625000000000032CH    SJSAMIJF000000000000QY222007
BI00A32CH    SJ22031DMW     202201261801W003952              IVSSH 0.5F P             CCN000001800000001800FN00000000020220301000001800NNM20 20220119191808    1W    00000180000000625000000000032CH    SJSAMIJF000000000000QY321005
BI00A32CH    SJ22032DMW     202201261801W003952              IVSSH 0.5F P             CCN000005400000005400FN00000000020220301000005400NNM20 20220119191947    1W    00000180000000625000000000032CH    SJSAMIJF000000000000QY421006
BI00A32CH    SJ22033DMW     202201261801W003952              IVSSH 0.5F P             CCN000007200000007200FN00000000020220301000007200NNM20 20220119192137    1W    00000180000000625000000000032CH    SJSAMIJF000000000000QY122008
BI00A32CH    SJ22032DMW     202201261801W003950              IVSSH 0.5F R             CCN000001800000001800FN00000000020220301000001800NNM20 20220119191934    1W    00000180000000625000000000032CH    SJSAMIJF000000000000QY421007
BI00A32CH    SJ22033DMW     202201261801W003950              IVSSH 0.5F R             CCN000014400000014400FN00000000020220301000014400NNM20 20220119192125    1W    00000180000000625000000000032CH    SJSAMIJF000000000000QY122009
BI00A32CH    SJ22034DMW     202201261801W003950              IVSSH 0.5F R             CCN000012600000012600FN00000000020220301000012600NNM21 20220119193228    1W    00000180000000625000000000032CH    SJSAMIJF000000000000QY222009
BI00A32CH    SJ22033DMW     202201261801W003992              IVSSH 0.5F V             CCN000007200000007200FN00000000020220301000007200NNM20 20220119192237    1W    00000180000000625000000000032CH    SJSAMIJF000000000000QY122010
BI00A32CH    SJ22034DMW     202201261801W003992              IVSSH 0.5F V             CCN000005400000005400FN00000000020220301000005400NNM21 20220119193405    1W    00000180000000625000000000032CH    SJSAMIJF000000000000QY222010
BI00A32CH    SJ22031DMW     202201261801W003940              IVSSH 0.5F W             CCN000001800000001800FN00000000020220301000001800NNM20 20220119191756    1W    00000180000000625000000000032CH    SJSAMIJF000000000000QY321006
BI00A32CH    SJ22032DMW     202201261801W003940              IVSSH 0.5F W             CCN000007200000007200FN00000000020220301000007200NNM20 20220119191921    1W    00000180000000625000000000032CH    SJSAMIJF000000000000QY421008
BI00A32CH    SJ22033DMW     202201261801W003940              IVSSH 0.5F W             CCN000012600000012600FN00000000020220301000012600NNM20 20220119192114    1W    00000180000000625000000000032CH    SJSAMIJF000000000000QY122011
BI00B32CH    SJ22034DMW     202202241801W003940              IVSSH 0.5F W             CCN000009000000003600FN00000000020220301000003600NNM20 20220119193205    1W    00000180000000625000000000032CH    SJSAMIJF000000000000QY222011
BI00A32CH    SJ22032DMW     202201261801W003970              IVSSH 0.5F Y             CCN000001800000001800FN00000000020220301000001800NNM20 20220119192013    1W    00000180000000625000000000032CH    SJSAMIJF000000000000QY421009
BI00A32CH    SJ22033DMW     202201261801W003970              IVSSH 0.5F Y             CCN000010800000010800FN00000000020220301000010800NNM20 20220119192212    1W    00000180000000625000000000032CH    SJSAMIJF000000000000QY122012
BI00B32CH    SJ22034DMW     202202241801W003970              IVSSH 0.5F Y             CCN000009000000001800FN00000000020220301000001800NNM20 20220119193330    1W    00000180000000625000000000032CH    SJSAMIJF000000000000QY222012
BI00B32CH    SJ22032HMW     2022021018007704130              AVSS 1.25F B             CCN000004000000001600FN00000000020220301000001600NNM20 20220119191701    1W    00000080000001389000000000032CH    SJSAMIJF000000000000QW421002
BI00A32CH    SJ22032HMW     2022012118007704130              AVSS 1.25F B             CCN000002400000002400FN00000000020220301000002400NNM21 20220119191701    1W    00000080000001389000000000032CH    SJSAMIJF000000000000QW421002
BI00A32CH    SJ22034DMW     202201261801W003940              IVSSH 0.5F W             CCN000005400000005400FN00000000020220301000005400NNM21 20220119193205    1W    00000180000000625000000000032CH    SJSAMIJF000000000000QY222011
BI00A32CH    SJ22034DMW     202201261801W003970              IVSSH 0.5F Y             CCN000007200000007200FN00000000020220301000007200NNM21 20220119193330    1W    00000180000000625000000000032CH    SJSAMIJF000000000000QY222012
BI00B32DG    RW2024B        202202101801W006930              IVSSH 0.35F B            CCN000012500000002500FN00000000020220201000002500NNE20 20220119120908    1W    00000250000000452000000000032DG    BFSAIBF 000000000000GV421004
BI00B32DG    RW2024B        202202101801W00695U              IVSSH 0.35F BE           CCN000035000000015000FN00000000020220201000015000NNE20 20220119120816    1W    00000250000000452000000000032DG    BFSAIBF 000000000000GV421005
BI00B32DG    RW2024B        202202101801W006961              IVSSH 0.35F LG           CCN000015000000002500FN00000000020220201000002500NNE20 20220119120949    1W    00000250000000452000000000032DG    BFSAIBF 000000000000GV421010
BI00B32DG    RW2024B        202202101801W006952              IVSSH 0.35F P            CCN000030000000015000FN00000000020220201000015000NNE20 20220119121026    1W    00000250000000452000000000032DG    BFSAIBF 000000000000GV421011
BI00B32DG    RW2024B        202202101801W006992              IVSSH 0.35F V            CCN000042500000020000FN00000000020220201000020000NNE20 20220119121058    1W    00000250000000452000000000032DG    BFSAIBF 000000000000GV421014
BI00B32DG    RW2024B        202202101801W006943              IVSSH 0.35F W/B          CCN000030000000010000FN00000000020220201000010000NNE20 20220119121130    1W    00000250000000452000000000032DG    BFSAIBF 000000000000GV421016
BI00A32DG    RW2024B        202201241801W00695U              IVSSH 0.35F BE           CCN000020000000020000FN00000000020220201000020000NNE21 20220119160531    1W    00000250000000452000000000032DG    BFSAIBF 000000000000GV421005
BI00A32DG    RW2024B        202201241801W006930              IVSSH 0.35F B            CCN000002500000010000FN00000000020220201000010000NNE21 20220119160531    1W    00000250000000452000000000032DG    BFSAIBF 000000000000GV421004
BI00A32DG    RW2024B        202201241801W006961              IVSSH 0.35F LG           CCN000012500000012500FN00000000020220201000012500NNE21 20220119160531    1W    00000250000000452000000000032DG    BFSAIBF 000000000000GV421010
BI00A32DG    RW2024B        202201241801W006952              IVSSH 0.35F P            CCN000015000000015000FN00000000020220201000015000NNE21 20220119160531    1W    00000250000000452000000000032DG    BFSAIBF 000000000000GV421011
BI00A32DG    RW2024B        202201241801W006992              IVSSH 0.35F V            CCN000022500000022500FN00000000020220201000022500NNE21 20220119160531    1W    00000250000000452000000000032DG    BFSAIBF 000000000000GV421014
BI00A32DG    RW2024B        202201241801W006943              IVSSH 0.35F W/B          CCN000020000000020000FN00000000020220201000020000NNE21 20220119160531    1W    00000250000000452000000000032DG    BFSAIBF 000000000000GV421016
BI00A32E1    WC201A         2022012118000004570              AV 8 Y                   CCN000003000000003000FN00000000020220101000003000NNE   20220119164850    1W    00000010000010466200000000032E1    SPYSE   000000000000KB121001
BI00B32H2    TAW203D        20220211180D0203943              AVSSH 0.5F W/B           CCN000003000000003000FN00000000020220301000003000NNE   20220119152922    1W    00000150000000689000000000032H2    HVYHV   000000000000UD421001
BI00B32H2    TAW203E        20220211180D0203930              AVSSH 0.5F B             CCN000001500000001500FN00000000020220301000001500NNE   20220119152923    1W    00000150000000689000000000032H2    HVYHV   000000000000UK421001
BI00A32H2    @TAW1111       20220124181AD2004ZZ              CIVUSAS-S 0.35X4 B       PCN000019200000019200FN00000000020211101000019200NNM26 20220119181826    1W    00000030000002799900000000032H2    HVYHV   000000000000UJ519006
BI00A32H2    @TAW1111       20220125181AD2004ZZ              CIVUSAS-S 0.35X4 B       PCN000030000000030000FN00000000020211101000030000NNM27 20220119181939    1W    00000030000002799900000000032H2    HVYHV   000000000000UJ519006
BI00A32H2    @TAW1112       20220124181AD2004ZZ              CIVUSAS-S 0.35X4 B       PCN000044100000017100FN00000000020211101000017100NNM26 20220119183604    1W    00000030000002799900000000032H2    HVYHV   000000000000UJ11A006
BI00B32H2    @TAW1114       20220204181AD2004ZZ              CIVUSAS-S 0.35X4 B       CCN000041700000041700FN00000000020211101000041700NNM23 20220119184347    1W    00000030000002799900000000032H2    HVYHV   000000000000UJ31A005
BI00A32M3    @SM2202AMMW    20220120181E48041ZZ              CAVSAS-S 0.3X2 GY/R      CCN000000350000000350FN00000000020220201000000350NNE20 20220119112548    1W    00000035000002008700000000032M3    SASAMI  000000000000QL321001
BI00B32M3    SM2202C MW     20220210180D0203790              AVSSH 0.3F L             CCN000002000000002000FN00000000020220201000002000NNE   20220119104937    1W    00000200000000515000000000032M3    SASAMI  000000000000QC421003
BI00B32M3    SM2202C MW     20220210180D0203761              AVSSH 0.3F LG            CCN000002000000002000FN00000000020220201000002000NNE   20220119104937    1W    00000200000000515000000000032M3    SASAMI  000000000000QC421004
BI00B32M3    SM2202C MW     20220210180D0203791              AVSSH 0.3F SB            CCN000006000000006000FN00000000020220201000006000NNE   20220119104937    1W    00000200000000515000000000032M3    SASAMI  000000000000QC421005
BI00B32M3    SM2202C MW     20220210180D0203740              AVSSH 0.3F W             CCN000004000000004000FN00000000020220201000004000NNE   20220119104937    1W    00000200000000515000000000032M3    SASAMI  000000000000QC421006
BI00B32M3    SM2202C MW     20220210180D0204030              AVSSH 0.75F B            CCN000003000000001000FN00000000020220201000001000NNE20 20220119113105    1W    00000100000000934000000000032M3    SASAMI  000000000000QC421007
BI00B32M3    SM2202C MW     20220210180D0204052              AVSSH 0.75F P            CCN000005000000005000FN00000000020220201000005000NNE   20220119104937    1W    00000100000000934000000000032M3    SASAMI  000000000000QC421008
BI00A32M3    SM2202C MW     20220124180D0204030              AVSSH 0.75F B            CCN000002000000002000FN00000000020220201000002000NNE21 20220119113105    1W    00000100000000934000000000032M3    SASAMI  000000000000QC421007
BI00B32P8    @TAPAW1094     20220126181AD2004ZZ              CIVUSAS-S 0.35X4 B       CCN000006300000006300FN00000000020210901000006300NNM25 20220119144949    1W    00000030000002799900000000032P8    YIYTM   000000000000YT218269
BI00B32U5    DW2011         202202111801W003930              IVSSH 0.5F B             CCN000104400000104400FN00000000020220401000104400NNE   20220119143546U5  1W    00000180000000625000000000032U5    ASAMSD  000000000000AN421027
BI00B32U5    DW2011         202202111801W003941              IVSSH 0.5F GY            CCN000014400000014400FN00000000020220401000014400NNE   20220119143546U5  1W    00000180000000625000000000032U5    ASAMSD  000000000000AN421029
BI00B32U5    DW2011         202202111801W003950              IVSSH 0.5F R             CCN000100800000100800FN00000000020220401000100800NNE   20220119143546U5  1W    00000180000000625000000000032U5    ASAMSD  000000000000AN421031
BI00B32U5    DW2011         202202111801W003952              IVSSH 0.5F P             CCN000030600000030600FN00000000020220401000030600NNE   20220119143546U5  1W    00000180000000625000000000032U5    ASAMSD  000000000000AN421030
BI00B32U5    DW2011         202202111801W003970              IVSSH 0.5F Y             CCN000016200000016200FN00000000020220401000016200NNE   20220119143546U5  1W    00000180000000625000000000032U5    ASAMSD  000000000000AN421033
BI00B32U5    DW2011         202202111801W003980              IVSSH 0.5F BR            CCN000009000000009000FN00000000020220401000009000NNE   20220119143546U5  1W    00000180000000625000000000032U5    ASAMSD  000000000000AN421028
BI00B32U5    DW2011         202202111801W003992              IVSSH 0.5F V             CCN000021600000021600FN00000000020220401000021600NNE   20220119143546U5  1W    00000180000000625000000000032U5    ASAMSD  000000000000AN421032
BI00B32U5    DW2011         202202111801W004030              IVSSH 0.75F B            CCN000015600000015600FN00000000020220401000015600NNE   20220119143546U5  1W    00000130000000882000000000032U5    ASAMSD  000000000000AN421034
BI00B32U5    DW2011         202202111801W004040              IVSSH 0.75F W            CCN000005200000005200FN00000000020220401000005200NNE   20220119143546U5  1W    00000130000000882000000000032U5    ASAMSD  000000000000AN421039
BI00B32U5    DW2011         202202111801W004043              IVSSH 0.75F W/B          CCN000015600000015600FN00000000020220401000015600NNE   20220119143546U5  1W    00000130000000882000000000032U5    ASAMSD  000000000000AN421040
BI00B32U5    DW2011         202202111801W004050              IVSSH 0.75F R            CCN000005200000005200FN00000000020220401000005200NNE   20220119143546U5  1W    00000130000000882000000000032U5    ASAMSD  000000000000AN421038
BI00B32U5    DW2011         202202111801W004052              IVSSH 0.75F P            CCN000005200000005200FN00000000020220401000005200NNE   20220119143546U5  1W    00000130000000882000000000032U5    ASAMSD  000000000000AN421037
BI00B32U5    DW2011         202202111801W004060              IVSSH 0.75F G            CCN000005200000005200FN00000000020220401000005200NNE   20220119143546U5  1W    00000130000000882000000000032U5    ASAMSD  000000000000AN421035
BI00B32U5    DW2011         202202111801W004090              IVSSH 0.75F L            CCN000006500000006500FN00000000020220401000006500NNE   20220119143546U5  1W    00000130000000882000000000032U5    ASAMSD  000000000000AN421036
BI00B32U5    DW2011         202202111801W006930              IVSSH 0.35F B            CCN000117500000117500FN00000000020220401000117500NNE   20220119143546U5  1W    00000250000000452000000000032U5    ASAMSD  000000000000AN421041
BI00B32U5    DW2011         202202111801W006940              IVSSH 0.35F W            CCN000065000000065000FN00000000020220401000065000NNE   20220119143546U5  1W    00000250000000452000000000032U5    ASAMSD  000000000000AN421048
BI00B32U5    DW2011         202202111801W006941              IVSSH 0.35F GY           CCN000015000000015000FN00000000020220401000015000NNE   20220119143546U5  1W    00000250000000452000000000032U5    ASAMSD  000000000000AN421044
BI00B32U5    DW2011         202202111801W006950              IVSSH 0.35F R            CCN000122500000122500FN00000000020220401000122500NNE   20220119143546U5  1W    00000250000000452000000000032U5    ASAMSD  000000000000AN421047
BI00B32U5    DW2011         202202111801W00695U              IVSSH 0.35F BE           CCN000010000000010000FN00000000020220401000010000NNE   20220119143546U5  1W    00000250000000452000000000032U5    ASAMSD  000000000000AN421042
BI00B32U5    DW2011         202202111801W006960              IVSSH 0.35F G            CCN000077500000077500FN00000000020220401000077500NNE   20220119143546U5  1W    00000250000000452000000000032U5    ASAMSD  000000000000AN421043
BI00B32U5    DW2011         202202111801W006961              IVSSH 0.35F LG           CCN000030000000030000FN00000000020220401000030000NNE   20220119143546U5  1W    00000250000000452000000000032U5    ASAMSD  000000000000AN421046
BI00B32U5    DW2011         202202111801W006990              IVSSH 0.35F L            CCN000075000000075000FN00000000020220401000075000NNE   20220119143546U5  1W    00000250000000452000000000032U5    ASAMSD  000000000000AN421045
BI00B32U5    @DW2011        20220211181AD2013ZZ              CIVUSAS-S 1.25X2 B       CCN000002640000002640FN00000000020220401000002640NNE   20220119143544U5  1W    00000022000003840000000000032U5    ASAMSD  000000000000AN421024
BI00B32U5    @DW2011        20220211181E48011ZZ              CAVSAS-S 0.3X1 GY/W      CCN000003000000003000FN00000000020220401000003000NNE   20220119143544U5  1W    00000050000001529500000000032U5    ASAMSD  000000000000AN421025
BI00B32U5    @DW2011        20220211181F21027ZZ              AVSSHCS-S 1.25FX2 B      CCN000007400000007400FN00000000020220401000007400NNE   20220119143544U5  1W    00000020000004267300000000032U5    ASAMSD  000000000000AN421026
