BI00B1200    2399T52109     202202037174-1849-70             COVER                    CCN000050000000000000FY00000000020220301000000000NNMQ0820220119143551    1F0F  0000250000000062250000076191200    YCYC    005400370024
BI00B1200    2399T52110     202202107174-1849-70             COVER                    CCN000050000000000000FY00000000020220301000000000NNMQ0820220119143603    1F0F  0000250000000062250000076191200    YCYC    005400370024
BI00B1200    2399T52111     202202177174-1849-70             COVER                    CCN000025000000000000FY00000000020220301000000000NNMQ0820220119143616    1F0F  0000250000000062250000076191200    YCYC    005400370024
BI00A1200    2399T52109     202201217195-0547-02             TERMINAL ALUMINIUM       CCN000025500000025500FN00000000020220301000025500NNMM0020220119172701    4P0P  0000255000000041820000076021200    YCYC    006400630015
BI00B1200    2399T52112     202202247174-1849-70             COVER                    CCN000025000000000000FY00000000020220301000000000NNMQ0820220119143627    1F0F  0000250000000062250000076191200    YCYC    005400370024
BI00A1200    2399T52113     202202077289-5979-30             HOUSING FEMALE ASS'Y     PCN000064764000004032FN00000000020220301000004032NNMD0420220119172701    1N0N  0000002520000085470000106471200    YCYC    005400370024
BI00B1200    2399T52114     202203037289-5979-30             HOUSING FEMALE ASS'Y     CCN000064512000017640FN00000000020220301000017640NNMD0420220119172701    1N0N  0000002520000085470000106471200    YCYC    005400370024
BI00B1200    2399T52113     202202247298-1145-4W             SQUIB SUB ASS'Y          CCN000110000000000000FY00000000020220301000000000NNMQ0820220119143654    4N0N  0000100000000078790000094491200    YCYC    005400370024
BI00B1200    2399T52114     202203037298-1145-4W             SQUIB SUB ASS'Y          CCN000110000000000000FY00000000020220301000000000NNMQ0820220119143714    4N0N  0000100000000078790000094491200    YCYC    005400370024
BI00B1200    2399T52115     202203107298-1145-4W             SQUIB SUB ASS'Y          CCN000100000000000000FY00000000020220301000000000NNMD0420220119143726    4N0N  0000100000000078790000094491200    YCYC    005400370024
BI00B1200    2399T52116     202203177298-1145-4W             SQUIB SUB ASS'Y          CCN000100000000000000FY00000000020220301000000000NNMD0420220119143736    4N0N  0000100000000078790000094491200    YCYC    005400370024
BI00A1200    2399T52113     202202097289-5979-30             HOUSING FEMALE ASS'Y     PCN000021420000004032FN00000000020220301000004032NNMD0420220119172701    1N0N  0000002520000085470000106471200    YCYC    005400370024
BI00A1200    2399T52113     202202157289-5979-30             HOUSING FEMALE ASS'Y     PCN000021420000012096FN00000000020220301000012096NNMD0420220119172701    1N0N  0000002520000085470000106471200    YCYC    005400370024
BI00B1200    #H322D50024    202203247198-1373-60             HOUSING FEMALE           CCN000002000000002000FN00000000020220401000002000NNE   20220119172701    2F0F  0000020000000081940000094741200    YCYC    005400370024
BI00A1200    MKH2022-004    202202107126-8889-02             FUSE TERMINAL            CCN000006000000006000FN00000000020220101000006000NNED0720220119172701    4P0P  0000060000000044820000073341200    YCYC    006400630015
BI00A1200    MKH2022-004    202202107126-8890-02             FUSE TERMINAL            CCN000006000000006000FN00000000020220101000006000NNED0720220119172701    4P0P  0000060000000046500000075021200    YCYC    006400630015
BI00A1200    MKH2022-004    202202107126-8891-02             FUSE TERMINAL            CCN000006000000006000FN00000000020220101000006000NNED0720220119172701    4P0P  0000060000000048180000076701200    YCYC    006400630015
BI00A1200    MKH2022-004    202202107126-8892-02             FUSE TERMINAL            CCN000012000000012000FN00000000020220101000012000NNED0720220119172701    4P0P  0000060000000049500000078021200    YCYC    006400630015
BI00A1200    MKH2022-004    202201317195-2046-02             TERMINAL MALE            CCN000008400000008400FN00000000020220101000008400NNE   20220119172701    4P0P  0000084000000081820000111181200    YCYC    006400630015
BI00A1200    MKH2022-004    202201317195-2047-02             TERMINAL MALE            CCN000005400000005400FN00000000020220101000005400NNE   20220119172701    4P0P  0000054000000059780000089141200    YCYC    006400630015
BI00A1200    MKH2022-004    202201247196-1938-02             TERMINAL FEMALE          CCN000013500000013500FN00000000020220101000013500NNED0020220119172701    4P0P  0000135000000050760000079581200    YCYC    006400630015
BI00A1200    MKH2022-004    202201247196-1939-02             TERMINAL FEMALE          CCN000015000000015000FN00000000020220101000015000NNED0020220119172701    4P0P  0000150000000057450000086271200    YCYC    006400630015
BI00A1200    MKH2022-004    202202107196-2023-02             TERMINAL FEMALE          CCN000024000000024000FN00000000020220101000024000NNED0720220119172701    4P0P  0000240000000089760000106101200    YCYC    005100280028
BI00A1200    MKH2022-004    202202107196-2024-02             TERMINAL FEMALE          CCN000024000000024000FN00000000020220101000024000NNED0720220119172701    4P0P  0000240000000091920000108261200    YCYC    005100280028
BI00A1200    MKH2022-004    202202107196-2027-02             TERMINAL FEMALE          CCN000024000000024000FN00000000020220101000024000NNED0720220119172701    4P0P  0000180000000078300000094641200    YCYC    005100280028
BI00A1200    MKH2022-004    202202107196-2038-02             TERMINAL FEMALE          CCN000003600000003600FN00000000020220101000003600NNED0720220119172701    4P0P  0000036000000059000000088361200    YCYC    006400630015
BI00A1200    CE22-MN-0015   202202157298-2278-30             HOUSING FEMALE ASS'Y     CCN000002400000002400FN00000000020220201000002400NNE   20220119172701    4N0N  0000024000000109170000129541200    YCYC    005500360039
BI00A1200    CE22-MN-0015   202202157298-1869-30             HOUSING FEMALE ASS'Y     CCN000001200000001200FN00000000020220201000001200NNE   20220119172701    4N0N  0000012000000073700000093981200    YCYC    005500360039
BI00A1200    CE22-MN-0015   202202157298-2507-30             HOUSING FEMALE ASS'Y     CCN000001200000001200FN00000000020220201000001200NNE   20220119172701    4N0N  0000012000000071320000091451200    YCYC    005500360039
BI00A1200    CE22-MN-0015   202202157298-2508-30             HOUSING FEMALE ASS'Y     CCN000001200000001200FN00000000020220201000001200NNE   20220119172701    4N0N  0000012000000082200000100501200    YCYC    005500360039
BI00A1200    #CE22-MN-0015  202202157297-1907-30             HOUSING MALE ASS'Y       CCN000001500000001500FN00000000020220201000001500NNE   20220119172701    2N0N  0000015000000045180000056801200    YCYC    005400370024
BI00A1200    2399T52113     202202047289-5979-30             HOUSING FEMALE ASS'Y     PCN000004032000004032FN00000000020220301000004032NNMD0420220119172701    1N0N  0000002520000085470000106471200    YCYC    005400370024
BI00A1200    2399T52113     202202087289-5979-30             HOUSING FEMALE ASS'Y     PCN000012096000012096FN00000000020220301000012096NNMD0420220119172701    1N0N  0000002520000085470000106471200    YCYC    005400370024
BI00A1200    2399T52113     202202117289-5979-30             HOUSING FEMALE ASS'Y     PCN000004032000004032FN00000000020220301000004032NNMD0420220119172701    1N0N  0000002520000085470000106471200    YCYC    005400370024
BI00A1200    2399T52113     202202147289-5979-30             HOUSING FEMALE ASS'Y     PCN000004032000004032FN00000000020220301000004032NNMD0420220119172701    1N0N  0000002520000085470000106471200    YCYC    005400370024
BI00A1200    2399T52113     202202167289-5979-30             HOUSING FEMALE ASS'Y     PCN000004032000004032FN00000000020220301000004032NNMD0420220119172701    1N0N  0000002520000085470000106471200    YCYC    005400370024
BI00A1200    2399T52113     202202177289-5979-30             HOUSING FEMALE ASS'Y     PCN000004032000004032FN00000000020220301000004032NNMD0420220119172701    1N0N  0000002520000085470000106471200    YCYC    005400370024
BI00A1200    2399T52113     202202187289-5979-30             HOUSING FEMALE ASS'Y     PCN000004032000004032FN00000000020220301000004032NNMD0420220119172701    1N0N  0000002520000085470000106471200    YCYC    005400370024
BI00A1200    2399T52113     202202217289-5979-30             HOUSING FEMALE ASS'Y     PCN000000252000000252FN00000000020220301000000252NNMD0420220119172701    1N0N  0000002520000085470000106471200    YCYC    005400370024
BI00A1200    2399T52114     202202217289-5979-30             HOUSING FEMALE ASS'Y     PCN000003780000003780FN00000000020220301000003780NNMD0420220119172701    1N0N  0000002520000085470000106471200    YCYC    005400370024
BI00B32B1    A22008         202201247282-6448-40             CONNECTOR                CCN000003200000003200FN00000000020220401000003200NNM00 20220119172701B1  4N0N  00000080000000887000001152732B1    AXARNE-M005600390040
BI00B32B7    A82008         202201247283-8599-30             CONNECTOR                CCN000001540000001540FN00000000020220401000001540NNM00020220119172701B7  4N0N  00000154000000947100001157032B7    AXARNE-M005600390023
BI00B32CA    PTA32041       202201267289-3342-30             HOUSING FEMALE ASS'Y     CCN000043200000043200FN00000000020220301000043200NNM00020220119172701    1N0N  00000240000000686400000901432CA    YPYPY   005500360039
BI00A32CJ    #JQN2021       202201217172-5629-80             RUBBER STOPPER           PCN000060000000060000FN00000000020220201000060000NNMM0020220119172701    2H0H  00002000000000060000000111132CJ    QNYHVQN 004300270014
BI00A32DJ    GHT2112B 1     202201207289-3342-30             HOUSING FEMALE ASS'Y     PCN000004800000004800FN00000000020211201000004800NNM00020220119172701    1N0N  00000240000000686400000901432DJ    RBYIPLRB005500360039
BI00A32DJ    GHT2112B 1     202201267289-3342-30             HOUSING FEMALE ASS'Y     PCN000004800000004800FN00000000020211201000004800NNMD0420220119172701    1N0N  00000240000000686400000901432DJ    RBYIPLRB005500360039
BI00B32D1    DFTC2216       202202247114-4624-02             TERMINAL                 CCN000024000000024000FN00000000020220401000024000NNM   20220119172701    4P0P  00002400000000895200001188832D1    TOYOT-K 006400630015
BI00B32D1    DFTC2216       202202247114-5748-02             TERMINAL                 CCN000096000000096000FN00000000020220401000096000NNM   20220119172701    4P0P  00001200000000444000000737632D1    TOYOT-K 006400630015
BI00B32D1    DFTC2216       202202247114-5753-02             TERMINAL                 CCN000270000000270000FN00000000020220401000270000NNM   20220119172701    4P0P  00002700000000847800001141432D1    TOYOT-K 006400630015
BI00B32D1    DFTC2216       202202247116-1685-02             TERMINAL                 CCN000024000000024000FN00000000020220401000024000NNM   20220119172701    4P0P  00002400000000897600001065232D1    TOYOT-K 005100280028
BI00B32D1    DFTC2216       202202247116-2891-02             TERMINAL                 CCN000090000000090000FN00000000020220401000090000NNM   20220119172701    4P0P  00001500000000982500001145932D1    TOYOT-K 005100280028
BI00B32D1    DFTC2216       202202247116-4101-02             TERMINAL                 CCN000012000000012000FN00000000020220401000012000NNM   20220119172701    4P0P  00001200000000582000000876232D1    TOYOT-K 006400630015
BI00B32D1    DFTC2216       202202247116-4110-02             TERMINAL                 CCN000018000000018000FN00000000020220401000018000NNM   20220119172701    4P0P  00000900000000594000000882232D1    TOYOT-K 006400630015
BI00B32D1    DFTC2216       202202247116-4111-02             TERMINAL                 CCN000007500000007500FN00000000020220401000007500NNM   20220119172701    4P0P  00000750000000529500000817732D1    TOYOT-K 006400630015
BI00B32D1    DFTC2216       202202247116-4112-02             TERMINAL                 CCN000030000000030000FN00000000020220401000030000NNM   20220119172701    4P0P  00000600000000450000000738232D1    TOYOT-K 006400630015
BI00B32D1    DFTC2216       202202247116-4486-02             TERMINAL                 CCN000140000000140000FN00000000020220401000140000NNM   20220119172701    4P0P  00002800000000666400000995132D1    TOYOT-K 006400630017
BI00B32D1    DFTC2216       202202247116-5045-02             TERMINAL                 CCN000096000000096000FN00000000020220401000096000NNM   20220119172701    4P0P  00001600000000678400001007132D1    TOYOT-K 006400630017
BI00B32D1    DFTC2216       202202247126-8853-02             TERMINAL                 CCN000082500000082500FN00000000020220401000082500NNM   20220119172701    4P0P  00000750000000562500000847732D1    TOYOT-K 006400630015
BI00B32D1    DFTC2216       202202247126-8854-02             TERMINAL                 CCN000060000000060000FN00000000020220401000060000NNM   20220119172701    4P0P  00000750000000604500000889732D1    TOYOT-K 006400630015
BI00B32D1    DFTC2216       202202247126-8855-02             TERMINAL                 CCN000072000000072000FN00000000020220401000072000NNM   20220119172701    4P0P  00000600000000510600000795832D1    TOYOT-K 006400630015
BI00B32D1    DFTC2216       202202247158-3070-80             RUBBER STOPPER           CCN000040000000040000FN00000000020220401000040000NNM   20220119172701    1C0C  00004000000000276000000333332D1    TOYOT-K 002700430014
BI00B32D1    DFTC2216       202202247158-3167-80             WIRE SEAL                CCN000020000000020000FN00000000020220401000020000NNM   20220119172701    1C0C  00002000000000048000000109032D1    TOYOT-K 002700430014
BI00B32D1    DFTC2216       202202247196-0396-02             TERMINAL                 CCN000015000000015000FN00000000020220401000015000NNM   20220119172701    4P0P  00001500000000949500001112932D1    TOYOT-K 002800510028
BI00B32D1    DFTC2216       202202247196-0510-02             TERMINAL                 CCN000072000000072000FN00000000020220401000072000NNM   20220119172701    4P0P  00002400000000871200001034632D1    TOYOT-K 002800510028
BI00B32D1    DFTC2216       202202247282-4576                HOUSING MALE ASS'Y       CCN000009600000009600FN00000000020220401000009600NNM   20220119172701    4N0N  00000240000000808800001028832D1    TOYOT-K 005500360039
BI00B32D1    DFTC2216       202202247283-1156                CONNECTOR                CCN000006400000006400FN00000000020220401000006400NNM   20220119172701    4N0N  00000080000000877600001078032D1    TOYOT-K 005600390040
BI00B32D1    DFTC2216       202202247288-6547                CONNECTOR MALE ASS'Y     CCN000016500000016500FN00000000020220401000016500NNM   20220119172701    4N0N  00000075000001205300001340332D1    TOYOT-K 005400370024
BI00B32D1    DFTC2216       202202247289-3342                HOUSING FEMALE ASS'Y     CCN000033600000033600FN00000000020220401000033600NNM   20220119172701    1N0N  00000240000000686400000901432D1    TOYOT-K 005500360039
BI00B32D1    DFTC2216       202202247289-3342-30             HOUSING FEMALE ASS'Y     CCN000081600000081600FN00000000020220401000081600NNM   20220119172701    1N0N  00000240000000686400000901432D1    TOYOT-K 005500360039
BI00B32D1    DFTC2216       202202247289-3342-40             HOUSING FEMALE ASS'Y     CCN000012000000012000FN00000000020220401000012000NNM   20220119172701    1N0N  00000240000000686400000901432D1    TOYOT-K 005500360039
BI00B32D1    DFTC2216       202202247289-3342-90             HOUSING FEMALE ASS'Y     CCN000009600000009600FN00000000020220401000009600NNM   20220119172701    1N0N  00000240000000686400000901432D1    TOYOT-K 005500360039
BI00B32D1    DFTC2216       202202247289-6547                HOUSING FEMALE ASS'Y     CCN000012000000012000FN00000000020220401000012000NNM   20220119172701    1N0N  00000240000001152000001362032D1    TOYOT-K 005500360039
BI00B32D1    DFTC2216       202202247296-0784-02             TERMINAL ALUMINIUM       CCN000024000000024000FN00000000020220401000024000NNM   20220119172701    4P0P  00002400000000480000000765232D1    TOYOT-K 006400630015
BI00B32D1    DFTC2216       202202247296-1025-02             TERMINAL ALUMINIUM       CCN000018000000018000FN00000000020220401000018000NNM   20220119172701    4P0P  00001800000000635400000920632D1    TOYOT-K 006400630015
BI00B32D1    DFTC2216       202202247327-6731-3W             BATTERY FUSE             CCN000001664000001664FN00000000020220401000001664NNM   20220119172701    4N0N  00000006400000697600000843032D1    TOYOT-K 005400370024
BI00B32D1    DFTC2216       202202247388-2978-30             HOUSING MALE ASS'Y       CCN000009600000009600FN00000000020220401000009600NNM   20220119172701    1N0N  00000048000000742000001122032D1    TOYOT-K 005500360039
BI00B32D1    #DFTC2216      202202247158-3003-90             RUBBER STOPPER           CCN000120000000120000FN00000000020220401000120000NNM   20220119172701    2C0C  00002000000000250000000306032D1    TOYOT-K 002700430014
BI00B32D1    #DFTC2216      202202247158-3004-40             RUBBER STOPPER           CCN000020000000020000FN00000000020220401000020000NNM   20220119172701    2C0C  00002000000000234000000306332D1    TOYOT-K 002700430014
BI00B32D1    #DFTC2216      202202247158-3005-80             RUBBER STOPPER           CCN000060000000060000FN00000000020220401000060000NNM   20220119172701    2H0H  00002000000000210000000268732D1    TOYOT-K 002700430014
BI00B32D1    #DFTC2216      202202247158-3008-80             RUBBER STOPPER           CCN000060000000060000FN00000000020220401000060000NNM   20220119172701    2C0C  00002000000000288000000343032D1    TOYOT-K 004300270014
BI00B32D1    #DFTC2216      202202247158-3015-10             RUBBER STOPPER           CCN000020000000020000FN00000000020220401000020000NNM   20220119172701    2C0C  00001000000000419500000474032D1    TOYOT-K 002700430014
BI00B32D1    #DFTC2216      202202247158-3017                RUBBER STOPPER           CCN000040000000040000FN00000000020220401000040000NNM   20220119172701    2C0C  00001000000000375500000435032D1    TOYOT-K 002700430014
BI00B32D1    #DFTC2216      202202247172-5629-80             RUBBER STOPPER           CCN000200000000200000FN00000000020220401000200000NNM   20220119172701    2H0H  00002000000000060000000111132D1    TOYOT-K 004300270014
BI00B32D1    #DFTC2216      202202247172-5630-40             RUBBER STOPPER           CCN000020000000020000FN00000000020220401000020000NNM   20220119172701    2H0H  00002000000000044000000095132D1    TOYOT-K 004300270014
BI00B32D1    #DFTC2216      202202247172-5631-60             RUBBER STOPPER           CCN000040000000040000FN00000000020220401000040000NNM   20220119172701    2H0H  00002000000000042000000093132D1    TOYOT-K 004300270014
BI00B32D1    #DFTC2216      202202247172-5632-10             DUMMY PLUG               CCN000080000000080000FN00000000020220401000080000NNM   20220119172701    2H0H  00002000000000080400000131832D1    TOYOT-K 004300270014
BI00B32D1    #DFTC2216      202202247183-2415-90             CONNECTOR HOUSING        CCN000004800000004800FN00000000020220401000004800NNM   20220119172701    2F0F  00000480000000798200001091432D1    TOYOT-K 005500360039
BI00B32D1    #DFTC2216      202202247189-2978-30             HOUSING FEMALE           CCN000010500000010500FN00000000020220401000010500NNM   20220119172701    2F0F  00000150000000966900001096932D1    TOYOT-K 005400370024
BI00B32D1    #DFTC2216      202202247189-3033                HOUSING FEMALE           CCN000008000000008000FN00000000020220401000008000NNM   20220119172701    2F0F  00000160000001211200001431232D1    TOYOT-K 005500360039
BI00B32D1    #DFTC2216      202202247189-3036                HOUSING FEMALE           CCN000003200000003200FN00000000020220401000003200NNM   20220119172701    2F0F  00000160000000921600001141632D1    TOYOT-K 005500360039
BI00B32D1    #DFTC2216      202202247282-1641                CONNECTOR                CCN000014000000014000FN00000000020220401000014000NNM   20220119172701    2N0N  00000200000000813000000986032D1    TOYOT-K 005500360039
BI00B32D1    #DFTC2216      202202247282-7424                CONNECTOR                CCN000004000000004000FN00000000020220401000004000NNM   20220119172701    2N0N  00000400000001064000001243032D1    TOYOT-K 005500360039
BI00B32D1    #DFTC2216      202202247289-2912-40             HOUSING FEMALE ASS'Y     CCN000004000000004000FN00000000020220401000004000NNM   20220119172701    2N0N  00000200000000804000000931032D1    TOYOT-K 005400370024
BI00B32D1    #DFTC2216      202202247289-3622-30             HOUSING FEMALE ASS'Y     CCN000003024000003024FN00000000020220401000003024NNM   20220119172701    2N0N  00000043200000839400001038432D1    TOYOT-K 005400370024
BI00B32D1    #DFTC2216      202202247289-4200-30             HOUSING FEMALE ASS'Y     CCN000002000000002000FN00000000020220401000002000NNM   20220119172701    2N0N  00000200000000926000001021032D1    TOYOT-K 005400370024
BI00B32EJ    T220118P01     202202177158-3169-40             SEALING PLUG             CCN001320000001320000FN00000000020220201001320000NNE   20220119172701EJ  1C0C  00004000000000156000000204132EJ    EJYKBO  004300260014
BI00B32EJ    #T220118P01    202202177158-3120-90             CONNECTOR WIRE SEAL      CCN000060000000060000FN00000000020220201000060000NNE   20220119172701EJ  2C0C  00002000000000136000000194032EJ    EJYKBO  002700430014
BI00A32E1    NC201C         202202017116-1685-02             TERMINAL                 CCN000024000000024000FN00000000020220101000024000NNED0720220119172701    4P0P  00002400000000897600001065232E1    SPYSE   005100280028
BI00A32E1    NC201C         202202017116-5045-02             TERMINAL                 CCN000016000000016000FN00000000020220101000016000NNED0720220119172701    4P0P  00001600000000678400001007132E1    SPYSE   006400630017
BI00A32E1    NC201C         202202017158-3006-90             RUBBER STOPPER           CCN000040000000040000FN00000000020220101000040000NNED0720220119172701    1C0C  00002000000000330600000386032E1    SPYSE   002700430014
BI00A32E1    #NC201C        202202017158-3003-90             RUBBER STOPPER           CCN000020000000020000FN00000000020220101000020000NNED0720220119172701    2C0C  00002000000000250000000306032E1    SPYSE   002700430014
BI00B32G8    PATA2031       202202237470-5945                J/B COMPLETE ASS'Y       CCN000004050000003450FN00000000020220301000003450NNMD0220220119172701    4J0J  00000001000000494000000661032G8    PSPASI  005400370024
BI00B32G8    PATA2031       202202157470-5945                J/B COMPLETE ASS'Y       CCN000000600000000600FN00000000020220301000000600NNMD0020220119172701    4J0J  00000001000000494000000661032G8    PSPASI  005400370024
BI00B32H0    TT2203DVMW     202203297289-6547                HOUSING FEMALE ASS'Y     CCN000002400000002400FN00000000020220301000002400NNED0220220119172701    1N0N  00000240000001152000001362032H0    TTTJY   005500360039
BI00A32H2    #TIJ2013       202201217172-5629-80             RUBBER STOPPER           PCN000420000000420000FN00000000020220101000420000NNM00020220119172701    2H0H  00002000000000060000000111132H2    HVYHV   004300270014
BI00A32H2    #TIJ2014       202201267172-5629-80             RUBBER STOPPER           PCN000440000000440000FN00000000020220101000440000NNM00020220119172701    2H0H  00002000000000060000000111132H2    HVYHV   004300270014
BI00A32H2    #TIJ2011       202201317172-5630-40             RUBBER STOPPER           PCN000020000000020000FN00000000020220101000020000NNM00020220119172701    2H0H  00002000000000044000000095132H2    HVYHV   004300270014
BI00A32H2    #TIJ2012       202201317172-5630-40             RUBBER STOPPER           PCN000080000000080000FN00000000020220101000080000NNMM0020220119172701    2H0H  00002000000000044000000095132H2    HVYHV   004300270014
BI00A32H2    #TIJ2013       202201217172-5630-40             RUBBER STOPPER           PCN000100000000100000FN00000000020220101000100000NNM00020220119172701    2H0H  00002000000000044000000095132H2    HVYHV   004300270014
BI00A32H2    #TIJ2014       202201267172-5630-40             RUBBER STOPPER           PCN000100000000100000FN00000000020220101000100000NNM00020220119172701    2H0H  00002000000000044000000095132H2    HVYHV   004300270014
BI00B32H2    TIJ2025        202202047114-4032                TERMINAL                 CCN000022500000007500FN00000000020220201000007500NNMQ0820220119172701    4P0P  00000750000000735000001063632H2    HVYHV   006400630017
BI00B32H2    TIJ2025        202202047114-4624-02             TERMINAL                 CCN000144000000120000FN00000000020220201000120000NNMQ0820220119172701    4P0P  00002400000000895200001188832H2    HVYHV   006400630015
BI00B32H2    TIJ2025        202202047114-5753-02             TERMINAL                 CCN000162000000000000FY00000000020220201000000000NNMQ0820220119153748    4P0P  00002700000000847800001141432H2    HVYHV   006400630015
BI00B32H2    TIJ2025        202202047116-4101-02             TERMINAL                 CCN000012000000000000FY00000000020220201000000000NNMQ0820220119153846    4P0P  00001200000000582000000876232H2    HVYHV   006400630015
BI00B32H2    TIJ2025        202202047116-4111-02             TERMINAL                 CCN000007500000000000FY00000000020220201000000000NNMQ0820220119153908    4P0P  00000750000000529500000817732H2    HVYHV   006400630015
BI00B32H2    TIJ2025        202202047126-8854-02             TERMINAL                 CCN000007500000000000FY00000000020220201000000000NNMQ0820220119153925    4P0P  00000750000000604500000889732H2    HVYHV   006400630015
BI00B32H2    TIJ2025        202202047158-3006-90             RUBBER STOPPER           CCN000100000000060000FN00000000020220201000060000NNMQ0820220119172701    1C0C  00002000000000330600000386032H2    HVYHV   002700430014
BI00B32H2    TIJ2025        202202047196-1103-02             TERMINAL                 CCN000157500000112500FN00000000020220201000112500NNMQ0820220119172701    4P0P  00002250000000429800000715032H2    HVYHV   006400630015
BI00B32H2    #TIJ2025       202202047172-5629-80             RUBBER STOPPER           CCN000080000000000000FY00000000020220201000000000NNMQ0820220119155226    2H0H  00002000000000060000000111132H2    HVYHV   004300270014
BI00B32H2    TIJ202C        202201287114-4729-02             TERMINAL                 CCN000090000000000000FY00000000020220201000000000NNEQ0820220119160027    4P0P  00003000000000516000000810232H2    HVYHV   006400630015
BI00B32H2    TIJ202C        202201287114-5746-02             TERMINAL                 CCN000063000000000000FY00000000020220201000000000NNEQ0820220119160027    4P0P  00002100000000695100000988732H2    HVYHV   006400630015
BI00B32H2    TIJ202M        202202047114-4624-02             TERMINAL                 CCN000024000000000000FY00000000020220201000000000NNEQ0820220119154930    4P0P  00002400000000895200001188832H2    HVYHV   006400630015
BI00B32H2    TIJ202M        202202047158-3006-90             RUBBER STOPPER           CCN000120000000000000FY00000000020220201000000000NNEQ0820220119155024    1C0C  00002000000000330600000386032H2    HVYHV   002700430014
BI00B32H2    TIJ202M        202202047196-1103-02             TERMINAL                 CCN000045000000000000FY00000000020220201000000000NNEQ0820220119154951    4P0P  00002250000000429800000715032H2    HVYHV   006400630015
BI00B32H2    #TIJ202M       202202117172-5629-80             RUBBER STOPPER           CCN000300000000200000FN00000000020220201000200000NNEQ0820220119172701    2H0H  00002000000000060000000111132H2    HVYHV   004300270014
BI00B32H2    TIJ2033        202202257114-4110-02             TERMINAL                 CCN000015000000000000FY00000000020220301000000000NNMQ0820220119155809    4P0P  00001500000000901500001230132H2    HVYHV   006400630017
BI00B32H2    TIJ2034        202203047114-4112-02             TERMINAL                 CCN000009000000000000FY00000000020220301000000000NNMQ0820220119160027    4P0P  00000900000000598500000927132H2    HVYHV   006400630017
BI00B32H2    TIJ2031        202202117114-4729-08             TERMINAL                 CCN000030000000000000FY00000000020220301000000000NNMQ0820220119155408    4P0P  00003000000000522000000816232H2    HVYHV   006400630015
BI00B32H2    TIJ2032        202202187116-4026                TERMINAL                 CCN000016000000000000FY00000000020220301000000000NNMQ0820220119155536    4P0P  00001600000000664000000994332H2    HVYHV   006400630017
BI00B32H2    TIJ2032        202202187116-4032                TERMINAL                 CCN000060000000036000FN00000000020220301000036000NNMQ0820220119172701    4P0P  00000600000000532800000818032H2    HVYHV   006400630015
BI00B32H2    TIJ2031        202202117116-4100-02             TERMINAL                 CCN000015000000000000FY00000000020220301000000000NNMQ0820220119155425    4P0P  00001500000000696000000990232H2    HVYHV   006400630015
BI00B32H2    TIJ2033        202202257116-4100-02             TERMINAL                 CCN000015000000000000FY00000000020220301000000000NNMQ0820220119155830    4P0P  00001500000000696000000990232H2    HVYHV   006400630015
BI00B32H2    TIJ2033        202202257116-4111-02             TERMINAL                 CCN000007500000000000FY00000000020220301000000000NNMQ0820220119155849    4P0P  00000750000000529500000817732H2    HVYHV   006400630015
BI00B32H2    TIJ2034        202203047116-4122-02             TERMINAL                 CCN000004500000000000FY00000000020220301000000000NNMQ0820220119160049    4P0P  00000450000000656600000950232H2    HVYHV   006400630015
BI00B32H2    TIJ2031        202202117116-5752-02             TERMINAL                 CCN000336000000189000FN00000000020220301000189000NNMQ0820220119172701    4P0P  00002100000000571200000856432H2    HVYHV   006400630015
BI00B32H2    TIJ2032        202202187158-3165-90             WIRE SEAL                CCN000080000000000000FY00000000020220301000000000NNMQ0820220119155745    1C0C  00004000000000124000000172432H2    HVYHV   004300270014
BI00B32H2    TIJ2033        202202257158-3165-90             WIRE SEAL                CCN000160000000040000FN00000000020220301000040000NNMQ0820220119172701    1C0C  00004000000000124000000172432H2    HVYHV   004300270014
BI00B32H2    TIJ2034        202203047158-3165-90             WIRE SEAL                CCN000160000000080000FN00000000020220301000080000NNMQ0820220119172701    1C0C  00004000000000124000000172432H2    HVYHV   004300270014
BI00B32H2    TIJ2032        202202187196-1103-02             TERMINAL                 CCN000202500000157500FN00000000020220301000157500NNMQ0820220119172701    4P0P  00002250000000429800000715032H2    HVYHV   006400630015
BI00B32H2    TIJ2033        202202257196-1325-02             TERMINAL FEMALE          CCN000060000000000000FY00000000020220301000000000NNMQ0820220119155911    4P0P  00006000000000450000000778732H2    HVYHV   006400630017
BI00B32H2    TIJ2032        202202187196-1326-02             TERMINAL FEMALE          CCN000060000000000000FY00000000020220301000000000NNMQ0820220119155655    4P0P  00006000000000456000000784732H2    HVYHV   006400630017
BI00B32H2    TIJ2032        202202187196-1466-02             TERMINAL MALE            CCN000057000000000000FY00000000020220301000000000NNMQ0820220119155725    4P0P  00002850000000427500000712732H2    HVYHV   006400630015
BI00B32H2    TIJ2033        202202257196-1466-02             TERMINAL MALE            CCN000114000000000000FY00000000020220301000000000NNMQ0820220119155932    4P0P  00002850000000427500000712732H2    HVYHV   006400630015
BI00B32H2    TIJ2034        202203047196-1466-02             TERMINAL MALE            CCN000085500000028500FN00000000020220301000028500NNMQ0820220119172701    4P0P  00002850000000427500000712732H2    HVYHV   006400630015
BI00A32H2    TIJ201R        202201247289-3342-30             HOUSING FEMALE ASS'Y     CCN000067200000067200FN00000000020220101000067200NNE   20220119172701    1N0N  00000240000000686400000901432H2    HVYHV   005500360039
BI00B32H2    TIJ202T        202202047289-3342-30             HOUSING FEMALE ASS'Y     CCN000240000000240000FN00000000020220201000240000NNE   20220119172701    1N0N  00000240000000686400000901432H2    HVYHV   005500360039
BI00A32H8    #TY22013KMW    202202047172-5629-80             RUBBER STOPPER           PCN000040000000040000FN00000000020220101000040000NNMM0020220119172701    2H0H  00002000000000060000000111132H8    TYTYC   004300270014
BI00A32H8    #TY22012KMW    202202047172-5630-40             RUBBER STOPPER           PCN000020000000020000FN00000000020220101000020000NNMM0020220119172701    2H0H  00002000000000044000000095132H8    TYTYC   004300270014
BI00A32H8    #TY22013KMW    202202107172-5630-40             RUBBER STOPPER           PCN000020000000020000FN00000000020220101000020000NNMM0020220119172701    2H0H  00002000000000044000000095132H8    TYTYC   004300270014
BI00A32H8    #TY22021KMW    202202107172-5629-80             RUBBER STOPPER           PCN000040000000040000FN00000000020220201000040000NNM00020220119172701    2H0H  00002000000000060000000111132H8    TYTYC   004300270014
BI00B32J1    #389734        202201247134-4547-30             COVER                    CCN000002500000002500FN00000000020220101000002500NNED0020220119172701    2F0F  00000250000000989000001156732J1    UKYEL-BL005600390040
BI00B32J1    #390112        202201317174-1164                COVER                    CCN000000800000000800FN00000000020220101000000800NNMD0020220119172701    2F0F  00000080000000592000000712032J1    UKYEL-BL005500360039
BI00B32J1    #390382        202202077174-1515                FRONT DOOR COVER         CCN000027600000027600FN00000000020220201000027600NNMD0020220119172701    2F0F  00000060000000490200000610232J1    UKYEL-BL005500360039
BI00B32M1    #TCVL2012      202204027172-5630-40             RUBBER STOPPER           CCN000040000000040000FN00000000020220101000040000NNM00020220119172701    2H0H  00002000000000044000000095132M1    VNYEV   004300270014
BI00A32M1    TCV201F        202201207195-1936-02             TERMINAL MALE            CCN000030000000030000FN00000000020220101000030000NNE   20220119172701    4P0P  00001500000000589500000883132M1    VNYEV   006400630015
BI00A32M1    TCV201F        202201207195-1937-02             TERMINAL MALE            CCN000030000000030000FN00000000020220101000030000NNE   20220119172701    4P0P  00001500000000594000000887632M1    VNYEV   006400630015
BI00A32M1    TCV201F        202201207196-1935-02             TERMINAL FEMALE          CCN000018000000018000FN00000000020220101000018000NNE   20220119172701    4P0P  00001800000000534600000819832M1    VNYEV   006400630015
BI00A32M1    TCV201F        202201207196-1936-02             TERMINAL FEMALE          CCN000027000000027000FN00000000020220101000027000NNE   20220119172701    4P0P  00001350000000441500000726732M1    VNYEV   006400630015
BI00A32M1    TCV201F        202201207196-1937-02             TERMINAL FEMALE          CCN000054000000054000FN00000000020220101000054000NNE   20220119172701    4P0P  00001350000000446900000732132M1    VNYEV   006400630015
BI00A32M1    TCV201F        202201207196-1940-02             TERMINAL FEMALE          CCN000013500000013500FN00000000020220101000013500NNE   20220119172701    4P0P  00001350000000529200000817432M1    VNYEV   006400630015
BI00B32M3    SM22024 MW     202201277116-1686-02             TERMINAL                 CCN000063000000042000FN00000000020220201000042000NNMQ0020220119172701    4P0P  00002100000000869400001021632M3    SASAMI  005100280028
BI00B32M3    SM22024 MW     202201277116-4025                TERMINAL                 CCN000032000000016000FN00000000020220201000016000NNMQ0020220119172701    4P0P  00001600000000644800000975132M3    SASAMI  006400630017
BI00B32M3    SM22024 MW     202201277116-4037                TERMINAL                 CCN000036000000030000FN00000000020220201000030000NNMQ0020220119172701    4P0P  00000600000000600000000894232M3    SASAMI  006400630015
BI00B32M3    SM22024 MW     202201277126-8853-02             TERMINAL                 CCN000075000000067500FN00000000020220201000067500NNMQ0020220119172701    4P0P  00000750000000562500000847732M3    SASAMI  006400630015
BI00B32M3    SM22024 MW     202201277126-8854-02             TERMINAL                 CCN000060000000052500FN00000000020220201000052500NNMQ0020220119172701    4P0P  00000750000000604500000889732M3    SASAMI  006400630015
BI00B32M3    #SM22031 MW    202202037158-3015-10             RUBBER STOPPER           CCN000030000000020000FN00000000020220301000020000NNMQ0020220119172701    2C0C  00001000000000419500000474032M3    SASAMI  002700430014
BI00A32M3    #SM22031 MW    202201247189-0149                HLC HOUSING FEMALE       CCN000002000000002000FN00000000020220301000002000NNMM0020220119172701    2F0F  00000200000000970000001078532M3    SASAMI  005400370024
BI00A32M3    SM22031MMW     202201247116-4115-02             TERMINAL                 CCN000008400000008400FN00000000020220301000008400NNMM0020220119172701    4P0P  00000840000000593000000881232M3    SASAMI  006400630015
BI00B32M3    SM2202AMMW     202201207283-1288-10             CONNECTOR HOUSING        CCN000009600000008400FY00000840020220201000000000NNED0720220119111117    4N0N  00000120000001381000001637032M3    SASAMI  005600390040
BI00A32M3    SM2202B MW     202201247116-1685-02             TERMINAL                 CCN000024000000024000FN00000000020220201000024000NNEM0020220119172701    4P0P  00002400000000897600001065232M3    SASAMI  005100280028
BI00A32M3    SM2202B MW     202201207116-2641                TERMINAL                 CCN000018000000018000FN00000000020220201000018000NNEM0020220119172701    4P0P  00001800000001161000001344632M3    SASAMI  005100280028
BI00A32M3    SM2202B MW     202201247126-8855-02             TERMINAL                 CCN000006000000006000FN00000000020220201000006000NNEM0020220119172701    4P0P  00000600000000510600000795832M3    SASAMI  006400630015
BI00A32M3    SM22024 MW     202201247116-1686-02             TERMINAL                 CCN000021000000021000FN00000000020220201000021000NNMM0020220119172701    4P0P  00002100000000869400001021632M3    SASAMI  005100280028
BI00A32M3    SM22024 MW     202201247116-4025                TERMINAL                 CCN000016000000016000FN00000000020220201000016000NNMM0020220119172701    4P0P  00001600000000644800000975132M3    SASAMI  006400630017
BI00A32M3    SM22024 MW     202201247116-4037                TERMINAL                 CCN000006000000006000FN00000000020220201000006000NNMM0020220119172701    4P0P  00000600000000600000000894232M3    SASAMI  006400630015
BI00A32M3    SM22024 MW     202201247126-8853-02             TERMINAL                 CCN000007500000007500FN00000000020220201000007500NNMM0020220119172701    4P0P  00000750000000562500000847732M3    SASAMI  006400630015
BI00A32M3    SM22024 MW     202201247126-8854-02             TERMINAL                 CCN000007500000007500FN00000000020220201000007500NNMM0020220119172701    4P0P  00000750000000604500000889732M3    SASAMI  006400630015
BI00A32M3    SM2202AMMW     202201247283-1288-10             CONNECTOR HOUSING        CCN000001200000001200FN00000000020220201000001200NNEM0020220119172701    4N0N  00000120000001381000001637032M3    SASAMI  005600390040
BI00A32M3    #SM22031 MW    202201247158-3015-10             RUBBER STOPPER           CCN000010000000010000FN00000000020220301000010000NNMM0020220119172701    2C0C  00001000000000419500000474032M3    SASAMI  002700430014
BI00B32M8    PM22022 MW     202201267283-1288                CONNECTOR HOUSING        CCN000006000000006000FN00000000020220201000006000NNM00020220119172701    4N0N  00000120000001381000001637032M8    PMPEMI  005600390040
BI00B32N1    NST2116ECU     202202107283-5830                CONNECTOR                CCN000024000000012000FN00000000020220301000012000NNEQ0420220119172701    1N47  00000600000000954000001104032N1    TAYIPL  005500360039
BI00B32N1    NST2116ECU     202202107283-5830-30             CONNECTOR                CCN000036000000012000FN00000000020220301000012000NNEQ0220220119172701    1N0N  00000600000000954000001104032N1    TAYIPL  005500360039
BI00B32N1    NST2116ECU     202202177283-5830                CONNECTOR                CCN000012000000012000FN00000000020220301000012000NNED0420220119172701    1N47  00000600000000954000001104032N1    TAYIPL  005500360039
BI00B32N1    NST2116ECU     202202177283-5830-30             CONNECTOR                CCN000012000000012000FN00000000020220301000012000NNED0220220119172701    1N0N  00000600000000954000001104032N1    TAYIPL  005500360039
BI00B32N1    NST2116ECU     202202247283-5830-30             CONNECTOR                CCN000012000000012000FN00000000020220301000012000NNED0220220119172701    1N0N  00000600000000954000001104032N1    TAYIPL  005500360039
BI00A32P8    #TAPI-2014     202202017172-5630-40             RUBBER STOPPER           PCN000100000000100000FN00000000020220101000100000NNM00020220119172701    2H0H  00002000000000044000000095132P8    YIYTM   004300270014
BI00B32Q8    #EU22023 MW    202201267158-3007-10             RUBBER STOPPER           CCN000280000000280000FN00000000020220201000280000NNM00020220119172701    2H0H  00002000000000308000000362732Q8    EMEMI   002700430014
BI00B32R8    #TT22032TMW    202201217158-3003-90             RUBBER STOPPER           CCN000020000000020000FN00000000020220301000020000NNM00020220119172701    2C0C  00002000000000250000000306032R8    TTTJY   002700430014
BI00B32U5    DI2005         202201217289-3342                HOUSING FEMALE ASS'Y     CCN000021600000014400FN00000000020220301000014400NNMD0420220119172701U5  1N0N  00000240000000686400000901432U5    AMAMSD  005500360039
BI00B32U5    DI2013         202203047289-3342                HOUSING FEMALE ASS'Y     CCN000028800000028800FN00000000020220501000028800NNMD0020220119172701U5  1N0N  00000240000000686400000901432U5    AMAMSD  005500360039
BI00B32U5    DI2013         202203047289-3342-30             HOUSING FEMALE ASS'Y     CCN000031200000031200FN00000000020220501000031200NNMD0020220119172701U5  1N0N  00000240000000686400000901432U5    AMAMSD  005500360039
BI00A32U5    DI2005         202201207289-3342                HOUSING FEMALE ASS'Y     CCN000007200000007200FN00000000020220301000007200NNMM0020220119172701U5  1N0N  00000240000000686400000901432U5    AMAMSD  005500360039
BI00A32W2    HN2201FNMW     202201217126-8852-02             TERMINAL                 CCN000007500000007500FN00000000020220101000007500NNE   20220119172701    1P0P  00000750000000648000000933232W2    HNHNY   006400630015
BI00B32W2    HN2202CNMW     202202017116-4025                TERMINAL                 CCN000032000000032000FN00000000020220201000032000NNE   20220119172701    4P0P  00001600000000644800000975132W2    HNHNY   006400630017
BI00B32W2    #HN2202CNMW    202202017158-3121-80             WIRE SEAL                CCN000020000000020000FN00000000020220201000020000NNE   20220119172701    2C0C  00002000000000118000000187332W2    HNHNY   002700430014
BI00B32W2    #HN2202CNMW    202202017183-1616                CONNECTOR HOUSING        CCN000002400000002400FN00000000020220201000002400NNE   20220119172701    2F0F  00000240000000557500000823332W2    HNHNY   005500360039
BI00B32W4    4500178669     202202247288-6547                CONNECTOR MALE ASS'Y     CCN000000750000000750FN00000000020210901000000750NNED0420220119172701W4D44N0N  00000075000001205300001340332W4D4  HJYHK-J 005400370024
BI00B32W4    4500182998     202202247288-6547                CONNECTOR MALE ASS'Y     CCN000005250000005250FN00000000020211201000005250NNED0420220119172701W4164N0N  00000075000001205300001340332W416  HJYHK   005400370024
BI00B32W4    4500183339     202202247288-6547                CONNECTOR MALE ASS'Y     CCN000010500000009000FN00000000020220101000009000NNED0420220119172701W4164N0N  00000075000001205300001340332W416  HJYHK   005400370024
BI00B32W4    4500183378     202203037288-6547                CONNECTOR MALE ASS'Y     CCN000000750000000750FN00000000020211201000000750NNED0420220119172701W4D44N0N  00000075000001205300001340332W4D4  HJYHK-J 005400370024
BI00B32W4    4500183741     202202247158-3167-80             WIRE SEAL                CCN001000000001000000FN00000000020220101001000000NNED0220220119172701W4B71C0C  00002000000000048000000109032W4B7  HJYHK-J 002700430014
BI00B32W4    4500183832     202203037288-6547                CONNECTOR MALE ASS'Y     CCN000010500000010500FN00000000020220101000010500NNED0420220119172701W4164N0N  00000075000001205300001340332W416  HJYHK   005400370024
BI00B32W4    4500183873     202203037288-6547                CONNECTOR MALE ASS'Y     CCN000001500000001500FN00000000020211201000001500NNED0420220119172701W4D44N0N  00000075000001205300001340332W4D4  HJYHK-J 005400370024
BI00B32W4    4500184172     202203037288-6547                CONNECTOR MALE ASS'Y     CCN000000750000000750FN00000000020220101000000750NNED0420220119172701W4D44N0N  00000075000001205300001340332W4D4  HJYHK-J 005400370024
BI00B32W4    4500184492     202203107158-3167-80             WIRE SEAL                CCN001120000001120000FN00000000020220201001120000NNED0220220119172701W4B71C0C  00002000000000048000000109032W4B7  HJYHK-J 002700430014
BI00B32W4    4500184677     202203107288-6547                CONNECTOR MALE ASS'Y     CCN000000750000000750FN00000000020220101000000750NNED0420220119172701W4D44N0N  00000075000001205300001340332W4D4  HJYHK-J 005400370024
BI00B32W4    4500184691     202203107288-6547                CONNECTOR MALE ASS'Y     CCN000052500000014250FN00000000020220101000014250NNED0420220119172701W4164N0N  00000075000001205300001340332W416  HJYHK   005400370024
BI00B32W4    4500184691     202206167288-6547                CONNECTOR MALE ASS'Y     CCN000006000000000000FY00000000020220101000000000NNEQ0020220119083935W4164N0N  00000075000001205300001340332W416  HJYHK   005400370024
BI00B32W4    4500184691     202203177288-6547                CONNECTOR MALE ASS'Y     CCN000006750000015000FN00000000020220101000015000NNED0420220119172701W4164N0N  00000075000001205300001340332W416  HJYHK   005400370024
BI00B32W4    4500184691     202208187288-6547                CONNECTOR MALE ASS'Y     CCN000006750000000000FY00000000020220101000000000NNEQ0020220119084605W4164N0N  00000075000001205300001340332W416  HJYHK   005400370024
BI00B32W4    4500184691     202203247288-6547                CONNECTOR MALE ASS'Y     CCN000006750000015000FN00000000020220101000015000NNED0420220119172701W4164N0N  00000075000001205300001340332W416  HJYHK   005400370024
BI00B32W4    4500184691     202210207288-6547                CONNECTOR MALE ASS'Y     CCN000006750000000000FY00000000020220101000000000NNEQ0020220119084605W4164N0N  00000075000001205300001340332W416  HJYHK   005400370024
BI00B32W4    4500184691     202203317288-6547                CONNECTOR MALE ASS'Y     CCN000006750000008250FN00000000020220101000008250NNED0420220119172701W4164N0N  00000075000001205300001340332W416  HJYHK   005400370024
BI00B32W4    4500184691     202212157288-6547                CONNECTOR MALE ASS'Y     CCN000006750000000000FY00000000020220101000000000NNEQ0020220119084605W4164N0N  00000075000001205300001340332W416  HJYHK   005400370024
BI00B32W4    4500184750     202201207158-3166-60             WIRE SEAL                CCN000040000000040000FN00000000020220101000040000NNE00020220119172701W49 1C0C  00004000000000104000000152432W49   HJYHK   002700430014
BI00B32W4    @4500184750    202201207183-8049                CONNECTOR HOUSING        CCN000004000000004000FN00000000020220101000004000NNE00020220119172701W49 3F0F  00000400000000583600000740032W49   HJYHK   005400370024
BI00B32W4    4500184942     202203177158-3167-80             WIRE SEAL                CCN001000000001000000FN00000000020220201001000000NNED0220220119172701W4B71C0C  00002000000000048000000109032W4B7  HJYHK-J 002700430014
BI00B32W4    4500185107     202203317288-6547                CONNECTOR MALE ASS'Y     CCN000010500000006750FN00000000020220101000006750NNED0420220119172701W4164N0N  00000075000001205300001340332W416  HJYHK   005400370024
BI00B32W4    @4500185322    202201207183-8049                CONNECTOR HOUSING        CCN000008000000008000FN00000000020220101000008000NNE00020220119172701W49 3F0F  00000400000000583600000740032W49   HJYHK   005400370024
BI00B32W4    4500185549     202204077288-6547                CONNECTOR MALE ASS'Y     CCN000000750000000750FN00000000020220101000000750NNED0420220119172701W4D44N0N  00000075000001205300001340332W4D4  HJYHK-J 005400370024
BI00B32W4    4500187341     202204077288-6547                CONNECTOR MALE ASS'Y     CCN000000750000000750FN00000000020220201000000750NNED0420220119172701W4D44N0N  00000075000001205300001340332W4D4  HJYHK-J 005400370024
BI00B32W4    4500187773     202204077288-6547                CONNECTOR MALE ASS'Y     CCN000013500000009750FN00000000020220301000009750NNED0420220119172701W4164N0N  00000075000001205300001340332W416  HJYHK   005400370024
BI00B32W4    4500187827     202204217288-6547                CONNECTOR MALE ASS'Y     CCN000000750000000750FN00000000020220301000000750NNED0420220119172701W4D44N0N  00000075000001205300001340332W4D4  HJYHK-J 005400370024
BI00B32W4    4500183339     202203037288-6547                CONNECTOR MALE ASS'Y     CCN000001500000001500FN00000000020220101000001500NNED0420220119172701W4164N0N  00000075000001205300001340332W416  HJYHK   005400370024
BI00B32W4    4500185107     202204077288-6547                CONNECTOR MALE ASS'Y     CCN000003750000003750FN00000000020220101000003750NNED0420220119172701W4164N0N  00000075000001205300001340332W416  HJYHK   005400370024
BI00B32W4    4500187773     202204217288-6547                CONNECTOR MALE ASS'Y     CCN000003750000003750FN00000000020220301000003750NNED0420220119172701W4164N0N  00000075000001205300001340332W416  HJYHK   005400370024
BI00A32W4    4500187962     202203247158-3167-80             WIRE SEAL                CCN000080000000080000FN00000000020220301000080000NNE   20220119172701W4G91C0C  00002000000000048000000109032W4G9  HJYHK-J 002700430014
BI00A32W4    4500187962     202203247158-3169-40             SEALING PLUG             CCN000040000000040000FN00000000020220301000040000NNE   20220119172701W4G91C0C  00004000000000156000000204132W4G9  HJYHK-J 004300260014
BI00A32W4    4500187963     202203247158-3167-80             WIRE SEAL                CCN000040000000040000FN00000000020220301000040000NNE   20220119172701W4P61C0C  00002000000000048000000109032W4P6  HJYHK-J 002700430014
BI00A32W4    4500187963     202203247158-3169-40             SEALING PLUG             CCN000040000000040000FN00000000020220301000040000NNE   20220119172701W4P61C0C  00004000000000156000000204132W4P6  HJYHK-J 004300260014
BI00B32W4    4500187972     202203157283-8630                CONNECTOR ASS'Y          CCN000006000000006000FN00000000020220301000006000NNE   20220119172701W41 4N0N  00000600000000540000000701332W41   HJYHK   005400370024
BI00A32W4    #4500187980    202207217282-3243-40             CONNECTOR                CCN000001600000001600FN00000000020220701000001600NNE   20220119172701W4802N0N  00000080000001006000001282332W480  HJYHK-J 005600390040
BI00A32W4    4500187993     202203037116-4122-02             TERMINAL                 CCN000018000000018000FN00000000020220301000018000NNE   20220119172701W4804P0P  00000450000000656600000950232W480  HJYHK-J 006400630015
BI00B32W4    4500188011     202207147283-5574-10             CONNECTOR                CCN000001600000001600FN00000000020220701000001600NNE   20220119172701W4464N0N  00000080000001235000001435232W446  HJYHK   005500360039
BI00B32W4    4500188012     202203247114-1475                TERMINAL                 CCN000013500000013500FN00000000020220301000013500NNE   20220119172701W4464P0P  00001350000000480600000774232W446  HJYHK   006400630015
BI00B32W4    4500188013     202203247116-4103-02             TERMINAL                 CCN000012000000012000FN00000000020220301000012000NNE   20220119172701W4464P0P  00001200000000571200000859432W446  HJYHK   006400630015
BI00B32W4    #4500188013    202203247047-5344                RETAINER                 CCN000010000000010000FN00000000020220301000010000NNE   20220119172701W4462F0F  00001000000000870000001016032W446  HJYHK   005600390023
BI00B32W4    4500188014     202203247283-5548-30             CONNECTOR                CCN000001500000001500FN00000000020220301000001500NNE   20220119172701W4464N0N  00000150000001109000001302032W446  HJYHK   005600390040
BI00B32W4    4500188014     202203247283-5545-10             CONNECTOR                CCN000000600000000600FN00000000020220301000000600NNE   20220119172701W4464N0N  00000060000001279000001409232W446  HJYHK   005600390040
BI00B32W4    #4500188014    202203247282-3243-40             CONNECTOR                CCN000001600000001600FN00000000020220301000001600NNE   20220119172701W4462N0N  00000080000001006000001282332W446  HJYHK   005600390040
BI00B32W4    #4500188014    202203247283-8123-40             CONNECTOR HOUSING        CCN000008000000008000FN00000000020220301000008000NNE   20220119172701W4462N0N  00000400000000380000000530032W446  HJYHK   005600390023
BI00B32W4    4500188015     202203247116-4100-02             TERMINAL                 CCN000060000000060000FN00000000020220301000060000NNE   20220119172701W4464P0P  00001500000000696000000990232W446  HJYHK   006400630015
BI00B32W4    4500188015     202203247116-4102-02             TERMINAL                 CCN000072000000072000FN00000000020220301000072000NNE   20220119172701W4464P0P  00001200000000553200000841432W446  HJYHK   006400630015
BI00B32W4    4500188015     202203247283-6448-40             CONNECTOR                CCN000001500000001500FN00000000020220301000001500NNE   20220119172701W4464N0N  00000150000001087000001329032W446  HJYHK   005600390040
BI00B32W4    4500188015     202203247114-1470                TERMINAL                 CCN000016500000016500FN00000000020220301000016500NNE   20220119172701W4464P0P  00001650000000544500000838732W446  HJYHK   006400630015
BI00B32W4    4500188015     202203247158-3167-80             WIRE SEAL                CCN000040000000040000FN00000000020220301000040000NNE   20220119172701W4461C0C  00002000000000048000000109032W446  HJYHK   002700430014
BI00A32W4    4500188024     202203107116-4101-02             TERMINAL                 CCN000012000000012000FN00000000020220301000012000NNE   20220119172701W4194P0P  00001200000000582000000876232W419  HJYHK   006400630015
BI00A32W4    4500188025     202203317116-4103-02             TERMINAL                 CCN000012000000012000FN00000000020220301000012000NNE   20220119172701W4194P0P  00001200000000571200000859432W419  HJYHK   006400630015
BI00A32W4    4500188026     202204077116-4100-02             TERMINAL                 CCN000015000000015000FN00000000020220401000015000NNE   20220119172701W4194P0P  00001500000000696000000990232W419  HJYHK   006400630015
BI00A32W4    4500188026     202204077116-4102-02             TERMINAL                 CCN000012000000012000FN00000000020220401000012000NNE   20220119172701W4194P0P  00001200000000553200000841432W419  HJYHK   006400630015
BI00A32W4    4500188026     202204077116-4101-02             TERMINAL                 CCN000012000000012000FN00000000020220401000012000NNE   20220119172701W4194P0P  00001200000000582000000876232W419  HJYHK   006400630015
BI00A32W4    4500188026     202204077116-4103-02             TERMINAL                 CCN000012000000012000FN00000000020220401000012000NNE   20220119172701W4194P0P  00001200000000571200000859432W419  HJYHK   006400630015
BI00A32W4    #4500188035    202202147289-4104-40             HOUSING FEMALE ASS'Y     CCN000043500000043500FN00000000020220201000043500NNE   20220119172701W4652NON  00000050000000606900000821132W465  HJYHK   005400370024
BI00B32W6    SW22011QMW     202201207327-6880-30             MULTI FUSE               CCN000005760000006336FN00000000020220101000006336NNM00020220119172701    4N0N  00000028800001012600001178532W6    SYSYA-WJ005400370024
BI00B32W9    #4500188031    202203017157-3950-80             SEAL RUBBER              CCN000040000000040000FN00000000020220301000040000NNE   20220119172701W9  2C0C  00004000000000154000000440332W9    HKYHK   002700430014
BI00B32W9    #4500188032    202202017157-3950-80             SEAL RUBBER              CCN000040000000040000FN00000000020220201000040000NNE   20220119172701W9  2C0C  00004000000000154000000440332W9    HKYHK   002700430014
BI00B32X5    TIB1046        202201217289-3342                HOUSING FEMALE ASS'Y     CCN000012000000004800FN00000000020220101000004800NNMD0420220119172701X5  1N0N  00000240000000686400000901432X5    EPYNA-E 005500360039
BI00B32X5    #TIB2007       202202047158-3007-10             RUBBER STOPPER           CCN000240000000240000FN00000000020220401000240000NNM00020220119172701X5  2H0H  00002000000000308000000362732X5    EPYNA-E 002700430014
BI00A32X5    TIB1046        202201207289-3342                HOUSING FEMALE ASS'Y     CCN000007200000007200FN00000000020220101000007200NNMM0020220119172701X5  1N0N  00000240000000686400000901432X5    EPYNA-E 005500360039
BI00A32Y6    #STAP32031     202203047172-5629-80             RUBBER STOPPER           PCN000520000000520000FN00000000020220301000520000NNMM0020220119172701    2H0H  00002000000000060000000111132Y6    BSYBL-S 004300270014
BI00A32Y6    #STAP32031     202203047172-5630-40             RUBBER STOPPER           PCN000600000000600000FN00000000020220301000600000NNMM0020220119172701    2H0H  00002000000000044000000095132Y6    BSYBL-S 004300270014
