BI00B32AF    @TTB205A       20220408181AD2001ZZ              CIVUSAS-S 0.35X1 B       CCN000013750000013750FN00000000020220501000013750NNE   20220312192037    1W    00000055000001540800000000032AF    HBYHVTB 000000000000UW423002
BI00B32AF    @TTB205A       20220408181AD2002ZZ              CIVUSAS-S 0.35X2 B       CCN000059400000059400FN00000000020220501000059400NNE   20220312192037    1W    00000045000001713700000000032AF    HBYHVTB 000000000000UW423004
BI00B32AF    @TTB205A       20220408181AD2008ZZ              CIVUSAS-S 0.5X2 B        CCN000010000000010000FN00000000020220501000010000NNE   20220312192037    1W    00000040000002028000000000032AF    HBYHVTB 000000000000UW423003
BI00B32DE    TT205A         2022040718000004540              AV 8 W                   CCN000001800000001800FN00000000020220501000001800NNE   20220312171432    1W    00000010000010466200000000032DE    TVYEV-TV000000000000VR423013
BI00B32DE    TT205A         20220407180D0203735              AVSSH 0.3F B/R           CCN000002000000002000FN00000000020220501000002000NNE   20220312171432    1W    00000200000000515000000000032DE    TVYEV-TV000000000000VR423009
BI00B32DE    TT205A         20220407180D0203935              AVSSH 0.5F B/R           CCN000003000000003000FN00000000020220501000003000NNE   20220312171432    1W    00000150000000689000000000032DE    TVYEV-TV000000000000VR423010
BI00B32DE    TT205A         20220407180D0204160              AVSSH 1.25F G            CCN000001600000001600FN00000000020220501000001600NNE   20220312171432    1W    00000080000001458000000000032DE    TVYEV-TV000000000000VR423011
BI00B32DE    TT205A         20220407180D0204170              AVSSH 1.25F Y            CCN000001600000001600FN00000000020220501000001600NNE   20220312171432    1W    00000080000001458000000000032DE    TVYEV-TV000000000000VR423012
BI00B32DE    @TT205A        20220407181F21002ZZ              AVSSHCS-S 0.5FX1 B       CCN000000800000000800FN00000000020220501000000800NNE   20220312171430    1W    00000040000001908400000000032DE    TVYEV-TV000000000000VR423007
BI00B32DE    @TT205A        20220407181F21029ZZ              AVSSHCS-S 1.25FX2 B/Y    CCN000000200000000200FN00000000020220501000000200NNE   20220312171430    1W    00000020000004267300000000032DE    TVYEV-TV000000000000VR423008
BI00B32DE    @TT205A        20220407181AD2002ZZ              CIVUSAS-S 0.35X2 B       CCN000006750000006750FN00000000020220501000006750NNE   20220312171430    1W    00000045000001713700000000032DE    TVYEV-TV000000000000VR423004
BI00B32DE    @TT205A        20220407181AD2003ZZ              CIVUSAS-S 0.35X3 B       CCN000005600000005600FN00000000020220501000005600NNE   20220312171430    1W    00000035000002172100000000032DE    TVYEV-TV000000000000VR423005
BI00B32DE    @TT205A        20220407181AD2004ZZ              CIVUSAS-S 0.35X4 B       CCN000006900000006900FN00000000020220501000006900NNE   20220312171430    1W    00000030000002799900000000032DE    TVYEV-TV000000000000VR423006
BI00B32DE    TT205B         20220421180D0203739              AVSSH 0.3F B/L           CCN000002000000002000FN00000000020220501000002000NNE   20220312171432    1W    00000200000000515000000000032DE    TVYEV-TV000000000000VQ124002
BI00B32DE    TT205C         2022042818000004534              AV 8 B/W                 CCN000001800000001800FN00000000020220501000001800NNE   20220312171433    1W    00000010000010466200000000032DE    TVYEV-TV000000000000VU224006
BI00B32DE    TT205C         20220428180D0203735              AVSSH 0.3F B/R           CCN000002000000002000FN00000000020220501000002000NNE   20220312171433    1W    00000200000000515000000000032DE    TVYEV-TV000000000000VU224001
BI00B32DE    TT205C         20220428180D0203790              AVSSH 0.3F L             CCN000002000000002000FN00000000020220501000002000NNE   20220312171433    1W    00000200000000515000000000032DE    TVYEV-TV000000000000VU224002
BI00B32DE    TT205C         20220428180D0204135              AVSSH 1.25F B/R          CCN000003200000003200FN00000000020220501000003200NNE   20220312171433    1W    00000080000001458000000000032DE    TVYEV-TV000000000000VU224003
BI00B32DE    TT205C         20220428180D0204134              AVSSH 1.25F B/W          CCN000000800000000800FN00000000020220501000000800NNE   20220312171433    1W    00000080000001458000000000032DE    TVYEV-TV000000000000VU224004
BI00B32DE    TT205C         20220428180D0204143              AVSSH 1.25F W/B          CCN000018400000018400FN00000000020220501000018400NNE   20220312171433    1W    00000080000001458000000000032DE    TVYEV-TV000000000000VU224005
BI00B32DG    @RH2044A       20220407181E48010ZZ              CAVSAS-S 0.3X1 GY/R      CCN000007000000007000FN00000000020220401000007000NNE   20220312165014    1W    00000050000001529500000000032DG    BFSAIBF 000000000000GX423001
BI00B32DG    RW2044B        202204071801W00695U              IVSSH 0.35F BE           CCN000022500000022500FN00000000020220401000022500NNE   20220312165018    1W    00000250000000452000000000032DG    BFSAIBF 000000000000GU423002
BI00B32DG    RW2044B        202204071801W006990              IVSSH 0.35F L            CCN000010000000010000FN00000000020220401000010000NNE   20220312165018    1W    00000250000000452000000000032DG    BFSAIBF 000000000000GU423003
BI00B32DG    RW2044B        202204071801W006961              IVSSH 0.35F LG           CCN000005000000005000FN00000000020220401000005000NNE   20220312165018    1W    00000250000000452000000000032DG    BFSAIBF 000000000000GU423004
BI00B32DG    RW2044B        202204071801W006952              IVSSH 0.35F P            CCN000015000000015000FN00000000020220401000015000NNE   20220312165018    1W    00000250000000452000000000032DG    BFSAIBF 000000000000GU423005
BI00B32DG    RW2044B        202204071801W006991              IVSSH 0.35F SB           CCN000027500000027500FN00000000020220401000027500NNE   20220312165018    1W    00000250000000452000000000032DG    BFSAIBF 000000000000GU423006
BI00B32DG    RW2044B        202204071801W006992              IVSSH 0.35F V            CCN000012500000012500FN00000000020220401000012500NNE   20220312165018    1W    00000250000000452000000000032DG    BFSAIBF 000000000000GU423007
BI00B32DG    RW2044B        202204071801W006943              IVSSH 0.35F W/B          CCN000005000000005000FN00000000020220401000005000NNE   20220312165018    1W    00000250000000452000000000032DG    BFSAIBF 000000000000GU423008
BI00B32D2    DGTW2224       2022042118000004530              AV 8 B                   CCN000025700000025700FN00000000020220601000025700NNE   20220312141524    1W    00000010000010466200000000032D2    TGYOT-G 000000000000KR124043
BI00B32D2    DGTW2224       2022042118000004540              AV 8 W                   CCN000008000000008000FN00000000020220601000008000NNE   20220312141524    1W    00000010000010466200000000032D2    TGYOT-G 000000000000KR124045
BI00B32D2    DGTW2224       2022042118000004543              AV 8 W/B                 CCN000004100000004100FN00000000020220601000004100NNE   20220312141524    1W    00000010000010466200000000032D2    TGYOT-G 000000000000KR124046
BI00B32D2    DGTW2224       2022042118000004590              AV 8 L                   CCN000006000000006000FN00000000020220601000006000NNE   20220312141524    1W    00000010000010466200000000032D2    TGYOT-G 000000000000KR124044
BI00B32D2    @DGTW2224      20220421181AD2002ZZ              CIVUSAS-S 0.35X2 B       CCN000016650000016650FN00000000020220601000016650NNE   20220312141521    1W    00000045000001713700000000032D2    TGYOT-G 000000000000KR124018
BI00B32D2    @DGTW2224      20220421181AD2003ZZ              CIVUSAS-S 0.35X3 B       CCN000008050000008050FN00000000020220601000008050NNE   20220312141521    1W    00000035000002172100000000032D2    TGYOT-G 000000000000KR124019
BI00B32D2    @DGTW2224      20220421181AD2004ZZ              CIVUSAS-S 0.35X4 B       CCN000008400000008400FN00000000020220601000008400NNE   20220312141521    1W    00000030000002799900000000032D2    TGYOT-G 000000000000KR124020
BI00B32D2    @DGTW2224      20220421181E48037ZZ              CAVSAS-S 0.3X4 GY        CCN000004250000004250FN00000000020220601000004250NNE   20220312141521    1W    00000025000003262000000000032D2    TGYOT-G 000000000000KR124021
BI00B32D2    @DGTW2224      20220421181E50004ZZ              AVSSCS-S 0.5FX1 DGY      CCN000007600000007600FN00000000020220601000007600NNE   20220312141521    1W    00000040000001909700000000032D2    TGYOT-G 000000000000KR124022
BI00B32D2    @DGTW2224      20220421181E50005ZZ              AVSSCS-S 0.5FX1 DGY/W    CCN000004000000004000FN00000000020220601000004000NNE   20220312141521    1W    00000040000001909700000000032D2    TGYOT-G 000000000000KR124024
BI00B32D2    @DGTW2224      20220421181E50007ZZ              AVSSCS-S 0.5FX1 DGY/L    CCN000001200000001200FN00000000020220601000001200NNE   20220312141521    1W    00000040000001909700000000032D2    TGYOT-G 000000000000KR124023
BI00B32D2    @DGTW2224      20220421181E50016ZZ              AVSSCS-S 0.5FX2 DGY/R    CCN000001500000001500FN00000000020220601000001500NNE   20220312141521    1W    00000030000003096000000000032D2    TGYOT-G 000000000000KR124025
BI00B32D2    @DGTW2224      20220421181E50036ZZ              AVSSCS-S 0.3FX2 DGY      CCN000002450000002450FN00000000020220601000002450NNE   20220312141521    1W    00000035000002165000000000032D2    TGYOT-G 000000000000KR124026
BI00B32D2    @DGTW2224      20220421181F21014ZZ              AVSSHCS-S 0.5FX2 B/L     CCN000004200000004200FN00000000020220601000004200NNE   20220312141521    1W    00000030000002531400000000032D2    TGYOT-G 000000000000KR124028
BI00B32D2    @DGTW2224      20220421181F21016ZZ              AVSSHCS-S 0.5FX2 B/BR    CCN000001800000001800FN00000000020220601000001800NNE   20220312141521    1W    00000030000002531400000000032D2    TGYOT-G 000000000000KR124027
BI00B32D2    @DGTW2224      20220421181F21031ZZ              AVSSHCS-S 1.25FX2 B/P    CCN000001800000001800FN00000000020220601000001800NNE   20220312141521    1W    00000020000004267300000000032D2    TGYOT-G 000000000000KR124029
BI00A32D9    @C221A         20220314181E50025ZZ              AVSSCS-S 0.5FX2 DGY/O    CCN000002100000002100FN00000000020220301000002100NNE   20220312100338    1W    00000030000003096000000000032D9    UEHESTO 000000000000HS123002
BI00A32D9    @C221A         20220314181B32103Z8              AVSSCS 0.5FX3 DGY/O      CCN000002000000000250FN00000000020220301000000250NNE00 20220312100338    1W    00000025000003585500000000032D9    UEHESTO 000000000000HS123001
BI00A32D9    @C221A         20220324181B32103Z8              AVSSCS 0.5FX3 DGY/O      CCN000001750000001750FN00000000020220301000001750NNE20 20220312104059    1W    00000025000003585500000000032D9    UEHESTO 000000000000HS123001
BI00B32E1    WC2071         2022042018000004530              AV 8 B                   CCN000000400000000400FN00000000020220601000000400NNM   20220312101132    1W    00000010000010466200000000032E1    SPYSE   000000000000KC124001
BI00B32E1    WC2071         2022042018000004570              AV 8 Y                   CCN000000900000000900FN00000000020220601000000900NNM   20220312101132    1W    00000010000010466200000000032E1    SPYSE   000000000000KC124002
BI00B32E1    WC2072         2022042718000004570              AV 8 Y                   CCN000000800000000800FN00000000020220601000000800NNM   20220312101132    1W    00000010000010466200000000032E1    SPYSE   000000000000KC224001
BI00B32E1    WC2073         2022050418000004570              AV 8 Y                   CCN000000400000000400FN00000000020220601000000400NNM   20220312101132    1W    00000010000010466200000000032E1    SPYSE   000000000000KC324001
BI00B32E2    @WY2071        20220420181E50016ZZ              AVSSCS-S 0.5FX2 DGY/R    CCN000000300000000300FN00000000020220601000000300NNE   20220312101353    1W    00000030000003096000000000032E2    SPYSE   000000000000KY124001
BI00B32E2    @WY2071        20220420181F21015ZZ              AVSSHCS-S 0.5FX2 B/P     CCN000000300000000300FN00000000020220601000000300NNE   20220312101353    1W    00000030000002531400000000032E2    SPYSE   000000000000KY124002
BI00B32G7    JW22044 MW     2022042118007703930              AVSS 0.5F B              CCN000003000000003000FN00000000020220401000003000NNM20 20220312145353    1W    00000150000000674000000000032G7    JIJAI   000000000000JA323022
BI00B32G7    JW22044 MW     2022042118007703992              AVSS 0.5F V              CCN000003000000003000FN00000000020220401000003000NNM20 20220312145353    1W    00000150000000674000000000032G7    JIJAI   000000000000JA323024
BI00B32G7    JW22044MMW     202204211801W003930              IVSSH 0.5F B             CCN000003600000003600FN00000000020220401000003600NNM21 20220312154953    1W    00000180000000625000000000032G7    JIJAI   000000000000JM323003
BI00B32G7    JW22044MMW     202204211801W003940              IVSSH 0.5F W             CCN000001800000001800FN00000000020220401000001800NNM21 20220312154953    1W    00000180000000625000000000032G7    JIJAI   000000000000JM323008
BI00B32G7    JW22044MMW     202204211801W003950              IVSSH 0.5F R             CCN000005400000005400FN00000000020220401000005400NNM21 20220312154953    1W    00000180000000625000000000032G7    JIJAI   000000000000JM323007
BI00B32G7    JW22044MMW     202204211801W003952              IVSSH 0.5F P             CCN000001800000001800FN00000000020220401000001800NNM21 20220312154953    1W    00000180000000625000000000032G7    JIJAI   000000000000JM323006
BI00B32G7    JW22044MMW     202204211801W003990              IVSSH 0.5F L             CCN000025200000025200FN00000000020220401000025200NNM21 20220312154953    1W    00000180000000625000000000032G7    JIJAI   000000000000JM323005
BI00B32G7    JW22044MMW     202204211801W004050              IVSSH 0.75F R            CCN000003900000003900FN00000000020220401000003900NNM21 20220312154953    1W    00000130000000882000000000032G7    JIJAI   000000000000JM323010
BI00B32G7    JW22044MMW     202203311801W004070              IVSSH 0.75F Y            CCN000003900000003900FN00000000020220401000003900NNM00 20220312155753    1W    00000130000000882000000000032G7    JIJAI   000000000000JM323011
BI00B32G7    JW22044MMW     202204211801W006940              IVSSH 0.35F W            CCN000012500000012500FN00000000020220401000012500NNM21 20220312154953    1W    00000250000000452000000000032G7    JIJAI   000000000000JM323019
BI00B32G7    JW22044MMW     202204211801W006941              IVSSH 0.35F GY           CCN000002500000002500FN00000000020220401000002500NNM21 20220312154953    1W    00000250000000452000000000032G7    JIJAI   000000000000JM323014
BI00B32G7    JW22044MMW     202204211801W006952              IVSSH 0.35F P            CCN000007500000007500FN00000000020220401000007500NNM21 20220312154953    1W    00000250000000452000000000032G7    JIJAI   000000000000JM323016
BI00B32G7    JW22044MMW     202202211801W006970              IVSSH 0.35F Y            CCN000015000000015000FN00000000020220401000015000NNM21 20220312155753    1W    00000250000000452000000000032G7    JIJAI   000000000000JM323020
BI00B32G7    JW22044MMW     202204211801W006990              IVSSH 0.35F L            CCN000017500000017500FN00000000020220401000017500NNM21 20220312154953    1W    00000250000000452000000000032G7    JIJAI   000000000000JM323015
BI00B32G7    JW22044MMW     202204211801W006992              IVSSH 0.35F V            CCN000017500000017500FN00000000020220401000017500NNM21 20220312154953    1W    00000250000000452000000000032G7    JIJAI   000000000000JM323018
BI00B32H2    TAW205P        20220408180D0203943              AVSSH 0.5F W/B           CCN000003000000003000FN00000000020220501000003000NNE   20220312172825    1W    00000150000000689000000000032H2    HVYHV   000000000000UG423002
BI00B32H2    @TAW205P       20220408181D6910230              AVSSHCS 0.5FX2 B         CCN000000600000000600FN00000000020220501000000600NNE   20220312172823    1W    00000030000002385000000000032H2    HVYHV   000000000000UG423001
BI00B32H2    TAW205Q        20220408180D0204143              AVSSH 1.25F W/B          CCN000000800000000800FN00000000020220501000000800NNE   20220312172826    1W    00000080000001458000000000032H2    HVYHV   000000000000UI423002
BI00B32H2    @TAW205Q       20220408181D6910230              AVSSHCS 0.5FX2 B         CCN000000600000000600FN00000000020220501000000600NNE   20220312172824    1W    00000030000002385000000000032H2    HVYHV   000000000000UI423001
BI00B32H2    TAW205R        20220422180D0204143              AVSSH 1.25F W/B          CCN000000800000000800FN00000000020220501000000800NNE   20220312172827    1W    00000080000001458000000000032H2    HVYHV   000000000000UK124001
BI00B32H2    TAW205R        20220422180D0204170              AVSSH 1.25F Y            CCN000000800000000800FN00000000020220501000000800NNE   20220312172827    1W    00000080000001458000000000032H2    HVYHV   000000000000UK124002
BI00B32M8    PM2204B MW     2022033018007703943              AVSS 0.5F W/B            CCN000001500000001500FN00000000020220401000001500NNE   20220312171111    1W    00000150000000674000000000032M8    PMPEMI  000000000000IH323001
BI00B32M8    PM2204BTMW     202203301801W004092              IVSSH 0.75F V            CCN000001300000001300FN00000000020220401000001300NNE   20220312171113    1W    00000130000000882000000000032M8    PMPEMI  000000000000II323001
BI00B32N2    2152103878     2022040618007703929              AVSS 0.5F LG/W           CCN000003000000003000FN00000000020220301000003000NNE   20220312091355    1W    00000150000000674000000000032N2    YWYIPLTC000000000000KU423008
BI00B32N2    2152103878     2022040618007703930              AVSS 0.5F B              CCN000006000000006000FN00000000020220301000006000NNE   20220312091355    1W    00000150000000674000000000032N2    YWYIPLTC000000000000KU423002
BI00B32N2    2152103878     2022040618007703941              AVSS 0.5F GY             CCN000003000000003000FN00000000020220301000003000NNE   20220312091355    1W    00000150000000674000000000032N2    YWYIPLTC000000000000KU423006
BI00B32N2    2152103878     2022040618007703960              AVSS 0.5F G              CCN000003000000003000FN00000000020220301000003000NNE   20220312091355    1W    00000150000000674000000000032N2    YWYIPLTC000000000000KU423004
BI00B32N2    2152103878     2022040618007703963              AVSS 0.5F G/B            CCN000003000000003000FN00000000020220301000003000NNE   20220312091355    1W    00000150000000674000000000032N2    YWYIPLTC000000000000KU423005
BI00B32N2    2152103878     2022040618007703970              AVSS 0.5F Y              CCN000006000000006000FN00000000020220301000006000NNE   20220312091355    1W    00000150000000674000000000032N2    YWYIPLTC000000000000KU423009
BI00B32N2    2152103878     2022040618007703975              AVSS 0.5F Y/R            CCN000003000000003000FN00000000020220301000003000NNE   20220312091355    1W    00000150000000674000000000032N2    YWYIPLTC000000000000KU423010
BI00B32N2    2152103878     2022040618007703984              AVSS 0.5F BR/W           CCN000003000000003000FN00000000020220301000003000NNE   20220312091355    1W    00000150000000674000000000032N2    YWYIPLTC000000000000KU423003
BI00B32N2    2152103878     2022040618007703990              AVSS 0.5F L              CCN000006000000006000FN00000000020220301000006000NNE   20220312091355    1W    00000150000000674000000000032N2    YWYIPLTC000000000000KU423007
BI00B32N2    2152103878     2022040618007704190              AVSS 1.25F L             CCN000001600000001600FN00000000020220301000001600NNE   20220312091355    1W    00000080000001389000000000032N2    YWYIPLTC000000000000KU423011
BI00B32N2    2152103878     2022040618007704194              AVSS 1.25F L/W           CCN000001600000001600FN00000000020220301000001600NNE   20220312091355    1W    00000080000001389000000000032N2    YWYIPLTC000000000000KU423013
BI00B32N2    2152103878     2022040618007704195              AVSS 1.25F L/R           CCN000001600000001600FN00000000020220301000001600NNE   20220312091355    1W    00000080000001389000000000032N2    YWYIPLTC000000000000KU423012
BI00B32N2    2152103878     20220406180D0204040              AVSSH 0.75F W            CCN000002000000002000FN00000000020220301000002000NNE   20220312091355    1W    00000100000000934000000000032N2    YWYIPLTC000000000000KU423001
BI00A32W4    @4500190300    20220418181D6910239              AVSSHCS 0.5FX2 B/L       CCN000102000000102000FN00000000020220401000102000NNE   20220312133813W4A21W    00000030000002385000000000032W4A2  HJYHK-J 000000000000OD124001
BI00B32W4    4500190473     2022042618018404030              CAVS 0.85 B              CCN000008000000008000FN00000000020220401000008000NNE   20220312133815W41 1W    00000100000000965000000000032W41   HJYHK-J 000000000000OM224001
BI00B32W4    4500190473     2022042618018404040              CAVS 0.85 W              CCN000003000000003000FN00000000020220401000003000NNE   20220312133815W41 1W    00000100000000965000000000032W41   HJYHK-J 000000000000OM224006
BI00B32W4    4500190473     2022042618018404041              CAVS 0.85 GY             CCN000006000000006000FN00000000020220401000006000NNE   20220312133815W41 1W    00000100000000965000000000032W41   HJYHK-J 000000000000OM224003
BI00B32W4    4500190473     2022042618018404050              CAVS 0.85 R              CCN000010000000010000FN00000000020220401000010000NNE   20220312133815W41 1W    00000100000000965000000000032W41   HJYHK-J 000000000000OM224004
BI00B32W4    4500190473     2022042618018404080              CAVS 0.85 BR             CCN000002000000002000FN00000000020220401000002000NNE   20220312133815W41 1W    00000100000000965000000000032W41   HJYHK-J 000000000000OM224002
BI00B32W4    4500190473     2022042618018404092              CAVS 0.85 V              CCN000002000000002000FN00000000020220401000002000NNE   20220312133815W41 1W    00000100000000965000000000032W41   HJYHK-J 000000000000OM224005
BI00B32W4    @4500190374    20220517181B32116S1              AVSSCS 0.3FX2 DGY        CCN000001050000001050FN00000000020220501000001050NNE   20220312133817W4171W    00000035000002276000000000032W417  HJYHK-J 000000000000OA125001
BI00A32W4    @4500190402    20220509181D6910239              AVSSHCS 0.5FX2 B/L       CCN000001200000001200FN00000000020220501000001200NNE   20220312133818W4421W    00000030000002385000000000032W442  HJYHK-J 000000000000OU424001
BI00B32W4    4500190480     2022050318018403940              CAVS 0.5 W               CCN000012000000012000FN00000000020220501000012000NNE   20220312133823W41 1W    00000150000000677000000000032W41   HJYHK-J 000000000000OR324006
BI00B32W4    4500190480     2022050318018403950              CAVS 0.5 R               CCN000007500000007500FN00000000020220501000007500NNE   20220312133823W41 1W    00000150000000677000000000032W41   HJYHK-J 000000000000OR324005
BI00B32W4    4500190480     2022050318018403952              CAVS 0.5 P               CCN000004500000004500FN00000000020220501000004500NNE   20220312133823W41 1W    00000150000000677000000000032W41   HJYHK-J 000000000000OR324004
BI00B32W4    4500190480     2022050318018403980              CAVS 0.5 BR              CCN000003000000003000FN00000000020220501000003000NNE   20220312133823W41 1W    00000150000000677000000000032W41   HJYHK-J 000000000000OR324003
BI00B32W4    4500190480     2022050318018404141              CAVS 1.25 GY             CCN000002400000002400FN00000000020220501000002400NNE   20220312133823W41 1W    00000080000001378000000000032W41   HJYHK-J 000000000000OR324008
BI00B32W4    4500190480     2022050318018404160              CAVS 1.25 G              CCN000002400000002400FN00000000020220501000002400NNE   20220312133823W41 1W    00000080000001378000000000032W41   HJYHK-J 000000000000OR324007
BI00B32W4    4500190480     202205031801840375U              CAVS 0.3 BE              CCN000002000000002000FN00000000020220501000002000NNE   20220312133823W41 1W    00000200000000471000000000032W41   HJYHK-J 000000000000OR324002
BI00B32W4    @4500190480    20220503181B09116K2              CAVSAS 0.3X2 GY/V        CCN000002800000002800FN00000000020220501000002800NNE   20220312133819W41 1W    00000035000002254000000000032W41   HJYHK-J 000000000000OR324001
BI00B32W4    4500190485     20220503180S7703950              ACAVSS 0.5F R            CCN000001500000001500FN00000000020220501000001500NNE   20220312133824W41 1W    00000150000000645400000000032W41   HJYHK-J 000000000000OS324003
BI00B32W4    4500190485     20220503180S7703930              ACAVSS 0.5F B            CCN000001500000001500FN00000000020220501000001500NNE   20220312133824W41 1W    00000150000000645400000000032W41   HJYHK-J 000000000000OS324002
BI00B32W4    4500190485     2022050318018403740              CAVS 0.3 W               CCN000010000000010000FN00000000020220501000010000NNE   20220312133824W41 1W    00000200000000471000000000032W41   HJYHK-J 000000000000OS324010
BI00B32W4    4500190485     2022050318018403752              CAVS 0.3 P               CCN000002000000002000FN00000000020220501000002000NNE   20220312133824W41 1W    00000200000000471000000000032W41   HJYHK-J 000000000000OS324009
BI00B32W4    4500190485     2022050318018403760              CAVS 0.3 G               CCN000040000000040000FN00000000020220501000040000NNE   20220312133824W41 1W    00000200000000471000000000032W41   HJYHK-J 000000000000OS324008
BI00B32W4    4500190485     2022050318018403780              CAVS 0.3 BR              CCN000012000000012000FN00000000020220501000012000NNE   20220312133824W41 1W    00000200000000471000000000032W41   HJYHK-J 000000000000OS324007
BI00B32W4    4500190485     2022050318018403950              CAVS 0.5 R               CCN000010500000010500FN00000000020220501000010500NNE   20220312133824W41 1W    00000150000000677000000000032W41   HJYHK-J 000000000000OS324015
BI00B32W4    4500190485     2022050318018403951              CAVS 0.5 O               CCN000034500000034500FN00000000020220501000034500NNE   20220312133824W41 1W    00000150000000677000000000032W41   HJYHK-J 000000000000OS324013
BI00B32W4    4500190485     2022050318018403952              CAVS 0.5 P               CCN000090000000090000FN00000000020220501000090000NNE   20220312133824W41 1W    00000150000000677000000000032W41   HJYHK-J 000000000000OS324014
BI00B32W4    4500190485     2022050318018403970              CAVS 0.5 Y               CCN000034500000034500FN00000000020220501000034500NNE   20220312133824W41 1W    00000150000000677000000000032W41   HJYHK-J 000000000000OS324017
BI00B32W4    4500190485     2022050318018403980              CAVS 0.5 BR              CCN000024000000024000FN00000000020220501000024000NNE   20220312133824W41 1W    00000150000000677000000000032W41   HJYHK-J 000000000000OS324011
BI00B32W4    4500190485     2022050318018403990              CAVS 0.5 L               CCN000097500000097500FN00000000020220501000097500NNE   20220312133824W41 1W    00000150000000677000000000032W41   HJYHK-J 000000000000OS324012
BI00B32W4    4500190485     2022050318018403992              CAVS 0.5 V               CCN000006000000006000FN00000000020220501000006000NNE   20220312133824W41 1W    00000150000000677000000000032W41   HJYHK-J 000000000000OS324016
BI00B32W4    4500190485     2022050318018404030              CAVS 0.85 B              CCN000075000000075000FN00000000020220501000075000NNE   20220312133824W41 1W    00000100000000965000000000032W41   HJYHK-J 000000000000OS324018
BI00B32W4    4500190485     2022050318018404040              CAVS 0.85 W              CCN000055000000055000FN00000000020220501000055000NNE   20220312133824W41 1W    00000100000000965000000000032W41   HJYHK-J 000000000000OS324028
BI00B32W4    4500190485     2022050318018404041              CAVS 0.85 GY             CCN000109000000109000FN00000000020220501000109000NNE   20220312133824W41 1W    00000100000000965000000000032W41   HJYHK-J 000000000000OS324021
BI00B32W4    4500190485     2022050318018404050              CAVS 0.85 R              CCN000133000000133000FN00000000020220501000133000NNE   20220312133824W41 1W    00000100000000965000000000032W41   HJYHK-J 000000000000OS324025
BI00B32W4    4500190485     2022050318018404051              CAVS 0.85 O              CCN000044000000044000FN00000000020220501000044000NNE   20220312133824W41 1W    00000100000000965000000000032W41   HJYHK-J 000000000000OS324023
BI00B32W4    4500190485     2022050318018404052              CAVS 0.85 P              CCN000035000000035000FN00000000020220501000035000NNE   20220312133824W41 1W    00000100000000965000000000032W41   HJYHK-J 000000000000OS324024
BI00B32W4    4500190485     2022050318018404060              CAVS 0.85 G              CCN000063000000063000FN00000000020220501000063000NNE   20220312133824W41 1W    00000100000000965000000000032W41   HJYHK-J 000000000000OS324020
BI00B32W4    4500190485     2022050318018404061              CAVS 0.85 LG             CCN000005000000005000FN00000000020220501000005000NNE   20220312133824W41 1W    00000100000000965000000000032W41   HJYHK-J 000000000000OS324022
BI00B32W4    4500190485     2022050318018404070              CAVS 0.85 Y              CCN000083000000083000FN00000000020220501000083000NNE   20220312133824W41 1W    00000100000000965000000000032W41   HJYHK-J 000000000000OS324029
BI00B32W4    4500190485     2022050318018404080              CAVS 0.85 BR             CCN000044000000044000FN00000000020220501000044000NNE   20220312133824W41 1W    00000100000000965000000000032W41   HJYHK-J 000000000000OS324019
BI00B32W4    4500190485     2022050318018404091              CAVS 0.85 SB             CCN000074000000074000FN00000000020220501000074000NNE   20220312133824W41 1W    00000100000000965000000000032W41   HJYHK-J 000000000000OS324026
BI00B32W4    4500190485     2022050318018404092              CAVS 0.85 V              CCN000028000000028000FN00000000020220501000028000NNE   20220312133824W41 1W    00000100000000965000000000032W41   HJYHK-J 000000000000OS324027
BI00B32W4    4500190485     2022050318018404160              CAVS 1.25 G              CCN000000800000000800FN00000000020220501000000800NNE   20220312133824W41 1W    00000080000001378000000000032W41   HJYHK-J 000000000000OS324030
BI00B32W4    4500190485     2022050318001403960              AV 0.5F G                CCN000003000000003000FN00000000020220501000003000NNE   20220312133824W41 1W    00000100000000903000000000032W41   HJYHK-J 000000000000OS324005
BI00B32W4    4500190485     2022050318001403930              AV 0.5F B                CCN000003000000003000FN00000000020220501000003000NNE   20220312133824W41 1W    00000100000000903000000000032W41   HJYHK-J 000000000000OS324004
BI00B32W4    4500190485     2022050318001403946              AV 0.5F W/G              CCN000003000000003000FN00000000020220501000003000NNE   20220312133824W41 1W    00000100000000903000000000032W41   HJYHK-J 000000000000OS324006
BI00B32W4    @4500190485    20220503181B32116Z6              AVSSCS 0.3FX2 DGY/V      CCN000000700000000700FN00000000020220501000000700NNE   20220312133820W41 1W    00000035000002276000000000032W41   HJYHK-J 000000000000OS324001
BI00A32W4    @4500190549    20220425181D6910239              AVSSHCS 0.5FX2 B/L       CCN000076500000076500FN00000000020220401000076500NNE   20220312133814W4A21W    00000030000002385000000000032W4A2  HJYHK-J 000000000000OE224001
BI00B32W4    4500190728     2022040518009603930              AVS 0.5 B                CCN000002000000002000FN00000000020220401000002000NNE   20220312133816W42 1W    00000100000000850000000000032W42   HJYHK-J 000000000000OI423003
BI00B32W4    4500190728     2022040518009603960              AVS 0.5 G                CCN000002000000002000FN00000000020220401000002000NNE   20220312133816W42 1W    00000100000000850000000000032W42   HJYHK-J 000000000000OI423004
BI00B32W4    4500190728     2022040518009603964              AVS 0.5 G/W              CCN000001000000001000FN00000000020220401000001000NNE   20220312133816W42 1W    00000100000000850000000000032W42   HJYHK-J 000000000000OI423005
BI00B32W4    4500190728     2022040518009603990              AVS 0.5 L                CCN000001000000001000FN00000000020220401000001000NNE   20220312133816W42 1W    00000100000000850000000000032W42   HJYHK-J 000000000000OI423006
BI00B32W4    4500190728     2022040518009603997              AVS 0.5 L/Y              CCN000001000000001000FN00000000020220401000001000NNE   20220312133816W42 1W    00000100000000850000000000032W42   HJYHK-J 000000000000OI423007
BI00B32W4    4500190728     2022040518009603950              AVS 0.5 R                CCN000001000000001000FN00000000020220401000001000NNE   20220312133816W42 1W    00000100000000850000000000032W42   HJYHK-J 000000000000OI423008
BI00B32W4    4500190728     2022040518009603954              AVS 0.5 R/W              CCN000001000000001000FN00000000020220401000001000NNE   20220312133816W42 1W    00000100000000850000000000032W42   HJYHK-J 000000000000OI423009
BI00B32W4    4500190728     2022040518009603940              AVS 0.5 W                CCN000002000000002000FN00000000020220401000002000NNE   20220312133816W42 1W    00000100000000850000000000032W42   HJYHK-J 000000000000OI423010
BI00B32W4    4500190728     2022040518009604030              AVS 0.85 B               CCN000003000000003000FN00000000020220401000003000NNE   20220312133816W42 1W    00000100000001167700000000032W42   HJYHK-J 000000000000OI423011
BI00B32W4    4500190728     2022040518009604060              AVS 0.85 G               CCN000001000000001000FN00000000020220401000001000NNE   20220312133816W42 1W    00000100000001167700000000032W42   HJYHK-J 000000000000OI423012
BI00B32W4    4500190728     2022040518009604041              AVS 0.85 GY              CCN000001000000001000FN00000000020220401000001000NNE   20220312133816W42 1W    00000100000001167700000000032W42   HJYHK-J 000000000000OI423013
BI00B32W4    4500190728     2022040518009604090              AVS 0.85 L               CCN000001000000001000FN00000000020220401000001000NNE   20220312133816W42 1W    00000100000001167700000000032W42   HJYHK-J 000000000000OI423014
BI00B32W4    4500190728     2022040518009604094              AVS 0.85 L/W             CCN000002000000002000FN00000000020220401000002000NNE   20220312133816W42 1W    00000100000001167700000000032W42   HJYHK-J 000000000000OI423015
BI00B32W4    4500190728     2022040518009604050              AVS 0.85 R               CCN000001000000001000FN00000000020220401000001000NNE   20220312133816W42 1W    00000100000001167700000000032W42   HJYHK-J 000000000000OI423016
BI00B32W4    4500190728     2022040518009604059              AVS 0.85 R/L             CCN000001000000001000FN00000000020220401000001000NNE   20220312133816W42 1W    00000100000001167700000000032W42   HJYHK-J 000000000000OI423017
BI00B32W4    4500190728     2022040518009604040              AVS 0.85 W               CCN000001000000001000FN00000000020220401000001000NNE   20220312133816W42 1W    00000100000001167700000000032W42   HJYHK-J 000000000000OI423018
BI00B32W4    4500190728     2022040518009604070              AVS 0.85 Y               CCN000001000000001000FN00000000020220401000001000NNE   20220312133816W42 1W    00000100000001167700000000032W42   HJYHK-J 000000000000OI423019
BI00B32W4    4500190728     2022040518009604130              AVS 1.25 B               CCN000000800000000800FN00000000020220401000000800NNE   20220312133816W42 1W    00000080000001643000000000032W42   HJYHK-J 000000000000OI423020
BI00B32W4    4500190728     2022040518009604160              AVS 1.25 G               CCN000000800000000800FN00000000020220401000000800NNE   20220312133816W42 1W    00000080000001643000000000032W42   HJYHK-J 000000000000OI423021
BI00B32W4    4500190728     2022040518009604230              AVS 2 B                  CCN000000500000000500FN00000000020220401000000500NNE   20220312133816W42 1W    00000050000002456500000000032W42   HJYHK-J 000000000000OI423022
BI00B32W4    4500190728     2022040518009604250              AVS 2 R                  CCN000000500000000500FN00000000020220401000000500NNE   20220312133816W42 1W    00000050000002456500000000032W42   HJYHK-J 000000000000OI423023
BI00B32W4    4500190728     2022040518009604330              AVS 3 B                  CCN000001600000001600FN00000000020220401000001600NNE   20220312133816W42 1W    00000040000003831600000000032W42   HJYHK-J 000000000000OI423024
BI00B32W4    4500190728     2022040518009604354              AVS 3 R/W                CCN000000400000000400FN00000000020220401000000400NNE   20220312133816W42 1W    00000040000003831600000000032W42   HJYHK-J 000000000000OI423025
BI00B32W4    4500190728     2022040518007704130              AVSS 1.25F B             CCN000000800000000800FN00000000020220401000000800NNE   20220312133816W42 1W    00000080000001389000000000032W42   HJYHK-J 000000000000OI423001
BI00B32W4    4500190728     2022040518007704230              AVSS 2F B                CCN000001500000001500FN00000000020220401000001500NNE   20220312133816W42 1W    00000050000002126400000000032W42   HJYHK-J 000000000000OI423002
BI00B32W4    4500190728     2022040518018403790              CAVS 0.3 L               CCN000002000000002000FN00000000020220401000002000NNE   20220312133816W42 1W    00000200000000471000000000032W42   HJYHK-J 000000000000OI423026
BI00B32W4    4500190728     2022040518018403930              CAVS 0.5 B               CCN000004500000004500FN00000000020220401000004500NNE   20220312133816W42 1W    00000150000000677000000000032W42   HJYHK-J 000000000000OI423027
BI00B32W4    4500190728     2022040518018403939              CAVS 0.5 B/L             CCN000001500000001500FN00000000020220401000001500NNE   20220312133816W42 1W    00000150000000677000000000032W42   HJYHK-J 000000000000OI423028
BI00B32W4    4500190728     2022040518018403935              CAVS 0.5 B/R             CCN000001500000001500FN00000000020220401000001500NNE   20220312133816W42 1W    00000150000000677000000000032W42   HJYHK-J 000000000000OI423029
BI00B32W4    4500190728     2022040518018403934              CAVS 0.5 B/W             CCN000006000000006000FN00000000020220401000006000NNE   20220312133816W42 1W    00000150000000677000000000032W42   HJYHK-J 000000000000OI423030
BI00B32W4    4500190728     2022040518018403980              CAVS 0.5 BR              CCN000001500000001500FN00000000020220401000001500NNE   20220312133816W42 1W    00000150000000677000000000032W42   HJYHK-J 000000000000OI423031
BI00B32W4    4500190728     2022040518018403984              CAVS 0.5 BR/W            CCN000001500000001500FN00000000020220401000001500NNE   20220312133816W42 1W    00000150000000677000000000032W42   HJYHK-J 000000000000OI423032
BI00B32W4    4500190728     2022040518018403987              CAVS 0.5 BR/Y            CCN000003000000003000FN00000000020220401000003000NNE   20220312133816W42 1W    00000150000000677000000000032W42   HJYHK-J 000000000000OI423033
BI00B32W4    4500190728     2022040518018403960              CAVS 0.5 G               CCN000004500000004500FN00000000020220401000004500NNE   20220312133816W42 1W    00000150000000677000000000032W42   HJYHK-J 000000000000OI423034
BI00B32W4    4500190728     2022040518018403964              CAVS 0.5 G/W             CCN000001500000001500FN00000000020220401000001500NNE   20220312133816W42 1W    00000150000000677000000000032W42   HJYHK-J 000000000000OI423035
BI00B32W4    4500190728     2022040518018403990              CAVS 0.5 L               CCN000003000000003000FN00000000020220401000003000NNE   20220312133816W42 1W    00000150000000677000000000032W42   HJYHK-J 000000000000OI423036
BI00B32W4    4500190728     2022040518018403961              CAVS 0.5 LG              CCN000001500000001500FN00000000020220401000001500NNE   20220312133816W42 1W    00000150000000677000000000032W42   HJYHK-J 000000000000OI423037
BI00B32W4    4500190728     2022040518018403952              CAVS 0.5 P               CCN000001500000001500FN00000000020220401000001500NNE   20220312133816W42 1W    00000150000000677000000000032W42   HJYHK-J 000000000000OI423038
BI00B32W4    4500190728     2022040518018403950              CAVS 0.5 R               CCN000003000000003000FN00000000020220401000003000NNE   20220312133816W42 1W    00000150000000677000000000032W42   HJYHK-J 000000000000OI423039
BI00B32W4    4500190728     2022040518018403954              CAVS 0.5 R/W             CCN000003000000003000FN00000000020220401000003000NNE   20220312133816W42 1W    00000150000000677000000000032W42   HJYHK-J 000000000000OI423040
BI00B32W4    4500190728     2022040518018403940              CAVS 0.5 W               CCN000001500000001500FN00000000020220401000001500NNE   20220312133816W42 1W    00000150000000677000000000032W42   HJYHK-J 000000000000OI423041
BI00B32W4    4500190728     2022040518018403943              CAVS 0.5 W/B             CCN000001500000001500FN00000000020220401000001500NNE   20220312133816W42 1W    00000150000000677000000000032W42   HJYHK-J 000000000000OI423042
BI00B32W4    4500190728     2022040518018403945              CAVS 0.5 W/R             CCN000001500000001500FN00000000020220401000001500NNE   20220312133816W42 1W    00000150000000677000000000032W42   HJYHK-J 000000000000OI423043
BI00B32W4    4500190728     2022040518018403970              CAVS 0.5 Y               CCN000001500000001500FN00000000020220401000001500NNE   20220312133816W42 1W    00000150000000677000000000032W42   HJYHK-J 000000000000OI423044
BI00B32W4    4500190728     2022040518018403975              CAVS 0.5 Y/R             CCN000001500000001500FN00000000020220401000001500NNE   20220312133816W42 1W    00000150000000677000000000032W42   HJYHK-J 000000000000OI423045
BI00B32W4    4500190728     2022040518018404040              CAVS 0.85 W              CCN000001000000001000FN00000000020220401000001000NNE   20220312133816W42 1W    00000100000000965000000000032W42   HJYHK-J 000000000000OI423046
BI00B32W4    4500190728     2022040518018404130              CAVS 1.25 B              CCN000000800000000800FN00000000020220401000000800NNE   20220312133816W42 1W    00000080000001378000000000032W42   HJYHK-J 000000000000OI423047
BI00B32W4    4500190728     2022040518018404160              CAVS 1.25 G              CCN000000800000000800FN00000000020220401000000800NNE   20220312133816W42 1W    00000080000001378000000000032W42   HJYHK-J 000000000000OI423048
BI00B32W4    4500190728     2022040518018404190              CAVS 1.25 L              CCN000000800000000800FN00000000020220401000000800NNE   20220312133816W42 1W    00000080000001378000000000032W42   HJYHK-J 000000000000OI423049
BI00B32W4    4500190728     2022040518018404150              CAVS 1.25 R              CCN000000800000000800FN00000000020220401000000800NNE   20220312133816W42 1W    00000080000001378000000000032W42   HJYHK-J 000000000000OI423050
BI00B32W4    4500190728     2022040518018404140              CAVS 1.25 W              CCN000000800000000800FN00000000020220401000000800NNE   20220312133816W42 1W    00000080000001378000000000032W42   HJYHK-J 000000000000OI423051
BI00B32W4    4500190620     2022050318009604339              AVS 3 B/L                CCN000000400000000400FN00000000020220501000000400NNE   20220312133824W41 1W    00000040000003831600000000032W41   HJYHK-J 000000000000OX324001
BI00B32W4    @4500190748    20220524181B32037Y5              AVSSCS 0.3FX1 DGY/W      CCN000006000000006000FN00000000020220501000006000NNE   20220312133821W4171W    00000050000001780000000000032W417  HJYHK-J 000000000000OF225001
BI00B32W4    @4500190748    20220524181B32116S1              AVSSCS 0.3FX2 DGY        CCN000002100000002100FN00000000020220501000002100NNE   20220312133821W4171W    00000035000002276000000000032W417  HJYHK-J 000000000000OF225002
BI00A32W4    @4500190764    20220517181D6910239              AVSSHCS 0.5FX2 B/L       CCN000001200000001200FN00000000020220501000001200NNE   20220312133822W4421W    00000030000002385000000000032W442  HJYHK-J 000000000000OB125001
BI00B32W9    4500190640     2022042618018404110              CAVS 1.25 GY/R           CCN000000800000000800FN00000000020220401000000800NNE   20220312125738W93 1W    00000080000001378000000000032W93   HKYHK   000000000000ZH224001
