BI00B1200    #2399T51A22    202201277289-4200-30             HOUSING FEMALE ASS'Y     CCN000078000000078000FN00000000020211201000078000NNMD0020220125122731    2N0N  0000020000000092600000102101200    YCYC    005400370024
BI00B1200    #2399T51A23    202202107289-4200-30             HOUSING FEMALE ASS'Y     CCN000078000000078000FN00000000020211201000078000NNMD0020220125122731    2N0N  0000020000000092600000102101200    YCYC    005400370024
BI00B1200    #2399T51A24    202202177289-4200-30             HOUSING FEMALE ASS'Y     CCN000078000000078000FN00000000020211201000078000NNMD0020220125122731    2N0N  0000020000000092600000102101200    YCYC    005400370024
BI00A1200    2399T51A22     202202077289-6547                HOUSING FEMALE ASS'Y     PCN000168000000096000FN00000000020211201000096000NNMD0420220125122731    1N0N  0000024000000115200000136201200    YCYC    005500360039
BI00A1200    2399T51A23     202202147289-6547                HOUSING FEMALE ASS'Y     PCN000151200000096000FN00000000020211201000096000NNMD0420220125122731    1N0N  0000024000000115200000136201200    YCYC    005500360039
BI00B1200    #H322D50028    202203317174-1760-50             CAP                      CCN000024000000024000FN00000000020220401000024000NNE   20220125122731    2F0F  0000030000000081360000092261200    YCYC    005400370024
BI00B1200    Y022E50020     202203317289-6523-30             HOUSING FEMALE ASS'Y     CCN000000480000000480FN00000000020220401000000480NNM   20220125152147    4N0N  0000002400000129050000162051200    YCYC    005500360039
BI00B1200    Y022E50021     202203317289-9612-30             HOUSING FEMALE ASS'Y     CCN000000480000000480FN00000000020220401000000480NNM   20220125152209    4N0N  0000002400000134880000166881200    YCYC    005500360039
BI00B32AG    #XG22032LMW    202201317158-3120-90             CONNECTOR WIRE SEAL      CCN000060000000060000FN00000000020220301000060000NNM00020220125130815    2C0C  00002000000000136000000194032AG    XGXGY   002700430014
BI00B32AG    #XG2203ACMW    202201317298-2459-60             LIF FEMALE ASSEMBLY      CCN000001680000001680FN00000000020220301000001680NNE00020220125130631    2N0N  00000016800000534000000729632AG    XGXGY   005400370024
BI00B32AG    #XG2202FLMW    202201317158-3120-90             CONNECTOR WIRE SEAL      CCN000100000000100000FN00000000020220201000100000NNE00020220125130614    2C0C  00002000000000136000000194032AG    XGXGY   002700430014
BI00B32B6    A72007         202201247017-1181-02             TERMINAL                 CCN000126000000126000FY00012600020220401000000000NNM00020220125134726B6  4P0P  00006300000001089900001266832B6    AXARNE-M005100280028
BI00B32B6    A72007         202201247017-1182-02             TERMINAL                 CCN000090000000090000FY00009000020220401000000000NNM00020220125134726B6  4P0P  00004500000001165500001318632B6    AXARNE-M005100280028
BI00B32B6    A72007         202201247114-1670-02             TERMINAL                 CCN000672000000672000FY00067200020220401000000000NNM00020220125134726B6  1P0P  00002400000000357600000645832B6    AXARNE-M006400630015
BI00B32B6    A72007         202201247116-4486-02             TERMINAL                 CCN000056000000056000FY00005600020220401000000000NNM00020220125134726B6  4P0P  00002800000000666400000995132B6    AXARNE-M006400630017
BI00B32B6    A72007         202201277289-4696-30             HOUSING FEMALE ASS'Y     CCN000070000000030000FN00000000020220401000030000NNM00020220125134815B6  4N0N  00000200000000913400001055432B6    AXARNE-M005400370024
BI00B32B6    A72007         202201277288-5000                HOUSING MALE ASS'Y       CCN000024192000024192FN00000000020220401000024192NNM00020220125134815B6  1N0N  00000033600000825200001035232B6    AXARNE-M005400370024
BI00B32B6    A72007         202201277289-5000                HOUSING FEMALE ASS'Y     CCN000010640000010640FN00000000020220401000010640NNM00020220125134815B6  1N0N  00000030400000549000000759032B6    AXARNE-M005400370024
BI00B32B6    A72008         202201247116-4037                TERMINAL                 CCN000006000000006000FY00000600020220401000000000NNM00020220125135021B6  4P0P  00000600000000600000000894232B6    AXARNE-M006400630015
BI00B32B6    A72008         202201247017-1183-02             TERMINAL                 CCN000027000000027000FY00002700020220401000000000NNM00020220125135021B6  4P0P  00002700000001139400001307432B6    AXARNE-M005100280028
BI00B32B6    A72008         202201247287-0192-40             SEALED HOUSING ASS'Y     CCN000000960000000960FY00000096020220401000000000NNM00020220125135021B6  4N0N  00000048000001092000001322032B6    AXARNE-M005600390040
BI00A32CC    CTA32031       202201267289-3342-30             HOUSING FEMALE ASS'Y     CCN000024000000024000FN00000000020220301000024000NNE00020220125160002    1N0N  00000240000000686400000901432CC    BIYABCBU005500360039
BI00B32CC    CTA32032       202201267158-3167-80             WIRE SEAL                CCN000060000000060000FN00000000020220301000060000NNE00020220125162054    1C0C  00002000000000048000000109032CC    BIYABCBU002700430014
BI00B32CC    CTA32033       202201267158-3167-80             WIRE SEAL                CCN000240000000240000FN00000000020220301000240000NNE00020220125162112    1C0C  00002000000000048000000109032CC    BIYABCBU002700430014
BI00B32CC    CTA32043       202202037283-4855                CONNECTOR HOUSING        CCN000012000000012000FN00000000020211201000012000NNE00020220125122731    4N0N  00000240000001188400001400032CC    BIYABCBU005500360039
BI00B32CC    CTA32043       202202037289-3342                HOUSING FEMALE ASS'Y     CCN000004800000004800FN00000000020211201000004800NNE00020220125122731    1N0N  00000240000000686400000901432CC    BIYABCBU005500360039
BI00A32CC    CTA32052       202202177289-3342                HOUSING FEMALE ASS'Y     CCN000004800000004800FN00000000020220101000004800NNED0720220125122731    1N0N  00000240000000686400000901432CC    BIYABCBU005500360039
BI00A32D2    DGTC2207       202201277288-6547                CONNECTOR MALE ASS'Y     CCN000003000000003000FN00000000020220201000003000NNMM0020220125144032    4N0N  00000075000001205300001340332D2    TGYOT-G 005400370024
BI00B32EJ    T220124P01     202203037158-3167-80             WIRE SEAL                CCN000080000000080000FN00000000020220301000080000NNE   20220125122731EJ  1C0C  00002000000000048000000109032EJ    EJYKBO  002700430014
BI00B32H0    TT22053DMW     202204057116-3154-08             TERMINAL                 CCN000027000000027000FN00000000020220501000027000NNM   20220125142038    4P0P  00002700000000475200000760432H0    TTTJY   006400630015
BI00B32H2    TIJ2034        202203047116-4231-02             TERMINAL                 CCN000026000000000000FY00000000020220301000000000NNMQ0820220125113202    4P0P  00002600000000683800001012532H2    HVYHV   006400630017
BI00B32H2    TIJ202T        202203117289-3342-30             HOUSING FEMALE ASS'Y     CCN000240000000120000FN00000000020220201000120000NNED0420220125122731    1N0N  00000240000000686400000901432H2    HVYHV   005500360039
BI00B32H2    TIJ203J        202203117288-6547                CONNECTOR MALE ASS'Y     CCN000006000000006000FN00000000020220301000006000NNED0420220125122731    4N0N  00000075000001205300001340332H2    HVYHV   005400370024
BI00B32H2    TIJ203K        202203187288-6547                CONNECTOR MALE ASS'Y     CCN000004500000004500FN00000000020220301000004500NNED0420220125122731    4N0N  00000075000001205300001340332H2    HVYHV   005400370024
BI00B32H2    TIJ203L        202203247196-2023-02             TERMINAL FEMALE          CCN000024000000024000FN00000000020220201000024000NNEM0020220125122731    4P0P  00002400000000897600001061032H2    HVYHV   005100280028
BI00A32H2    TIJ201R        202201287289-3342-30             HOUSING FEMALE ASS'Y     CCN000033600000033600FN00000000020220101000033600NNED0420220125122731    1N0N  00000240000000686400000901432H2    HVYHV   005500360039
BI00B32H2    TIJ202T        202203187289-3342-30             HOUSING FEMALE ASS'Y     CCN000120000000120000FN00000000020220201000120000NNED0420220125122731    1N0N  00000240000000686400000901432H2    HVYHV   005500360039
BI00B32M1    #TCVL2012      202202047172-5630-40             RUBBER STOPPER           CCN000040000000040000FN00000000020220101000040000NNM00020220125132951    2H0H  00002000000000044000000095132M1    VNYEV   004300270014
BI00B32N2    2152103772     202203107370-0310                J/B ASS'Y                CCN000001200000001200FN00000000020220401000001200NNMD0220220125122731    1J0J  00000001000000559000000809032N2    YWYIPLTC005500360039
BI00B32R7    R-TAP220033    202202107158-3167-80             WIRE SEAL                CCN000300000000300000FN00000000020220201000300000NNE   20220125122731    1C0C  00002000000000048000000109032R7    IVYCIC  002700430014
BI00B32R7    R-TAP220036    202202107116-1257-02             TERMINAL                 CCN000048000000048000FN00000000020220201000048000NNE   20220125122731    1P0P  00002400000000518400000847132R7    IVYCIC  006400630017
BI00B32R7    R-TAP220038    202202107116-1257-02             TERMINAL                 CCN000048000000048000FN00000000020220201000048000NNE   20220125122731    1P0P  00002400000000518400000847132R7    IVYCIC  006400630017
BI00B32R8    TT22051CMW     202203227158-3168-80             SEALED                   CCN000020000000020000FN00000000020220501000020000NNM   20220125122731    1C0C  00002000000000044000000092132R8    TTTJY   004300260014
BI00B32R8    TT2203ACMW     202202157116-4415-02             TERMINAL                 CCN000038000000038000FN00000000020220301000038000NNED0720220125122731    4P0P  00003800000000596600000925732R8    TTTJY   006400630017
BI00B32R8    TT2203ACMW     202202157158-3166-60             WIRE SEAL                CCN000040000000040000FN00000000020220301000040000NNED0720220125122731    1C0C  00004000000000104000000152432R8    TTTJY   002700430014
BI00B32R8    TT2203ACMW     202202157158-3168-80             SEALED                   CCN000060000000060000FN00000000020220301000060000NNED0720220125122731    1C0C  00002000000000044000000092132R8    TTTJY   004300260014
BI00B32R8    #TT2203BYMW    202202157158-3007-10             RUBBER STOPPER           CCN000020000000020000FN00000000020220301000020000NNE   20220125122731    2H0H  00002000000000308000000362732R8    TTTJY   002700430014
BI00B32R8    #TT2203BYMW    202202157158-3008-80             RUBBER STOPPER           CCN000020000000020000FN00000000020220301000020000NNE   20220125122731    2C0C  00002000000000288000000343032R8    TTTJY   004300270014
BI00B32R8    #TT2203BYMW    202202157172-5626-90             RUBBER STOPPER           CCN000020000000020000FN00000000020220301000020000NNE   20220125122731    2H0H  00002000000000076400000127832R8    TTTJY   004300270014
BI00B32R8    #TT2203BYMW    202202157172-5630-40             RUBBER STOPPER           CCN000020000000020000FN00000000020220301000020000NNE   20220125122731    2H0H  00002000000000044000000095132R8    TTTJY   004300270014
BI00B32U5    DI2001         202201277289-3342-30             HOUSING FEMALE ASS'Y     CCN000014400000014400FN00000000020220201000014400NNMD0420220125164200U5  1N0N  00000240000000686400000901432U5    AMAMSD  005500360039
BI00B32U5    DI2015         202204087289-3342-30             HOUSING FEMALE ASS'Y     CCN000038400000038400FN00000000020220501000038400NNMD0420220125164357U5  1N0N  00000240000000686400000901432U5    AMAMSD  005500360039
BI00B32U9    TP0385S        202203107298-1186-40             SQUIB SUB ASS'Y          CCN000040000000040000FN00000000020220301000040000NNED0220220125164518U9  4N0N  00001000000000650000000774532U9    YNYNA-E 005400370024
BI00B32U9    TPA212         202203107298-1186-40             SQUIB SUB ASS'Y          CCN000010000000010000FN00000000020220301000010000NNMD0220220125164501U9  4N0N  00001000000000650000000774532U9    YNYNA-E 005400370024
BI00A32W4    4500184609     202201247158-3169-40             SEALING PLUG             CCN000040000000040000FY00004000020220101000000000NNE00020220125134639W4A21C0C  00004000000000156000000204132W4A2  HJYHK-J 004300260014
BI00A32W4    4500186124     202203107116-4124-02             TERMINAL                 CCN000003000000000000FY00000000020220301000000000NNEQ0820220125112359W4804P0P  00000300000000459900000753532W480  HJYHK-J 006400630015
BI00A32W4    4500186128     202203037116-4103-02             TERMINAL                 CCN000012000000000000FY00000000020220301000000000NNEQ0820220125112417W4804P0P  00001200000000571200000859432W480  HJYHK-J 006400630015
BI00A32W4    4500187411     202203247116-4124-02             TERMINAL                 CCN000003000000000000FY00000000020220301000000000NNEQ0820220125112434W4804P0P  00000300000000459900000753532W480  HJYHK-J 006400630015
BI00B32W4    4500188134     202205057288-6547                CONNECTOR MALE ASS'Y     CCN000012000000012000FN00000000020220301000012000NNED0420220125164146W4164N0N  00000075000001205300001340332W416  HJYHK   005400370024
BI00B32W4    4500188357     202204077116-4120-02             TERMINAL                 CCN000006000000006000FN00000000020220401000006000NNE   20220125152557W48 4P0P  00000600000000780000001073632W48   HJYHK   006400630015
BI00B32W4    4500188357     202204077116-1230                TERMINAL                 CCN000013500000013500FN00000000020220401000013500NNE   20220125152557W48 4P0P  00001350000000664200000952432W48   HJYHK   006400630015
BI00B32W4    4500188357     202204077116-4025                TERMINAL                 CCN000016000000016000FN00000000020220401000016000NNE   20220125152557W48 4P0P  00001600000000644800000975132W48   HJYHK   006400630017
BI00B32W4    4500188357     202204077116-4121-02             TERMINAL                 CCN000022500000022500FN00000000020220401000022500NNE   20220125152557W48 4P0P  00000450000000618800000912432W48   HJYHK   006400630015
BI00B32W4    4500188357     202204077158-3165-90             WIRE SEAL                CCN000080000000080000FN00000000020220401000080000NNE   20220125152557W48 1C0C  00004000000000124000000172432W48   HJYHK   004300270014
BI00B32W4    4500188357     202204077158-3006-90             RUBBER STOPPER           CCN000020000000020000FN00000000020220401000020000NNE   20220125152557W48 1C0C  00002000000000330600000386032W48   HJYHK   002700430014
BI00B32W4    4500188357     202204077158-3166-60             WIRE SEAL                CCN000080000000080000FN00000000020220401000080000NNE   20220125152557W48 1C0C  00004000000000104000000152432W48   HJYHK   002700430014
BI00B32W4    #4500188357    202204077158-3121-80             WIRE SEAL                CCN000040000000040000FN00000000020220401000040000NNE   20220125152551W48 2C0C  00002000000000118000000187332W48   HJYHK   002700430014
BI00B32W4    #4500188357    202204077123-6423-30             CONNECTOR                CCN000002000000002000FN00000000020220401000002000NNE   20220125152551W48 2F0F  00000200000001002000001167632W48   HJYHK   005600390023
BI00B32W4    @4500188357    202204077123-4312-80             HOUSING                  CCN000004000000004000FN00000000020220401000004000NNE   20220125152554W48 3F0F  00000080000000644200000794032W48   HJYHK   005500360039
BI00B32W4    4500188358     202203317116-4120-02             TERMINAL                 CCN000006000000006000FN00000000020220301000006000NNE   20220125153622W48 4P0P  00000600000000780000001073632W48   HJYHK   006400630015
BI00B32W4    4500188358     202203317116-4122-02             TERMINAL                 CCN000004500000004500FN00000000020220301000004500NNE   20220125153622W48 4P0P  00000450000000656600000950232W48   HJYHK   006400630015
BI00B32W4    4500188358     202203317116-4025                TERMINAL                 CCN000016000000016000FN00000000020220301000016000NNE   20220125153622W48 4P0P  00001600000000644800000975132W48   HJYHK   006400630017
BI00B32W4    4500188358     202203317116-4121-02             TERMINAL                 CCN000018000000018000FN00000000020220301000018000NNE   20220125153622W48 4P0P  00000450000000618800000912432W48   HJYHK   006400630015
BI00B32W4    4500188358     202203317158-3070-80             RUBBER STOPPER           CCN000040000000040000FN00000000020220301000040000NNE   20220125153622W48 1C0C  00004000000000276000000333332W48   HJYHK   002700430014
BI00B32W4    4500188358     202203317158-3165-90             WIRE SEAL                CCN000040000000040000FN00000000020220301000040000NNE   20220125153622W48 1C0C  00004000000000124000000172432W48   HJYHK   004300270014
BI00B32W4    4500188358     202203317158-3006-90             RUBBER STOPPER           CCN000020000000020000FN00000000020220301000020000NNE   20220125153622W48 1C0C  00002000000000330600000386032W48   HJYHK   002700430014
BI00B32W4    4500188358     202203317158-3166-60             WIRE SEAL                CCN000080000000080000FN00000000020220301000080000NNE   20220125153622W48 1C0C  00004000000000104000000152432W48   HJYHK   002700430014
BI00B32W4    4500188358     202203317116-5044-02             TERMINAL                 CCN000016000000016000FN00000000020220301000016000NNE   20220125153622W48 4P0P  00001600000000641600000986332W48   HJYHK   006400630017
BI00B32W4    4500188358     202203317222-6244-40             CONNECTOR                CCN000002400000002400FN00000000020220301000002400NNE   20220125153622W48 4N0N  00000080000001239200001422032W48   HJYHK   005600390040
BI00B32W4    4500188358     202203317289-7615-30             HOUSING FEMALE ASS'Y     CCN000002560000002560FN00000000020220301000002560NNE   20220125153622W48 4N0N  00000032000000738000000948032W48   HJYHK   005400370024
BI00B32W4    #4500188358    202203317123-6423-30             CONNECTOR                CCN000004000000004000FN00000000020220301000004000NNE   20220125153615W48 2F0F  00000200000001002000001167632W48   HJYHK   005600390023
BI00B32W4    #4500188358    202203317157-3952-80             RUBBER STOPPER           CCN000010000000010000FN00000000020220301000010000NNE   20220125153615W48 2C0C  00001000000000117000000175032W48   HJYHK   002700430014
BI00B32W4    #4500188358    202203317183-2418                CONNECTOR HOUSING        CCN000004800000004800FN00000000020220301000004800NNE   20220125153615W48 2F0F  00000480000000917000001477032W48   HJYHK   005500360039
BI00B32W4    @4500188358    202203317123-4312-80             HOUSING                  CCN000005600000005600FN00000000020220301000005600NNE   20220125153619W48 3F0F  00000080000000644200000794032W48   HJYHK   005500360039
BI00B32W4    4500188360     202203247116-4120-02             TERMINAL                 CCN000006000000006000FN00000000020220301000006000NNE   20220125153730W48 4P0P  00000600000000780000001073632W48   HJYHK   006400630015
BI00B32W4    4500188360     202203247116-1230                TERMINAL                 CCN000013500000013500FN00000000020220301000013500NNE   20220125153730W48 4P0P  00001350000000664200000952432W48   HJYHK   006400630015
BI00B32W4    4500188360     202203247116-4025                TERMINAL                 CCN000016000000016000FN00000000020220301000016000NNE   20220125153730W48 4P0P  00001600000000644800000975132W48   HJYHK   006400630017
BI00B32W4    4500188360     202203247116-4121-02             TERMINAL                 CCN000022500000022500FN00000000020220301000022500NNE   20220125153730W48 4P0P  00000450000000618800000912432W48   HJYHK   006400630015
BI00B32W4    4500188360     202203247158-3165-90             WIRE SEAL                CCN000080000000080000FN00000000020220301000080000NNE   20220125153730W48 1C0C  00004000000000124000000172432W48   HJYHK   004300270014
BI00B32W4    4500188360     202203247158-3006-90             RUBBER STOPPER           CCN000020000000020000FN00000000020220301000020000NNE   20220125153730W48 1C0C  00002000000000330600000386032W48   HJYHK   002700430014
BI00B32W4    4500188360     202203247158-3166-60             WIRE SEAL                CCN000040000000040000FN00000000020220301000040000NNE   20220125153730W48 1C0C  00004000000000104000000152432W48   HJYHK   002700430014
BI00B32W4    4500188360     202203247222-6244-40             CONNECTOR                CCN000002400000002400FN00000000020220301000002400NNE   20220125153730W48 4N0N  00000080000001239200001422032W48   HJYHK   005600390040
BI00B32W4    4500188360     202203247289-7615-30             HOUSING FEMALE ASS'Y     CCN000002880000002880FN00000000020220301000002880NNE   20220125153730W48 4N0N  00000032000000738000000948032W48   HJYHK   005400370024
BI00B32W4    4500188360     202203247172-1372-10             FRONT HOLDER             CCN000003900000003900FN00000000020220301000003900NNE   20220125153730W48 4F0F  00000390000000655200000955232W48   HJYHK   005500360039
BI00B32W4    #4500188360    202203247158-3121-80             WIRE SEAL                CCN000040000000040000FN00000000020220301000040000NNE   20220125153724W48 2C0C  00002000000000118000000187332W48   HJYHK   002700430014
BI00B32W4    #4500188360    202203247123-6423-30             CONNECTOR                CCN000002000000002000FN00000000020220301000002000NNE   20220125153724W48 2F0F  00000200000001002000001167632W48   HJYHK   005600390023
BI00B32W4    #4500188360    202203247158-3004-40             RUBBER STOPPER           CCN000020000000020000FN00000000020220301000020000NNE   20220125153724W48 2C0C  00002000000000234000000306332W48   HJYHK   002700430014
BI00B32W4    @4500188360    202203247123-4312-80             HOUSING                  CCN000004800000004800FN00000000020220301000004800NNE   20220125153727W48 3F0F  00000080000000644200000794032W48   HJYHK   005500360039
BI00B32W4    4500188361     202203177116-4120-02             TERMINAL                 CCN000006000000006000FN00000000020220301000006000NNE   20220125153852W48 4P0P  00000600000000780000001073632W48   HJYHK   006400630015
BI00B32W4    4500188361     202203177116-4122-02             TERMINAL                 CCN000004500000004500FN00000000020220301000004500NNE   20220125153852W48 4P0P  00000450000000656600000950232W48   HJYHK   006400630015
BI00B32W4    4500188361     202203177116-4025                TERMINAL                 CCN000016000000016000FN00000000020220301000016000NNE   20220125153852W48 4P0P  00001600000000644800000975132W48   HJYHK   006400630017
BI00B32W4    4500188361     202203177116-4022                TERMINAL                 CCN000013500000013500FN00000000020220301000013500NNE   20220125153852W48 4P0P  00001350000000618300000903532W48   HJYHK   006400630015
BI00B32W4    4500188361     202203177116-4121-02             TERMINAL                 CCN000018000000018000FN00000000020220301000018000NNE   20220125153852W48 4P0P  00000450000000618800000912432W48   HJYHK   006400630015
BI00B32W4    4500188361     202203177158-3165-90             WIRE SEAL                CCN000040000000040000FN00000000020220301000040000NNE   20220125153852W48 1C0C  00004000000000124000000172432W48   HJYHK   004300270014
BI00B32W4    4500188361     202203177158-3166-60             WIRE SEAL                CCN000080000000080000FN00000000020220301000080000NNE   20220125153852W48 1C0C  00004000000000104000000152432W48   HJYHK   002700430014
BI00B32W4    4500188361     202203177116-5044-02             TERMINAL                 CCN000016000000016000FN00000000020220301000016000NNE   20220125153852W48 4P0P  00001600000000641600000986332W48   HJYHK   006400630017
BI00B32W4    4500188361     202203177222-6244-40             CONNECTOR                CCN000004800000004800FN00000000020220301000004800NNE   20220125153852W48 4N0N  00000080000001239200001422032W48   HJYHK   005600390040
BI00B32W4    4500188361     202203177289-7615-30             HOUSING FEMALE ASS'Y     CCN000004160000004160FN00000000020220301000004160NNE   20220125153852W48 4N0N  00000032000000738000000948032W48   HJYHK   005400370024
BI00B32W4    4500188361     202203177172-1372-10             FRONT HOLDER             CCN000003900000003900FN00000000020220301000003900NNE   20220125153852W48 4F0F  00000390000000655200000955232W48   HJYHK   005500360039
BI00B32W4    #4500188361    202203177157-3950-80             SEAL RUBBER              CCN000040000000040000FN00000000020220301000040000NNE   20220125153847W48 2C0C  00004000000000154000000440332W48   HJYHK   002700430014
BI00B32W4    #4500188361    202203177123-6423-30             CONNECTOR                CCN000004000000004000FN00000000020220301000004000NNE   20220125153847W48 2F0F  00000200000001002000001167632W48   HJYHK   005600390023
BI00B32W4    #4500188361    202203177157-3952-80             RUBBER STOPPER           CCN000010000000010000FN00000000020220301000010000NNE   20220125153847W48 2C0C  00001000000000117000000175032W48   HJYHK   002700430014
BI00B32W4    #4500188361    202203177183-2418                CONNECTOR HOUSING        CCN000004800000004800FN00000000020220301000004800NNE   20220125153847W48 2F0F  00000480000000917000001477032W48   HJYHK   005500360039
BI00B32W4    @4500188361    202203177123-4312-80             HOUSING                  CCN000007200000007200FN00000000020220301000007200NNE   20220125153849W48 3F0F  00000080000000644200000794032W48   HJYHK   005500360039
BI00B32W4    4500188362     202203107116-4120-02             TERMINAL                 CCN000006000000006000FN00000000020220301000006000NNE   20220125154001W48 4P0P  00000600000000780000001073632W48   HJYHK   006400630015
BI00B32W4    4500188362     202203107116-4122-02             TERMINAL                 CCN000009000000009000FN00000000020220301000009000NNE   20220125154001W48 4P0P  00000450000000656600000950232W48   HJYHK   006400630015
BI00B32W4    4500188362     202203107116-4025                TERMINAL                 CCN000016000000016000FN00000000020220301000016000NNE   20220125154001W48 4P0P  00001600000000644800000975132W48   HJYHK   006400630017
BI00B32W4    4500188362     202203107116-4121-02             TERMINAL                 CCN000004500000004500FN00000000020220301000004500NNE   20220125154001W48 4P0P  00000450000000618800000912432W48   HJYHK   006400630015
BI00B32W4    4500188362     202203107158-3006-90             RUBBER STOPPER           CCN000020000000020000FN00000000020220301000020000NNE   20220125154001W48 1C0C  00002000000000330600000386032W48   HJYHK   002700430014
BI00B32W4    4500188362     202203107222-6244-40             CONNECTOR                CCN000003200000003200FN00000000020220301000003200NNE   20220125154001W48 4N0N  00000080000001239200001422032W48   HJYHK   005600390040
BI00B32W4    4500188362     202203107289-7615-30             HOUSING FEMALE ASS'Y     CCN000002880000002880FN00000000020220301000002880NNE   20220125154001W48 4N0N  00000032000000738000000948032W48   HJYHK   005400370024
BI00B32W4    4500188362     202203107172-1372-10             FRONT HOLDER             CCN000003900000003900FN00000000020220301000003900NNE   20220125154001W48 4F0F  00000390000000655200000955232W48   HJYHK   005500360039
BI00B32W4    #4500188362    202203107158-3003-90             RUBBER STOPPER           CCN000060000000060000FN00000000020220301000060000NNE   20220125153956W48 2C0C  00002000000000250000000306032W48   HJYHK   002700430014
BI00B32W4    @4500188362    202203107123-4312-80             HOUSING                  CCN000000800000000800FN00000000020220301000000800NNE   20220125153959W48 3F0F  00000080000000644200000794032W48   HJYHK   005500360039
BI00B32W4    4500188363     202203037222-6244-40             CONNECTOR                CCN000000800000000800FN00000000020220301000000800NNE   20220125154216W48 4N0N  00000080000001239200001422032W48   HJYHK   005600390040
BI00B32W4    #4500188363    202203037158-3003-90             RUBBER STOPPER           CCN000060000000060000FN00000000020220301000060000NNE   20220125154213W48 2C0C  00002000000000250000000306032W48   HJYHK   002700430014
BI00B32W4    #4500188364    202202247158-3003-90             RUBBER STOPPER           CCN000040000000040000FN00000000020220201000040000NNE   20220125154256W48 2C0C  00002000000000250000000306032W48   HJYHK   002700430014
BI00B32W4    #4500188365    202202177158-3003-90             RUBBER STOPPER           CCN000040000000040000FN00000000020220201000040000NNE   20220125154335W48 2C0C  00002000000000250000000306032W48   HJYHK   002700430014
BI00B32W4    #4500188452    202204077047-5344                RETAINER                 CCN000010000000010000FN00000000020220401000010000NNE   20220125154421W4462F0F  00001000000000870000001016032W446  HJYHK   005600390023
BI00B32W4    #4500188452    202204077123-7564-30             CONNECTOR                CCN000001000000001000FN00000000020220401000001000NNE   20220125154421W4462F0F  00000100000001310000001455632W446  HJYHK   005600390040
BI00B32W4    4500188453     202204077116-4101-02             TERMINAL                 CCN000036000000036000FN00000000020220401000036000NNE   20220125154514W4464P0P  00001200000000582000000876232W446  HJYHK   006400630015
BI00B32W4    4500188453     202204077114-4110-02             TERMINAL                 CCN000015000000015000FN00000000020220401000015000NNE   20220125154514W4464P0P  00001500000000901500001230132W446  HJYHK   006400630017
BI00B32W4    4500188453     202204077116-4103-02             TERMINAL                 CCN000012000000012000FN00000000020220401000012000NNE   20220125154514W4464P0P  00001200000000571200000859432W446  HJYHK   006400630015
BI00B32W4    #4500188453    202204077282-3243-40             CONNECTOR                CCN000000800000000800FN00000000020220401000000800NNE   20220125154512W4462N0N  00000080000001006000001282332W446  HJYHK   005600390040
BI00B32W4    #4500188453    202204077283-8123-40             CONNECTOR HOUSING        CCN000004000000004000FN00000000020220401000004000NNE   20220125154512W4462N0N  00000400000000380000000530032W446  HJYHK   005600390023
BI00B32W4    4500188454     202204077116-4100-02             TERMINAL                 CCN000045000000045000FN00000000020220401000045000NNE   20220125154556W4464P0P  00001500000000696000000990232W446  HJYHK   006400630015
BI00B32W4    4500188454     202204077116-4112-02             TERMINAL                 CCN000018000000018000FN00000000020220401000018000NNE   20220125154556W4464P0P  00000600000000450000000738232W446  HJYHK   006400630015
BI00B32W4    4500188454     202204077116-4102-02             TERMINAL                 CCN000048000000048000FN00000000020220401000048000NNE   20220125154556W4464P0P  00001200000000553200000841432W446  HJYHK   006400630015
BI00B32W4    4500188454     202204077114-4100-02             TERMINAL                 CCN000018000000018000FN00000000020220401000018000NNE   20220125154556W4464P0P  00001800000000748800001077432W446  HJYHK   006400630017
BI00B32W4    4500188454     202204077283-6448-40             CONNECTOR                CCN000001500000001500FN00000000020220401000001500NNE   20220125154556W4464N0N  00000150000001087000001329032W446  HJYHK   005600390040
BI00B32W4    4500188454     202204077114-1470                TERMINAL                 CCN000016500000016500FN00000000020220401000016500NNE   20220125154556W4464P0P  00001650000000544500000838732W446  HJYHK   006400630015
BI00B32W4    4500188454     202204077158-3167-80             WIRE SEAL                CCN000040000000040000FN00000000020220401000040000NNE   20220125154556W4461C0C  00002000000000048000000109032W446  HJYHK   002700430014
BI00B32W4    4500188455     202204077114-1475                TERMINAL                 CCN000013500000013500FN00000000020220401000013500NNE   20220125154641W4464P0P  00001350000000480600000774232W446  HJYHK   006400630015
BI00B32W4    4500188456     202203247114-4110-02             TERMINAL                 CCN000015000000015000FN00000000020220301000015000NNE   20220125154820W4464P0P  00001500000000901500001230132W446  HJYHK   006400630017
BI00B32W4    4500188456     202203247116-4103-02             TERMINAL                 CCN000012000000012000FN00000000020220301000012000NNE   20220125154820W4464P0P  00001200000000571200000859432W446  HJYHK   006400630015
BI00B32W4    #4500188456    202203247283-8123-40             CONNECTOR HOUSING        CCN000004000000004000FN00000000020220301000004000NNE   20220125154818W4462N0N  00000400000000380000000530032W446  HJYHK   005600390023
BI00B32W4    #4500188456    202203247047-5344                RETAINER                 CCN000010000000010000FN00000000020220301000010000NNE   20220125154818W4462F0F  00001000000000870000001016032W446  HJYHK   005600390023
BI00B32W4    4500188457     202203247116-4101-02             TERMINAL                 CCN000060000000060000FN00000000020220301000060000NNE   20220125155014W4464P0P  00001200000000582000000876232W446  HJYHK   006400630015
BI00B32W4    4500188457     202203247158-3169-40             SEALING PLUG             CCN000040000000040000FN00000000020220301000040000NNE   20220125155014W4461C0C  00004000000000156000000204132W446  HJYHK   004300260014
BI00B32W4    #4500188457    202203247282-3243-40             CONNECTOR                CCN000000800000000800FN00000000020220301000000800NNE   20220125155011W4462N0N  00000080000001006000001282332W446  HJYHK   005600390040
BI00B32W4    #4500188457    202203247157-7897-60             SEAL RUBBER              CCN000010000000010000FN00000000020220301000010000NNE   20220125155011W4462C0C  00001000000000132000000214732W446  HJYHK   002700430014
BI00B32W4    4500188458     202203247116-4100-02             TERMINAL                 CCN000090000000090000FN00000000020220301000090000NNE   20220125155114W4464P0P  00001500000000696000000990232W446  HJYHK   006400630015
BI00B32W4    4500188458     202203247114-4112-02             TERMINAL                 CCN000045000000045000FN00000000020220301000045000NNE   20220125155114W4464P0P  00000900000000598500000927132W446  HJYHK   006400630017
BI00B32W4    4500188458     202203247116-4112-02             TERMINAL                 CCN000102000000102000FN00000000020220301000102000NNE   20220125155114W4464P0P  00000600000000450000000738232W446  HJYHK   006400630015
BI00B32W4    4500188458     202203247116-4102-02             TERMINAL                 CCN000144000000144000FN00000000020220301000144000NNE   20220125155114W4464P0P  00001200000000553200000841432W446  HJYHK   006400630015
BI00B32W4    4500188458     202203247114-4100-02             TERMINAL                 CCN000072000000072000FN00000000020220301000072000NNE   20220125155114W4464P0P  00001800000000748800001077432W446  HJYHK   006400630017
BI00B32W4    4500188458     202203247158-3168-80             SEALED                   CCN000060000000060000FN00000000020220301000060000NNE   20220125155114W4461C0C  00002000000000044000000092132W446  HJYHK   004300260014
BI00B32W4    4500188458     202203247158-3167-80             WIRE SEAL                CCN000120000000120000FN00000000020220301000120000NNE   20220125155114W4461C0C  00002000000000048000000109032W446  HJYHK   002700430014
BI00B32W4    #4500188458    202203247158-3003-90             RUBBER STOPPER           CCN000020000000020000FN00000000020220301000020000NNE   20220125155111W4462C0C  00002000000000250000000306032W446  HJYHK   002700430014
BI00B32W4    4500188459     202207217283-5574-10             CONNECTOR                CCN000000800000000800FN00000000020220701000000800NNE   20220125155208W4464N0N  00000080000001235000001435232W446  HJYHK   005500360039
BI00B32W9    4500182067     202201257289-6868-30             SEALED ASSY FEMALE       CCN000100800000045360FY00004536020211201000000000NNE00020220125162506W9  4N0N  00000252000000839200001119232W9    HKYHK   005500360039
BI00B32W9    4500182067     202202017289-6868-30             SEALED ASSY FEMALE       CCN000050400000105840FN00000000020211201000105840NNED0020220125162506W9  4N0N  00000252000000839200001119232W9    HKYHK   005500360039
BI00B32W9    4500188295     202204057158-3167-80             WIRE SEAL                CCN000020000000020000FN00000000020220401000020000NNE   20220125151834W9  1C0C  00002000000000048000000109032W9    HKYHK   002700430014
BI00B32W9    #4500188296    202204057157-3950-80             SEAL RUBBER              CCN000040000000040000FN00000000020220401000040000NNE   20220125151920W9  2C0C  00004000000000154000000440332W9    HKYHK   002700430014
BI00B32W9    4500188306     202203017116-4028-08             TERMINAL FEMALE          CCN000016000000016000FN00000000020220301000016000NNE   20220125152043W93 4P0P  00001600000000652800000981532W93   HKYHK   006400630017
BI00B32W9    4500188306     202203017116-1180                TERMINAL                 CCN000019500000019500FN00000000020220301000019500NNE   20220125152043W93 1P0P  00001950000000618200000903432W93   HKYHK   006400630015
BI00B32W9    4500188306     202203017126-8850-02             TERMINAL                 CCN000009000000009000FN00000000020220301000009000NNE   20220125152043W93 1P0P  00000900000000672300000957532W93   HKYHK   006400630015
BI00B32W9    4500188306     202203017116-4025                TERMINAL                 CCN000016000000016000FN00000000020220301000016000NNE   20220125152043W93 4P0P  00001600000000644800000975132W93   HKYHK   006400630017
BI00B32W9    4500188306     202203017114-5746-02             TERMINAL                 CCN000021000000021000FN00000000020220301000021000NNE   20220125152043W93 4P0P  00002100000000695100000988732W93   HKYHK   006400630015
BI00B32W9    4500188306     202203017116-1473                TERMINAL                 CCN000013500000013500FN00000000020220301000013500NNE   20220125152043W93 4P0P  00001350000000523800000809032W93   HKYHK   006400630015
BI00B32W9    4500188306     202203017116-1471                TERMINAL                 CCN000030000000030000FN00000000020220301000030000NNE   20220125152043W93 4P0P  00001500000000579000000867232W93   HKYHK   006400630015
BI00B32W9    4500188306     202203017126-8851-02             TERMINAL                 CCN000009000000009000FN00000000020220301000009000NNE   20220125152043W93 1P0P  00000900000000739800001025032W93   HKYHK   006400630015
BI00B32W9    4500188306     202203017116-6042                TERMINAL                 CCN000003000000003000FN00000000020220301000003000NNE   20220125152043W93 4P0P  00000300000000523800000856132W93   HKYHK   006400630015
BI00B32W9    4500188306     202203017114-4030                TERMINAL                 CCN000010500000010500FN00000000020220301000010500NNE   20220125152043W93 4P0P  00001050000000926100001254732W93   HKYHK   006400630017
BI00B32W9    4500188306     202203017222-7484-40             CONNECTOR                CCN000001000000001000FN00000000020220301000001000NNE   20220125152043W93 4N0N  00000100000001030000001176032W93   HKYHK   005500360039
BI00B32W9    4500188306     202203017222-7923-40             CONNECTOR                CCN000000600000000600FN00000000020220301000000600NNE   20220125152043W93 4N0N  00000060000000937000001123032W93   HKYHK   005500360039
BI00B32W9    4500188306     202203017158-3166-60             WIRE SEAL                CCN000080000000080000FN00000000020220301000080000NNE   20220125152043W93 1C0C  00004000000000104000000152432W93   HKYHK   002700430014
BI00B32W9    #4500188306    202203017158-3120-90             CONNECTOR WIRE SEAL      CCN000100000000100000FN00000000020220301000100000NNE   20220125152010W93 2C0C  00002000000000136000000194032W93   HKYHK   002700430014
BI00B32W9    @4500188306    202203017283-3030                HOUSING FEMALE ASS'Y     CCN000001600000001600FN00000000020220301000001600NNE   20220125152040W93 3N0N  00000160000001056300001303032W93   HKYHK   005500360039
BI00B32W9    4500188321     202203087017-1183-02             TERMINAL                 CCN000027000000027000FN00000000020220301000027000NNE   20220125152159W93 4P0P  00002700000001139400001307432W93   HKYHK   005100280028
BI00B32W9    4500188321     202203087116-6041                TERMINAL                 CCN000004500000004500FN00000000020220301000004500NNE   20220125152159W93 4P0P  00000450000000716000001009632W93   HKYHK   006400630015
BI00B32W9    4500188321     202203087116-1180                TERMINAL                 CCN000019500000019500FN00000000020220301000019500NNE   20220125152159W93 1P0P  00001950000000618200000903432W93   HKYHK   006400630015
BI00B32W9    4500188321     202203087126-8850-02             TERMINAL                 CCN000009000000009000FN00000000020220301000009000NNE   20220125152159W93 1P0P  00000900000000672300000957532W93   HKYHK   006400630015
BI00B32W9    4500188321     202203087126-8852-02             TERMINAL                 CCN000007500000007500FN00000000020220301000007500NNE   20220125152159W93 1P0P  00000750000000648000000933232W93   HKYHK   006400630015
BI00B32W9    4500188321     202203087222-7564-40             CONNECTOR                CCN000000500000000500FN00000000020220301000000500NNE   20220125152159W93 1N0N  00000050000000967000001097032W93   HKYHK   005500360039
BI00B32W9    #4500188321    202203087123-7923-40             CONNECTOR                CCN000001500000001500FN00000000020220301000001500NNE   20220125152147W93 2F0F  00000150000001492500001665932W93   HKYHK   005600390040
BI00B32W9    #4500188321    202203087123-7564-40             CONNECTOR                CCN000001000000001000FN00000000020220301000001000NNE   20220125152147W93 2F0F  00000100000001301000001479032W93   HKYHK   005600390040
BI00B32W9    #4500188321    202203087157-7811-80             SEAL RUBBER              CCN000010000000010000FN00000000020220301000010000NNE   20220125152147W93 2C0C  00001000000000105000000182732W93   HKYHK   002700430014
BI00B32W9    @4500188321    202203087282-1148-30             CONNECTOR ASS'Y          CCN000000800000000800FN00000000020220301000000800NNE   20220125152153W93 3N0N  00000080000001171200001411632W93   HKYHK   005500360039
BI00B32W9    @4500188321    202203087123-2825                HOUSING                  CCN000006000000006000FN00000000020220301000006000NNE   20220125152153W93 3F0F  00000600000000958800001136432W93   HKYHK   005500360039
BI00B32W9    4500188330     202203157116-4025                TERMINAL                 CCN000016000000016000FN00000000020220301000016000NNE   20220125152248W93 4P0P  00001600000000644800000975132W93   HKYHK   006400630017
BI00B32W9    4500188330     202203157116-1471                TERMINAL                 CCN000030000000030000FN00000000020220301000030000NNE   20220125152248W93 4P0P  00001500000000579000000867232W93   HKYHK   006400630015
BI00B32W9    4500188330     202203157126-8851-02             TERMINAL                 CCN000009000000009000FN00000000020220301000009000NNE   20220125152248W93 1P0P  00000900000000739800001025032W93   HKYHK   006400630015
BI00B32W9    4500188330     202203157114-4231-02             TERMINAL                 CCN000018000000018000FN00000000020220301000018000NNE   20220125152248W93 4P0P  00001800000000554400000848032W93   HKYHK   006400630015
BI00B32W9    4500188330     202203157222-7923-40             CONNECTOR                CCN000000600000000600FN00000000020220301000000600NNE   20220125152248W93 4N0N  00000060000000937000001123032W93   HKYHK   005500360039
BI00B32W9    4500188330     202203157222-7564-30             CONNECTOR                CCN000000500000000500FN00000000020220301000000500NNE   20220125152248W93 1N0N  00000050000000966500001125032W93   HKYHK   005500360039
BI00B32W9    4500188330     202203157158-3166-60             WIRE SEAL                CCN000040000000040000FN00000000020220301000040000NNE   20220125152248W93 1C0C  00004000000000104000000152432W93   HKYHK   002700430014
BI00B32W9    4500188345     202202157158-3006-90             RUBBER STOPPER           CCN000020000000020000FN00000000020220201000020000NNE   20220125152336W9  1C0C  00002000000000330600000386032W9    HKYHK   002700430014
BI00B32W9    4500188346     202203157116-4102-02             TERMINAL                 CCN000036000000036000FN00000000020220301000036000NNE   20220125152413W9  4P0P  00001200000000553200000841432W9    HKYHK   006400630015
BI00B32X5    TIB1048        202201247289-6547                HOUSING FEMALE ASS'Y     CCN000014400000014400FY00001440020220101000000000NNM00020220125134529X5  1N0N  00000240000001152000001362032X5    EPYNA-E 005500360039
BI00B32X5    TIB2006        202201247283-4855-40             CONNECTOR HOUSING        CCN000002400000002400FY00000240020220301000000000NNM00020220125134601X5  4N0N  00000240000001188400001400032X5    EPYNA-E 005600360039
BI00B32X5    TIB2007        202201277288-6547                CONNECTOR MALE ASS'Y     CCN000021750000021750FN00000000020220401000021750NNM00020220125134916X5  4N0N  00000075000001205300001340332X5    EPYNA-E 005400370024
BI00B32X5    TIB2007        202201277172-5403-30             SEALED PACKING           CCN000012000000012000FN00000000020220401000012000NNM00020220125134916X5  1C0C  00000400000000653600000701732X5    EPYNA-E 004300270014
BI00B32X5    TIB2007        202201277289-3342-30             HOUSING FEMALE ASS'Y     CCN000019200000019200FN00000000020220401000019200NNM00020220125134916X5  1N0N  00000240000000686400000901432X5    EPYNA-E 005500360039
BI00B32X5    #TIB2007       202201247158-3007-10             RUBBER STOPPER           CCN000240000000240000FY00024000020220401000000000NNM00020220125135130X5  2H0H  00002000000000308000000362732X5    EPYNA-E 002700430014
BI00B32X5    TIB2015        202207157289-3342                HOUSING FEMALE ASS'Y     CCN000026400000026400FN00000000020220501000026400NNMD0420220125164325X5  1N0N  00000240000000686400000901432X5    EPYNA-E 005500360039
BI00B32X5    TIB2015        202205277289-3342-30             HOUSING FEMALE ASS'Y     CCN000084000000084000FN00000000020220501000084000NNMD0420220125164420X5  1N0N  00000240000000686400000901432X5    EPYNA-E 005500360039
BI00B32X5    TIB2015        202203257289-3342-40             HOUSING FEMALE ASS'Y     CCN000004800000004800FN00000000020220501000004800NNMD0420220125164440X5  1N0N  00000240000000686400000901432X5    EPYNA-E 005500360039
BI00B32Y2    TAU1151        202201257289-3342-30             HOUSING FEMALE ASS'Y     CCN000016800000007200FY00000720020220201000000000NNE00020220125141301    1N0N  00000240000000686400000901432Y2    YUYUY   005500360039
BI00B32Y2    TAU1161        202201317116-4032                TERMINAL                 CCN000006000000006000FN00000000020220501000006000NNM00020220125141458    4P0P  00000600000000532800000818032Y2    YUYUY   006400630015
BI00B32Y2    TAU1161        202201317196-0510-02             TERMINAL                 CCN000072000000072000FN00000000020220501000072000NNM00020220125141508    4P0P  00002400000000871200001034632Y2    YUYUY   002800510028
BI00B32Y2    TAU1161        202201317282-4855                HOUSING MALE ASS'Y       CCN000001200000001200FN00000000020220501000001200NNM00020220125141520    4N0N  00000120000001063200001283232Y2    YUYUY   005500360039
BI00B32Y2    TAU1161        202201317288-3206                HOUSING MALE ASS'Y       CCN000008160000008160FN00000000020220501000008160NNM00020220125141434    1N0N  00000102000000387600000787632Y2    YUYUY   005500360039
BI00B32Y2    TAU1163        202201317158-3070-80             RUBBER STOPPER           CCN000040000000040000FN00000000020220501000040000NNE00020220125141446    1C0C  00004000000000276000000333332Y2    YUYUY   002700430014
BI00B32Y2    TAU1151        202201317289-3342-30             HOUSING FEMALE ASS'Y     CCN000007200000016800FN00000000020220201000016800NNE00020220125141301    1N0N  00000240000000686400000901432Y2    YUYUY   005500360039
BI00B32Y4    ITA32041       202201287158-3166-60             WIRE SEAL                CCN000360000000360000FN00000000020220401000360000NNE00020220125122731    1C0C  00004000000000104000000152432Y4    BIYAB-I 002700430014
BI00B32Y4    ITA32041       202201287158-3167-80             WIRE SEAL                CCN000280000000280000FN00000000020220401000280000NNE00020220125122731    1C0C  00002000000000048000000109032Y4    BIYAB-I 002700430014
BI00B32Y4    ITA32041       202201287158-3168-80             SEALED                   CCN000080000000080000FN00000000020220401000080000NNE00020220125122731    1C0C  00002000000000044000000092132Y4    BIYAB-I 004300260014
BI00B32Y4    ITA32041       202201287158-3169-40             SEALING PLUG             CCN000068000000080000FN00000000020220401000080000NNE00020220125122731    1C0C  00004000000000156000000204132Y4    BIYAB-I 004300260014
