BI00B32B6    W72014         202203041801W003970              IVSSH 0.5F Y             CCN000003600000003600FN00000000020220501000003600NNE   20220125112041B6  1W    00000180000000625000000000032B6    AXARNE-M000000000000AW322002
BI00B32B6    @W72014        20220304181B09039H7              CAVSAS 0.5X1 GY/W        CCN000000800000000800FN00000000020220501000000800NNE   20220125112035B6  1W    00000040000002263300000000032B6    AXARNE-M000000000000AW322001
BI00B32B6    @W72015        20220311181B09039H7              CAVSAS 0.5X1 GY/W        CCN000004000000004000FN00000000020220601000004000NNE   20220125112850B6  1W    00000040000002263300000000032B6    AXARNE-M000000000000AW422005
BI00B32DE    @TT1114        20220128181E50028ZZ              AVSSCS-S 0.5FX3 DGY      CCN000000250000000250FN00000000020211101000000250NNM30 20220125154712    1W    00000025000003265000000000032DE    TVYEV-TV000000000000VX21A022
BI00B32G7    @JW2203B MW    20220224181AD2002ZZ              CIVUSAS-S 0.35X2 B       CCN000003600000003600FN00000000020220301000003600NNE   20220125141954    1W    00000045000001713700000000032G7    JIJAI   000000000000JN222002
BI00B32G7    @JW2203B MW    20220224181AD2008ZZ              CIVUSAS-S 0.5X2 B        CCN000003600000003600FN00000000020220301000003600NNE   20220125141954    1W    00000040000002028000000000032G7    JIJAI   000000000000JN222001
BI00B32G7    @JW2203B MW    20220224181E48060ZZ              CAVSAS-S 0.5X2 GY/V      CCN000000300000000300FN00000000020220301000000300NNE   20220125141954    1W    00000030000002561000000000032G7    JIJAI   000000000000JN222003
BI00B32G7    JW2203BMMW     202202171801W003930              IVSSH 0.5F B             CCN000003600000003600FN00000000020220301000003600NNE   20220125141955    1W    00000180000000625000000000032G7    JIJAI   000000000000JJ122001
BI00B32G7    JW2203BMMW     202202171801W003950              IVSSH 0.5F R             CCN000005400000005400FN00000000020220301000005400NNE   20220125141955    1W    00000180000000625000000000032G7    JIJAI   000000000000JJ122004
BI00B32G7    JW2203BMMW     202202171801W003960              IVSSH 0.5F G             CCN000001800000001800FN00000000020220301000001800NNE   20220125141955    1W    00000180000000625000000000032G7    JIJAI   000000000000JJ122002
BI00B32G7    JW2203BMMW     202202171801W003990              IVSSH 0.5F L             CCN000025200000025200FN00000000020220301000025200NNE   20220125141955    1W    00000180000000625000000000032G7    JIJAI   000000000000JJ122003
BI00B32G7    JW2203BMMW     202202171801W004030              IVSSH 0.75F B            CCN000005200000005200FN00000000020220301000005200NNE   20220125141955    1W    00000130000000882000000000032G7    JIJAI   000000000000JJ122005
BI00B32G7    JW2203BMMW     202202171801W004050              IVSSH 0.75F R            CCN000006500000006500FN00000000020220301000006500NNE   20220125141955    1W    00000130000000882000000000032G7    JIJAI   000000000000JJ122006
BI00B32G7    JW2203BMMW     202202171801W004070              IVSSH 0.75F Y            CCN000005200000005200FN00000000020220301000005200NNE   20220125141955    1W    00000130000000882000000000032G7    JIJAI   000000000000JJ122007
BI00B32G7    JW2203BMMW     202202171801W006930              IVSSH 0.35F B            CCN000005000000005000FN00000000020220301000005000NNE   20220125141955    1W    00000250000000452000000000032G7    JIJAI   000000000000JJ122008
BI00B32G7    JW2203BMMW     202202171801W006940              IVSSH 0.35F W            CCN000012500000012500FN00000000020220301000012500NNE   20220125141955    1W    00000250000000452000000000032G7    JIJAI   000000000000JJ122015
BI00B32G7    JW2203BMMW     202202171801W006941              IVSSH 0.35F GY           CCN000002500000002500FN00000000020220301000002500NNE   20220125141955    1W    00000250000000452000000000032G7    JIJAI   000000000000JJ122010
BI00B32G7    JW2203BMMW     202202171801W006960              IVSSH 0.35F G            CCN000005000000005000FN00000000020220301000005000NNE   20220125141955    1W    00000250000000452000000000032G7    JIJAI   000000000000JJ122009
BI00B32G7    JW2203BMMW     202202171801W006961              IVSSH 0.35F LG           CCN000002500000002500FN00000000020220301000002500NNE   20220125141955    1W    00000250000000452000000000032G7    JIJAI   000000000000JJ122012
BI00B32G7    JW2203BMMW     202202171801W006970              IVSSH 0.35F Y            CCN000015000000015000FN00000000020220301000015000NNE   20220125141955    1W    00000250000000452000000000032G7    JIJAI   000000000000JJ122016
BI00B32G7    JW2203BMMW     202202171801W006990              IVSSH 0.35F L            CCN000025000000025000FN00000000020220301000025000NNE   20220125141955    1W    00000250000000452000000000032G7    JIJAI   000000000000JJ122011
BI00B32G7    JW2203BMMW     202202171801W006991              IVSSH 0.35F SB           CCN000002500000002500FN00000000020220301000002500NNE   20220125141955    1W    00000250000000452000000000032G7    JIJAI   000000000000JJ122013
BI00B32G7    JW2203BMMW     202202171801W006992              IVSSH 0.35F V            CCN000015000000015000FN00000000020220301000015000NNE   20220125141955    1W    00000250000000452000000000032G7    JIJAI   000000000000JJ122014
BI00A32J1    @390770        20220125181AD2003ZZ              CIVUSAS-S 0.35X3 B       CCN000007700000007700FN00000000020220101000007700NNE   20220125080814    1W    00000035000002172100000000032J1    UKYEL-BL000000000000KF221001
BI00B32R7    R-TAP220030    2022021718018403930              CAVS 0.5 B               CCN000003000000003000FN00000000020220201000003000NNE   20220125105956    1W    00000150000000677000000000032R7    IVYCIC  000000000000SF122001
BI00B32R7    R-TAP220030    2022021718018403950              CAVS 0.5 R               CCN000003000000003000FN00000000020220201000003000NNE   20220125105956    1W    00000150000000677000000000032R7    IVYCIC  000000000000SF122002
BI00B32R7    R-TAP220031    2022021718018403950              CAVS 0.5 R               CCN000003000000003000FN00000000020220201000003000NNE   20220125105957    1W    00000150000000677000000000032R7    IVYCIC  000000000000SG122001
BI00B32R7    R-TAP220034    2022021718018403951              CAVS 0.5 O               CCN000003000000003000FN00000000020220201000003000NNE   20220125105957    1W    00000150000000677000000000032R7    IVYCIC  000000000000SI122003
BI00B32R7    R-TAP220034    2022021718018403960              CAVS 0.5 G               CCN000001500000001500FN00000000020220201000001500NNE   20220125105957    1W    00000150000000677000000000032R7    IVYCIC  000000000000SI122001
BI00B32R7    R-TAP220034    2022021718018403961              CAVS 0.5 LG              CCN000003000000003000FN00000000020220201000003000NNE   20220125105957    1W    00000150000000677000000000032R7    IVYCIC  000000000000SI122002
BI00B32R7    R-TAP220034    2022021718018403970              CAVS 0.5 Y               CCN000001500000001500FN00000000020220201000001500NNE   20220125105957    1W    00000150000000677000000000032R7    IVYCIC  000000000000SI122004
BI00B32R7    R-TAP220035    2022021718018403930              CAVS 0.5 B               CCN000004500000004500FN00000000020220201000004500NNE   20220125105958    1W    00000150000000677000000000032R7    IVYCIC  000000000000SM122001
BI00B32R7    R-TAP220035    2022021718018403940              CAVS 0.5 W               CCN000009000000009000FN00000000020220201000009000NNE   20220125105958    1W    00000150000000677000000000032R7    IVYCIC  000000000000SM122007
BI00B32R7    R-TAP220035    2022021718018403950              CAVS 0.5 R               CCN000003000000003000FN00000000020220201000003000NNE   20220125105958    1W    00000150000000677000000000032R7    IVYCIC  000000000000SM122006
BI00B32R7    R-TAP220035    2022021718018403951              CAVS 0.5 O               CCN000012000000012000FN00000000020220201000012000NNE   20220125105958    1W    00000150000000677000000000032R7    IVYCIC  000000000000SM122005
BI00B32R7    R-TAP220035    2022021718018403960              CAVS 0.5 G               CCN000004500000004500FN00000000020220201000004500NNE   20220125105958    1W    00000150000000677000000000032R7    IVYCIC  000000000000SM122002
BI00B32R7    R-TAP220035    2022021718018403961              CAVS 0.5 LG              CCN000003000000003000FN00000000020220201000003000NNE   20220125105958    1W    00000150000000677000000000032R7    IVYCIC  000000000000SM122004
BI00B32R7    R-TAP220035    2022021718018403970              CAVS 0.5 Y               CCN000015000000015000FN00000000020220201000015000NNE   20220125105958    1W    00000150000000677000000000032R7    IVYCIC  000000000000SM122008
BI00B32R7    R-TAP220035    2022021718018403990              CAVS 0.5 L               CCN000009000000009000FN00000000020220201000009000NNE   20220125105958    1W    00000150000000677000000000032R7    IVYCIC  000000000000SM122003
BI00B32R7    R-TAP220037    2022021718018403940              CAVS 0.5 W               CCN000006000000006000FN00000000020220201000006000NNE   20220125110000    1W    00000150000000677000000000032R7    IVYCIC  000000000000SN122005
BI00B32R7    R-TAP220037    2022021718018403951              CAVS 0.5 O               CCN000007500000007500FN00000000020220201000007500NNE   20220125110000    1W    00000150000000677000000000032R7    IVYCIC  000000000000SN122004
BI00B32R7    R-TAP220037    2022021718018403960              CAVS 0.5 G               CCN000003000000003000FN00000000020220201000003000NNE   20220125110000    1W    00000150000000677000000000032R7    IVYCIC  000000000000SN122001
BI00B32R7    R-TAP220037    2022021718018403961              CAVS 0.5 LG              CCN000003000000003000FN00000000020220201000003000NNE   20220125110000    1W    00000150000000677000000000032R7    IVYCIC  000000000000SN122003
BI00B32R7    R-TAP220037    2022021718018403970              CAVS 0.5 Y               CCN000013500000013500FN00000000020220201000013500NNE   20220125110000    1W    00000150000000677000000000032R7    IVYCIC  000000000000SN122006
BI00B32R7    R-TAP220037    2022021718018403990              CAVS 0.5 L               CCN000007500000007500FN00000000020220201000007500NNE   20220125110000    1W    00000150000000677000000000032R7    IVYCIC  000000000000SN122002
BI00B32U5    @DW2015        20220311181E48011ZZ              CAVSAS-S 0.3X1 GY/W      CCN000001500000001500FN00000000020220501000001500NNE   20220125113900U5  1W    00000050000001529500000000032U5    ASAMSD  000000000000AM422021
BI00B32W9    4500188259     2022021518000004553              AV 8 R/B                 CCN000000200000000200FN00000000020220201000000200NNE   20220125143824W93 1W    00000010000010466200000000032W93   HKYHK   000000000000ZB122003
BI00B32W9    4500188259     2022021518000004554              AV 8 R/W                 CCN000000400000000400FN00000000020220201000000400NNE   20220125143824W93 1W    00000010000010466200000000032W93   HKYHK   000000000000ZB122004
BI00B32W9    4500188259     2022021518009604459              AVS 5 R/L                CCN000000600000000600FN00000000020220201000000600NNE   20220125143824W93 1W    00000020000005981000000000032W93   HKYHK   000000000000ZB122005
BI00B32W9    4500188259     2022021518009604450              AVS 5 R                  CCN000000800000000800FN00000000020220201000000800NNE   20220125143824W93 1W    00000020000005981000000000032W93   HKYHK   000000000000ZB122008
BI00B32W9    4500188259     2022021518009604353              AVS 3 R/B                CCN000000400000000400FN00000000020220201000000400NNE   20220125143824W93 1W    00000040000003831600000000032W93   HKYHK   000000000000ZB122006
BI00B32W9    4500188259     2022021518009604434              AVS 5 B/W                CCN000000400000000400FN00000000020220201000000400NNE   20220125143824W93 1W    00000020000005981000000000032W93   HKYHK   000000000000ZB122007
BI00B32W9    4500188259     2022021518009604453              AVS 5 R/B                CCN000001200000001200FN00000000020220201000001200NNE   20220125143824W93 1W    00000020000005981000000000032W93   HKYHK   000000000000ZB122009
BI00B32W9    4500188259     20220215180D0203930              AVSSH 0.5F B             CCN000001500000001500FN00000000020220201000001500NNE   20220125143824W93 1W    00000150000000689000000000032W93   HKYHK   000000000000ZB122001
BI00B32W9    4500188259     20220215180D0203990              AVSSH 0.5F L             CCN000001500000001500FN00000000020220201000001500NNE   20220125143824W93 1W    00000150000000689000000000032W93   HKYHK   000000000000ZB122002
BI00B32W9    4500188259     2022021518018404073              CAVS 0.85 Y/B            CCN000001000000001000FN00000000020220201000001000NNE   20220125143824W93 1W    00000100000000965000000000032W93   HKYHK   000000000000ZB122012
BI00B32W9    4500188259     2022021518018404067              CAVS 0.85 G/Y            CCN000001000000001000FN00000000020220201000001000NNE   20220125143824W93 1W    00000100000000965000000000032W93   HKYHK   000000000000ZB122010
BI00B32W9    4500188259     2022021518018404000              CAVS 0.85 P/W            CCN000002000000002000FN00000000020220201000002000NNE   20220125143824W93 1W    00000100000000965000000000032W93   HKYHK   000000000000ZB122011
BI00B32W9    4500188438     2022021518009604035              AVS 0.85 B/R             CCN000001000000001000FN00000000020220201000001000NNE   20220125143825W93 1W    00000100000001167700000000032W93   HKYHK   000000000000ZC122006
BI00B32W9    4500188438     2022021518007703949              AVSS 0.5F W/L            CCN000001500000001500FN00000000020220201000001500NNE   20220125143825W93 1W    00000150000000674000000000032W93   HKYHK   000000000000ZC122002
BI00B32W9    4500188438     2022021518007704240              AVSS 2F W                CCN000000500000000500FN00000000020220201000000500NNE   20220125143825W93 1W    00000050000002126400000000032W93   HKYHK   000000000000ZC122005
BI00B32W9    4500188438     2022021518007704060              AVSS 0.75F G             CCN000001000000001000FN00000000020220201000001000NNE   20220125143825W93 1W    00000100000000943000000000032W93   HKYHK   000000000000ZC122003
BI00B32W9    4500188438     2022021518007704235              AVSS 2F B/R              CCN000000500000000500FN00000000020220201000000500NNE   20220125143825W93 1W    00000050000002126400000000032W93   HKYHK   000000000000ZC122004
BI00B32W9    4500188438     2022021518018404140              CAVS 1.25 W              CCN000000800000000800FN00000000020220201000000800NNE   20220125143825W93 1W    00000080000001378000000000032W93   HKYHK   000000000000ZC122008
BI00B32W9    4500188438     2022021518018404135              CAVS 1.25 B/R            CCN000000800000000800FN00000000020220201000000800NNE   20220125143825W93 1W    00000080000001378000000000032W93   HKYHK   000000000000ZC122007
BI00B32W9    4500188438     20220215180D0203967              AVSSH 0.5F G/Y           CCN000001500000001500FN00000000020220201000001500NNE   20220125143825W93 1W    00000150000000689000000000032W93   HKYHK   000000000000ZC122001
BI00B32X5    TWB2015        202203111801W003930              IVSSH 0.5F B             CCN000001800000001800FN00000000020220501000001800NNE   20220125131857X5  1W    00000180000000625000000000032X5    EPYNA-E 000000000000AE422014
BI00B32X5    TWB2015        202203111801W00395U              IVSSH 0.5F BE            CCN000001800000001800FN00000000020220501000001800NNE   20220125131857X5  1W    00000180000000625000000000032X5    EPYNA-E 000000000000AE422015
BI00B32X5    TWB2015        202203111801W003990              IVSSH 0.5F L             CCN000001800000001800FN00000000020220501000001800NNE   20220125131857X5  1W    00000180000000625000000000032X5    EPYNA-E 000000000000AE422016
BI00B32X5    TWB2015        202203111801W004052              IVSSH 0.75F P            CCN000001300000001300FN00000000020220501000001300NNE   20220125131857X5  1W    00000130000000882000000000032X5    EPYNA-E 000000000000AE422018
BI00B32X5    TWB2015        202203111801W004060              IVSSH 0.75F G            CCN000001300000001300FN00000000020220501000001300NNE   20220125131857X5  1W    00000130000000882000000000032X5    EPYNA-E 000000000000AE422017
BI00B32X5    TWB2015        202203111801W004070              IVSSH 0.75F Y            CCN000001300000001300FN00000000020220501000001300NNE   20220125131857X5  1W    00000130000000882000000000032X5    EPYNA-E 000000000000AE422020
BI00B32X5    TWB2015        202203111801W004092              IVSSH 0.75F V            CCN000002600000002600FN00000000020220501000002600NNE   20220125131857X5  1W    00000130000000882000000000032X5    EPYNA-E 000000000000AE422019
BI00B32X5    TWB2015        202203111801W006930              IVSSH 0.35F B            CCN000025000000025000FN00000000020220501000025000NNE   20220125131857X5  1W    00000250000000452000000000032X5    EPYNA-E 000000000000AE422021
BI00B32X5    TWB2015        202203111801W006940              IVSSH 0.35F W            CCN000010000000010000FN00000000020220501000010000NNE   20220125131857X5  1W    00000250000000452000000000032X5    EPYNA-E 000000000000AE422027
BI00B32X5    TWB2015        202203111801W006943              IVSSH 0.35F W/B          CCN000010000000010000FN00000000020220501000010000NNE   20220125131857X5  1W    00000250000000452000000000032X5    EPYNA-E 000000000000AE422028
BI00B32X5    TWB2015        202203111801W006950              IVSSH 0.35F R            CCN000020000000020000FN00000000020220501000020000NNE   20220125131857X5  1W    00000250000000452000000000032X5    EPYNA-E 000000000000AE422025
BI00B32X5    TWB2015        202203111801W006952              IVSSH 0.35F P            CCN000005000000005000FN00000000020220501000005000NNE   20220125131857X5  1W    00000250000000452000000000032X5    EPYNA-E 000000000000AE422024
BI00B32X5    TWB2015        202203111801W006970              IVSSH 0.35F Y            CCN000010000000010000FN00000000020220501000010000NNE   20220125131857X5  1W    00000250000000452000000000032X5    EPYNA-E 000000000000AE422029
BI00B32X5    TWB2015        202203111801W006980              IVSSH 0.35F BR           CCN000002500000002500FN00000000020220501000002500NNE   20220125131857X5  1W    00000250000000452000000000032X5    EPYNA-E 000000000000AE422022
BI00B32X5    TWB2015        202203111801W006990              IVSSH 0.35F L            CCN000002500000002500FN00000000020220501000002500NNE   20220125131857X5  1W    00000250000000452000000000032X5    EPYNA-E 000000000000AE422023
BI00B32X5    TWB2015        202203111801W006992              IVSSH 0.35F V            CCN000005000000005000FN00000000020220501000005000NNE   20220125131857X5  1W    00000250000000452000000000032X5    EPYNA-E 000000000000AE422026
