BI00B32DE    @TT2034        20220303181F21010ZZ              AVSSHCS-S 0.5FX2 B/W     CCN000000300000000000FY00000000020220301000000000NNM10 20220221153833    1W    00000030000002531400000000032DE    TVYEV-TV000000000000VT322025
BI00B32DE    TT2043         2022031018007704130              AVSS 1.25F B             CCN000000800000000800FN00000000020220401000000800NNM20 20220221160115    1W    00000080000001389000000000032DE    TVYEV-TV000000000000VT223057
BI00B32DE    TT2042         20220317180D0203735              AVSSH 0.3F B/R           CCN000002000000000000FY00000000020220401000000000NNM10 20220221145742    1W    00000200000000515000000000032DE    TVYEV-TV000000000000VT123018
BI00B32DE    TT2043         20220324180D0203792              AVSSH 0.3F V             CCN000002000000000000FY00000000020220401000000000NNM10 20220221151800    1W    00000200000000515000000000032DE    TVYEV-TV000000000000VT223032
BI00B32DE    TT2043         20220324180D0204092              AVSSH 0.75F V            CCN000001000000000000FY00000000020220401000000000NNM10 20220221151800    1W    00000100000000934000000000032DE    TVYEV-TV000000000000VT223041
BI00B32DE    TT2044         20220331180D0204135              AVSSH 1.25F B/R          CCN000000800000000000FY00000000020220401000000000NNM10 20220221152707    1W    00000080000001458000000000032DE    TVYEV-TV000000000000VT323038
BI00B32DE    @TT2041        20220310181E50000ZZ              AVSSCS-S 0.5FX1 DGY/BR   CCN000000800000000800FN00000000020220401000000800NNM20 20220221150653    1W    00000040000001909700000000032DE    TVYEV-TV000000000000VT422001
BI00B32DE    @TT2043        20220323181E50006ZZ              AVSSCS-S 0.5FX1 DGY/Y    CCN000002400000000000FY00000000020220401000000000NNM10 20220221151257    1W    00000040000001909700000000032DE    TVYEV-TV000000000000VT223004
BI00B32DE    @TT2044        20220331181E50006ZZ              AVSSCS-S 0.5FX1 DGY/Y    CCN000001200000000000FY00000000020220401000000000NNM10 20220221152506    1W    00000040000001909700000000032DE    TVYEV-TV000000000000VT323004
BI00B32DE    @TT2044        20220331181E50007ZZ              AVSSCS-S 0.5FX1 DGY/L    CCN000000800000000000FY00000000020220401000000000NNM10 20220221152506    1W    00000040000001909700000000032DE    TVYEV-TV000000000000VT323002
BI00B32DE    @TT2044        20220331181E50027ZZ              AVSSCS-S 0.5FX3 DGY/G    CCN000002750000000000FY00000000020220401000000000NNM10 20220221152506    1W    00000025000003265000000000032DE    TVYEV-TV000000000000VT323007
BI00B32DE    @TT204A        20220310181F21027ZZ              AVSSHCS-S 1.25FX2 B      CCN000005600000005600FN00000000020220401000005600NNE20 20220221161233    1W    00000020000004267300000000032DE    TVYEV-TV000000000000VR123001
BI00B32DE    @TT2043        20220324181E50006ZZ              AVSSCS-S 0.5FX1 DGY/Y    CCN000001600000001600FN00000000020220401000001600NNM20 20220221151436    1W    00000040000001909700000000032DE    TVYEV-TV000000000000VT223004
BI00B32DE    @TT2043        20220325181E50006ZZ              AVSSCS-S 0.5FX1 DGY/Y    CCN000000800000000000FY00000000020220401000000000NNM11 20220221151451    1W    00000040000001909700000000032DE    TVYEV-TV000000000000VT223004
BI00B32Q8    EW21113TMW     202202231801W003950              IVSSH 0.5F R             CCN000001800000001800FN00000000020211101000001800NNM30 20220221103104    1W    00000180000000625000000000032Q8    EMEMI   000000000000MT31B033
