BI00B1200    #2399T52106    202203037154-5597-30             CASSETTE R/B             CCN000141600000045600FN00000000020220301000045600NNMD0220220221135454    2F0F  0000008000000073600000095201200    YCYC    005500360039
BI00B1200    2399T52114     202202227288-6598-70             HOUSING MALE ASS'Y       CCN000007200000007200FN00000000020220301000007200NNM00020220221162832    4N0N  0000014400000107420000142921200    YCYC    005500360039
BI00B1200    2399T52113     202202227289-6868-30             SEALED ASSY FEMALE       CCN000010080000010080FN00000000020220301000010080NNM00020220221162849    4N0N  0000025200000083920000111921200    YCYC    005500360039
BI00B1200    H722E50008     202204287297-1861-30             HOUSING MALE ASS'Y       CCN000009000000009000FN00000000020220501000009000NNE   20220221122019    4N0N  0000015000000070220000082731200    YCYC    005400370024
BI00B1200    #Y022E50040    202204217154-5597-30             CASSETTE R/B             CCN000008000000008000FN00000000020220501000008000NNE   20220221122019    2F0F  0000008000000073600000095201200    YCYC    005500360039
BI00B1200    #Y022E50041    202204217289-2912-40             HOUSING FEMALE ASS'Y     CCN000004000000004000FN00000000020220501000004000NNE   20220221122019    2N0N  0000020000000080400000093101200    YCYC    005400370024
BI00B1200    8640T52201     202204077288-3329-30             HOUSING MALE             CCN000003000000003000FN00000000020220501000003000NNE   20220221122019    4N0N  0000015000000086610000101111200    YCYC    005400370024
BI00B1200    8640T52201     202204077288-3340-30             HOUSING MALE             CCN000001500000001500FN00000000020220501000001500NNE   20220221122019    4N0N  0000015000000086150000100641200    YCYC    005400370024
BI00B1200    8640T52201     202204077289-3342-30             HOUSING FEMALE ASS'Y     CCN000002400000002400FN00000000020220501000002400NNE   20220221122019    1N0N  0000024000000068640000090141200    YCYC    005500360039
BI00B1200    8640T52202     202205057288-3329-30             HOUSING MALE             CCN000003000000003000FN00000000020220501000003000NNE   20220221122019    4N0N  0000015000000086610000101111200    YCYC    005400370024
BI00B1200    8640T52202     202205057289-3342-30             HOUSING FEMALE ASS'Y     CCN000002400000002400FN00000000020220501000002400NNE   20220221122019    1N0N  0000024000000068640000090141200    YCYC    005500360039
BI00B1200    #2399T52106    202202247154-5597-30             CASSETTE R/B             CCN000096000000096000FN00000000020220301000096000NNMD0220220221140422    2F0F  0000008000000073600000095201200    YCYC    005500360039
BI00B32AF    #JTB2032       202202257158-3007-10             RUBBER STOPPER           CCN000020000000020000FN00000000020220301000020000NNM00020220221145725    2H0H  00002000000000308000000362732AF    HBYHVTB 002700430014
BI00B32CH    SJ22044HMW     202204077C89-6868-30             SEALED ASSY FEMALE       CCN000012600000012600FN00000000020220401000012600NNMD0420220221122019    4N0N  00000252000000839200001119232CH    SJSAMIJF005500360039
BI00B32CH    SJ22043HMW     202204077327-6870-30             MULTI FUSE               CCN000008928000008928FN00000000020220401000008928NNMD0420220221122019    4N0N  00000028800001015200001181132CH    SJSAMIJF005400370024
BI00B32CH    SJ22044HMW     202204217327-6870-30             MULTI FUSE               CCN000013536000013536FN00000000020220401000013536NNMD0420220221122019    4N0N  00000028800001015200001181132CH    SJSAMIJF005400370024
BI00B32CH    SJ22043HMW     202204077327-6880-30             MULTI FUSE               CCN000006336000006336FN00000000020220401000006336NNMD0420220221122019    4N0N  00000028800001012600001178532CH    SJSAMIJF005400370024
BI00B32CH    SJ22044HMW     202204217327-6880-30             MULTI FUSE               CCN000012960000012960FN00000000020220401000012960NNMD0420220221122019    4N0N  00000028800001012600001178532CH    SJSAMIJF005400370024
BI00B32CH    SJ22042HMW     202203317327-6884-30             MULTI FUSE               CCN000003168000003168FN00000000020220401000003168NNMD0420220221122019    4N0N  00000028800000988900001154832CH    SJSAMIJF005400370024
BI00B32CH    SJ22043HMW     202204217327-6884-30             MULTI FUSE               CCN000027072000027072FN00000000020220401000027072NNMD0420220221122019    4N0N  00000028800000988900001154832CH    SJSAMIJF005400370024
BI00B32CH    SJ22044HMW     202204217327-6884-30             MULTI FUSE               CCN000020736000010656FN00000000020220401000010656NNMD0420220221122019    4N0N  00000028800000988900001154832CH    SJSAMIJF005400370024
BI00B32CH    SJ22041HMW     202203107327-6939-30             MULTI FUSE               CCN000000864000000864FN00000000020220401000000864NNMD0420220221122019    4N00  00000028800000992200001158132CH    SJSAMIJF005400370024
BI00B32CH    SJ22042HMW     202203177327-6939-30             MULTI FUSE               CCN000000864000000864FN00000000020220401000000864NNMD0420220221122019    4N00  00000028800000992200001158132CH    SJSAMIJF005400370024
BI00B32CH    SJ22043HMW     202203247327-6939-30             MULTI FUSE               CCN000000864000000864FN00000000020220401000000864NNMD0420220221122019    4N00  00000028800000992200001158132CH    SJSAMIJF005400370024
BI00B32CH    SJ22044HMW     202203317327-6939-30             MULTI FUSE               CCN000000288000000288FN00000000020220401000000288NNMD0420220221122019    4N00  00000028800000992200001158132CH    SJSAMIJF005400370024
BI00B32CH    SJ22041HMW     202203107327-6941-30             MULTI FUSE               CCN000000864000000864FN00000000020220401000000864NNMD0420220221122019    4N00  00000028800001014400001180332CH    SJSAMIJF005400370024
BI00B32CH    SJ22042HMW     202203177327-6941-30             MULTI FUSE               CCN000000864000000864FN00000000020220401000000864NNMD0420220221122019    4N00  00000028800001014400001180332CH    SJSAMIJF005400370024
BI00B32CH    SJ22044HMW     202203317327-6941-30             MULTI FUSE               CCN000000288000000288FN00000000020220401000000288NNMD0420220221122019    4N00  00000028800001014400001180332CH    SJSAMIJF005400370024
BI00B32CH    SJ22042SMW     202203247288-3340-30             HOUSING MALE             CCN000006000000006000FN00000000020220401000006000NNMD0420220221122019    4N0N  00000150000000861500001006432CH    SJSAMIJF005400370024
BI00B32CH    SJ22041SMW     202203177289-6868-30             SEALED ASSY FEMALE       CCN000002520000002520FN00000000020220401000002520NNMD0420220221122019    4N0N  00000252000000839200001119232CH    SJSAMIJF005500360039
BI00B32CH    SJ22044HMW     202204287327-6884-30             MULTI FUSE               CCN000010080000010080FN00000000020220401000010080NNMD0420220221122019    4N0N  00000028800000988900001154832CH    SJSAMIJF005400370024
BI00B32CH    SJ2204A MW     202203177287-9234                JOINT CONNECTOR          CCN000009600000009600FN00000000020220401000009600NNE   20220221145336    4N0N  00000960000000893800001184832CH    SJSAMIJF005500360039
BI00B32CH    SJ2204ADMW     202203177286-4097                CONNECTOR MALE ASS'Y     CCN000001600000001600FN00000000020220401000001600NNE   20220221145353    1N0N  00000160000000768000000978032CH    SJSAMIJF005500360039
BI00B32CH    SJ2204AHMW     202203177327-6937-30             MULTI FUSE               CCN000000576000000576FN00000000020220401000000576NNE   20220221145411    4N0N  00000028800001013600001179532CH    SJSAMIJF005400370024
BI00B32CJ    #JQN2032       202202257172-5629-80             RUBBER STOPPER           CCN000040000000040000FN00000000020220301000040000NNM00020220221160807    2H0H  00002000000000060000000111132CJ    QNYHVQN 004300270014
BI00B32CJ    #JQN2032       202203047172-5630-40             RUBBER STOPPER           CCN000020000000020000FN00000000020220301000020000NNM00020220221160826    2H0H  00002000000000044000000095132CJ    QNYHVQN 004300270014
BI00B32DA    SBT2204C       202203177283-5830                CONNECTOR                CCN000030000000012000FN00000000020220401000012000NNMD0220220221122019    1N47  00000600000000954000001104032DA    GBYIPLGB005500360039
BI00B32DA    SBT2204C       202203107283-5845                CONNECTOR HOUSING        CCN000018000000006000FN00000000020220401000006000NNMQ0220220221122019    1N0N  00000600000000444000000606332DA    GBYIPLGB005400370024
BI00B32DA    SBT2204C       202203177283-5830-30             CONNECTOR                CCN000012000000012000FN00000000020220401000012000NNMD0220220221122019    1N0N  00000600000000954000001104032DA    GBYIPLGB005500360039
BI00B32DA    SBT2204C       202204287286-3885-40             CONNECTOR MALE ASS'Y     CCN000013050000006000FN00000000020220401000006000NNMD0220220221122019    1N0N  00000120000000910600001130632DA    GBYIPLGB005500360039
BI00B32DA    SBT2204C       202203247283-5830                CONNECTOR                CCN000018000000018000FN00000000020220401000018000NNMD0220220221122019    1N47  00000600000000954000001104032DA    GBYIPLGB005500360039
BI00B32DA    SBT2204C       202203177283-5845                CONNECTOR HOUSING        CCN000006000000006000FN00000000020220401000006000NNMD0220220221122019    1N0N  00000600000000444000000606332DA    GBYIPLGB005400370024
BI00B32DA    SBT2204C       202203317283-5845                CONNECTOR HOUSING        CCN000006000000006000FN00000000020220401000006000NNMD0220220221122019    1N0N  00000600000000444000000606332DA    GBYIPLGB005400370024
BI00B32DA    SBT2204C       202205057286-3885-40             CONNECTOR MALE ASS'Y     CCN000007200000007200FN00000000020220401000007200NNMD0220220221122019    1N0N  00000120000000910600001130632DA    GBYIPLGB005500360039
BI00B32DG    #RP2043A       202203247189-3297                HOUSING FEMALE           CCN000004000000004000FN00000000020220401000004000NNE   20220221145434    2F0F  00000400000000893200001029032DG    BFSAIBF 005400370024
BI00B32DG    #RP2043A       202203247183-0521                HOUSING                  CCN000004800000004800FN00000000020220401000004800NNE   20220221145434    2F0F  00000480000001367500001585032DG    BFSAIBF 005500360039
BI00B32DG    #RP2043A       202203247183-0522                HOUSING                  CCN000002400000002400FN00000000020220401000002400NNE   20220221145434    2F0F  00000240000000951000001230032DG    BFSAIBF 005500360039
BI00A32D1    DFTC2151       202202177289-3342-90             HOUSING FEMALE ASS'Y     CCN000002400000002400FY00000240020211201000000000NNM00020220221141443    1N0N  00000240000000686400000901432D1    TOYOT-K 005500360039
BI00B32D1    DFTC2214       202202147289-3342-30             HOUSING FEMALE ASS'Y     CCN000093600000045600FY00004560020220401000000000NNM00020220221160951    1N0N  00000240000000686400000901432D1    TOYOT-K 005500360039
BI00A32D1    DFTC2214       202202157289-3342-40             HOUSING FEMALE ASS'Y     CCN000012000000012000FY00001200020220401000000000NNM00020220221141538    1N0N  00000240000000686400000901432D1    TOYOT-K 005500360039
BI00A32D1    DFTC2215       202202177289-3342                HOUSING FEMALE ASS'Y     CCN000016800000016800FY00001680020220401000000000NNM00020220221141741    1N0N  00000240000000686400000901432D1    TOYOT-K 005500360039
BI00A32D1    DFTC2215       202202177289-3342-90             HOUSING FEMALE ASS'Y     CCN000002400000002400FY00000240020220401000000000NNM00020220221141741    1N0N  00000240000000686400000901432D1    TOYOT-K 005500360039
BI00A32D1    DFTC2215       202202177289-6547                HOUSING FEMALE ASS'Y     CCN000004800000004800FY00000480020220401000000000NNM00020220221141741    1N0N  00000240000001152000001362032D1    TOYOT-K 005500360039
BI00B32D1    DFTC2219       202202247296-1025-02             TERMINAL ALUMINIUM       CCN000018000000018000FN00000000020220501000018000NNMD0020220221131937    4P0P  00001800000000635400000920632D1    TOYOT-K 006400630015
BI00B32D1    DFTC2214       202202227289-3342-30             HOUSING FEMALE ASS'Y     CCN000048000000048000FN00000000020220401000048000NNM00020220221160951    1N0N  00000240000000686400000901432D1    TOYOT-K 005500360039
BI00A32D2    #DGTC2207      202202247172-5629-80             RUBBER STOPPER           PCN000760000000760000FN00000000020220201000760000NNMD0420220221152301    2H0H  00002000000000060000000111132D2    TGYOT-G 004300270014
BI00A32D2    DGTC2207       202203037288-6547                CONNECTOR MALE ASS'Y     CCN000003000000006000FN00000000020220201000006000NNMD0420220221152512    4N0N  00000075000001205300001340332D2    TGYOT-G 005400370024
BI00B32D2    DGTC2207       202203107288-6547                CONNECTOR MALE ASS'Y     CCN000003000000000000FY00000000020220201000000000NNMD0420220221152512    4N0N  00000075000001205300001340332D2    TGYOT-G 005400370024
BI00A32D2    DGTC2212       202203087288-6547                CONNECTOR MALE ASS'Y     CCN000021750000010500FN00000000020220301000010500NNMD0420220221152816    4N0N  00000075000001205300001340332D2    TGYOT-G 005400370024
BI00B32D2    DGTC2212       202204217288-6547                CONNECTOR MALE ASS'Y     CCN000004500000000750FN00000000020220301000000750NNMD0420220221152809    4N0N  00000075000001205300001340332D2    TGYOT-G 005400370024
BI00B32D2    DGTC2212       202204287288-6547                CONNECTOR MALE ASS'Y     CCN000003750000000000FY00000000020220301000000000NNMD0420220221152809    4N0N  00000075000001205300001340332D2    TGYOT-G 005400370024
BI00A32D2    DGTC2218       202202247289-3342-40             HOUSING FEMALE ASS'Y     CCN000014400000014400FN00000000020220501000014400NNMM0020220221145814    1N0N  00000240000000686400000901432D2    TGYOT-G 005500360039
BI00A32D2    DGTC2219       202203047289-3342-40             HOUSING FEMALE ASS'Y     CCN000019200000019200FN00000000020220501000019200NNMD0020220221145824    1N0N  00000240000000686400000901432D2    TGYOT-G 005500360039
BI00B32EJ    T200111P02     202202177158-3070-80             RUBBER STOPPER           CCN000120000000120000FY00012000020220201000000000NNED0220220221141858EJ  1C0C  00004000000000276000000333332EJ    EJYKBO  002700430014
BI00B32EJ    T200111P01     202202177158-3070-80             RUBBER STOPPER           CCN000040000000040000FY00004000020220201000000000NNED0220220221141921EJ  1C0C  00004000000000276000000333332EJ    EJYKBO  002700430014
BI00B32EJ    T220117P01     202202177158-3169-40             SEALING PLUG             CCN001040000001040000FY00104000020220201000000000NNED0220220221141952EJ  1C0C  00004000000000156000000204132EJ    EJYKBO  004300260014
BI00A32EJ    T220120P01     202202247116-4101-02             TERMINAL                 CCN000012000000012000FN00000000020220301000012000NNEM0020220221162323EJ  4P0P  00001200000000582000000876232EJ    EJYKBO  006400630015
BI00A32EJ    T220120P01     202202247116-4122-02             TERMINAL                 CCN000027000000027000FN00000000020220301000027000NNEM0020220221162440EJ  4P0P  00000450000000656600000950232EJ    EJYKBO  006400630015
BI00A32EJ    T220120P01     202202247158-3167-61             WIRE SEAL                CCN000020000000020000FN00000000020220301000020000NNEM0020220221162504EJ  1C0C  00002000000000048000000096432EJ    EJYKBO  004300270014
BI00A32EJ    T220126P01     202202247116-4124-02             TERMINAL                 CCN000012000000012000FN00000000020220301000012000NNEM0020220221162646EJ  4P0P  00000300000000459900000753532EJ    EJYKBO  006400630015
BI00A32EJ    T220126P01     202202247196-1461-06             TERMINAL FEMALE          CCN000048000000048000FN00000000020220301000048000NNEM0020220221162832EJ  4P0P  00002400000000386400000692932EJ    EJYKBO  006400630015
BI00B32EJ    T220126P01     202203037116-4122-02             TERMINAL                 CCN000036000000018000FN00000000020220301000018000NNEQ0020220221162553EJ  4P0P  00000450000000656600000950232EJ    EJYKBO  006400630015
BI00A32EJ    T220126P01     202202247158-3168-80             SEALED                   CCN000040000000040000FN00000000020220301000040000NNEM0020220221162750EJ  1C0C  00002000000000044000000092132EJ    EJYKBO  004300260014
BI00A32EJ    T220126P01     202202247158-3167-61             WIRE SEAL                CCN000100000000100000FN00000000020220301000100000NNEM0020220221162724EJ  1C0C  00002000000000048000000096432EJ    EJYKBO  004300270014
BI00A32EJ    T220210P01     202202247196-1461-06             TERMINAL FEMALE          CCN000024000000024000FN00000000020220301000024000NNEM0020220221162907EJ  4P0P  00002400000000386400000692932EJ    EJYKBO  006400630015
BI00A32EJ    T220210P01     202202247158-3167-61             WIRE SEAL                CCN000020000000020000FN00000000020220301000020000NNEM0020220221162933EJ  1C0C  00002000000000048000000096432EJ    EJYKBO  004300270014
BI00A32EJ    T220214P03     202202247116-4037                TERMINAL                 CCN000006000000006000FN00000000020220301000006000NNEM0020220221163106EJ  4P0P  00000600000000600000000894232EJ    EJYKBO  006400630015
BI00A32EJ    T220214P03     202202247158-3070-80             RUBBER STOPPER           CCN000040000000040000FN00000000020220301000040000NNEM0020220221163132EJ  1C0C  00004000000000276000000333332EJ    EJYKBO  002700430014
BI00B32EJ    T220214P03     202203317158-3167-61             WIRE SEAL                CCN000120000000100000FN00000000020220301000100000NNEQ0020220221163205EJ  1C0C  00002000000000048000000096432EJ    EJYKBO  004300270014
BI00B32EJ    T220218P01     202203317158-3166-60             WIRE SEAL                CCN000040000000040000FN00000000020220301000040000NNE   20220221122019EJ  1C0C  00004000000000104000000152432EJ    EJYKBO  002700430014
BI00B32EJ    T220218P01     202203317116-4022                TERMINAL                 CCN000040500000040500FN00000000020220301000040500NNE   20220221122019EJ  4P0P  00001350000000618300000903532EJ    EJYKBO  006400630015
BI00B32EJ    T220218P01     202203317116-4121-02             TERMINAL                 CCN000045000000045000FN00000000020220301000045000NNE   20220221122019EJ  4P0P  00000450000000618800000912432EJ    EJYKBO  006400630015
BI00B32EJ    T220218P01     202203317116-4122-02             TERMINAL                 CCN000090000000090000FN00000000020220301000090000NNE   20220221122019EJ  4P0P  00000450000000656600000950232EJ    EJYKBO  006400630015
BI00B32EJ    T220218P02     202203317158-3166-60             WIRE SEAL                CCN000040000000040000FN00000000020220301000040000NNE   20220221122019EJ  1C0C  00004000000000104000000152432EJ    EJYKBO  002700430014
BI00B32EJ    T220218P02     202203317116-4022                TERMINAL                 CCN000027000000027000FN00000000020220301000027000NNE   20220221122019EJ  4P0P  00001350000000618300000903532EJ    EJYKBO  006400630015
BI00B32EJ    T220218P02     202203317116-4122-02             TERMINAL                 CCN000022500000022500FN00000000020220301000022500NNE   20220221122019EJ  4P0P  00000450000000656600000950232EJ    EJYKBO  006400630015
BI00B32EJ    T220218P02     202203317116-5751-02             TERMINAL                 CCN000012000000012000FN00000000020220301000012000NNE   20220221122019EJ  4P0P  00001200000000379200000664432EJ    EJYKBO  006400630015
BI00B32EJ    T220218P02     202203317158-3070-80             RUBBER STOPPER           CCN000080000000080000FN00000000020220301000080000NNE   20220221122019EJ  1C0C  00004000000000276000000333332EJ    EJYKBO  002700430014
BI00B32EJ    T220218P02     202203317283-7028-30             CONNECTOR                CCN000003000000003000FN00000000020220301000003000NNE   20220221122019EJ  4N0N  00000300000001452000001681332EJ    EJYKBO  005600390040
BI00B32EJ    #T220218P02    202203317123-6423-30             CONNECTOR                CCN000010000000010000FN00000000020220301000010000NNE   20220221122019EJ  2F0F  00000200000001002000001167632EJ    EJYKBO  005600390023
BI00A32EJ    T220126P01     202202247116-4122-02             TERMINAL                 CCN000018000000018000FN00000000020220301000018000NNEM0020220221162559EJ  4P0P  00000450000000656600000950232EJ    EJYKBO  006400630015
BI00A32EJ    T220214P03     202202247158-3167-61             WIRE SEAL                CCN000020000000020000FN00000000020220301000020000NNEM0020220221163211EJ  1C0C  00002000000000048000000096432EJ    EJYKBO  004300270014
BI00B32H2    #TIJ2032       202202257172-5629-80             RUBBER STOPPER           CCN000380000000380000FN00000000020220301000380000NNM00020220221161103    2H0H  00002000000000060000000111132H2    HVYHV   004300270014
BI00B32H2    #TIJ2032       202203047172-5630-40             RUBBER STOPPER           CCN000100000000100000FN00000000020220301000100000NNM00020220221161122    2H0H  00002000000000044000000095132H2    HVYHV   004300270014
BI00B32H2    #TIJ204D       202203257189-2978-30             HOUSING FEMALE           CCN000001500000001500FN00000000020220401000001500NNE   20220221122019    2F0F  00000150000000966900001096932H2    HVYHV   005400370024
BI00B32H2    #QA-22-C007    202202257198-4980-30             HOUSING FEMALE           PNY000002718000002718FN00000000020220201000002718NNE00020220221122019    2F0F  00000120000000840000000921032H2    HVYHV   005400370024
BI00B32J1    390814         202202257114-1475                TERMINAL                 CCN000013500000013500FN00000000020220201000013500NNM00020220221150241    4P0P  00001350000000480600000774232J1    UKYEL-BL006400630015
BI00B32J1    390814         202202257114-6041                TERMINAL                 CCN000028800000028800FN00000000020220201000028800NNM00020220221150230    4P0P  00000360000000580700000824232J1    UKYEL-BL006400630015
BI00B32J1    390814         202202257116-4020                TERMINAL                 CCN000067500000067500FN00000000020220201000067500NNM00020220221150218    4P0P  00001350000000513000000798232J1    UKYEL-BL006400630015
BI00B32J1    390814         202202257196-0104-02             TERMINAL                 CCN000038000000038000FN00000000020220201000038000NNM00020220221150205    4P0P  00003800000000570000000956432J1    UKYEL-BL006400630017
BI00B32J1    390814         202202257196-1462-02             TERMINAL FEMALE          CCN000084000000084000FN00000000020220201000084000NNM00020220221150149    4P0P  00002100000000352800000638032J1    UKYEL-BL006400630015
BI00B32J1    390814         202202257282-5574-10             CONNECTOR                CCN000014400000014400FN00000000020220201000014400NNM00020220221150135    4N0N  00000080000001235000001423032J1    UKYEL-BL005600390040
BI00B32J1    390814         202202257282-6448-40             CONNECTOR                CCN000004000000004000FN00000000020220201000004000NNM00020220221150258    4N0N  00000080000000887000001152732J1    UKYEL-BL005600390040
BI00B32J1    390814         202202257283-1040                CONNECTOR                CCN000004000000004000FN00000000020220201000004000NNM00020220221150112    4N0N  00000200000000396000000670032J1    UKYEL-BL005600390040
BI00B32J1    390814         202202257283-6388-40             CONNECTOR                CCN000006000000006000FN00000000020220201000006000NNM00020220221150059    4N0N  00000200000001029000001173532J1    UKYEL-BL005500360039
BI00B32J1    390814         202202257289-4696-30             HOUSING FEMALE ASS'Y     CCN000004000000004000FN00000000020220201000004000NNM00020220221145947    4N0N  00000200000000913400001055432J1    UKYEL-BL005400370024
BI00B32J1    390814         202202257298-1865-30             HOUSING FEMALE ASS'Y     CCN000026400000026400FN00000000020220201000026400NNM00020220221150000    4N0N  00000240000001003200001204532J1    UKYEL-BL005500360039
BI00B32J1    390814         202202257298-1869-30             HOUSING FEMALE ASS'Y     CCN000021600000021600FN00000000020220201000021600NNM00020220221155408    4N0N  00000120000000737000000939832J1    UKYEL-BL005500360039
BI00B32J1    390814         202202257298-2278-30             HOUSING FEMALE ASS'Y     CCN000024000000024000FN00000000020220201000024000NNM00020220221150032    4N0N  00000240000001091700001295432J1    UKYEL-BL005500360039
BI00B32J1    390814         202202257298-2508-30             HOUSING FEMALE ASS'Y     CCN000001200000001200FN00000000020220201000001200NNM00020220221150046    4N0N  00000120000000822000001005032J1    UKYEL-BL005500360039
BI00A32J1    391054         202202227298-1869-30             HOUSING FEMALE ASS'Y     CCN000006000000006000FN00000000020220201000006000NNE00020220221152511    4N0N  00000120000000737000000939832J1    UKYEL-BL005500360039
BI00B32J1    391358         202205097298-1187-30             SHUNT RING ASSEMBLY      CCN000080000000040000FN00000000020220301000040000NNMD0220220221154532    4N0N  00001000000000647000000769532J1    UKYEL-BL005400370024
BI00B32J1    391358         202204047298-1187-30             SHUNT RING ASSEMBLY      CCN000040000000040000FN00000000020220301000040000NNMD0220220221154545    4N0N  00001000000000647000000769532J1    UKYEL-BL005400370024
BI00B32M3    SM22034 MW     202202247116-5750-02             TERMINAL                 CCN000015000000015000FN00000000020220301000015000NNM00020220221122019    4P0P  00001500000000457500000742732M3    SASAMI  006400630015
BI00A32M3    SM22034EMW     202202237289-7213-30             HOUSING FEMALE ASS'Y     CCN000000240000000240FN00000000020220301000000240NNMM0020220221130932    4N0N  00000024000001352800001667832M3    SASAMI  005500360039
BI00B32M3    SM22042 MW     202203107116-5750-02             TERMINAL                 CCN000045000000030000FN00000000020220401000030000NNMQ0020220221122019    4P0P  00001500000000457500000742732M3    SASAMI  006400630015
BI00A32M3    #SM22042 MW    202202237183-2414                CONNECTOR HOUSING        CCN000004800000004800FN00000000020220401000004800NNMM0020220221143111    2F0F  00000480000000779200001061032M3    SASAMI  005500360039
BI00B32M3    SM2203C MW     202203107116-4025                TERMINAL                 CCN000032000000032000FN00000000020220301000032000NNE   20220221122019    4P0P  00001600000000644800000975132M3    SASAMI  006400630017
BI00B32M3    #SM2203C MW    202203107186-8845                HOUSING MALE             CCN000003000000003000FN00000000020220301000003000NNE   20220221122019    2F0F  00000300000000690000000801532M3    SASAMI  005400370024
BI00B32M3    SM2203CEMW     202203107196-0648-02             TERMINAL                 CCN000015000000015000FN00000000020220301000015000NNE   20220221122019    4P0P  00001500000000355500000689732M3    SASAMI  006400630015
BI00B32M3    SM2203CEMW     202203107289-7212-30             HOUSING FEMALE ASS'Y     CCN000003120000003120FN00000000020220301000003120NNE   20220221122019    4N0N  00000024000001388400001593432M3    SASAMI  005500360039
BI00B32M3    SM2203CEMW     202203107289-7213-30             HOUSING FEMALE ASS'Y     CCN000000240000000240FN00000000020220301000000240NNE   20220221122019    4N0N  00000024000001352800001667832M3    SASAMI  005500360039
BI00B32M3    #SM2203CEMW    202203107174-1315-30             SEALED COVER             CCN000001600000001600FN00000000020220301000001600NNE   20220221122019    2F0F  00000080000000782000000902032M3    SASAMI  005500360039
BI00A32M3    SM22042 MW     202202237116-5750-02             TERMINAL                 CCN000015000000015000FN00000000020220401000015000NNMM0020220221130932    4P0P  00001500000000457500000742732M3    SASAMI  006400630015
BI00B32N1    NST2116C-1     202203107282-1248-30             HOUSING SUB ASSEMBLY     CCN000003000000003000FN00000000020220401000003000NNMD0720220221122019    1N0N  00000060000001167000001372032N1    TAYIPL  005500360039
BI00B32N1    NST2116C       202203107282-1248                HOUSING SUB ASSEMBLY     CCN000012000000012000FN00000000020220401000012000NNMD0720220221122019    1N0N  00000060000001167000001372032N1    TAYIPL  005500360039
BI00B32N1    NST2116C       202203107282-6568-40             CONNECTOR                CCN000003000000003000FN00000000020220401000003000NNMD0720220221122019    4N0N  00000100000001206000001370732N1    TAYIPL  005500360039
BI00B32N1    NST2116B       202203107282-1248-30             HOUSING SUB ASSEMBLY     CCN000003000000003000FN00000000020220401000003000NNMD0720220221122019    1N0N  00000060000001167000001372032N1    TAYIPL  005500360039
BI00B32N2    2152103772     202202187158-3006-90             RUBBER STOPPER           CCN000020000000020000FY00002000020220401000000000NNM00020220221142031    1C0C  00002000000000330600000386032N2    YWYIPLTC002700430014
BI00B32Q8    #EU21124TMW    202203017289-4200-30             HOUSING FEMALE ASS'Y     CCN000058000000038000FN00000000020211201000038000NNMD0420220221171145    2N0N  00000200000000926000001021032Q8    EMEMI   005400370024
BI00A32Q8    #EU2203FTMW    202203017172-5630-40             RUBBER STOPPER           PCN000340000000340000FN00000000020220301000340000NNE00020220221164827    2H0H  00002000000000044000000095132Q8    EMEMI   004300270014
BI00B32Q8    EU2204BNMW     202203167283-7526-60             CONNECTOR HOUSING        CCN000001960000001960FN00000000020220401000001960NNED0720220221122019    4N0N  00000196000000989800001248632Q8    EMEMI   005500360039
BI00B32Q8    EU2204DTMW     202204207287-1917-30             CONNECTOR FEMALE         CCN000002400000002400FN00000000020220401000002400NNED0220220221122019    4N0N  00000240000001060800001312532Q8    EMEMI   005500360039
BI00A32Q8    #EU21124TMW    202203017289-4200-30             HOUSING FEMALE ASS'Y     CCN000020000000020000FN00000000020211201000020000NNMM0020220221171153    2N0N  00000200000000926000001021032Q8    EMEMI   005400370024
BI00B32R7    R-TAP220081    202203037116-4031                TERMINAL                 CCN000007500000007500FN00000000020220301000007500NNE   20220221122019    4P0P  00000750000000619500000904732R7    IVYCIC  006400630015
BI00B32R7    #R-TAP220081   202203037186-8845-60             HOUSING MALE             CCN000006000000006000FN00000000020220301000006000NNE   20220221122019    2F0F  00000300000000690000000801532R7    IVYCIC  005400370024
BI00B32U9    TP0388S        202203177298-1186-40             SQUIB SUB ASS'Y          CCN000020000000020000FN00000000020220401000020000NNE   20220221140245U9  4N0N  00001000000000650000000774532U9    YNYNA-E 005400370024
BI00B32U9    #TP0388S       202203177157-3790-90             WIRE SEAL                CCN000020000000020000FN00000000020220401000020000NNE   20220221140242U9  2C0C  00002000000000176000000232732U9    YNYNA-E 002700430014
BI00B32U9    TPA216         202203177114-4030                TERMINAL                 CCN000010500000010500FN00000000020220401000010500NNM   20220221141123U9  4P0P  00001050000000926100001254732U9    YNYNA-E 006400630017
BI00B32U9    TPA216         202203177116-4037                TERMINAL                 CCN000006000000006000FN00000000020220401000006000NNM   20220221141123U9  4P0P  00000600000000600000000894232U9    YNYNA-E 006400630015
BI00B32U9    TPA216         202203177288-6547                CONNECTOR MALE ASS'Y     CCN000000750000000750FN00000000020220401000000750NNM   20220221141123U9  4N0N  00000075000001205300001340332U9    YNYNA-E 005400370024
BI00B32U9    TPA216         202203177289-0269                HOUSING SUB ASSEMBLY     CCN000001600000001600FN00000000020220401000001600NNM   20220221141123U9  1N0N  00000160000001002100001234532U9    YNYNA-E 005500360039
BI00B32U9    TPA216         202203177116-2951-02             TERMINAL                 CCN000032400000032400FN00000000020220401000032400NNM   20220221141123U9  4P0P  00000540000000817600001111832U9    YNYNA-E 006400630015
BI00B32U9    TPA216         202203177158-3006-90             RUBBER STOPPER           CCN000060000000060000FN00000000020220401000060000NNM   20220221141123U9  1C0C  00002000000000330600000386032U9    YNYNA-E 002700430014
BI00B32U9    TPA216         202203177158-3166-60             WIRE SEAL                CCN000680000000680000FN00000000020220401000680000NNM   20220221141123U9  1C0C  00004000000000104000000152432U9    YNYNA-E 002700430014
BI00B32U9    TPA216         202203177158-3169-40             SEALING PLUG             CCN000280000000280000FN00000000020220401000280000NNM   20220221141123U9  1C0C  00004000000000156000000204132U9    YNYNA-E 004300260014
BI00B32U9    TPA216         202203177222-4220-30             CONNECTOR                CCN000001500000001500FN00000000020220401000001500NNM   20220221141123U9  4N0N  00000075000001219000001384032U9    YNYNA-E 005600390040
BI00B32U9    TPA216         202203177282-5684-10             CONNECTOR                CCN000002400000002400FN00000000020220401000002400NNM   20220221141123U9  4N0N  00000120000001477000001656032U9    YNYNA-E 005600390040
BI00B32U9    TPA216         202203177282-7301-40             CONNECTOR                CCN000001500000001500FN00000000020220401000001500NNM   20220221141123U9  4N0N  00000150000001125000001497932U9    YNYNA-E 005500360039
BI00B32U9    TPA216         202203177283-5623-60             CONNECTOR                CCN000003200000003200FN00000000020220401000003200NNM   20220221141123U9  1N0N  00000160000001546000001846332U9    YNYNA-E 005600390040
BI00B32U9    TPA216         202203177289-4212-80             SEALED HOUSING ASS'Y     CCN000002000000002000FN00000000020220401000002000NNM   20220221141123U9  4N0N  00000200000000848600000978632U9    YNYNA-E 005400370024
BI00B32U9    TPA216         202203177298-1186-40             SQUIB SUB ASS'Y          CCN000010000000010000FN00000000020220401000010000NNM   20220221141123U9  4N0N  00001000000000650000000774532U9    YNYNA-E 005400370024
BI00B32U9    TPA216         202203177B58-3070-80             RUBBER STOPPER           CCN000080000000080000FN00000000020220401000080000NNM   20220221141123U9  1C0C  00004000000000276000000333032U9    YNYNA-E 004300270014
BI00B32U9    #TPA216        202203177135-6177                GROMMET                  CCN000001000000001000FN00000000020220401000001000NNM   20220221141117U9  2H0H  00000020000001139600001249632U9    YNYNA-E 005600390040
BI00B32U9    #TPA216        202203177157-3646                RUBBER STOPPER           CCN000040000000040000FN00000000020220401000040000NNM   20220221141117U9  2H0H  00002000000000184000000255232U9    YNYNA-E 002700430014
BI00B32U9    #TPA216        202203177157-3821                RUBBER STOPPER           CCN000020000000020000FN00000000020220401000020000NNM   20220221141117U9  2C0C  00002000000000176000000238032U9    YNYNA-E 002700430014
BI00B32U9    #TPA216        202203177157-3790-90             WIRE SEAL                CCN000020000000020000FN00000000020220401000020000NNM   20220221141117U9  2C0C  00002000000000176000000232732U9    YNYNA-E 002700430014
BI00B32U9    #TPA216        202203177158-3376-50             CONNECTOR WIRE SEAL      CCN000040000000040000FN00000000020220401000040000NNM   20220221141117U9  2C0C  00002000000000184000000240732U9    YNYNA-E 002700430014
BI00B32U9    #TPA216        202203177223-3615-30             CONNECTOR                CCN000002000000002000FN00000000020220401000002000NNM   20220221141117U9  2N0N  00000200000001118000001296732U9    YNYNA-E 005500360039
BI00B32U9    #TPA216        202203177282-6446-40             CONNECTOR                CCN000010500000010500FN00000000020220401000010500NNM   20220221141117U9  2N0N  00000150000001185000001368032U9    YNYNA-E 005500360039
BI00B32U9    #TPA216        202203177282-6457-40             CONNECTOR                CCN000000800000000800FN00000000020220401000000800NNM   20220221141117U9  2N0N  00000080000001137000001421332U9    YNYNA-E 005600390040
BI00B32U9    #TPA216        202203177282-8395-40             CONNECTOR                CCN000016000000016000FN00000000020220401000016000NNM   20220221141117U9  2N0N  00000100000001009000001188032U9    YNYNA-E 005500360039
BI00B32W4    4500183764     202203107289-9553-50             SEALED ASSY FEMALE       CCN000035280000017640FN00000000020220201000017640NNED0420220221122019W4N64N0N  00000294000001108100001520632W4N6  HJYHK-J 005500360039
BI00B32W4    4500189400     202205057289-6547                HOUSING FEMALE ASS'Y     CCN000014400000014400FN00000000020220401000014400NNED0420220221122019W4161N0N  00000240000001152000001362032W416  HJYHK   005500360039
BI00A32W4    4500189536     202206097283-5574-10             CONNECTOR                CCN000001600000001600FN00000000020220601000001600NNE   20220221122019W4804N0N  00000080000001235000001435232W480  HJYHK-J 005500360039
BI00A32W4    4500189550     202203177116-4122-02             TERMINAL                 CCN000009000000009000FN00000000020220301000009000NNE   20220221122019W4804P0P  00000450000000656600000950232W480  HJYHK-J 006400630015
BI00A32W4    4500189550     202203177116-4120-02             TERMINAL                 CCN000006000000006000FN00000000020220301000006000NNE   20220221122019W4804P0P  00000600000000780000001073632W480  HJYHK-J 006400630015
BI00A32W4    4500189555     202203107116-4103-02             TERMINAL                 CCN000012000000012000FN00000000020220301000012000NNE   20220221122019W4804P0P  00001200000000571200000859432W480  HJYHK-J 006400630015
BI00A32W4    #4500189555    202203107283-8123-40             CONNECTOR HOUSING        CCN000004000000004000FN00000000020220301000004000NNE   20220221122019W4802N0N  00000400000000380000000530032W480  HJYHK-J 005600390023
BI00A32W4    4500189559     202203107116-4124-02             TERMINAL                 CCN000003000000003000FN00000000020220301000003000NNED0720220221122019W4804P0P  00000300000000459900000753532W480  HJYHK-J 006400630015
BI00A32W4    #4500189561    202203107047-5344                RETAINER                 CCN000020000000020000FN00000000020220301000020000NNE   20220221122019W4802F0F  00001000000000870000001016032W480  HJYHK-J 005600390023
BI00A32W4    #4500189563    202203177123-6347                CONNECTOR HOUSING        CCN000003200000003200FN00000000020220301000003200NNE   20220221122019W4802F0F  00000160000000647000000904832W480  HJYHK-J 005500360039
BI00B32W4    4500189564     202204077116-2951-02             TERMINAL                 CCN000005400000005400FN00000000020220401000005400NNE   20220221122019W4D44P0P  00000540000000817600001111832W4D4  HJYHK-J 006400630015
BI00B32W4    4500189564     202204077116-1685-02             TERMINAL                 CCN000312000000312000FN00000000020220401000312000NNE   20220221122019W4D44P0P  00002400000000897600001065232W4D4  HJYHK-J 005100280028
BI00B32W4    4500189564     202204077196-0805-02             TERMINAL FEMALE          CCN000045000000045000FN00000000020220401000045000NNE   20220221122019W4D44P0P  00002250000000558000000843232W4D4  HJYHK-J 006400630015
BI00B32W4    4500189564     202204077288-6547                CONNECTOR MALE ASS'Y     CCN000003000000003000FN00000000020220401000003000NNE   20220221122019W4D44N0N  00000075000001205300001340332W4D4  HJYHK-J 005400370024
BI00B32W4    4500189564     202204077289-5000                HOUSING FEMALE ASS'Y     CCN000001216000001216FN00000000020220401000001216NNE   20220221122019W4D41N0N  00000030400000549000000759032W4D4  HJYHK-J 005400370024
BI00B32W4    4500189564     202204077288-5000                HOUSING MALE ASS'Y       CCN000001344000001344FN00000000020220401000001344NNE   20220221122019W4D41N0N  00000033600000825200001035232W4D4  HJYHK-J 005400370024
BI00B32W4    4500189564     202204077289-6868-30             SEALED ASSY FEMALE       CCN000010080000010080FN00000000020220401000010080NNE   20220221122019W4D44N0N  00000252000000839200001119232W4D4  HJYHK-J 005500360039
BI00B32W4    4500189564     202204077289-9553-50             SEALED ASSY FEMALE       CCN000023520000023520FN00000000020220401000023520NNE   20220221122019W4D44N0N  00000294000001108100001520632W4D4  HJYHK-J 005500360039
BI00B32W4    4500189564     202204077298-4094-10             HOUSING FEMALE ASS'Y     CCN000027040000027040FN00000000020220401000027040NNE   20220221122019W4D44N0N  00000338000001097400001358732W4D4  HJYHK-J 005400370024
BI00B32W4    4500189564     202204077172-5540-80             SEALED WIRE SEAL         CCN000040000000040000FN00000000020220401000040000NNE   20220221122019W4D41C0C  00002000000000186000000234432W4D4  HJYHK-J 004300270014
BI00B32W4    #4500189564    202204077174-1760-50             CAP                      CCN000027000000027000FN00000000020220401000027000NNE   20220221122019W4D42F0F  00000300000000813600000922632W4D4  HJYHK-J 005400370024
BI00B32W4    #4500189564    202204077174-1164                COVER                    CCN000001600000001600FN00000000020220401000001600NNE   20220221122019W4D42F0F  00000080000000592000000712032W4D4  HJYHK-J 005500360039
BI00B32W4    #4500189564    202204077158-3120-90             CONNECTOR WIRE SEAL      CCN000040000000040000FN00000000020220401000040000NNE   20220221122019W4D42C0C  00002000000000136000000194032W4D4  HJYHK-J 002700430014
BI00B32W4    4500189571     202203317116-4026                TERMINAL                 CCN000016000000016000FN00000000020220301000016000NNE   20220221122019W4374P0P  00001600000000664000000994332W437  HJYHK   006400630017
BI00B32W4    4500189571     202203317116-4102-02             TERMINAL                 CCN000036000000036000FN00000000020220301000036000NNE   20220221122019W4374P0P  00001200000000553200000841432W437  HJYHK   006400630015
BI00B32W4    4500189571     202203317116-5045-02             TERMINAL                 CCN000032000000032000FN00000000020220301000032000NNE   20220221122019W4374P0P  00001600000000678400001007132W437  HJYHK   006400630017
BI00B32W4    4500189572     202204077116-4028-08             TERMINAL FEMALE          CCN000016000000016000FN00000000020220401000016000NNE   20220221122019W4374P0P  00001600000000652800000981532W437  HJYHK   006400630017
BI00B32W4    4500189572     202204077116-4102-02             TERMINAL                 CCN000084000000084000FN00000000020220401000084000NNE   20220221122019W4374P0P  00001200000000553200000841432W437  HJYHK   006400630015
BI00B32W4    4500189572     202204077116-4103-02             TERMINAL                 CCN000036000000036000FN00000000020220401000036000NNE   20220221122019W4374P0P  00001200000000571200000859432W437  HJYHK   006400630015
BI00B32W4    4500189572     202204077116-4104-02             TERMINAL                 CCN000024000000024000FN00000000020220401000024000NNE   20220221122019W4374P0P  00001200000000580800000972432W437  HJYHK   006400630015
BI00B32W4    4500189572     202204077116-4120-02             TERMINAL                 CCN000006000000006000FN00000000020220401000006000NNE   20220221122019W4374P0P  00000600000000780000001073632W437  HJYHK   006400630015
BI00B32W4    4500189572     202204077116-4122-02             TERMINAL                 CCN000009000000009000FN00000000020220401000009000NNE   20220221122019W4374P0P  00000450000000656600000950232W437  HJYHK   006400630015
BI00B32W4    4500189572     202204077283-1968-30             CONNECTOR                CCN000002700000002700FN00000000020220401000002700NNE   20220221122019W4371N0N  00000090000001140000001318332W437  HJYHK   005600390040
BI00B32W4    #4500189572    202204077158-3004-40             RUBBER STOPPER           CCN000020000000020000FN00000000020220401000020000NNE   20220221122019W4372C0C  00002000000000234000000306332W437  HJYHK   002700430014
BI00B32W4    4500189583     202204077287-9323                UNSEALED HOUSING SUB     CCN000009600000009600FN00000000020220401000009600NNE   20220221122019W4D41N0N  00000240000000537600000690032W4D4  HJYHK-J 005600390023
BI00B32W4    4500189583     202204077289-6547                HOUSING FEMALE ASS'Y     CCN000004800000004800FN00000000020220401000004800NNE   20220221122019W4D41N0N  00000240000001152000001362032W4D4  HJYHK-J 005500360039
BI00B32W4    4500189583     202204077289-5000                HOUSING FEMALE ASS'Y     CCN000001216000001216FN00000000020220401000001216NNE   20220221122019W4D41N0N  00000030400000549000000759032W4D4  HJYHK-J 005400370024
BI00B32W4    4500189583     202204077288-5000                HOUSING MALE ASS'Y       CCN000001008000001008FN00000000020220401000001008NNE   20220221122019W4D41N0N  00000033600000825200001035232W4D4  HJYHK-J 005400370024
BI00B32W4    4500189583     202204077289-9553-50             SEALED ASSY FEMALE       CCN000070560000070560FN00000000020220401000070560NNE   20220221122019W4D44N0N  00000294000001108100001520632W4D4  HJYHK-J 005500360039
BI00B32W4    #4500189583    202204077174-1760-50             CAP                      CCN000045000000045000FN00000000020220401000045000NNE   20220221122019W4D42F0F  00000300000000813600000922632W4D4  HJYHK-J 005400370024
BI00B32W4    #4500189583    202204077174-1164                COVER                    CCN000000800000000800FN00000000020220401000000800NNE   20220221122019W4D42F0F  00000080000000592000000712032W4D4  HJYHK-J 005500360039
BI00B32W4    #4500189583    202204077189-2978-30             HOUSING FEMALE           CCN000004500000004500FN00000000020220401000004500NNE   20220221122019W4D42F0F  00000150000000966900001096932W4D4  HJYHK-J 005400370024
BI00B32W4    #4500189583    202204077158-3120-90             CONNECTOR WIRE SEAL      CCN000040000000040000FN00000000020220401000040000NNE   20220221122019W4D42C0C  00002000000000136000000194032W4D4  HJYHK-J 002700430014
BI00B32W4    4500189597     202204217158-3166-60             WIRE SEAL                CCN001000000001000000FN00000000020220401001000000NNE   20220221122019W4B71C0C  00004000000000104000000152432W4B7  HJYHK-J 002700430014
BI00B32W4    4500189597     202204217158-3169-40             SEALING PLUG             CCN001000000001000000FN00000000020220401001000000NNE   20220221122019W4B71C0C  00004000000000156000000204132W4B7  HJYHK-J 004300260014
BI00B32W4    4500189597     202204217158-3167-80             WIRE SEAL                CCN001000000001000000FN00000000020220401001000000NNE   20220221122019W4B71C0C  00002000000000048000000109032W4B7  HJYHK-J 002700430014
BI00B32W4    4500189597     202204217158-3168-80             SEALED                   CCN001000000001000000FN00000000020220401001000000NNE   20220221122019W4B71C0C  00002000000000044000000092132W4B7  HJYHK-J 004300260014
BI00B32W4    4500189598     202204217158-3167-80             WIRE SEAL                CCN001240000001240000FN00000000020220401001240000NNE   20220221122019W4B71C0C  00002000000000048000000109032W4B7  HJYHK-J 002700430014
BI00B32W4    4500189598     202204217158-3169-40             SEALING PLUG             CCN000160000000160000FN00000000020220401000160000NNE   20220221122019W4B71C0C  00004000000000156000000204132W4B7  HJYHK-J 004300260014
BI00B32W4    4500189610     202204077116-2951-02             TERMINAL                 CCN000010800000010800FN00000000020220401000010800NNE   20220221122019W4284P0P  00000540000000817600001111832W428  HJYHK   006400630015
BI00B32W4    #4500189610    202204077283-8397-40             CONNECTOR                CCN000003080000003080FN00000000020220401000003080NNE   20220221122019W4282N0N  00000154000001007000001222732W428  HJYHK   005600390023
BI00B32W4    #4500189610    202204077158-3374-90             CONNECTOR WIRE SEAL      CCN000060000000060000FN00000000020220401000060000NNE   20220221122019W4282H0H  00002000000000172000000229332W428  HJYHK   002700430014
BI00B32W4    4500189618     202205097283-5553-10             CONNECTOR                CCN000001000000001000FN00000000020220501000001000NNE   20220221122019W4184N0N  00000100000001374000001658032W418  HJYHK   005600390040
BI00A32W4    4500189658     202204287158-3169-40             SEALING PLUG             CCN000040000000040000FN00000000020220401000040000NNE   20220221122019W4D31C0C  00004000000000156000000204132W4D3  HJYHK-J 004300260014
BI00B32W4    4500189669     202203087158-3006-90             RUBBER STOPPER           CCN000020000000020000FN00000000020220301000020000NNE   20220221122019W42 1C0C  00002000000000330600000386032W42   HJYHK   002700430014
BI00B32W4    #4500189669    202203087157-7812                SEAL RUBBER              CCN000020000000020000FN00000000020220301000020000NNE   20220221122019W42 2C0C  00001000000000137000000202032W42   HJYHK   002700430014
BI00A32W4    4500183764     202202237289-9553-50             SEALED ASSY FEMALE       CCN000017640000017640FN00000000020220201000017640NNEM0020220221122019W4N64N0N  00000294000001108100001520632W4N6  HJYHK-J 005500360039
BI00A32W6    SW2112CQMW     202202247327-6874-30             MULTI FUSE               PCN000008928000008928FN00000000020211201000008928NNED0420220221144540    4N0N  00000028800000991400001157332W6    SYSYA-WJ005400370024
BI00B32W9    4500189560     202203087116-4231-02             TERMINAL                 CCN000026000000026000FN00000000020220301000026000NNE   20220221122019W93 4P0P  00002600000000683800001012532W93   HKYHK   006400630017
BI00B32W9    4500189577     202203087298-4094-10             HOUSING FEMALE ASS'Y     CCN000003380000003380FN00000000020220301000003380NNED0720220221122019W9  4N0N  00000338000001097400001358732W9    HKYHK   005400370024
BI00B32W9    4500189595     202203297283-1020                CONNECTOR                CCN000012000000012000FN00000000020220401000012000NNE   20220221122019W9  4N0N  00000600000000840000001049332W9    HKYHK   005600390040
BI00B32W9    4500189620     202203157158-3169-40             SEALING PLUG             CCN000040000000040000FN00000000020220301000040000NNE   20220221122019W9  1C0C  00004000000000156000000204132W9    HKYHK   004300260014
BI00B32W9    4500189623     202204057289-3342                HOUSING FEMALE ASS'Y     CCN000004800000004800FN00000000020220401000004800NNE   20220221122019W9  1N0N  00000240000000686400000901432W9    HKYHK   005500360039
BI00B32W9    4500189653     202203087287-7975-4W             SQUIB SUB ASS'Y          CCN000020000000020000FN00000000020220301000020000NNE   20220221122019W9  4N0N  00001000000000837000001017032W9    HKYHK   005400370024
BI00B32W9    4500189654     202204057287-7975-4W             SQUIB SUB ASS'Y          CCN000020000000020000FN00000000020220401000020000NNE   20220221122019W9  4N0N  00001000000000837000001017032W9    HKYHK   005400370024
BI00B32W9    #4500189656    202204197157-7812                SEAL RUBBER              CCN000200000000200000FN00000000020220401000200000NNE   20220221122019W9  2C0C  00001000000000137000000202032W9    HKYHK   002700430014
BI00B32W9    #4500189657    202203297157-7812                SEAL RUBBER              CCN000180000000180000FN00000000020220301000180000NNE   20220221122019W9  2C0C  00001000000000137000000202032W9    HKYHK   002700430014
BI00B32X5    TIB2006        202202257172-5403-30             SEALED PACKING           CCN000020000000020000FN00000000020220301000020000NNMM0020220221122019X5  1C0C  00000400000000653600000701732X5    EPYNA-E 004300270014
BI00B32X5    TIB2009        202202247288-6547                CONNECTOR MALE ASS'Y     CCN000003000000003000FN00000000020220401000003000NNM00020220221122019X5  4N0N  00000075000001205300001340332X5    EPYNA-E 005400370024
BI00B32Y2    TAU1161        202201207288-3206                HOUSING MALE ASS'Y       CCN000033660000009180FY00000918020220501000000000NNM00020220221160128    1N0N  00000102000000387600000787632Y2    YUYUY   005500360039
BI00B32Y2    TAU1161        202201177288-3206                HOUSING MALE ASS'Y       CCN000008160000008160FY00000816020220501000000000NNMD0220220221160115    1N0N  00000102000000387600000787632Y2    YUYUY   005500360039
BI00B32Y2    TAU1161        202201277288-3206                HOUSING MALE ASS'Y       CCN000008160000008160FY00000816020220501000000000NNMD0220220221160139    1N0N  00000102000000387600000787632Y2    YUYUY   005500360039
BI00B32Y2    TAU1161        202202287289-3342-30             HOUSING FEMALE ASS'Y     CCN000012000000012000FN00000000020220501000012000NNM00020220221161510    1N0N  00000240000000686400000901432Y2    YUYUY   005500360039
BI00B32Y2    TAU1171        202202287116-4231-02             TERMINAL                 CCN000026000000026000FN00000000020220601000026000NNM00020220221161648    4P0P  00002600000000683800001012532Y2    YUYUY   006400630017
BI00B32Y2    TAU1171        202202287158-3070-80             RUBBER STOPPER           CCN000040000000040000FN00000000020220601000040000NNM00020220221161648    1C0C  00004000000000276000000333332Y2    YUYUY   002700430014
BI00B32Y2    TAU1171        202202287196-0510-02             TERMINAL                 CCN000096000000096000FN00000000020220601000096000NNM00020220221161648    4P0P  00002400000000871200001034632Y2    YUYUY   002800510028
BI00B32Y2    TAU1171        202202287282-4855                HOUSING MALE ASS'Y       CCN000004450000004800FN00000000020220601000004800NNM00020220221161648    4N0N  00000120000001063200001283232Y2    YUYUY   005500360039
BI00B32Y2    TAU1171        202202217288-3206                HOUSING MALE ASS'Y       CCN000033660000008160FY00000816020220601000000000NNM00020220221160649    1N0N  00000102000000387600000787632Y2    YUYUY   005500360039
BI00B32Y2    TAU1171        202202287288-3206                HOUSING MALE ASS'Y       CCN000008160000009180FN00000000020220601000009180NNM00020220221160715    1N0N  00000102000000387600000787632Y2    YUYUY   005500360039
BI00B32Y2    #TAU1173       202203037158-3008-80             RUBBER STOPPER           CCN000040000000040000FN00000000020220601000040000NNED0020220221122019    2C0C  00002000000000288000000343032Y2    YUYUY   004300270014
BI00B32Y4    ITA32062       202203177158-3166-60             WIRE SEAL                CCN000040000000040000FN00000000020220601000040000NNE   20220221122019    1C0C  00004000000000104000000152432Y4    BIYAB-I 002700430014
BI00B32Y4    ITA32062       202203177158-3167-80             WIRE SEAL                CCN000040000000040000FN00000000020220601000040000NNE   20220221122019    1C0C  00002000000000048000000109032Y4    BIYAB-I 002700430014
BI00B32Y4    ITA32062       202203177158-3169-40             SEALING PLUG             CCN000052000000080000FN00000000020220601000080000NNE   20220221122019    1C0C  00004000000000156000000204132Y4    BIYAB-I 004300260014
BI00B32Y4    ITA32062       202203177282-5574-10             CONNECTOR                CCN000000800000000800FN00000000020220601000000800NNE   20220221122019    4N0N  00000080000001235000001423032Y4    BIYAB-I 005600390040
BI00B32Y6    #STAP32041     202203177172-5629-80             RUBBER STOPPER           CCN000100000000100000FN00000000020220401000100000NNM00020220221161329    2H0H  00002000000000060000000111132Y6    BSYBL-S 004300270014
