BI00B1200    8100T52308     202205267289-3342-30             HOUSING FEMALE ASS'Y     CCN000002400000002400FN00000000020220501000002400NNED0420220419130746    1N0N  0000024000000068640000090141200    YCYC    005500360039
BI00A1200    7360T52401     202205187289-3342-30             HOUSING FEMALE ASS'Y     CCN000019200000019200FN00000000020220501000019200NNEM0420220419160822    1N0N  0000024000000068640000090141200    YCYC    005500360039
BI00A1200    7360T52402     202205237289-3342-30             HOUSING FEMALE ASS'Y     CCN000033600000033600FN00000000020220601000033600NNMD0420220419160840    1N0N  0000024000000068640000090141200    YCYC    005500360039
BI00A1200    7360T52403     202206017289-3342-30             HOUSING FEMALE ASS'Y     CCN000033600000033600FN00000000020220601000033600NNMD0420220419160849    1N0N  0000024000000068640000090141200    YCYC    005500360039
BI00A1200    7360T52404     202206087289-3342-30             HOUSING FEMALE ASS'Y     CCN000033600000033600FN00000000020220601000033600NNMD0420220419160856    1N0N  0000024000000068640000090141200    YCYC    005500360039
BI00B1200    8100T52409     202206027289-3342-30             HOUSING FEMALE ASS'Y     CCN000002400000002400FN00000000020220601000002400NNMD0420220419130802    1N0N  0000024000000068640000090141200    YCYC    005500360039
BI00B1200    OHM-202204-01  20220428REEL 150-36              ALUMINUM REEL            PNN000000042000000042FN00000000020220501000000042NNED0720220419154548    4N0N  0000000030000075000000083201200    YCYC    005600540017
BI00B1200    OHM-202204-01  20220428REEL 275-42              ALUMINUM REEL            PNN000000068000000068FN00000000020220501000000068NNED0720220419154548    4N0N  0000000020000061200000069501200    YCYC    005600540017
BI00B32AG    XG22064LMW     202205277388-0314                CONNECTOR ASS'Y          CCN000001200000000000FY00000000020220601000000000NNMQ0820220419151901    4N0N  00000120000001038000001132332AG    XGXGY   005400370024
BI00B32AG    XG22071IMW     202206027388-0317-60             CONNECTOR ASS'Y          CCN000002400000000000FY00000000020220701000000000NNMQ0820220419152035    4N0N  00000120000001034400001129332AG    XGXGY   005400370024
BI00B32AG    XG22073KMW     202205207196-0104-02             TERMINAL                 CCN000038000000038000FN00000000020220701000038000NNMD0020220419140915    4P0P  00003800000000570000000956432AG    XGXGY   006400630017
BI00B32AG    XG22072KMW     202205207327-6469-3W             BATTERY FUSE             CCN000000096000000096FN00000000020220701000000096NNMD0020220419150215    4N0N  00000009600000832300001012332AG    XGXGY   005400370024
BI00B32AG    XG22073KMW     202205207327-6469-3W             BATTERY FUSE             CCN000000288000000288FN00000000020220701000000288NNMD0020220419150235    4N0N  00000009600000832300001012332AG    XGXGY   005400370024
BI00B32AG    XG22074KMW     202205207327-6469-3W             BATTERY FUSE             CCN000000288000000288FN00000000020220701000000288NNMD0020220419150336    4N0N  00000009600000832300001012332AG    XGXGY   005400370024
BI00B32AG    XG22072LMW     202205207283-1968-30             CONNECTOR                CCN000000900000000900FN00000000020220701000000900NNMD0020220419164116    1N0N  00000090000001140000001318332AG    XGXGY   005600390040
BI00B32AG    XG22071LMW     202206027283-5843                CONNECTOR                CCN000001500000000000FY00000000020220701000000000NNMQ0820220419145021    1N0N  00000150000000889000001132032AG    XGXGY   005600390040
BI00B32AG    XG22072LMW     202206107283-5843                CONNECTOR                CCN000001500000000000FY00000000020220701000000000NNMQ0820220419145053    1N0N  00000150000000889000001132032AG    XGXGY   005600390040
BI00B32AG    XG22074LMW     202206247283-5843                CONNECTOR                CCN000001500000000000FY00000000020220701000000000NNMQ0820220419145208    1N0N  00000150000000889000001132032AG    XGXGY   005600390040
BI00B32AG    XG22071LMW     202206027388-0314                CONNECTOR ASS'Y          CCN000002400000000000FY00000000020220701000000000NNMQ0820220419151917    4N0N  00000120000001038000001132332AG    XGXGY   005400370024
BI00B32AG    XG22072LMW     202206107388-0314                CONNECTOR ASS'Y          CCN000001200000000000FY00000000020220701000000000NNMQ0820220419151931    4N0N  00000120000001038000001132332AG    XGXGY   005400370024
BI00B32AG    XG22073LMW     202206177388-0314                CONNECTOR ASS'Y          CCN000001200000000000FY00000000020220701000000000NNMQ0820220419151946    4N0N  00000120000001038000001132332AG    XGXGY   005400370024
BI00B32AG    XG22074LMW     202206247388-0314                CONNECTOR ASS'Y          CCN000001200000000000FY00000000020220701000000000NNMQ0820220419152002    4N0N  00000120000001038000001132332AG    XGXGY   005400370024
BI00B32AG    XG22072NMW     202206107126-8854-02             TERMINAL                 CCN000007500000000000FY00000000020220701000000000NNMQ0820220419151746    4P0P  00000750000000604500000889732AG    XGXGY   006400630015
BI00B32AG    XG22073NMW     202206177126-8854-02             TERMINAL                 CCN000007500000000000FY00000000020220701000000000NNMQ0820220419151806    4P0P  00000750000000604500000889732AG    XGXGY   006400630015
BI00A32B1    A22025         202204277158-3166-60             WIRE SEAL                CCN000040000000040000FN00000000020220801000040000NNMM0020220419150225B1  1C0C  00004000000000104000000152432B1    AXARNE-M002700430014
BI00A32B1    A22025         202204277158-3168-80             SEALED                   CCN000040000000040000FN00000000020220801000040000NNMM0020220419150225B1  1C0C  00002000000000044000000092132B1    AXARNE-M004300260014
BI00A32B1    A22021A        202204277158-3166-60             WIRE SEAL                CCN000040000000040000FN00000000020220701000040000NNEM0020220419150259B1  1C0C  00004000000000104000000152432B1    AXARNE-M002700430014
BI00A32B6    TAP13C05B      202205057298-2280-30             HOUSING FEMALE ASS'Y     CCN000000800000001920FN00000000020220501000001920NNED0720220419162718B6  4N0N  00000192000001068000001216032B6    AXARNE-M005500360039
BI00B32CA    PTA32102       202208187289-3342                HOUSING FEMALE ASS'Y     CCN000036000000036000FN00000000020221001000036000NNED0420220419141533    1N0N  00000240000000686400000901432CA    YPYPY   005500360039
BI00B32CA    PTA32102       202208187289-3342-30             HOUSING FEMALE ASS'Y     CCN000043200000043200FN00000000020221001000043200NNED0420220419141556    1N0N  00000240000000686400000901432CA    YPYPY   005500360039
BI00B32CA    PTA32102       202208187289-3342-90             HOUSING FEMALE ASS'Y     CCN000012000000012000FN00000000020221001000012000NNED0420220419141556    1N0N  00000240000000686400000901432CA    YPYPY   005500360039
BI00B32CG    S220406-S      202206227283-9458-30             CONNECTOR                CCN000001600000001600FN00000000020220601000001600NNE   20220419121854    4N0N  00000020000000792000000984332CG    ASASIACO005600390023
BI00B32CG    S220406-S      202206227116-4120-02             TERMINAL                 CCN000012000000012000FN00000000020220601000012000NNE   20220419121854    4P0P  00000600000000780000001073632CG    ASASIACO006400630015
BI00B32CG    S220406-S      202206227114-4111-02             TERMINAL                 CCN000024000000024000FN00000000020220601000024000NNE   20220419121854    4P0P  00001200000000758400001087032CG    ASASIACO006400630017
BI00A32CJ    JQN2053        202204207327-6987-3W             BATTERY FUSE             CCN000001080000000720FN00000000020220501000000720NNMM0020220419121854    4N0N  00000007200000511300000711532CJ    QNYHVQN 005500360039
BI00B32DA    SBT2206        202204287286-3885-40             CONNECTOR MALE ASS'Y     CCN000049625000040800FN00000000020220601000040800NNMD0020220419143306    1N0N  00000120000000910600001130632DA    GBYIPLGB005500360039
BI00B32DA    SBT2206A       202207077286-3885-40             CONNECTOR MALE ASS'Y     CCN000049625000014400FN00000000020220601000014400NNMD0020220419143504    1N0N  00000120000000910600001130632DA    GBYIPLGB005500360039
BI00B32DA    SBT2206        202205267286-3885-40             CONNECTOR MALE ASS'Y     CCN000013200000009600FN00000000020220601000009600NNMD0020220419143306    1N0N  00000120000000910600001130632DA    GBYIPLGB005500360039
BI00B32DA    SBT2206        202207217286-3885-40             CONNECTOR MALE ASS'Y     CCN000012000000000000FY00000000020220601000000000NNMD0420220419143312    1N0N  00000120000000910600001130632DA    GBYIPLGB005500360039
BI00B32DA    SBT2206        202207277286-3885-40             CONNECTOR MALE ASS'Y     CCN000013200000000000FY00000000020220601000000000NNMD0420220419143312    1N0N  00000120000000910600001130632DA    GBYIPLGB005500360039
BI00B32DA    SBT2206A       202207147286-3885-40             CONNECTOR MALE ASS'Y     CCN000013200000014400FN00000000020220601000014400NNMD0020220419143504    1N0N  00000120000000910600001130632DA    GBYIPLGB005500360039
BI00B32DA    SBT2206A       202207217286-3885-40             CONNECTOR MALE ASS'Y     CCN000012000000014400FN00000000020220601000014400NNMD0020220419143504    1N0N  00000120000000910600001130632DA    GBYIPLGB005500360039
BI00B32DA    SBT2206A       202207277286-3885-40             CONNECTOR MALE ASS'Y     CCN000013200000007200FN00000000020220601000007200NNMD0020220419143504    1N0N  00000120000000910600001130632DA    GBYIPLGB005500360039
BI00A32D1    DFTC2221       202204207289-3342-30             HOUSING FEMALE ASS'Y     PCN000076800000076800FN00000000020220501000076800NNMD0420220419121854    1N0N  00000240000000686400000901432D1    TOYOT-K 005500360039
BI00A32D1    DFTC2224       202204207289-3342-30             HOUSING FEMALE ASS'Y     PCN000048000000048000FN00000000020220601000048000NNMD0020220419121854    1N0N  00000240000000686400000901432D1    TOYOT-K 005500360039
BI00A32D1    DFTC2226       202204287289-3342-30             HOUSING FEMALE ASS'Y     PCN000067200000067200FN00000000020220701000067200NNMD0020220419131347    1N0N  00000240000000686400000901432D1    TOYOT-K 005500360039
BI00B32D1    #DFTC2227      202205057183-2415-90             CONNECTOR HOUSING        CCN000004800000004800FN00000000020220701000004800NNMD0020220419162800    2F0F  00000480000000798200001091432D1    TOYOT-K 005500360039
BI00B32D9    #I21805        202204217158-3008-80             RUBBER STOPPER           CCN000180000000180000FN00000000020220501000180000NNMD0420220419164257    2C0C  00002000000000288000000343032D9    UEHESTO 004300270014
BI00B32D9    #I21905        202204217158-3008-80             RUBBER STOPPER           CCN000180000000180000FN00000000020220501000180000NNMD0420220419164306    2C0C  00002000000000288000000343032D9    UEHESTO 004300270014
BI00B32EJ    T220405P01     202205267158-3167-80             WIRE SEAL                CCN001220000001220000FN00000000020220501001220000NNED0320220419155500EJ  1C0C  00002000000000048000000109032EJ    EJYKBO  002700430014
BI00B32EJ    T220413P01     202205267158-3167-80             WIRE SEAL                CCN000320000000320000FN00000000020220501000320000NNED0120220419151954EJ  1C0C  00002000000000048000000109032EJ    EJYKBO  002700430014
BI00B32EJ    T220415P02     202206307283-5843                CONNECTOR                CCN000015000000015000FN00000000020220501000015000NNED0220220419154945EJ  1N0N  00000150000000889000001132032EJ    EJYKBO  005600390040
BI00B32G2    SA22061 MW     202205117289-3342                HOUSING FEMALE ASS'Y     CCN000016800000016800FN00000000020220601000016800NNMD0420220419121854    1N0N  00000240000000686400000901432G2    AISUAI  005500360039
BI00B32G2    SA22062 MW     202205187289-3342                HOUSING FEMALE ASS'Y     CCN000014400000014400FN00000000020220601000014400NNMD0420220419121854    1N0N  00000240000000686400000901432G2    AISUAI  005500360039
BI00B32G2    SA22063 MW     202205257289-3342                HOUSING FEMALE ASS'Y     CCN000009600000009600FN00000000020220601000009600NNMD0420220419121854    1N0N  00000240000000686400000901432G2    AISUAI  005500360039
BI00B32G2    SA22064 MW     202206017289-3342                HOUSING FEMALE ASS'Y     CCN000007200000007200FN00000000020220601000007200NNMD0420220419121854    1N0N  00000240000000686400000901432G2    AISUAI  005500360039
BI00B32G2    SA22061 MW     202205117289-3342-30             HOUSING FEMALE ASS'Y     CCN000050400000050400FN00000000020220601000050400NNMD0420220419121854    1N0N  00000240000000686400000901432G2    AISUAI  005500360039
BI00B32G2    SA22062 MW     202205187289-3342-30             HOUSING FEMALE ASS'Y     CCN000043200000043200FN00000000020220601000043200NNMD0420220419121854    1N0N  00000240000000686400000901432G2    AISUAI  005500360039
BI00B32G2    SA22063 MW     202205257289-3342-30             HOUSING FEMALE ASS'Y     CCN000036000000036000FN00000000020220601000036000NNMD0420220419121854    1N0N  00000240000000686400000901432G2    AISUAI  005500360039
BI00B32G2    SA22064 MW     202206017289-3342-30             HOUSING FEMALE ASS'Y     CCN000026400000026400FN00000000020220601000026400NNMD0420220419121854    1N0N  00000240000000686400000901432G2    AISUAI  005500360039
BI00B32H2    TIJ2054        202205067283-4576-30             HOUSING FEMALE ASS'Y     CCN000009600000004800FN00000000020220501000004800NNMQ0820220419145635    4N0N  00000480000000651300000871332H2    HVYHV   005500360039
BI00B32H2    TIJ2054        202205067283-5845-30             CONNECTOR HOUSING        CCN000006000000000000FY00000000020220501000000000NNMQ0820220419145802    1N0N  00000600000000444000000606332H2    HVYHV   005400370024
BI00B32H2    TIJ2054        202205067298-2278-30             HOUSING FEMALE ASS'Y     CCN000004800000000000FY00000000020220501000000000NNMQ0820220419152424    4N0N  00000240000001091700001295432H2    HVYHV   005500360039
BI00B32H2    #TIJ2054       202205067183-1616-30             CONNECTOR HOUSING        CCN000004800000000000FY00000000020220501000000000NNMQ0820220419152910    2F0F  00000240000000557500000837132H2    HVYHV   005500360039
BI00B32H2    TIJ205D        202205067283-4577-30             CONNECTOR HOUSING        CCN000009600000000000FY00000000020220501000000000NNEQ0820220419133847    4N0N  00000480000000916800001136832H2    HVYHV   005500360039
BI00B32H2    TIJ2064        202206027283-4576                HOUSING FEMALE ASS'Y     CCN000057600000038400FN00000000020220601000038400NNMQ0820220419145604    4N0N  00000480000000651300000871332H2    HVYHV   005500360039
BI00B32H2    TIJ2064        202206027283-4577-90             CONNECTOR HOUSING        CCN000004800000004800FN00000000020220601000004800NNMQ0020220419143055    4N0N  00000480000000916800001136832H2    HVYHV   005500360039
BI00B32H2    TIJ2062        202205207283-5845                CONNECTOR HOUSING        CCN000036000000024000FN00000000020220601000024000NNMQ0820220419145703    1N0N  00000600000000444000000606332H2    HVYHV   005400370024
BI00B32H2    TIJ2063        202205277283-5845                CONNECTOR HOUSING        CCN000042000000030000FN00000000020220601000030000NNMQ0820220419145737    1N0N  00000600000000444000000606332H2    HVYHV   005400370024
BI00B32H2    TIJ2061        202205137288-6547                CONNECTOR MALE ASS'Y     CCN000001500000000000FY00000000020220601000000000NNMQ0820220419133944    4N0N  00000075000001205300001340332H2    HVYHV   005400370024
BI00B32H2    TIJ2062        202205207388-2978-30             HOUSING MALE ASS'Y       CCN000000480000000000FY00000000020220601000000000NNMQ0820220419152507    1N0N  00000048000000742000001122032H2    HVYHV   005500360039
BI00B32H2    TIJ2063        202205277388-2978-30             HOUSING MALE ASS'Y       CCN000000480000000000FY00000000020220601000000000NNMQ0820220419152529    1N0N  00000048000000742000001122032H2    HVYHV   005500360039
BI00B32H2    #TIJ2063       202205277183-2413-40             CONNECTOR HOUSING        CCN000004800000000000FY00000000020220601000000000NNMQ0820220419143658    2F0F  00000480000000479000000761032H2    HVYHV   005500360039
BI00B32H2    #TIJ2064       202206027183-2413-40             CONNECTOR HOUSING        CCN000004800000000000FY00000000020220601000000000NNMQ0820220419143714    2F0F  00000480000000479000000761032H2    HVYHV   005500360039
BI00B32H2    #TIJ2063       202205277183-2416                HOUSING                  CCN000012000000009600FN00000000020220601000009600NNMQ0820220419152946    2F0F  00000240000001495200001771032H2    HVYHV   005500360039
BI00B32H2    #TIJ2063       202205277183-2511                HOUSING                  CCN000003200000001600FN00000000020220601000001600NNMQ0820220419153009    2F0F  00000160000000972200001242132H2    HVYHV   005500360039
BI00B32H2    #TIJ2064       202206027198-5394                HOUSING FEMALE           CCN000024000000009600FN00000000020220601000009600NNMQ0820220419143740    2F0F  00000480000000489700000688832H2    HVYHV   005500360039
BI00B32J1    393452         202205097158-3167-80             WIRE SEAL                CCN002640000002640000FN00000000020220501002640000NNMD0720220419151858    1C0C  00002000000000048000000109032J1    UKYEL-BL002700430014
BI00B32J1    393705         202205237158-3167-80             WIRE SEAL                CCN002640000002640000FN00000000020220501002640000NNMD0420220419151922    1C0C  00002000000000048000000109032J1    UKYEL-BL002700430014
BI00B32M1    TCV2061        202205127114-4729-08             TERMINAL                 CCN000030000000000000FY00000000020220601000000000NNMQ0820220419133124    4P0P  00003000000000522000000816232M1    VNYEV   006400630015
BI00B32M1    TCV2062        202205197289-3342                HOUSING FEMALE ASS'Y     CCN000112800000060000FN00000000020220601000060000NNMD0020220419155851    1N0N  00000240000000686400000901432M1    VNYEV   005500360039
BI00B32M1    TCV2063        202205267289-3342                HOUSING FEMALE ASS'Y     CCN000120000000060000FN00000000020220601000060000NNMD0020220419160119    1N0N  00000240000000686400000901432M1    VNYEV   005500360039
BI00B32M1    TCV2064        202206027289-3342                HOUSING FEMALE ASS'Y     CCN000098400000048000FN00000000020220601000048000NNMD0020220419160819    1N0N  00000240000000686400000901432M1    VNYEV   005500360039
BI00B32M1    TCV2061        202205197289-3342-30             HOUSING FEMALE ASS'Y     CCN000062400000024000FN00000000020220601000024000NNMD0020220419155749    1N0N  00000240000000686400000901432M1    VNYEV   005500360039
BI00B32M1    TCV2062        202205197289-3342-30             HOUSING FEMALE ASS'Y     CCN000055200000024000FN00000000020220601000024000NNMD0020220419160003    1N0N  00000240000000686400000901432M1    VNYEV   005500360039
BI00B32M1    TCV2063        202205267289-3342-30             HOUSING FEMALE ASS'Y     CCN000064800000043200FN00000000020220601000043200NNMD0020220419160710    1N0N  00000240000000686400000901432M1    VNYEV   005500360039
BI00B32M1    TCV2064        202206097289-3342-30             HOUSING FEMALE ASS'Y     CCN000064800000024000FN00000000020220601000024000NNMD0020220419160927    1N0N  00000240000000686400000901432M1    VNYEV   005500360039
BI00B32M1    TCV2061        202205127289-3342-30             HOUSING FEMALE ASS'Y     CCN000038400000038400FN00000000020220601000038400NNMD0020220419155803    1N0N  00000240000000686400000901432M1    VNYEV   005500360039
BI00B32M1    TCV2062        202205267289-3342                HOUSING FEMALE ASS'Y     CCN000052800000052800FN00000000020220601000052800NNMD0020220419155928    1N0N  00000240000000686400000901432M1    VNYEV   005500360039
BI00B32M1    TCV2062        202205267289-3342-30             HOUSING FEMALE ASS'Y     CCN000031200000031200FN00000000020220601000031200NNMD0020220419160026    1N0N  00000240000000686400000901432M1    VNYEV   005500360039
BI00B32M1    TCV2063        202206027289-3342                HOUSING FEMALE ASS'Y     CCN000060000000060000FN00000000020220601000060000NNMD0020220419160135    1N0N  00000240000000686400000901432M1    VNYEV   005500360039
BI00B32M1    TCV2063        202206027289-3342-30             HOUSING FEMALE ASS'Y     CCN000021600000021600FN00000000020220601000021600NNMD0020220419160737    1N0N  00000240000000686400000901432M1    VNYEV   005500360039
BI00B32M1    TCV2064        202206097289-3342                HOUSING FEMALE ASS'Y     CCN000050400000050400FN00000000020220601000050400NNMD0020220419160859    1N0N  00000240000000686400000901432M1    VNYEV   005500360039
BI00B32M1    TCV2064        202206027289-3342-30             HOUSING FEMALE ASS'Y     CCN000040800000040800FN00000000020220601000040800NNMD0020220419160943    1N0N  00000240000000686400000901432M1    VNYEV   005500360039
BI00B32M3    SM22061DMW     202205057289-3342-30             HOUSING FEMALE ASS'Y     CCN000012000000012000FN00000000020220601000012000NNMD0420220419121854    1N0N  00000240000000686400000901432M3    SASAMI  005500360039
BI00B32M3    SM22062DMW     202205127289-3342-30             HOUSING FEMALE ASS'Y     CCN000009600000009600FN00000000020220601000009600NNMD0420220419121854    1N0N  00000240000000686400000901432M3    SASAMI  005500360039
BI00B32M3    SM22063DMW     202205197289-3342-30             HOUSING FEMALE ASS'Y     CCN000004800000004800FN00000000020220601000004800NNMD0420220419121854    1N0N  00000240000000686400000901432M3    SASAMI  005500360039
BI00A32N3    NBT203 A4      202204207289-3342-30             HOUSING FEMALE ASS'Y     PCN000009600000009600FN00000000020220301000009600NNMD0420220419121854    1N0N  00000240000000686400000901432N3    ABYIPL-B005500360039
BI00A32N3    NBT203 A4      202205057289-3342-30             HOUSING FEMALE ASS'Y     PCN000009600000009600FN00000000020220301000009600NNMD0420220419121854    1N0N  00000240000000686400000901432N3    ABYIPL-B005500360039
BI00A32N3    NBT203 A4      202205127289-3342-30             HOUSING FEMALE ASS'Y     PCN000009600000009600FN00000000020220301000009600NNMD0420220419121854    1N0N  00000240000000686400000901432N3    ABYIPL-B005500360039
BI00A32N3    NBT203 A4      202205197289-3342-30             HOUSING FEMALE ASS'Y     PCN000009600000009600FN00000000020220301000009600NNMD0420220419121854    1N0N  00000240000000686400000901432N3    ABYIPL-B005500360039
BI00B32N3    NBT206 D       202205197116-3154-02             TERMINAL FEMALE          CCN001360000001377000FN00000000020220601001377000NNM   20220419121854    4P0P  00002700000000469800000755032N3    ABYIPL-B006400630015
BI00B32P8    #TAPI-2053     202204257172-5630-40             RUBBER STOPPER           CCN000200000000200000FN00000000020220501000200000NNM00020220419163740    2H0H  00002000000000044000000095132P8    YIYTM   004300270014
BI00B32P8    TAPI-206B1     202205257283-4855-40             CONNECTOR HOUSING        CCN000002000000002400FN00000000020220601000002400NNMQ0020220419161629    4N0N  00000240000001188400001400032P8    YIYTM   005600360039
BI00B32R7    R-TAP220175    202206237298-1186-40             SQUIB SUB ASS'Y          CCN000150000000150000FN00000000020220501000150000NNED0420220419141128    4N0N  00001000000000650000000774532R7    IVYCIC  005400370024
BI00B32R7    R-TAP220185    202206307298-1186-40             SQUIB SUB ASS'Y          CCN000080000000080000FN00000000020220501000080000NNED0420220419142323    4N0N  00001000000000650000000774532R7    IVYCIC  005400370024
BI00A32U5    DI2023         202204257289-3342                HOUSING FEMALE ASS'Y     PCN000016800000016800FN00000000020220701000016800NNMD0020220419141400U5  1N0N  00000240000000686400000901432U5    AMAMSD  005500360039
BI00B32U9    TPA223         202205127158-3166-60             WIRE SEAL                CCN001640000001640000FN00000000020220601001640000NNMD0420220419152113U9  1C0C  00004000000000104000000152432U9    YNYNA-E 002700430014
BI00B32U9    TP0396S        202205197298-1186-40             SQUIB SUB ASS'Y          CCN000030000000030000FN00000000020220601000030000NNED0420220419142349U9  4N0N  00001000000000650000000774532U9    YNYNA-E 005400370024
BI00B32U9    TPA224         202205197158-3166-60             WIRE SEAL                CCN001640000001640000FN00000000020220601001640000NNMD0420220419152125U9  1C0C  00004000000000104000000152432U9    YNYNA-E 002700430014
BI00B32U9    TPA224         202205197298-1187-30             SHUNT RING ASSEMBLY      CCN000010000000010000FN00000000020220601000010000NNMD0420220419142415U9  4N0N  00001000000000647000000769532U9    YNYNA-E 005400370024
BI00B32W4    #4500189183    202204287147-3642-30             CLIP                     CCN000090000000045000FN00000000020220401000045000NNED0320220419121854W4172F0F  00000300000000542000000721332W417  HJYHK   005600390040
BI00B32W4    4500192344     202207217158-3167-80             WIRE SEAL                CCN001000000001000000FN00000000020220601001000000NNED0420220419152025W4B71C0C  00002000000000048000000109032W4B7  HJYHK-J 002700430014
BI00B32W4    4500192344     202207077158-3168-80             SEALED                   CCN001000000001000000FN00000000020220601001000000NNED0420220419152041W4B71C0C  00002000000000044000000092132W4B7  HJYHK-J 004300260014
BI00B32W4    #4500189183    202205057147-3642-30             CLIP                     CCN000045000000045000FN00000000020220401000045000NNED0320220419121854W4172F0F  00000300000000542000000721332W417  HJYHK   005600390040
BI00A32W4    #4500192428    202205307283-8226-30             CONNECTOR                CCN000006000000006000FN00000000020220501000006000NNE   20220419121854W4422N0N  00000200000000820000001008032W442  HJYHK   005400370024
BI00A32W4    4500192429     202206067116-4112-02             TERMINAL                 CCN000006000000006000FN00000000020220601000006000NNE   20220419121854W4424P0P  00000600000000450000000738232W442  HJYHK   006400630015
BI00A32W4    4500192430     202206137116-4026                TERMINAL                 CCN000016000000016000FN00000000020220601000016000NNE   20220419121854W4424P0P  00001600000000664000000994332W442  HJYHK   006400630017
BI00A32W4    4500192430     202206137116-4100-02             TERMINAL                 CCN000015000000015000FN00000000020220601000015000NNE   20220419121854W4424P0P  00001500000000696000000990232W442  HJYHK   006400630015
BI00A32W4    4500192433     202206207158-3166-60             WIRE SEAL                CCN000040000000040000FN00000000020220601000040000NNE   20220419121854W4421C0C  00004000000000104000000152432W442  HJYHK   002700430014
BI00A32W4    4500192444     202206237158-3169-40             SEALING PLUG             CCN000040000000040000FN00000000020220601000040000NNE   20220419121854W4D31C0C  00004000000000156000000204132W4D3  HJYHK-J 004300260014
BI00B32W4    4500192450     202205037158-3167-80             WIRE SEAL                CCN000020000000020000FN00000000020220401000020000NNED0720220419121854W41 1C0C  00002000000000048000000109032W41   HJYHK   002700430014
BI00B32W4    4500192451     202205177158-3167-80             WIRE SEAL                CCN000080000000080000FN00000000020220501000080000NNE   20220419121854W41 1C0C  00002000000000048000000109032W41   HJYHK   002700430014
BI00B32W4    4500192454     202206027470-5237                J/B ASS'Y                CCN000000792000000792FN00000000020220601000000792NNE   20220419121854W4D41J0J  00000002400001320000001570032W4D4  HJYHK-J 005500360039
BI00B32W4    #4500192454    202206027283-5831                CONNECTOR                CCN000003000000003000FN00000000020220601000003000NNE   20220419121854W4D42N0N  00000300000000750000000880032W4D4  HJYHK-J 005400370024
BI00T32W4    4500192466     202206307114-1470                TERMINAL                 CCN000033000000033000FN00000000020220601000033000NNE   20220419121854W4K84P0P  00001650000000544500000838732W4K8  HJYHK-J 006400630015
BI00T32W4    4500192466     202206307283-5845                CONNECTOR HOUSING        CCN000006000000006000FN00000000020220601000006000NNE   20220419121854W4K81N0N  00000600000000444000000606332W4K8  HJYHK-J 005400370024
BI00T32W4    4500192466     202206307283-5846                HOUSING                  CCN000007500000007500FN00000000020220601000007500NNE   20220419121854W4K81N0N  00000150000000885000001102032W4K8  HJYHK-J 005600390040
BI00T32W4    4500192466     202206307287-1917                CONNECTOR FEMALE         CCN000019200000019200FN00000000020220601000019200NNE   20220419121854W4K84N0N  00000240000001060800001312532W4K8  HJYHK-J 005500360039
BI00T32W4    4500192466     202206307116-4231-02             TERMINAL                 CCN000052000000052000FN00000000020220601000052000NNE   20220419121854W4K84P0P  00002600000000683800001012532W4K8  HJYHK-J 006400630017
BI00T32W4    4500192466     202206307116-5041-02             TERMINAL                 CCN000360000000360000FN00000000020220601000360000NNE   20220419121854W4K84P0P  00001500000000583500000868732W4K8  HJYHK-J 006400630015
BI00T32W4    4500192466     202206307116-5044-02             TERMINAL                 CCN000032000000032000FN00000000020220601000032000NNE   20220419121854W4K84P0P  00001600000000641600000986332W4K8  HJYHK-J 006400630017
BI00T32W4    4500192466     202206307116-5045-02             TERMINAL                 CCN000096000000096000FN00000000020220601000096000NNE   20220419121854W4K84P0P  00001600000000678400001007132W4K8  HJYHK-J 006400630017
BI00T32W4    4500192466     202206307116-5750-02             TERMINAL                 CCN000210000000210000FN00000000020220601000210000NNE   20220419121854W4K84P0P  00001500000000457500000742732W4K8  HJYHK-J 006400630015
BI00T32W4    4500192466     202206307158-3006-90             RUBBER STOPPER           CCN000040000000040000FN00000000020220601000040000NNE   20220419121854W4K81C0C  00002000000000330600000386032W4K8  HJYHK-J 002700430014
BI00T32W4    4500192466     202206307183-2417-30             CONNECTOR HOUSING        CCN000004800000004800FN00000000020220601000004800NNE   20220419121854W4K84F0F  00000240000001137600001297932W4K8  HJYHK-J 005500360039
BI00T32W4    4500192466     202206307116-5752-02             TERMINAL                 CCN000021000000021000FN00000000020220601000021000NNE   20220419121854W4K84P0P  00002100000000571200000856432W4K8  HJYHK-J 006400630015
BI00T32W4    4500192466     202206307114-4624-02             TERMINAL                 CCN000024000000024000FN00000000020220601000024000NNE   20220419121854W4K84P0P  00002400000000895200001188832W4K8  HJYHK-J 006400630015
BI00T32W4    4500192466     202206307114-4728-02             TERMINAL                 CCN000060000000060000FN00000000020220601000060000NNE   20220419121854W4K84P0P  00003000000000510000000804232W4K8  HJYHK-J 006400630015
BI00T32W4    4500192466     202206307114-5753-02             TERMINAL                 CCN000027000000027000FN00000000020220601000027000NNE   20220419121854W4K84P0P  00002700000000847800001141432W4K8  HJYHK-J 006400630015
BI00T32W4    4500192466     202206307B96-0805-02             TERMINAL FEMALE          CCN000022500000022500FN00000000020220601000022500NNE   20220419121854W4K84P0P  00002250000000558000000843232W4K8  HJYHK-J 006400630015
BI00T32W4    4500192466     202206307158-3009-60             RUBBER STOPPER           CCN000040000000040000FN00000000020220601000040000NNE   20220419121854W4K81C0C  00002000000000338000000386232W4K8  HJYHK-J 002700430014
BI00T32W4    4500192466     202206307286-4097                CONNECTOR MALE ASS'Y     CCN000009600000009600FN00000000020220601000009600NNE   20220419121854W4K81N0N  00000160000000768000000978032W4K8  HJYHK-J 005500360039
BI00T32W4    4500192466     202206307286-1915                CONNECTOR SUB ASSY       CCN000004800000004800FN00000000020220601000004800NNE   20220419121854W4K84N0N  00000160000000965600001165632W4K8  HJYHK-J 005500360039
BI00T32W4    4500192466     202206307282-4855                HOUSING MALE ASS'Y       CCN000003600000003600FN00000000020220601000003600NNE   20220419121854W4K84N0N  00000120000001063200001283232W4K8  HJYHK-J 005500360039
BI00T32W4    #4500192466    202206307182-2410                CONNECTOR HOUSING        CCN000003600000003600FN00000000020220601000003600NNE   20220419121854W4K82F0F  00000120000000959800001245632W4K8  HJYHK-J 005500360039
BI00T32W4    #4500192466    202206307183-2413                CONNECTOR HOUSING        CCN000009600000009600FN00000000020220601000009600NNE   20220419121854W4K82F0F  00000480000000478100000760032W4K8  HJYHK-J 005500360039
BI00T32W4    #4500192466    202206307183-2414                CONNECTOR HOUSING        CCN000057600000057600FN00000000020220601000057600NNE   20220419121854W4K82F0F  00000480000000779200001061032W4K8  HJYHK-J 005500360039
BI00T32W4    #4500192466    202206307183-2418                CONNECTOR HOUSING        CCN000004800000004800FN00000000020220601000004800NNE   20220419121854W4K82F0F  00000480000000917000001477032W4K8  HJYHK-J 005500360039
BI00T32W4    #4500192466    202206307183-5068                CONNECTOR HOUSING        CCN000002000000002000FN00000000020220601000002000NNE   20220419121854W4K82F0F  00000200000001097600001267032W4K8  HJYHK-J 005600390040
BI00T32W4    #4500192466    202206307282-1030                CONNECTOR MALE ASS'Y     CCN000002000000002000FN00000000020220601000002000NNE   20220419121854W4K82N0N  00000100000000365000000487532W4K8  HJYHK-J 005400370024
BI00T32W4    #4500192466    202206307147-3642-30             CLIP                     CCN000015000000015000FN00000000020220601000015000NNE   20220419121854W4K82F0F  00000300000000542000000721332W4K8  HJYHK-J 005600390040
BI00T32W4    #4500192466    202206307158-3004-40             RUBBER STOPPER           CCN000040000000040000FN00000000020220601000040000NNE   20220419121854W4K82C0C  00002000000000234000000306332W4K8  HJYHK-J 002700430014
BI00T32W4    #4500192466    202206307158-3003-90             RUBBER STOPPER           CCN000020000000020000FN00000000020220601000020000NNE   20220419121854W4K82C0C  00002000000000250000000306032W4K8  HJYHK-J 002700430014
BI00T32W4    #4500192466    202206307035-5731                GROMMET                  CCN000001000000001000FN00000000020220601000001000NNE   20220419121854W4K82H0H  00000050000000808000000918032W4K8  HJYHK-J 005600390040
BI00T32W4    @4500192466    202206307183-2510                HOUSING                  CCN000012000000012000FN00000000020220601000012000NNE   20220419121854W4K83F0F  00000300000001063500001159032W4K8  HJYHK-J 005400370024
BI00T32W4    @4500192466    202206307282-1060                HOUSING SUB ASSEMBLY     CCN000006400000006400FN00000000020220601000006400NNE   20220419121854W4K83N0N  00000160000000955500001169032W4K8  HJYHK-J 005500360039
BI00T32W4    @4500192466    202206307123-2825                HOUSING                  CCN000030000000030000FN00000000020220601000030000NNE   20220419121854W4K83F0F  00000600000000958800001136432W4K8  HJYHK-J 005500360039
BI00B32W4    4500192477     202205057196-1461-02             TERMINAL FEMALE          CCN000024000000024000FN00000000020220401000024000NNED0720220419121854W4D44P0P  00002400000000386400000671632W4D4  HJYHK-J 006400630015
BI00A32W4    4500192350     202206067116-4102-02             TERMINAL                 CCN000012000000012000FN00000000020220601000012000NNE   20220419135135W4194P0P  00001200000000553200000841432W419  HJYHK   006400630015
BI00A32W4    4500192350     202206067114-4100-02             TERMINAL                 CCN000018000000018000FN00000000020220601000018000NNE   20220419135135W4194P0P  00001800000000748800001077432W419  HJYHK   006400630017
BI00A32W4    4500192350     202206067114-4111-02             TERMINAL                 CCN000012000000012000FN00000000020220601000012000NNE   20220419135135W4194P0P  00001200000000758400001087032W419  HJYHK   006400630017
BI00A32W4    4500192351     202206137116-4102-02             TERMINAL                 CCN000012000000012000FN00000000020220601000012000NNE   20220419135206W4194P0P  00001200000000553200000841432W419  HJYHK   006400630015
BI00A32W4    4500192351     202206137116-4103-02             TERMINAL                 CCN000012000000012000FN00000000020220601000012000NNE   20220419135206W4194P0P  00001200000000571200000859432W419  HJYHK   006400630015
BI00A32W4    4500192360     202205307116-4111-02             TERMINAL                 CCN000007500000007500FN00000000020220501000007500NNE   20220419135258W4A24P0P  00000750000000529500000817732W4A2  HJYHK-J 006400630015
BI00A32W4    #4500192360    202205307158-3121-80             WIRE SEAL                CCN000020000000020000FN00000000020220501000020000NNE   20220419135231W4A22C0C  00002000000000118000000187332W4A2  HJYHK-J 002700430014
BI00A32W4    #4500192360    202205307283-4190-30             CONNECTOR                CCN000002400000002400FN00000000020220501000002400NNE   20220419135231W4A22N0N  00000024000000846000001115532W4A2  HJYHK-J 005600390040
BI00A32W4    #4500192361    202206067283-8226-30             CONNECTOR                CCN000010000000010000FN00000000020220601000010000NNE   20220419135305W4A22N0N  00000200000000820000001008032W4A2  HJYHK-J 005400370024
BI00A32W4    #4500192361    202206067157-3646                RUBBER STOPPER           CCN000020000000020000FN00000000020220601000020000NNE   20220419135305W4A22H0H  00002000000000184000000255232W4A2  HJYHK-J 002700430014
BI00A32W4    4500192362     202206137116-4103-02             TERMINAL                 CCN000012000000012000FN00000000020220601000012000NNE   20220419135416W4A24P0P  00001200000000571200000859432W4A2  HJYHK-J 006400630015
BI00A32W4    4500192362     202206137116-4102-02             TERMINAL                 CCN000036000000036000FN00000000020220601000036000NNE   20220419135416W4A24P0P  00001200000000553200000841432W4A2  HJYHK-J 006400630015
BI00A32W4    4500192362     202206137116-4110-02             TERMINAL                 CCN000009000000009000FN00000000020220601000009000NNE   20220419135416W4A24P0P  00000900000000594000000882232W4A2  HJYHK-J 006400630015
BI00A32W4    4500192362     202206137158-3168-80             SEALED                   CCN000020000000020000FN00000000020220601000020000NNE   20220419135416W4A21C0C  00002000000000044000000092132W4A2  HJYHK-J 004300260014
BI00A32W4    4500192362     202206137116-4112-02             TERMINAL                 CCN000006000000006000FN00000000020220601000006000NNE   20220419135416W4A24P0P  00000600000000450000000738232W4A2  HJYHK-J 006400630015
BI00A32W4    #4500192362    202206137183-7725-40             HOUSING                  CCN000006000000006000FN00000000020220601000006000NNE   20220419135413W4A22F0F  00000600000000840000001040032W4A2  HJYHK-J 005600390040
BI00B32W4    4500192367     202206167116-4102-02             TERMINAL                 CCN000036000000036000FN00000000020220601000036000NNE   20220419135440W4654P0P  00001200000000553200000841432W465  HJYHK   006400630015
BI00B32W4    4500192379     202206167116-4100-02             TERMINAL                 CCN000285000000285000FN00000000020220601000285000NNE   20220419135515W4664P0P  00001500000000696000000990232W466  HJYHK   006400630015
BI00B32W4    4500192379     202206167114-4112-02             TERMINAL                 CCN000090000000090000FN00000000020220601000090000NNE   20220419135515W4664P0P  00000900000000598500000927132W466  HJYHK   006400630017
BI00B32W4    4500192379     202206167116-4112-02             TERMINAL                 CCN000036000000036000FN00000000020220601000036000NNE   20220419135515W4664P0P  00000600000000450000000738232W466  HJYHK   006400630015
BI00B32W4    4500192379     202206167116-4102-02             TERMINAL                 CCN000108000000108000FN00000000020220601000108000NNE   20220419135515W4664P0P  00001200000000553200000841432W466  HJYHK   006400630015
BI00B32W4    4500192379     202206167114-4100-02             TERMINAL                 CCN000054000000054000FN00000000020220601000054000NNE   20220419135515W4664P0P  00001800000000748800001077432W466  HJYHK   006400630017
BI00B32W4    4500192379     202206167114-4111-02             TERMINAL                 CCN000024000000024000FN00000000020220601000024000NNE   20220419135515W4664P0P  00001200000000758400001087032W466  HJYHK   006400630017
BI00B32W4    4500192379     202206167116-4101-02             TERMINAL                 CCN000084000000084000FN00000000020220601000084000NNE   20220419135515W4664P0P  00001200000000582000000876232W466  HJYHK   006400630015
BI00B32W4    4500192379     202206167114-4101-02             TERMINAL                 CCN000090000000090000FN00000000020220601000090000NNE   20220419135515W4664P0P  00001500000000675000001003632W466  HJYHK   006400630017
BI00B32W4    4500192379     202206167116-4104-02             TERMINAL                 CCN000084000000084000FN00000000020220601000084000NNE   20220419135515W4664P0P  00001200000000580800000972432W466  HJYHK   006400630015
BI00B32W4    4500192379     202206167116-4110-02             TERMINAL                 CCN000027000000027000FN00000000020220601000027000NNE   20220419135515W4664P0P  00000900000000594000000882232W466  HJYHK   006400630015
BI00B32W4    4500192379     202206167116-4103-02             TERMINAL                 CCN000012000000012000FN00000000020220601000012000NNE   20220419135515W4664P0P  00001200000000571200000859432W466  HJYHK   006400630015
BI00B32W4    #4500192379    202206167282-4190-30             CONNECTOR                CCN000002880000002880FN00000000020220601000002880NNE   20220419135512W4662N0N  00000024000000801000001071332W466  HJYHK   005600390040
BI00B32W4    #4500192379    202206167283-4190-30             CONNECTOR                CCN000000960000000960FN00000000020220601000000960NNE   20220419135512W4662N0N  00000024000000846000001115532W466  HJYHK   005600390040
BI00B32W4    4500192393     202206097282-8120-40             CONNECTOR HOUSING        CCN000003000000003000FN00000000020220601000003000NNE   20220419135538W4171N0N  00000300000001356000001520032W417  HJYHK   005500360039
BI00B32W4    4500192394     202206167283-5843                CONNECTOR                CCN000001500000001500FN00000000020220601000001500NNE   20220419135608W4171N0N  00000150000000889000001132032W417  HJYHK   005600390040
BI00B32W4    4500192394     202206167114-6041                TERMINAL                 CCN000003600000003600FN00000000020220601000003600NNE   20220419135608W4174P0P  00000360000000580700000824232W417  HJYHK   006400630015
BI00B32W4    4500192394     202206167283-5832                CONNECTOR HOUSING        CCN000002400000002400FN00000000020220601000002400NNE   20220419135608W4171N47  00000240000000723800000873832W417  HJYHK   005500360039
BI00B32W4    #4500192394    202206167183-8927                HOUSING                  CCN000004000000004000FN00000000020220601000004000NNE   20220419135603W4172F0F  00000400000000714000000912732W417  HJYHK   005500360039
BI00B32W4    #4500192394    202206167282-3020                CONNECTOR                CCN000004000000004000FN00000000020220601000004000NNE   20220419135603W4172N0N  00000100000000984000001145432W417  HJYHK   005500360039
BI00B32W4    #4500192395    202206307147-3642-30             CLIP                     CCN000057000000057000FN00000000020220601000057000NNE   20220419135630W4172F0F  00000300000000542000000721332W417  HJYHK   005600390040
BI00A32W4    4500192398     202205057289-5000                HOUSING FEMALE ASS'Y     CCN000000608000000608FN00000000020220501000000608NNE   20220419135703W48 1N0N  00000030400000549000000759032W48   HJYHK   005400370024
BI00A32W4    4500192398     202205057288-5000                HOUSING MALE ASS'Y       CCN000000672000000672FN00000000020220501000000672NNE   20220419135703W48 1N0N  00000033600000825200001035232W48   HJYHK   005400370024
BI00A32W4    4500192398     202205057298-1865-30             HOUSING FEMALE ASS'Y     CCN000002400000002400FN00000000020220501000002400NNE   20220419135703W48 4N0N  00000240000001003200001204532W48   HJYHK   005500360039
BI00A32W4    4500192398     202205057298-1869-30             HOUSING FEMALE ASS'Y     CCN000001200000001200FN00000000020220501000001200NNE   20220419135703W48 4N0N  00000120000000737000000939832W48   HJYHK   005500360039
BI00B32W4    4500192401     202205057289-9553-50             SEALED ASSY FEMALE       CCN000002940000002940FN00000000020220501000002940NNE   20220419135728W4594N0N  00000294000001108100001520632W459  HJYHK   005500360039
BI00B32W4    #4500192401    202205057174-1760-50             CAP                      CCN000003000000003000FN00000000020220501000003000NNE   20220419135724W4592F0F  00000300000000813600000922632W459  HJYHK   005400370024
BI00B32W4    4500192402     202205057282-4855                HOUSING MALE ASS'Y       CCN000004800000004800FN00000000020220501000004800NNE   20220419135756W4594N0N  00000120000001063200001283232W459  HJYHK   005500360039
BI00B32W4    #4500192402    202205057282-1030                CONNECTOR MALE ASS'Y     CCN000003000000003000FN00000000020220501000003000NNE   20220419135752W4592N0N  00000100000000365000000487532W459  HJYHK   005400370024
BI00A32W4    4500192413     202205267114-4112-02             TERMINAL                 CCN000036000000036000FN00000000020220501000036000NNE   20220419135822W4524P0P  00000900000000598500000927132W452  HJYHK   006400630017
BI00B32W4    4500192417     202206167116-4100-02             TERMINAL                 CCN000030000000030000FN00000000020220601000030000NNE   20220419135859W4464P0P  00001500000000696000000990232W446  HJYHK   006400630015
BI00B32W4    4500192417     202206167114-4112-02             TERMINAL                 CCN000009000000009000FN00000000020220601000009000NNE   20220419135859W4464P0P  00000900000000598500000927132W446  HJYHK   006400630017
BI00B32W4    4500192417     202206167116-4112-02             TERMINAL                 CCN000018000000018000FN00000000020220601000018000NNE   20220419135859W4464P0P  00000600000000450000000738232W446  HJYHK   006400630015
BI00B32W4    4500192417     202206167116-4102-02             TERMINAL                 CCN000012000000012000FN00000000020220601000012000NNE   20220419135859W4464P0P  00001200000000553200000841432W446  HJYHK   006400630015
BI00B32W4    4500192417     202206167114-4100-02             TERMINAL                 CCN000018000000018000FN00000000020220601000018000NNE   20220419135859W4464P0P  00001800000000748800001077432W446  HJYHK   006400630017
BI00B32W4    4500192417     202206167158-3168-80             SEALED                   CCN000020000000020000FN00000000020220601000020000NNE   20220419135859W4461C0C  00002000000000044000000092132W446  HJYHK   004300260014
BI00B32W4    4500192417     202206167158-3167-80             WIRE SEAL                CCN000040000000040000FN00000000020220601000040000NNE   20220419135859W4461C0C  00002000000000048000000109032W446  HJYHK   002700430014
BI00B32W4    4500192417     202206167116-4101-02             TERMINAL                 CCN000060000000060000FN00000000020220601000060000NNE   20220419135859W4464P0P  00001200000000582000000876232W446  HJYHK   006400630015
BI00B32W4    4500192417     202206167116-4104-02             TERMINAL                 CCN000012000000012000FN00000000020220601000012000NNE   20220419135859W4464P0P  00001200000000580800000972432W446  HJYHK   006400630015
BI00B32W4    4500192417     202206167116-4103-02             TERMINAL                 CCN000012000000012000FN00000000020220601000012000NNE   20220419135859W4464P0P  00001200000000571200000859432W446  HJYHK   006400630015
BI00B32W4    #4500192417    202206167282-3243-40             CONNECTOR                CCN000000800000000800FN00000000020220601000000800NNE   20220419135850W4462N0N  00000080000001006000001282332W446  HJYHK   005600390040
BI00B32W4    #4500192417    202206167283-8123-40             CONNECTOR HOUSING        CCN000004000000004000FN00000000020220601000004000NNE   20220419135850W4462N0N  00000400000000380000000530032W446  HJYHK   005600390023
BI00B32W4    #4500192417    202206167047-5344                RETAINER                 CCN000010000000010000FN00000000020220601000010000NNE   20220419135850W4462F0F  00001000000000870000001016032W446  HJYHK   005600390023
BI00B32W4    4500192423     202210067283-5574-10             CONNECTOR                CCN000001600000001600FN00000000020221001000001600NNE   20220419135942W4464N0N  00000080000001235000001435232W446  HJYHK   005500360039
BI00B32W4    4500192424     202205097116-6041                TERMINAL                 CCN000045000000045000FN00000000020220501000045000NNED0720220419140041W4324P0P  00000450000000716000001009632W432  HJYHK   006400630015
BI00B32X5    TIB2012        202204277289-3342-90             HOUSING FEMALE ASS'Y     CCN000012000000012000FN00000000020220501000012000NNM00020220419121854X5  1N0N  00000240000000686400000901432X5    EPYNA-E 005500360039
BI00B32X5    TIB2025        202205207289-3342-30             HOUSING FEMALE ASS'Y     CCN000048000000048000FN00000000020220801000048000NNMD0420220419121854X5  1N0N  00000240000000686400000901432X5    EPYNA-E 005500360039
BI00B32X5    TIB2027        202207087289-3342-30             HOUSING FEMALE ASS'Y     CCN000074400000074400FN00000000020220801000074400NNMD0420220419142254X5  1N0N  00000240000000686400000901432X5    EPYNA-E 005500360039
BI00B32Y1    TA2061A        202205167289-3342-30             HOUSING FEMALE ASS'Y     CCN000021600000021600FN00000000020210501000021600NNMD0420220419121854    1N0N  00000240000000686400000901432Y1    YAYAS   005500360039
