BI00B32B6    W72026         202205271801W003930              IVSSH 0.5F B             CCN000041400000041400FN00000000020220801000041400NNE   20220419165217B6  1W    00000180000000625000000000032B6    AXARNE-M000000000000AW225008
BI00B32B6    W72026         202205271801W003940              IVSSH 0.5F W             CCN000039600000039600FN00000000020220801000039600NNE   20220419165217B6  1W    00000180000000625000000000032B6    AXARNE-M000000000000AW225019
BI00B32B6    W72026         202205271801W003941              IVSSH 0.5F GY            CCN000028800000028800FN00000000020220801000028800NNE   20220419165217B6  1W    00000180000000625000000000032B6    AXARNE-M000000000000AW225012
BI00B32B6    W72026         202205271801W003943              IVSSH 0.5F W/B           CCN000001800000001800FN00000000020220801000001800NNE   20220419165217B6  1W    00000180000000625000000000032B6    AXARNE-M000000000000AW225020
BI00B32B6    W72026         202205271801W003950              IVSSH 0.5F R             CCN000025200000025200FN00000000020220801000025200NNE   20220419165217B6  1W    00000180000000625000000000032B6    AXARNE-M000000000000AW225016
BI00B32B6    W72026         202205271801W003952              IVSSH 0.5F P             CCN000025200000025200FN00000000020220801000025200NNE   20220419165217B6  1W    00000180000000625000000000032B6    AXARNE-M000000000000AW225015
BI00B32B6    W72026         202205271801W00395U              IVSSH 0.5F BE            CCN000037800000037800FN00000000020220801000037800NNE   20220419165217B6  1W    00000180000000625000000000032B6    AXARNE-M000000000000AW225009
BI00B32B6    W72026         202205271801W003960              IVSSH 0.5F G             CCN000030600000030600FN00000000020220801000030600NNE   20220419165217B6  1W    00000180000000625000000000032B6    AXARNE-M000000000000AW225011
BI00B32B6    W72026         202205271801W003961              IVSSH 0.5F LG            CCN000028800000028800FN00000000020220801000028800NNE   20220419165217B6  1W    00000180000000625000000000032B6    AXARNE-M000000000000AW225014
BI00B32B6    W72026         202205271801W003970              IVSSH 0.5F Y             CCN000027000000027000FN00000000020220801000027000NNE   20220419165217B6  1W    00000180000000625000000000032B6    AXARNE-M000000000000AW225021
BI00B32B6    W72026         202205271801W003980              IVSSH 0.5F BR            CCN000030600000030600FN00000000020220801000030600NNE   20220419165217B6  1W    00000180000000625000000000032B6    AXARNE-M000000000000AW225010
BI00B32B6    W72026         202205271801W003990              IVSSH 0.5F L             CCN000036000000036000FN00000000020220801000036000NNE   20220419165217B6  1W    00000180000000625000000000032B6    AXARNE-M000000000000AW225013
BI00B32B6    W72026         202205271801W003991              IVSSH 0.5F SB            CCN000030600000030600FN00000000020220801000030600NNE   20220419165217B6  1W    00000180000000625000000000032B6    AXARNE-M000000000000AW225017
BI00B32B6    W72026         202205271801W003992              IVSSH 0.5F V             CCN000025200000025200FN00000000020220801000025200NNE   20220419165217B6  1W    00000180000000625000000000032B6    AXARNE-M000000000000AW225018
BI00B32B6    W72026         202205271801W004030              IVSSH 0.75F B            CCN000001300000001300FN00000000020220801000001300NNE   20220419165217B6  1W    00000130000000882000000000032B6    AXARNE-M000000000000AW225022
BI00B32B6    W72026         202205271801W004040              IVSSH 0.75F W            CCN000001300000001300FN00000000020220801000001300NNE   20220419165217B6  1W    00000130000000882000000000032B6    AXARNE-M000000000000AW225025
BI00B32B6    W72026         202205271801W00405U              IVSSH 0.75F BE           CCN000001300000001300FN00000000020220801000001300NNE   20220419165217B6  1W    00000130000000882000000000032B6    AXARNE-M000000000000AW225023
BI00B32B6    W72026         202205271801W004090              IVSSH 0.75F L            CCN000001300000001300FN00000000020220801000001300NNE   20220419165217B6  1W    00000130000000882000000000032B6    AXARNE-M000000000000AW225024
BI00B32E2    @WY206A        20220427181B09116K3              CAVSAS 0.3X2 GY/P        CCN000002450000002450FN00000000020220601000002450NNE   20220419155159    1W    00000035000002254000000000032E2    SPYSE   000000000000KW224001
BI00B32E2    @WY206A        20220427181F21009ZZ              AVSSHCS-S 0.5FX2 B       CCN000000300000000300FN00000000020220601000000300NNE   20220419155159    1W    00000030000002531400000000032E2    SPYSE   000000000000KW224002
BI00B32P8    @TAPAW-2061    20220504181F21029ZZ              AVSSHCS-S 1.25FX2 B/Y    CCN000001400000000400FN00000000020220601000000400NNM00 20220419150610    1W    00000020000004267300000000032P8    YIYTM   000000000000YT324019
BI00A32P8    @TAPAW-2061    20220420181F21029ZZ              AVSSHCS-S 1.25FX2 B/Y    CCN000001000000001000FN00000000020220601000001000NNM20 20220419150852    1W    00000020000004267300000000032P8    YIYTM   000000000000YT324019
BI00B32U5    DW2026         202205271801W00395U              IVSSH 0.5F BE            CCN000001800000001800FN00000000020220801000001800NNE   20220419164309U5  1W    00000180000000625000000000032U5    ASAMSD  000000000000AM225021
BI00B32U5    DW2026         202205271801W004050              IVSSH 0.75F R            CCN000005200000005200FN00000000020220801000005200NNE   20220419164309U5  1W    00000130000000882000000000032U5    ASAMSD  000000000000AM225022
BI00B32U5    DW2026         202205271801W006940              IVSSH 0.35F W            CCN000082500000082500FN00000000020220801000082500NNE   20220419164309U5  1W    00000250000000452000000000032U5    ASAMSD  000000000000AM225025
BI00B32U5    DW2026         202205271801W006952              IVSSH 0.35F P            CCN000030000000030000FN00000000020220801000030000NNE   20220419164309U5  1W    00000250000000452000000000032U5    ASAMSD  000000000000AM225023
BI00B32U5    DW2026         202205271801W006992              IVSSH 0.35F V            CCN000020000000020000FN00000000020220801000020000NNE   20220419164309U5  1W    00000250000000452000000000032U5    ASAMSD  000000000000AM225024
BI00B32W4    @4500192403    20220510181E50002ZZ              AVSSCS-S 0.3FX2 DGY/G    CCN000003500000003500FN00000000020220501000003500NNE   20220419154317W4591W    00000035000002165000000000032W459  HJYHK-J 000000000000OV424001
BI00B32W4    @4500192396    20220628181B32116S1              AVSSCS 0.3FX2 DGY        CCN000000350000000350FN00000000020220601000000350NNE   20220419154321W4171W    00000035000002276000000000032W417  HJYHK-J 000000000000OP326002
BI00B32W4    @4500192396    20220628181B32037Y5              AVSSCS 0.3FX1 DGY/W      CCN000002500000002500FN00000000020220601000002500NNE   20220419154321W4171W    00000050000001780000000000032W417  HJYHK-J 000000000000OP326001
