BI00B32BF    TT2203AKMW     2022022218009603930              AVS 0.5 B                CCN000003000000003000FN00000000020220301000003000NNE   20220128102855    1W    00000100000000850000000000032BF    TTTJY   000000000000NR222001
BI00B32BF    TT2203AKMW     2022022218009603940              AVS 0.5 W                CCN000003000000003000FN00000000020220301000003000NNE   20220128102855    1W    00000100000000850000000000032BF    TTTJY   000000000000NR222002
BI00B32BF    TT2203AKMW     2022022218009604050              AVS 0.85 R               CCN000006000000006000FN00000000020220301000006000NNE   20220128102855    1W    00000100000001167700000000032BF    TTTJY   000000000000NR222003
BI00B32BF    TT2203AKMW     2022022218009604056              AVS 0.85 R/G             CCN000009000000009000FN00000000020220301000009000NNE   20220128102855    1W    00000100000001167700000000032BF    TTTJY   000000000000NR222004
BI00B32BF    TT2203AKMW     2022022218009604059              AVS 0.85 R/L             CCN000006000000006000FN00000000020220301000006000NNE   20220128102855    1W    00000100000001167700000000032BF    TTTJY   000000000000NR222005
BI00B32BF    TT22051BMW     20220322180D0203730              AVSSH 0.3F B             CCN000002000000002000FN00000000020220501000002000NNM   20220128103830    1W    00000200000000515000000000032BF    TTTJY   000000000000NB223025
BI00B32BF    TT22051BMW     20220322180D0203734              AVSSH 0.3F B/W           CCN000002000000002000FN00000000020220501000002000NNM   20220128103830    1W    00000200000000515000000000032BF    TTTJY   000000000000NB223026
BI00B32BF    TT22051BMW     20220322180D0203737              AVSSH 0.3F B/Y           CCN000002000000002000FN00000000020220501000002000NNM   20220128103830    1W    00000200000000515000000000032BF    TTTJY   000000000000NB223027
BI00B32BF    TT22051BMW     20220322180D0203790              AVSSH 0.3F L             CCN000002000000002000FN00000000020220501000002000NNM   20220128103830    1W    00000200000000515000000000032BF    TTTJY   000000000000NB223028
BI00B32BF    TT22052BMW     20220329180D0203790              AVSSH 0.3F L             CCN000002000000002000FN00000000020220501000002000NNM   20220128103830    1W    00000200000000515000000000032BF    TTTJY   000000000000NB323025
BI00B32BF    TT22051BMW     20220322180D0203793              AVSSH 0.3F L/B           CCN000002000000002000FN00000000020220501000002000NNM   20220128103830    1W    00000200000000515000000000032BF    TTTJY   000000000000NB223029
BI00B32BF    TT22051BMW     20220322180D0203773              AVSSH 0.3F Y/B           CCN000002000000002000FN00000000020220501000002000NNM   20220128103830    1W    00000200000000515000000000032BF    TTTJY   000000000000NB223030
BI00B32BF    TT22051BMW     20220322180D0203935              AVSSH 0.5F B/R           CCN000001500000001500FN00000000020220501000001500NNM   20220128103830    1W    00000150000000689000000000032BF    TTTJY   000000000000NB223031
BI00B32BF    TT22051BMW     20220322180D0203937              AVSSH 0.5F B/Y           CCN000003000000003000FN00000000020220501000003000NNM   20220128103830    1W    00000150000000689000000000032BF    TTTJY   000000000000NB223032
BI00B32BF    TT22051BMW     20220322180D0203980              AVSSH 0.5F BR            CCN000001500000001500FN00000000020220501000001500NNM   20220128103830    1W    00000150000000689000000000032BF    TTTJY   000000000000NB223033
BI00B32BF    TT22051BMW     20220322180D0203960              AVSSH 0.5F G             CCN000001500000001500FN00000000020220501000001500NNM   20220128103830    1W    00000150000000689000000000032BF    TTTJY   000000000000NB223034
BI00B32BF    TT22051BMW     20220322180D0203990              AVSSH 0.5F L             CCN000001500000001500FN00000000020220501000001500NNM   20220128103830    1W    00000150000000689000000000032BF    TTTJY   000000000000NB223035
BI00B32BF    TT22052BMW     20220329180D0203990              AVSSH 0.5F L             CCN000001500000001500FN00000000020220501000001500NNM   20220128103830    1W    00000150000000689000000000032BF    TTTJY   000000000000NB323026
BI00B32BF    TT22051BMW     20220322180D0203995              AVSSH 0.5F L/R           CCN000001500000001500FN00000000020220501000001500NNM   20220128103830    1W    00000150000000689000000000032BF    TTTJY   000000000000NB223036
BI00B32BF    TT22051BMW     20220322180D0203997              AVSSH 0.5F L/Y           CCN000001500000001500FN00000000020220501000001500NNM   20220128103830    1W    00000150000000689000000000032BF    TTTJY   000000000000NB223037
BI00B32BF    TT22051BMW     20220322180D0203961              AVSSH 0.5F LG            CCN000001500000001500FN00000000020220501000001500NNM   20220128103830    1W    00000150000000689000000000032BF    TTTJY   000000000000NB223038
BI00B32BF    TT22051BMW     20220322180D0203952              AVSSH 0.5F P             CCN000001500000001500FN00000000020220501000001500NNM   20220128103830    1W    00000150000000689000000000032BF    TTTJY   000000000000NB223039
BI00B32BF    TT22051BMW     20220322180D02039G6              AVSSH 0.5F P/L           CCN000001500000001500FN00000000020220501000001500NNM   20220128103830    1W    00000150000000689000000000032BF    TTTJY   000000000000NB223040
BI00B32BF    TT22051BMW     20220322180D0203950              AVSSH 0.5F R             CCN000003000000003000FN00000000020220501000003000NNM   20220128103830    1W    00000150000000689000000000032BF    TTTJY   000000000000NB223041
BI00B32BF    TT22051BMW     20220322180D0203953              AVSSH 0.5F R/B           CCN000001500000001500FN00000000020220501000001500NNM   20220128103830    1W    00000150000000689000000000032BF    TTTJY   000000000000NB223042
BI00B32BF    TT22051BMW     20220322180D0203959              AVSSH 0.5F R/L           CCN000001500000001500FN00000000020220501000001500NNM   20220128103830    1W    00000150000000689000000000032BF    TTTJY   000000000000NB223043
BI00B32BF    TT22051BMW     20220322180D0203992              AVSSH 0.5F V             CCN000003000000003000FN00000000020220501000003000NNM   20220128103830    1W    00000150000000689000000000032BF    TTTJY   000000000000NB223044
BI00B32BF    TT22051BMW     20220322180D0203940              AVSSH 0.5F W             CCN000001500000001500FN00000000020220501000001500NNM   20220128103830    1W    00000150000000689000000000032BF    TTTJY   000000000000NB223045
BI00B32BF    TT22051BMW     20220322180D0203943              AVSSH 0.5F W/B           CCN000003000000003000FN00000000020220501000003000NNM   20220128103830    1W    00000150000000689000000000032BF    TTTJY   000000000000NB223046
BI00B32BF    TT22051BMW     20220322180D0203949              AVSSH 0.5F W/L           CCN000001500000001500FN00000000020220501000001500NNM   20220128103830    1W    00000150000000689000000000032BF    TTTJY   000000000000NB223047
BI00B32BF    TT22051BMW     20220322180D0203945              AVSSH 0.5F W/R           CCN000001500000001500FN00000000020220501000001500NNM   20220128103830    1W    00000150000000689000000000032BF    TTTJY   000000000000NB223048
BI00B32BF    TT22051BMW     20220322180D0203970              AVSSH 0.5F Y             CCN000001500000001500FN00000000020220501000001500NNM   20220128103830    1W    00000150000000689000000000032BF    TTTJY   000000000000NB223049
BI00B32BF    TT22051BMW     20220322180D0204030              AVSSH 0.75F B            CCN000001000000001000FN00000000020220501000001000NNM   20220128103830    1W    00000100000000934000000000032BF    TTTJY   000000000000NB223050
BI00B32BF    TT22051BMW     20220322180D0204035              AVSSH 0.75F B/R          CCN000001000000001000FN00000000020220501000001000NNM   20220128103830    1W    00000100000000934000000000032BF    TTTJY   000000000000NB223051
BI00B32BF    TT22051BMW     20220322180D0204034              AVSSH 0.75F B/W          CCN000001000000001000FN00000000020220501000001000NNM   20220128103830    1W    00000100000000934000000000032BF    TTTJY   000000000000NB223052
BI00B32BF    TT22051BMW     20220322180D0204080              AVSSH 0.75F BR           CCN000001000000001000FN00000000020220501000001000NNM   20220128103830    1W    00000100000000934000000000032BF    TTTJY   000000000000NB223053
BI00B32BF    TT22051BMW     20220322180D0204060              AVSSH 0.75F G            CCN000002000000002000FN00000000020220501000002000NNM   20220128103830    1W    00000100000000934000000000032BF    TTTJY   000000000000NB223054
BI00B32BF    TT22052BMW     20220329180D0204060              AVSSH 0.75F G            CCN000001000000001000FN00000000020220501000001000NNM   20220128103830    1W    00000100000000934000000000032BF    TTTJY   000000000000NB323027
BI00B32BF    TT22053BMW     20220405180D0204060              AVSSH 0.75F G            CCN000001000000001000FN00000000020220501000001000NNM   20220128103830    1W    00000100000000934000000000032BF    TTTJY   000000000000NB423013
BI00B32BF    TT22051BMW     20220322180D0204043              AVSSH 0.75F W/B          CCN000002000000002000FN00000000020220501000002000NNM   20220128103830    1W    00000100000000934000000000032BF    TTTJY   000000000000NB223055
BI00B32BF    TT22051BMW     20220322180D0204130              AVSSH 1.25F B            CCN000001600000001600FN00000000020220501000001600NNM   20220128103830    1W    00000080000001458000000000032BF    TTTJY   000000000000NB223056
BI00B32BF    TT22051BMW     20220322180D0204134              AVSSH 1.25F B/W          CCN000000800000000800FN00000000020220501000000800NNM   20220128103830    1W    00000080000001458000000000032BF    TTTJY   000000000000NB223057
BI00B32BF    TT22051BMW     20220322180D0204190              AVSSH 1.25F L            CCN000000800000000800FN00000000020220501000000800NNM   20220128103830    1W    00000080000001458000000000032BF    TTTJY   000000000000NB223058
BI00B32BF    TT22051BMW     20220322180D0204159              AVSSH 1.25F R/L          CCN000001600000001600FN00000000020220501000001600NNM   20220128103830    1W    00000080000001458000000000032BF    TTTJY   000000000000NB223059
BI00B32BF    TT22051BMW     20220322180D0204143              AVSSH 1.25F W/B          CCN000000800000000800FN00000000020220501000000800NNM   20220128103830    1W    00000080000001458000000000032BF    TTTJY   000000000000NB223060
BI00B32BF    TT22051BMW     20220322180D0204170              AVSSH 1.25F Y            CCN000001600000001600FN00000000020220501000001600NNM   20220128103830    1W    00000080000001458000000000032BF    TTTJY   000000000000NB223061
BI00B32BF    TT22052BMW     20220329180D0204170              AVSSH 1.25F Y            CCN000000800000000800FN00000000020220501000000800NNM   20220128103830    1W    00000080000001458000000000032BF    TTTJY   000000000000NB323028
BI00B32BF    TT22053BMW     20220405180D0204170              AVSSH 1.25F Y            CCN000000800000000800FN00000000020220501000000800NNM   20220128103830    1W    00000080000001458000000000032BF    TTTJY   000000000000NB423014
BI00B32BF    TT2203BKMW     2022020818009603950              AVS 0.5 R                CCN000001000000001000FN00000000020220301000001000NNE   20220128095145    1W    00000100000000850000000000032BF    TTTJY   000000000000NS421001
BI00B32BF    TT22051KMW     2022032218009603930              AVS 0.5 B                CCN000001000000001000FN00000000020220501000001000NNM   20220128103832    1W    00000100000000850000000000032BF    TTTJY   000000000000NK223021
BI00B32BF    TT22052KMW     2022032918009603930              AVS 0.5 B                CCN000001000000001000FN00000000020220501000001000NNM   20220128103832    1W    00000100000000850000000000032BF    TTTJY   000000000000NK323004
BI00B32BF    TT22053KMW     2022040518009603930              AVS 0.5 B                CCN000001000000001000FN00000000020220501000001000NNM   20220128103832    1W    00000100000000850000000000032BF    TTTJY   000000000000NK423001
BI00B32BF    TT22051KMW     2022032218009603950              AVS 0.5 R                CCN000002000000002000FN00000000020220501000002000NNM   20220128103832    1W    00000100000000850000000000032BF    TTTJY   000000000000NK223022
BI00B32BF    TT22051KMW     2022032218009603940              AVS 0.5 W                CCN000001000000001000FN00000000020220501000001000NNM   20220128103832    1W    00000100000000850000000000032BF    TTTJY   000000000000NK223023
BI00B32BF    TT22052KMW     2022032918009603940              AVS 0.5 W                CCN000001000000001000FN00000000020220501000001000NNM   20220128103832    1W    00000100000000850000000000032BF    TTTJY   000000000000NK323005
BI00B32BF    TT22053KMW     2022040518009603940              AVS 0.5 W                CCN000001000000001000FN00000000020220501000001000NNM   20220128103832    1W    00000100000000850000000000032BF    TTTJY   000000000000NK423002
BI00B32BF    TT22051KMW     2022032218009604087              AVS 0.85 BR/Y            CCN000002000000002000FN00000000020220501000002000NNM   20220128103832    1W    00000100000001167700000000032BF    TTTJY   000000000000NK223024
BI00B32BF    TT22052KMW     2022032918009604050              AVS 0.85 R               CCN000001000000001000FN00000000020220501000001000NNM   20220128103832    1W    00000100000001167700000000032BF    TTTJY   000000000000NK323006
BI00B32BF    TT22053KMW     2022040518009604050              AVS 0.85 R               CCN000001000000001000FN00000000020220501000001000NNM   20220128103832    1W    00000100000001167700000000032BF    TTTJY   000000000000NK423003
BI00B32BF    TT22052KMW     2022032918009604056              AVS 0.85 R/G             CCN000001000000001000FN00000000020220501000001000NNM   20220128103832    1W    00000100000001167700000000032BF    TTTJY   000000000000NK323007
BI00B32BF    TT22053KMW     2022040518009604056              AVS 0.85 R/G             CCN000001000000001000FN00000000020220501000001000NNM   20220128103832    1W    00000100000001167700000000032BF    TTTJY   000000000000NK423004
BI00B32BF    TT22051KMW     2022032218009604059              AVS 0.85 R/L             CCN000001000000001000FN00000000020220501000001000NNM   20220128103832    1W    00000100000001167700000000032BF    TTTJY   000000000000NK223025
BI00B32BF    TT22052KMW     2022032918009604059              AVS 0.85 R/L             CCN000001000000001000FN00000000020220501000001000NNM   20220128103832    1W    00000100000001167700000000032BF    TTTJY   000000000000NK323008
BI00B32BF    TT22053KMW     2022040518009604059              AVS 0.85 R/L             CCN000001000000001000FN00000000020220501000001000NNM   20220128103832    1W    00000100000001167700000000032BF    TTTJY   000000000000NK423005
BI00B32BF    TT22051KMW     20220322180D0203930              AVSSH 0.5F B             CCN000001500000001500FN00000000020220501000001500NNM   20220128103832    1W    00000150000000689000000000032BF    TTTJY   000000000000NK223001
BI00B32BF    TT22052KMW     20220329180D0203930              AVSSH 0.5F B             CCN000001500000001500FN00000000020220501000001500NNM   20220128103832    1W    00000150000000689000000000032BF    TTTJY   000000000000NK323001
BI00B32BF    TT22051KMW     20220322180D0203980              AVSSH 0.5F BR            CCN000001500000001500FN00000000020220501000001500NNM   20220128103832    1W    00000150000000689000000000032BF    TTTJY   000000000000NK223002
BI00B32BF    TT22051KMW     20220322180D0203950              AVSSH 0.5F R             CCN000001500000001500FN00000000020220501000001500NNM   20220128103832    1W    00000150000000689000000000032BF    TTTJY   000000000000NK223003
BI00B32BF    TT22051KMW     20220322180D0203991              AVSSH 0.5F SB            CCN000001500000001500FN00000000020220501000001500NNM   20220128103832    1W    00000150000000689000000000032BF    TTTJY   000000000000NK223004
BI00B32BF    TT22051KMW     20220322180D0203945              AVSSH 0.5F W/R           CCN000001500000001500FN00000000020220501000001500NNM   20220128103832    1W    00000150000000689000000000032BF    TTTJY   000000000000NK223005
BI00B32BF    TT22051KMW     20220322180D0203970              AVSSH 0.5F Y             CCN000001500000001500FN00000000020220501000001500NNM   20220128103832    1W    00000150000000689000000000032BF    TTTJY   000000000000NK223006
BI00B32BF    TT22051KMW     20220322180D0203975              AVSSH 0.5F Y/R           CCN000001500000001500FN00000000020220501000001500NNM   20220128103832    1W    00000150000000689000000000032BF    TTTJY   000000000000NK223007
BI00B32BF    TT22052KMW     20220329180D0203975              AVSSH 0.5F Y/R           CCN000001500000001500FN00000000020220501000001500NNM   20220128103832    1W    00000150000000689000000000032BF    TTTJY   000000000000NK323002
BI00B32BF    TT22051KMW     20220322180D0204090              AVSSH 0.75F L            CCN000001000000001000FN00000000020220501000001000NNM   20220128103832    1W    00000100000000934000000000032BF    TTTJY   000000000000NK223008
BI00B32BF    TT22052KMW     20220329180D0204090              AVSSH 0.75F L            CCN000001000000001000FN00000000020220501000001000NNM   20220128103832    1W    00000100000000934000000000032BF    TTTJY   000000000000NK323003
BI00B32BF    TT22051KMW     20220322180D0204094              AVSSH 0.75F L/W          CCN000001000000001000FN00000000020220501000001000NNM   20220128103832    1W    00000100000000933600000000032BF    TTTJY   000000000000NK223009
BI00B32BF    TT22051KMW     20220322180D0204070              AVSSH 0.75F Y            CCN000002000000002000FN00000000020220501000002000NNM   20220128103832    1W    00000100000000934000000000032BF    TTTJY   000000000000NK223010
BI00B32BF    TT22051KMW     20220322180D0204130              AVSSH 1.25F B            CCN000000800000000800FN00000000020220501000000800NNM   20220128103832    1W    00000080000001458000000000032BF    TTTJY   000000000000NK223011
BI00B32BF    TT22051KMW     20220322180D0204139              AVSSH 1.25F B/L          CCN000000800000000800FN00000000020220501000000800NNM   20220128103832    1W    00000080000001458000000000032BF    TTTJY   000000000000NK223012
BI00B32BF    TT22051KMW     20220322180D0204190              AVSSH 1.25F L            CCN000000800000000800FN00000000020220501000000800NNM   20220128103832    1W    00000080000001458000000000032BF    TTTJY   000000000000NK223013
BI00B32BF    TT22051KMW     20220322180D0204161              AVSSH 1.25F LG           CCN000000800000000800FN00000000020220501000000800NNM   20220128103832    1W    00000080000001458000000000032BF    TTTJY   000000000000NK223014
BI00B32BF    TT22051KMW     20220322180D0204152              AVSSH 1.25F P            CCN000000800000000800FN00000000020220501000000800NNM   20220128103832    1W    00000080000001458000000000032BF    TTTJY   000000000000NK223015
BI00B32BF    TT22051KMW     20220322180D0204150              AVSSH 1.25F R            CCN000001600000001600FN00000000020220501000001600NNM   20220128103832    1W    00000080000001458000000000032BF    TTTJY   000000000000NK223016
BI00B32BF    TT22051KMW     20220322180D0204192              AVSSH 1.25F V            CCN000000800000000800FN00000000020220501000000800NNM   20220128103832    1W    00000080000001458000000000032BF    TTTJY   000000000000NK223017
BI00B32BF    TT22051KMW     20220322180D0204140              AVSSH 1.25F W            CCN000001600000001600FN00000000020220501000001600NNM   20220128103832    1W    00000080000001458000000000032BF    TTTJY   000000000000NK223018
BI00B32BF    TT22051KMW     20220322180D0204149              AVSSH 1.25F W/L          CCN000000800000000800FN00000000020220501000000800NNM   20220128103832    1W    00000080000001458000000000032BF    TTTJY   000000000000NK223019
BI00B32BF    TT22051KMW     20220322180D0204170              AVSSH 1.25F Y            CCN000000800000000800FN00000000020220501000000800NNM   20220128103832    1W    00000080000001458000000000032BF    TTTJY   000000000000NK223020
BI00B32G0    TZ2203AEMW     20220222180D0203743              AVSSH 0.3F W/B           CCN000004000000004000FN00000000020220301000004000NNE   20220128143219    1W    00000200000000515000000000032G0    TTTJY   000000000000NG222003
BI00B32G0    TZ2203AEMW     20220222180D0203980              AVSSH 0.5F BR            CCN000001500000001500FN00000000020220301000001500NNE   20220128143219    1W    00000150000000689000000000032G0    TTTJY   000000000000NG222004
BI00B32G0    TZ22051EMW     2022032218007703730              AVSS 0.3F B              CCN000002000000002000FN00000000020220501000002000NNM   20220128143232    1W    00000200000000496000000000032G0    TTTJY   000000000000NE223047
BI00B32G0    TZ22051EMW     2022032218007703750              AVSS 0.3F R              CCN000002000000002000FN00000000020220501000002000NNM   20220128143232    1W    00000200000000496000000000032G0    TTTJY   000000000000NE223048
BI00B32G0    TZ22051EMW     2022032218007703792              AVSS 0.3F V              CCN000004000000004000FN00000000020220501000004000NNM   20220128143232    1W    00000200000000496000000000032G0    TTTJY   000000000000NE223049
BI00B32G0    TZ22051EMW     20220322180D0203761              AVSSH 0.3F LG            CCN000010000000010000FN00000000020220501000010000NNM   20220128143232    1W    00000200000000515000000000032G0    TTTJY   000000000000NE223037
BI00B32G0    TZ22051EMW     20220322180D0203750              AVSSH 0.3F R             CCN000002000000002000FN00000000020220501000002000NNM   20220128143232    1W    00000200000000515000000000032G0    TTTJY   000000000000NE223038
BI00B32G0    TZ22051EMW     20220322180D0203743              AVSSH 0.3F W/B           CCN000002000000002000FN00000000020220501000002000NNM   20220128143232    1W    00000200000000515000000000032G0    TTTJY   000000000000NE223039
BI00B32G0    TZ22051EMW     20220322180D0203980              AVSSH 0.5F BR            CCN000007500000007500FN00000000020220501000007500NNM   20220128143232    1W    00000150000000689000000000032G0    TTTJY   000000000000NE223040
BI00B32G0    TZ22051EMW     20220322180D0203990              AVSSH 0.5F L             CCN000012000000012000FN00000000020220501000012000NNM   20220128143232    1W    00000150000000689000000000032G0    TTTJY   000000000000NE223041
BI00B32G0    TZ22051EMW     20220322180D0203950              AVSSH 0.5F R             CCN000007500000007500FN00000000020220501000007500NNM   20220128143232    1W    00000150000000689000000000032G0    TTTJY   000000000000NE223042
BI00B32G0    TZ22051EMW     20220322180D0204030              AVSSH 0.75F B            CCN000009000000009000FN00000000020220501000009000NNM   20220128143232    1W    00000100000000934000000000032G0    TTTJY   000000000000NE223043
BI00B32G0    TZ22051EMW     20220322180D0204043              AVSSH 0.75F W/B          CCN000011000000011000FN00000000020220501000011000NNM   20220128143232    1W    00000100000000934000000000032G0    TTTJY   000000000000NE223044
BI00B32G0    TZ22051EMW     20220322180D0204160              AVSSH 1.25F G            CCN000012000000012000FN00000000020220501000012000NNM   20220128143232    1W    00000080000001458000000000032G0    TTTJY   000000000000NE223045
BI00B32G0    TZ22051EMW     20220322180D0204143              AVSSH 1.25F W/B          CCN000004000000004000FN00000000020220501000004000NNM   20220128143232    1W    00000080000001458000000000032G0    TTTJY   000000000000NE223046
BI00B32G0    @TZ22051EMW    20220322181E50002ZZ              AVSSCS-S 0.3FX2 DGY/G    CCN000000350000000350FN00000000020220501000000350NNM   20220128143231    1W    00000035000002165000000000032G0    TTTJY   000000000000NE223023
BI00B32G0    @TZ22051EMW    20220322181E50036ZZ              AVSSCS-S 0.3FX2 DGY      CCN000001750000001750FN00000000020220501000001750NNM   20220128143231    1W    00000035000002165000000000032G0    TTTJY   000000000000NE223022
BI00A32G7    @JW2202E MW    20220131181E48016ZZ              CAVSAS-S 0.5X1 GY/O      CCN000000400000000400FN00000000020220201000000400NNE   20220128094112    1W    00000040000001900600000000032G7    JIJAI   000000000000JR321001
BI00B32H0    TT2203DVMW     20220208180D0204150              AVSSH 1.25F R            CCN000000800000000800FN00000000020220301000000800NNE   20220128093611    1W    00000080000001458000000000032H0    TTTJY   000000000000NL421001
BI00B32H0    TT2203DVMW     20220208180D0204192              AVSSH 1.25F V            CCN000000800000000800FN00000000020220301000000800NNE   20220128093611    1W    00000080000001458000000000032H0    TTTJY   000000000000NL421002
BI00B32H0    TT2203EVMW     20220208180D0204130              AVSSH 1.25F B            CCN000000800000000800FN00000000020220301000000800NNE   20220128094315    1W    00000080000001458000000000032H0    TTTJY   000000000000NN421002
BI00B32H0    TT2203EVMW     20220208180D0204192              AVSSH 1.25F V            CCN000000800000000800FN00000000020220301000000800NNE   20220128094315    1W    00000080000001458000000000032H0    TTTJY   000000000000NN421003
BI00B32H0    TT2203EVMW     20220208180D0204140              AVSSH 1.25F W            CCN000000800000000800FN00000000020220301000000800NNE   20220128094315    1W    00000080000001458000000000032H0    TTTJY   000000000000NN421004
BI00B32H0    TT2203FVMW     20220222180D0203980              AVSSH 0.5F BR            CCN000001500000001500FN00000000020220301000001500NNE   20220128140121    1W    00000150000000689000000000032H0    TTTJY   000000000000NL222002
BI00B32H0    TT2203FVMW     20220222180D0203950              AVSSH 0.5F R             CCN000082500000082500FN00000000020220301000082500NNE   20220128140121    1W    00000150000000689000000000032H0    TTTJY   000000000000NL222003
BI00B32H0    TT2203FVMW     20220222180D0203992              AVSSH 0.5F V             CCN000001500000001500FN00000000020220301000001500NNE   20220128140121    1W    00000150000000689000000000032H0    TTTJY   000000000000NL222004
BI00B32H0    TT2203FVMW     20220222180D0204160              AVSSH 1.25F G            CCN000001600000001600FN00000000020220301000001600NNE   20220128140121    1W    00000080000001458000000000032H0    TTTJY   000000000000NL222005
BI00B32H0    TT2203FVMW     20220222180D0204190              AVSSH 1.25F L            CCN000000800000000800FN00000000020220301000000800NNE   20220128140121    1W    00000080000001458000000000032H0    TTTJY   000000000000NL222006
BI00B32H0    TT2203GVMW     20220329180D0204150              AVSSH 1.25F R            CCN000000800000000800FN00000000020220301000000800NNE   20220128140122    1W    00000080000001458000000000032H0    TTTJY   000000000000NP323005
BI00B32H0    @TT2203GVMW    20220222181E50002ZZ              AVSSCS-S 0.3FX2 DGY/G    CCN000000350000000350FN00000000020220301000000350NNE   20220128140120    1W    00000035000002165000000000032H0    TTTJY   000000000000NO222002
BI00B32H0    @TT2203GVMW    20220222181E50036ZZ              AVSSCS-S 0.3FX2 DGY      CCN000000700000000700FN00000000020220301000000700NNE   20220128140120    1W    00000035000002165000000000032H0    TTTJY   000000000000NO222001
BI00B32J1    @390815        20220221181AD2001ZZ              CIVUSAS-S 0.35X1 B       CCN000018700000018700FN00000000020220201000018700NNE   20220128132722    1W    00000055000001540800000000032J1    UKYEL-BL000000000000KG222001
BI00B32J1    @390815        20220221181AD2002ZZ              CIVUSAS-S 0.35X2 B       CCN000017100000017100FN00000000020220201000017100NNE   20220128132722    1W    00000045000001713700000000032J1    UKYEL-BL000000000000KG222002
BI00B32J1    @390815        20220221181AD2003ZZ              CIVUSAS-S 0.35X3 B       CCN000002450000002450FN00000000020220201000002450NNE   20220128132722    1W    00000035000002172100000000032J1    UKYEL-BL000000000000KG222003
BI00B32J1    @390815        20220221181AD2004ZZ              CIVUSAS-S 0.35X4 B       CCN000000900000000900FN00000000020220201000000900NNE   20220128132722    1W    00000030000002799900000000032J1    UKYEL-BL000000000000KG222004
BI00B32J1    @390815        20220221181E48018ZZ              CAVSAS-S 0.5X2 GY/SB     CCN000001200000001200FN00000000020220201000001200NNE   20220128132722    1W    00000030000002561000000000032J1    UKYEL-BL000000000000KG222006
BI00B32J1    @390815        20220221181E48022ZZ              CAVSAS-S 0.5X2 GY        CCN000001500000001500FN00000000020220201000001500NNE   20220128132722    1W    00000030000002561000000000032J1    UKYEL-BL000000000000KG222005
BI00B32M3    SM2202AEMW     202202101800770375U              AVSS 0.3F BE             CCN000004000000002000FN00000000020220201000002000NNE00 20220128081754    1W    00000200000000496000000000032M3    SASAMI  000000000000QR421001
BI00B32M3    SM2202AEMW     2022021018007703743              AVSS 0.3F W/B            CCN000004000000002000FN00000000020220201000002000NNE00 20220128081713    1W    00000200000000496000000000032M3    SASAMI  000000000000QR421002
BI00B32M3    SM2202AEMW     2022021018007704192              AVSS 1.25F V             CCN000001600000000800FN00000000020220201000000800NNE00 20220128081825    1W    00000080000001389000000000032M3    SASAMI  000000000000QR421003
BI00A32M3    SM2202AEMW     2022020418007704140              AVSS 1.25F W             CCN000000800000000800FN00000000020220201000000800NNE20 20220128150336    1W    00000080000001389000000000032M3    SASAMI  000000000000QR421004
BI00A32M3    SM2202E MW     2022020418007703780              AVSS 0.3F BR             CCN000002000000002000FN00000000020220201000002000NNE20 20220128150336    1W    00000200000000496000000000032M3    SASAMI  000000000000QT421001
BI00B32M3    SM2202E MW     2022021018007703761              AVSS 0.3F LG             CCN000004000000002000FN00000000020220201000002000NNE00 20220128082432    1W    00000200000000496000000000032M3    SASAMI  000000000000QT421002
BI00A32M3    SM2202E MW     2022020418007703752              AVSS 0.3F P              CCN000002000000002000FN00000000020220201000002000NNE20 20220128150336    1W    00000200000000496000000000032M3    SASAMI  000000000000QT421003
BI00B32M3    SM2202E MW     2022021018007703791              AVSS 0.3F SB             CCN000004000000002000FN00000000020220201000002000NNE00 20220128082212    1W    00000200000000496000000000032M3    SASAMI  000000000000QT421004
BI00A32M3    SM2202E MW     2022020418007703792              AVSS 0.3F V              CCN000002000000002000FN00000000020220201000002000NNE20 20220128150336    1W    00000200000000496000000000032M3    SASAMI  000000000000QT421005
BI00B32M3    SM2202E MW     2022021018007703740              AVSS 0.3F W              CCN000004000000002000FN00000000020220201000002000NNE00 20220128082340    1W    00000200000000496000000000032M3    SASAMI  000000000000QT421006
BI00A32M3    SM2202E MW     2022020418007703960              AVSS 0.5F G              CCN000001500000001500FN00000000020220201000001500NNE20 20220128150336    1W    00000150000000674000000000032M3    SASAMI  000000000000QT421007
BI00A32M3    SM2202E MW     2022020418007703941              AVSS 0.5F GY             CCN000001500000001500FN00000000020220201000001500NNE20 20220128150336    1W    00000150000000674000000000032M3    SASAMI  000000000000QT421008
BI00A32M3    SM2202E MW     2022020418007703991              AVSS 0.5F SB             CCN000001500000001500FN00000000020220201000001500NNE20 20220128150336    1W    00000150000000674000000000032M3    SASAMI  000000000000QT421009
BI00B32M3    SM2202E MW     2022021018007703992              AVSS 0.5F V              CCN000003000000001500FN00000000020220201000001500NNE00 20220128082237    1W    00000150000000674000000000032M3    SASAMI  000000000000QT421010
BI00A32M3    SM2202E MW     2022020418007704180              AVSS 1.25F BR            CCN000000800000000800FN00000000020220201000000800NNE20 20220128150336    1W    00000080000001389000000000032M3    SASAMI  000000000000QT421011
BI00B32M3    SM2202E MW     2022021018007704160              AVSS 1.25F G             CCN000001600000000800FN00000000020220201000000800NNE00 20220128082129    1W    00000080000001389000000000032M3    SASAMI  000000000000QT421012
BI00A32M3    SM2202E MW     2022020418007704190              AVSS 1.25F L             CCN000000800000000800FN00000000020220201000000800NNE20 20220128150336    1W    00000080000001389000000000032M3    SASAMI  000000000000QT421013
BI00A32M3    SM2202F MW     2022020418007704161              AVSS 1.25F LG            CCN000000800000000800FN00000000020220201000000800NNE20 20220128150336    1W    00000080000001389000000000032M3    SASAMI  000000000000QU421001
BI00A32M3    SM2202AEMW     2022020418007703743              AVSS 0.3F W/B            CCN000002000000002000FN00000000020220201000002000NNE20 20220128150336    1W    00000200000000496000000000032M3    SASAMI  000000000000QR421002
BI00A32M3    SM2202AEMW     202202041800770375U              AVSS 0.3F BE             CCN000002000000002000FN00000000020220201000002000NNE20 20220128150336    1W    00000200000000496000000000032M3    SASAMI  000000000000QR421001
BI00A32M3    SM2202AEMW     2022020418007704192              AVSS 1.25F V             CCN000000800000000800FN00000000020220201000000800NNE20 20220128150336    1W    00000080000001389000000000032M3    SASAMI  000000000000QR421003
BI00A32M3    SM2202E MW     2022020418007704160              AVSS 1.25F G             CCN000000800000000800FN00000000020220201000000800NNE20 20220128150336    1W    00000080000001389000000000032M3    SASAMI  000000000000QT421012
BI00A32M3    SM2202E MW     2022020418007703791              AVSS 0.3F SB             CCN000002000000002000FN00000000020220201000002000NNE20 20220128150336    1W    00000200000000496000000000032M3    SASAMI  000000000000QT421004
BI00A32M3    SM2202E MW     2022020418007703992              AVSS 0.5F V              CCN000001500000001500FN00000000020220201000001500NNE20 20220128150336    1W    00000150000000674000000000032M3    SASAMI  000000000000QT421010
BI00A32M3    SM2202E MW     2022020418007703740              AVSS 0.3F W              CCN000002000000002000FN00000000020220201000002000NNE20 20220128150336    1W    00000200000000496000000000032M3    SASAMI  000000000000QT421006
BI00A32M3    SM2202E MW     2022020418007703761              AVSS 0.3F LG             CCN000002000000002000FN00000000020220201000002000NNE20 20220128150336    1W    00000200000000496000000000032M3    SASAMI  000000000000QT421002
BI00B32R8    TT22051AMW     20220322180D0203937              AVSSH 0.5F B/Y           CCN000001500000001500FN00000000020220501000001500NNM   20220128104602    1W    00000150000000689000000000032R8    TTTJY   000000000000NZ223001
BI00B32R8    TT22051AMW     20220322180D0203980              AVSSH 0.5F BR            CCN000003000000003000FN00000000020220501000003000NNM   20220128104602    1W    00000150000000689000000000032R8    TTTJY   000000000000NZ223002
BI00B32R8    TT22051AMW     20220322180D0203963              AVSSH 0.5F G/B           CCN000001500000001500FN00000000020220501000001500NNM   20220128104602    1W    00000150000000689000000000032R8    TTTJY   000000000000NZ223003
BI00B32R8    TT22051AMW     20220322180D0203995              AVSSH 0.5F L/R           CCN000003000000003000FN00000000020220501000003000NNM   20220128104602    1W    00000150000000689000000000032R8    TTTJY   000000000000NZ223004
BI00B32R8    TT22051AMW     20220322180D0203917              AVSSH 0.5F LG/B          CCN000001500000001500FN00000000020220501000001500NNM   20220128104602    1W    00000150000000689000000000032R8    TTTJY   000000000000NZ223005
BI00B32R8    TT22051AMW     20220322180D02039G6              AVSSH 0.5F P/L           CCN000001500000001500FN00000000020220501000001500NNM   20220128104602    1W    00000150000000689000000000032R8    TTTJY   000000000000NZ223006
BI00B32R8    TT22051AMW     20220322180D0203959              AVSSH 0.5F R/L           CCN000001500000001500FN00000000020220501000001500NNM   20220128104602    1W    00000150000000689000000000032R8    TTTJY   000000000000NZ223007
BI00B32R8    TT22051AMW     20220322180D0203992              AVSSH 0.5F V             CCN000001500000001500FN00000000020220501000001500NNM   20220128104602    1W    00000150000000689000000000032R8    TTTJY   000000000000NZ223008
BI00B32R8    TT22051AMW     20220322180D0203943              AVSSH 0.5F W/B           CCN000006000000006000FN00000000020220501000006000NNM   20220128104602    1W    00000150000000689000000000032R8    TTTJY   000000000000NZ223009
BI00B32R8    TT22051AMW     20220322180D0203946              AVSSH 0.5F W/G           CCN000001500000001500FN00000000020220501000001500NNM   20220128104602    1W    00000150000000689000000000032R8    TTTJY   000000000000NZ223010
BI00B32R8    TT22051AMW     20220322180D0203945              AVSSH 0.5F W/R           CCN000001500000001500FN00000000020220501000001500NNM   20220128104602    1W    00000150000000689000000000032R8    TTTJY   000000000000NZ223011
BI00B32R8    TT22051AMW     20220322180D0203976              AVSSH 0.5F Y/G           CCN000001500000001500FN00000000020220501000001500NNM   20220128104602    1W    00000150000000689000000000032R8    TTTJY   000000000000NZ223012
BI00B32R8    TT22051AMW     20220322180D0204143              AVSSH 1.25F W/B          CCN000000800000000800FN00000000020220501000000800NNM   20220128104602    1W    00000080000001458000000000032R8    TTTJY   000000000000NZ223013
BI00A32W4    @4500188067    20220310181D6910239              AVSSHCS 0.5FX2 B/L       CCN000023400000023400FN00000000020220301000023400NNE   20220128164331W4A21W    00000030000002385000000000032W4A2  HJYHK-J 000000000000OX422001
BI00A32W4    @4500188142    20220328181D6910239              AVSSHCS 0.5FX2 B/L       CCN000001200000001200FN00000000020220301000001200NNE   20220128164332W4421W    00000030000002385000000000032W442  HJYHK-J 000000000000ON323001
BI00B32W4    4500188231     2022031518018404060              CAVS 0.85 G              CCN000003000000003000FN00000000020220301000003000NNE   20220128164335W41 1W    00000100000000965000000000032W41   HJYHK-J 000000000000OL123002
BI00B32W4    4500188231     2022031518018404070              CAVS 0.85 Y              CCN000003000000003000FN00000000020220301000003000NNE   20220128164335W41 1W    00000100000000965000000000032W41   HJYHK-J 000000000000OL123004
BI00B32W4    4500188231     2022031518018404080              CAVS 0.85 BR             CCN000002000000002000FN00000000020220301000002000NNE   20220128164335W41 1W    00000100000000965000000000032W41   HJYHK-J 000000000000OL123001
BI00B32W4    4500188231     2022031518018404091              CAVS 0.85 SB             CCN000003000000003000FN00000000020220301000003000NNE   20220128164335W41 1W    00000100000000965000000000032W41   HJYHK-J 000000000000OL123003
BI00B32W4    @4500188240    20220405181B32037Y5              AVSSCS 0.3FX1 DGY/W      CCN000008500000008500FN00000000020220401000008500NNE   20220128164337W4171W    00000050000001780000000000032W417  HJYHK-J 000000000000OS423001
BI00B32W4    4500188484     2022031518018403992              CAVS 0.5 V               CCN000009000000009000FN00000000020220301000009000NNE   20220128164336W41 1W    00000150000000677000000000032W41   HJYHK-J 000000000000OM123003
BI00B32W4    4500188484     2022031518001403930              AV 0.5F B                CCN000003000000003000FN00000000020220301000003000NNE   20220128164336W41 1W    00000100000000903000000000032W41   HJYHK-J 000000000000OM123001
BI00B32W4    4500188484     2022031518001403946              AV 0.5F W/G              CCN000003000000003000FN00000000020220301000003000NNE   20220128164336W41 1W    00000100000000903000000000032W41   HJYHK-J 000000000000OM123002
BI00B32W4    4500188569     2022022218009603930              AVS 0.5 B                CCN000002000000002000FN00000000020220201000002000NNE   20220128164329W42 1W    00000100000000850000000000032W42   HJYHK-J 000000000000OJ222002
BI00B32W4    4500188569     2022022218009603960              AVS 0.5 G                CCN000001000000001000FN00000000020220201000001000NNE   20220128164329W42 1W    00000100000000850000000000032W42   HJYHK-J 000000000000OJ222003
BI00B32W4    4500188569     2022022218009603997              AVS 0.5 L/Y              CCN000001000000001000FN00000000020220201000001000NNE   20220128164329W42 1W    00000100000000850000000000032W42   HJYHK-J 000000000000OJ222004
BI00B32W4    4500188569     2022022218009603954              AVS 0.5 R/W              CCN000001000000001000FN00000000020220201000001000NNE   20220128164329W42 1W    00000100000000850000000000032W42   HJYHK-J 000000000000OJ222005
BI00B32W4    4500188569     2022022218009603940              AVS 0.5 W                CCN000001000000001000FN00000000020220201000001000NNE   20220128164329W42 1W    00000100000000850000000000032W42   HJYHK-J 000000000000OJ222006
BI00B32W4    4500188569     2022022218009604030              AVS 0.85 B               CCN000009000000009000FN00000000020220201000009000NNE   20220128164329W42 1W    00000100000001167700000000032W42   HJYHK-J 000000000000OJ222007
BI00B32W4    4500188569     2022022218009604090              AVS 0.85 L               CCN000002000000002000FN00000000020220201000002000NNE   20220128164329W42 1W    00000100000001167700000000032W42   HJYHK-J 000000000000OJ222008
BI00B32W4    4500188569     2022022218009604094              AVS 0.85 L/W             CCN000001000000001000FN00000000020220201000001000NNE   20220128164329W42 1W    00000100000001167700000000032W42   HJYHK-J 000000000000OJ222009
BI00B32W4    4500188569     2022022218009604052              AVS 0.85 P               CCN000001000000001000FN00000000020220201000001000NNE   20220128164329W42 1W    00000100000001167700000000032W42   HJYHK-J 000000000000OJ222010
BI00B32W4    4500188569     2022022218009604050              AVS 0.85 R               CCN000002000000002000FN00000000020220201000002000NNE   20220128164329W42 1W    00000100000001167700000000032W42   HJYHK-J 000000000000OJ222011
BI00B32W4    4500188569     2022022218009604040              AVS 0.85 W               CCN000003000000003000FN00000000020220201000003000NNE   20220128164329W42 1W    00000100000001167700000000032W42   HJYHK-J 000000000000OJ222012
BI00B32W4    4500188569     2022022218009604130              AVS 1.25 B               CCN000003200000003200FN00000000020220201000003200NNE   20220128164329W42 1W    00000080000001643000000000032W42   HJYHK-J 000000000000OJ222013
BI00B32W4    4500188569     2022022218009604230              AVS 2 B                  CCN000001500000001500FN00000000020220201000001500NNE   20220128164329W42 1W    00000050000002456500000000032W42   HJYHK-J 000000000000OJ222014
BI00B32W4    4500188569     2022022218009604250              AVS 2 R                  CCN000000500000000500FN00000000020220201000000500NNE   20220128164329W42 1W    00000050000002456500000000032W42   HJYHK-J 000000000000OJ222015
BI00B32W4    4500188569     2022022218009604330              AVS 3 B                  CCN000002800000002800FN00000000020220201000002800NNE   20220128164329W42 1W    00000040000003831600000000032W42   HJYHK-J 000000000000OJ222016
BI00B32W4    4500188569     2022022218007704230              AVSS 2F B                CCN000000500000000500FN00000000020220201000000500NNE   20220128164329W42 1W    00000050000002126400000000032W42   HJYHK-J 000000000000OJ222001
BI00B32W4    4500188569     2022022218018403730              CAVS 0.3 B               CCN000012000000012000FN00000000020220201000012000NNE   20220128164329W42 1W    00000200000000471000000000032W42   HJYHK-J 000000000000OJ222017
BI00B32W4    4500188569     2022022218018403739              CAVS 0.3 B/L             CCN000002000000002000FN00000000020220201000002000NNE   20220128164329W42 1W    00000200000000471000000000032W42   HJYHK-J 000000000000OJ222018
BI00B32W4    4500188569     2022022218018403734              CAVS 0.3 B/W             CCN000004000000004000FN00000000020220201000004000NNE   20220128164329W42 1W    00000200000000471000000000032W42   HJYHK-J 000000000000OJ222019
BI00B32W4    4500188569     2022022218018403751              CAVS 0.3 O               CCN000002000000002000FN00000000020220201000002000NNE   20220128164329W42 1W    00000200000000471000000000032W42   HJYHK-J 000000000000OJ222020
BI00B32W4    4500188569     2022022218018403756              CAVS 0.3 R/G             CCN000004000000004000FN00000000020220201000004000NNE   20220128164329W42 1W    00000200000000471000000000032W42   HJYHK-J 000000000000OJ222021
BI00B32W4    4500188569     2022022218018403930              CAVS 0.5 B               CCN000003000000003000FN00000000020220201000003000NNE   20220128164329W42 1W    00000150000000677000000000032W42   HJYHK-J 000000000000OJ222022
BI00B32W4    4500188569     2022022218018403939              CAVS 0.5 B/L             CCN000003000000003000FN00000000020220201000003000NNE   20220128164329W42 1W    00000150000000677000000000032W42   HJYHK-J 000000000000OJ222023
BI00B32W4    4500188569     2022022218018403935              CAVS 0.5 B/R             CCN000018000000018000FN00000000020220201000018000NNE   20220128164329W42 1W    00000150000000677000000000032W42   HJYHK-J 000000000000OJ222024
BI00B32W4    4500188569     2022022218018403934              CAVS 0.5 B/W             CCN000007500000007500FN00000000020220201000007500NNE   20220128164329W42 1W    00000150000000677000000000032W42   HJYHK-J 000000000000OJ222025
BI00B32W4    4500188569     2022022218018403960              CAVS 0.5 G               CCN000001500000001500FN00000000020220201000001500NNE   20220128164329W42 1W    00000150000000677000000000032W42   HJYHK-J 000000000000OJ222026
BI00B32W4    4500188569     2022022218018403990              CAVS 0.5 L               CCN000003000000003000FN00000000020220201000003000NNE   20220128164329W42 1W    00000150000000677000000000032W42   HJYHK-J 000000000000OJ222027
BI00B32W4    4500188569     2022022218018403995              CAVS 0.5 L/R             CCN000001500000001500FN00000000020220201000001500NNE   20220128164329W42 1W    00000150000000677000000000032W42   HJYHK-J 000000000000OJ222028
BI00B32W4    4500188569     2022022218018403994              CAVS 0.5 L/W             CCN000004500000004500FN00000000020220201000004500NNE   20220128164329W42 1W    00000150000000677000000000032W42   HJYHK-J 000000000000OJ222029
BI00B32W4    4500188569     2022022218018403997              CAVS 0.5 L/Y             CCN000004500000004500FN00000000020220201000004500NNE   20220128164329W42 1W    00000150000000677000000000032W42   HJYHK-J 000000000000OJ222030
BI00B32W4    4500188569     2022022218018403950              CAVS 0.5 R               CCN000001500000001500FN00000000020220201000001500NNE   20220128164329W42 1W    00000150000000677000000000032W42   HJYHK-J 000000000000OJ222031
BI00B32W4    4500188569     2022022218018403956              CAVS 0.5 R/G             CCN000003000000003000FN00000000020220201000003000NNE   20220128164329W42 1W    00000150000000677000000000032W42   HJYHK-J 000000000000OJ222032
BI00B32W4    4500188569     2022022218018403940              CAVS 0.5 W               CCN000003000000003000FN00000000020220201000003000NNE   20220128164329W42 1W    00000150000000677000000000032W42   HJYHK-J 000000000000OJ222033
BI00B32W4    4500188569     2022022218018403943              CAVS 0.5 W/B             CCN000003000000003000FN00000000020220201000003000NNE   20220128164329W42 1W    00000150000000677000000000032W42   HJYHK-J 000000000000OJ222034
BI00B32W4    4500188569     2022022218018403949              CAVS 0.5 W/L             CCN000003000000003000FN00000000020220201000003000NNE   20220128164329W42 1W    00000150000000677000000000032W42   HJYHK-J 000000000000OJ222035
BI00B32W4    4500188569     2022022218018403945              CAVS 0.5 W/R             CCN000004500000004500FN00000000020220201000004500NNE   20220128164329W42 1W    00000150000000677000000000032W42   HJYHK-J 000000000000OJ222036
BI00B32W4    4500188569     2022022218018404160              CAVS 1.25 G              CCN000000800000000800FN00000000020220201000000800NNE   20220128164329W42 1W    00000080000001378000000000032W42   HJYHK-J 000000000000OJ222037
BI00B32W4    4500188599     2022032918007703930              AVSS 0.5F B              CCN000004500000004500FN00000000020220301000004500NNE   20220128164336W4K81W    00000150000000674000000000032W4K8  HJYHK-J 000000000000OO323005
BI00B32W4    4500188599     2022032918007703951              AVSS 0.5F O              CCN000001500000001500FN00000000020220301000001500NNE   20220128164336W4K81W    00000150000000674000000000032W4K8  HJYHK-J 000000000000OO323010
BI00B32W4    4500188599     2022032918007703956              AVSS 0.5F R/G            CCN000001500000001500FN00000000020220301000001500NNE   20220128164336W4K81W    00000150000000674000000000032W4K8  HJYHK-J 000000000000OO323011
BI00B32W4    4500188599     2022032918007703960              AVSS 0.5F G              CCN000001500000001500FN00000000020220301000001500NNE   20220128164336W4K81W    00000150000000674000000000032W4K8  HJYHK-J 000000000000OO323006
BI00B32W4    4500188599     2022032918007703963              AVSS 0.5F G/B            CCN000001500000001500FN00000000020220301000001500NNE   20220128164336W4K81W    00000150000000674000000000032W4K8  HJYHK-J 000000000000OO323007
BI00B32W4    4500188599     2022032918007703965              AVSS 0.5F G/R            CCN000001500000001500FN00000000020220301000001500NNE   20220128164336W4K81W    00000150000000674000000000032W4K8  HJYHK-J 000000000000OO323008
BI00B32W4    4500188599     2022032918007703967              AVSS 0.5F G/Y            CCN000001500000001500FN00000000020220301000001500NNE   20220128164336W4K81W    00000150000000674000000000032W4K8  HJYHK-J 000000000000OO323009
BI00B32W4    4500188599     2022032918007704187              AVSS 1.25F BR/Y          CCN000000800000000800FN00000000020220301000000800NNE   20220128164336W4K81W    00000080000001389000000000032W4K8  HJYHK-J 000000000000OO323012
BI00B32W4    4500188599     2022032918007704194              AVSS 1.25F L/W           CCN000001600000001600FN00000000020220301000001600NNE   20220128164336W4K81W    00000080000001389000000000032W4K8  HJYHK-J 000000000000OO323014
BI00B32W4    4500188599     2022032918007704195              AVSS 1.25F L/R           CCN000001600000001600FN00000000020220301000001600NNE   20220128164336W4K81W    00000080000001389000000000032W4K8  HJYHK-J 000000000000OO323013
BI00B32W4    4500188599     2022032918007704230              AVSS 2F B                CCN000001500000001500FN00000000020220301000001500NNE   20220128164336W4K81W    00000050000002126400000000032W4K8  HJYHK-J 000000000000OO323015
BI00B32W4    4500188599     2022032918007704287              AVSS 2F BR/Y             CCN000001000000001000FN00000000020220301000001000NNE   20220128164336W4K81W    00000050000002126400000000032W4K8  HJYHK-J 000000000000OO323016
BI00B32W4    4500188599     2022032918018403707              CAVS 0.3 P/B             CCN000008000000008000FN00000000020220301000008000NNE   20220128164336W4K81W    00000200000000471000000000032W4K8  HJYHK-J 000000000000OO323071
BI00B32W4    4500188599     2022032918018403730              CAVS 0.3 B               CCN000016000000016000FN00000000020220301000016000NNE   20220128164336W4K81W    00000200000000471000000000032W4K8  HJYHK-J 000000000000OO323065
BI00B32W4    4500188599     2022032918018403734              CAVS 0.3 B/W             CCN000010000000010000FN00000000020220301000010000NNE   20220128164336W4K81W    00000200000000471000000000032W4K8  HJYHK-J 000000000000OO323066
BI00B32W4    4500188599     2022032918018403740              CAVS 0.3 W               CCN000020000000020000FN00000000020220301000020000NNE   20220128164336W4K81W    00000200000000471000000000032W4K8  HJYHK-J 000000000000OO323076
BI00B32W4    4500188599     2022032918018403741              CAVS 0.3 GY              CCN000012000000012000FN00000000020220301000012000NNE   20220128164336W4K81W    00000200000000471000000000032W4K8  HJYHK-J 000000000000OO323068
BI00B32W4    4500188599     2022032918018403743              CAVS 0.3 W/B             CCN000006000000006000FN00000000020220301000006000NNE   20220128164336W4K81W    00000200000000471000000000032W4K8  HJYHK-J 000000000000OO323077
BI00B32W4    4500188599     2022032918018403749              CAVS 0.3 W/L             CCN000012000000012000FN00000000020220301000012000NNE   20220128164336W4K81W    00000200000000471000000000032W4K8  HJYHK-J 000000000000OO323078
BI00B32W4    4500188599     2022032918018403750              CAVS 0.3 R               CCN000014000000014000FN00000000020220301000014000NNE   20220128164336W4K81W    00000200000000471000000000032W4K8  HJYHK-J 000000000000OO323073
BI00B32W4    4500188599     2022032918018403760              CAVS 0.3 G               CCN000016000000016000FN00000000020220301000016000NNE   20220128164336W4K81W    00000200000000471000000000032W4K8  HJYHK-J 000000000000OO323067
BI00B32W4    4500188599     2022032918018403790              CAVS 0.3 L               CCN000018000000018000FN00000000020220301000018000NNE   20220128164336W4K81W    00000200000000471000000000032W4K8  HJYHK-J 000000000000OO323069
BI00B32W4    4500188599     2022032918018403792              CAVS 0.3 V               CCN000014000000014000FN00000000020220301000014000NNE   20220128164336W4K81W    00000200000000471000000000032W4K8  HJYHK-J 000000000000OO323075
BI00B32W4    4500188599     2022032918018403930              CAVS 0.5 B               CCN000054000000054000FN00000000020220301000054000NNE   20220128164336W4K81W    00000150000000677000000000032W4K8  HJYHK-J 000000000000OO323079
BI00B32W4    4500188599     2022032918018403934              CAVS 0.5 B/W             CCN000028500000028500FN00000000020220301000028500NNE   20220128164336W4K81W    00000150000000677000000000032W4K8  HJYHK-J 000000000000OO323080
BI00B32W4    4500188599     2022032918018403940              CAVS 0.5 W               CCN000030000000030000FN00000000020220301000030000NNE   20220128164336W4K81W    00000150000000677000000000032W4K8  HJYHK-J 000000000000OO323094
BI00B32W4    4500188599     2022032918018403941              CAVS 0.5 GY              CCN000048000000048000FN00000000020220301000048000NNE   20220128164336W4K81W    00000150000000677000000000032W4K8  HJYHK-J 000000000000OO323084
BI00B32W4    4500188599     2022032918018403943              CAVS 0.5 W/B             CCN000037500000037500FN00000000020220301000037500NNE   20220128164336W4K81W    00000150000000677000000000032W4K8  HJYHK-J 000000000000OO323095
BI00B32W4    4500188599     2022032918018403950              CAVS 0.5 R               CCN000025500000025500FN00000000020220301000025500NNE   20220128164336W4K81W    00000150000000677000000000032W4K8  HJYHK-J 000000000000OO323090
BI00B32W4    4500188599     2022032918018403952              CAVS 0.5 P               CCN000045000000045000FN00000000020220301000045000NNE   20220128164336W4K81W    00000150000000677000000000032W4K8  HJYHK-J 000000000000OO323089
BI00B32W4    4500188599     2022032918018403954              CAVS 0.5 R/W             CCN000031500000031500FN00000000020220301000031500NNE   20220128164336W4K81W    00000150000000677000000000032W4K8  HJYHK-J 000000000000OO323091
BI00B32W4    4500188599     2022032918018403960              CAVS 0.5 G               CCN000058500000058500FN00000000020220301000058500NNE   20220128164336W4K81W    00000150000000677000000000032W4K8  HJYHK-J 000000000000OO323082
BI00B32W4    4500188599     2022032918018403961              CAVS 0.5 LG              CCN000051000000051000FN00000000020220301000051000NNE   20220128164336W4K81W    00000150000000677000000000032W4K8  HJYHK-J 000000000000OO323088
BI00B32W4    4500188599     2022032918018403964              CAVS 0.5 G/W             CCN000016500000016500FN00000000020220301000016500NNE   20220128164336W4K81W    00000150000000677000000000032W4K8  HJYHK-J 000000000000OO323083
BI00B32W4    4500188599     2022032918018403970              CAVS 0.5 Y               CCN000025500000025500FN00000000020220301000025500NNE   20220128164336W4K81W    00000150000000677000000000032W4K8  HJYHK-J 000000000000OO323096
BI00B32W4    4500188599     2022032918018403980              CAVS 0.5 BR              CCN000021000000021000FN00000000020220301000021000NNE   20220128164336W4K81W    00000150000000677000000000032W4K8  HJYHK-J 000000000000OO323081
BI00B32W4    4500188599     2022032918018403990              CAVS 0.5 L               CCN000037500000037500FN00000000020220301000037500NNE   20220128164336W4K81W    00000150000000677000000000032W4K8  HJYHK-J 000000000000OO323085
BI00B32W4    4500188599     2022032918018403991              CAVS 0.5 SB              CCN000039000000039000FN00000000020220301000039000NNE   20220128164336W4K81W    00000150000000677000000000032W4K8  HJYHK-J 000000000000OO323092
BI00B32W4    4500188599     2022032918018403992              CAVS 0.5 V               CCN000027000000027000FN00000000020220301000027000NNE   20220128164336W4K81W    00000150000000677000000000032W4K8  HJYHK-J 000000000000OO323093
BI00B32W4    4500188599     2022032918018403995              CAVS 0.5 L/R             CCN000018000000018000FN00000000020220301000018000NNE   20220128164336W4K81W    00000150000000677000000000032W4K8  HJYHK-J 000000000000OO323086
BI00B32W4    4500188599     2022032918018404043              CAVS 0.85 W/B            CCN000006000000006000FN00000000020220301000006000NNE   20220128164336W4K81W    00000100000000965000000000032W4K8  HJYHK-J 000000000000OO323101
BI00B32W4    4500188599     2022032918018404052              CAVS 0.85 P              CCN000008000000008000FN00000000020220301000008000NNE   20220128164336W4K81W    00000100000000965000000000032W4K8  HJYHK-J 000000000000OO323099
BI00B32W4    4500188599     2022032918018404061              CAVS 0.85 LG             CCN000008000000008000FN00000000020220301000008000NNE   20220128164336W4K81W    00000100000000965000000000032W4K8  HJYHK-J 000000000000OO323098
BI00B32W4    4500188599     2022032918018404090              CAVS 0.85 L              CCN000014000000014000FN00000000020220301000014000NNE   20220128164336W4K81W    00000100000000965000000000032W4K8  HJYHK-J 000000000000OO323097
BI00B32W4    4500188599     2022032918018404092              CAVS 0.85 V              CCN000009000000009000FN00000000020220301000009000NNE   20220128164336W4K81W    00000100000000965000000000032W4K8  HJYHK-J 000000000000OO323100
BI00B32W4    4500188599     2022032918018404130              CAVS 1.25 B              CCN000048000000048000FN00000000020220301000048000NNE   20220128164336W4K81W    00000080000001378000000000032W4K8  HJYHK-J 000000000000OO323102
BI00B32W4    4500188599     2022032918018404134              CAVS 1.25 B/W            CCN000000800000000800FN00000000020220301000000800NNE   20220128164336W4K81W    00000080000001378000000000032W4K8  HJYHK-J 000000000000OO323104
BI00B32W4    4500188599     2022032918018404135              CAVS 1.25 B/R            CCN000000800000000800FN00000000020220301000000800NNE   20220128164336W4K81W    00000080000001378000000000032W4K8  HJYHK-J 000000000000OO323103
BI00B32W4    4500188599     2022032918018404140              CAVS 1.25 W              CCN000013600000013600FN00000000020220301000013600NNE   20220128164336W4K81W    00000080000001378000000000032W4K8  HJYHK-J 000000000000OO323112
BI00B32W4    4500188599     2022032918018404141              CAVS 1.25 GY             CCN000046400000046400FN00000000020220301000046400NNE   20220128164336W4K81W    00000080000001378000000000032W4K8  HJYHK-J 000000000000OO323106
BI00B32W4    4500188599     2022032918018404143              CAVS 1.25 W/B            CCN000032000000032000FN00000000020220301000032000NNE   20220128164336W4K81W    00000080000001378000000000032W4K8  HJYHK-J 000000000000OO323113
BI00B32W4    4500188599     2022032918018404145              CAVS 1.25 W/R            CCN000028000000028000FN00000000020220301000028000NNE   20220128164336W4K81W    00000080000001378000000000032W4K8  HJYHK-J 000000000000OO323115
BI00B32W4    4500188599     2022032918018404146              CAVS 1.25 W/G            CCN000044000000044000FN00000000020220301000044000NNE   20220128164336W4K81W    00000080000001378000000000032W4K8  HJYHK-J 000000000000OO323114
BI00B32W4    4500188599     2022032918018404150              CAVS 1.25 R              CCN000014400000014400FN00000000020220301000014400NNE   20220128164336W4K81W    00000080000001378000000000032W4K8  HJYHK-J 000000000000OO323110
BI00B32W4    4500188599     2022032918018404152              CAVS 1.25 P              CCN000022400000022400FN00000000020220301000022400NNE   20220128164336W4K81W    00000080000001378000000000032W4K8  HJYHK-J 000000000000OO323109
BI00B32W4    4500188599     2022032918018404160              CAVS 1.25 G              CCN000026400000026400FN00000000020220301000026400NNE   20220128164336W4K81W    00000080000001378000000000032W4K8  HJYHK-J 000000000000OO323105
BI00B32W4    4500188599     2022032918018404161              CAVS 1.25 LG             CCN000008800000008800FN00000000020220301000008800NNE   20220128164336W4K81W    00000080000001378000000000032W4K8  HJYHK-J 000000000000OO323108
BI00B32W4    4500188599     2022032918018404192              CAVS 1.25 V              CCN000026400000026400FN00000000020220301000026400NNE   20220128164336W4K81W    00000080000001378000000000032W4K8  HJYHK-J 000000000000OO323111
BI00B32W4    4500188599     2022032918018404193              CAVS 1.25 L/B            CCN000000800000000800FN00000000020220301000000800NNE   20220128164336W4K81W    00000080000001378000000000032W4K8  HJYHK-J 000000000000OO323107
BI00B32W4    4500188599     20220329180184037H2              CAVS 0.3 P/G             CCN000010000000010000FN00000000020220301000010000NNE   20220128164336W4K81W    00000200000000471000000000032W4K8  HJYHK-J 000000000000OO323072
BI00B32W4    4500188599     20220329180T8403970              ACCAVS 0.5 Y             CCN000010500000010500FN00000000020220301000010500NNE   20220128164336W4K81W    00000150000000674300000000032W4K8  HJYHK-J 000000000000OO323003
BI00B32W4    4500188599     20220329180T8403973              ACCAVS 0.5 Y/B           CCN000010500000010500FN00000000020220301000010500NNE   20220128164336W4K81W    00000150000000674300000000032W4K8  HJYHK-J 000000000000OO323004
BI00B32W4    4500188599     2022032918018403994              CAVS 0.5 L/W             CCN000001500000001500FN00000000020220301000001500NNE   20220128164336W4K81W    00000150000000677000000000032W4K8  HJYHK-J 000000000000OO323087
BI00B32W4    4500188599     2022032918018403761              CAVS 0.3 LG              CCN000004000000004000FN00000000020220301000004000NNE   20220128164336W4K81W    00000200000000471000000000032W4K8  HJYHK-J 000000000000OO323070
BI00B32W4    4500188599     2022032918018403791              CAVS 0.3 SB              CCN000004000000004000FN00000000020220301000004000NNE   20220128164336W4K81W    00000200000000471000000000032W4K8  HJYHK-J 000000000000OO323074
BI00B32W4    4500188599     202203291801R703940              CIVUS 0.5 W              CCN000044000000044000FN00000000020220301000044000NNE   20220128164336W4K81W    00000220000000525000000000032W4K8  HJYHK-J 000000000000OO323032
BI00B32W4    4500188599     202203291801R703991              CIVUS 0.5 SB             CCN000008800000008800FN00000000020220301000008800NNE   20220128164336W4K81W    00000220000000525000000000032W4K8  HJYHK-J 000000000000OO323030
BI00B32W4    4500188599     202203291801R706940              CIVUS 0.35 W             CCN000063000000063000FN00000000020220301000063000NNE   20220128164336W4K81W    00000300000000386000000000032W4K8  HJYHK-J 000000000000OO323061
BI00B32W4    4500188599     202203291801R706943              CIVUS 0.35 W/B           CCN000018000000018000FN00000000020220301000018000NNE   20220128164336W4K81W    00000300000000386000000000032W4K8  HJYHK-J 000000000000OO323062
BI00B32W4    4500188599     202203291801R706930              CIVUS 0.35 B             CCN000021000000021000FN00000000020220301000021000NNE   20220128164336W4K81W    00000300000000386000000000032W4K8  HJYHK-J 000000000000OO323050
BI00B32W4    4500188599     202203291801R70695U              CIVUS 0.35 BE            CCN000018000000018000FN00000000020220301000018000NNE   20220128164336W4K81W    00000300000000386000000000032W4K8  HJYHK-J 000000000000OO323051
BI00B32W4    4500188599     202203291801R706980              CIVUS 0.35 BR            CCN000048000000048000FN00000000020220301000048000NNE   20220128164336W4K81W    00000300000000386000000000032W4K8  HJYHK-J 000000000000OO323052
BI00B32W4    4500188599     202203291801R706960              CIVUS 0.35 G             CCN000024000000024000FN00000000020220301000024000NNE   20220128164336W4K81W    00000300000000386000000000032W4K8  HJYHK-J 000000000000OO323053
BI00B32W4    4500188599     202203291801R706941              CIVUS 0.35 GY            CCN000063000000063000FN00000000020220301000063000NNE   20220128164336W4K81W    00000300000000386000000000032W4K8  HJYHK-J 000000000000OO323054
BI00B32W4    4500188599     202203291801R706990              CIVUS 0.35 L             CCN000045000000045000FN00000000020220301000045000NNE   20220128164336W4K81W    00000300000000386000000000032W4K8  HJYHK-J 000000000000OO323055
BI00B32W4    4500188599     202203291801R706952              CIVUS 0.35 P             CCN000024000000024000FN00000000020220301000024000NNE   20220128164336W4K81W    00000300000000386000000000032W4K8  HJYHK-J 000000000000OO323057
BI00B32W4    4500188599     202203291801R706991              CIVUS 0.35 SB            CCN000045000000045000FN00000000020220301000045000NNE   20220128164336W4K81W    00000300000000386000000000032W4K8  HJYHK-J 000000000000OO323059
BI00B32W4    4500188599     202203291801R706992              CIVUS 0.35 V             CCN000039000000039000FN00000000020220301000039000NNE   20220128164336W4K81W    00000300000000386000000000032W4K8  HJYHK-J 000000000000OO323060
BI00B32W4    4500188599     202203291801R703952              CIVUS 0.5 P              CCN000030800000030800FN00000000020220301000030800NNE   20220128164336W4K81W    00000220000000525000000000032W4K8  HJYHK-J 000000000000OO323028
BI00B32W4    4500188599     202203291801R70395U              CIVUS 0.5 BE             CCN000015400000015400FN00000000020220301000015400NNE   20220128164336W4K81W    00000220000000525000000000032W4K8  HJYHK-J 000000000000OO323022
BI00B32W4    4500188599     202203291801R704052              CIVUS 0.75 P             CCN000006000000006000FN00000000020220301000006000NNE   20220128164336W4K81W    00000150000000765000000000032W4K8  HJYHK-J 000000000000OO323037
BI00B32W4    4500188599     202203291801R704043              CIVUS 0.75 W/B           CCN000001500000001500FN00000000020220301000001500NNE   20220128164336W4K81W    00000150000000765000000000032W4K8  HJYHK-J 000000000000OO323038
BI00B32W4    4500188599     202203291801R704080              CIVUS 0.75 BR            CCN000003000000003000FN00000000020220301000003000NNE   20220128164336W4K81W    00000150000000765000000000032W4K8  HJYHK-J 000000000000OO323035
BI00B32W4    4500188599     202203291801R704140              CIVUS 1.25 W             CCN000006000000006000FN00000000020220301000006000NNE   20220128164336W4K81W    00000100000001228000000000032W4K8  HJYHK-J 000000000000OO323048
BI00B32W4    4500188599     202203291801R704143              CIVUS 1.25 W/B           CCN000010000000010000FN00000000020220301000010000NNE   20220128164336W4K81W    00000100000001228000000000032W4K8  HJYHK-J 000000000000OO323049
BI00B32W4    4500188599     202203291801R704190              CIVUS 1.25 L             CCN000008000000008000FN00000000020220301000008000NNE   20220128164336W4K81W    00000100000001228000000000032W4K8  HJYHK-J 000000000000OO323042
BI00B32W4    4500188599     202203291801R704192              CIVUS 1.25 V             CCN000011000000011000FN00000000020220301000011000NNE   20220128164336W4K81W    00000100000001228000000000032W4K8  HJYHK-J 000000000000OO323047
BI00B32W4    4500188599     202203291801R70415U              CIVUS 1.25 BE            CCN000006000000006000FN00000000020220301000006000NNE   20220128164336W4K81W    00000100000001228000000000032W4K8  HJYHK-J 000000000000OO323040
BI00B32W4    4500188599     202203291801R704161              CIVUS 1.25 LG            CCN000015000000015000FN00000000020220301000015000NNE   20220128164336W4K81W    00000100000001228000000000032W4K8  HJYHK-J 000000000000OO323043
BI00B32W4    4500188599     202203291801R704150              CIVUS 1.25 R             CCN000006000000006000FN00000000020220301000006000NNE   20220128164336W4K81W    00000100000001228000000000032W4K8  HJYHK-J 000000000000OO323045
BI00B32W4    4500188599     202203291801R704191              CIVUS 1.25 SB            CCN000006000000006000FN00000000020220301000006000NNE   20220128164336W4K81W    00000100000001228000000000032W4K8  HJYHK-J 000000000000OO323046
BI00B32W4    4500188599     202203291801R706961              CIVUS 0.35 LG            CCN000030000000030000FN00000000020220301000030000NNE   20220128164336W4K81W    00000300000000386000000000032W4K8  HJYHK-J 000000000000OO323056
BI00B32W4    4500188599     202203291801R703980              CIVUS 0.5 BR             CCN000026400000026400FN00000000020220301000026400NNE   20220128164336W4K81W    00000220000000525000000000032W4K8  HJYHK-J 000000000000OO323023
BI00B32W4    4500188599     202203291801R704152              CIVUS 1.25 P             CCN000005000000005000FN00000000020220301000005000NNE   20220128164336W4K81W    00000100000001228000000000032W4K8  HJYHK-J 000000000000OO323044
BI00B32W4    4500188599     202203291801R703960              CIVUS 0.5 G              CCN000013200000013200FN00000000020220301000013200NNE   20220128164336W4K81W    00000220000000525000000000032W4K8  HJYHK-J 000000000000OO323024
BI00B32W4    4500188599     202203291801R704180              CIVUS 1.25 BR            CCN000020000000020000FN00000000020220301000020000NNE   20220128164336W4K81W    00000100000001228000000000032W4K8  HJYHK-J 000000000000OO323041
BI00B32W4    4500188599     202203291801R706950              CIVUS 0.35 R             CCN000030000000030000FN00000000020220301000030000NNE   20220128164336W4K81W    00000300000000386000000000032W4K8  HJYHK-J 000000000000OO323058
BI00B32W4    4500188599     202203291801R706970              CIVUS 0.35 Y             CCN000045000000045000FN00000000020220301000045000NNE   20220128164336W4K81W    00000300000000386000000000032W4K8  HJYHK-J 000000000000OO323063
BI00B32W4    4500188599     202203291801R706973              CIVUS 0.35 Y/B           CCN000045000000045000FN00000000020220301000045000NNE   20220128164336W4K81W    00000300000000386000000000032W4K8  HJYHK-J 000000000000OO323064
BI00B32W4    4500188599     202203291801R703930              CIVUS 0.5 B              CCN000039600000039600FN00000000020220301000039600NNE   20220128164336W4K81W    00000220000000525000000000032W4K8  HJYHK-J 000000000000OO323021
BI00B32W4    4500188599     202203291801R703941              CIVUS 0.5 GY             CCN000039600000039600FN00000000020220301000039600NNE   20220128164336W4K81W    00000220000000525000000000032W4K8  HJYHK-J 000000000000OO323025
BI00B32W4    4500188599     202203291801R703990              CIVUS 0.5 L              CCN000024200000024200FN00000000020220301000024200NNE   20220128164336W4K81W    00000220000000525000000000032W4K8  HJYHK-J 000000000000OO323026
BI00B32W4    4500188599     202203291801R703961              CIVUS 0.5 LG             CCN000099000000099000FN00000000020220301000099000NNE   20220128164336W4K81W    00000220000000525000000000032W4K8  HJYHK-J 000000000000OO323027
BI00B32W4    4500188599     202203291801R703992              CIVUS 0.5 V              CCN000008800000008800FN00000000020220301000008800NNE   20220128164336W4K81W    00000220000000525000000000032W4K8  HJYHK-J 000000000000OO323031
BI00B32W4    4500188599     202203291801R703943              CIVUS 0.5 W/B            CCN000070400000070400FN00000000020220301000070400NNE   20220128164336W4K81W    00000220000000525000000000032W4K8  HJYHK-J 000000000000OO323033
BI00B32W4    4500188599     202203291801R703950              CIVUS 0.5 R              CCN000004400000004400FN00000000020220301000004400NNE   20220128164336W4K81W    00000220000000525000000000032W4K8  HJYHK-J 000000000000OO323029
BI00B32W4    4500188599     202203291801R704030              CIVUS 0.75 B             CCN000012000000012000FN00000000020220301000012000NNE   20220128164336W4K81W    00000150000000765000000000032W4K8  HJYHK-J 000000000000OO323034
BI00B32W4    4500188599     202203291801R704130              CIVUS 1.25 B             CCN000012000000012000FN00000000020220301000012000NNE   20220128164336W4K81W    00000100000001228000000000032W4K8  HJYHK-J 000000000000OO323039
BI00B32W4    4500188599     2022032918007704243              AVSS 2F W/B              CCN000005000000005000FN00000000020220301000005000NNE   20220128164336W4K81W    00000050000002126400000000032W4K8  HJYHK-J 000000000000OO323020
BI00B32W4    4500188599     2022032918007704260              AVSS 2F G                CCN000004000000004000FN00000000020220301000004000NNE   20220128164336W4K81W    00000050000002126400000000032W4K8  HJYHK-J 000000000000OO323017
BI00B32W4    4500188599     2022032918007704240              AVSS 2F W                CCN000004000000004000FN00000000020220301000004000NNE   20220128164336W4K81W    00000050000002126400000000032W4K8  HJYHK-J 000000000000OO323019
BI00B32W4    4500188599     2022032918007704290              AVSS 2F L                CCN000004000000004000FN00000000020220301000004000NNE   20220128164336W4K81W    00000050000002126400000000032W4K8  HJYHK-J 000000000000OO323018
BI00B32W4    4500188599     202203291801R704061              CIVUS 0.75 LG            CCN000009000000009000FN00000000020220301000009000NNE   20220128164336W4K81W    00000150000000765000000000032W4K8  HJYHK-J 000000000000OO323036
BI00B32W4    @4500188599    20220329181B32116S1              AVSSCS 0.3FX2 DGY        CCN000001050000001050FN00000000020220301000001050NNE   20220128164333W4K81W    00000035000002276000000000032W4K8  HJYHK-J 000000000000OO323001
BI00B32W4    @4500188599    20220329181B32116Z6              AVSSCS 0.3FX2 DGY/V      CCN000009100000009100FN00000000020220301000009100NNE   20220128164333W4K81W    00000035000002276000000000032W4K8  HJYHK-J 000000000000OO323002
BI00A32W4    @4500188705    20220317181D6910239              AVSSHCS 0.5FX2 B/L       CCN000054600000054600FN00000000020220301000054600NNE   20220128164334W4A21W    00000030000002385000000000032W4A2  HJYHK-J 000000000000OT123001
BI00A32W4    @4500188638    20220407181D6910239              AVSSHCS 0.5FX2 B/L       CCN000001200000001200FN00000000020220401000001200NNE   20220128164338W4421W    00000030000002385000000000032W442  HJYHK-J 000000000000OU423001
BI00A32W4    @4500188639    20220412181D6910239              AVSSHCS 0.5FX2 B/L       CCN000001200000001200FN00000000020220401000001200NNE   20220128164339W4421W    00000030000002385000000000032W442  HJYHK-J 000000000000OZ523001
BI00B32W4    @4500188715    20220405181B32116S1              AVSSCS 0.3FX2 DGY        CCN000000700000000700FN00000000020220401000000700NNE   20220128164340W4171W    00000035000002276000000000032W417  HJYHK-J 000000000000OV423001
BI00B32W4    @4500188719    20220419181B32037Y5              AVSSCS 0.3FX1 DGY/W      CCN000002000000002000FN00000000020220401000002000NNE   20220128164341W4171W    00000050000001780000000000032W417  HJYHK-J 000000000000OA124001
BI00B32W4    @4500188719    20220419181B32116S1              AVSSCS 0.3FX2 DGY        CCN000002100000002100FN00000000020220401000002100NNE   20220128164341W4171W    00000035000002276000000000032W417  HJYHK-J 000000000000OA124002
BI00B32W9    4500188440     2022022218001403973              AV 0.5F Y/B              CCN000001000000001000FN00000000020220201000001000NNE   20220128145452W93 1W    00000100000000903000000000032W93   HKYHK   000000000000ZG222001
BI00B32W9    4500188440     2022022218007704253              AVSS 2F R/B              CCN000000500000000500FN00000000020220201000000500NNE   20220128145452W93 1W    00000050000002126400000000032W93   HKYHK   000000000000ZG222004
BI00B32W9    4500188440     2022022218007704260              AVSS 2F G                CCN000000500000000500FN00000000020220201000000500NNE   20220128145452W93 1W    00000050000002126400000000032W93   HKYHK   000000000000ZG222003
BI00B32W9    4500188440     2022022218007704235              AVSS 2F B/R              CCN000000500000000500FN00000000020220201000000500NNE   20220128145452W93 1W    00000050000002126400000000032W93   HKYHK   000000000000ZG222002
BI00B32W9    4500188440     2022022218018403961              CAVS 0.5 LG              CCN000001500000001500FN00000000020220201000001500NNE   20220128145452W93 1W    00000150000000677000000000032W93   HKYHK   000000000000ZG222007
BI00B32W9    4500188440     2022022218018404140              CAVS 1.25 W              CCN000000800000000800FN00000000020220201000000800NNE   20220128145452W93 1W    00000080000001378000000000032W93   HKYHK   000000000000ZG222014
BI00B32W9    4500188440     2022022218018404153              CAVS 1.25 R/B            CCN000000800000000800FN00000000020220201000000800NNE   20220128145452W93 1W    00000080000001378000000000032W93   HKYHK   000000000000ZG222011
BI00B32W9    4500188440     2022022218018403935              CAVS 0.5 B/R             CCN000003000000003000FN00000000020220201000003000NNE   20220128145452W93 1W    00000150000000677000000000032W93   HKYHK   000000000000ZG222005
BI00B32W9    4500188440     2022022218018403967              CAVS 0.5 G/Y             CCN000001500000001500FN00000000020220201000001500NNE   20220128145452W93 1W    00000150000000677000000000032W93   HKYHK   000000000000ZG222006
BI00B32W9    4500188440     2022022218018404143              CAVS 1.25 W/B            CCN000000800000000800FN00000000020220201000000800NNE   20220128145452W93 1W    00000080000001378000000000032W93   HKYHK   000000000000ZG222015
BI00B32W9    4500188440     2022022218018404159              CAVS 1.25 R/L            CCN000000800000000800FN00000000020220201000000800NNE   20220128145452W93 1W    00000080000001378000000000032W93   HKYHK   000000000000ZG222012
BI00B32W9    4500188440     2022022218018403933              CAVS 0.5 V/W             CCN000001500000001500FN00000000020220201000001500NNE   20220128145452W93 1W    00000150000000677000000000032W93   HKYHK   000000000000ZG222008
BI00B32W9    4500188440     2022022218018404157              CAVS 1.25 R/Y            CCN000000800000000800FN00000000020220201000000800NNE   20220128145452W93 1W    00000080000001378000000000032W93   HKYHK   000000000000ZG222013
BI00B32W9    4500188440     2022022218018404053              CAVS 0.85 R/B            CCN000001000000001000FN00000000020220201000001000NNE   20220128145452W93 1W    00000100000000965000000000032W93   HKYHK   000000000000ZG222009
BI00B32W9    4500188440     2022022218018404135              CAVS 1.25 B/R            CCN000000800000000800FN00000000020220201000000800NNE   20220128145452W93 1W    00000080000001378000000000032W93   HKYHK   000000000000ZG222010
