BI00A1200    HIB21121301    202202027196-2032-02             TERMINAL FEMALE          CCN000015000000015000FN00000000020220101000015000NNED0020220128154321    4P0P  0000150000000107100000123441200    YCYC    005100280028
BI00A1200    HIB21121301    202202027126-8892-02             FUSE TERMINAL            CCN000006000000006000FN00000000020220101000006000NNED0020220128154321    4P0P  0000060000000049500000078021200    YCYC    006400630015
BI00A1200    HIB21121301    202202027195-2046-02             TERMINAL MALE            CCN000008400000008400FN00000000020220101000008400NNED0020220128154321    4P0P  0000084000000081820000111181200    YCYC    006400630015
BI00B1200    2399T52114     202202107289-7970                HYBRID FEMALE ASS'Y      CCN000026240000016640FN00000000020220301000016640NNMQ0020220128132354    1N0N  0000003200000073820000096471200    YCYC    005400370024
BI00A1200    MKH2022-004    202202027126-8889-02             FUSE TERMINAL            CCN000006000000006000FN00000000020220101000006000NNED0020220128154321    4P0P  0000060000000044820000073341200    YCYC    006400630015
BI00A1200    MKH2022-004    202202027126-8890-02             FUSE TERMINAL            CCN000006000000006000FN00000000020220101000006000NNED0020220128154321    4P0P  0000060000000046500000075021200    YCYC    006400630015
BI00A1200    MKH2022-004    202202027126-8891-02             FUSE TERMINAL            CCN000006000000006000FN00000000020220101000006000NNED0020220128154321    4P0P  0000060000000048180000076701200    YCYC    006400630015
BI00A1200    MKH2022-004    202202027126-8892-02             FUSE TERMINAL            CCN000012000000012000FN00000000020220101000012000NNED0020220128154321    4P0P  0000060000000049500000078021200    YCYC    006400630015
BI00A1200    MKH2022-004    202202027196-2023-02             TERMINAL FEMALE          CCY000024000000008000FN00000000020220101000008000NNED0020220128154952    4P0P  0000240000000089760000106101200    YCYC    005100280028
BI00A1200    MKH2022-004    202202027196-2024-02             TERMINAL FEMALE          CCY000024000000008000FN00000000020220101000008000NNED0020220128154952    4P0P  0000240000000091920000108261200    YCYC    005100280028
BI00A1200    MKH2022-004    202202027196-2027-02             TERMINAL FEMALE          CCY000024000000006000FN00000000020220101000006000NNED0020220128154952    4P0P  0000180000000078300000094641200    YCYC    005100280028
BI00A1200    MKH2022-004    202202027196-2038-02             TERMINAL FEMALE          CCN000003600000003600FN00000000020220101000003600NNED0020220128154321    4P0P  0000036000000059000000088361200    YCYC    006400630015
BI00B1200    2399T52215     202203107289-6547                HOUSING FEMALE ASS'Y     CCN000144000000144000FN00000000020220401000144000NNMD0420220128130320    1N0N  0000024000000115200000136201200    YCYC    005500360039
BI00B1200    2399T52216     202203177289-6547                HOUSING FEMALE ASS'Y     CCN000144000000076800FN00000000020220401000076800NNMD0420220128130320    1N0N  0000024000000115200000136201200    YCYC    005500360039
BI00B1200    2399T52217     202203317289-6547                HOUSING FEMALE ASS'Y     CCN000144000000096000FN00000000020220401000096000NNMD0420220128130320    1N0N  0000024000000115200000136201200    YCYC    005500360039
BI00B1200    2399T52219     202204077289-6547                HOUSING FEMALE ASS'Y     CCN000144000000036000FN00000000020220401000036000NNMD0420220128130320    1N0N  0000024000000115200000136201200    YCYC    005500360039
BI00B1200    2399T52220     202204217289-6547                HOUSING FEMALE ASS'Y     CCN000144000000144000FN00000000020220401000144000NNMD0420220128130320    1N0N  0000024000000115200000136201200    YCYC    005500360039
BI00B1200    2399T52216     202203247289-6547                HOUSING FEMALE ASS'Y     CCN000067200000067200FN00000000020220401000067200NNMD0420220128130320    1N0N  0000024000000115200000136201200    YCYC    005500360039
BI00B1200    2399T52217     202204077289-6547                HOUSING FEMALE ASS'Y     CCN000048000000048000FN00000000020220401000048000NNMD0420220128130320    1N0N  0000024000000115200000136201200    YCYC    005500360039
BI00B1200    2399T52219     202204217289-6547                HOUSING FEMALE ASS'Y     CCN000108000000108000FN00000000020220401000108000NNMD0420220128130320    1N0N  0000024000000115200000136201200    YCYC    005500360039
BI00B1200    8670T52201     202203317137-3047-30             UNIT PACKING             CCN000002000000002000FN00000000020220401000002000NNE   20220128130320    1C0C  0000010000000017050000021891200    YCYC    002700430014
BI00B1200    8670T52201     202203317172-5402-30             SEAL RUBBER              CCN000008000000008000FN00000000020220401000008000NNE   20220128130320    1C0C  0000080000000045760000050601200    YCYC    004300270014
BI00B1200    8670T52201     202203317172-5403-30             SEALED PACKING           CCN000004000000004000FN00000000020220401000004000NNE   20220128130320    1C0C  0000040000000065360000070171200    YCYC    004300270014
BI00B1200    8670T52202     202204077137-3047-30             UNIT PACKING             CCN000002000000002000FN00000000020220501000002000NNE   20220128130320    1C0C  0000010000000017050000021891200    YCYC    002700430014
BI00B1200    8670T52202     202204077172-5403-30             SEALED PACKING           CCN000004000000004000FN00000000020220501000004000NNE   20220128130320    1C0C  0000040000000065360000070171200    YCYC    004300270014
BI00B1200    8670T52202     202204077288-6547                CONNECTOR MALE ASS'Y     CCN000000750000000750FN00000000020220501000000750NNE   20220128130320    4N0N  0000007500000120530000134031200    YCYC    005400370024
BI00B1200    8670T52203     202204217137-3047-30             UNIT PACKING             CCN000003000000003000FN00000000020220501000003000NNE   20220128130320    1C0C  0000010000000017050000021891200    YCYC    002700430014
BI00B1200    8670T52203     202204217172-5402-30             SEAL RUBBER              CCN000008000000008000FN00000000020220501000008000NNE   20220128130320    1C0C  0000080000000045760000050601200    YCYC    004300270014
BI00B1200    8670T52203     202204217172-5403-30             SEALED PACKING           CCN000008000000008000FN00000000020220501000008000NNE   20220128130320    1C0C  0000040000000065360000070171200    YCYC    004300270014
BI00B1200    8670T52203     202204217196-1103-02             TERMINAL                 CCN000022500000022500FN00000000020220501000022500NNE   20220128130320    4P0P  0000225000000042980000071501200    YCYC    006400630015
BI00B1200    #8670T52203    202204217172-5629-80             RUBBER STOPPER           CCN000020000000020000FN00000000020220501000020000NNE   20220128130320    2H0H  0000200000000006000000011111200    YCYC    004300270014
BI00B1200    #8670T52203    202204217172-5630-40             RUBBER STOPPER           CCN000020000000020000FN00000000020220501000020000NNE   20220128130320    2H0H  0000200000000004400000009511200    YCYC    004300270014
BI00B1200    8670T52204     202204287137-3047-30             UNIT PACKING             CCN000003000000003000FN00000000020220501000003000NNE   20220128130320    1C0C  0000010000000017050000021891200    YCYC    002700430014
BI00B1200    8670T52204     202204287172-5402-30             SEAL RUBBER              CCN000008000000008000FN00000000020220501000008000NNE   20220128130320    1C0C  0000080000000045760000050601200    YCYC    004300270014
BI00B1200    8670T52204     202204287172-5403-30             SEALED PACKING           CCN000008000000008000FN00000000020220501000008000NNE   20220128130320    1C0C  0000040000000065360000070171200    YCYC    004300270014
BI00B1200    Y022E50024     202204077196-0648-02             TERMINAL                 CCN000045000000045000FN00000000020220501000045000NNM   20220128130320    4P0P  0000150000000035550000068971200    YCYC    006400630015
BI00B1200    2399T52114     202202037289-7970                HYBRID FEMALE ASS'Y      CCN000009600000009600FN00000000020220301000009600NNMD0020220128135242    1N0N  0000003200000073820000096471200    YCYC    005400370024
BI00B32AF    JTB2024        202202047017-1182-02             TERMINAL                 CCN000045000000045000FN00000000020220201000045000NNMD0020220128171411    4P0P  00004500000001165500001318632AF    HBYHVTB 005100280028
BI00B32AF    JTB2025        202202117017-1182-02             TERMINAL                 CCN000135000000135000FN00000000020220201000135000NNMD0020220128172819    4P0P  00004500000001165500001318632AF    HBYHVTB 005100280028
BI00B32AF    JTB2023        202201317114-1670-02             TERMINAL                 CCN000024000000024000FN00000000020220201000024000NNMD0020220128172333    1P0P  00002400000000357600000645832AF    HBYHVTB 006400630015
BI00B32AF    JTB2024        202202047114-1670-02             TERMINAL                 CCN000024000000024000FN00000000020220201000024000NNMD0020220128171439    1P0P  00002400000000357600000645832AF    HBYHVTB 006400630015
BI00B32AF    JTB2025        202202117114-1670-02             TERMINAL                 CCN000024000000024000FN00000000020220201000024000NNMD0020220128172925    1P0P  00002400000000357600000645832AF    HBYHVTB 006400630015
BI00B32AF    JTB2025        202202117114-4231-02             TERMINAL                 CCN000036000000036000FN00000000020220201000036000NNMD0020220128172950    4P0P  00001800000000554400000848032AF    HBYHVTB 006400630015
BI00B32AF    JTB2025        202202117114-5747-02             TERMINAL                 CCN000018000000018000FN00000000020220201000018000NNMD0020220128173134    4P0P  00001800000000626400000920032AF    HBYHVTB 006400630015
BI00B32AF    JTB2025        202202117116-3153-08             TERMINAL                 CCN000027000000027000FN00000000020220201000027000NNMD0020220128173223    4P0P  00002700000000461700000746932AF    HBYHVTB 006400630015
BI00B32AF    JTB2024        202202047116-4025                TERMINAL                 CCN000016000000016000FN00000000020220201000016000NNMD0020220128171546    4P0P  00001600000000644800000975132AF    HBYHVTB 006400630017
BI00B32AF    JTB2024        202202047116-4100-02             TERMINAL                 CCN000015000000015000FN00000000020220201000015000NNMD0020220128171604    4P0P  00001500000000696000000990232AF    HBYHVTB 006400630015
BI00B32AF    JTB2024        202202047116-4111-02             TERMINAL                 CCN000007500000007500FN00000000020220201000007500NNMD0020220128171648    4P0P  00000750000000529500000817732AF    HBYHVTB 006400630015
BI00B32AF    JTB2023        202201317116-4416-02             TERMINAL                 CCN000032000000032000FN00000000020220201000032000NNMD0020220128172333    4P0P  00003200000000518400000847132AF    HBYHVTB 006400630017
BI00B32AF    JTB2024        202202047116-4416-02             TERMINAL                 CCN000064000000064000FN00000000020220201000064000NNMD0020220128171707    4P0P  00003200000000518400000847132AF    HBYHVTB 006400630017
BI00B32AF    JTB2025        202202117116-4486-02             TERMINAL                 CCN000140000000140000FN00000000020220201000140000NNMD0020220128173241    4P0P  00002800000000666400000995132AF    HBYHVTB 006400630017
BI00B32AF    JTB2024        202202047116-5044-02             TERMINAL                 CCN000048000000048000FN00000000020220201000048000NNMD0020220128171723    4P0P  00001600000000641600000986332AF    HBYHVTB 006400630017
BI00B32AF    JTB2025        202202117116-5044-02             TERMINAL                 CCN000032000000032000FN00000000020220201000032000NNMD0020220128173303    4P0P  00001600000000641600000986332AF    HBYHVTB 006400630017
BI00B32AF    JTB2025        202202117116-5097-02             TERMINAL                 CCN000022500000022500FN00000000020220201000022500NNMD0020220128173313    4P0P  00002250000000531000000816232AF    HBYHVTB 006400630015
BI00B32AF    JTB2024        202202047116-5750-02             TERMINAL                 CCN000135000000135000FN00000000020220201000135000NNMD0020220128171740    4P0P  00001500000000457500000742732AF    HBYHVTB 006400630015
BI00B32AF    JTB2025        202202117116-5750-02             TERMINAL                 CCN000135000000135000FN00000000020220201000135000NNMD0020220128173340    4P0P  00001500000000457500000742732AF    HBYHVTB 006400630015
BI00B32AF    JTB2025        202202117116-5752-02             TERMINAL                 CCN000042000000042000FN00000000020220201000042000NNMD0020220128173402    4P0P  00002100000000571200000856432AF    HBYHVTB 006400630015
BI00B32AF    JTB2025        202202117126-8855-02             TERMINAL                 CCN000006000000006000FN00000000020220201000006000NNMD0020220128173419    4P0P  00000600000000510600000795832AF    HBYHVTB 006400630015
BI00B32AF    JTB2025        202202117158-3009-60             RUBBER STOPPER           CCN000060000000060000FN00000000020220201000060000NNMD0020220128173437    1C0C  00002000000000338000000386232AF    HBYHVTB 002700430014
BI00B32AF    JTB2024        202202047158-3166-60             WIRE SEAL                CCN000040000000040000FN00000000020220201000040000NNMD0020220128171946    1C0C  00004000000000104000000152432AF    HBYHVTB 002700430014
BI00B32AF    JTB2024        202202047196-1460-02             TERMINAL FEMALE          CCN000057000000057000FN00000000020220201000057000NNMD0020220128172004    4P0P  00002850000000444600000729832AF    HBYHVTB 006400630015
BI00B32AF    #JTB2025       202202117158-3005-80             RUBBER STOPPER           CCN000020000000020000FN00000000020220201000020000NNMD0020220128173503    2H0H  00002000000000210000000268732AF    HBYHVTB 002700430014
BI00B32AF    #JTB2024       202202047158-3120-90             CONNECTOR WIRE SEAL      CCN000040000000040000FN00000000020220201000040000NNMD0020220128171908    2C0C  00002000000000136000000194032AF    HBYHVTB 002700430014
BI00B32AF    #JTB2025       202202117158-3120-90             CONNECTOR WIRE SEAL      CCN000040000000040000FN00000000020220201000040000NNMD0020220128173709    2C0C  00002000000000136000000194032AF    HBYHVTB 002700430014
BI00B32AF    #JTB2024       202202047158-3121-80             WIRE SEAL                CCN000020000000020000FN00000000020220201000020000NNMD0020220128171925    2C0C  00002000000000118000000187332AF    HBYHVTB 002700430014
BI00A32AF    JTB202M        202202117283-5830                CONNECTOR                CCN000006000000006000FN00000000020220201000006000NNE   20220128142533    1N47  00000600000000954000001104032AF    HBYHVTB 005500360039
BI00A32AF    JTB202M        202202117287-3885                HYBRID FEMALE ASS'Y      CCN000002400000002400FN00000000020220201000002400NNE   20220128142533    1N0N  00000240000001029600001249632AF    HBYHVTB 005500360039
BI00A32AF    #JTB202M       202202117282-1030                CONNECTOR MALE ASS'Y     CCN000006000000006000FN00000000020220201000006000NNE   20220128135722    2N0N  00000100000000365000000487532AF    HBYHVTB 005400370024
BI00B32AF    JTB203K        202202187116-3154-08             TERMINAL                 CCN000027000000027000FN00000000020220301000027000NNE   20220128130320    4P0P  00002700000000475200000760432AF    HBYHVTB 006400630015
BI00B32AF    JTB203K        202202187116-4031                TERMINAL                 CCN000007500000007500FN00000000020220301000007500NNE   20220128130320    4P0P  00000750000000619500000904732AF    HBYHVTB 006400630015
BI00B32AF    JTB203K        202202187116-5045-02             TERMINAL                 CCN000016000000016000FN00000000020220301000016000NNE   20220128130320    4P0P  00001600000000678400001007132AF    HBYHVTB 006400630017
BI00B32AF    #JTB203K       202202187158-3003-90             RUBBER STOPPER           CCN000020000000020000FN00000000020220301000020000NNE   20220128130320    2C0C  00002000000000250000000306032AF    HBYHVTB 002700430014
BI00B32AF    JTB2041        202203117017-1180-02             TERMINAL                 CCN000360000000360000FN00000000020220401000360000NNM   20220128130320    4P0P  00007200000001065600001229032AF    HBYHVTB 005100280028
BI00B32AF    JTB2042        202203187017-1180-02             TERMINAL                 CCN000432000000432000FN00000000020220401000432000NNM   20220128130320    4P0P  00007200000001065600001229032AF    HBYHVTB 005100280028
BI00B32AF    JTB2043        202203257017-1180-02             TERMINAL                 CCN000360000000360000FN00000000020220401000360000NNM   20220128130320    4P0P  00007200000001065600001229032AF    HBYHVTB 005100280028
BI00B32AF    JTB2044        202204017017-1180-02             TERMINAL                 CCN000072000000072000FN00000000020220401000072000NNM   20220128130320    4P0P  00007200000001065600001229032AF    HBYHVTB 005100280028
BI00B32AF    JTB2042        202203187017-1181-02             TERMINAL                 CCN000063000000063000FN00000000020220401000063000NNM   20220128130320    4P0P  00006300000001089900001266832AF    HBYHVTB 005100280028
BI00B32AF    JTB2044        202204017017-1181-02             TERMINAL                 CCN000063000000063000FN00000000020220401000063000NNM   20220128130320    4P0P  00006300000001089900001266832AF    HBYHVTB 005100280028
BI00B32AF    JTB2041        202203117017-1182-02             TERMINAL                 CCN000045000000045000FN00000000020220401000045000NNM   20220128130320    4P0P  00004500000001165500001318632AF    HBYHVTB 005100280028
BI00B32AF    JTB2042        202203187017-1182-02             TERMINAL                 CCN000135000000135000FN00000000020220401000135000NNM   20220128130320    4P0P  00004500000001165500001318632AF    HBYHVTB 005100280028
BI00B32AF    JTB2043        202203257017-1182-02             TERMINAL                 CCN000180000000180000FN00000000020220401000180000NNM   20220128130320    4P0P  00004500000001165500001318632AF    HBYHVTB 005100280028
BI00B32AF    JTB2044        202204017017-1182-02             TERMINAL                 CCN000090000000090000FN00000000020220401000090000NNM   20220128130320    4P0P  00004500000001165500001318632AF    HBYHVTB 005100280028
BI00B32AF    JTB2041        202203117017-1183-02             TERMINAL                 CCN000027000000027000FN00000000020220401000027000NNM   20220128130320    4P0P  00002700000001139400001307432AF    HBYHVTB 005100280028
BI00B32AF    JTB2042        202203187017-1183-02             TERMINAL                 CCN000054000000054000FN00000000020220401000054000NNM   20220128130320    4P0P  00002700000001139400001307432AF    HBYHVTB 005100280028
BI00B32AF    JTB2043        202203257017-1183-02             TERMINAL                 CCN000054000000054000FN00000000020220401000054000NNM   20220128130320    4P0P  00002700000001139400001307432AF    HBYHVTB 005100280028
BI00B32AF    JTB2044        202204017017-1183-02             TERMINAL                 CCN000027000000027000FN00000000020220401000027000NNM   20220128130320    4P0P  00002700000001139400001307432AF    HBYHVTB 005100280028
BI00B32AF    JTB2043        202203257114-4020                TERMINAL                 CCN000126000000126000FN00000000020220401000126000NNM   20220128130320    4P0P  00002100000000875700001169332AF    HBYHVTB 006400630015
BI00B32AF    JTB2044        202204017114-4020                TERMINAL                 CCN000042000000042000FN00000000020220401000042000NNM   20220128130320    4P0P  00002100000000875700001169332AF    HBYHVTB 006400630015
BI00B32AF    JTB2043        202203257114-4030                TERMINAL                 CCN000010500000010500FN00000000020220401000010500NNM   20220128130320    4P0P  00001050000000926100001254732AF    HBYHVTB 006400630017
BI00B32AF    JTB2041        202203117114-4031                TERMINAL                 CCN000010500000010500FN00000000020220401000010500NNM   20220128130320    4P0P  00001050000000966000001294632AF    HBYHVTB 006400630017
BI00B32AF    JTB2042        202203187114-4031                TERMINAL                 CCN000031500000031500FN00000000020220401000031500NNM   20220128130320    4P0P  00001050000000966000001294632AF    HBYHVTB 006400630017
BI00B32AF    JTB2043        202203257114-4031                TERMINAL                 CCN000031500000031500FN00000000020220401000031500NNM   20220128130320    4P0P  00001050000000966000001294632AF    HBYHVTB 006400630017
BI00B32AF    JTB2044        202204017114-4031                TERMINAL                 CCN000010500000010500FN00000000020220401000010500NNM   20220128130320    4P0P  00001050000000966000001294632AF    HBYHVTB 006400630017
BI00B32AF    JTB2042        202203187114-4032                TERMINAL                 CCN000067500000067500FN00000000020220401000067500NNM   20220128130320    4P0P  00000750000000735000001063632AF    HBYHVTB 006400630017
BI00B32AF    JTB2043        202203257114-4032                TERMINAL                 CCN000097500000097500FN00000000020220401000097500NNM   20220128130320    4P0P  00000750000000735000001063632AF    HBYHVTB 006400630017
BI00B32AF    JTB2044        202204017114-4032                TERMINAL                 CCN000037500000037500FN00000000020220401000037500NNM   20220128130320    4P0P  00000750000000735000001063632AF    HBYHVTB 006400630017
BI00B32AF    JTB2042        202203187114-4231-02             TERMINAL                 CCN000270000000270000FN00000000020220401000270000NNM   20220128130320    4P0P  00001800000000554400000848032AF    HBYHVTB 006400630015
BI00B32AF    JTB2043        202203257114-4231-02             TERMINAL                 CCN000252000000252000FN00000000020220401000252000NNM   20220128130320    4P0P  00001800000000554400000848032AF    HBYHVTB 006400630015
BI00B32AF    JTB2044        202204017114-4231-02             TERMINAL                 CCN000126000000126000FN00000000020220401000126000NNM   20220128130320    4P0P  00001800000000554400000848032AF    HBYHVTB 006400630015
BI00B32AF    JTB2042        202203187114-4624-02             TERMINAL                 CCN000024000000024000FN00000000020220401000024000NNM   20220128130320    4P0P  00002400000000895200001188832AF    HBYHVTB 006400630015
BI00B32AF    JTB2041        202203117114-4728-02             TERMINAL                 CCN000360000000360000FN00000000020220401000360000NNM   20220128130320    4P0P  00003000000000510000000804232AF    HBYHVTB 006400630015
BI00B32AF    JTB2042        202203187114-4728-02             TERMINAL                 CCN000660000000660000FN00000000020220401000660000NNM   20220128130320    4P0P  00003000000000510000000804232AF    HBYHVTB 006400630015
BI00B32AF    JTB2043        202203257114-4728-02             TERMINAL                 CCN000570000000570000FN00000000020220401000570000NNM   20220128130320    4P0P  00003000000000510000000804232AF    HBYHVTB 006400630015
BI00B32AF    JTB2044        202204017114-4728-02             TERMINAL                 CCN000540000000540000FN00000000020220401000540000NNM   20220128130320    4P0P  00003000000000510000000804232AF    HBYHVTB 006400630015
BI00B32AF    JTB2041        202203117114-4728-08             TERMINAL                 CCN000030000000030000FN00000000020220401000030000NNM   20220128130320    4P0P  00003000000000507000000801232AF    HBYHVTB 006400630015
BI00B32AF    JTB2042        202203187114-4728-08             TERMINAL                 CCN000030000000030000FN00000000020220401000030000NNM   20220128130320    4P0P  00003000000000507000000801232AF    HBYHVTB 006400630015
BI00B32AF    JTB2043        202203257114-4728-08             TERMINAL                 CCN000030000000030000FN00000000020220401000030000NNM   20220128130320    4P0P  00003000000000507000000801232AF    HBYHVTB 006400630015
BI00B32AF    JTB2041        202203117114-4729-02             TERMINAL                 CCN000090000000090000FN00000000020220401000090000NNM   20220128130320    4P0P  00003000000000516000000810232AF    HBYHVTB 006400630015
BI00B32AF    JTB2042        202203187114-4729-02             TERMINAL                 CCN000210000000210000FN00000000020220401000210000NNM   20220128130320    4P0P  00003000000000516000000810232AF    HBYHVTB 006400630015
BI00B32AF    JTB2043        202203257114-4729-02             TERMINAL                 CCN000150000000150000FN00000000020220401000150000NNM   20220128130320    4P0P  00003000000000516000000810232AF    HBYHVTB 006400630015
BI00B32AF    JTB2044        202204017114-4729-02             TERMINAL                 CCN000180000000180000FN00000000020220401000180000NNM   20220128130320    4P0P  00003000000000516000000810232AF    HBYHVTB 006400630015
BI00B32AF    JTB2043        202203257114-5096-08             TERMINAL                 CCN000030000000030000FN00000000020220401000030000NNM   20220128130320    4P0P  00003000000000498000000792232AF    HBYHVTB 006400630015
BI00B32AF    JTB2042        202203187114-5746-02             TERMINAL                 CCN000084000000084000FN00000000020220401000084000NNM   20220128130320    4P0P  00002100000000695100000988732AF    HBYHVTB 006400630015
BI00B32AF    JTB2043        202203257114-5746-02             TERMINAL                 CCN000105000000105000FN00000000020220401000105000NNM   20220128130320    4P0P  00002100000000695100000988732AF    HBYHVTB 006400630015
BI00B32AF    JTB2044        202204017114-5746-02             TERMINAL                 CCN000063000000063000FN00000000020220401000063000NNM   20220128130320    4P0P  00002100000000695100000988732AF    HBYHVTB 006400630015
BI00B32AF    JTB2041        202203117114-5747-02             TERMINAL                 CCN000108000000108000FN00000000020220401000108000NNM   20220128130320    4P0P  00001800000000626400000920032AF    HBYHVTB 006400630015
BI00B32AF    JTB2042        202203187114-5747-02             TERMINAL                 CCN000270000000270000FN00000000020220401000270000NNM   20220128130320    4P0P  00001800000000626400000920032AF    HBYHVTB 006400630015
BI00B32AF    JTB2043        202203257114-5747-02             TERMINAL                 CCN000216000000216000FN00000000020220401000216000NNM   20220128130320    4P0P  00001800000000626400000920032AF    HBYHVTB 006400630015
BI00B32AF    JTB2044        202204017114-5747-02             TERMINAL                 CCN000216000000216000FN00000000020220401000216000NNM   20220128130320    4P0P  00001800000000626400000920032AF    HBYHVTB 006400630015
BI00B32AF    JTB2041        202203117114-5748-02             TERMINAL                 CCN000036000000036000FN00000000020220401000036000NNM   20220128130320    4P0P  00001200000000444000000737632AF    HBYHVTB 006400630015
BI00B32AF    JTB2042        202203187114-5748-02             TERMINAL                 CCN000120000000120000FN00000000020220401000120000NNM   20220128130320    4P0P  00001200000000444000000737632AF    HBYHVTB 006400630015
BI00B32AF    JTB2043        202203257114-5748-02             TERMINAL                 CCN000108000000108000FN00000000020220401000108000NNM   20220128130320    4P0P  00001200000000444000000737632AF    HBYHVTB 006400630015
BI00B32AF    JTB2044        202204017114-5748-02             TERMINAL                 CCN000096000000096000FN00000000020220401000096000NNM   20220128130320    4P0P  00001200000000444000000737632AF    HBYHVTB 006400630015
BI00B32AF    JTB2041        202203117114-5753-02             TERMINAL                 CCN000027000000027000FN00000000020220401000027000NNM   20220128130320    4P0P  00002700000000847800001141432AF    HBYHVTB 006400630015
BI00B32AF    JTB2042        202203187114-5753-02             TERMINAL                 CCN000135000000135000FN00000000020220401000135000NNM   20220128130320    4P0P  00002700000000847800001141432AF    HBYHVTB 006400630015
BI00B32AF    JTB2043        202203257114-5753-02             TERMINAL                 CCN000108000000108000FN00000000020220401000108000NNM   20220128130320    4P0P  00002700000000847800001141432AF    HBYHVTB 006400630015
BI00B32AF    JTB2044        202204017114-5753-02             TERMINAL                 CCN000108000000108000FN00000000020220401000108000NNM   20220128130320    4P0P  00002700000000847800001141432AF    HBYHVTB 006400630015
BI00B32AF    JTB2042        202203187116-1180                TERMINAL                 CCN000019500000019500FN00000000020220401000019500NNM   20220128130320    1P0P  00001950000000618200000903432AF    HBYHVTB 006400630015
BI00B32AF    JTB2043        202203257116-1180                TERMINAL                 CCN000019500000019500FN00000000020220401000019500NNM   20220128130320    1P0P  00001950000000618200000903432AF    HBYHVTB 006400630015
BI00B32AF    JTB2043        202203257116-1685-02             TERMINAL                 CCN000024000000024000FN00000000020220401000024000NNM   20220128130320    4P0P  00002400000000897600001065232AF    HBYHVTB 005100280028
BI00B32AF    JTB2041        202203117116-2891-02             TERMINAL                 CCN000015000000015000FN00000000020220401000015000NNM   20220128130320    4P0P  00001500000000982500001145932AF    HBYHVTB 005100280028
BI00B32AF    JTB2043        202203257116-2891-02             TERMINAL                 CCN000015000000015000FN00000000020220401000015000NNM   20220128130320    4P0P  00001500000000982500001145932AF    HBYHVTB 005100280028
BI00B32AF    JTB2041        202203117116-2892-02             TERMINAL                 CCN000012000000012000FN00000000020220401000012000NNM   20220128130320    4P0P  00001200000000818400000981832AF    HBYHVTB 005100280028
BI00B32AF    JTB2041        202203117116-3153-08             TERMINAL                 CCN000027000000027000FN00000000020220401000027000NNM   20220128130320    4P0P  00002700000000461700000746932AF    HBYHVTB 006400630015
BI00B32AF    JTB2042        202203187116-3153-08             TERMINAL                 CCN000054000000054000FN00000000020220401000054000NNM   20220128130320    4P0P  00002700000000461700000746932AF    HBYHVTB 006400630015
BI00B32AF    JTB2043        202203257116-3153-08             TERMINAL                 CCN000054000000054000FN00000000020220401000054000NNM   20220128130320    4P0P  00002700000000461700000746932AF    HBYHVTB 006400630015
BI00B32AF    JTB2041        202203117116-4020                TERMINAL                 CCN000094500000094500FN00000000020220401000094500NNM   20220128130320    4P0P  00001350000000513000000798232AF    HBYHVTB 006400630015
BI00B32AF    JTB2042        202203187116-4020                TERMINAL                 CCN000054000000054000FN00000000020220401000054000NNM   20220128130320    4P0P  00001350000000513000000798232AF    HBYHVTB 006400630015
BI00B32AF    JTB2043        202203257116-4020                TERMINAL                 CCN000121500000121500FN00000000020220401000121500NNM   20220128130320    4P0P  00001350000000513000000798232AF    HBYHVTB 006400630015
BI00B32AF    JTB2044        202204017116-4020                TERMINAL                 CCN000094500000094500FN00000000020220401000094500NNM   20220128130320    4P0P  00001350000000513000000798232AF    HBYHVTB 006400630015
BI00B32AF    JTB2042        202203187116-4022                TERMINAL                 CCN000013500000013500FN00000000020220401000013500NNM   20220128130320    4P0P  00001350000000618300000903532AF    HBYHVTB 006400630015
BI00B32AF    JTB2042        202203187116-4025                TERMINAL                 CCN000016000000016000FN00000000020220401000016000NNM   20220128130320    4P0P  00001600000000644800000975132AF    HBYHVTB 006400630017
BI00B32AF    JTB2041        202203117116-4026                TERMINAL                 CCN000016000000016000FN00000000020220401000016000NNM   20220128130320    4P0P  00001600000000664000000994332AF    HBYHVTB 006400630017
BI00B32AF    JTB2043        202203257116-4026                TERMINAL                 CCN000016000000016000FN00000000020220401000016000NNM   20220128130320    4P0P  00001600000000664000000994332AF    HBYHVTB 006400630017
BI00B32AF    JTB2041        202203117116-4031                TERMINAL                 CCN000015000000015000FN00000000020220401000015000NNM   20220128130320    4P0P  00000750000000619500000904732AF    HBYHVTB 006400630015
BI00B32AF    JTB2042        202203187116-4031                TERMINAL                 CCN000015000000015000FN00000000020220401000015000NNM   20220128130320    4P0P  00000750000000619500000904732AF    HBYHVTB 006400630015
BI00B32AF    JTB2043        202203257116-4031                TERMINAL                 CCN000015000000015000FN00000000020220401000015000NNM   20220128130320    4P0P  00000750000000619500000904732AF    HBYHVTB 006400630015
BI00B32AF    JTB2044        202204017116-4031                TERMINAL                 CCN000007500000007500FN00000000020220401000007500NNM   20220128130320    4P0P  00000750000000619500000904732AF    HBYHVTB 006400630015
BI00B32AF    JTB2042        202203187116-4032                TERMINAL                 CCN000024000000024000FN00000000020220401000024000NNM   20220128130320    4P0P  00000600000000532800000818032AF    HBYHVTB 006400630015
BI00B32AF    JTB2043        202203257116-4032                TERMINAL                 CCN000024000000024000FN00000000020220401000024000NNM   20220128130320    4P0P  00000600000000532800000818032AF    HBYHVTB 006400630015
BI00B32AF    JTB2044        202204017116-4032                TERMINAL                 CCN000030000000030000FN00000000020220401000030000NNM   20220128130320    4P0P  00000600000000532800000818032AF    HBYHVTB 006400630015
BI00B32AF    JTB2043        202203257116-4100-02             TERMINAL                 CCN000030000000030000FN00000000020220401000030000NNM   20220128130320    4P0P  00001500000000696000000990232AF    HBYHVTB 006400630015
BI00B32AF    JTB2043        202203257116-4101-02             TERMINAL                 CCN000012000000012000FN00000000020220401000012000NNM   20220128130320    4P0P  00001200000000582000000876232AF    HBYHVTB 006400630015
BI00B32AF    JTB2042        202203187116-4111-02             TERMINAL                 CCN000007500000007500FN00000000020220401000007500NNM   20220128130320    4P0P  00000750000000529500000817732AF    HBYHVTB 006400630015
BI00B32AF    JTB2043        202203257116-4111-02             TERMINAL                 CCN000007500000007500FN00000000020220401000007500NNM   20220128130320    4P0P  00000750000000529500000817732AF    HBYHVTB 006400630015
BI00B32AF    JTB2044        202204017116-4111-02             TERMINAL                 CCN000007500000007500FN00000000020220401000007500NNM   20220128130320    4P0P  00000750000000529500000817732AF    HBYHVTB 006400630015
BI00B32AF    JTB2043        202203257116-4112-02             TERMINAL                 CCN000006000000006000FN00000000020220401000006000NNM   20220128130320    4P0P  00000600000000450000000738232AF    HBYHVTB 006400630015
BI00B32AF    JTB2044        202204017116-4112-02             TERMINAL                 CCN000012000000012000FN00000000020220401000012000NNM   20220128130320    4P0P  00000600000000450000000738232AF    HBYHVTB 006400630015
BI00B32AF    JTB2041        202203117116-4121-02             TERMINAL                 CCN000009000000009000FN00000000020220401000009000NNM   20220128130320    4P0P  00000450000000618800000912432AF    HBYHVTB 006400630015
BI00B32AF    JTB2042        202203187116-4121-02             TERMINAL                 CCN000009000000009000FN00000000020220401000009000NNM   20220128130320    4P0P  00000450000000618800000912432AF    HBYHVTB 006400630015
BI00B32AF    JTB2043        202203257116-4121-02             TERMINAL                 CCN000009000000009000FN00000000020220401000009000NNM   20220128130320    4P0P  00000450000000618800000912432AF    HBYHVTB 006400630015
BI00B32AF    JTB2044        202204017116-4121-02             TERMINAL                 CCN000004500000004500FN00000000020220401000004500NNM   20220128130320    4P0P  00000450000000618800000912432AF    HBYHVTB 006400630015
BI00B32AF    JTB2041        202203117116-4231-02             TERMINAL                 CCN000130000000130000FN00000000020220401000130000NNM   20220128130320    4P0P  00002600000000683800001012532AF    HBYHVTB 006400630017
BI00B32AF    JTB2042        202203187116-4231-02             TERMINAL                 CCN000260000000260000FN00000000020220401000260000NNM   20220128130320    4P0P  00002600000000683800001012532AF    HBYHVTB 006400630017
BI00B32AF    JTB2043        202203257116-4231-02             TERMINAL                 CCN000234000000234000FN00000000020220401000234000NNM   20220128130320    4P0P  00002600000000683800001012532AF    HBYHVTB 006400630017
BI00B32AF    JTB2044        202204017116-4231-02             TERMINAL                 CCN000208000000208000FN00000000020220401000208000NNM   20220128130320    4P0P  00002600000000683800001012532AF    HBYHVTB 006400630017
BI00B32AF    JTB2041        202203117116-4415-02             TERMINAL                 CCN000038000000038000FN00000000020220401000038000NNM   20220128130320    4P0P  00003800000000596600000925732AF    HBYHVTB 006400630017
BI00B32AF    JTB2042        202203187116-4415-02             TERMINAL                 CCN000114000000114000FN00000000020220401000114000NNM   20220128130320    4P0P  00003800000000596600000925732AF    HBYHVTB 006400630017
BI00B32AF    JTB2043        202203257116-4415-02             TERMINAL                 CCN000152000000152000FN00000000020220401000152000NNM   20220128130320    4P0P  00003800000000596600000925732AF    HBYHVTB 006400630017
BI00B32AF    JTB2044        202204017116-4415-02             TERMINAL                 CCN000114000000114000FN00000000020220401000114000NNM   20220128130320    4P0P  00003800000000596600000925732AF    HBYHVTB 006400630017
BI00B32AF    JTB2041        202203117116-4416-02             TERMINAL                 CCN000032000000032000FN00000000020220401000032000NNM   20220128130320    4P0P  00003200000000518400000847132AF    HBYHVTB 006400630017
BI00B32AF    JTB2042        202203187116-4416-02             TERMINAL                 CCN000032000000032000FN00000000020220401000032000NNM   20220128130320    4P0P  00003200000000518400000847132AF    HBYHVTB 006400630017
BI00B32AF    JTB2043        202203257116-4416-02             TERMINAL                 CCN000032000000032000FN00000000020220401000032000NNM   20220128130320    4P0P  00003200000000518400000847132AF    HBYHVTB 006400630017
BI00B32AF    JTB2044        202204017116-4416-02             TERMINAL                 CCN000064000000064000FN00000000020220401000064000NNM   20220128130320    4P0P  00003200000000518400000847132AF    HBYHVTB 006400630017
BI00B32AF    JTB2041        202203117116-4486-02             TERMINAL                 CCN000252000000252000FN00000000020220401000252000NNM   20220128130320    4P0P  00002800000000666400000995132AF    HBYHVTB 006400630017
BI00B32AF    JTB2042        202203187116-4486-02             TERMINAL                 CCN000476000000476000FN00000000020220401000476000NNM   20220128130320    4P0P  00002800000000666400000995132AF    HBYHVTB 006400630017
BI00B32AF    JTB2043        202203257116-4486-02             TERMINAL                 CCN000392000000392000FN00000000020220401000392000NNM   20220128130320    4P0P  00002800000000666400000995132AF    HBYHVTB 006400630017
BI00B32AF    JTB2044        202204017116-4486-02             TERMINAL                 CCN000392000000392000FN00000000020220401000392000NNM   20220128130320    4P0P  00002800000000666400000995132AF    HBYHVTB 006400630017
BI00B32AF    JTB2041        202203117116-5042-02             TERMINAL                 CCN000121500000121500FN00000000020220401000121500NNM   20220128130320    4P0P  00001350000000560300000845532AF    HBYHVTB 006400630015
BI00B32AF    JTB2042        202203187116-5042-02             TERMINAL                 CCN000216000000216000FN00000000020220401000216000NNM   20220128130320    4P0P  00001350000000560300000845532AF    HBYHVTB 006400630015
BI00B32AF    JTB2043        202203257116-5042-02             TERMINAL                 CCN000148500000148500FN00000000020220401000148500NNM   20220128130320    4P0P  00001350000000560300000845532AF    HBYHVTB 006400630015
BI00B32AF    JTB2044        202204017116-5042-02             TERMINAL                 CCN000162000000162000FN00000000020220401000162000NNM   20220128130320    4P0P  00001350000000560300000845532AF    HBYHVTB 006400630015
BI00B32AF    JTB2041        202203117116-5043-02             TERMINAL FEMALE          CCN000024000000024000FN00000000020220401000024000NNM   20220128130320    4P0P  00001200000000559200000844432AF    HBYHVTB 006400630015
BI00B32AF    JTB2042        202203187116-5043-02             TERMINAL FEMALE          CCN000132000000132000FN00000000020220401000132000NNM   20220128130320    4P0P  00001200000000559200000844432AF    HBYHVTB 006400630015
BI00B32AF    JTB2043        202203257116-5043-02             TERMINAL FEMALE          CCN000108000000108000FN00000000020220401000108000NNM   20220128130320    4P0P  00001200000000559200000844432AF    HBYHVTB 006400630015
BI00B32AF    JTB2044        202204017116-5043-02             TERMINAL FEMALE          CCN000108000000108000FN00000000020220401000108000NNM   20220128130320    4P0P  00001200000000559200000844432AF    HBYHVTB 006400630015
BI00B32AF    JTB2041        202203117116-5044-02             TERMINAL                 CCN000048000000048000FN00000000020220401000048000NNM   20220128130320    4P0P  00001600000000641600000986332AF    HBYHVTB 006400630017
BI00B32AF    JTB2042        202203187116-5044-02             TERMINAL                 CCN000080000000080000FN00000000020220401000080000NNM   20220128130320    4P0P  00001600000000641600000986332AF    HBYHVTB 006400630017
BI00B32AF    JTB2043        202203257116-5044-02             TERMINAL                 CCN000080000000080000FN00000000020220401000080000NNM   20220128130320    4P0P  00001600000000641600000986332AF    HBYHVTB 006400630017
BI00B32AF    JTB2044        202204017116-5044-02             TERMINAL                 CCN000080000000080000FN00000000020220401000080000NNM   20220128130320    4P0P  00001600000000641600000986332AF    HBYHVTB 006400630017
BI00B32AF    JTB2041        202203117116-5045-02             TERMINAL                 CCN000032000000032000FN00000000020220401000032000NNM   20220128130320    4P0P  00001600000000678400001007132AF    HBYHVTB 006400630017
BI00B32AF    JTB2042        202203187116-5045-02             TERMINAL                 CCN000032000000032000FN00000000020220401000032000NNM   20220128130320    4P0P  00001600000000678400001007132AF    HBYHVTB 006400630017
BI00B32AF    JTB2043        202203257116-5045-02             TERMINAL                 CCN000032000000032000FN00000000020220401000032000NNM   20220128130320    4P0P  00001600000000678400001007132AF    HBYHVTB 006400630017
BI00B32AF    JTB2043        202203257116-5046-02             TERMINAL                 CCN000012000000012000FN00000000020220401000012000NNM   20220128130320    4P0P  00001200000000544800000873532AF    HBYHVTB 006400630017
BI00B32AF    JTB2041        202203117116-5097-02             TERMINAL                 CCN000045000000045000FN00000000020220401000045000NNM   20220128130320    4P0P  00002250000000531000000816232AF    HBYHVTB 006400630015
BI00B32AF    JTB2042        202203187116-5097-02             TERMINAL                 CCN000045000000045000FN00000000020220401000045000NNM   20220128130320    4P0P  00002250000000531000000816232AF    HBYHVTB 006400630015
BI00B32AF    JTB2043        202203257116-5097-02             TERMINAL                 CCN000067500000067500FN00000000020220401000067500NNM   20220128130320    4P0P  00002250000000531000000816232AF    HBYHVTB 006400630015
BI00B32AF    JTB2044        202204017116-5097-02             TERMINAL                 CCN000045000000045000FN00000000020220401000045000NNM   20220128130320    4P0P  00002250000000531000000816232AF    HBYHVTB 006400630015
BI00B32AF    JTB2041        202203117116-5750-02             TERMINAL                 CCN000195000000195000FN00000000020220401000195000NNM   20220128130320    4P0P  00001500000000457500000742732AF    HBYHVTB 006400630015
BI00B32AF    JTB2042        202203187116-5750-02             TERMINAL                 CCN000450000000450000FN00000000020220401000450000NNM   20220128130320    4P0P  00001500000000457500000742732AF    HBYHVTB 006400630015
BI00B32AF    JTB2043        202203257116-5750-02             TERMINAL                 CCN000330000000330000FN00000000020220401000330000NNM   20220128130320    4P0P  00001500000000457500000742732AF    HBYHVTB 006400630015
BI00B32AF    JTB2044        202204017116-5750-02             TERMINAL                 CCN000345000000345000FN00000000020220401000345000NNM   20220128130320    4P0P  00001500000000457500000742732AF    HBYHVTB 006400630015
BI00B32AF    JTB2041        202203117116-5752-02             TERMINAL                 CCN000063000000063000FN00000000020220401000063000NNM   20220128130320    4P0P  00002100000000571200000856432AF    HBYHVTB 006400630015
BI00B32AF    JTB2042        202203187116-5752-02             TERMINAL                 CCN000126000000126000FN00000000020220401000126000NNM   20220128130320    4P0P  00002100000000571200000856432AF    HBYHVTB 006400630015
BI00B32AF    JTB2043        202203257116-5752-02             TERMINAL                 CCN000105000000105000FN00000000020220401000105000NNM   20220128130320    4P0P  00002100000000571200000856432AF    HBYHVTB 006400630015
BI00B32AF    JTB2044        202204017116-5752-02             TERMINAL                 CCN000105000000105000FN00000000020220401000105000NNM   20220128130320    4P0P  00002100000000571200000856432AF    HBYHVTB 006400630015
BI00B32AF    JTB2042        202203187116-6041                TERMINAL                 CCN000009000000009000FN00000000020220401000009000NNM   20220128130320    4P0P  00000450000000716000001009632AF    HBYHVTB 006400630015
BI00B32AF    JTB2043        202203257116-6041                TERMINAL                 CCN000009000000009000FN00000000020220401000009000NNM   20220128130320    4P0P  00000450000000716000001009632AF    HBYHVTB 006400630015
BI00B32AF    JTB2044        202204017116-6041                TERMINAL                 CCN000004500000004500FN00000000020220401000004500NNM   20220128130320    4P0P  00000450000000716000001009632AF    HBYHVTB 006400630015
BI00B32AF    JTB2041        202203117126-8853-02             TERMINAL                 CCN000007500000007500FN00000000020220401000007500NNM   20220128130320    4P0P  00000750000000562500000847732AF    HBYHVTB 006400630015
BI00B32AF    JTB2042        202203187126-8855-02             TERMINAL                 CCN000030000000030000FN00000000020220401000030000NNM   20220128130320    4P0P  00000600000000510600000795832AF    HBYHVTB 006400630015
BI00B32AF    JTB2043        202203257126-8855-02             TERMINAL                 CCN000024000000024000FN00000000020220401000024000NNM   20220128130320    4P0P  00000600000000510600000795832AF    HBYHVTB 006400630015
BI00B32AF    JTB2044        202204017126-8855-02             TERMINAL                 CCN000024000000024000FN00000000020220401000024000NNM   20220128130320    4P0P  00000600000000510600000795832AF    HBYHVTB 006400630015
BI00B32AF    JTB2041        202203117158-3006-90             RUBBER STOPPER           CCN000020000000020000FN00000000020220401000020000NNM   20220128130320    1C0C  00002000000000330600000386032AF    HBYHVTB 002700430014
BI00B32AF    JTB2043        202203257158-3006-90             RUBBER STOPPER           CCN000020000000020000FN00000000020220401000020000NNM   20220128130320    1C0C  00002000000000330600000386032AF    HBYHVTB 002700430014
BI00B32AF    JTB2044        202204017158-3006-90             RUBBER STOPPER           CCN000020000000020000FN00000000020220401000020000NNM   20220128130320    1C0C  00002000000000330600000386032AF    HBYHVTB 002700430014
BI00B32AF    JTB2041        202203117158-3009-60             RUBBER STOPPER           CCN000120000000120000FN00000000020220401000120000NNM   20220128130320    1C0C  00002000000000338000000386232AF    HBYHVTB 002700430014
BI00B32AF    JTB2042        202203187158-3009-60             RUBBER STOPPER           CCN000080000000080000FN00000000020220401000080000NNM   20220128130320    1C0C  00002000000000338000000386232AF    HBYHVTB 002700430014
BI00B32AF    JTB2043        202203257158-3009-60             RUBBER STOPPER           CCN000120000000120000FN00000000020220401000120000NNM   20220128130320    1C0C  00002000000000338000000386232AF    HBYHVTB 002700430014
BI00B32AF    JTB2044        202204017158-3009-60             RUBBER STOPPER           CCN000080000000080000FN00000000020220401000080000NNM   20220128130320    1C0C  00002000000000338000000386232AF    HBYHVTB 002700430014
BI00B32AF    JTB2042        202203187158-3070-80             RUBBER STOPPER           CCN000040000000040000FN00000000020220401000040000NNM   20220128130320    1C0C  00004000000000276000000333332AF    HBYHVTB 002700430014
BI00B32AF    JTB2043        202203257158-3070-80             RUBBER STOPPER           CCN000080000000080000FN00000000020220401000080000NNM   20220128130320    1C0C  00004000000000276000000333332AF    HBYHVTB 002700430014
BI00B32AF    JTB2041        202203117158-3165-90             WIRE SEAL                CCN000280000000280000FN00000000020220401000280000NNM   20220128130320    1C0C  00004000000000124000000172432AF    HBYHVTB 004300270014
BI00B32AF    JTB2042        202203187158-3165-90             WIRE SEAL                CCN000360000000360000FN00000000020220401000360000NNM   20220128130320    1C0C  00004000000000124000000172432AF    HBYHVTB 004300270014
BI00B32AF    JTB2043        202203257158-3165-90             WIRE SEAL                CCN000320000000320000FN00000000020220401000320000NNM   20220128130320    1C0C  00004000000000124000000172432AF    HBYHVTB 004300270014
BI00B32AF    JTB2044        202204017158-3165-90             WIRE SEAL                CCN000440000000440000FN00000000020220401000440000NNM   20220128130320    1C0C  00004000000000124000000172432AF    HBYHVTB 004300270014
BI00B32AF    JTB2041        202203117158-3166-60             WIRE SEAL                CCN000040000000040000FN00000000020220401000040000NNM   20220128130320    1C0C  00004000000000104000000152432AF    HBYHVTB 002700430014
BI00B32AF    JTB2042        202203187158-3166-60             WIRE SEAL                CCN000080000000080000FN00000000020220401000080000NNM   20220128130320    1C0C  00004000000000104000000152432AF    HBYHVTB 002700430014
BI00B32AF    JTB2043        202203257158-3166-60             WIRE SEAL                CCN000080000000080000FN00000000020220401000080000NNM   20220128130320    1C0C  00004000000000104000000152432AF    HBYHVTB 002700430014
BI00B32AF    JTB2044        202204017158-3166-60             WIRE SEAL                CCN000040000000040000FN00000000020220401000040000NNM   20220128130320    1C0C  00004000000000104000000152432AF    HBYHVTB 002700430014
BI00B32AF    JTB2041        202203117158-3169-40             SEALING PLUG             CCN000080000000080000FN00000000020220401000080000NNM   20220128130320    1C0C  00004000000000156000000204132AF    HBYHVTB 004300260014
BI00B32AF    JTB2042        202203187158-3169-40             SEALING PLUG             CCN000080000000080000FN00000000020220401000080000NNM   20220128130320    1C0C  00004000000000156000000204132AF    HBYHVTB 004300260014
BI00B32AF    JTB2043        202203257158-3169-40             SEALING PLUG             CCN000080000000080000FN00000000020220401000080000NNM   20220128130320    1C0C  00004000000000156000000204132AF    HBYHVTB 004300260014
BI00B32AF    JTB2044        202204017158-3169-40             SEALING PLUG             CCN000040000000040000FN00000000020220401000040000NNM   20220128130320    1C0C  00004000000000156000000204132AF    HBYHVTB 004300260014
BI00B32AF    JTB2042        202203187195-1463-02             TERMINAL MALE            CCN000057000000057000FN00000000020220401000057000NNM   20220128130320    4P0P  00002850000000456000000741232AF    HBYHVTB 006400630015
BI00B32AF    JTB2043        202203257195-1463-02             TERMINAL MALE            CCN000057000000057000FN00000000020220401000057000NNM   20220128130320    4P0P  00002850000000456000000741232AF    HBYHVTB 006400630015
BI00B32AF    JTB2044        202204017195-1463-02             TERMINAL MALE            CCN000085500000085500FN00000000020220401000085500NNM   20220128130320    4P0P  00002850000000456000000741232AF    HBYHVTB 006400630015
BI00B32AF    JTB2041        202203117195-1467-02             TERMINAL MALE            CCN000028500000028500FN00000000020220401000028500NNM   20220128130320    4P0P  00002850000000438900000724132AF    HBYHVTB 006400630015
BI00B32AF    JTB2044        202204017196-1326-02             TERMINAL FEMALE          CCN000060000000060000FN00000000020220401000060000NNM   20220128130320    4P0P  00006000000000456000000784732AF    HBYHVTB 006400630017
BI00B32AF    JTB2041        202203117196-1460-02             TERMINAL FEMALE          CCN000114000000114000FN00000000020220401000114000NNM   20220128130320    4P0P  00002850000000444600000729832AF    HBYHVTB 006400630015
BI00B32AF    JTB2042        202203187196-1460-02             TERMINAL FEMALE          CCN000114000000114000FN00000000020220401000114000NNM   20220128130320    4P0P  00002850000000444600000729832AF    HBYHVTB 006400630015
BI00B32AF    JTB2043        202203257196-1460-02             TERMINAL FEMALE          CCN000142500000142500FN00000000020220401000142500NNM   20220128130320    4P0P  00002850000000444600000729832AF    HBYHVTB 006400630015
BI00B32AF    JTB2044        202204017196-1460-02             TERMINAL FEMALE          CCN000199500000199500FN00000000020220401000199500NNM   20220128130320    4P0P  00002850000000444600000729832AF    HBYHVTB 006400630015
BI00B32AF    JTB2042        202203187196-1461-02             TERMINAL FEMALE          CCN000048000000048000FN00000000020220401000048000NNM   20220128130320    4P0P  00002400000000386400000671632AF    HBYHVTB 006400630015
BI00B32AF    JTB2043        202203257196-1461-02             TERMINAL FEMALE          CCN000048000000048000FN00000000020220401000048000NNM   20220128130320    4P0P  00002400000000386400000671632AF    HBYHVTB 006400630015
BI00B32AF    JTB2044        202204017196-1461-02             TERMINAL FEMALE          CCN000072000000072000FN00000000020220401000072000NNM   20220128130320    4P0P  00002400000000386400000671632AF    HBYHVTB 006400630015
BI00B32AF    JTB2043        202203257196-1466-02             TERMINAL MALE            CCN000057000000057000FN00000000020220401000057000NNM   20220128130320    4P0P  00002850000000427500000712732AF    HBYHVTB 006400630015
BI00B32AF    JTB2044        202204017196-1466-02             TERMINAL MALE            CCN000028500000028500FN00000000020220401000028500NNM   20220128130320    4P0P  00002850000000427500000712732AF    HBYHVTB 006400630015
BI00B32AF    JTB2041        202203117282-4576                HOUSING MALE ASS'Y       CCN000002400000002400FN00000000020220401000002400NNM   20220128130320    4N0N  00000240000000808800001028832AF    HBYHVTB 005500360039
BI00B32AF    JTB2043        202203257282-4576                HOUSING MALE ASS'Y       CCN000002400000002400FN00000000020220401000002400NNM   20220128130320    4N0N  00000240000000808800001028832AF    HBYHVTB 005500360039
BI00B32AF    JTB2041        202203117282-4577-90             HOUSING MALE ASS'Y       CCN000002400000002400FN00000000020220401000002400NNM   20220128130320    4N0N  00000240000000964800001174832AF    HBYHVTB 005500360039
BI00B32AF    JTB2042        202203187282-4577-90             HOUSING MALE ASS'Y       CCN000002400000002400FN00000000020220401000002400NNM   20220128130320    4N0N  00000240000000964800001174832AF    HBYHVTB 005500360039
BI00B32AF    JTB2043        202203257282-4577-90             HOUSING MALE ASS'Y       CCN000002400000002400FN00000000020220401000002400NNM   20220128130320    4N0N  00000240000000964800001174832AF    HBYHVTB 005500360039
BI00B32AF    JTB2041        202203117282-4578                HOUSING MALE ASS'Y       CCN000007200000007200FN00000000020220401000007200NNM   20220128130320    4N0N  00000120000000782600000992632AF    HBYHVTB 005500360039
BI00B32AF    JTB2042        202203187282-4578                HOUSING MALE ASS'Y       CCN000010800000010800FN00000000020220401000010800NNM   20220128130320    4N0N  00000120000000782600000992632AF    HBYHVTB 005500360039
BI00B32AF    JTB2043        202203257282-4578                HOUSING MALE ASS'Y       CCN000007200000007200FN00000000020220401000007200NNM   20220128130320    4N0N  00000120000000782600000992632AF    HBYHVTB 005500360039
BI00B32AF    JTB2044        202204017282-4578                HOUSING MALE ASS'Y       CCN000006000000006000FN00000000020220401000006000NNM   20220128130320    4N0N  00000120000000782600000992632AF    HBYHVTB 005500360039
BI00B32AF    JTB2041        202203117282-9391-30             HOUSING MALE ASS'Y       CCN000002400000002400FN00000000020220401000002400NNM   20220128130320    4N0N  00000120000001017600001237632AF    HBYHVTB 005500360039
BI00B32AF    JTB2042        202203187282-9391-30             HOUSING MALE ASS'Y       CCN000001200000001200FN00000000020220401000001200NNM   20220128130320    4N0N  00000120000001017600001237632AF    HBYHVTB 005500360039
BI00B32AF    JTB2043        202203257282-9391-30             HOUSING MALE ASS'Y       CCN000001200000001200FN00000000020220401000001200NNM   20220128130320    4N0N  00000120000001017600001237632AF    HBYHVTB 005500360039
BI00B32AF    JTB2044        202204017282-9391-30             HOUSING MALE ASS'Y       CCN000001200000001200FN00000000020220401000001200NNM   20220128130320    4N0N  00000120000001017600001237632AF    HBYHVTB 005500360039
BI00B32AF    JTB2041        202203117283-1156                CONNECTOR                CCN000003200000003200FN00000000020220401000003200NNM   20220128130320    4N0N  00000080000000877600001078032AF    HBYHVTB 005600390040
BI00B32AF    JTB2042        202203187283-1156                CONNECTOR                CCN000005600000005600FN00000000020220401000005600NNM   20220128130320    4N0N  00000080000000877600001078032AF    HBYHVTB 005600390040
BI00B32AF    JTB2043        202203257283-1156                CONNECTOR                CCN000006400000006400FN00000000020220401000006400NNM   20220128130320    4N0N  00000080000000877600001078032AF    HBYHVTB 005600390040
BI00B32AF    JTB2044        202204017283-1156                CONNECTOR                CCN000004800000004800FN00000000020220401000004800NNM   20220128130320    4N0N  00000080000000877600001078032AF    HBYHVTB 005600390040
BI00B32AF    JTB2041        202203117283-4576                HOUSING FEMALE ASS'Y     CCN000019200000019200FN00000000020220401000019200NNM   20220128130320    4N0N  00000480000000651300000871332AF    HBYHVTB 005500360039
BI00B32AF    JTB2042        202203187283-4576                HOUSING FEMALE ASS'Y     CCN000024000000024000FN00000000020220401000024000NNM   20220128130320    4N0N  00000480000000651300000871332AF    HBYHVTB 005500360039
BI00B32AF    JTB2043        202203257283-4576                HOUSING FEMALE ASS'Y     CCN000019200000019200FN00000000020220401000019200NNM   20220128130320    4N0N  00000480000000651300000871332AF    HBYHVTB 005500360039
BI00B32AF    JTB2044        202204017283-4576                HOUSING FEMALE ASS'Y     CCN000014400000014400FN00000000020220401000014400NNM   20220128130320    4N0N  00000480000000651300000871332AF    HBYHVTB 005500360039
BI00B32AF    JTB2041        202203117283-4576-30             HOUSING FEMALE ASS'Y     CCN000004800000004800FN00000000020220401000004800NNM   20220128130320    4N0N  00000480000000651300000871332AF    HBYHVTB 005500360039
BI00B32AF    JTB2041        202203117283-4577                CONNECTOR HOUSING        CCN000004800000004800FN00000000020220401000004800NNM   20220128130320    4N0N  00000480000000916800001136832AF    HBYHVTB 005500360039
BI00B32AF    JTB2042        202203187283-4577                CONNECTOR HOUSING        CCN000004800000004800FN00000000020220401000004800NNM   20220128130320    4N0N  00000480000000916800001136832AF    HBYHVTB 005500360039
BI00B32AF    JTB2043        202203257283-4577                CONNECTOR HOUSING        CCN000004800000004800FN00000000020220401000004800NNM   20220128130320    4N0N  00000480000000916800001136832AF    HBYHVTB 005500360039
BI00B32AF    JTB2041        202203117283-4855                CONNECTOR HOUSING        CCN000007200000007200FN00000000020220401000007200NNM   20220128130320    4N0N  00000240000001188400001400032AF    HBYHVTB 005500360039
BI00B32AF    JTB2042        202203187283-4855                CONNECTOR HOUSING        CCN000004800000004800FN00000000020220401000004800NNM   20220128130320    4N0N  00000240000001188400001400032AF    HBYHVTB 005500360039
BI00B32AF    JTB2043        202203257283-4855                CONNECTOR HOUSING        CCN000002400000002400FN00000000020220401000002400NNM   20220128130320    4N0N  00000240000001188400001400032AF    HBYHVTB 005500360039
BI00B32AF    JTB2041        202203117283-5830-30             CONNECTOR                CCN000006000000006000FN00000000020220401000006000NNM   20220128130320    1N0N  00000600000000954000001104032AF    HBYHVTB 005500360039
BI00B32AF    JTB2042        202203187283-5830-30             CONNECTOR                CCN000006000000006000FN00000000020220401000006000NNM   20220128130320    1N0N  00000600000000954000001104032AF    HBYHVTB 005500360039
BI00B32AF    JTB2043        202203257283-5830-30             CONNECTOR                CCN000006000000006000FN00000000020220401000006000NNM   20220128130320    1N0N  00000600000000954000001104032AF    HBYHVTB 005500360039
BI00B32AF    JTB2041        202203117283-5845                CONNECTOR HOUSING        CCN000018000000018000FN00000000020220401000018000NNM   20220128130320    1N0N  00000600000000444000000606332AF    HBYHVTB 005400370024
BI00B32AF    JTB2042        202203187283-5845                CONNECTOR HOUSING        CCN000024000000024000FN00000000020220401000024000NNM   20220128130320    1N0N  00000600000000444000000606332AF    HBYHVTB 005400370024
BI00B32AF    JTB2043        202203257283-5845                CONNECTOR HOUSING        CCN000030000000030000FN00000000020220401000030000NNM   20220128130320    1N0N  00000600000000444000000606332AF    HBYHVTB 005400370024
BI00B32AF    JTB2044        202204017283-5845                CONNECTOR HOUSING        CCN000012000000012000FN00000000020220401000012000NNM   20220128130320    1N0N  00000600000000444000000606332AF    HBYHVTB 005400370024
BI00B32AF    JTB2041        202203117283-5845-30             CONNECTOR HOUSING        CCN000006000000006000FN00000000020220401000006000NNM   20220128130320    1N0N  00000600000000444000000606332AF    HBYHVTB 005400370024
BI00B32AF    JTB2042        202203187283-5845-30             CONNECTOR HOUSING        CCN000006000000006000FN00000000020220401000006000NNM   20220128130320    1N0N  00000600000000444000000606332AF    HBYHVTB 005400370024
BI00B32AF    JTB2043        202203257283-5845-30             CONNECTOR HOUSING        CCN000006000000006000FN00000000020220401000006000NNM   20220128130320    1N0N  00000600000000444000000606332AF    HBYHVTB 005400370024
BI00B32AF    JTB2041        202203117283-5846                HOUSING                  CCN000007500000007500FN00000000020220401000007500NNM   20220128130320    1N0N  00000150000000885000001102032AF    HBYHVTB 005600390040
BI00B32AF    JTB2042        202203187283-5846                HOUSING                  CCN000009000000009000FN00000000020220401000009000NNM   20220128130320    1N0N  00000150000000885000001102032AF    HBYHVTB 005600390040
BI00B32AF    JTB2043        202203257283-5846                HOUSING                  CCN000009000000009000FN00000000020220401000009000NNM   20220128130320    1N0N  00000150000000885000001102032AF    HBYHVTB 005600390040
BI00B32AF    JTB2044        202204017283-5846                HOUSING                  CCN000007500000007500FN00000000020220401000007500NNM   20220128130320    1N0N  00000150000000885000001102032AF    HBYHVTB 005600390040
BI00B32AF    JTB2041        202203117286-1899                HOUSING SUB ASSEMBLY     CCN000005376000005376FN00000000020220401000005376NNM   20220128130320    4N0N  00000033600000814800001010832AF    HBYHVTB 005400370024
BI00B32AF    JTB2042        202203187286-1899                HOUSING SUB ASSEMBLY     CCN000008064000008064FN00000000020220401000008064NNM   20220128130320    4N0N  00000033600000814800001010832AF    HBYHVTB 005400370024
BI00B32AF    JTB2043        202203257286-1899                HOUSING SUB ASSEMBLY     CCN000008736000008736FN00000000020220401000008736NNM   20220128130320    4N0N  00000033600000814800001010832AF    HBYHVTB 005400370024
BI00B32AF    JTB2044        202204017286-1899                HOUSING SUB ASSEMBLY     CCN000005376000005376FN00000000020220401000005376NNM   20220128130320    4N0N  00000033600000814800001010832AF    HBYHVTB 005400370024
BI00B32AF    JTB2041        202203117286-1900                CONNECTOR HOUSING        CCN000004800000004800FN00000000020220401000004800NNM   20220128130320    4N0N  00000480000001161600001376632AF    HBYHVTB 005500360039
BI00B32AF    JTB2042        202203187286-1900                CONNECTOR HOUSING        CCN000004800000004800FN00000000020220401000004800NNM   20220128130320    4N0N  00000480000001161600001376632AF    HBYHVTB 005500360039
BI00B32AF    JTB2043        202203257286-1900                CONNECTOR HOUSING        CCN000009600000009600FN00000000020220401000009600NNM   20220128130320    4N0N  00000480000001161600001376632AF    HBYHVTB 005500360039
BI00B32AF    JTB2044        202204017286-1900                CONNECTOR HOUSING        CCN000004800000004800FN00000000020220401000004800NNM   20220128130320    4N0N  00000480000001161600001376632AF    HBYHVTB 005500360039
BI00B32AF    JTB2041        202203117286-4097                CONNECTOR MALE ASS'Y     CCN000004800000004800FN00000000020220401000004800NNM   20220128130320    1N0N  00000160000000768000000978032AF    HBYHVTB 005500360039
BI00B32AF    JTB2042        202203187286-4097                CONNECTOR MALE ASS'Y     CCN000004800000004800FN00000000020220401000004800NNM   20220128130320    1N0N  00000160000000768000000978032AF    HBYHVTB 005500360039
BI00B32AF    JTB2043        202203257286-4097                CONNECTOR MALE ASS'Y     CCN000006400000006400FN00000000020220401000006400NNM   20220128130320    1N0N  00000160000000768000000978032AF    HBYHVTB 005500360039
BI00B32AF    JTB2044        202204017286-4097                CONNECTOR MALE ASS'Y     CCN000004800000004800FN00000000020220401000004800NNM   20220128130320    1N0N  00000160000000768000000978032AF    HBYHVTB 005500360039
BI00B32AF    JTB2041        202203117286-4097-90             CONNECTOR MALE ASS'Y     CCN000003200000003200FN00000000020220401000003200NNM   20220128130320    1N0N  00000160000000768000000978032AF    HBYHVTB 005500360039
BI00B32AF    JTB2042        202203187286-4097-90             CONNECTOR MALE ASS'Y     CCN000003200000003200FN00000000020220401000003200NNM   20220128130320    1N0N  00000160000000768000000978032AF    HBYHVTB 005500360039
BI00B32AF    JTB2043        202203257286-4097-90             CONNECTOR MALE ASS'Y     CCN000001600000001600FN00000000020220401000001600NNM   20220128130320    1N0N  00000160000000768000000978032AF    HBYHVTB 005500360039
BI00B32AF    JTB2041        202203117287-1915                CONNECTOR ASS'Y          CCN000009600000009600FN00000000020220401000009600NNM   20220128130320    4N0N  00000240000000666500000923132AF    HBYHVTB 005500360039
BI00B32AF    JTB2042        202203187287-1915                CONNECTOR ASS'Y          CCN000012000000012000FN00000000020220401000012000NNM   20220128130320    4N0N  00000240000000666500000923132AF    HBYHVTB 005500360039
BI00B32AF    JTB2043        202203257287-1915                CONNECTOR ASS'Y          CCN000007200000007200FN00000000020220401000007200NNM   20220128130320    4N0N  00000240000000666500000923132AF    HBYHVTB 005500360039
BI00B32AF    JTB2044        202204017287-1915                CONNECTOR ASS'Y          CCN000007200000007200FN00000000020220401000007200NNM   20220128130320    4N0N  00000240000000666500000923132AF    HBYHVTB 005500360039
BI00B32AF    JTB2041        202203117287-1915-30             CONNECTOR ASS'Y          CCN000004800000004800FN00000000020220401000004800NNM   20220128130320    4N0N  00000240000000666500000923132AF    HBYHVTB 005500360039
BI00B32AF    JTB2042        202203187287-1915-30             CONNECTOR ASS'Y          CCN000004800000004800FN00000000020220401000004800NNM   20220128130320    4N0N  00000240000000666500000923132AF    HBYHVTB 005500360039
BI00B32AF    JTB2043        202203257287-1915-30             CONNECTOR ASS'Y          CCN000004800000004800FN00000000020220401000004800NNM   20220128130320    4N0N  00000240000000666500000923132AF    HBYHVTB 005500360039
BI00B32AF    JTB2041        202203117287-1915-40             CONNECTOR ASS'Y          CCN000002400000002400FN00000000020220401000002400NNM   20220128130320    4N0N  00000240000000666500000923132AF    HBYHVTB 005500360039
BI00B32AF    JTB2042        202203187287-1915-40             CONNECTOR ASS'Y          CCN000002400000002400FN00000000020220401000002400NNM   20220128130320    4N0N  00000240000000666500000923132AF    HBYHVTB 005500360039
BI00B32AF    JTB2043        202203257287-1915-40             CONNECTOR ASS'Y          CCN000002400000002400FN00000000020220401000002400NNM   20220128130320    4N0N  00000240000000666500000923132AF    HBYHVTB 005500360039
BI00B32AF    JTB2041        202203117287-1917-40             CONNECTOR FEMALE         CCN000002400000002400FN00000000020220401000002400NNM   20220128130320    4N0N  00000240000001060800001312532AF    HBYHVTB 005500360039
BI00B32AF    JTB2041        202203117287-3885                HYBRID FEMALE ASS'Y      CCN000004800000004800FN00000000020220401000004800NNM   20220128130320    1N0N  00000240000001029600001249632AF    HBYHVTB 005500360039
BI00B32AF    JTB2042        202203187287-3885                HYBRID FEMALE ASS'Y      CCN000002400000002400FN00000000020220401000002400NNM   20220128130320    1N0N  00000240000001029600001249632AF    HBYHVTB 005500360039
BI00B32AF    JTB2043        202203257287-3885                HYBRID FEMALE ASS'Y      CCN000004800000004800FN00000000020220401000004800NNM   20220128130320    1N0N  00000240000001029600001249632AF    HBYHVTB 005500360039
BI00B32AF    JTB2044        202204017287-3885                HYBRID FEMALE ASS'Y      CCN000002400000002400FN00000000020220401000002400NNM   20220128130320    1N0N  00000240000001029600001249632AF    HBYHVTB 005500360039
BI00B32AF    JTB2041        202203117287-3885-30             HYBRID FEMALE ASS'Y      CCN000002400000002400FN00000000020220401000002400NNM   20220128130320    1N0N  00000240000001029600001249632AF    HBYHVTB 005500360039
BI00B32AF    JTB2042        202203187287-3885-30             HYBRID FEMALE ASS'Y      CCN000002400000002400FN00000000020220401000002400NNM   20220128130320    1N0N  00000240000001029600001249632AF    HBYHVTB 005500360039
BI00B32AF    JTB2043        202203257287-3885-30             HYBRID FEMALE ASS'Y      CCN000002400000002400FN00000000020220401000002400NNM   20220128130320    1N0N  00000240000001029600001249632AF    HBYHVTB 005500360039
BI00B32AF    JTB2041        202203117289-3342-30             HOUSING FEMALE ASS'Y     CCN000060000000060000FN00000000020220401000060000NNM   20220128130320    1N0N  00000240000000686400000901432AF    HBYHVTB 005500360039
BI00B32AF    JTB2042        202203187289-3342-30             HOUSING FEMALE ASS'Y     CCN000040800000040800FN00000000020220401000040800NNM   20220128130320    1N0N  00000240000000686400000901432AF    HBYHVTB 005500360039
BI00B32AF    JTB2043        202203257289-3342-30             HOUSING FEMALE ASS'Y     CCN000060000000060000FN00000000020220401000060000NNM   20220128130320    1N0N  00000240000000686400000901432AF    HBYHVTB 005500360039
BI00B32AF    JTB2044        202204017289-3342-30             HOUSING FEMALE ASS'Y     CCN000036000000036000FN00000000020220401000036000NNM   20220128130320    1N0N  00000240000000686400000901432AF    HBYHVTB 005500360039
BI00B32AF    JTB2041        202203117289-5011-30             HOUSING FEMALE ASS'Y     CCN000014400000014400FN00000000020220401000014400NNM   20220128130320    4N0N  00000240000001171700001368632AF    HBYHVTB 005500360039
BI00B32AF    JTB2042        202203187289-5011-30             HOUSING FEMALE ASS'Y     CCN000021600000021600FN00000000020220401000021600NNM   20220128130320    4N0N  00000240000001171700001368632AF    HBYHVTB 005500360039
BI00B32AF    JTB2043        202203257289-5011-30             HOUSING FEMALE ASS'Y     CCN000019200000019200FN00000000020220401000019200NNM   20220128130320    4N0N  00000240000001171700001368632AF    HBYHVTB 005500360039
BI00B32AF    JTB2044        202204017289-5011-30             HOUSING FEMALE ASS'Y     CCN000012000000012000FN00000000020220401000012000NNM   20220128130320    4N0N  00000240000001171700001368632AF    HBYHVTB 005500360039
BI00B32AF    JTB2041        202203117298-1865-30             HOUSING FEMALE ASS'Y     CCN000012000000012000FN00000000020220401000012000NNM   20220128130320    4N0N  00000240000001003200001204532AF    HBYHVTB 005500360039
BI00B32AF    JTB2042        202203187298-1865-30             HOUSING FEMALE ASS'Y     CCN000012000000012000FN00000000020220401000012000NNM   20220128130320    4N0N  00000240000001003200001204532AF    HBYHVTB 005500360039
BI00B32AF    JTB2043        202203257298-1865-30             HOUSING FEMALE ASS'Y     CCN000012000000012000FN00000000020220401000012000NNM   20220128130320    4N0N  00000240000001003200001204532AF    HBYHVTB 005500360039
BI00B32AF    JTB2044        202204017298-1865-30             HOUSING FEMALE ASS'Y     CCN000007200000007200FN00000000020220401000007200NNM   20220128130320    4N0N  00000240000001003200001204532AF    HBYHVTB 005500360039
BI00B32AF    JTB2041        202203117298-1869-30             HOUSING FEMALE ASS'Y     CCN000002400000002400FN00000000020220401000002400NNM   20220128130320    4N0N  00000120000000737000000939832AF    HBYHVTB 005500360039
BI00B32AF    JTB2042        202203187298-1869-30             HOUSING FEMALE ASS'Y     CCN000002400000002400FN00000000020220401000002400NNM   20220128130320    4N0N  00000120000000737000000939832AF    HBYHVTB 005500360039
BI00B32AF    JTB2043        202203257298-1869-30             HOUSING FEMALE ASS'Y     CCN000002400000002400FN00000000020220401000002400NNM   20220128130320    4N0N  00000120000000737000000939832AF    HBYHVTB 005500360039
BI00B32AF    JTB2044        202204017298-1869-30             HOUSING FEMALE ASS'Y     CCN000002400000002400FN00000000020220401000002400NNM   20220128130320    4N0N  00000120000000737000000939832AF    HBYHVTB 005500360039
BI00B32AF    JTB2042        202203187298-2278-30             HOUSING FEMALE ASS'Y     CCN000002400000002400FN00000000020220401000002400NNM   20220128130320    4N0N  00000240000001091700001295432AF    HBYHVTB 005500360039
BI00B32AF    JTB2043        202203257298-2278-30             HOUSING FEMALE ASS'Y     CCN000002400000002400FN00000000020220401000002400NNM   20220128130320    4N0N  00000240000001091700001295432AF    HBYHVTB 005500360039
BI00B32AF    JTB2044        202204017298-2278-30             HOUSING FEMALE ASS'Y     CCN000002400000002400FN00000000020220401000002400NNM   20220128130320    4N0N  00000240000001091700001295432AF    HBYHVTB 005500360039
BI00B32AF    JTB2041        202203117298-2509-30             HOUSING FEMALE ASS'Y     CCN000002400000002400FN00000000020220401000002400NNM   20220128130320    4N0N  00000120000000857500001062532AF    HBYHVTB 005500360039
BI00B32AF    JTB2042        202203187298-2509-30             HOUSING FEMALE ASS'Y     CCN000002400000002400FN00000000020220401000002400NNM   20220128130320    4N0N  00000120000000857500001062532AF    HBYHVTB 005500360039
BI00B32AF    JTB2043        202203257298-2509-30             HOUSING FEMALE ASS'Y     CCN000002400000002400FN00000000020220401000002400NNM   20220128130320    4N0N  00000120000000857500001062532AF    HBYHVTB 005500360039
BI00B32AF    JTB2044        202204017298-2509-30             HOUSING FEMALE ASS'Y     CCN000001200000001200FN00000000020220401000001200NNM   20220128130320    4N0N  00000120000000857500001062532AF    HBYHVTB 005500360039
BI00B32AF    JTB2041        202203117298-5955                CONNECTOR SUB ASSY       CCN000028800000028800FN00000000020220401000028800NNM   20220128130320    4N0N  00000720000001029600001253032AF    HBYHVTB 005500360039
BI00B32AF    JTB2042        202203187298-5955                CONNECTOR SUB ASSY       CCN000021600000021600FN00000000020220401000021600NNM   20220128130320    4N0N  00000720000001029600001253032AF    HBYHVTB 005500360039
BI00B32AF    JTB2043        202203257298-5955                CONNECTOR SUB ASSY       CCN000021600000021600FN00000000020220401000021600NNM   20220128130320    4N0N  00000720000001029600001253032AF    HBYHVTB 005500360039
BI00B32AF    JTB2044        202204017298-5955                CONNECTOR SUB ASSY       CCN000021600000021600FN00000000020220401000021600NNM   20220128130320    4N0N  00000720000001029600001253032AF    HBYHVTB 005500360039
BI00B32AF    JTB2041        202203117388-0314                CONNECTOR ASS'Y          CCN000006000000006000FN00000000020220401000006000NNM   20220128130320    4N0N  00000120000001038000001132332AF    HBYHVTB 005400370024
BI00B32AF    JTB2042        202203187388-0314                CONNECTOR ASS'Y          CCN000010800000010800FN00000000020220401000010800NNM   20220128130320    4N0N  00000120000001038000001132332AF    HBYHVTB 005400370024
BI00B32AF    JTB2043        202203257388-0314                CONNECTOR ASS'Y          CCN000014400000014400FN00000000020220401000014400NNM   20220128130320    4N0N  00000120000001038000001132332AF    HBYHVTB 005400370024
BI00B32AF    JTB2044        202204017388-0314                CONNECTOR ASS'Y          CCN000003600000003600FN00000000020220401000003600NNM   20220128130320    4N0N  00000120000001038000001132332AF    HBYHVTB 005400370024
BI00B32AF    JTB2043        202203257388-0316-80             CONNECTOR ASS'Y          CCN000001200000001200FN00000000020220401000001200NNM   20220128130320    4N0N  00000120000001002500001132532AF    HBYHVTB 005400370024
BI00B32AF    JTB2041        202203117388-0317-60             CONNECTOR ASS'Y          CCN000007200000007200FN00000000020220401000007200NNM   20220128130320    4N0N  00000120000001034400001129332AF    HBYHVTB 005400370024
BI00B32AF    JTB2042        202203187388-0317-60             CONNECTOR ASS'Y          CCN000010800000010800FN00000000020220401000010800NNM   20220128130320    4N0N  00000120000001034400001129332AF    HBYHVTB 005400370024
BI00B32AF    JTB2043        202203257388-0317-60             CONNECTOR ASS'Y          CCN000010800000010800FN00000000020220401000010800NNM   20220128130320    4N0N  00000120000001034400001129332AF    HBYHVTB 005400370024
BI00B32AF    JTB2044        202204017388-0317-60             CONNECTOR ASS'Y          CCN000007200000007200FN00000000020220401000007200NNM   20220128130320    4N0N  00000120000001034400001129332AF    HBYHVTB 005400370024
BI00B32AF    #JTB2042       202203187047-5654-30             CLIP                     CCN000010000000010000FN00000000020220401000010000NNM   20220128130320    2F0F  00000500000000657000000825332AF    HBYHVTB 005500360039
BI00B32AF    #JTB2043       202203257047-5654-30             CLIP                     CCN000010000000010000FN00000000020220401000010000NNM   20220128130320    2F0F  00000500000000657000000825332AF    HBYHVTB 005500360039
BI00B32AF    #JTB2044       202204017047-5654-30             CLIP                     CCN000005000000005000FN00000000020220401000005000NNM   20220128130320    2F0F  00000500000000657000000825332AF    HBYHVTB 005500360039
BI00B32AF    #JTB2041       202203117116-4021                TERMINAL                 CCN000027000000027000FN00000000020220401000027000NNM   20220128130320    2F0P  00001350000000534600000868832AF    HBYHVTB 006400630015
BI00B32AF    #JTB2042       202203187116-4021                TERMINAL                 CCN000027000000027000FN00000000020220401000027000NNM   20220128130320    2F0P  00001350000000534600000868832AF    HBYHVTB 006400630015
BI00B32AF    #JTB2043       202203257116-4021                TERMINAL                 CCN000040500000040500FN00000000020220401000040500NNM   20220128130320    2F0P  00001350000000534600000868832AF    HBYHVTB 006400630015
BI00B32AF    #JTB2044       202204017116-4021                TERMINAL                 CCN000027000000027000FN00000000020220401000027000NNM   20220128130320    2F0P  00001350000000534600000868832AF    HBYHVTB 006400630015
BI00B32AF    #JTB2041       202203117123-6347                CONNECTOR HOUSING        CCN000012800000012800FN00000000020220401000012800NNM   20220128130320    2F0F  00000160000000647000000904832AF    HBYHVTB 005500360039
BI00B32AF    #JTB2042       202203187123-6347                CONNECTOR HOUSING        CCN000008000000008000FN00000000020220401000008000NNM   20220128130320    2F0F  00000160000000647000000904832AF    HBYHVTB 005500360039
BI00B32AF    #JTB2043       202203257123-6347                CONNECTOR HOUSING        CCN000011200000011200FN00000000020220401000011200NNM   20220128130320    2F0F  00000160000000647000000904832AF    HBYHVTB 005500360039
BI00B32AF    #JTB2044       202204017123-6347                CONNECTOR HOUSING        CCN000012800000012800FN00000000020220401000012800NNM   20220128130320    2F0F  00000160000000647000000904832AF    HBYHVTB 005500360039
BI00B32AF    #JTB2041       202203117123-6423-30             CONNECTOR                CCN000004000000004000FN00000000020220401000004000NNM   20220128130320    2F0F  00000200000001002000001167632AF    HBYHVTB 005600390023
BI00B32AF    #JTB2042       202203187123-6423-30             CONNECTOR                CCN000006000000006000FN00000000020220401000006000NNM   20220128130320    2F0F  00000200000001002000001167632AF    HBYHVTB 005600390023
BI00B32AF    #JTB2043       202203257123-6423-30             CONNECTOR                CCN000006000000006000FN00000000020220401000006000NNM   20220128130320    2F0F  00000200000001002000001167632AF    HBYHVTB 005600390023
BI00B32AF    #JTB2044       202204017123-6423-30             CONNECTOR                CCN000008000000008000FN00000000020220401000008000NNM   20220128130320    2F0F  00000200000001002000001167632AF    HBYHVTB 005600390023
BI00B32AF    #JTB2041       202203117158-3003-90             RUBBER STOPPER           CCN000020000000020000FN00000000020220401000020000NNM   20220128130320    2C0C  00002000000000250000000306032AF    HBYHVTB 002700430014
BI00B32AF    #JTB2041       202203117158-3005-80             RUBBER STOPPER           CCN000020000000020000FN00000000020220401000020000NNM   20220128130320    2H0H  00002000000000210000000268732AF    HBYHVTB 002700430014
BI00B32AF    #JTB2044       202204017158-3005-80             RUBBER STOPPER           CCN000020000000020000FN00000000020220401000020000NNM   20220128130320    2H0H  00002000000000210000000268732AF    HBYHVTB 002700430014
BI00B32AF    #JTB2042       202203187158-3008-80             RUBBER STOPPER           CCN000020000000020000FN00000000020220401000020000NNM   20220128130320    2C0C  00002000000000288000000343032AF    HBYHVTB 004300270014
BI00B32AF    #JTB2044       202204017158-3008-80             RUBBER STOPPER           CCN000020000000020000FN00000000020220401000020000NNM   20220128130320    2C0C  00002000000000288000000343032AF    HBYHVTB 004300270014
BI00B32AF    #JTB2041       202203117158-3120-90             CONNECTOR WIRE SEAL      CCN000100000000100000FN00000000020220401000100000NNM   20220128130320    2C0C  00002000000000136000000194032AF    HBYHVTB 002700430014
BI00B32AF    #JTB2042       202203187158-3120-90             CONNECTOR WIRE SEAL      CCN000060000000060000FN00000000020220401000060000NNM   20220128130320    2C0C  00002000000000136000000194032AF    HBYHVTB 002700430014
BI00B32AF    #JTB2043       202203257158-3120-90             CONNECTOR WIRE SEAL      CCN000100000000100000FN00000000020220401000100000NNM   20220128130320    2C0C  00002000000000136000000194032AF    HBYHVTB 002700430014
BI00B32AF    #JTB2044       202204017158-3120-90             CONNECTOR WIRE SEAL      CCN000120000000120000FN00000000020220401000120000NNM   20220128130320    2C0C  00002000000000136000000194032AF    HBYHVTB 002700430014
BI00B32AF    #JTB2041       202203117158-3121-80             WIRE SEAL                CCN000020000000020000FN00000000020220401000020000NNM   20220128130320    2C0C  00002000000000118000000187332AF    HBYHVTB 002700430014
BI00B32AF    #JTB2042       202203187158-3121-80             WIRE SEAL                CCN000020000000020000FN00000000020220401000020000NNM   20220128130320    2C0C  00002000000000118000000187332AF    HBYHVTB 002700430014
BI00B32AF    #JTB2043       202203257158-3121-80             WIRE SEAL                CCN000020000000020000FN00000000020220401000020000NNM   20220128130320    2C0C  00002000000000118000000187332AF    HBYHVTB 002700430014
BI00B32AF    #JTB2044       202204017158-3121-80             WIRE SEAL                CCN000040000000040000FN00000000020220401000040000NNM   20220128130320    2C0C  00002000000000118000000187332AF    HBYHVTB 002700430014
BI00B32AF    #JTB2041       202203117183-1615                HOUSING                  CCN000004800000004800FN00000000020220401000004800NNM   20220128130320    2F0F  00000480000000757000001042032AF    HBYHVTB 005500360039
BI00B32AF    #JTB2041       202203117183-2413                CONNECTOR HOUSING        CCN000019200000019200FN00000000020220401000019200NNM   20220128130320    2F0F  00000480000000478100000760032AF    HBYHVTB 005500360039
BI00B32AF    #JTB2042       202203187183-2413                CONNECTOR HOUSING        CCN000014400000014400FN00000000020220401000014400NNM   20220128130320    2F0F  00000480000000478100000760032AF    HBYHVTB 005500360039
BI00B32AF    #JTB2043       202203257183-2413                CONNECTOR HOUSING        CCN000019200000019200FN00000000020220401000019200NNM   20220128130320    2F0F  00000480000000478100000760032AF    HBYHVTB 005500360039
BI00B32AF    #JTB2044       202204017183-2413                CONNECTOR HOUSING        CCN000014400000014400FN00000000020220401000014400NNM   20220128130320    2F0F  00000480000000478100000760032AF    HBYHVTB 005500360039
BI00B32AF    #JTB2041       202203117183-2413-30             CONNECTOR HOUSING        CCN000004800000004800FN00000000020220401000004800NNM   20220128130320    2F0F  00000480000000477600000759532AF    HBYHVTB 005500360039
BI00B32AF    #JTB2042       202203187183-2413-30             CONNECTOR HOUSING        CCN000004800000004800FN00000000020220401000004800NNM   20220128130320    2F0F  00000480000000477600000759532AF    HBYHVTB 005500360039
BI00B32AF    #JTB2041       202203117183-2414                CONNECTOR HOUSING        CCN000004800000004800FN00000000020220401000004800NNM   20220128130320    2F0F  00000480000000779200001061032AF    HBYHVTB 005500360039
BI00B32AF    #JTB2042       202203187183-2414                CONNECTOR HOUSING        CCN000004800000004800FN00000000020220401000004800NNM   20220128130320    2F0F  00000480000000779200001061032AF    HBYHVTB 005500360039
BI00B32AF    #JTB2043       202203257183-2414                CONNECTOR HOUSING        CCN000009600000009600FN00000000020220401000009600NNM   20220128130320    2F0F  00000480000000779200001061032AF    HBYHVTB 005500360039
BI00B32AF    #JTB2044       202204017183-2414                CONNECTOR HOUSING        CCN000004800000004800FN00000000020220401000004800NNM   20220128130320    2F0F  00000480000000779200001061032AF    HBYHVTB 005500360039
BI00B32AF    #JTB2041       202203117183-2415                CONNECTOR HOUSING        CCN000009600000009600FN00000000020220401000009600NNM   20220128130320    2F0F  00000480000000798200001091432AF    HBYHVTB 005500360039
BI00B32AF    #JTB2042       202203187183-2415                CONNECTOR HOUSING        CCN000014400000014400FN00000000020220401000014400NNM   20220128130320    2F0F  00000480000000798200001091432AF    HBYHVTB 005500360039
BI00B32AF    #JTB2043       202203257183-2415                CONNECTOR HOUSING        CCN000014400000014400FN00000000020220401000014400NNM   20220128130320    2F0F  00000480000000798200001091432AF    HBYHVTB 005500360039
BI00B32AF    #JTB2044       202204017183-2415                CONNECTOR HOUSING        CCN000004800000004800FN00000000020220401000004800NNM   20220128130320    2F0F  00000480000000798200001091432AF    HBYHVTB 005500360039
BI00B32AF    #JTB2041       202203117183-2418                CONNECTOR HOUSING        CCN000019200000019200FN00000000020220401000019200NNM   20220128130320    2F0F  00000480000000917000001477032AF    HBYHVTB 005500360039
BI00B32AF    #JTB2042       202203187183-2418                CONNECTOR HOUSING        CCN000009600000009600FN00000000020220401000009600NNM   20220128130320    2F0F  00000480000000917000001477032AF    HBYHVTB 005500360039
BI00B32AF    #JTB2043       202203257183-2418                CONNECTOR HOUSING        CCN000028800000028800FN00000000020220401000028800NNM   20220128130320    2F0F  00000480000000917000001477032AF    HBYHVTB 005500360039
BI00B32AF    #JTB2044       202204017183-2418                CONNECTOR HOUSING        CCN000019200000019200FN00000000020220401000019200NNM   20220128130320    2F0F  00000480000000917000001477032AF    HBYHVTB 005500360039
BI00B32AF    #JTB2041       202203117183-2419-30             HOUSING                  CCN000004800000004800FN00000000020220401000004800NNM   20220128130320    2F0F  00000480000001064600001351832AF    HBYHVTB 005500360039
BI00B32AF    #JTB2042       202203187183-2419-30             HOUSING                  CCN000004800000004800FN00000000020220401000004800NNM   20220128130320    2F0F  00000480000001064600001351832AF    HBYHVTB 005500360039
BI00B32AF    #JTB2041       202203117186-8851                HOUSING MALE             CCN000003000000003000FN00000000020220401000003000NNM   20220128130320    2F0F  00000100000000782200000906232AF    HBYHVTB 005400370024
BI00B32AF    #JTB2042       202203187186-8851                HOUSING MALE             CCN000005000000005000FN00000000020220401000005000NNM   20220128130320    2F0F  00000100000000782200000906232AF    HBYHVTB 005400370024
BI00B32AF    #JTB2043       202203257186-8851                HOUSING MALE             CCN000006000000006000FN00000000020220401000006000NNM   20220128130320    2F0F  00000100000000782200000906232AF    HBYHVTB 005400370024
BI00B32AF    #JTB2044       202204017186-8851                HOUSING MALE             CCN000003000000003000FN00000000020220401000003000NNM   20220128130320    2F0F  00000100000000782200000906232AF    HBYHVTB 005400370024
BI00B32AF    #JTB2041       202203117187-1616                HOUSING FEMALE           CCN000004000000004000FN00000000020220401000004000NNM   20220128130320    2F0F  00000400000001152000001262032AF    HBYHVTB 005500360039
BI00B32AF    #JTB2042       202203187187-1616                HOUSING FEMALE           CCN000004000000004000FN00000000020220401000004000NNM   20220128130320    2F0F  00000400000001152000001262032AF    HBYHVTB 005500360039
BI00B32AF    #JTB2043       202203257187-1616                HOUSING FEMALE           CCN000004000000004000FN00000000020220401000004000NNM   20220128130320    2F0F  00000400000001152000001262032AF    HBYHVTB 005500360039
BI00B32AF    #JTB2043       202203257187-8856-60             HLC HOUSING FEMALE       CCN000002000000002000FN00000000020220401000002000NNM   20220128130320    2F0F  00000200000000820000000931532AF    HBYHVTB 005400370024
BI00B32AF    #JTB2044       202204017187-8856-60             HLC HOUSING FEMALE       CCN000002000000002000FN00000000020220401000002000NNM   20220128130320    2F0F  00000200000000820000000931532AF    HBYHVTB 005400370024
BI00B32AF    #JTB2041       202203117282-1030                CONNECTOR MALE ASS'Y     CCN000009000000009000FN00000000020220401000009000NNM   20220128130320    2N0N  00000100000000365000000487532AF    HBYHVTB 005400370024
BI00B32AF    #JTB2042       202203187282-1030                CONNECTOR MALE ASS'Y     CCN000007000000007000FN00000000020220401000007000NNM   20220128130320    2N0N  00000100000000365000000487532AF    HBYHVTB 005400370024
BI00B32AF    #JTB2043       202203257282-1030                CONNECTOR MALE ASS'Y     CCN000009000000009000FN00000000020220401000009000NNM   20220128130320    2N0N  00000100000000365000000487532AF    HBYHVTB 005400370024
BI00B32AF    #JTB2044       202204017282-1030                CONNECTOR MALE ASS'Y     CCN000008000000008000FN00000000020220401000008000NNM   20220128130320    2N0N  00000100000000365000000487532AF    HBYHVTB 005400370024
BI00B32AF    #JTB2041       202203117282-5528-70             HOUSING MALE ASS'Y       CCN000014000000014000FN00000000020220401000014000NNM   20220128130320    2N0N  00000100000000230000000339032AF    HBYHVTB 005400370024
BI00B32AF    #JTB2042       202203187282-5528-70             HOUSING MALE ASS'Y       CCN000012000000012000FN00000000020220401000012000NNM   20220128130320    2N0N  00000100000000230000000339032AF    HBYHVTB 005400370024
BI00B32AF    #JTB2043       202203257282-5528-70             HOUSING MALE ASS'Y       CCN000015000000015000FN00000000020220401000015000NNM   20220128130320    2N0N  00000100000000230000000339032AF    HBYHVTB 005400370024
BI00B32AF    #JTB2044       202204017282-5528-70             HOUSING MALE ASS'Y       CCN000011000000011000FN00000000020220401000011000NNM   20220128130320    2N0N  00000100000000230000000339032AF    HBYHVTB 005400370024
BI00B32AF    #JTB2041       202203117283-1150                HOUSING FEMALE ASS'Y     CCN000004000000004000FN00000000020220401000004000NNM   20220128130320    2N0N  00000100000000607000000719532AF    HBYHVTB 005400370024
BI00B32AF    #JTB2042       202203187283-1150                HOUSING FEMALE ASS'Y     CCN000002000000002000FN00000000020220401000002000NNM   20220128130320    2N0N  00000100000000607000000719532AF    HBYHVTB 005400370024
BI00B32AF    #JTB2043       202203257283-1150                HOUSING FEMALE ASS'Y     CCN000003000000003000FN00000000020220401000003000NNM   20220128130320    2N0N  00000100000000607000000719532AF    HBYHVTB 005400370024
BI00B32AF    #JTB2044       202204017283-1150                HOUSING FEMALE ASS'Y     CCN000001000000001000FN00000000020220401000001000NNM   20220128130320    2N0N  00000100000000607000000719532AF    HBYHVTB 005400370024
BI00B32AF    #JTB2041       202203117283-8123                CONNECTOR HOUSING        CCN000004000000004000FN00000000020220401000004000NNM   20220128130320    2N0N  00000400000000380000000531732AF    HBYHVTB 005600390023
BI00B32AF    #JTB2042       202203187283-8123                CONNECTOR HOUSING        CCN000008000000008000FN00000000020220401000008000NNM   20220128130320    2N0N  00000400000000380000000531732AF    HBYHVTB 005600390023
BI00B32AF    #JTB2043       202203257283-8123                CONNECTOR HOUSING        CCN000004000000004000FN00000000020220401000004000NNM   20220128130320    2N0N  00000400000000380000000531732AF    HBYHVTB 005600390023
BI00B32AF    #JTB2044       202204017283-8123                CONNECTOR HOUSING        CCN000004000000004000FN00000000020220401000004000NNM   20220128130320    2N0N  00000400000000380000000531732AF    HBYHVTB 005600390023
BI00B32AF    #JTB2041       202203117287-1669                HOUSING FEMALE ASS'Y     CCN000006000000006000FN00000000020220401000006000NNM   20220128130320    2N0N  00000200000000788800000980832AF    HBYHVTB 005400370024
BI00B32AF    #JTB2042       202203187287-1669                HOUSING FEMALE ASS'Y     CCN000010000000010000FN00000000020220401000010000NNM   20220128130320    2N0N  00000200000000788800000980832AF    HBYHVTB 005400370024
BI00B32AF    #JTB2043       202203257287-1669                HOUSING FEMALE ASS'Y     CCN000010000000010000FN00000000020220401000010000NNM   20220128130320    2N0N  00000200000000788800000980832AF    HBYHVTB 005400370024
BI00B32AF    #JTB2044       202204017287-1669                HOUSING FEMALE ASS'Y     CCN000008000000008000FN00000000020220401000008000NNM   20220128130320    2N0N  00000200000000788800000980832AF    HBYHVTB 005400370024
BI00B32AF    #JTB2041       202203117287-1670                HOUSING FEMALE ASS'Y     CCN000008400000008400FN00000000020220401000008400NNM   20220128130320    2N0N  00000280000000953100001145132AF    HBYHVTB 005400370024
BI00B32AF    #JTB2042       202203187287-1670                HOUSING FEMALE ASS'Y     CCN000008400000008400FN00000000020220401000008400NNM   20220128130320    2N0N  00000280000000953100001145132AF    HBYHVTB 005400370024
BI00B32AF    #JTB2043       202203257287-1670                HOUSING FEMALE ASS'Y     CCN000008400000008400FN00000000020220401000008400NNM   20220128130320    2N0N  00000280000000953100001145132AF    HBYHVTB 005400370024
BI00B32AF    #JTB2044       202204017287-1670                HOUSING FEMALE ASS'Y     CCN000008400000008400FN00000000020220401000008400NNM   20220128130320    2N0N  00000280000000953100001145132AF    HBYHVTB 005400370024
BI00B32AF    #JTB2041       202203117287-1671                HOUSING FEMALE ASS'Y     CCN000010000000010000FN00000000020220401000010000NNM   20220128130320    2N0N  00000200000000782600000974632AF    HBYHVTB 005400370024
BI00B32AF    #JTB2042       202203187287-1671                HOUSING FEMALE ASS'Y     CCN000010000000010000FN00000000020220401000010000NNM   20220128130320    2N0N  00000200000000782600000974632AF    HBYHVTB 005400370024
BI00B32AF    #JTB2043       202203257287-1671                HOUSING FEMALE ASS'Y     CCN000010000000010000FN00000000020220401000010000NNM   20220128130320    2N0N  00000200000000782600000974632AF    HBYHVTB 005400370024
BI00B32AF    #JTB2044       202204017287-1671                HOUSING FEMALE ASS'Y     CCN000010000000010000FN00000000020220401000010000NNM   20220128130320    2N0N  00000200000000782600000974632AF    HBYHVTB 005400370024
BI00B32AF    #JTB2041       202203117287-1674                HYBRID FEMALE ASS'Y      CCN000010000000010000FN00000000020220401000010000NNM   20220128130320    2N0N  00000200000000810800001002832AF    HBYHVTB 005400370024
BI00B32AF    #JTB2042       202203187287-1674                HYBRID FEMALE ASS'Y      CCN000010000000010000FN00000000020220401000010000NNM   20220128130320    2N0N  00000200000000810800001002832AF    HBYHVTB 005400370024
BI00B32AF    #JTB2043       202203257287-1674                HYBRID FEMALE ASS'Y      CCN000010000000010000FN00000000020220401000010000NNM   20220128130320    2N0N  00000200000000810800001002832AF    HBYHVTB 005400370024
BI00B32AF    #JTB2044       202204017287-1674                HYBRID FEMALE ASS'Y      CCN000010000000010000FN00000000020220401000010000NNM   20220128130320    2N0N  00000200000000810800001002832AF    HBYHVTB 005400370024
BI00B32AF    #JTB2041       202203117297-1907-30             HOUSING MALE ASS'Y       CCN000006000000006000FN00000000020220401000006000NNM   20220128130320    2N0N  00000150000000451800000568032AF    HBYHVTB 005400370024
BI00B32AF    #JTB2042       202203187297-1907-30             HOUSING MALE ASS'Y       CCN000006000000006000FN00000000020220401000006000NNM   20220128130320    2N0N  00000150000000451800000568032AF    HBYHVTB 005400370024
BI00B32AF    #JTB2043       202203257297-1907-30             HOUSING MALE ASS'Y       CCN000004500000004500FN00000000020220401000004500NNM   20220128130320    2N0N  00000150000000451800000568032AF    HBYHVTB 005400370024
