BI00A1200    7360T51815     202112077288-3329-30             HOUSING MALE             CCN000004500000012000FN00000000020210901000012000NNED0420211129163840    4N0N  0000015000000086610000101111200    YCYC    005400370024
BI00A1200    7360T51815     202112097288-3329-30             HOUSING MALE             CCN000004500000000000FY00000000020210901000000000NNED0420211129163451    4N0N  0000015000000086610000101111200    YCYC    005400370024
BI00A1200    7360T51815     202112107288-3329-30             HOUSING MALE             CCN000004500000001500FN00000000020210901000001500NNED0420211129163840    4N0N  0000015000000086610000101111200    YCYC    005400370024
BI00A1200    7360T51815     202112237288-3329-30             HOUSING MALE             CCN000004500000000000FY00000000020210901000000000NNED0420211129163840    4N0N  0000015000000086610000101111200    YCYC    005400370024
BI00A1200    7360T51815     202112077289-3342                HOUSING FEMALE ASS'Y     CCN000009600000009600FN00000000020210901000009600NNED0420211129163913    1N0N  0000024000000068640000090141200    YCYC    005500360039
BI00B1200    2399T51A15     202111267172-5540-80             SEALED WIRE SEAL         CCN000060000000060000FY00006000020211201000000000NNM00020211129140759    1C0C  0000200000000018600000023441200    YCYC    004300270014
BI00B1200    2399T51A15     202111267173-3291-40             LIF LEVER                CCN000012000000012000FY00001200020211201000000000NNM00020211129140808    1F0F  0000024000000086780000106781200    YCYC    005500360039
BI00B1200    2399T51A20     202111267174-1849-70             COVER                    CCN000050000000050000FY00005000020211201000000000NNM00020211129140834    1F0F  0000250000000062250000076191200    YCYC    005400370024
BI00B1200    2399T51A20     202111267287-9323                UNSEALED HOUSING SUB     CCN000009600000009600FY00000960020211201000000000NNM00020211129140843    1N0N  0000024000000053760000069001200    YCYC    005600390023
BI00B1200    2399T51A24     202111267289-6159-30             HOUSING FEMALE ASS'Y     CCN000000720000000720FY00000072020211201000000000NNM00020211129140946    4N0N  0000002400000109500000137501200    YCYC    005500360039
BI00B1200    2399T51A24     202111267289-7970                HYBRID FEMALE ASS'Y      CCN000001600000001600FY00000160020211201000000000NNM00020211129140915    1N0N  0000003200000073820000096471200    YCYC    005400370024
BI00B1200    2399T51A24     202111267298-1145-4W             SQUIB SUB ASS'Y          CCN000010000000010000FY00001000020211201000000000NNM00020211129140936    4N0N  0000100000000078790000094491200    YCYC    005400370024
BI00B1200    2399T51A24     202111267298-4094-10             HOUSING FEMALE ASS'Y     CCN000064220000064220FY00006422020211201000000000NNM00020211129140925    4N0N  0000033800000109740000135871200    YCYC    005400370024
BI00B1200    8640T51B02     202201137288-3329-30             HOUSING MALE             CCN000001500000001500FN00000000020220101000001500NNED0420211129142749    4N0N  0000015000000086610000101111200    YCYC    005400370024
BI00B1200    8640T51B02     202201137289-3342-30             HOUSING FEMALE ASS'Y     CCN000002400000002400FN00000000020220101000002400NNED0420211129165145    1N0N  0000024000000068640000090141200    YCYC    005500360039
BI00B1200    8640T51B03     202202107288-3329-30             HOUSING MALE             CCN000001500000001500FN00000000020220201000001500NNED0420211129142833    4N0N  0000015000000086610000101111200    YCYC    005400370024
BI00B1200    8640T51B03     202202107289-3342-30             HOUSING FEMALE ASS'Y     CCN000002400000002400FN00000000020220201000002400NNED0420211129142833    1N0N  0000024000000068640000090141200    YCYC    005500360039
BI00B1200    8750T51C01     202205047289-3342                HOUSING FEMALE ASS'Y     CCN000004800000004800FN00000000020220101000004800NNMD0420211129134205    1N0N  0000024000000068640000090141200    YCYC    005500360039
BI00B1200    7360T51C05     202201277288-3331-30             HOUSING MALE             CCN000022500000022500FN00000000020220101000022500NNED0420211129134205    4N0N  0000015000000086600000101091200    YCYC    005400370024
BI00B1200    7360T51C05     202201277288-3333-30             HOUSING MALE             CCN000003000000003000FN00000000020220101000003000NNED0420211129134205    4N0N  0000015000000086700000101201200    YCYC    005400370024
BI00B1200    2399T51C15     202209227288-3330-30             HOUSING MALE             CCN000001500000001500FN00000000020220101000001500NNMD0420211129134205    4N0N  0000015000000086630000101121200    YCYC    005400370024
BI00B1200    2399T51C16     202209227288-3330-30             HOUSING MALE             CCN000001500000001500FN00000000020220101000001500NNMD0420211129134205    4N0N  0000015000000086630000101121200    YCYC    005400370024
BI00B1200    2399T51C15     202206027288-6547                CONNECTOR MALE ASS'Y     CCN000240000000120000FN00000000020220101000120000NNMD0420211129134205    4N0N  0000007500000120530000134031200    YCYC    005400370024
BI00B1200    2399T51C16     202206167288-6547                CONNECTOR MALE ASS'Y     CCN000240000000120000FN00000000020220101000120000NNMD0420211129134205    4N0N  0000007500000120530000134031200    YCYC    005400370024
BI00B1200    2399T51C17     202206307288-6547                CONNECTOR MALE ASS'Y     CCN000240000000120000FN00000000020220101000120000NNMD0420211129134205    4N0N  0000007500000120530000134031200    YCYC    005400370024
BI00B1200    2399T51C15     202205057289-3342                HOUSING FEMALE ASS'Y     CCN000002400000002400FN00000000020220101000002400NNMD0420211129134205    1N0N  0000024000000068640000090141200    YCYC    005500360039
BI00B1200    2399T51C16     202205057289-3342                HOUSING FEMALE ASS'Y     CCN000002400000002400FN00000000020220101000002400NNMD0420211129134205    1N0N  0000024000000068640000090141200    YCYC    005500360039
BI00B1200    2399T51C17     202205057289-3342                HOUSING FEMALE ASS'Y     CCN000002400000002400FN00000000020220101000002400NNMD0420211129134205    1N0N  0000024000000068640000090141200    YCYC    005500360039
BI00B1200    2399T51C15     202205267289-3342-30             HOUSING FEMALE ASS'Y     CCN000007200000007200FN00000000020220101000007200NNMD0420211129134205    1N0N  0000024000000068640000090141200    YCYC    005500360039
BI00B1200    2399T51C16     202205267289-3342-30             HOUSING FEMALE ASS'Y     CCN000007200000007200FN00000000020220101000007200NNMD0420211129134205    1N0N  0000024000000068640000090141200    YCYC    005500360039
BI00B1200    2399T51C17     202205267289-3342-30             HOUSING FEMALE ASS'Y     CCN000007200000007200FN00000000020220101000007200NNMD0420211129134205    1N0N  0000024000000068640000090141200    YCYC    005500360039
BI00B1200    2399T51C15     202205197289-5979-30             HOUSING FEMALE ASS'Y     CCN000024192000012096FN00000000020220101000012096NNMD0420211129151750    1N0N  0000002520000085470000106471200    YCYC    005400370024
BI00B1200    2399T51C16     202206027289-5979-30             HOUSING FEMALE ASS'Y     CCN000024192000012096FN00000000020220101000012096NNMD0420211129151904    1N0N  0000002520000085470000106471200    YCYC    005400370024
BI00B1200    2399T51C17     202206167289-5979-30             HOUSING FEMALE ASS'Y     CCN000023940000012096FN00000000020220101000012096NNMD0420211129152020    1N0N  0000002520000085470000106471200    YCYC    005400370024
BI00B1200    7360T51C01     202209227288-3330-30             HOUSING MALE             CCN000003000000003000FN00000000020220101000003000NNMD0420211129134205    4N0N  0000015000000086630000101121200    YCYC    005400370024
BI00B1200    7360T51C02     202209227288-3330-30             HOUSING MALE             CCN000001500000001500FN00000000020220101000001500NNMD0420211129134205    4N0N  0000015000000086630000101121200    YCYC    005400370024
BI00B1200    7360T51C01     202201207288-3331-30             HOUSING MALE             CCN000010500000010500FN00000000020220101000010500NNMD0420211129134205    4N0N  0000015000000086600000101091200    YCYC    005400370024
BI00B1200    7360T51C02     202202037288-3331-30             HOUSING MALE             CCN000009000000009000FN00000000020220101000009000NNMD0420211129134205    4N0N  0000015000000086600000101091200    YCYC    005400370024
BI00B1200    7360T51C03     202202107288-3331-30             HOUSING MALE             CCN000009000000009000FN00000000020220101000009000NNMD0420211129134205    4N0N  0000015000000086600000101091200    YCYC    005400370024
BI00B1200    7360T51C01     202201207288-3333-30             HOUSING MALE             CCN000010500000010500FN00000000020220101000010500NNMD0420211129134205    4N0N  0000015000000086700000101201200    YCYC    005400370024
BI00B1200    7360T51C02     202201277288-3333-30             HOUSING MALE             CCN000009000000009000FN00000000020220101000009000NNMD0420211129134205    4N0N  0000015000000086700000101201200    YCYC    005400370024
BI00B1200    7360T51C03     202201277288-3333-30             HOUSING MALE             CCN000009000000009000FN00000000020220101000009000NNMD0420211129134205    4N0N  0000015000000086700000101201200    YCYC    005400370024
BI00B1200    7360T51C01     202205267289-3342-30             HOUSING FEMALE ASS'Y     CCN000021600000021600FN00000000020220101000021600NNMD0420211129134205    1N0N  0000024000000068640000090141200    YCYC    005500360039
BI00B1200    7360T51C02     202205267289-3342-30             HOUSING FEMALE ASS'Y     CCN000021600000021600FN00000000020220101000021600NNMD0420211129134205    1N0N  0000024000000068640000090141200    YCYC    005500360039
BI00B1200    7360T51C03     202205267289-3342-30             HOUSING FEMALE ASS'Y     CCN000021600000021600FN00000000020220101000021600NNMD0420211129134205    1N0N  0000024000000068640000090141200    YCYC    005500360039
BI00B1200    2399T51C18     202207147288-6547                CONNECTOR MALE ASS'Y     CCN000240000000120000FN00000000020220201000120000NNMD0420211129134205    4N0N  0000007500000120530000134031200    YCYC    005400370024
BI00B1200    2399T51C19     202207287288-6547                CONNECTOR MALE ASS'Y     CCN000240000000120000FN00000000020220201000120000NNMD0420211129134205    4N0N  0000007500000120530000134031200    YCYC    005400370024
BI00B1200    2399T51C18     202205267289-3342-30             HOUSING FEMALE ASS'Y     CCN000004800000004800FN00000000020220201000004800NNMD0420211129134205    1N0N  0000024000000068640000090141200    YCYC    005500360039
BI00B1200    2399T51C19     202205267289-3342-30             HOUSING FEMALE ASS'Y     CCN000004800000004800FN00000000020220201000004800NNMD0420211129134205    1N0N  0000024000000068640000090141200    YCYC    005500360039
BI00B1200    2399T51C18     202206307289-5979-30             HOUSING FEMALE ASS'Y     CCN000023940000012096FN00000000020220201000012096NNMD0420211129152142    1N0N  0000002520000085470000106471200    YCYC    005400370024
BI00B1200    2399T51C19     202207147289-5979-30             HOUSING FEMALE ASS'Y     CCN000023940000012096FN00000000020220201000012096NNMD0420211129152234    1N0N  0000002520000085470000106471200    YCYC    005400370024
BI00B1200    7860T51C06     202205267289-3342-30             HOUSING FEMALE ASS'Y     CCN000002400000002400FN00000000020220201000002400NNMD0420211129134205    1N0N  0000024000000068640000090141200    YCYC    005500360039
BI00B1200    2399T51C15     202206097288-6547                CONNECTOR MALE ASS'Y     CCN000120000000120000FN00000000020220101000120000NNMD0420211129134205    4N0N  0000007500000120530000134031200    YCYC    005400370024
BI00B1200    2399T51C16     202206237288-6547                CONNECTOR MALE ASS'Y     CCN000120000000120000FN00000000020220101000120000NNMD0420211129134205    4N0N  0000007500000120530000134031200    YCYC    005400370024
BI00B1200    2399T51C17     202207077288-6547                CONNECTOR MALE ASS'Y     CCN000120000000120000FN00000000020220101000120000NNMD0420211129134205    4N0N  0000007500000120530000134031200    YCYC    005400370024
BI00B1200    2399T51C18     202207217288-6547                CONNECTOR MALE ASS'Y     CCN000120000000120000FN00000000020220201000120000NNMD0420211129134205    4N0N  0000007500000120530000134031200    YCYC    005400370024
BI00B1200    2399T51C19     202208047288-6547                CONNECTOR MALE ASS'Y     CCN000120000000120000FN00000000020220201000120000NNMD0420211129134205    4N0N  0000007500000120530000134031200    YCYC    005400370024
BI00A1200    2399T51C27     202112037289-3342-30             HOUSING FEMALE ASS'Y     CCN000007200000007200FN00000000020211201000007200NNE   20211129134205    1N0N  0000024000000068640000090141200    YCYC    005500360039
BI00B1200    #7960T51C01    202112237172-5628-80             DUMMY PLUG               CCN000020000000020000FN00000000020220101000020000NNE   20211129134205    2H0H  0000200000000011060000016201200    YCYC    004300270014
BI00B1200    8670T51C02     202202037196-1103-02             TERMINAL                 CCN000022500000022500FN00000000020220201000022500NNE   20211129134205    4P0P  0000225000000042980000071501200    YCYC    006400630015
BI00B1200    8670T51C02     202202037289-6547                HOUSING FEMALE ASS'Y     CCN000002400000002400FN00000000020220201000002400NNE   20211129134205    1N0N  0000024000000115200000136201200    YCYC    005500360039
BI00B1200    #8670T51C02    202202037172-5629-80             RUBBER STOPPER           CCN000020000000020000FN00000000020220201000020000NNE   20211129134205    2H0H  0000200000000006000000011111200    YCYC    004300270014
BI00B1200    #8670T51C02    202202037172-5630-40             RUBBER STOPPER           CCN000020000000020000FN00000000020220201000020000NNE   20211129134205    2H0H  0000200000000004400000009511200    YCYC    004300270014
BI00B1200    8670T51C03     202202107196-1103-02             TERMINAL                 CCN000022500000022500FN00000000020220301000022500NNE   20211129134205    4P0P  0000225000000042980000071501200    YCYC    006400630015
BI00B1200    8670T51C03     202202107196-1104-02             TERMINAL                 CCN000022500000022500FN00000000020220301000022500NNE   20211129134205    4P0P  0000225000000044100000072621200    YCYC    006400630015
BI00B1200    #8670T51C03    202202107172-5629-80             RUBBER STOPPER           CCN000020000000020000FN00000000020220301000020000NNE   20211129134205    2H0H  0000200000000006000000011111200    YCYC    004300270014
BI00B1200    #8670T51C03    202202107172-5630-40             RUBBER STOPPER           CCN000020000000020000FN00000000020220301000020000NNE   20211129134205    2H0H  0000200000000004400000009511200    YCYC    004300270014
BI00B1200    #8670T51C03    202202107289-2919-30             HOUSING FEMALE ASS'Y     CCN000001500000001500FN00000000020220301000001500NNE   20211129134205    2N0N  0000015000000090750000103451200    YCYC    005400360024
BI00B1200    8670T51C04     202202177196-1103-02             TERMINAL                 CCN000022500000022500FN00000000020220301000022500NNE   20211129134205    4P0P  0000225000000042980000071501200    YCYC    006400630015
BI00B1200    #8670T51C04    202202177172-5629-80             RUBBER STOPPER           CCN000020000000020000FN00000000020220301000020000NNE   20211129134205    2H0H  0000200000000006000000011111200    YCYC    004300270014
BI00B1200    #8670T51C04    202202177172-5630-40             RUBBER STOPPER           CCN000020000000020000FN00000000020220301000020000NNE   20211129134205    2H0H  0000200000000004400000009511200    YCYC    004300270014
BI00B1200    8670T51C05     202202247196-1103-02             TERMINAL                 CCN000022500000022500FN00000000020220301000022500NNE   20211129134205    4P0P  0000225000000042980000071501200    YCYC    006400630015
BI00B1200    8670T51C05     202202247196-1104-02             TERMINAL                 CCN000022500000022500FN00000000020220301000022500NNE   20211129134205    4P0P  0000225000000044100000072621200    YCYC    006400630015
BI00B1200    #8670T51C05    202202247172-5629-80             RUBBER STOPPER           CCN000040000000040000FN00000000020220301000040000NNE   20211129134205    2H0H  0000200000000006000000011111200    YCYC    004300270014
BI00B1200    Y022B50073     202201137288-9556-30             SEALED ASSY MALE         CCN000002160000002160FN00000000020220201000002160NNM   20211129134205    4N0N  0000007200000053790000078631200    YCYC    005500360039
BI00B1200    Y022C50016     202202037288-9556-30             SEALED ASSY MALE         CCN000004320000004320FN00000000020220301000004320NNM   20211129134205    4N0N  0000007200000053790000078631200    YCYC    005500360039
BI00B1200    2399T51C15     202205267289-5979-30             HOUSING FEMALE ASS'Y     CCN000012096000012096FN00000000020220101000012096NNMD0420211129151750    1N0N  0000002520000085470000106471200    YCYC    005400370024
BI00B1200    2399T51C16     202206097289-5979-30             HOUSING FEMALE ASS'Y     CCN000012096000012096FN00000000020220101000012096NNMD0420211129151910    1N0N  0000002520000085470000106471200    YCYC    005400370024
BI00B1200    2399T51C17     202206237289-5979-30             HOUSING FEMALE ASS'Y     CCN000011844000011844FN00000000020220101000011844NNMD0420211129152056    1N0N  0000002520000085470000106471200    YCYC    005400370024
BI00B1200    2399T51C18     202207077289-5979-30             HOUSING FEMALE ASS'Y     CCN000011844000011844FN00000000020220201000011844NNMD0420211129152142    1N0N  0000002520000085470000106471200    YCYC    005400370024
BI00B1200    2399T51C19     202207217289-5979-30             HOUSING FEMALE ASS'Y     CCN000011844000011844FN00000000020220201000011844NNMD0420211129152240    1N0N  0000002520000085470000106471200    YCYC    005400370024
BI00B32BF    #TT2201AKMW    202204197154-8349-30             COVER                    CCN000000240000000240FN00000000020220101000000240NNED0420211129134205    2F0F  00000008000000561000000691032BF    TTTJYCD 005600390040
BI00A32BF    #TT2112AKMW    202204197154-8349-30             COVER                    CCN000000160000000160FN00000000020211201000000160NNED0420211129134205    2F0F  00000008000000561000000691032BF    TTTJYCD 005600390040
BI00B32BF    TT22033KMW     202202017114-1301                TERMINAL                 CCN000019500000019500FN00000000020220301000019500NNM   20211129134205    4P0P  00001950000000614300000907932BF    TTTJYCD 006400630015
BI00B32B1    4502081054     202112247283-3698-30             UNSEALED FEMALE          CCN000001540000001540FN00000000020211201000001540NNED0720211129134205B1  4N0N  00000154000000954800001150832B1    AXARNE-M005400370024
BI00B32B1    A22007         202201147114-4032                TERMINAL                 CCN000007500000007500FN00000000020220401000007500NNM   20211129134205B1  4P0P  00000750000000735000001063632B1    AXARNE-M006400630017
BI00B32B1    A22007         202201147158-3166-60             WIRE SEAL                CCN000040000000040000FN00000000020220401000040000NNM   20211129134205B1  1C0C  00004000000000104000000152432B1    AXARNE-M002700430014
BI00B32B1    A22007         202201147282-5553-30             CONNECTOR                CCN000001000000001000FN00000000020220401000001000NNM   20211129134205B1  4N0N  00000100000001010000001187332B1    AXARNE-M005500360039
BI00B32B1    A22007         202201147282-5574-10             CONNECTOR                CCN000001600000001600FN00000000020220401000001600NNM   20211129134205B1  4N0N  00000080000001235000001423032B1    AXARNE-M005600390040
BI00B32B1    A22007         202201147282-6448-40             CONNECTOR                CCN000006400000006400FN00000000020220401000006400NNM   20211129134205B1  4N0N  00000080000000887000001152732B1    AXARNE-M005600390040
BI00B32B1    #A22007        202201147157-3891                RUBBER STOPPER           CCN000010000000010000FN00000000020220401000010000NNM   20211129134205B1  2H0H  00001000000000145000000241732B1    AXARNE-M004300270014
BI00B32B1    #A22007        202201147158-3376-50             CONNECTOR WIRE SEAL      CCN000120000000120000FN00000000020220401000120000NNM   20211129134205B1  2C0C  00002000000000184000000240732B1    AXARNE-M002700430014
BI00B32B1    #A22007        202201147283-8226-30             CONNECTOR                CCN000008000000008000FN00000000020220401000008000NNM   20211129134205B1  2N0N  00000200000000820000001008032B1    AXARNE-M005400370024
BI00B32B6    A72007         202201147288-5000                HOUSING MALE ASS'Y       CCN000044352000044352FN00000000020220401000044352NNM   20211129134205B6  1N0N  00000033600000825200001035232B6    AXARNE-M005400370024
BI00B32B6    A72007         202201147289-5000                HOUSING FEMALE ASS'Y     CCN000022800000022800FN00000000020220401000022800NNM   20211129134205B6  1N0N  00000030400000549000000759032B6    AXARNE-M005400370024
BI00B32B6    A72007         202201147017-1181-02             TERMINAL                 CCN000126000000126000FN00000000020220401000126000NNM   20211129134205B6  4P0P  00006300000001089900001266832B6    AXARNE-M005100280028
BI00B32B6    A72007         202201147017-1182-02             TERMINAL                 CCN000090000000090000FN00000000020220401000090000NNM   20211129134205B6  4P0P  00004500000001165500001318632B6    AXARNE-M005100280028
BI00B32B6    A72007         202201147114-1670-02             TERMINAL                 CCN000672000000672000FN00000000020220401000672000NNM   20211129134205B6  1P0P  00002400000000357600000645832B6    AXARNE-M006400630015
BI00B32B6    A72007         202201147116-4486-02             TERMINAL                 CCN000056000000056000FN00000000020220401000056000NNM   20211129134205B6  4P0P  00002800000000666400000995132B6    AXARNE-M006400630017
BI00B32B6    A72007         202201147116-5045-02             TERMINAL                 CCN000064000000064000FN00000000020220401000064000NNM   20211129134205B6  4P0P  00001600000000678400001007132B6    AXARNE-M006400630017
BI00B32B6    A72007         202201147116-5046-02             TERMINAL                 CCN000012000000012000FN00000000020220401000012000NNM   20211129134205B6  4P0P  00001200000000544800000873532B6    AXARNE-M006400630017
BI00B32B6    A72007         202201147158-3165-90             WIRE SEAL                CCN001200000001200000FN00000000020220401001200000NNM   20211129134205B6  1C0C  00004000000000124000000172432B6    AXARNE-M004300270014
BI00B32B6    A72007         202201147158-3166-60             WIRE SEAL                CCN000520000000520000FN00000000020220401000520000NNM   20211129134205B6  1C0C  00004000000000104000000152432B6    AXARNE-M002700430014
BI00B32B6    A72007         202201147158-3167-80             WIRE SEAL                CCN000680000000680000FN00000000020220401000680000NNM   20211129134205B6  1C0C  00002000000000048000000109032B6    AXARNE-M002700430014
BI00B32B6    A72007         202201147158-3168-80             SEALED                   CCN000020000000020000FN00000000020220401000020000NNM   20211129134205B6  1C0C  00002000000000044000000092132B6    AXARNE-M004300260014
BI00B32B6    A72007         202201147158-3169-40             SEALING PLUG             CCN000080000000080000FN00000000020220401000080000NNM   20211129134205B6  1C0C  00004000000000156000000204132B6    AXARNE-M004300260014
BI00B32B6    A72007         202201147196-0104-02             TERMINAL                 CCN000038000000038000FN00000000020220401000038000NNM   20211129134205B6  4P0P  00003800000000570000000956432B6    AXARNE-M006400630017
BI00B32B6    A72007         202201147287-0192-40             SEALED HOUSING ASS'Y     CCN000001920000001920FN00000000020220401000001920NNM   20211129134205B6  4N0N  00000048000001092000001322032B6    AXARNE-M005600390040
BI00B32B6    A72007         202201147289-4696-30             HOUSING FEMALE ASS'Y     CCN000070000000070000FN00000000020220401000070000NNM   20211129134205B6  4N0N  00000200000000913400001055432B6    AXARNE-M005400370024
BI00B32B6    #A72007        202201147158-3017                RUBBER STOPPER           CCN000010000000010000FN00000000020220401000010000NNM   20211129134205B6  2C0C  00001000000000375500000435032B6    AXARNE-M002700430014
BI00B32B6    #A72007        202201147174-1164                COVER                    CCN000051200000051200FN00000000020220401000051200NNM   20211129134205B6  2F0F  00000080000000592000000712032B6    AXARNE-M005500360039
BI00B32B6    #A72007        202201147158-3003-90             RUBBER STOPPER           CCN000160000000160000FN00000000020220401000160000NNM   20211129134205B6  2C0C  00002000000000250000000306032B6    AXARNE-M002700430014
BI00B32B6    #A72007        202201147158-3121-80             WIRE SEAL                CCN000220000000220000FN00000000020220401000220000NNM   20211129134205B6  2C0C  00002000000000118000000187332B6    AXARNE-M002700430014
BI00B32B7    #A82007        202201147158-3376-50             CONNECTOR WIRE SEAL      CCN000080000000080000FN00000000020220401000080000NNM   20211129134205B7  2C0C  00002000000000184000000240732B7    AXARNE-M002700430014
BI00B32CC    CTA32034       202112237283-4855                CONNECTOR HOUSING        CCN000019800000012000FN00000000020220301000012000NNED0420211129134205    4N0N  00000240000001188400001400032CC    BIYABCBU005500360039
BI00B32CC    CTA32034       202201207283-4855                CONNECTOR HOUSING        CCN000021600000009600FN00000000020220301000009600NNED0420211129134205    4N0N  00000240000001188400001400032CC    BIYABCBU005500360039
BI00A32CH    SJ21111HMW     202112077327-6872-30             MULTI FUSE               PCN000000864000000864FN00000000020211101000000864NNM00020211129134205    4N0N  00000028800000984500001150432CH    SJSAMIJF005400370024
BI00A32CH    SJ21115HMW     202112017327-6880-30             MULTI FUSE               PCN000008928000008928FN00000000020211101000008928NNM00020211129134205    4N0N  00000028800001012600001178532CH    SJSAMIJF005400370024
BI00B32CJ    JQN1122        202112037289-6547                HOUSING FEMALE ASS'Y     CCN000004800000004800FN00000000020211201000004800NNM00020211129151433    1N0N  00000240000001152000001362032CJ    QNYHVQN 005500360039
BI00B32DJ    GHT2112B 1     202111307114-5748-02             TERMINAL                 CCN000036000000036000FN00000000020211201000036000NNMD0020211129134205    4P0P  00001200000000444000000737632DJ    RBYIPLRB006400630015
BI00B32D1    #DFTC2203      202112097289-3622-30             HOUSING FEMALE ASS'Y     CCN000005616000005616FN00000000020220101000005616NNM00020211129160328    2N0N  00000043200000839400001038432D1    TOYOT-K 005400370024
BI00B32EJ    4500184777     202201067283-1020                CONNECTOR                CCN000012000000012000FN00000000020220101000012000NNE   20211129141201EJ  4N0N  00000600000000840000001049332EJ    EJYKBO  005600390040
BI00B32EJ    #4500184777    202201067158-3120-90             CONNECTOR WIRE SEAL      CCN000040000000040000FN00000000020220101000040000NNE   20211129141153EJ  2C0C  00002000000000136000000194032EJ    EJYKBO  002700430014
BI00B32EJ    4500184778     202201067158-3166-60             WIRE SEAL                CCN000040000000040000FN00000000020220101000040000NNE   20211129141300EJ  1C0C  00004000000000104000000152432EJ    EJYKBO  002700430014
BI00B32EJ    4500184778     202201067283-1020                CONNECTOR                CCN000030000000030000FN00000000020220101000030000NNE   20211129141300EJ  4N0N  00000600000000840000001049332EJ    EJYKBO  005600390040
BI00B32EJ    #4500184778    202201067123-6423-30             CONNECTOR                CCN000010000000010000FN00000000020220101000010000NNE   20211129141251EJ  2F0F  00000200000001002000001167632EJ    EJYKBO  005600390023
BI00B32EJ    #4500184778    202201067157-3821                RUBBER STOPPER           CCN000020000000020000FN00000000020220101000020000NNE   20211129141251EJ  2C0C  00002000000000176000000238032EJ    EJYKBO  002700430014
BI00B32EJ    #4500184778    202201067283-8398-40             CONNECTOR                CCN000030800000030800FN00000000020220101000030800NNE   20211129141251EJ  2N0N  00000154000001007000001171332EJ    EJYKBO  005600390023
BI00B32EJ    4500184779     202201067283-5843                CONNECTOR                CCN000021000000021000FN00000000020220101000021000NNE   20211129141325EJ  1N0N  00000150000000889000001132032EJ    EJYKBO  005600390040
BI00B32EJ    4500184779     202201067116-4022                TERMINAL                 CCN000027000000027000FN00000000020220101000027000NNE   20211129141325EJ  4P0P  00001350000000618300000903532EJ    EJYKBO  006400630015
BI00B32EJ    4500184740     202201067158-3167-80             WIRE SEAL                CCN000180000000180000FN00000000020220101000180000NNE   20211129141415EJ  1C0C  00002000000000048000000109032EJ    EJYKBO  002700430014
BI00A32E1    #NC111B        202112027289-2912-40             HOUSING FEMALE ASS'Y     CCN000002000000002000FN00000000020220101000002000NNED0020211129152832    2N0N  00000200000000804000000931032E1    SPYSE   005400370024
BI00B32G7    JJ2201C MW     202201137288-3335-30             HOUSING MALE             CCN000004500000004500FN00000000020220101000004500NNED0420211129134205    4N0N  00000150000000867000001012032G7    JIJAI   005400370024
BI00B32G7    JJ2201C MW     202201207289-3342-30             HOUSING FEMALE ASS'Y     CCN000007200000007200FN00000000020220101000007200NNED0420211129134205    1N0N  00000240000000686400000901432G7    JIJAI   005500360039
BI00B32G7    JJ2201CMMW     202201137288-3332-30             HOUSING MALE             CCN000004500000004500FN00000000020220101000004500NNED0420211129134205    4N0N  00000150000000860700001005732G7    JIJAI   005400370024
BI00B32G7    JJ2201CMMW     202201137288-3338-30             HOUSING MALE             CCN000003000000003000FN00000000020220101000003000NNED0420211129134205    4N0N  00000150000000866100001012032G7    JIJAI   005400370024
BI00B32G7    JJ2201CMMW     202201207289-3342                HOUSING FEMALE ASS'Y     CCN000002400000002400FN00000000020220101000002400NNED0420211129134205    1N0N  00000240000000686400000901432G7    JIJAI   005500360039
BI00B32G8    PATA2011B      202112227470-5946                J/B COMPLETE ASS'Y       CCN000000100000000100FN00000000020201101000000100NNED0420211129134205    4J0J  00000001000000494000000661032G8    PSPASI  005400370024
BI00B32H0    TT2201BVMW     202201187288-6547                CONNECTOR MALE ASS'Y     CCN000000750000000750FN00000000020220101000000750NNED0420211129134205    4N0N  00000075000001205300001340332H0    TTTJY   005400370024
BI00B32H7    FS21123DMW     202112017158-3006-90             RUBBER STOPPER           CCN000240000000240000FN00000000020211201000240000NNM00020211129163025    1C0C  00002000000000330600000386032H7    FYFSY   002700430014
BI00B32H7    FS21124DMW     202112017158-3006-90             RUBBER STOPPER           CCN000300000000300000FN00000000020211201000300000NNM00020211129163001    1C0C  00002000000000330600000386032H7    FYFSY   002700430014
BI00B32H7    FS21123DMW     202112017158-3009-60             RUBBER STOPPER           CCN000620000000620000FN00000000020211201000620000NNM00020211129163053    1C0C  00002000000000338000000386232H7    FYFSY   002700430014
BI00B32H7    FS21124DMW     202112017158-3009-60             RUBBER STOPPER           CCN000300000000300000FN00000000020211201000300000NNM00020211129163107    1C0C  00002000000000338000000386232H7    FYFSY   002700430014
BI00B32H7    FS21124DMW     202112087283-4855                CONNECTOR HOUSING        CCN000012000000012000FN00000000020211201000012000NNM00020211129162603    4N0N  00000240000001188400001400032H7    FYFSY   005500360039
BI00B32H7    FS21123DMW     202112087289-6547                HOUSING FEMALE ASS'Y     CCN000014400000014400FN00000000020211201000014400NNM00020211129163436    1N0N  00000240000001152000001362032H7    FYFSY   005500360039
BI00B32H7    FS21124DMW     202112087289-6547                HOUSING FEMALE ASS'Y     CCN000004800000004800FN00000000020211201000004800NNM00020211129163450    1N0N  00000240000001152000001362032H7    FYFSY   005500360039
BI00B32H8    TY21122KMW     202111267116-5045-02             TERMINAL                 CCN000032000000032000FY00003200020211201000000000NNM00020211129141522    4P0P  00001600000000678400001007132H8    TYTYC   006400630017
BI00B32H8    TY21122KMW     202111267283-4576                HOUSING FEMALE ASS'Y     CCN000004800000004800FY00000480020211201000000000NNM00020211129141531    4N0N  00000480000000651300000871332H8    TYTYC   005500360039
BI00B32H8    TY21122KMW     202111267289-3342                HOUSING FEMALE ASS'Y     CCN000007200000007200FY00000720020211201000000000NNM00020211129141539    1N0N  00000240000000686400000901432H8    TYTYC   005500360039
BI00B32H8    TY21122KMW     202111267289-3342-40             HOUSING FEMALE ASS'Y     CCN000002400000002400FY00000240020211201000000000NNM00020211129141547    1N0N  00000240000000686400000901432H8    TYTYC   005500360039
BI00B32H8    TY21122KMW     202111267388-2978-30             HOUSING MALE ASS'Y       CCN000001920000001920FY00000192020211201000000000NNM00020211129141558    1N0N  00000048000000742000001122032H8    TYTYC   005500360039
BI00B32J1    387776         202112017158-3006-90             RUBBER STOPPER           CCN000020000000020000FN00000000020211101000020000NNMD0420211129134205    1C0C  00002000000000330600000386032J1    UKYEL-BL002700430014
BI00B32M1    TCV1113        202112027158-3006-90             RUBBER STOPPER           CCN000020000000020000FN00000000020211101000020000NNM00020211129163144    1C0C  00002000000000330600000386032M1    VNYEV   002700430014
BI00B32M1    TCV1114        202112027158-3006-90             RUBBER STOPPER           CCN000040000000040000FN00000000020211101000040000NNM00020211129163159    1C0C  00002000000000330600000386032M1    VNYEV   002700430014
BI00B32M1    TCV1122        202112027283-1288-40             CONNECTOR HOUSING        CCN000004800000004800FN00000000020211201000004800NNM00020211129162635    4N0N  00000120000001382000001640732M1    VNYEV   005600390040
BI00B32M1    TCV1123        202112027283-1288-40             CONNECTOR HOUSING        CCN000002400000002400FN00000000020211201000002400NNM00020211129162651    4N0N  00000120000001382000001640732M1    VNYEV   005600390040
BI00A32M3    SM21113DMW     202112037172-5403-30             SEALED PACKING           PCN000048000000048000FN00000000020211101000048000NNM00020211129162729    1C0C  00000400000000653600000701732M3    SASAMI  004300270014
BI00A32M3    SM21114DMW     202112037172-5403-30             SEALED PACKING           PCN000048000000048000FN00000000020211101000048000NNM00020211129162754    1C0C  00000400000000653600000701732M3    SASAMI  004300270014
BI00A32M3    SM21115DMW     202112037172-5403-30             SEALED PACKING           PCN000048000000048000FN00000000020211101000048000NNM00020211129162807    1C0C  00000400000000653600000701732M3    SASAMI  004300270014
BI00B32M3    SM2201A MW     202112167017-1181-02             TERMINAL                 CCN000063000000063000FN00000000020220101000063000NNE   20211129143915    4P0P  00006300000001089900001266832M3    SASAMI  005100280028
BI00B32M3    SM2201A MW     202112167116-1688-02             TERMINAL FEMALE          CCN000021000000021000FN00000000020220101000021000NNE   20211129143915    4P0P  00002100000000299600000898832M3    SASAMI  005100280028
BI00B32M3    SM2201A MW     202112167116-5041-02             TERMINAL                 CCN000015000000015000FN00000000020220101000015000NNE   20211129143915    4P0P  00001500000000583500000868732M3    SASAMI  006400630015
BI00B32M3    SM2201A MW     202112167116-5042-02             TERMINAL                 CCN000013500000013500FN00000000020220101000013500NNE   20211129143915    4P0P  00001350000000560300000845532M3    SASAMI  006400630015
BI00B32M3    SM2201A MW     202112167283-1110                CONNECTOR                CCN000002000000002000FN00000000020220101000002000NNE   20211129143915    4N0N  00000200000000878000001067532M3    SASAMI  005500360039
BI00B32M3    SM2201A MW     202112167286-3885                CONNECTOR MALE ASS'Y     CCN000004800000004800FN00000000020220101000004800NNE   20211129143915    1N0N  00000120000000910600001130632M3    SASAMI  005500360039
BI00B32M3    SM2201ADMW     202112167282-4578-40             HOUSING MALE ASS'Y       CCN000001200000001200FN00000000020220101000001200NNE   20211129143942    4N0N  00000120000000782600000992632M3    SASAMI  005500360039
BI00B32M3    SM2201AHMW     202112167388-0317-60             CONNECTOR ASS'Y          CCN000001200000001200FN00000000020220101000001200NNE   20211129143959    4N0N  00000120000001034400001129332M3    SASAMI  005400370024
BI00A32M4    #TP1121B       202112017198-4979-30             HOUSING FEMALE           CCN000004000000004000FN00000000020211201000004000NNE   20211129150011    2F0F  00000400000000707200000876032M4    SISAI   005400370024
BI00B32M4    #TP2013F       202112237289-2913-40             HOUSING FEMALE ASS'Y     CCN000001500000001500FN00000000020220101000001500NNE   20211129134205    2N0N  00000150000000910500001037532M4    SISAI   005400360024
BI00B32M4    #TP2013F       202112237289-2914-40             HOUSING FEMALE ASS'Y     CCN000001500000001500FN00000000020220101000001500NNE   20211129134205    2N0N  00000150000000904500001031532M4    SISAI   005400370024
BI00A32Q8    #EU21113TMW    202112037289-4200-30             HOUSING FEMALE ASS'Y     PCN000048000000048000FN00000000020211101000048000NNM00020211129153033    2N0N  00000200000000926000001021032Q8    EMEMI   005400370024
BI00B32Q8    EU22011TMW     202112157282-4578                HOUSING MALE ASS'Y       CCN000004800000003600FN00000000020220101000003600NNMQ0020211129173700    4N0N  00000120000000782600000992632Q8    EMEMI   005500360039
BI00A32Q8    EU2201ATMW     202112017287-1915                CONNECTOR ASS'Y          CCN000002400000002400FN00000000020220101000002400NNEM0020211129173730    4N0N  00000240000000666500000923132Q8    EMEMI   005500360039
BI00A32Q8    EU22011TMW     202111307282-4578                HOUSING MALE ASS'Y       CCN000001200000001200FN00000000020220101000001200NNMM0020211129173705    4N0N  00000120000000782600000992632Q8    EMEMI   005500360039
BI00B32R7    R-TAP210589    202112167283-1020                CONNECTOR                CCN000006000000006000FN00000000020211201000006000NNE   20211129143603    4N0N  00000600000000840000001049332R7    IVYCIC  005600390040
BI00B32R7    R-TAP210590    202112237283-1028                CONNECTOR HOUSING        CCN000006000000006000FN00000000020220101000006000NNE   20211129143626    4N0N  00000600000000779000001019332R7    IVYCIC  005600390040
BI00B32R7    #R-TAP210590   202112237114-4022                TERMINAL                 CCN000015000000015000FN00000000020220101000015000NNE   20211129143621    2F0P  00001500000000708000001120632R7    IVYCIC  006400630015
BI00B32R7    #R-TAP210590   202112237186-8845-60             HOUSING MALE             CCN000012000000012000FN00000000020220101000012000NNE   20211129143621    2F0F  00000300000000690000000801532R7    IVYCIC  005400370024
BI00A32U5    DI1046         202111277388-2978-30             HOUSING MALE ASS'Y       CCN000005760000002400FY00000240020220101000000000NNM00020211129141437U5  1N0N  00000048000000742000001122032U5    AMAMSD  005500360039
BI00B32U5    #DI1051        202111237157-3821                RUBBER STOPPER           CCN000020000000020000FY00002000020220201000000000NNM00020211129141804U5  2C0C  00002000000000176000000238032U5    AMAMSD  002700430014
BI00B32U5    #DI1051        202111237158-3017                RUBBER STOPPER           CCN000040000000040000FY00004000020220201000000000NNM00020211129141804U5  2C0C  00001000000000375500000435032U5    AMAMSD  002700430014
BI00B32U5    #DI1051        202111237287-7859                HYBRID FEMALE ASS'Y      CCN000010800000010800FY00001080020220201000000000NNM00020211129141804U5  2N0N  00000120000000461600000671632U5    AMAMSD  005500360039
BI00B32U5    #DI1051        202111237158-3003-90             RUBBER STOPPER           CCN000160000000160000FY00016000020220201000000000NNM00020211129141804U5  2C0C  00002000000000250000000306032U5    AMAMSD  002700430014
BI00B32U5    #DI1051        202111237158-3005-80             RUBBER STOPPER           CCN000040000000040000FY00004000020220201000000000NNM00020211129141804U5  2H0H  00002000000000210000000268732U5    AMAMSD  002700430014
BI00B32U5    #DI1051        202111237158-3008-80             RUBBER STOPPER           CCN000020000000020000FY00002000020220201000000000NNM00020211129141804U5  2C0C  00002000000000288000000343032U5    AMAMSD  004300270014
BI00B32U5    #DI1051        202111237158-3015-10             RUBBER STOPPER           CCN000030000000030000FY00003000020220201000000000NNM00020211129141804U5  2C0C  00001000000000419500000474032U5    AMAMSD  002700430014
BI00B32U5    #DI1051        202111237172-5626-90             RUBBER STOPPER           CCN000260000000260000FY00026000020220201000000000NNM00020211129141804U5  2H0H  00002000000000076400000127832U5    AMAMSD  004300270014
BI00B32U5    #DI1051        202111237172-5627-60             RUBBER STOPPER           CCN000200000000200000FY00020000020220201000000000NNM00020211129141804U5  2H0H  00002000000000070400000121832U5    AMAMSD  004300270014
BI00B32U5    #DI1051        202111237172-5632-10             DUMMY PLUG               CCN000060000000060000FY00006000020220201000000000NNM00020211129141804U5  2H0H  00002000000000080400000131832U5    AMAMSD  004300270014
BI00B32U5    #DI1051        202111237182-8253-40             HOUSING                  CCN000002400000002400FY00000240020220201000000000NNM00020211129141804U5  2F0F  00000120000000573000000864032U5    AMAMSD  005600390040
BI00B32U5    #DI1051        202111237189-2978-30             HOUSING FEMALE           CCN000003000000003000FY00000300020220201000000000NNM00020211129141804U5  2F0F  00000150000000966900001096932U5    AMAMSD  005400370024
BI00A32U5    DI1046         202111267388-2978-30             HOUSING MALE ASS'Y       CCN000003360000003360FY00000336020220101000000000NNM00020211129141437U5  1N0N  00000048000000742000001122032U5    AMAMSD  005500360039
BI00B32U5    DI2007         202201147116-4037                TERMINAL                 CCN000048000000048000FN00000000020220401000048000NNM   20211129134205U5  4P0P  00000600000000600000000894232U5    AMAMSD  006400630015
BI00B32U5    DI2007         202201147289-3342                HOUSING FEMALE ASS'Y     CCN000019200000019200FN00000000020220401000019200NNM   20211129134205U5  1N0N  00000240000000686400000901432U5    AMAMSD  005500360039
BI00B32U5    DI2007         202201147017-1180-02             TERMINAL                 CCN000144000000144000FN00000000020220401000144000NNM   20211129134205U5  4P0P  00007200000001065600001229032U5    AMAMSD  005100280028
BI00B32U5    DI2007         202201147017-1182-02             TERMINAL                 CCN000045000000045000FN00000000020220401000045000NNM   20211129134205U5  4P0P  00004500000001165500001318632U5    AMAMSD  005100280028
BI00B32U5    DI2007         202201147017-1183-02             TERMINAL                 CCN000027000000027000FN00000000020220401000027000NNM   20211129134205U5  4P0P  00002700000001139400001307432U5    AMAMSD  005100280028
BI00B32U5    DI2007         202201147114-4486-02             TERMINAL                 CCN000024000000024000FN00000000020220401000024000NNM   20211129134205U5  4P0P  00002400000000662400000956032U5    AMAMSD  006400630015
BI00B32U5    DI2007         202201147114-4624-02             TERMINAL                 CCN000048000000048000FN00000000020220401000048000NNM   20211129134205U5  4P0P  00002400000000895200001188832U5    AMAMSD  006400630015
BI00B32U5    DI2007         202201147116-1685-02             TERMINAL                 CCN000240000000240000FN00000000020220401000240000NNM   20211129134205U5  4P0P  00002400000000897600001065232U5    AMAMSD  005100280028
BI00B32U5    DI2007         202201147116-4486-02             TERMINAL                 CCN000196000000196000FN00000000020220401000196000NNM   20211129134205U5  4P0P  00002800000000666400000995132U5    AMAMSD  006400630017
BI00B32U5    DI2007         202201147116-5045-02             TERMINAL                 CCN000144000000144000FN00000000020220401000144000NNM   20211129134205U5  4P0P  00001600000000678400001007132U5    AMAMSD  006400630017
BI00B32U5    DI2007         202201147116-5046-02             TERMINAL                 CCN000072000000072000FN00000000020220401000072000NNM   20211129134205U5  4P0P  00001200000000544800000873532U5    AMAMSD  006400630017
BI00B32U5    DI2007         202201147158-3167-80             WIRE SEAL                CCN000020000000020000FN00000000020220401000020000NNM   20211129134205U5  1C0C  00002000000000048000000109032U5    AMAMSD  002700430014
BI00B32U5    DI2007         202201147158-3168-80             SEALED                   CCN000020000000020000FN00000000020220401000020000NNM   20211129134205U5  1C0C  00002000000000044000000092132U5    AMAMSD  004300260014
BI00B32U5    DI2007         202201147196-1104-02             TERMINAL                 CCN000270000000270000FN00000000020220401000270000NNM   20211129134205U5  4P0P  00002250000000441000000726232U5    AMAMSD  006400630015
BI00B32U5    DI2007         202201147287-1915-40             CONNECTOR ASS'Y          CCN000004800000004800FN00000000020220401000004800NNM   20211129134205U5  4N0N  00000240000000666500000923132U5    AMAMSD  005500360039
BI00B32U5    DI2007         202201147288-3330-30             HOUSING MALE             CCN000006000000006000FN00000000020220401000006000NNM   20211129134205U5  4N0N  00000150000000866300001011232U5    AMAMSD  005400370024
BI00B32U5    DI2007         202201147288-3339-30             HOUSING MALE             CCN000001500000001500FN00000000020220401000001500NNM   20211129134205U5  4N0N  00000150000000867000001012032U5    AMAMSD  005400370024
BI00B32U5    DI2007         202201147289-3342-30             HOUSING FEMALE ASS'Y     CCN000028800000028800FN00000000020220401000028800NNM   20211129134205U5  1N0N  00000240000000686400000901432U5    AMAMSD  005500360039
BI00B32U5    DI2007         202201147289-4696-30             HOUSING FEMALE ASS'Y     CCN000002000000002000FN00000000020220401000002000NNM   20211129134205U5  4N0N  00000200000000913400001055432U5    AMAMSD  005400370024
BI00B32U5    DI2007         202201147388-2978-30             HOUSING MALE ASS'Y       CCN000008160000008160FN00000000020220401000008160NNM   20211129134205U5  1N0N  00000048000000742000001122032U5    AMAMSD  005500360039
BI00B32U5    DI2007         202201147327-6731-3W             BATTERY FUSE             CCN000002560000002560FN00000000020220401000002560NNM   20211129134205U5  4N0N  00000006400000697600000843032U5    AMAMSD  005400370024
BI00B32U5    #DI2007        202201147157-3821                RUBBER STOPPER           CCN000020000000020000FN00000000020220401000020000NNM   20211129134205U5  2C0C  00002000000000176000000238032U5    AMAMSD  002700430014
BI00B32U5    #DI2007        202201147158-3017                RUBBER STOPPER           CCN000040000000040000FN00000000020220401000040000NNM   20211129134205U5  2C0C  00001000000000375500000435032U5    AMAMSD  002700430014
BI00B32U5    #DI2007        202201147287-7859                HYBRID FEMALE ASS'Y      CCN000010800000010800FN00000000020220401000010800NNM   20211129134205U5  2N0N  00000120000000461600000671632U5    AMAMSD  005500360039
BI00B32U5    #DI2007        202201147158-3003-90             RUBBER STOPPER           CCN000200000000200000FN00000000020220401000200000NNM   20211129134205U5  2C0C  00002000000000250000000306032U5    AMAMSD  002700430014
BI00B32U5    #DI2007        202201147158-3005-80             RUBBER STOPPER           CCN000040000000040000FN00000000020220401000040000NNM   20211129134205U5  2H0H  00002000000000210000000268732U5    AMAMSD  002700430014
BI00B32U5    #DI2007        202201147158-3008-80             RUBBER STOPPER           CCN000040000000040000FN00000000020220401000040000NNM   20211129134205U5  2C0C  00002000000000288000000343032U5    AMAMSD  004300270014
BI00B32U5    #DI2007        202201147172-5626-90             RUBBER STOPPER           CCN000280000000280000FN00000000020220401000280000NNM   20211129134205U5  2H0H  00002000000000076400000127832U5    AMAMSD  004300270014
BI00B32U5    #DI2007        202201147172-5627-60             RUBBER STOPPER           CCN000220000000220000FN00000000020220401000220000NNM   20211129134205U5  2H0H  00002000000000070400000121832U5    AMAMSD  004300270014
BI00B32U5    #DI2007        202201147172-5628-80             DUMMY PLUG               CCN000080000000080000FN00000000020220401000080000NNM   20211129134205U5  2H0H  00002000000000110600000162032U5    AMAMSD  004300270014
BI00B32U5    #DI2007        202201147172-5629-80             RUBBER STOPPER           CCN000180000000180000FN00000000020220401000180000NNM   20211129134205U5  2H0H  00002000000000060000000111132U5    AMAMSD  004300270014
BI00B32U5    #DI2007        202201147172-5630-40             RUBBER STOPPER           CCN000360000000360000FN00000000020220401000360000NNM   20211129134205U5  2H0H  00002000000000044000000095132U5    AMAMSD  004300270014
BI00B32U5    #DI2007        202201147172-5631-60             RUBBER STOPPER           CCN000220000000220000FN00000000020220401000220000NNM   20211129134205U5  2H0H  00002000000000042000000093132U5    AMAMSD  004300270014
BI00B32U5    #DI2007        202201147172-5632-10             DUMMY PLUG               CCN000220000000220000FN00000000020220401000220000NNM   20211129134205U5  2H0H  00002000000000080400000131832U5    AMAMSD  004300270014
BI00B32U5    #DI2007        202201147182-8253-40             HOUSING                  CCN000001200000001200FN00000000020220401000001200NNM   20211129134205U5  2F0F  00000120000000573000000864032U5    AMAMSD  005600390040
BI00B32U5    #DI2007        202201147189-2978-30             HOUSING FEMALE           CCN000006000000006000FN00000000020220401000006000NNM   20211129134205U5  2F0F  00000150000000966900001096932U5    AMAMSD  005400370024
BI00B32U5    #DI2007        202201147289-4200-30             HOUSING FEMALE ASS'Y     CCN000006000000006000FN00000000020220401000006000NNM   20211129134205U5  2N0N  00000200000000926000001021032U5    AMAMSD  005400370024
BI00B32U9    TP0374S        202112017283-3698-30             UNSEALED FEMALE          CCN000001540000001540FN00000000020211201000001540NNE00020211129162839U9  4N0N  00000154000000954800001150832U9    YNYNA-E 005400370024
BI00B32U9    TP0374S        202112017288-3332-30             HOUSING MALE             CCN000001500000001500FN00000000020211201000001500NNE00020211129155635U9  4N0N  00000150000000860700001005732U9    YNYNA-E 005400370024
BI00B32U9    TP0374S        202112017114-4030                TERMINAL                 CCN000010500000010500FN00000000020211201000010500NNE00020211129155651U9  4P0P  00001050000000926100001254732U9    YNYNA-E 006400630017
BI00B32U9    TP0374S        202112017158-3006-90             RUBBER STOPPER           CCN000060000000060000FN00000000020211201000060000NNE00020211129155706U9  1C0C  00002000000000330600000386032U9    YNYNA-E 002700430014
BI00B32W4    4500180731     202112027158-3166-60             WIRE SEAL                CCN000640000000640000FN00000000020211101000640000NNED0420211129154851W41 1C0C  00004000000000104000000152432W41   HJYHK   002700430014
BI00B32W4    4500180740     202112027158-3166-60             WIRE SEAL                CCN000400000000400000FN00000000020211101000400000NNED0420211129154928W41 1C0C  00004000000000104000000152432W41   HJYHK   002700430014
BI00B32W4    4500184677     202202037289-3342-30             HOUSING FEMALE ASS'Y     CCN000012000000012000FN00000000020220101000012000NNED0420211129134205W4D41N0N  00000240000000686400000901432W4D4  HJYHK-J 005500360039
BI00B32W4    4500184677     202201277289-3342-90             HOUSING FEMALE ASS'Y     CCN000004800000004800FN00000000020220101000004800NNED0420211129134205W4D41N0N  00000240000000686400000901432W4D4  HJYHK-J 005500360039
BI00B32W4    4500184677     202202037289-6547                HOUSING FEMALE ASS'Y     CCN000002400000002400FN00000000020220101000002400NNED0420211129134205W4D41N0N  00000240000001152000001362032W4D4  HJYHK-J 005500360039
BI00B32W4    4500184677     202201207289-3342                HOUSING FEMALE ASS'Y     CCN000004800000004800FN00000000020220101000004800NNED0420211129134205W4D41N0N  00000240000000686400000901432W4D4  HJYHK-J 005500360039
BI00B32W4    4500184677     202205057288-6547                CONNECTOR MALE ASS'Y     CCN000000750000000750FN00000000020220101000000750NNED0420211129134205W4D44N0N  00000075000001205300001340332W4D4  HJYHK-J 005400370024
BI00B32W4    4500184677     202202037289-3342-40             HOUSING FEMALE ASS'Y     CCN000002400000002400FN00000000020220101000002400NNED0420211129134205W4D41N0N  00000240000000686400000901432W4D4  HJYHK-J 005500360039
BI00B32W4    4500184691     202205197288-6547                CONNECTOR MALE ASS'Y     CCN000052500000006000FN00000000020220101000006000NNED0420211129134205W4164N0N  00000075000001205300001340332W416  HJYHK   005400370024
BI00B32W4    4500184691     202202037289-6547                HOUSING FEMALE ASS'Y     CCN000009600000009600FN00000000020220101000009600NNED0420211129134205W4161N0N  00000240000001152000001362032W416  HJYHK   005500360039
BI00B32W4    4500184691     202206167288-6547                CONNECTOR MALE ASS'Y     CCN000006000000006000FN00000000020220101000006000NNED0420211129134205W4164N0N  00000075000001205300001340332W416  HJYHK   005400370024
BI00B32W4    4500184691     202207217288-6547                CONNECTOR MALE ASS'Y     CCN000006750000006750FN00000000020220101000006750NNED0420211129134205W4164N0N  00000075000001205300001340332W416  HJYHK   005400370024
BI00B32W4    4500184691     202208187288-6547                CONNECTOR MALE ASS'Y     CCN000006750000006750FN00000000020220101000006750NNED0420211129134205W4164N0N  00000075000001205300001340332W416  HJYHK   005400370024
BI00B32W4    4500184691     202209157288-6547                CONNECTOR MALE ASS'Y     CCN000006750000006750FN00000000020220101000006750NNED0420211129134205W4164N0N  00000075000001205300001340332W416  HJYHK   005400370024
BI00B32W4    4500184691     202210207288-6547                CONNECTOR MALE ASS'Y     CCN000006750000006750FN00000000020220101000006750NNED0420211129134205W4164N0N  00000075000001205300001340332W416  HJYHK   005400370024
BI00B32W4    4500184691     202211177288-6547                CONNECTOR MALE ASS'Y     CCN000006750000006750FN00000000020220101000006750NNED0420211129134205W4164N0N  00000075000001205300001340332W416  HJYHK   005400370024
BI00B32W4    4500184691     202212157288-6547                CONNECTOR MALE ASS'Y     CCN000006750000006750FN00000000020220101000006750NNED0420211129134205W4164N0N  00000075000001205300001340332W416  HJYHK   005400370024
BI00B32W4    4500184749     202201207116-4120-02             TERMINAL                 CCN000006000000006000FN00000000020220101000006000NNE   20211129134205W49 4P0P  00000600000000780000001073632W49   HJYHK   006400630015
BI00B32W4    4500184750     202201067158-3166-60             WIRE SEAL                CCN000040000000040000FN00000000020220101000040000NNE   20211129134205W49 1C0C  00004000000000104000000152432W49   HJYHK   002700430014
BI00B32W4    @4500184750    202201067183-8049                CONNECTOR HOUSING        CCN000004000000004000FN00000000020220101000004000NNE   20211129134205W49 3F0F  00000400000000583600000740032W49   HJYHK   005400370024
BI00A32W4    #4500184754    202112097158-3120-90             CONNECTOR WIRE SEAL      CCN000020000000020000FN00000000020211201000020000NNE   20211129134205W4492C0C  00002000000000136000000194032W449  HJYHK   002700430014
BI00A32W4    4500184759     202201137283-1020                CONNECTOR                CCN000024000000024000FN00000000020220101000024000NNE   20211129134507W4M64N0N  00000600000000840000001049332W4M6  HJYHK-J 005600390040
BI00A32W4    4500184760     202203037283-1020                CONNECTOR                CCN000024000000024000FN00000000020220301000024000NNE   20211129134515W4M64N0N  00000600000000840000001049332W4M6  HJYHK-J 005600390040
BI00B32W4    4500184791     202201257116-1180                TERMINAL                 CCN000019500000019500FN00000000020220101000019500NNE   20211129134641W41 1P0P  00001950000000618200000903432W41   HJYHK   006400630015
BI00B32W6    SW21122QMW     202111267C89-6868-30             SEALED ASSY FEMALE       CCN000025200000025200FY00002520020211201000000000NNM00020211129141335    4N0N  00000252000000839200001119232W6    SYSYA-WJ005500360039
BI00B32W6    SW21122QMW     202111267114-5748-02             TERMINAL                 CCN000072000000072000FY00007200020211201000000000NNM00020211129141233    4P0P  00001200000000444000000737632W6    SYSYA-WJ006400630015
BI00B32W6    SW21122QMW     202111267116-5045-02             TERMINAL                 CCN000048000000048000FY00004800020211201000000000NNM00020211129141243    4P0P  00001600000000678400001007132W6    SYSYA-WJ006400630017
BI00B32W6    SW21122QMW     202111267116-5750-02             TERMINAL                 CCN000045000000045000FY00004500020211201000000000NNM00020211129141313    4P0P  00001500000000457500000742732W6    SYSYA-WJ006400630015
BI00B32W6    SW21122QMW     202111267126-8853-02             TERMINAL                 CCN000067500000067500FY00006750020211201000000000NNM00020211129141324    4P0P  00000750000000562500000847732W6    SYSYA-WJ006400630015
BI00B32W6    SW21123QMW     202112017158-3006-90             RUBBER STOPPER           CCN000020000000020000FN00000000020211201000020000NNM00020211129141133    1C0C  00002000000000330600000386032W6    SYSYA-WJ002700430014
BI00B32W6    SW21123QMW     202112017288-6547                CONNECTOR MALE ASS'Y     CCN000006750000006750FN00000000020211201000006750NNM00020211129141133    4N0N  00000075000001205300001340332W6    SYSYA-WJ005400370024
BI00B32W6    SW21122QMW     202111267289-3342                HOUSING FEMALE ASS'Y     CCN000019200000019200FY00001920020211201000000000NNM00020211129141210    1N0N  00000240000000686400000901432W6    SYSYA-WJ005500360039
BI00B32W6    SW21122QMW     202111267289-3342-90             HOUSING FEMALE ASS'Y     CCN000004800000004800FY00000480020211201000000000NNM00020211129141219    1N0N  00000240000000686400000901432W6    SYSYA-WJ005500360039
BI00B32W6    SW21123QMW     202112017289-6547                HOUSING FEMALE ASS'Y     CCN000007200000007200FN00000000020211201000007200NNM00020211129141133    1N0N  00000240000001152000001362032W6    SYSYA-WJ005500360039
BI00B32W6    SW21123QMW     202112017327-6870-30             MULTI FUSE               CCN000006624000006624FN00000000020211201000006624NNM00020211129141133    4N0N  00000028800001015200001181132W6    SYSYA-WJ005400370024
BI00B32W9    #4500184744    202201207186-8845                HOUSING MALE             CCN000018000000018000FN00000000020220101000018000NNE   20211129134205W9  2F0F  00000300000000690000000801532W9    HKYHK   005400370024
BI00B32X5    TIB2007        202201147114-6041                TERMINAL                 CCN000003600000003600FN00000000020220401000003600NNM   20211129134205X5  4P0P  00000360000000580700000824232X5    EPYNA-E 006400630015
BI00B32X5    TIB2007        202201147116-4037                TERMINAL                 CCN000024000000024000FN00000000020220401000024000NNM   20211129134205X5  4P0P  00000600000000600000000894232X5    EPYNA-E 006400630015
BI00B32X5    TIB2007        202201147287-8072                HOUSING FEMALE ASS'Y     CCN000002400000002400FN00000000020220401000002400NNM   20211129134205X5  1N0N  00000240000001221600001441632X5    EPYNA-E 005500360039
BI00B32X5    TIB2007        202201147288-6547                CONNECTOR MALE ASS'Y     CCN000021750000021750FN00000000020220401000021750NNM   20211129134205X5  4N0N  00000075000001205300001340332X5    EPYNA-E 005400370024
BI00B32X5    TIB2007        202201147289-6547                HOUSING FEMALE ASS'Y     CCN000021600000021600FN00000000020220401000021600NNM   20211129134205X5  1N0N  00000240000001152000001362032X5    EPYNA-E 005500360039
BI00B32X5    TIB2007        202201147017-1180-02             TERMINAL                 CCN000432000000432000FN00000000020220401000432000NNM   20211129134205X5  4P0P  00007200000001065600001229032X5    EPYNA-E 005100280028
BI00B32X5    TIB2007        202201147017-1182-02             TERMINAL                 CCN000045000000045000FN00000000020220401000045000NNM   20211129134205X5  4P0P  00004500000001165500001318632X5    EPYNA-E 005100280028
BI00B32X5    TIB2007        202201147017-1183-02             TERMINAL                 CCN000054000000054000FN00000000020220401000054000NNM   20211129134205X5  4P0P  00002700000001139400001307432X5    EPYNA-E 005100280028
BI00B32X5    TIB2007        202201147114-4486-02             TERMINAL                 CCN000096000000096000FN00000000020220401000096000NNM   20211129134205X5  4P0P  00002400000000662400000956032X5    EPYNA-E 006400630015
BI00B32X5    TIB2007        202201147114-4624-02             TERMINAL                 CCN000048000000048000FN00000000020220401000048000NNM   20211129134205X5  4P0P  00002400000000895200001188832X5    EPYNA-E 006400630015
BI00B32X5    TIB2007        202201147116-1257-02             TERMINAL                 CCN000024000000024000FN00000000020220401000024000NNM   20211129134205X5  1P0P  00002400000000518400000847132X5    EPYNA-E 006400630017
BI00B32X5    TIB2007        202201147116-1685-02             TERMINAL                 CCN000072000000072000FN00000000020220401000072000NNM   20211129134205X5  4P0P  00002400000000897600001065232X5    EPYNA-E 005100280028
BI00B32X5    TIB2007        202201147116-4486-02             TERMINAL                 CCN000196000000196000FN00000000020220401000196000NNM   20211129134205X5  4P0P  00002800000000666400000995132X5    EPYNA-E 006400630017
BI00B32X5    TIB2007        202201147116-5045-02             TERMINAL                 CCN000304000000304000FN00000000020220401000304000NNM   20211129134205X5  4P0P  00001600000000678400001007132X5    EPYNA-E 006400630017
BI00B32X5    TIB2007        202201147116-5046-02             TERMINAL                 CCN000072000000072000FN00000000020220401000072000NNM   20211129134205X5  4P0P  00001200000000544800000873532X5    EPYNA-E 006400630017
BI00B32X5    TIB2007        202201147137-3047-30             UNIT PACKING             CCN000007000000007000FN00000000020220401000007000NNM   20211129134205X5  1C0C  00000100000000170500000218932X5    EPYNA-E 002700430014
BI00B32X5    TIB2007        202201147172-5402-30             SEAL RUBBER              CCN000016000000016000FN00000000020220401000016000NNM   20211129134205X5  1C0C  00000800000000457600000506032X5    EPYNA-E 004300270014
BI00B32X5    TIB2007        202201147172-5403-30             SEALED PACKING           CCN000012000000012000FN00000000020220401000012000NNM   20211129134205X5  1C0C  00000400000000653600000701732X5    EPYNA-E 004300270014
BI00B32X5    TIB2007        202201147173-3291-40             LIF LEVER                CCN000002400000002400FN00000000020220401000002400NNM   20211129134205X5  1F0F  00000240000000867800001067832X5    EPYNA-E 005500360039
BI00B32X5    TIB2007        202201147196-1102-02             TERMINAL                 CCN000022500000022500FN00000000020220401000022500NNM   20211129134205X5  4P0P  00002250000000405000000690232X5    EPYNA-E 006400630015
BI00B32X5    TIB2007        202201147196-1104-02             TERMINAL                 CCN000045000000045000FN00000000020220401000045000NNM   20211129134205X5  4P0P  00002250000000441000000726232X5    EPYNA-E 006400630015
BI00B32X5    TIB2007        202201147196-1325-02             TERMINAL FEMALE          CCN000180000000180000FN00000000020220401000180000NNM   20211129134205X5  4P0P  00006000000000450000000778732X5    EPYNA-E 006400630017
BI00B32X5    TIB2007        202201147196-1326-02             TERMINAL FEMALE          CCN000300000000300000FN00000000020220401000300000NNM   20211129134205X5  4P0P  00006000000000456000000784732X5    EPYNA-E 006400630017
BI00B32X5    TIB2007        202201147282-4576-90             HOUSING MALE ASS'Y       CCN000002400000002400FN00000000020220401000002400NNM   20211129134205X5  4N0N  00000240000000808800001028832X5    EPYNA-E 005500360039
BI00B32X5    TIB2007        202201147282-5574-10             CONNECTOR                CCN000012800000012800FN00000000020220401000012800NNM   20211129134205X5  4N0N  00000080000001235000001423032X5    EPYNA-E 005600390040
BI00B32X5    TIB2007        202201147283-4855-40             CONNECTOR HOUSING        CCN000002400000002400FN00000000020220401000002400NNM   20211129134205X5  4N0N  00000240000001188400001400032X5    EPYNA-E 005600360039
BI00B32X5    TIB2007        202201147283-6568-40             CONNECTOR                CCN000004000000004000FN00000000020220401000004000NNM   20211129134205X5  4N0N  00000200000001090000001263032X5    EPYNA-E 005500360039
BI00B32X5    TIB2007        202201147289-3342-30             HOUSING FEMALE ASS'Y     CCN000019200000019200FN00000000020220401000019200NNM   20211129134205X5  1N0N  00000240000000686400000901432X5    EPYNA-E 005500360039
BI00B32X5    TIB2007        202201147289-3342-40             HOUSING FEMALE ASS'Y     CCN000016800000016800FN00000000020220401000016800NNM   20211129134205X5  1N0N  00000240000000686400000901432X5    EPYNA-E 005500360039
BI00B32X5    TIB2007        202201147289-3342-90             HOUSING FEMALE ASS'Y     CCN000014400000014400FN00000000020220401000014400NNM   20211129134205X5  1N0N  00000240000000686400000901432X5    EPYNA-E 005500360039
BI00B32X5    TIB2007        202201147289-5979-30             HOUSING FEMALE ASS'Y     CCN000002520000002520FN00000000020220401000002520NNM   20211129134205X5  1N0N  00000025200000854700001064732X5    EPYNA-E 005400370024
BI00B32X5    TIB2007        202201147289-6518-30             HOUSING FEMALE ASS'Y     CCN000002400000002400FN00000000020220401000002400NNM   20211129134205X5  1N0N  00000120000000829200001049232X5    EPYNA-E 005500360039
BI00B32X5    TIB2007        202201147295-0785-02             TERMINAL ALUMINIUM       CCN000051000000051000FN00000000020220401000051000NNM   20211129134205X5  4P0P  00002550000000510000000803632X5    EPYNA-E 006400630015
BI00B32X5    TIB2007        202201147296-0784-02             TERMINAL ALUMINIUM       CCN000096000000096000FN00000000020220401000096000NNM   20211129134205X5  4P0P  00002400000000480000000765232X5    EPYNA-E 006400630015
BI00B32X5    TIB2007        202201147388-2978-30             HOUSING MALE ASS'Y       CCN000006240000006240FN00000000020220401000006240NNM   20211129134205X5  1N0N  00000048000000742000001122032X5    EPYNA-E 005500360039
BI00B32X5    TIB2007        202201147327-6731-3W             BATTERY FUSE             CCN000001536000001536FN00000000020220401000001536NNM   20211129134205X5  4N0N  00000006400000697600000843032X5    EPYNA-E 005400370024
BI00B32X5    #TIB2007       202201147158-3017                RUBBER STOPPER           CCN000020000000020000FN00000000020220401000020000NNM   20211129134205X5  2C0C  00001000000000375500000435032X5    EPYNA-E 002700430014
BI00B32X5    #TIB2007       202201147287-7859                HYBRID FEMALE ASS'Y      CCN000012000000012000FN00000000020220401000012000NNM   20211129134205X5  2N0N  00000120000000461600000671632X5    EPYNA-E 005500360039
BI00B32X5    #TIB2007       202201147287-9155                HOUSING FEMALE ASS'Y     CCN000006720000006720FN00000000020220401000006720NNM   20211129134205X5  2N0N  00000096000000853700001045232X5    EPYNA-E 005400370024
BI00B32X5    #TIB2007       202201147158-3003-90             RUBBER STOPPER           CCN000140000000140000FN00000000020220401000140000NNM   20211129134205X5  2C0C  00002000000000250000000306032X5    EPYNA-E 002700430014
BI00B32X5    #TIB2007       202201147158-3004-40             RUBBER STOPPER           CCN000200000000200000FN00000000020220401000200000NNM   20211129134205X5  2C0C  00002000000000234000000306332X5    EPYNA-E 002700430014
BI00B32X5    #TIB2007       202201147158-3005-80             RUBBER STOPPER           CCN000020000000020000FN00000000020220401000020000NNM   20211129134205X5  2H0H  00002000000000210000000268732X5    EPYNA-E 002700430014
BI00B32X5    #TIB2007       202201147158-3007-10             RUBBER STOPPER           CCN000240000000240000FN00000000020220401000240000NNM   20211129134205X5  2H0H  00002000000000308000000362732X5    EPYNA-E 002700430014
BI00B32X5    #TIB2007       202201147158-3008-80             RUBBER STOPPER           CCN000040000000040000FN00000000020220401000040000NNM   20211129134205X5  2C0C  00002000000000288000000343032X5    EPYNA-E 004300270014
BI00B32X5    #TIB2007       202201147158-3015-10             RUBBER STOPPER           CCN000010000000010000FN00000000020220401000010000NNM   20211129134205X5  2C0C  00001000000000419500000474032X5    EPYNA-E 002700430014
BI00B32X5    #TIB2007       202201147158-3610-80             RUBBER STOPPER           CCN000003000000003000FN00000000020220401000003000NNM   20211129134205X5  2H0H  00000300000000396900000438932X5    EPYNA-E 004300270014
BI00B32X5    #TIB2007       202201147172-5625-90             RUBBER STOPPER           CCN000040000000040000FN00000000020220401000040000NNM   20211129134205X5  2H0H  00002000000000082400000133832X5    EPYNA-E 004300270014
BI00B32X5    #TIB2007       202201147172-5626-90             RUBBER STOPPER           CCN000040000000040000FN00000000020220401000040000NNM   20211129134205X5  2H0H  00002000000000076400000127832X5    EPYNA-E 004300270014
BI00B32X5    #TIB2007       202201147172-5627-60             RUBBER STOPPER           CCN000040000000040000FN00000000020220401000040000NNM   20211129134205X5  2H0H  00002000000000070400000121832X5    EPYNA-E 004300270014
BI00B32X5    #TIB2007       202201147172-5628-80             DUMMY PLUG               CCN000040000000040000FN00000000020220401000040000NNM   20211129134205X5  2H0H  00002000000000110600000162032X5    EPYNA-E 004300270014
BI00B32X5    #TIB2007       202201147172-5629-80             RUBBER STOPPER           CCN000440000000440000FN00000000020220401000440000NNM   20211129134205X5  2H0H  00002000000000060000000111132X5    EPYNA-E 004300270014
BI00B32X5    #TIB2007       202201147172-5630-40             RUBBER STOPPER           CCN000240000000240000FN00000000020220401000240000NNM   20211129134205X5  2H0H  00002000000000044000000095132X5    EPYNA-E 004300270014
BI00B32X5    #TIB2007       202201147172-5631-60             RUBBER STOPPER           CCN000060000000060000FN00000000020220401000060000NNM   20211129134205X5  2H0H  00002000000000042000000093132X5    EPYNA-E 004300270014
BI00B32X5    #TIB2007       202201147172-5632-10             DUMMY PLUG               CCN000280000000280000FN00000000020220401000280000NNM   20211129134205X5  2H0H  00002000000000080400000131832X5    EPYNA-E 004300270014
BI00B32X5    #TIB2007       202201147173-3225-10             LIF LEVER                CCN000003200000003200FN00000000020220401000003200NNM   20211129134205X5  2F0F  00000080000000592000000712032X5    EPYNA-E 005500360039
BI00B32X5    #TIB2007       202201147183-8251-40             HOUSING                  CCN000007200000007200FN00000000020220401000007200NNM   20211129134205X5  2F0F  00000240000000357600000640032X5    EPYNA-E 005500360039
BI00B32X5    #TIB2007       202201147183-8253-40             HOUSING                  CCN000002400000002400FN00000000020220401000002400NNM   20211129134205X5  2F0F  00000240000000528000000805032X5    EPYNA-E 005500360039
BI00B32X5    #TIB2007       202201147189-2978-30             HOUSING FEMALE           CCN000009000000009000FN00000000020220401000009000NNM   20211129134205X5  2F0F  00000150000000966900001096932X5    EPYNA-E 005400370024
BI00B32X5    #TIB2007       202201147189-3034-30             HOUSING FEMALE           CCN000003200000003200FN00000000020220401000003200NNM   20211129134205X5  2F0F  00000160000000972800001192832X5    EPYNA-E 005500360039
BI00B32X5    @TIB2007       202201147286-4098                CONNECTOR MALE ASS'Y     CCN000028800000028800FN00000000020220401000028800NNM   20211129134205X5  3N0N  00000160000000949100001163032X5    EPYNA-E 005500360039
BI00B32Y5    TTA32045       202202157288-6547                CONNECTOR MALE ASS'Y     CCN000001500000001500FN00000000020220401000001500NNED0420211129134205    4N0N  00000075000001205300001340332Y5    BZYBL   005400370024
BI00B32Y5    TTA32045       202202157289-3342-30             HOUSING FEMALE ASS'Y     CCN000004800000004800FN00000000020220401000004800NNED0420211129134205    1N0N  00000240000000686400000901432Y5    BZYBL   005500360039
BI00B32Y5    TTA32045       202202017289-3342-90             HOUSING FEMALE ASS'Y     CCN000002400000002400FN00000000020220401000002400NNED0420211129134205    1N0N  00000240000000686400000901432Y5    BZYBL   005500360039
BI00B32Y6    STAP32031      202112167270-8994                6P MODULE ASSEMBLY       CCN000010400000010400FN00000000020220301000010400NNMD0420211129134205    4J0J  00000010000001098600001298632Y6    BSYBL-S 005400370024
BI00A32Y8    TAIM21114      202205267289-3342-30             HOUSING FEMALE ASS'Y     CCN000004800000004800FN00000000020220401000004800NNED0420211129134205Y8  1N0N  00000240000000686400000901432Y8    CLYCL   005500360039
