BI00B32B6    W72006         202201071801W003930              IVSSH 0.5F B             CCN000025200000025200FN00000000020220401000025200NNE   20211129153256B6  1W    00000180000000625000000000032B6    AXARNE-M000000000000AR31C002
BI00B32B6    W72006         202201071801W003940              IVSSH 0.5F W             CCN000025200000025200FN00000000020220401000025200NNE   20211129153256B6  1W    00000180000000625000000000032B6    AXARNE-M000000000000AR31C008
BI00B32B6    W72006         202201071801W003941              IVSSH 0.5F GY            CCN000012600000012600FN00000000020220401000012600NNE   20211129153256B6  1W    00000180000000625000000000032B6    AXARNE-M000000000000AR31C004
BI00B32B6    W72006         202201071801W003950              IVSSH 0.5F R             CCN000012600000012600FN00000000020220401000012600NNE   20211129153256B6  1W    00000180000000625000000000032B6    AXARNE-M000000000000AR31C006
BI00B32B6    W72006         202201071801W003952              IVSSH 0.5F P             CCN000025200000025200FN00000000020220401000025200NNE   20211129153256B6  1W    00000180000000625000000000032B6    AXARNE-M000000000000AR31C005
BI00B32B6    W72006         202201071801W003970              IVSSH 0.5F Y             CCN000012600000012600FN00000000020220401000012600NNE   20211129153256B6  1W    00000180000000625000000000032B6    AXARNE-M000000000000AR31C009
BI00B32B6    W72006         202201071801W003980              IVSSH 0.5F BR            CCN000025200000025200FN00000000020220401000025200NNE   20211129153256B6  1W    00000180000000625000000000032B6    AXARNE-M000000000000AR31C003
BI00B32B6    W72006         202201071801W003992              IVSSH 0.5F V             CCN000012600000012600FN00000000020220401000012600NNE   20211129153256B6  1W    00000180000000625000000000032B6    AXARNE-M000000000000AR31C007
BI00B32B6    W72006         202201071801W004040              IVSSH 0.75F W            CCN000002600000002600FN00000000020220401000002600NNE   20211129153256B6  1W    00000130000000882000000000032B6    AXARNE-M000000000000AR31C012
BI00B32B6    W72006         202201071801W004052              IVSSH 0.75F P            CCN000002600000002600FN00000000020220401000002600NNE   20211129153256B6  1W    00000130000000882000000000032B6    AXARNE-M000000000000AR31C011
BI00B32B6    W72006         202201071801W004060              IVSSH 0.75F G            CCN000002600000002600FN00000000020220401000002600NNE   20211129153256B6  1W    00000130000000882000000000032B6    AXARNE-M000000000000AR31C010
BI00B32CH    SJ21124DMW     202112021801W003930              IVSSH 0.5F B             CCN000028800000007200FN00000000020211201000007200NNM20 20211129131021    1W    00000180000000625000000000032CH    SJSAMIJF000000000000QR31B003
BI00A32CH    SJ21124DMW     202112011801W003980              IVSSH 0.5F BR            CCN000009000000009000FN00000000020211201000009000NNM22 20211129130746    1W    00000180000000625000000000032CH    SJSAMIJF000000000000QR31B004
BI00B32CH    SJ21124DMW     202112021801W003950              IVSSH 0.5F R             CCN000021600000007200FN00000000020211201000007200NNM20 20211129130947    1W    00000180000000625000000000032CH    SJSAMIJF000000000000QR31B006
BI00B32CH    SJ21124DMW     202112021801W003992              IVSSH 0.5F V             CCN000012600000003600FN00000000020211201000003600NNM20 20211129131057    1W    00000180000000625000000000032CH    SJSAMIJF000000000000QR31B007
BI00A32CH    SJ21124DMW     202112011801W003970              IVSSH 0.5F Y             CCN000014400000010800FN00000000020211201000010800NNM22 20211129130824    1W    00000180000000625000000000032CH    SJSAMIJF000000000000QR31B009
BI00A32CH    SJ21124DMW     202112011801W004030              IVSSH 0.75F B            CCN000011700000011700FN00000000020211201000011700NNM22 20211129130738    1W    00000130000000882000000000032CH    SJSAMIJF000000000000QR31B010
BI00B32CH    SJ21124DMW     202112021801W004060              IVSSH 0.75F G            CCN000005200000001300FN00000000020211201000001300NNM20 20211129131149    1W    00000130000000882000000000032CH    SJSAMIJF000000000000QR31B011
BI00B32CH    SJ21124DMW     202112021801W004050              IVSSH 0.75F R            CCN000009100000002600FN00000000020211201000002600NNM20 20211129130902    1W    00000130000000882000000000032CH    SJSAMIJF000000000000QR31B013
BI00B32CH    SJ21124DMW     202112021801W004070              IVSSH 0.75F Y            CCN000006500000002600FN00000000020211201000002600NNM20 20211129131119    1W    00000130000000882000000000032CH    SJSAMIJF000000000000QR31B014
BI00A32CH    SJ21124DMW     202112011801W004050              IVSSH 0.75F R            CCN000006500000006500FN00000000020211201000006500NNM22 20211129130902    1W    00000130000000882000000000032CH    SJSAMIJF000000000000QR31B013
BI00A32CH    SJ21124DMW     202112011801W003950              IVSSH 0.5F R             CCN000014400000014400FN00000000020211201000014400NNM22 20211129130947    1W    00000180000000625000000000032CH    SJSAMIJF000000000000QR31B006
BI00A32CH    SJ21124DMW     202112011801W003930              IVSSH 0.5F B             CCN000021600000021600FN00000000020211201000021600NNM22 20211129131021    1W    00000180000000625000000000032CH    SJSAMIJF000000000000QR31B003
BI00A32CH    SJ21124DMW     202112011801W003992              IVSSH 0.5F V             CCN000009000000009000FN00000000020211201000009000NNM22 20211129131057    1W    00000180000000625000000000032CH    SJSAMIJF000000000000QR31B007
BI00A32CH    SJ21124DMW     202112011801W004070              IVSSH 0.75F Y            CCN000002600000002600FN00000000020211201000002600NNM22 20211129131119    1W    00000130000000882000000000032CH    SJSAMIJF000000000000QR31B014
BI00A32CH    SJ21124DMW     202112011801W004060              IVSSH 0.75F G            CCN000003900000003900FN00000000020211201000003900NNM22 20211129131149    1W    00000130000000882000000000032CH    SJSAMIJF000000000000QR31B011
BI00B32G2    @SA2201AHMW    20211222181B32116Z5              AVSSCS 0.3FX2 DGY/L      CCN000000350000000350FN00000000020220101000000350NNE   20211129172731    1W    00000035000002241000000000032G2    AISUAI  000000000000IP11C001
BI00B32G2    SA2201BJMW     202112221801W003991              IVSSH 0.5F SB            CCN000001800000001800FN00000000020220101000001800NNE   20211129172731    1W    00000180000000625000000000032G2    AISUAI  000000000000IQ11C001
BI00B32G7    JW2201C MW     2022012718007703990              AVSS 0.5F L              CCN000001500000001500FN00000000020220101000001500NNE   20211129142849    1W    00000150000000674000000000032G7    JIJAI   000000000000JD41C005
BI00B32G7    @JW2201C MW    20211223181E48022ZZ              CAVSAS-S 0.5X2 GY        CCN000001800000001800FN00000000020220101000001800NNE   20211129142848    1W    00000030000002493000000000032G7    JIJAI   000000000000JE11C001
BI00B32G7    @JW2201C MW    20211223181E48024ZZ              CAVSAS-S 0.5X2 GY/R      CCN000000900000000900FN00000000020220101000000900NNE   20211129142848    1W    00000030000002493000000000032G7    JIJAI   000000000000JE11C002
BI00B32G7    @JW2201C MW    20211223181E48032ZZ              CAVSAS-S 0.3X2 GY/P      CCN000001050000001050FN00000000020220101000001050NNE   20211129142848    1W    00000035000001998600000000032G7    JIJAI   000000000000JE11C003
BI00B32G7    JW2201CMMW     202201201801W003930              IVSSH 0.5F B             CCN000001800000001800FN00000000020220101000001800NNE   20211129142849    1W    00000180000000625000000000032G7    JIJAI   000000000000JC41C003
BI00B32G7    JW2201CMMW     202201201801W003943              IVSSH 0.5F W/B           CCN000001800000001800FN00000000020220101000001800NNE   20211129142849    1W    00000180000000625000000000032G7    JIJAI   000000000000JC41C004
BI00B32H8    2201A MW       2021122418007703930              AVSS 0.5F B              CCN000006000000006000FN00000000020220101000006000NNE   20211129175302    1W    00000150000000674000000000032H8    TYTYC   000000000000LA11C001
BI00B32H8    2201A MW       2021122418007703935              AVSS 0.5F B/R            CCN000003000000003000FN00000000020220101000003000NNE   20211129175302    1W    00000150000000674000000000032H8    TYTYC   000000000000LA11C002
BI00B32H8    2201A MW       2021122418007703937              AVSS 0.5F B/Y            CCN000006000000006000FN00000000020220101000006000NNE   20211129175302    1W    00000150000000674000000000032H8    TYTYC   000000000000LA11C003
BI00B32H8    2201A MW       2021122418007703941              AVSS 0.5F GY             CCN000001500000001500FN00000000020220101000001500NNE   20211129175302    1W    00000150000000674000000000032H8    TYTYC   000000000000LA11C004
BI00B32H8    2201A MW       2021122418007703943              AVSS 0.5F W/B            CCN000003000000003000FN00000000020220101000003000NNE   20211129175302    1W    00000150000000674000000000032H8    TYTYC   000000000000LA11C007
BI00B32H8    2201A MW       2021122418007703946              AVSS 0.5F W/G            CCN000001500000001500FN00000000020220101000001500NNE   20211129175302    1W    00000150000000674000000000032H8    TYTYC   000000000000LA11C008
BI00B32H8    2201A MW       2021122418007703954              AVSS 0.5F R/W            CCN000004500000004500FN00000000020220101000004500NNE   20211129175302    1W    00000150000000674000000000032H8    TYTYC   000000000000LA11C006
BI00B32H8    2201A MW       2021122418007703956              AVSS 0.5F R/G            CCN000001500000001500FN00000000020220101000001500NNE   20211129175302    1W    00000150000000674000000000032H8    TYTYC   000000000000LA11C005
BI00B32H8    2201A MW       2021122418007703970              AVSS 0.5F Y              CCN000004500000004500FN00000000020220101000004500NNE   20211129175302    1W    00000150000000674000000000032H8    TYTYC   000000000000LA11C009
BI00B32H8    2201A MW       2021122418007703973              AVSS 0.5F Y/B            CCN000004500000004500FN00000000020220101000004500NNE   20211129175302    1W    00000150000000674000000000032H8    TYTYC   000000000000LA11C010
BI00B32H8    2201A MW       2021122418007703975              AVSS 0.5F Y/R            CCN000007500000007500FN00000000020220101000007500NNE   20211129175302    1W    00000150000000674000000000032H8    TYTYC   000000000000LA11C012
BI00B32H8    2201A MW       2021122418007703976              AVSS 0.5F Y/G            CCN000003000000003000FN00000000020220101000003000NNE   20211129175302    1W    00000150000000674000000000032H8    TYTYC   000000000000LA11C011
BI00B32H8    @2201AIMW      20211224181B32039Y6              AVSSCS 0.5FX1 DGY/G      CCN000000400000000400FN00000000020220101000000400NNE   20211129175301    1W    00000040000002262000000000032H8    TYTYC   000000000000LB11C001
BI00B32M3    SM2201AHMW     2021121618007704030              AVSS 0.75F B             CCN000005000000005000FN00000000020220101000005000NNE   20211129175844    1W    00000100000000943000000000032M3    SASAMI  000000000000QC51B001
BI00B32M8    @PM22012 MW    20211215181D6910239              AVSSHCS 0.5FX2 B/L       CCN000001500000000900FN00000000020220101000000900NNM00 20211129145105    1W    00000030000002792600000000032M8    PMPEMI  000000000000IM51B009
BI00B32M8    @PM2112AJMW    20211222181B32102Y5              AVSSCS 0.5FX2 DGY/W      CCN000001200000001200FN00000000020211201000001200NNE   20211129143214    1W    00000030000002779000000000032M8    PMPEMI  000000000000IA51B001
BI00B32M8    @PM2112B MW    20211222181B32037Z5              AVSSCS 0.3FX1 DGY/L      CCN000005000000005000FN00000000020211201000005000NNE   20211129143214    1W    00000050000001780000000000032M8    PMPEMI  000000000000IB51B001
BI00B32M8    @PM2112B MW    20211222181F21009ZZ              AVSSHCS-S 0.5FX2 B       CCN000006000000006000FN00000000020211201000006000NNE   20211129143214    1W    00000030000002505800000000032M8    PMPEMI  000000000000IB51B002
BI00B32M8    PM2112BTMW     202112221801W003952              IVSSH 0.5F P             CCN000007200000007200FN00000000020211201000007200NNE   20211129143217    1W    00000180000000625000000000032M8    PMPEMI  000000000000IC51B003
BI00B32M8    PM2112BTMW     202112221801W003980              IVSSH 0.5F BR            CCN000034200000034200FN00000000020211201000034200NNE   20211129143217    1W    00000180000000625000000000032M8    PMPEMI  000000000000IC51B002
BI00B32M8    PM2112BTMW     202112221801W004040              IVSSH 0.75F W            CCN000003900000003900FN00000000020211201000003900NNE   20211129143217    1W    00000130000000882000000000032M8    PMPEMI  000000000000IC51B004
BI00B32M8    PM2112BTMW     202112221801W00695U              IVSSH 0.35F BE           CCN000005000000005000FN00000000020211201000005000NNE   20211129143217    1W    00000250000000452000000000032M8    PMPEMI  000000000000IC51B005
BI00B32M8    PM2112BTMW     202112221801W006961              IVSSH 0.35F LG           CCN000015000000015000FN00000000020211201000015000NNE   20211129143217    1W    00000250000000452000000000032M8    PMPEMI  000000000000IC51B006
BI00B32M8    PM2112BTMW     202112221801W006991              IVSSH 0.35F SB           CCN000005000000005000FN00000000020211201000005000NNE   20211129143217    1W    00000250000000452000000000032M8    PMPEMI  000000000000IC51B007
BI00B32M8    @PM2112BTMW    20211222181F21014ZZ              AVSSHCS-S 0.5FX2 B/L     CCN000000600000000600FN00000000020211201000000600NNE   20211129143215    1W    00000030000002505800000000032M8    PMPEMI  000000000000IC51B001
BI00B32M8    @PM2112C MW    20211222181B09102K3              CAVSAS 0.5X2 GY/P        CCN000000900000000900FN00000000020211201000000900NNE   20211129143216    1W    00000030000002743000000000032M8    PMPEMI  000000000000ID51B001
BI00B32M8    @PM2112C MW    20211222181B32039S1              AVSSCS 0.5FX1 DGY        CCN000000400000000400FN00000000020211201000000400NNE   20211129143216    1W    00000040000002262000000000032M8    PMPEMI  000000000000ID51B002
BI00B32M8    @PM2112C MW    20211222181D6910230              AVSSHCS 0.5FX2 B         CCN000020100000020100FN00000000020211201000020100NNE   20211129143216    1W    00000030000002792600000000032M8    PMPEMI  000000000000ID51B003
BI00B32M8    PM2112CTMW     202112221801W003930              IVSSH 0.5F B             CCN000046800000046800FN00000000020211201000046800NNE   20211129143218    1W    00000180000000625000000000032M8    PMPEMI  000000000000IE51B001
BI00B32M8    PM2112CTMW     202112221801W003940              IVSSH 0.5F W             CCN000018000000018000FN00000000020211201000018000NNE   20211129143218    1W    00000180000000625000000000032M8    PMPEMI  000000000000IE51B009
BI00B32M8    PM2112CTMW     202112221801W003941              IVSSH 0.5F GY            CCN000021600000021600FN00000000020211201000021600NNE   20211129143218    1W    00000180000000625000000000032M8    PMPEMI  000000000000IE51B005
BI00B32M8    PM2112CTMW     202112221801W003943              IVSSH 0.5F W/B           CCN000010800000010800FN00000000020211201000010800NNE   20211129143218    1W    00000180000000625000000000032M8    PMPEMI  000000000000IE51B010
BI00B32M8    PM2112CTMW     202112221801W00395U              IVSSH 0.5F BE            CCN000005400000005400FN00000000020211201000005400NNE   20211129143218    1W    00000180000000625000000000032M8    PMPEMI  000000000000IE51B002
BI00B32M8    PM2112CTMW     202112221801W003950              IVSSH 0.5F R             CCN000039600000039600FN00000000020211201000039600NNE   20211129143218    1W    00000180000000625000000000032M8    PMPEMI  000000000000IE51B006
BI00B32M8    PM2112CTMW     202112221801W003960              IVSSH 0.5F G             CCN000009000000009000FN00000000020211201000009000NNE   20211129143218    1W    00000180000000625000000000032M8    PMPEMI  000000000000IE51B004
BI00B32M8    PM2112CTMW     202112221801W003970              IVSSH 0.5F Y             CCN000073800000073800FN00000000020211201000073800NNE   20211129143218    1W    00000180000000625000000000032M8    PMPEMI  000000000000IE51B011
BI00B32M8    PM2112CTMW     202112221801W003980              IVSSH 0.5F BR            CCN000016200000016200FN00000000020211201000016200NNE   20211129143218    1W    00000180000000625000000000032M8    PMPEMI  000000000000IE51B003
BI00B32M8    PM2112CTMW     202112221801W003991              IVSSH 0.5F SB            CCN000007200000007200FN00000000020211201000007200NNE   20211129143218    1W    00000180000000625000000000032M8    PMPEMI  000000000000IE51B007
BI00B32M8    PM2112CTMW     202112221801W003992              IVSSH 0.5F V             CCN000025200000025200FN00000000020211201000025200NNE   20211129143218    1W    00000180000000625000000000032M8    PMPEMI  000000000000IE51B008
BI00B32M8    PM2112CTMW     202112221801W004030              IVSSH 0.75F B            CCN000005200000005200FN00000000020211201000005200NNE   20211129143218    1W    00000130000000882000000000032M8    PMPEMI  000000000000IE51B012
BI00B32M8    PM2112CTMW     202112221801W004040              IVSSH 0.75F W            CCN000003900000003900FN00000000020211201000003900NNE   20211129143218    1W    00000130000000882000000000032M8    PMPEMI  000000000000IE51B016
BI00B32M8    PM2112CTMW     202112221801W004041              IVSSH 0.75F GY           CCN000002600000002600FN00000000020211201000002600NNE   20211129143218    1W    00000130000000882000000000032M8    PMPEMI  000000000000IE51B013
BI00B32M8    PM2112CTMW     202112221801W004090              IVSSH 0.75F L            CCN000002600000002600FN00000000020211201000002600NNE   20211129143218    1W    00000130000000882000000000032M8    PMPEMI  000000000000IE51B014
BI00B32M8    PM2112CTMW     202112221801W004092              IVSSH 0.75F V            CCN000003900000003900FN00000000020211201000003900NNE   20211129143218    1W    00000130000000882000000000032M8    PMPEMI  000000000000IE51B015
BI00B32M8    PM2112CTMW     202112221801W006930              IVSSH 0.35F B            CCN000042500000042500FN00000000020211201000042500NNE   20211129143218    1W    00000250000000452000000000032M8    PMPEMI  000000000000IE51B017
BI00B32M8    PM2112CTMW     202112221801W006940              IVSSH 0.35F W            CCN000015000000015000FN00000000020211201000015000NNE   20211129143218    1W    00000250000000452000000000032M8    PMPEMI  000000000000IE51B025
BI00B32M8    PM2112CTMW     202112221801W006941              IVSSH 0.35F GY           CCN000087500000087500FN00000000020211201000087500NNE   20211129143218    1W    00000250000000452000000000032M8    PMPEMI  000000000000IE51B021
BI00B32M8    PM2112CTMW     202112221801W00695U              IVSSH 0.35F BE           CCN000012500000012500FN00000000020211201000012500NNE   20211129143218    1W    00000250000000452000000000032M8    PMPEMI  000000000000IE51B018
BI00B32M8    PM2112CTMW     202112221801W006950              IVSSH 0.35F R            CCN000035000000035000FN00000000020211201000035000NNE   20211129143218    1W    00000250000000452000000000032M8    PMPEMI  000000000000IE51B023
BI00B32M8    PM2112CTMW     202112221801W006960              IVSSH 0.35F G            CCN000060000000060000FN00000000020211201000060000NNE   20211129143218    1W    00000250000000452000000000032M8    PMPEMI  000000000000IE51B020
BI00B32M8    PM2112CTMW     202112221801W006970              IVSSH 0.35F Y            CCN000080000000080000FN00000000020211201000080000NNE   20211129143218    1W    00000250000000452000000000032M8    PMPEMI  000000000000IE51B026
BI00B32M8    PM2112CTMW     202112221801W006980              IVSSH 0.35F BR           CCN000022500000022500FN00000000020211201000022500NNE   20211129143218    1W    00000250000000452000000000032M8    PMPEMI  000000000000IE51B019
BI00B32M8    PM2112CTMW     202112221801W006990              IVSSH 0.35F L            CCN000020000000020000FN00000000020211201000020000NNE   20211129143218    1W    00000250000000452000000000032M8    PMPEMI  000000000000IE51B022
BI00B32M8    PM2112CTMW     202112221801W006991              IVSSH 0.35F SB           CCN000005000000005000FN00000000020211201000005000NNE   20211129143218    1W    00000250000000452000000000032M8    PMPEMI  000000000000IE51B024
BI00B32M8    PM2112DTMW     202112221801W006943              IVSSH 0.35F W/B          CCN000012500000012500FN00000000020211201000012500NNE   20211129143219    1W    00000250000000452000000000032M8    PMPEMI  000000000000IF51B003
BI00B32M8    PM2112DTMW     202112221801W006991              IVSSH 0.35F SB           CCN000027500000027500FN00000000020211201000027500NNE   20211129143219    1W    00000250000000452000000000032M8    PMPEMI  000000000000IF51B002
BI00B32M8    @PM2112DTMW    20211222181D69001ZZ              AVSSHCS 0.5FX2 B/BR      CCN000000300000000300FN00000000020211201000000300NNE   20211129143216    1W    00000030000002792600000000032M8    PMPEMI  000000000000IF51B001
BI00A32M8    @PM22012 MW    20211130181D6910239              AVSSHCS 0.5FX2 B/L       CCN000000600000000600FN00000000020220101000000600NNM20 20211129160153    1W    00000030000002792600000000032M8    PMPEMI  000000000000IM51B009
BI00B32N2    2152103693     2021122218007703929              AVSS 0.5F LG/W           CCN000001500000001500FN00000000020211201000001500NNE   20211129141134    1W    00000150000000674000000000032N2    YWYIPLTC000000000000KU11C005
BI00B32N2    2152103693     2021122218007703930              AVSS 0.5F B              CCN000003000000003000FN00000000020211201000003000NNE   20211129141134    1W    00000150000000674000000000032N2    YWYIPLTC000000000000KU11C001
BI00B32N2    2152103693     2021122218007703941              AVSS 0.5F GY             CCN000001500000001500FN00000000020211201000001500NNE   20211129141134    1W    00000150000000674000000000032N2    YWYIPLTC000000000000KU11C004
BI00B32N2    2152103693     2021122218007703945              AVSS 0.5F W/R            CCN000001500000001500FN00000000020211201000001500NNE   20211129141134    1W    00000150000000674000000000032N2    YWYIPLTC000000000000KU11C006
BI00B32N2    2152103693     2021122218007703960              AVSS 0.5F G              CCN000003000000003000FN00000000020211201000003000NNE   20211129141134    1W    00000150000000674000000000032N2    YWYIPLTC000000000000KU11C002
BI00B32N2    2152103693     2021122218007703963              AVSS 0.5F G/B            CCN000001500000001500FN00000000020211201000001500NNE   20211129141134    1W    00000150000000674000000000032N2    YWYIPLTC000000000000KU11C003
BI00B32N2    2152103693     2021122218007703973              AVSS 0.5F Y/B            CCN000001500000001500FN00000000020211201000001500NNE   20211129141134    1W    00000150000000674000000000032N2    YWYIPLTC000000000000KU11C007
BI00B32N2    2152103693     2021122218007703975              AVSS 0.5F Y/R            CCN000001500000001500FN00000000020211201000001500NNE   20211129141134    1W    00000150000000674000000000032N2    YWYIPLTC000000000000KU11C008
BI00B32N2    2152103693     2021122218007704184              AVSS 1.25F BR/W          CCN000000800000000800FN00000000020211201000000800NNE   20211129141134    1W    00000080000001389000000000032N2    YWYIPLTC000000000000KU11C010
BI00B32N2    2152103693     2021122218007704185              AVSS 1.25F BR/R          CCN000000800000000800FN00000000020211201000000800NNE   20211129141134    1W    00000080000001389000000000032N2    YWYIPLTC000000000000KU11C009
BI00B32N2    2152103693     2021122218007704190              AVSS 1.25F L             CCN000001600000001600FN00000000020211201000001600NNE   20211129141134    1W    00000080000001389000000000032N2    YWYIPLTC000000000000KU11C011
BI00B32N2    2152103693     2021122218007704194              AVSS 1.25F L/W           CCN000001600000001600FN00000000020211201000001600NNE   20211129141134    1W    00000080000001389000000000032N2    YWYIPLTC000000000000KU11C013
BI00B32N2    2152103693     2021122218007704195              AVSS 1.25F L/R           CCN000003200000003200FN00000000020211201000003200NNE   20211129141134    1W    00000080000001389000000000032N2    YWYIPLTC000000000000KU11C012
BI00B32Q8    EW22012 MW     2021120818007704140              AVSS 1.25F W             CCN000176800000176800FN00000000020220101000176800NNM20 20211129120443    1W    00000080000001389000000000032Q8    EMEMI   000000000000MV31B021
BI00B32Q8    EW22013 MW     20211208180D0203740              AVSSH 0.3F W             CCN000084000000040000FN00000000020220101000040000NNM00 20211129132351    1W    00000200000000515000000000032Q8    EMEMI   000000000000MV41B008
BI00B32Q8    EW22012 MW     20211208180D0204160              AVSSH 1.25F G            CCN000196000000196000FN00000000020220101000196000NNM20 20211129120443    1W    00000080000001458000000000032Q8    EMEMI   000000000000MV31B008
BI00B32Q8    EW22012 MW     20211208180D0204190              AVSSH 1.25F L            CCN000085600000085600FN00000000020220101000085600NNM20 20211129120443    1W    00000080000001458000000000032Q8    EMEMI   000000000000MV31B009
BI00B32Q8    EW22012 MW     20211208180D0204150              AVSSH 1.25F R            CCN000088800000088800FN00000000020220101000088800NNM20 20211129120443    1W    00000080000001458000000000032Q8    EMEMI   000000000000MV31B010
BI00A32Q8    EW21112 MW     20211201180D0204150              AVSSH 1.25F R            PCN000016000000016000FN00000000020211101000016000NNM29 20211129142438    1W    00000080000001458000000000032Q8    EMEMI   000000000000MI21B015
BI00A32Q8    EW22013 MW     20211129180D0203740              AVSSH 0.3F W             PCN000020000000020000FN00000000020220101000020000NNM21 20211129120443    1W    00000200000000515000000000032Q8    EMEMI   000000000000MV41B008
BI00A32Q8    EW22013 MW     20211201180D0203740              AVSSH 0.3F W             CCN000024000000024000FN00000000020220101000024000NNM22 20211129144001    1W    00000200000000515000000000032Q8    EMEMI   000000000000MV41B008
BI00B32U5    DW1051         202112101801W003930              IVSSH 0.5F B             CCN000081000000048600FN00000000020220201000048600NNM20 20211129194828U5  1W    00000180000000625000000000032U5    ASAMSD  000000000000AM11C016
BI00B32U5    DW1051         202112101801W003950              IVSSH 0.5F R             CCN000091800000086400FN00000000020220201000086400NNM20 20211129194713U5  1W    00000180000000625000000000032U5    ASAMSD  000000000000AM11C020
BI00A32U5    DW1051         202112031801W003960              IVSSH 0.5F G             PCN000023400000023400FN00000000020220201000023400NNM21 20211129194846U5  1W    00000180000000625000000000032U5    ASAMSD  000000000000AM11C017
BI00B32U5    DW1051         202112101801W003990              IVSSH 0.5F L             CCN000091800000081000FN00000000020220201000081000NNM20 20211129194643U5  1W    00000180000000625000000000032U5    ASAMSD  000000000000AM11C019
BI00B32U5    DW1051         202112101801W006990              IVSSH 0.35F L            CCN000102500000060000FN00000000020220201000060000NNM20 20211129194749U5  1W    00000250000000452000000000032U5    ASAMSD  000000000000AM11C036
BI00B32U5    DW2001         202112101801W004030              IVSSH 0.75F B            CCN000007800000006500FN00000000020220201000006500NNM20 20211129195118U5  1W    00000130000000882000000000032U5    ASAMSD  000000000000AM21C017
BI00B32U5    DW2001         202112101801W004043              IVSSH 0.75F W/B          CCN000015600000006500FN00000000020220201000006500NNM20 20211129195046U5  1W    00000130000000882000000000032U5    ASAMSD  000000000000AM21C022
BI00B32U5    DW2001         202112101801W006961              IVSSH 0.35F LG           CCN000027500000017500FN00000000020220201000017500NNM20 20211129195013U5  1W    00000250000000452000000000032U5    ASAMSD  000000000000AM21C029
BI00B32U5    DW2001         202112101801W006980              IVSSH 0.35F BR           CCN000032500000010000FN00000000020220201000010000NNM20 20211129194947U5  1W    00000250000000452000000000032U5    ASAMSD  000000000000AM21C025
BI00B32U5    DW2006         202201071801W003930              IVSSH 0.5F B             CCN000086400000086400FN00000000020220301000086400NNM   20211129145936U5  1W    00000180000000625000000000032U5    ASAMSD  000000000000AN31C013
BI00B32U5    DW2006         202201071801W003940              IVSSH 0.5F W             CCN000046800000046800FN00000000020220301000046800NNM   20211129145936U5  1W    00000180000000625000000000032U5    ASAMSD  000000000000AN31C022
BI00B32U5    DW2006         202201071801W003941              IVSSH 0.5F GY            CCN000010800000010800FN00000000020220301000010800NNM   20211129145936U5  1W    00000180000000625000000000032U5    ASAMSD  000000000000AN31C017
BI00B32U5    DW2006         202201071801W003950              IVSSH 0.5F R             CCN000100800000100800FN00000000020220301000100800NNM   20211129145936U5  1W    00000180000000625000000000032U5    ASAMSD  000000000000AN31C020
BI00B32U5    DW2006         202201071801W003952              IVSSH 0.5F P             CCN000025200000025200FN00000000020220301000025200NNM   20211129145936U5  1W    00000180000000625000000000032U5    ASAMSD  000000000000AN31C019
BI00B32U5    DW2006         202201071801W00395U              IVSSH 0.5F BE            CCN000003600000003600FN00000000020220301000003600NNM   20211129145936U5  1W    00000180000000625000000000032U5    ASAMSD  000000000000AN31C014
BI00B32U5    DW2006         202201071801W003960              IVSSH 0.5F G             CCN000072000000072000FN00000000020220301000072000NNM   20211129145936U5  1W    00000180000000625000000000032U5    ASAMSD  000000000000AN31C016
BI00B32U5    DW2006         202201071801W003970              IVSSH 0.5F Y             CCN000014400000014400FN00000000020220301000014400NNM   20211129145936U5  1W    00000180000000625000000000032U5    ASAMSD  000000000000AN31C023
BI00B32U5    DW2006         202201071801W003980              IVSSH 0.5F BR            CCN000005400000005400FN00000000020220301000005400NNM   20211129145936U5  1W    00000180000000625000000000032U5    ASAMSD  000000000000AN31C015
BI00B32U5    DW2006         202201071801W003990              IVSSH 0.5F L             CCN000095400000095400FN00000000020220301000095400NNM   20211129145936U5  1W    00000180000000625000000000032U5    ASAMSD  000000000000AN31C018
BI00B32U5    DW2006         202201071801W003992              IVSSH 0.5F V             CCN000025200000025200FN00000000020220301000025200NNM   20211129145936U5  1W    00000180000000625000000000032U5    ASAMSD  000000000000AN31C021
BI00B32U5    DW2006         202201071801W004030              IVSSH 0.75F B            CCN000014300000014300FN00000000020220301000014300NNM   20211129145936U5  1W    00000130000000882000000000032U5    ASAMSD  000000000000AN31C024
BI00B32U5    DW2006         202201071801W004040              IVSSH 0.75F W            CCN000003900000003900FN00000000020220301000003900NNM   20211129145936U5  1W    00000130000000882000000000032U5    ASAMSD  000000000000AN31C028
BI00B32U5    DW2006         202201071801W004043              IVSSH 0.75F W/B          CCN000016900000016900FN00000000020220301000016900NNM   20211129145936U5  1W    00000130000000882000000000032U5    ASAMSD  000000000000AN31C029
BI00B32U5    DW2006         202201071801W004052              IVSSH 0.75F P            CCN000005200000005200FN00000000020220301000005200NNM   20211129145936U5  1W    00000130000000882000000000032U5    ASAMSD  000000000000AN31C027
BI00B32U5    DW2006         202201071801W004060              IVSSH 0.75F G            CCN000003900000003900FN00000000020220301000003900NNM   20211129145936U5  1W    00000130000000882000000000032U5    ASAMSD  000000000000AN31C025
BI00B32U5    DW2006         202201071801W004090              IVSSH 0.75F L            CCN000006500000006500FN00000000020220301000006500NNM   20211129145936U5  1W    00000130000000882000000000032U5    ASAMSD  000000000000AN31C026
BI00B32U5    DW2006         202201071801W006930              IVSSH 0.35F B            CCN000117500000117500FN00000000020220301000117500NNM   20211129145936U5  1W    00000250000000452000000000032U5    ASAMSD  000000000000AN31C030
BI00B32U5    DW2006         202201071801W006940              IVSSH 0.35F W            CCN000065000000065000FN00000000020220301000065000NNM   20211129145936U5  1W    00000250000000452000000000032U5    ASAMSD  000000000000AN31C039
BI00B32U5    DW2006         202201071801W006941              IVSSH 0.35F GY           CCN000015000000015000FN00000000020220301000015000NNM   20211129145936U5  1W    00000250000000452000000000032U5    ASAMSD  000000000000AN31C034
BI00B32U5    DW2006         202201071801W006950              IVSSH 0.35F R            CCN000122500000122500FN00000000020220301000122500NNM   20211129145936U5  1W    00000250000000452000000000032U5    ASAMSD  000000000000AN31C037
BI00B32U5    DW2006         202201071801W006952              IVSSH 0.35F P            CCN000052500000052500FN00000000020220301000052500NNM   20211129145936U5  1W    00000250000000452000000000032U5    ASAMSD  000000000000AN31C036
BI00B32U5    DW2006         202201071801W00695U              IVSSH 0.35F BE           CCN000010000000010000FN00000000020220301000010000NNM   20211129145936U5  1W    00000250000000452000000000032U5    ASAMSD  000000000000AN31C031
BI00B32U5    DW2006         202201071801W006960              IVSSH 0.35F G            CCN000082500000082500FN00000000020220301000082500NNM   20211129145936U5  1W    00000250000000452000000000032U5    ASAMSD  000000000000AN31C033
BI00B32U5    DW2006         202201071801W006961              IVSSH 0.35F LG           CCN000032500000032500FN00000000020220301000032500NNM   20211129145936U5  1W    00000250000000452000000000032U5    ASAMSD  000000000000AN31C035
BI00B32U5    DW2006         202201071801W006980              IVSSH 0.35F BR           CCN000040000000040000FN00000000020220301000040000NNM   20211129145936U5  1W    00000250000000452000000000032U5    ASAMSD  000000000000AN31C032
BI00B32U5    DW2006         202201071801W006991              IVSSH 0.35F SB           CCN000027500000027500FN00000000020220301000027500NNM   20211129145936U5  1W    00000250000000452000000000032U5    ASAMSD  000000000000AN31C038
BI00B32U5    @DW2006        20220107181F21027ZZ              AVSSHCS-S 1.25FX2 B      CCN000007600000007600FN00000000020220301000007600NNM   20211129145935U5  1W    00000020000004262000000000032U5    ASAMSD  000000000000AN31C012
BI00A32U5    DW1051         202112031801W003990              IVSSH 0.5F L             PCN000010800000010800FN00000000020220201000010800NNM21 20211129194643U5  1W    00000180000000625000000000032U5    ASAMSD  000000000000AM11C019
BI00A32U5    DW1051         202112031801W003950              IVSSH 0.5F R             PCN000005400000005400FN00000000020220201000005400NNM21 20211129194713U5  1W    00000180000000625000000000032U5    ASAMSD  000000000000AM11C020
BI00A32U5    DW1051         202112031801W006990              IVSSH 0.35F L            PCN000042500000042500FN00000000020220201000042500NNM21 20211129194749U5  1W    00000250000000452000000000032U5    ASAMSD  000000000000AM11C036
BI00A32U5    DW1051         202112031801W003930              IVSSH 0.5F B             PCN000032400000032400FN00000000020220201000032400NNM21 20211129194828U5  1W    00000180000000625000000000032U5    ASAMSD  000000000000AM11C016
BI00A32U5    DW2001         202112031801W006980              IVSSH 0.35F BR           PCN000022500000022500FN00000000020220201000022500NNM21 20211129194947U5  1W    00000250000000452000000000032U5    ASAMSD  000000000000AM21C025
BI00A32U5    DW2001         202112031801W006961              IVSSH 0.35F LG           PCN000010000000010000FN00000000020220201000010000NNM21 20211129195013U5  1W    00000250000000452000000000032U5    ASAMSD  000000000000AM21C029
BI00A32U5    DW2001         202112031801W004043              IVSSH 0.75F W/B          PCN000009100000009100FN00000000020220201000009100NNM21 20211129195046U5  1W    00000130000000882000000000032U5    ASAMSD  000000000000AM21C022
BI00A32U5    DW2001         202112031801W004030              IVSSH 0.75F B            PCN000001300000001300FN00000000020220201000001300NNM21 20211129195118U5  1W    00000130000000882000000000032U5    ASAMSD  000000000000AM21C017
BI00B32W2    HN2201AWMW     2021121418000004560              AV 8 G                   CCN000000300000000300FN00000000020220101000000300NNE   20211129173635    1W    00000010000009148000000000032W2    HNHNY   000000000000HK51B001
BI00A32W4    @4500183851    20211229181D6910239              AVSSHCS 0.5FX2 B/L       CCN000033900000033900FN00000000020211201000033900NNE   20211129120443W4A21W    00000030000002792600000000032W4A2  HJYHK-J 000000000000OL21C001
BI00B32W4    4500183858     2021121418018403953              CAVS 0.5 R/B             CCN000001500000001500FN00000000020211201000001500NNE   20211129120443W41 1W    00000150000000677000000000032W41   HJYHK-J 000000000000OV21B001
BI00B32W4    4500184030     2021122818018404052              CAVS 0.85 P              CCN000005000000005000FN00000000020211201000005000NNE   20211129120443W41 1W    00000100000000965000000000032W41   HJYHK-J 000000000000OO21C001
BI00B32W4    4500184030     2021122818018404092              CAVS 0.85 V              CCN000007000000007000FN00000000020211201000007000NNE   20211129120443W41 1W    00000100000000965000000000032W41   HJYHK-J 000000000000OO21C002
BI00B32W4    @4500183942    20220125181B32037Y5              AVSSCS 0.3FX1 DGY/W      CCN000002000000002000FN00000000020220101000002000NNE   20211129120443W4171W    00000050000001780000000000032W417  HJYHK-J 000000000000OD41C001
BI00A32W4    @4500184057    20220120181D6910239              AVSSHCS 0.5FX2 B/L       CCN000001200000001200FN00000000020220101000001200NNE   20211129120443W4421W    00000030000002792600000000032W442  HJYHK-J 000000000000OB41C001
BI00B32W4    4500184286     2021121418018403970              CAVS 0.5 Y               CCN000004500000004500FN00000000020211201000004500NNE   20211129120443W41 1W    00000150000000677000000000032W41   HJYHK-J 000000000000OM51B002
BI00B32W4    4500184286     2021121418018403990              CAVS 0.5 L               CCN000006000000006000FN00000000020211201000006000NNE   20211129120443W41 1W    00000150000000677000000000032W41   HJYHK-J 000000000000OM51B001
BI00B32W4    4500184286     2021121418018404052              CAVS 0.85 P              CCN000005000000005000FN00000000020211201000005000NNE   20211129120443W41 1W    00000100000000965000000000032W41   HJYHK-J 000000000000OM51B004
BI00B32W4    4500184286     2021121418018404060              CAVS 0.85 G              CCN000004000000004000FN00000000020211201000004000NNE   20211129120443W41 1W    00000100000000965000000000032W41   HJYHK-J 000000000000OM51B003
BI00B32W4    4500184286     2021121418018404092              CAVS 0.85 V              CCN000004000000004000FN00000000020211201000004000NNE   20211129120443W41 1W    00000100000000965000000000032W41   HJYHK-J 000000000000OM51B005
BI00B32W4    4500184286     2021121418018404140              CAVS 1.25 W              CCN000003200000003200FN00000000020211201000003200NNE   20211129120443W41 1W    00000080000001378000000000032W41   HJYHK-J 000000000000OM51B008
BI00B32W4    4500184286     2021121418018404170              CAVS 1.25 Y              CCN000001600000001600FN00000000020211201000001600NNE   20211129120443W41 1W    00000080000001378000000000032W41   HJYHK-J 000000000000OM51B009
BI00B32W4    4500184286     2021121418018404160              CAVS 1.25 G              CCN000001600000001600FN00000000020211201000001600NNE   20211129120443W41 1W    00000080000001378000000000032W41   HJYHK-J 000000000000OM51B006
BI00B32W4    4500184286     2021121418018404192              CAVS 1.25 V              CCN000000800000000800FN00000000020211201000000800NNE   20211129120443W41 1W    00000080000001378000000000032W41   HJYHK-J 000000000000OM51B007
BI00B32W4    4500184310     2021121418018404140              CAVS 1.25 W              CCN000001600000001600FN00000000020211201000001600NNE   20211129120443W41 1W    00000080000001378000000000032W41   HJYHK-J 000000000000OK51B001
BI00B32W4    4500184310     2021121418018404170              CAVS 1.25 Y              CCN000001600000001600FN00000000020211201000001600NNE   20211129120443W41 1W    00000080000001378000000000032W41   HJYHK-J 000000000000OK51B002
BI00B32W4    4500184353     2021121418007703930              AVSS 0.5F B              CCN000001500000001500FN00000000020211201000001500NNE   20211129120443W42 1W    00000150000000674000000000032W42   HJYHK-J 000000000000OJ51B001
BI00B32W4    4500184353     2021121418007703941              AVSS 0.5F GY             CCN000001500000001500FN00000000020211201000001500NNE   20211129120443W42 1W    00000150000000674000000000032W42   HJYHK-J 000000000000OJ51B004
BI00B32W4    4500184353     2021121418007703960              AVSS 0.5F G              CCN000003000000003000FN00000000020211201000003000NNE   20211129120443W42 1W    00000150000000674000000000032W42   HJYHK-J 000000000000OJ51B002
BI00B32W4    4500184353     2021121418007703965              AVSS 0.5F G/R            CCN000003000000003000FN00000000020211201000003000NNE   20211129120443W42 1W    00000150000000674000000000032W42   HJYHK-J 000000000000OJ51B003
BI00B32W4    4500184353     2021121418007703970              AVSS 0.5F Y              CCN000006000000006000FN00000000020211201000006000NNE   20211129120443W42 1W    00000150000000674000000000032W42   HJYHK-J 000000000000OJ51B008
BI00B32W4    4500184353     2021121418007703990              AVSS 0.5F L              CCN000001500000001500FN00000000020211201000001500NNE   20211129120443W42 1W    00000150000000674000000000032W42   HJYHK-J 000000000000OJ51B005
BI00B32W4    4500184353     2021121418007703995              AVSS 0.5F L/R            CCN000001500000001500FN00000000020211201000001500NNE   20211129120443W42 1W    00000150000000674000000000032W42   HJYHK-J 000000000000OJ51B006
BI00B32W4    4500184353     2021121418007703997              AVSS 0.5F L/Y            CCN000001500000001500FN00000000020211201000001500NNE   20211129120443W42 1W    00000150000000674000000000032W42   HJYHK-J 000000000000OJ51B007
BI00B32W4    4500184353     2021121418007704130              AVSS 1.25F B             CCN000001600000001600FN00000000020211201000001600NNE   20211129120443W42 1W    00000080000001389000000000032W42   HJYHK-J 000000000000OJ51B009
BI00B32W4    4500184353     2021121418007704150              AVSS 1.25F R             CCN000000800000000800FN00000000020211201000000800NNE   20211129120443W42 1W    00000080000001389000000000032W42   HJYHK-J 000000000000OJ51B012
BI00B32W4    4500184353     2021121418007704151              AVSS 1.25F O             CCN000002400000002400FN00000000020211201000002400NNE   20211129120443W42 1W    00000080000001389000000000032W42   HJYHK-J 000000000000OJ51B011
BI00B32W4    4500184353     2021121418007704160              AVSS 1.25F G             CCN000001600000001600FN00000000020211201000001600NNE   20211129120443W42 1W    00000080000001389000000000032W42   HJYHK-J 000000000000OJ51B010
BI00B32W4    4500184353     2021121418007704230              AVSS 2F B                CCN000004500000004500FN00000000020211201000004500NNE   20211129120443W42 1W    00000050000002126400000000032W42   HJYHK-J 000000000000OJ51B013
BI00B32W4    4500184353     2021121418007704250              AVSS 2F R                CCN000002000000002000FN00000000020211201000002000NNE   20211129120443W42 1W    00000050000002126400000000032W42   HJYHK-J 000000000000OJ51B014
BI00B32W4    4500184353     2021121418009603930              AVS 0.5 B                CCN000003000000003000FN00000000020211201000003000NNE   20211129120443W42 1W    00000100000000850000000000032W42   HJYHK-J 000000000000OJ51B015
BI00B32W4    4500184353     2021121418009603950              AVS 0.5 R                CCN000002000000002000FN00000000020211201000002000NNE   20211129120443W42 1W    00000100000000850000000000032W42   HJYHK-J 000000000000OJ51B020
BI00B32W4    4500184353     2021121418009603960              AVS 0.5 G                CCN000002000000002000FN00000000020211201000002000NNE   20211129120443W42 1W    00000100000000850000000000032W42   HJYHK-J 000000000000OJ51B017
BI00B32W4    4500184353     2021121418009604030              AVS 0.85 B               CCN000007000000007000FN00000000020211201000007000NNE   20211129120443W42 1W    00000100000001148000000000032W42   HJYHK-J 000000000000OJ51B022
BI00B32W4    4500184353     2021121418009604060              AVS 0.85 G               CCN000005000000005000FN00000000020211201000005000NNE   20211129120443W42 1W    00000100000001148000000000032W42   HJYHK-J 000000000000OJ51B023
BI00B32W4    4500184353     2021121418009604130              AVS 1.25 B               CCN000002400000002400FN00000000020211201000002400NNE   20211129120443W42 1W    00000080000001620000000000032W42   HJYHK-J 000000000000OJ51B031
BI00B32W4    4500184353     2021121418009604150              AVS 1.25 R               CCN000001600000001600FN00000000020211201000001600NNE   20211129120443W42 1W    00000080000001620000000000032W42   HJYHK-J 000000000000OJ51B032
BI00B32W4    4500184353     2021121418009604330              AVS 3 B                  CCN000000400000000400FN00000000020211201000000400NNE   20211129120443W42 1W    00000040000003777500000000032W42   HJYHK-J 000000000000OJ51B035
BI00B32W4    4500184353     2021121418009604354              AVS 3 R/W                CCN000002000000002000FN00000000020211201000002000NNE   20211129120443W42 1W    00000040000003777500000000032W42   HJYHK-J 000000000000OJ51B036
BI00B32W4    4500184353     2021121418009604357              AVS 3 R/Y                CCN000001200000001200FN00000000020211201000001200NNE   20211129120443W42 1W    00000040000003777500000000032W42   HJYHK-J 000000000000OJ51B037
BI00B32W4    4500184353     2021121418018403730              CAVS 0.3 B               CCN000002000000002000FN00000000020211201000002000NNE   20211129120443W42 1W    00000200000000471000000000032W42   HJYHK-J 000000000000OJ51B038
BI00B32W4    4500184353     2021121418018403734              CAVS 0.3 B/W             CCN000004000000004000FN00000000020211201000004000NNE   20211129120443W42 1W    00000200000000471000000000032W42   HJYHK-J 000000000000OJ51B040
BI00B32W4    4500184353     2021121418018403739              CAVS 0.3 B/L             CCN000002000000002000FN00000000020211201000002000NNE   20211129120443W42 1W    00000200000000471000000000032W42   HJYHK-J 000000000000OJ51B039
BI00B32W4    4500184353     2021121418018403740              CAVS 0.3 W               CCN000002000000002000FN00000000020211201000002000NNE   20211129120443W42 1W    00000200000000471000000000032W42   HJYHK-J 000000000000OJ51B048
BI00B32W4    4500184353     2021121418018403751              CAVS 0.3 O               CCN000002000000002000FN00000000020211201000002000NNE   20211129120443W42 1W    00000200000000471000000000032W42   HJYHK-J 000000000000OJ51B044
BI00B32W4    4500184353     2021121418018403756              CAVS 0.3 R/G             CCN000002000000002000FN00000000020211201000002000NNE   20211129120443W42 1W    00000200000000471000000000032W42   HJYHK-J 000000000000OJ51B045
BI00B32W4    4500184353     2021121418018403757              CAVS 0.3 R/Y             CCN000004000000004000FN00000000020211201000004000NNE   20211129120443W42 1W    00000200000000471000000000032W42   HJYHK-J 000000000000OJ51B046
BI00B32W4    4500184353     2021121418018403760              CAVS 0.3 G               CCN000004000000004000FN00000000020211201000004000NNE   20211129120443W42 1W    00000200000000471000000000032W42   HJYHK-J 000000000000OJ51B041
BI00B32W4    4500184353     2021121418018403763              CAVS 0.3 G/B             CCN000002000000002000FN00000000020211201000002000NNE   20211129120443W42 1W    00000200000000471000000000032W42   HJYHK-J 000000000000OJ51B042
BI00B32W4    4500184353     2021121418018403790              CAVS 0.3 L               CCN000002000000002000FN00000000020211201000002000NNE   20211129120443W42 1W    00000200000000471000000000032W42   HJYHK-J 000000000000OJ51B043
BI00B32W4    4500184353     2021121418018403792              CAVS 0.3 V               CCN000002000000002000FN00000000020211201000002000NNE   20211129120443W42 1W    00000200000000471000000000032W42   HJYHK-J 000000000000OJ51B047
BI00B32W4    4500184353     2021121418018403930              CAVS 0.5 B               CCN000006000000006000FN00000000020211201000006000NNE   20211129120443W42 1W    00000150000000677000000000032W42   HJYHK-J 000000000000OJ51B049
BI00B32W4    4500184353     2021121418018403934              CAVS 0.5 B/W             CCN000004500000004500FN00000000020211201000004500NNE   20211129120443W42 1W    00000150000000677000000000032W42   HJYHK-J 000000000000OJ51B053
BI00B32W4    4500184353     2021121418018403935              CAVS 0.5 B/R             CCN000004500000004500FN00000000020211201000004500NNE   20211129120443W42 1W    00000150000000677000000000032W42   HJYHK-J 000000000000OJ51B052
BI00B32W4    4500184353     2021121418018403936              CAVS 0.5 B/G             CCN000001500000001500FN00000000020211201000001500NNE   20211129120443W42 1W    00000150000000677000000000032W42   HJYHK-J 000000000000OJ51B050
BI00B32W4    4500184353     2021121418018403939              CAVS 0.5 B/L             CCN000003000000003000FN00000000020211201000003000NNE   20211129120443W42 1W    00000150000000677000000000032W42   HJYHK-J 000000000000OJ51B051
BI00B32W4    4500184353     2021121418018403940              CAVS 0.5 W               CCN000003000000003000FN00000000020211201000003000NNE   20211129120443W42 1W    00000150000000677000000000032W42   HJYHK-J 000000000000OJ51B072
BI00B32W4    4500184353     2021121418018403943              CAVS 0.5 W/B             CCN000003000000003000FN00000000020211201000003000NNE   20211129120443W42 1W    00000150000000677000000000032W42   HJYHK-J 000000000000OJ51B073
BI00B32W4    4500184353     2021121418018403945              CAVS 0.5 W/R             CCN000003000000003000FN00000000020211201000003000NNE   20211129120443W42 1W    00000150000000677000000000032W42   HJYHK-J 000000000000OJ51B075
BI00B32W4    4500184353     2021121418018403949              CAVS 0.5 W/L             CCN000001500000001500FN00000000020211201000001500NNE   20211129120443W42 1W    00000150000000677000000000032W42   HJYHK-J 000000000000OJ51B074
BI00B32W4    4500184353     2021121418018403950              CAVS 0.5 R               CCN000003000000003000FN00000000020211201000003000NNE   20211129120443W42 1W    00000150000000677000000000032W42   HJYHK-J 000000000000OJ51B067
BI00B32W4    4500184353     2021121418018403951              CAVS 0.5 O               CCN000003000000003000FN00000000020211201000003000NNE   20211129120443W42 1W    00000150000000677000000000032W42   HJYHK-J 000000000000OJ51B065
BI00B32W4    4500184353     2021121418018403952              CAVS 0.5 P               CCN000001500000001500FN00000000020211201000001500NNE   20211129120443W42 1W    00000150000000677000000000032W42   HJYHK-J 000000000000OJ51B066
BI00B32W4    4500184353     2021121418018403954              CAVS 0.5 R/W             CCN000003000000003000FN00000000020211201000003000NNE   20211129120443W42 1W    00000150000000677000000000032W42   HJYHK-J 000000000000OJ51B069
BI00B32W4    4500184353     2021121418018403956              CAVS 0.5 R/G             CCN000004500000004500FN00000000020211201000004500NNE   20211129120443W42 1W    00000150000000677000000000032W42   HJYHK-J 000000000000OJ51B068
BI00B32W4    4500184353     2021121418018403957              CAVS 0.5 R/Y             CCN000003000000003000FN00000000020211201000003000NNE   20211129120443W42 1W    00000150000000677000000000032W42   HJYHK-J 000000000000OJ51B070
BI00B32W4    4500184353     2021121418018403960              CAVS 0.5 G               CCN000003000000003000FN00000000020211201000003000NNE   20211129120443W42 1W    00000150000000677000000000032W42   HJYHK-J 000000000000OJ51B057
BI00B32W4    4500184353     2021121418018403961              CAVS 0.5 LG              CCN000003000000003000FN00000000020211201000003000NNE   20211129120443W42 1W    00000150000000677000000000032W42   HJYHK-J 000000000000OJ51B064
BI00B32W4    4500184353     2021121418018403964              CAVS 0.5 G/W             CCN000001500000001500FN00000000020211201000001500NNE   20211129120443W42 1W    00000150000000677000000000032W42   HJYHK-J 000000000000OJ51B059
BI00B32W4    4500184353     2021121418018403965              CAVS 0.5 G/R             CCN000001500000001500FN00000000020211201000001500NNE   20211129120443W42 1W    00000150000000677000000000032W42   HJYHK-J 000000000000OJ51B058
BI00B32W4    4500184353     2021121418018403970              CAVS 0.5 Y               CCN000004500000004500FN00000000020211201000004500NNE   20211129120443W42 1W    00000150000000677000000000032W42   HJYHK-J 000000000000OJ51B076
BI00B32W4    4500184353     2021121418018403975              CAVS 0.5 Y/R             CCN000003000000003000FN00000000020211201000003000NNE   20211129120443W42 1W    00000150000000677000000000032W42   HJYHK-J 000000000000OJ51B077
BI00B32W4    4500184353     2021121418018403980              CAVS 0.5 BR              CCN000004500000004500FN00000000020211201000004500NNE   20211129120443W42 1W    00000150000000677000000000032W42   HJYHK-J 000000000000OJ51B054
BI00B32W4    4500184353     2021121418018403984              CAVS 0.5 BR/W            CCN000004500000004500FN00000000020211201000004500NNE   20211129120443W42 1W    00000150000000677000000000032W42   HJYHK-J 000000000000OJ51B055
BI00B32W4    4500184353     2021121418018403987              CAVS 0.5 BR/Y            CCN000001500000001500FN00000000020211201000001500NNE   20211129120443W42 1W    00000150000000677000000000032W42   HJYHK-J 000000000000OJ51B056
BI00B32W4    4500184353     2021121418018403990              CAVS 0.5 L               CCN000003000000003000FN00000000020211201000003000NNE   20211129120443W42 1W    00000150000000677000000000032W42   HJYHK-J 000000000000OJ51B060
BI00B32W4    4500184353     2021121418018403992              CAVS 0.5 V               CCN000003000000003000FN00000000020211201000003000NNE   20211129120443W42 1W    00000150000000677000000000032W42   HJYHK-J 000000000000OJ51B071
BI00B32W4    4500184353     2021121418018403994              CAVS 0.5 L/W             CCN000001500000001500FN00000000020211201000001500NNE   20211129120443W42 1W    00000150000000677000000000032W42   HJYHK-J 000000000000OJ51B062
BI00B32W4    4500184353     2021121418018403995              CAVS 0.5 L/R             CCN000003000000003000FN00000000020211201000003000NNE   20211129120443W42 1W    00000150000000677000000000032W42   HJYHK-J 000000000000OJ51B061
BI00B32W4    4500184353     2021121418018403997              CAVS 0.5 L/Y             CCN000001500000001500FN00000000020211201000001500NNE   20211129120443W42 1W    00000150000000677000000000032W42   HJYHK-J 000000000000OJ51B063
BI00B32W4    4500184353     2021121418018404030              CAVS 0.85 B              CCN000001000000001000FN00000000020211201000001000NNE   20211129120443W42 1W    00000100000000965000000000032W42   HJYHK-J 000000000000OJ51B078
BI00B32W4    4500184353     2021121418018404130              CAVS 1.25 B              CCN000004800000004800FN00000000020211201000004800NNE   20211129120443W42 1W    00000080000001378000000000032W42   HJYHK-J 000000000000OJ51B079
BI00B32W4    4500184353     2021121418018404140              CAVS 1.25 W              CCN000001600000001600FN00000000020211201000001600NNE   20211129120443W42 1W    00000080000001378000000000032W42   HJYHK-J 000000000000OJ51B082
BI00B32W4    4500184353     2021121418018404150              CAVS 1.25 R              CCN000001600000001600FN00000000020211201000001600NNE   20211129120443W42 1W    00000080000001378000000000032W42   HJYHK-J 000000000000OJ51B081
BI00B32W4    4500184353     2021121418018404190              CAVS 1.25 L              CCN000002400000002400FN00000000020211201000002400NNE   20211129120443W42 1W    00000080000001378000000000032W42   HJYHK-J 000000000000OJ51B080
BI00B32W4    4500184353     2021121418009603980              AVS 0.5 BR               CCN000001000000001000FN00000000020211201000001000NNE   20211129120443W42 1W    00000100000000850000000000032W42   HJYHK-J 000000000000OJ51B016
BI00B32W4    4500184353     2021121418009603964              AVS 0.5 G/W              CCN000001000000001000FN00000000020211201000001000NNE   20211129120443W42 1W    00000100000000850000000000032W42   HJYHK-J 000000000000OJ51B018
BI00B32W4    4500184353     2021121418009603990              AVS 0.5 L                CCN000001000000001000FN00000000020211201000001000NNE   20211129120443W42 1W    00000100000000850000000000032W42   HJYHK-J 000000000000OJ51B019
BI00B32W4    4500184353     2021121418009603940              AVS 0.5 W                CCN000001000000001000FN00000000020211201000001000NNE   20211129120443W42 1W    00000100000000850000000000032W42   HJYHK-J 000000000000OJ51B021
BI00B32W4    4500184353     2021121418009604041              AVS 0.85 GY              CCN000001000000001000FN00000000020211201000001000NNE   20211129120443W42 1W    00000100000001148000000000032W42   HJYHK-J 000000000000OJ51B024
BI00B32W4    4500184353     2021121418009604090              AVS 0.85 L               CCN000001000000001000FN00000000020211201000001000NNE   20211129120443W42 1W    00000100000001148000000000032W42   HJYHK-J 000000000000OJ51B025
BI00B32W4    4500184353     2021121418009604094              AVS 0.85 L/W             CCN000001000000001000FN00000000020211201000001000NNE   20211129120443W42 1W    00000100000001148000000000032W42   HJYHK-J 000000000000OJ51B026
BI00B32W4    4500184353     2021121418009604052              AVS 0.85 P               CCN000001000000001000FN00000000020211201000001000NNE   20211129120443W42 1W    00000100000001148000000000032W42   HJYHK-J 000000000000OJ51B027
BI00B32W4    4500184353     2021121418009604050              AVS 0.85 R               CCN000002000000002000FN00000000020211201000002000NNE   20211129120443W42 1W    00000100000001148000000000032W42   HJYHK-J 000000000000OJ51B028
BI00B32W4    4500184353     2021121418009604040              AVS 0.85 W               CCN000001000000001000FN00000000020211201000001000NNE   20211129120443W42 1W    00000100000001148000000000032W42   HJYHK-J 000000000000OJ51B029
BI00B32W4    4500184353     2021121418009604070              AVS 0.85 Y               CCN000001000000001000FN00000000020211201000001000NNE   20211129120443W42 1W    00000100000001148000000000032W42   HJYHK-J 000000000000OJ51B030
BI00B32W4    4500184353     2021121418009604230              AVS 2 B                  CCN000000500000000500FN00000000020211201000000500NNE   20211129120443W42 1W    00000050000002447000000000032W42   HJYHK-J 000000000000OJ51B033
BI00B32W4    4500184353     2021121418009604250              AVS 2 R                  CCN000000500000000500FN00000000020211201000000500NNE   20211129120443W42 1W    00000050000002447000000000032W42   HJYHK-J 000000000000OJ51B034
BI00B32W4    4500184725     2021122818018404041              CAVS 0.85 GY             CCN000005000000005000FN00000000020211201000005000NNE   20211129120443W41 1W    00000100000000965000000000032W41   HJYHK-J 000000000000OS21C001
BI00B32W4    4500184725     2021122818018404092              CAVS 0.85 V              CCN000002000000002000FN00000000020211201000002000NNE   20211129120443W41 1W    00000100000000965000000000032W41   HJYHK-J 000000000000OS21C002
BI00A32W4    @4500184232    20220106181D6910239              AVSSHCS 0.5FX2 B/L       CCN000001800000001800FN00000000020220101000001800NNE   20211129120443W4A21W    00000030000002792600000000032W4A2  HJYHK-J 000000000000OP31C001
BI00A32W4    @4500184244    20220120181D6910239              AVSSHCS 0.5FX2 B/L       CCN000001200000001200FN00000000020220101000001200NNE   20211129120443W4421W    00000030000002792600000000032W442  HJYHK-J 000000000000OC41C001
BI00B32W4    4500184282     2022011118018403730              CAVS 0.3 B               CCN000012000000012000FN00000000020220101000012000NNE   20211129120443W41 1W    00000200000000471000000000032W41   HJYHK-J 000000000000OU41C005
BI00B32W4    4500184282     2022011118018403750              CAVS 0.3 R               CCN000006000000006000FN00000000020220101000006000NNE   20211129120443W41 1W    00000200000000471000000000032W41   HJYHK-J 000000000000OU41C007
BI00B32W4    4500184282     2022011118018403753              CAVS 0.3 R/B             CCN000002000000002000FN00000000020220101000002000NNE   20211129120443W41 1W    00000200000000471000000000032W41   HJYHK-J 000000000000OU41C008
BI00B32W4    4500184282     2022011118018403784              CAVS 0.3 BR/W            CCN000010000000010000FN00000000020220101000010000NNE   20211129120443W41 1W    00000200000000471000000000032W41   HJYHK-J 000000000000OU41C006
BI00B32W4    4500184282     2022011118018403749              CAVS 0.3 W/L             CCN000002000000002000FN00000000020220101000002000NNE   20211129120443W41 1W    00000200000000471000000000032W41   HJYHK-J 000000000000OU41C009
BI00B32W4    4500184282     2022011118018403940              CAVS 0.5 W               CCN000006000000006000FN00000000020220101000006000NNE   20211129120443W41 1W    00000150000000677000000000032W41   HJYHK-J 000000000000OU41C012
BI00B32W4    4500184282     2022011118018403952              CAVS 0.5 P               CCN000003000000003000FN00000000020220101000003000NNE   20211129120443W41 1W    00000150000000677000000000032W41   HJYHK-J 000000000000OU41C011
BI00B32W4    4500184282     2022011118018403990              CAVS 0.5 L               CCN000001500000001500FN00000000020220101000001500NNE   20211129120443W41 1W    00000150000000677000000000032W41   HJYHK-J 000000000000OU41C010
BI00B32W4    4500184282     2022011118018404152              CAVS 1.25 P              CCN000000800000000800FN00000000020220101000000800NNE   20211129120443W41 1W    00000080000001378000000000032W41   HJYHK-J 000000000000OU41C013
BI00B32W4    4500184282     202201111801R706961              CIVUS 0.35 LG            CCN000003000000003000FN00000000020220101000003000NNE   20211129120443W41 1W    00000300000000386000000000032W41   HJYHK-J 000000000000OU41C004
BI00B32W4    @4500184282    20220111181AD2002ZZ              CIVUSAS-S 0.35X2 B       CCN000000450000000450FN00000000020220101000000450NNE   20211129120443W41 1W    00000045000001714000000000032W41   HJYHK-J 000000000000OU41C003
BI00B32W4    4500184290     2022011118007704260              AVSS 2F G                CCN000001500000001500FN00000000020220101000001500NNE   20211129120443W41 1W    00000050000002126400000000032W41   HJYHK-J 000000000000OV41C005
BI00B32W4    4500184290     2022011118007704270              AVSS 2F Y                CCN000001500000001500FN00000000020220101000001500NNE   20211129120443W41 1W    00000050000002126400000000032W41   HJYHK-J 000000000000OV41C007
BI00B32W4    4500184290     2022011118007704230              AVSS 2F B                CCN000004500000004500FN00000000020220101000004500NNE   20211129120443W41 1W    00000050000002126400000000032W41   HJYHK-J 000000000000OV41C004
BI00B32W4    4500184290     2022011118007704250              AVSS 2F R                CCN000003000000003000FN00000000020220101000003000NNE   20211129120443W41 1W    00000050000002126400000000032W41   HJYHK-J 000000000000OV41C006
BI00B32W4    4500184290     2022011118018403730              CAVS 0.3 B               CCN000014000000014000FN00000000020220101000014000NNE   20211129120443W41 1W    00000200000000471000000000032W41   HJYHK-J 000000000000OV41C008
BI00B32W4    4500184290     2022011118018403752              CAVS 0.3 P               CCN000002000000002000FN00000000020220101000002000NNE   20211129120443W41 1W    00000200000000471000000000032W41   HJYHK-J 000000000000OV41C011
BI00B32W4    4500184290     2022011118018403760              CAVS 0.3 G               CCN000008000000008000FN00000000020220101000008000NNE   20211129120443W41 1W    00000200000000471000000000032W41   HJYHK-J 000000000000OV41C010
BI00B32W4    4500184290     2022011118018403780              CAVS 0.3 BR              CCN000002000000002000FN00000000020220101000002000NNE   20211129120443W41 1W    00000200000000471000000000032W41   HJYHK-J 000000000000OV41C009
BI00B32W4    4500184290     2022011118018403792              CAVS 0.3 V               CCN000016000000016000FN00000000020220101000016000NNE   20211129120443W41 1W    00000200000000471000000000032W41   HJYHK-J 000000000000OV41C012
BI00B32W4    4500184290     2022011118018403749              CAVS 0.3 W/L             CCN000002000000002000FN00000000020220101000002000NNE   20211129120443W41 1W    00000200000000471000000000032W41   HJYHK-J 000000000000OV41C013
BI00B32W4    4500184290     2022011118018403940              CAVS 0.5 W               CCN000006000000006000FN00000000020220101000006000NNE   20211129120443W41 1W    00000150000000677000000000032W41   HJYHK-J 000000000000OV41C020
BI00B32W4    4500184290     2022011118018403941              CAVS 0.5 GY              CCN000006000000006000FN00000000020220101000006000NNE   20211129120443W41 1W    00000150000000677000000000032W41   HJYHK-J 000000000000OV41C014
BI00B32W4    4500184290     2022011118018403952              CAVS 0.5 P               CCN000021000000021000FN00000000020220101000021000NNE   20211129120443W41 1W    00000150000000677000000000032W41   HJYHK-J 000000000000OV41C016
BI00B32W4    4500184290     2022011118018403970              CAVS 0.5 Y               CCN000033000000033000FN00000000020220101000033000NNE   20211129120443W41 1W    00000150000000677000000000032W41   HJYHK-J 000000000000OV41C021
BI00B32W4    4500184290     2022011118018403990              CAVS 0.5 L               CCN000033000000033000FN00000000020220101000033000NNE   20211129120443W41 1W    00000150000000677000000000032W41   HJYHK-J 000000000000OV41C015
BI00B32W4    4500184290     2022011118018403992              CAVS 0.5 V               CCN000019500000019500FN00000000020220101000019500NNE   20211129120443W41 1W    00000150000000677000000000032W41   HJYHK-J 000000000000OV41C019
BI00B32W4    4500184290     2022011118018404030              CAVS 0.85 B              CCN000011000000011000FN00000000020220101000011000NNE   20211129120443W41 1W    00000100000000965000000000032W41   HJYHK-J 000000000000OV41C022
BI00B32W4    4500184290     2022011118018404040              CAVS 0.85 W              CCN000020000000020000FN00000000020220101000020000NNE   20211129120443W41 1W    00000100000000965000000000032W41   HJYHK-J 000000000000OV41C030
BI00B32W4    4500184290     2022011118018404041              CAVS 0.85 GY             CCN000050000000050000FN00000000020220101000050000NNE   20211129120443W41 1W    00000100000000965000000000032W41   HJYHK-J 000000000000OV41C024
BI00B32W4    4500184290     2022011118018404050              CAVS 0.85 R              CCN000041000000041000FN00000000020220101000041000NNE   20211129120443W41 1W    00000100000000965000000000032W41   HJYHK-J 000000000000OV41C027
BI00B32W4    4500184290     2022011118018404051              CAVS 0.85 O              CCN000014000000014000FN00000000020220101000014000NNE   20211129120443W41 1W    00000100000000965000000000032W41   HJYHK-J 000000000000OV41C025
BI00B32W4    4500184290     2022011118018404052              CAVS 0.85 P              CCN000021000000021000FN00000000020220101000021000NNE   20211129120443W41 1W    00000100000000965000000000032W41   HJYHK-J 000000000000OV41C026
BI00B32W4    4500184290     2022011118018404060              CAVS 0.85 G              CCN000042000000042000FN00000000020220101000042000NNE   20211129120443W41 1W    00000100000000965000000000032W41   HJYHK-J 000000000000OV41C023
BI00B32W4    4500184290     2022011118018404070              CAVS 0.85 Y              CCN000054000000054000FN00000000020220101000054000NNE   20211129120443W41 1W    00000100000000965000000000032W41   HJYHK-J 000000000000OV41C031
BI00B32W4    4500184290     2022011118018404091              CAVS 0.85 SB             CCN000046000000046000FN00000000020220101000046000NNE   20211129120443W41 1W    00000100000000965000000000032W41   HJYHK-J 000000000000OV41C028
BI00B32W4    4500184290     2022011118018404092              CAVS 0.85 V              CCN000019000000019000FN00000000020220101000019000NNE   20211129120443W41 1W    00000100000000965000000000032W41   HJYHK-J 000000000000OV41C029
BI00B32W4    4500184290     2022011118018404140              CAVS 1.25 W              CCN000009600000009600FN00000000020220101000009600NNE   20211129120443W41 1W    00000080000001378000000000032W41   HJYHK-J 000000000000OV41C040
BI00B32W4    4500184290     2022011118018404170              CAVS 1.25 Y              CCN000008800000008800FN00000000020220101000008800NNE   20211129120443W41 1W    00000080000001378000000000032W41   HJYHK-J 000000000000OV41C041
BI00B32W4    4500184290     2022011118018404130              CAVS 1.25 B              CCN000004000000004000FN00000000020220101000004000NNE   20211129120443W41 1W    00000080000001378000000000032W41   HJYHK-J 000000000000OV41C032
BI00B32W4    4500184290     2022011118018404141              CAVS 1.25 GY             CCN000001600000001600FN00000000020220101000001600NNE   20211129120443W41 1W    00000080000001378000000000032W41   HJYHK-J 000000000000OV41C034
BI00B32W4    4500184290     2022011118018404151              CAVS 1.25 O              CCN000002400000002400FN00000000020220101000002400NNE   20211129120443W41 1W    00000080000001378000000000032W41   HJYHK-J 000000000000OV41C036
BI00B32W4    4500184290     2022011118018404152              CAVS 1.25 P              CCN000003200000003200FN00000000020220101000003200NNE   20211129120443W41 1W    00000080000001378000000000032W41   HJYHK-J 000000000000OV41C037
BI00B32W4    4500184290     2022011118018404160              CAVS 1.25 G              CCN000004800000004800FN00000000020220101000004800NNE   20211129120443W41 1W    00000080000001378000000000032W41   HJYHK-J 000000000000OV41C033
BI00B32W4    4500184290     2022011118018404150              CAVS 1.25 R              CCN000002400000002400FN00000000020220101000002400NNE   20211129120443W41 1W    00000080000001378000000000032W41   HJYHK-J 000000000000OV41C038
BI00B32W4    4500184290     2022011118018404190              CAVS 1.25 L              CCN000004800000004800FN00000000020220101000004800NNE   20211129120443W41 1W    00000080000001378000000000032W41   HJYHK-J 000000000000OV41C035
BI00B32W4    4500184290     2022011118018404192              CAVS 1.25 V              CCN000004000000004000FN00000000020220101000004000NNE   20211129120443W41 1W    00000080000001378000000000032W41   HJYHK-J 000000000000OV41C039
BI00B32W4    4500184290     2022011118001403960              AV 0.5F G                CCN000010000000010000FN00000000020220101000010000NNE   20211129120443W41 1W    00000100000000921000000000032W41   HJYHK-J 000000000000OV41C002
BI00B32W4    4500184290     2022011118001403964              AV 0.5F G/W              CCN000008000000008000FN00000000020220101000008000NNE   20211129120443W41 1W    00000100000000921000000000032W41   HJYHK-J 000000000000OV41C003
BI00B32W4    4500184290     2022011118018403953              CAVS 0.5 R/B             CCN000001500000001500FN00000000020220101000001500NNE   20211129120443W41 1W    00000150000000677000000000032W41   HJYHK-J 000000000000OV41C017
BI00B32W4    4500184290     2022011118018403955              CAVS 0.5 R/LG            CCN000003000000003000FN00000000020220101000003000NNE   20211129120443W41 1W    00000150000000677000000000032W41   HJYHK-J 000000000000OV41C018
BI00B32W4    @4500184290    20220111181B32116Z6              AVSSCS 0.3FX2 DGY/V      CCN000000700000000700FN00000000020220101000000700NNE   20211129120443W41 1W    00000035000002241000000000032W41   HJYHK-J 000000000000OV41C001
BI00B32W4    4500184307     2022011118018403730              CAVS 0.3 B               CCN000012000000012000FN00000000020220101000012000NNE   20211129120443W41 1W    00000200000000471000000000032W41   HJYHK-J 000000000000OW41C001
BI00B32W4    4500184307     2022011118018403749              CAVS 0.3 W/L             CCN000004000000004000FN00000000020220101000004000NNE   20211129120443W41 1W    00000200000000471000000000032W41   HJYHK-J 000000000000OW41C002
BI00A32W4    @4500184405    20211228181B09037K5              CAVSAS 0.3X1 GY/BR       CCN000002000000002000FN00000000020220101000002000NNE   20211129120443W4N21W    00000050000001699000000000032W4N2    ERROR.000000000000OT21C001
BI00B32W4    4500184517     2022012518007703930              AVSS 0.5F B              CCN000001500000001500FN00000000020220101000001500NNE   20211129120443W4K81W    00000150000000674000000000032W4K8  HJYHK-J 000000000000OE41C004
BI00B32W4    4500184517     2022012518007703963              AVSS 0.5F G/B            CCN000001500000001500FN00000000020220101000001500NNE   20211129120443W4K81W    00000150000000674000000000032W4K8  HJYHK-J 000000000000OE41C005
BI00B32W4    4500184517     2022012518007704194              AVSS 1.25F L/W           CCN000000800000000800FN00000000020220101000000800NNE   20211129120443W4K81W    00000080000001389000000000032W4K8  HJYHK-J 000000000000OE41C007
BI00B32W4    4500184517     2022012518007704195              AVSS 1.25F L/R           CCN000000800000000800FN00000000020220101000000800NNE   20211129120443W4K81W    00000080000001389000000000032W4K8  HJYHK-J 000000000000OE41C006
BI00B32W4    4500184517     2022012518007704230              AVSS 2F B                CCN000003000000003000FN00000000020220101000003000NNE   20211129120443W4K81W    00000050000002126400000000032W4K8  HJYHK-J 000000000000OE41C008
BI00B32W4    4500184517     2022012518007704287              AVSS 2F BR/Y             CCN000000500000000500FN00000000020220101000000500NNE   20211129120443W4K81W    00000050000002126400000000032W4K8  HJYHK-J 000000000000OE41C009
BI00B32W4    4500184517     2022012518018403707              CAVS 0.3 P/B             CCN000004000000004000FN00000000020220101000004000NNE   20211129120443W4K81W    00000200000000471000000000032W4K8  HJYHK-J 000000000000OE41C060
BI00B32W4    4500184517     2022012518018403730              CAVS 0.3 B               CCN000014000000014000FN00000000020220101000014000NNE   20211129120443W4K81W    00000200000000471000000000032W4K8  HJYHK-J 000000000000OE41C054
BI00B32W4    4500184517     2022012518018403734              CAVS 0.3 B/W             CCN000004000000004000FN00000000020220101000004000NNE   20211129120443W4K81W    00000200000000471000000000032W4K8  HJYHK-J 000000000000OE41C055
BI00B32W4    4500184517     2022012518018403740              CAVS 0.3 W               CCN000012000000012000FN00000000020220101000012000NNE   20211129120443W4K81W    00000200000000471000000000032W4K8  HJYHK-J 000000000000OE41C065
BI00B32W4    4500184517     2022012518018403741              CAVS 0.3 GY              CCN000018000000018000FN00000000020220101000018000NNE   20211129120443W4K81W    00000200000000471000000000032W4K8  HJYHK-J 000000000000OE41C057
BI00B32W4    4500184517     2022012518018403743              CAVS 0.3 W/B             CCN000002000000002000FN00000000020220101000002000NNE   20211129120443W4K81W    00000200000000471000000000032W4K8  HJYHK-J 000000000000OE41C066
BI00B32W4    4500184517     2022012518018403749              CAVS 0.3 W/L             CCN000004000000004000FN00000000020220101000004000NNE   20211129120443W4K81W    00000200000000471000000000032W4K8  HJYHK-J 000000000000OE41C067
BI00B32W4    4500184517     2022012518018403750              CAVS 0.3 R               CCN000004000000004000FN00000000020220101000004000NNE   20211129120443W4K81W    00000200000000471000000000032W4K8  HJYHK-J 000000000000OE41C062
BI00B32W4    4500184517     2022012518018403760              CAVS 0.3 G               CCN000014000000014000FN00000000020220101000014000NNE   20211129120443W4K81W    00000200000000471000000000032W4K8  HJYHK-J 000000000000OE41C056
BI00B32W4    4500184517     2022012518018403790              CAVS 0.3 L               CCN000024000000024000FN00000000020220101000024000NNE   20211129120443W4K81W    00000200000000471000000000032W4K8  HJYHK-J 000000000000OE41C058
BI00B32W4    4500184517     2022012518018403792              CAVS 0.3 V               CCN000006000000006000FN00000000020220101000006000NNE   20211129120443W4K81W    00000200000000471000000000032W4K8  HJYHK-J 000000000000OE41C064
BI00B32W4    4500184517     2022012518018403930              CAVS 0.5 B               CCN000054000000054000FN00000000020220101000054000NNE   20211129120443W4K81W    00000150000000677000000000032W4K8  HJYHK-J 000000000000OE41C068
BI00B32W4    4500184517     2022012518018403934              CAVS 0.5 B/W             CCN000021000000021000FN00000000020220101000021000NNE   20211129120443W4K81W    00000150000000677000000000032W4K8  HJYHK-J 000000000000OE41C069
BI00B32W4    4500184517     2022012518018403940              CAVS 0.5 W               CCN000048000000048000FN00000000020220101000048000NNE   20211129120443W4K81W    00000150000000677000000000032W4K8  HJYHK-J 000000000000OE41C082
BI00B32W4    4500184517     2022012518018403941              CAVS 0.5 GY              CCN000040500000040500FN00000000020220101000040500NNE   20211129120443W4K81W    00000150000000677000000000032W4K8  HJYHK-J 000000000000OE41C073
BI00B32W4    4500184517     2022012518018403943              CAVS 0.5 W/B             CCN000037500000037500FN00000000020220101000037500NNE   20211129120443W4K81W    00000150000000677000000000032W4K8  HJYHK-J 000000000000OE41C083
BI00B32W4    4500184517     2022012518018403950              CAVS 0.5 R               CCN000025500000025500FN00000000020220101000025500NNE   20211129120443W4K81W    00000150000000677000000000032W4K8  HJYHK-J 000000000000OE41C078
BI00B32W4    4500184517     2022012518018403952              CAVS 0.5 P               CCN000060000000060000FN00000000020220101000060000NNE   20211129120443W4K81W    00000150000000677000000000032W4K8  HJYHK-J 000000000000OE41C077
BI00B32W4    4500184517     2022012518018403954              CAVS 0.5 R/W             CCN000033000000033000FN00000000020220101000033000NNE   20211129120443W4K81W    00000150000000677000000000032W4K8  HJYHK-J 000000000000OE41C079
BI00B32W4    4500184517     2022012518018403960              CAVS 0.5 G               CCN000070500000070500FN00000000020220101000070500NNE   20211129120443W4K81W    00000150000000677000000000032W4K8  HJYHK-J 000000000000OE41C071
BI00B32W4    4500184517     2022012518018403961              CAVS 0.5 LG              CCN000051000000051000FN00000000020220101000051000NNE   20211129120443W4K81W    00000150000000677000000000032W4K8  HJYHK-J 000000000000OE41C076
BI00B32W4    4500184517     2022012518018403964              CAVS 0.5 G/W             CCN000018000000018000FN00000000020220101000018000NNE   20211129120443W4K81W    00000150000000677000000000032W4K8  HJYHK-J 000000000000OE41C072
BI00B32W4    4500184517     2022012518018403970              CAVS 0.5 Y               CCN000025500000025500FN00000000020220101000025500NNE   20211129120443W4K81W    00000150000000677000000000032W4K8  HJYHK-J 000000000000OE41C084
BI00B32W4    4500184517     2022012518018403980              CAVS 0.5 BR              CCN000012000000012000FN00000000020220101000012000NNE   20211129120443W4K81W    00000150000000677000000000032W4K8  HJYHK-J 000000000000OE41C070
BI00B32W4    4500184517     2022012518018403990              CAVS 0.5 L               CCN000030000000030000FN00000000020220101000030000NNE   20211129120443W4K81W    00000150000000677000000000032W4K8  HJYHK-J 000000000000OE41C074
BI00B32W4    4500184517     2022012518018403991              CAVS 0.5 SB              CCN000037500000037500FN00000000020220101000037500NNE   20211129120443W4K81W    00000150000000677000000000032W4K8  HJYHK-J 000000000000OE41C080
BI00B32W4    4500184517     2022012518018403992              CAVS 0.5 V               CCN000027000000027000FN00000000020220101000027000NNE   20211129120443W4K81W    00000150000000677000000000032W4K8  HJYHK-J 000000000000OE41C081
BI00B32W4    4500184517     2022012518018403995              CAVS 0.5 L/R             CCN000018000000018000FN00000000020220101000018000NNE   20211129120443W4K81W    00000150000000677000000000032W4K8  HJYHK-J 000000000000OE41C075
BI00B32W4    4500184517     2022012518018404043              CAVS 0.85 W/B            CCN000002000000002000FN00000000020220101000002000NNE   20211129120443W4K81W    00000100000000965000000000032W4K8  HJYHK-J 000000000000OE41C089
BI00B32W4    4500184517     2022012518018404052              CAVS 0.85 P              CCN000006000000006000FN00000000020220101000006000NNE   20211129120443W4K81W    00000100000000965000000000032W4K8  HJYHK-J 000000000000OE41C087
BI00B32W4    4500184517     2022012518018404061              CAVS 0.85 LG             CCN000005000000005000FN00000000020220101000005000NNE   20211129120443W4K81W    00000100000000965000000000032W4K8  HJYHK-J 000000000000OE41C086
BI00B32W4    4500184517     2022012518018404090              CAVS 0.85 L              CCN000013000000013000FN00000000020220101000013000NNE   20211129120443W4K81W    00000100000000965000000000032W4K8  HJYHK-J 000000000000OE41C085
BI00B32W4    4500184517     2022012518018404092              CAVS 0.85 V              CCN000007000000007000FN00000000020220101000007000NNE   20211129120443W4K81W    00000100000000965000000000032W4K8  HJYHK-J 000000000000OE41C088
BI00B32W4    4500184517     2022012518018404130              CAVS 1.25 B              CCN000055200000055200FN00000000020220101000055200NNE   20211129120443W4K81W    00000080000001378000000000032W4K8  HJYHK-J 000000000000OE41C090
BI00B32W4    4500184517     2022012518018404140              CAVS 1.25 W              CCN000013600000013600FN00000000020220101000013600NNE   20211129120443W4K81W    00000080000001378000000000032W4K8  HJYHK-J 000000000000OE41C097
BI00B32W4    4500184517     2022012518018404141              CAVS 1.25 GY             CCN000041600000041600FN00000000020220101000041600NNE   20211129120443W4K81W    00000080000001378000000000032W4K8  HJYHK-J 000000000000OE41C092
BI00B32W4    4500184517     2022012518018404143              CAVS 1.25 W/B            CCN000032000000032000FN00000000020220101000032000NNE   20211129120443W4K81W    00000080000001378000000000032W4K8  HJYHK-J 000000000000OE41C098
BI00B32W4    4500184517     2022012518018404145              CAVS 1.25 W/R            CCN000028000000028000FN00000000020220101000028000NNE   20211129120443W4K81W    00000080000001378000000000032W4K8  HJYHK-J 000000000000OE41C100
BI00B32W4    4500184517     2022012518018404146              CAVS 1.25 W/G            CCN000048000000048000FN00000000020220101000048000NNE   20211129120443W4K81W    00000080000001378000000000032W4K8  HJYHK-J 000000000000OE41C099
BI00B32W4    4500184517     2022012518018404150              CAVS 1.25 R              CCN000013600000013600FN00000000020220101000013600NNE   20211129120443W4K81W    00000080000001378000000000032W4K8  HJYHK-J 000000000000OE41C095
BI00B32W4    4500184517     2022012518018404152              CAVS 1.25 P              CCN000024000000024000FN00000000020220101000024000NNE   20211129120443W4K81W    00000080000001378000000000032W4K8  HJYHK-J 000000000000OE41C094
BI00B32W4    4500184517     2022012518018404160              CAVS 1.25 G              CCN000028000000028000FN00000000020220101000028000NNE   20211129120443W4K81W    00000080000001378000000000032W4K8  HJYHK-J 000000000000OE41C091
BI00B32W4    4500184517     2022012518018404161              CAVS 1.25 LG             CCN000004800000004800FN00000000020220101000004800NNE   20211129120443W4K81W    00000080000001378000000000032W4K8  HJYHK-J 000000000000OE41C093
BI00B32W4    4500184517     2022012518018404192              CAVS 1.25 V              CCN000030400000030400FN00000000020220101000030400NNE   20211129120443W4K81W    00000080000001378000000000032W4K8  HJYHK-J 000000000000OE41C096
BI00B32W4    4500184517     20220125180184037H2              CAVS 0.3 P/G             CCN000008000000008000FN00000000020220101000008000NNE   20211129120443W4K81W    00000200000000471000000000032W4K8  HJYHK-J 000000000000OE41C061
BI00B32W4    4500184517     20220125180T8403970              ACCAVS 0.5 Y             CCN000009000000009000FN00000000020220101000009000NNE   20211129120443W4K81W    00000150000000674300000000032W4K8  HJYHK-J 000000000000OE41C002
BI00B32W4    4500184517     20220125180T8403973              ACCAVS 0.5 Y/B           CCN000007500000007500FN00000000020220101000007500NNE   20211129120443W4K81W    00000150000000674300000000032W4K8  HJYHK-J 000000000000OE41C003
BI00B32W4    4500184517     2022012518018403761              CAVS 0.3 LG              CCN000002000000002000FN00000000020220101000002000NNE   20211129120443W4K81W    00000200000000471000000000032W4K8  HJYHK-J 000000000000OE41C059
BI00B32W4    4500184517     2022012518018403791              CAVS 0.3 SB              CCN000002000000002000FN00000000020220101000002000NNE   20211129120443W4K81W    00000200000000471000000000032W4K8  HJYHK-J 000000000000OE41C063
BI00B32W4    4500184517     202201251801R703940              CIVUS 0.5 W              CCN000046200000046200FN00000000020220101000046200NNE   20211129120443W4K81W    00000220000000525000000000032W4K8  HJYHK-J 000000000000OE41C022
BI00B32W4    4500184517     202201251801R703991              CIVUS 0.5 SB             CCN000028600000028600FN00000000020220101000028600NNE   20211129120443W4K81W    00000220000000525000000000032W4K8  HJYHK-J 000000000000OE41C020
BI00B32W4    4500184517     202201251801R706940              CIVUS 0.35 W             CCN000084000000084000FN00000000020220101000084000NNE   20211129120443W4K81W    00000300000000386000000000032W4K8  HJYHK-J 000000000000OE41C050
BI00B32W4    4500184517     202201251801R706943              CIVUS 0.35 W/B           CCN000009000000009000FN00000000020220101000009000NNE   20211129120443W4K81W    00000300000000386000000000032W4K8  HJYHK-J 000000000000OE41C051
BI00B32W4    4500184517     202201251801R706930              CIVUS 0.35 B             CCN000033000000033000FN00000000020220101000033000NNE   20211129120443W4K81W    00000300000000386000000000032W4K8  HJYHK-J 000000000000OE41C039
BI00B32W4    4500184517     202201251801R70695U              CIVUS 0.35 BE            CCN000036000000036000FN00000000020220101000036000NNE   20211129120443W4K81W    00000300000000386000000000032W4K8  HJYHK-J 000000000000OE41C040
BI00B32W4    4500184517     202201251801R706980              CIVUS 0.35 BR            CCN000057000000057000FN00000000020220101000057000NNE   20211129120443W4K81W    00000300000000386000000000032W4K8  HJYHK-J 000000000000OE41C041
BI00B32W4    4500184517     202201251801R706960              CIVUS 0.35 G             CCN000048000000048000FN00000000020220101000048000NNE   20211129120443W4K81W    00000300000000386000000000032W4K8  HJYHK-J 000000000000OE41C042
BI00B32W4    4500184517     202201251801R706941              CIVUS 0.35 GY            CCN000081000000081000FN00000000020220101000081000NNE   20211129120443W4K81W    00000300000000386000000000032W4K8  HJYHK-J 000000000000OE41C043
BI00B32W4    4500184517     202201251801R706990              CIVUS 0.35 L             CCN000075000000075000FN00000000020220101000075000NNE   20211129120443W4K81W    00000300000000386000000000032W4K8  HJYHK-J 000000000000OE41C044
BI00B32W4    4500184517     202201251801R706952              CIVUS 0.35 P             CCN000030000000030000FN00000000020220101000030000NNE   20211129120443W4K81W    00000300000000386000000000032W4K8  HJYHK-J 000000000000OE41C046
BI00B32W4    4500184517     202201251801R706991              CIVUS 0.35 SB            CCN000054000000054000FN00000000020220101000054000NNE   20211129120443W4K81W    00000300000000386000000000032W4K8  HJYHK-J 000000000000OE41C048
BI00B32W4    4500184517     202201251801R706992              CIVUS 0.35 V             CCN000054000000054000FN00000000020220101000054000NNE   20211129120443W4K81W    00000300000000386000000000032W4K8  HJYHK-J 000000000000OE41C049
BI00B32W4    4500184517     202201251801R703952              CIVUS 0.5 P              CCN000033000000033000FN00000000020220101000033000NNE   20211129120443W4K81W    00000220000000525000000000032W4K8  HJYHK-J 000000000000OE41C018
BI00B32W4    4500184517     202201251801R70395U              CIVUS 0.5 BE             CCN000011000000011000FN00000000020220101000011000NNE   20211129120443W4K81W    00000220000000525000000000032W4K8  HJYHK-J 000000000000OE41C012
BI00B32W4    4500184517     202201251801R704052              CIVUS 0.75 P             CCN000001500000001500FN00000000020220101000001500NNE   20211129120443W4K81W    00000150000000765000000000032W4K8  HJYHK-J 000000000000OE41C026
BI00B32W4    4500184517     202201251801R704043              CIVUS 0.75 W/B           CCN000001500000001500FN00000000020220101000001500NNE   20211129120443W4K81W    00000150000000765000000000032W4K8  HJYHK-J 000000000000OE41C027
BI00B32W4    4500184517     202201251801R704080              CIVUS 0.75 BR            CCN000001500000001500FN00000000020220101000001500NNE   20211129120443W4K81W    00000150000000765000000000032W4K8  HJYHK-J 000000000000OE41C025
BI00B32W4    4500184517     202201251801R704140              CIVUS 1.25 W             CCN000006000000006000FN00000000020220101000006000NNE   20211129120443W4K81W    00000100000001228000000000032W4K8  HJYHK-J 000000000000OE41C037
BI00B32W4    4500184517     202201251801R704143              CIVUS 1.25 W/B           CCN000020000000020000FN00000000020220101000020000NNE   20211129120443W4K81W    00000100000001228000000000032W4K8  HJYHK-J 000000000000OE41C038
BI00B32W4    4500184517     202201251801R704190              CIVUS 1.25 L             CCN000007000000007000FN00000000020220101000007000NNE   20211129120443W4K81W    00000100000001228000000000032W4K8  HJYHK-J 000000000000OE41C031
BI00B32W4    4500184517     202201251801R704192              CIVUS 1.25 V             CCN000008000000008000FN00000000020220101000008000NNE   20211129120443W4K81W    00000100000001228000000000032W4K8  HJYHK-J 000000000000OE41C036
BI00B32W4    4500184517     202201251801R70415U              CIVUS 1.25 BE            CCN000006000000006000FN00000000020220101000006000NNE   20211129120443W4K81W    00000100000001228000000000032W4K8  HJYHK-J 000000000000OE41C029
BI00B32W4    4500184517     202201251801R704161              CIVUS 1.25 LG            CCN000015000000015000FN00000000020220101000015000NNE   20211129120443W4K81W    00000100000001228000000000032W4K8  HJYHK-J 000000000000OE41C032
BI00B32W4    4500184517     202201251801R704150              CIVUS 1.25 R             CCN000005000000005000FN00000000020220101000005000NNE   20211129120443W4K81W    00000100000001228000000000032W4K8  HJYHK-J 000000000000OE41C034
BI00B32W4    4500184517     202201251801R704191              CIVUS 1.25 SB            CCN000009000000009000FN00000000020220101000009000NNE   20211129120443W4K81W    00000100000001228000000000032W4K8  HJYHK-J 000000000000OE41C035
BI00B32W4    4500184517     202201251801R706961              CIVUS 0.35 LG            CCN000057000000057000FN00000000020220101000057000NNE   20211129120443W4K81W    00000300000000386000000000032W4K8  HJYHK-J 000000000000OE41C045
BI00B32W4    4500184517     202201251801R703980              CIVUS 0.5 BR             CCN000046200000046200FN00000000020220101000046200NNE   20211129120443W4K81W    00000220000000525000000000032W4K8  HJYHK-J 000000000000OE41C013
BI00B32W4    4500184517     202201251801R704152              CIVUS 1.25 P             CCN000004000000004000FN00000000020220101000004000NNE   20211129120443W4K81W    00000100000001228000000000032W4K8  HJYHK-J 000000000000OE41C033
BI00B32W4    4500184517     202201251801R703960              CIVUS 0.5 G              CCN000011000000011000FN00000000020220101000011000NNE   20211129120443W4K81W    00000220000000525000000000032W4K8  HJYHK-J 000000000000OE41C014
BI00B32W4    4500184517     202201251801R704180              CIVUS 1.25 BR            CCN000018000000018000FN00000000020220101000018000NNE   20211129120443W4K81W    00000100000001228000000000032W4K8  HJYHK-J 000000000000OE41C030
BI00B32W4    4500184517     202201251801R706950              CIVUS 0.35 R             CCN000054000000054000FN00000000020220101000054000NNE   20211129120443W4K81W    00000300000000386000000000032W4K8  HJYHK-J 000000000000OE41C047
BI00B32W4    4500184517     202201251801R706970              CIVUS 0.35 Y             CCN000090000000090000FN00000000020220101000090000NNE   20211129120443W4K81W    00000300000000386000000000032W4K8  HJYHK-J 000000000000OE41C052
BI00B32W4    4500184517     202201251801R706973              CIVUS 0.35 Y/B           CCN000087000000087000FN00000000020220101000087000NNE   20211129120443W4K81W    00000300000000386000000000032W4K8  HJYHK-J 000000000000OE41C053
BI00B32W4    4500184517     202201251801R703930              CIVUS 0.5 B              CCN000039600000039600FN00000000020220101000039600NNE   20211129120443W4K81W    00000220000000525000000000032W4K8  HJYHK-J 000000000000OE41C011
BI00B32W4    4500184517     202201251801R703941              CIVUS 0.5 GY             CCN000039600000039600FN00000000020220101000039600NNE   20211129120443W4K81W    00000220000000525000000000032W4K8  HJYHK-J 000000000000OE41C015
BI00B32W4    4500184517     202201251801R703990              CIVUS 0.5 L              CCN000024200000024200FN00000000020220101000024200NNE   20211129120443W4K81W    00000220000000525000000000032W4K8  HJYHK-J 000000000000OE41C016
BI00B32W4    4500184517     202201251801R703961              CIVUS 0.5 LG             CCN000099000000099000FN00000000020220101000099000NNE   20211129120443W4K81W    00000220000000525000000000032W4K8  HJYHK-J 000000000000OE41C017
BI00B32W4    4500184517     202201251801R703992              CIVUS 0.5 V              CCN000008800000008800FN00000000020220101000008800NNE   20211129120443W4K81W    00000220000000525000000000032W4K8  HJYHK-J 000000000000OE41C021
BI00B32W4    4500184517     202201251801R703943              CIVUS 0.5 W/B            CCN000121000000121000FN00000000020220101000121000NNE   20211129120443W4K81W    00000220000000525000000000032W4K8  HJYHK-J 000000000000OE41C023
BI00B32W4    4500184517     202201251801R703950              CIVUS 0.5 R              CCN000006600000006600FN00000000020220101000006600NNE   20211129120443W4K81W    00000220000000525000000000032W4K8  HJYHK-J 000000000000OE41C019
BI00B32W4    4500184517     202201251801R704030              CIVUS 0.75 B             CCN000013500000013500FN00000000020220101000013500NNE   20211129120443W4K81W    00000150000000765000000000032W4K8  HJYHK-J 000000000000OE41C024
BI00B32W4    4500184517     202201251801R704130              CIVUS 1.25 B             CCN000022000000022000FN00000000020220101000022000NNE   20211129120443W4K81W    00000100000001228000000000032W4K8  HJYHK-J 000000000000OE41C028
BI00B32W4    4500184517     2022012518007704243              AVSS 2F W/B              CCN000006000000006000FN00000000020220101000006000NNE   20211129120443W4K81W    00000050000002126400000000032W4K8  HJYHK-J 000000000000OE41C010
BI00B32W4    @4500184517    20220125181B32116Z6              AVSSCS 0.3FX2 DGY/V      CCN000007000000007000FN00000000020220101000007000NNE   20211129120443W4K81W    00000035000002241000000000032W4K8  HJYHK-J 000000000000OE41C001
BI00B32W4    4500184528     2022012518007704260              AVSS 2F G                CCN000001000000001000FN00000000020220101000001000NNE   20211129120443W4K81W    00000050000002126400000000032W4K8  HJYHK-J 000000000000OF41C001
BI00B32W4    4500184528     2022012518007704240              AVSS 2F W                CCN000001500000001500FN00000000020220101000001500NNE   20211129120443W4K81W    00000050000002126400000000032W4K8  HJYHK-J 000000000000OF41C003
BI00B32W4    4500184528     2022012518007704290              AVSS 2F L                CCN000001000000001000FN00000000020220101000001000NNE   20211129120443W4K81W    00000050000002126400000000032W4K8  HJYHK-J 000000000000OF41C002
BI00B32W4    4500184528     202201251801R704061              CIVUS 0.75 LG            CCN000006000000006000FN00000000020220101000006000NNE   20211129120443W4K81W    00000150000000765000000000032W4K8  HJYHK-J 000000000000OF41C004
BI00A32W4    @4500184612    20220113181D6910239              AVSSHCS 0.5FX2 B/L       CCN000021600000021600FN00000000020220101000021600NNE   20211129120443W4A21W    00000030000002792600000000032W4A2  HJYHK-J 000000000000OX41C001
BI00B32W4    4500184714     202201111801R706970              CIVUS 0.35 Y             CCN000003000000003000FN00000000020220101000003000NNE   20211129120443W41 1W    00000300000000386000000000032W41   HJYHK-J 000000000000OY41C001
BI00B32W4    4500184766     2022012518018404130              CAVS 1.25 B              CCN000002400000002400FN00000000020220101000002400NNE   20211129120443W41 1W    00000080000001378000000000032W41   HJYHK-J 000000000000OG41C007
BI00B32W4    4500184766     202201251801R706950              CIVUS 0.35 R             CCN000003000000003000FN00000000020220101000003000NNE   20211129120443W41 1W    00000300000000386000000000032W41   HJYHK-J 000000000000OG41C005
BI00B32W4    4500184766     202201251801R706930              CIVUS 0.35 B             CCN000003000000003000FN00000000020220101000003000NNE   20211129120443W41 1W    00000300000000386000000000032W41   HJYHK-J 000000000000OG41C002
BI00B32W4    4500184766     202201251801R706970              CIVUS 0.35 Y             CCN000003000000003000FN00000000020220101000003000NNE   20211129120443W41 1W    00000300000000386000000000032W41   HJYHK-J 000000000000OG41C006
BI00B32W4    4500184766     202201251801R706990              CIVUS 0.35 L             CCN000003000000003000FN00000000020220101000003000NNE   20211129120443W41 1W    00000300000000386000000000032W41   HJYHK-J 000000000000OG41C004
BI00B32W4    4500184766     202201251801R706960              CIVUS 0.35 G             CCN000003000000003000FN00000000020220101000003000NNE   20211129120443W41 1W    00000300000000386000000000032W41   HJYHK-J 000000000000OG41C003
BI00B32W4    @4500184766    20220125181AD2002ZZ              CIVUSAS-S 0.35X2 B       CCN000000450000000450FN00000000020220101000000450NNE   20211129120443W41 1W    00000045000001714000000000032W41   HJYHK-J 000000000000OG41C001
BI00B32W4    4500184790     2022012518018403791              CAVS 0.3 SB              CCN000002000000002000FN00000000020220101000002000NNE   20211129120443W41 1W    00000200000000471000000000032W41   HJYHK-J 000000000000OH41C007
BI00B32W4    4500184790     2022012518018403730              CAVS 0.3 B               CCN000014000000014000FN00000000020220101000014000NNE   20211129120443W41 1W    00000200000000471000000000032W41   HJYHK-J 000000000000OH41C002
BI00B32W4    4500184790     2022012518018403752              CAVS 0.3 P               CCN000002000000002000FN00000000020220101000002000NNE   20211129120443W41 1W    00000200000000471000000000032W41   HJYHK-J 000000000000OH41C006
BI00B32W4    4500184790     2022012518018403760              CAVS 0.3 G               CCN000016000000016000FN00000000020220101000016000NNE   20211129120443W41 1W    00000200000000471000000000032W41   HJYHK-J 000000000000OH41C004
BI00B32W4    4500184790     2022012518018403780              CAVS 0.3 BR              CCN000012000000012000FN00000000020220101000012000NNE   20211129120443W41 1W    00000200000000471000000000032W41   HJYHK-J 000000000000OH41C003
BI00B32W4    4500184790     2022012518018403792              CAVS 0.3 V               CCN000018000000018000FN00000000020220101000018000NNE   20211129120443W41 1W    00000200000000471000000000032W41   HJYHK-J 000000000000OH41C008
