BI00A1200    #7860T51C08    202204187172-5630-40             RUBBER STOPPER           PCN000020000000020000FN00000000020220301000020000NNM00020220329170634    2H0H  0000200000000004400000009511200    YCYC    004300270014
BI00A1200    #7960T52201    202204077172-5630-40             RUBBER STOPPER           PCN000040000000040000FN00000000020220301000040000NNE00020220329170634    2H0H  0000200000000004400000009511200    YCYC    004300270014
BI00B1200    2399T52422     202206027288-7969                HYBRID MALE ASS'Y        CCN000029760000029760FN00000000020220601000029760NNMD0220220329170634    1N0N  0000003200000087620000110171200    YCYC    005400370024
BI00B1200    2399T52423     202206097288-7969                HYBRID MALE ASS'Y        CCN000029440000029440FN00000000020220601000029440NNMD0220220329170634    1N0N  0000003200000087620000110171200    YCYC    005400370024
BI00B1200    2399T52424     202206167288-7969                HYBRID MALE ASS'Y        CCN000029440000029440FN00000000020220601000029440NNMD0420220329170634    1N0N  0000003200000087620000110171200    YCYC    005400370024
BI00B1200    2399T52425     202206237288-7969                HYBRID MALE ASS'Y        CCN000029440000029440FN00000000020220601000029440NNMD0220220329170634    1N0N  0000003200000087620000110171200    YCYC    005400370024
BI00B1200    Y122C15N       202204217288-3329-30             HOUSING MALE             CCN000001500000001500FN00000000020220401000001500NNED0720220329170634    4N0N  0000015000000086610000101111200    YCYC    005400370024
BI00B1200    #Y022F50056    202205267154-5597-30             CASSETTE R/B             CCN000001600000001600FN00000000020220601000001600NNE   20220329170634    2F0F  0000008000000073600000095201200    YCYC    005500360039
BI00B1200    #Y022F50057    202205267289-2912-40             HOUSING FEMALE ASS'Y     CCN000002000000002000FN00000000020220601000002000NNE   20220329170634    2N0N  0000020000000080400000093101200    YCYC    005400370024
BI00B1200    8640T52401     202207147288-3329-30             HOUSING MALE             CCN000001500000001500FN00000000020220801000001500NNE   20220329170634    4N0N  0000015000000086610000101111200    YCYC    005400370024
BI00B1200    8640T52401     202207147289-3342-30             HOUSING FEMALE ASS'Y     CCN000002400000002400FN00000000020220801000002400NNE   20220329170634    1N0N  0000024000000068640000090141200    YCYC    005500360039
BI00B1200    8640T52402     202207287288-3329-30             HOUSING MALE             CCN000001500000001500FN00000000020220801000001500NNE   20220329170634    4N0N  0000015000000086610000101111200    YCYC    005400370024
BI00B1200    8640T52402     202207287289-3342-30             HOUSING FEMALE ASS'Y     CCN000002400000002400FN00000000020220801000002400NNE   20220329170634    1N0N  0000024000000068640000090141200    YCYC    005500360039
BI00B32BF    TT2205ABMW     202204197282-1119-30             HOUSING MALE ASS'Y       CCN000000288000000288FN00000000020220501000000288NNED0720220329170634    4N0N  00000028800000821700001008032BF    TTTJYCD 005400370024
BI00A32B6    A72016A        202204117287-0192-40             SEALED HOUSING ASS'Y     CCN000001440000001440FN00000000020220401000001440NNED0720220329170634B6  4N0N  00000048000001092000001322032B6    AXARNE-M005600390040
BI00A32B7    A82016A        202204117283-8599-30             CONNECTOR                CCN000003080000003080FN00000000020220401000003080NNED0720220329170634B7  4N0N  00000154000000947100001157032B7    AXARNE-M005600390023
BI00A32B7    #A82016A       202204077283-8398-40             CONNECTOR                CCN000027720000027720FN00000000020220401000027720NNED0720220329170634B7  2N0N  00000154000001007000001171332B7    AXARNE-M005600390023
BI00B32CA    PTA32095       202206167289-3342-90             HOUSING FEMALE ASS'Y     CCN000016800000016800FN00000000020220901000016800NNED0420220329170634    1N0N  00000240000000686400000901432CA    YPYPY   005500360039
BI00B32CH    SJ2202AHMW     202203317327-6884-30             MULTI FUSE               CCN000013248000013248FN00000000020220201000013248NNE00020220329170634    4N0N  00000028800000988900001154832CH    SJSAMIJF005400370024
BI00B32CJ    JQN205B        202204227282-4576                HOUSING MALE ASS'Y       CCN000004800000004800FN00000000020220501000004800NNED0220220329170634    4N0N  00000240000000808800001028832CJ    QNYHVQN 005500360039
BI00B32CJ    JQN205B        202204227283-1156                CONNECTOR                CCN000006400000006400FN00000000020220501000006400NNED0420220329170634    4N0N  00000080000000877600001078032CJ    QNYHVQN 005600390040
BI00A32C8    #4502146831    202204057254-8799-30             TOP COVER ASS'Y          CCN000000150000000150FN00000000020220401000000150NNMM0020220329170634    2N0N  00000003000000286500000489132C8    NAYNA   005600390040
BI00B32D2    DGTC2225       202205127289-3342-40             HOUSING FEMALE ASS'Y     CCN000007200000007200FN00000000020220601000007200NNMD0420220329170634    1N0N  00000240000000686400000901432D2    TGYOT-G 005500360039
BI00B32EJ    T220304P01     202204077116-4124-02             TERMINAL                 CCN000009000000009000FN00000000020220401000009000NNE00020220329170634EJ  4P0P  00000300000000459900000753532EJ    EJYKBO  006400630015
BI00A32EJ    T220304P01     202204077158-3167-61             WIRE SEAL                CCN000040000000040000FN00000000020220401000040000NNEM0020220329170634EJ  1C0C  00002000000000048000000096432EJ    EJYKBO  004300270014
BI00A32EJ    #T220304P01    202204077282-6458-40             CONNECTOR                CCN000001000000001000FN00000000020220401000001000NNEM0020220329170634EJ  2N0N  00000100000001206000001350532EJ    EJYKBO  005500360039
BI00B32EJ    T220325P05     202205197283-5843                CONNECTOR                CCN000030000000015000FN00000000020220401000015000NNED0220220329170634EJ  1N0N  00000150000000889000001132032EJ    EJYKBO  005600390040
BI00B32EJ    #T220328P01    202204287282-6446-40             CONNECTOR                CCN000001500000001500FN00000000020220401000001500NNE   20220329170634EJ  2N0N  00000150000001185000001368032EJ    EJYKBO  005500360039
BI00B32EJ    T220325P05     202205267283-5843                CONNECTOR                CCN000015000000015000FN00000000020220401000015000NNED0220220329170634EJ  1N0N  00000150000000889000001132032EJ    EJYKBO  005600390040
BI00B32G0    #TZ22051EMW    202204017172-5630-40             RUBBER STOPPER           CCN000380000000380000FN00000000020220501000380000NNM00020220329170634    2H0H  00002000000000044000000095132G0    TTTJY   004300270014
BI00B32G0    #TZ22053EMW    202204017189-2978-30             HOUSING FEMALE           CCN000001500000001500FN00000000020220501000001500NNM00020220329170634    2F0F  00000150000000966900001096932G0    TTTJY   005400370024
BI00B32G0    #TZ22051EMW    202203257198-4979-30             HOUSING FEMALE           CCN000004000000004000FY00000400020220501000000000NNM00020220329154510    2F0F  00000400000000707200000876032G0    TTTJY   005400370024
BI00B32G0    #TZ22053EMW    202204017198-4980-30             HOUSING FEMALE           CCN000001200000001200FN00000000020220501000001200NNM00020220329170634    2F0F  00000120000000840000000921032G0    TTTJY   005400370024
BI00B32G0    #TZ22051EMW    202203257287-9155                HOUSING FEMALE ASS'Y     CCN000000960000000960FY00000096020220501000000000NNM00020220329154516    2N0N  00000096000000853700001045232G0    TTTJY   005400370024
BI00B32G0    #TZ22053EMW    202204017289-3622-30             HOUSING FEMALE ASS'Y     CCN000000432000000432FN00000000020220501000000432NNM00020220329170634    2N0N  00000043200000839400001038432G0    TTTJY   005400370024
BI00B32G0    #TZ22053EMW    202204017289-4200-30             HOUSING FEMALE ASS'Y     CCN000002000000002000FN00000000020220501000002000NNM00020220329170634    2N0N  00000200000000926000001021032G0    TTTJY   005400370024
BI00A32G2    SA2203G MW     202203307116-4028-08             TERMINAL FEMALE          CCN000688000000688000FN00000000020220301000688000NNE   20220329170634    4P0P  00001600000000652800000981532G2    AISUAI  006400630017
BI00A32G7    JJ2205A MW     202203307116-4026                TERMINAL                 CCN000016000000016000FN00000000020220501000016000NNEM0020220329170634    4P0P  00001600000000664000000994332G7    JIJAI   006400630017
BI00B32H2    TIJ2043        202203287017-1183-02             TERMINAL                 CCN000027000000027000FY00002700020220401000000000NNM00020220329110306    4P0P  00002700000001139400001307432H2    HVYHV   005100280028
BI00B32H2    TIJ2043        202203287116-6041                TERMINAL                 CCN000013500000013500FY00001350020220401000000000NNM00020220329110647    4P0P  00000450000000716000001009632H2    HVYHV   006400630015
BI00B32H2    TIJ2043        202203287116-6042                TERMINAL                 CCN000009000000009000FY00000900020220401000000000NNM00020220329110647    4P0P  00000300000000523800000856132H2    HVYHV   006400630015
BI00B32H2    TIJ2043        202203287126-8853-02             TERMINAL                 CCN000015000000015000FY00001500020220401000000000NNM00020220329110647    4P0P  00000750000000562500000847732H2    HVYHV   006400630015
BI00B32H2    TIJ2043        202203287126-8854-02             TERMINAL                 CCN000007500000007500FY00000750020220401000000000NNM00020220329110647    4P0P  00000750000000604500000889732H2    HVYHV   006400630015
BI00B32H2    TIJ2043        202203287126-8855-02             TERMINAL                 CCN000006000000006000FY00000600020220401000000000NNM00020220329110647    4P0P  00000600000000510600000795832H2    HVYHV   006400630015
BI00B32H2    TIJ2043        202203287158-3006-90             RUBBER STOPPER           CCN000120000000120000FY00012000020220401000000000NNM00020220329110647    1C0C  00002000000000330600000386032H2    HVYHV   002700430014
BI00B32H2    TIJ2043        202203287158-3070-80             RUBBER STOPPER           CCN000160000000160000FY00016000020220401000000000NNM00020220329110647    1C0C  00004000000000276000000333332H2    HVYHV   002700430014
BI00B32H2    TIJ2043        202203287158-3165-90             WIRE SEAL                CCN000200000000200000FY00020000020220401000000000NNM00020220329110647    1C0C  00004000000000124000000172432H2    HVYHV   004300270014
BI00B32H2    TIJ2043        202203287195-1479-02             TERMINAL MALE            CCN000072000000072000FY00007200020220401000000000NNM00020220329110647    4P0P  00002400000000420000000714232H2    HVYHV   006400630015
BI00B32H2    TIJ2043        202203287196-1020-02             TERMINAL ALUMINIUM       CCN000023700000023700FY00002370020220401000000000NNM00020220329110647    4P0P  00002370000000722900001008132H2    HVYHV   006400630015
BI00B32H2    TIJ2043        202203287196-1024-02             TERMINAL ALUMINIUM       CCN000018900000018900FY00001890020220401000000000NNM00020220329110647    4P0P  00001890000000718200001003432H2    HVYHV   006400630015
BI00B32H2    TIJ2043        202203287196-1102-02             TERMINAL                 CCN000090000000090000FY00009000020220401000000000NNM00020220329110647    4P0P  00002250000000405000000690232H2    HVYHV   006400630015
BI00B32H2    TIJ2043        202203287196-1103-02             TERMINAL                 CCN000225000000225000FY00022500020220401000000000NNM00020220329110647    4P0P  00002250000000429800000715032H2    HVYHV   006400630015
BI00B32H2    TIJ2043        202203287196-1104-02             TERMINAL                 CCN000067500000067500FY00006750020220401000000000NNM00020220329110647    4P0P  00002250000000441000000726232H2    HVYHV   006400630015
BI00B32H2    TIJ2043        202203287196-1326-02             TERMINAL FEMALE          CCN000120000000120000FY00012000020220401000000000NNM00020220329110647    4P0P  00006000000000456000000784732H2    HVYHV   006400630017
BI00B32H2    TIJ2043        202203287196-1460-02             TERMINAL FEMALE          CCN000057000000057000FY00005700020220401000000000NNM00020220329110647    4P0P  00002850000000444600000729832H2    HVYHV   006400630015
BI00B32H2    TIJ2043        202203287196-1466-02             TERMINAL MALE            CCN000142500000142500FY00014250020220401000000000NNM00020220329110647    4P0P  00002850000000427500000712732H2    HVYHV   006400630015
BI00B32H2    TIJ2043        202203287196-1481-02             TERMINAL FEMALE          CCN000312000000312000FY00031200020220401000000000NNM00020220329110647    4P0P  00002400000000422400000707632H2    HVYHV   006400630015
BI00B32H2    TIJ2043        202203287196-1934-02             TERMINAL FEMALE          CCN000058500000058500FY00005850020220401000000000NNM00020220329110647    4P0P  00001950000000561600000846832H2    HVYHV   006400630015
BI00B32H2    TIJ2043        202203287196-1936-02             TERMINAL FEMALE          CCN000081000000081000FY00008100020220401000000000NNM00020220329110647    4P0P  00001350000000441500000726732H2    HVYHV   006400630015
BI00B32H2    TIJ2043        202203287196-1939-02             TERMINAL FEMALE          CCN000015000000015000FY00001500020220401000000000NNM00020220329110647    4P0P  00001500000000574500000862732H2    HVYHV   006400630015
BI00B32H2    TIJ2043        202203287196-1941-02             TERMINAL FEMALE          CCN000022800000022800FY00002280020220401000000000NNM00020220329110647    4P0P  00001140000000506200000794432H2    HVYHV   006400630015
BI00B32H2    TIJ2043        202203287273-2982-0W             CASSETTE BRACKET         CCN000000600000000600FY00000060020220401000000000NNM00020220329110647    4N0N  00000060000000526000000726032H2    HVYHV   005500360039
BI00B32H2    TIJ2043        202203287282-0517                HOUSING MALE ASS'Y       CCN000010800000010800FY00001080020220401000000000NNM00020220329110647    4N0N  00000036000000612000000832032H2    HVYHV   005600390040
BI00B32H2    TIJ2043        202203287282-1024                HOUSING MALE             CCN000002000000002000FY00000200020220401000000000NNM00020220329110647    1N0N  00000100000000458000000580532H2    HVYHV   005400370024
BI00B32H2    TIJ2043        202203287282-4576                HOUSING MALE ASS'Y       CCN000009600000009600FY00000960020220401000000000NNM00020220329110647    4N0N  00000240000000808800001028832H2    HVYHV   005500360039
BI00B32H2    TIJ2043        202203287283-1222                CONNECTOR                CCN000003600000003600FY00000360020220401000000000NNM00020220329110647    4N0N  00000120000000852000001011032H2    HVYHV   005500360039
BI00B32H2    TIJ2043        202203287283-1289-40             CONNECTOR HOUSING        CCN000006000000006000FY00000600020220401000000000NNM00020220329110647    1N0N  00000060000000679800000824832H2    HVYHV   005400370024
BI00B32H2    TIJ2043        202203287283-1927-30             CONNECTOR                CCN000002000000002000FY00000200020220401000000000NNM00020220329110647    4N0N  00000200000001190000001368032H2    HVYHV   005500360039
BI00B32H2    TIJ2043        202203287283-4576                HOUSING FEMALE ASS'Y     CCN000091200000091200FY00009120020220401000000000NNM00020220329110647    4N0N  00000480000000651300000871332H2    HVYHV   005500360039
BI00B32H2    TIJ2043        202203287283-4576-30             HOUSING FEMALE ASS'Y     CCN000009600000009600FY00000960020220401000000000NNM00020220329110647    4N0N  00000480000000651300000871332H2    HVYHV   005500360039
BI00B32H2    TIJ2043        202203287283-4577                CONNECTOR HOUSING        CCN000004800000004800FY00000480020220401000000000NNM00020220329110647    4N0N  00000480000000916800001136832H2    HVYHV   005500360039
BI00B32H2    TIJ2043        202203287283-5845                CONNECTOR HOUSING        CCN000036000000036000FY00003600020220401000000000NNM00020220329110647    1N0N  00000600000000444000000606332H2    HVYHV   005400370024
BI00B32H2    TIJ2043        202203287283-5845-30             CONNECTOR HOUSING        CCN000012000000012000FY00001200020220401000000000NNM00020220329110647    1N0N  00000600000000444000000606332H2    HVYHV   005400370024
BI00B32H2    TIJ2043        202203287283-7029-40             CONNECTOR                CCN000012000000012000FY00001200020220401000000000NNM00020220329110647    1N0N  00000600000001026000001200032H2    HVYHV   005600390023
BI00B32H2    TIJ2043        202203287286-1899                HOUSING SUB ASSEMBLY     CCN000005712000005712FY00000571220220401000000000NNM00020220329110647    4N0N  00000033600000814800001010832H2    HVYHV   005400370024
BI00B32H2    TIJ2043        202203287286-1900                CONNECTOR HOUSING        CCN000019200000019200FY00001920020220401000000000NNM00020220329110647    4N0N  00000480000001161600001376632H2    HVYHV   005500360039
BI00B32H2    TIJ2043        202203287287-1915                CONNECTOR ASS'Y          CCN000009600000009600FY00000960020220401000000000NNM00020220329110647    4N0N  00000240000000666500000923132H2    HVYHV   005500360039
BI00B32H2    TIJ2043        202203287287-1915-90             CONNECTOR ASS'Y          CCN000002400000002400FY00000240020220401000000000NNM00020220329110647    4N0N  00000240000000666500000923132H2    HVYHV   005500360039
BI00B32H2    TIJ2043        202203287287-3885                HYBRID FEMALE ASS'Y      CCN000009600000009600FY00000960020220401000000000NNM00020220329110647    1N0N  00000240000001029600001249632H2    HVYHV   005500360039
BI00B32H2    TIJ2043        202203287287-7599                HOUSING FEMALE ASS'Y     CCN000008000000008000FY00000800020220401000000000NNM00020220329110647    4N0N  00000160000001233600001445632H2    HVYHV   005500360039
BI00B32H2    TIJ2043        202203287287-8999                HOUSING FEMALE ASS'Y     CCN000004800000004800FY00000480020220401000000000NNM00020220329110647    1N0N  00000480000001228800001448832H2    HVYHV   005500360039
BI00B32H2    TIJ2043        202203287288-3206                HOUSING MALE ASS'Y       CCN000001020000001020FY00000102020220401000000000NNM00020220329110647    1N0N  00000102000000387600000787632H2    HVYHV   005500360039
BI00B32H2    TIJ2043        202203287289-6547                HOUSING FEMALE ASS'Y     CCN000004800000004800FY00000480020220401000000000NNM00020220329110709    1N0N  00000240000001152000001362032H2    HVYHV   005500360039
BI00B32H2    TIJ2043        202203287298-1869-30             HOUSING FEMALE ASS'Y     CCN000001200000001200FY00000120020220401000000000NNM00020220329110647    4N0N  00000120000000737000000939832H2    HVYHV   005500360039
BI00B32H2    TIJ2043        202203287298-2278-30             HOUSING FEMALE ASS'Y     CCN000007200000007200FY00000720020220401000000000NNM00020220329110647    4N0N  00000240000001091700001295432H2    HVYHV   005500360039
BI00B32H2    TIJ2043        202203287298-2509-30             HOUSING FEMALE ASS'Y     CCN000002400000002400FY00000240020220401000000000NNM00020220329110647    4N0N  00000120000000857500001062532H2    HVYHV   005500360039
BI00B32H2    TIJ2043        202203287382-7524-40             JOINT CONNECTOR          CCN000004800000004800FY00000480020220401000000000NNM00020220329110647    4N0N  00000120000000943200001056732H2    HVYHV   005400370024
BI00B32H2    TIJ2043        202203287386-2747                CONNECTOR ASS'Y          CCN000004000000004000FY00000400020220401000000000NNM00020220329110647    4N0N  00000200000001162000001284532H2    HVYHV   005400370024
BI00B32H2    TIJ2043        202203287386-9155                CONNECTOR MALE ASS'Y     CCN000000600000000600FY00000060020220401000000000NNM00020220329110647    4N0N  00000060000001244400001369932H2    HVYHV   005400370024
BI00B32H2    TIJ2043        202203287388-2978-30             HOUSING MALE ASS'Y       CCN000000480000000480FY00000048020220401000000000NNM00020220329110647    1N0N  00000048000000742000001122032H2    HVYHV   005500360039
BI00B32H2    TIJ2043        202203287470-5304                J/B COMPLETE ASS'Y       CCN000000540000000540FY00000054020220401000000000NNM00020220329110647    4J0J  00000001000000494000000661032H2    HVYHV   005400370024
BI00B32H2    TIJ2043        202203287470-5654                J/B COMPLETE ASS'Y       CCN000000050000000050FY00000005020220401000000000NNM00020220329110647    4J0J  00000001000000494000000661032H2    HVYHV   005400370024
BI00A32H2    TIJ204M        202204087116-2891-02             TERMINAL                 CCN000015000000015000FN00000000020220401000015000NNE   20220329170634    4P0P  00001500000000982500001145932H2    HVYHV   005100280028
BI00A32H2    TIJ204M        202204087116-4231-02             TERMINAL                 CCN000026000000026000FN00000000020220401000026000NNE   20220329170634    4P0P  00002600000000683800001012532H2    HVYHV   006400630017
BI00A32H2    TIJ204M        202204087289-6597-70             HOUSING FEMALE ASS'Y     CCN000002160000002160FN00000000020220401000002160NNE   20220329170634    4N0N  00000216000001289500001539532H2    HVYHV   005500360039
BI00A32H2    #TIJ204M       202204087183-0522                HOUSING                  CCN000004800000004800FN00000000020220401000004800NNE   20220329170634    2F0F  00000240000000951000001230032H2    HVYHV   005500360039
BI00A32H2    TIJ205N        202205047282-4578                HOUSING MALE ASS'Y       CCN000006000000006000FN00000000020220501000006000NNE   20220329170634    4N0N  00000120000000782600000992632H2    HVYHV   005500360039
BI00A32H2    TIJ205N        202205047283-4855                CONNECTOR HOUSING        CCN000009600000009600FN00000000020220501000009600NNE   20220329170634    4N0N  00000240000001188400001400032H2    HVYHV   005500360039
BI00B32K8    #K1220010667   202205067137-2200                CONNECTOR PACKING        CCN000024000000025000FN00000000020220601000025000NNM   20220329170634    2C0C  00000500000000136000000211332K8    ELELCOM 004300270014
BI00B32K8    #K1220010667   202205067137-2717-50             SEALED CONNECTOR         CCN000016000000016000FN00000000020220601000016000NNM   20220329170634    2C0C  00000400000000212800000284032K8    ELELCOM 002700430014
BI00B32K8    #K1220010667   202205067137-2718-50             SEALED CONNECTOR         CCN000016000000016000FN00000000020220601000016000NNM   20220329170634    2C0C  00000100000000118300000236632K8    ELELCOM 002700430014
BI00B32M3    SM2205A MW     202204077283-7526-30             CONNECTOR HOUSING        CCN000003920000003920FN00000000020220501000003920NNED0020220329170634    4N0N  00000196000000989800001248632M3    SASAMI  005500360039
BI00A32N3    #NBT205 B      202203317172-5629-80             RUBBER STOPPER           PCN000020000000020000FN00000000020220401000020000NNEM0020220329170634    2H0H  00002000000000060000000111132N3    ABYIPL-B004300270014
BI00B32P8    #TAPI-2053     202204127158-3008-80             RUBBER STOPPER           CCN000080000000080000FN00000000020220501000080000NNM00020220329170634    2C0C  00002000000000288000000343032P8    YIYTM   004300270014
BI00B32Q8    EU2205ETMW     202205257288-3338-30             HOUSING MALE             CCN000001500000001500FN00000000020220501000001500NNED0420220329170634    4N0N  00000150000000866100001012032Q8    EMEMI   005400370024
BI00B32R7    R-TAP220149    202204217158-3167-80             WIRE SEAL                CCN000300000000300000FN00000000020220501000300000NNE   20220329170634    1C0C  00002000000000048000000109032R7    IVYCIC  002700430014
BI00B32U5    DI2023         202205067289-3342                HOUSING FEMALE ASS'Y     CCN000016800000016800FN00000000020220701000016800NNMD0020220329170634U5  1N0N  00000240000000686400000901432U5    AMAMSD  005500360039
BI00A32U5    DI2016B        202204117288-3330-30             HOUSING MALE             CCN000003000000003000FN00000000020220401000003000NNED0720220329170634U5  4N0N  00000150000000866300001011232U5    AMAMSD  005400370024
BI00A32U5    #DI2016B       202204077183-8252-40             HOUSING                  CCN000019200000019200FN00000000020220401000019200NNED0720220329170634U5  2F0F  00000240000000454000000729032U5    AMAMSD  005500360039
BI00A32U5    DI2016C        202204117116-5046-02             TERMINAL                 CCN000084000000084000FN00000000020220401000084000NNED0720220329170634U5  4P0P  00001200000000544800000873532U5    AMAMSD  006400630017
BI00A32U5    #DI2016C       202204077289-4200-30             HOUSING FEMALE ASS'Y     CCN000016000000016000FN00000000020220401000016000NNED0720220329170634U5  2N0N  00000200000000926000001021032U5    AMAMSD  005400370024
BI00B32W2    HN2204DWMW     202203307298-1853-10             HOUSING FEMALE ASS'Y     CCN000003900000003900FN00000000020220401000003900NNED0720220329170634    4N00  00000390000001240500001405832W2    HNHNY   005400370024
BI00B32W4    4500188134     202204217288-6547                CONNECTOR MALE ASS'Y     CCN000012000000010500FN00000000020220301000010500NNED0420220329170634W4164N0N  00000075000001205300001340332W416  HJYHK   005400370024
BI00B32W4    4500188262     202207077158-3167-80             WIRE SEAL                CCN002000000001000000FN00000000020220601001000000NNED0420220329170634W4561C0C  00002000000000048000000109032W456  HJYHK   002700430014
BI00B32W4    4500188606     202204287288-6547                CONNECTOR MALE ASS'Y     CCN000013500000013500FN00000000020220301000013500NNED0420220329170634W4164N0N  00000075000001205300001340332W416  HJYHK   005400370024
BI00B32W4    4500188607     202205057288-6547                CONNECTOR MALE ASS'Y     CCN000009000000009000FN00000000020220401000009000NNED0420220329170634W4164N0N  00000075000001205300001340332W416  HJYHK   005400370024
BI00B32W4    4500189022     202205057288-6547                CONNECTOR MALE ASS'Y     CCN000006000000006000FN00000000020220401000006000NNED0420220329170634W4164N0N  00000075000001205300001340332W416  HJYHK   005400370024
BI00B32W4    4500189400     202205127288-6547                CONNECTOR MALE ASS'Y     CCN000015000000015000FN00000000020220401000015000NNED0420220329170634W4164N0N  00000075000001205300001340332W416  HJYHK   005400370024
BI00B32W4    4500189564     202205197288-6547                CONNECTOR MALE ASS'Y     CCN000003000000003000FN00000000020220401000003000NNED0420220329170634W4D44N0N  00000075000001205300001340332W4D4  HJYHK-J 005400370024
BI00B32W4    4500189789     202205197288-6547                CONNECTOR MALE ASS'Y     CCN000024750000012000FN00000000020220401000012000NNED0420220329170634W4164N0N  00000075000001205300001340332W416  HJYHK   005400370024
BI00B32W4    4500189934     202205317116-1180                TERMINAL                 CCN000019500000019500FN00000000020220401000019500NNED0020220329170634W41 1P0P  00001950000000618200000903432W41   HJYHK   006400630015
BI00B32W4    4500190398     202205267288-6547                CONNECTOR MALE ASS'Y     CCN000012750000002250FN00000000020220501000002250NNED0420220329170634W4164N0N  00000075000001205300001340332W416  HJYHK   005400370024
BI00B32W4    4500190486     202205317116-1180                TERMINAL                 CCN000117000000117000FN00000000020220501000117000NNED0020220329170634W41 1P0P  00001950000000618200000903432W41   HJYHK   006400630015
BI00B32W4    4500190578     202206027288-6547                CONNECTOR MALE ASS'Y     CCN000012750000004500FN00000000020220501000004500NNED0420220329170634W4164N0N  00000075000001205300001340332W416  HJYHK   005400370024
BI00A32W4    4500190919     202204057116-4100-02             TERMINAL                 CCN000015000000015000FN00000000020220501000015000NNED0020220329170634W4M54P0P  00001500000000696000000990232W4M5  HJYHK-J 006400630015
BI00A32W4    4500190919     202204057116-4101-02             TERMINAL                 CCN000012000000012000FN00000000020220501000012000NNED0020220329170634W4M54P0P  00001200000000582000000876232W4M5  HJYHK-J 006400630015
BI00B32W4    4500191092     202206097288-6547                CONNECTOR MALE ASS'Y     CCN000012750000006750FN00000000020220501000006750NNED0420220329170634W4164N0N  00000075000001205300001340332W416  HJYHK   005400370024
BI00B32W4    4500191375     202207217283-1020                CONNECTOR                CCN000012000000012000FN00000000020220501000012000NNED0420220329170634W4164N0N  00000600000000840000001049332W416  HJYHK   005600390040
BI00B32W4    4500191375     202206167288-6547                CONNECTOR MALE ASS'Y     CCN000010500000009000FN00000000020220501000009000NNED0420220329170634W4164N0N  00000075000001205300001340332W416  HJYHK   005400370024
BI00B32W4    4500191494     202206237288-6547                CONNECTOR MALE ASS'Y     CCN000003000000003000FN00000000020220501000003000NNED0420220329170634W4D44N0N  00000075000001205300001340332W4D4  HJYHK-J 005400370024
BI00B32W4    4500191536     202207147289-4696-30             HOUSING FEMALE ASS'Y     CCN000010000000010000FN00000000020220701000010000NNE   20220329170634W4284N0N  00000200000000913400001055432W428  HJYHK   005400370024
BI00B32W4    4500191537     202209157288-9556-30             SEALED ASSY MALE         CCN000109440000109440FN00000000020220901000109440NNE   20220329170634W4O14N0N  00000072000000537900000786332W4O1  HJYHK-J 005500360039
BI00B32W4    #4500191554    202206097282-8395-40             CONNECTOR                CCN000040000000040000FN00000000020220601000040000NNE   20220329170634W9172N0N  00000100000001009000001188032W917  HJYHK   005500360039
BI00B32W4    @4500191554    202206097183-8049                CONNECTOR HOUSING        CCN000160000000160000FN00000000020220601000160000NNE   20220329170634W9173F0F  00000400000000583600000740032W917  HJYHK   005400370024
BI00B32W4    4500191556     202205037158-3167-80             WIRE SEAL                CCN000020000000020000FN00000000020220501000020000NNE   20220329170634W41 1C0C  00002000000000048000000109032W41   HJYHK   002700430014
BI00B32W4    4500191558     202205177158-3167-80             WIRE SEAL                CCN000100000000100000FN00000000020220501000100000NNE   20220329170634W41 1C0C  00002000000000048000000109032W41   HJYHK   002700430014
BI00A32W4    #4500191562    202205097282-2090-30             CONNECTOR MALE ASS'Y     CCN000002400000002400FN00000000020220501000002400NNE   20220329170634W44 2N0N  00000240000000794000001073032W44   HJYHK   005500360039
BI00B32W4    4500191590     202204197158-3006-90             RUBBER STOPPER           CCN000020000000020000FN00000000020220401000020000NNE   20220329170634W42 1C0C  00002000000000330600000386032W42   HJYHK   002700430014
BI00B32W4    #4500191590    202204197157-7811-80             SEAL RUBBER              CCN000010000000010000FN00000000020220401000010000NNE   20220329170634W42 2C0C  00001000000000105000000182732W42   HJYHK   002700430014
BI00B32W4    #4500191590    202204197157-7812                SEAL RUBBER              CCN000010000000010000FN00000000020220401000010000NNE   20220329170634W42 2C0C  00001000000000137000000202032W42   HJYHK   002700430014
BI00A32W4    4500191591     202205137283-1020                CONNECTOR                CCN000006000000006000FN00000000020220501000006000NNE   20220329170634W4L74N0N  00000600000000840000001049332W4L7  HJYHK-J 005600390040
BI00A32W4    #4500191605    202206067186-8845                HOUSING MALE             CCN000003000000003000FN00000000020220601000003000NNE   20220329170634W4M52F0F  00000300000000690000000801532W4M5  HJYHK-J 005400370024
BI00B32W4    4500191606     202206097116-4100-02             TERMINAL                 CCN000015000000015000FN00000000020220601000015000NNE   20220329170634W48 4P0P  00001500000000696000000990232W48   HJYHK   006400630015
BI00A32W4    4500191610     202205307158-3167-80             WIRE SEAL                CCN000040000000040000FN00000000020220501000040000NNE   20220329170634W4G91C0C  00002000000000048000000109032W4G9  HJYHK-J 002700430014
BI00B32W4    4500188134     202204287288-6547                CONNECTOR MALE ASS'Y     CCN000001500000001500FN00000000020220301000001500NNED0420220329170634W4164N0N  00000075000001205300001340332W416  HJYHK   005400370024
BI00B32W4    4500189789     202205267288-6547                CONNECTOR MALE ASS'Y     CCN000012750000012750FN00000000020220401000012750NNED0420220329170634W4164N0N  00000075000001205300001340332W416  HJYHK   005400370024
BI00B32W4    4500190398     202206027288-6547                CONNECTOR MALE ASS'Y     CCN000010500000010500FN00000000020220501000010500NNED0420220329170634W4164N0N  00000075000001205300001340332W416  HJYHK   005400370024
BI00B32W4    4500190578     202206097288-6547                CONNECTOR MALE ASS'Y     CCN000008250000008250FN00000000020220501000008250NNED0420220329170634W4164N0N  00000075000001205300001340332W416  HJYHK   005400370024
BI00B32W4    4500191092     202206167288-6547                CONNECTOR MALE ASS'Y     CCN000006000000006000FN00000000020220501000006000NNED0420220329170634W4164N0N  00000075000001205300001340332W416  HJYHK   005400370024
BI00B32W4    4500191375     202206237288-6547                CONNECTOR MALE ASS'Y     CCN000001500000001500FN00000000020220501000001500NNED0420220329170634W4164N0N  00000075000001205300001340332W416  HJYHK   005400370024
BI00B32W4    4500188262     202207147158-3167-80             WIRE SEAL                CCN001000000001000000FN00000000020220601001000000NNED0420220329170634W4561C0C  00002000000000048000000109032W456  HJYHK   002700430014
BI00B32W9    4500191376     202204197283-7028-30             CONNECTOR                CCN000069000000033000FN00000000020220401000033000NNEQ0420220329170634W9  4N0N  00000300000001452000001681332W9    HKYHK   005600390040
BI00B32W9    #4500191523    202204267283-8398-40             CONNECTOR                CCN000021560000021560FN00000000020220401000021560NNE   20220329170634W9  2N0N  00000154000001007000001171332W9    HKYHK   005600390023
BI00B32W9    4500191608     202204197283-7028-30             CONNECTOR                CCN000036000000036000FN00000000020220401000036000NNED0720220329170634W9  4N0N  00000300000001452000001681332W9    HKYHK   005600390040
BI00B32W9    #4500191608    202204197283-8397-40             CONNECTOR                CCN000001540000001540FN00000000020220401000001540NNED0720220329170634W9  2N0N  00000154000001007000001222732W9    HKYHK   005600390023
BI00B32W9    4500191618     202204267116-4100-02             TERMINAL                 CCN000030000000030000FN00000000020220401000030000NNE   20220329170634W9  4P0P  00001500000000696000000990232W9    HKYHK   006400630015
BI00B32W9    4500191621     202205107116-4100-02             TERMINAL                 CCN000015000000015000FN00000000020220501000015000NNE   20220329170634W9  4P0P  00001500000000696000000990232W9    HKYHK   006400630015
BI00B32W9    4500191626     202204267289-3342-90             HOUSING FEMALE ASS'Y     CCN000100800000100800FN00000000020220401000100800NNE   20220329170634W9  1N0N  00000240000000686400000901432W9    HKYHK   005500360039
BI00B32W9    4500191626     202204267289-3342-40             HOUSING FEMALE ASS'Y     CCN000079200000079200FN00000000020220401000079200NNE   20220329170634W9  1N0N  00000240000000686400000901432W9    HKYHK   005500360039
BI00B32W9    4500191376     202204267283-7028-30             CONNECTOR                CCN000036000000036000FN00000000020220401000036000NNED0420220329170634W9  4N0N  00000300000001452000001681332W9    HKYHK   005600390040
BI00B32X5    TIB2023        202205067289-3342                HOUSING FEMALE ASS'Y     CCN000009600000009600FN00000000020220701000009600NNMD0020220329170634X5  1N0N  00000240000000686400000901432X5    EPYNA-E 005500360039
BI00B32X5    TIB2023        202205067289-3342-30             HOUSING FEMALE ASS'Y     CCN000052800000052800FN00000000020220701000052800NNMD0020220329170634X5  1N0N  00000240000000686400000901432X5    EPYNA-E 005500360039
BI00B32X5    TIB2023        202205067289-3342-40             HOUSING FEMALE ASS'Y     CCN000012000000012000FN00000000020220701000012000NNMD0020220329170634X5  1N0N  00000240000000686400000901432X5    EPYNA-E 005500360039
BI00A32X5    TIB2016B       202204117116-5046-02             TERMINAL                 CCN000060000000060000FN00000000020220401000060000NNED0720220329170634X5  4P0P  00001200000000544800000873532X5    EPYNA-E 006400630017
BI00A32X5    #TIB2016B      202204077158-3007-10             RUBBER STOPPER           CCN000120000000120000FN00000000020220401000120000NNED0720220329170634X5  2H0H  00002000000000308000000362732X5    EPYNA-E 002700430014
BI00A32X5    #TIB2016B      202204077158-3008-80             RUBBER STOPPER           CCN000100000000100000FN00000000020220401000100000NNED0720220329170634X5  2C0C  00002000000000288000000343032X5    EPYNA-E 004300270014
