BI00B32BF    TT22061KMW     2022041918007703745              AVSS 0.3F W/R            CCN000002000000000000FY00000000020220601000000000NNM10 20220329162243    1W    00000200000000496000000000032BF    TTTJY   000000000000NK124010
BI00A32B6    @W72016A       20220401181B09039H7              CAVSAS 0.5X1 GY/W        CCN000003200000003200FN00000000020220401000003200NNE   20220329153131B6  1W    00000040000002263300000000032B6    AXARNE-M000000000000AR123001
BI00B32DE    TT203D         20220303180D0203960              AVSSH 0.5F G             CCN000033000000033000FY00003300020220301000000000NNE00 20220329080919    1W    00000150000000689000000000032DE    TVYEV-TV000000000000VV322045
BI00B32DE    TT203D         20220303180D0203963              AVSSH 0.5F G/B           CCN000003000000003000FY00000300020220301000000000NNE00 20220329081011    1W    00000150000000689000000000032DE    TVYEV-TV000000000000VV322046
BI00B32DE    @TT2054        20220505181E50003ZZ              AVSSCS-S 0.3FX2 DGY/BR   CCN000023800000000000FY00000000020220501000000000NNM11 20220329173654    1W    00000035000002165000000000032DE    TVYEV-TV000000000000VT324026
BI00B32DE    @TT2054        20220505181E50005ZZ              AVSSCS-S 0.5FX1 DGY/W    CCN000001600000000000FY00000000020220501000000000NNM11 20220329173654    1W    00000040000001909700000000032DE    TVYEV-TV000000000000VT324021
BI00B32DE    @TT2054        20220505181F21009ZZ              AVSSHCS-S 0.5FX2 B       CCN000006000000000000FY00000000020220501000000000NNM11 20220329173654    1W    00000030000002531400000000032DE    TVYEV-TV000000000000VT324029
BI00B32DE    @TT2054        20220505181F21014ZZ              AVSSHCS-S 0.5FX2 B/L     CCN000002100000000000FY00000000020220501000000000NNM11 20220329173654    1W    00000030000002531400000000032DE    TVYEV-TV000000000000VT324031
BI00B32DE    @TT2054        20220505181F21016ZZ              AVSSHCS-S 0.5FX2 B/BR    CCN000003000000000000FY00000000020220501000000000NNM11 20220329173654    1W    00000030000002531400000000032DE    TVYEV-TV000000000000VT324030
BI00B32DE    @TT2054        20220505181F21027ZZ              AVSSHCS-S 1.25FX2 B      CCN000002200000000000FY00000000020220501000000000NNM11 20220329173654    1W    00000020000004267300000000032DE    TVYEV-TV000000000000VT324035
BI00B32DE    @TT2054        20220505181AD2002ZZ              CIVUSAS-S 0.35X2 B       CCN000008550000000000FY00000000020220501000000000NNM11 20220329173654    1W    00000045000001713700000000032DE    TVYEV-TV000000000000VT324016
BI00B32DE    @TT2054        20220505181AD2003ZZ              CIVUSAS-S 0.35X3 B       CCN000006650000000000FY00000000020220501000000000NNM11 20220329173654    1W    00000035000002172100000000032DE    TVYEV-TV000000000000VT324017
BI00B32DE    @TT2054        20220505181AD2004ZZ              CIVUSAS-S 0.35X4 B       CCN000004800000000000FY00000000020220501000000000NNM11 20220329173654    1W    00000030000002799900000000032DE    TVYEV-TV000000000000VT324018
BI00B32DE    TT203D         20220331180D0203960              AVSSH 0.5F G             CCN000001500000001500FN00000000020220301000001500NNE30 20220329122644    1W    00000150000000689000000000032DE    TVYEV-TV000000000000VV322045
BI00B32DE    TT203D         20220331180D0203963              AVSSH 0.5F G/B           CCN000001500000001500FN00000000020220301000001500NNE30 20220329122644    1W    00000150000000689000000000032DE    TVYEV-TV000000000000VV322046
BI00B32W4    4500189933     2022053118018403951              CAVS 0.5 O               CCN000009000000009000FN00000000020220401000009000NNE20 20220329152904W41 1W    00000150000000677000000000032W41   HJYHK-J 000000000000OJ224003
BI00B32W4    4500189933     2022053118018403952              CAVS 0.5 P               CCN000006000000006000FN00000000020220401000006000NNE20 20220329152904W41 1W    00000150000000677000000000032W41   HJYHK-J 000000000000OJ224004
BI00B32W4    4500189933     2022053118018403990              CAVS 0.5 L               CCN000010500000010500FN00000000020220401000010500NNE20 20220329152904W41 1W    00000150000000677000000000032W41   HJYHK-J 000000000000OJ224002
BI00B32W4    4500189933     2022053118018404040              CAVS 0.85 W              CCN000007000000007000FN00000000020220401000007000NNE20 20220329152904W41 1W    00000100000000965000000000032W41   HJYHK-J 000000000000OJ224012
BI00B32W4    4500189933     2022053118018404041              CAVS 0.85 GY             CCN000014000000014000FN00000000020220401000014000NNE20 20220329152904W41 1W    00000100000000965000000000032W41   HJYHK-J 000000000000OJ224007
BI00B32W4    4500189933     2022053118018404051              CAVS 0.85 O              CCN000003000000003000FN00000000020220401000003000NNE20 20220329152904W41 1W    00000100000000965000000000032W41   HJYHK-J 000000000000OJ224009
BI00B32W4    4500189933     2022053118018404052              CAVS 0.85 P              CCN000002000000002000FN00000000020220401000002000NNE20 20220329152904W41 1W    00000100000000965000000000032W41   HJYHK-J 000000000000OJ224010
BI00B32W4    4500189933     2022053118018404061              CAVS 0.85 LG             CCN000003000000003000FN00000000020220401000003000NNE20 20220329152904W41 1W    00000100000000965000000000032W41   HJYHK-J 000000000000OJ224008
BI00B32W4    4500190473     2022053118018404030              CAVS 0.85 B              CCN000008000000008000FN00000000020220401000008000NNE20 20220329153031W41 1W    00000100000000965000000000032W41   HJYHK-J 000000000000OM224001
BI00B32W4    4500190473     2022053118018404040              CAVS 0.85 W              CCN000003000000003000FN00000000020220401000003000NNE20 20220329153031W41 1W    00000100000000965000000000032W41   HJYHK-J 000000000000OM224006
BI00B32W4    4500190473     2022053118018404041              CAVS 0.85 GY             CCN000006000000006000FN00000000020220401000006000NNE20 20220329153031W41 1W    00000100000000965000000000032W41   HJYHK-J 000000000000OM224003
BI00B32W4    4500190485     2022053118018403740              CAVS 0.3 W               CCN000010000000010000FN00000000020220501000010000NNE20 20220329153452W41 1W    00000200000000471000000000032W41   HJYHK-J 000000000000OS324010
BI00B32W4    4500190485     2022053118018403752              CAVS 0.3 P               CCN000002000000002000FN00000000020220501000002000NNE20 20220329153452W41 1W    00000200000000471000000000032W41   HJYHK-J 000000000000OS324009
BI00B32W4    4500190485     2022050318018403760              CAVS 0.3 G               CCN000040000000004000FN00000000020220501000004000NNE21 20220329160843W41 1W    00000200000000471000000000032W41   HJYHK-J 000000000000OS324008
BI00B32W4    4500190485     2022053118018403951              CAVS 0.5 O               CCN000034500000034500FN00000000020220501000034500NNE20 20220329153452W41 1W    00000150000000677000000000032W41   HJYHK-J 000000000000OS324013
BI00B32W4    4500190485     2022053118018403952              CAVS 0.5 P               CCN000090000000090000FN00000000020220501000090000NNE20 20220329153452W41 1W    00000150000000677000000000032W41   HJYHK-J 000000000000OS324014
BI00B32W4    4500190485     2022053118018403970              CAVS 0.5 Y               CCN000034500000034500FN00000000020220501000034500NNE20 20220329153452W41 1W    00000150000000677000000000032W41   HJYHK-J 000000000000OS324017
BI00B32W4    4500190485     2022053118018403980              CAVS 0.5 BR              CCN000024000000024000FN00000000020220501000024000NNE20 20220329153452W41 1W    00000150000000677000000000032W41   HJYHK-J 000000000000OS324011
BI00B32W4    4500190485     2022053118018403990              CAVS 0.5 L               CCN000097500000097500FN00000000020220501000097500NNE20 20220329153452W41 1W    00000150000000677000000000032W41   HJYHK-J 000000000000OS324012
BI00B32W4    4500190485     2022050318018404030              CAVS 0.85 B              CCN000075000000003000FN00000000020220501000003000NNE00 20220329153534W41 1W    00000100000000965000000000032W41   HJYHK-J 000000000000OS324018
BI00B32W4    4500190485     2022050318018404040              CAVS 0.85 W              CCN000055000000008000FN00000000020220501000008000NNE00 20220329153622W41 1W    00000100000000965000000000032W41   HJYHK-J 000000000000OS324028
BI00B32W4    4500190485     2022053118018404041              CAVS 0.85 GY             CCN000109000000109000FN00000000020220501000109000NNE20 20220329153452W41 1W    00000100000000965000000000032W41   HJYHK-J 000000000000OS324021
BI00B32W4    4500190485     2022050318018404050              CAVS 0.85 R              CCN000133000000009000FN00000000020220501000009000NNE00 20220329153703W41 1W    00000100000000965000000000032W41   HJYHK-J 000000000000OS324025
BI00B32W4    4500190485     2022053118018404051              CAVS 0.85 O              CCN000044000000044000FN00000000020220501000044000NNE20 20220329153452W41 1W    00000100000000965000000000032W41   HJYHK-J 000000000000OS324023
BI00B32W4    4500190485     2022053118018404052              CAVS 0.85 P              CCN000035000000035000FN00000000020220501000035000NNE20 20220329153452W41 1W    00000100000000965000000000032W41   HJYHK-J 000000000000OS324024
BI00B32W4    4500190485     2022050318018404060              CAVS 0.85 G              CCN000063000000015000FN00000000020220501000015000NNE00 20220329153745W41 1W    00000100000000965000000000032W41   HJYHK-J 000000000000OS324020
BI00B32W4    4500190485     2022053118018404061              CAVS 0.85 LG             CCN000005000000005000FN00000000020220501000005000NNE20 20220329153452W41 1W    00000100000000965000000000032W41   HJYHK-J 000000000000OS324022
BI00B32W4    4500190485     2022050318018404070              CAVS 0.85 Y              CCN000083000000010000FN00000000020220501000010000NNE00 20220329153837W41 1W    00000100000000965000000000032W41   HJYHK-J 000000000000OS324029
BI00B32W4    4500190485     2022053118018404080              CAVS 0.85 BR             CCN000044000000044000FN00000000020220501000044000NNE20 20220329153452W41 1W    00000100000000965000000000032W41   HJYHK-J 000000000000OS324019
BI00B32W4    4500190485     2022050318018404091              CAVS 0.85 SB             CCN000074000000044000FN00000000020220501000044000NNE00 20220329153924W41 1W    00000100000000965000000000032W41   HJYHK-J 000000000000OS324026
BI00B32W4    4500190485     2022050318018404092              CAVS 0.85 V              CCN000028000000008000FN00000000020220501000008000NNE00 20220329154009W41 1W    00000100000000965000000000032W41   HJYHK-J 000000000000OS324027
BI00B32W4    4500191589     2022041918009603930              AVS 0.5 B                CCN000002000000002000FN00000000020220401000002000NNE   20220329132852W42 1W    00000100000000850000000000032W42   HJYHK-J 000000000000OW124003
BI00B32W4    4500191589     2022041918009603960              AVS 0.5 G                CCN000001000000001000FN00000000020220401000001000NNE   20220329132852W42 1W    00000100000000850000000000032W42   HJYHK-J 000000000000OW124004
BI00B32W4    4500191589     2022041918009603965              AVS 0.5 G/R              CCN000001000000001000FN00000000020220401000001000NNE   20220329132852W42 1W    00000100000000850000000000032W42   HJYHK-J 000000000000OW124005
BI00B32W4    4500191589     2022041918009603990              AVS 0.5 L                CCN000001000000001000FN00000000020220401000001000NNE   20220329132852W42 1W    00000100000000850000000000032W42   HJYHK-J 000000000000OW124006
BI00B32W4    4500191589     2022041918009603950              AVS 0.5 R                CCN000001000000001000FN00000000020220401000001000NNE   20220329132852W42 1W    00000100000000850000000000032W42   HJYHK-J 000000000000OW124007
BI00B32W4    4500191589     2022041918009603940              AVS 0.5 W                CCN000001000000001000FN00000000020220401000001000NNE   20220329132852W42 1W    00000100000000850000000000032W42   HJYHK-J 000000000000OW124008
BI00B32W4    4500191589     2022041918009604030              AVS 0.85 B               CCN000003000000003000FN00000000020220401000003000NNE   20220329132852W42 1W    00000100000001167700000000032W42   HJYHK-J 000000000000OW124009
BI00B32W4    4500191589     2022041918009604060              AVS 0.85 G               CCN000002000000002000FN00000000020220401000002000NNE   20220329132852W42 1W    00000100000001167700000000032W42   HJYHK-J 000000000000OW124010
BI00B32W4    4500191589     2022041918009604041              AVS 0.85 GY              CCN000001000000001000FN00000000020220401000001000NNE   20220329132852W42 1W    00000100000001167700000000032W42   HJYHK-J 000000000000OW124011
BI00B32W4    4500191589     2022041918009604090              AVS 0.85 L               CCN000001000000001000FN00000000020220401000001000NNE   20220329132852W42 1W    00000100000001167700000000032W42   HJYHK-J 000000000000OW124012
BI00B32W4    4500191589     2022041918009604094              AVS 0.85 L/W             CCN000001000000001000FN00000000020220401000001000NNE   20220329132852W42 1W    00000100000001167700000000032W42   HJYHK-J 000000000000OW124013
BI00B32W4    4500191589     2022041918009604052              AVS 0.85 P               CCN000001000000001000FN00000000020220401000001000NNE   20220329132852W42 1W    00000100000001167700000000032W42   HJYHK-J 000000000000OW124014
BI00B32W4    4500191589     2022041918009604050              AVS 0.85 R               CCN000002000000002000FN00000000020220401000002000NNE   20220329132852W42 1W    00000100000001167700000000032W42   HJYHK-J 000000000000OW124015
BI00B32W4    4500191589     2022041918009604040              AVS 0.85 W               CCN000002000000002000FN00000000020220401000002000NNE   20220329132852W42 1W    00000100000001167700000000032W42   HJYHK-J 000000000000OW124016
BI00B32W4    4500191589     2022041918009604070              AVS 0.85 Y               CCN000001000000001000FN00000000020220401000001000NNE   20220329132852W42 1W    00000100000001167700000000032W42   HJYHK-J 000000000000OW124017
BI00B32W4    4500191589     2022041918009604130              AVS 1.25 B               CCN000000800000000800FN00000000020220401000000800NNE   20220329132852W42 1W    00000080000001643000000000032W42   HJYHK-J 000000000000OW124018
BI00B32W4    4500191589     2022041918009604153              AVS 1.25 R/B             CCN000000800000000800FN00000000020220401000000800NNE   20220329132852W42 1W    00000080000001643000000000032W42   HJYHK-J 000000000000OW124019
BI00B32W4    4500191589     2022041918009604230              AVS 2 B                  CCN000000500000000500FN00000000020220401000000500NNE   20220329132852W42 1W    00000050000002456500000000032W42   HJYHK-J 000000000000OW124020
BI00B32W4    4500191589     2022041918009604250              AVS 2 R                  CCN000000500000000500FN00000000020220401000000500NNE   20220329132852W42 1W    00000050000002456500000000032W42   HJYHK-J 000000000000OW124021
BI00B32W4    4500191589     2022041918009604330              AVS 3 B                  CCN000002400000002400FN00000000020220401000002400NNE   20220329132852W42 1W    00000040000003831600000000032W42   HJYHK-J 000000000000OW124022
BI00B32W4    4500191589     2022041918009604357              AVS 3 R/Y                CCN000000400000000400FN00000000020220401000000400NNE   20220329132852W42 1W    00000040000003831600000000032W42   HJYHK-J 000000000000OW124023
BI00B32W4    4500191589     2022041918007703930              AVSS 0.5F B              CCN000001500000001500FN00000000020220401000001500NNE   20220329132852W42 1W    00000150000000674000000000032W42   HJYHK-J 000000000000OW124001
BI00B32W4    4500191589     2022041918007704230              AVSS 2F B                CCN000002500000002500FN00000000020220401000002500NNE   20220329132852W42 1W    00000050000002126400000000032W42   HJYHK-J 000000000000OW124002
BI00B32W4    4500191589     2022041918018403730              CAVS 0.3 B               CCN000002000000002000FN00000000020220401000002000NNE   20220329132852W42 1W    00000200000000471000000000032W42   HJYHK-J 000000000000OW124024
BI00B32W4    4500191589     2022041918018403739              CAVS 0.3 B/L             CCN000002000000002000FN00000000020220401000002000NNE   20220329132852W42 1W    00000200000000471000000000032W42   HJYHK-J 000000000000OW124025
BI00B32W4    4500191589     2022041918018403751              CAVS 0.3 O               CCN000002000000002000FN00000000020220401000002000NNE   20220329132852W42 1W    00000200000000471000000000032W42   HJYHK-J 000000000000OW124026
BI00B32W4    4500191589     2022041918018403930              CAVS 0.5 B               CCN000006000000006000FN00000000020220401000006000NNE   20220329132852W42 1W    00000150000000677000000000032W42   HJYHK-J 000000000000OW124027
BI00B32W4    4500191589     2022041918018403939              CAVS 0.5 B/L             CCN000001500000001500FN00000000020220401000001500NNE   20220329132852W42 1W    00000150000000677000000000032W42   HJYHK-J 000000000000OW124028
BI00B32W4    4500191589     2022041918018403935              CAVS 0.5 B/R             CCN000001500000001500FN00000000020220401000001500NNE   20220329132852W42 1W    00000150000000677000000000032W42   HJYHK-J 000000000000OW124029
BI00B32W4    4500191589     2022041918018403934              CAVS 0.5 B/W             CCN000009000000009000FN00000000020220401000009000NNE   20220329132852W42 1W    00000150000000677000000000032W42   HJYHK-J 000000000000OW124030
BI00B32W4    4500191589     2022041918018403980              CAVS 0.5 BR              CCN000003000000003000FN00000000020220401000003000NNE   20220329132852W42 1W    00000150000000677000000000032W42   HJYHK-J 000000000000OW124031
BI00B32W4    4500191589     2022041918018403984              CAVS 0.5 BR/W            CCN000001500000001500FN00000000020220401000001500NNE   20220329132852W42 1W    00000150000000677000000000032W42   HJYHK-J 000000000000OW124032
BI00B32W4    4500191589     2022041918018403987              CAVS 0.5 BR/Y            CCN000003000000003000FN00000000020220401000003000NNE   20220329132852W42 1W    00000150000000677000000000032W42   HJYHK-J 000000000000OW124033
BI00B32W4    4500191589     2022041918018403960              CAVS 0.5 G               CCN000006000000006000FN00000000020220401000006000NNE   20220329132852W42 1W    00000150000000677000000000032W42   HJYHK-J 000000000000OW124034
BI00B32W4    4500191589     2022041918018403964              CAVS 0.5 G/W             CCN000003000000003000FN00000000020220401000003000NNE   20220329132852W42 1W    00000150000000677000000000032W42   HJYHK-J 000000000000OW124035
BI00B32W4    4500191589     2022041918018403990              CAVS 0.5 L               CCN000004500000004500FN00000000020220401000004500NNE   20220329132852W42 1W    00000150000000677000000000032W42   HJYHK-J 000000000000OW124036
BI00B32W4    4500191589     2022041918018403995              CAVS 0.5 L/R             CCN000001500000001500FN00000000020220401000001500NNE   20220329132852W42 1W    00000150000000677000000000032W42   HJYHK-J 000000000000OW124037
BI00B32W4    4500191589     2022041918018403994              CAVS 0.5 L/W             CCN000001500000001500FN00000000020220401000001500NNE   20220329132852W42 1W    00000150000000677000000000032W42   HJYHK-J 000000000000OW124038
BI00B32W4    4500191589     2022041918018403997              CAVS 0.5 L/Y             CCN000001500000001500FN00000000020220401000001500NNE   20220329132852W42 1W    00000150000000677000000000032W42   HJYHK-J 000000000000OW124039
BI00B32W4    4500191589     2022041918018403961              CAVS 0.5 LG              CCN000001500000001500FN00000000020220401000001500NNE   20220329132852W42 1W    00000150000000677000000000032W42   HJYHK-J 000000000000OW124040
BI00B32W4    4500191589     2022041918018403951              CAVS 0.5 O               CCN000001500000001500FN00000000020220401000001500NNE   20220329132852W42 1W    00000150000000677000000000032W42   HJYHK-J 000000000000OW124041
BI00B32W4    4500191589     2022041918018403952              CAVS 0.5 P               CCN000003000000003000FN00000000020220401000003000NNE   20220329132852W42 1W    00000150000000677000000000032W42   HJYHK-J 000000000000OW124042
BI00B32W4    4500191589     2022041918018403950              CAVS 0.5 R               CCN000003000000003000FN00000000020220401000003000NNE   20220329132852W42 1W    00000150000000677000000000032W42   HJYHK-J 000000000000OW124043
BI00B32W4    4500191589     2022041918018403956              CAVS 0.5 R/G             CCN000001500000001500FN00000000020220401000001500NNE   20220329132852W42 1W    00000150000000677000000000032W42   HJYHK-J 000000000000OW124044
BI00B32W4    4500191589     2022041918018403954              CAVS 0.5 R/W             CCN000004500000004500FN00000000020220401000004500NNE   20220329132852W42 1W    00000150000000677000000000032W42   HJYHK-J 000000000000OW124045
BI00B32W4    4500191589     2022041918018403957              CAVS 0.5 R/Y             CCN000001500000001500FN00000000020220401000001500NNE   20220329132852W42 1W    00000150000000677000000000032W42   HJYHK-J 000000000000OW124046
BI00B32W4    4500191589     2022041918018403992              CAVS 0.5 V               CCN000001500000001500FN00000000020220401000001500NNE   20220329132852W42 1W    00000150000000677000000000032W42   HJYHK-J 000000000000OW124047
BI00B32W4    4500191589     2022041918018403940              CAVS 0.5 W               CCN000003000000003000FN00000000020220401000003000NNE   20220329132852W42 1W    00000150000000677000000000032W42   HJYHK-J 000000000000OW124048
BI00B32W4    4500191589     2022041918018403943              CAVS 0.5 W/B             CCN000001500000001500FN00000000020220401000001500NNE   20220329132852W42 1W    00000150000000677000000000032W42   HJYHK-J 000000000000OW124049
BI00B32W4    4500191589     2022041918018403945              CAVS 0.5 W/R             CCN000001500000001500FN00000000020220401000001500NNE   20220329132852W42 1W    00000150000000677000000000032W42   HJYHK-J 000000000000OW124050
BI00B32W4    4500191589     2022041918018403970              CAVS 0.5 Y               CCN000003000000003000FN00000000020220401000003000NNE   20220329132852W42 1W    00000150000000677000000000032W42   HJYHK-J 000000000000OW124051
BI00B32W4    4500191589     2022041918018403975              CAVS 0.5 Y/R             CCN000003000000003000FN00000000020220401000003000NNE   20220329132852W42 1W    00000150000000677000000000032W42   HJYHK-J 000000000000OW124052
BI00B32W4    4500191589     2022041918018404030              CAVS 0.85 B              CCN000001000000001000FN00000000020220401000001000NNE   20220329132852W42 1W    00000100000000965000000000032W42   HJYHK-J 000000000000OW124053
BI00B32W4    4500191589     2022041918018404070              CAVS 0.85 Y              CCN000001000000001000FN00000000020220401000001000NNE   20220329132852W42 1W    00000100000000965000000000032W42   HJYHK-J 000000000000OW124054
BI00B32W4    4500191589     2022041918018404130              CAVS 1.25 B              CCN000003200000003200FN00000000020220401000003200NNE   20220329132852W42 1W    00000080000001378000000000032W42   HJYHK-J 000000000000OW124055
BI00B32W4    4500191589     2022041918018404160              CAVS 1.25 G              CCN000000800000000800FN00000000020220401000000800NNE   20220329132852W42 1W    00000080000001378000000000032W42   HJYHK-J 000000000000OW124056
BI00B32W4    4500191589     2022041918018404190              CAVS 1.25 L              CCN000002400000002400FN00000000020220401000002400NNE   20220329132852W42 1W    00000080000001378000000000032W42   HJYHK-J 000000000000OW124057
BI00B32W4    4500191589     2022041918018404150              CAVS 1.25 R              CCN000001600000001600FN00000000020220401000001600NNE   20220329132852W42 1W    00000080000001378000000000032W42   HJYHK-J 000000000000OW124058
BI00B32W4    4500191589     2022041918018404140              CAVS 1.25 W              CCN000000800000000800FN00000000020220401000000800NNE   20220329132852W42 1W    00000080000001378000000000032W42   HJYHK-J 000000000000OW124059
BI00B32W4    4500190485     2022053118018404030              CAVS 0.85 B              CCN000072000000072000FN00000000020220501000072000NNE20 20220329153534W41 1W    00000100000000965000000000032W41   HJYHK-J 000000000000OS324018
BI00B32W4    4500190485     2022053118018404040              CAVS 0.85 W              CCN000047000000047000FN00000000020220501000047000NNE20 20220329153622W41 1W    00000100000000965000000000032W41   HJYHK-J 000000000000OS324028
BI00B32W4    4500190485     2022053118018404050              CAVS 0.85 R              CCN000124000000124000FN00000000020220501000124000NNE20 20220329153703W41 1W    00000100000000965000000000032W41   HJYHK-J 000000000000OS324025
BI00B32W4    4500190485     2022053118018404060              CAVS 0.85 G              CCN000048000000048000FN00000000020220501000048000NNE20 20220329153745W41 1W    00000100000000965000000000032W41   HJYHK-J 000000000000OS324020
BI00B32W4    4500190485     2022053118018404070              CAVS 0.85 Y              CCN000073000000073000FN00000000020220501000073000NNE20 20220329153837W41 1W    00000100000000965000000000032W41   HJYHK-J 000000000000OS324029
BI00B32W4    4500190485     2022053118018404091              CAVS 0.85 SB             CCN000030000000030000FN00000000020220501000030000NNE20 20220329153924W41 1W    00000100000000965000000000032W41   HJYHK-J 000000000000OS324026
BI00B32W4    4500190485     2022053118018404092              CAVS 0.85 V              CCN000020000000020000FN00000000020220501000020000NNE20 20220329154009W41 1W    00000100000000965000000000032W41   HJYHK-J 000000000000OS324027
BI00B32W4    4500190485     2022053118018403760              CAVS 0.3 G               CCN000036000000036000FN00000000020220501000036000NNE20 20220329160843W41 1W    00000200000000471000000000032W41   HJYHK-J 000000000000OS324008
