BI00A1200    2399T51B10     202111267172-5402-30             SEAL RUBBER              CCN000008000000008000FN00000000020220101000008000NNMM0020211123161509    1C0C  0000080000000045760000050601200    YCYC    004300270014
BI00B1200    8750T51C01     202112237288-3340-30             HOUSING MALE             CCN000006000000006000FN00000000020220101000006000NNM   20211123162159    4N0N  0000015000000086150000100641200    YCYC    005400370024
BI00B1200    8750T51C01     202112237289-3342                HOUSING FEMALE ASS'Y     CCN000004800000004800FN00000000020220101000004800NNM   20211123162159    1N0N  0000024000000068640000090141200    YCYC    005500360039
BI00B1200    8750T51C01     202112237289-6547                HOUSING FEMALE ASS'Y     CCN000002400000002400FN00000000020220101000002400NNM   20211123162159    1N0N  0000024000000115200000136201200    YCYC    005500360039
BI00B1200    #8750T51C01    202112237189-3031-30             HOUSING FEMALE           CCN000004800000004800FN00000000020220101000004800NNM   20211123161957    2F0F  0000024000000092880000136581200    YCYC    005500360039
BI00B1200    2399T51C04     202204077116-4100-02             TERMINAL                 CCN000060000000060000FN00000000020220501000060000NNE   20211123162257    4P0P  0000150000000069600000099021200    YCYC    006400630015
BI00A32BF    #TT2112AKMW    202112077154-8349-30             COVER                    CCN000000160000000160FN00000000020211201000000160NNED0720211123174344    2F0F  00000008000000561000000691032BF    TTTJYCD 005600390040
BI00B32CA    PTA32052       202202177289-3342                HOUSING FEMALE ASS'Y     CCN000021600000021600FN00000000020220501000021600NNED0420211123123645    1N0N  00000240000000686400000901432CA    YPYPY   005500360039
BI00B32CA    PTA32052       202203037289-3342-30             HOUSING FEMALE ASS'Y     CCN000040800000040800FN00000000020220501000040800NNED0420211123123645    1N0N  00000240000000686400000901432CA    YPYPY   005500360039
BI00B32CA    PTA32052       202202247289-3342-90             HOUSING FEMALE ASS'Y     CCN000016800000016800FN00000000020220501000016800NNED0420211123123645    1N0N  00000240000000686400000901432CA    YPYPY   005500360039
BI00B32DE    TCT1103        202112237114-5746-02             TERMINAL                 CCN000042000000000000FY00000000020211001000000000NNMQ0820211123094512    4P0P  00002100000000695100000988732DE    TVYEV-TV006400630015
BI00B32DE    TCT1115        202112027114-5748-02             TERMINAL                 CCN000024000000000000FY00000000020211101000000000NNMQ0820211123094708    4P0P  00001200000000444000000737632DE    TVYEV-TV006400630015
BI00B32DE    TCT1114        202112237116-4231-02             TERMINAL                 CCN000286000000130000FN00000000020211101000130000NNMQ0820211123123645    4P0P  00002600000000683800001012532DE    TVYEV-TV006400630017
BI00B32DE    TCT1115        202201067116-5044-02             TERMINAL                 CCN000352000000224000FN00000000020211101000224000NNMQ0820211123123645    4P0P  00001600000000641600000986332DE    TVYEV-TV006400630017
BI00B32DE    TCT1115        202201067283-1289-40             CONNECTOR HOUSING        CCN000005400000003000FN00000000020211101000003000NNMQ0820211123123645    1N0N  00000060000000679800000824832DE    TVYEV-TV005400370024
BI00B32DE    TCT1124        202112167114-4728-02             TERMINAL                 CCN001110000000750000FN00000000020211201000750000NNMQ0820211123123645    4P0P  00003000000000510000000804232DE    TVYEV-TV006400630015
BI00B32DE    TCT1124        202112167196-1481-02             TERMINAL FEMALE          CCN001128000000648000FN00000000020211201000648000NNMQ0820211123123645    4P0P  00002400000000422400000707632DE    TVYEV-TV006400630015
BI00B32DE    TCT1124        202112097196-1934-02             TERMINAL FEMALE          CCN000234000000136500FN00000000020211201000136500NNMQ0820211123123645    4P0P  00001950000000561600000846832DE    TVYEV-TV006400630015
BI00B32DE    TCT1124        202112167282-4576                HOUSING MALE ASS'Y       CCN000012000000004800FN00000000020211201000004800NNMQ0820211123123645    4N0N  00000240000000808800001028832DE    TVYEV-TV005500360039
BI00B32DE    TCT1124        202112167283-4576                HOUSING FEMALE ASS'Y     CCN000038400000028800FN00000000020211201000028800NNMQ0820211123123645    4N0N  00000480000000651300000871332DE    TVYEV-TV005500360039
BI00B32DE    TCT1124        202112167287-1915-40             CONNECTOR ASS'Y          CCN000019200000009600FN00000000020211201000009600NNMQ0820211123123645    4N0N  00000240000000666500000923132DE    TVYEV-TV005500360039
BI00B32DE    TCT1124        202112027288-6547                CONNECTOR MALE ASS'Y     CCN000011250000007500FN00000000020211201000007500NNMQ0820211123123645    4N0N  00000075000001205300001340332DE    TVYEV-TV005400370024
BI00B32DE    TCT1124        202112027289-3342-30             HOUSING FEMALE ASS'Y     CCN000144000000072000FN00000000020211201000072000NNMQ0820211123123645    1N0N  00000240000000686400000901432DE    TVYEV-TV005500360039
BI00B32DE    TCT1124        202112027289-6547                HOUSING FEMALE ASS'Y     CCN000012000000007200FN00000000020211201000007200NNMQ0820211123123645    1N0N  00000240000001152000001362032DE    TVYEV-TV005500360039
BI00B32DE    #TCT1124       202112027198-4980-30             HOUSING FEMALE           CCN000010800000010800FN00000000020211201000010800NNMD0020211123123645    2F0F  00000120000000840000000921032DE    TVYEV-TV005400370024
BI00B32DE    TCT1124        202112097289-3342                HOUSING FEMALE ASS'Y     CCN000004800000000000FY00000000020211201000000000NNMQ0820211123103944    1N0N  00000240000000686400000901432DE    TVYEV-TV005500360039
BI00B32DE    TCT1101        202112097114-5746-02             TERMINAL                 CCN000084000000000000FY00000000020211001000000000NNMQ0820211123094359    4P0P  00002100000000695100000988732DE    TVYEV-TV006400630015
BI00B32DE    TCT2014        202201067116-4415-02             TERMINAL                 CCN000190000000114000FN00000000020220101000114000NNMQ0820211123123645    4P0P  00003800000000596600000925732DE    TVYEV-TV006400630017
BI00B32DE    TCT2013        202112237116-5750-02             TERMINAL                 CCN000120000000000000FY00000000020220101000000000NNMQ0820211123095430    4P0P  00001500000000457500000742732DE    TVYEV-TV006400630015
BI00B32DE    TCT2014        202201067116-6041                TERMINAL                 CCN000004500000000000FY00000000020220101000000000NNMQ0820211123095558    4P0P  00000450000000716000001009632DE    TVYEV-TV006400630015
BI00B32DE    TCT2013        202112237282-4577                HOUSING MALE ASS'Y       CCN000002400000000000FY00000000020220101000000000NNMQ0820211123102146    4N0N  00000240000000964800001174832DE    TVYEV-TV005500360039
BI00B32DE    TCT2014        202201067282-4577                HOUSING MALE ASS'Y       CCN000007200000000000FY00000000020220101000000000NNMQ0820211123102256    4N0N  00000240000000964800001174832DE    TVYEV-TV005500360039
BI00B32DE    TCT2014        202201137283-4577-30             CONNECTOR HOUSING        CCN000009600000000000FY00000000020220101000000000NNMQ0820211123102706    4N0N  00000480000000916800001136832DE    TVYEV-TV005500360039
BI00B32DE    TCT2014        202201067287-1915                CONNECTOR ASS'Y          CCN000004800000000000FY00000000020220101000000000NNMQ0820211123102833    4N0N  00000240000000666500000923132DE    TVYEV-TV005500360039
BI00B32DE    #TCT2013       202112237158-3003-90             RUBBER STOPPER           CCN000040000000000000FY00000000020220101000000000NNMQ0820211123095732    2C0C  00002000000000250000000306032DE    TVYEV-TV002700430014
BI00B32DE    TCT1124        202112097289-3342-90             HOUSING FEMALE ASS'Y     CCN000009600000002400FN00000000020211201000002400NNMQ0820211123123645    1N0N  00000240000000686400000901432DE    TVYEV-TV005500360039
BI00B32D1    #DFTC2207      202202107172-5629-80             RUBBER STOPPER           CCN000360000000360000FN00000000020220201000360000NNMD0420211123163405    2H0H  00002000000000060000000111132D1    TOYOT-K 004300270014
BI00B32D2    DGTC2207       202201207288-6547                CONNECTOR MALE ASS'Y     CCN000024000000003000FN00000000020220201000003000NNMD0420211123123645    4N0N  00000075000001205300001340332D2    TGYOT-G 005400370024
BI00B32D2    DGTC2207       202201137289-3342                HOUSING FEMALE ASS'Y     CCN000132000000043200FN00000000020220201000043200NNMD0420211123123645    1N0N  00000240000000686400000901432D2    TGYOT-G 005500360039
BI00B32D2    DGTC2207       202201207289-3342-30             HOUSING FEMALE ASS'Y     CCN000043200000021600FN00000000020220201000021600NNMD0420211123123645    1N0N  00000240000000686400000901432D2    TGYOT-G 005500360039
BI00B32D2    DGTC2207       202201207289-3342-40             HOUSING FEMALE ASS'Y     CCN000048000000014400FN00000000020220201000014400NNMD0420211123123645    1N0N  00000240000000686400000901432D2    TGYOT-G 005500360039
BI00B32D2    DGTC2207       202201207289-3342-90             HOUSING FEMALE ASS'Y     CCN000055200000012000FN00000000020220201000012000NNMD0420211123123645    1N0N  00000240000000686400000901432D2    TGYOT-G 005500360039
BI00B32D2    DGTC2207       202112237289-6547                HOUSING FEMALE ASS'Y     CCN000021600000012000FN00000000020220201000012000NNMQ0420211123160037    1N0N  00000240000001152000001362032D2    TGYOT-G 005500360039
BI00B32D2    #DGTC2207      202202177172-5629-80             RUBBER STOPPER           CCN000760000000760000FN00000000020220201000760000NNMD0420211123163318    2H0H  00002000000000060000000111132D2    TGYOT-G 004300270014
BI00B32D2    #DGTC2207      202203247172-5630-40             RUBBER STOPPER           CCN000540000000540000FN00000000020220201000540000NNMD0420211123163338    2H0H  00002000000000044000000095132D2    TGYOT-G 004300270014
BI00B32D2    DGTC2207       202201277288-6547                CONNECTOR MALE ASS'Y     CCN000003000000003000FN00000000020220201000003000NNMD0420211123123645    4N0N  00000075000001205300001340332D2    TGYOT-G 005400370024
BI00B32D2    DGTC2207       202202037288-6547                CONNECTOR MALE ASS'Y     CCN000003000000003000FN00000000020220201000003000NNMD0420211123123645    4N0N  00000075000001205300001340332D2    TGYOT-G 005400370024
BI00B32D2    DGTC2207       202202107288-6547                CONNECTOR MALE ASS'Y     CCN000003000000003000FN00000000020220201000003000NNMD0420211123123645    4N0N  00000075000001205300001340332D2    TGYOT-G 005400370024
BI00B32D2    DGTC2207       202202177288-6547                CONNECTOR MALE ASS'Y     CCN000003000000003000FN00000000020220201000003000NNMD0420211123123645    4N0N  00000075000001205300001340332D2    TGYOT-G 005400370024
BI00B32D2    DGTC2207       202202247288-6547                CONNECTOR MALE ASS'Y     CCN000003000000003000FN00000000020220201000003000NNMD0420211123123645    4N0N  00000075000001205300001340332D2    TGYOT-G 005400370024
BI00B32D2    DGTC2207       202203037288-6547                CONNECTOR MALE ASS'Y     CCN000003000000003000FN00000000020220201000003000NNMD0420211123123645    4N0N  00000075000001205300001340332D2    TGYOT-G 005400370024
BI00B32D2    DGTC2207       202203107288-6547                CONNECTOR MALE ASS'Y     CCN000003000000003000FN00000000020220201000003000NNMD0420211123123645    4N0N  00000075000001205300001340332D2    TGYOT-G 005400370024
BI00B32D2    DGTC2207       202201207289-3342                HOUSING FEMALE ASS'Y     CCN000043200000043200FN00000000020220201000043200NNMD0420211123123645    1N0N  00000240000000686400000901432D2    TGYOT-G 005500360039
BI00B32D2    DGTC2207       202201277289-3342                HOUSING FEMALE ASS'Y     CCN000045600000045600FN00000000020220201000045600NNMD0420211123123645    1N0N  00000240000000686400000901432D2    TGYOT-G 005500360039
BI00B32D2    DGTC2207       202201277289-3342-30             HOUSING FEMALE ASS'Y     CCN000021600000021600FN00000000020220201000021600NNMD0420211123123645    1N0N  00000240000000686400000901432D2    TGYOT-G 005500360039
BI00B32D2    DGTC2207       202201277289-3342-40             HOUSING FEMALE ASS'Y     CCN000016800000016800FN00000000020220201000016800NNMD0420211123123645    1N0N  00000240000000686400000901432D2    TGYOT-G 005500360039
BI00B32D2    DGTC2207       202202037289-3342-40             HOUSING FEMALE ASS'Y     CCN000016800000016800FN00000000020220201000016800NNMD0420211123123645    1N0N  00000240000000686400000901432D2    TGYOT-G 005500360039
BI00B32D2    DGTC2207       202201277289-3342-90             HOUSING FEMALE ASS'Y     CCN000014400000014400FN00000000020220201000014400NNMD0420211123123645    1N0N  00000240000000686400000901432D2    TGYOT-G 005500360039
BI00B32D2    DGTC2207       202202037289-3342-90             HOUSING FEMALE ASS'Y     CCN000014400000014400FN00000000020220201000014400NNMD0420211123123645    1N0N  00000240000000686400000901432D2    TGYOT-G 005500360039
BI00B32D2    DGTC2207       202202107289-3342-90             HOUSING FEMALE ASS'Y     CCN000014400000014400FN00000000020220201000014400NNMD0420211123123645    1N0N  00000240000000686400000901432D2    TGYOT-G 005500360039
BI00B32D2    DGTC2207       202201067289-6547                HOUSING FEMALE ASS'Y     CCN000009600000009600FN00000000020220201000009600NNMD0420211123160045    1N0N  00000240000001152000001362032D2    TGYOT-G 005500360039
BI00B32E1    NC202A         202111247116-5045-02             TERMINAL                 CCN000016000000016000FN00000000020220201000016000NNED0020211123123645    4P0P  00001600000000678400001007132E1    SPYSE   006400630017
BI00B32G8    PATA2011       202112087470-5945                J/B COMPLETE ASS'Y       CCN000004200000004200FN00000000020220101000004200NNMD0320211123123645    4J0J  00000001000000494000000661032G8    PSPASI  005400370024
BI00A32H0    TT2112FVMW     202112037327-6950-30             MULTI FUSE               CCN000000288000000288FN00000000020211201000000288NNED0720211123123645    4N00  00000028800000888700001054632H0    TTTJY   005400370024
BI00B32H0    TT2201BVMW     202112147288-6547                CONNECTOR MALE ASS'Y     CCN000000750000000750FN00000000020220101000000750NNE   20211123161726    4N0N  00000075000001205300001340332H0    TTTJY   005400370024
BI00B32H0    #TT2201BVMW    202112147172-5628-80             DUMMY PLUG               CCN000020000000020000FN00000000020220101000020000NNE   20211123161708    2H0H  00002000000000110600000162032H0    TTTJY   004300270014
BI00B32M4    TP2011         202112097287-8072                HOUSING FEMALE ASS'Y     CCN000007200000004800FN00000000020220101000004800NNMQ0020211123165712    1N0N  00000240000001221600001441632M4    SISAI   005500360039
BI00A32M4    TP2011         202111257287-8072                HOUSING FEMALE ASS'Y     CCN000002400000002400FN00000000020220101000002400NNMM0020211123165712    1N0N  00000240000001221600001441632M4    SISAI   005500360039
BI00B32N1    #NST2114IGU    202112237283-5833                CONNECTOR HOUSING        CCN000003000000003640FN00000000020220101000003640NNM   20211123164428    2N0N  00000364000001378000001686732N1    TAYIPL  005500360039
BI00B32N1    #NST2114IGU    202112237283-5834                CONNECTOR ASS'Y          CCN000002520000003240FN00000000020220101000003240NNM   20211123164428    2N0N  00000324000001296000001849732N1    TAYIPL  005600390040
BI00B32N1    NST2113A 1     202112097114-4020                TERMINAL                 CCN000147000000147000FN00000000020220101000147000NNM   20211123174719    4P0P  00002100000000875700001169332N1    TAYIPL  006400630015
BI00B32N1    NST2113A 2     202112167114-4020                TERMINAL                 CCN000210000000210000FN00000000020220101000210000NNM   20211123174719    4P0P  00002100000000875700001169332N1    TAYIPL  006400630015
BI00B32N1    NST2113A 1     202112097114-4021                TERMINAL                 CCN000045000000045000FN00000000020220101000045000NNM   20211123174719    4P0P  00001500000000670500000964132N1    TAYIPL  006400630015
BI00B32N1    NST2113A 2     202112167114-4021                TERMINAL                 CCN000060000000060000FN00000000020220101000060000NNM   20211123174719    4P0P  00001500000000670500000964132N1    TAYIPL  006400630015
BI00B32N1    NST2113A 1     202112097114-4030                TERMINAL                 CCN000010500000010500FN00000000020220101000010500NNM   20211123174719    4P0P  00001050000000926100001254732N1    TAYIPL  006400630017
BI00B32N1    NST2113A 2     202112167114-4030                TERMINAL                 CCN000021000000021000FN00000000020220101000021000NNM   20211123174719    4P0P  00001050000000926100001254732N1    TAYIPL  006400630017
BI00B32N1    NST2113A 2     202112167114-4032                TERMINAL                 CCN000022500000022500FN00000000020220101000022500NNM   20211123174719    4P0P  00000750000000735000001063632N1    TAYIPL  006400630017
BI00B32N1    NST2113A 1     202112097116-1180                TERMINAL                 CCN000526500000526500FN00000000020220101000526500NNM   20211123174719    1P0P  00001950000000618200000903432N1    TAYIPL  006400630015
BI00B32N1    NST2113A 2     202112167116-1180                TERMINAL                 CCN000565500000565500FN00000000020220101000565500NNM   20211123174719    1P0P  00001950000000618200000903432N1    TAYIPL  006400630015
BI00B32N1    NST2113A 1     202112097116-1301                TERMINAL                 CCN000135000000135000FN00000000020220101000135000NNM   20211123174719    4P0P  00001500000000487500000772732N1    TAYIPL  006400630015
BI00B32N1    NST2113A 2     202112167116-1301                TERMINAL                 CCN000195000000195000FN00000000020220101000195000NNM   20211123174719    4P0P  00001500000000487500000772732N1    TAYIPL  006400630015
BI00B32N1    NST2113A 1     202112097116-4020                TERMINAL                 CCN000337500000337500FN00000000020220101000337500NNM   20211123174719    4P0P  00001350000000513000000798232N1    TAYIPL  006400630015
BI00B32N1    NST2113A 2     202112167116-4020                TERMINAL                 CCN000351000000351000FN00000000020220101000351000NNM   20211123174719    4P0P  00001350000000513000000798232N1    TAYIPL  006400630015
BI00B32N1    NST2113A 1     202112097116-4026                TERMINAL                 CCN000128000000128000FN00000000020220101000128000NNM   20211123174719    4P0P  00001600000000664000000994332N1    TAYIPL  006400630017
BI00B32N1    NST2113A 2     202112167116-4026                TERMINAL                 CCN000128000000128000FN00000000020220101000128000NNM   20211123174719    4P0P  00001600000000664000000994332N1    TAYIPL  006400630017
BI00B32N1    NST2113A 1     202112097116-4032                TERMINAL                 CCN000012000000012000FN00000000020220101000012000NNM   20211123174719    4P0P  00000600000000532800000818032N1    TAYIPL  006400630015
BI00B32N1    NST2113A 2     202112167116-4032                TERMINAL                 CCN000018000000018000FN00000000020220101000018000NNM   20211123174719    4P0P  00000600000000532800000818032N1    TAYIPL  006400630015
BI00B32N1    NST2113A 1     202112097116-4037                TERMINAL                 CCN000024000000024000FN00000000020220101000024000NNM   20211123174719    4P0P  00000600000000600000000894232N1    TAYIPL  006400630015
BI00B32N1    NST2113A 2     202112167116-4037                TERMINAL                 CCN000024000000024000FN00000000020220101000024000NNM   20211123174719    4P0P  00000600000000600000000894232N1    TAYIPL  006400630015
BI00B32N1    NST2113A 1     202112097116-6042                TERMINAL                 CCN000078000000078000FN00000000020220101000078000NNM   20211123174719    4P0P  00000300000000523800000856132N1    TAYIPL  006400630015
BI00B32N1    NST2113A 2     202112167116-6042                TERMINAL                 CCN000033000000033000FN00000000020220101000033000NNM   20211123174719    4P0P  00000300000000523800000856132N1    TAYIPL  006400630015
BI00B32N1    NST2113A 2     202112167158-3023                RUBBER STOPPER           CCN000005000000005000FN00000000020220101000005000NNM   20211123174719    1C0C  00000500000000443500000502032N1    TAYIPL  002700430014
BI00B32N1    NST2113A 1     202112097282-1248                HOUSING SUB ASSEMBLY     CCN000007800000007800FN00000000020220101000007800NNM   20211123174719    1N0N  00000060000001167000001372032N1    TAYIPL  005500360039
BI00B32N1    NST2113A 2     202112167282-1248                HOUSING SUB ASSEMBLY     CCN000009600000009600FN00000000020220101000009600NNM   20211123174719    1N0N  00000060000001167000001372032N1    TAYIPL  005500360039
BI00B32N1    NST2113A 1     202112097283-1144                CONNECTOR                CCN000014400000014400FN00000000020220101000014400NNM   20211123174719    4N0N  00000240000000602200000866132N1    TAYIPL  005500360039
BI00B32N1    NST2113A 2     202112167283-1144                CONNECTOR                CCN000007200000007200FN00000000020220101000007200NNM   20211123174719    4N0N  00000240000000602200000866132N1    TAYIPL  005500360039
BI00B32N1    NST2113A 1     202112097017-1180-02             TERMINAL                 CCN000072000000072000FN00000000020220101000072000NNM   20211123174719    4P0P  00007200000001065600001229032N1    TAYIPL  005100280028
BI00B32N1    NST2113A 2     202112167017-1183-02             TERMINAL                 CCN000027000000027000FN00000000020220101000027000NNM   20211123174719    4P0P  00002700000001139400001307432N1    TAYIPL  005100280028
BI00B32N1    NST2113A 1     202112097114-4100-02             TERMINAL                 CCN000180000000180000FN00000000020220101000180000NNM   20211123174719    4P0P  00001800000000748800001077432N1    TAYIPL  006400630017
BI00B32N1    NST2113A 2     202112167114-4100-02             TERMINAL                 CCN000360000000360000FN00000000020220101000360000NNM   20211123174719    4P0P  00001800000000748800001077432N1    TAYIPL  006400630017
BI00B32N1    NST2113A 1     202112097114-4101-02             TERMINAL                 CCN000030000000030000FN00000000020220101000030000NNM   20211123174719    4P0P  00001500000000675000001003632N1    TAYIPL  006400630017
BI00B32N1    NST2113A 2     202112167114-4101-02             TERMINAL                 CCN000015000000015000FN00000000020220101000015000NNM   20211123174719    4P0P  00001500000000675000001003632N1    TAYIPL  006400630017
BI00B32N1    NST2113A 1     202112097114-4111-02             TERMINAL                 CCN000012000000012000FN00000000020220101000012000NNM   20211123174719    4P0P  00001200000000758400001087032N1    TAYIPL  006400630017
BI00B32N1    NST2113A 2     202112167114-4111-02             TERMINAL                 CCN000048000000048000FN00000000020220101000048000NNM   20211123174719    4P0P  00001200000000758400001087032N1    TAYIPL  006400630017
BI00B32N1    NST2113A 1     202112097114-4112-02             TERMINAL                 CCN000009000000009000FN00000000020220101000009000NNM   20211123174719    4P0P  00000900000000598500000927132N1    TAYIPL  006400630017
BI00B32N1    NST2113A 2     202112167114-4112-02             TERMINAL                 CCN000036000000036000FN00000000020220101000036000NNM   20211123174719    4P0P  00000900000000598500000927132N1    TAYIPL  006400630017
BI00B32N1    NST2113A 1     202112097114-4729-02             TERMINAL                 CCN000169470000180000FN00000000020220101000180000NNM   20211123174719    4P0P  00003000000000516000000810232N1    TAYIPL  006400630015
BI00B32N1    NST2113A 2     202112167114-4729-02             TERMINAL                 CCN000181440000210000FN00000000020220101000210000NNM   20211123174719    4P0P  00003000000000516000000810232N1    TAYIPL  006400630015
BI00B32N1    NST2113A 1     202112097116-1685-02             TERMINAL                 CCN000120000000120000FN00000000020220101000120000NNM   20211123174719    4P0P  00002400000000897600001065232N1    TAYIPL  005100280028
BI00B32N1    NST2113A 2     202112167116-1685-02             TERMINAL                 CCN000216000000216000FN00000000020220101000216000NNM   20211123174719    4P0P  00002400000000897600001065232N1    TAYIPL  005100280028
BI00B32N1    NST2113A 1     202112097116-1686-02             TERMINAL                 CCN000042000000042000FN00000000020220101000042000NNM   20211123174719    4P0P  00002100000000869400001021632N1    TAYIPL  005100280028
BI00B32N1    NST2113A 2     202112167116-1686-02             TERMINAL                 CCN000084000000084000FN00000000020220101000084000NNM   20211123174719    4P0P  00002100000000869400001021632N1    TAYIPL  005100280028
BI00B32N1    NST2113A 1     202112097116-2891-02             TERMINAL                 CCN000150000000150000FN00000000020220101000150000NNM   20211123174719    4P0P  00001500000000982500001145932N1    TAYIPL  005100280028
BI00B32N1    NST2113A 2     202112167116-2891-02             TERMINAL                 CCN000180000000180000FN00000000020220101000180000NNM   20211123174719    4P0P  00001500000000982500001145932N1    TAYIPL  005100280028
BI00B32N1    NST2113A 1     202112097116-2892-02             TERMINAL                 CCN000108000000108000FN00000000020220101000108000NNM   20211123174719    4P0P  00001200000000818400000981832N1    TAYIPL  005100280028
BI00B32N1    NST2113A 2     202112167116-2892-02             TERMINAL                 CCN000120000000120000FN00000000020220101000120000NNM   20211123174719    4P0P  00001200000000818400000981832N1    TAYIPL  005100280028
BI00B32N1    NST2113A 1     202112097116-2893-02             TERMINAL                 CCN000060000000060000FN00000000020220101000060000NNM   20211123174719    4P0P  00001200000000895200001058632N1    TAYIPL  005100280028
BI00B32N1    NST2113A 2     202112167116-2893-02             TERMINAL                 CCN000192000000192000FN00000000020220101000192000NNM   20211123174719    4P0P  00001200000000895200001058632N1    TAYIPL  005100280028
BI00B32N1    NST2113A 1     202112097116-4100-02             TERMINAL                 CCN000060000000060000FN00000000020220101000060000NNM   20211123174719    4P0P  00001500000000696000000990232N1    TAYIPL  006400630015
BI00B32N1    NST2113A 2     202112167116-4100-02             TERMINAL                 CCN000120000000120000FN00000000020220101000120000NNM   20211123174719    4P0P  00001500000000696000000990232N1    TAYIPL  006400630015
BI00B32N1    NST2113A 1     202112097116-4101-02             TERMINAL                 CCN000048000000048000FN00000000020220101000048000NNM   20211123174719    4P0P  00001200000000582000000876232N1    TAYIPL  006400630015
BI00B32N1    NST2113A 2     202112167116-4101-02             TERMINAL                 CCN000024000000024000FN00000000020220101000024000NNM   20211123174719    4P0P  00001200000000582000000876232N1    TAYIPL  006400630015
BI00B32N1    NST2113A 1     202112097116-4104-02             TERMINAL                 CCN000012000000012000FN00000000020220101000012000NNM   20211123174719    4P0P  00001200000000580800000972432N1    TAYIPL  006400630015
BI00B32N1    NST2113A 2     202112167116-4110-02             TERMINAL                 CCN000045000000045000FN00000000020220101000045000NNM   20211123174719    4P0P  00000900000000594000000882232N1    TAYIPL  006400630015
BI00B32N1    NST2113A 1     202112097116-4112-02             TERMINAL                 CCN000042000000042000FN00000000020220101000042000NNM   20211123174719    4P0P  00000600000000450000000738232N1    TAYIPL  006400630015
BI00B32N1    NST2113A 2     202112167116-4112-02             TERMINAL                 CCN000042000000042000FN00000000020220101000042000NNM   20211123174719    4P0P  00000600000000450000000738232N1    TAYIPL  006400630015
BI00B32N1    NST2113A 1     202112097116-4114-02             TERMINAL                 CCN000010500000010500FN00000000020220101000010500NNM   20211123174719    4P0P  00001050000000693000000981232N1    TAYIPL  006400630015
BI00B32N1    NST2113A 2     202112167116-4114-02             TERMINAL                 CCN000010500000010500FN00000000020220101000010500NNM   20211123174719    4P0P  00001050000000693000000981232N1    TAYIPL  006400630015
BI00B32N1    NST2113A 2     202112167116-4120-02             TERMINAL                 CCN000006000000006000FN00000000020220101000006000NNM   20211123174719    4P0P  00000600000000780000001073632N1    TAYIPL  006400630015
BI00B32N1    NST2113A 2     202112167116-4122-02             TERMINAL                 CCN000022500000022500FN00000000020220101000022500NNM   20211123174719    4P0P  00000450000000656600000950232N1    TAYIPL  006400630015
BI00B32N1    NST2113A 2     202112167116-4231-02             TERMINAL                 CCN000026000000026000FN00000000020220101000026000NNM   20211123174719    4P0P  00002600000000683800001012532N1    TAYIPL  006400630017
BI00B32N1    NST2113A 1     202112097126-8850-02             TERMINAL                 CCN000144000000144000FN00000000020220101000144000NNM   20211123174719    1P0P  00000900000000672300000957532N1    TAYIPL  006400630015
BI00B32N1    NST2113A 2     202112167126-8850-02             TERMINAL                 CCN000297000000297000FN00000000020220101000297000NNM   20211123174719    1P0P  00000900000000672300000957532N1    TAYIPL  006400630015
BI00B32N1    NST2113A 1     202112097126-8851-02             TERMINAL                 CCN000342000000342000FN00000000020220101000342000NNM   20211123174719    1P0P  00000900000000739800001025032N1    TAYIPL  006400630015
BI00B32N1    NST2113A 2     202112167126-8851-02             TERMINAL                 CCN000531000000531000FN00000000020220101000531000NNM   20211123174719    1P0P  00000900000000739800001025032N1    TAYIPL  006400630015
BI00B32N1    NST2113A 1     202112097126-8852-02             TERMINAL                 CCN000217500000217500FN00000000020220101000217500NNM   20211123174719    1P0P  00000750000000648000000933232N1    TAYIPL  006400630015
BI00B32N1    NST2113A 2     202112167126-8852-02             TERMINAL                 CCN000232500000232500FN00000000020220101000232500NNM   20211123174719    1P0P  00000750000000648000000933232N1    TAYIPL  006400630015
BI00B32N1    NST2113A 1     202112097126-8853-02             TERMINAL                 CCN000002170000007500FN00000000020220101000007500NNM   20211123174719    4P0P  00000750000000562500000847732N1    TAYIPL  006400630015
BI00B32N1    NST2113A 2     202112167126-8853-02             TERMINAL                 CCN000002170000007500FN00000000020220101000007500NNM   20211123174719    4P0P  00000750000000562500000847732N1    TAYIPL  006400630015
BI00B32N1    NST2113A 1     202112097126-8854-02             TERMINAL                 CCN000028210000030000FN00000000020220101000030000NNM   20211123174719    4P0P  00000750000000604500000889732N1    TAYIPL  006400630015
BI00B32N1    NST2113A 2     202112167126-8854-02             TERMINAL                 CCN000028210000030000FN00000000020220101000030000NNM   20211123174719    4P0P  00000750000000604500000889732N1    TAYIPL  006400630015
BI00B32N1    NST2113A 1     202112097126-8855-02             TERMINAL                 CCN000011650000012000FN00000000020220101000012000NNM   20211123174719    4P0P  00000600000000510600000795832N1    TAYIPL  006400630015
BI00B32N1    NST2113A 2     202112167126-8855-02             TERMINAL                 CCN000009320000012000FN00000000020220101000012000NNM   20211123174719    4P0P  00000600000000510600000795832N1    TAYIPL  006400630015
BI00B32N1    NST2113A 1     202112097158-3006-90             RUBBER STOPPER           CCN000100000000100000FN00000000020220101000100000NNM   20211123174719    1C0C  00002000000000330600000386032N1    TAYIPL  002700430014
BI00B32N1    NST2113A 2     202112167158-3006-90             RUBBER STOPPER           CCN000200000000200000FN00000000020220101000200000NNM   20211123174719    1C0C  00002000000000330600000386032N1    TAYIPL  002700430014
BI00B32N1    NST2113A 1     202112097158-3022-80             RUBBER STOPPER           CCN000010000000010000FN00000000020220101000010000NNM   20211123174719    1C0C  00000500000000467500000524032N1    TAYIPL  002700430014
BI00B32N1    NST2113A 2     202112167158-3022-80             RUBBER STOPPER           CCN000005000000005000FN00000000020220101000005000NNM   20211123174719    1C0C  00000500000000467500000524032N1    TAYIPL  002700430014
BI00B32N1    NST2113A 1     202112097158-3168-80             SEALED                   CCN000020000000020000FN00000000020220101000020000NNM   20211123174719    1C0C  00002000000000044000000092132N1    TAYIPL  004300260014
BI00B32N1    NST2113A 2     202112167158-3168-80             SEALED                   CCN000020000000020000FN00000000020220101000020000NNM   20211123174719    1C0C  00002000000000044000000092132N1    TAYIPL  004300260014
BI00B32N1    NST2113A 1     202112097183-7665-30             HOUSING                  CCN000001200000001200FN00000000020220101000001200NNM   20211123174719    1F0F  00000120000001103300001247832N1    TAYIPL  005500360039
BI00B32N1    NST2113A 2     202112167183-7665-30             HOUSING                  CCN000002400000002400FN00000000020220101000002400NNM   20211123174719    1F0F  00000120000001103300001247832N1    TAYIPL  005500360039
BI00B32N1    NST2113A 1     202112097282-1248-30             HOUSING SUB ASSEMBLY     CCN000003600000003600FN00000000020220101000003600NNM   20211123174719    1N0N  00000060000001167000001372032N1    TAYIPL  005500360039
BI00B32N1    NST2113A 2     202112167282-1248-30             HOUSING SUB ASSEMBLY     CCN000004200000004200FN00000000020220101000004200NNM   20211123174719    1N0N  00000060000001167000001372032N1    TAYIPL  005500360039
BI00B32N1    NST2113A 1     202112097282-5574-10             CONNECTOR                CCN000003200000003200FN00000000020220101000003200NNM   20211123174719    4N0N  00000080000001235000001423032N1    TAYIPL  005600390040
BI00B32N1    NST2113A 2     202112167282-5574-10             CONNECTOR                CCN000003200000003200FN00000000020220101000003200NNM   20211123174719    4N0N  00000080000001235000001423032N1    TAYIPL  005600390040
BI00B32N1    NST2113A 1     202112097282-6568-40             CONNECTOR                CCN000005000000005000FN00000000020220101000005000NNM   20211123174719    4N0N  00000100000001206000001370732N1    TAYIPL  005500360039
BI00B32N1    NST2113A 2     202112167282-6568-40             CONNECTOR                CCN000001000000001000FN00000000020220101000001000NNM   20211123174719    4N0N  00000100000001206000001370732N1    TAYIPL  005500360039
BI00B32N1    NST2113A 1     202112097283-1144-30             CONNECTOR                CCN000031200000031200FN00000000020220101000031200NNM   20211123174719    4N0N  00000240000000602200000866132N1    TAYIPL  005500360039
BI00B32N1    NST2113A 2     202112167283-1144-30             CONNECTOR                CCN000036000000036000FN00000000020220101000036000NNM   20211123174719    4N0N  00000240000000602200000866132N1    TAYIPL  005500360039
BI00B32N1    NST2113A 1     202112097283-5574-10             CONNECTOR                CCN000003250000004000FN00000000020220101000004000NNM   20211123174719    4N0N  00000080000001235000001435232N1    TAYIPL  005500360039
BI00B32N1    NST2113A 2     202112167283-5574-10             CONNECTOR                CCN000003000000003200FN00000000020220101000003200NNM   20211123174719    4N0N  00000080000001235000001435232N1    TAYIPL  005500360039
BI00B32N1    NST2113A 1     202112097283-6388-40             CONNECTOR                CCN000004000000004000FN00000000020220101000004000NNM   20211123174719    4N0N  00000200000001029000001173532N1    TAYIPL  005500360039
BI00B32N1    #NST2113A 1    202112097116-4021                TERMINAL                 CCN000081000000081000FN00000000020220101000081000NNM   20211123174717    2F0P  00001350000000534600000868832N1    TAYIPL  006400630015
BI00B32N1    #NST2113A 2    202112167116-4021                TERMINAL                 CCN000094500000094500FN00000000020220101000094500NNM   20211123174717    2F0P  00001350000000534600000868832N1    TAYIPL  006400630015
BI00B32N1    #NST2113A 1    202112097157-3646                RUBBER STOPPER           CCN000380000000380000FN00000000020220101000380000NNM   20211123174717    2H0H  00002000000000184000000255232N1    TAYIPL  002700430014
BI00B32N1    #NST2113A 2    202112167157-3646                RUBBER STOPPER           CCN000260000000260000FN00000000020220101000260000NNM   20211123174717    2H0H  00002000000000184000000255232N1    TAYIPL  002700430014
BI00B32N1    #NST2113A 1    202112097157-3821                RUBBER STOPPER           CCN000460000000460000FN00000000020220101000460000NNM   20211123174717    2C0C  00002000000000176000000238032N1    TAYIPL  002700430014
BI00B32N1    #NST2113A 2    202112167157-3821                RUBBER STOPPER           CCN000420000000420000FN00000000020220101000420000NNM   20211123174717    2C0C  00002000000000176000000238032N1    TAYIPL  002700430014
BI00B32N1    #NST2113A 1    202112097183-7588                CONNECTOR                CCN000003000000003000FN00000000020220101000003000NNM   20211123174717    2F0F  00000300000001194000001334032N1    TAYIPL  005500360039
BI00B32N1    #NST2113A 2    202112167282-3020                CONNECTOR                CCN000001000000001000FN00000000020220101000001000NNM   20211123174717    2N0N  00000100000000984000001145432N1    TAYIPL  005500360039
BI00B32N1    #NST2113A 1    202112097283-1071                CONNECTOR HOUSING        CCN000002000000002000FN00000000020220101000002000NNM   20211123174717    2N0N  00000200000000800000000930032N1    TAYIPL  005400370024
BI00B32N1    #NST2113A 2    202112167283-5831                CONNECTOR                CCN000001000000003000FN00000000020220101000003000NNM   20211123174717    2N0N  00000300000000750000000880032N1    TAYIPL  005400370024
BI00B32N1    #NST2113A 1    202112097157-3790-90             WIRE SEAL                CCN000040000000040000FN00000000020220101000040000NNM   20211123174717    2C0C  00002000000000176000000232732N1    TAYIPL  002700430014
BI00B32N1    #NST2113A 2    202112167157-3790-90             WIRE SEAL                CCN000020000000020000FN00000000020220101000020000NNM   20211123174717    2C0C  00002000000000176000000232732N1    TAYIPL  002700430014
BI00B32N1    #NST2113A 1    202112097157-3950-80             SEAL RUBBER              CCN000440000000440000FN00000000020220101000440000NNM   20211123174717    2C0C  00004000000000154000000440332N1    TAYIPL  002700430014
BI00B32N1    #NST2113A 2    202112167157-3950-80             SEAL RUBBER              CCN000320000000320000FN00000000020220101000320000NNM   20211123174717    2C0C  00004000000000154000000440332N1    TAYIPL  002700430014
BI00B32N1    #NST2113A 2    202112167157-3952-80             RUBBER STOPPER           CCN000020000000020000FN00000000020220101000020000NNM   20211123174717    2C0C  00001000000000117000000175032N1    TAYIPL  002700430014
BI00B32N1    #NST2113A 1    202112097158-3007-10             RUBBER STOPPER           CCN000020000000020000FN00000000020220101000020000NNM   20211123174717    2H0H  00002000000000308000000362732N1    TAYIPL  002700430014
BI00B32N1    #NST2113A 2    202112167158-3007-10             RUBBER STOPPER           CCN000040000000040000FN00000000020220101000040000NNM   20211123174717    2H0H  00002000000000308000000362732N1    TAYIPL  002700430014
BI00B32N1    #NST2113A 1    202112097158-3120-90             CONNECTOR WIRE SEAL      CCN000040000000040000FN00000000020220101000040000NNM   20211123174717    2C0C  00002000000000136000000194032N1    TAYIPL  002700430014
BI00B32N1    #NST2113A 2    202112167158-3120-90             CONNECTOR WIRE SEAL      CCN000060000000060000FN00000000020220101000060000NNM   20211123174717    2C0C  00002000000000136000000194032N1    TAYIPL  002700430014
BI00B32N1    #NST2113A 2    202112167158-3374-90             CONNECTOR WIRE SEAL      CCN000020000000020000FN00000000020220101000020000NNM   20211123174717    2H0H  00002000000000172000000229332N1    TAYIPL  002700430014
BI00B32N1    #NST2113A 2    202112167158-3376-50             CONNECTOR WIRE SEAL      CCN000020000000020000FN00000000020220101000020000NNM   20211123174717    2C0C  00002000000000184000000240732N1    TAYIPL  002700430014
BI00B32N1    #NST2113A 1    202112097183-7725-40             HOUSING                  CCN000006000000006000FN00000000020220101000006000NNM   20211123174717    2F0F  00000600000000840000001040032N1    TAYIPL  005600390040
BI00B32N1    #NST2113A 2    202112167183-7725-40             HOUSING                  CCN000006000000006000FN00000000020220101000006000NNM   20211123174717    2F0F  00000600000000840000001040032N1    TAYIPL  005600390040
BI00B32N1    #NST2113A 1    202112097282-4190-30             CONNECTOR                CCN000006000000006000FN00000000020220101000006000NNM   20211123174717    2N0N  00000024000000801000001071332N1    TAYIPL  005600390040
BI00B32N1    #NST2113A 2    202112167282-4190-30             CONNECTOR                CCN000008400000008400FN00000000020220101000008400NNM   20211123174717    2N0N  00000024000000801000001071332N1    TAYIPL  005600390040
BI00B32N1    #NST2113A 2    202112167282-6458-40             CONNECTOR                CCN000001000000001000FN00000000020220101000001000NNM   20211123174717    2N0N  00000100000001206000001350532N1    TAYIPL  005500360039
BI00B32N1    #NST2113A 1    202112097282-8395-40             CONNECTOR                CCN000004000000004000FN00000000020220101000004000NNM   20211123174717    2N0N  00000100000001009000001188032N1    TAYIPL  005500360039
BI00B32N1    #NST2113A 2    202112167282-8395-40             CONNECTOR                CCN000002000000002000FN00000000020220101000002000NNM   20211123174717    2N0N  00000100000001009000001188032N1    TAYIPL  005500360039
BI00B32N1    #NST2113A 1    202112097283-8226-30             CONNECTOR                CCN000013640000014000FN00000000020220101000014000NNM   20211123174717    2N0N  00000200000000820000001008032N1    TAYIPL  005400370024
BI00B32N1    #NST2113A 2    202112167283-8226-30             CONNECTOR                CCN000013640000014000FN00000000020220101000014000NNM   20211123174717    2N0N  00000200000000820000001008032N1    TAYIPL  005400370024
BI00B32N1    #NST2113A 2    202112167283-8397-40             CONNECTOR                CCN000003080000003080FN00000000020220101000003080NNM   20211123174717    2N0N  00000154000001007000001222732N1    TAYIPL  005600390023
BI00B32N2    2152103692     202112237114-4020                TERMINAL                 CCN000147000000147000FN00000000020210501000147000NNM   20211123163321    4P0P  00002100000000875700001169332N2    YWYIPLTC006400630015
BI00B32N2    2152103692     202112237114-4021                TERMINAL                 CCN000030000000030000FN00000000020210501000030000NNM   20211123163321    4P0P  00001500000000670500000964132N2    YWYIPLTC006400630015
BI00B32N2    2152103692     202112237114-4032                TERMINAL                 CCN000015000000015000FN00000000020210501000015000NNM   20211123163321    4P0P  00000750000000735000001063632N2    YWYIPLTC006400630017
BI00B32N2    2152103692     202112237116-1301                TERMINAL                 CCN000015000000015000FN00000000020210501000015000NNM   20211123163321    4P0P  00001500000000487500000772732N2    YWYIPLTC006400630015
BI00B32N2    2152103692     202112237116-1471                TERMINAL                 CCN000015000000015000FN00000000020210501000015000NNM   20211123163321    4P0P  00001500000000579000000867232N2    YWYIPLTC006400630015
BI00B32N2    2152103692     202112237116-4022                TERMINAL                 CCN000027000000027000FN00000000020210501000027000NNM   20211123163321    4P0P  00001350000000618300000903532N2    YWYIPLTC006400630015
BI00B32N2    2152103692     202112237116-4025                TERMINAL                 CCN000016000000016000FN00000000020210501000016000NNM   20211123163321    4P0P  00001600000000644800000975132N2    YWYIPLTC006400630017
BI00B32N2    2152103692     202112237116-4032                TERMINAL                 CCN000036000000036000FN00000000020210501000036000NNM   20211123163321    4P0P  00000600000000532800000818032N2    YWYIPLTC006400630015
BI00B32N2    2152103692     202112237116-6041                TERMINAL                 CCN000004500000004500FN00000000020210501000004500NNM   20211123163321    4P0P  00000450000000716000001009632N2    YWYIPLTC006400630015
BI00B32N2    2152103692     202112237183-2417                CONNECTOR HOUSING        CCN000004800000004800FN00000000020210501000004800NNM   20211123163321    4F0F  00000240000001137400001297732N2    YWYIPLTC005500360039
BI00B32N2    2152103692     202112237283-1144                CONNECTOR                CCN000002400000002400FN00000000020210501000002400NNM   20211123163321    4N0N  00000240000000602200000866132N2    YWYIPLTC005500360039
BI00B32N2    2152103692     202112237283-5846                HOUSING                  CCN000003000000003000FN00000000020210501000003000NNM   20211123163321    1N0N  00000150000000885000001102032N2    YWYIPLTC005600390040
BI00B32N2    2152103692     202112237286-3970                CONNECTOR HOUSING        CCN000002530000002530FN00000000020210501000002530NNM   20211123163321    1N0N  00000011000000977300001164032N2    YWYIPLTC005500360039
BI00B32N2    2152103692     202112237370-0309                J/B ASS'Y                CCN000002256000002256FN00000000020210501000002256NNM   20211123163321    1J0J  00000001600000870400001260032N2    YWYIPLTC005500360039
BI00B32N2    2152103692     202112237114-4231-02             TERMINAL                 CCN000108000000108000FN00000000020210501000108000NNM   20211123163321    4P0P  00001800000000554400000848032N2    YWYIPLTC006400630015
BI00B32N2    2152103692     202112237116-2891-02             TERMINAL                 CCN000015000000015000FN00000000020210501000015000NNM   20211123163321    4P0P  00001500000000982500001145932N2    YWYIPLTC005100280028
BI00B32N2    2152103692     202112237116-2893-02             TERMINAL                 CCN000024000000024000FN00000000020210501000024000NNM   20211123163321    4P0P  00001200000000895200001058632N2    YWYIPLTC005100280028
BI00B32N2    2152103692     202112237116-4231-02             TERMINAL                 CCN000182000000182000FN00000000020210501000182000NNM   20211123163321    4P0P  00002600000000683800001012532N2    YWYIPLTC006400630017
BI00B32N2    2152103692     202112237126-8853-02             TERMINAL                 CCN000015000000015000FN00000000020210501000015000NNM   20211123163321    4P0P  00000750000000562500000847732N2    YWYIPLTC006400630015
BI00B32N2    2152103692     202112237126-8854-02             TERMINAL                 CCN000007500000007500FN00000000020210501000007500NNM   20211123163321    4P0P  00000750000000604500000889732N2    YWYIPLTC006400630015
BI00B32N2    2152103692     202112237126-8855-02             TERMINAL                 CCN000006000000006000FN00000000020210501000006000NNM   20211123163321    4P0P  00000600000000510600000795832N2    YWYIPLTC006400630015
BI00B32N2    2152103692     202112237140-1977-30             UPPER COVER              CCN000001940000001940FN00000000020210501000001940NNM   20211123163321    1F0F  00000001000000099500000249532N2    YWYIPLTC005600390040
BI00B32N2    #2152103692    202112237114-4022                TERMINAL                 CCN000015000000015000FN00000000020210501000015000NNM   20211123163317    2F0P  00001500000000708000001120632N2    YWYIPLTC006400630015
BI00B32N2    #2152103692    202112237157-3646                RUBBER STOPPER           CCN000020000000020000FN00000000020210501000020000NNM   20211123163317    2H0H  00002000000000184000000255232N2    YWYIPLTC002700430014
BI00B32N2    #2152103692    202112237157-3821                RUBBER STOPPER           CCN000020000000020000FN00000000020210501000020000NNM   20211123163317    2C0C  00002000000000176000000238032N2    YWYIPLTC002700430014
BI00B32N2    #2152103692    202112237173-1070                CONNECTOR BRACKET        CCN000002400000002400FN00000000020210501000002400NNM   20211123163317    2F0F  00000120000000592400000968332N2    YWYIPLTC005500360039
BI00B32N2    #2152103692    202112237173-1071                BRACKET                  CCN000002400000002400FN00000000020210501000002400NNM   20211123163317    2F0F  00000120000001156800001388232N2    YWYIPLTC005600390040
BI00B32N2    #2152103692    202112237173-1516                SIDE BRACKET             CCN000002400000002400FN00000000020210501000002400NNM   20211123163317    2F0F  00000060000000960000001090032N2    YWYIPLTC005500360039
BI00B32N2    #2152103692    202112237174-0152                CONNECTOR                CCN000002450000002450FN00000000020210501000002450NNM   20211123163317    2F0F  00000035000000746400000918632N2    YWYIPLTC005500360039
BI00B32N2    #2152103692    202112237183-2412                HOUSING                  CCN000001600000001600FN00000000020210501000001600NNM   20211123163317    2F0F  00000160000001059200001245632N2    YWYIPLTC005500360039
BI00B32N2    #2152103692    202112237183-2414                CONNECTOR HOUSING        CCN000004800000004800FN00000000020210501000004800NNM   20211123163317    2F0F  00000480000000779200001061032N2    YWYIPLTC005500360039
BI00B32N2    #2152103692    202112237183-2511                HOUSING                  CCN000003200000003200FN00000000020210501000003200NNM   20211123163317    2F0F  00000160000000972200001242132N2    YWYIPLTC005500360039
BI00B32N2    #2152103692    202112237183-6320                HOUSING                  CCN000004800000004800FN00000000020210501000004800NNM   20211123163317    2F0F  00000480000000820800001103632N2    YWYIPLTC005500360039
BI00B32N2    #2152103692    202112237186-3971                CONNECTOR HOUSING        CCN000002400000002400FN00000000020210501000002400NNM   20211123163317    2F0F  00000240000001002200001191432N2    YWYIPLTC005500360039
BI00B32N2    #2152103692    202112237186-3973                CONNECTOR HOUSING        CCN000002400000002400FN00000000020210501000002400NNM   20211123163317    2F0F  00000240000001061800001232932N2    YWYIPLTC005500360039
BI00B32N2    #2152103692    202112237187-3356                JOINT CONNECTOR          CCN000015600000015600FN00000000020210501000015600NNM   20211123163317    2F0F  00000120000000759600001024432N2    YWYIPLTC005600390040
BI00B32N2    #2152103692    202112237187-3360                JOINT CONNECTOR          CCN000013200000013200FN00000000020210501000013200NNM   20211123163317    2F0F  00000120000000759600001026832N2    YWYIPLTC005600390040
BI00B32N2    #2152103692    202112237187-3970                CONNECTOR FLAME          CCN000001840000001840FN00000000020210501000001840NNM   20211123163317    2F0F  00000036800001414000001737332N2    YWYIPLTC005600390040
BI00B32N2    #2152103692    202112237187-3971                CONNECTOR HOUSING        CCN000002400000002400FN00000000020210501000002400NNM   20211123163317    2F0F  00000240000000928300001099532N2    YWYIPLTC005500360039
BI00B32N2    #2152103692    202112237187-3973                CONNECTOR HOUSING        CCN000002400000002400FN00000000020210501000002400NNM   20211123163317    2F0F  00000240000000901900001073132N2    YWYIPLTC005500360039
BI00B32N2    #2152103692    202112237282-3020                CONNECTOR                CCN000002000000002000FN00000000020210501000002000NNM   20211123163317    2N0N  00000100000000984000001145432N2    YWYIPLTC005500360039
BI00B32N2    #2152103692    202112237140-1978-30             LOWER COVER              CCN000001912000001912FN00000000020210501000001912NNM   20211123163317    2F0F  00000000800000207100000395132N2    YWYIPLTC005500360039
BI00B32N2    #2152103692    202112237186-3974-30             CONNECTOR HOUSING        CCN000002400000002400FN00000000020210501000002400NNM   20211123163317    2F0F  00000240000001062200001233432N2    YWYIPLTC005500360039
BI00B32N2    #2152103692    202112237186-3975-80             CONNECTOR HOUSING        CCN000002400000002400FN00000000020210501000002400NNM   20211123163317    2F0F  00000240000001065100001236332N2    YWYIPLTC005500360039
BI00B32N2    #2152103692    202112237186-3976-60             CONNECTOR HOUSING        CCN000002400000002400FN00000000020210501000002400NNM   20211123163317    2F0F  00000240000001065100001236332N2    YWYIPLTC005500360039
BI00B32N2    #2152103692    202112237186-3977-90             CONNECTOR HOUSING        CCN000002400000002400FN00000000020210501000002400NNM   20211123163317    2F0F  00000240000001068200001239432N2    YWYIPLTC005500360039
BI00B32N2    #2152103692    202112237187-3358-30             JOINT CONNECTOR          CCN000002400000002400FN00000000020210501000002400NNM   20211123163317    2F0F  00000120000000673200000940432N2    YWYIPLTC005600390040
BI00B32N2    #2152103692    202112237187-3975-80             CONNECTOR HOUSING        CCN000002400000002400FN00000000020210501000002400NNM   20211123163317    2F0F  00000240000000915800001087032N2    YWYIPLTC005500360039
BI00B32N2    #2152103692    202112237187-3976-60             CONNECTOR HOUSING        CCN000002400000002400FN00000000020210501000002400NNM   20211123163317    2F0F  00000240000000902200001073332N2    YWYIPLTC005500360039
BI00B32N2    @2152103692    202112237183-3190                JOINT CONNECTOR          CCN000018000000018000FN00000000020210501000018000NNM   20211123163319    3F0F  00000360000000457600000667832N2    YWYIPLTC005500360039
BI00B32N2    @2152103692    202112237283-1100                CONNECTOR ASS'Y          CCN000004800000004800FN00000000020210501000004800NNM   20211123163319    3N0N  00000160000000566500000799632N2    YWYIPLTC005500360039
BI00B32R4    HZYSW2201020   202112167116-1230                TERMINAL                 CCN000013500000013500FN00000000020220101000013500NNM   20211123180805    4P0P  00001350000000664200000952432R4    HZHZYME 006400630015
BI00B32R7    R-TAP210577    202112097158-3167-80             WIRE SEAL                CCN000160000000160000FN00000000020211201000160000NNED0720211123163425    1C0C  00002000000000048000000109032R7    IVYCIC  002700430014
BI00B32R7    #R-TAP210578   202112167174-1760-50             CAP                      CCN000015000000015000FN00000000020211201000015000NNED0720211123163509    2F0F  00000300000000813600000922632R7    IVYCIC  005400370024
BI00B32U5    DI2006         202201287289-3342                HOUSING FEMALE ASS'Y     CCN000016800000016800FN00000000020220301000016800NNMD0420211123123645U5  1N0N  00000240000000686400000901432U5    AMAMSD  005500360039
BI00B32U5    DI2006         202201287289-3342-30             HOUSING FEMALE ASS'Y     CCN000028800000028800FN00000000020220301000028800NNMD0420211123123645U5  1N0N  00000240000000686400000901432U5    AMAMSD  005500360039
BI00B32U5    #DI2006        202202257172-5629-80             RUBBER STOPPER           CCN000200000000200000FN00000000020220301000200000NNMD0420211123163206U5  2H0H  00002000000000060000000111132U5    AMAMSD  004300270014
BI00B32U5    #DI2006        202203257172-5630-40             RUBBER STOPPER           CCN000380000000380000FN00000000020220301000380000NNMD0420211123163230U5  2H0H  00002000000000044000000095132U5    AMAMSD  004300270014
BI00A32W4    4500181622     202111267126-8853-02             TERMINAL                 CCN000277500000232500FN00000000020211101000232500NNEM0020211123181936W4594P0P  00000750000000562500000847732W459  HJYHK   006400630015
BI00A32W4    4500181622     202111267126-8854-02             TERMINAL                 CCN000217500000195000FN00000000020211101000195000NNEM0020211123181936W4594P0P  00000750000000604500000889732W459  HJYHK   006400630015
BI00A32W4    4500181622     202111267126-8855-02             TERMINAL                 CCN000240000000216000FN00000000020211101000216000NNEM0020211123181936W4594P0P  00000600000000510600000795832W459  HJYHK   006400630015
BI00B32W4    4500184418     202112237116-4122-02             TERMINAL                 CCN000004500000004500FN00000000020211201000004500NNE   20211123163705W48 4P0P  00000450000000656600000950232W48   HJYHK   006400630015
BI00B32W4    4500184418     202112237116-4025                TERMINAL                 CCN000016000000016000FN00000000020211201000016000NNE   20211123163705W48 4P0P  00001600000000644800000975132W48   HJYHK   006400630017
BI00B32W4    4500184418     202112237116-4121-02             TERMINAL                 CCN000018000000018000FN00000000020211201000018000NNE   20211123163705W48 4P0P  00000450000000618800000912432W48   HJYHK   006400630015
BI00B32W4    4500184418     202112237158-3166-60             WIRE SEAL                CCN000080000000080000FN00000000020211201000080000NNE   20211123163705W48 1C0C  00004000000000104000000152432W48   HJYHK   002700430014
BI00B32W4    4500184418     202112237222-6244-40             CONNECTOR                CCN000002400000002400FN00000000020211201000002400NNE   20211123163705W48 4N0N  00000080000001239200001422032W48   HJYHK   005600390040
BI00B32W4    4500184418     202112237289-7615-30             HOUSING FEMALE ASS'Y     CCN000002240000002240FN00000000020211201000002240NNE   20211123163705W48 4N0N  00000032000000738000000948032W48   HJYHK   005400370024
BI00B32W4    #4500184418    202112237158-3121-80             WIRE SEAL                CCN000040000000040000FN00000000020211201000040000NNE   20211123163656W48 2C0C  00002000000000118000000187332W48   HJYHK   002700430014
BI00B32W4    #4500184418    202112237123-6423-30             CONNECTOR                CCN000004000000004000FN00000000020211201000004000NNE   20211123163656W48 2F0F  00000200000001002000001167632W48   HJYHK   005600390023
BI00B32W4    #4500184418    202112237157-3952-80             RUBBER STOPPER           CCN000010000000010000FN00000000020211201000010000NNE   20211123163656W48 2C0C  00001000000000117000000175032W48   HJYHK   002700430014
BI00B32W4    4500184419     202112237116-4120-02             TERMINAL                 CCN000006000000006000FN00000000020211201000006000NNE   20211123163720W48 4P0P  00000600000000780000001073632W48   HJYHK   006400630015
BI00B32W4    4500184419     202112237116-1230                TERMINAL                 CCN000013500000013500FN00000000020211201000013500NNE   20211123163720W48 4P0P  00001350000000664200000952432W48   HJYHK   006400630015
BI00B32W4    4500184419     202112237116-4122-02             TERMINAL                 CCN000004500000004500FN00000000020211201000004500NNE   20211123163720W48 4P0P  00000450000000656600000950232W48   HJYHK   006400630015
BI00B32W4    4500184419     202112237116-4025                TERMINAL                 CCN000016000000016000FN00000000020211201000016000NNE   20211123163720W48 4P0P  00001600000000644800000975132W48   HJYHK   006400630017
BI00B32W4    4500184419     202112237116-4121-02             TERMINAL                 CCN000013500000013500FN00000000020211201000013500NNE   20211123163720W48 4P0P  00000450000000618800000912432W48   HJYHK   006400630015
BI00B32W4    4500184419     202112237222-6244-40             CONNECTOR                CCN000003200000003200FN00000000020211201000003200NNE   20211123163720W48 4N0N  00000080000001239200001422032W48   HJYHK   005600390040
BI00B32W4    4500184419     202112237289-7615-30             HOUSING FEMALE ASS'Y     CCN000002240000002240FN00000000020211201000002240NNE   20211123163720W48 4N0N  00000032000000738000000948032W48   HJYHK   005400370024
BI00B32W4    4500184419     202112237172-1372-10             FRONT HOLDER             CCN000003900000003900FN00000000020211201000003900NNE   20211123163720W48 4F0F  00000390000000655200000955232W48   HJYHK   005500360039
BI00B32W4    #4500184419    202112237123-6423-30             CONNECTOR                CCN000002000000002000FN00000000020211201000002000NNE   20211123163723W48 2F0F  00000200000001002000001167632W48   HJYHK   005600390023
BI00B32W4    #4500184419    202112237158-3003-90             RUBBER STOPPER           CCN000040000000040000FN00000000020211201000040000NNE   20211123163723W48 2C0C  00002000000000250000000306032W48   HJYHK   002700430014
BI00B32W4    4500184420     202112167289-7615-30             HOUSING FEMALE ASS'Y     CCN000002240000002240FN00000000020211201000002240NNE   20211123163742W48 4N0N  00000032000000738000000948032W48   HJYHK   005400370024
BI00B32W4    4500184420     202112167283-1156                CONNECTOR                CCN000000800000000800FN00000000020211201000000800NNE   20211123163742W48 4N0N  00000080000000877600001078032W48   HJYHK   005600390040
BI00B32W4    #4500184420    202112167158-3003-90             RUBBER STOPPER           CCN000040000000040000FN00000000020211201000040000NNE   20211123163740W48 2C0C  00002000000000250000000306032W48   HJYHK   002700430014
BI00B32W4    #4500184421    202112097158-3003-90             RUBBER STOPPER           CCN000060000000060000FN00000000020211201000060000NNE   20211123163753W48 2C0C  00002000000000250000000306032W48   HJYHK   002700430014
BI00B32W4    #4500184422    202112097158-3003-90             RUBBER STOPPER           CCN000020000000020000FN00000000020211201000020000NNE   20211123163803W48 2C0C  00002000000000250000000306032W48   HJYHK   002700430014
BI00A32W4    4500184402     202201137116-4025                TERMINAL                 CCN000016000000016000FN00000000020220101000016000NNE   20211123163825W4N24P0P  00001600000000644800000975132W4N2  HJYHK-J 006400630017
BI00A32W4    4500184403     202112237114-4112-02             TERMINAL                 CCN000009000000009000FN00000000020220101000009000NNE   20211123163836W4N24P0P  00000900000000598500000927132W4N2  HJYHK-J 006400630017
BI00A32W4    4500184403     202112237116-4111-02             TERMINAL                 CCN000007500000007500FN00000000020220101000007500NNE   20211123163836W4N24P0P  00000750000000529500000817732W4N2  HJYHK-J 006400630015
BI00A32W4    4500184403     202112237116-4104-02             TERMINAL                 CCN000012000000012000FN00000000020220101000012000NNE   20211123163836W4N24P0P  00001200000000580800000972432W4N2  HJYHK-J 006400630015
BI00A32W4    4500184403     202112237114-4101-02             TERMINAL                 CCN000015000000015000FN00000000020220101000015000NNE   20211123163836W4N24P0P  00001500000000675000001003632W4N2  HJYHK-J 006400630017
BI00A32W4    4500184404     202112237283-8720-30             HOUSING FEMALE           CCN000012000000012000FN00000000020220101000012000NNE   20211123163854W4N24N0N  00000240000000744700000889732W4N2  HJYHK-J 005400370024
BI00B32W4    4500184415     202201207116-4120-02             TERMINAL                 CCN000006000000006000FN00000000020220101000006000NNE   20211123163925W48 4P0P  00000600000000780000001073632W48   HJYHK   006400630015
BI00B32W4    4500184415     202201207116-4025                TERMINAL                 CCN000016000000016000FN00000000020220101000016000NNE   20211123163925W48 4P0P  00001600000000644800000975132W48   HJYHK   006400630017
BI00B32W4    4500184415     202201207116-4121-02             TERMINAL                 CCN000013500000013500FN00000000020220101000013500NNE   20211123163925W48 4P0P  00000450000000618800000912432W48   HJYHK   006400630015
BI00B32W4    4500184415     202201207158-3166-60             WIRE SEAL                CCN000040000000040000FN00000000020220101000040000NNE   20211123163925W48 1C0C  00004000000000104000000152432W48   HJYHK   002700430014
BI00B32W4    #4500184415    202201207123-6423-30             CONNECTOR                CCN000002000000002000FN00000000020220101000002000NNE   20211123163922W48 2F0F  00000200000001002000001167632W48   HJYHK   005600390023
BI00B32W4    @4500184415    202201207123-4312-80             HOUSING                  CCN000004800000004800FN00000000020220101000004800NNE   20211123163924W48 3F0F  00000080000000644200000794032W48   HJYHK   005500360039
BI00B32W4    4500184416     202201137116-4120-02             TERMINAL                 CCN000006000000006000FN00000000020220101000006000NNE   20211123164034W48 4P0P  00000600000000780000001073632W48   HJYHK   006400630015
BI00B32W4    4500184416     202201137116-1231                TERMINAL                 CCN000012000000012000FN00000000020220101000012000NNE   20211123164034W48 4P0P  00001200000000633600000921832W48   HJYHK   006400630015
BI00B32W4    4500184416     202201137116-4121-02             TERMINAL                 CCN000013500000013500FN00000000020220101000013500NNE   20211123164034W48 4P0P  00000450000000618800000912432W48   HJYHK   006400630015
BI00B32W4    4500184416     202201137158-3166-60             WIRE SEAL                CCN000040000000040000FN00000000020220101000040000NNE   20211123164034W48 1C0C  00004000000000104000000152432W48   HJYHK   002700430014
BI00B32W4    4500184416     202201137116-5044-02             TERMINAL                 CCN000016000000016000FN00000000020220101000016000NNE   20211123164034W48 4P0P  00001600000000641600000986332W48   HJYHK   006400630017
BI00B32W4    4500184416     202201137222-6244-40             CONNECTOR                CCN000002400000002400FN00000000020220101000002400NNE   20211123164034W48 4N0N  00000080000001239200001422032W48   HJYHK   005600390040
BI00B32W4    4500184416     202201137289-7615-30             HOUSING FEMALE ASS'Y     CCN000002240000002240FN00000000020220101000002240NNE   20211123164034W48 4N0N  00000032000000738000000948032W48   HJYHK   005400370024
BI00B32W4    #4500184416    202201137158-3121-80             WIRE SEAL                CCN000040000000040000FN00000000020220101000040000NNE   20211123164016W48 2C0C  00002000000000118000000187332W48   HJYHK   002700430014
BI00B32W4    #4500184416    202201137123-6423-30             CONNECTOR                CCN000002000000002000FN00000000020220101000002000NNE   20211123164016W48 2F0F  00000200000001002000001167632W48   HJYHK   005600390023
BI00B32W4    #4500184416    202201137157-3952-80             RUBBER STOPPER           CCN000010000000010000FN00000000020220101000010000NNE   20211123164016W48 2C0C  00001000000000117000000175032W48   HJYHK   002700430014
BI00B32W4    @4500184416    202201137123-4312-80             HOUSING                  CCN000004000000004000FN00000000020220101000004000NNE   20211123164033W48 3F0F  00000080000000644200000794032W48   HJYHK   005500360039
BI00B32W4    4500184417     202201067116-4120-02             TERMINAL                 CCN000006000000006000FN00000000020220101000006000NNE   20211123164100W48 4P0P  00000600000000780000001073632W48   HJYHK   006400630015
BI00B32W4    4500184417     202201067116-1230                TERMINAL                 CCN000013500000013500FN00000000020220101000013500NNE   20211123164100W48 4P0P  00001350000000664200000952432W48   HJYHK   006400630015
BI00B32W4    4500184417     202201067116-4122-02             TERMINAL                 CCN000004500000004500FN00000000020220101000004500NNE   20211123164100W48 4P0P  00000450000000656600000950232W48   HJYHK   006400630015
BI00B32W4    4500184417     202201067116-4025                TERMINAL                 CCN000016000000016000FN00000000020220101000016000NNE   20211123164100W48 4P0P  00001600000000644800000975132W48   HJYHK   006400630017
BI00B32W4    4500184417     202201067116-4121-02             TERMINAL                 CCN000018000000018000FN00000000020220101000018000NNE   20211123164100W48 4P0P  00000450000000618800000912432W48   HJYHK   006400630015
BI00B32W4    4500184417     202201067158-3070-80             RUBBER STOPPER           CCN000040000000040000FN00000000020220101000040000NNE   20211123164100W48 1C0C  00004000000000276000000333332W48   HJYHK   002700430014
BI00B32W4    4500184417     202201067158-3166-60             WIRE SEAL                CCN000080000000080000FN00000000020220101000080000NNE   20211123164100W48 1C0C  00004000000000104000000152432W48   HJYHK   002700430014
BI00B32W4    4500184417     202201067222-6244-40             CONNECTOR                CCN000002400000002400FN00000000020220101000002400NNE   20211123164100W48 4N0N  00000080000001239200001422032W48   HJYHK   005600390040
BI00B32W4    4500184417     202201067289-7615-30             HOUSING FEMALE ASS'Y     CCN000002240000002240FN00000000020220101000002240NNE   20211123164100W48 4N0N  00000032000000738000000948032W48   HJYHK   005400370024
BI00B32W4    4500184417     202201067172-1372-10             FRONT HOLDER             CCN000003900000003900FN00000000020220101000003900NNE   20211123164100W48 4F0F  00000390000000655200000955232W48   HJYHK   005500360039
BI00B32W4    4500184417     202201067283-1156                CONNECTOR                CCN000000800000000800FN00000000020220101000000800NNE   20211123164100W48 4N0N  00000080000000877600001078032W48   HJYHK   005600390040
BI00B32W4    #4500184417    202201067157-3950-80             SEAL RUBBER              CCN000040000000040000FN00000000020220101000040000NNE   20211123164057W48 2C0C  00004000000000154000000440332W48   HJYHK   002700430014
BI00B32W4    #4500184417    202201067123-6423-30             CONNECTOR                CCN000002000000002000FN00000000020220101000002000NNE   20211123164057W48 2F0F  00000200000001002000001167632W48   HJYHK   005600390023
BI00B32W4    #4500184417    202201067158-3004-40             RUBBER STOPPER           CCN000020000000020000FN00000000020220101000020000NNE   20211123164057W48 2C0C  00002000000000234000000306332W48   HJYHK   002700430014
BI00B32W4    @4500184417    202201067123-4312-80             HOUSING                  CCN000000800000000800FN00000000020220101000000800NNE   20211123164059W48 3F0F  00000080000000644200000794032W48   HJYHK   005500360039
BI00A32W4    4500184466     202201277114-1475                TERMINAL                 CCN000013500000013500FN00000000020220101000013500NNE   20211123164111W4804P0P  00001350000000480600000774232W480  HJYHK-J 006400630015
BI00B32W4    4500184414     202202037116-4104-02             TERMINAL                 CCN000012000000012000FN00000000020220201000012000NNE   20211123164121W48 4P0P  00001200000000580800000972432W48   HJYHK   006400630015
BI00A32W6    SW21113QMW     202111247327-6832-60             MAIN FUSE                CCN000006600000006600FN00000000020211101000006600NNM00020211123123645    4N0N  00000060000000729200000930732W6    SYSYA-WJ005400370024
BI00B32W6    #SW2110BQMW    202112017172-5629-80             RUBBER STOPPER           CCN000200000000000000FY00000000020211001000000000NNEQ0820211123151229    2H0H  00002000000000060000000111132W6    SYSYA-WJ004300270014
BI00B32W6    SW21122QMW     202111257C89-6868-30             SEALED ASSY FEMALE       CCN000025200000025200FN00000000020211201000025200NNM00020211123123645    4N0N  00000252000000839200001119232W6    SYSYA-WJ005500360039
BI00A32W6    SW21121QMW     202111227289-6547                HOUSING FEMALE ASS'Y     PCN000007200000007200FY00000720020211201000000000NNM00020211123134455    1N0N  00000240000001152000001362032W6    SYSYA-WJ005500360039
BI00B32W6    #SW21123QMW    202111177172-5629-80             RUBBER STOPPER           CCN000200000000000000FY00000000020211201000000000NNMQ0820211123151255    2H0H  00002000000000060000000111132W6    SYSYA-WJ004300270014
BI00B32W9    4500181330     202111307114-4231-02             TERMINAL                 CCN000072000000072000FN00000000020211201000072000NNED0020211123164402W9  4P0P  00001800000000554400000848032W9    HKYHK   006400630015
BI00B32W9    4500181330     202111307158-3168-80             SEALED                   CCN000020000000020000FN00000000020211201000020000NNED0020211123143108W9  1C0C  00002000000000044000000092132W9    HKYHK   004300260014
BI00A32X5    TIB1048        202111247388-2978-30             HOUSING MALE ASS'Y       PCN000011040000004800FN00000000020220101000004800NNMM0020211123161938X5  1N0N  00000048000000742000001122032X5    EPYNA-E 005500360039
BI00B32X5    TIB2006        202202117288-6547                CONNECTOR MALE ASS'Y     CCN000021750000021750FN00000000020220301000021750NNMD0420211123123645X5  4N0N  00000075000001205300001340332X5    EPYNA-E 005400370024
BI00B32X5    TIB2006        202201217289-6547                HOUSING FEMALE ASS'Y     CCN000024000000024000FN00000000020220301000024000NNMD0420211123160134X5  1N0N  00000240000001152000001362032X5    EPYNA-E 005500360039
BI00B32X5    TIB2006        202201147283-4855-40             CONNECTOR HOUSING        CCN000002400000002400FN00000000020220301000002400NNMD0420211123123645X5  4N0N  00000240000001188400001400032X5    EPYNA-E 005600360039
BI00B32X5    TIB2006        202203257289-3342-30             HOUSING FEMALE ASS'Y     CCN000093600000024000FN00000000020220301000024000NNMD0420211123123645X5  1N0N  00000240000000686400000901432X5    EPYNA-E 005500360039
BI00B32X5    #TIB2006       202201287158-3007-10             RUBBER STOPPER           CCN000200000000200000FN00000000020220301000200000NNMD0420211123163427X5  2H0H  00002000000000308000000362732X5    EPYNA-E 002700430014
BI00B32X5    #TIB2006       202202047172-5629-80             RUBBER STOPPER           CCN000420000000420000FN00000000020220301000420000NNMD0420211123163446X5  2H0H  00002000000000060000000111132X5    EPYNA-E 004300270014
BI00B32X5    #TIB2006       202204017172-5630-40             RUBBER STOPPER           CCN000240000000240000FN00000000020220301000240000NNMD0420211123163505X5  2H0H  00002000000000044000000095132X5    EPYNA-E 004300270014
BI00B32X5    TIB2006        202204017289-3342-30             HOUSING FEMALE ASS'Y     CCN000024000000024000FN00000000020220301000024000NNMD0420211123123645X5  1N0N  00000240000000686400000901432X5    EPYNA-E 005500360039
BI00B32X5    TIB2006        202204087289-3342-30             HOUSING FEMALE ASS'Y     CCN000024000000024000FN00000000020220301000024000NNMD0420211123123645X5  1N0N  00000240000000686400000901432X5    EPYNA-E 005500360039
BI00B32X5    TIB2006        202204227289-3342-30             HOUSING FEMALE ASS'Y     CCN000021600000021600FN00000000020220301000021600NNMD0420211123123645X5  1N0N  00000240000000686400000901432X5    EPYNA-E 005500360039
BI00A32X5    TIB1048        202111237388-2978-30             HOUSING MALE ASS'Y       CCN000006240000006240FY00000624020220101000000000NNMM0020211123161938X5  1N0N  00000048000000742000001122032X5    EPYNA-E 005500360039
