BI00A32D1    @DFTW2207A     20211124181E48072ZZ              CAVSAS-S 0.3X2 GY/G      CCN000000700000000700FN00000000020211101000000700NNE   20211123135703    1W    00000035000001998600000000032D1    TOYOT-K 000000000000KN41A024
BI00B32D1    DFTW2207       2021122318000004534              AV 8 B/W                 CCN000010800000010800FN00000000020220201000010800NNM   20211123103639    1W    00000010000009148000000000032D1    TOYOT-K 000000000000KO11C040
BI00B32D1    DFTW2207       2021122318000004535              AV 8 B/R                 CCN000010200000010200FN00000000020220201000010200NNM   20211123103639    1W    00000010000009148000000000032D1    TOYOT-K 000000000000KO11C039
BI00B32D1    DFTW2207       2021122318000004540              AV 8 W                   CCN000018800000018800FN00000000020220201000018800NNM   20211123103639    1W    00000010000009148000000000032D1    TOYOT-K 000000000000KO11C042
BI00B32D1    DFTW2207       2021122318000004543              AV 8 W/B                 CCN000021100000021100FN00000000020220201000021100NNM   20211123103639    1W    00000010000009148000000000032D1    TOYOT-K 000000000000KO11C043
BI00B32D1    DFTW2207       2021122318000004550              AV 8 R                   CCN000003400000003400FN00000000020220201000003400NNM   20211123103639    1W    00000010000009148000000000032D1    TOYOT-K 000000000000KO11C041
BI00B32D1    @DFTW2207      20211223181AD2002ZZ              CIVUSAS-S 0.35X2 B       CCN000027000000027000FN00000000020220201000027000NNM   20211123103638    1W    00000045000001714000000000032D1    TOYOT-K 000000000000KO11C012
BI00B32D1    @DFTW2207      20211223181AD2003ZZ              CIVUSAS-S 0.35X3 B       CCN000009100000009100FN00000000020220201000009100NNM   20211123103638    1W    00000035000002209700000000032D1    TOYOT-K 000000000000KO11C013
BI00B32D1    @DFTW2207      20211223181AD2004ZZ              CIVUSAS-S 0.35X4 B       CCN000042600000042600FN00000000020220201000042600NNM   20211123103638    1W    00000030000002784000000000032D1    TOYOT-K 000000000000KO11C014
BI00B32D1    @DFTW2207      20211223181E48031ZZ              CAVSAS-S 0.3X2 GY        CCN000013300000013300FN00000000020220201000013300NNM   20211123103638    1W    00000035000001998600000000032D1    TOYOT-K 000000000000KO11C015
BI00B32D1    @DFTW2207      20211223181E48037ZZ              CAVSAS-S 0.3X4 GY        CCN000018250000018250FN00000000020220201000018250NNM   20211123103638    1W    00000025000003340000000000032D1    TOYOT-K 000000000000KO11C018
BI00B32D1    @DFTW2207      20211223181E48041ZZ              CAVSAS-S 0.3X2 GY/R      CCN000016800000016800FN00000000020220201000016800NNM   20211123103638    1W    00000035000001998600000000032D1    TOYOT-K 000000000000KO11C017
BI00B32D1    @DFTW2207      20211223181E48072ZZ              CAVSAS-S 0.3X2 GY/G      CCN000001050000001050FN00000000020220201000001050NNM   20211123103638    1W    00000035000001998600000000032D1    TOYOT-K 000000000000KO11C016
BI00B32D1    @DFTW2207      20211223181E50002ZZ              AVSSCS-S 0.3FX2 DGY/G    CCN000019250000019250FN00000000020220201000019250NNM   20211123103638    1W    00000035000001997000000000032D1    TOYOT-K 000000000000KO11C024
BI00B32D1    @DFTW2207      20211223181E50004ZZ              AVSSCS-S 0.5FX1 DGY      CCN000021200000021200FN00000000020220201000021200NNM   20211123103638    1W    00000040000001817000000000032D1    TOYOT-K 000000000000KO11C019
BI00B32D1    @DFTW2207      20211223181E50005ZZ              AVSSCS-S 0.5FX1 DGY/W    CCN000004800000004800FN00000000020220201000004800NNM   20211123103638    1W    00000040000001817000000000032D1    TOYOT-K 000000000000KO11C022
BI00B32D1    @DFTW2207      20211223181E50007ZZ              AVSSCS-S 0.5FX1 DGY/L    CCN000010800000010800FN00000000020220201000010800NNM   20211123103638    1W    00000040000001817000000000032D1    TOYOT-K 000000000000KO11C020
BI00B32D1    @DFTW2207      20211223181E50014ZZ              AVSSCS-S 0.5FX1 DGY/R    CCN000002000000002000FN00000000020220201000002000NNM   20211123103638    1W    00000040000001817000000000032D1    TOYOT-K 000000000000KO11C021
BI00B32D1    @DFTW2207      20211223181E50020ZZ              AVSSCS-S 0.3FX2 DGY/R    CCN000011900000011900FN00000000020220201000011900NNM   20211123103638    1W    00000035000001997000000000032D1    TOYOT-K 000000000000KO11C026
BI00B32D1    @DFTW2207      20211223181E50021ZZ              AVSSCS-S 0.3FX2 DGY/P    CCN000012950000012950FN00000000020220201000012950NNM   20211123103638    1W    00000035000001997000000000032D1    TOYOT-K 000000000000KO11C025
BI00B32D1    @DFTW2207      20211223181E50036ZZ              AVSSCS-S 0.3FX2 DGY      CCN000012950000012950FN00000000020220201000012950NNM   20211123103638    1W    00000035000001997000000000032D1    TOYOT-K 000000000000KO11C023
BI00B32D2    DGTW2207       2021122318000004530              AV 8 B                   CCN000064900000064900FN00000000020220201000064900NNM   20211123105224    1W    00000010000009148000000000032D2    TGYOT-G 000000000000KR11C035
BI00B32D2    DGTW2207       2021122318000004540              AV 8 W                   CCN000016100000016100FN00000000020220201000016100NNM   20211123105224    1W    00000010000009148000000000032D2    TGYOT-G 000000000000KR11C037
BI00B32D2    DGTW2207       2021122318000004543              AV 8 W/B                 CCN000017800000017800FN00000000020220201000017800NNM   20211123105224    1W    00000010000009148000000000032D2    TGYOT-G 000000000000KR11C038
BI00B32D2    DGTW2207       2021122318000004590              AV 8 L                   CCN000011700000011700FN00000000020220201000011700NNM   20211123105224    1W    00000010000009148000000000032D2    TGYOT-G 000000000000KR11C036
BI00B32D2    @DGTW2207      20211223181AD2002ZZ              CIVUSAS-S 0.35X2 B       CCN000044100000044100FN00000000020220201000044100NNM   20211123105223    1W    00000045000001714000000000032D2    TGYOT-G 000000000000KR11C010
BI00B32D2    @DGTW2207      20211223181AD2003ZZ              CIVUSAS-S 0.35X3 B       CCN000023100000023100FN00000000020220201000023100NNM   20211123105223    1W    00000035000002209700000000032D2    TGYOT-G 000000000000KR11C011
BI00B32D2    @DGTW2207      20211223181AD2004ZZ              CIVUSAS-S 0.35X4 B       CCN000029700000029700FN00000000020220201000029700NNM   20211123105223    1W    00000030000002784000000000032D2    TGYOT-G 000000000000KR11C012
BI00B32D2    @DGTW2207      20211223181E48037ZZ              CAVSAS-S 0.3X4 GY        CCN000007000000007000FN00000000020220201000007000NNM   20211123105223    1W    00000025000003340000000000032D2    TGYOT-G 000000000000KR11C013
BI00B32D2    @DGTW2207      20211223181E50004ZZ              AVSSCS-S 0.5FX1 DGY      CCN000026000000026000FN00000000020220201000026000NNM   20211123105223    1W    00000040000001817000000000032D2    TGYOT-G 000000000000KR11C014
BI00B32D2    @DGTW2207      20211223181E50005ZZ              AVSSCS-S 0.5FX1 DGY/W    CCN000016000000016000FN00000000020220201000016000NNM   20211123105223    1W    00000040000001817000000000032D2    TGYOT-G 000000000000KR11C016
BI00B32D2    @DGTW2207      20211223181E50007ZZ              AVSSCS-S 0.5FX1 DGY/L    CCN000005600000005600FN00000000020220201000005600NNM   20211123105223    1W    00000040000001817000000000032D2    TGYOT-G 000000000000KR11C015
BI00B32D2    @DGTW2207      20211223181E50016ZZ              AVSSCS-S 0.5FX2 DGY/R    CCN000006600000006600FN00000000020220201000006600NNM   20211123105223    1W    00000030000002072000000000032D2    TGYOT-G 000000000000KR11C017
BI00B32D2    @DGTW2207      20211223181E50036ZZ              AVSSCS-S 0.3FX2 DGY      CCN000005950000005950FN00000000020220201000005950NNM   20211123105223    1W    00000035000001997000000000032D2    TGYOT-G 000000000000KR11C018
BI00B32D2    @DGTW2207      20211223181F21014ZZ              AVSSHCS-S 0.5FX2 B/L     CCN000012000000012000FN00000000020220201000012000NNM   20211123105223    1W    00000030000002505800000000032D2    TGYOT-G 000000000000KR11C020
BI00B32D2    @DGTW2207      20211223181F21016ZZ              AVSSHCS-S 0.5FX2 B/BR    CCN000005400000005400FN00000000020220201000005400NNM   20211123105223    1W    00000030000002505800000000032D2    TGYOT-G 000000000000KR11C019
BI00B32D2    @DGTW2207      20211223181F21031ZZ              AVSSHCS-S 1.25FX2 B/P    CCN000005600000005600FN00000000020220201000005600NNM   20211123105223    1W    00000020000004262000000000032D2    TGYOT-G 000000000000KR11C021
BI00B32G2    @SA22011NMW    20211201181B32102Z8              AVSSCS 0.5FX2 DGY/O      CCN000000300000000300FN00000000020220101000000300NNM   20211123101952    1W    00000030000002779000000000032G2    AISUAI  000000000000IW31B001
BI00B32G2    SA22011 MW     202112011801W003960              IVSSH 0.5F G             CCN000055800000055800FN00000000020220101000055800NNM   20211123102139    1W    00000180000000625000000000032G2    AISUAI  000000000000IX31B024
BI00B32G2    SA22013 MW     202112221801W003960              IVSSH 0.5F G             CCN000036000000036000FN00000000020220101000036000NNM   20211123102139    1W    00000180000000625000000000032G2    AISUAI  000000000000IX11C023
BI00B32G2    SA22014 MW     202112291801W003960              IVSSH 0.5F G             CCN000036000000036000FN00000000020220101000036000NNM   20211123102139    1W    00000180000000625000000000032G2    AISUAI  000000000000IX21C021
BI00B32G2    SA22011 MW     202112011801W003990              IVSSH 0.5F L             CCN000055800000055800FN00000000020220101000055800NNM   20211123102139    1W    00000180000000625000000000032G2    AISUAI  000000000000IX31B025
BI00B32G2    SA22013 MW     202112221801W003990              IVSSH 0.5F L             CCN000036000000036000FN00000000020220101000036000NNM   20211123102139    1W    00000180000000625000000000032G2    AISUAI  000000000000IX11C024
BI00B32G2    SA22014 MW     202112291801W003990              IVSSH 0.5F L             CCN000036000000036000FN00000000020220101000036000NNM   20211123102139    1W    00000180000000625000000000032G2    AISUAI  000000000000IX21C022
BI00B32G2    SA22011 MW     202112011801W004030              IVSSH 0.75F B            CCN000013000000013000FN00000000020220101000013000NNM   20211123102139    1W    00000130000000882000000000032G2    AISUAI  000000000000IX31B026
BI00B32G2    SA22013 MW     202112221801W004030              IVSSH 0.75F B            CCN000010400000010400FN00000000020220101000010400NNM   20211123102139    1W    00000130000000882000000000032G2    AISUAI  000000000000IX11C025
BI00B32G2    SA22014 MW     202112291801W004030              IVSSH 0.75F B            CCN000005200000005200FN00000000020220101000005200NNM   20211123102139    1W    00000130000000882000000000032G2    AISUAI  000000000000IX21C023
BI00B32G2    SA22011 MW     202112011801W004041              IVSSH 0.75F GY           CCN000005200000005200FN00000000020220101000005200NNM   20211123102139    1W    00000130000000882000000000032G2    AISUAI  000000000000IX31B027
BI00B32G2    SA22013 MW     202112221801W004041              IVSSH 0.75F GY           CCN000002600000002600FN00000000020220101000002600NNM   20211123102139    1W    00000130000000882000000000032G2    AISUAI  000000000000IX11C026
BI00B32G2    SA22014 MW     202112291801W004041              IVSSH 0.75F GY           CCN000001300000001300FN00000000020220101000001300NNM   20211123102139    1W    00000130000000882000000000032G2    AISUAI  000000000000IX21C024
BI00B32G2    SA22011 MW     202112011801W004043              IVSSH 0.75F W/B          CCN000010400000010400FN00000000020220101000010400NNM   20211123102139    1W    00000130000000882000000000032G2    AISUAI  000000000000IX31B028
BI00B32G2    SA22013 MW     202112221801W004043              IVSSH 0.75F W/B          CCN000009100000009100FN00000000020220101000009100NNM   20211123102139    1W    00000130000000882000000000032G2    AISUAI  000000000000IX11C027
BI00B32G2    SA22014 MW     202112291801W004043              IVSSH 0.75F W/B          CCN000003900000003900FN00000000020220101000003900NNM   20211123102139    1W    00000130000000882000000000032G2    AISUAI  000000000000IX21C025
BI00B32G2    SA22011 MW     202112011801W006930              IVSSH 0.35F B            CCN000030000000030000FN00000000020220101000030000NNM   20211123102139    1W    00000250000000452000000000032G2    AISUAI  000000000000IX31B029
BI00B32G2    SA22013 MW     202112221801W006930              IVSSH 0.35F B            CCN000022500000022500FN00000000020220101000022500NNM   20211123102139    1W    00000250000000452000000000032G2    AISUAI  000000000000IX11C028
BI00B32G2    SA22014 MW     202112291801W006930              IVSSH 0.35F B            CCN000017500000017500FN00000000020220101000017500NNM   20211123102139    1W    00000250000000452000000000032G2    AISUAI  000000000000IX21C026
BI00B32G2    SA22011 MW     202112011801W006941              IVSSH 0.35F GY           CCN000020000000020000FN00000000020220101000020000NNM   20211123102139    1W    00000250000000452000000000032G2    AISUAI  000000000000IX31B031
BI00B32G2    SA22013 MW     202112221801W006941              IVSSH 0.35F GY           CCN000017500000017500FN00000000020220101000017500NNM   20211123102139    1W    00000250000000452000000000032G2    AISUAI  000000000000IX11C030
BI00B32G2    SA22014 MW     202112291801W006941              IVSSH 0.35F GY           CCN000010000000010000FN00000000020220101000010000NNM   20211123102139    1W    00000250000000452000000000032G2    AISUAI  000000000000IX21C028
BI00B32G2    SA22011 MW     202112011801W006960              IVSSH 0.35F G            CCN000020000000020000FN00000000020220101000020000NNM   20211123102139    1W    00000250000000452000000000032G2    AISUAI  000000000000IX31B030
BI00B32G2    SA22013 MW     202112221801W006960              IVSSH 0.35F G            CCN000010000000010000FN00000000020220101000010000NNM   20211123102139    1W    00000250000000452000000000032G2    AISUAI  000000000000IX11C029
BI00B32G2    SA22014 MW     202112291801W006960              IVSSH 0.35F G            CCN000010000000010000FN00000000020220101000010000NNM   20211123102139    1W    00000250000000452000000000032G2    AISUAI  000000000000IX21C027
BI00B32G2    SA22011 MW     202112011801W006990              IVSSH 0.35F L            CCN000030000000030000FN00000000020220101000030000NNM   20211123102139    1W    00000250000000452000000000032G2    AISUAI  000000000000IX31B032
BI00B32G2    SA22013 MW     202112221801W006990              IVSSH 0.35F L            CCN000017500000017500FN00000000020220101000017500NNM   20211123102139    1W    00000250000000452000000000032G2    AISUAI  000000000000IX11C031
BI00B32G2    SA22014 MW     202112291801W006990              IVSSH 0.35F L            CCN000017500000017500FN00000000020220101000017500NNM   20211123102139    1W    00000250000000452000000000032G2    AISUAI  000000000000IX21C029
BI00B32G2    SA22011 MW     202112011801W006992              IVSSH 0.35F V            CCN000020000000020000FN00000000020220101000020000NNM   20211123102139    1W    00000250000000452000000000032G2    AISUAI  000000000000IX31B033
BI00B32G2    SA22013 MW     202112221801W006992              IVSSH 0.35F V            CCN000012500000012500FN00000000020220101000012500NNM   20211123102139    1W    00000250000000452000000000032G2    AISUAI  000000000000IX11C032
BI00B32G2    SA22014 MW     202112291801W006992              IVSSH 0.35F V            CCN000010000000010000FN00000000020220101000010000NNM   20211123102139    1W    00000250000000452000000000032G2    AISUAI  000000000000IX21C030
BI00B32G2    @SA22011 MW    20211201181B32102S1              AVSSCS 0.5FX2 DGY        CCN000000600000000600FN00000000020220101000000600NNM   20211123101947    1W    00000030000002779000000000032G2    AISUAI  000000000000IX31B004
BI00B32G2    @SA22013 MW    20211222181B32102S1              AVSSCS 0.5FX2 DGY        CCN000000300000000300FN00000000020220101000000300NNM   20211123101947    1W    00000030000002779000000000032G2    AISUAI  000000000000IX11C004
BI00B32G2    @SA22014 MW    20211229181B32102S1              AVSSCS 0.5FX2 DGY        CCN000000300000000300FN00000000020220101000000300NNM   20211123101947    1W    00000030000002779000000000032G2    AISUAI  000000000000IX21C004
BI00B32G2    @SA22011 MW    20211201181B32102Y6              AVSSCS 0.5FX2 DGY/G      CCN000000300000000300FN00000000020220101000000300NNM   20211123101947    1W    00000030000002779000000000032G2    AISUAI  000000000000IX31B005
BI00B32G2    @SA22011 MW    20211201181D6910230              AVSSHCS 0.5FX2 B         CCN000006300000006300FN00000000020220101000006300NNM   20211123101947    1W    00000030000002792600000000032G2    AISUAI  000000000000IX31B006
BI00B32G2    @SA22013 MW    20211222181D6910230              AVSSHCS 0.5FX2 B         CCN000005700000005700FN00000000020220101000005700NNM   20211123101947    1W    00000030000002792600000000032G2    AISUAI  000000000000IX11C005
BI00B32G2    @SA22014 MW    20211229181D6910230              AVSSHCS 0.5FX2 B         CCN000005700000005700FN00000000020220101000005700NNM   20211123101947    1W    00000030000002792600000000032G2    AISUAI  000000000000IX21C005
BI00B32G2    @SA22011 MW    20211201181D6910235              AVSSHCS 0.5FX2 B/R       CCN000000300000000300FN00000000020220101000000300NNM   20211123101947    1W    00000030000002792600000000032G2    AISUAI  000000000000IX31B007
BI00B32G2    @SA22013 MW    20211222181D6910235              AVSSHCS 0.5FX2 B/R       CCN000000300000000300FN00000000020220101000000300NNM   20211123101947    1W    00000030000002792600000000032G2    AISUAI  000000000000IX11C006
BI00B32G2    @SA22011 MW    20211201181D6910237              AVSSHCS 0.5FX2 B/Y       CCN000000300000000300FN00000000020220101000000300NNM   20211123101947    1W    00000030000002792600000000032G2    AISUAI  000000000000IX31B008
BI00B32G2    @SA22013 MW    20211222181D6910237              AVSSHCS 0.5FX2 B/Y       CCN000000300000000300FN00000000020220101000000300NNM   20211123101947    1W    00000030000002792600000000032G2    AISUAI  000000000000IX11C007
BI00B32G2    @SA22011 MW    20211201181E50007ZZ              AVSSCS-S 0.5FX1 DGY/L    CCN000008000000008000FN00000000020220101000008000NNM   20211123101947    1W    00000040000001817000000000032G2    AISUAI  000000000000IX31B009
BI00B32G2    @SA22013 MW    20211222181E50007ZZ              AVSSCS-S 0.5FX1 DGY/L    CCN000008000000008000FN00000000020220101000008000NNM   20211123101947    1W    00000040000001817000000000032G2    AISUAI  000000000000IX11C008
BI00B32G2    @SA22014 MW    20211229181E50007ZZ              AVSSCS-S 0.5FX1 DGY/L    CCN000007200000007200FN00000000020220101000007200NNM   20211123101947    1W    00000040000001817000000000032G2    AISUAI  000000000000IX21C006
BI00B32G2    @SA22011 MW    20211201181E50016ZZ              AVSSCS-S 0.5FX2 DGY/R    CCN000004800000004800FN00000000020220101000004800NNM   20211123101947    1W    00000030000002072000000000032G2    AISUAI  000000000000IX31B010
BI00B32G2    @SA22013 MW    20211222181E50016ZZ              AVSSCS-S 0.5FX2 DGY/R    CCN000004800000004800FN00000000020220101000004800NNM   20211123101947    1W    00000030000002072000000000032G2    AISUAI  000000000000IX11C009
BI00B32G2    @SA22014 MW    20211229181E50016ZZ              AVSSCS-S 0.5FX2 DGY/R    CCN000004200000004200FN00000000020220101000004200NNM   20211123101947    1W    00000030000002072000000000032G2    AISUAI  000000000000IX21C007
BI00B32G2    @SA22011 MW    20211201181F21009ZZ              AVSSHCS-S 0.5FX2 B       CCN000009000000009000FN00000000020220101000009000NNM   20211123101947    1W    00000030000002505800000000032G2    AISUAI  000000000000IX31B011
BI00B32G2    @SA22013 MW    20211222181F21009ZZ              AVSSHCS-S 0.5FX2 B       CCN000009000000009000FN00000000020220101000009000NNM   20211123101947    1W    00000030000002505800000000032G2    AISUAI  000000000000IX11C010
BI00B32G2    @SA22014 MW    20211229181F21009ZZ              AVSSHCS-S 0.5FX2 B       CCN000007800000007800FN00000000020220101000007800NNM   20211123101947    1W    00000030000002505800000000032G2    AISUAI  000000000000IX21C008
BI00B32G2    SA22011HMW     202112011801W006980              IVSSH 0.35F BR           CCN000020000000020000FN00000000020220101000020000NNM   20211123102140    1W    00000250000000452000000000032G2    AISUAI  000000000000IY31B006
BI00B32G2    SA22013HMW     202112221801W006980              IVSSH 0.35F BR           CCN000010000000010000FN00000000020220101000010000NNM   20211123102140    1W    00000250000000452000000000032G2    AISUAI  000000000000IY11C006
BI00B32G2    SA22014HMW     202112291801W006980              IVSSH 0.35F BR           CCN000005000000005000FN00000000020220101000005000NNM   20211123102140    1W    00000250000000452000000000032G2    AISUAI  000000000000IY21C006
BI00B32G2    @SA22011HMW    20211201181B32116Z5              AVSSCS 0.3FX2 DGY/L      CCN000001400000001400FN00000000020220101000001400NNM   20211123101948    1W    00000035000002241000000000032G2    AISUAI  000000000000IY31B005
BI00B32G2    @SA22013HMW    20211222181B32116Z5              AVSSCS 0.3FX2 DGY/L      CCN000001400000001400FN00000000020220101000001400NNM   20211123101948    1W    00000035000002241000000000032G2    AISUAI  000000000000IY11C005
BI00B32G2    @SA22014HMW    20211229181B32116Z5              AVSSCS 0.3FX2 DGY/L      CCN000001400000001400FN00000000020220101000001400NNM   20211123101948    1W    00000035000002241000000000032G2    AISUAI  000000000000IY21C005
BI00B32G2    SA22011JMW     202112011801W003930              IVSSH 0.5F B             CCN000057600000057600FN00000000020220101000057600NNM   20211123102141    1W    00000180000000625000000000032G2    AISUAI  000000000000IZ31B008
BI00B32G2    SA22013JMW     202112221801W003930              IVSSH 0.5F B             CCN000054000000054000FN00000000020220101000054000NNM   20211123102141    1W    00000180000000625000000000032G2    AISUAI  000000000000IZ11C007
BI00B32G2    SA22014JMW     202112291801W003930              IVSSH 0.5F B             CCN000054000000054000FN00000000020220101000054000NNM   20211123102141    1W    00000180000000625000000000032G2    AISUAI  000000000000IZ21C007
BI00B32G2    SA22011JMW     202112011801W003940              IVSSH 0.5F W             CCN000072000000072000FN00000000020220101000072000NNM   20211123102141    1W    00000180000000625000000000032G2    AISUAI  000000000000IZ31B016
BI00B32G2    SA22013JMW     202112221801W003940              IVSSH 0.5F W             CCN000052200000052200FN00000000020220101000052200NNM   20211123102141    1W    00000180000000625000000000032G2    AISUAI  000000000000IZ11C014
BI00B32G2    SA22014JMW     202112291801W003940              IVSSH 0.5F W             CCN000036000000036000FN00000000020220101000036000NNM   20211123102141    1W    00000180000000625000000000032G2    AISUAI  000000000000IZ21C014
BI00B32G2    SA22011JMW     202112011801W003941              IVSSH 0.5F GY            CCN000014400000014400FN00000000020220101000014400NNM   20211123102141    1W    00000180000000625000000000032G2    AISUAI  000000000000IZ31B010
BI00B32G2    SA22013JMW     202112221801W003941              IVSSH 0.5F GY            CCN000009000000009000FN00000000020220101000009000NNM   20211123102141    1W    00000180000000625000000000032G2    AISUAI  000000000000IZ11C009
BI00B32G2    SA22014JMW     202112291801W003941              IVSSH 0.5F GY            CCN000003600000003600FN00000000020220101000003600NNM   20211123102141    1W    00000180000000625000000000032G2    AISUAI  000000000000IZ21C009
BI00B32G2    SA22011JMW     202112011801W003943              IVSSH 0.5F W/B           CCN000019800000019800FN00000000020220101000019800NNM   20211123102141    1W    00000180000000625000000000032G2    AISUAI  000000000000IZ31B017
BI00B32G2    SA22013JMW     202112221801W003943              IVSSH 0.5F W/B           CCN000012600000012600FN00000000020220101000012600NNM   20211123102141    1W    00000180000000625000000000032G2    AISUAI  000000000000IZ11C015
BI00B32G2    SA22014JMW     202112291801W003943              IVSSH 0.5F W/B           CCN000005400000005400FN00000000020220101000005400NNM   20211123102141    1W    00000180000000625000000000032G2    AISUAI  000000000000IZ21C015
BI00B32G2    SA22011JMW     202112011801W003950              IVSSH 0.5F R             CCN000072000000072000FN00000000020220101000072000NNM   20211123102141    1W    00000180000000625000000000032G2    AISUAI  000000000000IZ31B013
BI00B32G2    SA22013JMW     202112221801W003950              IVSSH 0.5F R             CCN000052200000052200FN00000000020220101000052200NNM   20211123102141    1W    00000180000000625000000000032G2    AISUAI  000000000000IZ11C012
BI00B32G2    SA22014JMW     202112291801W003950              IVSSH 0.5F R             CCN000036000000036000FN00000000020220101000036000NNM   20211123102141    1W    00000180000000625000000000032G2    AISUAI  000000000000IZ21C012
BI00B32G2    SA22011JMW     202112011801W003952              IVSSH 0.5F P             CCN000018000000018000FN00000000020220101000018000NNM   20211123102141    1W    00000180000000625000000000032G2    AISUAI  000000000000IZ31B012
BI00B32G2    SA22013JMW     202112221801W003952              IVSSH 0.5F P             CCN000009000000009000FN00000000020220101000009000NNM   20211123102141    1W    00000180000000625000000000032G2    AISUAI  000000000000IZ11C011
BI00B32G2    SA22014JMW     202112291801W003952              IVSSH 0.5F P             CCN000005400000005400FN00000000020220101000005400NNM   20211123102141    1W    00000180000000625000000000032G2    AISUAI  000000000000IZ21C011
BI00B32G2    SA22011JMW     202112011801W003961              IVSSH 0.5F LG            CCN000005400000005400FN00000000020220101000005400NNM   20211123102141    1W    00000180000000625000000000032G2    AISUAI  000000000000IZ31B011
BI00B32G2    SA22013JMW     202112221801W003961              IVSSH 0.5F LG            CCN000003600000003600FN00000000020220101000003600NNM   20211123102141    1W    00000180000000625000000000032G2    AISUAI  000000000000IZ11C010
BI00B32G2    SA22014JMW     202112291801W003961              IVSSH 0.5F LG            CCN000001800000001800FN00000000020220101000001800NNM   20211123102141    1W    00000180000000625000000000032G2    AISUAI  000000000000IZ21C010
BI00B32G2    SA22011JMW     202112011801W003970              IVSSH 0.5F Y             CCN000045000000045000FN00000000020220101000045000NNM   20211123102141    1W    00000180000000625000000000032G2    AISUAI  000000000000IZ31B018
BI00B32G2    SA22013JMW     202112221801W003970              IVSSH 0.5F Y             CCN000018000000018000FN00000000020220101000018000NNM   20211123102141    1W    00000180000000625000000000032G2    AISUAI  000000000000IZ11C016
BI00B32G2    SA22014JMW     202112291801W003970              IVSSH 0.5F Y             CCN000016200000016200FN00000000020220101000016200NNM   20211123102141    1W    00000180000000625000000000032G2    AISUAI  000000000000IZ21C016
BI00B32G2    SA22011JMW     202112011801W003980              IVSSH 0.5F BR            CCN000018000000018000FN00000000020220101000018000NNM   20211123102141    1W    00000180000000625000000000032G2    AISUAI  000000000000IZ31B009
BI00B32G2    SA22013JMW     202112221801W003980              IVSSH 0.5F BR            CCN000009000000009000FN00000000020220101000009000NNM   20211123102141    1W    00000180000000625000000000032G2    AISUAI  000000000000IZ11C008
BI00B32G2    SA22014JMW     202112291801W003980              IVSSH 0.5F BR            CCN000005400000005400FN00000000020220101000005400NNM   20211123102141    1W    00000180000000625000000000032G2    AISUAI  000000000000IZ21C008
BI00B32G2    SA22011JMW     202112011801W003991              IVSSH 0.5F SB            CCN000001800000001800FN00000000020220101000001800NNM   20211123102141    1W    00000180000000625000000000032G2    AISUAI  000000000000IZ31B014
BI00B32G2    SA22011JMW     202112011801W003992              IVSSH 0.5F V             CCN000012600000012600FN00000000020220101000012600NNM   20211123102141    1W    00000180000000625000000000032G2    AISUAI  000000000000IZ31B015
BI00B32G2    SA22013JMW     202112221801W003992              IVSSH 0.5F V             CCN000009000000009000FN00000000020220101000009000NNM   20211123102141    1W    00000180000000625000000000032G2    AISUAI  000000000000IZ11C013
BI00B32G2    SA22014JMW     202112291801W003992              IVSSH 0.5F V             CCN000001800000001800FN00000000020220101000001800NNM   20211123102141    1W    00000180000000625000000000032G2    AISUAI  000000000000IZ21C013
BI00B32G2    SA22011JMW     202112011801W004050              IVSSH 0.75F R            CCN000005200000005200FN00000000020220101000005200NNM   20211123102141    1W    00000130000000882000000000032G2    AISUAI  000000000000IZ31B023
BI00B32G2    SA22013JMW     202112221801W004050              IVSSH 0.75F R            CCN000002600000002600FN00000000020220101000002600NNM   20211123102141    1W    00000130000000882000000000032G2    AISUAI  000000000000IZ11C021
BI00B32G2    SA22014JMW     202112291801W004050              IVSSH 0.75F R            CCN000001300000001300FN00000000020220101000001300NNM   20211123102141    1W    00000130000000882000000000032G2    AISUAI  000000000000IZ21C021
BI00B32G2    SA22011JMW     202112011801W004060              IVSSH 0.75F G            CCN000003900000003900FN00000000020220101000003900NNM   20211123102141    1W    00000130000000882000000000032G2    AISUAI  000000000000IZ31B020
BI00B32G2    SA22013JMW     202112221801W004060              IVSSH 0.75F G            CCN000002600000002600FN00000000020220101000002600NNM   20211123102141    1W    00000130000000882000000000032G2    AISUAI  000000000000IZ11C018
BI00B32G2    SA22014JMW     202112291801W004060              IVSSH 0.75F G            CCN000001300000001300FN00000000020220101000001300NNM   20211123102141    1W    00000130000000882000000000032G2    AISUAI  000000000000IZ21C018
BI00B32G2    SA22011JMW     202112011801W004061              IVSSH 0.75F LG           CCN000005200000005200FN00000000020220101000005200NNM   20211123102141    1W    00000130000000882000000000032G2    AISUAI  000000000000IZ31B022
BI00B32G2    SA22013JMW     202112221801W004061              IVSSH 0.75F LG           CCN000002600000002600FN00000000020220101000002600NNM   20211123102141    1W    00000130000000882000000000032G2    AISUAI  000000000000IZ11C020
BI00B32G2    SA22014JMW     202112291801W004061              IVSSH 0.75F LG           CCN000001300000001300FN00000000020220101000001300NNM   20211123102141    1W    00000130000000882000000000032G2    AISUAI  000000000000IZ21C020
BI00B32G2    SA22011JMW     202112011801W004070              IVSSH 0.75F Y            CCN000001300000001300FN00000000020220101000001300NNM   20211123102141    1W    00000130000000882000000000032G2    AISUAI  000000000000IZ31B024
BI00B32G2    SA22013JMW     202112221801W004070              IVSSH 0.75F Y            CCN000001300000001300FN00000000020220101000001300NNM   20211123102141    1W    00000130000000882000000000032G2    AISUAI  000000000000IZ11C022
BI00B32G2    SA22011JMW     202112011801W004080              IVSSH 0.75F BR           CCN000001300000001300FN00000000020220101000001300NNM   20211123102141    1W    00000130000000882000000000032G2    AISUAI  000000000000IZ31B019
BI00B32G2    SA22013JMW     202112221801W004080              IVSSH 0.75F BR           CCN000001300000001300FN00000000020220101000001300NNM   20211123102141    1W    00000130000000882000000000032G2    AISUAI  000000000000IZ11C017
BI00B32G2    SA22014JMW     202112291801W004080              IVSSH 0.75F BR           CCN000001300000001300FN00000000020220101000001300NNM   20211123102141    1W    00000130000000882000000000032G2    AISUAI  000000000000IZ21C017
BI00B32G2    SA22011JMW     202112011801W004090              IVSSH 0.75F L            CCN000002600000002600FN00000000020220101000002600NNM   20211123102141    1W    00000130000000882000000000032G2    AISUAI  000000000000IZ31B021
BI00B32G2    SA22013JMW     202112221801W004090              IVSSH 0.75F L            CCN000002600000002600FN00000000020220101000002600NNM   20211123102141    1W    00000130000000882000000000032G2    AISUAI  000000000000IZ11C019
BI00B32G2    SA22014JMW     202112291801W004090              IVSSH 0.75F L            CCN000001300000001300FN00000000020220101000001300NNM   20211123102141    1W    00000130000000882000000000032G2    AISUAI  000000000000IZ21C019
BI00B32G2    SA22011JMW     202112011801W006940              IVSSH 0.35F W            CCN000037500000037500FN00000000020220101000037500NNM   20211123102141    1W    00000250000000452000000000032G2    AISUAI  000000000000IZ31B029
BI00B32G2    SA22013JMW     202112221801W006940              IVSSH 0.35F W            CCN000022500000022500FN00000000020220101000022500NNM   20211123102141    1W    00000250000000452000000000032G2    AISUAI  000000000000IZ11C027
BI00B32G2    SA22014JMW     202112291801W006940              IVSSH 0.35F W            CCN000007500000007500FN00000000020220101000007500NNM   20211123102141    1W    00000250000000452000000000032G2    AISUAI  000000000000IZ21C026
BI00B32G2    SA22011JMW     202112011801W006950              IVSSH 0.35F R            CCN000020000000020000FN00000000020220101000020000NNM   20211123102141    1W    00000250000000452000000000032G2    AISUAI  000000000000IZ31B027
BI00B32G2    SA22013JMW     202112221801W006950              IVSSH 0.35F R            CCN000010000000010000FN00000000020220101000010000NNM   20211123102141    1W    00000250000000452000000000032G2    AISUAI  000000000000IZ11C025
BI00B32G2    SA22014JMW     202112291801W006950              IVSSH 0.35F R            CCN000005000000005000FN00000000020220101000005000NNM   20211123102141    1W    00000250000000452000000000032G2    AISUAI  000000000000IZ21C024
BI00B32G2    SA22011JMW     202112011801W006952              IVSSH 0.35F P            CCN000020000000020000FN00000000020220101000020000NNM   20211123102141    1W    00000250000000452000000000032G2    AISUAI  000000000000IZ31B026
BI00B32G2    SA22013JMW     202112221801W006952              IVSSH 0.35F P            CCN000012500000012500FN00000000020220101000012500NNM   20211123102141    1W    00000250000000452000000000032G2    AISUAI  000000000000IZ11C024
BI00B32G2    SA22014JMW     202112291801W006952              IVSSH 0.35F P            CCN000002500000002500FN00000000020220101000002500NNM   20211123102141    1W    00000250000000452000000000032G2    AISUAI  000000000000IZ21C023
BI00B32G2    SA22011JMW     202112011801W006961              IVSSH 0.35F LG           CCN000020000000020000FN00000000020220101000020000NNM   20211123102141    1W    00000250000000452000000000032G2    AISUAI  000000000000IZ31B025
BI00B32G2    SA22013JMW     202112221801W006961              IVSSH 0.35F LG           CCN000007500000007500FN00000000020220101000007500NNM   20211123102141    1W    00000250000000452000000000032G2    AISUAI  000000000000IZ11C023
BI00B32G2    SA22014JMW     202112291801W006961              IVSSH 0.35F LG           CCN000002500000002500FN00000000020220101000002500NNM   20211123102141    1W    00000250000000452000000000032G2    AISUAI  000000000000IZ21C022
BI00B32G2    SA22011JMW     202112011801W006991              IVSSH 0.35F SB           CCN000010000000010000FN00000000020220101000010000NNM   20211123102141    1W    00000250000000452000000000032G2    AISUAI  000000000000IZ31B028
BI00B32G2    SA22013JMW     202112221801W006991              IVSSH 0.35F SB           CCN000007500000007500FN00000000020220101000007500NNM   20211123102141    1W    00000250000000452000000000032G2    AISUAI  000000000000IZ11C026
BI00B32G2    SA22014JMW     202112291801W006991              IVSSH 0.35F SB           CCN000002500000002500FN00000000020220101000002500NNM   20211123102141    1W    00000250000000452000000000032G2    AISUAI  000000000000IZ21C025
BI00B32G2    @SA22011JMW    20211201181B32102Y7              AVSSCS 0.5FX2 DGY/Y      CCN000000300000000300FN00000000020220101000000300NNM   20211123101950    1W    00000030000002779000000000032G2    AISUAI  000000000000IZ31B006
BI00B32H2    TAW2023        2022012118000004530              AV 8 B                   CCN000003000000003000FN00000000020220201000003000NNM   20211123113535    1W    00000010000009148000000000032H2    HVYHV   000000000000UH41C094
BI00B32H2    TAW2024        2022012818000004530              AV 8 B                   CCN000005000000005000FN00000000020220201000005000NNM   20211123113535    1W    00000010000009148000000000032H2    HVYHV   000000000000UH41C119
BI00B32H2    TAW2025        2022020418000004530              AV 8 B                   CCN000005000000005000FN00000000020220201000005000NNM   20211123113535    1W    00000010000009148000000000032H2    HVYHV   000000000000UH41C149
BI00B32H2    TAW2025        2022020418007704130              AVSS 1.25F B             CCN000000800000000800FN00000000020220201000000800NNM   20211123113535    1W    00000080000001389000000000032H2    HVYHV   000000000000UH41C150
BI00B32H2    TAW2024        2022012818007704143              AVSS 1.25F W/B           CCN000000800000000800FN00000000020220201000000800NNM   20211123113535    1W    00000080000001389000000000032H2    HVYHV   000000000000UH41C120
BI00B32H2    TAW2025        20220204180D0203930              AVSSH 0.5F B             CCN000003000000003000FN00000000020220201000003000NNM   20211123113535    1W    00000150000000689000000000032H2    HVYHV   000000000000UH41C145
BI00B32H2    TAW2025        20220204180D0203960              AVSSH 0.5F G             CCN000001500000001500FN00000000020220201000001500NNM   20211123113535    1W    00000150000000689000000000032H2    HVYHV   000000000000UH41C146
BI00B32H2    TAW2024        20220128180D0203990              AVSSH 0.5F L             CCN000001500000001500FN00000000020220201000001500NNM   20211123113535    1W    00000150000000689000000000032H2    HVYHV   000000000000UH41C118
BI00B32H2    TAW2025        20220204180D0203950              AVSSH 0.5F R             CCN000001500000001500FN00000000020220201000001500NNM   20211123113535    1W    00000150000000689000000000032H2    HVYHV   000000000000UH41C147
BI00B32H2    TAW2025        20220204180D0203943              AVSSH 0.5F W/B           CCN000001500000001500FN00000000020220201000001500NNM   20211123113535    1W    00000150000000689000000000032H2    HVYHV   000000000000UH41C148
BI00B32H2    @TAW2021       20220107181B32102S1              AVSSCS 0.5FX2 DGY        CCN000012000000012000FN00000000020220201000012000NNM   20211123113533    1W    00000030000002779000000000032H2    HVYHV   000000000000UH31C024
BI00B32H2    @TAW2023       20220121181B32102S1              AVSSCS 0.5FX2 DGY        CCN000009000000009000FN00000000020220201000009000NNM   20211123113533    1W    00000030000002779000000000032H2    HVYHV   000000000000UH41C078
BI00B32H2    @TAW2024       20220128181B32102S1              AVSSCS 0.5FX2 DGY        CCN000009000000009000FN00000000020220201000009000NNM   20211123113533    1W    00000030000002779000000000032H2    HVYHV   000000000000UH41C100
BI00B32H2    @TAW2025       20220204181B32102S1              AVSSCS 0.5FX2 DGY        CCN000009000000009000FN00000000020220201000009000NNM   20211123113533    1W    00000030000002779000000000032H2    HVYHV   000000000000UH41C126
BI00B32H2    @TAW2023       20220121181E50014ZZ              AVSSCS-S 0.5FX1 DGY/R    CCN000002000000002000FN00000000020220201000002000NNM   20211123113533    1W    00000040000001817000000000032H2    HVYHV   000000000000UH41C082
BI00B32H2    @TAW2024       20220128181E50014ZZ              AVSSCS-S 0.5FX1 DGY/R    CCN000002000000002000FN00000000020220201000002000NNM   20211123113533    1W    00000040000001817000000000032H2    HVYHV   000000000000UH41C104
BI00B32H2    @TAW2025       20220204181E50014ZZ              AVSSCS-S 0.5FX1 DGY/R    CCN000002000000002000FN00000000020220201000002000NNM   20211123113533    1W    00000040000001817000000000032H2    HVYHV   000000000000UH41C130
BI00B32H2    @TAW2021       20220107181F21002ZZ              AVSSHCS-S 0.5FX1 B       CCN000005600000005600FN00000000020220201000005600NNM   20211123113533    1W    00000040000001847000000000032H2    HVYHV   000000000000UH31C026
BI00B32H2    @TAW2023       20220121181F21002ZZ              AVSSHCS-S 0.5FX1 B       CCN000007200000007200FN00000000020220201000007200NNM   20211123113533    1W    00000040000001847000000000032H2    HVYHV   000000000000UH41C083
BI00B32H2    @TAW2024       20220128181F21002ZZ              AVSSHCS-S 0.5FX1 B       CCN000005200000005200FN00000000020220201000005200NNM   20211123113533    1W    00000040000001847000000000032H2    HVYHV   000000000000UH41C105
BI00B32H2    @TAW2025       20220204181F21002ZZ              AVSSHCS-S 0.5FX1 B       CCN000005200000005200FN00000000020220201000005200NNM   20211123113533    1W    00000040000001847000000000032H2    HVYHV   000000000000UH41C131
BI00B32H2    @TAW2023       20220121181B0911741              CAVSAS 0.3X3 GY          CCN000000500000000500FN00000000020220201000000500NNM   20211123113533    1W    00000025000002875000000000032H2    HVYHV   000000000000UH41C077
BI00B32H2    @TAW2024       20220128181B0911741              CAVSAS 0.3X3 GY          CCN000000500000000500FN00000000020220201000000500NNM   20211123113533    1W    00000025000002875000000000032H2    HVYHV   000000000000UH41C099
BI00B32H2    @TAW2025       20220204181B0911741              CAVSAS 0.3X3 GY          CCN000000500000000500FN00000000020220201000000500NNM   20211123113533    1W    00000025000002875000000000032H2    HVYHV   000000000000UH41C125
BI00B32H2    @TAW2021       20220107181E48013ZZ              CAVSAS-S 0.3X3 GY        CCN000010000000010000FN00000000020220201000010000NNM   20211123113533    1W    00000025000002685000000000032H2    HVYHV   000000000000UH31C025
BI00B32H2    @TAW2023       20220121181E48013ZZ              CAVSAS-S 0.3X3 GY        CCN000001000000001000FN00000000020220201000001000NNM   20211123113533    1W    00000025000002685000000000032H2    HVYHV   000000000000UH41C081
BI00B32H2    @TAW2024       20220128181E48013ZZ              CAVSAS-S 0.3X3 GY        CCN000001000000001000FN00000000020220201000001000NNM   20211123113533    1W    00000025000002685000000000032H2    HVYHV   000000000000UH41C103
BI00B32H2    @TAW2025       20220204181E48013ZZ              CAVSAS-S 0.3X3 GY        CCN000000750000000750FN00000000020220201000000750NNM   20211123113533    1W    00000025000002685000000000032H2    HVYHV   000000000000UH41C129
BI00B32H2    @TAW2023       20220121181E48018ZZ              CAVSAS-S 0.5X2 GY/SB     CCN000000600000000600FN00000000020220201000000600NNM   20211123113533    1W    00000030000002493000000000032H2    HVYHV   000000000000UH41C080
BI00B32H2    @TAW2024       20220128181E48018ZZ              CAVSAS-S 0.5X2 GY/SB     CCN000000600000000600FN00000000020220201000000600NNM   20211123113533    1W    00000030000002493000000000032H2    HVYHV   000000000000UH41C102
BI00B32H2    @TAW2025       20220204181E48018ZZ              CAVSAS-S 0.5X2 GY/SB     CCN000000300000000300FN00000000020220201000000300NNM   20211123113533    1W    00000030000002493000000000032H2    HVYHV   000000000000UH41C128
BI00B32H2    @TAW2023       20220121181E48022ZZ              CAVSAS-S 0.5X2 GY        CCN000000600000000600FN00000000020220201000000600NNM   20211123113533    1W    00000030000002493000000000032H2    HVYHV   000000000000UH41C079
BI00B32H2    @TAW2024       20220128181E48022ZZ              CAVSAS-S 0.5X2 GY        CCN000000600000000600FN00000000020220201000000600NNM   20211123113533    1W    00000030000002493000000000032H2    HVYHV   000000000000UH41C101
BI00B32H2    @TAW2025       20220204181E48022ZZ              CAVSAS-S 0.5X2 GY        CCN000000600000000600FN00000000020220201000000600NNM   20211123113533    1W    00000030000002493000000000032H2    HVYHV   000000000000UH41C127
BI00B32H2    @TAW2021       20220107181AD2001ZZ              CIVUSAS-S 0.35X1 B       CCN000013750000013750FN00000000020220201000013750NNM   20211123113533    1W    00000055000001327000000000032H2    HVYHV   000000000000UH31C021
BI00B32H2    @TAW2023       20220121181AD2001ZZ              CIVUSAS-S 0.35X1 B       CCN000008250000008250FN00000000020220201000008250NNM   20211123113533    1W    00000055000001327000000000032H2    HVYHV   000000000000UH41C073
BI00B32H2    @TAW2024       20220128181AD2001ZZ              CIVUSAS-S 0.35X1 B       CCN000008250000008250FN00000000020220201000008250NNM   20211123113533    1W    00000055000001327000000000032H2    HVYHV   000000000000UH41C095
BI00B32H2    @TAW2025       20220204181AD2001ZZ              CIVUSAS-S 0.35X1 B       CCN000008250000008250FN00000000020220201000008250NNM   20211123113533    1W    00000055000001327000000000032H2    HVYHV   000000000000UH41C121
BI00B32H2    @TAW2023       20220121181AD2003ZZ              CIVUSAS-S 0.35X3 B       CCN000042000000042000FN00000000020220201000042000NNM   20211123113533    1W    00000035000002209700000000032H2    HVYHV   000000000000UH41C075
BI00B32H2    @TAW2024       20220128181AD2003ZZ              CIVUSAS-S 0.35X3 B       CCN000042000000042000FN00000000020220201000042000NNM   20211123113533    1W    00000035000002209700000000032H2    HVYHV   000000000000UH41C097
BI00B32H2    @TAW2025       20220204181AD2003ZZ              CIVUSAS-S 0.35X3 B       CCN000045500000045500FN00000000020220201000045500NNM   20211123113533    1W    00000035000002209700000000032H2    HVYHV   000000000000UH41C123
BI00B32H2    @TAW2021       20220107181AD2004ZZ              CIVUSAS-S 0.35X4 B       CCN000084000000084000FN00000000020220201000084000NNM   20211123113533    1W    00000030000002784000000000032H2    HVYHV   000000000000UH31C023
BI00B32H2    @TAW2023       20220121181AD2004ZZ              CIVUSAS-S 0.35X4 B       CCN000066000000066000FN00000000020220201000066000NNM   20211123113533    1W    00000030000002784000000000032H2    HVYHV   000000000000UH41C076
BI00B32H2    @TAW2024       20220128181AD2004ZZ              CIVUSAS-S 0.35X4 B       CCN000066000000066000FN00000000020220201000066000NNM   20211123113533    1W    00000030000002784000000000032H2    HVYHV   000000000000UH41C098
BI00B32H2    @TAW2025       20220204181AD2004ZZ              CIVUSAS-S 0.35X4 B       CCN000066000000066000FN00000000020220201000066000NNM   20211123113533    1W    00000030000002784000000000032H2    HVYHV   000000000000UH41C124
BI00B32H2    @TAW2021       20220107181AD2008ZZ              CIVUSAS-S 0.5X2 B        CCN000048000000048000FN00000000020220201000048000NNM   20211123113533    1W    00000040000002028000000000032H2    HVYHV   000000000000UH31C022
BI00B32H2    @TAW2023       20220121181AD2008ZZ              CIVUSAS-S 0.5X2 B        CCN000024000000024000FN00000000020220201000024000NNM   20211123113533    1W    00000040000002028000000000032H2    HVYHV   000000000000UH41C074
BI00B32H2    @TAW2024       20220128181AD2008ZZ              CIVUSAS-S 0.5X2 B        CCN000032000000032000FN00000000020220201000032000NNM   20211123113533    1W    00000040000002028000000000032H2    HVYHV   000000000000UH41C096
BI00B32H2    @TAW2025       20220204181AD2008ZZ              CIVUSAS-S 0.5X2 B        CCN000032000000032000FN00000000020220201000032000NNM   20211123113533    1W    00000040000002028000000000032H2    HVYHV   000000000000UH41C122
BI00A32M8    PM21125 MW     2021112618007703992              AVSS 0.5F V              PCN000006000000006000FN00000000020211201000006000NNM21 20211123153324    1W    00000150000000674000000000032M8    PMPEMI  000000000000IG31B031
BI00B32M8    PM21125 MW     2021120118007703952              AVSS 0.5F P              CCN000003000000001500FN00000000020211201000001500NNM20 20211123153348    1W    00000150000000674000000000032M8    PMPEMI  000000000000IG31B029
BI00A32M8    PM21125 MW     2021112618007703960              AVSS 0.5F G              PCN000006000000006000FN00000000020211201000006000NNM21 20211123153401    1W    00000150000000674000000000032M8    PMPEMI  000000000000IG31B025
BI00B32M8    PM21125 MW     2021120118007703970              AVSS 0.5F Y              CCN000004500000001500FN00000000020211201000001500NNM20 20211123153438    1W    00000150000000674000000000032M8    PMPEMI  000000000000IG31B033
BI00A32M8    PM21125 MW     2021112618007703980              AVSS 0.5F BR             PCN000003000000003000FN00000000020211201000003000NNM21 20211123153502    1W    00000150000000674000000000032M8    PMPEMI  000000000000IG31B024
BI00A32M8    PM21125 MW     2021112618007703990              AVSS 0.5F L              PCN000004500000004500FN00000000020211201000004500NNM21 20211123153518    1W    00000150000000674000000000032M8    PMPEMI  000000000000IG31B027
BI00A32M8    PM21125 MW     2021112618007703952              AVSS 0.5F P              PCN000001500000001500FN00000000020211201000001500NNM21 20211123153348    1W    00000150000000674000000000032M8    PMPEMI  000000000000IG31B029
BI00A32M8    PM21125 MW     2021112618007703970              AVSS 0.5F Y              PCN000004500000004500FN00000000020211201000004500NNM21 20211123153438    1W    00000150000000674000000000032M8    PMPEMI  000000000000IG31B033
BI00B32P8    TAPAW-1124     2021112418007703930              AVSS 0.5F B              CCN000021000000013500FN00000000020211201000013500NNM00 20211123193753    1W    00000150000000674000000000032P8    YIYTM   000000000000YM21B153
BI00B32P8    TAPAW-1124     2021120118007703939              AVSS 0.5F B/L            CCN000006000000006000FN00000000020211201000006000NNM21 20211123193910    1W    00000150000000674000000000032P8    YIYTM   000000000000YM21B155
BI00B32P8    TAPAW-1124     20211201180077039A8              AVSS 0.5F B/P            CCN000018000000018000FN00000000020211201000018000NNM21 20211123193910    1W    00000150000000674000000000032P8    YIYTM   000000000000YM21B156
BI00B32P8    TAPAW-1124     2021120118007703935              AVSS 0.5F B/R            CCN000004500000004500FN00000000020211201000004500NNM21 20211123193910    1W    00000150000000674000000000032P8    YIYTM   000000000000YM21B157
BI00B32P8    TAPAW-1124     2021112418007703934              AVSS 0.5F B/W            CCN000006000000001500FN00000000020211201000001500NNM00 20211123193941    1W    00000150000000674000000000032P8    YIYTM   000000000000YM21B158
BI00B32P8    TAPAW-1124     2021112418007703990              AVSS 0.5F L              CCN000016500000007500FN00000000020211201000007500NNM00 20211123194021    1W    00000150000000674000000000032P8    YIYTM   000000000000YM21B174
BI00B32P8    TAPAW-1124     2021120118007703995              AVSS 0.5F L/R            CCN000001500000001500FN00000000020211201000001500NNM21 20211123194103    1W    00000150000000674000000000032P8    YIYTM   000000000000YM21B175
BI00B32P8    TAPAW-1124     2021120118007703994              AVSS 0.5F L/W            CCN000006000000006000FN00000000020211201000006000NNM21 20211123194103    1W    00000150000000674000000000032P8    YIYTM   000000000000YM21B176
BI00B32P8    TAPAW-1124     2021112418007704064              AVSS 0.75F G/W           CCN000007000000006000FN00000000020211201000006000NNM00 20211123194151    1W    00000100000000943000000000032P8    YIYTM   000000000000YM21B209
BI00B32P8    TAPAW-1124     2021112418007704190              AVSS 1.25F L             CCN000004000000004000FN00000000020211201000004000NNM22 20211123195146    1W    00000080000001389000000000032P8    YIYTM   000000000000YM21B250
BI00B32P8    TAPAW-1124     2021120118007704193              AVSS 1.25F L/B           CCN000002400000002400FN00000000020211201000002400NNM21 20211123184427    1W    00000080000001389000000000032P8    YIYTM   000000000000YM21B251
BI00B32P8    TAPAW-1124     2021120118007704197              AVSS 1.25F L/Y           CCN000004000000004000FN00000000020211201000004000NNM21 20211123184427    1W    00000080000001389000000000032P8    YIYTM   000000000000YM21B252
BI00B32P8    TAPAW-1124     2021112418007704152              AVSS 1.25F P             CCN000000800000000800FN00000000020211201000000800NNM22 20211123195146    1W    00000080000001389000000000032P8    YIYTM   000000000000YM21B253
BI00B32P8    TAPAW-1124     2021120118007704150              AVSS 1.25F R             CCN000008000000008000FN00000000020211201000008000NNM21 20211123184427    1W    00000080000001389000000000032P8    YIYTM   000000000000YM21B254
BI00B32P8    TAPAW-1124     2021120118007704159              AVSS 1.25F R/L           CCN000003200000003200FN00000000020211201000003200NNM21 20211123184427    1W    00000080000001389000000000032P8    YIYTM   000000000000YM21B256
BI00B32P8    TAPAW-1124     2021120118007704154              AVSS 1.25F R/W           CCN000002400000002400FN00000000020211201000002400NNM21 20211123184427    1W    00000080000001389000000000032P8    YIYTM   000000000000YM21B257
BI00B32P8    TAPAW-1124     2021120118007704157              AVSS 1.25F R/Y           CCN000004800000004800FN00000000020211201000004800NNM21 20211123184427    1W    00000080000001389000000000032P8    YIYTM   000000000000YM21B258
BI00B32P8    TAPAW-1124     2021120118007704140              AVSS 1.25F W             CCN000012000000012000FN00000000020211201000012000NNM22 20211123195146    1W    00000080000001389000000000032P8    YIYTM   000000000000YM21B259
BI00B32P8    TAPAW-1124     2021120118007704143              AVSS 1.25F W/B           CCN000002400000002400FN00000000020211201000002400NNM21 20211123184427    1W    00000080000001389000000000032P8    YIYTM   000000000000YM21B260
BI00B32P8    TAPAW-1124     2021120118007704146              AVSS 1.25F W/G           CCN000002400000002400FN00000000020211201000002400NNM21 20211123184427    1W    00000080000001389000000000032P8    YIYTM   000000000000YM21B261
BI00B32P8    TAPAW-1124     2021120118007704149              AVSS 1.25F W/L           CCN000003200000003200FN00000000020211201000003200NNM21 20211123184427    1W    00000080000001389000000000032P8    YIYTM   000000000000YM21B262
BI00B32P8    TAPAW-1123     20211124180D0203730              AVSSH 0.3F B             CCN000020000000000000FY00000000020211201000000000NNM10 20211123192851    1W    00000200000000515000000000032P8    YIYTM   000000000000YM11B081
BI00B32P8    TAPAW-1123     20211201180D0203780              AVSSH 0.3F BR            CCN000016000000016000FN00000000020211201000016000NNM24 20211123183118    1W    00000200000000515000000000032P8    YIYTM   000000000000YM11B082
BI00B32P8    TAPAW-1123     20211124180D0203760              AVSSH 0.3F G             CCN000008000000002000FN00000000020211201000002000NNM20 20211123193144    1W    00000200000000515000000000032P8    YIYTM   000000000000YM11B083
BI00B32P8    TAPAW-1123     20211124180D0203790              AVSSH 0.3F L             CCN000014000000000000FY00000000020211201000000000NNM10 20211123193144    1W    00000200000000515000000000032P8    YIYTM   000000000000YM11B084
BI00B32P8    TAPAW-1124     20211124180D0203790              AVSSH 0.3F L             CCN000014000000012000FN00000000020211201000012000NNM00 20211123183644    1W    00000200000000515000000000032P8    YIYTM   000000000000YM21B093
BI00B32P8    TAPAW-1123     20211124180D0203752              AVSSH 0.3F P             CCN000016000000000000FY00000000020211201000000000NNM10 20211123193144    1W    00000200000000515000000000032P8    YIYTM   000000000000YM11B085
BI00B32P8    TAPAW-1123     20211124180D0203750              AVSSH 0.3F R             CCN000008000000000000FY00000000020211201000000000NNM10 20211123193144    1W    00000200000000515000000000032P8    YIYTM   000000000000YM11B086
BI00B32P8    TAPAW-1123     20211124180D0203792              AVSSH 0.3F V             CCN000010000000000000FY00000000020211201000000000NNM10 20211123193144    1W    00000200000000515000000000032P8    YIYTM   000000000000YM11B087
BI00B32P8    TAPAW-1124     20211124180D0203792              AVSSH 0.3F V             CCN000010000000004000FN00000000020211201000004000NNM00 20211123193425    1W    00000200000000515000000000032P8    YIYTM   000000000000YM21B096
BI00B32P8    TAPAW-1123     20211201180D0203743              AVSSH 0.3F W/B           CCN000004000000004000FN00000000020211201000004000NNM24 20211123183421    1W    00000200000000515000000000032P8    YIYTM   000000000000YM11B088
BI00B32P8    TAPAW-1123     20211124180D0203770              AVSSH 0.3F Y             CCN000016000000000000FY00000000020211201000000000NNM10 20211123193144    1W    00000200000000515000000000032P8    YIYTM   000000000000YM11B089
BI00B32P8    TAPAW-1124     20211124180D0203770              AVSSH 0.3F Y             CCN000016000000016000FN00000000020211201000016000NNM00 20211123194833    1W    00000200000000515000000000032P8    YIYTM   000000000000YM21B098
BI00B32P8    TAPAW-1124     20211124180D0204190              AVSSH 1.25F L            CCN000001600000001600FN00000000020211201000001600NNM00 20211123195000    1W    00000080000001458000000000032P8    YIYTM   000000000000YM21B130
BI00B32P8    TAPAW-1124     20211124180D0204159              AVSSH 1.25F R/L          CCN000001600000001600FN00000000020211201000001600NNM00 20211123195023    1W    00000080000001458000000000032P8    YIYTM   000000000000YM21B132
BI00B32P8    TAPAW-1124     20211124180D0204154              AVSSH 1.25F R/W          CCN000001600000001600FN00000000020211201000001600NNM22 20211123195000    1W    00000080000001458000000000032P8    YIYTM   000000000000YM21B133
BI00B32P8    TAPAW-1124     20211124180D0204170              AVSSH 1.25F Y            CCN000001600000001600FN00000000020211201000001600NNM00 20211123184111    1W    00000080000001458000000000032P8    YIYTM   000000000000YM21B136
BI00B32P8    TAPAW-1124     20211124180077040F0              AVSS 0.75F GY/B          CCN000002000000001000FN00000000020211201000001000NNM00 20211123194220    1W    00000100000000943000000000032P8    YIYTM   000000000000YM21B212
BI00B32P8    TAPAW-1124     2021120118007704156              AVSS 1.25F R/G           CCN000001600000001600FN00000000020211201000001600NNM21 20211123184427    1W    00000080000001389000000000032P8    YIYTM   000000000000YM21B255
BI00B32P8    TAPAW-1123     2021120118007704134              AVSS 1.25F B/W           CCN000000800000000800FN00000000020211201000000800NNM24 20211123183530    1W    00000080000001389000000000032P8    YIYTM   000000000000YM11B223
BI00B32P8    TAPAW-1123     20211201180D0203730              AVSSH 0.3F B             CCN000018000000020000FN00000000020211201000020000NNM24 20211123192851    1W    00000200000000515000000000032P8    YIYTM   000000000000YM11B081
BI00B32P8    TAPAW-1123     20211201180D0203760              AVSSH 0.3F G             CCN000004000000006000FN00000000020211201000006000NNM24 20211123193144    1W    00000200000000515000000000032P8    YIYTM   000000000000YM11B083
BI00B32P8    TAPAW-1123     20211201180D0203790              AVSSH 0.3F L             CCN000012000000014000FN00000000020211201000014000NNM24 20211123193144    1W    00000200000000515000000000032P8    YIYTM   000000000000YM11B084
BI00B32P8    TAPAW-1123     20211201180D0203752              AVSSH 0.3F P             CCN000012000000016000FN00000000020211201000016000NNM24 20211123193144    1W    00000200000000515000000000032P8    YIYTM   000000000000YM11B085
BI00B32P8    TAPAW-1123     20211201180D0203750              AVSSH 0.3F R             CCN000006000000008000FN00000000020211201000008000NNM24 20211123193144    1W    00000200000000515000000000032P8    YIYTM   000000000000YM11B086
BI00B32P8    TAPAW-1123     20211201180D0203792              AVSSH 0.3F V             CCN000008000000010000FN00000000020211201000010000NNM24 20211123193144    1W    00000200000000515000000000032P8    YIYTM   000000000000YM11B087
BI00B32P8    TAPAW-1123     20211201180D0203770              AVSSH 0.3F Y             CCN000014000000016000FN00000000020211201000016000NNM24 20211123193144    1W    00000200000000515000000000032P8    YIYTM   000000000000YM11B089
BI00B32P8    TAPAW-1124     20211201180D0203790              AVSSH 0.3F L             CCN000002000000002000FN00000000020211201000002000NNM21 20211123183826    1W    00000200000000515000000000032P8    YIYTM   000000000000YM21B093
BI00B32P8    TAPAW-1124     20211201180D0203770              AVSSH 0.3F Y             CCN000002000000000000FY00000000020211201000000000NNM10 20211123194833    1W    00000200000000515000000000032P8    YIYTM   000000000000YM21B098
BI00B32P8    TAPAW-1124     20211201180D0204190              AVSSH 1.25F L            CCN000000800000000000FY00000000020211201000000000NNM10 20211123195000    1W    00000080000001458000000000032P8    YIYTM   000000000000YM21B130
BI00B32P8    TAPAW-1124     20211201180D0204159              AVSSH 1.25F R/L          CCN000000800000000000FY00000000020211201000000000NNM10 20211123195023    1W    00000080000001458000000000032P8    YIYTM   000000000000YM21B132
BI00B32P8    TAPAW-1124     20211201180D0204170              AVSSH 1.25F Y            CCN000000800000000800FN00000000020211201000000800NNM21 20211123184111    1W    00000080000001458000000000032P8    YIYTM   000000000000YM21B136
BI00B32P8    TAPAW-1124     20211201180D0203792              AVSSH 0.3F V             CCN000006000000006000FN00000000020211201000006000NNM21 20211123193425    1W    00000200000000515000000000032P8    YIYTM   000000000000YM21B096
BI00B32P8    TAPAW-1124     2021120118007703930              AVSS 0.5F B              CCN000007500000007500FN00000000020211201000007500NNM21 20211123193753    1W    00000150000000674000000000032P8    YIYTM   000000000000YM21B153
BI00B32P8    TAPAW-1124     2021120118007703934              AVSS 0.5F B/W            CCN000004500000004500FN00000000020211201000004500NNM21 20211123193941    1W    00000150000000674000000000032P8    YIYTM   000000000000YM21B158
BI00B32P8    TAPAW-1124     2021120118007703990              AVSS 0.5F L              CCN000009000000009000FN00000000020211201000009000NNM21 20211123194021    1W    00000150000000674000000000032P8    YIYTM   000000000000YM21B174
BI00B32P8    TAPAW-1124     2021120118007704064              AVSS 0.75F G/W           CCN000001000000001000FN00000000020211201000001000NNM21 20211123194151    1W    00000100000000943000000000032P8    YIYTM   000000000000YM21B209
BI00B32P8    TAPAW-1124     20211201180077040F0              AVSS 0.75F GY/B          CCN000001000000001000FN00000000020211201000001000NNM21 20211123194220    1W    00000100000000943000000000032P8    YIYTM   000000000000YM21B212
BI00B32Q8    EW2111A MW     2021112418007703730              AVSS 0.3F B              CCN000084000000084000FN00000000020211101000084000NNE21 20211123164525    1W    00000200000000496000000000032Q8    EMEMI   000000000000MA21B005
BI00B32Q8    EW2111A MW     2021120118007703930              AVSS 0.5F B              CCN000040500000040500FN00000000020211101000040500NNE20 20211123164554    1W    00000150000000674000000000032Q8    EMEMI   000000000000MA21B007
BI00B32Q8    EW2111A MW     2021120118007703941              AVSS 0.5F GY             CCN000066000000066000FN00000000020211101000066000NNE20 20211123164358    1W    00000150000000674000000000032Q8    EMEMI   000000000000MA21B008
BI00B32Q8    EW2111A MW     2021120118007703990              AVSS 0.5F L              CCN000045000000045000FN00000000020211101000045000NNE20 20211123164358    1W    00000150000000674000000000032Q8    EMEMI   000000000000MA21B009
BI00B32Q8    EW2111A MW     2021120118007704190              AVSS 1.25F L             CCN000054400000054400FN00000000020211101000054400NNE20 20211123164358    1W    00000080000001389000000000032Q8    EMEMI   000000000000MA21B012
BI00B32Q8    EW2111A MW     2021120118007704152              AVSS 1.25F P             CCN000056800000056800FN00000000020211101000056800NNE20 20211123164358    1W    00000080000001389000000000032Q8    EMEMI   000000000000MA21B013
BI00B32Q8    EW2111A MW     2021120118007704150              AVSS 1.25F R             CCN000050400000050400FN00000000020211101000050400NNE20 20211123164358    1W    00000080000001389000000000032Q8    EMEMI   000000000000MA21B014
BI00B32Q8    EW2111A MW     2021120118007704140              AVSS 1.25F W             CCN000091200000091200FN00000000020211101000091200NNE22 20211123164836    1W    00000080000001389000000000032Q8    EMEMI   000000000000MA21B015
BI00B32Q8    EW2111A MW     20211201180D0203740              AVSSH 0.3F W             CCN000110000000110000FN00000000020211101000110000NNE20 20211123164358    1W    00000200000000515000000000032Q8    EMEMI   000000000000MA21B001
BI00B32Q8    EW2111A MW     20211201180D0204160              AVSSH 1.25F G            CCN000175200000175200FN00000000020211101000175200NNE20 20211123164358    1W    00000080000001458000000000032Q8    EMEMI   000000000000MA21B003
BI00B32Q8    EW2111A MW     20211201180D0204150              AVSSH 1.25F R            CCN000091200000091200FN00000000020211101000091200NNE20 20211123164358    1W    00000080000001458000000000032Q8    EMEMI   000000000000MA21B004
BI00B32Q8    EW22011 MW     2021120118007703930              AVSS 0.5F B              CCN000061500000061500FN00000000020220101000061500NNM20 20211123170627    1W    00000150000000674000000000032Q8    EMEMI   000000000000MV21B007
BI00B32Q8    EW22011 MW     2021120118007703941              AVSS 0.5F GY             CCN000096000000096000FN00000000020220101000096000NNM20 20211123170627    1W    00000150000000674000000000032Q8    EMEMI   000000000000MV21B008
BI00B32Q8    EW22011 MW     2021120118007703990              AVSS 0.5F L              CCN000054000000054000FN00000000020220101000054000NNM20 20211123170647    1W    00000150000000674000000000032Q8    EMEMI   000000000000MV21B009
BI00B32Q8    EW22011 MW     2021120118007704190              AVSS 1.25F L             CCN000105600000105600FN00000000020220101000105600NNM20 20211123170745    1W    00000080000001389000000000032Q8    EMEMI   000000000000MV21B012
BI00B32Q8    EW22011 MW     2021120118007704152              AVSS 1.25F P             CCN000115200000115200FN00000000020220101000115200NNM20 20211123170745    1W    00000080000001389000000000032Q8    EMEMI   000000000000MV21B013
BI00B32Q8    EW22011 MW     2021120118007704150              AVSS 1.25F R             CCN000108000000108000FN00000000020220101000108000NNM20 20211123170745    1W    00000080000001389000000000032Q8    EMEMI   000000000000MV21B014
BI00B32Q8    EW22011 MW     2021120118007704140              AVSS 1.25F W             CCN000198400000198400FN00000000020220101000198400NNM21 20211123170909    1W    00000080000001389000000000032Q8    EMEMI   000000000000MV21B015
BI00B32Q8    EW22011 MW     20211201180D0203740              AVSSH 0.3F W             CCN000206000000206000FN00000000020220101000206000NNM20 20211123170247    1W    00000200000000515000000000032Q8    EMEMI   000000000000MV21B002
BI00B32Q8    EW22011 MW     20211124180D0204160              AVSSH 1.25F G            CCN000258400000020800FN00000000020220101000020800NNM00 20211123170337    1W    00000080000001458000000000032Q8    EMEMI   000000000000MV21B004
BI00B32Q8    EW22011 MW     20211124180D0204190              AVSSH 1.25F L            CCN000121600000049600FN00000000020220101000049600NNM00 20211123170438    1W    00000080000001458000000000032Q8    EMEMI   000000000000MV21B005
BI00B32Q8    EW22011 MW     20211201180D0204150              AVSSH 1.25F R            CCN000105600000105600FN00000000020220101000105600NNM20 20211123170516    1W    00000080000001458000000000032Q8    EMEMI   000000000000MV21B006
BI00B32Q8    EW22011TMW     20211124180D0203760              AVSSH 0.3F G             CCN000196000000090000FN00000000020220101000090000NNM00 20211123165839    1W    00000200000000515000000000032Q8    EMEMI   000000000000MU21B006
BI00B32Q8    EW21124 MW     20211201180D0204140              AVSSH 1.25F W            CCN000026400000026400FN00000000020211201000026400NNM22 20211123171116    1W    00000080000001458000000000032Q8    EMEMI   000000000000MV41A022
BI00B32Q8    EW2110ATMW     2021120118007704192              AVSS 1.25F V             CCN000012800000012800FN00000000020211001000012800NNE21 20211123165310    1W    00000080000001389000000000032Q8    EMEMI   000000000000MO41A012
BI00B32Q8    EW22011TMW     20211201180D0203760              AVSSH 0.3F G             CCN000106000000106000FN00000000020220101000106000NNM20 20211123165839    1W    00000200000000515000000000032Q8    EMEMI   000000000000MU21B006
BI00B32Q8    EW22011 MW     20211201180D0204160              AVSSH 1.25F G            CCN000237600000237600FN00000000020220101000237600NNM20 20211123170337    1W    00000080000001458000000000032Q8    EMEMI   000000000000MV21B004
BI00B32Q8    EW22011 MW     20211201180D0204190              AVSSH 1.25F L            CCN000072000000072000FN00000000020220101000072000NNM20 20211123170438    1W    00000080000001458000000000032Q8    EMEMI   000000000000MV21B005
