BI00A32AF    @TTB108D       20211208181AD2004ZZ              CIVUSAS-S 0.35X4 B       PCN000004800000004800FN00000000020210801000004800NNE25 20211204111957    1W    00000030000002784000000000032AF    HBYHVTB 000000000000UT118018
BI00B32A7    ZZ22022LMW     2022011318000004530              AV 8 B                   CCN000000400000000400FN00000000020220201000000400NNM   20211204100012    1W    00000010000009148000000000032A7    ZZZZY   000000000000ZZ41C056
BI00B32A7    ZZ22023LMW     2022012718000004530              AV 8 B                   CCN000006700000006700FN00000000020220201000006700NNM   20211204100012    1W    00000010000009148000000000032A7    ZZZZY   000000000000ZZ221022
BI00B32A7    @ZZ22022LMW    20220113181E48017ZZ              CAVSAS-S 0.5X1 GY/G      CCN000002800000002800FN00000000020220201000002800NNM   20211204100011    1W    00000040000001932600000000032A7    ZZZZY   000000000000ZZ41C052
BI00B32A7    @ZZ22023LMW    20220127181E48017ZZ              CAVSAS-S 0.5X1 GY/G      CCN000008000000008000FN00000000020220201000008000NNM   20211204100011    1W    00000040000001932600000000032A7    ZZZZY   000000000000ZZ221018
BI00B32A7    @ZZ22021LMW    20220106181E48018ZZ              CAVSAS-S 0.5X2 GY/SB     CCN000000300000000300FN00000000020220201000000300NNM   20211204100011    1W    00000030000002493000000000032A7    ZZZZY   000000000000ZZ31C029
BI00B32A7    @ZZ22022LMW    20220113181E48018ZZ              CAVSAS-S 0.5X2 GY/SB     CCN000001500000001500FN00000000020220201000001500NNM   20211204100011    1W    00000030000002493000000000032A7    ZZZZY   000000000000ZZ41C054
BI00B32A7    @ZZ22023LMW    20220127181E48018ZZ              CAVSAS-S 0.5X2 GY/SB     CCN000003600000003600FN00000000020220201000003600NNM   20211204100011    1W    00000030000002493000000000032A7    ZZZZY   000000000000ZZ221020
BI00B32A7    @ZZ22021LMW    20220106181E48027ZZ              CAVSAS-S 0.5X2 GY/P      CCN000002700000002700FN00000000020220201000002700NNM   20211204100011    1W    00000030000002493000000000032A7    ZZZZY   000000000000ZZ31C028
BI00B32A7    @ZZ22022LMW    20220113181E48027ZZ              CAVSAS-S 0.5X2 GY/P      CCN000001500000001500FN00000000020220201000001500NNM   20211204100011    1W    00000030000002493000000000032A7    ZZZZY   000000000000ZZ41C053
BI00B32A7    @ZZ22023LMW    20220127181E48027ZZ              CAVSAS-S 0.5X2 GY/P      CCN000003600000003600FN00000000020220201000003600NNM   20211204100011    1W    00000030000002493000000000032A7    ZZZZY   000000000000ZZ221019
BI00B32A7    @ZZ22021LMW    20220106181E48040ZZ              CAVSAS-S 0.3X2 GY/V      CCN000010150000010150FN00000000020220201000010150NNM   20211204100011    1W    00000035000001998600000000032A7    ZZZZY   000000000000ZZ31C030
BI00B32A7    @ZZ22022LMW    20220113181E48040ZZ              CAVSAS-S 0.3X2 GY/V      CCN000003850000003850FN00000000020220201000003850NNM   20211204100011    1W    00000035000001998600000000032A7    ZZZZY   000000000000ZZ41C055
BI00B32A7    @ZZ22023LMW    20220127181E48040ZZ              CAVSAS-S 0.3X2 GY/V      CCN000007700000007700FN00000000020220201000007700NNM   20211204100011    1W    00000035000001998600000000032A7    ZZZZY   000000000000ZZ221021
BI00B32CH    SJ2201ADMW     202112231801W004070              IVSSH 0.75F Y            CCN000001300000001300FN00000000020220101000001300NNE   20211204130852    1W    00000130000000882000000000032CH    SJSAMIJF000000000000QR11C002
BI00B32CH    @SJ2201ADMW    20211223181B32037Z5              AVSSCS 0.3FX1 DGY/L      CCN000002000000002000FN00000000020220101000002000NNE   20211204130852    1W    00000050000001780000000000032CH    SJSAMIJF000000000000QR11C001
BI00B32CH    SJ22021 MW     2022010618007703930              AVSS 0.5F B              CCN000001500000001500FN00000000020220201000001500NNM   20211204130944    1W    00000150000000674000000000032CH    SJSAMIJF000000000000QX31C007
BI00B32CH    SJ22022 MW     2022011318007703930              AVSS 0.5F B              CCN000015000000015000FN00000000020220201000015000NNM   20211204130944    1W    00000150000000674000000000032CH    SJSAMIJF000000000000QX41C020
BI00B32CH    SJ22023 MW     2022012018007703930              AVSS 0.5F B              CCN000028500000028500FN00000000020220201000028500NNM   20211204130944    1W    00000150000000674000000000032CH    SJSAMIJF000000000000QX121005
BI00B32CH    SJ22024 MW     2022012718007703930              AVSS 0.5F B              CCN000019500000019500FN00000000020220201000019500NNM   20211204130944    1W    00000150000000674000000000032CH    SJSAMIJF000000000000QX221005
BI00B32CH    SJ22021 MW     2022010618007703941              AVSS 0.5F GY             CCN000001500000001500FN00000000020220201000001500NNM   20211204130944    1W    00000150000000674000000000032CH    SJSAMIJF000000000000QX31C008
BI00B32CH    SJ22022 MW     2022011318007703941              AVSS 0.5F GY             CCN000001500000001500FN00000000020220201000001500NNM   20211204130944    1W    00000150000000674000000000032CH    SJSAMIJF000000000000QX41C021
BI00B32CH    SJ22024 MW     2022012718007703941              AVSS 0.5F GY             CCN000001500000001500FN00000000020220201000001500NNM   20211204130944    1W    00000150000000674000000000032CH    SJSAMIJF000000000000QX221006
BI00B32CH    @SJ22021 MW    20220106181E50011ZZ              AVSSCS-S 0.5FX2 DGY/Y    CCN000002700000002700FN00000000020220201000002700NNM   20211204130939    1W    00000030000002072000000000032CH    SJSAMIJF000000000000QX31C005
BI00B32CH    @SJ22022 MW    20220113181E50011ZZ              AVSSCS-S 0.5FX2 DGY/Y    CCN000003300000003300FN00000000020220201000003300NNM   20211204130939    1W    00000030000002072000000000032CH    SJSAMIJF000000000000QX41C017
BI00B32CH    @SJ22023 MW    20220120181E50011ZZ              AVSSCS-S 0.5FX2 DGY/Y    CCN000003600000003600FN00000000020220201000003600NNM   20211204130939    1W    00000030000002072000000000032CH    SJSAMIJF000000000000QX121001
BI00B32CH    @SJ22024 MW    20220127181E50011ZZ              AVSSCS-S 0.5FX2 DGY/Y    CCN000003900000003900FN00000000020220201000003900NNM   20211204130939    1W    00000030000002072000000000032CH    SJSAMIJF000000000000QX221001
BI00B32CH    @SJ22023 MW    20220120181F21009ZZ              AVSSHCS-S 0.5FX2 B       CCN000018900000018900FN00000000020220201000018900NNM   20211204130939    1W    00000030000002505800000000032CH    SJSAMIJF000000000000QX121002
BI00B32CH    @SJ22024 MW    20220127181F21009ZZ              AVSSHCS-S 0.5FX2 B       CCN000024300000024300FN00000000020220201000024300NNM   20211204130939    1W    00000030000002505800000000032CH    SJSAMIJF000000000000QX221002
BI00B32CH    @SJ22021DMW    20220106181B32037Z5              AVSSCS 0.3FX1 DGY/L      CCN000007000000007000FN00000000020220201000007000NNM   20211204130940    1W    00000050000001780000000000032CH    SJSAMIJF000000000000QY31C002
BI00B32CH    @SJ22022DMW    20220113181B32037Z5              AVSSCS 0.3FX1 DGY/L      CCN000006000000006000FN00000000020220201000006000NNM   20211204130940    1W    00000050000001780000000000032CH    SJSAMIJF000000000000QY41C005
BI00B32CH    @SJ22023DMW    20220120181B32037Z5              AVSSCS 0.3FX1 DGY/L      CCN000006000000006000FN00000000020220201000006000NNM   20211204130940    1W    00000050000001780000000000032CH    SJSAMIJF000000000000QY121001
BI00B32CH    @SJ22024DMW    20220127181B32037Z5              AVSSCS 0.3FX1 DGY/L      CCN000006500000006500FN00000000020220201000006500NNM   20211204130940    1W    00000050000001780000000000032CH    SJSAMIJF000000000000QY221001
BI00B32CH    SJ22023HMW     2022012018007704030              AVSS 0.75F B             CCN000003000000003000FN00000000020220201000003000NNM   20211204130946    1W    00000100000000943000000000032CH    SJSAMIJF000000000000QW121001
BI00B32CH    SJ22024HMW     2022012718007704030              AVSS 0.75F B             CCN000004000000004000FN00000000020220201000004000NNM   20211204130946    1W    00000100000000943000000000032CH    SJSAMIJF000000000000QW221001
BI00B32CH    SJ22021HMW     2022010618007704130              AVSS 1.25F B             CCN000001600000001600FN00000000020220201000001600NNM   20211204130946    1W    00000080000001389000000000032CH    SJSAMIJF000000000000QW31C002
BI00B32CH    SJ22022HMW     2022011318007704130              AVSS 1.25F B             CCN000000800000000800FN00000000020220201000000800NNM   20211204130946    1W    00000080000001389000000000032CH    SJSAMIJF000000000000QW41C006
BI00B32CH    SJ22023HMW     2022012018007704130              AVSS 1.25F B             CCN000003200000003200FN00000000020220201000003200NNM   20211204130946    1W    00000080000001389000000000032CH    SJSAMIJF000000000000QW121002
BI00B32CH    SJ22024HMW     2022012718007704130              AVSS 1.25F B             CCN000001600000001600FN00000000020220201000001600NNM   20211204130946    1W    00000080000001389000000000032CH    SJSAMIJF000000000000QW221002
BI00B32CH    @SJ22021MMW    20220106181E48022ZZ              CAVSAS-S 0.5X2 GY        CCN000000900000000900FN00000000020220201000000900NNM   20211204130942    1W    00000030000002493000000000032CH    SJSAMIJF000000000000QZ31C002
BI00B32CH    @SJ22022MMW    20220113181E48022ZZ              CAVSAS-S 0.5X2 GY        CCN000001200000001200FN00000000020220201000001200NNM   20211204130942    1W    00000030000002493000000000032CH    SJSAMIJF000000000000QZ41C005
BI00B32CH    @SJ22023MMW    20220120181E48022ZZ              CAVSAS-S 0.5X2 GY        CCN000001200000001200FN00000000020220201000001200NNM   20211204130942    1W    00000030000002493000000000032CH    SJSAMIJF000000000000QZ121001
BI00B32CH    @SJ22024MMW    20220127181E48022ZZ              CAVSAS-S 0.5X2 GY        CCN000001500000001500FN00000000020220201000001500NNM   20211204130942    1W    00000030000002493000000000032CH    SJSAMIJF000000000000QZ221001
BI00B32CH    @SJ22024MMW    20220127181E48062ZZ              CAVSAS-S 0.5X2 GY/BR     CCN000000600000000600FN00000000020220201000000600NNM   20211204130942    1W    00000030000002493000000000032CH    SJSAMIJF000000000000QZ221002
BI00B32CH    @SJ22023SMW    20220120181E48011ZZ              CAVSAS-S 0.3X1 GY/W      CCN000008500000008500FN00000000020220201000008500NNM   20211204145856    1W    00000050000001701600000000032CH    SJSAMIJF000000000000QS121001
BI00B32CH    @SJ22024SMW    20220127181E48011ZZ              CAVSAS-S 0.3X1 GY/W      CCN000011500000011500FN00000000020220201000011500NNM   20211204145856    1W    00000050000001701600000000032CH    SJSAMIJF000000000000QS221001
BI00B32DG    @RH1121        20211223181E48031ZZ              CAVSAS-S 0.3X2 GY        CCN000003150000003150FN00000000020211201000003150NNM20 20211204100616    1W    00000035000001998600000000032DG    BFSAIBF 000000000000GX41A001
BI00B32DG    @RH1121        20211223181E48048ZZ              CAVSAS-S 0.3X2 GY/O      CCN000007700000007700FN00000000020211201000007700NNM20 20211204100616    1W    00000035000001998600000000032DG    BFSAIBF 000000000000GX41A002
BI00B32DG    @RH1121        20211223181E50016ZZ              AVSSCS-S 0.5FX2 DGY/R    CCN000003000000003000FN00000000020211201000003000NNM20 20211204100616    1W    00000030000002072000000000032DG    BFSAIBF 000000000000GX41A003
BI00B32DG    @RH1121        20211223181E50011ZZ              AVSSCS-S 0.5FX2 DGY/Y    CCN000006900000006900FN00000000020211201000006900NNM20 20211204100616    1W    00000030000002072000000000032DG    BFSAIBF 000000000000GX41A004
BI00B32D1    @DFTW2149A     20211106181E50002ZZ              AVSSCS-S 0.3FX2 DGY/G    CCN000003500000002800FY00000280020211101000000000NNE20 20211204105104    1W    00000035000001997000000000032D1    TOYOT-K 000000000000KM11B025
BI00B32D1    @DFTW2149A     20211106181E50021ZZ              AVSSCS-S 0.3FX2 DGY/P    CCN000003850000002800FY00000280020211101000000000NNE20 20211204105228    1W    00000035000001997000000000032D1    TOYOT-K 000000000000KM11B026
BI00B32D1    @DFTW2149A     20211215181E50002ZZ              AVSSCS-S 0.3FX2 DGY/G    CCN000000700000000700FN00000000020211101000000700NNE21 20211204105044    1W    00000035000001997000000000032D1    TOYOT-K 000000000000KM11B025
BI00B32D1    @DFTW2149A     20211215181E50021ZZ              AVSSCS-S 0.3FX2 DGY/P    CCN000001050000001050FN00000000020211101000001050NNE21 20211204105206    1W    00000035000001997000000000032D1    TOYOT-K 000000000000KM11B026
BI00B32D9    C20602         202201061801W003930              IVSSH 0.5F B             CCN000007200000007200FN00000000020220201000007200NNM   20211204100556    1W    00000180000000625000000000032D9    UEHESTO 000000000000HT31C055
BI00B32D9    C20702         202201131801W003930              IVSSH 0.5F B             CCN000007200000007200FN00000000020220201000007200NNM   20211204100556    1W    00000180000000625000000000032D9    UEHESTO 000000000000HT41C115
BI00B32D9    C20802         202201201801W003930              IVSSH 0.5F B             CCN000007200000007200FN00000000020220201000007200NNM   20211204100556    1W    00000180000000625000000000032D9    UEHESTO 000000000000HT121014
BI00B32D9    C20902         202201271801W003930              IVSSH 0.5F B             CCN000007200000007200FN00000000020220201000007200NNM   20211204100556    1W    00000180000000625000000000032D9    UEHESTO 000000000000HT221023
BI00B32D9    C20602         202201061801W003940              IVSSH 0.5F W             CCN000028800000028800FN00000000020220201000028800NNM   20211204100556    1W    00000180000000625000000000032D9    UEHESTO 000000000000HT31C063
BI00B32D9    C20702         202201131801W003940              IVSSH 0.5F W             CCN000028800000028800FN00000000020220201000028800NNM   20211204100556    1W    00000180000000625000000000032D9    UEHESTO 000000000000HT41C123
BI00B32D9    C20802         202201201801W003940              IVSSH 0.5F W             CCN000028800000028800FN00000000020220201000028800NNM   20211204100556    1W    00000180000000625000000000032D9    UEHESTO 000000000000HT121022
BI00B32D9    C20902         202201271801W003940              IVSSH 0.5F W             CCN000028800000028800FN00000000020220201000028800NNM   20211204100556    1W    00000180000000625000000000032D9    UEHESTO 000000000000HT221031
BI00B32D9    C20602         202201061801W003941              IVSSH 0.5F GY            CCN000001800000001800FN00000000020220201000001800NNM   20211204100556    1W    00000180000000625000000000032D9    UEHESTO 000000000000HT31C057
BI00B32D9    C20702         202201131801W003941              IVSSH 0.5F GY            CCN000001800000001800FN00000000020220201000001800NNM   20211204100556    1W    00000180000000625000000000032D9    UEHESTO 000000000000HT41C117
BI00B32D9    C20802         202201201801W003941              IVSSH 0.5F GY            CCN000001800000001800FN00000000020220201000001800NNM   20211204100556    1W    00000180000000625000000000032D9    UEHESTO 000000000000HT121016
BI00B32D9    C20902         202201271801W003941              IVSSH 0.5F GY            CCN000001800000001800FN00000000020220201000001800NNM   20211204100556    1W    00000180000000625000000000032D9    UEHESTO 000000000000HT221025
BI00B32D9    C20602         202201061801W003943              IVSSH 0.5F W/B           CCN000005400000005400FN00000000020220201000005400NNM   20211204100556    1W    00000180000000625000000000032D9    UEHESTO 000000000000HT31C064
BI00B32D9    C20702         202201131801W003943              IVSSH 0.5F W/B           CCN000005400000005400FN00000000020220201000005400NNM   20211204100556    1W    00000180000000625000000000032D9    UEHESTO 000000000000HT41C124
BI00B32D9    C20802         202201201801W003943              IVSSH 0.5F W/B           CCN000005400000005400FN00000000020220201000005400NNM   20211204100556    1W    00000180000000625000000000032D9    UEHESTO 000000000000HT121023
BI00B32D9    C20902         202201271801W003943              IVSSH 0.5F W/B           CCN000005400000005400FN00000000020220201000005400NNM   20211204100556    1W    00000180000000625000000000032D9    UEHESTO 000000000000HT221032
BI00B32D9    C20602         202201061801W003950              IVSSH 0.5F R             CCN000012600000012600FN00000000020220201000012600NNM   20211204100556    1W    00000180000000625000000000032D9    UEHESTO 000000000000HT31C061
BI00B32D9    C20702         202201131801W003950              IVSSH 0.5F R             CCN000012600000012600FN00000000020220201000012600NNM   20211204100556    1W    00000180000000625000000000032D9    UEHESTO 000000000000HT41C121
BI00B32D9    C20802         202201201801W003950              IVSSH 0.5F R             CCN000012600000012600FN00000000020220201000012600NNM   20211204100556    1W    00000180000000625000000000032D9    UEHESTO 000000000000HT121020
BI00B32D9    C20902         202201271801W003950              IVSSH 0.5F R             CCN000012600000012600FN00000000020220201000012600NNM   20211204100556    1W    00000180000000625000000000032D9    UEHESTO 000000000000HT221029
BI00B32D9    C20602         202201061801W003952              IVSSH 0.5F P             CCN000003600000003600FN00000000020220201000003600NNM   20211204100556    1W    00000180000000625000000000032D9    UEHESTO 000000000000HT31C060
BI00B32D9    C20702         202201131801W003952              IVSSH 0.5F P             CCN000003600000003600FN00000000020220201000003600NNM   20211204100556    1W    00000180000000625000000000032D9    UEHESTO 000000000000HT41C120
BI00B32D9    C20802         202201201801W003952              IVSSH 0.5F P             CCN000003600000003600FN00000000020220201000003600NNM   20211204100556    1W    00000180000000625000000000032D9    UEHESTO 000000000000HT121019
BI00B32D9    C20902         202201271801W003952              IVSSH 0.5F P             CCN000003600000003600FN00000000020220201000003600NNM   20211204100556    1W    00000180000000625000000000032D9    UEHESTO 000000000000HT221028
BI00B32D9    C20602         202201061801W003960              IVSSH 0.5F G             CCN000003600000003600FN00000000020220201000003600NNM   20211204100556    1W    00000180000000625000000000032D9    UEHESTO 000000000000HT31C056
BI00B32D9    C20702         202201131801W003960              IVSSH 0.5F G             CCN000003600000003600FN00000000020220201000003600NNM   20211204100556    1W    00000180000000625000000000032D9    UEHESTO 000000000000HT41C116
BI00B32D9    C20802         202201201801W003960              IVSSH 0.5F G             CCN000003600000003600FN00000000020220201000003600NNM   20211204100556    1W    00000180000000625000000000032D9    UEHESTO 000000000000HT121015
BI00B32D9    C20902         202201271801W003960              IVSSH 0.5F G             CCN000003600000003600FN00000000020220201000003600NNM   20211204100556    1W    00000180000000625000000000032D9    UEHESTO 000000000000HT221024
BI00B32D9    C20602         202201061801W003961              IVSSH 0.5F LG            CCN000003600000003600FN00000000020220201000003600NNM   20211204100556    1W    00000180000000625000000000032D9    UEHESTO 000000000000HT31C059
BI00B32D9    C20702         202201131801W003961              IVSSH 0.5F LG            CCN000003600000003600FN00000000020220201000003600NNM   20211204100556    1W    00000180000000625000000000032D9    UEHESTO 000000000000HT41C119
BI00B32D9    C20802         202201201801W003961              IVSSH 0.5F LG            CCN000003600000003600FN00000000020220201000003600NNM   20211204100556    1W    00000180000000625000000000032D9    UEHESTO 000000000000HT121018
BI00B32D9    C20902         202201271801W003961              IVSSH 0.5F LG            CCN000003600000003600FN00000000020220201000003600NNM   20211204100556    1W    00000180000000625000000000032D9    UEHESTO 000000000000HT221027
BI00B32D9    C20602         202201061801W003970              IVSSH 0.5F Y             CCN000001800000001800FN00000000020220201000001800NNM   20211204100556    1W    00000180000000625000000000032D9    UEHESTO 000000000000HT31C065
BI00B32D9    C20702         202201131801W003970              IVSSH 0.5F Y             CCN000001800000001800FN00000000020220201000001800NNM   20211204100556    1W    00000180000000625000000000032D9    UEHESTO 000000000000HT41C125
BI00B32D9    C20802         202201201801W003970              IVSSH 0.5F Y             CCN000001800000001800FN00000000020220201000001800NNM   20211204100556    1W    00000180000000625000000000032D9    UEHESTO 000000000000HT121024
BI00B32D9    C20902         202201271801W003970              IVSSH 0.5F Y             CCN000001800000001800FN00000000020220201000001800NNM   20211204100556    1W    00000180000000625000000000032D9    UEHESTO 000000000000HT221033
BI00B32D9    C20602         202201061801W003990              IVSSH 0.5F L             CCN000003600000003600FN00000000020220201000003600NNM   20211204100556    1W    00000180000000625000000000032D9    UEHESTO 000000000000HT31C058
BI00B32D9    C20702         202201131801W003990              IVSSH 0.5F L             CCN000003600000003600FN00000000020220201000003600NNM   20211204100556    1W    00000180000000625000000000032D9    UEHESTO 000000000000HT41C118
BI00B32D9    C20802         202201201801W003990              IVSSH 0.5F L             CCN000003600000003600FN00000000020220201000003600NNM   20211204100556    1W    00000180000000625000000000032D9    UEHESTO 000000000000HT121017
BI00B32D9    C20902         202201271801W003990              IVSSH 0.5F L             CCN000003600000003600FN00000000020220201000003600NNM   20211204100556    1W    00000180000000625000000000032D9    UEHESTO 000000000000HT221026
BI00B32D9    C20602         202201061801W003992              IVSSH 0.5F V             CCN000001800000001800FN00000000020220201000001800NNM   20211204100556    1W    00000180000000625000000000032D9    UEHESTO 000000000000HT31C062
BI00B32D9    C20702         202201131801W003992              IVSSH 0.5F V             CCN000001800000001800FN00000000020220201000001800NNM   20211204100556    1W    00000180000000625000000000032D9    UEHESTO 000000000000HT41C122
BI00B32D9    C20802         202201201801W003992              IVSSH 0.5F V             CCN000001800000001800FN00000000020220201000001800NNM   20211204100556    1W    00000180000000625000000000032D9    UEHESTO 000000000000HT121021
BI00B32D9    C20902         202201271801W003992              IVSSH 0.5F V             CCN000001800000001800FN00000000020220201000001800NNM   20211204100556    1W    00000180000000625000000000032D9    UEHESTO 000000000000HT221030
BI00B32D9    C20602         202201061801W004030              IVSSH 0.75F B            CCN000001300000001300FN00000000020220201000001300NNM   20211204100556    1W    00000130000000882000000000032D9    UEHESTO 000000000000HT31C066
BI00B32D9    C20702         202201131801W004030              IVSSH 0.75F B            CCN000001300000001300FN00000000020220201000001300NNM   20211204100556    1W    00000130000000882000000000032D9    UEHESTO 000000000000HT41C126
BI00B32D9    C20902         202201271801W004030              IVSSH 0.75F B            CCN000001300000001300FN00000000020220201000001300NNM   20211204100556    1W    00000130000000882000000000032D9    UEHESTO 000000000000HT221034
BI00B32D9    C20602         202201061801W004043              IVSSH 0.75F W/B          CCN000001300000001300FN00000000020220201000001300NNM   20211204100556    1W    00000130000000882000000000032D9    UEHESTO 000000000000HT31C071
BI00B32D9    C20802         202201201801W004043              IVSSH 0.75F W/B          CCN000001300000001300FN00000000020220201000001300NNM   20211204100556    1W    00000130000000882000000000032D9    UEHESTO 000000000000HT121028
BI00B32D9    C20602         202201061801W004050              IVSSH 0.75F R            CCN000001300000001300FN00000000020220201000001300NNM   20211204100556    1W    00000130000000882000000000032D9    UEHESTO 000000000000HT31C070
BI00B32D9    C20702         202201131801W004050              IVSSH 0.75F R            CCN000001300000001300FN00000000020220201000001300NNM   20211204100556    1W    00000130000000882000000000032D9    UEHESTO 000000000000HT41C127
BI00B32D9    C20802         202201201801W004050              IVSSH 0.75F R            CCN000001300000001300FN00000000020220201000001300NNM   20211204100556    1W    00000130000000882000000000032D9    UEHESTO 000000000000HT121027
BI00B32D9    C20902         202201271801W004050              IVSSH 0.75F R            CCN000001300000001300FN00000000020220201000001300NNM   20211204100556    1W    00000130000000882000000000032D9    UEHESTO 000000000000HT221036
BI00B32D9    C20602         202201061801W004052              IVSSH 0.75F P            CCN000001300000001300FN00000000020220201000001300NNM   20211204100556    1W    00000130000000882000000000032D9    UEHESTO 000000000000HT31C069
BI00B32D9    C20802         202201201801W004052              IVSSH 0.75F P            CCN000001300000001300FN00000000020220201000001300NNM   20211204100556    1W    00000130000000882000000000032D9    UEHESTO 000000000000HT121026
BI00B32D9    C20602         202201061801W004060              IVSSH 0.75F G            CCN000001300000001300FN00000000020220201000001300NNM   20211204100556    1W    00000130000000882000000000032D9    UEHESTO 000000000000HT31C067
BI00B32D9    C20802         202201201801W004060              IVSSH 0.75F G            CCN000001300000001300FN00000000020220201000001300NNM   20211204100556    1W    00000130000000882000000000032D9    UEHESTO 000000000000HT121025
BI00B32D9    C20602         202201061801W004070              IVSSH 0.75F Y            CCN000001300000001300FN00000000020220201000001300NNM   20211204100556    1W    00000130000000882000000000032D9    UEHESTO 000000000000HT31C072
BI00B32D9    C20802         202201201801W004070              IVSSH 0.75F Y            CCN000001300000001300FN00000000020220201000001300NNM   20211204100556    1W    00000130000000882000000000032D9    UEHESTO 000000000000HT121029
BI00B32D9    C20902         202201271801W004080              IVSSH 0.75F BR           CCN000001300000001300FN00000000020220201000001300NNM   20211204100556    1W    00000130000000882000000000032D9    UEHESTO 000000000000HT221035
BI00B32D9    C20602         202201061801W004090              IVSSH 0.75F L            CCN000001300000001300FN00000000020220201000001300NNM   20211204100556    1W    00000130000000882000000000032D9    UEHESTO 000000000000HT31C068
BI00B32D9    C20602         202201061801W006930              IVSSH 0.35F B            CCN000002500000002500FN00000000020220201000002500NNM   20211204100556    1W    00000250000000452000000000032D9    UEHESTO 000000000000HT31C073
BI00B32D9    C20702         202201131801W006930              IVSSH 0.35F B            CCN000002500000002500FN00000000020220201000002500NNM   20211204100556    1W    00000250000000452000000000032D9    UEHESTO 000000000000HT41C128
BI00B32D9    C20802         202201201801W006930              IVSSH 0.35F B            CCN000002500000002500FN00000000020220201000002500NNM   20211204100556    1W    00000250000000452000000000032D9    UEHESTO 000000000000HT121030
BI00B32D9    C20902         202201271801W006930              IVSSH 0.35F B            CCN000002500000002500FN00000000020220201000002500NNM   20211204100556    1W    00000250000000452000000000032D9    UEHESTO 000000000000HT221037
BI00B32D9    C20802         202201201801W006940              IVSSH 0.35F W            CCN000002500000002500FN00000000020220201000002500NNM   20211204100556    1W    00000250000000452000000000032D9    UEHESTO 000000000000HT121038
BI00B32D9    C20902         202201271801W006940              IVSSH 0.35F W            CCN000002500000002500FN00000000020220201000002500NNM   20211204100556    1W    00000250000000452000000000032D9    UEHESTO 000000000000HT221046
BI00B32D9    C20602         202201061801W006941              IVSSH 0.35F GY           CCN000002500000002500FN00000000020220201000002500NNM   20211204100556    1W    00000250000000452000000000032D9    UEHESTO 000000000000HT31C075
BI00B32D9    C20702         202201131801W006941              IVSSH 0.35F GY           CCN000002500000002500FN00000000020220201000002500NNM   20211204100556    1W    00000250000000452000000000032D9    UEHESTO 000000000000HT41C130
BI00B32D9    C20802         202201201801W006941              IVSSH 0.35F GY           CCN000002500000002500FN00000000020220201000002500NNM   20211204100556    1W    00000250000000452000000000032D9    UEHESTO 000000000000HT121032
BI00B32D9    C20902         202201271801W006941              IVSSH 0.35F GY           CCN000002500000002500FN00000000020220201000002500NNM   20211204100556    1W    00000250000000452000000000032D9    UEHESTO 000000000000HT221039
BI00B32D9    C20602         202201061801W006950              IVSSH 0.35F R            CCN000005000000005000FN00000000020220201000005000NNM   20211204100556    1W    00000250000000452000000000032D9    UEHESTO 000000000000HT31C079
BI00B32D9    C20702         202201131801W006950              IVSSH 0.35F R            CCN000002500000002500FN00000000020220201000002500NNM   20211204100556    1W    00000250000000452000000000032D9    UEHESTO 000000000000HT41C134
BI00B32D9    C20802         202201201801W006950              IVSSH 0.35F R            CCN000005000000005000FN00000000020220201000005000NNM   20211204100556    1W    00000250000000452000000000032D9    UEHESTO 000000000000HT121036
BI00B32D9    C20902         202201271801W006950              IVSSH 0.35F R            CCN000002500000002500FN00000000020220201000002500NNM   20211204100556    1W    00000250000000452000000000032D9    UEHESTO 000000000000HT221043
BI00B32D9    C20602         202201061801W006952              IVSSH 0.35F P            CCN000002500000002500FN00000000020220201000002500NNM   20211204100556    1W    00000250000000452000000000032D9    UEHESTO 000000000000HT31C078
BI00B32D9    C20702         202201131801W006952              IVSSH 0.35F P            CCN000002500000002500FN00000000020220201000002500NNM   20211204100556    1W    00000250000000452000000000032D9    UEHESTO 000000000000HT41C133
BI00B32D9    C20802         202201201801W006952              IVSSH 0.35F P            CCN000002500000002500FN00000000020220201000002500NNM   20211204100556    1W    00000250000000452000000000032D9    UEHESTO 000000000000HT121035
BI00B32D9    C20902         202201271801W006952              IVSSH 0.35F P            CCN000002500000002500FN00000000020220201000002500NNM   20211204100556    1W    00000250000000452000000000032D9    UEHESTO 000000000000HT221042
BI00B32D9    C20602         202201061801W006960              IVSSH 0.35F G            CCN000005000000005000FN00000000020220201000005000NNM   20211204100556    1W    00000250000000452000000000032D9    UEHESTO 000000000000HT31C074
BI00B32D9    C20702         202201131801W006960              IVSSH 0.35F G            CCN000005000000005000FN00000000020220201000005000NNM   20211204100556    1W    00000250000000452000000000032D9    UEHESTO 000000000000HT41C129
BI00B32D9    C20802         202201201801W006960              IVSSH 0.35F G            CCN000002500000002500FN00000000020220201000002500NNM   20211204100556    1W    00000250000000452000000000032D9    UEHESTO 000000000000HT121031
BI00B32D9    C20902         202201271801W006960              IVSSH 0.35F G            CCN000005000000005000FN00000000020220201000005000NNM   20211204100556    1W    00000250000000452000000000032D9    UEHESTO 000000000000HT221038
BI00B32D9    C20602         202201061801W006961              IVSSH 0.35F LG           CCN000002500000002500FN00000000020220201000002500NNM   20211204100556    1W    00000250000000452000000000032D9    UEHESTO 000000000000HT31C077
BI00B32D9    C20702         202201131801W006961              IVSSH 0.35F LG           CCN000002500000002500FN00000000020220201000002500NNM   20211204100556    1W    00000250000000452000000000032D9    UEHESTO 000000000000HT41C132
BI00B32D9    C20802         202201201801W006961              IVSSH 0.35F LG           CCN000002500000002500FN00000000020220201000002500NNM   20211204100556    1W    00000250000000452000000000032D9    UEHESTO 000000000000HT121034
BI00B32D9    C20902         202201271801W006961              IVSSH 0.35F LG           CCN000002500000002500FN00000000020220201000002500NNM   20211204100556    1W    00000250000000452000000000032D9    UEHESTO 000000000000HT221041
BI00B32D9    C20602         202201061801W006970              IVSSH 0.35F Y            CCN000002500000002500FN00000000020220201000002500NNM   20211204100556    1W    00000250000000452000000000032D9    UEHESTO 000000000000HT31C082
BI00B32D9    C20702         202201131801W006970              IVSSH 0.35F Y            CCN000002500000002500FN00000000020220201000002500NNM   20211204100556    1W    00000250000000452000000000032D9    UEHESTO 000000000000HT41C136
BI00B32D9    C20802         202201201801W006970              IVSSH 0.35F Y            CCN000002500000002500FN00000000020220201000002500NNM   20211204100556    1W    00000250000000452000000000032D9    UEHESTO 000000000000HT121039
BI00B32D9    C20902         202201271801W006970              IVSSH 0.35F Y            CCN000002500000002500FN00000000020220201000002500NNM   20211204100556    1W    00000250000000452000000000032D9    UEHESTO 000000000000HT221047
BI00B32D9    C20602         202201061801W006990              IVSSH 0.35F L            CCN000002500000002500FN00000000020220201000002500NNM   20211204100556    1W    00000250000000452000000000032D9    UEHESTO 000000000000HT31C076
BI00B32D9    C20702         202201131801W006990              IVSSH 0.35F L            CCN000002500000002500FN00000000020220201000002500NNM   20211204100556    1W    00000250000000452000000000032D9    UEHESTO 000000000000HT41C131
BI00B32D9    C20802         202201201801W006990              IVSSH 0.35F L            CCN000002500000002500FN00000000020220201000002500NNM   20211204100556    1W    00000250000000452000000000032D9    UEHESTO 000000000000HT121033
BI00B32D9    C20902         202201271801W006990              IVSSH 0.35F L            CCN000002500000002500FN00000000020220201000002500NNM   20211204100556    1W    00000250000000452000000000032D9    UEHESTO 000000000000HT221040
BI00B32D9    C20602         202201061801W006991              IVSSH 0.35F SB           CCN000002500000002500FN00000000020220201000002500NNM   20211204100556    1W    00000250000000452000000000032D9    UEHESTO 000000000000HT31C080
BI00B32D9    C20902         202201271801W006991              IVSSH 0.35F SB           CCN000002500000002500FN00000000020220201000002500NNM   20211204100556    1W    00000250000000452000000000032D9    UEHESTO 000000000000HT221044
BI00B32D9    C20602         202201061801W006992              IVSSH 0.35F V            CCN000002500000002500FN00000000020220201000002500NNM   20211204100556    1W    00000250000000452000000000032D9    UEHESTO 000000000000HT31C081
BI00B32D9    C20702         202201131801W006992              IVSSH 0.35F V            CCN000002500000002500FN00000000020220201000002500NNM   20211204100556    1W    00000250000000452000000000032D9    UEHESTO 000000000000HT41C135
BI00B32D9    C20802         202201201801W006992              IVSSH 0.35F V            CCN000002500000002500FN00000000020220201000002500NNM   20211204100556    1W    00000250000000452000000000032D9    UEHESTO 000000000000HT121037
BI00B32D9    C20902         202201271801W006992              IVSSH 0.35F V            CCN000002500000002500FN00000000020220201000002500NNM   20211204100556    1W    00000250000000452000000000032D9    UEHESTO 000000000000HT221045
BI00B32D9    C20602         20220106180D0203730              AVSSH 0.3F B             CCN000004000000004000FN00000000020220201000004000NNM   20211204100556    1W    00000200000000515000000000032D9    UEHESTO 000000000000HT31C053
BI00B32D9    C20602         20220106180D0203760              AVSSH 0.3F G             CCN000002000000002000FN00000000020220201000002000NNM   20211204100556    1W    00000200000000515000000000032D9    UEHESTO 000000000000HT31C054
BI00B32D9    C20902         20220127180D0203780              AVSSH 0.3F BR            CCN000002000000002000FN00000000020220201000002000NNM   20211204100556    1W    00000200000000515000000000032D9    UEHESTO 000000000000HT221022
BI00B32D9    C20802         20220120180D0203790              AVSSH 0.3F L             CCN000002000000002000FN00000000020220201000002000NNM   20211204100556    1W    00000200000000515000000000032D9    UEHESTO 000000000000HT121013
BI00A32H2    @TAW1104       20211027181E48018ZZ              CAVSAS-S 0.5X2 GY/SB     PCN000000300000000300FY00000030020211001000000000NNM20 20211204102637    1W    00000030000002493000000000032H2    HVYHV   000000000000UH41A037
BI00B32H2    @TAW1103       20211008181AD2004ZZ              CIVUSAS-S 0.35X4 B       CCN000081000000040500FN00000000020211001000040500NNM20 20211204105200    1W    00000030000002784000000000032H2    HVYHV   000000000000UH31A032
BI00B32H2    @TAW1104       20211015181AD2004ZZ              CIVUSAS-S 0.35X4 B       CCN000075600000069900FY00006990020211001000000000NNM20 20211204102632    1W    00000030000002784000000000032H2    HVYHV   000000000000UH41A032
BI00B32H2    @TAW1111       20211217181F21002ZZ              AVSSHCS-S 0.5FX1 B       CCN000005200000005200FN00000000020211101000005200NNM22 20211204094224    1W    00000040000001847000000000032H2    HVYHV   000000000000UJ519014
BI00B32H2    @TAW1111       20211217181AD2003ZZ              CIVUSAS-S 0.35X3 B       CCN000018550000018550FN00000000020211101000018550NNM22 20211204094224    1W    00000035000002209700000000032H2    HVYHV   000000000000UJ519005
BI00B32H2    TAW1123        20211217180D0203930              AVSSH 0.5F B             CCN000004500000004500FN00000000020211201000004500NNM22 20211204102946    1W    00000150000000689000000000032H2    HVYHV   000000000000UJ21B041
BI00B32H2    TAW1123        20220128180D0203943              AVSSH 0.5F W/B           CCN000001500000001500FN00000000020211201000001500NNM22 20211204102946    1W    00000150000000689000000000032H2    HVYHV   000000000000UJ21B043
BI00A32H2    @TAW1104       20211208181AD2004ZZ              CIVUSAS-S 0.35X4 B       PCN000005700000005700FN00000000020211001000005700NNM21 20211204102632    1W    00000030000002784000000000032H2    HVYHV   000000000000UH41A032
BI00A32H2    @TAW1103       20211210181AD2004ZZ              CIVUSAS-S 0.35X4 B       PCN000040500000040500FN00000000020211001000040500NNM22 20211204105200    1W    00000030000002784000000000032H2    HVYHV   000000000000UH31A032
BI00B32M8    @PM21104 MW    20211222181B32037Z5              AVSSCS 0.3FX1 DGY/L      CCN000003500000003500FN00000000020211001000003500NNM24 20211204095738    1W    00000050000001780000000000032M8    PMPEMI  000000000000IM41A005
BI00B32M8    @PM21104 MW    20211222181B32102G0              AVSSCS 0.5FX2 DGY/BR     CCN000000600000000600FN00000000020211001000000600NNM24 20211204095738    1W    00000030000002779000000000032M8    PMPEMI  000000000000IM41A007
BI00B32M8    @PM21104 MW    20211222181B32102S1              AVSSCS 0.5FX2 DGY        CCN000003900000003900FN00000000020211001000003900NNM24 20211204095738    1W    00000030000002779000000000032M8    PMPEMI  000000000000IM41A006
BI00B32M8    @PM21104 MW    20211222181D6910235              AVSSHCS 0.5FX2 B/R       CCN000000900000000900FN00000000020211001000000900NNM24 20211204095738    1W    00000030000002792600000000032M8    PMPEMI  000000000000IM41A011
BI00B32M8    @PM21104 MW    20211222181F21008ZZ              AVSSHCS-S 0.5FX1 B/V     CCN000004000000004000FN00000000020211001000004000NNM24 20211204095738    1W    00000040000001847000000000032M8    PMPEMI  000000000000IM41A012
BI00B32M8    @PM21104 MW    20211222181F21011ZZ              AVSSHCS-S 0.5FX2 B/R     CCN000001200000001200FN00000000020211001000001200NNM24 20211204095738    1W    00000030000002505800000000032M8    PMPEMI  000000000000IM41A014
BI00B32Q8    @EW21121 MW    20211020181D6910230              AVSSHCS 0.5FX2 B         CCN000006300000005100FY00000510020211201000000000NNM00 20211204080914    1W    00000030000002792600000000032Q8    EMEMI   000000000000MV11A001
BI00B32Q8    @EW21121 MW    20211222181D6910237              AVSSHCS 0.5FX2 B/Y       CCN000001500000001500FN00000000020211201000001500NNM20 20211204080815    1W    00000030000002792600000000032Q8    EMEMI   000000000000MV11A002
BI00B32Q8    @EW21121 MW    20211222181E48013ZZ              CAVSAS-S 0.3X3 GY        CCN000003250000003250FN00000000020211201000003250NNM20 20211204080815    1W    00000025000002685000000000032Q8    EMEMI   000000000000MV11A005
BI00B32Q8    @EW21121 MW    20211222181E48022ZZ              CAVSAS-S 0.5X2 GY        CCN000002400000002400FN00000000020211201000002400NNM20 20211204080815    1W    00000030000002493000000000032Q8    EMEMI   000000000000MV11A003
BI00B32Q8    @EW21121 MW    20211222181E48041ZZ              CAVSAS-S 0.3X2 GY/R      CCN000004900000004900FN00000000020211201000004900NNM20 20211204080815    1W    00000035000001998600000000032Q8    EMEMI   000000000000MV11A004
BI00B32Q8    EW2201B MW     202112221801R704141              CIVUS 1.25 GY            CCN000001000000001000FN00000000020220101000001000NNE   20211204160533    1W    00000100000001228000000000032Q8    EMEMI   000000000000MA11C001
BI00B32Q8    @EW21121 MW    20211222181D6910230              AVSSHCS 0.5FX2 B         CCN000001200000001200FN00000000020211201000001200NNM20 20211204080858    1W    00000030000002792600000000032Q8    EMEMI   000000000000MV11A001
BI00B32W4    @4500181432    20211221181B32116S1              AVSSCS 0.3FX2 DGY        CCN000000700000000700FN00000000020211101000000700NNE20 20211204110400W4K81W    00000035000002241000000000032W4K8  HJYHK-J 000000000000OG21B001
BI00B32W4    @4500181432    20211221181B32116Z6              AVSSCS 0.3FX2 DGY/V      CCN000008400000008400FN00000000020211101000008400NNE20 20211204110400W4K81W    00000035000002241000000000032W4K8  HJYHK-J 000000000000OG21B002
BI00B32W4    4500184903     2021122118009603930              AVS 0.5 B                CCN000002000000002000FN00000000020211201000002000NNE   20211204171520W42 1W    00000100000000850000000000032W42   HJYHK-J 000000000000OV11C004
BI00B32W4    4500184903     2021122118009603940              AVS 0.5 W                CCN000001000000001000FN00000000020211201000001000NNE   20211204171520W42 1W    00000100000000850000000000032W42   HJYHK-J 000000000000OV11C005
BI00B32W4    4500184903     2021122118009604030              AVS 0.85 B               CCN000008000000008000FN00000000020211201000008000NNE   20211204171520W42 1W    00000100000001148000000000032W42   HJYHK-J 000000000000OV11C006
BI00B32W4    4500184903     2021122118009604090              AVS 0.85 L               CCN000002000000002000FN00000000020211201000002000NNE   20211204171520W42 1W    00000100000001148000000000032W42   HJYHK-J 000000000000OV11C007
BI00B32W4    4500184903     2021122118009604052              AVS 0.85 P               CCN000001000000001000FN00000000020211201000001000NNE   20211204171520W42 1W    00000100000001148000000000032W42   HJYHK-J 000000000000OV11C008
BI00B32W4    4500184903     2021122118009604050              AVS 0.85 R               CCN000003000000003000FN00000000020211201000003000NNE   20211204171520W42 1W    00000100000001148000000000032W42   HJYHK-J 000000000000OV11C009
BI00B32W4    4500184903     2021122118009604059              AVS 0.85 R/L             CCN000001000000001000FN00000000020211201000001000NNE   20211204171520W42 1W    00000100000001148000000000032W42   HJYHK-J 000000000000OV11C010
BI00B32W4    4500184903     2021122118009604040              AVS 0.85 W               CCN000001000000001000FN00000000020211201000001000NNE   20211204171520W42 1W    00000100000001148000000000032W42   HJYHK-J 000000000000OV11C011
BI00B32W4    4500184903     2021122118009604070              AVS 0.85 Y               CCN000001000000001000FN00000000020211201000001000NNE   20211204171520W42 1W    00000100000001148000000000032W42   HJYHK-J 000000000000OV11C012
BI00B32W4    4500184903     2021122118009604160              AVS 1.25 G               CCN000000800000000800FN00000000020211201000000800NNE   20211204171520W42 1W    00000080000001620000000000032W42   HJYHK-J 000000000000OV11C013
BI00B32W4    4500184903     2021122118009604330              AVS 3 B                  CCN000001200000001200FN00000000020211201000001200NNE   20211204171520W42 1W    00000040000003777500000000032W42   HJYHK-J 000000000000OV11C014
BI00B32W4    4500184903     2021122118007703950              AVSS 0.5F R              CCN000001500000001500FN00000000020211201000001500NNE   20211204171520W42 1W    00000150000000674000000000032W42   HJYHK-J 000000000000OV11C001
BI00B32W4    4500184903     2021122118007704151              AVSS 1.25F O             CCN000001600000001600FN00000000020211201000001600NNE   20211204171520W42 1W    00000080000001389000000000032W42   HJYHK-J 000000000000OV11C002
BI00B32W4    4500184903     2021122118007704230              AVSS 2F B                CCN000002500000002500FN00000000020211201000002500NNE   20211204171520W42 1W    00000050000002126400000000032W42   HJYHK-J 000000000000OV11C003
BI00B32W4    4500184903     2021122118018403730              CAVS 0.3 B               CCN000004000000004000FN00000000020211201000004000NNE   20211204171520W42 1W    00000200000000471000000000032W42   HJYHK-J 000000000000OV11C015
BI00B32W4    4500184903     2021122118018403930              CAVS 0.5 B               CCN000004500000004500FN00000000020211201000004500NNE   20211204171520W42 1W    00000150000000677000000000032W42   HJYHK-J 000000000000OV11C016
BI00B32W4    4500184903     2021122118018403935              CAVS 0.5 B/R             CCN000001500000001500FN00000000020211201000001500NNE   20211204171520W42 1W    00000150000000677000000000032W42   HJYHK-J 000000000000OV11C017
BI00B32W4    4500184903     2021122118018403934              CAVS 0.5 B/W             CCN000015000000015000FN00000000020211201000015000NNE   20211204171520W42 1W    00000150000000677000000000032W42   HJYHK-J 000000000000OV11C018
BI00B32W4    4500184903     2021122118018403980              CAVS 0.5 BR              CCN000003000000003000FN00000000020211201000003000NNE   20211204171520W42 1W    00000150000000677000000000032W42   HJYHK-J 000000000000OV11C019
BI00B32W4    4500184903     2021122118018403984              CAVS 0.5 BR/W            CCN000004500000004500FN00000000020211201000004500NNE   20211204171520W42 1W    00000150000000677000000000032W42   HJYHK-J 000000000000OV11C020
BI00B32W4    4500184903     2021122118018403960              CAVS 0.5 G               CCN000006000000006000FN00000000020211201000006000NNE   20211204171520W42 1W    00000150000000677000000000032W42   HJYHK-J 000000000000OV11C021
BI00B32W4    4500184903     2021122118018403964              CAVS 0.5 G/W             CCN000001500000001500FN00000000020211201000001500NNE   20211204171520W42 1W    00000150000000677000000000032W42   HJYHK-J 000000000000OV11C022
BI00B32W4    4500184903     2021122118018403990              CAVS 0.5 L               CCN000003000000003000FN00000000020211201000003000NNE   20211204171520W42 1W    00000150000000677000000000032W42   HJYHK-J 000000000000OV11C023
BI00B32W4    4500184903     2021122118018403995              CAVS 0.5 L/R             CCN000001500000001500FN00000000020211201000001500NNE   20211204171520W42 1W    00000150000000677000000000032W42   HJYHK-J 000000000000OV11C024
BI00B32W4    4500184903     2021122118018403994              CAVS 0.5 L/W             CCN000001500000001500FN00000000020211201000001500NNE   20211204171520W42 1W    00000150000000677000000000032W42   HJYHK-J 000000000000OV11C025
BI00B32W4    4500184903     2021122118018403951              CAVS 0.5 O               CCN000001500000001500FN00000000020211201000001500NNE   20211204171520W42 1W    00000150000000677000000000032W42   HJYHK-J 000000000000OV11C026
BI00B32W4    4500184903     2021122118018403950              CAVS 0.5 R               CCN000003000000003000FN00000000020211201000003000NNE   20211204171520W42 1W    00000150000000677000000000032W42   HJYHK-J 000000000000OV11C027
BI00B32W4    4500184903     2021122118018403956              CAVS 0.5 R/G             CCN000003000000003000FN00000000020211201000003000NNE   20211204171520W42 1W    00000150000000677000000000032W42   HJYHK-J 000000000000OV11C028
BI00B32W4    4500184903     2021122118018403954              CAVS 0.5 R/W             CCN000001500000001500FN00000000020211201000001500NNE   20211204171520W42 1W    00000150000000677000000000032W42   HJYHK-J 000000000000OV11C029
BI00B32W4    4500184903     2021122118018403957              CAVS 0.5 R/Y             CCN000003000000003000FN00000000020211201000003000NNE   20211204171520W42 1W    00000150000000677000000000032W42   HJYHK-J 000000000000OV11C030
BI00B32W4    4500184903     2021122118018403940              CAVS 0.5 W               CCN000001500000001500FN00000000020211201000001500NNE   20211204171520W42 1W    00000150000000677000000000032W42   HJYHK-J 000000000000OV11C031
BI00B32W4    4500184903     2021122118018403943              CAVS 0.5 W/B             CCN000001500000001500FN00000000020211201000001500NNE   20211204171520W42 1W    00000150000000677000000000032W42   HJYHK-J 000000000000OV11C032
BI00B32W4    4500184903     2021122118018403970              CAVS 0.5 Y               CCN000003000000003000FN00000000020211201000003000NNE   20211204171520W42 1W    00000150000000677000000000032W42   HJYHK-J 000000000000OV11C033
BI00B32W4    4500184903     2021122118018404030              CAVS 0.85 B              CCN000001000000001000FN00000000020211201000001000NNE   20211204171520W42 1W    00000100000000965000000000032W42   HJYHK-J 000000000000OV11C034
BI00B32W4    4500184903     2021122118018404130              CAVS 1.25 B              CCN000005600000005600FN00000000020211201000005600NNE   20211204171520W42 1W    00000080000001378000000000032W42   HJYHK-J 000000000000OV11C035
BI00B32W4    4500184903     2021122118018404160              CAVS 1.25 G              CCN000000800000000800FN00000000020211201000000800NNE   20211204171520W42 1W    00000080000001378000000000032W42   HJYHK-J 000000000000OV11C036
BI00B32W4    4500184903     2021122118018404190              CAVS 1.25 L              CCN000002400000002400FN00000000020211201000002400NNE   20211204171520W42 1W    00000080000001378000000000032W42   HJYHK-J 000000000000OV11C037
BI00B32W4    4500184903     2021122118018404150              CAVS 1.25 R              CCN000002400000002400FN00000000020211201000002400NNE   20211204171520W42 1W    00000080000001378000000000032W42   HJYHK-J 000000000000OV11C038
BI00B32W4    4500184903     2021122118018404140              CAVS 1.25 W              CCN000000800000000800FN00000000020211201000000800NNE   20211204171520W42 1W    00000080000001378000000000032W42   HJYHK-J 000000000000OV11C039
BI00B32W4    4500185177     202112281801R706961              CIVUS 0.35 LG            CCN000003000000003000FN00000000020211201000003000NNE   20211204171521W41 1W    00000300000000386000000000032W41   HJYHK-J 000000000000OU21C003
BI00B32W4    4500185177     202112281801R706960              CIVUS 0.35 G             CCN000003000000003000FN00000000020211201000003000NNE   20211204171521W41 1W    00000300000000386000000000032W41   HJYHK-J 000000000000OU21C002
BI00B32W4    @4500185177    20211228181AD2002ZZ              CIVUSAS-S 0.35X2 B       CCN000002250000002250FN00000000020211201000002250NNE   20211204171519W41 1W    00000045000001714000000000032W41   HJYHK-J 000000000000OU21C001
BI00B32W4    4500185178     202112281801R706950              CIVUS 0.35 R             CCN000003000000003000FN00000000020211201000003000NNE   20211204171522W41 1W    00000300000000386000000000032W41   HJYHK-J 000000000000OZ21C002
BI00B32W4    4500185178     202112281801R706970              CIVUS 0.35 Y             CCN000003000000003000FN00000000020211201000003000NNE   20211204171522W41 1W    00000300000000386000000000032W41   HJYHK-J 000000000000OZ21C005
BI00B32W4    4500185178     202112281801R706992              CIVUS 0.35 V             CCN000003000000003000FN00000000020211201000003000NNE   20211204171522W41 1W    00000300000000386000000000032W41   HJYHK-J 000000000000OZ21C004
BI00B32W4    4500185178     202112281801R706941              CIVUS 0.35 GY            CCN000003000000003000FN00000000020211201000003000NNE   20211204171522W41 1W    00000300000000386000000000032W41   HJYHK-J 000000000000OZ21C001
BI00B32W4    4500185178     202112281801R706991              CIVUS 0.35 SB            CCN000003000000003000FN00000000020211201000003000NNE   20211204171522W41 1W    00000300000000386000000000032W41   HJYHK-J 000000000000OZ21C003
BI00B32W4    4500185201     2021122118018404041              CAVS 0.85 GY             CCN000002000000002000FN00000000020211201000002000NNE   20211204171522W41 1W    00000100000000965000000000032W41   HJYHK-J 000000000000OB11C002
BI00B32W9    4500185062     2021122818000004543              AV 8 W/B                 CCN000000100000000100FN00000000020211201000000100NNE   20211204171455W93 1W    00000010000009148000000000032W93   HKYHK   000000000000ZD21C008
BI00B32W9    4500185062     2021122818000004545              AV 8 W/R                 CCN000000100000000100FN00000000020211201000000100NNE   20211204171455W93 1W    00000010000009148000000000032W93   HKYHK   000000000000ZD21C009
BI00B32W9    4500185062     20211228180D0203954              AVSSH 0.5F R/W           CCN000001500000001500FN00000000020211201000001500NNE   20211204171455W93 1W    00000150000000689000000000032W93   HKYHK   000000000000ZD21C001
BI00B32W9    4500185062     20211228180D0204130              AVSSH 1.25F B            CCN000000800000000800FN00000000020211201000000800NNE   20211204171455W93 1W    00000080000001458000000000032W93   HKYHK   000000000000ZD21C002
BI00B32W9    4500185062     20211228180D0204150              AVSSH 1.25F R            CCN000000800000000800FN00000000020211201000000800NNE   20211204171455W93 1W    00000080000001458000000000032W93   HKYHK   000000000000ZD21C005
BI00B32W9    4500185062     20211228180D0204151              AVSSH 1.25F O            CCN000001600000001600FN00000000020211201000001600NNE   20211204171455W93 1W    00000080000001458000000000032W93   HKYHK   000000000000ZD21C004
BI00B32W9    4500185062     20211228180D0204180              AVSSH 1.25F BR           CCN000000800000000800FN00000000020211201000000800NNE   20211204171455W93 1W    00000080000001458000000000032W93   HKYHK   000000000000ZD21C003
BI00B32W9    4500185062     2021122818018403796              CAVS 0.3 L/G             CCN000002000000002000FN00000000020211201000002000NNE   20211204171455W93 1W    00000200000000471000000000032W93   HKYHK   000000000000ZD21C051
BI00B32W9    4500185062     2021122818018403989              CAVS 0.5 BR/L            CCN000001500000001500FN00000000020211201000001500NNE   20211204171455W93 1W    00000150000000677000000000032W93   HKYHK   000000000000ZD21C065
BI00B32W9    4500185062     20211228180184039E7              CAVS 0.5 R/GY            CCN000003000000003000FN00000000020211201000003000NNE   20211204171455W93 1W    00000150000000677000000000032W93   HKYHK   000000000000ZD21C086
BI00B32W9    4500185062     2021122818018404110              CAVS 1.25 GY/R           CCN000000800000000800FN00000000020211201000000800NNE   20211204171455W93 1W    00000080000001378000000000032W93   HKYHK   000000000000ZD21C133
BI00B32W9    4500185062     2021122818018404117              CAVS 1.25 LG/B           CCN000000800000000800FN00000000020211201000000800NNE   20211204171455W93 1W    00000080000001378000000000032W93   HKYHK   000000000000ZD21C135
BI00B32W9    4500185062     2021122818018404118              CAVS 1.25 G/O            CCN000001600000001600FN00000000020211201000001600NNE   20211204171455W93 1W    00000080000001378000000000032W93   HKYHK   000000000000ZD21C129
BI00B32W9    4500185062     2021122818009604470              AVS 5 Y                  CCN000000400000000400FN00000000020211201000000400NNE   20211204171455W93 1W    00000020000005941000000000032W93   HKYHK   000000000000ZD21C044
BI00B32W9    4500185062     2021122818000004530              AV 8 B                   CCN000000100000000100FN00000000020211201000000100NNE   20211204171455W93 1W    00000010000009148000000000032W93   HKYHK   000000000000ZD21C006
BI00B32W9    4500185062     2021122818000004540              AV 8 W                   CCN000000100000000100FN00000000020211201000000100NNE   20211204171455W93 1W    00000010000009148000000000032W93   HKYHK   000000000000ZD21C007
BI00B32W9    4500185062     2021122818001403960              AV 0.5F G                CCN000001000000001000FN00000000020211201000001000NNE   20211204171455W93 1W    00000100000000921000000000032W93   HKYHK   000000000000ZD21C010
BI00B32W9    4500185062     2021122818001403964              AV 0.5F G/W              CCN000002000000002000FN00000000020211201000002000NNE   20211204171455W93 1W    00000100000000921000000000032W93   HKYHK   000000000000ZD21C011
BI00B32W9    4500185062     2021122818009603964              AVS 0.5 G/W              CCN000001000000001000FN00000000020211201000001000NNE   20211204171455W93 1W    00000100000000850000000000032W93   HKYHK   000000000000ZD21C021
BI00B32W9    4500185062     2021122818009604330              AVS 3 B                  CCN000001600000001600FN00000000020211201000001600NNE   20211204171455W93 1W    00000040000003777500000000032W93   HKYHK   000000000000ZD21C028
BI00B32W9    4500185062     2021122818009603930              AVS 0.5 B                CCN000001000000001000FN00000000020211201000001000NNE   20211204171455W93 1W    00000100000000850000000000032W93   HKYHK   000000000000ZD21C020
BI00B32W9    4500185062     2021122818009604357              AVS 3 R/Y                CCN000001200000001200FN00000000020211201000001200NNE   20211204171455W93 1W    00000040000003777500000000032W93   HKYHK   000000000000ZD21C034
BI00B32W9    4500185062     2021122818009604430              AVS 5 B                  CCN000001400000001400FN00000000020211201000001400NNE   20211204171455W93 1W    00000020000005941000000000032W93   HKYHK   000000000000ZD21C039
BI00B32W9    4500185062     2021122818009604450              AVS 5 R                  CCN000000600000000600FN00000000020211201000000600NNE   20211204171455W93 1W    00000020000005941000000000032W93   HKYHK   000000000000ZD21C040
BI00B32W9    4500185062     2021122818009604457              AVS 5 R/Y                CCN000000400000000400FN00000000020211201000000400NNE   20211204171455W93 1W    00000020000005941000000000032W93   HKYHK   000000000000ZD21C043
BI00B32W9    4500185062     2021122818009604090              AVS 0.85 L               CCN000001000000001000FN00000000020211201000001000NNE   20211204171455W93 1W    00000100000001148000000000032W93   HKYHK   000000000000ZD21C025
BI00B32W9    4500185062     2021122818009604340              AVS 3 W                  CCN000000400000000400FN00000000020211201000000400NNE   20211204171455W93 1W    00000040000003777500000000032W93   HKYHK   000000000000ZD21C035
BI00B32W9    4500185062     2021122818009604345              AVS 3 W/R                CCN000001200000001200FN00000000020211201000001200NNE   20211204171455W93 1W    00000040000003777500000000032W93   HKYHK   000000000000ZD21C036
BI00B32W9    4500185062     2021122818009604354              AVS 3 R/W                CCN000000400000000400FN00000000020211201000000400NNE   20211204171455W93 1W    00000040000003777500000000032W93   HKYHK   000000000000ZD21C033
BI00B32W9    4500185062     2021122818009604353              AVS 3 R/B                CCN000001200000001200FN00000000020211201000001200NNE   20211204171455W93 1W    00000040000003777500000000032W93   HKYHK   000000000000ZD21C031
BI00B32W9    4500185062     2021122818009603979              AVS 0.5 Y/L              CCN000001000000001000FN00000000020211201000001000NNE   20211204171455W93 1W    00000100000000850000000000032W93   HKYHK   000000000000ZD21C024
BI00B32W9    4500185062     2021122818009603957              AVS 0.5 R/Y              CCN000001000000001000FN00000000020211201000001000NNE   20211204171455W93 1W    00000100000000850000000000032W93   HKYHK   000000000000ZD21C023
BI00B32W9    4500185062     2021122818009604180              AVS 1.25 BR              CCN000000800000000800FN00000000020211201000000800NNE   20211204171455W93 1W    00000080000001620000000000032W93   HKYHK   000000000000ZD21C026
BI00B32W9    4500185062     2021122818009604334              AVS 3 B/W                CCN000001200000001200FN00000000020211201000001200NNE   20211204171455W93 1W    00000040000003777500000000032W93   HKYHK   000000000000ZD21C029
BI00B32W9    4500185062     2021122818009603953              AVS 0.5 R/B              CCN000001000000001000FN00000000020211201000001000NNE   20211204171455W93 1W    00000100000000850000000000032W93   HKYHK   000000000000ZD21C022
BI00B32W9    4500185062     2021122818018403763              CAVS 0.3 G/B             CCN000002000000002000FN00000000020211201000002000NNE   20211204171455W93 1W    00000200000000471000000000032W93   HKYHK   000000000000ZD21C048
BI00B32W9    4500185062     2021122818018403759              CAVS 0.3 R/L             CCN000002000000002000FN00000000020211201000002000NNE   20211204171455W93 1W    00000200000000471000000000032W93   HKYHK   000000000000ZD21C055
BI00B32W9    4500185062     2021122818018103964              AVS 0.5F G/W             CCN000001000000001000FN00000000020211201000001000NNE   20211204171455W93 1W    00000100000000807000000000032W93   HKYHK   000000000000ZD21C045
BI00B32W9    4500185062     20211228180184039H2              CAVS 0.5 P/G             CCN000001500000001500FN00000000020211201000001500NNE   20211204171455W93 1W    00000150000000677000000000032W93   HKYHK   000000000000ZD21C081
BI00B32W9    4500185062     2021122818018403900              CAVS 0.5 P/W             CCN000001500000001500FN00000000020211201000001500NNE   20211204171455W93 1W    00000150000000677000000000032W93   HKYHK   000000000000ZD21C083
BI00B32W9    4500185062     20211228180184039F7              CAVS 0.5 V/Y             CCN000001500000001500FN00000000020211201000001500NNE   20211204171455W93 1W    00000150000000677000000000032W93   HKYHK   000000000000ZD21C091
BI00B32W9    4500185062     2021122818009604249              AVS 2 W/L                CCN000000500000000500FN00000000020211201000000500NNE   20211204171455W93 1W    00000050000002447000000000032W93   HKYHK   000000000000ZD21C027
BI00B32W9    4500185062     2021122818009604393              AVS 3 L/B                CCN000000400000000400FN00000000020211201000000400NNE   20211204171455W93 1W    00000040000003777500000000032W93   HKYHK   000000000000ZD21C030
BI00B32W9    4500185062     2021122818009604359              AVS 3 R/L                CCN000000400000000400FN00000000020211201000000400NNE   20211204171455W93 1W    00000040000003777500000000032W93   HKYHK   000000000000ZD21C032
BI00B32W9    4500185062     2021122818009604373              AVS 3 Y/B                CCN000000800000000800FN00000000020211201000000800NNE   20211204171455W93 1W    00000040000003777500000000032W93   HKYHK   000000000000ZD21C037
BI00B32W9    4500185062     2021122818009604375              AVS 3 Y/R                CCN000000800000000800FN00000000020211201000000800NNE   20211204171455W93 1W    00000040000003777500000000032W93   HKYHK   000000000000ZD21C038
BI00B32W9    4500185062     2021122818009604453              AVS 5 R/B                CCN000000400000000400FN00000000020211201000000400NNE   20211204171455W93 1W    00000020000005941000000000032W93   HKYHK   000000000000ZD21C041
BI00B32W9    4500185062     2021122818009604454              AVS 5 R/W                CCN000000400000000400FN00000000020211201000000400NNE   20211204171455W93 1W    00000020000005941000000000032W93   HKYHK   000000000000ZD21C042
BI00B32W9    4500185062     2021122818007704230              AVSS 2F B                CCN000004500000004500FN00000000020211201000004500NNE   20211204171455W93 1W    00000050000002126400000000032W93   HKYHK   000000000000ZD21C012
BI00B32W9    4500185062     2021122818007704254              AVSS 2F R/W              CCN000001500000001500FN00000000020211201000001500NNE   20211204171455W93 1W    00000050000002126400000000032W93   HKYHK   000000000000ZD21C017
BI00B32W9    4500185062     2021122818007704270              AVSS 2F Y                CCN000000500000000500FN00000000020211201000000500NNE   20211204171455W93 1W    00000050000002126400000000032W93   HKYHK   000000000000ZD21C018
BI00B32W9    4500185062     2021122818007704290              AVSS 2F L                CCN000000500000000500FN00000000020211201000000500NNE   20211204171455W93 1W    00000050000002126400000000032W93   HKYHK   000000000000ZD21C014
BI00B32W9    4500185062     2021122818007704263              AVSS 2F G/B              CCN000000500000000500FN00000000020211201000000500NNE   20211204171455W93 1W    00000050000002126400000000032W93   HKYHK   000000000000ZD21C013
BI00B32W9    4500185062     2021122818007704259              AVSS 2F R/L              CCN000001000000001000FN00000000020211201000001000NNE   20211204171455W93 1W    00000050000002126400000000032W93   HKYHK   000000000000ZD21C016
BI00B32W9    4500185062     2021122818007704256              AVSS 2F R/G              CCN000000500000000500FN00000000020211201000000500NNE   20211204171455W93 1W    00000050000002126400000000032W93   HKYHK   000000000000ZD21C015
BI00B32W9    4500185062     2021122818007704276              AVSS 2F Y/G              CCN000000500000000500FN00000000020211201000000500NNE   20211204171455W93 1W    00000050000002126400000000032W93   HKYHK   000000000000ZD21C019
BI00B32W9    4500185062     2021122818018403943              CAVS 0.5 W/B             CCN000003000000003000FN00000000020211201000003000NNE   20211204171455W93 1W    00000150000000677000000000032W93   HKYHK   000000000000ZD21C093
BI00B32W9    4500185062     2021122818018403980              CAVS 0.5 BR              CCN000004500000004500FN00000000020211201000004500NNE   20211204171455W93 1W    00000150000000677000000000032W93   HKYHK   000000000000ZD21C063
BI00B32W9    4500185062     2021122818018403995              CAVS 0.5 L/R             CCN000001500000001500FN00000000020211201000001500NNE   20211204171455W93 1W    00000150000000677000000000032W93   HKYHK   000000000000ZD21C075
BI00B32W9    4500185062     2021122818018403940              CAVS 0.5 W               CCN000003000000003000FN00000000020211201000003000NNE   20211204171455W93 1W    00000150000000677000000000032W93   HKYHK   000000000000ZD21C092
BI00B32W9    4500185062     2021122818018403910              CAVS 0.5 GY/R            CCN000001500000001500FN00000000020211201000001500NNE   20211204171455W93 1W    00000150000000677000000000032W93   HKYHK   000000000000ZD21C072
BI00B32W9    4500185062     2021122818018403952              CAVS 0.5 P               CCN000001500000001500FN00000000020211201000001500NNE   20211204171455W93 1W    00000150000000677000000000032W93   HKYHK   000000000000ZD21C080
BI00B32W9    4500185062     2021122818018403937              CAVS 0.5 B/Y             CCN000001500000001500FN00000000020211201000001500NNE   20211204171455W93 1W    00000150000000677000000000032W93   HKYHK   000000000000ZD21C062
BI00B32W9    4500185062     2021122818018403991              CAVS 0.5 SB              CCN000001500000001500FN00000000020211201000001500NNE   20211204171455W93 1W    00000150000000677000000000032W93   HKYHK   000000000000ZD21C089
BI00B32W9    4500185062     2021122818018403951              CAVS 0.5 O               CCN000003000000003000FN00000000020211201000003000NNE   20211204171455W93 1W    00000150000000677000000000032W93   HKYHK   000000000000ZD21C078
BI00B32W9    4500185062     2021122818018403941              CAVS 0.5 GY              CCN000001500000001500FN00000000020211201000001500NNE   20211204171455W93 1W    00000150000000677000000000032W93   HKYHK   000000000000ZD21C071
BI00B32W9    4500185062     2021122818018403964              CAVS 0.5 G/W             CCN000003000000003000FN00000000020211201000003000NNE   20211204171455W93 1W    00000150000000677000000000032W93   HKYHK   000000000000ZD21C069
BI00B32W9    4500185062     2021122818018403997              CAVS 0.5 L/Y             CCN000003000000003000FN00000000020211201000003000NNE   20211204171455W93 1W    00000150000000677000000000032W93   HKYHK   000000000000ZD21C076
BI00B32W9    4500185062     2021122818018403960              CAVS 0.5 G               CCN000007500000007500FN00000000020211201000007500NNE   20211204171455W93 1W    00000150000000677000000000032W93   HKYHK   000000000000ZD21C067
BI00B32W9    4500185062     2021122818018403953              CAVS 0.5 R/B             CCN000006000000006000FN00000000020211201000006000NNE   20211204171455W93 1W    00000150000000677000000000032W93   HKYHK   000000000000ZD21C084
BI00B32W9    4500185062     2021122818018403956              CAVS 0.5 R/G             CCN000009000000009000FN00000000020211201000009000NNE   20211204171455W93 1W    00000150000000677000000000032W93   HKYHK   000000000000ZD21C085
BI00B32W9    4500185062     2021122818018403959              CAVS 0.5 R/L             CCN000004500000004500FN00000000020211201000004500NNE   20211204171455W93 1W    00000150000000677000000000032W93   HKYHK   000000000000ZD21C087
BI00B32W9    4500185062     2021122818018404170              CAVS 1.25 Y              CCN000001600000001600FN00000000020211201000001600NNE   20211204171455W93 1W    00000080000001378000000000032W93   HKYHK   000000000000ZD21C142
BI00B32W9    4500185062     2021122818018404150              CAVS 1.25 R              CCN000002400000002400FN00000000020211201000002400NNE   20211204171455W93 1W    00000080000001378000000000032W93   HKYHK   000000000000ZD21C137
BI00B32W9    4500185062     2021122818018404030              CAVS 0.85 B              CCN000006000000006000FN00000000020211201000006000NNE   20211204171455W93 1W    00000100000000965000000000032W93   HKYHK   000000000000ZD21C099
BI00B32W9    4500185062     2021122818018404141              CAVS 1.25 GY             CCN000000800000000800FN00000000020211201000000800NNE   20211204171455W93 1W    00000080000001378000000000032W93   HKYHK   000000000000ZD21C132
BI00B32W9    4500185062     2021122818018403990              CAVS 0.5 L               CCN000007500000007500FN00000000020211201000007500NNE   20211204171455W93 1W    00000150000000677000000000032W93   HKYHK   000000000000ZD21C073
BI00B32W9    4500185062     2021122818018403730              CAVS 0.3 B               CCN000006000000006000FN00000000020211201000006000NNE   20211204171455W93 1W    00000200000000471000000000032W93   HKYHK   000000000000ZD21C046
BI00B32W9    4500185062     2021122818018403737              CAVS 0.3 B/Y             CCN000002000000002000FN00000000020211201000002000NNE   20211204171455W93 1W    00000200000000471000000000032W93   HKYHK   000000000000ZD21C047
BI00B32W9    4500185062     2021122818018403764              CAVS 0.3 G/W             CCN000002000000002000FN00000000020211201000002000NNE   20211204171455W93 1W    00000200000000471000000000032W93   HKYHK   000000000000ZD21C049
BI00B32W9    4500185062     2021122818018403767              CAVS 0.3 G/Y             CCN000002000000002000FN00000000020211201000002000NNE   20211204171455W93 1W    00000200000000471000000000032W93   HKYHK   000000000000ZD21C050
BI00B32W9    4500185062     2021122818018403753              CAVS 0.3 R/B             CCN000002000000002000FN00000000020211201000002000NNE   20211204171455W93 1W    00000200000000471000000000032W93   HKYHK   000000000000ZD21C053
BI00B32W9    4500185062     2021122818018403756              CAVS 0.3 R/G             CCN000002000000002000FN00000000020211201000002000NNE   20211204171455W93 1W    00000200000000471000000000032W93   HKYHK   000000000000ZD21C054
BI00B32W9    4500185062     2021122818018403757              CAVS 0.3 R/Y             CCN000002000000002000FN00000000020211201000002000NNE   20211204171455W93 1W    00000200000000471000000000032W93   HKYHK   000000000000ZD21C057
BI00B32W9    4500185062     2021122818018403740              CAVS 0.3 W               CCN000006000000006000FN00000000020211201000006000NNE   20211204171455W93 1W    00000200000000471000000000032W93   HKYHK   000000000000ZD21C058
BI00B32W9    4500185062     2021122818018403770              CAVS 0.3 Y               CCN000002000000002000FN00000000020211201000002000NNE   20211204171455W93 1W    00000200000000471000000000032W93   HKYHK   000000000000ZD21C059
BI00B32W9    4500185062     2021122818018403939              CAVS 0.5 B/L             CCN000001500000001500FN00000000020211201000001500NNE   20211204171455W93 1W    00000150000000677000000000032W93   HKYHK   000000000000ZD21C060
BI00B32W9    4500185062     2021122818018403935              CAVS 0.5 B/R             CCN000001500000001500FN00000000020211201000001500NNE   20211204171455W93 1W    00000150000000677000000000032W93   HKYHK   000000000000ZD21C061
BI00B32W9    4500185062     2021122818018403983              CAVS 0.5 BR/B            CCN000001500000001500FN00000000020211201000001500NNE   20211204171455W93 1W    00000150000000677000000000032W93   HKYHK   000000000000ZD21C064
BI00B32W9    4500185062     2021122818018403984              CAVS 0.5 BR/W            CCN000001500000001500FN00000000020211201000001500NNE   20211204171455W93 1W    00000150000000677000000000032W93   HKYHK   000000000000ZD21C066
BI00B32W9    4500185062     2021122818018403963              CAVS 0.5 G/B             CCN000001500000001500FN00000000020211201000001500NNE   20211204171455W93 1W    00000150000000677000000000032W93   HKYHK   000000000000ZD21C068
BI00B32W9    4500185062     2021122818018403967              CAVS 0.5 G/Y             CCN000001500000001500FN00000000020211201000001500NNE   20211204171455W93 1W    00000150000000677000000000032W93   HKYHK   000000000000ZD21C070
BI00B32W9    4500185062     2021122818018403993              CAVS 0.5 L/B             CCN000003000000003000FN00000000020211201000003000NNE   20211204171455W93 1W    00000150000000677000000000032W93   HKYHK   000000000000ZD21C074
BI00B32W9    4500185062     2021122818018403929              CAVS 0.5 LG/W            CCN000001500000001500FN00000000020211201000001500NNE   20211204171455W93 1W    00000150000000677000000000032W93   HKYHK   000000000000ZD21C077
BI00B32W9    4500185062     20211228180184039M3              CAVS 0.5 O/B             CCN000001500000001500FN00000000020211201000001500NNE   20211204171455W93 1W    00000150000000677000000000032W93   HKYHK   000000000000ZD21C079
BI00B32W9    4500185062     2021122818018403954              CAVS 0.5 R/W             CCN000007500000007500FN00000000020211201000007500NNE   20211204171455W93 1W    00000150000000677000000000032W93   HKYHK   000000000000ZD21C088
BI00B32W9    4500185062     2021122818018403992              CAVS 0.5 V               CCN000004500000004500FN00000000020211201000004500NNE   20211204171455W93 1W    00000150000000677000000000032W93   HKYHK   000000000000ZD21C090
BI00B32W9    4500185062     2021122818018403946              CAVS 0.5 W/G             CCN000003000000003000FN00000000020211201000003000NNE   20211204171455W93 1W    00000150000000677000000000032W93   HKYHK   000000000000ZD21C094
BI00B32W9    4500185062     2021122818018403970              CAVS 0.5 Y               CCN000004500000004500FN00000000020211201000004500NNE   20211204171455W93 1W    00000150000000677000000000032W93   HKYHK   000000000000ZD21C095
BI00B32W9    4500185062     2021122818018403973              CAVS 0.5 Y/B             CCN000003000000003000FN00000000020211201000003000NNE   20211204171455W93 1W    00000150000000677000000000032W93   HKYHK   000000000000ZD21C096
BI00B32W9    4500185062     2021122818018404050              CAVS 0.85 R              CCN000003000000003000FN00000000020211201000003000NNE   20211204171455W93 1W    00000100000000965000000000032W93   HKYHK   000000000000ZD21C117
BI00B32W9    4500185062     2021122818018404057              CAVS 0.85 R/Y            CCN000003000000003000FN00000000020211201000003000NNE   20211204171455W93 1W    00000100000000965000000000032W93   HKYHK   000000000000ZD21C120
BI00B32W9    4500185062     2021122818018404040              CAVS 0.85 W              CCN000001000000001000FN00000000020211201000001000NNE   20211204171455W93 1W    00000100000000965000000000032W93   HKYHK   000000000000ZD21C121
BI00B32W9    4500185062     2021122818018404130              CAVS 1.25 B              CCN000006400000006400FN00000000020211201000006400NNE   20211204171455W93 1W    00000080000001378000000000032W93   HKYHK   000000000000ZD21C127
BI00B32W9    4500185062     2021122818018404156              CAVS 1.25 R/G            CCN000002400000002400FN00000000020211201000002400NNE   20211204171455W93 1W    00000080000001378000000000032W93   HKYHK   000000000000ZD21C138
BI00B32W9    4500185062     2021122818018404145              CAVS 1.25 W/R            CCN000000800000000800FN00000000020211201000000800NNE   20211204171455W93 1W    00000080000001378000000000032W93   HKYHK   000000000000ZD21C141
BI00B32W9    4500185062     20211228180184039G6              CAVS 0.5 P/L             CCN000001500000001500FN00000000020211201000001500NNE   20211204171455W93 1W    00000150000000677000000000032W93   HKYHK   000000000000ZD21C082
BI00B32W9    4500185062     2021122818018403975              CAVS 0.5 Y/R             CCN000001500000001500FN00000000020211201000001500NNE   20211204171455W93 1W    00000150000000677000000000032W93   HKYHK   000000000000ZD21C098
BI00B32W9    4500185062     2021122818018403754              CAVS 0.3 R/W             CCN000002000000002000FN00000000020211201000002000NNE   20211204171455W93 1W    00000200000000471000000000032W93   HKYHK   000000000000ZD21C056
BI00B32W9    4500185062     2021122818018404070              CAVS 0.85 Y              CCN000003000000003000FN00000000020211201000003000NNE   20211204171455W93 1W    00000100000000965000000000032W93   HKYHK   000000000000ZD21C125
BI00B32W9    4500185062     2021122818018403752              CAVS 0.3 P               CCN000002000000002000FN00000000020211201000002000NNE   20211204171455W93 1W    00000200000000471000000000032W93   HKYHK   000000000000ZD21C052
BI00B32W9    4500185062     2021122818018404080              CAVS 0.85 BR             CCN000001000000001000FN00000000020211201000001000NNE   20211204171455W93 1W    00000100000000965000000000032W93   HKYHK   000000000000ZD21C101
BI00B32W9    4500185062     2021122818018404190              CAVS 1.25 L              CCN000002400000002400FN00000000020211201000002400NNE   20211204171455W93 1W    00000080000001378000000000032W93   HKYHK   000000000000ZD21C134
BI00B32W9    4500185062     2021122818018404159              CAVS 1.25 R/L            CCN000000800000000800FN00000000020211201000000800NNE   20211204171455W93 1W    00000080000001378000000000032W93   HKYHK   000000000000ZD21C139
BI00B32W9    4500185062     2021122818018404075              CAVS 0.85 Y/R            CCN000002000000002000FN00000000020211201000002000NNE   20211204171455W93 1W    00000100000000965000000000032W93   HKYHK   000000000000ZD21C126
BI00B32W9    4500185062     2021122818018404192              CAVS 1.25 V              CCN000001600000001600FN00000000020211201000001600NNE   20211204171455W93 1W    00000080000001378000000000032W93   HKYHK   000000000000ZD21C140
BI00B32W9    4500185062     2021122818018404061              CAVS 0.85 LG             CCN000001000000001000FN00000000020211201000001000NNE   20211204171455W93 1W    00000100000000965000000000032W93   HKYHK   000000000000ZD21C111
BI00B32W9    4500185062     2021122818018404043              CAVS 0.85 W/B            CCN000001000000001000FN00000000020211201000001000NNE   20211204171455W93 1W    00000100000000965000000000032W93   HKYHK   000000000000ZD21C122
BI00B32W9    4500185062     2021122818018404090              CAVS 0.85 L              CCN000004000000004000FN00000000020211201000004000NNE   20211204171455W93 1W    00000100000000965000000000032W93   HKYHK   000000000000ZD21C107
BI00B32W9    4500185062     2021122818018404053              CAVS 0.85 R/B            CCN000002000000002000FN00000000020211201000002000NNE   20211204171455W93 1W    00000100000000965000000000032W93   HKYHK   000000000000ZD21C118
BI00B32W9    4500185062     2021122818018403979              CAVS 0.5 Y/L             CCN000003000000003000FN00000000020211201000003000NNE   20211204171455W93 1W    00000150000000677000000000032W93   HKYHK   000000000000ZD21C097
BI00B32W9    4500185062     2021122818018404060              CAVS 0.85 G              CCN000001000000001000FN00000000020211201000001000NNE   20211204171455W93 1W    00000100000000965000000000032W93   HKYHK   000000000000ZD21C102
BI00B32W9    4500185062     2021122818018404049              CAVS 0.85 W/L            CCN000001000000001000FN00000000020211201000001000NNE   20211204171455W93 1W    00000100000000965000000000032W93   HKYHK   000000000000ZD21C124
BI00B32W9    4500185062     2021122818018404034              CAVS 0.85 B/W            CCN000001000000001000FN00000000020211201000001000NNE   20211204171455W93 1W    00000100000000965000000000032W93   HKYHK   000000000000ZD21C100
BI00B32W9    4500185062     2021122818018404065              CAVS 0.85 G/R            CCN000003000000003000FN00000000020211201000003000NNE   20211204171455W93 1W    00000100000000965000000000032W93   HKYHK   000000000000ZD21C104
BI00B32W9    4500185062     2021122818018404064              CAVS 0.85 G/W            CCN000003000000003000FN00000000020211201000003000NNE   20211204171455W93 1W    00000100000000965000000000032W93   HKYHK   000000000000ZD21C105
BI00B32W9    4500185062     2021122818018404094              CAVS 0.85 L/W            CCN000001000000001000FN00000000020211201000001000NNE   20211204171455W93 1W    00000100000000965000000000032W93   HKYHK   000000000000ZD21C109
BI00B32W9    4500185062     2021122818018404017              CAVS 0.85 LG/B           CCN000001000000001000FN00000000020211201000001000NNE   20211204171455W93 1W    00000100000000965000000000032W93   HKYHK   000000000000ZD21C112
BI00B32W9    4500185062     2021122818018404009              CAVS 0.85 LG/R           CCN000001000000001000FN00000000020211201000001000NNE   20211204171455W93 1W    00000100000000965000000000032W93   HKYHK   000000000000ZD21C113
BI00B32W9    4500185062     2021122818018404029              CAVS 0.85 LG/W           CCN000001000000001000FN00000000020211201000001000NNE   20211204171455W93 1W    00000100000000965000000000032W93   HKYHK   000000000000ZD21C114
BI00B32W9    4500185062     2021122818018404059              CAVS 0.85 R/L            CCN000001000000001000FN00000000020211201000001000NNE   20211204171455W93 1W    00000100000000965000000000032W93   HKYHK   000000000000ZD21C119
BI00B32W9    4500185062     2021122818018404164              CAVS 1.25 G/W            CCN000000800000000800FN00000000020211201000000800NNE   20211204171455W93 1W    00000080000001378000000000032W93   HKYHK   000000000000ZD21C131
BI00B32W9    4500185062     2021122818018404041              CAVS 0.85 GY             CCN000001000000001000FN00000000020211201000001000NNE   20211204171455W93 1W    00000100000000965000000000032W93   HKYHK   000000000000ZD21C106
BI00B32W9    4500185062     2021122818018404151              CAVS 1.25 O              CCN000000800000000800FN00000000020211201000000800NNE   20211204171455W93 1W    00000080000001378000000000032W93   HKYHK   000000000000ZD21C136
BI00B32W9    4500185062     2021122818018404051              CAVS 0.85 O              CCN000001000000001000FN00000000020211201000001000NNE   20211204171455W93 1W    00000100000000965000000000032W93   HKYHK   000000000000ZD21C115
BI00B32W9    4500185062     2021122818018404093              CAVS 0.85 L/B            CCN000001000000001000FN00000000020211201000001000NNE   20211204171455W93 1W    00000100000000965000000000032W93   HKYHK   000000000000ZD21C108
BI00B32W9    4500185062     2021122818018404097              CAVS 0.85 L/Y            CCN000001000000001000FN00000000020211201000001000NNE   20211204171455W93 1W    00000100000000965000000000032W93   HKYHK   000000000000ZD21C110
BI00B32W9    4500185062     2021122818018404046              CAVS 0.85 W/G            CCN000001000000001000FN00000000020211201000001000NNE   20211204171455W93 1W    00000100000000965000000000032W93   HKYHK   000000000000ZD21C123
BI00B32W9    4500185062     2021122818018404063              CAVS 0.85 G/B            CCN000002000000002000FN00000000020211201000002000NNE   20211204171455W93 1W    00000100000000965000000000032W93   HKYHK   000000000000ZD21C103
BI00B32W9    4500185062     2021122818018404007              CAVS 0.85 P/B            CCN000001000000001000FN00000000020211201000001000NNE   20211204171455W93 1W    00000100000000965000000000032W93   HKYHK   000000000000ZD21C116
BI00B32W9    4500185062     2021122818018404165              CAVS 1.25 G/R            CCN000000800000000800FN00000000020211201000000800NNE   20211204171455W93 1W    00000080000001378000000000032W93   HKYHK   000000000000ZD21C130
BI00B32W9    4500185062     2021122818018404169              CAVS 1.25 G/L            CCN000000800000000800FN00000000020211201000000800NNE   20211204171455W93 1W    00000080000001378000000000032W93   HKYHK   000000000000ZD21C128
