BI00A1200    7360T51815     202112077288-3329-30             HOUSING MALE             CCN000004500000001500FY00000150020210901000000000NNED0420211204173608    4N0N  0000015000000086610000101111200    YCYC    005400370024
BI00A1200    7360T51815     202112097288-3329-30             HOUSING MALE             CCN000004500000010500FN00000000020210901000010500NNED0420211204173608    4N0N  0000015000000086610000101111200    YCYC    005400370024
BI00B1200    8640T51B03     202201207288-3329-30             HOUSING MALE             CCN000001500000001500FN00000000020220201000001500NNED0420211204172859    4N0N  0000015000000086610000101111200    YCYC    005400370024
BI00B1200    8640T51B03     202201207289-3342-30             HOUSING FEMALE ASS'Y     CCN000002400000002400FN00000000020220201000002400NNED0420211204172859    1N0N  0000024000000068640000090141200    YCYC    005500360039
BI00A1200    7360T51C01     202201147288-3331-30             HOUSING MALE             CCN000010500000010500FN00000000020220101000010500NNMM0020211204085333    4N0N  0000015000000086600000101091200    YCYC    005400370024
BI00A32A7    ZZ21123BMW     202112177172-5403-30             SEALED PACKING           PCN000048000000048000FN00000000020211201000048000NNM00020211204121257    1C0C  00000400000000653600000701732A7    ZZZZY   004300270014
BI00A32DG    RP1123         202112217289-3342-30             HOUSING FEMALE ASS'Y     PCN000007200000007200FN00000000020211201000007200NNM00020211204093739    1N0N  00000240000000686400000901432DG    BFSAIBF 005500360039
BI00A32D2    DGTC2151       202112087288-6547                CONNECTOR MALE ASS'Y     PCN000006000000006000FN00000000020211201000006000NNM00020211204120805    4N0N  00000075000001205300001340332D2    TGYOT-G 005400370024
BI00A32D2    DGTC2152       202112137288-6547                CONNECTOR MALE ASS'Y     PCN000004500000004500FN00000000020211201000004500NNM00020211204120908    4N0N  00000075000001205300001340332D2    TGYOT-G 005400370024
BI00A32D2    DGTC2202       202112177288-6547                CONNECTOR MALE ASS'Y     PCN000016500000016500FN00000000020220101000016500NNM00020211204121014    4N0N  00000075000001205300001340332D2    TGYOT-G 005400370024
BI00A32D2    DGTC2202       202201057289-3342-30             HOUSING FEMALE ASS'Y     PCN000026400000026400FN00000000020220101000026400NNM00020211204121108    1N0N  00000240000000686400000901432D2    TGYOT-G 005500360039
BI00A32D2    #DGTC2202      202112137172-5629-80             RUBBER STOPPER           PCN000300000000300000FN00000000020220101000300000NNM00020211204120707    2H0H  00002000000000060000000111132D2    TGYOT-G 004300270014
BI00A32D2    #DGTC2202      202112137172-5630-40             RUBBER STOPPER           PCN000260000000260000FN00000000020220101000260000NNM00020211204120707    2H0H  00002000000000044000000095132D2    TGYOT-G 004300270014
BI00A32D2    #DGTC2202      202112087172-5631-60             RUBBER STOPPER           PCN000280000000280000FN00000000020220101000280000NNM00020211204120707    2H0H  00002000000000042000000093132D2    TGYOT-G 004300270014
BI00A32D2    #DGTC2202      202112137289-3622-30             HOUSING FEMALE ASS'Y     PCN000003024000003024FN00000000020220101000003024NNM00020211204120707    2N0N  00000043200000839400001038432D2    TGYOT-G 005400370024
BI00A32D9    I10349         202112087289-3342-30             HOUSING FEMALE ASS'Y     PCN000028800000028800FN00000000020211101000028800NNM00020211204105302    1N0N  00000240000000686400000901432D9    UEHESTO 005500360039
BI00A32D9    I10353         202112227289-3342-30             HOUSING FEMALE ASS'Y     PCN000024000000024000FN00000000020220101000024000NNM00020211204105417    1N0N  00000240000000686400000901432D9    UEHESTO 005500360039
BI00A32D9    I10353         202112157289-3342-30             HOUSING FEMALE ASS'Y     PCN000021600000021600FN00000000020220101000021600NNMD0420211204105355    1N0N  00000240000000686400000901432D9    UEHESTO 005500360039
BI00A32G2    SA21123 MW     202112207289-3342-30             HOUSING FEMALE ASS'Y     PCN000026400000026400FN00000000020211201000026400NNM00020211204105640    1N0N  00000240000000686400000901432G2    AISUAI  005500360039
BI00B32G7    JJ2109DMMW     202110237327-6731-3W             BATTERY FUSE             CCN000019840000014848FY00001484820210901000000000NNE00020211204094213    4N0N  00000006400000697600000843032G7    JIJAI   005400370024
BI00B32G7    JJ21114MMW     202111207327-6731-3W             BATTERY FUSE             CCN000004992000001792FY00000179220211101000000000NNM00020211204094357    4N0N  00000006400000697600000843032G7    JIJAI   005400370024
BI00B32G7    JJ21122MMW     202111277327-6731-3W             BATTERY FUSE             CCN000000384000000384FN00000000020211201000000384NNM00020211204094633    4N0N  00000006400000697600000843032G7    JIJAI   005400370024
BI00A32G7    #JJ21122MMW    202112167172-5629-80             RUBBER STOPPER           PCN000200000000200000FN00000000020211201000200000NNMM0020211204094040    2H0H  00002000000000060000000111132G7    JIJAI   004300270014
BI00B32G7    JJ2109DMMW     202112087327-6731-3W             BATTERY FUSE             CCN000004992000004992FN00000000020210901000004992NNE00020211204094654    4N0N  00000006400000697600000843032G7    JIJAI   005400370024
BI00A32G7    JJ21114MMW     202112087327-6731-3W             BATTERY FUSE             PCN000003200000003200FN00000000020211101000003200NNM00020211204175148    4N0N  00000006400000697600000843032G7    JIJAI   005400370024
BI00A32H0    #TT22011VMW    202112227172-5629-80             RUBBER STOPPER           PCN000200000000200000FN00000000020220101000200000NNM00020211204091434    2H0H  00002000000000060000000111132H0    TTTJY   004300270014
BI00A32H2    TIJ1122        202112207289-3342-30             HOUSING FEMALE ASS'Y     PCN000105600000052800FN00000000020211201000052800NNMM0020211204190140    1N0N  00000240000000686400000901432H2    HVYHV   005500360039
BI00A32H2    TIJ1123        202112227289-3342-30             HOUSING FEMALE ASS'Y     PCN000100800000050400FN00000000020211201000050400NNMM0020211204190615    1N0N  00000240000000686400000901432H2    HVYHV   005500360039
BI00A32H2    TIJ1122        202111107289-3342-30             HOUSING FEMALE ASS'Y     PCN000052800000026400FN00000000020211201000026400NNM00020211204190311    1N0N  00000240000000686400000901432H2    HVYHV   005500360039
BI00A32H2    TIJ1123        202112177289-3342-30             HOUSING FEMALE ASS'Y     PCN000050400000050400FN00000000020211201000050400NNM00020211204190615    1N0N  00000240000000686400000901432H2    HVYHV   005500360039
BI00A32H2    TIJ1122        202112087289-3342-30             HOUSING FEMALE ASS'Y     PCN000052800000026400FN00000000020211201000026400NNMM0020211204190311    1N0N  00000240000000686400000901432H2    HVYHV   005500360039
BI00A32H7    #FS21123DMW    202111097158-3007-10             RUBBER STOPPER           PCN000220000000220000FN00000000020211201000220000NNMM0020211204104445    2H0H  00002000000000308000000362732H7    FYFSY   002700430014
BI00A32H7    #FS21124DMW    202112087158-3007-10             RUBBER STOPPER           PCN000100000000100000FN00000000020211201000100000NNMM0020211204124003    2H0H  00002000000000308000000362732H7    FYFSY   002700430014
BI00A32H7    #FS21123DMW    202112137172-5630-40             RUBBER STOPPER           PCN000440000000440000FN00000000020211201000440000NNMM0020211204104610    2H0H  00002000000000044000000095132H7    FYFSY   004300270014
BI00A32H7    #FS21123DMW    202112137289-4200-30             HOUSING FEMALE ASS'Y     PCN000012000000012000FN00000000020211201000012000NNMM0020211204104610    2N0N  00000200000000926000001021032H7    FYFSY   005400370024
BI00B32M1    #TCVL1102      202201067158-3007-10             RUBBER STOPPER           CCN000600000000600000FN00000000020211001000600000NNM00020211204120521    2H0H  00002000000000308000000362732M1    VNYEV   002700430014
BI00A32M4    #TL1123        202112167172-5629-80             RUBBER STOPPER           PCN000280000000280000FN00000000020211201000280000NNMM0020211204093850    2H0H  00002000000000060000000111132M4    SISAI   004300270014
BI00A32M4    TP1123         202112167289-3342-30             HOUSING FEMALE ASS'Y     PCN000026400000026400FN00000000020211201000026400NNM00020211204093918    1N0N  00000240000000686400000901432M4    SISAI   005500360039
BI00A32M8    #PM21123 MW    202112087158-3007-10             RUBBER STOPPER           PCN000060000000060000FN00000000020211201000060000NNM00020211204093426    2H0H  00002000000000308000000362732M8    PMPEMI  002700430014
BI00A32N3    NBT112 A1      202112157289-3342-30             HOUSING FEMALE ASS'Y     PCN000019200000019200FN00000000020211201000019200NNM00020211204184014    1N0N  00000240000000686400000901432N3    ABYIPL-B005500360039
BI00B32W4    4500184982     202212237116-4231-02             TERMINAL                 CCN000026000000026000FN00000000020220101000026000NNED0720211204090632W4184P0P  00002600000000683800001012532W418  HJYHK   006400630017
BI00A32W6    #SW21124QMW    202112207172-5629-80             RUBBER STOPPER           PCN000200000000200000FN00000000020211201000200000NNMM0020211204105710    2H0H  00002000000000060000000111132W6    SYSYA-WJ004300270014
BI00B32Y2    TAU1143        202112167289-3342-30             HOUSING FEMALE ASS'Y     CCN000004800000004800FN00000000020220101000004800NNED0420211204121222    1N0N  00000240000000686400000901432Y2    YUYUY   005500360039
BI00A32Y6    #STAP32011     202112097172-5630-40             RUBBER STOPPER           PCN001060000001060000FN00000000020211101001060000NNM00020211204195042    2H0H  00002000000000044000000095132Y6    BSYBL-S 004300270014
BI00A32Y6    #STAP32011     202112097289-4200-30             HOUSING FEMALE ASS'Y     PCN000022000000022000FN00000000020211101000022000NNM00020211204195042    2N0N  00000200000000926000001021032Y6    BSYBL-S 005400370024
BI00B32Y6    STAP32031      202112077327-6731-3W             BATTERY FUSE             CCN000008704000003840FN00000000020220301000003840NNM00020211204180938    4N0N  00000006400000697600000843032Y6    BSYBL-S 005400370024
BI00B32Y6    STAP32031      202112077388-2978-30             HOUSING MALE ASS'Y       CCN000024480000010080FN00000000020220301000010080NNM00020211204181007    1N0N  00000048000000742000001122032Y6    BSYBL-S 005500360039
BI00A32Y6    STAP32031      202112077327-6731-3W             BATTERY FUSE             PCN000004864000004864FN00000000020220301000004864NNM00020211204180938    4N0N  00000006400000697600000843032Y6    BSYBL-S 005400370024
BI00A32Y6    STAP32031      202112077388-2978-30             HOUSING MALE ASS'Y       PCN000014400000014400FN00000000020220301000014400NNM00020211204181007    1N0N  00000048000000742000001122032Y6    BSYBL-S 005500360039
