BI00B1200    8750T52501     202206097288-3340-30             HOUSING MALE             CCN000003000000003000FN00000000020220701000003000NNM   20220426121917    4N0N  0000015000000086150000100641200    YCYC    005400370024
BI00B1200    8750T52501     202206097289-3342                HOUSING FEMALE ASS'Y     CCN000004800000004800FN00000000020220701000004800NNM   20220426121917    1N0N  0000024000000068640000090141200    YCYC    005500360039
BI00B1200    8750T52501     202206097289-6547                HOUSING FEMALE ASS'Y     CCN000002400000002400FN00000000020220701000002400NNM   20220426121917    1N0N  0000024000000115200000136201200    YCYC    005500360039
BI00B1200    #8750T52501    202206097189-3031-30             HOUSING FEMALE           CCN000004800000004800FN00000000020220701000004800NNM   20220426121917    2F0F  0000024000000092880000136581200    YCYC    005500360039
BI00B32AG    XG2206AKMW     202205137196-0104-02             TERMINAL                 CCN000038000000038000FN00000000020220601000038000NNE   20220426121917    4P0P  00003800000000570000000956432AG    XGXGY   006400630017
BI00B32AG    XG2206AKMW     202205137289-0269                HOUSING SUB ASSEMBLY     CCN000001600000001600FN00000000020220601000001600NNE   20220426121917    1N0N  00000160000001002100001234532AG    XGXGY   005500360039
BI00B32AG    XG2206AKMW     202205137327-6469-3W             BATTERY FUSE             CCN000001728000001728FN00000000020220601000001728NNE   20220426121917    4N0N  00000009600000832300001012332AG    XGXGY   005400370024
BI00B32AG    @XG2206AKMW    202205137283-1223-30             HOUSING SUB ASSEMBLY     CCN000004800000004800FN00000000020220601000004800NNE   20220426121917    3N0N  00000480000000749300000998032AG    XGXGY   005500360039
BI00B32AG    XG2206BKMW     202205277289-0269                HOUSING SUB ASSEMBLY     CCN000003200000003200FN00000000020220601000003200NNE   20220426121917    1N0N  00000160000001002100001234532AG    XGXGY   005500360039
BI00B32AG    XG2206BKMW     202205277327-6469-3W             BATTERY FUSE             CCN000001728000001728FN00000000020220601000001728NNE   20220426121917    4N0N  00000009600000832300001012332AG    XGXGY   005400370024
BI00B32AG    XG2206CLMW     202205137283-1968-30             CONNECTOR                CCN000002700000002700FN00000000020220601000002700NNE   20220426121917    1N0N  00000090000001140000001318332AG    XGXGY   005600390040
BI00B32AG    XG2207AKMW     202206107327-6469-3W             BATTERY FUSE             CCN000000960000000960FN00000000020220701000000960NNE   20220426121917    4N0N  00000009600000832300001012332AG    XGXGY   005400370024
BI00B32AG    @XG2207AKMW    202206107283-1223-30             HOUSING SUB ASSEMBLY     CCN000004800000004800FN00000000020220701000004800NNE   20220426121917    3N0N  00000480000000749300000998032AG    XGXGY   005500360039
BI00B32AG    XG2207ALMW     202206107283-1968-30             CONNECTOR                CCN000001800000001800FN00000000020220701000001800NNE   20220426121917    1N0N  00000090000001140000001318332AG    XGXGY   005600390040
BI00B32DE    TCT205A        202206097289-3342-30             HOUSING FEMALE ASS'Y     CCN000033600000000000FY00000000020220501000000000NNEQ0820220426152712    1N0N  00000240000000686400000901432DE    TVYEV-TV005500360039
BI00B32DE    TCT205B        202206167289-3342-30             HOUSING FEMALE ASS'Y     CCN000014400000000000FY00000000020220501000000000NNEQ0820220426152650    1N0N  00000240000000686400000901432DE    TVYEV-TV005500360039
BI00A32DJ    GHT2205B 2     202204267116-5751-02             TERMINAL                 CCN000036000000036000FY00003600020220501000000000NNM00020220426142842    4P0P  00001200000000379200000664432DJ    RBYIPLRB006400630015
BI00B32EJ    T220422P02     202207077283-5843                CONNECTOR                CCN000015000000015000FN00000000020220501000015000NNED0220220426145131EJ  1N0N  00000150000000889000001132032EJ    EJYKBO  005600390040
BI00B32EJ    T220425P01     202205267116-4101-02             TERMINAL                 CCN000060000000060000FN00000000020220501000060000NNE   20220426121917EJ  4P0P  00001200000000582000000876232EJ    EJYKBO  006400630015
BI00B32EJ    #T220425P01    202205267158-3120-90             CONNECTOR WIRE SEAL      CCN000020000000020000FN00000000020220501000020000NNE   20220426121917EJ  2C0C  00002000000000136000000194032EJ    EJYKBO  002700430014
BI00B32EJ    #T220425P01    202205267283-8397-40             CONNECTOR                CCN000003080000003080FN00000000020220501000003080NNE   20220426121917EJ  2N0N  00000154000001007000001222732EJ    EJYKBO  005600390023
BI00B32EJ    T220425P02     202205267158-3070-80             RUBBER STOPPER           CCN000040000000040000FN00000000020220501000040000NNE   20220426121917EJ  1C0C  00004000000000276000000333332EJ    EJYKBO  002700430014
BI00B32EJ    #T220425P02    202205267123-7564-40             CONNECTOR                CCN000005000000005000FN00000000020220501000005000NNE   20220426121917EJ  2F0F  00000100000001301000001479032EJ    EJYKBO  005600390040
BI00B32EJ    #T220425P02    202205267158-3374-90             CONNECTOR WIRE SEAL      CCN000020000000020000FN00000000020220501000020000NNE   20220426121917EJ  2H0H  00002000000000172000000229332EJ    EJYKBO  002700430014
BI00B32H7    FS22053DMW     202204297283-4855                CONNECTOR HOUSING        CCN000012000000012000FN00000000020220501000012000NNM00020220426121917    4N0N  00000240000001188400001400032H7    FYFSY   005500360039
BI00B32H7    FS22052DMW     202204297288-6547                CONNECTOR MALE ASS'Y     CCN000006750000006750FN00000000020220501000006750NNM00020220426121917    4N0N  00000075000001205300001340332H7    FYFSY   005400370024
BI00B32H7    FS2205BDMW     202204297296-1018-02             TERMINAL ALUMINIUM       CCN000024000000024000FN00000000020220501000024000NNE00020220426121917    4P0P  00001200000000595200000880432H7    FYFSY   006400630015
BI00B32H8    TY22052KMW     202204287289-3342                HOUSING FEMALE ASS'Y     CCN000007200000007200FN00000000020220501000007200NNM00020220426161633    1N0N  00000240000000686400000901432H8    TYTYC   005500360039
BI00B32K8    #K1220010826   202204297137-2719-50             SEALED CONNECTOR         CCN000015000000015000FN00000000020220601000015000NNMD0020220426121917    2C0C  00000100000000120700000185732K8    ELELCOM 002700430014
BI00B32K8    #K1220010877   202205277137-2200                CONNECTOR PACKING        CCN000010000000010000FN00000000020220701000010000NNM   20220426121917    2C0C  00000500000000136000000211332K8    ELELCOM 004300270014
BI00A32M1    TCV2042        202205047289-3342                HOUSING FEMALE ASS'Y     PCN000086400000086400FN00000000020220401000086400NNM00020220426130154    1N0N  00000240000000686400000901432M1    VNYEV   005500360039
BI00B32M1    TCV2034        202204227289-3342                HOUSING FEMALE ASS'Y     CCN000040800000019200FY00001920020220301000000000NNM00020220426094939    1N0N  00000240000000686400000901432M1    VNYEV   005500360039
BI00A32M1    TCV2034        202205127289-3342                HOUSING FEMALE ASS'Y     PCN000021600000021600FN00000000020220301000021600NNM00020220426121917    1N0N  00000240000000686400000901432M1    VNYEV   005500360039
BI00B32M4    TP2061         202205197289-3342-30             HOUSING FEMALE ASS'Y     CCN000016800000016800FN00000000020220601000016800NNMD0420220426143453    1N0N  00000240000000686400000901432M4    SISAI   005500360039
BI00B32M4    TP2062         202205267289-3342-30             HOUSING FEMALE ASS'Y     CCN000009600000009600FN00000000020220601000009600NNMD0420220426143529    1N0N  00000240000000686400000901432M4    SISAI   005500360039
BI00B32M4    TP2063         202206027289-3342-30             HOUSING FEMALE ASS'Y     CCN000009600000009600FN00000000020220601000009600NNMD0420220426143606    1N0N  00000240000000686400000901432M4    SISAI   005500360039
BI00B32M4    TP2061         202205127327-6983-30             MAIN FUSE                CCN000003600000003600FN00000000020220601000003600NNMD0420220426130629    4N0N  00000060000000748800000951532M4    SISAI   005400370024
BI00B32M4    TP2062         202205197327-6983-30             MAIN FUSE                CCN000001800000001800FN00000000020220601000001800NNMD0420220426130724    4N0N  00000060000000748800000951532M4    SISAI   005400370024
BI00B32M4    TP2063         202205267327-6983-30             MAIN FUSE                CCN000001800000001800FN00000000020220601000001800NNMD0420220426131047    4N0N  00000060000000748800000951532M4    SISAI   005400370024
BI00B32M4    TP2064         202206027327-6983-30             MAIN FUSE                CCN000001200000001200FN00000000020220601000001200NNMD0420220426131135    4N0N  00000060000000748800000951532M4    SISAI   005400370024
BI00B32M4    TP2061         202205127327-6985-30             MULTI FUSE               CCN000003456000003456FN00000000020220601000003456NNMD0420220426130629    4N0N  00000028800000886100001052032M4    SISAI   005400370024
BI00B32M4    TP2062         202205197327-6985-30             MULTI FUSE               CCN000001728000001728FN00000000020220601000001728NNMD0420220426130724    4N0N  00000028800000886100001052032M4    SISAI   005400370024
BI00B32M4    TP2063         202205267327-6985-30             MULTI FUSE               CCN000001728000001728FN00000000020220601000001728NNMD0420220426131047    4N0N  00000028800000886100001052032M4    SISAI   005400370024
BI00B32M4    TP2064         202206027327-6985-30             MULTI FUSE               CCN000001728000001728FN00000000020220601000001728NNMD0420220426131135    4N0N  00000028800000886100001052032M4    SISAI   005400370024
BI00B32M4    TP2061         202205127327-6990-30             MULTI FUSE               CCN000003920000003920FN00000000020220601000003920NNMD0420220426130629    4NON  00000056000000724000000907032M4    SISAI   005400370024
BI00B32M4    TP2062         202205197327-6990-30             MULTI FUSE               CCN000002240000002240FN00000000020220601000002240NNMD0420220426130724    4NON  00000056000000724000000907032M4    SISAI   005400370024
BI00B32M4    TP2063         202205267327-6990-30             MULTI FUSE               CCN000002240000002240FN00000000020220601000002240NNMD0420220426131047    4NON  00000056000000724000000907032M4    SISAI   005400370024
BI00B32M4    TP2064         202206027327-6990-30             MULTI FUSE               CCN000000560000000560FN00000000020220601000000560NNMD0420220426131135    4NON  00000056000000724000000907032M4    SISAI   005400370024
BI00B32M4    TP2061         202205127327-6998-30             MULTI FUSE               CCN000000864000000864FN00000000020220601000000864NNMD0420220426130629    4N0N  00000028800000886000001051932M4    SISAI   005400370024
BI00B32M4    TP2062         202205197327-6998-30             MULTI FUSE               CCN000000576000000576FN00000000020220601000000576NNMD0420220426130724    4N0N  00000028800000886000001051932M4    SISAI   005400370024
BI00B32M4    TP2063         202205267327-6998-30             MULTI FUSE               CCN000000288000000288FN00000000020220601000000288NNMD0420220426131047    4N0N  00000028800000886000001051932M4    SISAI   005400370024
BI00B32N1    NST2118A       202205127282-1248                HOUSING SUB ASSEMBLY     CCN000012000000012000FN00000000020220501000012000NNMD0720220426121917    1N0N  00000060000001167000001372032N1    TAYIPL  005500360039
BI00B32P8    #TAPI-2054     202204277172-5626-90             RUBBER STOPPER           CCN000020000000020000FN00000000020220501000020000NNM00020220426151530    2H0H  00002000000000076400000127832P8    YIYTM   004300270014
BI00B32Q8    EU22044TMW     202204257327-6949-30             MULTI FUSE               CCN000000288000000288FY00000028820220401000000000NNM00020220426110122    4N00  00000028800000886700001052632Q8    EMEMI   005400370024
BI00B32Q8    EU22053 MW     202204277158-3006-90             RUBBER STOPPER           CCN000940000000940000FN00000000020220501000940000NNM00020220426151602    1C0C  00002000000000330600000386032Q8    EMEMI   002700430014
BI00B32Q8    EU22053 MW     202204277158-3165-90             WIRE SEAL                CCN000040000000040000FN00000000020220501000040000NNM00020220426151612    1C0C  00004000000000124000000172432Q8    EMEMI   004300270014
BI00B32Q8    EU22053 MW     202204277158-3167-80             WIRE SEAL                CCN000420000000420000FN00000000020220501000420000NNM00020220426151619    1C0C  00002000000000048000000109032Q8    EMEMI   002700430014
BI00B32Q8    EU22053 MW     202204277158-3168-80             SEALED                   CCN000040000000040000FN00000000020220501000040000NNM00020220426151626    1C0C  00002000000000044000000092132Q8    EMEMI   004300260014
BI00B32Q8    EU22053 MW     202204277158-3169-40             SEALING PLUG             CCN000320000000320000FN00000000020220501000320000NNM00020220426151634    1C0C  00004000000000156000000204132Q8    EMEMI   004300260014
BI00B32Q8    EU22053NMW     202204277158-3166-10             WIRE SEAL                CCN000080000000080000FN00000000020220501000080000NNM00020220426151740    1C0C  00004000000000096000000144432Q8    EMEMI   004300270014
BI00B32Q8    EU22053NMW     202204277298-2278-30             HOUSING FEMALE ASS'Y     CCN000086400000086400FN00000000020220501000086400NNM00020220426151749    4N0N  00000240000001091700001295432Q8    EMEMI   005500360039
BI00B32Q8    EU22053TMW     202204277283-1289-30             CONNECTOR HOUSING        CCN000000600000000600FN00000000020220501000000600NNM00020220426151815    1N0N  00000060000000675600000820632Q8    EMEMI   005400370024
BI00B32Q8    EU22053TMW     202204277289-3342-30             HOUSING FEMALE ASS'Y     CCN000007200000007200FN00000000020220501000007200NNM00020220426151822    1N0N  00000240000000686400000901432Q8    EMEMI   005500360039
BI00B32Q8    EU2205A MW     202204277283-5843                CONNECTOR                CCN000001500000001500FN00000000020220501000001500NNE00020220426151847    1N0N  00000150000000889000001132032Q8    EMEMI   005600390040
BI00B32U9    TP0391S        202204277298-1149-3W             SQUIB SUB ASS'Y          CCN000010000000010000FN00000000020220501000010000NNE00020220426152006U9  4N0N  00001000000000785000000922032U9    YNYNA-E 005400370024
BI00B32U9    TP0391S        202204277174-1849-70             COVER                    CCN000150000000150000FN00000000020220501000150000NNE00020220426151915U9  1F0F  00002500000000622500000761932U9    YNYNA-E 005400370024
BI00B32U9    TP0391S        202204277298-1145-4W             SQUIB SUB ASS'Y          CCN000130000000080000FN00000000020220501000080000NNE00020220426121917U9  4N0N  00001000000000787900000944932U9    YNYNA-E 005400370024
BI00B32U9    TP0391S        202204277114-6041                TERMINAL                 CCN000090000000090000FN00000000020220501000090000NNE00020220426151925U9  4P0P  00000360000000580700000824232U9    YNYNA-E 006400630015
BI00B32U9    TP0391S        202204277289-7615-30             HOUSING FEMALE ASS'Y     CCN000003840000003840FN00000000020220501000003840NNE00020220426151943U9  4N0N  00000032000000738000000948032U9    YNYNA-E 005400370024
BI00B32U9    TP0391S        202204297298-1145-4W             SQUIB SUB ASS'Y          CCN000050000000050000FN00000000020220501000050000NNE00020220426121917U9  4N0N  00001000000000787900000944932U9    YNYNA-E 005400370024
BI00B32U9    TP0393S        202204287289-6547                HOUSING FEMALE ASS'Y     CCN000002400000002400FN00000000020220501000002400NNE00020220426121917U9  1N0N  00000240000001152000001362032U9    YNYNA-E 005500360039
BI00A32U9    TPA223         202204277289-4212-80             SEALED HOUSING ASS'Y     CCN000002000000002000FN00000000020220601000002000NNMM0020220426130955U9  4N0N  00000200000000848600000978632U9    YNYNA-E 005400370024
BI00A32W4    4500189177     202204127158-3166-60             WIRE SEAL                CCN000040000000040000FY00004000020220401000000000NNE00020220426142123W4141C0C  00004000000000104000000152432W414  HJYHK   002700430014
BI00A32W4    #4500189178    202204267158-3654-80             WIRE TUBE                CCN000040000000040000FY00004000020220401000000000NNE00020220426142154W4142H0H  00004000000000104000000152232W414  HJYHK   004300270014
BI00A32W4    @4500189501    202204267287-6634                HOUSING FEMALE ASS'Y     CCN000012000000012000FY00001200020220401000000000NNE00020220426142221W4L63N0N  00000240000001088400001337032W4L6  HJYHK-K 005500360039
BI00A32W4    4500189840     202204267158-3169-40             SEALING PLUG             CCN000040000000040000FY00004000020220401000000000NNE00020220426142341W4141C0C  00004000000000156000000204132W414  HJYHK   004300260014
BI00A32W4    4500189847     202204267116-4110-02             TERMINAL                 CCN000036000000036000FY00003600020220401000000000NNE00020220426142359W4664P0P  00000900000000594000000882232W466  HJYHK   006400630015
BI00A32W4    4500189866     202204267116-4120-02             TERMINAL                 CCN000006000000006000FY00000600020220401000000000NNE00020220426142414W4804P0P  00000600000000780000001073632W480  HJYHK-J 006400630015
BI00A32W4    4500190330     202204277116-4103-02             TERMINAL                 CCN000024000000024000FN00000000020220501000024000NNE00020220426152103W4A24P0P  00001200000000571200000859432W4A2  HJYHK-J 006400630015
BI00A32W4    4500190330     202204277116-4102-02             TERMINAL                 CCN000060000000060000FN00000000020220501000060000NNE00020220426152056W4A24P0P  00001200000000553200000841432W4A2  HJYHK-J 006400630015
BI00A32W4    4500190330     202204277116-4031                TERMINAL                 CCN000037500000037500FN00000000020220501000037500NNE00020220426152033W4A24P0P  00000750000000619500000904732W4A2  HJYHK-J 006400630015
BI00A32W4    4500190330     202204277116-4100-02             TERMINAL                 CCN000045000000045000FN00000000020220501000045000NNE00020220426152048W4A24P0P  00001500000000696000000990232W4A2  HJYHK-J 006400630015
BI00A32W4    4500190330     202204277116-4110-02             TERMINAL                 CCN000009000000009000FN00000000020220501000009000NNE00020220426152110W4A24P0P  00000900000000594000000882232W4A2  HJYHK-J 006400630015
BI00A32W4    4500190330     202204277116-4112-02             TERMINAL                 CCN000024000000024000FN00000000020220501000024000NNE00020220426152117W4A24P0P  00000600000000450000000738232W4A2  HJYHK-J 006400630015
BI00A32W4    4500190550     202204277116-4111-02             TERMINAL                 CCN000007500000007500FN00000000020220401000007500NNE00020220426152146W4A24P0P  00000750000000529500000817732W4A2  HJYHK-J 006400630015
BI00A32W4    4500190901     202204267116-4122-02             TERMINAL                 CCN000018000000018000FY00001800020220401000000000NNE00020220426142455W4804P0P  00000450000000656600000950232W480  HJYHK-J 006400630015
BI00A32W4    4500191082     202205057158-3167-80             WIRE SEAL                CCN000120000000120000FN00000000020220501000120000NNEM0020220426121917W4A21C0C  00002000000000048000000109032W4A2  HJYHK-J 002700430014
BI00A32W4    4500191082     202205057116-4111-02             TERMINAL                 CCN000015000000015000FN00000000020220501000015000NNEM0020220426121917W4A24P0P  00000750000000529500000817732W4A2  HJYHK-J 006400630015
BI00A32W4    #4500191082    202205057158-3121-80             WIRE SEAL                CCN000020000000020000FN00000000020220501000020000NNEM0020220426121917W4A22C0C  00002000000000118000000187332W4A2  HJYHK-J 002700430014
BI00A32W4    #4500191082    202205057283-4190-30             CONNECTOR                CCN000004800000004800FN00000000020220501000004800NNEM0020220426121917W4A22N0N  00000024000000846000001115532W4A2  HJYHK-J 005600390040
BI00A32W4    4500190414     202204277116-2951-02             TERMINAL                 CCN000005400000005400FN00000000020220401000005400NNE00020220426152207W4284P0P  00000540000000817600001111832W428  HJYHK   006400630015
BI00B32W4    4500192791     202208257283-1020                CONNECTOR                CCN000108000000108000FN00000000020220501000108000NNED0420220426121917W4514N0N  00000600000000840000001049332W451  HJ32W9  005600390040
BI00B32W4    4500192831     202206237116-4120-02             TERMINAL                 CCN000006000000006000FN00000000020220601000006000NNE   20220426132201W48 4P0P  00000600000000780000001073632W48   HJYHK   006400630015
BI00B32W4    4500192831     202206237116-4025                TERMINAL                 CCN000016000000016000FN00000000020220601000016000NNE   20220426132201W48 4P0P  00001600000000644800000975132W48   HJYHK   006400630017
BI00B32W4    4500192831     202206237116-4022                TERMINAL                 CCN000013500000013500FN00000000020220601000013500NNE   20220426132201W48 4P0P  00001350000000618300000903532W48   HJYHK   006400630015
BI00B32W4    4500192831     202206237116-4121-02             TERMINAL                 CCN000018000000018000FN00000000020220601000018000NNE   20220426132201W48 4P0P  00000450000000618800000912432W48   HJYHK   006400630015
BI00B32W4    4500192831     202206237158-3006-90             RUBBER STOPPER           CCN000020000000020000FN00000000020220601000020000NNE   20220426132201W48 1C0C  00002000000000330600000386032W48   HJYHK   002700430014
BI00B32W4    4500192831     202206237158-3166-60             WIRE SEAL                CCN000080000000080000FN00000000020220601000080000NNE   20220426132201W48 1C0C  00004000000000104000000152432W48   HJYHK   002700430014
BI00B32W4    #4500192831    202206237123-6423-30             CONNECTOR                CCN000004000000004000FN00000000020220601000004000NNE   20220426132157W48 2F0F  00000200000001002000001167632W48   HJYHK   005600390023
BI00B32W4    @4500192831    202206237123-4312-80             HOUSING                  CCN000004800000004800FN00000000020220601000004800NNE   20220426132159W48 3F0F  00000080000000644200000794032W48   HJYHK   005500360039
BI00B32W4    4500192832     202206167116-1230                TERMINAL                 CCN000013500000013500FN00000000020220601000013500NNE   20220426132343W48 4P0P  00001350000000664200000952432W48   HJYHK   006400630015
BI00B32W4    4500192832     202206167116-4122-02             TERMINAL                 CCN000004500000004500FN00000000020220601000004500NNE   20220426132343W48 4P0P  00000450000000656600000950232W48   HJYHK   006400630015
BI00B32W4    4500192832     202206167116-4025                TERMINAL                 CCN000016000000016000FN00000000020220601000016000NNE   20220426132343W48 4P0P  00001600000000644800000975132W48   HJYHK   006400630017
BI00B32W4    4500192832     202206167116-4121-02             TERMINAL                 CCN000013500000013500FN00000000020220601000013500NNE   20220426132343W48 4P0P  00000450000000618800000912432W48   HJYHK   006400630015
BI00B32W4    4500192832     202206167158-3166-60             WIRE SEAL                CCN000040000000040000FN00000000020220601000040000NNE   20220426132343W48 1C0C  00004000000000104000000152432W48   HJYHK   002700430014
BI00B32W4    4500192832     202206167222-6244-40             CONNECTOR                CCN000002400000002400FN00000000020220601000002400NNE   20220426132343W48 4N0N  00000080000001239200001422032W48   HJYHK   005600390040
BI00B32W4    4500192832     202206167289-7615-30             HOUSING FEMALE ASS'Y     CCN000003200000003200FN00000000020220601000003200NNE   20220426132343W48 4N0N  00000032000000738000000948032W48   HJYHK   005400370024
BI00B32W4    4500192832     202206167172-1372-10             FRONT HOLDER             CCN000003900000003900FN00000000020220601000003900NNE   20220426132343W48 4F0F  00000390000000655200000955232W48   HJYHK   005500360039
BI00B32W4    #4500192832    202206167158-3121-80             WIRE SEAL                CCN000040000000040000FN00000000020220601000040000NNE   20220426132337W48 2C0C  00002000000000118000000187332W48   HJYHK   002700430014
BI00B32W4    #4500192832    202206167123-6423-30             CONNECTOR                CCN000002000000002000FN00000000020220601000002000NNE   20220426132337W48 2F0F  00000200000001002000001167632W48   HJYHK   005600390023
BI00B32W4    @4500192832    202206167123-4312-80             HOUSING                  CCN000006400000006400FN00000000020220601000006400NNE   20220426132341W48 3F0F  00000080000000644200000794032W48   HJYHK   005500360039
BI00B32W4    4500192833     202206097116-4122-02             TERMINAL                 CCN000004500000004500FN00000000020220601000004500NNE   20220426132530W48 4P0P  00000450000000656600000950232W48   HJYHK   006400630015
BI00B32W4    4500192833     202206097289-7615-30             HOUSING FEMALE ASS'Y     CCN000003520000003520FN00000000020220601000003520NNE   20220426132530W48 4N0N  00000032000000738000000948032W48   HJYHK   005400370024
BI00B32W4    4500192833     202206097172-1372-10             FRONT HOLDER             CCN000003900000003900FN00000000020220601000003900NNE   20220426132530W48 4F0F  00000390000000655200000955232W48   HJYHK   005500360039
BI00B32W4    #4500192833    202206097123-6423-30             CONNECTOR                CCN000004000000004000FN00000000020220601000004000NNE   20220426132524W48 2F0F  00000200000001002000001167632W48   HJYHK   005600390023
BI00B32W4    #4500192833    202206097157-3952-80             RUBBER STOPPER           CCN000010000000010000FN00000000020220601000010000NNE   20220426132524W48 2C0C  00001000000000117000000175032W48   HJYHK   002700430014
BI00B32W4    @4500192833    202206097123-4312-80             HOUSING                  CCN000002400000002400FN00000000020220601000002400NNE   20220426132528W48 3F0F  00000080000000644200000794032W48   HJYHK   005500360039
BI00B32W4    4500192834     202206027116-4122-02             TERMINAL                 CCN000004500000004500FN00000000020220601000004500NNE   20220426132617W48 4P0P  00000450000000656600000950232W48   HJYHK   006400630015
BI00B32W4    4500192834     202206027289-7615-30             HOUSING FEMALE ASS'Y     CCN000002240000002240FN00000000020220601000002240NNE   20220426132617W48 4N0N  00000032000000738000000948032W48   HJYHK   005400370024
BI00B32W4    #4500192835    202205267158-3003-90             RUBBER STOPPER           CCN000040000000040000FN00000000020220501000040000NNE   20220426132706W48 2C0C  00002000000000250000000306032W48   HJYHK   002700430014
BI00B32W4    #4500192836    202205197158-3003-90             RUBBER STOPPER           CCN000020000000020000FN00000000020220501000020000NNE   20220426132751W48 2C0C  00002000000000250000000306032W48   HJYHK   002700430014
BI00B32W4    #4500192837    202205127158-3003-90             RUBBER STOPPER           CCN000040000000040000FN00000000020220501000040000NNE   20220426132834W48 2C0C  00002000000000250000000306032W48   HJYHK   002700430014
BI00B32W4    #4500192838    202205127158-3003-90             RUBBER STOPPER           CCN000040000000040000FN00000000020220501000040000NNE   20220426132916W48 2C0C  00002000000000250000000306032W48   HJYHK   002700430014
BI00B32W4    4500192888     202205127158-3167-80             WIRE SEAL                CCN000020000000020000FN00000000020220501000020000NNE   20220426133016W4P71C0C  00002000000000048000000109032W4P7  HJYHK   002700430014
BI00B32W4    4500192888     202205127158-3169-40             SEALING PLUG             CCN000040000000040000FN00000000020220501000040000NNE   20220426133016W4P71C0C  00004000000000156000000204132W4P7  HJYHK   004300260014
BI00B32W7    SC22061JMW     202205047C89-6868-30             SEALED ASSY FEMALE       CCN000017640000017640FN00000000020220601000017640NNMD0420220426121917    4N0N  00000252000000839200001119232W7    SYSYA-CH005500360039
BI00B32W7    SC22062JMW     202205047C89-6868-30             SEALED ASSY FEMALE       CCN000017640000017640FN00000000020220601000017640NNMD0420220426121917    4N0N  00000252000000839200001119232W7    SYSYA-CH005500360039
BI00B32W9    4500192933     202206077116-6041                TERMINAL                 CCN000004500000004500FN00000000020220601000004500NNE   20220426133115W93 4P0P  00000450000000716000001009632W93   HKYHK   006400630015
BI00B32W9    4500192933     202206077126-8851-02             TERMINAL                 CCN000009000000009000FN00000000020220601000009000NNE   20220426133115W93 1P0P  00000900000000739800001025032W93   HKYHK   006400630015
BI00B32W9    4500192933     202206077116-4032                TERMINAL                 CCN000006000000006000FN00000000020220601000006000NNE   20220426133115W93 4P0P  00000600000000532800000818032W93   HKYHK   006400630015
BI00B32W9    4500192933     202206077158-3167-80             WIRE SEAL                CCN000020000000020000FN00000000020220601000020000NNE   20220426133115W93 1C0C  00002000000000048000000109032W93   HKYHK   002700430014
BI00B32W9    #4500192933    202206077282-2090-30             CONNECTOR MALE ASS'Y     CCN000002400000002400FN00000000020220601000002400NNE   20220426133112W93 2N0N  00000240000000794000001073032W93   HKYHK   005500360039
BI00B32W9    #4500192933    202206077157-7811-80             SEAL RUBBER              CCN000010000000010000FN00000000020220601000010000NNE   20220426133112W93 2C0C  00001000000000105000000182732W93   HKYHK   002700430014
BI00B32W9    4500192941     202206147116-1180                TERMINAL                 CCN000019500000019500FN00000000020220601000019500NNE   20220426133209W93 1P0P  00001950000000618200000903432W93   HKYHK   006400630015
BI00B32W9    4500192941     202206147126-8850-02             TERMINAL                 CCN000009000000009000FN00000000020220601000009000NNE   20220426133209W93 1P0P  00000900000000672300000957532W93   HKYHK   006400630015
BI00B32W9    4500192941     202206147116-4025                TERMINAL                 CCN000016000000016000FN00000000020220601000016000NNE   20220426133209W93 4P0P  00001600000000644800000975132W93   HKYHK   006400630017
BI00B32W9    4500192941     202206147116-1685-02             TERMINAL                 CCN000024000000024000FN00000000020220601000024000NNE   20220426133209W93 4P0P  00002400000000897600001065232W93   HKYHK   005100280028
BI00B32W9    4500192941     202206147116-1471                TERMINAL                 CCN000015000000015000FN00000000020220601000015000NNE   20220426133209W93 4P0P  00001500000000579000000867232W93   HKYHK   006400630015
BI00B32W9    4500192941     202206147126-8851-02             TERMINAL                 CCN000009000000009000FN00000000020220601000009000NNE   20220426133209W93 1P0P  00000900000000739800001025032W93   HKYHK   006400630015
BI00B32W9    4500192941     202206147116-4037                TERMINAL                 CCN000006000000006000FN00000000020220601000006000NNE   20220426133209W93 4P0P  00000600000000600000000894232W93   HKYHK   006400630015
BI00B32W9    4500192941     202206147114-4231-02             TERMINAL                 CCN000018000000018000FN00000000020220601000018000NNE   20220426133209W93 4P0P  00001800000000554400000848032W93   HKYHK   006400630015
BI00B32W9    4500192941     202206147222-7923-40             CONNECTOR                CCN000000600000000600FN00000000020220601000000600NNE   20220426133209W93 4N0N  00000060000000937000001123032W93   HKYHK   005500360039
BI00B32W9    4500192949     202206217017-1183-02             TERMINAL                 CCN000027000000027000FN00000000020220601000027000NNE   20220426133308W93 4P0P  00002700000001139400001307432W93   HKYHK   005100280028
BI00B32W9    4500192949     202206217116-4025                TERMINAL                 CCN000016000000016000FN00000000020220601000016000NNE   20220426133308W93 4P0P  00001600000000644800000975132W93   HKYHK   006400630017
BI00B32W9    4500192949     202206217116-1471                TERMINAL                 CCN000015000000015000FN00000000020220601000015000NNE   20220426133308W93 4P0P  00001500000000579000000867232W93   HKYHK   006400630015
BI00B32W9    4500192949     202206217126-8852-02             TERMINAL                 CCN000007500000007500FN00000000020220601000007500NNE   20220426133308W93 1P0P  00000750000000648000000933232W93   HKYHK   006400630015
BI00B32Y6    STAP32091      202206027116-1685-02             TERMINAL                 CCN000048000000048000FN00000000020220901000048000NNM   20220426121917    4P0P  00002400000000897600001065232Y6    BSYBL-S 005100280028
BI00B32Y6    STAP32091      202206027116-1686-02             TERMINAL                 CCN000021000000021000FN00000000020220901000021000NNM   20220426121917    4P0P  00002100000000869400001021632Y6    BSYBL-S 005100280028
BI00B32Y6    STAP32091      202206027116-5044-02             TERMINAL                 CCN000512000000512000FN00000000020220901000512000NNM   20220426121917    4P0P  00001600000000641600000986332Y6    BSYBL-S 006400630017
BI00B32Y6    STAP32091      202206027158-3022-80             RUBBER STOPPER           CCN000010000000010000FN00000000020220901000010000NNM   20220426121917    1C0C  00000500000000467500000524032Y6    BSYBL-S 002700430014
BI00B32Y6    STAP32091      202206027158-3169-40             SEALING PLUG             CCN000080000000080000FN00000000020220901000080000NNM   20220426121917    1C0C  00004000000000156000000204132Y6    BSYBL-S 004300260014
BI00B32Y6    STAP32091      202206027196-0396-02             TERMINAL                 CCN000030000000030000FN00000000020220901000030000NNM   20220426121917    4P0P  00001500000000949500001112932Y6    BSYBL-S 002800510028
BI00B32Y6    STAP32091      202206027270-8994                6P MODULE ASSEMBLY       CCN000017700000017700FN00000000020220901000017700NNM   20220426121917    4J0J  00000010000001098600001298632Y6    BSYBL-S 005400370024
BI00B32Y6    STAP32091      202206027282-4578-30             HOUSING MALE ASS'Y       CCN000001200000001200FN00000000020220901000001200NNM   20220426121917    4N0N  00000120000000782600000992632Y6    BSYBL-S 005500360039
BI00B32Y6    STAP32091      202206027283-4854-40             CONNECTOR HOUSING        CCN000004800000004800FN00000000020220901000004800NNM   20220426121917    4N0N  00000240000000694100000914132Y6    BSYBL-S 005500360039
BI00B32Y6    STAP32091      202206027286-1915                CONNECTOR SUB ASSY       CCN000001600000001600FN00000000020220901000001600NNM   20220426121917    4N0N  00000160000000965600001165632Y6    BSYBL-S 005500360039
BI00B32Y6    STAP32091      202206027287-1915-90             CONNECTOR ASS'Y          CCN000002400000002400FN00000000020220901000002400NNM   20220426121917    4N0N  00000240000000666500000923132Y6    BSYBL-S 005500360039
BI00B32Y6    STAP32091      202206027287-9323-40             UNSEALED HOUSING SUB     CCN000002400000002400FN00000000020220901000002400NNM   20220426121917    1N0N  00000240000000537600000690032Y6    BSYBL-S 005600390023
BI00B32Y6    STAP32091      202206027327-6581-3W             BATTERY FUSE             CCN000000576000000576FN00000000020220901000000576NNM   20220426121917    4N0N  00000007200001230000001422532Y6    BSYBL-S 005500360039
BI00B32Y6    STAP32091      202206027327-6731-3W             BATTERY FUSE             CCN000010368000010368FN00000000020220901000010368NNM   20220426121917    4N0N  00000006400000697600000843032Y6    BSYBL-S 005400370024
BI00B32Y6    STAP32091      202206027388-0313-30             CONNECTOR ASS'Y          CCN000003600000003600FN00000000020220901000003600NNM   20220426121917    4N0N  00000120000000995000001125032Y6    BSYBL-S 005400370024
BI00B32Y6    STAP32091      202206027388-0315-40             CONNECTOR ASS'Y          CCN000002950000003600FN00000000020220901000003600NNM   20220426121917    4N0N  00000120000000999600001129632Y6    BSYBL-S 005400370024
BI00B32Y6    STAP32091      202206027388-2978-30             HOUSING MALE ASS'Y       CCN000012480000012480FN00000000020220901000012480NNM   20220426121917    1N0N  00000048000000742000001122032Y6    BSYBL-S 005500360039
BI00B32Y6    #STAP32091     202206027154-5597-30             CASSETTE R/B             CCN000005600000005600FN00000000020220901000005600NNM   20220426121917    2F0F  00000080000000736000000952032Y6    BSYBL-S 005500360039
BI00B32Y6    #STAP32091     202206027158-3003-90             RUBBER STOPPER           CCN000280000000280000FN00000000020220901000280000NNM   20220426121917    2C0C  00002000000000250000000306032Y6    BSYBL-S 002700430014
BI00B32Y6    #STAP32091     202206027158-3005-80             RUBBER STOPPER           CCN000020000000020000FN00000000020220901000020000NNM   20220426121917    2H0H  00002000000000210000000268732Y6    BSYBL-S 002700430014
BI00B32Y6    #STAP32091     202206027158-3007-10             RUBBER STOPPER           CCN000040000000040000FN00000000020220901000040000NNM   20220426121917    2H0H  00002000000000308000000362732Y6    BSYBL-S 002700430014
BI00B32Y6    #STAP32091     202206027172-5626-90             RUBBER STOPPER           CCN000220000000220000FN00000000020220901000220000NNM   20220426121917    2H0H  00002000000000076400000127832Y6    BSYBL-S 004300270014
BI00B32Y6    #STAP32091     202206027172-5627-60             RUBBER STOPPER           CCN000080000000080000FN00000000020220901000080000NNM   20220426121917    2H0H  00002000000000070400000121832Y6    BSYBL-S 004300270014
BI00B32Y6    #STAP32091     202206027172-5628-80             DUMMY PLUG               CCN000080000000080000FN00000000020220901000080000NNM   20220426121917    2H0H  00002000000000110600000162032Y6    BSYBL-S 004300270014
BI00B32Y6    #STAP32091     202206027172-5629-80             RUBBER STOPPER           CCN000080000000080000FN00000000020220901000080000NNM   20220426121917    2H0H  00002000000000060000000111132Y6    BSYBL-S 004300270014
BI00B32Y6    #STAP32091     202206027172-5631-60             RUBBER STOPPER           CCN000200000000200000FN00000000020220901000200000NNM   20220426121917    2H0H  00002000000000042000000093132Y6    BSYBL-S 004300270014
BI00B32Y6    #STAP32091     202206027182-2411                CONNECTOR HOUSING        CCN000002400000002400FN00000000020220901000002400NNM   20220426121917    2F0F  00000120000001267000001558332Y6    BSYBL-S 005500360039
BI00B32Y6    #STAP32091     202206027189-2978-30             HOUSING FEMALE           CCN000004500000004500FN00000000020220901000004500NNM   20220426121917    2F0F  00000150000000966900001096932Y6    BSYBL-S 005400370024
BI00B32Y6    #STAP32091     202206027189-3033                HOUSING FEMALE           CCN000008000000008000FN00000000020220901000008000NNM   20220426121917    2F0F  00000160000001211200001431232Y6    BSYBL-S 005500360039
BI00B32Y6    #STAP32091     202206027289-2919-30             HOUSING FEMALE ASS'Y     CCN000001500000001500FN00000000020220901000001500NNM   20220426121917    2N0N  00000150000000907500001034532Y6    BSYBL-S 005400370024
BI00B32Y6    #STAP32091     202206027289-3622-30             HOUSING FEMALE ASS'Y     CCN000001296000001296FN00000000020220901000001296NNM   20220426121917    2N0N  00000043200000839400001038432Y6    BSYBL-S 005400370024
BI00B32Y6    @STAP32091     202206027283-1556                CONNECTOR ASS'Y          CCN000024000000024000FN00000000020220901000024000NNM   20220426121917    3N0N  00000240000000755000001014032Y6    BSYBL-S 005500360039
