BI00A1200    #8670T51B01    202202017172-5630-40             RUBBER STOPPER           PCN000020000000020000FN00000000020220201000020000NNE00020220124122209    2H0H  0000200000000004400000009511200    YCYC    004300270014
BI00A1200    MKH2022-010    202202107327-6985-30             MULTI FUSE               CCN000000288000000288FN00000000020220201000000288NNED0720220124122209    4N0N  0000002880000000000000000001200    YCYC    000000000000
BI00A1200    MKH2022-010    202202107327-6990-30             MULTI FUSE               CCN000000560000000560FN00000000020220201000000560NNED0720220124122209    4NON  0000005600000072400000090701200    YCYC    005400370024
BI00A1200    MKH2022-010    202203037327-6983-30             MAIN FUSE                CCN000000600000000600FN00000000020220201000000600NNED0720220124122209    4N0N  0000006000000000000000000001200    YCYC    000000000000
BI00B1200    CE22-MN-0020   202202177196-1461-06             TERMINAL FEMALE          CCN000024000000024000FN00000000020220201000024000NNED0020220124122209    4P0P  0000240000000038640000069291200    YCYC    006400630015
BI00B1200    7504T52201     202202037116-4120-02             TERMINAL                 CCN000060000000060000FN00000000020220201000060000NNM   20220124122209    4P0P  0000060000000078000000107361200    YCYC    006400630015
BI00B1200    7504T52202     202202037116-4120-02             TERMINAL                 CCN000060000000060000FN00000000020220201000060000NNM   20220124122209    4P0P  0000060000000078000000107361200    YCYC    006400630015
BI00B1200    7504T52203     202202107116-4120-02             TERMINAL                 CCN000060000000060000FN00000000020220201000060000NNM   20220124122209    4P0P  0000060000000078000000107361200    YCYC    006400630015
BI00B1200    7504T52204     202202177116-4120-02             TERMINAL                 CCN000060000000060000FN00000000020220201000060000NNM   20220124122209    4P0P  0000060000000078000000107361200    YCYC    006400630015
BI00B1200    7504T52205     202202247116-4120-02             TERMINAL                 CCN000060000000060000FN00000000020220201000060000NNM   20220124122209    4P0P  0000060000000078000000107361200    YCYC    006400630015
BI00B1200    7504T52202     202202037116-4122-02             TERMINAL                 CCN000153000000153000FN00000000020220201000153000NNM   20220124122209    4P0P  0000045000000065660000095021200    YCYC    006400630015
BI00B1200    7504T52204     202202177116-4122-02             TERMINAL                 CCN000153000000153000FN00000000020220201000153000NNM   20220124122209    4P0P  0000045000000065660000095021200    YCYC    006400630015
BI00A32AF    QA-22-S004     202201257158-3070-80             RUBBER STOPPER           PNN000240000000080000FY00008000020220101000000000NNE00020220124154739    1C0C  00004000000000276000000333332AF    HBYHVTB 002700430014
BI00B32A7    ZZ22022LMW     202201267123-1508                CONNECTOR                CCN000009000000009000FN00000000020220201000009000NNM00020220124122209    1F0F  00000100000000933000001174032A7    ZZZZY   005600390040
BI00B32A7    ZZ2202ALMW     202201147123-1508                CONNECTOR                CCN000015000000014000FY00001400020220201000000000NNE00020220124082659    1F0F  00000100000000933000001174032A7    ZZZZY   005600390040
BI00B32A7    ZZ22033BMW     202203027172-5403-30             SEALED PACKING           CCN000052000000052000FN00000000020220301000052000NNMD0320220124122209    1C0C  00000400000000653600000701732A7    ZZZZY   004300270014
BI00B32A7    ZZ2202ALMW     202201267123-1508                CONNECTOR                CCN000001000000001000FN00000000020220201000001000NNE00020220124122209    1F0F  00000100000000933000001174032A7    ZZZZY   005600390040
BI00B32BF    TT22031BMW     202201217283-4855                CONNECTOR HOUSING        CCN000004800000004800FY00000480020220301000000000NNMD0420220124133700    4N0N  00000240000001188400001400032BF    TTTJYCD 005500360039
BI00B32BF    TT2203AKMW     202202087017-1181-02             TERMINAL                 CCN000063000000063000FN00000000020220301000063000NNED0720220124122209    4P0P  00006300000001089900001266832BF    TTTJYCD 005100280028
BI00B32BF    TT2203AKMW     202202087114-1301                TERMINAL                 CCN000097500000097500FN00000000020220301000097500NNED0720220124122209    4P0P  00001950000000614300000907932BF    TTTJYCD 006400630015
BI00B32BF    TT2203AKMW     202202087116-4025                TERMINAL                 CCN000032000000032000FN00000000020220301000032000NNED0720220124122209    4P0P  00001600000000644800000975132BF    TTTJYCD 006400630017
BI00B32BF    TT2203AKMW     202202087158-3006-90             RUBBER STOPPER           CCN000040000000040000FN00000000020220301000040000NNED0720220124122209    1C0C  00002000000000330600000386032BF    TTTJYCD 002700430014
BI00B32BF    #TT2203AKMW    202202087119-3130                HOUSING                  CCN000003000000003000FN00000000020220301000003000NNED0720220124122209    2F0F  00000300000001758000001868032BF    TTTJYCD 005500360039
BI00B32BF    #TT2203AKMW    202202087283-5833                CONNECTOR HOUSING        CCN000003640000003640FN00000000020220301000003640NNED0720220124122209    2N0N  00000364000001378000001686732BF    TTTJYCD 005500360039
BI00B32BF    @TT2203AKMW    202202087283-1100-60             CONNECTOR ASS'Y          CCN000003200000003200FN00000000020220301000003200NNED0720220124122209    3N0N  00000160000000567500000801432BF    TTTJYCD 005500360039
BI00B32BF    TT22051BMW     202203227114-4031                TERMINAL                 CCN000010500000010500FN00000000020220501000010500NNM   20220124130432    4P0P  00001050000000966000001294632BF    TTTJYCD 006400630017
BI00B32BF    TT22051BMW     202203227114-4624-02             TERMINAL                 CCN000024000000024000FN00000000020220501000024000NNM   20220124130432    4P0P  00002400000000895200001188832BF    TTTJYCD 006400630015
BI00B32BF    TT22051BMW     202203227114-4728-08             TERMINAL                 CCN000030000000030000FN00000000020220501000030000NNM   20220124130432    4P0P  00003000000000507000000801232BF    TTTJYCD 006400630015
BI00B32BF    TT22051BMW     202203227116-1685-02             TERMINAL                 CCN000024000000024000FN00000000020220501000024000NNM   20220124130432    4P0P  00002400000000897600001065232BF    TTTJYCD 005100280028
BI00B32BF    TT22051BMW     202203227116-5045-02             TERMINAL                 CCN000016000000016000FN00000000020220501000016000NNM   20220124130432    4P0P  00001600000000678400001007132BF    TTTJYCD 006400630017
BI00B32BF    TT22051BMW     202203227126-8851-02             TERMINAL                 CCN000009000000009000FN00000000020220501000009000NNM   20220124130432    1P0P  00000900000000739800001025032BF    TTTJYCD 006400630015
BI00B32BF    TT22051BMW     202203227126-8852-02             TERMINAL                 CCN000007500000007500FN00000000020220501000007500NNM   20220124130432    1P0P  00000750000000648000000933232BF    TTTJYCD 006400630015
BI00B32BF    TT22051BMW     202203227126-8853-02             TERMINAL                 CCN000015000000015000FN00000000020220501000015000NNM   20220124130432    4P0P  00000750000000562500000847732BF    TTTJYCD 006400630015
BI00B32BF    TT22051BMW     202203227158-3006-90             RUBBER STOPPER           CCN000020000000020000FN00000000020220501000020000NNM   20220124130432    1C0C  00002000000000330600000386032BF    TTTJYCD 002700430014
BI00B32BF    TT22052BMW     202203297158-3006-90             RUBBER STOPPER           CCN000020000000020000FN00000000020220501000020000NNM   20220124130432    1C0C  00002000000000330600000386032BF    TTTJYCD 002700430014
BI00B32BF    TT22051BMW     202203227158-3022-80             RUBBER STOPPER           CCN000005000000005000FN00000000020220501000005000NNM   20220124130432    1C0C  00000500000000467500000524032BF    TTTJYCD 002700430014
BI00B32BF    TT22051BMW     202203227196-0510-02             TERMINAL                 CCN000048000000048000FN00000000020220501000048000NNM   20220124130432    4P0P  00002400000000871200001034632BF    TTTJYCD 002800510028
BI00B32BF    TT22051BMW     202203227283-1140                CONNECTOR HOUSING        CCN000001500000001500FN00000000020220501000001500NNM   20220124130432    4N0N  00000150000000669000000932732BF    TTTJYCD 005600390040
BI00B32BF    TT22051BMW     202203227283-4855                CONNECTOR HOUSING        CCN000007200000007200FN00000000020220501000007200NNM   20220124130432    4N0N  00000240000001188400001400032BF    TTTJYCD 005500360039
BI00B32BF    TT22051BMW     202203227295-0785-02             TERMINAL ALUMINIUM       CCN000025500000025500FN00000000020220501000025500NNM   20220124130432    4P0P  00002550000000510000000803632BF    TTTJYCD 006400630015
BI00B32BF    #TT22051BMW    202203227158-3003-90             RUBBER STOPPER           CCN000020000000020000FN00000000020220501000020000NNM   20220124130425    2C0C  00002000000000250000000306032BF    TTTJYCD 002700430014
BI00B32BF    #TT22051BMW    202203227158-3007-10             RUBBER STOPPER           CCN000020000000020000FN00000000020220501000020000NNM   20220124130425    2H0H  00002000000000308000000362732BF    TTTJYCD 002700430014
BI00B32B1    A22015         202203117114-4032                TERMINAL                 CCN000015000000015000FN00000000020220501000015000NNM   20220124122209B1  4P0P  00000750000000735000001063632B1    AXARNE-M006400630017
BI00B32B1    A22015         202203117158-3166-60             WIRE SEAL                CCN000040000000040000FN00000000020220501000040000NNM   20220124122209B1  1C0C  00004000000000104000000152432B1    AXARNE-M002700430014
BI00B32B1    A22015         202203117158-3167-80             WIRE SEAL                CCN000080000000080000FN00000000020220501000080000NNM   20220124122209B1  1C0C  00002000000000048000000109032B1    AXARNE-M002700430014
BI00B32B1    A22015         202203117158-3168-80             SEALED                   CCN000040000000040000FN00000000020220501000040000NNM   20220124122209B1  1C0C  00002000000000044000000092132B1    AXARNE-M004300260014
BI00B32B1    A22015         202203117158-3169-40             SEALING PLUG             CCN000120000000120000FN00000000020220501000120000NNM   20220124122209B1  1C0C  00004000000000156000000204132B1    AXARNE-M004300260014
BI00B32B1    A22015         202203117282-5553-30             CONNECTOR                CCN000002000000002000FN00000000020220501000002000NNM   20220124122209B1  4N0N  00000100000001010000001187332B1    AXARNE-M005500360039
BI00B32B1    A22015         202203117282-5574-10             CONNECTOR                CCN000001600000001600FN00000000020220501000001600NNM   20220124122209B1  4N0N  00000080000001235000001423032B1    AXARNE-M005600390040
BI00B32B1    A22015         202203117282-6448-40             CONNECTOR                CCN000005600000005600FN00000000020220501000005600NNM   20220124122209B1  4N0N  00000080000000887000001152732B1    AXARNE-M005600390040
BI00B32B1    #A22015        202203117158-3376-50             CONNECTOR WIRE SEAL      CCN000120000000120000FN00000000020220501000120000NNM   20220124122209B1  2C0C  00002000000000184000000240732B1    AXARNE-M002700430014
BI00B32B1    #A22015        202203117282-8395-40             CONNECTOR                CCN000002000000002000FN00000000020220501000002000NNM   20220124122209B1  2N0N  00000100000001009000001188032B1    AXARNE-M005500360039
BI00B32B1    #A22015        202203117283-8226-30             CONNECTOR                CCN000012000000012000FN00000000020220501000012000NNM   20220124122209B1  2N0N  00000200000000820000001008032B1    AXARNE-M005400370024
BI00B32B1    A22010A        202203117158-3169-40             SEALING PLUG             CCN000120000000120000FN00000000020220401000120000NNE   20220124122209B1  1C0C  00004000000000156000000204132B1    AXARNE-M004300260014
BI00B32B1    A22010B        202203117158-3169-40             SEALING PLUG             CCN000120000000120000FN00000000020220401000120000NNE   20220124122209B1  1C0C  00004000000000156000000204132B1    AXARNE-M004300260014
BI00B32B1    A22012B        202203257158-3169-40             SEALING PLUG             CCN000120000000120000FN00000000020220501000120000NNE   20220124122209B1  1C0C  00004000000000156000000204132B1    AXARNE-M004300260014
BI00B32B6    A72015         202203117116-4037                TERMINAL                 CCN000006000000006000FN00000000020220601000006000NNM   20220124122209B6  4P0P  00000600000000600000000894232B6    AXARNE-M006400630015
BI00B32B6    A72015         202203117017-1180-02             TERMINAL                 CCN000144000000144000FN00000000020220601000144000NNM   20220124122209B6  4P0P  00007200000001065600001229032B6    AXARNE-M005100280028
BI00B32B6    A72015         202203117017-1183-02             TERMINAL                 CCN000027000000027000FN00000000020220601000027000NNM   20220124122209B6  4P0P  00002700000001139400001307432B6    AXARNE-M005100280028
BI00B32B6    A72015         202203117116-5045-02             TERMINAL                 CCN000016000000016000FN00000000020220601000016000NNM   20220124122209B6  4P0P  00001600000000678400001007132B6    AXARNE-M006400630017
BI00B32B6    A72015         202203117287-0192-40             SEALED HOUSING ASS'Y     CCN000001440000001440FN00000000020220601000001440NNM   20220124122209B6  4N0N  00000048000001092000001322032B6    AXARNE-M005600390040
BI00B32B6    #A72015        202203117158-3015-10             RUBBER STOPPER           CCN000010000000010000FN00000000020220601000010000NNM   20220124122209B6  2C0C  00001000000000419500000474032B6    AXARNE-M002700430014
BI00B32B7    A82010A        202203117158-3168-80             SEALED                   CCN000020000000020000FN00000000020220501000020000NNE   20220124122209B7  1C0C  00002000000000044000000092132B7    AXARNE-M004300260014
BI00B32B7    A82010A        202203117158-3169-40             SEALING PLUG             CCN000120000000120000FN00000000020220501000120000NNE   20220124122209B7  1C0C  00004000000000156000000204132B7    AXARNE-M004300260014
BI00B32B7    A82010A        202203117282-6448-40             CONNECTOR                CCN000011200000011200FN00000000020220501000011200NNE   20220124122209B7  4N0N  00000080000000887000001152732B7    AXARNE-M005600390040
BI00B32B7    #A82010A       202203117135-7031                GROMMET                  CCN000002100000002100FN00000000020220501000002100NNE   20220124122209B7  2H0H  00000010000000634200000744232B7    AXARNE-M005400370024
BI00B32B7    #A82010A       202203117282-8395-40             CONNECTOR                CCN000003000000003000FN00000000020220501000003000NNE   20220124122209B7  2N0N  00000100000001009000001188032B7    AXARNE-M005500360039
BI00B32B7    #A82010A       202203117283-8397-40             CONNECTOR                CCN000007700000007700FN00000000020220501000007700NNE   20220124122209B7  2N0N  00000154000001007000001222732B7    AXARNE-M005600390023
BI00B32B7    #A82010A       202203117283-8398-40             CONNECTOR                CCN000086240000086240FN00000000020220501000086240NNE   20220124122209B7  2N0N  00000154000001007000001171332B7    AXARNE-M005600390023
BI00B32B7    A82015         202203117158-3166-60             WIRE SEAL                CCN000040000000040000FN00000000020220601000040000NNM   20220124122209B7  1C0C  00004000000000104000000152432B7    AXARNE-M002700430014
BI00B32B7    A82015         202203117158-3167-80             WIRE SEAL                CCN000040000000040000FN00000000020220601000040000NNM   20220124122209B7  1C0C  00002000000000048000000109032B7    AXARNE-M002700430014
BI00B32B7    A82015         202203117158-3168-80             SEALED                   CCN000060000000060000FN00000000020220601000060000NNM   20220124122209B7  1C0C  00002000000000044000000092132B7    AXARNE-M004300260014
BI00B32B7    A82015         202203117158-3169-40             SEALING PLUG             CCN000080000000080000FN00000000020220601000080000NNM   20220124122209B7  1C0C  00004000000000156000000204132B7    AXARNE-M004300260014
BI00B32B7    A82015         202203117282-6448-40             CONNECTOR                CCN000011200000011200FN00000000020220601000011200NNM   20220124122209B7  4N0N  00000080000000887000001152732B7    AXARNE-M005600390040
BI00B32B7    #A82015        202203117135-7031                GROMMET                  CCN000002100000002100FN00000000020220601000002100NNM   20220124122209B7  2H0H  00000010000000634200000744232B7    AXARNE-M005400370024
BI00B32B7    #A82015        202203117158-3376-50             CONNECTOR WIRE SEAL      CCN000040000000040000FN00000000020220601000040000NNM   20220124122209B7  2C0C  00002000000000184000000240732B7    AXARNE-M002700430014
BI00B32B7    #A82015        202203117282-8395-40             CONNECTOR                CCN000003000000003000FN00000000020220601000003000NNM   20220124122209B7  2N0N  00000100000001009000001188032B7    AXARNE-M005500360039
BI00B32B7    #A82015        202203117283-8397-40             CONNECTOR                CCN000007700000007700FN00000000020220601000007700NNM   20220124122209B7  2N0N  00000154000001007000001222732B7    AXARNE-M005600390023
BI00B32B7    #A82015        202203117283-8398-40             CONNECTOR                CCN000003080000003080FN00000000020220601000003080NNM   20220124122209B7  2N0N  00000154000001007000001171332B7    AXARNE-M005600390023
BI00B32CJ    #JQN2023       202202047172-5629-80             RUBBER STOPPER           CCN000120000000120000FN00000000020220201000120000NNM00020220124154855    2H0H  00002000000000060000000111132CJ    QNYHVQN 004300270014
BI00B32DE    #TCT2031       202202107172-5629-80             RUBBER STOPPER           CCN000020000000020000FN00000000020220301000020000NNM00020220124151305    2H0H  00002000000000060000000111132DE    TVYEV-TV004300270014
BI00B32DE    #TCTL2031      202202247125-3236-30             HEAD LAMP CONNECTOR      CCN000002800000002800FN00000000020220301000002800NNMD0020220124151332    2F0F  00000280000000945000001085932DE    TVYEV-TV005500360039
BI00B32DE    #TCTL2031      202202247158-3004-40             RUBBER STOPPER           CCN000020000000020000FN00000000020220301000020000NNMD0020220124151352    2C0C  00002000000000234000000306332DE    TVYEV-TV002700430014
BI00B32DE    #TCTL2031      202202247158-3017                RUBBER STOPPER           CCN000010000000010000FN00000000020220301000010000NNMD0020220124151415    2C0C  00001000000000375500000435032DE    TVYEV-TV002700430014
BI00B32DE    #TCTL2031      202202247183-2412                HOUSING                  CCN000001600000001600FN00000000020220301000001600NNMD0020220124151442    2F0F  00000160000001059200001245632DE    TVYEV-TV005500360039
BI00B32DG    RP2033A        202202247017-1180-02             TERMINAL                 CCN000072000000072000FN00000000020220301000072000NNE   20220124122209    4P0P  00007200000001065600001229032DG    BFSAIBF 005100280028
BI00B32DG    @RP2033A       202202247282-1040                HOUSING SUB ASSEMBLY     CCN000002400000002400FN00000000020220301000002400NNE   20220124122209    3N0N  00000240000001014400001256032DG    BFSAIBF 005500360039
BI00A32DJ    GHT2112B 1     202201217289-3342-30             HOUSING FEMALE ASS'Y     PCN000004800000004800FY00000480020211201000000000NNM00020220124133750    1N0N  00000240000000686400000901432DJ    RBYIPLRB005500360039
BI00A32D2    DGTC2207       202202037288-6547                CONNECTOR MALE ASS'Y     CCN000003000000003000FN00000000020220201000003000NNMM0020220124163934    4N0N  00000075000001205300001340332D2    TGYOT-G 005400370024
BI00A32D2    DGTC2213       202202037288-6547                CONNECTOR MALE ASS'Y     CCN000010500000010500FN00000000020220401000010500NNMM0020220124163947    4N0N  00000075000001205300001340332D2    TGYOT-G 005400370024
BI00B32D4    4513144932     202202157116-4415-02             TERMINAL                 CCN000038000000038000FN00000000020220201000038000NNE   20220124145238    4P0P  00003800000000596600000925732D4    YRYRL   006400630017
BI00B32D4    #4513144932    202202157047-5344                RETAINER                 CCN000010000000010000FN00000000020220201000010000NNE   20220124145240    2F0F  00001000000000870000001016032D4    YRYRL   005600390023
BI00A32EJ    4500174466     202202027288-6547                CONNECTOR MALE ASS'Y     CCN000050250000010500FN00000000020211001000010500NNE00020220124122209EJ  4N0N  00000075000001205300001340332EJ    EJYKBO  005400370024
BI00A32EJ    T211223P02     202202037114-4100-02             TERMINAL                 CCN000018000000018000FN00000000020220201000018000NNEM0020220124135046EJ  4P0P  00001800000000748800001077432EJ    EJYKBO  006400630017
BI00A32EJ    T211223P02     202202037116-2951-02             TERMINAL                 CCN000005400000005400FN00000000020220201000005400NNEM0020220124135046EJ  4P0P  00000540000000817600001111832EJ    EJYKBO  006400630015
BI00A32EJ    T211229P01     202202037116-4112-02             TERMINAL                 CCN000078000000078000FN00000000020220201000078000NNEM0020220124135046EJ  4P0P  00000600000000450000000738232EJ    EJYKBO  006400630015
BI00B32EJ    T220121P03     202203037158-3070-80             RUBBER STOPPER           CCN000280000000280000FN00000000020220301000280000NNE   20220124122209EJ  1C0C  00004000000000276000000333332EJ    EJYKBO  002700430014
BI00B32EJ    T220121P03     202203037B58-3070-80             RUBBER STOPPER           CCN000040000000040000FN00000000020220301000040000NNE   20220124122209EJ  1C0C  00004000000000276000000333032EJ    EJYKBO  004300270014
BI00B32EJ    #T220121P03    202203037158-3121-80             WIRE SEAL                CCN000040000000040000FN00000000020220301000040000NNE   20220124122209EJ  2C0C  00002000000000118000000187332EJ    EJYKBO  002700430014
BI00B32EJ    #T220121P03    202203037283-8397-40             CONNECTOR                CCN000001540000001540FN00000000020220301000001540NNE   20220124122209EJ  2N0N  00000154000001007000001222732EJ    EJYKBO  005600390023
BI00B32EJ    #T220121P03    202203037283-8398-40             CONNECTOR                CCN000021560000021560FN00000000020220301000021560NNE   20220124122209EJ  2N0N  00000154000001007000001171332EJ    EJYKBO  005600390023
BI00B32EJ    #T220121P03    202203037157-3950-80             SEAL RUBBER              CCN000080000000080000FN00000000020220301000080000NNE   20220124122209EJ  2C0C  00004000000000154000000440332EJ    EJYKBO  002700430014
BI00B32EJ    #T220121P03    202203037157-7812                SEAL RUBBER              CCN000010000000010000FN00000000020220301000010000NNE   20220124122209EJ  2C0C  00001000000000137000000202032EJ    EJYKBO  002700430014
BI00B32EJ    T220121P04     202203037158-3070-80             RUBBER STOPPER           CCN000080000000080000FN00000000020220301000080000NNE   20220124122209EJ  1C0C  00004000000000276000000333332EJ    EJYKBO  002700430014
BI00B32EJ    T220121P04     202203037283-1020                CONNECTOR                CCN000048000000048000FN00000000020220301000048000NNE   20220124122209EJ  4N0N  00000600000000840000001049332EJ    EJYKBO  005600390040
BI00B32EJ    #T220121P04    202203037123-6423-30             CONNECTOR                CCN000012000000012000FN00000000020220301000012000NNE   20220124122209EJ  2F0F  00000200000001002000001167632EJ    EJYKBO  005600390023
BI00B32EJ    #T220121P04    202203037157-3821                RUBBER STOPPER           CCN000020000000020000FN00000000020220301000020000NNE   20220124122209EJ  2C0C  00002000000000176000000238032EJ    EJYKBO  002700430014
BI00B32EJ    #T220121P04    202203037283-8398-40             CONNECTOR                CCN000015400000015400FN00000000020220301000015400NNE   20220124122209EJ  2N0N  00000154000001007000001171332EJ    EJYKBO  005600390023
BI00B32EJ    T220121P05     202203037158-3168-80             SEALED                   CCN000380000000380000FN00000000020220301000380000NNE   20220124122209EJ  1C0C  00002000000000044000000092132EJ    EJYKBO  004300260014
BI00B32EJ    T220121P05     202203037114-4110-02             TERMINAL                 CCN000015000000015000FN00000000020220301000015000NNE   20220124122209EJ  4P0P  00001500000000901500001230132EJ    EJYKBO  006400630017
BI00B32EJ    T220121P05     202203037116-4022                TERMINAL                 CCN000067500000067500FN00000000020220301000067500NNE   20220124122209EJ  4P0P  00001350000000618300000903532EJ    EJYKBO  006400630015
BI00B32EJ    T220121P05     202203037116-4121-02             TERMINAL                 CCN000045000000045000FN00000000020220301000045000NNE   20220124122209EJ  4P0P  00000450000000618800000912432EJ    EJYKBO  006400630015
BI00B32EJ    T220121P05     202203037116-4122-02             TERMINAL                 CCN000090000000090000FN00000000020220301000090000NNE   20220124122209EJ  4P0P  00000450000000656600000950232EJ    EJYKBO  006400630015
BI00B32EJ    T220121P05     202203037283-5843                CONNECTOR                CCN000001500000001500FN00000000020220301000001500NNE   20220124122209EJ  1N0N  00000150000000889000001132032EJ    EJYKBO  005600390040
BI00B32EJ    T220121P01     202202177116-1231                TERMINAL                 CCN000216000000216000FN00000000020220201000216000NNE   20220124122209EJ  4P0P  00001200000000633600000921832EJ    EJYKBO  006400630015
BI00B32EJ    T220121P02     202203037116-4101-02             TERMINAL                 CCN000024000000024000FN00000000020220301000024000NNE   20220124122209EJ  4P0P  00001200000000582000000876232EJ    EJYKBO  006400630015
BI00B32G2    #SA22024JMW    202202027287-9155                HOUSING FEMALE ASS'Y     CCN000000960000000960FN00000000020220201000000960NNMD0320220124154310    2N0N  00000096000000853700001045232G2    AISUAI  005400370024
BI00B32G2    SA22023 MW     202201197289-3342-30             HOUSING FEMALE ASS'Y     CCN000040800000012000FY00001200020220201000000000NNMD0420220124154845    1N0N  00000240000000686400000901432G2    AISUAI  005500360039
BI00A32G2    SA22023 MW     202202017289-3342-30             HOUSING FEMALE ASS'Y     PCN000028800000028800FN00000000020220201000028800NNMD0420220124154845    1N0N  00000240000000686400000901432G2    AISUAI  005500360039
BI00A32G7    #JJ22013MMW    202201317172-5630-40             RUBBER STOPPER           PCN000300000000300000FN00000000020220101000300000NNM00020220124154942    2H0H  00002000000000044000000095132G7    JIJAI   004300270014
BI00B32G8    PATA2031C      202202167470-5237                J/B ASS'Y                CCN000000024000000024FN00000000020220301000000024NNE   20220124122209    1J0J  00000002400001320000001570032G8    PSPASI  005500360039
BI00A32H2    TIJ201R        202201267289-3342-30             HOUSING FEMALE ASS'Y     CCN000067200000033600FN00000000020220101000033600NNED0420220124134950    1N0N  00000240000000686400000901432H2    HVYHV   005500360039
BI00A32H2    QA-22-S004     202201257158-3070-80             RUBBER STOPPER           PNN000080000000240000FY00024000020220101000000000NNE00020220124154739    1C0C  00004000000000276000000333332H2    HVYHV   002700430014
BI00A32H2    TIJ201R        202202027289-3342-30             HOUSING FEMALE ASS'Y     CCN000033600000033600FN00000000020220101000033600NNED0420220124122209    1N0N  00000240000000686400000901432H2    HVYHV   005500360039
BI00A32J1    #390382        202201257283-8226-30             CONNECTOR                CCN000004000000004000FN00000000020220201000004000NNM00020220124151923    2N0N  00000200000000820000001008032J1    UKYEL-BL005400370024
BI00A32J1    390738         202202077114-4030                TERMINAL                 CCN000010500000010500FN00000000020220101000010500NNED0720220124122209    4P0P  00001050000000926100001254732J1    UKYEL-BL006400630017
BI00B32J1    390739         202203077114-1475                TERMINAL                 CCN000013500000013500FN00000000020220301000013500NNE   20220124122209    4P0P  00001350000000480600000774232J1    UKYEL-BL006400630015
BI00A32M3    SM22021DMW     202201317172-5403-30             SEALED PACKING           PCN000072000000072000FN00000000020220201000072000NNM00020220124134809    1C0C  00000400000000653600000701732M3    SASAMI  004300270014
BI00A32M3    SM22022DMW     202202077172-5403-30             SEALED PACKING           PCN000064000000064000FN00000000020220201000064000NNM00020220124122209    1C0C  00000400000000653600000701732M3    SASAMI  004300270014
BI00A32M4    #TL2022        202202147172-5629-80             RUBBER STOPPER           PCN000380000000380000FN00000000020220201000380000NNM00020220124122209    2H0H  00002000000000060000000111132M4    SISAI   004300270014
BI00A32M4    #TL2022        202202077172-5630-40             RUBBER STOPPER           PCN000060000000060000FN00000000020220201000060000NNM00020220124122209    2H0H  00002000000000044000000095132M4    SISAI   004300270014
BI00A32M4    #TL2023        202202077172-5630-40             RUBBER STOPPER           PCN000040000000040000FN00000000020220201000040000NNMM0020220124122209    2H0H  00002000000000044000000095132M4    SISAI   004300270014
BI00B32M4    TP2021         202201087289-3342-30             HOUSING FEMALE ASS'Y     CCN000038400000009600FY00000960020220201000000000NNM00020220124114414    1N0N  00000240000000686400000901432M4    SISAI   005500360039
BI00B32M4    #TL2033A       202202247172-5628-80             DUMMY PLUG               CCN000020000000020000FN00000000020220301000020000NNE   20220124122209    2H0H  00002000000000110600000162032M4    SISAI   004300270014
BI00B32M4    TP2033B        202202247114-5746-02             TERMINAL                 CCN000021000000021000FN00000000020220301000021000NNE   20220124122209    4P0P  00002100000000695100000988732M4    SISAI   006400630015
BI00B32M4    TP2033B        202202247116-4415-02             TERMINAL                 CCN000038000000038000FN00000000020220301000038000NNE   20220124122209    4P0P  00003800000000596600000925732M4    SISAI   006400630017
BI00B32M4    TP2033B        202202247327-6990-30             MULTI FUSE               CCN000000560000000560FN00000000020220301000000560NNE   20220124122209    4NON  00000056000000724000000907032M4    SISAI   005400370024
BI00A32M4    TP2021         202202047289-3342-30             HOUSING FEMALE ASS'Y     PCN000028800000028800FN00000000020220201000028800NNM00020220124134707    1N0N  00000240000000686400000901432M4    SISAI   005500360039
BI00B32N2    2152103772     202202177114-4020                TERMINAL                 CCN000126000000126000FN00000000020220401000126000NNM   20220124142530    4P0P  00002100000000875700001169332N2    YWYIPLTC006400630015
BI00B32N2    2152103772     202202177114-4021                TERMINAL                 CCN000015000000015000FN00000000020220401000015000NNM   20220124142530    4P0P  00001500000000670500000964132N2    YWYIPLTC006400630015
BI00B32N2    2152103772     202202177114-4032                TERMINAL                 CCN000007500000007500FN00000000020220401000007500NNM   20220124142530    4P0P  00000750000000735000001063632N2    YWYIPLTC006400630017
BI00B32N2    2152103772     202202177116-1471                TERMINAL                 CCN000015000000015000FN00000000020220401000015000NNM   20220124142530    4P0P  00001500000000579000000867232N2    YWYIPLTC006400630015
BI00B32N2    2152103772     202202177116-4020                TERMINAL                 CCN000283500000283500FN00000000020220401000283500NNM   20220124142530    4P0P  00001350000000513000000798232N2    YWYIPLTC006400630015
BI00B32N2    2152103772     202202177116-4022                TERMINAL                 CCN000013500000013500FN00000000020220401000013500NNM   20220124142530    4P0P  00001350000000618300000903532N2    YWYIPLTC006400630015
BI00B32N2    2152103772     202202177116-4025                TERMINAL                 CCN000016000000016000FN00000000020220401000016000NNM   20220124142530    4P0P  00001600000000644800000975132N2    YWYIPLTC006400630017
BI00B32N2    2152103772     202202177116-4026                TERMINAL                 CCN000032000000032000FN00000000020220401000032000NNM   20220124142530    4P0P  00001600000000664000000994332N2    YWYIPLTC006400630017
BI00B32N2    2152103772     202202177116-4032                TERMINAL                 CCN000024000000024000FN00000000020220401000024000NNM   20220124142530    4P0P  00000600000000532800000818032N2    YWYIPLTC006400630015
BI00B32N2    2152103772     202202177183-2417                CONNECTOR HOUSING        CCN000002400000002400FN00000000020220401000002400NNM   20220124142530    4F0F  00000240000001137400001297732N2    YWYIPLTC005500360039
BI00B32N2    2152103772     202202177283-5845                CONNECTOR HOUSING        CCN000006000000006000FN00000000020220401000006000NNM   20220124142530    1N0N  00000600000000444000000606332N2    YWYIPLTC005400370024
BI00B32N2    2152103772     202202177283-5846                HOUSING                  CCN000001500000001500FN00000000020220401000001500NNM   20220124142530    1N0N  00000150000000885000001102032N2    YWYIPLTC005600390040
BI00B32N2    2152103772     202202177286-3970                CONNECTOR HOUSING        CCN000001320000001320FN00000000020220401000001320NNM   20220124142530    1N0N  00000011000000977300001164032N2    YWYIPLTC005500360039
BI00B32N2    2152103772     202202177370-0309                J/B ASS'Y                CCN000001248000001248FN00000000020220401000001248NNM   20220124142530    1J0J  00000001600000870400001260032N2    YWYIPLTC005500360039
BI00B32N2    2152103772     202202177370-0310                J/B ASS'Y                CCN000001200000001200FN00000000020220401000001200NNM   20220124142530    1J0J  00000001000000559000000809032N2    YWYIPLTC005500360039
BI00B32N2    2152103772     202202177114-4231-02             TERMINAL                 CCN000054000000054000FN00000000020220401000054000NNM   20220124142530    4P0P  00001800000000554400000848032N2    YWYIPLTC006400630015
BI00B32N2    2152103772     202202177116-2891-02             TERMINAL                 CCN000030000000030000FN00000000020220401000030000NNM   20220124142530    4P0P  00001500000000982500001145932N2    YWYIPLTC005100280028
BI00B32N2    2152103772     202202177116-2893-02             TERMINAL                 CCN000024000000024000FN00000000020220401000024000NNM   20220124142530    4P0P  00001200000000895200001058632N2    YWYIPLTC005100280028
BI00B32N2    2152103772     202202177116-4231-02             TERMINAL                 CCN000104000000104000FN00000000020220401000104000NNM   20220124142530    4P0P  00002600000000683800001012532N2    YWYIPLTC006400630017
BI00B32N2    2152103772     202202177126-8853-02             TERMINAL                 CCN000007500000007500FN00000000020220401000007500NNM   20220124142530    4P0P  00000750000000562500000847732N2    YWYIPLTC006400630015
BI00B32N2    2152103772     202202177126-8854-02             TERMINAL                 CCN000007500000007500FN00000000020220401000007500NNM   20220124142530    4P0P  00000750000000604500000889732N2    YWYIPLTC006400630015
BI00B32N2    2152103772     202202177140-1977-30             UPPER COVER              CCN000001280000001280FN00000000020220401000001280NNM   20220124142530    1F0F  00000001000000099500000249532N2    YWYIPLTC005600390040
BI00B32N2    2152103772     202202177158-3006-90             RUBBER STOPPER           CCN000020000000020000FN00000000020220401000020000NNM   20220124142530    1C0C  00002000000000330600000386032N2    YWYIPLTC002700430014
BI00B32N2    2152103772     202202177116-1687-02             TERMINAL FEMALE          CCN000008000000024000FN00000000020220401000024000NNM   20220124142530    4P0P  00002400000000303200000909632N2    YWYIPLTC005100280028
BI00B32N2    #2152103772    202202177116-4021                TERMINAL                 CCN000067500000067500FN00000000020220301000067500NNM   20220124142523    2F0P  00001350000000534600000868832N2    YWYIPLTC006400630015
BI00B32N2    #2152103772    202202177157-3821                RUBBER STOPPER           CCN000040000000040000FN00000000020220301000040000NNM   20220124142523    2C0C  00002000000000176000000238032N2    YWYIPLTC002700430014
BI00B32N2    #2152103772    202202177173-1070                CONNECTOR BRACKET        CCN000001200000001200FN00000000020220301000001200NNM   20220124142523    2F0F  00000120000000592400000968332N2    YWYIPLTC005500360039
BI00B32N2    #2152103772    202202177173-1071                BRACKET                  CCN000001200000001200FN00000000020220301000001200NNM   20220124142523    2F0F  00000120000001156800001388232N2    YWYIPLTC005600390040
BI00B32N2    #2152103772    202202177173-1516                SIDE BRACKET             CCN000001200000001200FN00000000020220301000001200NNM   20220124142523    2F0F  00000060000000960000001090032N2    YWYIPLTC005500360039
BI00B32N2    #2152103772    202202177174-0152                CONNECTOR                CCN000001050000001050FN00000000020220301000001050NNM   20220124142523    2F0F  00000035000000746400000918632N2    YWYIPLTC005500360039
BI00B32N2    #2152103772    202202177183-2412                HOUSING                  CCN000001600000001600FN00000000020220301000001600NNM   20220124142523    2F0F  00000160000001059200001245632N2    YWYIPLTC005500360039
BI00B32N2    #2152103772    202202177183-2511                HOUSING                  CCN000001600000001600FN00000000020220301000001600NNM   20220124142523    2F0F  00000160000000972200001242132N2    YWYIPLTC005500360039
BI00B32N2    #2152103772    202202177183-6320                HOUSING                  CCN000004800000004800FN00000000020220301000004800NNM   20220124142523    2F0F  00000480000000820800001103632N2    YWYIPLTC005500360039
BI00B32N2    #2152103772    202202177186-3971                CONNECTOR HOUSING        CCN000002400000002400FN00000000020220301000002400NNM   20220124142523    2F0F  00000240000001002200001191432N2    YWYIPLTC005500360039
BI00B32N2    #2152103772    202202177187-3356                JOINT CONNECTOR          CCN000009600000009600FN00000000020220301000009600NNM   20220124142523    2F0F  00000120000000759600001024432N2    YWYIPLTC005600390040
BI00B32N2    #2152103772    202202177187-3360                JOINT CONNECTOR          CCN000007200000007200FN00000000020220301000007200NNM   20220124142523    2F0F  00000120000000759600001026832N2    YWYIPLTC005600390040
BI00B32N2    #2152103772    202202177187-3970                CONNECTOR FLAME          CCN000001104000001104FN00000000020220301000001104NNM   20220124142523    2F0F  00000036800001414000001737332N2    YWYIPLTC005600390040
BI00B32N2    #2152103772    202202177187-3971                CONNECTOR HOUSING        CCN000002400000002400FN00000000020220301000002400NNM   20220124142523    2F0F  00000240000000928300001099532N2    YWYIPLTC005500360039
BI00B32N2    #2152103772    202202177187-3973                CONNECTOR HOUSING        CCN000002400000002400FN00000000020220301000002400NNM   20220124142523    2F0F  00000240000000901900001073132N2    YWYIPLTC005500360039
BI00B32N2    #2152103772    202202177282-3020                CONNECTOR                CCN000001000000001000FN00000000020220301000001000NNM   20220124142523    2N0N  00000100000000984000001145432N2    YWYIPLTC005500360039
BI00B32N2    #2152103772    202202177140-1978-30             LOWER COVER              CCN000001216000001216FN00000000020220301000001216NNM   20220124142523    2F0F  00000000800000207100000395132N2    YWYIPLTC005500360039
BI00B32N2    #2152103772    202202177183-7725-40             HOUSING                  CCN000006000000006000FN00000000020220301000006000NNM   20220124142523    2F0F  00000600000000840000001040032N2    YWYIPLTC005600390040
BI00B32N2    #2152103772    202202177186-3974-30             CONNECTOR HOUSING        CCN000002400000002400FN00000000020220301000002400NNM   20220124142523    2F0F  00000240000001062200001233432N2    YWYIPLTC005500360039
BI00B32N2    #2152103772    202202177186-3975-80             CONNECTOR HOUSING        CCN000002400000002400FN00000000020220301000002400NNM   20220124142523    2F0F  00000240000001065100001236332N2    YWYIPLTC005500360039
BI00B32N2    #2152103772    202202177187-3358-30             JOINT CONNECTOR          CCN000001200000001200FN00000000020220301000001200NNM   20220124142523    2F0F  00000120000000673200000940432N2    YWYIPLTC005600390040
BI00B32N2    #2152103772    202202177187-3974-30             CONNECTOR HOUSING        CCN000002400000002400FN00000000020220301000002400NNM   20220124142523    2F0F  00000240000000907400001078632N2    YWYIPLTC005500360039
BI00B32N2    #2152103772    202202177187-3975-80             CONNECTOR HOUSING        CCN000002400000002400FN00000000020220301000002400NNM   20220124142523    2F0F  00000240000000915800001087032N2    YWYIPLTC005500360039
BI00B32N2    #2152103772    202202177187-3976-60             CONNECTOR HOUSING        CCN000002400000002400FN00000000020220301000002400NNM   20220124142523    2F0F  00000240000000902200001073332N2    YWYIPLTC005500360039
BI00B32N2    @2152103772    202202177183-3190                JOINT CONNECTOR          CCN000010800000010800FN00000000020220401000010800NNM   20220124142527    3F0F  00000360000000457600000667832N2    YWYIPLTC005500360039
BI00B32N2    @2152103772    202202177283-1100                CONNECTOR ASS'Y          CCN000003200000003200FN00000000020220401000003200NNM   20220124142527    3N0N  00000160000000566500000799632N2    YWYIPLTC005500360039
BI00B32P8    TAPI-2042      202203237470-5303                J/B COMPLETE ASS'Y       CCN000000650000000650FN00000000020220401000000650NNMD0220220124122209    4J0J  00000001000000494000000661032P8    YIYTM   005400370024
BI00B32P8    TAPI-2043      202203307470-5303                J/B COMPLETE ASS'Y       CCN000000650000000650FN00000000020220401000000650NNMD0220220124122209    4J0J  00000001000000494000000661032P8    YIYTM   005400370024
BI00B32P8    TAPI-2044      202204067470-5303                J/B COMPLETE ASS'Y       CCN000000650000000650FN00000000020220401000000650NNMD0220220124122209    4J0J  00000001000000494000000661032P8    YIYTM   005400370024
BI00A32P8    #TAPI-201C     202201267187-3356                JOINT CONNECTOR          CCN000001200000001200FN00000000020220101000001200NNE   20220124131256    2F0F  00000120000000759600001024432P8    YIYTM   005600390040
BI00A32P8    #TAPI-201C     202201267282-3020                CONNECTOR                CCN000001000000001000FN00000000020220101000001000NNE   20220124131256    2N0N  00000100000000984000001145432P8    YIYTM   005500360039
BI00A32Q8    EU2201CTMW     202201257327-6950-30             MULTI FUSE               CCN000000864000000576FN00000000020220101000000576NNEM0020220124135222    4N00  00000028800000888700001054632Q8    EMEMI   005400370024
BI00A32Q8    EU2201CTMW     202201317327-6952-30             MULTI FUSE               CCN000001120000000560FN00000000020220101000000560NNEM0020220124135222    4N0N  00000056000000848500001031532Q8    EMEMI   005400370024
BI00A32Q8    EU2202ATMW     202201317327-6950-30             MULTI FUSE               CCN000000576000000576FN00000000020220201000000576NNEM0020220124135222    4N00  00000028800000888700001054632Q8    EMEMI   005400370024
BI00A32Q8    EU2202ATMW     202201317327-6952-30             MULTI FUSE               CCN000000560000000560FN00000000020220201000000560NNEM0020220124135222    4N0N  00000056000000848500001031532Q8    EMEMI   005400370024
BI00A32Q8    EU2202ATMW     202201257327-6954-30             MULTI FUSE               CCN000000600000000600FN00000000020220201000000600NNEM0020220124135222    4N00  00000060000000751600000954332Q8    EMEMI   005400370024
BI00B32Q8    EU2202BTMW     202202157327-6950-30             MULTI FUSE               CCN000001152000000576FN00000000020220201000000576NNED0420220124122209    4N00  00000028800000888700001054632Q8    EMEMI   005400370024
BI00B32Q8    EU2202BTMW     202202167327-6952-30             MULTI FUSE               CCN000001120000000560FN00000000020220201000000560NNED0420220124122209    4N0N  00000056000000848500001031532Q8    EMEMI   005400370024
BI00A32Q8    EU2202BTMW     202201257327-6954-30             MULTI FUSE               CCN000001200000001200FN00000000020220201000001200NNEM0020220124135222    4N00  00000060000000751600000954332Q8    EMEMI   005400370024
BI00A32Q8    EU2202CTMW     202201317327-6949-30             MULTI FUSE               CCN000000288000000288FN00000000020220201000000288NNEM0020220124135222    4N00  00000028800000886700001052632Q8    EMEMI   005400370024
BI00A32Q8    EU2202DTMW     202201317327-6949-30             MULTI FUSE               CCN000000576000000576FN00000000020220201000000576NNEM0020220124135222    4N00  00000028800000886700001052632Q8    EMEMI   005400370024
BI00B32Q8    EU2201FTMW     202202237327-6954-30             MULTI FUSE               CCN000001200000000600FN00000000020220101000000600NNED0420220124122209    4N00  00000060000000751600000954332Q8    EMEMI   005400370024
BI00A32Q8    EU2202FTMW     202201317327-6949-30             MULTI FUSE               CCN000000864000000864FN00000000020220201000000864NNEM0020220124135222    4N00  00000028800000886700001052632Q8    EMEMI   005400370024
BI00A32Q8    EU2202GTMW     202201317327-6949-30             MULTI FUSE               CCN000000288000000288FN00000000020220201000000288NNEM0020220124135222    4N00  00000028800000886700001052632Q8    EMEMI   005400370024
BI00A32Q8    EU2202JTMW     202201257327-6950-30             MULTI FUSE               CCN000000864000000864FN00000000020220201000000864NNEM0020220124135222    4N00  00000028800000888700001054632Q8    EMEMI   005400370024
BI00A32Q8    EU2202KTMW     202201257327-6952-30             MULTI FUSE               CCN000000560000000560FN00000000020220201000000560NNEM0020220124135222    4N0N  00000056000000848500001031532Q8    EMEMI   005400370024
BI00A32Q8    EU2202LTMW     202201317327-6950-30             MULTI FUSE               CCN000000864000000864FN00000000020220201000000864NNEM0020220124135222    4N00  00000028800000888700001054632Q8    EMEMI   005400370024
BI00A32Q8    EU2202MTMW     202201257327-6949-30             MULTI FUSE               CCN000000576000000576FN00000000020220201000000576NNEM0020220124135222    4N00  00000028800000886700001052632Q8    EMEMI   005400370024
BI00A32Q8    EU2203CTMW     202201317327-6952-30             MULTI FUSE               CCN000000560000000560FN00000000020220301000000560NNEM0020220124135222    4N0N  00000056000000848500001031532Q8    EMEMI   005400370024
BI00B32Q8    QA-21-C134     202201267289-3342                HOUSING FEMALE ASS'Y     PNY000009115000009115FN00000000020220101000009115NNEM0020220124164332    1N0N  00000240000000686400000901432Q8    EMEMI   005500360039
BI00B32Q8    EU2202PTMW     202203027327-6949-30             MULTI FUSE               CCN000002880000002880FN00000000020220201000002880NNED0420220124122209    4N00  00000028800000886700001052632Q8    EMEMI   005400370024
BI00B32Q8    EU2202QTMW     202203027327-6950-30             MULTI FUSE               CCN000003456000003456FN00000000020220201000003456NNED0420220124122209    4N00  00000028800000888700001054632Q8    EMEMI   005400370024
BI00B32Q8    EU2202QTMW     202203027327-6952-30             MULTI FUSE               CCN000002240000002240FN00000000020220201000002240NNED0420220124122209    4N0N  00000056000000848500001031532Q8    EMEMI   005400370024
BI00B32Q8    EU2202QTMW     202203027327-6954-30             MULTI FUSE               CCN000003000000003000FN00000000020220201000003000NNED0420220124122209    4N00  00000060000000751600000954332Q8    EMEMI   005400370024
BI00A32Q8    EU2202BTMW     202201317327-6950-30             MULTI FUSE               CCN000000576000000576FN00000000020220201000000576NNEM0020220124135222    4N00  00000028800000888700001054632Q8    EMEMI   005400370024
BI00A32Q8    EU2202BTMW     202201317327-6952-30             MULTI FUSE               CCN000000560000000560FN00000000020220201000000560NNEM0020220124135222    4N0N  00000056000000848500001031532Q8    EMEMI   005400370024
BI00A32Q8    EU2201FTMW     202201257327-6954-30             MULTI FUSE               CCN000000600000000600FN00000000020220101000000600NNED0420220124135222    4N00  00000060000000751600000954332Q8    EMEMI   005400370024
BI00B32Q8    QA-21-C134     202201277289-3342                HOUSING FEMALE ASS'Y     PNY000002400000002400FN00000000020220101000002400NNED0020220124165631    1N0N  00000240000000686400000901432Q8    EMEMI   005500360039
BI00B32R7    R-TAP220029    202202107158-3167-80             WIRE SEAL                CCN000040000000040000FN00000000020220201000040000NNE   20220124122209    1C0C  00002000000000048000000109032R7    IVYCIC  002700430014
BI00B32R7    R-TAP220029    202202107158-3169-40             SEALING PLUG             CCN000080000000080000FN00000000020220201000080000NNE   20220124122209    1C0C  00004000000000156000000204132R7    IVYCIC  004300260014
BI00B32R7    R-TAP220029    202202107289-9553-50             SEALED ASSY FEMALE       CCN000020580000020580FN00000000020220201000020580NNE   20220124122209    4N0N  00000294000001108100001520632R7    IVYCIC  005500360039
BI00B32R7    #R-TAP220032   202202107114-4022                TERMINAL                 CCN000015000000015000FN00000000020220201000015000NNE   20220124122209    2F0P  00001500000000708000001120632R7    IVYCIC  006400630015
BI00B32R7    #R-TAP220032   202202107186-8845-60             HOUSING MALE             CCN000009000000009000FN00000000020220201000009000NNE   20220124122209    2F0F  00000300000000690000000801532R7    IVYCIC  005400370024
BI00B32R8    TT22051AMW     202203227017-1180-02             TERMINAL                 CCN000072000000072000FN00000000020220501000072000NNM   20220124130139    4P0P  00007200000001065600001229032R8    TTTJY   005100280028
BI00B32R8    TT22051AMW     202203227116-1180                TERMINAL                 CCN000019500000019500FN00000000020220501000019500NNM   20220124130139    1P0P  00001950000000618200000903432R8    TTTJY   006400630015
BI00B32R8    TT22051AMW     202203227116-4028-08             TERMINAL FEMALE          CCN000016000000016000FN00000000020220501000016000NNM   20220124130139    4P0P  00001600000000652800000981532R8    TTTJY   006400630017
BI00B32R8    TT22051AMW     202203227116-5045-02             TERMINAL                 CCN000016000000016000FN00000000020220501000016000NNM   20220124130139    4P0P  00001600000000678400001007132R8    TTTJY   006400630017
BI00B32R8    TT22051AMW     202203227126-8853-02             TERMINAL                 CCN000015000000015000FN00000000020220501000015000NNM   20220124130139    4P0P  00000750000000562500000847732R8    TTTJY   006400630015
BI00B32R8    TT22051AMW     202203227158-3006-90             RUBBER STOPPER           CCN000100000000100000FN00000000020220501000100000NNM   20220124130139    1C0C  00002000000000330600000386032R8    TTTJY   002700430014
BI00B32R8    TT22051AMW     202203227283-1140                CONNECTOR HOUSING        CCN000001500000001500FN00000000020220501000001500NNM   20220124130139    4N0N  00000150000000669000000932732R8    TTTJY   005600390040
BI00B32R8    TT22051AMW     202203227283-1156                CONNECTOR                CCN000000800000000800FN00000000020220501000000800NNM   20220124130139    4N0N  00000080000000877600001078032R8    TTTJY   005600390040
BI00B32R8    TT22051AMW     202203227283-1289-10             CONNECTOR HOUSING        CCN000001200000001200FN00000000020220501000001200NNM   20220124130139    1N0N  00000060000000676200000821232R8    TTTJY   005400370024
BI00B32R8    TT22051AMW     202203227283-7023-30             CONNECTOR                CCN000002500000002500FN00000000020220501000002500NNM   20220124130139    4N0N  00000250000001358000001556032R8    TTTJY   005500360039
BI00B32R8    #TT22051AMW    202203227189-3034-30             HOUSING FEMALE           CCN000001600000001600FN00000000020220501000001600NNM   20220124130130    2F0F  00000160000000972800001192832R8    TTTJY   005500360039
BI00B32R8    #TT22051AMW    202203227289-2915-30             HOUSING FEMALE ASS'Y     CCN000001500000001500FN00000000020220501000001500NNM   20220124130130    2N0N  00000150000000964500001091532R8    TTTJY   005400360024
BI00B32R8    @TT22051AMW    202203227282-1064-30             CONNECTOR ASS'Y          CCN000000800000000800FN00000000020220501000000800NNM   20220124130136    3N0N  00000080000000907300001140132R8    TTTJY   005500360039
BI00B32U5    #DI2003        202112277172-5629-80             RUBBER STOPPER           CCN000100000000100000FN00000000020220301000100000NNM00020220124132535U5  2H0H  00002000000000060000000111132U5    AMAMSD  004300270014
BI00B32U5    DI2004         202201277289-3342-30             HOUSING FEMALE ASS'Y     CCN000019200000019200FN00000000020220301000019200NNM00020220124155231U5  1N0N  00000240000000686400000901432U5    AMAMSD  005500360039
BI00B32U5    #DI2005        202201277172-5629-80             RUBBER STOPPER           CCN000140000000140000FN00000000020220301000140000NNM00020220124132601U5  2H0H  00002000000000060000000111132U5    AMAMSD  004300270014
BI00B32U5    DI2007         202201277289-3342-30             HOUSING FEMALE ASS'Y     CCN000028800000028800FN00000000020220401000028800NNM00020220124155323U5  1N0N  00000240000000686400000901432U5    AMAMSD  005500360039
BI00B32U5    #DI2007        202201277172-5629-80             RUBBER STOPPER           CCN000180000000180000FN00000000020220401000180000NNM00020220124155304U5  2H0H  00002000000000060000000111132U5    AMAMSD  004300270014
BI00B32U5    #DI2007        202201277172-5630-40             RUBBER STOPPER           CCN000360000000360000FN00000000020220401000360000NNM00020220124155304U5  2H0H  00002000000000044000000095132U5    AMAMSD  004300270014
BI00A32U5    DI2005         202201217289-3342                HOUSING FEMALE ASS'Y     CCN000007200000007200FY00000720020220301000000000NNM00020220124133837U5  1N0N  00000240000000686400000901432U5    AMAMSD  005500360039
BI00B32U5    DI2015         202203117114-4032                TERMINAL                 CCN000015000000015000FN00000000020220501000015000NNM   20220124122209U5  4P0P  00000750000000735000001063632U5    AMAMSD  006400630017
BI00B32U5    DI2015         202203117116-4037                TERMINAL                 CCN000030000000030000FN00000000020220501000030000NNM   20220124122209U5  4P0P  00000600000000600000000894232U5    AMAMSD  006400630015
BI00B32U5    DI2015         202203117017-1180-02             TERMINAL                 CCN000288000000288000FN00000000020220501000288000NNM   20220124122209U5  4P0P  00007200000001065600001229032U5    AMAMSD  005100280028
BI00B32U5    DI2015         202203117017-1182-02             TERMINAL                 CCN000045000000045000FN00000000020220501000045000NNM   20220124122209U5  4P0P  00004500000001165500001318632U5    AMAMSD  005100280028
BI00B32U5    DI2015         202203117017-1183-02             TERMINAL                 CCN000027000000027000FN00000000020220501000027000NNM   20220124122209U5  4P0P  00002700000001139400001307432U5    AMAMSD  005100280028
BI00B32U5    DI2015         202203117114-4624-02             TERMINAL                 CCN000072000000072000FN00000000020220501000072000NNM   20220124122209U5  4P0P  00002400000000895200001188832U5    AMAMSD  006400630015
BI00B32U5    DI2015         202203117116-1685-02             TERMINAL                 CCN000408000000408000FN00000000020220501000408000NNM   20220124122209U5  4P0P  00002400000000897600001065232U5    AMAMSD  005100280028
BI00B32U5    DI2015         202203117116-1686-02             TERMINAL                 CCN000042000000042000FN00000000020220501000042000NNM   20220124122209U5  4P0P  00002100000000869400001021632U5    AMAMSD  005100280028
BI00B32U5    DI2015         202203117116-4486-02             TERMINAL                 CCN000112000000112000FN00000000020220501000112000NNM   20220124122209U5  4P0P  00002800000000666400000995132U5    AMAMSD  006400630017
BI00B32U5    DI2015         202203117116-5045-02             TERMINAL                 CCN000048000000048000FN00000000020220501000048000NNM   20220124122209U5  4P0P  00001600000000678400001007132U5    AMAMSD  006400630017
BI00B32U5    DI2015         202203117116-5046-02             TERMINAL                 CCN000048000000048000FN00000000020220501000048000NNM   20220124122209U5  4P0P  00001200000000544800000873532U5    AMAMSD  006400630017
BI00B32U5    DI2015         202203117196-1102-02             TERMINAL                 CCN000022500000022500FN00000000020220501000022500NNM   20220124122209U5  4P0P  00002250000000405000000690232U5    AMAMSD  006400630015
BI00B32U5    DI2015         202203117196-1104-02             TERMINAL                 CCN000045000000045000FN00000000020220501000045000NNM   20220124122209U5  4P0P  00002250000000441000000726232U5    AMAMSD  006400630015
BI00B32U5    DI2015         202203117288-3339-30             HOUSING MALE             CCN000003000000003000FN00000000020220501000003000NNM   20220124122209U5  4N0N  00000150000000867000001012032U5    AMAMSD  005400370024
BI00B32U5    DI2015         202203117289-3342-30             HOUSING FEMALE ASS'Y     CCN000038400000038400FN00000000020220501000038400NNM   20220124122209U5  1N0N  00000240000000686400000901432U5    AMAMSD  005500360039
BI00B32U5    DI2015         202203117289-4696-30             HOUSING FEMALE ASS'Y     CCN000002000000002000FN00000000020220501000002000NNM   20220124122209U5  4N0N  00000200000000913400001055432U5    AMAMSD  005400370024
BI00B32U5    DI2015         202203117388-2978-30             HOUSING MALE ASS'Y       CCN000005760000005760FN00000000020220501000005760NNM   20220124122209U5  1N0N  00000048000000742000001122032U5    AMAMSD  005500360039
BI00B32U5    DI2015         202203117327-6731-3W             BATTERY FUSE             CCN000002944000002944FN00000000020220501000002944NNM   20220124122209U5  4N0N  00000006400000697600000843032U5    AMAMSD  005400370024
BI00B32U5    DI2015         202203117B72-5540-80             SEALED WIRE SEAL         CCN000020000000020000FN00000000020220501000020000NNM   20220124122209U5  1C0C  00002000000000186000000234432U5    AMAMSD  004300270014
BI00B32U5    DI2015         202203117C89-6868-30             SEALED ASSY FEMALE       CCN000012600000012600FN00000000020220501000012600NNM   20220124122209U5  4N0N  00000252000000839200001119232U5    AMAMSD  005500360039
BI00B32U5    #DI2015        202203117158-3017                RUBBER STOPPER           CCN000020000000020000FN00000000020220501000020000NNM   20220124122209U5  2C0C  00001000000000375500000435032U5    AMAMSD  002700430014
BI00B32U5    #DI2015        202203117154-5597-30             CASSETTE R/B             CCN000001600000001600FN00000000020220501000001600NNM   20220124122209U5  2F0F  00000080000000736000000952032U5    AMAMSD  005500360039
BI00B32U5    #DI2015        202203117158-3003-90             RUBBER STOPPER           CCN000060000000060000FN00000000020220501000060000NNM   20220124122209U5  2C0C  00002000000000250000000306032U5    AMAMSD  002700430014
BI00B32U5    #DI2015        202203117158-3004-40             RUBBER STOPPER           CCN000020000000020000FN00000000020220501000020000NNM   20220124122209U5  2C0C  00002000000000234000000306332U5    AMAMSD  002700430014
BI00B32U5    #DI2015        202203117158-3008-80             RUBBER STOPPER           CCN000020000000020000FN00000000020220501000020000NNM   20220124122209U5  2C0C  00002000000000288000000343032U5    AMAMSD  004300270014
BI00B32U5    #DI2015        202203117158-3015-10             RUBBER STOPPER           CCN000010000000010000FN00000000020220501000010000NNM   20220124122209U5  2C0C  00001000000000419500000474032U5    AMAMSD  002700430014
BI00B32U5    #DI2015        202203117158-3376-50             CONNECTOR WIRE SEAL      CCN000020000000020000FN00000000020220501000020000NNM   20220124122209U5  2C0C  00002000000000184000000240732U5    AMAMSD  002700430014
BI00B32U5    #DI2015        202203117172-5627-60             RUBBER STOPPER           CCN000060000000060000FN00000000020220501000060000NNM   20220124122209U5  2H0H  00002000000000070400000121832U5    AMAMSD  004300270014
BI00B32U5    #DI2015        202203117172-5628-80             DUMMY PLUG               CCN000080000000080000FN00000000020220501000080000NNM   20220124122209U5  2H0H  00002000000000110600000162032U5    AMAMSD  004300270014
BI00B32U5    #DI2015        202203117172-5629-80             RUBBER STOPPER           CCN000180000000180000FN00000000020220501000180000NNM   20220124122209U5  2H0H  00002000000000060000000111132U5    AMAMSD  004300270014
BI00B32U5    #DI2015        202203117172-5630-40             RUBBER STOPPER           CCN000360000000360000FN00000000020220501000360000NNM   20220124122209U5  2H0H  00002000000000044000000095132U5    AMAMSD  004300270014
BI00B32U5    #DI2015        202203117172-5631-60             RUBBER STOPPER           CCN000040000000040000FN00000000020220501000040000NNM   20220124122209U5  2H0H  00002000000000042000000093132U5    AMAMSD  004300270014
BI00B32U5    #DI2015        202203117172-5632-10             DUMMY PLUG               CCN000120000000120000FN00000000020220501000120000NNM   20220124122209U5  2H0H  00002000000000080400000131832U5    AMAMSD  004300270014
BI00B32U5    #DI2015        202203117182-8253-40             HOUSING                  CCN000001200000001200FN00000000020220501000001200NNM   20220124122209U5  2F0F  00000120000000573000000864032U5    AMAMSD  005600390040
BI00B32U5    #DI2015        202203117189-2978-30             HOUSING FEMALE           CCN000006000000006000FN00000000020220501000006000NNM   20220124122209U5  2F0F  00000150000000966900001096932U5    AMAMSD  005400370024
BI00B32U5    #DI2015        202203117289-4200-30             HOUSING FEMALE ASS'Y     CCN000004000000004000FN00000000020220501000004000NNM   20220124122209U5  2N0N  00000200000000926000001021032U5    AMAMSD  005400370024
BI00A32U9    TPA209         202201277289-0269                HOUSING SUB ASSEMBLY     CCN000001600000001600FN00000000020220301000001600NNMM0020220124131914U9  1N0N  00000160000001002100001234532U9    YNYNA-E 005500360039
BI00B32U9    TP0385S        202202177116-1257-02             TERMINAL                 CCN000096000000096000FN00000000020220301000096000NNE   20220124122209U9  1P0P  00002400000000518400000847132U9    YNYNA-E 006400630017
BI00B32U9    TP0385S        202202177114-1670-02             TERMINAL                 CCN000048000000048000FN00000000020220301000048000NNE   20220124122209U9  1P0P  00002400000000357600000645832U9    YNYNA-E 006400630015
BI00B32U9    TP0385S        202202177298-1186-40             SQUIB SUB ASS'Y          CCN000040000000040000FN00000000020220301000040000NNE   20220124122209U9  4N0N  00001000000000650000000774532U9    YNYNA-E 005400370024
BI00B32U9    TPA212         202202177114-4031                TERMINAL                 CCN000010500000010500FN00000000020220301000010500NNM   20220124122209U9  4P0P  00001050000000966000001294632U9    YNYNA-E 006400630017
BI00B32U9    TPA212         202202177114-1670-02             TERMINAL                 CCN000024000000024000FN00000000020220301000024000NNM   20220124122209U9  1P0P  00002400000000357600000645832U9    YNYNA-E 006400630015
BI00B32U9    TPA212         202202177114-4231-02             TERMINAL                 CCN000162000000162000FN00000000020220301000162000NNM   20220124122209U9  4P0P  00001800000000554400000848032U9    YNYNA-E 006400630015
BI00B32U9    TPA212         202202177116-1257-02             TERMINAL                 CCN000048000000048000FN00000000020220301000048000NNM   20220124122209U9  1P0P  00002400000000518400000847132U9    YNYNA-E 006400630017
BI00B32U9    TPA212         202202177116-2951-02             TERMINAL                 CCN000081000000081000FN00000000020220301000081000NNM   20220124122209U9  4P0P  00000540000000817600001111832U9    YNYNA-E 006400630015
BI00B32U9    TPA212         202202177116-4060-02             TERMINAL                 CCN000024000000024000FN00000000020220301000024000NNM   20220124122209U9  1P0P  00002400000000511200000984232U9    YNYNA-E 006400630017
BI00B32U9    TPA212         202202177116-4231-02             TERMINAL                 CCN000728000000728000FN00000000020220301000728000NNM   20220124122209U9  4P0P  00002600000000683800001012532U9    YNYNA-E 006400630017
BI00B32U9    TPA212         202202177158-3165-90             WIRE SEAL                CCN000720000000720000FN00000000020220301000720000NNM   20220124122209U9  1C0C  00004000000000124000000172432U9    YNYNA-E 004300270014
BI00B32U9    TPA212         202202177158-3166-60             WIRE SEAL                CCN000120000000120000FN00000000020220301000120000NNM   20220124122209U9  1C0C  00004000000000104000000152432U9    YNYNA-E 002700430014
BI00B32U9    TPA212         202202177158-3167-80             WIRE SEAL                CCN000920000000920000FN00000000020220301000920000NNM   20220124122209U9  1C0C  00002000000000048000000109032U9    YNYNA-E 002700430014
BI00B32U9    TPA212         202202177158-3169-40             SEALING PLUG             CCN000520000000520000FN00000000020220301000520000NNM   20220124122209U9  1C0C  00004000000000156000000204132U9    YNYNA-E 004300260014
BI00B32U9    TPA212         202202177172-5540-80             SEALED WIRE SEAL         CCN000100000000100000FN00000000020220301000100000NNM   20220124122209U9  1C0C  00002000000000186000000234432U9    YNYNA-E 004300270014
BI00B32U9    TPA212         202202177174-1849-70             COVER                    CCN000025000000025000FN00000000020220301000025000NNM   20220124122209U9  1F0F  00002500000000622500000761932U9    YNYNA-E 005400370024
BI00B32U9    TPA212         202202177196-0805-02             TERMINAL FEMALE          CCN000112500000112500FN00000000020220301000112500NNM   20220124122209U9  4P0P  00002250000000558000000843232U9    YNYNA-E 006400630015
BI00B32U9    TPA212         202202177222-4220-30             CONNECTOR                CCN000003000000003000FN00000000020220301000003000NNM   20220124122209U9  4N0N  00000075000001219000001384032U9    YNYNA-E 005600390040
BI00B32U9    TPA212         202202177282-5574-10             CONNECTOR                CCN000028800000028800FN00000000020220301000028800NNM   20220124122209U9  4N0N  00000080000001235000001423032U9    YNYNA-E 005600390040
BI00B32U9    TPA212         202202177282-5684-10             CONNECTOR                CCN000001200000001200FN00000000020220301000001200NNM   20220124122209U9  4N0N  00000120000001477000001656032U9    YNYNA-E 005600390040
BI00B32U9    TPA212         202202177283-5623-60             CONNECTOR                CCN000001600000001600FN00000000020220301000001600NNM   20220124122209U9  1N0N  00000160000001546000001846332U9    YNYNA-E 005600390040
BI00B32U9    TPA212         202202177283-8599-30             CONNECTOR                CCN000004620000004620FN00000000020220301000004620NNM   20220124122209U9  4N0N  00000154000000947100001157032U9    YNYNA-E 005600390023
BI00B32U9    TPA212         202202177289-6868-30             SEALED ASSY FEMALE       CCN000040320000040320FN00000000020220301000040320NNM   20220124122209U9  4N0N  00000252000000839200001119232U9    YNYNA-E 005500360039
BI00B32U9    TPA212         202202177298-1186-40             SQUIB SUB ASS'Y          CCN000010000000010000FN00000000020220301000010000NNM   20220124122209U9  4N0N  00001000000000650000000774532U9    YNYNA-E 005400370024
BI00B32U9    TPA212         202202177B58-3070-80             RUBBER STOPPER           CCN000120000000120000FN00000000020220301000120000NNM   20220124122209U9  1C0C  00004000000000276000000333032U9    YNYNA-E 004300270014
BI00B32U9    #TPA212        202202177157-7812                SEAL RUBBER              CCN000010000000010000FN00000000020220301000010000NNM   20220124122209U9  2C0C  00001000000000137000000202032U9    YNYNA-E 002700430014
BI00B32U9    #TPA212        202202177158-3017                RUBBER STOPPER           CCN000010000000010000FN00000000020220301000010000NNM   20220124122209U9  2C0C  00001000000000375500000435032U9    YNYNA-E 002700430014
BI00B32U9    #TPA212        202202177158-3376-50             CONNECTOR WIRE SEAL      CCN000060000000060000FN00000000020220301000060000NNM   20220124122209U9  2C0C  00002000000000184000000240732U9    YNYNA-E 002700430014
BI00B32U9    #TPA212        202202177282-6446-40             CONNECTOR                CCN000003000000003000FN00000000020220301000003000NNM   20220124122209U9  2N0N  00000150000001185000001368032U9    YNYNA-E 005500360039
BI00B32U9    #TPA212        202202177282-6457-40             CONNECTOR                CCN000003200000003200FN00000000020220301000003200NNM   20220124122209U9  2N0N  00000080000001137000001421332U9    YNYNA-E 005600390040
BI00B32U9    #TPA212        202202177282-8395-40             CONNECTOR                CCN000022000000022000FN00000000020220301000022000NNM   20220124122209U9  2N0N  00000100000001009000001188032U9    YNYNA-E 005500360039
BI00B32U9    #TPA212        202202177283-8397-40             CONNECTOR                CCN000007700000007700FN00000000020220301000007700NNM   20220124122209U9  2N0N  00000154000001007000001222732U9    YNYNA-E 005600390023
BI00B32W2    HN2202DNMW     202202087114-1475                TERMINAL                 CCN000013500000013500FN00000000020220201000013500NNE   20220124122209    4P0P  00001350000000480600000774232W2    HNHNY   006400630015
BI00B32W2    HN2202DNMW     202202087114-4032                TERMINAL                 CCN000015000000015000FN00000000020220201000015000NNE   20220124122209    4P0P  00000750000000735000001063632W2    HNHNY   006400630017
BI00B32W2    HN2202DNMW     202202087116-1180                TERMINAL                 CCN000058500000058500FN00000000020220201000058500NNE   20220124122209    1P0P  00001950000000618200000903432W2    HNHNY   006400630015
BI00B32W2    HN2202DNMW     202202087116-1473                TERMINAL                 CCN000108000000108000FN00000000020220201000108000NNE   20220124122209    4P0P  00001350000000523800000809032W2    HNHNY   006400630015
BI00B32W2    HN2202DNMW     202202087116-1685                TERMINAL                 CCN000024000000024000FN00000000020220201000024000NNE   20220124122209    4P0P  00002400000000892800001067232W2    HNHNY   005100280028
BI00B32W2    HN2202DNMW     202202087116-4020                TERMINAL                 CCN001093500001093500FN00000000020220201001093500NNE   20220124122209    4P0P  00001350000000513000000798232W2    HNHNY   006400630015
BI00B32W2    HN2202DNMW     202202087116-4022                TERMINAL                 CCN000027000000027000FN00000000020220201000027000NNE   20220124122209    4P0P  00001350000000618300000903532W2    HNHNY   006400630015
BI00B32W2    HN2202DNMW     202202087116-4025                TERMINAL                 CCN000096000000096000FN00000000020220201000096000NNE   20220124122209    4P0P  00001600000000644800000975132W2    HNHNY   006400630017
BI00B32W2    HN2202DNMW     202202087116-4031                TERMINAL                 CCN000015000000015000FN00000000020220201000015000NNE   20220124122209    4P0P  00000750000000619500000904732W2    HNHNY   006400630015
BI00B32W2    HN2202DNMW     202202087116-4032                TERMINAL                 CCN000042000000042000FN00000000020220201000042000NNE   20220124122209    4P0P  00000600000000532800000818032W2    HNHNY   006400630015
BI00B32W2    HN2202DNMW     202202087126-8851-02             TERMINAL                 CCN000027000000027000FN00000000020220201000027000NNE   20220124122209    1P0P  00000900000000739800001025032W2    HNHNY   006400630015
BI00B32W2    #HN2202DNMW    202202087116-4021                TERMINAL                 CCN000108000000108000FN00000000020220201000108000NNE   20220124122209    2F0P  00001350000000534600000868832W2    HNHNY   006400630015
BI00B32W2    #HN2202DNMW    202202087119-3130                HOUSING                  CCN000003000000003000FN00000000020220201000003000NNE   20220124122209    2F0F  00000300000001758000001868032W2    HNHNY   005500360039
BI00B32W2    #HN2202DNMW    202202087123-1424                CONNECTOR HOUSING        CCN000004200000004200FN00000000020220201000004200NNE   20220124122209    2F0F  00000420000000979400001124432W2    HNHNY   005400370024
BI00B32W2    #HN2202DNMW    202202087183-1616                CONNECTOR HOUSING        CCN000002400000002400FN00000000020220201000002400NNE   20220124122209    2F0F  00000240000000557500000823332W2    HNHNY   005500360039
BI00B32W2    #HN2202DNMW    202202087183-2418                CONNECTOR HOUSING        CCN000004800000004800FN00000000020220201000004800NNE   20220124122209    2F0F  00000480000000917000001477032W2    HNHNY   005500360039
BI00B32W2    #HN2202DNMW    202202087187-3359-60             JOINT CONNECTOR          CCN000001200000001200FN00000000020220201000001200NNE   20220124122209    2F0F  00000120000000763200001030432W2    HNHNY   005600390040
BI00B32W2    #HN2202DNMW    202202087187-3360                JOINT CONNECTOR          CCN000003600000003600FN00000000020220201000003600NNE   20220124122209    2F0F  00000120000000759600001026832W2    HNHNY   005600390040
BI00B32W2    #HN2202DNMW    202202087282-1210                CONNECTOR MALE ASS'Y     CCN000001000000001000FN00000000020220201000001000NNE   20220124122209    2N0N  00000100000000336000000458532W2    HNHNY   005400370024
BI00B32W2    #HN2202DNMW    202202087283-1161-40             CONNECTOR FEMALE         CCN000001000000001000FN00000000020220201000001000NNE   20220124122209    2N0N  00000100000000602000000711032W2    HNHNY   005400370024
BI00B32W2    #HN2202DNMW    202202087283-4861                CONNECTOR                CCN000001500000001500FN00000000020220201000001500NNE   20220124122209    2N0N  00000150000001200000001359932W2    HNHNY   005500360039
BI00B32W2    #HN2202DNMW    202202087283-5833                CONNECTOR HOUSING        CCN000003640000003640FN00000000020220201000003640NNE   20220124122209    2N0N  00000364000001378000001686732W2    HNHNY   005500360039
BI00B32W2    @HN2202DNMW    202202087282-1064-40             CONNECTOR ASS'Y          CCN000004000000004000FN00000000020220201000004000NNE   20220124122209    3N0N  00000080000000910400001136232W2    HNHNY   005500360039
BI00B32W2    @HN2202DNMW    202202087283-1100-30             CONNECTOR ASS'Y          CCN000003200000003200FN00000000020220201000003200NNE   20220124122209    3N0N  00000160000000561600000803032W2    HNHNY   005500360039
BI00B32W2    @HN2202DNMW    202202087283-1100-60             CONNECTOR ASS'Y          CCN000008000000008000FN00000000020220201000008000NNE   20220124122209    3N0N  00000160000000567500000801432W2    HNHNY   005500360039
BI00B32W2    @HN2202DNMW    202202087283-1100-90             CONNECTOR ASS'Y          CCN000004800000004800FN00000000020220201000004800NNE   20220124122209    3N0N  00000160000000564800000806832W2    HNHNY   005500360039
BI00B32W2    HN2202DWMW     202202087327-6832-60             MAIN FUSE                CCN000000600000000600FN00000000020220201000000600NNE   20220124122209    4N0N  00000060000000729200000930732W2    HNHNY   005400370024
BI00B32W2    HN2202DWMW     202202087327-6870-30             MULTI FUSE               CCN000000288000000288FN00000000020220201000000288NNE   20220124122209    4N0N  00000028800001015200001181132W2    HNHNY   005400370024
BI00B32W2    HN2202DWMW     202202087327-6880-30             MULTI FUSE               CCN000000288000000288FN00000000020220201000000288NNE   20220124122209    4N0N  00000028800001012600001178532W2    HNHNY   005400370024
BI00B32W2    HN2202DWMW     202202087327-6884-30             MULTI FUSE               CCN000000288000000288FN00000000020220201000000288NNE   20220124122209    4N0N  00000028800000988900001154832W2    HNHNY   005400370024
BI00B32W2    #HN2202DWMW    202202087298-2459-60             LIF FEMALE ASSEMBLY      CCN000000168000000168FN00000000020220201000000168NNE   20220124122209    2N0N  00000016800000534000000729632W2    HNHNY   005400370024
BI00B32W4    #4500184682    202201257283-8226                CONNECTOR                CCN000002000000002000FN00000000020220101000002000NNE00020220124152000W4592N0N  00000200000000820000001008032W459  HJYHK   005400370024
BI00A32W4    4500187264     202202257282-4855                HOUSING MALE ASS'Y       CCN000009600000009600FN00000000020220101000009600NNE00020220124152530W4L64N0N  00000120000001063200001283232W4L6  HJYHK-K 005500360039
BI00B32W4    4500188075     202205127289-9553-50             SEALED ASSY FEMALE       CCN000058800000058800FN00000000020220401000058800NNED0420220124122209W4564N0N  00000294000001108100001520632W456  HJYHK   005500360039
BI00B32W4    4500188262     202206307116-1685-02             TERMINAL                 CCN000264000000264000FN00000000020220601000264000NNE   20220124141918W4564P0P  00002400000000897600001065232W456  HJYHK   005100280028
BI00B32W4    4500188262     202206307116-2892-02             TERMINAL                 CCN000060000000060000FN00000000020220601000060000NNE   20220124141918W4564P0P  00001200000000818400000981832W456  HJYHK   005100280028
BI00B32W4    4500188262     202206307116-2893-02             TERMINAL                 CCN000216000000216000FN00000000020220601000216000NNE   20220124141918W4564P0P  00001200000000895200001058632W456  HJYHK   005100280028
BI00B32W4    4500188262     202206307126-8853-02             TERMINAL                 CCN000427500000427500FN00000000020220601000427500NNE   20220124141918W4564P0P  00000750000000562500000847732W456  HJYHK   006400630015
BI00B32W4    4500188262     202206307126-8854-02             TERMINAL                 CCN000202500000202500FN00000000020220601000202500NNE   20220124141918W4564P0P  00000750000000604500000889732W456  HJYHK   006400630015
BI00B32W4    4500188262     202206307126-8855-02             TERMINAL                 CCN000300000000300000FN00000000020220601000300000NNE   20220124141918W4564P0P  00000600000000510600000795832W456  HJYHK   006400630015
BI00B32W4    4500188262     202206307158-3166-60             WIRE SEAL                CCN000360000000360000FN00000000020220601000360000NNE   20220124141918W4561C0C  00004000000000104000000152432W456  HJYHK   002700430014
BI00B32W4    4500188262     202206307158-3167-80             WIRE SEAL                CCN002000000002000000FN00000000020220601002000000NNE   20220124141918W4561C0C  00002000000000048000000109032W456  HJYHK   002700430014
BI00B32W4    4500188262     202206307158-3168-80             SEALED                   CCN000520000000520000FN00000000020220601000520000NNE   20220124141918W4561C0C  00002000000000044000000092132W456  HJYHK   004300260014
BI00B32W4    4500188262     202206307158-3169-40             SEALING PLUG             CCN000400000000400000FN00000000020220601000400000NNE   20220124141918W4561C0C  00004000000000156000000204132W456  HJYHK   004300260014
BI00B32W4    4500188262     202206307289-9553-30             SEALED ASSY FEMALE       CCN000179340000179340FN00000000020220601000179340NNE   20220124141918W4564N0N  00000294000001109000001521532W456  HJYHK   005500360039
BI00B32W4    4500188262     202206307289-9553-50             SEALED ASSY FEMALE       CCN000067620000067620FN00000000020220601000067620NNE   20220124141918W4564N0N  00000294000001108100001520632W456  HJYHK   005500360039
BI00B32W4    #4500188262    202206307174-1760-50             CAP                      CCN000060000000060000FN00000000020220601000060000NNE   20220124141914W4562F0F  00000300000000813600000922632W456  HJYHK   005400370024
BI00B32W4    4500188263     202205267158-3168-80             SEALED                   CCN002000000002000000FN00000000020220501002000000NNE   20220124142003W4561C0C  00002000000000044000000092132W456  HJYHK   004300260014
BI00B32W4    4500188263     202205267158-3169-40             SEALING PLUG             CCN000400000000400000FN00000000020220501000400000NNE   20220124142003W4561C0C  00004000000000156000000204132W456  HJYHK   004300260014
BI00B32W4    4500188268     202203317116-4122-02             TERMINAL                 CCN000004500000004500FN00000000020220301000004500NNE   20220124142048W46 4P0P  00000450000000656600000950232W46   HJYHK   006400630015
BI00B32W4    4500188268     202203317116-4101-02             TERMINAL                 CCN000012000000012000FN00000000020220301000012000NNE   20220124142048W46 4P0P  00001200000000582000000876232W46   HJYHK   006400630015
BI00B32W4    4500188268     202203317116-4121-02             TERMINAL                 CCN000067500000067500FN00000000020220301000067500NNE   20220124142048W46 4P0P  00000450000000618800000912432W46   HJYHK   006400630015
BI00B32W4    4500188268     202203317116-4102-02             TERMINAL                 CCN000012000000012000FN00000000020220301000012000NNE   20220124142048W46 4P0P  00001200000000553200000841432W46   HJYHK   006400630015
BI00B32W4    4500188268     202203317158-3070-80             RUBBER STOPPER           CCN000040000000040000FN00000000020220301000040000NNE   20220124142048W46 1C0C  00004000000000276000000333332W46   HJYHK   002700430014
BI00B32W4    4500188269     202203037116-4120-02             TERMINAL                 CCN000006000000006000FN00000000020220301000006000NNE   20220124142122W46 4P0P  00000600000000780000001073632W46   HJYHK   006400630015
BI00B32W4    4500188269     202203037116-2951-02             TERMINAL                 CCN000010800000010800FN00000000020220301000010800NNE   20220124142122W46 4P0P  00000540000000817600001111832W46   HJYHK   006400630015
BI00B32W4    4500188269     202203037114-4112-02             TERMINAL                 CCN000054000000054000FN00000000020220301000054000NNE   20220124142122W46 4P0P  00000900000000598500000927132W46   HJYHK   006400630017
BI00B32W4    4500188269     202203037116-4102-02             TERMINAL                 CCN000480000000480000FN00000000020220301000480000NNE   20220124142122W46 4P0P  00001200000000553200000841432W46   HJYHK   006400630015
BI00A32W6    SW22011QMW     202201267327-6884-30             MULTI FUSE               PCN000005760000005760FN00000000020220101000005760NNM00020220124155405    4N0N  00000028800000988900001154832W6    SYSYA-WJ005400370024
BI00B32W9    4500188260     202202017114-4231-02             TERMINAL                 CCN000018000000018000FN00000000020220201000018000NNE   20220124141746W93 4P0P  00001800000000554400000848032W93   HKYHK   006400630015
BI00B32W9    4500188280     202204267158-3165-90             WIRE SEAL                CCN000040000000040000FN00000000020220401000040000NNE   20220124142207W9  1C0C  00004000000000124000000172432W9    HKYHK   004300270014
BI00B32W9    4500188281     202203227158-3165-90             WIRE SEAL                CCN000040000000040000FN00000000020220301000040000NNE   20220124142247W9  1C0C  00004000000000124000000172432W9    HKYHK   004300270014
BI00B32W9    4500188287     202202017283-7028-30             CONNECTOR                CCN000009000000009000FN00000000020220201000009000NNE   20220124142334W9  4N0N  00000300000001452000001681332W9    HKYHK   005600390040
BI00B32W9    #4500188287    202202017283-8397-40             CONNECTOR                CCN000004620000004620FN00000000020220201000004620NNE   20220124142331W9  2N0N  00000154000001007000001222732W9    HKYHK   005600390023
BI00B32X5    TIB1046        202201247289-3342                HOUSING FEMALE ASS'Y     CCN000012000000012000FY00001200020220101000000000NNM00020220124154040X5  1N0N  00000240000000686400000901432X5    EPYNA-E 005500360039
BI00B32X5    TIB2014        202204227270-8994                6P MODULE ASSEMBLY       CCN000001200000001200FN00000000020220501000001200NNMD0420220124122209X5  4J0J  00000010000001098600001298632X5    EPYNA-E 005400370024
BI00A32X5    TIB1046        202201217289-3342                HOUSING FEMALE ASS'Y     CCN000007200000007200FY00000720020220101000000000NNM00020220124133935X5  1N0N  00000240000000686400000901432X5    EPYNA-E 005500360039
BI00B32X5    TIB2015        202203117116-4037                TERMINAL                 CCN000030000000030000FN00000000020220501000030000NNM   20220124122209X5  4P0P  00000600000000600000000894232X5    EPYNA-E 006400630015
BI00B32X5    TIB2015        202203117287-8072                HOUSING FEMALE ASS'Y     CCN000002400000002400FN00000000020220501000002400NNM   20220124122209X5  1N0N  00000240000001221600001441632X5    EPYNA-E 005500360039
BI00B32X5    TIB2015        202203117289-3342                HOUSING FEMALE ASS'Y     CCN000026400000026400FN00000000020220501000026400NNM   20220124122209X5  1N0N  00000240000000686400000901432X5    EPYNA-E 005500360039
BI00B32X5    TIB2015        202203117017-1180-02             TERMINAL                 CCN000504000000504000FN00000000020220501000504000NNM   20220124122209X5  4P0P  00007200000001065600001229032X5    EPYNA-E 005100280028
BI00B32X5    TIB2015        202203117017-1183-02             TERMINAL                 CCN000027000000027000FN00000000020220501000027000NNM   20220124122209X5  4P0P  00002700000001139400001307432X5    EPYNA-E 005100280028
BI00B32X5    TIB2015        202203117114-4624-02             TERMINAL                 CCN000024000000024000FN00000000020220501000024000NNM   20220124122209X5  4P0P  00002400000000895200001188832X5    EPYNA-E 006400630015
BI00B32X5    TIB2015        202203117116-1257-02             TERMINAL                 CCN000024000000024000FN00000000020220501000024000NNM   20220124122209X5  1P0P  00002400000000518400000847132X5    EPYNA-E 006400630017
BI00B32X5    TIB2015        202203117116-1685-02             TERMINAL                 CCN000096000000096000FN00000000020220501000096000NNM   20220124122209X5  4P0P  00002400000000897600001065232X5    EPYNA-E 005100280028
BI00B32X5    TIB2015        202203117116-2951-02             TERMINAL                 CCN000010800000010800FN00000000020220501000010800NNM   20220124122209X5  4P0P  00000540000000817600001111832X5    EPYNA-E 006400630015
BI00B32X5    TIB2015        202203117116-4486-02             TERMINAL                 CCN000056000000056000FN00000000020220501000056000NNM   20220124122209X5  4P0P  00002800000000666400000995132X5    EPYNA-E 006400630017
BI00B32X5    TIB2015        202203117116-5045-02             TERMINAL                 CCN000256000000256000FN00000000020220501000256000NNM   20220124122209X5  4P0P  00001600000000678400001007132X5    EPYNA-E 006400630017
BI00B32X5    TIB2015        202203117116-5046-02             TERMINAL                 CCN000072000000072000FN00000000020220501000072000NNM   20220124122209X5  4P0P  00001200000000544800000873532X5    EPYNA-E 006400630017
BI00B32X5    TIB2015        202203117137-3047-30             UNIT PACKING             CCN000002000000002000FN00000000020220501000002000NNM   20220124122209X5  1C0C  00000100000000170500000218932X5    EPYNA-E 002700430014
BI00B32X5    TIB2015        202203117172-5402-30             SEAL RUBBER              CCN000024000000024000FN00000000020220501000024000NNM   20220124122209X5  1C0C  00000800000000457600000506032X5    EPYNA-E 004300270014
BI00B32X5    TIB2015        202203117172-5403-30             SEALED PACKING           CCN000024000000024000FN00000000020220501000024000NNM   20220124122209X5  1C0C  00000400000000653600000701732X5    EPYNA-E 004300270014
BI00B32X5    TIB2015        202203117173-3291-40             LIF LEVER                CCN000004800000004800FN00000000020220501000004800NNM   20220124122209X5  1F0F  00000240000000867800001067832X5    EPYNA-E 005500360039
BI00B32X5    TIB2015        202203117196-1104-02             TERMINAL                 CCN000157500000157500FN00000000020220501000157500NNM   20220124122209X5  4P0P  00002250000000441000000726232X5    EPYNA-E 006400630015
BI00B32X5    TIB2015        202203117196-1325-02             TERMINAL FEMALE          CCN000240000000240000FN00000000020220501000240000NNM   20220124122209X5  4P0P  00006000000000450000000778732X5    EPYNA-E 006400630017
BI00B32X5    TIB2015        202203117196-1326-02             TERMINAL FEMALE          CCN000420000000420000FN00000000020220501000420000NNM   20220124122209X5  4P0P  00006000000000456000000784732X5    EPYNA-E 006400630017
BI00B32X5    TIB2015        202203117196-1327-02             TERMINAL FEMALE          CCN000052000000052000FN00000000020220501000052000NNM   20220124122209X5  4P0P  00005200000000336000000739532X5    EPYNA-E 006400630017
BI00B32X5    TIB2015        202203117282-4576-90             HOUSING MALE ASS'Y       CCN000004800000004800FN00000000020220501000004800NNM   20220124122209X5  4N0N  00000240000000808800001028832X5    EPYNA-E 005500360039
BI00B32X5    TIB2015        202203117282-5574-10             CONNECTOR                CCN000012000000012000FN00000000020220501000012000NNM   20220124122209X5  4N0N  00000080000001235000001423032X5    EPYNA-E 005600390040
BI00B32X5    TIB2015        202203117283-4855-40             CONNECTOR HOUSING        CCN000002400000002400FN00000000020220501000002400NNM   20220124122209X5  4N0N  00000240000001188400001400032X5    EPYNA-E 005600360039
BI00B32X5    TIB2015        202203117288-3330-30             HOUSING MALE             CCN000015000000015000FN00000000020220501000015000NNM   20220124122209X5  4N0N  00000150000000866300001011232X5    EPYNA-E 005400370024
BI00B32X5    TIB2015        202203117289-3342-30             HOUSING FEMALE ASS'Y     CCN000084000000084000FN00000000020220501000084000NNM   20220124122209X5  1N0N  00000240000000686400000901432X5    EPYNA-E 005500360039
BI00B32X5    TIB2015        202203117289-3342-40             HOUSING FEMALE ASS'Y     CCN000004800000004800FN00000000020220501000004800NNM   20220124122209X5  1N0N  00000240000000686400000901432X5    EPYNA-E 005500360039
BI00B32X5    TIB2015        202203117289-5979-30             HOUSING FEMALE ASS'Y     CCN000002520000002520FN00000000020220501000002520NNM   20220124122209X5  1N0N  00000025200000854700001064732X5    EPYNA-E 005400370024
BI00B32X5    TIB2015        202203117289-6518-30             HOUSING FEMALE ASS'Y     CCN000002400000002400FN00000000020220501000002400NNM   20220124122209X5  1N0N  00000120000000829200001049232X5    EPYNA-E 005500360039
BI00B32X5    TIB2015        202203117295-0785-02             TERMINAL ALUMINIUM       CCN000051000000051000FN00000000020220501000051000NNM   20220124122209X5  4P0P  00002550000000510000000803632X5    EPYNA-E 006400630015
BI00B32X5    TIB2015        202203117296-0784-02             TERMINAL ALUMINIUM       CCN000120000000120000FN00000000020220501000120000NNM   20220124122209X5  4P0P  00002400000000480000000765232X5    EPYNA-E 006400630015
BI00B32X5    TIB2015        202203117388-2978-30             HOUSING MALE ASS'Y       CCN000010080000010080FN00000000020220501000010080NNM   20220124122209X5  1N0N  00000048000000742000001122032X5    EPYNA-E 005500360039
BI00B32X5    #TIB2015       202203117147-9094                RETAINER                 CCN000003000000003000FN00000000020220501000003000NNM   20220124122209X5  2F0F  00000300000000717000000872932X5    EPYNA-E 005500360039
BI00B32X5    #TIB2015       202203117158-3017                RUBBER STOPPER           CCN000030000000030000FN00000000020220501000030000NNM   20220124122209X5  2C0C  00001000000000375500000435032X5    EPYNA-E 002700430014
BI00B32X5    #TIB2015       202203117287-7859                HYBRID FEMALE ASS'Y      CCN000008400000008400FN00000000020220501000008400NNM   20220124122209X5  2N0N  00000120000000461600000671632X5    EPYNA-E 005500360039
BI00B32X5    #TIB2015       202203117287-9155                HOUSING FEMALE ASS'Y     CCN000007680000007680FN00000000020220501000007680NNM   20220124122209X5  2N0N  00000096000000853700001045232X5    EPYNA-E 005400370024
BI00B32X5    #TIB2015       202203117154-3424-30             REAR HOLDER              CCN000009000000009000FN00000000020220501000009000NNM   20220124122209X5  2F0F  00000300000000975000001138632X5    EPYNA-E 005500360039
BI00B32X5    #TIB2015       202203117158-3003-90             RUBBER STOPPER           CCN000160000000160000FN00000000020220501000160000NNM   20220124122209X5  2C0C  00002000000000250000000306032X5    EPYNA-E 002700430014
BI00B32X5    #TIB2015       202203117158-3004-40             RUBBER STOPPER           CCN000160000000160000FN00000000020220501000160000NNM   20220124122209X5  2C0C  00002000000000234000000306332X5    EPYNA-E 002700430014
BI00B32X5    #TIB2015       202203117158-3005-80             RUBBER STOPPER           CCN000040000000040000FN00000000020220501000040000NNM   20220124122209X5  2H0H  00002000000000210000000268732X5    EPYNA-E 002700430014
BI00B32X5    #TIB2015       202203117158-3007-10             RUBBER STOPPER           CCN000300000000300000FN00000000020220501000300000NNM   20220124122209X5  2H0H  00002000000000308000000362732X5    EPYNA-E 002700430014
BI00B32X5    #TIB2015       202203117158-3008-80             RUBBER STOPPER           CCN000060000000060000FN00000000020220501000060000NNM   20220124122209X5  2C0C  00002000000000288000000343032X5    EPYNA-E 004300270014
BI00B32X5    #TIB2015       202203117158-3376-50             CONNECTOR WIRE SEAL      CCN000020000000020000FN00000000020220501000020000NNM   20220124122209X5  2C0C  00002000000000184000000240732X5    EPYNA-E 002700430014
BI00B32X5    #TIB2015       202203117158-3610-80             RUBBER STOPPER           CCN000003000000003000FN00000000020220501000003000NNM   20220124122209X5  2H0H  00000300000000396900000438932X5    EPYNA-E 004300270014
BI00B32X5    #TIB2015       202203117172-5625-90             RUBBER STOPPER           CCN000060000000060000FN00000000020220501000060000NNM   20220124122209X5  2H0H  00002000000000082400000133832X5    EPYNA-E 004300270014
BI00B32X5    #TIB2015       202203117172-5626-90             RUBBER STOPPER           CCN000020000000020000FN00000000020220501000020000NNM   20220124122209X5  2H0H  00002000000000076400000127832X5    EPYNA-E 004300270014
BI00B32X5    #TIB2015       202203117172-5627-60             RUBBER STOPPER           CCN000040000000040000FN00000000020220501000040000NNM   20220124122209X5  2H0H  00002000000000070400000121832X5    EPYNA-E 004300270014
BI00B32X5    #TIB2015       202203117172-5628-80             DUMMY PLUG               CCN000020000000020000FN00000000020220501000020000NNM   20220124122209X5  2H0H  00002000000000110600000162032X5    EPYNA-E 004300270014
BI00B32X5    #TIB2015       202203117172-5629-80             RUBBER STOPPER           CCN000600000000600000FN00000000020220501000600000NNM   20220124122209X5  2H0H  00002000000000060000000111132X5    EPYNA-E 004300270014
BI00B32X5    #TIB2015       202203117172-5630-40             RUBBER STOPPER           CCN000060000000060000FN00000000020220501000060000NNM   20220124122209X5  2H0H  00002000000000044000000095132X5    EPYNA-E 004300270014
BI00B32X5    #TIB2015       202203117172-5631-60             RUBBER STOPPER           CCN000080000000080000FN00000000020220501000080000NNM   20220124122209X5  2H0H  00002000000000042000000093132X5    EPYNA-E 004300270014
BI00B32X5    #TIB2015       202203117172-5632-10             DUMMY PLUG               CCN000240000000240000FN00000000020220501000240000NNM   20220124122209X5  2H0H  00002000000000080400000131832X5    EPYNA-E 004300270014
BI00B32X5    #TIB2015       202203117173-3225-10             LIF LEVER                CCN000002400000002400FN00000000020220501000002400NNM   20220124122209X5  2F0F  00000080000000592000000712032X5    EPYNA-E 005500360039
BI00B32X5    #TIB2015       202203117183-8251-40             HOUSING                  CCN000004800000004800FN00000000020220501000004800NNM   20220124122209X5  2F0F  00000240000000357600000640032X5    EPYNA-E 005500360039
BI00B32X5    #TIB2015       202203117183-8253-40             HOUSING                  CCN000004800000004800FN00000000020220501000004800NNM   20220124122209X5  2F0F  00000240000000528000000805032X5    EPYNA-E 005500360039
BI00B32X5    #TIB2015       202203117189-3034-30             HOUSING FEMALE           CCN000004800000004800FN00000000020220501000004800NNM   20220124122209X5  2F0F  00000160000000972800001192832X5    EPYNA-E 005500360039
BI00B32X5    #TIB2015       202203117282-8395-40             CONNECTOR                CCN000008000000008000FN00000000020220501000008000NNM   20220124122209X5  2N0N  00000100000001009000001188032X5    EPYNA-E 005500360039
BI00B32X5    #TIB2015       202203117283-8397-40             CONNECTOR                CCN000003080000003080FN00000000020220501000003080NNM   20220124122209X5  2N0N  00000154000001007000001222732X5    EPYNA-E 005600390023
BI00B32X5    #TIB2015       202203117289-2913-30             HOUSING FEMALE ASS'Y     CCN000001500000001500FN00000000020220501000001500NNM   20220124122209X5  2N0N  00000150000000907500001034532X5    EPYNA-E 005400360024
BI00B32X5    @TIB2015       202203117286-4098                CONNECTOR MALE ASS'Y     CCN000016000000016000FN00000000020220501000016000NNM   20220124122209X5  3N0N  00000160000000949100001163032X5    EPYNA-E 005500360039
BI00B32Y2    CA-645-13      202202037287-1915                CONNECTOR ASS'Y          CCN000001000000002400FN00000000020220201000002400NNE   20220124144901    4N0N  00000240000000666500000923132Y2    YUYUY   005500360039
BI00B32Y2    CA-645-13      202202037283-1156                CONNECTOR                CCN000001000000001600FN00000000020220201000001600NNE   20220124144901    4N0N  00000080000000877600001078032Y2    YUYUY   005600390040
BI00B32Y2    CA-645-13      202202037287-8072                HOUSING FEMALE ASS'Y     CCN000001000000002400FN00000000020220201000002400NNE   20220124144901    1N0N  00000240000001221600001441632Y2    YUYUY   005500360039
BI00B32Y2    CA-645-13      202202037287-9234                JOINT CONNECTOR          CCN000001000000009600FN00000000020220201000009600NNE   20220124144901    4N0N  00000960000000893800001184832Y2    YUYUY   005500360039
BI00B32Y2    CA-645-13      202202037287-8073                HOUSING FEMALE ASS'Y     CCN000001000000002400FN00000000020220201000002400NNE   20220124144901    1N0N  00000240000001166400001386432Y2    YUYUY   005500360039
BI00B32Y2    CA-645-13      202202037116-5750-02             TERMINAL                 CCN000004500000015000FN00000000020220201000015000NNE   20220124144901    4P0P  00001500000000457500000742732Y2    YUYUY   006400630015
BI00A32Y8    #TAIM22012     202202017187-3976-60             CONNECTOR HOUSING        CCN000000300000002400FN00000000020220201000002400NNE   20220124134607Y8  2F0F  00000240000000902200001073332Y8    CLYCL   005500360039
