BI00B32AF    TTB205C        2022050618000004543              AV 8 W/B                 CCN000000400000000400FN00000000020220401000000400NNE   20220412161156    1W    00000010000010466200000000032AF    HBYHVTB 000000000000UW324010
BI00B32AF    @TTB205C       20220513181AD2004ZZ              CIVUSAS-S 0.35X4 B       CCN000006000000006000FN00000000020220401000006000NNE   20220412161155    1W    00000030000002799900000000032AF    HBYHVTB 000000000000UX424001
BI00B32BF    TT2207ABMW     20220524180D0203790              AVSSH 0.3F L             CCN000002000000002000FN00000000020220701000002000NNE   20220412162305    1W    00000200000000515000000000032BF    TTTJY   000000000000NR225001
BI00B32BF    TT2207ABMW     20220524180D0203795              AVSSH 0.3F L/R           CCN000002000000002000FN00000000020220701000002000NNE   20220412162305    1W    00000200000000515000000000032BF    TTTJY   000000000000NR225002
BI00B32BF    TT2207ABMW     20220524180D0204043              AVSSH 0.75F W/B          CCN000001000000001000FN00000000020220701000001000NNE   20220412162305    1W    00000100000000934000000000032BF    TTTJY   000000000000NR225003
BI00B32DJ    GHT2206-1      20220505180D0204060              AVSSH 0.75F G            CCN000002000000002000FN00000000020220501000002000NNM   20220412145921    1W    00000100000000934000000000032DJ    RBYIPLRB000000000000XH324010
BI00B32DJ    GHT2206-2      20220512180D0204060              AVSSH 0.75F G            CCN000001000000001000FN00000000020220501000001000NNM   20220412145921    1W    00000100000000934000000000032DJ    RBYIPLRB000000000000XH424003
BI00B32DJ    GHT2206-1      20220505180D0203990              AVSSH 0.5F L             CCN000025500000025500FN00000000020220501000025500NNM   20220412145921    1W    00000150000000689000000000032DJ    RBYIPLRB000000000000XH324008
BI00B32DJ    GHT2206-2      20220512180D0203990              AVSSH 0.5F L             CCN000003000000003000FN00000000020220501000003000NNM   20220412145921    1W    00000150000000689000000000032DJ    RBYIPLRB000000000000XH424002
BI00B32DJ    GHT2206-1      20220505180D0203730              AVSSH 0.3F B             CCN000010000000010000FN00000000020220501000010000NNM   20220412145921    1W    00000200000000515000000000032DJ    RBYIPLRB000000000000XH324002
BI00B32DJ    GHT2206-1      20220505180D0203750              AVSSH 0.3F R             CCN000008000000008000FN00000000020220501000008000NNM   20220412145921    1W    00000200000000515000000000032DJ    RBYIPLRB000000000000XH324004
BI00B32DJ    GHT2206-1      20220505180D0204070              AVSSH 0.75F Y            CCN000012000000012000FN00000000020220501000012000NNM   20220412145921    1W    00000100000000934000000000032DJ    RBYIPLRB000000000000XH324013
BI00B32DJ    GHT2206-2      20220512180D0204070              AVSSH 0.75F Y            CCN000010000000010000FN00000000020220501000010000NNM   20220412145921    1W    00000100000000934000000000032DJ    RBYIPLRB000000000000XH424004
BI00B32DJ    GHT2206-2      20220512180D0203980              AVSSH 0.5F BR            CCN000003000000003000FN00000000020220501000003000NNM   20220412145921    1W    00000150000000689000000000032DJ    RBYIPLRB000000000000XH424001
BI00B32DJ    GHT2206-1      20220505180D0204092              AVSSH 0.75F V            CCN000001000000001000FN00000000020220501000001000NNM   20220412145921    1W    00000100000000934000000000032DJ    RBYIPLRB000000000000XH324012
BI00B32DJ    GHT2206-1      20220505180D0203770              AVSSH 0.3F Y             CCN000002000000002000FN00000000020220501000002000NNM   20220412145921    1W    00000200000000515000000000032DJ    RBYIPLRB000000000000XH324006
BI00B32DJ    GHT2206-1      20220505180D0203992              AVSSH 0.5F V             CCN000001500000001500FN00000000020220501000001500NNM   20220412145921    1W    00000150000000689000000000032DJ    RBYIPLRB000000000000XH324009
BI00B32DJ    GHT2206-1      20220505180D0204150              AVSSH 1.25F R            CCN000000800000000800FN00000000020220501000000800NNM   20220412145921    1W    00000080000001458000000000032DJ    RBYIPLRB000000000000XH324017
BI00B32DJ    GHT2206-1      20220505180D0204160              AVSSH 1.25F G            CCN000000800000000800FN00000000020220501000000800NNM   20220412145921    1W    00000080000001458000000000032DJ    RBYIPLRB000000000000XH324015
BI00B32DJ    GHT2206-1      20220505180D0204052              AVSSH 0.75F P            CCN000001000000001000FN00000000020220501000001000NNM   20220412145921    1W    00000100000000934000000000032DJ    RBYIPLRB000000000000XH324011
BI00B32DJ    GHT2206-1      20220505180D0203740              AVSSH 0.3F W             CCN000002000000002000FN00000000020220501000002000NNM   20220412145921    1W    00000200000000515000000000032DJ    RBYIPLRB000000000000XH324005
BI00B32DJ    GHT2206-1      20220505180D0204140              AVSSH 1.25F W            CCN000000800000000800FN00000000020220501000000800NNM   20220412145921    1W    00000080000001458000000000032DJ    RBYIPLRB000000000000XH324018
BI00B32DJ    GHT2206-1      20220505180D0203930              AVSSH 0.5F B             CCN000001500000001500FN00000000020220501000001500NNM   20220412145921    1W    00000150000000689000000000032DJ    RBYIPLRB000000000000XH324007
BI00B32DJ    GHT2206-1      20220505180D0203741              AVSSH 0.3F GY            CCN000002000000002000FN00000000020220501000002000NNM   20220412145921    1W    00000200000000515000000000032DJ    RBYIPLRB000000000000XH324003
BI00B32DJ    GHT2206-1      20220505180D0204141              AVSSH 1.25F GY           CCN000000800000000800FN00000000020220501000000800NNM   20220412145921    1W    00000080000001458000000000032DJ    RBYIPLRB000000000000XH324016
BI00B32DJ    GHT2206-1      20220505180D0204180              AVSSH 1.25F BR           CCN000000800000000800FN00000000020220501000000800NNM   20220412145921    1W    00000080000001458000000000032DJ    RBYIPLRB000000000000XH324014
BI00B32DJ    @GHT2206-1     20220505181D6910230              AVSSHCS 0.5FX2 B         CCN000000300000000300FN00000000020220501000000300NNM   20220412145919    1W    00000030000002385000000000032DJ    RBYIPLRB000000000000XH324001
BI00B32M3    SM2205C MW     2022050518007704161              AVSS 1.25F LG            CCN000001600000001600FN00000000020220501000001600NNE   20220412141854    1W    00000080000001389000000000032M3    SASAMI  000000000000QK324004
BI00B32M3    SM2205C MW     20220505180D0203740              AVSSH 0.3F W             CCN000002000000002000FN00000000020220501000002000NNE   20220412141854    1W    00000200000000515000000000032M3    SASAMI  000000000000QK324001
BI00B32M3    SM2205C MW     20220505180D0204060              AVSSH 0.75F G            CCN000001000000001000FN00000000020220501000001000NNE   20220412141854    1W    00000100000000934000000000032M3    SASAMI  000000000000QK324002
BI00B32M3    SM2205C MW     20220505180D0204041              AVSSH 0.75F GY           CCN000001000000001000FN00000000020220501000001000NNE   20220412141854    1W    00000100000000934000000000032M3    SASAMI  000000000000QK324003
BI00B32Q8    EW2206A MW     2022050418009604440              AVS 5 W                  CCN000055800000055800FN00000000020220601000055800NNE   20220412123114    1W    00000020000005981000000000032Q8    EMEMI   000000000000MO324004
BI00B32Q8    EW2206A MW     20220504180D0203752              AVSSH 0.3F P             CCN000010000000010000FN00000000020220601000010000NNE   20220412123114    1W    00000200000000515000000000032Q8    EMEMI   000000000000MO324002
BI00B32Q8    EW2206A MW     20220504180D0203937              AVSSH 0.5F B/Y           CCN000001500000001500FN00000000020220601000001500NNE   20220412123114    1W    00000150000000689000000000032Q8    EMEMI   000000000000MO324003
BI00B32Q8    EW2206A MW     202205041801R704161              CIVUS 1.25 LG            CCN000028000000028000FN00000000020220601000028000NNE   20220412123114    1W    00000100000001228000000000032Q8    EMEMI   000000000000MO324005
BI00B32Q8    @EW2206ATMW    20220511181D69004ZZ              AVSSHCS 1.25FX2 B        CCN000005400000005400FN00000000020220601000005400NNE   20220412123114    1W    00000020000004357000000000032Q8    EMEMI   000000000000MP424001
BI00B32Q8    EW2206B MW     202205041801R704180              CIVUS 1.25 BR            CCN000028000000028000FN00000000020220601000028000NNE   20220412123114    1W    00000100000001228000000000032Q8    EMEMI   000000000000ML324002
BI00B32Q8    EW2206B MW     202205041801R704192              CIVUS 1.25 V             CCN000023000000023000FN00000000020220601000023000NNE   20220412123114    1W    00000100000001228000000000032Q8    EMEMI   000000000000ML324003
BI00B32Q8    EW2206C MW     2022051118009604443              AVS 5 W/B                CCN000009600000009600FN00000000020220601000009600NNE   20220412123114    1W    00000020000005981000000000032Q8    EMEMI   000000000000MS424005
BI00B32Q8    EW2206C MW     2022051118007703760              AVSS 0.3F G              CCN000012000000012000FN00000000020220601000012000NNE   20220412123114    1W    00000200000000496000000000032Q8    EMEMI   000000000000MS424003
BI00B32Q8    EW2206C MW     2022051118007703750              AVSS 0.3F R              CCN000016000000016000FN00000000020220601000016000NNE   20220412123114    1W    00000200000000496000000000032Q8    EMEMI   000000000000MS424004
BI00B32Q8    EW2206C MW     20220511180D0204030              AVSSH 0.75F B            CCN000004000000004000FN00000000020220601000004000NNE   20220412123114    1W    00000100000000934000000000032Q8    EMEMI   000000000000MS424002
BI00B32Q8    EW2206C MW     202205111801R704161              CIVUS 1.25 LG            CCN000013000000013000FN00000000020220601000013000NNE   20220412123114    1W    00000100000001228000000000032Q8    EMEMI   000000000000MS424006
BI00B32Q8    @EW2206C MW    20220511181E48041ZZ              CAVSAS-S 0.3X2 GY/R      CCN000002450000002450FN00000000020220601000002450NNE   20220412123114    1W    00000035000002008700000000032Q8    EMEMI   000000000000MS424001
BI00B32Q8    @EW2206CTMW    20220511181E50028ZZ              AVSSCS-S 0.5FX3 DGY      CCN000001000000001000FN00000000020220601000001000NNE   20220412123114    1W    00000025000003265000000000032Q8    EMEMI   000000000000MU424001
BI00B32W4    4500192124     2022041918018403939              CAVS 0.5 B/L             CCN000001500000001500FN00000000020220401000001500NNE   20220412123114W41 1W    00000150000000677000000000032W41   HJYHK-J 000000000000ON124001
BI00B32W4    4500192124     2022041918018403985              CAVS 0.5 BR/R            CCN000001500000001500FN00000000020220401000001500NNE   20220412123114W41 1W    00000150000000677000000000032W41   HJYHK-J 000000000000ON124002
BI00A32W4    @4500192082    20220523181D6910239              AVSSHCS 0.5FX2 B/L       CCN000029400000029400FN00000000020220501000029400NNE   20220412123114W4A21W    00000030000002385000000000032W4A2  HJYHK-J 000000000000OL225001
BI00B32W4    4500192125     20220517180184039G9              CAVS 0.5 V/G             CCN000001500000001500FN00000000020220501000001500NNE   20220412123114W41 1W    00000150000000677000000000032W41   HJYHK-J 000000000000OO125002
BI00B32W4    4500192125     2022051718018403939              CAVS 0.5 B/L             CCN000001500000001500FN00000000020220501000001500NNE   20220412123114W41 1W    00000150000000677000000000032W41   HJYHK-J 000000000000OO125001
BI00B32W4    @4500192103    20220621181B32116S1              AVSSCS 0.3FX2 DGY        CCN000007700000007700FN00000000020220601000007700NNE   20220412123114W4171W    00000035000002276000000000032W417  HJYHK-J 000000000000OF226001
BI00A32W4    @4500192128    20220620181B09116K3              CAVSAS 0.3X2 GY/P        CCN000000350000000350FN00000000020220601000000350NNE   20220412123114W4N21W    00000035000002254000000000032W4N2  HJYHK-J 000000000000OG226002
BI00A32W4    @4500192128    20220620181B09037K5              CAVSAS 0.3X1 GY/BR       CCN000002000000002000FN00000000020220601000002000NNE   20220412123114W4N21W    00000050000001704000000000032W4N2  HJYHK-J 000000000000OG226001
BI00B32W4    4500192307     2022050318009603930              AVS 0.5 B                CCN000002000000002000FN00000000020220501000002000NNE   20220412130839W42 1W    00000100000000850000000000032W42   HJYHK-J 000000000000OK324004
BI00B32W4    4500192307     2022050318009603960              AVS 0.5 G                CCN000001000000001000FN00000000020220501000001000NNE   20220412130839W42 1W    00000100000000850000000000032W42   HJYHK-J 000000000000OK324005
BI00B32W4    4500192307     2022050318009603950              AVS 0.5 R                CCN000001000000001000FN00000000020220501000001000NNE   20220412130839W42 1W    00000100000000850000000000032W42   HJYHK-J 000000000000OK324006
BI00B32W4    4500192307     2022050318009603954              AVS 0.5 R/W              CCN000001000000001000FN00000000020220501000001000NNE   20220412130839W42 1W    00000100000000850000000000032W42   HJYHK-J 000000000000OK324007
BI00B32W4    4500192307     2022050318009603940              AVS 0.5 W                CCN000001000000001000FN00000000020220501000001000NNE   20220412130839W42 1W    00000100000000850000000000032W42   HJYHK-J 000000000000OK324008
BI00B32W4    4500192307     2022050318009604030              AVS 0.85 B               CCN000008000000008000FN00000000020220501000008000NNE   20220412130839W42 1W    00000100000001167700000000032W42   HJYHK-J 000000000000OK324009
BI00B32W4    4500192307     2022050318009604060              AVS 0.85 G               CCN000003000000003000FN00000000020220501000003000NNE   20220412130839W42 1W    00000100000001167700000000032W42   HJYHK-J 000000000000OK324010
BI00B32W4    4500192307     2022050318009604041              AVS 0.85 GY              CCN000001000000001000FN00000000020220501000001000NNE   20220412130839W42 1W    00000100000001167700000000032W42   HJYHK-J 000000000000OK324011
BI00B32W4    4500192307     2022050318009604090              AVS 0.85 L               CCN000003000000003000FN00000000020220501000003000NNE   20220412130839W42 1W    00000100000001167700000000032W42   HJYHK-J 000000000000OK324012
BI00B32W4    4500192307     2022050318009604094              AVS 0.85 L/W             CCN000003000000003000FN00000000020220501000003000NNE   20220412130839W42 1W    00000100000001167700000000032W42   HJYHK-J 000000000000OK324013
BI00B32W4    4500192307     2022050318009604052              AVS 0.85 P               CCN000002000000002000FN00000000020220501000002000NNE   20220412130839W42 1W    00000100000001167700000000032W42   HJYHK-J 000000000000OK324014
BI00B32W4    4500192307     2022050318009604050              AVS 0.85 R               CCN000004000000004000FN00000000020220501000004000NNE   20220412130839W42 1W    00000100000001167700000000032W42   HJYHK-J 000000000000OK324015
BI00B32W4    4500192307     2022050318009604040              AVS 0.85 W               CCN000003000000003000FN00000000020220501000003000NNE   20220412130839W42 1W    00000100000001167700000000032W42   HJYHK-J 000000000000OK324016
BI00B32W4    4500192307     2022050318009604070              AVS 0.85 Y               CCN000001000000001000FN00000000020220501000001000NNE   20220412130839W42 1W    00000100000001167700000000032W42   HJYHK-J 000000000000OK324017
BI00B32W4    4500192307     2022050318009604130              AVS 1.25 B               CCN000004000000004000FN00000000020220501000004000NNE   20220412130839W42 1W    00000080000001643000000000032W42   HJYHK-J 000000000000OK324018
BI00B32W4    4500192307     2022050318009604230              AVS 2 B                  CCN000002000000002000FN00000000020220501000002000NNE   20220412130839W42 1W    00000050000002456500000000032W42   HJYHK-J 000000000000OK324019
BI00B32W4    4500192307     2022050318009604250              AVS 2 R                  CCN000000500000000500FN00000000020220501000000500NNE   20220412130839W42 1W    00000050000002456500000000032W42   HJYHK-J 000000000000OK324020
BI00B32W4    4500192307     2022050318009604330              AVS 3 B                  CCN000000400000000400FN00000000020220501000000400NNE   20220412130839W42 1W    00000040000003831600000000032W42   HJYHK-J 000000000000OK324021
BI00B32W4    4500192307     2022050318009604357              AVS 3 R/Y                CCN000000400000000400FN00000000020220501000000400NNE   20220412130839W42 1W    00000040000003831600000000032W42   HJYHK-J 000000000000OK324022
BI00B32W4    4500192307     2022050318007703970              AVSS 0.5F Y              CCN000001500000001500FN00000000020220501000001500NNE   20220412130839W42 1W    00000150000000674000000000032W42   HJYHK-J 000000000000OK324001
BI00B32W4    4500192307     2022050318007704130              AVSS 1.25F B             CCN000000800000000800FN00000000020220501000000800NNE   20220412130839W42 1W    00000080000001389000000000032W42   HJYHK-J 000000000000OK324002
BI00B32W4    4500192307     2022050318007704230              AVSS 2F B                CCN000000500000000500FN00000000020220501000000500NNE   20220412130839W42 1W    00000050000002126400000000032W42   HJYHK-J 000000000000OK324003
BI00B32W4    4500192307     2022050318018403730              CAVS 0.3 B               CCN000002000000002000FN00000000020220501000002000NNE   20220412130839W42 1W    00000200000000471000000000032W42   HJYHK-J 000000000000OK324023
BI00B32W4    4500192307     2022050318018403734              CAVS 0.3 B/W             CCN000002000000002000FN00000000020220501000002000NNE   20220412130839W42 1W    00000200000000471000000000032W42   HJYHK-J 000000000000OK324024
BI00B32W4    4500192307     2022050318018403756              CAVS 0.3 R/G             CCN000002000000002000FN00000000020220501000002000NNE   20220412130839W42 1W    00000200000000471000000000032W42   HJYHK-J 000000000000OK324025
BI00B32W4    4500192307     2022050318018403930              CAVS 0.5 B               CCN000003000000003000FN00000000020220501000003000NNE   20220412130839W42 1W    00000150000000677000000000032W42   HJYHK-J 000000000000OK324026
BI00B32W4    4500192307     2022050318018403936              CAVS 0.5 B/G             CCN000001500000001500FN00000000020220501000001500NNE   20220412130839W42 1W    00000150000000677000000000032W42   HJYHK-J 000000000000OK324027
BI00B32W4    4500192307     2022050318018403939              CAVS 0.5 B/L             CCN000003000000003000FN00000000020220501000003000NNE   20220412130839W42 1W    00000150000000677000000000032W42   HJYHK-J 000000000000OK324028
BI00B32W4    4500192307     2022050318018403935              CAVS 0.5 B/R             CCN000001500000001500FN00000000020220501000001500NNE   20220412130839W42 1W    00000150000000677000000000032W42   HJYHK-J 000000000000OK324029
BI00B32W4    4500192307     2022050318018403934              CAVS 0.5 B/W             CCN000001500000001500FN00000000020220501000001500NNE   20220412130839W42 1W    00000150000000677000000000032W42   HJYHK-J 000000000000OK324030
BI00B32W4    4500192307     2022050318018403980              CAVS 0.5 BR              CCN000001500000001500FN00000000020220501000001500NNE   20220412130839W42 1W    00000150000000677000000000032W42   HJYHK-J 000000000000OK324031
BI00B32W4    4500192307     2022050318018403987              CAVS 0.5 BR/Y            CCN000001500000001500FN00000000020220501000001500NNE   20220412130839W42 1W    00000150000000677000000000032W42   HJYHK-J 000000000000OK324032
BI00B32W4    4500192307     2022050318018403960              CAVS 0.5 G               CCN000001500000001500FN00000000020220501000001500NNE   20220412130839W42 1W    00000150000000677000000000032W42   HJYHK-J 000000000000OK324033
BI00B32W4    4500192307     2022050318018403964              CAVS 0.5 G/W             CCN000001500000001500FN00000000020220501000001500NNE   20220412130839W42 1W    00000150000000677000000000032W42   HJYHK-J 000000000000OK324034
BI00B32W4    4500192307     2022050318018403990              CAVS 0.5 L               CCN000001500000001500FN00000000020220501000001500NNE   20220412130839W42 1W    00000150000000677000000000032W42   HJYHK-J 000000000000OK324035
BI00B32W4    4500192307     2022050318018403995              CAVS 0.5 L/R             CCN000001500000001500FN00000000020220501000001500NNE   20220412130839W42 1W    00000150000000677000000000032W42   HJYHK-J 000000000000OK324036
BI00B32W4    4500192307     2022050318018403994              CAVS 0.5 L/W             CCN000001500000001500FN00000000020220501000001500NNE   20220412130839W42 1W    00000150000000677000000000032W42   HJYHK-J 000000000000OK324037
BI00B32W4    4500192307     2022050318018403997              CAVS 0.5 L/Y             CCN000001500000001500FN00000000020220501000001500NNE   20220412130839W42 1W    00000150000000677000000000032W42   HJYHK-J 000000000000OK324038
BI00B32W4    4500192307     2022050318018403951              CAVS 0.5 O               CCN000001500000001500FN00000000020220501000001500NNE   20220412130839W42 1W    00000150000000677000000000032W42   HJYHK-J 000000000000OK324039
BI00B32W4    4500192307     2022050318018403952              CAVS 0.5 P               CCN000001500000001500FN00000000020220501000001500NNE   20220412130839W42 1W    00000150000000677000000000032W42   HJYHK-J 000000000000OK324040
BI00B32W4    4500192307     2022050318018403950              CAVS 0.5 R               CCN000001500000001500FN00000000020220501000001500NNE   20220412130839W42 1W    00000150000000677000000000032W42   HJYHK-J 000000000000OK324041
BI00B32W4    4500192307     2022050318018403956              CAVS 0.5 R/G             CCN000001500000001500FN00000000020220501000001500NNE   20220412130839W42 1W    00000150000000677000000000032W42   HJYHK-J 000000000000OK324042
BI00B32W4    4500192307     2022050318018403940              CAVS 0.5 W               CCN000001500000001500FN00000000020220501000001500NNE   20220412130839W42 1W    00000150000000677000000000032W42   HJYHK-J 000000000000OK324043
BI00B32W4    4500192307     2022050318018403943              CAVS 0.5 W/B             CCN000001500000001500FN00000000020220501000001500NNE   20220412130839W42 1W    00000150000000677000000000032W42   HJYHK-J 000000000000OK324044
BI00B32W4    4500192307     2022050318018403949              CAVS 0.5 W/L             CCN000001500000001500FN00000000020220501000001500NNE   20220412130839W42 1W    00000150000000677000000000032W42   HJYHK-J 000000000000OK324045
BI00B32W4    4500192307     2022050318018403945              CAVS 0.5 W/R             CCN000003000000003000FN00000000020220501000003000NNE   20220412130839W42 1W    00000150000000677000000000032W42   HJYHK-J 000000000000OK324046
BI00B32W4    4500192307     2022050318018403970              CAVS 0.5 Y               CCN000003000000003000FN00000000020220501000003000NNE   20220412130839W42 1W    00000150000000677000000000032W42   HJYHK-J 000000000000OK324047
BI00B32W4    4500192307     2022050318018404040              CAVS 0.85 W              CCN000001000000001000FN00000000020220501000001000NNE   20220412130839W42 1W    00000100000000965000000000032W42   HJYHK-J 000000000000OK324048
BI00B32W4    4500192307     2022050318018404130              CAVS 1.25 B              CCN000002400000002400FN00000000020220501000002400NNE   20220412130839W42 1W    00000080000001378000000000032W42   HJYHK-J 000000000000OK324049
BI00B32W4    4500192307     2022050318018404150              CAVS 1.25 R              CCN000000800000000800FN00000000020220501000000800NNE   20220412130839W42 1W    00000080000001378000000000032W42   HJYHK-J 000000000000OK324050
BI00B32W4    4500192307     2022050318018404140              CAVS 1.25 W              CCN000000800000000800FN00000000020220501000000800NNE   20220412130839W42 1W    00000080000001378000000000032W42   HJYHK-J 000000000000OK324051
BI00B32W9    4500192152     2022051718018404052              CAVS 0.85 P              CCN000001000000001000FN00000000020220501000001000NNE   20220412140758W93 1W    00000100000000965000000000032W93   HKYHK   000000000000ZD125012
BI00B32W9    4500192152     2022051718009604350              AVS 3 R                  CCN000000400000000400FN00000000020220501000000400NNE   20220412140758W93 1W    00000040000003831600000000032W93   HKYHK   000000000000ZD125010
BI00B32W9    4500192152     2022051718009604450              AVS 5 R                  CCN000000200000000200FN00000000020220501000000200NNE   20220412140758W93 1W    00000020000005981000000000032W93   HKYHK   000000000000ZD125011
BI00B32W9    4500192152     2022051718007703930              AVSS 0.5F B              CCN000001500000001500FN00000000020220501000001500NNE   20220412140758W93 1W    00000150000000674000000000032W93   HKYHK   000000000000ZD125001
BI00B32W9    4500192152     2022051718007703950              AVSS 0.5F R              CCN000001500000001500FN00000000020220501000001500NNE   20220412140758W93 1W    00000150000000674000000000032W93   HKYHK   000000000000ZD125003
BI00B32W9    4500192152     2022051718007703970              AVSS 0.5F Y              CCN000001500000001500FN00000000020220501000001500NNE   20220412140758W93 1W    00000150000000674000000000032W93   HKYHK   000000000000ZD125005
BI00B32W9    4500192152     2022051718007704130              AVSS 1.25F B             CCN000000800000000800FN00000000020220501000000800NNE   20220412140758W93 1W    00000080000001389000000000032W93   HKYHK   000000000000ZD125006
BI00B32W9    4500192152     2022051718007704140              AVSS 1.25F W             CCN000000800000000800FN00000000020220501000000800NNE   20220412140758W93 1W    00000080000001389000000000032W93   HKYHK   000000000000ZD125009
BI00B32W9    4500192152     2022051718007703990              AVSS 0.5F L              CCN000001500000001500FN00000000020220501000001500NNE   20220412140758W93 1W    00000150000000674000000000032W93   HKYHK   000000000000ZD125002
BI00B32W9    4500192152     2022051718007704160              AVSS 1.25F G             CCN000000800000000800FN00000000020220501000000800NNE   20220412140758W93 1W    00000080000001389000000000032W93   HKYHK   000000000000ZD125007
BI00B32W9    4500192152     2022051718007703991              AVSS 0.5F SB             CCN000001500000001500FN00000000020220501000001500NNE   20220412140758W93 1W    00000150000000674000000000032W93   HKYHK   000000000000ZD125004
BI00B32W9    4500192152     2022051718007704153              AVSS 1.25F R/B           CCN000000800000000800FN00000000020220501000000800NNE   20220412140758W93 1W    00000080000001389000000000032W93   HKYHK   000000000000ZD125008
