BI00A1200    2399T51C15     202204297289-5979-30             HOUSING FEMALE ASS'Y     PCN000024192000007056FN00000000020220101000007056NNMD0420220412122747    1N0N  0000002520000085470000106471200    YCYC    005400370024
BI00A1200    2399T52115     202205197289-5979-30             HOUSING FEMALE ASS'Y     PCN000021420000008064FN00000000020220301000008064NNMD0420220412122747    1N0N  0000002520000085470000106471200    YCYC    005400370024
BI00B1200    2399T52317     202204217289-6160-30             HOUSING FEMALE ASS'Y     CCN000002560000001600FN00000000020220501000001600NNMQ0020220412133749    4N0N  0000001600000103740000132041200    YCYC    005500360039
BI00A1200    2399T52115     202204297289-5979-30             HOUSING FEMALE ASS'Y     PCN000004032000007056FN00000000020220301000007056NNMD0420220412122747    1N0N  0000002520000085470000106471200    YCYC    005400370024
BI00A1200    2399T52115     202204307289-5979-30             HOUSING FEMALE ASS'Y     PCN000007056000000000FY00000000020220301000000000NNMD0420220412100809    1N0N  0000002520000085470000106471200    YCYC    005400370024
BI00A1200    2399T51C15     202204227289-5979-30             HOUSING FEMALE ASS'Y     PCN000005040000005040FN00000000020220101000005040NNMD0420220412122747    1N0N  0000002520000085470000106471200    YCYC    005400370024
BI00A1200    2399T52317     202204187289-6160-30             HOUSING FEMALE ASS'Y     CCN000000960000000960FN00000000020220501000000960NNMM0020220412135759    4N0N  0000001600000103740000132041200    YCYC    005500360039
BI00A1200    7960T52401     202205217172-5540-80             SEALED WIRE SEAL         CCN000020000000020000FN00000000020220601000020000NNE   20220412145509    1C0C  0000200000000018600000023441200    YCYC    004300270014
BI00A1200    #7960T52401    202205217172-5625-90             RUBBER STOPPER           CCN000040000000040000FN00000000020220601000040000NNE   20220412145502    2H0H  0000200000000008240000013381200    YCYC    004300270014
BI00A1200    #7960T52401    202205217172-5626-90             RUBBER STOPPER           CCN000040000000040000FN00000000020220601000040000NNE   20220412145502    2H0H  0000200000000007640000012781200    YCYC    004300270014
BI00A1200    #7960T52401    202205217172-5629-80             RUBBER STOPPER           CCN000080000000080000FN00000000020220601000080000NNE   20220412145502    2H0H  0000200000000006000000011111200    YCYC    004300270014
BI00B32DG    RP2061A        202205127283-4576-90             HOUSING FEMALE ASS'Y     CCN000004800000004800FN00000000020220601000004800NNE   20220412122747    4N0N  00000480000000651300000871332DG    BFSAIBF 005500360039
BI00B32DJ    GHT2206B 1     202205057289-3342-30             HOUSING FEMALE ASS'Y     CCN000004800000004800FN00000000020220601000004800NNMD0420220412163448    1N0N  00000240000000686400000901432DJ    RBYIPLRB005500360039
BI00B32DJ    GHT2206B 2     202205197289-3342-30             HOUSING FEMALE ASS'Y     CCN000004800000004800FN00000000020220601000004800NNMD0420220412163514    1N0N  00000240000000686400000901432DJ    RBYIPLRB005500360039
BI00B32D9    #I21905        202204217172-5630-40             RUBBER STOPPER           CCN000020000000020000FN00000000020220501000020000NNMD0420220412122747    2H0H  00002000000000044000000095132D9    UEHESTO 004300270014
BI00B32EJ    T220405P01     202205127116-4037                TERMINAL                 CCN000012000000000000FY00000000020220501000000000NNEQ0820220412112646EJ  4P0P  00000600000000600000000894232EJ    EJYKBO  006400630015
BI00B32EJ    T220408P04     202206027283-5843                CONNECTOR                CCN000030000000007500FN00000000020220501000007500NNED0220220412122747EJ  1N0N  00000150000000889000001132032EJ    EJYKBO  005600390040
BI00B32EJ    T220411P01     202205127283-5574-10             CONNECTOR                CCN000005600000005600FN00000000020220501000005600NNE   20220412122747EJ  4N0N  00000080000001235000001435232EJ    EJYKBO  005500360039
BI00B32EJ    T220411P02     202205127283-5574-10             CONNECTOR                CCN000005600000005600FN00000000020220501000005600NNE   20220412122747EJ  4N0N  00000080000001235000001435232EJ    EJYKBO  005500360039
BI00B32EJ    T220411P02     202205127116-4101-02             TERMINAL                 CCN000012000000000000FY00000000020220501000000000NNEQ0820220412112720EJ  4P0P  00001200000000582000000876232EJ    EJYKBO  006400630015
BI00B32EJ    T220411P03     202205127158-3006-90             RUBBER STOPPER           CCN000020000000020000FN00000000020220501000020000NNE   20220412122747EJ  1C0C  00002000000000330600000386032EJ    EJYKBO  002700430014
BI00B32EJ    T220411P03     202205127158-3070-80             RUBBER STOPPER           CCN000160000000160000FN00000000020220501000160000NNE   20220412122747EJ  1C0C  00004000000000276000000333332EJ    EJYKBO  002700430014
BI00B32EJ    #T220411P03    202205127158-3121-80             WIRE SEAL                CCN000040000000040000FN00000000020220501000040000NNE   20220412122747EJ  2C0C  00002000000000118000000187332EJ    EJYKBO  002700430014
BI00B32EJ    #T220411P03    202205127158-3120-90             CONNECTOR WIRE SEAL      CCN000040000000040000FN00000000020220501000040000NNE   20220412122747EJ  2C0C  00002000000000136000000194032EJ    EJYKBO  002700430014
BI00B32EJ    T220408P04     202206097283-5843                CONNECTOR                CCN000007500000007500FN00000000020220501000007500NNED0220220412122747EJ  1N0N  00000150000000889000001132032EJ    EJYKBO  005600390040
BI00B32EJ    T220408P04     202206167283-5843                CONNECTOR                CCN000007500000007500FN00000000020220501000007500NNED0220220412122747EJ  1N0N  00000150000000889000001132032EJ    EJYKBO  005600390040
BI00B32EJ    T220408P04     202206237283-5843                CONNECTOR                CCN000007500000007500FN00000000020220501000007500NNED0220220412122747EJ  1N0N  00000150000000889000001132032EJ    EJYKBO  005600390040
BI00B32E1    NC2081         202205187116-4122-02             TERMINAL                 CCN000004500000004500FN00000000020220701000004500NNM   20220412133017    4P0P  00000450000000656600000950232E1    SPYSE   006400630015
BI00B32E1    NC2082         202205257116-4122-02             TERMINAL                 CCN000004500000004500FN00000000020220701000004500NNM   20220412133017    4P0P  00000450000000656600000950232E1    SPYSE   006400630015
BI00B32E1    NC2083         202206017116-4122-02             TERMINAL                 CCN000004500000004500FN00000000020220701000004500NNM   20220412133017    4P0P  00000450000000656600000950232E1    SPYSE   006400630015
BI00B32E1    NC2084         202206087116-4122-02             TERMINAL                 CCN000004500000004500FN00000000020220701000004500NNM   20220412133017    4P0P  00000450000000656600000950232E1    SPYSE   006400630015
BI00B32E1    NC2081         202205187154-3176                COVER                    CCN000000100000000100FN00000000020220701000000100NNM   20220412133017    1F0F  00000005000000426000000580332E1    SPYSE   005600390040
BI00B32E1    NC2084         202206087158-3006-90             RUBBER STOPPER           CCN000020000000020000FN00000000020220701000020000NNM   20220412133017    1C0C  00002000000000330600000386032E1    SPYSE   002700430014
BI00B32E1    #NC2081        202205187158-3003-90             RUBBER STOPPER           CCN000020000000020000FN00000000020220701000020000NNM   20220412133014    2C0C  00002000000000250000000306032E1    SPYSE   002700430014
BI00B32E1    #NC2084        202206087158-3004-40             RUBBER STOPPER           CCN000020000000020000FN00000000020220701000020000NNM   20220412133014    2C0C  00002000000000234000000306332E1    SPYSE   002700430014
BI00B32E2    NY206A         202205047116-4122-02             TERMINAL                 CCN000072000000072000FN00000000020220601000072000NNED0720220412132612    4P0P  00000450000000656600000950232E2    SPYSE   006400630015
BI00B32E2    NY206A         202205047116-5750-02             TERMINAL                 CCN000015000000015000FN00000000020220601000015000NNED0720220412132612    4P0P  00001500000000457500000742732E2    SPYSE   006400630015
BI00B32E2    NY2082         202205257017-1183-02             TERMINAL                 CCN000027000000027000FN00000000020220701000027000NNM   20220412133244    4P0P  00002700000001139400001307432E2    SPYSE   005100280028
BI00B32E2    NY2081         202205187116-4121-02             TERMINAL                 CCN000004500000004500FN00000000020220701000004500NNM   20220412133244    4P0P  00000450000000618800000912432E2    SPYSE   006400630015
BI00B32E2    NY2081         202205187116-4122-02             TERMINAL                 CCN000081000000081000FN00000000020220701000081000NNM   20220412133244    4P0P  00000450000000656600000950232E2    SPYSE   006400630015
BI00B32E2    NY2082         202205257116-4122-02             TERMINAL                 CCN000022500000022500FN00000000020220701000022500NNM   20220412133244    4P0P  00000450000000656600000950232E2    SPYSE   006400630015
BI00B32E2    NY2083         202206017116-4122-02             TERMINAL                 CCN000022500000022500FN00000000020220701000022500NNM   20220412133244    4P0P  00000450000000656600000950232E2    SPYSE   006400630015
BI00B32E2    NY2084         202206087116-4122-02             TERMINAL                 CCN000009000000009000FN00000000020220701000009000NNM   20220412133244    4P0P  00000450000000656600000950232E2    SPYSE   006400630015
BI00B32E2    NY2082         202205257126-8851-02             TERMINAL                 CCN000009000000009000FN00000000020220701000009000NNM   20220412133244    1P0P  00000900000000739800001025032E2    SPYSE   006400630015
BI00B32E2    NY2081         202205187158-3166-60             WIRE SEAL                CCN000040000000040000FN00000000020220701000040000NNM   20220412133244    1C0C  00004000000000104000000152432E2    SPYSE   002700430014
BI00B32E2    NY2082         202205257158-3166-60             WIRE SEAL                CCN000040000000040000FN00000000020220701000040000NNM   20220412133244    1C0C  00004000000000104000000152432E2    SPYSE   002700430014
BI00B32E2    NY2083         202206017158-3166-60             WIRE SEAL                CCN000040000000040000FN00000000020220701000040000NNM   20220412133244    1C0C  00004000000000104000000152432E2    SPYSE   002700430014
BI00B32E2    #NY2081        202205187157-3790-90             WIRE SEAL                CCN000020000000020000FN00000000020220701000020000NNM   20220412133242    2C0C  00002000000000176000000232732E2    SPYSE   002700430014
BI00B32E2    #NY2083        202206017158-3003-90             RUBBER STOPPER           CCN000020000000020000FN00000000020220701000020000NNM   20220412133242    2C0C  00002000000000250000000306032E2    SPYSE   002700430014
BI00B32E2    #NY2081        202205187282-3020                CONNECTOR                CCN000001000000001000FN00000000020220701000001000NNM   20220412133242    2N0N  00000100000000984000001145432E2    SPYSE   005500360039
BI00B32E2    #NY2081        202205187282-3243-40             CONNECTOR                CCN000004000000004000FN00000000020220701000004000NNM   20220412133242    2N0N  00000080000001006000001282332E2    SPYSE   005600390040
BI00B32E2    #NY2082        202205257282-3243-40             CONNECTOR                CCN000002400000002400FN00000000020220701000002400NNM   20220412133242    2N0N  00000080000001006000001282332E2    SPYSE   005600390040
BI00B32E2    #NY2083        202206017282-3243-40             CONNECTOR                CCN000002400000002400FN00000000020220701000002400NNM   20220412133242    2N0N  00000080000001006000001282332E2    SPYSE   005600390040
BI00B32E2    #NY2084        202206087282-3243-40             CONNECTOR                CCN000001600000001600FN00000000020220701000001600NNM   20220412133242    2N0N  00000080000001006000001282332E2    SPYSE   005600390040
BI00B32G2    #SA2206AHMW    202205187289-3622-30             HOUSING FEMALE ASS'Y     CCN000002000000002160FN00000000020220601000002160NNE   20220412122747    2N0N  00000043200000839400001038432G2    AISUAI  005400370024
BI00B32G2    SA2206AJMW     202205187196-1481-02             TERMINAL FEMALE          CCN000024000000024000FN00000000020220601000024000NNE   20220412122747    4P0P  00002400000000422400000707632G2    AISUAI  006400630015
BI00B32G2    #SA2206AJMW    202205187172-5631-60             RUBBER STOPPER           CCN000020000000020000FN00000000020220601000020000NNE   20220412122747    2H0H  00002000000000042000000093132G2    AISUAI  004300270014
BI00B32G8    #PATA2061A     202205117124-1026-30             PROTECTOR                CCN000000010000000000FY00000000020220601000000000NNEQ0820220412114029    2F0F  00000300000000828000000986032G8    PSPASI  005500360039
BI00B32H7    #FS22052DMW    202204207172-5630-40             RUBBER STOPPER           CCN000340000000340000FN00000000020220501000340000NNM00020220412122747    2H0H  00002000000000044000000095132H7    FYFSY   004300270014
BI00B32H7    #FS22053DMW    202204207172-5630-40             RUBBER STOPPER           CCN000380000000380000FN00000000020220501000380000NNM00020220412122747    2H0H  00002000000000044000000095132H7    FYFSY   004300270014
BI00B32H7    #FS22061DMW    202205047172-5630-40             RUBBER STOPPER           CCN000400000000400000FN00000000020220601000400000NNMD0420220412122747    2H0H  00002000000000044000000095132H7    FYFSY   004300270014
BI00B32H7    #FS22062DMW    202205117172-5630-40             RUBBER STOPPER           CCN000300000000300000FN00000000020220601000300000NNMD0420220412122747    2H0H  00002000000000044000000095132H7    FYFSY   004300270014
BI00B32M4    #TL2051        202204217172-5630-40             RUBBER STOPPER           CCN000100000000100000FN00000000020220501000100000NNMD0420220412122747    2H0H  00002000000000044000000095132M4    SISAI   004300270014
BI00B32M4    #TP2061A       202205127198-4980-30             HOUSING FEMALE           CCN000001200000001200FN00000000020220601000001200NNE   20220412122747    2F0F  00000120000000840000000921032M4    SISAI   005400370024
BI00B32M8    PM22061 MW     202205117289-3342-30             HOUSING FEMALE ASS'Y     CCN000007200000007200FN00000000020220601000007200NNMD0420220412122747    1N0N  00000240000000686400000901432M8    PMPEMI  005500360039
BI00B32M8    PM22062 MW     202205187289-3342-30             HOUSING FEMALE ASS'Y     CCN000007200000007200FN00000000020220601000007200NNMD0420220412122747    1N0N  00000240000000686400000901432M8    PMPEMI  005500360039
BI00B32M8    PM22063 MW     202205257289-3342-30             HOUSING FEMALE ASS'Y     CCN000007200000007200FN00000000020220601000007200NNMD0420220412122747    1N0N  00000240000000686400000901432M8    PMPEMI  005500360039
BI00B32N3    NBT206 A1      202204287116-4415-02             TERMINAL                 CCN000047500000000000FY00000000020220601000000000NNMQ0820220412145207    4P0P  00003800000000596600000925732N3    ABYIPL-B006400630017
BI00B32N3    NBT206 A2      202205057116-4415-02             TERMINAL                 CCN000047500000000000FY00000000020220601000000000NNMQ0820220412145220    4P0P  00003800000000596600000925732N3    ABYIPL-B006400630017
BI00B32N3    NBT206 A3      202205127116-4415-02             TERMINAL                 CCN000142500000000000FY00000000020220601000000000NNMQ0820220412145231    4P0P  00003800000000596600000925732N3    ABYIPL-B006400630017
BI00B32N3    NBT206 A4      202205197116-4415-02             TERMINAL                 CCN000047500000000000FY00000000020220601000000000NNMQ0820220412145242    4P0P  00003800000000596600000925732N3    ABYIPL-B006400630017
BI00B32N3    NBT206 A1      202204287289-3342-30             HOUSING FEMALE ASS'Y     CCN000024000000024000FN00000000020220601000024000NNMD0420220412164041    1N0N  00000240000000686400000901432N3    ABYIPL-B005500360039
BI00B32N3    NBT206 A2      202205057289-3342-30             HOUSING FEMALE ASS'Y     CCN000072000000072000FN00000000020220601000072000NNMD0420220412164238    1N0N  00000240000000686400000901432N3    ABYIPL-B005500360039
BI00B32N3    NBT206 A3      202205127289-3342-30             HOUSING FEMALE ASS'Y     CCN000004800000004800FN00000000020220601000004800NNMD0420220412164310    1N0N  00000240000000686400000901432N3    ABYIPL-B005500360039
BI00B32N3    NBT206 A4      202205197289-3342-30             HOUSING FEMALE ASS'Y     CCN000055200000055200FN00000000020220601000055200NNMD0420220412164432    1N0N  00000240000000686400000901432N3    ABYIPL-B005500360039
BI00B32N3    NBT206 A4      202205197289-3342-90             HOUSING FEMALE ASS'Y     CCN000004800000004800FN00000000020220601000004800NNMD0420220412164432    1N0N  00000240000000686400000901432N3    ABYIPL-B005500360039
BI00A32P8    TAPI-2055      202204187116-4100-02             TERMINAL                 CCN000060000000060000FY00006000020220501000000000NNMM0020220412152729    4P0P  00001500000000696000000990232P8    YIYTM   006400630015
BI00B32P8    #TAPI-2052     202204207172-5630-40             RUBBER STOPPER           CCN000200000000200000FN00000000020220501000200000NNM00020220412122747    2H0H  00002000000000044000000095132P8    YIYTM   004300270014
BI00B32P8    TAPI-2061      202205047116-4100-02             TERMINAL                 CCN000060000000045000FN00000000020220601000045000NNMQ0020220412140743    4P0P  00001500000000696000000990232P8    YIYTM   006400630015
BI00B32P8    TAPI-206B1     202205257283-4855-40             CONNECTOR HOUSING        CCN000002000000000000FY00000000020220601000000000NNMQ0820220412102238    4N0N  00000240000001188400001400032P8    YIYTM   005600360039
BI00A32P8    TAPI-2061      202204187116-4100-02             TERMINAL                 CCN000015000000015000FY00001500020220601000000000NNMM0020220412152729    4P0P  00001500000000696000000990232P8    YIYTM   006400630015
BI00B32R4    HZYSW2206011   202205247116-1230                TERMINAL                 CCN000013500000013500FN00000000020220601000013500NNM   20220412160500    4P0P  00001350000000664200000952432R4    HZHZYME 006400630015
BI00B32R7    R-TAP220160    202206027289-9553-50             SEALED ASSY FEMALE       CCN000041160000041160FN00000000020220401000041160NNED0120220412122747    4N0N  00000294000001108100001520632R7    IVYCIC  005500360039
BI00B32R7    R-TAP220162    202206027C98-1145-4W             SQUIB SUB ASS'Y          CCN000020000000020000FN00000000020220401000020000NNED0120220412122747    4N0N  00001000000000787900000944932R7    IVYCIC  005400370024
BI00B32R7    R-TAP220162    202206027C98-1149-3W             SQUIB SUB ASS'Y          CCN000020000000020000FN00000000020220401000020000NNED0120220412122747    4N0N  00001000000000785000000922032R7    IVYCIC  005400370024
BI00B32R7    R-TAP220163    202206097C98-1145-4W             SQUIB SUB ASS'Y          CCN000050000000050000FN00000000020220401000050000NNED0120220412122747    4N0N  00001000000000787900000944932R7    IVYCIC  005400370024
BI00B32R7    R-TAP220163    202206097C98-1149-3W             SQUIB SUB ASS'Y          CCN000050000000050000FN00000000020220401000050000NNED0120220412122747    4N0N  00001000000000785000000922032R7    IVYCIC  005400370024
BI00B32R7    R-TAP220164    202206167C98-1145-4W             SQUIB SUB ASS'Y          CCN000050000000050000FN00000000020220401000050000NNED0120220412122747    4N0N  00001000000000787900000944932R7    IVYCIC  005400370024
BI00B32R7    R-TAP220164    202206167C98-1149-3W             SQUIB SUB ASS'Y          CCN000050000000050000FN00000000020220401000050000NNED0120220412122747    4N0N  00001000000000785000000922032R7    IVYCIC  005400370024
BI00B32R8    TT2206BYMW     202205037283-1928-80             CONNECTOR                CCN000002000000002000FN00000000020220601000002000NNE   20220412153041    4N0N  00000200000001180000001358332R8    TTTJY   005500360039
BI00B32U9    TP0395S        202206027222-4220-30             CONNECTOR                CCN000006750000006750FN00000000020220601000006750NNED0720220412165408U9  4N0N  00000075000001219000001384032U9    YNYNA-E 005600390040
BI00A32W4    4500190229     202205057116-4103-02             TERMINAL                 CCN000012000000012000FN00000000020220501000012000NNEM0020220412141904W4664P0P  00001200000000571200000859432W466  HJYHK   006400630015
BI00A32W4    4500190668     202205127116-4103-02             TERMINAL                 CCN000012000000012000FN00000000020220501000012000NNEM0020220412141956W4664P0P  00001200000000571200000859432W466  HJYHK   006400630015
BI00A32W4    4500191365     202204227114-4101-02             TERMINAL                 CCN000015000000015000FN00000000020220501000015000NNED0020220412143308W4194P0P  00001500000000675000001003632W419  HJYHK   006400630017
BI00A32W4    4500191778     202204227114-4101-02             TERMINAL                 CCN000015000000015000FN00000000020220501000015000NNED0020220412142257W4194P0P  00001500000000675000001003632W419  HJYHK   006400630017
BI00B32W4    4500189564     202204217289-9553-50             SEALED ASSY FEMALE       CCN000011760000011760FN00000000020220401000011760NNE00020220412151139W4D44N0N  00000294000001108100001520632W4D4  HJYHK-J 005500360039
BI00B32W4    4500192161     202206027288-9556-30             SEALED ASSY MALE         CCN000046800000046800FN00000000020220601000046800NNE   20220412122747W4O74N0N  00000072000000537900000786332W4O7  H YHK-J 005500360039
BI00A32W4    4500192176     202205237116-4111-02             TERMINAL                 CCN000022500000022500FN00000000020220501000022500NNE   20220412122747W4524P0P  00000750000000529500000817732W452  HJYHK   006400630015
BI00B32W4    4500192178     202205267116-1685-02             TERMINAL                 CCN000168000000168000FN00000000020220501000168000NNE   20220412122747W4D44P0P  00002400000000897600001065232W4D4  HJYHK-J 005100280028
BI00B32W4    4500192178     202205267196-0805-02             TERMINAL FEMALE          CCN000045000000045000FN00000000020220501000045000NNE   20220412122747W4D44P0P  00002250000000558000000843232W4D4  HJYHK-J 006400630015
BI00B32W4    4500192178     202205267388-2978-30             HOUSING MALE ASS'Y       CCN000010560000010560FN00000000020220501000010560NNE   20220412122747W4D41N0N  00000048000000742000001122032W4D4  HJYHK-J 005500360039
BI00B32W4    4500192178     202205267288-6547                CONNECTOR MALE ASS'Y     CCN000002250000002250FN00000000020220501000002250NNE   20220412122747W4D44N0N  00000075000001205300001340332W4D4  HJYHK-J 005400370024
BI00B32W4    4500192178     202205267327-6581-3W             BATTERY FUSE             CCN000001656000001656FN00000000020220501000001656NNE   20220412122747W4D44N0N  00000007200001230000001422532W4D4  HJYHK-J 005500360039
BI00B32W4    4500192178     202205267287-9323                UNSEALED HOUSING SUB     CCN000014400000014400FN00000000020220501000014400NNE   20220412122747W4D41N0N  00000240000000537600000690032W4D4  HJYHK-J 005600390023
BI00B32W4    4500192178     202205267289-6547                HOUSING FEMALE ASS'Y     CCN000002400000002400FN00000000020220501000002400NNE   20220412122747W4D41N0N  00000240000001152000001362032W4D4  HJYHK-J 005500360039
BI00B32W4    4500192178     202205267298-1145-4W             SQUIB SUB ASS'Y          CCN000010000000010000FN00000000020220501000010000NNE   20220412122747W4D44N0N  00001000000000787900000944932W4D4  HJYHK-J 005400370024
BI00B32W4    4500192178     202205267289-3342-90             HOUSING FEMALE ASS'Y     CCN000021600000021600FN00000000020220501000021600NNE   20220412122747W4D41N0N  00000240000000686400000901432W4D4  HJYHK-J 005500360039
BI00B32W4    4500192178     202205267289-3342-40             HOUSING FEMALE ASS'Y     CCN000004800000004800FN00000000020220501000004800NNE   20220412122747W4D41N0N  00000240000000686400000901432W4D4  HJYHK-J 005500360039
BI00B32W4    4500192178     202205267286-4097                CONNECTOR MALE ASS'Y     CCN000008000000008000FN00000000020220501000008000NNE   20220412122747W4D41N0N  00000160000000768000000978032W4D4  HJYHK-J 005500360039
BI00B32W4    4500192178     202205267470-5237                J/B ASS'Y                CCN000000648000000648FN00000000020220501000000648NNE   20220412122747W4D41J0J  00000002400001320000001570032W4D4  HJYHK-J 005500360039
BI00B32W4    4500192178     202205267289-6868-30             SEALED ASSY FEMALE       CCN000007560000007560FN00000000020220501000007560NNE   20220412122747W4D44N0N  00000252000000839200001119232W4D4  HJYHK-J 005500360039
BI00B32W4    4500192178     202205267172-5540-80             SEALED WIRE SEAL         CCN000020000000020000FN00000000020220501000020000NNE   20220412122747W4D41C0C  00002000000000186000000234432W4D4  HJYHK-J 004300270014
BI00B32W4    #4500192178    202205267189-2978-30             HOUSING FEMALE           CCN000010500000010500FN00000000020220501000010500NNE   20220412122747W4D42F0F  00000150000000966900001096932W4D4  HJYHK-J 005400370024
BI00B32W4    #4500192178    202205267289-2913-30             HOUSING FEMALE ASS'Y     CCN000004500000004500FN00000000020220501000004500NNE   20220412122747W4D42N0N  00000150000000907500001034532W4D4  HJYHK-J 005400370024
BI00B32W4    4500192215     202208047158-3006-90             RUBBER STOPPER           CCN000020000000020000FN00000000020220801000020000NNE   20220412122747W4H31C0C  00002000000000330600000386032W4H3  HJYHK-J 002700430014
BI00B32W4    4500192216     202209017158-3006-90             RUBBER STOPPER           CCN000040000000040000FN00000000020220901000040000NNE   20220412122747W4H31C0C  00002000000000330600000386032W4H3  HJYHK-J 002700430014
BI00B32W4    4500192217     202209017116-1180                TERMINAL                 CCN000019500000019500FN00000000020220901000019500NNE   20220412122747W4H31P0P  00001950000000618200000903432W4H3  HJYHK-J 006400630015
BI00B32W4    4500192218     202209017283-1020                CONNECTOR                CCN000012000000012000FN00000000020220901000012000NNE   20220412122747W4H34N0N  00000600000000840000001049332W4H3  HJYHK-J 005600390040
BI00B32W4    4500192219     202206027158-3167-80             WIRE SEAL                CCN000040000000040000FN00000000020220601000040000NNE   20220412122747W9151C0C  00002000000000048000000109032W915  HJYHK   002700430014
BI00B32W4    4500192220     202209017283-5846                HOUSING                  CCN000009000000009000FN00000000020220901000009000NNE   20220412122747W4H31N0N  00000150000000885000001102032W4H3  HJYHK-J 005600390040
BI00B32W6    #SW22052QMW    202204207172-5630-40             RUBBER STOPPER           CCN000020000000020000FN00000000020220501000020000NNM00020220412122747    2H0H  00002000000000044000000095132W6    SYSYA-WJ004300270014
BI00B32W7    SC22061JMW     202205257C89-6868-30             SEALED ASSY FEMALE       CCN000017640000017640FN00000000020220601000017640NNMD0420220412122747    4N0N  00000252000000839200001119232W7    SYSYA-CH005500360039
BI00B32W7    SC22062JMW     202206017C89-6868-30             SEALED ASSY FEMALE       CCN000017640000017640FN00000000020220601000017640NNMD0420220412122747    4N0N  00000252000000839200001119232W7    SYSYA-CH005500360039
BI00B32W9    4500192153     202205177114-4231-02             TERMINAL                 CCN000018000000018000FN00000000020220501000018000NNE   20220412122747W93 4P0P  00001800000000554400000848032W93   HKYHK   006400630015
BI00B32W9    4500192162     202205247158-3022-80             RUBBER STOPPER           CCN000010000000010000FN00000000020220501000010000NNE   20220412122747W9  1C0C  00000500000000467500000524032W9    HKYHK   002700430014
BI00B32W9    4500192167     202205317158-3167-80             WIRE SEAL                CCN000020000000020000FN00000000020220501000020000NNE   20220412122747W9  1C0C  00002000000000048000000109032W9    HKYHK   002700430014
BI00B32W9    #4500192211    202206077158-3003-90             RUBBER STOPPER           CCN000020000000020000FN00000000020220601000020000NNE   20220412122747W9  2C0C  00002000000000250000000306032W9    HKYHK   002700430014
BI00B32W9    4500192230     202205247287-7975-4W             SQUIB SUB ASS'Y          CCN000200000000200000FN00000000020220501000200000NNE   20220412122747W9  4N0N  00001000000000837000001017032W9    HKYHK   005400370024
BI00B32W9    4500192230     202205247172-5540-80             SEALED WIRE SEAL         CCN000600000000600000FN00000000020220501000600000NNE   20220412122747W9  1C0C  00002000000000186000000234432W9    HKYHK   004300270014
BI00B32W9    4500192230     202205247196-0805-02             TERMINAL FEMALE          CCN000630000000630000FN00000000020220501000630000NNE   20220412122747W9  4P0P  00002250000000558000000843232W9    HKYHK   006400630015
BI00B32W9    4500192230     202205247289-6868-30             SEALED ASSY FEMALE       CCN000100800000100800FN00000000020220501000100800NNE   20220412122747W9  4N0N  00000252000000839200001119232W9    HKYHK   005500360039
BI00B32W9    4500192230     202205247298-1145-4W             SQUIB SUB ASS'Y          CCN000300000000300000FN00000000020220501000300000NNE   20220412122747W9  4N0N  00001000000000787900000944932W9    HKYHK   005400370024
BI00B32W9    4500192230     202205247174-1849-70             COVER                    CCN000300000000300000FN00000000020220501000300000NNE   20220412122747W9  1F0F  00002500000000622500000761932W9    HKYHK   005400370024
BI00B32W9    4500192230     202205247289-3342-30             HOUSING FEMALE ASS'Y     CCN000019200000019200FN00000000020220501000019200NNE   20220412122747W9  1N0N  00000240000000686400000901432W9    HKYHK   005500360039
BI00B32W9    4500192230     202205247298-4094-10             HOUSING FEMALE ASS'Y     CCN000006760000006760FN00000000020220501000006760NNE   20220412122747W9  4N0N  00000338000001097400001358732W9    HKYHK   005400370024
BI00B32W9    4500192230     202205247298-7215-10             SEALED ASSY FEMALE       CCN000002184000002184FN00000000020220501000002184NNE   20220412122747W9  4N0N  00000218400000983000001291532W9    HKYHK   005500360039
BI00B32W9    #4500192230    202205247198-1373-60             HOUSING FEMALE           CCN000048000000048000FN00000000020220501000048000NNE   20220412122747W9  2F0F  00000200000000819400000947432W9    HKYHK   005400370024
BI00B32Y4    ITA32082       202205057158-3166-60             WIRE SEAL                CCN000120000000120000FN00000000020220801000120000NNE   20220412153446    1C0C  00004000000000104000000152432Y4    BIYAB-I 002700430014
BI00B32Y4    ITA32082       202205057158-3167-80             WIRE SEAL                CCN000080000000080000FN00000000020220801000080000NNE   20220412153446    1C0C  00002000000000048000000109032Y4    BIYAB-I 002700430014
BI00B32Y4    ITA32082       202205057158-3169-40             SEALING PLUG             CCN000080000000080000FN00000000020220801000080000NNE   20220412153446    1C0C  00004000000000156000000204132Y4    BIYAB-I 004300260014
BI00B32Y4    ITA32082       202205057289-4696-30             HOUSING FEMALE ASS'Y     CCN000002000000002000FN00000000020220801000002000NNE   20220412153446    4N0N  00000200000000913400001055432Y4    BIYAB-I 005400370024
BI00B32Y4    ITA32082       202205057327-6654-3W             BATTERY FUSE             CCN000001000000001056FN00000000020220801000001056NNE   20220412153446    4N0N  00000009600001132300001312432Y4    BIYAB-I 005500360039
BI00B32Y4    #ITA32082      202205057158-3654-80             WIRE TUBE                CCN000004000000040000FN00000000020220801000040000NNE   20220412153450    2H0H  00004000000000104000000152232Y4    BIYAB-I 004300270014
BI00B32Y4    #ITA32082      202205057183-7725-40             HOUSING                  CCN000006000000006000FN00000000020220801000006000NNE   20220412153450    2F0F  00000600000000840000001040032Y4    BIYAB-I 005600390040
