BI00A1200    2399T51A22     202203047289-5979-30             HOUSING FEMALE ASS'Y     PCN000014868000004032FN00000000020211201000004032NNMM0020220210130658    1N0N  0000002520000085470000106471200    YCYC    005400370024
BI00B1200    2399T51A22     202203247289-5979-30             HOUSING FEMALE ASS'Y     CCN000016632000011844FN00000000020211201000011844NNMD0420220210131502    1N0N  0000002520000085470000106471200    YCYC    005400370024
BI00A1200    Y022C50013     202203177289-5979-30             HOUSING FEMALE ASS'Y     PCN000000252000000252FN00000000020220301000000252NNMD0020220210122515    1N0N  0000002520000085470000106471200    YCYC    005400370024
BI00A1200    Y022C50024     202203177289-5979-30             HOUSING FEMALE ASS'Y     PCN000000252000000252FN00000000020220301000000252NNMD0020220210122515    1N0N  0000002520000085470000106471200    YCYC    005400370024
BI00A1200    2399T52114     202202227289-5979-30             HOUSING FEMALE ASS'Y     PCN000064512000006048FN00000000020220301000006048NNMM0020220210122515    1N0N  0000002520000085470000106471200    YCYC    005400370024
BI00A1200    2399T52114     202202257289-5979-30             HOUSING FEMALE ASS'Y     PCN000004032000004032FN00000000020220301000004032NNMM0020220210122515    1N0N  0000002520000085470000106471200    YCYC    005400370024
BI00A1200    2399T52114     202202287289-5979-30             HOUSING FEMALE ASS'Y     PCN000002520000004032FN00000000020220301000004032NNMM0020220210122515    1N0N  0000002520000085470000106471200    YCYC    005400370024
BI00A1200    2399T52114     202203037289-5979-30             HOUSING FEMALE ASS'Y     PCN000004032000003024FN00000000020220301000003024NNMM0020220210122515    1N0N  0000002520000085470000106471200    YCYC    005400370024
BI00A1200    2399T52114     202203047289-5979-30             HOUSING FEMALE ASS'Y     PCN000003528000000000FY00000000020220301000000000NNMM0020220210115808    1N0N  0000002520000085470000106471200    YCYC    005400370024
BI00B1200    7360T52206     202203247288-3334-30             HOUSING MALE             CCN000003000000003000FN00000000020220301000003000NNED0420220210122515    4N0N  0000015000000086700000101201200    YCYC    005400370024
BI00B1200    7360T52206     202203247288-3338-30             HOUSING MALE             CCN000012000000012000FN00000000020220301000012000NNED0420220210122515    4N0N  0000015000000086610000101201200    YCYC    005400370024
BI00B1200    7360T52206     202205127288-3340-30             HOUSING MALE             CCN000007500000007500FN00000000020220301000007500NNED0420220210122515    4N0N  0000015000000086150000100641200    YCYC    005400370024
BI00B1200    8870T52201     202205127288-3340-30             HOUSING MALE             CCN000001500000001500FN00000000020220401000001500NNED0420220210122515    4N0N  0000015000000086150000100641200    YCYC    005400370024
BI00B1200    8870T52202     202205127288-3340-30             HOUSING MALE             CCN000001500000001500FN00000000020220501000001500NNED0420220210122515    4N0N  0000015000000086150000100641200    YCYC    005400370024
BI00B1200    8870T52203     202206027289-3342                HOUSING FEMALE ASS'Y     CCN000002400000002400FN00000000020220501000002400NNED0420220210122515    1N0N  0000024000000068640000090141200    YCYC    005500360039
BI00B1200    Y12A2701X      202203247288-3338-30             HOUSING MALE             CCN000001500000001500FN00000000020220301000001500NNED0420220210122515    4N0N  0000015000000086610000101201200    YCYC    005400370024
BI00B1200    #7860T52209    202203317189-3031                HOUSING FEMALE           CCN000004800000004800FN00000000020220501000004800NNM   20220210122515    2F0F  0000024000000092880000136581200    YCYC    005500360039
BI00B1200    O022F50009     202205057116-4100-02             TERMINAL                 CCN000030000000030000FN00000000020220601000030000NNE   20220210122515    4P0P  0000150000000069600000099021200    YCYC    006400630015
BI00B1200    2399T52232     202205057116-4100-02             TERMINAL                 CCN000360000000360000FN00000000020220501000360000NNE   20220210122515    4P0P  0000150000000069600000099021200    YCYC    006400630015
BI00A1200    2399T51A22     202203037289-5979-30             HOUSING FEMALE ASS'Y     PCN000001008000001008FN00000000020211201000001008NNMD0420220210131319    1N0N  0000002520000085470000106471200    YCYC    005400370024
BI00B32AF    JTB2023        202201217289-3342-30             HOUSING FEMALE ASS'Y     CCN000048000000024000FY00002400020220201000000000NNMD0420220210133547    1N0N  00000240000000686400000901432AF    HBYHVTB 005500360039
BI00B32AF    JTB2025        202202187289-3342-30             HOUSING FEMALE ASS'Y     CCN000048000000048000FN00000000020220201000048000NNM00020220210133632    1N0N  00000240000000686400000901432AF    HBYHVTB 005500360039
BI00B32AF    JTB2023        202202187289-3342-30             HOUSING FEMALE ASS'Y     CCN000024000000024000FN00000000020220201000024000NNMD0420220210133547    1N0N  00000240000000686400000901432AF    HBYHVTB 005500360039
BI00B32CG    S220206-S      202204207283-9458-30             CONNECTOR                CCN000000400000000400FN00000000020220401000000400NNE   20220210145814    4N0N  00000020000000792000000984332CG    ASASIACO005600390023
BI00B32CG    S220206-S      202204207116-4025                TERMINAL                 CCN000016000000016000FN00000000020220401000016000NNE   20220210145814    4P0P  00001600000000644800000975132CG    ASASIACO006400630017
BI00B32CG    S220206-S      202204207116-4122-02             TERMINAL                 CCN000009000000009000FN00000000020220401000009000NNE   20220210145814    4P0P  00000450000000656600000950232CG    ASASIACO006400630015
BI00B32CG    S220206-S      202204207116-4121-02             TERMINAL                 CCN000031500000031500FN00000000020220401000031500NNE   20220210145814    4P0P  00000450000000618800000912432CG    ASASIACO006400630015
BI00B32CG    S220206-S      202204207114-4111-02             TERMINAL                 CCN000012000000012000FN00000000020220401000012000NNE   20220210145814    4P0P  00001200000000758400001087032CG    ASASIACO006400630017
BI00B32CG    #S220207-S     202204207158-3121-80             WIRE SEAL                CCN000080000000080000FN00000000020220201000080000NNE   20220210145940    2C0C  00002000000000118000000187332CG    ASASIACO002700430014
BI00B32CH    SJ22034HMW     202202247327-6870-30             MULTI FUSE               CCN000015552000015552FN00000000020220301000015552NNMD0320220210163726    4N0N  00000028800001015200001181132CH    SJSAMIJF005400370024
BI00B32CH    SJ22035HMW     202203037327-6880-30             MULTI FUSE               CCN000016992000016992FN00000000020220301000016992NNMD0320220210163810    4N0N  00000028800001012600001178532CH    SJSAMIJF005400370024
BI00B32CH    SJ22035HMW     202203037327-6884-30             MULTI FUSE               CCN000023328000011520FN00000000020220301000011520NNMD0320220210163908    4N0N  00000028800000988900001154832CH    SJSAMIJF005400370024
BI00B32CH    SJ22044HMW     202204077C89-6868-30             SEALED ASSY FEMALE       CCN000012600000012600FN00000000020220401000012600NNMD0420220210122515    4N0N  00000252000000839200001119232CH    SJSAMIJF005500360039
BI00B32CH    SJ22043HMW     202204077327-6870-30             MULTI FUSE               CCN000008928000008928FN00000000020220401000008928NNMD0420220210122515    4N0N  00000028800001015200001181132CH    SJSAMIJF005400370024
BI00B32CH    SJ22044HMW     202204217327-6870-30             MULTI FUSE               CCN000013536000013536FN00000000020220401000013536NNMD0420220210122515    4N0N  00000028800001015200001181132CH    SJSAMIJF005400370024
BI00B32CH    SJ22043HMW     202204077327-6880-30             MULTI FUSE               CCN000006336000006336FN00000000020220401000006336NNMD0420220210122515    4N0N  00000028800001012600001178532CH    SJSAMIJF005400370024
BI00B32CH    SJ22044HMW     202204217327-6880-30             MULTI FUSE               CCN000012960000012960FN00000000020220401000012960NNMD0420220210122515    4N0N  00000028800001012600001178532CH    SJSAMIJF005400370024
BI00B32CH    SJ22042HMW     202203317327-6884-30             MULTI FUSE               CCN000003168000003168FN00000000020220401000003168NNMD0420220210122515    4N0N  00000028800000988900001154832CH    SJSAMIJF005400370024
BI00B32CH    SJ22043HMW     202204217327-6884-30             MULTI FUSE               CCN000027072000027072FN00000000020220401000027072NNMD0420220210122515    4N0N  00000028800000988900001154832CH    SJSAMIJF005400370024
BI00B32CH    SJ22044HMW     202204217327-6884-30             MULTI FUSE               CCN000020736000010656FN00000000020220401000010656NNMD0420220210122515    4N0N  00000028800000988900001154832CH    SJSAMIJF005400370024
BI00B32CH    SJ22041HMW     202203107327-6939-30             MULTI FUSE               CCN000000864000000864FN00000000020220401000000864NNMD0420220210122515    4N00  00000028800000992200001158132CH    SJSAMIJF005400370024
BI00B32CH    SJ22042HMW     202203177327-6939-30             MULTI FUSE               CCN000000864000000864FN00000000020220401000000864NNMD0420220210122515    4N00  00000028800000992200001158132CH    SJSAMIJF005400370024
BI00B32CH    SJ22043HMW     202203247327-6939-30             MULTI FUSE               CCN000000864000000864FN00000000020220401000000864NNMD0420220210122515    4N00  00000028800000992200001158132CH    SJSAMIJF005400370024
BI00B32CH    SJ22044HMW     202203317327-6939-30             MULTI FUSE               CCN000000288000000288FN00000000020220401000000288NNMD0420220210122515    4N00  00000028800000992200001158132CH    SJSAMIJF005400370024
BI00B32CH    SJ22041HMW     202203107327-6941-30             MULTI FUSE               CCN000000864000000864FN00000000020220401000000864NNMD0420220210122515    4N00  00000028800001014400001180332CH    SJSAMIJF005400370024
BI00B32CH    SJ22042HMW     202203177327-6941-30             MULTI FUSE               CCN000000864000000864FN00000000020220401000000864NNMD0420220210122515    4N00  00000028800001014400001180332CH    SJSAMIJF005400370024
BI00B32CH    SJ22043HMW     202203247327-6941-30             MULTI FUSE               CCN000000864000000864FN00000000020220401000000864NNMD0420220210122515    4N00  00000028800001014400001180332CH    SJSAMIJF005400370024
BI00B32CH    SJ22044HMW     202203317327-6941-30             MULTI FUSE               CCN000000288000000288FN00000000020220401000000288NNMD0420220210122515    4N00  00000028800001014400001180332CH    SJSAMIJF005400370024
BI00B32CH    SJ22042SMW     202203247288-3340-30             HOUSING MALE             CCN000006000000006000FN00000000020220401000006000NNMD0420220210122515    4N0N  00000150000000861500001006432CH    SJSAMIJF005400370024
BI00B32CH    SJ22041SMW     202203177289-6868-30             SEALED ASSY FEMALE       CCN000002520000002520FN00000000020220401000002520NNMD0420220210122515    4N0N  00000252000000839200001119232CH    SJSAMIJF005500360039
BI00B32CH    SJ22044HMW     202204287327-6884-30             MULTI FUSE               CCN000010080000010080FN00000000020220401000010080NNMD0420220210122515    4N0N  00000028800000988900001154832CH    SJSAMIJF005400370024
BI00B32CH    SJ22035HMW     202203107327-6884-30             MULTI FUSE               CCN000011808000011808FN00000000020220301000011808NNMD0220220210163925    4N0N  00000028800000988900001154832CH    SJSAMIJF005400370024
BI00B32DE    #TCT2031       202202177172-5629-80             RUBBER STOPPER           CCN000020000000020000FN00000000020220301000020000NNM00020220210160049    2H0H  00002000000000060000000111132DE    TVYEV-TV004300270014
BI00B32DE    #TCT203A       202202177172-5629-80             RUBBER STOPPER           CCN000020000000020000FN00000000020220301000020000NNE00020220210160108    2H0H  00002000000000060000000111132DE    TVYEV-TV004300270014
BI00B32DE    #TCTL2041      202203107154-5597-30             CASSETTE R/B             CCN000007200000007200FN00000000020220401000007200NNM   20220210141140    2F0F  00000080000000736000000952032DE    TVYEV-TV005500360039
BI00B32DE    #TCTL2042      202203247154-5597-30             CASSETTE R/B             CCN000012800000012800FN00000000020220401000012800NNM   20220210141140    2F0F  00000080000000736000000952032DE    TVYEV-TV005500360039
BI00B32DE    #TCTL2041      202203107157-8991-80             RUBBER STOPPER           CCN000100000000100000FN00000000020220401000100000NNM   20220210141140    2C0C  00002000000000214000000271032DE    TVYEV-TV002700430014
BI00B32DE    #TCTL2042      202203247157-8991-80             RUBBER STOPPER           CCN000120000000120000FN00000000020220401000120000NNM   20220210141140    2C0C  00002000000000214000000271032DE    TVYEV-TV002700430014
BI00B32DE    #TCTL2041      202203107158-3003-90             RUBBER STOPPER           CCN000020000000020000FN00000000020220401000020000NNM   20220210141140    2C0C  00002000000000250000000306032DE    TVYEV-TV002700430014
BI00B32DE    #TCTL2042      202203247158-3003-90             RUBBER STOPPER           CCN000300000000300000FN00000000020220401000300000NNM   20220210141140    2C0C  00002000000000250000000306032DE    TVYEV-TV002700430014
BI00B32DE    #TCTL2041      202203107158-3004-40             RUBBER STOPPER           CCN000040000000040000FN00000000020220401000040000NNM   20220210141140    2C0C  00002000000000234000000306332DE    TVYEV-TV002700430014
BI00B32DE    #TCTL2042      202203247158-3004-40             RUBBER STOPPER           CCN000080000000080000FN00000000020220401000080000NNM   20220210141140    2C0C  00002000000000234000000306332DE    TVYEV-TV002700430014
BI00B32DE    #TCTL2042      202203247158-3005-80             RUBBER STOPPER           CCN000020000000020000FN00000000020220401000020000NNM   20220210141140    2H0H  00002000000000210000000268732DE    TVYEV-TV002700430014
BI00B32DE    #TCTL2041      202203107158-3007-10             RUBBER STOPPER           CCN000040000000040000FN00000000020220401000040000NNM   20220210141140    2H0H  00002000000000308000000362732DE    TVYEV-TV002700430014
BI00B32DE    #TCTL2042      202203247158-3007-10             RUBBER STOPPER           CCN000080000000080000FN00000000020220401000080000NNM   20220210141140    2H0H  00002000000000308000000362732DE    TVYEV-TV002700430014
BI00B32DE    #TCTL2041      202203107158-3008-80             RUBBER STOPPER           CCN000020000000020000FN00000000020220401000020000NNM   20220210141140    2C0C  00002000000000288000000343032DE    TVYEV-TV004300270014
BI00B32DE    #TCTL2042      202203247158-3008-80             RUBBER STOPPER           CCN000040000000040000FN00000000020220401000040000NNM   20220210141140    2C0C  00002000000000288000000343032DE    TVYEV-TV004300270014
BI00B32DE    #TCTL2041      202203107158-3015-10             RUBBER STOPPER           CCN000030000000030000FN00000000020220401000030000NNM   20220210141140    2C0C  00001000000000419500000474032DE    TVYEV-TV002700430014
BI00B32DE    #TCTL2042      202203247158-3015-10             RUBBER STOPPER           CCN000070000000070000FN00000000020220401000070000NNM   20220210141140    2C0C  00001000000000419500000474032DE    TVYEV-TV002700430014
BI00B32DE    #TCTL2042      202203247158-3017                RUBBER STOPPER           CCN000020000000020000FN00000000020220401000020000NNM   20220210141140    2C0C  00001000000000375500000435032DE    TVYEV-TV002700430014
BI00B32DE    #TCTL2041      202203107158-3120-90             CONNECTOR WIRE SEAL      CCN000100000000100000FN00000000020220401000100000NNM   20220210141140    2C0C  00002000000000136000000194032DE    TVYEV-TV002700430014
BI00B32DE    #TCTL2042      202203247158-3120-90             CONNECTOR WIRE SEAL      CCN000120000000120000FN00000000020220401000120000NNM   20220210141140    2C0C  00002000000000136000000194032DE    TVYEV-TV002700430014
BI00B32DE    #TCTL2042      202203247183-0520                HOUSING FEMALE           CCN000003000000003000FN00000000020220401000003000NNM   20220210141140    2F0F  00000300000000729000000874032DE    TVYEV-TV005400370024
BI00B32DE    #TCTL2042      202203247183-0521                HOUSING                  CCN000004800000004800FN00000000020220401000004800NNM   20220210141140    2F0F  00000480000001367500001585032DE    TVYEV-TV005500360039
BI00B32DE    #TCTL2042      202203247183-1616-30             CONNECTOR HOUSING        CCN000002400000002400FN00000000020220401000002400NNM   20220210141140    2F0F  00000240000000557500000837132DE    TVYEV-TV005500360039
BI00B32DE    #TCTL2041      202203107183-2412                HOUSING                  CCN000001600000001600FN00000000020220401000001600NNM   20220210141140    2F0F  00000160000001059200001245632DE    TVYEV-TV005500360039
BI00B32DE    #TCTL2042      202203247183-2412                HOUSING                  CCN000001600000001600FN00000000020220401000001600NNM   20220210141140    2F0F  00000160000001059200001245632DE    TVYEV-TV005500360039
BI00B32DE    #TCTL2041      202203107183-2416-90             HOUSING                  CCN000002400000002400FN00000000020220401000002400NNM   20220210141140    2F0F  00000240000001489700001765832DE    TVYEV-TV005500360039
BI00B32DE    #TCTL2042      202203247183-2416-90             HOUSING                  CCN000009600000009600FN00000000020220401000009600NNM   20220210141140    2F0F  00000240000001489700001765832DE    TVYEV-TV005500360039
BI00B32DE    #TCTL2041      202203107183-7725-40             HOUSING                  CCN000024000000024000FN00000000020220401000024000NNM   20220210141140    2F0F  00000600000000840000001040032DE    TVYEV-TV005600390040
BI00B32DE    #TCTL2042      202203247183-7725-40             HOUSING                  CCN000012000000012000FN00000000020220401000012000NNM   20220210141140    2F0F  00000600000000840000001040032DE    TVYEV-TV005600390040
BI00B32DE    #TCTL2041      202203107187-8856                HOUSING FEMALE           CCN000014000000014000FN00000000020220401000014000NNM   20220210141140    2F0F  00000200000000820000000931532DE    TVYEV-TV005400370024
BI00B32DE    #TCTL2042      202203247187-8856                HOUSING FEMALE           CCN000012000000012000FN00000000020220401000012000NNM   20220210141140    2F0F  00000200000000820000000931532DE    TVYEV-TV005400370024
BI00B32DE    #TCTL2041      202203107188-0149                HLC HOUSING MALE         CCN000015300000015300FN00000000020220401000015300NNM   20220210141140    2F0F  00000090000000809100000923832DE    TVYEV-TV005400370024
BI00B32DE    #TCTL2042      202203247188-0149                HLC HOUSING MALE         CCN000019800000019800FN00000000020220401000019800NNM   20220210141140    2F0F  00000090000000809100000923832DE    TVYEV-TV005400370024
BI00B32DE    #TCTL2041      202203107189-0149                HLC HOUSING FEMALE       CCN000012000000012000FN00000000020220401000012000NNM   20220210141140    2F0F  00000200000000970000001078532DE    TVYEV-TV005400370024
BI00B32DE    #TCTL2042      202203247189-0149                HLC HOUSING FEMALE       CCN000022000000022000FN00000000020220401000022000NNM   20220210141140    2F0F  00000200000000970000001078532DE    TVYEV-TV005400370024
BI00B32DE    #TCTL2042      202203247189-3036                HOUSING FEMALE           CCN000003200000003200FN00000000020220401000003200NNM   20220210141140    2F0F  00000160000000921600001141632DE    TVYEV-TV005500360039
BI00B32DE    #TCTL2042      202203247198-4980-30             HOUSING FEMALE           CCN000002400000002400FN00000000020220401000002400NNM   20220210141140    2F0F  00000120000000840000000921032DE    TVYEV-TV005400370024
BI00B32DE    #TCTL2041      202203107283-1065                CONNECTOR                CCN000005000000005000FN00000000020220401000005000NNM   20220210141140    2N0N  00000250000001152500001310432DE    TVYEV-TV005500360039
BI00B32DE    #TCTL2042      202203247283-1065                CONNECTOR                CCN000017500000017500FN00000000020220401000017500NNM   20220210141140    2N0N  00000250000001152500001310432DE    TVYEV-TV005500360039
BI00B32DE    #TCTL2042      202203247283-5833                CONNECTOR HOUSING        CCN000003640000003640FN00000000020220401000003640NNM   20220210141140    2N0N  00000364000001378000001686732DE    TVYEV-TV005500360039
BI00B32DE    #TCTL2042      202203247287-1670                HOUSING FEMALE ASS'Y     CCN000002800000002800FN00000000020220401000002800NNM   20220210141140    2N0N  00000280000000953100001145132DE    TVYEV-TV005400370024
BI00B32DE    #TCTL2042      202203247287-1671                HOUSING FEMALE ASS'Y     CCN000004000000004000FN00000000020220401000004000NNM   20220210141140    2N0N  00000200000000782600000974632DE    TVYEV-TV005400370024
BI00T32DE    @ICT2031       202203077183-2510                HOUSING                  CCN000003000000003000FN00000000020220301000003000NNM   20220210142913    3F0F  00000300000001063500001159032DE    TVYEV-TV005400370024
BI00T32DE    @ICT2031       202203077183-3190                JOINT CONNECTOR          CCN000082800000082800FN00000000020220301000082800NNM   20220210142913    3F0F  00000360000000457600000667832DE    TVYEV-TV005500360039
BI00T32DE    @ICT2031       202203077183-8049                CONNECTOR HOUSING        CCN000004000000004000FN00000000020220301000004000NNM   20220210142913    3F0F  00000400000000583600000740032DE    TVYEV-TV005400370024
BI00B32DG    #RL2031        202202157158-3007-10             RUBBER STOPPER           CCN000060000000060000FN00000000020210301000060000NNM00020220210160143    2H0H  00002000000000308000000362732DG    BFSAIBF 002700430014
BI00B32D2    DGTC2205       202202147289-3342-30             HOUSING FEMALE ASS'Y     CCN000007200000007200FN00000000020220201000007200NNM00020220210160218    1N0N  00000240000000686400000901432D2    TGYOT-G 005500360039
BI00B32D2    DGTC2206       202202147289-3342-30             HOUSING FEMALE ASS'Y     CCN000014400000014400FN00000000020220201000014400NNM00020220210160231    1N0N  00000240000000686400000901432D2    TGYOT-G 005500360039
BI00B32D9    #I21003        202202177172-5630-40             RUBBER STOPPER           CCN000020000000020000FN00000000020220301000020000NNM00020220210160311    2H0H  00002000000000044000000095132D9    UEHESTO 004300270014
BI00A32EJ    T220208P01     202203037116-4231-02             TERMINAL                 CCN000052000000000000FY00000000020220301000000000NNEQ0820220210083442EJ  4P0P  00002600000000683800001012532EJ    EJYKBO  006400630017
BI00B32E1    NC2062         202206087254-1884-30             PRIMARY PDB BASE         CCN000000252000000252FN00000000020220501000000252NNMD0120220210122515    4N0N  00000003600001160000001390732E1    SPYSE   005600390040
BI00B32E1    NC2063         202206087254-1884-30             PRIMARY PDB BASE         CCN000000180000000180FN00000000020220501000000180NNMD0620220210122515    4N0N  00000003600001160000001390732E1    SPYSE   005600390040
BI00B32G7    #JJ22031 MW    202202157158-3007-10             RUBBER STOPPER           CCN000220000000220000FN00000000020220301000220000NNM00020220210160339    2H0H  00002000000000308000000362732G7    JIJAI   002700430014
BI00B32G7    #JJ22031MMW    202202157172-5629-80             RUBBER STOPPER           CCN000040000000040000FN00000000020220301000040000NNM00020220210160419    2H0H  00002000000000060000000111132G7    JIJAI   004300270014
BI00A32G7    JJ2203CMMW     202202177196-2030-02             TERMINAL FEMALE          CCN000015000000015000FN00000000020220301000015000NNEM0020220210131158    4P0P  00001500000001002000001165432G7    JIJAI   005100280028
BI00B32G7    JJ2203CMMW     202203107297-3482                JOINT CONNECTOR          CCN000000800000000800FN00000000020220301000000800NNED0420220210122515    4N0N  00000080000000621000000730532G7    JIJAI   005400370024
BI00A32G7    #JJ2203CMMW    202202117198-4979-30             HOUSING FEMALE           CCN000004000000004000FN00000000020220301000004000NNEM0020220210140846    2F0F  00000400000000707200000876032G7    JIJAI   005400370024
BI00B32G7    JJ2204A MW     202203177114-4021                TERMINAL                 CCN000015000000015000FN00000000020220401000015000NNE   20220210155829    4P0P  00001500000000670500000964132G7    JIJAI   006400630015
BI00B32G7    JJ2204A MW     202203177116-5045-02             TERMINAL                 CCN000016000000016000FN00000000020220401000016000NNE   20220210155829    4P0P  00001600000000678400001007132G7    JIJAI   006400630017
BI00B32G7    JJ2204A MW     202203177116-6042                TERMINAL                 CCN000006000000006000FN00000000020220401000006000NNE   20220210155829    4P0P  00000300000000523800000856132G7    JIJAI   006400630015
BI00B32G7    JJ2204A MW     202203177126-8854-02             TERMINAL                 CCN000007500000007500FN00000000020220401000007500NNE   20220210155829    4P0P  00000750000000604500000889732G7    JIJAI   006400630015
BI00B32G7    JJ2204A MW     202203177126-8855-02             TERMINAL                 CCN000024000000024000FN00000000020220401000024000NNE   20220210155829    4P0P  00000600000000510600000795832G7    JIJAI   006400630015
BI00B32G7    JJ2204A MW     202203177158-3009-60             RUBBER STOPPER           CCN000060000000060000FN00000000020220401000060000NNE   20220210155829    1C0C  00002000000000338000000386232G7    JIJAI   002700430014
BI00B32G7    #JJ2204A MW    202203177158-3015-10             RUBBER STOPPER           CCN000010000000010000FN00000000020220401000010000NNE   20220210155823    2C0C  00001000000000419500000474032G7    JIJAI   002700430014
BI00B32G7    JJ2204AKMW     202203177158-3169-40             SEALING PLUG             CCN000040000000040000FN00000000020220401000040000NNE   20220210155853    1C0C  00004000000000156000000204132G7    JIJAI   004300260014
BI00B32G7    JJ2204AMMW     202203177158-3023                RUBBER STOPPER           CCN000005000000005000FN00000000020220401000005000NNE   20220210155929    1C0C  00000500000000443500000502032G7    JIJAI   002700430014
BI00B32G7    JJ2204AMMW     202203177288-3338-30             HOUSING MALE             CCN000001500000001500FN00000000020220401000001500NNE   20220210155929    4N0N  00000150000000866100001012032G7    JIJAI   005400370024
BI00B32G7    JJ2204AMMW     202203177327-6731-3W             BATTERY FUSE             CCN000001600000001600FN00000000020220401000001600NNE   20220210155929    4N0N  00000006400000697600000843032G7    JIJAI   005400370024
BI00B32G7    #JJ2204AMMW    202203177172-5627-60             RUBBER STOPPER           CCN000020000000020000FN00000000020220401000020000NNE   20220210155918    2H0H  00002000000000070400000121832G7    JIJAI   004300270014
BI00B32G7    @JJ2204AMMW    202203177287-4098                CONNECTOR FEMALE         CCN000002100000002400FN00000000020220401000002400NNE   20220210155923    3N0N  00000240000000668600000908032G7    JIJAI   005500360039
BI00B32G8    PATA2041       202203167017-1181-02             TERMINAL                 CCN000126000000126000FN00000000020220401000126000NNM   20220210122515    4P0P  00006300000001089900001266832G8    PSPASI  005100280028
BI00B32G8    PATA2041       202203167273-3570-0W             CASSETTE BRACKET         CCN000003600000003600FN00000000020220401000003600NNM   20220210122515    4N0N  00000010000000144100000196632G8    PSPASI  004300270014
BI00B32G8    PATA2041       202203167273-3573-0W             CASSETTE BRACKET         CCN000009000000009000FN00000000020220401000009000NNM   20220210122515    4N0N  00000010000000087700000140232G8    PSPASI  004300270014
BI00B32G8    PATA2041       202203167273-3571-0W             CASSETTE BRACKET         CCN000003600000003600FN00000000020220401000003600NNM   20220210122515    4N0N  00000010000000134600000187132G8    PSPASI  004300270014
BI00B32G8    PATA2041       202203167470-5302                J/B COMPLETE ASS'Y       CCN000002400000002400FN00000000020220401000002400NNM   20220210122515    4J0J  00000001000000494000000661032G8    PSPASI  005400370024
BI00B32G8    PATA2041       202203167470-5945                J/B COMPLETE ASS'Y       CCN000002460000002460FN00000000020220401000002460NNM   20220210122515    4J0J  00000001000000494000000661032G8    PSPASI  005400370024
BI00B32G8    PATA2041       202203167470-5938                J/B COMPLETE ASS'Y       CCN000000120000000120FN00000000020220401000000120NNM   20220210122515    4J0J  00000001000000494000000661032G8    PSPASI  005400370024
BI00B32G8    PATA2041       202203167470-5946                J/B COMPLETE ASS'Y       CCN000000600000000600FN00000000020220401000000600NNM   20220210122515    4J0J  00000001000000494000000661032G8    PSPASI  005400370024
BI00B32G8    PATA2041       202203167470-5939                J/B COMPLETE ASS'Y       CCN000000220000000220FN00000000020220401000000220NNM   20220210122515    4J0J  00000001000000494000000661032G8    PSPASI  005400370024
BI00B32G9    #TY22031TMW    202202077172-5630-40             RUBBER STOPPER           CCN000020000000020000FN00000000020220301000020000NNM00020220210122515    2H0H  00002000000000044000000095132G9    TYTYC   004300270014
BI00B32J1    391296         202203287158-3165-90             WIRE SEAL                CCN000160000000160000FN00000000020220301000160000NNE   20220210122515    1C0C  00004000000000124000000172432J1    UKYEL-BL004300270014
BI00A32J1    #391295        202202287283-8226-30             CONNECTOR                CCN000004000000004000FN00000000020220201000004000NNE   20220210122515    2N0N  00000200000000820000001008032J1    UKYEL-BL005400370024
BI00B32M4    #TL2031        202202177172-5630-40             RUBBER STOPPER           CCN000060000000060000FN00000000020220301000060000NNM00020220210160542    2H0H  00002000000000044000000095132M4    SISAI   004300270014
BI00A32M4    TP2031         202203077289-5979-30             HOUSING FEMALE ASS'Y     PCN000000756000000756FN00000000020220301000000756NNMM0020220210122515    1N0N  00000025200000854700001064732M4    SISAI   005400370024
BI00A32M4    TP2032         202203077289-5979-30             HOUSING FEMALE ASS'Y     PCN000000756000000756FN00000000020220301000000756NNMM0020220210122515    1N0N  00000025200000854700001064732M4    SISAI   005400370024
BI00B32M4    TP2042         202203247327-6983-30             MAIN FUSE                CCN000000600000000600FN00000000020220401000000600NNMD0120220210122515    4N0N  00000060000000748800000951532M4    SISAI   005400370024
BI00B32M4    TP2043         202203317327-6983-30             MAIN FUSE                CCN000000600000000600FN00000000020220401000000600NNMD0120220210122515    4N0N  00000060000000748800000951532M4    SISAI   005400370024
BI00B32M4    TP2044         202204077327-6983-30             MAIN FUSE                CCN000000600000000600FN00000000020220401000000600NNMD0120220210122515    4N0N  00000060000000748800000951532M4    SISAI   005400370024
BI00B32M4    TP2042         202203247327-6985-30             MULTI FUSE               CCN000000864000000864FN00000000020220401000000864NNMD0120220210122515    4N0N  00000028800000886100001052032M4    SISAI   005400370024
BI00B32M4    TP2043         202203317327-6985-30             MULTI FUSE               CCN000000864000000864FN00000000020220401000000864NNMD0120220210122515    4N0N  00000028800000886100001052032M4    SISAI   005400370024
BI00B32M4    TP2042         202203247327-6990-30             MULTI FUSE               CCN000000560000000560FN00000000020220401000000560NNMD0120220210122515    4NON  00000056000000724000000907032M4    SISAI   005400370024
BI00B32M4    TP2043         202203317327-6990-30             MULTI FUSE               CCN000000560000000560FN00000000020220401000000560NNMD0120220210122515    4NON  00000056000000724000000907032M4    SISAI   005400370024
BI00B32M4    TP2044         202204077327-6990-30             MULTI FUSE               CCN000000560000000560FN00000000020220401000000560NNMD0120220210122515    4NON  00000056000000724000000907032M4    SISAI   005400370024
BI00B32M4    TP2034D        202203107327-6983-30             MAIN FUSE                CCN000000600000000600FN00000000020220301000000600NNED0420220210122515    4N0N  00000060000000748800000951532M4    SISAI   005400370024
BI00B32M4    TP2034D        202203107327-6985-30             MULTI FUSE               CCN000000576000000576FN00000000020220301000000576NNED0420220210122515    4N0N  00000028800000886100001052032M4    SISAI   005400370024
BI00B32M8    #PM22031TMW    202202157172-5630-40             RUBBER STOPPER           CCN000020000000020000FN00000000020220301000020000NNM00020220210160611    2H0H  00002000000000044000000095132M8    PMPEMI  004300270014
BI00B32N1    @NST2116ECU    202202117283-3030                HOUSING FEMALE ASS'Y     CCN000059200000059200FN00000000020220301000059200NNE00020220210134027    3N0N  00000160000001056300001303032N1    TAYIPL  005500360039
BI00B32N1    NST2117ECU     202203177283-5845                CONNECTOR HOUSING        CCN000024000000006000FN00000000020220301000006000NNED0120220210154015    1N0N  00000600000000444000000606332N1    TAYIPL  005400370024
BI00B32N1    NST2117ECU     202203247283-5845                CONNECTOR HOUSING        CCN000006000000006000FN00000000020220301000006000NNED0120220210154035    1N0N  00000600000000444000000606332N1    TAYIPL  005400370024
BI00B32N1    NST2117ECU     202203317283-5845                CONNECTOR HOUSING        CCN000012000000012000FN00000000020220301000012000NNED0120220210154041    1N0N  00000600000000444000000606332N1    TAYIPL  005400370024
BI00B32N2    2152103772     202202177140-1977-30             UPPER COVER              CCN000001280000001280FN00000000020220401000001280NNM00020220210150841    1F0F  00000001000000099500000249532N2    YWYIPLTC005600390040
BI00B32N2    2152103772     202202177158-3006-90             RUBBER STOPPER           CCN000020000000020000FN00000000020220401000020000NNM00020220210150832    1C0C  00002000000000330600000386032N2    YWYIPLTC002700430014
BI00B32P8    TAPI-2051      202204067470-5650                J/B COMPLETE ASS'Y       CCN000000430000000430FN00000000020220501000000430NNMD0220220210122515    4J0J  00000001000000494000000661032P8    YIYTM   005400370024
BI00B32R4    HZYBW2204004   202203227158-3009-60             RUBBER STOPPER           CCN000020000000020000FN00000000020220401000020000NNE   20220210122515    1C0C  00002000000000338000000386232R4    HZHZYME 002700430014
BI00B32R4    HZYBW2204004   202203227114-4728-08             TERMINAL                 CCN000120000000120000FN00000000020220401000120000NNE   20220210122515    4P0P  00003000000000507000000801232R4    HZHZYME 006400630015
BI00B32R4    #HZYBW2204004  202203227114-4022                TERMINAL                 CCN000015000000015000FN00000000020220401000015000NNE   20220210122515    2F0P  00001500000000708000001120632R4    HZHZYME 006400630015
BI00B32R4    #HZYBW2204004  202203227289-2912-40             HOUSING FEMALE ASS'Y     CCN000006000000006000FN00000000020220401000006000NNE   20220210122515    2N0N  00000200000000804000000931032R4    HZHZYME 005400370024
BI00B32R4    #HZYBW2204004  202203227158-3017                RUBBER STOPPER           CCN000050000000050000FN00000000020220401000050000NNE   20220210122515    2C0C  00001000000000375500000435032R4    HZHZYME 002700430014
BI00A32R7    R-TAP220056    202202177298-7215-10             SEALED ASSY FEMALE       CCN000004368000004368FN00000000020220201000004368NNEM0020220210122515    4N0N  00000218400000983000001291532R7    IVYCIC  005500360039
BI00B32R7    R-TAP220066    202202247298-1186-40             SQUIB SUB ASS'Y          CCN000170000000170000FN00000000020220301000170000NNE   20220210122515    4N0N  00001000000000650000000774532R7    IVYCIC  005400370024
BI00B32U5    DI2017         202204227289-3342                HOUSING FEMALE ASS'Y     CCN000016800000016800FN00000000020220601000016800NNMS0020220210122515U5  1N0N  00000240000000686400000901432U5    AMAMSD  005500360039
BI00B32U5    DI2017         202204297289-3342-30             HOUSING FEMALE ASS'Y     CCN000033600000033600FN00000000020220601000033600NNMS0020220210122515U5  1N0N  00000240000000686400000901432U5    AMAMSD  005500360039
BI00A32U9    #TPA213        202202217047-1611-30             CLIP                     CCN000002000000002000FN00000000020220401000002000NNMM0020220210134228U9  2F0F  00000200000001600000001739032U9    YNYNA-E 005600390040
BI00B32U9    #TPA213        202202247282-6446-40             CONNECTOR                CCN000015000000009000FN00000000020220401000009000NNMQ0020220210122515U9  2N0N  00000150000001185000001368032U9    YNYNA-E 005500360039
BI00A32U9    #TPA213        202202217282-6446-40             CONNECTOR                CCN000006000000006000FN00000000020220401000006000NNMM0020220210122515U9  2N0N  00000150000001185000001368032U9    YNYNA-E 005500360039
BI00B32W4    4500189022     202204287289-6547                HOUSING FEMALE ASS'Y     CCN000007200000007200FN00000000020220401000007200NNED0420220210154117W4161N0N  00000240000001152000001362032W416  HJYHK   005500360039
BI00A32W4    4500189040     202204117116-4100-02             TERMINAL                 CCN000015000000015000FN00000000020220401000015000NNE   20220210122515W4O24P0P  00001500000000696000000990232W4O2  HJYHK-J 006400630015
BI00A32W4    4500189040     202204117116-4025                TERMINAL                 CCN000016000000016000FN00000000020220401000016000NNE   20220210122515W4O24P0P  00001600000000644800000975132W4O2  HJYHK-J 006400630017
BI00A32W4    4500189040     202204117283-7028-30             CONNECTOR                CCN000006000000006000FN00000000020220401000006000NNE   20220210122515W4O24N0N  00000300000001452000001681332W4O2  HJYHK-J 005600390040
BI00A32W4    4500189040     202204117116-4111-02             TERMINAL                 CCN000007500000007500FN00000000020220401000007500NNE   20220210122515W4O24P0P  00000750000000529500000817732W4O2  HJYHK-J 006400630015
BI00A32W4    4500189040     202204117158-3168-80             SEALED                   CCN000020000000020000FN00000000020220401000020000NNE   20220210122515W4O21C0C  00002000000000044000000092132W4O2  HJYHK-J 004300260014
BI00A32W4    4500189040     202204117158-3166-60             WIRE SEAL                CCN000040000000040000FN00000000020220401000040000NNE   20220210122515W4O21C0C  00004000000000104000000152432W4O2  HJYHK-J 002700430014
BI00A32W4    4500189040     202204117157-6240-30             REAR HOLDER              CCN000005000000005000FN00000000020220401000005000NNE   20220210122515W4O21F0F  00000500000000545000000716032W4O2  HJYHK-J 005500360039
BI00A32W4    4500189040     202204117116-4110-02             TERMINAL                 CCN000009000000009000FN00000000020220401000009000NNE   20220210122515W4O24P0P  00000900000000594000000882232W4O2  HJYHK-J 006400630015
BI00B32W4    4500189023     202204057289-9553-30             SEALED ASSY FEMALE       CCN000026460000026460FN00000000020220401000026460NNE   20220210142328W4O64N0N  00000294000001109000001521532W4O6  HJYHK-J 005500360039
BI00B32W4    @4500189024    202202247283-3030                HOUSING FEMALE ASS'Y     CCN000006400000006400FN00000000020220201000006400NNED0720220210142449W4O63N0N  00000160000001056300001303032W4O6  HJYHK-J 005500360039
BI00B32W4    @4500189025    202204057283-3030                HOUSING FEMALE ASS'Y     CCN000003200000003200FN00000000020220401000003200NNE   20220210142845W4O63N0N  00000160000001056300001303032W4O6  HJYHK-J 005500360039
BI00A32W4    4500189044     202203287116-4104-02             TERMINAL                 CCN000012000000012000FN00000000020220301000012000NNE   20220210142939W4L64P0P  00001200000000580800000972432W4L6  HJYHK-K 006400630015
BI00A32W4    #4500189062    202203077289-4104-40             HOUSING FEMALE ASS'Y     CCN000002500000002500FN00000000020220301000002500NNE   20220210143023W4652NON  00000050000000606900000821132W465  HJYHK   005400370024
BI00B32W4    4500189065     202203247283-1020                CONNECTOR                CCN000012000000012000FN00000000020220301000012000NNE   20220210143100W4654N0N  00000600000000840000001049332W465  HJYHK   005600390040
BI00B32W4    4500189066     202204077116-4100-02             TERMINAL                 CCN000090000000090000FN00000000020220401000090000NNE   20220210143152W4654P0P  00001500000000696000000990232W465  HJYHK   006400630015
BI00B32W4    4500189066     202204077114-4112-02             TERMINAL                 CCN000045000000045000FN00000000020220401000045000NNE   20220210143152W4654P0P  00000900000000598500000927132W465  HJYHK   006400630017
BI00B32W4    4500189066     202204077116-4112-02             TERMINAL                 CCN000108000000108000FN00000000020220401000108000NNE   20220210143152W4654P0P  00000600000000450000000738232W465  HJYHK   006400630015
BI00B32W4    4500189066     202204077116-4102-02             TERMINAL                 CCN000096000000096000FN00000000020220401000096000NNE   20220210143152W4654P0P  00001200000000553200000841432W465  HJYHK   006400630015
BI00B32W4    4500189066     202204077114-4100-02             TERMINAL                 CCN000018000000018000FN00000000020220401000018000NNE   20220210143152W4654P0P  00001800000000748800001077432W465  HJYHK   006400630017
BI00B32W4    4500189066     202204077114-4111-02             TERMINAL                 CCN000036000000036000FN00000000020220401000036000NNE   20220210143152W4654P0P  00001200000000758400001087032W465  HJYHK   006400630017
BI00B32W4    4500189066     202204077116-4101-02             TERMINAL                 CCN000084000000084000FN00000000020220401000084000NNE   20220210143152W4654P0P  00001200000000582000000876232W465  HJYHK   006400630015
BI00B32W4    4500189066     202204077114-4101-02             TERMINAL                 CCN000015000000015000FN00000000020220401000015000NNE   20220210143152W4654P0P  00001500000000675000001003632W465  HJYHK   006400630017
BI00B32W4    4500189066     202204077114-4110-02             TERMINAL                 CCN000015000000015000FN00000000020220401000015000NNE   20220210143152W4654P0P  00001500000000901500001230132W465  HJYHK   006400630017
BI00B32W4    4500189066     202204077116-4110-02             TERMINAL                 CCN000045000000045000FN00000000020220401000045000NNE   20220210143152W4654P0P  00000900000000594000000882232W465  HJYHK   006400630015
BI00B32W4    4500189066     202204077116-4103-02             TERMINAL                 CCN000012000000012000FN00000000020220401000012000NNE   20220210143152W4654P0P  00001200000000571200000859432W465  HJYHK   006400630015
BI00B32W4    4500189066     202204077283-6568-40             CONNECTOR                CCN000002000000002000FN00000000020220401000002000NNE   20220210143152W4654N0N  00000200000001090000001263032W465  HJYHK   005500360039
BI00B32W4    4500189077     202203177283-1020                CONNECTOR                CCN000006000000006000FN00000000020220301000006000NNE   20220210143245W41 4N0N  00000600000000840000001049332W41   HJYHK   005600390040
BI00B32W4    4500189084     202204217289-4696-30             HOUSING FEMALE ASS'Y     CCN000008000000008000FN00000000020220401000008000NNE   20220210143345W4284N0N  00000200000000913400001055432W428  HJYHK   005400370024
BI00A32W4    #4500189086    202202157158-3374-90             CONNECTOR WIRE SEAL      CCN000020000000020000FN00000000020220201000020000NNE   20220210143515W4P72H0H  00002000000000172000000229332W4P7  HJYHK   002700430014
BI00B32W4    4500189090     202203107158-3167-80             WIRE SEAL                CCN002420000002420000FN00000000020220301002420000NNE   20220210144045W4B71C0C  00002000000000048000000109032W4B7  HJYHK-J 002700430014
BI00B32W4    4500189090     202203107158-3169-40             SEALING PLUG             CCN000280000000280000FN00000000020220301000280000NNE   20220210144045W4B71C0C  00004000000000156000000204132W4B7  HJYHK-J 004300260014
BI00B32W7    SC22041JMW     202203097C89-6868-30             SEALED ASSY FEMALE       CCN000010080000010080FN00000000020220401000010080NNMD0420220210122515    4N0N  00000252000000839200001119232W7    SYSYA-CH005500360039
BI00B32W7    SC22042JMW     202203167C89-6868-30             SEALED ASSY FEMALE       CCN000010080000010080FN00000000020220401000010080NNMD0420220210122515    4N0N  00000252000000839200001119232W7    SYSYA-CH005500360039
BI00B32W7    SC22043JMW     202203237C89-6868-30             SEALED ASSY FEMALE       CCN000010080000010080FN00000000020220401000010080NNMD0420220210122515    4N0N  00000252000000839200001119232W7    SYSYA-CH005500360039
BI00B32W7    SC22044JMW     202203307C89-6868-30             SEALED ASSY FEMALE       CCN000010080000010080FN00000000020220401000010080NNMD0420220210122515    4N0N  00000252000000839200001119232W7    SYSYA-CH005500360039
BI00B32X5    TIB1046        202202117289-3342                HOUSING FEMALE ASS'Y     CCN000012000000024000FN00000000020220101000024000NNM00020220210122515X5  1N0N  00000240000000686400000901432X5    EPYNA-E 005500360039
BI00B32X5    TIB1046        202202117289-3342                HOUSING FEMALE ASS'Y     CCN000012000000012000FN00000000020220101000012000NNM00020220210122515X5  1N0N  00000240000000686400000901432X5    EPYNA-E 005500360039
BI00B32X5    TIB1048        202202147289-3342-30             HOUSING FEMALE ASS'Y     CCN000134400000134400FN00000000020220101000134400NNM00020220210131905X5  1N0N  00000240000000686400000901432X5    EPYNA-E 005500360039
BI00B32X5    TIB2017        202208057289-3342                HOUSING FEMALE ASS'Y     CCN000026400000026400FN00000000020220601000026400NNMS0020220210122515X5  1N0N  00000240000000686400000901432X5    EPYNA-E 005500360039
BI00B32X5    TIB2017        202206037289-3342-30             HOUSING FEMALE ASS'Y     CCN000088800000088800FN00000000020220601000088800NNMS0020220210122515X5  1N0N  00000240000000686400000901432X5    EPYNA-E 005500360039
BI00B32Y2    TAU1181        202203247288-3206                HOUSING MALE ASS'Y       CCN000009180000008160FN00000000020220701000008160NNMD0420220210122515    1N0N  00000102000000387600000787632Y2    YUYUY   005500360039
BI00B32Y2    TAU1182        202203177289-3342-30             HOUSING FEMALE ASS'Y     CCN000002400000002400FN00000000020220701000002400NNE   20220210122515    1N0N  00000240000000686400000901432Y2    YUYUY   005500360039
BI00B32Y2    #TAU1182       202203177189-3034-30             HOUSING FEMALE           CCN000001600000001600FN00000000020220701000001600NNE   20220210122515    2F0F  00000160000000972800001192832Y2    YUYUY   005500360039
BI00B32Y4    ITA32053       202202177158-3167-80             WIRE SEAL                CCN000240000000240000FN00000000020220501000240000NNE00020220210160744    1C0C  00002000000000048000000109032Y4    BIYAB-I 002700430014
BI00B32Y6    STAP32061      202203107298-1145-4W             SQUIB SUB ASS'Y          CCN000020000000020000FN00000000020220601000020000NNMD0420220210122515    4N0N  00001000000000787900000944932Y6    BSYBL-S 005400370024
BI00B32Y6    STAP32061      202203107289-6868-30             SEALED ASSY FEMALE       CCN000010080000010080FN00000000020220601000010080NNMD0420220210122515    4N0N  00000252000000839200001119232Y6    BSYBL-S 005500360039
BI00B32Y6    STAP32061      202203037327-6731-3W             BATTERY FUSE             CCN000008640000004224FN00000000020220601000004224NNMQ0420220210122515    4N0N  00000006400000697600000843032Y6    BSYBL-S 005400370024
BI00B32Y6    STAP32061      202203177327-6731-3W             BATTERY FUSE             CCN000004416000004416FN00000000020220601000004416NNMD0420220210122515    4N0N  00000006400000697600000843032Y6    BSYBL-S 005400370024
