BI00B32D2    @DGTW2225      20220428181AD2002ZZ              CIVUSAS-S 0.35X2 B       CCN000006750000006750FN00000000020220601000006750NNE   20220325105331    1W    00000045000001713700000000032D2    TGYOT-G 000000000000KR224019
BI00B32D2    @DGTW2225      20220428181E48037ZZ              CAVSAS-S 0.3X4 GY        CCN000002250000002250FN00000000020220601000002250NNE   20220325105331    1W    00000025000003262000000000032D2    TGYOT-G 000000000000KR224020
BI00B32D2    @DGTW2225      20220428181E50004ZZ              AVSSCS-S 0.5FX1 DGY      CCN000004400000004400FN00000000020220601000004400NNE   20220325105331    1W    00000040000001909700000000032D2    TGYOT-G 000000000000KR224021
BI00B32D2    @DGTW2225      20220428181E50007ZZ              AVSSCS-S 0.5FX1 DGY/L    CCN000001600000001600FN00000000020220601000001600NNE   20220325105331    1W    00000040000001909700000000032D2    TGYOT-G 000000000000KR224022
BI00B32D2    @DGTW2225      20220428181E50016ZZ              AVSSCS-S 0.5FX2 DGY/R    CCN000004800000004800FN00000000020220601000004800NNE   20220325105331    1W    00000030000003096000000000032D2    TGYOT-G 000000000000KR224023
BI00B32D2    @DGTW2225      20220428181F21014ZZ              AVSSHCS-S 0.5FX2 B/L     CCN000006600000006600FN00000000020220601000006600NNE   20220325105331    1W    00000030000002531400000000032D2    TGYOT-G 000000000000KR224025
BI00B32D2    @DGTW2225      20220428181F21016ZZ              AVSSHCS-S 0.5FX2 B/BR    CCN000002700000002700FN00000000020220601000002700NNE   20220325105331    1W    00000030000002531400000000032D2    TGYOT-G 000000000000KR224024
BI00B32D2    @DGTW2225      20220428181F21031ZZ              AVSSHCS-S 1.25FX2 B/P    CCN000002000000002000FN00000000020220601000002000NNE   20220325105331    1W    00000020000004267300000000032D2    TGYOT-G 000000000000KR224026
BI00B32J1    @392942        20220418181E48012ZZ              CAVSAS-S 0.3X1 GY        CCN000001000000001000FN00000000020220401000001000NNE   20220325100723    1W    00000050000001529500000000032J1    UKYEL-BL000000000000KG124001
BI00B32J1    @392942        20220418181E48015ZZ              CAVSAS-S 0.5X1 GY        CCN000002400000002400FN00000000020220401000002400NNE   20220325100723    1W    00000040000001900600000000032J1    UKYEL-BL000000000000KG124002
BI00B32J1    @392942        20220418181E48018ZZ              CAVSAS-S 0.5X2 GY/SB     CCN000001500000001500FN00000000020220401000001500NNE   20220325100723    1W    00000030000002561000000000032J1    UKYEL-BL000000000000KG124004
BI00B32J1    @392942        20220418181E48027ZZ              CAVSAS-S 0.5X2 GY/P      CCN000001500000001500FN00000000020220401000001500NNE   20220325100723    1W    00000030000002561000000000032J1    UKYEL-BL000000000000KG124003
BI00B32J1    @392942        20220418181E48029ZZ              CAVSAS-S 0.5X4 GY        CCN000002000000002000FN00000000020220401000002000NNE   20220325100723    1W    00000020000003995000000000032J1    UKYEL-BL000000000000KG124007
BI00B32J1    @392942        20220418181E48031ZZ              CAVSAS-S 0.3X2 GY        CCN000002450000002450FN00000000020220401000002450NNE   20220325100723    1W    00000035000002008700000000032J1    UKYEL-BL000000000000KG124009
BI00B32J1    @392942        20220418181E48033ZZ              CAVSAS-S 0.5X3 GY/B      CCN000001800000001800FN00000000020220401000001800NNE   20220325100723    1W    00000020000003795300000000032J1    UKYEL-BL000000000000KG124006
BI00B32J1    @392942        20220418181E48035ZZ              CAVSAS-S 0.5X3 GY        CCN000001400000001400FN00000000020220401000001400NNE   20220325100723    1W    00000020000003795300000000032J1    UKYEL-BL000000000000KG124005
BI00B32J1    @392942        20220418181E48065ZZ              CAVSAS-S 0.5X4 GY/W      CCN000001400000001400FN00000000020220401000001400NNE   20220325100723    1W    00000020000003995000000000032J1    UKYEL-BL000000000000KG124008
