BI00A1200    2399T51C15     202203307288-6547                CONNECTOR MALE ASS'Y     PCN000120000000120000FN00002625020220101000093750NNM00020220325155937    4N0N  0000007500000120530000134031200    YCYC    005400370024
BI00B1200    2399T52219     202203317289-3342                HOUSING FEMALE ASS'Y     CCN000002400000002400FN00000000020220401000002400NNM00020220325160232    1N0N  0000024000000068640000090141200    YCYC    005500360039
BI00B1200    2399T52422     202205127289-6547                HOUSING FEMALE ASS'Y     CCN000100800000100800FN00000000020220601000100800NNMD0420220325135533    1N0N  0000024000000115200000136201200    YCYC    005500360039
BI00B1200    8100T52409     202205127289-6547                HOUSING FEMALE ASS'Y     CCN000002400000002400FN00000000020220601000002400NNMD0420220325135555    1N0N  0000024000000115200000136201200    YCYC    005500360039
BI00B1200    H722G50001     202206027289-9553-30             SEALED ASSY FEMALE       CCN000079380000079380FN00000000020220701000079380NNE   20220325121036    4N0N  0000029400000110900000152151200    YCYC    005500360039
BI00B1200    H722G50002     202206097289-9553-30             SEALED ASSY FEMALE       CCN000079380000079380FN00000000020220701000079380NNE   20220325121036    4N0N  0000029400000110900000152151200    YCYC    005500360039
BI00B1200    H722G50003     202206237289-9553-30             SEALED ASSY FEMALE       CCN000082320000082320FN00000000020220701000082320NNE   20220325121036    4N0N  0000029400000110900000152151200    YCYC    005500360039
BI00B1200    O022E50431     202205127289-4696-30             HOUSING FEMALE ASS'Y     CCN000002000000002000FN00000000020220601000002000NNE   20220325121036    4N0N  0000020000000091340000105541200    YCYC    005400370024
BI00B1200    O022E50432     202205127289-4696-30             HOUSING FEMALE ASS'Y     CCN000004000000004000FN00000000020220601000004000NNE   20220325121036    4N0N  0000020000000091340000105541200    YCYC    005400370024
BI00B1200    O022E50433     202205127289-4696-30             HOUSING FEMALE ASS'Y     CCN000006000000006000FN00000000020220601000006000NNE   20220325121036    4N0N  0000020000000091340000105541200    YCYC    005400370024
BI00B1200    8670T52401     202206097288-6547                CONNECTOR MALE ASS'Y     CCN000000750000000750FN00000000020220701000000750NNE   20220325121036    4N0N  0000007500000120530000134031200    YCYC    005400370024
BI00B1200    8670T52401     202206097289-6547                HOUSING FEMALE ASS'Y     CCN000002400000002400FN00000000020220701000002400NNE   20220325121036    1N0N  0000024000000115200000136201200    YCYC    005500360039
BI00B1200    #8670T52401    202206097172-5629-80             RUBBER STOPPER           CCN000020000000020000FN00000000020220701000020000NNE   20220325121036    2H0H  0000200000000006000000011111200    YCYC    004300270014
BI00B1200    #8670T52401    202206097172-5630-40             RUBBER STOPPER           CCN000020000000020000FN00000000020220701000020000NNE   20220325121036    2H0H  0000200000000004400000009511200    YCYC    004300270014
BI00B1200    #8670T52401    202206097289-2919-30             HOUSING FEMALE ASS'Y     CCN000001500000001500FN00000000020220701000001500NNE   20220325121036    2N0N  0000015000000090750000103451200    YCYC    005400370024
BI00B1200    8670T52402     202206167137-3047-30             UNIT PACKING             CCN000002000000002000FN00000000020220701000002000NNE   20220325121036    1C0C  0000010000000017050000021891200    YCYC    002700430014
BI00B1200    8670T52402     202206167172-5402-30             SEAL RUBBER              CCN000008000000008000FN00000000020220701000008000NNE   20220325121036    1C0C  0000080000000045760000050601200    YCYC    004300270014
BI00B1200    8670T52402     202206167172-5403-30             SEALED PACKING           CCN000004000000004000FN00000000020220701000004000NNE   20220325121036    1C0C  0000040000000065360000070171200    YCYC    004300270014
BI00B1200    8670T52402     202206167196-1103-02             TERMINAL                 CCN000022500000022500FN00000000020220701000022500NNE   20220325121036    4P0P  0000225000000042980000071501200    YCYC    006400630015
BI00B1200    #8670T52402    202206167172-5629-80             RUBBER STOPPER           CCN000020000000020000FN00000000020220701000020000NNE   20220325121036    2H0H  0000200000000006000000011111200    YCYC    004300270014
BI00B1200    8670T52403     202206237137-3047-30             UNIT PACKING             CCN000003000000003000FN00000000020220701000003000NNE   20220325121036    1C0C  0000010000000017050000021891200    YCYC    002700430014
BI00B1200    8670T52403     202206237196-1103-02             TERMINAL                 CCN000022500000022500FN00000000020220701000022500NNE   20220325121036    4P0P  0000225000000042980000071501200    YCYC    006400630015
BI00B1200    TAPC-220325    202205197196-1326-02             TERMINAL FEMALE          CCN000120000000120000FN00000000020220601000120000NNE   20220325160558    4P0P  0000600000000045600000078471200    YCYC    006400630017
BI00B32AF    JTB2041        202203267289-3342-30             HOUSING FEMALE ASS'Y     CCN000030000000030000FN00000000020220401000030000NNM00020220325140516    1N0N  00000240000000686400000901432AF    HBYHVTB 005500360039
BI00A32CA    PTA32042       202204087196-1461-06             TERMINAL FEMALE          PCN000216000000216000FN00000000020220301000216000NNMM0020220325121036    4P0P  00002400000000386400000692932CA    YPYPY   006400630015
BI00B32CA    PTA32095       202206027289-3342-90             HOUSING FEMALE ASS'Y     CCN000016800000016800FN00000000020220901000016800NNE   20220325121036    1N0N  00000240000000686400000901432CA    YPYPY   005500360039
BI00B32CG    S220326-M      202205257116-4120-02             TERMINAL                 CCN000006000000000000FY00000000020200501000000000NNEQ0820220325102449    4P0P  00000600000000780000001073632CG    ASASIACO006400630015
BI00B32CG    S220326-M      202205257114-4110-02             TERMINAL                 CCN000015000000000000FY00000000020200501000000000NNEQ0820220325102313    4P0P  00001500000000901500001230132CG    ASASIACO006400630017
BI00B32CG    S220326-M      202205257114-4111-02             TERMINAL                 CCN000012000000000000FY00000000020200501000000000NNEQ0820220325102330    4P0P  00001200000000758400001087032CG    ASASIACO006400630017
BI00B32CG    #S220326-M     202205257282-6446-40             CONNECTOR                CCN000001500000000000FY00000000020200501000000000NNEQ0820220325102227    2N0N  00000150000001185000001368032CG    ASASIACO005500360039
BI00B32CG    S220326-M      202205257116-4120-02             TERMINAL                 CCN000006000000006000FN00000000020220501000006000NNED0020220325121036    4P0P  00000600000000780000001073632CG    ASASIACO006400630015
BI00B32CG    S220326-M      202205257114-4110-02             TERMINAL                 CCN000015000000015000FN00000000020220501000015000NNED0020220325121036    4P0P  00001500000000901500001230132CG    ASASIACO006400630017
BI00B32CG    S220326-M      202205257114-4111-02             TERMINAL                 CCN000012000000012000FN00000000020220501000012000NNED0020220325121036    4P0P  00001200000000758400001087032CG    ASASIACO006400630017
BI00B32CG    #S220326-M     202205257282-6446-40             CONNECTOR                CCN000001500000001500FN00000000020220501000001500NNE   20220325121036    2N0N  00000150000001185000001368032CG    ASASIACO005500360039
BI00B32CH    SJ2205ADMW     202204287114-4624-02             TERMINAL                 CCN000024000000024000FN00000000020220501000024000NNE   20220325121036    4P0P  00002400000000895200001188832CH    SJSAMIJF006400630015
BI00A32DA    SBT2203        202204047289-3342-30             HOUSING FEMALE ASS'Y     CCN000079200000052800FN00000000020220301000052800NNMD0420220325121036    1N0N  00000240000000686400000901432DA    GBYIPLGB005500360039
BI00A32DA    SBT2203A       202204237289-3342-30             HOUSING FEMALE ASS'Y     CCN000019200000019200FN00000000020220301000019200NNMD0420220325121036    1N0N  00000240000000686400000901432DA    GBYIPLGB005500360039
BI00A32DA    SBT2204A       202204287289-3342-30             HOUSING FEMALE ASS'Y     CCN000026400000026400FN00000000020220401000026400NNMS0020220325121036    1N0N  00000240000000686400000901432DA    GBYIPLGB005500360039
BI00A32DA    SBT2203        202203287289-3342-30             HOUSING FEMALE ASS'Y     CCN000026400000026400FN00000000020220301000026400NNMD0420220325121036    1N0N  00000240000000686400000901432DA    GBYIPLGB005500360039
BI00B32DE    TCT2052        202204217288-3335-30             HOUSING MALE             CCN000006000000006000FN00000000020220501000006000NNMD0420220325121036    4N0N  00000150000000867000001012032DE    TVYEV-TV005400370024
BI00B32DE    TCT2053        202204287288-3335-30             HOUSING MALE             CCN000004500000004500FN00000000020220501000004500NNMD0420220325121036    4N0N  00000150000000867000001012032DE    TVYEV-TV005400370024
BI00B32DE    TCT2054        202205057288-3335-30             HOUSING MALE             CCN000006000000006000FN00000000020220501000006000NNMD0420220325121036    4N0N  00000150000000867000001012032DE    TVYEV-TV005400370024
BI00B32DE    TCT2051        202204077288-6547                CONNECTOR MALE ASS'Y     CCN000003000000003000FN00000000020220501000003000NNMD0420220325121036    4N0N  00000075000001205300001340332DE    TVYEV-TV005400370024
BI00B32DE    TCT2051        202204077289-3342-30             HOUSING FEMALE ASS'Y     CCN000052800000052800FN00000000020220501000052800NNMD0420220325121036    1N0N  00000240000000686400000901432DE    TVYEV-TV005500360039
BI00B32DE    TCT2052        202204217289-3342-30             HOUSING FEMALE ASS'Y     CCN000057600000057600FN00000000020220501000057600NNMD0420220325121036    1N0N  00000240000000686400000901432DE    TVYEV-TV005500360039
BI00B32DE    TCT2053        202204287289-3342-30             HOUSING FEMALE ASS'Y     CCN000055200000055200FN00000000020220501000055200NNMD0420220325121036    1N0N  00000240000000686400000901432DE    TVYEV-TV005500360039
BI00B32DE    TCT2054        202205057289-3342-30             HOUSING FEMALE ASS'Y     CCN000043200000043200FN00000000020220501000043200NNMD0420220325121036    1N0N  00000240000000686400000901432DE    TVYEV-TV005500360039
BI00B32DE    TCT2051        202204077289-3342-90             HOUSING FEMALE ASS'Y     CCN000007200000007200FN00000000020220501000007200NNMD0420220325121036    1N0N  00000240000000686400000901432DE    TVYEV-TV005500360039
BI00B32DE    TCT2052        202204217289-3342-90             HOUSING FEMALE ASS'Y     CCN000007200000007200FN00000000020220501000007200NNMD0420220325121036    1N0N  00000240000000686400000901432DE    TVYEV-TV005500360039
BI00B32DE    TCT2053        202204287289-3342-90             HOUSING FEMALE ASS'Y     CCN000007200000007200FN00000000020220501000007200NNMD0420220325121036    1N0N  00000240000000686400000901432DE    TVYEV-TV005500360039
BI00B32DE    TCT2054        202205057289-3342-90             HOUSING FEMALE ASS'Y     CCN000004800000004800FN00000000020220501000004800NNMD0420220325121036    1N0N  00000240000000686400000901432DE    TVYEV-TV005500360039
BI00B32DE    TCT2051        202204217289-3342-30             HOUSING FEMALE ASS'Y     CCN000026400000000000FY00000000020220501000000000NNMD0420220325105221    1N0N  00000240000000686400000901432DE    TVYEV-TV005500360039
BI00B32DE    TCT2052        202205057289-3342-30             HOUSING FEMALE ASS'Y     CCN000028800000000000FY00000000020220501000000000NNMD0420220325105344    1N0N  00000240000000686400000901432DE    TVYEV-TV005500360039
BI00B32DE    TCT2053        202205197289-3342-30             HOUSING FEMALE ASS'Y     CCN000026400000000000FY00000000020220501000000000NNMD0420220325110125    1N0N  00000240000000686400000901432DE    TVYEV-TV005500360039
BI00B32DE    TCT2054        202206027289-3342-30             HOUSING FEMALE ASS'Y     CCN000021600000000000FY00000000020220501000000000NNMD0420220325110307    1N0N  00000240000000686400000901432DE    TVYEV-TV005500360039
BI00B32DJ    GHT2204B 1     202208117289-3342-30             HOUSING FEMALE ASS'Y     CCN000004800000004800FN00000000020220401000004800NNMD0420220325145212    1N0N  00000240000000686400000901432DJ    RBYIPLRB005500360039
BI00B32DJ    GHT2204B 1     202208187289-3342-30             HOUSING FEMALE ASS'Y     CCN000004800000004800FN00000000020220401000004800NNMD0420220325145237    1N0N  00000240000000686400000901432DJ    RBYIPLRB005500360039
BI00B32DJ    GHT2204B 1     202208257289-3342-30             HOUSING FEMALE ASS'Y     CCN000004800000004800FN00000000020220401000004800NNMD0420220325145237    1N0N  00000240000000686400000901432DJ    RBYIPLRB005500360039
BI00B32DJ    GHT2204B 1     202209017289-3342-30             HOUSING FEMALE ASS'Y     CCN000004800000004800FN00000000020220401000004800NNMD0420220325145237    1N0N  00000240000000686400000901432DJ    RBYIPLRB005500360039
BI00B32DJ    GHT2204B 1     202209087289-3342-30             HOUSING FEMALE ASS'Y     CCN000004800000004800FN00000000020220401000004800NNMD0420220325145237    1N0N  00000240000000686400000901432DJ    RBYIPLRB005500360039
BI00B32DJ    GHT2204B 1     202209157289-3342-30             HOUSING FEMALE ASS'Y     CCN000004800000004800FN00000000020220401000004800NNMD0420220325145237    1N0N  00000240000000686400000901432DJ    RBYIPLRB005500360039
BI00B32DJ    GHT2204B 1     202209227289-3342-30             HOUSING FEMALE ASS'Y     CCN000004800000004800FN00000000020220401000004800NNMD0420220325145258    1N0N  00000240000000686400000901432DJ    RBYIPLRB005500360039
BI00B32DJ    GHT2204B 1     202209297289-3342-30             HOUSING FEMALE ASS'Y     CCN000004800000007200FN00000000020220401000007200NNMD0420220325145258    1N0N  00000240000000686400000901432DJ    RBYIPLRB005500360039
BI00B32DJ    GHT2205D       202203317196-0104-02             TERMINAL                 CCN000038000000038000FN00000000020220401000038000NNE   20220325134351    4P0P  00003800000000570000000956432DJ    RBYIPLRB006400630017
BI00B32D1    DFTC2224       202204217288-6547                CONNECTOR MALE ASS'Y     CCN000006000000006000FN00000000020220601000006000NNMD0020220325121036    4N0N  00000075000001205300001340332D1    TOYOT-K 005400370024
BI00B32D1    DFTC2224       202204217289-3342                HOUSING FEMALE ASS'Y     CCN000019200000019200FN00000000020220601000019200NNMD0020220325121036    1N0N  00000240000000686400000901432D1    TOYOT-K 005500360039
BI00B32D1    DFTC2224       202204217289-3342-30             HOUSING FEMALE ASS'Y     CCN000048000000048000FN00000000020220601000048000NNMD0020220325121036    1N0N  00000240000000686400000901432D1    TOYOT-K 005500360039
BI00B32D1    DFTC2224       202204217289-3342-40             HOUSING FEMALE ASS'Y     CCN000002400000002400FN00000000020220601000002400NNMD0020220325121036    1N0N  00000240000000686400000901432D1    TOYOT-K 005500360039
BI00B32D1    DFTC2224       202204217289-3342-90             HOUSING FEMALE ASS'Y     CCN000002400000002400FN00000000020220601000002400NNMD0020220325121036    1N0N  00000240000000686400000901432D1    TOYOT-K 005500360039
BI00B32D2    DGTC2225       202204287116-4104-02             TERMINAL                 CCN000012000000012000FN00000000020220601000012000NNM   20220325121036    4P0P  00001200000000580800000972432D2    TGYOT-G 006400630015
BI00B32D2    DGTC2225       202204287116-4486-02             TERMINAL                 CCN000028000000028000FN00000000020220601000028000NNM   20220325121036    4P0P  00002800000000666400000995132D2    TGYOT-G 006400630017
BI00B32D2    DGTC2225       202204287116-5045-02             TERMINAL                 CCN000016000000016000FN00000000020220601000016000NNM   20220325121036    4P0P  00001600000000678400001007132D2    TGYOT-G 006400630017
BI00B32D2    DGTC2225       202204287116-5046-02             TERMINAL                 CCN000024000000024000FN00000000020220601000024000NNM   20220325121036    4P0P  00001200000000544800000873532D2    TGYOT-G 006400630017
BI00B32D2    DGTC2225       202204287126-8853-02             TERMINAL                 CCN000022500000022500FN00000000020220601000022500NNM   20220325121036    4P0P  00000750000000562500000847732D2    TGYOT-G 006400630015
BI00B32D2    DGTC2225       202204287173-3291-40             LIF LEVER                CCN000004800000004800FN00000000020220601000004800NNM   20220325121036    1F0F  00000240000000867800001067832D2    TGYOT-G 005500360039
BI00B32D2    DGTC2225       202204287196-0396-02             TERMINAL                 CCN000015000000015000FN00000000020220601000015000NNM   20220325121036    4P0P  00001500000000949500001112932D2    TGYOT-G 002800510028
BI00B32D2    DGTC2225       202204287196-1327-02             TERMINAL FEMALE          CCN000052000000052000FN00000000020220601000052000NNM   20220325121036    4P0P  00005200000000336000000739532D2    TGYOT-G 006400630017
BI00B32D2    DGTC2225       202204287283-1968-30             CONNECTOR                CCN000000900000000900FN00000000020220601000000900NNM   20220325121036    1N0N  00000090000001140000001318332D2    TGYOT-G 005600390040
BI00B32D2    DGTC2225       202204287289-3342-40             HOUSING FEMALE ASS'Y     CCN000007200000007200FN00000000020220601000007200NNM   20220325121036    1N0N  00000240000000686400000901432D2    TGYOT-G 005500360039
BI00B32D2    DGTC2225       202204287289-6518-30             HOUSING FEMALE ASS'Y     CCN000002400000002400FN00000000020220601000002400NNM   20220325121036    1N0N  00000120000000829200001049232D2    TGYOT-G 005500360039
BI00B32D2    DGTC2225       202204287296-1020-02             TERMINAL ALUMINIUM       CCN000022500000022500FN00000000020220601000022500NNM   20220325121036    4P0P  00002250000000699800000985032D2    TGYOT-G 006400630015
BI00B32D2    DGTC2225       202204287296-1024-02             TERMINAL ALUMINIUM       CCN000018000000018000FN00000000020220601000018000NNM   20220325121036    4P0P  00001800000000698400000983632D2    TGYOT-G 006400630015
BI00B32D2    DGTC2225       202204287327-6801-3W             BATTERY FUSE             CCN000006816000006816FN00000000020220601000006816NNM   20220325121036    4N0N  00000009600000928400001143432D2    TGYOT-G 005500360039
BI00B32D2    DGTC2225       202204287327-6806                MULTI FUSE               CCN000003360000003360FN00000000020220601000003360NNM   20220325121036    4N0N  00000056000000851500001063932D2    TGYOT-G 005400370024
BI00B32D2    DGTC2225       202204287327-6930                MULTI FUSE               CCN000003360000003360FN00000000020220601000003360NNM   20220325121036    4N0N  00000056000000848900001031932D2    TGYOT-G 005400370024
BI00B32D2    DGTC2225       202204287388-2978-30             HOUSING MALE ASS'Y       CCN000006720000006720FN00000000020220601000006720NNM   20220325121036    1N0N  00000048000000742000001122032D2    TGYOT-G 005500360039
BI00B32D2    #DGTC2225      202204287158-3003-90             RUBBER STOPPER           CCN000140000000140000FN00000000020220601000140000NNM   20220325121036    2C0C  00002000000000250000000306032D2    TGYOT-G 002700430014
BI00B32D2    #DGTC2225      202204287158-3005-80             RUBBER STOPPER           CCN000040000000040000FN00000000020220601000040000NNM   20220325121036    2H0H  00002000000000210000000268732D2    TGYOT-G 002700430014
BI00B32D2    #DGTC2225      202204287158-3008-80             RUBBER STOPPER           CCN000060000000060000FN00000000020220601000060000NNM   20220325121036    2C0C  00002000000000288000000343032D2    TGYOT-G 004300270014
BI00B32D2    #DGTC2225      202204287158-3015-10             RUBBER STOPPER           CCN000030000000030000FN00000000020220601000030000NNM   20220325121036    2C0C  00001000000000419500000474032D2    TGYOT-G 002700430014
BI00B32D2    #DGTC2225      202204287158-3017                RUBBER STOPPER           CCN000010000000010000FN00000000020220601000010000NNM   20220325121036    2C0C  00001000000000375500000435032D2    TGYOT-G 002700430014
BI00B32D2    #DGTC2225      202204287158-3374-90             CONNECTOR WIRE SEAL      CCN000120000000120000FN00000000020220601000120000NNM   20220325121036    2H0H  00002000000000172000000229332D2    TGYOT-G 002700430014
BI00B32D2    #DGTC2225      202204287172-5625-90             RUBBER STOPPER           CCN000020000000020000FN00000000020220601000020000NNM   20220325121036    2H0H  00002000000000082400000133832D2    TGYOT-G 004300270014
BI00B32D2    #DGTC2225      202204287172-5627-60             RUBBER STOPPER           CCN000020000000020000FN00000000020220601000020000NNM   20220325121036    2H0H  00002000000000070400000121832D2    TGYOT-G 004300270014
BI00B32D2    #DGTC2225      202204287172-5628-80             DUMMY PLUG               CCN000020000000020000FN00000000020220601000020000NNM   20220325121036    2H0H  00002000000000110600000162032D2    TGYOT-G 004300270014
BI00B32D2    #DGTC2225      202204287172-5629-80             RUBBER STOPPER           CCN000300000000300000FN00000000020220601000300000NNM   20220325121036    2H0H  00002000000000060000000111132D2    TGYOT-G 004300270014
BI00B32D2    #DGTC2225      202204287172-5630-40             RUBBER STOPPER           CCN000160000000160000FN00000000020220601000160000NNM   20220325121036    2H0H  00002000000000044000000095132D2    TGYOT-G 004300270014
BI00B32D2    #DGTC2225      202204287172-5631-60             RUBBER STOPPER           CCN000100000000100000FN00000000020220601000100000NNM   20220325121036    2H0H  00002000000000042000000093132D2    TGYOT-G 004300270014
BI00B32D2    #DGTC2225      202204287172-5632-10             DUMMY PLUG               CCN000080000000080000FN00000000020220601000080000NNM   20220325121036    2H0H  00002000000000080400000131832D2    TGYOT-G 004300270014
BI00B32D2    #DGTC2225      202204287189-2978-30             HOUSING FEMALE           CCN000004500000004500FN00000000020220601000004500NNM   20220325121036    2F0F  00000150000000966900001096932D2    TGYOT-G 005400370024
BI00B32D2    #DGTC2225      202204287189-3033                HOUSING FEMALE           CCN000003200000003200FN00000000020220601000003200NNM   20220325121036    2F0F  00000160000001211200001431232D2    TGYOT-G 005500360039
BI00B32D2    #DGTC2225      202204287189-3037-40             HOUSING FEMALE           CCN000004800000004800FN00000000020220601000004800NNM   20220325121036    2F0F  00000480000000901600001061632D2    TGYOT-G 005500360039
BI00B32D2    #DGTC2225      202204287283-8226-30             CONNECTOR                CCN000006000000006000FN00000000020220601000006000NNM   20220325121036    2N0N  00000200000000820000001008032D2    TGYOT-G 005400370024
BI00B32D2    #DGTC2225      202204287289-2912-40             HOUSING FEMALE ASS'Y     CCN000002000000002000FN00000000020220601000002000NNM   20220325121036    2N0N  00000200000000804000000931032D2    TGYOT-G 005400370024
BI00B32D2    #DGTC2225      202204287289-3622-30             HOUSING FEMALE ASS'Y     CCN000001728000001728FN00000000020220601000001728NNM   20220325121036    2N0N  00000043200000839400001038432D2    TGYOT-G 005400370024
BI00B32D2    #DGTC2225      202204287289-4200-30             HOUSING FEMALE ASS'Y     CCN000002000000002000FN00000000020220601000002000NNM   20220325121036    2N0N  00000200000000926000001021032D2    TGYOT-G 005400370024
BI00B32EJ    T220311P04     202204077158-3166-60             WIRE SEAL                CCN000040000000040000FN00000000020220401000040000NNED0020220325121036EJ  1C0C  00004000000000104000000152432EJ    EJYKBO  002700430014
BI00B32EJ    T220311P04     202204077158-3168-80             SEALED                   CCN000360000000360000FN00000000020220401000360000NNED0020220325121036EJ  1C0C  00002000000000044000000092132EJ    EJYKBO  004300260014
BI00B32EJ    T220311P04     202204077114-4101-02             TERMINAL                 CCN000300000000300000FN00000000020220401000300000NNED0020220325121036EJ  4P0P  00001500000000675000001003632EJ    EJYKBO  006400630017
BI00B32EJ    T220311P04     202204077116-1180                TERMINAL                 CCN000019500000019500FN00000000020220401000019500NNED0020220325121036EJ  1P0P  00001950000000618200000903432EJ    EJYKBO  006400630015
BI00B32EJ    T220311P04     202204077116-4022                TERMINAL                 CCN000040500000040500FN00000000020220401000040500NNED0020220325121036EJ  4P0P  00001350000000618300000903532EJ    EJYKBO  006400630015
BI00B32EJ    T220311P04     202204077116-4025                TERMINAL                 CCN000016000000016000FN00000000020220401000016000NNED0020220325121036EJ  4P0P  00001600000000644800000975132EJ    EJYKBO  006400630017
BI00B32EJ    T220311P04     202204077116-4121-02             TERMINAL                 CCN000045000000045000FN00000000020220401000045000NNED0020220325121036EJ  4P0P  00000450000000618800000912432EJ    EJYKBO  006400630015
BI00A32E2    NY2071         202203307158-3006-90             RUBBER STOPPER           CCN000080000000080000FN00000000020220601000080000NNMM0020220325143416    1C0C  00002000000000330600000386032E2    SPYSE   002700430014
BI00A32E2    NY2072         202203307158-3006-90             RUBBER STOPPER           CCN000020000000020000FN00000000020220601000020000NNMM0020220325143432    1C0C  00002000000000330600000386032E2    SPYSE   002700430014
BI00A32E2    NY2073         202203307158-3006-90             RUBBER STOPPER           CCN000020000000020000FN00000000020220601000020000NNMM0020220325143451    1C0C  00002000000000330600000386032E2    SPYSE   002700430014
BI00B32G7    JJ2205C MW     202204287116-2891-02             TERMINAL                 CCN000015000000015000FN00000000020220501000015000NNE   20220325141906    4P0P  00001500000000982500001145932G7    JIJAI   005100280028
BI00B32G7    JJ2205C MW     202204287116-5752-02             TERMINAL                 CCN000021000000021000FN00000000020220501000021000NNE   20220325141906    4P0P  00002100000000571200000856432G7    JIJAI   006400630015
BI00B32G7    JJ2205C MW     202204287158-3167-80             WIRE SEAL                CCN000020000000020000FN00000000020220501000020000NNE   20220325141906    1C0C  00002000000000048000000109032G7    JIJAI   002700430014
BI00B32G7    JJ2205CMMW     202204287196-0396-02             TERMINAL                 CCN000015000000015000FN00000000020220501000015000NNE   20220325141942    4P0P  00001500000000949500001112932G7    JIJAI   002800510028
BI00B32G7    JJ2205CMMW     202204287287-1915-90             CONNECTOR ASS'Y          CCN000002400000002400FN00000000020220501000002400NNE   20220325141942    4N0N  00000240000000666500000923132G7    JIJAI   005500360039
BI00B32G7    JJ2205CMMW     202204287327-6731-3W             BATTERY FUSE             CCN000000064000000064FN00000000020220501000000064NNE   20220325141942    4N0N  00000006400000697600000843032G7    JIJAI   005400370024
BI00B32G7    #JJ2205CMMW    202204287158-3005-80             RUBBER STOPPER           CCN000020000000020000FN00000000020220501000020000NNE   20220325141938    2H0H  00002000000000210000000268732G7    JIJAI   002700430014
BI00B32H2    #TIJ204L       202204087286-7860                HOUSING MALE ASS'Y       CCN000024000000024000FN00000000020220401000024000NNED0020220325121036    2N0N  00000080000000951700001139832H2    HVYHV   005400370024
BI00B32J1    392704         202204117158-3167-80             WIRE SEAL                CCN002640000002640000FN00000000020220401002640000NNM00020220325165157    1C0C  00002000000000048000000109032J1    UKYEL-BL002700430014
BI00B32J1    392704         202204117298-1869-30             HOUSING FEMALE ASS'Y     CCN000043200000043200FN00000000020220401000043200NNM00020220325165325    4N0N  00000120000000737000000939832J1    UKYEL-BL005500360039
BI00B32J1    392909         202205097298-2280-30             HOUSING FEMALE ASS'Y     CCN000001920000001920FN00000000020220501000001920NNE   20220325121036    4N0N  00000192000001068000001216032J1    UKYEL-BL005500360039
BI00B32J1    392909         202205097298-2507-30             HOUSING FEMALE ASS'Y     CCN000001200000001200FN00000000020220501000001200NNE   20220325121036    4N0N  00000120000000713200000914532J1    UKYEL-BL005500360039
BI00B32J1    392909         202205097298-2509-30             HOUSING FEMALE ASS'Y     CCN000001200000001200FN00000000020220501000001200NNE   20220325121036    4N0N  00000120000000857500001062532J1    UKYEL-BL005500360039
BI00B32J1    #392909        202205097183-7725-40             HOUSING                  CCN000006000000006000FN00000000020220501000006000NNE   20220325121036    2F0F  00000600000000840000001040032J1    UKYEL-BL005600390040
BI00B32J1    #392909        202205097297-1907-30             HOUSING MALE ASS'Y       CCN000001500000001500FN00000000020220501000001500NNE   20220325121036    2N0N  00000150000000451800000568032J1    UKYEL-BL005400370024
BI00A32J1    392921         202203187114-4030                TERMINAL                 CCN000021000000021000FN00000000020220301000021000NNED0720220325121036    4P0P  00001050000000926100001254732J1    UKYEL-BL006400630017
BI00B32J1    392927         202204187114-1475                TERMINAL                 CCN000040500000040500FN00000000020220401000040500NNM   20220325121036    4P0P  00001350000000480600000774232J1    UKYEL-BL006400630015
BI00B32J1    392927         202204187116-5045-02             TERMINAL                 CCN000016000000016000FN00000000020220401000016000NNM   20220325121036    4P0P  00001600000000678400001007132J1    UKYEL-BL006400630017
BI00B32J1    392927         202204187126-8850-02             TERMINAL                 CCN000009000000009000FN00000000020220401000009000NNM   20220325121036    1P0P  00000900000000672300000957532J1    UKYEL-BL006400630015
BI00B32J1    392927         202204187158-3006-90             RUBBER STOPPER           CCN000020000000020000FN00000000020220401000020000NNM   20220325121036    1C0C  00002000000000330600000386032J1    UKYEL-BL002700430014
BI00B32J1    392927         202204187158-3166-60             WIRE SEAL                CCN002160000002160000FN00000000020220401002160000NNM   20220325121036    1C0C  00004000000000104000000152432J1    UKYEL-BL002700430014
BI00B32J1    392927         202204187158-3167-61             WIRE SEAL                CCN000040000000040000FN00000000020220401000040000NNM   20220325121036    1C0C  00002000000000048000000096432J1    UKYEL-BL004300270014
BI00B32J1    392927         202204187158-3167-80             WIRE SEAL                CCN002640000002640000FN00000000020220401002640000NNM   20220325121036    1C0C  00002000000000048000000109032J1    UKYEL-BL002700430014
BI00B32J1    392927         202204187158-3168-80             SEALED                   CCN000280000000280000FN00000000020220401000280000NNM   20220325121036    1C0C  00002000000000044000000092132J1    UKYEL-BL004300260014
BI00B32J1    392927         202204187196-0104-02             TERMINAL                 CCN000038000000038000FN00000000020220401000038000NNM   20220325121036    4P0P  00003800000000570000000956432J1    UKYEL-BL006400630017
BI00B32J1    392927         202204187196-1461-02             TERMINAL FEMALE          CCN000096000000096000FN00000000020220401000096000NNM   20220325121036    4P0P  00002400000000386400000671632J1    UKYEL-BL006400630015
BI00B32J1    392927         202204187196-1461-06             TERMINAL FEMALE          CCN000024000000024000FN00000000020220401000024000NNM   20220325121036    4P0P  00002400000000386400000692932J1    UKYEL-BL006400630015
BI00B32J1    392927         202204187282-5574-10             CONNECTOR                CCN000003200000003200FN00000000020220401000003200NNM   20220325121036    4N0N  00000080000001235000001423032J1    UKYEL-BL005600390040
BI00B32J1    392927         202204187283-1040                CONNECTOR                CCN000008000000008000FN00000000020220401000008000NNM   20220325121036    4N0N  00000200000000396000000670032J1    UKYEL-BL005600390040
BI00B32J1    392927         202204187283-5553-10             CONNECTOR                CCN000001000000001000FN00000000020220401000001000NNM   20220325121036    4N0N  00000100000001374000001658032J1    UKYEL-BL005600390040
BI00B32J1    392927         202204187283-6388-40             CONNECTOR                CCN000004000000004000FN00000000020220401000004000NNM   20220325121036    4N0N  00000200000001029000001173532J1    UKYEL-BL005500360039
BI00B32J1    392927         202204187283-7023-30             CONNECTOR                CCN000002500000002500FN00000000020220401000002500NNM   20220325121036    4N0N  00000250000001358000001556032J1    UKYEL-BL005500360039
BI00B32J1    392927         202204187283-8630                CONNECTOR ASS'Y          CCN000006000000006000FN00000000020220401000006000NNM   20220325121036    4N0N  00000600000000540000000701332J1    UKYEL-BL005400370024
BI00B32J1    392927         202204187298-1865-30             HOUSING FEMALE ASS'Y     CCN000050400000050400FN00000000020220401000050400NNM   20220325121036    4N0N  00000240000001003200001204532J1    UKYEL-BL005500360039
BI00B32J1    392927         202204187298-1869-30             HOUSING FEMALE ASS'Y     CCN000016800000016800FN00000000020220401000016800NNM   20220325121036    4N0N  00000120000000737000000939832J1    UKYEL-BL005500360039
BI00B32J1    392927         202204187298-2278-30             HOUSING FEMALE ASS'Y     CCN000045600000045600FN00000000020220401000045600NNM   20220325121036    4N0N  00000240000001091700001295432J1    UKYEL-BL005500360039
BI00B32J1    392927         202204187298-2507-30             HOUSING FEMALE ASS'Y     CCN000001200000001200FN00000000020220401000001200NNM   20220325121036    4N0N  00000120000000713200000914532J1    UKYEL-BL005500360039
BI00B32J1    392927         202204187298-2508-30             HOUSING FEMALE ASS'Y     CCN000001200000001200FN00000000020220401000001200NNM   20220325121036    4N0N  00000120000000822000001005032J1    UKYEL-BL005500360039
BI00B32J1    392927         202204187298-2509-30             HOUSING FEMALE ASS'Y     CCN000003600000003600FN00000000020220401000003600NNM   20220325121036    4N0N  00000120000000857500001062532J1    UKYEL-BL005500360039
BI00B32J1    #392927        202204187047-5344                RETAINER                 CCN000060000000060000FN00000000020220401000060000NNM   20220325121036    2F0F  00001000000000870000001016032J1    UKYEL-BL005600390023
BI00B32J1    #392927        202204187134-4547-30             COVER                    CCN000005000000005000FN00000000020220401000005000NNM   20220325121036    2F0F  00000250000000989000001156732J1    UKYEL-BL005600390040
BI00B32J1    #392927        202204187282-6446-30             CONNECTOR                CCN000003000000003000FN00000000020220401000003000NNM   20220325121036    2N0N  00000150000001185000001335032J1    UKYEL-BL005500360039
BI00B32J1    #392927        202204187282-6457-40             CONNECTOR                CCN000004800000004800FN00000000020220401000004800NNM   20220325121036    2N0N  00000080000001137000001421332J1    UKYEL-BL005600390040
BI00B32K8    #K1220010647   202205137137-2718-50             SEALED CONNECTOR         CCN000001000000001000FN00000000020220601000001000NNM   20220325121036    2C0C  00000100000000118300000236632K8    ELELCOM 002700430014
BI00B32M1    TCV2033        202203187289-3342                HOUSING FEMALE ASS'Y     CCN000134400000036000FY00003600020220301000000000NNM00020220325164604    1N0N  00000240000000686400000901432M1    VNYEV   005500360039
BI00B32M1    TCV2043        202203317289-3342-30             HOUSING FEMALE ASS'Y     CCN000036000000036000FN00000000020220401000036000NNM00020220325160528    1N0N  00000240000000686400000901432M1    VNYEV   005500360039
BI00T32M1    @ICV204A       202204047283-1556                CONNECTOR ASS'Y          CCN000024000000024000FN00000000020220401000024000NNE   20220325121036    3N0N  00000240000000755000001014032M1    VNYEV   005500360039
BI00A32M1    TCV2033        202203307289-3342                HOUSING FEMALE ASS'Y     PCN000057600000057600FN00000000020220301000057600NNM00020220325164604    1N0N  00000240000000686400000901432M1    VNYEV   005500360039
BI00A32M1    TCV2033        202204047289-3342                HOUSING FEMALE ASS'Y     PCN000040800000040800FN00000000020220301000040800NNM00020220325164618    1N0N  00000240000000686400000901432M1    VNYEV   005500360039
BI00B32M4    TP2053A        202205267282-4855-40             HOUSING MALE ASS'Y       CCN000001200000001200FN00000000020220501000001200NNED0220220325135822    4N0N  00000120000001063200001283232M4    SISAI   005500360039
BI00B32M4    TP2053B        202204287327-6998-30             MULTI FUSE               CCN000000288000000288FN00000000020220501000000288NNE   20220325121036    4N0N  00000028800000886000001051932M4    SISAI   005400370024
BI00B32N1    NST2118ICU     202204077114-1301                TERMINAL                 CCN000039000000039000FN00000000020220501000039000NNE   20220325121036    4P0P  00001950000000614300000907932N1    TAYIPL  006400630015
BI00B32N1    NST2118ICU     202204077114-4020                TERMINAL                 CCN000147000000147000FN00000000020220501000147000NNE   20220325121036    4P0P  00002100000000875700001169332N1    TAYIPL  006400630015
BI00B32N1    NST2118ICU     202204077114-4031                TERMINAL                 CCN000168000000168000FN00000000020220501000168000NNE   20220325121036    4P0P  00001050000000966000001294632N1    TAYIPL  006400630017
BI00B32N1    NST2118ICU     202204077114-4032                TERMINAL                 CCN000007500000007500FN00000000020220501000007500NNE   20220325121036    4P0P  00000750000000735000001063632N1    TAYIPL  006400630017
BI00B32N1    NST2118ICU     202204077116-1471                TERMINAL                 CCN000090000000090000FN00000000020220501000090000NNE   20220325121036    4P0P  00001500000000579000000867232N1    TAYIPL  006400630015
BI00B32N1    NST2118ICU     202204077116-4020                TERMINAL                 CCN000081000000081000FN00000000020220501000081000NNE   20220325121036    4P0P  00001350000000513000000798232N1    TAYIPL  006400630015
BI00B32N1    NST2118ICU     202204077116-6041                TERMINAL                 CCN000009000000009000FN00000000020220501000009000NNE   20220325121036    4P0P  00000450000000716000001009632N1    TAYIPL  006400630015
BI00B32N1    NST2118ICU     202204077116-6042                TERMINAL                 CCN000015000000015000FN00000000020220501000015000NNE   20220325121036    4P0P  00000300000000523800000856132N1    TAYIPL  006400630015
BI00B32N1    NST2118ICU     202204077283-4577                CONNECTOR HOUSING        CCN000004800000004800FN00000000020220501000004800NNE   20220325121036    4N0N  00000480000000916800001136832N1    TAYIPL  005500360039
BI00B32N1    NST2118ICU     202204077283-5845                CONNECTOR HOUSING        CCN000012000000012000FN00000000020220501000012000NNE   20220325121036    1N0N  00000600000000444000000606332N1    TAYIPL  005400370024
BI00B32N1    NST2118ICU     202204077114-4729-02             TERMINAL                 CCN000030000000030000FN00000000020220501000030000NNE   20220325121036    4P0P  00003000000000516000000810232N1    TAYIPL  006400630015
BI00B32N1    NST2118ICU     202204077116-1486-02             TERMINAL                 CCN000066000000066000FN00000000020220501000066000NNE   20220325121036    4P0P  00001650000000655100000940332N1    TAYIPL  006400630015
BI00B32N1    NST2118ICU     202204077116-2892-02             TERMINAL                 CCN000096000000096000FN00000000020220501000096000NNE   20220325121036    4P0P  00001200000000818400000981832N1    TAYIPL  005100280028
BI00B32N1    NST2118ICU     202204077116-4415-02             TERMINAL                 CCN000342000000342000FN00000000020220501000342000NNE   20220325121036    4P0P  00003800000000596600000925732N1    TAYIPL  006400630017
BI00B32N1    NST2118ICU     202204077116-5041-02             TERMINAL                 CCN000030000000030000FN00000000020220501000030000NNE   20220325121036    4P0P  00001500000000583500000868732N1    TAYIPL  006400630015
BI00B32N1    NST2118ICU     202204077158-3070-80             RUBBER STOPPER           CCN000960000000960000FN00000000020220501000960000NNE   20220325121036    1C0C  00004000000000276000000333332N1    TAYIPL  002700430014
BI00B32N1    NST2118ICU     202204077158-3166-60             WIRE SEAL                CCN002560000002560000FN00000000020220501002560000NNE   20220325121036    1C0C  00004000000000104000000152432N1    TAYIPL  002700430014
BI00B32N1    NST2118ICU     202204077158-3167-80             WIRE SEAL                CCN002420000002420000FN00000000020220501002420000NNE   20220325121036    1C0C  00002000000000048000000109032N1    TAYIPL  002700430014
BI00B32N1    NST2118ICU     202204077158-3168-80             SEALED                   CCN001860000001860000FN00000000020220501001860000NNE   20220325121036    1C0C  00002000000000044000000092132N1    TAYIPL  004300260014
BI00B32N1    NST2118ICU     202204077172-5540-80             SEALED WIRE SEAL         CCN000060000000060000FN00000000020220501000060000NNE   20220325121036    1C0C  00002000000000186000000234432N1    TAYIPL  004300270014
BI00B32N1    NST2118ICU     202204077196-0511-02             TERMINAL                 CCN000024000000024000FN00000000020220501000024000NNE   20220325121036    4P0P  00002400000000916800001080232N1    TAYIPL  002800510028
BI00B32N1    NST2118ICU     202204077196-0805-02             TERMINAL FEMALE          CCN000157500000157500FN00000000020220501000157500NNE   20220325121036    4P0P  00002250000000558000000843232N1    TAYIPL  006400630015
BI00B32N1    NST2118ICU     202204077283-5830-30             CONNECTOR                CCN000012000000012000FN00000000020220501000012000NNE   20220325121036    1N0N  00000600000000954000001104032N1    TAYIPL  005500360039
BI00B32N1    NST2118ICU     202204077289-4212-80             SEALED HOUSING ASS'Y     CCN000004000000004000FN00000000020220501000004000NNE   20220325121036    4N0N  00000200000000848600000978632N1    TAYIPL  005400370024
BI00B32N1    NST2118ICU     202204077B58-3070-80             RUBBER STOPPER           CCN000280000000280000FN00000000020220501000280000NNE   20220325121036    1C0C  00004000000000276000000333032N1    TAYIPL  004300270014
BI00B32N1    #NST2118ICU    202204077114-4022                TERMINAL                 CCN000030000000030000FN00000000020220501000030000NNE   20220325121036    2F0P  00001500000000708000001120632N1    TAYIPL  006400630015
BI00B32N1    #NST2118ICU    202204077116-4021                TERMINAL                 CCN000054000000054000FN00000000020220501000054000NNE   20220325121036    2F0P  00001350000000534600000868832N1    TAYIPL  006400630015
BI00B32N1    #NST2118ICU    202204077157-7812                SEAL RUBBER              CCN000070000000070000FN00000000020220501000070000NNE   20220325121036    2C0C  00001000000000137000000202032N1    TAYIPL  002700430014
BI00B32N1    #NST2118ICU    202204077183-1616                CONNECTOR HOUSING        CCN000021600000021600FN00000000020220501000021600NNE   20220325121036    2F0F  00000240000000557500000823332N1    TAYIPL  005500360039
BI00B32N1    #NST2118ICU    202204077283-5831                CONNECTOR                CCN000012000000012000FN00000000020220501000012000NNE   20220325121036    2N0N  00000300000000750000000880032N1    TAYIPL  005400370024
BI00B32N1    #NST2118ICU    202204077157-3950-80             SEAL RUBBER              CCN000240000000240000FN00000000020220501000240000NNE   20220325121036    2C0C  00004000000000154000000440332N1    TAYIPL  002700430014
BI00B32N1    #NST2118ICU    202204077157-6826-80             REAR HOLDER              CCN000030000000030000FN00000000020220501000030000NNE   20220325121036    2F0F  00001500000001234500001394132N1    TAYIPL  005600390040
BI00B32N1    #NST2118ICU    202204077158-3007-10             RUBBER STOPPER           CCN000640000000640000FN00000000020220501000640000NNE   20220325121036    2H0H  00002000000000308000000362732N1    TAYIPL  002700430014
BI00B32N1    #NST2118ICU    202204077158-3008-80             RUBBER STOPPER           CCN000060000000060000FN00000000020220501000060000NNE   20220325121036    2C0C  00002000000000288000000343032N1    TAYIPL  004300270014
BI00B32N1    #NST2118ICU    202204077158-3121-80             WIRE SEAL                CCN000460000000460000FN00000000020220501000460000NNE   20220325121036    2C0C  00002000000000118000000187332N1    TAYIPL  002700430014
BI00B32N1    #NST2118ICU    202204077183-7725-40             HOUSING                  CCN000006000000006000FN00000000020220501000006000NNE   20220325121036    2F0F  00000600000000840000001040032N1    TAYIPL  005600390040
BI00B32N1    #NST2118ICU    202204077289-2912-30             HOUSING FEMALE ASS'Y     CCN000018000000018000FN00000000020220501000018000NNE   20220325121036    2N0N  00000200000000804000000929032N1    TAYIPL  005400370024
BI00B32N1    NST2118JCU     202204217283-1928-80             CONNECTOR                CCN000026000000026000FN00000000020220501000026000NNE   20220325133946    4N0N  00000200000001180000001358332N1    TAYIPL  005500360039
BI00B32N1    #NST2118JCU    202204217123-1424-40             CONNECTOR HOUSING        CCN000004200000004200FN00000000020220501000004200NNE   20220325133940    2F0F  00000420000000987000001112032N1    TAYIPL  005400370024
BI00B32Q8    EU2205DTMW     202205047327-6950-30             MULTI FUSE               CCN000001728000001728FN00000000020220501000001728NNED0420220325121036    4N00  00000028800000888700001054632Q8    EMEMI   005400370024
BI00B32Q8    EU2205DTMW     202205047327-6952-30             MULTI FUSE               CCN000001680000001680FN00000000020220501000001680NNED0420220325121036    4N0N  00000056000000848500001031532Q8    EMEMI   005400370024
BI00B32Q8    EU2205DTMW     202205047327-6954-30             MULTI FUSE               CCN000002400000002400FN00000000020220501000002400NNED0420220325121036    4N00  00000060000000751600000954332Q8    EMEMI   005400370024
BI00B32Q8    EU22061TMW     202205117327-6950-30             MULTI FUSE               CCN000001152000001152FN00000000020220601000001152NNMD0420220325121036    4N00  00000028800000888700001054632Q8    EMEMI   005400370024
BI00B32Q8    EU22062TMW     202205187327-6950-30             MULTI FUSE               CCN000001440000001440FN00000000020220601000001440NNMD0420220325121036    4N00  00000028800000888700001054632Q8    EMEMI   005400370024
BI00B32Q8    EU22063TMW     202205257327-6950-30             MULTI FUSE               CCN000002016000002016FN00000000020220601000002016NNMD0420220325121036    4N00  00000028800000888700001054632Q8    EMEMI   005400370024
BI00B32Q8    EU22064TMW     202206017327-6950-30             MULTI FUSE               CCN000001440000001440FN00000000020220601000001440NNMD0420220325121036    4N00  00000028800000888700001054632Q8    EMEMI   005400370024
BI00B32Q8    EU22061TMW     202205117327-6952-30             MULTI FUSE               CCN000001680000001680FN00000000020220601000001680NNMD0420220325121036    4N0N  00000056000000848500001031532Q8    EMEMI   005400370024
BI00B32Q8    EU22062TMW     202205187327-6952-30             MULTI FUSE               CCN000001680000001680FN00000000020220601000001680NNMD0420220325121036    4N0N  00000056000000848500001031532Q8    EMEMI   005400370024
BI00B32Q8    EU22063TMW     202205257327-6952-30             MULTI FUSE               CCN000002240000002240FN00000000020220601000002240NNMD0420220325121036    4N0N  00000056000000848500001031532Q8    EMEMI   005400370024
BI00B32Q8    EU22064TMW     202206017327-6952-30             MULTI FUSE               CCN000001680000001680FN00000000020220601000001680NNMD0420220325121036    4N0N  00000056000000848500001031532Q8    EMEMI   005400370024
BI00B32Q8    EU22061TMW     202205117327-6954-30             MULTI FUSE               CCN000001800000001800FN00000000020220601000001800NNMD0420220325121036    4N00  00000060000000751600000954332Q8    EMEMI   005400370024
BI00B32Q8    EU22062TMW     202205187327-6954-30             MULTI FUSE               CCN000000600000000600FN00000000020220601000000600NNMD0420220325121036    4N00  00000060000000751600000954332Q8    EMEMI   005400370024
BI00B32Q8    EU22063TMW     202205257327-6954-30             MULTI FUSE               CCN000001800000001800FN00000000020220601000001800NNMD0420220325121036    4N00  00000060000000751600000954332Q8    EMEMI   005400370024
BI00B32Q8    EU22064TMW     202206017327-6954-30             MULTI FUSE               CCN000001800000001800FN00000000020220601000001800NNMD0420220325121036    4N00  00000060000000751600000954332Q8    EMEMI   005400370024
BI00B32Q8    EU2205A MW     202204207183-2417-30             CONNECTOR HOUSING        CCN000002400000002400FN00000000020220501000002400NNE   20220325121036    4F0F  00000240000001137600001297932Q8    EMEMI   005500360039
BI00B32Q8    EU2205A MW     202204207283-5843                CONNECTOR                CCN000001500000001500FN00000000020220501000001500NNE   20220325121036    1N0N  00000150000000889000001132032Q8    EMEMI   005600390040
BI00B32Q8    EU2205A MW     202204207283-7526-30             CONNECTOR HOUSING        CCN000001960000001960FN00000000020220501000001960NNE   20220325121036    4N0N  00000196000000989800001248632Q8    EMEMI   005500360039
BI00B32Q8    EU2205ETMW     202204207283-4576-30             HOUSING FEMALE ASS'Y     CCN000004800000004800FN00000000020220501000004800NNE   20220325121036    4N0N  00000480000000651300000871332Q8    EMEMI   005500360039
BI00B32Q8    EU2205ETMW     202204207288-3338-30             HOUSING MALE             CCN000001500000001500FN00000000020220501000001500NNE   20220325121036    4N0N  00000150000000866100001012032Q8    EMEMI   005400370024
BI00B32R7    R-TAP220144    202203317116-4022                TERMINAL                 CCN000013500000013500FN00000000020220401000013500NNE   20220325121036    4P0P  00001350000000618300000903532R7    IVYCIC  006400630015
BI00B32R7    R-TAP220144    202203317116-6041                TERMINAL                 CCN000004500000004500FN00000000020220401000004500NNE   20220325121036    4P0P  00000450000000716000001009632R7    IVYCIC  006400630015
BI00B32R7    R-TAP220144    202204077283-1968-30             CONNECTOR                CCN000001800000001800FN00000000020220401000001800NNED0720220325121036    1N0N  00000090000001140000001318332R7    IVYCIC  005600390040
BI00B32R7    R-TAP220145    202204077158-3167-80             WIRE SEAL                CCN000020000000020000FN00000000020220401000020000NNE   20220325142653    1C0C  00002000000000048000000109032R7    IVYCIC  002700430014
BI00B32R7    R-TAP220147    202204077116-4121-02             TERMINAL                 CCN000013500000013500FN00000000020220401000013500NNE   20220325142712    4P0P  00000450000000618800000912432R7    IVYCIC  006400630015
BI00B32R7    R-TAP220148    202204077116-4121-02             TERMINAL                 CCN000013500000013500FN00000000020220401000013500NNE   20220325142734    4P0P  00000450000000618800000912432R7    IVYCIC  006400630015
BI00B32R7    R-TAP220143    202205057298-1186-40             SQUIB SUB ASS'Y          CCN000030000000030000FN00000000020220501000030000NNE   20220325143655    4N0N  00001000000000650000000774532R7    IVYCIC  005400370024
BI00B32R7    R-TAP220146    202204217116-4122-02             TERMINAL                 CCN000004500000004500FN00000000020220501000004500NNE   20220325143729    4P0P  00000450000000656600000950232R7    IVYCIC  006400630015
BI00B32W4    #4500187800    202203287158-3007-10             RUBBER STOPPER           CCN000080000000080000FN00000000020220301000080000NNE00020220325160723W4B72H0H  00002000000000308000000362732W4B7  HJYHK-J 002700430014
BI00A32W4    4500189843     202207147114-4110-02             TERMINAL                 CCN000015000000000000FY00000000020220701000000000NNEQ0820220325112109W4604P0P  00001500000000901500001230132W460  HJYHK   006400630017
BI00A32W4    4500190340     202203297158-3166-60             WIRE SEAL                CCN000040000000040000FN00000000020220401000040000NNED0020220325144722W4N21C0C  00004000000000104000000152432W4N2  HJYHK-J 002700430014
BI00A32W4    4500190392     202203317116-4124-02             TERMINAL                 CCN000003000000003000FN00000000020220401000003000NNED0020220325154710W4804P0P  00000300000000459900000753532W480  HJYHK-J 006400630015
BI00B32W4    4500191425     202206077287-1917                CONNECTOR FEMALE         CCN000002400000002400FN00000000020220601000002400NNED0420220325135925W4K84N0N  00000240000001060800001312532W4K8  HJYHK-J 005500360039
BI00A32W4    4500191436     202209157283-5574-10             CONNECTOR                CCN000000800000000800FN00000000020220901000000800NNE   20220325140722W4804N0N  00000080000001235000001435232W480  HJYHK-J 005500360039
BI00A32W4    #4500191437    202209017282-3243-40             CONNECTOR                CCN000001600000001600FN00000000020220901000001600NNE   20220325141013W4802N0N  00000080000001006000001282332W480  HJYHK-J 005600390040
BI00A32W4    4500191447     202206027116-4124-02             TERMINAL                 CCN000003000000003000FN00000000020220601000003000NNE   20220325141116W4804P0P  00000300000000459900000753532W480  HJYHK-J 006400630015
BI00A32W4    4500191449     202205267126-8853-02             TERMINAL                 CCN000007500000007500FN00000000020220501000007500NNE   20220325141221W4804P0P  00000750000000562500000847732W480  HJYHK-J 006400630015
BI00A32W4    #4500191449    202205267158-3374-90             CONNECTOR WIRE SEAL      CCN000020000000020000FN00000000020220501000020000NNE   20220325141218W4802H0H  00002000000000172000000229332W480  HJYHK-J 002700430014
BI00A32W4    4500191451     202205197116-4121-02             TERMINAL                 CCN000018000000018000FN00000000020220501000018000NNE   20220325141313W4804P0P  00000450000000618800000912432W480  HJYHK-J 006400630015
BI00A32W4    4500191453     202205127116-4103-02             TERMINAL                 CCN000012000000012000FN00000000020220501000012000NNE   20220325141404W4804P0P  00001200000000571200000859432W480  HJYHK-J 006400630015
BI00A32W4    #4500191455    202205057283-8123-40             CONNECTOR HOUSING        CCN000004000000004000FN00000000020220501000004000NNE   20220325141538W4802N0N  00000400000000380000000530032W480  HJYHK-J 005600390023
BI00A32W4    4500191458     202204287116-4122-02             TERMINAL                 CCN000013500000013500FN00000000020220401000013500NNE   20220325141624W4804P0P  00000450000000656600000950232W480  HJYHK-J 006400630015
BI00A32W4    4500191458     202204287116-4120-02             TERMINAL                 CCN000012000000012000FN00000000020220401000012000NNE   20220325141624W4804P0P  00000600000000780000001073632W480  HJYHK-J 006400630015
BI00A32W4    4500191460     202204217283-5548-30             CONNECTOR                CCN000001500000001500FN00000000020220401000001500NNE   20220325141718W4804N0N  00000150000001109000001302032W480  HJYHK-J 005600390040
BI00A32W4    #4500191460    202204217047-5344                RETAINER                 CCN000020000000020000FN00000000020220401000020000NNE   20220325141715W4802F0F  00001000000000870000001016032W480  HJYHK-J 005600390023
BI00A32W4    #4500191460    202204217123-6347                CONNECTOR HOUSING        CCN000004800000004800FN00000000020220401000004800NNE   20220325141715W4802F0F  00000160000000647000000904832W480  HJYHK-J 005500360039
BI00B32W4    4500191465     202204217116-4022                TERMINAL                 CCN000229500000229500FN00000000020220401000229500NNE   20220325141810W4514P0P  00001350000000618300000903532W451  HJ32W9  006400630015
BI00B32W4    4500191465     202204217116-4026                TERMINAL                 CCN000032000000032000FN00000000020220401000032000NNE   20220325141810W4514P0P  00001600000000664000000994332W451  HJ32W9  006400630017
BI00B32W4    4500191465     202204217116-4231-02             TERMINAL                 CCN000260000000260000FN00000000020220401000260000NNE   20220325141810W4514P0P  00002600000000683800001012532W451  HJ32W9  006400630017
BI00B32W4    4500191465     202204217116-6041                TERMINAL                 CCN000090000000090000FN00000000020220401000090000NNE   20220325141810W4514P0P  00000450000000716000001009632W451  HJ32W9  006400630015
BI00B32W4    4500191465     202204217158-3169-40             SEALING PLUG             CCN000040000000040000FN00000000020220401000040000NNE   20220325141810W4511C0C  00004000000000156000000204132W451  HJ32W9  004300260014
BI00B32W4    4500191465     202204217283-1020                CONNECTOR                CCN000222000000222000FN00000000020220401000222000NNE   20220325141810W4514N0N  00000600000000840000001049332W451  HJ32W9  005600390040
BI00B32W4    4500191465     202204217287-1917                CONNECTOR FEMALE         CCN000002400000002400FN00000000020220401000002400NNE   20220325141810W4514N0N  00000240000001060800001312532W451  HJ32W9  005500360039
BI00B32W4    4500191465     202204217287-7975-4W             SQUIB SUB ASS'Y          CCN000010000000010000FN00000000020220401000010000NNE   20220325141810W4514N0N  00001000000000837000001017032W451  HJ32W9  005400370024
BI00B32W4    #4500191465    202204217189-0149                HLC HOUSING FEMALE       CCN000012000000012000FN00000000020220401000012000NNE   20220325141804W4512F0F  00000200000000970000001078532W451  HJ32W9  005400370024
BI00B32W4    #4500191465    202204217158-3003-90             RUBBER STOPPER           CCN000260000000260000FN00000000020220401000260000NNE   20220325141804W4512C0C  00002000000000250000000306032W451  HJ32W9  002700430014
BI00B32W4    #4500191465    202204217183-2415-40             CONNECTOR HOUSING        CCN000009600000009600FN00000000020220401000009600NNE   20220325141804W4512F0F  00000480000000798200001091432W451  HJ32W9  005500360039
BI00B32W4    @4500191465    202204217183-8049                CONNECTOR HOUSING        CCN000016000000016000FN00000000020220401000016000NNE   20220325141807W4513F0F  00000400000000583600000740032W451  HJ32W9  005400370024
BI00A32W4    #4500191477    202205097283-8226-30             CONNECTOR                CCN000006000000006000FN00000000020220501000006000NNE   20220325141849W4422N0N  00000200000000820000001008032W442  HJYHK   005400370024
BI00A32W4    4500191478     202205137116-4112-02             TERMINAL                 CCN000006000000006000FN00000000020220501000006000NNE   20220325141932W4424P0P  00000600000000450000000738232W442  HJYHK   006400630015
BI00A32W4    4500191479     202205237158-3167-80             WIRE SEAL                CCN000040000000040000FN00000000020220501000040000NNE   20220325142008W4421C0C  00002000000000048000000109032W442  HJYHK   002700430014
BI00A32W4    4500191479     202205237116-4026                TERMINAL                 CCN000016000000016000FN00000000020220501000016000NNE   20220325142008W4424P0P  00001600000000664000000994332W442  HJYHK   006400630017
BI00A32W4    4500191483     202206277158-3168-80             SEALED                   CCN000020000000020000FN00000000020220601000020000NNE   20220325142042W4421C0C  00002000000000044000000092132W442  HJYHK   004300260014
BI00B32W4    4500191489     202204217158-3167-80             WIRE SEAL                CCN000080000000080000FN00000000020220401000080000NNE   20220325142214W9151C0C  00002000000000048000000109032W915  HJYHK   002700430014
BI00B32W4    4500191494     202205057388-2978-30             HOUSING MALE ASS'Y       CCN000012000000012000FN00000000020220501000012000NNE   20220325142310W4D41N0N  00000048000000742000001122032W4D4  HJYHK-J 005500360039
BI00B32W4    4500191494     202205057288-6547                CONNECTOR MALE ASS'Y     CCN000003000000003000FN00000000020220501000003000NNE   20220325142310W4D44N0N  00000075000001205300001340332W4D4  HJYHK-J 005400370024
BI00B32W4    4500191494     202205057287-9323                UNSEALED HOUSING SUB     CCN000012000000012000FN00000000020220501000012000NNE   20220325142310W4D41N0N  00000240000000537600000690032W4D4  HJYHK-J 005600390023
BI00B32W4    4500191494     202205057282-8120-40             CONNECTOR HOUSING        CCN000003000000003000FN00000000020220501000003000NNE   20220325142310W4D41N0N  00000300000001356000001520032W4D4  HJYHK-J 005500360039
BI00B32W4    #4500191494    202205057189-2978-30             HOUSING FEMALE           CCN000012000000012000FN00000000020220501000012000NNE   20220325142307W4D42F0F  00000150000000966900001096932W4D4  HJYHK-J 005400370024
BI00A32W4    4500191512     202205237116-4101-02             TERMINAL                 CCN000036000000036000FN00000000020220501000036000NNE   20220325142429W4N24P0P  00001200000000582000000876232W4N2  HJYHK-J 006400630015
BI00A32W4    4500191512     202205237283-1030                CONNECTOR                CCN000006000000006000FN00000000020220501000006000NNE   20220325142429W4N24N0N  00000600000000988000001172032W4N2  HJYHK-J 005500360039
BI00B32W4    4500191521     202206097158-3070-80             RUBBER STOPPER           CCN000800000000000000FY00000000020220601000000000NNEQ0820220325161451W9  1C0C  00004000000000276000000333332W9    HKYHK   002700430014
BI00B32W4    4500191521     202206097282-5574-10             CONNECTOR                CCN000010400000000000FY00000000020220601000000000NNEQ0820220325161451W9  4N0N  00000080000001235000001423032W9    HKYHK   005600390040
BI00B32W4    #4500191521    202206097283-8398-40             CONNECTOR                CCN000007700000000000FY00000000020220601000000000NNEQ0820220325161435W9  2N0N  00000154000001007000001171332W9    HKYHK   005600390023
BI00B32W9    4500191511     202205317116-4100-02             TERMINAL                 CCN000015000000015000FN00000000020220501000015000NNE   20220325142349W9  4P0P  00001500000000696000000990232W9    HKYHK   006400630015
BI00A32X5    TIB2005        202204017289-3342-30             HOUSING FEMALE ASS'Y     PCN000026400000026400FN00000000020220301000026400NNMD0420220325135124X5  1N0N  00000240000000686400000901432X5    EPYNA-E 005500360039
