AV00TIHJ21596B2022062932W456  B32W456  CC.                             . 20629C014 .              .              .              000
AV01.                                                 LOAD AT CK-2                                      LCL                                               0000000401SPLUSER   20220623040636.
AW00TIHJ21596B32W4    20629C014 7116-2892-02             4500192752     00120001P008       00008000096000BSPLUSER   20220623161236
AW00TIHJ21596B32W4    20629C014 7116-2892-02             4500192752     00120001P009       00024000288000BSPLUSER   20220623161236
AW00TIHJ21596B32W4    20629C014 7116-2892-02             4500192752     00120001P010       00008000096000BSPLUSER   20220623161236
BH0032W4    TIHJ21596B20220629P008        7116-2892-02.       000.                 TERMINAL                 4500192752     SPLUSER   20220623161236
BH0032W4    TIHJ21596B20220629P008        7116-2892-02.       000.                 TERMINAL                 4500192752     SPLUSER   20220623161236
BH0032W4    TIHJ21596B20220629P008        7116-2892-02.       000.                 TERMINAL                 4500192752     SPLUSER   20220623161236
BH0032W4    TIHJ21596B20220629P008        7116-2892-02.       000.                 TERMINAL                 4500192752     SPLUSER   20220623161236
BH0032W4    TIHJ21596B20220629P008        7116-2892-02.       000.                 TERMINAL                 4500192752     SPLUSER   20220623161236
BH0032W4    TIHJ21596B20220629P008        7116-2892-02.       000.                 TERMINAL                 4500192752     SPLUSER   20220623161236
BH0032W4    TIHJ21596B20220629P008        7116-2892-02.       000.                 TERMINAL                 4500192752     SPLUSER   20220623161236
BH0032W4    TIHJ21596B20220629P008        7116-2892-02.       000.                 TERMINAL                 4500192752     SPLUSER   20220623161236
BH0032W4    TIHJ21596B20220629P009        7116-2892-02.       000.                 TERMINAL                 4500192752     SPLUSER   20220623161236
BH0032W4    TIHJ21596B20220629P009        7116-2892-02.       000.                 TERMINAL                 4500192752     SPLUSER   20220623161236
BH0032W4    TIHJ21596B20220629P009        7116-2892-02.       000.                 TERMINAL                 4500192752     SPLUSER   20220623161236
BH0032W4    TIHJ21596B20220629P009        7116-2892-02.       000.                 TERMINAL                 4500192752     SPLUSER   20220623161236
BH0032W4    TIHJ21596B20220629P009        7116-2892-02.       000.                 TERMINAL                 4500192752     SPLUSER   20220623161236
BH0032W4    TIHJ21596B20220629P009        7116-2892-02.       000.                 TERMINAL                 4500192752     SPLUSER   20220623161236
BH0032W4    TIHJ21596B20220629P009        7116-2892-02.       000.                 TERMINAL                 4500192752     SPLUSER   20220623161236
BH0032W4    TIHJ21596B20220629P009        7116-2892-02.       000.                 TERMINAL                 4500192752     SPLUSER   20220623161236
BH0032W4    TIHJ21596B20220629P009        7116-2892-02.       000.                 TERMINAL                 4500192752     SPLUSER   20220623161236
BH0032W4    TIHJ21596B20220629P009        7116-2892-02.       000.                 TERMINAL                 4500192752     SPLUSER   20220623161236
BH0032W4    TIHJ21596B20220629P009        7116-2892-02.       000.                 TERMINAL                 4500192752     SPLUSER   20220623161236
BH0032W4    TIHJ21596B20220629P009        7116-2892-02.       000.                 TERMINAL                 4500192752     SPLUSER   20220623161236
BH0032W4    TIHJ21596B20220629P009        7116-2892-02.       000.                 TERMINAL                 4500192752     SPLUSER   20220623161236
BH0032W4    TIHJ21596B20220629P009        7116-2892-02.       000.                 TERMINAL                 4500192752     SPLUSER   20220623161236
BH0032W4    TIHJ21596B20220629P009        7116-2892-02.       000.                 TERMINAL                 4500192752     SPLUSER   20220623161236
BH0032W4    TIHJ21596B20220629P009        7116-2892-02.       000.                 TERMINAL                 4500192752     SPLUSER   20220623161236
BH0032W4    TIHJ21596B20220629P009        7116-2892-02.       000.                 TERMINAL                 4500192752     SPLUSER   20220623161236
BH0032W4    TIHJ21596B20220629P009        7116-2892-02.       000.                 TERMINAL                 4500192752     SPLUSER   20220623161236
BH0032W4    TIHJ21596B20220629P009        7116-2892-02.       000.                 TERMINAL                 4500192752     SPLUSER   20220623161236
BH0032W4    TIHJ21596B20220629P009        7116-2892-02.       000.                 TERMINAL                 4500192752     SPLUSER   20220623161236
BH0032W4    TIHJ21596B20220629P009        7116-2892-02.       000.                 TERMINAL                 4500192752     SPLUSER   20220623161236
BH0032W4    TIHJ21596B20220629P009        7116-2892-02.       000.                 TERMINAL                 4500192752     SPLUSER   20220623161236
BH0032W4    TIHJ21596B20220629P009        7116-2892-02.       000.                 TERMINAL                 4500192752     SPLUSER   20220623161236
BH0032W4    TIHJ21596B20220629P009        7116-2892-02.       000.                 TERMINAL                 4500192752     SPLUSER   20220623161236
BH0032W4    TIHJ21596B20220629P010        7116-2892-02.       000.                 TERMINAL                 4500192752     SPLUSER   20220623161236
BH0032W4    TIHJ21596B20220629P010        7116-2892-02.       000.                 TERMINAL                 4500192752     SPLUSER   20220623161236
BH0032W4    TIHJ21596B20220629P010        7116-2892-02.       000.                 TERMINAL                 4500192752     SPLUSER   20220623161236
BH0032W4    TIHJ21596B20220629P010        7116-2892-02.       000.                 TERMINAL                 4500192752     SPLUSER   20220623161236
BH0032W4    TIHJ21596B20220629P010        7116-2892-02.       000.                 TERMINAL                 4500192752     SPLUSER   20220623161236
BH0032W4    TIHJ21596B20220629P010        7116-2892-02.       000.                 TERMINAL                 4500192752     SPLUSER   20220623161236
BH0032W4    TIHJ21596B20220629P010        7116-2892-02.       000.                 TERMINAL                 4500192752     SPLUSER   20220623161236
BH0032W4    TIHJ21596B20220629P010        7116-2892-02.       000.                 TERMINAL                 4500192752     SPLUSER   20220623161236
BR00TIHJ21596B01P/NO.8-10                                         01110115001300300000CM/P.     SPLUSER   20220623161236
