AV00TIHJ21598B2022063032W917  B32W917  CC.                             . 20630I010 .              .              .              000
AV01.                                                 LOAD AT CK-1                                      LCL                                               0000000101SPLUSER   20220623040637.
AW00TIHJ21598B32W4    20630I010 7183-8049                @4500191554    00040001P001       00010000040000BSPLUSER   20220623161237
BH0032W4    TIHJ21598B20220630P001        7183-8049   .       000.                 CONNECTOR HOUSING        @4500191554    SPLUSER   20220623161237
BH0032W4    TIHJ21598B20220630P001        7183-8049   .       000.                 CONNECTOR HOUSING        @4500191554    SPLUSER   20220623161237
BH0032W4    TIHJ21598B20220630P001        7183-8049   .       000.                 CONNECTOR HOUSING        @4500191554    SPLUSER   20220623161237
BH0032W4    TIHJ21598B20220630P001        7183-8049   .       000.                 CONNECTOR HOUSING        @4500191554    SPLUSER   20220623161237
BH0032W4    TIHJ21598B20220630P001        7183-8049   .       000.                 CONNECTOR HOUSING        @4500191554    SPLUSER   20220623161237
BH0032W4    TIHJ21598B20220630P001        7183-8049   .       000.                 CONNECTOR HOUSING        @4500191554    SPLUSER   20220623161237
BH0032W4    TIHJ21598B20220630P001        7183-8049   .       000.                 CONNECTOR HOUSING        @4500191554    SPLUSER   20220623161237
BH0032W4    TIHJ21598B20220630P001        7183-8049   .       000.                 CONNECTOR HOUSING        @4500191554    SPLUSER   20220623161237
BH0032W4    TIHJ21598B20220630P001        7183-8049   .       000.                 CONNECTOR HOUSING        @4500191554    SPLUSER   20220623161237
BH0032W4    TIHJ21598B20220630P001        7183-8049   .       000.                 CONNECTOR HOUSING        @4500191554    SPLUSER   20220623161237
BR00TIHJ21598B01P/NO.1                                            01110115001300100000CM/P.     SPLUSER   20220623161237
