AV00TIHJ21586B2022062932W456  B32W456  CC.                             . 20629B012 .              .              .              000
AV01.                                                 LOAD AT CK-2                                      LCL                                               0000000111SPLUSER   20220623040636.
AW00TIHJ21586B32W4    20629B012 7158-3166-60             4500192752     00400001P001       00011000440000BSPLUSER   20220623161236
BH0032W4    TIHJ21586B20220629P001        7158-3166-60.       000.                 WIRE SEAL                4500192752     SPLUSER   20220623161236
BH0032W4    TIHJ21586B20220629P001        7158-3166-60.       000.                 WIRE SEAL                4500192752     SPLUSER   20220623161236
BH0032W4    TIHJ21586B20220629P001        7158-3166-60.       000.                 WIRE SEAL                4500192752     SPLUSER   20220623161236
BH0032W4    TIHJ21586B20220629P001        7158-3166-60.       000.                 WIRE SEAL                4500192752     SPLUSER   20220623161236
BH0032W4    TIHJ21586B20220629P001        7158-3166-60.       000.                 WIRE SEAL                4500192752     SPLUSER   20220623161236
BH0032W4    TIHJ21586B20220629P001        7158-3166-60.       000.                 WIRE SEAL                4500192752     SPLUSER   20220623161236
BH0032W4    TIHJ21586B20220629P001        7158-3166-60.       000.                 WIRE SEAL                4500192752     SPLUSER   20220623161236
BH0032W4    TIHJ21586B20220629P001        7158-3166-60.       000.                 WIRE SEAL                4500192752     SPLUSER   20220623161236
BH0032W4    TIHJ21586B20220629P001        7158-3166-60.       000.                 WIRE SEAL                4500192752     SPLUSER   20220623161236
BH0032W4    TIHJ21586B20220629P001        7158-3166-60.       000.                 WIRE SEAL                4500192752     SPLUSER   20220623161236
BH0032W4    TIHJ21586B20220629P001        7158-3166-60.       000.                 WIRE SEAL                4500192752     SPLUSER   20220623161236
BR00TIHJ21586B01P/NO.1                                            01110115001300100000CM/P.     SPLUSER   20220623161236
