AV00TITV20086B2022062332DE    B32DE    CC.                             . 20623C005 .              .              .              000
AV01.                                                 LOAD AT CK-2                                      LCL                                               0000001161SPLUSER   20220622010634.
AW00TITV20086B32DE    20623C005 7017-1180-02             TCT2073        00720001P001       00001000072000BSPLUSER   20220622131634
AW00TITV20086B32DE    20623C005 7116-1685-02             TCT2073        00240001P001       00020000480000BSPLUSER   20220622131634
AW00TITV20086B32DE    20623C005 7116-1686-02             TCT2073        00210001P001       00003000063000BSPLUSER   20220622131634
AW00TITV20086B32DE    20623C005 7116-2640                TCT2073        00180001P002       00002000036000BSPLUSER   20220622131634
AW00TITV20086B32DE    20623C005 7116-2641                TCT2073        00180001P002       00002000036000BSPLUSER   20220622131634
AW00TITV20086B32DE    20623C005 7116-2891-02             TCT2073        00150001P002       00011000165000BSPLUSER   20220622131634
AW00TITV20086B32DE    20623C005 7116-2892-02             TCT2073        00120001P002       00009000108000BSPLUSER   20220622131634
AW00TITV20086B32DE    20623C005 7116-2892-02             TCT2073        00120001P003       00003000036000BSPLUSER   20220622131634
AW00TITV20086B32DE    20623C005 7116-2893-02             TCT2073        00120001P003       00021000252000BSPLUSER   20220622131634
AW00TITV20086B32DE    20623C005 7283-1057-30             TCT2073        00009601P004       00001000000960BSPLUSER   20220622131634
AW00TITV20086B32DE    20623C005 7283-1222-40             TCT2073        00012001P004       00002000002400BSPLUSER   20220622131634
AW00TITV20086B32DE    20623C005 7283-4576-30             TCT2073        00048001P004       00001000004800BSPLUSER   20220622131634
AW00TITV20086B32DE    20623C005 7283-4577-40             TCT2073        00048001P004       00001000004800BSPLUSER   20220622131634
AW00TITV20086B32DE    20623C005 7283-4855-40             TCT2073        00024001P004       00002000004800BSPLUSER   20220622131634
AW00TITV20086B32DE    20623C005 7283-7023-30             TCT207A        00025001P004       00001000002500BSPLUSER   20220622131634
AW00TITV20086B32DE    20623C005 7283-7449-30             TCT2073        00024001P004       00003000007200BSPLUSER   20220622131634
AW00TITV20086B32DE    20623C005 7283-7449-40             TCT2073        00024001P004       00003000007200BSPLUSER   20220622131634
AW00TITV20086B32DE    20623C005 7283-7526-30             TCT2073        00019601P004       00001000001960BSPLUSER   20220622131634
AW00TITV20086B32DE    20623C005 7283-7526-40             TCT2073        00019601P004       00001000001960BSPLUSER   20220622131634
AW00TITV20086B32DE    20623C005 7287-7599-10             TCT2073        00016001P004       00002000003200BSPLUSER   20220622131634
AW00TITV20086B32DE    20623C005 7287-9234                TCT2073        00096001P004       00006000057600BSPLUSER   20220622131634
AW00TITV20086B32DE    20623C005 7116-2893-02             TCT2073        00120001P005       00002000024000BSPLUSER   20220622131634
AW00TITV20086B32DE    20623C005 7196-0510-02             TCT2073        00240001P005       00001000024000BSPLUSER   20220622131634
AW00TITV20086B32DE    20623C005 7288-3335-30             TCT2073        00015001P005       00002000003000BSPLUSER   20220622131634
AW00TITV20086B32DE    20623C005 7289-4696-30             TCT2073        00020001P005       00001000002000BSPLUSER   20220622131634
AW00TITV20086B32DE    20623C005 7382-1481-10             TCT2073        00008001P005       00014000011200BSPLUSER   20220622131634
BH0032DE    TITV20086B20220623P001        7017-1180-02.       000.                 TERMINAL                 TCT2073        SPLUSER   20220622131634
BH0032DE    TITV20086B20220623P001        7116-1685-02.       000.                 TERMINAL                 TCT2073        SPLUSER   20220622131634
BH0032DE    TITV20086B20220623P001        7116-1685-02.       000.                 TERMINAL                 TCT2073        SPLUSER   20220622131634
BH0032DE    TITV20086B20220623P001        7116-1685-02.       000.                 TERMINAL                 TCT2073        SPLUSER   20220622131634
BH0032DE    TITV20086B20220623P001        7116-1685-02.       000.                 TERMINAL                 TCT2073        SPLUSER   20220622131634
BH0032DE    TITV20086B20220623P001        7116-1685-02.       000.                 TERMINAL                 TCT2073        SPLUSER   20220622131634
BH0032DE    TITV20086B20220623P001        7116-1685-02.       000.                 TERMINAL                 TCT2073        SPLUSER   20220622131634
BH0032DE    TITV20086B20220623P001        7116-1685-02.       000.                 TERMINAL                 TCT2073        SPLUSER   20220622131634
BH0032DE    TITV20086B20220623P001        7116-1685-02.       000.                 TERMINAL                 TCT2073        SPLUSER   20220622131634
BH0032DE    TITV20086B20220623P001        7116-1685-02.       000.                 TERMINAL                 TCT2073        SPLUSER   20220622131634
BH0032DE    TITV20086B20220623P001        7116-1685-02.       000.                 TERMINAL                 TCT2073        SPLUSER   20220622131634
BH0032DE    TITV20086B20220623P001        7116-1685-02.       000.                 TERMINAL                 TCT2073        SPLUSER   20220622131634
BH0032DE    TITV20086B20220623P001        7116-1685-02.       000.                 TERMINAL                 TCT2073        SPLUSER   20220622131634
BH0032DE    TITV20086B20220623P001        7116-1685-02.       000.                 TERMINAL                 TCT2073        SPLUSER   20220622131634
BH0032DE    TITV20086B20220623P001        7116-1685-02.       000.                 TERMINAL                 TCT2073        SPLUSER   20220622131634
BH0032DE    TITV20086B20220623P001        7116-1685-02.       000.                 TERMINAL                 TCT2073        SPLUSER   20220622131634
BH0032DE    TITV20086B20220623P001        7116-1685-02.       000.                 TERMINAL                 TCT2073        SPLUSER   20220622131634
BH0032DE    TITV20086B20220623P001        7116-1685-02.       000.                 TERMINAL                 TCT2073        SPLUSER   20220622131634
BH0032DE    TITV20086B20220623P001        7116-1685-02.       000.                 TERMINAL                 TCT2073        SPLUSER   20220622131634
BH0032DE    TITV20086B20220623P001        7116-1685-02.       000.                 TERMINAL                 TCT2073        SPLUSER   20220622131634
BH0032DE    TITV20086B20220623P001        7116-1685-02.       000.                 TERMINAL                 TCT2073        SPLUSER   20220622131634
BH0032DE    TITV20086B20220623P001        7116-1686-02.       000.                 TERMINAL                 TCT2073        SPLUSER   20220622131634
BH0032DE    TITV20086B20220623P001        7116-1686-02.       000.                 TERMINAL                 TCT2073        SPLUSER   20220622131634
BH0032DE    TITV20086B20220623P001        7116-1686-02.       000.                 TERMINAL                 TCT2073        SPLUSER   20220622131634
BH0032DE    TITV20086B20220623P002        7116-2640   .       000.                 TERMINAL                 TCT2073        SPLUSER   20220622131634
BH0032DE    TITV20086B20220623P002        7116-2640   .       000.                 TERMINAL                 TCT2073        SPLUSER   20220622131634
BH0032DE    TITV20086B20220623P002        7116-2641   .       000.                 TERMINAL                 TCT2073        SPLUSER   20220622131634
BH0032DE    TITV20086B20220623P002        7116-2641   .       000.                 TERMINAL                 TCT2073        SPLUSER   20220622131634
BH0032DE    TITV20086B20220623P002        7116-2891-02.       000.                 TERMINAL                 TCT2073        SPLUSER   20220622131634
BH0032DE    TITV20086B20220623P002        7116-2891-02.       000.                 TERMINAL                 TCT2073        SPLUSER   20220622131634
BH0032DE    TITV20086B20220623P002        7116-2891-02.       000.                 TERMINAL                 TCT2073        SPLUSER   20220622131634
BH0032DE    TITV20086B20220623P002        7116-2891-02.       000.                 TERMINAL                 TCT2073        SPLUSER   20220622131634
BH0032DE    TITV20086B20220623P002        7116-2891-02.       000.                 TERMINAL                 TCT2073        SPLUSER   20220622131634
BH0032DE    TITV20086B20220623P002        7116-2891-02.       000.                 TERMINAL                 TCT2073        SPLUSER   20220622131634
BH0032DE    TITV20086B20220623P002        7116-2891-02.       000.                 TERMINAL                 TCT2073        SPLUSER   20220622131634
BH0032DE    TITV20086B20220623P002        7116-2891-02.       000.                 TERMINAL                 TCT2073        SPLUSER   20220622131634
BH0032DE    TITV20086B20220623P002        7116-2891-02.       000.                 TERMINAL                 TCT2073        SPLUSER   20220622131634
BH0032DE    TITV20086B20220623P002        7116-2891-02.       000.                 TERMINAL                 TCT2073        SPLUSER   20220622131634
BH0032DE    TITV20086B20220623P002        7116-2891-02.       000.                 TERMINAL                 TCT2073        SPLUSER   20220622131634
BH0032DE    TITV20086B20220623P002        7116-2892-02.       000.                 TERMINAL                 TCT2073        SPLUSER   20220622131634
BH0032DE    TITV20086B20220623P002        7116-2892-02.       000.                 TERMINAL                 TCT2073        SPLUSER   20220622131634
BH0032DE    TITV20086B20220623P002        7116-2892-02.       000.                 TERMINAL                 TCT2073        SPLUSER   20220622131634
BH0032DE    TITV20086B20220623P002        7116-2892-02.       000.                 TERMINAL                 TCT2073        SPLUSER   20220622131634
BH0032DE    TITV20086B20220623P002        7116-2892-02.       000.                 TERMINAL                 TCT2073        SPLUSER   20220622131634
BH0032DE    TITV20086B20220623P002        7116-2892-02.       000.                 TERMINAL                 TCT2073        SPLUSER   20220622131634
BH0032DE    TITV20086B20220623P002        7116-2892-02.       000.                 TERMINAL                 TCT2073        SPLUSER   20220622131634
BH0032DE    TITV20086B20220623P002        7116-2892-02.       000.                 TERMINAL                 TCT2073        SPLUSER   20220622131634
BH0032DE    TITV20086B20220623P002        7116-2892-02.       000.                 TERMINAL                 TCT2073        SPLUSER   20220622131634
BH0032DE    TITV20086B20220623P003        7116-2892-02.       000.                 TERMINAL                 TCT2073        SPLUSER   20220622131634
BH0032DE    TITV20086B20220623P003        7116-2892-02.       000.                 TERMINAL                 TCT2073        SPLUSER   20220622131634
BH0032DE    TITV20086B20220623P003        7116-2892-02.       000.                 TERMINAL                 TCT2073        SPLUSER   20220622131634
BH0032DE    TITV20086B20220623P003        7116-2893-02.       000.                 TERMINAL                 TCT2073        SPLUSER   20220622131634
BH0032DE    TITV20086B20220623P003        7116-2893-02.       000.                 TERMINAL                 TCT2073        SPLUSER   20220622131634
BH0032DE    TITV20086B20220623P003        7116-2893-02.       000.                 TERMINAL                 TCT2073        SPLUSER   20220622131634
BH0032DE    TITV20086B20220623P003        7116-2893-02.       000.                 TERMINAL                 TCT2073        SPLUSER   20220622131634
BH0032DE    TITV20086B20220623P003        7116-2893-02.       000.                 TERMINAL                 TCT2073        SPLUSER   20220622131634
BH0032DE    TITV20086B20220623P003        7116-2893-02.       000.                 TERMINAL                 TCT2073        SPLUSER   20220622131634
BH0032DE    TITV20086B20220623P003        7116-2893-02.       000.                 TERMINAL                 TCT2073        SPLUSER   20220622131634
BH0032DE    TITV20086B20220623P003        7116-2893-02.       000.                 TERMINAL                 TCT2073        SPLUSER   20220622131634
BH0032DE    TITV20086B20220623P003        7116-2893-02.       000.                 TERMINAL                 TCT2073        SPLUSER   20220622131634
BH0032DE    TITV20086B20220623P003        7116-2893-02.       000.                 TERMINAL                 TCT2073        SPLUSER   20220622131634
BH0032DE    TITV20086B20220623P003        7116-2893-02.       000.                 TERMINAL                 TCT2073        SPLUSER   20220622131634
BH0032DE    TITV20086B20220623P003        7116-2893-02.       000.                 TERMINAL                 TCT2073        SPLUSER   20220622131634
BH0032DE    TITV20086B20220623P003        7116-2893-02.       000.                 TERMINAL                 TCT2073        SPLUSER   20220622131634
BH0032DE    TITV20086B20220623P003        7116-2893-02.       000.                 TERMINAL                 TCT2073        SPLUSER   20220622131634
BH0032DE    TITV20086B20220623P003        7116-2893-02.       000.                 TERMINAL                 TCT2073        SPLUSER   20220622131634
BH0032DE    TITV20086B20220623P003        7116-2893-02.       000.                 TERMINAL                 TCT2073        SPLUSER   20220622131634
BH0032DE    TITV20086B20220623P003        7116-2893-02.       000.                 TERMINAL                 TCT2073        SPLUSER   20220622131634
BH0032DE    TITV20086B20220623P003        7116-2893-02.       000.                 TERMINAL                 TCT2073        SPLUSER   20220622131634
BH0032DE    TITV20086B20220623P003        7116-2893-02.       000.                 TERMINAL                 TCT2073        SPLUSER   20220622131634
BH0032DE    TITV20086B20220623P003        7116-2893-02.       000.                 TERMINAL                 TCT2073        SPLUSER   20220622131634
BH0032DE    TITV20086B20220623P003        7116-2893-02.       000.                 TERMINAL                 TCT2073        SPLUSER   20220622131634
BH0032DE    TITV20086B20220623P004        7283-1057-30.       000.                 CONNECTOR HOUSING        TCT2073        SPLUSER   20220622131634
BH0032DE    TITV20086B20220623P004        7283-1222-40.       000.                 CONNECTOR HOUSING        TCT2073        SPLUSER   20220622131634
BH0032DE    TITV20086B20220623P004        7283-1222-40.       000.                 CONNECTOR HOUSING        TCT2073        SPLUSER   20220622131634
BH0032DE    TITV20086B20220623P004        7283-4576-30.       000.                 HOUSING FEMALE ASSY      TCT2073        SPLUSER   20220622131634
BH0032DE    TITV20086B20220623P004        7283-4577-40.       000.                 CONNECTOR HOUSING        TCT2073        SPLUSER   20220622131634
BH0032DE    TITV20086B20220623P004        7283-4855-40.       000.                 CONNECTOR HOUSING        TCT2073        SPLUSER   20220622131634
BH0032DE    TITV20086B20220623P004        7283-4855-40.       000.                 CONNECTOR HOUSING        TCT2073        SPLUSER   20220622131634
BH0032DE    TITV20086B20220623P004        7283-7023-30.       000.                 CONNECTOR                TCT207A        SPLUSER   20220622131634
BH0032DE    TITV20086B20220623P004        7283-7449-30.       000.                 HOUSING FEMALE ASSY      TCT2073        SPLUSER   20220622131634
BH0032DE    TITV20086B20220623P004        7283-7449-30.       000.                 HOUSING FEMALE ASSY      TCT2073        SPLUSER   20220622131634
BH0032DE    TITV20086B20220623P004        7283-7449-30.       000.                 HOUSING FEMALE ASSY      TCT2073        SPLUSER   20220622131634
BH0032DE    TITV20086B20220623P004        7283-7449-40.       000.                 HOUSING FEMALE ASSY      TCT2073        SPLUSER   20220622131634
BH0032DE    TITV20086B20220623P004        7283-7449-40.       000.                 HOUSING FEMALE ASSY      TCT2073        SPLUSER   20220622131634
BH0032DE    TITV20086B20220623P004        7283-7449-40.       000.                 HOUSING FEMALE ASSY      TCT2073        SPLUSER   20220622131634
BH0032DE    TITV20086B20220623P004        7283-7526-30.       000.                 CONNECTOR HOUSING        TCT2073        SPLUSER   20220622131634
BH0032DE    TITV20086B20220623P004        7283-7526-40.       000.                 CONNECTOR HOUSING        TCT2073        SPLUSER   20220622131634
BH0032DE    TITV20086B20220623P004        7287-7599-10.       000.                 HOUSING FEMALE ASSY      TCT2073        SPLUSER   20220622131634
BH0032DE    TITV20086B20220623P004        7287-7599-10.       000.                 HOUSING FEMALE ASSY      TCT2073        SPLUSER   20220622131634
BH0032DE    TITV20086B20220623P004        7287-9234   .       000.                 JOINT CONNECTOR          TCT2073        SPLUSER   20220622131634
BH0032DE    TITV20086B20220623P004        7287-9234   .       000.                 JOINT CONNECTOR          TCT2073        SPLUSER   20220622131634
BH0032DE    TITV20086B20220623P004        7287-9234   .       000.                 JOINT CONNECTOR          TCT2073        SPLUSER   20220622131634
BH0032DE    TITV20086B20220623P004        7287-9234   .       000.                 JOINT CONNECTOR          TCT2073        SPLUSER   20220622131634
BH0032DE    TITV20086B20220623P004        7287-9234   .       000.                 JOINT CONNECTOR          TCT2073        SPLUSER   20220622131634
BH0032DE    TITV20086B20220623P004        7287-9234   .       000.                 JOINT CONNECTOR          TCT2073        SPLUSER   20220622131634
BH0032DE    TITV20086B20220623P005        7116-2893-02.       000.                 TERMINAL                 TCT2073        SPLUSER   20220622131634
BH0032DE    TITV20086B20220623P005        7116-2893-02.       000.                 TERMINAL                 TCT2073        SPLUSER   20220622131634
BH0032DE    TITV20086B20220623P005        7196-0510-02.       000.                 TERMINAL                 TCT2073        SPLUSER   20220622131634
BH0032DE    TITV20086B20220623P005        7288-3335-30.       000.                 HOUSING MALE             TCT2073        SPLUSER   20220622131634
BH0032DE    TITV20086B20220623P005        7288-3335-30.       000.                 HOUSING MALE             TCT2073        SPLUSER   20220622131634
BH0032DE    TITV20086B20220623P005        7289-4696-30.       000.                 HOUSING FEMALE ASSY      TCT2073        SPLUSER   20220622131634
BH0032DE    TITV20086B20220623P005        7382-1481-10.       000.                 CONNECTOR                TCT2073        SPLUSER   20220622131634
BH0032DE    TITV20086B20220623P005        7382-1481-10.       000.                 CONNECTOR                TCT2073        SPLUSER   20220622131634
BH0032DE    TITV20086B20220623P005        7382-1481-10.       000.                 CONNECTOR                TCT2073        SPLUSER   20220622131634
BH0032DE    TITV20086B20220623P005        7382-1481-10.       000.                 CONNECTOR                TCT2073        SPLUSER   20220622131634
BH0032DE    TITV20086B20220623P005        7382-1481-10.       000.                 CONNECTOR                TCT2073        SPLUSER   20220622131634
BH0032DE    TITV20086B20220623P005        7382-1481-10.       000.                 CONNECTOR                TCT2073        SPLUSER   20220622131634
BH0032DE    TITV20086B20220623P005        7382-1481-10.       000.                 CONNECTOR                TCT2073        SPLUSER   20220622131634
BH0032DE    TITV20086B20220623P005        7382-1481-10.       000.                 CONNECTOR                TCT2073        SPLUSER   20220622131634
BH0032DE    TITV20086B20220623P005        7382-1481-10.       000.                 CONNECTOR                TCT2073        SPLUSER   20220622131634
BH0032DE    TITV20086B20220623P005        7382-1481-10.       000.                 CONNECTOR                TCT2073        SPLUSER   20220622131634
BH0032DE    TITV20086B20220623P005        7382-1481-10.       000.                 CONNECTOR                TCT2073        SPLUSER   20220622131634
BH0032DE    TITV20086B20220623P005        7382-1481-10.       000.                 CONNECTOR                TCT2073        SPLUSER   20220622131634
BH0032DE    TITV20086B20220623P005        7382-1481-10.       000.                 CONNECTOR                TCT2073        SPLUSER   20220622131634
BH0032DE    TITV20086B20220623P005        7382-1481-10.       000.                 CONNECTOR                TCT2073        SPLUSER   20220622131634
BR00TITV20086B01P/NO.1-5                                          01110115001300500000CM/P.     SPLUSER   20220622131634
