BI00A1200    7360T51817     202202247288-3329-30             HOUSING MALE             CCN000036000000001500FY00000150020210901000000000NNED0420220224150651    4N0N  0000015000000086610000101111200    YCYC    005400370024
BI00A1200    7360T51817     202203037288-3329-30             HOUSING MALE             CCN000004500000000000FY00000000020210901000000000NNEQ0820220224150651    4N0N  0000015000000086610000101111200    YCYC    005400370024
BI00A1200    7360T51817     202203107288-3329-30             HOUSING MALE             CCN000004500000000000FY00000000020210901000000000NNEQ0820220224150651    4N0N  0000015000000086610000101111200    YCYC    005400370024
BI00A1200    7360T51817     202203177288-3329-30             HOUSING MALE             CCN000004500000000000FY00000000020210901000000000NNEQ0820220224150651    4N0N  0000015000000086610000101111200    YCYC    005400370024
BI00A1200    7360T51817     202203247288-3329-30             HOUSING MALE             CCN000004500000000000FY00000000020210901000000000NNEQ0820220224150651    4N0N  0000015000000086610000101111200    YCYC    005400370024
BI00A1200    7360T51817     202203317288-3329-30             HOUSING MALE             CCN000004500000000000FY00000000020210901000000000NNEQ0820220224150651    4N0N  0000015000000086610000101111200    YCYC    005400370024
BI00A1200    7360T51817     202204077288-3329-30             HOUSING MALE             CCN000004500000000000FY00000000020210901000000000NNEQ0820220224150651    4N0N  0000015000000086610000101111200    YCYC    005400370024
BI00A1200    7360T51817     202204217288-3329-30             HOUSING MALE             CCN000004500000000000FY00000000020210901000000000NNEQ0820220224150651    4N0N  0000015000000086610000101111200    YCYC    005400370024
BI00A1200    7360T51817     202204287288-3329-30             HOUSING MALE             CCN000003000000000000FY00000000020210901000000000NNEQ0820220224150651    4N0N  0000015000000086610000101111200    YCYC    005400370024
BI00B1200    #7360T52205    202203037172-5630-40             RUBBER STOPPER           CCN000140000000140000FN00000000020220301000140000NNE00020220224141758    2H0H  0000200000000004400000009511200    YCYC    004300270014
BI00B1200    7360T52206     202203247288-3338-30             HOUSING MALE             CCN000012000000012000FN00000000020220301000012000NNE00020220224130621    4N0N  0000015000000086610000101201200    YCYC    005400370024
BI00B1200    7360T52206     202205127288-3340-30             HOUSING MALE             CCN000007500000007500FN00000000020220301000007500NNE00020220224130621    4N0N  0000015000000086150000100641200    YCYC    005400370024
BI00B1200    8640T52201     202205057288-3329-30             HOUSING MALE             CCN000003000000003000FN00000000020220501000003000NNED0420220224140344    4N0N  0000015000000086610000101111200    YCYC    005400370024
BI00B1200    8640T52201     202208047289-3342-30             HOUSING FEMALE ASS'Y     CCN000002400000002400FN00000000020220501000002400NNED0420220224140610    1N0N  0000024000000068640000090141200    YCYC    005500360039
BI00B1200    8640T52202     202205127288-3329-30             HOUSING MALE             CCN000003000000003000FN00000000020220501000003000NNED0420220224140401    4N0N  0000015000000086610000101111200    YCYC    005400370024
BI00B1200    8640T52202     202208047289-3342-30             HOUSING FEMALE ASS'Y     CCN000002400000002400FN00000000020220501000002400NNED0420220224140637    1N0N  0000024000000068640000090141200    YCYC    005500360039
BI00B1200    8750T52301     202205197288-3340-30             HOUSING MALE             CCN000003000000003000FN00000000020220501000003000NNMD0420220224142740    4N0N  0000015000000086150000100641200    YCYC    005400370024
BI00B1200    8750T52301     202206097289-3342                HOUSING FEMALE ASS'Y     CCN000002400000002400FN00000000020220501000002400NNMD0420220224142950    1N0N  0000024000000068640000090141200    YCYC    005500360039
BI00B1200    2399T52317     202204287288-3334-30             HOUSING MALE             CCN000001500000001500FN00000000020220501000001500NNMD0420220224164141    4N0N  0000015000000086700000101201200    YCYC    005400370024
BI00B1200    2399T52316     202204217288-3339-30             HOUSING MALE             CCN000007500000007500FN00000000020220501000007500NNMD0420220224164418    4N0N  0000015000000086700000101201200    YCYC    005400370024
BI00B1200    2399T52317     202204287288-3339-30             HOUSING MALE             CCN000007500000007500FN00000000020220501000007500NNMD0420220224164448    4N0N  0000015000000086700000101201200    YCYC    005400370024
BI00B1200    2399T52316     202205197288-3340-30             HOUSING MALE             CCN000001500000001500FN00000000020220501000001500NNMD0420220224164533    4N0N  0000015000000086150000100641200    YCYC    005400370024
BI00B1200    2399T52317     202205197288-3340-30             HOUSING MALE             CCN000001500000001500FN00000000020220501000001500NNMD0420220224164603    4N0N  0000015000000086150000100641200    YCYC    005400370024
BI00B1200    2399T52316     202207147288-6547                CONNECTOR MALE ASS'Y     CCN000267000000177750FN00000000020220501000177750NNMD0420220224164845    4N0N  0000007500000120530000134031200    YCYC    005400370024
BI00B1200    2399T52317     202207217288-6547                CONNECTOR MALE ASS'Y     CCN000267000000089250FN00000000020220501000089250NNMD0420220224164931    4N0N  0000007500000120530000134031200    YCYC    005400370024
BI00B1200    2399T52316     202206027289-3342                HOUSING FEMALE ASS'Y     CCN000004800000004800FN00000000020220501000004800NNMD0420220224165047    1N0N  0000024000000068640000090141200    YCYC    005500360039
BI00B1200    2399T52317     202206027289-3342                HOUSING FEMALE ASS'Y     CCN000004800000004800FN00000000020220501000004800NNMD0420220224165118    1N0N  0000024000000068640000090141200    YCYC    005500360039
BI00B1200    2399T52316     202208047289-3342-30             HOUSING FEMALE ASS'Y     CCN000019200000019200FN00000000020220501000019200NNMD0420220224165332    1N0N  0000024000000068640000090141200    YCYC    005500360039
BI00B1200    2399T52317     202208117289-3342-30             HOUSING FEMALE ASS'Y     CCN000019200000019200FN00000000020220501000019200NNMD0420220224165413    1N0N  0000024000000068640000090141200    YCYC    005500360039
BI00B1200    2399T52316     202204217289-6547                HOUSING FEMALE ASS'Y     CCN000240000000033600FN00000000020220501000033600NNMD0420220224160636    1N0N  0000024000000115200000136201200    YCYC    005500360039
BI00B1200    2399T52317     202204287289-6547                HOUSING FEMALE ASS'Y     CCN000240000000081600FN00000000020220501000081600NNMD0420220224160752    1N0N  0000024000000115200000136201200    YCYC    005500360039
BI00B1200    2399T52319     202205127288-3334-30             HOUSING MALE             CCN000001500000001500FN00000000020220501000001500NNMD0420220224164303    4N0N  0000015000000086700000101201200    YCYC    005400370024
BI00B1200    2399T52319     202205057288-3339-30             HOUSING MALE             CCN000007500000007500FN00000000020220501000007500NNMD0420220224164507    4N0N  0000015000000086700000101201200    YCYC    005400370024
BI00B1200    2399T52319     202205267288-3340-30             HOUSING MALE             CCN000001500000001500FN00000000020220501000001500NNMD0420220224164636    4N0N  0000015000000086150000100641200    YCYC    005400370024
BI00B1200    2399T52319     202208047288-6547                CONNECTOR MALE ASS'Y     CCN000266250000177750FN00000000020220501000177750NNMD0420220224165013    4N0N  0000007500000120530000134031200    YCYC    005400370024
BI00B1200    2399T52319     202206027289-3342                HOUSING FEMALE ASS'Y     CCN000004800000004800FN00000000020220501000004800NNMD0420220224165133    1N0N  0000024000000068640000090141200    YCYC    005500360039
BI00B1200    2399T52319     202208187289-3342-30             HOUSING FEMALE ASS'Y     CCN000019200000019200FN00000000020220501000019200NNMD0420220224165448    1N0N  0000024000000068640000090141200    YCYC    005500360039
BI00B1200    2399T52319     202205057289-6547                HOUSING FEMALE ASS'Y     CCN000240000000120000FN00000000020220501000120000NNMD0420220224161103    1N0N  0000024000000115200000136201200    YCYC    005500360039
BI00B1200    7360T52301     202205127288-3329-30             HOUSING MALE             CCN000006000000006000FN00000000020220501000006000NNMD0420220224164017    4N0N  0000015000000086610000101111200    YCYC    005400370024
BI00B1200    7360T52302     202205197288-3329-30             HOUSING MALE             CCN000006000000006000FN00000000020220501000006000NNMD0420220224164034    4N0N  0000015000000086610000101111200    YCYC    005400370024
BI00B1200    7360T52301     202204217288-3334-30             HOUSING MALE             CCN000003000000003000FN00000000020220501000003000NNMD0420220224164124    4N0N  0000015000000086700000101201200    YCYC    005400370024
BI00B1200    7360T52302     202205057288-3334-30             HOUSING MALE             CCN000003000000003000FN00000000020220501000003000NNMD0420220224164246    4N0N  0000015000000086700000101201200    YCYC    005400370024
BI00B1200    7360T52303     202205197288-3334-30             HOUSING MALE             CCN000003000000003000FN00000000020220501000003000NNMD0420220224164320    4N0N  0000015000000086700000101201200    YCYC    005400370024
BI00B1200    7360T52303     202205057288-3338-30             HOUSING MALE             CCN000003000000003000FN00000000020220501000003000NNMD0420220224164358    4N0N  0000015000000086610000101201200    YCYC    005400370024
BI00B1200    7360T52301     202205197288-3340-30             HOUSING MALE             CCN000001500000001500FN00000000020220501000001500NNMD0420220224164548    4N0N  0000015000000086150000100641200    YCYC    005400370024
BI00B1200    7360T52302     202205267288-3340-30             HOUSING MALE             CCN000001500000001500FN00000000020220501000001500NNMD0420220224164618    4N0N  0000015000000086150000100641200    YCYC    005400370024
BI00B1200    7860T52301     202204217288-3332-30             HOUSING MALE             CCN000003000000003000FN00000000020220501000003000NNMD0420220224164056    4N0N  0000015000000086070000100571200    YCYC    005400370024
BI00B1200    7860T52301     202206027289-3342                HOUSING FEMALE ASS'Y     CCN000002400000002400FN00000000020220501000002400NNMD0420220224165103    1N0N  0000024000000068640000090141200    YCYC    005500360039
BI00B1200    7860T52301     202208047289-3342-30             HOUSING FEMALE ASS'Y     CCN000002400000002400FN00000000020220501000002400NNMD0420220224165353    1N0N  0000024000000068640000090141200    YCYC    005500360039
BI00B1200    7860T52302     202208117289-3342-30             HOUSING FEMALE ASS'Y     CCN000002400000002400FN00000000020220501000002400NNMD0420220224165431    1N0N  0000024000000068640000090141200    YCYC    005500360039
BI00B1200    7860T52302     202204287288-3338-30             HOUSING MALE             CCN000001500000001500FN00000000020220501000001500NNMD0420220224164342    4N0N  0000015000000086610000101201200    YCYC    005400370024
BI00B1200    #7360T52306    202203107289-2913-40             HOUSING FEMALE ASS'Y     CCN000001500000001500FN00000000020220301000001500NNE   20220224130621    2N0N  0000015000000091050000103751200    YCYC    005400370024
BI00B1200    #7360T52307    202204077289-3622-30             HOUSING FEMALE ASS'Y     CCN000000432000000432FN00000000020220501000000432NNE   20220224130621    2N0N  0000004320000083940000103841200    YCYC    005400370024
BI00B1200    #7360T52308    202204217289-3622-30             HOUSING FEMALE ASS'Y     CCN000000432000000432FN00000000020220501000000432NNE   20220224130621    2N0N  0000004320000083940000103841200    YCYC    005400370024
BI00B1200    #7360T52309    202204287289-3622-30             HOUSING FEMALE ASS'Y     CCN000000432000000432FN00000000020220501000000432NNE   20220224130621    2N0N  0000004320000083940000103841200    YCYC    005400370024
BI00B1200    2399T52316     202204287289-6547                HOUSING FEMALE ASS'Y     CCN000206400000206400FN00000000020220501000206400NNMD0420220224160645    1N0N  0000024000000115200000136201200    YCYC    005500360039
BI00B1200    2399T52317     202205057289-6547                HOUSING FEMALE ASS'Y     CCN000158400000158400FN00000000020220501000158400NNMD0420220224160942    1N0N  0000024000000115200000136201200    YCYC    005500360039
BI00B1200    2399T52319     202205127289-6547                HOUSING FEMALE ASS'Y     CCN000120000000120000FN00000000020220501000120000NNMD0420220224161155    1N0N  0000024000000115200000136201200    YCYC    005500360039
BI00B1200    2399T52316     202207217288-6547                CONNECTOR MALE ASS'Y     CCN000089250000089250FN00000000020220501000089250NNMD0420220224164845    4N0N  0000007500000120530000134031200    YCYC    005400370024
BI00B1200    2399T52317     202207277288-6547                CONNECTOR MALE ASS'Y     CCN000177750000177750FN00000000020220501000177750NNMD0420220224164937    4N0N  0000007500000120530000134031200    YCYC    005400370024
BI00B1200    2399T52319     202208117288-6547                CONNECTOR MALE ASS'Y     CCN000088500000088500FN00000000020220501000088500NNMD0420220224165019    4N0N  0000007500000120530000134031200    YCYC    005400370024
BI00B32BG    YY22042GMW     202202287116-4110-02             TERMINAL                 CCN000018000000018000FN00000000020220401000018000NNM00020220224152040    4P0P  00000900000000594000000882232BG    YGYYA   006400630015
BI00B32BG    YY2203AGMW     202202287116-4112-02             TERMINAL                 CCN000066000000066000FN00000000020220301000066000NNE00020220224152003    4P0P  00000600000000450000000738232BG    YGYYA   006400630015
BI00B32BG    #YY2203CCMW    202203107172-5629-80             RUBBER STOPPER           CCN000020000000020000FN00000000020220301000020000NNE   20220224154038    2H0H  00002000000000060000000111132BG    YGYYA   004300270014
BI00B32CC    CTA32055       202203177158-3167-80             WIRE SEAL                CCN000060000000060000FN00000000020220601000060000NNE   20220224130621    1C0C  00002000000000048000000109032CC    BIYABCBU002700430014
BI00B32CC    CTA32056       202203177158-3167-80             WIRE SEAL                CCN000040000000040000FN00000000020220201000040000NNE   20220224130621    1C0C  00002000000000048000000109032CC    BIYABCBU002700430014
BI00B32CC    CTA32057       202203177283-4855                CONNECTOR HOUSING        CCN000004800000004800FN00000000020220201000004800NNE   20220224130621    4N0N  00000240000001188400001400032CC    BIYABCBU005500360039
BI00B32CC    #CTA32057      202203177283-8226-30             CONNECTOR                CCN000050000000050000FN00000000020220201000050000NNE   20220224130621    2N0N  00000200000000820000001008032CC    BIYABCBU005400370024
BI00B32CC    #CTA32057      202203177183-7725-40             HOUSING                  CCN000006000000006000FN00000000020220201000006000NNE   20220224130621    2F0F  00000600000000840000001040032CC    BIYABCBU005600390040
BI00B32CC    #CTA32057      202203177282-6457-40             CONNECTOR                CCN000000800000000800FN00000000020220201000000800NNE   20220224130621    2N0N  00000080000001137000001421332CC    BIYABCBU005600390040
BI00B32CG    S220226-M      202205047116-4025                TERMINAL                 CCN000016000000016000FN00000000020220501000016000NNE   20220224151357    4P0P  00001600000000644800000975132CG    ASASIACO006400630017
BI00B32CG    S220226-S      202205047116-4122-02             TERMINAL                 CCN000009000000009000FN00000000020220501000009000NNE   20220224151513    4P0P  00000450000000656600000950232CG    ASASIACO006400630015
BI00A32CH    SJ2202BHMW     202203177327-6939-30             MULTI FUSE               CCN000000576000000576FN00000000020220201000000576NNEM0020220224162637    4N00  00000028800000992200001158132CH    SJSAMIJF005400370024
BI00A32CH    SJ2202BHMW     202203177327-6941-30             MULTI FUSE               CCN000000576000000576FN00000000020220201000000576NNEM0020220224162853    4N00  00000028800001014400001180332CH    SJSAMIJF005400370024
BI00A32CH    SJ22041HMW     202203177327-6939-30             MULTI FUSE               CCN000000864000000576FN00000000020220401000000576NNMM0020220224162427    4N00  00000028800000992200001158132CH    SJSAMIJF005400370024
BI00A32CH    SJ22042HMW     202203177327-6939-30             MULTI FUSE               CCN000000864000000864FN00000000020220401000000864NNMM0020220224162730    4N00  00000028800000992200001158132CH    SJSAMIJF005400370024
BI00A32CH    SJ22041HMW     202203177327-6941-30             MULTI FUSE               CCN000000864000000576FN00000000020220401000000576NNMM0020220224162819    4N00  00000028800001014400001180332CH    SJSAMIJF005400370024
BI00A32CH    SJ22042HMW     202203177327-6941-30             MULTI FUSE               CCN000000864000000864FN00000000020220401000000864NNMM0020220224162914    4N00  00000028800001014400001180332CH    SJSAMIJF005400370024
BI00B32CH    #SJ22041SMW    202203107289-2915-30             HOUSING FEMALE ASS'Y     CCN000001500000001500FN00000000020220401000001500NNM00020220224130621    2N0N  00000150000000964500001091532CH    SJSAMIJF005400370024
BI00A32D1    DFTC2212       202202257289-3342-90             HOUSING FEMALE ASS'Y     CCN000007200000007200FN00000000020220301000007200NNM00020220224162017    1N0N  00000240000000686400000901432D1    TOYOT-K 005500360039
BI00B32D1    #DFTC2214      202202287172-5630-40             RUBBER STOPPER           CCN000040000000040000FN00000000020220401000040000NNM00020220224151816    2H0H  00002000000000044000000095132D1    TOYOT-K 004300270014
BI00A32D1    DFTC2216       202202287158-3070-80             RUBBER STOPPER           CCN000040000000040000FN00000000020220401000040000NNMM0020220224151413    1C0C  00004000000000276000000333332D1    TOYOT-K 002700430014
BI00A32D1    DFTC2217       202202257289-6547                HOUSING FEMALE ASS'Y     CCN000002400000002400FN00000000020220401000002400NNM00020220224162040    1N0N  00000240000001152000001362032D1    TOYOT-K 005500360039
BI00B32D1    DFTC2218       202203107388-2978-30             HOUSING MALE ASS'Y       CCN000002400000000480FN00000000020220501000000480NNMQ0020220224150520    1N0N  00000048000000742000001122032D1    TOYOT-K 005500360039
BI00B32D1    DFTC2220       202204077289-3342                HOUSING FEMALE ASS'Y     CCN000002400000002400FN00000000020220501000002400NNMD0420220224132153    1N0N  00000240000000686400000901432D1    TOYOT-K 005500360039
BI00B32D1    DFTC2220       202204077289-3342-30             HOUSING FEMALE ASS'Y     CCN000009600000009600FN00000000020220501000009600NNMD0420220224132208    1N0N  00000240000000686400000901432D1    TOYOT-K 005500360039
BI00B32D1    DFTC2220       202204077289-3342-40             HOUSING FEMALE ASS'Y     CCN000002400000002400FN00000000020220501000002400NNMD0420220224132221    1N0N  00000240000000686400000901432D1    TOYOT-K 005500360039
BI00B32D1    DFTC2220       202204077289-3342-90             HOUSING FEMALE ASS'Y     CCN000002400000002400FN00000000020220501000002400NNMD0420220224132232    1N0N  00000240000000686400000901432D1    TOYOT-K 005500360039
BI00B32D1    DFTC2221       202204077289-3342                HOUSING FEMALE ASS'Y     CCN000031200000031200FN00000000020220501000031200NNMD0420220224165157    1N0N  00000240000000686400000901432D1    TOYOT-K 005500360039
BI00B32D1    DFTC2221       202204217289-3342-30             HOUSING FEMALE ASS'Y     CCN000076800000076800FN00000000020220501000076800NNMD0420220224165506    1N0N  00000240000000686400000901432D1    TOYOT-K 005500360039
BI00B32D1    DFTC2221       202204287289-3342-40             HOUSING FEMALE ASS'Y     CCN000004800000004800FN00000000020220501000004800NNMD0420220224165517    1N0N  00000240000000686400000901432D1    TOYOT-K 005500360039
BI00B32D1    DFTC2221       202204287289-3342-90             HOUSING FEMALE ASS'Y     CCN000002400000002400FN00000000020220501000002400NNMD0420220224165531    1N0N  00000240000000686400000901432D1    TOYOT-K 005500360039
BI00A32D1    DFTC2218       202202287388-2978-30             HOUSING MALE ASS'Y       CCN000001920000001920FN00000000020220501000001920NNMM0020220224150520    1N0N  00000048000000742000001122032D1    TOYOT-K 005500360039
BI00B32D2    #DGTC2213      202202287172-5629-80             RUBBER STOPPER           CCN000180000000180000FN00000000020220401000180000NNM00020220224151854    2H0H  00002000000000060000000111132D2    TGYOT-G 004300270014
BI00A32D2    DGTC2216       202202247388-2978-30             HOUSING MALE ASS'Y       PCN000017760000017760FY00001776020220401000000000NNM00020220224153112    1N0N  00000048000000742000001122032D2    TGYOT-G 005500360039
BI00A32D2    DGTC2218       202202257158-3070-80             RUBBER STOPPER           CCN000080000000080000FN00000000020220501000080000NNMM0020220224130621    1C0C  00004000000000276000000333332D2    TGYOT-G 002700430014
BI00A32D2    DGTC2218       202202257289-3342-40             HOUSING FEMALE ASS'Y     CCN000014400000014400FN00000000020220501000014400NNM00020220224162121    1N0N  00000240000000686400000901432D2    TGYOT-G 005500360039
BI00B32D2    DGTC2218       202203107388-2978-30             HOUSING MALE ASS'Y       CCN000028320000028320FN00000000020220501000028320NNMD0020220224130621    1N0N  00000048000000742000001122032D2    TGYOT-G 005500360039
BI00A32D2    DGTC2219       202202257158-3070-80             RUBBER STOPPER           CCN000040000000040000FN00000000020220501000040000NNMM0020220224130621    1C0C  00004000000000276000000333332D2    TGYOT-G 002700430014
BI00A32D2    DGTC2219       202202257195-1479-02             TERMINAL MALE            CCN000024000000024000FN00000000020220501000024000NNMM0020220224130621    4P0P  00002400000000420000000714232D2    TGYOT-G 006400630015
BI00A32D2    DGTC2218       202202247388-2978-30             HOUSING MALE ASS'Y       PCN000017760000000000FY00000000020220501000000000NNMM0020220224081048    1N0N  00000048000000742000001122032D2    TGYOT-G 005500360039
BI00A32EJ    T220210P01     202202257196-1461-06             TERMINAL FEMALE          CCN000024000000024000FN00000000020220301000024000NNE00020220224154636EJ  4P0P  00002400000000386400000692932EJ    EJYKBO  006400630015
BI00A32EJ    T220214P03     202202257116-4037                TERMINAL                 CCN000006000000006000FN00000000020220301000006000NNE00020220224154701EJ  4P0P  00000600000000600000000894232EJ    EJYKBO  006400630015
BI00B32EJ    T220223P01     202203317116-4037                TERMINAL                 CCN000006000000006000FN00000000020220301000006000NNE   20220224130621EJ  4P0P  00000600000000600000000894232EJ    EJYKBO  006400630015
BI00B32EJ    T220223P01     202203317116-4025                TERMINAL                 CCN000016000000016000FN00000000020220301000016000NNE   20220224130621EJ  4P0P  00001600000000644800000975132EJ    EJYKBO  006400630017
BI00B32EJ    T220223P01     202203317116-4102-02             TERMINAL                 CCN000012000000012000FN00000000020220301000012000NNE   20220224130621EJ  4P0P  00001200000000553200000841432EJ    EJYKBO  006400630015
BI00B32EJ    T220223P01     202203317283-1968-30             CONNECTOR                CCN000000900000000900FN00000000020220301000000900NNE   20220224130621EJ  1N0N  00000090000001140000001318332EJ    EJYKBO  005600390040
BI00B32EJ    T220223P01     202203317116-4124-02             TERMINAL                 CCN000009000000009000FN00000000020220301000009000NNE   20220224130621EJ  4P0P  00000300000000459900000753532EJ    EJYKBO  006400630015
BI00B32EJ    T220223P01     202203317196-1461-06             TERMINAL FEMALE          CCN000096000000096000FN00000000020220301000096000NNE   20220224130621EJ  4P0P  00002400000000386400000692932EJ    EJYKBO  006400630015
BI00B32EJ    T220223P01     202203317114-4110-02             TERMINAL                 CCN000015000000015000FN00000000020220301000015000NNE   20220224130621EJ  4P0P  00001500000000901500001230132EJ    EJYKBO  006400630017
BI00B32EJ    T220223P01     202203317114-4111-02             TERMINAL                 CCN000012000000012000FN00000000020220301000012000NNE   20220224130621EJ  4P0P  00001200000000758400001087032EJ    EJYKBO  006400630017
BI00B32EJ    T220223P01     202203317114-4112-02             TERMINAL                 CCN000009000000009000FN00000000020220301000009000NNE   20220224130621EJ  4P0P  00000900000000598500000927132EJ    EJYKBO  006400630017
BI00B32EJ    T220223P01     202203317116-4100-02             TERMINAL                 CCN000015000000015000FN00000000020220301000015000NNE   20220224130621EJ  4P0P  00001500000000696000000990232EJ    EJYKBO  006400630015
BI00B32EJ    T220223P01     202203317116-4101-02             TERMINAL                 CCN000012000000012000FN00000000020220301000012000NNE   20220224130621EJ  4P0P  00001200000000582000000876232EJ    EJYKBO  006400630015
BI00B32EJ    T220223P01     202203317116-4120-02             TERMINAL                 CCN000006000000006000FN00000000020220301000006000NNE   20220224130621EJ  4P0P  00000600000000780000001073632EJ    EJYKBO  006400630015
BI00B32EJ    T220223P01     202203317116-4122-02             TERMINAL                 CCN000022500000022500FN00000000020220301000022500NNE   20220224130621EJ  4P0P  00000450000000656600000950232EJ    EJYKBO  006400630015
BI00B32EJ    T220223P01     202203317116-4121-02             TERMINAL                 CCN000027000000027000FN00000000020220301000027000NNE   20220224130621EJ  4P0P  00000450000000618800000912432EJ    EJYKBO  006400630015
BI00B32EJ    T220223P01     202203317116-4112-02             TERMINAL                 CCN000054000000054000FN00000000020220301000054000NNE   20220224130621EJ  4P0P  00000600000000450000000738232EJ    EJYKBO  006400630015
BI00B32EJ    T220223P01     202203317116-4110-02             TERMINAL                 CCN000027000000027000FN00000000020220301000027000NNE   20220224130621EJ  4P0P  00000900000000594000000882232EJ    EJYKBO  006400630015
BI00B32EJ    T220223P01     202203317116-4111-02             TERMINAL                 CCN000007500000007500FN00000000020220301000007500NNE   20220224130621EJ  4P0P  00000750000000529500000817732EJ    EJYKBO  006400630015
BI00B32EJ    T220223P01     202203317126-8854-02             TERMINAL                 CCN000007500000007500FN00000000020220301000007500NNE   20220224130621EJ  4P0P  00000750000000604500000889732EJ    EJYKBO  006400630015
BI00B32EJ    T220223P01     202203317158-3166-60             WIRE SEAL                CCN000720000000720000FN00000000020220301000720000NNE   20220224130621EJ  1C0C  00004000000000104000000152432EJ    EJYKBO  002700430014
BI00B32EJ    T220223P01     202203317158-3167-80             WIRE SEAL                CCN000620000000620000FN00000000020220301000620000NNE   20220224130621EJ  1C0C  00002000000000048000000109032EJ    EJYKBO  002700430014
BI00B32EJ    T220223P01     202203317158-3168-80             SEALED                   CCN000020000000020000FN00000000020220301000020000NNE   20220224130621EJ  1C0C  00002000000000044000000092132EJ    EJYKBO  004300260014
BI00B32EJ    T220223P01     202203317158-3169-40             SEALING PLUG             CCN000280000000280000FN00000000020220301000280000NNE   20220224130621EJ  1C0C  00004000000000156000000204132EJ    EJYKBO  004300260014
BI00B32EJ    T220223P01     202203317158-3167-61             WIRE SEAL                CCN000100000000100000FN00000000020220301000100000NNE   20220224130621EJ  1C0C  00002000000000048000000096432EJ    EJYKBO  004300270014
BI00B32EJ    #T220223P01    202203317158-3120-90             CONNECTOR WIRE SEAL      CCN000060000000060000FN00000000020220301000060000NNE   20220224130621EJ  2C0C  00002000000000136000000194032EJ    EJYKBO  002700430014
BI00B32EJ    #T220223P01    202203317158-3374-90             CONNECTOR WIRE SEAL      CCN000020000000020000FN00000000020220301000020000NNE   20220224130621EJ  2H0H  00002000000000172000000229332EJ    EJYKBO  002700430014
BI00B32EJ    #T220223P01    202203317123-6423-30             CONNECTOR                CCN000008000000008000FN00000000020220301000008000NNE   20220224130621EJ  2F0F  00000200000001002000001167632EJ    EJYKBO  005600390023
BI00B32EJ    #T220223P01    202203317157-3950-80             SEAL RUBBER              CCN000040000000040000FN00000000020220301000040000NNE   20220224130621EJ  2C0C  00004000000000154000000440332EJ    EJYKBO  002700430014
BI00B32EJ    @T220223P01    202203317123-4312-80             HOUSING                  CCN000001600000001600FN00000000020220301000001600NNE   20220224130621EJ  3F0F  00000080000000644200000794032EJ    EJYKBO  005500360039
BI00B32E1    NC204B         202203097116-4121-02             TERMINAL                 CCN000018000000018000FN00000000020220501000018000NNED0720220224130621    4P0P  00000450000000618800000912432E1    SPYSE   006400630015
BI00B32E1    NC204B         202203097116-4122-02             TERMINAL                 CCN000013500000013500FN00000000020220501000013500NNED0720220224130621    4P0P  00000450000000656600000950232E1    SPYSE   006400630015
BI00B32E2    NY204C         202203097116-5045-02             TERMINAL                 CCN000048000000048000FN00000000020220501000048000NNED0720220224130621    4P0P  00001600000000678400001007132E2    SPYSE   006400630017
BI00B32E2    NY204C         202203097158-3006-90             RUBBER STOPPER           CCN000240000000240000FN00000000020220501000240000NNED0720220224130621    1C0C  00002000000000330600000386032E2    SPYSE   002700430014
BI00B32E2    #NY204C        202203097158-3003-90             RUBBER STOPPER           CCN000020000000020000FN00000000020220501000020000NNED0720220224130621    2C0C  00002000000000250000000306032E2    SPYSE   002700430014
BI00B32E2    #NY204C        202203097158-3121-80             WIRE SEAL                CCN000040000000040000FN00000000020220501000040000NNED0720220224130621    2C0C  00002000000000118000000187332E2    SPYSE   002700430014
BI00B32E2    #NY204C        202203097289-2913-30             HOUSING FEMALE ASS'Y     CCN000001500000001500FN00000000020220501000001500NNED0720220224130621    2N0N  00000150000000907500001034532E2    SPYSE   005400370024
BI00B32E2    #NY204C        202203097289-2914                HOUSING FEMALE ASS'Y     CCN000001500000001500FN00000000020220501000001500NNED0720220224130621    2N0N  00000150000000906000001033032E2    SPYSE   005400370024
BI00B32E2    #NY204C        202203097289-2914-40             HOUSING FEMALE ASS'Y     CCN000001500000001500FN00000000020220501000001500NNED0720220224130621    2N0N  00000150000000904500001031532E2    SPYSE   005400370024
BI00B32E2    #NY204C        202203097289-2915-30             HOUSING FEMALE ASS'Y     CCN000001500000001500FN00000000020220501000001500NNED0720220224130621    2N0N  00000150000000964500001091532E2    SPYSE   005400370024
BI00B32E2    #NY204C        202203097289-2917-30             HOUSING FEMALE ASS'Y     CCN000001000000001000FN00000000020220501000001000NNED0720220224130621    2N0N  00000100000000964000001091032E2    SPYSE   005400370024
BI00B32E2    #NY204C        202203097289-2919-30             HOUSING FEMALE ASS'Y     CCN000001500000001500FN00000000020220501000001500NNED0720220224130621    2N0N  00000150000000907500001034532E2    SPYSE   005400370024
BI00B32H0    TT2204ADMW     202203087116-4116-02             TERMINAL                 CCN000006900000006900FN00000000020220401000006900NNE   20220224130621    4P0P  00000690000000517500000805732H0    TTTJY   006400630015
BI00B32H0    TT2204ADMW     202203087126-8853-02             TERMINAL                 CCN000022500000022500FN00000000020220401000022500NNE   20220224130621    4P0P  00000750000000562500000847732H0    TTTJY   006400630015
BI00B32H0    #TT2204ADMW    202203087283-8226-30             CONNECTOR                CCN000008000000008000FN00000000020220401000008000NNE   20220224130621    2N0N  00000200000000820000001008032H0    TTTJY   005400370024
BI00B32H2    #TIJ2033       202203047158-3008-80             RUBBER STOPPER           CCN000100000000100000FN00000000020220301000100000NNMD0420220224140647    2C0C  00002000000000288000000343032H2    HVYHV   004300270014
BI00B32H7    FS2203ADMW     202202257195-0783-08             TERMINAL                 CCN000030000000030000FN00000000020220301000030000NNE00020220224155003    4P0P  00003000000000507000000801232H7    FYFSY   006400630015
BI00B32H7    @FS2203ADMW    202202257286-4098                CONNECTOR MALE ASS'Y     CCN000003200000003200FN00000000020220301000003200NNE00020220224154930    3N0N  00000160000000949100001163032H7    FYFSY   005500360039
BI00B32H7    FS2203CDMW     202203237288-6547                CONNECTOR MALE ASS'Y     CCN000025500000025500FN00000000020220301000025500NNED0420220224142823    4N0N  00000075000001205300001340332H7    FYFSY   005400370024
BI00B32H7    FS2204ADMW     202203307288-6547                CONNECTOR MALE ASS'Y     CCN000006000000006000FN00000000020220401000006000NNED0420220224142848    4N0N  00000075000001205300001340332H7    FYFSY   005400370024
BI00B32H7    FS2204BDMW     202204067288-6547                CONNECTOR MALE ASS'Y     CCN000006750000006750FN00000000020220401000006750NNED0420220224142928    4N0N  00000075000001205300001340332H7    FYFSY   005400370024
BI00B32K8    #K1220010435   202204017137-2718-50             SEALED CONNECTOR         CCN000009000000009000FN00000000020220501000009000NNM   20220224130621    2C0C  00000100000000118300000236632K8    ELELCOM 002700430014
BI00T32M1    @ICV2031       202203047183-2510                HOUSING                  CCN000003000000003000FN00000000020220301000003000NNMD0020220224130621    3F0F  00000300000001063500001159032M1    VNYEV   005400370024
BI00T32M1    @ICV2031       202203047282-1064-30             CONNECTOR ASS'Y          CCN000060000000060000FN00000000020220301000060000NNMD0020220224130621    3N0N  00000080000000907300001140132M1    VNYEV   005500360039
BI00T32M1    @ICV2031       202203047283-1223-30             HOUSING SUB ASSEMBLY     CCN000038400000038400FN00000000020220301000038400NNMD0020220224130621    3N0N  00000480000000749300000998032M1    VNYEV   005500360039
BI00B32M3    SM22043 MW     202203177282-4577                HOUSING MALE ASS'Y       CCN000016800000000000FY00000000020220401000000000NNMQ0820220224155732    4N0N  00000240000000964800001174832M3    SASAMI  005500360039
BI00B32M3    SM22044 MW     202203247282-4577                HOUSING MALE ASS'Y       CCN000007200000000000FY00000000020220401000000000NNMQ0820220224155750    4N0N  00000240000000964800001174832M3    SASAMI  005500360039
BI00B32M3    SM22043DMW     202203177114-4728-08             TERMINAL                 CCN000030000000000000FY00000000020220401000000000NNMQ0820220224155551    4P0P  00003000000000507000000801232M3    SASAMI  006400630015
BI00B32M3    SM22044DMW     202203247114-4728-08             TERMINAL                 CCN000030000000000000FY00000000020220401000000000NNMQ0820220224155615    4P0P  00003000000000507000000801232M3    SASAMI  006400630015
BI00B32M3    SM22043DMW     202203177283-4577                CONNECTOR HOUSING        CCN000009600000000000FY00000000020220401000000000NNMQ0820220224155809    4N0N  00000480000000916800001136832M3    SASAMI  005500360039
BI00B32M3    SM22044DMW     202203247283-4577                CONNECTOR HOUSING        CCN000009600000000000FY00000000020220401000000000NNMQ0820220224155827    4N0N  00000480000000916800001136832M3    SASAMI  005500360039
BI00B32M3    SM22042HMW     202203107C87-7975-4W             SQUIB SUB ASS'Y          CCN000010000000000000FY00000000020220401000000000NNMQ0820220224155950    4N0N  00001000000000837000000991132M3    SASAMI  005400370024
BI00B32M3    SM22044HMW     202203247388-0313-30             CONNECTOR ASS'Y          CCN000001200000000000FY00000000020220401000000000NNMQ0820220224155856    4N0N  00000120000000995000001125032M3    SASAMI  005400370024
BI00B32M3    SM22043HMW     202203177388-0316-80             CONNECTOR ASS'Y          CCN000006000000000000FY00000000020220401000000000NNMQ0820220224155921    4N0N  00000120000001002500001132532M3    SASAMI  005400370024
BI00B32M4    TP2043A        202203317288-3337-30             HOUSING MALE             CCN000001500000001500FN00000000020220401000001500NNED0420220224142334    4N0N  00000150000000867000001012032M4    SISAI   005400370024
BI00B32N1    NST2114FCU-REV 202202287289-3342-30             HOUSING FEMALE ASS'Y     CCN000007200000007200FN00000000020220101000007200NNE00020220224144243    1N0N  00000240000000686400000901432N1    TAYIPL  005500360039
BI00B32N1    NST2116ECU     202202287283-5830-30             CONNECTOR                CCN000012000000012000FN00000000020220301000012000NNE00020220224144323    1N0N  00000600000000954000001104032N1    TAYIPL  005500360039
BI00B32N1    NST2116GCU     202202287116-1180                TERMINAL                 CCN000019500000019500FN00000000020220301000019500NNE00020220224144348    1P0P  00001950000000618200000903432N1    TAYIPL  006400630015
BI00B32N1    NST2116GCU     202202287283-5845                CONNECTOR HOUSING        CCN000024000000006000FN00000000020220301000006000NNE00020220224144448    1N0N  00000600000000444000000606332N1    TAYIPL  005400370024
BI00B32N1    NST2116GCU     202202287158-3166-60             WIRE SEAL                CCN000480000000480000FN00000000020220301000480000NNE00020220224144403    1C0C  00004000000000104000000152432N1    TAYIPL  002700430014
BI00B32N1    NST2116GCU     202202287158-3167-80             WIRE SEAL                CCN000100000000100000FN00000000020220301000100000NNE00020220224144423    1C0C  00002000000000048000000109032N1    TAYIPL  002700430014
BI00B32N1    NST2116GCU     202202287158-3169-40             SEALING PLUG             CCN000040000000040000FN00000000020220301000040000NNE00020220224144423    1C0C  00004000000000156000000204132N1    TAYIPL  004300260014
BI00B32N1    NST2116GCU     202202287172-5540-80             SEALED WIRE SEAL         CCN000020000000020000FN00000000020220301000020000NNE00020220224144435    1C0C  00002000000000186000000234432N1    TAYIPL  004300270014
BI00B32N2    2152103851     202203247370-0310                J/B ASS'Y                CCN000001790000001790FN00000000020220401000001790NNMD0720220224130621    1J0J  00000001000000559000000809032N2    YWYIPLTC005500360039
BI00A32Q8    EU2202DTMW     202203027327-6950-30             MULTI FUSE               CCN000001728000001728FN00000000020220201000001728NNEM0020220224143712    4N00  00000028800000888700001054632Q8    EMEMI   005400370024
BI00A32Q8    EU2202DTMW     202203027327-6952-30             MULTI FUSE               CCN000001680000001680FN00000000020220201000001680NNEM0020220224143757    4N0N  00000056000000848500001031532Q8    EMEMI   005400370024
BI00A32Q8    EU2202DTMW     202203027327-6954-30             MULTI FUSE               CCN000001800000001800FN00000000020220201000001800NNEM0020220224143826    4N00  00000060000000751600000954332Q8    EMEMI   005400370024
BI00A32Q8    EU2202HTMW     202203027327-6950-30             MULTI FUSE               CCN000001728000001728FN00000000020220201000001728NNEM0020220224143730    4N00  00000028800000888700001054632Q8    EMEMI   005400370024
BI00A32Q8    EU2202HTMW     202203027327-6954-30             MULTI FUSE               CCN000001200000001200FN00000000020220201000001200NNEM0020220224143856    4N00  00000060000000751600000954332Q8    EMEMI   005400370024
BI00B32Q8    #EU22034TMW    202202247172-5626-90             RUBBER STOPPER           CCN001140000000380000FY00038000020220301000000000NNMD0420220224134816    2H0H  00002000000000076400000127832Q8    EMEMI   004300270014
BI00B32Q8    EU22041TMW     202203167327-6950-30             MULTI FUSE               CCN000001728000001728FN00000000020220401000001728NNMD0420220224144914    4N00  00000028800000888700001054632Q8    EMEMI   005400370024
BI00B32Q8    #EU2203FTMW    202203097172-5626-90             RUBBER STOPPER           CCN000440000000440000FY00044000020220301000000000NNED0420220224135054    2H0H  00002000000000076400000127832Q8    EMEMI   004300270014
BI00B32Q8    EU2204ETMW     202205047288-3335-30             HOUSING MALE             CCN000001500000001500FN00000000020220401000001500NNED0420220224142314    4N0N  00000150000000867000001012032Q8    EMEMI   005400370024
BI00B32Q8    EU2204ETMW     202205047288-3338-30             HOUSING MALE             CCN000001500000001500FN00000000020220401000001500NNED0420220224142356    4N0N  00000150000000866100001012032Q8    EMEMI   005400370024
BI00B32Q8    #EU22034TMW    202203097172-5626-90             RUBBER STOPPER           CCN000760000000760000FN00000000020220301000760000NNMD0420220224134828    2H0H  00002000000000076400000127832Q8    EMEMI   004300270014
BI00B32R7    R-TAP220086    202203107158-3167-80             WIRE SEAL                CCN000060000000060000FN00000000020220301000060000NNE   20220224130621    1C0C  00002000000000048000000109032R7    IVYCIC  002700430014
BI00B32R7    R-TAP220087    202203107116-4122-02             TERMINAL                 CCN000009000000009000FN00000000020220301000009000NNE   20220224130621    4P0P  00000450000000656600000950232R7    IVYCIC  006400630015
BI00B32U5    DI2019         202204227288-3330-30             HOUSING MALE             CCN000004500000004500FN00000000020220601000004500NNMD0420220224142214U5  4N0N  00000150000000866300001011232U5    AMAMSD  005400370024
BI00B32U5    DI2019         202204227288-3339-30             HOUSING MALE             CCN000006000000006000FN00000000020220601000006000NNMD0420220224142423U5  4N0N  00000150000000867000001012032U5    AMAMSD  005400370024
BI00B32W4    4500186967     202202257116-2951-02             TERMINAL                 CCN000010800000010800FN00000000020220201000010800NNE00020220224154114W46 4P0P  00000540000000817600001111832W46   HJYHK   006400630015
BI00B32W4    #4500188360    202203317123-6423-30             CONNECTOR                CCN000002000000002000FN00000000020220301000002000NNED0020220224130621W48 2F0F  00000200000001002000001167632W48   HJYHK   005600390023
BI00B32W4    #4500188361    202203217123-6423-30             CONNECTOR                CCN000004000000004000FN00000000020220301000004000NNED0020220224130621W48 2F0F  00000200000001002000001167632W48   HJYHK   005600390023
BI00B32W4    #4500188898    202204077123-6423-30             CONNECTOR                CCN000004000000004000FN00000000020220301000004000NNED0020220224130621W48 2F0F  00000200000001002000001167632W48   HJYHK   005600390023
BI00A32W4    #4500189199    202203017123-6347                CONNECTOR HOUSING        CCN000003200000003200FN00000000020220301000003200NNED0020220224130621W4802F0F  00000160000000647000000904832W480  HJYHK-J 005500360039
BI00A32W4    #4500189349    202203147289-4104-40             HOUSING FEMALE ASS'Y     CCN000050000000024000FN00000000020220301000024000NNED0420220224130621W4652NON  00000050000000606900000821132W465  HJYHK   005400370024
BI00A32W4    #4500189350    202203287289-4104-40             HOUSING FEMALE ASS'Y     CCN000049000000024000FN00000000020220301000024000NNED0420220224130621W4652NON  00000050000000606900000821132W465  HJYHK   005400370024
BI00A32W4    4500189209     202202257116-2951-02             TERMINAL                 CCN000021600000021600FN00000000020220301000021600NNE00020220224154024W4L84P0P  00000540000000817600001111832W4L8  HJYHK-J 006400630015
BI00B32W4    4500189491     202208087283-5574-10             CONNECTOR                CCN000001600000001600FN00000000020220801000001600NNEM0020220224130621W4464N0N  00000080000001235000001435232W446  HJYHK   005500360039
BI00B32W4    4500189564     202206097288-6547                CONNECTOR MALE ASS'Y     CCN000003000000003000FN00000000020220401000003000NNED0420220224140503W4D44N0N  00000075000001205300001340332W4D4  HJYHK-J 005400370024
BI00A32W4    #4500189349    202203217289-4104-40             HOUSING FEMALE ASS'Y     CCN000026000000026000FN00000000020220301000026000NNED0420220224130621W4652NON  00000050000000606900000821132W465  HJYHK   005400370024
BI00A32W4    #4500189350    202204047289-4104-40             HOUSING FEMALE ASS'Y     CCN000025000000025000FN00000000020220301000025000NNED0420220224130621W4652NON  00000050000000606900000821132W465  HJYHK   005400370024
BI00A32W4    4500189788     202205097116-4101-02             TERMINAL                 CCN000036000000036000FN00000000020220501000036000NNE   20220224130621W4M54P0P  00001200000000582000000876232W4M5  HJYHK-J 006400630015
BI00B32W4    4500189789     202204287114-4032                TERMINAL                 CCN000007500000007500FN00000000020220401000007500NNE   20220224130621W4164P0P  00000750000000735000001063632W416  HJYHK   006400630017
BI00B32W4    4500189789     202204287116-4100-02             TERMINAL                 CCN000090000000090000FN00000000020220401000090000NNE   20220224130621W4164P0P  00001500000000696000000990232W416  HJYHK   006400630015
BI00B32W4    4500189789     202204287114-4112-02             TERMINAL                 CCN000009000000009000FN00000000020220401000009000NNE   20220224130621W4164P0P  00000900000000598500000927132W416  HJYHK   006400630017
BI00B32W4    4500189789     202204287116-4121-02             TERMINAL                 CCN000004500000004500FN00000000020220401000004500NNE   20220224130621W4164P0P  00000450000000618800000912432W416  HJYHK   006400630015
BI00B32W4    4500189789     202204287116-4111-02             TERMINAL                 CCN000007500000007500FN00000000020220401000007500NNE   20220224130621W4164P0P  00000750000000529500000817732W416  HJYHK   006400630015
BI00B32W4    4500189789     202204287116-4112-02             TERMINAL                 CCN000036000000036000FN00000000020220401000036000NNE   20220224130621W4164P0P  00000600000000450000000738232W416  HJYHK   006400630015
BI00B32W4    4500189789     202204287116-4102-02             TERMINAL                 CCN000024000000024000FN00000000020220401000024000NNE   20220224130621W4164P0P  00001200000000553200000841432W416  HJYHK   006400630015
BI00B32W4    4500189789     202204287283-7028-30             CONNECTOR                CCN000003000000003000FN00000000020220401000003000NNE   20220224130621W4164N0N  00000300000001452000001681332W416  HJYHK   005600390040
BI00B32W4    4500189789     202204287114-4100-02             TERMINAL                 CCN000018000000018000FN00000000020220401000018000NNE   20220224130621W4164P0P  00001800000000748800001077432W416  HJYHK   006400630017
BI00B32W4    4500189789     202204287283-1156                CONNECTOR                CCN000016000000016000FN00000000020220401000016000NNE   20220224130621W4164N0N  00000080000000877600001078032W416  HJYHK   005600390040
BI00B32W4    4500189789     202204287288-6547                CONNECTOR MALE ASS'Y     CCN000024750000024750FN00000000020220401000024750NNE   20220224130621W4164N0N  00000075000001205300001340332W416  HJYHK   005400370024
BI00B32W4    4500189789     202204287289-6547                HOUSING FEMALE ASS'Y     CCN000024000000024000FN00000000020220401000024000NNE   20220224130621W4161N0N  00000240000001152000001362032W416  HJYHK   005500360039
BI00B32W4    4500189789     202204287158-3166-60             WIRE SEAL                CCN000040000000040000FN00000000020220401000040000NNE   20220224130621W4161C0C  00004000000000104000000152432W416  HJYHK   002700430014
BI00B32W4    4500189789     202204287126-8854-02             TERMINAL                 CCN000007500000007500FN00000000020220401000007500NNE   20220224130621W4164P0P  00000750000000604500000889732W416  HJYHK   006400630015
BI00B32W4    4500189789     202204287116-4101-02             TERMINAL                 CCN000036000000036000FN00000000020220401000036000NNE   20220224130621W4164P0P  00001200000000582000000876232W416  HJYHK   006400630015
BI00B32W4    4500189789     202204287116-4120-02             TERMINAL                 CCN000006000000006000FN00000000020220401000006000NNE   20220224130621W4164P0P  00000600000000780000001073632W416  HJYHK   006400630015
BI00B32W4    4500189789     202204287114-4101-02             TERMINAL                 CCN000015000000015000FN00000000020220401000015000NNE   20220224130621W4164P0P  00001500000000675000001003632W416  HJYHK   006400630017
BI00B32W4    4500189789     202204287116-4104-02             TERMINAL                 CCN000036000000036000FN00000000020220401000036000NNE   20220224130621W4164P0P  00001200000000580800000972432W416  HJYHK   006400630015
BI00B32W4    4500189789     202204287116-4110-02             TERMINAL                 CCN000009000000009000FN00000000020220401000009000NNE   20220224130621W4164P0P  00000900000000594000000882232W416  HJYHK   006400630015
BI00B32W4    4500189789     202204287283-1020                CONNECTOR                CCN000006000000006000FN00000000020220401000006000NNE   20220224130621W4164N0N  00000600000000840000001049332W416  HJYHK   005600390040
BI00B32W4    4500189789     202204287283-1024                CONNECTOR SUB ASSY       CCN000014000000014000FN00000000020220401000014000NNE   20220224130621W4164N0N  00000200000000400000000522532W416  HJYHK   005400370024
BI00B32W4    4500189789     202204287282-1024                HOUSING MALE             CCN000014000000014000FN00000000020220401000014000NNE   20220224130621W4161N0N  00000100000000458000000580532W416  HJYHK   005400370024
BI00B32W4    #4500189789    202204287282-4190-30             CONNECTOR                CCN000001920000001920FN00000000020220401000001920NNE   20220224130621W4162N0N  00000024000000801000001071332W416  HJYHK   005600390040
BI00B32W4    #4500189789    202204287283-4190-30             CONNECTOR                CCN000002160000002160FN00000000020220401000002160NNE   20220224130621W4162N0N  00000024000000846000001115532W416  HJYHK   005600390040
BI00B32W4    #4500189789    202204287187-1616                HOUSING FEMALE           CCN000008000000008000FN00000000020220401000008000NNE   20220224130621W4162F0F  00000400000001152000001262032W416  HJYHK   005500360039
BI00B32W4    @4500189789    202204287287-6634                HOUSING FEMALE ASS'Y     CCN000007200000007200FN00000000020220401000007200NNE   20220224130621W4163N0N  00000240000001088400001337032W416  HJYHK   005500360039
BI00B32W4    4500189790     202203077116-1685                TERMINAL                 CCN000048000000048000FN00000000020220301000048000NNE   20220224130621W45 4P0P  00002400000000892800001067232W45   HJYHK   005100280028
BI00B32W4    4500189800     202204287116-1471                TERMINAL                 CCN000015000000015000FN00000000020220401000015000NNE   20220224130621W4464P0P  00001500000000579000000867232W446  HJYHK   006400630015
BI00B32W4    4500189800     202204287114-4100-02             TERMINAL                 CCN000018000000018000FN00000000020220401000018000NNE   20220224130621W4464P0P  00001800000000748800001077432W446  HJYHK   006400630017
BI00B32W4    4500189800     202204287114-4112-02             TERMINAL                 CCN000009000000009000FN00000000020220401000009000NNE   20220224130621W4464P0P  00000900000000598500000927132W446  HJYHK   006400630017
BI00B32W4    4500189800     202204287116-4100-02             TERMINAL                 CCN000030000000030000FN00000000020220401000030000NNE   20220224130621W4464P0P  00001500000000696000000990232W446  HJYHK   006400630015
BI00B32W4    4500189800     202204287116-4101-02             TERMINAL                 CCN000060000000060000FN00000000020220401000060000NNE   20220224130621W4464P0P  00001200000000582000000876232W446  HJYHK   006400630015
BI00B32W4    4500189800     202204287116-4103-02             TERMINAL                 CCN000012000000012000FN00000000020220401000012000NNE   20220224130621W4464P0P  00001200000000571200000859432W446  HJYHK   006400630015
BI00B32W4    4500189800     202204287116-4104-02             TERMINAL                 CCN000012000000012000FN00000000020220401000012000NNE   20220224130621W4464P0P  00001200000000580800000972432W446  HJYHK   006400630015
BI00B32W4    4500189800     202204287158-3167-80             WIRE SEAL                CCN000040000000040000FN00000000020220401000040000NNE   20220224130621W4461C0C  00002000000000048000000109032W446  HJYHK   002700430014
BI00B32W4    4500189800     202204287283-5548-30             CONNECTOR                CCN000001500000001500FN00000000020220401000001500NNE   20220224130621W4464N0N  00000150000001109000001302032W446  HJYHK   005600390040
BI00B32W4    4500189800     202204287283-5623-60             CONNECTOR                CCN000001600000001600FN00000000020220401000001600NNE   20220224130621W4461N0N  00000160000001546000001846332W446  HJYHK   005600390040
BI00B32W4    4500189800     202204287283-6448-40             CONNECTOR                CCN000001500000001500FN00000000020220401000001500NNE   20220224130621W4464N0N  00000150000001087000001329032W446  HJYHK   005600390040
BI00B32W4    #4500189800    202204287283-8123-40             CONNECTOR HOUSING        CCN000004000000004000FN00000000020220401000004000NNE   20220224130621W4462N0N  00000400000000380000000530032W446  HJYHK   005600390023
BI00B32W4    4500189803     202205057114-1475                TERMINAL                 CCN000013500000013500FN00000000020220501000013500NNE   20220224130621W4464P0P  00001350000000480600000774232W446  HJYHK   006400630015
BI00A32W4    4500189805     202203317158-3165-90             WIRE SEAL                CCN000040000000040000FN00000000020220301000040000NNE   20220224130621W4521C0C  00004000000000124000000172432W452  HJYHK   004300270014
BI00B32W4    #4500189807    202204077289-4104-40             HOUSING FEMALE ASS'Y     CCN000017500000017500FN00000000020220401000017500NNE   20220224130621W4652NON  00000050000000606900000821132W465  HJYHK   005400370024
BI00B32W4    4500189808     202204287116-4100-02             TERMINAL                 CCN000120000000120000FN00000000020220401000120000NNE   20220224130621W4654P0P  00001500000000696000000990232W465  HJYHK   006400630015
BI00B32W4    4500189808     202204287114-4112-02             TERMINAL                 CCN000036000000036000FN00000000020220401000036000NNE   20220224130621W4654P0P  00000900000000598500000927132W465  HJYHK   006400630017
BI00B32W4    4500189808     202204287116-4111-02             TERMINAL                 CCN000022500000022500FN00000000020220401000022500NNE   20220224130621W4654P0P  00000750000000529500000817732W465  HJYHK   006400630015
BI00B32W4    4500189808     202204287116-4112-02             TERMINAL                 CCN000060000000060000FN00000000020220401000060000NNE   20220224130621W4654P0P  00000600000000450000000738232W465  HJYHK   006400630015
BI00B32W4    4500189808     202204287116-4102-02             TERMINAL                 CCN000300000000300000FN00000000020220401000300000NNE   20220224130621W4654P0P  00001200000000553200000841432W465  HJYHK   006400630015
BI00B32W4    4500189808     202204287114-4100-02             TERMINAL                 CCN000036000000036000FN00000000020220401000036000NNE   20220224130621W4654P0P  00001800000000748800001077432W465  HJYHK   006400630017
BI00B32W4    4500189808     202204287114-4111-02             TERMINAL                 CCN000012000000012000FN00000000020220401000012000NNE   20220224130621W4654P0P  00001200000000758400001087032W465  HJYHK   006400630017
BI00B32W4    4500189808     202204287116-4101-02             TERMINAL                 CCN000024000000024000FN00000000020220401000024000NNE   20220224130621W4654P0P  00001200000000582000000876232W465  HJYHK   006400630015
BI00B32W4    4500189808     202204287114-4101-02             TERMINAL                 CCN000015000000015000FN00000000020220401000015000NNE   20220224130621W4654P0P  00001500000000675000001003632W465  HJYHK   006400630017
BI00B32W4    4500189808     202204287114-4110-02             TERMINAL                 CCN000030000000030000FN00000000020220401000030000NNE   20220224130621W4654P0P  00001500000000901500001230132W465  HJYHK   006400630017
BI00B32W4    4500189808     202204287116-4110-02             TERMINAL                 CCN000045000000045000FN00000000020220401000045000NNE   20220224130621W4654P0P  00000900000000594000000882232W465  HJYHK   006400630015
BI00B32W4    4500189808     202204287116-4103-02             TERMINAL                 CCN000120000000120000FN00000000020220401000120000NNE   20220224130621W4654P0P  00001200000000571200000859432W465  HJYHK   006400630015
BI00B32W4    4500189808     202204287283-1030                CONNECTOR                CCN000006000000006000FN00000000020220401000006000NNE   20220224130621W4654N0N  00000600000000988000001172032W465  HJYHK   005500360039
BI00A32W4    #4500189811    202204117147-8931-30             CLIP                     CCN000004500000004500FN00000000020220401000004500NNE   20220224130621W4O22F0F  00000450000000387000000531732W4O2  HJYHK-J 005600390023
BI00A32W4    4500189825     202204257116-4100-02             TERMINAL                 CCN000030000000030000FN00000000020220401000030000NNE   20220224130621W4O24P0P  00001500000000696000000990232W4O2  HJYHK-J 006400630015
BI00A32W4    4500189825     202204257116-4112-02             TERMINAL                 CCN000012000000012000FN00000000020220401000012000NNE   20220224130621W4O24P0P  00000600000000450000000738232W4O2  HJYHK-J 006400630015
BI00A32W4    4500189825     202204257116-4025                TERMINAL                 CCN000032000000032000FN00000000020220401000032000NNE   20220224130621W4O24P0P  00001600000000644800000975132W4O2  HJYHK-J 006400630017
BI00A32W4    4500189825     202204257283-7028-30             CONNECTOR                CCN000009000000009000FN00000000020220401000009000NNE   20220224130621W4O24N0N  00000300000001452000001681332W4O2  HJYHK-J 005600390040
BI00A32W4    4500189825     202204257116-4026                TERMINAL                 CCN000016000000016000FN00000000020220401000016000NNE   20220224130621W4O24P0P  00001600000000664000000994332W4O2  HJYHK-J 006400630017
BI00A32W4    4500189825     202204257158-3167-80             WIRE SEAL                CCN000040000000040000FN00000000020220401000040000NNE   20220224130621W4O21C0C  00002000000000048000000109032W4O2  HJYHK-J 002700430014
BI00A32W4    4500189825     202204257116-4101-02             TERMINAL                 CCN000012000000012000FN00000000020220401000012000NNE   20220224130621W4O24P0P  00001200000000582000000876232W4O2  HJYHK-J 006400630015
BI00A32W4    4500189825     202204257114-4112-02             TERMINAL                 CCN000009000000009000FN00000000020220401000009000NNE   20220224130621W4O24P0P  00000900000000598500000927132W4O2  HJYHK-J 006400630017
BI00A32W4    4500189825     202204257116-4110-02             TERMINAL                 CCN000009000000009000FN00000000020220401000009000NNE   20220224130621W4O24P0P  00000900000000594000000882232W4O2  HJYHK-J 006400630015
BI00A32W4    4500189825     202204257116-4103-02             TERMINAL                 CCN000012000000012000FN00000000020220401000012000NNE   20220224130621W4O24P0P  00001200000000571200000859432W4O2  HJYHK-J 006400630015
BI00A32W4    4500189825     202204257282-5574-10             CONNECTOR                CCN000000800000000800FN00000000020220401000000800NNE   20220224130621W4O24N0N  00000080000001235000001423032W4O2  HJYHK-J 005600390040
BI00A32W4    @4500189825    202204257183-8049                CONNECTOR HOUSING        CCN000004000000004000FN00000000020220401000004000NNE   20220224130621W4O23F0F  00000400000000583600000740032W4O2  HJYHK-J 005400370024
BI00B32W4    4500189828     202208187283-5574-10             CONNECTOR                CCN000000800000000800FN00000000020220801000000800NNE   20220224130621W4464N0N  00000080000001235000001435232W446  HJYHK   005500360039
BI00A32W4    @4500189832    202203147287-4098                CONNECTOR FEMALE         CCN000009600000009600FN00000000020220301000009600NNE   20220224130621W4L63N0N  00000240000000668600000908032W4L6  HJYHK-K 005500360039
BI00A32W4    4500189835     202203177114-4100-02             TERMINAL                 CCN000054000000054000FN00000000020220301000054000NNE   20220224130621W4334P0P  00001800000000748800001077432W433  HJYHK   006400630017
BI00A32W4    4500189840     202204257158-3169-40             SEALING PLUG             CCN000040000000040000FN00000000020220401000040000NNE   20220224130621W4141C0C  00004000000000156000000204132W414  HJYHK   004300260014
BI00A32W4    4500189840     202204257116-4110-02             TERMINAL                 CCN000009000000009000FN00000000020220401000009000NNE   20220224130621W4144P0P  00000900000000594000000882232W414  HJYHK   006400630015
BI00A32W4    4500189843     202207147114-4110-02             TERMINAL                 CCN000015000000015000FN00000000020220701000015000NNE   20220224130621W4604P0P  00001500000000901500001230132W460  HJYHK   006400630017
BI00A32W4    4500189847     202204257116-4100-02             TERMINAL                 CCN000120000000120000FN00000000020220401000120000NNE   20220224130621W4664P0P  00001500000000696000000990232W466  HJYHK   006400630015
BI00A32W4    4500189847     202204257116-4112-02             TERMINAL                 CCN000024000000024000FN00000000020220401000024000NNE   20220224130621W4664P0P  00000600000000450000000738232W466  HJYHK   006400630015
BI00A32W4    4500189847     202204257116-4102-02             TERMINAL                 CCN000048000000048000FN00000000020220401000048000NNE   20220224130621W4664P0P  00001200000000553200000841432W466  HJYHK   006400630015
BI00A32W4    4500189847     202204257114-4100-02             TERMINAL                 CCN000090000000090000FN00000000020220401000090000NNE   20220224130621W4664P0P  00001800000000748800001077432W466  HJYHK   006400630017
BI00A32W4    4500189847     202204257116-4026                TERMINAL                 CCN000016000000016000FN00000000020220401000016000NNE   20220224130621W4664P0P  00001600000000664000000994332W466  HJYHK   006400630017
BI00A32W4    4500189847     202204257114-4111-02             TERMINAL                 CCN000012000000012000FN00000000020220401000012000NNE   20220224130621W4664P0P  00001200000000758400001087032W466  HJYHK   006400630017
BI00A32W4    4500189847     202204257283-5548-30             CONNECTOR                CCN000001500000001500FN00000000020220401000001500NNE   20220224130621W4664N0N  00000150000001109000001302032W466  HJYHK   005600390040
BI00A32W4    4500189847     202204257116-4101-02             TERMINAL                 CCN000036000000036000FN00000000020220401000036000NNE   20220224130621W4664P0P  00001200000000582000000876232W466  HJYHK   006400630015
BI00A32W4    4500189847     202204257116-4104-02             TERMINAL                 CCN000036000000036000FN00000000020220401000036000NNE   20220224130621W4664P0P  00001200000000580800000972432W466  HJYHK   006400630015
BI00A32W4    4500189847     202204257114-4110-02             TERMINAL                 CCN000030000000030000FN00000000020220401000030000NNE   20220224130621W4664P0P  00001500000000901500001230132W466  HJYHK   006400630017
BI00A32W4    4500189847     202204257116-4110-02             TERMINAL                 CCN000036000000036000FN00000000020220401000036000NNE   20220224130621W4664P0P  00000900000000594000000882232W466  HJYHK   006400630015
BI00A32W4    #4500189847    202204257282-4190-30             CONNECTOR                CCN000001920000001920FN00000000020220401000001920NNE   20220224130621W4662N0N  00000024000000801000001071332W466  HJYHK   005600390040
BI00A32W4    4500189785     202204257158-3167-80             WIRE SEAL                CCN000020000000020000FN00000000020220401000020000NNE   20220224130621W4761C0C  00002000000000048000000109032W476  HJYHK-J 002700430014
BI00A32W6    SW2112CQMW     202202257327-6874-30             MULTI FUSE               PCN000008928000008928FN00000000020211201000008928NNE00020220224130621    4N0N  00000028800000991400001157332W6    SYSYA-WJ005400370024
BI00B32W6    SW22013QMW     202203027327-6884-30             MULTI FUSE               CCN000009792000009792FN00000000020220101000009792NNM00020220224153956    4N0N  00000028800000988900001154832W6    SYSYA-WJ005400370024
BI00B32W9    4500189623     202204267289-3342                HOUSING FEMALE ASS'Y     CCN000004800000004800FN00000000020220401000004800NNED0420220224140538W9  1N0N  00000240000000686400000901432W9    HKYHK   005500360039
BI00B32X5    TIB2019        202208197289-3342                HOUSING FEMALE ASS'Y     CCN000024000000024000FN00000000020220601000024000NNMD0420220224143007X5  1N0N  00000240000000686400000901432X5    EPYNA-E 005500360039
BI00B32X5    TIB2019        202204227288-3330-30             HOUSING MALE             CCN000012000000012000FN00000000020220601000012000NNMD0420220224142242X5  4N0N  00000150000000866300001011232X5    EPYNA-E 005400370024
BI00B32X5    TIB2019        202204227289-3342-40             HOUSING FEMALE ASS'Y     CCN000002400000002400FN00000000020220601000002400NNMD0420220224143026X5  1N0N  00000240000000686400000901432X5    EPYNA-E 005500360039
BI00B32Y2    TAU1171        202203027289-3342-30             HOUSING FEMALE ASS'Y     CCN000019200000026400FN00000000020220601000026400NNM00020220224153832    1N0N  00000240000000686400000901432Y2    YUYUY   005500360039
BI00A32Y6    STAP32061      202203037158-3009-60             RUBBER STOPPER           PCN000440000000440000FN00000000020220601000440000NNMM0020220224130621    1C0C  00002000000000338000000386232Y6    BSYBL-S 002700430014
