BI00B32M3    SM22043 MW     2022031718007703930              AVSS 0.5F B              CCN000010500000000000FY00000000020220401000000000NNM10 20220224132908    1W    00000150000000674000000000032M3    SASAMI  000000000000QM123038
BI00B32M3    SM22044 MW     2022032418007703930              AVSS 0.5F B              CCN000010500000000000FY00000000020220401000000000NNM10 20220224133424    1W    00000150000000674000000000032M3    SASAMI  000000000000QM223009
BI00B32M3    SM22043 MW     2022031718007703990              AVSS 0.5F L              CCN000006000000000000FY00000000020220401000000000NNM10 20220224132940    1W    00000150000000674000000000032M3    SASAMI  000000000000QM123039
BI00B32M3    SM22044 MW     2022032418007703990              AVSS 0.5F L              CCN000006000000000000FY00000000020220401000000000NNM10 20220224133441    1W    00000150000000674000000000032M3    SASAMI  000000000000QM223010
BI00B32M3    SM22043 MW     20220317180D0204030              AVSSH 0.75F B            CCN000002000000000000FY00000000020220401000000000NNM10 20220224133035    1W    00000100000000934000000000032M3    SASAMI  000000000000QM123023
BI00B32M3    SM22044 MW     20220324180D0204030              AVSSH 0.75F B            CCN000001000000000000FY00000000020220401000000000NNM10 20220224133505    1W    00000100000000934000000000032M3    SASAMI  000000000000QM223003
BI00B32M3    SM22043 MW     20220317180D0204080              AVSSH 0.75F BR           CCN000002000000000000FY00000000020220401000000000NNM10 20220224133057    1W    00000100000000934000000000032M3    SASAMI  000000000000QM123024
BI00B32M3    SM22043 MW     20220317180D0204041              AVSSH 0.75F GY           CCN000002000000000000FY00000000020220401000000000NNM10 20220224133120    1W    00000100000000934000000000032M3    SASAMI  000000000000QM123026
BI00B32M3    SM22044 MW     20220324180D0204041              AVSSH 0.75F GY           CCN000002000000000000FY00000000020220401000000000NNM10 20220224133522    1W    00000100000000934000000000032M3    SASAMI  000000000000QM223004
BI00B32M3    SM22043HMW     2022031718007704030              AVSS 0.75F B             CCN000007000000000000FY00000000020220401000000000NNM10 20220224133006    1W    00000100000000943000000000032M3    SASAMI  000000000000QH123001
BI00B32M3    SM22044HMW     2022032418007704030              AVSS 0.75F B             CCN000003000000000000FY00000000020220401000000000NNM10 20220224133541    1W    00000100000000943000000000032M3    SASAMI  000000000000QH223001
BI00A32P8    TAPAW-2042     20220224180D0203959              AVSSH 0.5F R/L           CCN000001500000001500FY00000150020220401000000000NNM20 20220224160000    1W    00000150000000689000000000032P8    YIYTM   000000000000YT422038
BI00A32P8    @TAPAW-2042    20220224181E48035ZZ              CAVSAS-S 0.5X3 GY        CCN000002600000002600FY00000260020220401000000000NNM20 20220224160000    1W    00000020000003795300000000032P8    YIYTM   000000000000YT422012
