BI00A1200    7360T51A03     202202077288-3337-30             HOUSING MALE             CCN000010500000006000FN00000000020211201000006000NNMQ0420220203155544    4N0N  0000015000000086700000101201200    YCYC    005400370024
BI00B1200    7360T51A01     202202177288-6547                CONNECTOR MALE ASS'Y     CCN000015000000015000FN00000000020211201000015000NNMD0420220203162324    4N0N  0000007500000120530000134031200    YCYC    005400370024
BI00B1200    7360T51A02     202203317288-6547                CONNECTOR MALE ASS'Y     CCN000012750000012750FN00000000020211201000012750NNMD0420220203162334    4N0N  0000007500000120530000134031200    YCYC    005400370024
BI00B1200    7360T51A01     202203037289-3342                HOUSING FEMALE ASS'Y     CCN000081600000081600FN00000000020211201000081600NNMQ0420220203162324    1N0N  0000024000000068640000090141200    YCYC    005500360039
BI00A1200    2399T51A22     202203047289-5979-30             HOUSING FEMALE ASS'Y     PCN000014868000000504FN00000000020211201000000504NNMM0020220203165152    1N0N  0000002520000085470000106471200    YCYC    005400370024
BI00B1200    7360T51A03     202206237288-3337-30             HOUSING MALE             CCN000006000000000000FY00000000020211201000000000NNMD0420220203155544    4N0N  0000015000000086700000101201200    YCYC    005400370024
BI00B1200    7360T51A01     202301127289-3342                HOUSING FEMALE ASS'Y     CCN000019200000000000FY00000000020211201000000000NNMD0420220203155724    1N0N  0000024000000068640000090141200    YCYC    005500360039
BI00B1200    7360T51A01     202301197289-3342                HOUSING FEMALE ASS'Y     CCN000021600000000000FY00000000020211201000000000NNMD0420220203155724    1N0N  0000024000000068640000090141200    YCYC    005500360039
BI00B1200    7360T51A01     202301267289-3342                HOUSING FEMALE ASS'Y     CCN000021600000000000FY00000000020211201000000000NNMD0420220203155724    1N0N  0000024000000068640000090141200    YCYC    005500360039
BI00B1200    2399T51C15     202202107289-3342                HOUSING FEMALE ASS'Y     CCN000002400000002400FN00000000020220101000002400NNMD0420220203150328    1N0N  0000024000000068640000090141200    YCYC    005500360039
BI00B1200    2399T51C16     202202107289-3342                HOUSING FEMALE ASS'Y     CCN000002400000002400FN00000000020220101000002400NNMD0420220203150338    1N0N  0000024000000068640000090141200    YCYC    005500360039
BI00B1200    2399T51C17     202202177289-3342                HOUSING FEMALE ASS'Y     CCN000002400000002400FN00000000020220101000002400NNMD0420220203150200    1N0N  0000024000000068640000090141200    YCYC    005500360039
BI00A1200    2399T52113     202202047289-3342                HOUSING FEMALE ASS'Y     PCN000004800000004800FN00000000020220301000004800NNMD0420220203151854    1N0N  0000024000000068640000090141200    YCYC    005500360039
BI00A1200    2399T52114     202202047289-3342                HOUSING FEMALE ASS'Y     PCN000002400000002400FN00000000020220301000002400NNMD0420220203145903    1N0N  0000024000000068640000090141200    YCYC    005500360039
BI00A1200    2399T52115     202202047289-3342                HOUSING FEMALE ASS'Y     PCN000002400000002400FN00000000020220301000002400NNMD0420220203145915    1N0N  0000024000000068640000090141200    YCYC    005500360039
BI00A1200    2399T52116     202202047289-3342                HOUSING FEMALE ASS'Y     PCN000002400000002400FN00000000020220301000002400NNMD0420220203145936    1N0N  0000024000000068640000090141200    YCYC    005500360039
BI00A1200    2399T52114     202202227289-5979-30             HOUSING FEMALE ASS'Y     PCN000064512000003024FN00000000020220301000003024NNMM0020220203164655    1N0N  0000002520000085470000106471200    YCYC    005400370024
BI00A1200    2399T52114     202203017289-5979-30             HOUSING FEMALE ASS'Y     PCN000021420000012096FN00000000020220301000012096NNMM0020220203164916    1N0N  0000002520000085470000106471200    YCYC    005400370024
BI00B1200    2399T52215     202203037289-3342                HOUSING FEMALE ASS'Y     CCN000002400000002400FN00000000020220401000002400NNMD0020220203150403    1N0N  0000024000000068640000090141200    YCYC    005500360039
BI00B1200    2399T52216     202203107289-3342                HOUSING FEMALE ASS'Y     CCN000002400000002400FN00000000020220401000002400NNMD0020220203150416    1N0N  0000024000000068640000090141200    YCYC    005500360039
BI00B1200    2399T52228     202202247196-0104-02             TERMINAL                 CCN000038000000038000FN00000000020220301000038000NNE   20220203131315    4P0P  0000380000000057000000095641200    YCYC    006400630017
BI00B1200    2399T52229     202203037196-0104-02             TERMINAL                 CCN000038000000038000FN00000000020220401000038000NNE   20220203131315    4P0P  0000380000000057000000095641200    YCYC    006400630017
BI00B1200    2399T52230     202203107196-0104-02             TERMINAL                 CCN000038000000038000FN00000000020220401000038000NNE   20220203131315    4P0P  0000380000000057000000095641200    YCYC    006400630017
BI00B1200    2399T52231     202203177196-0104-02             TERMINAL                 CCN000038000000038000FN00000000020220401000038000NNE   20220203131315    4P0P  0000380000000057000000095641200    YCYC    006400630017
BI00A1200    2399T52114     202202237289-5979-30             HOUSING FEMALE ASS'Y     PCN000004032000004032FN00000000020220301000004032NNMM0020220203164722    1N0N  0000002520000085470000106471200    YCYC    005400370024
BI00A1200    2399T52114     202202247289-5979-30             HOUSING FEMALE ASS'Y     PCN000004032000004032FN00000000020220301000004032NNMM0020220203164740    1N0N  0000002520000085470000106471200    YCYC    005400370024
BI00A1200    2399T52114     202202257289-5979-30             HOUSING FEMALE ASS'Y     PCN000004032000004032FN00000000020220301000004032NNMM0020220203164805    1N0N  0000002520000085470000106471200    YCYC    005400370024
BI00A1200    2399T52114     202202287289-5979-30             HOUSING FEMALE ASS'Y     PCN000002520000002520FN00000000020220301000002520NNMM0020220203164813    1N0N  0000002520000085470000106471200    YCYC    005400370024
BI00A1200    2399T52114     202203027289-5979-30             HOUSING FEMALE ASS'Y     PCN000001764000001764FN00000000020220301000001764NNMM0020220203164954    1N0N  0000002520000085470000106471200    YCYC    005400370024
BI00A1200    2399T52114     202203037289-5979-30             HOUSING FEMALE ASS'Y     PCN000004032000004032FN00000000020220301000004032NNMM0020220203165014    1N0N  0000002520000085470000106471200    YCYC    005400370024
BI00A1200    2399T52114     202203047289-5979-30             HOUSING FEMALE ASS'Y     PCN000003528000003528FN00000000020220301000003528NNMM0020220203165021    1N0N  0000002520000085470000106471200    YCYC    005400370024
BI00A1200    2399T51A22     202203077289-5979-30             HOUSING FEMALE ASS'Y     PCN000004032000004032FN00000000020211201000004032NNMM0020220203165224    1N0N  0000002520000085470000106471200    YCYC    005400370024
BI00A1200    2399T51A22     202203087289-5979-30             HOUSING FEMALE ASS'Y     PCN000004032000004032FN00000000020211201000004032NNMM0020220203165209    1N0N  0000002520000085470000106471200    YCYC    005400370024
BI00A1200    2399T51A22     202203097289-5979-30             HOUSING FEMALE ASS'Y     PCN000004032000004032FN00000000020211201000004032NNMM0020220203165244    1N0N  0000002520000085470000106471200    YCYC    005400370024
BI00A1200    2399T51A22     202203107289-5979-30             HOUSING FEMALE ASS'Y     PCN000004032000004032FN00000000020211201000004032NNMM0020220203165244    1N0N  0000002520000085470000106471200    YCYC    005400370024
BI00A1200    2399T51A22     202203117289-5979-30             HOUSING FEMALE ASS'Y     PCN000004032000004032FN00000000020211201000004032NNMM0020220203165257    1N0N  0000002520000085470000106471200    YCYC    005400370024
BI00B32AG    XG22052CMW     202204227327-6884-30             MULTI FUSE               CCN000004032000004032FN00000000020220501000004032NNMD0420220203131315    4N0N  00000028800000988900001154832AG    XGXGY   005400370024
BI00B32AG    XG22054CMW     202205067327-6884-30             MULTI FUSE               CCN000004032000004032FN00000000020220501000004032NNMD0420220203131315    4N0N  00000028800000988900001154832AG    XGXGY   005400370024
BI00B32AG    XG22055CMW     202205137327-6884-30             MULTI FUSE               CCN000004608000004608FN00000000020220501000004608NNMD0420220203131315    4N0N  00000028800000988900001154832AG    XGXGY   005400370024
BI00B32A7    ZZ22023BMW     202202107172-5403-30             SEALED PACKING           CCN000060000000060000FN00000000020220201000060000NNM00020220203154645    1C0C  00000400000000653600000701732A7    ZZZZY   004300270014
BI00B32A7    ZZ22023LMW     202202107172-5403-30             SEALED PACKING           CCN000036000000036000FN00000000020220201000036000NNM00020220203154700    1C0C  00000400000000653600000701732A7    ZZZZY   004300270014
BI00B32CC    CTA32051       202202017283-4855                CONNECTOR HOUSING        CCN000012000000012000FY00001200020220501000000000NNE00020220203134419    4N0N  00000240000001188400001400032CC    BIYABCBU005500360039
BI00B32CC    CTA32051       202202017289-3342-30             HOUSING FEMALE ASS'Y     CCN000024000000012000FY00001200020220501000000000NNE00020220203134346    1N0N  00000240000000686400000901432CC    BIYABCBU005500360039
BI00B32CC    CTA32051       202202027289-3342-30             HOUSING FEMALE ASS'Y     CCN000012000000012000FY00001200020220501000000000NNE00020220203134346    1N0N  00000240000000686400000901432CC    BIYABCBU005500360039
BI00B32CC    CTA32053       202202177158-3070-80             RUBBER STOPPER           CCN000040000000040000FN00000000020220601000040000NNE   20220203131315    1C0C  00004000000000276000000333332CC    BIYABCBU002700430014
BI00B32CC    CTA32053       202202177289-3342                HOUSING FEMALE ASS'Y     CCN000014400000014400FN00000000020220601000014400NNE   20220203131315    1N0N  00000240000000686400000901432CC    BIYABCBU005500360039
BI00B32CC    CTA32053       202202177289-3342-30             HOUSING FEMALE ASS'Y     CCN000016800000016800FN00000000020220601000016800NNE   20220203131315    1N0N  00000240000000686400000901432CC    BIYABCBU005500360039
BI00B32CC    #CTA32053      202202177283-8226-30             CONNECTOR                CCN000050000000050000FN00000000020220601000050000NNE   20220203131315    2N0N  00000200000000820000001008032CC    BIYABCBU005400370024
BI00B32CC    #CTA32053      202202177157-7812                SEAL RUBBER              CCN000020000000020000FN00000000020220601000020000NNE   20220203131315    2C0C  00001000000000137000000202032CC    BIYABCBU002700430014
BI00B32CC    CTA32054       202202177158-3167-80             WIRE SEAL                CCN000020000000020000FN00000000020220601000020000NNE   20220203131315    1C0C  00002000000000048000000109032CC    BIYABCBU002700430014
BI00B32CH    SJ22043 MW     202203177017-1182-02             TERMINAL                 CCN000090000000090000FN00000000020220401000090000NNM   20220203161115    4P0P  00004500000001165500001318632CH    SJSAMIJF005100280028
BI00B32CH    SJ22044 MW     202203247017-1182-02             TERMINAL                 CCN000090000000090000FN00000000020220401000090000NNM   20220203161115    4P0P  00004500000001165500001318632CH    SJSAMIJF005100280028
BI00B32CH    SJ22043 MW     202203177114-4020                TERMINAL                 CCN000021000000021000FN00000000020220401000021000NNM   20220203161115    4P0P  00002100000000875700001169332CH    SJSAMIJF006400630015
BI00B32CH    SJ22044 MW     202203247114-4020                TERMINAL                 CCN000021000000021000FN00000000020220401000021000NNM   20220203161115    4P0P  00002100000000875700001169332CH    SJSAMIJF006400630015
BI00B32CH    SJ22043 MW     202203177114-4030                TERMINAL                 CCN000010500000010500FN00000000020220401000010500NNM   20220203161115    4P0P  00001050000000926100001254732CH    SJSAMIJF006400630017
BI00B32CH    SJ22044 MW     202203247114-4030                TERMINAL                 CCN000010500000010500FN00000000020220401000010500NNM   20220203161115    4P0P  00001050000000926100001254732CH    SJSAMIJF006400630017
BI00B32CH    SJ22044 MW     202203247114-4032                TERMINAL                 CCN000015000000015000FN00000000020220401000015000NNM   20220203161115    4P0P  00000750000000735000001063632CH    SJSAMIJF006400630017
BI00B32CH    SJ22042 MW     202203107114-4111-02             TERMINAL                 CCN000012000000012000FN00000000020220401000012000NNM   20220203161115    4P0P  00001200000000758400001087032CH    SJSAMIJF006400630017
BI00B32CH    SJ22043 MW     202203177114-4111-02             TERMINAL                 CCN000012000000012000FN00000000020220401000012000NNM   20220203161115    4P0P  00001200000000758400001087032CH    SJSAMIJF006400630017
BI00B32CH    SJ22044 MW     202203247114-4111-02             TERMINAL                 CCN000012000000012000FN00000000020220401000012000NNM   20220203161115    4P0P  00001200000000758400001087032CH    SJSAMIJF006400630017
BI00B32CH    SJ22041 MW     202203037114-4112-02             TERMINAL                 CCN000009000000009000FN00000000020220401000009000NNM   20220203161115    4P0P  00000900000000598500000927132CH    SJSAMIJF006400630017
BI00B32CH    SJ22042 MW     202203107114-4112-02             TERMINAL                 CCN000009000000009000FN00000000020220401000009000NNM   20220203161115    4P0P  00000900000000598500000927132CH    SJSAMIJF006400630017
BI00B32CH    SJ22043 MW     202203177114-4112-02             TERMINAL                 CCN000009000000009000FN00000000020220401000009000NNM   20220203161115    4P0P  00000900000000598500000927132CH    SJSAMIJF006400630017
BI00B32CH    SJ22043 MW     202203177114-4728-02             TERMINAL                 CCN000060000000060000FN00000000020220401000060000NNM   20220203161115    4P0P  00003000000000510000000804232CH    SJSAMIJF006400630015
BI00B32CH    SJ22044 MW     202203247114-4728-02             TERMINAL                 CCN000120000000120000FN00000000020220401000120000NNM   20220203161115    4P0P  00003000000000510000000804232CH    SJSAMIJF006400630015
BI00B32CH    SJ22044 MW     202203247114-5746-02             TERMINAL                 CCN000042000000042000FN00000000020220401000042000NNM   20220203161115    4P0P  00002100000000695100000988732CH    SJSAMIJF006400630015
BI00B32CH    SJ22043 MW     202203177114-5747-02             TERMINAL                 CCN000018000000018000FN00000000020220401000018000NNM   20220203161115    4P0P  00001800000000626400000920032CH    SJSAMIJF006400630015
BI00B32CH    SJ22044 MW     202203247114-5747-02             TERMINAL                 CCN000072000000072000FN00000000020220401000072000NNM   20220203161115    4P0P  00001800000000626400000920032CH    SJSAMIJF006400630015
BI00B32CH    SJ22044 MW     202203247114-5748-02             TERMINAL                 CCN000012000000012000FN00000000020220401000012000NNM   20220203161115    4P0P  00001200000000444000000737632CH    SJSAMIJF006400630015
BI00B32CH    SJ22041 MW     202203037114-5753-02             TERMINAL                 CCN000027000000027000FN00000000020220401000027000NNM   20220203161115    4P0P  00002700000000847800001141432CH    SJSAMIJF006400630015
BI00B32CH    SJ22043 MW     202203177116-4020                TERMINAL                 CCN000013500000013500FN00000000020220401000013500NNM   20220203161115    4P0P  00001350000000513000000798232CH    SJSAMIJF006400630015
BI00B32CH    SJ22044 MW     202203247116-4020                TERMINAL                 CCN000013500000013500FN00000000020220401000013500NNM   20220203161115    4P0P  00001350000000513000000798232CH    SJSAMIJF006400630015
BI00B32CH    SJ22042 MW     202203107116-4025                TERMINAL                 CCN000016000000016000FN00000000020220401000016000NNM   20220203161115    4P0P  00001600000000644800000975132CH    SJSAMIJF006400630017
BI00B32CH    SJ22044 MW     202203247116-4025                TERMINAL                 CCN000016000000016000FN00000000020220401000016000NNM   20220203161115    4P0P  00001600000000644800000975132CH    SJSAMIJF006400630017
BI00B32CH    SJ22043 MW     202203177116-4028-08             TERMINAL FEMALE          CCN000032000000032000FN00000000020220401000032000NNM   20220203161115    4P0P  00001600000000652800000981532CH    SJSAMIJF006400630017
BI00B32CH    SJ22044 MW     202203247116-4028-08             TERMINAL FEMALE          CCN000144000000144000FN00000000020220401000144000NNM   20220203161115    4P0P  00001600000000652800000981532CH    SJSAMIJF006400630017
BI00B32CH    SJ22043 MW     202203177116-4031                TERMINAL                 CCN000015000000015000FN00000000020220401000015000NNM   20220203161115    4P0P  00000750000000619500000904732CH    SJSAMIJF006400630015
BI00B32CH    SJ22044 MW     202203247116-4031                TERMINAL                 CCN000015000000015000FN00000000020220401000015000NNM   20220203161115    4P0P  00000750000000619500000904732CH    SJSAMIJF006400630015
BI00B32CH    SJ22043 MW     202203177116-4032                TERMINAL                 CCN000030000000030000FN00000000020220401000030000NNM   20220203161115    4P0P  00000600000000532800000818032CH    SJSAMIJF006400630015
BI00B32CH    SJ22044 MW     202203247116-4032                TERMINAL                 CCN000072000000072000FN00000000020220401000072000NNM   20220203161115    4P0P  00000600000000532800000818032CH    SJSAMIJF006400630015
BI00B32CH    SJ22043 MW     202203177116-4037                TERMINAL                 CCN000042000000042000FN00000000020220401000042000NNM   20220203161115    4P0P  00000600000000600000000894232CH    SJSAMIJF006400630015
BI00B32CH    SJ22044 MW     202203247116-4037                TERMINAL                 CCN000030000000030000FN00000000020220401000030000NNM   20220203161115    4P0P  00000600000000600000000894232CH    SJSAMIJF006400630015
BI00B32CH    SJ22043 MW     202203177116-4231-02             TERMINAL                 CCN000052000000052000FN00000000020220401000052000NNM   20220203161115    4P0P  00002600000000683800001012532CH    SJSAMIJF006400630017
BI00B32CH    SJ22044 MW     202203247116-4231-02             TERMINAL                 CCN000052000000052000FN00000000020220401000052000NNM   20220203161115    4P0P  00002600000000683800001012532CH    SJSAMIJF006400630017
BI00B32CH    SJ22042 MW     202203107116-4486-02             TERMINAL                 CCN000028000000028000FN00000000020220401000028000NNM   20220203161115    4P0P  00002800000000666400000995132CH    SJSAMIJF006400630017
BI00B32CH    SJ22043 MW     202203177116-4486-02             TERMINAL                 CCN000112000000112000FN00000000020220401000112000NNM   20220203161115    4P0P  00002800000000666400000995132CH    SJSAMIJF006400630017
BI00B32CH    SJ22044 MW     202203247116-4486-02             TERMINAL                 CCN000056000000056000FN00000000020220401000056000NNM   20220203161115    4P0P  00002800000000666400000995132CH    SJSAMIJF006400630017
BI00B32CH    SJ22043 MW     202203177116-5041-02             TERMINAL                 CCN000240000000240000FN00000000020220401000240000NNM   20220203161115    4P0P  00001500000000583500000868732CH    SJSAMIJF006400630015
BI00B32CH    SJ22044 MW     202203247116-5041-02             TERMINAL                 CCN000315000000315000FN00000000020220401000315000NNM   20220203161115    4P0P  00001500000000583500000868732CH    SJSAMIJF006400630015
BI00B32CH    SJ22042 MW     202203107116-5042-02             TERMINAL                 CCN000081000000081000FN00000000020220401000081000NNM   20220203161115    4P0P  00001350000000560300000845532CH    SJSAMIJF006400630015
BI00B32CH    SJ22043 MW     202203177116-5042-02             TERMINAL                 CCN000202500000202500FN00000000020220401000202500NNM   20220203161115    4P0P  00001350000000560300000845532CH    SJSAMIJF006400630015
BI00B32CH    SJ22044 MW     202203247116-5042-02             TERMINAL                 CCN000216000000216000FN00000000020220401000216000NNM   20220203161115    4P0P  00001350000000560300000845532CH    SJSAMIJF006400630015
BI00B32CH    SJ22043 MW     202203177116-5043-02             TERMINAL FEMALE          CCN000072000000072000FN00000000020220401000072000NNM   20220203161115    4P0P  00001200000000559200000844432CH    SJSAMIJF006400630015
BI00B32CH    SJ22044 MW     202203247116-5043-02             TERMINAL FEMALE          CCN000144000000144000FN00000000020220401000144000NNM   20220203161115    4P0P  00001200000000559200000844432CH    SJSAMIJF006400630015
BI00B32CH    SJ22043 MW     202203177116-5044-02             TERMINAL                 CCN000400000000400000FN00000000020220401000400000NNM   20220203161115    4P0P  00001600000000641600000986332CH    SJSAMIJF006400630017
BI00B32CH    SJ22044 MW     202203247116-5044-02             TERMINAL                 CCN000432000000432000FN00000000020220401000432000NNM   20220203161115    4P0P  00001600000000641600000986332CH    SJSAMIJF006400630017
BI00B32CH    SJ22042 MW     202203107116-5045-02             TERMINAL                 CCN000064000000064000FN00000000020220401000064000NNM   20220203161115    4P0P  00001600000000678400001007132CH    SJSAMIJF006400630017
BI00B32CH    SJ22043 MW     202203177116-5045-02             TERMINAL                 CCN000272000000272000FN00000000020220401000272000NNM   20220203161115    4P0P  00001600000000678400001007132CH    SJSAMIJF006400630017
BI00B32CH    SJ22044 MW     202203247116-5045-02             TERMINAL                 CCN000224000000224000FN00000000020220401000224000NNM   20220203161115    4P0P  00001600000000678400001007132CH    SJSAMIJF006400630017
BI00B32CH    SJ22042 MW     202203107116-5046-02             TERMINAL                 CCN000012000000012000FN00000000020220401000012000NNM   20220203161115    4P0P  00001200000000544800000873532CH    SJSAMIJF006400630017
BI00B32CH    SJ22043 MW     202203177116-5046-02             TERMINAL                 CCN000012000000012000FN00000000020220401000012000NNM   20220203161115    4P0P  00001200000000544800000873532CH    SJSAMIJF006400630017
BI00B32CH    SJ22044 MW     202203247116-5046-02             TERMINAL                 CCN000012000000012000FN00000000020220401000012000NNM   20220203161115    4P0P  00001200000000544800000873532CH    SJSAMIJF006400630017
BI00B32CH    SJ22042 MW     202203107116-5750-02             TERMINAL                 CCN000150000000150000FN00000000020220401000150000NNM   20220203161115    4P0P  00001500000000457500000742732CH    SJSAMIJF006400630015
BI00B32CH    SJ22043 MW     202203177116-5750-02             TERMINAL                 CCN000525000000525000FN00000000020220401000525000NNM   20220203161115    4P0P  00001500000000457500000742732CH    SJSAMIJF006400630015
BI00B32CH    SJ22044 MW     202203247116-5750-02             TERMINAL                 CCN000600000000600000FN00000000020220401000600000NNM   20220203161115    4P0P  00001500000000457500000742732CH    SJSAMIJF006400630015
BI00B32CH    SJ22041 MW     202203037116-5752-02             TERMINAL                 CCN000105000000105000FN00000000020220401000105000NNM   20220203161115    4P0P  00002100000000571200000856432CH    SJSAMIJF006400630015
BI00B32CH    SJ22042 MW     202203107116-5752-02             TERMINAL                 CCN000063000000063000FN00000000020220401000063000NNM   20220203161115    4P0P  00002100000000571200000856432CH    SJSAMIJF006400630015
BI00B32CH    SJ22043 MW     202203177116-5752-02             TERMINAL                 CCN000084000000084000FN00000000020220401000084000NNM   20220203161115    4P0P  00002100000000571200000856432CH    SJSAMIJF006400630015
BI00B32CH    SJ22044 MW     202203247116-5752-02             TERMINAL                 CCN000084000000084000FN00000000020220401000084000NNM   20220203161115    4P0P  00002100000000571200000856432CH    SJSAMIJF006400630015
BI00B32CH    SJ22044 MW     202203247126-8853-02             TERMINAL                 CCN000015000000015000FN00000000020220401000015000NNM   20220203161115    4P0P  00000750000000562500000847732CH    SJSAMIJF006400630015
BI00B32CH    SJ22044 MW     202203247126-8854-02             TERMINAL                 CCN000277500000277500FN00000000020220401000277500NNM   20220203161115    4P0P  00000750000000604500000889732CH    SJSAMIJF006400630015
BI00B32CH    SJ22042 MW     202203107126-8855-02             TERMINAL                 CCN000024000000024000FN00000000020220401000024000NNM   20220203161115    4P0P  00000600000000510600000795832CH    SJSAMIJF006400630015
BI00B32CH    SJ22043 MW     202203177126-8855-02             TERMINAL                 CCN000126000000126000FN00000000020220401000126000NNM   20220203161115    4P0P  00000600000000510600000795832CH    SJSAMIJF006400630015
BI00B32CH    SJ22044 MW     202203247126-8855-02             TERMINAL                 CCN000090000000090000FN00000000020220401000090000NNM   20220203161115    4P0P  00000600000000510600000795832CH    SJSAMIJF006400630015
BI00B32CH    SJ22043 MW     202203177158-3006-90             RUBBER STOPPER           CCN000320000000320000FN00000000020220401000320000NNM   20220203161115    1C0C  00002000000000330600000386032CH    SJSAMIJF002700430014
BI00B32CH    SJ22044 MW     202203247158-3006-90             RUBBER STOPPER           CCN000480000000480000FN00000000020220401000480000NNM   20220203161115    1C0C  00002000000000330600000386032CH    SJSAMIJF002700430014
BI00B32CH    SJ22042 MW     202203107158-3009-60             RUBBER STOPPER           CCN000100000000100000FN00000000020220401000100000NNM   20220203161115    1C0C  00002000000000338000000386232CH    SJSAMIJF002700430014
BI00B32CH    SJ22043 MW     202203177158-3009-60             RUBBER STOPPER           CCN000340000000340000FN00000000020220401000340000NNM   20220203161115    1C0C  00002000000000338000000386232CH    SJSAMIJF002700430014
BI00B32CH    SJ22044 MW     202203247158-3009-60             RUBBER STOPPER           CCN000200000000200000FN00000000020220401000200000NNM   20220203161115    1C0C  00002000000000338000000386232CH    SJSAMIJF002700430014
BI00B32CH    SJ22042 MW     202203107158-3022-80             RUBBER STOPPER           CCN000010000000010000FN00000000020220401000010000NNM   20220203161115    1C0C  00000500000000467500000524032CH    SJSAMIJF002700430014
BI00B32CH    SJ22043 MW     202203177158-3022-80             RUBBER STOPPER           CCN000005000000005000FN00000000020220401000005000NNM   20220203161115    1C0C  00000500000000467500000524032CH    SJSAMIJF002700430014
BI00B32CH    SJ22044 MW     202203247158-3022-80             RUBBER STOPPER           CCN000005000000005000FN00000000020220401000005000NNM   20220203161115    1C0C  00000500000000467500000524032CH    SJSAMIJF002700430014
BI00B32CH    SJ22043 MW     202203177172-5540-80             SEALED WIRE SEAL         CCN000020000000020000FN00000000020220401000020000NNM   20220203161115    1C0C  00002000000000186000000234432CH    SJSAMIJF004300270014
BI00B32CH    SJ22042 MW     202203107196-0805-02             TERMINAL FEMALE          CCN000022500000022500FN00000000020220401000022500NNM   20220203161115    4P0P  00002250000000558000000843232CH    SJSAMIJF006400630015
BI00B32CH    SJ22044 MW     202203247283-4576                HOUSING FEMALE ASS'Y     CCN000004800000004800FN00000000020220401000004800NNM   20220203161115    4N0N  00000480000000651300000871332CH    SJSAMIJF005500360039
BI00B32CH    SJ22043 MW     202203177327-6832-60             MAIN FUSE                CCN000008400000008400FN00000000020220401000008400NNM   20220203161115    4N0N  00000060000000729200000930732CH    SJSAMIJF005400370024
BI00B32CH    SJ22044 MW     202203247327-6832-60             MAIN FUSE                CCN000012600000012600FN00000000020220401000012600NNM   20220203161115    4N0N  00000060000000729200000930732CH    SJSAMIJF005400370024
BI00B32CH    SJ22044 MW     202203247388-0314                CONNECTOR ASS'Y          CCN000003600000003600FN00000000020220401000003600NNM   20220203161115    4N0N  00000120000001038000001132332CH    SJSAMIJF005400370024
BI00B32CH    #SJ22044 MW    202203247116-4021                TERMINAL                 CCN000013500000013500FN00000000020220401000013500NNM   20220203161057    2F0P  00001350000000534600000868832CH    SJSAMIJF006400630015
BI00B32CH    #SJ22044 MW    202203247157-3950-80             SEAL RUBBER              CCN000040000000040000FN00000000020220401000040000NNM   20220203161057    2C0C  00004000000000154000000440332CH    SJSAMIJF002700430014
BI00B32CH    #SJ22043 MW    202203177158-3003-90             RUBBER STOPPER           CCN000120000000120000FN00000000020220401000120000NNM   20220203161057    2C0C  00002000000000250000000306032CH    SJSAMIJF002700430014
BI00B32CH    #SJ22044 MW    202203247158-3003-90             RUBBER STOPPER           CCN000120000000120000FN00000000020220401000120000NNM   20220203161057    2C0C  00002000000000250000000306032CH    SJSAMIJF002700430014
BI00B32CH    #SJ22044 MW    202203247158-3007-10             RUBBER STOPPER           CCN000020000000020000FN00000000020220401000020000NNM   20220203161057    2H0H  00002000000000308000000362732CH    SJSAMIJF002700430014
BI00B32CH    #SJ22043 MW    202203177158-3008-80             RUBBER STOPPER           CCN000020000000020000FN00000000020220401000020000NNM   20220203161057    2C0C  00002000000000288000000343032CH    SJSAMIJF004300270014
BI00B32CH    #SJ22044 MW    202203247158-3015-10             RUBBER STOPPER           CCN000010000000010000FN00000000020220401000010000NNM   20220203161057    2C0C  00001000000000419500000474032CH    SJSAMIJF002700430014
BI00B32CH    #SJ22043 MW    202203177183-1615                HOUSING                  CCN000004800000004800FN00000000020220401000004800NNM   20220203161057    2F0F  00000480000000757000001042032CH    SJSAMIJF005500360039
BI00B32CH    #SJ22044 MW    202203247183-1615                HOUSING                  CCN000009600000009600FN00000000020220401000009600NNM   20220203161057    2F0F  00000480000000757000001042032CH    SJSAMIJF005500360039
BI00B32CH    #SJ22042 MW    202203107183-2414                CONNECTOR HOUSING        CCN000014400000014400FN00000000020220401000014400NNM   20220203161057    2F0F  00000480000000779200001061032CH    SJSAMIJF005500360039
BI00B32CH    #SJ22043 MW    202203177183-2414                CONNECTOR HOUSING        CCN000033600000033600FN00000000020220401000033600NNM   20220203161057    2F0F  00000480000000779200001061032CH    SJSAMIJF005500360039
BI00B32CH    #SJ22044 MW    202203247183-2414                CONNECTOR HOUSING        CCN000033600000033600FN00000000020220401000033600NNM   20220203161057    2F0F  00000480000000779200001061032CH    SJSAMIJF005500360039
BI00B32CH    #SJ22042 MW    202203107183-2418                CONNECTOR HOUSING        CCN000004800000004800FN00000000020220401000004800NNM   20220203161057    2F0F  00000480000000917000001477032CH    SJSAMIJF005500360039
BI00B32CH    #SJ22043 MW    202203177183-2418                CONNECTOR HOUSING        CCN000004800000004800FN00000000020220401000004800NNM   20220203161057    2F0F  00000480000000917000001477032CH    SJSAMIJF005500360039
BI00B32CH    #SJ22044 MW    202203247183-2418                CONNECTOR HOUSING        CCN000004800000004800FN00000000020220401000004800NNM   20220203161057    2F0F  00000480000000917000001477032CH    SJSAMIJF005500360039
BI00B32CH    #SJ22044 MW    202203247198-1371-60             HOUSING FEMALE           CCN000006000000006000FN00000000020220401000006000NNM   20220203161057    2F0F  00000200000000597800000721232CH    SJSAMIJF005400370024
BI00B32CH    @SJ22043 MW    202203177123-2825                HOUSING                  CCN000012000000012000FN00000000020220401000012000NNM   20220203161107    3F0F  00000600000000958800001136432CH    SJSAMIJF005500360039
BI00B32CH    @SJ22044 MW    202203247123-2825                HOUSING                  CCN000012000000012000FN00000000020220401000012000NNM   20220203161107    3F0F  00000600000000958800001136432CH    SJSAMIJF005500360039
BI00B32CH    SJ22043DMW     202203177114-4624-02             TERMINAL                 CCN000024000000024000FN00000000020220401000024000NNM   20220203161142    4P0P  00002400000000895200001188832CH    SJSAMIJF006400630015
BI00B32CH    SJ22043DMW     202203177116-5751-02             TERMINAL                 CCN000012000000012000FN00000000020220401000012000NNM   20220203161142    4P0P  00001200000000379200000664432CH    SJSAMIJF006400630015
BI00B32CH    SJ22044DMW     202203247116-5751-02             TERMINAL                 CCN000048000000048000FN00000000020220401000048000NNM   20220203161142    4P0P  00001200000000379200000664432CH    SJSAMIJF006400630015
BI00B32CH    SJ22042DMW     202203107287-3885-30             HYBRID FEMALE ASS'Y      CCN000004800000004800FN00000000020220401000004800NNM   20220203161142    1N0N  00000240000001029600001249632CH    SJSAMIJF005500360039
BI00B32CH    SJ22043DMW     202203177287-3885-30             HYBRID FEMALE ASS'Y      CCN000024000000024000FN00000000020220401000024000NNM   20220203161142    1N0N  00000240000001029600001249632CH    SJSAMIJF005500360039
BI00B32CH    SJ22044DMW     202203247287-3885-30             HYBRID FEMALE ASS'Y      CCN000031200000031200FN00000000020220401000031200NNM   20220203161142    1N0N  00000240000001029600001249632CH    SJSAMIJF005500360039
BI00B32CH    #SJ22044DMW    202203247183-0522                HOUSING                  CCN000009600000009600FN00000000020220401000009600NNM   20220203161135    2F0F  00000240000000951000001230032CH    SJSAMIJF005500360039
BI00B32CH    #SJ22043DMW    202203177183-2413                CONNECTOR HOUSING        CCN000004800000004800FN00000000020220401000004800NNM   20220203161135    2F0F  00000480000000478100000760032CH    SJSAMIJF005500360039
BI00B32CH    #SJ22044DMW    202203247183-2413                CONNECTOR HOUSING        CCN000024000000024000FN00000000020220401000024000NNM   20220203161135    2F0F  00000480000000478100000760032CH    SJSAMIJF005500360039
BI00B32CH    #SJ22044DMW    202203247183-2415                CONNECTOR HOUSING        CCN000014400000014400FN00000000020220401000014400NNM   20220203161135    2F0F  00000480000000798200001091432CH    SJSAMIJF005500360039
BI00B32CH    #SJ22044DMW    202203247183-6320                HOUSING                  CCN000004800000004800FN00000000020220401000004800NNM   20220203161135    2F0F  00000480000000820800001103632CH    SJSAMIJF005500360039
BI00B32CH    #SJ22043DMW    202203177189-3031                HOUSING FEMALE           CCN000002400000002400FN00000000020220401000002400NNM   20220203161135    2F0F  00000240000000928800001365832CH    SJSAMIJF005500360039
BI00B32CH    #SJ22044DMW    202203247189-3031                HOUSING FEMALE           CCN000009600000009600FN00000000020220401000009600NNM   20220203161135    2F0F  00000240000000928800001365832CH    SJSAMIJF005500360039
BI00B32CH    #SJ22044DMW    202203247283-8730-30             HOUSING FEMALE ASS'Y     CCN000006000000006000FN00000000020220401000006000NNM   20220203161135    2N0N  00000200000000794000000906532CH    SJSAMIJF005400370024
BI00B32CH    #SJ22043DMW    202203177289-2912-30             HOUSING FEMALE ASS'Y     CCN000002000000002000FN00000000020220401000002000NNM   20220203161135    2N0N  00000200000000804000000929032CH    SJSAMIJF005400370024
BI00B32CH    #SJ22044DMW    202203247289-2912-30             HOUSING FEMALE ASS'Y     CCN000006000000006000FN00000000020220401000006000NNM   20220203161135    2N0N  00000200000000804000000929032CH    SJSAMIJF005400370024
BI00B32CH    #SJ22044DMW    202203247289-2913-30             HOUSING FEMALE ASS'Y     CCN000007500000007500FN00000000020220401000007500NNM   20220203161135    2N0N  00000150000000907500001034532CH    SJSAMIJF005400360024
BI00B32CH    #SJ22043DMW    202203177289-2918-40             HOUSING FEMALE ASS'Y     CCN000004000000004000FN00000000020220401000004000NNM   20220203161135    2N0N  00000100000001020000001147032CH    SJSAMIJF005400360024
BI00B32CH    #SJ22044DMW    202203247289-2918-40             HOUSING FEMALE ASS'Y     CCN000011000000011000FN00000000020220401000011000NNM   20220203161135    2N0N  00000100000001020000001147032CH    SJSAMIJF005400360024
BI00B32CH    SJ22044HMW     202203247B72-5540-80             SEALED WIRE SEAL         CCN000020000000020000FN00000000020220401000020000NNM   20220203161209    1C0C  00002000000000186000000234432CH    SJSAMIJF004300270014
BI00B32CH    SJ22044HMW     202203247B96-0805-02             TERMINAL FEMALE          CCN000045000000045000FN00000000020220401000045000NNM   20220203161209    4P0P  00002250000000558000000843232CH    SJSAMIJF006400630015
BI00B32CH    SJ22044HMW     202203247C89-6868-30             SEALED ASSY FEMALE       CCN000012600000012600FN00000000020220401000012600NNM   20220203161209    4N0N  00000252000000839200001119232CH    SJSAMIJF005500360039
BI00B32CH    SJ22044HMW     202203247158-3168-80             SEALED                   CCN000010000000020000FN00000000020220401000020000NNM   20220203161209    1C0C  00002000000000044000000092132CH    SJSAMIJF004300260014
BI00B32CH    SJ22043HMW     202203177298-3822-70             HOUSING FEMALE ASS'Y     CCN000000900000002520FN00000000020220401000002520NNM   20220203161209    4N0N  00000252000000776200001077032CH    SJSAMIJF005500360039
BI00B32CH    SJ22044HMW     202203247298-3822-70             HOUSING FEMALE ASS'Y     CCN000001100000002520FN00000000020220401000002520NNM   20220203161209    4N0N  00000252000000776200001077032CH    SJSAMIJF005500360039
BI00B32CH    SJ22041HMW     202203037298-4094-10             HOUSING FEMALE ASS'Y     CCN000003380000003380FN00000000020220401000003380NNM   20220203161209    4N0N  00000338000001097400001358732CH    SJSAMIJF005400370024
BI00B32CH    SJ22042HMW     202203107298-4094-10             HOUSING FEMALE ASS'Y     CCN000003380000003380FN00000000020220401000003380NNM   20220203161209    4N0N  00000338000001097400001358732CH    SJSAMIJF005400370024
BI00B32CH    SJ22043HMW     202203177298-4094-10             HOUSING FEMALE ASS'Y     CCN000003380000003380FN00000000020220401000003380NNM   20220203161209    4N0N  00000338000001097400001358732CH    SJSAMIJF005400370024
BI00B32CH    SJ22043HMW     202203177298-5993-30             SEALED ASSY FEMALE       CCN000002184000002184FN00000000020220401000002184NNM   20220203161209    4N0N  00000218400000981500001290032CH    SJSAMIJF005500360039
BI00B32CH    SJ22044HMW     202203247298-5993-30             SEALED ASSY FEMALE       CCN000002184000002184FN00000000020220401000002184NNM   20220203161209    4N0N  00000218400000981500001290032CH    SJSAMIJF005500360039
BI00B32CH    SJ22043HMW     202203177327-6870-30             MULTI FUSE               CCN000008928000008928FN00000000020220401000008928NNM   20220203161209    4N0N  00000028800001015200001181132CH    SJSAMIJF005400370024
BI00B32CH    SJ22044HMW     202203247327-6870-30             MULTI FUSE               CCN000013536000013536FN00000000020220401000013536NNM   20220203161209    4N0N  00000028800001015200001181132CH    SJSAMIJF005400370024
BI00B32CH    SJ22043HMW     202203177327-6880-30             MULTI FUSE               CCN000006336000006336FN00000000020220401000006336NNM   20220203161209    4N0N  00000028800001012600001178532CH    SJSAMIJF005400370024
BI00B32CH    SJ22044HMW     202203247327-6880-30             MULTI FUSE               CCN000012960000012960FN00000000020220401000012960NNM   20220203161209    4N0N  00000028800001012600001178532CH    SJSAMIJF005400370024
BI00B32CH    SJ22042HMW     202203107327-6884-30             MULTI FUSE               CCN000003168000003168FN00000000020220401000003168NNM   20220203161209    4N0N  00000028800000988900001154832CH    SJSAMIJF005400370024
BI00B32CH    SJ22043HMW     202203177327-6884-30             MULTI FUSE               CCN000027072000027072FN00000000020220401000027072NNM   20220203161209    4N0N  00000028800000988900001154832CH    SJSAMIJF005400370024
BI00B32CH    SJ22044HMW     202203247327-6884-30             MULTI FUSE               CCN000020736000020736FN00000000020220401000020736NNM   20220203161209    4N0N  00000028800000988900001154832CH    SJSAMIJF005400370024
BI00B32CH    SJ22041HMW     202203037327-6908                MAIN FUSE                CCN000000600000000600FN00000000020220401000000600NNM   20220203161209    4N0N  00000060000000730400000915432CH    SJSAMIJF005400370024
BI00B32CH    SJ22042HMW     202203107327-6908                MAIN FUSE                CCN000001200000001200FN00000000020220401000001200NNM   20220203161209    4N0N  00000060000000730400000915432CH    SJSAMIJF005400370024
BI00B32CH    SJ22043HMW     202203177327-6908                MAIN FUSE                CCN000000600000000600FN00000000020220401000000600NNM   20220203161209    4N0N  00000060000000730400000915432CH    SJSAMIJF005400370024
BI00B32CH    SJ22044HMW     202203247327-6908                MAIN FUSE                CCN000000600000000600FN00000000020220401000000600NNM   20220203161209    4N0N  00000060000000730400000915432CH    SJSAMIJF005400370024
BI00B32CH    SJ22041HMW     202203037327-6939-30             MULTI FUSE               CCN000000864000000864FN00000000020220401000000864NNM   20220203161209    4N00  00000028800000992200001158132CH    SJSAMIJF005400370024
BI00B32CH    SJ22042HMW     202203107327-6939-30             MULTI FUSE               CCN000000864000000864FN00000000020220401000000864NNM   20220203161209    4N00  00000028800000992200001158132CH    SJSAMIJF005400370024
BI00B32CH    SJ22043HMW     202203177327-6939-30             MULTI FUSE               CCN000000864000000864FN00000000020220401000000864NNM   20220203161209    4N00  00000028800000992200001158132CH    SJSAMIJF005400370024
BI00B32CH    SJ22044HMW     202203247327-6939-30             MULTI FUSE               CCN000000288000000288FN00000000020220401000000288NNM   20220203161209    4N00  00000028800000992200001158132CH    SJSAMIJF005400370024
BI00B32CH    SJ22041HMW     202203037327-6941-30             MULTI FUSE               CCN000000864000000864FN00000000020220401000000864NNM   20220203161209    4N00  00000028800001014400001180332CH    SJSAMIJF005400370024
BI00B32CH    SJ22042HMW     202203107327-6941-30             MULTI FUSE               CCN000000864000000864FN00000000020220401000000864NNM   20220203161209    4N00  00000028800001014400001180332CH    SJSAMIJF005400370024
BI00B32CH    SJ22043HMW     202203177327-6941-30             MULTI FUSE               CCN000000864000000864FN00000000020220401000000864NNM   20220203161209    4N00  00000028800001014400001180332CH    SJSAMIJF005400370024
BI00B32CH    SJ22044HMW     202203247327-6941-30             MULTI FUSE               CCN000000288000000288FN00000000020220401000000288NNM   20220203161209    4N00  00000028800001014400001180332CH    SJSAMIJF005400370024
BI00B32CH    #SJ22044HMW    202203247198-1372                HOUSING FEMALE           CCN000002000000002000FN00000000020220401000002000NNM   20220203161200    2F0F  00000200000000857200000982232CH    SJSAMIJF005400370024
BI00B32CH    #SJ22044HMW    202203247198-1373-60             HOUSING FEMALE           CCN000008000000008000FN00000000020220401000008000NNM   20220203161200    2F0F  00000200000000819400000947432CH    SJSAMIJF005400370024
BI00B32CH    #SJ22044HMW    202203247198-2458                HOUSING FEMALE           CCN000005280000005280FN00000000020220401000005280NNM   20220203161200    2F0F  00000176000000869100001160532CH    SJSAMIJF005400370024
BI00B32CH    #SJ22044HMW    202203247287-8860                HOUSING FEMALE ASS'Y     CCN000006400000006400FN00000000020220401000006400NNM   20220203161200    2N0N  00000160000000693400000853432CH    SJSAMIJF005400370024
BI00B32CH    #SJ22042HMW    202203107298-2457-90             LIF FEMALE ASSEMBLY      CCN000000168000000168FN00000000020220401000000168NNM   20220203161200    2N0N  00000016800000533300000728932CH    SJSAMIJF005400370024
BI00B32CH    #SJ22043HMW    202203177298-2457-90             LIF FEMALE ASSEMBLY      CCN000000840000000840FN00000000020220401000000840NNM   20220203161200    2N0N  00000016800000533300000728932CH    SJSAMIJF005400370024
BI00B32CH    #SJ22044HMW    202203247298-2457-90             LIF FEMALE ASSEMBLY      CCN000000336000000336FN00000000020220401000000336NNM   20220203161200    2N0N  00000016800000533300000728932CH    SJSAMIJF005400370024
BI00B32CH    #SJ22044HMW    202203247298-2459-60             LIF FEMALE ASSEMBLY      CCN000006384000006384FN00000000020220401000006384NNM   20220203161200    2N0N  00000016800000534000000729632CH    SJSAMIJF005400370024
BI00B32CH    SJ22042MMW     202203107116-4115-02             TERMINAL                 CCN000008400000008400FN00000000020220401000008400NNM   20220203161245    4P0P  00000840000000593000000881232CH    SJSAMIJF006400630015
BI00B32CH    #SJ22042MMW    202203107283-8123-30             CONNECTOR HOUSING        CCN000004000000004000FN00000000020220401000004000NNM   20220203161229    2N0N  00000400000000380000000530032CH    SJSAMIJF005600390023
BI00B32CH    #SJ22043MMW    202203177283-8123-30             CONNECTOR HOUSING        CCN000004000000004000FN00000000020220401000004000NNM   20220203161229    2N0N  00000400000000380000000530032CH    SJSAMIJF005600390023
BI00B32CH    SJ22042SMW     202203107288-3340-30             HOUSING MALE             CCN000006000000006000FN00000000020220401000006000NNM   20220203161319    4N0N  00000150000000861500001006432CH    SJSAMIJF005400370024
BI00B32CH    SJ22043SMW     202203177288-3340-30             HOUSING MALE             CCN000007500000007500FN00000000020220401000007500NNM   20220203161319    4N0N  00000150000000861500001006432CH    SJSAMIJF005400370024
BI00B32CH    SJ22044SMW     202203247288-3340-30             HOUSING MALE             CCN000003000000003000FN00000000020220401000003000NNM   20220203161319    4N0N  00000150000000861500001006432CH    SJSAMIJF005400370024
BI00B32CH    SJ22043SMW     202203177289-3342-30             HOUSING FEMALE ASS'Y     CCN000007200000007200FN00000000020220401000007200NNM   20220203161319    1N0N  00000240000000686400000901432CH    SJSAMIJF005500360039
BI00B32CH    SJ22044SMW     202203247289-3342-30             HOUSING FEMALE ASS'Y     CCN000004800000004800FN00000000020220401000004800NNM   20220203161319    1N0N  00000240000000686400000901432CH    SJSAMIJF005500360039
BI00B32CH    SJ22041SMW     202203037289-6868-30             SEALED ASSY FEMALE       CCN000002520000002520FN00000000020220401000002520NNM   20220203161319    4N0N  00000252000000839200001119232CH    SJSAMIJF005500360039
BI00B32CH    SJ22042SMW     202203107289-6868-30             SEALED ASSY FEMALE       CCN000002520000002520FN00000000020220401000002520NNM   20220203161319    4N0N  00000252000000839200001119232CH    SJSAMIJF005500360039
BI00B32CH    SJ22043SMW     202203177289-6868-30             SEALED ASSY FEMALE       CCN000002520000002520FN00000000020220401000002520NNM   20220203161319    4N0N  00000252000000839200001119232CH    SJSAMIJF005500360039
BI00B32CH    #SJ22043SMW    202203177157-7812                SEAL RUBBER              CCN000010000000010000FN00000000020220401000010000NNM   20220203161302    2C0C  00001000000000137000000202032CH    SJSAMIJF002700430014
BI00B32CH    #SJ22042SMW    202203107158-3120-90             CONNECTOR WIRE SEAL      CCN000020000000020000FN00000000020220401000020000NNM   20220203161302    2C0C  00002000000000136000000194032CH    SJSAMIJF002700430014
BI00B32CH    #SJ22043SMW    202203177158-3120-90             CONNECTOR WIRE SEAL      CCN000060000000060000FN00000000020220401000060000NNM   20220203161302    2C0C  00002000000000136000000194032CH    SJSAMIJF002700430014
BI00B32CH    #SJ22044SMW    202203247158-3120-90             CONNECTOR WIRE SEAL      CCN000040000000040000FN00000000020220401000040000NNM   20220203161302    2C0C  00002000000000136000000194032CH    SJSAMIJF002700430014
BI00B32CH    #SJ22043SMW    202203177158-3121-80             WIRE SEAL                CCN000020000000020000FN00000000020220401000020000NNM   20220203161302    2C0C  00002000000000118000000187332CH    SJSAMIJF002700430014
BI00B32CH    #SJ22042SMW    202203107189-3032                HOUSING FEMALE           CCN000001600000001600FN00000000020220401000001600NNM   20220203161302    2F0F  00000160000000788400001018432CH    SJSAMIJF005500360039
BI00B32CH    #SJ22043SMW    202203177189-3032                HOUSING FEMALE           CCN000001600000001600FN00000000020220401000001600NNM   20220203161302    2F0F  00000160000000788400001018432CH    SJSAMIJF005500360039
BI00B32CH    #SJ22041SMW    202203037289-2915-30             HOUSING FEMALE ASS'Y     CCN000001500000001500FN00000000020220401000001500NNM   20220203161302    2N0N  00000150000000964500001091532CH    SJSAMIJF005400360024
BI00B32CH    #SJ22042SMW    202203107289-2915-30             HOUSING FEMALE ASS'Y     CCN000001500000001500FN00000000020220401000001500NNM   20220203161302    2N0N  00000150000000964500001091532CH    SJSAMIJF005400360024
BI00B32CH    #SJ22043SMW    202203177289-2915-30             HOUSING FEMALE ASS'Y     CCN000001500000001500FN00000000020220401000001500NNM   20220203161302    2N0N  00000150000000964500001091532CH    SJSAMIJF005400360024
BI00B32DE    #TCT2024       202202107172-5629-80             RUBBER STOPPER           CCN000040000000040000FN00000000020220201000040000NNM00020220203154850    2H0H  00002000000000060000000111132DE    TVYEV-TV004300270014
BI00B32D2    DGTC2205       202202107289-3342-30             HOUSING FEMALE ASS'Y     CCN000007200000007200FN00000000020220201000007200NNM00020220203154917    1N0N  00000240000000686400000901432D2    TGYOT-G 005500360039
BI00B32D2    DGTC2206       202202107289-3342-30             HOUSING FEMALE ASS'Y     CCN000014400000014400FN00000000020220201000014400NNM00020220203154927    1N0N  00000240000000686400000901432D2    TGYOT-G 005500360039
BI00B32D2    DGTC2210       202202107289-3342-30             HOUSING FEMALE ASS'Y     CCN000036000000036000FN00000000020220301000036000NNM00020220203154939    1N0N  00000240000000686400000901432D2    TGYOT-G 005500360039
BI00B32D2    DGTC2215       202202177288-6547                CONNECTOR MALE ASS'Y     CCN000006000000006000FN00000000020220401000006000NNMD0020220203131315    4N0N  00000075000001205300001340332D2    TGYOT-G 005400370024
BI00B32D2    DGTC2215       202202177289-3342                HOUSING FEMALE ASS'Y     CCN000031200000031200FN00000000020220401000031200NNMD0020220203131315    1N0N  00000240000000686400000901432D2    TGYOT-G 005500360039
BI00B32D2    DGTC2215       202202177289-3342-30             HOUSING FEMALE ASS'Y     CCN000007200000007200FN00000000020220401000007200NNMD0020220203131315    1N0N  00000240000000686400000901432D2    TGYOT-G 005500360039
BI00B32D2    DGTC2215       202202177289-3342-40             HOUSING FEMALE ASS'Y     CCN000009600000009600FN00000000020220401000009600NNMD0020220203131315    1N0N  00000240000000686400000901432D2    TGYOT-G 005500360039
BI00B32D2    DGTC2215       202202177289-3342-90             HOUSING FEMALE ASS'Y     CCN000012000000012000FN00000000020220401000012000NNMD0020220203131315    1N0N  00000240000000686400000901432D2    TGYOT-G 005500360039
BI00B32D2    DGTC2215       202202177289-6547                HOUSING FEMALE ASS'Y     CCN000004800000004800FN00000000020220401000004800NNMD0020220203131315    1N0N  00000240000001152000001362032D2    TGYOT-G 005500360039
BI00B32D2    DGTC2215       202202177327-6801-3W             BATTERY FUSE             CCN000001344000001344FN00000000020220401000001344NNMD0020220203131315    4N0N  00000009600000928400001143432D2    TGYOT-G 005500360039
BI00B32D2    DGTC2215       202202177327-6806                MULTI FUSE               CCN000001680000001680FN00000000020220401000001680NNMD0020220203131315    4N0N  00000056000000851500001063932D2    TGYOT-G 005400370024
BI00B32D2    DGTC2215       202202177327-6809                MULTI FUSE               CCN000002800000002800FN00000000020220401000002800NNMD0020220203131315    4N0N  00000056000000849300001061732D2    TGYOT-G 005400370024
BI00B32D2    DGTC2215       202202177327-6930                MULTI FUSE               CCN000001120000001120FN00000000020220401000001120NNMD0020220203131315    4N0N  00000056000000848900001031932D2    TGYOT-G 005400370024
BI00B32D9    I20401         202202047289-3342-30             HOUSING FEMALE ASS'Y     CCN000079200000079200FN00000000020220101000079200NNM00020220203154758    1N0N  00000240000000686400000901432D9    UEHESTO 005500360039
BI00A32D9    I223A          202203187289-6547                HOUSING FEMALE ASS'Y     CCN000004800000004800FN00000000020220201000004800NNED0220220203131315    1N0N  00000240000001152000001362032D9    UEHESTO 005500360039
BI00B32EJ    4500186235     202201317158-3070-80             RUBBER STOPPER           CCN000040000000040000FY00004000020220101000000000NNE00020220203103408EJ  1C0C  00004000000000276000000333332EJ    EJYKBO  002700430014
BI00B32EJ    4500186235     202201317B58-3070-80             RUBBER STOPPER           CCN000040000000040000FY00004000020220101000000000NNE00020220203103408EJ  1C0C  00004000000000276000000333032EJ    EJYKBO  004300270014
BI00B32G2    @SA22031 MW    202202097282-1160-40             CONNECTOR MALE ASS'Y     CCN000000800000000800FN00000000020220301000000800NNMD0620220203131315    3N0N  00000080000000919800001133932G2    AISUAI  005500360039
BI00B32J1    390814         202202217158-3167-80             WIRE SEAL                CCN002640000002640000FN00000000020220201002640000NNMD0020220203162738    1C0C  00002000000000048000000109032J1    UKYEL-BL002700430014
BI00A32J1    391054         202202217298-1869-30             HOUSING FEMALE ASS'Y     CCN000006000000006000FN00000000020220201000006000NNE   20220203131315    4N0N  00000120000000737000000939832J1    UKYEL-BL005500360039
BI00B32M3    SM22023DMW     202202047172-5403-30             SEALED PACKING           CCN000064000000064000FN00000000020220201000064000NNMD0020220203154906    1C0C  00000400000000653600000701732M3    SASAMI  004300270014
BI00B32M3    SM22024DMW     202202047172-5403-30             SEALED PACKING           CCN000016000000016000FN00000000020220201000016000NNM00020220203154552    1C0C  00000400000000653600000701732M3    SASAMI  004300270014
BI00A32N1    #QA-22-C122    202202037282-5845                HOUSING MALE ASS'Y       PNY000006916000006196FY00000619620220201000000000NNEQ0020220203150638    2N0N  00000400000001068000001178032N1    TAYIPL  005400370024
BI00B32P8    #TAPI-2024     202202077172-5629-80             RUBBER STOPPER           CCN000260000000260000FN00000000020220201000260000NNMD0020220203154341    2H0H  00002000000000060000000111132P8    YIYTM   004300270014
BI00A32Q8    EU22033 MW     202202047158-3022-80             RUBBER STOPPER           CCN000010000000010000FN00000000020220301000010000NNMM0020220203182220    1C0C  00000500000000467500000524032Q8    EMEMI   002700430014
BI00B32Q8    #EU22031 MW    202202097158-3007-10             RUBBER STOPPER           CCN000380000000380000FN00000000020220301000380000NNM00020220203155749    2H0H  00002000000000308000000362732Q8    EMEMI   002700430014
BI00B32Q8    #EU22031TMW    202202097172-5630-40             RUBBER STOPPER           CCN000980000000980000FN00000000020220301000980000NNM00020220203155854    2H0H  00002000000000044000000095132Q8    EMEMI   004300270014
BI00B32Q8    #EU2203BTMW    202202097172-5629-80             RUBBER STOPPER           CCN000640000000640000FN00000000020220301000640000NNE00020220203155933    2H0H  00002000000000060000000111132Q8    EMEMI   004300270014
BI00B32Q8    EU2203DDMW     202203027C89-6868-30             SEALED ASSY FEMALE       CCN000020160000020160FN00000000020220301000020160NNED0420220203131315    4N0N  00000252000000839200001119232Q8    EMEMI   005500360039
BI00B32Q8    EU2203F MW     202203097283-5843                CONNECTOR                CCN000003000000003000FN00000000020220301000003000NNED0220220203131315    1N0N  00000150000000889000001132032Q8    EMEMI   005600390040
BI00B32Q8    EU2203GTMW     202203167283-4576-30             HOUSING FEMALE ASS'Y     CCN000004800000004800FN00000000020220301000004800NNED0220220203131315    4N0N  00000480000000651300000871332Q8    EMEMI   005500360039
BI00B32Q8    EU2203GTMW     202204067286-3885-40             CONNECTOR MALE ASS'Y     CCN000001200000001200FN00000000020220301000001200NNED0220220203131315    1N0N  00000120000000910600001130632Q8    EMEMI   005500360039
BI00B32Q8    EU2203GTMW     202203237287-1917-30             CONNECTOR FEMALE         CCN000009600000009600FN00000000020220301000009600NNED0220220203131315    4N0N  00000240000001060800001312532Q8    EMEMI   005500360039
BI00B32Q8    EU2203GTMW     202203097327-6801-3W             BATTERY FUSE             CCN000000096000000096FN00000000020220301000000096NNED0420220203131315    4N0N  00000009600000928400001143432Q8    EMEMI   005500360039
BI00B32Q8    EU2203GTMW     202203237327-6803                MULTI FUSE               CCN000003360000003360FN00000000020220301000003360NNED0420220203131315    4N0N  00000056000000854600001067032Q8    EMEMI   005400370024
BI00B32U5    #DI2001        202202077172-5630-40             RUBBER STOPPER           CCN000280000000280000FN00000000020220201000280000NNMD0720220203154037U5  2H0H  00002000000000044000000095132U5    AMAMSD  004300270014
BI00B32X5    TIB2007        202202047172-5403-30             SEALED PACKING           CCN000012000000012000FN00000000020220401000012000NNM00020220203154631X5  1C0C  00000400000000653600000701732X5    EPYNA-E 004300270014
BI00B32X5    #TIB2007       202202077172-5629-80             RUBBER STOPPER           CCN000440000000440000FN00000000020220401000440000NNMD0020220203153857X5  2H0H  00002000000000060000000111132X5    EPYNA-E 004300270014
BI00B32X5    #TIB2007       202202077172-5630-40             RUBBER STOPPER           CCN000240000000240000FN00000000020220401000240000NNM00020220203150629X5  2H0H  00002000000000044000000095132X5    EPYNA-E 004300270014
BI00B32X5    TIB2008        202202047172-5403-30             SEALED PACKING           CCN000020000000020000FN00000000020220401000020000NNM00020220203154612X5  1C0C  00000400000000653600000701732X5    EPYNA-E 004300270014
BI00B32X5    #TIB2008       202202077172-5630-40             RUBBER STOPPER           CCN000140000000140000FN00000000020220401000140000NNMD0020220203163141X5  2H0H  00002000000000044000000095132X5    EPYNA-E 004300270014
BI00B32X5    TIB2009        202202047172-5403-30             SEALED PACKING           CCN000020000000020000FN00000000020220401000020000NNM00020220203154620X5  1C0C  00000400000000653600000701732X5    EPYNA-E 004300270014
BI00B32Y2    TAU1181        202203107288-3206                HOUSING MALE ASS'Y       CCN000025500000008160FN00000000020220701000008160NNMD0420220203131315    1N0N  00000102000000387600000787632Y2    YUYUY   005500360039
BI00B32Y2    TAU1181        202203177288-3206                HOUSING MALE ASS'Y       CCN000008160000008160FN00000000020220701000008160NNMD0420220203131315    1N0N  00000102000000387600000787632Y2    YUYUY   005500360039
BI00B32Y2    TAU1181        202203247288-3206                HOUSING MALE ASS'Y       CCN000009180000009180FN00000000020220701000009180NNMD0420220203131315    1N0N  00000102000000387600000787632Y2    YUYUY   005500360039
BI00B32Y4    ITA32061       202203037158-3166-60             WIRE SEAL                CCN000360000000360000FN00000000020220601000360000NNE   20220203131315    1C0C  00004000000000104000000152432Y4    BIYAB-I 002700430014
BI00B32Y4    ITA32061       202203037158-3167-80             WIRE SEAL                CCN000320000000320000FN00000000020220601000320000NNE   20220203131315    1C0C  00002000000000048000000109032Y4    BIYAB-I 002700430014
BI00B32Y4    ITA32061       202203037158-3168-80             SEALED                   CCN000080000000080000FN00000000020220601000080000NNE   20220203131315    1C0C  00002000000000044000000092132Y4    BIYAB-I 004300260014
BI00B32Y4    ITA32061       202203037158-3169-40             SEALING PLUG             CCN000068000000080000FN00000000020220601000080000NNE   20220203131315    1C0C  00004000000000156000000204132Y4    BIYAB-I 004300260014
BI00B32Y4    ITA32061       202203037289-4696-30             HOUSING FEMALE ASS'Y     CCN000010000000010000FN00000000020220601000010000NNE   20220203131315    4N0N  00000200000000913400001055432Y4    BIYAB-I 005400370024
BI00B32Y4    ITA32061       202203037327-6654-3W             BATTERY FUSE             CCN000003450000003456FN00000000020220601000003456NNE   20220203131315    4N0N  00000009600001132300001312432Y4    BIYAB-I 005500360039
BI00B32Y4    #ITA32061      202203037158-3654-80             WIRE TUBE                CCN000012000000040000FN00000000020220601000040000NNE   20220203131315    2H0H  00004000000000104000000152232Y4    BIYAB-I 004300270014
BI00B32Y4    #ITA32061      202203037183-7725-40             HOUSING                  CCN000006000000006000FN00000000020220601000006000NNE   20220203131315    2F0F  00000600000000840000001040032Y4    BIYAB-I 005600390040
BI00B32Y4    ITA32063       202203177158-3166-60             WIRE SEAL                CCN000320000000320000FN00000000020220601000320000NNE   20220203131315    1C0C  00004000000000104000000152432Y4    BIYAB-I 002700430014
BI00B32Y4    ITA32063       202203177158-3167-80             WIRE SEAL                CCN000320000000320000FN00000000020220601000320000NNE   20220203131315    1C0C  00002000000000048000000109032Y4    BIYAB-I 002700430014
BI00B32Y4    ITA32063       202203177158-3168-80             SEALED                   CCN000080000000080000FN00000000020220601000080000NNE   20220203131315    1C0C  00002000000000044000000092132Y4    BIYAB-I 004300260014
BI00B32Y4    ITA32063       202203177289-4696-30             HOUSING FEMALE ASS'Y     CCN000010000000010000FN00000000020220601000010000NNE   20220203131315    4N0N  00000200000000913400001055432Y4    BIYAB-I 005400370024
BI00B32Y4    ITA32063       202203177327-6654-3W             BATTERY FUSE             CCN000003450000003456FN00000000020220601000003456NNE   20220203131315    4N0N  00000009600001132300001312432Y4    BIYAB-I 005500360039
BI00B32Y4    #ITA32063      202203177158-3654-80             WIRE TUBE                CCN000010000000040000FN00000000020220601000040000NNE   20220203131315    2H0H  00004000000000104000000152232Y4    BIYAB-I 004300270014
BI00B32Y5    TAT32061       202203157116-3153-02             TERMINAL FEMALE          CCN002214000002214000FN00000000020220601002214000NNM   20220203131315    4P0P  00002700000000459000000744232Y5    BZYBL   006400630015
BI00B32Y5    TAT32061       202203157116-3154-02             TERMINAL FEMALE          CCN000108000000108000FN00000000020220601000108000NNM   20220203131315    4P0P  00002700000000469800000755032Y5    BZYBL   006400630015
BI00B32Y5    TAT32061       202203157196-1325-02             TERMINAL FEMALE          CCN000900000000900000FN00000000020220601000900000NNM   20220203131315    4P0P  00006000000000450000000778732Y5    BZYBL   006400630017
BI00B32Y5    TAT32061       202203157196-1326-02             TERMINAL FEMALE          CCN001200000001200000FN00000000020220601001200000NNM   20220203131315    4P0P  00006000000000456000000784732Y5    BZYBL   006400630017
BI00B32Y5    TTA32071       202204057C89-3342-30             HOUSING FEMALE ASS'Y     CCN000002400000002400FN00000000020220701000002400NNM   20220203131315    1N0N  00000240000000686400000901432Y5    BZYBL   005500360039
BI00B32Y5    TTA32072       202204057C89-3342-30             HOUSING FEMALE ASS'Y     CCN000002400000002400FN00000000020220701000002400NNM   20220203131315    1N0N  00000240000000686400000901432Y5    BZYBL   005500360039
BI00B32Y5    TTA32073       202204197C89-3342-30             HOUSING FEMALE ASS'Y     CCN000002400000002400FN00000000020220701000002400NNM   20220203131315    1N0N  00000240000000686400000901432Y5    BZYBL   005500360039
BI00B32Y5    TTA32071       202204057196-0510-02             TERMINAL                 CCN000024000000024000FN00000000020220701000024000NNM   20220203131315    4P0P  00002400000000871200001034632Y5    BZYBL   002800510028
BI00B32Y5    TTA32071       202204057282-4576                HOUSING MALE ASS'Y       CCN000002400000002400FN00000000020220701000002400NNM   20220203131315    4N0N  00000240000000808800001028832Y5    BZYBL   005500360039
BI00B32Y5    TTA32072       202204057282-4576                HOUSING MALE ASS'Y       CCN000002400000002400FN00000000020220701000002400NNM   20220203131315    4N0N  00000240000000808800001028832Y5    BZYBL   005500360039
BI00B32Y5    TTA32073       202204197282-4576                HOUSING MALE ASS'Y       CCN000002400000002400FN00000000020220701000002400NNM   20220203131315    4N0N  00000240000000808800001028832Y5    BZYBL   005500360039
BI00B32Y5    TTA32074       202204197282-4576                HOUSING MALE ASS'Y       CCN000002400000002400FN00000000020220701000002400NNM   20220203131315    4N0N  00000240000000808800001028832Y5    BZYBL   005500360039
BI00B32Y5    TTA32073       202204197283-5845-40             CONNECTOR HOUSING        CCN000006000000006000FN00000000020220701000006000NNM   20220203131315    1N0N  00000600000000444000000606332Y5    BZYBL   005400370024
BI00B32Y5    TTA32071       202204057288-6547                CONNECTOR MALE ASS'Y     CCN000001500000001500FN00000000020220701000001500NNM   20220203131315    4N0N  00000075000001205300001340332Y5    BZYBL   005400370024
BI00B32Y5    TTA32072       202204057288-6547                CONNECTOR MALE ASS'Y     CCN000001500000001500FN00000000020220701000001500NNM   20220203131315    4N0N  00000075000001205300001340332Y5    BZYBL   005400370024
BI00B32Y5    TTA32073       202204197288-6547                CONNECTOR MALE ASS'Y     CCN000001500000001500FN00000000020220701000001500NNM   20220203131315    4N0N  00000075000001205300001340332Y5    BZYBL   005400370024
BI00B32Y5    TTA32074       202204197288-6547                CONNECTOR MALE ASS'Y     CCN000001500000001500FN00000000020220701000001500NNM   20220203131315    4N0N  00000075000001205300001340332Y5    BZYBL   005400370024
BI00B32Y5    TTA32071       202204057289-3342                HOUSING FEMALE ASS'Y     CCN000019200000019200FN00000000020220701000019200NNM   20220203131315    1N0N  00000240000000686400000901432Y5    BZYBL   005500360039
BI00B32Y5    TTA32072       202204057289-3342                HOUSING FEMALE ASS'Y     CCN000004800000004800FN00000000020220701000004800NNM   20220203131315    1N0N  00000240000000686400000901432Y5    BZYBL   005500360039
BI00B32Y5    TTA32073       202204197289-3342                HOUSING FEMALE ASS'Y     CCN000004800000004800FN00000000020220701000004800NNM   20220203131315    1N0N  00000240000000686400000901432Y5    BZYBL   005500360039
BI00B32Y5    TTA32074       202204197289-3342                HOUSING FEMALE ASS'Y     CCN000004800000004800FN00000000020220701000004800NNM   20220203131315    1N0N  00000240000000686400000901432Y5    BZYBL   005500360039
BI00B32Y5    TTA32071       202204057289-3342-30             HOUSING FEMALE ASS'Y     CCN000009600000009600FN00000000020220701000009600NNM   20220203131315    1N0N  00000240000000686400000901432Y5    BZYBL   005500360039
BI00B32Y5    TTA32072       202204057289-3342-30             HOUSING FEMALE ASS'Y     CCN000002400000002400FN00000000020220701000002400NNM   20220203131315    1N0N  00000240000000686400000901432Y5    BZYBL   005500360039
BI00B32Y5    TTA32073       202204197289-3342-30             HOUSING FEMALE ASS'Y     CCN000002400000002400FN00000000020220701000002400NNM   20220203131315    1N0N  00000240000000686400000901432Y5    BZYBL   005500360039
BI00B32Y5    TTA32074       202204197289-3342-30             HOUSING FEMALE ASS'Y     CCN000002400000002400FN00000000020220701000002400NNM   20220203131315    1N0N  00000240000000686400000901432Y5    BZYBL   005500360039
BI00B32Y5    TTA32071       202204057289-3342-40             HOUSING FEMALE ASS'Y     CCN000014400000014400FN00000000020220701000014400NNM   20220203131315    1N0N  00000240000000686400000901432Y5    BZYBL   005500360039
BI00B32Y5    TTA32072       202204057289-3342-40             HOUSING FEMALE ASS'Y     CCN000002400000002400FN00000000020220701000002400NNM   20220203131315    1N0N  00000240000000686400000901432Y5    BZYBL   005500360039
BI00B32Y5    TTA32073       202204197289-3342-40             HOUSING FEMALE ASS'Y     CCN000002400000002400FN00000000020220701000002400NNM   20220203131315    1N0N  00000240000000686400000901432Y5    BZYBL   005500360039
BI00B32Y5    TTA32074       202204197289-3342-40             HOUSING FEMALE ASS'Y     CCN000002400000002400FN00000000020220701000002400NNM   20220203131315    1N0N  00000240000000686400000901432Y5    BZYBL   005500360039
BI00B32Y5    TTA32071       202204057289-3342-90             HOUSING FEMALE ASS'Y     CCN000009600000009600FN00000000020220701000009600NNM   20220203131315    1N0N  00000240000000686400000901432Y5    BZYBL   005500360039
BI00B32Y5    TTA32072       202204057289-3342-90             HOUSING FEMALE ASS'Y     CCN000002400000002400FN00000000020220701000002400NNM   20220203131315    1N0N  00000240000000686400000901432Y5    BZYBL   005500360039
BI00B32Y5    TTA32073       202204197289-3342-90             HOUSING FEMALE ASS'Y     CCN000002400000002400FN00000000020220701000002400NNM   20220203131315    1N0N  00000240000000686400000901432Y5    BZYBL   005500360039
BI00B32Y5    TTA32074       202204197289-3342-90             HOUSING FEMALE ASS'Y     CCN000002400000002400FN00000000020220701000002400NNM   20220203131315    1N0N  00000240000000686400000901432Y5    BZYBL   005500360039
BI00B32Y5    TTA32071       202204057289-6547                HOUSING FEMALE ASS'Y     CCN000007200000007200FN00000000020220701000007200NNM   20220203131315    1N0N  00000240000001152000001362032Y5    BZYBL   005500360039
BI00B32Y5    TTA32072       202204057289-6547                HOUSING FEMALE ASS'Y     CCN000002400000002400FN00000000020220701000002400NNM   20220203131315    1N0N  00000240000001152000001362032Y5    BZYBL   005500360039
BI00B32Y5    TTA32073       202204197289-6547                HOUSING FEMALE ASS'Y     CCN000002400000002400FN00000000020220701000002400NNM   20220203131315    1N0N  00000240000001152000001362032Y5    BZYBL   005500360039
BI00B32Y5    TTA32074       202204197289-6547                HOUSING FEMALE ASS'Y     CCN000002400000002400FN00000000020220701000002400NNM   20220203131315    1N0N  00000240000001152000001362032Y5    BZYBL   005500360039
BI00B32Y6    STAP32061      202203037B72-5540-80             SEALED WIRE SEAL         CCN000040000000040000FN00000000020220601000040000NNM   20220203131315    1C0C  00002000000000186000000234432Y6    BSYBL-S 004300270014
BI00B32Y6    STAP32061      202203037B74-1849-70             COVER                    CCN000025000000025000FN00000000020220601000025000NNM   20220203131315    1F0F  00002500000000622500000761932Y6    BSYBL-S 005400370024
BI00B32Y6    STAP32061      202203037B96-0805-02             TERMINAL FEMALE          CCN000022500000022500FN00000000020220601000022500NNM   20220203131315    4P0P  00002250000000558000000843232Y6    BSYBL-S 006400630015
BI00B32Y6    STAP32061      202203037298-1145-4W             SQUIB SUB ASS'Y          CCN000020000000020000FN00000000020220601000020000NNM   20220203131315    4N0N  00001000000000787900000944932Y6    BSYBL-S 005400370024
BI00B32Y6    STAP32061      202203037017-1180-02             TERMINAL                 CCN000072000000072000FN00000000020220601000072000NNM   20220203131315    4P0P  00007200000001065600001229032Y6    BSYBL-S 005100280028
BI00B32Y6    STAP32061      202203037017-1181-02             TERMINAL                 CCN000063000000063000FN00000000020220601000063000NNM   20220203131315    4P0P  00006300000001089900001266832Y6    BSYBL-S 005100280028
BI00B32Y6    STAP32061      202203037116-1685-02             TERMINAL                 CCN000264000000264000FN00000000020220601000264000NNM   20220203131315    4P0P  00002400000000897600001065232Y6    BSYBL-S 005100280028
BI00B32Y6    STAP32061      202203037116-1686-02             TERMINAL                 CCN000063000000063000FN00000000020220601000063000NNM   20220203131315    4P0P  00002100000000869400001021632Y6    BSYBL-S 005100280028
BI00B32Y6    STAP32061      202203037116-5044-02             TERMINAL                 CCN000476000000480000FN00000000020220601000480000NNM   20220203131315    4P0P  00001600000000641600000986332Y6    BSYBL-S 006400630017
BI00B32Y6    STAP32061      202203037158-3009-60             RUBBER STOPPER           CCN000440000000440000FN00000000020220601000440000NNM   20220203131315    1C0C  00002000000000338000000386232Y6    BSYBL-S 002700430014
BI00B32Y6    STAP32061      202203037158-3022-80             RUBBER STOPPER           CCN000010000000010000FN00000000020220601000010000NNM   20220203131315    1C0C  00000500000000467500000524032Y6    BSYBL-S 002700430014
BI00B32Y6    STAP32061      202203037158-3165-90             WIRE SEAL                CCN000080000000080000FN00000000020220601000080000NNM   20220203131315    1C0C  00004000000000124000000172432Y6    BSYBL-S 004300270014
BI00B32Y6    STAP32061      202203037158-3166-60             WIRE SEAL                CCN000040000000040000FN00000000020220601000040000NNM   20220203131315    1C0C  00004000000000104000000152432Y6    BSYBL-S 002700430014
BI00B32Y6    STAP32061      202203037158-3169-40             SEALING PLUG             CCN000040000000040000FN00000000020220601000040000NNM   20220203131315    1C0C  00004000000000156000000204132Y6    BSYBL-S 004300260014
BI00B32Y6    STAP32061      202203037196-0396-02             TERMINAL                 CCN000030000000030000FN00000000020220601000030000NNM   20220203131315    4P0P  00001500000000949500001112932Y6    BSYBL-S 002800510028
BI00B32Y6    STAP32061      202203037196-1102-02             TERMINAL                 CCN000022500000022500FN00000000020220601000022500NNM   20220203131315    4P0P  00002250000000405000000690232Y6    BSYBL-S 006400630015
BI00B32Y6    STAP32061      202203037270-8994                6P MODULE ASSEMBLY       CCN000012200000012200FN00000000020220601000012200NNM   20220203131315    4J0J  00000010000001098600001298632Y6    BSYBL-S 005400370024
BI00B32Y6    STAP32061      202203037282-4578-30             HOUSING MALE ASS'Y       CCN000003600000003600FN00000000020220601000003600NNM   20220203131315    4N0N  00000120000000782600000992632Y6    BSYBL-S 005500360039
BI00B32Y6    STAP32061      202203037283-1928-80             CONNECTOR                CCN000008000000008000FN00000000020220601000008000NNM   20220203131315    4N0N  00000200000001180000001358332Y6    BSYBL-S 005500360039
BI00B32Y6    STAP32061      202203037283-4854-40             CONNECTOR HOUSING        CCN000004800000004800FN00000000020220601000004800NNM   20220203131315    4N0N  00000240000000694100000914132Y6    BSYBL-S 005500360039
BI00B32Y6    STAP32061      202203037286-1915                CONNECTOR SUB ASSY       CCN000009600000009600FN00000000020220601000009600NNM   20220203131315    4N0N  00000160000000965600001165632Y6    BSYBL-S 005500360039
BI00B32Y6    STAP32061      202203037287-1915-90             CONNECTOR ASS'Y          CCN000007200000007200FN00000000020220601000007200NNM   20220203131315    4N0N  00000240000000666500000923132Y6    BSYBL-S 005500360039
BI00B32Y6    STAP32061      202203037287-9323-40             UNSEALED HOUSING SUB     CCN000004800000004800FN00000000020220601000004800NNM   20220203131315    1N0N  00000240000000537600000690032Y6    BSYBL-S 005600390023
BI00B32Y6    STAP32061      202203037289-3342                HOUSING FEMALE ASS'Y     CCN000019200000019200FN00000000020220601000019200NNM   20220203131315    1N0N  00000240000000686400000901432Y6    BSYBL-S 005500360039
BI00B32Y6    STAP32061      202203037289-3342-30             HOUSING FEMALE ASS'Y     CCN000026400000026400FN00000000020220601000026400NNM   20220203131315    1N0N  00000240000000686400000901432Y6    BSYBL-S 005500360039
BI00B32Y6    STAP32061      202203037289-6868-30             SEALED ASSY FEMALE       CCN000010080000010080FN00000000020220601000010080NNM   20220203131315    4N0N  00000252000000839200001119232Y6    BSYBL-S 005500360039
BI00B32Y6    STAP32061      202203037298-1853-10             HOUSING FEMALE ASS'Y     CCN000009600000011700FN00000000020220601000011700NNM   20220203131315    4N00  00000390000001240500001405832Y6    BSYBL-S 005400370024
BI00B32Y6    STAP32061      202203037327-6581-3W             BATTERY FUSE             CCN000000144000000144FN00000000020220601000000144NNM   20220203131315    4N0N  00000007200001230000001422532Y6    BSYBL-S 005500360039
BI00B32Y6    STAP32061      202203037327-6731-3W             BATTERY FUSE             CCN000008640000008640FN00000000020220601000008640NNM   20220203131315    4N0N  00000006400000697600000843032Y6    BSYBL-S 005400370024
BI00B32Y6    STAP32061      202203037388-0313-30             CONNECTOR ASS'Y          CCN000002400000002400FN00000000020220601000002400NNM   20220203131315    4N0N  00000120000000995000001125032Y6    BSYBL-S 005400370024
BI00B32Y6    STAP32061      202203037388-0315-40             CONNECTOR ASS'Y          CCN000002600000003600FN00000000020220601000003600NNM   20220203131315    4N0N  00000120000000999600001129632Y6    BSYBL-S 005400370024
BI00B32Y6    STAP32061      202203037388-2978-30             HOUSING MALE ASS'Y       CCN000024480000024480FN00000000020220601000024480NNM   20220203131315    1N0N  00000048000000742000001122032Y6    BSYBL-S 005500360039
BI00B32Y6    #STAP32061     202203037154-5597-30             CASSETTE R/B             CCN000006400000006400FN00000000020220601000006400NNM   20220203131315    2F0F  00000080000000736000000952032Y6    BSYBL-S 005500360039
BI00B32Y6    #STAP32061     202203037158-3003-90             RUBBER STOPPER           CCN000140000000140000FN00000000020220601000140000NNM   20220203131315    2C0C  00002000000000250000000306032Y6    BSYBL-S 002700430014
BI00B32Y6    #STAP32061     202203037158-3005-80             RUBBER STOPPER           CCN000040000000040000FN00000000020220601000040000NNM   20220203131315    2H0H  00002000000000210000000268732Y6    BSYBL-S 002700430014
BI00B32Y6    #STAP32061     202203037158-3007-10             RUBBER STOPPER           CCN000040000000040000FN00000000020220601000040000NNM   20220203131315    2H0H  00002000000000308000000362732Y6    BSYBL-S 002700430014
BI00B32Y6    #STAP32061     202203037172-5626-90             RUBBER STOPPER           CCN000260000000260000FN00000000020220601000260000NNM   20220203131315    2H0H  00002000000000076400000127832Y6    BSYBL-S 004300270014
BI00B32Y6    #STAP32061     202203037172-5627-60             RUBBER STOPPER           CCN000100000000100000FN00000000020220601000100000NNM   20220203131315    2H0H  00002000000000070400000121832Y6    BSYBL-S 004300270014
BI00B32Y6    #STAP32061     202203037172-5628-80             DUMMY PLUG               CCN000060000000060000FN00000000020220601000060000NNM   20220203131315    2H0H  00002000000000110600000162032Y6    BSYBL-S 004300270014
BI00B32Y6    #STAP32061     202203037172-5629-80             RUBBER STOPPER           CCN000160000000160000FN00000000020220601000160000NNM   20220203131315    2H0H  00002000000000060000000111132Y6    BSYBL-S 004300270014
BI00B32Y6    #STAP32061     202203037172-5630-40             RUBBER STOPPER           CCN000320000000320000FN00000000020220601000320000NNM   20220203131315    2H0H  00002000000000044000000095132Y6    BSYBL-S 004300270014
BI00B32Y6    #STAP32061     202203037172-5631-60             RUBBER STOPPER           CCN000120000000120000FN00000000020220601000120000NNM   20220203131315    2H0H  00002000000000042000000093132Y6    BSYBL-S 004300270014
BI00B32Y6    #STAP32061     202203037172-5632-10             DUMMY PLUG               CCN000140000000140000FN00000000020220601000140000NNM   20220203131315    2H0H  00002000000000080400000131832Y6    BSYBL-S 004300270014
BI00B32Y6    #STAP32061     202203037182-2411                CONNECTOR HOUSING        CCN000002400000002400FN00000000020220601000002400NNM   20220203131315    2F0F  00000120000001267000001558332Y6    BSYBL-S 005500360039
BI00B32Y6    #STAP32061     202203037183-8251-40             HOUSING                  CCN000002400000002400FN00000000020220601000002400NNM   20220203131315    2F0F  00000240000000357600000640032Y6    BSYBL-S 005500360039
BI00B32Y6    #STAP32061     202203037189-2978-30             HOUSING FEMALE           CCN000013500000013500FN00000000020220601000013500NNM   20220203131315    2F0F  00000150000000966900001096932Y6    BSYBL-S 005400370024
BI00B32Y6    #STAP32061     202203037189-3033                HOUSING FEMALE           CCN000012800000012800FN00000000020220601000012800NNM   20220203131315    2F0F  00000160000001211200001431232Y6    BSYBL-S 005500360039
BI00B32Y6    #STAP32061     202203037189-3036                HOUSING FEMALE           CCN000004800000004800FN00000000020220601000004800NNM   20220203131315    2F0F  00000160000000921600001141632Y6    BSYBL-S 005500360039
BI00B32Y6    #STAP32061     202203037289-2912-40             HOUSING FEMALE ASS'Y     CCN000006000000006000FN00000000020220601000006000NNM   20220203131315    2N0N  00000200000000804000000931032Y6    BSYBL-S 005400370024
BI00B32Y6    #STAP32061     202203037289-2919-40             HOUSING FEMALE ASS'Y     CCN000001500000001500FN00000000020220601000001500NNM   20220203131315    2N0N  00000150000000910500001037532Y6    BSYBL-S 005400360024
BI00B32Y6    #STAP32061     202203037289-3622-30             HOUSING FEMALE ASS'Y     CCN000000432000000432FN00000000020220601000000432NNM   20220203131315    2N0N  00000043200000839400001038432Y6    BSYBL-S 005400370024
BI00B32Y6    #STAP32061     202203037289-4200-30             HOUSING FEMALE ASS'Y     CCN000014000000014000FN00000000020220601000014000NNM   20220203131315    2N0N  00000200000000926000001021032Y6    BSYBL-S 005400370024
BI00B32Y6    @STAP32061     202203037283-1556                CONNECTOR ASS'Y          CCN000067200000067200FN00000000020220601000067200NNM   20220203131315    3N0N  00000240000000755000001014032Y6    BSYBL-S 005500360039
BI00A32Y8    TAIM2201A      202202077286-3970                CONNECTOR HOUSING        CCN000000330000000330FN00000000020220401000000330NNMM0020220203131315Y8  1N0N  00000011000000977300001164032Y8    CLYCL   005500360039
BI00A32Y8    #TAIM22011     202202077174-0152                CONNECTOR                CCN000000350000000350FN00000000020220601000000350NNED0020220203150935Y8  2F0F  00000035000000746400000918632Y8    CLYCL   005500360039
BI00A32Y8    TAIM22013      202202077370-0309                J/B ASS'Y                CCN000000288000000288FN00000000020220601000000288NNED0020220203131315Y8  1J0J  00000001600000870400001260032Y8    CLYCL   005500360039
BI00A32Y8    TAIM22013      202202077370-0310                J/B ASS'Y                CCN000000230000000230FN00000000020220601000000230NNED0020220203131315Y8  1J0J  00000001000000559000000809032Y8    CLYCL   005500360039
BI00A32Y8    TAIM22013      202202077140-1977-30             UPPER COVER              CCN000000216000000220FN00000000020220601000000220NNED0020220203131315Y8  1F0F  00000001000000099500000249532Y8    CLYCL   005600390040
BI00A32Y8    #TAIM22013     202202077140-1978-30             LOWER COVER              CCN000000216000000216FN00000000020220601000000216NNED0020220203150935Y8  2F0F  00000000800000207100000395132Y8    CLYCL   005500360039
