BI00B32B6    W72024         202205131801W003930              IVSSH 0.5F B             CCN000021600000021600FN00000000020220801000021600NNE   20220328153210B6  1W    00000180000000625000000000032B6    AXARNE-M000000000000AW424009
BI00B32B6    W72024         202205131801W003940              IVSSH 0.5F W             CCN000010800000010800FN00000000020220801000010800NNE   20220328153210B6  1W    00000180000000625000000000032B6    AXARNE-M000000000000AW424020
BI00B32B6    W72024         202205131801W003941              IVSSH 0.5F GY            CCN000014400000014400FN00000000020220801000014400NNE   20220328153210B6  1W    00000180000000625000000000032B6    AXARNE-M000000000000AW424013
BI00B32B6    W72024         202205131801W003950              IVSSH 0.5F R             CCN000012600000012600FN00000000020220801000012600NNE   20220328153210B6  1W    00000180000000625000000000032B6    AXARNE-M000000000000AW424017
BI00B32B6    W72024         202205131801W003952              IVSSH 0.5F P             CCN000012600000012600FN00000000020220801000012600NNE   20220328153210B6  1W    00000180000000625000000000032B6    AXARNE-M000000000000AW424016
BI00B32B6    W72024         202205131801W00395U              IVSSH 0.5F BE            CCN000018000000018000FN00000000020220801000018000NNE   20220328153210B6  1W    00000180000000625000000000032B6    AXARNE-M000000000000AW424010
BI00B32B6    W72024         202205131801W003960              IVSSH 0.5F G             CCN000012600000012600FN00000000020220801000012600NNE   20220328153210B6  1W    00000180000000625000000000032B6    AXARNE-M000000000000AW424012
BI00B32B6    W72024         202205131801W003961              IVSSH 0.5F LG            CCN000014400000014400FN00000000020220801000014400NNE   20220328153210B6  1W    00000180000000625000000000032B6    AXARNE-M000000000000AW424015
BI00B32B6    W72024         202205131801W003970              IVSSH 0.5F Y             CCN000003600000003600FN00000000020220801000003600NNE   20220328153210B6  1W    00000180000000625000000000032B6    AXARNE-M000000000000AW424021
BI00B32B6    W72024         202205131801W003980              IVSSH 0.5F BR            CCN000009000000009000FN00000000020220801000009000NNE   20220328153210B6  1W    00000180000000625000000000032B6    AXARNE-M000000000000AW424011
BI00B32B6    W72024         202205131801W003990              IVSSH 0.5F L             CCN000018000000018000FN00000000020220801000018000NNE   20220328153210B6  1W    00000180000000625000000000032B6    AXARNE-M000000000000AW424014
BI00B32B6    W72024         202205131801W003991              IVSSH 0.5F SB            CCN000016200000016200FN00000000020220801000016200NNE   20220328153210B6  1W    00000180000000625000000000032B6    AXARNE-M000000000000AW424018
BI00B32B6    W72024         202205131801W003992              IVSSH 0.5F V             CCN000007200000007200FN00000000020220801000007200NNE   20220328153210B6  1W    00000180000000625000000000032B6    AXARNE-M000000000000AW424019
BI00B32B6    W72024         202205131801W004030              IVSSH 0.75F B            CCN000001300000001300FN00000000020220801000001300NNE   20220328153210B6  1W    00000130000000882000000000032B6    AXARNE-M000000000000AW424022
BI00B32B6    W72024         202205131801W004040              IVSSH 0.75F W            CCN000002600000002600FN00000000020220801000002600NNE   20220328153210B6  1W    00000130000000882000000000032B6    AXARNE-M000000000000AW424027
BI00B32B6    W72024         202205131801W004052              IVSSH 0.75F P            CCN000001300000001300FN00000000020220801000001300NNE   20220328153210B6  1W    00000130000000882000000000032B6    AXARNE-M000000000000AW424026
BI00B32B6    W72024         202205131801W00405U              IVSSH 0.75F BE           CCN000001300000001300FN00000000020220801000001300NNE   20220328153210B6  1W    00000130000000882000000000032B6    AXARNE-M000000000000AW424023
BI00B32B6    W72024         202205131801W004060              IVSSH 0.75F G            CCN000002600000002600FN00000000020220801000002600NNE   20220328153210B6  1W    00000130000000882000000000032B6    AXARNE-M000000000000AW424024
BI00B32B6    W72024         202205131801W004061              IVSSH 0.75F LG           CCN000001300000001300FN00000000020220801000001300NNE   20220328153210B6  1W    00000130000000882000000000032B6    AXARNE-M000000000000AW424025
BI00B32B6    @W72024        20220513181B09039H7              CAVSAS 0.5X1 GY/W        CCN000002400000002400FN00000000020220801000002400NNE   20220328153211B6  1W    00000040000002263300000000032B6    AXARNE-M000000000000AW424008
BI00B32DE    @TT205E        20220421181E50007ZZ              AVSSCS-S 0.5FX1 DGY/L    CCN000000800000000800FN00000000020220501000000800NNE   20220328144544    1W    00000040000001909700000000032DE    TVYEV-TV000000000000VW124001
BI00B32DJ    GHT2205-2      20220512180D0203770              AVSSH 0.3F Y             CCN000002000000002000FN00000000020220301000002000NNM20 20220328081254    1W    00000200000000515000000000032DJ    RBYIPLRB000000000000XH224025
BI00B32DJ    GHT2205-2      2022051218007704140              AVSS 1.25F W             CCN000002400000002400FN00000000020220301000002400NNM20 20220328081254    1W    00000080000001389000000000032DJ    RBYIPLRB000000000000XH224030
BI00B32DJ    GHT2205-2      2022051218009604330              AVS 3 B                  CCN000141600000141600FN00000000020220301000141600NNM20 20220328081254    1W    00000040000003831600000000032DJ    RBYIPLRB000000000000XH224031
BI00B32DJ    GHT2205-2      2022051218009604490              AVS 5 L                  CCN000027800000027800FN00000000020220301000027800NNM20 20220328081322    1W    00000020000005981000000000032DJ    RBYIPLRB000000000000XH224043
BI00B32DJ    GHT2205-2      2022051218009604360              AVS 3 G                  CCN000133200000133200FN00000000020220301000133200NNM20 20220328081322    1W    00000040000003831600000000032DJ    RBYIPLRB000000000000XH224033
BI00B32DJ    GHT2205-2      2022051218009604430              AVS 5 B                  CCN000004200000004200FN00000000020220301000004200NNM20 20220328081322    1W    00000020000005981000000000032DJ    RBYIPLRB000000000000XH224041
BI00B32DJ    GHT2205-2      2022051218009604340              AVS 3 W                  CCN000014800000014800FN00000000020220301000014800NNM20 20220328081254    1W    00000040000003831600000000032DJ    RBYIPLRB000000000000XH224038
BI00B32DJ    GHT2205-2      2022051218009604350              AVS 3 R                  CCN000034800000034800FN00000000020220301000034800NNM20 20220328081322    1W    00000040000003831600000000032DJ    RBYIPLRB000000000000XH224037
BI00B32DJ    GHT2205-2      2022051218009604347              AVS 3 W/Y                CCN000002000000002000FN00000000020220301000002000NNM20 20220328081254    1W    00000040000003831600000000032DJ    RBYIPLRB000000000000XH224039
BI00B32DJ    GHT2205-2      2022051218009604440              AVS 5 W                  CCN000007000000007000FN00000000020220301000007000NNM20 20220328081322    1W    00000020000005981000000000032DJ    RBYIPLRB000000000000XH224046
BI00B32DJ    GHT2205-2      2022051218000004590              AV 8 L                   CCN000000300000000300FN00000000020220301000000300NNM20 20220328081254    1W    00000010000010466200000000032DJ    RBYIPLRB000000000000XH224028
BI00B32DJ    GHT2205-2      2022051218009604390              AVS 3 L                  CCN000068800000068800FN00000000020220301000068800NNM20 20220328081322    1W    00000040000003831600000000032DJ    RBYIPLRB000000000000XH224035
BI00B32DJ    GHT2205-2      2022051218009604452              AVS 5 P                  CCN000001200000001200FN00000000020220301000001200NNM20 20220328081322    1W    00000020000005981000000000032DJ    RBYIPLRB000000000000XH224044
BI00B32DJ    GHT2205-2      2022051218009604370              AVS 3 Y                  CCN000040000000040000FN00000000020220301000040000NNM20 20220328081322    1W    00000040000003831600000000032DJ    RBYIPLRB000000000000XH224040
BI00B32DJ    GHT2205-2      2022051218009604380              AVS 3 BR                 CCN000018000000018000FN00000000020220301000018000NNM20 20220328081322    1W    00000040000003831600000000032DJ    RBYIPLRB000000000000XH224032
BI00B32DJ    GHT2205-2      2022051218000004530              AV 8 B                   CCN000021100000021100FN00000000020220301000021100NNM20 20220328081254    1W    00000010000010466200000000032DJ    RBYIPLRB000000000000XH224026
BI00B32DJ    GHT2205-2      2022051218009604450              AVS 5 R                  CCN000053800000053800FN00000000020220301000053800NNM20 20220328081322    1W    00000020000005981000000000032DJ    RBYIPLRB000000000000XH224045
BI00B32DJ    GHT2205-2      2022051218000004560              AV 8 G                   CCN000008400000008400FN00000000020220301000008400NNM20 20220328081254    1W    00000010000010466200000000032DJ    RBYIPLRB000000000000XH224027
BI00B32DJ    GHT2205-2      2022051218000004550              AV 8 R                   CCN000003400000003400FN00000000020220301000003400NNM20 20220328081254    1W    00000010000010466200000000032DJ    RBYIPLRB000000000000XH224029
BI00B32DJ    GHT2205-2      2022051218009604460              AVS 5 G                  CCN000001400000001400FN00000000020220301000001400NNM20 20220328081322    1W    00000020000005981000000000032DJ    RBYIPLRB000000000000XH224042
BI00B32DJ    GHT2205-2      2022051218009604341              AVS 3 GY                 CCN000037200000037200FN00000000020220301000037200NNM20 20220328081254    1W    00000040000003831600000000032DJ    RBYIPLRB000000000000XH224034
BI00B32DJ    GHT2205-2      2022051218009604361              AVS 3 LG                 CCN000000400000000400FN00000000020220301000000400NNM20 20220328081322    1W    00000040000003831600000000032DJ    RBYIPLRB000000000000XH224036
BI00B32H2    TAW205A        2022040818007704143              AVSS 1.25F W/B           CCN000000800000000800FN00000000020220501000000800NNE   20220328143843    1W    00000080000001389000000000032H2    HVYHV   000000000000UJ423001
BI00B32M1    @TV204A        20220421181E48049ZZ              CAVSAS-S 0.3X2 GY/L      CCN000000700000000700FN00000000020220401000000700NNE   20220328150611    1W    00000035000002008700000000032M1    VNYEV   000000000000VA124016
BI00B32M1    @TV204B        20220421181AD2022ZZ              CIVUSAS-S 0.35X2 B(R,G)  CCN000001350000001350FN00000000020220401000001350NNE   20220328150612    1W    00000045000001714000000000032M1    VNYEV   000000000000VB124001
BI00B32M3    SM2205A MW     2022042118007703950              AVSS 0.5F R              CCN000004500000004500FN00000000020220501000004500NNE   20220328140216    1W    00000150000000674000000000032M3    SASAMI  000000000000QA124001
BI00B32M3    @SM2205AMMW    20220421181E48041ZZ              CAVSAS-S 0.3X2 GY/R      CCN000000700000000700FN00000000020220501000000700NNE   20220328140215    1W    00000035000002008700000000032M3    SASAMI  000000000000QB124001
BI00B32U5    DW2024         202205131801W003943              IVSSH 0.5F W/B           CCN000005400000005400FN00000000020220701000005400NNE   20220328154131U5  1W    00000180000000625000000000032U5    ASAMSD  000000000000AM424031
BI00B32U5    DW2024         202205131801W003950              IVSSH 0.5F R             CCN000075600000075600FN00000000020220701000075600NNE   20220328154131U5  1W    00000180000000625000000000032U5    ASAMSD  000000000000AM424030
BI00B32U5    DW2024         202205131801W003952              IVSSH 0.5F P             CCN000009000000009000FN00000000020220701000009000NNE   20220328154131U5  1W    00000180000000625000000000032U5    ASAMSD  000000000000AM424029
BI00B32U5    DW2024         202205131801W00395U              IVSSH 0.5F BE            CCN000005400000005400FN00000000020220701000005400NNE   20220328154131U5  1W    00000180000000625000000000032U5    ASAMSD  000000000000AM424025
BI00B32U5    DW2024         202205131801W003960              IVSSH 0.5F G             CCN000061200000061200FN00000000020220701000061200NNE   20220328154131U5  1W    00000180000000625000000000032U5    ASAMSD  000000000000AM424027
BI00B32U5    DW2024         202205131801W003980              IVSSH 0.5F BR            CCN000003600000003600FN00000000020220701000003600NNE   20220328154131U5  1W    00000180000000625000000000032U5    ASAMSD  000000000000AM424026
BI00B32U5    DW2024         202205131801W003990              IVSSH 0.5F L             CCN000077400000077400FN00000000020220701000077400NNE   20220328154131U5  1W    00000180000000625000000000032U5    ASAMSD  000000000000AM424028
BI00B32U5    DW2024         202205131801W006930              IVSSH 0.35F B            CCN000095000000095000FN00000000020220701000095000NNE   20220328154131U5  1W    00000250000000452000000000032U5    ASAMSD  000000000000AM424032
BI00B32U5    DW2024         202205131801W006940              IVSSH 0.35F W            CCN000065000000065000FN00000000020220701000065000NNE   20220328154131U5  1W    00000250000000452000000000032U5    ASAMSD  000000000000AM424041
BI00B32U5    DW2024         202205131801W006952              IVSSH 0.35F P            CCN000040000000040000FN00000000020220701000040000NNE   20220328154131U5  1W    00000250000000452000000000032U5    ASAMSD  000000000000AM424038
BI00B32U5    DW2024         202205131801W00695U              IVSSH 0.35F BE           CCN000012500000012500FN00000000020220701000012500NNE   20220328154131U5  1W    00000250000000452000000000032U5    ASAMSD  000000000000AM424033
BI00B32U5    DW2024         202205131801W006960              IVSSH 0.35F G            CCN000057500000057500FN00000000020220701000057500NNE   20220328154131U5  1W    00000250000000452000000000032U5    ASAMSD  000000000000AM424035
BI00B32U5    DW2024         202205131801W006961              IVSSH 0.35F LG           CCN000025000000025000FN00000000020220701000025000NNE   20220328154131U5  1W    00000250000000452000000000032U5    ASAMSD  000000000000AM424037
BI00B32U5    DW2024         202205131801W006970              IVSSH 0.35F Y            CCN000005000000005000FN00000000020220701000005000NNE   20220328154131U5  1W    00000250000000452000000000032U5    ASAMSD  000000000000AM424042
BI00B32U5    DW2024         202205131801W006980              IVSSH 0.35F BR           CCN000025000000025000FN00000000020220701000025000NNE   20220328154131U5  1W    00000250000000452000000000032U5    ASAMSD  000000000000AM424034
BI00B32U5    DW2024         202205131801W006990              IVSSH 0.35F L            CCN000087500000087500FN00000000020220701000087500NNE   20220328154131U5  1W    00000250000000452000000000032U5    ASAMSD  000000000000AM424036
BI00B32U5    DW2024         202205131801W006991              IVSSH 0.35F SB           CCN000010000000010000FN00000000020220701000010000NNE   20220328154131U5  1W    00000250000000452000000000032U5    ASAMSD  000000000000AM424039
BI00B32U5    DW2024         202205131801W006992              IVSSH 0.35F V            CCN000012500000012500FN00000000020220701000012500NNE   20220328154131U5  1W    00000250000000452000000000032U5    ASAMSD  000000000000AM424040
BI00B32U5    @DW2024        20220513181E48011ZZ              CAVSAS-S 0.3X1 GY/W      CCN000004000000004000FN00000000020220701000004000NNE   20220328154130U5  1W    00000050000001529500000000032U5    ASAMSD  000000000000AM424023
BI00B32U5    @DW2024        20220513181F21027ZZ              AVSSHCS-S 1.25FX2 B      CCN000005400000005400FN00000000020220701000005400NNE   20220328154130U5  1W    00000020000004267300000000032U5    ASAMSD  000000000000AM424024
BI00B32W4    @4500191345    20220607181B32116S1              AVSSCS 0.3FX2 DGY        CCN000000350000000350FN00000000020220601000000350NNE   20220328141157W4171W    00000035000002276000000000032W417  HJYHK-J 000000000000OS425001
BI00B32W4    4500191424     2022053118007703930              AVSS 0.5F B              CCN000004500000004500FN00000000020220601000004500NNE   20220328141200W4K81W    00000150000000674000000000032W4K8  HJYHK-J 000000000000OO325005
BI00B32W4    4500191424     2022053118007703965              AVSS 0.5F G/R            CCN000004500000004500FN00000000020220601000004500NNE   20220328141200W4K81W    00000150000000674000000000032W4K8  HJYHK-J 000000000000OO325007
BI00B32W4    4500191424     2022053118007703967              AVSS 0.5F G/Y            CCN000004500000004500FN00000000020220601000004500NNE   20220328141200W4K81W    00000150000000674000000000032W4K8  HJYHK-J 000000000000OO325008
BI00B32W4    4500191424     2022053118007704187              AVSS 1.25F BR/Y          CCN000002400000002400FN00000000020220601000002400NNE   20220328141200W4K81W    00000080000001389000000000032W4K8  HJYHK-J 000000000000OO325011
BI00B32W4    4500191424     2022053118007704194              AVSS 1.25F L/W           CCN000004800000004800FN00000000020220601000004800NNE   20220328141200W4K81W    00000080000001389000000000032W4K8  HJYHK-J 000000000000OO325013
BI00B32W4    4500191424     2022053118007704195              AVSS 1.25F L/R           CCN000003200000003200FN00000000020220601000003200NNE   20220328141200W4K81W    00000080000001389000000000032W4K8  HJYHK-J 000000000000OO325012
BI00B32W4    4500191424     2022053118007704230              AVSS 2F B                CCN000005000000005000FN00000000020220601000005000NNE   20220328141200W4K81W    00000050000002126400000000032W4K8  HJYHK-J 000000000000OO325014
BI00B32W4    4500191424     2022053118007704287              AVSS 2F BR/Y             CCN000002000000002000FN00000000020220601000002000NNE   20220328141200W4K81W    00000050000002126400000000032W4K8  HJYHK-J 000000000000OO325015
BI00B32W4    4500191424     2022053118018403707              CAVS 0.3 P/B             CCN000004000000004000FN00000000020220601000004000NNE   20220328141200W4K81W    00000200000000471000000000032W4K8  HJYHK-J 000000000000OO325070
BI00B32W4    4500191424     2022053118018403730              CAVS 0.3 B               CCN000032000000032000FN00000000020220601000032000NNE   20220328141200W4K81W    00000200000000471000000000032W4K8  HJYHK-J 000000000000OO325064
BI00B32W4    4500191424     2022053118018403734              CAVS 0.3 B/W             CCN000010000000010000FN00000000020220601000010000NNE   20220328141200W4K81W    00000200000000471000000000032W4K8  HJYHK-J 000000000000OO325065
BI00B32W4    4500191424     2022053118018403740              CAVS 0.3 W               CCN000028000000028000FN00000000020220601000028000NNE   20220328141200W4K81W    00000200000000471000000000032W4K8  HJYHK-J 000000000000OO325074
BI00B32W4    4500191424     2022053118018403741              CAVS 0.3 GY              CCN000026000000026000FN00000000020220601000026000NNE   20220328141200W4K81W    00000200000000471000000000032W4K8  HJYHK-J 000000000000OO325067
BI00B32W4    4500191424     2022053118018403743              CAVS 0.3 W/B             CCN000004000000004000FN00000000020220601000004000NNE   20220328141200W4K81W    00000200000000471000000000032W4K8  HJYHK-J 000000000000OO325075
BI00B32W4    4500191424     2022053118018403749              CAVS 0.3 W/L             CCN000010000000010000FN00000000020220601000010000NNE   20220328141200W4K81W    00000200000000471000000000032W4K8  HJYHK-J 000000000000OO325076
BI00B32W4    4500191424     2022053118018403750              CAVS 0.3 R               CCN000020000000020000FN00000000020220601000020000NNE   20220328141200W4K81W    00000200000000471000000000032W4K8  HJYHK-J 000000000000OO325072
BI00B32W4    4500191424     2022053118018403760              CAVS 0.3 G               CCN000026000000026000FN00000000020220601000026000NNE   20220328141200W4K81W    00000200000000471000000000032W4K8  HJYHK-J 000000000000OO325066
BI00B32W4    4500191424     2022053118018403790              CAVS 0.3 L               CCN000028000000028000FN00000000020220601000028000NNE   20220328141200W4K81W    00000200000000471000000000032W4K8  HJYHK-J 000000000000OO325068
BI00B32W4    4500191424     2022053118018403792              CAVS 0.3 V               CCN000026000000026000FN00000000020220601000026000NNE   20220328141200W4K81W    00000200000000471000000000032W4K8  HJYHK-J 000000000000OO325073
BI00B32W4    4500191424     2022053118018403930              CAVS 0.5 B               CCN000070500000070500FN00000000020220601000070500NNE   20220328141200W4K81W    00000150000000677000000000032W4K8  HJYHK-J 000000000000OO325077
BI00B32W4    4500191424     2022053118018403934              CAVS 0.5 B/W             CCN000024000000024000FN00000000020220601000024000NNE   20220328141200W4K81W    00000150000000677000000000032W4K8  HJYHK-J 000000000000OO325078
BI00B32W4    4500191424     2022053118018403940              CAVS 0.5 W               CCN000078000000078000FN00000000020220601000078000NNE   20220328141200W4K81W    00000150000000677000000000032W4K8  HJYHK-J 000000000000OO325091
BI00B32W4    4500191424     2022053118018403941              CAVS 0.5 GY              CCN000046500000046500FN00000000020220601000046500NNE   20220328141200W4K81W    00000150000000677000000000032W4K8  HJYHK-J 000000000000OO325082
BI00B32W4    4500191424     2022053118018403943              CAVS 0.5 W/B             CCN000024000000024000FN00000000020220601000024000NNE   20220328141200W4K81W    00000150000000677000000000032W4K8  HJYHK-J 000000000000OO325092
BI00B32W4    4500191424     2022053118018403950              CAVS 0.5 R               CCN000012000000012000FN00000000020220601000012000NNE   20220328141200W4K81W    00000150000000677000000000032W4K8  HJYHK-J 000000000000OO325087
BI00B32W4    4500191424     2022053118018403952              CAVS 0.5 P               CCN000067500000067500FN00000000020220601000067500NNE   20220328141200W4K81W    00000150000000677000000000032W4K8  HJYHK-J 000000000000OO325086
BI00B32W4    4500191424     2022053118018403954              CAVS 0.5 R/W             CCN000036000000036000FN00000000020220601000036000NNE   20220328141200W4K81W    00000150000000677000000000032W4K8  HJYHK-J 000000000000OO325088
BI00B32W4    4500191424     2022053118018403960              CAVS 0.5 G               CCN000052500000052500FN00000000020220601000052500NNE   20220328141200W4K81W    00000150000000677000000000032W4K8  HJYHK-J 000000000000OO325080
BI00B32W4    4500191424     2022053118018403961              CAVS 0.5 LG              CCN000084000000084000FN00000000020220601000084000NNE   20220328141200W4K81W    00000150000000677000000000032W4K8  HJYHK-J 000000000000OO325085
BI00B32W4    4500191424     2022053118018403964              CAVS 0.5 G/W             CCN000016500000016500FN00000000020220601000016500NNE   20220328141200W4K81W    00000150000000677000000000032W4K8  HJYHK-J 000000000000OO325081
BI00B32W4    4500191424     2022053118018403970              CAVS 0.5 Y               CCN000051000000051000FN00000000020220601000051000NNE   20220328141200W4K81W    00000150000000677000000000032W4K8  HJYHK-J 000000000000OO325093
BI00B32W4    4500191424     2022053118018403980              CAVS 0.5 BR              CCN000018000000018000FN00000000020220601000018000NNE   20220328141200W4K81W    00000150000000677000000000032W4K8  HJYHK-J 000000000000OO325079
BI00B32W4    4500191424     2022053118018403990              CAVS 0.5 L               CCN000033000000033000FN00000000020220601000033000NNE   20220328141200W4K81W    00000150000000677000000000032W4K8  HJYHK-J 000000000000OO325083
BI00B32W4    4500191424     2022053118018403991              CAVS 0.5 SB              CCN000078000000078000FN00000000020220601000078000NNE   20220328141200W4K81W    00000150000000677000000000032W4K8  HJYHK-J 000000000000OO325089
BI00B32W4    4500191424     2022053118018403992              CAVS 0.5 V               CCN000025500000025500FN00000000020220601000025500NNE   20220328141200W4K81W    00000150000000677000000000032W4K8  HJYHK-J 000000000000OO325090
BI00B32W4    4500191424     2022053118018403995              CAVS 0.5 L/R             CCN000027000000027000FN00000000020220601000027000NNE   20220328141200W4K81W    00000150000000677000000000032W4K8  HJYHK-J 000000000000OO325084
BI00B32W4    4500191424     2022053118018404043              CAVS 0.85 W/B            CCN000008000000008000FN00000000020220601000008000NNE   20220328141200W4K81W    00000100000000965000000000032W4K8  HJYHK-J 000000000000OO325098
BI00B32W4    4500191424     2022053118018404052              CAVS 0.85 P              CCN000011000000011000FN00000000020220601000011000NNE   20220328141200W4K81W    00000100000000965000000000032W4K8  HJYHK-J 000000000000OO325096
BI00B32W4    4500191424     2022053118018404061              CAVS 0.85 LG             CCN000015000000015000FN00000000020220601000015000NNE   20220328141200W4K81W    00000100000000965000000000032W4K8  HJYHK-J 000000000000OO325095
BI00B32W4    4500191424     2022053118018404090              CAVS 0.85 L              CCN000022000000022000FN00000000020220601000022000NNE   20220328141200W4K81W    00000100000000965000000000032W4K8  HJYHK-J 000000000000OO325094
BI00B32W4    4500191424     2022053118018404092              CAVS 0.85 V              CCN000014000000014000FN00000000020220601000014000NNE   20220328141200W4K81W    00000100000000965000000000032W4K8  HJYHK-J 000000000000OO325097
BI00B32W4    4500191424     2022053118018404130              CAVS 1.25 B              CCN000017600000017600FN00000000020220601000017600NNE   20220328141200W4K81W    00000080000001378000000000032W4K8  HJYHK-J 000000000000OO325099
BI00B32W4    4500191424     2022053118018404140              CAVS 1.25 W              CCN000012800000012800FN00000000020220601000012800NNE   20220328141200W4K81W    00000080000001378000000000032W4K8  HJYHK-J 000000000000OO325108
BI00B32W4    4500191424     2022053118018404141              CAVS 1.25 GY             CCN000040800000040800FN00000000020220601000040800NNE   20220328141200W4K81W    00000080000001378000000000032W4K8  HJYHK-J 000000000000OO325103
BI00B32W4    4500191424     2022053118018404143              CAVS 1.25 W/B            CCN000039200000039200FN00000000020220601000039200NNE   20220328141200W4K81W    00000080000001378000000000032W4K8  HJYHK-J 000000000000OO325109
BI00B32W4    4500191424     2022053118018404145              CAVS 1.25 W/R            CCN000023200000023200FN00000000020220601000023200NNE   20220328141200W4K81W    00000080000001378000000000032W4K8  HJYHK-J 000000000000OO325111
BI00B32W4    4500191424     2022053118018404146              CAVS 1.25 W/G            CCN000030400000030400FN00000000020220601000030400NNE   20220328141200W4K81W    00000080000001378000000000032W4K8  HJYHK-J 000000000000OO325110
BI00B32W4    4500191424     2022053118018404150              CAVS 1.25 R              CCN000022400000022400FN00000000020220601000022400NNE   20220328141200W4K81W    00000080000001378000000000032W4K8  HJYHK-J 000000000000OO325106
BI00B32W4    4500191424     2022053118018404152              CAVS 1.25 P              CCN000030400000030400FN00000000020220601000030400NNE   20220328141200W4K81W    00000080000001378000000000032W4K8  HJYHK-J 000000000000OO325105
BI00B32W4    4500191424     2022053118018404160              CAVS 1.25 G              CCN000040000000040000FN00000000020220601000040000NNE   20220328141200W4K81W    00000080000001378000000000032W4K8  HJYHK-J 000000000000OO325102
BI00B32W4    4500191424     2022053118018404161              CAVS 1.25 LG             CCN000009600000009600FN00000000020220601000009600NNE   20220328141200W4K81W    00000080000001378000000000032W4K8  HJYHK-J 000000000000OO325104
BI00B32W4    4500191424     2022053118018404192              CAVS 1.25 V              CCN000032000000032000FN00000000020220601000032000NNE   20220328141200W4K81W    00000080000001378000000000032W4K8  HJYHK-J 000000000000OO325107
BI00B32W4    4500191424     20220531180184037H2              CAVS 0.3 P/G             CCN000012000000012000FN00000000020220601000012000NNE   20220328141200W4K81W    00000200000000471000000000032W4K8  HJYHK-J 000000000000OO325071
BI00B32W4    4500191424     20220531180T8403970              ACCAVS 0.5 Y             CCN000012000000012000FN00000000020220601000012000NNE   20220328141200W4K81W    00000150000000674300000000032W4K8  HJYHK-J 000000000000OO325003
BI00B32W4    4500191424     20220531180T8403973              ACCAVS 0.5 Y/B           CCN000012000000012000FN00000000020220601000012000NNE   20220328141200W4K81W    00000150000000674300000000032W4K8  HJYHK-J 000000000000OO325004
BI00B32W4    4500191424     2022053118018403761              CAVS 0.3 LG              CCN000002000000002000FN00000000020220601000002000NNE   20220328141200W4K81W    00000200000000471000000000032W4K8  HJYHK-J 000000000000OO325069
BI00B32W4    4500191424     202205311801R703940              CIVUS 0.5 W              CCN000039600000039600FN00000000020220601000039600NNE   20220328141200W4K81W    00000220000000525000000000032W4K8  HJYHK-J 000000000000OO325031
BI00B32W4    4500191424     202205311801R703991              CIVUS 0.5 SB             CCN000063800000063800FN00000000020220601000063800NNE   20220328141200W4K81W    00000220000000525000000000032W4K8  HJYHK-J 000000000000OO325029
BI00B32W4    4500191424     202205311801R706940              CIVUS 0.35 W             CCN000096000000096000FN00000000020220601000096000NNE   20220328141200W4K81W    00000300000000386000000000032W4K8  HJYHK-J 000000000000OO325060
BI00B32W4    4500191424     202205311801R706943              CIVUS 0.35 W/B           CCN000024000000024000FN00000000020220601000024000NNE   20220328141200W4K81W    00000300000000386000000000032W4K8  HJYHK-J 000000000000OO325061
BI00B32W4    4500191424     202205311801R706930              CIVUS 0.35 B             CCN000090000000090000FN00000000020220601000090000NNE   20220328141200W4K81W    00000300000000386000000000032W4K8  HJYHK-J 000000000000OO325049
BI00B32W4    4500191424     202205311801R70695U              CIVUS 0.35 BE            CCN000063000000063000FN00000000020220601000063000NNE   20220328141200W4K81W    00000300000000386000000000032W4K8  HJYHK-J 000000000000OO325050
BI00B32W4    4500191424     202205311801R706980              CIVUS 0.35 BR            CCN000066000000066000FN00000000020220601000066000NNE   20220328141200W4K81W    00000300000000386000000000032W4K8  HJYHK-J 000000000000OO325051
BI00B32W4    4500191424     202205311801R706960              CIVUS 0.35 G             CCN000066000000066000FN00000000020220601000066000NNE   20220328141200W4K81W    00000300000000386000000000032W4K8  HJYHK-J 000000000000OO325052
BI00B32W4    4500191424     202205311801R706941              CIVUS 0.35 GY            CCN000111000000111000FN00000000020220601000111000NNE   20220328141200W4K81W    00000300000000386000000000032W4K8  HJYHK-J 000000000000OO325053
BI00B32W4    4500191424     202205311801R706990              CIVUS 0.35 L             CCN000123000000123000FN00000000020220601000123000NNE   20220328141200W4K81W    00000300000000386000000000032W4K8  HJYHK-J 000000000000OO325054
BI00B32W4    4500191424     202205311801R706952              CIVUS 0.35 P             CCN000033000000033000FN00000000020220601000033000NNE   20220328141200W4K81W    00000300000000386000000000032W4K8  HJYHK-J 000000000000OO325056
BI00B32W4    4500191424     202205311801R706991              CIVUS 0.35 SB            CCN000075000000075000FN00000000020220601000075000NNE   20220328141200W4K81W    00000300000000386000000000032W4K8  HJYHK-J 000000000000OO325058
BI00B32W4    4500191424     202205311801R706992              CIVUS 0.35 V             CCN000060000000060000FN00000000020220601000060000NNE   20220328141200W4K81W    00000300000000386000000000032W4K8  HJYHK-J 000000000000OO325059
BI00B32W4    4500191424     202205311801R703952              CIVUS 0.5 P              CCN000041800000041800FN00000000020220601000041800NNE   20220328141200W4K81W    00000220000000525000000000032W4K8  HJYHK-J 000000000000OO325027
BI00B32W4    4500191424     202205311801R70395U              CIVUS 0.5 BE             CCN000030800000030800FN00000000020220601000030800NNE   20220328141200W4K81W    00000220000000525000000000032W4K8  HJYHK-J 000000000000OO325021
BI00B32W4    4500191424     202205311801R704052              CIVUS 0.75 P             CCN000001500000001500FN00000000020220601000001500NNE   20220328141200W4K81W    00000150000000765000000000032W4K8  HJYHK-J 000000000000OO325036
BI00B32W4    4500191424     202205311801R704043              CIVUS 0.75 W/B           CCN000003000000003000FN00000000020220601000003000NNE   20220328141200W4K81W    00000150000000765000000000032W4K8  HJYHK-J 000000000000OO325037
BI00B32W4    4500191424     202205311801R704080              CIVUS 0.75 BR            CCN000003000000003000FN00000000020220601000003000NNE   20220328141200W4K81W    00000150000000765000000000032W4K8  HJYHK-J 000000000000OO325034
BI00B32W4    4500191424     202205311801R704140              CIVUS 1.25 W             CCN000018000000018000FN00000000020220601000018000NNE   20220328141200W4K81W    00000100000001228000000000032W4K8  HJYHK-J 000000000000OO325047
BI00B32W4    4500191424     202205311801R704143              CIVUS 1.25 W/B           CCN000043000000043000FN00000000020220601000043000NNE   20220328141200W4K81W    00000100000001228000000000032W4K8  HJYHK-J 000000000000OO325048
BI00B32W4    4500191424     202205311801R704190              CIVUS 1.25 L             CCN000006000000006000FN00000000020220601000006000NNE   20220328141200W4K81W    00000100000001228000000000032W4K8  HJYHK-J 000000000000OO325041
BI00B32W4    4500191424     202205311801R704192              CIVUS 1.25 V             CCN000008000000008000FN00000000020220601000008000NNE   20220328141200W4K81W    00000100000001228000000000032W4K8  HJYHK-J 000000000000OO325046
BI00B32W4    4500191424     202205311801R70415U              CIVUS 1.25 BE            CCN000015000000015000FN00000000020220601000015000NNE   20220328141200W4K81W    00000100000001228000000000032W4K8  HJYHK-J 000000000000OO325039
BI00B32W4    4500191424     202205311801R704161              CIVUS 1.25 LG            CCN000019000000019000FN00000000020220601000019000NNE   20220328141200W4K81W    00000100000001228000000000032W4K8  HJYHK-J 000000000000OO325042
BI00B32W4    4500191424     202205311801R704150              CIVUS 1.25 R             CCN000013000000013000FN00000000020220601000013000NNE   20220328141200W4K81W    00000100000001228000000000032W4K8  HJYHK-J 000000000000OO325044
BI00B32W4    4500191424     202205311801R704191              CIVUS 1.25 SB            CCN000009000000009000FN00000000020220601000009000NNE   20220328141200W4K81W    00000100000001228000000000032W4K8  HJYHK-J 000000000000OO325045
BI00B32W4    4500191424     202205311801R706961              CIVUS 0.35 LG            CCN000096000000096000FN00000000020220601000096000NNE   20220328141200W4K81W    00000300000000386000000000032W4K8  HJYHK-J 000000000000OO325055
BI00B32W4    4500191424     202205311801R703980              CIVUS 0.5 BR             CCN000094600000094600FN00000000020220601000094600NNE   20220328141200W4K81W    00000220000000525000000000032W4K8  HJYHK-J 000000000000OO325022
BI00B32W4    4500191424     202205311801R704152              CIVUS 1.25 P             CCN000003000000003000FN00000000020220601000003000NNE   20220328141200W4K81W    00000100000001228000000000032W4K8  HJYHK-J 000000000000OO325043
BI00B32W4    4500191424     202205311801R703960              CIVUS 0.5 G              CCN000015400000015400FN00000000020220601000015400NNE   20220328141200W4K81W    00000220000000525000000000032W4K8  HJYHK-J 000000000000OO325023
BI00B32W4    4500191424     202205311801R704180              CIVUS 1.25 BR            CCN000012000000012000FN00000000020220601000012000NNE   20220328141200W4K81W    00000100000001228000000000032W4K8  HJYHK-J 000000000000OO325040
BI00B32W4    4500191424     202205311801R706950              CIVUS 0.35 R             CCN000078000000078000FN00000000020220601000078000NNE   20220328141200W4K81W    00000300000000386000000000032W4K8  HJYHK-J 000000000000OO325057
BI00B32W4    4500191424     202205311801R706970              CIVUS 0.35 Y             CCN000102000000102000FN00000000020220601000102000NNE   20220328141200W4K81W    00000300000000386000000000032W4K8  HJYHK-J 000000000000OO325062
BI00B32W4    4500191424     202205311801R706973              CIVUS 0.35 Y/B           CCN000090000000090000FN00000000020220601000090000NNE   20220328141200W4K81W    00000300000000386000000000032W4K8  HJYHK-J 000000000000OO325063
BI00B32W4    4500191424     202205311801R703930              CIVUS 0.5 B              CCN000099000000099000FN00000000020220601000099000NNE   20220328141200W4K81W    00000220000000525000000000032W4K8  HJYHK-J 000000000000OO325020
BI00B32W4    4500191424     202205311801R703941              CIVUS 0.5 GY             CCN000059400000059400FN00000000020220601000059400NNE   20220328141200W4K81W    00000220000000525000000000032W4K8  HJYHK-J 000000000000OO325024
BI00B32W4    4500191424     202205311801R703990              CIVUS 0.5 L              CCN000039600000039600FN00000000020220601000039600NNE   20220328141200W4K81W    00000220000000525000000000032W4K8  HJYHK-J 000000000000OO325025
BI00B32W4    4500191424     202205311801R703961              CIVUS 0.5 LG             CCN000035200000035200FN00000000020220601000035200NNE   20220328141200W4K81W    00000220000000525000000000032W4K8  HJYHK-J 000000000000OO325026
BI00B32W4    4500191424     202205311801R703992              CIVUS 0.5 V              CCN000015400000015400FN00000000020220601000015400NNE   20220328141200W4K81W    00000220000000525000000000032W4K8  HJYHK-J 000000000000OO325030
BI00B32W4    4500191424     202205311801R703943              CIVUS 0.5 W/B            CCN000125400000125400FN00000000020220601000125400NNE   20220328141200W4K81W    00000220000000525000000000032W4K8  HJYHK-J 000000000000OO325032
BI00B32W4    4500191424     202205311801R703950              CIVUS 0.5 R              CCN000008800000008800FN00000000020220601000008800NNE   20220328141200W4K81W    00000220000000525000000000032W4K8  HJYHK-J 000000000000OO325028
BI00B32W4    4500191424     202205311801R704030              CIVUS 0.75 B             CCN000001500000001500FN00000000020220601000001500NNE   20220328141200W4K81W    00000150000000765000000000032W4K8  HJYHK-J 000000000000OO325033
BI00B32W4    4500191424     202205311801R704130              CIVUS 1.25 B             CCN000044000000044000FN00000000020220601000044000NNE   20220328141200W4K81W    00000100000001228000000000032W4K8  HJYHK-J 000000000000OO325038
BI00B32W4    4500191424     2022053118007704243              AVSS 2F W/B              CCN000012500000012500FN00000000020220601000012500NNE   20220328141200W4K81W    00000050000002126400000000032W4K8  HJYHK-J 000000000000OO325019
BI00B32W4    4500191424     2022053118007704260              AVSS 2F G                CCN000005000000005000FN00000000020220601000005000NNE   20220328141200W4K81W    00000050000002126400000000032W4K8  HJYHK-J 000000000000OO325016
BI00B32W4    4500191424     2022053118007704240              AVSS 2F W                CCN000005000000005000FN00000000020220601000005000NNE   20220328141200W4K81W    00000050000002126400000000032W4K8  HJYHK-J 000000000000OO325018
BI00B32W4    4500191424     2022053118007704290              AVSS 2F L                CCN000004000000004000FN00000000020220601000004000NNE   20220328141200W4K81W    00000050000002126400000000032W4K8  HJYHK-J 000000000000OO325017
BI00B32W4    4500191424     202205311801R704061              CIVUS 0.75 LG            CCN000012000000012000FN00000000020220601000012000NNE   20220328141200W4K81W    00000150000000765000000000032W4K8  HJYHK-J 000000000000OO325035
BI00B32W4    4500191424     2022053118007703941              AVSS 0.5F GY             CCN000001500000001500FN00000000020220601000001500NNE   20220328141200W4K81W    00000150000000674000000000032W4K8  HJYHK-J 000000000000OO325009
BI00B32W4    4500191424     2022053118007703956              AVSS 0.5F R/G            CCN000001500000001500FN00000000020220601000001500NNE   20220328141200W4K81W    00000150000000674000000000032W4K8  HJYHK-J 000000000000OO325010
BI00B32W4    4500191424     2022053118007703963              AVSS 0.5F G/B            CCN000001500000001500FN00000000020220601000001500NNE   20220328141200W4K81W    00000150000000674000000000032W4K8  HJYHK-J 000000000000OO325006
BI00B32W4    4500191424     2022053118018404134              CAVS 1.25 B/W            CCN000000800000000800FN00000000020220601000000800NNE   20220328141200W4K81W    00000080000001378000000000032W4K8  HJYHK-J 000000000000OO325101
BI00B32W4    4500191424     2022053118018404135              CAVS 1.25 B/R            CCN000000800000000800FN00000000020220601000000800NNE   20220328141200W4K81W    00000080000001378000000000032W4K8  HJYHK-J 000000000000OO325100
BI00B32W4    @4500191424    20220531181B32116S1              AVSSCS 0.3FX2 DGY        CCN000001400000001400FN00000000020220601000001400NNE   20220328141158W4K81W    00000035000002276000000000032W4K8  HJYHK-J 000000000000OO325001
BI00B32W4    @4500191424    20220531181B32116Z6              AVSSCS 0.3FX2 DGY/V      CCN000014350000014350FN00000000020220601000014350NNE   20220328141158W4K81W    00000035000002276000000000032W4K8  HJYHK-J 000000000000OO325002
BI00A32W4    @4500191481    20220530181D6910239              AVSSHCS 0.5FX2 B/L       CCN000001200000001200FN00000000020220501000001200NNE   20220328141154W4421W    00000030000002385000000000032W442  HJYHK-J 000000000000OP325001
BI00A32W4    @4500191515    20220606181B09116K3              CAVSAS 0.3X2 GY/P        CCN000000700000000700FN00000000020220601000000700NNE   20220328141159W4N21W    00000035000002254000000000032W4N2  HJYHK-J 000000000000OT425001
BI00B32W4    4500191589     2022041918009603930              AVS 0.5 B                CCN000002000000002000FN00000000020220401000002000NNE   20220328141153W42 1W    00000100000000850000000000032W42   HJYHK-J 000000000000
BI00B32W4    4500191589     2022041918009603960              AVS 0.5 G                CCN000001000000001000FN00000000020220401000001000NNE   20220328141153W42 1W    00000100000000850000000000032W42   HJYHK-J 000000000000
BI00B32W4    4500191589     2022041918009603965              AVS 0.5 G/R              CCN000001000000001000FN00000000020220401000001000NNE   20220328141153W42 1W    00000100000000850000000000032W42   HJYHK-J 000000000000
BI00B32W4    4500191589     2022041918009603990              AVS 0.5 L                CCN000001000000001000FN00000000020220401000001000NNE   20220328141153W42 1W    00000100000000850000000000032W42   HJYHK-J 000000000000
BI00B32W4    4500191589     2022041918009603950              AVS 0.5 R                CCN000001000000001000FN00000000020220401000001000NNE   20220328141153W42 1W    00000100000000850000000000032W42   HJYHK-J 000000000000
BI00B32W4    4500191589     2022041918009603940              AVS 0.5 W                CCN000001000000001000FN00000000020220401000001000NNE   20220328141153W42 1W    00000100000000850000000000032W42   HJYHK-J 000000000000
BI00B32W4    4500191589     2022041918009604030              AVS 0.85 B               CCN000003000000003000FN00000000020220401000003000NNE   20220328141153W42 1W    00000100000001167700000000032W42   HJYHK-J 000000000000
BI00B32W4    4500191589     2022041918009604060              AVS 0.85 G               CCN000002000000002000FN00000000020220401000002000NNE   20220328141153W42 1W    00000100000001167700000000032W42   HJYHK-J 000000000000
BI00B32W4    4500191589     2022041918009604041              AVS 0.85 GY              CCN000001000000001000FN00000000020220401000001000NNE   20220328141153W42 1W    00000100000001167700000000032W42   HJYHK-J 000000000000
BI00B32W4    4500191589     2022041918009604090              AVS 0.85 L               CCN000001000000001000FN00000000020220401000001000NNE   20220328141153W42 1W    00000100000001167700000000032W42   HJYHK-J 000000000000
BI00B32W4    4500191589     2022041918009604094              AVS 0.85 L/W             CCN000001000000001000FN00000000020220401000001000NNE   20220328141153W42 1W    00000100000001167700000000032W42   HJYHK-J 000000000000
BI00B32W4    4500191589     2022041918009604052              AVS 0.85 P               CCN000001000000001000FN00000000020220401000001000NNE   20220328141153W42 1W    00000100000001167700000000032W42   HJYHK-J 000000000000
BI00B32W4    4500191589     2022041918009604050              AVS 0.85 R               CCN000002000000002000FN00000000020220401000002000NNE   20220328141153W42 1W    00000100000001167700000000032W42   HJYHK-J 000000000000
BI00B32W4    4500191589     2022041918009604040              AVS 0.85 W               CCN000002000000002000FN00000000020220401000002000NNE   20220328141153W42 1W    00000100000001167700000000032W42   HJYHK-J 000000000000
BI00B32W4    4500191589     2022041918009604070              AVS 0.85 Y               CCN000001000000001000FN00000000020220401000001000NNE   20220328141153W42 1W    00000100000001167700000000032W42   HJYHK-J 000000000000
BI00B32W4    4500191589     2022041918009604130              AVS 1.25 B               CCN000000800000000800FN00000000020220401000000800NNE   20220328141153W42 1W    00000080000001643000000000032W42   HJYHK-J 000000000000
BI00B32W4    4500191589     2022041918009604153              AVS 1.25 R/B             CCN000000800000000800FN00000000020220401000000800NNE   20220328141153W42 1W    00000080000001643000000000032W42   HJYHK-J 000000000000
BI00B32W4    4500191589     2022041918009604230              AVS 2 B                  CCN000000500000000500FN00000000020220401000000500NNE   20220328141153W42 1W    00000050000002456500000000032W42   HJYHK-J 000000000000
BI00B32W4    4500191589     2022041918009604250              AVS 2 R                  CCN000000500000000500FN00000000020220401000000500NNE   20220328141153W42 1W    00000050000002456500000000032W42   HJYHK-J 000000000000
BI00B32W4    4500191589     2022041918009604330              AVS 3 B                  CCN000002400000002400FN00000000020220401000002400NNE   20220328141153W42 1W    00000040000003831600000000032W42   HJYHK-J 000000000000
BI00B32W4    4500191589     2022041918009604357              AVS 3 R/Y                CCN000000400000000400FN00000000020220401000000400NNE   20220328141153W42 1W    00000040000003831600000000032W42   HJYHK-J 000000000000
BI00B32W4    4500191589     2022041918007703930              AVSS 0.5F B              CCN000001500000001500FN00000000020220401000001500NNE   20220328141153W42 1W    00000150000000674000000000032W42   HJYHK-J 000000000000
BI00B32W4    4500191589     2022041918007704230              AVSS 2F B                CCN000002500000002500FN00000000020220401000002500NNE   20220328141153W42 1W    00000050000002126400000000032W42   HJYHK-J 000000000000
BI00B32W4    4500191589     2022041918018403730              CAVS 0.3 B               CCN000002000000002000FN00000000020220401000002000NNE   20220328141153W42 1W    00000200000000471000000000032W42   HJYHK-J 000000000000
BI00B32W4    4500191589     2022041918018403739              CAVS 0.3 B/L             CCN000002000000002000FN00000000020220401000002000NNE   20220328141153W42 1W    00000200000000471000000000032W42   HJYHK-J 000000000000
BI00B32W4    4500191589     2022041918018403751              CAVS 0.3 O               CCN000002000000002000FN00000000020220401000002000NNE   20220328141153W42 1W    00000200000000471000000000032W42   HJYHK-J 000000000000
BI00B32W4    4500191589     2022041918018403930              CAVS 0.5 B               CCN000006000000006000FN00000000020220401000006000NNE   20220328141153W42 1W    00000150000000677000000000032W42   HJYHK-J 000000000000
BI00B32W4    4500191589     2022041918018403939              CAVS 0.5 B/L             CCN000001500000001500FN00000000020220401000001500NNE   20220328141153W42 1W    00000150000000677000000000032W42   HJYHK-J 000000000000
BI00B32W4    4500191589     2022041918018403935              CAVS 0.5 B/R             CCN000001500000001500FN00000000020220401000001500NNE   20220328141153W42 1W    00000150000000677000000000032W42   HJYHK-J 000000000000
BI00B32W4    4500191589     2022041918018403934              CAVS 0.5 B/W             CCN000009000000009000FN00000000020220401000009000NNE   20220328141153W42 1W    00000150000000677000000000032W42   HJYHK-J 000000000000
BI00B32W4    4500191589     2022041918018403980              CAVS 0.5 BR              CCN000003000000003000FN00000000020220401000003000NNE   20220328141153W42 1W    00000150000000677000000000032W42   HJYHK-J 000000000000
BI00B32W4    4500191589     2022041918018403984              CAVS 0.5 BR/W            CCN000001500000001500FN00000000020220401000001500NNE   20220328141153W42 1W    00000150000000677000000000032W42   HJYHK-J 000000000000
BI00B32W4    4500191589     2022041918018403987              CAVS 0.5 BR/Y            CCN000003000000003000FN00000000020220401000003000NNE   20220328141153W42 1W    00000150000000677000000000032W42   HJYHK-J 000000000000
BI00B32W4    4500191589     2022041918018403960              CAVS 0.5 G               CCN000006000000006000FN00000000020220401000006000NNE   20220328141153W42 1W    00000150000000677000000000032W42   HJYHK-J 000000000000
BI00B32W4    4500191589     2022041918018403964              CAVS 0.5 G/W             CCN000003000000003000FN00000000020220401000003000NNE   20220328141153W42 1W    00000150000000677000000000032W42   HJYHK-J 000000000000
BI00B32W4    4500191589     2022041918018403990              CAVS 0.5 L               CCN000004500000004500FN00000000020220401000004500NNE   20220328141153W42 1W    00000150000000677000000000032W42   HJYHK-J 000000000000
BI00B32W4    4500191589     2022041918018403995              CAVS 0.5 L/R             CCN000001500000001500FN00000000020220401000001500NNE   20220328141153W42 1W    00000150000000677000000000032W42   HJYHK-J 000000000000
BI00B32W4    4500191589     2022041918018403994              CAVS 0.5 L/W             CCN000001500000001500FN00000000020220401000001500NNE   20220328141153W42 1W    00000150000000677000000000032W42   HJYHK-J 000000000000
BI00B32W4    4500191589     2022041918018403997              CAVS 0.5 L/Y             CCN000001500000001500FN00000000020220401000001500NNE   20220328141153W42 1W    00000150000000677000000000032W42   HJYHK-J 000000000000
BI00B32W4    4500191589     2022041918018403961              CAVS 0.5 LG              CCN000001500000001500FN00000000020220401000001500NNE   20220328141153W42 1W    00000150000000677000000000032W42   HJYHK-J 000000000000
BI00B32W4    4500191589     2022041918018403951              CAVS 0.5 O               CCN000001500000001500FN00000000020220401000001500NNE   20220328141153W42 1W    00000150000000677000000000032W42   HJYHK-J 000000000000
BI00B32W4    4500191589     2022041918018403952              CAVS 0.5 P               CCN000003000000003000FN00000000020220401000003000NNE   20220328141153W42 1W    00000150000000677000000000032W42   HJYHK-J 000000000000
BI00B32W4    4500191589     2022041918018403950              CAVS 0.5 R               CCN000003000000003000FN00000000020220401000003000NNE   20220328141153W42 1W    00000150000000677000000000032W42   HJYHK-J 000000000000
BI00B32W4    4500191589     2022041918018403956              CAVS 0.5 R/G             CCN000001500000001500FN00000000020220401000001500NNE   20220328141153W42 1W    00000150000000677000000000032W42   HJYHK-J 000000000000
BI00B32W4    4500191589     2022041918018403954              CAVS 0.5 R/W             CCN000004500000004500FN00000000020220401000004500NNE   20220328141153W42 1W    00000150000000677000000000032W42   HJYHK-J 000000000000
BI00B32W4    4500191589     2022041918018403957              CAVS 0.5 R/Y             CCN000001500000001500FN00000000020220401000001500NNE   20220328141153W42 1W    00000150000000677000000000032W42   HJYHK-J 000000000000
BI00B32W4    4500191589     2022041918018403992              CAVS 0.5 V               CCN000001500000001500FN00000000020220401000001500NNE   20220328141153W42 1W    00000150000000677000000000032W42   HJYHK-J 000000000000
BI00B32W4    4500191589     2022041918018403940              CAVS 0.5 W               CCN000003000000003000FN00000000020220401000003000NNE   20220328141153W42 1W    00000150000000677000000000032W42   HJYHK-J 000000000000
BI00B32W4    4500191589     2022041918018403943              CAVS 0.5 W/B             CCN000001500000001500FN00000000020220401000001500NNE   20220328141153W42 1W    00000150000000677000000000032W42   HJYHK-J 000000000000
BI00B32W4    4500191589     2022041918018403945              CAVS 0.5 W/R             CCN000001500000001500FN00000000020220401000001500NNE   20220328141153W42 1W    00000150000000677000000000032W42   HJYHK-J 000000000000
BI00B32W4    4500191589     2022041918018403970              CAVS 0.5 Y               CCN000003000000003000FN00000000020220401000003000NNE   20220328141153W42 1W    00000150000000677000000000032W42   HJYHK-J 000000000000
BI00B32W4    4500191589     2022041918018403975              CAVS 0.5 Y/R             CCN000003000000003000FN00000000020220401000003000NNE   20220328141153W42 1W    00000150000000677000000000032W42   HJYHK-J 000000000000
BI00B32W4    4500191589     2022041918018404030              CAVS 0.85 B              CCN000001000000001000FN00000000020220401000001000NNE   20220328141153W42 1W    00000100000000965000000000032W42   HJYHK-J 000000000000
BI00B32W4    4500191589     2022041918018404070              CAVS 0.85 Y              CCN000001000000001000FN00000000020220401000001000NNE   20220328141153W42 1W    00000100000000965000000000032W42   HJYHK-J 000000000000
BI00B32W4    4500191589     2022041918018404130              CAVS 1.25 B              CCN000003200000003200FN00000000020220401000003200NNE   20220328141153W42 1W    00000080000001378000000000032W42   HJYHK-J 000000000000
BI00B32W4    4500191589     2022041918018404160              CAVS 1.25 G              CCN000000800000000800FN00000000020220401000000800NNE   20220328141153W42 1W    00000080000001378000000000032W42   HJYHK-J 000000000000
BI00B32W4    4500191589     2022041918018404190              CAVS 1.25 L              CCN000002400000002400FN00000000020220401000002400NNE   20220328141153W42 1W    00000080000001378000000000032W42   HJYHK-J 000000000000
BI00B32W4    4500191589     2022041918018404150              CAVS 1.25 R              CCN000001600000001600FN00000000020220401000001600NNE   20220328141153W42 1W    00000080000001378000000000032W42   HJYHK-J 000000000000
BI00B32W4    4500191589     2022041918018404140              CAVS 1.25 W              CCN000000800000000800FN00000000020220401000000800NNE   20220328141153W42 1W    00000080000001378000000000032W42   HJYHK-J 000000000000
BI00B32W4    4500191555     20220503180D0203930              AVSSH 0.5F B             CCN000001500000001500FN00000000020220501000001500NNE   20220328141155W41 1W    00000150000000689000000000032W41   HJYHK-J 000000000000OZ324001
BI00B32W4    4500191555     20220503180D0203940              AVSSH 0.5F W             CCN000004500000004500FN00000000020220501000004500NNE   20220328141155W41 1W    00000150000000689000000000032W41   HJYHK-J 000000000000OZ324003
BI00B32W4    4500191555     20220503180D0203960              AVSSH 0.5F G             CCN000003000000003000FN00000000020220501000003000NNE   20220328141155W41 1W    00000150000000689000000000032W41   HJYHK-J 000000000000OZ324002
BI00B32W4    4500191555     20220503180D0203970              AVSSH 0.5F Y             CCN000004500000004500FN00000000020220501000004500NNE   20220328141155W41 1W    00000150000000689000000000032W41   HJYHK-J 000000000000OZ324004
BI00B32W4    4500191557     20220517180D0203930              AVSSH 0.5F B             CCN000006000000006000FN00000000020220501000006000NNE   20220328141156W41 1W    00000150000000689000000000032W41   HJYHK-J 000000000000OI126001
BI00B32W4    4500191557     20220517180D0203940              AVSSH 0.5F W             CCN000006000000006000FN00000000020220501000006000NNE   20220328141156W41 1W    00000150000000689000000000032W41   HJYHK-J 000000000000OI126003
BI00B32W4    4500191557     20220517180D0203960              AVSSH 0.5F G             CCN000006000000006000FN00000000020220501000006000NNE   20220328141156W41 1W    00000150000000689000000000032W41   HJYHK-J 000000000000OI126002
BI00B32W4    4500191557     20220517180D0203970              AVSSH 0.5F Y             CCN000006000000006000FN00000000020220501000006000NNE   20220328141156W41 1W    00000150000000689000000000032W41   HJYHK-J 000000000000OI126004
BI00B32W4    4500191585     20220503180S7703950              ACAVSS 0.5F R            CCN000001500000001500FN00000000020220501000001500NNE   20220328141157W41 1W    00000150000000645400000000032W41   HJYHK-J 000000000000OD324002
BI00B32W4    4500191585     20220503180S7703930              ACAVSS 0.5F B            CCN000001500000001500FN00000000020220501000001500NNE   20220328141157W41 1W    00000150000000645400000000032W41   HJYHK-J 000000000000OD324001
BI00B32W9    4500191587     2022041918000004554              AV 8 R/W                 CCN000000400000000400FN00000000020220401000000400NNE   20220328140721W93 1W    00000010000010466200000000032W93   HKYHK   000000000000ZE124001
BI00B32W9    4500191587     2022041918009604459              AVS 5 R/L                CCN000000400000000400FN00000000020220401000000400NNE   20220328140721W93 1W    00000020000005981000000000032W93   HKYHK   000000000000ZE124002
BI00B32W9    4500191587     2022041918009604253              AVS 2 R/B                CCN000000500000000500FN00000000020220401000000500NNE   20220328140721W93 1W    00000050000002456500000000032W93   HKYHK   000000000000ZE124003
BI00B32W9    4500191587     2022041918009604434              AVS 5 B/W                CCN000000200000000200FN00000000020220401000000200NNE   20220328140721W93 1W    00000020000005981000000000032W93   HKYHK   000000000000ZE124004
BI00B32X5    TWB2024        202205131801W004050              IVSSH 0.75F R            CCN000002600000002600FN00000000020220701000002600NNE   20220328160333X5  1W    00000130000000882000000000032X5    EPYNA-E 000000000000AE424006
BI00B32X5    TWB2024        202205131801W006930              IVSSH 0.35F B            CCN000037500000037500FN00000000020220701000037500NNE   20220328160333X5  1W    00000250000000452000000000032X5    EPYNA-E 000000000000AE424007
BI00B32X5    TWB2024        202205131801W006940              IVSSH 0.35F W            CCN000012500000012500FN00000000020220701000012500NNE   20220328160333X5  1W    00000250000000452000000000032X5    EPYNA-E 000000000000AE424012
BI00B32X5    TWB2024        202205131801W006943              IVSSH 0.35F W/B          CCN000007500000007500FN00000000020220701000007500NNE   20220328160333X5  1W    00000250000000452000000000032X5    EPYNA-E 000000000000AE424013
BI00B32X5    TWB2024        202205131801W006950              IVSSH 0.35F R            CCN000015000000015000FN00000000020220701000015000NNE   20220328160333X5  1W    00000250000000452000000000032X5    EPYNA-E 000000000000AE424010
BI00B32X5    TWB2024        202205131801W006952              IVSSH 0.35F P            CCN000002500000002500FN00000000020220701000002500NNE   20220328160333X5  1W    00000250000000452000000000032X5    EPYNA-E 000000000000AE424009
BI00B32X5    TWB2024        202205131801W006970              IVSSH 0.35F Y            CCN000010000000010000FN00000000020220701000010000NNE   20220328160333X5  1W    00000250000000452000000000032X5    EPYNA-E 000000000000AE424014
BI00B32X5    TWB2024        202205131801W006990              IVSSH 0.35F L            CCN000027500000027500FN00000000020220701000027500NNE   20220328160333X5  1W    00000250000000452000000000032X5    EPYNA-E 000000000000AE424008
BI00B32X5    TWB2024        202205131801W006992              IVSSH 0.35F V            CCN000002500000002500FN00000000020220701000002500NNE   20220328160333X5  1W    00000250000000452000000000032X5    EPYNA-E 000000000000AE424011
