BI00B1200    8750T52401     202206027289-3342                HOUSING FEMALE ASS'Y     CCN000007200000007200FN00000000020220601000007200NNMD0420220328163100    1N0N  0000024000000068640000090141200    YCYC    005500360039
BI00B1200    Y122E030       202205057288-3330-30             HOUSING MALE             CCN000001500000001500FN00000000020220501000001500NNED0420220328162644    4N0N  0000015000000086630000101121200    YCYC    005400370024
BI00B1200    2399T52414     202205127172-5540-80             SEALED WIRE SEAL         CCN000200000000200000FN00000000020220601000200000NNMD0420220328121315    1C0C  0000200000000018600000023441200    YCYC    004300270014
BI00B1200    2399T52415     202205197172-5540-80             SEALED WIRE SEAL         CCN000180000000180000FN00000000020220601000180000NNMD0420220328121315    1C0C  0000200000000018600000023441200    YCYC    004300270014
BI00B1200    2399T52416     202205267172-5540-80             SEALED WIRE SEAL         CCN000180000000180000FN00000000020220601000180000NNMD0420220328121315    1C0C  0000200000000018600000023441200    YCYC    004300270014
BI00B1200    2399T52417     202206027172-5540-80             SEALED WIRE SEAL         CCN000180000000180000FN00000000020220601000180000NNMD0420220328121315    1C0C  0000200000000018600000023441200    YCYC    004300270014
BI00B1200    2399T52418     202207277288-6547                CONNECTOR MALE ASS'Y     CCN000100500000100500FN00000000020220601000100500NNMD0420220328162752    4N0N  0000007500000120530000134031200    YCYC    005400370024
BI00B1200    2399T52419     202207277288-6547                CONNECTOR MALE ASS'Y     CCN000100500000100500FN00000000020220601000100500NNMD0420220328162847    4N0N  0000007500000120530000134031200    YCYC    005400370024
BI00B1200    2399T52420     202208047288-6547                CONNECTOR MALE ASS'Y     CCN000099750000099750FN00000000020220601000099750NNMD0420220328162907    4N0N  0000007500000120530000134031200    YCYC    005400370024
BI00B1200    2399T52421     202208047288-6547                CONNECTOR MALE ASS'Y     CCN000099750000099750FN00000000020220601000099750NNMD0420220328162921    4N0N  0000007500000120530000134031200    YCYC    005400370024
BI00B1200    2399T52422     202206027289-3342                HOUSING FEMALE ASS'Y     CCN000002400000002400FN00000000020220601000002400NNMD0420220328163027    1N0N  0000024000000068640000090141200    YCYC    005500360039
BI00B1200    7360T52401     202205057288-3329-30             HOUSING MALE             CCN000001500000001500FN00000000020220501000001500NNED0420220328162625    4N0N  0000015000000086610000101111200    YCYC    005400370024
BI00B1200    7360T52401     202205057288-3335-30             HOUSING MALE             CCN000001500000001500FN00000000020220501000001500NNED0420220328162707    4N0N  0000015000000086700000101201200    YCYC    005400370024
BI00B1200    7360T52401     202205057288-3340-30             HOUSING MALE             CCN000009000000009000FN00000000020220501000009000NNED0420220328162731    4N0N  0000015000000086150000100641200    YCYC    005400370024
BI00B1200    7360T52401     202208187289-3342-30             HOUSING FEMALE ASS'Y     CCN000019200000019200FN00000000020220501000019200NNED0420220328163136    1N0N  0000024000000068640000090141200    YCYC    005500360039
BI00B1200    7360T52402     202208187289-3342-30             HOUSING FEMALE ASS'Y     CCN000033600000033600FN00000000020220601000033600NNMD0420220328163152    1N0N  0000024000000068640000090141200    YCYC    005500360039
BI00B1200    7360T52403     202208257289-3342-30             HOUSING FEMALE ASS'Y     CCN000033600000033600FN00000000020220601000033600NNMD0420220328163221    1N0N  0000024000000068640000090141200    YCYC    005500360039
BI00B1200    7360T52404     202208257289-3342-30             HOUSING FEMALE ASS'Y     CCN000033600000033600FN00000000020220601000033600NNMD0420220328163240    1N0N  0000024000000068640000090141200    YCYC    005500360039
BI00B1200    8100T52409     202207277288-6547                CONNECTOR MALE ASS'Y     CCN000001500000001500FN00000000020220601000001500NNMD0420220328162833    4N0N  0000007500000120530000134031200    YCYC    005400370024
BI00B1200    8100T52409     202206027289-3342                HOUSING FEMALE ASS'Y     CCN000002400000002400FN00000000020220601000002400NNMD0420220328163045    1N0N  0000024000000068640000090141200    YCYC    005500360039
BI00B1200    8100T52409     202208187289-3342-30             HOUSING FEMALE ASS'Y     CCN000002400000002400FN00000000020220601000002400NNMD0420220328163207    1N0N  0000024000000068640000090141200    YCYC    005500360039
BI00B1200    8100T52409     202205267289-3342-90             HOUSING FEMALE ASS'Y     CCN000002400000002400FN00000000020220601000002400NNMD0420220328163300    1N0N  0000024000000068640000090141200    YCYC    005500360039
BI00B1200    O022E50433     202205197289-4696-30             HOUSING FEMALE ASS'Y     CCN000006000000006000FN00000000020220601000006000NNED0220220328165008    4N0N  0000020000000091340000105541200    YCYC    005400370024
BI00B1200    H722G50004     202206027297-1861-30             HOUSING MALE ASS'Y       CCN000009000000009000FN00000000020220701000009000NNE   20220328121315    4N0N  0000015000000070220000082731200    YCYC    005400370024
BI00B32B1    A22024         202205137288-3339-30             HOUSING MALE             CCN000003000000003000FN00000000020220701000003000NNM   20220328121315B1  4N0N  00000150000000867000001012032B1    AXARNE-M005400370024
BI00B32B1    A22024         202205137289-3342-30             HOUSING FEMALE ASS'Y     CCN000002400000002400FN00000000020220701000002400NNM   20220328121315B1  1N0N  00000240000000686400000901432B1    AXARNE-M005500360039
BI00B32B1    A22024         202205137289-3342-90             HOUSING FEMALE ASS'Y     CCN000002400000002400FN00000000020220701000002400NNM   20220328121315B1  1N0N  00000240000000686400000901432B1    AXARNE-M005500360039
BI00B32B1    #A22024        202205137157-3891                RUBBER STOPPER           CCN000010000000010000FN00000000020220701000010000NNM   20220328121315B1  2H0H  00001000000000145000000241732B1    AXARNE-M004300270014
BI00B32B1    #A22024        202205137158-3376-50             CONNECTOR WIRE SEAL      CCN000200000000200000FN00000000020220701000200000NNM   20220328121315B1  2C0C  00002000000000184000000240732B1    AXARNE-M002700430014
BI00B32B1    #A22024        202205137282-8395-40             CONNECTOR                CCN000010000000010000FN00000000020220701000010000NNM   20220328121315B1  2N0N  00000100000001009000001188032B1    AXARNE-M005500360039
BI00B32B1    #A22024        202205137283-8226-30             CONNECTOR                CCN000012000000012000FN00000000020220701000012000NNM   20220328121315B1  2N0N  00000200000000820000001008032B1    AXARNE-M005400370024
BI00B32B1    #A22024        202205137283-8397-40             CONNECTOR                CCN000001540000001540FN00000000020220701000001540NNM   20220328121315B1  2N0N  00000154000001007000001222732B1    AXARNE-M005600390023
BI00B32B6    A72024         202205137116-4037                TERMINAL                 CCN000006000000006000FN00000000020220801000006000NNM   20220328121315B6  4P0P  00000600000000600000000894232B6    AXARNE-M006400630015
BI00B32B6    A72024         202205137017-1180-02             TERMINAL                 CCN000072000000072000FN00000000020220801000072000NNM   20220328121315B6  4P0P  00007200000001065600001229032B6    AXARNE-M005100280028
BI00B32B6    A72024         202205137017-1181-02             TERMINAL                 CCN000063000000063000FN00000000020220801000063000NNM   20220328121315B6  4P0P  00006300000001089900001266832B6    AXARNE-M005100280028
BI00B32B6    A72024         202205137116-5045-02             TERMINAL                 CCN000032000000032000FN00000000020220801000032000NNM   20220328121315B6  4P0P  00001600000000678400001007132B6    AXARNE-M006400630017
BI00B32B6    A72024         202205137158-3166-60             WIRE SEAL                CCN000240000000240000FN00000000020220801000240000NNM   20220328121315B6  1C0C  00004000000000104000000152432B6    AXARNE-M002700430014
BI00B32B6    A72024         202205137158-3167-80             WIRE SEAL                CCN000160000000160000FN00000000020220801000160000NNM   20220328121315B6  1C0C  00002000000000048000000109032B6    AXARNE-M002700430014
BI00B32B6    A72024         202205137158-3169-40             SEALING PLUG             CCN000160000000160000FN00000000020220801000160000NNM   20220328121315B6  1C0C  00004000000000156000000204132B6    AXARNE-M004300260014
BI00B32B6    A72024         202205137287-0192-40             SEALED HOUSING ASS'Y     CCN000001440000001440FN00000000020220801000001440NNM   20220328121315B6  4N0N  00000048000001092000001322032B6    AXARNE-M005600390040
BI00B32B6    #A72024        202205137158-3017                RUBBER STOPPER           CCN000010000000010000FN00000000020220801000010000NNM   20220328121315B6  2C0C  00001000000000375500000435032B6    AXARNE-M002700430014
BI00B32B7    A82024         202205137158-3167-80             WIRE SEAL                CCN000200000000200000FN00000000020220801000200000NNM   20220328121315B7  1C0C  00002000000000048000000109032B7    AXARNE-M002700430014
BI00B32B7    A82024         202205137158-3168-80             SEALED                   CCN000040000000040000FN00000000020220801000040000NNM   20220328121315B7  1C0C  00002000000000044000000092132B7    AXARNE-M004300260014
BI00B32B7    A82024         202205137158-3169-40             SEALING PLUG             CCN000040000000040000FN00000000020220801000040000NNM   20220328121315B7  1C0C  00004000000000156000000204132B7    AXARNE-M004300260014
BI00B32B7    A82024         202205137282-6448-40             CONNECTOR                CCN000012800000012800FN00000000020220801000012800NNM   20220328121315B7  4N0N  00000080000000887000001152732B7    AXARNE-M005600390040
BI00B32B7    #A82024        202205137135-7031                GROMMET                  CCN000004600000004600FN00000000020220801000004600NNM   20220328121315B7  2H0H  00000010000000634200000744232B7    AXARNE-M005400370024
BI00B32B7    #A82024        202205137158-3376-50             CONNECTOR WIRE SEAL      CCN000100000000100000FN00000000020220801000100000NNM   20220328121315B7  2C0C  00002000000000184000000240732B7    AXARNE-M002700430014
BI00B32B7    #A82024        202205137282-8395-40             CONNECTOR                CCN000001000000001000FN00000000020220801000001000NNM   20220328121315B7  2N0N  00000100000001009000001188032B7    AXARNE-M005500360039
BI00B32B7    #A82024        202205137283-8397-40             CONNECTOR                CCN000004620000004620FN00000000020220801000004620NNM   20220328121315B7  2N0N  00000154000001007000001222732B7    AXARNE-M005600390023
BI00B32B7    #A82024        202205137283-8398-40             CONNECTOR                CCN000004620000004620FN00000000020220801000004620NNM   20220328121315B7  2N0N  00000154000001007000001171332B7    AXARNE-M005600390023
BI00A32DA    SBT2203        202203297289-3342-30             HOUSING FEMALE ASS'Y     CCN000026400000026400FY00002640020220301000000000NNMD0420220328153704    1N0N  00000240000000686400000901432DA    GBYIPLGB005500360039
BI00B32D1    DFTC2225       202205057289-3342                HOUSING FEMALE ASS'Y     CCN000028800000028800FN00000000020220601000028800NNMD0420220328153514    1N0N  00000240000000686400000901432D1    TOYOT-K 005500360039
BI00B32D1    DFTC2225       202205267289-3342-30             HOUSING FEMALE ASS'Y     CCN000019200000019200FN00000000020220601000019200NNMD0420220328153535    1N0N  00000240000000686400000901432D1    TOYOT-K 005500360039
BI00B32D1    DFTC2225       202205057289-3342-40             HOUSING FEMALE ASS'Y     CCN000002400000002400FN00000000020220601000002400NNMD0420220328153549    1N0N  00000240000000686400000901432D1    TOYOT-K 005500360039
BI00B32D1    DFTC2225       202205057289-3342-90             HOUSING FEMALE ASS'Y     CCN000007200000007200FN00000000020220601000007200NNMD0420220328153604    1N0N  00000240000000686400000901432D1    TOYOT-K 005500360039
BI00B32D2    #DGTC2225      202205127172-5630-40             RUBBER STOPPER           CCN000160000000160000FN00000000020220601000160000NNMD0220220328160759    2H0H  00002000000000044000000095132D2    TGYOT-G 004300270014
BI00A32D9    I21605         202203307289-3342                HOUSING FEMALE ASS'Y     PCN000014400000014400FN00000000020220401000014400NNMD0020220328135131    1N0N  00000240000000686400000901432D9    UEHESTO 005500360039
BI00B32EJ    T220325P01     202206237283-5574-10             CONNECTOR                CCN000005600000005600FN00000000020220601000005600NNE   20220328121315EJ  4N0N  00000080000001235000001435232EJ    EJYKBO  005500360039
BI00B32EJ    T220325P02     202204287283-5574-10             CONNECTOR                CCN000005600000005600FN00000000020220401000005600NNE   20220328121315EJ  4N0N  00000080000001235000001435232EJ    EJYKBO  005500360039
BI00B32EJ    T220325P02     202204287283-1289                CONNECTOR HOUSING        CCN000000600000000600FN00000000020220401000000600NNE   20220328121315EJ  1N0N  00000060000000676200000817632EJ    EJYKBO  005400370024
BI00B32EJ    #T220325P02    202204287158-3120-90             CONNECTOR WIRE SEAL      CCN000040000000040000FN00000000020220401000040000NNE   20220328121315EJ  2C0C  00002000000000136000000194032EJ    EJYKBO  002700430014
BI00B32EJ    T220325P03     202204287158-3169-40             SEALING PLUG             CCN000040000000040000FN00000000020220401000040000NNE   20220328121315EJ  1C0C  00004000000000156000000204132EJ    EJYKBO  004300260014
BI00B32EJ    T220325P03     202204287114-4231-02             TERMINAL                 CCN000018000000018000FN00000000020220401000018000NNE   20220328121315EJ  4P0P  00001800000000554400000848032EJ    EJYKBO  006400630015
BI00B32EJ    T220325P04     202204287116-4104-02             TERMINAL                 CCN000012000000012000FN00000000020220401000012000NNE   20220328121315EJ  4P0P  00001200000000580800000972432EJ    EJYKBO  006400630015
BI00B32EJ    T220325P04     202204287116-4102-02             TERMINAL                 CCN000036000000036000FN00000000020220401000036000NNE   20220328121315EJ  4P0P  00001200000000553200000841432EJ    EJYKBO  006400630015
BI00B32EJ    T220325P04     202204287116-4100-02             TERMINAL                 CCN000045000000045000FN00000000020220401000045000NNE   20220328121315EJ  4P0P  00001500000000696000000990232EJ    EJYKBO  006400630015
BI00B32EJ    T220325P04     202204287116-4112-02             TERMINAL                 CCN000006000000006000FN00000000020220401000006000NNE   20220328121315EJ  4P0P  00000600000000450000000738232EJ    EJYKBO  006400630015
BI00B32EJ    T220325P05     202204287114-4110-02             TERMINAL                 CCN000030000000030000FN00000000020220401000030000NNE   20220328121315EJ  4P0P  00001500000000901500001230132EJ    EJYKBO  006400630017
BI00B32EJ    T220325P05     202204287283-5843                CONNECTOR                CCN000030000000030000FN00000000020220401000030000NNE   20220328121315EJ  1N0N  00000150000000889000001132032EJ    EJYKBO  005600390040
BI00B32EJ    T220325P05     202204287289-9553-30             SEALED ASSY FEMALE       CCN000005880000005880FN00000000020220401000005880NNE   20220328121315EJ  4N0N  00000294000001109000001521532EJ    EJYKBO  005500360039
BI00B32EJ    T220325P06     202204287116-2951-02             TERMINAL                 CCN000005400000005400FN00000000020220401000005400NNE   20220328121315EJ  4P0P  00000540000000817600001111832EJ    EJYKBO  006400630015
BI00B32EJ    T220325P06     202204287116-4100-02             TERMINAL                 CCN000015000000015000FN00000000020220401000015000NNE   20220328121315EJ  4P0P  00001500000000696000000990232EJ    EJYKBO  006400630015
BI00B32EJ    T220325P06     202204287116-4120-02             TERMINAL                 CCN000030000000030000FN00000000020220401000030000NNE   20220328121315EJ  4P0P  00000600000000780000001073632EJ    EJYKBO  006400630015
BI00B32EJ    T220325P06     202204287116-5751-02             TERMINAL                 CCN000012000000012000FN00000000020220401000012000NNE   20220328121315EJ  4P0P  00001200000000379200000664432EJ    EJYKBO  006400630015
BI00B32EJ    T220325P06     202204287158-3070-80             RUBBER STOPPER           CCN000160000000160000FN00000000020220401000160000NNE   20220328121315EJ  1C0C  00004000000000276000000333332EJ    EJYKBO  002700430014
BI00B32EJ    T220325P06     202204287222-7564-40             CONNECTOR                CCN000000500000000500FN00000000020220401000000500NNE   20220328121315EJ  1N0N  00000050000000967000001097032EJ    EJYKBO  005500360039
BI00B32EJ    T220325P06     202204287283-1020                CONNECTOR                CCN000024000000024000FN00000000020220401000024000NNE   20220328121315EJ  4N0N  00000600000000840000001049332EJ    EJYKBO  005600390040
BI00B32EJ    #T220325P06    202204287123-6423-30             CONNECTOR                CCN000010000000010000FN00000000020220401000010000NNE   20220328121315EJ  2F0F  00000200000001002000001167632EJ    EJYKBO  005600390023
BI00B32EJ    #T220325P06    202204287157-3821                RUBBER STOPPER           CCN000040000000040000FN00000000020220401000040000NNE   20220328121315EJ  2C0C  00002000000000176000000238032EJ    EJYKBO  002700430014
BI00B32EJ    #T220325P06    202204287283-8398-40             CONNECTOR                CCN000030800000030800FN00000000020220401000030800NNE   20220328121315EJ  2N0N  00000154000001007000001171332EJ    EJYKBO  005600390023
BI00B32G7    JJ2205DMMW     202204077195-1943-02             TERMINAL MALE            CCN000012000000012000FN00000000020220501000012000NNE   20220328134917    4P0P  00001200000000523200000851832G7    JIJAI   006400630017
BI00B32G8    PATA2051A      202204067017-1181-02             TERMINAL                 CCN000063000000063000FN00000000020220501000063000NNE   20220328121315    4P0P  00006300000001089900001266832G8    PSPASI  005100280028
BI00B32G8    PATA2051A      202204067470-5946                J/B COMPLETE ASS'Y       CCN000000230000000230FN00000000020220501000000230NNE   20220328121315    4J0J  00000001000000494000000661032G8    PSPASI  005400370024
BI00B32H2    #TIJ2043       202204017172-5629-80             RUBBER STOPPER           CCN000440000000440000FN00000000020220401000440000NNM00020220328155045    2H0H  00002000000000060000000111132H2    HVYHV   004300270014
BI00A32J1    #393079        202204117137-3188-90             RH CPA                   CCN000014400000014400FN00000000020220401000014400NNED0720220328144112    2F0F  00000240000000000000000000032J1    UKYEL-BL000000000000
BI00B32M1    TCV204C        202205127288-6547                CONNECTOR MALE ASS'Y     CCN000012750000012750FN00000000020220401000012750NNED0420220328162939    4N0N  00000075000001205300001340332M1    VNYEV   005400370024
BI00B32M8    PM2204C MW     202204277288-3335-30             HOUSING MALE             CCN000001500000001500FN00000000020220401000001500NNED0420220328164115    4N0N  00000150000000867000001012032M8    PMPEMI  005400370024
BI00A32N1    NST2118TCU     202204047283-1928-80             CONNECTOR                CCN000002000000002000FN00000000020220501000002000NNEM0020220328165658    4N0N  00000200000001180000001358332N1    TAYIPL  005500360039
BI00A32N1    NST2118TCU     202204047282-7028-30             CONNECTOR                CCN000004000000004000FN00000000020220501000004000NNEM0020220328165658    1N0N  00000200000001124000001212532N1    TAYIPL  005600390040
BI00A32N1    NST2118TCU     202204047196-0511-02             TERMINAL                 CCN000008000000024000FN00000000020220501000024000NNEM0020220328165658    4P0P  00002400000000916800001080232N1    TAYIPL  002800510028
BI00B32N1    NST2118ICU     202204217283-5845                CONNECTOR HOUSING        CCN000012000000012000FN00000000020220501000012000NNED0420220328165030    1N0N  00000600000000444000000606332N1    TAYIPL  005400370024
BI00B32N1    NST2118ICU     202204077158-3166-60             WIRE SEAL                CCN002560000001280000FN00000000020220501001280000NNEQ0420220328121315    1C0C  00004000000000104000000152432N1    TAYIPL  002700430014
BI00B32N1    NST2118ICU     202204287158-3167-80             WIRE SEAL                CCN002420000000800000FN00000000020220501000800000NNEQ0420220328121315    1C0C  00002000000000048000000109032N1    TAYIPL  002700430014
BI00B32N1    NST2118ICU     202204077158-3168-80             SEALED                   CCN001860000000620000FN00000000020220501000620000NNEQ0420220328121315    1C0C  00002000000000044000000092132N1    TAYIPL  004300260014
BI00B32N1    NST2118ICU     202205057158-3166-60             WIRE SEAL                CCN001280000001280000FN00000000020220501001280000NNED0420220328121315    1C0C  00004000000000104000000152432N1    TAYIPL  002700430014
BI00B32N1    NST2118ICU     202204217158-3168-80             SEALED                   CCN000620000000620000FN00000000020220501000620000NNED0420220328121315    1C0C  00002000000000044000000092132N1    TAYIPL  004300260014
BI00B32N1    NST2118ICU     202204287158-3168-80             SEALED                   CCN000620000000620000FN00000000020220501000620000NNED0420220328121315    1C0C  00002000000000044000000092132N1    TAYIPL  004300260014
BI00B32N1    NST2118ICU     202205197158-3167-80             WIRE SEAL                CCN000800000000800000FN00000000020220501000800000NNED0420220328121315    1C0C  00002000000000048000000109032N1    TAYIPL  002700430014
BI00B32N1    NST2118ICU     202205267158-3167-80             WIRE SEAL                CCN000800000000800000FN00000000020220501000800000NNED0420220328121315    1C0C  00002000000000048000000109032N1    TAYIPL  002700430014
BI00B32P8    TAPI-2053      202204127282-9391                HOUSING MALE ASS'Y       CCN000001200000001200FN00000000020220501000001200NNMD0020220328172003    4N0N  00000120000001017600001237632P8    YIYTM   005500360039
BI00B32P8    TAPI-2053      202204127288-3329-30             HOUSING MALE             CCN000003000000003000FN00000000020220501000003000NNMD0020220328142820    4N0N  00000150000000866100001011132P8    YIYTM   005400370024
BI00B32P8    TAPI-2053      202204127288-3335-30             HOUSING MALE             CCN000000400000001500FN00000000020220501000001500NNMD0020220328142858    4N0N  00000150000000867000001012032P8    YIYTM   005400370024
BI00B32P8    TAPI-2053      202204127288-3339-30             HOUSING MALE             CCN000001500000001500FN00000000020220501000001500NNMD0020220328142858    4N0N  00000150000000867000001012032P8    YIYTM   005400370024
BI00B32P8    TAPI-2053      202204127288-3340-30             HOUSING MALE             CCN000003000000003000FN00000000020220501000003000NNMD0020220328142858    4N0N  00000150000000861500001006432P8    YIYTM   005400370024
BI00B32P8    TAPI-2053      202204127289-3342-30             HOUSING FEMALE ASS'Y     CCN000007200000007200FN00000000020220501000007200NNMD0020220328142921    1N0N  00000240000000686400000901432P8    YIYTM   005500360039
BI00B32Q8    EU22052TMW     202204127288-3338-30             HOUSING MALE             CCN000003000000003000FN00000000020220501000003000NNMD0020220328142515    4N0N  00000150000000866100001012032Q8    EMEMI   005400370024
BI00B32U5    DI2024         202205137114-4032                TERMINAL                 CCN000007500000007500FN00000000020220701000007500NNM   20220328121315U5  4P0P  00000750000000735000001063632U5    AMAMSD  006400630017
BI00B32U5    DI2024         202205137116-4037                TERMINAL                 CCN000048000000048000FN00000000020220701000048000NNM   20220328121315U5  4P0P  00000600000000600000000894232U5    AMAMSD  006400630015
BI00B32U5    DI2024         202205137289-3342                HOUSING FEMALE ASS'Y     CCN000016800000016800FN00000000020220701000016800NNM   20220328121315U5  1N0N  00000240000000686400000901432U5    AMAMSD  005500360039
BI00B32U5    DI2024         202205137017-1180-02             TERMINAL                 CCN000216000000216000FN00000000020220701000216000NNM   20220328121315U5  4P0P  00007200000001065600001229032U5    AMAMSD  005100280028
BI00B32U5    DI2024         202205137017-1182-02             TERMINAL                 CCN000090000000090000FN00000000020220701000090000NNM   20220328121315U5  4P0P  00004500000001165500001318632U5    AMAMSD  005100280028
BI00B32U5    DI2024         202205137017-1183-02             TERMINAL                 CCN000054000000054000FN00000000020220701000054000NNM   20220328121315U5  4P0P  00002700000001139400001307432U5    AMAMSD  005100280028
BI00B32U5    DI2024         202205137114-4486-02             TERMINAL                 CCN000024000000024000FN00000000020220701000024000NNM   20220328121315U5  4P0P  00002400000000662400000956032U5    AMAMSD  006400630015
BI00B32U5    DI2024         202205137114-4624-02             TERMINAL                 CCN000048000000048000FN00000000020220701000048000NNM   20220328121315U5  4P0P  00002400000000895200001188832U5    AMAMSD  006400630015
BI00B32U5    DI2024         202205137116-1685-02             TERMINAL                 CCN000168000000168000FN00000000020220701000168000NNM   20220328121315U5  4P0P  00002400000000897600001065232U5    AMAMSD  005100280028
BI00B32U5    DI2024         202205137116-1686-02             TERMINAL                 CCN000042000000042000FN00000000020220701000042000NNM   20220328121315U5  4P0P  00002100000000869400001021632U5    AMAMSD  005100280028
BI00B32U5    DI2024         202205137116-4486-02             TERMINAL                 CCN000140000000140000FN00000000020220701000140000NNM   20220328121315U5  4P0P  00002800000000666400000995132U5    AMAMSD  006400630017
BI00B32U5    DI2024         202205137116-5045-02             TERMINAL                 CCN000256000000256000FN00000000020220701000256000NNM   20220328121315U5  4P0P  00001600000000678400001007132U5    AMAMSD  006400630017
BI00B32U5    DI2024         202205137116-5046-02             TERMINAL                 CCN000132000000132000FN00000000020220701000132000NNM   20220328121315U5  4P0P  00001200000000544800000873532U5    AMAMSD  006400630017
BI00B32U5    DI2024         202205137158-3167-80             WIRE SEAL                CCN000020000000020000FN00000000020220701000020000NNM   20220328121315U5  1C0C  00002000000000048000000109032U5    AMAMSD  002700430014
BI00B32U5    DI2024         202205137196-1102-02             TERMINAL                 CCN000022500000022500FN00000000020220701000022500NNM   20220328121315U5  4P0P  00002250000000405000000690232U5    AMAMSD  006400630015
BI00B32U5    DI2024         202205137196-1104-02             TERMINAL                 CCN000180000000180000FN00000000020220701000180000NNM   20220328121315U5  4P0P  00002250000000441000000726232U5    AMAMSD  006400630015
BI00B32U5    DI2024         202205137287-1915-40             CONNECTOR ASS'Y          CCN000004800000004800FN00000000020220701000004800NNM   20220328121315U5  4N0N  00000240000000666500000923132U5    AMAMSD  005500360039
BI00B32U5    DI2024         202205137288-3330-30             HOUSING MALE             CCN000004500000004500FN00000000020220701000004500NNM   20220328121315U5  4N0N  00000150000000866300001011232U5    AMAMSD  005400370024
BI00B32U5    DI2024         202205137288-3339-30             HOUSING MALE             CCN000003000000003000FN00000000020220701000003000NNM   20220328121315U5  4N0N  00000150000000867000001012032U5    AMAMSD  005400370024
BI00B32U5    DI2024         202205137296-1025-02             TERMINAL ALUMINIUM       CCN000018000000018000FN00000000020220701000018000NNM   20220328121315U5  4P0P  00001800000000635400000920632U5    AMAMSD  006400630015
BI00B32U5    DI2024         202205137388-2978-30             HOUSING MALE ASS'Y       CCN000006240000006240FN00000000020220701000006240NNM   20220328121315U5  1N0N  00000048000000742000001122032U5    AMAMSD  005500360039
BI00B32U5    DI2024         202205137327-6731-3W             BATTERY FUSE             CCN000003072000003072FN00000000020220701000003072NNM   20220328121315U5  4N0N  00000006400000697600000843032U5    AMAMSD  005400370024
BI00B32U5    DI2024         202205137B72-5540-80             SEALED WIRE SEAL         CCN000040000000040000FN00000000020220701000040000NNM   20220328121315U5  1C0C  00002000000000186000000234432U5    AMAMSD  004300270014
BI00B32U5    DI2024         202205137B96-0805-02             TERMINAL FEMALE          CCN000022500000022500FN00000000020220701000022500NNM   20220328121315U5  4P0P  00002250000000558000000843232U5    AMAMSD  006400630015
BI00B32U5    DI2024         202205137C89-6868-30             SEALED ASSY FEMALE       CCN000012600000012600FN00000000020220701000012600NNM   20220328121315U5  4N0N  00000252000000839200001119232U5    AMAMSD  005500360039
BI00B32U5    #DI2024        202205137158-3017                RUBBER STOPPER           CCN000040000000040000FN00000000020220701000040000NNM   20220328121315U5  2C0C  00001000000000375500000435032U5    AMAMSD  002700430014
BI00B32U5    #DI2024        202205137189-3032                HOUSING FEMALE           CCN000012800000012800FN00000000020220701000012800NNM   20220328121315U5  2F0F  00000160000000788400001018432U5    AMAMSD  005500360039
BI00B32U5    #DI2024        202205137287-7859                HYBRID FEMALE ASS'Y      CCN000010800000010800FN00000000020220701000010800NNM   20220328121315U5  2N0N  00000120000000461600000671632U5    AMAMSD  005500360039
BI00B32U5    #DI2024        202205137154-5597-30             CASSETTE R/B             CCN000000800000000800FN00000000020220701000000800NNM   20220328121315U5  2F0F  00000080000000736000000952032U5    AMAMSD  005500360039
BI00B32U5    #DI2024        202205137158-3003-90             RUBBER STOPPER           CCN000180000000180000FN00000000020220701000180000NNM   20220328121315U5  2C0C  00002000000000250000000306032U5    AMAMSD  002700430014
BI00B32U5    #DI2024        202205137158-3004-40             RUBBER STOPPER           CCN000040000000040000FN00000000020220701000040000NNM   20220328121315U5  2C0C  00002000000000234000000306332U5    AMAMSD  002700430014
BI00B32U5    #DI2024        202205137158-3005-80             RUBBER STOPPER           CCN000040000000040000FN00000000020220701000040000NNM   20220328121315U5  2H0H  00002000000000210000000268732U5    AMAMSD  002700430014
BI00B32U5    #DI2024        202205137158-3007-10             RUBBER STOPPER           CCN000260000000260000FN00000000020220701000260000NNM   20220328121315U5  2H0H  00002000000000308000000362732U5    AMAMSD  002700430014
BI00B32U5    #DI2024        202205137158-3008-80             RUBBER STOPPER           CCN000120000000120000FN00000000020220701000120000NNM   20220328121315U5  2C0C  00002000000000288000000343032U5    AMAMSD  004300270014
BI00B32U5    #DI2024        202205137158-3015-10             RUBBER STOPPER           CCN000010000000010000FN00000000020220701000010000NNM   20220328121315U5  2C0C  00001000000000419500000474032U5    AMAMSD  002700430014
BI00B32U5    #DI2024        202205137158-3376-50             CONNECTOR WIRE SEAL      CCN000120000000120000FN00000000020220701000120000NNM   20220328121315U5  2C0C  00002000000000184000000240732U5    AMAMSD  002700430014
BI00B32U5    #DI2024        202205137172-5626-90             RUBBER STOPPER           CCN000220000000220000FN00000000020220701000220000NNM   20220328121315U5  2H0H  00002000000000076400000127832U5    AMAMSD  004300270014
BI00B32U5    #DI2024        202205137172-5627-60             RUBBER STOPPER           CCN000120000000120000FN00000000020220701000120000NNM   20220328121315U5  2H0H  00002000000000070400000121832U5    AMAMSD  004300270014
BI00B32U5    #DI2024        202205137172-5628-80             DUMMY PLUG               CCN000080000000080000FN00000000020220701000080000NNM   20220328121315U5  2H0H  00002000000000110600000162032U5    AMAMSD  004300270014
BI00B32U5    #DI2024        202205137172-5629-80             RUBBER STOPPER           CCN000160000000160000FN00000000020220701000160000NNM   20220328121315U5  2H0H  00002000000000060000000111132U5    AMAMSD  004300270014
BI00B32U5    #DI2024        202205137172-5630-40             RUBBER STOPPER           CCN000300000000300000FN00000000020220701000300000NNM   20220328121315U5  2H0H  00002000000000044000000095132U5    AMAMSD  004300270014
BI00B32U5    #DI2024        202205137172-5631-60             RUBBER STOPPER           CCN000180000000180000FN00000000020220701000180000NNM   20220328121315U5  2H0H  00002000000000042000000093132U5    AMAMSD  004300270014
BI00B32U5    #DI2024        202205137172-5632-10             DUMMY PLUG               CCN000180000000180000FN00000000020220701000180000NNM   20220328121315U5  2H0H  00002000000000080400000131832U5    AMAMSD  004300270014
BI00B32U5    #DI2024        202205137182-8253-40             HOUSING                  CCN000002400000002400FN00000000020220701000002400NNM   20220328121315U5  2F0F  00000120000000573000000864032U5    AMAMSD  005600390040
BI00B32U5    #DI2024        202205137183-8252-40             HOUSING                  CCN000007200000007200FN00000000020220701000007200NNM   20220328121315U5  2F0F  00000240000000454000000729032U5    AMAMSD  005500360039
BI00B32U5    #DI2024        202205137189-2978-30             HOUSING FEMALE           CCN000006000000006000FN00000000020220701000006000NNM   20220328121315U5  2F0F  00000150000000966900001096932U5    AMAMSD  005400370024
BI00B32U5    #DI2024        202205137282-6446-40             CONNECTOR                CCN000003000000003000FN00000000020220701000003000NNM   20220328121315U5  2N0N  00000150000001185000001368032U5    AMAMSD  005500360039
BI00B32U5    #DI2024        202205137289-4200-30             HOUSING FEMALE ASS'Y     CCN000028000000028000FN00000000020220701000028000NNM   20220328121315U5  2N0N  00000200000000926000001021032U5    AMAMSD  005400370024
BI00A32U9    TP0390S        202203317298-1186-40             SQUIB SUB ASS'Y          CCN000050000000030000FN00000000020220501000030000NNEM0020220328121315U9  4N0N  00001000000000650000000774532U9    YNYNA-E 005400370024
BI00B32U9    TP0393S        202204217289-6547                HOUSING FEMALE ASS'Y     CCN000002400000002400FN00000000020220501000002400NNE   20220328121315U9  1N0N  00000240000001152000001362032U9    YNYNA-E 005500360039
BI00B32U9    TP0393S        202204217298-1186-40             SQUIB SUB ASS'Y          CCN000010000000010000FN00000000020220501000010000NNE   20220328121315U9  4N0N  00001000000000650000000774532U9    YNYNA-E 005400370024
BI00B32U9    TPA221         202204217114-4031                TERMINAL                 CCN000010500000010500FN00000000020220501000010500NNM   20220328121315U9  4P0P  00001050000000966000001294632U9    YNYNA-E 006400630017
BI00B32U9    TPA221         202204217114-4032                TERMINAL                 CCN000022500000022500FN00000000020220501000022500NNM   20220328121315U9  4P0P  00000750000000735000001063632U9    YNYNA-E 006400630017
BI00B32U9    TPA221         202204217114-6041                TERMINAL                 CCN000010800000010800FN00000000020220501000010800NNM   20220328121315U9  4P0P  00000360000000580700000824232U9    YNYNA-E 006400630015
BI00B32U9    TPA221         202204217116-4037                TERMINAL                 CCN000012000000012000FN00000000020220501000012000NNM   20220328121315U9  4P0P  00000600000000600000000894232U9    YNYNA-E 006400630015
BI00B32U9    TPA221         202204217288-6547                CONNECTOR MALE ASS'Y     CCN000000750000000750FN00000000020220501000000750NNM   20220328121315U9  4N0N  00000075000001205300001340332U9    YNYNA-E 005400370024
BI00B32U9    TPA221         202204217289-6547                HOUSING FEMALE ASS'Y     CCN000002400000002400FN00000000020220501000002400NNM   20220328121315U9  1N0N  00000240000001152000001362032U9    YNYNA-E 005500360039
BI00B32U9    TPA221         202204217114-4231-02             TERMINAL                 CCN000072000000072000FN00000000020220501000072000NNM   20220328121315U9  4P0P  00001800000000554400000848032U9    YNYNA-E 006400630015
BI00B32U9    TPA221         202204217116-1257-02             TERMINAL                 CCN000024000000024000FN00000000020220501000024000NNM   20220328121315U9  1P0P  00002400000000518400000847132U9    YNYNA-E 006400630017
BI00B32U9    TPA221         202204217116-2951-02             TERMINAL                 CCN000081000000081000FN00000000020220501000081000NNM   20220328121315U9  4P0P  00000540000000817600001111832U9    YNYNA-E 006400630015
BI00B32U9    TPA221         202204217116-4060-02             TERMINAL                 CCN000024000000024000FN00000000020220501000024000NNM   20220328121315U9  1P0P  00002400000000511200000984232U9    YNYNA-E 006400630017
BI00B32U9    TPA221         202204217116-4231-02             TERMINAL                 CCN000338000000338000FN00000000020220501000338000NNM   20220328121315U9  4P0P  00002600000000683800001012532U9    YNYNA-E 006400630017
BI00B32U9    TPA221         202204217158-3006-90             RUBBER STOPPER           CCN000040000000040000FN00000000020220501000040000NNM   20220328121315U9  1C0C  00002000000000330600000386032U9    YNYNA-E 002700430014
BI00B32U9    TPA221         202204217158-3165-90             WIRE SEAL                CCN000240000000240000FN00000000020220501000240000NNM   20220328121315U9  1C0C  00004000000000124000000172432U9    YNYNA-E 004300270014
BI00B32U9    TPA221         202204217158-3166-60             WIRE SEAL                CCN001640000001640000FN00000000020220501001640000NNM   20220328121315U9  1C0C  00004000000000104000000152432U9    YNYNA-E 002700430014
BI00B32U9    TPA221         202204217158-3167-80             WIRE SEAL                CCN000440000000440000FN00000000020220501000440000NNM   20220328121315U9  1C0C  00002000000000048000000109032U9    YNYNA-E 002700430014
BI00B32U9    TPA221         202204217158-3168-80             SEALED                   CCN000020000000020000FN00000000020220501000020000NNM   20220328121315U9  1C0C  00002000000000044000000092132U9    YNYNA-E 004300260014
BI00B32U9    TPA221         202204217158-3169-40             SEALING PLUG             CCN000120000000120000FN00000000020220501000120000NNM   20220328121315U9  1C0C  00004000000000156000000204132U9    YNYNA-E 004300260014
BI00B32U9    TPA221         202204217172-1372-10             FRONT HOLDER             CCN000003900000003900FN00000000020220501000003900NNM   20220328121315U9  4F0F  00000390000000655200000955232U9    YNYNA-E 005500360039
BI00B32U9    TPA221         202204217174-1849-70             COVER                    CCN000025000000025000FN00000000020220501000025000NNM   20220328121315U9  1F0F  00002500000000622500000761932U9    YNYNA-E 005400370024
BI00B32U9    TPA221         202204217222-4220-30             CONNECTOR                CCN000002250000002250FN00000000020220501000002250NNM   20220328121315U9  4N0N  00000075000001219000001384032U9    YNYNA-E 005600390040
BI00B32U9    TPA221         202204217222-7564-30             CONNECTOR                CCN000000500000000500FN00000000020220501000000500NNM   20220328121315U9  1N0N  00000050000000966500001125032U9    YNYNA-E 005500360039
BI00B32U9    TPA221         202204217282-7301-40             CONNECTOR                CCN000003000000003000FN00000000020220501000003000NNM   20220328121315U9  4N0N  00000150000001125000001497932U9    YNYNA-E 005500360039
BI00B32U9    TPA221         202204217283-5623-60             CONNECTOR                CCN000003200000003200FN00000000020220501000003200NNM   20220328121315U9  1N0N  00000160000001546000001846332U9    YNYNA-E 005600390040
BI00B32U9    TPA221         202204217289-6868-30             SEALED ASSY FEMALE       CCN000002520000002520FN00000000020220501000002520NNM   20220328121315U9  4N0N  00000252000000839200001119232U9    YNYNA-E 005500360039
BI00B32U9    TPA221         202204217289-7615-30             HOUSING FEMALE ASS'Y     CCN000003200000003200FN00000000020220501000003200NNM   20220328121315U9  4N0N  00000032000000738000000948032U9    YNYNA-E 005400370024
BI00B32U9    TPA221         202204217298-1186-40             SQUIB SUB ASS'Y          CCN000010000000010000FN00000000020220501000010000NNM   20220328121315U9  4N0N  00001000000000650000000774532U9    YNYNA-E 005400370024
BI00B32U9    TPA221         202204217298-1186-70             SQUIB SUB ASS'Y          CCN000010000000010000FN00000000020220501000010000NNM   20220328121315U9  4N0N  00001000000000650000000774532U9    YNYNA-E 005400370024
BI00B32U9    TPA221         202204217283-9457-3W             CONNECTOR                CCN000000240000000240FN00000000020220501000000240NNM   20220328121315U9  4N0N  00000012000000515000001067032U9    YNYNA-E 005600390023
BI00B32U9    TPA221         202204217298-1145-4W             SQUIB SUB ASS'Y          CCN000010000000010000FN00000000020220501000010000NNM   20220328121315U9  4N0N  00001000000000787900000944932U9    YNYNA-E 005400370024
BI00B32U9    TPA221         202204217298-1149-3W             SQUIB SUB ASS'Y          CCN000010000000010000FN00000000020220501000010000NNM   20220328121315U9  4N0N  00001000000000785000000922032U9    YNYNA-E 005400370024
BI00B32U9    TPA221         202204217B58-3070-80             RUBBER STOPPER           CCN000040000000040000FN00000000020220501000040000NNM   20220328121315U9  1C0C  00004000000000276000000333032U9    YNYNA-E 004300270014
BI00B32U9    #TPA221        202204217135-6177                GROMMET                  CCN000001200000001200FN00000000020220501000001200NNM   20220328121315U9  2H0H  00000020000001139600001249632U9    YNYNA-E 005600390040
BI00B32U9    #TPA221        202204217147-9094                RETAINER                 CCN000018000000018000FN00000000020220501000018000NNM   20220328121315U9  2F0F  00000300000000717000000872932U9    YNYNA-E 005500360039
BI00B32U9    #TPA221        202204217157-3646                RUBBER STOPPER           CCN000020000000020000FN00000000020220501000020000NNM   20220328121315U9  2H0H  00002000000000184000000255232U9    YNYNA-E 002700430014
BI00B32U9    #TPA221        202204217157-7812                SEAL RUBBER              CCN000010000000010000FN00000000020220501000010000NNM   20220328121315U9  2C0C  00001000000000137000000202032U9    YNYNA-E 002700430014
BI00B32U9    #TPA221        202204217158-3017                RUBBER STOPPER           CCN000010000000010000FN00000000020220501000010000NNM   20220328121315U9  2C0C  00001000000000375500000435032U9    YNYNA-E 002700430014
BI00B32U9    #TPA221        202204217158-3008-80             RUBBER STOPPER           CCN000020000000020000FN00000000020220501000020000NNM   20220328121315U9  2C0C  00002000000000288000000343032U9    YNYNA-E 004300270014
BI00B32U9    #TPA221        202204217158-3376-50             CONNECTOR WIRE SEAL      CCN000040000000040000FN00000000020220501000040000NNM   20220328121315U9  2C0C  00002000000000184000000240732U9    YNYNA-E 002700430014
BI00B32U9    #TPA221        202204217282-6446-40             CONNECTOR                CCN000016500000016500FN00000000020220501000016500NNM   20220328121315U9  2N0N  00000150000001185000001368032U9    YNYNA-E 005500360039
BI00B32U9    #TPA221        202204217282-6457-40             CONNECTOR                CCN000010400000010400FN00000000020220501000010400NNM   20220328121315U9  2N0N  00000080000001137000001421332U9    YNYNA-E 005600390040
BI00B32U9    #TPA221        202204217282-8395-40             CONNECTOR                CCN000010000000010000FN00000000020220501000010000NNM   20220328121315U9  2N0N  00000100000001009000001188032U9    YNYNA-E 005500360039
BI00B32U9    #TPA221        202204217283-8226-30             CONNECTOR                CCN000022000000022000FN00000000020220501000022000NNM   20220328121315U9  2N0N  00000200000000820000001008032U9    YNYNA-E 005400370024
BI00B32U9    #TPA221        202204217283-8397-40             CONNECTOR                CCN000009240000009240FN00000000020220501000009240NNM   20220328121315U9  2N0N  00000154000001007000001222732U9    YNYNA-E 005600390023
BI00A32W4    4500188025     202203287116-4103-02             TERMINAL                 CCN000012000000012000FY00001200020220301000000000NNE00020220328144802W4194P0P  00001200000000571200000859432W419  HJYHK   006400630015
BI00A32W4    4500189805     202203287158-3165-90             WIRE SEAL                CCN000040000000040000FY00004000020220301000000000NNED0020220328144852W4521C0C  00004000000000124000000172432W452  HJYHK   004300270014
BI00A32W4    #4500190392    202204187047-5344                RETAINER                 CCN000010000000010000FN00000000020220401000010000NNED0020220328154014W4802F0F  00001000000000870000001016032W480  HJYHK-J 005600390023
BI00B32W4    4500191313     202206027283-6448-40             CONNECTOR                CCN000001500000001500FN00000000020220501000001500NNED0220220328163733W4464N0N  00000150000001087000001329032W446  HJYHK   005600390040
BI00A32W4    4500191326     202204187298-2280-30             HOUSING FEMALE ASS'Y     CCN000001920000001920FN00000000020220301000001920NNED0120220328163813W4284N0N  00000192000001068000001216032W428  HJYHK   005500360039
BI00B32W4    4500191328     202206027283-6448-40             CONNECTOR                CCN000001500000001500FN00000000020220501000001500NNED0220220328163749W4654N0N  00000150000001087000001329032W465  HJYHK   005600390040
BI00B32W4    4500191375     202206307288-6547                CONNECTOR MALE ASS'Y     CCN000010500000010500FN00000000020220501000010500NNED0420220328163001W4164N0N  00000075000001205300001340332W416  HJYHK   005400370024
BI00B32X5    TIB2024        202205137116-4037                TERMINAL                 CCN000024000000024000FN00000000020220701000024000NNM   20220328121315X5  4P0P  00000600000000600000000894232X5    EPYNA-E 006400630015
BI00B32X5    TIB2024        202205137287-8072                HOUSING FEMALE ASS'Y     CCN000002400000002400FN00000000020220701000002400NNM   20220328121315X5  1N0N  00000240000001221600001441632X5    EPYNA-E 005500360039
BI00B32X5    TIB2024        202205137288-6547                CONNECTOR MALE ASS'Y     CCN000012750000012750FN00000000020220701000012750NNM   20220328121315X5  4N0N  00000075000001205300001340332X5    EPYNA-E 005400370024
BI00B32X5    TIB2024        202205137289-6547                HOUSING FEMALE ASS'Y     CCN000016800000016800FN00000000020220701000016800NNM   20220328121315X5  1N0N  00000240000001152000001362032X5    EPYNA-E 005500360039
BI00B32X5    TIB2024        202205137017-1180-02             TERMINAL                 CCN000360000000360000FN00000000020220701000360000NNM   20220328121315X5  4P0P  00007200000001065600001229032X5    EPYNA-E 005100280028
BI00B32X5    TIB2024        202205137017-1182-02             TERMINAL                 CCN000045000000045000FN00000000020220701000045000NNM   20220328121315X5  4P0P  00004500000001165500001318632X5    EPYNA-E 005100280028
BI00B32X5    TIB2024        202205137114-4486-02             TERMINAL                 CCN000072000000072000FN00000000020220701000072000NNM   20220328121315X5  4P0P  00002400000000662400000956032X5    EPYNA-E 006400630015
BI00B32X5    TIB2024        202205137114-4624-02             TERMINAL                 CCN000024000000024000FN00000000020220701000024000NNM   20220328121315X5  4P0P  00002400000000895200001188832X5    EPYNA-E 006400630015
BI00B32X5    TIB2024        202205137116-1685-02             TERMINAL                 CCN000096000000096000FN00000000020220701000096000NNM   20220328121315X5  4P0P  00002400000000897600001065232X5    EPYNA-E 005100280028
BI00B32X5    TIB2024        202205137116-2951-02             TERMINAL                 CCN000010800000010800FN00000000020220701000010800NNM   20220328121315X5  4P0P  00000540000000817600001111832X5    EPYNA-E 006400630015
BI00B32X5    TIB2024        202205137116-4486-02             TERMINAL                 CCN000112000000112000FN00000000020220701000112000NNM   20220328121315X5  4P0P  00002800000000666400000995132X5    EPYNA-E 006400630017
BI00B32X5    TIB2024        202205137116-5045-02             TERMINAL                 CCN000224000000224000FN00000000020220701000224000NNM   20220328121315X5  4P0P  00001600000000678400001007132X5    EPYNA-E 006400630017
BI00B32X5    TIB2024        202205137158-3167-80             WIRE SEAL                CCN000020000000020000FN00000000020220701000020000NNM   20220328121315X5  1C0C  00002000000000048000000109032X5    EPYNA-E 002700430014
BI00B32X5    TIB2024        202205137173-3291-40             LIF LEVER                CCN000002400000002400FN00000000020220701000002400NNM   20220328121315X5  1F0F  00000240000000867800001067832X5    EPYNA-E 005500360039
BI00B32X5    TIB2024        202205137196-0510-02             TERMINAL                 CCN000048000000048000FN00000000020220701000048000NNM   20220328121315X5  4P0P  00002400000000871200001034632X5    EPYNA-E 002800510028
BI00B32X5    TIB2024        202205137196-1104-02             TERMINAL                 CCN000112500000112500FN00000000020220701000112500NNM   20220328121315X5  4P0P  00002250000000441000000726232X5    EPYNA-E 006400630015
BI00B32X5    TIB2024        202205137196-1325-02             TERMINAL FEMALE          CCN000120000000120000FN00000000020220701000120000NNM   20220328121315X5  4P0P  00006000000000450000000778732X5    EPYNA-E 006400630017
BI00B32X5    TIB2024        202205137196-1326-02             TERMINAL FEMALE          CCN000240000000240000FN00000000020220701000240000NNM   20220328121315X5  4P0P  00006000000000456000000784732X5    EPYNA-E 006400630017
BI00B32X5    TIB2024        202205137282-4576-90             HOUSING MALE ASS'Y       CCN000002400000002400FN00000000020220701000002400NNM   20220328121315X5  4N0N  00000240000000808800001028832X5    EPYNA-E 005500360039
BI00B32X5    TIB2024        202205137282-5574-10             CONNECTOR                CCN000009600000009600FN00000000020220701000009600NNM   20220328121315X5  4N0N  00000080000001235000001423032X5    EPYNA-E 005600390040
BI00B32X5    TIB2024        202205137283-4855-40             CONNECTOR HOUSING        CCN000002400000002400FN00000000020220701000002400NNM   20220328121315X5  4N0N  00000240000001188400001400032X5    EPYNA-E 005600360039
BI00B32X5    TIB2024        202205137289-3342-30             HOUSING FEMALE ASS'Y     CCN000074400000074400FN00000000020220701000074400NNM   20220328121315X5  1N0N  00000240000000686400000901432X5    EPYNA-E 005500360039
BI00B32X5    TIB2024        202205137289-5979-30             HOUSING FEMALE ASS'Y     CCN000002016000002016FN00000000020220701000002016NNM   20220328121315X5  1N0N  00000025200000854700001064732X5    EPYNA-E 005400370024
BI00B32X5    TIB2024        202205137289-6518-30             HOUSING FEMALE ASS'Y     CCN000001200000001200FN00000000020220701000001200NNM   20220328121315X5  1N0N  00000120000000829200001049232X5    EPYNA-E 005500360039
BI00B32X5    TIB2024        202205137296-0784-02             TERMINAL ALUMINIUM       CCN000096000000096000FN00000000020220701000096000NNM   20220328121315X5  4P0P  00002400000000480000000765232X5    EPYNA-E 006400630015
BI00B32X5    TIB2024        202205137388-2978-30             HOUSING MALE ASS'Y       CCN000007680000007680FN00000000020220701000007680NNM   20220328121315X5  1N0N  00000048000000742000001122032X5    EPYNA-E 005500360039
BI00B32X5    #TIB2024       202205137158-3017                RUBBER STOPPER           CCN000020000000020000FN00000000020220701000020000NNM   20220328121315X5  2C0C  00001000000000375500000435032X5    EPYNA-E 002700430014
BI00B32X5    #TIB2024       202205137287-7859                HYBRID FEMALE ASS'Y      CCN000006000000006000FN00000000020220701000006000NNM   20220328121315X5  2N0N  00000120000000461600000671632X5    EPYNA-E 005500360039
BI00B32X5    #TIB2024       202205137287-9155                HOUSING FEMALE ASS'Y     CCN000005760000005760FN00000000020220701000005760NNM   20220328121315X5  2N0N  00000096000000853700001045232X5    EPYNA-E 005400370024
BI00B32X5    #TIB2024       202205137154-3424-30             REAR HOLDER              CCN000009000000009000FN00000000020220701000009000NNM   20220328121315X5  2F0F  00000300000000975000001138632X5    EPYNA-E 005500360039
BI00B32X5    #TIB2024       202205137158-3003-90             RUBBER STOPPER           CCN000120000000120000FN00000000020220701000120000NNM   20220328121315X5  2C0C  00002000000000250000000306032X5    EPYNA-E 002700430014
BI00B32X5    #TIB2024       202205137158-3004-40             RUBBER STOPPER           CCN000160000000160000FN00000000020220701000160000NNM   20220328121315X5  2C0C  00002000000000234000000306332X5    EPYNA-E 002700430014
BI00B32X5    #TIB2024       202205137158-3005-80             RUBBER STOPPER           CCN000020000000020000FN00000000020220701000020000NNM   20220328121315X5  2H0H  00002000000000210000000268732X5    EPYNA-E 002700430014
BI00B32X5    #TIB2024       202205137172-5626-90             RUBBER STOPPER           CCN000020000000020000FN00000000020220701000020000NNM   20220328121315X5  2H0H  00002000000000076400000127832X5    EPYNA-E 004300270014
BI00B32X5    #TIB2024       202205137172-5629-80             RUBBER STOPPER           CCN000320000000320000FN00000000020220701000320000NNM   20220328121315X5  2H0H  00002000000000060000000111132X5    EPYNA-E 004300270014
BI00B32X5    #TIB2024       202205137172-5630-40             RUBBER STOPPER           CCN000140000000140000FN00000000020220701000140000NNM   20220328121315X5  2H0H  00002000000000044000000095132X5    EPYNA-E 004300270014
BI00B32X5    #TIB2024       202205137172-5632-10             DUMMY PLUG               CCN000200000000200000FN00000000020220701000200000NNM   20220328121315X5  2H0H  00002000000000080400000131832X5    EPYNA-E 004300270014
BI00B32X5    #TIB2024       202205137173-3225-10             LIF LEVER                CCN000001600000001600FN00000000020220701000001600NNM   20220328121315X5  2F0F  00000080000000592000000712032X5    EPYNA-E 005500360039
BI00B32X5    #TIB2024       202205137183-8251-40             HOUSING                  CCN000004800000004800FN00000000020220701000004800NNM   20220328121315X5  2F0F  00000240000000357600000640032X5    EPYNA-E 005500360039
BI00B32X5    #TIB2024       202205137189-2978-30             HOUSING FEMALE           CCN000007500000007500FN00000000020220701000007500NNM   20220328121315X5  2F0F  00000150000000966900001096932X5    EPYNA-E 005400370024
BI00B32X5    #TIB2024       202205137189-3034-30             HOUSING FEMALE           CCN000001600000001600FN00000000020220701000001600NNM   20220328121315X5  2F0F  00000160000000972800001192832X5    EPYNA-E 005500360039
BI00B32X5    #TIB2024       202205137282-8395-40             CONNECTOR                CCN000002000000002000FN00000000020220701000002000NNM   20220328121315X5  2N0N  00000100000001009000001188032X5    EPYNA-E 005500360039
BI00B32X5    #TIB2024       202205137283-8397-40             CONNECTOR                CCN000003080000003080FN00000000020220701000003080NNM   20220328121315X5  2N0N  00000154000001007000001222732X5    EPYNA-E 005600390023
BI00B32X5    #TIB2024       202205137289-2913-30             HOUSING FEMALE ASS'Y     CCN000001500000001500FN00000000020220701000001500NNM   20220328121315X5  2N0N  00000150000000907500001034532X5    EPYNA-E 005400370024
BI00B32X5    @TIB2024       202205137286-4098                CONNECTOR MALE ASS'Y     CCN000016000000016000FN00000000020220701000016000NNM   20220328121315X5  3N0N  00000160000000949100001163032X5    EPYNA-E 005500360039
BI00B32Y4    #STH32091      202205197282-8395-40             CONNECTOR                CCN000005000000005000FN00000000020220301000005000NNE   20220328121315    2N0N  00000100000001009000001188032Y4    BIYAB-I 005500360039
BI00B32Y4    #STH32091      202205197283-8398-40             CONNECTOR                CCN000004620000004620FN00000000020220301000004620NNE   20220328121315    2N0N  00000154000001007000001171332Y4    BIYAB-I 005600390023
BI00B32Y4    #BTH32082      202205057158-3374-90             CONNECTOR WIRE SEAL      CCN000020000000020000FN00000000020220301000020000NNE   20220328121315    2H0H  00002000000000172000000229332Y4    BIYAB-I 002700430014
BI00B32Y4    #BTH32082      202205057158-3376-50             CONNECTOR WIRE SEAL      CCN000060000000060000FN00000000020220301000060000NNE   20220328121315    2C0C  00002000000000184000000240732Y4    BIYAB-I 002700430014
BI00B32Y4    #BTH32082      202205057282-8395-40             CONNECTOR                CCN000014000000014000FN00000000020220301000014000NNE   20220328121315    2N0N  00000100000001009000001188032Y4    BIYAB-I 005500360039
BI00B32Y4    #BTH32082      202205057283-8397-40             CONNECTOR                CCN000012320000012320FN00000000020220301000012320NNE   20220328121315    2N0N  00000154000001007000001222732Y4    BIYAB-I 005600390023
BI00B32Y4    #BTH32082      202205057283-8398-40             CONNECTOR                CCN000015400000015400FN00000000020220301000015400NNE   20220328121315    2N0N  00000154000001007000001171332Y4    BIYAB-I 005600390023
BI00B32Y4    MTH32091       202206167196-0104-02             TERMINAL                 CCN000038000000038000FN00000000020220301000038000NNE   20220328121315    4P0P  00003800000000570000000956432Y4    BIYAB-I 006400630017
BI00B32Y4    MTH32091       202206167288-5000                HOUSING MALE ASS'Y       CCN000002352000002352FN00000000020220301000002352NNE   20220328121315    1N0N  00000033600000825200001035232Y4    BIYAB-I 005400370024
BI00B32Y4    MTH32091       202206167289-4696-30             HOUSING FEMALE ASS'Y     CCN000002000000002000FN00000000020220301000002000NNE   20220328121315    4N0N  00000200000000913400001055432Y4    BIYAB-I 005400370024
BI00B32Y4    MTH32091       202206167289-5000                HOUSING FEMALE ASS'Y     CCN000014592000014592FN00000000020220301000014592NNE   20220328121315    1N0N  00000030400000549000000759032Y4    BIYAB-I 005400370024
BI00B32Y4    #MTH32091      202206167158-3374-90             CONNECTOR WIRE SEAL      CCN000020000000020000FN00000000020220301000020000NNE   20220328121315    2H0H  00002000000000172000000229332Y4    BIYAB-I 002700430014
BI00B32Y4    #MTH32091      202206167174-1164                COVER                    CCN000000800000000800FN00000000020220301000000800NNE   20220328121315    2F0F  00000080000000592000000712032Y4    BIYAB-I 005500360039
