BI00B32A7    @ZZ21104LMW    20211012181E48018ZZ              CAVSAS-S 0.5X2 GY/SB     CCN000001500000001200FY00000120020211001000000000NNM20 20211209090645    1W    00000030000002493000000000032A7    ZZZZY   000000000000ZZ41A016
BI00B32A7    @ZZ2110CLMW    20211215181E48018ZZ              CAVSAS-S 0.5X2 GY/SB     CCN000007500000001800FN00000000020211001000001800NNE22 20211209105844    1W    00000030000002493000000000032A7    ZZZZY   000000000000ZS31A002
BI00B32A7    @ZZ2110CLMW    20211215181E48040ZZ              CAVSAS-S 0.3X2 GY/V      CCN000003850000003850FN00000000020211001000003850NNE22 20211209105844    1W    00000035000001998600000000032A7    ZZZZY   000000000000ZS31A003
BI00B32A7    @ZZ21104LMW    20211215181E48018ZZ              CAVSAS-S 0.5X2 GY/SB     CCN000000300000000300FN00000000020211001000000300NNM21 20211209105844    1W    00000030000002493000000000032A7    ZZZZY   000000000000ZZ41A016
BI00B32DE    TT201C         2022010618007703760              AVSS 0.3F G              CCN000002000000002000FN00000000020220101000002000NNE   20211209095133    1W    00000200000000496000000000032DE    TVYEV-TV000000000000VN31C010
BI00B32DE    TT201C         2022010618007703741              AVSS 0.3F GY             CCN000002000000002000FN00000000020220101000002000NNE   20211209095133    1W    00000200000000496000000000032DE    TVYEV-TV000000000000VN31C011
BI00B32DE    TT201C         2022010618007703750              AVSS 0.3F R              CCN000004000000004000FN00000000020220101000004000NNE   20211209095133    1W    00000200000000496000000000032DE    TVYEV-TV000000000000VN31C012
BI00B32DE    TT201C         2022010618007704190              AVSS 1.25F L             CCN000001600000001600FN00000000020220101000001600NNE   20211209095133    1W    00000080000001389000000000032DE    TVYEV-TV000000000000VN31C013
BI00B32DE    TT201C         2022010618007704152              AVSS 1.25F P             CCN000003200000003200FN00000000020220101000003200NNE   20211209095133    1W    00000080000001389000000000032DE    TVYEV-TV000000000000VN31C014
BI00B32DE    TT201C         2022010618007704192              AVSS 1.25F V             CCN000001600000001600FN00000000020220101000001600NNE   20211209095133    1W    00000080000001389000000000032DE    TVYEV-TV000000000000VN31C015
BI00B32DE    TT201C         20220106180D0203937              AVSSH 0.5F B/Y           CCN000001500000001500FN00000000020220101000001500NNE   20211209095133    1W    00000150000000689000000000032DE    TVYEV-TV000000000000VN31C004
BI00B32DE    TT201C         20220106180D0203992              AVSSH 0.5F V             CCN000003000000003000FN00000000020220101000003000NNE   20211209095133    1W    00000150000000689000000000032DE    TVYEV-TV000000000000VN31C005
BI00B32DE    TT201C         20220106180D0204080              AVSSH 0.75F BR           CCN000001000000001000FN00000000020220101000001000NNE   20211209095133    1W    00000100000000968000000000032DE    TVYEV-TV000000000000VN31C006
BI00B32DE    TT201C         20220106180D0204043              AVSSH 0.75F W/B          CCN000002000000002000FN00000000020220101000002000NNE   20211209095133    1W    00000100000000968000000000032DE    TVYEV-TV000000000000VN31C007
BI00B32DE    TT201C         20220106180D0204190              AVSSH 1.25F L            CCN000004000000004000FN00000000020220101000004000NNE   20211209095133    1W    00000080000001458000000000032DE    TVYEV-TV000000000000VN31C008
BI00B32DE    TT201C         20220106180D0204192              AVSSH 1.25F V            CCN000002400000002400FN00000000020220101000002400NNE   20211209095133    1W    00000080000001458000000000032DE    TVYEV-TV000000000000VN31C009
BI00B32DE    @TT201C        20220106181E50028ZZ              AVSSCS-S 0.5FX3 DGY      CCN000011250000011250FN00000000020220101000011250NNE   20211209095132    1W    00000025000003245000000000032DE    TVYEV-TV000000000000VN31C001
BI00B32DE    @TT201C        20220106181F21016ZZ              AVSSHCS-S 0.5FX2 B/BR    CCN000002400000002400FN00000000020220101000002400NNE   20211209095132    1W    00000030000002505800000000032DE    TVYEV-TV000000000000VN31C002
BI00B32DE    @TT201C        20220106181F21027ZZ              AVSSHCS-S 1.25FX2 B      CCN000001000000001000FN00000000020220101000001000NNE   20211209095132    1W    00000020000004262000000000032DE    TVYEV-TV000000000000VN31C003
BI00B32G0    TZ2201AEMW     2021122818007703750              AVSS 0.3F R              CCN000002000000002000FN00000000020220101000002000NNE   20211209152259    1W    00000200000000496000000000032G0    TTTJY   000000000000NF21C001
BI00B32G0    TZ22031EMW     2022011818007703730              AVSS 0.3F B              CCN000006000000006000FN00000000020220301000006000NNM   20211209152302    1W    00000200000000496000000000032G0    TTTJY   000000000000NE121043
BI00B32G0    TZ22031EMW     2022011818007703752              AVSS 0.3F P              CCN000006000000006000FN00000000020220301000006000NNM   20211209152302    1W    00000200000000496000000000032G0    TTTJY   000000000000NE121044
BI00B32G0    TZ22031EMW     2022011818007703750              AVSS 0.3F R              CCN000006000000006000FN00000000020220301000006000NNM   20211209152302    1W    00000200000000496000000000032G0    TTTJY   000000000000NE121045
BI00B32G0    TZ22031EMW     2022011818007703792              AVSS 0.3F V              CCN000012000000012000FN00000000020220301000012000NNM   20211209152302    1W    00000200000000496000000000032G0    TTTJY   000000000000NE121046
BI00B32G0    TZ22032EMW     2022012518007703792              AVSS 0.3F V              CCN000006000000006000FN00000000020220301000006000NNM   20211209152302    1W    00000200000000496000000000032G0    TTTJY   000000000000NE221038
BI00B32G0    TZ22031EMW     20220118180D0203760              AVSSH 0.3F G             CCN000012000000012000FN00000000020220301000012000NNM   20211209152302    1W    00000200000000515000000000032G0    TTTJY   000000000000NE121032
BI00B32G0    TZ22032EMW     20220125180D0203760              AVSSH 0.3F G             CCN000008000000008000FN00000000020220301000008000NNM   20211209152302    1W    00000200000000515000000000032G0    TTTJY   000000000000NE221030
BI00B32G0    TZ22031EMW     20220118180D0203740              AVSSH 0.3F W             CCN000012000000012000FN00000000020220301000012000NNM   20211209152302    1W    00000200000000515000000000032G0    TTTJY   000000000000NE121033
BI00B32G0    TZ22032EMW     20220125180D0203740              AVSSH 0.3F W             CCN000004000000004000FN00000000020220301000004000NNM   20211209152302    1W    00000200000000515000000000032G0    TTTJY   000000000000NE221031
BI00B32G0    TZ22031EMW     20220118180D0203743              AVSSH 0.3F W/B           CCN000004000000004000FN00000000020220301000004000NNM   20211209152302    1W    00000200000000515000000000032G0    TTTJY   000000000000NE121034
BI00B32G0    TZ22031EMW     20220118180D0203980              AVSSH 0.5F BR            CCN000007500000007500FN00000000020220301000007500NNM   20211209152302    1W    00000150000000689000000000032G0    TTTJY   000000000000NE121035
BI00B32G0    TZ22031EMW     20220118180D0203990              AVSSH 0.5F L             CCN000006000000006000FN00000000020220301000006000NNM   20211209152302    1W    00000150000000689000000000032G0    TTTJY   000000000000NE121036
BI00B32G0    TZ22032EMW     20220125180D0203990              AVSSH 0.5F L             CCN000004500000004500FN00000000020220301000004500NNM   20211209152302    1W    00000150000000689000000000032G0    TTTJY   000000000000NE221032
BI00B32G0    TZ22031EMW     20220118180D0203950              AVSSH 0.5F R             CCN000003000000003000FN00000000020220301000003000NNM   20211209152302    1W    00000150000000689000000000032G0    TTTJY   000000000000NE121037
BI00B32G0    TZ22032EMW     20220125180D0203950              AVSSH 0.5F R             CCN000003000000003000FN00000000020220301000003000NNM   20211209152302    1W    00000150000000689000000000032G0    TTTJY   000000000000NE221033
BI00B32G0    TZ22031EMW     20220118180D0204030              AVSSH 0.75F B            CCN000006000000006000FN00000000020220301000006000NNM   20211209152302    1W    00000100000000968000000000032G0    TTTJY   000000000000NE121038
BI00B32G0    TZ22032EMW     20220125180D0204030              AVSSH 0.75F B            CCN000002000000002000FN00000000020220301000002000NNM   20211209152302    1W    00000100000000968000000000032G0    TTTJY   000000000000NE221034
BI00B32G0    TZ22031EMW     20220118180D0204043              AVSSH 0.75F W/B          CCN000006000000006000FN00000000020220301000006000NNM   20211209152302    1W    00000100000000968000000000032G0    TTTJY   000000000000NE121039
BI00B32G0    TZ22031EMW     20220118180D0204160              AVSSH 1.25F G            CCN000007200000007200FN00000000020220301000007200NNM   20211209152302    1W    00000080000001458000000000032G0    TTTJY   000000000000NE121040
BI00B32G0    TZ22032EMW     20220125180D0204160              AVSSH 1.25F G            CCN000005600000005600FN00000000020220301000005600NNM   20211209152302    1W    00000080000001458000000000032G0    TTTJY   000000000000NE221035
BI00B32G0    TZ22031EMW     20220118180D0204190              AVSSH 1.25F L            CCN000004800000004800FN00000000020220301000004800NNM   20211209152302    1W    00000080000001458000000000032G0    TTTJY   000000000000NE121041
BI00B32G0    TZ22032EMW     20220125180D0204190              AVSSH 1.25F L            CCN000000800000000800FN00000000020220301000000800NNM   20211209152302    1W    00000080000001458000000000032G0    TTTJY   000000000000NE221036
BI00B32G0    TZ22031EMW     20220118180D0204150              AVSSH 1.25F R            CCN000006400000006400FN00000000020220301000006400NNM   20211209152302    1W    00000080000001458000000000032G0    TTTJY   000000000000NE121042
BI00B32G0    TZ22032EMW     20220125180D0204150              AVSSH 1.25F R            CCN000004000000004000FN00000000020220301000004000NNM   20211209152302    1W    00000080000001458000000000032G0    TTTJY   000000000000NE221037
BI00B32G0    @TZ22031EMW    20220118181E50036ZZ              AVSSCS-S 0.3FX2 DGY      CCN000000350000000350FN00000000020220301000000350NNM   20211209152301    1W    00000035000001997000000000032G0    TTTJY   000000000000NE121019
BI00B32H2    TAW1123        20211217180D0203930              AVSSH 0.5F B             CCN000004500000001500FN00000000020211201000001500NNM22 20211209100310    1W    00000150000000689000000000032H2    HVYHV   000000000000UJ21B041
BI00B32H2    TAW112A        20220121180D0203943              AVSSH 0.5F W/B           CCN000001500000001500FN00000000020211201000001500NNE20 20211209105340    1W    00000150000000689000000000032H2    HVYHV   000000000000UF41A003
BI00B32H2    TAW112B        20220128180D0203930              AVSSH 0.5F B             CCN000001500000001500FN00000000020211201000001500NNE22 20211209105224    1W    00000150000000689000000000032H2    HVYHV   000000000000UB11B002
BI00B32H2    TAW112B        20220107180D0203950              AVSSH 0.5F R             CCN000001500000001500FN00000000020211201000001500NNE21 20211209105224    1W    00000150000000689000000000032H2    HVYHV   000000000000UB11B003
BI00B32H2    @TAW2012       20220107181B32102S1              AVSSCS 0.5FX2 DGY        CCN000006900000006900FN00000000020220101000006900NNM21 20211209104409    1W    00000030000002779000000000032H2    HVYHV   000000000000UH51B036
BI00B32H2    @TAW2013       20220107181E50014ZZ              AVSSCS-S 0.5FX1 DGY/R    CCN000000800000000800FN00000000020220101000000800NNM21 20211209104925    1W    00000040000001817000000000032H2    HVYHV   000000000000UH11C047
BI00B32H2    @TAW2012       20211217181F21002ZZ              AVSSHCS-S 0.5FX1 B       CCN000006800000000000FY00000000020220101000000000NNM11 20211209100700    1W    00000040000001847000000000032H2    HVYHV   000000000000UH51B040
BI00B32H2    @TAW2013       20211224181F21002ZZ              AVSSHCS-S 0.5FX1 B       CCN000008000000003200FN00000000020220101000003200NNM00 20211209100819    1W    00000040000001847000000000032H2    HVYHV   000000000000UH11C048
BI00B32H2    @TAW2013       20220107181AD2001ZZ              CIVUSAS-S 0.35X1 B       CCN000002200000002200FN00000000020220101000002200NNM21 20211209104925    1W    00000055000001327000000000032H2    HVYHV   000000000000UH11C037
BI00B32H2    @TAW2012       20220107181AD2004ZZ              CIVUSAS-S 0.35X4 B       CCN000051000000051000FN00000000020220101000051000NNM21 20211209104409    1W    00000030000002784000000000032H2    HVYHV   000000000000UH51B035
BI00B32H2    @TAW2013       20211224181AD2004ZZ              CIVUSAS-S 0.35X4 B       CCN000069000000000000FY00000000020220101000000000NNM11 20211209101222    1W    00000030000002784000000000032H2    HVYHV   000000000000UH11C041
BI00B32H2    @TAW201D       20220107181E50014ZZ              AVSSCS-S 0.5FX1 DGY/R    CCN000000400000000400FN00000000020220101000000400NNE20 20211209105056    1W    00000040000001817000000000032H2    HVYHV   000000000000UG11C002
BI00B32H2    @TAW201D       20220107181AD2001ZZ              CIVUSAS-S 0.35X1 B       CCN000002200000002200FN00000000020220101000002200NNE20 20211209105056    1W    00000055000001327000000000032H2    HVYHV   000000000000UG11C001
BI00B32H2    @TAW201E       20220107181B32102S1              AVSSCS 0.5FX2 DGY        CCN000001500000001500FN00000000020220101000001500NNE20 20211209104808    1W    00000030000002779000000000032H2    HVYHV   000000000000UK51B003
BI00B32H2    @TAW201E       20220107181AD2001ZZ              CIVUSAS-S 0.35X1 B       CCN000002200000002200FN00000000020220101000002200NNE20 20211209104808    1W    00000055000001327000000000032H2    HVYHV   000000000000UK51B001
BI00B32H2    @TAW2021       20220107181AD2001ZZ              CIVUSAS-S 0.35X1 B       CCN000013750000000000FY00000000020220201000000000NNM11 20211209101358    1W    00000055000001327000000000032H2    HVYHV   000000000000UH31C054
BI00B32H2    @TAW2021       20220107181AD2004ZZ              CIVUSAS-S 0.35X4 B       CCN000084000000000000FY00000000020220201000000000NNM11 20211209101358    1W    00000030000002784000000000032H2    HVYHV   000000000000UH31C056
BI00B32H2    TAW1123        20211218180D0203930              AVSSH 0.5F B             CCN000004500000000000FY00000000020211201000000000NNM12 20211209100053    1W    00000150000000689000000000032H2    HVYHV   000000000000UJ21B041
BI00B32H2    TAW1123        20211216180D0203930              AVSSH 0.5F B             CCN000003000000000000FY00000000020211201000000000NNM11 20211209100447    1W    00000150000000689000000000032H2    HVYHV   000000000000UJ21B041
BI00B32H2    @TAW2013       20211217181F21002ZZ              AVSSHCS-S 0.5FX1 B       CCN000004800000000000FY00000000020220101000000000NNM11 20211209101222    1W    00000040000001847000000000032H2    HVYHV   000000000000UH11C048
BI00B32J1    @388990        20211227181AD2003ZZ              CIVUSAS-S 0.35X3 B       CCN000043400000043400FN00000000020211201000043400NNM   20211209144022    1W    00000035000002209700000000032J1    UKYEL-BL000000000000KG21C001
BI00B32J1    @388990        20211227181E48012ZZ              CAVSAS-S 0.3X1 GY        CCN000000500000000500FN00000000020211201000000500NNM   20211209144022    1W    00000050000001701600000000032J1    UKYEL-BL000000000000KG21C002
BI00B32J1    @388990        20211227181E48029ZZ              CAVSAS-S 0.5X4 GY        CCN000003200000003200FN00000000020211201000003200NNM   20211209144022    1W    00000020000004425000000000032J1    UKYEL-BL000000000000KG21C005
BI00B32J1    @388990        20211227181E48031ZZ              CAVSAS-S 0.3X2 GY        CCN000008750000008750FN00000000020211201000008750NNM   20211209144022    1W    00000035000001998600000000032J1    UKYEL-BL000000000000KG21C007
BI00B32J1    @388990        20211227181E48033ZZ              CAVSAS-S 0.5X3 GY/B      CCN000013600000013600FN00000000020211201000013600NNM   20211209144022    1W    00000020000003218200000000032J1    UKYEL-BL000000000000KG21C004
BI00B32J1    @388990        20211227181E48035ZZ              CAVSAS-S 0.5X3 GY        CCN000000200000000200FN00000000020211201000000200NNM   20211209144022    1W    00000020000003218200000000032J1    UKYEL-BL000000000000KG21C003
BI00B32J1    @388990        20211227181E48065ZZ              CAVSAS-S 0.5X4 GY/W      CCN000003200000003200FN00000000020211201000003200NNM   20211209144022    1W    00000020000004425000000000032J1    UKYEL-BL000000000000KG21C006
BI00A32Q8    @EW21111TMW    20211210181D69102A8              AVSSHCS 0.5FX2 B/P       PCN000001200000001200FN00000000020211101000001200NNM23 20211209085801    1W    00000030000002792600000000032Q8    EMEMI   000000000000MT11B004
BI00A32Q8    @EW21111TMW    20211210181F21016ZZ              AVSSHCS-S 0.5FX2 B/BR    PCN000003900000003900FN00000000020211101000003900NNM23 20211209085801    1W    00000030000002505800000000032Q8    EMEMI   000000000000MT11B010
BI00B32Q8    EW22021 MW     2021122218009604443              AVS 5 W/B                CCN000000800000000200FN00000000020220201000000200NNM00 20211209092155    1W    00000020000005941000000000032Q8    EMEMI   000000000000MI11C020
BI00A32Q8    @EW21121 MW    20211210181D6910230              AVSSHCS 0.5FX2 B         PCN000001200000001200FN00000000020211201000001200NNM21 20211209085801    1W    00000030000002792600000000032Q8    EMEMI   000000000000MV11A001
BI00A32Q8    EW22021 MW     2021121018009604443              AVS 5 W/B                CCN000000600000000600FN00000000020220201000000600NNM20 20211209093453    1W    00000020000005941000000000032Q8    EMEMI   000000000000MI11C020
BI00B32U5    DW2004         202112241801W003930              IVSSH 0.5F B             CCN000086400000046800FN00000000020220301000046800NNM20 20211209161635U5  1W    00000180000000625000000000032U5    ASAMSD  000000000000AN11C014
BI00B32U5    DW2004         202112241801W003940              IVSSH 0.5F W             CCN000046800000014400FN00000000020220301000014400NNM20 20211209161822U5  1W    00000180000000625000000000032U5    ASAMSD  000000000000AN11C021
BI00B32U5    DW2004         202112241801W003950              IVSSH 0.5F R             CCN000100800000066600FN00000000020220301000066600NNM20 20211209161749U5  1W    00000180000000625000000000032U5    ASAMSD  000000000000AN11C019
BI00B32U5    DW2004         202112241801W003990              IVSSH 0.5F L             CCN000106200000086400FN00000000020220301000086400NNM20 20211209162103U5  1W    00000180000000625000000000032U5    ASAMSD  000000000000AN11C017
BI00B32U5    DW2004         202112241801W003992              IVSSH 0.5F V             CCN000021600000005400FN00000000020220301000005400NNM20 20211209162135U5  1W    00000180000000625000000000032U5    ASAMSD  000000000000AN11C020
BI00B32U5    DW2004         202112241801W006980              IVSSH 0.35F BR           CCN000045000000040000FN00000000020220301000040000NNM20 20211209162200U5  1W    00000250000000452000000000032U5    ASAMSD  000000000000AN11C029
BI00B32U5    @DW2004        20211224181AD2013ZZ              CIVUSAS-S 1.25X2 B       CCN000001320000001100FN00000000020220301000001100NNM20 20211209140623U5  1W    00000022000004000000000000032U5    ASAMSD  000000000000AN11C011
BI00A32U5    @DW2004        20211213181AD2013ZZ              CIVUSAS-S 1.25X2 B       PCN000000220000000220FN00000000020220301000000220NNM21 20211209140623U5  1W    00000022000004000000000000032U5    ASAMSD  000000000000AN11C011
BI00A32U5    DW2004         202112131801W003930              IVSSH 0.5F B             PCN000039600000039600FN00000000020220301000039600NNM21 20211209161635U5  1W    00000180000000625000000000032U5    ASAMSD  000000000000AN11C014
BI00A32U5    DW2004         202112131801W003960              IVSSH 0.5F G             PCN000034200000034200FN00000000020220301000034200NNM21 20211209161710U5  1W    00000180000000625000000000032U5    ASAMSD  000000000000AN11C016
BI00A32U5    DW2004         202112131801W003950              IVSSH 0.5F R             PCN000034200000034200FN00000000020220301000034200NNM21 20211209161749U5  1W    00000180000000625000000000032U5    ASAMSD  000000000000AN11C019
BI00A32U5    DW2004         202112131801W003940              IVSSH 0.5F W             PCN000032400000032400FN00000000020220301000032400NNM21 20211209161822U5  1W    00000180000000625000000000032U5    ASAMSD  000000000000AN11C021
BI00A32U5    DW2004         202112131801W003990              IVSSH 0.5F L             PCN000019800000019800FN00000000020220301000019800NNM21 20211209162103U5  1W    00000180000000625000000000032U5    ASAMSD  000000000000AN11C017
BI00A32U5    DW2004         202112131801W003992              IVSSH 0.5F V             PCN000016200000016200FN00000000020220301000016200NNM21 20211209162135U5  1W    00000180000000625000000000032U5    ASAMSD  000000000000AN11C020
BI00A32U5    DW2004         202112131801W006980              IVSSH 0.35F BR           PCN000005000000005000FN00000000020220301000005000NNM21 20211209162200U5  1W    00000250000000452000000000032U5    ASAMSD  000000000000AN11C029
BI00B32W4    4500184282     2022012518018403730              CAVS 0.3 B               CCN000012000000012000FN00000000020220101000012000NNE20 20211209111110W41 1W    00000200000000471000000000032W41   HJYHK-J 000000000000OU41C005
BI00B32W4    4500184282     2022012518018403750              CAVS 0.3 R               CCN000006000000006000FN00000000020220101000006000NNE20 20211209111110W41 1W    00000200000000471000000000032W41   HJYHK-J 000000000000OU41C007
BI00B32W4    4500184282     2022012518018403753              CAVS 0.3 R/B             CCN000002000000002000FN00000000020220101000002000NNE20 20211209111110W41 1W    00000200000000471000000000032W41   HJYHK-J 000000000000OU41C008
BI00B32W4    4500184282     2022012518018403784              CAVS 0.3 BR/W            CCN000010000000010000FN00000000020220101000010000NNE20 20211209111110W41 1W    00000200000000471000000000032W41   HJYHK-J 000000000000OU41C006
BI00B32W4    4500184282     2022012518018403749              CAVS 0.3 W/L             CCN000002000000002000FN00000000020220101000002000NNE20 20211209111110W41 1W    00000200000000471000000000032W41   HJYHK-J 000000000000OU41C009
BI00B32W4    4500184282     2022012518018403940              CAVS 0.5 W               CCN000006000000006000FN00000000020220101000006000NNE20 20211209111110W41 1W    00000150000000677000000000032W41   HJYHK-J 000000000000OU41C012
BI00B32W4    4500184282     2022012518018403952              CAVS 0.5 P               CCN000003000000003000FN00000000020220101000003000NNE20 20211209111110W41 1W    00000150000000677000000000032W41   HJYHK-J 000000000000OU41C011
BI00B32W4    4500184307     2022012518018403730              CAVS 0.3 B               CCN000012000000012000FN00000000020220101000012000NNE20 20211209111150W41 1W    00000200000000471000000000032W41   HJYHK-J 000000000000OW41C001
BI00B32W4    4500184307     2022012518018403749              CAVS 0.3 W/L             CCN000004000000004000FN00000000020220101000004000NNE20 20211209111150W41 1W    00000200000000471000000000032W41   HJYHK-J 000000000000OW41C002
BI00B32W6    SW22021QMW     2021122918000004560              AV 8 G                   CCN000005200000005200FN00000000020220201000005200NNM   20211209164230    1W    00000010000009148000000000032W6    SYSYA-WJ000000000000WA21C010
BI00B32W6    SW22022QMW     2022010518000004560              AV 8 G                   CCN000007500000007500FN00000000020220201000007500NNM   20211209164230    1W    00000010000009148000000000032W6    SYSYA-WJ000000000000WA31C007
BI00B32W6    SW22023QMW     2022011918000004560              AV 8 G                   CCN000007600000007600FN00000000020220201000007600NNM   20211209164230    1W    00000010000009148000000000032W6    SYSYA-WJ000000000000WA121026
BI00B32W6    SW22024QMW     2022012618000004560              AV 8 G                   CCN000009300000009300FN00000000020220201000009300NNM   20211209164230    1W    00000010000009148000000000032W6    SYSYA-WJ000000000000WA221036
BI00B32W6    SW22021QMW     2021122918000004550              AV 8 R                   CCN000002700000002700FN00000000020220201000002700NNM   20211209164230    1W    00000010000009148000000000032W6    SYSYA-WJ000000000000WA21C011
BI00B32W6    SW22022QMW     2022010518000004550              AV 8 R                   CCN000002900000002900FN00000000020220201000002900NNM   20211209164230    1W    00000010000009148000000000032W6    SYSYA-WJ000000000000WA31C008
BI00B32W6    SW22023QMW     2022011918000004550              AV 8 R                   CCN000002900000002900FN00000000020220201000002900NNM   20211209164230    1W    00000010000009148000000000032W6    SYSYA-WJ000000000000WA121027
BI00B32W6    SW22024QMW     2022012618000004550              AV 8 R                   CCN000003600000003600FN00000000020220201000003600NNM   20211209164230    1W    00000010000009148000000000032W6    SYSYA-WJ000000000000WA221037
BI00B32W6    @SW22021QMW    20211229181E48015ZZ              CAVSAS-S 0.5X1 GY        CCN000000400000000400FN00000000020220201000000400NNM   20211209164228    1W    00000040000001932600000000032W6    SYSYA-WJ000000000000WA21C008
BI00B32W6    @SW22022QMW    20220105181E48015ZZ              CAVSAS-S 0.5X1 GY        CCN000000800000000800FN00000000020220201000000800NNM   20211209164228    1W    00000040000001932600000000032W6    SYSYA-WJ000000000000WA31C005
BI00B32W6    @SW22023QMW    20220119181E48015ZZ              CAVSAS-S 0.5X1 GY        CCN000000800000000800FN00000000020220201000000800NNM   20211209164228    1W    00000040000001932600000000032W6    SYSYA-WJ000000000000WA121020
BI00B32W6    @SW22024QMW    20220126181E48015ZZ              CAVSAS-S 0.5X1 GY        CCN000001200000001200FN00000000020220201000001200NNM   20211209164228    1W    00000040000001932600000000032W6    SYSYA-WJ000000000000WA221021
BI00B32W6    @SW22021QMW    20211229181E48019ZZ              CAVSAS-S 0.5X1 GY/W      CCN000000400000000400FN00000000020220201000000400NNM   20211209164228    1W    00000040000001932600000000032W6    SYSYA-WJ000000000000WA21C009
BI00B32W6    @SW22022QMW    20220105181E48019ZZ              CAVSAS-S 0.5X1 GY/W      CCN000000400000000400FN00000000020220201000000400NNM   20211209164228    1W    00000040000001932600000000032W6    SYSYA-WJ000000000000WA31C006
BI00B32W6    @SW22023QMW    20220119181E48019ZZ              CAVSAS-S 0.5X1 GY/W      CCN000000800000000800FN00000000020220201000000800NNM   20211209164228    1W    00000040000001932600000000032W6    SYSYA-WJ000000000000WA121021
BI00B32W6    @SW22024QMW    20220126181E48019ZZ              CAVSAS-S 0.5X1 GY/W      CCN000001200000001200FN00000000020220201000001200NNM   20211209164228    1W    00000040000001932600000000032W6    SYSYA-WJ000000000000WA221022
BI00B32W7    SC22021JMW     2021122918000004530              AV 8 B                   CCN000002000000002000FN00000000020220201000002000NNM   20211209164646    1W    00000010000009148000000000032W7    SYSYA-CH000000000000WJ21C007
BI00B32W7    SC22022JMW     2022010518000004530              AV 8 B                   CCN000002000000002000FN00000000020220201000002000NNM   20211209164646    1W    00000010000009148000000000032W7    SYSYA-CH000000000000WJ31C003
BI00B32W7    SC22023JMW     2022011918000004530              AV 8 B                   CCN000002000000002000FN00000000020220201000002000NNM   20211209164646    1W    00000010000009148000000000032W7    SYSYA-CH000000000000WJ121002
BI00B32W7    SC22021JMW     2021122918000004580              AV 8 BR                  CCN000000400000000400FN00000000020220201000000400NNM   20211209164646    1W    00000010000009148000000000032W7    SYSYA-CH000000000000WJ21C008
BI00B32W7    SC22021JMW     2021122918000004560              AV 8 G                   CCN000000500000000500FN00000000020220201000000500NNM   20211209164646    1W    00000010000009148000000000032W7    SYSYA-CH000000000000WJ21C009
BI00B32W7    SC22022JMW     2022010518000004560              AV 8 G                   CCN000000500000000500FN00000000020220201000000500NNM   20211209164646    1W    00000010000009148000000000032W7    SYSYA-CH000000000000WJ31C004
BI00B32W7    SC22023JMW     2022011918000004560              AV 8 G                   CCN000000500000000500FN00000000020220201000000500NNM   20211209164646    1W    00000010000009148000000000032W7    SYSYA-CH000000000000WJ121003
BI00B32W7    SC22024JMW     2022012618000004560              AV 8 G                   CCN000000500000000500FN00000000020220201000000500NNM   20211209164646    1W    00000010000009148000000000032W7    SYSYA-CH000000000000WJ221001
BI00B32W7    SC22021JMW     2021122918000004590              AV 8 L                   CCN000002000000002000FN00000000020220201000002000NNM   20211209164646    1W    00000010000009148000000000032W7    SYSYA-CH000000000000WJ21C010
BI00B32W7    SC22022JMW     2022010518000004590              AV 8 L                   CCN000002000000002000FN00000000020220201000002000NNM   20211209164646    1W    00000010000009148000000000032W7    SYSYA-CH000000000000WJ31C005
BI00B32W7    SC22023JMW     2022011918000004590              AV 8 L                   CCN000002000000002000FN00000000020220201000002000NNM   20211209164646    1W    00000010000009148000000000032W7    SYSYA-CH000000000000WJ121004
BI00B32W7    SC22021JMW     2021122918000004550              AV 8 R                   CCN000005700000005700FN00000000020220201000005700NNM   20211209164646    1W    00000010000009148000000000032W7    SYSYA-CH000000000000WJ21C011
BI00B32W7    SC22022JMW     2022010518000004550              AV 8 R                   CCN000004800000004800FN00000000020220201000004800NNM   20211209164646    1W    00000010000009148000000000032W7    SYSYA-CH000000000000WJ31C006
BI00B32W7    SC22023JMW     2022011918000004550              AV 8 R                   CCN000004800000004800FN00000000020220201000004800NNM   20211209164646    1W    00000010000009148000000000032W7    SYSYA-CH000000000000WJ121005
BI00B32W7    SC22021JMW     2021122918000004540              AV 8 W                   CCN000002200000002200FN00000000020220201000002200NNM   20211209164646    1W    00000010000009148000000000032W7    SYSYA-CH000000000000WJ21C012
BI00B32W7    SC22022JMW     2022010518000004540              AV 8 W                   CCN000002200000002200FN00000000020220201000002200NNM   20211209164646    1W    00000010000009148000000000032W7    SYSYA-CH000000000000WJ31C007
BI00B32W7    SC22023JMW     2022011918000004540              AV 8 W                   CCN000002200000002200FN00000000020220201000002200NNM   20211209164646    1W    00000010000009148000000000032W7    SYSYA-CH000000000000WJ121006
BI00B32W7    SC22021JMW     2021122918000004570              AV 8 Y                   CCN000000600000000600FN00000000020220201000000600NNM   20211209164646    1W    00000010000009148000000000032W7    SYSYA-CH000000000000WJ21C013
BI00B32W7    SC22022JMW     2022010518000004570              AV 8 Y                   CCN000000600000000600FN00000000020220201000000600NNM   20211209164646    1W    00000010000009148000000000032W7    SYSYA-CH000000000000WJ31C008
BI00B32W7    @SC22021JMW    20211229181B32013ZZ              AVSSCS 0.3FX1 DGY/O      CCN000007500000007500FN00000000020220201000007500NNM   20211209164645    1W    00000050000001780000000000032W7    SYSYA-CH000000000000WJ21C001
BI00B32W7    @SC22021JMW    20211229181B32037Y5              AVSSCS 0.3FX1 DGY/W      CCN000002500000002500FN00000000020220201000002500NNM   20211209164645    1W    00000050000001780000000000032W7    SYSYA-CH000000000000WJ21C002
BI00B32W7    @SC22021JMW    20211229181B32116Y9              AVSSCS 0.3FX2 DGY/P      CCN000001750000001750FN00000000020220201000001750NNM   20211209164645    1W    00000035000002241000000000032W7    SYSYA-CH000000000000WJ21C003
BI00B32W7    @SC22021JMW    20211229181B32116Y8              AVSSCS 0.3FX2 DGY/R      CCN000002100000002100FN00000000020220201000002100NNM   20211209164645    1W    00000035000002241000000000032W7    SYSYA-CH000000000000WJ21C004
BI00B32W7    @SC22022JMW    20220105181B32116Y8              AVSSCS 0.3FX2 DGY/R      CCN000002100000002100FN00000000020220201000002100NNM   20211209164645    1W    00000035000002241000000000032W7    SYSYA-CH000000000000WJ31C001
BI00B32W7    @SC22023JMW    20220119181B32116Y8              AVSSCS 0.3FX2 DGY/R      CCN000001750000001750FN00000000020220201000001750NNM   20211209164645    1W    00000035000002241000000000032W7    SYSYA-CH000000000000WJ121001
BI00B32W7    @SC22021JMW    20211229181E48022ZZ              CAVSAS-S 0.5X2 GY        CCN000003000000003000FN00000000020220201000003000NNM   20211209164645    1W    00000030000002493000000000032W7    SYSYA-CH000000000000WJ21C005
BI00B32W7    @SC22022JMW    20220105181E48022ZZ              CAVSAS-S 0.5X2 GY        CCN000003000000003000FN00000000020220201000003000NNM   20211209164645    1W    00000030000002493000000000032W7    SYSYA-CH000000000000WJ31C002
BI00B32W7    @SC22021JMW    20211229181E48031ZZ              CAVSAS-S 0.3X2 GY        CCN000001050000001050FN00000000020220201000001050NNM   20211209164645    1W    00000035000001998600000000032W7    SYSYA-CH000000000000WJ21C006
