BI00A1200    2399T51730     202201057288-6547                CONNECTOR MALE ASS'Y     PCN000150000000048000FN00000000020210901000048000NNMD0420211209191353    4N0N  0000007500000120530000134031200    YCYC    005400370024
BI00B1200    2399T51B19     202112167289-3342-30             HOUSING FEMALE ASS'Y     CCN000002400000002400FN00000000020220101000002400NNM00020211209175600    1N0N  0000024000000068640000090141200    YCYC    005500360039
BI00B1200    2399T51B19     202112167289-6597-70             HOUSING FEMALE ASS'Y     CCN000017280000017280FN00000000020220101000017280NNM00020211209175621    4N0N  0000021600000128950000153951200    YCYC    005500360039
BI00B1200    8870T51C02     202202247288-3340-30             HOUSING MALE             CCN000001500000001500FN00000000020220301000001500NNE   20211209175058    4N0N  0000015000000086150000100641200    YCYC    005400370024
BI00B1200    #8870T51C02    202202247289-2919-30             HOUSING FEMALE ASS'Y     CCN000001500000001500FN00000000020220301000001500NNE   20211209175058    2N0N  0000015000000090750000103451200    YCYC    005400360024
BI00A1200    2399T51730     202112227288-6547                CONNECTOR MALE ASS'Y     PCN000037500000037500FN00000000020210901000037500NNMD0420211209191353    4N0N  0000007500000120530000134031200    YCYC    005400370024
BI00A32AF    JTB2013        202112107158-3006-90             RUBBER STOPPER           CCN000020000000020000FN00000000020220101000020000NNMM0020211209175058    1C0C  00002000000000330600000386032AF    HBYHVTB 002700430014
BI00B32AF    JTB2021        202201147283-4855                CONNECTOR HOUSING        CCN000009600000009600FN00000000020220201000009600NNMD0420211209175058    4N0N  00000240000001188400001400032AF    HBYHVTB 005500360039
BI00B32AF    JTB2023        202201287283-4855                CONNECTOR HOUSING        CCN000002400000002400FN00000000020220201000002400NNMD0420211209175058    4N0N  00000240000001188400001400032AF    HBYHVTB 005500360039
BI00B32AF    JTB2024        202202047283-4855                CONNECTOR HOUSING        CCN000002400000002400FN00000000020220201000002400NNMD0420211209175058    4N0N  00000240000001188400001400032AF    HBYHVTB 005500360039
BI00B32AF    JTB2023        202201287289-3342-30             HOUSING FEMALE ASS'Y     CCN000048000000048000FN00000000020220201000048000NNMD0420211209175058    1N0N  00000240000000686400000901432AF    HBYHVTB 005500360039
BI00B32AF    JTB2024        202202047289-3342-30             HOUSING FEMALE ASS'Y     CCN000055200000055200FN00000000020220201000055200NNMD0420211209175058    1N0N  00000240000000686400000901432AF    HBYHVTB 005500360039
BI00B32AF    JTB2025        202202117289-3342-30             HOUSING FEMALE ASS'Y     CCN000048000000048000FN00000000020220201000048000NNMD0420211209175058    1N0N  00000240000000686400000901432AF    HBYHVTB 005500360039
BI00A32AG    XG22013LMW     202112107116-4026                TERMINAL                 CCN000048000000048000FN00000000020220101000048000NNMM0020211209181333    4P0P  00001600000000664000000994332AG    XGXGY   006400630017
BI00A32AG    #XG22014LMW    202112137182-9631-40             JOINT CONNECTOR          CCN000003000000003000FN00000000020220101000003000NNMM0020211209181434    2F0F  00000300000001182000001307432AG    XGXGY   005400370024
BI00B32AG    XG22013NMW     202112177116-4415-02             TERMINAL                 CCN000418000000038000FN00000000020220101000038000NNMQ0020211209175058    4P0P  00003800000000596600000925732AG    XGXGY   006400630017
BI00B32AG    XG22013NMW     202112177116-4416-02             TERMINAL                 CCN000256000000032000FN00000000020220101000032000NNMQ0020211209175058    4P0P  00003200000000518400000847132AG    XGXGY   006400630017
BI00B32AG    #XG22023CMW    202201147198-1371-60             HOUSING FEMALE           CCN000002000000002000FN00000000020220201000002000NNMD0020211209175058    2F0F  00000200000000597800000721232AG    XGXGY   005400370024
BI00B32AG    #XG22023CMW    202201147198-1372                HOUSING FEMALE           CCN000002000000002000FN00000000020220201000002000NNMD0020211209175058    2F0F  00000200000000857200000982232AG    XGXGY   005400370024
BI00B32AG    XG22022NMW     202201077126-8854-02             TERMINAL                 CCN000007500000007500FN00000000020220201000007500NNMD0020211209175058    4P0P  00000750000000604500000889732AG    XGXGY   006400630015
BI00B32AG    XG22031CMW     202202047C89-6868-30             SEALED ASSY FEMALE       CCN000005040000005040FN00000000020220301000005040NNMD0420211209175058    4N0N  00000252000000839200001119232AG    XGXGY   005500360039
BI00B32AG    XG22032CMW     202202117C89-6868-30             SEALED ASSY FEMALE       CCN000005040000005040FN00000000020220301000005040NNMD0420211209175058    4N0N  00000252000000839200001119232AG    XGXGY   005500360039
BI00B32AG    XG22033CMW     202202187C89-6868-30             SEALED ASSY FEMALE       CCN000005040000005040FN00000000020220301000005040NNMD0420211209175058    4N0N  00000252000000839200001119232AG    XGXGY   005500360039
BI00B32AG    XG22034CMW     202202257C89-6868-30             SEALED ASSY FEMALE       CCN000007560000007560FN00000000020220301000007560NNMD0420211209175058    4N0N  00000252000000839200001119232AG    XGXGY   005500360039
BI00B32AG    XG22035CMW     202203047C89-6868-30             SEALED ASSY FEMALE       CCN000005040000005040FN00000000020220301000005040NNMD0420211209175058    4N0N  00000252000000839200001119232AG    XGXGY   005500360039
BI00B32AG    XG22031CMW     202201147116-4032                TERMINAL                 CCN000012000000012000FN00000000020220301000012000NNMD0020211209175058    4P0P  00000600000000532800000818032AG    XGXGY   006400630015
BI00B32AG    XG22031CMW     202201147158-3070-80             RUBBER STOPPER           CCN000040000000040000FN00000000020220301000040000NNMD0020211209175058    1C0C  00004000000000276000000333332AG    XGXGY   002700430014
BI00B32AG    XG22034CMW     202202047158-3070-80             RUBBER STOPPER           CCN000040000000040000FN00000000020220301000040000NNMD0020211209175058    1C0C  00004000000000276000000333332AG    XGXGY   002700430014
BI00B32AG    XG22031CMW     202202047298-3822-70             HOUSING FEMALE ASS'Y     CCN000005040000005040FN00000000020220301000005040NNMD0420211209175058    4N0N  00000252000000776200001077032AG    XGXGY   005500360039
BI00B32AG    XG22032CMW     202202117298-3822-70             HOUSING FEMALE ASS'Y     CCN000002520000002520FN00000000020220301000002520NNMD0420211209175058    4N0N  00000252000000776200001077032AG    XGXGY   005500360039
BI00B32AG    XG22033CMW     202202187298-3822-70             HOUSING FEMALE ASS'Y     CCN000007560000007560FN00000000020220301000007560NNMD0420211209175058    4N0N  00000252000000776200001077032AG    XGXGY   005500360039
BI00B32AG    XG22034CMW     202202257298-3822-70             HOUSING FEMALE ASS'Y     CCN000005040000005040FN00000000020220301000005040NNMD0420211209175058    4N0N  00000252000000776200001077032AG    XGXGY   005500360039
BI00B32AG    XG22035CMW     202203047298-3822-70             HOUSING FEMALE ASS'Y     CCN000005040000005040FN00000000020220301000005040NNMD0420211209175058    4N0N  00000252000000776200001077032AG    XGXGY   005500360039
BI00B32AG    XG22031CMW     202202047327-6832-60             MAIN FUSE                CCN000001800000001800FN00000000020220301000001800NNMD0420211209175058    4N0N  00000060000000729200000930732AG    XGXGY   005400370024
BI00B32AG    XG22032CMW     202202117327-6832-60             MAIN FUSE                CCN000002400000002400FN00000000020220301000002400NNMD0420211209175058    4N0N  00000060000000729200000930732AG    XGXGY   005400370024
BI00B32AG    XG22033CMW     202202187327-6832-60             MAIN FUSE                CCN000002400000002400FN00000000020220301000002400NNMD0420211209175058    4N0N  00000060000000729200000930732AG    XGXGY   005400370024
BI00B32AG    XG22034CMW     202202257327-6832-60             MAIN FUSE                CCN000003600000003600FN00000000020220301000003600NNMD0420211209175058    4N0N  00000060000000729200000930732AG    XGXGY   005400370024
BI00B32AG    XG22035CMW     202203047327-6832-60             MAIN FUSE                CCN000003000000003000FN00000000020220301000003000NNMD0420211209175058    4N0N  00000060000000729200000930732AG    XGXGY   005400370024
BI00B32AG    XG22031CMW     202203047327-6870-30             MULTI FUSE               CCN000006912000006912FN00000000020220301000006912NNMD0420211209175058    4N0N  00000028800001015200001181132AG    XGXGY   005400370024
BI00B32AG    XG22032CMW     202203117327-6870-30             MULTI FUSE               CCN000002592000002592FN00000000020220301000002592NNMD0420211209175058    4N0N  00000028800001015200001181132AG    XGXGY   005400370024
BI00B32AG    XG22033CMW     202203187327-6870-30             MULTI FUSE               CCN000002592000002592FN00000000020220301000002592NNMD0420211209175058    4N0N  00000028800001015200001181132AG    XGXGY   005400370024
BI00B32AG    XG22034CMW     202203257327-6870-30             MULTI FUSE               CCN000000576000000576FN00000000020220301000000576NNMD0420211209175058    4N0N  00000028800001015200001181132AG    XGXGY   005400370024
BI00B32AG    XG22035CMW     202204017327-6870-30             MULTI FUSE               CCN000002880000002880FN00000000020220301000002880NNMD0420211209175058    4N0N  00000028800001015200001181132AG    XGXGY   005400370024
BI00B32AG    XG22031CMW     202203047327-6874-30             MULTI FUSE               CCN000006912000006912FN00000000020220301000006912NNMD0420211209175058    4N0N  00000028800000991400001157332AG    XGXGY   005400370024
BI00B32AG    XG22032CMW     202203117327-6874-30             MULTI FUSE               CCN000002880000002880FN00000000020220301000002880NNMD0420211209175058    4N0N  00000028800000991400001157332AG    XGXGY   005400370024
BI00B32AG    XG22033CMW     202203187327-6874-30             MULTI FUSE               CCN000002304000002304FN00000000020220301000002304NNMD0420211209175058    4N0N  00000028800000991400001157332AG    XGXGY   005400370024
BI00B32AG    XG22034CMW     202203257327-6874-30             MULTI FUSE               CCN000000576000000576FN00000000020220301000000576NNMD0420211209175058    4N0N  00000028800000991400001157332AG    XGXGY   005400370024
BI00B32AG    XG22035CMW     202204017327-6874-30             MULTI FUSE               CCN000002880000002880FN00000000020220301000002880NNMD0420211209175058    4N0N  00000028800000991400001157332AG    XGXGY   005400370024
BI00B32AG    XG22031CMW     202203047327-6880-30             MULTI FUSE               CCN000006912000006912FN00000000020220301000006912NNMD0420211209175058    4N0N  00000028800001012600001178532AG    XGXGY   005400370024
BI00B32AG    XG22032CMW     202203117327-6880-30             MULTI FUSE               CCN000002592000002592FN00000000020220301000002592NNMD0420211209175058    4N0N  00000028800001012600001178532AG    XGXGY   005400370024
BI00B32AG    XG22033CMW     202203187327-6880-30             MULTI FUSE               CCN000002592000002592FN00000000020220301000002592NNMD0420211209175058    4N0N  00000028800001012600001178532AG    XGXGY   005400370024
BI00B32AG    XG22034CMW     202203257327-6880-30             MULTI FUSE               CCN000000576000000576FN00000000020220301000000576NNMD0420211209175058    4N0N  00000028800001012600001178532AG    XGXGY   005400370024
BI00B32AG    XG22035CMW     202204017327-6880-30             MULTI FUSE               CCN000002880000002880FN00000000020220301000002880NNMD0420211209175058    4N0N  00000028800001012600001178532AG    XGXGY   005400370024
BI00B32AG    XG22031CMW     202203047327-6884-30             MULTI FUSE               CCN000006912000006912FN00000000020220301000006912NNMD0420211209175058    4N0N  00000028800000988900001154832AG    XGXGY   005400370024
BI00B32AG    XG22032CMW     202203117327-6884-30             MULTI FUSE               CCN000002592000002592FN00000000020220301000002592NNMD0420211209175058    4N0N  00000028800000988900001154832AG    XGXGY   005400370024
BI00B32AG    XG22033CMW     202203187327-6884-30             MULTI FUSE               CCN000002592000002592FN00000000020220301000002592NNMD0420211209175058    4N0N  00000028800000988900001154832AG    XGXGY   005400370024
BI00B32AG    XG22034CMW     202203257327-6884-30             MULTI FUSE               CCN000000576000000576FN00000000020220301000000576NNMD0420211209175058    4N0N  00000028800000988900001154832AG    XGXGY   005400370024
BI00B32AG    XG22035CMW     202204017327-6884-30             MULTI FUSE               CCN000002880000002880FN00000000020220301000002880NNMD0420211209175058    4N0N  00000028800000988900001154832AG    XGXGY   005400370024
BI00A32AG    XG22013NMW     202112107116-4415-02             TERMINAL                 CCN000380000000380000FN00000000020220101000380000NNMM0020211209181333    4P0P  00003800000000596600000925732AG    XGXGY   006400630017
BI00A32AG    XG22013NMW     202112107116-4416-02             TERMINAL                 CCN000224000000224000FN00000000020220101000224000NNMM0020211209181333    4P0P  00003200000000518400000847132AG    XGXGY   006400630017
BI00B32BG    #YY22023CMW    202112237189-3033                HOUSING FEMALE           CCN000003200000000000FY00000000020220201000000000NNMQ0820211209104650    2F0F  00000160000001211200001431232BG    YGYYA   005500360039
BI00B32BG    #YY22023CMW    202112237189-3036                HOUSING FEMALE           CCN000003200000000000FY00000000020220201000000000NNMQ0820211209104705    2F0F  00000160000000921600001141632BG    YGYYA   005500360039
BI00B32CA    PTA32063       202203317289-3342                HOUSING FEMALE ASS'Y     CCN000045600000045600FN00000000020220601000045600NNED0420211209175058    1N0N  00000240000000686400000901432CA    YPYPY   005500360039
BI00B32CA    PTA32063       202203177289-3342-30             HOUSING FEMALE ASS'Y     CCN000062400000062400FN00000000020220601000062400NNED0420211209175058    1N0N  00000240000000686400000901432CA    YPYPY   005500360039
BI00B32CA    PTA32063       202203177289-3342-90             HOUSING FEMALE ASS'Y     CCN000016800000016800FN00000000020220601000016800NNED0420211209175058    1N0N  00000240000000686400000901432CA    YPYPY   005500360039
BI00B32CA    PTA32061       202203107289-3342                HOUSING FEMALE ASS'Y     CCN000045600000045600FN00000000020220601000045600NNED0420211209175058    1N0N  00000240000000686400000901432CA    YPYPY   005500360039
BI00B32CA    PTA32061       202203107289-3342-30             HOUSING FEMALE ASS'Y     CCN000062400000062400FN00000000020220601000062400NNED0420211209175058    1N0N  00000240000000686400000901432CA    YPYPY   005500360039
BI00B32CA    PTA32061       202203107289-3342-90             HOUSING FEMALE ASS'Y     CCN000019200000019200FN00000000020220601000019200NNED0420211209175058    1N0N  00000240000000686400000901432CA    YPYPY   005500360039
BI00B32CC    CTA32041       202201207283-4855                CONNECTOR HOUSING        CCN000006600000007200FN00000000020220401000007200NNED0420211209175058    4N0N  00000240000001188400001400032CC    BIYABCBU005500360039
BI00B32CC    CTA32041       202201207289-3342-30             HOUSING FEMALE ASS'Y     CCN000012000000012000FN00000000020220401000012000NNED0420211209175058    1N0N  00000240000000686400000901432CC    BIYABCBU005500360039
BI00B32CH    SJ2201AHMW     202201137298-5993-30             SEALED ASSY FEMALE       CCN000002184000002184FN00000000020220101000002184NNED0420211209175058    4N0N  00000218400000981500001290032CH    SJSAMIJF005500360039
BI00B32CH    SJ22021 MW     202201277327-6832-60             MAIN FUSE                CCN000004200000004200FN00000000020220201000004200NNMD0420211209175058    4N0N  00000060000000729200000930732CH    SJSAMIJF005400370024
BI00B32CH    SJ22022 MW     202202037327-6832-60             MAIN FUSE                CCN000006000000006000FN00000000020220201000006000NNMD0420211209175058    4N0N  00000060000000729200000930732CH    SJSAMIJF005400370024
BI00B32CH    SJ22023 MW     202202107327-6832-60             MAIN FUSE                CCN000015000000015000FN00000000020220201000015000NNMD0420211209175058    4N0N  00000060000000729200000930732CH    SJSAMIJF005400370024
BI00B32CH    SJ22024 MW     202202177327-6832-60             MAIN FUSE                CCN000009000000009000FN00000000020220201000009000NNMD0420211209175058    4N0N  00000060000000729200000930732CH    SJSAMIJF005400370024
BI00B32CH    SJ22022HMW     202201207C89-6868-30             SEALED ASSY FEMALE       CCN000015120000015120FN00000000020220201000015120NNMD0420211209175058    4N0N  00000252000000839200001119232CH    SJSAMIJF005500360039
BI00B32CH    SJ22023HMW     202201277C89-6868-30             SEALED ASSY FEMALE       CCN000035280000035280FN00000000020220201000035280NNMD0420211209175058    4N0N  00000252000000839200001119232CH    SJSAMIJF005500360039
BI00B32CH    SJ22024HMW     202202037C89-6868-30             SEALED ASSY FEMALE       CCN000022680000022680FN00000000020220201000022680NNMD0420211209175058    4N0N  00000252000000839200001119232CH    SJSAMIJF005500360039
BI00B32CH    SJ22021HMW     202201277298-5993-30             SEALED ASSY FEMALE       CCN000004368000004368FN00000000020220201000004368NNMD0420211209175058    4N0N  00000218400000981500001290032CH    SJSAMIJF005500360039
BI00B32CH    SJ22023HMW     202202107298-5993-30             SEALED ASSY FEMALE       CCN000004368000004368FN00000000020220201000004368NNMD0420211209175058    4N0N  00000218400000981500001290032CH    SJSAMIJF005500360039
BI00B32CH    SJ22024HMW     202202177298-5993-30             SEALED ASSY FEMALE       CCN000002184000002184FN00000000020220201000002184NNMD0420211209175058    4N0N  00000218400000981500001290032CH    SJSAMIJF005500360039
BI00B32CH    SJ22022HMW     202202037327-6830-30             MAIN FUSE                CCN000000600000000600FN00000000020220201000000600NNMD0420211209175058    4N0N  00000060000000720100000922832CH    SJSAMIJF005400370024
BI00B32CH    SJ22024HMW     202202177327-6830-30             MAIN FUSE                CCN000000600000000600FN00000000020220201000000600NNMD0420211209175058    4N0N  00000060000000720100000922832CH    SJSAMIJF005400370024
BI00B32CH    SJ22023HMW     202202247327-6868-30             MULTI FUSE               CCN000000288000000288FN00000000020220201000000288NNMD0420211209175058    4N0N  00000028800001013500001179432CH    SJSAMIJF005400370024
BI00B32CH    SJ22024HMW     202203037327-6868-30             MULTI FUSE               CCN000000288000000288FN00000000020220201000000288NNMD0420211209175058    4N0N  00000028800001013500001179432CH    SJSAMIJF005400370024
BI00B32CH    SJ22022HMW     202202177327-6870-30             MULTI FUSE               CCN000004032000004032FN00000000020220201000004032NNMD0420211209175058    4N0N  00000028800001015200001181132CH    SJSAMIJF005400370024
BI00B32CH    SJ22023HMW     202203177327-6870-30             MULTI FUSE               CCN000014976000014976FN00000000020220201000014976NNMD0420211209175058    4N0N  00000028800001015200001181132CH    SJSAMIJF005400370024
BI00B32CH    SJ22024HMW     202203037327-6870-30             MULTI FUSE               CCN000009216000009216FN00000000020220201000009216NNMD0420211209175058    4N0N  00000028800001015200001181132CH    SJSAMIJF005400370024
BI00B32CH    SJ22021HMW     202202107327-6874-30             MULTI FUSE               CCN000004896000004896FN00000000020220201000004896NNMD0420211209175058    4N0N  00000028800000991400001157332CH    SJSAMIJF005400370024
BI00B32CH    SJ22022HMW     202202177327-6874-30             MULTI FUSE               CCN000005472000005472FN00000000020220201000005472NNMD0420211209175058    4N0N  00000028800000991400001157332CH    SJSAMIJF005400370024
BI00B32CH    SJ22023HMW     202203177327-6874-30             MULTI FUSE               CCN000014688000014688FN00000000020220201000014688NNMD0420211209175058    4N0N  00000028800000991400001157332CH    SJSAMIJF005400370024
BI00B32CH    SJ22024HMW     202203037327-6874-30             MULTI FUSE               CCN000008640000008640FN00000000020220201000008640NNMD0420211209175058    4N0N  00000028800000991400001157332CH    SJSAMIJF005400370024
BI00B32CH    SJ22021HMW     202202107327-6880-30             MULTI FUSE               CCN000004320000004320FN00000000020220201000004320NNMD0420211209175058    4N0N  00000028800001012600001178532CH    SJSAMIJF005400370024
BI00B32CH    SJ22022HMW     202202177327-6880-30             MULTI FUSE               CCN000006048000006048FN00000000020220201000006048NNMD0420211209175058    4N0N  00000028800001012600001178532CH    SJSAMIJF005400370024
BI00B32CH    SJ22023HMW     202203177327-6880-30             MULTI FUSE               CCN000015264000015264FN00000000020220201000015264NNMD0420211209175058    4N0N  00000028800001012600001178532CH    SJSAMIJF005400370024
BI00B32CH    SJ22024HMW     202203037327-6880-30             MULTI FUSE               CCN000008928000008928FN00000000020220201000008928NNMD0420211209175058    4N0N  00000028800001012600001178532CH    SJSAMIJF005400370024
BI00B32CH    SJ22022HMW     202202177327-6884-30             MULTI FUSE               CCN000002304000002304FN00000000020220201000002304NNMD0420211209175058    4N0N  00000028800000988900001154832CH    SJSAMIJF005400370024
BI00B32CH    SJ22023HMW     202203177327-6884-30             MULTI FUSE               CCN000015552000015552FN00000000020220201000015552NNMD0420211209175058    4N0N  00000028800000988900001154832CH    SJSAMIJF005400370024
BI00B32CH    SJ22024HMW     202203037327-6884-30             MULTI FUSE               CCN000009792000009792FN00000000020220201000009792NNMD0420211209175058    4N0N  00000028800000988900001154832CH    SJSAMIJF005400370024
BI00B32CH    SJ22023SMW     202201277289-3342-30             HOUSING FEMALE ASS'Y     CCN000007200000007200FN00000000020220201000007200NNMD0420211209175058    1N0N  00000240000000686400000901432CH    SJSAMIJF005500360039
BI00B32CH    SJ22024SMW     202202037289-3342-30             HOUSING FEMALE ASS'Y     CCN000009600000009600FN00000000020220201000009600NNMD0420211209175058    1N0N  00000240000000686400000901432CH    SJSAMIJF005500360039
BI00B32CH    SJ22021SMW     202201137289-6868-30             SEALED ASSY FEMALE       CCN000002520000002520FN00000000020220201000002520NNMD0420211209175058    4N0N  00000252000000839200001119232CH    SJSAMIJF005500360039
BI00B32CH    SJ22022SMW     202201207289-6868-30             SEALED ASSY FEMALE       CCN000002520000002520FN00000000020220201000002520NNMD0420211209175058    4N0N  00000252000000839200001119232CH    SJSAMIJF005500360039
BI00B32CH    SJ22023SMW     202201277289-6868-30             SEALED ASSY FEMALE       CCN000002520000002520FN00000000020220201000002520NNMD0420211209175058    4N0N  00000252000000839200001119232CH    SJSAMIJF005500360039
BI00B32CH    SJ22024SMW     202202037289-6868-30             SEALED ASSY FEMALE       CCN000002520000002520FN00000000020220201000002520NNMD0420211209175058    4N0N  00000252000000839200001119232CH    SJSAMIJF005500360039
BI00A32CH    SJ22012 MW     202112107158-3006-90             RUBBER STOPPER           CCN000120000000120000FN00000000020220101000120000NNMD0020211209175740    1C0C  00002000000000330600000386032CH    SJSAMIJF002700430014
BI00A32CJ    JQN1121        202112017288-6547                CONNECTOR MALE ASS'Y     PCN000003000000000750FY00000075020211201000000000NNM00020211209084827    4N0N  00000075000001205300001340332CJ    QNYHVQN 005400370024
BI00A32CJ    JQN1121        202112027289-3342-30             HOUSING FEMALE ASS'Y     PCN000033600000004800FY00000480020211201000000000NNM00020211209083840    1N0N  00000240000000686400000901432CJ    QNYHVQN 005500360039
BI00A32CJ    JQN1121        202112137289-3342-30             HOUSING FEMALE ASS'Y     PCN000004800000004800FN00000000020211201000004800NNM00020211209175058    1N0N  00000240000000686400000901432CJ    QNYHVQN 005500360039
BI00A32CJ    JQN1121        202112157289-3342-30             HOUSING FEMALE ASS'Y     PCN000004800000004800FN00000000020211201000004800NNM00020211209175058    1N0N  00000240000000686400000901432CJ    QNYHVQN 005500360039
BI00A32CJ    JQN1121        202112227289-3342-30             HOUSING FEMALE ASS'Y     PCN000004800000004800FN00000000020211201000004800NNM00020211209175058    1N0N  00000240000000686400000901432CJ    QNYHVQN 005500360039
BI00A32CJ    JQN1121        202112207289-3342-30             HOUSING FEMALE ASS'Y     PCN000004800000004800FN00000000020211201000004800NNMD0420211209175058    1N0N  00000240000000686400000901432CJ    QNYHVQN 005500360039
BI00B32CJ    JQN2021        202205277288-6547                CONNECTOR MALE ASS'Y     CCN000003000000003000FN00000000020220201000003000NNMD0420211209175058    4N0N  00000075000001205300001340332CJ    QNYHVQN 005400370024
BI00B32CJ    JQN2023        202206107288-6547                CONNECTOR MALE ASS'Y     CCN000003000000003000FN00000000020220201000003000NNMD0420211209175058    4N0N  00000075000001205300001340332CJ    QNYHVQN 005400370024
BI00B32CJ    JQN2024        202206107288-6547                CONNECTOR MALE ASS'Y     CCN000003000000003000FN00000000020220201000003000NNMD0420211209175058    4N0N  00000075000001205300001340332CJ    QNYHVQN 005400370024
BI00B32CJ    JQN2025        202206177288-6547                CONNECTOR MALE ASS'Y     CCN000003000000003000FN00000000020220201000003000NNMD0420211209175058    4N0N  00000075000001205300001340332CJ    QNYHVQN 005400370024
BI00B32CJ    JQN2021        202203187289-3342                HOUSING FEMALE ASS'Y     CCN000002400000002400FN00000000020220201000002400NNMD0420211209175058    1N0N  00000240000000686400000901432CJ    QNYHVQN 005500360039
BI00B32CJ    JQN2023        202203257289-3342                HOUSING FEMALE ASS'Y     CCN000004800000004800FN00000000020220201000004800NNMD0420211209175058    1N0N  00000240000000686400000901432CJ    QNYHVQN 005500360039
BI00B32CJ    JQN2024        202204017289-3342                HOUSING FEMALE ASS'Y     CCN000002400000002400FN00000000020220201000002400NNMD0420211209175058    1N0N  00000240000000686400000901432CJ    QNYHVQN 005500360039
BI00B32CJ    JQN2021        202207017289-3342-30             HOUSING FEMALE ASS'Y     CCN000024000000024000FN00000000020220201000024000NNMD0420211209175058    1N0N  00000240000000686400000901432CJ    QNYHVQN 005500360039
BI00B32CJ    JQN2023        202207087289-3342-30             HOUSING FEMALE ASS'Y     CCN000024000000024000FN00000000020220201000024000NNMD0420211209175058    1N0N  00000240000000686400000901432CJ    QNYHVQN 005500360039
BI00B32CJ    JQN2024        202207157289-3342-30             HOUSING FEMALE ASS'Y     CCN000024000000024000FN00000000020220201000024000NNMD0420211209175058    1N0N  00000240000000686400000901432CJ    QNYHVQN 005500360039
BI00B32CJ    JQN2025        202207227289-3342-30             HOUSING FEMALE ASS'Y     CCN000021600000021600FN00000000020220201000021600NNMD0420211209175058    1N0N  00000240000000686400000901432CJ    QNYHVQN 005500360039
BI00B32CJ    JQN2021        202202047289-3342-40             HOUSING FEMALE ASS'Y     CCN000004800000004800FN00000000020220201000004800NNMD0420211209175058    1N0N  00000240000000686400000901432CJ    QNYHVQN 005500360039
BI00B32CJ    JQN2023        202202117289-3342-40             HOUSING FEMALE ASS'Y     CCN000004800000004800FN00000000020220201000004800NNMD0420211209175058    1N0N  00000240000000686400000901432CJ    QNYHVQN 005500360039
BI00B32CJ    JQN2024        202202187289-3342-40             HOUSING FEMALE ASS'Y     CCN000004800000004800FN00000000020220201000004800NNMD0420211209175058    1N0N  00000240000000686400000901432CJ    QNYHVQN 005500360039
BI00B32CJ    JQN2025        202202257289-3342-40             HOUSING FEMALE ASS'Y     CCN000004800000004800FN00000000020220201000004800NNMD0420211209175058    1N0N  00000240000000686400000901432CJ    QNYHVQN 005500360039
BI00B32CJ    JQN2024        202202047289-3342-90             HOUSING FEMALE ASS'Y     CCN000004800000004800FN00000000020220201000004800NNMD0420211209175058    1N0N  00000240000000686400000901432CJ    QNYHVQN 005500360039
BI00B32CJ    JQN2025        202202117289-3342-90             HOUSING FEMALE ASS'Y     CCN000002400000002400FN00000000020220201000002400NNMD0420211209175058    1N0N  00000240000000686400000901432CJ    QNYHVQN 005500360039
BI00B32DE    TCT2021        202201277283-4855-40             CONNECTOR HOUSING        CCN000004800000004800FN00000000020220201000004800NNMD0420211209175058    4N0N  00000240000001188400001400032DE    TVYEV-TV005600360039
BI00B32DE    TCT2023        202202037283-4855-40             CONNECTOR HOUSING        CCN000002400000002400FN00000000020220201000002400NNMD0420211209175058    4N0N  00000240000001188400001400032DE    TVYEV-TV005600360039
BI00B32DE    TCT2024        202202107283-4855-40             CONNECTOR HOUSING        CCN000004800000004800FN00000000020220201000004800NNMD0420211209175058    4N0N  00000240000001188400001400032DE    TVYEV-TV005600360039
BI00B32DE    TCT2024        202202107289-3342-30             HOUSING FEMALE ASS'Y     CCN000024000000024000FN00000000020220201000024000NNMD0420211209175058    1N0N  00000240000000686400000901432DE    TVYEV-TV005500360039
BI00B32DE    TCT2024        202202107289-3342-90             HOUSING FEMALE ASS'Y     CCN000002400000002400FN00000000020220201000002400NNMD0420211209175058    1N0N  00000240000000686400000901432DE    TVYEV-TV005500360039
BI00B32DJ    GHT2201B 1     202112097017-1180-02             TERMINAL                 CCN000216000000216000FY00021600020220101000000000NNM00020211209170229    4P0P  00007200000001065600001229032DJ    RBYIPLRB005100280028
BI00B32DJ    GHT2201B 1     202112097017-1182-02             TERMINAL                 CCN000225000000225000FY00022500020220101000000000NNM00020211209170229    4P0P  00004500000001165500001318632DJ    RBYIPLRB005100280028
BI00B32DJ    GHT2201B 1     202112097017-1183-02             TERMINAL                 CCN000054000000054000FY00005400020220101000000000NNM00020211209170229    4P0P  00002700000001139400001307432DJ    RBYIPLRB005100280028
BI00B32DJ    GHT2201B 1     202112097114-4020                TERMINAL                 CCN000210000000210000FY00021000020220101000000000NNM00020211209170229    4P0P  00002100000000875700001169332DJ    RBYIPLRB006400630015
BI00B32DJ    GHT2201B 1     202112097114-4021                TERMINAL                 CCN000090000000090000FY00009000020220101000000000NNM00020211209170229    4P0P  00001500000000670500000964132DJ    RBYIPLRB006400630015
BI00B32DJ    GHT2201B 1     202112097114-4032                TERMINAL                 CCN000097500000097500FY00009750020220101000000000NNM00020211209170229    4P0P  00000750000000735000001063632DJ    RBYIPLRB006400630017
BI00B32DJ    GHT2201B 1     202112167158-3168-80             SEALED                   CCN000460000000460000FN00000000020220101000460000NNM00020211209175058    1C0C  00002000000000044000000092132DJ    RBYIPLRB004300260014
BI00B32DJ    GHT2201B 1     202112097B72-5540-80             SEALED WIRE SEAL         CCN000040000000040000FY00004000020220101000000000NNM00020211209170229    1C0C  00002000000000186000000234432DJ    RBYIPLRB004300270014
BI00B32DJ    GHT2201B 1     202112097B74-1849-70             COVER                    CCN000025000000025000FY00002500020220101000000000NNM00020211209170229    1F0F  00002500000000622500000761932DJ    RBYIPLRB005400370024
BI00B32DJ    GHT2201B 1     202112097C98-1145-4W             SQUIB SUB ASS'Y          CCN000020000000020000FY00002000020220101000000000NNM00020211209170229    4N0N  00001000000000787900000944932DJ    RBYIPLRB005400370024
BI00B32D1    DFTC2210       202203317288-6547                CONNECTOR MALE ASS'Y     CCN000011250000011250FN00000000020220301000011250NNMD0420211209183143    4N0N  00000075000001205300001340332D1    TOYOT-K 005400370024
BI00B32D1    DFTC2210       202202177289-3342                HOUSING FEMALE ASS'Y     CCN000033600000033600FN00000000020220301000033600NNMD0420211209183324    1N0N  00000240000000686400000901432D1    TOYOT-K 005500360039
BI00B32D1    DFTC2210       202204077289-3342-30             HOUSING FEMALE ASS'Y     CCN000084000000084000FN00000000020220301000084000NNMD0420211209183350    1N0N  00000240000000686400000901432D1    TOYOT-K 005500360039
BI00B32D1    DFTC2210       202201277289-6547                HOUSING FEMALE ASS'Y     CCN000014400000014400FN00000000020220301000014400NNMD0420211209185031    1N0N  00000240000001152000001362032D1    TOYOT-K 005500360039
BI00B32D2    DGTC2209       202203177288-6547                CONNECTOR MALE ASS'Y     CCN000012750000012750FN00000000020220301000012750NNMD0420211209175058    4N0N  00000075000001205300001340332D2    TGYOT-G 005400370024
BI00B32D2    DGTC2209       202202107289-3342                HOUSING FEMALE ASS'Y     CCN000021600000021600FN00000000020220301000021600NNMD0420211209175058    1N0N  00000240000000686400000901432D2    TGYOT-G 005500360039
BI00B32D2    DGTC2209       202202037289-3342-30             HOUSING FEMALE ASS'Y     CCN000021600000021600FN00000000020220301000021600NNMD0420211209175058    1N0N  00000240000000686400000901432D2    TGYOT-G 005500360039
BI00B32D2    DGTC2209       202202107289-3342-40             HOUSING FEMALE ASS'Y     CCN000024000000024000FN00000000020220301000024000NNMD0420211209175058    1N0N  00000240000000686400000901432D2    TGYOT-G 005500360039
BI00B32D2    DGTC2209       202202177289-3342-90             HOUSING FEMALE ASS'Y     CCN000004800000004800FN00000000020220301000004800NNMD0420211209175058    1N0N  00000240000000686400000901432D2    TGYOT-G 005500360039
BI00B32E1    NC2041         202201267017-1180-02             TERMINAL                 CCN000072000000072000FN00000000020220301000072000NNM   20211209175058    4P0P  00007200000001065600001229032E1    SPYSE   005100280028
BI00B32E1    NC2041         202201267017-1182-02             TERMINAL                 CCN000045000000045000FN00000000020220301000045000NNM   20211209175058    4P0P  00004500000001165500001318632E1    SPYSE   005100280028
BI00B32E1    NC2041         202201267116-5045-02             TERMINAL                 CCN000016000000016000FN00000000020220301000016000NNM   20211209175058    4P0P  00001600000000678400001007132E1    SPYSE   006400630017
BI00B32E1    NC2044         202202097116-5045-02             TERMINAL                 CCN000016000000016000FN00000000020220301000016000NNM   20211209175058    4P0P  00001600000000678400001007132E1    SPYSE   006400630017
BI00B32E1    NC2041         202201267158-3006-90             RUBBER STOPPER           CCN000020000000020000FN00000000020220301000020000NNM   20211209175058    1C0C  00002000000000330600000386032E1    SPYSE   002700430014
BI00B32E1    NC2043         202202097158-3006-90             RUBBER STOPPER           CCN000020000000020000FN00000000020220301000020000NNM   20211209175058    1C0C  00002000000000330600000386032E1    SPYSE   002700430014
BI00B32E1    NC2044         202202097158-3006-90             RUBBER STOPPER           CCN000020000000020000FN00000000020220301000020000NNM   20211209175058    1C0C  00002000000000330600000386032E1    SPYSE   002700430014
BI00B32E1    NC2041         202201267282-6568-40             CONNECTOR                CCN000001000000001000FN00000000020220301000001000NNM   20211209175058    4N0N  00000100000001206000001370732E1    SPYSE   005500360039
BI00B32E1    NC2043         202202097288-3329-30             HOUSING MALE             CCN000001500000001500FN00000000020220301000001500NNM   20211209175058    4N0N  00000150000000866100001011132E1    SPYSE   005400370024
BI00B32E1    NC2044         202202097288-3329-30             HOUSING MALE             CCN000001500000001500FN00000000020220301000001500NNM   20211209175058    4N0N  00000150000000866100001011132E1    SPYSE   005400370024
BI00B32E1    NC2043         202202097289-3342-30             HOUSING FEMALE ASS'Y     CCN000002400000002400FN00000000020220301000002400NNM   20211209175058    1N0N  00000240000000686400000901432E1    SPYSE   005500360039
BI00B32E1    #NC2041        202201267158-3003-90             RUBBER STOPPER           CCN000020000000020000FN00000000020220301000020000NNM   20211209175058    2C0C  00002000000000250000000306032E1    SPYSE   002700430014
BI00B32E1    #NC2043        202202097158-3003-90             RUBBER STOPPER           CCN000020000000020000FN00000000020220301000020000NNM   20211209175058    2C0C  00002000000000250000000306032E1    SPYSE   002700430014
BI00B32E1    #NC2044        202202097158-3003-90             RUBBER STOPPER           CCN000020000000020000FN00000000020220301000020000NNM   20211209175058    2C0C  00002000000000250000000306032E1    SPYSE   002700430014
BI00B32E1    #NC2044        202202097182-2410                CONNECTOR HOUSING        CCN000001200000001200FN00000000020220301000001200NNM   20211209175058    2F0F  00000120000000959800001245632E1    SPYSE   005500360039
BI00B32E2    NY2043         202202097116-1473                TERMINAL                 CCN000013500000013500FN00000000020220301000013500NNM   20211209175058    4P0P  00001350000000523800000809032E2    SPYSE   006400630015
BI00B32E2    NY2044         202202097116-1473                TERMINAL                 CCN000027000000027000FN00000000020220301000027000NNM   20211209175058    4P0P  00001350000000523800000809032E2    SPYSE   006400630015
BI00B32E2    NY2041         202201267116-1685-02             TERMINAL                 CCN000024000000024000FN00000000020220301000024000NNM   20211209175058    4P0P  00002400000000897600001065232E2    SPYSE   005100280028
BI00B32E2    NY2043         202202097116-1685-02             TERMINAL                 CCN000048000000048000FN00000000020220301000048000NNM   20211209175058    4P0P  00002400000000897600001065232E2    SPYSE   005100280028
BI00B32E2    NY2044         202202097116-1685-02             TERMINAL                 CCN000024000000024000FN00000000020220301000024000NNM   20211209175058    4P0P  00002400000000897600001065232E2    SPYSE   005100280028
BI00B32E2    NY2041         202201267116-4060-02             TERMINAL                 CCN000024000000024000FN00000000020220301000024000NNM   20211209175058    1P0P  00002400000000511200000984232E2    SPYSE   006400630017
BI00B32E2    NY2041         202201267126-8851-02             TERMINAL                 CCN000018000000018000FN00000000020220301000018000NNM   20211209175058    1P0P  00000900000000739800001025032E2    SPYSE   006400630015
BI00B32E2    NY2043         202202097126-8851-02             TERMINAL                 CCN000018000000018000FN00000000020220301000018000NNM   20211209175058    1P0P  00000900000000739800001025032E2    SPYSE   006400630015
BI00B32E2    NY2044         202202097126-8851-02             TERMINAL                 CCN000018000000018000FN00000000020220301000018000NNM   20211209175058    1P0P  00000900000000739800001025032E2    SPYSE   006400630015
BI00B32E2    NY2041         202201267158-3006-90             RUBBER STOPPER           CCN000060000000060000FN00000000020220301000060000NNM   20211209175058    1C0C  00002000000000330600000386032E2    SPYSE   002700430014
BI00B32E2    NY2044         202202097158-3006-90             RUBBER STOPPER           CCN000020000000020000FN00000000020220301000020000NNM   20211209175058    1C0C  00002000000000330600000386032E2    SPYSE   002700430014
BI00B32E2    #NY2044        202202097157-3790-90             WIRE SEAL                CCN000020000000020000FN00000000020220301000020000NNM   20211209175058    2C0C  00002000000000176000000232732E2    SPYSE   002700430014
BI00B32E2    #NY2041        202201267158-3003-90             RUBBER STOPPER           CCN000020000000020000FN00000000020220301000020000NNM   20211209175058    2C0C  00002000000000250000000306032E2    SPYSE   002700430014
BI00B32E2    #NY2041        202201267158-3121-80             WIRE SEAL                CCN000020000000020000FN00000000020220301000020000NNM   20211209175058    2C0C  00002000000000118000000187332E2    SPYSE   002700430014
BI00B32E2    #NY2044        202202097158-3121-80             WIRE SEAL                CCN000020000000020000FN00000000020220301000020000NNM   20211209175058    2C0C  00002000000000118000000187332E2    SPYSE   002700430014
BI00B32E2    #NY2043        202202097282-6446-40             CONNECTOR                CCN000001500000001500FN00000000020220301000001500NNM   20211209175058    2N0N  00000150000001185000001368032E2    SPYSE   005500360039
BI00B32E2    #NY2044        202202097282-6446-40             CONNECTOR                CCN000001500000001500FN00000000020220301000001500NNM   20211209175058    2N0N  00000150000001185000001368032E2    SPYSE   005500360039
BI00B32G0    TZ21122EMW     202112147283-4855                CONNECTOR HOUSING        CCN000014400000014400FN00000720020211201000007200NNM00020211209175058    4N0N  00000240000001188400001400032G0    TTTJY   005500360039
BI00B32G0    #TZ22011EMW    202112147158-3007-10             RUBBER STOPPER           CCN000140000000140000FN00000000020220101000140000NNM00020211209175058    2H0H  00002000000000308000000362732G0    TTTJY   002700430014
BI00B32G0    TZ22031EMW     202201257283-4855                CONNECTOR HOUSING        CCN000014400000014400FN00000000020220301000014400NNMD0420211209175058    4N0N  00000240000001188400001400032G0    TTTJY   005500360039
BI00B32G0    TZ22031EMW     202201257288-6547                CONNECTOR MALE ASS'Y     CCN000020250000020250FN00000000020220301000020250NNMD0420211209175058    4N0N  00000075000001205300001340332G0    TTTJY   005400370024
BI00B32G0    TZ22031EMW     202202017289-6597-70             HOUSING FEMALE ASS'Y     CCN000012960000012960FN00000000020220301000012960NNMD0420211209175058    4N0N  00000216000001289500001539532G0    TTTJY   005500360039
BI00B32G0    TZ22032EMW     202202087289-6597-70             HOUSING FEMALE ASS'Y     CCN000012960000012960FN00000000020220301000012960NNMD0420211209175058    4N0N  00000216000001289500001539532G0    TTTJY   005500360039
BI00B32G0    #TZ2201AEMW    202112217154-6189                HOLDER                   CCN000000024000000024FN00000000020220101000000024NNED0420211209175058    2F0F  00000002400000288000000488032G0    TTTJY   005600390040
BI00A32G2    SA21113 MW     202112107287-1917                CONNECTOR FEMALE         CCN000033600000016800FN00000000020211101000016800NNMM0020211209175058    4N0N  00000240000001060800001312532G2    AISUAI  005500360039
BI00B32G7    JJ2201DMMW     202201277289-3342                HOUSING FEMALE ASS'Y     CCN000004800000004800FN00000000020220101000004800NNED0420211209175058    1N0N  00000240000000686400000901432G7    JIJAI   005500360039
BI00B32G7    JJ22021 MW     202202037289-3342-30             HOUSING FEMALE ASS'Y     CCN000043200000043200FN00000000020220201000043200NNMD0420211209175058    1N0N  00000240000000686400000901432G7    JIJAI   005500360039
BI00B32G7    JJ22022 MW     202202107289-3342-30             HOUSING FEMALE ASS'Y     CCN000026400000026400FN00000000020220201000026400NNMD0420211209175058    1N0N  00000240000000686400000901432G7    JIJAI   005500360039
BI00B32G7    JJ22023 MW     202202177289-3342-30             HOUSING FEMALE ASS'Y     CCN000024000000024000FN00000000020220201000024000NNMD0420211209175058    1N0N  00000240000000686400000901432G7    JIJAI   005500360039
BI00B32G7    JJ22024 MW     202202247289-3342-30             HOUSING FEMALE ASS'Y     CCN000026400000026400FN00000000020220201000026400NNMD0420211209175058    1N0N  00000240000000686400000901432G7    JIJAI   005500360039
BI00B32G7    JJ22021MMW     202201277289-3342                HOUSING FEMALE ASS'Y     CCN000007200000007200FN00000000020220201000007200NNMD0420211209175058    1N0N  00000240000000686400000901432G7    JIJAI   005500360039
BI00B32G7    JJ22022MMW     202202037289-3342                HOUSING FEMALE ASS'Y     CCN000009600000009600FN00000000020220201000009600NNMD0420211209175058    1N0N  00000240000000686400000901432G7    JIJAI   005500360039
BI00B32G7    JJ22023MMW     202202037289-3342                HOUSING FEMALE ASS'Y     CCN000007200000007200FN00000000020220201000007200NNMD0420211209175058    1N0N  00000240000000686400000901432G7    JIJAI   005500360039
BI00B32G7    JJ22024MMW     202202107289-3342                HOUSING FEMALE ASS'Y     CCN000007200000007200FN00000000020220201000007200NNMD0420211209175058    1N0N  00000240000000686400000901432G7    JIJAI   005500360039
BI00B32G9    TY22021TMW     202201147288-6547                CONNECTOR MALE ASS'Y     CCN000002250000002250FN00000000020220201000002250NNMD0420211209175058    4N0N  00000075000001205300001340332G9    TYTYC   005400370024
BI00B32G9    TY22022TMW     202201217288-6547                CONNECTOR MALE ASS'Y     CCN000002250000002250FN00000000020220201000002250NNMD0420211209175058    4N0N  00000075000001205300001340332G9    TYTYC   005400370024
BI00B32G9    TY22021TMW     202201147289-3342                HOUSING FEMALE ASS'Y     CCN000004800000004800FN00000000020220201000004800NNMD0420211209175058    1N0N  00000240000000686400000901432G9    TYTYC   005500360039
BI00B32G9    TY22022TMW     202201217289-3342                HOUSING FEMALE ASS'Y     CCN000002400000002400FN00000000020220201000002400NNMD0420211209175058    1N0N  00000240000000686400000901432G9    TYTYC   005500360039
BI00B32G9    TY22021TMW     202201147289-3342-30             HOUSING FEMALE ASS'Y     CCN000004800000004800FN00000000020220201000004800NNMD0420211209175058    1N0N  00000240000000686400000901432G9    TYTYC   005500360039
BI00B32G9    TY22022TMW     202201217289-3342-30             HOUSING FEMALE ASS'Y     CCN000004800000004800FN00000000020220201000004800NNMD0420211209175058    1N0N  00000240000000686400000901432G9    TYTYC   005500360039
BI00B32G9    TY22021TMW     202201147289-3342-40             HOUSING FEMALE ASS'Y     CCN000002400000002400FN00000000020220201000002400NNMD0420211209175058    1N0N  00000240000000686400000901432G9    TYTYC   005500360039
BI00B32G9    TY22022TMW     202201217289-3342-40             HOUSING FEMALE ASS'Y     CCN000002400000002400FN00000000020220201000002400NNMD0420211209175058    1N0N  00000240000000686400000901432G9    TYTYC   005500360039
BI00B32G9    TY22021TMW     202201147289-3342-90             HOUSING FEMALE ASS'Y     CCN000002400000002400FN00000000020220201000002400NNMD0420211209175058    1N0N  00000240000000686400000901432G9    TYTYC   005500360039
BI00A32H0    #TT21124VMW    202112227172-5629-80             RUBBER STOPPER           PCN000180000000180000FN00000000020211201000180000NNM00020211209175058    2H0H  00002000000000060000000111132H0    TTTJY   004300270014
BI00B32H0    TT2202AVMW     202112217288-6547                CONNECTOR MALE ASS'Y     CCN000000750000000750FN00000000020220201000000750NNED0020211209175058    4N0N  00000075000001205300001340332H0    TTTJY   005400370024
BI00B32H0    TT22031VMW     202201187288-6547                CONNECTOR MALE ASS'Y     CCN000001500000001500FN00000000020220301000001500NNMD0020211209175058    4N0N  00000075000001205300001340332H0    TTTJY   005400370024
BI00B32H0    TT22032VMW     202201257289-6547                HOUSING FEMALE ASS'Y     CCN000002400000002400FN00000000020220301000002400NNMD0020211209175058    1N0N  00000240000001152000001362032H0    TTTJY   005500360039
BI00B32H0    #TT22031VMW    202201187172-5629-80             RUBBER STOPPER           CCN000120000000120000FN00000000020220301000120000NNMD0020211209175058    2H0H  00002000000000060000000111132H0    TTTJY   004300270014
BI00B32H0    #TT22032VMW    202201257172-5629-80             RUBBER STOPPER           CCN000220000000220000FN00000000020220301000220000NNMD0020211209175058    2H0H  00002000000000060000000111132H0    TTTJY   004300270014
BI00B32H0    #TT22033VMW    202202017172-5629-80             RUBBER STOPPER           CCN000220000000220000FN00000000020220301000220000NNMD0020211209175058    2H0H  00002000000000060000000111132H0    TTTJY   004300270014
BI00B32H0    #TT22034VMW    202202087172-5629-80             RUBBER STOPPER           CCN000100000000100000FN00000000020220301000100000NNMD0020211209175058    2H0H  00002000000000060000000111132H0    TTTJY   004300270014
BI00B32H0    TT2202BVMW     202202087289-6547                HOUSING FEMALE ASS'Y     CCN000002400000002400FN00000000020220201000002400NNED0220211209185105    1N0N  00000240000001152000001362032H0    TTTJY   005500360039
BI00A32H2    TIJ1122        202112107288-6547                CONNECTOR MALE ASS'Y     PCN000003000000003000FN00000000020211201000003000NNM00020211209175058    4N0N  00000075000001205300001340332H2    HVYHV   005400370024
BI00A32H2    #TIJ1124       202112157172-5629-80             RUBBER STOPPER           PCN000240000000240000FN00000000020211201000240000NNM00020211209175058    2H0H  00002000000000060000000111132H2    HVYHV   004300270014
BI00A32H2    TIJ1122        202112107289-3342-30             HOUSING FEMALE ASS'Y     PCN000052800000026400FN00000000020211201000026400NNM00020211209175058    1N0N  00000240000000686400000901432H2    HVYHV   005500360039
BI00B32H2    TIJ2021        202201147283-4577                CONNECTOR HOUSING        CCN000009600000009600FN00000000020220201000009600NNMD0420211209175058    4N0N  00000480000000916800001136832H2    HVYHV   005500360039
BI00B32H2    TIJ2021        202201147283-4577-30             CONNECTOR HOUSING        CCN000019200000019200FN00000000020220201000019200NNMD0420211209175058    4N0N  00000480000000916800001136832H2    HVYHV   005500360039
BI00B32H2    TIJ2024        202202047283-4855                CONNECTOR HOUSING        CCN000007200000007200FN00000000020220201000007200NNMD0420211209175058    4N0N  00000240000001188400001400032H2    HVYHV   005500360039
BI00B32H2    TIJ2025        202202117283-4855                CONNECTOR HOUSING        CCN000007200000007200FN00000000020220201000007200NNMD0420211209175058    4N0N  00000240000001188400001400032H2    HVYHV   005500360039
BI00B32H2    TIJ2023        202202187289-3342-30             HOUSING FEMALE ASS'Y     CCN000072000000072000FN00000000020220201000072000NNMD0420211209175058    1N0N  00000240000000686400000901432H2    HVYHV   005500360039
BI00B32H2    TIJ2024        202202257289-3342-30             HOUSING FEMALE ASS'Y     CCN000100800000100800FN00000000020220201000100800NNMD0420211209175058    1N0N  00000240000000686400000901432H2    HVYHV   005500360039
BI00B32H2    TIJ2025        202203047289-3342-30             HOUSING FEMALE ASS'Y     CCN000120000000120000FN00000000020220201000120000NNMD0420211209175058    1N0N  00000240000000686400000901432H2    HVYHV   005500360039
BI00B32H8    TY22021KMW     202201147289-3342                HOUSING FEMALE ASS'Y     CCN000002400000002400FN00000000020220201000002400NNMD0420211209175058    1N0N  00000240000000686400000901432H8    TYTYC   005500360039
BI00B32H8    TY22022KMW     202201217289-3342                HOUSING FEMALE ASS'Y     CCN000002400000002400FN00000000020220201000002400NNMD0420211209175058    1N0N  00000240000000686400000901432H8    TYTYC   005500360039
BI00A32J1    389171         202112207298-1869-30             HOUSING FEMALE ASS'Y     CCN000010800000010800FN00000000020211201000010800NNED0720211209175058    4N0N  00000120000000737000000939832J1    UKYEL-BL005500360039
BI00A32J1    #389198        202112207187-3356                JOINT CONNECTOR          CCN000001200000001200FN00000000020211201000001200NNED0720211209175058    2F0F  00000120000000759600001024432J1    UKYEL-BL005600390040
BI00A32J1    #389198        202112207187-3359-60             JOINT CONNECTOR          CCN000001200000001200FN00000000020211201000001200NNED0720211209175058    2F0F  00000120000000763200001030432J1    UKYEL-BL005600390040
BI00A32J1    #389198        202112207187-3360                JOINT CONNECTOR          CCN000001200000001200FN00000000020211201000001200NNED0720211209175058    2F0F  00000120000000759600001026832J1    UKYEL-BL005600390040
BI00B32K8    #K1210013223   202201147137-2200                CONNECTOR PACKING        CCN000005000000005000FN00000000020220301000005000NNM   20211209175058    2C0C  00000500000000136000000211332K8    ELELCOM 004300270014
BI00B32M1    TCV2021        202203037288-6598-70             HOUSING MALE ASS'Y       CCN000001440000001440FN00000000020220201000001440NNMD0420211209175058    4N0N  00000144000001074200001429232M1    VNYEV   005500360039
BI00B32M1    TCV2022        202202107288-6598-70             HOUSING MALE ASS'Y       CCN000001680000002880FN00000000020220201000002880NNMD0420211209175058    4N0N  00000144000001074200001429232M1    VNYEV   005500360039
BI00B32M1    TCV2023        202202177288-6598-70             HOUSING MALE ASS'Y       CCN000001920000002880FN00000000020220201000002880NNMD0420211209175058    4N0N  00000144000001074200001429232M1    VNYEV   005500360039
BI00B32M1    TCV2024        202202037289-3342                HOUSING FEMALE ASS'Y     CCN000098400000024000FN00000000020220201000024000NNMQ0420211209175058    1N0N  00000240000000686400000901432M1    VNYEV   005500360039
BI00B32M1    TCV2023        202202037289-3342-30             HOUSING FEMALE ASS'Y     CCN000007200000007200FN00000000020220201000007200NNMD0420211209175058    1N0N  00000240000000686400000901432M1    VNYEV   005500360039
BI00B32M1    TCV2024        202202107289-3342-30             HOUSING FEMALE ASS'Y     CCN000012000000012000FN00000000020220201000012000NNMD0420211209175058    1N0N  00000240000000686400000901432M1    VNYEV   005500360039
BI00B32M1    TCV2023        202202037289-3342-40             HOUSING FEMALE ASS'Y     CCN000012000000012000FN00000000020220201000012000NNMD0420211209175058    1N0N  00000240000000686400000901432M1    VNYEV   005500360039
BI00B32M1    TCV2024        202202107289-3342-40             HOUSING FEMALE ASS'Y     CCN000021600000009600FN00000000020220201000009600NNMD0420211209175058    1N0N  00000240000000686400000901432M1    VNYEV   005500360039
BI00B32M1    TCV2023        202202037289-3342-90             HOUSING FEMALE ASS'Y     CCN000033600000033600FN00000000020220201000033600NNMD0420211209175058    1N0N  00000240000000686400000901432M1    VNYEV   005500360039
BI00B32M1    TCV2024        202202107289-3342-90             HOUSING FEMALE ASS'Y     CCN000038400000038400FN00000000020220201000038400NNMD0420211209175058    1N0N  00000240000000686400000901432M1    VNYEV   005500360039
BI00B32M1    TCV2024        202202107289-3342                HOUSING FEMALE ASS'Y     CCN000024000000024000FN00000000020220201000024000NNMD0420211209175058    1N0N  00000240000000686400000901432M1    VNYEV   005500360039
BI00B32M1    TCV2024        202202177289-3342                HOUSING FEMALE ASS'Y     CCN000024000000024000FN00000000020220201000024000NNMD0420211209175058    1N0N  00000240000000686400000901432M1    VNYEV   005500360039
BI00B32M1    TCV2024        202202247289-3342                HOUSING FEMALE ASS'Y     CCN000026400000026400FN00000000020220201000026400NNMD0420211209175058    1N0N  00000240000000686400000901432M1    VNYEV   005500360039
BI00B32M1    TCV2024        202202177289-3342-40             HOUSING FEMALE ASS'Y     CCN000012000000012000FN00000000020220201000012000NNMD0420211209175058    1N0N  00000240000000686400000901432M1    VNYEV   005500360039
BI00B32M3    SM22014 MW     202112237116-4231-02             TERMINAL                 CCN000130000000052000FN00000000020220101000052000NNMQ0020211209175058    4P0P  00002600000000683800001012532M3    SASAMI  006400630017
BI00B32M3    SM22021DMW     202201137283-4577                CONNECTOR HOUSING        CCN000024000000024000FN00000000020220201000024000NNMD0420211209175058    4N0N  00000480000000916800001136832M3    SASAMI  005500360039
BI00B32M3    SM22021DMW     202201137283-4577-40             CONNECTOR HOUSING        CCN000004800000004800FN00000000020220201000004800NNMD0420211209175058    4N0N  00000480000000916800001136832M3    SASAMI  005500360039
BI00B32M3    SM22021DMW     202201137283-4855                CONNECTOR HOUSING        CCN000004800000004800FN00000000020220201000004800NNMD0420211209175058    4N0N  00000240000001188400001400032M3    SASAMI  005500360039
BI00B32M3    SM22022DMW     202201207283-4855                CONNECTOR HOUSING        CCN000002400000002400FN00000000020220201000002400NNMD0420211209175058    4N0N  00000240000001188400001400032M3    SASAMI  005500360039
BI00B32M3    SM22023DMW     202201277283-4855                CONNECTOR HOUSING        CCN000002400000002400FN00000000020220201000002400NNMD0420211209175058    4N0N  00000240000001188400001400032M3    SASAMI  005500360039
BI00B32M3    SM22021DMW     202201137289-3342-30             HOUSING FEMALE ASS'Y     CCN000014400000014400FN00000000020220201000014400NNMD0420211209175058    1N0N  00000240000000686400000901432M3    SASAMI  005500360039
BI00B32M3    SM22022DMW     202201207289-3342-30             HOUSING FEMALE ASS'Y     CCN000007200000007200FN00000000020220201000007200NNMD0420211209175058    1N0N  00000240000000686400000901432M3    SASAMI  005500360039
BI00B32M3    SM22023DMW     202201277289-3342-30             HOUSING FEMALE ASS'Y     CCN000007200000007200FN00000000020220201000007200NNMD0420211209175058    1N0N  00000240000000686400000901432M3    SASAMI  005500360039
BI00B32M3    SM22024DMW     202202037289-3342-30             HOUSING FEMALE ASS'Y     CCN000007200000007200FN00000000020220201000007200NNMD0420211209175058    1N0N  00000240000000686400000901432M3    SASAMI  005500360039
BI00A32M3    SM22014 MW     202112157116-4231-02             TERMINAL                 CCN000078000000078000FN00000000020220101000078000NNMM0020211209175058    4P0P  00002600000000683800001012532M3    SASAMI  006400630017
BI00B32M4    TP2012         202112167382-1481-10             CONNECTOR                CCN000000800000000800FN00000000020220101000000800NNM00020211209175058    4N0N  00000080000001025000001183032M4    SISAI   005600390040
BI00B32M4    TP2012         202112167327-6627-3W             BATTERY FUSE             CCN000002784000002784FN00000000020220101000002784NNM00020211209175058    4N0N  00000009600001332300001534632M4    SISAI   005500360039
BI00B32M4    TP2022         202202037283-6039                CONNECTOR                CCN000001600000001600FN00000000020220201000001600NNMD0220211209184232    1N0N  00000160000000624000000881532M4    SISAI   005500360039
BI00B32M4    TP2021         202201137289-3342-30             HOUSING FEMALE ASS'Y     CCN000038400000038400FN00000000020220201000038400NNMD0420211209175058    1N0N  00000240000000686400000901432M4    SISAI   005500360039
BI00B32M4    TP2022         202201207289-3342-30             HOUSING FEMALE ASS'Y     CCN000038400000038400FN00000000020220201000038400NNMD0420211209175058    1N0N  00000240000000686400000901432M4    SISAI   005500360039
BI00B32M4    TP2023         202201277289-3342-30             HOUSING FEMALE ASS'Y     CCN000031200000031200FN00000000020220201000031200NNMD0420211209175058    1N0N  00000240000000686400000901432M4    SISAI   005500360039
BI00B32M4    TP2024         202202037289-3342-30             HOUSING FEMALE ASS'Y     CCN000024000000024000FN00000000020220201000024000NNMD0420211209175058    1N0N  00000240000000686400000901432M4    SISAI   005500360039
BI00B32M4    TP2025         202202107289-3342-30             HOUSING FEMALE ASS'Y     CCN000021600000021600FN00000000020220201000021600NNMD0420211209175058    1N0N  00000240000000686400000901432M4    SISAI   005500360039
BI00B32M4    TP2021         202201137283-4577                CONNECTOR HOUSING        CCN000009600000009600FN00000000020220201000009600NNMD0420211209175058    4N0N  00000480000000916800001136832M4    SISAI   005500360039
BI00B32M4    TP2021         202201137283-4855                CONNECTOR HOUSING        CCN000002400000002400FN00000000020220201000002400NNMD0420211209175058    4N0N  00000240000001188400001400032M4    SISAI   005500360039
BI00B32M4    TP2022         202201207283-4855                CONNECTOR HOUSING        CCN000002400000002400FN00000000020220201000002400NNMD0420211209175058    4N0N  00000240000001188400001400032M4    SISAI   005500360039
BI00B32M4    TP2023         202201277283-4855                CONNECTOR HOUSING        CCN000002400000002400FN00000000020220201000002400NNMD0420211209175058    4N0N  00000240000001188400001400032M4    SISAI   005500360039
BI00B32M8    PM22021 MW     202201197289-3342-30             HOUSING FEMALE ASS'Y     CCN000004800000004800FN00000000020220201000004800NNMD0420211209175058    1N0N  00000240000000686400000901432M8    PMPEMI  005500360039
BI00B32M8    PM22022 MW     202201267289-3342-30             HOUSING FEMALE ASS'Y     CCN000009600000009600FN00000000020220201000009600NNMD0420211209175058    1N0N  00000240000000686400000901432M8    PMPEMI  005500360039
BI00B32M8    PM22023 MW     202202027289-3342-30             HOUSING FEMALE ASS'Y     CCN000009600000009600FN00000000020220201000009600NNMD0420211209175058    1N0N  00000240000000686400000901432M8    PMPEMI  005500360039
BI00B32M8    PM22024 MW     202202097289-3342-30             HOUSING FEMALE ASS'Y     CCN000002400000002400FN00000000020220201000002400NNMD0420211209175058    1N0N  00000240000000686400000901432M8    PMPEMI  005500360039
BI00B32M8    PM22021TMW     202201197288-6547                CONNECTOR MALE ASS'Y     CCN000003000000003000FN00000000020220201000003000NNMD0420211209175058    4N0N  00000075000001205300001340332M8    PMPEMI  005400370024
BI00B32M8    PM22022TMW     202201267288-6547                CONNECTOR MALE ASS'Y     CCN000003000000003000FN00000000020220201000003000NNMD0420211209175058    4N0N  00000075000001205300001340332M8    PMPEMI  005400370024
BI00B32M8    PM22023TMW     202202027288-6547                CONNECTOR MALE ASS'Y     CCN000003000000003000FN00000000020220201000003000NNMD0420211209175058    4N0N  00000075000001205300001340332M8    PMPEMI  005400370024
BI00B32M8    PM22024TMW     202202097288-6547                CONNECTOR MALE ASS'Y     CCN000002250000002250FN00000000020220201000002250NNMD0420211209175058    4N0N  00000075000001205300001340332M8    PMPEMI  005400370024
BI00B32N1    SBT2112        202112157286-3885-40             CONNECTOR MALE ASS'Y     CCN000007200000007200FN00000000020211201000007200NNM00020211209175058    1N0N  00000120000000910600001130632N1    TAYIPL  005500360039
BI00B32N1    SBT2202A       202203037289-3342-30             HOUSING FEMALE ASS'Y     CCN000014400000014400FN00000000020220201000014400NNMD0420211209175058    1N0N  00000240000000686400000901432N1    TAYIPL  005500360039
BI00B32N2    #2152103720    202201067187-3976-60             CONNECTOR HOUSING        CCN000002400000002400FN00000000020220201000002400NNM   20211209175058    2F0F  00000240000000902200001073332N2    YWYIPLTC005500360039
BI00B32N2    #2152103720    202201067282-6458-40             CONNECTOR                CCN000002000000002000FN00000000020220201000002000NNM   20211209175058    2N0N  00000100000001206000001350532N2    YWYIPLTC005500360039
BI00B32Q8    EU2201DTMW     202201127282-4578                HOUSING MALE ASS'Y       CCN000004800000004800FN00000000020220101000004800NNED0220211209184300    4N0N  00000120000000782600000992632Q8    EMEMI   005500360039
BI00B32Q8    EU2201DTMW     202202097283-1144-90             CONNECTOR                CCN000002400000002400FN00000000020220101000002400NNED0220211209184320    4N0N  00000240000000602200000866132Q8    EMEMI   005500360039
BI00B32Q8    EU2201DTMW     202201057286-3885-40             CONNECTOR MALE ASS'Y     CCN000006000000002400FN00000000020220101000002400NNED0220211209184420    1N0N  00000120000000910600001130632Q8    EMEMI   005500360039
BI00B32Q8    EU2201DTMW     202201197287-1917                CONNECTOR FEMALE         CCN000009600000009600FN00000000020220101000009600NNED0220211209184459    4N0N  00000240000001060800001312532Q8    EMEMI   005500360039
BI00B32Q8    EU2201DTMW     202202097287-1917-30             CONNECTOR FEMALE         CCN000019200000009600FN00000000020220101000009600NNED0220211209184541    4N0N  00000240000001060800001312532Q8    EMEMI   005500360039
BI00B32Q8    EU2201DTMW     202202097289-3342                HOUSING FEMALE ASS'Y     CCN000033600000033600FN00000000020220101000033600NNED0420211209175058    1N0N  00000240000000686400000901432Q8    EMEMI   005500360039
BI00B32Q8    EU2201DTMW     202202097289-3342-30             HOUSING FEMALE ASS'Y     CCN000016800000016800FN00000000020220101000016800NNED0420211209175058    1N0N  00000240000000686400000901432Q8    EMEMI   005500360039
BI00B32Q8    EU2201DTMW     202201127286-3885-40             CONNECTOR MALE ASS'Y     CCN000003600000003600FN00000000020220101000003600NNED0220211209184426    1N0N  00000120000000910600001130632Q8    EMEMI   005500360039
BI00B32Q8    EU2201DTMW     202202237287-1917-30             CONNECTOR FEMALE         CCN000019200000019200FN00000000020220101000019200NNED0220211209184546    4N0N  00000240000001060800001312532Q8    EMEMI   005500360039
BI00B32R7    R-TAP210596    202112167116-1257-02             TERMINAL                 CCN000144000000072000FN00000000020211201000072000NNEQ0020211209175058    1P0P  00002400000000518400000847132R7    IVYCIC  006400630017
BI00B32R7    R-TAP210611    202201137298-1186-40             SQUIB SUB ASS'Y          CCN000180000000100000FN00000000020220101000100000NNEQ0420211209183454    4N0N  00001000000000650000000774532R7    IVYCIC  005400370024
BI00A32R7    R-TAP210596    202112137116-1257-02             TERMINAL                 CCN000072000000072000FN00000000020211201000072000NNEM0020211209175058    1P0P  00002400000000518400000847132R7    IVYCIC  006400630017
BI00B32R7    R-TAP210611    202201207298-1186-40             SQUIB SUB ASS'Y          CCN000080000000080000FN00000000020220101000080000NNED0420211209183501    4N0N  00001000000000650000000774532R7    IVYCIC  005400370024
BI00B32R8    TT2202BYMW     202201047283-1928-80             CONNECTOR                CCN000002000000002000FN00000000020220201000002000NNE   20211209175058    4N0N  00000200000001180000001358332R8    TTTJY   005500360039
BI00B32U5    DI2008         202202117289-3342                HOUSING FEMALE ASS'Y     CCN000024000000024000FN00000000020220401000024000NNMD0420211209175058U5  1N0N  00000240000000686400000901432U5    AMAMSD  005500360039
BI00B32U5    DI2008         202202047287-1915-40             CONNECTOR ASS'Y          CCN000004800000004800FN00000000020220401000004800NNMD0220211209184627U5  4N0N  00000240000000666500000923132U5    AMAMSD  005500360039
BI00B32U5    DI2008         202202117289-3342-30             HOUSING FEMALE ASS'Y     CCN000026400000026400FN00000000020220401000026400NNMD0420211209175058U5  1N0N  00000240000000686400000901432U5    AMAMSD  005500360039
BI00B32U9    TPA204         202112237158-3167-80             WIRE SEAL                CCN000760000000520000FN00000000020220101000520000NNMQ0020211209175058U9  1C0C  00002000000000048000000109032U9    YNYNA-E 002700430014
BI00A32U9    TPA204         202112107158-3167-80             WIRE SEAL                CCN000240000000240000FN00000000020220101000240000NNMM0020211209175058U9  1C0C  00002000000000048000000109032U9    YNYNA-E 002700430014
BI00B32W4    4500184971     202206237289-9553-30             SEALED ASSY FEMALE       CCN000138180000138180FN00000000020220201000138180NNED0420211209175058W4594N0N  00000294000001109000001521532W459  HJYHK   005500360039
BI00B32W4    4500185107     202212227288-6547                CONNECTOR MALE ASS'Y     CCN000010500000010500FN00000000020220101000010500NNED0420211209175058W4164N0N  00000075000001205300001340332W416  HJYHK   005400370024
BI00B32W4    4500185149     202201277289-3342                HOUSING FEMALE ASS'Y     CCN000004800000004800FN00000000020220101000004800NNED0420211209175058W4D41N0N  00000240000000686400000901432W4D4  HJYHK-J 005500360039
BI00B32W4    4500185149     202202037289-3342-90             HOUSING FEMALE ASS'Y     CCN000004800000004800FN00000000020220101000004800NNED0420211209175058W4D41N0N  00000240000000686400000901432W4D4  HJYHK-J 005500360039
BI00B32W4    4500185149     202202107289-3342-30             HOUSING FEMALE ASS'Y     CCN000016800000016800FN00000000020220101000016800NNED0420211209175058W4D41N0N  00000240000000686400000901432W4D4  HJYHK-J 005500360039
BI00B32W4    4500185151     202201277283-1020                CONNECTOR                CCN000132000000060000FN00000000020220101000060000NNED0420211209175058W4514N0N  00000600000000840000001049332W451  HJ32W9  005600390040
BI00B32W4    4500185151     202202037283-1020                CONNECTOR                CCN000072000000072000FN00000000020220101000072000NNED0220211209175058W4514N0N  00000600000000840000001049332W451  HJ32W9  005600390040
BI00A32W4    4500185522     202202077116-4100-02             TERMINAL                 CCN000015000000015000FN00000000020220201000015000NNE   20211209175058W4O24P0P  00001500000000696000000990232W4O2  HJYHK-J 006400630015
BI00A32W4    4500185522     202202077116-4102-02             TERMINAL                 CCN000036000000036000FN00000000020220201000036000NNE   20211209175058W4O24P0P  00001200000000553200000841432W4O2  HJYHK-J 006400630015
BI00A32W4    4500185522     202202077116-4026                TERMINAL                 CCN000016000000016000FN00000000020220201000016000NNE   20211209175058W4O24P0P  00001600000000664000000994332W4O2  HJYHK-J 006400630017
BI00A32W4    4500185522     202202077116-4110-02             TERMINAL                 CCN000009000000009000FN00000000020220201000009000NNE   20211209175058W4O24P0P  00000900000000594000000882232W4O2  HJYHK-J 006400630015
BI00B32W4    4500185524     202201207172-1372-10             FRONT HOLDER             CCN000007800000007800FN00000000020220101000007800NNE   20211209175058W4284F0F  00000390000000655200000955232W428  HJYHK   005500360039
BI00A32W4    4500185529     202201277116-4026                TERMINAL                 CCN000032000000032000FN00000000020220101000032000NNE   20211209175058W4A24P0P  00001600000000664000000994332W4A2  HJYHK-J 006400630017
BI00A32W4    #4500185529    202201277283-8226-30             CONNECTOR                CCN000016000000016000FN00000000020220101000016000NNE   20211209175058W4A22N0N  00000200000000820000001008032W4A2  HJYHK-J 005400370024
BI00A32W4    #4500185529    202201277157-3646                RUBBER STOPPER           CCN000040000000040000FN00000000020220101000040000NNE   20211209175058W4A22H0H  00002000000000184000000255232W4A2  HJYHK-J 002700430014
BI00A32W4    4500185530     202201277283-1020                CONNECTOR                CCN000006000000006000FN00000000020220101000006000NNE   20211209175058W4A24N0N  00000600000000840000001049332W4A2  HJYHK-J 005600390040
BI00A32W4    4500185530     202201277116-4111-02             TERMINAL                 CCN000007500000007500FN00000000020220101000007500NNE   20211209175058W4A24P0P  00000750000000529500000817732W4A2  HJYHK-J 006400630015
BI00A32W4    #4500185530    202201277147-3642-30             CLIP                     CCN000024000000024000FN00000000020220101000024000NNE   20211209175058W4A22F0F  00000300000000542000000721332W4A2  HJYHK-J 005600390040
BI00A32W4    #4500185530    202201277283-4190-30             CONNECTOR                CCN000001440000001440FN00000000020220101000001440NNE   20211209175058W4A22N0N  00000024000000846000001115532W4A2  HJYHK-J 005600390040
BI00B32W4    4500185533     202201257288-9556-30             SEALED ASSY MALE         CCN000010800000010800FN00000000020220101000010800NNE   20211209175058W4O74N0N  00000072000000537900000786332W4O7  H YHK-J 005500360039
BI00B32W4    #4500185540    202112217157-7812                SEAL RUBBER              CCN000040000000040000FN00000000020211201000040000NNED0020211209175058W42 2C0C  00001000000000137000000202032W42   HJYHK   002700430014
BI00B32W4    4500185549     202201277116-1685-02             TERMINAL                 CCN000096000000096000FN00000000020220101000096000NNE   20211209175058W4D44P0P  00002400000000897600001065232W4D4  HJYHK-J 005100280028
BI00B32W4    4500185549     202201277288-6547                CONNECTOR MALE ASS'Y     CCN000000750000000750FN00000000020220101000000750NNE   20211209175058W4D44N0N  00000075000001205300001340332W4D4  HJYHK-J 005400370024
BI00B32W4    4500185549     202201277289-6868-30             SEALED ASSY FEMALE       CCN000005040000005040FN00000000020220101000005040NNE   20211209175058W4D44N0N  00000252000000839200001119232W4D4  HJYHK-J 005500360039
BI00B32W4    4500185549     202201277298-4094-10             HOUSING FEMALE ASS'Y     CCN000013520000013520FN00000000020220101000013520NNE   20211209175058W4D44N0N  00000338000001097400001358732W4D4  HJYHK-J 005400370024
BI00B32W4    4500185549     202201277287-9323                UNSEALED HOUSING SUB     CCN000002400000002400FN00000000020220101000002400NNE   20211209175058W4D41N0N  00000240000000537600000690032W4D4  HJYHK-J 005600390023
BI00B32W4    4500185549     202201277196-0805-02             TERMINAL FEMALE          CCN000022500000022500FN00000000020220101000022500NNE   20211209175058W4D44P0P  00002250000000558000000843232W4D4  HJYHK-J 006400630015
BI00B32W4    4500185549     202201277288-5000                HOUSING MALE ASS'Y       CCN000000672000000672FN00000000020220101000000672NNE   20211209175058W4D41N0N  00000033600000825200001035232W4D4  HJYHK-J 005400370024
BI00B32W4    4500185549     202201277289-5000                HOUSING FEMALE ASS'Y     CCN000000912000000912FN00000000020220101000000912NNE   20211209175058W4D41N0N  00000030400000549000000759032W4D4  HJYHK-J 005400370024
BI00B32W4    4500185549     202201277289-9553-50             SEALED ASSY FEMALE       CCN000005880000005880FN00000000020220101000005880NNE   20211209175058W4D44N0N  00000294000001108100001520632W4D4  HJYHK-J 005500360039
BI00B32W4    4500185549     202201277388-2978-30             HOUSING MALE ASS'Y       CCN000000480000000480FN00000000020220101000000480NNE   20211209175058W4D41N0N  00000048000000742000001122032W4D4  HJYHK-J 005500360039
BI00B32W4    #4500185549    202201277289-2913-30             HOUSING FEMALE ASS'Y     CCN000001500000001500FN00000000020220101000001500NNE   20211209175058W4D42N0N  00000150000000907500001034532W4D4  HJYHK-J 005400360024
BI00B32W4    #4500185549    202201277174-1760-50             CAP                      CCN000003000000003000FN00000000020220101000003000NNE   20211209175058W4D42F0F  00000300000000813600000922632W4D4  HJYHK-J 005400370024
BI00B32W4    #4500185549    202201277035-0023-30             DASH GROMMET             CCN000000360000000360FN00000000020220101000000360NNE   20211209175058W4D42H0H  00000006000000438000000561032W4D4  HJYHK-J 005600390040
BI00B32W4    #4500185556    202201207198-1373                HOUSING FEMALE           CCN000002000000002000FN00000000020220101000002000NNE   20211209175058W4D42F0F  00000200000000821800000947432W4D4  HJYHK-J 005400370024
BI00A32W4    4500185557     202202107116-4101-02             TERMINAL                 CCN000012000000012000FN00000000020220201000012000NNE   20211209175058W4424P0P  00001200000000582000000876232W442  HJYHK   006400630015
BI00A32W4    4500185557     202202107116-4100-02             TERMINAL                 CCN000015000000015000FN00000000020220201000015000NNE   20211209175058W4424P0P  00001500000000696000000990232W442  HJYHK   006400630015
BI00A32W4    #4500185557    202202107183-7725-40             HOUSING                  CCN000006000000006000FN00000000020220201000006000NNE   20211209175058W4422F0F  00000600000000840000001040032W442  HJYHK   005600390040
BI00A32W4    4500185558     202202037116-4112-02             TERMINAL                 CCN000006000000006000FN00000000020220201000006000NNE   20211209175058W4424P0P  00000600000000450000000738232W442  HJYHK   006400630015
BI00A32W4    #4500185558    202202037283-8398-40             CONNECTOR                CCN000001540000001540FN00000000020220201000001540NNE   20211209175058W4422N0N  00000154000001007000001171332W442  HJYHK   005600390023
BI00B32W4    #4500185570    202201277147-8931-30             CLIP                     CCN000004500000004500FN00000000020220101000004500NNE   20211209175058W4652F0F  00000450000000387000000531732W465  HJYHK   005600390023
BI00B32W4    4500185571     202202107116-4100-02             TERMINAL                 CCN000240000000240000FN00000000020220201000240000NNE   20211209175058W4654P0P  00001500000000696000000990232W465  HJYHK   006400630015
BI00B32W4    4500185571     202202107114-4112-02             TERMINAL                 CCN000081000000081000FN00000000020220201000081000NNE   20211209175058W4654P0P  00000900000000598500000927132W465  HJYHK   006400630017
BI00B32W4    4500185571     202202107116-4111-02             TERMINAL                 CCN000037500000037500FN00000000020220201000037500NNE   20211209175058W4654P0P  00000750000000529500000817732W465  HJYHK   006400630015
BI00B32W4    4500185571     202202107116-4112-02             TERMINAL                 CCN000198000000198000FN00000000020220201000198000NNE   20211209175058W4654P0P  00000600000000450000000738232W465  HJYHK   006400630015
BI00B32W4    4500185571     202202107116-4102-02             TERMINAL                 CCN000168000000168000FN00000000020220201000168000NNE   20211209175058W4654P0P  00001200000000553200000841432W465  HJYHK   006400630015
BI00B32W4    4500185571     202202107114-4100-02             TERMINAL                 CCN000054000000054000FN00000000020220201000054000NNE   20211209175058W4654P0P  00001800000000748800001077432W465  HJYHK   006400630017
BI00B32W4    4500185571     202202107114-4111-02             TERMINAL                 CCN000072000000072000FN00000000020220201000072000NNE   20211209175058W4654P0P  00001200000000758400001087032W465  HJYHK   006400630017
BI00B32W4    4500185571     202202107116-4101-02             TERMINAL                 CCN000120000000120000FN00000000020220201000120000NNE   20211209175058W4654P0P  00001200000000582000000876232W465  HJYHK   006400630015
BI00B32W4    4500185571     202202107114-4101-02             TERMINAL                 CCN000060000000060000FN00000000020220201000060000NNE   20211209175058W4654P0P  00001500000000675000001003632W465  HJYHK   006400630017
BI00B32W4    4500185571     202202107114-4110-02             TERMINAL                 CCN000015000000015000FN00000000020220201000015000NNE   20211209175058W4654P0P  00001500000000901500001230132W465  HJYHK   006400630017
BI00B32W4    4500185571     202202107116-4110-02             TERMINAL                 CCN000135000000135000FN00000000020220201000135000NNE   20211209175058W4654P0P  00000900000000594000000882232W465  HJYHK   006400630015
BI00B32W4    4500185571     202202107116-4103-02             TERMINAL                 CCN000084000000084000FN00000000020220201000084000NNE   20211209175058W4654P0P  00001200000000571200000859432W465  HJYHK   006400630015
BI00B32W4    #4500185571    202202107282-6458-40             CONNECTOR                CCN000009000000009000FN00000000020220201000009000NNE   20211209175058W4652N0N  00000100000001206000001350532W465  HJYHK   005500360039
BI00A32W4    4500185589     202201247116-4102-02             TERMINAL                 CCN000012000000012000FN00000000020220101000012000NNE   20211209175058W4L64P0P  00001200000000553200000841432W4L6  HJYHK-K 006400630015
BI00A32W4    4500185589     202201247282-4855                HOUSING MALE ASS'Y       CCN000010800000010800FN00000000020220101000010800NNE   20211209175058W4L64N0N  00000120000001063200001283232W4L6  HJYHK-K 005500360039
BI00A32W4    4500185589     202201247283-1156                CONNECTOR                CCN000009600000009600FN00000000020220101000009600NNE   20211209175058W4L64N0N  00000080000000877600001078032W4L6  HJYHK-K 005600390040
BI00A32W4    @4500185589    202201247287-6634                HOUSING FEMALE ASS'Y     CCN000009600000009600FN00000000020220101000009600NNE   20211209175058W4L63N0N  00000240000001088400001337032W4L6  HJYHK-K 005500360039
BI00A32W4    4500185590     202201247158-3169-40             SEALING PLUG             CCN000040000000040000FN00000000020220101000040000NNE   20211209175058W4L61C0C  00004000000000156000000204132W4L6  HJYHK-K 004300260014
BI00B32W4    4500185592     202202107116-4100-02             TERMINAL                 CCN000090000000090000FN00000000020220201000090000NNE   20211209175058W4164P0P  00001500000000696000000990232W416  HJYHK   006400630015
BI00B32W4    4500185592     202202107114-4112-02             TERMINAL                 CCN000009000000009000FN00000000020220201000009000NNE   20211209175058W4164P0P  00000900000000598500000927132W416  HJYHK   006400630017
BI00B32W4    4500185592     202202107116-4121-02             TERMINAL                 CCN000004500000004500FN00000000020220201000004500NNE   20211209175058W4164P0P  00000450000000618800000912432W416  HJYHK   006400630015
BI00B32W4    4500185592     202202107116-4111-02             TERMINAL                 CCN000007500000007500FN00000000020220201000007500NNE   20211209175058W4164P0P  00000750000000529500000817732W416  HJYHK   006400630015
BI00B32W4    4500185592     202202107116-4112-02             TERMINAL                 CCN000018000000018000FN00000000020220201000018000NNE   20211209175058W4164P0P  00000600000000450000000738232W416  HJYHK   006400630015
BI00B32W4    4500185592     202202107116-4102-02             TERMINAL                 CCN000024000000024000FN00000000020220201000024000NNE   20211209175058W4164P0P  00001200000000553200000841432W416  HJYHK   006400630015
BI00B32W4    4500185592     202202107114-4100-02             TERMINAL                 CCN000054000000054000FN00000000020220201000054000NNE   20211209175058W4164P0P  00001800000000748800001077432W416  HJYHK   006400630017
BI00B32W4    4500185592     202202107116-4124-02             TERMINAL                 CCN000006000000006000FN00000000020220201000006000NNE   20211209175058W4164P0P  00000300000000459900000753532W416  HJYHK   006400630015
BI00B32W4    4500185592     202202107289-6547                HOUSING FEMALE ASS'Y     CCN000002400000002400FN00000000020220201000002400NNE   20211209175058W4161N0N  00000240000001152000001362032W416  HJYHK   005500360039
BI00B32W4    4500185592     202202107283-5548-30             CONNECTOR                CCN000001500000001500FN00000000020220201000001500NNE   20211209175058W4164N0N  00000150000001109000001302032W416  HJYHK   005600390040
BI00B32W4    4500185592     202202107126-8854-02             TERMINAL                 CCN000007500000007500FN00000000020220201000007500NNE   20211209175058W4164P0P  00000750000000604500000889732W416  HJYHK   006400630015
BI00B32W4    4500185592     202202107116-4101-02             TERMINAL                 CCN000036000000036000FN00000000020220201000036000NNE   20211209175058W4164P0P  00001200000000582000000876232W416  HJYHK   006400630015
BI00B32W4    4500185592     202202107116-4120-02             TERMINAL                 CCN000006000000006000FN00000000020220201000006000NNE   20211209175058W4164P0P  00000600000000780000001073632W416  HJYHK   006400630015
BI00B32W4    4500185592     202202107114-4101-02             TERMINAL                 CCN000015000000015000FN00000000020220201000015000NNE   20211209175058W4164P0P  00001500000000675000001003632W416  HJYHK   006400630017
BI00B32W4    4500185592     202202107116-4104-02             TERMINAL                 CCN000024000000024000FN00000000020220201000024000NNE   20211209175058W4164P0P  00001200000000580800000972432W416  HJYHK   006400630015
BI00B32W4    4500185592     202202107114-4110-02             TERMINAL                 CCN000015000000015000FN00000000020220201000015000NNE   20211209175058W4164P0P  00001500000000901500001230132W416  HJYHK   006400630017
BI00B32W4    4500185592     202202107116-4110-02             TERMINAL                 CCN000009000000009000FN00000000020220201000009000NNE   20211209175058W4164P0P  00000900000000594000000882232W416  HJYHK   006400630015
BI00B32W4    #4500185592    202202107282-4190-30             CONNECTOR                CCN000002880000002880FN00000000020220201000002880NNE   20211209175058W4162N0N  00000024000000801000001071332W416  HJYHK   005600390040
BI00B32W4    #4500185592    202202107283-4190-30             CONNECTOR                CCN000001680000001680FN00000000020220201000001680NNE   20211209175058W4162N0N  00000024000000846000001115532W416  HJYHK   005600390040
BI00A32W4    4500185607     202202077116-4100-02             TERMINAL                 CCN000015000000015000FN00000000020220201000015000NNE   20211209175058W4144P0P  00001500000000696000000990232W414  HJYHK   006400630015
BI00A32W4    4500185607     202202077116-4111-02             TERMINAL                 CCN000015000000015000FN00000000020220201000015000NNE   20211209175058W4144P0P  00000750000000529500000817732W414  HJYHK   006400630015
BI00A32W4    4500185607     202202077114-4100-02             TERMINAL                 CCN000018000000018000FN00000000020220201000018000NNE   20211209175058W4144P0P  00001800000000748800001077432W414  HJYHK   006400630017
BI00A32W4    4500185607     202202077158-3166-60             WIRE SEAL                CCN000040000000040000FN00000000020220201000040000NNE   20211209175058W4141C0C  00004000000000104000000152432W414  HJYHK   002700430014
BI00A32W4    4500185607     202202077116-4110-02             TERMINAL                 CCN000009000000009000FN00000000020220201000009000NNE   20211209175058W4144P0P  00000900000000594000000882232W414  HJYHK   006400630015
BI00B32W6    SW22022QMW     202201127288-6547                CONNECTOR MALE ASS'Y     CCN000004500000004500FN00000000020220201000004500NNMD0420211209175058    4N0N  00000075000001205300001340332W6    SYSYA-WJ005400370024
BI00B32W6    SW22023QMW     202201267288-6547                CONNECTOR MALE ASS'Y     CCN000006750000006750FN00000000020220201000006750NNMD0420211209175058    4N0N  00000075000001205300001340332W6    SYSYA-WJ005400370024
BI00B32W6    SW22024QMW     202202027288-6547                CONNECTOR MALE ASS'Y     CCN000008250000008250FN00000000020220201000008250NNMD0420211209175058    4N0N  00000075000001205300001340332W6    SYSYA-WJ005400370024
BI00B32W6    SW22022QMW     202201197289-3342-30             HOUSING FEMALE ASS'Y     CCN000012000000012000FN00000000020220201000012000NNMD0420211209175058    1N0N  00000240000000686400000901432W6    SYSYA-WJ005500360039
BI00B32W6    SW22023QMW     202201267289-3342-30             HOUSING FEMALE ASS'Y     CCN000012000000012000FN00000000020220201000012000NNMD0420211209175058    1N0N  00000240000000686400000901432W6    SYSYA-WJ005500360039
BI00B32W6    SW22024QMW     202202027289-3342-30             HOUSING FEMALE ASS'Y     CCN000028800000028800FN00000000020220201000028800NNMD0420211209175058    1N0N  00000240000000686400000901432W6    SYSYA-WJ005500360039
BI00B32W7    SC22021JMW     202201127C89-6868-30             SEALED ASSY FEMALE       CCN000010080000010080FN00000000020220201000010080NNMD0420211209175058    4N0N  00000252000000839200001119232W7    SYSYA-CH005500360039
BI00B32W7    SC22022JMW     202201267C89-6868-30             SEALED ASSY FEMALE       CCN000010080000010080FN00000000020220201000010080NNMD0420211209175058    4N0N  00000252000000839200001119232W7    SYSYA-CH005500360039
BI00B32W7    SC22023JMW     202202097C89-6868-30             SEALED ASSY FEMALE       CCN000010080000010080FN00000000020220201000010080NNMD0420211209175058    4N0N  00000252000000839200001119232W7    SYSYA-CH005500360039
BI00B32W7    SC22024JMW     202202167C89-6868-30             SEALED ASSY FEMALE       CCN000010080000010080FN00000000020220201000010080NNMD0420211209175058    4N0N  00000252000000839200001119232W7    SYSYA-CH005500360039
BI00B32W9    4500185532     202202017298-1145-4W             SQUIB SUB ASS'Y          CCN000250000000250000FN00000000020220201000250000NNE   20211209175058W9  4N0N  00001000000000787900000944932W9    HKYHK   005400370024
BI00B32W9    4500185532     202202017174-1849-70             COVER                    CCN000300000000300000FN00000000020220201000300000NNE   20211209175058W9  1F0F  00002500000000622500000761932W9    HKYHK   005400370024
BI00B32X5    TIB2008        202201287283-4855-40             CONNECTOR HOUSING        CCN000002400000002400FN00000000020220401000002400NNMD0420211209175058X5  4N0N  00000240000001188400001400032X5    EPYNA-E 005600360039
BI00B32X5    TIB2008        202205067289-3342-30             HOUSING FEMALE ASS'Y     CCN000084000000038400FN00000000020220401000038400NNMD0420211209175058X5  1N0N  00000240000000686400000901432X5    EPYNA-E 005500360039
BI00B32X5    TIB2008        202205137289-3342-30             HOUSING FEMALE ASS'Y     CCN000045600000045600FN00000000020220401000045600NNMD0420211209175058X5  1N0N  00000240000000686400000901432X5    EPYNA-E 005500360039
BI00B32Y2    TAU1161        202201137289-3342-30             HOUSING FEMALE ASS'Y     CCN000086400000012000FN00000000020220501000012000NNMD0420211209175058    1N0N  00000240000000686400000901432Y2    YUYUY   005500360039
BI00B32Y2    TAU1161        202201207289-3342-30             HOUSING FEMALE ASS'Y     CCN000012000000012000FN00000000020220501000012000NNMD0420211209175058    1N0N  00000240000000686400000901432Y2    YUYUY   005500360039
BI00B32Y2    TAU1161        202201277289-3342-30             HOUSING FEMALE ASS'Y     CCN000012000000012000FN00000000020220501000012000NNMD0420211209175058    1N0N  00000240000000686400000901432Y2    YUYUY   005500360039
BI00B32Y2    TAU1161        202202037289-3342-30             HOUSING FEMALE ASS'Y     CCN000012000000012000FN00000000020220501000012000NNMD0420211209175058    1N0N  00000240000000686400000901432Y2    YUYUY   005500360039
BI00B32Y2    TAU1161        202202107289-3342-30             HOUSING FEMALE ASS'Y     CCN000012000000012000FN00000000020220501000012000NNMD0420211209175058    1N0N  00000240000000686400000901432Y2    YUYUY   005500360039
BI00B32Y2    TAU1161        202202177289-3342-30             HOUSING FEMALE ASS'Y     CCN000012000000012000FN00000000020220501000012000NNMD0420211209175058    1N0N  00000240000000686400000901432Y2    YUYUY   005500360039
BI00B32Y2    TAU1161        202202247289-3342-30             HOUSING FEMALE ASS'Y     CCN000014400000014400FN00000000020220501000014400NNMD0420211209175058    1N0N  00000240000000686400000901432Y2    YUYUY   005500360039
BI00B32Y4    ITA32041       202201207289-4696-30             HOUSING FEMALE ASS'Y     CCN000008000000008000FN00000000020220401000008000NNED0220211209184655    4N0N  00000200000000913400001055432Y4    BIYAB-I 005400370024
BI00B32Y4    #STH32062      202202037282-8395-40             CONNECTOR                CCN000008000000008000FN00000000020211201000008000NNE   20211209175058    2N0N  00000100000001009000001188032Y4    BIYAB-I 005500360039
BI00B32Y4    #STH32062      202202037283-8398-40             CONNECTOR                CCN000003080000003080FN00000000020211201000003080NNE   20211209175058    2N0N  00000154000001007000001171332Y4    BIYAB-I 005600390023
BI00B32Y4    MTH32062       202202037289-5000                HOUSING FEMALE ASS'Y     CCN000004864000004864FN00000000020211201000004864NNE   20211209175058    1N0N  00000030400000549000000759032Y4    BIYAB-I 005400370024
BI00B32Y4    #MTH32062      202202037174-1164                COVER                    CCN000008000000008000FN00000000020211201000008000NNE   20211209175058    2F0F  00000080000000592000000712032Y4    BIYAB-I 005500360039
BI00A32Y5    TTA31122       202112107289-6547                HOUSING FEMALE ASS'Y     PCN000024000000012000FN00000000020211201000012000NNEM0020211209175058    1N0N  00000240000001152000001362032Y5    BZYBL   005500360039
BI00A32Y5    TTA32041       202112217283-5845-40             CONNECTOR HOUSING        CCN000036000000012000FN00000000020220401000012000NNMM0020211209175058    1N0N  00000600000000444000000606332Y5    BZYBL   005400370024
BI00B32Y5    TTA32051       202203017283-5845-40             CONNECTOR HOUSING        CCN000024000000024000FN00000000020220501000024000NNMD0220211209185144    1N0N  00000600000000444000000606332Y5    BZYBL   005400370024
BI00B32Y5    TTA32052       202202157288-6547                CONNECTOR MALE ASS'Y     CCN000004500000004500FN00000000020220501000004500NNMD0420211209183211    4N0N  00000075000001205300001340332Y5    BZYBL   005400370024
BI00B32Y5    TTA32054       202203017288-6547                CONNECTOR MALE ASS'Y     CCN000003000000003000FN00000000020220501000003000NNMD0420211209183248    4N0N  00000075000001205300001340332Y5    BZYBL   005400370024
BI00B32Y5    TTA32051       202203017289-6547                HOUSING FEMALE ASS'Y     CCN000002400000002400FN00000000020220501000002400NNMD0420211209185159    1N0N  00000240000001152000001362032Y5    BZYBL   005500360039
BI00B32Y5    TTA32052       202203017289-6547                HOUSING FEMALE ASS'Y     CCN000002400000002400FN00000000020220501000002400NNMD0220211209185218    1N0N  00000240000001152000001362032Y5    BZYBL   005500360039
BI00B32Y5    TTA32053       202203157289-6547                HOUSING FEMALE ASS'Y     CCN000002400000002400FN00000000020220501000002400NNMD0220211209185241    1N0N  00000240000001152000001362032Y5    BZYBL   005500360039
BI00B32Y5    TTA32054       202203157289-6547                HOUSING FEMALE ASS'Y     CCN000002400000002400FN00000000020220501000002400NNMD0420211209185258    1N0N  00000240000001152000001362032Y5    BZYBL   005500360039
