BI00A1200    2399T51920     202112177289-5979-30             HOUSING FEMALE ASS'Y     PCN000034524000004032FN00000000020211101000004032NNM00020211202191616    1N0N  0000002520000085470000106471200    YCYC    005400370024
BI00A1200    2399T51921     202112217289-5979-30             HOUSING FEMALE ASS'Y     PCN000034524000006552FN00000000020211101000006552NNMD0220211202191921    1N0N  0000002520000085470000106471200    YCYC    005400370024
BI00A1200    2399T51922     202112297289-5979-30             HOUSING FEMALE ASS'Y     PCN000034524000003780FN00000000020211101000003780NNMD0220211202192220    1N0N  0000002520000085470000106471200    YCYC    005400370024
BI00A1200    2399T51920     202112207289-5979-30             HOUSING FEMALE ASS'Y     PCN000011592000004032FN00000000020211101000004032NNMD0220211202191611    1N0N  0000002520000085470000106471200    YCYC    005400370024
BI00A1200    2399T51920     202112087289-5979-30             HOUSING FEMALE ASS'Y     PCN000011592000008820FN00000000020211101000008820NNMD0220211202190801    1N0N  0000002520000085470000106471200    YCYC    005400370024
BI00A1200    2399T51921     202112227289-5979-30             HOUSING FEMALE ASS'Y     PCN000011592000004032FN00000000020211101000004032NNMD0220211202191921    1N0N  0000002520000085470000106471200    YCYC    005400370024
BI00A1200    2399T51921     202112237289-5979-30             HOUSING FEMALE ASS'Y     PCN000011592000004032FN00000000020211101000004032NNMD0220211202191921    1N0N  0000002520000085470000106471200    YCYC    005400370024
BI00A1200    2399T51922     202201047289-5979-30             HOUSING FEMALE ASS'Y     PCN000011592000008064FN00000000020211101000008064NNMD0220211202192253    1N0N  0000002520000085470000106471200    YCYC    005400370024
BI00B1200    2399T51922     202201207289-5979-30             HOUSING FEMALE ASS'Y     CCN000011592000022680FN00000000020211101000022680NNMD0220211202192354    1N0N  0000002520000085470000106471200    YCYC    005400370024
BI00A1200    8640T51901     202112037289-3342-30             HOUSING FEMALE ASS'Y     CCN000002400000002400FN00000000020211101000002400NNE00020211202195304    1N0N  0000024000000068640000090141200    YCYC    005500360039
BI00A1200    7360T51C05     202201277288-3331-30             HOUSING MALE             CCN000022500000022500FN00000000020220101000022500NNEM0020211202193311    4N0N  0000015000000086600000101091200    YCYC    005400370024
BI00A1200    #2399T51C26    202203177173-3225-10             LIF LEVER                CCN000046400000046400FN00000000020211201000046400NNED0420211202121955    2F0F  0000008000000059200000071201200    YCYC    005500360039
BI00B1200    O022C50031     202202247298-1187-30             SHUNT RING ASSEMBLY      CCN000020000000020000FN00000000020220301000020000NNE   20211202121955    4N0N  0000100000000064700000076951200    YCYC    005400370024
BI00B1200    Y022C50024     202202107289-5979-30             HOUSING FEMALE ASS'Y     CCN000000252000000252FN00000000020220301000000252NNM   20211202121955    1N0N  0000002520000085470000106471200    YCYC    005400370024
BI00A1200    2399T51920     202112147289-5979-30             HOUSING FEMALE ASS'Y     PCN000012096000012096FN00000000020211101000012096NNMD0220211202190801    1N0N  0000002520000085470000106471200    YCYC    005400370024
BI00A1200    2399T51920     202112157289-5979-30             HOUSING FEMALE ASS'Y     PCN000004032000004032FN00000000020211101000004032NNMD0220211202190827    1N0N  0000002520000085470000106471200    YCYC    005400370024
BI00A1200    2399T51920     202112217289-5979-30             HOUSING FEMALE ASS'Y     PCN000001512000001512FN00000000020211101000001512NNMD0220211202191611    1N0N  0000002520000085470000106471200    YCYC    005400370024
BI00A1200    2399T51921     202112247289-5979-30             HOUSING FEMALE ASS'Y     PCN000004032000004032FN00000000020211101000004032NNMD0220211202191935    1N0N  0000002520000085470000106471200    YCYC    005400370024
BI00A1200    2399T51921     202112277289-5979-30             HOUSING FEMALE ASS'Y     PCN000004032000004032FN00000000020211101000004032NNMD0220211202191948    1N0N  0000002520000085470000106471200    YCYC    005400370024
BI00A1200    2399T51921     202112287289-5979-30             HOUSING FEMALE ASS'Y     PCN000011844000011844FN00000000020211101000011844NNMD0220211202192038    1N0N  0000002520000085470000106471200    YCYC    005400370024
BI00A1200    2399T51921     202112297289-5979-30             HOUSING FEMALE ASS'Y     PCN000000252000000252FN00000000020211101000000252NNMD0220211202192126    1N0N  0000002520000085470000106471200    YCYC    005400370024
BI00B32AG    XG2201ALMW     202112247017-1183-02             TERMINAL                 CCN000054000000054000FN00000000020220101000054000NNE   20211202121955    4P0P  00002700000001139400001307432AG    XGXGY   005100280028
BI00B32AG    #XG2201ALMW    202112247158-3007-10             RUBBER STOPPER           CCN000020000000020000FN00000000020220101000020000NNE   20211202121955    2H0H  00002000000000308000000362732AG    XGXGY   002700430014
BI00B32AG    XG22031CMW     202201287B72-5540-80             SEALED WIRE SEAL         CCN000020000000020000FN00000000020220301000020000NNM   20211202121955    1C0C  00002000000000186000000234432AG    XGXGY   004300270014
BI00B32AG    XG22033CMW     202202117B72-5540-80             SEALED WIRE SEAL         CCN000020000000020000FN00000000020220301000020000NNM   20211202121955    1C0C  00002000000000186000000234432AG    XGXGY   004300270014
BI00B32AG    XG22034CMW     202202187B72-5540-80             SEALED WIRE SEAL         CCN000020000000020000FN00000000020220301000020000NNM   20211202121955    1C0C  00002000000000186000000234432AG    XGXGY   004300270014
BI00B32AG    XG22031CMW     202201287B96-0805-02             TERMINAL FEMALE          CCN000022500000022500FN00000000020220301000022500NNM   20211202121955    4P0P  00002250000000558000000843232AG    XGXGY   006400630015
BI00B32AG    XG22032CMW     202202047B96-0805-02             TERMINAL FEMALE          CCN000022500000022500FN00000000020220301000022500NNM   20211202121955    4P0P  00002250000000558000000843232AG    XGXGY   006400630015
BI00B32AG    XG22034CMW     202202187B96-0805-02             TERMINAL FEMALE          CCN000022500000022500FN00000000020220301000022500NNM   20211202121955    4P0P  00002250000000558000000843232AG    XGXGY   006400630015
BI00B32AG    XG22031CMW     202201287C89-6868-30             SEALED ASSY FEMALE       CCN000005040000005040FN00000000020220301000005040NNM   20211202121955    4N0N  00000252000000839200001119232AG    XGXGY   005500360039
BI00B32AG    XG22032CMW     202202047C89-6868-30             SEALED ASSY FEMALE       CCN000005040000005040FN00000000020220301000005040NNM   20211202121955    4N0N  00000252000000839200001119232AG    XGXGY   005500360039
BI00B32AG    XG22033CMW     202202117C89-6868-30             SEALED ASSY FEMALE       CCN000005040000005040FN00000000020220301000005040NNM   20211202121955    4N0N  00000252000000839200001119232AG    XGXGY   005500360039
BI00B32AG    XG22034CMW     202202187C89-6868-30             SEALED ASSY FEMALE       CCN000007560000007560FN00000000020220301000007560NNM   20211202121955    4N0N  00000252000000839200001119232AG    XGXGY   005500360039
BI00B32AG    XG22035CMW     202202257C89-6868-30             SEALED ASSY FEMALE       CCN000005040000005040FN00000000020220301000005040NNM   20211202121955    4N0N  00000252000000839200001119232AG    XGXGY   005500360039
BI00B32AG    XG22031CMW     202201287116-4032                TERMINAL                 CCN000012000000012000FN00000000020220301000012000NNM   20211202121955    4P0P  00000600000000532800000818032AG    XGXGY   006400630015
BI00B32AG    XG22032CMW     202202047116-4032                TERMINAL                 CCN000006000000006000FN00000000020220301000006000NNM   20211202121955    4P0P  00000600000000532800000818032AG    XGXGY   006400630015
BI00B32AG    XG22033CMW     202202117116-4032                TERMINAL                 CCN000006000000006000FN00000000020220301000006000NNM   20211202121955    4P0P  00000600000000532800000818032AG    XGXGY   006400630015
BI00B32AG    XG22034CMW     202202187116-4032                TERMINAL                 CCN000006000000006000FN00000000020220301000006000NNM   20211202121955    4P0P  00000600000000532800000818032AG    XGXGY   006400630015
BI00B32AG    XG22035CMW     202202257116-4032                TERMINAL                 CCN000006000000006000FN00000000020220301000006000NNM   20211202121955    4P0P  00000600000000532800000818032AG    XGXGY   006400630015
BI00B32AG    XG22031CMW     202201287116-6041                TERMINAL                 CCN000036000000036000FN00000000020220301000036000NNM   20211202121955    4P0P  00000450000000716000001009632AG    XGXGY   006400630015
BI00B32AG    XG22033CMW     202202117116-6041                TERMINAL                 CCN000036000000036000FN00000000020220301000036000NNM   20211202121955    4P0P  00000450000000716000001009632AG    XGXGY   006400630015
BI00B32AG    XG22034CMW     202202187116-6041                TERMINAL                 CCN000036000000036000FN00000000020220301000036000NNM   20211202121955    4P0P  00000450000000716000001009632AG    XGXGY   006400630015
BI00B32AG    XG22031CMW     202201287158-3070-80             RUBBER STOPPER           CCN000040000000040000FN00000000020220301000040000NNM   20211202121955    1C0C  00004000000000276000000333332AG    XGXGY   002700430014
BI00B32AG    XG22034CMW     202202187158-3070-80             RUBBER STOPPER           CCN000040000000040000FN00000000020220301000040000NNM   20211202121955    1C0C  00004000000000276000000333332AG    XGXGY   002700430014
BI00B32AG    XG22031CMW     202201287172-5540-80             SEALED WIRE SEAL         CCN000020000000020000FN00000000020220301000020000NNM   20211202121955    1C0C  00002000000000186000000234432AG    XGXGY   004300270014
BI00B32AG    XG22033CMW     202202117172-5540-80             SEALED WIRE SEAL         CCN000020000000020000FN00000000020220301000020000NNM   20211202121955    1C0C  00002000000000186000000234432AG    XGXGY   004300270014
BI00B32AG    XG22034CMW     202202187172-5540-80             SEALED WIRE SEAL         CCN000020000000020000FN00000000020220301000020000NNM   20211202121955    1C0C  00002000000000186000000234432AG    XGXGY   004300270014
BI00B32AG    XG22031CMW     202201287196-0805-02             TERMINAL FEMALE          CCN000022500000022500FN00000000020220301000022500NNM   20211202121955    4P0P  00002250000000558000000843232AG    XGXGY   006400630015
BI00B32AG    XG22032CMW     202202047196-0805-02             TERMINAL FEMALE          CCN000022500000022500FN00000000020220301000022500NNM   20211202121955    4P0P  00002250000000558000000843232AG    XGXGY   006400630015
BI00B32AG    XG22034CMW     202202187196-0805-02             TERMINAL FEMALE          CCN000022500000022500FN00000000020220301000022500NNM   20211202121955    4P0P  00002250000000558000000843232AG    XGXGY   006400630015
BI00B32AG    XG22031CMW     202201287298-3822-70             HOUSING FEMALE ASS'Y     CCN000005040000005040FN00000000020220301000005040NNM   20211202121955    4N0N  00000252000000776200001077032AG    XGXGY   005500360039
BI00B32AG    XG22032CMW     202202047298-3822-70             HOUSING FEMALE ASS'Y     CCN000002520000002520FN00000000020220301000002520NNM   20211202121955    4N0N  00000252000000776200001077032AG    XGXGY   005500360039
BI00B32AG    XG22033CMW     202202117298-3822-70             HOUSING FEMALE ASS'Y     CCN000007560000007560FN00000000020220301000007560NNM   20211202121955    4N0N  00000252000000776200001077032AG    XGXGY   005500360039
BI00B32AG    XG22034CMW     202202187298-3822-70             HOUSING FEMALE ASS'Y     CCN000005040000005040FN00000000020220301000005040NNM   20211202121955    4N0N  00000252000000776200001077032AG    XGXGY   005500360039
BI00B32AG    XG22035CMW     202202257298-3822-70             HOUSING FEMALE ASS'Y     CCN000005040000005040FN00000000020220301000005040NNM   20211202121955    4N0N  00000252000000776200001077032AG    XGXGY   005500360039
BI00B32AG    XG22031CMW     202201287327-6832-60             MAIN FUSE                CCN000001800000001800FN00000000020220301000001800NNM   20211202121955    4N0N  00000060000000729200000930732AG    XGXGY   005400370024
BI00B32AG    XG22032CMW     202202047327-6832-60             MAIN FUSE                CCN000002400000002400FN00000000020220301000002400NNM   20211202121955    4N0N  00000060000000729200000930732AG    XGXGY   005400370024
BI00B32AG    XG22033CMW     202202117327-6832-60             MAIN FUSE                CCN000002400000002400FN00000000020220301000002400NNM   20211202121955    4N0N  00000060000000729200000930732AG    XGXGY   005400370024
BI00B32AG    XG22034CMW     202202187327-6832-60             MAIN FUSE                CCN000003600000003600FN00000000020220301000003600NNM   20211202121955    4N0N  00000060000000729200000930732AG    XGXGY   005400370024
BI00B32AG    XG22035CMW     202202257327-6832-60             MAIN FUSE                CCN000003000000003000FN00000000020220301000003000NNM   20211202121955    4N0N  00000060000000729200000930732AG    XGXGY   005400370024
BI00B32AG    XG22031CMW     202201287327-6870-30             MULTI FUSE               CCN000006912000006912FN00000000020220301000006912NNM   20211202121955    4N0N  00000028800001015200001181132AG    XGXGY   005400370024
BI00B32AG    XG22032CMW     202202047327-6870-30             MULTI FUSE               CCN000002592000002592FN00000000020220301000002592NNM   20211202121955    4N0N  00000028800001015200001181132AG    XGXGY   005400370024
BI00B32AG    XG22033CMW     202202117327-6870-30             MULTI FUSE               CCN000002592000002592FN00000000020220301000002592NNM   20211202121955    4N0N  00000028800001015200001181132AG    XGXGY   005400370024
BI00B32AG    XG22034CMW     202202187327-6870-30             MULTI FUSE               CCN000000576000000576FN00000000020220301000000576NNM   20211202121955    4N0N  00000028800001015200001181132AG    XGXGY   005400370024
BI00B32AG    XG22035CMW     202202257327-6870-30             MULTI FUSE               CCN000002880000002880FN00000000020220301000002880NNM   20211202121955    4N0N  00000028800001015200001181132AG    XGXGY   005400370024
BI00B32AG    XG22031CMW     202201287327-6874-30             MULTI FUSE               CCN000006912000006912FN00000000020220301000006912NNM   20211202121955    4N0N  00000028800000991400001157332AG    XGXGY   005400370024
BI00B32AG    XG22032CMW     202202047327-6874-30             MULTI FUSE               CCN000002880000002880FN00000000020220301000002880NNM   20211202121955    4N0N  00000028800000991400001157332AG    XGXGY   005400370024
BI00B32AG    XG22033CMW     202202117327-6874-30             MULTI FUSE               CCN000002304000002304FN00000000020220301000002304NNM   20211202121955    4N0N  00000028800000991400001157332AG    XGXGY   005400370024
BI00B32AG    XG22034CMW     202202187327-6874-30             MULTI FUSE               CCN000000576000000576FN00000000020220301000000576NNM   20211202121955    4N0N  00000028800000991400001157332AG    XGXGY   005400370024
BI00B32AG    XG22035CMW     202202257327-6874-30             MULTI FUSE               CCN000002880000002880FN00000000020220301000002880NNM   20211202121955    4N0N  00000028800000991400001157332AG    XGXGY   005400370024
BI00B32AG    XG22031CMW     202201287327-6880-30             MULTI FUSE               CCN000006912000006912FN00000000020220301000006912NNM   20211202121955    4N0N  00000028800001012600001178532AG    XGXGY   005400370024
BI00B32AG    XG22032CMW     202202047327-6880-30             MULTI FUSE               CCN000002592000002592FN00000000020220301000002592NNM   20211202121955    4N0N  00000028800001012600001178532AG    XGXGY   005400370024
BI00B32AG    XG22033CMW     202202117327-6880-30             MULTI FUSE               CCN000002592000002592FN00000000020220301000002592NNM   20211202121955    4N0N  00000028800001012600001178532AG    XGXGY   005400370024
BI00B32AG    XG22034CMW     202202187327-6880-30             MULTI FUSE               CCN000000576000000576FN00000000020220301000000576NNM   20211202121955    4N0N  00000028800001012600001178532AG    XGXGY   005400370024
BI00B32AG    XG22035CMW     202202257327-6880-30             MULTI FUSE               CCN000002880000002880FN00000000020220301000002880NNM   20211202121955    4N0N  00000028800001012600001178532AG    XGXGY   005400370024
BI00B32AG    XG22031CMW     202201287327-6884-30             MULTI FUSE               CCN000006912000006912FN00000000020220301000006912NNM   20211202121955    4N0N  00000028800000988900001154832AG    XGXGY   005400370024
BI00B32AG    XG22032CMW     202202047327-6884-30             MULTI FUSE               CCN000002592000002592FN00000000020220301000002592NNM   20211202121955    4N0N  00000028800000988900001154832AG    XGXGY   005400370024
BI00B32AG    XG22033CMW     202202117327-6884-30             MULTI FUSE               CCN000002592000002592FN00000000020220301000002592NNM   20211202121955    4N0N  00000028800000988900001154832AG    XGXGY   005400370024
BI00B32AG    XG22034CMW     202202187327-6884-30             MULTI FUSE               CCN000000576000000576FN00000000020220301000000576NNM   20211202121955    4N0N  00000028800000988900001154832AG    XGXGY   005400370024
BI00B32AG    XG22035CMW     202202257327-6884-30             MULTI FUSE               CCN000002880000002880FN00000000020220301000002880NNM   20211202121955    4N0N  00000028800000988900001154832AG    XGXGY   005400370024
BI00B32AG    XG22031CMW     202201287388-0316-80             CONNECTOR ASS'Y          CCN000003600000003600FN00000000020220301000003600NNM   20211202121955    4N0N  00000120000001002500001132532AG    XGXGY   005400370024
BI00B32AG    XG22032CMW     202202047388-0316-80             CONNECTOR ASS'Y          CCN000002400000002400FN00000000020220301000002400NNM   20211202121955    4N0N  00000120000001002500001132532AG    XGXGY   005400370024
BI00B32AG    XG22033CMW     202202117388-0316-80             CONNECTOR ASS'Y          CCN000003600000003600FN00000000020220301000003600NNM   20211202121955    4N0N  00000120000001002500001132532AG    XGXGY   005400370024
BI00B32AG    XG22034CMW     202202187388-0316-80             CONNECTOR ASS'Y          CCN000002400000002400FN00000000020220301000002400NNM   20211202121955    4N0N  00000120000001002500001132532AG    XGXGY   005400370024
BI00B32AG    XG22035CMW     202202257388-0316-80             CONNECTOR ASS'Y          CCN000003600000003600FN00000000020220301000003600NNM   20211202121955    4N0N  00000120000001002500001132532AG    XGXGY   005400370024
BI00B32AG    #XG22031CMW    202201287198-1371-60             HOUSING FEMALE           CCN000004000000004000FN00000000020220301000004000NNM   20211202121955    2F0F  00000200000000597800000721232AG    XGXGY   005400370024
BI00B32AG    #XG22032CMW    202202047198-1371-60             HOUSING FEMALE           CCN000002000000002000FN00000000020220301000002000NNM   20211202121955    2F0F  00000200000000597800000721232AG    XGXGY   005400370024
BI00B32AG    #XG22033CMW    202202117198-1371-60             HOUSING FEMALE           CCN000004000000004000FN00000000020220301000004000NNM   20211202121955    2F0F  00000200000000597800000721232AG    XGXGY   005400370024
BI00B32AG    #XG22034CMW    202202187198-1371-60             HOUSING FEMALE           CCN000002000000002000FN00000000020220301000002000NNM   20211202121955    2F0F  00000200000000597800000721232AG    XGXGY   005400370024
BI00B32AG    #XG22035CMW    202202257198-1371-60             HOUSING FEMALE           CCN000004000000004000FN00000000020220301000004000NNM   20211202121955    2F0F  00000200000000597800000721232AG    XGXGY   005400370024
BI00B32AG    #XG22031CMW    202201287198-1372                HOUSING FEMALE           CCN000004000000004000FN00000000020220301000004000NNM   20211202121955    2F0F  00000200000000857200000982232AG    XGXGY   005400370024
BI00B32AG    #XG22032CMW    202202047198-1372                HOUSING FEMALE           CCN000002000000002000FN00000000020220301000002000NNM   20211202121955    2F0F  00000200000000857200000982232AG    XGXGY   005400370024
BI00B32AG    #XG22033CMW    202202117198-1372                HOUSING FEMALE           CCN000002000000002000FN00000000020220301000002000NNM   20211202121955    2F0F  00000200000000857200000982232AG    XGXGY   005400370024
BI00B32AG    #XG22034CMW    202202187198-1372                HOUSING FEMALE           CCN000004000000004000FN00000000020220301000004000NNM   20211202121955    2F0F  00000200000000857200000982232AG    XGXGY   005400370024
BI00B32AG    #XG22035CMW    202202257198-1372                HOUSING FEMALE           CCN000004000000004000FN00000000020220301000004000NNM   20211202121955    2F0F  00000200000000857200000982232AG    XGXGY   005400370024
BI00B32AG    #XG22031CMW    202201287198-1373-60             HOUSING FEMALE           CCN000004000000004000FN00000000020220301000004000NNM   20211202121955    2F0F  00000200000000819400000947432AG    XGXGY   005400370024
BI00B32AG    #XG22032CMW    202202047198-1373-60             HOUSING FEMALE           CCN000002000000002000FN00000000020220301000002000NNM   20211202121955    2F0F  00000200000000819400000947432AG    XGXGY   005400370024
BI00B32AG    #XG22033CMW    202202117198-1373-60             HOUSING FEMALE           CCN000002000000002000FN00000000020220301000002000NNM   20211202121955    2F0F  00000200000000819400000947432AG    XGXGY   005400370024
BI00B32AG    #XG22034CMW    202202187198-1373-60             HOUSING FEMALE           CCN000004000000004000FN00000000020220301000004000NNM   20211202121955    2F0F  00000200000000819400000947432AG    XGXGY   005400370024
BI00B32AG    #XG22035CMW    202202257198-1373-60             HOUSING FEMALE           CCN000004000000004000FN00000000020220301000004000NNM   20211202121955    2F0F  00000200000000819400000947432AG    XGXGY   005400370024
BI00B32AG    #XG22031CMW    202201287198-2458                HOUSING FEMALE           CCN000001760000001760FN00000000020220301000001760NNM   20211202121955    2F0F  00000176000000869100001160532AG    XGXGY   005400370024
BI00B32AG    #XG22032CMW    202202047198-2458                HOUSING FEMALE           CCN000003520000003520FN00000000020220301000003520NNM   20211202121955    2F0F  00000176000000869100001160532AG    XGXGY   005400370024
BI00B32AG    #XG22033CMW    202202117198-2458                HOUSING FEMALE           CCN000003520000003520FN00000000020220301000003520NNM   20211202121955    2F0F  00000176000000869100001160532AG    XGXGY   005400370024
BI00B32AG    #XG22034CMW    202202187198-2458                HOUSING FEMALE           CCN000001760000001760FN00000000020220301000001760NNM   20211202121955    2F0F  00000176000000869100001160532AG    XGXGY   005400370024
BI00B32AG    #XG22035CMW    202202257198-2458                HOUSING FEMALE           CCN000003520000003520FN00000000020220301000003520NNM   20211202121955    2F0F  00000176000000869100001160532AG    XGXGY   005400370024
BI00B32AG    #XG22031CMW    202201287298-2459-60             LIF FEMALE ASSEMBLY      CCN000003024000003024FN00000000020220301000003024NNM   20211202121955    2N0N  00000016800000534000000729632AG    XGXGY   005400370024
BI00B32AG    #XG22032CMW    202202047298-2459-60             LIF FEMALE ASSEMBLY      CCN000002688000002688FN00000000020220301000002688NNM   20211202121955    2N0N  00000016800000534000000729632AG    XGXGY   005400370024
BI00B32AG    #XG22033CMW    202202117298-2459-60             LIF FEMALE ASSEMBLY      CCN000002688000002688FN00000000020220301000002688NNM   20211202121955    2N0N  00000016800000534000000729632AG    XGXGY   005400370024
BI00B32AG    #XG22034CMW    202202187298-2459-60             LIF FEMALE ASSEMBLY      CCN000003192000003192FN00000000020220301000003192NNM   20211202121955    2N0N  00000016800000534000000729632AG    XGXGY   005400370024
BI00B32AG    #XG22035CMW    202202257298-2459-60             LIF FEMALE ASSEMBLY      CCN000003024000003024FN00000000020220301000003024NNM   20211202121955    2N0N  00000016800000534000000729632AG    XGXGY   005400370024
BI00B32AG    #XG22031GMW    202201287282-1140-90             HOUSING MALE ASS'Y       CCN000001000000001000FN00000000020220301000001000NNM   20211202121955    2N0N  00000050000000467500000590032AG    XGXGY   005400370024
BI00B32AG    #XG22032GMW    202202047282-1140-90             HOUSING MALE ASS'Y       CCN000001000000001000FN00000000020220301000001000NNM   20211202121955    2N0N  00000050000000467500000590032AG    XGXGY   005400370024
BI00B32AG    #XG22033GMW    202202117282-1140-90             HOUSING MALE ASS'Y       CCN000000500000000500FN00000000020220301000000500NNM   20211202121955    2N0N  00000050000000467500000590032AG    XGXGY   005400370024
BI00B32AG    #XG22034GMW    202202187282-1140-90             HOUSING MALE ASS'Y       CCN000001000000001000FN00000000020220301000001000NNM   20211202121955    2N0N  00000050000000467500000590032AG    XGXGY   005400370024
BI00B32AG    #XG22035GMW    202202257282-1140-90             HOUSING MALE ASS'Y       CCN000001000000001000FN00000000020220301000001000NNM   20211202121955    2N0N  00000050000000467500000590032AG    XGXGY   005400370024
BI00B32AG    XG22031LMW     202201287017-1183-02             TERMINAL                 CCN000027000000027000FN00000000020220301000027000NNM   20211202121955    4P0P  00002700000001139400001307432AG    XGXGY   005100280028
BI00B32AG    XG22032LMW     202202047017-1183-02             TERMINAL                 CCN000027000000027000FN00000000020220301000027000NNM   20211202121955    4P0P  00002700000001139400001307432AG    XGXGY   005100280028
BI00B32AG    XG22034LMW     202202187017-1183-02             TERMINAL                 CCN000027000000027000FN00000000020220301000027000NNM   20211202121955    4P0P  00002700000001139400001307432AG    XGXGY   005100280028
BI00B32AG    XG22035LMW     202202257017-1183-02             TERMINAL                 CCN000027000000027000FN00000000020220301000027000NNM   20211202121955    4P0P  00002700000001139400001307432AG    XGXGY   005100280028
BI00B32AG    XG22034LMW     202202187116-4025                TERMINAL                 CCN000016000000016000FN00000000020220301000016000NNM   20211202121955    4P0P  00001600000000644800000975132AG    XGXGY   006400630017
BI00B32AG    XG22035LMW     202202257116-4025                TERMINAL                 CCN000064000000064000FN00000000020220301000064000NNM   20211202121955    4P0P  00001600000000644800000975132AG    XGXGY   006400630017
BI00B32AG    XG22031LMW     202201287116-4026                TERMINAL                 CCN000032000000032000FN00000000020220301000032000NNM   20211202121955    4P0P  00001600000000664000000994332AG    XGXGY   006400630017
BI00B32AG    XG22032LMW     202202047116-4026                TERMINAL                 CCN000048000000048000FN00000000020220301000048000NNM   20211202121955    4P0P  00001600000000664000000994332AG    XGXGY   006400630017
BI00B32AG    XG22033LMW     202202117116-4026                TERMINAL                 CCN000048000000048000FN00000000020220301000048000NNM   20211202121955    4P0P  00001600000000664000000994332AG    XGXGY   006400630017
BI00B32AG    XG22034LMW     202202187116-4026                TERMINAL                 CCN000048000000048000FN00000000020220301000048000NNM   20211202121955    4P0P  00001600000000664000000994332AG    XGXGY   006400630017
BI00B32AG    XG22035LMW     202202257116-4026                TERMINAL                 CCN000048000000048000FN00000000020220301000048000NNM   20211202121955    4P0P  00001600000000664000000994332AG    XGXGY   006400630017
BI00B32AG    XG22031LMW     202201287172-1372-10             FRONT HOLDER             CCN000007800000007800FN00000000020220301000007800NNM   20211202121955    4F0F  00000390000000655200000955232AG    XGXGY   005500360039
BI00B32AG    XG22033LMW     202202117172-1372-10             FRONT HOLDER             CCN000003900000003900FN00000000020220301000003900NNM   20211202121955    4F0F  00000390000000655200000955232AG    XGXGY   005500360039
BI00B32AG    XG22034LMW     202202187172-1372-10             FRONT HOLDER             CCN000003900000003900FN00000000020220301000003900NNM   20211202121955    4F0F  00000390000000655200000955232AG    XGXGY   005500360039
BI00B32AG    XG22035LMW     202202257172-1372-10             FRONT HOLDER             CCN000003900000003900FN00000000020220301000003900NNM   20211202121955    4F0F  00000390000000655200000955232AG    XGXGY   005500360039
BI00B32AG    XG22031LMW     202201287283-5843                CONNECTOR                CCN000001500000001500FN00000000020220301000001500NNM   20211202121955    1N0N  00000150000000889000001132032AG    XGXGY   005600390040
BI00B32AG    XG22032LMW     202202047283-5843                CONNECTOR                CCN000001500000001500FN00000000020220301000001500NNM   20211202121955    1N0N  00000150000000889000001132032AG    XGXGY   005600390040
BI00B32AG    XG22034LMW     202202187283-5843                CONNECTOR                CCN000001500000001500FN00000000020220301000001500NNM   20211202121955    1N0N  00000150000000889000001132032AG    XGXGY   005600390040
BI00B32AG    XG22031LMW     202201287289-4696-30             HOUSING FEMALE ASS'Y     CCN000014000000014000FN00000000020220301000014000NNM   20211202121955    4N0N  00000200000000913400001055432AG    XGXGY   005400370024
BI00B32AG    XG22032LMW     202202047289-4696-30             HOUSING FEMALE ASS'Y     CCN000012000000012000FN00000000020220301000012000NNM   20211202121955    4N0N  00000200000000913400001055432AG    XGXGY   005400370024
BI00B32AG    XG22033LMW     202202117289-4696-30             HOUSING FEMALE ASS'Y     CCN000012000000012000FN00000000020220301000012000NNM   20211202121955    4N0N  00000200000000913400001055432AG    XGXGY   005400370024
BI00B32AG    XG22034LMW     202202187289-4696-30             HOUSING FEMALE ASS'Y     CCN000016000000016000FN00000000020220301000016000NNM   20211202121955    4N0N  00000200000000913400001055432AG    XGXGY   005400370024
BI00B32AG    XG22035LMW     202202257289-4696-30             HOUSING FEMALE ASS'Y     CCN000010000000010000FN00000000020220301000010000NNM   20211202121955    4N0N  00000200000000913400001055432AG    XGXGY   005400370024
BI00B32AG    XG22031LMW     202201287289-7615-30             HOUSING FEMALE ASS'Y     CCN000003200000003200FN00000000020220301000003200NNM   20211202121955    4N0N  00000032000000738000000948032AG    XGXGY   005400370024
BI00B32AG    XG22032LMW     202202047289-7615-30             HOUSING FEMALE ASS'Y     CCN000002880000002880FN00000000020220301000002880NNM   20211202121955    4N0N  00000032000000738000000948032AG    XGXGY   005400370024
BI00B32AG    XG22033LMW     202202117289-7615-30             HOUSING FEMALE ASS'Y     CCN000002880000002880FN00000000020220301000002880NNM   20211202121955    4N0N  00000032000000738000000948032AG    XGXGY   005400370024
BI00B32AG    XG22034LMW     202202187289-7615-30             HOUSING FEMALE ASS'Y     CCN000003840000003840FN00000000020220301000003840NNM   20211202121955    4N0N  00000032000000738000000948032AG    XGXGY   005400370024
BI00B32AG    XG22035LMW     202202257289-7615-30             HOUSING FEMALE ASS'Y     CCN000002560000002560FN00000000020220301000002560NNM   20211202121955    4N0N  00000032000000738000000948032AG    XGXGY   005400370024
BI00B32AG    XG22032LMW     202202047388-0314                CONNECTOR ASS'Y          CCN000000750000001200FN00000000020220301000001200NNM   20211202121955    4N0N  00000120000001038000001132332AG    XGXGY   005400370024
BI00B32AG    XG22033LMW     202202117388-0314                CONNECTOR ASS'Y          CCN000000750000001200FN00000000020220301000001200NNM   20211202121955    4N0N  00000120000001038000001132332AG    XGXGY   005400370024
BI00B32AG    XG22034LMW     202202187388-0314                CONNECTOR ASS'Y          CCN000000750000001200FN00000000020220301000001200NNM   20211202121955    4N0N  00000120000001038000001132332AG    XGXGY   005400370024
BI00B32AG    XG22035LMW     202202257388-0314                CONNECTOR ASS'Y          CCN000001500000002400FN00000000020220301000002400NNM   20211202121955    4N0N  00000120000001038000001132332AG    XGXGY   005400370024
BI00B32AG    #XG22033LMW    202202117158-3003-90             RUBBER STOPPER           CCN000040000000040000FN00000000020220301000040000NNM   20211202121955    2C0C  00002000000000250000000306032AG    XGXGY   002700430014
BI00B32AG    #XG22034LMW    202202187158-3003-90             RUBBER STOPPER           CCN000080000000080000FN00000000020220301000080000NNM   20211202121955    2C0C  00002000000000250000000306032AG    XGXGY   002700430014
BI00B32AG    #XG22035LMW    202202257158-3003-90             RUBBER STOPPER           CCN000040000000040000FN00000000020220301000040000NNM   20211202121955    2C0C  00002000000000250000000306032AG    XGXGY   002700430014
BI00B32AG    #XG22034LMW    202202187158-3007-10             RUBBER STOPPER           CCN000020000000020000FN00000000020220301000020000NNM   20211202121955    2H0H  00002000000000308000000362732AG    XGXGY   002700430014
BI00B32AG    #XG22032LMW    202202047158-3008-80             RUBBER STOPPER           CCN000020000000020000FN00000000020220301000020000NNM   20211202121955    2C0C  00002000000000288000000343032AG    XGXGY   004300270014
BI00B32AG    #XG22031LMW    202201287158-3120-90             CONNECTOR WIRE SEAL      CCN000040000000040000FN00000000020220301000040000NNM   20211202121955    2C0C  00002000000000136000000194032AG    XGXGY   002700430014
BI00B32AG    #XG22032LMW    202202047158-3120-90             CONNECTOR WIRE SEAL      CCN000060000000060000FN00000000020220301000060000NNM   20211202121955    2C0C  00002000000000136000000194032AG    XGXGY   002700430014
BI00B32AG    #XG22033LMW    202202117158-3120-90             CONNECTOR WIRE SEAL      CCN000040000000040000FN00000000020220301000040000NNM   20211202121955    2C0C  00002000000000136000000194032AG    XGXGY   002700430014
BI00B32AG    #XG22034LMW    202202187158-3120-90             CONNECTOR WIRE SEAL      CCN000060000000060000FN00000000020220301000060000NNM   20211202121955    2C0C  00002000000000136000000194032AG    XGXGY   002700430014
BI00B32AG    #XG22035LMW    202202257158-3120-90             CONNECTOR WIRE SEAL      CCN000040000000040000FN00000000020220301000040000NNM   20211202121955    2C0C  00002000000000136000000194032AG    XGXGY   002700430014
BI00B32AG    #XG22031LMW    202201287158-3121-80             WIRE SEAL                CCN000040000000040000FN00000000020220301000040000NNM   20211202121955    2C0C  00002000000000118000000187332AG    XGXGY   002700430014
BI00B32AG    #XG22032LMW    202202047158-3121-80             WIRE SEAL                CCN000040000000040000FN00000000020220301000040000NNM   20211202121955    2C0C  00002000000000118000000187332AG    XGXGY   002700430014
BI00B32AG    #XG22033LMW    202202117158-3121-80             WIRE SEAL                CCN000020000000020000FN00000000020220301000020000NNM   20211202121955    2C0C  00002000000000118000000187332AG    XGXGY   002700430014
BI00B32AG    #XG22034LMW    202202187158-3121-80             WIRE SEAL                CCN000040000000040000FN00000000020220301000040000NNM   20211202121955    2C0C  00002000000000118000000187332AG    XGXGY   002700430014
BI00B32AG    #XG22035LMW    202202257158-3121-80             WIRE SEAL                CCN000040000000040000FN00000000020220301000040000NNM   20211202121955    2C0C  00002000000000118000000187332AG    XGXGY   002700430014
BI00B32AG    #XG22033LMW    202202117158-3654-80             WIRE TUBE                CCN000080000000080000FN00000000020220301000080000NNM   20211202121955    2H0H  00004000000000104000000152232AG    XGXGY   004300270014
BI00B32AG    #XG22034LMW    202202187158-3654-80             WIRE TUBE                CCN000160000000160000FN00000000020220301000160000NNM   20211202121955    2H0H  00004000000000104000000152232AG    XGXGY   004300270014
BI00B32AG    #XG22035LMW    202202257158-3654-80             WIRE TUBE                CCN000080000000080000FN00000000020220301000080000NNM   20211202121955    2H0H  00004000000000104000000152232AG    XGXGY   004300270014
BI00B32AG    #XG22031LMW    202201287182-9631-40             JOINT CONNECTOR          CCN000003000000003000FN00000000020220301000003000NNM   20211202121955    2F0F  00000300000001182000001307432AG    XGXGY   005400370024
BI00B32AG    #XG22032LMW    202202047182-9631-40             JOINT CONNECTOR          CCN000003000000003000FN00000000020220301000003000NNM   20211202121955    2F0F  00000300000001182000001307432AG    XGXGY   005400370024
BI00B32AG    #XG22033LMW    202202117182-9631-40             JOINT CONNECTOR          CCN000003000000003000FN00000000020220301000003000NNM   20211202121955    2F0F  00000300000001182000001307432AG    XGXGY   005400370024
BI00B32AG    #XG22034LMW    202202187182-9631-40             JOINT CONNECTOR          CCN000006000000006000FN00000000020220301000006000NNM   20211202121955    2F0F  00000300000001182000001307432AG    XGXGY   005400370024
BI00B32AG    #XG22035LMW    202202257182-9631-40             JOINT CONNECTOR          CCN000003000000003000FN00000000020220301000003000NNM   20211202121955    2F0F  00000300000001182000001307432AG    XGXGY   005400370024
BI00B32AG    #XG22034LMW    202202187182-9633-40             JOINT CONNECTOR          CCN000006000000006000FN00000000020220301000006000NNM   20211202121955    2F0F  00000300000001335000001460532AG    XGXGY   005400370024
BI00B32AG    #XG22035LMW    202202257182-9633-40             JOINT CONNECTOR          CCN000009000000009000FN00000000020220301000009000NNM   20211202121955    2F0F  00000300000001335000001460532AG    XGXGY   005400370024
BI00B32AG    XG22032NMW     202202047116-4120-02             TERMINAL                 CCN000012000000012000FN00000000020220301000012000NNM   20211202121955    4P0P  00000600000000780000001073632AG    XGXGY   006400630015
BI00B32AG    XG22033NMW     202202117116-4120-02             TERMINAL                 CCN000006000000006000FN00000000020220301000006000NNM   20211202121955    4P0P  00000600000000780000001073632AG    XGXGY   006400630015
BI00B32AG    XG22034NMW     202202187116-4120-02             TERMINAL                 CCN000012000000012000FN00000000020220301000012000NNM   20211202121955    4P0P  00000600000000780000001073632AG    XGXGY   006400630015
BI00B32AG    XG22035NMW     202202257116-4120-02             TERMINAL                 CCN000012000000012000FN00000000020220301000012000NNM   20211202121955    4P0P  00000600000000780000001073632AG    XGXGY   006400630015
BI00B32AG    XG22031NMW     202201287116-4121-02             TERMINAL                 CCN000004500000004500FN00000000020220301000004500NNM   20211202121955    4P0P  00000450000000618800000912432AG    XGXGY   006400630015
BI00B32AG    XG22032NMW     202202047116-4121-02             TERMINAL                 CCN000045000000045000FN00000000020220301000045000NNM   20211202121955    4P0P  00000450000000618800000912432AG    XGXGY   006400630015
BI00B32AG    XG22033NMW     202202117116-4121-02             TERMINAL                 CCN000045000000045000FN00000000020220301000045000NNM   20211202121955    4P0P  00000450000000618800000912432AG    XGXGY   006400630015
BI00B32AG    XG22034NMW     202202187116-4121-02             TERMINAL                 CCN000054000000054000FN00000000020220301000054000NNM   20211202121955    4P0P  00000450000000618800000912432AG    XGXGY   006400630015
BI00B32AG    XG22035NMW     202202257116-4121-02             TERMINAL                 CCN000040500000040500FN00000000020220301000040500NNM   20211202121955    4P0P  00000450000000618800000912432AG    XGXGY   006400630015
BI00B32AG    XG22032NMW     202202047116-4122-02             TERMINAL                 CCN000004500000004500FN00000000020220301000004500NNM   20211202121955    4P0P  00000450000000656600000950232AG    XGXGY   006400630015
BI00B32AG    XG22033NMW     202202117116-4122-02             TERMINAL                 CCN000004500000004500FN00000000020220301000004500NNM   20211202121955    4P0P  00000450000000656600000950232AG    XGXGY   006400630015
BI00B32AG    XG22034NMW     202202187116-4122-02             TERMINAL                 CCN000009000000009000FN00000000020220301000009000NNM   20211202121955    4P0P  00000450000000656600000950232AG    XGXGY   006400630015
BI00B32AG    XG22035NMW     202202257116-4122-02             TERMINAL                 CCN000004500000004500FN00000000020220301000004500NNM   20211202121955    4P0P  00000450000000656600000950232AG    XGXGY   006400630015
BI00B32AG    XG22032NMW     202202047116-4415-02             TERMINAL                 CCN000152000000152000FN00000000020220301000152000NNM   20211202121955    4P0P  00003800000000596600000925732AG    XGXGY   006400630017
BI00B32AG    XG22033NMW     202202117116-4415-02             TERMINAL                 CCN000342000000342000FN00000000020220301000342000NNM   20211202121955    4P0P  00003800000000596600000925732AG    XGXGY   006400630017
BI00B32AG    XG22034NMW     202202187116-4415-02             TERMINAL                 CCN000418000000418000FN00000000020220301000418000NNM   20211202121955    4P0P  00003800000000596600000925732AG    XGXGY   006400630017
BI00B32AG    XG22035NMW     202202257116-4415-02             TERMINAL                 CCN000380000000380000FN00000000020220301000380000NNM   20211202121955    4P0P  00003800000000596600000925732AG    XGXGY   006400630017
BI00B32AG    XG22031NMW     202201287126-8853-02             TERMINAL                 CCN000060000000060000FN00000000020220301000060000NNM   20211202121955    4P0P  00000750000000562500000847732AG    XGXGY   006400630015
BI00B32AG    XG22032NMW     202202047126-8853-02             TERMINAL                 CCN000037500000037500FN00000000020220301000037500NNM   20211202121955    4P0P  00000750000000562500000847732AG    XGXGY   006400630015
BI00B32AG    XG22033NMW     202202117126-8853-02             TERMINAL                 CCN000037500000037500FN00000000020220301000037500NNM   20211202121955    4P0P  00000750000000562500000847732AG    XGXGY   006400630015
BI00B32AG    XG22034NMW     202202187126-8853-02             TERMINAL                 CCN000045000000045000FN00000000020220301000045000NNM   20211202121955    4P0P  00000750000000562500000847732AG    XGXGY   006400630015
BI00B32AG    XG22035NMW     202202257126-8853-02             TERMINAL                 CCN000030000000030000FN00000000020220301000030000NNM   20211202121955    4P0P  00000750000000562500000847732AG    XGXGY   006400630015
BI00B32AG    XG22031NMW     202201287126-8854-02             TERMINAL                 CCN000007500000007500FN00000000020220301000007500NNM   20211202121955    4P0P  00000750000000604500000889732AG    XGXGY   006400630015
BI00B32AG    XG22032NMW     202202047126-8854-02             TERMINAL                 CCN000007500000007500FN00000000020220301000007500NNM   20211202121955    4P0P  00000750000000604500000889732AG    XGXGY   006400630015
BI00B32AG    XG22033NMW     202202117126-8854-02             TERMINAL                 CCN000007500000007500FN00000000020220301000007500NNM   20211202121955    4P0P  00000750000000604500000889732AG    XGXGY   006400630015
BI00B32AG    XG22034NMW     202202187126-8854-02             TERMINAL                 CCN000007500000007500FN00000000020220301000007500NNM   20211202121955    4P0P  00000750000000604500000889732AG    XGXGY   006400630015
BI00B32AG    XG22031NMW     202201287126-8855-02             TERMINAL                 CCN000006000000006000FN00000000020220301000006000NNM   20211202121955    4P0P  00000600000000510600000795832AG    XGXGY   006400630015
BI00B32AG    XG22032NMW     202202047126-8855-02             TERMINAL                 CCN000012000000012000FN00000000020220301000012000NNM   20211202121955    4P0P  00000600000000510600000795832AG    XGXGY   006400630015
BI00B32AG    XG22033NMW     202202117126-8855-02             TERMINAL                 CCN000018000000018000FN00000000020220301000018000NNM   20211202121955    4P0P  00000600000000510600000795832AG    XGXGY   006400630015
BI00B32AG    XG22034NMW     202202187126-8855-02             TERMINAL                 CCN000012000000012000FN00000000020220301000012000NNM   20211202121955    4P0P  00000600000000510600000795832AG    XGXGY   006400630015
BI00B32AG    XG22035NMW     202202257126-8855-02             TERMINAL                 CCN000012000000012000FN00000000020220301000012000NNM   20211202121955    4P0P  00000600000000510600000795832AG    XGXGY   006400630015
BI00B32AG    XG22031NMW     202201287158-3165-90             WIRE SEAL                CCN000080000000080000FN00000000020220301000080000NNM   20211202121955    1C0C  00004000000000124000000172432AG    XGXGY   004300270014
BI00B32AG    XG22032NMW     202202047158-3165-90             WIRE SEAL                CCN000160000000160000FN00000000020220301000160000NNM   20211202121955    1C0C  00004000000000124000000172432AG    XGXGY   004300270014
BI00B32AG    XG22033NMW     202202117158-3165-90             WIRE SEAL                CCN000120000000120000FN00000000020220301000120000NNM   20211202121955    1C0C  00004000000000124000000172432AG    XGXGY   004300270014
BI00B32AG    XG22034NMW     202202187158-3165-90             WIRE SEAL                CCN000200000000200000FN00000000020220301000200000NNM   20211202121955    1C0C  00004000000000124000000172432AG    XGXGY   004300270014
BI00B32AG    XG22035NMW     202202257158-3165-90             WIRE SEAL                CCN000120000000120000FN00000000020220301000120000NNM   20211202121955    1C0C  00004000000000124000000172432AG    XGXGY   004300270014
BI00B32AG    XG22033NMW     202202117158-3166-60             WIRE SEAL                CCN000160000000160000FN00000000020220301000160000NNM   20211202121955    1C0C  00004000000000104000000152432AG    XGXGY   002700430014
BI00B32AG    XG22034NMW     202202187158-3166-60             WIRE SEAL                CCN000600000000600000FN00000000020220301000600000NNM   20211202121955    1C0C  00004000000000104000000152432AG    XGXGY   002700430014
BI00B32AG    XG22035NMW     202202257158-3166-60             WIRE SEAL                CCN000440000000440000FN00000000020220301000440000NNM   20211202121955    1C0C  00004000000000104000000152432AG    XGXGY   002700430014
BI00B32AG    XG22031NMW     202201287158-3167-80             WIRE SEAL                CCN000080000000080000FN00000000020220301000080000NNM   20211202121955    1C0C  00002000000000048000000109032AG    XGXGY   002700430014
BI00B32AG    XG22032NMW     202202047158-3167-80             WIRE SEAL                CCN000220000000220000FN00000000020220301000220000NNM   20211202121955    1C0C  00002000000000048000000109032AG    XGXGY   002700430014
BI00B32AG    XG22033NMW     202202117158-3167-80             WIRE SEAL                CCN000200000000200000FN00000000020220301000200000NNM   20211202121955    1C0C  00002000000000048000000109032AG    XGXGY   002700430014
BI00B32AG    XG22034NMW     202202187158-3167-80             WIRE SEAL                CCN000240000000240000FN00000000020220301000240000NNM   20211202121955    1C0C  00002000000000048000000109032AG    XGXGY   002700430014
BI00B32AG    XG22035NMW     202202257158-3167-80             WIRE SEAL                CCN000180000000180000FN00000000020220301000180000NNM   20211202121955    1C0C  00002000000000048000000109032AG    XGXGY   002700430014
BI00B32AG    XG22032NMW     202202047158-3168-80             SEALED                   CCN000040000000040000FN00000000020220301000040000NNM   20211202121955    1C0C  00002000000000044000000092132AG    XGXGY   004300260014
BI00B32AG    XG22033NMW     202202117158-3168-80             SEALED                   CCN000040000000040000FN00000000020220301000040000NNM   20211202121955    1C0C  00002000000000044000000092132AG    XGXGY   004300260014
BI00B32AG    XG22034NMW     202202187158-3168-80             SEALED                   CCN000020000000020000FN00000000020220301000020000NNM   20211202121955    1C0C  00002000000000044000000092132AG    XGXGY   004300260014
BI00B32AG    XG22035NMW     202202257158-3168-80             SEALED                   CCN000040000000040000FN00000000020220301000040000NNM   20211202121955    1C0C  00002000000000044000000092132AG    XGXGY   004300260014
BI00B32AG    #XG22032NMW    202202047123-6423-30             CONNECTOR                CCN000004000000004000FN00000000020220301000004000NNM   20211202121955    2F0F  00000200000001002000001167632AG    XGXGY   005600390023
BI00B32AG    #XG22033NMW    202202117123-6423-30             CONNECTOR                CCN000004000000004000FN00000000020220301000004000NNM   20211202121955    2F0F  00000200000001002000001167632AG    XGXGY   005600390023
BI00B32AG    #XG22034NMW    202202187123-6423-30             CONNECTOR                CCN000006000000006000FN00000000020220301000006000NNM   20211202121955    2F0F  00000200000001002000001167632AG    XGXGY   005600390023
BI00B32AG    #XG22035NMW    202202257123-6423-30             CONNECTOR                CCN000004000000004000FN00000000020220301000004000NNM   20211202121955    2F0F  00000200000001002000001167632AG    XGXGY   005600390023
BI00B32AG    XG22031QMW     202201287195-1463-02             TERMINAL MALE            CCN000028500000028500FN00000000020220301000028500NNM   20211202121955    4P0P  00002850000000456000000741232AG    XGXGY   006400630015
BI00B32AG    XG22031QMW     202201287196-1460-02             TERMINAL FEMALE          CCN000028500000028500FN00000000020220301000028500NNM   20211202121955    4P0P  00002850000000444600000729832AG    XGXGY   006400630015
BI00B32AG    XG22032QMW     202202047196-1460-02             TERMINAL FEMALE          CCN000085500000085500FN00000000020220301000085500NNM   20211202121955    4P0P  00002850000000444600000729832AG    XGXGY   006400630015
BI00B32AG    XG22033QMW     202202117196-1460-02             TERMINAL FEMALE          CCN000114000000114000FN00000000020220301000114000NNM   20211202121955    4P0P  00002850000000444600000729832AG    XGXGY   006400630015
BI00B32AG    XG22034QMW     202202187196-1460-02             TERMINAL FEMALE          CCN000085500000085500FN00000000020220301000085500NNM   20211202121955    4P0P  00002850000000444600000729832AG    XGXGY   006400630015
BI00B32AG    XG22035QMW     202202257196-1460-02             TERMINAL FEMALE          CCN000085500000085500FN00000000020220301000085500NNM   20211202121955    4P0P  00002850000000444600000729832AG    XGXGY   006400630015
BI00B32AG    #XG22034QMW    202202187297-1907-30             HOUSING MALE ASS'Y       CCN000001500000001500FN00000000020220301000001500NNM   20211202121955    2N0N  00000150000000451800000568032AG    XGXGY   005400370024
BI00B32DE    TCT111A        202112097283-4855-40             CONNECTOR HOUSING        CCN000028800000014400FN00000000020211101000014400NNEQ0820211202121955    4N0N  00000240000001188400001400032DE    TVYEV-TV005600360039
BI00B32DE    TCT112C        202201137283-6120                CONNECTOR HOUSING        CCN000001500000001500FN00000000020220101000001500NNED0220211202200400    1N0N  00000150000000914000001143032DE    TVYEV-TV005600390040
BI00A32DE    TCT111A        202112037283-4855-40             CONNECTOR HOUSING        CCN000007200000004800FN00000000020211101000004800NNE00020211202121955    4N0N  00000240000001188400001400032DE    TVYEV-TV005600360039
BI00A32DJ    GHT2201D       202112037116-1180                TERMINAL                 CCN000100000000117000FN00000000020220101000117000NNE   20211202153437    1P0P  00001950000000618200000903432DJ    RBYIPLRB006400630015
BI00B32D1    DFTC2209       202201207289-6547                HOUSING FEMALE ASS'Y     CCN000007200000007200FN00000000020220301000007200NNMD0420211202200429    1N0N  00000240000001152000001362032D1    TOYOT-K 005500360039
BI00B32EJ    4500184120     202112237114-4112-02             TERMINAL                 CCN000009000000000000FY00000000020211201000000000NNEQ0820211202111838EJ  4P0P  00000900000000598500000927132EJ    EJYKBO  006400630017
BI00B32EJ    4500184120     202112237114-4100-02             TERMINAL                 CCN000018000000000000FY00000000020211201000000000NNEQ0820211202111818EJ  4P0P  00001800000000748800001077432EJ    EJYKBO  006400630017
BI00B32EJ    4500184120     202112237116-4111-02             TERMINAL                 CCN000007500000000000FY00000000020211201000000000NNEQ0820211202111901EJ  4P0P  00000750000000529500000817732EJ    EJYKBO  006400630015
BI00B32EJ    4500184777     202201137283-1020                CONNECTOR                CCN000012000000012000FN00000000020220101000012000NNED0420211202121955EJ  4N0N  00000600000000840000001049332EJ    EJYKBO  005600390040
BI00B32EJ    4500184778     202201207283-1020                CONNECTOR                CCN000030000000030000FN00000000020220101000030000NNED0420211202121955EJ  4N0N  00000600000000840000001049332EJ    EJYKBO  005600390040
BI00B32EJ    4500185087     202201207114-4100-02             TERMINAL                 CCN000090000000090000FN00000000020220101000090000NNE   20211202121955EJ  4P0P  00001800000000748800001077432EJ    EJYKBO  006400630017
BI00B32EJ    #4500185088    202201067282-3020                CONNECTOR                CCN000001000000001000FN00000000020220101000001000NNE   20211202121955EJ  2N0N  00000100000000984000001145432EJ    EJYKBO  005500360039
BI00B32G2    #SA2201AHMW    202112227035-0023-30             DASH GROMMET             CCN000000360000000360FN00000000020220101000000360NNE   20211202121955    2H0H  00000006000000438000000561032G2    AISUAI  005600390040
BI00B32G2    SA22021HMW     202201057B72-5540-80             SEALED WIRE SEAL         CCN000020000000020000FN00000000020220201000020000NNM   20211202121955    1C0C  00002000000000186000000234432G2    AISUAI  004300270014
BI00B32G2    SA22021HMW     202201057172-5540-80             SEALED WIRE SEAL         CCN000020000000020000FN00000000020220201000020000NNM   20211202121955    1C0C  00002000000000186000000234432G2    AISUAI  004300270014
BI00B32G2    SA22021HMW     202201057183-8256-40             HOUSING                  CCN000003600000003600FN00000000020220201000003600NNM   20211202121955    1F0F  00000120000000937000001045732G2    AISUAI  005500360039
BI00B32G2    SA22022HMW     202201127183-8256-40             HOUSING                  CCN000002400000002400FN00000000020220201000002400NNM   20211202121955    1F0F  00000120000000937000001045732G2    AISUAI  005500360039
BI00B32G2    SA22023HMW     202201197183-8256-40             HOUSING                  CCN000001200000001200FN00000000020220201000001200NNM   20211202121955    1F0F  00000120000000937000001045732G2    AISUAI  005500360039
BI00B32G2    SA22024HMW     202201267183-8256-40             HOUSING                  CCN000001200000001200FN00000000020220201000001200NNM   20211202121955    1F0F  00000120000000937000001045732G2    AISUAI  005500360039
BI00B32G2    SA22021HMW     202201057183-8257-40             HOUSING                  CCN000003600000003600FN00000000020220201000003600NNM   20211202121955    1F0F  00000120000001028000001117032G2    AISUAI  005500360039
BI00B32G2    SA22022HMW     202201127183-8257-40             HOUSING                  CCN000002400000002400FN00000000020220201000002400NNM   20211202121955    1F0F  00000120000001028000001117032G2    AISUAI  005500360039
BI00B32G2    SA22023HMW     202201197183-8257-40             HOUSING                  CCN000001200000001200FN00000000020220201000001200NNM   20211202121955    1F0F  00000120000001028000001117032G2    AISUAI  005500360039
BI00B32G2    SA22024HMW     202201267183-8257-40             HOUSING                  CCN000001200000001200FN00000000020220201000001200NNM   20211202121955    1F0F  00000120000001028000001117032G2    AISUAI  005500360039
BI00B32G2    SA22021HMW     202201057196-0805-02             TERMINAL FEMALE          CCN000022500000022500FN00000000020220201000022500NNM   20211202121955    4P0P  00002250000000558000000843232G2    AISUAI  006400630015
BI00B32G2    SA22021HMW     202201057283-4854-40             CONNECTOR HOUSING        CCN000004800000004800FN00000000020220201000004800NNM   20211202121955    4N0N  00000240000000694100000914132G2    AISUAI  005500360039
BI00B32G2    SA22022HMW     202201127283-4854-40             CONNECTOR HOUSING        CCN000004800000004800FN00000000020220201000004800NNM   20211202121955    4N0N  00000240000000694100000914132G2    AISUAI  005500360039
BI00B32G2    SA22023HMW     202201197283-4854-40             CONNECTOR HOUSING        CCN000002400000002400FN00000000020220201000002400NNM   20211202121955    4N0N  00000240000000694100000914132G2    AISUAI  005500360039
BI00B32G2    SA22024HMW     202201267283-4854-40             CONNECTOR HOUSING        CCN000002400000002400FN00000000020220201000002400NNM   20211202121955    4N0N  00000240000000694100000914132G2    AISUAI  005500360039
BI00B32G2    SA22021HMW     202201057388-0313-30             CONNECTOR ASS'Y          CCN000001200000001200FN00000000020220201000001200NNM   20211202121955    4N0N  00000120000000995000001125032G2    AISUAI  005400370024
BI00B32G2    #SA22021HMW    202201057035-0023-30             DASH GROMMET             CCN000003180000003180FN00000000020220201000003180NNM   20211202121955    2H0H  00000006000000438000000561032G2    AISUAI  005600390040
BI00B32G2    #SA22022HMW    202201127035-0023-30             DASH GROMMET             CCN000002400000002400FN00000000020220201000002400NNM   20211202121955    2H0H  00000006000000438000000561032G2    AISUAI  005600390040
BI00B32G2    #SA22023HMW    202201197035-0023-30             DASH GROMMET             CCN000001800000001800FN00000000020220201000001800NNM   20211202121955    2H0H  00000006000000438000000561032G2    AISUAI  005600390040
BI00B32G2    #SA22024HMW    202201267035-0023-30             DASH GROMMET             CCN000001200000001200FN00000000020220201000001200NNM   20211202121955    2H0H  00000006000000438000000561032G2    AISUAI  005600390040
BI00B32G2    #SA22021HMW    202201057035-7982-30             DASH GROMMET             CCN000002280000002280FN00000000020220201000002280NNM   20211202121955    2H0H  00000012000001056000001179032G2    AISUAI  005600390040
BI00B32G2    #SA22022HMW    202201127035-7982-30             DASH GROMMET             CCN000001680000001680FN00000000020220201000001680NNM   20211202121955    2H0H  00000012000001056000001179032G2    AISUAI  005600390040
BI00B32G2    #SA22023HMW    202201197035-7982-30             DASH GROMMET             CCN000001200000001200FN00000000020220201000001200NNM   20211202121955    2H0H  00000012000001056000001179032G2    AISUAI  005600390040
BI00B32G2    #SA22024HMW    202201267035-7982-30             DASH GROMMET             CCN000000840000000840FN00000000020220201000000840NNM   20211202121955    2H0H  00000012000001056000001179032G2    AISUAI  005600390040
BI00B32G2    #SA22021HMW    202201057183-2415-30             CONNECTOR HOUSING        CCN000004800000004800FN00000000020220201000004800NNM   20211202121955    2F0F  00000480000000798200001091432G2    AISUAI  005500360039
BI00B32G2    #SA22021HMW    202201057183-8251-40             HOUSING                  CCN000002400000002400FN00000000020220201000002400NNM   20211202121955    2F0F  00000240000000357600000640032G2    AISUAI  005500360039
BI00B32G2    #SA22022HMW    202201127183-8251-40             HOUSING                  CCN000002400000002400FN00000000020220201000002400NNM   20211202121955    2F0F  00000240000000357600000640032G2    AISUAI  005500360039
BI00B32G2    #SA22021HMW    202201057183-8254-40             HOUSING                  CCN000002400000002400FN00000000020220201000002400NNM   20211202121955    2F0F  00000240000000776000001076332G2    AISUAI  005500360039
BI00B32G2    #SA22021HMW    202201057189-3036-30             HOUSING FEMALE           CCN000001600000001600FN00000000020220201000001600NNM   20211202121955    2F0F  00000160000000920000001140032G2    AISUAI  005500360039
BI00B32G2    #SA22021HMW    202201057189-3036-40             HOUSING FEMALE           CCN000004800000004800FN00000000020220201000004800NNM   20211202121955    2F0F  00000160000000923200001143232G2    AISUAI  005500360039
BI00B32G2    #SA22022HMW    202201127189-3036-40             HOUSING FEMALE           CCN000003200000003200FN00000000020220201000003200NNM   20211202121955    2F0F  00000160000000923200001143232G2    AISUAI  005500360039
BI00B32G2    #SA22023HMW    202201197189-3036-40             HOUSING FEMALE           CCN000003200000003200FN00000000020220201000003200NNM   20211202121955    2F0F  00000160000000923200001143232G2    AISUAI  005500360039
BI00B32G2    #SA22024HMW    202201267189-3036-40             HOUSING FEMALE           CCN000001600000001600FN00000000020220201000001600NNM   20211202121955    2F0F  00000160000000923200001143232G2    AISUAI  005500360039
BI00B32G2    #SA22021HMW    202201057282-5528-70             HOUSING MALE ASS'Y       CCN000005000000005000FN00000000020220201000005000NNM   20211202121955    2N0N  00000100000000230000000339032G2    AISUAI  005400370024
BI00B32G2    #SA22022HMW    202201127282-5528-70             HOUSING MALE ASS'Y       CCN000004000000004000FN00000000020220201000004000NNM   20211202121955    2N0N  00000100000000230000000339032G2    AISUAI  005400370024
BI00B32G2    #SA22023HMW    202201197282-5528-70             HOUSING MALE ASS'Y       CCN000003000000003000FN00000000020220201000003000NNM   20211202121955    2N0N  00000100000000230000000339032G2    AISUAI  005400370024
BI00B32G2    #SA22024HMW    202201267282-5528-70             HOUSING MALE ASS'Y       CCN000002000000002000FN00000000020220201000002000NNM   20211202121955    2N0N  00000100000000230000000339032G2    AISUAI  005400370024
BI00B32G2    SA22021JMW     202201057114-5096-08             TERMINAL                 CCN000030000000030000FN00000000020220201000030000NNM   20211202121955    4P0P  00003000000000498000000792232G2    AISUAI  006400630015
BI00B32G2    SA22021JMW     202201057116-3153-08             TERMINAL                 CCN000027000000027000FN00000000020220201000027000NNM   20211202121955    4P0P  00002700000000461700000746932G2    AISUAI  006400630015
BI00B32G2    SA22022JMW     202201127116-3153-08             TERMINAL                 CCN000027000000027000FN00000000020220201000027000NNM   20211202121955    4P0P  00002700000000461700000746932G2    AISUAI  006400630015
BI00B32G2    SA22021JMW     202201057116-5035-02             TERMINAL                 CCN000015000000015000FN00000000020220201000015000NNM   20211202121955    4P0P  00001500000000543000000828232G2    AISUAI  006400630015
BI00B32G2    SA22022JMW     202201127116-5035-02             TERMINAL                 CCN000015000000015000FN00000000020220201000015000NNM   20211202121955    4P0P  00001500000000543000000828232G2    AISUAI  006400630015
BI00B32G2    SA22023JMW     202201197116-5035-02             TERMINAL                 CCN000015000000015000FN00000000020220201000015000NNM   20211202121955    4P0P  00001500000000543000000828232G2    AISUAI  006400630015
BI00B32G2    SA22024JMW     202201267116-5035-02             TERMINAL                 CCN000015000000015000FN00000000020220201000015000NNM   20211202121955    4P0P  00001500000000543000000828232G2    AISUAI  006400630015
BI00B32G2    SA22021JMW     202201057196-0510-02             TERMINAL                 CCN000048000000048000FN00000000020220201000048000NNM   20211202121955    4P0P  00002400000000871200001034632G2    AISUAI  002800510028
BI00B32G2    SA22022JMW     202201127196-0510-02             TERMINAL                 CCN000048000000048000FN00000000020220201000048000NNM   20211202121955    4P0P  00002400000000871200001034632G2    AISUAI  002800510028
BI00B32G2    SA22023JMW     202201197196-0510-02             TERMINAL                 CCN000048000000048000FN00000000020220201000048000NNM   20211202121955    4P0P  00002400000000871200001034632G2    AISUAI  002800510028
BI00B32G2    SA22024JMW     202201267196-0510-02             TERMINAL                 CCN000024000000024000FN00000000020220201000024000NNM   20211202121955    4P0P  00002400000000871200001034632G2    AISUAI  002800510028
BI00B32G2    SA22021JMW     202201057196-0512-02             TERMINAL                 CCN000021000000021000FN00000000020220201000021000NNM   20211202121955    4P0P  00002100000000871500001034932G2    AISUAI  002800510028
BI00B32G2    SA22021JMW     202201057222-7564-30             CONNECTOR                CCN000000500000000500FN00000000020220201000000500NNM   20211202121955    1N0N  00000050000000966500001125032G2    AISUAI  005500360039
BI00B32G2    SA22021JMW     202201057282-4576                HOUSING MALE ASS'Y       CCN000002400000002400FN00000000020220201000002400NNM   20211202121955    4N0N  00000240000000808800001028832G2    AISUAI  005500360039
BI00B32G2    SA22022JMW     202201127282-4576                HOUSING MALE ASS'Y       CCN000002400000002400FN00000000020220201000002400NNM   20211202121955    4N0N  00000240000000808800001028832G2    AISUAI  005500360039
BI00B32G2    SA22023JMW     202201197282-4576                HOUSING MALE ASS'Y       CCN000002400000002400FN00000000020220201000002400NNM   20211202121955    4N0N  00000240000000808800001028832G2    AISUAI  005500360039
BI00B32G2    SA22021JMW     202201057282-9391                HOUSING MALE ASS'Y       CCN000008400000008400FN00000000020220201000008400NNM   20211202121955    4N0N  00000120000001017600001237632G2    AISUAI  005500360039
BI00B32G2    SA22022JMW     202201127282-9391                HOUSING MALE ASS'Y       CCN000007200000007200FN00000000020220201000007200NNM   20211202121955    4N0N  00000120000001017600001237632G2    AISUAI  005500360039
BI00B32G2    SA22023JMW     202201197282-9391                HOUSING MALE ASS'Y       CCN000006000000006000FN00000000020220201000006000NNM   20211202121955    4N0N  00000120000001017600001237632G2    AISUAI  005500360039
BI00B32G2    SA22024JMW     202201267282-9391                HOUSING MALE ASS'Y       CCN000003600000003600FN00000000020220201000003600NNM   20211202121955    4N0N  00000120000001017600001237632G2    AISUAI  005500360039
BI00B32G2    SA22021JMW     202201057283-3013-30             CONNECTOR                CCN000002000000002000FN00000000020220201000002000NNM   20211202121955    4N0N  00000200000001138000001284032G2    AISUAI  005600390040
BI00B32G2    SA22021JMW     202201057283-4578-90             HOUSING FEMALE ASS'Y     CCN000002400000002400FN00000000020220201000002400NNM   20211202121955    4N0N  00000240000000873600001057632G2    AISUAI  005500360039
BI00B32G2    SA22022JMW     202201127283-4578-90             HOUSING FEMALE ASS'Y     CCN000002400000002400FN00000000020220201000002400NNM   20211202121955    4N0N  00000240000000873600001057632G2    AISUAI  005500360039
BI00B32G2    SA22023JMW     202201197283-4578-90             HOUSING FEMALE ASS'Y     CCN000002400000002400FN00000000020220201000002400NNM   20211202121955    4N0N  00000240000000873600001057632G2    AISUAI  005500360039
BI00B32G2    SA22021JMW     202201057286-4097                CONNECTOR MALE ASS'Y     CCN000004800000004800FN00000000020220201000004800NNM   20211202121955    1N0N  00000160000000768000000978032G2    AISUAI  005500360039
BI00B32G2    SA22022JMW     202201127286-4097                CONNECTOR MALE ASS'Y     CCN000003200000003200FN00000000020220201000003200NNM   20211202121955    1N0N  00000160000000768000000978032G2    AISUAI  005500360039
BI00B32G2    SA22023JMW     202201197286-4097                CONNECTOR MALE ASS'Y     CCN000003200000003200FN00000000020220201000003200NNM   20211202121955    1N0N  00000160000000768000000978032G2    AISUAI  005500360039
BI00B32G2    SA22024JMW     202201267286-4097                CONNECTOR MALE ASS'Y     CCN000001600000001600FN00000000020220201000001600NNM   20211202121955    1N0N  00000160000000768000000978032G2    AISUAI  005500360039
BI00B32G2    SA22021JMW     202201057287-2705                HOUSING FEMALE ASS'Y     CCN000019200000019200FN00000000020220201000019200NNM   20211202121955    1N0N  00000960000000614400000834432G2    AISUAI  005500360039
BI00B32G2    SA22022JMW     202201127287-2705                HOUSING FEMALE ASS'Y     CCN000009600000009600FN00000000020220201000009600NNM   20211202121955    1N0N  00000960000000614400000834432G2    AISUAI  005500360039
BI00B32G2    SA22023JMW     202201197287-2705                HOUSING FEMALE ASS'Y     CCN000009600000009600FN00000000020220201000009600NNM   20211202121955    1N0N  00000960000000614400000834432G2    AISUAI  005500360039
BI00B32G2    SA22024JMW     202201267287-2705                HOUSING FEMALE ASS'Y     CCN000009600000009600FN00000000020220201000009600NNM   20211202121955    1N0N  00000960000000614400000834432G2    AISUAI  005500360039
BI00B32G2    SA22021JMW     202201057287-7599-40             HOUSING FEMALE ASS'Y     CCN000001600000001600FN00000000020220201000001600NNM   20211202121955    4N0N  00000160000001233600001445632G2    AISUAI  005500360039
BI00B32G2    SA22021JMW     202201057287-7775-40             HOUSING FEMALE ASS'Y     CCN000002000000002000FN00000000020220201000002000NNM   20211202121955    4N0N  00000100000000508000000620532G2    AISUAI  005400370024
BI00B32G2    SA22022JMW     202201127287-7775-40             HOUSING FEMALE ASS'Y     CCN000002000000002000FN00000000020220201000002000NNM   20211202121955    4N0N  00000100000000508000000620532G2    AISUAI  005400370024
BI00B32G2    SA22023JMW     202201197287-7775-40             HOUSING FEMALE ASS'Y     CCN000002000000002000FN00000000020220201000002000NNM   20211202121955    4N0N  00000100000000508000000620532G2    AISUAI  005400370024
BI00B32G2    SA22024JMW     202201267287-7775-40             HOUSING FEMALE ASS'Y     CCN000001000000001000FN00000000020220201000001000NNM   20211202121955    4N0N  00000100000000508000000620532G2    AISUAI  005400370024
BI00B32G2    SA22021JMW     202201057287-8073                HOUSING FEMALE ASS'Y     CCN000012000000012000FN00000000020220201000012000NNM   20211202121955    1N0N  00000240000001166400001386432G2    AISUAI  005500360039
BI00B32G2    SA22022JMW     202201127287-8073                HOUSING FEMALE ASS'Y     CCN000007200000007200FN00000000020220201000007200NNM   20211202121955    1N0N  00000240000001166400001386432G2    AISUAI  005500360039
BI00B32G2    SA22023JMW     202201197287-8073                HOUSING FEMALE ASS'Y     CCN000007200000007200FN00000000020220201000007200NNM   20211202121955    1N0N  00000240000001166400001386432G2    AISUAI  005500360039
BI00B32G2    SA22024JMW     202201267287-8073                HOUSING FEMALE ASS'Y     CCN000004800000004800FN00000000020220201000004800NNM   20211202121955    1N0N  00000240000001166400001386432G2    AISUAI  005500360039
BI00B32G2    SA22021JMW     202201057287-8999                HOUSING FEMALE ASS'Y     CCN000004800000004800FN00000000020220201000004800NNM   20211202121955    1N0N  00000480000001228800001448832G2    AISUAI  005500360039
BI00B32G2    SA22022JMW     202201127287-8999                HOUSING FEMALE ASS'Y     CCN000004800000004800FN00000000020220201000004800NNM   20211202121955    1N0N  00000480000001228800001448832G2    AISUAI  005500360039
BI00B32G2    SA22023JMW     202201197287-8999                HOUSING FEMALE ASS'Y     CCN000004800000004800FN00000000020220201000004800NNM   20211202121955    1N0N  00000480000001228800001448832G2    AISUAI  005500360039
BI00B32G2    SA22021JMW     202201057287-9000                HOUSING FEMALE ASS'Y     CCN000004800000004800FN00000000020220201000004800NNM   20211202121955    1N0N  00000480000001228800001448832G2    AISUAI  005500360039
BI00B32G2    SA22022JMW     202201127287-9000                HOUSING FEMALE ASS'Y     CCN000004800000004800FN00000000020220201000004800NNM   20211202121955    1N0N  00000480000001228800001448832G2    AISUAI  005500360039
BI00B32G2    SA22021JMW     202201057287-9234                JOINT CONNECTOR          CCN000019200000019200FN00000000020220201000019200NNM   20211202121955    4N0N  00000960000000893800001184832G2    AISUAI  005500360039
BI00B32G2    SA22022JMW     202201127287-9234                JOINT CONNECTOR          CCN000009600000009600FN00000000020220201000009600NNM   20211202121955    4N0N  00000960000000893800001184832G2    AISUAI  005500360039
BI00B32G2    SA22023JMW     202201197287-9234                JOINT CONNECTOR          CCN000009600000009600FN00000000020220201000009600NNM   20211202121955    4N0N  00000960000000893800001184832G2    AISUAI  005500360039
BI00B32G2    SA22024JMW     202201267287-9234                JOINT CONNECTOR          CCN000009600000009600FN00000000020220201000009600NNM   20211202121955    4N0N  00000960000000893800001184832G2    AISUAI  005500360039
BI00B32G2    SA22021JMW     202201057287-9323                UNSEALED HOUSING SUB     CCN000002400000002400FN00000000020220201000002400NNM   20211202121955    1N0N  00000240000000537600000690032G2    AISUAI  005600390023
BI00B32G2    SA22022JMW     202201127287-9323                UNSEALED HOUSING SUB     CCN000002400000002400FN00000000020220201000002400NNM   20211202121955    1N0N  00000240000000537600000690032G2    AISUAI  005600390023
BI00B32G2    SA22023JMW     202201197287-9323                UNSEALED HOUSING SUB     CCN000002400000002400FN00000000020220201000002400NNM   20211202121955    1N0N  00000240000000537600000690032G2    AISUAI  005600390023
BI00B32G2    SA22024JMW     202201267287-9323                UNSEALED HOUSING SUB     CCN000002400000002400FN00000000020220201000002400NNM   20211202121955    1N0N  00000240000000537600000690032G2    AISUAI  005600390023
BI00B32G2    SA22021JMW     202201057287-9323-30             UNSEALED HOUSING SUB     CCN000002400000002400FN00000000020220201000002400NNM   20211202121955    1N0N  00000240000000537600000690032G2    AISUAI  005600390023
BI00B32G2    SA22021JMW     202201057287-9323-40             UNSEALED HOUSING SUB     CCN000002400000002400FN00000000020220201000002400NNM   20211202121955    1N0N  00000240000000537600000690032G2    AISUAI  005600390023
BI00B32G2    SA22021JMW     202201057288-3206                HOUSING MALE ASS'Y       CCN000005100000005100FN00000000020220201000005100NNM   20211202121955    1N0N  00000102000000387600000787632G2    AISUAI  005500360039
BI00B32G2    SA22022JMW     202201127288-3206                HOUSING MALE ASS'Y       CCN000004080000004080FN00000000020220201000004080NNM   20211202121955    1N0N  00000102000000387600000787632G2    AISUAI  005500360039
BI00B32G2    SA22023JMW     202201197288-3206                HOUSING MALE ASS'Y       CCN000003060000003060FN00000000020220201000003060NNM   20211202121955    1N0N  00000102000000387600000787632G2    AISUAI  005500360039
BI00B32G2    SA22024JMW     202201267288-3206                HOUSING MALE ASS'Y       CCN000002040000002040FN00000000020220201000002040NNM   20211202121955    1N0N  00000102000000387600000787632G2    AISUAI  005500360039
BI00B32G2    SA22021JMW     202201057289-3342-90             HOUSING FEMALE ASS'Y     CCN000004800000004800FN00000000020220201000004800NNM   20211202121955    1N0N  00000240000000686400000901432G2    AISUAI  005500360039
BI00B32G2    SA22022JMW     202201127289-3342-90             HOUSING FEMALE ASS'Y     CCN000002400000002400FN00000000020220201000002400NNM   20211202121955    1N0N  00000240000000686400000901432G2    AISUAI  005500360039
BI00B32G2    SA22023JMW     202201197289-3342-90             HOUSING FEMALE ASS'Y     CCN000002400000002400FN00000000020220201000002400NNM   20211202121955    1N0N  00000240000000686400000901432G2    AISUAI  005500360039
BI00B32G2    SA22024JMW     202201267289-3342-90             HOUSING FEMALE ASS'Y     CCN000002400000002400FN00000000020220201000002400NNM   20211202121955    1N0N  00000240000000686400000901432G2    AISUAI  005500360039
BI00B32G2    SA22021JMW     202201057327-6922-3W             BATTERY FUSE             CCN000001440000001440FN00000000020220201000001440NNM   20211202121955    4N0N  00000009600001104700001235532G2    AISUAI  005400370024
BI00B32G2    SA22022JMW     202201127327-6922-3W             BATTERY FUSE             CCN000001248000001248FN00000000020220201000001248NNM   20211202121955    4N0N  00000009600001104700001235532G2    AISUAI  005400370024
BI00B32G2    SA22023JMW     202201197327-6922-3W             BATTERY FUSE             CCN000001056000001056FN00000000020220201000001056NNM   20211202121955    4N0N  00000009600001104700001235532G2    AISUAI  005400370024
BI00B32G2    SA22024JMW     202201267327-6922-3W             BATTERY FUSE             CCN000000768000000768FN00000000020220201000000768NNM   20211202121955    4N0N  00000009600001104700001235532G2    AISUAI  005400370024
BI00B32G2    SA22021JMW     202201057382-7524-40             JOINT CONNECTOR          CCN000002400000002400FN00000000020220201000002400NNM   20211202121955    4N0N  00000120000000943200001056732G2    AISUAI  005400370024
BI00B32G2    SA22022JMW     202201127382-7524-40             JOINT CONNECTOR          CCN000002400000002400FN00000000020220201000002400NNM   20211202121955    4N0N  00000120000000943200001056732G2    AISUAI  005400370024
BI00B32G2    SA22023JMW     202201197382-7524-40             JOINT CONNECTOR          CCN000001200000001200FN00000000020220201000001200NNM   20211202121955    4N0N  00000120000000943200001056732G2    AISUAI  005400370024
BI00B32G2    SA22024JMW     202201267382-7524-40             JOINT CONNECTOR          CCN000001200000001200FN00000000020220201000001200NNM   20211202121955    4N0N  00000120000000943200001056732G2    AISUAI  005400370024
BI00B32G2    SA22021JMW     202201057386-6939                CONNECTOR MALE ASS'Y     CCN000002700000002700FN00000000020220201000002700NNM   20211202121955    4N0N  00000090000001359900001486432G2    AISUAI  005400370024
BI00B32G2    SA22022JMW     202201127386-6939                CONNECTOR MALE ASS'Y     CCN000001800000001800FN00000000020220201000001800NNM   20211202121955    4N0N  00000090000001359900001486432G2    AISUAI  005400370024
BI00B32G2    SA22023JMW     202201197386-6939                CONNECTOR MALE ASS'Y     CCN000001800000001800FN00000000020220201000001800NNM   20211202121955    4N0N  00000090000001359900001486432G2    AISUAI  005400370024
BI00B32G2    SA22024JMW     202201267386-6939                CONNECTOR MALE ASS'Y     CCN000000900000000900FN00000000020220201000000900NNM   20211202121955    4N0N  00000090000001359900001486432G2    AISUAI  005400370024
BI00B32G2    SA22021JMW     202201057388-2978-30             HOUSING MALE ASS'Y       CCN000004320000004320FN00000000020220201000004320NNM   20211202121955    1N0N  00000048000000742000001122032G2    AISUAI  005500360039
BI00B32G2    SA22022JMW     202201127388-2978-30             HOUSING MALE ASS'Y       CCN000003360000003360FN00000000020220201000003360NNM   20211202121955    1N0N  00000048000000742000001122032G2    AISUAI  005500360039
BI00B32G2    SA22023JMW     202201197388-2978-30             HOUSING MALE ASS'Y       CCN000002880000002880FN00000000020220201000002880NNM   20211202121955    1N0N  00000048000000742000001122032G2    AISUAI  005500360039
BI00B32G2    SA22024JMW     202201267388-2978-30             HOUSING MALE ASS'Y       CCN000001920000001920FN00000000020220201000001920NNM   20211202121955    1N0N  00000048000000742000001122032G2    AISUAI  005500360039
BI00B32G2    #SA22021JMW    202201057154-5597-30             CASSETTE R/B             CCN000011200000011200FN00000000020220201000011200NNM   20211202121955    2F0F  00000080000000736000000952032G2    AISUAI  005500360039
BI00B32G2    #SA22022JMW    202201127154-5597-30             CASSETTE R/B             CCN000008800000008800FN00000000020220201000008800NNM   20211202121955    2F0F  00000080000000736000000952032G2    AISUAI  005500360039
BI00B32G2    #SA22023JMW    202201197154-5597-30             CASSETTE R/B             CCN000005600000005600FN00000000020220201000005600NNM   20211202121955    2F0F  00000080000000736000000952032G2    AISUAI  005500360039
BI00B32G2    #SA22024JMW    202201267154-5597-30             CASSETTE R/B             CCN000003200000003200FN00000000020220201000003200NNM   20211202121955    2F0F  00000080000000736000000952032G2    AISUAI  005500360039
BI00B32G2    #SA22021JMW    202201057187-6919                HOUSING FEMALE           CCN000002400000002400FN00000000020220201000002400NNM   20211202121955    2F0F  00000240000000584600000708632G2    AISUAI  005400370024
BI00B32G2    #SA22022JMW    202201127187-6919                HOUSING FEMALE           CCN000002400000002400FN00000000020220201000002400NNM   20211202121955    2F0F  00000240000000584600000708632G2    AISUAI  005400370024
BI00B32G2    #SA22021JMW    202201057189-2978-30             HOUSING FEMALE           CCN000004500000004500FN00000000020220201000004500NNM   20211202121955    2F0F  00000150000000966900001096932G2    AISUAI  005400370024
BI00B32G2    #SA22022JMW    202201127189-2978-30             HOUSING FEMALE           CCN000004500000004500FN00000000020220201000004500NNM   20211202121955    2F0F  00000150000000966900001096932G2    AISUAI  005400370024
BI00B32G2    #SA22023JMW    202201197189-2978-30             HOUSING FEMALE           CCN000003000000003000FN00000000020220201000003000NNM   20211202121955    2F0F  00000150000000966900001096932G2    AISUAI  005400370024
BI00B32G2    #SA22024JMW    202201267189-2978-30             HOUSING FEMALE           CCN000001500000001500FN00000000020220201000001500NNM   20211202121955    2F0F  00000150000000966900001096932G2    AISUAI  005400370024
BI00B32G2    #SA22021JMW    202201057189-3031                HOUSING FEMALE           CCN000002400000002400FN00000000020220201000002400NNM   20211202121955    2F0F  00000240000000928800001365832G2    AISUAI  005500360039
BI00B32G2    #SA22022JMW    202201127189-3031                HOUSING FEMALE           CCN000002400000002400FN00000000020220201000002400NNM   20211202121955    2F0F  00000240000000928800001365832G2    AISUAI  005500360039
BI00B32G2    #SA22023JMW    202201197189-3031                HOUSING FEMALE           CCN000002400000002400FN00000000020220201000002400NNM   20211202121955    2F0F  00000240000000928800001365832G2    AISUAI  005500360039
BI00B32G2    #SA22021JMW    202201057189-3032                HOUSING FEMALE           CCN000003200000003200FN00000000020220201000003200NNM   20211202121955    2F0F  00000160000000788400001018432G2    AISUAI  005500360039
BI00B32G2    #SA22022JMW    202201127189-3032                HOUSING FEMALE           CCN000003200000003200FN00000000020220201000003200NNM   20211202121955    2F0F  00000160000000788400001018432G2    AISUAI  005500360039
BI00B32G2    #SA22023JMW    202201197189-3032                HOUSING FEMALE           CCN000003200000003200FN00000000020220201000003200NNM   20211202121955    2F0F  00000160000000788400001018432G2    AISUAI  005500360039
BI00B32G2    #SA22024JMW    202201267189-3032                HOUSING FEMALE           CCN000001600000001600FN00000000020220201000001600NNM   20211202121955    2F0F  00000160000000788400001018432G2    AISUAI  005500360039
BI00B32G2    #SA22021JMW    202201057189-3032-30             HOUSING FEMALE           CCN000001600000001600FN00000000020220201000001600NNM   20211202121955    2F0F  00000160000000801600001021632G2    AISUAI  005500360039
BI00B32G2    #SA22022JMW    202201127189-3032-30             HOUSING FEMALE           CCN000001600000001600FN00000000020220201000001600NNM   20211202121955    2F0F  00000160000000801600001021632G2    AISUAI  005500360039
BI00B32G2    #SA22023JMW    202201197189-3032-30             HOUSING FEMALE           CCN000001600000001600FN00000000020220201000001600NNM   20211202121955    2F0F  00000160000000801600001021632G2    AISUAI  005500360039
BI00B32G2    #SA22024JMW    202201267189-3032-30             HOUSING FEMALE           CCN000001600000001600FN00000000020220201000001600NNM   20211202121955    2F0F  00000160000000801600001021632G2    AISUAI  005500360039
BI00B32G2    #SA22021JMW    202201057189-3033                HOUSING FEMALE           CCN000001600000001600FN00000000020220201000001600NNM   20211202121955    2F0F  00000160000001211200001431232G2    AISUAI  005500360039
BI00B32G2    #SA22022JMW    202201127189-3033                HOUSING FEMALE           CCN000001600000001600FN00000000020220201000001600NNM   20211202121955    2F0F  00000160000001211200001431232G2    AISUAI  005500360039
BI00B32G2    #SA22021JMW    202201057189-3034-30             HOUSING FEMALE           CCN000001600000001600FN00000000020220201000001600NNM   20211202121955    2F0F  00000160000000972800001192832G2    AISUAI  005500360039
BI00B32G2    #SA22022JMW    202201127189-3034-30             HOUSING FEMALE           CCN000001600000001600FN00000000020220201000001600NNM   20211202121955    2F0F  00000160000000972800001192832G2    AISUAI  005500360039
BI00B32G2    #SA22023JMW    202201197189-3034-30             HOUSING FEMALE           CCN000001600000001600FN00000000020220201000001600NNM   20211202121955    2F0F  00000160000000972800001192832G2    AISUAI  005500360039
BI00B32G2    #SA22024JMW    202201267189-3034-30             HOUSING FEMALE           CCN000001600000001600FN00000000020220201000001600NNM   20211202121955    2F0F  00000160000000972800001192832G2    AISUAI  005500360039
BI00B32G2    #SA22021JMW    202201057189-3038-30             HOUSING                  CCN000001600000001600FN00000000020220201000001600NNM   20211202121955    2F0F  00000160000000921600001141632G2    AISUAI  005500360039
BI00B32G2    #SA22022JMW    202201127189-3038-30             HOUSING                  CCN000001600000001600FN00000000020220201000001600NNM   20211202121955    2F0F  00000160000000921600001141632G2    AISUAI  005500360039
BI00B32G2    #SA22021JMW    202201057282-5845-30             HOUSING MALE ASS'Y       CCN000004000000004000FN00000000020220201000004000NNM   20211202121955    2N0N  00000400000001068000001178032G2    AISUAI  005400370024
BI00B32G2    #SA22021JMW    202201057287-9155                HOUSING FEMALE ASS'Y     CCN000001920000001920FN00000000020220201000001920NNM   20211202121955    2N0N  00000096000000853700001045232G2    AISUAI  005400370024
BI00B32G2    #SA22022JMW    202201127287-9155                HOUSING FEMALE ASS'Y     CCN000001920000001920FN00000000020220201000001920NNM   20211202121955    2N0N  00000096000000853700001045232G2    AISUAI  005400370024
BI00B32G2    #SA22023JMW    202201197287-9155                HOUSING FEMALE ASS'Y     CCN000001920000001920FN00000000020220201000001920NNM   20211202121955    2N0N  00000096000000853700001045232G2    AISUAI  005400370024
BI00B32G2    #SA22024JMW    202201267287-9155                HOUSING FEMALE ASS'Y     CCN000000960000000960FN00000000020220201000000960NNM   20211202121955    2N0N  00000096000000853700001045232G2    AISUAI  005400370024
BI00B32G2    #SA22021JMW    202201057289-2915-30             HOUSING FEMALE ASS'Y     CCN000001500000001500FN00000000020220201000001500NNM   20211202121955    2N0N  00000150000000964500001091532G2    AISUAI  005400360024
BI00B32G2    #SA22022JMW    202201127289-2915-30             HOUSING FEMALE ASS'Y     CCN000001500000001500FN00000000020220201000001500NNM   20211202121955    2N0N  00000150000000964500001091532G2    AISUAI  005400360024
BI00B32G2    #SA22023JMW    202201197289-2915-30             HOUSING FEMALE ASS'Y     CCN000001500000001500FN00000000020220201000001500NNM   20211202121955    2N0N  00000150000000964500001091532G2    AISUAI  005400360024
BI00B32G2    #SA22021JMW    202201057289-2916-30             HOUSING FEMALE ASS'Y     CCN000001000000001000FN00000000020220201000001000NNM   20211202121955    2N0N  00000100000000857000001084032G2    AISUAI  005400360024
BI00B32G2    #SA22022JMW    202201127289-2916-30             HOUSING FEMALE ASS'Y     CCN000001000000001000FN00000000020220201000001000NNM   20211202121955    2N0N  00000100000000857000001084032G2    AISUAI  005400360024
BI00B32G2    #SA22023JMW    202201197289-2916-30             HOUSING FEMALE ASS'Y     CCN000001000000001000FN00000000020220201000001000NNM   20211202121955    2N0N  00000100000000857000001084032G2    AISUAI  005400360024
BI00B32G2    #SA22024JMW    202201267289-2916-30             HOUSING FEMALE ASS'Y     CCN000001000000001000FN00000000020220201000001000NNM   20211202121955    2N0N  00000100000000857000001084032G2    AISUAI  005400360024
BI00B32G2    #SA22021JMW    202201057289-2917-30             HOUSING FEMALE ASS'Y     CCN000001000000001000FN00000000020220201000001000NNM   20211202121955    2N0N  00000100000000964000001091032G2    AISUAI  005400370024
BI00B32G2    #SA22021JMW    202201057289-2919-30             HOUSING FEMALE ASS'Y     CCN000001500000001500FN00000000020220201000001500NNM   20211202121955    2N0N  00000150000000907500001034532G2    AISUAI  005400360024
BI00B32G2    #SA22022JMW    202201127289-2919-30             HOUSING FEMALE ASS'Y     CCN000001500000001500FN00000000020220201000001500NNM   20211202121955    2N0N  00000150000000907500001034532G2    AISUAI  005400360024
BI00B32G2    #SA22023JMW    202201197289-2919-30             HOUSING FEMALE ASS'Y     CCN000001500000001500FN00000000020220201000001500NNM   20211202121955    2N0N  00000150000000907500001034532G2    AISUAI  005400360024
BI00B32G2    SA22021NMW     202201057123-7500                CONNECTOR                CCN000000800000000800FN00000000020220201000000800NNM   20211202121955    1F0F  00000080000000710000000896732G2    AISUAI  005500360039
BI00B32G2    SA22022NMW     202201127123-7500                CONNECTOR                CCN000000800000000800FN00000000020220201000000800NNM   20211202121955    1F0F  00000080000000710000000896732G2    AISUAI  005500360039
BI00B32G2    SA22021 MW     202201057B58-3070-80             RUBBER STOPPER           CCN000040000000040000FN00000000020220201000040000NNM   20211202132559    1C0C  00004000000000276000000333032G2    AISUAI  004300270014
BI00B32G2    SA22021 MW     202201057017-1180-02             TERMINAL                 CCN000072000000072000FN00000000020220201000072000NNM   20211202132559    4P0P  00007200000001065600001229032G2    AISUAI  005100280028
BI00B32G2    SA22022 MW     202201127017-1180-02             TERMINAL                 CCN000072000000072000FN00000000020220201000072000NNM   20211202132559    4P0P  00007200000001065600001229032G2    AISUAI  005100280028
BI00B32G2    SA22023 MW     202201197017-1180-02             TERMINAL                 CCN000072000000072000FN00000000020220201000072000NNM   20211202132559    4P0P  00007200000001065600001229032G2    AISUAI  005100280028
BI00B32G2    SA22021 MW     202201057017-1181-02             TERMINAL                 CCN000063000000063000FN00000000020220201000063000NNM   20211202132559    4P0P  00006300000001089900001266832G2    AISUAI  005100280028
BI00B32G2    SA22021 MW     202201057017-1182-02             TERMINAL                 CCN000045000000045000FN00000000020220201000045000NNM   20211202132559    4P0P  00004500000001165500001318632G2    AISUAI  005100280028
BI00B32G2    SA22021 MW     202201057017-1183-02             TERMINAL                 CCN000027000000027000FN00000000020220201000027000NNM   20211202132559    4P0P  00002700000001139400001307432G2    AISUAI  005100280028
BI00B32G2    SA22021 MW     202201057114-1470                TERMINAL                 CCN000016500000016500FN00000000020220201000016500NNM   20211202132559    4P0P  00001650000000544500000838732G2    AISUAI  006400630015
BI00B32G2    SA22022 MW     202201127114-1470                TERMINAL                 CCN000016500000016500FN00000000020220201000016500NNM   20211202132559    4P0P  00001650000000544500000838732G2    AISUAI  006400630015
BI00B32G2    SA22021 MW     202201057114-4020                TERMINAL                 CCN000147000000147000FN00000000020220201000147000NNM   20211202132559    4P0P  00002100000000875700001169332G2    AISUAI  006400630015
BI00B32G2    SA22022 MW     202201127114-4020                TERMINAL                 CCN000126000000126000FN00000000020220201000126000NNM   20211202132559    4P0P  00002100000000875700001169332G2    AISUAI  006400630015
BI00B32G2    SA22023 MW     202201197114-4020                TERMINAL                 CCN000084000000084000FN00000000020220201000084000NNM   20211202132559    4P0P  00002100000000875700001169332G2    AISUAI  006400630015
BI00B32G2    SA22024 MW     202201267114-4020                TERMINAL                 CCN000063000000063000FN00000000020220201000063000NNM   20211202132559    4P0P  00002100000000875700001169332G2    AISUAI  006400630015
BI00B32G2    SA22021 MW     202201057114-4021                TERMINAL                 CCN000120000000120000FN00000000020220201000120000NNM   20211202132559    4P0P  00001500000000670500000964132G2    AISUAI  006400630015
BI00B32G2    SA22022 MW     202201127114-4021                TERMINAL                 CCN000105000000105000FN00000000020220201000105000NNM   20211202132559    4P0P  00001500000000670500000964132G2    AISUAI  006400630015
BI00B32G2    SA22023 MW     202201197114-4021                TERMINAL                 CCN000075000000075000FN00000000020220201000075000NNM   20211202132559    4P0P  00001500000000670500000964132G2    AISUAI  006400630015
BI00B32G2    SA22024 MW     202201267114-4021                TERMINAL                 CCN000060000000060000FN00000000020220201000060000NNM   20211202132559    4P0P  00001500000000670500000964132G2    AISUAI  006400630015
BI00B32G2    SA22021 MW     202201057114-4032                TERMINAL                 CCN000007500000007500FN00000000020220201000007500NNM   20211202132559    4P0P  00000750000000735000001063632G2    AISUAI  006400630017
BI00B32G2    SA22022 MW     202201127114-4032                TERMINAL                 CCN000007500000007500FN00000000020220201000007500NNM   20211202132559    4P0P  00000750000000735000001063632G2    AISUAI  006400630017
BI00B32G2    SA22023 MW     202201197114-4032                TERMINAL                 CCN000007500000007500FN00000000020220201000007500NNM   20211202132559    4P0P  00000750000000735000001063632G2    AISUAI  006400630017
BI00B32G2    SA22024 MW     202201267114-4032                TERMINAL                 CCN000007500000007500FN00000000020220201000007500NNM   20211202132559    4P0P  00000750000000735000001063632G2    AISUAI  006400630017
BI00B32G2    SA22021 MW     202201057114-4231-02             TERMINAL                 CCN000036000000036000FN00000000020220201000036000NNM   20211202132559    4P0P  00001800000000554400000848032G2    AISUAI  006400630015
BI00B32G2    SA22022 MW     202201127114-4231-02             TERMINAL                 CCN000018000000018000FN00000000020220201000018000NNM   20211202132559    4P0P  00001800000000554400000848032G2    AISUAI  006400630015
BI00B32G2    SA22023 MW     202201197114-4231-02             TERMINAL                 CCN000018000000018000FN00000000020220201000018000NNM   20211202132559    4P0P  00001800000000554400000848032G2    AISUAI  006400630015
BI00B32G2    SA22024 MW     202201267114-4231-02             TERMINAL                 CCN000018000000018000FN00000000020220201000018000NNM   20211202132559    4P0P  00001800000000554400000848032G2    AISUAI  006400630015
BI00B32G2    SA22021 MW     202201057114-4486-02             TERMINAL                 CCN000024000000024000FN00000000020220201000024000NNM   20211202132559    4P0P  00002400000000662400000956032G2    AISUAI  006400630015
BI00B32G2    SA22022 MW     202201127114-4486-02             TERMINAL                 CCN000024000000024000FN00000000020220201000024000NNM   20211202132559    4P0P  00002400000000662400000956032G2    AISUAI  006400630015
BI00B32G2    SA22023 MW     202201197114-4486-02             TERMINAL                 CCN000024000000024000FN00000000020220201000024000NNM   20211202132559    4P0P  00002400000000662400000956032G2    AISUAI  006400630015
BI00B32G2    SA22021 MW     202201057114-4624-02             TERMINAL                 CCN000072000000072000FN00000000020220201000072000NNM   20211202132559    4P0P  00002400000000895200001188832G2    AISUAI  006400630015
BI00B32G2    SA22022 MW     202201127114-4624-02             TERMINAL                 CCN000048000000048000FN00000000020220201000048000NNM   20211202132559    4P0P  00002400000000895200001188832G2    AISUAI  006400630015
BI00B32G2    SA22023 MW     202201197114-4624-02             TERMINAL                 CCN000024000000024000FN00000000020220201000024000NNM   20211202132559    4P0P  00002400000000895200001188832G2    AISUAI  006400630015
BI00B32G2    SA22024 MW     202201267114-4624-02             TERMINAL                 CCN000024000000024000FN00000000020220201000024000NNM   20211202132559    4P0P  00002400000000895200001188832G2    AISUAI  006400630015
BI00B32G2    SA22021 MW     202201057114-4728-02             TERMINAL                 CCN000600000000600000FN00000000020220201000600000NNM   20211202132559    4P0P  00003000000000510000000804232G2    AISUAI  006400630015
BI00B32G2    SA22022 MW     202201127114-4728-02             TERMINAL                 CCN000540000000540000FN00000000020220201000540000NNM   20211202132559    4P0P  00003000000000510000000804232G2    AISUAI  006400630015
BI00B32G2    SA22023 MW     202201197114-4728-02             TERMINAL                 CCN000450000000450000FN00000000020220201000450000NNM   20211202132559    4P0P  00003000000000510000000804232G2    AISUAI  006400630015
BI00B32G2    SA22024 MW     202201267114-4728-02             TERMINAL                 CCN000330000000330000FN00000000020220201000330000NNM   20211202132559    4P0P  00003000000000510000000804232G2    AISUAI  006400630015
BI00B32G2    SA22021 MW     202201057114-4729-02             TERMINAL                 CCN000270000000270000FN00000000020220201000270000NNM   20211202132559    4P0P  00003000000000516000000810232G2    AISUAI  006400630015
BI00B32G2    SA22022 MW     202201127114-4729-02             TERMINAL                 CCN000240000000240000FN00000000020220201000240000NNM   20211202132559    4P0P  00003000000000516000000810232G2    AISUAI  006400630015
BI00B32G2    SA22023 MW     202201197114-4729-02             TERMINAL                 CCN000210000000210000FN00000000020220201000210000NNM   20211202132559    4P0P  00003000000000516000000810232G2    AISUAI  006400630015
BI00B32G2    SA22024 MW     202201267114-4729-02             TERMINAL                 CCN000120000000120000FN00000000020220201000120000NNM   20211202132559    4P0P  00003000000000516000000810232G2    AISUAI  006400630015
BI00B32G2    SA22021 MW     202201057114-5096-02             TERMINAL                 CCN000120000000120000FN00000000020220201000120000NNM   20211202132559    4P0P  00003000000000498000000792232G2    AISUAI  006400630015
BI00B32G2    SA22022 MW     202201127114-5096-02             TERMINAL                 CCN000090000000090000FN00000000020220201000090000NNM   20211202132559    4P0P  00003000000000498000000792232G2    AISUAI  006400630015
BI00B32G2    SA22023 MW     202201197114-5096-02             TERMINAL                 CCN000060000000060000FN00000000020220201000060000NNM   20211202132559    4P0P  00003000000000498000000792232G2    AISUAI  006400630015
BI00B32G2    SA22024 MW     202201267114-5096-02             TERMINAL                 CCN000060000000060000FN00000000020220201000060000NNM   20211202132559    4P0P  00003000000000498000000792232G2    AISUAI  006400630015
