BI00B1200    O022E50218     202205197298-1187-30             SHUNT RING ASSEMBLY      CCN000040000000040000FN00000000020220601000040000NNED0420220315121842    4N0N  0000100000000064700000076951200    YCYC    005400370024
BI00B1200    Y022G50014     202206167288-9556-30             SEALED ASSY MALE         CCN000001440000001440FN00000000020220701000001440NNM   20220315121842    4N0N  0000007200000053790000078631200    YCYC    005500360039
BI00B1200    30DT-301       202203317195-1935-02             TERMINAL MALE            CCN000019500000019500FN00000000020220401000019500NNEP0020220315144724    4P0P  0000195000000067080000096441200    YCYC    006400630015
BI00B32AG    XG22041CMW     202203187327-6874-30             MULTI FUSE               CCN000004608000000000FY00000000020220401000000000NNMQ0820220315103605    4N0N  00000028800000991400001157332AG    XGXGY   005400370024
BI00B32AG    XG22042CMW     202203257327-6874-30             MULTI FUSE               CCN000004608000000000FY00000000020220401000000000NNMQ0820220315112027    4N0N  00000028800000991400001157332AG    XGXGY   005400370024
BI00B32AG    XG22043CMW     202204017327-6874-30             MULTI FUSE               CCN000004608000000000FY00000000020220401000000000NNMQ0820220315103631    4N0N  00000028800000991400001157332AG    XGXGY   005400370024
BI00B32AG    XG22044CMW     202204087327-6874-30             MULTI FUSE               CCN000004608000000000FY00000000020220401000000000NNMQ0820220315103646    4N0N  00000028800000991400001157332AG    XGXGY   005400370024
BI00B32AG    XG22041CMW     202203187327-6884-30             MULTI FUSE               CCN000004608000000000FY00000000020220401000000000NNMQ0820220315103910    4N0N  00000028800000988900001154832AG    XGXGY   005400370024
BI00B32AG    XG22042CMW     202203257327-6884-30             MULTI FUSE               CCN000004608000000000FY00000000020220401000000000NNMQ0820220315112027    4N0N  00000028800000988900001154832AG    XGXGY   005400370024
BI00B32AG    XG22043CMW     202204017327-6884-30             MULTI FUSE               CCN000004608000000000FY00000000020220401000000000NNMQ0820220315103931    4N0N  00000028800000988900001154832AG    XGXGY   005400370024
BI00B32AG    XG22044CMW     202204087327-6884-30             MULTI FUSE               CCN000004608000000000FY00000000020220401000000000NNMQ0820220315103942    4N0N  00000028800000988900001154832AG    XGXGY   005400370024
BI00B32AG    XG22052CMW     202204227327-6884-30             MULTI FUSE               CCN000004032000000000FY00000000020220501000000000NNMQ0820220315104007    4N0N  00000028800000988900001154832AG    XGXGY   005400370024
BI00B32AG    XG22054CMW     202205067327-6884-30             MULTI FUSE               CCN000004032000000000FY00000000020220501000000000NNMQ0820220315104021    4N0N  00000028800000988900001154832AG    XGXGY   005400370024
BI00B32AG    XG22055CMW     202205137327-6884-30             MULTI FUSE               CCN000004608000000000FY00000000020220501000000000NNMQ0820220315104034    4N0N  00000028800000988900001154832AG    XGXGY   005400370024
BI00B32AG    XG22061CMW     202205067327-6884-30             MULTI FUSE               CCN000009216000000000FY00000000020220601000000000NNMQ0820220315104048    4N0N  00000028800000988900001154832AG    XGXGY   005400370024
BI00B32AG    XG22062CMW     202205137327-6884-30             MULTI FUSE               CCN000000864000000000FY00000000020220601000000000NNMQ0820220315104103    4N0N  00000028800000988900001154832AG    XGXGY   005400370024
BI00B32AG    XG22063CMW     202205207327-6884-30             MULTI FUSE               CCN000000576000000000FY00000000020220601000000000NNMQ0820220315104115    4N0N  00000028800000988900001154832AG    XGXGY   005400370024
BI00B32AG    XG22064CMW     202205277327-6884-30             MULTI FUSE               CCN000004896000000000FY00000000020220601000000000NNMQ0820220315104129    4N0N  00000028800000988900001154832AG    XGXGY   005400370024
BI00B32DE    TCT2034        202203047289-3342-30             HOUSING FEMALE ASS'Y     CCN000048000000021600FN00000240020220301000019200NNM00020220315121842    1N0N  00000240000000686400000901432DE    TVYEV-TV005500360039
BI00A32DE    TCT2034        202203177289-3342-30             HOUSING FEMALE ASS'Y     PCN000024000000024000FN00000000020220301000024000NNM00020220315121842    1N0N  00000240000000686400000901432DE    TVYEV-TV005500360039
BI00B32DG    #RP2053A       202204287283-1065                CONNECTOR                CCN000002500000002500FN00000000020220501000002500NNE   20220315121842    2N0N  00000250000001152500001310432DG    BFSAIBF 005500360039
BI00B32D2    DGTC2220       202203177196-1326-02             TERMINAL FEMALE          CCN000660000000660000FN00000000020220501000660000NNMD0020220315164602    4P0P  00006000000000456000000784732D2    TGYOT-G 006400630017
BI00B32D2    DGTC2221       202203247116-6042                TERMINAL                 CCN000063000000063000FN00000000020220501000063000NNMD0020220315162400    4P0P  00000300000000523800000856132D2    TGYOT-G 006400630015
BI00B32D2    DGTC2221       202203247126-8854-02             TERMINAL                 CCN000075000000075000FN00000000020220501000075000NNMD0020220315162418    4P0P  00000750000000604500000889732D2    TGYOT-G 006400630015
BI00B32D2    DGTC2221       202203247126-8855-02             TERMINAL                 CCN000096000000096000FN00000000020220501000096000NNMD0020220315162434    4P0P  00000600000000510600000795832D2    TGYOT-G 006400630015
BI00B32D2    DGTC2221       202203247196-1326-02             TERMINAL FEMALE          CCN000780000000780000FN00000000020220501000780000NNMD0020220315162454    4P0P  00006000000000456000000784732D2    TGYOT-G 006400630017
BI00B32D2    DGTC2222       202203317116-6042                TERMINAL                 CCN000096000000096000FN00000000020220601000096000NNMD0020220315162514    4P0P  00000300000000523800000856132D2    TGYOT-G 006400630015
BI00B32D2    DGTC2222       202203317126-8853-02             TERMINAL                 CCN000195000000195000FN00000000020220601000195000NNMD0020220315162537    4P0P  00000750000000562500000847732D2    TGYOT-G 006400630015
BI00B32D2    DGTC2222       202203317126-8854-02             TERMINAL                 CCN000157500000157500FN00000000020220601000157500NNMD0020220315162629    4P0P  00000750000000604500000889732D2    TGYOT-G 006400630015
BI00B32D2    DGTC2222       202203317126-8855-02             TERMINAL                 CCN000222000000222000FN00000000020220601000222000NNMD0020220315162645    4P0P  00000600000000510600000795832D2    TGYOT-G 006400630015
BI00B32D2    DGTC2222       202203317196-1326-02             TERMINAL FEMALE          CCN000960000000960000FN00000000020220601000960000NNMD0020220315162704    4P0P  00006000000000456000000784732D2    TGYOT-G 006400630017
BI00B32D2    DGTC2224       202206027289-3342                HOUSING FEMALE ASS'Y     CCN000045600000045600FN00000000020220601000045600NNMD0420220315121842    1N0N  00000240000000686400000901432D2    TGYOT-G 005500360039
BI00B32D2    DGTC2224       202206097289-3342-30             HOUSING FEMALE ASS'Y     CCN000014400000014400FN00000000020220601000014400NNMD0420220315121842    1N0N  00000240000000686400000901432D2    TGYOT-G 005500360039
BI00B32D2    DGTC2224       202205127289-3342-40             HOUSING FEMALE ASS'Y     CCN000012000000012000FN00000000020220601000012000NNMD0420220315121842    1N0N  00000240000000686400000901432D2    TGYOT-G 005500360039
BI00B32D2    DGTC2224       202205127289-3342-90             HOUSING FEMALE ASS'Y     CCN000014400000014400FN00000000020220601000014400NNMD0420220315121842    1N0N  00000240000000686400000901432D2    TGYOT-G 005500360039
BI00A32D9    I236A          202203317388-0313-30             CONNECTOR ASS'Y          CCN000001200000001200FN00000000020220301000001200NNED0720220315121842    4N0N  00000120000000995000001125032D9    UEHESTO 005400370024
BI00A32D9    #I236A         202203317171-6292                HOUSING                  CCN000000360000000360FN00000000020220301000000360NNED0720220315121842    2F0F  00000018000000762100000980332D9    UEHESTO 005400370024
BI00A32D9    #I236A         202203317174-0152                CONNECTOR                CCN000000350000000350FN00000000020220301000000350NNED0720220315121842    2F0F  00000035000000746400000918632D9    UEHESTO 005500360039
BI00A32D9    #I236A         202203317186-3971                CONNECTOR HOUSING        CCN000002400000002400FN00000000020220301000002400NNED0720220315121842    2F0F  00000240000001002200001191432D9    UEHESTO 005500360039
BI00A32D9    #I236A         202203317187-3359-60             JOINT CONNECTOR          CCN000002400000002400FN00000000020220301000002400NNED0720220315121842    2F0F  00000120000000763200001030432D9    UEHESTO 005600390040
BI00A32D9    #I236A         202203317189-9516-40             HOUSING                  CCN000002000000002000FN00000000020220301000002000NNED0720220315121842    2F0F  00000200000000578800000685832D9    UEHESTO 005400370024
BI00A32D9    #I236A         202203317189-9517                HOUSING                  CCN000002000000002000FN00000000020220301000002000NNED0720220315121842    2F0F  00000200000000576600000683632D9    UEHESTO 005400370024
BI00A32D9    #I236A         202203317189-9518-30             HOUSING                  CCN000002000000002000FN00000000020220301000002000NNED0720220315121842    2F0F  00000200000000583600000690632D9    UEHESTO 005400370024
BI00A32D9    #I236A         202203317189-9519-80             HOUSING                  CCN000002000000002000FN00000000020220301000002000NNED0720220315121842    2F0F  00000200000000579400000686432D9    UEHESTO 005400370024
BI00A32D9    #I236A         202203317189-9520-10             HOUSING                  CCN000002000000002000FN00000000020220301000002000NNED0720220315121842    2F0F  00000200000000578400000685432D9    UEHESTO 005400370024
BI00B32EJ    T220311P04     202205057283-5843                CONNECTOR                CCN000022500000012000FN00000000020220401000012000NNED0220220315140155EJ  1N0N  00000150000000889000001132032EJ    EJYKBO  005600390040
BI00B32EJ    T220311P04     202205127283-5843                CONNECTOR                CCN000010500000010500FN00000000020220401000010500NNED0220220315140200EJ  1N0N  00000150000000889000001132032EJ    EJYKBO  005600390040
BI00B32G2    SA2204B MW     202203167254-5840-30             ENG R/B SUB ASS'Y        CCN000000144000000144FN00000000020220401000000144NNE00020220315160932    4J0J  00000002400000732000000952032G2    AISUAI  005600390040
BI00B32G2    #SA2204D MW    202203307047-5654-30             CLIP                     CCN000005000000005000FN00000000020220401000005000NNE   20220315150058    2F0F  00000500000000657000000825332G2    AISUAI  005500360039
BI00B32G7    JJ22053 MW     202204287288-3331-30             HOUSING MALE             CCN000003000000003000FN00000000020220501000003000NNMD0420220315121842    4N0N  00000150000000866000001010932G7    JIJAI   005400370024
BI00B32G7    JJ22053 MW     202204287288-3340-30             HOUSING MALE             CCN000001500000001500FN00000000020220501000001500NNMD0420220315121842    4N0N  00000150000000861500001006432G7    JIJAI   005400370024
BI00B32G7    JJ2205AMMW     202204217288-3332-30             HOUSING MALE             CCN000006000000006000FN00000000020220501000006000NNED0420220315121842    4N0N  00000150000000860700001005732G7    JIJAI   005400370024
BI00B32G7    JJ2205AMMW     202204287289-3342                HOUSING FEMALE ASS'Y     CCN000002400000002400FN00000000020220501000002400NNED0420220315121842    1N0N  00000240000000686400000901432G7    JIJAI   005500360039
BI00T32H2    @TIJ2042-I     202203317282-1060                HOUSING SUB ASSEMBLY     CCN000001600000001600FN00000000020220401000001600NNMD0020220315151701    3N0N  00000160000000955500001169032H2    HVYHV   005500360039
BI00B32H2    TIJ205D        202205137289-3342-90             HOUSING FEMALE ASS'Y     CCN000009600000009600FN00000000020220501000009600NNED0420220315121842    1N0N  00000240000000686400000901432H2    HVYHV   005500360039
BI00A32J1    392203         202203217114-4231-02             TERMINAL                 CCN000018000000018000FN00000000020220301000018000NNE00020220315154200    4P0P  00001800000000554400000848032J1    UKYEL-BL006400630015
BI00B32J1    #392581        202204257187-3356                JOINT CONNECTOR          CCN000002400000002400FN00000000020220401000002400NNE   20220315121842    2F0F  00000120000000759600001024432J1    UKYEL-BL005600390040
BI00B32J1    #392581        202204257187-3359-60             JOINT CONNECTOR          CCN000003600000003600FN00000000020220401000003600NNE   20220315121842    2F0F  00000120000000763200001030432J1    UKYEL-BL005600390040
BI00B32J1    #392581        202204257187-3360                JOINT CONNECTOR          CCN000002400000002400FN00000000020220401000002400NNE   20220315121842    2F0F  00000120000000759600001026832J1    UKYEL-BL005600390040
BI00B32J1    #392583        202204257158-3120-90             CONNECTOR WIRE SEAL      CCN000020000000020000FN00000000020220501000020000NNE   20220315121842    2C0C  00002000000000136000000194032J1    UKYEL-BL002700430014
BI00B32K8    #K1220010579   202204087137-2200                CONNECTOR PACKING        CCN000005000000005000FN00000000020220501000005000NNM   20220315121842    2C0C  00000500000000136000000211332K8    ELELCOM 004300270014
BI00B32K8    #K1220010580   202204087137-2717-50             SEALED CONNECTOR         CCN000024000000024000FN00000000020220601000024000NNM   20220315121842    2C0C  00000400000000212800000284032K8    ELELCOM 002700430014
BI00B32K8    #K1220010580   202204087137-2718-50             SEALED CONNECTOR         CCN000002000000002000FN00000000020220601000002000NNM   20220315121842    2C0C  00000100000000118300000236632K8    ELELCOM 002700430014
BI00B32K8    #K1220010581   202204227137-2200                CONNECTOR PACKING        CCN000010000000010000FN00000000020220601000010000NNM   20220315121842    2C0C  00000500000000136000000211332K8    ELELCOM 004300270014
BI00B32K8    #K1220010581   202204227137-2717-50             SEALED CONNECTOR         CCN000024000000024000FN00000000020220601000024000NNM   20220315121842    2C0C  00000400000000212800000284032K8    ELELCOM 002700430014
BI00B32K8    #K1220010581   202204227137-2718-50             SEALED CONNECTOR         CCN000006000000006000FN00000000020220601000006000NNM   20220315121842    2C0C  00000100000000118300000236632K8    ELELCOM 002700430014
BI00B32M1    TCV2054        202205057289-3342                HOUSING FEMALE ASS'Y     CCN000122400000122400FN00000000020220501000122400NNMD0420220315130628    1N0N  00000240000000686400000901432M1    VNYEV   005500360039
BI00B32M1    TCV2054        202205127289-3342-30             HOUSING FEMALE ASS'Y     CCN000050400000050400FN00000000020220501000050400NNMD0420220315130745    1N0N  00000240000000686400000901432M1    VNYEV   005500360039
BI00B32M1    TCV2054        202205197289-3342                HOUSING FEMALE ASS'Y     CCN000060000000000000FY00000000020220501000000000NNMD0420220315130628    1N0N  00000240000000686400000901432M1    VNYEV   005500360039
BI00B32M1    TCV2054        202205197289-3342-30             HOUSING FEMALE ASS'Y     CCN000024000000000000FY00000000020220501000000000NNMD0420220315130745    1N0N  00000240000000686400000901432M1    VNYEV   005500360039
BI00B32M1    #QA-22-S006    202203177158-3008-80             RUBBER STOPPER           PNN000100000000100000FN00000000020220201000100000NNED0020220315121842    2C0C  00002000000000288000000343032M1    VNYEV   004300270014
BI00B32M1    #QA-22-S006    202203247158-3008-80             RUBBER STOPPER           PNY000130000000130000FN00000000020220201000130000NNED0020220315121842    2C0C  00002000000000288000000343032M1    VNYEV   004300270014
BI00B32M1    QA-22-C010     202203177289-3342                HOUSING FEMALE ASS'Y     PNN000016800000016800FN00000000020220301000016800NNE   20220315155851    1N0N  00000240000000686400000901432M1    VNYEV   005500360039
BI00B32M3    SM22051DMW     202203317283-4855                CONNECTOR HOUSING        CCN000004800000004800FN00000000020220501000004800NNMD0420220315121842    4N0N  00000240000001188400001400032M3    SASAMI  005500360039
BI00B32M3    SM22054DMW     202204217283-4855                CONNECTOR HOUSING        CCN000004800000004800FN00000000020220501000004800NNMD0420220315121842    4N0N  00000240000001188400001400032M3    SASAMI  005500360039
BI00B32M3    SM22051DMW     202203317289-3342-30             HOUSING FEMALE ASS'Y     CCN000024000000024000FN00000000020220501000024000NNMD0420220315121842    1N0N  00000240000000686400000901432M3    SASAMI  005500360039
BI00B32M3    SM22054DMW     202204217289-3342-30             HOUSING FEMALE ASS'Y     CCN000021600000021600FN00000000020220501000021600NNMD0420220315121842    1N0N  00000240000000686400000901432M3    SASAMI  005500360039
BI00B32M3    SM22055DMW     202204287289-3342-30             HOUSING FEMALE ASS'Y     CCN000012000000012000FN00000000020220501000012000NNMD0420220315121842    1N0N  00000240000000686400000901432M3    SASAMI  005500360039
BI00B32M3    SM22051DMW     202204077289-3342-30             HOUSING FEMALE ASS'Y     CCN000004800000000000FY00000000020220501000000000NNMD0420220315114449    1N0N  00000240000000686400000901432M3    SASAMI  005500360039
BI00B32M3    SM22051DMW     202204217289-3342-30             HOUSING FEMALE ASS'Y     CCN000004800000000000FY00000000020220501000000000NNMD0420220315114449    1N0N  00000240000000686400000901432M3    SASAMI  005500360039
BI00B32M3    SM22051DMW     202204287289-3342-30             HOUSING FEMALE ASS'Y     CCN000004800000000000FY00000000020220501000000000NNMD0420220315114449    1N0N  00000240000000686400000901432M3    SASAMI  005500360039
BI00B32M3    SM22051DMW     202205057289-3342-30             HOUSING FEMALE ASS'Y     CCN000004800000000000FY00000000020220501000000000NNMD0420220315114449    1N0N  00000240000000686400000901432M3    SASAMI  005500360039
BI00B32M3    SM22054DMW     202205197289-3342-30             HOUSING FEMALE ASS'Y     CCN000004800000000000FY00000000020220501000000000NNMD0420220315114546    1N0N  00000240000000686400000901432M3    SASAMI  005500360039
BI00B32M3    SM22054DMW     202205267289-3342-30             HOUSING FEMALE ASS'Y     CCN000004800000000000FY00000000020220501000000000NNMD0420220315114546    1N0N  00000240000000686400000901432M3    SASAMI  005500360039
BI00B32M3    SM22054DMW     202206037289-3342-30             HOUSING FEMALE ASS'Y     CCN000004800000000000FY00000000020220501000000000NNMD0420220315114546    1N0N  00000240000000686400000901432M3    SASAMI  005500360039
BI00B32M3    SM22054DMW     202206097289-3342-30             HOUSING FEMALE ASS'Y     CCN000002400000000000FY00000000020220501000000000NNMD0420220315114546    1N0N  00000240000000686400000901432M3    SASAMI  005500360039
BI00B32M3    SM22055DMW     202206167289-3342-30             HOUSING FEMALE ASS'Y     CCN000004800000000000FY00000000020220501000000000NNMD0420220315114628    1N0N  00000240000000686400000901432M3    SASAMI  005500360039
BI00B32M3    SM22055DMW     202206237289-3342-30             HOUSING FEMALE ASS'Y     CCN000004800000000000FY00000000020220501000000000NNMD0420220315114628    1N0N  00000240000000686400000901432M3    SASAMI  005500360039
BI00B32N2    2152103891     202204077114-4020                TERMINAL                 CCN000084000000084000FN00000000020220501000084000NNM   20220315161254    4P0P  00002100000000875700001169332N2    YWYIPLTC006400630015
BI00B32N2    2152103891     202204077114-4030                TERMINAL                 CCN000010500000010500FN00000000020220501000010500NNM   20220315161254    4P0P  00001050000000926100001254732N2    YWYIPLTC006400630017
BI00B32N2    2152103891     202204077116-4020                TERMINAL                 CCN000081000000081000FN00000000020220501000081000NNM   20220315161254    4P0P  00001350000000513000000798232N2    YWYIPLTC006400630015
BI00B32N2    2152103891     202204077116-4022                TERMINAL                 CCN000013500000013500FN00000000020220501000013500NNM   20220315161254    4P0P  00001350000000618300000903532N2    YWYIPLTC006400630015
BI00B32N2    2152103891     202204077116-4025                TERMINAL                 CCN000016000000016000FN00000000020220501000016000NNM   20220315161254    4P0P  00001600000000644800000975132N2    YWYIPLTC006400630017
BI00B32N2    2152103891     202204077116-4032                TERMINAL                 CCN000006000000006000FN00000000020220501000006000NNM   20220315161254    4P0P  00000600000000532800000818032N2    YWYIPLTC006400630015
BI00B32N2    2152103891     202204077116-6042                TERMINAL                 CCN000003000000003000FN00000000020220501000003000NNM   20220315161254    4P0P  00000300000000523800000856132N2    YWYIPLTC006400630015
BI00B32N2    2152103891     202204077183-2417                CONNECTOR HOUSING        CCN000004800000004800FN00000000020220501000004800NNM   20220315161254    4F0F  00000240000001137400001297732N2    YWYIPLTC005500360039
BI00B32N2    2152103891     202204077283-5845                CONNECTOR HOUSING        CCN000006000000006000FN00000000020220501000006000NNM   20220315161254    1N0N  00000600000000444000000606332N2    YWYIPLTC005400370024
BI00B32N2    2152103891     202204077286-3970                CONNECTOR HOUSING        CCN000000440000000440FN00000000020220501000000440NNM   20220315161254    1N0N  00000011000000977300001164032N2    YWYIPLTC005500360039
BI00B32N2    2152103891     202204077370-0309                J/B ASS'Y                CCN000000560000000560FN00000000020220501000000560NNM   20220315161254    1J0J  00000001600000870400001260032N2    YWYIPLTC005500360039
BI00B32N2    2152103891     202204077370-0310                J/B ASS'Y                CCN000000470000000470FN00000000020220501000000470NNM   20220315161254    1J0J  00000001000000559000000809032N2    YWYIPLTC005500360039
BI00B32N2    2152103891     202204077114-4231-02             TERMINAL                 CCN000036000000036000FN00000000020220501000036000NNM   20220315161254    4P0P  00001800000000554400000848032N2    YWYIPLTC006400630015
BI00B32N2    2152103891     202204077116-4231-02             TERMINAL                 CCN000078000000078000FN00000000020220501000078000NNM   20220315161254    4P0P  00002600000000683800001012532N2    YWYIPLTC006400630017
BI00B32N2    2152103891     202204077126-8853-02             TERMINAL                 CCN000007500000007500FN00000000020220501000007500NNM   20220315161254    4P0P  00000750000000562500000847732N2    YWYIPLTC006400630015
BI00B32N2    2152103891     202204077126-8854-02             TERMINAL                 CCN000007500000007500FN00000000020220501000007500NNM   20220315161254    4P0P  00000750000000604500000889732N2    YWYIPLTC006400630015
BI00B32N2    2152103891     202204077140-1977-30             UPPER COVER              CCN000000410000000410FN00000000020220501000000410NNM   20220315161254    1F0F  00000001000000099500000249532N2    YWYIPLTC005600390040
BI00B32N2    2152103891     202204077158-3006-90             RUBBER STOPPER           CCN000020000000020000FN00000000020220501000020000NNM   20220315161254    1C0C  00002000000000330600000386032N2    YWYIPLTC002700430014
BI00B32N2    2152103891     202204077382-1481-10             CONNECTOR                CCN000000800000000800FN00000000020220501000000800NNM   20220315161254    4N0N  00000080000001025000001183032N2    YWYIPLTC005600390040
BI00B32N2    #2152103891    202204077114-4022                TERMINAL                 CCN000015000000015000FN00000000020220501000015000NNM   20220315161250    2F0P  00001500000000708000001120632N2    YWYIPLTC006400630015
BI00B32N2    #2152103891    202204077116-4021                TERMINAL                 CCN000027000000027000FN00000000020220501000027000NNM   20220315161250    2F0P  00001350000000534600000868832N2    YWYIPLTC006400630015
BI00B32N2    #2152103891    202204077154-3456                REAR HOLDER              CCN000007000000007000FN00000000020220501000007000NNM   20220315161250    2F0F  00000700000000581700000752032N2    YWYIPLTC005500360039
BI00B32N2    #2152103891    202204077157-7812                SEAL RUBBER              CCN000010000000010000FN00000000020220501000010000NNM   20220315161250    2C0C  00001000000000137000000202032N2    YWYIPLTC002700430014
BI00B32N2    #2152103891    202204077173-1070                CONNECTOR BRACKET        CCN000001200000001200FN00000000020220501000001200NNM   20220315161250    2F0F  00000120000000592400000968332N2    YWYIPLTC005500360039
BI00B32N2    #2152103891    202204077174-0152                CONNECTOR                CCN000000700000000700FN00000000020220501000000700NNM   20220315161250    2F0F  00000035000000746400000918632N2    YWYIPLTC005500360039
BI00B32N2    #2152103891    202204077183-2511                HOUSING                  CCN000001600000001600FN00000000020220501000001600NNM   20220315161250    2F0F  00000160000000972200001242132N2    YWYIPLTC005500360039
BI00B32N2    #2152103891    202204077187-3356                JOINT CONNECTOR          CCN000003600000003600FN00000000020220501000003600NNM   20220315161250    2F0F  00000120000000759600001024432N2    YWYIPLTC005600390040
BI00B32N2    #2152103891    202204077187-3360                JOINT CONNECTOR          CCN000002400000002400FN00000000020220501000002400NNM   20220315161250    2F0F  00000120000000759600001026832N2    YWYIPLTC005600390040
BI00B32N2    #2152103891    202204077187-3970                CONNECTOR FLAME          CCN000000368000000368FN00000000020220501000000368NNM   20220315161250    2F0F  00000036800001414000001737332N2    YWYIPLTC005600390040
BI00B32N2    #2152103891    202204077282-3020                CONNECTOR                CCN000001000000001000FN00000000020220501000001000NNM   20220315161250    2N0N  00000100000000984000001145432N2    YWYIPLTC005500360039
BI00B32N2    #2152103891    202204077283-5833                CONNECTOR HOUSING        CCN000007280000007280FN00000000020220501000007280NNM   20220315161250    2N0N  00000364000001378000001686732N2    YWYIPLTC005500360039
BI00B32N2    #2152103891    202204077140-1978-30             LOWER COVER              CCN000000064000000064FN00000000020220501000000064NNM   20220315161250    2F0F  00000000800000207100000395132N2    YWYIPLTC005500360039
BI00B32N2    #2152103891    202204077157-7811-80             SEAL RUBBER              CCN000010000000010000FN00000000020220501000010000NNM   20220315161250    2C0C  00001000000000105000000182732N2    YWYIPLTC002700430014
BI00B32N2    #2152103891    202204077158-3003-90             RUBBER STOPPER           CCN000020000000020000FN00000000020220501000020000NNM   20220315161250    2C0C  00002000000000250000000306032N2    YWYIPLTC002700430014
BI00B32N2    @2152103891    202204077183-3190                JOINT CONNECTOR          CCN000003600000003600FN00000000020220501000003600NNM   20220315161252    3F0F  00000360000000457600000667832N2    YWYIPLTC005500360039
BI00B32N3    NBT205 A2      202204077470-6015                J/B COMPLETE ASS'Y       CCN000000570000000570FN00000000020220501000000570NNMD0220220315155003    4J0J  00000001000000494000000661032N3    ABYIPL-B005400360024
BI00B32N3    NBT205 A1      202204077470-6016                J/B COMPLETE ASS'Y       CCN000001800000001800FN00000000020220501000001800NNMD0220220315154937    4J0J  00000001000000494000000661032N3    ABYIPL-B005400360024
BI00B32Q8    EU2204GTMW     202205117288-3335-30             HOUSING MALE             CCN000004500000004500FN00000000020220401000004500NNED0420220315121842    4N0N  00000150000000867000001012032Q8    EMEMI   005400370024
BI00B32Q8    EU2204GTMW     202205117288-3338-30             HOUSING MALE             CCN000003000000003000FN00000000020220401000003000NNED0420220315121842    4N0N  00000150000000866100001012032Q8    EMEMI   005400370024
BI00B32R7    R-TAP220121    202206167298-1186-40             SQUIB SUB ASS'Y          CCN000100000000100000FN00000000020220401000100000NNED0220220315121842    4N0N  00001000000000650000000774532R7    IVYCIC  005400370024
BI00B32R7    #R-TAP220124   202203317282-8395-40             CONNECTOR                CCN000003000000003000FN00000000020220401000003000NNE   20220315150120    2N0N  00000100000001009000001188032R7    IVYCIC  005500360039
BI00B32R7    R-TAP220125    202203317158-3167-80             WIRE SEAL                CCN000020000000020000FN00000000020220401000020000NNE   20220315150139    1C0C  00002000000000048000000109032R7    IVYCIC  002700430014
BI00B32R8    TT2205AYMW     202204057283-1928-80             CONNECTOR                CCN000002000000002000FN00000000020220501000002000NNE   20220315142427    4N0N  00000200000001180000001358332R8    TTTJY   005500360039
BI00B32U9    TPA213         202203167298-1187-30             SHUNT RING ASSEMBLY      CCN000010000000010000FN00000000020220401000010000NNM00020220315161003U9  4N0N  00001000000000647000000769532U9    YNYNA-E 005400370024
BI00B32U9    TPA214         202203167116-1257-02             TERMINAL                 CCN000024000000024000FN00000000020220401000024000NNM00020220315161020U9  1P0P  00002400000000518400000847132U9    YNYNA-E 006400630017
BI00A32U9    TPA217         202203167222-4220-30             CONNECTOR                CCN000003000000003000FN00000000020220401000003000NNM00020220315121842U9  4N0N  00000075000001219000001384032U9    YNYNA-E 005600390040
BI00A32U9    TPA218         202203167158-3006-90             RUBBER STOPPER           CCN000020000000020000FN00000000020220501000020000NNMM0020220315121842U9  1C0C  00002000000000330600000386032U9    YNYNA-E 002700430014
BI00B32W2    HN22043NMW     202203167116-1180                TERMINAL                 CCN000019500000019500FN00000000020220401000019500NNM00020220315161107    1P0P  00001950000000618200000903432W2    HNHNY   006400630015
BI00B32W2    HN22044WMW     202203227158-3165-90             WIRE SEAL                CCN000040000000040000FN00000000020220401000040000NNM00020220315145655    1C0C  00004000000000124000000172432W2    HNHNY   004300270014
BI00A32W2    HN2203DWMW     202203227116-4415-02             TERMINAL                 CCN000038000000038000FN00000000020220301000038000NNEM0020220315121842    4P0P  00003800000000596600000925732W2    HNHNY   006400630017
BI00A32W4    4500188810     202203167116-1685-02             TERMINAL                 CCN000192000000024000FN00000000020220301000024000NNE00020220315134717W4D44P0P  00002400000000897600001065232W4D4  HJYHK-J 005100280028
BI00A32W4    4500189065     202203217283-1020                CONNECTOR                CCN000012000000012000FN00000000020220301000012000NNEM0020220315121842W4654N0N  00000600000000840000001049332W465  HJYHK   005600390040
BI00A32W4    4500189122     202203187116-4104-02             TERMINAL                 CCN000024000000024000FN00000000020220401000024000NNED0020220315121842W4A24P0P  00001200000000580800000972432W4A2  HJYHK-J 006400630015
BI00B32W4    #4500189350    202203287289-4104-40             HOUSING FEMALE ASS'Y     CCN000049000000024000FN00000000020220301000024000NNEM0020220315133254W4652NON  00000050000000606900000821132W465  HJYHK   005400370024
BI00B32W4    4500189564     202203177116-1685-02             TERMINAL                 CCN000312000000312000FN00000000020220401000312000NNEM0020220315161149W4D44P0P  00002400000000897600001065232W4D4  HJYHK-J 005100280028
BI00B32W4    #4500189350    202204047289-4104-40             HOUSING FEMALE ASS'Y     CCN000025000000025000FN00000000020220301000025000NNEM0020220315133254W4652NON  00000050000000606900000821132W465  HJYHK   005400370024
BI00A32W4    4500190277     202204227158-3167-80             WIRE SEAL                CCN000040000000040000FN00000000020220401000040000NNED0020220315121842W9151C0C  00002000000000048000000109032W915  HJYHK   002700430014
BI00B32W4    @4500190751    202203247282-1148-40             CONNECTOR ASS'Y          CCN000030400000008000FN00000000020220301000008000NNED0220220315121842W4513N0N  00000080000001171200001402032W451  HJ32W9  005500360039
BI00B32W4    @4500190751    202204217282-1148-40             CONNECTOR ASS'Y          CCN000009600000009600FN00000000020220301000009600NNED0420220315121842W4513N0N  00000080000001171200001402032W451  HJ32W9  005500360039
BI00B32W4    @4500190751    202205057282-1148-40             CONNECTOR ASS'Y          CCN000012800000012800FN00000000020220301000012800NNED0420220315121842W4513N0N  00000080000001171200001402032W451  HJ32W9  005500360039
BI00B32W4    4500188810     202203167116-1685-02             TERMINAL                 CCN000168000000168000FN00000000020220301000168000NNE00020220315141159W4D44P0P  00002400000000897600001065232W4D4  HJYHK-J 005100280028
BI00A32W4    #4500190886    202208187282-3243-40             CONNECTOR                CCN000001600000001600FN00000000020220801000001600NNE   20220315140451W4802N0N  00000080000001006000001282332W480  HJYHK-J 005600390040
BI00A32W4    4500190899     202204287116-4103-02             TERMINAL                 CCN000012000000012000FN00000000020220401000012000NNE   20220315140530W4804P0P  00001200000000571200000859432W480  HJYHK-J 006400630015
BI00A32W4    4500190901     202204217116-4122-02             TERMINAL                 CCN000018000000018000FN00000000020220401000018000NNE   20220315140614W4804P0P  00000450000000656600000950232W480  HJYHK-J 006400630015
BI00A32W4    4500190919     202205167116-4100-02             TERMINAL                 CCN000015000000015000FN00000000020220501000015000NNE   20220315140728W4M54P0P  00001500000000696000000990232W4M5  HJYHK-J 006400630015
BI00A32W4    4500190919     202205167158-3166-60             WIRE SEAL                CCN000040000000040000FN00000000020220501000040000NNE   20220315140728W4M51C0C  00004000000000104000000152432W4M5  HJYHK-J 002700430014
BI00A32W4    4500190919     202205167116-4101-02             TERMINAL                 CCN000012000000012000FN00000000020220501000012000NNE   20220315140728W4M54P0P  00001200000000582000000876232W4M5  HJYHK-J 006400630015
BI00A32W4    4500190919     202205167283-1030                CONNECTOR                CCN000018000000018000FN00000000020220501000018000NNE   20220315140728W4M54N0N  00000600000000988000001172032W4M5  HJYHK-J 005500360039
BI00A32W4    4500190931     202208047116-1180                TERMINAL                 CCN000019500000019500FN00000000020220801000019500NNE   20220315140821W4H31P0P  00001950000000618200000903432W4H3  HJYHK-J 006400630015
BI00A32W4    4500190932     202208047116-4231-02             TERMINAL                 CCN000130000000130000FN00000000020220801000130000NNE   20220315140901W4H34P0P  00002600000000683800001012532W4H3  HJYHK-J 006400630017
BI00A32W4    4500190933     202208047283-1020                CONNECTOR                CCN000018000000018000FN00000000020220801000018000NNE   20220315140941W4H34N0N  00000600000000840000001049332W4H3  HJYHK-J 005600390040
BI00A32W4    4500190934     202208047283-5846                HOUSING                  CCN000006000000006000FN00000000020220801000006000NNE   20220315141028W4H31N0N  00000150000000885000001102032W4H3  HJYHK-J 005600390040
BI00A32W4    4500190935     202208047282-1014                CONNECTOR                CCN000012000000012000FN00000000020220801000012000NNE   20220315141103W4H34N0N  00000600000001200000001377932W4H3  HJYHK-J 005500360039
BI00B32W6    SW22014QMW     202203167327-6874-30             MULTI FUSE               CCN000006624000006624FN00000000020220101000006624NNM00020220315161225    4N0N  00000028800000991400001157332W6    SYSYA-WJ005400370024
BI00B32W6    SW22052QMW     202204067288-6547                CONNECTOR MALE ASS'Y     CCN000009750000009750FN00000000020220501000009750NNMD0420220315131519    4N0N  00000075000001205300001340332W6    SYSYA-WJ005400370024
BI00B32W6    SW22053QMW     202204207288-6547                CONNECTOR MALE ASS'Y     CCN000006750000006750FN00000000020220501000006750NNMD0420220315131557    4N0N  00000075000001205300001340332W6    SYSYA-WJ005400370024
BI00B32W6    SW22054QMW     202204277288-6547                CONNECTOR MALE ASS'Y     CCN000006000000006000FN00000000020220501000006000NNMD0420220315131634    4N0N  00000075000001205300001340332W6    SYSYA-WJ005400370024
BI00B32W6    SW22053QMW     202204207289-3342                HOUSING FEMALE ASS'Y     CCN000019200000019200FN00000000020220501000019200NNMD0420220315131557    1N0N  00000240000000686400000901432W6    SYSYA-WJ005500360039
BI00B32W6    SW22054QMW     202204277289-3342                HOUSING FEMALE ASS'Y     CCN000014400000014400FN00000000020220501000014400NNMD0420220315131634    1N0N  00000240000000686400000901432W6    SYSYA-WJ005500360039
BI00B32W6    SW22051QMW     202203307289-3342-30             HOUSING FEMALE ASS'Y     CCN000014400000014400FN00000000020220501000014400NNMD0420220315131439    1N0N  00000240000000686400000901432W6    SYSYA-WJ005500360039
BI00B32W6    SW22052QMW     202204067289-3342-30             HOUSING FEMALE ASS'Y     CCN000002400000002400FN00000000020220501000002400NNMD0420220315131519    1N0N  00000240000000686400000901432W6    SYSYA-WJ005500360039
BI00B32W6    SW22053QMW     202204207289-3342-30             HOUSING FEMALE ASS'Y     CCN000016800000016800FN00000000020220501000016800NNMD0420220315131557    1N0N  00000240000000686400000901432W6    SYSYA-WJ005500360039
BI00B32W6    SW22054QMW     202204277289-3342-30             HOUSING FEMALE ASS'Y     CCN000016800000016800FN00000000020220501000016800NNMD0420220315131634    1N0N  00000240000000686400000901432W6    SYSYA-WJ005500360039
BI00B32W6    SW22051QMW     202203307289-3342-90             HOUSING FEMALE ASS'Y     CCN000009600000009600FN00000000020220501000009600NNMD0420220315131447    1N0N  00000240000000686400000901432W6    SYSYA-WJ005500360039
BI00B32W6    SW22052QMW     202204067289-3342-90             HOUSING FEMALE ASS'Y     CCN000002400000002400FN00000000020220501000002400NNMD0420220315131519    1N0N  00000240000000686400000901432W6    SYSYA-WJ005500360039
BI00B32W6    SW22053QMW     202204207289-3342-90             HOUSING FEMALE ASS'Y     CCN000009600000009600FN00000000020220501000009600NNMD0420220315131557    1N0N  00000240000000686400000901432W6    SYSYA-WJ005500360039
BI00B32W6    SW22054QMW     202204277289-3342-90             HOUSING FEMALE ASS'Y     CCN000007200000007200FN00000000020220501000007200NNMD0420220315131634    1N0N  00000240000000686400000901432W6    SYSYA-WJ005500360039
BI00B32W6    SW22054QMW     202204277327-6874-30             MULTI FUSE               CCN000002592000002592FN00000000020220501000002592NNMD0420220315131646    4N0N  00000028800000991400001157332W6    SYSYA-WJ005400370024
BI00B32W6    SW22054QMW     202204277327-6884-30             MULTI FUSE               CCN000002880000002880FN00000000020220501000002880NNMD0420220315131646    4N0N  00000028800000988900001154832W6    SYSYA-WJ005400370024
BI00B32W6    SW2204AQMW     202204067196-1935-02             TERMINAL FEMALE          CCN000018000000018000FN00000000020220401000018000NNE   20220315150203    4P0P  00001800000000534600000819832W6    SYSYA-WJ006400630015
BI00B32W7    SC22051JMW     202203307C89-6868-30             SEALED ASSY FEMALE       CCN000015120000015120FN00000000020220501000015120NNMD0420220315121842    4N0N  00000252000000839200001119232W7    SYSYA-CH005500360039
BI00B32W7    SC22052JMW     202204067C89-6868-30             SEALED ASSY FEMALE       CCN000015120000015120FN00000000020220501000015120NNMD0420220315121842    4N0N  00000252000000839200001119232W7    SYSYA-CH005500360039
BI00B32W7    SC22053JMW     202204207C89-6868-30             SEALED ASSY FEMALE       CCN000020160000020160FN00000000020220501000020160NNMD0420220315121842    4N0N  00000252000000839200001119232W7    SYSYA-CH005500360039
BI00B32W7    SC22054JMW     202204277C89-6868-30             SEALED ASSY FEMALE       CCN000015120000015120FN00000000020220501000015120NNMD0420220315121842    4N0N  00000252000000839200001119232W7    SYSYA-CH005500360039
BI00B32W9    4500190829     202206217283-1030                CONNECTOR                CCN000144000000144000FN00000000020220501000144000NNED0220220315135625W9  4N0N  00000600000000988000001172032W9    HKYHK   005500360039
BI00B32W9    4500190850     202203297283-4854                CONNECTOR HOUSING        CCN000050400000000000FY00000000020220301000000000NNEQ0820220315144112W9  4N0N  00000240000000694100000914132W9    HKYHK   005500360039
