BI00B32DJ    GHT2205-1      20220407180D0203980              AVSSH 0.5F BR            CCN000001500000001500FN00000000020220301000001500NNM   20220315175812    1W    00000150000000689000000000032DJ    RBYIPLRB000000000000XH423033
BI00B32DJ    GHT2205-2      20220428180D0203770              AVSSH 0.3F Y             CCN000002000000002000FN00000000020220301000002000NNM   20220315175812    1W    00000200000000515000000000032DJ    RBYIPLRB000000000000XH224025
BI00B32DJ    GHT2205-1      20220407180D0203750              AVSSH 0.3F R             CCN000012000000012000FN00000000020220301000012000NNM   20220315175812    1W    00000200000000515000000000032DJ    RBYIPLRB000000000000XH423032
BI00B32DJ    GHT2205-1      20220407180D0203990              AVSSH 0.5F L             CCN000021000000021000FN00000000020220301000021000NNM   20220315175812    1W    00000150000000689000000000032DJ    RBYIPLRB000000000000XH423034
BI00B32DJ    GHT2205-1      20220407180D0203730              AVSSH 0.3F B             CCN000006000000006000FN00000000020220301000006000NNM   20220315175812    1W    00000200000000515000000000032DJ    RBYIPLRB000000000000XH423031
BI00B32DJ    GHT2205-1      2022040718007704140              AVSS 1.25F W             CCN000000800000000800FN00000000020220301000000800NNM   20220315175812    1W    00000080000001389000000000032DJ    RBYIPLRB000000000000XH423036
BI00B32DJ    GHT2205-2      2022042818007704140              AVSS 1.25F W             CCN000002400000002400FN00000000020220301000002400NNM   20220315175812    1W    00000080000001389000000000032DJ    RBYIPLRB000000000000XH224030
BI00B32DJ    GHT2205-1      2022040718009604330              AVS 3 B                  CCN000070400000070400FN00000000020220301000070400NNM   20220315175812    1W    00000040000003831600000000032DJ    RBYIPLRB000000000000XH423037
BI00B32DJ    GHT2205-2      2022042818009604330              AVS 3 B                  CCN000141600000141600FN00000000020220301000141600NNM   20220315175812    1W    00000040000003831600000000032DJ    RBYIPLRB000000000000XH224031
BI00B32DJ    GHT2205-1      2022040718009604490              AVS 5 L                  CCN000008400000008400FN00000000020220301000008400NNM   20220315175812    1W    00000020000005981000000000032DJ    RBYIPLRB000000000000XH423048
BI00B32DJ    GHT2205-2      2022042818009604490              AVS 5 L                  CCN000027800000027800FN00000000020220301000027800NNM   20220315175812    1W    00000020000005981000000000032DJ    RBYIPLRB000000000000XH224043
BI00B32DJ    GHT2205-1      2022040718009604360              AVS 3 G                  CCN000042400000042400FN00000000020220301000042400NNM   20220315175812    1W    00000040000003831600000000032DJ    RBYIPLRB000000000000XH423039
BI00B32DJ    GHT2205-2      2022042818009604360              AVS 3 G                  CCN000133200000133200FN00000000020220301000133200NNM   20220315175812    1W    00000040000003831600000000032DJ    RBYIPLRB000000000000XH224033
BI00B32DJ    GHT2205-1      2022040718009604430              AVS 5 B                  CCN000007600000007600FN00000000020220301000007600NNM   20220315175812    1W    00000020000005981000000000032DJ    RBYIPLRB000000000000XH423047
BI00B32DJ    GHT2205-2      2022042818009604430              AVS 5 B                  CCN000004200000004200FN00000000020220301000004200NNM   20220315175812    1W    00000020000005981000000000032DJ    RBYIPLRB000000000000XH224041
BI00B32DJ    GHT2205-2      2022042818009604340              AVS 3 W                  CCN000014800000014800FN00000000020220301000014800NNM   20220315175812    1W    00000040000003831600000000032DJ    RBYIPLRB000000000000XH224038
BI00B32DJ    GHT2205-1      2022040718009604350              AVS 3 R                  CCN000055200000055200FN00000000020220301000055200NNM   20220315175812    1W    00000040000003831600000000032DJ    RBYIPLRB000000000000XH423044
BI00B32DJ    GHT2205-2      2022042818009604350              AVS 3 R                  CCN000034800000034800FN00000000020220301000034800NNM   20220315175812    1W    00000040000003831600000000032DJ    RBYIPLRB000000000000XH224037
BI00B32DJ    GHT2205-1      2022040718009604347              AVS 3 W/Y                CCN000004800000004800FN00000000020220301000004800NNM   20220315175812    1W    00000040000003831600000000032DJ    RBYIPLRB000000000000XH423045
BI00B32DJ    GHT2205-2      2022042818009604347              AVS 3 W/Y                CCN000002000000002000FN00000000020220301000002000NNM   20220315175812    1W    00000040000003831600000000032DJ    RBYIPLRB000000000000XH224039
BI00B32DJ    GHT2205-1      2022040718009604440              AVS 5 W                  CCN000010200000010200FN00000000020220301000010200NNM   20220315175812    1W    00000020000005981000000000032DJ    RBYIPLRB000000000000XH423050
BI00B32DJ    GHT2205-2      2022042818009604440              AVS 5 W                  CCN000007000000007000FN00000000020220301000007000NNM   20220315175812    1W    00000020000005981000000000032DJ    RBYIPLRB000000000000XH224046
BI00B32DJ    GHT2205-2      2022042818000004590              AV 8 L                   CCN000000300000000300FN00000000020220301000000300NNM   20220315175812    1W    00000010000010466200000000032DJ    RBYIPLRB000000000000XH224028
BI00B32DJ    GHT2205-1      2022040718009604390              AVS 3 L                  CCN000010000000010000FN00000000020220301000010000NNM   20220315175812    1W    00000040000003831600000000032DJ    RBYIPLRB000000000000XH423041
BI00B32DJ    GHT2205-2      2022042818009604390              AVS 3 L                  CCN000068800000068800FN00000000020220301000068800NNM   20220315175812    1W    00000040000003831600000000032DJ    RBYIPLRB000000000000XH224035
BI00B32DJ    GHT2205-2      2022042818009604452              AVS 5 P                  CCN000001200000001200FN00000000020220301000001200NNM   20220315175812    1W    00000020000005981000000000032DJ    RBYIPLRB000000000000XH224044
BI00B32DJ    GHT2205-1      2022040718009604370              AVS 3 Y                  CCN000003200000003200FN00000000020220301000003200NNM   20220315175812    1W    00000040000003831600000000032DJ    RBYIPLRB000000000000XH423046
BI00B32DJ    GHT2205-2      2022042818009604370              AVS 3 Y                  CCN000040000000040000FN00000000020220301000040000NNM   20220315175812    1W    00000040000003831600000000032DJ    RBYIPLRB000000000000XH224040
BI00B32DJ    GHT2205-1      2022040718009604380              AVS 3 BR                 CCN000010800000010800FN00000000020220301000010800NNM   20220315175812    1W    00000040000003831600000000032DJ    RBYIPLRB000000000000XH423038
BI00B32DJ    GHT2205-2      2022042818009604380              AVS 3 BR                 CCN000018000000018000FN00000000020220301000018000NNM   20220315175812    1W    00000040000003831600000000032DJ    RBYIPLRB000000000000XH224032
BI00B32DJ    GHT2205-1      2022040718000004530              AV 8 B                   CCN000011300000011300FN00000000020220301000011300NNM   20220315175812    1W    00000010000010466200000000032DJ    RBYIPLRB000000000000XH423035
BI00B32DJ    GHT2205-2      2022042818000004530              AV 8 B                   CCN000021100000021100FN00000000020220301000021100NNM   20220315175812    1W    00000010000010466200000000032DJ    RBYIPLRB000000000000XH224026
BI00B32DJ    GHT2205-1      2022040718009604450              AVS 5 R                  CCN000016400000016400FN00000000020220301000016400NNM   20220315175812    1W    00000020000005981000000000032DJ    RBYIPLRB000000000000XH423049
BI00B32DJ    GHT2205-2      2022042818009604450              AVS 5 R                  CCN000053800000053800FN00000000020220301000053800NNM   20220315175812    1W    00000020000005981000000000032DJ    RBYIPLRB000000000000XH224045
BI00B32DJ    GHT2205-2      2022042818000004560              AV 8 G                   CCN000008400000008400FN00000000020220301000008400NNM   20220315175812    1W    00000010000010466200000000032DJ    RBYIPLRB000000000000XH224027
BI00B32DJ    GHT2205-2      2022042818000004550              AV 8 R                   CCN000003400000003400FN00000000020220301000003400NNM   20220315175812    1W    00000010000010466200000000032DJ    RBYIPLRB000000000000XH224029
BI00B32DJ    GHT2205-2      2022042818009604460              AVS 5 G                  CCN000001400000001400FN00000000020220301000001400NNM   20220315175812    1W    00000020000005981000000000032DJ    RBYIPLRB000000000000XH224042
BI00B32DJ    GHT2205-1      2022040718009604470              AVS 5 Y                  CCN000000600000000600FN00000000020220301000000600NNM   20220315175812    1W    00000020000005981000000000032DJ    RBYIPLRB000000000000XH423051
BI00B32DJ    GHT2205-1      2022040718009604341              AVS 3 GY                 CCN000015600000015600FN00000000020220301000015600NNM   20220315175812    1W    00000040000003831600000000032DJ    RBYIPLRB000000000000XH423040
BI00B32DJ    GHT2205-2      2022042818009604341              AVS 3 GY                 CCN000037200000037200FN00000000020220301000037200NNM   20220315175812    1W    00000040000003831600000000032DJ    RBYIPLRB000000000000XH224034
BI00B32DJ    GHT2205-1      2022040718009604352              AVS 3 P                  CCN000000400000000400FN00000000020220301000000400NNM   20220315175812    1W    00000040000003831600000000032DJ    RBYIPLRB000000000000XH423043
BI00B32DJ    GHT2205-1      2022040718009604361              AVS 3 LG                 CCN000002400000002400FN00000000020220301000002400NNM   20220315175812    1W    00000040000003831600000000032DJ    RBYIPLRB000000000000XH423042
BI00B32DJ    GHT2205-2      2022042818009604361              AVS 3 LG                 CCN000000400000000400FN00000000020220301000000400NNM   20220315175812    1W    00000040000003831600000000032DJ    RBYIPLRB000000000000XH224036
BI00B32N2    2152103892     2022040618007703934              AVSS 0.5F B/W            CCN000003000000003000FN00000000020220301000003000NNE   20220315175812    1W    00000150000000674000000000032N2    YWYIPLTC000000000000KT423003
BI00B32N2    2152103892     2022040618007703946              AVSS 0.5F W/G            CCN000003000000003000FN00000000020220301000003000NNE   20220315175812    1W    00000150000000674000000000032N2    YWYIPLTC000000000000KT423005
BI00B32N2    2152103892     2022040618007703957              AVSS 0.5F R/Y            CCN000003000000003000FN00000000020220301000003000NNE   20220315175812    1W    00000150000000674000000000032N2    YWYIPLTC000000000000KT423004
BI00B32N2    2152103892     2022040618007704050              AVSS 0.75F R             CCN000004000000004000FN00000000020220301000004000NNE   20220315175812    1W    00000100000000943000000000032N2    YWYIPLTC000000000000KT423006
BI00B32N2    2152103892     2022040618007704184              AVSS 1.25F BR/W          CCN000003200000003200FN00000000020220301000003200NNE   20220315175812    1W    00000080000001389000000000032N2    YWYIPLTC000000000000KT423007
BI00B32N2    2152103892     20220406180D0204060              AVSSH 0.75F G            CCN000002000000002000FN00000000020220301000002000NNE   20220315175812    1W    00000100000000934000000000032N2    YWYIPLTC000000000000KT423002
BI00B32N2    2152103892     20220406180D0204080              AVSSH 0.75F BR           CCN000002000000002000FN00000000020220301000002000NNE   20220315175812    1W    00000100000000934000000000032N2    YWYIPLTC000000000000KT423001
BI00B32N3    NBT205 D1      2022040718000004530              AV 8 B                   CCN000002300000002300FN00000000020220301000002300NNE   20220315175812    1W    00000010000010466200000000032N3    ABYIPL-B000000000000XG423001
BI00B32N3    NBT205 D1      2022040718000004540              AV 8 W                   CCN000000800000000800FN00000000020220301000000800NNE   20220315175812    1W    00000010000010466200000000032N3    ABYIPL-B000000000000XG423002
BI00B32N3    NBT205 D1      2022040718009604343              AVS 3 W/B                CCN000011600000011600FN00000000020220301000011600NNE   20220315175812    1W    00000040000003831600000000032N3    ABYIPL-B000000000000XG423003
BI00B32N3    NBT205 D1      2022040718009604430              AVS 5 B                  CCN000004400000004400FN00000000020220301000004400NNE   20220315175812    1W    00000020000005981000000000032N3    ABYIPL-B000000000000XG423004
BI00B32N3    NBT205 D2      2022042818000004530              AV 8 B                   CCN000002400000002400FN00000000020220301000002400NNE   20220315175812    1W    00000010000010466200000000032N3    ABYIPL-B000000000000XI224001
BI00B32N3    NBT205 D2      2022042818000004540              AV 8 W                   CCN000001400000001400FN00000000020220301000001400NNE   20220315175812    1W    00000010000010466200000000032N3    ABYIPL-B000000000000XI224002
BI00B32N3    NBT205 D2      2022042818009604343              AVS 3 W/B                CCN000016800000016800FN00000000020220301000016800NNE   20220315175812    1W    00000040000003831600000000032N3    ABYIPL-B000000000000XI224003
BI00B32N3    NBT205 D2      2022042818009604430              AVS 5 B                  CCN000005400000005400FN00000000020220301000005400NNE   20220315175812    1W    00000020000005981000000000032N3    ABYIPL-B000000000000XI224004
BI00B32Q8    @EW2204DDMW    20220406181AD2019ZZ              CIVUSAS-S 0.22X5 B       CCN000000300000000300FN00000000020220401000000300NNE   20220315175812    1W    00000030000002487500000000032Q8    EMEMI   000000000000MR423001
BI00B32Q8    EW2204H MW     20220406180D0203937              AVSSH 0.5F B/Y           CCN000003000000003000FN00000000020220401000003000NNE   20220315175812    1W    00000150000000689000000000032Q8    EMEMI   000000000000MX423001
BI00B32Q8    EW2204H MW     20220406180D0203961              AVSSH 0.5F LG            CCN000003000000003000FN00000000020220401000003000NNE   20220315175812    1W    00000150000000689000000000032Q8    EMEMI   000000000000MX423002
BI00B32Q8    @EW2204HTMW    20220406181E50004ZZ              AVSSCS-S 0.5FX1 DGY      CCN000004000000004000FN00000000020220401000004000NNE   20220315175812    1W    00000040000001909700000000032Q8    EMEMI   000000000000MS423001
BI00A32U5    @PU5TAP02A     20220317181AD2016ZZ              CIVUSAS-S 0.22X2 B       CCN000000500000000500FN00000000020220301000000500NNE   20220315175812U5  1W    00000050000001360800000000032U5    ASAMSD  000000000000AU123001
