BI00B32B6    W72017         202203251801W003961              IVSSH 0.5F LG            CCN000007200000007200FN00000000020220601000007200NNM   20220208105038B6  1W    00000180000000625000000000032B6    AXARNE-M000000000000AW223004
BI00B32B6    W72017         202203251801W003970              IVSSH 0.5F Y             CCN000012600000012600FN00000000020220601000012600NNM   20220208105038B6  1W    00000180000000625000000000032B6    AXARNE-M000000000000AW223005
BI00B32B6    W72017         202203251801W00405U              IVSSH 0.75F BE           CCN000002600000002600FN00000000020220601000002600NNM   20220208105038B6  1W    00000130000000882000000000032B6    AXARNE-M000000000000AW223006
BI00B32B6    @W72017        20220325181B09039H7              CAVSAS 0.5X1 GY/W        CCN000003200000003200FN00000000020220601000003200NNM   20220208105035B6  1W    00000040000002263300000000032B6    AXARNE-M000000000000AW223003
BI00B32D1    DFTW2218       2022031018000004534              AV 8 B/W                 CCN000003400000003400FN00000000020220501000003400NNM   20220208111329    1W    00000010000010466200000000032D1    TOYOT-K 000000000000KO422058
BI00B32D1    DFTW2218       2022031018000004535              AV 8 B/R                 CCN000000500000000500FN00000000020220501000000500NNM   20220208111329    1W    00000010000010466200000000032D1    TOYOT-K 000000000000KO422057
BI00B32D1    DFTW2218       2022031018000004540              AV 8 W                   CCN000003300000003300FN00000000020220501000003300NNM   20220208111329    1W    00000010000010466200000000032D1    TOYOT-K 000000000000KO422060
BI00B32D1    DFTW2218       2022031018000004543              AV 8 W/B                 CCN000003200000003200FN00000000020220501000003200NNM   20220208111329    1W    00000010000010466200000000032D1    TOYOT-K 000000000000KO422061
BI00B32D1    DFTW2218       2022031018000004550              AV 8 R                   CCN000002500000002500FN00000000020220501000002500NNM   20220208111329    1W    00000010000010466200000000032D1    TOYOT-K 000000000000KO422059
BI00B32D1    @DFTW2218      20220310181AD2002ZZ              CIVUSAS-S 0.35X2 B       CCN000004500000004500FN00000000020220501000004500NNM   20220208111328    1W    00000045000001713700000000032D1    TOYOT-K 000000000000KO422029
BI00B32D1    @DFTW2218      20220310181AD2003ZZ              CIVUSAS-S 0.35X3 B       CCN000001750000001750FN00000000020220501000001750NNM   20220208111328    1W    00000035000002172100000000032D1    TOYOT-K 000000000000KO422030
BI00B32D1    @DFTW2218      20220310181AD2004ZZ              CIVUSAS-S 0.35X4 B       CCN000001200000001200FN00000000020220501000001200NNM   20220208111328    1W    00000030000002799900000000032D1    TOYOT-K 000000000000KO422031
BI00B32D1    @DFTW2218      20220310181E48031ZZ              CAVSAS-S 0.3X2 GY        CCN000004550000004550FN00000000020220501000004550NNM   20220208111328    1W    00000035000002008700000000032D1    TOYOT-K 000000000000KO422032
BI00B32D1    @DFTW2218      20220310181E48037ZZ              CAVSAS-S 0.3X4 GY        CCN000006250000006250FN00000000020220501000006250NNM   20220208111328    1W    00000025000003262000000000032D1    TOYOT-K 000000000000KO422035
BI00B32D1    @DFTW2218      20220310181E48041ZZ              CAVSAS-S 0.3X2 GY/R      CCN000008050000008050FN00000000020220501000008050NNM   20220208111328    1W    00000035000002008700000000032D1    TOYOT-K 000000000000KO422034
BI00B32D1    @DFTW2218      20220310181E48072ZZ              CAVSAS-S 0.3X2 GY/G      CCN000000350000000350FN00000000020220501000000350NNM   20220208111328    1W    00000035000002008700000000032D1    TOYOT-K 000000000000KO422033
BI00B32D1    @DFTW2218      20220310181E50002ZZ              AVSSCS-S 0.3FX2 DGY/G    CCN000007700000007700FN00000000020220501000007700NNM   20220208111328    1W    00000035000002165000000000032D1    TOYOT-K 000000000000KO422041
BI00B32D1    @DFTW2218      20220310181E50004ZZ              AVSSCS-S 0.5FX1 DGY      CCN000006800000006800FN00000000020220501000006800NNM   20220208111328    1W    00000040000001909700000000032D1    TOYOT-K 000000000000KO422036
BI00B32D1    @DFTW2218      20220310181E50005ZZ              AVSSCS-S 0.5FX1 DGY/W    CCN000002000000002000FN00000000020220501000002000NNM   20220208111328    1W    00000040000001909700000000032D1    TOYOT-K 000000000000KO422039
BI00B32D1    @DFTW2218      20220310181E50007ZZ              AVSSCS-S 0.5FX1 DGY/L    CCN000004000000004000FN00000000020220501000004000NNM   20220208111328    1W    00000040000001909700000000032D1    TOYOT-K 000000000000KO422037
BI00B32D1    @DFTW2218      20220310181E50014ZZ              AVSSCS-S 0.5FX1 DGY/R    CCN000000400000000400FN00000000020220501000000400NNM   20220208111328    1W    00000040000001909700000000032D1    TOYOT-K 000000000000KO422038
BI00B32D1    @DFTW2218      20220310181E50020ZZ              AVSSCS-S 0.3FX2 DGY/R    CCN000005250000005250FN00000000020220501000005250NNM   20220208111328    1W    00000035000002165000000000032D1    TOYOT-K 000000000000KO422043
BI00B32D1    @DFTW2218      20220310181E50021ZZ              AVSSCS-S 0.3FX2 DGY/P    CCN000004200000004200FN00000000020220501000004200NNM   20220208111328    1W    00000035000002165000000000032D1    TOYOT-K 000000000000KO422042
BI00B32D1    @DFTW2218      20220310181E50036ZZ              AVSSCS-S 0.3FX2 DGY      CCN000006300000006300FN00000000020220501000006300NNM   20220208111328    1W    00000035000002165000000000032D1    TOYOT-K 000000000000KO422040
BI00B32D2    DGTW2218       2022031018000004530              AV 8 B                   CCN000036000000036000FN00000000020220501000036000NNM   20220208105727    1W    00000010000010466200000000032D2    TGYOT-G 000000000000KR422048
BI00B32D2    DGTW2218       2022031018000004540              AV 8 W                   CCN000011000000011000FN00000000020220501000011000NNM   20220208105727    1W    00000010000010466200000000032D2    TGYOT-G 000000000000KR422050
BI00B32D2    DGTW2218       2022031018000004543              AV 8 W/B                 CCN000004400000004400FN00000000020220501000004400NNM   20220208105727    1W    00000010000010466200000000032D2    TGYOT-G 000000000000KR422051
BI00B32D2    DGTW2218       2022031018000004590              AV 8 L                   CCN000007200000007200FN00000000020220501000007200NNM   20220208105727    1W    00000010000010466200000000032D2    TGYOT-G 000000000000KR422049
BI00B32D2    @DGTW2218      20220310181AD2002ZZ              CIVUSAS-S 0.35X2 B       CCN000020700000020700FN00000000020220501000020700NNM   20220208105725    1W    00000045000001713700000000032D2    TGYOT-G 000000000000KR422023
BI00B32D2    @DGTW2218      20220310181AD2003ZZ              CIVUSAS-S 0.35X3 B       CCN000008750000008750FN00000000020220501000008750NNM   20220208105725    1W    00000035000002172100000000032D2    TGYOT-G 000000000000KR422024
BI00B32D2    @DGTW2218      20220310181AD2004ZZ              CIVUSAS-S 0.35X4 B       CCN000012000000012000FN00000000020220501000012000NNM   20220208105725    1W    00000030000002799900000000032D2    TGYOT-G 000000000000KR422025
BI00B32D2    @DGTW2218      20220310181E48037ZZ              CAVSAS-S 0.3X4 GY        CCN000004000000004000FN00000000020220501000004000NNM   20220208105725    1W    00000025000003262000000000032D2    TGYOT-G 000000000000KR422026
BI00B32D2    @DGTW2218      20220310181E50004ZZ              AVSSCS-S 0.5FX1 DGY      CCN000012000000012000FN00000000020220501000012000NNM   20220208105725    1W    00000040000001909700000000032D2    TGYOT-G 000000000000KR422027
BI00B32D2    @DGTW2218      20220310181E50005ZZ              AVSSCS-S 0.5FX1 DGY/W    CCN000007200000007200FN00000000020220501000007200NNM   20220208105725    1W    00000040000001909700000000032D2    TGYOT-G 000000000000KR422029
BI00B32D2    @DGTW2218      20220310181E50007ZZ              AVSSCS-S 0.5FX1 DGY/L    CCN000002800000002800FN00000000020220501000002800NNM   20220208105725    1W    00000040000001909700000000032D2    TGYOT-G 000000000000KR422028
BI00B32D2    @DGTW2218      20220310181E50016ZZ              AVSSCS-S 0.5FX2 DGY/R    CCN000002700000002700FN00000000020220501000002700NNM   20220208105725    1W    00000030000003096000000000032D2    TGYOT-G 000000000000KR422030
BI00B32D2    @DGTW2218      20220310181E50036ZZ              AVSSCS-S 0.3FX2 DGY      CCN000001750000001750FN00000000020220501000001750NNM   20220208105725    1W    00000035000002165000000000032D2    TGYOT-G 000000000000KR422031
BI00B32D2    @DGTW2218      20220310181F21014ZZ              AVSSHCS-S 0.5FX2 B/L     CCN000005100000005100FN00000000020220501000005100NNM   20220208105725    1W    00000030000002531400000000032D2    TGYOT-G 000000000000KR422033
BI00B32D2    @DGTW2218      20220310181F21016ZZ              AVSSHCS-S 0.5FX2 B/BR    CCN000002400000002400FN00000000020220501000002400NNM   20220208105725    1W    00000030000002531400000000032D2    TGYOT-G 000000000000KR422032
BI00B32D2    @DGTW2218      20220310181F21031ZZ              AVSSHCS-S 1.25FX2 B/P    CCN000002800000002800FN00000000020220501000002800NNM   20220208105725    1W    00000020000004267300000000032D2    TGYOT-G 000000000000KR422034
BI00B32M1    TV2042         2022031718000004530              AV 8 B                   CCN000005600000005600FN00000000020220401000005600NNM   20220208142108    1W    00000010000010466200000000032M1    VNYEV   000000000000VE123051
BI00B32M1    TV2043         2022032418000004530              AV 8 B                   CCN000014900000014900FN00000000020220401000014900NNM   20220208142108    1W    00000010000010466200000000032M1    VNYEV   000000000000VE223066
BI00B32M1    TV2044         2022033118000004530              AV 8 B                   CCN000014100000014100FN00000000020220401000014100NNM   20220208142108    1W    00000010000010466200000000032M1    VNYEV   000000000000VE323044
BI00B32M1    TV2043         2022032418000004540              AV 8 W                   CCN000005000000005000FN00000000020220401000005000NNM   20220208142108    1W    00000010000010466200000000032M1    VNYEV   000000000000VE223067
BI00B32M1    TV2044         2022033118000004540              AV 8 W                   CCN000014000000014000FN00000000020220401000014000NNM   20220208142108    1W    00000010000010466200000000032M1    VNYEV   000000000000VE323045
BI00B32M1    TV2043         2022032418000004543              AV 8 W/B                 CCN000012300000012300FN00000000020220401000012300NNM   20220208142108    1W    00000010000010466200000000032M1    VNYEV   000000000000VE223068
BI00B32M1    TV2044         2022033118000004543              AV 8 W/B                 CCN000012300000012300FN00000000020220401000012300NNM   20220208142108    1W    00000010000010466200000000032M1    VNYEV   000000000000VE323046
BI00B32M1    TV2041         2022031018009604249              AVS 2 W/L                CCN000000500000000500FN00000000020220401000000500NNM   20220208142108    1W    00000050000002456500000000032M1    VNYEV   000000000000VE422045
BI00B32M1    TV2041         2022031018007703730              AVSS 0.3F B              CCN000006000000006000FN00000000020220401000006000NNM   20220208142108    1W    00000200000000496000000000032M1    VNYEV   000000000000VE422038
BI00B32M1    TV2042         2022031718007703730              AVSS 0.3F B              CCN000008000000008000FN00000000020220401000008000NNM   20220208142108    1W    00000200000000496000000000032M1    VNYEV   000000000000VE123052
BI00B32M1    TV2043         2022032418007703730              AVSS 0.3F B              CCN000010000000010000FN00000000020220401000010000NNM   20220208142108    1W    00000200000000496000000000032M1    VNYEV   000000000000VE223069
BI00B32M1    TV2044         2022033118007703730              AVSS 0.3F B              CCN000010000000010000FN00000000020220401000010000NNM   20220208142108    1W    00000200000000496000000000032M1    VNYEV   000000000000VE323047
BI00B32M1    TV2041         2022031018007703760              AVSS 0.3F G              CCN000002000000002000FN00000000020220401000002000NNM   20220208142108    1W    00000200000000496000000000032M1    VNYEV   000000000000VE422039
BI00B32M1    TV2042         2022031718007703760              AVSS 0.3F G              CCN000004000000004000FN00000000020220401000004000NNM   20220208142108    1W    00000200000000496000000000032M1    VNYEV   000000000000VE123053
BI00B32M1    TV2043         2022032418007703760              AVSS 0.3F G              CCN000004000000004000FN00000000020220401000004000NNM   20220208142108    1W    00000200000000496000000000032M1    VNYEV   000000000000VE223070
BI00B32M1    TV2044         2022033118007703760              AVSS 0.3F G              CCN000006000000006000FN00000000020220401000006000NNM   20220208142108    1W    00000200000000496000000000032M1    VNYEV   000000000000VE323048
BI00B32M1    TV2041         2022031018007703752              AVSS 0.3F P              CCN000002000000002000FN00000000020220401000002000NNM   20220208142108    1W    00000200000000496000000000032M1    VNYEV   000000000000VE422040
BI00B32M1    TV2042         2022031718007703752              AVSS 0.3F P              CCN000004000000004000FN00000000020220401000004000NNM   20220208142108    1W    00000200000000496000000000032M1    VNYEV   000000000000VE123054
BI00B32M1    TV2043         2022032418007703752              AVSS 0.3F P              CCN000006000000006000FN00000000020220401000006000NNM   20220208142108    1W    00000200000000496000000000032M1    VNYEV   000000000000VE223071
BI00B32M1    TV2044         2022033118007703752              AVSS 0.3F P              CCN000008000000008000FN00000000020220401000008000NNM   20220208142108    1W    00000200000000496000000000032M1    VNYEV   000000000000VE323049
BI00B32M1    TV2041         2022031018007703792              AVSS 0.3F V              CCN000008000000008000FN00000000020220401000008000NNM   20220208142108    1W    00000200000000496000000000032M1    VNYEV   000000000000VE422041
BI00B32M1    TV2042         2022031718007703792              AVSS 0.3F V              CCN000016000000016000FN00000000020220401000016000NNM   20220208142108    1W    00000200000000496000000000032M1    VNYEV   000000000000VE123055
BI00B32M1    TV2043         2022032418007703792              AVSS 0.3F V              CCN000018000000018000FN00000000020220401000018000NNM   20220208142108    1W    00000200000000496000000000032M1    VNYEV   000000000000VE223072
BI00B32M1    TV2044         2022033118007703792              AVSS 0.3F V              CCN000014000000014000FN00000000020220401000014000NNM   20220208142108    1W    00000200000000496000000000032M1    VNYEV   000000000000VE323050
BI00B32M1    TV2041         2022031018007703930              AVSS 0.5F B              CCN000001500000001500FN00000000020220401000001500NNM   20220208142108    1W    00000150000000674000000000032M1    VNYEV   000000000000VE422042
BI00B32M1    TV2042         2022031718007703930              AVSS 0.5F B              CCN000003000000003000FN00000000020220401000003000NNM   20220208142108    1W    00000150000000674000000000032M1    VNYEV   000000000000VE123056
BI00B32M1    TV2043         2022032418007703930              AVSS 0.5F B              CCN000004500000004500FN00000000020220401000004500NNM   20220208142108    1W    00000150000000674000000000032M1    VNYEV   000000000000VE223073
BI00B32M1    TV2044         2022033118007703930              AVSS 0.5F B              CCN000004500000004500FN00000000020220401000004500NNM   20220208142108    1W    00000150000000674000000000032M1    VNYEV   000000000000VE323051
BI00B32M1    TV2041         2022031018007703941              AVSS 0.5F GY             CCN000003000000003000FN00000000020220401000003000NNM   20220208142108    1W    00000150000000674000000000032M1    VNYEV   000000000000VE422043
BI00B32M1    TV2042         2022031718007703941              AVSS 0.5F GY             CCN000009000000009000FN00000000020220401000009000NNM   20220208142108    1W    00000150000000674000000000032M1    VNYEV   000000000000VE123057
BI00B32M1    TV2043         2022032418007703941              AVSS 0.5F GY             CCN000010500000010500FN00000000020220401000010500NNM   20220208142108    1W    00000150000000674000000000032M1    VNYEV   000000000000VE223074
BI00B32M1    TV2044         2022033118007703941              AVSS 0.5F GY             CCN000007500000007500FN00000000020220401000007500NNM   20220208142108    1W    00000150000000674000000000032M1    VNYEV   000000000000VE323052
BI00B32M1    TV2041         2022031018007703990              AVSS 0.5F L              CCN000003000000003000FN00000000020220401000003000NNM   20220208142108    1W    00000150000000674000000000032M1    VNYEV   000000000000VE422044
BI00B32M1    TV2042         2022031718007703990              AVSS 0.5F L              CCN000004500000004500FN00000000020220401000004500NNM   20220208142108    1W    00000150000000674000000000032M1    VNYEV   000000000000VE123058
BI00B32M1    TV2043         2022032418007703990              AVSS 0.5F L              CCN000004500000004500FN00000000020220401000004500NNM   20220208142108    1W    00000150000000674000000000032M1    VNYEV   000000000000VE223075
BI00B32M1    TV2044         2022033118007703990              AVSS 0.5F L              CCN000004500000004500FN00000000020220401000004500NNM   20220208142108    1W    00000150000000674000000000032M1    VNYEV   000000000000VE323053
BI00B32M1    TV2043         20220324180D0203750              AVSSH 0.3F R             CCN000002000000002000FN00000000020220401000002000NNM   20220208142108    1W    00000200000000515000000000032M1    VNYEV   000000000000VE223056
BI00B32M1    TV2043         20220324180D0203930              AVSSH 0.5F B             CCN000018000000018000FN00000000020220401000018000NNM   20220208142108    1W    00000150000000689000000000032M1    VNYEV   000000000000VE223057
BI00B32M1    TV2044         20220331180D0203930              AVSSH 0.5F B             CCN000015000000015000FN00000000020220401000015000NNM   20220208142108    1W    00000150000000689000000000032M1    VNYEV   000000000000VE323037
BI00B32M1    TV2043         20220324180D0203990              AVSSH 0.5F L             CCN000009000000009000FN00000000020220401000009000NNM   20220208142108    1W    00000150000000689000000000032M1    VNYEV   000000000000VE223058
BI00B32M1    TV2044         20220331180D0203990              AVSSH 0.5F L             CCN000007500000007500FN00000000020220401000007500NNM   20220208142108    1W    00000150000000689000000000032M1    VNYEV   000000000000VE323038
BI00B32M1    TV2042         20220317180D0203961              AVSSH 0.5F LG            CCN000001500000001500FN00000000020220401000001500NNM   20220208142108    1W    00000150000000689000000000032M1    VNYEV   000000000000VE123046
BI00B32M1    TV2041         20220310180D0203950              AVSSH 0.5F R             CCN000004500000004500FN00000000020220401000004500NNM   20220208142108    1W    00000150000000689000000000032M1    VNYEV   000000000000VE422034
BI00B32M1    TV2042         20220317180D0203950              AVSSH 0.5F R             CCN000004500000004500FN00000000020220401000004500NNM   20220208142108    1W    00000150000000689000000000032M1    VNYEV   000000000000VE123047
BI00B32M1    TV2043         20220324180D0203950              AVSSH 0.5F R             CCN000003000000003000FN00000000020220401000003000NNM   20220208142108    1W    00000150000000689000000000032M1    VNYEV   000000000000VE223059
BI00B32M1    TV2042         20220317180D0203940              AVSSH 0.5F W             CCN000015000000015000FN00000000020220401000015000NNM   20220208142108    1W    00000150000000689000000000032M1    VNYEV   000000000000VE123048
BI00B32M1    TV2043         20220324180D0203940              AVSSH 0.5F W             CCN000018000000018000FN00000000020220401000018000NNM   20220208142108    1W    00000150000000689000000000032M1    VNYEV   000000000000VE223060
BI00B32M1    TV2044         20220331180D0203940              AVSSH 0.5F W             CCN000019500000019500FN00000000020220401000019500NNM   20220208142108    1W    00000150000000689000000000032M1    VNYEV   000000000000VE323039
BI00B32M1    TV2041         20220310180D0204130              AVSSH 1.25F B            CCN000001600000001600FN00000000020220401000001600NNM   20220208142108    1W    00000080000001458000000000032M1    VNYEV   000000000000VE422035
BI00B32M1    TV2042         20220317180D0204130              AVSSH 1.25F B            CCN000002400000002400FN00000000020220401000002400NNM   20220208142108    1W    00000080000001458000000000032M1    VNYEV   000000000000VE123049
BI00B32M1    TV2043         20220324180D0204130              AVSSH 1.25F B            CCN000001600000001600FN00000000020220401000001600NNM   20220208142108    1W    00000080000001458000000000032M1    VNYEV   000000000000VE223061
BI00B32M1    TV2044         20220331180D0204130              AVSSH 1.25F B            CCN000001600000001600FN00000000020220401000001600NNM   20220208142108    1W    00000080000001458000000000032M1    VNYEV   000000000000VE323040
BI00B32M1    TV2041         20220310180D0204180              AVSSH 1.25F BR           CCN000000800000000800FN00000000020220401000000800NNM   20220208142108    1W    00000080000001458000000000032M1    VNYEV   000000000000VE422036
BI00B32M1    TV2043         20220324180D0204180              AVSSH 1.25F BR           CCN000000800000000800FN00000000020220401000000800NNM   20220208142108    1W    00000080000001458000000000032M1    VNYEV   000000000000VE223062
BI00B32M1    TV2043         20220324180D0204190              AVSSH 1.25F L            CCN000028800000028800FN00000000020220401000028800NNM   20220208142108    1W    00000080000001458000000000032M1    VNYEV   000000000000VE223063
BI00B32M1    TV2044         20220331180D0204190              AVSSH 1.25F L            CCN000028800000028800FN00000000020220401000028800NNM   20220208142108    1W    00000080000001458000000000032M1    VNYEV   000000000000VE323041
BI00B32M1    TV2041         20220310180D0204140              AVSSH 1.25F W            CCN000004000000004000FN00000000020220401000004000NNM   20220208142108    1W    00000080000001458000000000032M1    VNYEV   000000000000VE422037
BI00B32M1    TV2042         20220317180D0204140              AVSSH 1.25F W            CCN000004000000004000FN00000000020220401000004000NNM   20220208142108    1W    00000080000001458000000000032M1    VNYEV   000000000000VE123050
BI00B32M1    TV2043         20220324180D0204140              AVSSH 1.25F W            CCN000004000000004000FN00000000020220401000004000NNM   20220208142108    1W    00000080000001458000000000032M1    VNYEV   000000000000VE223064
BI00B32M1    TV2044         20220331180D0204140              AVSSH 1.25F W            CCN000002400000002400FN00000000020220401000002400NNM   20220208142108    1W    00000080000001458000000000032M1    VNYEV   000000000000VE323042
BI00B32M1    TV2043         20220324180D0204143              AVSSH 1.25F W/B          CCN000010400000010400FN00000000020220401000010400NNM   20220208142108    1W    00000080000001458000000000032M1    VNYEV   000000000000VE223065
BI00B32M1    TV2044         20220331180D0204143              AVSSH 1.25F W/B          CCN000016800000016800FN00000000020220401000016800NNM   20220208142108    1W    00000080000001458000000000032M1    VNYEV   000000000000VE323043
BI00B32M1    @TV2041        20220310181E50036ZZ              AVSSCS-S 0.3FX2 DGY      CCN000000350000000350FN00000000020220401000000350NNM   20220208142106    1W    00000035000002165000000000032M1    VNYEV   000000000000VE422033
BI00B32M1    @TV2042        20220317181E50036ZZ              AVSSCS-S 0.3FX2 DGY      CCN000000350000000350FN00000000020220401000000350NNM   20220208142106    1W    00000035000002165000000000032M1    VNYEV   000000000000VE123045
BI00B32M1    @TV2043        20220324181E50036ZZ              AVSSCS-S 0.3FX2 DGY      CCN000000700000000700FN00000000020220401000000700NNM   20220208142106    1W    00000035000002165000000000032M1    VNYEV   000000000000VE223055
BI00B32M1    @TV2044        20220331181E50036ZZ              AVSSCS-S 0.3FX2 DGY      CCN000000350000000350FN00000000020220401000000350NNM   20220208142106    1W    00000035000002165000000000032M1    VNYEV   000000000000VE323036
BI00B32M1    @TV2041        20220310181D69004ZZ              AVSSHCS 1.25FX2 B        CCN000000600000000600FN00000000020220401000000600NNM   20220208142106    1W    00000020000004357000000000032M1    VNYEV   000000000000VE422032
BI00B32M1    @TV2042        20220317181D69004ZZ              AVSSHCS 1.25FX2 B        CCN000000400000000400FN00000000020220401000000400NNM   20220208142106    1W    00000020000004357000000000032M1    VNYEV   000000000000VE123043
BI00B32M1    @TV2043        20220324181D69004ZZ              AVSSHCS 1.25FX2 B        CCN000000600000000600FN00000000020220401000000600NNM   20220208142106    1W    00000020000004357000000000032M1    VNYEV   000000000000VE223053
BI00B32M1    @TV2041        20220310181D6910230              AVSSHCS 0.5FX2 B         CCN000006600000006600FN00000000020220401000006600NNM   20220208142106    1W    00000030000002385000000000032M1    VNYEV   000000000000VE422030
BI00B32M1    @TV2042        20220317181D6910230              AVSSHCS 0.5FX2 B         CCN000003600000003600FN00000000020220401000003600NNM   20220208142106    1W    00000030000002385000000000032M1    VNYEV   000000000000VE123041
BI00B32M1    @TV2043        20220324181D6910230              AVSSHCS 0.5FX2 B         CCN000003900000003900FN00000000020220401000003900NNM   20220208142106    1W    00000030000002385000000000032M1    VNYEV   000000000000VE223051
BI00B32M1    @TV2044        20220331181D6910230              AVSSHCS 0.5FX2 B         CCN000002400000002400FN00000000020220401000002400NNM   20220208142106    1W    00000030000002385000000000032M1    VNYEV   000000000000VE323033
BI00B32M1    @TV2041        20220310181D6910235              AVSSHCS 0.5FX2 B/R       CCN000001800000001800FN00000000020220401000001800NNM   20220208142106    1W    00000030000002385000000000032M1    VNYEV   000000000000VE422031
BI00B32M1    @TV2042        20220317181D6910235              AVSSHCS 0.5FX2 B/R       CCN000001200000001200FN00000000020220401000001200NNM   20220208142106    1W    00000030000002385000000000032M1    VNYEV   000000000000VE123042
BI00B32M1    @TV2043        20220324181D6910235              AVSSHCS 0.5FX2 B/R       CCN000001200000001200FN00000000020220401000001200NNM   20220208142106    1W    00000030000002385000000000032M1    VNYEV   000000000000VE223052
BI00B32M1    @TV2044        20220331181D6910235              AVSSHCS 0.5FX2 B/R       CCN000001200000001200FN00000000020220401000001200NNM   20220208142106    1W    00000030000002385000000000032M1    VNYEV   000000000000VE323034
BI00B32M1    @TV2042        20220317181E48037ZZ              CAVSAS-S 0.3X4 GY        CCN000002750000002750FN00000000020220401000002750NNM   20220208142106    1W    00000025000003262000000000032M1    VNYEV   000000000000VE123044
BI00B32M1    @TV2043        20220324181E48037ZZ              CAVSAS-S 0.3X4 GY        CCN000004500000004500FN00000000020220401000004500NNM   20220208142106    1W    00000025000003262000000000032M1    VNYEV   000000000000VE223054
BI00B32M1    @TV2044        20220331181E48037ZZ              CAVSAS-S 0.3X4 GY        CCN000006000000006000FN00000000020220401000006000NNM   20220208142106    1W    00000025000003262000000000032M1    VNYEV   000000000000VE323035
BI00B32M1    @TV2043        20220324181AD2001ZZ              CIVUSAS-S 0.35X1 B       CCN000001650000001650FN00000000020220401000001650NNM   20220208142106    1W    00000055000001540800000000032M1    VNYEV   000000000000VE223046
BI00B32M1    @TV2043        20220324181AD2002ZZ              CIVUSAS-S 0.35X2 B       CCN000044550000044550FN00000000020220401000044550NNM   20220208142106    1W    00000045000001713700000000032M1    VNYEV   000000000000VE223048
BI00B32M1    @TV2044        20220331181AD2002ZZ              CIVUSAS-S 0.35X2 B       CCN000044550000044550FN00000000020220401000044550NNM   20220208142106    1W    00000045000001713700000000032M1    VNYEV   000000000000VE323030
BI00B32M1    @TV2043        20220324181AD2003ZZ              CIVUSAS-S 0.35X3 B       CCN000018900000018900FN00000000020220401000018900NNM   20220208142106    1W    00000035000002172100000000032M1    VNYEV   000000000000VE223049
BI00B32M1    @TV2044        20220331181AD2003ZZ              CIVUSAS-S 0.35X3 B       CCN000018900000018900FN00000000020220401000018900NNM   20220208142106    1W    00000035000002172100000000032M1    VNYEV   000000000000VE323031
BI00B32M1    @TV2043        20220324181AD2004ZZ              CIVUSAS-S 0.35X4 B       CCN000015000000015000FN00000000020220401000015000NNM   20220208142106    1W    00000030000002799900000000032M1    VNYEV   000000000000VE223050
BI00B32M1    @TV2044        20220331181AD2004ZZ              CIVUSAS-S 0.35X4 B       CCN000015000000015000FN00000000020220401000015000NNM   20220208142106    1W    00000030000002799900000000032M1    VNYEV   000000000000VE323032
BI00B32M1    @TV2042        20220317181AD2007ZZ              CIVUSAS-S 0.5X1 B        CCN000004500000004500FN00000000020220401000004500NNM   20220208142106    1W    00000050000001639600000000032M1    VNYEV   000000000000VE123040
BI00B32M1    @TV2043        20220324181AD2007ZZ              CIVUSAS-S 0.5X1 B        CCN000004000000004000FN00000000020220401000004000NNM   20220208142106    1W    00000050000001639600000000032M1    VNYEV   000000000000VE223047
BI00B32M1    @TV2044        20220331181AD2007ZZ              CIVUSAS-S 0.5X1 B        CCN000006500000006500FN00000000020220401000006500NNM   20220208142106    1W    00000050000001639600000000032M1    VNYEV   000000000000VE323029
BI00B32Q8    EW2203ETMW     20220302180D0203741              AVSSH 0.3F GY            CCN000012000000012000FN00000000020220301000012000NNE20 20220208130132    1W    00000200000000515000000000032Q8    EMEMI   000000000000MY424013
BI00B32U5    @DW2016        20220318181AD2013ZZ              CIVUSAS-S 1.25X2 B       CCN000002640000002640FN00000000020220601000002640NNE   20220208100855U5  1W    00000022000003840000000000032U5    ASAMSD  000000000000AM123017
BI00B32U5    @DW2016        20220318181E48011ZZ              CAVSAS-S 0.3X1 GY/W      CCN000002000000002000FN00000000020220601000002000NNE   20220208100855U5  1W    00000050000001529500000000032U5    ASAMSD  000000000000AM123018
BI00B32U5    DW2017         202203251801W004050              IVSSH 0.75F R            CCN000002600000002600FN00000000020220601000002600NNM   20220208102718U5  1W    00000130000000882000000000032U5    ASAMSD  000000000000AM223020
BI00B32U5    DW2017         202203251801W004052              IVSSH 0.75F P            CCN000005200000005200FN00000000020220601000005200NNM   20220208102718U5  1W    00000130000000882000000000032U5    ASAMSD  000000000000AM223019
BI00B32U5    @DW2017        20220325181E48011ZZ              CAVSAS-S 0.3X1 GY/W      CCN000004000000004000FN00000000020220601000004000NNM   20220208102716U5  1W    00000050000001529500000000032U5    ASAMSD  000000000000AM223018
BI00B32X5    TWB2016        202203181801W00395U              IVSSH 0.5F BE            CCN000001800000001800FN00000000020220601000001800NNE   20220208101852X5  1W    00000180000000625000000000032X5    EPYNA-E 000000000000AE123011
BI00B32X5    TWB2016        202203181801W006930              IVSSH 0.35F B            CCN000020000000020000FN00000000020220601000020000NNE   20220208101852X5  1W    00000250000000452000000000032X5    EPYNA-E 000000000000AE123012
BI00B32X5    TWB2016        202203181801W006940              IVSSH 0.35F W            CCN000025000000025000FN00000000020220601000025000NNE   20220208101852X5  1W    00000250000000452000000000032X5    EPYNA-E 000000000000AE123017
BI00B32X5    TWB2016        202203181801W006943              IVSSH 0.35F W/B          CCN000007500000007500FN00000000020220601000007500NNE   20220208101852X5  1W    00000250000000452000000000032X5    EPYNA-E 000000000000AE123018
BI00B32X5    TWB2016        202203181801W006950              IVSSH 0.35F R            CCN000015000000015000FN00000000020220601000015000NNE   20220208101852X5  1W    00000250000000452000000000032X5    EPYNA-E 000000000000AE123015
BI00B32X5    TWB2016        202203181801W006952              IVSSH 0.35F P            CCN000002500000002500FN00000000020220601000002500NNE   20220208101852X5  1W    00000250000000452000000000032X5    EPYNA-E 000000000000AE123014
BI00B32X5    TWB2016        202203181801W006960              IVSSH 0.35F G            CCN000012500000012500FN00000000020220601000012500NNE   20220208101852X5  1W    00000250000000452000000000032X5    EPYNA-E 000000000000AE123013
BI00B32X5    TWB2016        202203181801W006992              IVSSH 0.35F V            CCN000002500000002500FN00000000020220601000002500NNE   20220208101852X5  1W    00000250000000452000000000032X5    EPYNA-E 000000000000AE123016
BI00B32X5    TWB2017        202203251801W003941              IVSSH 0.5F GY            CCN000001800000001800FN00000000020220601000001800NNM   20220208104122X5  1W    00000180000000625000000000032X5    EPYNA-E 000000000000AE223009
BI00B32X5    TWB2017        202203251801W003943              IVSSH 0.5F W/B           CCN000001800000001800FN00000000020220601000001800NNM   20220208104122X5  1W    00000180000000625000000000032X5    EPYNA-E 000000000000AE223010
BI00B32X5    TWB2017        202203251801W00395U              IVSSH 0.5F BE            CCN000001800000001800FN00000000020220601000001800NNM   20220208104122X5  1W    00000180000000625000000000032X5    EPYNA-E 000000000000AE223008
BI00B32X5    TWB2017        202203251801W006930              IVSSH 0.35F B            CCN000025000000025000FN00000000020220601000025000NNM   20220208104122X5  1W    00000250000000452000000000032X5    EPYNA-E 000000000000AE223011
BI00B32X5    TWB2017        202203251801W006943              IVSSH 0.35F W/B          CCN000012500000012500FN00000000020220601000012500NNM   20220208104122X5  1W    00000250000000452000000000032X5    EPYNA-E 000000000000AE223015
BI00B32X5    TWB2017        202203251801W006950              IVSSH 0.35F R            CCN000020000000020000FN00000000020220601000020000NNM   20220208104122X5  1W    00000250000000452000000000032X5    EPYNA-E 000000000000AE223013
BI00B32X5    TWB2017        202203251801W006960              IVSSH 0.35F G            CCN000010000000010000FN00000000020220601000010000NNM   20220208104122X5  1W    00000250000000452000000000032X5    EPYNA-E 000000000000AE223012
BI00B32X5    TWB2017        202203251801W006992              IVSSH 0.35F V            CCN000002500000002500FN00000000020220601000002500NNM   20220208104122X5  1W    00000250000000452000000000032X5    EPYNA-E 000000000000AE223014
