BI00A1200    2399T51A23     202202077289-3342-30             HOUSING FEMALE ASS'Y     CCN000009600000009600FY00000960020211201000000000NNM00020220208113042    1N0N  0000024000000068640000090141200    YCYC    005500360039
BI00B1200    Y022C50013     202203037289-5979-30             HOUSING FEMALE ASS'Y     CCN000000252000000252FN00000000020220301000000252NNMD0420220208171130    1N0N  0000002520000085470000106471200    YCYC    005400370024
BI00B1200    Y022C50024     202203037289-5979-30             HOUSING FEMALE ASS'Y     CCN000000252000000252FN00000000020220301000000252NNMD0420220208171152    1N0N  0000002520000085470000106471200    YCYC    005400370024
BI00B1200    7360T52205     202203177289-5979-30             HOUSING FEMALE ASS'Y     CCN000000252000000252FN00000000020220301000000252NNED0420220208171102    1N0N  0000002520000085470000106471200    YCYC    005400370024
BI00B1200    8870T52204     202203177288-3340-30             HOUSING MALE             CCN000001500000001500FN00000000020220401000001500NNE   20220208122736    4N0N  0000015000000086150000100641200    YCYC    005400370024
BI00B1200    8870T52204     202203177289-3342                HOUSING FEMALE ASS'Y     CCN000002400000002400FN00000000020220401000002400NNE   20220208122736    1N0N  0000024000000068640000090141200    YCYC    005500360039
BI00B1200    8870T52205     202204077288-3340-30             HOUSING MALE             CCN000001500000001500FN00000000020220501000001500NNE   20220208122736    4N0N  0000015000000086150000100641200    YCYC    005400370024
BI00B1200    8870T52206     202205057288-3340-30             HOUSING MALE             CCN000001500000001500FN00000000020220601000001500NNE   20220208122736    4N0N  0000015000000086150000100641200    YCYC    005400370024
BI00B1200    #MKH2022-015   202202107189-3032-40             HOUSING FEMALE           CCN000001600000001600FN00000000020220201000001600NNE   20220208131417    2F0F  0000016000000080480000102481200    YCYC    005500360039
BI00A1200    MKH2022-021    202202237195-1934-02             TERMINAL MALE            CCN000024000000024000FN00000000020220201000024000NNE   20220208130634    4P0P  0000240000000080160000109521200    YCYC    006400630015
BI00A1200    MKH2022-021    202202237196-2032-02             TERMINAL FEMALE          CCN000015000000015000FN00000000020220201000015000NNE   20220208130634    4P0P  0000150000000107100000123441200    YCYC    005100280028
BI00A1200    MKH2022-021    202202237196-1933-02             TERMINAL FEMALE          CCN000021000000021000FN00000000020220201000021000NNE   20220208130634    4P0P  0000210000000067080000000001200    YCYC    006400630015
BI00A1200    MKH2022-021    202202237195-1938-02             TERMINAL MALE            CCN000013500000021000FN00000000020220201000021000NNE   20220208130634    4P0P  0000210000000085050000117911200    YCYC    006400630017
BI00A1200    MKH2022-021    202202237196-1947-02             TERMINAL FEMALE          CCN000009000000009000FN00000000020220201000009000NNE   20220208130634    4POP  0000090000000040770000069291200    YCYC    006400630015
BI00B32DG    RP2034B        202203037114-5748-02             TERMINAL                 CCN000012000000012000FN00000000020220301000012000NNE   20220208122736    4P0P  00001200000000444000000737632DG    BFSAIBF 006400630015
BI00B32DG    RP2034B        202203037282-4577                HOUSING MALE ASS'Y       CCN000002400000002400FN00000000020220301000002400NNE   20220208122736    4N0N  00000240000000964800001174832DG    BFSAIBF 005500360039
BI00B32DG    RP2034B        202203037116-5097-02             TERMINAL                 CCN000022500000022500FN00000000020220301000022500NNE   20220208122736    4P0P  00002250000000531000000816232DG    BFSAIBF 006400630015
BI00B32DG    @RP2034B       202203037283-1061-30             CONNECTOR SUB ASSY       CCN000002400000002400FN00000000020220301000002400NNE   20220208122736    3N0N  00000240000000833500001069032DG    BFSAIBF 005500360039
BI00B32D1    DFTC2216       202202177296-1025-02             TERMINAL ALUMINIUM       CCN000018000000018000FN00000000020220401000018000NNMD0020220208132720    4P0P  00001800000000635400000920632D1    TOYOT-K 006400630015
BI00A32D2    DGTC2210       202202097289-3342-30             HOUSING FEMALE ASS'Y     PCN000036000000036000FN00000000020220301000036000NNM00020220208122736    1N0N  00000240000000686400000901432D2    TGYOT-G 005500360039
BI00A32D2    #DGTC2211      202202157172-5630-40             RUBBER STOPPER           PCN000420000000420000FN00000000020220301000420000NNM00020220208122736    2H0H  00002000000000044000000095132D2    TGYOT-G 004300270014
BI00B32D2    #DGTC2218      202204217172-5629-80             RUBBER STOPPER           CCN000500000000500000FN00000000020220501000500000NNMD0420220208122736    2H0H  00002000000000060000000111132D2    TGYOT-G 004300270014
BI00B32D2    #DGTC2218      202204217172-5630-40             RUBBER STOPPER           CCN000320000000320000FN00000000020220501000320000NNMD0420220208122736    2H0H  00002000000000044000000095132D2    TGYOT-G 004300270014
BI00B32EJ    #T220207P01    202203317282-3020                CONNECTOR                CCN000003000000003000FN00000000020220301000003000NNE   20220208122736EJ  2N0N  00000100000000984000001145432EJ    EJYKBO  005500360039
BI00B32E1    #NC2043        202202157158-3003-90             RUBBER STOPPER           CCN000020000000020000FN00000000020220301000020000NNM00020220208122736    2C0C  00002000000000250000000306032E1    SPYSE   002700430014
BI00B32E1    NC2061         202203237017-1180-02             TERMINAL                 CCN000072000000072000FN00000000020220501000072000NNM   20220208122736    4P0P  00007200000001065600001229032E1    SPYSE   005100280028
BI00B32E1    NC2061         202203237017-1182-02             TERMINAL                 CCN000045000000045000FN00000000020220501000045000NNM   20220208122736    4P0P  00004500000001165500001318632E1    SPYSE   005100280028
BI00B32E1    NC2061         202203237017-1183-02             TERMINAL                 CCN000027000000027000FN00000000020220501000027000NNM   20220208122736    4P0P  00002700000001139400001307432E1    SPYSE   005100280028
BI00B32E1    NC2061         202203237116-1257-02             TERMINAL                 CCN000024000000024000FN00000000020220501000024000NNM   20220208122736    1P0P  00002400000000518400000847132E1    SPYSE   006400630017
BI00B32E1    NC2064         202204067116-1685-02             TERMINAL                 CCN000024000000024000FN00000000020220501000024000NNM   20220208122736    4P0P  00002400000000897600001065232E1    SPYSE   005100280028
BI00B32E1    NC2063         202204067116-4121-02             TERMINAL                 CCN000004500000004500FN00000000020220501000004500NNM   20220208122736    4P0P  00000450000000618800000912432E1    SPYSE   006400630015
BI00B32E1    NC2064         202204067116-4121-02             TERMINAL                 CCN000004500000004500FN00000000020220501000004500NNM   20220208122736    4P0P  00000450000000618800000912432E1    SPYSE   006400630015
BI00B32E1    NC2063         202204067116-4122-02             TERMINAL                 CCN000004500000004500FN00000000020220501000004500NNM   20220208122736    4P0P  00000450000000656600000950232E1    SPYSE   006400630015
BI00B32E1    NC2064         202204067116-4122-02             TERMINAL                 CCN000004500000004500FN00000000020220501000004500NNM   20220208122736    4P0P  00000450000000656600000950232E1    SPYSE   006400630015
BI00B32E1    NC2061         202203237126-8851-02             TERMINAL                 CCN000009000000009000FN00000000020220501000009000NNM   20220208122736    1P0P  00000900000000739800001025032E1    SPYSE   006400630015
BI00B32E1    NC2061         202203237154-3176                COVER                    CCN000000400000000400FN00000000020220501000000400NNM   20220208122736    1F0F  00000005000000426000000580332E1    SPYSE   005600390040
BI00B32E1    NC2061         202203237158-3006-90             RUBBER STOPPER           CCN000020000000020000FN00000000020220501000020000NNM   20220208122736    1C0C  00002000000000330600000386032E1    SPYSE   002700430014
BI00B32E1    NC2062         202203307158-3006-90             RUBBER STOPPER           CCN000020000000020000FN00000000020220501000020000NNM   20220208122736    1C0C  00002000000000330600000386032E1    SPYSE   002700430014
BI00B32E1    NC2063         202204067158-3006-90             RUBBER STOPPER           CCN000020000000020000FN00000000020220501000020000NNM   20220208122736    1C0C  00002000000000330600000386032E1    SPYSE   002700430014
BI00B32E1    NC2064         202204067158-3006-90             RUBBER STOPPER           CCN000020000000020000FN00000000020220501000020000NNM   20220208122736    1C0C  00002000000000330600000386032E1    SPYSE   002700430014
BI00B32E1    NC2061         202203237158-3168-80             SEALED                   CCN000020000000020000FN00000000020220501000020000NNM   20220208122736    1C0C  00002000000000044000000092132E1    SPYSE   004300260014
BI00B32E1    NC2064         202204067158-3168-80             SEALED                   CCN000020000000020000FN00000000020220501000020000NNM   20220208122736    1C0C  00002000000000044000000092132E1    SPYSE   004300260014
BI00B32E1    NC2062         202203307254-1884-30             PRIMARY PDB BASE         CCN000000252000000252FN00000000020220501000000252NNM   20220208122736    4N0N  00000003600001160000001390732E1    SPYSE   005600390040
BI00B32E1    NC2063         202204067254-1884-30             PRIMARY PDB BASE         CCN000000180000000180FN00000000020220501000000180NNM   20220208122736    4N0N  00000003600001160000001390732E1    SPYSE   005600390040
BI00B32E1    NC2063         202204067282-6448-40             CONNECTOR                CCN000000800000000800FN00000000020220501000000800NNM   20220208122736    4N0N  00000080000000887000001152732E1    SPYSE   005600390040
BI00B32E1    NC2063         202204067282-6568-40             CONNECTOR                CCN000001000000001000FN00000000020220501000001000NNM   20220208122736    4N0N  00000100000001206000001370732E1    SPYSE   005500360039
BI00B32E1    NC2064         202204067282-6568-40             CONNECTOR                CCN000001000000001000FN00000000020220501000001000NNM   20220208122736    4N0N  00000100000001206000001370732E1    SPYSE   005500360039
BI00B32E1    NC2061         202203237283-6448-40             CONNECTOR                CCN000001500000001500FN00000000020220501000001500NNM   20220208122736    4N0N  00000150000001087000001329032E1    SPYSE   005600390040
BI00B32E1    NC2064         202204067288-3329-30             HOUSING MALE             CCN000001500000001500FN00000000020220501000001500NNM   20220208122736    4N0N  00000150000000866100001011132E1    SPYSE   005400370024
BI00B32E1    NC2061         202203237289-3342-30             HOUSING FEMALE ASS'Y     CCN000002400000002400FN00000000020220501000002400NNM   20220208122736    1N0N  00000240000000686400000901432E1    SPYSE   005500360039
BI00B32E1    #NC2063        202204067154-3424-30             REAR HOLDER              CCN000003000000003000FN00000000020220501000003000NNM   20220208122736    2F0F  00000300000000975000001138632E1    SPYSE   005500360039
BI00B32E1    #NC2061        202203237154-5616-30             SECONDARY PDB BASE       CCN000000480000000480FN00000000020220501000000480NNM   20220208122736    2F0F  00000004800000806400001009132E1    SPYSE   005600390040
BI00B32E1    #NC2061        202203237157-3790-90             WIRE SEAL                CCN000020000000020000FN00000000020220501000020000NNM   20220208122736    2C0C  00002000000000176000000232732E1    SPYSE   002700430014
BI00B32E1    #NC2063        202204067158-3003-90             RUBBER STOPPER           CCN000020000000020000FN00000000020220501000020000NNM   20220208122736    2C0C  00002000000000250000000306032E1    SPYSE   002700430014
BI00B32E1    #NC2061        202203237158-3004-40             RUBBER STOPPER           CCN000020000000020000FN00000000020220501000020000NNM   20220208122736    2C0C  00002000000000234000000306332E1    SPYSE   002700430014
BI00B32E1    #NC2064        202204067182-2410                CONNECTOR HOUSING        CCN000001200000001200FN00000000020220501000001200NNM   20220208122736    2F0F  00000120000000959800001245632E1    SPYSE   005500360039
BI00B32E2    NY2061         202203237116-1473                TERMINAL                 CCN000027000000027000FN00000000020220501000027000NNM   20220208122736    4P0P  00001350000000523800000809032E2    SPYSE   006400630015
BI00B32E2    NY2062         202203307116-1685-02             TERMINAL                 CCN000024000000024000FN00000000020220501000024000NNM   20220208122736    4P0P  00002400000000897600001065232E2    SPYSE   005100280028
BI00B32E2    NY2061         202203237126-8851-02             TERMINAL                 CCN000018000000018000FN00000000020220501000018000NNM   20220208122736    1P0P  00000900000000739800001025032E2    SPYSE   006400630015
BI00B32E2    NY2061         202203237158-3166-60             WIRE SEAL                CCN000480000000480000FN00000000020220501000480000NNM   20220208122736    1C0C  00004000000000104000000152432E2    SPYSE   002700430014
BI00B32E2    NY2063         202204067158-3166-60             WIRE SEAL                CCN000120000000240000FN00000000020220501000240000NNMQ0020220208122736    1C0C  00004000000000104000000152432E2    SPYSE   002700430014
BI00B32E2    NY2064         202204067158-3166-60             WIRE SEAL                CCN000120000000000000FY00000000020220501000000000NNMQ0820220208114932    1C0C  00004000000000104000000152432E2    SPYSE   002700430014
BI00B32E2    #NY2061        202203237157-3790-90             WIRE SEAL                CCN000020000000020000FN00000000020220501000020000NNM   20220208122736    2C0C  00002000000000176000000232732E2    SPYSE   002700430014
BI00B32E2    #NY2061        202203237158-3121-80             WIRE SEAL                CCN000040000000040000FN00000000020220501000040000NNM   20220208122736    2C0C  00002000000000118000000187332E2    SPYSE   002700430014
BI00B32E2    #NY2063        202204067158-3121-80             WIRE SEAL                CCN000020000000040000FN00000000020220501000040000NNMQ0020220208122736    2C0C  00002000000000118000000187332E2    SPYSE   002700430014
BI00B32E2    #NY2064        202204067158-3121-80             WIRE SEAL                CCN000020000000000000FY00000000020220501000000000NNMQ0820220208114922    2C0C  00002000000000118000000187332E2    SPYSE   002700430014
BI00B32E2    #NY2061        202203237282-3020                CONNECTOR                CCN000001000000001000FN00000000020220501000001000NNM   20220208122736    2N0N  00000100000000984000001145432E2    SPYSE   005500360039
BI00B32E2    #NY2064        202204067158-3003-90             RUBBER STOPPER           CCN000020000000020000FN00000000020220601000020000NNM   20220208122736    2C0C  00002000000000250000000306032E2    SPYSE   002700430014
BI00B32G0    TZ22041EMW     202202157116-5045-02             TERMINAL                 CCN000336000000336000FN00000000020220401000336000NNMD0020220208122736    4P0P  00001600000000678400001007132G0    TTTJY   006400630017
BI00B32G0    TZ22041EMW     202202157116-5046-02             TERMINAL                 CCN000156000000156000FN00000000020220401000156000NNMD0020220208122736    4P0P  00001200000000544800000873532G0    TTTJY   006400630017
BI00B32G0    TZ22041EMW     202202157126-8853-02             TERMINAL                 CCN000142500000142500FN00000000020220401000142500NNMD0020220208122736    4P0P  00000750000000562500000847732G0    TTTJY   006400630015
BI00B32G7    JJ2202D MW     202202177289-3342-30             HOUSING FEMALE ASS'Y     CCN000007200000004800FN00000000020220201000004800NNEQ0820220208142925    1N0N  00000240000000686400000901432G7    JIJAI   005500360039
BI00B32H0    #TT22033VMW    202202157172-5629-80             RUBBER STOPPER           CCN000220000000220000FN00000000020220301000220000NNM00020220208161409    2H0H  00002000000000060000000111132H0    TTTJY   004300270014
BI00B32H0    TT22051VMW     202203227327-6731-3W             BATTERY FUSE             CCN000011008000005504FN00000000020220501000005504NNMD0420220208122736    4N0N  00000006400000697600000843032H0    TTTJY   005400370024
BI00B32H0    #TT22051VMW    202203297172-5629-80             RUBBER STOPPER           CCN000320000000320000FN00000000020220501000320000NNMD0420220208122736    2H0H  00002000000000060000000111132H0    TTTJY   004300270014
BI00B32H0    TT2203EVMW     202204057289-6547                HOUSING FEMALE ASS'Y     CCN000002400000002400FN00000000020220301000002400NNED0420220208122736    1N0N  00000240000001152000001362032H0    TTTJY   005500360039
BI00B32H0    #TT2203EVMW    202203227172-5629-80             RUBBER STOPPER           CCN000340000000340000FN00000000020220301000340000NNED0420220208122736    2H0H  00002000000000060000000111132H0    TTTJY   004300270014
BI00B32H0    TT22051VMW     202203297327-6731-3W             BATTERY FUSE             CCN000005504000005504FN00000000020220501000005504NNMD0420220208122736    4N0N  00000006400000697600000843032H0    TTTJY   005400370024
BI00B32H0    TT2204AVMW     202203087327-6809                MULTI FUSE               CCN000000560000000560FN00000000020220401000000560NNED0420220208122736    4N0N  00000056000000849300001061732H0    TTTJY   005400370024
BI00B32H2    TIJ2025        202203047289-3342-30             HOUSING FEMALE ASS'Y     CCN000120000000084000FN00000000020220201000084000NNMD0420220208143413    1N0N  00000240000000686400000901432H2    HVYHV   005500360039
BI00B32H2    #TIJ2033       202202257282-1641                CONNECTOR                CCN000036000000022000FN00000000020220301000022000NNMD0620220208152050    2N0N  00000200000000813000000986032H2    HVYHV   005500360039
BI00A32H2    TIJ2025        202202147289-3342-30             HOUSING FEMALE ASS'Y     CCN000036000000036000FN00000000020220201000036000NNMM0020220208143423    1N0N  00000240000000686400000901432H2    HVYHV   005500360039
BI00B32H2    #TIJ2033       202203117282-1641                CONNECTOR                CCN000014000000014000FN00000000020220301000014000NNMD0220220208152059    2N0N  00000200000000813000000986032H2    HVYHV   005500360039
BI00B32J1    389733         202202077114-1670-02             TERMINAL                 CCN000024000000024000FY00002400020220201000000000NNE00020220208113145    1P0P  00002400000000357600000645832J1    UKYEL-BL006400630015
BI00A32J1    390042         202202047114-4100-02             TERMINAL                 CCN003960000003924000FY00392400020220201000000000NNE00020220208135219    4P0P  00001800000000748800001077432J1    UKYEL-BL006400630017
BI00A32J1    390042         202202047114-4101-02             TERMINAL                 CCN001800000001770000FY00177000020220201000000000NNE00020220208135241    4P0P  00001500000000675000001003632J1    UKYEL-BL006400630017
BI00B32J1    390382         202202077116-1180                TERMINAL                 CCN000039000000039000FY00003900020220201000000000NNM00020220208113237    1P0P  00001950000000618200000903432J1    UKYEL-BL006400630015
BI00B32J1    390382         202202077158-3070-80             RUBBER STOPPER           CCN000040000000040000FY00004000020220201000000000NNM00020220208113237    1C0C  00004000000000276000000333332J1    UKYEL-BL002700430014
BI00B32J1    390382         202202077158-3165-90             WIRE SEAL                CCN000280000000280000FY00028000020220201000000000NNM00020220208113237    1C0C  00004000000000124000000172432J1    UKYEL-BL004300270014
BI00B32J1    390382         202202077158-3166-60             WIRE SEAL                CCN002160000002160000FY00216000020220201000000000NNM00020220208113237    1C0C  00004000000000104000000152432J1    UKYEL-BL002700430014
BI00B32J1    390382         202202077158-3167-80             WIRE SEAL                CCN002640000002640000FY00264000020220201000000000NNM00020220208113237    1C0C  00002000000000048000000109032J1    UKYEL-BL002700430014
BI00B32J1    390382         202202077158-3168-80             SEALED                   CCN001600000001600000FY00160000020220201000000000NNM00020220208113237    1C0C  00002000000000044000000092132J1    UKYEL-BL004300260014
BI00B32J1    390382         202202077283-1968-30             CONNECTOR                CCN000006300000006300FY00000630020220201000000000NNM00020220208113237    1N0N  00000090000001140000001318332J1    UKYEL-BL005600390040
BI00B32J1    390382         202202077288-7969                HYBRID MALE ASS'Y        CCN000025280000025280FY00002528020220201000000000NNM00020220208113237    1N0N  00000032000000876200001101732J1    UKYEL-BL005400370024
BI00A32J1    390042         202202117114-4100-02             TERMINAL                 CCN000036000000036000FN00000000020220201000036000NNE00020220208135219    4P0P  00001800000000748800001077432J1    UKYEL-BL006400630017
BI00A32J1    390042         202202117114-4101-02             TERMINAL                 CCN000030000000030000FN00000000020220201000030000NNE00020220208135241    4P0P  00001500000000675000001003632J1    UKYEL-BL006400630017
BI00B32M3    SM22041DMW     202202247282-4578-40             HOUSING MALE ASS'Y       CCN000001200000001200FN00000000020220401000001200NNMD0020220208122736    4N0N  00000120000000782600000992632M3    SASAMI  005500360039
BI00B32M4    TP2033         202203037289-5979-30             HOUSING FEMALE ASS'Y     CCN000000756000000756FN00000000020220301000000756NNMD0420220208132830    1N0N  00000025200000854700001064732M4    SISAI   005400370024
BI00B32M4    #TL2034B       202203037158-8627                GROMMET INNER            CCN000002000000002000FN00000000020220301000002000NNE   20220208141252    2F0F  00000200000000656200000840032M4    SISAI   005600390040
BI00B32M4    TP2034D        202203037114-4030                TERMINAL                 CCN000010500000010500FN00000000020220301000010500NNE   20220208141304    4P0P  00001050000000926100001254732M4    SISAI   006400630017
BI00B32M4    TP2034D        202203037116-4025                TERMINAL                 CCN000016000000016000FN00000000020220301000016000NNE   20220208141304    4P0P  00001600000000644800000975132M4    SISAI   006400630017
BI00B32M4    TP2034D        202203037158-3023                RUBBER STOPPER           CCN000005000000005000FN00000000020220301000005000NNE   20220208141304    1C0C  00000500000000443500000502032M4    SISAI   002700430014
BI00B32M4    TP2034D        202203037327-6983-30             MAIN FUSE                CCN000000600000000600FN00000000020220301000000600NNE   20220208141304    4N0N  00000060000000748800000951532M4    SISAI   005400370024
BI00B32M4    TP2034D        202203037327-6985-30             MULTI FUSE               CCN000000576000000576FN00000000020220301000000576NNE   20220208141304    4N0N  00000028800000886100001052032M4    SISAI   005400370024
BI00B32P8    TAPI-205A1     202203027114-5096-02             TERMINAL                 CCN000060000000000000FY00000000020220501000000000NNMQ0820220208153502    4P0P  00003000000000498000000792232P8    YIYTM   006400630015
BI00B32P8    TAPI-205A1     202203027116-4120-02             TERMINAL                 CCN000030000000000000FY00000000020220501000000000NNMQ0820220208153502    4P0P  00000600000000780000001073632P8    YIYTM   006400630015
BI00B32P8    TAPI-205A1     202203027126-8855-02             TERMINAL                 CCN000012000000000000FY00000000020220501000000000NNMQ0820220208153502    4P0P  00000600000000510600000795832P8    YIYTM   006400630015
BI00B32P8    TAPI-205A1     202203027196-0510-02             TERMINAL                 CCN000048000000000000FY00000000020220501000000000NNMQ0820220208153502    4P0P  00002400000000871200001034632P8    YIYTM   002800510028
BI00B32P8    TAPI-205A1     202203027196-1103-02             TERMINAL                 CCN001215000000000000FY00000000020220501000000000NNMQ0820220208153502    4P0P  00002250000000429800000715032P8    YIYTM   006400630015
BI00B32P8    TAPI-205A1     202203027222-7484-30             CONNECTOR                CCN000003000000000000FY00000000020220501000000000NNMQ0820220208153502    4N0N  00000100000001030000001175732P8    YIYTM   005500360039
BI00B32P8    #TAPI-205A1    202203027172-5629-80             RUBBER STOPPER           CCN000500000000000000FY00000000020220501000000000NNMQ0820220208153441    2H0H  00002000000000060000000111132P8    YIYTM   004300270014
BI00B32P8    #TAPI-205A1    202203027187-8856                HOUSING FEMALE           CCN000002000000000000FY00000000020220501000000000NNMQ0820220208153441    2F0F  00000200000000820000000931532P8    YIYTM   005400370024
BI00B32P8    #TAPI-205A1    202203027172-5632-10             DUMMY PLUG               CCN000342000000000000FY00000000020220501000000000NNMQ0820220208153441    2H0H  00002000000000080400000131832P8    YIYTM   004300270014
BI00B32P8    TAPI-2054      202204207158-3169-40             SEALING PLUG             CCN000080000000000000FY00000000020220501000000000NNM00820220208161240    1C0C  00004000000000156000000204132P8    YIYTM   004300260014
BI00B32P8    TAPI-2055      202204277158-3169-40             SEALING PLUG             CCN000160000000000000FY00000000020220501000000000NNM00820220208161924    1C0C  00004000000000156000000204132P8    YIYTM   004300260014
BI00B32P8    TAPI-2055      202204277157-7915-80             REAR HOLDER              CCN000010000000000000FY00000000020220501000000000NNM00820220208161924    1F0F  00001000000001110000001364032P8    YIYTM   005500360039
BI00B32P8    TAPI-2055      202204277158-3006-90             RUBBER STOPPER           CCN000240000000000000FY00000000020220501000000000NNM00820220208161924    1C0C  00002000000000330600000386032P8    YIYTM   002700430014
BI00B32P8    TAPI-2054      202204207158-3009-60             RUBBER STOPPER           CCN000160000000000000FY00000000020220501000000000NNM00920220208161240    1C0C  00002000000000338000000386232P8    YIYTM   002700430014
BI00B32P8    TAPI-2055      202204277158-3009-60             RUBBER STOPPER           CCN000240000000000000FY00000000020220501000000000NNM00820220208161924    1C0C  00002000000000338000000386232P8    YIYTM   002700430014
BI00B32P8    TAPI-2052      202204067158-3070-80             RUBBER STOPPER           CCN000040000000000000FY00000000020220501000000000NNM00820220208160524    1C0C  00004000000000276000000333332P8    YIYTM   002700430014
BI00B32P8    TAPI-2055      202204277158-3070-80             RUBBER STOPPER           CCN000040000000000000FY00000000020220501000000000NNM00820220208161924    1C0C  00004000000000276000000333332P8    YIYTM   002700430014
BI00B32P8    TAPI-2053      202204127158-3165-90             WIRE SEAL                CCN000120000000000000FY00000000020220501000000000NNM00820220208160844    1C0C  00004000000000124000000172432P8    YIYTM   004300270014
BI00B32P8    TAPI-2054      202204207158-3165-90             WIRE SEAL                CCN000280000000000000FY00000000020220501000000000NNM00820220208161240    1C0C  00004000000000124000000172432P8    YIYTM   004300270014
BI00B32P8    TAPI-2055      202204277158-3165-90             WIRE SEAL                CCN000240000000000000FY00000000020220501000000000NNM00820220208161924    1C0C  00004000000000124000000172432P8    YIYTM   004300270014
BI00B32P8    TAPI-2053      202204127158-3166-60             WIRE SEAL                CCN000240000000000000FY00000000020220501000000000NNM00820220208160844    1C0C  00004000000000104000000152432P8    YIYTM   002700430014
BI00B32P8    TAPI-2054      202204207158-3166-60             WIRE SEAL                CCN000240000000000000FY00000000020220501000000000NNM00820220208161240    1C0C  00004000000000104000000152432P8    YIYTM   002700430014
BI00B32P8    TAPI-2055      202204277158-3166-60             WIRE SEAL                CCN000280000000000000FY00000000020220501000000000NNM00820220208161924    1C0C  00004000000000104000000152432P8    YIYTM   002700430014
BI00B32P8    TAPI-2054      202204207158-3167-80             WIRE SEAL                CCN000080000000000000FY00000000020220501000000000NNM00820220208161240    1C0C  00002000000000048000000109032P8    YIYTM   002700430014
BI00B32P8    TAPI-2055      202204277158-3167-80             WIRE SEAL                CCN000240000000000000FY00000000020220501000000000NNM00820220208161924    1C0C  00002000000000048000000109032P8    YIYTM   002700430014
BI00B32P8    TAPI-2055      202204277114-1470                TERMINAL                 CCN000066000000000000FY00000000020220501000000000NNM00820220208161924    4P0P  00001650000000544500000838732P8    YIYTM   006400630015
BI00B32P8    TAPI-2051      202203307114-1475                TERMINAL                 CCN000013500000000000FY00000000020220501000000000NNMQ0820220208154854    4P0P  00001350000000480600000774232P8    YIYTM   006400630015
BI00B32P8    TAPI-2053      202204127114-1475                TERMINAL                 CCN000013500000000000FY00000000020220501000000000NNM00820220208160844    4P0P  00001350000000480600000774232P8    YIYTM   006400630015
BI00B32P8    TAPI-2051      202203307114-1670-02             TERMINAL                 CCN000024000000000000FY00000000020220501000000000NNMQ0820220208154854    1P0P  00002400000000357600000645832P8    YIYTM   006400630015
BI00B32P8    TAPI-2054      202204207114-1670-02             TERMINAL                 CCN000024000000000000FY00000000020220501000000000NNM00820220208161240    1P0P  00002400000000357600000645832P8    YIYTM   006400630015
BI00B32P8    TAPI-2055      202204277114-4020                TERMINAL                 CCN000042000000000000FY00000000020220501000000000NNM00820220208161924    4P0P  00002100000000875700001169332P8    YIYTM   006400630015
BI00B32P8    TAPI-2055      202204277114-4021                TERMINAL                 CCN000030000000000000FY00000000020220501000000000NNM00820220208161924    4P0P  00001500000000670500000964132P8    YIYTM   006400630015
BI00B32P8    TAPI-2052      202204067114-4032                TERMINAL                 CCN000007500000000000FY00000000020220501000000000NNM00820220208160524    4P0P  00000750000000735000001063632P8    YIYTM   006400630017
BI00B32P8    TAPI-2055      202204277114-4032                TERMINAL                 CCN000007500000000000FY00000000020220501000000000NNM00820220208161924    4P0P  00000750000000735000001063632P8    YIYTM   006400630017
BI00B32P8    TAPI-2054      202204207114-4100-02             TERMINAL                 CCN000018000000000000FY00000000020220501000000000NNM00820220208161240    4P0P  00001800000000748800001077432P8    YIYTM   006400630017
BI00B32P8    TAPI-2055      202204277114-4100-02             TERMINAL                 CCN000072000000000000FY00000000020220501000000000NNM00820220208161924    4P0P  00001800000000748800001077432P8    YIYTM   006400630017
BI00B32P8    TAPI-2051      202203307114-4101-02             TERMINAL                 CCN000015000000000000FY00000000020220501000000000NNMQ0820220208154854    4P0P  00001500000000675000001003632P8    YIYTM   006400630017
BI00B32P8    TAPI-2052      202204067114-4101-02             TERMINAL                 CCN000015000000000000FY00000000020220501000000000NNM00820220208160524    4P0P  00001500000000675000001003632P8    YIYTM   006400630017
BI00B32P8    TAPI-2053      202204127114-4101-02             TERMINAL                 CCN000015000000000000FY00000000020220501000000000NNM00820220208160844    4P0P  00001500000000675000001003632P8    YIYTM   006400630017
BI00B32P8    TAPI-2054      202204207114-4101-02             TERMINAL                 CCN000015000000000000FY00000000020220501000000000NNM00820220208161240    4P0P  00001500000000675000001003632P8    YIYTM   006400630017
BI00B32P8    TAPI-2055      202204277114-4101-02             TERMINAL                 CCN000015000000000000FY00000000020220501000000000NNM00820220208161924    4P0P  00001500000000675000001003632P8    YIYTM   006400630017
BI00B32P8    TAPI-2052      202204067114-4110-02             TERMINAL                 CCN000015000000000000FY00000000020220501000000000NNM00820220208160524    4P0P  00001500000000901500001230132P8    YIYTM   006400630017
BI00B32P8    TAPI-2053      202204127114-4110-02             TERMINAL                 CCN000060000000000000FY00000000020220501000000000NNM00820220208160844    4P0P  00001500000000901500001230132P8    YIYTM   006400630017
BI00B32P8    TAPI-2054      202204207114-4110-02             TERMINAL                 CCN000060000000000000FY00000000020220501000000000NNM00820220208161240    4P0P  00001500000000901500001230132P8    YIYTM   006400630017
BI00B32P8    TAPI-2055      202204277114-4110-02             TERMINAL                 CCN000060000000000000FY00000000020220501000000000NNM00820220208161924    4P0P  00001500000000901500001230132P8    YIYTM   006400630017
BI00B32P8    TAPI-2051      202203307114-4111-02             TERMINAL                 CCN000048000000000000FY00000000020220501000000000NNMQ0820220208154854    4P0P  00001200000000758400001087032P8    YIYTM   006400630017
BI00B32P8    TAPI-2052      202204067114-4111-02             TERMINAL                 CCN000024000000000000FY00000000020220501000000000NNM00820220208160524    4P0P  00001200000000758400001087032P8    YIYTM   006400630017
BI00B32P8    TAPI-2053      202204127114-4111-02             TERMINAL                 CCN000012000000000000FY00000000020220501000000000NNM00820220208160844    4P0P  00001200000000758400001087032P8    YIYTM   006400630017
BI00B32P8    TAPI-2054      202204207114-4111-02             TERMINAL                 CCN000024000000000000FY00000000020220501000000000NNM00820220208161240    4P0P  00001200000000758400001087032P8    YIYTM   006400630017
BI00B32P8    TAPI-2055      202204277114-4111-02             TERMINAL                 CCN000024000000000000FY00000000020220501000000000NNM00820220208161924    4P0P  00001200000000758400001087032P8    YIYTM   006400630017
BI00B32P8    TAPI-2053      202204127114-4112-02             TERMINAL                 CCN000018000000000000FY00000000020220501000000000NNM00820220208160844    4P0P  00000900000000598500000927132P8    YIYTM   006400630017
BI00B32P8    TAPI-2054      202204207114-4112-02             TERMINAL                 CCN000027000000000000FY00000000020220501000000000NNM00820220208161240    4P0P  00000900000000598500000927132P8    YIYTM   006400630017
BI00B32P8    TAPI-2055      202204277114-4112-02             TERMINAL                 CCN000018000000000000FY00000000020220501000000000NNM00820220208161924    4P0P  00000900000000598500000927132P8    YIYTM   006400630017
BI00B32P8    TAPI-2053      202204127114-4231-02             TERMINAL                 CCN000144000000000000FY00000000020220501000000000NNM00820220208160844    4P0P  00001800000000554400000848032P8    YIYTM   006400630015
BI00B32P8    TAPI-2054      202204207114-4231-02             TERMINAL                 CCN000162000000000000FY00000000020220501000000000NNM00820220208161240    4P0P  00001800000000554400000848032P8    YIYTM   006400630015
BI00B32P8    TAPI-2055      202204277114-4231-02             TERMINAL                 CCN000162000000000000FY00000000020220501000000000NNM00820220208161924    4P0P  00001800000000554400000848032P8    YIYTM   006400630015
BI00B32P8    TAPI-2054      202204207114-4415-02             TERMINAL MALE            CCN000054000000000000FY00000000020220501000000000NNM00820220208161240    4P0P  00002700000000429300000717532P8    YIYTM   006400630015
BI00B32P8    TAPI-2055      202204277114-4415-02             TERMINAL MALE            CCN000081000000000000FY00000000020220501000000000NNM00820220208161924    4P0P  00002700000000429300000717532P8    YIYTM   006400630015
BI00B32P8    TAPI-2051      202203307114-4416-02             TERMINAL MALE            CCN000081000000000000FY00000000020220501000000000NNMQ0820220208154854    4P0P  00002700000000442800000731032P8    YIYTM   006400630015
BI00B32P8    TAPI-2052      202204067114-4416-02             TERMINAL MALE            CCN000054000000000000FY00000000020220501000000000NNM00820220208160524    4P0P  00002700000000442800000731032P8    YIYTM   006400630015
BI00B32P8    TAPI-2053      202204127114-4416-02             TERMINAL MALE            CCN000054000000000000FY00000000020220501000000000NNM00820220208160844    4P0P  00002700000000442800000731032P8    YIYTM   006400630015
BI00B32P8    TAPI-2054      202204207114-4416-02             TERMINAL MALE            CCN000027000000000000FY00000000020220501000000000NNM00820220208161240    4P0P  00002700000000442800000731032P8    YIYTM   006400630015
BI00B32P8    TAPI-2055      202204277114-4416-02             TERMINAL MALE            CCN000054000000000000FY00000000020220501000000000NNM00820220208161924    4P0P  00002700000000442800000731032P8    YIYTM   006400630015
BI00B32P8    TAPI-2053      202204127114-4728-02             TERMINAL                 CCN000030000000000000FY00000000020220501000000000NNM08 20220208160844    4P0P  00003000000000510000000804232P8    YIYTM   006400630015
BI00B32P8    TAPI-2054      202204207114-4728-02             TERMINAL                 CCN000060000000000000FY00000000020220501000000000NNM00820220208161240    4P0P  00003000000000510000000804232P8    YIYTM   006400630015
BI00B32P8    TAPI-2055      202204277114-4728-02             TERMINAL                 CCN000060000000000000FY00000000020220501000000000NNM00820220208161924    4P0P  00003000000000510000000804232P8    YIYTM   006400630015
BI00B32P8    TAPI-2054      202204207114-4729-02             TERMINAL                 CCN000060000000000000FY00000000020220501000000000NNM00820220208161240    4P0P  00003000000000516000000810232P8    YIYTM   006400630015
BI00B32P8    TAPI-2055      202204277114-4729-02             TERMINAL                 CCN000030000000000000FY00000000020220501000000000NNM00820220208161924    4P0P  00003000000000516000000810232P8    YIYTM   006400630015
BI00B32P8    TAPI-2054      202204207114-5746-02             TERMINAL                 CCN000021000000000000FY00000000020220501000000000NNM00820220208161240    4P0P  00002100000000695100000988732P8    YIYTM   006400630015
BI00B32P8    TAPI-2051      202203307114-5753-02             TERMINAL                 CCN000027000000000000FY00000000020220501000000000NNMQ0820220208154854    4P0P  00002700000000847800001141432P8    YIYTM   006400630015
BI00B32P8    TAPI-2055      202204277116-1180                TERMINAL                 CCN000019500000000000FY00000000020220501000000000NNM00820220208161924    1P0P  00001950000000618200000903432P8    YIYTM   006400630015
BI00B32P8    TAPI-2055      202204277116-1471                TERMINAL                 CCN000045000000000000FY00000000020220501000000000NNM00820220208161924    4P0P  00001500000000579000000867232P8    YIYTM   006400630015
BI00B32P8    TAPI-2054      202204207116-1486-02             TERMINAL                 CCN000033000000000000FY00000000020220501000000000NNM00820220208161240    4P0P  00001650000000655100000940332P8    YIYTM   006400630015
BI00B32P8    TAPI-2055      202204277116-1486-02             TERMINAL                 CCN000165000000000000FY00000000020220501000000000NNM00820220208161924    4P0P  00001650000000655100000940332P8    YIYTM   006400630015
BI00B32P8    TAPI-2055      202204277116-1685-02             TERMINAL                 CCN000024000000000000FY00000000020220501000000000NNM00820220208161924    4P0P  00002400000000897600001065232P8    YIYTM   005100280028
BI00B32P8    TAPI-2053      202204127116-1687-02             TERMINAL FEMALE          CCN000024000000000000FY00000000020220501000000000NNM00820220208160844    4P0P  00002400000000303200000909632P8    YIYTM   005100280028
BI00B32P8    TAPI-2054      202204207116-1687-02             TERMINAL FEMALE          CCN000024000000000000FY00000000020220501000000000NNM00820220208161240    4P0P  00002400000000303200000909632P8    YIYTM   005100280028
BI00B32P8    TAPI-2055      202204277116-1687-02             TERMINAL FEMALE          CCN000048000000000000FY00000000020220501000000000NNM00820220208161924    4P0P  00002400000000303200000909632P8    YIYTM   005100280028
BI00B32P8    TAPI-2055      202204277116-2640                TERMINAL                 CCN000036000000000000FY00000000020220501000000000NNM00820220208161924    4P0P  00001800000001018800001196632P8    YIYTM   005100280028
BI00B32P8    TAPI-2054      202204207116-2641                TERMINAL                 CCN000036000000000000FY00000000020220501000000000NNM00820220208161240    4P0P  00001800000001161000001344632P8    YIYTM   005100280028
BI00B32P8    TAPI-2055      202204277116-2641                TERMINAL                 CCN000018000000000000FY00000000020220501000000000NNM00820220208161924    4P0P  00001800000001161000001344632P8    YIYTM   005100280028
BI00B32P8    TAPI-2052      202204067116-2870                TERMINAL                 CCN000012000000000000FY00000000020220501000000000NNM00820220208160524    1P0P  00001200000000783600001020232P8    YIYTM   005100280028
BI00B32P8    TAPI-2053      202204127116-2870                TERMINAL                 CCN000012000000000000FY00000000020220501000000000NNM00820220208160844    1P0P  00001200000000783600001020232P8    YIYTM   005100280028
BI00B32P8    TAPI-2054      202204207116-2870                TERMINAL                 CCN000012000000000000FY00000000020220501000000000NNM00820220208161240    1P0P  00001200000000783600001020232P8    YIYTM   005100280028
BI00B32P8    TAPI-2055      202204277116-2870                TERMINAL                 CCN000012000000000000FY00000000020220501000000000NNM00820220208161924    1P0P  00001200000000783600001020232P8    YIYTM   005100280028
BI00B32P8    TAPI-2055      202204277116-2871                TERMINAL                 CCN000012000000000000FY00000000020220501000000000NNM00820220208161924    1P0P  00001200000000842400001072632P8    YIYTM   005100280028
BI00B32P8    TAPI-2053      202204127116-2891-02             TERMINAL                 CCN000015000000000000FY00000000020220501000000000NNM00820220208160844    4P0P  00001500000000982500001145932P8    YIYTM   005100280028
BI00B32P8    TAPI-2054      202204207116-2891-02             TERMINAL                 CCN000015000000000000FY00000000020220501000000000NNM00820220208161240    4P0P  00001500000000982500001145932P8    YIYTM   005100280028
BI00B32P8    TAPI-2055      202204277116-2891-02             TERMINAL                 CCN000030000000000000FY00000000020220501000000000NNM00820220208161924    4P0P  00001500000000982500001145932P8    YIYTM   005100280028
BI00B32P8    TAPI-2055      202204277116-2892-02             TERMINAL                 CCN000012000000000000FY00000000020220501000000000NNM00820220208161924    4P0P  00001200000000818400000981832P8    YIYTM   005100280028
BI00B32P8    TAPI-2054      202204207116-2893-02             TERMINAL                 CCN000024000000000000FY00000000020220501000000000NNM00820220208161240    4P0P  00001200000000895200001058632P8    YIYTM   005100280028
BI00B32P8    TAPI-2055      202204277116-2893-02             TERMINAL                 CCN000012000000000000FY00000000020220501000000000NNM00820220208161924    4P0P  00001200000000895200001058632P8    YIYTM   005100280028
BI00B32P8    TAPI-2052      202204067116-2951                TERMINAL                 CCN000005400000000000FY00000000020220501000000000NNM00820220208160524    4P0P  00000540000000815900001110132P8    YIYTM   006400630015
BI00B32P8    TAPI-2053      202204127116-2951                TERMINAL                 CCN000005400000000000FY00000000020220501000000000NNM00820220208160844    4P0P  00000540000000815900001110132P8    YIYTM   006400630015
BI00B32P8    TAPI-2054      202204207116-2951                TERMINAL                 CCN000005400000000000FY00000000020220501000000000NNM00820220208161240    4P0P  00000540000000815900001110132P8    YIYTM   006400630015
BI00B32P8    TAPI-2055      202204277116-2951                TERMINAL                 CCN000005400000000000FY00000000020220501000000000NNM00820220208161924    4P0P  00000540000000815900001110132P8    YIYTM   006400630015
BI00B32P8    TAPI-2051      202203307116-2951-02             TERMINAL                 CCN000027000000000000FY00000000020220501000000000NNMQ0820220208154854    4P0P  00000540000000817600001111832P8    YIYTM   006400630015
BI00B32P8    TAPI-2052      202204067116-2951-02             TERMINAL                 CCN000010800000000000FY00000000020220501000000000NNM00820220208160524    4P0P  00000540000000817600001111832P8    YIYTM   006400630015
BI00B32P8    TAPI-2053      202204127116-2951-02             TERMINAL                 CCN000010800000000000FY00000000020220501000000000NNM00820220208160844    4P0P  00000540000000817600001111832P8    YIYTM   006400630015
BI00B32P8    TAPI-2054      202204207116-2951-02             TERMINAL                 CCN000016200000000000FY00000000020220501000000000NNM00820220208161240    4P0P  00000540000000817600001111832P8    YIYTM   006400630015
BI00B32P8    TAPI-2055      202204277116-2951-02             TERMINAL                 CCN000010800000000000FY00000000020220501000000000NNM00820220208161924    4P0P  00000540000000817600001111832P8    YIYTM   006400630015
BI00B32P8    TAPI-2053      202204127116-3153-08             TERMINAL                 CCN000027000000000000FY00000000020220501000000000NNM00820220208160844    4P0P  00002700000000461700000746932P8    YIYTM   006400630015
BI00B32P8    TAPI-2054      202204207116-3153-08             TERMINAL                 CCN000027000000000000FY00000000020220501000000000NNM00820220208161240    4P0P  00002700000000461700000746932P8    YIYTM   006400630015
BI00B32P8    TAPI-2055      202204277116-3153-08             TERMINAL                 CCN000054000000000000FY00000000020220501000000000NNM00820220208161924    4P0P  00002700000000461700000746932P8    YIYTM   006400630015
BI00B32P8    TAPI-2053      202204127116-3154-08             TERMINAL                 CCN000027000000000000FY00000000020220501000000000NNM00820220208160844    4P0P  00002700000000475200000760432P8    YIYTM   006400630015
BI00B32P8    TAPI-2055      202204277116-3154-08             TERMINAL                 CCN000027000000000000FY00000000020220501000000000NNM00820220208161924    4P0P  00002700000000475200000760432P8    YIYTM   006400630015
BI00B32P8    TAPI-2053      202204127116-4020                TERMINAL                 CCN000148500000000000FY00000000020220501000000000NNM00820220208160844    4P0P  00001350000000513000000798232P8    YIYTM   006400630015
BI00B32P8    TAPI-2054      202204207116-4020                TERMINAL                 CCN000310500000000000FY00000000020220501000000000NNM00820220208161240    4P0P  00001350000000513000000798232P8    YIYTM   006400630015
BI00B32P8    TAPI-2055      202204277116-4020                TERMINAL                 CCN000310500000000000FY00000000020220501000000000NNM00820220208161924    4P0P  00001350000000513000000798232P8    YIYTM   006400630015
BI00B32P8    TAPI-2053      202204127116-4022                TERMINAL                 CCN000013500000000000FY00000000020220501000000000NNM00820220208160844    4P0P  00001350000000618300000903532P8    YIYTM   006400630015
BI00B32P8    TAPI-2054      202204207116-4022                TERMINAL                 CCN000040500000000000FY00000000020220501000000000NNM00820220208161240    4P0P  00001350000000618300000903532P8    YIYTM   006400630015
BI00B32P8    TAPI-2055      202204277116-4022                TERMINAL                 CCN000027000000000000FY00000000020220501000000000NNM00820220208161924    4P0P  00001350000000618300000903532P8    YIYTM   006400630015
BI00B32P8    TAPI-2054      202204207116-4025                TERMINAL                 CCN000096000000000000FY00000000020220501000000000NNM00820220208161240    4P0P  00001600000000644800000975132P8    YIYTM   006400630017
BI00B32P8    TAPI-2055      202204277116-4025                TERMINAL                 CCN000144000000000000FY00000000020220501000000000NNM00820220208161924    4P0P  00001600000000644800000975132P8    YIYTM   006400630017
BI00B32P8    TAPI-2053      202204127116-4026                TERMINAL                 CCN000032000000000000FY00000000020220501000000000NNM00820220208160844    4P0P  00001600000000664000000994332P8    YIYTM   006400630017
BI00B32P8    TAPI-2054      202204207116-4026                TERMINAL                 CCN000048000000000000FY00000000020220501000000000NNM00820220208161240    4P0P  00001600000000664000000994332P8    YIYTM   006400630017
BI00B32P8    TAPI-2055      202204277116-4026                TERMINAL                 CCN000048000000000000FY00000000020220501000000000NNM00820220208161924    4P0P  00001600000000664000000994332P8    YIYTM   006400630017
BI00B32P8    TAPI-2051      202203307116-4028-08             TERMINAL FEMALE          CCN000016000000000000FY00000000020220501000000000NNMQ0820220208154854    4P0P  00001600000000652800000981532P8    YIYTM   006400630017
BI00B32P8    TAPI-2052      202204067116-4028-08             TERMINAL FEMALE          CCN000208000000000000FY00000000020220501000000000NNM00820220208160524    4P0P  00001600000000652800000981532P8    YIYTM   006400630017
BI00B32P8    TAPI-2053      202204127116-4028-08             TERMINAL FEMALE          CCN000192000000000000FY00000000020220501000000000NNM00820220208160844    4P0P  00001600000000652800000981532P8    YIYTM   006400630017
BI00B32P8    TAPI-2054      202204207116-4028-08             TERMINAL FEMALE          CCN000208000000000000FY00000000020220501000000000NNM00820220208161240    4P0P  00001600000000652800000981532P8    YIYTM   006400630017
BI00B32P8    TAPI-2055      202204277116-4028-08             TERMINAL FEMALE          CCN000192000000000000FY00000000020220501000000000NNM00820220208161924    4P0P  00001600000000652800000981532P8    YIYTM   006400630017
BI00B32P8    TAPI-2051      202203307116-4029-08             TERMINAL FEMALE          CCN000016000000000000FY00000000020220501000000000NNMQ0820220208154854    4P0P  00001600000000670400000999132P8    YIYTM   006400630017
BI00B32P8    TAPI-2052      202204067116-4029-08             TERMINAL FEMALE          CCN000016000000000000FY00000000020220501000000000NNM00820220208160524    4P0P  00001600000000670400000999132P8    YIYTM   006400630017
BI00B32P8    TAPI-2053      202204127116-4029-08             TERMINAL FEMALE          CCN000016000000000000FY00000000020220501000000000NNM00820220208160844    4P0P  00001600000000670400000999132P8    YIYTM   006400630017
BI00B32P8    TAPI-2055      202204277116-4029-08             TERMINAL FEMALE          CCN000016000000000000FY00000000020220501000000000NNM00820220208161924    4P0P  00001600000000670400000999132P8    YIYTM   006400630017
BI00B32P8    TAPI-2055      202204277116-4031                TERMINAL                 CCN000007500000000000FY00000000020220501000000000NNM00820220208161924    4P0P  00000750000000619500000904732P8    YIYTM   006400630015
BI00B32P8    TAPI-2053      202204127116-4032                TERMINAL                 CCN000012000000000000FY00000000020220501000000000NNM00820220208160844    4P0P  00000600000000532800000818032P8    YIYTM   006400630015
BI00B32P8    TAPI-2054      202204207116-4032                TERMINAL                 CCN000024000000000000FY00000000020220501000000000NNM00820220208161240    4P0P  00000600000000532800000818032P8    YIYTM   006400630015
BI00B32P8    TAPI-2055      202204277116-4032                TERMINAL                 CCN000024000000000000FY00000000020220501000000000NNM00820220208161924    4P0P  00000600000000532800000818032P8    YIYTM   006400630015
BI00B32P8    TAPI-2051      202203307116-4037                TERMINAL                 CCN000006000000000000FY00000000020220501000000000NNMQ0820220208154854    4P0P  00000600000000600000000894232P8    YIYTM   006400630015
BI00B32P8    TAPI-2052      202204067116-4037                TERMINAL                 CCN000018000000000000FY00000000020220501000000000NNM00820220208160524    4P0P  00000600000000600000000894232P8    YIYTM   006400630015
BI00B32P8    TAPI-2053      202204127116-4037                TERMINAL                 CCN000024000000000000FY00000000020220501000000000NNM00820220208160844    4P0P  00000600000000600000000894232P8    YIYTM   006400630015
BI00B32P8    TAPI-2054      202204207116-4037                TERMINAL                 CCN000024000000000000FY00000000020220501000000000NNM00820220208161240    4P0P  00000600000000600000000894232P8    YIYTM   006400630015
BI00B32P8    TAPI-2055      202204277116-4037                TERMINAL                 CCN000018000000000000FY00000000020220501000000000NNM00820220208161924    4P0P  00000600000000600000000894232P8    YIYTM   006400630015
BI00B32P8    TAPI-2051      202203307116-4100-02             TERMINAL                 CCN000075000000000000FY00000000020220501000000000NNMQ0820220208154854    4P0P  00001500000000696000000990232P8    YIYTM   006400630015
BI00B32P8    TAPI-2052      202204067116-4100-02             TERMINAL                 CCN000060000000000000FY00000000020220501000000000NNM00820220208160524    4P0P  00001500000000696000000990232P8    YIYTM   006400630015
BI00B32P8    TAPI-2053      202204127116-4100-02             TERMINAL                 CCN000060000000000000FY00000000020220501000000000NNM00820220208160844    4P0P  00001500000000696000000990232P8    YIYTM   006400630015
BI00B32P8    TAPI-2054      202204207116-4100-02             TERMINAL                 CCN000060000000000000FY00000000020220501000000000NNM00820220208161240    4P0P  00001500000000696000000990232P8    YIYTM   006400630015
BI00B32P8    TAPI-2055      202204277116-4100-02             TERMINAL                 CCN000060000000000000FY00000000020220501000000000NNM00820220208161924    4P0P  00001500000000696000000990232P8    YIYTM   006400630015
BI00B32P8    TAPI-2052      202204067116-4101-02             TERMINAL                 CCN000012000000000000FY00000000020220501000000000NNM00820220208160524    4P0P  00001200000000582000000876232P8    YIYTM   006400630015
BI00B32P8    TAPI-2053      202204127116-4101-02             TERMINAL                 CCN000012000000000000FY00000000020220501000000000NNM00820220208160844    4P0P  00001200000000582000000876232P8    YIYTM   006400630015
BI00B32P8    TAPI-2054      202204207116-4101-02             TERMINAL                 CCN000012000000000000FY00000000020220501000000000NNM00820220208161240    4P0P  00001200000000582000000876232P8    YIYTM   006400630015
BI00B32P8    TAPI-2055      202204277116-4101-02             TERMINAL                 CCN000012000000000000FY00000000020220501000000000NNM00820220208161924    4P0P  00001200000000582000000876232P8    YIYTM   006400630015
BI00B32P8    TAPI-2052      202204067116-4110-02             TERMINAL                 CCN000018000000000000FY00000000020220501000000000NNM00820220208160524    4P0P  00000900000000594000000882232P8    YIYTM   006400630015
BI00B32P8    TAPI-2053      202204127116-4110-02             TERMINAL                 CCN000027000000000000FY00000000020220501000000000NNM00820220208160844    4P0P  00000900000000594000000882232P8    YIYTM   006400630015
BI00B32P8    TAPI-2054      202204207116-4110-02             TERMINAL                 CCN000027000000000000FY00000000020220501000000000NNM00820220208161240    4P0P  00000900000000594000000882232P8    YIYTM   006400630015
BI00B32P8    TAPI-2055      202204277116-4110-02             TERMINAL                 CCN000027000000000000FY00000000020220501000000000NNM00820220208161924    4P0P  00000900000000594000000882232P8    YIYTM   006400630015
BI00B32P8    TAPI-2054      202204207116-4111-02             TERMINAL                 CCN000015000000000000FY00000000020220501000000000NNM00820220208161240    4P0P  00000750000000529500000817732P8    YIYTM   006400630015
BI00B32P8    TAPI-2055      202204277116-4111-02             TERMINAL                 CCN000015000000000000FY00000000020220501000000000NNM00820220208161924    4P0P  00000750000000529500000817732P8    YIYTM   006400630015
BI00B32P8    TAPI-2052      202204067116-4112-02             TERMINAL                 CCN000090000000000000FY00000000020220501000000000NNM00820220208160524    4P0P  00000600000000450000000738232P8    YIYTM   006400630015
BI00B32P8    TAPI-2053      202204127116-4112-02             TERMINAL                 CCN000090000000000000FY00000000020220501000000000NNM00820220208160844    4P0P  00000600000000450000000738232P8    YIYTM   006400630015
BI00B32P8    TAPI-2054      202204207116-4112-02             TERMINAL                 CCN000090000000000000FY00000000020220501000000000NNM00820220208161240    4P0P  00000600000000450000000738232P8    YIYTM   006400630015
BI00B32P8    TAPI-2055      202204277116-4112-02             TERMINAL                 CCN000090000000000000FY00000000020220501000000000NNM00820220208161924    4P0P  00000600000000450000000738232P8    YIYTM   006400630015
BI00B32P8    TAPI-2054      202204207116-4116-02             TERMINAL                 CCN000006900000000000FY00000000020220501000000000NNM00820220208161240    4P0P  00000690000000517500000805732P8    YIYTM   006400630015
BI00B32P8    TAPI-2055      202204277116-4116-02             TERMINAL                 CCN000013800000000000FY00000000020220501000000000NNM00820220208161924    4P0P  00000690000000517500000805732P8    YIYTM   006400630015
BI00B32P8    TAPI-2051      202203307116-4120-02             TERMINAL                 CCN000036000000000000FY00000000020220501000000000NNMQ0820220208154854    4P0P  00000600000000780000001073632P8    YIYTM   006400630015
BI00B32P8    TAPI-2052      202204067116-4120-02             TERMINAL                 CCN000030000000000000FY00000000020220501000000000NNM00820220208160524    4P0P  00000600000000780000001073632P8    YIYTM   006400630015
BI00B32P8    TAPI-2053      202204127116-4120-02             TERMINAL                 CCN000024000000000000FY00000000020220501000000000NNM00820220208160844    4P0P  00000600000000780000001073632P8    YIYTM   006400630015
BI00B32P8    TAPI-2054      202204207116-4120-02             TERMINAL                 CCN000030000000000000FY00000000020220501000000000NNM00820220208161240    4P0P  00000600000000780000001073632P8    YIYTM   006400630015
BI00B32P8    TAPI-2055      202204277116-4120-02             TERMINAL                 CCN000024000000000000FY00000000020220501000000000NNM00820220208161924    4P0P  00000600000000780000001073632P8    YIYTM   006400630015
BI00B32P8    TAPI-2051      202203307116-4121-02             TERMINAL                 CCN000121500000000000FY00000000020220501000000000NNM00820220208154854    4P0P  00000450000000618800000912432P8    YIYTM   006400630015
BI00B32P8    TAPI-2052      202204067116-4121-02             TERMINAL                 CCN000072000000000000FY00000000020220501000000000NNM00820220208160524    4P0P  00000450000000618800000912432P8    YIYTM   006400630015
BI00B32P8    TAPI-2053      202204127116-4121-02             TERMINAL                 CCN000076500000000000FY00000000020220501000000000NNM00820220208160844    4P0P  00000450000000618800000912432P8    YIYTM   006400630015
BI00B32P8    TAPI-2054      202204207116-4121-02             TERMINAL                 CCN000072000000000000FY00000000020220501000000000NNM00820220208161240    4P0P  00000450000000618800000912432P8    YIYTM   006400630015
BI00B32P8    TAPI-2055      202204277116-4121-02             TERMINAL                 CCN000072000000000000FY00000000020220501000000000NNM00820220208161924    4P0P  00000450000000618800000912432P8    YIYTM   006400630015
BI00B32P8    TAPI-2052      202204067116-4122-02             TERMINAL                 CCN000054000000000000FY00000000020220501000000000NNM00820220208160524    4P0P  00000450000000656600000950232P8    YIYTM   006400630015
BI00B32P8    TAPI-2053      202204127116-4122-02             TERMINAL                 CCN000144000000000000FY00000000020220501000000000NNM00820220208160844    4P0P  00000450000000656600000950232P8    YIYTM   006400630015
BI00B32P8    TAPI-2054      202204207116-4122-02             TERMINAL                 CCN000139500000000000FY00000000020220501000000000NNM00820220208161240    4P0P  00000450000000656600000950232P8    YIYTM   006400630015
BI00B32P8    TAPI-2055      202204277116-4122-02             TERMINAL                 CCN000144000000000000FY00000000020220501000000000NNM00820220208161924    4P0P  00000450000000656600000950232P8    YIYTM   006400630015
BI00B32P8    TAPI-2055      202204277116-4124-02             TERMINAL                 CCN000003000000000000FY00000000020220501000000000NNM00820220208161924    4P0P  00000300000000459900000753532P8    YIYTM   006400630015
BI00B32P8    TAPI-2055      202204277116-4231-02             TERMINAL                 CCN000286000000000000FY00000000020220501000000000NNM00820220208161924    4P0P  00002600000000683800001012532P8    YIYTM   006400630017
BI00B32P8    TAPI-2051      202203307116-4415-02             TERMINAL                 CCN000228000000000000FY00000000020220501000000000NNM00820220208154854    4P0P  00003800000000596600000925732P8    YIYTM   006400630017
BI00B32P8    TAPI-2052      202204067116-4415-02             TERMINAL                 CCN000228000000000000FY00000000020220501000000000NNM00820220208160524    4P0P  00003800000000596600000925732P8    YIYTM   006400630017
BI00B32P8    TAPI-2053      202204127116-4415-02             TERMINAL                 CCN000190000000000000FY00000000020220501000000000NNM00820220208160844    4P0P  00003800000000596600000925732P8    YIYTM   006400630017
BI00B32P8    TAPI-2054      202204207116-4415-02             TERMINAL                 CCN000228000000000000FY00000000020220501000000000NNM00820220208161240    4P0P  00003800000000596600000925732P8    YIYTM   006400630017
BI00B32P8    TAPI-2055      202204277116-4415-02             TERMINAL                 CCN000190000000000000FY00000000020220501000000000NNM00820220208161924    4P0P  00003800000000596600000925732P8    YIYTM   006400630017
BI00B32P8    TAPI-2052      202204067116-4416-02             TERMINAL                 CCN000032000000000000FY00000000020220501000000000NNM00820220208160524    4P0P  00003200000000518400000847132P8    YIYTM   006400630017
BI00B32P8    TAPI-2053      202204127116-4416-02             TERMINAL                 CCN000320000000000000FY00000000020220501000000000NNM00820220208160844    4P0P  00003200000000518400000847132P8    YIYTM   006400630017
BI00B32P8    TAPI-2054      202204207116-4416-02             TERMINAL                 CCN000320000000000000FY00000000020220501000000000NNM00820220208161240    4P0P  00003200000000518400000847132P8    YIYTM   006400630017
BI00B32P8    TAPI-2055      202204277116-4416-02             TERMINAL                 CCN000320000000000000FY00000000020220501000000000NNM00820220208161924    4P0P  00003200000000518400000847132P8    YIYTM   006400630017
BI00B32P8    TAPI-2055      202204277116-4486-02             TERMINAL                 CCN000028000000000000FY00000000020220501000000000NNM00820220208161924    4P0P  00002800000000666400000995132P8    YIYTM   006400630017
BI00B32P8    TAPI-2053      202204127116-4780-02             TERMINAL FEMALE          CCN000180000000000000FY00000000020220501000000000NNM00820220208160844    4P0P  00001500000000691500000985732P8    YIYTM   006400630015
BI00B32P8    TAPI-2054      202204207116-4780-02             TERMINAL FEMALE          CCN000195000000000000FY00000000020220501000000000NNM00820220208161240    4P0P  00001500000000691500000985732P8    YIYTM   006400630015
BI00B32P8    TAPI-2055      202204277116-4780-02             TERMINAL FEMALE          CCN000195000000000000FY00000000020220501000000000NNM00820220208161924    4P0P  00001500000000691500000985732P8    YIYTM   006400630015
BI00B32P8    TAPI-2054      202204207116-5041-02             TERMINAL                 CCN000015000000000000FY00000000020220501000000000NNM00820220208161240    4P0P  00001500000000583500000868732P8    YIYTM   006400630015
BI00B32P8    TAPI-2055      202204277116-5041-02             TERMINAL                 CCN000015000000000000FY00000000020220501000000000NNM00820220208161924    4P0P  00001500000000583500000868732P8    YIYTM   006400630015
BI00B32P8    TAPI-2052      202204067116-5044-02             TERMINAL                 CCN000144000000000000FY00000000020220501000000000NNM00820220208160524    4P0P  00001600000000641600000986332P8    YIYTM   006400630017
BI00B32P8    TAPI-2053      202204127116-5044-02             TERMINAL                 CCN000448000000000000FY00000000020220501000000000NNM00820220208160844    4P0P  00001600000000641600000986332P8    YIYTM   006400630017
BI00B32P8    TAPI-2054      202204207116-5044-02             TERMINAL                 CCN000432000000000000FY00000000020220501000000000NNM00820220208161240    4P0P  00001600000000641600000986332P8    YIYTM   006400630017
BI00B32P8    TAPI-2055      202204277116-5044-02             TERMINAL                 CCN000448000000000000FY00000000020220501000000000NNM00820220208161924    4P0P  00001600000000641600000986332P8    YIYTM   006400630017
BI00B32P8    TAPI-2052      202204067116-5045-02             TERMINAL                 CCN000080000000000000FY00000000020220501000000000NNM00820220208160524    4P0P  00001600000000678400001007132P8    YIYTM   006400630017
BI00B32P8    TAPI-2053      202204127116-5045-02             TERMINAL                 CCN000080000000000000FY00000000020220501000000000NNM00820220208160844    4P0P  00001600000000678400001007132P8    YIYTM   006400630017
BI00B32P8    TAPI-2054      202204207116-5045-02             TERMINAL                 CCN000096000000000000FY00000000020220501000000000NNM00820220208161240    4P0P  00001600000000678400001007132P8    YIYTM   006400630017
BI00B32P8    TAPI-2055      202204277116-5045-02             TERMINAL                 CCN000080000000000000FY00000000020220501000000000NNM00820220208161924    4P0P  00001600000000678400001007132P8    YIYTM   006400630017
BI00B32P8    TAPI-2054      202204207116-5046-02             TERMINAL                 CCN000012000000000000FY00000000020220501000000000NNM00820220208161240    4P0P  00001200000000544800000873532P8    YIYTM   006400630017
BI00B32P8    TAPI-2055      202204277116-5046-02             TERMINAL                 CCN000072000000000000FY00000000020220501000000000NNM00820220208161924    4P0P  00001200000000544800000873532P8    YIYTM   006400630017
BI00B32P8    TAPI-2051      202203307116-5097-02             TERMINAL                 CCN000045000000000000FY00000000020220501000000000NNM00820220208154854    4P0P  00002250000000531000000816232P8    YIYTM   006400630015
BI00B32P8    TAPI-2052      202204067116-5097-02             TERMINAL                 CCN000112500000000000FY00000000020220501000000000NNM00820220208160524    4P0P  00002250000000531000000816232P8    YIYTM   006400630015
BI00B32P8    TAPI-2053      202204127116-5097-02             TERMINAL                 CCN000090000000000000FY00000000020220501000000000NNM00820220208160844    4P0P  00002250000000531000000816232P8    YIYTM   006400630015
BI00B32P8    TAPI-2054      202204207116-5097-02             TERMINAL                 CCN000090000000000000FY00000000020220501000000000NNM00820220208161240    4P0P  00002250000000531000000816232P8    YIYTM   006400630015
BI00B32P8    TAPI-2055      202204277116-5097-02             TERMINAL                 CCN000112500000000000FY00000000020220501000000000NNM00820220208161924    4P0P  00002250000000531000000816232P8    YIYTM   006400630015
BI00B32P8    TAPI-2053      202204127116-5750-02             TERMINAL                 CCN000045000000000000FY00000000020220501000000000NNM00820220208160844    4P0P  00001500000000457500000742732P8    YIYTM   006400630015
BI00B32P8    TAPI-2054      202204207116-5750-02             TERMINAL                 CCN000045000000000000FY00000000020220501000000000NNM00820220208161240    4P0P  00001500000000457500000742732P8    YIYTM   006400630015
BI00B32P8    TAPI-2055      202204277116-5750-02             TERMINAL                 CCN000045000000000000FY00000000020220501000000000NNM00820220208161924    4P0P  00001500000000457500000742732P8    YIYTM   006400630015
BI00B32P8    TAPI-2054      202204207116-5751-02             TERMINAL                 CCN000012000000000000FY00000000020220501000000000NNM00720220208161240    4P0P  00001200000000379200000664432P8    YIYTM   006400630015
BI00B32P8    TAPI-2055      202204277116-5751-02             TERMINAL                 CCN000024000000000000FY00000000020220501000000000NNM00820220208161924    4P0P  00001200000000379200000664432P8    YIYTM   006400630015
BI00B32P8    TAPI-2052      202204067116-5752-02             TERMINAL                 CCN000021000000000000FY00000000020220501000000000NNM00820220208160524    4P0P  00002100000000571200000856432P8    YIYTM   006400630015
BI00B32P8    TAPI-2053      202204127116-5752-02             TERMINAL                 CCN000042000000000000FY00000000020220501000000000NNM00820220208160844    4P0P  00002100000000571200000856432P8    YIYTM   006400630015
BI00B32P8    TAPI-2054      202204207116-5752-02             TERMINAL                 CCN000042000000000000FY00000000020220501000000000NNM00820220208161240    4P0P  00002100000000571200000856432P8    YIYTM   006400630015
BI00B32P8    TAPI-2055      202204277116-5752-02             TERMINAL                 CCN000042000000000000FY00000000020220501000000000NNM00820220208161924    4P0P  00002100000000571200000856432P8    YIYTM   006400630015
BI00B32P8    TAPI-2054      202204207116-6041                TERMINAL                 CCN000004500000000000FY00000000020220501000000000NNM00820220208161240    4P0P  00000450000000716000001009632P8    YIYTM   006400630015
BI00B32P8    TAPI-2055      202204277116-6041                TERMINAL                 CCN000004500000000000FY00000000020220501000000000NNM00820220208161924    4P0P  00000450000000716000001009632P8    YIYTM   006400630015
BI00B32P8    TAPI-2054      202204207116-6042                TERMINAL                 CCN000003000000000000FY00000000020220501000000000NNM00820220208161240    4P0P  00000300000000523800000856132P8    YIYTM   006400630015
BI00B32P8    TAPI-2055      202204277116-6042                TERMINAL                 CCN000006000000000000FY00000000020220501000000000NNM00820220208161924    4P0P  00000300000000523800000856132P8    YIYTM   006400630015
BI00B32P8    TAPI-2055      202204277126-8826-02             TERMINAL                 CCN000027000000000000FY00000000020220501000000000NNM00820220208161924    1P0P  00000900000000788400001073632P8    YIYTM   006400630015
BI00B32P8    TAPI-2055      202204277126-8851-02             TERMINAL                 CCN000009000000000000FY00000000020220501000000000NNM00820220208161924    1P0P  00000900000000739800001025032P8    YIYTM   006400630015
BI00B32P8    TAPI-2054      202204207126-8853-02             TERMINAL                 CCN000045000000000000FY00000000020220501000000000NNM00820220208161240    4P0P  00000750000000562500000847732P8    YIYTM   006400630015
BI00B32P8    TAPI-2055      202204277126-8853-02             TERMINAL                 CCN000052500000000000FY00000000020220501000000000NNM00820220208161924    4P0P  00000750000000562500000847732P8    YIYTM   006400630015
BI00B32P8    TAPI-2053      202204127126-8854-02             TERMINAL                 CCN000022500000000000FY00000000020220501000000000NNM00820220208160844    4P0P  00000750000000604500000889732P8    YIYTM   006400630015
BI00B32P8    TAPI-2054      202204207126-8854-02             TERMINAL                 CCN000045000000000000FY00000000020220501000000000NNM00820220208161240    4P0P  00000750000000604500000889732P8    YIYTM   006400630015
BI00B32P8    TAPI-2055      202204277126-8854-02             TERMINAL                 CCN000037500000000000FY00000000020220501000000000NNM00820220208161924    4P0P  00000750000000604500000889732P8    YIYTM   006400630015
BI00B32P8    TAPI-2052      202204067126-8855-02             TERMINAL                 CCN000012000000000000FY00000000020220501000000000NNM00820220208160524    4P0P  00000600000000510600000795832P8    YIYTM   006400630015
BI00B32P8    TAPI-2053      202204127126-8855-02             TERMINAL                 CCN000012000000000000FY00000000020220501000000000NNM00820220208160844    4P0P  00000600000000510600000795832P8    YIYTM   006400630015
BI00B32P8    TAPI-2054      202204207126-8855-02             TERMINAL                 CCN000012000000000000FY00000000020220501000000000NNM00820220208161240    4P0P  00000600000000510600000795832P8    YIYTM   006400630015
BI00B32P8    TAPI-2055      202204277126-8855-02             TERMINAL                 CCN000012000000000000FY00000000020220501000000000NNM00820220208161924    4P0P  00000600000000510600000795832P8    YIYTM   006400630015
BI00B32P8    TAPI-2051      202203307195-1463-02             TERMINAL MALE            CCN000028500000000000FY00000000020220501000000000NNM00820220208154854    4P0P  00002850000000456000000741232P8    YIYTM   006400630015
BI00B32P8    TAPI-2054      202204207195-1463-02             TERMINAL MALE            CCN000028500000000000FY00000000020220501000000000NNM00820220208161240    4P0P  00002850000000456000000741232P8    YIYTM   006400630015
BI00B32P8    TAPI-2055      202204277196-0104-02             TERMINAL                 CCN000038000000000000FY00000000020220501000000000NNM00820220208161924    4P0P  00003800000000570000000956432P8    YIYTM   006400630017
BI00B32P8    TAPI-2055      202204277196-0510-02             TERMINAL                 CCN000024000000000000FY00000000020220501000000000NNM00820220208161924    4P0P  00002400000000871200001034632P8    YIYTM   002800510028
BI00B32P8    TAPI-2053      202204127196-1102-02             TERMINAL                 CCN000022500000000000FY00000000020220501000000000NNM00820220208160844    4P0P  00002250000000405000000690232P8    YIYTM   006400630015
BI00B32P8    TAPI-2054      202204207196-1102-02             TERMINAL                 CCN000045000000000000FY00000000020220501000000000NNM00820220208161240    4P0P  00002250000000405000000690232P8    YIYTM   006400630015
BI00B32P8    TAPI-2055      202204277196-1102-02             TERMINAL                 CCN000022500000000000FY00000000020220501000000000NNM00820220208161924    4P0P  00002250000000405000000690232P8    YIYTM   006400630015
BI00B32P8    TAPI-2052      202204067196-1103-02             TERMINAL                 CCN000382500000000000FY00000000020220501000000000NNM00820220208160524    4P0P  00002250000000429800000715032P8    YIYTM   006400630015
BI00B32P8    TAPI-2053      202204127196-1103-02             TERMINAL                 CCN000382500000000000FY00000000020220501000000000NNM00820220208160844    4P0P  00002250000000429800000715032P8    YIYTM   006400630015
BI00B32P8    TAPI-2054      202204207196-1103-02             TERMINAL                 CCN000382500000000000FY00000000020220501000000000NNM00820220208161240    4P0P  00002250000000429800000715032P8    YIYTM   006400630015
BI00B32P8    TAPI-2055      202204277196-1103-02             TERMINAL                 CCN000382500000000000FY00000000020220501000000000NNM00820220208161924    4P0P  00002250000000429800000715032P8    YIYTM   006400630015
BI00B32P8    TAPI-2051      202203307196-1104-02             TERMINAL                 CCN000270000000000000FY00000000020220501000000000NNM00820220208154854    4P0P  00002250000000441000000726232P8    YIYTM   006400630015
BI00B32P8    TAPI-2052      202204067196-1104-02             TERMINAL                 CCN000157500000000000FY00000000020220501000000000NNM00820220208160524    4P0P  00002250000000441000000726232P8    YIYTM   006400630015
BI00B32P8    TAPI-2053      202204127196-1104-02             TERMINAL                 CCN000180000000000000FY00000000020220501000000000NNM00820220208160844    4P0P  00002250000000441000000726232P8    YIYTM   006400630015
BI00B32P8    TAPI-2054      202204207196-1104-02             TERMINAL                 CCN000180000000000000FY00000000020220501000000000NNM00920220208161240    4P0P  00002250000000441000000726232P8    YIYTM   006400630015
BI00B32P8    TAPI-2055      202204277196-1104-02             TERMINAL                 CCN000180000000000000FY00000000020220501000000000NNM00820220208161924    4P0P  00002250000000441000000726232P8    YIYTM   006400630015
BI00B32P8    TAPI-2052      202204067196-1460-02             TERMINAL FEMALE          CCN000171000000000000FY00000000020220501000000000NNM00820220208160524    4P0P  00002850000000444600000729832P8    YIYTM   006400630015
BI00B32P8    TAPI-2053      202204127196-1460-02             TERMINAL FEMALE          CCN000171000000000000FY00000000020220501000000000NNM00820220208160844    4P0P  00002850000000444600000729832P8    YIYTM   006400630015
BI00B32P8    TAPI-2054      202204207196-1460-02             TERMINAL FEMALE          CCN000199500000000000FY00000000020220501000000000NNM00820220208161240    4P0P  00002850000000444600000729832P8    YIYTM   006400630015
BI00B32P8    TAPI-2055      202204277196-1460-02             TERMINAL FEMALE          CCN000171000000000000FY00000000020220501000000000NNM00820220208161924    4P0P  00002850000000444600000729832P8    YIYTM   006400630015
BI00B32P8    TAPI-2053      202204127183-7665-30             HOUSING                  CCN000004800000000000FY00000000020220501000000000NNM00820220208160844    1F0F  00000120000001103300001247832P8    YIYTM   005500360039
BI00B32P8    TAPI-2052      202204067222-4220-30             CONNECTOR                CCN000000750000000000FY00000000020220501000000000NNM00820220208160524    4N0N  00000075000001219000001384032P8    YIYTM   005600390040
BI00B32P8    TAPI-2053      202204127222-4220-30             CONNECTOR                CCN000000750000000000FY00000000020220501000000000NNM00820220208160844    4N0N  00000075000001219000001384032P8    YIYTM   005600390040
BI00B32P8    TAPI-2055      202204277222-4220-30             CONNECTOR                CCN000000750000000000FY00000000020220501000000000NNM00820220208161924    4N0N  00000075000001219000001384032P8    YIYTM   005600390040
BI00B32P8    TAPI-2052      202204067222-7484-30             CONNECTOR                CCN000002000000000000FY00000000020220501000000000NNM00820220208160524    4N0N  00000100000001030000001175732P8    YIYTM   005500360039
BI00B32P8    TAPI-2053      202204127222-7484-30             CONNECTOR                CCN000002000000000000FY00000000020220501000000000NNM00820220208160844    4N0N  00000100000001030000001175732P8    YIYTM   005500360039
BI00B32P8    TAPI-2054      202204207222-7484-30             CONNECTOR                CCN000001000000000000FY00000000020220501000000000NNM00820220208161240    4N0N  00000100000001030000001175732P8    YIYTM   005500360039
BI00B32P8    TAPI-2055      202204277222-7484-30             CONNECTOR                CCN000002000000000000FY00000000020220501000000000NNM00820220208161924    4N0N  00000100000001030000001175732P8    YIYTM   005500360039
BI00B32P8    TAPI-2054      202204207222-7923-30             CONNECTOR                CCN000000600000000000FY00000000020220501000000000NNM00820220208161240    4N0N  00000060000000937000001067032P8    YIYTM   005500360039
BI00B32P8    TAPI-2055      202204277222-7923-30             CONNECTOR                CCN000004200000000000FY00000000020220501000000000NNM00820220208161924    4N0N  00000060000000937000001067032P8    YIYTM   005500360039
BI00B32P8    TAPI-2054      202204207222-7923-40             CONNECTOR                CCN000000600000000000FY00000000020220501000000000NNM00820220208161240    4N0N  00000060000000937000001123032P8    YIYTM   005500360039
BI00B32P8    TAPI-2055      202204277222-7923-40             CONNECTOR                CCN000001200000000000FY00000000020220501000000000NNM00820220208161924    4N0N  00000060000000937000001123032P8    YIYTM   005500360039
BI00B32P8    TAPI-2055      202204277282-1014                CONNECTOR                CCN000006000000000000FY00000000020220501000000000NNM00820220208161924    4N0N  00000600000001200000001377932P8    YIYTM   005500360039
BI00B32P8    TAPI-2053      202204127282-1248                HOUSING SUB ASSEMBLY     CCN000000600000000000FY00000000020220501000000000NNM00820220208160844    1N0N  00000060000001167000001372032P8    YIYTM   005500360039
BI00B32P8    TAPI-2055      202204277282-1248                HOUSING SUB ASSEMBLY     CCN000000600000000000FY00000000020220501000000000NNM00820220208161924    1N0N  00000060000001167000001372032P8    YIYTM   005500360039
BI00B32P8    TAPI-2053      202204127282-6568-40             CONNECTOR                CCN000003000000000000FY00000000020220501000000000NNM00820220208160844    4N0N  00000100000001206000001370732P8    YIYTM   005500360039
BI00B32P8    TAPI-2054      202204207282-6568-40             CONNECTOR                CCN000003000000000000FY00000000020220501000000000NNM00820220208161240    4N0N  00000100000001206000001370732P8    YIYTM   005500360039
BI00B32P8    TAPI-2055      202204277282-6568-40             CONNECTOR                CCN000003000000000000FY00000000020220501000000000NNM00820220208161924    4N0N  00000100000001206000001370732P8    YIYTM   005500360039
BI00B32P8    TAPI-2051      202203307283-1050                CONNECTOR HOUSING        CCN000002000000000000FY00000000020220501000000000NNM00820220208154854    4N0N  00000200000000500000000745332P8    YIYTM   005600390040
BI00B32P8    TAPI-2055      202204277283-1140                CONNECTOR HOUSING        CCN000001500000000000FY00000000020220501000000000NNM00820220208161924    4N0N  00000150000000669000000932732P8    YIYTM   005600390040
BI00B32P8    TAPI-2055      202204277283-1144                CONNECTOR                CCN000002400000000000FY00000000020220501000000000NNM00820220208161924    4N0N  00000240000000602200000866132P8    YIYTM   005500360039
BI00B32P8    TAPI-2053      202204127283-1222                CONNECTOR                CCN000001200000000000FY00000000020220501000000000NNM00820220208160844    4N0N  00000120000000852000001011032P8    YIYTM   005500360039
BI00B32P8    TAPI-2052      202204067283-1222-40             CONNECTOR HOUSING        CCN000001200000000000FY00000000020220501000000000NNM00820220208160524    4N0N  00000120000000858000001032732P8    YIYTM   005500360039
BI00B32P8    TAPI-2054      202204207283-1222-40             CONNECTOR HOUSING        CCN000001200000000000FY00000000020220501000000000NNM00820220208161240    4N0N  00000120000000858000001032732P8    YIYTM   005500360039
BI00B32P8    TAPI-2054      202204207283-1289-40             CONNECTOR HOUSING        CCN000003300000000000FY00000000020220501000000000NNM00820220208161240    1N0N  00000060000000679800000824832P8    YIYTM   005400370024
BI00B32P8    TAPI-2055      202204277283-1289-40             CONNECTOR HOUSING        CCN000007500000000000FY00000000020220501000000000NNM00820220208161924    1N0N  00000060000000679800000824832P8    YIYTM   005400370024
BI00B32P8    TAPI-2055      202204277283-1968-30             CONNECTOR                CCN000002700000000000FY00000000020220501000000000NNM00820220208161924    1N0N  00000090000001140000001318332P8    YIYTM   005600390040
BI00B32P8    TAPI-2051      202203307283-4577                CONNECTOR HOUSING        CCN000004800000000000FY00000000020220501000000000NNM00820220208154854    4N0N  00000480000000916800001136832P8    YIYTM   005500360039
BI00B32P8    TAPI-2053      202204127283-4855                CONNECTOR HOUSING        CCN000002400000000000FY00000000020220501000000000NNM00820220208160844    4N0N  00000240000001188400001400032P8    YIYTM   005500360039
BI00B32P8    TAPI-2054      202204207283-4855                CONNECTOR HOUSING        CCN000004800000000000FY00000000020220501000000000NNM00920220208161240    4N0N  00000240000001188400001400032P8    YIYTM   005500360039
BI00B32P8    TAPI-2055      202204277283-4855                CONNECTOR HOUSING        CCN000002400000000000FY00000000020220501000000000NNM00820220208161924    4N0N  00000240000001188400001400032P8    YIYTM   005500360039
BI00B32P8    TAPI-2054      202204207283-5843                CONNECTOR                CCN000001500000000000FY00000000020220501000000000NNM00820220208161240    1N0N  00000150000000889000001132032P8    YIYTM   005600390040
BI00B32P8    TAPI-2055      202204277283-5843                CONNECTOR                CCN000003000000000000FY00000000020220501000000000NNM00820220208161924    1N0N  00000150000000889000001132032P8    YIYTM   005600390040
BI00B32P8    TAPI-2054      202204207283-6388-40             CONNECTOR                CCN000002000000000000FY00000000020220501000000000NNM00820220208161240    4N0N  00000200000001029000001173532P8    YIYTM   005500360039
BI00B32P8    TAPI-2055      202204277283-6388-40             CONNECTOR                CCN000002000000000000FY00000000020220501000000000NNM00820220208161924    4N0N  00000200000001029000001173532P8    YIYTM   005500360039
BI00B32P8    TAPI-2055      202204277283-7023-40             CONNECTOR                CCN000002500000000000FY00000000020220501000000000NNM00820220208161924    4N0N  00000250000001360000001510032P8    YIYTM   005500360039
BI00B32P8    TAPI-2055      202204277283-7449-30             HOUSING FEMALE ASS'Y     CCN000002400000000000FY00000000020220501000000000NNM00820220208161924    4N0N  00000240000001200000001410032P8    YIYTM   005500360039
BI00B32P8    TAPI-2053      202204127283-8630                CONNECTOR ASS'Y          CCN000006000000000000FY00000000020220501000000000NNM00820220208160844    4N0N  00000600000000540000000701332P8    YIYTM   005400370024
BI00B32P8    TAPI-2054      202204207283-9385-30             HOUSING FEMALE ASS'Y     CCN000000700000000000FY00000000020220501000000000NNM00820220208161240    4N0N  00000035000000996900001237932P8    YIYTM   005400370024
BI00B32P8    TAPI-2055      202204277283-9385-30             HOUSING FEMALE ASS'Y     CCN000001050000000000FY00000000020220501000000000NNM00820220208161924    4N0N  00000035000000996900001237932P8    YIYTM   005400370024
BI00B32P8    TAPI-2051      202203307287-7599-40             HOUSING FEMALE ASS'Y     CCN000004800000000000FY00000000020220501000000000NNM00820220208154854    4N0N  00000160000001233600001445632P8    YIYTM   005500360039
BI00B32P8    TAPI-2052      202204067287-7599-40             HOUSING FEMALE ASS'Y     CCN000008000000000000FY00000000020220501000000000NNM00820220208160524    4N0N  00000160000001233600001445632P8    YIYTM   005500360039
BI00B32P8    TAPI-2053      202204127287-7599-40             HOUSING FEMALE ASS'Y     CCN000009600000000000FY00000000020220501000000000NNM00820220208160844    4N0N  00000160000001233600001445632P8    YIYTM   005500360039
BI00B32P8    TAPI-2054      202204207287-7599-40             HOUSING FEMALE ASS'Y     CCN000009600000000000FY00000000020220501000000000NNM00820220208161240    4N0N  00000160000001233600001445632P8    YIYTM   005500360039
BI00B32P8    TAPI-2055      202204277287-7599-40             HOUSING FEMALE ASS'Y     CCN000008000000000000FY00000000020220501000000000NNM00820220208161924    4N0N  00000160000001233600001445632P8    YIYTM   005500360039
BI00B32P8    TAPI-2051      202203307287-7775-30             HOUSING FEMALE ASS'Y     CCN000001000000000000FY00000000020220501000000000NNM00820220208154854    4N0N  00000100000000508000000620532P8    YIYTM   005400370024
BI00B32P8    TAPI-2052      202204067287-7775-30             HOUSING FEMALE ASS'Y     CCN000001000000000000FY00000000020220501000000000NNM00820220208160524    4N0N  00000100000000508000000620532P8    YIYTM   005400370024
BI00B32P8    TAPI-2053      202204127287-7775-30             HOUSING FEMALE ASS'Y     CCN000001000000000000FY00000000020220501000000000NNM00820220208160844    4N0N  00000100000000508000000620532P8    YIYTM   005400370024
BI00B32P8    TAPI-2054      202204207287-7775-30             HOUSING FEMALE ASS'Y     CCN000001000000000000FY00000000020220501000000000NNM00820220208161240    4N0N  00000100000000508000000620532P8    YIYTM   005400370024
BI00B32P8    TAPI-2055      202204277287-7775-30             HOUSING FEMALE ASS'Y     CCN000001000000000000FY00000000020220501000000000NNM00820220208161924    4N0N  00000100000000508000000620532P8    YIYTM   005400370024
BI00B32P8    TAPI-2051      202203307288-3332-30             HOUSING MALE             CCN000001500000000000FY00000000020220501000000000NNM00820220208154854    4N0N  00000150000000860700001005732P8    YIYTM   005400370024
BI00B32P8    TAPI-2054      202204207288-3332-30             HOUSING MALE             CCN000001500000000000FY00000000020220501000000000NNM00820220208161240    4N0N  00000150000000860700001005732P8    YIYTM   005400370024
BI00B32P8    TAPI-2054      202204207288-3335-30             HOUSING MALE             CCN000000300000000000FY00000000020220501000000000NNM00820220208161240    4N0N  00000150000000867000001012032P8    YIYTM   005400370024
BI00B32P8    TAPI-2055      202204277288-3335-30             HOUSING MALE             CCN000000400000000000FY00000000020220501000000000NNM00820220208161924    4N0N  00000150000000867000001012032P8    YIYTM   005400370024
BI00B32P8    TAPI-2054      202204207288-3337-30             HOUSING MALE             CCN000001500000000000FY00000000020220501000000000NNM00820220208161240    4N0N  00000150000000867000001012032P8    YIYTM   005400370024
BI00B32P8    TAPI-2054      202204207288-3340-30             HOUSING MALE             CCN000001500000000000FY00000000020220501000000000NNM00820220208161240    4N0N  00000150000000861500001006432P8    YIYTM   005400370024
BI00B32P8    TAPI-2055      202204277288-3340-30             HOUSING MALE             CCN000001500000000000FY00000000020220501000000000NNM00820220208161924    4N0N  00000150000000861500001006432P8    YIYTM   005400370024
BI00B32P8    TAPI-2052      202204067289-0269                HOUSING SUB ASSEMBLY     CCN000001600000000000FY00000000020220501000000000NNM00820220208160524    1N0N  00000160000001002100001234532P8    YIYTM   005500360039
BI00B32P8    TAPI-2053      202204127289-0269                HOUSING SUB ASSEMBLY     CCN000003200000000000FY00000000020220501000000000NNM00820220208160844    1N0N  00000160000001002100001234532P8    YIYTM   005500360039
BI00B32P8    TAPI-2054      202204207289-0269                HOUSING SUB ASSEMBLY     CCN000003200000000000FY00000000020220501000000000NNM00820220208161240    1N0N  00000160000001002100001234532P8    YIYTM   005500360039
BI00B32P8    TAPI-2055      202204277289-0269                HOUSING SUB ASSEMBLY     CCN000004800000000000FY00000000020220501000000000NNM00820220208161924    1N0N  00000160000001002100001234532P8    YIYTM   005500360039
BI00B32P8    TAPI-2055      202204277289-3342-30             HOUSING FEMALE ASS'Y     CCN000002400000000000FY00000000020220501000000000NNM00820220208161924    1N0N  00000240000000686400000901432P8    YIYTM   005500360039
BI00B32P8    TAPI-2052      202204067289-4696-30             HOUSING FEMALE ASS'Y     CCN000006000000000000FY00000000020220501000000000NNM00820220208160524    4N0N  00000200000000913400001055432P8    YIYTM   005400370024
BI00B32P8    TAPI-2053      202204127289-4696-30             HOUSING FEMALE ASS'Y     CCN000006000000000000FY00000000020220501000000000NNM00820220208160844    4N0N  00000200000000913400001055432P8    YIYTM   005400370024
BI00B32P8    TAPI-2054      202204207289-4696-30             HOUSING FEMALE ASS'Y     CCN000006000000000000FY00000000020220501000000000NNM00820220208161240    4N0N  00000200000000913400001055432P8    YIYTM   005400370024
BI00B32P8    TAPI-2055      202204277289-4696-30             HOUSING FEMALE ASS'Y     CCN000004000000000000FY00000000020220501000000000NNM00820220208161924    4N0N  00000200000000913400001055432P8    YIYTM   005400370024
BI00B32P8    TAPI-2053      202204127289-5011-30             HOUSING FEMALE ASS'Y     CCN000004800000000000FY00000000020220501000000000NNM00820220208160844    4N0N  00000240000001171700001368632P8    YIYTM   005500360039
BI00B32P8    TAPI-2054      202204207289-5011-30             HOUSING FEMALE ASS'Y     CCN000008400000000000FY00000000020220501000000000NNM00820220208161240    4N0N  00000240000001171700001368632P8    YIYTM   005500360039
BI00B32P8    TAPI-2055      202204277289-5011-30             HOUSING FEMALE ASS'Y     CCN000008400000000000FY00000000020220501000000000NNM00820220208161924    4N0N  00000240000001171700001368632P8    YIYTM   005500360039
BI00B32P8    TAPI-2051      202203307298-1869-30             HOUSING FEMALE ASS'Y     CCN000001200000000000FY00000000020220501000000000NNM00820220208154854    4N0N  00000120000000737000000939832P8    YIYTM   005500360039
BI00B32P8    TAPI-2052      202204067298-1869-30             HOUSING FEMALE ASS'Y     CCN000001200000000000FY00000000020220501000000000NNM00820220208160524    4N0N  00000120000000737000000939832P8    YIYTM   005500360039
BI00B32P8    TAPI-2053      202204127298-1869-30             HOUSING FEMALE ASS'Y     CCN000002400000000000FY00000000020220501000000000NNM00820220208160844    4N0N  00000120000000737000000939832P8    YIYTM   005500360039
BI00B32P8    TAPI-2054      202204207298-1869-30             HOUSING FEMALE ASS'Y     CCN000002400000000000FY00000000020220501000000000NNM00820220208161240    4N0N  00000120000000737000000939832P8    YIYTM   005500360039
BI00B32P8    TAPI-2055      202204277298-1869-30             HOUSING FEMALE ASS'Y     CCN000002400000000000FY00000000020220501000000000NNM00820220208161924    4N0N  00000120000000737000000939832P8    YIYTM   005500360039
BI00B32P8    TAPI-2051      202203307298-2508-30             HOUSING FEMALE ASS'Y     CCN000001200000000000FY00000000020220501000000000NNM00820220208154854    4N0N  00000120000000822000001005032P8    YIYTM   005500360039
BI00B32P8    TAPI-2052      202204067298-2508-30             HOUSING FEMALE ASS'Y     CCN000001200000000000FY00000000020220501000000000NNM00820220208160524    4N0N  00000120000000822000001005032P8    YIYTM   005500360039
BI00B32P8    TAPI-2054      202204207298-2508-30             HOUSING FEMALE ASS'Y     CCN000001200000000000FY00000000020220501000000000NNM00820220208161240    4N0N  00000120000000822000001005032P8    YIYTM   005500360039
BI00B32P8    TAPI-2055      202204277298-2508-30             HOUSING FEMALE ASS'Y     CCN000001200000000000FY00000000020220501000000000NNM00820220208161924    4N0N  00000120000000822000001005032P8    YIYTM   005500360039
BI00B32P8    TAPI-2055      202204277298-2852-30             HOUSING FEMALE ASS'Y     CCN000000720000000000FY00000000020220501000000000NNM00820220208161924    4N0N  00000024000001095200001361232P8    YIYTM   005500360039
BI00B32P8    TAPI-2051      202203307298-5955                CONNECTOR SUB ASSY       CCN000021600000000000FY00000000020220501000000000NNM00820220208154854    4N0N  00000720000001029600001253032P8    YIYTM   005500360039
BI00B32P8    TAPI-2052      202204067298-5955                CONNECTOR SUB ASSY       CCN000028800000000000FY00000000020220501000000000NNM00820220208160524    4N0N  00000720000001029600001253032P8    YIYTM   005500360039
BI00B32P8    TAPI-2053      202204127298-5955                CONNECTOR SUB ASSY       CCN000021600000000000FY00000000020220501000000000NNM00820220208160844    4N0N  00000720000001029600001253032P8    YIYTM   005500360039
BI00B32P8    TAPI-2054      202204207298-5955                CONNECTOR SUB ASSY       CCN000021600000000000FY00000000020220501000000000NNM00820220208161240    4N0N  00000720000001029600001253032P8    YIYTM   005500360039
BI00B32P8    TAPI-2055      202204277298-5955                CONNECTOR SUB ASSY       CCN000021600000000000FY00000000020220501000000000NNM00820220208161924    4N0N  00000720000001029600001253032P8    YIYTM   005500360039
BI00B32P8    TAPI-2053      202204127382-1481-10             CONNECTOR                CCN000001600000000000FY00000000020220501000000000NNM00820220208160844    4N0N  00000080000001025000001183032P8    YIYTM   005600390040
BI00B32P8    TAPI-2054      202204207382-1481-10             CONNECTOR                CCN000004000000000000FY00000000020220501000000000NNM00820220208161240    4N0N  00000080000001025000001183032P8    YIYTM   005600390040
BI00B32P8    TAPI-2055      202204277382-1481-10             CONNECTOR                CCN000003200000000000FY00000000020220501000000000NNM00820220208161924    4N0N  00000080000001025000001183032P8    YIYTM   005600390040
BI00B32P8    TAPI-2053      202204127388-0314                CONNECTOR ASS'Y          CCN000001200000000000FY00000000020220501000000000NNM00820220208160844    4N0N  00000120000001038000001132332P8    YIYTM   005400370024
BI00B32P8    TAPI-2054      202204207388-0314                CONNECTOR ASS'Y          CCN000001200000000000FY00000000020220501000000000NNM00820220208161240    4N0N  00000120000001038000001132332P8    YIYTM   005400370024
BI00B32P8    TAPI-2055      202204277388-0314                CONNECTOR ASS'Y          CCN000002400000000000FY00000000020220501000000000NNM00820220208161924    4N0N  00000120000001038000001132332P8    YIYTM   005400370024
BI00B32P8    TAPI-2053      202204127388-0317-60             CONNECTOR ASS'Y          CCN000000500000000000FY00000000020220501000000000NNM00820220208160844    4N0N  00000120000001034400001129332P8    YIYTM   005400370024
BI00B32P8    TAPI-2054      202204207388-0317-60             CONNECTOR ASS'Y          CCN000002000000000000FY00000000020220501000000000NNM00820220208161240    4N0N  00000120000001034400001129332P8    YIYTM   005400370024
BI00B32P8    TAPI-2055      202204277388-0317-60             CONNECTOR ASS'Y          CCN000002000000000000FY00000000020220501000000000NNM00820220208161924    4N0N  00000120000001034400001129332P8    YIYTM   005400370024
BI00B32P8    TAPI-2054      202204207017-1180-02             TERMINAL                 CCN000360000000000000FY00000000020220501000000000NNM00820220208161240    4P0P  00007200000001065600001229032P8    YIYTM   005100280028
BI00B32P8    TAPI-2055      202204277017-1180-02             TERMINAL                 CCN000432000000000000FY00000000020220501000000000NNM00820220208161924    4P0P  00007200000001065600001229032P8    YIYTM   005100280028
BI00B32P8    TAPI-2053      202204127017-1181-02             TERMINAL                 CCN000126000000000000FY00000000020220501000000000NNM00820220208160844    4P0P  00006300000001089900001266832P8    YIYTM   005100280028
BI00B32P8    TAPI-2054      202204207017-1181-02             TERMINAL                 CCN000063000000000000FY00000000020220501000000000NNM00820220208161240    4P0P  00006300000001089900001266832P8    YIYTM   005100280028
BI00B32P8    TAPI-2055      202204277017-1181-02             TERMINAL                 CCN000126000000000000FY00000000020220501000000000NNM00820220208161924    4P0P  00006300000001089900001266832P8    YIYTM   005100280028
BI00B32P8    TAPI-2051      202203307017-1182-02             TERMINAL                 CCN000090000000000000FY00000000020220501000000000NNMQ0820220208154854    4P0P  00004500000001165500001318632P8    YIYTM   005100280028
BI00B32P8    TAPI-2052      202204067017-1182-02             TERMINAL                 CCN000090000000000000FY00000000020220501000000000NNM00820220208160524    4P0P  00004500000001165500001318632P8    YIYTM   005100280028
BI00B32P8    TAPI-2053      202204127017-1182-02             TERMINAL                 CCN000090000000000000FY00000000020220501000000000NNM00820220208160844    4P0P  00004500000001165500001318632P8    YIYTM   005100280028
BI00B32P8    TAPI-2054      202204207017-1182-02             TERMINAL                 CCN000090000000000000FY00000000020220501000000000NNM00820220208161240    4P0P  00004500000001165500001318632P8    YIYTM   005100280028
