BI00B32AG    XG22042CMW     202203187B72-5540-80             SEALED WIRE SEAL         CCN000020000000020000FN00000000020220401000020000NNM   20220104121741    1C0C  00002000000000186000000234432AG    XGXGY   004300270014
BI00B32AG    XG22043CMW     202203257B72-5540-80             SEALED WIRE SEAL         CCN000020000000020000FN00000000020220401000020000NNM   20220104121741    1C0C  00002000000000186000000234432AG    XGXGY   004300270014
BI00B32AG    XG22041CMW     202203117B96-0805-02             TERMINAL FEMALE          CCN000022500000022500FN00000000020220401000022500NNM   20220104121741    4P0P  00002250000000558000000843232AG    XGXGY   006400630015
BI00B32AG    XG22042CMW     202203187B96-0805-02             TERMINAL FEMALE          CCN000022500000022500FN00000000020220401000022500NNM   20220104121741    4P0P  00002250000000558000000843232AG    XGXGY   006400630015
BI00B32AG    XG22043CMW     202203257B96-0805-02             TERMINAL FEMALE          CCN000022500000022500FN00000000020220401000022500NNM   20220104121741    4P0P  00002250000000558000000843232AG    XGXGY   006400630015
BI00B32AG    XG22041CMW     202203117C89-6868-30             SEALED ASSY FEMALE       CCN000007560000007560FN00000000020220401000007560NNM   20220104121741    4N0N  00000252000000839200001119232AG    XGXGY   005500360039
BI00B32AG    XG22042CMW     202203187C89-6868-30             SEALED ASSY FEMALE       CCN000002520000002520FN00000000020220401000002520NNM   20220104121741    4N0N  00000252000000839200001119232AG    XGXGY   005500360039
BI00B32AG    XG22043CMW     202203257C89-6868-30             SEALED ASSY FEMALE       CCN000010080000010080FN00000000020220401000010080NNM   20220104121741    4N0N  00000252000000839200001119232AG    XGXGY   005500360039
BI00B32AG    XG22044CMW     202204017C89-6868-30             SEALED ASSY FEMALE       CCN000005040000005040FN00000000020220401000005040NNM   20220104121741    4N0N  00000252000000839200001119232AG    XGXGY   005500360039
BI00B32AG    XG22041CMW     202203117116-4032                TERMINAL                 CCN000012000000012000FN00000000020220401000012000NNM   20220104121741    4P0P  00000600000000532800000818032AG    XGXGY   006400630015
BI00B32AG    XG22042CMW     202203187116-4032                TERMINAL                 CCN000006000000006000FN00000000020220401000006000NNM   20220104121741    4P0P  00000600000000532800000818032AG    XGXGY   006400630015
BI00B32AG    XG22043CMW     202203257116-4032                TERMINAL                 CCN000012000000012000FN00000000020220401000012000NNM   20220104121741    4P0P  00000600000000532800000818032AG    XGXGY   006400630015
BI00B32AG    XG22044CMW     202204017116-4032                TERMINAL                 CCN000006000000006000FN00000000020220401000006000NNM   20220104121741    4P0P  00000600000000532800000818032AG    XGXGY   006400630015
BI00B32AG    XG22041CMW     202203117116-6041                TERMINAL                 CCN000036000000036000FN00000000020220401000036000NNM   20220104121741    4P0P  00000450000000716000001009632AG    XGXGY   006400630015
BI00B32AG    XG22042CMW     202203187116-6041                TERMINAL                 CCN000036000000036000FN00000000020220401000036000NNM   20220104121741    4P0P  00000450000000716000001009632AG    XGXGY   006400630015
BI00B32AG    XG22044CMW     202204017116-6041                TERMINAL                 CCN000036000000036000FN00000000020220401000036000NNM   20220104121741    4P0P  00000450000000716000001009632AG    XGXGY   006400630015
BI00B32AG    XG22041CMW     202203117158-3070-80             RUBBER STOPPER           CCN000040000000040000FN00000000020220401000040000NNM   20220104121741    1C0C  00004000000000276000000333332AG    XGXGY   002700430014
BI00B32AG    XG22043CMW     202203257158-3070-80             RUBBER STOPPER           CCN000040000000040000FN00000000020220401000040000NNM   20220104121741    1C0C  00004000000000276000000333332AG    XGXGY   002700430014
BI00B32AG    XG22041CMW     202203117172-5540-80             SEALED WIRE SEAL         CCN000020000000020000FN00000000020220401000020000NNM   20220104121741    1C0C  00002000000000186000000234432AG    XGXGY   004300270014
BI00B32AG    XG22042CMW     202203187172-5540-80             SEALED WIRE SEAL         CCN000020000000020000FN00000000020220401000020000NNM   20220104121741    1C0C  00002000000000186000000234432AG    XGXGY   004300270014
BI00B32AG    XG22043CMW     202203257172-5540-80             SEALED WIRE SEAL         CCN000020000000020000FN00000000020220401000020000NNM   20220104121741    1C0C  00002000000000186000000234432AG    XGXGY   004300270014
BI00B32AG    XG22041CMW     202203117196-0805-02             TERMINAL FEMALE          CCN000022500000022500FN00000000020220401000022500NNM   20220104121741    4P0P  00002250000000558000000843232AG    XGXGY   006400630015
BI00B32AG    XG22042CMW     202203187196-0805-02             TERMINAL FEMALE          CCN000022500000022500FN00000000020220401000022500NNM   20220104121741    4P0P  00002250000000558000000843232AG    XGXGY   006400630015
BI00B32AG    XG22043CMW     202203257196-0805-02             TERMINAL FEMALE          CCN000022500000022500FN00000000020220401000022500NNM   20220104121741    4P0P  00002250000000558000000843232AG    XGXGY   006400630015
BI00B32AG    XG22041CMW     202203117298-3822-70             HOUSING FEMALE ASS'Y     CCN000007560000007560FN00000000020220401000007560NNM   20220104121741    4N0N  00000252000000776200001077032AG    XGXGY   005500360039
BI00B32AG    XG22042CMW     202203187298-3822-70             HOUSING FEMALE ASS'Y     CCN000002520000002520FN00000000020220401000002520NNM   20220104121741    4N0N  00000252000000776200001077032AG    XGXGY   005500360039
BI00B32AG    XG22043CMW     202203257298-3822-70             HOUSING FEMALE ASS'Y     CCN000007560000007560FN00000000020220401000007560NNM   20220104121741    4N0N  00000252000000776200001077032AG    XGXGY   005500360039
BI00B32AG    XG22044CMW     202204017298-3822-70             HOUSING FEMALE ASS'Y     CCN000007560000007560FN00000000020220401000007560NNM   20220104121741    4N0N  00000252000000776200001077032AG    XGXGY   005500360039
BI00B32AG    XG22041CMW     202203117327-6832-60             MAIN FUSE                CCN000009000000009000FN00000000020220401000009000NNM   20220104121741    4N0N  00000060000000729200000930732AG    XGXGY   005400370024
BI00B32AG    XG22042CMW     202203187327-6832-60             MAIN FUSE                CCN000001200000001200FN00000000020220401000001200NNM   20220104121741    4N0N  00000060000000729200000930732AG    XGXGY   005400370024
BI00B32AG    XG22044CMW     202204017327-6832-60             MAIN FUSE                CCN000003600000003600FN00000000020220401000003600NNM   20220104121741    4N0N  00000060000000729200000930732AG    XGXGY   005400370024
BI00B32AG    XG22041CMW     202203117327-6874-30             MULTI FUSE               CCN000004608000004608FN00000000020220401000004608NNM   20220104121741    4N0N  00000028800000991400001157332AG    XGXGY   005400370024
BI00B32AG    XG22042CMW     202203187327-6874-30             MULTI FUSE               CCN000004608000004608FN00000000020220401000004608NNM   20220104121741    4N0N  00000028800000991400001157332AG    XGXGY   005400370024
BI00B32AG    XG22043CMW     202203257327-6874-30             MULTI FUSE               CCN000004608000004608FN00000000020220401000004608NNM   20220104121741    4N0N  00000028800000991400001157332AG    XGXGY   005400370024
BI00B32AG    XG22044CMW     202204017327-6874-30             MULTI FUSE               CCN000004608000004608FN00000000020220401000004608NNM   20220104121741    4N0N  00000028800000991400001157332AG    XGXGY   005400370024
BI00B32AG    XG22041CMW     202203117327-6884-30             MULTI FUSE               CCN000004608000004608FN00000000020220401000004608NNM   20220104121741    4N0N  00000028800000988900001154832AG    XGXGY   005400370024
BI00B32AG    XG22042CMW     202203187327-6884-30             MULTI FUSE               CCN000004608000004608FN00000000020220401000004608NNM   20220104121741    4N0N  00000028800000988900001154832AG    XGXGY   005400370024
BI00B32AG    XG22043CMW     202203257327-6884-30             MULTI FUSE               CCN000004608000004608FN00000000020220401000004608NNM   20220104121741    4N0N  00000028800000988900001154832AG    XGXGY   005400370024
BI00B32AG    XG22044CMW     202204017327-6884-30             MULTI FUSE               CCN000004608000004608FN00000000020220401000004608NNM   20220104121741    4N0N  00000028800000988900001154832AG    XGXGY   005400370024
BI00B32AG    XG22041CMW     202203117388-0316-80             CONNECTOR ASS'Y          CCN000004800000004800FN00000000020220401000004800NNM   20220104121741    4N0N  00000120000001002500001132532AG    XGXGY   005400370024
BI00B32AG    XG22042CMW     202203187388-0316-80             CONNECTOR ASS'Y          CCN000004800000004800FN00000000020220401000004800NNM   20220104121741    4N0N  00000120000001002500001132532AG    XGXGY   005400370024
BI00B32AG    XG22043CMW     202203257388-0316-80             CONNECTOR ASS'Y          CCN000003600000003600FN00000000020220401000003600NNM   20220104121741    4N0N  00000120000001002500001132532AG    XGXGY   005400370024
BI00B32AG    XG22044CMW     202204017388-0316-80             CONNECTOR ASS'Y          CCN000003600000003600FN00000000020220401000003600NNM   20220104121741    4N0N  00000120000001002500001132532AG    XGXGY   005400370024
BI00B32AG    #XG22041CMW    202203117198-1371-60             HOUSING FEMALE           CCN000004000000004000FN00000000020220401000004000NNM   20220104121741    2F0F  00000200000000597800000721232AG    XGXGY   005400370024
BI00B32AG    #XG22042CMW    202203187198-1371-60             HOUSING FEMALE           CCN000004000000004000FN00000000020220401000004000NNM   20220104121741    2F0F  00000200000000597800000721232AG    XGXGY   005400370024
BI00B32AG    #XG22043CMW    202203257198-1371-60             HOUSING FEMALE           CCN000004000000004000FN00000000020220401000004000NNM   20220104121741    2F0F  00000200000000597800000721232AG    XGXGY   005400370024
BI00B32AG    #XG22044CMW    202204017198-1371-60             HOUSING FEMALE           CCN000002000000002000FN00000000020220401000002000NNM   20220104121741    2F0F  00000200000000597800000721232AG    XGXGY   005400370024
BI00B32AG    #XG22041CMW    202203117198-1372                HOUSING FEMALE           CCN000004000000004000FN00000000020220401000004000NNM   20220104121741    2F0F  00000200000000857200000982232AG    XGXGY   005400370024
BI00B32AG    #XG22042CMW    202203187198-1372                HOUSING FEMALE           CCN000004000000004000FN00000000020220401000004000NNM   20220104121741    2F0F  00000200000000857200000982232AG    XGXGY   005400370024
BI00B32AG    #XG22043CMW    202203257198-1372                HOUSING FEMALE           CCN000004000000004000FN00000000020220401000004000NNM   20220104121741    2F0F  00000200000000857200000982232AG    XGXGY   005400370024
BI00B32AG    #XG22044CMW    202204017198-1372                HOUSING FEMALE           CCN000002000000002000FN00000000020220401000002000NNM   20220104121741    2F0F  00000200000000857200000982232AG    XGXGY   005400370024
BI00B32AG    #XG22041CMW    202203117198-1373-60             HOUSING FEMALE           CCN000004000000004000FN00000000020220401000004000NNM   20220104121741    2F0F  00000200000000819400000947432AG    XGXGY   005400370024
BI00B32AG    #XG22042CMW    202203187198-1373-60             HOUSING FEMALE           CCN000004000000004000FN00000000020220401000004000NNM   20220104121741    2F0F  00000200000000819400000947432AG    XGXGY   005400370024
BI00B32AG    #XG22043CMW    202203257198-1373-60             HOUSING FEMALE           CCN000004000000004000FN00000000020220401000004000NNM   20220104121741    2F0F  00000200000000819400000947432AG    XGXGY   005400370024
BI00B32AG    #XG22044CMW    202204017198-1373-60             HOUSING FEMALE           CCN000002000000002000FN00000000020220401000002000NNM   20220104121741    2F0F  00000200000000819400000947432AG    XGXGY   005400370024
BI00B32AG    #XG22041CMW    202203117198-2458                HOUSING FEMALE           CCN000005280000005280FN00000000020220401000005280NNM   20220104121741    2F0F  00000176000000869100001160532AG    XGXGY   005400370024
BI00B32AG    #XG22042CMW    202203187198-2458                HOUSING FEMALE           CCN000003520000003520FN00000000020220401000003520NNM   20220104121741    2F0F  00000176000000869100001160532AG    XGXGY   005400370024
BI00B32AG    #XG22043CMW    202203257198-2458                HOUSING FEMALE           CCN000003520000003520FN00000000020220401000003520NNM   20220104121741    2F0F  00000176000000869100001160532AG    XGXGY   005400370024
BI00B32AG    #XG22044CMW    202204017198-2458                HOUSING FEMALE           CCN000003520000003520FN00000000020220401000003520NNM   20220104121741    2F0F  00000176000000869100001160532AG    XGXGY   005400370024
BI00B32AG    #XG22041CMW    202203117298-2459-60             LIF FEMALE ASSEMBLY      CCN000004872000004872FN00000000020220401000004872NNM   20220104121741    2N0N  00000016800000534000000729632AG    XGXGY   005400370024
BI00B32AG    #XG22042CMW    202203187298-2459-60             LIF FEMALE ASSEMBLY      CCN000004032000004032FN00000000020220401000004032NNM   20220104121741    2N0N  00000016800000534000000729632AG    XGXGY   005400370024
BI00B32AG    #XG22043CMW    202203257298-2459-60             LIF FEMALE ASSEMBLY      CCN000003864000003864FN00000000020220401000003864NNM   20220104121741    2N0N  00000016800000534000000729632AG    XGXGY   005400370024
BI00B32AG    #XG22044CMW    202204017298-2459-60             LIF FEMALE ASSEMBLY      CCN000003360000003360FN00000000020220401000003360NNM   20220104121741    2N0N  00000016800000534000000729632AG    XGXGY   005400370024
BI00B32AG    #XG22043GMW    202203257282-1140-90             HOUSING MALE ASS'Y       CCN000001000000001000FN00000000020220401000001000NNM   20220104121741    2N0N  00000050000000467500000590032AG    XGXGY   005400370024
BI00B32AG    #XG22044GMW    202204017282-1140-90             HOUSING MALE ASS'Y       CCN000001500000001500FN00000000020220401000001500NNM   20220104121741    2N0N  00000050000000467500000590032AG    XGXGY   005400370024
BI00B32AG    XG22042KMW     202203187196-0104-02             TERMINAL                 CCN000038000000038000FN00000000020220401000038000NNM   20220104121741    4P0P  00003800000000570000000956432AG    XGXGY   006400630017
BI00B32AG    XG22043KMW     202203257327-6469-3W             BATTERY FUSE             CCN000000192000000192FN00000000020220401000000192NNM   20220104121741    4N0N  00000009600000832300001012332AG    XGXGY   005400370024
BI00B32AG    XG22044KMW     202204017327-6469-3W             BATTERY FUSE             CCN000000192000000192FN00000000020220401000000192NNM   20220104121741    4N0N  00000009600000832300001012332AG    XGXGY   005400370024
BI00B32AG    @XG22043KMW    202203257123-2825                HOUSING                  CCN000006000000006000FN00000000020220401000006000NNM   20220104121741    3F0F  00000600000000958800001136432AG    XGXGY   005500360039
BI00B32AG    XG22041LMW     202203117017-1183-02             TERMINAL                 CCN000027000000027000FN00000000020220401000027000NNM   20220104121741    4P0P  00002700000001139400001307432AG    XGXGY   005100280028
BI00B32AG    XG22042LMW     202203187017-1183-02             TERMINAL                 CCN000027000000027000FN00000000020220401000027000NNM   20220104121741    4P0P  00002700000001139400001307432AG    XGXGY   005100280028
BI00B32AG    XG22043LMW     202203257017-1183-02             TERMINAL                 CCN000027000000027000FN00000000020220401000027000NNM   20220104121741    4P0P  00002700000001139400001307432AG    XGXGY   005100280028
BI00B32AG    XG22041LMW     202203117116-4025                TERMINAL                 CCN000016000000016000FN00000000020220401000016000NNM   20220104121741    4P0P  00001600000000644800000975132AG    XGXGY   006400630017
BI00B32AG    XG22042LMW     202203187116-4025                TERMINAL                 CCN000048000000048000FN00000000020220401000048000NNM   20220104121741    4P0P  00001600000000644800000975132AG    XGXGY   006400630017
BI00B32AG    XG22043LMW     202203257116-4025                TERMINAL                 CCN000064000000064000FN00000000020220401000064000NNM   20220104121741    4P0P  00001600000000644800000975132AG    XGXGY   006400630017
BI00B32AG    XG22044LMW     202204017116-4025                TERMINAL                 CCN000064000000064000FN00000000020220401000064000NNM   20220104121741    4P0P  00001600000000644800000975132AG    XGXGY   006400630017
BI00B32AG    XG22041LMW     202203117116-4026                TERMINAL                 CCN000080000000080000FN00000000020220401000080000NNM   20220104121741    4P0P  00001600000000664000000994332AG    XGXGY   006400630017
BI00B32AG    XG22042LMW     202203187116-4026                TERMINAL                 CCN000064000000064000FN00000000020220401000064000NNM   20220104121741    4P0P  00001600000000664000000994332AG    XGXGY   006400630017
BI00B32AG    XG22043LMW     202203257116-4026                TERMINAL                 CCN000064000000064000FN00000000020220401000064000NNM   20220104121741    4P0P  00001600000000664000000994332AG    XGXGY   006400630017
BI00B32AG    XG22044LMW     202204017116-4026                TERMINAL                 CCN000048000000048000FN00000000020220401000048000NNM   20220104121741    4P0P  00001600000000664000000994332AG    XGXGY   006400630017
BI00B32AG    XG22041LMW     202203117172-1372-10             FRONT HOLDER             CCN000007800000007800FN00000000020220401000007800NNM   20220104121741    4F0F  00000390000000655200000955232AG    XGXGY   005500360039
BI00B32AG    XG22042LMW     202203187172-1372-10             FRONT HOLDER             CCN000003900000003900FN00000000020220401000003900NNM   20220104121741    4F0F  00000390000000655200000955232AG    XGXGY   005500360039
BI00B32AG    XG22043LMW     202203257172-1372-10             FRONT HOLDER             CCN000003900000003900FN00000000020220401000003900NNM   20220104121741    4F0F  00000390000000655200000955232AG    XGXGY   005500360039
BI00B32AG    XG22044LMW     202204017172-1372-10             FRONT HOLDER             CCN000003900000003900FN00000000020220401000003900NNM   20220104121741    4F0F  00000390000000655200000955232AG    XGXGY   005500360039
BI00B32AG    XG22042LMW     202203187283-5843                CONNECTOR                CCN000001500000001500FN00000000020220401000001500NNM   20220104121741    1N0N  00000150000000889000001132032AG    XGXGY   005600390040
BI00B32AG    XG22043LMW     202203257283-5843                CONNECTOR                CCN000001500000001500FN00000000020220401000001500NNM   20220104121741    1N0N  00000150000000889000001132032AG    XGXGY   005600390040
BI00B32AG    XG22044LMW     202204017283-5843                CONNECTOR                CCN000001500000001500FN00000000020220401000001500NNM   20220104121741    1N0N  00000150000000889000001132032AG    XGXGY   005600390040
BI00B32AG    XG22041LMW     202203117289-4696-30             HOUSING FEMALE ASS'Y     CCN000008000000008000FN00000000020220401000008000NNM   20220104121741    4N0N  00000200000000913400001055432AG    XGXGY   005400370024
BI00B32AG    XG22042LMW     202203187289-4696-30             HOUSING FEMALE ASS'Y     CCN000016000000016000FN00000000020220401000016000NNM   20220104121741    4N0N  00000200000000913400001055432AG    XGXGY   005400370024
BI00B32AG    XG22043LMW     202203257289-4696-30             HOUSING FEMALE ASS'Y     CCN000018000000018000FN00000000020220401000018000NNM   20220104121741    4N0N  00000200000000913400001055432AG    XGXGY   005400370024
BI00B32AG    XG22044LMW     202204017289-4696-30             HOUSING FEMALE ASS'Y     CCN000014000000014000FN00000000020220401000014000NNM   20220104121741    4N0N  00000200000000913400001055432AG    XGXGY   005400370024
BI00B32AG    XG22041LMW     202203117289-7615-30             HOUSING FEMALE ASS'Y     CCN000006720000006720FN00000000020220401000006720NNM   20220104121741    4N0N  00000032000000738000000948032AG    XGXGY   005400370024
BI00B32AG    XG22042LMW     202203187289-7615-30             HOUSING FEMALE ASS'Y     CCN000004480000004480FN00000000020220401000004480NNM   20220104121741    4N0N  00000032000000738000000948032AG    XGXGY   005400370024
BI00B32AG    XG22043LMW     202203257289-7615-30             HOUSING FEMALE ASS'Y     CCN000004160000004160FN00000000020220401000004160NNM   20220104121741    4N0N  00000032000000738000000948032AG    XGXGY   005400370024
BI00B32AG    XG22044LMW     202204017289-7615-30             HOUSING FEMALE ASS'Y     CCN000003200000003200FN00000000020220401000003200NNM   20220104121741    4N0N  00000032000000738000000948032AG    XGXGY   005400370024
BI00B32AG    XG22041LMW     202203117388-0314                CONNECTOR ASS'Y          CCN000000750000001200FN00000000020220401000001200NNM   20220104121741    4N0N  00000120000001038000001132332AG    XGXGY   005400370024
BI00B32AG    XG22042LMW     202203187388-0314                CONNECTOR ASS'Y          CCN000001500000002400FN00000000020220401000002400NNM   20220104121741    4N0N  00000120000001038000001132332AG    XGXGY   005400370024
BI00B32AG    XG22043LMW     202203257388-0314                CONNECTOR ASS'Y          CCN000000750000001200FN00000000020220401000001200NNM   20220104121741    4N0N  00000120000001038000001132332AG    XGXGY   005400370024
BI00B32AG    XG22044LMW     202204017388-0314                CONNECTOR ASS'Y          CCN000001500000002400FN00000000020220401000002400NNM   20220104121741    4N0N  00000120000001038000001132332AG    XGXGY   005400370024
BI00B32AG    #XG22042LMW    202203187157-3992-90             CONNECTOR SEALED         CCN000040000000040000FN00000000020220401000040000NNM   20220104121741    2C0C  00004000000000300000000363332AG    XGXGY   002700430014
BI00B32AG    #XG22044LMW    202204017157-3992-90             CONNECTOR SEALED         CCN000040000000040000FN00000000020220401000040000NNM   20220104121741    2C0C  00004000000000300000000363332AG    XGXGY   002700430014
BI00B32AG    #XG22041LMW    202203117158-3003-90             RUBBER STOPPER           CCN000060000000060000FN00000000020220401000060000NNM   20220104121741    2C0C  00002000000000250000000306032AG    XGXGY   002700430014
BI00B32AG    #XG22042LMW    202203187158-3003-90             RUBBER STOPPER           CCN000060000000060000FN00000000020220401000060000NNM   20220104121741    2C0C  00002000000000250000000306032AG    XGXGY   002700430014
BI00B32AG    #XG22043LMW    202203257158-3003-90             RUBBER STOPPER           CCN000040000000040000FN00000000020220401000040000NNM   20220104121741    2C0C  00002000000000250000000306032AG    XGXGY   002700430014
BI00B32AG    #XG22044LMW    202204017158-3003-90             RUBBER STOPPER           CCN000060000000060000FN00000000020220401000060000NNM   20220104121741    2C0C  00002000000000250000000306032AG    XGXGY   002700430014
BI00B32AG    #XG22041LMW    202203117158-3008-80             RUBBER STOPPER           CCN000020000000020000FN00000000020220401000020000NNM   20220104121741    2C0C  00002000000000288000000343032AG    XGXGY   004300270014
BI00B32AG    #XG22041LMW    202203117158-3120-90             CONNECTOR WIRE SEAL      CCN000120000000120000FN00000000020220401000120000NNM   20220104121741    2C0C  00002000000000136000000194032AG    XGXGY   002700430014
BI00B32AG    #XG22042LMW    202203187158-3120-90             CONNECTOR WIRE SEAL      CCN000060000000060000FN00000000020220401000060000NNM   20220104121741    2C0C  00002000000000136000000194032AG    XGXGY   002700430014
BI00B32AG    #XG22043LMW    202203257158-3120-90             CONNECTOR WIRE SEAL      CCN000060000000060000FN00000000020220401000060000NNM   20220104121741    2C0C  00002000000000136000000194032AG    XGXGY   002700430014
BI00B32AG    #XG22044LMW    202204017158-3120-90             CONNECTOR WIRE SEAL      CCN000060000000060000FN00000000020220401000060000NNM   20220104121741    2C0C  00002000000000136000000194032AG    XGXGY   002700430014
BI00B32AG    #XG22041LMW    202203117158-3121-80             WIRE SEAL                CCN000040000000040000FN00000000020220401000040000NNM   20220104121741    2C0C  00002000000000118000000187332AG    XGXGY   002700430014
BI00B32AG    #XG22042LMW    202203187158-3121-80             WIRE SEAL                CCN000040000000040000FN00000000020220401000040000NNM   20220104121741    2C0C  00002000000000118000000187332AG    XGXGY   002700430014
BI00B32AG    #XG22043LMW    202203257158-3121-80             WIRE SEAL                CCN000040000000040000FN00000000020220401000040000NNM   20220104121741    2C0C  00002000000000118000000187332AG    XGXGY   002700430014
BI00B32AG    #XG22044LMW    202204017158-3121-80             WIRE SEAL                CCN000040000000040000FN00000000020220401000040000NNM   20220104121741    2C0C  00002000000000118000000187332AG    XGXGY   002700430014
BI00B32AG    #XG22041LMW    202203117158-3654-80             WIRE TUBE                CCN000040000000040000FN00000000020220401000040000NNM   20220104121741    2H0H  00004000000000104000000152232AG    XGXGY   004300270014
BI00B32AG    #XG22042LMW    202203187158-3654-80             WIRE TUBE                CCN000080000000080000FN00000000020220401000080000NNM   20220104121741    2H0H  00004000000000104000000152232AG    XGXGY   004300270014
BI00B32AG    #XG22043LMW    202203257158-3654-80             WIRE TUBE                CCN000120000000120000FN00000000020220401000120000NNM   20220104121741    2H0H  00004000000000104000000152232AG    XGXGY   004300270014
BI00B32AG    #XG22044LMW    202204017158-3654-80             WIRE TUBE                CCN000080000000080000FN00000000020220401000080000NNM   20220104121741    2H0H  00004000000000104000000152232AG    XGXGY   004300270014
BI00B32AG    #XG22041LMW    202203117182-9631-40             JOINT CONNECTOR          CCN000009000000009000FN00000000020220401000009000NNM   20220104121741    2F0F  00000300000001182000001307432AG    XGXGY   005400370024
BI00B32AG    #XG22042LMW    202203187182-9631-40             JOINT CONNECTOR          CCN000006000000006000FN00000000020220401000006000NNM   20220104121741    2F0F  00000300000001182000001307432AG    XGXGY   005400370024
BI00B32AG    #XG22043LMW    202203257182-9631-40             JOINT CONNECTOR          CCN000006000000006000FN00000000020220401000006000NNM   20220104121741    2F0F  00000300000001182000001307432AG    XGXGY   005400370024
BI00B32AG    #XG22044LMW    202204017182-9631-40             JOINT CONNECTOR          CCN000003000000003000FN00000000020220401000003000NNM   20220104121741    2F0F  00000300000001182000001307432AG    XGXGY   005400370024
BI00B32AG    #XG22044LMW    202204017182-9633-40             JOINT CONNECTOR          CCN000003000000003000FN00000000020220401000003000NNM   20220104121741    2F0F  00000300000001335000001460532AG    XGXGY   005400370024
BI00B32AG    XG22041NMW     202203117116-4120-02             TERMINAL                 CCN000012000000012000FN00000000020220401000012000NNM   20220104121741    4P0P  00000600000000780000001073632AG    XGXGY   006400630015
BI00B32AG    XG22042NMW     202203187116-4120-02             TERMINAL                 CCN000012000000012000FN00000000020220401000012000NNM   20220104121741    4P0P  00000600000000780000001073632AG    XGXGY   006400630015
BI00B32AG    XG22043NMW     202203257116-4120-02             TERMINAL                 CCN000006000000006000FN00000000020220401000006000NNM   20220104121741    4P0P  00000600000000780000001073632AG    XGXGY   006400630015
BI00B32AG    XG22044NMW     202204017116-4120-02             TERMINAL                 CCN000012000000012000FN00000000020220401000012000NNM   20220104121741    4P0P  00000600000000780000001073632AG    XGXGY   006400630015
BI00B32AG    XG22041NMW     202203117116-4121-02             TERMINAL                 CCN000049500000049500FN00000000020220401000049500NNM   20220104121741    4P0P  00000450000000618800000912432AG    XGXGY   006400630015
BI00B32AG    XG22042NMW     202203187116-4121-02             TERMINAL                 CCN000045000000045000FN00000000020220401000045000NNM   20220104121741    4P0P  00000450000000618800000912432AG    XGXGY   006400630015
BI00B32AG    XG22043NMW     202203257116-4121-02             TERMINAL                 CCN000045000000045000FN00000000020220401000045000NNM   20220104121741    4P0P  00000450000000618800000912432AG    XGXGY   006400630015
BI00B32AG    XG22044NMW     202204017116-4121-02             TERMINAL                 CCN000036000000036000FN00000000020220401000036000NNM   20220104121741    4P0P  00000450000000618800000912432AG    XGXGY   006400630015
BI00B32AG    XG22042NMW     202203187116-4122-02             TERMINAL                 CCN000004500000004500FN00000000020220401000004500NNM   20220104121741    4P0P  00000450000000656600000950232AG    XGXGY   006400630015
BI00B32AG    XG22043NMW     202203257116-4122-02             TERMINAL                 CCN000009000000009000FN00000000020220401000009000NNM   20220104121741    4P0P  00000450000000656600000950232AG    XGXGY   006400630015
BI00B32AG    XG22044NMW     202204017116-4122-02             TERMINAL                 CCN000004500000004500FN00000000020220401000004500NNM   20220104121741    4P0P  00000450000000656600000950232AG    XGXGY   006400630015
BI00B32AG    XG22041NMW     202203117116-4415-02             TERMINAL                 CCN000532000000532000FN00000000020220401000532000NNM   20220104121741    4P0P  00003800000000596600000925732AG    XGXGY   006400630017
BI00B32AG    XG22042NMW     202203187116-4415-02             TERMINAL                 CCN000494000000494000FN00000000020220401000494000NNM   20220104121741    4P0P  00003800000000596600000925732AG    XGXGY   006400630017
BI00B32AG    XG22043NMW     202203257116-4415-02             TERMINAL                 CCN000532000000532000FN00000000020220401000532000NNM   20220104121741    4P0P  00003800000000596600000925732AG    XGXGY   006400630017
BI00B32AG    XG22044NMW     202204017116-4415-02             TERMINAL                 CCN000380000000380000FN00000000020220401000380000NNM   20220104121741    4P0P  00003800000000596600000925732AG    XGXGY   006400630017
BI00B32AG    XG22041NMW     202203117126-8853-02             TERMINAL                 CCN000022500000022500FN00000000020220401000022500NNM   20220104121741    4P0P  00000750000000562500000847732AG    XGXGY   006400630015
BI00B32AG    XG22042NMW     202203187126-8853-02             TERMINAL                 CCN000045000000045000FN00000000020220401000045000NNM   20220104121741    4P0P  00000750000000562500000847732AG    XGXGY   006400630015
BI00B32AG    XG22043NMW     202203257126-8853-02             TERMINAL                 CCN000045000000045000FN00000000020220401000045000NNM   20220104121741    4P0P  00000750000000562500000847732AG    XGXGY   006400630015
BI00B32AG    XG22044NMW     202204017126-8853-02             TERMINAL                 CCN000045000000045000FN00000000020220401000045000NNM   20220104121741    4P0P  00000750000000562500000847732AG    XGXGY   006400630015
BI00B32AG    XG22043NMW     202203257126-8855-02             TERMINAL                 CCN000006000000006000FN00000000020220401000006000NNM   20220104121741    4P0P  00000600000000510600000795832AG    XGXGY   006400630015
BI00B32AG    XG22044NMW     202204017126-8855-02             TERMINAL                 CCN000006000000006000FN00000000020220401000006000NNM   20220104121741    4P0P  00000600000000510600000795832AG    XGXGY   006400630015
BI00B32AG    XG22041NMW     202203117158-3165-90             WIRE SEAL                CCN000280000000280000FN00000000020220401000280000NNM   20220104121741    1C0C  00004000000000124000000172432AG    XGXGY   004300270014
BI00B32AG    XG22042NMW     202203187158-3165-90             WIRE SEAL                CCN000200000000200000FN00000000020220401000200000NNM   20220104121741    1C0C  00004000000000124000000172432AG    XGXGY   004300270014
BI00B32AG    XG22043NMW     202203257158-3165-90             WIRE SEAL                CCN000160000000160000FN00000000020220401000160000NNM   20220104121741    1C0C  00004000000000124000000172432AG    XGXGY   004300270014
BI00B32AG    XG22044NMW     202204017158-3165-90             WIRE SEAL                CCN000120000000120000FN00000000020220401000120000NNM   20220104121741    1C0C  00004000000000124000000172432AG    XGXGY   004300270014
BI00B32AG    XG22041NMW     202203117158-3167-80             WIRE SEAL                CCN000220000000220000FN00000000020220401000220000NNM   20220104121741    1C0C  00002000000000048000000109032AG    XGXGY   002700430014
BI00B32AG    XG22042NMW     202203187158-3167-80             WIRE SEAL                CCN000220000000220000FN00000000020220401000220000NNM   20220104121741    1C0C  00002000000000048000000109032AG    XGXGY   002700430014
BI00B32AG    XG22043NMW     202203257158-3167-80             WIRE SEAL                CCN000200000000200000FN00000000020220401000200000NNM   20220104121741    1C0C  00002000000000048000000109032AG    XGXGY   002700430014
BI00B32AG    XG22044NMW     202204017158-3167-80             WIRE SEAL                CCN000160000000160000FN00000000020220401000160000NNM   20220104121741    1C0C  00002000000000048000000109032AG    XGXGY   002700430014
BI00B32AG    XG22041NMW     202203117158-3168-80             SEALED                   CCN000020000000020000FN00000000020220401000020000NNM   20220104121741    1C0C  00002000000000044000000092132AG    XGXGY   004300260014
BI00B32AG    XG22042NMW     202203187158-3168-80             SEALED                   CCN000040000000040000FN00000000020220401000040000NNM   20220104121741    1C0C  00002000000000044000000092132AG    XGXGY   004300260014
BI00B32AG    XG22043NMW     202203257158-3168-80             SEALED                   CCN000040000000040000FN00000000020220401000040000NNM   20220104121741    1C0C  00002000000000044000000092132AG    XGXGY   004300260014
BI00B32AG    XG22044NMW     202204017158-3168-80             SEALED                   CCN000040000000040000FN00000000020220401000040000NNM   20220104121741    1C0C  00002000000000044000000092132AG    XGXGY   004300260014
BI00B32AG    #XG22042NMW    202203187123-6423-30             CONNECTOR                CCN000004000000004000FN00000000020220401000004000NNM   20220104121741    2F0F  00000200000001002000001167632AG    XGXGY   005600390023
BI00B32AG    #XG22043NMW    202203257123-6423-30             CONNECTOR                CCN000004000000004000FN00000000020220401000004000NNM   20220104121741    2F0F  00000200000001002000001167632AG    XGXGY   005600390023
BI00B32AG    #XG22044NMW    202204017123-6423-30             CONNECTOR                CCN000004000000004000FN00000000020220401000004000NNM   20220104121741    2F0F  00000200000001002000001167632AG    XGXGY   005600390023
BI00B32AG    XG22041QMW     202203117196-1460-02             TERMINAL FEMALE          CCN000085500000085500FN00000000020220401000085500NNM   20220104121741    4P0P  00002850000000444600000729832AG    XGXGY   006400630015
BI00B32AG    XG22042QMW     202203187196-1460-02             TERMINAL FEMALE          CCN000085500000085500FN00000000020220401000085500NNM   20220104121741    4P0P  00002850000000444600000729832AG    XGXGY   006400630015
BI00B32AG    XG22043QMW     202203257196-1460-02             TERMINAL FEMALE          CCN000057000000057000FN00000000020220401000057000NNM   20220104121741    4P0P  00002850000000444600000729832AG    XGXGY   006400630015
BI00B32AG    XG22044QMW     202204017196-1460-02             TERMINAL FEMALE          CCN000057000000057000FN00000000020220401000057000NNM   20220104121741    4P0P  00002850000000444600000729832AG    XGXGY   006400630015
BI00B32BF    TT22041KMW     202202227114-1301                TERMINAL                 CCN000078000000078000FN00000000020220401000078000NNM   20220104121741    4P0P  00001950000000614300000907932BF    TTTJYCD 006400630015
BI00B32BF    TT22042KMW     202203017114-1301                TERMINAL                 CCN000058500000058500FN00000000020220401000058500NNM   20220104121741    4P0P  00001950000000614300000907932BF    TTTJYCD 006400630015
BI00B32BF    TT22043KMW     202203087114-1301                TERMINAL                 CCN000039000000039000FN00000000020220401000039000NNM   20220104121741    4P0P  00001950000000614300000907932BF    TTTJYCD 006400630015
BI00B32BF    TT22041KMW     202202227116-1471                TERMINAL                 CCN000015000000015000FN00000000020220401000015000NNM   20220104121741    4P0P  00001500000000579000000867232BF    TTTJYCD 006400630015
BI00B32BF    TT22041KMW     202202227116-4025                TERMINAL                 CCN000032000000032000FN00000000020220401000032000NNM   20220104121741    4P0P  00001600000000644800000975132BF    TTTJYCD 006400630017
BI00B32BF    TT22042KMW     202203017116-4025                TERMINAL                 CCN000016000000016000FN00000000020220401000016000NNM   20220104121741    4P0P  00001600000000644800000975132BF    TTTJYCD 006400630017
BI00B32BF    TT22041KMW     202202227116-6041                TERMINAL                 CCN000004500000004500FN00000000020220401000004500NNM   20220104121741    4P0P  00000450000000716000001009632BF    TTTJYCD 006400630015
BI00B32BF    TT22041KMW     202202227158-3006-90             RUBBER STOPPER           CCN000040000000040000FN00000000020220401000040000NNM   20220104121741    1C0C  00002000000000330600000386032BF    TTTJYCD 002700430014
BI00B32BF    #TT22041KMW    202202227119-3130                HOUSING                  CCN000003000000003000FN00000000020220401000003000NNM   20220104121741    2F0F  00000300000001758000001868032BF    TTTJYCD 005500360039
BI00B32BF    #TT22042KMW    202203017119-3130                HOUSING                  CCN000003000000003000FN00000000020220401000003000NNM   20220104121741    2F0F  00000300000001758000001868032BF    TTTJYCD 005500360039
BI00B32BF    #TT22041KMW    202202227157-3790-90             WIRE SEAL                CCN000020000000020000FN00000000020220401000020000NNM   20220104121741    2C0C  00002000000000176000000232732BF    TTTJYCD 002700430014
BI00B32BF    @TT22041KMW    202202227283-1100-60             CONNECTOR ASS'Y          CCN000003200000003200FN00000000020220401000003200NNM   20220104121741    3N0N  00000160000000567500000801432BF    TTTJYCD 005500360039
BI00B32DE    TCT2034        202203037017-1180-02             TERMINAL                 CCN000072000000072000FN00000000020220301000072000NNM   20220104132801    4P0P  00007200000001065600001229032DE    TVYEV-TV005100280028
BI00B32DE    TCT2033        202202247017-1181-02             TERMINAL                 CCN000063000000063000FN00000000020220301000063000NNM   20220104132801    4P0P  00006300000001089900001266832DE    TVYEV-TV005100280028
BI00B32DE    TCT2034        202203037114-4020                TERMINAL                 CCN000042000000042000FN00000000020220301000042000NNM   20220104132801    4P0P  00002100000000875700001169332DE    TVYEV-TV006400630015
BI00B32DE    TCT2034        202203037114-4112-02             TERMINAL                 CCN000009000000009000FN00000000020220301000009000NNM   20220104132801    4P0P  00000900000000598500000927132DE    TVYEV-TV006400630017
BI00B32DE    TCT2031        202202107114-4486-02             TERMINAL                 CCN000024000000024000FN00000000020220301000024000NNM   20220104132801    4P0P  00002400000000662400000956032DE    TVYEV-TV006400630015
BI00B32DE    TCT2032        202202177114-4486-02             TERMINAL                 CCN000024000000024000FN00000000020220301000024000NNM   20220104132801    4P0P  00002400000000662400000956032DE    TVYEV-TV006400630015
BI00B32DE    TCT2033        202202247114-4486-02             TERMINAL                 CCN000024000000024000FN00000000020220301000024000NNM   20220104132801    4P0P  00002400000000662400000956032DE    TVYEV-TV006400630015
BI00B32DE    TCT2034        202203037114-4486-02             TERMINAL                 CCN000024000000024000FN00000000020220301000024000NNM   20220104132801    4P0P  00002400000000662400000956032DE    TVYEV-TV006400630015
BI00B32DE    TCT2032        202202177114-4728-02             TERMINAL                 CCN000240000000240000FN00000000020220301000240000NNM   20220104132801    4P0P  00003000000000510000000804232DE    TVYEV-TV006400630015
BI00B32DE    TCT2033        202202247114-4728-02             TERMINAL                 CCN000390000000390000FN00000000020220301000390000NNM   20220104132801    4P0P  00003000000000510000000804232DE    TVYEV-TV006400630015
BI00B32DE    TCT2034        202203037114-4728-02             TERMINAL                 CCN000600000000600000FN00000000020220301000600000NNM   20220104132801    4P0P  00003000000000510000000804232DE    TVYEV-TV006400630015
BI00B32DE    TCT2034        202203037114-5746-02             TERMINAL                 CCN000105000000105000FN00000000020220301000105000NNM   20220104132801    4P0P  00002100000000695100000988732DE    TVYEV-TV006400630015
BI00B32DE    TCT2032        202202177114-5747-02             TERMINAL                 CCN000018000000018000FN00000000020220301000018000NNM   20220104132801    4P0P  00001800000000626400000920032DE    TVYEV-TV006400630015
BI00B32DE    TCT2033        202202247114-5747-02             TERMINAL                 CCN000018000000018000FN00000000020220301000018000NNM   20220104132801    4P0P  00001800000000626400000920032DE    TVYEV-TV006400630015
BI00B32DE    TCT2034        202203037114-5747-02             TERMINAL                 CCN000018000000018000FN00000000020220301000018000NNM   20220104132801    4P0P  00001800000000626400000920032DE    TVYEV-TV006400630015
BI00B32DE    TCT2033        202202247114-5748-02             TERMINAL                 CCN000024000000024000FN00000000020220301000024000NNM   20220104132801    4P0P  00001200000000444000000737632DE    TVYEV-TV006400630015
BI00B32DE    TCT2034        202203037114-5748-02             TERMINAL                 CCN000024000000024000FN00000000020220301000024000NNM   20220104132801    4P0P  00001200000000444000000737632DE    TVYEV-TV006400630015
BI00B32DE    TCT2034        202203037114-5753-02             TERMINAL                 CCN000027000000027000FN00000000020220301000027000NNM   20220104132801    4P0P  00002700000000847800001141432DE    TVYEV-TV006400630015
BI00B32DE    TCT2034        202203037116-1685-02             TERMINAL                 CCN000648000000648000FN00000000020220301000648000NNM   20220104132801    4P0P  00002400000000897600001065232DE    TVYEV-TV005100280028
BI00B32DE    TCT2034        202203037116-1686-02             TERMINAL                 CCN000021000000021000FN00000000020220301000021000NNM   20220104132801    4P0P  00002100000000869400001021632DE    TVYEV-TV005100280028
BI00B32DE    TCT2033        202202247116-2640                TERMINAL                 CCN000018000000018000FN00000000020220301000018000NNM   20220104132801    4P0P  00001800000001018800001196632DE    TVYEV-TV005100280028
BI00B32DE    TCT2034        202203037116-2640                TERMINAL                 CCN000036000000036000FN00000000020220301000036000NNM   20220104132801    4P0P  00001800000001018800001196632DE    TVYEV-TV005100280028
BI00B32DE    TCT2034        202203037116-2891-02             TERMINAL                 CCN000060000000060000FN00000000020220301000060000NNM   20220104132801    4P0P  00001500000000982500001145932DE    TVYEV-TV005100280028
BI00B32DE    TCT2034        202203037116-2892-02             TERMINAL                 CCN000060000000060000FN00000000020220301000060000NNM   20220104132801    4P0P  00001200000000818400000981832DE    TVYEV-TV005100280028
BI00B32DE    TCT2034        202203037116-2893-02             TERMINAL                 CCN000036000000036000FN00000000020220301000036000NNM   20220104132801    4P0P  00001200000000895200001058632DE    TVYEV-TV005100280028
BI00B32DE    TCT2032        202202177116-3153-08             TERMINAL                 CCN000027000000027000FN00000000020220301000027000NNM   20220104132801    4P0P  00002700000000461700000746932DE    TVYEV-TV006400630015
BI00B32DE    TCT2033        202202247116-3153-08             TERMINAL                 CCN000054000000054000FN00000000020220301000054000NNM   20220104132801    4P0P  00002700000000461700000746932DE    TVYEV-TV006400630015
BI00B32DE    TCT2034        202203037116-3153-08             TERMINAL                 CCN000027000000027000FN00000000020220301000027000NNM   20220104132801    4P0P  00002700000000461700000746932DE    TVYEV-TV006400630015
BI00B32DE    TCT2033        202202247116-4025                TERMINAL                 CCN000048000000048000FN00000000020220301000048000NNM   20220104132801    4P0P  00001600000000644800000975132DE    TVYEV-TV006400630017
BI00B32DE    TCT2034        202203037116-4025                TERMINAL                 CCN000272000000272000FN00000000020220301000272000NNM   20220104132801    4P0P  00001600000000644800000975132DE    TVYEV-TV006400630017
BI00B32DE    TCT2033        202202247116-4026                TERMINAL                 CCN000032000000032000FN00000000020220301000032000NNM   20220104132801    4P0P  00001600000000664000000994332DE    TVYEV-TV006400630017
BI00B32DE    TCT2034        202203037116-4026                TERMINAL                 CCN000176000000176000FN00000000020220301000176000NNM   20220104132801    4P0P  00001600000000664000000994332DE    TVYEV-TV006400630017
BI00B32DE    TCT2033        202202247116-4028-08             TERMINAL FEMALE          CCN000064000000064000FN00000000020220301000064000NNM   20220104132801    4P0P  00001600000000652800000981532DE    TVYEV-TV006400630017
BI00B32DE    TCT2034        202203037116-4028-08             TERMINAL FEMALE          CCN000144000000144000FN00000000020220301000144000NNM   20220104132801    4P0P  00001600000000652800000981532DE    TVYEV-TV006400630017
BI00B32DE    TCT2033        202202247116-4031                TERMINAL                 CCN000007500000007500FN00000000020220301000007500NNM   20220104132801    4P0P  00000750000000619500000904732DE    TVYEV-TV006400630015
BI00B32DE    TCT2034        202203037116-4031                TERMINAL                 CCN000007500000007500FN00000000020220301000007500NNM   20220104132801    4P0P  00000750000000619500000904732DE    TVYEV-TV006400630015
BI00B32DE    TCT2034        202203037116-4032                TERMINAL                 CCN000066000000066000FN00000000020220301000066000NNM   20220104132801    4P0P  00000600000000532800000818032DE    TVYEV-TV006400630015
BI00B32DE    TCT2033        202202247116-4037                TERMINAL                 CCN000024000000024000FN00000000020220301000024000NNM   20220104132801    4P0P  00000600000000600000000894232DE    TVYEV-TV006400630015
BI00B32DE    TCT2034        202203037116-4037                TERMINAL                 CCN000060000000060000FN00000000020220301000060000NNM   20220104132801    4P0P  00000600000000600000000894232DE    TVYEV-TV006400630015
BI00B32DE    TCT2034        202203037116-4100-02             TERMINAL                 CCN000015000000015000FN00000000020220301000015000NNM   20220104132801    4P0P  00001500000000696000000990232DE    TVYEV-TV006400630015
BI00B32DE    TCT2032        202202177116-4102-02             TERMINAL                 CCN000012000000012000FN00000000020220301000012000NNM   20220104132801    4P0P  00001200000000553200000841432DE    TVYEV-TV006400630015
BI00B32DE    TCT2033        202202247116-4102-02             TERMINAL                 CCN000012000000012000FN00000000020220301000012000NNM   20220104132801    4P0P  00001200000000553200000841432DE    TVYEV-TV006400630015
BI00B32DE    TCT2034        202203037116-4102-02             TERMINAL                 CCN000024000000024000FN00000000020220301000024000NNM   20220104132801    4P0P  00001200000000553200000841432DE    TVYEV-TV006400630015
BI00B32DE    TCT2034        202203037116-4103-02             TERMINAL                 CCN000012000000012000FN00000000020220301000012000NNM   20220104132801    4P0P  00001200000000571200000859432DE    TVYEV-TV006400630015
BI00B32DE    TCT2034        202203037116-4114-02             TERMINAL                 CCN000031500000031500FN00000000020220301000031500NNM   20220104132801    4P0P  00001050000000693000000981232DE    TVYEV-TV006400630015
BI00B32DE    TCT2034        202203037116-4231-02             TERMINAL                 CCN000260000000260000FN00000000020220301000260000NNM   20220104132801    4P0P  00002600000000683800001012532DE    TVYEV-TV006400630017
BI00B32DE    TCT2034        202203037116-4415-02             TERMINAL                 CCN000076000000076000FN00000000020220301000076000NNM   20220104132801    4P0P  00003800000000596600000925732DE    TVYEV-TV006400630017
BI00B32DE    TCT2034        202203037116-4416-02             TERMINAL                 CCN000032000000032000FN00000000020220301000032000NNM   20220104132801    4P0P  00003200000000518400000847132DE    TVYEV-TV006400630017
BI00B32DE    TCT2032        202202177116-4486-02             TERMINAL                 CCN000084000000084000FN00000000020220301000084000NNM   20220104132801    4P0P  00002800000000666400000995132DE    TVYEV-TV006400630017
BI00B32DE    TCT2033        202202247116-4486-02             TERMINAL                 CCN000084000000084000FN00000000020220301000084000NNM   20220104132801    4P0P  00002800000000666400000995132DE    TVYEV-TV006400630017
BI00B32DE    TCT2034        202203037116-4486-02             TERMINAL                 CCN000112000000112000FN00000000020220301000112000NNM   20220104132801    4P0P  00002800000000666400000995132DE    TVYEV-TV006400630017
BI00B32DE    TCT2033        202202247116-5035-02             TERMINAL                 CCN000090000000090000FN00000000020220301000090000NNM   20220104132801    4P0P  00001500000000543000000828232DE    TVYEV-TV006400630015
BI00B32DE    TCT2034        202203037116-5035-02             TERMINAL                 CCN000135000000135000FN00000000020220301000135000NNM   20220104132801    4P0P  00001500000000543000000828232DE    TVYEV-TV006400630015
BI00B32DE    TCT2032        202202177116-5041-02             TERMINAL                 CCN000120000000120000FN00000000020220301000120000NNM   20220104132801    4P0P  00001500000000583500000868732DE    TVYEV-TV006400630015
BI00B32DE    TCT2033        202202247116-5041-02             TERMINAL                 CCN000240000000240000FN00000000020220301000240000NNM   20220104132801    4P0P  00001500000000583500000868732DE    TVYEV-TV006400630015
BI00B32DE    TCT2034        202203037116-5041-02             TERMINAL                 CCN000315000000315000FN00000000020220301000315000NNM   20220104132801    4P0P  00001500000000583500000868732DE    TVYEV-TV006400630015
BI00B32DE    TCT2032        202202177116-5042-02             TERMINAL                 CCN000094500000094500FN00000000020220301000094500NNM   20220104132801    4P0P  00001350000000560300000845532DE    TVYEV-TV006400630015
BI00B32DE    TCT2033        202202247116-5042-02             TERMINAL                 CCN000108000000108000FN00000000020220301000108000NNM   20220104132801    4P0P  00001350000000560300000845532DE    TVYEV-TV006400630015
BI00B32DE    TCT2034        202203037116-5042-02             TERMINAL                 CCN000135000000135000FN00000000020220301000135000NNM   20220104132801    4P0P  00001350000000560300000845532DE    TVYEV-TV006400630015
BI00B32DE    TCT2032        202202177116-5043-02             TERMINAL FEMALE          CCN000036000000036000FN00000000020220301000036000NNM   20220104132801    4P0P  00001200000000559200000844432DE    TVYEV-TV006400630015
BI00B32DE    TCT2033        202202247116-5043-02             TERMINAL FEMALE          CCN000108000000108000FN00000000020220301000108000NNM   20220104132801    4P0P  00001200000000559200000844432DE    TVYEV-TV006400630015
BI00B32DE    TCT2034        202203037116-5043-02             TERMINAL FEMALE          CCN000144000000144000FN00000000020220301000144000NNM   20220104132801    4P0P  00001200000000559200000844432DE    TVYEV-TV006400630015
BI00B32DE    TCT2033        202202247116-5044-02             TERMINAL                 CCN000112000000112000FN00000000020220301000112000NNM   20220104132801    4P0P  00001600000000641600000986332DE    TVYEV-TV006400630017
BI00B32DE    TCT2034        202203037116-5044-02             TERMINAL                 CCN000304000000304000FN00000000020220301000304000NNM   20220104132801    4P0P  00001600000000641600000986332DE    TVYEV-TV006400630017
BI00B32DE    TCT2034        202203037116-5045-02             TERMINAL                 CCN000192000000192000FN00000000020220301000192000NNM   20220104132801    4P0P  00001600000000678400001007132DE    TVYEV-TV006400630017
BI00B32DE    TCT2032        202202177116-5046-02             TERMINAL                 CCN000024000000024000FN00000000020220301000024000NNM   20220104132801    4P0P  00001200000000544800000873532DE    TVYEV-TV006400630017
BI00B32DE    TCT2033        202202247116-5046-02             TERMINAL                 CCN000036000000036000FN00000000020220301000036000NNM   20220104132801    4P0P  00001200000000544800000873532DE    TVYEV-TV006400630017
BI00B32DE    TCT2034        202203037116-5046-02             TERMINAL                 CCN000036000000036000FN00000000020220301000036000NNM   20220104132801    4P0P  00001200000000544800000873532DE    TVYEV-TV006400630017
BI00B32DE    TCT2032        202202177116-5750-02             TERMINAL                 CCN000015000000015000FN00000000020220301000015000NNM   20220104132801    4P0P  00001500000000457500000742732DE    TVYEV-TV006400630015
BI00B32DE    TCT2033        202202247116-5750-02             TERMINAL                 CCN000045000000045000FN00000000020220301000045000NNM   20220104132801    4P0P  00001500000000457500000742732DE    TVYEV-TV006400630015
BI00B32DE    TCT2034        202203037116-5750-02             TERMINAL                 CCN000075000000075000FN00000000020220301000075000NNM   20220104132801    4P0P  00001500000000457500000742732DE    TVYEV-TV006400630015
BI00B32DE    TCT2032        202202177116-5752-02             TERMINAL                 CCN000063000000063000FN00000000020220301000063000NNM   20220104132801    4P0P  00002100000000571200000856432DE    TVYEV-TV006400630015
BI00B32DE    TCT2033        202202247116-5752-02             TERMINAL                 CCN000042000000042000FN00000000020220301000042000NNM   20220104132801    4P0P  00002100000000571200000856432DE    TVYEV-TV006400630015
BI00B32DE    TCT2034        202203037116-5752-02             TERMINAL                 CCN000063000000063000FN00000000020220301000063000NNM   20220104132801    4P0P  00002100000000571200000856432DE    TVYEV-TV006400630015
BI00B32DE    TCT2032        202202177116-6041                TERMINAL                 CCN000009000000009000FN00000000020220301000009000NNM   20220104132801    4P0P  00000450000000716000001009632DE    TVYEV-TV006400630015
BI00B32DE    TCT2033        202202247116-6041                TERMINAL                 CCN000004500000004500FN00000000020220301000004500NNM   20220104132801    4P0P  00000450000000716000001009632DE    TVYEV-TV006400630015
BI00B32DE    TCT2034        202203037116-6041                TERMINAL                 CCN000009000000009000FN00000000020220301000009000NNM   20220104132801    4P0P  00000450000000716000001009632DE    TVYEV-TV006400630015
BI00B32DE    TCT2032        202202177116-6042                TERMINAL                 CCN000003000000003000FN00000000020220301000003000NNM   20220104132801    4P0P  00000300000000523800000856132DE    TVYEV-TV006400630015
BI00B32DE    TCT2033        202202247116-6042                TERMINAL                 CCN000012000000012000FN00000000020220301000012000NNM   20220104132801    4P0P  00000300000000523800000856132DE    TVYEV-TV006400630015
BI00B32DE    TCT2034        202203037116-6042                TERMINAL                 CCN000021000000021000FN00000000020220301000021000NNM   20220104132801    4P0P  00000300000000523800000856132DE    TVYEV-TV006400630015
BI00B32DE    TCT2034        202203037126-8853-02             TERMINAL                 CCN000037500000037500FN00000000020220301000037500NNM   20220104132801    4P0P  00000750000000562500000847732DE    TVYEV-TV006400630015
BI00B32DE    TCT2032        202202177158-3006-90             RUBBER STOPPER           CCN000100000000100000FN00000000020220301000100000NNM   20220104132801    1C0C  00002000000000330600000386032DE    TVYEV-TV002700430014
BI00B32DE    TCT2033        202202247158-3006-90             RUBBER STOPPER           CCN000600000000600000FN00000000020220301000600000NNM   20220104132801    1C0C  00002000000000330600000386032DE    TVYEV-TV002700430014
BI00B32DE    TCT2034        202203037158-3006-90             RUBBER STOPPER           CCN000700000000700000FN00000000020220301000700000NNM   20220104132801    1C0C  00002000000000330600000386032DE    TVYEV-TV002700430014
BI00B32DE    TCT2034        202203037158-3022-80             RUBBER STOPPER           CCN000005000000005000FN00000000020220301000005000NNM   20220104132801    1C0C  00000500000000467500000524032DE    TVYEV-TV002700430014
BI00B32DE    TCT2034        202203037158-3070-80             RUBBER STOPPER           CCN000040000000040000FN00000000020220301000040000NNM   20220104132801    1C0C  00004000000000276000000333332DE    TVYEV-TV002700430014
BI00B32DE    TCT2034        202203037158-3165-90             WIRE SEAL                CCN000080000000080000FN00000000020220301000080000NNM   20220104132801    1C0C  00004000000000124000000172432DE    TVYEV-TV004300270014
BI00B32DE    TCT2034        202203037158-3166-60             WIRE SEAL                CCN000040000000040000FN00000000020220301000040000NNM   20220104132801    1C0C  00004000000000104000000152432DE    TVYEV-TV002700430014
BI00B32DE    TCT2033        202202247158-3167-80             WIRE SEAL                CCN000060000000060000FN00000000020220301000060000NNM   20220104132801    1C0C  00002000000000048000000109032DE    TVYEV-TV002700430014
BI00B32DE    TCT2034        202203037158-3167-80             WIRE SEAL                CCN000080000000080000FN00000000020220301000080000NNM   20220104132801    1C0C  00002000000000048000000109032DE    TVYEV-TV002700430014
BI00B32DE    TCT2031        202202107195-1479-02             TERMINAL MALE            CCN000024000000024000FN00000000020220301000024000NNM   20220104132801    4P0P  00002400000000420000000714232DE    TVYEV-TV006400630015
BI00B32DE    TCT2032        202202177195-1479-02             TERMINAL MALE            CCN000048000000048000FN00000000020220301000048000NNM   20220104132801    4P0P  00002400000000420000000714232DE    TVYEV-TV006400630015
BI00B32DE    TCT2033        202202247195-1479-02             TERMINAL MALE            CCN000048000000048000FN00000000020220301000048000NNM   20220104132801    4P0P  00002400000000420000000714232DE    TVYEV-TV006400630015
BI00B32DE    TCT2034        202203037195-1479-02             TERMINAL MALE            CCN000072000000072000FN00000000020220301000072000NNM   20220104132801    4P0P  00002400000000420000000714232DE    TVYEV-TV006400630015
BI00B32DE    TCT2031        202202107196-0510-02             TERMINAL                 CCN000024000000024000FN00000000020220301000024000NNM   20220104132801    4P0P  00002400000000871200001034632DE    TVYEV-TV002800510028
BI00B32DE    TCT2032        202202177196-0510-02             TERMINAL                 CCN000024000000024000FN00000000020220301000024000NNM   20220104132801    4P0P  00002400000000871200001034632DE    TVYEV-TV002800510028
BI00B32DE    TCT2033        202202247196-0510-02             TERMINAL                 CCN000024000000024000FN00000000020220301000024000NNM   20220104132801    4P0P  00002400000000871200001034632DE    TVYEV-TV002800510028
BI00B32DE    TCT2034        202203037196-0510-02             TERMINAL                 CCN000048000000048000FN00000000020220301000048000NNM   20220104132801    4P0P  00002400000000871200001034632DE    TVYEV-TV002800510028
BI00B32DE    TCT2033        202202247196-1103-02             TERMINAL                 CCN000022500000022500FN00000000020220301000022500NNM   20220104132801    4P0P  00002250000000429800000715032DE    TVYEV-TV006400630015
BI00B32DE    TCT2034        202203037196-1103-02             TERMINAL                 CCN000045000000045000FN00000000020220301000045000NNM   20220104132801    4P0P  00002250000000429800000715032DE    TVYEV-TV006400630015
BI00B32DE    TCT2032        202202177196-1481-02             TERMINAL FEMALE          CCN000216000000216000FN00000000020220301000216000NNM   20220104132801    4P0P  00002400000000422400000707632DE    TVYEV-TV006400630015
BI00B32DE    TCT2033        202202247196-1481-02             TERMINAL FEMALE          CCN000216000000216000FN00000000020220301000216000NNM   20220104132801    4P0P  00002400000000422400000707632DE    TVYEV-TV006400630015
BI00B32DE    TCT2034        202203037196-1481-02             TERMINAL FEMALE          CCN000336000000336000FN00000000020220301000336000NNM   20220104132801    4P0P  00002400000000422400000707632DE    TVYEV-TV006400630015
BI00B32DE    TCT2032        202202177196-1934-02             TERMINAL FEMALE          CCN000019500000019500FN00000000020220301000019500NNM   20220104132801    4P0P  00001950000000561600000846832DE    TVYEV-TV006400630015
BI00B32DE    TCT2033        202202247196-1934-02             TERMINAL FEMALE          CCN000039000000039000FN00000000020220301000039000NNM   20220104132801    4P0P  00001950000000561600000846832DE    TVYEV-TV006400630015
BI00B32DE    TCT2034        202203037196-1934-02             TERMINAL FEMALE          CCN000058500000058500FN00000000020220301000058500NNM   20220104132801    4P0P  00001950000000561600000846832DE    TVYEV-TV006400630015
BI00B32DE    TCT2032        202202177196-1936-02             TERMINAL FEMALE          CCN000081000000081000FN00000000020220301000081000NNM   20220104132801    4P0P  00001350000000441500000726732DE    TVYEV-TV006400630015
BI00B32DE    TCT2033        202202247196-1936-02             TERMINAL FEMALE          CCN000094500000094500FN00000000020220301000094500NNM   20220104132801    4P0P  00001350000000441500000726732DE    TVYEV-TV006400630015
BI00B32DE    TCT2034        202203037196-1936-02             TERMINAL FEMALE          CCN000121500000121500FN00000000020220301000121500NNM   20220104132801    4P0P  00001350000000441500000726732DE    TVYEV-TV006400630015
BI00B32DE    TCT2033        202202247196-1939-02             TERMINAL FEMALE          CCN000015000000015000FN00000000020220301000015000NNM   20220104132801    4P0P  00001500000000574500000862732DE    TVYEV-TV006400630015
BI00B32DE    TCT2034        202203037196-1939-02             TERMINAL FEMALE          CCN000015000000015000FN00000000020220301000015000NNM   20220104132801    4P0P  00001500000000574500000862732DE    TVYEV-TV006400630015
BI00B32DE    TCT2033        202202247282-4576                HOUSING MALE ASS'Y       CCN000002400000002400FN00000000020220301000002400NNM   20220104132801    4N0N  00000240000000808800001028832DE    TVYEV-TV005500360039
BI00B32DE    TCT2034        202203037282-4576                HOUSING MALE ASS'Y       CCN000002400000002400FN00000000020220301000002400NNM   20220104132801    4N0N  00000240000000808800001028832DE    TVYEV-TV005500360039
BI00B32DE    TCT2033        202202247282-4577                HOUSING MALE ASS'Y       CCN000004800000004800FN00000000020220301000004800NNM   20220104132801    4N0N  00000240000000964800001174832DE    TVYEV-TV005500360039
BI00B32DE    TCT2034        202203037282-4577                HOUSING MALE ASS'Y       CCN000004800000004800FN00000000020220301000004800NNM   20220104132801    4N0N  00000240000000964800001174832DE    TVYEV-TV005500360039
BI00B32DE    TCT2034        202203037283-1057-30             CONNECTOR HOUSING        CCN000000960000000960FN00000000020220301000000960NNM   20220104132801    4N0N  00000096000000925400001075432DE    TVYEV-TV005500360039
BI00B32DE    TCT2034        202203037283-1222-40             CONNECTOR HOUSING        CCN000002400000002400FN00000000020220301000002400NNM   20220104132801    4N0N  00000120000000858000001032732DE    TVYEV-TV005500360039
BI00B32DE    TCT2033        202202247283-1288-10             CONNECTOR HOUSING        CCN000013200000013200FN00000000020220301000013200NNM   20220104132801    4N0N  00000120000001381000001637032DE    TVYEV-TV005600390040
BI00B32DE    TCT2034        202203037283-1288-10             CONNECTOR HOUSING        CCN000027600000027600FN00000000020220301000027600NNM   20220104132801    4N0N  00000120000001381000001637032DE    TVYEV-TV005600390040
BI00B32DE    TCT2032        202202177283-1288-40             CONNECTOR HOUSING        CCN000002400000002400FN00000000020220301000002400NNM   20220104132801    4N0N  00000120000001382000001640732DE    TVYEV-TV005600390040
BI00B32DE    TCT2033        202202247283-1288-40             CONNECTOR HOUSING        CCN000002400000002400FN00000000020220301000002400NNM   20220104132801    4N0N  00000120000001382000001640732DE    TVYEV-TV005600390040
BI00B32DE    TCT2034        202203037283-1288-40             CONNECTOR HOUSING        CCN000002400000002400FN00000000020220301000002400NNM   20220104132801    4N0N  00000120000001382000001640732DE    TVYEV-TV005600390040
BI00B32DE    TCT2032        202202177283-1289-30             CONNECTOR HOUSING        CCN000001200000001200FN00000000020220301000001200NNM   20220104132801    1N0N  00000060000000675600000820632DE    TVYEV-TV005400370024
BI00B32DE    TCT2033        202202247283-1289-30             CONNECTOR HOUSING        CCN000001200000001200FN00000000020220301000001200NNM   20220104132801    1N0N  00000060000000675600000820632DE    TVYEV-TV005400370024
BI00B32DE    TCT2034        202203037283-1289-30             CONNECTOR HOUSING        CCN000001200000001200FN00000000020220301000001200NNM   20220104132801    1N0N  00000060000000675600000820632DE    TVYEV-TV005400370024
BI00B32DE    TCT2031        202202107283-1289-40             CONNECTOR HOUSING        CCN000001200000001200FN00000000020220301000001200NNM   20220104132801    1N0N  00000060000000679800000824832DE    TVYEV-TV005400370024
BI00B32DE    TCT2032        202202177283-1289-40             CONNECTOR HOUSING        CCN000006000000006000FN00000000020220301000006000NNM   20220104132801    1N0N  00000060000000679800000824832DE    TVYEV-TV005400370024
BI00B32DE    TCT2033        202202247283-1289-40             CONNECTOR HOUSING        CCN000003000000003000FN00000000020220301000003000NNM   20220104132801    1N0N  00000060000000679800000824832DE    TVYEV-TV005400370024
BI00B32DE    TCT2034        202203037283-1289-40             CONNECTOR HOUSING        CCN000004800000004800FN00000000020220301000004800NNM   20220104132801    1N0N  00000060000000679800000824832DE    TVYEV-TV005400370024
BI00B32DE    TCT2032        202202177283-3013-30             CONNECTOR                CCN000002000000002000FN00000000020220301000002000NNM   20220104132801    4N0N  00000200000001138000001284032DE    TVYEV-TV005600390040
BI00B32DE    TCT2034        202203037283-3013-30             CONNECTOR                CCN000002000000002000FN00000000020220301000002000NNM   20220104132801    4N0N  00000200000001138000001284032DE    TVYEV-TV005600390040
BI00B32DE    TCT2033        202202247283-4576                HOUSING FEMALE ASS'Y     CCN000009600000009600FN00000000020220301000009600NNM   20220104132801    4N0N  00000480000000651300000871332DE    TVYEV-TV005500360039
BI00B32DE    TCT2034        202203037283-4576                HOUSING FEMALE ASS'Y     CCN000009600000009600FN00000000020220301000009600NNM   20220104132801    4N0N  00000480000000651300000871332DE    TVYEV-TV005500360039
BI00B32DE    TCT2032        202202177283-4576-30             HOUSING FEMALE ASS'Y     CCN000004800000004800FN00000000020220301000004800NNM   20220104132801    4N0N  00000480000000651300000871332DE    TVYEV-TV005500360039
BI00B32DE    TCT2033        202202247283-4576-30             HOUSING FEMALE ASS'Y     CCN000004800000004800FN00000000020220301000004800NNM   20220104132801    4N0N  00000480000000651300000871332DE    TVYEV-TV005500360039
BI00B32DE    TCT2034        202203037283-4576-30             HOUSING FEMALE ASS'Y     CCN000004800000004800FN00000000020220301000004800NNM   20220104132801    4N0N  00000480000000651300000871332DE    TVYEV-TV005500360039
BI00B32DE    TCT2033        202202247283-4576-40             HOUSING FEMALE ASS'Y     CCN000004800000004800FN00000000020220301000004800NNM   20220104132801    4N0N  00000480000000651300000871332DE    TVYEV-TV005500360039
BI00B32DE    TCT2032        202202177283-4576-90             HOUSING FEMALE ASS'Y     CCN000004800000004800FN00000000020220301000004800NNM   20220104132801    4N0N  00000480000000651300000871332DE    TVYEV-TV005500360039
BI00B32DE    TCT2032        202202177283-4577-30             CONNECTOR HOUSING        CCN000004800000004800FN00000000020220301000004800NNM   20220104132801    4N0N  00000480000000916800001136832DE    TVYEV-TV005500360039
BI00B32DE    TCT2033        202202247283-4577-30             CONNECTOR HOUSING        CCN000009600000009600FN00000000020220301000009600NNM   20220104132801    4N0N  00000480000000916800001136832DE    TVYEV-TV005500360039
BI00B32DE    TCT2034        202203037283-4577-30             CONNECTOR HOUSING        CCN000009600000009600FN00000000020220301000009600NNM   20220104132801    4N0N  00000480000000916800001136832DE    TVYEV-TV005500360039
BI00B32DE    TCT2032        202202177283-4577-40             CONNECTOR HOUSING        CCN000004800000004800FN00000000020220301000004800NNM   20220104132801    4N0N  00000480000000916800001136832DE    TVYEV-TV005500360039
BI00B32DE    TCT2031        202202107283-4855-40             CONNECTOR HOUSING        CCN000004800000004800FN00000000020220301000004800NNM   20220104132801    4N0N  00000240000001188400001400032DE    TVYEV-TV005600360039
BI00B32DE    TCT2032        202202177283-4855-40             CONNECTOR HOUSING        CCN000004800000004800FN00000000020220301000004800NNM   20220104132801    4N0N  00000240000001188400001400032DE    TVYEV-TV005600360039
BI00B32DE    TCT2033        202202247283-4855-40             CONNECTOR HOUSING        CCN000004800000004800FN00000000020220301000004800NNM   20220104132801    4N0N  00000240000001188400001400032DE    TVYEV-TV005600360039
BI00B32DE    TCT2034        202203037283-4855-40             CONNECTOR HOUSING        CCN000004800000004800FN00000000020220301000004800NNM   20220104132801    4N0N  00000240000001188400001400032DE    TVYEV-TV005600360039
BI00B32DE    TCT2034        202203037283-5830                CONNECTOR                CCN000006000000006000FN00000000020220301000006000NNM   20220104132801    1N47  00000600000000954000001104032DE    TVYEV-TV005500360039
BI00B32DE    TCT2032        202202177283-5830-30             CONNECTOR                CCN000006000000006000FN00000000020220301000006000NNM   20220104132801    1N0N  00000600000000954000001104032DE    TVYEV-TV005500360039
BI00B32DE    TCT2034        202203037283-5830-30             CONNECTOR                CCN000006000000006000FN00000000020220301000006000NNM   20220104132801    1N0N  00000600000000954000001104032DE    TVYEV-TV005500360039
BI00B32DE    TCT2032        202202177283-5832                CONNECTOR HOUSING        CCN000002400000002400FN00000000020220301000002400NNM   20220104132801    1N47  00000240000000723800000873832DE    TVYEV-TV005500360039
BI00B32DE    TCT2031        202202107283-5846                HOUSING                  CCN000001500000001500FN00000000020220301000001500NNM   20220104132801    1N0N  00000150000000885000001102032DE    TVYEV-TV005600390040
BI00B32DE    TCT2034        202203037283-6120                CONNECTOR HOUSING        CCN000006000000006000FN00000000020220301000006000NNM   20220104132801    1N0N  00000150000000914000001143032DE    TVYEV-TV005600390040
BI00B32DE    TCT2032        202202177283-7526-30             CONNECTOR HOUSING        CCN000003920000003920FN00000000020220301000003920NNM   20220104132801    4N0N  00000196000000989800001248632DE    TVYEV-TV005500360039
BI00B32DE    TCT2033        202202247283-7526-30             CONNECTOR HOUSING        CCN000003920000003920FN00000000020220301000003920NNM   20220104132801    4N0N  00000196000000989800001248632DE    TVYEV-TV005500360039
BI00B32DE    TCT2034        202203037283-7526-30             CONNECTOR HOUSING        CCN000003920000003920FN00000000020220301000003920NNM   20220104132801    4N0N  00000196000000989800001248632DE    TVYEV-TV005500360039
BI00B32DE    TCT2032        202202177283-7526-40             CONNECTOR HOUSING        CCN000003920000003920FN00000000020220301000003920NNM   20220104132801    4N0N  00000196000000989800001248632DE    TVYEV-TV005500360039
BI00B32DE    TCT2033        202202247283-7526-40             CONNECTOR HOUSING        CCN000001960000001960FN00000000020220301000001960NNM   20220104132801    4N0N  00000196000000989800001248632DE    TVYEV-TV005500360039
BI00B32DE    TCT2034        202203037283-7526-40             CONNECTOR HOUSING        CCN000001960000001960FN00000000020220301000001960NNM   20220104132801    4N0N  00000196000000989800001248632DE    TVYEV-TV005500360039
BI00B32DE    TCT2033        202202247283-8228-40             CONNECTOR                CCN000003000000003000FN00000000020220301000003000NNM   20220104132801    4N0N  00000300000001215000001361032DE    TVYEV-TV005600390040
BI00B32DE    TCT2032        202202177286-1900                CONNECTOR HOUSING        CCN000004800000004800FN00000000020220301000004800NNM   20220104132801    4N0N  00000480000001161600001376632DE    TVYEV-TV005500360039
BI00B32DE    TCT2033        202202247286-1900                CONNECTOR HOUSING        CCN000004800000004800FN00000000020220301000004800NNM   20220104132801    4N0N  00000480000001161600001376632DE    TVYEV-TV005500360039
BI00B32DE    TCT2034        202203037286-1900                CONNECTOR HOUSING        CCN000004800000004800FN00000000020220301000004800NNM   20220104132801    4N0N  00000480000001161600001376632DE    TVYEV-TV005500360039
BI00B32DE    TCT2032        202202177287-1915                CONNECTOR ASS'Y          CCN000002400000002400FN00000000020220301000002400NNM   20220104132801    4N0N  00000240000000666500000923132DE    TVYEV-TV005500360039
BI00B32DE    TCT2033        202202247287-1915                CONNECTOR ASS'Y          CCN000002400000002400FN00000000020220301000002400NNM   20220104132801    4N0N  00000240000000666500000923132DE    TVYEV-TV005500360039
BI00B32DE    TCT2034        202203037287-1915                CONNECTOR ASS'Y          CCN000002400000002400FN00000000020220301000002400NNM   20220104132801    4N0N  00000240000000666500000923132DE    TVYEV-TV005500360039
BI00B32DE    TCT2032        202202177287-1915-40             CONNECTOR ASS'Y          CCN000002400000002400FN00000000020220301000002400NNM   20220104132801    4N0N  00000240000000666500000923132DE    TVYEV-TV005500360039
BI00B32DE    TCT2033        202202247287-1915-40             CONNECTOR ASS'Y          CCN000004800000004800FN00000000020220301000004800NNM   20220104132801    4N0N  00000240000000666500000923132DE    TVYEV-TV005500360039
BI00B32DE    TCT2034        202203037287-1915-40             CONNECTOR ASS'Y          CCN000004800000004800FN00000000020220301000004800NNM   20220104132801    4N0N  00000240000000666500000923132DE    TVYEV-TV005500360039
BI00B32DE    TCT2032        202202177287-1915-90             CONNECTOR ASS'Y          CCN000012000000012000FN00000000020220301000012000NNM   20220104132801    4N0N  00000240000000666500000923132DE    TVYEV-TV005500360039
BI00B32DE    TCT2033        202202247287-1915-90             CONNECTOR ASS'Y          CCN000007200000007200FN00000000020220301000007200NNM   20220104132801    4N0N  00000240000000666500000923132DE    TVYEV-TV005500360039
BI00B32DE    TCT2034        202203037287-1915-90             CONNECTOR ASS'Y          CCN000012000000012000FN00000000020220301000012000NNM   20220104132801    4N0N  00000240000000666500000923132DE    TVYEV-TV005500360039
BI00B32DE    TCT2034        202203037287-7599-10             HOUSING FEMALE ASS'Y     CCN000001600000001600FN00000000020220301000001600NNM   20220104132801    4N0N  00000160000001233600001445632DE    TVYEV-TV005500360039
BI00B32DE    TCT2033        202202247287-9234                JOINT CONNECTOR          CCN000057600000057600FN00000000020220301000057600NNM   20220104132801    4N0N  00000960000000893800001184832DE    TVYEV-TV005500360039
BI00B32DE    TCT2034        202203037287-9234                JOINT CONNECTOR          CCN000105600000105600FN00000000020220301000105600NNM   20220104132801    4N0N  00000960000000893800001184832DE    TVYEV-TV005500360039
BI00B32DE    TCT2031        202202107288-6547                CONNECTOR MALE ASS'Y     CCN000002250000002250FN00000000020220301000002250NNM   20220104132801    4N0N  00000075000001205300001340332DE    TVYEV-TV005400370024
BI00B32DE    TCT2032        202202177288-6547                CONNECTOR MALE ASS'Y     CCN000002250000002250FN00000000020220301000002250NNM   20220104132801    4N0N  00000075000001205300001340332DE    TVYEV-TV005400370024
BI00B32DE    TCT2033        202202247288-6547                CONNECTOR MALE ASS'Y     CCN000002250000002250FN00000000020220301000002250NNM   20220104132801    4N0N  00000075000001205300001340332DE    TVYEV-TV005400370024
BI00B32DE    TCT2033        202202247289-3342                HOUSING FEMALE ASS'Y     CCN000002400000002400FN00000000020220301000002400NNM   20220104132801    1N0N  00000240000000686400000901432DE    TVYEV-TV005500360039
BI00B32DE    TCT2034        202203037289-3342                HOUSING FEMALE ASS'Y     CCN000002400000002400FN00000000020220301000002400NNM   20220104132801    1N0N  00000240000000686400000901432DE    TVYEV-TV005500360039
BI00B32DE    TCT2032        202202177289-3342-30             HOUSING FEMALE ASS'Y     CCN000016800000016800FN00000000020220301000016800NNM   20220104132801    1N0N  00000240000000686400000901432DE    TVYEV-TV005500360039
BI00B32DE    TCT2033        202202247289-3342-30             HOUSING FEMALE ASS'Y     CCN000024000000024000FN00000000020220301000024000NNM   20220104132801    1N0N  00000240000000686400000901432DE    TVYEV-TV005500360039
BI00B32DE    TCT2034        202203037289-3342-30             HOUSING FEMALE ASS'Y     CCN000048000000048000FN00000000020220301000048000NNM   20220104132801    1N0N  00000240000000686400000901432DE    TVYEV-TV005500360039
BI00B32DE    TCT2031        202202107289-3342-90             HOUSING FEMALE ASS'Y     CCN000004800000004800FN00000000020220301000004800NNM   20220104132801    1N0N  00000240000000686400000901432DE    TVYEV-TV005500360039
BI00B32DE    TCT2033        202202247289-3342-90             HOUSING FEMALE ASS'Y     CCN000004800000004800FN00000000020220301000004800NNM   20220104132801    1N0N  00000240000000686400000901432DE    TVYEV-TV005500360039
BI00B32DE    TCT2034        202203037289-3342-90             HOUSING FEMALE ASS'Y     CCN000004800000004800FN00000000020220301000004800NNM   20220104132801    1N0N  00000240000000686400000901432DE    TVYEV-TV005500360039
BI00B32DE    TCT2031        202202107289-6547                HOUSING FEMALE ASS'Y     CCN000002400000002400FN00000000020220301000002400NNM   20220104132801    1N0N  00000240000001152000001362032DE    TVYEV-TV005500360039
BI00B32DE    TCT2034        202203037289-6547                HOUSING FEMALE ASS'Y     CCN000002400000002400FN00000000020220301000002400NNM   20220104132801    1N0N  00000240000001152000001362032DE    TVYEV-TV005500360039
BI00B32DE    TCT2034        202203037382-1481-10             CONNECTOR                CCN000026400000026400FN00000000020220301000026400NNM   20220104132801    4N0N  00000080000001025000001183032DE    TVYEV-TV005600390040
BI00B32DE    #TCT2034       202203037154-5597-30             CASSETTE R/B             CCN000000800000000800FN00000000020220301000000800NNM   20220104132759    2F0F  00000080000000736000000952032DE    TVYEV-TV005500360039
BI00B32DE    #TCT2033       202202247158-3003-90             RUBBER STOPPER           CCN000040000000040000FN00000000020220301000040000NNM   20220104132759    2C0C  00002000000000250000000306032DE    TVYEV-TV002700430014
BI00B32DE    #TCT2034       202203037158-3003-90             RUBBER STOPPER           CCN000180000000180000FN00000000020220301000180000NNM   20220104132759    2C0C  00002000000000250000000306032DE    TVYEV-TV002700430014
BI00B32DE    #TCT2034       202203037158-3121-80             WIRE SEAL                CCN000020000000020000FN00000000020220301000020000NNM   20220104132759    2C0C  00002000000000118000000187332DE    TVYEV-TV002700430014
BI00B32DE    #TCT2031       202202107172-5629-80             RUBBER STOPPER           CCN000020000000020000FN00000000020220301000020000NNM   20220104132759    2H0H  00002000000000060000000111132DE    TVYEV-TV004300270014
BI00B32DE    #TCT2032       202202177172-5629-80             RUBBER STOPPER           CCN000020000000020000FN00000000020220301000020000NNM   20220104132759    2H0H  00002000000000060000000111132DE    TVYEV-TV004300270014
BI00B32DE    #TCT2033       202202247172-5629-80             RUBBER STOPPER           CCN000020000000020000FN00000000020220301000020000NNM   20220104132759    2H0H  00002000000000060000000111132DE    TVYEV-TV004300270014
BI00B32DE    #TCT2034       202203037172-5629-80             RUBBER STOPPER           CCN000040000000040000FN00000000020220301000040000NNM   20220104132759    2H0H  00002000000000060000000111132DE    TVYEV-TV004300270014
BI00B32DE    #TCT2034       202203037172-5630-40             RUBBER STOPPER           CCN000020000000020000FN00000000020220301000020000NNM   20220104132759    2H0H  00002000000000044000000095132DE    TVYEV-TV004300270014
BI00B32DE    #TCT2034       202203037198-4980-30             HOUSING FEMALE           CCN000002400000002400FN00000000020220301000002400NNM   20220104132759    2F0F  00000120000000840000000921032DE    TVYEV-TV005400370024
BI00B32DE    #TCT2033       202202247282-7040-40             HOUSING MALE ASS'Y       CCN000001200000001200FN00000000020220301000001200NNM   20220104132759    2N0N  00000120000000620400000731932DE    TVYEV-TV005400370024
BI00B32DE    #TCTL2031      202202107125-3236-30             HEAD LAMP CONNECTOR      CCN000002800000002800FN00000000020220301000002800NNM   20220104135730    2F0F  00000280000000945000001085932DE    TVYEV-TV005500360039
BI00B32DE    #TCTL2032      202202247125-3236-30             HEAD LAMP CONNECTOR      CCN000002800000002800FN00000000020220301000002800NNM   20220104135730    2F0F  00000280000000945000001085932DE    TVYEV-TV005500360039
BI00B32DE    #TCTL2032      202202247157-8991-80             RUBBER STOPPER           CCN000020000000020000FN00000000020220301000020000NNM   20220104135730    2C0C  00002000000000214000000271032DE    TVYEV-TV002700430014
BI00B32DE    #TCTL2031      202202107158-3004-40             RUBBER STOPPER           CCN000020000000020000FN00000000020220301000020000NNM   20220104135730    2C0C  00002000000000234000000306332DE    TVYEV-TV002700430014
BI00B32DE    #TCTL2032      202202247158-3004-40             RUBBER STOPPER           CCN000080000000080000FN00000000020220301000080000NNM   20220104135730    2C0C  00002000000000234000000306332DE    TVYEV-TV002700430014
BI00B32DE    #TCTL2031      202202107158-3005-80             RUBBER STOPPER           CCN000020000000020000FN00000000020220301000020000NNM   20220104135730    2H0H  00002000000000210000000268732DE    TVYEV-TV002700430014
BI00B32DE    #TCTL2032      202202247158-3005-80             RUBBER STOPPER           CCN000020000000020000FN00000000020220301000020000NNM   20220104135730    2H0H  00002000000000210000000268732DE    TVYEV-TV002700430014
BI00B32DE    #TCTL2032      202202247158-3007-10             RUBBER STOPPER           CCN000080000000080000FN00000000020220301000080000NNM   20220104135730    2H0H  00002000000000308000000362732DE    TVYEV-TV002700430014
BI00B32DE    #TCTL2032      202202247158-3008-80             RUBBER STOPPER           CCN000020000000020000FN00000000020220301000020000NNM   20220104135730    2C0C  00002000000000288000000343032DE    TVYEV-TV004300270014
BI00B32DE    #TCTL2032      202202247158-3015-10             RUBBER STOPPER           CCN000040000000040000FN00000000020220301000040000NNM   20220104135730    2C0C  00001000000000419500000474032DE    TVYEV-TV002700430014
BI00B32DE    #TCTL2031      202202107158-3017                RUBBER STOPPER           CCN000010000000010000FN00000000020220301000010000NNM   20220104135730    2C0C  00001000000000375500000435032DE    TVYEV-TV002700430014
BI00B32DE    #TCTL2032      202202247158-3017                RUBBER STOPPER           CCN000040000000040000FN00000000020220301000040000NNM   20220104135730    2C0C  00001000000000375500000435032DE    TVYEV-TV002700430014
BI00B32DE    #TCTL2031      202202107158-7586-30             BLOCK LIF                CCN000003200000003200FN00000000020220301000003200NNM   20220104135730    2F0F  00000080000000617400000844232DE    TVYEV-TV005500360039
BI00B32DE    #TCTL2032      202202247158-7586-30             BLOCK LIF                CCN000004800000004800FN00000000020220301000004800NNM   20220104135730    2F0F  00000080000000617400000844232DE    TVYEV-TV005500360039
BI00B32DE    #TCTL2032      202202247182-2410                CONNECTOR HOUSING        CCN000001200000001200FN00000000020220301000001200NNM   20220104135730    2F0F  00000120000000959800001245632DE    TVYEV-TV005500360039
BI00B32DE    #TCTL2031      202202107183-2412                HOUSING                  CCN000001600000001600FN00000000020220301000001600NNM   20220104135730    2F0F  00000160000001059200001245632DE    TVYEV-TV005500360039
BI00B32DE    #TCTL2032      202202247183-2412                HOUSING                  CCN000003200000003200FN00000000020220301000003200NNM   20220104135730    2F0F  00000160000001059200001245632DE    TVYEV-TV005500360039
BI00B32DE    #TCTL2031      202202107183-2416-90             HOUSING                  CCN000009600000009600FN00000000020220301000009600NNM   20220104135730    2F0F  00000240000001489700001765832DE    TVYEV-TV005500360039
BI00B32DE    #TCTL2032      202202247183-2416-90             HOUSING                  CCN000009600000009600FN00000000020220301000009600NNM   20220104135730    2F0F  00000240000001489700001765832DE    TVYEV-TV005500360039
BI00B32DE    #TCTL2032      202202247188-0149                HLC HOUSING MALE         CCN000005400000005400FN00000000020220301000005400NNM   20220104135730    2F0F  00000090000000809100000923832DE    TVYEV-TV005400370024
BI00B32DE    #TCTL2032      202202247189-0149                HLC HOUSING FEMALE       CCN000016000000016000FN00000000020220301000016000NNM   20220104135730    2F0F  00000200000000970000001078532DE    TVYEV-TV005400370024
BI00B32DE    #TCTL2032      202202247189-3036                HOUSING FEMALE           CCN000001600000001600FN00000000020220301000001600NNM   20220104135730    2F0F  00000160000000921600001141632DE    TVYEV-TV005500360039
BI00B32DE    #TCTL2032      202202247283-1065                CONNECTOR                CCN000010000000010000FN00000000020220301000010000NNM   20220104135730    2N0N  00000250000001152500001310432DE    TVYEV-TV005500360039
BI00B32DE    #TCTL2032      202202247287-1671                HOUSING FEMALE ASS'Y     CCN000002000000002000FN00000000020220301000002000NNM   20220104135730    2N0N  00000200000000782600000974632DE    TVYEV-TV005400370024
BI00B32D2    DGTC2212       202203177288-6547                CONNECTOR MALE ASS'Y     CCN000021750000003000FN00000000020220301000003000NNMD0420220104121741    4N0N  00000075000001205300001340332D2    TGYOT-G 005400370024
BI00B32D2    DGTC2212       202202037289-3342                HOUSING FEMALE ASS'Y     CCN000148800000074400FN00000000020220301000074400NNMD0420220104121741    1N0N  00000240000000686400000901432D2    TGYOT-G 005500360039
BI00B32D2    DGTC2212       202202107289-3342-30             HOUSING FEMALE ASS'Y     CCN000045600000045600FN00000000020220301000045600NNMD0420220104121741    1N0N  00000240000000686400000901432D2    TGYOT-G 005500360039
BI00B32D2    DGTC2212       202202247289-3342-40             HOUSING FEMALE ASS'Y     CCN000043200000009600FN00000000020220301000009600NNMD0420220104121741    1N0N  00000240000000686400000901432D2    TGYOT-G 005500360039
BI00B32D2    DGTC2212       202203037289-3342-90             HOUSING FEMALE ASS'Y     CCN000050400000012000FN00000000020220301000012000NNMD0420220104121741    1N0N  00000240000000686400000901432D2    TGYOT-G 005500360039
BI00B32D2    DGTC2212       202202037289-6547                HOUSING FEMALE ASS'Y     CCN000019200000019200FN00000000020220301000019200NNMD0420220104121741    1N0N  00000240000001152000001362032D2    TGYOT-G 005500360039
BI00B32D2    DGTC2212       202203247288-6547                CONNECTOR MALE ASS'Y     CCN000003000000003000FN00000000020220301000003000NNMD0420220104121741    4N0N  00000075000001205300001340332D2    TGYOT-G 005400370024
BI00B32D2    DGTC2212       202203317288-6547                CONNECTOR MALE ASS'Y     CCN000003000000003000FN00000000020220301000003000NNMD0420220104121741    4N0N  00000075000001205300001340332D2    TGYOT-G 005400370024
BI00B32D2    DGTC2212       202204077288-6547                CONNECTOR MALE ASS'Y     CCN000004500000004500FN00000000020220301000004500NNMD0420220104121741    4N0N  00000075000001205300001340332D2    TGYOT-G 005400370024
BI00B32D2    DGTC2212       202204217288-6547                CONNECTOR MALE ASS'Y     CCN000004500000004500FN00000000020220301000004500NNMD0420220104121741    4N0N  00000075000001205300001340332D2    TGYOT-G 005400370024
BI00B32D2    DGTC2212       202204287288-6547                CONNECTOR MALE ASS'Y     CCN000003750000003750FN00000000020220301000003750NNMD0420220104121741    4N0N  00000075000001205300001340332D2    TGYOT-G 005400370024
BI00B32D2    DGTC2212       202202107289-3342                HOUSING FEMALE ASS'Y     CCN000074400000074400FN00000000020220301000074400NNMD0420220104121741    1N0N  00000240000000686400000901432D2    TGYOT-G 005500360039
BI00B32D2    DGTC2212       202203107289-3342-40             HOUSING FEMALE ASS'Y     CCN000009600000009600FN00000000020220301000009600NNMD0420220104121741    1N0N  00000240000000686400000901432D2    TGYOT-G 005500360039
BI00B32D2    DGTC2212       202203247289-3342-40             HOUSING FEMALE ASS'Y     CCN000012000000012000FN00000000020220301000012000NNMD0420220104121741    1N0N  00000240000000686400000901432D2    TGYOT-G 005500360039
BI00B32D2    DGTC2212       202204077289-3342-40             HOUSING FEMALE ASS'Y     CCN000012000000012000FN00000000020220301000012000NNMD0420220104121741    1N0N  00000240000000686400000901432D2    TGYOT-G 005500360039
BI00B32D2    DGTC2212       202203247289-3342-90             HOUSING FEMALE ASS'Y     CCN000012000000012000FN00000000020220301000012000NNMD0420220104121741    1N0N  00000240000000686400000901432D2    TGYOT-G 005500360039
BI00B32D2    DGTC2212       202204077289-3342-90             HOUSING FEMALE ASS'Y     CCN000012000000012000FN00000000020220301000012000NNMD0420220104121741    1N0N  00000240000000686400000901432D2    TGYOT-G 005500360039
BI00B32D2    DGTC2212       202204287289-3342-90             HOUSING FEMALE ASS'Y     CCN000014400000014400FN00000000020220301000014400NNMD0420220104121741    1N0N  00000240000000686400000901432D2    TGYOT-G 005500360039
BI00B32D2    DGTC2213       202202037017-1180-02             TERMINAL                 CCN000072000000072000FN00000000020220401000072000NNM   20220104121741    4P0P  00007200000001065600001229032D2    TGYOT-G 005100280028
BI00B32D2    DGTC2213       202202037017-1182-02             TERMINAL                 CCN000045000000045000FN00000000020220401000045000NNM   20220104121741    4P0P  00004500000001165500001318632D2    TGYOT-G 005100280028
BI00B32D2    DGTC2213       202202037114-4032                TERMINAL                 CCN000037500000037500FN00000000020220401000037500NNM   20220104121741    4P0P  00000750000000735000001063632D2    TGYOT-G 006400630017
BI00B32D2    DGTC2213       202202037114-4624-02             TERMINAL                 CCN000024000000024000FN00000000020220401000024000NNM   20220104121741    4P0P  00002400000000895200001188832D2    TGYOT-G 006400630015
BI00B32D2    DGTC2213       202202037114-5748-02             TERMINAL                 CCN000036000000036000FN00000000020220401000036000NNM   20220104121741    4P0P  00001200000000444000000737632D2    TGYOT-G 006400630015
BI00B32D2    DGTC2213       202202037114-5753-02             TERMINAL                 CCN000108000000108000FN00000000020220401000108000NNM   20220104121741    4P0P  00002700000000847800001141432D2    TGYOT-G 006400630015
BI00B32D2    DGTC2213       202202037116-2891-02             TERMINAL                 CCN000015000000015000FN00000000020220401000015000NNM   20220104121741    4P0P  00001500000000982500001145932D2    TGYOT-G 005100280028
BI00B32D2    DGTC2213       202202037116-4486-02             TERMINAL                 CCN000140000000140000FN00000000020220401000140000NNM   20220104121741    4P0P  00002800000000666400000995132D2    TGYOT-G 006400630017
BI00B32D2    DGTC2213       202202037116-5045-02             TERMINAL                 CCN000016000000016000FN00000000020220401000016000NNM   20220104121741    4P0P  00001600000000678400001007132D2    TGYOT-G 006400630017
BI00B32D2    DGTC2213       202202037116-5046-02             TERMINAL                 CCN000060000000060000FN00000000020220401000060000NNM   20220104121741    4P0P  00001200000000544800000873532D2    TGYOT-G 006400630017
BI00B32D2    DGTC2213       202202037116-6042                TERMINAL                 CCN000027000000027000FN00000000020220401000027000NNM   20220104121741    4P0P  00000300000000523800000856132D2    TGYOT-G 006400630015
BI00B32D2    DGTC2213       202202037126-8853-02             TERMINAL                 CCN000052500000052500FN00000000020220401000052500NNM   20220104121741    4P0P  00000750000000562500000847732D2    TGYOT-G 006400630015
BI00B32D2    DGTC2213       202202037126-8855-02             TERMINAL                 CCN000060000000060000FN00000000020220401000060000NNM   20220104121741    4P0P  00000600000000510600000795832D2    TGYOT-G 006400630015
BI00B32D2    DGTC2213       202202037158-3070-80             RUBBER STOPPER           CCN000040000000040000FN00000000020220401000040000NNM   20220104121741    1C0C  00004000000000276000000333332D2    TGYOT-G 002700430014
BI00B32D2    DGTC2213       202202037158-3166-60             WIRE SEAL                CCN000040000000040000FN00000000020220401000040000NNM   20220104121741    1C0C  00004000000000104000000152432D2    TGYOT-G 002700430014
BI00B32D2    DGTC2213       202202037158-3167-80             WIRE SEAL                CCN000080000000080000FN00000000020220401000080000NNM   20220104121741    1C0C  00002000000000048000000109032D2    TGYOT-G 002700430014
BI00B32D2    DGTC2213       202202037196-0396-02             TERMINAL                 CCN000015000000015000FN00000000020220401000015000NNM   20220104121741    4P0P  00001500000000949500001112932D2    TGYOT-G 002800510028
BI00B32D2    DGTC2213       202202037196-1325-02             TERMINAL FEMALE          CCN000480000000480000FN00000000020220401000480000NNM   20220104121741    4P0P  00006000000000450000000778732D2    TGYOT-G 006400630017
BI00B32D2    DGTC2213       202202037196-1326-02             TERMINAL FEMALE          CCN000900000000900000FN00000000020220401000900000NNM   20220104121741    4P0P  00006000000000456000000784732D2    TGYOT-G 006400630017
BI00B32D2    DGTC2213       202202037196-1327-02             TERMINAL FEMALE          CCN000052000000052000FN00000000020220401000052000NNM   20220104121741    4P0P  00005200000000336000000739532D2    TGYOT-G 006400630017
BI00B32D2    DGTC2213       202202037288-6547                CONNECTOR MALE ASS'Y     CCN000010500000010500FN00000000020220401000010500NNM   20220104121741    4N0N  00000075000001205300001340332D2    TGYOT-G 005400370024
BI00B32D2    DGTC2213       202202037289-3342                HOUSING FEMALE ASS'Y     CCN000038400000038400FN00000000020220401000038400NNM   20220104121741    1N0N  00000240000000686400000901432D2    TGYOT-G 005500360039
BI00B32D2    DGTC2213       202202037289-3342-30             HOUSING FEMALE ASS'Y     CCN000019200000019200FN00000000020220401000019200NNM   20220104121741    1N0N  00000240000000686400000901432D2    TGYOT-G 005500360039
BI00B32D2    DGTC2213       202202037289-3342-40             HOUSING FEMALE ASS'Y     CCN000024000000024000FN00000000020220401000024000NNM   20220104121741    1N0N  00000240000000686400000901432D2    TGYOT-G 005500360039
BI00B32D2    DGTC2213       202202037289-3342-90             HOUSING FEMALE ASS'Y     CCN000026400000026400FN00000000020220401000026400NNM   20220104121741    1N0N  00000240000000686400000901432D2    TGYOT-G 005500360039
BI00B32D2    DGTC2213       202202037289-6518-30             HOUSING FEMALE ASS'Y     CCN000001200000001200FN00000000020220401000001200NNM   20220104121741    1N0N  00000120000000829200001049232D2    TGYOT-G 005500360039
BI00B32D2    DGTC2213       202202037289-6547                HOUSING FEMALE ASS'Y     CCN000012000000012000FN00000000020220401000012000NNM   20220104121741    1N0N  00000240000001152000001362032D2    TGYOT-G 005500360039
BI00B32D2    DGTC2213       202202037296-0784-02             TERMINAL ALUMINIUM       CCN000072000000072000FN00000000020220401000072000NNM   20220104121741    4P0P  00002400000000480000000765232D2    TGYOT-G 006400630015
BI00B32D2    DGTC2213       202202037296-1020-02             TERMINAL ALUMINIUM       CCN000022500000022500FN00000000020220401000022500NNM   20220104121741    4P0P  00002250000000699800000985032D2    TGYOT-G 006400630015
BI00B32D2    DGTC2213       202202037296-1024-02             TERMINAL ALUMINIUM       CCN000090000000090000FN00000000020220401000090000NNM   20220104121741    4P0P  00001800000000698400000983632D2    TGYOT-G 006400630015
BI00B32D2    DGTC2213       202202037327-6803                MULTI FUSE               CCN000000560000000560FN00000000020220401000000560NNM   20220104121741    4N0N  00000056000000854600001067032D2    TGYOT-G 005400370024
BI00B32D2    DGTC2213       202202037327-6809                MULTI FUSE               CCN000007840000007840FN00000000020220401000007840NNM   20220104121741    4N0N  00000056000000849300001061732D2    TGYOT-G 005400370024
BI00B32D2    #DGTC2213      202202037158-3003-90             RUBBER STOPPER           CCN000120000000120000FN00000000020220401000120000NNM   20220104121741    2C0C  00002000000000250000000306032D2    TGYOT-G 002700430014
BI00B32D2    #DGTC2213      202202037158-3008-80             RUBBER STOPPER           CCN000080000000080000FN00000000020220401000080000NNM   20220104121741    2C0C  00002000000000288000000343032D2    TGYOT-G 004300270014
BI00B32D2    #DGTC2213      202202037158-3015-10             RUBBER STOPPER           CCN000040000000040000FN00000000020220401000040000NNM   20220104121741    2C0C  00001000000000419500000474032D2    TGYOT-G 002700430014
BI00B32D2    #DGTC2213      202202037158-3017                RUBBER STOPPER           CCN000010000000010000FN00000000020220401000010000NNM   20220104121741    2C0C  00001000000000375500000435032D2    TGYOT-G 002700430014
