BI00B32CH    SJ2202ADMW     202201131801W006980              IVSSH 0.35F BR           CCN000010000000010000FN00000000020220201000010000NNE20 20220104114653    1W    00000250000000452000000000032CH    SJSAMIJF000000000000QV121014
BI00B32CH    SJ2202ADMW     202201131801W006941              IVSSH 0.35F GY           CCN000005000000005000FN00000000020220201000005000NNE20 20220104114653    1W    00000250000000452000000000032CH    SJSAMIJF000000000000QV121015
BI00B32CH    SJ2202ADMW     202201131801W003930              IVSSH 0.5F B             CCN000064800000036000FN00000000020220201000036000NNE20 20220104114525    1W    00000180000000625000000000032CH    SJSAMIJF000000000000QV121001
BI00B32CH    SJ2202ADMW     202201131801W003980              IVSSH 0.5F BR            CCN000027000000018000FN00000000020220201000018000NNE20 20220104114653    1W    00000180000000625000000000032CH    SJSAMIJF000000000000QV121002
BI00B32CH    SJ2202ADMW     202201131801W003960              IVSSH 0.5F G             CCN000021600000021600FN00000000020220201000021600NNE20 20220104114606    1W    00000180000000625000000000032CH    SJSAMIJF000000000000QV121003
BI00B32CH    SJ2202ADMW     202201131801W003961              IVSSH 0.5F LG            CCN000005400000005400FN00000000020220201000005400NNE20 20220104114606    1W    00000180000000625000000000032CH    SJSAMIJF000000000000QV121004
BI00B32CH    SJ2202ADMW     202201131801W003952              IVSSH 0.5F P             CCN000036000000021600FN00000000020220201000021600NNE20 20220104114606    1W    00000180000000625000000000032CH    SJSAMIJF000000000000QV121005
BI00B32CH    SJ2202ADMW     202201131801W003950              IVSSH 0.5F R             CCN000048600000048600FN00000000020220201000048600NNE20 20220104114543    1W    00000180000000625000000000032CH    SJSAMIJF000000000000QV121006
BI00B32CH    SJ2202ADMW     202201131801W003992              IVSSH 0.5F V             CCN000021600000014400FN00000000020220201000014400NNE20 20220104114653    1W    00000180000000625000000000032CH    SJSAMIJF000000000000QV121007
BI00B32CH    SJ2202ADMW     202201131801W003940              IVSSH 0.5F W             CCN000043200000043200FN00000000020220201000043200NNE20 20220104114535    1W    00000180000000625000000000032CH    SJSAMIJF000000000000QV121008
BI00B32CH    SJ2202ADMW     202201131801W003970              IVSSH 0.5F Y             CCN000036000000023400FN00000000020220201000023400NNE20 20220104114606    1W    00000180000000625000000000032CH    SJSAMIJF000000000000QV121009
BI00B32CH    SJ2202ADMW     202201131801W004030              IVSSH 0.75F B            CCN000016900000016900FN00000000020220201000016900NNE20 20220104114653    1W    00000130000000882000000000032CH    SJSAMIJF000000000000QV121010
BI00B32CH    SJ2202ADMW     202201131801W004090              IVSSH 0.75F L            CCN000005200000005200FN00000000020220201000005200NNE20 20220104114653    1W    00000130000000882000000000032CH    SJSAMIJF000000000000QV121011
BI00B32CH    SJ2202ADMW     202201131801W004050              IVSSH 0.75F R            CCN000013000000007800FN00000000020220201000007800NNE20 20220104114653    1W    00000130000000882000000000032CH    SJSAMIJF000000000000QV121012
BI00B32CH    SJ2202ADMW     202201131801W004070              IVSSH 0.75F Y            CCN000006500000006500FN00000000020220201000006500NNE20 20220104114653    1W    00000130000000882000000000032CH    SJSAMIJF000000000000QV121013
BI00A32CH    SJ2202ADMW     202201061801W003930              IVSSH 0.5F B             CCN000028800000028800FN00000000020220201000028800NNE21 20220104150113    1W    00000180000000625000000000032CH    SJSAMIJF000000000000QV121001
BI00A32CH    SJ2202ADMW     202201061801W003992              IVSSH 0.5F V             CCN000007200000007200FN00000000020220201000007200NNE21 20220104150113    1W    00000180000000625000000000032CH    SJSAMIJF000000000000QV121007
BI00A32CH    SJ2202ADMW     202201061801W003952              IVSSH 0.5F P             CCN000014400000014400FN00000000020220201000014400NNE21 20220104150113    1W    00000180000000625000000000032CH    SJSAMIJF000000000000QV121005
BI00A32CH    SJ2202ADMW     202201061801W003980              IVSSH 0.5F BR            CCN000009000000009000FN00000000020220201000009000NNE21 20220104150113    1W    00000180000000625000000000032CH    SJSAMIJF000000000000QV121002
BI00A32CH    SJ2202ADMW     202201061801W003970              IVSSH 0.5F Y             CCN000012600000012600FN00000000020220201000012600NNE21 20220104150113    1W    00000180000000625000000000032CH    SJSAMIJF000000000000QV121009
BI00A32CH    SJ2202ADMW     202201061801W004050              IVSSH 0.75F R            CCN000013000000005200FN00000000020220201000005200NNE21 20220104150113    1W    00000130000000882000000000032CH    SJSAMIJF000000000000QV121012
BI00A32DG    @RH2024        20220105181E48048ZZ              CAVSAS-S 0.3X2 GY/O      PCN000003850000003850FN00000000020220201000003850NNM20 20220104105702    1W    00000035000002008700000000032DG    BFSAIBF 000000000000GY221001
BI00B32M4    TW2022         202201131801W006960              IVSSH 0.35F G            CCN000007500000002500FN00000000020220201000002500NNM20 20220104091809    1W    00000250000000452000000000032M4    SISAI   000000000000GW41C043
BI00B32M4    TW2022         202201131801W003980              IVSSH 0.5F BR            CCN000005400000001800FN00000000020220201000001800NNM20 20220104091738    1W    00000180000000625000000000032M4    SISAI   000000000000GW41C023
BI00A32M4    TW2022         202201051801W003980              IVSSH 0.5F BR            CCN000001800000003600FN00000000020220201000003600NNM21 20220104143731    1W    00000180000000625000000000032M4    SISAI   000000000000GW41C023
BI00A32M4    TW2022         202201051801W006960              IVSSH 0.35F G            CCN000005000000005000FN00000000020220201000005000NNM21 20220104143731    1W    00000250000000452000000000032M4    SISAI   000000000000GW41C043
BI00A32R8    TT22031TMW     20220106180D0203980              AVSSH 0.5F BR            CCN000004500000004500FN00000000020220301000004500NNM20 20220104151431    1W    00000150000000689000000000032R8    TTTJY   000000000000NT41C004
BI00A32R8    TT22032TMW     20220106180D0203980              AVSSH 0.5F BR            CCN000004500000004500FN00000000020220301000004500NNM20 20220104151431    1W    00000150000000689000000000032R8    TTTJY   000000000000NT121002
BI00A32R8    TT22031TMW     20220106180D0203950              AVSSH 0.5F R             CCN000001500000001500FN00000000020220301000001500NNM20 20220104151431    1W    00000150000000689000000000032R8    TTTJY   000000000000NT41C005
BI00A32R8    TT22031TMW     20220106180D0203992              AVSSH 0.5F V             CCN000001500000001500FN00000000020220301000001500NNM20 20220104151431    1W    00000150000000689000000000032R8    TTTJY   000000000000NT41C006
BI00A32R8    TT22032TMW     20220106180D0203992              AVSSH 0.5F V             CCN000001500000001500FN00000000020220301000001500NNM20 20220104151431    1W    00000150000000689000000000032R8    TTTJY   000000000000NT121003
BI00A32R8    TT22031TMW     20220106180D0204130              AVSSH 1.25F B            CCN000001600000001600FN00000000020220301000001600NNM20 20220104151431    1W    00000080000001458000000000032R8    TTTJY   000000000000NT41C007
BI00A32R8    TT22032TMW     20220106180D0204130              AVSSH 1.25F B            CCN000001600000001600FN00000000020220301000001600NNM20 20220104151431    1W    00000080000001458000000000032R8    TTTJY   000000000000NT121004
BI00A32R8    TT22031TMW     20220106180D0204160              AVSSH 1.25F G            CCN000003200000003200FN00000000020220301000003200NNM20 20220104151431    1W    00000080000001458000000000032R8    TTTJY   000000000000NT41C008
BI00A32R8    TT22032TMW     20220106180D0204160              AVSSH 1.25F G            CCN000002400000002400FN00000000020220301000002400NNM20 20220104151431    1W    00000080000001458000000000032R8    TTTJY   000000000000NT121005
BI00A32R8    TT22031TMW     20220106180D0204190              AVSSH 1.25F L            CCN000001600000001600FN00000000020220301000001600NNM20 20220104151431    1W    00000080000001458000000000032R8    TTTJY   000000000000NT41C009
BI00A32R8    TT22031TMW     20220106180D0204192              AVSSH 1.25F V            CCN000001600000001600FN00000000020220301000001600NNM20 20220104151431    1W    00000080000001458000000000032R8    TTTJY   000000000000NT41C010
BI00A32R8    TT22031TMW     20220106180D0204140              AVSSH 1.25F W            CCN000001600000001600FN00000000020220301000001600NNM20 20220104151431    1W    00000080000001458000000000032R8    TTTJY   000000000000NT41C011
BI00A32R8    TT22031TMW     20220106180D0204143              AVSSH 1.25F W/B          CCN000001600000001600FN00000000020220301000001600NNM20 20220104151431    1W    00000080000001458000000000032R8    TTTJY   000000000000NT41C012
BI00A32R8    TT22032TMW     20220106180D0204143              AVSSH 1.25F W/B          CCN000000800000000800FN00000000020220301000000800NNM20 20220104151431    1W    00000080000001458000000000032R8    TTTJY   000000000000NT121006
