BI00B1200    H722G50001     202206097289-9553-30             SEALED ASSY FEMALE       CCN000079380000079380FN00000000020220701000079380NNED0420220331121437    4N0N  0000029400000110900000152151200    YCYC    005500360039
BI00B1200    H722G50002     202206167289-9553-30             SEALED ASSY FEMALE       CCN000079380000079380FN00000000020220701000079380NNED0420220331121437    4N0N  0000029400000110900000152151200    YCYC    005500360039
BI00B1200    H722G50003     202206307289-9553-30             SEALED ASSY FEMALE       CCN000082320000082320FN00000000020220701000082320NNED0420220331121437    4N0N  0000029400000110900000152151200    YCYC    005500360039
BI00B32BF    TT2206ABMW     202204267295-0785-02             TERMINAL ALUMINIUM       CCN000025500000025500FN00000000020220601000025500NNE   20220331154902    4P0P  00002550000000510000000803632BF    TTTJYCD 006400630015
BI00B32BF    TT22072BMW     202205317114-4624-02             TERMINAL                 CCN000024000000024000FN00000000020220701000024000NNM   20220331155115    4P0P  00002400000000895200001188832BF    TTTJYCD 006400630015
BI00B32BF    TT22074BMW     202206147114-4624-02             TERMINAL                 CCN000072000000072000FN00000000020220701000072000NNM   20220331155115    4P0P  00002400000000895200001188832BF    TTTJYCD 006400630015
BI00B32BF    TT22071BMW     202205247114-4728-08             TERMINAL                 CCN000030000000030000FN00000000020220701000030000NNM   20220331155115    4P0P  00003000000000507000000801232BF    TTTJYCD 006400630015
BI00B32BF    TT22073BMW     202206077114-4728-08             TERMINAL                 CCN000030000000030000FN00000000020220701000030000NNM   20220331155115    4P0P  00003000000000507000000801232BF    TTTJYCD 006400630015
BI00B32BF    TT22074BMW     202206147114-4728-08             TERMINAL                 CCN000060000000060000FN00000000020220701000060000NNM   20220331155115    4P0P  00003000000000507000000801232BF    TTTJYCD 006400630015
BI00B32BF    TT22071BMW     202205247114-5748-02             TERMINAL                 CCN000012000000012000FN00000000020220701000012000NNM   20220331155115    4P0P  00001200000000444000000737632BF    TTTJYCD 006400630015
BI00B32BF    TT22071BMW     202205247114-6041                TERMINAL                 CCN000003600000003600FN00000000020220701000003600NNM   20220331155115    4P0P  00000360000000580700000824232BF    TTTJYCD 006400630015
BI00B32BF    TT22071BMW     202205247116-4028-08             TERMINAL FEMALE          CCN000016000000016000FN00000000020220701000016000NNM   20220331155115    4P0P  00001600000000652800000981532BF    TTTJYCD 006400630017
BI00B32BF    TT22071BMW     202205247126-8851-02             TERMINAL                 CCN000009000000009000FN00000000020220701000009000NNM   20220331155115    1P0P  00000900000000739800001025032BF    TTTJYCD 006400630015
BI00B32BF    TT22071BMW     202205247126-8852-02             TERMINAL                 CCN000007500000007500FN00000000020220701000007500NNM   20220331155115    1P0P  00000750000000648000000933232BF    TTTJYCD 006400630015
BI00B32BF    TT22072BMW     202205317126-8852-02             TERMINAL                 CCN000007500000007500FN00000000020220701000007500NNM   20220331155115    1P0P  00000750000000648000000933232BF    TTTJYCD 006400630015
BI00B32BF    TT22071BMW     202205247126-8853-02             TERMINAL                 CCN000022500000022500FN00000000020220701000022500NNM   20220331155115    4P0P  00000750000000562500000847732BF    TTTJYCD 006400630015
BI00B32BF    TT22071BMW     202205247158-3006-90             RUBBER STOPPER           CCN000020000000020000FN00000000020220701000020000NNM   20220331155115    1C0C  00002000000000330600000386032BF    TTTJYCD 002700430014
BI00B32BF    TT22072BMW     202205317158-3006-90             RUBBER STOPPER           CCN000040000000040000FN00000000020220701000040000NNM   20220331155115    1C0C  00002000000000330600000386032BF    TTTJYCD 002700430014
BI00B32BF    TT22071BMW     202205247196-0396-02             TERMINAL                 CCN000015000000015000FN00000000020220701000015000NNM   20220331155115    4P0P  00001500000000949500001112932BF    TTTJYCD 002800510028
BI00B32BF    TT22072BMW     202205317196-0396-02             TERMINAL                 CCN000015000000015000FN00000000020220701000015000NNM   20220331155115    4P0P  00001500000000949500001112932BF    TTTJYCD 002800510028
BI00B32BF    TT22071BMW     202205247196-0510-02             TERMINAL                 CCN000048000000048000FN00000000020220701000048000NNM   20220331155115    4P0P  00002400000000871200001034632BF    TTTJYCD 002800510028
BI00B32BF    TT22072BMW     202205317196-0510-02             TERMINAL                 CCN000120000000120000FN00000000020220701000120000NNM   20220331155115    4P0P  00002400000000871200001034632BF    TTTJYCD 002800510028
BI00B32BF    TT22071BMW     202205247283-1140                CONNECTOR HOUSING        CCN000001500000001500FN00000000020220701000001500NNM   20220331155115    4N0N  00000150000000669000000932732BF    TTTJYCD 005600390040
BI00B32BF    TT22071BMW     202205247283-1289-40             CONNECTOR HOUSING        CCN000000600000000600FN00000000020220701000000600NNM   20220331155115    1N0N  00000060000000679800000824832BF    TTTJYCD 005400370024
BI00B32BF    TT22073BMW     202206077283-4855                CONNECTOR HOUSING        CCN000004800000004800FN00000000020220701000004800NNM   20220331155115    4N0N  00000240000001188400001400032BF    TTTJYCD 005500360039
BI00B32BF    TT22074BMW     202206147283-4855                CONNECTOR HOUSING        CCN000014400000014400FN00000000020220701000014400NNM   20220331155115    4N0N  00000240000001188400001400032BF    TTTJYCD 005500360039
BI00B32BF    TT22071BMW     202205247295-0785-02             TERMINAL ALUMINIUM       CCN000025500000025500FN00000000020220701000025500NNM   20220331155115    4P0P  00002550000000510000000803632BF    TTTJYCD 006400630015
BI00B32BF    TT22072BMW     202205317295-0785-02             TERMINAL ALUMINIUM       CCN000025500000025500FN00000000020220701000025500NNM   20220331155115    4P0P  00002550000000510000000803632BF    TTTJYCD 006400630015
BI00B32BF    TT22073BMW     202206077295-0785-02             TERMINAL ALUMINIUM       CCN000025500000025500FN00000000020220701000025500NNM   20220331155115    4P0P  00002550000000510000000803632BF    TTTJYCD 006400630015
BI00B32BF    TT22074BMW     202206147295-0785-02             TERMINAL ALUMINIUM       CCN000076500000076500FN00000000020220701000076500NNM   20220331155115    4P0P  00002550000000510000000803632BF    TTTJYCD 006400630015
BI00B32BF    #TT22071BMW    202205247158-3005-80             RUBBER STOPPER           CCN000020000000020000FN00000000020220701000020000NNM   20220331155111    2H0H  00002000000000210000000268732BF    TTTJYCD 002700430014
BI00B32BF    #TT22071BMW    202205247158-3008-80             RUBBER STOPPER           CCN000020000000020000FN00000000020220701000020000NNM   20220331155111    2C0C  00002000000000288000000343032BF    TTTJYCD 004300270014
BI00B32BF    #TT22071BMW    202205247158-3015-10             RUBBER STOPPER           CCN000010000000010000FN00000000020220701000010000NNM   20220331155111    2C0C  00001000000000419500000474032BF    TTTJYCD 002700430014
BI00B32BF    #TT22071BMW    202205247158-3017                RUBBER STOPPER           CCN000010000000010000FN00000000020220701000010000NNM   20220331155111    2C0C  00001000000000375500000435032BF    TTTJYCD 002700430014
BI00B32BF    #TT22071BMW    202205247282-1140                HOUSING MALE ASS'Y       CCN000000500000000500FN00000000020220701000000500NNM   20220331155111    2N0N  00000050000000467500000590032BF    TTTJYCD 005400370024
BI00B32BF    @TT22071BMW    202205247282-1064-30             CONNECTOR ASS'Y          CCN000000800000000800FN00000000020220701000000800NNM   20220331155113    3N0N  00000080000000907300001140132BF    TTTJYCD 005500360039
BI00B32CH    #SJ22051MMW    202204077283-8123-30             CONNECTOR HOUSING        CCN000004000000004000FN00000000020220501000004000NNM00020220331153533    2N0N  00000400000000380000000530032CH    SJSAMIJF005600390023
BI00B32CH    #SJ2205B MW    202204077158-3008-80             RUBBER STOPPER           CCN000020000000020000FN00000000020220501000020000NNE00020220331153602    2C0C  00002000000000288000000343032CH    SJSAMIJF004300270014
BI00B32EJ    T220325P05     202205127289-9553-30             SEALED ASSY FEMALE       CCN000005880000005880FN00000000020220401000005880NNED0420220331121437EJ  4N0N  00000294000001109000001521532EJ    EJYKBO  005500360039
BI00A32H2    TIJ205B        202204017288-3206                HOUSING MALE ASS'Y       CCN000001020000001020FN00000000020220501000001020NNEM0020220331184950    1N0N  00000102000000387600000787632H2    HVYHV   005500360039
BI00B32H2    TIJ205B        202205067470-5304                J/B COMPLETE ASS'Y       CCN000000200000000200FN00000000020220501000000200NNED0220220331154515    4J0J  00000001000000494000000661032H2    HVYHV   005400370024
BI00B32H7    FS22044DMW     202204017158-3006-90             RUBBER STOPPER           CCN000240000000240000FN00000000020220401000240000NNM00020220331142443    1C0C  00002000000000330600000386032H7    FYFSY   002700430014
BI00B32H7    FS22044DMW     202204017158-3009-60             RUBBER STOPPER           CCN000660000000660000FN00000000020220401000660000NNM00020220331142452    1C0C  00002000000000338000000386232H7    FYFSY   002700430014
BI00B32H7    FS22044DMW     202204017283-4855                CONNECTOR HOUSING        CCN000012000000012000FN00000000020220401000012000NNM00020220331142503    4N0N  00000240000001188400001400032H7    FYFSY   005500360039
BI00B32H7    FS22044DMW     202204017288-6547                CONNECTOR MALE ASS'Y     CCN000012000000012000FN00000000020220401000012000NNM00020220331142517    4N0N  00000075000001205300001340332H7    FYFSY   005400370024
BI00B32N1    NST2117ECU     202203307283-5845                CONNECTOR HOUSING        CCN000006000000006000FY00000600020220301000000000NNE00020220331142639    1N0N  00000600000000444000000606332N1    TAYIPL  005400370024
BI00B32N1    NST2118ECU     202203307116-1685-02             TERMINAL                 CCN000336000000336000FY00033600020220401000000000NNE00020220331142706    4P0P  00002400000000897600001065232N1    TAYIPL  005100280028
BI00B32N1    NST2118ECU     202203307116-4112-02             TERMINAL                 CCN000036000000036000FY00003600020220401000000000NNE00020220331142730    4P0P  00000600000000450000000738232N1    TAYIPL  006400630015
BI00B32N1    NST2118ECU     202203307116-4415-02             TERMINAL                 CCN000304000000304000FY00030400020220401000000000NNE00020220331142730    4P0P  00003800000000596600000925732N1    TAYIPL  006400630017
BI00B32N1    NST2118ECU     202203307116-4416-02             TERMINAL                 CCN000672000000672000FY00067200020220401000000000NNE00020220331142730    4P0P  00003200000000518400000847132N1    TAYIPL  006400630017
BI00B32N1    NST2118ECU     202203307126-8853-02             TERMINAL                 CCN000150000000150000FY00015000020220401000000000NNE00020220331142730    4P0P  00000750000000562500000847732N1    TAYIPL  006400630015
BI00B32N1    NST2118ECU     202203307126-8855-02             TERMINAL                 CCN000042000000042000FY00004200020220401000000000NNE00020220331142730    4P0P  00000600000000510600000795832N1    TAYIPL  006400630015
BI00A32N3    NBT203 A4      202204047289-3342-30             HOUSING FEMALE ASS'Y     PCN000055200000007200FN00000000020220301000007200NNMD0420220331192711    1N0N  00000240000000686400000901432N3    ABYIPL-B005500360039
BI00A32P8    #TAPI-2052     202204047172-5629-80             RUBBER STOPPER           PCN000280000000280000FN00000000020220501000280000NNMM0020220331121437    2H0H  00002000000000060000000111132P8    YIYTM   004300270014
BI00A32P8    #TAPI-2051     202204047172-5630-40             RUBBER STOPPER           PCN000340000000340000FN00000000020220501000340000NNMM0020220331121437    2H0H  00002000000000044000000095132P8    YIYTM   004300270014
BI00B32U5    #DI2024        202205277172-5630-40             RUBBER STOPPER           CCN000300000000300000FN00000000020220701000300000NNMD0420220331121437U5  2H0H  00002000000000044000000095132U5    AMAMSD  004300270014
BI00A32U5    DI2016C        202204077116-5046-02             TERMINAL                 CCN000084000000084000FN00000000020220401000084000NNED0720220331193615U5  4P0P  00001200000000544800000873532U5    AMAMSD  006400630017
BI00A32U9    #TP0391S       202204077158-3017                RUBBER STOPPER           CCN000030000000030000FN00000000020220501000030000NNEM0020220331163634U9  2C0C  00001000000000375500000435032U9    YNYNA-E 002700430014
BI00A32U9    TPA218         202204077114-4030                TERMINAL                 CCN000010500000010500FN00000000020220501000010500NNMM0020220331164204U9  4P0P  00001050000000926100001254732U9    YNYNA-E 006400630017
BI00A32U9    TPA218         202204077172-5540-80             SEALED WIRE SEAL         CCN000040000000040000FN00000000020220501000040000NNMM0020220331163808U9  1C0C  00002000000000186000000234432U9    YNYNA-E 004300270014
BI00A32U9    TPA218         202204077196-0805-02             TERMINAL FEMALE          CCN000022500000022500FN00000000020220501000022500NNMM0020220331163716U9  4P0P  00002250000000558000000843232U9    YNYNA-E 006400630015
BI00A32U9    TPA218         202204077222-4220-30             CONNECTOR                CCN000002250000002250FN00000000020220501000002250NNMM0020220331163924U9  4N0N  00000075000001219000001384032U9    YNYNA-E 005600390040
BI00B32U9    TPA218         202204077282-5574-10             CONNECTOR                CCN000033600000013600FN00000000020220501000013600NNMQ0020220331164232U9  4N0N  00000080000001235000001423032U9    YNYNA-E 005600390040
BI00A32U9    TPA218         202204077282-5684-10             CONNECTOR                CCN000001200000001200FN00000000020220501000001200NNMM0020220331163940U9  4N0N  00000120000001477000001656032U9    YNYNA-E 005600390040
BI00A32U9    TPA218         202204077298-1145-4W             SQUIB SUB ASS'Y          CCN000010000000010000FN00000000020220501000010000NNMM0020220331164150U9  4N0N  00001000000000787900000944932U9    YNYNA-E 005400370024
BI00A32U9    TPA219         202204077116-1257-02             TERMINAL                 CCN000024000000024000FN00000000020220501000024000NNMM0020220331163840U9  1P0P  00002400000000518400000847132U9    YNYNA-E 006400630017
BI00A32U9    TPA219         202204077116-4231-02             TERMINAL                 CCN000338000000338000FN00000000020220501000338000NNMM0020220331163657U9  4P0P  00002600000000683800001012532U9    YNYNA-E 006400630017
BI00B32U9    TPA219         202204077158-3006-90             RUBBER STOPPER           CCN000080000000040000FN00000000020220501000040000NNMQ0020220331163747U9  1C0C  00002000000000330600000386032U9    YNYNA-E 002700430014
BI00A32U9    TPA219         202204077174-1849-70             COVER                    CCN000025000000025000FN00000000020220501000025000NNMM0020220331163823U9  1F0F  00002500000000622500000761932U9    YNYNA-E 005400370024
BI00A32U9    TPA219         202204077298-1186-70             SQUIB SUB ASS'Y          CCN000010000000010000FN00000000020220501000010000NNMM0020220331163903U9  4N0N  00001000000000650000000774532U9    YNYNA-E 005400370024
BI00A32U9    #TPA219        202204077135-6177                GROMMET                  CCN000001200000001200FN00000000020220501000001200NNMM0020220331164038U9  2H0H  00000020000001139600001249632U9    YNYNA-E 005600390040
BI00B32U9    #TPA219        202204077282-6457-40             CONNECTOR                CCN000010400000008000FN00000000020220501000008000NNMQ0020220331164108U9  2N0N  00000080000001137000001421332U9    YNYNA-E 005600390040
BI00B32U9    TP0392S        202204077282-5684-10             CONNECTOR                CCN000002400000001200FN00000000020220501000001200NNEQ0020220331164019U9  4N0N  00000120000001477000001656032U9    YNYNA-E 005600390040
BI00A32U9    #TP0392S       202204077157-3646                RUBBER STOPPER           CCN000020000000020000FN00000000020220501000020000NNEM0020220331164129U9  2H0H  00002000000000184000000255232U9    YNYNA-E 002700430014
BI00A32U9    TPA221         202204077116-4060-02             TERMINAL                 CCN000024000000024000FN00000000020220501000024000NNMM0020220331184837U9  1P0P  00002400000000511200000984232U9    YNYNA-E 006400630017
BI00A32U9    TPA219         202204077158-3006-90             RUBBER STOPPER           CCN000040000000040000FN00000000020220501000040000NNMM0020220331163753U9  1C0C  00002000000000330600000386032U9    YNYNA-E 002700430014
BI00A32U9    TP0392S        202204077282-5684-10             CONNECTOR                CCN000001200000001200FN00000000020220501000001200NNEM0020220331164019U9  4N0N  00000120000001477000001656032U9    YNYNA-E 005600390040
BI00A32U9    #TPA219        202204077282-6457-40             CONNECTOR                CCN000002400000002400FN00000000020220501000002400NNMM0020220331164108U9  2N0N  00000080000001137000001421332U9    YNYNA-E 005600390040
BI00A32U9    TPA218         202204077282-5574-10             CONNECTOR                CCN000020000000020000FN00000000020220501000020000NNMM0020220331164237U9  4N0N  00000080000001235000001423032U9    YNYNA-E 005600390040
BI00A32W4    4500188709     202203297158-3169-40             SEALING PLUG             CCN000080000000080000FY00008000020220301000000000NNE00020220331154001W4A21C0C  00004000000000156000000204132W4A2  HJYHK-J 004300260014
BI00A32W4    4500188761     202203057116-2951-02             TERMINAL                 CCN000010800000010800FY00001080020220301000000000NNE00020220331154036W46 4P0P  00000540000000817600001111832W46   HJYHK   006400630015
BI00A32W4    4500189121     202203297158-3167-80             WIRE SEAL                CCN000120000000120000FY00012000020200301000000000NNE00020220331154118W4A21C0C  00002000000000048000000109032W4A2  HJYHK-J 002700430014
BI00A32W4    4500189121     202204077116-4111-02             TERMINAL                 CCN000022500000022500FN00000000020200301000022500NNE00020220331154118W4A24P0P  00000750000000529500000817732W4A2  HJYHK-J 006400630015
BI00A32W4    4500189121     202203297283-7029-40             CONNECTOR                CCN000006000000006000FY00000600020200301000000000NNE00020220331154118W4A21N0N  00000600000001026000001200032W4A2  HJYHK-J 005600390023
BI00A32W4    4500190793     202204077298-2507-30             HOUSING FEMALE ASS'Y     CCN000001200000001200FN00000000020220301000001200NNE00020220331154240W4284N0N  00000120000000713200000914532W428  HJYHK   005500360039
BI00A32W4    4500191173     202204077283-5548-30             CONNECTOR                CCN000001500000001500FN00000000020220301000001500NNE00020220331154300W4804N0N  00000150000001109000001302032W480  HJYHK-J 005600390040
BI00A32W4    4500191365     202205237116-4111-02             TERMINAL                 CCN000007500000000000FY00000000020220501000000000NNEQ0820220331160418W4194P0P  00000750000000529500000817732W419  HJYHK   006400630015
BI00A32W4    4500191365     202205237283-6568-40             CONNECTOR                CCN000002000000000000FY00000000020220501000000000NNEQ0820220331160418W4194N0N  00000200000001090000001263032W419  HJYHK   005500360039
BI00B32W4    @4500191554    202206097183-8049                CONNECTOR HOUSING        CCN000160000000040000FN00000000020220601000040000NNED0220220331121437W9173F0F  00000400000000583600000740032W917  HJYHK   005400370024
BI00B32W4    @4500191554    202206167183-8049                CONNECTOR HOUSING        CCN000040000000040000FN00000000020220601000040000NNED0220220331121437W9173F0F  00000400000000583600000740032W917  HJYHK   005400370024
BI00B32W4    @4500191554    202206237183-8049                CONNECTOR HOUSING        CCN000040000000040000FN00000000020220601000040000NNED0220220331121437W9173F0F  00000400000000583600000740032W917  HJYHK   005400370024
BI00B32W4    @4500191554    202206307183-8049                CONNECTOR HOUSING        CCN000040000000040000FN00000000020220601000040000NNED0220220331121437W9173F0F  00000400000000583600000740032W917  HJYHK   005400370024
BI00B32W4    4500191662     202206027116-4100-02             TERMINAL                 CCN000120000000120000FN00000000020220601000120000NNE   20220331121437W4164P0P  00001500000000696000000990232W416  HJYHK   006400630015
BI00B32W4    4500191662     202206027114-4112-02             TERMINAL                 CCN000009000000009000FN00000000020220601000009000NNE   20220331121437W4164P0P  00000900000000598500000927132W416  HJYHK   006400630017
BI00B32W4    4500191662     202206027116-4121-02             TERMINAL                 CCN000004500000004500FN00000000020220601000004500NNE   20220331121437W4164P0P  00000450000000618800000912432W416  HJYHK   006400630015
BI00B32W4    4500191662     202206027116-4111-02             TERMINAL                 CCN000007500000007500FN00000000020220601000007500NNE   20220331121437W4164P0P  00000750000000529500000817732W416  HJYHK   006400630015
BI00B32W4    4500191662     202206027116-4112-02             TERMINAL                 CCN000036000000036000FN00000000020220601000036000NNE   20220331121437W4164P0P  00000600000000450000000738232W416  HJYHK   006400630015
BI00B32W4    4500191662     202206027116-4102-02             TERMINAL                 CCN000012000000012000FN00000000020220601000012000NNE   20220331121437W4164P0P  00001200000000553200000841432W416  HJYHK   006400630015
BI00B32W4    4500191662     202206027283-7028-30             CONNECTOR                CCN000003000000003000FN00000000020220601000003000NNE   20220331121437W4164N0N  00000300000001452000001681332W416  HJYHK   005600390040
BI00B32W4    4500191662     202206027114-4100-02             TERMINAL                 CCN000018000000018000FN00000000020220601000018000NNE   20220331121437W4164P0P  00001800000000748800001077432W416  HJYHK   006400630017
BI00B32W4    4500191662     202206027116-5045-02             TERMINAL                 CCN000016000000016000FN00000000020220601000016000NNE   20220331121437W4164P0P  00001600000000678400001007132W416  HJYHK   006400630017
BI00B32W4    4500191662     202206027158-3166-60             WIRE SEAL                CCN000040000000040000FN00000000020220601000040000NNE   20220331121437W4161C0C  00004000000000104000000152432W416  HJYHK   002700430014
BI00B32W4    4500191662     202206027158-3169-40             SEALING PLUG             CCN000040000000040000FN00000000020220601000040000NNE   20220331121437W4161C0C  00004000000000156000000204132W416  HJYHK   004300260014
BI00B32W4    4500191662     202206027116-4101-02             TERMINAL                 CCN000012000000012000FN00000000020220601000012000NNE   20220331121437W4164P0P  00001200000000582000000876232W416  HJYHK   006400630015
BI00B32W4    4500191662     202206027116-4104-02             TERMINAL                 CCN000012000000012000FN00000000020220601000012000NNE   20220331121437W4164P0P  00001200000000580800000972432W416  HJYHK   006400630015
BI00B32W4    4500191662     202206027116-4103-02             TERMINAL                 CCN000012000000012000FN00000000020220601000012000NNE   20220331121437W4164P0P  00001200000000571200000859432W416  HJYHK   006400630015
BI00B32W4    4500191662     202206027283-1020                CONNECTOR                CCN000006000000006000FN00000000020220601000006000NNE   20220331121437W4164N0N  00000600000000840000001049332W416  HJYHK   005600390040
BI00B32W4    4500191662     202206027283-1024                CONNECTOR SUB ASSY       CCN000012000000012000FN00000000020220601000012000NNE   20220331121437W4164N0N  00000200000000400000000522532W416  HJYHK   005400370024
BI00B32W4    4500191662     202206027282-1024                HOUSING MALE             CCN000012000000012000FN00000000020220601000012000NNE   20220331121437W4161N0N  00000100000000458000000580532W416  HJYHK   005400370024
BI00B32W4    4500191662     202206027283-1030                CONNECTOR                CCN000006000000006000FN00000000020220601000006000NNE   20220331121437W4164N0N  00000600000000988000001172032W416  HJYHK   005500360039
BI00B32W4    4500191662     202206027288-6547                CONNECTOR MALE ASS'Y     CCN000012000000012000FN00000000020220601000012000NNE   20220331121437W4164N0N  00000075000001205300001340332W416  HJYHK   005400370024
BI00B32W4    4500191662     202206027289-6547                HOUSING FEMALE ASS'Y     CCN000012000000012000FN00000000020220601000012000NNE   20220331121437W4161N0N  00000240000001152000001362032W416  HJYHK   005500360039
BI00B32W4    4500191662     202206027283-1156                CONNECTOR                CCN000009600000009600FN00000000020220601000009600NNE   20220331121437W4164N0N  00000080000000877600001078032W416  HJYHK   005600390040
BI00B32W4    4500191662     202206027114-4032                TERMINAL                 CCN000007500000007500FN00000000020220601000007500NNE   20220331121437W4164P0P  00000750000000735000001063632W416  HJYHK   006400630017
BI00B32W4    #4500191662    202206027282-4190-30             CONNECTOR                CCN000000960000000960FN00000000020220601000000960NNE   20220331121437W4162N0N  00000024000000801000001071332W416  HJYHK   005600390040
BI00B32W4    #4500191662    202206027283-4190-30             CONNECTOR                CCN000000960000000960FN00000000020220601000000960NNE   20220331121437W4162N0N  00000024000000846000001115532W416  HJYHK   005600390040
BI00B32W4    #4500191662    202206027187-1616                HOUSING FEMALE           CCN000004000000004000FN00000000020220601000004000NNE   20220331121437W4162F0F  00000400000001152000001262032W416  HJYHK   005500360039
BI00B32W4    @4500191662    202206027183-8049                CONNECTOR HOUSING        CCN000004000000004000FN00000000020220601000004000NNE   20220331121437W4163F0F  00000400000000583600000740032W416  HJYHK   005400370024
BI00B32W4    @4500191662    202206027287-6634                HOUSING FEMALE ASS'Y     CCN000004800000004800FN00000000020220601000004800NNE   20220331121437W4163N0N  00000240000001088400001337032W416  HJYHK   005500360039
BI00B32W9    4500191658     202205247116-4022                TERMINAL                 CCN000013500000013500FN00000000020220501000013500NNE   20220331121437W9  4P0P  00001350000000618300000903532W9    HKYHK   006400630015
BI00B32W9    4500191658     202205247114-4100-02             TERMINAL                 CCN000018000000018000FN00000000020220501000018000NNE   20220331121437W9  4P0P  00001800000000748800001077432W9    HKYHK   006400630017
BI00B32W9    4500191658     202205247283-5846                HOUSING                  CCN000001500000001500FN00000000020220501000001500NNE   20220331121437W9  1N0N  00000150000000885000001102032W9    HKYHK   005600390040
BI00B32W9    4500191659     202205317116-4231-02             TERMINAL                 CCN000026000000026000FN00000000020220501000026000NNE   20220331121437W9  4P0P  00002600000000683800001012532W9    HKYHK   006400630017
BI00B32W9    4500191659     202205317116-4022                TERMINAL                 CCN000013500000013500FN00000000020220501000013500NNE   20220331121437W9  4P0P  00001350000000618300000903532W9    HKYHK   006400630015
BI00B32W9    4500191659     202205317114-4100-02             TERMINAL                 CCN000018000000018000FN00000000020220501000018000NNE   20220331121437W9  4P0P  00001800000000748800001077432W9    HKYHK   006400630017
BI00B32W9    4500191659     202205317283-5846                HOUSING                  CCN000003000000003000FN00000000020220501000003000NNE   20220331121437W9  1N0N  00000150000000885000001102032W9    HKYHK   005600390040
BI00B32X5    #TIB2024       202205277172-5630-40             RUBBER STOPPER           CCN000140000000140000FN00000000020220701000140000NNMD0420220331121437X5  2H0H  00002000000000044000000095132X5    EPYNA-E 004300270014
