BI00B32A7    @ZZ22031BMW    20220202181E48022ZZ              CAVSAS-S 0.5X2 GY        CCN000000600000000600FN00000000020220301000000600NNM   20220107105622    1W    00000030000002561000000000032A7    ZZZZY   000000000000ZY321001
BI00B32A7    @ZZ22032BMW    20220209181E48022ZZ              CAVSAS-S 0.5X2 GY        CCN000000300000000300FN00000000020220301000000300NNM   20220107105622    1W    00000030000002561000000000032A7    ZZZZY   000000000000ZY421001
BI00B32A7    ZZ22031LMW     2022020218000004530              AV 8 B                   CCN000009800000009800FN00000000020220301000009800NNM   20220107105624    1W    00000010000010466200000000032A7    ZZZZY   000000000000ZZ321023
BI00B32A7    ZZ22032LMW     2022020918000004530              AV 8 B                   CCN000003000000003000FN00000000020220301000003000NNM   20220107105624    1W    00000010000010466200000000032A7    ZZZZY   000000000000ZZ421005
BI00B32A7    ZZ22033LMW     2022021518000004530              AV 8 B                   CCN000003400000003400FN00000000020220301000003400NNM   20220107105624    1W    00000010000010466200000000032A7    ZZZZY   000000000000ZZ122020
BI00B32A7    ZZ22034LMW     2022022318000004530              AV 8 B                   CCN000003500000003500FN00000000020220301000003500NNM   20220107105624    1W    00000010000010466200000000032A7    ZZZZY   000000000000ZZ222024
BI00B32A7    ZZ22031LMW     2022020218000004560              AV 8 G                   CCN000010600000010600FN00000000020220301000010600NNM   20220107105624    1W    00000010000010466200000000032A7    ZZZZY   000000000000ZZ321024
BI00B32A7    ZZ22032LMW     2022020918000004560              AV 8 G                   CCN000009300000009300FN00000000020220301000009300NNM   20220107105624    1W    00000010000010466200000000032A7    ZZZZY   000000000000ZZ421006
BI00B32A7    ZZ22033LMW     2022021518000004560              AV 8 G                   CCN000007300000007300FN00000000020220301000007300NNM   20220107105624    1W    00000010000010466200000000032A7    ZZZZY   000000000000ZZ122021
BI00B32A7    ZZ22034LMW     2022022318000004560              AV 8 G                   CCN000004200000004200FN00000000020220301000004200NNM   20220107105624    1W    00000010000010466200000000032A7    ZZZZY   000000000000ZZ222025
BI00B32A7    ZZ22031LMW     2022020218000004550              AV 8 R                   CCN000018700000018700FN00000000020220301000018700NNM   20220107105624    1W    00000010000010466200000000032A7    ZZZZY   000000000000ZZ321025
BI00B32A7    ZZ22032LMW     2022020918000004550              AV 8 R                   CCN000016300000016300FN00000000020220301000016300NNM   20220107105624    1W    00000010000010466200000000032A7    ZZZZY   000000000000ZZ421007
BI00B32A7    ZZ22033LMW     2022021518000004550              AV 8 R                   CCN000016200000016200FN00000000020220301000016200NNM   20220107105624    1W    00000010000010466200000000032A7    ZZZZY   000000000000ZZ122022
BI00B32A7    ZZ22034LMW     2022022318000004550              AV 8 R                   CCN000007200000007200FN00000000020220301000007200NNM   20220107105624    1W    00000010000010466200000000032A7    ZZZZY   000000000000ZZ222026
BI00B32A7    ZZ22031LMW     2022020218000004540              AV 8 W                   CCN000012900000012900FN00000000020220301000012900NNM   20220107105624    1W    00000010000010466200000000032A7    ZZZZY   000000000000ZZ321026
BI00B32A7    ZZ22032LMW     2022020918000004540              AV 8 W                   CCN000010600000010600FN00000000020220301000010600NNM   20220107105624    1W    00000010000010466200000000032A7    ZZZZY   000000000000ZZ421008
BI00B32A7    ZZ22033LMW     2022021518000004540              AV 8 W                   CCN000010600000010600FN00000000020220301000010600NNM   20220107105624    1W    00000010000010466200000000032A7    ZZZZY   000000000000ZZ122023
BI00B32A7    ZZ22034LMW     2022022318000004540              AV 8 W                   CCN000007700000007700FN00000000020220301000007700NNM   20220107105624    1W    00000010000010466200000000032A7    ZZZZY   000000000000ZZ222027
BI00B32A7    ZZ22031LMW     2022020218000004570              AV 8 Y                   CCN000004000000004000FN00000000020220301000004000NNM   20220107105624    1W    00000010000010466200000000032A7    ZZZZY   000000000000ZZ321027
BI00B32A7    ZZ22032LMW     2022020918000004570              AV 8 Y                   CCN000002500000002500FN00000000020220301000002500NNM   20220107105624    1W    00000010000010466200000000032A7    ZZZZY   000000000000ZZ421009
BI00B32A7    ZZ22033LMW     2022021518000004570              AV 8 Y                   CCN000002500000002500FN00000000020220301000002500NNM   20220107105624    1W    00000010000010466200000000032A7    ZZZZY   000000000000ZZ122024
BI00B32A7    ZZ22034LMW     2022022318000004570              AV 8 Y                   CCN000001200000001200FN00000000020220301000001200NNM   20220107105624    1W    00000010000010466200000000032A7    ZZZZY   000000000000ZZ222028
BI00B32A7    @ZZ22031LMW    20220202181E48017ZZ              CAVSAS-S 0.5X1 GY/G      CCN000010400000010400FN00000000020220301000010400NNM   20220107105623    1W    00000040000001900600000000032A7    ZZZZY   000000000000ZZ321016
BI00B32A7    @ZZ22033LMW    20220215181E48017ZZ              CAVSAS-S 0.5X1 GY/G      CCN000004800000004800FN00000000020220301000004800NNM   20220107105623    1W    00000040000001900600000000032A7    ZZZZY   000000000000ZZ122015
BI00B32A7    @ZZ22034LMW    20220223181E48017ZZ              CAVSAS-S 0.5X1 GY/G      CCN000000400000000400FN00000000020220301000000400NNM   20220107105623    1W    00000040000001900600000000032A7    ZZZZY   000000000000ZZ222018
BI00B32A7    @ZZ22031LMW    20220202181E48018ZZ              CAVSAS-S 0.5X2 GY/SB     CCN000001500000001500FN00000000020220301000001500NNM   20220107105623    1W    00000030000002561000000000032A7    ZZZZY   000000000000ZZ321019
BI00B32A7    @ZZ22032LMW    20220209181E48018ZZ              CAVSAS-S 0.5X2 GY/SB     CCN000001500000001500FN00000000020220301000001500NNM   20220107105623    1W    00000030000002561000000000032A7    ZZZZY   000000000000ZZ421003
BI00B32A7    @ZZ22033LMW    20220215181E48018ZZ              CAVSAS-S 0.5X2 GY/SB     CCN000002100000002100FN00000000020220301000002100NNM   20220107105623    1W    00000030000002561000000000032A7    ZZZZY   000000000000ZZ122018
BI00B32A7    @ZZ22034LMW    20220223181E48018ZZ              CAVSAS-S 0.5X2 GY/SB     CCN000002400000002400FN00000000020220301000002400NNM   20220107105623    1W    00000030000002561000000000032A7    ZZZZY   000000000000ZZ222021
BI00B32A7    @ZZ22031LMW    20220202181E48019ZZ              CAVSAS-S 0.5X1 GY/W      CCN000002000000002000FN00000000020220301000002000NNM   20220107105623    1W    00000040000001900600000000032A7    ZZZZY   000000000000ZZ321017
BI00B32A7    @ZZ22032LMW    20220209181E48019ZZ              CAVSAS-S 0.5X1 GY/W      CCN000006000000006000FN00000000020220301000006000NNM   20220107105623    1W    00000040000001900600000000032A7    ZZZZY   000000000000ZZ421001
BI00B32A7    @ZZ22033LMW    20220215181E48019ZZ              CAVSAS-S 0.5X1 GY/W      CCN000005600000005600FN00000000020220301000005600NNM   20220107105623    1W    00000040000001900600000000032A7    ZZZZY   000000000000ZZ122016
BI00B32A7    @ZZ22034LMW    20220223181E48019ZZ              CAVSAS-S 0.5X1 GY/W      CCN000000800000000800FN00000000020220301000000800NNM   20220107105623    1W    00000040000001900600000000032A7    ZZZZY   000000000000ZZ222019
BI00B32A7    @ZZ22031LMW    20220202181E48027ZZ              CAVSAS-S 0.5X2 GY/P      CCN000001500000001500FN00000000020220301000001500NNM   20220107105623    1W    00000030000002561000000000032A7    ZZZZY   000000000000ZZ321018
BI00B32A7    @ZZ22032LMW    20220209181E48027ZZ              CAVSAS-S 0.5X2 GY/P      CCN000001500000001500FN00000000020220301000001500NNM   20220107105623    1W    00000030000002561000000000032A7    ZZZZY   000000000000ZZ421002
BI00B32A7    @ZZ22033LMW    20220215181E48027ZZ              CAVSAS-S 0.5X2 GY/P      CCN000002100000002100FN00000000020220301000002100NNM   20220107105623    1W    00000030000002561000000000032A7    ZZZZY   000000000000ZZ122017
BI00B32A7    @ZZ22034LMW    20220223181E48027ZZ              CAVSAS-S 0.5X2 GY/P      CCN000002400000002400FN00000000020220301000002400NNM   20220107105623    1W    00000030000002561000000000032A7    ZZZZY   000000000000ZZ222020
BI00B32A7    @ZZ22031LMW    20220202181E48040ZZ              CAVSAS-S 0.3X2 GY/V      CCN000000700000000700FN00000000020220301000000700NNM   20220107105623    1W    00000035000002008700000000032A7    ZZZZY   000000000000ZZ321020
BI00B32A7    @ZZ22032LMW    20220209181E48040ZZ              CAVSAS-S 0.3X2 GY/V      CCN000001050000001050FN00000000020220301000001050NNM   20220107105623    1W    00000035000002008700000000032A7    ZZZZY   000000000000ZZ421004
BI00B32A7    @ZZ22033LMW    20220215181E48040ZZ              CAVSAS-S 0.3X2 GY/V      CCN000004900000004900FN00000000020220301000004900NNM   20220107105623    1W    00000035000002008700000000032A7    ZZZZY   000000000000ZZ122019
BI00B32A7    @ZZ22034LMW    20220223181E48040ZZ              CAVSAS-S 0.3X2 GY/V      CCN000002100000002100FN00000000020220301000002100NNM   20220107105623    1W    00000035000002008700000000032A7    ZZZZY   000000000000ZZ222022
BI00A32DJ    GH2202J        2022011018007703792              AVSS 0.3F V              CCN000002000000002000FN00000000020220101000002000NNE   20220107160912    1W    00000200000000496000000000032DJ    RBYIPLRB000000000000XL121011
BI00A32DJ    GH2202J        2022011018009604203              AVS 2 B/O                CCN000000500000000500FN00000000020220101000000500NNE   20220107160912    1W    00000050000002456500000000032DJ    RBYIPLRB000000000000XL121012
BI00A32DJ    GH2202J        20220110180T8403941              ACCAVS 0.5 GY            CCN000001500000001500FN00000000020220101000001500NNE   20220107160912    1W    00000150000000674300000000032DJ    RBYIPLRB000000000000XL121008
BI00A32DJ    GH2202J        20220110180T8403970              ACCAVS 0.5 Y             CCN000001500000001500FN00000000020220101000001500NNE   20220107160912    1W    00000150000000674300000000032DJ    RBYIPLRB000000000000XL121010
BI00A32DJ    GH2202J        20220110180T8403991              ACCAVS 0.5 SB            CCN000001500000001500FN00000000020220101000001500NNE   20220107160912    1W    00000150000000674300000000032DJ    RBYIPLRB000000000000XL121009
BI00B32G2    @SA2201A MW    20220126181B32102S1              AVSSCS 0.5FX2 DGY        CCN000000600000000600FN00000000020220101000000600NNE   20220107103551    1W    00000030000002903000000000032G2    AISUAI  000000000000IO221001
BI00B32G2    SA2201ANMW     2022012618007704061              AVSS 0.75F LG            CCN000001000000001000FN00000000020220101000001000NNE   20220107103553    1W    00000100000000943000000000032G2    AISUAI  000000000000IU221001
BI00B32G2    @SA2201CHMW    20220126181B32116Z5              AVSSCS 0.3FX2 DGY/L      CCN000002450000002450FN00000000020220101000002450NNE   20220107103552    1W    00000035000002276000000000032G2    AISUAI  000000000000IP221001
BI00B32G2    SA2201CJMW     202201191801W004050              IVSSH 0.75F R            CCN000006500000006500FN00000000020220101000006500NNE   20220107103555    1W    00000130000000882000000000032G2    AISUAI  000000000000IO121003
BI00B32G2    @SA2202A MW    20220126181B32102Y6              AVSSCS 0.5FX2 DGY/G      CCN000000300000000300FN00000000020220201000000300NNE   20220107103557    1W    00000030000002903000000000032G2    AISUAI  000000000000IQ221001
BI00B32G2    SA2202AHMW     202201191801W006980              IVSSH 0.35F BR           CCN000015000000015000FN00000000020220201000015000NNE   20220107103559    1W    00000250000000452000000000032G2    AISUAI  000000000000IQ121004
BI00B32G2    @SA2202ANMW    20220126181B32102Z8              AVSSCS 0.5FX2 DGY/O      CCN000000600000000600FN00000000020220201000000600NNE   20220107103557    1W    00000030000002779000000000032G2    AISUAI  000000000000IS221001
BI00B32G2    @SA2202B MW    20220202181D6910230              AVSSHCS 0.5FX2 B         CCN000007800000007800FN00000000020220201000007800NNE   20220107102513    1W    00000030000002385000000000032G2    AISUAI  000000000000IO321001
BI00B32G2    @SA2202B MW    20220202181D6910235              AVSSHCS 0.5FX2 B/R       CCN000000600000000600FN00000000020220201000000600NNE   20220107102513    1W    00000030000002385000000000032G2    AISUAI  000000000000IO321002
BI00B32G2    @SA2202B MW    20220202181D6910237              AVSSHCS 0.5FX2 B/Y       CCN000000900000000900FN00000000020220201000000900NNE   20220107102513    1W    00000030000002385000000000032G2    AISUAI  000000000000IO321003
BI00B32G2    SA2202BJMW     202201261801W003930              IVSSH 0.5F B             CCN000079200000079200FN00000000020220201000079200NNE   20220107103601    1W    00000180000000625000000000032G2    AISUAI  000000000000IN221001
BI00B32G2    SA2202BJMW     202201261801W003940              IVSSH 0.5F W             CCN000073800000073800FN00000000020220201000073800NNE   20220107103601    1W    00000180000000625000000000032G2    AISUAI  000000000000IN221007
BI00B32G2    SA2202BJMW     202201261801W003941              IVSSH 0.5F GY            CCN000012600000012600FN00000000020220201000012600NNE   20220107103601    1W    00000180000000625000000000032G2    AISUAI  000000000000IN221003
BI00B32G2    SA2202BJMW     202201261801W003943              IVSSH 0.5F W/B           CCN000016200000016200FN00000000020220201000016200NNE   20220107103601    1W    00000180000000625000000000032G2    AISUAI  000000000000IN221008
BI00B32G2    SA2202BJMW     202201261801W003950              IVSSH 0.5F R             CCN000081000000081000FN00000000020220201000081000NNE   20220107103601    1W    00000180000000625000000000032G2    AISUAI  000000000000IN221005
BI00B32G2    SA2202BJMW     202201261801W003952              IVSSH 0.5F P             CCN000014400000014400FN00000000020220201000014400NNE   20220107103601    1W    00000180000000625000000000032G2    AISUAI  000000000000IN221004
BI00B32G2    SA2202BJMW     202201261801W003980              IVSSH 0.5F BR            CCN000016200000016200FN00000000020220201000016200NNE   20220107103601    1W    00000180000000625000000000032G2    AISUAI  000000000000IN221002
BI00B32G2    SA2202BJMW     202201261801W003991              IVSSH 0.5F SB            CCN000001800000001800FN00000000020220201000001800NNE   20220107103601    1W    00000180000000625000000000032G2    AISUAI  000000000000IN221006
BI00B32G2    SA2202BJMW     202201261801W004061              IVSSH 0.75F LG           CCN000005200000005200FN00000000020220201000005200NNE   20220107103601    1W    00000130000000882000000000032G2    AISUAI  000000000000IN221009
BI00B32G2    @SA2202C MW    20220202181E50007ZZ              AVSSCS-S 0.5FX1 DGY/L    CCN000005200000005200FN00000000020220201000005200NNE   20220107102514    1W    00000040000001909700000000032G2    AISUAI  000000000000IP321001
BI00B32G2    @SA2202C MW    20220202181E50016ZZ              AVSSCS-S 0.5FX2 DGY/R    CCN000002700000002700FN00000000020220201000002700NNE   20220107102514    1W    00000030000003096000000000032G2    AISUAI  000000000000IP321002
BI00B32G2    @SA2202C MW    20220202181F21009ZZ              AVSSHCS-S 0.5FX2 B       CCN000005700000005700FN00000000020220201000005700NNE   20220107102514    1W    00000030000002531400000000032G2    AISUAI  000000000000IP321003
BI00B32G2    SA2202CJMW     202201261801W003961              IVSSH 0.5F LG            CCN000001800000001800FN00000000020220201000001800NNE   20220107103602    1W    00000180000000625000000000032G2    AISUAI  000000000000IV221001
BI00B32G2    SA2202CJMW     202201261801W003992              IVSSH 0.5F V             CCN000007200000007200FN00000000020220201000007200NNE   20220107103602    1W    00000180000000625000000000032G2    AISUAI  000000000000IV221002
BI00B32G2    SA2202CJMW     202201261801W004060              IVSSH 0.75F G            CCN000009100000009100FN00000000020220201000009100NNE   20220107103602    1W    00000130000000882000000000032G2    AISUAI  000000000000IV221003
BI00B32G2    SA2202CJMW     202201261801W004090              IVSSH 0.75F L            CCN000001300000001300FN00000000020220201000001300NNE   20220107103602    1W    00000130000000882000000000032G2    AISUAI  000000000000IV221004
BI00B32G2    SA2202CJMW     202201261801W006950              IVSSH 0.35F R            CCN000012500000012500FN00000000020220201000012500NNE   20220107103602    1W    00000250000000452000000000032G2    AISUAI  000000000000IV221007
BI00B32G2    SA2202CJMW     202201261801W006952              IVSSH 0.35F P            CCN000010000000010000FN00000000020220201000010000NNE   20220107103602    1W    00000250000000452000000000032G2    AISUAI  000000000000IV221006
BI00B32G2    SA2202CJMW     202201261801W006961              IVSSH 0.35F LG           CCN000007500000007500FN00000000020220201000007500NNE   20220107103602    1W    00000250000000452000000000032G2    AISUAI  000000000000IV221005
BI00B32G2    SA2202CJMW     202201261801W006991              IVSSH 0.35F SB           CCN000005000000005000FN00000000020220201000005000NNE   20220107103602    1W    00000250000000452000000000032G2    AISUAI  000000000000IV221008
BI00B32J1    @390115        20220131181AD2002ZZ              CIVUSAS-S 0.35X2 B       CCN000031050000031050FN00000000020220101000031050NNE   20220107084123    1W    00000045000001713700000000032J1    UKYEL-BL000000000000KG321001
BI00B32J1    @390115        20220131181AD2003ZZ              CIVUSAS-S 0.35X3 B       CCN000012250000012250FN00000000020220101000012250NNE   20220107084123    1W    00000035000002172100000000032J1    UKYEL-BL000000000000KG321002
BI00B32J1    @390115        20220131181AD2004ZZ              CIVUSAS-S 0.35X4 B       CCN000002700000002700FN00000000020220101000002700NNE   20220107084123    1W    00000030000002799900000000032J1    UKYEL-BL000000000000KG321003
BI00B32J1    @390115        20220131181E48012ZZ              CAVSAS-S 0.3X1 GY        CCN000000500000000500FN00000000020220101000000500NNE   20220107084123    1W    00000050000001529500000000032J1    UKYEL-BL000000000000KG321004
BI00B32J1    @390115        20220131181E48013ZZ              CAVSAS-S 0.3X3 GY        CCN000000250000000250FN00000000020220101000000250NNE   20220107084123    1W    00000025000002778200000000032J1    UKYEL-BL000000000000KG321007
BI00B32J1    @390115        20220131181E48022ZZ              CAVSAS-S 0.5X2 GY        CCN000000300000000300FN00000000020220101000000300NNE   20220107084123    1W    00000030000002561000000000032J1    UKYEL-BL000000000000KG321005
BI00B32J1    @390115        20220131181E48027ZZ              CAVSAS-S 0.5X2 GY/P      CCN000000300000000300FN00000000020220101000000300NNE   20220107084123    1W    00000030000002561000000000032J1    UKYEL-BL000000000000KG321006
BI00B32R4    HZYBW2203004   2022020818000004530              AV 8 B                   CCN000005000000005000FN00000000020220301000005000NNE   20220107105852    1W    00000010000010466200000000032R4    HYHZY   000000000000HZ421002
BI00B32R4    HZYBW2203004   20220208180D0203940              AVSSH 0.5F W             CCN000001500000001500FN00000000020220301000001500NNE   20220107105852    1W    00000150000000689000000000032R4    HYHZY   000000000000HZ421001
BI00B32W4    @4500186375    20220125181E50002ZZ              AVSSCS-S 0.3FX2 DGY/G    CCN000002800000002800FN00000000020220101000002800NNE   20220107104512W4591W    00000035000002165000000000032W459  HJYHK-J 000000000000OW221001
BI00B32W4    @4500186370    20220215181E50002ZZ              AVSSCS-S 0.3FX2 DGY/G    CCN000007000000007000FN00000000020220201000007000NNE   20220107104215W4591W    00000035000002165000000000032W459  HJYHK-J 000000000000OJ122001
BI00B32W4    4500186391     2022021518018403760              CAVS 0.3 G               CCN000002000000002000FN00000000020220201000002000NNE   20220107104224W41 1W    00000200000000471000000000032W41   HJYHK-J 000000000000OK122001
BI00B32W4    4500186391     2022021518018403930              CAVS 0.5 B               CCN000027000000027000FN00000000020220201000027000NNE   20220107104224W41 1W    00000150000000677000000000032W41   HJYHK-J 000000000000OK122002
BI00B32W4    4500186391     2022021518018403940              CAVS 0.5 W               CCN000007500000007500FN00000000020220201000007500NNE   20220107104224W41 1W    00000150000000677000000000032W41   HJYHK-J 000000000000OK122007
BI00B32W4    4500186391     2022021518018403941              CAVS 0.5 GY              CCN000003000000003000FN00000000020220201000003000NNE   20220107104224W41 1W    00000150000000677000000000032W41   HJYHK-J 000000000000OK122003
BI00B32W4    4500186391     2022021518018403950              CAVS 0.5 R               CCN000027000000027000FN00000000020220201000027000NNE   20220107104224W41 1W    00000150000000677000000000032W41   HJYHK-J 000000000000OK122006
BI00B32W4    4500186391     2022021518018403952              CAVS 0.5 P               CCN000006000000006000FN00000000020220201000006000NNE   20220107104224W41 1W    00000150000000677000000000032W41   HJYHK-J 000000000000OK122005
BI00B32W4    4500186391     2022021518018403970              CAVS 0.5 Y               CCN000006000000006000FN00000000020220201000006000NNE   20220107104224W41 1W    00000150000000677000000000032W41   HJYHK-J 000000000000OK122008
BI00B32W4    4500186391     2022021518018403990              CAVS 0.5 L               CCN000003000000003000FN00000000020220201000003000NNE   20220107104224W41 1W    00000150000000677000000000032W41   HJYHK-J 000000000000OK122004
BI00B32W4    4500186588     20220215180D0203930              AVSSH 0.5F B             CCN000003000000003000FN00000000020220201000003000NNE   20220107104226W41 1W    00000150000000689000000000032W41   HJYHK-J 000000000000OL122001
BI00B32W4    4500186588     20220215180D0203940              AVSSH 0.5F W             CCN000003000000003000FN00000000020220201000003000NNE   20220107104226W41 1W    00000150000000689000000000032W41   HJYHK-J 000000000000OL122003
BI00B32W4    4500186588     20220215180D0203960              AVSSH 0.5F G             CCN000003000000003000FN00000000020220201000003000NNE   20220107104226W41 1W    00000150000000689000000000032W41   HJYHK-J 000000000000OL122002
BI00B32W4    4500186588     20220215180D0203970              AVSSH 0.5F Y             CCN000003000000003000FN00000000020220201000003000NNE   20220107104226W41 1W    00000150000000689000000000032W41   HJYHK-J 000000000000OL122004
BI00B32W4    4500186592     2022021518018404141              CAVS 1.25 GY             CCN000000800000000800FN00000000020220201000000800NNE   20220107104228W41 1W    00000080000001378000000000032W41   HJYHK-J 000000000000OM122002
BI00B32W4    @4500186592    20220215181B09039H7              CAVSAS 0.5X1 GY/W        CCN000001200000001200FN00000000020220201000001200NNE   20220107104217W41 1W    00000040000002263300000000032W41   HJYHK-J 000000000000OM122001
BI00A32W4    @4500186472    20220303181D6910239              AVSSHCS 0.5FX2 B/L       CCN000001200000001200FN00000000020220301000001200NNE   20220107104233W4421W    00000030000002385000000000032W442  HJYHK-J 000000000000OP322001
BI00B32W4    @4500186536    20220301181B32037Y5              AVSSCS 0.3FX1 DGY/W      CCN000001000000001000FN00000000020220301000001000NNE   20220107104236W4171W    00000050000001780000000000032W417  HJYHK-J 000000000000OR422001
BI00B32W4    @4500186536    20220301181B32116S1              AVSSCS 0.3FX2 DGY        CCN000001750000001750FN00000000020220301000001750NNE   20220107104236W4171W    00000035000002276000000000032W417  HJYHK-J 000000000000OR422002
BI00B32W4    4500186755     2022012518009603930              AVS 0.5 B                CCN000003000000003000FN00000000020220101000003000NNE   20220107104842W42 1W    00000100000000850000000000032W42   HJYHK-J 000000000000OO221002
BI00B32W4    4500186755     2022012518009603940              AVS 0.5 W                CCN000001000000001000FN00000000020220101000001000NNE   20220107104842W42 1W    00000100000000850000000000032W42   HJYHK-J 000000000000OO221003
BI00B32W4    4500186755     2022012518009604030              AVS 0.85 B               CCN000004000000004000FN00000000020220101000004000NNE   20220107104842W42 1W    00000100000001167700000000032W42   HJYHK-J 000000000000OO221004
BI00B32W4    4500186755     2022012518009604090              AVS 0.85 L               CCN000001000000001000FN00000000020220101000001000NNE   20220107104842W42 1W    00000100000001167700000000032W42   HJYHK-J 000000000000OO221005
BI00B32W4    4500186755     2022012518009604040              AVS 0.85 W               CCN000001000000001000FN00000000020220101000001000NNE   20220107104842W42 1W    00000100000001167700000000032W42   HJYHK-J 000000000000OO221006
BI00B32W4    4500186755     2022012518009604130              AVS 1.25 B               CCN000002400000002400FN00000000020220101000002400NNE   20220107104842W42 1W    00000080000001643000000000032W42   HJYHK-J 000000000000OO221007
BI00B32W4    4500186755     2022012518009604230              AVS 2 B                  CCN000002000000002000FN00000000020220101000002000NNE   20220107104842W42 1W    00000050000002456500000000032W42   HJYHK-J 000000000000OO221008
BI00B32W4    4500186755     2022012518009604250              AVS 2 R                  CCN000003000000003000FN00000000020220101000003000NNE   20220107104842W42 1W    00000050000002456500000000032W42   HJYHK-J 000000000000OO221009
BI00B32W4    4500186755     2022012518009604330              AVS 3 B                  CCN000004400000004400FN00000000020220101000004400NNE   20220107104842W42 1W    00000040000003831600000000032W42   HJYHK-J 000000000000OO221010
BI00B32W4    4500186755     2022012518007704230              AVSS 2F B                CCN000000500000000500FN00000000020220101000000500NNE   20220107104842W42 1W    00000050000002126400000000032W42   HJYHK-J 000000000000OO221001
BI00B32W4    4500186755     2022012518018403930              CAVS 0.5 B               CCN000006000000006000FN00000000020220101000006000NNE   20220107104842W42 1W    00000150000000677000000000032W42   HJYHK-J 000000000000OO221011
BI00B32W4    4500186755     2022012518018403934              CAVS 0.5 B/W             CCN000012000000012000FN00000000020220101000012000NNE   20220107104842W42 1W    00000150000000677000000000032W42   HJYHK-J 000000000000OO221012
BI00B32W4    4500186755     2022012518018403960              CAVS 0.5 G               CCN000007500000007500FN00000000020220101000007500NNE   20220107104842W42 1W    00000150000000677000000000032W42   HJYHK-J 000000000000OO221013
BI00B32W4    4500186755     2022012518018403995              CAVS 0.5 L/R             CCN000004500000004500FN00000000020220101000004500NNE   20220107104842W42 1W    00000150000000677000000000032W42   HJYHK-J 000000000000OO221014
BI00B32W4    4500186755     2022012518018403951              CAVS 0.5 O               CCN000006000000006000FN00000000020220101000006000NNE   20220107104842W42 1W    00000150000000677000000000032W42   HJYHK-J 000000000000OO221015
BI00B32W4    4500186755     2022012518018403952              CAVS 0.5 P               CCN000006000000006000FN00000000020220101000006000NNE   20220107104842W42 1W    00000150000000677000000000032W42   HJYHK-J 000000000000OO221016
BI00B32W4    4500186755     2022012518018403954              CAVS 0.5 R/W             CCN000007500000007500FN00000000020220101000007500NNE   20220107104842W42 1W    00000150000000677000000000032W42   HJYHK-J 000000000000OO221017
BI00B32W4    4500186755     2022012518018403940              CAVS 0.5 W               CCN000007500000007500FN00000000020220101000007500NNE   20220107104842W42 1W    00000150000000677000000000032W42   HJYHK-J 000000000000OO221018
BI00B32W4    4500186755     2022012518018403943              CAVS 0.5 W/B             CCN000004500000004500FN00000000020220101000004500NNE   20220107104842W42 1W    00000150000000677000000000032W42   HJYHK-J 000000000000OO221019
BI00B32W4    4500186755     2022012518018403970              CAVS 0.5 Y               CCN000006000000006000FN00000000020220101000006000NNE   20220107104842W42 1W    00000150000000677000000000032W42   HJYHK-J 000000000000OO221020
BI00B32W4    4500186755     2022012518018403975              CAVS 0.5 Y/R             CCN000001500000001500FN00000000020220101000001500NNE   20220107104842W42 1W    00000150000000677000000000032W42   HJYHK-J 000000000000OO221021
BI00B32W4    4500186755     2022012518018404130              CAVS 1.25 B              CCN000015200000015200FN00000000020220101000015200NNE   20220107104842W42 1W    00000080000001378000000000032W42   HJYHK-J 000000000000OO221022
BI00B32W4    4500186755     2022012518018404160              CAVS 1.25 G              CCN000000800000000800FN00000000020220101000000800NNE   20220107104842W42 1W    00000080000001378000000000032W42   HJYHK-J 000000000000OO221023
BI00B32W4    4500186755     2022012518018404190              CAVS 1.25 L              CCN000000800000000800FN00000000020220101000000800NNE   20220107104842W42 1W    00000080000001378000000000032W42   HJYHK-J 000000000000OO221024
BI00B32W4    4500186755     2022012518018404150              CAVS 1.25 R              CCN000000800000000800FN00000000020220101000000800NNE   20220107104842W42 1W    00000080000001378000000000032W42   HJYHK-J 000000000000OO221025
BI00B32W4    4500186755     2022012518018404140              CAVS 1.25 W              CCN000002400000002400FN00000000020220101000002400NNE   20220107104842W42 1W    00000080000001378000000000032W42   HJYHK-J 000000000000OO221026
BI00B32W4    4500186887     2022012518009603930              AVS 0.5 B                CCN000007000000007000FN00000000020220101000007000NNE   20220107104843W42 1W    00000100000000850000000000032W42   HJYHK-J 000000000000OP221002
BI00B32W4    4500186887     2022012518009603960              AVS 0.5 G                CCN000001000000001000FN00000000020220101000001000NNE   20220107104843W42 1W    00000100000000850000000000032W42   HJYHK-J 000000000000OP221003
BI00B32W4    4500186887     2022012518009603990              AVS 0.5 L                CCN000001000000001000FN00000000020220101000001000NNE   20220107104843W42 1W    00000100000000850000000000032W42   HJYHK-J 000000000000OP221004
BI00B32W4    4500186887     2022012518009603997              AVS 0.5 L/Y              CCN000001000000001000FN00000000020220101000001000NNE   20220107104843W42 1W    00000100000000850000000000032W42   HJYHK-J 000000000000OP221005
BI00B32W4    4500186887     2022012518009603950              AVS 0.5 R                CCN000001000000001000FN00000000020220101000001000NNE   20220107104843W42 1W    00000100000000850000000000032W42   HJYHK-J 000000000000OP221006
BI00B32W4    4500186887     2022012518009603954              AVS 0.5 R/W              CCN000001000000001000FN00000000020220101000001000NNE   20220107104843W42 1W    00000100000000850000000000032W42   HJYHK-J 000000000000OP221007
BI00B32W4    4500186887     2022012518009603940              AVS 0.5 W                CCN000005000000005000FN00000000020220101000005000NNE   20220107104843W42 1W    00000100000000850000000000032W42   HJYHK-J 000000000000OP221008
BI00B32W4    4500186887     2022012518009604030              AVS 0.85 B               CCN000017000000017000FN00000000020220101000017000NNE   20220107104843W42 1W    00000100000001167700000000032W42   HJYHK-J 000000000000OP221009
BI00B32W4    4500186887     2022012518009604041              AVS 0.85 GY              CCN000001000000001000FN00000000020220101000001000NNE   20220107104843W42 1W    00000100000001167700000000032W42   HJYHK-J 000000000000OP221010
BI00B32W4    4500186887     2022012518009604090              AVS 0.85 L               CCN000006000000006000FN00000000020220101000006000NNE   20220107104843W42 1W    00000100000001167700000000032W42   HJYHK-J 000000000000OP221011
BI00B32W4    4500186887     2022012518009604052              AVS 0.85 P               CCN000001000000001000FN00000000020220101000001000NNE   20220107104843W42 1W    00000100000001167700000000032W42   HJYHK-J 000000000000OP221012
BI00B32W4    4500186887     2022012518009604050              AVS 0.85 R               CCN000004000000004000FN00000000020220101000004000NNE   20220107104843W42 1W    00000100000001167700000000032W42   HJYHK-J 000000000000OP221013
BI00B32W4    4500186887     2022012518009604040              AVS 0.85 W               CCN000005000000005000FN00000000020220101000005000NNE   20220107104843W42 1W    00000100000001167700000000032W42   HJYHK-J 000000000000OP221014
BI00B32W4    4500186887     2022012518009604070              AVS 0.85 Y               CCN000001000000001000FN00000000020220101000001000NNE   20220107104843W42 1W    00000100000001167700000000032W42   HJYHK-J 000000000000OP221015
BI00B32W4    4500186887     2022012518009604130              AVS 1.25 B               CCN000005600000005600FN00000000020220101000005600NNE   20220107104843W42 1W    00000080000001643000000000032W42   HJYHK-J 000000000000OP221016
BI00B32W4    4500186887     2022012518009604230              AVS 2 B                  CCN000002500000002500FN00000000020220101000002500NNE   20220107104843W42 1W    00000050000002456500000000032W42   HJYHK-J 000000000000OP221017
BI00B32W4    4500186887     2022012518009604250              AVS 2 R                  CCN000002500000002500FN00000000020220101000002500NNE   20220107104843W42 1W    00000050000002456500000000032W42   HJYHK-J 000000000000OP221018
BI00B32W4    4500186887     2022012518009604240              AVS 2 W                  CCN000000500000000500FN00000000020220101000000500NNE   20220107104843W42 1W    00000050000002456500000000032W42   HJYHK-J 000000000000OP221019
BI00B32W4    4500186887     2022012518009604330              AVS 3 B                  CCN000004000000004000FN00000000020220101000004000NNE   20220107104843W42 1W    00000040000003831600000000032W42   HJYHK-J 000000000000OP221020
BI00B32W4    4500186887     2022012518007704230              AVSS 2F B                CCN000000500000000500FN00000000020220101000000500NNE   20220107104843W42 1W    00000050000002126400000000032W42   HJYHK-J 000000000000OP221001
BI00B32W4    4500186887     2022012518018403730              CAVS 0.3 B               CCN000010000000010000FN00000000020220101000010000NNE   20220107104843W42 1W    00000200000000471000000000032W42   HJYHK-J 000000000000OP221021
BI00B32W4    4500186887     2022012518018403734              CAVS 0.3 B/W             CCN000006000000006000FN00000000020220101000006000NNE   20220107104843W42 1W    00000200000000471000000000032W42   HJYHK-J 000000000000OP221022
BI00B32W4    4500186887     2022012518018403756              CAVS 0.3 R/G             CCN000002000000002000FN00000000020220101000002000NNE   20220107104843W42 1W    00000200000000471000000000032W42   HJYHK-J 000000000000OP221023
BI00B32W4    4500186887     2022012518018403930              CAVS 0.5 B               CCN000006000000006000FN00000000020220101000006000NNE   20220107104843W42 1W    00000150000000677000000000032W42   HJYHK-J 000000000000OP221024
BI00B32W4    4500186887     2022012518018403939              CAVS 0.5 B/L             CCN000003000000003000FN00000000020220101000003000NNE   20220107104843W42 1W    00000150000000677000000000032W42   HJYHK-J 000000000000OP221025
BI00B32W4    4500186887     2022012518018403934              CAVS 0.5 B/W             CCN000004500000004500FN00000000020220101000004500NNE   20220107104843W42 1W    00000150000000677000000000032W42   HJYHK-J 000000000000OP221026
BI00B32W4    4500186887     2022012518018403987              CAVS 0.5 BR/Y            CCN000001500000001500FN00000000020220101000001500NNE   20220107104843W42 1W    00000150000000677000000000032W42   HJYHK-J 000000000000OP221027
BI00B32W4    4500186887     2022012518018403960              CAVS 0.5 G               CCN000003000000003000FN00000000020220101000003000NNE   20220107104843W42 1W    00000150000000677000000000032W42   HJYHK-J 000000000000OP221028
BI00B32W4    4500186887     2022012518018403990              CAVS 0.5 L               CCN000001500000001500FN00000000020220101000001500NNE   20220107104843W42 1W    00000150000000677000000000032W42   HJYHK-J 000000000000OP221029
BI00B32W4    4500186887     2022012518018403995              CAVS 0.5 L/R             CCN000004500000004500FN00000000020220101000004500NNE   20220107104843W42 1W    00000150000000677000000000032W42   HJYHK-J 000000000000OP221030
BI00B32W4    4500186887     2022012518018403994              CAVS 0.5 L/W             CCN000003000000003000FN00000000020220101000003000NNE   20220107104843W42 1W    00000150000000677000000000032W42   HJYHK-J 000000000000OP221031
BI00B32W4    4500186887     2022012518018403997              CAVS 0.5 L/Y             CCN000006000000006000FN00000000020220101000006000NNE   20220107104843W42 1W    00000150000000677000000000032W42   HJYHK-J 000000000000OP221032
BI00B32W4    4500186887     2022012518018403961              CAVS 0.5 LG              CCN000001500000001500FN00000000020220101000001500NNE   20220107104843W42 1W    00000150000000677000000000032W42   HJYHK-J 000000000000OP221033
BI00B32W4    4500186887     2022012518018403951              CAVS 0.5 O               CCN000003000000003000FN00000000020220101000003000NNE   20220107104843W42 1W    00000150000000677000000000032W42   HJYHK-J 000000000000OP221034
BI00B32W4    4500186887     2022012518018403950              CAVS 0.5 R               CCN000006000000006000FN00000000020220101000006000NNE   20220107104843W42 1W    00000150000000677000000000032W42   HJYHK-J 000000000000OP221035
BI00B32W4    4500186887     2022012518018403956              CAVS 0.5 R/G             CCN000003000000003000FN00000000020220101000003000NNE   20220107104843W42 1W    00000150000000677000000000032W42   HJYHK-J 000000000000OP221036
BI00B32W4    4500186887     2022012518018403957              CAVS 0.5 R/Y             CCN000001500000001500FN00000000020220101000001500NNE   20220107104843W42 1W    00000150000000677000000000032W42   HJYHK-J 000000000000OP221037
BI00B32W4    4500186887     2022012518018403992              CAVS 0.5 V               CCN000004500000004500FN00000000020220101000004500NNE   20220107104843W42 1W    00000150000000677000000000032W42   HJYHK-J 000000000000OP221038
BI00B32W4    4500186887     2022012518018403940              CAVS 0.5 W               CCN000004500000004500FN00000000020220101000004500NNE   20220107104843W42 1W    00000150000000677000000000032W42   HJYHK-J 000000000000OP221039
BI00B32W4    4500186887     2022012518018403943              CAVS 0.5 W/B             CCN000004500000004500FN00000000020220101000004500NNE   20220107104843W42 1W    00000150000000677000000000032W42   HJYHK-J 000000000000OP221040
BI00B32W4    4500186887     2022012518018403949              CAVS 0.5 W/L             CCN000001500000001500FN00000000020220101000001500NNE   20220107104843W42 1W    00000150000000677000000000032W42   HJYHK-J 000000000000OP221041
BI00B32W4    4500186887     2022012518018403945              CAVS 0.5 W/R             CCN000007500000007500FN00000000020220101000007500NNE   20220107104843W42 1W    00000150000000677000000000032W42   HJYHK-J 000000000000OP221042
BI00B32W4    4500186887     2022012518018403975              CAVS 0.5 Y/R             CCN000003000000003000FN00000000020220101000003000NNE   20220107104843W42 1W    00000150000000677000000000032W42   HJYHK-J 000000000000OP221043
BI00B32W4    4500186887     2022012518018404030              CAVS 0.85 B              CCN000001000000001000FN00000000020220101000001000NNE   20220107104843W42 1W    00000100000000965000000000032W42   HJYHK-J 000000000000OP221044
BI00B32W4    4500186887     2022012518018404130              CAVS 1.25 B              CCN000004800000004800FN00000000020220101000004800NNE   20220107104843W42 1W    00000080000001378000000000032W42   HJYHK-J 000000000000OP221045
BI00B32W4    4500186887     2022012518018404160              CAVS 1.25 G              CCN000000800000000800FN00000000020220101000000800NNE   20220107104843W42 1W    00000080000001378000000000032W42   HJYHK-J 000000000000OP221046
BI00B32W4    4500186887     2022012518018404190              CAVS 1.25 L              CCN000001600000001600FN00000000020220101000001600NNE   20220107104843W42 1W    00000080000001378000000000032W42   HJYHK-J 000000000000OP221047
BI00B32W4    4500186887     2022012518018404150              CAVS 1.25 R              CCN000000800000000800FN00000000020220101000000800NNE   20220107104843W42 1W    00000080000001378000000000032W42   HJYHK-J 000000000000OP221048
BI00B32W4    4500186887     2022012518018404140              CAVS 1.25 W              CCN000000800000000800FN00000000020220101000000800NNE   20220107104843W42 1W    00000080000001378000000000032W42   HJYHK-J 000000000000OP221049
BI00B32W9    4500186762     2022012518009604459              AVS 5 R/L                CCN000000200000000200FN00000000020220101000000200NNE   20220107104911W93 1W    00000020000005981000000000032W93   HKYHK   000000000000ZE221001
BI00B32Y6    @STAC32051     20220203181AD2017ZZ              CIVUSAS-S 0.22X3 B       CCN000021930000021930FN00000000020220501000021930NNE   20220107105947    1W    00000043000001678200000000032Y6    BSYBL-S 000000000000KH321010
