BI00B1200    2399T51730     202201077289-6547                HOUSING FEMALE ASS'Y     CCN000139200000093600FY00009360020210901000000000NNM00020220114102644    1N0N  0000024000000115200000136201200    YCYC    005500360039
BI00A1200    2399T51A21     202201177289-3342-30             HOUSING FEMALE ASS'Y     CCN000009600000009600FN00000000020211201000009600NNMD0420220114151719    1N0N  0000024000000068640000090141200    YCYC    005500360039
BI00A1200    7360T51A02     202201177289-3342-30             HOUSING FEMALE ASS'Y     CCN000040800000009600FN00000000020211201000009600NNMQ0420220114141333    1N0N  0000024000000068640000090141200    YCYC    005500360039
BI00A1200    7360T51A03     202201257289-3342-30             HOUSING FEMALE ASS'Y     CCN000040800000019200FN00000000020211201000019200NNMQ0420220114141333    1N0N  0000024000000068640000090141200    YCYC    005500360039
BI00A1200    7360T51A02     202201207289-3342-30             HOUSING FEMALE ASS'Y     CCN000021600000021600FN00000000020211201000021600NNMD0420220114141333    1N0N  0000024000000068640000090141200    YCYC    005500360039
BI00A1200    7360T51A03     202201277289-3342-30             HOUSING FEMALE ASS'Y     CCN000021600000021600FN00000000020211201000021600NNMD0420220114141333    1N0N  0000024000000068640000090141200    YCYC    005500360039
BI00B1200    8640T51B02     202201207289-3342-30             HOUSING FEMALE ASS'Y     CCN000002400000002400FN00000000020220101000002400NNE00020220114154150    1N0N  0000024000000068640000090141200    YCYC    005500360039
BI00A1200    7360T52103     202201177289-3342-30             HOUSING FEMALE ASS'Y     CCN000014400000014400FN00000000020220301000014400NNMD0420220114141333    1N0N  0000024000000068640000090141200    YCYC    005500360039
BI00B1200    7360T52106     202201207288-6598-70             HOUSING MALE ASS'Y       CCN000004320000004320FN00000000020220201000004320NNE00020220114154239    4N0N  0000014400000107420000142921200    YCYC    005500360039
BI00B1200    Y022D50033     202203247288-9556-30             SEALED ASSY MALE         CCN000000720000000720FN00000000020220401000000720NNM   20220114123002    4N0N  0000007200000053790000078631200    YCYC    005500360039
BI00B1200    2399T51730     202201177289-6547                HOUSING FEMALE ASS'Y     CCN000057600000057600FN00000000020210901000057600NNMD0020220114123002    1N0N  0000024000000115200000136201200    YCYC    005500360039
BI00A1200    QA-22-C003     202201187289-0269                HOUSING SUB ASSEMBLY     PNN000016000000016000FN00000000020220101000016000NNE   20220114165547    1N0N  0000016000000100210000123451200    YCYC    005500360039
BI00A1200    QA-22-C003     202201207289-0269                HOUSING SUB ASSEMBLY     PNN000019200000019200FN00000000020220101000019200NNE   20220114165547    1N0N  0000016000000100210000123451200    YCYC    005500360039
BI00A32AG    XG22022CMW     202202047327-6870-30             MULTI FUSE               CCN000000288000000000FY00000000020220201000000000NNMQ0820220114085058    4N0N  00000028800001015200001181132AG    XGXGY   005400370024
BI00A32AG    XG22023CMW     202202047327-6870-30             MULTI FUSE               CCN000002592000000000FY00000000020220201000000000NNMQ0820220114085118    4N0N  00000028800001015200001181132AG    XGXGY   005400370024
BI00B32AG    XG22031CMW     202201287327-6870-30             MULTI FUSE               CCN000006912000000000FY00000000020220301000000000NNMQ0820220114085032    4N0N  00000028800001015200001181132AG    XGXGY   005400370024
BI00B32AG    XG22032CMW     202202047327-6870-30             MULTI FUSE               CCN000002592000000000FY00000000020220301000000000NNMQ0820220114085137    4N0N  00000028800001015200001181132AG    XGXGY   005400370024
BI00B32AG    XG22033CMW     202202117327-6870-30             MULTI FUSE               CCN000002592000000000FY00000000020220301000000000NNMQ0820220114085155    4N0N  00000028800001015200001181132AG    XGXGY   005400370024
BI00B32AG    XG22034CMW     202202187327-6870-30             MULTI FUSE               CCN000000576000000000FY00000000020220301000000000NNMQ0820220114085210    4N0N  00000028800001015200001181132AG    XGXGY   005400370024
BI00B32AG    XG22035CMW     202202257327-6870-30             MULTI FUSE               CCN000002880000000000FY00000000020220301000000000NNMQ0820220114085223    4N0N  00000028800001015200001181132AG    XGXGY   005400370024
BI00B32AG    XG2202ACMW     202203047327-6870-30             MULTI FUSE               CCN000004320000000000FY00000000020220201000000000NNEQ0820220114085241    4N0N  00000028800001015200001181132AG    XGXGY   005400370024
BI00A32A7    ZZ22014LMW     202201247172-5403-30             SEALED PACKING           PCN000016000000016000FN00000000020220101000016000NNMD0420220114142016    1C0C  00000400000000653600000701732A7    ZZZZY   004300270014
BI00B32CA    PTA32071       202204077289-3342                HOUSING FEMALE ASS'Y     CCN000031200000031200FN00000000020220701000031200NNMD0420220114123002    1N0N  00000240000000686400000901432CA    YPYPY   005500360039
BI00B32CA    PTA32071       202204077289-3342-30             HOUSING FEMALE ASS'Y     CCN000040800000040800FN00000000020220701000040800NNMD0420220114123002    1N0N  00000240000000686400000901432CA    YPYPY   005500360039
BI00B32CA    PTA32071       202204077289-3342-90             HOUSING FEMALE ASS'Y     CCN000014400000014400FN00000000020220701000014400NNMD0420220114123002    1N0N  00000240000000686400000901432CA    YPYPY   005500360039
BI00A32CH    SJ21124HMW     202201257327-6870-30             MULTI FUSE               PCN000007776000004032FN00000000020211201000004032NNM00020220114142118    4N0N  00000028800001015200001181132CH    SJSAMIJF005400370024
BI00A32CH    SJ21124HMW     202201257327-6874-30             MULTI FUSE               PCN000007200000003456FN00000000020211201000003456NNM00020220114142118    4N0N  00000028800000991400001157332CH    SJSAMIJF005400370024
BI00A32CH    SJ21124HMW     202201257327-6884-30             MULTI FUSE               PCN000008352000006624FN00000000020211201000006624NNM00020220114142118    4N0N  00000028800000988900001154832CH    SJSAMIJF005400370024
BI00B32CH    SJ2202BHMW     202201277327-6908                MAIN FUSE                CCN000000600000000600FN00000000020220201000000600NNE   20220114123002    4N0N  00000060000000730400000915432CH    SJSAMIJF005400370024
BI00B32CH    SJ2202BHMW     202201277327-6939-30             MULTI FUSE               CCN000000576000000576FN00000000020220201000000576NNE   20220114123002    4N00  00000028800000992200001158132CH    SJSAMIJF005400370024
BI00B32CH    SJ2202BHMW     202201277327-6941-30             MULTI FUSE               CCN000000576000000576FN00000000020220201000000576NNE   20220114123002    4N00  00000028800001014400001180332CH    SJSAMIJF005400370024
BI00B32DE    TCT203B        202202177114-4112-02             TERMINAL                 CCN000009000000009000FN00000000020220301000009000NNE   20220114123002    4P0P  00000900000000598500000927132DE    TVYEV-TV006400630017
BI00B32DE    TCT203B        202202177114-5748-02             TERMINAL                 CCN000012000000012000FN00000000020220301000012000NNE   20220114123002    4P0P  00001200000000444000000737632DE    TVYEV-TV006400630015
BI00B32DE    TCT203B        202202177116-1685-02             TERMINAL                 CCN000144000000144000FN00000000020220301000144000NNE   20220114123002    4P0P  00002400000000897600001065232DE    TVYEV-TV005100280028
BI00B32DE    TCT203B        202202177116-1686-02             TERMINAL                 CCN000021000000021000FN00000000020220301000021000NNE   20220114123002    4P0P  00002100000000869400001021632DE    TVYEV-TV005100280028
BI00B32DE    TCT203B        202202177116-1688-02             TERMINAL FEMALE          CCN000021000000021000FN00000000020220301000021000NNE   20220114123002    4P0P  00002100000000299600000898832DE    TVYEV-TV005100280028
BI00B32DE    TCT203B        202202177116-2891-02             TERMINAL                 CCN000030000000030000FN00000000020220301000030000NNE   20220114123002    4P0P  00001500000000982500001145932DE    TVYEV-TV005100280028
BI00B32DE    TCT203B        202202177116-2892-02             TERMINAL                 CCN000048000000048000FN00000000020220301000048000NNE   20220114123002    4P0P  00001200000000818400000981832DE    TVYEV-TV005100280028
BI00B32DE    TCT203B        202202177116-2893-02             TERMINAL                 CCN000072000000072000FN00000000020220301000072000NNE   20220114123002    4P0P  00001200000000895200001058632DE    TVYEV-TV005100280028
BI00B32DE    TCT203B        202202177116-4025                TERMINAL                 CCN000064000000064000FN00000000020220301000064000NNE   20220114123002    4P0P  00001600000000644800000975132DE    TVYEV-TV006400630017
BI00B32DE    TCT203B        202202177116-4114-02             TERMINAL                 CCN000010500000010500FN00000000020220301000010500NNE   20220114123002    4P0P  00001050000000693000000981232DE    TVYEV-TV006400630015
BI00B32DE    TCT203B        202202177116-4115-02             TERMINAL                 CCN000008400000008400FN00000000020220301000008400NNE   20220114123002    4P0P  00000840000000593000000881232DE    TVYEV-TV006400630015
BI00B32DE    TCT203B        202202177116-4416-02             TERMINAL                 CCN000032000000032000FN00000000020220301000032000NNE   20220114123002    4P0P  00003200000000518400000847132DE    TVYEV-TV006400630017
BI00B32DE    TCT203B        202202177116-5045-02             TERMINAL                 CCN000032000000032000FN00000000020220301000032000NNE   20220114123002    4P0P  00001600000000678400001007132DE    TVYEV-TV006400630017
BI00B32DE    TCT203B        202202177116-5752-02             TERMINAL                 CCN000021000000021000FN00000000020220301000021000NNE   20220114123002    4P0P  00002100000000571200000856432DE    TVYEV-TV006400630015
BI00B32DE    TCT203B        202202177126-8853-02             TERMINAL                 CCN000045000000045000FN00000000020220301000045000NNE   20220114123002    4P0P  00000750000000562500000847732DE    TVYEV-TV006400630015
BI00B32DE    TCT203B        202202177126-8855-02             TERMINAL                 CCN000054000000054000FN00000000020220301000054000NNE   20220114123002    4P0P  00000600000000510600000795832DE    TVYEV-TV006400630015
BI00B32DE    TCT203B        202202177158-3006-90             RUBBER STOPPER           CCN000100000000100000FN00000000020220301000100000NNE   20220114123002    1C0C  00002000000000330600000386032DE    TVYEV-TV002700430014
BI00B32DE    TCT203B        202202177158-3167-80             WIRE SEAL                CCN000020000000020000FN00000000020220301000020000NNE   20220114123002    1C0C  00002000000000048000000109032DE    TVYEV-TV002700430014
BI00B32DE    TCT203B        202202177195-1479-02             TERMINAL MALE            CCN000024000000024000FN00000000020220301000024000NNE   20220114123002    4P0P  00002400000000420000000714232DE    TVYEV-TV006400630015
BI00B32DE    TCT203B        202202177196-1103-02             TERMINAL                 CCN000022500000022500FN00000000020220301000022500NNE   20220114123002    4P0P  00002250000000429800000715032DE    TVYEV-TV006400630015
BI00B32DE    TCT203B        202202177196-1481-02             TERMINAL FEMALE          CCN000072000000072000FN00000000020220301000072000NNE   20220114123002    4P0P  00002400000000422400000707632DE    TVYEV-TV006400630015
BI00B32DE    TCT203B        202202177196-1934-02             TERMINAL FEMALE          CCN000019500000019500FN00000000020220301000019500NNE   20220114123002    4P0P  00001950000000561600000846832DE    TVYEV-TV006400630015
BI00B32DE    TCT203B        202202177196-1936-02             TERMINAL FEMALE          CCN000013500000013500FN00000000020220301000013500NNE   20220114123002    4P0P  00001350000000441500000726732DE    TVYEV-TV006400630015
BI00B32DE    TCT203B        202202177196-1939-02             TERMINAL FEMALE          CCN000015000000015000FN00000000020220301000015000NNE   20220114123002    4P0P  00001500000000574500000862732DE    TVYEV-TV006400630015
BI00B32DE    TCT203B        202202177283-1288-10             CONNECTOR HOUSING        CCN000007200000007200FN00000000020220301000007200NNE   20220114123002    4N0N  00000120000001381000001637032DE    TVYEV-TV005600390040
BI00B32DE    TCT203B        202202177283-5846                HOUSING                  CCN000001500000001500FN00000000020220301000001500NNE   20220114123002    1N0N  00000150000000885000001102032DE    TVYEV-TV005600390040
BI00B32DE    TCT203B        202202177283-7526-30             CONNECTOR HOUSING        CCN000001960000001960FN00000000020220301000001960NNE   20220114123002    4N0N  00000196000000989800001248632DE    TVYEV-TV005500360039
BI00B32DE    TCT203B        202202177283-8228-40             CONNECTOR                CCN000003000000003000FN00000000020220301000003000NNE   20220114123002    4N0N  00000300000001215000001361032DE    TVYEV-TV005600390040
BI00B32DE    TCT203B        202202177287-1915-40             CONNECTOR ASS'Y          CCN000002400000002400FN00000000020220301000002400NNE   20220114123002    4N0N  00000240000000666500000923132DE    TVYEV-TV005500360039
BI00B32DE    TCT203B        202202177287-9234                JOINT CONNECTOR          CCN000019200000019200FN00000000020220301000019200NNE   20220114123002    4N0N  00000960000000893800001184832DE    TVYEV-TV005500360039
BI00B32DE    TCT203B        202202177288-3335-30             HOUSING MALE             CCN000001500000001500FN00000000020220301000001500NNE   20220114123002    4N0N  00000150000000867000001012032DE    TVYEV-TV005400370024
BI00B32DE    TCT203B        202202177289-3342-30             HOUSING FEMALE ASS'Y     CCN000004800000004800FN00000000020220301000004800NNE   20220114123002    1N0N  00000240000000686400000901432DE    TVYEV-TV005500360039
BI00B32DE    TCT203B        202202177289-3342-90             HOUSING FEMALE ASS'Y     CCN000002400000002400FN00000000020220301000002400NNE   20220114123002    1N0N  00000240000000686400000901432DE    TVYEV-TV005500360039
BI00B32DE    TCT203B        202202177382-1481-10             CONNECTOR                CCN000006400000006400FN00000000020220301000006400NNE   20220114123002    4N0N  00000080000001025000001183032DE    TVYEV-TV005600390040
BI00B32DE    #TCT203B       202202177154-5597-30             CASSETTE R/B             CCN000001600000001600FN00000000020220301000001600NNE   20220114123002    2F0F  00000080000000736000000952032DE    TVYEV-TV005500360039
BI00B32DE    #TCT203B       202202177158-3003-90             RUBBER STOPPER           CCN000100000000100000FN00000000020220301000100000NNE   20220114123002    2C0C  00002000000000250000000306032DE    TVYEV-TV002700430014
BI00B32DE    #TCT203B       202202177198-4980-30             HOUSING FEMALE           CCN000001200000001200FN00000000020220301000001200NNE   20220114123002    2F0F  00000120000000840000000921032DE    TVYEV-TV005400370024
BI00B32D1    DFTC2215       202203107288-6547                CONNECTOR MALE ASS'Y     CCN000005250000005250FN00000000020220401000005250NNMD0420220114123002    4N0N  00000075000001205300001340332D1    TOYOT-K 005400370024
BI00B32D1    DFTC2215       202203107289-3342                HOUSING FEMALE ASS'Y     CCN000016800000016800FN00000000020220401000016800NNMD0420220114123002    1N0N  00000240000000686400000901432D1    TOYOT-K 005500360039
BI00B32D1    DFTC2215       202202247289-3342-30             HOUSING FEMALE ASS'Y     CCN000038400000038400FN00000000020220401000038400NNMD0420220114123002    1N0N  00000240000000686400000901432D1    TOYOT-K 005500360039
BI00B32D1    DFTC2215       202203107289-3342-40             HOUSING FEMALE ASS'Y     CCN000004800000004800FN00000000020220401000004800NNMD0420220114123002    1N0N  00000240000000686400000901432D1    TOYOT-K 005500360039
BI00B32D1    DFTC2215       202202247289-3342-90             HOUSING FEMALE ASS'Y     CCN000002400000002400FN00000000020220401000002400NNMD0420220114123002    1N0N  00000240000000686400000901432D1    TOYOT-K 005500360039
BI00B32D2    DGTC2209       202201127158-3070-80             RUBBER STOPPER           CCN000040000000040000FY00004000020220301000000000NNM00020220114134909    1C0C  00004000000000276000000333332D2    TGYOT-G 002700430014
BI00B32D2    DGTC2209       202201127158-3166-60             WIRE SEAL                CCN000160000000160000FY00016000020220301000000000NNM00020220114134923    1C0C  00004000000000104000000152432D2    TGYOT-G 002700430014
BI00B32D2    DGTC2215       202202177017-1181-02             TERMINAL                 CCN000063000000063000FN00000000020220401000063000NNM   20220114123002    4P0P  00006300000001089900001266832D2    TGYOT-G 005100280028
BI00B32D2    DGTC2215       202202177114-4032                TERMINAL                 CCN000015000000015000FN00000000020220401000015000NNM   20220114123002    4P0P  00000750000000735000001063632D2    TGYOT-G 006400630017
BI00B32D2    DGTC2215       202202177114-5748-02             TERMINAL                 CCN000024000000024000FN00000000020220401000024000NNM   20220114123002    4P0P  00001200000000444000000737632D2    TGYOT-G 006400630015
BI00B32D2    DGTC2215       202202177114-5753-02             TERMINAL                 CCN000081000000081000FN00000000020220401000081000NNM   20220114123002    4P0P  00002700000000847800001141432D2    TGYOT-G 006400630015
BI00B32D2    DGTC2215       202202177116-2891-02             TERMINAL                 CCN000015000000015000FN00000000020220401000015000NNM   20220114123002    4P0P  00001500000000982500001145932D2    TGYOT-G 005100280028
BI00B32D2    DGTC2215       202202177116-4486-02             TERMINAL                 CCN000084000000084000FN00000000020220401000084000NNM   20220114123002    4P0P  00002800000000666400000995132D2    TGYOT-G 006400630017
BI00B32D2    DGTC2215       202202177116-5045-02             TERMINAL                 CCN000016000000016000FN00000000020220401000016000NNM   20220114123002    4P0P  00001600000000678400001007132D2    TGYOT-G 006400630017
BI00B32D2    DGTC2215       202202177116-5046-02             TERMINAL                 CCN000024000000024000FN00000000020220401000024000NNM   20220114123002    4P0P  00001200000000544800000873532D2    TGYOT-G 006400630017
BI00B32D2    DGTC2215       202202177116-6042                TERMINAL                 CCN000027000000027000FN00000000020220401000027000NNM   20220114123002    4P0P  00000300000000523800000856132D2    TGYOT-G 006400630015
BI00B32D2    DGTC2215       202202177126-8853-02             TERMINAL                 CCN000037500000037500FN00000000020220401000037500NNM   20220114123002    4P0P  00000750000000562500000847732D2    TGYOT-G 006400630015
BI00B32D2    DGTC2215       202202177126-8854-02             TERMINAL                 CCN000045000000045000FN00000000020220401000045000NNM   20220114123002    4P0P  00000750000000604500000889732D2    TGYOT-G 006400630015
BI00B32D2    DGTC2215       202202177126-8855-02             TERMINAL                 CCN000054000000054000FN00000000020220401000054000NNM   20220114123002    4P0P  00000600000000510600000795832D2    TGYOT-G 006400630015
BI00B32D2    DGTC2215       202202177158-3167-80             WIRE SEAL                CCN000060000000060000FN00000000020220401000060000NNM   20220114123002    1C0C  00002000000000048000000109032D2    TGYOT-G 002700430014
BI00B32D2    DGTC2215       202202177173-3291-40             LIF LEVER                CCN000004800000004800FN00000000020220401000004800NNM   20220114123002    1F0F  00000240000000867800001067832D2    TGYOT-G 005500360039
BI00B32D2    DGTC2215       202202177196-1325-02             TERMINAL FEMALE          CCN000180000000180000FN00000000020220401000180000NNM   20220114123002    4P0P  00006000000000450000000778732D2    TGYOT-G 006400630017
BI00B32D2    DGTC2215       202202177196-1326-02             TERMINAL FEMALE          CCN000420000000420000FN00000000020220401000420000NNM   20220114123002    4P0P  00006000000000456000000784732D2    TGYOT-G 006400630017
BI00B32D2    DGTC2215       202202177196-1327-02             TERMINAL FEMALE          CCN000052000000052000FN00000000020220401000052000NNM   20220114123002    4P0P  00005200000000336000000739532D2    TGYOT-G 006400630017
BI00B32D2    DGTC2215       202202177283-1968-30             CONNECTOR                CCN000000900000000900FN00000000020220401000000900NNM   20220114123002    1N0N  00000090000001140000001318332D2    TGYOT-G 005600390040
BI00B32D2    DGTC2215       202202177283-6388-40             CONNECTOR                CCN000002000000002000FN00000000020220401000002000NNM   20220114123002    4N0N  00000200000001029000001173532D2    TGYOT-G 005500360039
BI00B32D2    DGTC2215       202202177288-6547                CONNECTOR MALE ASS'Y     CCN000006000000006000FN00000000020220401000006000NNM   20220114123002    4N0N  00000075000001205300001340332D2    TGYOT-G 005400370024
BI00B32D2    DGTC2215       202202177289-3342                HOUSING FEMALE ASS'Y     CCN000031200000031200FN00000000020220401000031200NNM   20220114123002    1N0N  00000240000000686400000901432D2    TGYOT-G 005500360039
BI00B32D2    DGTC2215       202202177289-3342-30             HOUSING FEMALE ASS'Y     CCN000007200000007200FN00000000020220401000007200NNM   20220114123002    1N0N  00000240000000686400000901432D2    TGYOT-G 005500360039
BI00B32D2    DGTC2215       202202177289-3342-40             HOUSING FEMALE ASS'Y     CCN000009600000009600FN00000000020220401000009600NNM   20220114123002    1N0N  00000240000000686400000901432D2    TGYOT-G 005500360039
BI00B32D2    DGTC2215       202202177289-3342-90             HOUSING FEMALE ASS'Y     CCN000012000000012000FN00000000020220401000012000NNM   20220114123002    1N0N  00000240000000686400000901432D2    TGYOT-G 005500360039
BI00B32D2    DGTC2215       202202177289-6518-30             HOUSING FEMALE ASS'Y     CCN000004800000004800FN00000000020220401000004800NNM   20220114123002    1N0N  00000120000000829200001049232D2    TGYOT-G 005500360039
BI00B32D2    DGTC2215       202202177289-6547                HOUSING FEMALE ASS'Y     CCN000004800000004800FN00000000020220401000004800NNM   20220114123002    1N0N  00000240000001152000001362032D2    TGYOT-G 005500360039
BI00B32D2    DGTC2215       202202177296-0784-02             TERMINAL ALUMINIUM       CCN000072000000072000FN00000000020220401000072000NNM   20220114123002    4P0P  00002400000000480000000765232D2    TGYOT-G 006400630015
BI00B32D2    DGTC2215       202202177296-1020-02             TERMINAL ALUMINIUM       CCN000022500000022500FN00000000020220401000022500NNM   20220114123002    4P0P  00002250000000699800000985032D2    TGYOT-G 006400630015
BI00B32D2    DGTC2215       202202177296-1025-02             TERMINAL ALUMINIUM       CCN000108000000108000FN00000000020220401000108000NNM   20220114123002    4P0P  00001800000000635400000920632D2    TGYOT-G 006400630015
BI00B32D2    DGTC2215       202202177327-6801-3W             BATTERY FUSE             CCN000001344000001344FN00000000020220401000001344NNM   20220114123002    4N0N  00000009600000928400001143432D2    TGYOT-G 005500360039
BI00B32D2    DGTC2215       202202177327-6806                MULTI FUSE               CCN000001680000001680FN00000000020220401000001680NNM   20220114123002    4N0N  00000056000000851500001063932D2    TGYOT-G 005400370024
BI00B32D2    DGTC2215       202202177327-6809                MULTI FUSE               CCN000002800000002800FN00000000020220401000002800NNM   20220114123002    4N0N  00000056000000849300001061732D2    TGYOT-G 005400370024
BI00B32D2    DGTC2215       202202177327-6930                MULTI FUSE               CCN000001120000001120FN00000000020220401000001120NNM   20220114123002    4N0N  00000056000000848900001031932D2    TGYOT-G 005400370024
BI00B32D2    DGTC2215       202202177388-2978-30             HOUSING MALE ASS'Y       CCN000008160000008160FN00000000020220401000008160NNM   20220114123002    1N0N  00000048000000742000001122032D2    TGYOT-G 005500360039
BI00B32D2    #DGTC2215      202202177158-3003-90             RUBBER STOPPER           CCN000060000000060000FN00000000020220401000060000NNM   20220114123002    2C0C  00002000000000250000000306032D2    TGYOT-G 002700430014
BI00B32D2    #DGTC2215      202202177158-3005-80             RUBBER STOPPER           CCN000020000000020000FN00000000020220401000020000NNM   20220114123002    2H0H  00002000000000210000000268732D2    TGYOT-G 002700430014
BI00B32D2    #DGTC2215      202202177158-3008-80             RUBBER STOPPER           CCN000020000000020000FN00000000020220401000020000NNM   20220114123002    2C0C  00002000000000288000000343032D2    TGYOT-G 004300270014
BI00B32D2    #DGTC2215      202202177158-3374-90             CONNECTOR WIRE SEAL      CCN000020000000020000FN00000000020220401000020000NNM   20220114123002    2H0H  00002000000000172000000229332D2    TGYOT-G 002700430014
BI00B32D2    #DGTC2215      202202177172-5628-80             DUMMY PLUG               CCN000020000000020000FN00000000020220401000020000NNM   20220114123002    2H0H  00002000000000110600000162032D2    TGYOT-G 004300270014
BI00B32D2    #DGTC2215      202202177172-5629-80             RUBBER STOPPER           CCN000200000000200000FN00000000020220401000200000NNM   20220114123002    2H0H  00002000000000060000000111132D2    TGYOT-G 004300270014
BI00B32D2    #DGTC2215      202202177172-5630-40             RUBBER STOPPER           CCN000140000000140000FN00000000020220401000140000NNM   20220114123002    2H0H  00002000000000044000000095132D2    TGYOT-G 004300270014
BI00B32D2    #DGTC2215      202202177172-5631-60             RUBBER STOPPER           CCN000060000000060000FN00000000020220401000060000NNM   20220114123002    2H0H  00002000000000042000000093132D2    TGYOT-G 004300270014
BI00B32D2    #DGTC2215      202202177172-5632-10             DUMMY PLUG               CCN000080000000080000FN00000000020220401000080000NNM   20220114123002    2H0H  00002000000000080400000131832D2    TGYOT-G 004300270014
BI00B32D2    #DGTC2215      202202177189-2978-30             HOUSING FEMALE           CCN000007500000007500FN00000000020220401000007500NNM   20220114123002    2F0F  00000150000000966900001096932D2    TGYOT-G 005400370024
BI00B32D2    #DGTC2215      202202177189-3033                HOUSING FEMALE           CCN000001600000001600FN00000000020220401000001600NNM   20220114123002    2F0F  00000160000001211200001431232D2    TGYOT-G 005500360039
BI00B32D2    #DGTC2215      202202177189-3036                HOUSING FEMALE           CCN000001600000001600FN00000000020220401000001600NNM   20220114123002    2F0F  00000160000000921600001141632D2    TGYOT-G 005500360039
BI00B32D2    #DGTC2215      202202177189-3037-40             HOUSING FEMALE           CCN000004800000004800FN00000000020220401000004800NNM   20220114123002    2F0F  00000480000000901600001061632D2    TGYOT-G 005500360039
BI00B32D2    #DGTC2215      202202177283-8226-30             CONNECTOR                CCN000004000000004000FN00000000020220401000004000NNM   20220114123002    2N0N  00000200000000820000001008032D2    TGYOT-G 005400370024
BI00B32D2    #DGTC2215      202202177289-3622-30             HOUSING FEMALE ASS'Y     CCN000001296000001296FN00000000020220401000001296NNM   20220114123002    2N0N  00000043200000839400001038432D2    TGYOT-G 005400370024
BI00B32D2    #DGTC2215      202202177289-4200-30             HOUSING FEMALE ASS'Y     CCN000002000000002000FN00000000020220401000002000NNM   20220114123002    2N0N  00000200000000926000001021032D2    TGYOT-G 005400370024
BI00A32D9    #I220A         202201247173-1516                SIDE BRACKET             CCN000001200000001200FN00000000020220101000001200NNED0720220114142221    2F0F  00000060000000960000001090032D9    UEHESTO 005500360039
BI00B32EJ    T220107P01     202202037158-3169-40             SEALING PLUG             CCN001120000000560000FN00000000020220201000560000NNED0220220114123002EJ  1C0C  00004000000000156000000204132EJ    EJYKBO  004300260014
BI00B32EJ    T200113P01     202202177116-4104-02             TERMINAL                 CCN000012000000012000FN00000000020220201000012000NNE   20220114123002EJ  4P0P  00001200000000580800000972432EJ    EJYKBO  006400630015
BI00B32EJ    T200113P01     202202177116-4102-02             TERMINAL                 CCN000024000000024000FN00000000020220201000024000NNE   20220114123002EJ  4P0P  00001200000000553200000841432EJ    EJYKBO  006400630015
BI00B32EJ    T200113P01     202202177158-3070-80             RUBBER STOPPER           CCN000040000000040000FN00000000020220201000040000NNE   20220114123002EJ  1C0C  00004000000000276000000333332EJ    EJYKBO  002700430014
BI00B32EJ    T200113P01     202202177114-4110-02             TERMINAL                 CCN000030000000030000FN00000000020220201000030000NNE   20220114123002EJ  4P0P  00001500000000901500001230132EJ    EJYKBO  006400630017
BI00B32EJ    T200113P01     202202177114-4112-02             TERMINAL                 CCN000027000000027000FN00000000020220201000027000NNE   20220114123002EJ  4P0P  00000900000000598500000927132EJ    EJYKBO  006400630017
BI00B32EJ    T200113P01     202202177114-4100-02             TERMINAL                 CCN000018000000018000FN00000000020220201000018000NNE   20220114123002EJ  4P0P  00001800000000748800001077432EJ    EJYKBO  006400630017
BI00B32EJ    T200113P01     202202177116-4100-02             TERMINAL                 CCN000015000000015000FN00000000020220201000015000NNE   20220114123002EJ  4P0P  00001500000000696000000990232EJ    EJYKBO  006400630015
BI00B32EJ    T200113P01     202202177116-4120-02             TERMINAL                 CCN000006000000006000FN00000000020220201000006000NNE   20220114123002EJ  4P0P  00000600000000780000001073632EJ    EJYKBO  006400630015
BI00B32EJ    T200113P01     202202177116-4122-02             TERMINAL                 CCN000013500000013500FN00000000020220201000013500NNE   20220114123002EJ  4P0P  00000450000000656600000950232EJ    EJYKBO  006400630015
BI00B32EJ    T200113P01     202202177116-4121-02             TERMINAL                 CCN000018000000018000FN00000000020220201000018000NNE   20220114123002EJ  4P0P  00000450000000618800000912432EJ    EJYKBO  006400630015
BI00B32EJ    T200113P01     202202177116-4112-02             TERMINAL                 CCN000048000000048000FN00000000020220201000048000NNE   20220114123002EJ  4P0P  00000600000000450000000738232EJ    EJYKBO  006400630015
BI00B32EJ    T200113P01     202202177116-4110-02             TERMINAL                 CCN000009000000009000FN00000000020220201000009000NNE   20220114123002EJ  4P0P  00000900000000594000000882232EJ    EJYKBO  006400630015
BI00B32EJ    T200113P01     202202177116-4111-02             TERMINAL                 CCN000007500000007500FN00000000020220201000007500NNE   20220114123002EJ  4P0P  00000750000000529500000817732EJ    EJYKBO  006400630015
BI00B32EJ    T200113P01     202202177126-8854-02             TERMINAL                 CCN000015000000015000FN00000000020220201000015000NNE   20220114123002EJ  4P0P  00000750000000604500000889732EJ    EJYKBO  006400630015
BI00B32EJ    T200113P01     202202177158-3166-60             WIRE SEAL                CCN000200000000200000FN00000000020220201000200000NNE   20220114123002EJ  1C0C  00004000000000104000000152432EJ    EJYKBO  002700430014
BI00B32EJ    T200113P01     202202177158-3167-80             WIRE SEAL                CCN000080000000080000FN00000000020220201000080000NNE   20220114123002EJ  1C0C  00002000000000048000000109032EJ    EJYKBO  002700430014
BI00B32EJ    #T200113P01    202202177158-3120-90             CONNECTOR WIRE SEAL      CCN000040000000040000FN00000000020220201000040000NNE   20220114123002EJ  2C0C  00002000000000136000000194032EJ    EJYKBO  002700430014
BI00B32EJ    #T200113P01    202202177123-6423-30             CONNECTOR                CCN000004000000004000FN00000000020220201000004000NNE   20220114123002EJ  2F0F  00000200000001002000001167632EJ    EJYKBO  005600390023
BI00B32EJ    #T200113P01    202202177282-6458-40             CONNECTOR                CCN000002000000002000FN00000000020220201000002000NNE   20220114123002EJ  2N0N  00000100000001206000001350532EJ    EJYKBO  005500360039
BI00B32EJ    T200113P02     202202177116-4022                TERMINAL                 CCN000027000000027000FN00000000020220201000027000NNE   20220114123002EJ  4P0P  00001350000000618300000903532EJ    EJYKBO  006400630015
BI00B32EJ    #T200113P02    202202177283-8398-40             CONNECTOR                CCN000015400000015400FN00000000020220201000015400NNE   20220114123002EJ  2N0N  00000154000001007000001171332EJ    EJYKBO  005600390023
BI00B32EJ    T200113P03     202202177114-4111-02             TERMINAL                 CCN000084000000084000FN00000000020220201000084000NNE   20220114123002EJ  4P0P  00001200000000758400001087032EJ    EJYKBO  006400630017
BI00B32EJ    #T200113P03    202202177282-3042-90             CONNECTOR                CCN000018000000018000FN00000000020220201000018000NNE   20220114123002EJ  2N0N  00000090000001418000001584032EJ    EJYKBO  005500360039
BI00B32EJ    T220107P01     202202107158-3169-40             SEALING PLUG             CCN000560000000560000FN00000000020220201000560000NNED0220220114123002EJ  1C0C  00004000000000156000000204132EJ    EJYKBO  004300260014
BI00B32G2    SA2201A MW     202202237283-5843                CONNECTOR                CCN000009000000009000FN00000000020220101000009000NNED0220220114123002    1N0N  00000150000000889000001132032G2    AISUAI  005600390040
BI00B32G2    @SA22031 MW    202202027282-1160-40             CONNECTOR MALE ASS'Y     CCN000000800000000800FN00000000020220301000000800NNMD0620220114123002    3N0N  00000080000000919800001133932G2    AISUAI  005500360039
BI00B32G2    @SA22032 MW    202202097282-1160-40             CONNECTOR MALE ASS'Y     CCN000000800000000800FN00000000020220301000000800NNMD0620220114123002    3N0N  00000080000000919800001133932G2    AISUAI  005500360039
BI00A32G7    #JJ22014MMW    202201267172-5630-40             RUBBER STOPPER           PCN000300000000300000FN00000000020220101000300000NNMM0020220114142545    2H0H  00002000000000044000000095132G7    JIJAI   004300270014
BI00B32G9    TY22021TMW     202201217289-3342-30             HOUSING FEMALE ASS'Y     CCN000004800000004800FN00000000020220201000004800NNM00020220114154523    1N0N  00000240000000686400000901432G9    TYTYC   005500360039
BI00A32H2    #TIJ2014       202201147282-5845                HOUSING MALE ASS'Y       PCN000008000000004000FY00000400020220101000000000NNM00020220114161154    2N0N  00000400000001068000001178032H2    HVYHV   005400370024
BI00B32H2    TIJ2024        202201287158-3009-60             RUBBER STOPPER           CCN000320000000320000FN00000000020220201000320000NNM00020220114144510    1C0C  00002000000000338000000386232H2    HVYHV   002700430014
BI00B32H2    TIJ2031        202202117288-6547                CONNECTOR MALE ASS'Y     CCN000005250000005250FN00000000020220301000005250NNMD0420220114123002    4N0N  00000075000001205300001340332H2    HVYHV   005400370024
BI00B32H2    TIJ2032        202202187288-6547                CONNECTOR MALE ASS'Y     CCN000006750000006750FN00000000020220301000006750NNMD0420220114123002    4N0N  00000075000001205300001340332H2    HVYHV   005400370024
BI00B32H2    TIJ2033        202202257288-6547                CONNECTOR MALE ASS'Y     CCN000007500000007500FN00000000020220301000007500NNMD0420220114123002    4N0N  00000075000001205300001340332H2    HVYHV   005400370024
BI00B32H2    TIJ2034        202203047288-6547                CONNECTOR MALE ASS'Y     CCN000006000000006000FN00000000020220301000006000NNMD0420220114123002    4N0N  00000075000001205300001340332H2    HVYHV   005400370024
BI00B32H2    TIJ2031        202202117289-3342-30             HOUSING FEMALE ASS'Y     CCN000124800000124800FN00000000020220301000124800NNMD0420220114123002    1N0N  00000240000000686400000901432H2    HVYHV   005500360039
BI00B32H2    TIJ2032        202202187289-3342-30             HOUSING FEMALE ASS'Y     CCN000084000000084000FN00000000020220301000084000NNMD0420220114123002    1N0N  00000240000000686400000901432H2    HVYHV   005500360039
BI00B32H2    TIJ2033        202202257289-3342-30             HOUSING FEMALE ASS'Y     CCN000120000000120000FN00000000020220301000120000NNMD0420220114123002    1N0N  00000240000000686400000901432H2    HVYHV   005500360039
BI00B32H2    TIJ2034        202203047289-3342-30             HOUSING FEMALE ASS'Y     CCN000110400000110400FN00000000020220301000110400NNMD0420220114123002    1N0N  00000240000000686400000901432H2    HVYHV   005500360039
BI00B32H2    TIJ202R        202202047273-2982-0W             CASSETTE BRACKET         CCN000001200000001200FN00000000020220201000001200NNE   20220114153408    4N0N  00000060000000526000000726032H2    HVYHV   005500360039
BI00B32H2    TIJ202R        202202047470-5304                J/B COMPLETE ASS'Y       CCN000000500000000500FN00000000020220201000000500NNE   20220114153408    4J0J  00000001000000494000000661032H2    HVYHV   005400370024
BI00B32H2    #TIJ203E       202202117158-3015-10             RUBBER STOPPER           CCN000010000000010000FN00000000020220301000010000NNE   20220114153423    2C0C  00001000000000419500000474032H2    HVYHV   002700430014
BI00B32H2    TIJ203F        202202187116-1686-02             TERMINAL                 CCN000021000000021000FN00000000020220301000021000NNE   20220114153437    4P0P  00002100000000869400001021632H2    HVYHV   005100280028
BI00B32H2    TIJ203G        202202257116-4037                TERMINAL                 CCN000006000000006000FN00000000020220301000006000NNE   20220114153452    4P0P  00000600000000600000000894232H2    HVYHV   006400630015
BI00B32H2    TIJ203G        202202257196-1943-02             TERMINAL FEMALE          CCN000012000000012000FN00000000020220301000012000NNE   20220114153452    4P0P  00001200000000492000000777232H2    HVYHV   006400630015
BI00A32H2    #TIJ2014       202201177282-5845                HOUSING MALE ASS'Y       PCN000004000000004000FN00000000020220101000004000NNM00020220114161154    2N0N  00000400000001068000001178032H2    HVYHV   005400370024
BI00B32J1    390382         202202077114-1475                TERMINAL                 CCN000013500000013500FN00000000020220201000013500NNM   20220114123002    4P0P  00001350000000480600000774232J1    UKYEL-BL006400630015
BI00B32J1    390382         202202077116-1180                TERMINAL                 CCN000039000000039000FN00000000020220201000039000NNM   20220114123002    1P0P  00001950000000618200000903432J1    UKYEL-BL006400630015
BI00B32J1    390382         202202077116-4020                TERMINAL                 CCN000054000000054000FN00000000020220201000054000NNM   20220114123002    4P0P  00001350000000513000000798232J1    UKYEL-BL006400630015
BI00B32J1    390382         202202077158-3070-80             RUBBER STOPPER           CCN000040000000040000FN00000000020220201000040000NNM   20220114123002    1C0C  00004000000000276000000333332J1    UKYEL-BL002700430014
BI00B32J1    390382         202202077158-3165-90             WIRE SEAL                CCN000280000000280000FN00000000020220201000280000NNM   20220114123002    1C0C  00004000000000124000000172432J1    UKYEL-BL004300270014
BI00B32J1    390382         202202077158-3166-60             WIRE SEAL                CCN002160000002160000FN00000000020220201002160000NNM   20220114123002    1C0C  00004000000000104000000152432J1    UKYEL-BL002700430014
BI00B32J1    390382         202202077158-3167-80             WIRE SEAL                CCN002640000002640000FN00000000020220201002640000NNM   20220114123002    1C0C  00002000000000048000000109032J1    UKYEL-BL002700430014
BI00B32J1    390382         202202077158-3168-80             SEALED                   CCN001600000001600000FN00000000020220201001600000NNM   20220114123002    1C0C  00002000000000044000000092132J1    UKYEL-BL004300260014
BI00B32J1    390382         202202077196-0104-02             TERMINAL                 CCN000038000000038000FN00000000020220201000038000NNM   20220114123002    4P0P  00003800000000570000000956432J1    UKYEL-BL006400630017
BI00B32J1    390382         202202077196-1462-02             TERMINAL FEMALE          CCN000021000000021000FN00000000020220201000021000NNM   20220114123002    4P0P  00002100000000352800000638032J1    UKYEL-BL006400630015
BI00B32J1    390382         202202077282-5574-10             CONNECTOR                CCN000009600000009600FN00000000020220201000009600NNM   20220114123002    4N0N  00000080000001235000001423032J1    UKYEL-BL005600390040
BI00B32J1    390382         202202077282-6448-40             CONNECTOR                CCN000004000000004000FN00000000020220201000004000NNM   20220114123002    4N0N  00000080000000887000001152732J1    UKYEL-BL005600390040
BI00B32J1    390382         202202077282-6568-40             CONNECTOR                CCN000005000000005000FN00000000020220201000005000NNM   20220114123002    4N0N  00000100000001206000001370732J1    UKYEL-BL005500360039
BI00B32J1    390382         202202077283-1968-30             CONNECTOR                CCN000006300000006300FN00000000020220201000006300NNM   20220114123002    1N0N  00000090000001140000001318332J1    UKYEL-BL005600390040
BI00B32J1    390382         202202077283-5545-10             CONNECTOR                CCN000009000000009000FN00000000020220201000009000NNM   20220114123002    4N0N  00000060000001279000001409232J1    UKYEL-BL005600390040
BI00B32J1    390382         202202077283-6388-40             CONNECTOR                CCN000002000000002000FN00000000020220201000002000NNM   20220114123002    4N0N  00000200000001029000001173532J1    UKYEL-BL005500360039
BI00B32J1    390382         202202077288-7969                HYBRID MALE ASS'Y        CCN000025280000025280FN00000000020220201000025280NNM   20220114123002    1N0N  00000032000000876200001101732J1    UKYEL-BL005400370024
BI00B32J1    390382         202202077298-1865-30             HOUSING FEMALE ASS'Y     CCN000019200000019200FN00000000020220201000019200NNM   20220114123002    4N0N  00000240000001003200001204532J1    UKYEL-BL005500360039
BI00B32J1    390382         202202077298-1869-30             HOUSING FEMALE ASS'Y     CCN000036000000036000FN00000000020220201000036000NNM   20220114123002    4N0N  00000120000000737000000939832J1    UKYEL-BL005500360039
BI00B32J1    390382         202202077298-2507-30             HOUSING FEMALE ASS'Y     CCN000001200000001200FN00000000020220201000001200NNM   20220114123002    4N0N  00000120000000713200000914532J1    UKYEL-BL005500360039
BI00B32J1    #390382        202202077134-4547-30             COVER                    CCN000012500000012500FN00000000020220201000012500NNM   20220114123002    2F0F  00000250000000989000001156732J1    UKYEL-BL005600390040
BI00B32J1    #390382        202202077157-3646                RUBBER STOPPER           CCN000020000000020000FN00000000020220201000020000NNM   20220114123002    2H0H  00002000000000184000000255232J1    UKYEL-BL002700430014
BI00B32J1    #390382        202202077157-3821                RUBBER STOPPER           CCN000060000000060000FN00000000020220201000060000NNM   20220114123002    2C0C  00002000000000176000000238032J1    UKYEL-BL002700430014
BI00B32J1    #390382        202202077157-3950-80             SEAL RUBBER              CCN000040000000040000FN00000000020220201000040000NNM   20220114123002    2C0C  00004000000000154000000440332J1    UKYEL-BL002700430014
BI00B32J1    #390382        202202077158-3004-40             RUBBER STOPPER           CCN000020000000020000FN00000000020220201000020000NNM   20220114123002    2C0C  00002000000000234000000306332J1    UKYEL-BL002700430014
BI00B32J1    #390382        202202077158-3120-90             CONNECTOR WIRE SEAL      CCN000140000000140000FN00000000020220201000140000NNM   20220114123002    2C0C  00002000000000136000000194032J1    UKYEL-BL002700430014
BI00B32J1    #390382        202202077158-3121-80             WIRE SEAL                CCN000040000000040000FN00000000020220201000040000NNM   20220114123002    2C0C  00002000000000118000000187332J1    UKYEL-BL002700430014
BI00B32J1    #390382        202202077158-3374-90             CONNECTOR WIRE SEAL      CCN000020000000020000FN00000000020220201000020000NNM   20220114123002    2H0H  00002000000000172000000229332J1    UKYEL-BL002700430014
BI00B32J1    #390382        202202077174-1164                COVER                    CCN000000800000000800FN00000000020220201000000800NNM   20220114123002    2F0F  00000080000000592000000712032J1    UKYEL-BL005500360039
BI00B32J1    #390382        202202077174-1515                FRONT DOOR COVER         CCN000027600000027600FN00000000020220201000027600NNM   20220114123002    2F0F  00000060000000490200000610232J1    UKYEL-BL005500360039
BI00B32J1    #390382        202202077282-3243-40             CONNECTOR                CCN000006400000006400FN00000000020220201000006400NNM   20220114123002    2N0N  00000080000001006000001282332J1    UKYEL-BL005600390040
BI00B32J1    #390382        202202077282-5545-10             CONNECTOR                CCN000004800000004800FN00000000020220201000004800NNM   20220114123002    2N0N  00000080000001293600001465332J1    UKYEL-BL005500360039
BI00B32J1    #390382        202202077282-6446-40             CONNECTOR                CCN000006000000006000FN00000000020220201000006000NNM   20220114123002    2N0N  00000150000001185000001368032J1    UKYEL-BL005500360039
BI00B32J1    #390382        202202077282-8395-40             CONNECTOR                CCN000004000000004000FN00000000020220201000004000NNM   20220114123002    2N0N  00000100000001009000001188032J1    UKYEL-BL005500360039
BI00B32J1    #390382        202202077283-8226-30             CONNECTOR                CCN000016000000016000FN00000000020220201000016000NNM   20220114123002    2N0N  00000200000000820000001008032J1    UKYEL-BL005400370024
BI00B32J1    #390382        202202077283-8397-40             CONNECTOR                CCN000009240000009240FN00000000020220201000009240NNM   20220114123002    2N0N  00000154000001007000001222732J1    UKYEL-BL005600390023
BI00B32J1    390463         202202287158-3070-80             RUBBER STOPPER           CCN000040000000040000FN00000000020220201000040000NNE   20220114123002    1C0C  00004000000000276000000333332J1    UKYEL-BL002700430014
BI00B32J1    390463         202202287158-3165-90             WIRE SEAL                CCN000040000000040000FN00000000020220201000040000NNE   20220114123002    1C0C  00004000000000124000000172432J1    UKYEL-BL004300270014
BI00B32J1    #390463        202202287158-3008-80             RUBBER STOPPER           CCN000080000000080000FN00000000020220201000080000NNE   20220114123002    2C0C  00002000000000288000000343032J1    UKYEL-BL004300270014
BI00B32J1    390466         202203147114-6041                TERMINAL                 CCN000032400000032400FN00000000020220301000032400NNE   20220114123002    4P0P  00000360000000580700000824232J1    UKYEL-BL006400630015
BI00B32J1    390465         202203077114-1475                TERMINAL                 CCN000013500000013500FN00000000020220301000013500NNE   20220114123002    4P0P  00001350000000480600000774232J1    UKYEL-BL006400630015
BI00B32J1    #390465        202203077158-3120-90             CONNECTOR WIRE SEAL      CCN000020000000020000FN00000000020220301000020000NNE   20220114123002    2C0C  00002000000000136000000194032J1    UKYEL-BL002700430014
BI00B32M1    #TCVL2012      202201277172-5630-40             RUBBER STOPPER           CCN000040000000040000FN00000000020220101000040000NNM00020220114154611    2H0H  00002000000000044000000095132M1    VNYEV   004300270014
BI00B32M1    QA-22-C001     202201147289-3342                HOUSING FEMALE ASS'Y     PNY000008060000008060FY00000806020220101000000000NNE00020220114155201    1N0N  00000240000000686400000901432M1    VNYEV   005500360039
BI00A32M1    TCV201D        202201187195-1936-02             TERMINAL MALE            CCN000015000000015000FN00000000020220101000015000NNEM0020220114132935    4P0P  00001500000000589500000883132M1    VNYEV   006400630015
BI00A32M1    TCV201D        202201187196-1936-02             TERMINAL FEMALE          CCN000013500000013500FN00000000020220101000013500NNEM0020220114132958    4P0P  00001350000000441500000726732M1    VNYEV   006400630015
BI00A32M1    TCV201D        202201187196-1937-02             TERMINAL FEMALE          CCN000027000000013500FN00000000020220101000013500NNEM0020220114133127    4P0P  00001350000000446900000732132M1    VNYEV   006400630015
BI00B32M1    #TCV201E       202201277283-1730-40             CONNECTOR                CCN000002000000002000FN00000000020220101000002000NNED0620220114142234    2N0N  00000200000001200000001330032M1    VNYEV   005500360039
BI00B32M1    TCV201D        202201207196-1937-02             TERMINAL FEMALE          CCN000013500000013500FN00000000020220101000013500NNEQ0020220114133136    4P0P  00001350000000446900000732132M1    VNYEV   006400630015
BI00A32M4    #TL2014        202201207172-5629-80             RUBBER STOPPER           PCN000240000000240000FN00000000020220101000240000NNM00020220114142810    2H0H  00002000000000060000000111132M4    SISAI   004300270014
BI00A32M4    #TL2021        202201267172-5630-40             RUBBER STOPPER           PCN000060000000060000FN00000000020220201000060000NNMM0020220114142810    2H0H  00002000000000044000000095132M4    SISAI   004300270014
BI00B32N1    NST2115A-1     202202107283-1144-30             CONNECTOR                CCN000057600000019200FN00000000020220301000019200NNMQ0220220114141953    4N0N  00000240000000602200000866132N1    TAYIPL  005500360039
BI00B32N1    NST2115A-1     202202177283-1144-30             CONNECTOR                CCN000019200000019200FN00000000020220301000019200NNMD0220220114142009    4N0N  00000240000000602200000866132N1    TAYIPL  005500360039
BI00B32N1    NST2115A-1     202202247283-1144-30             CONNECTOR                CCN000019200000019200FN00000000020220301000019200NNMD0220220114142015    4N0N  00000240000000602200000866132N1    TAYIPL  005500360039
BI00A32N3    NBT2201 A3     202201187289-3342-30             HOUSING FEMALE ASS'Y     PCN000012000000012000FN00000000020220101000012000NNMM0020220114142936    1N0N  00000240000000686400000901432N3    ABYIPL-B005500360039
BI00B32N3    NBT202 A4      202201177282-4855                HOUSING MALE ASS'Y       CCN000003600000003600FN00000000020220201000003600NNM00020220114141305    4N0N  00000120000001063200001283232N3    ABYIPL-B005500360039
BI00B32N3    NBT202 A4      202201177283-4577                CONNECTOR HOUSING        CCN000004800000004800FN00000000020220201000004800NNM00020220114141316    4N0N  00000480000000916800001136832N3    ABYIPL-B005500360039
BI00B32N3    NBT202 A4      202201177283-4855                CONNECTOR HOUSING        CCN000004800000004800FN00000000020220201000004800NNM00020220114141327    4N0N  00000240000001188400001400032N3    ABYIPL-B005500360039
BI00B32N3    NBT202 A2      202201177289-3342-30             HOUSING FEMALE ASS'Y     CCN000031200000031200FN00000000020220201000031200NNM00020220114141131    1N0N  00000240000000686400000901432N3    ABYIPL-B005500360039
BI00B32N3    NBT202 A3      202201177289-3342-40             HOUSING FEMALE ASS'Y     CCN000002400000002400FN00000000020220201000002400NNM00020220114141159    1N0N  00000240000000686400000901432N3    ABYIPL-B005500360039
BI00B32N3    NBT202 A3      202201177470-5940                J/B COMPLETE ASS'Y       CCN000000340000000340FN00000000020220201000000340NNM00020220114141213    4J0J  00000001000000494000000661032N3    ABYIPL-B005400370024
BI00B32N3    NBT202 A4      202201177470-6015                J/B COMPLETE ASS'Y       CCN000001180000001180FN00000000020220201000001180NNM00020220114141253    4J0J  00000001000000494000000661032N3    ABYIPL-B005400360024
BI00B32Q8    EU2203CTMW     202205257288-6547                CONNECTOR MALE ASS'Y     CCN000002250000002250FN00000000020220301000002250NNED0420220114123002    4N0N  00000075000001205300001340332Q8    EMEMI   005400370024
BI00B32Q8    EU2203CTMW     202204067289-3342                HOUSING FEMALE ASS'Y     CCN000016800000016800FN00000000020220301000016800NNED0420220114123002    1N0N  00000240000000686400000901432Q8    EMEMI   005500360039
BI00B32Q8    EU22044TMW     202204207289-3342                HOUSING FEMALE ASS'Y     CCN000024000000024000FN00000000020220401000024000NNMD0420220114123002    1N0N  00000240000000686400000901432Q8    EMEMI   005500360039
BI00B32Q8    EU22043TMW     202203237289-3342-30             HOUSING FEMALE ASS'Y     CCN000009600000009600FN00000000020220401000009600NNMD0420220114123002    1N0N  00000240000000686400000901432Q8    EMEMI   005500360039
BI00B32Q8    EU2203CNMW     202202097298-1866-40             HOUSING FEMALE ASS'Y     CCN000002400000002400FN00000000020220301000002400NNE   20220114123002    4N0N  00000240000000000000000000032Q8    EMEMI   000000000000
BI00B32Q8    EU2203CNMW     202202097298-2279-40             HOUSING FEMALE ASS'Y     CCN000002400000002400FN00000000020220301000002400NNE   20220114123002    4N0N  00000240000000000000000000032Q8    EMEMI   000000000000
BI00B32W4    #4500184682    202201207283-8226                CONNECTOR                CCN000002000000002000FN00000000020220101000002000NNED0020220114135802W4592N0N  00000200000000820000001008032W459  HJYHK   005400370024
BI00B32W4    4500186792     202201137222-6244-40             CONNECTOR                CCN000002400000002400FY00000240020220101000000000NNED0420220114135449W48 4N0N  00000080000001239200001422032W48   HJYHK   005600390040
BI00B32W4    4500187465     202203317158-3167-80             WIRE SEAL                CCN001000000001000000FN00000000020220301001000000NNED0220220114165033W4B71C0C  00002000000000048000000109032W4B7  HJYHK-J 002700430014
BI00A32W4    4500187717     202203147116-4100-02             TERMINAL                 CCN000030000000030000FN00000000020220301000030000NNE   20220114123002W4N24P0P  00001500000000696000000990232W4N2  HJYHK-J 006400630015
BI00A32W4    4500187717     202203147116-4102-02             TERMINAL                 CCN000024000000024000FN00000000020220301000024000NNE   20220114123002W4N24P0P  00001200000000553200000841432W4N2  HJYHK-J 006400630015
BI00A32W4    4500187717     202203147116-4025                TERMINAL                 CCN000016000000016000FN00000000020220301000016000NNE   20220114123002W4N24P0P  00001600000000644800000975132W4N2  HJYHK-J 006400630017
BI00A32W4    4500187717     202203147116-4101-02             TERMINAL                 CCN000012000000012000FN00000000020220301000012000NNE   20220114123002W4N24P0P  00001200000000582000000876232W4N2  HJYHK-J 006400630015
BI00A32W4    4500187718     202203077114-4112-02             TERMINAL                 CCN000009000000009000FN00000000020220301000009000NNE   20220114123002W4N24P0P  00000900000000598500000927132W4N2  HJYHK-J 006400630017
BI00A32W4    4500187718     202203077116-4111-02             TERMINAL                 CCN000022500000022500FN00000000020220301000022500NNE   20220114123002W4N24P0P  00000750000000529500000817732W4N2  HJYHK-J 006400630015
BI00A32W4    4500187719     202202287116-4112-02             TERMINAL                 CCN000006000000006000FN00000000020220201000006000NNE   20220114123002W4N24P0P  00000600000000450000000738232W4N2  HJYHK-J 006400630015
BI00A32W4    4500187719     202202287116-4110-02             TERMINAL                 CCN000009000000009000FN00000000020220201000009000NNE   20220114123002W4N24P0P  00000900000000594000000882232W4N2  HJYHK-J 006400630015
BI00A32W4    #4500187720    202202217047-1664                CLIP                     CCN000006000000006000FN00000000020220201000006000NNE   20220114123002W4N22F0F  00000600000000653400000835332W4N2  HJYHK-J 005500360039
BI00A32W4    4500187722     202203147116-4231-02             TERMINAL                 CCN000026000000026000FN00000000020220301000026000NNE   20220114123002W4N24P0P  00002600000000683800001012532W4N2  HJYHK-J 006400630017
BI00B32W4    4500187731     202202177116-4022                TERMINAL                 CCN000310500000310500FN00000000020220201000310500NNE   20220114123002W4514P0P  00001350000000618300000903532W451  HJ32W9  006400630015
BI00B32W4    4500187731     202202177116-4231-02             TERMINAL                 CCN000728000000728000FN00000000020220201000728000NNE   20220114123002W4514P0P  00002600000000683800001012532W451  HJ32W9  006400630017
BI00B32W4    4500187731     202202177283-1020                CONNECTOR                CCN000132000000132000FN00000000020220201000132000NNE   20220114123002W4514N0N  00000600000000840000001049332W451  HJ32W9  005600390040
BI00B32W4    4500187731     202202177283-7028-30             CONNECTOR                CCN000033000000033000FN00000000020220201000033000NNE   20220114123002W4514N0N  00000300000001452000001681332W451  HJ32W9  005600390040
BI00B32W4    #4500187731    202202177157-3821                RUBBER STOPPER           CCN000020000000020000FN00000000020220201000020000NNE   20220114123002W4512C0C  00002000000000176000000238032W451  HJ32W9  002700430014
BI00B32W4    #4500187731    202202177158-3003-90             RUBBER STOPPER           CCN000020000000020000FN00000000020220201000020000NNE   20220114123002W4512C0C  00002000000000250000000306032W451  HJ32W9  002700430014
BI00B32W4    #4500187731    202202177186-8845                HOUSING MALE             CCN000012000000012000FN00000000020220201000012000NNE   20220114123002W4512F0F  00000300000000690000000801532W451  HJ32W9  005400370024
BI00B32W4    #4500187731    202202177283-8397-40             CONNECTOR                CCN000009240000009240FN00000000020220201000009240NNE   20220114123002W4512N0N  00000154000001007000001222732W451  HJ32W9  005600390023
BI00B32W4    4500187748     202203107116-4121-02             TERMINAL                 CCN000009000000009000FN00000000020220301000009000NNE   20220114123002W4374P0P  00000450000000618800000912432W437  HJYHK   006400630015
BI00B32W4    4500187749     202202247116-4104-02             TERMINAL                 CCN000012000000012000FN00000000020220201000012000NNE   20220114123002W4374P0P  00001200000000580800000972432W437  HJYHK   006400630015
BI00B32W4    4500187749     202202247116-4122-02             TERMINAL                 CCN000004500000004500FN00000000020220201000004500NNE   20220114123002W4374P0P  00000450000000656600000950232W437  HJYHK   006400630015
BI00B32W4    4500187749     202202247116-4121-02             TERMINAL                 CCN000013500000013500FN00000000020220201000013500NNE   20220114123002W4374P0P  00000450000000618800000912432W437  HJYHK   006400630015
BI00B32W4    4500187750     202202107116-4121-02             TERMINAL                 CCN000004500000004500FN00000000020220201000004500NNE   20220114123002W4374P0P  00000450000000618800000912432W437  HJYHK   006400630015
BI00A32W4    4500187754     202203037116-4231-02             TERMINAL                 CCN000052000000052000FN00000000020220301000052000NNE   20220114123002W4334P0P  00002600000000683800001012532W433  HJYHK   006400630017
BI00A32W4    4500187754     202203037114-4100-02             TERMINAL                 CCN000018000000018000FN00000000020220301000018000NNE   20220114123002W4334P0P  00001800000000748800001077432W433  HJYHK   006400630017
BI00A32W4    4500187757     202202177114-4100-02             TERMINAL                 CCN000018000000018000FN00000000020220201000018000NNE   20220114123002W4334P0P  00001800000000748800001077432W433  HJYHK   006400630017
BI00B32W4    4500187763     202203247289-9553-50             SEALED ASSY FEMALE       CCN000011760000011760FN00000000020220301000011760NNE   20220114123002W4N64N0N  00000294000001108100001520632W4N6  HJYHK-J 005500360039
BI00B32W4    4500187765     202204077158-3167-80             WIRE SEAL                CCN000320000000320000FN00000000020220401000320000NNE   20220114123002W4N61C0C  00002000000000048000000109032W4N6  HJYHK-J 002700430014
BI00B32W4    4500187768     202204077158-3167-80             WIRE SEAL                CCN000120000000120000FN00000000020220401000120000NNE   20220114123002W4N61C0C  00002000000000048000000109032W4N6  HJYHK-J 002700430014
BI00B32W4    4500187773     202203177114-4032                TERMINAL                 CCN000007500000007500FN00000000020220301000007500NNE   20220114123002W4164P0P  00000750000000735000001063632W416  HJYHK   006400630017
BI00B32W4    4500187773     202203177283-1156                CONNECTOR                CCN000007200000007200FN00000000020220301000007200NNE   20220114123002W4164N0N  00000080000000877600001078032W416  HJYHK   005600390040
BI00B32W4    4500187773     202203177288-6547                CONNECTOR MALE ASS'Y     CCN000013500000013500FN00000000020220301000013500NNE   20220114123002W4164N0N  00000075000001205300001340332W416  HJYHK   005400370024
BI00B32W4    4500187773     202203177289-6547                HOUSING FEMALE ASS'Y     CCN000014400000014400FN00000000020220301000014400NNE   20220114123002W4161N0N  00000240000001152000001362032W416  HJYHK   005500360039
BI00B32W4    4500187773     202203177283-1024                CONNECTOR SUB ASSY       CCN000004000000004000FN00000000020220301000004000NNE   20220114123002W4164N0N  00000200000000400000000522532W416  HJYHK   005400370024
BI00B32W4    4500187773     202203177282-1024                HOUSING MALE             CCN000007000000007000FN00000000020220301000007000NNE   20220114123002W4161N0N  00000100000000458000000580532W416  HJYHK   005400370024
BI00B32W4    #4500187773    202203177187-1616                HOUSING FEMALE           CCN000004000000004000FN00000000020220301000004000NNE   20220114123002W4162F0F  00000400000001152000001262032W416  HJYHK   005500360039
BI00A32W4    4500187777     202203177116-4100-02             TERMINAL                 CCN000015000000015000FN00000000020220301000015000NNE   20220114123002W4424P0P  00001500000000696000000990232W442  HJYHK   006400630015
BI00A32W4    4500187778     202203107116-4112-02             TERMINAL                 CCN000006000000006000FN00000000020220301000006000NNE   20220114123002W4424P0P  00000600000000450000000738232W442  HJYHK   006400630015
BI00B32W4    4500187784     202203177283-5843                CONNECTOR                CCN000003000000003000FN00000000020220301000003000NNE   20220114123002W4171N0N  00000150000000889000001132032W417  HJYHK   005600390040
BI00B32W4    4500187784     202203177114-6041                TERMINAL                 CCN000003600000003600FN00000000020220301000003600NNE   20220114123002W4174P0P  00000360000000580700000824232W417  HJYHK   006400630015
BI00B32W4    4500187784     202203177283-5832                CONNECTOR HOUSING        CCN000002400000002400FN00000000020220301000002400NNE   20220114123002W4171N47  00000240000000723800000873832W417  HJYHK   005500360039
BI00B32W4    #4500187784    202203177183-8927                HOUSING                  CCN000004000000004000FN00000000020220301000004000NNE   20220114123002W4172F0F  00000400000000714000000912732W417  HJYHK   005500360039
BI00B32W4    #4500187784    202203177282-3020                CONNECTOR                CCN000003000000003000FN00000000020220301000003000NNE   20220114123002W4172N0N  00000100000000984000001145432W417  HJYHK   005500360039
BI00B32W4    #4500187784    202203177287-1674                HYBRID FEMALE ASS'Y      CCN000002000000002000FN00000000020220301000002000NNE   20220114123002W4172N0N  00000200000000810800001002832W417  HJYHK   005400370024
BI00B32W4    #4500187785    202203317147-3642-30             CLIP                     CCN000060000000060000FN00000000020220301000060000NNE   20220114123002W4172F0F  00000300000000542000000721332W417  HJYHK   005600390040
BI00A32W4    4500187790     202203147116-4100-02             TERMINAL                 CCN000015000000015000FN00000000020220301000015000NNE   20220114123002W4144P0P  00001500000000696000000990232W414  HJYHK   006400630015
BI00A32W4    4500187790     202203147114-4112-02             TERMINAL                 CCN000027000000027000FN00000000020220301000027000NNE   20220114123002W4144P0P  00000900000000598500000927132W414  HJYHK   006400630017
BI00A32W4    4500187790     202203147116-4111-02             TERMINAL                 CCN000015000000015000FN00000000020220301000015000NNE   20220114123002W4144P0P  00000750000000529500000817732W414  HJYHK   006400630015
BI00A32W4    4500187790     202203147116-4112-02             TERMINAL                 CCN000024000000024000FN00000000020220301000024000NNE   20220114123002W4144P0P  00000600000000450000000738232W414  HJYHK   006400630015
BI00A32W4    4500187790     202203147114-4100-02             TERMINAL                 CCN000018000000018000FN00000000020220301000018000NNE   20220114123002W4144P0P  00001800000000748800001077432W414  HJYHK   006400630017
BI00A32W4    4500187790     202203147114-4111-02             TERMINAL                 CCN000012000000012000FN00000000020220301000012000NNE   20220114123002W4144P0P  00001200000000758400001087032W414  HJYHK   006400630017
BI00A32W4    4500187790     202203147158-3166-60             WIRE SEAL                CCN000040000000040000FN00000000020220301000040000NNE   20220114123002W4141C0C  00004000000000104000000152432W414  HJYHK   002700430014
BI00A32W4    4500187790     202203147116-4101-02             TERMINAL                 CCN000012000000012000FN00000000020220301000012000NNE   20220114123002W4144P0P  00001200000000582000000876232W414  HJYHK   006400630015
BI00A32W4    4500187790     202203147116-4110-02             TERMINAL                 CCN000018000000018000FN00000000020220301000018000NNE   20220114123002W4144P0P  00000900000000594000000882232W414  HJYHK   006400630015
BI00A32W4    #4500187790    202203147282-6458-40             CONNECTOR                CCN000001000000001000FN00000000020220301000001000NNE   20220114123002W4142N0N  00000100000001206000001350532W414  HJYHK   005500360039
BI00A32W4    4500187795     202203147282-4855                HOUSING MALE ASS'Y       CCN000013200000013200FN00000000020220301000013200NNE   20220114123002W4L64N0N  00000120000001063200001283232W4L6  HJYHK-K 005500360039
BI00A32W4    4500187795     202203147114-6041                TERMINAL                 CCN000028800000028800FN00000000020220301000028800NNE   20220114123002W4L64P0P  00000360000000580700000824232W4L6  HJYHK-K 006400630015
BI00A32W4    4500187795     202203147283-1156                CONNECTOR                CCN000013600000013600FN00000000020220301000013600NNE   20220114123002W4L64N0N  00000080000000877600001078032W4L6  HJYHK-K 005600390040
BI00A32W4    @4500187795    202203147287-6634                HOUSING FEMALE ASS'Y     CCN000012000000012000FN00000000020220301000012000NNE   20220114123002W4L63N0N  00000240000001088400001337032W4L6  HJYHK-K 005500360039
BI00A32W6    SW22011QMW     202201147327-6870-30             MULTI FUSE               PCN000016128000001440FY00000144020220101000000000NNM00020220114153316    4N0N  00000028800001015200001181132W6    SYSYA-WJ005400370024
BI00A32W6    SW22011QMW     202201147327-6880-30             MULTI FUSE               PCN000016416000001728FY00000172820220101000000000NNM00020220114153316    4N0N  00000028800001012600001178532W6    SYSYA-WJ005400370024
BI00A32W6    SW22011QMW     202201147327-6884-30             MULTI FUSE               PCN000017280000004320FY00000432020220101000000000NNM00020220114153316    4N0N  00000028800000988900001154832W6    SYSYA-WJ005400370024
BI00B32W6    SW22031QMW     202202027C89-6868-30             SEALED ASSY FEMALE       CCN000015120000015120FN00000000020220301000015120NNMD0420220114123002    4N0N  00000252000000839200001119232W6    SYSYA-WJ005500360039
BI00B32W6    SW22032QMW     202202097C89-6868-30             SEALED ASSY FEMALE       CCN000025200000025200FN00000000020220301000025200NNMD0420220114123002    4N0N  00000252000000839200001119232W6    SYSYA-WJ005500360039
BI00B32W6    SW22033QMW     202202157C89-6868-30             SEALED ASSY FEMALE       CCN000025200000025200FN00000000020220301000025200NNMD0420220114123002    4N0N  00000252000000839200001119232W6    SYSYA-WJ005500360039
BI00B32W6    SW22034QMW     202202237C89-6868-30             SEALED ASSY FEMALE       CCN000017640000017640FN00000000020220301000017640NNMD0420220114130229    4N0N  00000252000000839200001119232W6    SYSYA-WJ005500360039
BI00B32W6    SW22032QMW     202202097C98-1145-4W             SQUIB SUB ASS'Y          CCN000010000000010000FN00000000020220301000010000NNMD0420220114123002    4N0N  00001000000000787900000944932W6    SYSYA-WJ005400370024
BI00B32W6    SW22033QMW     202202157C98-1145-4W             SQUIB SUB ASS'Y          CCN000010000000010000FN00000000020220301000010000NNMD0420220114123002    4N0N  00001000000000787900000944932W6    SYSYA-WJ005400370024
BI00B32W6    SW22034QMW     202202237C98-1145-4W             SQUIB SUB ASS'Y          CCN000010000000010000FN00000000020220301000010000NNMD0420220114130229    4N0N  00001000000000787900000944932W6    SYSYA-WJ005400370024
BI00B32W6    SW22031QMW     202202027288-6547                CONNECTOR MALE ASS'Y     CCN000008250000008250FN00000000020220301000008250NNMD0420220114123002    4N0N  00000075000001205300001340332W6    SYSYA-WJ005400370024
BI00B32W6    SW22032QMW     202202097288-6547                CONNECTOR MALE ASS'Y     CCN000008250000008250FN00000000020220301000008250NNMD0420220114123002    4N0N  00000075000001205300001340332W6    SYSYA-WJ005400370024
BI00B32W6    SW22033QMW     202202157288-6547                CONNECTOR MALE ASS'Y     CCN000007500000007500FN00000000020220301000007500NNMD0420220114123002    4N0N  00000075000001205300001340332W6    SYSYA-WJ005400370024
BI00B32W6    SW22034QMW     202202237288-6547                CONNECTOR MALE ASS'Y     CCN000007500000007500FN00000000020220301000007500NNMD0420220114130408    4N0N  00000075000001205300001340332W6    SYSYA-WJ005400370024
BI00B32W6    SW22032QMW     202202097289-3342                HOUSING FEMALE ASS'Y     CCN000016800000016800FN00000000020220301000016800NNMD0420220114123002    1N0N  00000240000000686400000901432W6    SYSYA-WJ005500360039
BI00B32W6    SW22033QMW     202202157289-3342                HOUSING FEMALE ASS'Y     CCN000019200000019200FN00000000020220301000019200NNMD0420220114130203    1N0N  00000240000000686400000901432W6    SYSYA-WJ005500360039
BI00B32W6    SW22034QMW     202202237289-3342                HOUSING FEMALE ASS'Y     CCN000024000000024000FN00000000020220301000024000NNMD0420220114130304    1N0N  00000240000000686400000901432W6    SYSYA-WJ005500360039
BI00B32W6    SW22031QMW     202202027289-3342-30             HOUSING FEMALE ASS'Y     CCN000024000000024000FN00000000020220301000024000NNMD0420220114123002    1N0N  00000240000000686400000901432W6    SYSYA-WJ005500360039
BI00B32W6    SW22032QMW     202202097289-3342-30             HOUSING FEMALE ASS'Y     CCN000021600000021600FN00000000020220301000021600NNMD0420220114123002    1N0N  00000240000000686400000901432W6    SYSYA-WJ005500360039
BI00B32W6    SW22033QMW     202202157289-3342-30             HOUSING FEMALE ASS'Y     CCN000019200000019200FN00000000020220301000019200NNMD0420220114123002    1N0N  00000240000000686400000901432W6    SYSYA-WJ005500360039
BI00B32W6    SW22034QMW     202202237289-3342-30             HOUSING FEMALE ASS'Y     CCN000021600000021600FN00000000020220301000021600NNMD0420220114130304    1N0N  00000240000000686400000901432W6    SYSYA-WJ005500360039
BI00B32W6    SW22033QMW     202202157327-6874-30             MULTI FUSE               CCN000006624000006624FN00000000020220301000006624NNMD0420220114123002    4N0N  00000028800000991400001157332W6    SYSYA-WJ005400370024
BI00B32W6    SW22034QMW     202202237327-6874-30             MULTI FUSE               CCN000002592000002592FN00000000020220301000002592NNMD0420220114130333    4N0N  00000028800000991400001157332W6    SYSYA-WJ005400370024
BI00B32W6    SW22033QMW     202202157327-6884-30             MULTI FUSE               CCN000006624000006624FN00000000020220301000006624NNMD0420220114123002    4N0N  00000028800000988900001154832W6    SYSYA-WJ005400370024
BI00B32W6    SW22034QMW     202202237327-6884-30             MULTI FUSE               CCN000002304000002304FN00000000020220301000002304NNMD0420220114130333    4N0N  00000028800000988900001154832W6    SYSYA-WJ005400370024
BI00B32W6    SW22031QMW     202202097288-6547                CONNECTOR MALE ASS'Y     CCN000003000000000000FY00000000020220301000000000NNMD0420220114115103    4N0N  00000075000001205300001340332W6    SYSYA-WJ005400370024
BI00B32W6    SW22031QMW     202202167288-6547                CONNECTOR MALE ASS'Y     CCN000003000000000000FY00000000020220301000000000NNMD0420220114115103    4N0N  00000075000001205300001340332W6    SYSYA-WJ005400370024
BI00B32W6    SW22032QMW     202203027288-6547                CONNECTOR MALE ASS'Y     CCN000003000000000000FY00000000020220301000000000NNMD0420220114115343    4N0N  00000075000001205300001340332W6    SYSYA-WJ005400370024
BI00B32W6    SW22032QMW     202203097288-6547                CONNECTOR MALE ASS'Y     CCN000003000000000000FY00000000020220301000000000NNMD0420220114115343    4N0N  00000075000001205300001340332W6    SYSYA-WJ005400370024
BI00B32W6    SW22033QMW     202203237288-6547                CONNECTOR MALE ASS'Y     CCN000002250000000000FY00000000020220301000000000NNMD0420220114115646    4N0N  00000075000001205300001340332W6    SYSYA-WJ005400370024
BI00B32W6    SW22033QMW     202203307288-6547                CONNECTOR MALE ASS'Y     CCN000003000000000000FY00000000020220301000000000NNMD0420220114115646    4N0N  00000075000001205300001340332W6    SYSYA-WJ005400370024
BI00B32W6    SW22034QMW     202204207288-6547                CONNECTOR MALE ASS'Y     CCN000002250000000000FY00000000020220301000000000NNMD0420220114130304    4N0N  00000075000001205300001340332W6    SYSYA-WJ005400370024
BI00B32W6    SW22034QMW     202204277288-6547                CONNECTOR MALE ASS'Y     CCN000003000000000000FY00000000020220301000000000NNMD0420220114130304    4N0N  00000075000001205300001340332W6    SYSYA-WJ005400370024
BI00A32W6    SW22011QMW     202201177327-6870-30             MULTI FUSE               PCN000005760000008064FN00000000020220101000008064NNM00020220114153316    4N0N  00000028800001015200001181132W6    SYSYA-WJ005400370024
BI00B32W6    SW22011QMW     202201197327-6880-30             MULTI FUSE               CCN000005760000006336FN00000000020220101000006336NNM00020220114134948    4N0N  00000028800001012600001178532W6    SYSYA-WJ005400370024
BI00A32W6    SW22011QMW     202201197327-6884-30             MULTI FUSE               PCN000007200000007200FN00000000020220101000007200NNM00020220114153015    4N0N  00000028800000988900001154832W6    SYSYA-WJ005400370024
BI00B32W7    SC22031JMW     202202097C89-6868-30             SEALED ASSY FEMALE       CCN000020160000020160FN00000000020220301000020160NNMD0420220114131341    4N0N  00000252000000839200001119232W7    SYSYA-CH005500360039
BI00B32W7    SC22032JMW     202202157C89-6868-30             SEALED ASSY FEMALE       CCN000020160000020160FN00000000020220301000020160NNMD0420220114131355    4N0N  00000252000000839200001119232W7    SYSYA-CH005500360039
BI00B32W9    4500187729     202203087116-4100-02             TERMINAL                 CCN000015000000015000FN00000000020220301000015000NNE   20220114123002W9  4P0P  00001500000000696000000990232W9    HKYHK   006400630015
BI00B32W9    #4500187743    202202017157-3950-80             SEAL RUBBER              CCN000040000000040000FN00000000020220201000040000NNE   20220114123002W9  2C0C  00004000000000154000000440332W9    HKYHK   002700430014
BI00B32W9    4500187789     202202087283-1968-30             CONNECTOR                CCN000001800000001800FN00000000020220201000001800NNE   20220114123002W9  1N0N  00000090000001140000001318332W9    HKYHK   005600390040
BI00A32X5    TIB1042        202201147289-3342-30             HOUSING FEMALE ASS'Y     CCN000074400000050400FY00005040020211201000000000NNMM0020220114160943X5  1N0N  00000240000000686400000901432X5    EPYNA-E 005500360039
BI00A32X5    TIB1043        202201177289-3342-30             HOUSING FEMALE ASS'Y     CCN000084000000084000FN00000000020211201000084000NNM00020220114154047X5  1N0N  00000240000000686400000901432X5    EPYNA-E 005500360039
BI00A32X5    TIB1036D       202201117289-3342-30             HOUSING FEMALE ASS'Y     CCN000024000000024000FY00002400020211001000000000NNEM0020220114135017X5  1N0N  00000240000000686400000901432X5    EPYNA-E 005500360039
BI00A32X5    TIB1042        202201207289-3342-30             HOUSING FEMALE ASS'Y     CCN000024000000024000FN00000000020211201000024000NNMM0020220114160943X5  1N0N  00000240000000686400000901432X5    EPYNA-E 005500360039
BI00B32Y4    MTH32041       202201117288-5000                HOUSING MALE ASS'Y       CCN000009744000009744FY00000974420220101000000000NNM00020220114135051    1N0N  00000033600000825200001035232Y4    BIYAB-I 005400370024
BI00B32Y4    MTH32041       202201117289-5000                HOUSING FEMALE ASS'Y     CCN000005776000005776FY00000577620220101000000000NNM00020220114135105    1N0N  00000030400000549000000759032Y4    BIYAB-I 005400370024
BI00B32Y4    MTH32043       202201117288-5000                HOUSING MALE ASS'Y       CCN000007056000007056FY00000705620211001000000000NNE00020220114135127    1N0N  00000033600000825200001035232Y4    BIYAB-I 005400370024
BI00B32Y4    MTH32043       202201117289-5000                HOUSING FEMALE ASS'Y     CCN000011856000011856FY00001185620211001000000000NNE00020220114135127    1N0N  00000030400000549000000759032Y4    BIYAB-I 005400370024
BI00B32Y4    ITA32041       202201117196-1461-06             TERMINAL FEMALE          CCN000024000000024000FY00002400020220401000000000NNE00020220114135411    4P0P  00002400000000386400000692932Y4    BIYAB-I 006400630015
BI00B32Y4    ITA32041       202201117327-6654-3W             BATTERY FUSE             CCN000002250000002304FY00000230420220401000000000NNE00020220114135411    4N0N  00000009600001132300001312432Y4    BIYAB-I 005500360039
BI00B32Y4    ITA32053       202202107158-3167-80             WIRE SEAL                CCN000240000000240000FN00000000020220501000240000NNED0420220114123002    1C0C  00002000000000048000000109032Y4    BIYAB-I 002700430014
BI00B32Y5    TTA32065       202203017289-3342                HOUSING FEMALE ASS'Y     CCN000016800000016800FN00000000020220601000016800NNE   20220114123002    1N0N  00000240000000686400000901432Y5    BZYBL   005500360039
BI00B32Y6    STAP32031      202201117B96-0805-02             TERMINAL FEMALE          CCN000045000000045000FY00004500020220301000000000NNM00020220114135318    4P0P  00002250000000558000000843232Y6    BSYBL-S 006400630015
BI00B32Y6    STAP32031      202201117298-1145-4W             SQUIB SUB ASS'Y          CCN000030000000030000FY00003000020220301000000000NNM00020220114135318    4N0N  00001000000000787900000944932Y6    BSYBL-S 005400370024
BI00B32Y6    STAP32031      202201117017-1180-02             TERMINAL                 CCN000072000000072000FY00007200020220301000000000NNM00020220114135318    4P0P  00007200000001065600001229032Y6    BSYBL-S 005100280028
BI00B32Y6    STAP32031      202201117017-1181-02             TERMINAL                 CCN000063000000063000FY00006300020220301000000000NNM00020220114135318    4P0P  00006300000001089900001266832Y6    BSYBL-S 005100280028
BI00B32Y6    STAP32031      202201117116-1685-02             TERMINAL                 CCN000192000000192000FY00019200020220301000000000NNM00020220114135318    4P0P  00002400000000897600001065232Y6    BSYBL-S 005100280028
BI00B32Y6    STAP32031      202201117116-1686-02             TERMINAL                 CCN000042000000042000FY00004200020220301000000000NNM00020220114135318    4P0P  00002100000000869400001021632Y6    BSYBL-S 005100280028
BI00B32Y6    STAP32031      202201117116-5044-02             TERMINAL                 CCN000248000000256000FY00025600020220301000000000NNM00020220114135318    4P0P  00001600000000641600000986332Y6    BSYBL-S 006400630017
BI00B32Y6    STAP32031      202201117196-0396-02             TERMINAL                 CCN000045000000045000FY00004500020220301000000000NNM00020220114135318    4P0P  00001500000000949500001112932Y6    BSYBL-S 002800510028
BI00B32Y6    STAP32031      202201117196-1102-02             TERMINAL                 CCN000045000000045000FY00004500020220301000000000NNM00020220114135318    4P0P  00002250000000405000000690232Y6    BSYBL-S 006400630015
BI00B32Y6    STAP32031      202201117270-8994                6P MODULE ASSEMBLY       CCN000010400000010400FY00001040020220301000000000NNM00020220114135318    4J0J  00000010000001098600001298632Y6    BSYBL-S 005400370024
BI00B32Y6    STAP32031      202201117282-4578-30             HOUSING MALE ASS'Y       CCN000008400000008400FY00000840020220301000000000NNM00020220114135318    4N0N  00000120000000782600000992632Y6    BSYBL-S 005500360039
BI00B32Y6    STAP32031      202201117283-1928-80             CONNECTOR                CCN000010000000010000FY00001000020220301000000000NNM00020220114135318    4N0N  00000200000001180000001358332Y6    BSYBL-S 005500360039
BI00B32Y6    STAP32031      202201117283-4854-40             CONNECTOR HOUSING        CCN000009600000009600FY00000960020220301000000000NNM00020220114135318    4N0N  00000240000000694100000914132Y6    BSYBL-S 005500360039
BI00B32Y6    STAP32031      202201117286-1915                CONNECTOR SUB ASSY       CCN000008000000008000FY00000800020220301000000000NNM00020220114135318    4N0N  00000160000000965600001165632Y6    BSYBL-S 005500360039
BI00B32Y6    STAP32031      202201117287-1915-90             CONNECTOR ASS'Y          CCN000009600000009600FY00000960020220301000000000NNM00020220114135318    4N0N  00000240000000666500000923132Y6    BSYBL-S 005500360039
BI00B32Y6    STAP32031      202201117289-6868-30             SEALED ASSY FEMALE       CCN000015120000015120FY00001512020220301000000000NNM00020220114135318    4N0N  00000252000000839200001119232Y6    BSYBL-S 005500360039
BI00B32Y6    STAP32031      202201117298-1853-10             HOUSING FEMALE ASS'Y     CCN000016800000019500FY00001950020220301000000000NNM00020220114135318    4N00  00000390000001240500001405832Y6    BSYBL-S 005400370024
BI00B32Y6    STAP32031      202201117298-4094-10             HOUSING FEMALE ASS'Y     CCN000006760000006760FY00000676020220301000000000NNM00020220114135318    4N0N  00000338000001097400001358732Y6    BSYBL-S 005400370024
BI00B32Y6    STAP32031      202201117327-6731-3W             BATTERY FUSE             CCN000008704000003840FY00000384020220301000000000NNM00020220114135318    4N0N  00000006400000697600000843032Y6    BSYBL-S 005400370024
BI00B32Y6    STAP32031      202201117327-6731-3W             BATTERY FUSE             CCN000004864000004864FY00000486420220301000000000NNM00020220114135318    4N0N  00000006400000697600000843032Y6    BSYBL-S 005400370024
