BI00B32AF    @TTB1094       20220128181AD2004ZZ              CIVUSAS-S 0.35X4 B       CCN000015900000006900FN00000000020210901000006900NNM24 20220114091223    1W    00000030000002799900000000032AF    HBYHVTB 000000000000UZ318132
BI00A32AF    @TTB1104       20211213181AD2002ZZ              CIVUSAS-S 0.35X2 B       PCN000110250000000000FY00000000020211001000000000NNM24 20220114151639    1W    00000045000001713700000000032AF    HBYHVTB 000000000000UZ41A032
BI00B32AG    @XG2202ALMW    20220121181E48031ZZ              CAVSAS-S 0.3X2 GY        CCN000004200000004200FN00000000020220201000004200NNE20 20220114102547    1W    00000035000002008700000000032AG    XGXGY   000000000000XU321001
BI00B32A7    ZZ21104LMW     2022011918000004570              AV 8 Y                   CCN000004300000004300FN00000000020211001000004300NNM22 20220114154601    1W    00000010000010466200000000032A7    ZZZZY   000000000000ZZ41A022
BI00B32CJ    TTQ1113        202201281801W003980              IVSSH 0.5F BR            CCN000012600000009000FN00000000020211101000009000NNM22 20220114095937    1W    00000180000000625000000000032CJ    QNYHVQN 000000000000US21A028
BI00B32D2    @DGTW2205      20211209181F21016ZZ              AVSSHCS-S 0.5FX2 B/BR    CCN000006000000003600FY00000360020220201000000000NNE20 20220114152017    1W    00000030000002531400000000032D2    TGYOT-G 000000000000KR41B017
BI00A32D2    @DGTW2205      20211117181F21016ZZ              AVSSHCS-S 0.5FX2 B/BR    PCN000002300000002400FY00000240020220201000000000NNE21 20220114152052    1W    00000030000002531400000000032D2    TGYOT-G 000000000000KR41B017
BI00B32G2    SA21104JMW     202201261801W003961              IVSSH 0.5F LG            CCN000001800000001800FN00000000020211001000001800NNM22 20220114094944    1W    00000180000000625000000000032G2    AISUAI  000000000000IZ41A005
BI00B32G2    SA21104JMW     202201261801W006940              IVSSH 0.35F W            CCN000010000000010000FN00000000020211001000010000NNM22 20220114095122    1W    00000250000000452000000000032G2    AISUAI  000000000000IZ41A021
BI00B32G2    SA21104JMW     202201261801W006952              IVSSH 0.35F P            CCN000005000000005000FN00000000020211001000005000NNM22 20220114095122    1W    00000250000000452000000000032G2    AISUAI  000000000000IZ41A018
BI00B32G2    SA21104JMW     202201261801W006961              IVSSH 0.35F LG           CCN000005000000005000FN00000000020211001000005000NNM22 20220114095122    1W    00000250000000452000000000032G2    AISUAI  000000000000IZ41A017
BI00B32H2    TAW1091        20220128180D0203943              AVSSH 0.5F W/B           CCN000003000000001500FN00000000020210901000001500NNM24 20220114095852    1W    00000150000000689000000000032H2    HVYHV   000000000000UH417063
BI00A32H2    @TAW1093       20210925181E48015ZZ              CAVSAS-S 0.5X1 GY        PCN000002400000000000FY00000000020210901000000000NNM24 20220114162408    1W    00000040000001900600000000032H2    HVYHV   000000000000UH218107
BI00B32H2    @TAW109D       20211008181AD2008ZZ              CIVUSAS-S 0.5X2 B        CCN000024400000000000FY00000000020210901000000000NNE22 20220114092928    1W    00000040000002028000000000032H2    HVYHV   000000000000UD218002
BI00A32H2    @TAW1101       20210929181AD2002ZZ              CIVUSAS-S 0.35X2 B       PCN000008100000000000FY00000000020211001000000000NNM10 20220114150409    1W    00000045000001713700000000032H2    HVYHV   000000000000UH11A022
BI00A32H2    @TAW1093       20210825181AD2008ZZ              CIVUSAS-S 0.5X2 B        PCN000012000000012000FY00001200020210901000000000NNM20 20220114151205    1W    00000040000002028000000000032H2    HVYHV   000000000000UH218100
BI00A32H2    @TAW1093       20210923181B32102S1              AVSSCS 0.5FX2 DGY        PCN000001500000000000FY00000000020210901000000000NNM10 20220114151400    1W    00000030000002903000000000032H2    HVYHV   000000000000UH218105
BI00B32H2    @TAW1093       20220121181E48015ZZ              CAVSAS-S 0.5X1 GY        CCN000000400000000400FN00000000020210901000000400NNM28 20220114151200    1W    00000040000001900600000000032H2    HVYHV   000000000000UH218107
BI00B32H8    21113KMW       20220128180D0204140              AVSSH 1.25F W            CCN000000800000000800FN00000000020211101000000800NNM22 20220114095732    1W    00000080000001458000000000032H8    TYTYC   000000000000LP11A061
BI00B32M1    @TV1094        20220127181AD2004ZZ              CIVUSAS-S 0.35X4 B       CCN000021600000021600FN00000000020210901000021600NNM21 20220114155841    1W    00000030000002799900000000032M1    VNYEV   000000000000VE318120
BI00B32M1    TV1104         20211014180D0204160              AVSSH 1.25F G            CCN000070400000003200FY00000320020211001000000000NNM00 20220114095304    1W    00000080000001458000000000032M1    VNYEV   000000000000VE41A056
BI00B32M1    TV1104         20211014180D0204150              AVSSH 1.25F R            CCN000047200000006400FY00000640020211001000000000NNM00 20220114095235    1W    00000080000001458000000000032M1    VNYEV   000000000000VE41A058
BI00B32M1    @TV1102        20210930181AD2002ZZ              CIVUSAS-S 0.35X2 B       CCN000072900000011250FY00001125020211001000000000NNM20 20220114150635    1W    00000045000001713700000000032M1    VNYEV   000000000000VE21A035
BI00B32M1    TV201D         2022021018007703730              AVSS 0.3F B              CCN000012000000012000FN00000000020220101000012000NNE   20220114132550    1W    00000200000000496000000000032M1    VNYEV   000000000000VN421003
BI00B32M1    TV201D         2022021018007703760              AVSS 0.3F G              CCN000008000000008000FN00000000020220101000008000NNE   20220114132550    1W    00000200000000496000000000032M1    VNYEV   000000000000VN421004
BI00B32M1    @TV201D        20220210181D69004ZZ              AVSSHCS 1.25FX2 B        CCN000000400000000400FN00000000020220101000000400NNE   20220114132549    1W    00000020000004357000000000032M1    VNYEV   000000000000VN421002
BI00B32M1    @TV201D        20220210181D6910235              AVSSHCS 0.5FX2 B/R       CCN000000600000000600FN00000000020220101000000600NNE   20220114132549    1W    00000030000002385000000000032M1    VNYEV   000000000000VN421001
BI00B32M1    TV1104         20220127180D0204150              AVSSH 1.25F R            CCN000040800000040800FN00000000020211001000040800NNM22 20220114095235    1W    00000080000001458000000000032M1    VNYEV   000000000000VE41A058
BI00B32M1    TV1104         20220127180D0204160              AVSSH 1.25F G            CCN000067200000067200FN00000000020211001000067200NNM22 20220114095304    1W    00000080000001458000000000032M1    VNYEV   000000000000VE41A056
BI00B32M1    @TV1102        20220120181AD2002ZZ              CIVUSAS-S 0.35X2 B       CCN000061650000061650FN00000000020211001000061650NNM22 20220114150635    1W    00000045000001713700000000032M1    VNYEV   000000000000VE21A035
BI00B32M8    PM2202BTMW     202201261801W004080              IVSSH 0.75F BR           CCN000001300000001300FN00000000020220201000001300NNE   20220114130508    1W    00000130000000882000000000032M8    PMPEMI  000000000000IB221001
BI00B32M8    PM2202C MW     2022020218007703930              AVSS 0.5F B              CCN000006000000006000FN00000000020220201000006000NNE   20220114130512    1W    00000150000000674000000000032M8    PMPEMI  000000000000IC321001
BI00B32P8    TAPAW-1123     2021111718000004590              AV 8 L                   CCN000016800000016300FY00001630020211201000000000NNM00 20220114100030    1W    00000010000010466200000000032P8    YIYTM   000000000000YM11B127
BI00B32P8    TAPAW-1123     2022012618000004590              AV 8 L                   CCN000000500000000500FN00000000020211201000000500NNM22 20220114100030    1W    00000010000010466200000000032P8    YIYTM   000000000000YM11B127
BI00B32Q8    EW22021TMW     202112221801W003990              IVSSH 0.5F L             CCN000154800000136800FY00013680020220201000000000NNM00 20220114100335    1W    00000180000000625000000000032Q8    EMEMI   000000000000MT11C017
BI00B32Q8    EW22021TMW     202201261801W003990              IVSSH 0.5F L             CCN000009000000009000FN00000000020220201000009000NNM22 20220114100335    1W    00000180000000625000000000032Q8    EMEMI   000000000000MT11C017
