BI00A32AF    @TTB1093       20211105181AD2001ZZ              CIVUSAS-S 0.35X1 B       PCN000013200000000000FY00000000020210901000000000NNM25 20220112161234    1W    00000055000001540800000000032AF    HBYHVTB 000000000000UZ218128
BI00B32CH    @SJ22023DMW    20220120181B32037Z5              AVSSCS 0.3FX1 DGY/L      CCN000006000000005000FN00000000020220201000005000NNM20 20220112134734    1W    00000050000001780000000000032CH    SJSAMIJF000000000000QY121001
BI00B32CH    SJ2202ADMW     202201201801W003930              IVSSH 0.5F B             CCN000064800000036000FN00000000020220201000036000NNE20 20220112134254    1W    00000180000000625000000000032CH    SJSAMIJF000000000000QV121001
BI00B32CH    SJ2202ADMW     202201201801W003960              IVSSH 0.5F G             CCN000021600000014400FN00000000020220201000014400NNE20 20220112134424    1W    00000180000000625000000000032CH    SJSAMIJF000000000000QV121003
BI00B32CH    SJ2202ADMW     202201201801W003950              IVSSH 0.5F R             CCN000048600000030600FN00000000020220201000030600NNE20 20220112134324    1W    00000180000000625000000000032CH    SJSAMIJF000000000000QV121006
BI00B32CH    SJ2202ADMW     202201201801W003940              IVSSH 0.5F W             CCN000043200000032400FN00000000020220201000032400NNE20 20220112134458    1W    00000180000000625000000000032CH    SJSAMIJF000000000000QV121008
BI00B32CH    SJ2202ADMW     202201201801W004030              IVSSH 0.75F B            CCN000016900000011700FN00000000020220201000011700NNE20 20220112134531    1W    00000130000000882000000000032CH    SJSAMIJF000000000000QV121010
BI00B32CH    SJ2202ADMW     202201201801W004070              IVSSH 0.75F Y            CCN000006500000003900FN00000000020220201000003900NNE20 20220112134559    1W    00000130000000882000000000032CH    SJSAMIJF000000000000QV121013
BI00A32CH    SJ2202ADMW     202201131801W003930              IVSSH 0.5F B             CCN000018000000000000FY00000000020220201000000000NNE10 20220112134254    1W    00000180000000625000000000032CH    SJSAMIJF000000000000QV121001
BI00A32CH    SJ2202ADMW     202201131801W003950              IVSSH 0.5F R             CCN000018000000018000FN00000000020220201000018000NNE22 20220112145127    1W    00000180000000625000000000032CH    SJSAMIJF000000000000QV121006
BI00A32CH    SJ2202ADMW     202201131801W003960              IVSSH 0.5F G             CCN000007200000007200FN00000000020220201000007200NNE22 20220112145127    1W    00000180000000625000000000032CH    SJSAMIJF000000000000QV121003
BI00A32CH    SJ2202ADMW     202201131801W003940              IVSSH 0.5F W             CCN000010800000010800FN00000000020220201000010800NNE22 20220112145127    1W    00000180000000625000000000032CH    SJSAMIJF000000000000QV121008
BI00A32CH    SJ2202ADMW     202201131801W004030              IVSSH 0.75F B            CCN000005200000005200FN00000000020220201000005200NNE22 20220112145127    1W    00000130000000882000000000032CH    SJSAMIJF000000000000QV121010
BI00A32CH    SJ2202ADMW     202201131801W004070              IVSSH 0.75F Y            CCN000002600000002600FN00000000020220201000002600NNE22 20220112145127    1W    00000130000000882000000000032CH    SJSAMIJF000000000000QV121013
BI00A32CH    @SJ22023DMW    20220113181B32037Z5              AVSSCS 0.3FX1 DGY/L      CCN000001000000001000FN00000000020220201000001000NNM21 20220112145127    1W    00000050000001780000000000032CH    SJSAMIJF000000000000QY121001
BI00B32CJ    @TTQ202D       20220211181E48027ZZ              CAVSAS-S 0.5X2 GY/P      CCN000001200000001200FN00000000020220201000001200NNE   20220112143126    1W    00000030000002561000000000032CJ    QNYHVQN 000000000000UP421001
BI00B32CJ    @TTQ202D       20220211181E48029ZZ              CAVSAS-S 0.5X4 GY        CCN000001200000001200FN00000000020220201000001200NNE   20220112143126    1W    00000020000003995000000000032CJ    QNYHVQN 000000000000UP421002
BI00B32DE    TT1094         20211007180D0203940              AVSSH 0.5F W             CCN000039000000039000FY00003900020210901000000000NNM00 20220112104140    1W    00000150000000689000000000032DE    TVYEV-TV000000000000VT318194
BI00B32DE    @TT1104        20220120181F21016ZZ              AVSSHCS-S 0.5FX2 B/BR    CCN000003600000003600FN00000000020211001000003600NNM21 20220112163755    1W    00000030000002531400000000032DE    TVYEV-TV000000000000VT41A035
BI00B32DE    TT1094         20220114180D0203940              AVSSH 0.5F W             CCN000001500000001500FN00000000020210901000001500NNM30 20220112110218    1W    00000150000000689000000000032DE    TVYEV-TV000000000000VT318194
BI00B32DG    @RH2024B       20220210181E48048ZZ              CAVSAS-S 0.3X2 GY/O      CCN000006300000002800FN00000000020220201000002800NNE00 20220112115508    1W    00000035000002008700000000032DG    BFSAIBF 000000000000GS421001
BI00A32DG    @RH2024B       20220113181E48048ZZ              CAVSAS-S 0.3X2 GY/O      CCN000003500000003500FN00000000020220201000003500NNE20 20220112133749    1W    00000035000002008700000000032DG    BFSAIBF 000000000000GS421001
BI00B32D1    DFTW2214       2022021018000004534              AV 8 B/W                 CCN000006100000006100FN00000000020220401000006100NNM   20220112133343    1W    00000010000010466200000000032D1    TOYOT-K 000000000000KO421056
BI00B32D1    DFTW2214       2022021018000004535              AV 8 B/R                 CCN000006100000006100FN00000000020220401000006100NNM   20220112133343    1W    00000010000010466200000000032D1    TOYOT-K 000000000000KO421055
BI00B32D1    DFTW2214       2022021018000004540              AV 8 W                   CCN000012000000012000FN00000000020220401000012000NNM   20220112133343    1W    00000010000010466200000000032D1    TOYOT-K 000000000000KO421058
BI00B32D1    DFTW2214       2022021018000004543              AV 8 W/B                 CCN000012200000012200FN00000000020220401000012200NNM   20220112133343    1W    00000010000010466200000000032D1    TOYOT-K 000000000000KO421059
BI00B32D1    DFTW2214       2022021018000004550              AV 8 R                   CCN000001000000001000FN00000000020220401000001000NNM   20220112133343    1W    00000010000010466200000000032D1    TOYOT-K 000000000000KO421057
BI00B32D1    @DFTW2214      20220210181AD2002ZZ              CIVUSAS-S 0.35X2 B       CCN000014400000014400FN00000000020220401000014400NNM   20220112133342    1W    00000045000001713700000000032D1    TOYOT-K 000000000000KO421027
BI00B32D1    @DFTW2214      20220210181AD2003ZZ              CIVUSAS-S 0.35X3 B       CCN000003850000003850FN00000000020220401000003850NNM   20220112133342    1W    00000035000002172100000000032D1    TOYOT-K 000000000000KO421028
BI00B32D1    @DFTW2214      20220210181AD2004ZZ              CIVUSAS-S 0.35X4 B       CCN000021600000021600FN00000000020220401000021600NNM   20220112133342    1W    00000030000002799900000000032D1    TOYOT-K 000000000000KO421029
BI00B32D1    @DFTW2214      20220210181E48031ZZ              CAVSAS-S 0.3X2 GY        CCN000006300000006300FN00000000020220401000006300NNM   20220112133342    1W    00000035000002008700000000032D1    TOYOT-K 000000000000KO421030
BI00B32D1    @DFTW2214      20220210181E48037ZZ              CAVSAS-S 0.3X4 GY        CCN000006750000006750FN00000000020220401000006750NNM   20220112133342    1W    00000025000003262000000000032D1    TOYOT-K 000000000000KO421033
BI00B32D1    @DFTW2214      20220210181E48041ZZ              CAVSAS-S 0.3X2 GY/R      CCN000007350000007350FN00000000020220401000007350NNM   20220112133342    1W    00000035000002008700000000032D1    TOYOT-K 000000000000KO421032
BI00B32D1    @DFTW2214      20220210181E48072ZZ              CAVSAS-S 0.3X2 GY/G      CCN000000350000000350FN00000000020220401000000350NNM   20220112133342    1W    00000035000002008700000000032D1    TOYOT-K 000000000000KO421031
BI00B32D1    @DFTW2214      20220210181E50002ZZ              AVSSCS-S 0.3FX2 DGY/G    CCN000009100000009100FN00000000020220401000009100NNM   20220112133342    1W    00000035000002165000000000032D1    TOYOT-K 000000000000KO421039
BI00B32D1    @DFTW2214      20220210181E50004ZZ              AVSSCS-S 0.5FX1 DGY      CCN000009200000009200FN00000000020220401000009200NNM   20220112133342    1W    00000040000001909700000000032D1    TOYOT-K 000000000000KO421034
BI00B32D1    @DFTW2214      20220210181E50005ZZ              AVSSCS-S 0.5FX1 DGY/W    CCN000002400000002400FN00000000020220401000002400NNM   20220112133342    1W    00000040000001909700000000032D1    TOYOT-K 000000000000KO421037
BI00B32D1    @DFTW2214      20220210181E50007ZZ              AVSSCS-S 0.5FX1 DGY/L    CCN000003600000003600FN00000000020220401000003600NNM   20220112133342    1W    00000040000001909700000000032D1    TOYOT-K 000000000000KO421035
BI00B32D1    @DFTW2214      20220210181E50014ZZ              AVSSCS-S 0.5FX1 DGY/R    CCN000000800000000800FN00000000020220401000000800NNM   20220112133342    1W    00000040000001909700000000032D1    TOYOT-K 000000000000KO421036
BI00B32D1    @DFTW2214      20220210181E50020ZZ              AVSSCS-S 0.3FX2 DGY/R    CCN000003500000003500FN00000000020220401000003500NNM   20220112133342    1W    00000035000002165000000000032D1    TOYOT-K 000000000000KO421041
BI00B32D1    @DFTW2214      20220210181E50021ZZ              AVSSCS-S 0.3FX2 DGY/P    CCN000005250000005250FN00000000020220401000005250NNM   20220112133342    1W    00000035000002165000000000032D1    TOYOT-K 000000000000KO421040
BI00B32D1    @DFTW2214      20220210181E50036ZZ              AVSSCS-S 0.3FX2 DGY      CCN000003500000003500FN00000000020220401000003500NNM   20220112133342    1W    00000035000002165000000000032D1    TOYOT-K 000000000000KO421038
BI00B32D2    DGTW2214       2022021018000004530              AV 8 B                   CCN000099900000099900FN00000000020220401000099900NNM   20220112134543    1W    00000010000010466200000000032D2    TGYOT-G 000000000000KR421043
BI00B32D2    DGTW2214       2022021018000004540              AV 8 W                   CCN000030100000030100FN00000000020220401000030100NNM   20220112134543    1W    00000010000010466200000000032D2    TGYOT-G 000000000000KR421045
BI00B32D2    DGTW2214       2022021018000004543              AV 8 W/B                 CCN000010200000010200FN00000000020220401000010200NNM   20220112134543    1W    00000010000010466200000000032D2    TGYOT-G 000000000000KR421046
BI00B32D2    DGTW2214       2022021018000004590              AV 8 L                   CCN000018700000018700FN00000000020220401000018700NNM   20220112134543    1W    00000010000010466200000000032D2    TGYOT-G 000000000000KR421044
BI00B32D2    @DGTW2214      20220210181AD2002ZZ              CIVUSAS-S 0.35X2 B       CCN000035550000035550FN00000000020220401000035550NNM   20220112134542    1W    00000045000001713700000000032D2    TGYOT-G 000000000000KR421018
BI00B32D2    @DGTW2214      20220210181AD2003ZZ              CIVUSAS-S 0.35X3 B       CCN000020650000020650FN00000000020220401000020650NNM   20220112134542    1W    00000035000002172100000000032D2    TGYOT-G 000000000000KR421019
BI00B32D2    @DGTW2214      20220210181AD2004ZZ              CIVUSAS-S 0.35X4 B       CCN000022200000022200FN00000000020220401000022200NNM   20220112134542    1W    00000030000002799900000000032D2    TGYOT-G 000000000000KR421020
BI00B32D2    @DGTW2214      20220210181E48037ZZ              CAVSAS-S 0.3X4 GY        CCN000011750000011750FN00000000020220401000011750NNM   20220112134542    1W    00000025000003262000000000032D2    TGYOT-G 000000000000KR421021
BI00B32D2    @DGTW2214      20220210181E50004ZZ              AVSSCS-S 0.5FX1 DGY      CCN000025200000025200FN00000000020220401000025200NNM   20220112134542    1W    00000040000001909700000000032D2    TGYOT-G 000000000000KR421022
BI00B32D2    @DGTW2214      20220210181E50005ZZ              AVSSCS-S 0.5FX1 DGY/W    CCN000018800000018800FN00000000020220401000018800NNM   20220112134542    1W    00000040000001909700000000032D2    TGYOT-G 000000000000KR421024
BI00B32D2    @DGTW2214      20220210181E50007ZZ              AVSSCS-S 0.5FX1 DGY/L    CCN000005600000005600FN00000000020220401000005600NNM   20220112134542    1W    00000040000001909700000000032D2    TGYOT-G 000000000000KR421023
BI00B32D2    @DGTW2214      20220210181E50016ZZ              AVSSCS-S 0.5FX2 DGY/R    CCN000005700000005700FN00000000020220401000005700NNM   20220112134542    1W    00000030000003096000000000032D2    TGYOT-G 000000000000KR421025
BI00B32D2    @DGTW2214      20220210181E50036ZZ              AVSSCS-S 0.3FX2 DGY      CCN000009450000009450FN00000000020220401000009450NNM   20220112134542    1W    00000035000002165000000000032D2    TGYOT-G 000000000000KR421026
BI00B32D2    @DGTW2214      20220210181F21014ZZ              AVSSHCS-S 0.5FX2 B/L     CCN000010500000010500FN00000000020220401000010500NNM   20220112134542    1W    00000030000002531400000000032D2    TGYOT-G 000000000000KR421028
BI00B32D2    @DGTW2214      20220210181F21016ZZ              AVSSHCS-S 0.5FX2 B/BR    CCN000004800000004800FN00000000020220401000004800NNM   20220112134542    1W    00000030000002531400000000032D2    TGYOT-G 000000000000KR421027
BI00B32D2    @DGTW2214      20220210181F21031ZZ              AVSSHCS-S 1.25FX2 B/P    CCN000005400000005400FN00000000020220401000005400NNM   20220112134542    1W    00000020000004267300000000032D2    TGYOT-G 000000000000KR421029
BI00A32H2    @TAW1093       20211027181AD2001ZZ              CIVUSAS-S 0.35X1 B       PCN000012100000000000FY00000000020210901000000000NNM23 20220112155340    1W    00000055000001540800000000032H2    HVYHV   000000000000UH218098
BI00B32H2    @TAW1103       20211008181AD2004ZZ              CIVUSAS-S 0.35X4 B       CCN000081000000000000FY00000000020211001000000000NNM20 20220112160904    1W    00000030000002799900000000032H2    HVYHV   000000000000UH31A032
BI00B32H2    @TAW1114       20211105181AD2004ZZ              CIVUSAS-S 0.35X4 B       CCN000088800000047100FY00004710020211101000000000NNM22 20220112161132    1W    00000030000002799900000000032H2    HVYHV   000000000000UJ31A005
BI00A32H2    @TAW1111       20211221181AD2004ZZ              CIVUSAS-S 0.35X4 B       PCN000010500000000000FY00000000020211101000000000NNM23 20220112155825    1W    00000030000002799900000000032H2    HVYHV   000000000000UJ519006
BI00A32H2    @TAW1111       20211223181AD2004ZZ              CIVUSAS-S 0.35X4 B       PCN000010500000000000FY00000000020211101000000000NNM24 20220112155717    1W    00000030000002799900000000032H2    HVYHV   000000000000UJ519006
BI00A32H2    @TAW1111       20211224181AD2004ZZ              CIVUSAS-S 0.35X4 B       PCN000015000000000000FY00000000020211101000000000NNM25 20220112160051    1W    00000030000002799900000000032H2    HVYHV   000000000000UJ519006
BI00B32H2    @TAW202J       20220204181E48013ZZ              CAVSAS-S 0.3X3 GY        CCN000000500000000500FN00000000020220201000000500NNE   20220112111346    1W    00000025000002778200000000032H2    HVYHV   000000000000UI321002
BI00B32H2    @TAW202J       20220204181E48022ZZ              CAVSAS-S 0.5X2 GY        CCN000000900000000900FN00000000020220201000000900NNE   20220112111346    1W    00000030000002561000000000032H2    HVYHV   000000000000UI321001
BI00B32H2    TAW203A        2022021118007704150              AVSS 1.25F R             CCN000001600000001600FN00000000020220301000001600NNE   20220112110156    1W    00000080000001389000000000032H2    HVYHV   000000000000UE421001
BI00B32H2    TAW203B        2022021818007704150              AVSS 1.25F R             CCN000000800000000800FN00000000020220301000000800NNE   20220112110158    1W    00000080000001389000000000032H2    HVYHV   000000000000UB122001
BI00B32H2    TAW203C        2022022518000004540              AV 8 W                   CCN000002500000002500FN00000000020220301000002500NNE   20220112110212    1W    00000010000010466200000000032H2    HVYHV   000000000000UC222001
BI00B32M3    SM2202B MW     2022020318007703940              AVSS 0.5F W              CCN000001500000001500FN00000000020220201000001500NNE   20220112132849    1W    00000150000000674000000000032M3    SASAMI  000000000000QF321003
BI00B32M3    SM2202B MW     20220203180D0204080              AVSSH 0.75F BR           CCN000001000000001000FN00000000020220201000001000NNE   20220112132849    1W    00000100000000934000000000032M3    SASAMI  000000000000QF321001
BI00B32M3    SM2202B MW     20220203180D0204052              AVSSH 0.75F P            CCN000001000000001000FN00000000020220201000001000NNE   20220112132849    1W    00000100000000934000000000032M3    SASAMI  000000000000QF321002
BI00B32M3    @SM2202BMMW    20220210181E50011ZZ              AVSSCS-S 0.5FX2 DGY/Y    CCN000001200000001200FN00000000020220201000001200NNE   20220112132848    1W    00000030000003096000000000032M3    SASAMI  000000000000QG421001
BI00B32M4    @TH2024A       20220210181B32039S1              AVSSCS 0.5FX1 DGY        CCN000004000000002000FN00000000020220201000002000NNE00 20220112135941    1W    00000040000002289000000000032M4    SISAI   000000000000GN421001
BI00B32M4    @TH2024A       20220210181B32039Y6              AVSSCS 0.5FX1 DGY/G      CCN000015600000007600FN00000000020220201000007600NNE00 20220112140108    1W    00000040000002289000000000032M4    SISAI   000000000000GN421002
BI00B32M4    @TH2024A       20220210181CQ7003ZZ              IVSSHCS-S 0.5FX2 B(B,W)  CCN000006300000006000FN00000000020220201000006000NNE00 20220112140204    1W    00000030000002350200000000032M4    SISAI   000000000000GN421003
BI00A32M4    @TH2024A       20220114181B32039S1              AVSSCS 0.5FX1 DGY        CCN000002000000002000FN00000000020220201000002000NNE20 20220112144839    1W    00000040000002289000000000032M4    SISAI   000000000000GN421001
BI00A32M4    @TH2024A       20220114181B32039Y6              AVSSCS 0.5FX1 DGY/G      CCN000008000000008000FN00000000020220201000008000NNE20 20220112144839    1W    00000040000002289000000000032M4    SISAI   000000000000GN421002
BI00A32M4    @TH2024A       20220114181CQ7003ZZ              IVSSHCS-S 0.5FX2 B(B,W)  CCN000000300000000300FN00000000020220201000000300NNE20 20220112144839    1W    00000030000002350200000000032M4    SISAI   000000000000GN421003
BI00B32Q8    EW22032 MW     2022011918009604443              AVS 5 W/B                CCN000009400000009400FN00000000020220301000009400NNM20 20220112100358    1W    00000020000005981000000000032Q8    EMEMI   000000000000MI321036
BI00B32R8    TT2202BAMW     20220201180D0203935              AVSSH 0.5F B/R           CCN000003000000003000FN00000000020220201000003000NNE   20220112175906    1W    00000150000000689000000000032R8    TTTJY   000000000000NX321001
BI00B32R8    TT2202BAMW     20220201180D0203937              AVSSH 0.5F B/Y           CCN000001500000001500FN00000000020220201000001500NNE   20220112175906    1W    00000150000000689000000000032R8    TTTJY   000000000000NX321002
BI00B32R8    TT2202BAMW     20220201180D0203980              AVSSH 0.5F BR            CCN000007500000007500FN00000000020220201000007500NNE   20220112175906    1W    00000150000000689000000000032R8    TTTJY   000000000000NX321003
BI00B32R8    TT2202BAMW     20220201180D0203963              AVSSH 0.5F G/B           CCN000001500000001500FN00000000020220201000001500NNE   20220112175906    1W    00000150000000689000000000032R8    TTTJY   000000000000NX321004
BI00B32R8    TT2202BAMW     20220201180D0203965              AVSSH 0.5F G/R           CCN000001500000001500FN00000000020220201000001500NNE   20220112175906    1W    00000150000000689000000000032R8    TTTJY   000000000000NX321005
BI00B32R8    TT2202BAMW     20220201180D0203967              AVSSH 0.5F G/Y           CCN000001500000001500FN00000000020220201000001500NNE   20220112175906    1W    00000150000000689000000000032R8    TTTJY   000000000000NX321006
BI00B32R8    TT2202BAMW     20220201180D0203993              AVSSH 0.5F L/B           CCN000003000000003000FN00000000020220201000003000NNE   20220112175906    1W    00000150000000689000000000032R8    TTTJY   000000000000NX321007
BI00B32R8    TT2202BAMW     20220201180D0203995              AVSSH 0.5F L/R           CCN000001500000001500FN00000000020220201000001500NNE   20220112175906    1W    00000150000000689000000000032R8    TTTJY   000000000000NX321008
BI00B32R8    TT2202BAMW     20220201180D0203997              AVSSH 0.5F L/Y           CCN000001500000001500FN00000000020220201000001500NNE   20220112175906    1W    00000150000000689000000000032R8    TTTJY   000000000000NX321009
BI00B32R8    TT2202BAMW     20220201180D0203961              AVSSH 0.5F LG            CCN000001500000001500FN00000000020220201000001500NNE   20220112175906    1W    00000150000000689000000000032R8    TTTJY   000000000000NX321010
BI00B32R8    TT2202BAMW     20220201180D0203917              AVSSH 0.5F LG/B          CCN000003000000003000FN00000000020220201000003000NNE   20220112175906    1W    00000150000000689000000000032R8    TTTJY   000000000000NX321011
BI00B32R8    TT2202BAMW     20220201180D02039G6              AVSSH 0.5F P/L           CCN000003000000003000FN00000000020220201000003000NNE   20220112175906    1W    00000150000000689000000000032R8    TTTJY   000000000000NX321012
BI00B32R8    TT2202BAMW     20220201180D0203959              AVSSH 0.5F R/L           CCN000001500000001500FN00000000020220201000001500NNE   20220112175906    1W    00000150000000689000000000032R8    TTTJY   000000000000NX321013
BI00B32R8    TT2202BAMW     20220201180D0203992              AVSSH 0.5F V             CCN000001500000001500FN00000000020220201000001500NNE   20220112175906    1W    00000150000000689000000000032R8    TTTJY   000000000000NX321014
BI00B32R8    TT2202BAMW     20220201180D0203943              AVSSH 0.5F W/B           CCN000003000000003000FN00000000020220201000003000NNE   20220112175906    1W    00000150000000689000000000032R8    TTTJY   000000000000NX321015
BI00B32R8    TT2202BAMW     20220201180D0203949              AVSSH 0.5F W/L           CCN000001500000001500FN00000000020220201000001500NNE   20220112175906    1W    00000150000000689000000000032R8    TTTJY   000000000000NX321016
BI00B32R8    TT2202BAMW     20220201180D0203976              AVSSH 0.5F Y/G           CCN000001500000001500FN00000000020220201000001500NNE   20220112175906    1W    00000150000000689000000000032R8    TTTJY   000000000000NX321017
BI00B32R8    TT2202BAMW     20220201180D0204043              AVSSH 0.75F W/B          CCN000001000000001000FN00000000020220201000001000NNE   20220112175906    1W    00000100000000934000000000032R8    TTTJY   000000000000NX321018
BI00B32R8    TT2202BAMW     20220201180D0204180              AVSSH 1.25F BR           CCN000001600000001600FN00000000020220201000001600NNE   20220112175906    1W    00000080000001458000000000032R8    TTTJY   000000000000NX321019
BI00B32R8    TT2202BAMW     20220201180D0204159              AVSSH 1.25F R/L          CCN000000800000000800FN00000000020220201000000800NNE   20220112175906    1W    00000080000001458000000000032R8    TTTJY   000000000000NX321020
BI00B32R8    TT2202BAMW     20220201180D0204143              AVSSH 1.25F W/B          CCN000001600000001600FN00000000020220201000001600NNE   20220112175906    1W    00000080000001458000000000032R8    TTTJY   000000000000NX321021
BI00A32W2    HN22024NMW     2022011418000004560              AV 8 G                   CCN000000400000000400FN00000000020220201000000400NNM20 20220112114456    1W    00000010000010466200000000032W2    HNHNY   000000000000HN221002
BI00A32W2    @HN22024NMW    20220114181B32116Y9              AVSSCS 0.3FX2 DGY/P      CCN000000350000000350FN00000000020220201000000350NNM20 20220112114444    1W    00000035000002276000000000032W2    HNHNY   000000000000HN221001
BI00A32W2    HN22024WMW     2022011418000004530              AV 8 B                   CCN000002200000002200FN00000000020220201000002200NNM20 20220112114833    1W    00000010000010466200000000032W2    HNHNY   000000000000HW221001
BI00A32W2    HN22024WMW     2022011418000004550              AV 8 R                   CCN000006000000006000FN00000000020220201000006000NNM20 20220112114833    1W    00000010000010466200000000032W2    HNHNY   000000000000HW221002
BI00B32W4    4500187592     2022020118009603930              AVS 0.5 B                CCN000001000000001000FN00000000020220201000001000NNE   20220112152410W42 1W    00000100000000850000000000032W42   HJYHK-J 000000000000OS321004
BI00B32W4    4500187592     2022020118009603960              AVS 0.5 G                CCN000001000000001000FN00000000020220201000001000NNE   20220112152410W42 1W    00000100000000850000000000032W42   HJYHK-J 000000000000OS321005
BI00B32W4    4500187592     2022020118009603964              AVS 0.5 G/W              CCN000001000000001000FN00000000020220201000001000NNE   20220112152410W42 1W    00000100000000850000000000032W42   HJYHK-J 000000000000OS321006
BI00B32W4    4500187592     2022020118009603990              AVS 0.5 L                CCN000001000000001000FN00000000020220201000001000NNE   20220112152410W42 1W    00000100000000850000000000032W42   HJYHK-J 000000000000OS321007
BI00B32W4    4500187592     2022020118009603950              AVS 0.5 R                CCN000001000000001000FN00000000020220201000001000NNE   20220112152410W42 1W    00000100000000850000000000032W42   HJYHK-J 000000000000OS321008
BI00B32W4    4500187592     2022020118009603940              AVS 0.5 W                CCN000001000000001000FN00000000020220201000001000NNE   20220112152410W42 1W    00000100000000850000000000032W42   HJYHK-J 000000000000OS321009
BI00B32W4    4500187592     2022020118009604030              AVS 0.85 B               CCN000002000000002000FN00000000020220201000002000NNE   20220112152410W42 1W    00000100000001167700000000032W42   HJYHK-J 000000000000OS321010
BI00B32W4    4500187592     2022020118009604060              AVS 0.85 G               CCN000001000000001000FN00000000020220201000001000NNE   20220112152410W42 1W    00000100000001167700000000032W42   HJYHK-J 000000000000OS321011
BI00B32W4    4500187592     2022020118009604041              AVS 0.85 GY              CCN000001000000001000FN00000000020220201000001000NNE   20220112152410W42 1W    00000100000001167700000000032W42   HJYHK-J 000000000000OS321012
BI00B32W4    4500187592     2022020118009604090              AVS 0.85 L               CCN000001000000001000FN00000000020220201000001000NNE   20220112152410W42 1W    00000100000001167700000000032W42   HJYHK-J 000000000000OS321013
BI00B32W4    4500187592     2022020118009604094              AVS 0.85 L/W             CCN000001000000001000FN00000000020220201000001000NNE   20220112152410W42 1W    00000100000001167700000000032W42   HJYHK-J 000000000000OS321014
BI00B32W4    4500187592     2022020118009604052              AVS 0.85 P               CCN000001000000001000FN00000000020220201000001000NNE   20220112152410W42 1W    00000100000001167700000000032W42   HJYHK-J 000000000000OS321015
BI00B32W4    4500187592     2022020118009604050              AVS 0.85 R               CCN000001000000001000FN00000000020220201000001000NNE   20220112152410W42 1W    00000100000001167700000000032W42   HJYHK-J 000000000000OS321016
BI00B32W4    4500187592     2022020118009604040              AVS 0.85 W               CCN000001000000001000FN00000000020220201000001000NNE   20220112152410W42 1W    00000100000001167700000000032W42   HJYHK-J 000000000000OS321017
BI00B32W4    4500187592     2022020118009604070              AVS 0.85 Y               CCN000001000000001000FN00000000020220201000001000NNE   20220112152410W42 1W    00000100000001167700000000032W42   HJYHK-J 000000000000OS321018
BI00B32W4    4500187592     2022020118009604130              AVS 1.25 B               CCN000000800000000800FN00000000020220201000000800NNE   20220112152410W42 1W    00000080000001643000000000032W42   HJYHK-J 000000000000OS321019
BI00B32W4    4500187592     2022020118009604230              AVS 2 B                  CCN000000500000000500FN00000000020220201000000500NNE   20220112152410W42 1W    00000050000002456500000000032W42   HJYHK-J 000000000000OS321020
BI00B32W4    4500187592     2022020118009604250              AVS 2 R                  CCN000000500000000500FN00000000020220201000000500NNE   20220112152410W42 1W    00000050000002456500000000032W42   HJYHK-J 000000000000OS321021
BI00B32W4    4500187592     2022020118009604330              AVS 3 B                  CCN000000400000000400FN00000000020220201000000400NNE   20220112152410W42 1W    00000040000003831600000000032W42   HJYHK-J 000000000000OS321022
BI00B32W4    4500187592     2022020118007704130              AVSS 1.25F B             CCN000000800000000800FN00000000020220201000000800NNE   20220112152410W42 1W    00000080000001389000000000032W42   HJYHK-J 000000000000OS321001
BI00B32W4    4500187592     2022020118007704150              AVSS 1.25F R             CCN000000800000000800FN00000000020220201000000800NNE   20220112152410W42 1W    00000080000001389000000000032W42   HJYHK-J 000000000000OS321002
BI00B32W4    4500187592     2022020118007704230              AVSS 2F B                CCN000000500000000500FN00000000020220201000000500NNE   20220112152410W42 1W    00000050000002126400000000032W42   HJYHK-J 000000000000OS321003
BI00B32W4    4500187592     2022020118018403730              CAVS 0.3 B               CCN000002000000002000FN00000000020220201000002000NNE   20220112152410W42 1W    00000200000000471000000000032W42   HJYHK-J 000000000000OS321023
BI00B32W4    4500187592     2022020118018403739              CAVS 0.3 B/L             CCN000002000000002000FN00000000020220201000002000NNE   20220112152410W42 1W    00000200000000471000000000032W42   HJYHK-J 000000000000OS321024
BI00B32W4    4500187592     2022020118018403735              CAVS 0.3 B/R             CCN000002000000002000FN00000000020220201000002000NNE   20220112152410W42 1W    00000200000000471000000000032W42   HJYHK-J 000000000000OS321025
BI00B32W4    4500187592     2022020118018403734              CAVS 0.3 B/W             CCN000002000000002000FN00000000020220201000002000NNE   20220112152410W42 1W    00000200000000471000000000032W42   HJYHK-J 000000000000OS321026
BI00B32W4    4500187592     2022020118018403751              CAVS 0.3 O               CCN000002000000002000FN00000000020220201000002000NNE   20220112152410W42 1W    00000200000000471000000000032W42   HJYHK-J 000000000000OS321027
BI00B32W4    4500187592     2022020118018403756              CAVS 0.3 R/G             CCN000002000000002000FN00000000020220201000002000NNE   20220112152410W42 1W    00000200000000471000000000032W42   HJYHK-J 000000000000OS321028
BI00B32W4    4500187592     2022020118018403930              CAVS 0.5 B               CCN000001500000001500FN00000000020220201000001500NNE   20220112152410W42 1W    00000150000000677000000000032W42   HJYHK-J 000000000000OS321029
BI00B32W4    4500187592     2022020118018403936              CAVS 0.5 B/G             CCN000001500000001500FN00000000020220201000001500NNE   20220112152410W42 1W    00000150000000677000000000032W42   HJYHK-J 000000000000OS321030
BI00B32W4    4500187592     2022020118018403939              CAVS 0.5 B/L             CCN000001500000001500FN00000000020220201000001500NNE   20220112152410W42 1W    00000150000000677000000000032W42   HJYHK-J 000000000000OS321031
BI00B32W4    4500187592     2022020118018403935              CAVS 0.5 B/R             CCN000001500000001500FN00000000020220201000001500NNE   20220112152410W42 1W    00000150000000677000000000032W42   HJYHK-J 000000000000OS321032
BI00B32W4    4500187592     2022020118018403934              CAVS 0.5 B/W             CCN000001500000001500FN00000000020220201000001500NNE   20220112152410W42 1W    00000150000000677000000000032W42   HJYHK-J 000000000000OS321033
BI00B32W4    4500187592     2022020118018403987              CAVS 0.5 BR/Y            CCN000001500000001500FN00000000020220201000001500NNE   20220112152410W42 1W    00000150000000677000000000032W42   HJYHK-J 000000000000OS321034
BI00B32W4    4500187592     2022020118018403960              CAVS 0.5 G               CCN000001500000001500FN00000000020220201000001500NNE   20220112152410W42 1W    00000150000000677000000000032W42   HJYHK-J 000000000000OS321035
BI00B32W4    4500187592     2022020118018403990              CAVS 0.5 L               CCN000001500000001500FN00000000020220201000001500NNE   20220112152410W42 1W    00000150000000677000000000032W42   HJYHK-J 000000000000OS321036
BI00B32W4    4500187592     2022020118018403995              CAVS 0.5 L/R             CCN000001500000001500FN00000000020220201000001500NNE   20220112152410W42 1W    00000150000000677000000000032W42   HJYHK-J 000000000000OS321037
BI00B32W4    4500187592     2022020118018403994              CAVS 0.5 L/W             CCN000001500000001500FN00000000020220201000001500NNE   20220112152410W42 1W    00000150000000677000000000032W42   HJYHK-J 000000000000OS321038
BI00B32W4    4500187592     2022020118018403997              CAVS 0.5 L/Y             CCN000001500000001500FN00000000020220201000001500NNE   20220112152410W42 1W    00000150000000677000000000032W42   HJYHK-J 000000000000OS321039
BI00B32W4    4500187592     2022020118018403961              CAVS 0.5 LG              CCN000001500000001500FN00000000020220201000001500NNE   20220112152410W42 1W    00000150000000677000000000032W42   HJYHK-J 000000000000OS321040
BI00B32W4    4500187592     2022020118018403951              CAVS 0.5 O               CCN000001500000001500FN00000000020220201000001500NNE   20220112152410W42 1W    00000150000000677000000000032W42   HJYHK-J 000000000000OS321041
BI00B32W4    4500187592     2022020118018403952              CAVS 0.5 P               CCN000001500000001500FN00000000020220201000001500NNE   20220112152410W42 1W    00000150000000677000000000032W42   HJYHK-J 000000000000OS321042
BI00B32W4    4500187592     2022020118018403950              CAVS 0.5 R               CCN000001500000001500FN00000000020220201000001500NNE   20220112152410W42 1W    00000150000000677000000000032W42   HJYHK-J 000000000000OS321043
BI00B32W4    4500187592     2022020118018403956              CAVS 0.5 R/G             CCN000001500000001500FN00000000020220201000001500NNE   20220112152410W42 1W    00000150000000677000000000032W42   HJYHK-J 000000000000OS321044
BI00B32W4    4500187592     2022020118018403954              CAVS 0.5 R/W             CCN000001500000001500FN00000000020220201000001500NNE   20220112152410W42 1W    00000150000000677000000000032W42   HJYHK-J 000000000000OS321045
BI00B32W4    4500187592     2022020118018403957              CAVS 0.5 R/Y             CCN000001500000001500FN00000000020220201000001500NNE   20220112152410W42 1W    00000150000000677000000000032W42   HJYHK-J 000000000000OS321046
BI00B32W4    4500187592     2022020118018403992              CAVS 0.5 V               CCN000001500000001500FN00000000020220201000001500NNE   20220112152410W42 1W    00000150000000677000000000032W42   HJYHK-J 000000000000OS321047
BI00B32W4    4500187592     2022020118018403940              CAVS 0.5 W               CCN000001500000001500FN00000000020220201000001500NNE   20220112152410W42 1W    00000150000000677000000000032W42   HJYHK-J 000000000000OS321048
BI00B32W4    4500187592     2022020118018403943              CAVS 0.5 W/B             CCN000001500000001500FN00000000020220201000001500NNE   20220112152410W42 1W    00000150000000677000000000032W42   HJYHK-J 000000000000OS321049
BI00B32W4    4500187592     2022020118018403949              CAVS 0.5 W/L             CCN000001500000001500FN00000000020220201000001500NNE   20220112152410W42 1W    00000150000000677000000000032W42   HJYHK-J 000000000000OS321050
BI00B32W4    4500187592     2022020118018403945              CAVS 0.5 W/R             CCN000001500000001500FN00000000020220201000001500NNE   20220112152410W42 1W    00000150000000677000000000032W42   HJYHK-J 000000000000OS321051
BI00B32W4    4500187592     2022020118018403970              CAVS 0.5 Y               CCN000001500000001500FN00000000020220201000001500NNE   20220112152410W42 1W    00000150000000677000000000032W42   HJYHK-J 000000000000OS321052
BI00B32W4    4500187592     2022020118018403975              CAVS 0.5 Y/R             CCN000001500000001500FN00000000020220201000001500NNE   20220112152410W42 1W    00000150000000677000000000032W42   HJYHK-J 000000000000OS321053
BI00B32W4    4500187592     2022020118018404030              CAVS 0.85 B              CCN000001000000001000FN00000000020220201000001000NNE   20220112152410W42 1W    00000100000000965000000000032W42   HJYHK-J 000000000000OS321054
BI00B32W4    4500187592     2022020118018404130              CAVS 1.25 B              CCN000000800000000800FN00000000020220201000000800NNE   20220112152410W42 1W    00000080000001378000000000032W42   HJYHK-J 000000000000OS321055
BI00B32W4    4500187592     2022020118018404190              CAVS 1.25 L              CCN000000800000000800FN00000000020220201000000800NNE   20220112152410W42 1W    00000080000001378000000000032W42   HJYHK-J 000000000000OS321056
BI00B32W4    4500187592     2022020118018404150              CAVS 1.25 R              CCN000000800000000800FN00000000020220201000000800NNE   20220112152410W42 1W    00000080000001378000000000032W42   HJYHK-J 000000000000OS321057
BI00B32W4    4500187592     2022020118018404140              CAVS 1.25 W              CCN000000800000000800FN00000000020220201000000800NNE   20220112152410W42 1W    00000080000001378000000000032W42   HJYHK-J 000000000000OS321058
BI00B32W9    4500186630     2022031518007703730              AVSS 0.3F B              CCN000720000000720000FN00000000020220301000720000NNE   20220112144526W9  1W    00000200000000496000000000032W9    HKYHK   000000000000ZB123001
BI00B32W9    4500186630     2022031518007703750              AVSS 0.3F R              CCN000020000000020000FN00000000020220301000020000NNE   20220112144526W9  1W    00000200000000496000000000032W9    HKYHK   000000000000ZB123002
BI00B32W9    4500187423     2022011818007703973              AVSS 0.5F Y/B            CCN000001500000001500FN00000000020220101000001500NNE   20220112152122W93 1W    00000150000000674000000000032W93   HKYHK   000000000000ZF121001
BI00B32W9    4500187425     2022020818009604450              AVS 5 R                  CCN000000200000000200FN00000000020220201000000200NNE   20220112152412W93 1W    00000020000005981000000000032W93   HKYHK   000000000000ZP421001
BI00B32W9    4500187425     2022020818018404053              CAVS 0.85 R/B            CCN000001000000001000FN00000000020220201000001000NNE   20220112152412W93 1W    00000100000000965000000000032W93   HKYHK   000000000000ZP421002
