BI00B1200    2399T52113     202202107289-5979-30             HOUSING FEMALE ASS'Y     CCN000064764000013356FN00000000020220301000013356NNMD0420220112130144    1N0N  0000002520000085470000106471200    YCYC    005400370024
BI00B1200    #7925T52102    202203037189-3297                HOUSING FEMALE           CCN000528000000528000FN00000000020220401000528000NNM   20220112130144    2F0F  0000040000000089320000102901200    YCYC    005400370024
BI00B1200    #7925T52101    202202037189-3297                HOUSING FEMALE           CCN000528000000528000FN00000000020220301000528000NNM   20220112130144    2F0F  0000040000000089320000102901200    YCYC    005400370024
BI00B1200    #7925T52103    202203317189-3297                HOUSING FEMALE           CCN000528000000528000FN00000000020220501000528000NNM   20220112130144    2F0F  0000040000000089320000102901200    YCYC    005400370024
BI00B1200    #7925T52104    202205057189-3297                HOUSING FEMALE           CCN000300000000300000FN00000000020220601000300000NNM   20220112130144    2F0F  0000040000000089320000102901200    YCYC    005400370024
BI00B1200    #O022C50236    202202107282-6458-40             CONNECTOR                CCN000002000000002000FN00000000020220301000002000NNE   20220112130144    2N0N  0000010000000120600000135051200    YCYC    005500360039
BI00B1200    #O022C50237    202202177154-5597-30             CASSETTE R/B             CCN000000800000000800FN00000000020220301000000800NNE   20220112130144    2F0F  0000008000000073600000095201200    YCYC    005500360039
BI00A1200    2399T52113     202201177289-5979-30             HOUSING FEMALE ASS'Y     PCN000008064000008064FN00000000020220301000008064NNMD0420220112134808    1N0N  0000002520000085470000106471200    YCYC    005400370024
BI00B1200    7504T220111    202201277370-0051-0W             J/B ASS'Y                CCN000000020000000020FN00000000020220101000000020NNE   20220112130144    1J0J  0000000100000054700000073101200    YCYC    005400370024
BI00B1200    7504T220111    202201277340-9453-0W             J/B ASS'Y                CCN000000020000000020FN00000000020220101000000020NNE   20220112130144    1J0J  0000000100000053400000072501200    YCYC    005400370024
BI00A32AG    XG2202DLMW     202201147289-7615-30             HOUSING FEMALE ASS'Y     CCN000005440000003520FN00000000020220201000003520NNEM0020220112165017    4N0N  00000032000000738000000948032AG    XGXGY   005400370024
BI00A32AG    #XG2202ELMW    202201217182-9631-40             JOINT CONNECTOR          CCN000006000000006000FN00000000020220201000006000NNEM0020220112170608    2F0F  00000300000001182000001307432AG    XGXGY   005400370024
BI00B32AG    XG2202DLMW     202201147289-7615-30             HOUSING FEMALE ASS'Y     CCN000001920000001920FN00000000020220201000001920NNEQ0020220112165026    4N0N  00000032000000738000000948032AG    XGXGY   005400370024
BI00B32AG    #XG2202ELMW    202201217182-9631-40             JOINT CONNECTOR          CCN000003000000000000FY00000000020220201000000000NNEQ0020220112170608    2F0F  00000300000001182000001307432AG    XGXGY   005400370024
BI00B32A7    ZZ22031LMW     202202097327-6769-3W             BATTERY FUSE             CCN000014016000007008FN00000000020220301000007008NNMD0420220112141823    4N0N  00000009600000933300001133332A7    ZZZZY   005500360039
BI00B32A7    ZZ22033LMW     202202237327-6769-3W             BATTERY FUSE             CCN000004800000004800FN00000000020220301000004800NNMD0420220112141855    4N0N  00000009600000933300001133332A7    ZZZZY   005500360039
BI00B32A7    ZZ22031LMW     202202157327-6769-3W             BATTERY FUSE             CCN000007008000007008FN00000000020220301000007008NNMD0420220112141834    4N0N  00000009600000933300001133332A7    ZZZZY   005500360039
BI00B32BF    #TT2201AKMW    202202157154-8349-30             COVER                    CCN000000240000000240FN00000000020220101000000240NNED0420220112163658    2F0F  00000008000000561000000691032BF    TTTJYCD 005600390040
BI00A32BF    #TT2112AKMW    202202157154-8349-30             COVER                    CCN000000160000000160FN00000000020211201000000160NNED0020220112163722    2F0F  00000008000000561000000691032BF    TTTJYCD 005600390040
BI00B32CA    PTA32071       202203317116-3153-02             TERMINAL FEMALE          CCN001254000001269000FN00000000020220701001269000NNM   20220112130144    4P0P  00002700000000459000000744232CA    YPYPY   006400630015
BI00B32CA    PTA32071       202203317116-3154-02             TERMINAL FEMALE          CCN000396000000405000FN00000000020220701000405000NNM   20220112130144    4P0P  00002700000000469800000755032CA    YPYPY   006400630015
BI00B32CA    PTA32071       202203317158-3166-60             WIRE SEAL                CCN000040000000040000FN00000000020220701000040000NNM   20220112130144    1C0C  00004000000000104000000152432CA    YPYPY   002700430014
BI00B32CA    PTA32071       202203317196-0510-02             TERMINAL                 CCN000096000000096000FN00000000020220701000096000NNM   20220112130144    4P0P  00002400000000871200001034632CA    YPYPY   002800510028
BI00B32CA    PTA32071       202203317287-9323                UNSEALED HOUSING SUB     CCN000004800000004800FN00000000020220701000004800NNM   20220112130144    1N0N  00000240000000537600000690032CA    YPYPY   005600390023
BI00B32CA    PTA32071       202203317289-3342                HOUSING FEMALE ASS'Y     CCN000031200000031200FN00000000020220701000031200NNM   20220112130144    1N0N  00000240000000686400000901432CA    YPYPY   005500360039
BI00B32CA    PTA32071       202203317289-3342-30             HOUSING FEMALE ASS'Y     CCN000040800000040800FN00000000020220701000040800NNM   20220112130144    1N0N  00000240000000686400000901432CA    YPYPY   005500360039
BI00B32CA    PTA32071       202203317289-3342-90             HOUSING FEMALE ASS'Y     CCN000014400000014400FN00000000020220701000014400NNM   20220112130144    1N0N  00000240000000686400000901432CA    YPYPY   005500360039
BI00B32CA    #PTA32071      202203317154-5597-30             CASSETTE R/B             CCN000006400000006400FN00000000020220701000006400NNM   20220112130144    2F0F  00000080000000736000000952032CA    YPYPY   005500360039
BI00B32CA    #PTA32071      202203317189-3032-30             HOUSING FEMALE           CCN000004800000004800FN00000000020220701000004800NNM   20220112130144    2F0F  00000160000000801600001021632CA    YPYPY   005500360039
BI00B32CA    #PTA32071      202203317189-3033                HOUSING FEMALE           CCN000001600000001600FN00000000020220701000001600NNM   20220112130144    2F0F  00000160000001211200001431232CA    YPYPY   005500360039
BI00B32CA    #PTA32071      202203317189-3034-30             HOUSING FEMALE           CCN000003200000003200FN00000000020220701000003200NNM   20220112130144    2F0F  00000160000000972800001192832CA    YPYPY   005500360039
BI00B32CA    #PTA32071      202203317189-3036                HOUSING FEMALE           CCN000001600000001600FN00000000020220701000001600NNM   20220112130144    2F0F  00000160000000921600001141632CA    YPYPY   005500360039
BI00A32CC    CTA32031       202201207289-3342-30             HOUSING FEMALE ASS'Y     CCN000024000000024000FN00000000020220301000024000NNEM0020220112134727    1N0N  00000240000000686400000901432CC    BIYABCBU005500360039
BI00A32CH    #SJ22024HMW    202201137298-2457-90             LIF FEMALE ASSEMBLY      CCN000000840000000840FN00000000020220201000000840NNMM0020220112154841    2N0N  00000016800000533300000728932CH    SJSAMIJF005400370024
BI00B32DE    TCT2032        202202177158-3006-90             RUBBER STOPPER           CCN000100000000100000FN00000000020220301000100000NNMD0420220112130144    1C0C  00002000000000330600000386032DE    TVYEV-TV002700430014
BI00B32DE    TCT2033        202202247158-3006-90             RUBBER STOPPER           CCN000600000000600000FN00000000020220301000600000NNMD0420220112130144    1C0C  00002000000000330600000386032DE    TVYEV-TV002700430014
BI00B32DE    TCT2034        202203037158-3006-90             RUBBER STOPPER           CCN000700000000700000FN00000000020220301000700000NNMD0420220112130144    1C0C  00002000000000330600000386032DE    TVYEV-TV002700430014
BI00B32DE    TCT2031        202202107288-6547                CONNECTOR MALE ASS'Y     CCN000002250000002250FN00000000020220301000002250NNMD0420220112130144    4N0N  00000075000001205300001340332DE    TVYEV-TV005400370024
BI00B32DE    TCT2032        202202177288-6547                CONNECTOR MALE ASS'Y     CCN000002250000002250FN00000000020220301000002250NNMD0420220112130144    4N0N  00000075000001205300001340332DE    TVYEV-TV005400370024
BI00B32DE    TCT2033        202202247288-6547                CONNECTOR MALE ASS'Y     CCN000002250000002250FN00000000020220301000002250NNMD0420220112130144    4N0N  00000075000001205300001340332DE    TVYEV-TV005400370024
BI00B32DE    TCT2033        202202247289-3342                HOUSING FEMALE ASS'Y     CCN000002400000002400FN00000000020220301000002400NNMD0420220112130144    1N0N  00000240000000686400000901432DE    TVYEV-TV005500360039
BI00B32DE    TCT2034        202203037289-3342                HOUSING FEMALE ASS'Y     CCN000002400000002400FN00000000020220301000002400NNMD0420220112130144    1N0N  00000240000000686400000901432DE    TVYEV-TV005500360039
BI00B32DE    TCT2032        202202177289-3342-30             HOUSING FEMALE ASS'Y     CCN000016800000016800FN00000000020220301000016800NNMD0420220112130144    1N0N  00000240000000686400000901432DE    TVYEV-TV005500360039
BI00B32DE    TCT2033        202202247289-3342-30             HOUSING FEMALE ASS'Y     CCN000024000000024000FN00000000020220301000024000NNMD0420220112130144    1N0N  00000240000000686400000901432DE    TVYEV-TV005500360039
BI00B32DE    TCT2034        202203037289-3342-30             HOUSING FEMALE ASS'Y     CCN000048000000048000FN00000000020220301000048000NNMD0420220112130144    1N0N  00000240000000686400000901432DE    TVYEV-TV005500360039
BI00B32DE    TCT2031        202202107289-3342-90             HOUSING FEMALE ASS'Y     CCN000004800000004800FN00000000020220301000004800NNMD0420220112130144    1N0N  00000240000000686400000901432DE    TVYEV-TV005500360039
BI00B32DE    TCT2033        202202247289-3342-90             HOUSING FEMALE ASS'Y     CCN000004800000004800FN00000000020220301000004800NNMD0420220112130144    1N0N  00000240000000686400000901432DE    TVYEV-TV005500360039
BI00B32DE    TCT2034        202203037289-3342-90             HOUSING FEMALE ASS'Y     CCN000004800000004800FN00000000020220301000004800NNMD0420220112130144    1N0N  00000240000000686400000901432DE    TVYEV-TV005500360039
BI00B32DE    TCT2031        202203107288-6547                CONNECTOR MALE ASS'Y     CCN000000750000000000FY00000000020220301000000000NNMD0420220112113642    4N0N  00000075000001205300001340332DE    TVYEV-TV005400370024
BI00B32DE    TCT2031        202203177288-6547                CONNECTOR MALE ASS'Y     CCN000000750000000000FY00000000020220301000000000NNMD0420220112113642    4N0N  00000075000001205300001340332DE    TVYEV-TV005400370024
BI00B32DE    TCT2032        202203317288-6547                CONNECTOR MALE ASS'Y     CCN000000750000000000FY00000000020220301000000000NNMD0420220112113816    4N0N  00000075000001205300001340332DE    TVYEV-TV005400370024
BI00B32DE    TCT2032        202204077288-6547                CONNECTOR MALE ASS'Y     CCN000000750000000000FY00000000020220301000000000NNMD0420220112113816    4N0N  00000075000001205300001340332DE    TVYEV-TV005400370024
BI00B32DE    TCT2033        202204287288-6547                CONNECTOR MALE ASS'Y     CCN000000750000000000FY00000000020220301000000000NNMD0420220112113948    4N0N  00000075000001205300001340332DE    TVYEV-TV005400370024
BI00B32DE    TCT2033        202205057288-6547                CONNECTOR MALE ASS'Y     CCN000000750000000000FY00000000020220301000000000NNMD0420220112113948    4N0N  00000075000001205300001340332DE    TVYEV-TV005400370024
BI00B32DE    TCT202B        202204217289-3342                HOUSING FEMALE ASS'Y     CCN000002400000002400FN00000000020220201000002400NNED0420220112164748    1N0N  00000240000000686400000901432DE    TVYEV-TV005500360039
BI00B32DE    TCT202B        202203107289-3342-30             HOUSING FEMALE ASS'Y     CCN000004800000004800FN00000000020220201000004800NNED0420220112164835    1N0N  00000240000000686400000901432DE    TVYEV-TV005500360039
BI00B32DE    TCT203A        202203107283-4855-40             CONNECTOR HOUSING        CCN000002400000002400FN00000000020220301000002400NNED0420220112164722    4N0N  00000240000001188400001400032DE    TVYEV-TV005600360039
BI00B32DE    TCT203A        202203177289-3342-30             HOUSING FEMALE ASS'Y     CCN000007200000007200FN00000000020220301000007200NNED0420220112164856    1N0N  00000240000000686400000901432DE    TVYEV-TV005500360039
BI00T32DE    @ICT202A       202202147283-1556                CONNECTOR ASS'Y          CCN000021600000021600FN00000000020220201000021600NNE   20220112135736    3N0N  00000240000000755000001014032DE    TVYEV-TV005500360039
BI00B32DG    RP2023         202201207114-4020                TERMINAL                 CCN000042000000042000FN00000000020220201000042000NNMQ0020220112130144    4P0P  00002100000000875700001169332DG    BFSAIBF 006400630015
BI00B32DG    RP2024         202201277114-4020                TERMINAL                 CCN000042000000021000FN00000000020220201000021000NNMQ0020220112130144    4P0P  00002100000000875700001169332DG    BFSAIBF 006400630015
BI00B32DG    RP2023         202201207289-3342-30             HOUSING FEMALE ASS'Y     CCN000009600000007200FN00000000020220201000007200NNMQ0020220112130144    1N0N  00000240000000686400000901432DG    BFSAIBF 005500360039
BI00B32DG    #RL2024B       202202037282-1026                CONNECTOR HOUSING        CCN000018000000018000FN00000000020220201000018000NNED0220220112161400    2N0N  00000200000000696000000808532DG    BFSAIBF 005400370024
BI00A32DG    RP2024B        202201137114-4231-02             TERMINAL                 CCN000036000000036000FN00000000020220201000036000NNEM0020220112135122    4P0P  00001800000000554400000848032DG    BFSAIBF 006400630015
BI00A32DG    RP2024B        202201137288-3329-30             HOUSING MALE             CCN000001500000001500FN00000000020220201000001500NNEM0020220112135122    4N0N  00000150000000866100001011132DG    BFSAIBF 005400370024
BI00A32DG    RP2024B        202201137116-3154-02             TERMINAL FEMALE          CCN000027000000027000FN00000000020220201000027000NNEM0020220112135122    4P0P  00002700000000469800000755032DG    BFSAIBF 006400630015
BI00A32DG    RP2023         202201137289-3342-30             HOUSING FEMALE ASS'Y     CCN000002400000002400FN00000000020220201000002400NNMM0020220112135011    1N0N  00000240000000686400000901432DG    BFSAIBF 005500360039
BI00A32DG    RP2023         202201137114-4020                TERMINAL                 CCN000021000000000000FY00000000020220201000000000NNMM0020220112104901    4P0P  00002100000000875700001169332DG    BFSAIBF 006400630015
BI00A32DG    RP2024         202201137114-4020                TERMINAL                 CCN000021000000021000FN00000000020220201000021000NNMM0020220112135122    4P0P  00002100000000875700001169332DG    BFSAIBF 006400630015
BI00B32DJ    GHT2203B 1     202203107C89-6868-30             SEALED ASSY FEMALE       CCN000050400000050400FN00000000020220201000050400NNMD0420220112144951    4N0N  00000252000000839200001119232DJ    RBYIPLRB005500360039
BI00B32DJ    GHT2203B 2     202203247C89-6868-30             SEALED ASSY FEMALE       CCN000010080000010080FN00000000020220201000010080NNMD0420220112145007    4N0N  00000252000000839200001119232DJ    RBYIPLRB005500360039
BI00B32DJ    GHT2203B 1     202203107C98-1145-4W             SQUIB SUB ASS'Y          CCN000060000000060000FN00000000020220201000060000NNMD0420220112145026    4N0N  00001000000000787900000944932DJ    RBYIPLRB005400370024
BI00B32DJ    GHT2203B 2     202203247C98-1145-4W             SQUIB SUB ASS'Y          CCN000010000000010000FN00000000020220201000010000NNMD0420220112145040    4N0N  00001000000000787900000944932DJ    RBYIPLRB005400370024
BI00B32DJ    #GHT2203C 1    202202037158-3015-10             RUBBER STOPPER           CCN000390000000240000FN00000000020220301000240000NNMD0220220112161244    2C0C  00001000000000419500000474032DJ    RBYIPLRB002700430014
BI00B32DJ    #GHT2203C 2    202203037158-3015-10             RUBBER STOPPER           CCN000090000000090000FN00000000020220301000090000NNMD0220220112161319    2C0C  00001000000000419500000474032DJ    RBYIPLRB002700430014
BI00B32DJ    #GHT2203C 1    202203037158-3015-10             RUBBER STOPPER           CCN000150000000150000FN00000000020220301000150000NNMD0420220112161251    2C0C  00001000000000419500000474032DJ    RBYIPLRB002700430014
BI00B32D1    DFTC2215       202202177114-4032                TERMINAL                 CCN000007500000007500FN00000000020220401000007500NNM   20220112130144    4P0P  00000750000000735000001063632D1    TOYOT-K 006400630017
BI00B32D1    DFTC2215       202202177114-5748-02             TERMINAL                 CCN000036000000036000FN00000000020220401000036000NNM   20220112130144    4P0P  00001200000000444000000737632D1    TOYOT-K 006400630015
BI00B32D1    DFTC2215       202202177114-5753-02             TERMINAL                 CCN000108000000108000FN00000000020220401000108000NNM   20220112130144    4P0P  00002700000000847800001141432D1    TOYOT-K 006400630015
BI00B32D1    DFTC2215       202202177116-1685-02             TERMINAL                 CCN000024000000024000FN00000000020220401000024000NNM   20220112130144    4P0P  00002400000000897600001065232D1    TOYOT-K 005100280028
BI00B32D1    DFTC2215       202202177116-2891-02             TERMINAL                 CCN000030000000030000FN00000000020220401000030000NNM   20220112130144    4P0P  00001500000000982500001145932D1    TOYOT-K 005100280028
BI00B32D1    DFTC2215       202202177116-4101-02             TERMINAL                 CCN000012000000012000FN00000000020220401000012000NNM   20220112130144    4P0P  00001200000000582000000876232D1    TOYOT-K 006400630015
BI00B32D1    DFTC2215       202202177116-4110-02             TERMINAL                 CCN000018000000018000FN00000000020220401000018000NNM   20220112130144    4P0P  00000900000000594000000882232D1    TOYOT-K 006400630015
BI00B32D1    DFTC2215       202202177116-4111-02             TERMINAL                 CCN000007500000007500FN00000000020220401000007500NNM   20220112130144    4P0P  00000750000000529500000817732D1    TOYOT-K 006400630015
BI00B32D1    DFTC2215       202202177116-4112-02             TERMINAL                 CCN000006000000006000FN00000000020220401000006000NNM   20220112130144    4P0P  00000600000000450000000738232D1    TOYOT-K 006400630015
BI00B32D1    DFTC2215       202202177116-4486-02             TERMINAL                 CCN000084000000084000FN00000000020220401000084000NNM   20220112130144    4P0P  00002800000000666400000995132D1    TOYOT-K 006400630017
BI00B32D1    DFTC2215       202202177116-5045-02             TERMINAL                 CCN000048000000048000FN00000000020220401000048000NNM   20220112130144    4P0P  00001600000000678400001007132D1    TOYOT-K 006400630017
BI00B32D1    DFTC2215       202202177126-8853-02             TERMINAL                 CCN000045000000045000FN00000000020220401000045000NNM   20220112130144    4P0P  00000750000000562500000847732D1    TOYOT-K 006400630015
BI00B32D1    DFTC2215       202202177126-8854-02             TERMINAL                 CCN000015000000015000FN00000000020220401000015000NNM   20220112130144    4P0P  00000750000000604500000889732D1    TOYOT-K 006400630015
BI00B32D1    DFTC2215       202202177126-8855-02             TERMINAL                 CCN000036000000036000FN00000000020220401000036000NNM   20220112130144    4P0P  00000600000000510600000795832D1    TOYOT-K 006400630015
BI00B32D1    DFTC2215       202202177158-3070-80             RUBBER STOPPER           CCN000040000000040000FN00000000020220401000040000NNM   20220112130144    1C0C  00004000000000276000000333332D1    TOYOT-K 002700430014
BI00B32D1    DFTC2215       202202177196-0396-02             TERMINAL                 CCN000015000000015000FN00000000020220401000015000NNM   20220112130144    4P0P  00001500000000949500001112932D1    TOYOT-K 002800510028
BI00B32D1    DFTC2215       202202177196-0510-02             TERMINAL                 CCN000024000000024000FN00000000020220401000024000NNM   20220112130144    4P0P  00002400000000871200001034632D1    TOYOT-K 002800510028
BI00B32D1    DFTC2215       202202177282-4576                HOUSING MALE ASS'Y       CCN000002400000002400FN00000000020220401000002400NNM   20220112130144    4N0N  00000240000000808800001028832D1    TOYOT-K 005500360039
BI00B32D1    DFTC2215       202202177283-1156                CONNECTOR                CCN000001600000001600FN00000000020220401000001600NNM   20220112130144    4N0N  00000080000000877600001078032D1    TOYOT-K 005600390040
BI00B32D1    DFTC2215       202202177283-5830                CONNECTOR                CCN000006000000006000FN00000000020220401000006000NNM   20220112130144    1N47  00000600000000954000001104032D1    TOYOT-K 005500360039
BI00B32D1    DFTC2215       202202177288-6547                CONNECTOR MALE ASS'Y     CCN000005250000005250FN00000000020220401000005250NNM   20220112130144    4N0N  00000075000001205300001340332D1    TOYOT-K 005400370024
BI00B32D1    DFTC2215       202202177289-3342                HOUSING FEMALE ASS'Y     CCN000016800000016800FN00000000020220401000016800NNM   20220112130144    1N0N  00000240000000686400000901432D1    TOYOT-K 005500360039
BI00B32D1    DFTC2215       202202177289-3342-30             HOUSING FEMALE ASS'Y     CCN000038400000038400FN00000000020220401000038400NNM   20220112130144    1N0N  00000240000000686400000901432D1    TOYOT-K 005500360039
BI00B32D1    DFTC2215       202202177289-3342-40             HOUSING FEMALE ASS'Y     CCN000004800000004800FN00000000020220401000004800NNM   20220112130144    1N0N  00000240000000686400000901432D1    TOYOT-K 005500360039
BI00B32D1    DFTC2215       202202177289-3342-90             HOUSING FEMALE ASS'Y     CCN000002400000002400FN00000000020220401000002400NNM   20220112130144    1N0N  00000240000000686400000901432D1    TOYOT-K 005500360039
BI00B32D1    DFTC2215       202202177289-6547                HOUSING FEMALE ASS'Y     CCN000004800000004800FN00000000020220401000004800NNM   20220112130144    1N0N  00000240000001152000001362032D1    TOYOT-K 005500360039
BI00B32D1    DFTC2215       202202177296-0784-02             TERMINAL ALUMINIUM       CCN000024000000024000FN00000000020220401000024000NNM   20220112130144    4P0P  00002400000000480000000765232D1    TOYOT-K 006400630015
BI00B32D1    DFTC2215       202202177327-6731-3W             BATTERY FUSE             CCN000000896000000896FN00000000020220401000000896NNM   20220112130144    4N0N  00000006400000697600000843032D1    TOYOT-K 005400370024
BI00B32D1    DFTC2215       202202177388-2978-30             HOUSING MALE ASS'Y       CCN000005760000005760FN00000000020220401000005760NNM   20220112130144    1N0N  00000048000000742000001122032D1    TOYOT-K 005500360039
BI00B32D1    #DFTC2215      202202177158-3003-90             RUBBER STOPPER           CCN000060000000060000FN00000000020220401000060000NNM   20220112130144    2C0C  00002000000000250000000306032D1    TOYOT-K 002700430014
BI00B32D1    #DFTC2215      202202177158-3004-40             RUBBER STOPPER           CCN000020000000020000FN00000000020220401000020000NNM   20220112130144    2C0C  00002000000000234000000306332D1    TOYOT-K 002700430014
BI00B32D1    #DFTC2215      202202177158-3005-80             RUBBER STOPPER           CCN000020000000020000FN00000000020220401000020000NNM   20220112130144    2H0H  00002000000000210000000268732D1    TOYOT-K 002700430014
BI00B32D1    #DFTC2215      202202177158-3008-80             RUBBER STOPPER           CCN000020000000020000FN00000000020220401000020000NNM   20220112130144    2C0C  00002000000000288000000343032D1    TOYOT-K 004300270014
BI00B32D1    #DFTC2215      202202177158-3015-10             RUBBER STOPPER           CCN000020000000020000FN00000000020220401000020000NNM   20220112130144    2C0C  00001000000000419500000474032D1    TOYOT-K 002700430014
BI00B32D1    #DFTC2215      202202177158-3017                RUBBER STOPPER           CCN000020000000020000FN00000000020220401000020000NNM   20220112130144    2C0C  00001000000000375500000435032D1    TOYOT-K 002700430014
BI00B32D1    #DFTC2215      202202177172-5625-90             RUBBER STOPPER           CCN000020000000020000FN00000000020220401000020000NNM   20220112130144    2H0H  00002000000000082400000133832D1    TOYOT-K 004300270014
BI00B32D1    #DFTC2215      202202177172-5629-80             RUBBER STOPPER           CCN000080000000080000FN00000000020220401000080000NNM   20220112130144    2H0H  00002000000000060000000111132D1    TOYOT-K 004300270014
BI00B32D1    #DFTC2215      202202177172-5630-40             RUBBER STOPPER           CCN000020000000020000FN00000000020220401000020000NNM   20220112130144    2H0H  00002000000000044000000095132D1    TOYOT-K 004300270014
BI00B32D1    #DFTC2215      202202177172-5631-60             RUBBER STOPPER           CCN000040000000040000FN00000000020220401000040000NNM   20220112130144    2H0H  00002000000000042000000093132D1    TOYOT-K 004300270014
BI00B32D1    #DFTC2215      202202177172-5632-10             DUMMY PLUG               CCN000020000000020000FN00000000020220401000020000NNM   20220112130144    2H0H  00002000000000080400000131832D1    TOYOT-K 004300270014
BI00B32D1    #DFTC2215      202202177183-2418-30             CONNECTOR HOUSING        CCN000004800000004800FN00000000020220401000004800NNM   20220112130144    2F0F  00000480000000917000001235332D1    TOYOT-K 005500360039
BI00B32D1    #DFTC2215      202202177189-2978-30             HOUSING FEMALE           CCN000006000000006000FN00000000020220401000006000NNM   20220112130144    2F0F  00000150000000966900001096932D1    TOYOT-K 005400370024
BI00B32D1    #DFTC2215      202202177189-3033                HOUSING FEMALE           CCN000003200000003200FN00000000020220401000003200NNM   20220112130144    2F0F  00000160000001211200001431232D1    TOYOT-K 005500360039
BI00B32D1    #DFTC2215      202202177189-3036                HOUSING FEMALE           CCN000001600000001600FN00000000020220401000001600NNM   20220112130144    2F0F  00000160000000921600001141632D1    TOYOT-K 005500360039
BI00B32D1    #DFTC2215      202202177282-1641                CONNECTOR                CCN000004000000004000FN00000000020220401000004000NNM   20220112130144    2N0N  00000200000000813000000986032D1    TOYOT-K 005500360039
BI00B32D1    #DFTC2215      202202177289-2912-40             HOUSING FEMALE ASS'Y     CCN000002000000002000FN00000000020220401000002000NNM   20220112130144    2N0N  00000200000000804000000931032D1    TOYOT-K 005400370024
BI00B32D1    #DFTC2215      202202177289-3622-30             HOUSING FEMALE ASS'Y     CCN000001728000001728FN00000000020220401000001728NNM   20220112130144    2N0N  00000043200000839400001038432D1    TOYOT-K 005400370024
BI00B32D1    #DFTC2215      202202177289-4200-30             HOUSING FEMALE ASS'Y     CCN000002000000002000FN00000000020220401000002000NNM   20220112130144    2N0N  00000200000000926000001021032D1    TOYOT-K 005400370024
BI00B32EJ    4500184777     202201207283-1020                CONNECTOR                CCN000012000000012000FN00000000020220101000012000NNED0020220112151028EJ  4N0N  00000600000000840000001049332EJ    EJYKBO  005600390040
BI00B32EJ    4500184778     202201207283-1020                CONNECTOR                CCN000030000000030000FN00000000020220101000030000NNED0420220112151100EJ  4N0N  00000600000000840000001049332EJ    EJYKBO  005600390040
BI00B32EJ    T211228P01     202201207288-3331-30             HOUSING MALE             CCN000001500000001500FN00000000020220101000001500NNE00020220112151001EJ  4N0N  00000150000000866000001010932EJ    EJYKBO  005400370024
BI00B32EJ    #T220110D01    202201207283-8398-40             CONNECTOR                CCN000001540000001540FN00000000020220101000001540NNED0020220112130144EJ  2N0N  00000154000001007000001171332EJ    EJYKBO  005600390023
BI00B32EJ    T200111P02     202202037158-3070-80             RUBBER STOPPER           CCN000120000000120000FN00000000020220201000120000NNE   20220112130144EJ  1C0C  00004000000000276000000333332EJ    EJYKBO  002700430014
BI00B32EJ    #T200111P02    202202037157-3992-90             CONNECTOR SEALED         CCN000040000000040000FN00000000020220201000040000NNE   20220112130144EJ  2C0C  00004000000000300000000363332EJ    EJYKBO  002700430014
BI00B32EJ    #T200111P02    202202037158-3121-80             WIRE SEAL                CCN000020000000020000FN00000000020220201000020000NNE   20220112130144EJ  2C0C  00002000000000118000000187332EJ    EJYKBO  002700430014
BI00B32EJ    #T200111P02    202202037157-3950-80             SEAL RUBBER              CCN000040000000040000FN00000000020220201000040000NNE   20220112130144EJ  2C0C  00004000000000154000000440332EJ    EJYKBO  002700430014
BI00B32EJ    #T200111P02    202202037158-3120-90             CONNECTOR WIRE SEAL      CCN000240000000240000FN00000000020220201000240000NNE   20220112130144EJ  2C0C  00002000000000136000000194032EJ    EJYKBO  002700430014
BI00B32EJ    #T200111P02    202202037283-8398-40             CONNECTOR                CCN000003080000003080FN00000000020220201000003080NNE   20220112130144EJ  2N0N  00000154000001007000001171332EJ    EJYKBO  005600390023
BI00B32EJ    T200111P01     202202037158-3070-80             RUBBER STOPPER           CCN000040000000040000FN00000000020220201000040000NNE   20220112130144EJ  1C0C  00004000000000276000000333332EJ    EJYKBO  002700430014
BI00B32E1    NC2051         202203097289-3342-30             HOUSING FEMALE ASS'Y     CCN000002400000002400FN00000000020220401000002400NNMD0420220112152207    1N0N  00000240000000686400000901432E1    SPYSE   005500360039
BI00A32E1    #NC201B        202201147182-2410                CONNECTOR HOUSING        CCN000002400000002400FN00000000020220101000002400NNED0720220112130144    2F0F  00000120000000959800001245632E1    SPYSE   005500360039
BI00B32G0    TZ22041EMW     202202227283-4855                CONNECTOR HOUSING        CCN000028800000028800FN00000000020220401000028800NNMD0020220112130144    4N0N  00000240000001188400001400032G0    TTTJY   005500360039
BI00B32G0    TZ22042EMW     202203017283-4855                CONNECTOR HOUSING        CCN000014400000014400FN00000000020220401000014400NNMD0020220112130144    4N0N  00000240000001188400001400032G0    TTTJY   005500360039
BI00B32G0    TZ22042EMW     202203017288-6547                CONNECTOR MALE ASS'Y     CCN000017250000017250FN00000000020220401000017250NNMD0020220112130144    4N0N  00000075000001205300001340332G0    TTTJY   005400370024
BI00B32G2    #SA22022 MW    202201197158-3005-80             RUBBER STOPPER           CCN000020000000020000FN00000000020220201000020000NNM00020220112161959    2H0H  00002000000000210000000268732G2    AISUAI  002700430014
BI00B32G7    JJ22031 MW     202202107158-3006-90             RUBBER STOPPER           CCN000280000000280000FN00000000020220301000280000NNMD0420220112130144    1C0C  00002000000000330600000386032G7    JIJAI   002700430014
BI00B32G7    JJ22032 MW     202202177158-3006-90             RUBBER STOPPER           CCN000100000000100000FN00000000020220301000100000NNMD0420220112130144    1C0C  00002000000000330600000386032G7    JIJAI   002700430014
BI00B32G7    JJ22033 MW     202202247158-3006-90             RUBBER STOPPER           CCN000120000000120000FN00000000020220301000120000NNMD0420220112130144    1C0C  00002000000000330600000386032G7    JIJAI   002700430014
BI00B32G7    JJ22034 MW     202203037158-3006-90             RUBBER STOPPER           CCN000120000000120000FN00000000020220301000120000NNMD0420220112130144    1C0C  00002000000000330600000386032G7    JIJAI   002700430014
BI00B32G7    JJ22031 MW     202202107289-3342-30             HOUSING FEMALE ASS'Y     CCN000033600000033600FN00000000020220301000033600NNMD0420220112130144    1N0N  00000240000000686400000901432G7    JIJAI   005500360039
BI00B32G7    JJ22032 MW     202202177289-3342-30             HOUSING FEMALE ASS'Y     CCN000038400000038400FN00000000020220301000038400NNMD0420220112130144    1N0N  00000240000000686400000901432G7    JIJAI   005500360039
BI00B32G7    JJ22033 MW     202202247289-3342-30             HOUSING FEMALE ASS'Y     CCN000004800000004800FN00000000020220301000004800NNMD0420220112130144    1N0N  00000240000000686400000901432G7    JIJAI   005500360039
BI00B32G7    JJ22034 MW     202203037289-3342-30             HOUSING FEMALE ASS'Y     CCN000028800000028800FN00000000020220301000028800NNMD0420220112130144    1N0N  00000240000000686400000901432G7    JIJAI   005500360039
BI00B32G8    PATA2031       202202227470-5945                J/B COMPLETE ASS'Y       CCN000004050000004050FN00000000020220301000004050NNMD0220220112134458    4J0J  00000001000000494000000661032G8    PSPASI  005400370024
BI00B32G8    PATA2031B      202202157273-3570-0W             CASSETTE BRACKET         CCN000000600000000600FN00000000020220301000000600NNED0020220112130144    4N0N  00000010000000144100000196632G8    PSPASI  004300270014
BI00B32G8    PATA2031B      202202157273-3573-0W             CASSETTE BRACKET         CCN000001200000001200FN00000000020220301000001200NNED0020220112130144    4N0N  00000010000000087700000140232G8    PSPASI  004300270014
BI00B32G8    PATA2031B      202202157470-5302                J/B COMPLETE ASS'Y       CCN000000600000000600FN00000000020220301000000600NNED0020220112130144    4J0J  00000001000000494000000661032G8    PSPASI  005400370024
BI00B32G8    PATA2031B      202202157470-5938                J/B COMPLETE ASS'Y       CCN000000040000000040FN00000000020220301000000040NNED0020220112130144    4J0J  00000001000000494000000661032G8    PSPASI  005400370024
BI00B32G8    PATA2031B      202202157470-5939                J/B COMPLETE ASS'Y       CCN000000200000000200FN00000000020220301000000200NNED0020220112130144    4J0J  00000001000000494000000661032G8    PSPASI  005400370024
BI00B32H7    FS22031DMW     202202097288-6598-70             HOUSING MALE ASS'Y       CCN000004320000004320FN00000000020220301000004320NNMD0420220112141927    4N0N  00000144000001074200001429232H7    FYFSY   005500360039
BI00B32H7    FS22032DMW     202202157288-6598-70             HOUSING MALE ASS'Y       CCN000002880000002880FN00000000020220301000002880NNMD0420220112141953    4N0N  00000144000001074200001429232H7    FYFSY   005500360039
BI00B32H7    FS22033DMW     202202237288-6598-70             HOUSING MALE ASS'Y       CCN000004320000004320FN00000000020220301000004320NNMD0420220112142016    4N0N  00000144000001074200001429232H7    FYFSY   005500360039
BI00B32H7    FS22034DMW     202203027288-6598-70             HOUSING MALE ASS'Y       CCN000002880000002880FN00000000020220301000002880NNMD0420220112142034    4N0N  00000144000001074200001429232H7    FYFSY   005500360039
BI00B32H7    FS22031DMW     202202097297-3482                JOINT CONNECTOR          CCN000001600000001600FN00000000020220301000001600NNMD0420220112142056    4N0N  00000080000000621000000730532H7    FYFSY   005400370024
BI00B32H7    FS22031DMW     202202097298-3484                HOUSING FEMALE ASS'Y     CCN000002700000002700FN00000000020220301000002700NNMD0420220112142119    4N0N  00000270000000742500001028732H7    FYFSY   005400370024
BI00B32H7    FS22031DMW     202202097327-6949-30             MULTI FUSE               CCN000000576000000576FN00000000020220301000000576NNMD0420220112142138    4N00  00000028800000886700001052632H7    FYFSY   005400370024
BI00B32H7    FS22031DMW     202202097327-6950-30             MULTI FUSE               CCN000000576000000576FN00000000020220301000000576NNMD0420220112142155    4N00  00000028800000888700001054632H7    FYFSY   005400370024
BI00B32H7    FS22031DMW     202202097327-6952-30             MULTI FUSE               CCN000000560000000560FN00000000020220301000000560NNMD0420220112142214    4N0N  00000056000000848500001031532H7    FYFSY   005400370024
BI00B32H7    FS22031DMW     202202097327-6954-30             MULTI FUSE               CCN000000600000000600FN00000000020220301000000600NNMD0420220112142231    4N00  00000060000000751600000954332H7    FYFSY   005400370024
BI00B32J1    390112         202202217158-3167-80             WIRE SEAL                CCN002640000002640000FN00000000020220101002640000NNMD0220220112130144    1C0C  00002000000000048000000109032J1    UKYEL-BL002700430014
BI00B32K8    #K1220010063   202202117137-2718-50             SEALED CONNECTOR         CCN000007000000007000FN00000000020220301000007000NNM   20220112130144    2C0C  00000100000000118300000236632K8    ELELCOM 002700430014
BI00A32M4    #TL2023        202201207172-5629-80             RUBBER STOPPER           PCN000320000000320000FN00000000020220201000320000NNMM0020220112144500    2H0H  00002000000000060000000111132M4    SISAI   004300270014
BI00A32M4    TP2023         202201147114-5748-02             TERMINAL                 CCN000036000000036000FN00000000020220201000036000NNMM0020220112133117    4P0P  00001200000000444000000737632M4    SISAI   006400630015
BI00B32M4    TP2024D        202201277116-4231-02             TERMINAL                 CCN000156000000078000FN00000000020220201000078000NNEQ0020220112142228    4P0P  00002600000000683800001012532M4    SISAI   006400630017
BI00A32M4    TP2024D        202201147116-4486-02             TERMINAL                 CCN000028000000028000FN00000000020220201000028000NNEM0020220112145154    4P0P  00002800000000666400000995132M4    SISAI   006400630017
BI00B32M4    TP2024D        202201277116-5041-02             TERMINAL                 CCN000045000000030000FN00000000020220201000030000NNEQ0020220112142400    4P0P  00001500000000583500000868732M4    SISAI   006400630015
BI00B32M4    TP2024D        202201277158-3006-90             RUBBER STOPPER           CCN000180000000020000FN00000000020220201000020000NNEQ0020220112142646    1C0C  00002000000000330600000386032M4    SISAI   002700430014
BI00A32M4    TP2024D        202201147283-7029-40             CONNECTOR                CCN000006000000006000FN00000000020220201000006000NNED0020220112145526    1N0N  00000600000001026000001200032M4    SISAI   005600390023
BI00B32M4    TP2024D        202203107289-3342-30             HOUSING FEMALE ASS'Y     CCN000012000000002400FN00000000020220201000002400NNED0420220112143100    1N0N  00000240000000686400000901432M4    SISAI   005500360039
BI00B32M4    TP2024D        202201277288-3340-30             HOUSING MALE             CCN000021000000006000FN00000000020220201000006000NNEQ0020220112143002    4N0N  00000150000000861500001006432M4    SISAI   005400370024
BI00A32M4    TP2024D        202201147382-1481-10             CONNECTOR                CCN000001600000001600FN00000000020220201000001600NNEM0020220112145154    4N0N  00000080000001025000001183032M4    SISAI   005600390040
BI00B32M4    TP2024D        202201277116-4028-08             TERMINAL FEMALE          CCN000064000000032000FN00000000020220201000032000NNEQ0020220112142134    4P0P  00001600000000652800000981532M4    SISAI   006400630017
BI00A32M4    TP2024D        202201147116-5043-02             TERMINAL FEMALE          CCN000048000000048000FN00000000020220201000048000NNEM0020220112145154    4P0P  00001200000000559200000844432M4    SISAI   006400630015
BI00B32M4    TP2025E        202202037116-5043-02             TERMINAL FEMALE          CCN000024000000012000FN00000000020220201000012000NNEQ0020220112142514    4P0P  00001200000000559200000844432M4    SISAI   006400630015
BI00B32M4    TP2024D        202201277283-1289-40             CONNECTOR HOUSING        CCN000001800000001200FN00000000020220201000001200NNEQ0020220112142723    1N0N  00000060000000679800000824832M4    SISAI   005400370024
BI00A32M4    TP2024D        202201147116-4028-08             TERMINAL FEMALE          CCN000032000000032000FN00000000020220201000032000NNEM0020220112145154    4P0P  00001600000000652800000981532M4    SISAI   006400630017
BI00A32M4    TP2024D        202201147116-4231-02             TERMINAL                 CCN000078000000078000FN00000000020220201000078000NNEM0020220112145154    4P0P  00002600000000683800001012532M4    SISAI   006400630017
BI00A32M4    TP2024D        202201147116-5041-02             TERMINAL                 CCN000015000000015000FN00000000020220201000015000NNEM0020220112145154    4P0P  00001500000000583500000868732M4    SISAI   006400630015
BI00A32M4    TP2025E        202201147116-5043-02             TERMINAL FEMALE          CCN000012000000012000FN00000000020220201000012000NNEM0020220112142520    4P0P  00001200000000559200000844432M4    SISAI   006400630015
BI00A32M4    TP2024D        202201147158-3006-90             RUBBER STOPPER           CCN000160000000160000FN00000000020220201000160000NNEM0020220112145526    1C0C  00002000000000330600000386032M4    SISAI   002700430014
BI00A32M4    TP2024D        202201147283-1289-40             CONNECTOR HOUSING        CCN000000600000000600FN00000000020220201000000600NNEM0020220112145526    1N0N  00000060000000679800000824832M4    SISAI   005400370024
BI00A32M4    TP2024D        202201147288-3340-30             HOUSING MALE             CCN000015000000015000FN00000000020220201000015000NNEM0020220112145154    4N0N  00000150000000861500001006432M4    SISAI   005400370024
BI00A32M4    TP2024D        202201147289-3342-30             HOUSING FEMALE ASS'Y     CCN000009600000009600FN00000000020220201000009600NNED0020220112145526    1N0N  00000240000000686400000901432M4    SISAI   005500360039
BI00B32N1    NST2114A 1     202201207282-4855                HOUSING MALE ASS'Y       CCN000006000000000000FY00000000020220201000000000NNMQ0820220112144803    4N0N  00000120000001063200001283232N1    TAYIPL  005500360039
BI00B32N1    NST2114A 1     202203037283-4855                CONNECTOR HOUSING        CCN000008000000000000FY00000000020220201000000000NNMQ0820220112144837    4N0N  00000240000001188400001400032N1    TAYIPL  005500360039
BI00B32N1    NST2114A 2     202201207282-4855                HOUSING MALE ASS'Y       CCN000004000000000000FY00000000020220201000000000NNMQ0820220112145104    4N0N  00000120000001063200001283232N1    TAYIPL  005500360039
BI00B32N1    NST2114A 2     202203107283-4855                CONNECTOR HOUSING        CCN000004000000000000FY00000000020220201000000000NNMQ0820220112145153    4N0N  00000240000001188400001400032N1    TAYIPL  005500360039
BI00B32N1    NST2115A       202201277116-4020                TERMINAL                 CCN000054000000054000FN00000000020220201000054000NNE   20220112153312    4P0P  00001350000000513000000798232N1    TAYIPL  006400630015
BI00B32N1    NST2115A       202201277126-8851-02             TERMINAL                 CCN000090000000090000FN00000000020220201000090000NNE   20220112153312    1P0P  00000900000000739800001025032N1    TAYIPL  006400630015
BI00B32N1    NST2115A       202201277116-1301                TERMINAL                 CCN000060000000060000FN00000000020220201000060000NNE   20220112153312    4P0P  00001500000000487500000772732N1    TAYIPL  006400630015
BI00B32N1    NST2115A       202201277126-8852-02             TERMINAL                 CCN000045000000045000FN00000000020220201000045000NNE   20220112153312    1P0P  00000750000000648000000933232N1    TAYIPL  006400630015
BI00B32N1    NST2115A       202201277126-8850-02             TERMINAL                 CCN000063000000063000FN00000000020220201000063000NNE   20220112153312    1P0P  00000900000000672300000957532N1    TAYIPL  006400630015
BI00B32N1    NST2115A       202201277114-4100-02             TERMINAL                 CCN000108000000108000FN00000000020220201000108000NNE   20220112153312    4P0P  00001800000000748800001077432N1    TAYIPL  006400630017
BI00B32N1    NST2115A       202201277114-4020                TERMINAL                 CCN000021000000021000FN00000000020220201000021000NNE   20220112153312    4P0P  00002100000000875700001169332N1    TAYIPL  006400630015
BI00B32N1    NST2115A       202201277116-4100-02             TERMINAL                 CCN000045000000045000FN00000000020220201000045000NNE   20220112153312    4P0P  00001500000000696000000990232N1    TAYIPL  006400630015
BI00B32N1    NST2115A       202201277283-1144-30             CONNECTOR                CCN000007200000007200FN00000000020220201000007200NNE   20220112153312    4N0N  00000240000000602200000866132N1    TAYIPL  005500360039
BI00B32N1    NST2115A       202201277116-6042                TERMINAL                 CCN000012000000012000FN00000000020220201000012000NNE   20220112153312    4P0P  00000300000000523800000856132N1    TAYIPL  006400630015
BI00B32N1    NST2115A       202201277114-4112-02             TERMINAL                 CCN000009000000009000FN00000000020220201000009000NNE   20220112153312    4P0P  00000900000000598500000927132N1    TAYIPL  006400630017
BI00B32N1    NST2115A       202201277116-4112-02             TERMINAL                 CCN000018000000018000FN00000000020220201000018000NNE   20220112153312    4P0P  00000600000000450000000738232N1    TAYIPL  006400630015
BI00B32N1    NST2115A       202201277116-4110-02             TERMINAL                 CCN000009000000009000FN00000000020220201000009000NNE   20220112153312    4P0P  00000900000000594000000882232N1    TAYIPL  006400630015
BI00B32N1    NST2115A       202201277114-4101-02             TERMINAL                 CCN000015000000015000FN00000000020220201000015000NNE   20220112153312    4P0P  00001500000000675000001003632N1    TAYIPL  006400630017
BI00B32N1    NST2115A       202201277114-4032                TERMINAL                 CCN000007500000007500FN00000000020220201000007500NNE   20220112153312    4P0P  00000750000000735000001063632N1    TAYIPL  006400630017
BI00B32N1    NST2115A       202201277282-1248                HOUSING SUB ASSEMBLY     CCN000000600000000600FN00000000020220201000000600NNE   20220112153312    1N0N  00000060000001167000001372032N1    TAYIPL  005500360039
BI00B32N1    NST2115A       202201277282-1248-30             HOUSING SUB ASSEMBLY     CCN000001200000001200FN00000000020220201000001200NNE   20220112153312    1N0N  00000060000001167000001372032N1    TAYIPL  005500360039
BI00B32N1    NST2115A       202201277282-5574-10             CONNECTOR                CCN000000800000000800FN00000000020220201000000800NNE   20220112153312    4N0N  00000080000001235000001423032N1    TAYIPL  005600390040
BI00B32N1    NST2115A       202201277114-4729-02             TERMINAL                 CCN000040320000060000FN00000000020220201000060000NNE   20220112153312    4P0P  00003000000000516000000810232N1    TAYIPL  006400630015
BI00B32N1    NST2115A       202201277116-2891-02             TERMINAL                 CCN000030000000030000FN00000000020220201000030000NNE   20220112153312    4P0P  00001500000000982500001145932N1    TAYIPL  005100280028
BI00B32N1    NST2115A       202201277116-2893-02             TERMINAL                 CCN000060000000060000FN00000000020220201000060000NNE   20220112153312    4P0P  00001200000000895200001058632N1    TAYIPL  005100280028
BI00B32N1    NST2115A       202201277116-2892-02             TERMINAL                 CCN000012000000012000FN00000000020220201000012000NNE   20220112153312    4P0P  00001200000000818400000981832N1    TAYIPL  005100280028
BI00B32N1    NST2115A       202201277283-5574-10             CONNECTOR                CCN000001050000001600FN00000000020220201000001600NNE   20220112153312    4N0N  00000080000001235000001435232N1    TAYIPL  005500360039
BI00B32N1    NST2115A       202201277283-6388-40             CONNECTOR                CCN000002000000002000FN00000000020220201000002000NNE   20220112153312    4N0N  00000200000001029000001173532N1    TAYIPL  005500360039
BI00B32N1    #NST2115A      202201277157-3821                RUBBER STOPPER           CCN000120000000120000FN00000000020220201000120000NNE   20220112153310    2C0C  00002000000000176000000238032N1    TAYIPL  002700430014
BI00B32N1    #NST2115A      202201277157-3646                RUBBER STOPPER           CCN000080000000080000FN00000000020220201000080000NNE   20220112153310    2H0H  00002000000000184000000255232N1    TAYIPL  002700430014
BI00B32N1    #NST2115A      202201277283-8397-40             CONNECTOR                CCN000001540000001540FN00000000020220201000001540NNE   20220112153310    2N0N  00000154000001007000001222732N1    TAYIPL  005600390023
BI00B32Q8    EU2203ADMW     202202027C89-6868-30             SEALED ASSY FEMALE       CCN000030240000015120FN00000000020220301000015120NNEQ0420220112142317    4N0N  00000252000000839200001119232Q8    EMEMI   005500360039
BI00B32Q8    EU2203ADMW     202203027C98-1145-4W             SQUIB SUB ASS'Y          CCN000040000000040000FN00000000020220301000040000NNED0420220112142344    4N0N  00001000000000787900000944932Q8    EMEMI   005400370024
BI00B32Q8    EU2203ADMW     202202097C89-6868-30             SEALED ASSY FEMALE       CCN000015120000015120FN00000000020220301000015120NNED0420220112142322    4N0N  00000252000000839200001119232Q8    EMEMI   005500360039
BI00B32Q8    EU2202MTMW     202201267327-6949-30             MULTI FUSE               CCN000000576000000576FN00000000020220201000000576NNE   20220112151819    4N00  00000028800000886700001052632Q8    EMEMI   005400370024
BI00B32Q8    EU2203BDMW     202202027B96-0805-02             TERMINAL FEMALE          CCN000022500000022500FN00000000020220301000022500NNE   20220112151837    4P0P  00002250000000558000000843232Q8    EMEMI   006400630015
BI00B32Q8    EU2203BDMW     202202027388-0314                CONNECTOR ASS'Y          CCN000008400000008400FN00000000020220301000008400NNE   20220112151837    4N0N  00000120000001038000001132332Q8    EMEMI   005400370024
BI00B32Q8    #EU2203BDMW    202202027287-8860                HOUSING FEMALE ASS'Y     CCN000006400000006400FN00000000020220301000006400NNE   20220112151835    2N0N  00000160000000693400000853432Q8    EMEMI   005400370024
BI00B32Q8    #EU2203BDMW    202202027287-8861                HOUSING FEMALE ASS'Y     CCN000001600000001600FN00000000020220301000001600NNE   20220112151835    2N0N  00000160000000769000000929032Q8    EMEMI   005400370024
BI00B32Q8    @EU2203BNMW    202202027287-1238-30             HOUSING FEMALE ASS'Y     CCN000000780000000780FN00000000020220301000000780NNE   20220112151850    3N0N  00000078000000721100001122032Q8    EMEMI   005500360039
BI00B32Q8    EU2203CTMW     202202027114-5096-02             TERMINAL                 CCN000210000000210000FN00000000020220301000210000NNE   20220112151907    4P0P  00003000000000498000000792232Q8    EMEMI   006400630015
BI00B32Q8    EU2203CTMW     202202027116-4486-02             TERMINAL                 CCN000028000000028000FN00000000020220301000028000NNE   20220112151907    4P0P  00002800000000666400000995132Q8    EMEMI   006400630017
BI00B32Q8    EU2203CTMW     202202027196-0396-02             TERMINAL                 CCN000015000000015000FN00000000020220301000015000NNE   20220112151907    4P0P  00001500000000949500001112932Q8    EMEMI   002800510028
BI00B32Q8    EU2203CTMW     202202027196-1102-02             TERMINAL                 CCN000067500000067500FN00000000020220301000067500NNE   20220112151907    4P0P  00002250000000405000000690232Q8    EMEMI   006400630015
BI00B32Q8    EU2203CTMW     202202027283-1928-80             CONNECTOR                CCN000002000000002000FN00000000020220301000002000NNE   20220112151907    4N0N  00000200000001180000001358332Q8    EMEMI   005500360039
BI00B32Q8    EU2203CTMW     202202027283-4576-30             HOUSING FEMALE ASS'Y     CCN000004800000004800FN00000000020220301000004800NNE   20220112151907    4N0N  00000480000000651300000871332Q8    EMEMI   005500360039
BI00B32Q8    EU2203CTMW     202202027286-3885-40             CONNECTOR MALE ASS'Y     CCN000004800000004800FN00000000020220301000004800NNE   20220112151907    1N0N  00000120000000910600001130632Q8    EMEMI   005500360039
BI00B32Q8    EU2203CTMW     202202027288-3339-30             HOUSING MALE             CCN000001500000001500FN00000000020220301000001500NNE   20220112151907    4N0N  00000150000000867000001012032Q8    EMEMI   005400370024
BI00B32Q8    EU2203CTMW     202202027288-6547                CONNECTOR MALE ASS'Y     CCN000002250000002250FN00000000020220301000002250NNE   20220112151907    4N0N  00000075000001205300001340332Q8    EMEMI   005400370024
BI00B32Q8    EU2203CTMW     202202027289-3342                HOUSING FEMALE ASS'Y     CCN000016800000016800FN00000000020220301000016800NNE   20220112151907    1N0N  00000240000000686400000901432Q8    EMEMI   005500360039
BI00B32Q8    EU2203CTMW     202202027289-6547                HOUSING FEMALE ASS'Y     CCN000002400000002400FN00000000020220301000002400NNE   20220112151907    1N0N  00000240000001152000001362032Q8    EMEMI   005500360039
BI00B32Q8    EU2203CTMW     202202027327-6952-30             MULTI FUSE               CCN000000560000000560FN00000000020220301000000560NNE   20220112151907    4N0N  00000056000000848500001031532Q8    EMEMI   005400370024
BI00B32Q8    EU2203CTMW     202202027388-2978-30             HOUSING MALE ASS'Y       CCN000013920000013920FN00000000020220301000013920NNE   20220112151907    1N0N  00000048000000742000001122032Q8    EMEMI   005500360039
BI00B32Q8    #EU2203CTMW    202202027158-7586-30             BLOCK LIF                CCN000000800000000800FN00000000020220301000000800NNE   20220112151905    2F0F  00000080000000617400000844232Q8    EMEMI   005500360039
BI00B32Q8    #EU2203CTMW    202202027172-5625-90             RUBBER STOPPER           CCN000060000000060000FN00000000020220301000060000NNE   20220112151905    2H0H  00002000000000082400000133832Q8    EMEMI   004300270014
BI00B32Q8    #EU2203CTMW    202202027172-5629-80             RUBBER STOPPER           CCN000620000000620000FN00000000020220301000620000NNE   20220112151905    2H0H  00002000000000060000000111132Q8    EMEMI   004300270014
BI00B32Q8    #EU2203CTMW    202202027183-2412-40             HOUSING                  CCN000001600000001600FN00000000020220301000001600NNE   20220112151905    2F0F  00000160000001062100001221232Q8    EMEMI   005500360039
BI00B32Q8    #EU2203CTMW    202202027187-1616                HOUSING FEMALE           CCN000004000000004000FN00000000020220301000004000NNE   20220112151905    2F0F  00000400000001152000001262032Q8    EMEMI   005500360039
BI00B32Q8    #EU2203CTMW    202202027189-2978-30             HOUSING FEMALE           CCN000016500000016500FN00000000020220301000016500NNE   20220112151905    2F0F  00000150000000966900001096932Q8    EMEMI   005400370024
BI00B32Q8    #EU2203CTMW    202202027189-3033                HOUSING FEMALE           CCN000001600000001600FN00000000020220301000001600NNE   20220112151905    2F0F  00000160000001211200001431232Q8    EMEMI   005500360039
BI00B32Q8    #EU2203CTMW    202202027282-5528-70             HOUSING MALE ASS'Y       CCN000002000000002000FN00000000020220301000002000NNE   20220112151905    2N0N  00000100000000230000000339032Q8    EMEMI   005400370024
BI00B32Q8    #EU2203CTMW    202202027282-7064-40             HOUSING MALE ASS'Y       CCN000000600000000600FN00000000020220301000000600NNE   20220112151905    2N00  00000060000000599400000766432Q8    EMEMI   005400370024
BI00B32Q8    #EU2203CTMW    202202027289-3622-30             HOUSING FEMALE ASS'Y     CCN000002160000002160FN00000000020220301000002160NNE   20220112151905    2N0N  00000043200000839400001038432Q8    EMEMI   005400370024
BI00B32Q8    EU2203D MW     202202027114-4020                TERMINAL                 CCN000021000000021000FN00000000020220301000021000NNE   20220112151923    4P0P  00002100000000875700001169332Q8    EMEMI   006400630015
BI00B32Q8    EU2203D MW     202202027114-4729-02             TERMINAL                 CCN000420000000420000FN00000000020220301000420000NNE   20220112151923    4P0P  00003000000000516000000810232Q8    EMEMI   006400630015
BI00B32Q8    EU2203D MW     202202027114-5747-02             TERMINAL                 CCN000036000000036000FN00000000020220301000036000NNE   20220112151923    4P0P  00001800000000626400000920032Q8    EMEMI   006400630015
BI00B32Q8    EU2203D MW     202202027116-1685-02             TERMINAL                 CCN000024000000024000FN00000000020220301000024000NNE   20220112151923    4P0P  00002400000000897600001065232Q8    EMEMI   005100280028
BI00B32Q8    EU2203D MW     202202027116-6042                TERMINAL                 CCN000009000000009000FN00000000020220301000009000NNE   20220112151923    4P0P  00000300000000523800000856132Q8    EMEMI   006400630015
BI00B32Q8    EU2203D MW     202202027126-8854-02             TERMINAL                 CCN000037500000037500FN00000000020220301000037500NNE   20220112151923    4P0P  00000750000000604500000889732Q8    EMEMI   006400630015
BI00B32Q8    EU2203D MW     202202027158-3022-80             RUBBER STOPPER           CCN000010000000010000FN00000000020220301000010000NNE   20220112151923    1C0C  00000500000000467500000524032Q8    EMEMI   002700430014
BI00B32Q8    EU2203D MW     202202027183-2417-40             CONNECTOR HOUSING        CCN000004800000004800FN00000000020220301000004800NNE   20220112151923    4F0F  00000240000001137800001298132Q8    EMEMI   005500360039
BI00B32Q8    #EU2203D MW    202202027114-4022                TERMINAL                 CCN000030000000030000FN00000000020220301000030000NNE   20220112151919    2F0P  00001500000000708000001120632Q8    EMEMI   006400630015
BI00B32Q8    #EU2203D MW    202202027158-3005-80             RUBBER STOPPER           CCN000140000000140000FN00000000020220301000140000NNE   20220112151919    2H0H  00002000000000210000000268732Q8    EMEMI   002700430014
BI00B32Q8    #EU2203D MW    202202027158-3015-10             RUBBER STOPPER           CCN000080000000080000FN00000000020220301000080000NNE   20220112151919    2C0C  00001000000000419500000474032Q8    EMEMI   002700430014
BI00B32Q8    #EU2203D MW    202202027183-2412-30             HOUSING                  CCN000001600000001600FN00000000020220301000001600NNE   20220112151919    2F0F  00000160000001059700001059732Q8    EMEMI   005500360039
BI00B32Q8    #EU2203D MW    202202027283-1065                CONNECTOR                CCN000002500000002500FN00000000020220301000002500NNE   20220112151919    2N0N  00000250000001152500001310432Q8    EMEMI   005500360039
BI00B32Q8    @EU2203D MW    202202027183-7770-40             HOUSING                  CCN000006000000006000FN00000000020220301000006000NNE   20220112151921    3F0F  00000600000001011000001161032Q8    EMEMI   005400370024
BI00B32Q8    @EU2203D MW    202202027282-1148                CONNECTOR ASS'Y          CCN000001600000001600FN00000000020220301000001600NNE   20220112151921    3N0N  00000080000001165300001404032Q8    EMEMI   005500360039
BI00B32Q8    EU2203DTMW     202202097116-5750-02             TERMINAL                 CCN000120000000120000FN00000000020220301000120000NNE   20220112151936    4P0P  00001500000000457500000742732Q8    EMEMI   006400630015
BI00B32Q8    EU2203DTMW     202202097327-6949-30             MULTI FUSE               CCN000000288000000288FN00000000020220301000000288NNE   20220112151936    4N00  00000028800000886700001052632Q8    EMEMI   005400370024
BI00B32Q8    EU22042 MW     202203097017-1180-02             TERMINAL                 CCN000144000000144000FN00000000020220401000144000NNM   20220112152015    4P0P  00007200000001065600001229032Q8    EMEMI   005100280028
BI00B32Q8    EU22043 MW     202203167017-1180-02             TERMINAL                 CCN000288000000288000FN00000000020220401000288000NNM   20220112152015    4P0P  00007200000001065600001229032Q8    EMEMI   005100280028
BI00B32Q8    EU22044 MW     202203307017-1180-02             TERMINAL                 CCN000216000000216000FN00000000020220401000216000NNM   20220112152015    4P0P  00007200000001065600001229032Q8    EMEMI   005100280028
BI00B32Q8    EU22042 MW     202203097017-1181-02             TERMINAL                 CCN000063000000063000FN00000000020220401000063000NNM   20220112152015    4P0P  00006300000001089900001266832Q8    EMEMI   005100280028
BI00B32Q8    EU22043 MW     202203167017-1181-02             TERMINAL                 CCN000315000000315000FN00000000020220401000315000NNM   20220112152015    4P0P  00006300000001089900001266832Q8    EMEMI   005100280028
BI00B32Q8    EU22044 MW     202203307017-1181-02             TERMINAL                 CCN000189000000189000FN00000000020220401000189000NNM   20220112152015    4P0P  00006300000001089900001266832Q8    EMEMI   005100280028
BI00B32Q8    EU22042 MW     202203097017-1182-02             TERMINAL                 CCN000135000000135000FN00000000020220401000135000NNM   20220112152015    4P0P  00004500000001165500001318632Q8    EMEMI   005100280028
BI00B32Q8    EU22043 MW     202203167017-1182-02             TERMINAL                 CCN000180000000180000FN00000000020220401000180000NNM   20220112152015    4P0P  00004500000001165500001318632Q8    EMEMI   005100280028
BI00B32Q8    EU22044 MW     202203307017-1182-02             TERMINAL                 CCN000090000000090000FN00000000020220401000090000NNM   20220112152015    4P0P  00004500000001165500001318632Q8    EMEMI   005100280028
BI00B32Q8    EU22043 MW     202203167114-4020                TERMINAL                 CCN000021000000021000FN00000000020220401000021000NNM   20220112152015    4P0P  00002100000000875700001169332Q8    EMEMI   006400630015
BI00B32Q8    EU22044 MW     202203307114-4020                TERMINAL                 CCN000042000000042000FN00000000020220401000042000NNM   20220112152015    4P0P  00002100000000875700001169332Q8    EMEMI   006400630015
BI00B32Q8    EU22041 MW     202203027114-4021                TERMINAL                 CCN000045000000045000FN00000000020220401000045000NNM   20220112152015    4P0P  00001500000000670500000964132Q8    EMEMI   006400630015
BI00B32Q8    EU22042 MW     202203097114-4021                TERMINAL                 CCN000060000000060000FN00000000020220401000060000NNM   20220112152015    4P0P  00001500000000670500000964132Q8    EMEMI   006400630015
BI00B32Q8    EU22043 MW     202203167114-4021                TERMINAL                 CCN000060000000060000FN00000000020220401000060000NNM   20220112152015    4P0P  00001500000000670500000964132Q8    EMEMI   006400630015
BI00B32Q8    EU22044 MW     202203307114-4021                TERMINAL                 CCN000030000000030000FN00000000020220401000030000NNM   20220112152015    4P0P  00001500000000670500000964132Q8    EMEMI   006400630015
BI00B32Q8    EU22041 MW     202203027114-4032                TERMINAL                 CCN000037500000037500FN00000000020220401000037500NNM   20220112152015    4P0P  00000750000000735000001063632Q8    EMEMI   006400630017
BI00B32Q8    EU22042 MW     202203097114-4032                TERMINAL                 CCN000030000000030000FN00000000020220401000030000NNM   20220112152015    4P0P  00000750000000735000001063632Q8    EMEMI   006400630017
BI00B32Q8    EU22043 MW     202203167114-4032                TERMINAL                 CCN000037500000037500FN00000000020220401000037500NNM   20220112152015    4P0P  00000750000000735000001063632Q8    EMEMI   006400630017
BI00B32Q8    EU22044 MW     202203307114-4032                TERMINAL                 CCN000015000000015000FN00000000020220401000015000NNM   20220112152015    4P0P  00000750000000735000001063632Q8    EMEMI   006400630017
BI00B32Q8    EU22041 MW     202203027114-4415-02             TERMINAL MALE            CCN000054000000054000FN00000000020220401000054000NNM   20220112152015    4P0P  00002700000000429300000717532Q8    EMEMI   006400630015
BI00B32Q8    EU22042 MW     202203097114-4415-02             TERMINAL MALE            CCN000027000000027000FN00000000020220401000027000NNM   20220112152015    4P0P  00002700000000429300000717532Q8    EMEMI   006400630015
BI00B32Q8    EU22043 MW     202203167114-4415-02             TERMINAL MALE            CCN000027000000027000FN00000000020220401000027000NNM   20220112152015    4P0P  00002700000000429300000717532Q8    EMEMI   006400630015
BI00B32Q8    EU22044 MW     202203307114-4415-02             TERMINAL MALE            CCN000027000000027000FN00000000020220401000027000NNM   20220112152015    4P0P  00002700000000429300000717532Q8    EMEMI   006400630015
BI00B32Q8    EU22043 MW     202203167114-4729-02             TERMINAL                 CCN000180000000180000FN00000000020220401000180000NNM   20220112152015    4P0P  00003000000000516000000810232Q8    EMEMI   006400630015
BI00B32Q8    EU22044 MW     202203307114-4729-02             TERMINAL                 CCN000150000000150000FN00000000020220401000150000NNM   20220112152015    4P0P  00003000000000516000000810232Q8    EMEMI   006400630015
BI00B32Q8    EU22042 MW     202203097114-5747-02             TERMINAL                 CCN000054000000054000FN00000000020220401000054000NNM   20220112152015    4P0P  00001800000000626400000920032Q8    EMEMI   006400630015
BI00B32Q8    EU22043 MW     202203167114-5747-02             TERMINAL                 CCN000054000000054000FN00000000020220401000054000NNM   20220112152015    4P0P  00001800000000626400000920032Q8    EMEMI   006400630015
BI00B32Q8    EU22044 MW     202203307114-5747-02             TERMINAL                 CCN000018000000018000FN00000000020220401000018000NNM   20220112152015    4P0P  00001800000000626400000920032Q8    EMEMI   006400630015
BI00B32Q8    EU22041 MW     202203027114-5748-02             TERMINAL                 CCN000024000000024000FN00000000020220401000024000NNM   20220112152015    4P0P  00001200000000444000000737632Q8    EMEMI   006400630015
BI00B32Q8    EU22042 MW     202203097114-5748-02             TERMINAL                 CCN000060000000060000FN00000000020220401000060000NNM   20220112152015    4P0P  00001200000000444000000737632Q8    EMEMI   006400630015
BI00B32Q8    EU22043 MW     202203167114-5748-02             TERMINAL                 CCN000048000000048000FN00000000020220401000048000NNM   20220112152015    4P0P  00001200000000444000000737632Q8    EMEMI   006400630015
BI00B32Q8    EU22044 MW     202203307114-5748-02             TERMINAL                 CCN000036000000036000FN00000000020220401000036000NNM   20220112152015    4P0P  00001200000000444000000737632Q8    EMEMI   006400630015
BI00B32Q8    EU22043 MW     202203167114-6041                TERMINAL                 CCN000003600000003600FN00000000020220401000003600NNM   20220112152015    4P0P  00000360000000580700000824232Q8    EMEMI   006400630015
BI00B32Q8    EU22044 MW     202203307114-6041                TERMINAL                 CCN000003600000003600FN00000000020220401000003600NNM   20220112152015    4P0P  00000360000000580700000824232Q8    EMEMI   006400630015
BI00B32Q8    EU22043 MW     202203167116-1180                TERMINAL                 CCN000019500000019500FN00000000020220401000019500NNM   20220112152015    1P0P  00001950000000618200000903432Q8    EMEMI   006400630015
BI00B32Q8    EU22041 MW     202203027116-2891-02             TERMINAL                 CCN000045000000045000FN00000000020220401000045000NNM   20220112152015    4P0P  00001500000000982500001145932Q8    EMEMI   005100280028
BI00B32Q8    EU22042 MW     202203097116-2891-02             TERMINAL                 CCN000075000000075000FN00000000020220401000075000NNM   20220112152015    4P0P  00001500000000982500001145932Q8    EMEMI   005100280028
BI00B32Q8    EU22043 MW     202203167116-2891-02             TERMINAL                 CCN000075000000075000FN00000000020220401000075000NNM   20220112152015    4P0P  00001500000000982500001145932Q8    EMEMI   005100280028
BI00B32Q8    EU22044 MW     202203307116-2891-02             TERMINAL                 CCN000045000000045000FN00000000020220401000045000NNM   20220112152015    4P0P  00001500000000982500001145932Q8    EMEMI   005100280028
BI00B32Q8    EU22042 MW     202203097116-2892-02             TERMINAL                 CCN000036000000036000FN00000000020220401000036000NNM   20220112152015    4P0P  00001200000000818400000981832Q8    EMEMI   005100280028
BI00B32Q8    EU22043 MW     202203167116-2892-02             TERMINAL                 CCN000060000000060000FN00000000020220401000060000NNM   20220112152015    4P0P  00001200000000818400000981832Q8    EMEMI   005100280028
BI00B32Q8    EU22044 MW     202203307116-2892-02             TERMINAL                 CCN000024000000024000FN00000000020220401000024000NNM   20220112152015    4P0P  00001200000000818400000981832Q8    EMEMI   005100280028
BI00B32Q8    EU22043 MW     202203167116-2893-02             TERMINAL                 CCN000144000000144000FN00000000020220401000144000NNM   20220112152015    4P0P  00001200000000895200001058632Q8    EMEMI   005100280028
BI00B32Q8    EU22044 MW     202203307116-2893-02             TERMINAL                 CCN000084000000084000FN00000000020220401000084000NNM   20220112152015    4P0P  00001200000000895200001058632Q8    EMEMI   005100280028
BI00B32Q8    EU22041 MW     202203027116-3154-08             TERMINAL                 CCN000027000000027000FN00000000020220401000027000NNM   20220112152015    4P0P  00002700000000475200000760432Q8    EMEMI   006400630015
BI00B32Q8    EU22042 MW     202203097116-3154-08             TERMINAL                 CCN000027000000027000FN00000000020220401000027000NNM   20220112152015    4P0P  00002700000000475200000760432Q8    EMEMI   006400630015
BI00B32Q8    EU22043 MW     202203167116-3154-08             TERMINAL                 CCN000027000000027000FN00000000020220401000027000NNM   20220112152015    4P0P  00002700000000475200000760432Q8    EMEMI   006400630015
BI00B32Q8    EU22043 MW     202203167116-4025                TERMINAL                 CCN000112000000112000FN00000000020220401000112000NNM   20220112152015    4P0P  00001600000000644800000975132Q8    EMEMI   006400630017
BI00B32Q8    EU22044 MW     202203307116-4025                TERMINAL                 CCN000144000000144000FN00000000020220401000144000NNM   20220112152015    4P0P  00001600000000644800000975132Q8    EMEMI   006400630017
BI00B32Q8    EU22044 MW     202203307116-4026                TERMINAL                 CCN000016000000016000FN00000000020220401000016000NNM   20220112152015    4P0P  00001600000000664000000994332Q8    EMEMI   006400630017
BI00B32Q8    EU22042 MW     202203097116-4028-08             TERMINAL FEMALE          CCN000256000000256000FN00000000020220401000256000NNM   20220112152015    4P0P  00001600000000652800000981532Q8    EMEMI   006400630017
BI00B32Q8    EU22043 MW     202203167116-4028-08             TERMINAL FEMALE          CCN000384000000384000FN00000000020220401000384000NNM   20220112152015    4P0P  00001600000000652800000981532Q8    EMEMI   006400630017
BI00B32Q8    EU22044 MW     202203307116-4028-08             TERMINAL FEMALE          CCN000224000000224000FN00000000020220401000224000NNM   20220112152015    4P0P  00001600000000652800000981532Q8    EMEMI   006400630017
BI00B32Q8    EU22041 MW     202203027116-4029-08             TERMINAL FEMALE          CCN000016000000016000FN00000000020220401000016000NNM   20220112152015    4P0P  00001600000000670400000999132Q8    EMEMI   006400630017
BI00B32Q8    EU22042 MW     202203097116-4029-08             TERMINAL FEMALE          CCN000016000000016000FN00000000020220401000016000NNM   20220112152015    4P0P  00001600000000670400000999132Q8    EMEMI   006400630017
BI00B32Q8    EU22043 MW     202203167116-4029-08             TERMINAL FEMALE          CCN000016000000016000FN00000000020220401000016000NNM   20220112152015    4P0P  00001600000000670400000999132Q8    EMEMI   006400630017
BI00B32Q8    EU22042 MW     202203097116-4031                TERMINAL                 CCN000015000000015000FN00000000020220401000015000NNM   20220112152015    4P0P  00000750000000619500000904732Q8    EMEMI   006400630015
BI00B32Q8    EU22043 MW     202203167116-4031                TERMINAL                 CCN000007500000007500FN00000000020220401000007500NNM   20220112152015    4P0P  00000750000000619500000904732Q8    EMEMI   006400630015
BI00B32Q8    EU22042 MW     202203097116-4032                TERMINAL                 CCN000048000000048000FN00000000020220401000048000NNM   20220112152015    4P0P  00000600000000532800000818032Q8    EMEMI   006400630015
BI00B32Q8    EU22043 MW     202203167116-4032                TERMINAL                 CCN000072000000072000FN00000000020220401000072000NNM   20220112152015    4P0P  00000600000000532800000818032Q8    EMEMI   006400630015
BI00B32Q8    EU22044 MW     202203307116-4032                TERMINAL                 CCN000042000000042000FN00000000020220401000042000NNM   20220112152015    4P0P  00000600000000532800000818032Q8    EMEMI   006400630015
BI00B32Q8    EU22041 MW     202203027116-4037                TERMINAL                 CCN000114000000114000FN00000000020220401000114000NNM   20220112152015    4P0P  00000600000000600000000894232Q8    EMEMI   006400630015
BI00B32Q8    EU22042 MW     202203097116-4037                TERMINAL                 CCN000156000000156000FN00000000020220401000156000NNM   20220112152015    4P0P  00000600000000600000000894232Q8    EMEMI   006400630015
BI00B32Q8    EU22043 MW     202203167116-4037                TERMINAL                 CCN000162000000162000FN00000000020220401000162000NNM   20220112152015    4P0P  00000600000000600000000894232Q8    EMEMI   006400630015
BI00B32Q8    EU22044 MW     202203307116-4037                TERMINAL                 CCN000096000000096000FN00000000020220401000096000NNM   20220112152015    4P0P  00000600000000600000000894232Q8    EMEMI   006400630015
BI00B32Q8    EU22044 MW     202203307116-4122-02             TERMINAL                 CCN000004500000004500FN00000000020220401000004500NNM   20220112152015    4P0P  00000450000000656600000950232Q8    EMEMI   006400630015
BI00B32Q8    EU22042 MW     202203097116-4231-02             TERMINAL                 CCN000026000000026000FN00000000020220401000026000NNM   20220112152015    4P0P  00002600000000683800001012532Q8    EMEMI   006400630017
BI00B32Q8    EU22043 MW     202203167116-4231-02             TERMINAL                 CCN000130000000130000FN00000000020220401000130000NNM   20220112152015    4P0P  00002600000000683800001012532Q8    EMEMI   006400630017
BI00B32Q8    EU22044 MW     202203307116-4231-02             TERMINAL                 CCN000052000000052000FN00000000020220401000052000NNM   20220112152015    4P0P  00002600000000683800001012532Q8    EMEMI   006400630017
BI00B32Q8    EU22043 MW     202203167116-4415-02             TERMINAL                 CCN000038000000038000FN00000000020220401000038000NNM   20220112152015    4P0P  00003800000000596600000925732Q8    EMEMI   006400630017
BI00B32Q8    EU22044 MW     202203307116-4415-02             TERMINAL                 CCN000228000000228000FN00000000020220401000228000NNM   20220112152015    4P0P  00003800000000596600000925732Q8    EMEMI   006400630017
BI00B32Q8    EU22044 MW     202203307116-4416-02             TERMINAL                 CCN000192000000192000FN00000000020220401000192000NNM   20220112152015    4P0P  00003200000000518400000847132Q8    EMEMI   006400630017
BI00B32Q8    EU22042 MW     202203097116-5045-02             TERMINAL                 CCN000320000000320000FN00000000020220401000320000NNM   20220112152015    4P0P  00001600000000678400001007132Q8    EMEMI   006400630017
BI00B32Q8    EU22043 MW     202203167116-5045-02             TERMINAL                 CCN000784000000784000FN00000000020220401000784000NNM   20220112152015    4P0P  00001600000000678400001007132Q8    EMEMI   006400630017
BI00B32Q8    EU22044 MW     202203307116-5045-02             TERMINAL                 CCN000464000000464000FN00000000020220401000464000NNM   20220112152015    4P0P  00001600000000678400001007132Q8    EMEMI   006400630017
BI00B32Q8    EU22041 MW     202203027116-5751-02             TERMINAL                 CCN000132000000132000FN00000000020220401000132000NNM   20220112152015    4P0P  00001200000000379200000664432Q8    EMEMI   006400630015
BI00B32Q8    EU22042 MW     202203097116-5751-02             TERMINAL                 CCN000288000000288000FN00000000020220401000288000NNM   20220112152015    4P0P  00001200000000379200000664432Q8    EMEMI   006400630015
BI00B32Q8    EU22043 MW     202203167116-5751-02             TERMINAL                 CCN000288000000288000FN00000000020220401000288000NNM   20220112152015    4P0P  00001200000000379200000664432Q8    EMEMI   006400630015
BI00B32Q8    EU22044 MW     202203307116-5751-02             TERMINAL                 CCN000168000000168000FN00000000020220401000168000NNM   20220112152015    4P0P  00001200000000379200000664432Q8    EMEMI   006400630015
BI00B32Q8    EU22041 MW     202203027116-6041                TERMINAL                 CCN000009000000009000FN00000000020220401000009000NNM   20220112152015    4P0P  00000450000000716000001009632Q8    EMEMI   006400630015
BI00B32Q8    EU22042 MW     202203097116-6041                TERMINAL                 CCN000009000000009000FN00000000020220401000009000NNM   20220112152015    4P0P  00000450000000716000001009632Q8    EMEMI   006400630015
BI00B32Q8    EU22043 MW     202203167116-6041                TERMINAL                 CCN000013500000013500FN00000000020220401000013500NNM   20220112152015    4P0P  00000450000000716000001009632Q8    EMEMI   006400630015
BI00B32Q8    EU22044 MW     202203307116-6041                TERMINAL                 CCN000009000000009000FN00000000020220401000009000NNM   20220112152015    4P0P  00000450000000716000001009632Q8    EMEMI   006400630015
BI00B32Q8    EU22041 MW     202203027116-6042                TERMINAL                 CCN000051000000051000FN00000000020220401000051000NNM   20220112152015    4P0P  00000300000000523800000856132Q8    EMEMI   006400630015
BI00B32Q8    EU22042 MW     202203097116-6042                TERMINAL                 CCN000075000000075000FN00000000020220401000075000NNM   20220112152015    4P0P  00000300000000523800000856132Q8    EMEMI   006400630015
BI00B32Q8    EU22043 MW     202203167116-6042                TERMINAL                 CCN000072000000072000FN00000000020220401000072000NNM   20220112152015    4P0P  00000300000000523800000856132Q8    EMEMI   006400630015
BI00B32Q8    EU22044 MW     202203307116-6042                TERMINAL                 CCN000042000000042000FN00000000020220401000042000NNM   20220112152015    4P0P  00000300000000523800000856132Q8    EMEMI   006400630015
BI00B32Q8    EU22043 MW     202203167126-8853-02             TERMINAL                 CCN000090000000090000FN00000000020220401000090000NNM   20220112152015    4P0P  00000750000000562500000847732Q8    EMEMI   006400630015
BI00B32Q8    EU22044 MW     202203307126-8853-02             TERMINAL                 CCN000082500000082500FN00000000020220401000082500NNM   20220112152015    4P0P  00000750000000562500000847732Q8    EMEMI   006400630015
BI00B32Q8    EU22041 MW     202203027126-8854-02             TERMINAL                 CCN000090000000090000FN00000000020220401000090000NNM   20220112152015    4P0P  00000750000000604500000889732Q8    EMEMI   006400630015
BI00B32Q8    EU22042 MW     202203097126-8854-02             TERMINAL                 CCN000112500000112500FN00000000020220401000112500NNM   20220112152015    4P0P  00000750000000604500000889732Q8    EMEMI   006400630015
BI00B32Q8    EU22043 MW     202203167126-8854-02             TERMINAL                 CCN000120000000120000FN00000000020220401000120000NNM   20220112152015    4P0P  00000750000000604500000889732Q8    EMEMI   006400630015
BI00B32Q8    EU22044 MW     202203307126-8854-02             TERMINAL                 CCN000060000000060000FN00000000020220401000060000NNM   20220112152015    4P0P  00000750000000604500000889732Q8    EMEMI   006400630015
BI00B32Q8    EU22041 MW     202203027126-8855-02             TERMINAL                 CCN000078000000078000FN00000000020220401000078000NNM   20220112152015    4P0P  00000600000000510600000795832Q8    EMEMI   006400630015
BI00B32Q8    EU22042 MW     202203097126-8855-02             TERMINAL                 CCN000150000000150000FN00000000020220401000150000NNM   20220112152015    4P0P  00000600000000510600000795832Q8    EMEMI   006400630015
BI00B32Q8    EU22043 MW     202203167126-8855-02             TERMINAL                 CCN000144000000144000FN00000000020220401000144000NNM   20220112152015    4P0P  00000600000000510600000795832Q8    EMEMI   006400630015
BI00B32Q8    EU22044 MW     202203307126-8855-02             TERMINAL                 CCN000090000000090000FN00000000020220401000090000NNM   20220112152015    4P0P  00000600000000510600000795832Q8    EMEMI   006400630015
BI00B32Q8    EU22042 MW     202203097158-3006-90             RUBBER STOPPER           CCN000880000000880000FN00000000020220401000880000NNM   20220112152015    1C0C  00002000000000330600000386032Q8    EMEMI   002700430014
BI00B32Q8    EU22043 MW     202203167158-3006-90             RUBBER STOPPER           CCN001200000001200000FN00000000020220401001200000NNM   20220112152015    1C0C  00002000000000330600000386032Q8    EMEMI   002700430014
BI00B32Q8    EU22044 MW     202203307158-3006-90             RUBBER STOPPER           CCN000700000000700000FN00000000020220401000700000NNM   20220112152015    1C0C  00002000000000330600000386032Q8    EMEMI   002700430014
BI00B32Q8    EU22042 MW     202203097158-3009-60             RUBBER STOPPER           CCN000520000000520000FN00000000020220401000520000NNM   20220112152015    1C0C  00002000000000338000000386232Q8    EMEMI   002700430014
BI00B32Q8    EU22043 MW     202203167158-3009-60             RUBBER STOPPER           CCN000960000000960000FN00000000020220401000960000NNM   20220112152015    1C0C  00002000000000338000000386232Q8    EMEMI   002700430014
BI00B32Q8    EU22044 MW     202203307158-3009-60             RUBBER STOPPER           CCN000560000000560000FN00000000020220401000560000NNM   20220112152015    1C0C  00002000000000338000000386232Q8    EMEMI   002700430014
BI00B32Q8    EU22042 MW     202203097158-3022-80             RUBBER STOPPER           CCN000005000000005000FN00000000020220401000005000NNM   20220112152015    1C0C  00000500000000467500000524032Q8    EMEMI   002700430014
BI00B32Q8    EU22043 MW     202203167158-3022-80             RUBBER STOPPER           CCN000010000000010000FN00000000020220401000010000NNM   20220112152015    1C0C  00000500000000467500000524032Q8    EMEMI   002700430014
BI00B32Q8    EU22044 MW     202203307158-3022-80             RUBBER STOPPER           CCN000005000000005000FN00000000020220401000005000NNM   20220112152015    1C0C  00000500000000467500000524032Q8    EMEMI   002700430014
BI00B32Q8    EU22044 MW     202203307158-3070-80             RUBBER STOPPER           CCN000040000000040000FN00000000020220401000040000NNM   20220112152015    1C0C  00004000000000276000000333332Q8    EMEMI   002700430014
BI00B32Q8    EU22044 MW     202203307158-3165-90             WIRE SEAL                CCN000040000000040000FN00000000020220401000040000NNM   20220112152015    1C0C  00004000000000124000000172432Q8    EMEMI   004300270014
BI00B32Q8    EU22041 MW     202203027158-3166-60             WIRE SEAL                CCN000840000000840000FN00000000020220401000840000NNM   20220112152015    1C0C  00004000000000104000000152432Q8    EMEMI   002700430014
BI00B32Q8    EU22042 MW     202203097158-3166-60             WIRE SEAL                CCN001920000001920000FN00000000020220401001920000NNM   20220112152015    1C0C  00004000000000104000000152432Q8    EMEMI   002700430014
BI00B32Q8    EU22043 MW     202203167158-3166-60             WIRE SEAL                CCN001920000001920000FN00000000020220401001920000NNM   20220112152015    1C0C  00004000000000104000000152432Q8    EMEMI   002700430014
BI00B32Q8    EU22044 MW     202203307158-3166-60             WIRE SEAL                CCN001320000001320000FN00000000020220401001320000NNM   20220112152015    1C0C  00004000000000104000000152432Q8    EMEMI   002700430014
BI00B32Q8    EU22042 MW     202203097158-3167-80             WIRE SEAL                CCN000120000000120000FN00000000020220401000120000NNM   20220112152015    1C0C  00002000000000048000000109032Q8    EMEMI   002700430014
BI00B32Q8    EU22043 MW     202203167158-3167-80             WIRE SEAL                CCN000840000000840000FN00000000020220401000840000NNM   20220112152015    1C0C  00002000000000048000000109032Q8    EMEMI   002700430014
BI00B32Q8    EU22044 MW     202203307158-3167-80             WIRE SEAL                CCN000600000000600000FN00000000020220401000600000NNM   20220112152015    1C0C  00002000000000048000000109032Q8    EMEMI   002700430014
BI00B32Q8    EU22043 MW     202203167158-3168-80             SEALED                   CCN000020000000020000FN00000000020220401000020000NNM   20220112152015    1C0C  00002000000000044000000092132Q8    EMEMI   004300260014
BI00B32Q8    EU22044 MW     202203307158-3168-80             SEALED                   CCN000040000000040000FN00000000020220401000040000NNM   20220112152015    1C0C  00002000000000044000000092132Q8    EMEMI   004300260014
BI00B32Q8    EU22044 MW     202203307158-3169-40             SEALING PLUG             CCN000200000000200000FN00000000020220401000200000NNM   20220112152015    1C0C  00004000000000156000000204132Q8    EMEMI   004300260014
BI00B32Q8    EU22043 MW     202203167282-4577                HOUSING MALE ASS'Y       CCN000002400000002400FN00000000020220401000002400NNM   20220112152015    4N0N  00000240000000964800001174832Q8    EMEMI   005500360039
BI00B32Q8    EU22044 MW     202203307282-4577                HOUSING MALE ASS'Y       CCN000004800000004800FN00000000020220401000004800NNM   20220112152015    4N0N  00000240000000964800001174832Q8    EMEMI   005500360039
BI00B32Q8    EU22044 MW     202203307282-7028-30             CONNECTOR                CCN000002000000002000FN00000000020220401000002000NNM   20220112152015    1N0N  00000200000001124000001212532Q8    EMEMI   005600390040
BI00B32Q8    EU22043 MW     202203167283-5843                CONNECTOR                CCN000001500000001500FN00000000020220401000001500NNM   20220112152015    1N0N  00000150000000889000001132032Q8    EMEMI   005600390040
BI00B32Q8    EU22043 MW     202203167283-6120                CONNECTOR HOUSING        CCN000001500000001500FN00000000020220401000001500NNM   20220112152015    1N0N  00000150000000914000001143032Q8    EMEMI   005600390040
BI00B32Q8    EU22044 MW     202203307283-7526-30             CONNECTOR HOUSING        CCN000001960000001960FN00000000020220401000001960NNM   20220112152015    4N0N  00000196000000989800001248632Q8    EMEMI   005500360039
BI00B32Q8    #EU22041 MW    202203027114-4022                TERMINAL                 CCN000060000000060000FN00000000020220401000060000NNM   20220112152010    2F0P  00001500000000708000001120632Q8    EMEMI   006400630015
BI00B32Q8    #EU22042 MW    202203097114-4022                TERMINAL                 CCN000075000000075000FN00000000020220401000075000NNM   20220112152010    2F0P  00001500000000708000001120632Q8    EMEMI   006400630015
BI00B32Q8    #EU22043 MW    202203167114-4022                TERMINAL                 CCN000075000000075000FN00000000020220401000075000NNM   20220112152010    2F0P  00001500000000708000001120632Q8    EMEMI   006400630015
BI00B32Q8    #EU22044 MW    202203307114-4022                TERMINAL                 CCN000045000000045000FN00000000020220401000045000NNM   20220112152010    2F0P  00001500000000708000001120632Q8    EMEMI   006400630015
BI00B32Q8    #EU22041 MW    202203027123-6347                CONNECTOR HOUSING        CCN000001600000001600FN00000000020220401000001600NNM   20220112152010    2F0F  00000160000000647000000904832Q8    EMEMI   005500360039
BI00B32Q8    #EU22043 MW    202203167123-6347                CONNECTOR HOUSING        CCN000001600000001600FN00000000020220401000001600NNM   20220112152010    2F0F  00000160000000647000000904832Q8    EMEMI   005500360039
BI00B32Q8    #EU22043 MW    202203167123-6423-30             CONNECTOR                CCN000014000000014000FN00000000020220401000014000NNM   20220112152010    2F0F  00000200000001002000001167632Q8    EMEMI   005600390023
BI00B32Q8    #EU22044 MW    202203307123-6423-30             CONNECTOR                CCN000010000000010000FN00000000020220401000010000NNM   20220112152010    2F0F  00000200000001002000001167632Q8    EMEMI   005600390023
BI00B32Q8    #EU22042 MW    202203097157-3950-80             SEAL RUBBER              CCN000040000000040000FN00000000020220401000040000NNM   20220112152010    2C0C  00004000000000154000000440332Q8    EMEMI   002700430014
BI00B32Q8    #EU22043 MW    202203167157-3950-80             SEAL RUBBER              CCN000040000000040000FN00000000020220401000040000NNM   20220112152010    2C0C  00004000000000154000000440332Q8    EMEMI   002700430014
BI00B32Q8    #EU22044 MW    202203307157-3950-80             SEAL RUBBER              CCN000040000000040000FN00000000020220401000040000NNM   20220112152010    2C0C  00004000000000154000000440332Q8    EMEMI   002700430014
BI00B32Q8    #EU22041 MW    202203027157-3952-80             RUBBER STOPPER           CCN000010000000010000FN00000000020220401000010000NNM   20220112152010    2C0C  00001000000000117000000175032Q8    EMEMI   002700430014
BI00B32Q8    #EU22042 MW    202203097157-3952-80             RUBBER STOPPER           CCN000030000000030000FN00000000020220401000030000NNM   20220112152010    2C0C  00001000000000117000000175032Q8    EMEMI   002700430014
BI00B32Q8    #EU22043 MW    202203167157-3952-80             RUBBER STOPPER           CCN000020000000020000FN00000000020220401000020000NNM   20220112152010    2C0C  00001000000000117000000175032Q8    EMEMI   002700430014
BI00B32Q8    #EU22044 MW    202203307157-3952-80             RUBBER STOPPER           CCN000020000000020000FN00000000020220401000020000NNM   20220112152010    2C0C  00001000000000117000000175032Q8    EMEMI   002700430014
BI00B32Q8    #EU22043 MW    202203167157-6826-80             REAR HOLDER              CCN000015000000015000FN00000000020220401000015000NNM   20220112152010    2F0F  00001500000001234500001394132Q8    EMEMI   005600390040
BI00B32Q8    #EU22042 MW    202203097157-7897-60             SEAL RUBBER              CCN000010000000010000FN00000000020220401000010000NNM   20220112152010    2C0C  00001000000000132000000214732Q8    EMEMI   002700430014
BI00B32Q8    #EU22043 MW    202203167157-7897-60             SEAL RUBBER              CCN000040000000040000FN00000000020220401000040000NNM   20220112152010    2C0C  00001000000000132000000214732Q8    EMEMI   002700430014
BI00B32Q8    #EU22044 MW    202203307157-7897-60             SEAL RUBBER              CCN000020000000020000FN00000000020220401000020000NNM   20220112152010    2C0C  00001000000000132000000214732Q8    EMEMI   002700430014
BI00B32Q8    #EU22041 MW    202203027158-3003-90             RUBBER STOPPER           CCN000280000000280000FN00000000020220401000280000NNM   20220112152010    2C0C  00002000000000250000000306032Q8    EMEMI   002700430014
BI00B32Q8    #EU22042 MW    202203097158-3003-90             RUBBER STOPPER           CCN000700000000700000FN00000000020220401000700000NNM   20220112152010    2C0C  00002000000000250000000306032Q8    EMEMI   002700430014
BI00B32Q8    #EU22043 MW    202203167158-3003-90             RUBBER STOPPER           CCN000720000000720000FN00000000020220401000720000NNM   20220112152010    2C0C  00002000000000250000000306032Q8    EMEMI   002700430014
BI00B32Q8    #EU22044 MW    202203307158-3003-90             RUBBER STOPPER           CCN000440000000440000FN00000000020220401000440000NNM   20220112152010    2C0C  00002000000000250000000306032Q8    EMEMI   002700430014
BI00B32Q8    #EU22042 MW    202203097158-3004-40             RUBBER STOPPER           CCN000060000000060000FN00000000020220401000060000NNM   20220112152010    2C0C  00002000000000234000000306332Q8    EMEMI   002700430014
BI00B32Q8    #EU22043 MW    202203167158-3004-40             RUBBER STOPPER           CCN000140000000140000FN00000000020220401000140000NNM   20220112152010    2C0C  00002000000000234000000306332Q8    EMEMI   002700430014
BI00B32Q8    #EU22044 MW    202203307158-3004-40             RUBBER STOPPER           CCN000080000000080000FN00000000020220401000080000NNM   20220112152010    2C0C  00002000000000234000000306332Q8    EMEMI   002700430014
BI00B32Q8    #EU22041 MW    202203027158-3005-80             RUBBER STOPPER           CCN000020000000020000FN00000000020220401000020000NNM   20220112152010    2H0H  00002000000000210000000268732Q8    EMEMI   002700430014
BI00B32Q8    #EU22042 MW    202203097158-3005-80             RUBBER STOPPER           CCN000160000000160000FN00000000020220401000160000NNM   20220112152010    2H0H  00002000000000210000000268732Q8    EMEMI   002700430014
BI00B32Q8    #EU22043 MW    202203167158-3005-80             RUBBER STOPPER           CCN000160000000160000FN00000000020220401000160000NNM   20220112152010    2H0H  00002000000000210000000268732Q8    EMEMI   002700430014
BI00B32Q8    #EU22044 MW    202203307158-3005-80             RUBBER STOPPER           CCN000080000000080000FN00000000020220401000080000NNM   20220112152010    2H0H  00002000000000210000000268732Q8    EMEMI   002700430014
BI00B32Q8    #EU22043 MW    202203167158-3007-10             RUBBER STOPPER           CCN000140000000140000FN00000000020220401000140000NNM   20220112152010    2H0H  00002000000000308000000362732Q8    EMEMI   002700430014
BI00B32Q8    #EU22044 MW    202203307158-3007-10             RUBBER STOPPER           CCN000240000000240000FN00000000020220401000240000NNM   20220112152010    2H0H  00002000000000308000000362732Q8    EMEMI   002700430014
BI00B32Q8    #EU22042 MW    202203097158-3008-80             RUBBER STOPPER           CCN000380000000380000FN00000000020220401000380000NNM   20220112152010    2C0C  00002000000000288000000343032Q8    EMEMI   004300270014
BI00B32Q8    #EU22043 MW    202203167158-3008-80             RUBBER STOPPER           CCN000400000000400000FN00000000020220401000400000NNM   20220112152010    2C0C  00002000000000288000000343032Q8    EMEMI   004300270014
BI00B32Q8    #EU22044 MW    202203307158-3008-80             RUBBER STOPPER           CCN000240000000240000FN00000000020220401000240000NNM   20220112152010    2C0C  00002000000000288000000343032Q8    EMEMI   004300270014
BI00B32Q8    #EU22042 MW    202203097158-3015-10             RUBBER STOPPER           CCN000090000000090000FN00000000020220401000090000NNM   20220112152010    2C0C  00001000000000419500000474032Q8    EMEMI   002700430014
BI00B32Q8    #EU22043 MW    202203167158-3015-10             RUBBER STOPPER           CCN000100000000100000FN00000000020220401000100000NNM   20220112152010    2C0C  00001000000000419500000474032Q8    EMEMI   002700430014
BI00B32Q8    #EU22044 MW    202203307158-3015-10             RUBBER STOPPER           CCN000060000000060000FN00000000020220401000060000NNM   20220112152010    2C0C  00001000000000419500000474032Q8    EMEMI   002700430014
BI00B32Q8    #EU22041 MW    202203027158-3017                RUBBER STOPPER           CCN000020000000020000FN00000000020220401000020000NNM   20220112152010    2C0C  00001000000000375500000435032Q8    EMEMI   002700430014
BI00B32Q8    #EU22042 MW    202203097158-3017                RUBBER STOPPER           CCN000060000000060000FN00000000020220401000060000NNM   20220112152010    2C0C  00001000000000375500000435032Q8    EMEMI   002700430014
BI00B32Q8    #EU22043 MW    202203167158-3017                RUBBER STOPPER           CCN000060000000060000FN00000000020220401000060000NNM   20220112152010    2C0C  00001000000000375500000435032Q8    EMEMI   002700430014
BI00B32Q8    #EU22044 MW    202203307158-3017                RUBBER STOPPER           CCN000040000000040000FN00000000020220401000040000NNM   20220112152010    2C0C  00001000000000375500000435032Q8    EMEMI   002700430014
BI00B32Q8    #EU22042 MW    202203097158-3120-90             CONNECTOR WIRE SEAL      CCN000200000000200000FN00000000020220401000200000NNM   20220112152010    2C0C  00002000000000136000000194032Q8    EMEMI   002700430014
BI00B32Q8    #EU22043 MW    202203167158-3120-90             CONNECTOR WIRE SEAL      CCN000200000000200000FN00000000020220401000200000NNM   20220112152010    2C0C  00002000000000136000000194032Q8    EMEMI   002700430014
BI00B32Q8    #EU22044 MW    202203307158-3120-90             CONNECTOR WIRE SEAL      CCN000140000000140000FN00000000020220401000140000NNM   20220112152010    2C0C  00002000000000136000000194032Q8    EMEMI   002700430014
BI00B32Q8    #EU22043 MW    202203167158-3121-80             WIRE SEAL                CCN000020000000020000FN00000000020220401000020000NNM   20220112152010    2C0C  00002000000000118000000187332Q8    EMEMI   002700430014
BI00B32Q8    #EU22044 MW    202203307158-3121-80             WIRE SEAL                CCN000020000000020000FN00000000020220401000020000NNM   20220112152010    2C0C  00002000000000118000000187332Q8    EMEMI   002700430014
BI00B32Q8    #EU22042 MW    202203097183-2412                HOUSING                  CCN000006400000006400FN00000000020220401000006400NNM   20220112152010    2F0F  00000160000001059200001245632Q8    EMEMI   005500360039
BI00B32Q8    #EU22043 MW    202203167183-2412                HOUSING                  CCN000004800000004800FN00000000020220401000004800NNM   20220112152010    2F0F  00000160000001059200001245632Q8    EMEMI   005500360039
BI00B32Q8    #EU22044 MW    202203307183-2412                HOUSING                  CCN000004800000004800FN00000000020220401000004800NNM   20220112152010    2F0F  00000160000001059200001245632Q8    EMEMI   005500360039
BI00B32Q8    #EU22042 MW    202203097183-2413                CONNECTOR HOUSING        CCN000004800000004800FN00000000020220401000004800NNM   20220112152010    2F0F  00000480000000478100000760032Q8    EMEMI   005500360039
BI00B32Q8    #EU22043 MW    202203167183-2413                CONNECTOR HOUSING        CCN000004800000004800FN00000000020220401000004800NNM   20220112152010    2F0F  00000480000000478100000760032Q8    EMEMI   005500360039
BI00B32Q8    #EU22044 MW    202203307183-2413                CONNECTOR HOUSING        CCN000004800000004800FN00000000020220401000004800NNM   20220112152010    2F0F  00000480000000478100000760032Q8    EMEMI   005500360039
BI00B32Q8    #EU22042 MW    202203097183-6320                HOUSING                  CCN000004800000004800FN00000000020220401000004800NNM   20220112152010    2F0F  00000480000000820800001103632Q8    EMEMI   005500360039
BI00B32Q8    #EU22043 MW    202203167183-6320                HOUSING                  CCN000004800000004800FN00000000020220401000004800NNM   20220112152010    2F0F  00000480000000820800001103632Q8    EMEMI   005500360039
BI00B32Q8    #EU22043 MW    202203167283-1065                CONNECTOR                CCN000002500000002500FN00000000020220401000002500NNM   20220112152010    2N0N  00000250000001152500001310432Q8    EMEMI   005500360039
BI00B32Q8    #EU22044 MW    202203307283-1065                CONNECTOR                CCN000002500000002500FN00000000020220401000002500NNM   20220112152010    2N0N  00000250000001152500001310432Q8    EMEMI   005500360039
BI00B32Q8    #EU22044 MW    202203307283-5834-30             CONNECTOR ASS'Y          CCN000003240000003240FN00000000020220401000003240NNM   20220112152010    2N0N  00000324000001296000001853432Q8    EMEMI   005600390040
BI00B32Q8    #EU22043 MW    202203167283-8123                CONNECTOR HOUSING        CCN000004000000004000FN00000000020220401000004000NNM   20220112152010    2N0N  00000400000000380000000531732Q8    EMEMI   005600390023
