BI00B1200    2399T51B19     202112177289-3342-30             HOUSING FEMALE ASS'Y     CCN000002400000002400FY00000240020220101000000000NNM00020211220110951    1N0N  0000024000000068640000090141200    YCYC    005500360039
BI00B1200    2399T51B19     202112177289-9553-30             SEALED ASSY FEMALE       CCN000005880000005880FY00000588020220101000000000NNM00020211220111006    4N0N  0000029400000110900000152151200    YCYC    005500360039
BI00B1200    2399T51B19     202112177289-9553-50             SEALED ASSY FEMALE       CCN000020580000020580FY00002058020220101000000000NNM00020211220111006    4N0N  0000029400000110810000152061200    YCYC    005500360039
BI00B1200    2399T51B21     202112237289-9612-30             HOUSING FEMALE ASS'Y     CCN000001920000001200FN00000000020220101000001200NNMQ0020211220121535    4N0N  0000002400000134880000166881200    YCYC    005500360039
BI00B1200    CE21-MN-0157   202112257196-2024-02             TERMINAL FEMALE          CCN000024000000024000FN00000000020201201000024000NNED0020211220121535    4P0P  0000240000000091920000108261200    YCYC    005100280028
BI00B1200    CE21-MN-0157   202112257196-2027-02             TERMINAL FEMALE          CCN000024000000024000FN00000000020201201000024000NNED0020211220121535    4P0P  0000240000000104400000120741200    YCYC    005100280028
BI00B1200    CE21-MN-0157   202112257196-2030-02             TERMINAL FEMALE          CCN000015000000015000FN00000000020201201000015000NNED0020211220121535    4P0P  0000150000000100200000116541200    YCYC    005100280028
BI00B1200    CE21-MN-0157   202112257196-2032-02             TERMINAL FEMALE          CCN000015000000015000FN00000000020201201000015000NNED0020211220121535    4P0P  0000150000000107100000123441200    YCYC    005100280028
BI00A1200    2399T51C31     202112207298-2853-30             HOUSING FEMALE ASS'Y     CCN000000480000000480FN00000000020220101000000480NNE   20211220121535    4N0N  0000002400000109490000136091200    YCYC    005500360039
BI00A1200    2399T51C32     202112217298-2853-30             HOUSING FEMALE ASS'Y     CCN000000480000000480FN00000000020220101000000480NNE   20211220121535    4N0N  0000002400000109490000136091200    YCYC    005500360039
BI00A1200    2399T51C33     202112247298-2853-30             HOUSING FEMALE ASS'Y     CCN000000480000000480FN00000000020220101000000480NNE   20211220121535    4N0N  0000002400000109490000136091200    YCYC    005500360039
BI00A1200    2399T51C34     202201037298-2853-30             HOUSING FEMALE ASS'Y     CCN000000480000000480FN00000000020220101000000480NNE   20211220121535    4N0N  0000002400000109490000136091200    YCYC    005500360039
BI00A1200    2399T51B21     202112237289-9612-30             HOUSING FEMALE ASS'Y     CCN000000720000000720FN00000000020220101000000720NNMM0020211220121535    4N0N  0000002400000134880000166881200    YCYC    005500360039
BI00B32B1    A22010         202202047158-3168-80             SEALED                   CCN000040000000040000FN00000000020220401000040000NNM   20211220121535B1  1C0C  00002000000000044000000092132B1    AXARNE-M004300260014
BI00B32B1    A22010         202202047282-5553-30             CONNECTOR                CCN000002000000002000FN00000000020220401000002000NNM   20211220121535B1  4N0N  00000100000001010000001187332B1    AXARNE-M005500360039
BI00B32B1    A22010         202202047282-5574-10             CONNECTOR                CCN000001600000001600FN00000000020220401000001600NNM   20211220121535B1  4N0N  00000080000001235000001423032B1    AXARNE-M005600390040
BI00B32B1    A22010         202202047282-6448-40             CONNECTOR                CCN000007200000007200FN00000000020220401000007200NNM   20211220121535B1  4N0N  00000080000000887000001152732B1    AXARNE-M005600390040
BI00B32B1    #A22010        202202047157-3821                RUBBER STOPPER           CCN000020000000020000FN00000000020220401000020000NNM   20211220121535B1  2C0C  00002000000000176000000238032B1    AXARNE-M002700430014
BI00B32B1    #A22010        202202047158-3376-50             CONNECTOR WIRE SEAL      CCN000100000000100000FN00000000020220401000100000NNM   20211220121535B1  2C0C  00002000000000184000000240732B1    AXARNE-M002700430014
BI00B32B1    #A22010        202202047283-8226-30             CONNECTOR                CCN000010000000010000FN00000000020220401000010000NNM   20211220121535B1  2N0N  00000200000000820000001008032B1    AXARNE-M005400370024
BI00B32B6    A71046         202112247289-4696-30             HOUSING FEMALE ASS'Y     CCN000024000000036000FN00000000020220101000036000NNMD0720211220150129B6  4N0N  00000200000000913400001055432B6    AXARNE-M005400370024
BI00B32B6    A72010         202202047116-4037                TERMINAL                 CCN000012000000012000FN00000000020220401000012000NNM   20211220121535B6  4P0P  00000600000000600000000894232B6    AXARNE-M006400630015
BI00B32B6    A72010         202202047017-1180-02             TERMINAL                 CCN000144000000144000FN00000000020220401000144000NNM   20211220121535B6  4P0P  00007200000001065600001229032B6    AXARNE-M005100280028
BI00B32B6    A72010         202202047017-1183-02             TERMINAL                 CCN000027000000027000FN00000000020220401000027000NNM   20211220121535B6  4P0P  00002700000001139400001307432B6    AXARNE-M005100280028
BI00B32B6    A72010         202202047158-3169-40             SEALING PLUG             CCN000120000000120000FN00000000020220401000120000NNM   20211220121535B6  1C0C  00004000000000156000000204132B6    AXARNE-M004300260014
BI00B32B6    A72010         202202047287-0192-40             SEALED HOUSING ASS'Y     CCN000000960000000960FN00000000020220401000000960NNM   20211220121535B6  4N0N  00000048000001092000001322032B6    AXARNE-M005600390040
BI00B32B6    #A72010        202202047158-3015-10             RUBBER STOPPER           CCN000010000000010000FN00000000020220401000010000NNM   20211220121535B6  2C0C  00001000000000419500000474032B6    AXARNE-M002700430014
BI00B32B6    #A72010        202202047289-2915-30             HOUSING FEMALE ASS'Y     CCN000001500000001500FN00000000020220401000001500NNM   20211220121535B6  2N0N  00000150000000964500001091532B6    AXARNE-M005400360024
BI00B32B7    A82010         202202047158-3166-60             WIRE SEAL                CCN000040000000040000FN00000000020220501000040000NNM   20211220121535B7  1C0C  00004000000000104000000152432B7    AXARNE-M002700430014
BI00B32B7    A82010         202202047158-3167-80             WIRE SEAL                CCN000040000000040000FN00000000020220501000040000NNM   20211220121535B7  1C0C  00002000000000048000000109032B7    AXARNE-M002700430014
BI00B32B7    A82010         202202047158-3168-80             SEALED                   CCN000020000000020000FN00000000020220501000020000NNM   20211220121535B7  1C0C  00002000000000044000000092132B7    AXARNE-M004300260014
BI00B32B7    A82010         202202047158-3169-40             SEALING PLUG             CCN000080000000080000FN00000000020220501000080000NNM   20211220121535B7  1C0C  00004000000000156000000204132B7    AXARNE-M004300260014
BI00B32B7    A82010         202202047282-6448-40             CONNECTOR                CCN000007200000007200FN00000000020220501000007200NNM   20211220121535B7  4N0N  00000080000000887000001152732B7    AXARNE-M005600390040
BI00B32B7    #A82010        202202047282-8395-40             CONNECTOR                CCN000004000000004000FN00000000020220501000004000NNM   20211220121535B7  2N0N  00000100000001009000001188032B7    AXARNE-M005500360039
BI00B32B7    #A82010        202202047283-8398-40             CONNECTOR                CCN000004620000004620FN00000000020220501000004620NNM   20211220121535B7  2N0N  00000154000001007000001171332B7    AXARNE-M005600390023
BI00A32CH    #SJ21123HMW    202112177298-2459-60             LIF FEMALE ASSEMBLY      PCN000002856000002856FY00000285620211201000000000NNM00020211220110836    2N0N  00000016800000534000000729632CH    SJSAMIJF005400370024
BI00A32CH    #SJ22021DMW    202112227183-2413                CONNECTOR HOUSING        CCN000019200000019200FN00000000020220201000019200NNMM0020211220121535    2F0F  00000480000000478100000760032CH    SJSAMIJF005500360039
BI00B32CH    #SJ22021DMW    202201067289-2913-30             HOUSING FEMALE ASS'Y     CCN000006000000001500FN00000000020220201000001500NNMQ0020211220121535    2N0N  00000150000000907500001034532CH    SJSAMIJF005400360024
BI00A32CH    #SJ22021DMW    202112227289-2913-30             HOUSING FEMALE ASS'Y     CCN000004500000004500FN00000000020220201000004500NNMM0020211220121535    2N0N  00000150000000907500001034532CH    SJSAMIJF005400360024
BI00B32CJ    #JQN2013       202201077172-5629-80             RUBBER STOPPER           CCN000120000000120000FN00000000020220101000120000NNM00020211220150644    2H0H  00002000000000060000000111132CJ    QNYHVQN 004300270014
BI00B32CJ    #JQN2013       202112247282-5528-70             HOUSING MALE ASS'Y       CCN000018000000018000FN00000000020220101000018000NNM00020211220150711    2N0N  00000100000000230000000339032CJ    QNYHVQN 005400370024
BI00T32DE    @ICT201A       202201037183-8049                CONNECTOR HOUSING        CCN000004000000004000FN00000000020220101000004000NNEM0020211220143917    3F0F  00000400000000583600000740032DE    TVYEV-TV005400370024
BI00A32DG    #QA-21-C122    202112217282-5845-30             HOUSING MALE ASS'Y       PNN000008000000008000FN00000000020211201000008000NNE   20211220140534    2N0N  00000400000001068000001178032DG    BFSAIBF 005400370024
BI00A32DG    #QA-21-C122    202112247282-5845                HOUSING MALE ASS'Y       PNN000008000000008000FN00000000020211201000008000NNED0720211220144217    2N0N  00000400000001068000001178032DG    BFSAIBF 005400370024
BI00B32D2    DGTC2210       202201137288-6547                CONNECTOR MALE ASS'Y     CCN000006750000006750FN00000000020220301000006750NNMD0020211220121535    4N0N  00000075000001205300001340332D2    TGYOT-G 005400370024
BI00B32D2    DGTC2210       202201137289-3342                HOUSING FEMALE ASS'Y     CCN000122400000122400FN00000000020220301000122400NNMD0020211220121535    1N0N  00000240000000686400000901432D2    TGYOT-G 005500360039
BI00B32D2    DGTC2210       202201137289-3342-30             HOUSING FEMALE ASS'Y     CCN000036000000036000FN00000000020220301000036000NNMD0020211220121535    1N0N  00000240000000686400000901432D2    TGYOT-G 005500360039
BI00B32D2    DGTC2210       202201137289-3342-40             HOUSING FEMALE ASS'Y     CCN000038400000038400FN00000000020220301000038400NNMD0020211220121535    1N0N  00000240000000686400000901432D2    TGYOT-G 005500360039
BI00B32D2    DGTC2210       202201137289-3342-90             HOUSING FEMALE ASS'Y     CCN000043200000043200FN00000000020220301000043200NNMD0020211220121535    1N0N  00000240000000686400000901432D2    TGYOT-G 005500360039
BI00B32D2    DGTC2210       202202107289-3342                HOUSING FEMALE ASS'Y     CCN000040800000000000FY00000000020220301000000000NNMQ0020211220083755    1N0N  00000240000000686400000901432D2    TGYOT-G 005500360039
BI00B32D2    DGTC2210       202202177289-3342                HOUSING FEMALE ASS'Y     CCN000040800000000000FY00000000020220301000000000NNMQ0020211220083755    1N0N  00000240000000686400000901432D2    TGYOT-G 005500360039
BI00B32D2    DGTC2211       202201207017-1180-02             TERMINAL                 CCN000072000000072000FN00000000020220301000072000NNM   20211220121535    4P0P  00007200000001065600001229032D2    TGYOT-G 005100280028
BI00B32D2    DGTC2211       202201207114-4032                TERMINAL                 CCN000052500000052500FN00000000020220301000052500NNM   20211220121535    4P0P  00000750000000735000001063632D2    TGYOT-G 006400630017
BI00B32D2    DGTC2211       202201207114-5748-02             TERMINAL                 CCN000036000000036000FN00000000020220301000036000NNM   20211220121535    4P0P  00001200000000444000000737632D2    TGYOT-G 006400630015
BI00B32D2    DGTC2211       202201207114-5753-02             TERMINAL                 CCN000081000000081000FN00000000020220301000081000NNM   20211220121535    4P0P  00002700000000847800001141432D2    TGYOT-G 006400630015
BI00B32D2    DGTC2211       202201207116-5045-02             TERMINAL                 CCN000096000000096000FN00000000020220301000096000NNM   20211220121535    4P0P  00001600000000678400001007132D2    TGYOT-G 006400630017
BI00B32D2    DGTC2211       202201207116-5046-02             TERMINAL                 CCN000120000000120000FN00000000020220301000120000NNM   20211220121535    4P0P  00001200000000544800000873532D2    TGYOT-G 006400630017
BI00B32D2    DGTC2211       202201207116-6042                TERMINAL                 CCN000054000000054000FN00000000020220301000054000NNM   20211220121535    4P0P  00000300000000523800000856132D2    TGYOT-G 006400630015
BI00B32D2    DGTC2211       202201207126-8853-02             TERMINAL                 CCN000178000000180000FN00000000020220301000180000NNM   20211220121535    4P0P  00000750000000562500000847732D2    TGYOT-G 006400630015
BI00B32D2    DGTC2211       202201207126-8854-02             TERMINAL                 CCN000120000000120000FN00000000020220301000120000NNM   20211220121535    4P0P  00000750000000604500000889732D2    TGYOT-G 006400630015
BI00B32D2    DGTC2211       202201207126-8855-02             TERMINAL                 CCN000211200000216000FN00000000020220301000216000NNM   20211220121535    4P0P  00000600000000510600000795832D2    TGYOT-G 006400630015
BI00B32D2    DGTC2211       202201207158-3070-80             RUBBER STOPPER           CCN000040000000040000FN00000000020220301000040000NNM   20211220121535    1C0C  00004000000000276000000333332D2    TGYOT-G 002700430014
BI00B32D2    DGTC2211       202201207158-3166-60             WIRE SEAL                CCN000220000000240000FN00000000020220301000240000NNM   20211220121535    1C0C  00004000000000104000000152432D2    TGYOT-G 002700430014
BI00B32D2    DGTC2211       202201207158-3167-80             WIRE SEAL                CCN000380000000380000FN00000000020220301000380000NNM   20211220121535    1C0C  00002000000000048000000109032D2    TGYOT-G 002700430014
BI00B32D2    DGTC2211       202201207173-3291-40             LIF LEVER                CCN000016800000016800FN00000000020220301000016800NNM   20211220121535    1F0F  00000240000000867800001067832D2    TGYOT-G 005500360039
BI00B32D2    DGTC2211       202201207196-0396-02             TERMINAL                 CCN000015000000015000FN00000000020220301000015000NNM   20211220121535    4P0P  00001500000000949500001112932D2    TGYOT-G 002800510028
BI00B32D2    DGTC2211       202201207196-1325-02             TERMINAL FEMALE          CCN000120000000120000FN00000000020220301000120000NNM   20211220121535    4P0P  00006000000000450000000778732D2    TGYOT-G 006400630017
BI00B32D2    DGTC2211       202201207196-1326-02             TERMINAL FEMALE          CCN000240000000240000FN00000000020220301000240000NNM   20211220121535    4P0P  00006000000000456000000784732D2    TGYOT-G 006400630017
BI00B32D2    DGTC2211       202201207196-1327-02             TERMINAL FEMALE          CCN000052000000052000FN00000000020220301000052000NNM   20211220121535    4P0P  00005200000000336000000739532D2    TGYOT-G 006400630017
BI00B32D2    DGTC2211       202201207283-6388-40             CONNECTOR                CCN000002000000002000FN00000000020220301000002000NNM   20211220121535    4N0N  00000200000001029000001173532D2    TGYOT-G 005500360039
BI00B32D2    DGTC2211       202201207288-6547                CONNECTOR MALE ASS'Y     CCN000011250000011250FN00000000020220301000011250NNM   20211220121535    4N0N  00000075000001205300001340332D2    TGYOT-G 005400370024
BI00B32D2    DGTC2211       202201207289-3342                HOUSING FEMALE ASS'Y     CCN000026400000026400FN00000000020220301000026400NNM   20211220121535    1N0N  00000240000000686400000901432D2    TGYOT-G 005500360039
BI00B32D2    DGTC2211       202201207289-3342-30             HOUSING FEMALE ASS'Y     CCN000004800000004800FN00000000020220301000004800NNM   20211220121535    1N0N  00000240000000686400000901432D2    TGYOT-G 005500360039
BI00B32D2    DGTC2211       202201207289-3342-40             HOUSING FEMALE ASS'Y     CCN000009600000009600FN00000000020220301000009600NNM   20211220121535    1N0N  00000240000000686400000901432D2    TGYOT-G 005500360039
BI00B32D2    DGTC2211       202201207289-3342-90             HOUSING FEMALE ASS'Y     CCN000007200000007200FN00000000020220301000007200NNM   20211220121535    1N0N  00000240000000686400000901432D2    TGYOT-G 005500360039
BI00B32D2    DGTC2211       202201207289-6518-30             HOUSING FEMALE ASS'Y     CCN000016800000016800FN00000000020220301000016800NNM   20211220121535    1N0N  00000120000000829200001049232D2    TGYOT-G 005500360039
BI00B32D2    DGTC2211       202201207289-6547                HOUSING FEMALE ASS'Y     CCN000009600000009600FN00000000020220301000009600NNM   20211220121535    1N0N  00000240000001152000001362032D2    TGYOT-G 005500360039
BI00B32D2    DGTC2211       202201207296-0784-02             TERMINAL ALUMINIUM       CCN000096000000096000FN00000000020220301000096000NNM   20211220121535    4P0P  00002400000000480000000765232D2    TGYOT-G 006400630015
BI00B32D2    DGTC2211       202201207296-1020-02             TERMINAL ALUMINIUM       CCN000022500000022500FN00000000020220301000022500NNM   20211220121535    4P0P  00002250000000699800000985032D2    TGYOT-G 006400630015
BI00B32D2    DGTC2211       202201207296-1024-02             TERMINAL ALUMINIUM       CCN000018000000018000FN00000000020220301000018000NNM   20211220121535    4P0P  00001800000000698400000983632D2    TGYOT-G 006400630015
BI00B32D2    DGTC2211       202201207327-6801-3W             BATTERY FUSE             CCN000000960000000960FN00000000020220301000000960NNM   20211220121535    4N0N  00000009600000928400001143432D2    TGYOT-G 005500360039
BI00B32D2    DGTC2211       202201207327-6806                MULTI FUSE               CCN000001120000001120FN00000000020220301000001120NNM   20211220121535    4N0N  00000056000000851500001063932D2    TGYOT-G 005400370024
BI00B32D2    DGTC2211       202201207327-6809                MULTI FUSE               CCN000012880000012880FN00000000020220301000012880NNM   20211220121535    4N0N  00000056000000849300001061732D2    TGYOT-G 005400370024
BI00B32D2    DGTC2211       202201207327-6930                MULTI FUSE               CCN000001120000001120FN00000000020220301000001120NNM   20211220121535    4N0N  00000056000000848900001031932D2    TGYOT-G 005400370024
BI00B32D2    #DGTC2211      202201207158-3003-90             RUBBER STOPPER           CCN000320000000320000FN00000000020220301000320000NNM   20211220121535    2C0C  00002000000000250000000306032D2    TGYOT-G 002700430014
BI00B32D2    #DGTC2211      202201207158-3005-80             RUBBER STOPPER           CCN000040000000040000FN00000000020220301000040000NNM   20211220121535    2H0H  00002000000000210000000268732D2    TGYOT-G 002700430014
BI00B32D2    #DGTC2211      202201207158-3008-80             RUBBER STOPPER           CCN000100000000100000FN00000000020220301000100000NNM   20211220121535    2C0C  00002000000000288000000343032D2    TGYOT-G 004300270014
BI00B32D2    #DGTC2211      202201207158-3015-10             RUBBER STOPPER           CCN000030000000030000FN00000000020220301000030000NNM   20211220121535    2C0C  00001000000000419500000474032D2    TGYOT-G 002700430014
BI00B32D2    #DGTC2211      202201207158-3017                RUBBER STOPPER           CCN000060000000060000FN00000000020220301000060000NNM   20211220121535    2C0C  00001000000000375500000435032D2    TGYOT-G 002700430014
BI00B32D2    #DGTC2211      202201207158-3374-90             CONNECTOR WIRE SEAL      CCN000020000000020000FN00000000020220301000020000NNM   20211220121535    2H0H  00002000000000172000000229332D2    TGYOT-G 002700430014
BI00B32D2    #DGTC2211      202201207172-5625-90             RUBBER STOPPER           CCN000020000000020000FN00000000020220301000020000NNM   20211220121535    2H0H  00002000000000082400000133832D2    TGYOT-G 004300270014
BI00B32D2    #DGTC2211      202201207172-5627-60             RUBBER STOPPER           CCN000040000000040000FN00000000020220301000040000NNM   20211220121535    2H0H  00002000000000070400000121832D2    TGYOT-G 004300270014
BI00B32D2    #DGTC2211      202201207172-5629-80             RUBBER STOPPER           CCN000460000000460000FN00000000020220301000460000NNM   20211220121535    2H0H  00002000000000060000000111132D2    TGYOT-G 004300270014
BI00B32D2    #DGTC2211      202201207172-5630-40             RUBBER STOPPER           CCN000420000000420000FN00000000020220301000420000NNM   20211220121535    2H0H  00002000000000044000000095132D2    TGYOT-G 004300270014
BI00B32D2    #DGTC2211      202201207172-5631-60             RUBBER STOPPER           CCN000200000000200000FN00000000020220301000200000NNM   20211220121535    2H0H  00002000000000042000000093132D2    TGYOT-G 004300270014
BI00B32D2    #DGTC2211      202201207172-5632-10             DUMMY PLUG               CCN000280000000280000FN00000000020220301000280000NNM   20211220121535    2H0H  00002000000000080400000131832D2    TGYOT-G 004300270014
BI00B32D2    #DGTC2211      202201207189-3033                HOUSING FEMALE           CCN000009600000009600FN00000000020220301000009600NNM   20211220121535    2F0F  00000160000001211200001431232D2    TGYOT-G 005500360039
BI00B32D2    #DGTC2211      202201207189-3036                HOUSING FEMALE           CCN000004800000004800FN00000000020220301000004800NNM   20211220121535    2F0F  00000160000000921600001141632D2    TGYOT-G 005500360039
BI00B32D2    #DGTC2211      202201207283-8226-30             CONNECTOR                CCN000006000000006000FN00000000020220301000006000NNM   20211220121535    2N0N  00000200000000820000001008032D2    TGYOT-G 005400370024
BI00B32D2    #DGTC2211      202201207289-2912-40             HOUSING FEMALE ASS'Y     CCN000002000000002000FN00000000020220301000002000NNM   20211220121535    2N0N  00000200000000804000000931032D2    TGYOT-G 005400370024
BI00B32D2    #DGTC2211      202201207289-3622-30             HOUSING FEMALE ASS'Y     CCN000001296000001296FN00000000020220301000001296NNM   20211220121535    2N0N  00000043200000839400001038432D2    TGYOT-G 005400370024
BI00B32EJ    4500186237     202201137B58-3070-80             RUBBER STOPPER           CCN000360000000360000FN00000000020220101000360000NNED0720211220121535EJ  1C0C  00004000000000276000000333032EJ    EJYKBO  004300270014
BI00B32EJ    4500186237     202201137114-4231-02             TERMINAL                 CCN000018000000018000FN00000000020220101000018000NNED0720211220121535EJ  4P0P  00001800000000554400000848032EJ    EJYKBO  006400630015
BI00B32EJ    4500186237     202201137158-3070-80             RUBBER STOPPER           CCN000040000000040000FN00000000020220101000040000NNED0720211220121535EJ  1C0C  00004000000000276000000333332EJ    EJYKBO  002700430014
BI00B32EJ    #4500186237    202201137157-3992-90             CONNECTOR SEALED         CCN000040000000040000FN00000000020220101000040000NNED0720211220121535EJ  2C0C  00004000000000300000000363332EJ    EJYKBO  002700430014
BI00B32EJ    #4500186237    202201137158-3121-80             WIRE SEAL                CCN000040000000040000FN00000000020220101000040000NNED0720211220121535EJ  2C0C  00002000000000118000000187332EJ    EJYKBO  002700430014
BI00B32EJ    #4500186237    202201137158-3120-90             CONNECTOR WIRE SEAL      CCN000060000000060000FN00000000020220101000060000NNED0720211220121535EJ  2C0C  00002000000000136000000194032EJ    EJYKBO  002700430014
BI00B32EJ    #4500186237    202201137158-3374-90             CONNECTOR WIRE SEAL      CCN000060000000060000FN00000000020220101000060000NNED0720211220121535EJ  2H0H  00002000000000172000000229332EJ    EJYKBO  002700430014
BI00B32EJ    #4500186237    202201137283-8398-40             CONNECTOR                CCN000009240000009240FN00000000020220101000009240NNED0720211220121535EJ  2N0N  00000154000001007000001171332EJ    EJYKBO  005600390023
BI00B32EJ    #4500186236    202201137158-3374-90             CONNECTOR WIRE SEAL      CCN000020000000020000FN00000000020220101000020000NNED0720211220121535EJ  2H0H  00002000000000172000000229332EJ    EJYKBO  002700430014
BI00B32EJ    4500186235     202201207158-3070-80             RUBBER STOPPER           CCN000040000000040000FN00000000020220101000040000NNE   20211220121535EJ  1C0C  00004000000000276000000333332EJ    EJYKBO  002700430014
BI00B32EJ    4500186235     202201207B58-3070-80             RUBBER STOPPER           CCN000040000000040000FN00000000020220101000040000NNE   20211220121535EJ  1C0C  00004000000000276000000333032EJ    EJYKBO  004300270014
BI00B32EJ    4500186234     202202037158-3166-60             WIRE SEAL                CCN000040000000040000FN00000000020220201000040000NNE   20211220121535EJ  1C0C  00004000000000104000000152432EJ    EJYKBO  002700430014
BI00B32EJ    4500186234     202202037116-4100-02             TERMINAL                 CCN000015000000015000FN00000000020220201000015000NNE   20211220121535EJ  4P0P  00001500000000696000000990232EJ    EJYKBO  006400630015
BI00B32EJ    4500186234     202202037116-4101-02             TERMINAL                 CCN000132000000132000FN00000000020220201000132000NNE   20211220121535EJ  4P0P  00001200000000582000000876232EJ    EJYKBO  006400630015
BI00B32EJ    4500186234     202202037116-4120-02             TERMINAL                 CCN000054000000054000FN00000000020220201000054000NNE   20211220121535EJ  4P0P  00000600000000780000001073632EJ    EJYKBO  006400630015
BI00B32EJ    4500186234     202202037116-4231-02             TERMINAL                 CCN000052000000052000FN00000000020220201000052000NNE   20211220121535EJ  4P0P  00002600000000683800001012532EJ    EJYKBO  006400630017
BI00B32EJ    4500186234     202202037158-3006-90             RUBBER STOPPER           CCN000100000000100000FN00000000020220201000100000NNE   20211220121535EJ  1C0C  00002000000000330600000386032EJ    EJYKBO  002700430014
BI00B32EJ    4500186234     202202037158-3070-80             RUBBER STOPPER           CCN000400000000400000FN00000000020220201000400000NNE   20211220121535EJ  1C0C  00004000000000276000000333332EJ    EJYKBO  002700430014
BI00B32EJ    4500186234     202202037283-1020                CONNECTOR                CCN000060000000060000FN00000000020220201000060000NNE   20211220121535EJ  4N0N  00000600000000840000001049332EJ    EJYKBO  005600390040
BI00B32EJ    #4500186234    202202037123-6423-30             CONNECTOR                CCN000060000000060000FN00000000020220201000060000NNE   20211220121535EJ  2F0F  00000200000001002000001167632EJ    EJYKBO  005600390023
BI00B32EJ    #4500186234    202202037157-3821                RUBBER STOPPER           CCN000020000000020000FN00000000020220201000020000NNE   20211220121535EJ  2C0C  00002000000000176000000238032EJ    EJYKBO  002700430014
BI00B32EJ    #4500186234    202202037283-8398-40             CONNECTOR                CCN000077000000077000FN00000000020220201000077000NNE   20211220121535EJ  2N0N  00000154000001007000001171332EJ    EJYKBO  005600390023
BI00B32EJ    4500186233     202202037283-5843                CONNECTOR                CCN000015000000015000FN00000000020220201000015000NNE   20211220121535EJ  1N0N  00000150000000889000001132032EJ    EJYKBO  005600390040
BI00B32EJ    4500186233     202202037289-9553-30             SEALED ASSY FEMALE       CCN000008820000008820FN00000000020220201000008820NNE   20211220121535EJ  4N0N  00000294000001109000001521532EJ    EJYKBO  005500360039
BI00B32G7    #JJ2202B MW    202202247158-3007-10             RUBBER STOPPER           CCN000100000000100000FN00000000020220201000100000NNED0420211220121535    2H0H  00002000000000308000000362732G7    JIJAI   002700430014
BI00A32H2    TIJ1123        202112177289-3342-30             HOUSING FEMALE ASS'Y     PCN000100800000050400FY00005040020211201000000000NNMM0020211220110807    1N0N  00000240000000686400000901432H2    HVYHV   005500360039
BI00A32H2    TIJ1123        202112177289-3342-30             HOUSING FEMALE ASS'Y     PCN000050400000050400FY00005040020211201000000000NNM00020211220110807    1N0N  00000240000000686400000901432H2    HVYHV   005500360039
BI00B32H2    TIJ2013        202112247288-6547                CONNECTOR MALE ASS'Y     CCN000006750000006750FN00000000020220101000006750NNM00020211220150929    4N0N  00000075000001205300001340332H2    HVYHV   005400370024
BI00B32H8    TY22012KMW     202112177289-3342                HOUSING FEMALE ASS'Y     CCN000002400000002400FY00000240020220101000000000NNM00020211220111537    1N0N  00000240000000686400000901432H8    TYTYC   005500360039
BI00B32J1    389544         202201107283-5830                CONNECTOR                CCN000072000000036000FN00000000020220101000036000NNMQ0220211220121535    1N47  00000600000000954000001104032J1    UKYEL-BL005500360039
BI00B32J1    389544         202201177283-5830                CONNECTOR                CCN000036000000036000FN00000000020220101000036000NNMD0220211220121535    1N47  00000600000000954000001104032J1    UKYEL-BL005500360039
BI00B32M3    SM2201AEMW     202201137289-7213-30             HOUSING FEMALE ASS'Y     CCN000000240000000240FN00000000020220101000000240NNE   20211220121535    4N0N  00000024000001352800001667832M3    SASAMI  005500360039
BI00B32M3    SM2201D MW     202201067114-4112-02             TERMINAL                 CCN000009000000009000FN00000000020220101000009000NNE   20211220121535    4P0P  00000900000000598500000927132M3    SASAMI  006400630017
BI00B32M3    SM2201DHMW     202201137388-0313-30             CONNECTOR ASS'Y          CCN000001200000001200FN00000000020220101000001200NNE   20211220121535    4N0N  00000120000000995000001125032M3    SASAMI  005400370024
BI00B32M3    SM2201DHMW     202201137388-0316-80             CONNECTOR ASS'Y          CCN000001200000001200FN00000000020220101000001200NNE   20211220121535    4N0N  00000120000001002500001132532M3    SASAMI  005400370024
BI00A32M4    #QA-21-C122    202112217282-5845-30             HOUSING MALE ASS'Y       PNN000008000000000000FY00000000020211201000000000NNEM0020211220133658    2N0N  00000400000001068000001178032M4    SISAI   005400370024
BI00A32M4    #QA-21-C122    202112217282-5845                HOUSING MALE ASS'Y       PNN000008000000000000FY00000000020211201000000000NNE00020211220133658    2N0N  00000400000001068000001178032M4    SISAI   005400370024
BI00A32N1    SBT2112        202112177289-3342-30             HOUSING FEMALE ASS'Y     PCN000086400000021600FY00002160020211201000000000NNM00020211220111432    1N0N  00000240000000686400000901432N1    TAYIPL  005500360039
BI00A32N1    SBT2112        202112177289-3342-30             HOUSING FEMALE ASS'Y     PCN000021600000021600FY00002160020211201000000000NNM00020211220111432    1N0N  00000240000000686400000901432N1    TAYIPL  005500360039
BI00B32N1    SBT2112        202112227289-3342-30             HOUSING FEMALE ASS'Y     CCN000021600000000000FY00000000020211201000000000NNM00020211220153014    1N0N  00000240000000686400000901432N1    TAYIPL  005500360039
BI00B32N1    SBT2112        202112237289-3342-30             HOUSING FEMALE ASS'Y     CCN000021600000043200FN00000000020211201000043200NNMD0020211220153014    1N0N  00000240000000686400000901432N1    TAYIPL  005500360039
BI00B32N1    NST2115FCU     202201207158-3070-80             RUBBER STOPPER           CCN002800000000640000FN00000000020220201000640000NNED0420211220121535    1C0C  00004000000000276000000333332N1    TAYIPL  002700430014
BI00B32N1    NST2115FCU     202201207158-3167-80             WIRE SEAL                CCN002000000001000000FN00000000020220201001000000NNED0420211220121535    1C0C  00002000000000048000000109032N1    TAYIPL  002700430014
BI00B32N1    NST2115FCU     202201277158-3070-80             RUBBER STOPPER           CCN000640000000640000FN00000000020220201000640000NNED0420211220121535    1C0C  00004000000000276000000333332N1    TAYIPL  002700430014
BI00B32N1    NST2115FCU     202202037158-3070-80             RUBBER STOPPER           CCN000640000000640000FN00000000020220201000640000NNED0420211220121535    1C0C  00004000000000276000000333332N1    TAYIPL  002700430014
BI00B32N1    NST2115FCU     202202107158-3070-80             RUBBER STOPPER           CCN000640000000640000FN00000000020220201000640000NNED0420211220121535    1C0C  00004000000000276000000333332N1    TAYIPL  002700430014
BI00B32N1    NST2115FCU     202202177158-3070-80             RUBBER STOPPER           CCN000240000000240000FN00000000020220201000240000NNED0420211220121535    1C0C  00004000000000276000000333332N1    TAYIPL  002700430014
BI00B32N1    NST2115FCU     202201277158-3167-80             WIRE SEAL                CCN001000000001000000FN00000000020220201001000000NNED0420211220121535    1C0C  00002000000000048000000109032N1    TAYIPL  002700430014
BI00A32N3    #QA-21-C122    202112217282-5845                HOUSING MALE ASS'Y       PNN000004000000004000FN00000000020211201000004000NNE   20211220184321    2N0N  00000400000001068000001178032N3    ABYIPL-B005400370024
BI00A32N3    #QA-21-C122    202112217282-5845-30             HOUSING MALE ASS'Y       PNN000004000000004000FN00000000020211201000004000NNE   20211220184321    2N0N  00000400000001068000001178032N3    ABYIPL-B005400370024
BI00B32P8    TAPI-2013      202112177158-3169-40             SEALING PLUG             CCN000160000000160000FY00016000020220101000000000NNM00020211220110657    1C0C  00004000000000156000000204132P8    YIYTM   004300260014
BI00B32P8    TAPI-2013      202112177157-7915-80             REAR HOLDER              CCN000010000000010000FY00001000020220101000000000NNM00020211220110657    1F0F  00001000000001110000001364032P8    YIYTM   005500360039
BI00B32P8    TAPI-2013      202112177158-3006-90             RUBBER STOPPER           CCN000160000000160000FY00016000020220101000000000NNM00020211220110657    1C0C  00002000000000330600000386032P8    YIYTM   002700430014
BI00B32P8    TAPI-2013      202112177158-3009-60             RUBBER STOPPER           CCN000100000000100000FY00010000020220101000000000NNM00020211220110657    1C0C  00002000000000338000000386232P8    YIYTM   002700430014
BI00B32P8    TAPI-2013      202112177158-3165-90             WIRE SEAL                CCN000080000000080000FY00008000020220101000000000NNM00020211220110657    1C0C  00004000000000124000000172432P8    YIYTM   004300270014
BI00B32P8    TAPI-2013      202112177158-3166-60             WIRE SEAL                CCN000040000000040000FY00004000020220101000000000NNM00020211220110657    1C0C  00004000000000104000000152432P8    YIYTM   002700430014
BI00B32P8    TAPI-2013      202112177158-3167-80             WIRE SEAL                CCN000180000000180000FY00018000020220101000000000NNM00020211220110657    1C0C  00002000000000048000000109032P8    YIYTM   002700430014
BI00B32P8    TAPI-2013      202112177114-1470                TERMINAL                 CCN000016500000016500FY00001650020220101000000000NNM00020211220110657    4P0P  00001650000000544500000838732P8    YIYTM   006400630015
BI00B32P8    TAPI-2013      202112177114-4100-02             TERMINAL                 CCN000054000000054000FY00005400020220101000000000NNM00020211220110657    4P0P  00001800000000748800001077432P8    YIYTM   006400630017
BI00B32P8    TAPI-2013      202112177114-4110-02             TERMINAL                 CCN000060000000060000FY00006000020220101000000000NNM00020211220110657    4P0P  00001500000000901500001230132P8    YIYTM   006400630017
BI00B32P8    TAPI-2013      202112177114-4415-02             TERMINAL MALE            CCN000108000000108000FY00010800020220101000000000NNM00020211220110657    4P0P  00002700000000429300000717532P8    YIYTM   006400630015
BI00B32P8    TAPI-2013      202112177114-4416-02             TERMINAL MALE            CCN000027000000027000FY00002700020220101000000000NNM00020211220110657    4P0P  00002700000000442800000731032P8    YIYTM   006400630015
BI00B32P8    TAPI-2013      202112177114-4728-02             TERMINAL                 CCN000030000000030000FY00003000020220101000000000NNM00020211220110657    4P0P  00003000000000510000000804232P8    YIYTM   006400630015
BI00B32P8    TAPI-2013      202112177114-4729-02             TERMINAL                 CCN000030000000030000FY00003000020220101000000000NNM00020211220110657    4P0P  00003000000000516000000810232P8    YIYTM   006400630015
BI00B32P8    TAPI-2013      202112177116-1180                TERMINAL                 CCN000019500000019500FY00001950020220101000000000NNM00020211220110657    1P0P  00001950000000618200000903432P8    YIYTM   006400630015
BI00B32P8    TAPI-2013      202112177116-1471                TERMINAL                 CCN000150000000150000FY00015000020220101000000000NNM00020211220110657    4P0P  00001500000000579000000867232P8    YIYTM   006400630015
BI00B32P8    TAPI-2013      202112177116-1486-02             TERMINAL                 CCN000115500000115500FY00011550020220101000000000NNM00020211220110657    4P0P  00001650000000655100000940332P8    YIYTM   006400630015
BI00B32P8    TAPI-2013      202112177116-1685-02             TERMINAL                 CCN000024000000024000FY00002400020220101000000000NNM00020211220110657    4P0P  00002400000000897600001065232P8    YIYTM   005100280028
BI00B32P8    TAPI-2013      202112177116-2640                TERMINAL                 CCN000072000000072000FY00007200020220101000000000NNM00020211220110657    4P0P  00001800000001018800001196632P8    YIYTM   005100280028
BI00B32P8    TAPI-2013      202112177116-2871                TERMINAL                 CCN000012000000012000FY00001200020220101000000000NNM00020211220110657    1P0P  00001200000000842400001072632P8    YIYTM   005100280028
BI00B32P8    TAPI-2013      202112177116-4020                TERMINAL                 CCN000148500000148500FY00014850020220101000000000NNM00020211220110657    4P0P  00001350000000513000000798232P8    YIYTM   006400630015
BI00B32P8    TAPI-2013      202112177116-4025                TERMINAL                 CCN000128000000128000FY00012800020220101000000000NNM00020211220110657    4P0P  00001600000000644800000975132P8    YIYTM   006400630017
BI00B32P8    TAPI-2013      202112177116-4026                TERMINAL                 CCN000048000000048000FY00004800020220101000000000NNM00020211220110657    4P0P  00001600000000664000000994332P8    YIYTM   006400630017
BI00B32P8    TAPI-2013      202112177116-4032                TERMINAL                 CCN000018000000018000FY00001800020220101000000000NNM00020211220110657    4P0P  00000600000000532800000818032P8    YIYTM   006400630015
BI00B32P8    TAPI-2013      202112177116-4101-02             TERMINAL                 CCN000012000000012000FY00001200020220101000000000NNM00020211220110657    4P0P  00001200000000582000000876232P8    YIYTM   006400630015
BI00B32P8    TAPI-2013      202112177116-4111-02             TERMINAL                 CCN000022500000022500FY00002250020220101000000000NNM00020211220110657    4P0P  00000750000000529500000817732P8    YIYTM   006400630015
BI00B32P8    TAPI-2013      202112177116-4416-02             TERMINAL                 CCN000256000000256000FY00025600020220101000000000NNM00020211220110657    4P0P  00003200000000518400000847132P8    YIYTM   006400630017
BI00B32P8    TAPI-2013      202112177116-4780-02             TERMINAL FEMALE          CCN000180000000180000FY00018000020220101000000000NNM00020211220110657    4P0P  00001500000000691500000985732P8    YIYTM   006400630015
BI00B32P8    TAPI-2013      202112177116-5045-02             TERMINAL                 CCN000032000000032000FY00003200020220101000000000NNM00020211220110657    4P0P  00001600000000678400001007132P8    YIYTM   006400630017
BI00B32P8    TAPI-2013      202112177116-5046-02             TERMINAL                 CCN000060000000060000FY00006000020220101000000000NNM00020211220110657    4P0P  00001200000000544800000873532P8    YIYTM   006400630017
BI00B32P8    TAPI-2013      202112177116-6041                TERMINAL                 CCN000004500000004500FY00000450020220101000000000NNM00020211220110657    4P0P  00000450000000716000001009632P8    YIYTM   006400630015
BI00B32P8    TAPI-2013      202112177116-6042                TERMINAL                 CCN000006000000006000FY00000600020220101000000000NNM00020211220110657    4P0P  00000300000000523800000856132P8    YIYTM   006400630015
BI00B32P8    TAPI-2013      202112177126-8826-02             TERMINAL                 CCN000045000000045000FY00004500020220101000000000NNM00020211220110657    1P0P  00000900000000788400001073632P8    YIYTM   006400630015
BI00B32P8    TAPI-2013      202112177126-8850-02             TERMINAL                 CCN000009000000009000FY00000900020220101000000000NNM00020211220110657    1P0P  00000900000000672300000957532P8    YIYTM   006400630015
BI00B32P8    TAPI-2013      202112177126-8853-02             TERMINAL                 CCN000052500000052500FY00005250020220101000000000NNM00020211220110657    4P0P  00000750000000562500000847732P8    YIYTM   006400630015
BI00B32P8    TAPI-2013      202112177126-8854-02             TERMINAL                 CCN000045000000045000FY00004500020220101000000000NNM00020211220110657    4P0P  00000750000000604500000889732P8    YIYTM   006400630015
BI00B32P8    TAPI-2013      202112177126-8855-02             TERMINAL                 CCN000012000000012000FY00001200020220101000000000NNM00020211220110657    4P0P  00000600000000510600000795832P8    YIYTM   006400630015
BI00B32P8    TAPI-2013      202112177196-1103-02             TERMINAL                 CCN000270000000270000FY00027000020220101000000000NNM00020211220110657    4P0P  00002250000000429800000715032P8    YIYTM   006400630015
BI00B32P8    TAPI-2013      202112177196-1466-02             TERMINAL MALE            CCN000028500000028500FY00002850020220101000000000NNM00020211220110657    4P0P  00002850000000427500000712732P8    YIYTM   006400630015
BI00B32P8    TAPI-2013      202112177222-6244-40             CONNECTOR                CCN000001600000001600FY00000160020220101000000000NNM00020211220110657    4N0N  00000080000001239200001422032P8    YIYTM   005600390040
BI00B32P8    TAPI-2013      202112177222-7484-30             CONNECTOR                CCN000002000000002000FY00000200020220101000000000NNM00020211220110657    4N0N  00000100000001030000001175732P8    YIYTM   005500360039
BI00B32P8    TAPI-2013      202112177222-7923-30             CONNECTOR                CCN000003000000003000FY00000300020220101000000000NNM00020211220110657    4N0N  00000060000000937000001067032P8    YIYTM   005500360039
BI00B32P8    TAPI-2013      202112177222-7923-40             CONNECTOR                CCN000000600000000600FY00000060020220101000000000NNM00020211220110657    4N0N  00000060000000937000001123032P8    YIYTM   005500360039
BI00B32P8    TAPI-2013      202112177282-1248                HOUSING SUB ASSEMBLY     CCN000000600000000600FY00000060020220101000000000NNM00020211220110657    1N0N  00000060000001167000001372032P8    YIYTM   005500360039
BI00B32P8    TAPI-2013      202112177282-6568-40             CONNECTOR                CCN000003000000003000FY00000300020220101000000000NNM00020211220110657    4N0N  00000100000001206000001370732P8    YIYTM   005500360039
BI00B32P8    TAPI-2013      202112177282-9391                HOUSING MALE ASS'Y       CCN000001200000001200FY00000120020220101000000000NNM00020211220110657    4N0N  00000120000001017600001237632P8    YIYTM   005500360039
BI00B32P8    TAPI-2013      202112177283-0259                CONNECTOR SUB ASSY       CCN000000240000000240FY00000024020220101000000000NNM00020211220110657    4N0N  00000024000001332000001607032P8    YIYTM   005600390040
BI00B32P8    TAPI-2013      202112177283-1064                CONNECTOR                CCN000001500000001500FY00000150020220101000000000NNM00020211220110657    1N0N  00000150000000983000001156032P8    YIYTM   005500360039
BI00B32P8    TAPI-2013      202112177283-1114-30             CONNECTOR                CCN000002000000002000FY00000200020220101000000000NNM00020211220110657    4N0N  00000200000000624000000973332P8    YIYTM   005600390040
BI00B32P8    TAPI-2013      202112177283-1289-30             CONNECTOR HOUSING        CCN000000300000000600FY00000060020220101000000000NNM00020211220110657    1N0N  00000060000000675600000820632P8    YIYTM   005400370024
BI00B32P8    TAPI-2013      202112177283-1289-40             CONNECTOR HOUSING        CCN000008100000008400FY00000840020220101000000000NNM00020211220110657    1N0N  00000060000000679800000824832P8    YIYTM   005400370024
BI00B32P8    TAPI-2013      202112177283-1968-30             CONNECTOR                CCN000002700000002700FY00000270020220101000000000NNM00020211220110657    1N0N  00000090000001140000001318332P8    YIYTM   005600390040
BI00B32P8    TAPI-2013      202112177283-5843                CONNECTOR                CCN000003000000003000FY00000300020220101000000000NNM00020211220110657    1N0N  00000150000000889000001132032P8    YIYTM   005600390040
BI00B32P8    TAPI-2013      202112177283-6388-40             CONNECTOR                CCN000002000000002000FY00000200020220101000000000NNM00020211220110657    4N0N  00000200000001029000001173532P8    YIYTM   005500360039
BI00B32P8    TAPI-2013      202112177287-1917-40             CONNECTOR FEMALE         CCN000002400000002400FY00000240020220101000000000NNM00020211220110657    4N0N  00000240000001060800001312532P8    YIYTM   005500360039
BI00B32P8    TAPI-2013      202112177382-1481-10             CONNECTOR                CCN000003200000003200FY00000320020220101000000000NNM00020211220110657    4N0N  00000080000001025000001183032P8    YIYTM   005600390040
BI00B32P8    TAPI-2013      202112177470-3082                J/B COMPLETE ASS'Y       CCN000000240000000240FY00000024020220101000000000NNM00020211220110657    1J0J  00000002400001320000001570032P8    YIYTM   005500360039
BI00B32P8    TAPI-2013      202112177017-1180-02             TERMINAL                 CCN000072000000072000FY00007200020220101000000000NNM00020211220110657    4P0P  00007200000001065600001229032P8    YIYTM   005100280028
BI00B32P8    TAPI-2013      202112177386-6939                CONNECTOR MALE ASS'Y     CCN000000900000000900FY00000090020220101000000000NNM00020211220110657    4N0N  00000090000001359900001486432P8    YIYTM   005400370024
BI00B32P8    TAPI-2013      202112177327-6424-4W             BATTERY FUSE             CCN000000096000000096FY00000009620220101000000000NNM00020211220110657    4N0N  00000009600001109500001259632P8    YIYTM   005400370024
BI00B32P8    TAPI-2013      202112177470-5650                J/B COMPLETE ASS'Y       CCN000000030000000030FY00000003020220101000000000NNM00020211220110657    4J0J  00000001000000494000000661032P8    YIYTM   005400370024
BI00B32P8    TAPI-2013      202112177273-3887-0W             CASSETTE BRACKET         CCN000000600000000600FY00000060020220101000000000NNM00020211220110657    4N0N  00000060000000526000000652032P8    YIYTM   005500360039
BI00B32P8    #TAPI-201A1    202203167172-5629-80             RUBBER STOPPER           CCN000780000000780000FN00000000020220101000780000NNMP0820211220121535    2H0H  00002000000000060000000111132P8    YIYTM   004300270014
BI00B32P8    #TAPI-201A1    202201127172-5631-60             RUBBER STOPPER           CCN000660000000660000FN00000000020220101000660000NNMP0820211220121535    2H0H  00002000000000042000000093132P8    YIYTM   004300270014
BI00B32P8    #TAPI-2031     202203097172-5629-80             RUBBER STOPPER           CCN000300000000300000FN00000000020220301000300000NNMD0420211220121535    2H0H  00002000000000060000000111132P8    YIYTM   004300270014
BI00B32P8    #TAPI-2032     202203167172-5629-80             RUBBER STOPPER           CCN000300000000300000FN00000000020220301000300000NNMD0420211220121535    2H0H  00002000000000060000000111132P8    YIYTM   004300270014
BI00B32P8    #TAPI-2034     202203237172-5629-80             RUBBER STOPPER           CCN000300000000300000FN00000000020220301000300000NNMD0420211220121535    2H0H  00002000000000060000000111132P8    YIYTM   004300270014
BI00B32P8    #TAPI-2031     202203097289-4200-30             HOUSING FEMALE ASS'Y     CCN000016000000016000FN00000000020220301000016000NNMD0420211220121535    2N0N  00000200000000926000001021032P8    YIYTM   005400370024
BI00B32P8    #TAPI-2032     202203167289-4200-30             HOUSING FEMALE ASS'Y     CCN000008000000008000FN00000000020220301000008000NNMD0420211220121535    2N0N  00000200000000926000001021032P8    YIYTM   005400370024
BI00B32P8    #TAPI-2033     202203237289-4200-30             HOUSING FEMALE ASS'Y     CCN000008000000008000FN00000000020220301000008000NNMD0420211220121535    2N0N  00000200000000926000001021032P8    YIYTM   005400370024
BI00B32P8    #TAPI-2034     202203307289-4200-30             HOUSING FEMALE ASS'Y     CCN000010000000010000FN00000000020220301000010000NNMD0420211220121535    2N0N  00000200000000926000001021032P8    YIYTM   005400370024
BI00B32P8    #TAPI-2031     202205047172-5630-40             RUBBER STOPPER           CCN000460000000460000FN00000000020220301000460000NNMD0420211220121535    2H0H  00002000000000044000000095132P8    YIYTM   004300270014
BI00B32P8    #TAPI-2032     202205117172-5630-40             RUBBER STOPPER           CCN000220000000220000FN00000000020220301000220000NNMD0420211220121535    2H0H  00002000000000044000000095132P8    YIYTM   004300270014
BI00B32P8    #TAPI-2033     202205187172-5630-40             RUBBER STOPPER           CCN000200000000200000FN00000000020220301000200000NNMD0420211220121535    2H0H  00002000000000044000000095132P8    YIYTM   004300270014
BI00B32P8    #TAPI-2034     202205187172-5630-40             RUBBER STOPPER           CCN000200000000200000FN00000000020220301000200000NNMD0420211220121535    2H0H  00002000000000044000000095132P8    YIYTM   004300270014
BI00A32Q8    #EU21114TMW    202112177289-4200-30             HOUSING FEMALE ASS'Y     PCN000040000000040000FY00004000020211101000000000NNM00020211220111312    2N0N  00000200000000926000001021032Q8    EMEMI   005400370024
BI00B32R7    #R-TAP210622   202201137186-8845-60             HOUSING MALE             CCN000006000000006000FN00000000020220101000006000NNED0720211220121535    2F0F  00000300000000690000000801532R7    IVYCIC  005400370024
BI00A32U5    DI2003         202112217289-3342                HOUSING FEMALE ASS'Y     CCN000014400000014400FN00000000020220301000014400NNM00020211220161611U5  1N0N  00000240000000686400000901432U5    AMAMSD  005500360039
BI00B32U5    DI2009         202201287289-3342                HOUSING FEMALE ASS'Y     CCN000019200000019200FN00000000020220401000019200NNMD0020211220160439U5  1N0N  00000240000000686400000901432U5    AMAMSD  005500360039
BI00B32U5    DI2009         202201287287-1915-40             CONNECTOR ASS'Y          CCN000004800000004800FN00000000020220401000004800NNMD0020211220160421U5  4N0N  00000240000000666500000923132U5    AMAMSD  005500360039
BI00B32U5    DI2009         202201287289-3342-30             HOUSING FEMALE ASS'Y     CCN000048000000048000FN00000000020220401000048000NNMD0020211220160439U5  1N0N  00000240000000686400000901432U5    AMAMSD  005500360039
BI00B32U5    DI2009         202201287C89-6868-30             SEALED ASSY FEMALE       CCN000012600000012600FN00000000020220401000012600NNMD0020211220160401U5  4N0N  00000252000000839200001119232U5    AMAMSD  005500360039
BI00B32U5    #DI2009        202201287172-5629-80             RUBBER STOPPER           CCN000180000000180000FN00000000020220401000180000NNMD0020211220160507U5  2H0H  00002000000000060000000111132U5    AMAMSD  004300270014
BI00B32U5    #DI2009        202201287172-5630-40             RUBBER STOPPER           CCN000360000000360000FN00000000020220401000360000NNMD0020211220160507U5  2H0H  00002000000000044000000095132U5    AMAMSD  004300270014
BI00B32U5    #DI2004B       202204087172-5630-40             RUBBER STOPPER           CCN000160000000160000FN00000000020220301000160000NNED0420211220121535U5  2H0H  00002000000000044000000095132U5    AMAMSD  004300270014
BI00B32U5    DI2010         202202047116-4037                TERMINAL                 CCN000030000000030000FN00000000020220401000030000NNM   20211220121535U5  4P0P  00000600000000600000000894232U5    AMAMSD  006400630015
BI00B32U5    DI2010         202202047289-3342                HOUSING FEMALE ASS'Y     CCN000009600000009600FN00000000020220401000009600NNM   20211220121535U5  1N0N  00000240000000686400000901432U5    AMAMSD  005500360039
BI00B32U5    DI2010         202202047017-1180-02             TERMINAL                 CCN000072000000072000FN00000000020220401000072000NNM   20211220121535U5  4P0P  00007200000001065600001229032U5    AMAMSD  005100280028
BI00B32U5    DI2010         202202047017-1182-02             TERMINAL                 CCN000045000000045000FN00000000020220401000045000NNM   20211220121535U5  4P0P  00004500000001165500001318632U5    AMAMSD  005100280028
BI00B32U5    DI2010         202202047017-1183-02             TERMINAL                 CCN000027000000027000FN00000000020220401000027000NNM   20211220121535U5  4P0P  00002700000001139400001307432U5    AMAMSD  005100280028
BI00B32U5    DI2010         202202047114-4486-02             TERMINAL                 CCN000072000000072000FN00000000020220401000072000NNM   20211220121535U5  4P0P  00002400000000662400000956032U5    AMAMSD  006400630015
BI00B32U5    DI2010         202202047114-4624-02             TERMINAL                 CCN000048000000048000FN00000000020220401000048000NNM   20211220121535U5  4P0P  00002400000000895200001188832U5    AMAMSD  006400630015
BI00B32U5    DI2010         202202047116-1685-02             TERMINAL                 CCN000120000000120000FN00000000020220401000120000NNM   20211220121535U5  4P0P  00002400000000897600001065232U5    AMAMSD  005100280028
BI00B32U5    DI2010         202202047116-4486-02             TERMINAL                 CCN000140000000140000FN00000000020220401000140000NNM   20211220121535U5  4P0P  00002800000000666400000995132U5    AMAMSD  006400630017
BI00B32U5    DI2010         202202047116-5045-02             TERMINAL                 CCN000160000000160000FN00000000020220401000160000NNM   20211220121535U5  4P0P  00001600000000678400001007132U5    AMAMSD  006400630017
BI00B32U5    DI2010         202202047116-5046-02             TERMINAL                 CCN000048000000048000FN00000000020220401000048000NNM   20211220121535U5  4P0P  00001200000000544800000873532U5    AMAMSD  006400630017
BI00B32U5    DI2010         202202047158-3167-80             WIRE SEAL                CCN000020000000020000FN00000000020220401000020000NNM   20211220121535U5  1C0C  00002000000000048000000109032U5    AMAMSD  002700430014
BI00B32U5    DI2010         202202047196-1102-02             TERMINAL                 CCN000022500000022500FN00000000020220401000022500NNM   20211220121535U5  4P0P  00002250000000405000000690232U5    AMAMSD  006400630015
BI00B32U5    DI2010         202202047196-1104-02             TERMINAL                 CCN000292500000292500FN00000000020220401000292500NNM   20211220121535U5  4P0P  00002250000000441000000726232U5    AMAMSD  006400630015
BI00B32U5    DI2010         202202047287-1915-40             CONNECTOR ASS'Y          CCN000004800000004800FN00000000020220401000004800NNM   20211220121535U5  4N0N  00000240000000666500000923132U5    AMAMSD  005500360039
BI00B32U5    DI2010         202202047288-3330-30             HOUSING MALE             CCN000004500000004500FN00000000020220401000004500NNM   20211220121535U5  4N0N  00000150000000866300001011232U5    AMAMSD  005400370024
BI00B32U5    DI2010         202202047288-3339-30             HOUSING MALE             CCN000003000000003000FN00000000020220401000003000NNM   20211220121535U5  4N0N  00000150000000867000001012032U5    AMAMSD  005400370024
BI00B32U5    DI2010         202202047289-3342-30             HOUSING FEMALE ASS'Y     CCN000043200000043200FN00000000020220401000043200NNM   20211220121535U5  1N0N  00000240000000686400000901432U5    AMAMSD  005500360039
BI00B32U5    DI2010         202202047296-1025-02             TERMINAL ALUMINIUM       CCN000036000000036000FN00000000020220401000036000NNM   20211220121535U5  4P0P  00001800000000635400000920632U5    AMAMSD  006400630015
BI00B32U5    DI2010         202202047388-2978-30             HOUSING MALE ASS'Y       CCN000005760000005760FN00000000020220401000005760NNM   20211220121535U5  1N0N  00000048000000742000001122032U5    AMAMSD  005500360039
BI00B32U5    DI2010         202202047327-6731-3W             BATTERY FUSE             CCN000001920000001920FN00000000020220401000001920NNM   20211220121535U5  4N0N  00000006400000697600000843032U5    AMAMSD  005400370024
BI00B32U5    DI2010         202202047B96-0805-02             TERMINAL FEMALE          CCN000022500000022500FN00000000020220401000022500NNM   20211220121535U5  4P0P  00002250000000558000000843232U5    AMAMSD  006400630015
BI00B32U5    DI2010         202202047C89-6868-30             SEALED ASSY FEMALE       CCN000007560000007560FN00000000020220401000007560NNM   20211220121535U5  4N0N  00000252000000839200001119232U5    AMAMSD  005500360039
BI00B32U5    #DI2010        202202047158-3017                RUBBER STOPPER           CCN000030000000030000FN00000000020220401000030000NNM   20211220121535U5  2C0C  00001000000000375500000435032U5    AMAMSD  002700430014
BI00B32U5    #DI2010        202202047287-7859                HYBRID FEMALE ASS'Y      CCN000014400000014400FN00000000020220401000014400NNM   20211220121535U5  2N0N  00000120000000461600000671632U5    AMAMSD  005500360039
BI00B32U5    #DI2010        202202047158-3003-90             RUBBER STOPPER           CCN000180000000180000FN00000000020220401000180000NNM   20211220121535U5  2C0C  00002000000000250000000306032U5    AMAMSD  002700430014
BI00B32U5    #DI2010        202202047158-3005-80             RUBBER STOPPER           CCN000040000000040000FN00000000020220401000040000NNM   20211220121535U5  2H0H  00002000000000210000000268732U5    AMAMSD  002700430014
BI00B32U5    #DI2010        202202047158-3008-80             RUBBER STOPPER           CCN000020000000020000FN00000000020220401000020000NNM   20211220121535U5  2C0C  00002000000000288000000343032U5    AMAMSD  004300270014
BI00B32U5    #DI2010        202202047158-3015-10             RUBBER STOPPER           CCN000010000000010000FN00000000020220401000010000NNM   20211220121535U5  2C0C  00001000000000419500000474032U5    AMAMSD  002700430014
BI00B32U5    #DI2010        202202047172-5626-90             RUBBER STOPPER           CCN000220000000220000FN00000000020220401000220000NNM   20211220121535U5  2H0H  00002000000000076400000127832U5    AMAMSD  004300270014
BI00B32U5    #DI2010        202202047172-5627-60             RUBBER STOPPER           CCN000200000000200000FN00000000020220401000200000NNM   20211220121535U5  2H0H  00002000000000070400000121832U5    AMAMSD  004300270014
BI00B32U5    #DI2010        202202047172-5628-80             DUMMY PLUG               CCN000040000000040000FN00000000020220401000040000NNM   20211220121535U5  2H0H  00002000000000110600000162032U5    AMAMSD  004300270014
BI00B32U5    #DI2010        202202047172-5629-80             RUBBER STOPPER           CCN000080000000080000FN00000000020220401000080000NNM   20211220121535U5  2H0H  00002000000000060000000111132U5    AMAMSD  004300270014
BI00B32U5    #DI2010        202202047172-5630-40             RUBBER STOPPER           CCN000080000000080000FN00000000020220401000080000NNM   20211220121535U5  2H0H  00002000000000044000000095132U5    AMAMSD  004300270014
BI00B32U5    #DI2010        202202047172-5631-60             RUBBER STOPPER           CCN000240000000240000FN00000000020220401000240000NNM   20211220121535U5  2H0H  00002000000000042000000093132U5    AMAMSD  004300270014
BI00B32U5    #DI2010        202202047172-5632-10             DUMMY PLUG               CCN000200000000200000FN00000000020220401000200000NNM   20211220121535U5  2H0H  00002000000000080400000131832U5    AMAMSD  004300270014
BI00B32U5    #DI2010        202202047182-8253-40             HOUSING                  CCN000001200000001200FN00000000020220401000001200NNM   20211220121535U5  2F0F  00000120000000573000000864032U5    AMAMSD  005600390040
BI00B32U5    #DI2010        202202047289-4200-30             HOUSING FEMALE ASS'Y     CCN000002000000002000FN00000000020220401000002000NNM   20211220121535U5  2N0N  00000200000000926000001021032U5    AMAMSD  005400370024
BI00B32U9    TP0380S        202201137298-1149-3W             SQUIB SUB ASS'Y          CCN000010000000010000FN00000000020220201000010000NNE   20211220121535U9  4N0N  00001000000000785000000922032U9    YNYNA-E 005400370024
BI00B32U9    TP0380S        202201137298-1186-40             SQUIB SUB ASS'Y          CCN000010000000010000FN00000000020220201000010000NNE   20211220121535U9  4N0N  00001000000000650000000774532U9    YNYNA-E 005400370024
BI00B32U9    TPA207         202201137114-4030                TERMINAL                 CCN000010500000010500FN00000000020220201000010500NNM   20211220121535U9  4P0P  00001050000000926100001254732U9    YNYNA-E 006400630017
BI00B32U9    TPA207         202201137114-4231-02             TERMINAL                 CCN000252000000252000FN00000000020220201000252000NNM   20211220121535U9  4P0P  00001800000000554400000848032U9    YNYNA-E 006400630015
BI00B32U9    TPA207         202201137116-2951-02             TERMINAL                 CCN000081000000081000FN00000000020220201000081000NNM   20211220121535U9  4P0P  00000540000000817600001111832U9    YNYNA-E 006400630015
BI00B32U9    TPA207         202201137158-3165-90             WIRE SEAL                CCN000200000000200000FN00000000020220201000200000NNM   20211220121535U9  1C0C  00004000000000124000000172432U9    YNYNA-E 004300270014
BI00B32U9    TPA207         202201137158-3166-60             WIRE SEAL                CCN000560000000560000FN00000000020220201000560000NNM   20211220121535U9  1C0C  00004000000000104000000152432U9    YNYNA-E 002700430014
BI00B32U9    TPA207         202201137158-3167-80             WIRE SEAL                CCN000480000000480000FN00000000020220201000480000NNM   20211220121535U9  1C0C  00002000000000048000000109032U9    YNYNA-E 002700430014
BI00B32U9    TPA207         202201137158-3168-80             SEALED                   CCN000200000000200000FN00000000020220201000200000NNM   20211220121535U9  1C0C  00002000000000044000000092132U9    YNYNA-E 004300260014
BI00B32U9    TPA207         202201137158-3169-40             SEALING PLUG             CCN000280000000280000FN00000000020220201000280000NNM   20211220121535U9  1C0C  00004000000000156000000204132U9    YNYNA-E 004300260014
BI00B32U9    TPA207         202201137196-0805-02             TERMINAL FEMALE          CCN000022500000022500FN00000000020220201000022500NNM   20211220121535U9  4P0P  00002250000000558000000843232U9    YNYNA-E 006400630015
BI00B32U9    TPA207         202201137222-7564-30             CONNECTOR                CCN000000500000000500FN00000000020220201000000500NNM   20211220121535U9  1N0N  00000050000000966500001125032U9    YNYNA-E 005500360039
BI00B32U9    TPA207         202201137282-5574-10             CONNECTOR                CCN000034400000034400FN00000000020220201000034400NNM   20211220121535U9  4N0N  00000080000001235000001423032U9    YNYNA-E 005600390040
BI00B32U9    TPA207         202201137298-1186-40             SQUIB SUB ASS'Y          CCN000010000000010000FN00000000020220201000010000NNM   20211220121535U9  4N0N  00001000000000650000000774532U9    YNYNA-E 005400370024
BI00B32U9    TPA207         202201137298-1187-30             SHUNT RING ASSEMBLY      CCN000010000000010000FN00000000020220201000010000NNM   20211220121535U9  4N0N  00001000000000647000000769532U9    YNYNA-E 005400370024
BI00B32U9    TPA207         202201137298-1145-4W             SQUIB SUB ASS'Y          CCN000010000000010000FN00000000020220201000010000NNM   20211220121535U9  4N0N  00001000000000787900000944932U9    YNYNA-E 005400370024
BI00B32U9    TPA207         202201137298-1149-3W             SQUIB SUB ASS'Y          CCN000010000000010000FN00000000020220201000010000NNM   20211220121535U9  4N0N  00001000000000785000000922032U9    YNYNA-E 005400370024
BI00B32U9    #TPA207        202201137157-3646                RUBBER STOPPER           CCN000060000000060000FN00000000020220201000060000NNM   20211220121535U9  2H0H  00002000000000184000000255232U9    YNYNA-E 002700430014
BI00B32U9    #TPA207        202201137158-3017                RUBBER STOPPER           CCN000010000000010000FN00000000020220201000010000NNM   20211220121535U9  2C0C  00001000000000375500000435032U9    YNYNA-E 002700430014
BI00B32U9    #TPA207        202201137047-1611-30             CLIP                     CCN000002000000002000FN00000000020220201000002000NNM   20211220121535U9  2F0F  00000200000001600000001739032U9    YNYNA-E 005600390040
BI00B32U9    #TPA207        202201137158-3121-80             WIRE SEAL                CCN000040000000040000FN00000000020220201000040000NNM   20211220121535U9  2C0C  00002000000000118000000187332U9    YNYNA-E 002700430014
BI00B32U9    #TPA207        202201137158-3376-50             CONNECTOR WIRE SEAL      CCN000060000000060000FN00000000020220201000060000NNM   20211220121535U9  2C0C  00002000000000184000000240732U9    YNYNA-E 002700430014
BI00B32U9    #TPA207        202201137282-6446-40             CONNECTOR                CCN000003000000003000FN00000000020220201000003000NNM   20211220121535U9  2N0N  00000150000001185000001368032U9    YNYNA-E 005500360039
BI00B32U9    #TPA207        202201137282-6457-40             CONNECTOR                CCN000000800000000800FN00000000020220201000000800NNM   20211220121535U9  2N0N  00000080000001137000001421332U9    YNYNA-E 005600390040
BI00B32U9    #TPA207        202201137282-8395-40             CONNECTOR                CCN000022000000022000FN00000000020220201000022000NNM   20211220121535U9  2N0N  00000100000001009000001188032U9    YNYNA-E 005500360039
BI00B32U9    #TPA207        202201137283-8397-40             CONNECTOR                CCN000009240000009240FN00000000020220201000009240NNM   20211220121535U9  2N0N  00000154000001007000001222732U9    YNYNA-E 005600390023
BI00B32W2    HN2201CNMW     202201047126-8851-02             TERMINAL                 CCN000009000000009000FN00000000020220101000009000NNE   20211220190151    1P0P  00000900000000739800001025032W2    HNHNY   006400630015
BI00B32W2    #HN2201CNMW    202201047158-3121-80             WIRE SEAL                CCN000020000000020000FN00000000020220101000020000NNE   20211220121535    2C0C  00002000000000118000000187332W2    HNHNY   002700430014
BI00B32W4    #4500181864    202112217147-3642-30             CLIP                     CCN000045000000045000FN00000000020211201000045000NNE00020211220161337W4172F0F  00000300000000542000000721332W417  HJYHK   005600390040
BI00B32W4    #4500182183    202112217147-3642-30             CLIP                     CCN000081000000081000FN00000000020211201000081000NNED0020211220161406W4172F0F  00000300000000542000000721332W417  HJYHK   005600390040
BI00B32W4    4500184982     202112237116-4231-02             TERMINAL                 CCN000026000000026000FN00000000020220101000026000NNED0720211220121535W4184P0P  00002600000000683800001012532W418  HJYHK   006400630017
BI00B32W4    4500186131     202201207283-1020                CONNECTOR                CCN000150000000078000FN00000000020220101000078000NNED0420211220170554W4514N0N  00000600000000840000001049332W451  HJ32W9  005600390040
BI00B32W4    4500186131     202202247283-1020                CONNECTOR                CCN000072000000072000FN00000000020220101000072000NNED0420211220170559W4514N0N  00000600000000840000001049332W451  HJ32W9  005600390040
BI00B32W7    SC22022JMW     202201197C89-6868-30             SEALED ASSY FEMALE       CCN000010080000010080FN00000000020220201000010080NNMD0420211220133425    4N0N  00000252000000839200001119232W7    SYSYA-CH005500360039
BI00B32W7    SC22023JMW     202201267C89-6868-30             SEALED ASSY FEMALE       CCN000010080000010080FN00000000020220201000010080NNMD0420211220133440    4N0N  00000252000000839200001119232W7    SYSYA-CH005500360039
BI00B32W7    SC22024JMW     202202027C89-6868-30             SEALED ASSY FEMALE       CCN000010080000010080FN00000000020220201000010080NNMD0420211220133451    4N0N  00000252000000839200001119232W7    SYSYA-CH005500360039
BI00B32W9    4500168359     202112157289-6868-30             SEALED ASSY FEMALE       CCN000010080000010080FN00000000020210401000010080NNE00020211220155742W9  4N0N  00000252000000839200001119232W9    HKYHK   005500360039
BI00B32W9    4500168359     202112157289-6868-30             SEALED ASSY FEMALE       CCN000010080000010080FN00000000020210401000010080NNE00020211220155734W9  4N0N  00000252000000839200001119232W9    HKYHK   005500360039
BI00B32X5    TIB2009        202201287288-6547                CONNECTOR MALE ASS'Y     CCN000003000000003000FN00000000020220401000003000NNMD0020211220153921X5  4N0N  00000075000001205300001340332X5    EPYNA-E 005400370024
BI00B32X5    TIB2009        202201287289-6547                HOUSING FEMALE ASS'Y     CCN000007200000007200FN00000000020220401000007200NNMD0020211220153921X5  1N0N  00000240000001152000001362032X5    EPYNA-E 005500360039
BI00B32X5    TIB2009        202201287288-6598-70             HOUSING MALE ASS'Y       CCN000004320000004320FN00000000020220401000004320NNMD0020211220153921X5  4N0N  00000144000001074200001429232X5    EPYNA-E 005500360039
BI00B32X5    TIB2009        202201287289-3342-30             HOUSING FEMALE ASS'Y     CCN000088800000088800FN00000000020220401000088800NNMD0020211220153921X5  1N0N  00000240000000686400000901432X5    EPYNA-E 005500360039
BI00B32X5    TIB2009        202201287289-3342-90             HOUSING FEMALE ASS'Y     CCN000009600000009600FN00000000020220401000009600NNMD0020211220153921X5  1N0N  00000240000000686400000901432X5    EPYNA-E 005500360039
BI00B32X5    #TIB2009       202201287158-3007-10             RUBBER STOPPER           CCN000180000000180000FN00000000020220401000180000NNMD0020211220154011X5  2H0H  00002000000000308000000362732X5    EPYNA-E 002700430014
BI00B32X5    #TIB2009       202201287172-5629-80             RUBBER STOPPER           CCN000380000000380000FN00000000020220401000380000NNMD0020211220154011X5  2H0H  00002000000000060000000111132X5    EPYNA-E 004300270014
BI00B32X5    #TIB2009       202201287172-5630-40             RUBBER STOPPER           CCN000260000000260000FN00000000020220401000260000NNMD0020211220154011X5  2H0H  00002000000000044000000095132X5    EPYNA-E 004300270014
BI00B32X5    TIB2010        202202047116-4037                TERMINAL                 CCN000018000000018000FN00000000020220401000018000NNM   20211220121535X5  4P0P  00000600000000600000000894232X5    EPYNA-E 006400630015
BI00B32X5    TIB2010        202202047287-8072                HOUSING FEMALE ASS'Y     CCN000002400000002400FN00000000020220401000002400NNM   20211220121535X5  1N0N  00000240000001221600001441632X5    EPYNA-E 005500360039
BI00B32X5    TIB2010        202202047288-6547                CONNECTOR MALE ASS'Y     CCN000008250000008250FN00000000020220401000008250NNM   20211220121535X5  4N0N  00000075000001205300001340332X5    EPYNA-E 005400370024
BI00B32X5    TIB2010        202202047289-3342                HOUSING FEMALE ASS'Y     CCN000028800000028800FN00000000020220401000028800NNM   20211220121535X5  1N0N  00000240000000686400000901432X5    EPYNA-E 005500360039
BI00B32X5    TIB2010        202202047289-6547                HOUSING FEMALE ASS'Y     CCN000012000000012000FN00000000020220401000012000NNM   20211220121535X5  1N0N  00000240000001152000001362032X5    EPYNA-E 005500360039
BI00B32X5    TIB2010        202202047017-1180-02             TERMINAL                 CCN000216000000216000FN00000000020220401000216000NNM   20211220121535X5  4P0P  00007200000001065600001229032X5    EPYNA-E 005100280028
BI00B32X5    TIB2010        202202047017-1183-02             TERMINAL                 CCN000027000000027000FN00000000020220401000027000NNM   20211220121535X5  4P0P  00002700000001139400001307432X5    EPYNA-E 005100280028
BI00B32X5    TIB2010        202202047114-4486-02             TERMINAL                 CCN000072000000072000FN00000000020220401000072000NNM   20211220121535X5  4P0P  00002400000000662400000956032X5    EPYNA-E 006400630015
BI00B32X5    TIB2010        202202047114-4624-02             TERMINAL                 CCN000024000000024000FN00000000020220401000024000NNM   20211220121535X5  4P0P  00002400000000895200001188832X5    EPYNA-E 006400630015
BI00B32X5    TIB2010        202202047116-1685-02             TERMINAL                 CCN000048000000048000FN00000000020220401000048000NNM   20211220121535X5  4P0P  00002400000000897600001065232X5    EPYNA-E 005100280028
BI00B32X5    TIB2010        202202047116-4486-02             TERMINAL                 CCN000084000000084000FN00000000020220401000084000NNM   20211220121535X5  4P0P  00002800000000666400000995132X5    EPYNA-E 006400630017
BI00B32X5    TIB2010        202202047116-5045-02             TERMINAL                 CCN000176000000176000FN00000000020220401000176000NNM   20211220121535X5  4P0P  00001600000000678400001007132X5    EPYNA-E 006400630017
BI00B32X5    TIB2010        202202047116-5046-02             TERMINAL                 CCN000060000000060000FN00000000020220401000060000NNM   20211220121535X5  4P0P  00001200000000544800000873532X5    EPYNA-E 006400630017
BI00B32X5    TIB2010        202202047137-3047-30             UNIT PACKING             CCN000008000000008000FN00000000020220401000008000NNM   20211220121535X5  1C0C  00000100000000170500000218932X5    EPYNA-E 002700430014
BI00B32X5    TIB2010        202202047172-5402-30             SEAL RUBBER              CCN000016000000016000FN00000000020220401000016000NNM   20211220121535X5  1C0C  00000800000000457600000506032X5    EPYNA-E 004300270014
BI00B32X5    TIB2010        202202047172-5403-30             SEALED PACKING           CCN000016000000016000FN00000000020220401000016000NNM   20211220121535X5  1C0C  00000400000000653600000701732X5    EPYNA-E 004300270014
BI00B32X5    TIB2010        202202047173-3291-40             LIF LEVER                CCN000002400000002400FN00000000020220401000002400NNM   20211220121535X5  1F0F  00000240000000867800001067832X5    EPYNA-E 005500360039
BI00B32X5    TIB2010        202202047195-0783-08             TERMINAL                 CCN000030000000030000FN00000000020220401000030000NNM   20211220121535X5  4P0P  00003000000000507000000801232X5    EPYNA-E 006400630015
BI00B32X5    TIB2010        202202047196-1104-02             TERMINAL                 CCN000135000000135000FN00000000020220401000135000NNM   20211220121535X5  4P0P  00002250000000441000000726232X5    EPYNA-E 006400630015
BI00B32X5    TIB2010        202202047196-1325-02             TERMINAL FEMALE          CCN000060000000060000FN00000000020220401000060000NNM   20211220121535X5  4P0P  00006000000000450000000778732X5    EPYNA-E 006400630017
BI00B32X5    TIB2010        202202047196-1326-02             TERMINAL FEMALE          CCN000060000000060000FN00000000020220401000060000NNM   20211220121535X5  4P0P  00006000000000456000000784732X5    EPYNA-E 006400630017
BI00B32X5    TIB2010        202202047282-4576-90             HOUSING MALE ASS'Y       CCN000004800000004800FN00000000020220401000004800NNM   20211220121535X5  4N0N  00000240000000808800001028832X5    EPYNA-E 005500360039
BI00B32X5    TIB2010        202202047282-5574-10             CONNECTOR                CCN000008000000008000FN00000000020220401000008000NNM   20211220121535X5  4N0N  00000080000001235000001423032X5    EPYNA-E 005600390040
BI00B32X5    TIB2010        202202047283-6568-40             CONNECTOR                CCN000002000000002000FN00000000020220401000002000NNM   20211220121535X5  4N0N  00000200000001090000001263032X5    EPYNA-E 005500360039
BI00B32X5    TIB2010        202202047288-6598-70             HOUSING MALE ASS'Y       CCN000002880000002880FN00000000020220401000002880NNM   20211220121535X5  4N0N  00000144000001074200001429232X5    EPYNA-E 005500360039
BI00B32X5    TIB2010        202202047289-3342-30             HOUSING FEMALE ASS'Y     CCN000050400000050400FN00000000020220401000050400NNM   20211220121535X5  1N0N  00000240000000686400000901432X5    EPYNA-E 005500360039
BI00B32X5    TIB2010        202202047289-3342-40             HOUSING FEMALE ASS'Y     CCN000002400000002400FN00000000020220401000002400NNM   20211220121535X5  1N0N  00000240000000686400000901432X5    EPYNA-E 005500360039
BI00B32X5    TIB2010        202202047289-3342-90             HOUSING FEMALE ASS'Y     CCN000007200000007200FN00000000020220401000007200NNM   20211220121535X5  1N0N  00000240000000686400000901432X5    EPYNA-E 005500360039
BI00B32X5    TIB2010        202202047289-5979-30             HOUSING FEMALE ASS'Y     CCN000000756000000756FN00000000020220401000000756NNM   20211220121535X5  1N0N  00000025200000854700001064732X5    EPYNA-E 005400370024
BI00B32X5    TIB2010        202202047289-6518-30             HOUSING FEMALE ASS'Y     CCN000004800000004800FN00000000020220401000004800NNM   20211220121535X5  1N0N  00000120000000829200001049232X5    EPYNA-E 005500360039
BI00B32X5    TIB2010        202202047295-0785-02             TERMINAL ALUMINIUM       CCN000025500000025500FN00000000020220401000025500NNM   20211220121535X5  4P0P  00002550000000510000000803632X5    EPYNA-E 006400630015
BI00B32X5    TIB2010        202202047296-0784-02             TERMINAL ALUMINIUM       CCN000072000000072000FN00000000020220401000072000NNM   20211220121535X5  4P0P  00002400000000480000000765232X5    EPYNA-E 006400630015
BI00B32X5    TIB2010        202202047388-2978-30             HOUSING MALE ASS'Y       CCN000000480000000480FN00000000020220401000000480NNM   20211220121535X5  1N0N  00000048000000742000001122032X5    EPYNA-E 005500360039
BI00B32X5    TIB2010        202202047327-6731-3W             BATTERY FUSE             CCN000000384000000384FN00000000020220401000000384NNM   20211220121535X5  4N0N  00000006400000697600000843032X5    EPYNA-E 005400370024
BI00B32X5    #TIB2010       202202047158-3017                RUBBER STOPPER           CCN000020000000020000FN00000000020220401000020000NNM   20211220121535X5  2C0C  00001000000000375500000435032X5    EPYNA-E 002700430014
BI00B32X5    #TIB2010       202202047287-7859                HYBRID FEMALE ASS'Y      CCN000013200000013200FN00000000020220401000013200NNM   20211220121535X5  2N0N  00000120000000461600000671632X5    EPYNA-E 005500360039
BI00B32X5    #TIB2010       202202047287-9155                HOUSING FEMALE ASS'Y     CCN000002880000002880FN00000000020220401000002880NNM   20211220121535X5  2N0N  00000096000000853700001045232X5    EPYNA-E 005400370024
BI00B32X5    #TIB2010       202202047158-3003-90             RUBBER STOPPER           CCN000060000000060000FN00000000020220401000060000NNM   20211220121535X5  2C0C  00002000000000250000000306032X5    EPYNA-E 002700430014
BI00B32X5    #TIB2010       202202047158-3004-40             RUBBER STOPPER           CCN000160000000160000FN00000000020220401000160000NNM   20211220121535X5  2C0C  00002000000000234000000306332X5    EPYNA-E 002700430014
BI00B32X5    #TIB2010       202202047158-3007-10             RUBBER STOPPER           CCN000160000000160000FN00000000020220401000160000NNM   20211220121535X5  2H0H  00002000000000308000000362732X5    EPYNA-E 002700430014
BI00B32X5    #TIB2010       202202047158-3008-80             RUBBER STOPPER           CCN000020000000020000FN00000000020220401000020000NNM   20211220121535X5  2C0C  00002000000000288000000343032X5    EPYNA-E 004300270014
BI00B32X5    #TIB2010       202202047158-3015-10             RUBBER STOPPER           CCN000010000000010000FN00000000020220401000010000NNM   20211220121535X5  2C0C  00001000000000419500000474032X5    EPYNA-E 002700430014
BI00B32X5    #TIB2010       202202047158-3610-80             RUBBER STOPPER           CCN000003000000003000FN00000000020220401000003000NNM   20211220121535X5  2H0H  00000300000000396900000438932X5    EPYNA-E 004300270014
BI00B32X5    #TIB2010       202202047172-5625-90             RUBBER STOPPER           CCN000040000000040000FN00000000020220401000040000NNM   20211220121535X5  2H0H  00002000000000082400000133832X5    EPYNA-E 004300270014
BI00B32X5    #TIB2010       202202047172-5626-90             RUBBER STOPPER           CCN000040000000040000FN00000000020220401000040000NNM   20211220121535X5  2H0H  00002000000000076400000127832X5    EPYNA-E 004300270014
BI00B32X5    #TIB2010       202202047172-5627-60             RUBBER STOPPER           CCN000020000000020000FN00000000020220401000020000NNM   20211220121535X5  2H0H  00002000000000070400000121832X5    EPYNA-E 004300270014
BI00B32X5    #TIB2010       202202047172-5628-80             DUMMY PLUG               CCN000020000000020000FN00000000020220401000020000NNM   20211220121535X5  2H0H  00002000000000110600000162032X5    EPYNA-E 004300270014
BI00B32X5    #TIB2010       202202047172-5629-80             RUBBER STOPPER           CCN000060000000060000FN00000000020220401000060000NNM   20211220121535X5  2H0H  00002000000000060000000111132X5    EPYNA-E 004300270014
BI00B32X5    #TIB2010       202202047172-5630-40             RUBBER STOPPER           CCN000120000000120000FN00000000020220401000120000NNM   20211220121535X5  2H0H  00002000000000044000000095132X5    EPYNA-E 004300270014
BI00B32X5    #TIB2010       202202047172-5631-60             RUBBER STOPPER           CCN000060000000060000FN00000000020220401000060000NNM   20211220121535X5  2H0H  00002000000000042000000093132X5    EPYNA-E 004300270014
BI00B32X5    #TIB2010       202202047172-5632-10             DUMMY PLUG               CCN000180000000180000FN00000000020220401000180000NNM   20211220121535X5  2H0H  00002000000000080400000131832X5    EPYNA-E 004300270014
BI00B32X5    #TIB2010       202202047173-3225-10             LIF LEVER                CCN000000800000000800FN00000000020220401000000800NNM   20211220121535X5  2F0F  00000080000000592000000712032X5    EPYNA-E 005500360039
BI00B32X5    #TIB2010       202202047183-8251-40             HOUSING                  CCN000004800000004800FN00000000020220401000004800NNM   20211220121535X5  2F0F  00000240000000357600000640032X5    EPYNA-E 005500360039
BI00B32X5    #TIB2010       202202047183-8253-40             HOUSING                  CCN000004800000004800FN00000000020220401000004800NNM   20211220121535X5  2F0F  00000240000000528000000805032X5    EPYNA-E 005500360039
BI00B32X5    #TIB2010       202202047189-2978-30             HOUSING FEMALE           CCN000006000000006000FN00000000020220401000006000NNM   20211220121535X5  2F0F  00000150000000966900001096932X5    EPYNA-E 005400370024
BI00B32X5    #TIB2010       202202047189-3034-30             HOUSING FEMALE           CCN000003200000003200FN00000000020220401000003200NNM   20211220121535X5  2F0F  00000160000000972800001192832X5    EPYNA-E 005500360039
BI00B32X5    @TIB2010       202202047286-4098                CONNECTOR MALE ASS'Y     CCN000009600000009600FN00000000020220401000009600NNMD0020211220121535X5  3N0N  00000160000000949100001163032X5    EPYNA-E 005500360039
BI00B32Y1    TA2011A        202112247289-3342-30             HOUSING FEMALE ASS'Y     CCN000021600000021600FN00000000020220101000021600NNM00 20211220163108    1N0N  00000240000000686400000901432Y1    YAYAS   005500360039
