BI00B32BF    TT2202AKMW     2022011118009604050              AVS 0.85 R               CCN000002000000002000FN00000000020220201000002000NNE   20211220092656    1W    00000100000001148000000000032BF    TTTJY   000000000000NR41C001
BI00B32BF    TT2202AKMW     2022011118009604056              AVS 0.85 R/G             CCN000007000000007000FN00000000020220201000007000NNE   20211220092656    1W    00000100000001148000000000032BF    TTTJY   000000000000NR41C002
BI00B32BF    TT2202AKMW     2022011118009604059              AVS 0.85 R/L             CCN000005000000005000FN00000000020220201000005000NNE   20211220092656    1W    00000100000001148000000000032BF    TTTJY   000000000000NR41C003
BI00B32B6    W72008         202201211801W003930              IVSSH 0.5F B             CCN000025200000025200FN00000000020220401000025200NNM   20211220094142B6  1W    00000180000000625000000000032B6    AXARNE-M000000000000AW121002
BI00B32B6    W72008         202201211801W003940              IVSSH 0.5F W             CCN000025200000025200FN00000000020220401000025200NNM   20211220094142B6  1W    00000180000000625000000000032B6    AXARNE-M000000000000AW121008
BI00B32B6    W72008         202201211801W003941              IVSSH 0.5F GY            CCN000012600000012600FN00000000020220401000012600NNM   20211220094142B6  1W    00000180000000625000000000032B6    AXARNE-M000000000000AW121004
BI00B32B6    W72008         202201211801W003950              IVSSH 0.5F R             CCN000012600000012600FN00000000020220401000012600NNM   20211220094142B6  1W    00000180000000625000000000032B6    AXARNE-M000000000000AW121006
BI00B32B6    W72008         202201211801W003952              IVSSH 0.5F P             CCN000025200000025200FN00000000020220401000025200NNM   20211220094142B6  1W    00000180000000625000000000032B6    AXARNE-M000000000000AW121005
BI00B32B6    W72008         202201211801W003970              IVSSH 0.5F Y             CCN000012600000012600FN00000000020220401000012600NNM   20211220094142B6  1W    00000180000000625000000000032B6    AXARNE-M000000000000AW121009
BI00B32B6    W72008         202201211801W003980              IVSSH 0.5F BR            CCN000025200000025200FN00000000020220401000025200NNM   20211220094142B6  1W    00000180000000625000000000032B6    AXARNE-M000000000000AW121003
BI00B32B6    W72008         202201211801W003992              IVSSH 0.5F V             CCN000012600000012600FN00000000020220401000012600NNM   20211220094142B6  1W    00000180000000625000000000032B6    AXARNE-M000000000000AW121007
BI00B32B6    W72008         202201211801W004040              IVSSH 0.75F W            CCN000002600000002600FN00000000020220401000002600NNM   20211220094142B6  1W    00000130000000882000000000032B6    AXARNE-M000000000000AW121012
BI00B32B6    W72008         202201211801W004052              IVSSH 0.75F P            CCN000002600000002600FN00000000020220401000002600NNM   20211220094142B6  1W    00000130000000882000000000032B6    AXARNE-M000000000000AW121011
BI00B32B6    W72008         202201211801W004060              IVSSH 0.75F G            CCN000002600000002600FN00000000020220401000002600NNM   20211220094142B6  1W    00000130000000882000000000032B6    AXARNE-M000000000000AW121010
BI00B32B6    W72009         202201281801W003941              IVSSH 0.5F GY            CCN000012600000012600FN00000000020220401000012600NNM   20211220094952B6  1W    00000180000000625000000000032B6    AXARNE-M000000000000AW221002
BI00B32B6    W72009         202201281801W003990              IVSSH 0.5F L             CCN000012600000012600FN00000000020220401000012600NNM   20211220094952B6  1W    00000180000000625000000000032B6    AXARNE-M000000000000AW221003
BI00B32B6    W72009         202201281801W003992              IVSSH 0.5F V             CCN000012600000012600FN00000000020220401000012600NNM   20211220094952B6  1W    00000180000000625000000000032B6    AXARNE-M000000000000AW221004
BI00B32B6    W72009         202201281801W004090              IVSSH 0.75F L            CCN000002600000002600FN00000000020220401000002600NNM   20211220094952B6  1W    00000130000000882000000000032B6    AXARNE-M000000000000AW221005
BI00B32B6    @W72009        20220128181B09039H7              CAVSAS 0.5X1 GY/W        CCN000000800000000800FN00000000020220401000000800NNM   20211220094950B6  1W    00000040000002250400000000032B6    AXARNE-M000000000000AW221001
BI00B32B6    W72010         202202041801W003930              IVSSH 0.5F B             CCN000028800000028800FN00000000020220401000028800NNE   20211220144030B6  1W    00000180000000625000000000032B6    AXARNE-M000000000000AW321002
BI00B32B6    W72010         202202041801W003941              IVSSH 0.5F GY            CCN000014400000014400FN00000000020220401000014400NNE   20211220144030B6  1W    00000180000000625000000000032B6    AXARNE-M000000000000AW321003
BI00B32B6    W72010         202202041801W003961              IVSSH 0.5F LG            CCN000014400000014400FN00000000020220401000014400NNE   20211220144030B6  1W    00000180000000625000000000032B6    AXARNE-M000000000000AW321005
BI00B32B6    W72010         202202041801W003970              IVSSH 0.5F Y             CCN000014400000014400FN00000000020220401000014400NNE   20211220144030B6  1W    00000180000000625000000000032B6    AXARNE-M000000000000AW321007
BI00B32B6    W72010         202202041801W003990              IVSSH 0.5F L             CCN000014400000014400FN00000000020220401000014400NNE   20211220144030B6  1W    00000180000000625000000000032B6    AXARNE-M000000000000AW321004
BI00B32B6    W72010         202202041801W003992              IVSSH 0.5F V             CCN000014400000014400FN00000000020220401000014400NNE   20211220144030B6  1W    00000180000000625000000000032B6    AXARNE-M000000000000AW321006
BI00B32B6    W72010         202202041801W004030              IVSSH 0.75F B            CCN000001300000001300FN00000000020220401000001300NNE   20211220144030B6  1W    00000130000000882000000000032B6    AXARNE-M000000000000AW321008
BI00B32B6    W72010         202202041801W004040              IVSSH 0.75F W            CCN000002600000002600FN00000000020220401000002600NNE   20211220144030B6  1W    00000130000000882000000000032B6    AXARNE-M000000000000AW321012
BI00B32B6    W72010         202202041801W00405U              IVSSH 0.75F BE           CCN000002600000002600FN00000000020220401000002600NNE   20211220144030B6  1W    00000130000000882000000000032B6    AXARNE-M000000000000AW321009
BI00B32B6    W72010         202202041801W004060              IVSSH 0.75F G            CCN000002600000002600FN00000000020220401000002600NNE   20211220144030B6  1W    00000130000000882000000000032B6    AXARNE-M000000000000AW321010
BI00B32B6    W72010         202202041801W004090              IVSSH 0.75F L            CCN000001300000001300FN00000000020220401000001300NNE   20211220144030B6  1W    00000130000000882000000000032B6    AXARNE-M000000000000AW321011
BI00B32B6    @W72010        20220204181B09039H7              CAVSAS 0.5X1 GY/W        CCN000000800000000800FN00000000020220401000000800NNE   20211220144032B6  1W    00000040000002250400000000032B6    AXARNE-M000000000000AW321001
BI00B32DE    TT202B         20220127180D0203937              AVSSH 0.5F B/Y           CCN000001500000001500FN00000000020220201000001500NNE   20211220131303    1W    00000150000000689000000000032DE    TVYEV-TV000000000000VS221005
BI00B32DE    TT202B         20220127180D0204153              AVSSH 1.25F R/B          CCN000001600000001600FN00000000020220201000001600NNE   20211220131303    1W    00000080000001458000000000032DE    TVYEV-TV000000000000VS221006
BI00B32DE    @TT202B        20220127181E50027ZZ              AVSSCS-S 0.5FX3 DGY/G    CCN000001500000001500FN00000000020220201000001500NNE   20211220131302    1W    00000025000003245000000000032DE    TVYEV-TV000000000000VS221001
BI00B32DE    @TT202B        20220127181F21002ZZ              AVSSHCS-S 0.5FX1 B       CCN000000800000000800FN00000000020220201000000800NNE   20211220131302    1W    00000040000001847000000000032DE    TVYEV-TV000000000000VS221002
BI00B32DE    @TT202B        20220127181F21011ZZ              AVSSHCS-S 0.5FX2 B/R     CCN000001200000001200FN00000000020220201000001200NNE   20211220131302    1W    00000030000002505800000000032DE    TVYEV-TV000000000000VS221003
BI00B32DE    @TT202B        20220127181F21013ZZ              AVSSHCS-S 0.5FX2 B/Y     CCN000000900000000900FN00000000020220201000000900NNE   20211220131302    1W    00000030000002505800000000032DE    TVYEV-TV000000000000VS221004
BI00B32DG    RW1121         202112231801W006930              IVSSH 0.35F B            CCN000055000000025000FN00000000020211201000025000NNM20 20211220142237    1W    00000250000000452000000000032DG    BFSAIBF 000000000000GV41A027
BI00B32DG    RW1121         202112231801W00695U              IVSSH 0.35F BE           CCN000045000000015000FN00000000020211201000015000NNM20 20211220142306    1W    00000250000000452000000000032DG    BFSAIBF 000000000000GV41A028
BI00B32DG    RW1121         202112231801W006940              IVSSH 0.35F W            CCN000072500000025000FN00000000020211201000025000NNM20 20211220142335    1W    00000250000000452000000000032DG    BFSAIBF 000000000000GV41A037
BI00B32DG    RW1121         202112231801W006943              IVSSH 0.35F W/B          CCN000050000000020000FN00000000020211201000020000NNM20 20211220142403    1W    00000250000000452000000000032DG    BFSAIBF 000000000000GV41A038
BI00A32DG    RW1121         202112211801W006930              IVSSH 0.35F B            PCN000030000000030000FN00000000020211201000030000NNM21 20211220144854    1W    00000250000000452000000000032DG    BFSAIBF 000000000000GV41A027
BI00A32DG    RW1121         202112211801W00695U              IVSSH 0.35F BE           PCN000030000000030000FN00000000020211201000030000NNM21 20211220144854    1W    00000250000000452000000000032DG    BFSAIBF 000000000000GV41A028
BI00A32DG    RW1121         202112211801W006940              IVSSH 0.35F W            PCN000047500000047500FN00000000020211201000047500NNM21 20211220144854    1W    00000250000000452000000000032DG    BFSAIBF 000000000000GV41A037
BI00A32DG    RW1121         202112211801W006943              IVSSH 0.35F W/B          PCN000030000000030000FN00000000020211201000030000NNM21 20211220144854    1W    00000250000000452000000000032DG    BFSAIBF 000000000000GV41A038
BI00A32H8    @2112CIMW      20211221181B32037Y5              AVSSCS 0.3FX1 DGY/W      CCN000002000000002000FN00000000020211201000002000NNE   20211220113917    1W    00000050000001780000000000032H8    TYTYC   000000000000LC11C001
BI00A32H8    @2112CIMW      20211221181B32039Y5              AVSSCS 0.5FX1 DGY/W      CCN000001200000001200FN00000000020211201000001200NNE   20211220113917    1W    00000040000002262000000000032H8    TYTYC   000000000000LC11C003
BI00A32H8    @2112CIMW      20211221181B32039Y6              AVSSCS 0.5FX1 DGY/G      CCN000001200000001200FN00000000020211201000001200NNE   20211220113917    1W    00000040000002262000000000032H8    TYTYC   000000000000LC11C002
BI00B32U5    DW2008         202201211801W003930              IVSSH 0.5F B             CCN000077400000077400FN00000000020220401000077400NNM   20211220101320U5  1W    00000180000000625000000000032U5    ASAMSD  000000000000AM121012
BI00B32U5    DW2008         202201211801W003940              IVSSH 0.5F W             CCN000043200000043200FN00000000020220401000043200NNM   20211220101320U5  1W    00000180000000625000000000032U5    ASAMSD  000000000000AM121019
BI00B32U5    DW2008         202201211801W003941              IVSSH 0.5F GY            CCN000014400000014400FN00000000020220401000014400NNM   20211220101320U5  1W    00000180000000625000000000032U5    ASAMSD  000000000000AM121014
BI00B32U5    DW2008         202201211801W003950              IVSSH 0.5F R             CCN000100800000100800FN00000000020220401000100800NNM   20211220101320U5  1W    00000180000000625000000000032U5    ASAMSD  000000000000AM121017
BI00B32U5    DW2008         202201211801W003952              IVSSH 0.5F P             CCN000018000000018000FN00000000020220401000018000NNM   20211220101320U5  1W    00000180000000625000000000032U5    ASAMSD  000000000000AM121016
BI00B32U5    DW2008         202201211801W003960              IVSSH 0.5F G             CCN000066600000066600FN00000000020220401000066600NNM   20211220101320U5  1W    00000180000000625000000000032U5    ASAMSD  000000000000AM121013
BI00B32U5    DW2008         202201211801W003970              IVSSH 0.5F Y             CCN000005400000005400FN00000000020220401000005400NNM   20211220101320U5  1W    00000180000000625000000000032U5    ASAMSD  000000000000AM121020
BI00B32U5    DW2008         202201211801W003990              IVSSH 0.5F L             CCN000093600000093600FN00000000020220401000093600NNM   20211220101320U5  1W    00000180000000625000000000032U5    ASAMSD  000000000000AM121015
BI00B32U5    DW2008         202201211801W003992              IVSSH 0.5F V             CCN000027000000027000FN00000000020220401000027000NNM   20211220101320U5  1W    00000180000000625000000000032U5    ASAMSD  000000000000AM121018
BI00B32U5    DW2008         202201211801W004030              IVSSH 0.75F B            CCN000013000000013000FN00000000020220401000013000NNM   20211220101320U5  1W    00000130000000882000000000032U5    ASAMSD  000000000000AM121021
BI00B32U5    DW2008         202201211801W004043              IVSSH 0.75F W/B          CCN000006500000006500FN00000000020220401000006500NNM   20211220101320U5  1W    00000130000000882000000000032U5    ASAMSD  000000000000AM121023
BI00B32U5    DW2008         202201211801W004060              IVSSH 0.75F G            CCN000003900000003900FN00000000020220401000003900NNM   20211220101320U5  1W    00000130000000882000000000032U5    ASAMSD  000000000000AM121022
BI00B32U5    DW2008         202201211801W006941              IVSSH 0.35F GY           CCN000015000000015000FN00000000020220401000015000NNM   20211220101320U5  1W    00000250000000452000000000032U5    ASAMSD  000000000000AM121026
BI00B32U5    DW2008         202201211801W006950              IVSSH 0.35F R            CCN000100000000100000FN00000000020220401000100000NNM   20211220101320U5  1W    00000250000000452000000000032U5    ASAMSD  000000000000AM121028
BI00B32U5    DW2008         202201211801W00695U              IVSSH 0.35F BE           CCN000010000000010000FN00000000020220401000010000NNM   20211220101320U5  1W    00000250000000452000000000032U5    ASAMSD  000000000000AM121024
BI00B32U5    DW2008         202201211801W006980              IVSSH 0.35F BR           CCN000040000000040000FN00000000020220401000040000NNM   20211220101320U5  1W    00000250000000452000000000032U5    ASAMSD  000000000000AM121025
BI00B32U5    DW2008         202201211801W006990              IVSSH 0.35F L            CCN000100000000100000FN00000000020220401000100000NNM   20211220101320U5  1W    00000250000000452000000000032U5    ASAMSD  000000000000AM121027
BI00B32U5    @DW2008        20220121181AD2013ZZ              CIVUSAS-S 1.25X2 B       CCN000001100000001100FN00000000020220401000001100NNM   20211220101318U5  1W    00000022000004000000000000032U5    ASAMSD  000000000000AM121009
BI00B32U5    @DW2008        20220121181E48011ZZ              CAVSAS-S 0.3X1 GY/W      CCN000001500000001500FN00000000020220401000001500NNM   20211220101318U5  1W    00000050000001701600000000032U5    ASAMSD  000000000000AM121010
BI00B32U5    @DW2008        20220121181F21027ZZ              AVSSHCS-S 1.25FX2 B      CCN000007600000007600FN00000000020220401000007600NNM   20211220101318U5  1W    00000020000004262000000000032U5    ASAMSD  000000000000AM121011
BI00B32U5    DW2009         202201281801W003930              IVSSH 0.5F B             CCN000106200000106200FN00000000020220401000106200NNM   20211220102505U5  1W    00000180000000625000000000032U5    ASAMSD  000000000000AM221033
BI00B32U5    DW2009         202201281801W003940              IVSSH 0.5F W             CCN000046800000046800FN00000000020220401000046800NNM   20211220102505U5  1W    00000180000000625000000000032U5    ASAMSD  000000000000AM221042
BI00B32U5    DW2009         202201281801W003941              IVSSH 0.5F GY            CCN000012600000012600FN00000000020220401000012600NNM   20211220102505U5  1W    00000180000000625000000000032U5    ASAMSD  000000000000AM221037
BI00B32U5    DW2009         202201281801W003950              IVSSH 0.5F R             CCN000102600000102600FN00000000020220401000102600NNM   20211220102505U5  1W    00000180000000625000000000032U5    ASAMSD  000000000000AM221040
BI00B32U5    DW2009         202201281801W003952              IVSSH 0.5F P             CCN000030600000030600FN00000000020220401000030600NNM   20211220102505U5  1W    00000180000000625000000000032U5    ASAMSD  000000000000AM221039
BI00B32U5    DW2009         202201281801W00395U              IVSSH 0.5F BE            CCN000003600000003600FN00000000020220401000003600NNM   20211220102505U5  1W    00000180000000625000000000032U5    ASAMSD  000000000000AM221034
BI00B32U5    DW2009         202201281801W003960              IVSSH 0.5F G             CCN000075600000075600FN00000000020220401000075600NNM   20211220102505U5  1W    00000180000000625000000000032U5    ASAMSD  000000000000AM221036
BI00B32U5    DW2009         202201281801W003970              IVSSH 0.5F Y             CCN000016200000016200FN00000000020220401000016200NNM   20211220102505U5  1W    00000180000000625000000000032U5    ASAMSD  000000000000AM221043
BI00B32U5    DW2009         202201281801W003980              IVSSH 0.5F BR            CCN000007200000007200FN00000000020220401000007200NNM   20211220102505U5  1W    00000180000000625000000000032U5    ASAMSD  000000000000AM221035
BI00B32U5    DW2009         202201281801W003990              IVSSH 0.5F L             CCN000100800000100800FN00000000020220401000100800NNM   20211220102505U5  1W    00000180000000625000000000032U5    ASAMSD  000000000000AM221038
BI00B32U5    DW2009         202201281801W003992              IVSSH 0.5F V             CCN000025200000025200FN00000000020220401000025200NNM   20211220102505U5  1W    00000180000000625000000000032U5    ASAMSD  000000000000AM221041
BI00B32U5    DW2009         202201281801W004030              IVSSH 0.75F B            CCN000014300000014300FN00000000020220401000014300NNM   20211220102505U5  1W    00000130000000882000000000032U5    ASAMSD  000000000000AM221044
BI00B32U5    DW2009         202201281801W004043              IVSSH 0.75F W/B          CCN000016900000016900FN00000000020220401000016900NNM   20211220102505U5  1W    00000130000000882000000000032U5    ASAMSD  000000000000AM221047
BI00B32U5    DW2009         202201281801W004060              IVSSH 0.75F G            CCN000003900000003900FN00000000020220401000003900NNM   20211220102505U5  1W    00000130000000882000000000032U5    ASAMSD  000000000000AM221045
BI00B32U5    DW2009         202201281801W004090              IVSSH 0.75F L            CCN000006500000006500FN00000000020220401000006500NNM   20211220102505U5  1W    00000130000000882000000000032U5    ASAMSD  000000000000AM221046
BI00B32U5    DW2009         202201281801W006930              IVSSH 0.35F B            CCN000150000000150000FN00000000020220401000150000NNM   20211220102505U5  1W    00000250000000452000000000032U5    ASAMSD  000000000000AM221048
BI00B32U5    DW2009         202201281801W006940              IVSSH 0.35F W            CCN000080000000080000FN00000000020220401000080000NNM   20211220102505U5  1W    00000250000000452000000000032U5    ASAMSD  000000000000AM221059
BI00B32U5    DW2009         202201281801W006941              IVSSH 0.35F GY           CCN000015000000015000FN00000000020220401000015000NNM   20211220102505U5  1W    00000250000000452000000000032U5    ASAMSD  000000000000AM221052
BI00B32U5    DW2009         202201281801W006950              IVSSH 0.35F R            CCN000022500000022500FN00000000020220401000022500NNM   20211220102505U5  1W    00000250000000452000000000032U5    ASAMSD  000000000000AM221056
BI00B32U5    DW2009         202201281801W006952              IVSSH 0.35F P            CCN000060000000060000FN00000000020220401000060000NNM   20211220102505U5  1W    00000250000000452000000000032U5    ASAMSD  000000000000AM221055
BI00B32U5    DW2009         202201281801W00695U              IVSSH 0.35F BE           CCN000005000000005000FN00000000020220401000005000NNM   20211220102505U5  1W    00000250000000452000000000032U5    ASAMSD  000000000000AM221049
BI00B32U5    DW2009         202201281801W006960              IVSSH 0.35F G            CCN000022500000022500FN00000000020220401000022500NNM   20211220102505U5  1W    00000250000000452000000000032U5    ASAMSD  000000000000AM221051
BI00B32U5    DW2009         202201281801W006961              IVSSH 0.35F LG           CCN000040000000040000FN00000000020220401000040000NNM   20211220102505U5  1W    00000250000000452000000000032U5    ASAMSD  000000000000AM221054
BI00B32U5    DW2009         202201281801W006970              IVSSH 0.35F Y            CCN000010000000010000FN00000000020220401000010000NNM   20211220102505U5  1W    00000250000000452000000000032U5    ASAMSD  000000000000AM221060
BI00B32U5    DW2009         202201281801W006980              IVSSH 0.35F BR           CCN000022500000022500FN00000000020220401000022500NNM   20211220102505U5  1W    00000250000000452000000000032U5    ASAMSD  000000000000AM221050
BI00B32U5    DW2009         202201281801W006990              IVSSH 0.35F L            CCN000055000000055000FN00000000020220401000055000NNM   20211220102505U5  1W    00000250000000452000000000032U5    ASAMSD  000000000000AM221053
BI00B32U5    DW2009         202201281801W006991              IVSSH 0.35F SB           CCN000035000000035000FN00000000020220401000035000NNM   20211220102505U5  1W    00000250000000452000000000032U5    ASAMSD  000000000000AM221057
BI00B32U5    DW2009         202201281801W006992              IVSSH 0.35F V            CCN000015000000015000FN00000000020220401000015000NNM   20211220102505U5  1W    00000250000000452000000000032U5    ASAMSD  000000000000AM221058
BI00B32U5    @DW2009        20220128181AD2013ZZ              CIVUSAS-S 1.25X2 B       CCN000001100000001100FN00000000020220401000001100NNM   20211220102503U5  1W    00000022000004000000000000032U5    ASAMSD  000000000000AM221030
BI00B32U5    @DW2009        20220128181E48011ZZ              CAVSAS-S 0.3X1 GY/W      CCN000006000000006000FN00000000020220401000006000NNM   20211220102503U5  1W    00000050000001701600000000032U5    ASAMSD  000000000000AM221031
BI00B32U5    @DW2009        20220128181F21027ZZ              AVSSHCS-S 1.25FX2 B      CCN000007400000007400FN00000000020220401000007400NNM   20211220102503U5  1W    00000020000004262000000000032U5    ASAMSD  000000000000AM221032
BI00A32W2    HN2112BNMW     2021122118000004560              AV 8 G                   CCN000000400000000400FN00000000020211201000000400NNE   20211220113518    1W    00000010000009148000000000032W2    HNHNY   000000000000HC11C002
BI00A32W2    @HN2112BNMW    20211221181B32116Y9              AVSSCS 0.3FX2 DGY/P      CCN000000350000000350FN00000000020211201000000350NNE   20211220113518    1W    00000035000002241000000000032W2    HNHNY   000000000000HC11C001
BI00B32X5    TWB2008        202201211801W004040              IVSSH 0.75F W            CCN000001300000001300FN00000000020220401000001300NNM   20211220105827X5  1W    00000130000000882000000000032X5    EPYNA-E 000000000000AD121005
BI00B32X5    TWB2008        202201211801W004070              IVSSH 0.75F Y            CCN000001300000001300FN00000000020220401000001300NNM   20211220105827X5  1W    00000130000000882000000000032X5    EPYNA-E 000000000000AD121006
BI00B32X5    TWB2008        202201211801W004090              IVSSH 0.75F L            CCN000001300000001300FN00000000020220401000001300NNM   20211220105827X5  1W    00000130000000882000000000032X5    EPYNA-E 000000000000AD121003
BI00B32X5    TWB2008        202201211801W004092              IVSSH 0.75F V            CCN000001300000001300FN00000000020220401000001300NNM   20211220105827X5  1W    00000130000000882000000000032X5    EPYNA-E 000000000000AD121004
BI00B32X5    TWB2008        202201211801W006940              IVSSH 0.35F W            CCN000025000000025000FN00000000020220401000025000NNM   20211220105827X5  1W    00000250000000452000000000032X5    EPYNA-E 000000000000AD121008
BI00B32X5    TWB2008        202201211801W006992              IVSSH 0.35F V            CCN000010000000010000FN00000000020220401000010000NNM   20211220105827X5  1W    00000250000000452000000000032X5    EPYNA-E 000000000000AD121007
BI00B32X5    TWB2009        202201281801W003930              IVSSH 0.5F B             CCN000001800000001800FN00000000020220401000001800NNM   20211220105904X5  1W    00000180000000625000000000032X5    EPYNA-E 000000000000AD221008
BI00B32X5    TWB2009        202201281801W004030              IVSSH 0.75F B            CCN000001300000001300FN00000000020220401000001300NNM   20211220105904X5  1W    00000130000000882000000000032X5    EPYNA-E 000000000000AD221009
BI00B32X5    TWB2009        202201281801W004040              IVSSH 0.75F W            CCN000001300000001300FN00000000020220401000001300NNM   20211220105904X5  1W    00000130000000882000000000032X5    EPYNA-E 000000000000AD221014
BI00B32X5    TWB2009        202201281801W004052              IVSSH 0.75F P            CCN000001300000001300FN00000000020220401000001300NNM   20211220105904X5  1W    00000130000000882000000000032X5    EPYNA-E 000000000000AD221012
BI00B32X5    TWB2009        202201281801W004060              IVSSH 0.75F G            CCN000001300000001300FN00000000020220401000001300NNM   20211220105904X5  1W    00000130000000882000000000032X5    EPYNA-E 000000000000AD221010
BI00B32X5    TWB2009        202201281801W004070              IVSSH 0.75F Y            CCN000002600000002600FN00000000020220401000002600NNM   20211220105904X5  1W    00000130000000882000000000032X5    EPYNA-E 000000000000AD221015
BI00B32X5    TWB2009        202201281801W004090              IVSSH 0.75F L            CCN000001300000001300FN00000000020220401000001300NNM   20211220105904X5  1W    00000130000000882000000000032X5    EPYNA-E 000000000000AD221011
BI00B32X5    TWB2009        202201281801W004092              IVSSH 0.75F V            CCN000001300000001300FN00000000020220401000001300NNM   20211220105904X5  1W    00000130000000882000000000032X5    EPYNA-E 000000000000AD221013
BI00B32X5    TWB2009        202201281801W006940              IVSSH 0.35F W            CCN000025000000025000FN00000000020220401000025000NNM   20211220105904X5  1W    00000250000000452000000000032X5    EPYNA-E 000000000000AD221016
