BI00B1200    7504T220323    202204087340-9416-0W             J/B ASS'Y                CCN000000040000000040FN00000000020220401000000040NNED0720220407121428    4J0J  0000000100000054860000073401200    YCYC    005400370024
BI00B1200    7504T220323    202204087340-9147-0W             J/B ASS'Y                CCN000000020000000020FN00000000020220401000000020NNED0720220407121428    4J0J  0000000100000053400000071831200    YCYC    005400370024
BI00B1200    7360T52408     202204287289-5979-30             HOUSING FEMALE ASS'Y     CCN000000252000000252FN00000000020220501000000252NNE   20220407121428    1N0N  0000002520000085470000106471200    YCYC    005400370024
BI00B32A7    #ZZ22052LMW    202204207158-3008-80             RUBBER STOPPER           CCN000020000000020000FN00000000020220501000020000NNMD0420220407142058    2C0C  00002000000000288000000343032A7    ZZZZY   004300270014
BI00B32BG    YY2205ACMW     202204217196-0805-02             TERMINAL FEMALE          CCN000022500000000000FY00000000020220501000000000NNEQ0820220407144038    4P0P  00002250000000558000000843232BG    YGYYA   006400630015
BI00B32BG    YY2205ACMW     202204217283-1928-80             CONNECTOR                CCN000004000000000000FY00000000020220501000000000NNEQ0820220407144038    4N0N  00000200000001180000001358332BG    YGYYA   005500360039
BI00B32BG    YY2205ACMW     202204217327-6731-3W             BATTERY FUSE             CCN000002496000000000FY00000000020220501000000000NNEQ0820220407144038    4N0N  00000006400000697600000843032BG    YGYYA   005400370024
BI00B32BG    YY2205ACMW     202204217388-2978-30             HOUSING MALE ASS'Y       CCN000005280000000000FY00000000020220501000000000NNEQ0820220407144038    1N0N  00000048000000742000001122032BG    YGYYA   005500360039
BI00B32CH    SJ22062 MW     202205127114-4020                TERMINAL                 CCN000021000000021000FN00000000020220601000021000NNM   20220407155447    4P0P  00002100000000875700001169332CH    SJSAMIJF006400630015
BI00B32CH    SJ22063 MW     202205197114-4020                TERMINAL                 CCN000042000000042000FN00000000020220601000042000NNM   20220407155447    4P0P  00002100000000875700001169332CH    SJSAMIJF006400630015
BI00B32CH    SJ22064 MW     202205267114-4020                TERMINAL                 CCN000021000000021000FN00000000020220601000021000NNM   20220407155447    4P0P  00002100000000875700001169332CH    SJSAMIJF006400630015
BI00B32CH    SJ22063 MW     202205197114-4030                TERMINAL                 CCN000021000000021000FN00000000020220601000021000NNM   20220407155447    4P0P  00001050000000926100001254732CH    SJSAMIJF006400630017
BI00B32CH    SJ22062 MW     202205127114-4032                TERMINAL                 CCN000007500000007500FN00000000020220601000007500NNM   20220407155447    4P0P  00000750000000735000001063632CH    SJSAMIJF006400630017
BI00B32CH    SJ22063 MW     202205197114-4032                TERMINAL                 CCN000015000000015000FN00000000020220601000015000NNM   20220407155447    4P0P  00000750000000735000001063632CH    SJSAMIJF006400630017
BI00B32CH    SJ22064 MW     202205267114-4032                TERMINAL                 CCN000007500000007500FN00000000020220601000007500NNM   20220407155447    4P0P  00000750000000735000001063632CH    SJSAMIJF006400630017
BI00B32CH    SJ22062 MW     202205127114-4728-02             TERMINAL                 CCN000030000000030000FN00000000020220601000030000NNM   20220407155447    4P0P  00003000000000510000000804232CH    SJSAMIJF006400630015
BI00B32CH    SJ22063 MW     202205197114-4728-02             TERMINAL                 CCN000090000000090000FN00000000020220601000090000NNM   20220407155447    4P0P  00003000000000510000000804232CH    SJSAMIJF006400630015
BI00B32CH    SJ22064 MW     202205267114-4728-02             TERMINAL                 CCN000090000000090000FN00000000020220601000090000NNM   20220407155447    4P0P  00003000000000510000000804232CH    SJSAMIJF006400630015
BI00B32CH    SJ22063 MW     202205197114-4729-02             TERMINAL                 CCN000024000000030000FN00000000020220601000030000NNM   20220407155447    4P0P  00003000000000516000000810232CH    SJSAMIJF006400630015
BI00B32CH    SJ22062 MW     202205127114-5746-02             TERMINAL                 CCN000021000000021000FN00000000020220601000021000NNM   20220407155447    4P0P  00002100000000695100000988732CH    SJSAMIJF006400630015
BI00B32CH    SJ22063 MW     202205197114-5746-02             TERMINAL                 CCN000021000000021000FN00000000020220601000021000NNM   20220407155447    4P0P  00002100000000695100000988732CH    SJSAMIJF006400630015
BI00B32CH    SJ22062 MW     202205127114-5747-02             TERMINAL                 CCN000018000000018000FN00000000020220601000018000NNM   20220407155447    4P0P  00001800000000626400000920032CH    SJSAMIJF006400630015
BI00B32CH    SJ22063 MW     202205197114-5747-02             TERMINAL                 CCN000054000000054000FN00000000020220601000054000NNM   20220407155447    4P0P  00001800000000626400000920032CH    SJSAMIJF006400630015
BI00B32CH    SJ22064 MW     202205267114-5747-02             TERMINAL                 CCN000036000000036000FN00000000020220601000036000NNM   20220407155447    4P0P  00001800000000626400000920032CH    SJSAMIJF006400630015
BI00B32CH    SJ22063 MW     202205197116-2640                TERMINAL                 CCN000018000000018000FN00000000020220601000018000NNM   20220407155447    4P0P  00001800000001018800001196632CH    SJSAMIJF005100280028
BI00B32CH    SJ22064 MW     202205267116-2641                TERMINAL                 CCN000018000000018000FN00000000020220601000018000NNM   20220407155447    4P0P  00001800000001161000001344632CH    SJSAMIJF005100280028
BI00B32CH    SJ22063 MW     202205197116-4028-08             TERMINAL FEMALE          CCN000080000000080000FN00000000020220601000080000NNM   20220407155447    4P0P  00001600000000652800000981532CH    SJSAMIJF006400630017
BI00B32CH    SJ22064 MW     202205267116-4028-08             TERMINAL FEMALE          CCN000080000000080000FN00000000020220601000080000NNM   20220407155447    4P0P  00001600000000652800000981532CH    SJSAMIJF006400630017
BI00B32CH    SJ22064 MW     202205267116-4031                TERMINAL                 CCN000007500000007500FN00000000020220601000007500NNM   20220407155447    4P0P  00000750000000619500000904732CH    SJSAMIJF006400630015
BI00B32CH    SJ22064 MW     202205267116-4032                TERMINAL                 CCN000048000000048000FN00000000020220601000048000NNM   20220407155447    4P0P  00000600000000532800000818032CH    SJSAMIJF006400630015
BI00B32CH    SJ22064 MW     202205267116-4231-02             TERMINAL                 CCN000052000000052000FN00000000020220601000052000NNM   20220407155447    4P0P  00002600000000683800001012532CH    SJSAMIJF006400630017
BI00B32CH    SJ22064 MW     202205267116-4486-02             TERMINAL                 CCN000084000000084000FN00000000020220601000084000NNM   20220407155447    4P0P  00002800000000666400000995132CH    SJSAMIJF006400630017
BI00B32CH    SJ22062 MW     202205127116-5041-02             TERMINAL                 CCN000195000000195000FN00000000020220601000195000NNM   20220407155447    4P0P  00001500000000583500000868732CH    SJSAMIJF006400630015
BI00B32CH    SJ22063 MW     202205197116-5041-02             TERMINAL                 CCN000240000000240000FN00000000020220601000240000NNM   20220407155447    4P0P  00001500000000583500000868732CH    SJSAMIJF006400630015
BI00B32CH    SJ22064 MW     202205267116-5041-02             TERMINAL                 CCN000210000000210000FN00000000020220601000210000NNM   20220407155447    4P0P  00001500000000583500000868732CH    SJSAMIJF006400630015
BI00B32CH    SJ22062 MW     202205127116-5042-02             TERMINAL                 CCN000148500000148500FN00000000020220601000148500NNM   20220407155447    4P0P  00001350000000560300000845532CH    SJSAMIJF006400630015
BI00B32CH    SJ22063 MW     202205197116-5042-02             TERMINAL                 CCN000175500000175500FN00000000020220601000175500NNM   20220407155447    4P0P  00001350000000560300000845532CH    SJSAMIJF006400630015
BI00B32CH    SJ22064 MW     202205267116-5042-02             TERMINAL                 CCN000189000000189000FN00000000020220601000189000NNM   20220407155447    4P0P  00001350000000560300000845532CH    SJSAMIJF006400630015
BI00B32CH    SJ22064 MW     202205267116-5043-02             TERMINAL FEMALE          CCN000060000000060000FN00000000020220601000060000NNM   20220407155447    4P0P  00001200000000559200000844432CH    SJSAMIJF006400630015
BI00B32CH    SJ22063 MW     202205197116-5044-02             TERMINAL                 CCN000176000000176000FN00000000020220601000176000NNM   20220407155447    4P0P  00001600000000641600000986332CH    SJSAMIJF006400630017
BI00B32CH    SJ22064 MW     202205267116-5044-02             TERMINAL                 CCN000368000000368000FN00000000020220601000368000NNM   20220407155447    4P0P  00001600000000641600000986332CH    SJSAMIJF006400630017
BI00B32CH    SJ22063 MW     202205197116-5045-02             TERMINAL                 CCN000208000000208000FN00000000020220601000208000NNM   20220407155447    4P0P  00001600000000678400001007132CH    SJSAMIJF006400630017
BI00B32CH    SJ22064 MW     202205267116-5045-02             TERMINAL                 CCN000240000000240000FN00000000020220601000240000NNM   20220407155447    4P0P  00001600000000678400001007132CH    SJSAMIJF006400630017
BI00B32CH    SJ22064 MW     202205267116-5046-02             TERMINAL                 CCN000012000000012000FN00000000020220601000012000NNM   20220407155447    4P0P  00001200000000544800000873532CH    SJSAMIJF006400630017
BI00B32CH    SJ22061 MW     202205057116-5750-02             TERMINAL                 CCN000045000000045000FN00000000020220601000045000NNM   20220407155447    4P0P  00001500000000457500000742732CH    SJSAMIJF006400630015
BI00B32CH    SJ22062 MW     202205127116-5750-02             TERMINAL                 CCN000360000000360000FN00000000020220601000360000NNM   20220407155447    4P0P  00001500000000457500000742732CH    SJSAMIJF006400630015
BI00B32CH    SJ22063 MW     202205197116-5750-02             TERMINAL                 CCN000465000000465000FN00000000020220601000465000NNM   20220407155447    4P0P  00001500000000457500000742732CH    SJSAMIJF006400630015
BI00B32CH    SJ22064 MW     202205267116-5750-02             TERMINAL                 CCN000465000000465000FN00000000020220601000465000NNM   20220407155447    4P0P  00001500000000457500000742732CH    SJSAMIJF006400630015
BI00B32CH    SJ22061 MW     202205057116-5752-02             TERMINAL                 CCN000021000000021000FN00000000020220601000021000NNM   20220407155447    4P0P  00002100000000571200000856432CH    SJSAMIJF006400630015
BI00B32CH    SJ22062 MW     202205127116-5752-02             TERMINAL                 CCN000063000000063000FN00000000020220601000063000NNM   20220407155447    4P0P  00002100000000571200000856432CH    SJSAMIJF006400630015
BI00B32CH    SJ22063 MW     202205197116-5752-02             TERMINAL                 CCN000063000000063000FN00000000020220601000063000NNM   20220407155447    4P0P  00002100000000571200000856432CH    SJSAMIJF006400630015
BI00B32CH    SJ22064 MW     202205267116-5752-02             TERMINAL                 CCN000084000000084000FN00000000020220601000084000NNM   20220407155447    4P0P  00002100000000571200000856432CH    SJSAMIJF006400630015
BI00B32CH    SJ22064 MW     202205267126-8853-02             TERMINAL                 CCN000105000000105000FN00000000020220601000105000NNM   20220407155447    4P0P  00000750000000562500000847732CH    SJSAMIJF006400630015
BI00B32CH    SJ22063 MW     202205197158-3006-90             RUBBER STOPPER           CCN000300000000300000FN00000000020220601000300000NNM   20220407155447    1C0C  00002000000000330600000386032CH    SJSAMIJF002700430014
BI00B32CH    SJ22064 MW     202205267158-3006-90             RUBBER STOPPER           CCN000320000000320000FN00000000020220601000320000NNM   20220407155447    1C0C  00002000000000330600000386032CH    SJSAMIJF002700430014
BI00B32CH    SJ22063 MW     202205197158-3009-60             RUBBER STOPPER           CCN000040000000040000FN00000000020220601000040000NNM   20220407155447    1C0C  00002000000000338000000386232CH    SJSAMIJF002700430014
BI00B32CH    SJ22064 MW     202205267158-3009-60             RUBBER STOPPER           CCN000280000000280000FN00000000020220601000280000NNM   20220407155447    1C0C  00002000000000338000000386232CH    SJSAMIJF002700430014
BI00B32CH    SJ22063 MW     202205197172-5540-80             SEALED WIRE SEAL         CCN000020000000020000FN00000000020220601000020000NNM   20220407155447    1C0C  00002000000000186000000234432CH    SJSAMIJF004300270014
BI00B32CH    SJ22064 MW     202205267196-0805-02             TERMINAL FEMALE          CCN000022500000022500FN00000000020220601000022500NNM   20220407155447    4P0P  00002250000000558000000843232CH    SJSAMIJF006400630015
BI00B32CH    SJ22063 MW     202205197388-0315-40             CONNECTOR ASS'Y          CCN000002400000002400FN00000000020220601000002400NNM   20220407155447    4N0N  00000120000000999600001129632CH    SJSAMIJF005400370024
BI00B32CH    SJ22064 MW     202205267388-0315-40             CONNECTOR ASS'Y          CCN000003600000003600FN00000000020220601000003600NNM   20220407155447    4N0N  00000120000000999600001129632CH    SJSAMIJF005400370024
BI00B32CH    #SJ22063 MW    202205197157-3950-80             SEAL RUBBER              CCN000040000000040000FN00000000020220601000040000NNM   20220407155442    2C0C  00004000000000154000000440332CH    SJSAMIJF002700430014
BI00B32CH    #SJ22062 MW    202205127158-3003-90             RUBBER STOPPER           CCN000080000000080000FN00000000020220601000080000NNM   20220407155442    2C0C  00002000000000250000000306032CH    SJSAMIJF002700430014
BI00B32CH    #SJ22063 MW    202205197158-3003-90             RUBBER STOPPER           CCN000100000000100000FN00000000020220601000100000NNM   20220407155442    2C0C  00002000000000250000000306032CH    SJSAMIJF002700430014
BI00B32CH    #SJ22064 MW    202205267158-3003-90             RUBBER STOPPER           CCN000080000000080000FN00000000020220601000080000NNM   20220407155442    2C0C  00002000000000250000000306032CH    SJSAMIJF002700430014
BI00B32CH    #SJ22063 MW    202205197158-3007-10             RUBBER STOPPER           CCN000020000000020000FN00000000020220601000020000NNM   20220407155442    2H0H  00002000000000308000000362732CH    SJSAMIJF002700430014
BI00B32CH    #SJ22064 MW    202205267158-3007-10             RUBBER STOPPER           CCN000020000000020000FN00000000020220601000020000NNM   20220407155442    2H0H  00002000000000308000000362732CH    SJSAMIJF002700430014
BI00B32CH    #SJ22062 MW    202205127183-1615                HOUSING                  CCN000004800000004800FN00000000020220601000004800NNM   20220407155442    2F0F  00000480000000757000001042032CH    SJSAMIJF005500360039
BI00B32CH    #SJ22063 MW    202205197183-1615                HOUSING                  CCN000004800000004800FN00000000020220601000004800NNM   20220407155442    2F0F  00000480000000757000001042032CH    SJSAMIJF005500360039
BI00B32CH    #SJ22064 MW    202205267183-1615                HOUSING                  CCN000004800000004800FN00000000020220601000004800NNM   20220407155442    2F0F  00000480000000757000001042032CH    SJSAMIJF005500360039
BI00B32CH    #SJ22061 MW    202205057183-2414                CONNECTOR HOUSING        CCN000004800000004800FN00000000020220601000004800NNM   20220407155442    2F0F  00000480000000779200001061032CH    SJSAMIJF005500360039
BI00B32CH    #SJ22062 MW    202205127183-2414                CONNECTOR HOUSING        CCN000024000000024000FN00000000020220601000024000NNM   20220407155442    2F0F  00000480000000779200001061032CH    SJSAMIJF005500360039
BI00B32CH    #SJ22063 MW    202205197183-2414                CONNECTOR HOUSING        CCN000028800000028800FN00000000020220601000028800NNM   20220407155442    2F0F  00000480000000779200001061032CH    SJSAMIJF005500360039
BI00B32CH    #SJ22064 MW    202205267183-2414                CONNECTOR HOUSING        CCN000028800000028800FN00000000020220601000028800NNM   20220407155442    2F0F  00000480000000779200001061032CH    SJSAMIJF005500360039
BI00B32CH    @SJ22064 MW    202205267123-2825                HOUSING                  CCN000012000000012000FN00000000020220601000012000NNM   20220407155445    3F0F  00000600000000958800001136432CH    SJSAMIJF005500360039
BI00B32CH    @SJ22062 MW    202205127282-1025                HOUSING SUB ASSEMBLY     CCN000002400000002400FN00000000020220601000002400NNM   20220407155445    3N0N  00000240000001143800001390032CH    SJSAMIJF005500360039
BI00B32CH    SJ22062DMW     202205127114-4624-02             TERMINAL                 CCN000024000000024000FN00000000020220601000024000NNM   20220407155508    4P0P  00002400000000895200001188832CH    SJSAMIJF006400630015
BI00B32CH    SJ22063DMW     202205197116-5751-02             TERMINAL                 CCN000012000000012000FN00000000020220601000012000NNM   20220407155508    4P0P  00001200000000379200000664432CH    SJSAMIJF006400630015
BI00B32CH    SJ22064DMW     202205267116-5751-02             TERMINAL                 CCN000024000000024000FN00000000020220601000024000NNM   20220407155508    4P0P  00001200000000379200000664432CH    SJSAMIJF006400630015
BI00B32CH    SJ22062DMW     202205127286-4097                CONNECTOR MALE ASS'Y     CCN000001600000001600FN00000000020220601000001600NNM   20220407155508    1N0N  00000160000000768000000978032CH    SJSAMIJF005500360039
BI00B32CH    SJ22063DMW     202205197286-4097                CONNECTOR MALE ASS'Y     CCN000001600000001600FN00000000020220601000001600NNM   20220407155508    1N0N  00000160000000768000000978032CH    SJSAMIJF005500360039
BI00B32CH    SJ22064DMW     202205267286-4097                CONNECTOR MALE ASS'Y     CCN000001600000001600FN00000000020220601000001600NNM   20220407155508    1N0N  00000160000000768000000978032CH    SJSAMIJF005500360039
BI00B32CH    SJ22061DMW     202205057287-3885-30             HYBRID FEMALE ASS'Y      CCN000014400000014400FN00000000020220601000014400NNMD0020220407155550    1N0N  00000240000001029600001249632CH    SJSAMIJF005500360039
BI00B32CH    SJ22062DMW     202205127287-3885-30             HYBRID FEMALE ASS'Y      CCN000016800000016800FN00000000020220601000016800NNM   20220407155508    1N0N  00000240000001029600001249632CH    SJSAMIJF005500360039
BI00B32CH    SJ22063DMW     202205197287-3885-30             HYBRID FEMALE ASS'Y      CCN000024000000024000FN00000000020220601000024000NNM   20220407155508    1N0N  00000240000001029600001249632CH    SJSAMIJF005500360039
BI00B32CH    SJ22064DMW     202205267287-3885-30             HYBRID FEMALE ASS'Y      CCN000026400000026400FN00000000020220601000026400NNM   20220407155508    1N0N  00000240000001029600001249632CH    SJSAMIJF005500360039
BI00B32CH    #SJ22062DMW    202205127183-0522                HOUSING                  CCN000002400000002400FN00000000020220601000002400NNM   20220407155506    2F0F  00000240000000951000001230032CH    SJSAMIJF005500360039
BI00B32CH    #SJ22063DMW    202205197183-0522                HOUSING                  CCN000004800000004800FN00000000020220601000004800NNM   20220407155506    2F0F  00000240000000951000001230032CH    SJSAMIJF005500360039
BI00B32CH    #SJ22064DMW    202205267183-0522                HOUSING                  CCN000002400000002400FN00000000020220601000002400NNM   20220407155506    2F0F  00000240000000951000001230032CH    SJSAMIJF005500360039
BI00B32CH    #SJ22062DMW    202205127183-2413                CONNECTOR HOUSING        CCN000009600000009600FN00000000020220601000009600NNM   20220407155506    2F0F  00000480000000478100000760032CH    SJSAMIJF005500360039
BI00B32CH    #SJ22063DMW    202205197183-2413                CONNECTOR HOUSING        CCN000014400000014400FN00000000020220601000014400NNM   20220407155506    2F0F  00000480000000478100000760032CH    SJSAMIJF005500360039
BI00B32CH    #SJ22064DMW    202205267183-2413                CONNECTOR HOUSING        CCN000009600000009600FN00000000020220601000009600NNM   20220407155506    2F0F  00000480000000478100000760032CH    SJSAMIJF005500360039
BI00B32CH    #SJ22064DMW    202205267183-2415                CONNECTOR HOUSING        CCN000004800000004800FN00000000020220601000004800NNM   20220407155506    2F0F  00000480000000798200001091432CH    SJSAMIJF005500360039
BI00B32CH    #SJ22063DMW    202205197183-6320                HOUSING                  CCN000004800000004800FN00000000020220601000004800NNM   20220407155506    2F0F  00000480000000820800001103632CH    SJSAMIJF005500360039
BI00B32CH    #SJ22063DMW    202205197189-3031                HOUSING FEMALE           CCN000002400000002400FN00000000020220601000002400NNM   20220407155506    2F0F  00000240000000928800001365832CH    SJSAMIJF005500360039
BI00B32CH    #SJ22064DMW    202205267189-3031                HOUSING FEMALE           CCN000002400000002400FN00000000020220601000002400NNM   20220407155506    2F0F  00000240000000928800001365832CH    SJSAMIJF005500360039
BI00B32CH    #SJ22063DMW    202205197283-8730-30             HOUSING FEMALE ASS'Y     CCN000002000000002000FN00000000020220601000002000NNM   20220407155506    2N0N  00000200000000794000000906532CH    SJSAMIJF005400370024
BI00B32CH    #SJ22064DMW    202205267283-8730-30             HOUSING FEMALE ASS'Y     CCN000002000000002000FN00000000020220601000002000NNM   20220407155506    2N0N  00000200000000794000000906532CH    SJSAMIJF005400370024
BI00B32CH    #SJ22062DMW    202205127289-2912-30             HOUSING FEMALE ASS'Y     CCN000002000000002000FN00000000020220601000002000NNM   20220407155506    2N0N  00000200000000804000000929032CH    SJSAMIJF005400370024
BI00B32CH    #SJ22063DMW    202205197289-2912-30             HOUSING FEMALE ASS'Y     CCN000002000000002000FN00000000020220601000002000NNM   20220407155506    2N0N  00000200000000804000000929032CH    SJSAMIJF005400370024
BI00B32CH    #SJ22064DMW    202205267289-2912-30             HOUSING FEMALE ASS'Y     CCN000004000000004000FN00000000020220601000004000NNM   20220407155506    2N0N  00000200000000804000000929032CH    SJSAMIJF005400370024
BI00B32CH    #SJ22062DMW    202205127289-2913-30             HOUSING FEMALE ASS'Y     CCN000001500000001500FN00000000020220601000001500NNM   20220407155506    2N0N  00000150000000907500001034532CH    SJSAMIJF005400370024
BI00B32CH    #SJ22063DMW    202205197289-2913-30             HOUSING FEMALE ASS'Y     CCN000003000000003000FN00000000020220601000003000NNM   20220407155506    2N0N  00000150000000907500001034532CH    SJSAMIJF005400370024
BI00B32CH    #SJ22064DMW    202205267289-2913-30             HOUSING FEMALE ASS'Y     CCN000003000000003000FN00000000020220601000003000NNM   20220407155506    2N0N  00000150000000907500001034532CH    SJSAMIJF005400370024
BI00B32CH    #SJ22062DMW    202205127289-2918-40             HOUSING FEMALE ASS'Y     CCN000002000000002000FN00000000020220601000002000NNM   20220407155506    2N0N  00000100000001020000001147032CH    SJSAMIJF005400370024
BI00B32CH    #SJ22063DMW    202205197289-2918-40             HOUSING FEMALE ASS'Y     CCN000005000000005000FN00000000020220601000005000NNM   20220407155506    2N0N  00000100000001020000001147032CH    SJSAMIJF005400370024
BI00B32CH    #SJ22064DMW    202205267289-2918-40             HOUSING FEMALE ASS'Y     CCN000003000000003000FN00000000020220601000003000NNM   20220407155506    2N0N  00000100000001020000001147032CH    SJSAMIJF005400370024
BI00B32CH    SJ22062HMW     202205127327-6834-80             MAIN FUSE                CCN000001800000001800FN00000000020220601000001800NNM   20220407155634    4N0N  00000060000000736800000938332CH    SJSAMIJF005400370024
BI00B32CH    SJ22063HMW     202205197327-6834-80             MAIN FUSE                CCN000002400000002400FN00000000020220601000002400NNM   20220407155634    4N0N  00000060000000736800000938332CH    SJSAMIJF005400370024
BI00B32CH    SJ22064HMW     202205267327-6834-80             MAIN FUSE                CCN000001800000001800FN00000000020220601000001800NNM   20220407155634    4N0N  00000060000000736800000938332CH    SJSAMIJF005400370024
BI00B32CH    SJ22063HMW     202205197327-6872-30             MULTI FUSE               CCN000002016000002016FN00000000020220601000002016NNM   20220407155634    4N0N  00000028800000984500001150432CH    SJSAMIJF005400370024
BI00B32CH    SJ22064HMW     202205267327-6872-30             MULTI FUSE               CCN000002304000002304FN00000000020220601000002304NNM   20220407155634    4N0N  00000028800000984500001150432CH    SJSAMIJF005400370024
BI00B32CH    SJ22063HMW     202205197327-6876-30             MULTI FUSE               CCN000001728000001728FN00000000020220601000001728NNM   20220407155634    4N0N  00000028800001016400001182332CH    SJSAMIJF005400370024
BI00B32CH    SJ22064HMW     202205267327-6876-30             MULTI FUSE               CCN000002016000002016FN00000000020220601000002016NNM   20220407155634    4N0N  00000028800001016400001182332CH    SJSAMIJF005400370024
BI00B32CH    SJ22063HMW     202205197327-6878-30             MULTI FUSE               CCN000002016000002016FN00000000020220601000002016NNM   20220407155634    4N0N  00000028800000989700001155632CH    SJSAMIJF005400370024
BI00B32CH    SJ22064HMW     202205267327-6878-30             MULTI FUSE               CCN000002304000002304FN00000000020220601000002304NNM   20220407155634    4N0N  00000028800000989700001155632CH    SJSAMIJF005400370024
BI00B32CH    SJ22063HMW     202205197327-6882-30             MULTI FUSE               CCN000001440000001440FN00000000020220601000001440NNM   20220407155634    4N0N  00000028800001015900001181832CH    SJSAMIJF005400370024
BI00B32CH    SJ22064HMW     202205267327-6882-30             MULTI FUSE               CCN000002304000002304FN00000000020220601000002304NNM   20220407155634    4N0N  00000028800001015900001181832CH    SJSAMIJF005400370024
BI00B32CH    SJ22061HMW     202205057327-6937-30             MULTI FUSE               CCN000000864000000864FN00000000020220601000000864NNM   20220407155634    4N0N  00000028800001013600001179532CH    SJSAMIJF005400370024
BI00B32CH    SJ22064HMW     202205267327-6939-30             MULTI FUSE               CCN000000288000000288FN00000000020220601000000288NNM   20220407155634    4N00  00000028800000992200001158132CH    SJSAMIJF005400370024
BI00B32CH    SJ22063HMW     202205197388-0313-30             CONNECTOR ASS'Y          CCN000010800000010800FN00000000020220601000010800NNM   20220407155634    4N0N  00000120000000995000001125032CH    SJSAMIJF005400370024
BI00B32CH    SJ22064HMW     202205267388-0313-30             CONNECTOR ASS'Y          CCN000012000000012000FN00000000020220601000012000NNM   20220407155634    4N0N  00000120000000995000001125032CH    SJSAMIJF005400370024
BI00B32CH    SJ22062MMW     202205127116-4114-02             TERMINAL                 CCN000010500000010500FN00000000020220601000010500NNM   20220407155700    4P0P  00001050000000693000000981232CH    SJSAMIJF006400630015
BI00B32CH    SJ22063MMW     202205197116-4115-02             TERMINAL                 CCN000008400000008400FN00000000020220601000008400NNM   20220407155700    4P0P  00000840000000593000000881232CH    SJSAMIJF006400630015
BI00B32CH    SJ22063MMW     202205197116-4116-02             TERMINAL                 CCN000006900000006900FN00000000020220601000006900NNM   20220407155700    4P0P  00000690000000517500000805732CH    SJSAMIJF006400630015
BI00B32CH    #SJ22063MMW    202205197283-8123                CONNECTOR HOUSING        CCN000004000000004000FN00000000020220601000004000NNM   20220407155657    2N0N  00000400000000380000000531732CH    SJSAMIJF005600390023
BI00B32CH    @SJ22063MMW    202205197183-8049                CONNECTOR HOUSING        CCN000004000000004000FN00000000020220601000004000NNM   20220407155658    3F0F  00000400000000583600000740032CH    SJSAMIJF005400370024
BI00B32CH    SJ22064SMW     202205267288-3340-30             HOUSING MALE             CCN000006000000006000FN00000000020220601000006000NNM   20220407155725    4N0N  00000150000000861500001006432CH    SJSAMIJF005400370024
BI00B32CH    SJ22063SMW     202205197289-3342-30             HOUSING FEMALE ASS'Y     CCN000002400000002400FN00000000020220601000002400NNM   20220407155725    1N0N  00000240000000686400000901432CH    SJSAMIJF005500360039
BI00B32CH    SJ22064SMW     202205267289-3342-30             HOUSING FEMALE ASS'Y     CCN000007200000007200FN00000000020220601000007200NNM   20220407155725    1N0N  00000240000000686400000901432CH    SJSAMIJF005500360039
BI00B32CH    #SJ22064SMW    202205267158-3120-90             CONNECTOR WIRE SEAL      CCN000020000000020000FN00000000020220601000020000NNM   20220407155723    2C0C  00002000000000136000000194032CH    SJSAMIJF002700430014
BI00A32D1    DFTC2226A      202204227196-1933-02             TERMINAL FEMALE          CCN000021000000021000FN00000000020220401000021000NNED0720220407121428    4P0P  00002100000000590100000875332D1    TOYOT-K 006400630015
BI00A32D1    DFTC2226A      202204227196-1936-02             TERMINAL FEMALE          CCN000013500000013500FN00000000020220401000013500NNED0720220407121428    4P0P  00001350000000441500000726732D1    TOYOT-K 006400630015
BI00A32D1    DFTC2226A      202204227196-1944-02             TERMINAL FEMALE          CCN000012000000012000FN00000000020220401000012000NNED0720220407121428    4P0P  00001200000000501600000786832D1    TOYOT-K 006400630015
BI00A32D1    #DFTC2226A     202204227198-4979-30             HOUSING FEMALE           CCN000004000000004000FN00000000020220401000004000NNED0720220407121428    2F0F  00000400000000707200000876032D1    TOYOT-K 005400370024
BI00B32D1    DFTC2227       202205127017-1180-02             TERMINAL                 CCN000072000000072000FN00000000020220701000072000NNM   20220407121428    4P0P  00007200000001065600001229032D1    TOYOT-K 005100280028
BI00B32D1    DFTC2227       202205127114-4032                TERMINAL                 CCN000007500000007500FN00000000020220701000007500NNM   20220407121428    4P0P  00000750000000735000001063632D1    TOYOT-K 006400630017
BI00B32D1    DFTC2227       202205127114-4624-02             TERMINAL                 CCN000024000000024000FN00000000020220701000024000NNM   20220407121428    4P0P  00002400000000895200001188832D1    TOYOT-K 006400630015
BI00B32D1    DFTC2227       202205127114-5748-02             TERMINAL                 CCN000096000000096000FN00000000020220701000096000NNM   20220407121428    4P0P  00001200000000444000000737632D1    TOYOT-K 006400630015
BI00B32D1    DFTC2227       202205127114-5753-02             TERMINAL                 CCN000216000000216000FN00000000020220701000216000NNM   20220407121428    4P0P  00002700000000847800001141432D1    TOYOT-K 006400630015
BI00B32D1    DFTC2227       202205127116-1685-02             TERMINAL                 CCN000024000000024000FN00000000020220701000024000NNM   20220407121428    4P0P  00002400000000897600001065232D1    TOYOT-K 005100280028
BI00B32D1    DFTC2227       202205127116-2891-02             TERMINAL                 CCN000075000000075000FN00000000020220701000075000NNM   20220407121428    4P0P  00001500000000982500001145932D1    TOYOT-K 005100280028
BI00B32D1    DFTC2227       202205127116-4486-02             TERMINAL                 CCN000140000000140000FN00000000020220701000140000NNM   20220407121428    4P0P  00002800000000666400000995132D1    TOYOT-K 006400630017
BI00B32D1    DFTC2227       202205127116-5045-02             TERMINAL                 CCN000144000000144000FN00000000020220701000144000NNM   20220407121428    4P0P  00001600000000678400001007132D1    TOYOT-K 006400630017
BI00B32D1    DFTC2227       202205127126-8853-02             TERMINAL                 CCN000090000000090000FN00000000020220701000090000NNM   20220407121428    4P0P  00000750000000562500000847732D1    TOYOT-K 006400630015
BI00B32D1    DFTC2227       202205127126-8854-02             TERMINAL                 CCN000037500000037500FN00000000020220701000037500NNM   20220407121428    4P0P  00000750000000604500000889732D1    TOYOT-K 006400630015
BI00B32D1    DFTC2227       202205127126-8855-02             TERMINAL                 CCN000096000000096000FN00000000020220701000096000NNM   20220407121428    4P0P  00000600000000510600000795832D1    TOYOT-K 006400630015
BI00B32D1    DFTC2227       202205127158-3070-80             RUBBER STOPPER           CCN000040000000040000FN00000000020220701000040000NNM   20220407121428    1C0C  00004000000000276000000333332D1    TOYOT-K 002700430014
BI00B32D1    DFTC2227       202205127196-0396-02             TERMINAL                 CCN000030000000030000FN00000000020220701000030000NNM   20220407121428    4P0P  00001500000000949500001112932D1    TOYOT-K 002800510028
BI00B32D1    DFTC2227       202205127196-0510-02             TERMINAL                 CCN000048000000048000FN00000000020220701000048000NNM   20220407121428    4P0P  00002400000000871200001034632D1    TOYOT-K 002800510028
BI00B32D1    DFTC2227       202205127282-4576                HOUSING MALE ASS'Y       CCN000007200000007200FN00000000020220701000007200NNM   20220407121428    4N0N  00000240000000808800001028832D1    TOYOT-K 005500360039
BI00B32D1    DFTC2227       202205127283-1156                CONNECTOR                CCN000004800000004800FN00000000020220701000004800NNM   20220407121428    4N0N  00000080000000877600001078032D1    TOYOT-K 005600390040
BI00B32D1    DFTC2227       202205127283-5830                CONNECTOR                CCN000006000000006000FN00000000020220701000006000NNM   20220407121428    1N47  00000600000000954000001104032D1    TOYOT-K 005500360039
BI00B32D1    DFTC2227       202205127288-6547                CONNECTOR MALE ASS'Y     CCN000008250000008250FN00000000020220701000008250NNM   20220407121428    4N0N  00000075000001205300001340332D1    TOYOT-K 005400370024
BI00B32D1    DFTC2227       202205127289-3342                HOUSING FEMALE ASS'Y     CCN000033600000033600FN00000000020220701000033600NNM   20220407121428    1N0N  00000240000000686400000901432D1    TOYOT-K 005500360039
BI00B32D1    DFTC2227       202205127289-3342-30             HOUSING FEMALE ASS'Y     CCN000081600000081600FN00000000020220701000081600NNM   20220407121428    1N0N  00000240000000686400000901432D1    TOYOT-K 005500360039
BI00B32D1    DFTC2227       202205127289-3342-40             HOUSING FEMALE ASS'Y     CCN000009600000009600FN00000000020220701000009600NNM   20220407121428    1N0N  00000240000000686400000901432D1    TOYOT-K 005500360039
BI00B32D1    DFTC2227       202205127289-3342-90             HOUSING FEMALE ASS'Y     CCN000009600000009600FN00000000020220701000009600NNM   20220407121428    1N0N  00000240000000686400000901432D1    TOYOT-K 005500360039
BI00B32D1    DFTC2227       202205127289-6547                HOUSING FEMALE ASS'Y     CCN000014400000014400FN00000000020220701000014400NNM   20220407121428    1N0N  00000240000001152000001362032D1    TOYOT-K 005500360039
BI00B32D1    DFTC2227       202205127296-0784-02             TERMINAL ALUMINIUM       CCN000024000000024000FN00000000020220701000024000NNM   20220407121428    4P0P  00002400000000480000000765232D1    TOYOT-K 006400630015
BI00B32D1    DFTC2227       202205127296-1025-02             TERMINAL ALUMINIUM       CCN000018000000018000FN00000000020220701000018000NNM   20220407121428    4P0P  00001800000000635400000920632D1    TOYOT-K 006400630015
BI00B32D1    DFTC2227       202205127327-6731-3W             BATTERY FUSE             CCN000001728000001728FN00000000020220701000001728NNM   20220407121428    4N0N  00000006400000697600000843032D1    TOYOT-K 005400370024
BI00B32D1    DFTC2227       202205127388-2978-30             HOUSING MALE ASS'Y       CCN000011040000011040FN00000000020220701000011040NNM   20220407121428    1N0N  00000048000000742000001122032D1    TOYOT-K 005500360039
BI00B32D1    #DFTC2227      202205127158-3003-90             RUBBER STOPPER           CCN000100000000100000FN00000000020220701000100000NNM   20220407121428    2C0C  00002000000000250000000306032D1    TOYOT-K 002700430014
BI00B32D1    #DFTC2227      202205127158-3004-40             RUBBER STOPPER           CCN000020000000020000FN00000000020220701000020000NNM   20220407121428    2C0C  00002000000000234000000306332D1    TOYOT-K 002700430014
BI00B32D1    #DFTC2227      202205127158-3005-80             RUBBER STOPPER           CCN000040000000040000FN00000000020220701000040000NNM   20220407121428    2H0H  00002000000000210000000268732D1    TOYOT-K 002700430014
BI00B32D1    #DFTC2227      202205127158-3008-80             RUBBER STOPPER           CCN000060000000060000FN00000000020220701000060000NNM   20220407121428    2C0C  00002000000000288000000343032D1    TOYOT-K 004300270014
BI00B32D1    #DFTC2227      202205127158-3015-10             RUBBER STOPPER           CCN000020000000020000FN00000000020220701000020000NNM   20220407121428    2C0C  00001000000000419500000474032D1    TOYOT-K 002700430014
BI00B32D1    #DFTC2227      202205127158-3017                RUBBER STOPPER           CCN000030000000030000FN00000000020220701000030000NNM   20220407121428    2C0C  00001000000000375500000435032D1    TOYOT-K 002700430014
BI00B32D1    #DFTC2227      202205127172-5629-80             RUBBER STOPPER           CCN000180000000180000FN00000000020220701000180000NNM   20220407121428    2H0H  00002000000000060000000111132D1    TOYOT-K 004300270014
BI00B32D1    #DFTC2227      202205127172-5630-40             RUBBER STOPPER           CCN000020000000020000FN00000000020220701000020000NNM   20220407121428    2H0H  00002000000000044000000095132D1    TOYOT-K 004300270014
BI00B32D1    #DFTC2227      202205127172-5631-60             RUBBER STOPPER           CCN000040000000040000FN00000000020220701000040000NNM   20220407121428    2H0H  00002000000000042000000093132D1    TOYOT-K 004300270014
BI00B32D1    #DFTC2227      202205127172-5632-10             DUMMY PLUG               CCN000080000000080000FN00000000020220701000080000NNM   20220407121428    2H0H  00002000000000080400000131832D1    TOYOT-K 004300270014
BI00B32D1    #DFTC2227      202205127183-2415-90             CONNECTOR HOUSING        CCN000004800000004800FN00000000020220701000004800NNM   20220407121428    2F0F  00000480000000798200001091432D1    TOYOT-K 005500360039
BI00B32D1    #DFTC2227      202205127183-2418-30             CONNECTOR HOUSING        CCN000004800000004800FN00000000020220701000004800NNM   20220407121428    2F0F  00000480000000917000001235332D1    TOYOT-K 005500360039
BI00B32D1    #DFTC2227      202205127189-2978-30             HOUSING FEMALE           CCN000012000000012000FN00000000020220701000012000NNM   20220407121428    2F0F  00000150000000966900001096932D1    TOYOT-K 005400370024
BI00B32D1    #DFTC2227      202205127189-3033                HOUSING FEMALE           CCN000006400000006400FN00000000020220701000006400NNM   20220407121428    2F0F  00000160000001211200001431232D1    TOYOT-K 005500360039
BI00B32D1    #DFTC2227      202205127189-3037-40             HOUSING FEMALE           CCN000004800000004800FN00000000020220701000004800NNM   20220407121428    2F0F  00000480000000901600001061632D1    TOYOT-K 005500360039
BI00B32D1    #DFTC2227      202205127282-1641                CONNECTOR                CCN000010000000010000FN00000000020220701000010000NNM   20220407121428    2N0N  00000200000000813000000986032D1    TOYOT-K 005500360039
BI00B32D1    #DFTC2227      202205127289-2912-40             HOUSING FEMALE ASS'Y     CCN000002000000002000FN00000000020220701000002000NNM   20220407121428    2N0N  00000200000000804000000931032D1    TOYOT-K 005400370024
BI00B32D1    #DFTC2227      202205127289-3622-30             HOUSING FEMALE ASS'Y     CCN000002592000002592FN00000000020220701000002592NNM   20220407121428    2N0N  00000043200000839400001038432D1    TOYOT-K 005400370024
BI00B32D1    #DFTC2227      202205127289-4200-30             HOUSING FEMALE ASS'Y     CCN000002000000002000FN00000000020220701000002000NNM   20220407121428    2N0N  00000200000000926000001021032D1    TOYOT-K 005400370024
BI00B32D2    DGTC2227       202205127114-4032                TERMINAL                 CCN000022500000022500FN00000000020220701000022500NNM   20220407154851    4P0P  00000750000000735000001063632D2    TGYOT-G 006400630017
BI00B32D2    DGTC2227       202205127114-4231-02             TERMINAL                 CCN000018000000018000FN00000000020220701000018000NNM   20220407154851    4P0P  00001800000000554400000848032D2    TGYOT-G 006400630015
BI00B32D2    DGTC2227       202205127114-4624-02             TERMINAL                 CCN000024000000024000FN00000000020220701000024000NNM   20220407154851    4P0P  00002400000000895200001188832D2    TGYOT-G 006400630015
BI00B32D2    DGTC2227       202205127114-5748-02             TERMINAL                 CCN000060000000060000FN00000000020220701000060000NNM   20220407154851    4P0P  00001200000000444000000737632D2    TGYOT-G 006400630015
BI00B32D2    DGTC2227       202205127114-5753-02             TERMINAL                 CCN000135000000135000FN00000000020220701000135000NNM   20220407154851    4P0P  00002700000000847800001141432D2    TGYOT-G 006400630015
BI00B32D2    DGTC2227       202205127116-2891-02             TERMINAL                 CCN000030000000030000FN00000000020220701000030000NNM   20220407154851    4P0P  00001500000000982500001145932D2    TGYOT-G 005100280028
BI00B32D2    DGTC2227       202205127116-4415-02             TERMINAL                 CCN000038000000038000FN00000000020220701000038000NNM   20220407154851    4P0P  00003800000000596600000925732D2    TGYOT-G 006400630017
BI00B32D2    DGTC2227       202205127116-4486-02             TERMINAL                 CCN000140000000140000FN00000000020220701000140000NNM   20220407154851    4P0P  00002800000000666400000995132D2    TGYOT-G 006400630017
BI00B32D2    DGTC2227       202205127116-5045-02             TERMINAL                 CCN000064000000064000FN00000000020220701000064000NNM   20220407154851    4P0P  00001600000000678400001007132D2    TGYOT-G 006400630017
BI00B32D2    DGTC2227       202205127116-5046-02             TERMINAL                 CCN000096000000096000FN00000000020220701000096000NNM   20220407154851    4P0P  00001200000000544800000873532D2    TGYOT-G 006400630017
BI00B32D2    DGTC2227       202205127116-6042                TERMINAL                 CCN000048000000048000FN00000000020220701000048000NNM   20220407154851    4P0P  00000300000000523800000856132D2    TGYOT-G 006400630015
BI00B32D2    DGTC2227       202205127126-8853-02             TERMINAL                 CCN000135000000135000FN00000000020220701000135000NNM   20220407154851    4P0P  00000750000000562500000847732D2    TGYOT-G 006400630015
BI00B32D2    DGTC2227       202205127126-8854-02             TERMINAL                 CCN000097500000097500FN00000000020220701000097500NNM   20220407154851    4P0P  00000750000000604500000889732D2    TGYOT-G 006400630015
BI00B32D2    DGTC2227       202205127126-8855-02             TERMINAL                 CCN000168000000168000FN00000000020220701000168000NNM   20220407154851    4P0P  00000600000000510600000795832D2    TGYOT-G 006400630015
BI00B32D2    DGTC2227       202205127158-3070-80             RUBBER STOPPER           CCN000040000000040000FN00000000020220701000040000NNM   20220407154851    1C0C  00004000000000276000000333332D2    TGYOT-G 002700430014
BI00B32D2    DGTC2227       202205127158-3165-90             WIRE SEAL                CCN000040000000040000FN00000000020220701000040000NNM   20220407154851    1C0C  00004000000000124000000172432D2    TGYOT-G 004300270014
BI00B32D2    DGTC2227       202205127158-3166-60             WIRE SEAL                CCN000120000000120000FN00000000020220701000120000NNM   20220407154851    1C0C  00004000000000104000000152432D2    TGYOT-G 002700430014
BI00B32D2    DGTC2227       202205127158-3167-80             WIRE SEAL                CCN000040000000040000FN00000000020220701000040000NNM   20220407154851    1C0C  00002000000000048000000109032D2    TGYOT-G 002700430014
BI00B32D2    DGTC2227       202205127173-3291-40             LIF LEVER                CCN000009600000009600FN00000000020220701000009600NNM   20220407154851    1F0F  00000240000000867800001067832D2    TGYOT-G 005500360039
BI00B32D2    DGTC2227       202205127195-1479-02             TERMINAL MALE            CCN000024000000024000FN00000000020220701000024000NNM   20220407154851    4P0P  00002400000000420000000714232D2    TGYOT-G 006400630015
BI00B32D2    DGTC2227       202205127196-0396-02             TERMINAL                 CCN000015000000015000FN00000000020220701000015000NNM   20220407154851    4P0P  00001500000000949500001112932D2    TGYOT-G 002800510028
BI00B32D2    DGTC2227       202205127196-0805-02             TERMINAL FEMALE          CCN000022500000022500FN00000000020220701000022500NNM   20220407154851    4P0P  00002250000000558000000843232D2    TGYOT-G 006400630015
BI00B32D2    DGTC2227       202205127196-1325-02             TERMINAL FEMALE          CCN000360000000360000FN00000000020220701000360000NNM   20220407154851    4P0P  00006000000000450000000778732D2    TGYOT-G 006400630017
BI00B32D2    DGTC2227       202205127196-1326-02             TERMINAL FEMALE          CCN000840000000840000FN00000000020220701000840000NNM   20220407154851    4P0P  00006000000000456000000784732D2    TGYOT-G 006400630017
BI00B32D2    DGTC2227       202205127196-1327-02             TERMINAL FEMALE          CCN000104000000104000FN00000000020220701000104000NNM   20220407154851    4P0P  00005200000000336000000739532D2    TGYOT-G 006400630017
BI00B32D2    DGTC2227       202205127196-1481-02             TERMINAL FEMALE          CCN000024000000024000FN00000000020220701000024000NNM   20220407154851    4P0P  00002400000000422400000707632D2    TGYOT-G 006400630015
BI00B32D2    DGTC2227       202205127283-6388-40             CONNECTOR                CCN000002000000002000FN00000000020220701000002000NNM   20220407154851    4N0N  00000200000001029000001173532D2    TGYOT-G 005500360039
BI00B32D2    DGTC2227       202205127289-3342                HOUSING FEMALE ASS'Y     CCN000069600000069600FN00000000020220701000069600NNM   20220407154851    1N0N  00000240000000686400000901432D2    TGYOT-G 005500360039
BI00B32D2    DGTC2227       202205127289-3342-30             HOUSING FEMALE ASS'Y     CCN000028800000028800FN00000000020220701000028800NNM   20220407154851    1N0N  00000240000000686400000901432D2    TGYOT-G 005500360039
BI00B32D2    DGTC2227       202205127289-3342-40             HOUSING FEMALE ASS'Y     CCN000021600000021600FN00000000020220701000021600NNM   20220407154851    1N0N  00000240000000686400000901432D2    TGYOT-G 005500360039
BI00B32D2    DGTC2227       202205127289-3342-90             HOUSING FEMALE ASS'Y     CCN000016800000016800FN00000000020220701000016800NNM   20220407154851    1N0N  00000240000000686400000901432D2    TGYOT-G 005500360039
BI00B32D2    DGTC2227       202205127289-6518-30             HOUSING FEMALE ASS'Y     CCN000008400000008400FN00000000020220701000008400NNM   20220407154851    1N0N  00000120000000829200001049232D2    TGYOT-G 005500360039
BI00B32D2    DGTC2227       202205127296-0784-02             TERMINAL ALUMINIUM       CCN000072000000072000FN00000000020220701000072000NNM   20220407154851    4P0P  00002400000000480000000765232D2    TGYOT-G 006400630015
BI00B32D2    DGTC2227       202205127296-1020-02             TERMINAL ALUMINIUM       CCN000022500000022500FN00000000020220701000022500NNM   20220407154851    4P0P  00002250000000699800000985032D2    TGYOT-G 006400630015
BI00B32D2    DGTC2227       202205127296-1024-02             TERMINAL ALUMINIUM       CCN000018000000018000FN00000000020220701000018000NNM   20220407154851    4P0P  00001800000000698400000983632D2    TGYOT-G 006400630015
BI00B32D2    DGTC2227       202205127327-6801-3W             BATTERY FUSE             CCN000001728000001728FN00000000020220701000001728NNM   20220407154851    4N0N  00000009600000928400001143432D2    TGYOT-G 005500360039
BI00B32D2    DGTC2227       202205127327-6806                MULTI FUSE               CCN000002800000002800FN00000000020220701000002800NNM   20220407154851    4N0N  00000056000000851500001063932D2    TGYOT-G 005400370024
BI00B32D2    DGTC2227       202205127327-6809                MULTI FUSE               CCN000002800000002800FN00000000020220701000002800NNM   20220407154851    4N0N  00000056000000849300001061732D2    TGYOT-G 005400370024
BI00B32D2    DGTC2227       202205127327-6930                MULTI FUSE               CCN000003360000003360FN00000000020220701000003360NNM   20220407154851    4N0N  00000056000000848900001031932D2    TGYOT-G 005400370024
BI00B32D2    DGTC2227       202205127388-2978-30             HOUSING MALE ASS'Y       CCN000022080000022080FN00000000020220701000022080NNM   20220407154851    1N0N  00000048000000742000001122032D2    TGYOT-G 005500360039
BI00B32D2    #DGTC2227      202205127158-3003-90             RUBBER STOPPER           CCN000240000000240000FN00000000020220701000240000NNM   20220407154849    2C0C  00002000000000250000000306032D2    TGYOT-G 002700430014
BI00B32D2    #DGTC2227      202205127158-3005-80             RUBBER STOPPER           CCN000040000000040000FN00000000020220701000040000NNM   20220407154849    2H0H  00002000000000210000000268732D2    TGYOT-G 002700430014
BI00B32D2    #DGTC2227      202205127158-3008-80             RUBBER STOPPER           CCN000080000000080000FN00000000020220701000080000NNM   20220407154849    2C0C  00002000000000288000000343032D2    TGYOT-G 004300270014
BI00B32D2    #DGTC2227      202205127158-3015-10             RUBBER STOPPER           CCN000030000000030000FN00000000020220701000030000NNM   20220407154849    2C0C  00001000000000419500000474032D2    TGYOT-G 002700430014
BI00B32D2    #DGTC2227      202205127158-3017                RUBBER STOPPER           CCN000040000000040000FN00000000020220701000040000NNM   20220407154849    2C0C  00001000000000375500000435032D2    TGYOT-G 002700430014
BI00B32D2    #DGTC2227      202205127172-5629-80             RUBBER STOPPER           CCN000420000000420000FN00000000020220701000420000NNM   20220407154849    2H0H  00002000000000060000000111132D2    TGYOT-G 004300270014
BI00B32D2    #DGTC2227      202205127172-5630-40             RUBBER STOPPER           CCN000300000000300000FN00000000020220701000300000NNM   20220407154849    2H0H  00002000000000044000000095132D2    TGYOT-G 004300270014
BI00B32D2    #DGTC2227      202205127172-5631-60             RUBBER STOPPER           CCN000160000000160000FN00000000020220701000160000NNM   20220407154849    2H0H  00002000000000042000000093132D2    TGYOT-G 004300270014
BI00B32D2    #DGTC2227      202205127172-5632-10             DUMMY PLUG               CCN000280000000280000FN00000000020220701000280000NNM   20220407154849    2H0H  00002000000000080400000131832D2    TGYOT-G 004300270014
BI00B32D2    #DGTC2227      202205127183-2511                HOUSING                  CCN000001600000001600FN00000000020220701000001600NNM   20220407154849    2F0F  00000160000000972200001242132D2    TGYOT-G 005500360039
BI00B32D2    #DGTC2227      202205127189-2978-30             HOUSING FEMALE           CCN000022500000022500FN00000000020220701000022500NNM   20220407154849    2F0F  00000150000000966900001096932D2    TGYOT-G 005400370024
BI00B32D2    #DGTC2227      202205127189-3033                HOUSING FEMALE           CCN000008000000008000FN00000000020220701000008000NNM   20220407154849    2F0F  00000160000001211200001431232D2    TGYOT-G 005500360039
BI00B32D2    #DGTC2227      202205127189-3036                HOUSING FEMALE           CCN000003200000003200FN00000000020220701000003200NNM   20220407154849    2F0F  00000160000000921600001141632D2    TGYOT-G 005500360039
BI00B32D2    #DGTC2227      202205127189-3037                HOUSING FEMALE           CCN000004800000004800FN00000000020220701000004800NNM   20220407154849    2F0F  00000480000000806400001066432D2    TGYOT-G 005500360039
BI00B32D2    #DGTC2227      202205127189-3037-40             HOUSING FEMALE           CCN000004800000004800FN00000000020220701000004800NNM   20220407154849    2F0F  00000480000000901600001061632D2    TGYOT-G 005500360039
BI00B32D2    #DGTC2227      202205127198-5394                HOUSING FEMALE           CCN000009600000009600FN00000000020220701000009600NNM   20220407154849    2F0F  00000480000000489700000688832D2    TGYOT-G 005500360039
BI00B32D2    #DGTC2227      202205127283-8226-30             CONNECTOR                CCN000006000000006000FN00000000020220701000006000NNM   20220407154849    2N0N  00000200000000820000001008032D2    TGYOT-G 005400370024
BI00B32D2    #DGTC2227      202205127289-2912-40             HOUSING FEMALE ASS'Y     CCN000002000000002000FN00000000020220701000002000NNM   20220407154849    2N0N  00000200000000804000000931032D2    TGYOT-G 005400370024
BI00B32D2    #DGTC2227      202205127289-3622-30             HOUSING FEMALE ASS'Y     CCN000000432000000432FN00000000020220701000000432NNM   20220407154849    2N0N  00000043200000839400001038432D2    TGYOT-G 005400370024
BI00B32D2    #DGTC2227      202205127289-4200-30             HOUSING FEMALE ASS'Y     CCN000002000000002000FN00000000020220701000002000NNM   20220407154849    2N0N  00000200000000926000001021032D2    TGYOT-G 005400370024
BI00B32H0    TT2206AVMW     202205037114-4032                TERMINAL                 CCN000007500000000000FY00000000020220601000000000NNED0720220407112506    4P0P  00000750000000735000001063632H0    TTTJY   006400630017
BI00B32H0    TT2206AVMW     202205037158-3022-80             RUBBER STOPPER           CCN000005000000000000FY00000000020220601000000000NNED0720220407112506    1C0C  00000500000000467500000524032H0    TTTJY   002700430014
BI00B32H0    TT2206AVMW     202205037173-3291-40             LIF LEVER                CCN000002400000000000FY00000000020220601000000000NNED0720220407112506    1F0F  00000240000000867800001067832H0    TTTJY   005500360039
BI00B32H0    TT2206AVMW     202205037196-1325-02             TERMINAL FEMALE          CCN000060000000000000FY00000000020220601000000000NNED0720220407112506    4P0P  00006000000000450000000778732H0    TTTJY   006400630017
BI00B32H0    TT2206AVMW     202205037196-1326-02             TERMINAL FEMALE          CCN000060000000000000FY00000000020220601000000000NNED0720220407112506    4P0P  00006000000000456000000784732H0    TTTJY   006400630017
BI00B32H0    TT2206AVMW     202205037289-6518-30             HOUSING FEMALE ASS'Y     CCN000002400000000000FY00000000020220601000000000NNED0720220407112506    1N0N  00000120000000829200001049232H0    TTTJY   005500360039
BI00B32H0    TT2206AVMW     202205037327-6809                MULTI FUSE               CCN000000560000000000FY00000000020220601000000000NNED0720220407112506    4N0N  00000056000000849300001061732H0    TTTJY   005400370024
BI00B32H0    TT2206AVMW     202205037327-6949-30             MULTI FUSE               CCN000000288000000000FY00000000020220601000000000NNED0720220407112506    4N00  00000028800000886700001052632H0    TTTJY   005400370024
BI00B32H0    TT2206AVMW     202205037327-6950-30             MULTI FUSE               CCN000000576000000000FY00000000020220601000000000NNED0720220407112506    4N00  00000028800000888700001054632H0    TTTJY   005400370024
BI00B32H0    TT2206AVMW     202205037327-6952-30             MULTI FUSE               CCN000000560000000000FY00000000020220601000000000NNED0720220407112506    4N0N  00000056000000848500001031532H0    TTTJY   005400370024
BI00B32H0    TT2206AVMW     202205037327-6954-30             MULTI FUSE               CCN000000600000000000FY00000000020220601000000000NNED0720220407112506    4N00  00000060000000751600000954332H0    TTTJY   005400370024
BI00B32H0    #TT2206AVMW    202205037154-5597-30             CASSETTE R/B             CCN000000800000000000FY00000000020220601000000000NNEQ0820220407112229    2F0F  00000080000000736000000952032H0    TTTJY   005500360039
BI00B32H0    #TT2206AVMW    202205037172-5625-90             RUBBER STOPPER           CCN000060000000000000FY00000000020220601000000000NNEQ0820220407112229    2H0H  00002000000000082400000133832H0    TTTJY   004300270014
BI00B32H0    #TT2206AVMW    202205037172-5628-80             DUMMY PLUG               CCN000080000000000000FY00000000020220601000000000NNEQ0820220407112229    2H0H  00002000000000110600000162032H0    TTTJY   004300270014
BI00B32H0    #TT2206AVMW    202205037172-5632-10             DUMMY PLUG               CCN000020000000000000FY00000000020220601000000000NNEQ0820220407112229    2H0H  00002000000000080400000131832H0    TTTJY   004300270014
BI00B32H0    #TT2206AVMW    202205037189-3036                HOUSING FEMALE           CCN000001600000000000FY00000000020220601000000000NNEQ0820220407112229    2F0F  00000160000000921600001141632H0    TTTJY   005500360039
BI00B32H0    #TT2206AVMW    202205037189-3037-30             HOUSING FEMALE           CCN000004800000000000FY00000000020220601000000000NNEQ0820220407112229    2F0F  00000480000000901600001061632H0    TTTJY   005500360039
BI00B32H0    #TT2206AVMW    202205037189-3037-40             HOUSING FEMALE           CCN000004800000000000FY00000000020220601000000000NNEQ0820220407112229    2F0F  00000480000000901600001061632H0    TTTJY   005500360039
BI00B32H0    #TT2206AVMW    202205037287-1670                HOUSING FEMALE ASS'Y     CCN000002800000000000FY00000000020220601000000000NNEQ0820220407112229    2N0N  00000280000000953100001145132H0    TTTJY   005400370024
BI00B32H0    #TT2206AVMW    202205037289-2918-40             HOUSING FEMALE ASS'Y     CCN000001000000000000FY00000000020220601000000000NNEQ0820220407112229    2N0N  00000100000001020000001147032H0    TTTJY   005400370024
BI00B32H0    TT2206BVMW     202205037114-4032                TERMINAL                 CCN000007500000007500FN00000000020220601000007500NNED0720220407131949    4P0P  00000750000000735000001063632H0    TTTJY   006400630017
BI00B32H0    TT2206BVMW     202205037158-3022-80             RUBBER STOPPER           CCN000005000000005000FN00000000020220601000005000NNED0720220407131949    1C0C  00000500000000467500000524032H0    TTTJY   002700430014
BI00B32H0    TT2206BVMW     202205037173-3291-40             LIF LEVER                CCN000002400000002400FN00000000020220601000002400NNED0720220407131949    1F0F  00000240000000867800001067832H0    TTTJY   005500360039
BI00B32H0    TT2206BVMW     202205037196-1325-02             TERMINAL FEMALE          CCN000060000000060000FN00000000020220601000060000NNED0720220407131949    4P0P  00006000000000450000000778732H0    TTTJY   006400630017
BI00B32H0    TT2206BVMW     202205037196-1326-02             TERMINAL FEMALE          CCN000060000000060000FN00000000020220601000060000NNED0720220407131949    4P0P  00006000000000456000000784732H0    TTTJY   006400630017
BI00B32H0    TT2206BVMW     202205037289-6518-30             HOUSING FEMALE ASS'Y     CCN000002400000002400FN00000000020220601000002400NNED0720220407131949    1N0N  00000120000000829200001049232H0    TTTJY   005500360039
BI00B32H0    TT2206BVMW     202205037327-6809                MULTI FUSE               CCN000000560000000560FN00000000020220601000000560NNED0720220407131949    4N0N  00000056000000849300001061732H0    TTTJY   005400370024
BI00B32H0    TT2206BVMW     202205037327-6949-30             MULTI FUSE               CCN000000288000000288FN00000000020220601000000288NNED0720220407131949    4N00  00000028800000886700001052632H0    TTTJY   005400370024
BI00B32H0    TT2206BVMW     202205037327-6950-30             MULTI FUSE               CCN000000576000000576FN00000000020220601000000576NNED0720220407131949    4N00  00000028800000888700001054632H0    TTTJY   005400370024
BI00B32H0    TT2206BVMW     202205037327-6952-30             MULTI FUSE               CCN000000560000000560FN00000000020220601000000560NNED0720220407131949    4N0N  00000056000000848500001031532H0    TTTJY   005400370024
BI00B32H0    TT2206BVMW     202205037327-6954-30             MULTI FUSE               CCN000000600000000600FN00000000020220601000000600NNED0720220407131949    4N00  00000060000000751600000954332H0    TTTJY   005400370024
BI00B32H0    #TT2206BVMW    202205037154-5597-30             CASSETTE R/B             CCN000000800000000800FN00000000020220601000000800NNED0720220407131947    2F0F  00000080000000736000000952032H0    TTTJY   005500360039
BI00B32H0    #TT2206BVMW    202205037172-5625-90             RUBBER STOPPER           CCN000060000000060000FN00000000020220601000060000NNED0720220407131947    2H0H  00002000000000082400000133832H0    TTTJY   004300270014
BI00B32H0    #TT2206BVMW    202205037172-5628-80             DUMMY PLUG               CCN000080000000080000FN00000000020220601000080000NNED0720220407131947    2H0H  00002000000000110600000162032H0    TTTJY   004300270014
BI00B32H0    #TT2206BVMW    202205037172-5632-10             DUMMY PLUG               CCN000020000000020000FN00000000020220601000020000NNED0720220407131947    2H0H  00002000000000080400000131832H0    TTTJY   004300270014
BI00B32H0    #TT2206BVMW    202205037189-3036                HOUSING FEMALE           CCN000001600000001600FN00000000020220601000001600NNED0720220407131947    2F0F  00000160000000921600001141632H0    TTTJY   005500360039
BI00B32H0    #TT2206BVMW    202205037189-3037-30             HOUSING FEMALE           CCN000004800000004800FN00000000020220601000004800NNED0720220407131947    2F0F  00000480000000901600001061632H0    TTTJY   005500360039
BI00B32H0    #TT2206BVMW    202205037189-3037-40             HOUSING FEMALE           CCN000004800000004800FN00000000020220601000004800NNED0720220407131947    2F0F  00000480000000901600001061632H0    TTTJY   005500360039
BI00B32H0    #TT2206BVMW    202205037287-1670                HOUSING FEMALE ASS'Y     CCN000002800000002800FN00000000020220601000002800NNED0720220407131947    2N0N  00000280000000953100001145132H0    TTTJY   005400370024
BI00B32H0    #TT2206BVMW    202205037289-2918-40             HOUSING FEMALE ASS'Y     CCN000001000000001000FN00000000020220601000001000NNED0720220407131947    2N0N  00000100000001020000001147032H0    TTTJY   005400370024
BI00B32J1    393326         202205097114-1475                TERMINAL                 CCN000013500000013500FN00000000020220501000013500NNE   20220407155208    4P0P  00001350000000480600000774232J1    UKYEL-BL006400630015
BI00B32J1    393326         202205097114-4231-02             TERMINAL                 CCN000018000000018000FN00000000020220501000018000NNE   20220407155208    4P0P  00001800000000554400000848032J1    UKYEL-BL006400630015
BI00B32J1    393326         202205097114-6041                TERMINAL                 CCN000003600000003600FN00000000020220501000003600NNE   20220407155208    4P0P  00000360000000580700000824232J1    UKYEL-BL006400630015
BI00B32J1    393326         202205097126-8850-02             TERMINAL                 CCN000027000000027000FN00000000020220501000027000NNE   20220407155208    1P0P  00000900000000672300000957532J1    UKYEL-BL006400630015
BI00B32J1    393326         202205097126-8852-02             TERMINAL                 CCN000015000000015000FN00000000020220501000015000NNE   20220407155208    1P0P  00000750000000648000000933232J1    UKYEL-BL006400630015
BI00B32J1    393326         202205097235-8662                DOOR GROMMET             CCN000006880000006880FN00000000020220501000006880NNE   20220407155208    4N0N  00000016000000844000001010032J1    UKYEL-BL005500360039
BI00B32J1    393326         202205097283-1968-30             CONNECTOR                CCN000000900000000900FN00000000020220501000000900NNE   20220407155208    1N0N  00000090000001140000001318332J1    UKYEL-BL005600390040
BI00B32J1    393326         202205097370-0309                J/B ASS'Y                CCN000000144000000144FN00000000020220501000000144NNE   20220407155208    1J0J  00000001600000870400001260032J1    UKYEL-BL005500360039
BI00B32J1    #393326        202205097186-3971                CONNECTOR HOUSING        CCN000004800000004800FN00000000020220501000004800NNE   20220407155201    2F0F  00000240000001002200001191432J1    UKYEL-BL005500360039
BI00B32J1    #393326        202205097186-3975-80             CONNECTOR HOUSING        CCN000002400000002400FN00000000020220501000002400NNE   20220407155201    2F0F  00000240000001065100001236332J1    UKYEL-BL005500360039
BI00B32J1    #393326        202205097186-3976-60             CONNECTOR HOUSING        CCN000002400000002400FN00000000020220501000002400NNE   20220407155201    2F0F  00000240000001065100001236332J1    UKYEL-BL005500360039
BI00B32J1    #393326        202205097187-3356                JOINT CONNECTOR          CCN000007200000007200FN00000000020220501000007200NNE   20220407155201    2F0F  00000120000000759600001024432J1    UKYEL-BL005600390040
BI00B32J1    #393326        202205097187-3971                CONNECTOR HOUSING        CCN000004800000004800FN00000000020220501000004800NNE   20220407155201    2F0F  00000240000000928300001099532J1    UKYEL-BL005500360039
BI00B32J1    #393326        202205097187-3975-80             CONNECTOR HOUSING        CCN000002400000002400FN00000000020220501000002400NNE   20220407155201    2F0F  00000240000000915800001087032J1    UKYEL-BL005500360039
BI00B32J1    #393326        202205097187-3976-60             CONNECTOR HOUSING        CCN000002400000002400FN00000000020220501000002400NNE   20220407155201    2F0F  00000240000000902200001073332J1    UKYEL-BL005500360039
BI00B32J1    393327         202205237158-3006-90             RUBBER STOPPER           CCN000020000000020000FN00000000020220501000020000NNE   20220407155258    1C0C  00002000000000330600000386032J1    UKYEL-BL002700430014
BI00B32M4    TP2061         202205127283-1288                CONNECTOR HOUSING        CCN000002400000002400FN00000000020220601000002400NNMD0020220407121428    4N0N  00000120000001381000001637032M4    SISAI   005600390040
BI00B32M4    TP2062         202205197283-1288                CONNECTOR HOUSING        CCN000001200000001200FN00000000020220601000001200NNMD0020220407121428    4N0N  00000120000001381000001637032M4    SISAI   005600390040
BI00B32M4    TP2063         202205267283-1288                CONNECTOR HOUSING        CCN000001200000001200FN00000000020220601000001200NNMD0020220407121428    4N0N  00000120000001381000001637032M4    SISAI   005600390040
BI00A32N1    NST2119ACU     202204087116-1486-02             TERMINAL                 CCN000016500000016500FN00000000020220501000016500NNEM0020220407161311    4P0P  00001650000000655100000940332N1    TAYIPL  006400630015
BI00B32R7    R-TAP220171    202204287158-3169-40             SEALING PLUG             CCN000320000000320000FN00000000020220501000320000NNE   20220407121428    1C0C  00004000000000156000000204132R7    IVYCIC  004300260014
BI00B32R7    R-TAP220172    202204287116-4022                TERMINAL                 CCN000405000000405000FN00000000020220501000405000NNE   20220407155746    4P0P  00001350000000618300000903532R7    IVYCIC  006400630015
BI00B32R7    R-TAP220172    202204287195-1480-02             TERMINAL MALE            CCN000024000000024000FN00000000020220501000024000NNE   20220407155746    4P0P  00002400000000422400000716632R7    IVYCIC  006400630015
BI00B32R7    R-TAP220172    202204287196-0805-02             TERMINAL FEMALE          CCN000202500000202500FN00000000020220501000202500NNE   20220407155746    4P0P  00002250000000558000000843232R7    IVYCIC  006400630015
BI00B32U9    TP0394S        202205127222-4220-30             CONNECTOR                CCN000004500000004500FN00000000020220601000004500NNED0220220407121428U9  4N0N  00000075000001219000001384032U9    YNYNA-E 005600390040
BI00B32W4    4500189564     202204077289-9553-50             SEALED ASSY FEMALE       CCN000023520000011760FY00001176020220401000000000NNE00020220407195953W4D44N0N  00000294000001108100001520632W4D4  HJYHK-J 005500360039
BI00B32W4    4500189564     202204087289-9553-50             SEALED ASSY FEMALE       CCN000011760000011760FN00000000020220401000011760NNE00020220407195953W4D44N0N  00000294000001108100001520632W4D4  HJYHK-J 005500360039
BI00B32Y2    TAU221112      202205127158-3070-80             RUBBER STOPPER           CCN000040000000040000FN00000000020220901000040000NNE   20220407121428    1C0C  00004000000000276000000333332Y2    YUYUY   002700430014
BI00B32Y2    #TAU221112     202205127158-3008-80             RUBBER STOPPER           CCN000060000000060000FN00000000020220901000060000NNE   20220407121428    2C0C  00002000000000288000000343032Y2    YUYUY   004300270014
