BI00A1200    2399T51923     202201147289-5979-30             HOUSING FEMALE ASS'Y     PCN000011592000012096FN00000806420211101000004032NNMD0220220113153914    1N0N  0000002520000085470000106471200    YCYC    005400370024
BI00A1200    2399T51923     202201187289-5979-30             HOUSING FEMALE ASS'Y     PCN000011592000000000FY00000000020211101000000000NNMD0220220113153914    1N0N  0000002520000085470000106471200    YCYC    005400370024
BI00A1200    2399T51923     202201147289-5979-30             HOUSING FEMALE ASS'Y     PCN000004032000008064FN00000000020211101000008064NNM00020220113153914    1N0N  0000002520000085470000106471200    YCYC    005400370024
BI00A1200    2399T51923     202201177289-5979-30             HOUSING FEMALE ASS'Y     PCN000004032000000000FY00000000020211101000000000NNMD0220220113153914    1N0N  0000002520000085470000106471200    YCYC    005400370024
BI00B1200    2399T52117     202202177195-0547-02             TERMINAL ALUMINIUM       CCN000025500000025500FN00000000020220301000025500NNE   20220113122006    4P0P  0000255000000041820000076021200    YCYC    006400630015
BI00A1200    Y12A1101D      202201247270-8994                6P MODULE ASSEMBLY       CCN000000100000000100FN00000000020220201000000100NNE   20220113122006    4J0J  0000001000000109860000129861200    YCYC    005400370024
BI00B32AF    JTB2024        202201217114-4728-08             TERMINAL                 CCN000030000000030000FN00000000020220201000030000NNMD0020220113154740    4P0P  00003000000000507000000801232AF    HBYHVTB 006400630015
BI00B32AF    JTB2025        202201287114-4728-08             TERMINAL                 CCN000030000000030000FN00000000020220201000030000NNMD0020220113154802    4P0P  00003000000000507000000801232AF    HBYHVTB 006400630015
BI00B32AF    JTB2025        202201287114-5748-02             TERMINAL                 CCN000060000000060000FN00000000020220201000060000NNMD0020220113154921    4P0P  00001200000000444000000737632AF    HBYHVTB 006400630015
BI00B32AF    JTB2025        202201287116-2892-02             TERMINAL                 CCN000012000000012000FN00000000020220201000012000NNMD0020220113155031    4P0P  00001200000000818400000981832AF    HBYHVTB 005100280028
BI00B32AF    #JTB2025       202201287158-3007-10             RUBBER STOPPER           CCN000020000000020000FN00000000020220201000020000NNMD0020220113164057    2H0H  00002000000000308000000362732AF    HBYHVTB 002700430014
BI00B32AF    JTB2031        202201287114-5748-02             TERMINAL                 CCN000108000000108000FN00000000020220301000108000NNMD0020220113154857    4P0P  00001200000000444000000737632AF    HBYHVTB 006400630015
BI00A32AG    #XG2202ELMW    202201187182-9631-40             JOINT CONNECTOR          CCN000006000000006000FN00000000020220201000006000NNEM0020220113122006    2F0F  00000300000001182000001307432AG    XGXGY   005400370024
BI00B32A7    ZZ2203ABMW     202201267137-3047-30             UNIT PACKING             CCN000010000000010000FN00000000020220301000010000NNE   20220113135835    1C0C  00000100000000170500000218932A7    ZZZZY   002700430014
BI00B32A7    ZZ2203ABMW     202201267172-5402-30             SEAL RUBBER              CCN000040000000040000FN00000000020220301000040000NNE   20220113135835    1C0C  00000800000000457600000506032A7    ZZZZY   004300270014
BI00B32A7    ZZ2203ABMW     202201267172-5403-30             SEALED PACKING           CCN000040000000040000FN00000000020220301000040000NNE   20220113135835    1C0C  00000400000000653600000701732A7    ZZZZY   004300270014
BI00B32CG    #S220117-S     202203167158-3121-80             WIRE SEAL                CCN000100000000100000FN00000000020220301000100000NNE   20220113160457    2C0C  00002000000000118000000187332CG    ASASIACO002700430014
BI00B32CG    S220116-S      202203167116-4120-02             TERMINAL                 CCN000006000000006000FN00000000020220301000006000NNE   20220113160634    4P0P  00000600000000780000001073632CG    ASASIACO006400630015
BI00A32CH    #SJ22024 MW    202201177183-1615                HOUSING                  CCN000004800000004800FN00000000020220201000004800NNMM0020220113130511    2F0F  00000480000000757000001042032CH    SJSAMIJF005500360039
BI00B32CH    #SJ22024DMW    202201277183-0522                HOUSING                  CCN000007200000004800FN00000000020220201000004800NNMQ0020220113140118    2F0F  00000240000000951000001230032CH    SJSAMIJF005500360039
BI00B32CH    #SJ22024DMW    202201277189-3031                HOUSING FEMALE           CCN000009600000004800FN00000000020220201000004800NNMQ0020220113135949    2F0F  00000240000000928800001365832CH    SJSAMIJF005500360039
BI00B32CH    #SJ22024DMW    202201277289-2918-40             HOUSING FEMALE ASS'Y     CCN000009000000005000FN00000000020220201000005000NNMQ0020220113130702    2N0N  00000100000001020000001147032CH    SJSAMIJF005400360024
BI00A32CH    #SJ22031DMW    202201177283-8730-30             HOUSING FEMALE ASS'Y     CCN000002000000002000FN00000000020220301000002000NNMM0020220113140205    2N0N  00000200000000794000000906532CH    SJSAMIJF005400370024
BI00A32CH    #SJ22024DMW    202201177289-2918-40             HOUSING FEMALE ASS'Y     CCN000004000000004000FN00000000020220201000004000NNMM0020220113142457    2N0N  00000100000001020000001147032CH    SJSAMIJF005400360024
BI00A32CH    #SJ22024DMW    202201177189-3031                HOUSING FEMALE           CCN000004800000004800FN00000000020220201000004800NNMM0020220113142457    2F0F  00000240000000928800001365832CH    SJSAMIJF005500360039
BI00A32CH    #SJ22024DMW    202201177183-0522                HOUSING                  CCN000002400000002400FN00000000020220201000002400NNMM0020220113142457    2F0F  00000240000000951000001230032CH    SJSAMIJF005500360039
BI00B32CJ    JQN2031        202202117288-6547                CONNECTOR MALE ASS'Y     CCN000003000000003000FN00000000020220301000003000NNMD0420220113163550    4N0N  00000075000001205300001340332CJ    QNYHVQN 005400370024
BI00B32CJ    JQN2031        202202117289-3342-30             HOUSING FEMALE ASS'Y     CCN000019200000019200FN00000000020220301000019200NNMD0420220113163603    1N0N  00000240000000686400000901432CJ    QNYHVQN 005500360039
BI00B32CJ    JQN2032        202202187289-3342-30             HOUSING FEMALE ASS'Y     CCN000019200000019200FN00000000020220301000019200NNMD0420220113163647    1N0N  00000240000000686400000901432CJ    QNYHVQN 005500360039
BI00B32DG    RP2031         202202107158-3006-90             RUBBER STOPPER           CCN000120000000120000FN00000000020220301000120000NNMD0420220113150611    1C0C  00002000000000330600000386032DG    BFSAIBF 002700430014
BI00B32DG    RP2032         202202177158-3006-90             RUBBER STOPPER           CCN000120000000120000FN00000000020220301000120000NNMD0420220113150917    1C0C  00002000000000330600000386032DG    BFSAIBF 002700430014
BI00B32DG    RP2033         202202247158-3006-90             RUBBER STOPPER           CCN000120000000120000FN00000000020220301000120000NNMD0420220113151002    1C0C  00002000000000330600000386032DG    BFSAIBF 002700430014
BI00B32DG    RP2034         202203037158-3006-90             RUBBER STOPPER           CCN000120000000120000FN00000000020220301000120000NNMD0420220113151144    1C0C  00002000000000330600000386032DG    BFSAIBF 002700430014
BI00B32DG    RP2031         202202107289-3342-30             HOUSING FEMALE ASS'Y     CCN000009600000009600FN00000000020220301000009600NNMD0420220113150627    1N0N  00000240000000686400000901432DG    BFSAIBF 005500360039
BI00B32DG    RP2032         202202177289-3342-30             HOUSING FEMALE ASS'Y     CCN000009600000009600FN00000000020220301000009600NNMD0420220113150637    1N0N  00000240000000686400000901432DG    BFSAIBF 005500360039
BI00B32DG    RP2033         202202247289-3342-30             HOUSING FEMALE ASS'Y     CCN000009600000009600FN00000000020220301000009600NNMD0420220113151018    1N0N  00000240000000686400000901432DG    BFSAIBF 005500360039
BI00B32DG    RP2034         202203037289-3342-30             HOUSING FEMALE ASS'Y     CCN000004800000004800FN00000000020220301000004800NNMD0420220113151249    1N0N  00000240000000686400000901432DG    BFSAIBF 005500360039
BI00A32DG    RP2024B        202201137114-4231-02             TERMINAL                 CCN000036000000036000FY00003600020220201000000000NNE00020220113153914    4P0P  00001800000000554400000848032DG    BFSAIBF 006400630015
BI00A32DG    RP2024B        202201137288-3329-30             HOUSING MALE             CCN000001500000001500FY00000150020220201000000000NNE00020220113153914    4N0N  00000150000000866100001011132DG    BFSAIBF 005400370024
BI00A32DG    RP2024B        202201137116-3154-02             TERMINAL FEMALE          CCN000027000000027000FY00002700020220201000000000NNE00020220113153914    4P0P  00002700000000469800000755032DG    BFSAIBF 006400630015
BI00A32DG    RP2023         202201137289-3342-30             HOUSING FEMALE ASS'Y     CCN000002400000002400FY00000240020220201000000000NNM00020220113153914    1N0N  00000240000000686400000901432DG    BFSAIBF 005500360039
BI00A32DG    RP2024         202201137114-4020                TERMINAL                 CCN000021000000021000FY00002100020220201000000000NNM00020220113153914    4P0P  00002100000000875700001169332DG    BFSAIBF 006400630015
BI00B32DJ    GHT2203B 1     202202037283-5830-30             CONNECTOR                CCN000024000000006000FN00000000020220201000006000NNMQ0220220113122006    1N0N  00000600000000954000001104032DJ    RBYIPLRB005500360039
BI00B32DJ    GHT2203B 1     202202037283-5845                CONNECTOR HOUSING        CCN000030000000006000FN00000000020220201000006000NNMQ0220220113122006    1N0N  00000600000000444000000606332DJ    RBYIPLRB005400370024
BI00B32DJ    GHT2203B 2     202203107283-5845                CONNECTOR HOUSING        CCN000006000000006000FN00000000020220201000006000NNMD0220220113122006    1N0N  00000600000000444000000606332DJ    RBYIPLRB005400370024
BI00B32DJ    GHT2203B 1     202202107283-5830-30             CONNECTOR                CCN000006000000006000FN00000000020220201000006000NNMD0220220113122006    1N0N  00000600000000954000001104032DJ    RBYIPLRB005500360039
BI00B32DJ    GHT2203B 1     202202177283-5830-30             CONNECTOR                CCN000006000000006000FN00000000020220201000006000NNMD0220220113122006    1N0N  00000600000000954000001104032DJ    RBYIPLRB005500360039
BI00B32DJ    GHT2203B 1     202202247283-5830-30             CONNECTOR                CCN000006000000006000FN00000000020220201000006000NNMD0220220113122006    1N0N  00000600000000954000001104032DJ    RBYIPLRB005500360039
BI00B32DJ    GHT2203B 1     202202107283-5845                CONNECTOR HOUSING        CCN000006000000006000FN00000000020220201000006000NNMD0220220113122006    1N0N  00000600000000444000000606332DJ    RBYIPLRB005400370024
BI00B32DJ    GHT2203B 1     202202177283-5845                CONNECTOR HOUSING        CCN000006000000006000FN00000000020220201000006000NNMD0220220113122006    1N0N  00000600000000444000000606332DJ    RBYIPLRB005400370024
BI00B32DJ    GHT2203B 1     202202247283-5845                CONNECTOR HOUSING        CCN000006000000006000FN00000000020220201000006000NNMD0220220113122006    1N0N  00000600000000444000000606332DJ    RBYIPLRB005400370024
BI00B32DJ    GHT2203B 1     202203037283-5845                CONNECTOR HOUSING        CCN000006000000006000FN00000000020220201000006000NNMD0220220113122006    1N0N  00000600000000444000000606332DJ    RBYIPLRB005400370024
BI00B32D1    DFTC2215       202203107289-6547                HOUSING FEMALE ASS'Y     CCN000004800000004800FN00000000020220401000004800NNMD0420220113132042    1N0N  00000240000001152000001362032D1    TOYOT-K 005500360039
BI00A32D2    DGTC2211       202201207296-1024-02             TERMINAL ALUMINIUM       CCN000018000000018000FN00000000020220301000018000NNMM0020220113122006    4P0P  00001800000000698400000983632D2    TGYOT-G 006400630015
BI00B32G7    JJ2202C MW     202201207289-3342-30             HOUSING FEMALE ASS'Y     CCN000004800000004800FN00000000020220201000004800NNE00020220113162144    1N0N  00000240000000686400000901432G7    JIJAI   005500360039
BI00B32G7    JJ22021 MW     202201207289-3342-30             HOUSING FEMALE ASS'Y     CCN000019200000019200FN00000000020220201000019200NNM00020220113154141    1N0N  00000240000000686400000901432G7    JIJAI   005500360039
BI00B32H7    FS22032DMW     202202157158-3006-90             RUBBER STOPPER           CCN000240000000240000FN00000000020220301000240000NNMD0420220113141733    1C0C  00002000000000330600000386032H7    FYFSY   002700430014
BI00A32J1    390042         202202077114-4101-02             TERMINAL                 CCN001800000001800000FN00000000020220201001800000NNED0420220113133547    4P0P  00001500000000675000001003632J1    UKYEL-BL006400630017
BI00A32J1    390043         202202287114-4100-02             TERMINAL                 CCN008640000002160000FN00000000020220301002160000NNEQ0420220113133456    4P0P  00001800000000748800001077432J1    UKYEL-BL006400630017
BI00A32J1    390043         202203077114-4101-02             TERMINAL                 CCN003600000001800000FN00000000020220301001800000NNED0420220113133456    4P0P  00001500000000675000001003632J1    UKYEL-BL006400630017
BI00A32J1    390044         202204117114-4100-02             TERMINAL                 CCN008640000002160000FN00000000020220401002160000NNED0420220113133535    4P0P  00001800000000748800001077432J1    UKYEL-BL006400630017
BI00A32J1    390044         202204187114-4101-02             TERMINAL                 CCN003600000001800000FN00000000020220401001800000NNED0420220113133535    4P0P  00001500000000675000001003632J1    UKYEL-BL006400630017
BI00A32J1    390043         202203077114-4100-02             TERMINAL                 CCN002160000002160000FN00000000020220301002160000NNED0420220113133456    4P0P  00001800000000748800001077432J1    UKYEL-BL006400630017
BI00A32J1    390043         202203217114-4100-02             TERMINAL                 CCN002160000002160000FN00000000020220301002160000NNED0420220113133456    4P0P  00001800000000748800001077432J1    UKYEL-BL006400630017
BI00A32J1    390043         202204047114-4100-02             TERMINAL                 CCN002160000002160000FN00000000020220301002160000NNED0420220113133456    4P0P  00001800000000748800001077432J1    UKYEL-BL006400630017
BI00A32J1    390044         202204187114-4100-02             TERMINAL                 CCN002160000002160000FN00000000020220401002160000NNED0420220113133535    4P0P  00001800000000748800001077432J1    UKYEL-BL006400630017
BI00A32J1    390044         202205037114-4100-02             TERMINAL                 CCN002160000002160000FN00000000020220401002160000NNED0420220113133535    4P0P  00001800000000748800001077432J1    UKYEL-BL006400630017
BI00A32J1    390044         202204257114-4100-02             TERMINAL                 CCN002160000002160000FN00000000020220401002160000NNED0420220113133535    4P0P  00001800000000748800001077432J1    UKYEL-BL006400630017
BI00A32J1    390043         202204047114-4101-02             TERMINAL                 CCN001800000001800000FN00000000020220301001800000NNED0420220113133456    4P0P  00001500000000675000001003632J1    UKYEL-BL006400630017
BI00A32J1    390044         202204257114-4101-02             TERMINAL                 CCN001800000001800000FN00000000020220401001800000NNED0420220113133535    4P0P  00001500000000675000001003632J1    UKYEL-BL006400630017
BI00A32M1    TCV201C        202201137196-1936-02             TERMINAL FEMALE          CCN000013500000013500FY00001350020220101000000000NNE   20220113153914    4P0P  00001350000000441500000726732M1    VNYEV   006400630015
BI00B32M1    TCV201D        202201207114-4020                TERMINAL                 CCN000021000000021000FN00000000020220101000021000NNE   20220113122006    4P0P  00002100000000875700001169332M1    VNYEV   006400630015
BI00B32M1    TCV201D        202201207195-1936-02             TERMINAL MALE            CCN000015000000015000FN00000000020220101000015000NNE   20220113122006    4P0P  00001500000000589500000883132M1    VNYEV   006400630015
BI00B32M1    TCV201D        202201207195-1937-02             TERMINAL MALE            CCN000015000000015000FN00000000020220101000015000NNE   20220113122006    4P0P  00001500000000594000000887632M1    VNYEV   006400630015
BI00B32M1    TCV201D        202201207196-1935-02             TERMINAL FEMALE          CCN000015600000018000FN00000000020220101000018000NNE   20220113122006    4P0P  00001800000000534600000819832M1    VNYEV   006400630015
BI00B32M1    TCV201D        202201207196-1936-02             TERMINAL FEMALE          CCN000013500000013500FN00000000020220101000013500NNE   20220113122006    4P0P  00001350000000441500000726732M1    VNYEV   006400630015
BI00B32M1    TCV201D        202201207196-1937-02             TERMINAL FEMALE          CCN000027000000027000FN00000000020220101000027000NNE   20220113122006    4P0P  00001350000000446900000732132M1    VNYEV   006400630015
BI00B32M4    TP2022         202201207289-3342-30             HOUSING FEMALE ASS'Y     CCN000038400000038400FN00000000020220201000038400NNM00020220113162253    1N0N  00000240000000686400000901432M4    SISAI   005500360039
BI00B32M4    TP2031         202202107158-3006-90             RUBBER STOPPER           CCN000280000000280000FN00000000020220301000280000NNMD0420220113151601    1C0C  00002000000000330600000386032M4    SISAI   002700430014
BI00B32M4    TP2032         202202177158-3006-90             RUBBER STOPPER           CCN000280000000280000FN00000000020220301000280000NNMD0420220113151639    1C0C  00002000000000330600000386032M4    SISAI   002700430014
BI00B32M4    TP2033         202202247158-3006-90             RUBBER STOPPER           CCN000280000000280000FN00000000020220301000280000NNMD0420220113151814    1C0C  00002000000000330600000386032M4    SISAI   002700430014
BI00B32M4    TP2034         202203037158-3006-90             RUBBER STOPPER           CCN000280000000280000FN00000000020220301000280000NNMD0420220113151859    1C0C  00002000000000330600000386032M4    SISAI   002700430014
BI00B32M4    TP2032         202203107283-6039                CONNECTOR                CCN000001600000001600FN00000000020220301000001600NNMD0220220113151731    1N0N  00000160000000624000000881532M4    SISAI   005500360039
BI00B32M4    TP2031         202202107289-3342                HOUSING FEMALE ASS'Y     CCN000016800000016800FN00000000020220301000016800NNMD0420220113151611    1N0N  00000240000000686400000901432M4    SISAI   005500360039
BI00B32M4    TP2032         202202177289-3342                HOUSING FEMALE ASS'Y     CCN000016800000016800FN00000000020220301000016800NNMD0420220113151753    1N0N  00000240000000686400000901432M4    SISAI   005500360039
BI00B32M4    TP2033         202202247289-3342                HOUSING FEMALE ASS'Y     CCN000016800000016800FN00000000020220301000016800NNMD0420220113151826    1N0N  00000240000000686400000901432M4    SISAI   005500360039
BI00B32M4    TP2034         202203037289-3342                HOUSING FEMALE ASS'Y     CCN000014400000014400FN00000000020220301000014400NNMD0420220113151910    1N0N  00000240000000686400000901432M4    SISAI   005500360039
BI00B32N1    SBT2112        202201107286-3885-40             CONNECTOR MALE ASS'Y     CCN000007200000009600FN00000720020211201000002400NNM00020220113122006    1N0N  00000120000000910600001130632N1    TAYIPL  005500360039
BI00B32N1    SBT2201        202201147286-3885-40             CONNECTOR MALE ASS'Y     CCN000026037000009600FN00000000020220101000009600NNM00020220113122006    1N0N  00000120000000910600001130632N1    TAYIPL  005500360039
BI00B32N1    SBT2202A       202201147283-5830                CONNECTOR                CCN000018000000018000FN00000000020220201000018000NNM00020220113122006    1N47  00000600000000954000001104032N1    TAYIPL  005500360039
BI00B32N1    #NST2114A 3    202201147282-4190-30             CONNECTOR                CCN000043200000043200FN00000000020220201000043200NNM00020220113122006    2N0N  00000024000000801000001071332N1    TAYIPL  005600390040
BI00B32N1    NST2115A       202202037283-1144-30             CONNECTOR                CCN000007200000007200FN00000000020220201000007200NNED0220220113132104    4N0N  00000240000000602200000866132N1    TAYIPL  005500360039
BI00B32N1    #NST2115       202202037137-3072-80S            SEALED PACKING           CCN000120960000120960FN00000000020220201000120960NNE   20220113122006    2H0H  00003024000000196500000244232N1    TAYIPL  004300270014
BI00B32N1    NST2115B-1     202202107126-8851-02             TERMINAL                 CCN000090000000090000FN00000000020220301000090000NNE   20220113122006    1P0P  00000900000000739800001025032N1    TAYIPL  006400630015
BI00B32N1    NST2115B-1     202202107116-1471                TERMINAL                 CCN000015000000015000FN00000000020220301000015000NNE   20220113122006    4P0P  00001500000000579000000867232N1    TAYIPL  006400630015
BI00B32N1    NST2115B-1     202202107254-3061                COVER                    CCN000000100000000120FN00000000020220301000000120NNE   20220113122006    4N0N  00000012000000614000000792032N1    TAYIPL  005600390040
BI00B32N1    NST2115B-1     202202107254-1788-3W             RELAY & FUSE BLOCK       CCN000000020000000020FN00000000020220301000000020NNE   20220113122006    4N0N  00000002000000740000000966032N1    TAYIPL  005600390040
BI00B32N1    NST2115B-2     202202177116-2892-02             TERMINAL                 CCN000132000000132000FN00000000020220301000132000NNM   20220113130033    4P0P  00001200000000818400000981832N1    TAYIPL  005100280028
BI00B32N1    NST2115B-2     202202177116-6042                TERMINAL                 CCN000021000000021000FN00000000020220301000021000NNM   20220113130033    4P0P  00000300000000523800000856132N1    TAYIPL  006400630015
BI00B32N1    NST2115B-2     202202177126-8851-02             TERMINAL                 CCN000684000000684000FN00000000020220301000684000NNM   20220113130033    1P0P  00000900000000739800001025032N1    TAYIPL  006400630015
BI00B32N1    NST2115B-2     202202177283-1144                CONNECTOR                CCN000009600000009600FN00000000020220301000009600NNM   20220113130033    4N0N  00000240000000602200000866132N1    TAYIPL  005500360039
BI00B32N1    NST2115B-2     202202177126-8852-02             TERMINAL                 CCN000300000000300000FN00000000020220301000300000NNM   20220113130033    1P0P  00000750000000648000000933232N1    TAYIPL  006400630015
BI00B32N1    NST2115B-2     202202177158-3022-80             RUBBER STOPPER           CCN000005000000005000FN00000000020220301000005000NNM   20220113130033    1C0C  00000500000000467500000524032N1    TAYIPL  002700430014
BI00B32N1    NST2115B-2     202202177254-3061                COVER                    CCN000000100000000120FN00000000020220301000000120NNM   20220113130033    4N0N  00000012000000614000000792032N1    TAYIPL  005600390040
BI00B32N1    NST2115B-2     202202177254-1788-3W             RELAY & FUSE BLOCK       CCN000000020000000020FN00000000020220301000000020NNM   20220113130033    4N0N  00000002000000740000000966032N1    TAYIPL  005600390040
BI00B32N1    NST2115A-1     202202107114-4020                TERMINAL                 CCN000084000000084000FN00000000020220301000084000NNM   20220113134318    4P0P  00002100000000875700001169332N1    TAYIPL  006400630015
BI00B32N1    NST2115A-1     202202107114-4030                TERMINAL                 CCN000010500000010500FN00000000020220301000010500NNM   20220113134318    4P0P  00001050000000926100001254732N1    TAYIPL  006400630017
BI00B32N1    NST2115A-1     202202107114-4032                TERMINAL                 CCN000015000000015000FN00000000020220301000015000NNM   20220113134318    4P0P  00000750000000735000001063632N1    TAYIPL  006400630017
BI00B32N1    NST2115A-1     202202107116-1180                TERMINAL                 CCN000370500000370500FN00000000020220301000370500NNM   20220113134318    1P0P  00001950000000618200000903432N1    TAYIPL  006400630015
BI00B32N1    NST2115A-1     202202107116-1301                TERMINAL                 CCN000330000000330000FN00000000020220301000330000NNM   20220113134318    4P0P  00001500000000487500000772732N1    TAYIPL  006400630015
BI00B32N1    NST2115A-1     202202107116-4020                TERMINAL                 CCN000243000000243000FN00000000020220301000243000NNM   20220113134318    4P0P  00001350000000513000000798232N1    TAYIPL  006400630015
BI00B32N1    NST2115A-1     202202107116-4026                TERMINAL                 CCN000176000000176000FN00000000020220301000176000NNM   20220113134318    4P0P  00001600000000664000000994332N1    TAYIPL  006400630017
BI00B32N1    NST2115A-1     202202107116-4037                TERMINAL                 CCN000030000000030000FN00000000020220301000030000NNM   20220113134318    4P0P  00000600000000600000000894232N1    TAYIPL  006400630015
BI00B32N1    NST2115A-1     202202107282-1248                HOUSING SUB ASSEMBLY     CCN000004200000004200FN00000000020220301000004200NNM   20220113134318    1N0N  00000060000001167000001372032N1    TAYIPL  005500360039
BI00B32N1    NST2115A-1     202202107017-1180-02             TERMINAL                 CCN000072000000072000FN00000000020220301000072000NNM   20220113134318    4P0P  00007200000001065600001229032N1    TAYIPL  005100280028
BI00B32N1    NST2115A-1     202202107114-4100-02             TERMINAL                 CCN000396000000396000FN00000000020220301000396000NNM   20220113134318    4P0P  00001800000000748800001077432N1    TAYIPL  006400630017
BI00B32N1    NST2115A-1     202202107114-4111-02             TERMINAL                 CCN000072000000072000FN00000000020220301000072000NNM   20220113134318    4P0P  00001200000000758400001087032N1    TAYIPL  006400630017
BI00B32N1    NST2115A-1     202202107114-4112-02             TERMINAL                 CCN000018000000018000FN00000000020220301000018000NNM   20220113134318    4P0P  00000900000000598500000927132N1    TAYIPL  006400630017
BI00B32N1    NST2115A-1     202202107114-4729-02             TERMINAL                 CCN000056700000060000FN00000000020220301000060000NNM   20220113134318    4P0P  00003000000000516000000810232N1    TAYIPL  006400630015
BI00B32N1    NST2115A-1     202202107114-5746-02             TERMINAL                 CCN000021000000021000FN00000000020220301000021000NNM   20220113134318    4P0P  00002100000000695100000988732N1    TAYIPL  006400630015
BI00B32N1    NST2115A-1     202202107116-1685-02             TERMINAL                 CCN000312000000312000FN00000000020220301000312000NNM   20220113134318    4P0P  00002400000000897600001065232N1    TAYIPL  005100280028
BI00B32N1    NST2115A-1     202202107116-1686-02             TERMINAL                 CCN000063000000063000FN00000000020220301000063000NNM   20220113134318    4P0P  00002100000000869400001021632N1    TAYIPL  005100280028
BI00B32N1    NST2115A-1     202202107116-2891-02             TERMINAL                 CCN000195000000195000FN00000000020220301000195000NNM   20220113134318    4P0P  00001500000000982500001145932N1    TAYIPL  005100280028
BI00B32N1    NST2115A-1     202202107116-2893-02             TERMINAL                 CCN000264000000264000FN00000000020220301000264000NNM   20220113134318    4P0P  00001200000000895200001058632N1    TAYIPL  005100280028
BI00B32N1    NST2115A-1     202202107116-4110-02             TERMINAL                 CCN000009000000009000FN00000000020220301000009000NNM   20220113134318    4P0P  00000900000000594000000882232N1    TAYIPL  006400630015
BI00B32N1    NST2115A-1     202202107116-4112-02             TERMINAL                 CCN000006000000006000FN00000000020220301000006000NNM   20220113134318    4P0P  00000600000000450000000738232N1    TAYIPL  006400630015
BI00B32N1    NST2115A-1     202202107116-4122-02             TERMINAL                 CCN000121500000121500FN00000000020220301000121500NNM   20220113134318    4P0P  00000450000000656600000950232N1    TAYIPL  006400630015
BI00B32N1    NST2115A-1     202202107116-5750-02             TERMINAL                 CCN000030000000030000FN00000000020220301000030000NNM   20220113134318    4P0P  00001500000000457500000742732N1    TAYIPL  006400630015
BI00B32N1    NST2115A-1     202202107126-8850-02             TERMINAL                 CCN000513000000513000FN00000000020220301000513000NNM   20220113134318    1P0P  00000900000000672300000957532N1    TAYIPL  006400630015
BI00B32N1    NST2115A-1     202202107158-3006-90             RUBBER STOPPER           CCN000180000000180000FN00000000020220301000180000NNM   20220113134318    1C0C  00002000000000330600000386032N1    TAYIPL  002700430014
BI00B32N1    NST2115A-1     202202107282-1248-30             HOUSING SUB ASSEMBLY     CCN000001800000001800FN00000000020220301000001800NNM   20220113134318    1N0N  00000060000001167000001372032N1    TAYIPL  005500360039
BI00B32N1    NST2115A-1     202202107282-5574-10             CONNECTOR                CCN000000800000000800FN00000000020220301000000800NNM   20220113134318    4N0N  00000080000001235000001423032N1    TAYIPL  005600390040
BI00B32N1    NST2115A-1     202202107283-1144-30             CONNECTOR                CCN000057600000057600FN00000000020220301000057600NNM   20220113134318    4N0N  00000240000000602200000866132N1    TAYIPL  005500360039
BI00B32N1    #NST2115A-1    202202107116-4021                TERMINAL                 CCN000135000000135000FN00000000020220301000135000NNM   20220113134315    2F0P  00001350000000534600000868832N1    TAYIPL  006400630015
BI00B32N1    #NST2115A-1    202202107157-3646                RUBBER STOPPER           CCN000320000000320000FN00000000020220301000320000NNM   20220113134315    2H0H  00002000000000184000000255232N1    TAYIPL  002700430014
BI00B32N1    #NST2115A-1    202202107157-3790-90             WIRE SEAL                CCN000020000000020000FN00000000020220301000020000NNM   20220113134315    2C0C  00002000000000176000000232732N1    TAYIPL  002700430014
BI00B32N1    #NST2115A-1    202202107157-3950-80             SEAL RUBBER              CCN000200000000200000FN00000000020220301000200000NNM   20220113134315    2C0C  00004000000000154000000440332N1    TAYIPL  002700430014
BI00B32N1    #NST2115A-1    202202107157-3952-80             RUBBER STOPPER           CCN000030000000030000FN00000000020220301000030000NNM   20220113134315    2C0C  00001000000000117000000175032N1    TAYIPL  002700430014
BI00B32N1    #NST2115A-1    202202107158-3007-10             RUBBER STOPPER           CCN000020000000020000FN00000000020220301000020000NNM   20220113134315    2H0H  00002000000000308000000362732N1    TAYIPL  002700430014
BI00B32N1    #NST2115A-1    202202107158-3120-90             CONNECTOR WIRE SEAL      CCN000140000000140000FN00000000020220301000140000NNM   20220113134315    2C0C  00002000000000136000000194032N1    TAYIPL  002700430014
BI00B32N1    #NST2115A-1    202202107183-2418-30             CONNECTOR HOUSING        CCN000004800000004800FN00000000020220301000004800NNM   20220113134315    2F0F  00000480000000917000001235332N1    TAYIPL  005500360039
BI00B32N1    #NST2115A-1    202202107283-8226-30             CONNECTOR                CCN000040920000042000FN00000000020220301000042000NNM   20220113134315    2N0N  00000200000000820000001008032N1    TAYIPL  005400370024
BI00B32N1    #NST2115A-1    202202107283-8397-40             CONNECTOR                CCN000001540000001540FN00000000020220301000001540NNM   20220113134315    2N0N  00000154000001007000001222732N1    TAYIPL  005600390023
BI00B32N1    NST2115A-2     202202177114-5747-02             TERMINAL                 CCN000018000000018000FN00000000020220301000018000NNM   20220113135817    4P0P  00001800000000626400000920032N1    TAYIPL  006400630015
BI00B32N1    NST2115A-2     202202177116-4022                TERMINAL                 CCN000013500000013500FN00000000020220301000013500NNM   20220113135817    4P0P  00001350000000618300000903532N1    TAYIPL  006400630015
BI00B32N1    NST2115A-2     202202177196-0396-02             TERMINAL                 CCN000015000000015000FN00000000020220301000015000NNM   20220113135817    4P0P  00001500000000949500001112932N1    TAYIPL  002800510028
BI00B32N1    NST2115A-2     202202177116-4124-02             TERMINAL                 CCN000003000000003000FN00000000020220301000003000NNM   20220113135817    4P0P  00000300000000459900000753532N1    TAYIPL  006400630015
BI00B32N1    #NST2115A-2    202202177283-5831                CONNECTOR                CCN000000700000003000FN00000000020220301000003000NNM   20220113135812    2N0N  00000300000000750000000880032N1    TAYIPL  005400370024
BI00B32N2    2152103764     202202107116-1473                TERMINAL                 CCN000013500000013500FN00000000020220301000013500NNM   20220113143028    4P0P  00001350000000523800000809032N2    YWYIPLTC006400630015
BI00B32N2    2152103764     202202107116-4020                TERMINAL                 CCN000013500000013500FN00000000020220301000013500NNM   20220113143028    4P0P  00001350000000513000000798232N2    YWYIPLTC006400630015
BI00B32N2    2152103764     202202107116-6041                TERMINAL                 CCN000004500000004500FN00000000020220301000004500NNM   20220113143028    4P0P  00000450000000716000001009632N2    YWYIPLTC006400630015
BI00B32N2    2152103764     202202107114-4231-02             TERMINAL                 CCN000018000000018000FN00000000020220301000018000NNM   20220113143028    4P0P  00001800000000554400000848032N2    YWYIPLTC006400630015
BI00B32N2    2152103764     202202107116-4231-02             TERMINAL                 CCN000026000000026000FN00000000020220301000026000NNM   20220113143028    4P0P  00002600000000683800001012532N2    YWYIPLTC006400630017
BI00B32N2    2152103764     202202107126-8853-02             TERMINAL                 CCN000007500000007500FN00000000020220301000007500NNM   20220113143028    4P0P  00000750000000562500000847732N2    YWYIPLTC006400630015
BI00B32N2    #2152103764    202202107157-3821                RUBBER STOPPER           CCN000040000000040000FN00000000020220301000040000NNM   20220113143024    2C0C  00002000000000176000000238032N2    YWYIPLTC002700430014
BI00B32N2    #2152103764    202202107174-0152                CONNECTOR                CCN000000350000000350FN00000000020220301000000350NNM   20220113143024    2F0F  00000035000000746400000918632N2    YWYIPLTC005500360039
BI00B32N2    #2152103764    202202107187-3356                JOINT CONNECTOR          CCN000002400000002400FN00000000020220301000002400NNM   20220113143024    2F0F  00000120000000759600001024432N2    YWYIPLTC005600390040
BI00B32N2    #2152103764    202202107187-3360                JOINT CONNECTOR          CCN000003600000003600FN00000000020220301000003600NNM   20220113143024    2F0F  00000120000000759600001026832N2    YWYIPLTC005600390040
BI00B32N2    #2152103764    202202107187-3970                CONNECTOR FLAME          CCN000000368000000368FN00000000020220301000000368NNM   20220113143024    2F0F  00000036800001414000001737332N2    YWYIPLTC005600390040
BI00B32N2    #2152103764    202202107183-7725-40             HOUSING                  CCN000006000000006000FN00000000020220301000006000NNM   20220113143024    2F0F  00000600000000840000001040032N2    YWYIPLTC005600390040
BI00A32Q8    #EU22024TMW    202201147282-5528-70             HOUSING MALE ASS'Y       CCN000002000000002000FN00000000020220201000002000NNMM0020220113122006    2N0N  00000100000000230000000339032Q8    EMEMI   005400370024
BI00A32Q8    EU22031 MW     202201137116-1685-02             TERMINAL                 CCN000024000000024000FY00002400020220301000000000NNMM0020220113153914    4P0P  00002400000000897600001065232Q8    EMEMI   005100280028
BI00A32Q8    #EU22031DMW    202201177287-8860                HOUSING FEMALE ASS'Y     CCN000003200000003200FN00000000020220301000003200NNMM0020220113122006    2N0N  00000160000000693400000853432Q8    EMEMI   005400370024
BI00B32Q8    QA-21-C134     202201137289-3342                HOUSING FEMALE ASS'Y     PNY000011368000009600FY00000960020220101000000000NNE00020220113162057    1N0N  00000240000000686400000901432Q8    EMEMI   005500360039
BI00B32Q8    EU2203CTMW     202203097283-4576-30             HOUSING FEMALE ASS'Y     CCN000004800000004800FN00000000020220301000004800NNED0220220113132135    4N0N  00000480000000651300000871332Q8    EMEMI   005500360039
BI00B32Q8    EU2203CTMW     202204067289-6547                HOUSING FEMALE ASS'Y     CCN000002400000002400FN00000000020220301000002400NNED0220220113132239    1N0N  00000240000001152000001362032Q8    EMEMI   005500360039
BI00B32Q8    EU22042TMW     202204067287-1917-30             CONNECTOR FEMALE         CCN000012000000012000FN00000000020220401000012000NNMD0220220113132214    4N0N  00000240000001060800001312532Q8    EMEMI   005500360039
BI00B32Q8    EU22042TMW     202202167289-6547                HOUSING FEMALE ASS'Y     CCN000002400000002400FN00000000020220401000002400NNMD0220220113132302    1N0N  00000240000001152000001362032Q8    EMEMI   005500360039
BI00B32Q8    EU22043TMW     202202237289-6547                HOUSING FEMALE ASS'Y     CCN000002400000002400FN00000000020220401000002400NNMD0220220113132324    1N0N  00000240000001152000001362032Q8    EMEMI   005500360039
BI00B32Q8    QA-21-C134     202201197289-3342                HOUSING FEMALE ASS'Y     PNY000001768000001768FN00000000020220101000001768NNE00020220113162057    1N0N  00000240000000686400000901432Q8    EMEMI   005500360039
BI00A32U5    #DI2011        202201177189-3032                HOUSING FEMALE           CCN000012800000012800FN00000000020220401000012800NNMM0020220113143316U5  2F0F  00000160000000788400001018432U5    AMAMSD  005500360039
BI00B32W4    4500186225     202203017158-3166-60             WIRE SEAL                CCN000040000000040000FN00000000020220201000040000NNED0020220113122006W41 1C0C  00004000000000104000000152432W41   HJYHK   002700430014
BI00A32W4    @4500187614    202201277283-3030                HOUSING FEMALE ASS'Y     CCN000001600000001600FN00000000020220101000001600NNE   20220113122006W4513N0N  00000160000001056300001303032W451  HJ32W9  005500360039
BI00B32W4    4500187608     202203177116-4102-02             TERMINAL                 CCN000012000000012000FN00000000020220301000012000NNE   20220113122006W4464P0P  00001200000000553200000841432W446  HJYHK   006400630015
BI00B32W4    4500187608     202203177116-4025                TERMINAL                 CCN000016000000016000FN00000000020220301000016000NNE   20220113122006W4464P0P  00001600000000644800000975132W446  HJYHK   006400630017
BI00B32W4    4500187608     202203177116-4026                TERMINAL                 CCN000016000000016000FN00000000020220301000016000NNE   20220113122006W4464P0P  00001600000000664000000994332W446  HJYHK   006400630017
BI00B32W4    4500187608     202203177158-3167-80             WIRE SEAL                CCN000040000000040000FN00000000020220301000040000NNE   20220113122006W4461C0C  00002000000000048000000109032W446  HJYHK   002700430014
BI00B32W4    #4500187608    202203177158-3003-90             RUBBER STOPPER           CCN000020000000020000FN00000000020220301000020000NNE   20220113122006W4462C0C  00002000000000250000000306032W446  HJYHK   002700430014
BI00B32W4    #4500187608    202203177282-3243-40             CONNECTOR                CCN000000800000000800FN00000000020220301000000800NNE   20220113122006W4462N0N  00000080000001006000001282332W446  HJYHK   005600390040
BI00B32W4    #4500187608    202203177283-8123-40             CONNECTOR HOUSING        CCN000004000000004000FN00000000020220301000004000NNE   20220113122006W4462N0N  00000400000000380000000530032W446  HJYHK   005600390023
BI00A32W4    4500187621     202203147116-4100-02             TERMINAL                 CCN000015000000015000FN00000000020220301000015000NNE   20220113122006W4O24P0P  00001500000000696000000990232W4O2  HJYHK-J 006400630015
BI00A32W4    4500187621     202203147116-4112-02             TERMINAL                 CCN000006000000006000FN00000000020220301000006000NNE   20220113122006W4O24P0P  00000600000000450000000738232W4O2  HJYHK-J 006400630015
BI00A32W4    4500187621     202203147116-4102-02             TERMINAL                 CCN000060000000060000FN00000000020220301000060000NNE   20220113122006W4O24P0P  00001200000000553200000841432W4O2  HJYHK-J 006400630015
BI00A32W4    4500187621     202203147116-4025                TERMINAL                 CCN000016000000016000FN00000000020220301000016000NNE   20220113122006W4O24P0P  00001600000000644800000975132W4O2  HJYHK-J 006400630017
BI00A32W4    4500187621     202203147283-7028-30             CONNECTOR                CCN000009000000009000FN00000000020220301000009000NNE   20220113122006W4O24N0N  00000300000001452000001681332W4O2  HJYHK-J 005600390040
BI00A32W4    4500187621     202203147116-4101-02             TERMINAL                 CCN000012000000012000FN00000000020220301000012000NNE   20220113122006W4O24P0P  00001200000000582000000876232W4O2  HJYHK-J 006400630015
BI00A32W4    4500187621     202203147116-4110-02             TERMINAL                 CCN000027000000027000FN00000000020220301000027000NNE   20220113122006W4O24P0P  00000900000000594000000882232W4O2  HJYHK-J 006400630015
BI00A32W4    4500187621     202203147116-4103-02             TERMINAL                 CCN000024000000024000FN00000000020220301000024000NNE   20220113122006W4O24P0P  00001200000000571200000859432W4O2  HJYHK-J 006400630015
BI00A32W4    4500187621     202203147282-5574-10             CONNECTOR                CCN000000800000000800FN00000000020220301000000800NNE   20220113122006W4O24N0N  00000080000001235000001423032W4O2  HJYHK-J 005600390040
BI00A32W4    @4500187621    202203147183-8049                CONNECTOR HOUSING        CCN000004000000004000FN00000000020220301000004000NNE   20220113122006W4O23F0F  00000400000000583600000740032W4O2  HJYHK-J 005400370024
BI00B32W4    4500187623     202205057289-4696-30             HOUSING FEMALE ASS'Y     CCN000022000000022000FN00000000020220601000022000NNE   20220113122006W4284N0N  00000200000000913400001055432W428  HJYHK   005400370024
BI00B32W4    4500187624     202205127289-4696-30             HOUSING FEMALE ASS'Y     CCN000030000000030000FN00000000020220501000030000NNE   20220113122006W4284N0N  00000200000000913400001055432W428  HJYHK   005400370024
BI00B32W4    4500187625     202204077289-4696-30             HOUSING FEMALE ASS'Y     CCN000030000000030000FN00000000020220401000030000NNE   20220113122006W4284N0N  00000200000000913400001055432W428  HJYHK   005400370024
BI00B32W4    4500187626     202203107289-4696-30             HOUSING FEMALE ASS'Y     CCN000030000000030000FN00000000020220301000030000NNE   20220113122006W4284N0N  00000200000000913400001055432W428  HJYHK   005400370024
BI00B32W4    4500187627     202202107289-4696-30             HOUSING FEMALE ASS'Y     CCN000030000000030000FN00000000020220201000030000NNE   20220113122006W4284N0N  00000200000000913400001055432W428  HJYHK   005400370024
BI00A32W4    4500187653     202202247114-4112-02             TERMINAL                 CCN000054000000054000FN00000000020220201000054000NNE   20220113122006W4524P0P  00000900000000598500000927132W452  HJYHK   006400630017
BI00A32W4    4500187653     202202247158-3165-90             WIRE SEAL                CCN000080000000080000FN00000000020220201000080000NNE   20220113122006W4521C0C  00004000000000124000000172432W452  HJYHK   004300270014
BI00A32W4    4500187653     202202247116-4111-02             TERMINAL                 CCN000015000000015000FN00000000020220201000015000NNE   20220113122006W4524P0P  00000750000000529500000817732W452  HJYHK   006400630015
BI00A32W4    4500187665     202203037158-3167-80             WIRE SEAL                CCN000120000000120000FN00000000020220301000120000NNE   20220113122006W4A21C0C  00002000000000048000000109032W4A2  HJYHK-J 002700430014
BI00A32W4    4500187665     202203037116-4111-02             TERMINAL                 CCN000007500000007500FN00000000020220301000007500NNE   20220113122006W4A24P0P  00000750000000529500000817732W4A2  HJYHK-J 006400630015
BI00A32W4    #4500187665    202203037147-3642-30             CLIP                     CCN000027000000027000FN00000000020220301000027000NNE   20220113122006W4A22F0F  00000300000000542000000721332W4A2  HJYHK-J 005600390040
BI00A32W4    #4500187665    202203037283-4190-30             CONNECTOR                CCN000002400000002400FN00000000020220301000002400NNE   20220113122006W4A22N0N  00000024000000846000001115532W4A2  HJYHK-J 005600390040
BI00A32W4    #4500187666    202203107283-8226-30             CONNECTOR                CCN000004000000004000FN00000000020220301000004000NNE   20220113122006W4A22N0N  00000200000000820000001008032W4A2  HJYHK-J 005400370024
BI00A32W4    4500187667     202203177116-4103-02             TERMINAL                 CCN000012000000012000FN00000000020220301000012000NNE   20220113122006W4A24P0P  00001200000000571200000859432W4A2  HJYHK-J 006400630015
BI00A32W4    4500187667     202203177158-3169-40             SEALING PLUG             CCN000040000000040000FN00000000020220301000040000NNE   20220113122006W4A21C0C  00004000000000156000000204132W4A2  HJYHK-J 004300260014
BI00A32W4    4500187667     202203177116-4031                TERMINAL                 CCN000007500000007500FN00000000020220301000007500NNE   20220113122006W4A24P0P  00000750000000619500000904732W4A2  HJYHK-J 006400630015
BI00A32W4    4500187667     202203177116-4110-02             TERMINAL                 CCN000009000000009000FN00000000020220301000009000NNE   20220113122006W4A24P0P  00000900000000594000000882232W4A2  HJYHK-J 006400630015
BI00A32W4    4500187667     202203177158-3168-80             SEALED                   CCN000020000000020000FN00000000020220301000020000NNE   20220113122006W4A21C0C  00002000000000044000000092132W4A2  HJYHK-J 004300260014
BI00A32W4    4500187667     202203177116-4112-02             TERMINAL                 CCN000006000000006000FN00000000020220301000006000NNE   20220113122006W4A24P0P  00000600000000450000000738232W4A2  HJYHK-J 006400630015
BI00A32W4    #4500187667    202203177183-7725-40             HOUSING                  CCN000006000000006000FN00000000020220301000006000NNE   20220113122006W4A22F0F  00000600000000840000001040032W4A2  HJYHK-J 005600390040
BI00B32W4    4500187674     202203037283-1020                CONNECTOR                CCN000006000000006000FN00000000020220301000006000NNE   20220113122006W4654N0N  00000600000000840000001049332W465  HJYHK   005600390040
BI00B32W4    4500187675     202203177116-4100-02             TERMINAL                 CCN000300000000300000FN00000000020220301000300000NNE   20220113122006W4654P0P  00001500000000696000000990232W465  HJYHK   006400630015
BI00B32W4    4500187675     202203177114-4112-02             TERMINAL                 CCN000072000000072000FN00000000020220301000072000NNE   20220113122006W4654P0P  00000900000000598500000927132W465  HJYHK   006400630017
BI00B32W4    4500187675     202203177116-4111-02             TERMINAL                 CCN000075000000075000FN00000000020220301000075000NNE   20220113122006W4654P0P  00000750000000529500000817732W465  HJYHK   006400630015
BI00B32W4    4500187675     202203177116-4112-02             TERMINAL                 CCN000180000000180000FN00000000020220301000180000NNE   20220113122006W4654P0P  00000600000000450000000738232W465  HJYHK   006400630015
BI00B32W4    4500187675     202203177116-4102-02             TERMINAL                 CCN000360000000360000FN00000000020220301000360000NNE   20220113122006W4654P0P  00001200000000553200000841432W465  HJYHK   006400630015
BI00B32W4    4500187675     202203177116-4025                TERMINAL                 CCN000016000000016000FN00000000020220301000016000NNE   20220113122006W4654P0P  00001600000000644800000975132W465  HJYHK   006400630017
BI00B32W4    4500187675     202203177114-4100-02             TERMINAL                 CCN000054000000054000FN00000000020220301000054000NNE   20220113122006W4654P0P  00001800000000748800001077432W465  HJYHK   006400630017
BI00B32W4    4500187675     202203177114-4111-02             TERMINAL                 CCN000072000000072000FN00000000020220301000072000NNE   20220113122006W4654P0P  00001200000000758400001087032W465  HJYHK   006400630017
BI00B32W4    4500187675     202203177158-3167-80             WIRE SEAL                CCN000140000000140000FN00000000020220301000140000NNE   20220113122006W4651C0C  00002000000000048000000109032W465  HJYHK   002700430014
BI00B32W4    4500187675     202203177158-3169-40             SEALING PLUG             CCN000080000000080000FN00000000020220301000080000NNE   20220113122006W4651C0C  00004000000000156000000204132W465  HJYHK   004300260014
BI00B32W4    4500187675     202203177116-4101-02             TERMINAL                 CCN000060000000060000FN00000000020220301000060000NNE   20220113122006W4654P0P  00001200000000582000000876232W465  HJYHK   006400630015
BI00B32W4    4500187675     202203177114-4110-02             TERMINAL                 CCN000045000000045000FN00000000020220301000045000NNE   20220113122006W4654P0P  00001500000000901500001230132W465  HJYHK   006400630017
BI00B32W4    4500187675     202203177116-4110-02             TERMINAL                 CCN000090000000090000FN00000000020220301000090000NNE   20220113122006W4654P0P  00000900000000594000000882232W465  HJYHK   006400630015
BI00B32W4    4500187675     202203177116-4103-02             TERMINAL                 CCN000144000000144000FN00000000020220301000144000NNE   20220113122006W4654P0P  00001200000000571200000859432W465  HJYHK   006400630015
BI00B32W4    4500187675     202203177283-6568-40             CONNECTOR                CCN000002000000002000FN00000000020220301000002000NNE   20220113122006W4654N0N  00000200000001090000001263032W465  HJYHK   005500360039
BI00B32W4    4500187675     202203177196-1461-06             TERMINAL FEMALE          CCN000024000000024000FN00000000020220301000024000NNE   20220113122006W4654P0P  00002400000000386400000692932W465  HJYHK   006400630015
BI00B32W4    #4500187676    202203317289-4104-40             HOUSING FEMALE ASS'Y     CCN000013000000013000FN00000000020220301000013000NNE   20220113122006W4652NON  00000050000000000000000000032W465  HJYHK   000000000000
BI00A32W6    SW22011QMW     202201147327-6870-30             MULTI FUSE               PCN000016128000003744FN00000000020220101000003744NNM00020220113145552    4N0N  00000028800001015200001181132W6    SYSYA-WJ005400370024
BI00A32W6    SW22011QMW     202201147327-6874-30             MULTI FUSE               PCN000016416000004320FN00000000020220101000004320NNM00020220113145552    4N0N  00000028800000991400001157332W6    SYSYA-WJ005400370024
BI00A32W6    SW22011QMW     202201147327-6880-30             MULTI FUSE               PCN000016416000002304FN00000000020220101000002304NNM00020220113145552    4N0N  00000028800001012600001178532W6    SYSYA-WJ005400370024
BI00A32W6    SW22011QMW     202201147327-6884-30             MULTI FUSE               PCN000017280000011520FN00000000020220101000011520NNM00020220113145552    4N0N  00000028800000988900001154832W6    SYSYA-WJ005400370024
BI00A32W6    SW22011QMW     202201177327-6870-30             MULTI FUSE               PCN000005760000005760FN00000000020220101000005760NNM00020220113143038    4N0N  00000028800001015200001181132W6    SYSYA-WJ005400370024
BI00A32W6    SW22011QMW     202201217327-6870-30             MULTI FUSE               PCN000006624000006624FN00000000020220101000006624NNM00020220113143052    4N0N  00000028800001015200001181132W6    SYSYA-WJ005400370024
BI00A32W6    SW22011QMW     202201177327-6874-30             MULTI FUSE               PCN000005760000005760FN00000000020220101000005760NNM00020220113143151    4N0N  00000028800000991400001157332W6    SYSYA-WJ005400370024
BI00A32W6    SW22011QMW     202201217327-6874-30             MULTI FUSE               PCN000006336000006336FN00000000020220101000006336NNM00020220113143220    4N0N  00000028800000991400001157332W6    SYSYA-WJ005400370024
BI00B32W6    SW22011QMW     202201197327-6880-30             MULTI FUSE               CCN000005760000005760FN00000000020220101000005760NNM00020220113143403    4N0N  00000028800001012600001178532W6    SYSYA-WJ005400370024
BI00B32W6    SW22011QMW     202201217327-6880-30             MULTI FUSE               CCN000008352000008352FN00000000020220101000008352NNM00020220113143417    4N0N  00000028800001012600001178532W6    SYSYA-WJ005400370024
BI00B32W6    SW22011QMW     202201217327-6884-30             MULTI FUSE               CCN000005760000005760FN00000000020220101000005760NNM00020220113143518    4N0N  00000028800000988900001154832W6    SYSYA-WJ005400370024
BI00B32W9    4500187673     202203017114-4100-02             TERMINAL                 CCN000018000000018000FN00000000020220301000018000NNE   20220113122006W9  4P0P  00001800000000748800001077432W9    HKYHK   006400630017
BI00B32Y6    STAP32051      202202037289-3342                HOUSING FEMALE ASS'Y     CCN000024000000024000FN00000000020220501000024000NNMD0020220113122006    1N0N  00000240000000686400000901432Y6    BSYBL-S 005500360039
BI00B32Y6    STAP32051      202202037289-3342-30             HOUSING FEMALE ASS'Y     CCN000036000000036000FN00000000020220501000036000NNMD0020220113122006    1N0N  00000240000000686400000901432Y6    BSYBL-S 005500360039
BI00A32Y8    TAIM22011      202202237116-1473                TERMINAL                 CCN000013500000013500FN00000000020220601000013500NNE   20220113122006Y8  4P0P  00001350000000523800000809032Y8    CLYCL   006400630015
BI00A32Y8    TAIM22011      202202237116-1685                TERMINAL                 CCN000024000000024000FN00000000020220601000024000NNE   20220113122006Y8  4P0P  00002400000000892800001067232Y8    CLYCL   005100280028
BI00A32Y8    TAIM22011      202202237235-8662                DOOR GROMMET             CCN000000160000000160FN00000000020220601000000160NNE   20220113122006Y8  4N0N  00000016000000844000001010032Y8    CLYCL   005500360039
BI00A32Y8    TAIM22011      202202237286-3970                CONNECTOR HOUSING        CCN000000110000000110FN00000000020220601000000110NNE   20220113122006Y8  1N0N  00000011000000977300001164032Y8    CLYCL   005500360039
BI00A32Y8    TAIM22011      202202237017-1183-02             TERMINAL                 CCN000027000000027000FN00000000020220601000027000NNE   20220113122006Y8  4P0P  00002700000001139400001307432Y8    CLYCL   005100280028
BI00A32Y8    #TAIM22011     202202237174-0152                CONNECTOR                CCN000000350000000350FN00000000020220601000000350NNE   20220113122006Y8  2F0F  00000035000000746400000918632Y8    CLYCL   005500360039
BI00A32Y8    #TAIM22011     202202237158-3121-80             WIRE SEAL                CCN000020000000020000FN00000000020220601000020000NNE   20220113122006Y8  2C0C  00002000000000118000000187332Y8    CLYCL   002700430014
